# Event 65535

## Metadata

| Field           | Value    |
|-----------------|----------|
| Event Index     | 5/5      |
| Offset          | 0x0030   |
| Data Size       | 45 bytes |
| Calculated Size | 45 bytes |
| Instructions    | 6        |

```
      00 01 02 03 04 05 06 07  08 09 0A 0B 0C 0D 0E 0F
      -- -- -- -- -- -- -- --  -- -- -- -- -- -- -- --
0030: 33 01 37 05 80 06 80 07  80 08 80 80 F8 FF FF 7F  3.7.............
0040: 5B 04 80 96 20 03 01 96  20 03 01 70 61 30 31 53  [... ... ..pa01S
0050: 96 20 03 01 96 20 03 01  70 61 30 31 00           . ... ..pa01.   
```

## Opcodes

```
  0: 0x0030 [0x33] EventEntity->Render.Flags0 |= 0x200000 // Bit 21 (flag=0x01)
  1: 0x0032 [0x37] UPDATE_EVENT_POSITION_AND_DIR: x=95.383*, z=-25.664*, y=-6.000*, direction=23.6°*
  2: 0x003B [0x80] LOAD_WAIT(entity=EventEntity)
  3: 0x0040 [0x5B] LOAD_EXT_SCHEDULER(work_offset=850*, entity1=Automaton (ID: 16982166/0x01032096), entity2=Automaton (ID: 16982166/0x01032096), action="pa01")
  4: 0x004F [0x53] WAIT_SCHEDULER_TASK(entity1=Automaton (ID: 16982166/0x01032096), entity2=Automaton (ID: 16982166/0x01032096), action_id="pa01")
  5: 0x005C [0x00] END_REQSTACK()
```
