# Event 65535

## Metadata

| Field           | Value    |
|-----------------|----------|
| Event Index     | 19/36    |
| Offset          | 0x0124   |
| Data Size       | 49 bytes |
| Calculated Size | 49 bytes |
| Instructions    | 4        |

```
      00 01 02 03 04 05 06 07  08 09 0A 0B 0C 0D 0E 0F
      -- -- -- -- -- -- -- --  -- -- -- -- -- -- -- --
0120:             5F 03 06 80  B0 10 10 01 B0 10 10 01      _...........
0130: 78 78 78 78 5F 03 09 80  93 10 10 01 93 10 10 01  xxxx_...........
0140: 78 78 78 78 5F 03 0A 80  A2 10 10 01 A2 10 10 01  xxxx_...........
0150: 78 78 78 78 00                                    xxxx.           
```

## Opcodes

```
  0: 0x0124 [0x5F] MULTI_HANDLER_COMPLEX(mode=0x03 - Load ext scheduler (OpCode 0x5B mode 0), ref=3433*, entity1=Unnamed NPC (ID: 17830064/0x011010B0), entity2=Unnamed NPC (ID: 17830064/0x011010B0), string="xxxx")
  1: 0x0134 [0x5F] MULTI_HANDLER_COMPLEX(mode=0x03 - Load ext scheduler (OpCode 0x5B mode 0), ref=3352*, entity1=Hildebert (ID: 17830035/0x01101093), entity2=Hildebert (ID: 17830035/0x01101093), string="xxxx")
  2: 0x0144 [0x5F] MULTI_HANDLER_COMPLEX(mode=0x03 - Load ext scheduler (OpCode 0x5B mode 0), ref=3249*, entity1=Unnamed NPC (ID: 17830050/0x011010A2), entity2=Unnamed NPC (ID: 17830050/0x011010A2), string="xxxx")
  3: 0x0154 [0x00] END_REQSTACK()
```
