# Event 65535

## Metadata

| Field           | Value    |
|-----------------|----------|
| Event Index     | 4/4      |
| Offset          | 0x0003   |
| Data Size       | 71 bytes |
| Calculated Size | 71 bytes |
| Instructions    | 15       |

```
      00 01 02 03 04 05 06 07  08 09 0A 0B 0C 0D 0E 0F
      -- -- -- -- -- -- -- --  -- -- -- -- -- -- -- --
0000:          27 10 E3 62 06  01 0A 1C 00 80 27 10 E4     '..b......'..
0010: 62 06 01 0A 1C 00 80 27  10 E5 62 06 01 0A 1C 00  b......'..b.....
0020: 80 27 10 E6 62 06 01 0A  1C 00 80 27 10 E7 62 06  .'..b......'..b.
0030: 01 0A 1C 00 80 27 10 E8  62 06 01 0A 1C 00 80 27  .....'..b......'
0040: 10 E9 62 06 01 0A 1C 00  80 00                    ..b.......      
```

## Opcodes

```
  0: 0x0003 [0x27] REQ_SET(priority=0x10, entity_id=Disjoined One (ID: 17195747/0x010662E3), tag_num=0x0A)
  1: 0x000A [0x1C] WAIT(45* ticks)
  2: 0x000D [0x27] REQ_SET(priority=0x10, entity_id=Disjoined One (ID: 17195748/0x010662E4), tag_num=0x0A)
  3: 0x0014 [0x1C] WAIT(45* ticks)
  4: 0x0017 [0x27] REQ_SET(priority=0x10, entity_id=Disjoined One (ID: 17195749/0x010662E5), tag_num=0x0A)
  5: 0x001E [0x1C] WAIT(45* ticks)
  6: 0x0021 [0x27] REQ_SET(priority=0x10, entity_id=Disjoined One (ID: 17195750/0x010662E6), tag_num=0x0A)
  7: 0x0028 [0x1C] WAIT(45* ticks)
  8: 0x002B [0x27] REQ_SET(priority=0x10, entity_id=Disjoined One (ID: 17195751/0x010662E7), tag_num=0x0A)
  9: 0x0032 [0x1C] WAIT(45* ticks)
 10: 0x0035 [0x27] REQ_SET(priority=0x10, entity_id=Disjoined One (ID: 17195752/0x010662E8), tag_num=0x0A)
 11: 0x003C [0x1C] WAIT(45* ticks)
 12: 0x003F [0x27] REQ_SET(priority=0x10, entity_id=Disjoined One (ID: 17195753/0x010662E9), tag_num=0x0A)
 13: 0x0046 [0x1C] WAIT(45* ticks)
 14: 0x0049 [0x00] END_REQSTACK()
```
