# Event 140

## Metadata

| Field           | Value    |
|-----------------|----------|
| Event Index     | 12/27    |
| Offset          | 0x0132   |
| Data Size       | 41 bytes |
| Calculated Size | 41 bytes |
| Instructions    | 11       |

```
      00 01 02 03 04 05 06 07  08 09 0A 0B 0C 0D 0E 0F
      -- -- -- -- -- -- -- --  -- -- -- -- -- -- -- --
0130:       79 00 F8 FF FF 7F  F0 FF FF 7F 29 0B 0E F0    y.........)...
0140: 0E 01 01 1D 0F 80 23 1D  10 80 23 29 0B 0E F0 0E  ......#...#)....
0150: 01 02 7B F8 FF FF 7F 20  00 21 00                 ..{.... .!.     
```

## Opcodes

```
  0: 0x0132 [0x79] EventEntity looks at LocalPlayer (Basic look)
  1: 0x013C [0x29] REQ_SET_WAIT(priority=0x0B, entity_id=Chawo Shipeynyo (ID: 17756174/0x010EF00E), tag_num=0x01)
  2: 0x0143 [0x1D] PRINT_EVENT_MESSAGE(message_id=7407*)
    → "I hearrrd that!\u0007You'rrre talking about the Sibyl Guards, rrright?\u007F1\u0000\u0007"
  3: 0x0146 [0x23] WAIT_FOR_DIALOG_INTERACTION
  4: 0x0147 [0x1D] PRINT_EVENT_MESSAGE(message_id=7408*)
    → "They'rrre no Mithra, that mob. They werrre rrraised by the Tarutaru, so they have lost theirrr Mithran spirit! Why, they'rrre nothing more than a band of traitorrrs!\u007F1\u0000\u0007"
  5: 0x014A [0x23] WAIT_FOR_DIALOG_INTERACTION
  6: 0x014B [0x29] REQ_SET_WAIT(priority=0x0B, entity_id=Chawo Shipeynyo (ID: 17756174/0x010EF00E), tag_num=0x02)
  7: 0x0152 [0x7B] EventEntity stops talking
  8: 0x0157 [0x20] SET_CLI_EVENT_UC_FLAG: Unlock player control
  9: 0x0159 [0x21] END_EVENT
 10: 0x015A [0x00] END_REQSTACK()
```
