# Event 364

## Metadata

| Field           | Value    |
|-----------------|----------|
| Event Index     | 17/27    |
| Offset          | 0x01D4   |
| Data Size       | 36 bytes |
| Calculated Size | 36 bytes |
| Instructions    | 10       |

```
      00 01 02 03 04 05 06 07  08 09 0A 0B 0C 0D 0E 0F
      -- -- -- -- -- -- -- --  -- -- -- -- -- -- -- --
01D0:             79 00 F8 FF  FF 7F F0 FF FF 7F 29 0B      y.........).
01E0: 0E F0 0E 01 01 1D 17 80  23 1D 18 80 23 29 0B 0E  ........#...#)..
01F0: F0 0E 01 02 20 00 21 00                           .... .!.        
```

## Opcodes

```
  0: 0x01D4 [0x79] EventEntity looks at LocalPlayer (Basic look)
  1: 0x01DE [0x29] REQ_SET_WAIT(priority=0x0B, entity_id=Chawo Shipeynyo (ID: 17756174/0x010EF00E), tag_num=0x01)
  2: 0x01E5 [0x1D] PRINT_EVENT_MESSAGE(message_id=8751*)
    → "I was told a lot of stories about the Grrreat War as a child, but only those that centered on Chieftainness Perih Vashai.\u007F1\u0000\u0007"
  3: 0x01E8 [0x23] WAIT_FOR_DIALOG_INTERACTION
  4: 0x01E9 [0x1D] PRINT_EVENT_MESSAGE(message_id=8752*)
    → "Although I did hear a story that Windurst was saved by a grrreat light that flowed out from the magic towers. I wonder what could've caused that light?\u007F1\u0000\u0007"
  5: 0x01EC [0x23] WAIT_FOR_DIALOG_INTERACTION
  6: 0x01ED [0x29] REQ_SET_WAIT(priority=0x0B, entity_id=Chawo Shipeynyo (ID: 17756174/0x010EF00E), tag_num=0x02)
  7: 0x01F4 [0x20] SET_CLI_EVENT_UC_FLAG: Unlock player control
  8: 0x01F6 [0x21] END_EVENT
  9: 0x01F7 [0x00] END_REQSTACK()
```
