# Event 382

## Metadata

| Field           | Value    |
|-----------------|----------|
| Event Index     | 14/27    |
| Offset          | 0x0180   |
| Data Size       | 36 bytes |
| Calculated Size | 36 bytes |
| Instructions    | 10       |

```
      00 01 02 03 04 05 06 07  08 09 0A 0B 0C 0D 0E 0F
      -- -- -- -- -- -- -- --  -- -- -- -- -- -- -- --
0180: 79 00 F8 FF FF 7F F0 FF  FF 7F 29 0B 0E F0 0E 01  y.........).....
0190: 01 1D 12 80 23 1D 13 80  23 29 0B 0E F0 0E 01 02  ....#...#)......
01A0: 20 00 21 00                                        .!.            
```

## Opcodes

```
  0: 0x0180 [0x79] EventEntity looks at LocalPlayer (Basic look)
  1: 0x018A [0x29] REQ_SET_WAIT(priority=0x0B, entity_id=Chawo Shipeynyo (ID: 17756174/0x010EF00E), tag_num=0x01)
  2: 0x0191 [0x1D] PRINT_EVENT_MESSAGE(message_id=8716*)
    → "I've been thinking that the Star Sibyl must have some kind of strrrategy in mind for dealing with those treacherous Yagudo.\u007F1\u0000\u0007"
  3: 0x0194 [0x23] WAIT_FOR_DIALOG_INTERACTION
  4: 0x0195 [0x1D] PRINT_EVENT_MESSAGE(message_id=8717*)
    → "This whole \u00072Okay, here's your tribute!\u00073 facade is just a stalling tactic. Or at least, that's what I'd like to think.\u007F1\u0000\u0007"
  5: 0x0198 [0x23] WAIT_FOR_DIALOG_INTERACTION
  6: 0x0199 [0x29] REQ_SET_WAIT(priority=0x0B, entity_id=Chawo Shipeynyo (ID: 17756174/0x010EF00E), tag_num=0x02)
  7: 0x01A0 [0x20] SET_CLI_EVENT_UC_FLAG: Unlock player control
  8: 0x01A2 [0x21] END_EVENT
  9: 0x01A3 [0x00] END_REQSTACK()
```
