# Event 65535

## Metadata

| Field           | Value    |
|-----------------|----------|
| Event Index     | 12/12    |
| Offset          | 0x00C5   |
| Data Size       | 50 bytes |
| Calculated Size | 50 bytes |
| Instructions    | 10       |

```
      00 01 02 03 04 05 06 07  08 09 0A 0B 0C 0D 0E 0F
      -- -- -- -- -- -- -- --  -- -- -- -- -- -- -- --
00C0:                32 01 80  1F 00 0E 80 0F 80 10 80       2..........
00D0: 1F 01 6F 4A 22 42 0A 01  4C 42 0A 01 7B 22 42 0A  ..oJ"B..LB..{"B.
00E0: 01 6F 76 22 42 0A 01 5B  11 80 22 42 0A 01 22 42  .ov"B..[.."B.."B
00F0: 0A 01 6C 62 74 30 00                              ..lbt0.         
```

## Opcodes

```
  0: 0x00C5 [0x32] ExtData[1]->MainSpeed = 40* * 0.1
  1: 0x00C8 [0x1F] MOVE_ENTITY: EventEntity moves to X=-23.159*, Z=-271.239*, Y=0.157*
  2: 0x00D0 [0x1F] MOVE_ENTITY: Update entity position (mode=1)
  3: 0x00D2 [0x6F] WAIT_FRAME_DELAY: Yield until WaitTime reaches zero
  4: 0x00D3 [0x4A] Phyatte (ID: 17449506/0x010A4222) looks at D (ID: 17449548/0x010A424C)
  5: 0x00DC [0x7B] Phyatte (ID: 17449506/0x010A4222) stops talking
  6: 0x00E1 [0x6F] WAIT_FRAME_DELAY: Yield until WaitTime reaches zero
  7: 0x00E2 [0x76] CHECK_ENTITY_RENDER_FLAGS: Wait until Phyatte (ID: 17449506/0x010A4222) Render.Flags0 and Render.Flags3 conditions are met
  8: 0x00E7 [0x5B] LOAD_EXT_SCHEDULER(work_offset=1302*, entity1=Phyatte (ID: 17449506/0x010A4222), entity2=Phyatte (ID: 17449506/0x010A4222), action="lbt0")
  9: 0x00F6 [0x00] END_REQSTACK()
```
