# 17138502

## Common Data

| Field            | Value                        |
|------------------|------------------------------|
| Zone             | North Gustaberg [S] (ID: 88) |
| Block Size       | 1692 bytes                   |
| Total Events     | 11                           |
| References Count | 102                          |

## List of Events

| Event ID                 | Entrypoint   |   Size |   Instructions |
|--------------------------|--------------|--------|----------------|
| [65535](#event-65535)    | 0x0000       |      1 |              1 |
| [114](#event-114)        | 0x0001       |      1 |              1 |
| [65535.1](#event-655351) | 0x0002       |     18 |              2 |
| [65535.2](#event-655352) | 0x0014       |    306 |             52 |
| [65535.3](#event-655353) | 0x0146       |     20 |              7 |
| [65535.4](#event-655354) | 0x015A       |    231 |             28 |
| [65535.5](#event-655355) | 0x0241       |    186 |             22 |
| [65535.6](#event-655356) | 0x02FB       |    145 |             33 |
| [65535.7](#event-655357) | 0x038C       |    109 |             25 |
| [65535.8](#event-655358) | 0x03F9       |     96 |             18 |
| [65535.9](#event-655359) | 0x0459       |    109 |             13 |

## DAT References (imed_data)

|   Index | Hex Value   |   Dec Value |
|---------|-------------|-------------|
|       0 | 0x00C8      |         200 |
|       1 | 0x0000      |           0 |
|       2 | 0x0013      |          19 |
|       3 | 0x000F      |          15 |
|       4 | 0x5CCBC     |      380092 |
|       5 | 0x78013     |      491539 |
|       6 | 0x7E22      |       32290 |
|       7 | 0x0E17      |        3607 |
|       8 | 0x5DCC2     |      384194 |
|       9 | 0x78B38     |      494392 |
|      10 | 0x7E13      |       32275 |
|      11 | 0x0ED2      |        3794 |
|      12 | 0x5BBD0     |      375760 |
|      13 | 0x7797E     |      489854 |
|      14 | 0x7EAC      |       32428 |
|      15 | 0x5D6EE     |      382702 |
|      16 | 0x7A3C8     |      500680 |
|      17 | 0x7F0C      |       32524 |
|      18 | 0x5A794     |      370580 |
|      19 | 0x76DC1     |      486849 |
|      20 | 0x7E94      |       32404 |
|      21 | 0x5DC5E     |      384094 |
|      22 | 0x78ADE     |      494302 |
|      23 | 0x004B      |          75 |
|      24 | 0x006C      |         108 |
|      25 | 0x000C      |          12 |
|      26 | 0x0001      |           1 |
|      27 | 0x0078      |         120 |
|      28 | 0x0072      |         114 |
|      29 | 0x0009      |           9 |
|      30 | 0x0005      |           5 |
|      31 | 0xFFFEB465  |  4294882405 |
|      32 | 0xFFFAF540  |  4294636864 |
|      33 | 0x1BD6      |        7126 |
|      34 | 0x033E      |         830 |
|      35 | 0xFFFEAA17  |  4294879767 |
|      36 | 0xFFFB0894  |  4294641812 |
|      37 | 0x1F42      |        8002 |
|      38 | 0x07E8      |        2024 |
|      39 | 0xFFFED825  |  4294891557 |
|      40 | 0xFFFAF55C  |  4294636892 |
|      41 | 0x1C18      |        7192 |
|      42 | 0x0600      |        1536 |
|      43 | 0xFFFECAF2  |  4294888178 |
|      44 | 0xFFFB1523  |  4294645027 |
|      45 | 0x1F3F      |        7999 |
|      46 | 0x080C      |        2060 |
|      47 | 0xFFFEB264  |  4294881892 |
|      48 | 0xFFFAFC58  |  4294638680 |
|      49 | 0x1D14      |        7444 |
|      50 | 0x0609      |        1545 |
|      51 | 0xFFFEBCF4  |  4294884596 |
|      52 | 0xFFFAFEC0  |  4294639296 |
|      53 | 0x1C87      |        7303 |
|      54 | 0x0B0A      |        2826 |
|      55 | 0x005A      |          90 |
|      56 | 0x086B      |        2155 |
|      57 | 0x003C      |          60 |
|      58 | 0xFFFC7444  |  4294734916 |
|      59 | 0xFFFD2EE0  |  4294782688 |
|      60 | 0x20AF      |        8367 |
|      61 | 0x0898      |        2200 |
|      62 | 0xFFFC75BF  |  4294735295 |
|      63 | 0xFFFD460D  |  4294788621 |
|      64 | 0x21D4      |        8660 |
|      65 | 0x0708      |        1800 |
|      66 | 0xFFFC5AB6  |  4294728374 |
|      67 | 0xFFFD14DA  |  4294776026 |
|      68 | 0x202A      |        8234 |
|      69 | 0x07D0      |        2000 |
|      70 | 0xFFFC6F5A  |  4294733658 |
|      71 | 0xFFFD1D9B  |  4294778267 |
|      72 | 0x1FAB      |        8107 |
|      73 | 0xFFFC8859  |  4294740057 |
|      74 | 0xFFFD3755  |  4294784853 |
|      75 | 0x1FE0      |        8160 |
|      76 | 0xFFFC8A06  |  4294740486 |
|      77 | 0xFFFD3BDD  |  4294786013 |
|      78 | 0x1FCB      |        8139 |
|      79 | 0x000A      |          10 |
|      80 | 0x0BB8      |        3000 |
|      81 | 0x0871      |        2161 |
|      82 | 0x4D89A     |      317594 |
|      83 | 0x5958A     |      365962 |
|      84 | 0x1FA0      |        8096 |
|      85 | 0x0E00      |        3584 |
|      86 | 0x4C92B     |      313643 |
|      87 | 0x5B969     |      375145 |
|      88 | 0x2116      |        8470 |
|      89 | 0x4BDA4     |      310692 |
|      90 | 0x5C834     |      378932 |
|      91 | 0x2162      |        8546 |
|      92 | 0x4BA02     |      309762 |
|      93 | 0x5A8D5     |      370901 |
|      94 | 0x1FC3      |        8131 |
|      95 | 0x0DFF      |        3583 |
|      96 | 0x4C79E     |      313246 |
|      97 | 0x5D4B2     |      382130 |
|      98 | 0x2213      |        8723 |
|      99 | 0x4C32A     |      312106 |
|     100 | 0x5E343     |      385859 |
|     101 | 0x2193      |        8595 |

## Events

### Event 65535

#### Metadata

| Field        | Value   |
|--------------|---------|
| Entrypoint   | 0x0000  |
| Data Size    | 1 bytes |
| Instructions | 1       |

```
      00 01 02 03 04 05 06 07  08 09 0A 0B 0C 0D 0E 0F
      -- -- -- -- -- -- -- --  -- -- -- -- -- -- -- --
0000: 00                                                .               
```

#### Opcodes

```
  0: 0x0000 [0x00] END_REQSTACK()
```

### Event 114

#### Metadata

| Field        | Value   |
|--------------|---------|
| Entrypoint   | 0x0001  |
| Data Size    | 1 bytes |
| Instructions | 1       |

```
      00 01 02 03 04 05 06 07  08 09 0A 0B 0C 0D 0E 0F
      -- -- -- -- -- -- -- --  -- -- -- -- -- -- -- --
0000:    00                                              .              
```

#### Opcodes

```
  0: 0x0001 [0x00] END_REQSTACK()
```

### Event 65535.1

#### Metadata

| Field        | Value    |
|--------------|----------|
| Entrypoint   | 0x0002   |
| Data Size    | 18 bytes |
| Instructions | 2        |

```
      00 01 02 03 04 05 06 07  08 09 0A 0B 0C 0D 0E 0F
      -- -- -- -- -- -- -- --  -- -- -- -- -- -- -- --
0000:       45 00 80 F0 FF FF  7F F0 FF FF 7F 62 6C 6F    E..........blo
0010: 66 01 80 00                                       f...            
```

#### Opcodes

```
  0: 0x0002 [0x45] LOAD_SCHEDULED_TASK: Load scheduler "blof" with entities [LocalPlayer, LocalPlayer], work=[200*, 0*]
  1: 0x0013 [0x00] END_REQSTACK()
```

### Event 65535.2

#### Metadata

| Field        | Value     |
|--------------|-----------|
| Entrypoint   | 0x0014    |
| Data Size    | 306 bytes |
| Instructions | 52        |

```
      00 01 02 03 04 05 06 07  08 09 0A 0B 0C 0D 0E 0F
      -- -- -- -- -- -- -- --  -- -- -- -- -- -- -- --
0010:             46 01 4E 01  F0 FF FF 7F 92 01 F0 FF      F.N.........
0020: FF 7F 94 01 F0 FF FF 7F  80 F0 FF FF 7F 38 02 80  .............8..
0030: 29 10 4C 83 05 01 06 1C  03 80 2F 00 49 83 05 01  ).L......./.I...
0040: 2F 00 48 83 05 01 2F 00  4A 83 05 01 2F 00 4B 83  /.H.../.J.../.K.
0050: 05 01 2F 00 4C 83 05 01  2F 00 4D 83 05 01 4E 00  ../.L.../.M...N.
0060: 49 83 05 01 4E 00 48 83  05 01 4E 00 4A 83 05 01  I...N.H...N.J...
0070: 4E 00 4B 83 05 01 4E 00  4C 83 05 01 4E 00 4D 83  N.K...N.L...N.M.
0080: 05 01 94 01 49 83 05 01  94 01 48 83 05 01 94 01  ....I.....H.....
0090: 4A 83 05 01 94 01 4B 83  05 01 94 01 4C 83 05 01  J.....K.....L...
00A0: 94 01 4D 83 05 01 92 01  49 83 05 01 92 01 48 83  ..M.....I.....H.
00B0: 05 01 92 01 4A 83 05 01  92 01 4B 83 05 01 92 01  ....J.....K.....
00C0: 4C 83 05 01 92 01 4D 83  05 01 BA 49 83 05 01 04  L.....M....I....
00D0: 80 05 80 06 80 07 80 BA  48 83 05 01 08 80 09 80  ........H.......
00E0: 0A 80 0B 80 BA 4A 83 05  01 0C 80 0D 80 0E 80 0B  .....J..........
00F0: 80 BA 4B 83 05 01 0F 80  10 80 11 80 0B 80 BA 4C  ..K............L
0100: 83 05 01 12 80 13 80 14  80 0B 80 BA 4D 83 05 01  ............M...
0110: 15 80 16 80 0A 80 0B 80  80 49 83 05 01 80 48 83  .........I....H.
0120: 05 01 80 4A 83 05 01 80  4B 83 05 01 80 4C 83 05  ...J....K....L..
0130: 01 80 4D 83 05 01 1C 17  80 33 00 33 00 33 00 33  ..M......3.3.3.3
0140: 00 33 00 33 00 00                                 .3.3..          
```

#### Opcodes

```
  0: 0x0014 [0x46] CAMERA_CONTROL: Disable user control
  1: 0x0016 [0x4E] SET_ENTITY_HIDE_FLAG: Hide LocalPlayer
  2: 0x001C [0x92] LocalPlayer->Render.Flags3 ^= 0x01
  3: 0x0022 [0x94] LocalPlayer->Render.Flags3 ^= 0x01
  4: 0x0028 [0x80] LOAD_WAIT(entity=LocalPlayer)
  5: 0x002D [0x38] SET_CLIENT_EVENT_MODE(mode=19*)
  6: 0x0030 [0x29] REQ_SET_WAIT(priority=0x10, entity_id=Darach (ID: 17138508/0x0105834C), tag_num=0x06)
  7: 0x0037 [0x1C] WAIT(15* ticks)
  8: 0x003A [0x2F] Abenzio (ID: 17138505/0x01058349)->Render.Flags0 &= ~0x80000 // Bit 19
  9: 0x0040 [0x2F] Babban Ny Mheillea (ID: 17138504/0x01058348)->Render.Flags0 &= ~0x80000 // Bit 19
 10: 0x0046 [0x2F] Bryher (ID: 17138506/0x0105834A)->Render.Flags0 &= ~0x80000 // Bit 19
 11: 0x004C [0x2F] Camlin (ID: 17138507/0x0105834B)->Render.Flags0 &= ~0x80000 // Bit 19
 12: 0x0052 [0x2F] Darach (ID: 17138508/0x0105834C)->Render.Flags0 &= ~0x80000 // Bit 19
 13: 0x0058 [0x2F] Unnamed NPC (ID: 17138509/0x0105834D)->Render.Flags0 &= ~0x80000 // Bit 19
 14: 0x005E [0x4E] SET_ENTITY_HIDE_FLAG: Show Abenzio (ID: 17138505/0x01058349)
 15: 0x0064 [0x4E] SET_ENTITY_HIDE_FLAG: Show Babban Ny Mheillea (ID: 17138504/0x01058348)
 16: 0x006A [0x4E] SET_ENTITY_HIDE_FLAG: Show Bryher (ID: 17138506/0x0105834A)
 17: 0x0070 [0x4E] SET_ENTITY_HIDE_FLAG: Show Camlin (ID: 17138507/0x0105834B)
 18: 0x0076 [0x4E] SET_ENTITY_HIDE_FLAG: Show Darach (ID: 17138508/0x0105834C)
 19: 0x007C [0x4E] SET_ENTITY_HIDE_FLAG: Show Unnamed NPC (ID: 17138509/0x0105834D)
 20: 0x0082 [0x94] Abenzio (ID: 17138505/0x01058349)->Render.Flags3 ^= 0x01
 21: 0x0088 [0x94] Babban Ny Mheillea (ID: 17138504/0x01058348)->Render.Flags3 ^= 0x01
 22: 0x008E [0x94] Bryher (ID: 17138506/0x0105834A)->Render.Flags3 ^= 0x01
 23: 0x0094 [0x94] Camlin (ID: 17138507/0x0105834B)->Render.Flags3 ^= 0x01
 24: 0x009A [0x94] Darach (ID: 17138508/0x0105834C)->Render.Flags3 ^= 0x01
 25: 0x00A0 [0x94] Unnamed NPC (ID: 17138509/0x0105834D)->Render.Flags3 ^= 0x01
 26: 0x00A6 [0x92] Abenzio (ID: 17138505/0x01058349)->Render.Flags3 ^= 0x01
 27: 0x00AC [0x92] Babban Ny Mheillea (ID: 17138504/0x01058348)->Render.Flags3 ^= 0x01
 28: 0x00B2 [0x92] Bryher (ID: 17138506/0x0105834A)->Render.Flags3 ^= 0x01
 29: 0x00B8 [0x92] Camlin (ID: 17138507/0x0105834B)->Render.Flags3 ^= 0x01
 30: 0x00BE [0x92] Darach (ID: 17138508/0x0105834C)->Render.Flags3 ^= 0x01
 31: 0x00C4 [0x92] Unnamed NPC (ID: 17138509/0x0105834D)->Render.Flags3 ^= 0x01
 32: 0x00CA [0xBA] SET_ENTITY_POSITION(entity_id=Abenzio (ID: 17138505/0x01058349), pos_x=380.092*, pos_z=491.539*, pos_y=32.290*, direction=317.0°*)
 33: 0x00D7 [0xBA] SET_ENTITY_POSITION(entity_id=Babban Ny Mheillea (ID: 17138504/0x01058348), pos_x=384.194*, pos_z=494.392*, pos_y=32.275*, direction=333.4°*)
 34: 0x00E4 [0xBA] SET_ENTITY_POSITION(entity_id=Bryher (ID: 17138506/0x0105834A), pos_x=375.760*, pos_z=489.854*, pos_y=32.428*, direction=333.4°*)
 35: 0x00F1 [0xBA] SET_ENTITY_POSITION(entity_id=Camlin (ID: 17138507/0x0105834B), pos_x=382.702*, pos_z=500.680*, pos_y=32.524*, direction=333.4°*)
 36: 0x00FE [0xBA] SET_ENTITY_POSITION(entity_id=Darach (ID: 17138508/0x0105834C), pos_x=370.580*, pos_z=486.849*, pos_y=32.404*, direction=333.4°*)
 37: 0x010B [0xBA] SET_ENTITY_POSITION(entity_id=Unnamed NPC (ID: 17138509/0x0105834D), pos_x=384.094*, pos_z=494.302*, pos_y=32.275*, direction=333.4°*)
 38: 0x0118 [0x80] LOAD_WAIT(entity=Abenzio (ID: 17138505/0x01058349))
 39: 0x011D [0x80] LOAD_WAIT(entity=Babban Ny Mheillea (ID: 17138504/0x01058348))
 40: 0x0122 [0x80] LOAD_WAIT(entity=Bryher (ID: 17138506/0x0105834A))
 41: 0x0127 [0x80] LOAD_WAIT(entity=Camlin (ID: 17138507/0x0105834B))
 42: 0x012C [0x80] LOAD_WAIT(entity=Darach (ID: 17138508/0x0105834C))
 43: 0x0131 [0x80] LOAD_WAIT(entity=Unnamed NPC (ID: 17138509/0x0105834D))
 44: 0x0136 [0x1C] WAIT(75* ticks)
 45: 0x0139 [0x33] EventEntity->Render.Flags0 &= ~ 0x200000 // Bit 21 (flag=0x00)
 46: 0x013B [0x33] EventEntity->Render.Flags0 &= ~ 0x200000 // Bit 21 (flag=0x00)
 47: 0x013D [0x33] EventEntity->Render.Flags0 &= ~ 0x200000 // Bit 21 (flag=0x00)
 48: 0x013F [0x33] EventEntity->Render.Flags0 &= ~ 0x200000 // Bit 21 (flag=0x00)
 49: 0x0141 [0x33] EventEntity->Render.Flags0 &= ~ 0x200000 // Bit 21 (flag=0x00)
 50: 0x0143 [0x33] EventEntity->Render.Flags0 &= ~ 0x200000 // Bit 21 (flag=0x00)
 51: 0x0145 [0x00] END_REQSTACK()
```

### Event 65535.3

#### Metadata

| Field        | Value    |
|--------------|----------|
| Entrypoint   | 0x0146   |
| Data Size    | 20 bytes |
| Instructions | 7        |

```
      00 01 02 03 04 05 06 07  08 09 0A 0B 0C 0D 0E 0F
      -- -- -- -- -- -- -- --  -- -- -- -- -- -- -- --
0140:                   34 18  80 AB 09 77 19 80 1A 80        4....w....
0150: 5C 00 1B 80 5C 01 1B 80  9A 00                    \...\.....      
```

#### Opcodes

```
  0: 0x0146 [0x34] LOAD_UNLOAD_ZONE(zone_id=108*)
  1: 0x0149 [0xAB] EventEntity->UnknownFlag = 1 // Enable unknown flag
  2: 0x014B [0x77] SET_EVENT_TIME_WEATHER(hour=12*, weather=1*)
  3: 0x0150 [0x5C] MUSIC_CONTROL: Set Idle (Day) music to song 120*
  4: 0x0154 [0x5C] MUSIC_CONTROL: Set Idle (Night) music to song 120*
  5: 0x0158 [0x9A] WAIT_MUSIC_SERVER()
  6: 0x0159 [0x00] END_REQSTACK()
```

### Event 65535.4

#### Metadata

| Field        | Value     |
|--------------|-----------|
| Entrypoint   | 0x015A    |
| Data Size    | 231 bytes |
| Instructions | 28        |

```
      00 01 02 03 04 05 06 07  08 09 0A 0B 0C 0D 0E 0F
      -- -- -- -- -- -- -- --  -- -- -- -- -- -- -- --
0150:                                35 1C 80 77 1D 80            5..w..
0160: 1E 80 1C 03 80 29 10 4C  83 05 01 03 2F 00 4C 83  .....).L..../.L.
0170: 05 01 4E 00 4C 83 05 01  94 01 4C 83 05 01 1C 03  ..N.L.....L.....
0180: 80 BA 49 83 05 01 1F 80  20 80 21 80 22 80 BA 4A  ..I..... .!."..J
0190: 83 05 01 23 80 24 80 25  80 26 80 BA 4B 83 05 01  ...#.$.%.&..K...
01A0: 27 80 28 80 29 80 2A 80  BA 4C 83 05 01 2B 80 2C  '.(.).*..L...+.,
01B0: 80 2D 80 2E 80 BA 4D 83  05 01 2F 80 30 80 31 80  .-....M.../.0.1.
01C0: 32 80 BA 48 83 05 01 33  80 34 80 35 80 36 80 80  2..H...3.4.5.6..
01D0: 49 83 05 01 80 48 83 05  01 80 4A 83 05 01 80 4B  I....H....J....K
01E0: 83 05 01 80 4C 83 05 01  80 4D 83 05 01 1C 37 80  ....L....M....7.
01F0: 5B 38 80 4D 83 05 01 4D  83 05 01 6B 69 7A 30 53  [8.M...M...kiz0S
0200: 4D 83 05 01 4D 83 05 01  6B 69 7A 30 2C 49 83 05  M...M...kiz0,I..
0210: 01 49 83 05 01 63 6F 72  70 2C 4A 83 05 01 4A 83  .I...corp,J...J.
0220: 05 01 63 6F 72 70 2C 4C  83 05 01 4C 83 05 01 63  ..corp,L...L...c
0230: 6F 72 70 2C 48 83 05 01  48 83 05 01 63 6F 72 70  orp,H...H...corp
0240: 00                                                .               
```

#### Opcodes

```
  0: 0x015A [0x35] LOAD_ZONE_NO_CLOSE(zone_id=114*)
  1: 0x015D [0x77] SET_EVENT_TIME_WEATHER(hour=9*, weather=5*)
  2: 0x0162 [0x1C] WAIT(15* ticks)
  3: 0x0165 [0x29] REQ_SET_WAIT(priority=0x10, entity_id=Darach (ID: 17138508/0x0105834C), tag_num=0x03)
  4: 0x016C [0x2F] Darach (ID: 17138508/0x0105834C)->Render.Flags0 &= ~0x80000 // Bit 19
  5: 0x0172 [0x4E] SET_ENTITY_HIDE_FLAG: Show Darach (ID: 17138508/0x0105834C)
  6: 0x0178 [0x94] Darach (ID: 17138508/0x0105834C)->Render.Flags3 ^= 0x01
  7: 0x017E [0x1C] WAIT(15* ticks)
  8: 0x0181 [0xBA] SET_ENTITY_POSITION(entity_id=Abenzio (ID: 17138505/0x01058349), pos_x=-84.891*, pos_z=-330.432*, pos_y=7.126*, direction=72.9°*)
  9: 0x018E [0xBA] SET_ENTITY_POSITION(entity_id=Bryher (ID: 17138506/0x0105834A), pos_x=-87.529*, pos_z=-325.484*, pos_y=8.002*, direction=177.9°*)
 10: 0x019B [0xBA] SET_ENTITY_POSITION(entity_id=Camlin (ID: 17138507/0x0105834B), pos_x=-75.739*, pos_z=-330.404*, pos_y=7.192*, direction=135.0°*)
 11: 0x01A8 [0xBA] SET_ENTITY_POSITION(entity_id=Darach (ID: 17138508/0x0105834C), pos_x=-79.118*, pos_z=-322.269*, pos_y=7.999*, direction=181.0°*)
 12: 0x01B5 [0xBA] SET_ENTITY_POSITION(entity_id=Unnamed NPC (ID: 17138509/0x0105834D), pos_x=-85.404*, pos_z=-328.616*, pos_y=7.444*, direction=135.8°*)
 13: 0x01C2 [0xBA] SET_ENTITY_POSITION(entity_id=Babban Ny Mheillea (ID: 17138504/0x01058348), pos_x=-82.700*, pos_z=-328.000*, pos_y=7.303*, direction=248.4°*)
 14: 0x01CF [0x80] LOAD_WAIT(entity=Abenzio (ID: 17138505/0x01058349))
 15: 0x01D4 [0x80] LOAD_WAIT(entity=Babban Ny Mheillea (ID: 17138504/0x01058348))
 16: 0x01D9 [0x80] LOAD_WAIT(entity=Bryher (ID: 17138506/0x0105834A))
 17: 0x01DE [0x80] LOAD_WAIT(entity=Camlin (ID: 17138507/0x0105834B))
 18: 0x01E3 [0x80] LOAD_WAIT(entity=Darach (ID: 17138508/0x0105834C))
 19: 0x01E8 [0x80] LOAD_WAIT(entity=Unnamed NPC (ID: 17138509/0x0105834D))
 20: 0x01ED [0x1C] WAIT(90* ticks)
 21: 0x01F0 [0x5B] LOAD_EXT_SCHEDULER: Load scheduler "kiz0" with entities [Unnamed NPC (ID: 17138509/0x0105834D), Unnamed NPC (ID: 17138509/0x0105834D)], work=2155*
 22: 0x01FF [0x53] WAIT_SCHEDULER_TASK: Wait for scheduler "kiz0" with entities [Unnamed NPC (ID: 17138509/0x0105834D), Unnamed NPC (ID: 17138509/0x0105834D)]
 23: 0x020C [0x2C] CREATE_SCHEDULER_TASK: Create scheduler "corp" with entities [Abenzio (ID: 17138505/0x01058349), Abenzio (ID: 17138505/0x01058349)]
 24: 0x0219 [0x2C] CREATE_SCHEDULER_TASK: Create scheduler "corp" with entities [Bryher (ID: 17138506/0x0105834A), Bryher (ID: 17138506/0x0105834A)]
 25: 0x0226 [0x2C] CREATE_SCHEDULER_TASK: Create scheduler "corp" with entities [Darach (ID: 17138508/0x0105834C), Darach (ID: 17138508/0x0105834C)]
 26: 0x0233 [0x2C] CREATE_SCHEDULER_TASK: Create scheduler "corp" with entities [Babban Ny Mheillea (ID: 17138504/0x01058348), Babban Ny Mheillea (ID: 17138504/0x01058348)]
 27: 0x0240 [0x00] END_REQSTACK()
```

### Event 65535.5

#### Metadata

| Field        | Value     |
|--------------|-----------|
| Entrypoint   | 0x0241    |
| Data Size    | 186 bytes |
| Instructions | 22        |

```
      00 01 02 03 04 05 06 07  08 09 0A 0B 0C 0D 0E 0F
      -- -- -- -- -- -- -- --  -- -- -- -- -- -- -- --
0240:    6B 69 64 6C 30 49 83  05 01 6B 69 64 6C 30 4A   kidl0I...kidl0J
0250: 83 05 01 6B 69 64 6C 30  4B 83 05 01 6B 69 64 6C  ...kidl0K...kidl
0260: 30 4D 83 05 01 6B 69 64  6C 30 48 83 05 01 1C 39  0M...kidl0H....9
0270: 80 BA 49 83 05 01 3A 80  3B 80 3C 80 3D 80 BA 4A  ..I...:.;.<.=..J
0280: 83 05 01 3E 80 3F 80 40  80 41 80 BA 4B 83 05 01  ...>.?.@.A..K...
0290: 42 80 43 80 44 80 45 80  BA 4C 83 05 01 46 80 47  B.C.D.E..L...F.G
02A0: 80 48 80 45 80 BA 4D 83  05 01 49 80 4A 80 4B 80  .H.E..M...I.J.K.
02B0: 45 80 BA 48 83 05 01 4C  80 4D 80 4E 80 45 80 80  E..H...L.M.N.E..
02C0: 49 83 05 01 80 4A 83 05  01 80 4B 83 05 01 80 4C  I....J....K....L
02D0: 83 05 01 80 4D 83 05 01  80 48 83 05 01 1C 37 80  ....M....H....7.
02E0: 2C 4C 83 05 01 4C 83 05  01 63 6F 72 70 53 4C 83  ,L...L...corpSL.
02F0: 05 01 4C 83 05 01 63 6F  72 70 00                 ..L...corp.     
```

#### Opcodes

```
  0: 0x0241 [0x6B] STOP_AND_IDLE: Abenzio (ID: 17138505/0x01058349) stops current action and resets to idle (animation="idl0")
  1: 0x024A [0x6B] STOP_AND_IDLE: Bryher (ID: 17138506/0x0105834A) stops current action and resets to idle (animation="idl0")
  2: 0x0253 [0x6B] STOP_AND_IDLE: Camlin (ID: 17138507/0x0105834B) stops current action and resets to idle (animation="idl0")
  3: 0x025C [0x6B] STOP_AND_IDLE: Unnamed NPC (ID: 17138509/0x0105834D) stops current action and resets to idle (animation="idl0")
  4: 0x0265 [0x6B] STOP_AND_IDLE: Babban Ny Mheillea (ID: 17138504/0x01058348) stops current action and resets to idle (animation="idl0")
  5: 0x026E [0x1C] WAIT(60* ticks)
  6: 0x0271 [0xBA] SET_ENTITY_POSITION(entity_id=Abenzio (ID: 17138505/0x01058349), pos_x=-232.380*, pos_z=-184.608*, pos_y=8.367*, direction=193.4°*)
  7: 0x027E [0xBA] SET_ENTITY_POSITION(entity_id=Bryher (ID: 17138506/0x0105834A), pos_x=-232.001*, pos_z=-178.675*, pos_y=8.660*, direction=158.2°*)
  8: 0x028B [0xBA] SET_ENTITY_POSITION(entity_id=Camlin (ID: 17138507/0x0105834B), pos_x=-238.922*, pos_z=-191.270*, pos_y=8.234*, direction=175.8°*)
  9: 0x0298 [0xBA] SET_ENTITY_POSITION(entity_id=Darach (ID: 17138508/0x0105834C), pos_x=-233.638*, pos_z=-189.029*, pos_y=8.107*, direction=175.8°*)
 10: 0x02A5 [0xBA] SET_ENTITY_POSITION(entity_id=Unnamed NPC (ID: 17138509/0x0105834D), pos_x=-227.239*, pos_z=-182.443*, pos_y=8.160*, direction=175.8°*)
 11: 0x02B2 [0xBA] SET_ENTITY_POSITION(entity_id=Babban Ny Mheillea (ID: 17138504/0x01058348), pos_x=-226.810*, pos_z=-181.283*, pos_y=8.139*, direction=175.8°*)
 12: 0x02BF [0x80] LOAD_WAIT(entity=Abenzio (ID: 17138505/0x01058349))
 13: 0x02C4 [0x80] LOAD_WAIT(entity=Bryher (ID: 17138506/0x0105834A))
 14: 0x02C9 [0x80] LOAD_WAIT(entity=Camlin (ID: 17138507/0x0105834B))
 15: 0x02CE [0x80] LOAD_WAIT(entity=Darach (ID: 17138508/0x0105834C))
 16: 0x02D3 [0x80] LOAD_WAIT(entity=Unnamed NPC (ID: 17138509/0x0105834D))
 17: 0x02D8 [0x80] LOAD_WAIT(entity=Babban Ny Mheillea (ID: 17138504/0x01058348))
 18: 0x02DD [0x1C] WAIT(90* ticks)
 19: 0x02E0 [0x2C] CREATE_SCHEDULER_TASK: Create scheduler "corp" with entities [Darach (ID: 17138508/0x0105834C), Darach (ID: 17138508/0x0105834C)]
 20: 0x02ED [0x53] WAIT_SCHEDULER_TASK: Wait for scheduler "corp" with entities [Darach (ID: 17138508/0x0105834C), Darach (ID: 17138508/0x0105834C)]
 21: 0x02FA [0x00] END_REQSTACK()
```

### Event 65535.6

#### Metadata

| Field        | Value     |
|--------------|-----------|
| Entrypoint   | 0x02FB    |
| Data Size    | 145 bytes |
| Instructions | 33        |

```
      00 01 02 03 04 05 06 07  08 09 0A 0B 0C 0D 0E 0F
      -- -- -- -- -- -- -- --  -- -- -- -- -- -- -- --
02F0:                                   4A 49 83 05 01             JI...
0300: 48 83 05 01 6F 76 49 83  05 01 1C 4F 80 4A 48 83  H...ovI....O.JH.
0310: 05 01 49 83 05 01 6F 76  48 83 05 01 1C 4F 80 4A  ..I...ovH....O.J
0320: 4A 83 05 01 49 83 05 01  6F 76 4A 83 05 01 1C 4F  J...I...ovJ....O
0330: 80 4A 4D 83 05 01 4A 83  05 01 6F 76 4D 83 05 01  .JM...J...ovM...
0340: 1C 4F 80 4A 4A 83 05 01  4D 83 05 01 6F 76 4A 83  .O.JJ...M...ovJ.
0350: 05 01 1C 4F 80 4A 49 83  05 01 4A 83 05 01 6F 76  ...O.JI...J...ov
0360: 49 83 05 01 1C 4F 80 4A  48 83 05 01 4A 83 05 01  I....O.JH...J...
0370: 6F 76 48 83 05 01 1C 4F  80 4A 49 83 05 01 4A 83  ovH....O.JI...J.
0380: 05 01 6F 76 49 83 05 01  1C 4F 80 00              ..ovI....O..    
```

#### Opcodes

```
  0: 0x02FB [0x4A] Abenzio (ID: 17138505/0x01058349) looks at Babban Ny Mheillea (ID: 17138504/0x01058348)
  1: 0x0304 [0x6F] WAIT_FRAME_DELAY: Yield until WaitTime reaches zero
  2: 0x0305 [0x76] CHECK_ENTITY_RENDER_FLAGS: Wait until Abenzio (ID: 17138505/0x01058349) Render.Flags0 and Render.Flags3 conditions are met
  3: 0x030A [0x1C] WAIT(10* ticks)
  4: 0x030D [0x4A] Babban Ny Mheillea (ID: 17138504/0x01058348) looks at Abenzio (ID: 17138505/0x01058349)
  5: 0x0316 [0x6F] WAIT_FRAME_DELAY: Yield until WaitTime reaches zero
  6: 0x0317 [0x76] CHECK_ENTITY_RENDER_FLAGS: Wait until Babban Ny Mheillea (ID: 17138504/0x01058348) Render.Flags0 and Render.Flags3 conditions are met
  7: 0x031C [0x1C] WAIT(10* ticks)
  8: 0x031F [0x4A] Bryher (ID: 17138506/0x0105834A) looks at Abenzio (ID: 17138505/0x01058349)
  9: 0x0328 [0x6F] WAIT_FRAME_DELAY: Yield until WaitTime reaches zero
 10: 0x0329 [0x76] CHECK_ENTITY_RENDER_FLAGS: Wait until Bryher (ID: 17138506/0x0105834A) Render.Flags0 and Render.Flags3 conditions are met
 11: 0x032E [0x1C] WAIT(10* ticks)
 12: 0x0331 [0x4A] Unnamed NPC (ID: 17138509/0x0105834D) looks at Bryher (ID: 17138506/0x0105834A)
 13: 0x033A [0x6F] WAIT_FRAME_DELAY: Yield until WaitTime reaches zero
 14: 0x033B [0x76] CHECK_ENTITY_RENDER_FLAGS: Wait until Unnamed NPC (ID: 17138509/0x0105834D) Render.Flags0 and Render.Flags3 conditions are met
 15: 0x0340 [0x1C] WAIT(10* ticks)
 16: 0x0343 [0x4A] Bryher (ID: 17138506/0x0105834A) looks at Unnamed NPC (ID: 17138509/0x0105834D)
 17: 0x034C [0x6F] WAIT_FRAME_DELAY: Yield until WaitTime reaches zero
 18: 0x034D [0x76] CHECK_ENTITY_RENDER_FLAGS: Wait until Bryher (ID: 17138506/0x0105834A) Render.Flags0 and Render.Flags3 conditions are met
 19: 0x0352 [0x1C] WAIT(10* ticks)
 20: 0x0355 [0x4A] Abenzio (ID: 17138505/0x01058349) looks at Bryher (ID: 17138506/0x0105834A)
 21: 0x035E [0x6F] WAIT_FRAME_DELAY: Yield until WaitTime reaches zero
 22: 0x035F [0x76] CHECK_ENTITY_RENDER_FLAGS: Wait until Abenzio (ID: 17138505/0x01058349) Render.Flags0 and Render.Flags3 conditions are met
 23: 0x0364 [0x1C] WAIT(10* ticks)
 24: 0x0367 [0x4A] Babban Ny Mheillea (ID: 17138504/0x01058348) looks at Bryher (ID: 17138506/0x0105834A)
 25: 0x0370 [0x6F] WAIT_FRAME_DELAY: Yield until WaitTime reaches zero
 26: 0x0371 [0x76] CHECK_ENTITY_RENDER_FLAGS: Wait until Babban Ny Mheillea (ID: 17138504/0x01058348) Render.Flags0 and Render.Flags3 conditions are met
 27: 0x0376 [0x1C] WAIT(10* ticks)
 28: 0x0379 [0x4A] Abenzio (ID: 17138505/0x01058349) looks at Bryher (ID: 17138506/0x0105834A)
 29: 0x0382 [0x6F] WAIT_FRAME_DELAY: Yield until WaitTime reaches zero
 30: 0x0383 [0x76] CHECK_ENTITY_RENDER_FLAGS: Wait until Abenzio (ID: 17138505/0x01058349) Render.Flags0 and Render.Flags3 conditions are met
 31: 0x0388 [0x1C] WAIT(10* ticks)
 32: 0x038B [0x00] END_REQSTACK()
```

### Event 65535.7

#### Metadata

| Field        | Value     |
|--------------|-----------|
| Entrypoint   | 0x038C    |
| Data Size    | 109 bytes |
| Instructions | 25        |

```
      00 01 02 03 04 05 06 07  08 09 0A 0B 0C 0D 0E 0F
      -- -- -- -- -- -- -- --  -- -- -- -- -- -- -- --
0380:                                      4A 49 83 05              JI..
0390: 01 48 83 05 01 6F 76 49  83 05 01 1C 4F 80 4A 48  .H...ovI....O.JH
03A0: 83 05 01 49 83 05 01 6F  76 48 83 05 01 1C 4F 80  ...I...ovH....O.
03B0: 4A 4A 83 05 01 49 83 05  01 6F 76 4A 83 05 01 1C  JJ...I...ovJ....
03C0: 4F 80 4A 4A 83 05 01 4D  83 05 01 6F 76 4A 83 05  O.JJ...M...ovJ..
03D0: 01 1C 4F 80 4A 48 83 05  01 4A 83 05 01 6F 76 48  ..O.JH...J...ovH
03E0: 83 05 01 1C 4F 80 4A 49  83 05 01 4D 83 05 01 6F  ....O.JI...M...o
03F0: 76 49 83 05 01 1C 4F 80  00                       vI....O..       
```

#### Opcodes

```
  0: 0x038C [0x4A] Abenzio (ID: 17138505/0x01058349) looks at Babban Ny Mheillea (ID: 17138504/0x01058348)
  1: 0x0395 [0x6F] WAIT_FRAME_DELAY: Yield until WaitTime reaches zero
  2: 0x0396 [0x76] CHECK_ENTITY_RENDER_FLAGS: Wait until Abenzio (ID: 17138505/0x01058349) Render.Flags0 and Render.Flags3 conditions are met
  3: 0x039B [0x1C] WAIT(10* ticks)
  4: 0x039E [0x4A] Babban Ny Mheillea (ID: 17138504/0x01058348) looks at Abenzio (ID: 17138505/0x01058349)
  5: 0x03A7 [0x6F] WAIT_FRAME_DELAY: Yield until WaitTime reaches zero
  6: 0x03A8 [0x76] CHECK_ENTITY_RENDER_FLAGS: Wait until Babban Ny Mheillea (ID: 17138504/0x01058348) Render.Flags0 and Render.Flags3 conditions are met
  7: 0x03AD [0x1C] WAIT(10* ticks)
  8: 0x03B0 [0x4A] Bryher (ID: 17138506/0x0105834A) looks at Abenzio (ID: 17138505/0x01058349)
  9: 0x03B9 [0x6F] WAIT_FRAME_DELAY: Yield until WaitTime reaches zero
 10: 0x03BA [0x76] CHECK_ENTITY_RENDER_FLAGS: Wait until Bryher (ID: 17138506/0x0105834A) Render.Flags0 and Render.Flags3 conditions are met
 11: 0x03BF [0x1C] WAIT(10* ticks)
 12: 0x03C2 [0x4A] Bryher (ID: 17138506/0x0105834A) looks at Unnamed NPC (ID: 17138509/0x0105834D)
 13: 0x03CB [0x6F] WAIT_FRAME_DELAY: Yield until WaitTime reaches zero
 14: 0x03CC [0x76] CHECK_ENTITY_RENDER_FLAGS: Wait until Bryher (ID: 17138506/0x0105834A) Render.Flags0 and Render.Flags3 conditions are met
 15: 0x03D1 [0x1C] WAIT(10* ticks)
 16: 0x03D4 [0x4A] Babban Ny Mheillea (ID: 17138504/0x01058348) looks at Bryher (ID: 17138506/0x0105834A)
 17: 0x03DD [0x6F] WAIT_FRAME_DELAY: Yield until WaitTime reaches zero
 18: 0x03DE [0x76] CHECK_ENTITY_RENDER_FLAGS: Wait until Babban Ny Mheillea (ID: 17138504/0x01058348) Render.Flags0 and Render.Flags3 conditions are met
 19: 0x03E3 [0x1C] WAIT(10* ticks)
 20: 0x03E6 [0x4A] Abenzio (ID: 17138505/0x01058349) looks at Unnamed NPC (ID: 17138509/0x0105834D)
 21: 0x03EF [0x6F] WAIT_FRAME_DELAY: Yield until WaitTime reaches zero
 22: 0x03F0 [0x76] CHECK_ENTITY_RENDER_FLAGS: Wait until Abenzio (ID: 17138505/0x01058349) Render.Flags0 and Render.Flags3 conditions are met
 23: 0x03F5 [0x1C] WAIT(10* ticks)
 24: 0x03F8 [0x00] END_REQSTACK()
```

### Event 65535.8

#### Metadata

| Field        | Value    |
|--------------|----------|
| Entrypoint   | 0x03F9   |
| Data Size    | 96 bytes |
| Instructions | 18       |

```
      00 01 02 03 04 05 06 07  08 09 0A 0B 0C 0D 0E 0F
      -- -- -- -- -- -- -- --  -- -- -- -- -- -- -- --
03F0:                             4B 4B 83 05 01 50 80           KK...P.
0400: 4B 4C 83 05 01 50 80 4B  49 83 05 01 50 80 4B 4D  KL...P.KI...P.KM
0410: 83 05 01 50 80 4A 4A 83  05 01 48 83 05 01 6F 76  ...P.JJ...H...ov
0420: 4B 83 05 01 6F 76 4C 83  05 01 6F 76 49 83 05 01  K...ovL...ovI...
0430: 6F 76 4D 83 05 01 6F 76  4A 83 05 01 5B 51 80 48  ovM...ovJ...[Q.H
0440: 83 05 01 48 83 05 01 74  6C 6B 31 53 48 83 05 01  ...H...tlk1SH...
0450: 48 83 05 01 74 6C 6B 31  00                       H...tlk1.       
```

#### Opcodes

```
  0: 0x03F9 [0x4B] UPDATE_ENTITY_YAW(entity=Camlin (ID: 17138507/0x0105834B), yaw=16.5°*)
  1: 0x0400 [0x4B] UPDATE_ENTITY_YAW(entity=Darach (ID: 17138508/0x0105834C), yaw=16.5°*)
  2: 0x0407 [0x4B] UPDATE_ENTITY_YAW(entity=Abenzio (ID: 17138505/0x01058349), yaw=16.5°*)
  3: 0x040E [0x4B] UPDATE_ENTITY_YAW(entity=Unnamed NPC (ID: 17138509/0x0105834D), yaw=16.5°*)
  4: 0x0415 [0x4A] Bryher (ID: 17138506/0x0105834A) looks at Babban Ny Mheillea (ID: 17138504/0x01058348)
  5: 0x041E [0x6F] WAIT_FRAME_DELAY: Yield until WaitTime reaches zero
  6: 0x041F [0x76] CHECK_ENTITY_RENDER_FLAGS: Wait until Camlin (ID: 17138507/0x0105834B) Render.Flags0 and Render.Flags3 conditions are met
  7: 0x0424 [0x6F] WAIT_FRAME_DELAY: Yield until WaitTime reaches zero
  8: 0x0425 [0x76] CHECK_ENTITY_RENDER_FLAGS: Wait until Darach (ID: 17138508/0x0105834C) Render.Flags0 and Render.Flags3 conditions are met
  9: 0x042A [0x6F] WAIT_FRAME_DELAY: Yield until WaitTime reaches zero
 10: 0x042B [0x76] CHECK_ENTITY_RENDER_FLAGS: Wait until Abenzio (ID: 17138505/0x01058349) Render.Flags0 and Render.Flags3 conditions are met
 11: 0x0430 [0x6F] WAIT_FRAME_DELAY: Yield until WaitTime reaches zero
 12: 0x0431 [0x76] CHECK_ENTITY_RENDER_FLAGS: Wait until Unnamed NPC (ID: 17138509/0x0105834D) Render.Flags0 and Render.Flags3 conditions are met
 13: 0x0436 [0x6F] WAIT_FRAME_DELAY: Yield until WaitTime reaches zero
 14: 0x0437 [0x76] CHECK_ENTITY_RENDER_FLAGS: Wait until Bryher (ID: 17138506/0x0105834A) Render.Flags0 and Render.Flags3 conditions are met
 15: 0x043C [0x5B] LOAD_EXT_SCHEDULER: Load scheduler "tlk1" with entities [Babban Ny Mheillea (ID: 17138504/0x01058348), Babban Ny Mheillea (ID: 17138504/0x01058348)], work=2161*
 16: 0x044B [0x53] WAIT_SCHEDULER_TASK: Wait for scheduler "tlk1" with entities [Babban Ny Mheillea (ID: 17138504/0x01058348), Babban Ny Mheillea (ID: 17138504/0x01058348)]
 17: 0x0458 [0x00] END_REQSTACK()
```

### Event 65535.9

#### Metadata

| Field        | Value     |
|--------------|-----------|
| Entrypoint   | 0x0459    |
| Data Size    | 109 bytes |
| Instructions | 13        |

```
      00 01 02 03 04 05 06 07  08 09 0A 0B 0C 0D 0E 0F
      -- -- -- -- -- -- -- --  -- -- -- -- -- -- -- --
0450:                             BA 49 83 05 01 52 80           .I...R.
0460: 53 80 54 80 55 80 BA 4A  83 05 01 56 80 57 80 58  S.T.U..J...V.W.X
0470: 80 55 80 BA 4B 83 05 01  59 80 5A 80 5B 80 55 80  .U..K...Y.Z.[.U.
0480: BA 4C 83 05 01 5C 80 5D  80 5E 80 5F 80 BA 4D 83  .L...\.].^._..M.
0490: 05 01 60 80 61 80 62 80  55 80 BA 48 83 05 01 63  ..`.a.b.U..H...c
04A0: 80 64 80 65 80 55 80 80  49 83 05 01 80 4A 83 05  .d.e.U..I....J..
04B0: 01 80 4B 83 05 01 80 4C  83 05 01 80 4D 83 05 01  ..K....L....M...
04C0: 80 48 83 05 01 00                                 .H....          
```

#### Opcodes

```
  0: 0x0459 [0xBA] SET_ENTITY_POSITION(entity_id=Abenzio (ID: 17138505/0x01058349), pos_x=317.594*, pos_z=365.962*, pos_y=8.096*, direction=315.0°*)
  1: 0x0466 [0xBA] SET_ENTITY_POSITION(entity_id=Bryher (ID: 17138506/0x0105834A), pos_x=313.643*, pos_z=375.145*, pos_y=8.470*, direction=315.0°*)
  2: 0x0473 [0xBA] SET_ENTITY_POSITION(entity_id=Camlin (ID: 17138507/0x0105834B), pos_x=310.692*, pos_z=378.932*, pos_y=8.546*, direction=315.0°*)
  3: 0x0480 [0xBA] SET_ENTITY_POSITION(entity_id=Darach (ID: 17138508/0x0105834C), pos_x=309.762*, pos_z=370.901*, pos_y=8.131*, direction=314.9°*)
  4: 0x048D [0xBA] SET_ENTITY_POSITION(entity_id=Unnamed NPC (ID: 17138509/0x0105834D), pos_x=313.246*, pos_z=382.130*, pos_y=8.723*, direction=315.0°*)
  5: 0x049A [0xBA] SET_ENTITY_POSITION(entity_id=Babban Ny Mheillea (ID: 17138504/0x01058348), pos_x=312.106*, pos_z=385.859*, pos_y=8.595*, direction=315.0°*)
  6: 0x04A7 [0x80] LOAD_WAIT(entity=Abenzio (ID: 17138505/0x01058349))
  7: 0x04AC [0x80] LOAD_WAIT(entity=Bryher (ID: 17138506/0x0105834A))
  8: 0x04B1 [0x80] LOAD_WAIT(entity=Camlin (ID: 17138507/0x0105834B))
  9: 0x04B6 [0x80] LOAD_WAIT(entity=Darach (ID: 17138508/0x0105834C))
 10: 0x04BB [0x80] LOAD_WAIT(entity=Unnamed NPC (ID: 17138509/0x0105834D))
 11: 0x04C0 [0x80] LOAD_WAIT(entity=Babban Ny Mheillea (ID: 17138504/0x01058348))
 12: 0x04C5 [0x00] END_REQSTACK()
```
