# 17138509

## Common Data

| Field            | Value                        |
|------------------|------------------------------|
| Zone             | North Gustaberg [S] (ID: 88) |
| Block Size       | 328 bytes                    |
| Total Events     | 8                            |
| References Count | 28                           |

## List of Events

| Event ID                 | Entrypoint   |   Size |   Instructions |
|--------------------------|--------------|--------|----------------|
| [65535](#event-65535)    | 0x0000       |      1 |              1 |
| [114](#event-114)        | 0x0001       |      1 |              1 |
| [65535.1](#event-655351) | 0x0002       |     16 |              5 |
| [65535.2](#event-655352) | 0x0012       |     17 |              6 |
| [65535.3](#event-655353) | 0x0023       |     65 |             12 |
| [65535.4](#event-655354) | 0x0064       |     19 |              3 |
| [65535.5](#event-655355) | 0x0077       |     35 |             10 |
| [65535.6](#event-655356) | 0x009A       |     14 |              4 |

## DAT References (imed_data)

|   Index | Hex Value   |   Dec Value |
|---------|-------------|-------------|
|       0 | 0x0006      |           6 |
|       1 | 0x5DB5A     |      383834 |
|       2 | 0x79812     |      497682 |
|       3 | 0x7E3A      |       32314 |
|       4 | 0x0028      |          40 |
|       5 | 0x5CC7B     |      380027 |
|       6 | 0x7B311     |      504593 |
|       7 | 0x7FCD      |       32717 |
|       8 | 0x0007      |           7 |
|       9 | 0x086B      |        2155 |
|      10 | 0x000F      |          15 |
|      11 | 0x001E      |          30 |
|      12 | 0xFFFEA280  |  4294877824 |
|      13 | 0xFFFAF2F0  |  4294636272 |
|      14 | 0x1B9B      |        7067 |
|      15 | 0xFFFD9289  |  4294808201 |
|      16 | 0xFFFC7A05  |  4294736389 |
|      17 | 0x1ED8      |        7896 |
|      18 | 0x0400      |        1024 |
|      19 | 0x002A      |          42 |
|      20 | 0xFFFD6C3D  |  4294798397 |
|      21 | 0xFFFC9F26  |  4294745894 |
|      22 | 0x2245      |        8773 |
|      23 | 0x0014      |          20 |
|      24 | 0x0012      |          18 |
|      25 | 0x527D9     |      337881 |
|      26 | 0x620C8     |      401608 |
|      27 | 0x22BD      |        8893 |

## Events

### Event 65535

#### Metadata

| Field        | Value   |
|--------------|---------|
| Entrypoint   | 0x0000  |
| Data Size    | 1 bytes |
| Instructions | 1       |

```
      00 01 02 03 04 05 06 07  08 09 0A 0B 0C 0D 0E 0F
      -- -- -- -- -- -- -- --  -- -- -- -- -- -- -- --
0000: 00                                                .               
```

#### Opcodes

```
  0: 0x0000 [0x00] END_REQSTACK()
```

### Event 114

#### Metadata

| Field        | Value   |
|--------------|---------|
| Entrypoint   | 0x0001  |
| Data Size    | 1 bytes |
| Instructions | 1       |

```
      00 01 02 03 04 05 06 07  08 09 0A 0B 0C 0D 0E 0F
      -- -- -- -- -- -- -- --  -- -- -- -- -- -- -- --
0000:    00                                              .              
```

#### Opcodes

```
  0: 0x0001 [0x00] END_REQSTACK()
```

### Event 65535.1

#### Metadata

| Field        | Value    |
|--------------|----------|
| Entrypoint   | 0x0002   |
| Data Size    | 16 bytes |
| Instructions | 5        |

```
      00 01 02 03 04 05 06 07  08 09 0A 0B 0C 0D 0E 0F
      -- -- -- -- -- -- -- --  -- -- -- -- -- -- -- --
0000:       61 00 32 00 80 1F  00 01 80 02 80 03 80 1F    a.2...........
0010: 01 00                                             ..              
```

#### Opcodes

```
  0: 0x0002 [0x61] EventEntity->Render.Flags2 &= ~0x00000001
  1: 0x0004 [0x32] ExtData[1]->MainSpeed = 6* * 0.1
  2: 0x0007 [0x1F] MOVE_ENTITY: EventEntity moves to X=383.834*, Z=497.682*, Y=32.314*
  3: 0x000F [0x1F] MOVE_ENTITY: Update entity position (mode=1)
  4: 0x0011 [0x00] END_REQSTACK()
```

### Event 65535.2

#### Metadata

| Field        | Value    |
|--------------|----------|
| Entrypoint   | 0x0012   |
| Data Size    | 17 bytes |
| Instructions | 6        |

```
      00 01 02 03 04 05 06 07  08 09 0A 0B 0C 0D 0E 0F
      -- -- -- -- -- -- -- --  -- -- -- -- -- -- -- --
0010:       61 00 32 04 80 1F  00 05 80 06 80 07 80 1F    a.2...........
0020: 01 6F 00                                          .o.             
```

#### Opcodes

```
  0: 0x0012 [0x61] EventEntity->Render.Flags2 &= ~0x00000001
  1: 0x0014 [0x32] ExtData[1]->MainSpeed = 40* * 0.1
  2: 0x0017 [0x1F] MOVE_ENTITY: EventEntity moves to X=380.027*, Z=504.593*, Y=32.717*
  3: 0x001F [0x1F] MOVE_ENTITY: Update entity position (mode=1)
  4: 0x0021 [0x6F] WAIT_FRAME_DELAY: Yield until WaitTime reaches zero
  5: 0x0022 [0x00] END_REQSTACK()
```

### Event 65535.3

#### Metadata

| Field        | Value    |
|--------------|----------|
| Entrypoint   | 0x0023   |
| Data Size    | 65 bytes |
| Instructions | 12       |

```
      00 01 02 03 04 05 06 07  08 09 0A 0B 0C 0D 0E 0F
      -- -- -- -- -- -- -- --  -- -- -- -- -- -- -- --
0020:          61 00 32 08 80  5B 09 80 4D 83 05 01 4D     a.2..[..M...M
0030: 83 05 01 6B 69 7A 31 53  4D 83 05 01 4D 83 05 01  ...kiz1SM...M...
0040: 6B 69 7A 31 1C 0A 80 4A  F8 FF FF 7F 48 83 05 01  kiz1...J....H...
0050: 6F 76 F8 FF FF 7F 1C 0B  80 1F 00 0C 80 0D 80 0E  ov..............
0060: 80 1F 01 00                                       ....            
```

#### Opcodes

```
  0: 0x0023 [0x61] EventEntity->Render.Flags2 &= ~0x00000001
  1: 0x0025 [0x32] ExtData[1]->MainSpeed = 7* * 0.1
  2: 0x0028 [0x5B] LOAD_EXT_SCHEDULER: Load scheduler "kiz1" with entities [Unnamed NPC (ID: 17138509/0x0105834D), Unnamed NPC (ID: 17138509/0x0105834D)], work=2155*
  3: 0x0037 [0x53] WAIT_SCHEDULER_TASK: Wait for scheduler "kiz1" with entities [Unnamed NPC (ID: 17138509/0x0105834D), Unnamed NPC (ID: 17138509/0x0105834D)]
  4: 0x0044 [0x1C] WAIT(15* ticks)
  5: 0x0047 [0x4A] EventEntity looks at Babban Ny Mheillea (ID: 17138504/0x01058348)
  6: 0x0050 [0x6F] WAIT_FRAME_DELAY: Yield until WaitTime reaches zero
  7: 0x0051 [0x76] CHECK_ENTITY_RENDER_FLAGS: Wait until EventEntity Render.Flags0 and Render.Flags3 conditions are met
  8: 0x0056 [0x1C] WAIT(30* ticks)
  9: 0x0059 [0x1F] MOVE_ENTITY: EventEntity moves to X=-89.472*, Z=-331.024*, Y=7.067*
 10: 0x0061 [0x1F] MOVE_ENTITY: Update entity position (mode=1)
 11: 0x0063 [0x00] END_REQSTACK()
```

### Event 65535.4

#### Metadata

| Field        | Value    |
|--------------|----------|
| Entrypoint   | 0x0064   |
| Data Size    | 19 bytes |
| Instructions | 3        |

```
      00 01 02 03 04 05 06 07  08 09 0A 0B 0C 0D 0E 0F
      -- -- -- -- -- -- -- --  -- -- -- -- -- -- -- --
0060:             BA F8 FF FF  7F 0F 80 10 80 11 80 12      ............
0070: 80 80 F8 FF FF 7F 00                              .......         
```

#### Opcodes

```
  0: 0x0064 [0xBA] SET_ENTITY_POSITION(entity_id=EventEntity, pos_x=-159.095*, pos_z=-230.907*, pos_y=7.896*, direction=90.0°*)
  1: 0x0071 [0x80] LOAD_WAIT(entity=EventEntity)
  2: 0x0076 [0x00] END_REQSTACK()
```

### Event 65535.5

#### Metadata

| Field        | Value    |
|--------------|----------|
| Entrypoint   | 0x0077   |
| Data Size    | 35 bytes |
| Instructions | 10       |

```
      00 01 02 03 04 05 06 07  08 09 0A 0B 0C 0D 0E 0F
      -- -- -- -- -- -- -- --  -- -- -- -- -- -- -- --
0070:                      61  01 32 13 80 1F 00 14 80         a.2......
0080: 15 80 16 80 1F 01 6F 1C  17 80 4A F8 FF FF 7F 48  ......o...J....H
0090: 83 05 01 6F 76 F8 FF FF  7F 00                    ...ov.....      
```

#### Opcodes

```
  0: 0x0077 [0x61] EventEntity->Render.Flags2 |= 0x00000001
  1: 0x0079 [0x32] ExtData[1]->MainSpeed = 42* * 0.1
  2: 0x007C [0x1F] MOVE_ENTITY: EventEntity moves to X=-168.899*, Z=-221.402*, Y=8.773*
  3: 0x0084 [0x1F] MOVE_ENTITY: Update entity position (mode=1)
  4: 0x0086 [0x6F] WAIT_FRAME_DELAY: Yield until WaitTime reaches zero
  5: 0x0087 [0x1C] WAIT(20* ticks)
  6: 0x008A [0x4A] EventEntity looks at Babban Ny Mheillea (ID: 17138504/0x01058348)
  7: 0x0093 [0x6F] WAIT_FRAME_DELAY: Yield until WaitTime reaches zero
  8: 0x0094 [0x76] CHECK_ENTITY_RENDER_FLAGS: Wait until EventEntity Render.Flags0 and Render.Flags3 conditions are met
  9: 0x0099 [0x00] END_REQSTACK()
```

### Event 65535.6

#### Metadata

| Field        | Value    |
|--------------|----------|
| Entrypoint   | 0x009A   |
| Data Size    | 14 bytes |
| Instructions | 4        |

```
      00 01 02 03 04 05 06 07  08 09 0A 0B 0C 0D 0E 0F
      -- -- -- -- -- -- -- --  -- -- -- -- -- -- -- --
0090:                                32 18 80 1F 00 19            2.....
00A0: 80 1A 80 1B 80 1F 01 00                           ........        
```

#### Opcodes

```
  0: 0x009A [0x32] ExtData[1]->MainSpeed = 18* * 0.1
  1: 0x009D [0x1F] MOVE_ENTITY: EventEntity moves to X=337.881*, Z=401.608*, Y=8.893*
  2: 0x00A5 [0x1F] MOVE_ENTITY: Update entity position (mode=1)
  3: 0x00A7 [0x00] END_REQSTACK()
```
