# 17138556 - Adelheid

## Common Data

| Field            | Value                        |
|------------------|------------------------------|
| Zone             | North Gustaberg [S] (ID: 88) |
| Block Size       | 408 bytes                    |
| Total Events     | 13                           |
| References Count | 31                           |

## List of Events

| Event ID                 | Entrypoint   |   Size |   Instructions |
|--------------------------|--------------|--------|----------------|
| [65535](#event-65535)    | 0x0000       |      1 |              1 |
| [5](#event-5)            | 0x0001       |      7 |              2 |
| [65535.1](#event-655351) | 0x0008       |     14 |              4 |
| [65535.2](#event-655352) | 0x0016       |     14 |              4 |
| [65535.3](#event-655353) | 0x0024       |     22 |              6 |
| [6](#event-6)            | 0x003A       |      7 |              2 |
| [65535.4](#event-655354) | 0x0041       |     14 |              4 |
| [65535.5](#event-655355) | 0x004F       |     71 |              9 |
| [65535.6](#event-655356) | 0x0096       |     14 |              4 |
| [65535.7](#event-655357) | 0x00A4       |     14 |              4 |
| [65535.8](#event-655358) | 0x00B2       |     14 |              4 |
| [65535.9](#event-655359) | 0x00C0       |     14 |              4 |
| [13](#event-13)          | 0x00CE       |      7 |              2 |

## DAT References (imed_data)

|   Index | Hex Value   |   Dec Value |
|---------|-------------|-------------|
|       0 | 0x000D      |          13 |
|       1 | 0x2A815     |      174101 |
|       2 | 0x36BED     |      224237 |
|       3 | 0xFFFFA2E5  |  4294943461 |
|       4 | 0x2A3A2     |      172962 |
|       5 | 0x36ED3     |      224979 |
|       6 | 0xFFFFA28D  |  4294943373 |
|       7 | 0x0028      |          40 |
|       8 | 0x29534     |      169268 |
|       9 | 0x36BA9     |      224169 |
|      10 | 0xFFFFA2A6  |  4294943398 |
|      11 | 0x001E      |          30 |
|      12 | 0x35B25     |      219941 |
|      13 | 0xFFFD6F24  |  4294799140 |
|      14 | 0xFFFFC24F  |  4294951503 |
|      15 | 0x35C0F     |      220175 |
|      16 | 0xFFFD5786  |  4294793094 |
|      17 | 0xFFFFC29A  |  4294951578 |
|      18 | 0x0013      |          19 |
|      19 | 0x358CD     |      219341 |
|      20 | 0xFFFD8F7B  |  4294807419 |
|      21 | 0xFFFFC1FD  |  4294951421 |
|      22 | 0x192A0     |      103072 |
|      23 | 0x4CE4      |       19684 |
|      24 | 0xFFFFFF55  |  4294967125 |
|      25 | 0x19F24     |      106276 |
|      26 | 0x4DC5      |       19909 |
|      27 | 0xFFFFFFA8  |  4294967208 |
|      28 | 0x1CF5E     |      118622 |
|      29 | 0x4E43      |       20035 |
|      30 | 0x007C      |         124 |

## Events

### Event 65535

#### Metadata

| Field        | Value   |
|--------------|---------|
| Entrypoint   | 0x0000  |
| Data Size    | 1 bytes |
| Instructions | 1       |

```
      00 01 02 03 04 05 06 07  08 09 0A 0B 0C 0D 0E 0F
      -- -- -- -- -- -- -- --  -- -- -- -- -- -- -- --
0000: 00                                                .               
```

#### Opcodes

```
  0: 0x0000 [0x00] END_REQSTACK()
```

### Event 5

#### Metadata

| Field        | Value   |
|--------------|---------|
| Entrypoint   | 0x0001  |
| Data Size    | 7 bytes |
| Instructions | 2       |

```
      00 01 02 03 04 05 06 07  08 09 0A 0B 0C 0D 0E 0F
      -- -- -- -- -- -- -- --  -- -- -- -- -- -- -- --
0000:    92 01 F8 FF FF 7F 00                            .......        
```

#### Opcodes

```
  0: 0x0001 [0x92] EventEntity->Render.Flags3 ^= 0x01
  1: 0x0007 [0x00] END_REQSTACK()
```

### Event 65535.1

#### Metadata

| Field        | Value    |
|--------------|----------|
| Entrypoint   | 0x0008   |
| Data Size    | 14 bytes |
| Instructions | 4        |

```
      00 01 02 03 04 05 06 07  08 09 0A 0B 0C 0D 0E 0F
      -- -- -- -- -- -- -- --  -- -- -- -- -- -- -- --
0000:                          32 00 80 1F 00 01 80 02          2.......
0010: 80 03 80 1F 01 00                                 ......          
```

#### Opcodes

```
  0: 0x0008 [0x32] ExtData[1]->MainSpeed = 13* * 0.1
  1: 0x000B [0x1F] MOVE_ENTITY: EventEntity moves to X=174.101*, Z=224.237*, Y=-23.835*
  2: 0x0013 [0x1F] MOVE_ENTITY: Update entity position (mode=1)
  3: 0x0015 [0x00] END_REQSTACK()
```

### Event 65535.2

#### Metadata

| Field        | Value    |
|--------------|----------|
| Entrypoint   | 0x0016   |
| Data Size    | 14 bytes |
| Instructions | 4        |

```
      00 01 02 03 04 05 06 07  08 09 0A 0B 0C 0D 0E 0F
      -- -- -- -- -- -- -- --  -- -- -- -- -- -- -- --
0010:                   32 00  80 1F 00 04 80 05 80 06        2.........
0020: 80 1F 01 00                                       ....            
```

#### Opcodes

```
  0: 0x0016 [0x32] ExtData[1]->MainSpeed = 13* * 0.1
  1: 0x0019 [0x1F] MOVE_ENTITY: EventEntity moves to X=172.962*, Z=224.979*, Y=-23.923*
  2: 0x0021 [0x1F] MOVE_ENTITY: Update entity position (mode=1)
  3: 0x0023 [0x00] END_REQSTACK()
```

### Event 65535.3

#### Metadata

| Field        | Value    |
|--------------|----------|
| Entrypoint   | 0x0024   |
| Data Size    | 22 bytes |
| Instructions | 6        |

```
      00 01 02 03 04 05 06 07  08 09 0A 0B 0C 0D 0E 0F
      -- -- -- -- -- -- -- --  -- -- -- -- -- -- -- --
0020:             32 07 80 1F  00 08 80 09 80 0A 80 1F      2...........
0030: 01 1E F0 FF FF 7F 1C 0B  80 00                    ..........      
```

#### Opcodes

```
  0: 0x0024 [0x32] ExtData[1]->MainSpeed = 40* * 0.1
  1: 0x0027 [0x1F] MOVE_ENTITY: EventEntity moves to X=169.268*, Z=224.169*, Y=-23.898*
  2: 0x002F [0x1F] MOVE_ENTITY: Update entity position (mode=1)
  3: 0x0031 [0x1E] EventEntity looks at LocalPlayer and starts talking
  4: 0x0036 [0x1C] WAIT(30* ticks)
  5: 0x0039 [0x00] END_REQSTACK()
```

### Event 6

#### Metadata

| Field        | Value   |
|--------------|---------|
| Entrypoint   | 0x003A  |
| Data Size    | 7 bytes |
| Instructions | 2       |

```
      00 01 02 03 04 05 06 07  08 09 0A 0B 0C 0D 0E 0F
      -- -- -- -- -- -- -- --  -- -- -- -- -- -- -- --
0030:                                92 01 F8 FF FF 7F            ......
0040: 00                                                .               
```

#### Opcodes

```
  0: 0x003A [0x92] EventEntity->Render.Flags3 ^= 0x01
  1: 0x0040 [0x00] END_REQSTACK()
```

### Event 65535.4

#### Metadata

| Field        | Value    |
|--------------|----------|
| Entrypoint   | 0x0041   |
| Data Size    | 14 bytes |
| Instructions | 4        |

```
      00 01 02 03 04 05 06 07  08 09 0A 0B 0C 0D 0E 0F
      -- -- -- -- -- -- -- --  -- -- -- -- -- -- -- --
0040:    32 07 80 1F 00 0C 80  0D 80 0E 80 1F 01 00      2............. 
```

#### Opcodes

```
  0: 0x0041 [0x32] ExtData[1]->MainSpeed = 40* * 0.1
  1: 0x0044 [0x1F] MOVE_ENTITY: EventEntity moves to X=219.941*, Z=-168.156*, Y=-15.793*
  2: 0x004C [0x1F] MOVE_ENTITY: Update entity position (mode=1)
  3: 0x004E [0x00] END_REQSTACK()
```

### Event 65535.5

#### Metadata

| Field        | Value    |
|--------------|----------|
| Entrypoint   | 0x004F   |
| Data Size    | 71 bytes |
| Instructions | 9        |

```
      00 01 02 03 04 05 06 07  08 09 0A 0B 0C 0D 0E 0F
      -- -- -- -- -- -- -- --  -- -- -- -- -- -- -- --
0040:                                               32                 2
0050: 00 80 1F 00 0F 80 10 80  11 80 1F 01 6F 66 12 80  ............of..
0060: 7C 83 05 01 7C 83 05 01  73 68 61 30 53 7C 83 05  |...|...sha0S|..
0070: 01 7C 83 05 01 73 68 61  30 66 12 80 7C 83 05 01  .|...sha0f..|...
0080: 7C 83 05 01 73 69 72 30  53 7C 83 05 01 7C 83 05  |...sir0S|...|..
0090: 01 73 69 72 30 00                                 .sir0.          
```

#### Opcodes

```
  0: 0x004F [0x32] ExtData[1]->MainSpeed = 13* * 0.1
  1: 0x0052 [0x1F] MOVE_ENTITY: EventEntity moves to X=220.175*, Z=-174.202*, Y=-15.718*
  2: 0x005A [0x1F] MOVE_ENTITY: Update entity position (mode=1)
  3: 0x005C [0x6F] WAIT_FRAME_DELAY: Yield until WaitTime reaches zero
  4: 0x005D [0x66] LOAD_EXT_SCHEDULER_MAIN: Load scheduler "sha0" with entities [Adelheid (ID: 17138556/0x0105837C), Adelheid (ID: 17138556/0x0105837C)], work=19*
  5: 0x006C [0x53] WAIT_SCHEDULER_TASK: Wait for scheduler "sha0" with entities [Adelheid (ID: 17138556/0x0105837C), Adelheid (ID: 17138556/0x0105837C)]
  6: 0x0079 [0x66] LOAD_EXT_SCHEDULER_MAIN: Load scheduler "sir0" with entities [Adelheid (ID: 17138556/0x0105837C), Adelheid (ID: 17138556/0x0105837C)], work=19*
  7: 0x0088 [0x53] WAIT_SCHEDULER_TASK: Wait for scheduler "sir0" with entities [Adelheid (ID: 17138556/0x0105837C), Adelheid (ID: 17138556/0x0105837C)]
  8: 0x0095 [0x00] END_REQSTACK()
```

### Event 65535.6

#### Metadata

| Field        | Value    |
|--------------|----------|
| Entrypoint   | 0x0096   |
| Data Size    | 14 bytes |
| Instructions | 4        |

```
      00 01 02 03 04 05 06 07  08 09 0A 0B 0C 0D 0E 0F
      -- -- -- -- -- -- -- --  -- -- -- -- -- -- -- --
0090:                   32 07  80 1F 00 13 80 14 80 15        2.........
00A0: 80 1F 01 00                                       ....            
```

#### Opcodes

```
  0: 0x0096 [0x32] ExtData[1]->MainSpeed = 40* * 0.1
  1: 0x0099 [0x1F] MOVE_ENTITY: EventEntity moves to X=219.341*, Z=-159.877*, Y=-15.875*
  2: 0x00A1 [0x1F] MOVE_ENTITY: Update entity position (mode=1)
  3: 0x00A3 [0x00] END_REQSTACK()
```

### Event 65535.7

#### Metadata

| Field        | Value    |
|--------------|----------|
| Entrypoint   | 0x00A4   |
| Data Size    | 14 bytes |
| Instructions | 4        |

```
      00 01 02 03 04 05 06 07  08 09 0A 0B 0C 0D 0E 0F
      -- -- -- -- -- -- -- --  -- -- -- -- -- -- -- --
00A0:             32 07 80 1F  00 16 80 17 80 18 80 1F      2...........
00B0: 01 00                                             ..              
```

#### Opcodes

```
  0: 0x00A4 [0x32] ExtData[1]->MainSpeed = 40* * 0.1
  1: 0x00A7 [0x1F] MOVE_ENTITY: EventEntity moves to X=103.072*, Z=19.684*, Y=-0.171*
  2: 0x00AF [0x1F] MOVE_ENTITY: Update entity position (mode=1)
  3: 0x00B1 [0x00] END_REQSTACK()
```

### Event 65535.8

#### Metadata

| Field        | Value    |
|--------------|----------|
| Entrypoint   | 0x00B2   |
| Data Size    | 14 bytes |
| Instructions | 4        |

```
      00 01 02 03 04 05 06 07  08 09 0A 0B 0C 0D 0E 0F
      -- -- -- -- -- -- -- --  -- -- -- -- -- -- -- --
00B0:       32 00 80 1F 00 19  80 1A 80 1B 80 1F 01 00    2.............
```

#### Opcodes

```
  0: 0x00B2 [0x32] ExtData[1]->MainSpeed = 13* * 0.1
  1: 0x00B5 [0x1F] MOVE_ENTITY: EventEntity moves to X=106.276*, Z=19.909*, Y=-0.088*
  2: 0x00BD [0x1F] MOVE_ENTITY: Update entity position (mode=1)
  3: 0x00BF [0x00] END_REQSTACK()
```

### Event 65535.9

#### Metadata

| Field        | Value    |
|--------------|----------|
| Entrypoint   | 0x00C0   |
| Data Size    | 14 bytes |
| Instructions | 4        |

```
      00 01 02 03 04 05 06 07  08 09 0A 0B 0C 0D 0E 0F
      -- -- -- -- -- -- -- --  -- -- -- -- -- -- -- --
00C0: 32 07 80 1F 00 1C 80 1D  80 1E 80 1F 01 00        2.............  
```

#### Opcodes

```
  0: 0x00C0 [0x32] ExtData[1]->MainSpeed = 40* * 0.1
  1: 0x00C3 [0x1F] MOVE_ENTITY: EventEntity moves to X=118.622*, Z=20.035*, Y=0.124*
  2: 0x00CB [0x1F] MOVE_ENTITY: Update entity position (mode=1)
  3: 0x00CD [0x00] END_REQSTACK()
```

### Event 13

#### Metadata

| Field        | Value   |
|--------------|---------|
| Entrypoint   | 0x00CE  |
| Data Size    | 7 bytes |
| Instructions | 2       |

```
      00 01 02 03 04 05 06 07  08 09 0A 0B 0C 0D 0E 0F
      -- -- -- -- -- -- -- --  -- -- -- -- -- -- -- --
00C0:                                            92 01                ..
00D0: F8 FF FF 7F 00                                    .....           
```

#### Opcodes

```
  0: 0x00CE [0x92] EventEntity->Render.Flags3 ^= 0x01
  1: 0x00D4 [0x00] END_REQSTACK()
```
