# 17138554

## Common Data

| Field            | Value                        |
|------------------|------------------------------|
| Zone             | North Gustaberg [S] (ID: 88) |
| Block Size       | 64 bytes                     |
| Total Events     | 2                            |
| References Count | 4                            |

## List of Events

| Event ID              | Entrypoint   |   Size |   Instructions |
|-----------------------|--------------|--------|----------------|
| [65535](#event-65535) | 0x0000       |      1 |              1 |
| [4](#event-4)         | 0x0001       |     20 |              5 |

## DAT References (imed_data)

|   Index | Hex Value   |   Dec Value |
|---------|-------------|-------------|
|       0 | 0x48BE8     |      297960 |
|       1 | 0x7E37E     |      516990 |
|       2 | 0xFFFF13AC  |  4294906796 |
|       3 | 0x0BEF      |        3055 |

## Events

### Event 65535

#### Metadata

| Field        | Value   |
|--------------|---------|
| Entrypoint   | 0x0000  |
| Data Size    | 1 bytes |
| Instructions | 1       |

```
      00 01 02 03 04 05 06 07  08 09 0A 0B 0C 0D 0E 0F
      -- -- -- -- -- -- -- --  -- -- -- -- -- -- -- --
0000: 00                                                .               
```

#### Opcodes

```
  0: 0x0000 [0x00] END_REQSTACK()
```

### Event 4

#### Metadata

| Field        | Value    |
|--------------|----------|
| Entrypoint   | 0x0001   |
| Data Size    | 20 bytes |
| Instructions | 5        |

```
      00 01 02 03 04 05 06 07  08 09 0A 0B 0C 0D 0E 0F
      -- -- -- -- -- -- -- --  -- -- -- -- -- -- -- --
0000:    94 01 7A 83 05 01 A4  01 33 01 37 00 80 01 80   ..z.....3.7....
0010: 02 80 03 80 00                                    .....           
```

#### Opcodes

```
  0: 0x0001 [0x94] Unnamed NPC (ID: 17138554/0x0105837A)->Render.Flags3 ^= 0x01
  1: 0x0007 [0xA4] EventEntity->Flags3.unknown_3_2 = 1
  2: 0x0009 [0x33] EventEntity->Render.Flags0 |= 0x200000 // Bit 21 (flag=0x01)
  3: 0x000B [0x37] UPDATE_EVENT_POSITION_AND_DIR: x=297.960*, z=516.990*, y=-60.500*, direction=268.5°*
  4: 0x0014 [0x00] END_REQSTACK()
```
