# 17138546

## Common Data

| Field            | Value                        |
|------------------|------------------------------|
| Zone             | North Gustaberg [S] (ID: 88) |
| Block Size       | 24024 bytes                  |
| Total Events     | 6                            |
| References Count | 755                          |

## List of Events

| Event ID              | Entrypoint   |   Size |   Instructions |
|-----------------------|--------------|--------|----------------|
| [65535](#event-65535) | 0x0000       |      1 |              1 |
| [4](#event-4)         | 0x0001       |   3558 |            378 |
| [5](#event-5)         | 0x0DE7       |   2938 |            343 |
| [6](#event-6)         | 0x1961       |   6027 |            665 |
| [10](#event-10)       | 0x30EC       |   2501 |            269 |
| [13](#event-13)       | 0x3AB1       |   5937 |            692 |

## DAT References (imed_data)

|   Index | Hex Value   |   Dec Value |
|---------|-------------|-------------|
|       0 | 0x0000      |           0 |
|       1 | 0x0078      |         120 |
|       2 | 0x00C8      |         200 |
|       3 | 0x001B      |          27 |
|       4 | 0x4859F     |      296351 |
|       5 | 0x7EE8F     |      519823 |
|       6 | 0xFFFF15A1  |  4294907297 |
|       7 | 0x0F98      |        3992 |
|       8 | 0x494B6     |      300214 |
|       9 | 0x7C6F1     |      509681 |
|      10 | 0xFFFF1414  |  4294906900 |
|      11 | 0x0C1D      |        3101 |
|      12 | 0x4375B     |      276315 |
|      13 | 0x7EBDF     |      519135 |
|      14 | 0xFFFF15A0  |  4294907296 |
|      15 | 0x0FE5      |        4069 |
|      16 | 0x4303A     |      274490 |
|      17 | 0x7E6C5     |      517829 |
|      18 | 0xFFFF1642  |  4294907458 |
|      19 | 0x016A      |         362 |
|      20 | 0x000F      |          15 |
|      21 | 0x00D2      |         210 |
|      22 | 0x003C      |          60 |
|      23 | 0x1F1E      |        7966 |
|      24 | 0x1F1F      |        7967 |
|      25 | 0x00FA      |         250 |
|      26 | 0x0569      |        1385 |
|      27 | 0x05C8      |        1480 |
|      28 | 0x1F20      |        7968 |
|      29 | 0x002D      |          45 |
|      30 | 0x0005      |           5 |
|      31 | 0x493BE     |      299966 |
|      32 | 0x7E788     |      518024 |
|      33 | 0xFFFF1617  |  4294907415 |
|      34 | 0x03F9      |        1017 |
|      35 | 0x1F21      |        7969 |
|      36 | 0x001E      |          30 |
|      37 | 0x00C9      |         201 |
|      38 | 0x49746     |      300870 |
|      39 | 0x7E2A3     |      516771 |
|      40 | 0xFFFF1669  |  4294907497 |
|      41 | 0x48C5B     |      298075 |
|      42 | 0x7E894     |      518292 |
|      43 | 0xFFFF1590  |  4294907280 |
|      44 | 0x0BEF      |        3055 |
|      45 | 0x48A65     |      297573 |
|      46 | 0x7F1B4     |      520628 |
|      47 | 0xFFFF151D  |  4294907165 |
|      48 | 0x0F9C      |        3996 |
|      49 | 0x056A      |        1386 |
|      50 | 0x1F22      |        7970 |
|      51 | 0x1F23      |        7971 |
|      52 | 0x00E8      |         232 |
|      53 | 0x48C9E     |      298142 |
|      54 | 0x7F432     |      521266 |
|      55 | 0xFFFF14A4  |  4294907044 |
|      56 | 0x005A      |          90 |
|      57 | 0x49334     |      299828 |
|      58 | 0x7ED42     |      519490 |
|      59 | 0x0887      |        2183 |
|      60 | 0x1F24      |        7972 |
|      61 | 0x1F25      |        7973 |
|      62 | 0x089C      |        2204 |
|      63 | 0x010E      |         270 |
|      64 | 0x007F      |         127 |
|      65 | 0x0573      |        1395 |
|      66 | 0x1F26      |        7974 |
|      67 | 0x1F27      |        7975 |
|      68 | 0x089D      |        2205 |
|      69 | 0x1F28      |        7976 |
|      70 | 0x1F29      |        7977 |
|      71 | 0x1F2A      |        7978 |
|      72 | 0x1F2B      |        7979 |
|      73 | 0x0009      |           9 |
|      74 | 0x1F2C      |        7980 |
|      75 | 0x4C097     |      311447 |
|      76 | 0x7D23C     |      512572 |
|      77 | 0xFFFF1507  |  4294907143 |
|      78 | 0x0281      |         641 |
|      79 | 0x4C34F     |      312143 |
|      80 | 0x7D990     |      514448 |
|      81 | 0xFFFF1525  |  4294907173 |
|      82 | 0x0349      |         841 |
|      83 | 0x4C6EA     |      313066 |
|      84 | 0x7CE25     |      511525 |
|      85 | 0xFFFF1504  |  4294907140 |
|      86 | 0x0A15      |        2581 |
|      87 | 0x4B7DF     |      309215 |
|      88 | 0x7D4A1     |      513185 |
|      89 | 0xFFFF1644  |  4294907460 |
|      90 | 0x0F7A      |        3962 |
|      91 | 0x4C9DB     |      313819 |
|      92 | 0x7D625     |      513573 |
|      93 | 0xFFFF1577  |  4294907255 |
|      94 | 0x05EB      |        1515 |
|      95 | 0x4B74C     |      309068 |
|      96 | 0x7CD58     |      511320 |
|      97 | 0xFFFF1637  |  4294907447 |
|      98 | 0x0542      |        1346 |
|      99 | 0x00B4      |         180 |
|     100 | 0x1F2D      |        7981 |
|     101 | 0x1F2E      |        7982 |
|     102 | 0x1F2F      |        7983 |
|     103 | 0x1F30      |        7984 |
|     104 | 0x00A1      |         161 |
|     105 | 0x1F31      |        7985 |
|     106 | 0x1F32      |        7986 |
|     107 | 0x1F33      |        7987 |
|     108 | 0x1F34      |        7988 |
|     109 | 0x1F35      |        7989 |
|     110 | 0x0575      |        1397 |
|     111 | 0x1F36      |        7990 |
|     112 | 0x1F37      |        7991 |
|     113 | 0x1F38      |        7992 |
|     114 | 0x4C20B     |      311819 |
|     115 | 0x7CFA6     |      511910 |
|     116 | 0xFFFF149E  |  4294907038 |
|     117 | 0x0C34      |        3124 |
|     118 | 0x1F39      |        7993 |
|     119 | 0x1F3A      |        7994 |
|     120 | 0x1F3B      |        7995 |
|     121 | 0x1F3C      |        7996 |
|     122 | 0x4C53B     |      312635 |
|     123 | 0x7D62B     |      513579 |
|     124 | 0xFFFF152E  |  4294907182 |
|     125 | 0x1F3D      |        7997 |
|     126 | 0x0544      |        1348 |
|     127 | 0x1F3E      |        7998 |
|     128 | 0x0574      |        1396 |
|     129 | 0x1F3F      |        7999 |
|     130 | 0x1F40      |        8000 |
|     131 | 0x00FD      |         253 |
|     132 | 0x0001      |           1 |
|     133 | 0x005D      |          93 |
|     134 | 0x0011      |          17 |
|     135 | 0x286B2     |      165554 |
|     136 | 0x35D86     |      220550 |
|     137 | 0xFFFFA17E  |  4294943102 |
|     138 | 0x0EA0      |        3744 |
|     139 | 0x2A46A     |      173162 |
|     140 | 0x37644     |      226884 |
|     141 | 0xFFFFA160  |  4294943072 |
|     142 | 0x06EC      |        1772 |
|     143 | 0x2AE7D     |      175741 |
|     144 | 0x3773F     |      227135 |
|     145 | 0xFFFFA26A  |  4294943338 |
|     146 | 0x06C1      |        1729 |
|     147 | 0x2B4D2     |      177362 |
|     148 | 0x37DBD     |      228797 |
|     149 | 0xFFFFA2D8  |  4294943448 |
|     150 | 0x06F8      |        1784 |
|     151 | 0x2A678     |      173688 |
|     152 | 0x37DFF     |      228863 |
|     153 | 0xFFFFA070  |  4294942832 |
|     154 | 0x06BB      |        1723 |
|     155 | 0x2AE8F     |      175759 |
|     156 | 0x37116     |      225558 |
|     157 | 0xFFFFA315  |  4294943509 |
|     158 | 0x06BC      |        1724 |
|     159 | 0x2B5AC     |      177580 |
|     160 | 0x36FC5     |      225221 |
|     161 | 0xFFFFA303  |  4294943491 |
|     162 | 0x2B0A2     |      176290 |
|     163 | 0x37760     |      227168 |
|     164 | 0xFFFFA2A8  |  4294943400 |
|     165 | 0x0703      |        1795 |
|     166 | 0x2B619     |      177689 |
|     167 | 0x3761A     |      226842 |
|     168 | 0xFFFFA332  |  4294943538 |
|     169 | 0x2BA32     |      178738 |
|     170 | 0x373DE     |      226270 |
|     171 | 0xFFFFA36B  |  4294943595 |
|     172 | 0x002C      |          44 |
|     173 | 0x000A      |          10 |
|     174 | 0x016B      |         363 |
|     175 | 0x1F44      |        8004 |
|     176 | 0x1F45      |        8005 |
|     177 | 0x1F46      |        8006 |
|     178 | 0x1F47      |        8007 |
|     179 | 0x0008      |           8 |
|     180 | 0x29B03     |      170755 |
|     181 | 0x36355     |      222037 |
|     182 | 0xFFFFA3AB  |  4294943659 |
|     183 | 0x1F48      |        8008 |
|     184 | 0x28C42     |      166978 |
|     185 | 0x368AC     |      223404 |
|     186 | 0xFFFFA288  |  4294943368 |
|     187 | 0x0F88      |        3976 |
|     188 | 0x1F49      |        8009 |
|     189 | 0x1F4A      |        8010 |
|     190 | 0x1F4B      |        8011 |
|     191 | 0x1F4C      |        8012 |
|     192 | 0x1F4D      |        8013 |
|     193 | 0x0013      |          19 |
|     194 | 0x297BC     |      169916 |
|     195 | 0x36543     |      222531 |
|     196 | 0xFFFFA336  |  4294943542 |
|     197 | 0x0EA1      |        3745 |
|     198 | 0x1F4E      |        8014 |
|     199 | 0x2AE72     |      175730 |
|     200 | 0x366BC     |      222908 |
|     201 | 0xFFFFA3A5  |  4294943653 |
|     202 | 0x08FB      |        2299 |
|     203 | 0x1F4F      |        8015 |
|     204 | 0x1F50      |        8016 |
|     205 | 0x0007      |           7 |
|     206 | 0x1F51      |        8017 |
|     207 | 0x1F52      |        8018 |
|     208 | 0x0064      |         100 |
|     209 | 0x28C46     |      166982 |
|     210 | 0x3741B     |      226331 |
|     211 | 0xFFFFA1D9  |  4294943193 |
|     212 | 0x0FB5      |        4021 |
|     213 | 0x2A4C5     |      173253 |
|     214 | 0x372FB     |      226043 |
|     215 | 0xFFFFA1CB  |  4294943179 |
|     216 | 0x066D      |        1645 |
|     217 | 0x1F53      |        8019 |
|     218 | 0x0016      |          22 |
|     219 | 0x1F54      |        8020 |
|     220 | 0x1F55      |        8021 |
|     221 | 0x1F56      |        8022 |
|     222 | 0x08BA      |        2234 |
|     223 | 0x016C      |         364 |
|     224 | 0x1F57      |        8023 |
|     225 | 0x00F4      |         244 |
|     226 | 0x2A7C1     |      174017 |
|     227 | 0x37A1D     |      227869 |
|     228 | 0xFFFFA0DD  |  4294942941 |
|     229 | 0x1F58      |        8024 |
|     230 | 0x29779     |      169849 |
|     231 | 0x37AFC     |      228092 |
|     232 | 0xFFFFA237  |  4294943287 |
|     233 | 0x0696      |        1686 |
|     234 | 0x29356     |      168790 |
|     235 | 0x37620     |      226848 |
|     236 | 0xFFFFA246  |  4294943302 |
|     237 | 0x0D44      |        3396 |
|     238 | 0x29D6E     |      171374 |
|     239 | 0x36332     |      222002 |
|     240 | 0xFFFFA3E8  |  4294943720 |
|     241 | 0x1F59      |        8025 |
|     242 | 0x1F5A      |        8026 |
|     243 | 0x1F5B      |        8027 |
|     244 | 0x050C      |        1292 |
|     245 | 0x1F5C      |        8028 |
|     246 | 0x1F5D      |        8029 |
|     247 | 0x1F5E      |        8030 |
|     248 | 0x1F5F      |        8031 |
|     249 | 0x1F60      |        8032 |
|     250 | 0x00F3      |         243 |
|     251 | 0x0002      |           2 |
|     252 | 0x0102      |         258 |
|     253 | 0x0058      |          88 |
|     254 | 0x35D30     |      220464 |
|     255 | 0xFFFD46F3  |  4294788851 |
|     256 | 0xFFFFC434  |  4294951988 |
|     257 | 0x0C7F      |        3199 |
|     258 | 0x357D1     |      219089 |
|     259 | 0xFFFD91F5  |  4294808053 |
|     260 | 0xFFFFC1FD  |  4294951421 |
|     261 | 0x03EE      |        1006 |
|     262 | 0x35443     |      218179 |
|     263 | 0xFFFD9886  |  4294809734 |
|     264 | 0xFFFFC134  |  4294951220 |
|     265 | 0x0046      |          70 |
|     266 | 0x0050      |          80 |
|     267 | 0x0003      |           3 |
|     268 | 0x0004      |           4 |
|     269 | 0x006E      |         110 |
|     270 | 0x0006      |           6 |
|     271 | 0x0082      |         130 |
|     272 | 0x00A3      |         163 |
|     273 | 0x1F64      |        8036 |
|     274 | 0x0059      |          89 |
|     275 | 0x1F65      |        8037 |
|     276 | 0x1F66      |        8038 |
|     277 | 0x00EB      |         235 |
|     278 | 0x00F2      |         242 |
|     279 | 0x0096      |         150 |
|     280 | 0x35537     |      218423 |
|     281 | 0xFFFD83BE  |  4294804414 |
|     282 | 0xFFFFC1AF  |  4294951343 |
|     283 | 0x0408      |        1032 |
|     284 | 0x000B      |          11 |
|     285 | 0x1F67      |        8039 |
|     286 | 0x1F68      |        8040 |
|     287 | 0x1F69      |        8041 |
|     288 | 0x1909C     |      102556 |
|     289 | 0x521F      |       21023 |
|     290 | 0xFFFFFEDA  |  4294967002 |
|     291 | 0x074A      |        1866 |
|     292 | 0x18975     |      100725 |
|     293 | 0x40CB      |       16587 |
|     294 | 0xFFFFFF25  |  4294967077 |
|     295 | 0x0A89      |        2697 |
|     296 | 0x195AF     |      103855 |
|     297 | 0x46D3      |       18131 |
|     298 | 0x0063      |          99 |
|     299 | 0x0852      |        2130 |
|     300 | 0x18751     |      100177 |
|     301 | 0x51B2      |       20914 |
|     302 | 0xFFFFFF4B  |  4294967115 |
|     303 | 0x0682      |        1666 |
|     304 | 0x1BEAC     |      114348 |
|     305 | 0x5391      |       21393 |
|     306 | 0xFFFFFF84  |  4294967172 |
|     307 | 0x0818      |        2072 |
|     308 | 0x1B908     |      112904 |
|     309 | 0x4E76      |       20086 |
|     310 | 0x007C      |         124 |
|     311 | 0x178CD     |       96461 |
|     312 | 0x4C81      |       19585 |
|     313 | 0xFFFFFEE6  |  4294967014 |
|     314 | 0x0814      |        2068 |
|     315 | 0x178C8     |       96456 |
|     316 | 0x5BCA      |       23498 |
|     317 | 0x0040      |          64 |
|     318 | 0x04E6      |        1254 |
|     319 | 0x18689     |       99977 |
|     320 | 0x58D1      |       22737 |
|     321 | 0xFFFFFF13  |  4294967059 |
|     322 | 0x17B9F     |       97183 |
|     323 | 0x3EDB      |       16091 |
|     324 | 0xFFFFFFF3  |  4294967283 |
|     325 | 0x167A5     |       92069 |
|     326 | 0x4C8F      |       19599 |
|     327 | 0x0093      |         147 |
|     328 | 0x0FFF      |        4095 |
|     329 | 0x1F6A      |        8042 |
|     330 | 0x18E94     |      102036 |
|     331 | 0x553F      |       21823 |
|     332 | 0xFFFFFE52  |  4294966866 |
|     333 | 0x081B      |        2075 |
|     334 | 0x18240     |       98880 |
|     335 | 0x56CA      |       22218 |
|     336 | 0xFFFFFFA1  |  4294967201 |
|     337 | 0x181F2     |       98802 |
|     338 | 0x723A      |       29242 |
|     339 | 0x0321      |         801 |
|     340 | 0x18A23     |      100899 |
|     341 | 0x750D      |       29965 |
|     342 | 0xFFFFFFFB  |  4294967291 |
|     343 | 0x1F6B      |        8043 |
|     344 | 0x1F6C      |        8044 |
|     345 | 0x1F6D      |        8045 |
|     346 | 0x1F6E      |        8046 |
|     347 | 0x001D      |          29 |
|     348 | 0x1F6F      |        8047 |
|     349 | 0x0015      |          21 |
|     350 | 0x196D2     |      104146 |
|     351 | 0x4E5D      |       20061 |
|     352 | 0xFFFFFFF6  |  4294967286 |
|     353 | 0x000C      |          12 |
|     354 | 0x1B6C8     |      112328 |
|     355 | 0x523A      |       21050 |
|     356 | 0x0054      |          84 |
|     357 | 0x1CD46     |      118086 |
|     358 | 0x4A76      |       19062 |
|     359 | 0x08BB      |        2235 |
|     360 | 0x1F70      |        8048 |
|     361 | 0x0014      |          20 |
|     362 | 0x08BC      |        2236 |
|     363 | 0x1F71      |        8049 |
|     364 | 0x08EB      |        2283 |
|     365 | 0x1F72      |        8050 |
|     366 | 0x0028      |          40 |
|     367 | 0x1D53D     |      120125 |
|     368 | 0x4E33      |       20019 |
|     369 | 0x0801      |        2049 |
|     370 | 0x1C5A3     |      116131 |
|     371 | 0x4E18      |       19992 |
|     372 | 0x1E636     |      124470 |
|     373 | 0x4B37      |       19255 |
|     374 | 0x1E437     |      123959 |
|     375 | 0x5201      |       20993 |
|     376 | 0x1EF23     |      126755 |
|     377 | 0x504D      |       20557 |
|     378 | 0x08DF      |        2271 |
|     379 | 0x08E2      |        2274 |
|     380 | 0x08BD      |        2237 |
|     381 | 0x000D      |          13 |
|     382 | 0x0576      |        1398 |
|     383 | 0x1F73      |        8051 |
|     384 | 0x1A4EC     |      107756 |
|     385 | 0x5141      |       20801 |
|     386 | 0x0097      |         151 |
|     387 | 0x0FE9      |        4073 |
|     388 | 0x1F74      |        8052 |
|     389 | 0x1F75      |        8053 |
|     390 | 0x1C672     |      116338 |
|     391 | 0x525D      |       21085 |
|     392 | 0x0048      |          72 |
|     393 | 0x1C5CD     |      116173 |
|     394 | 0x4BBE      |       19390 |
|     395 | 0x0045      |          69 |
|     396 | 0x1F76      |        8054 |
|     397 | 0x1CF26     |      118566 |
|     398 | 0x51FC      |       20988 |
|     399 | 0x0077      |         119 |
|     400 | 0x1F77      |        8055 |
|     401 | 0x1F78      |        8056 |
|     402 | 0x1F79      |        8057 |
|     403 | 0x1F7A      |        8058 |
|     404 | 0x1ABE9     |      109545 |
|     405 | 0x462C      |       17964 |
|     406 | 0x0F81      |        3969 |
|     407 | 0x1A794     |      108436 |
|     408 | 0x489B      |       18587 |
|     409 | 0x007A      |         122 |
|     410 | 0x1F7B      |        8059 |
|     411 | 0x1F7C      |        8060 |
|     412 | 0x1F7D      |        8061 |
|     413 | 0x1F7E      |        8062 |
|     414 | 0x1F7F      |        8063 |
|     415 | 0x1D296     |      119446 |
|     416 | 0x4DBC      |       19900 |
|     417 | 0x0779      |        1913 |
|     418 | 0x1F80      |        8064 |
|     419 | 0x00CA      |         202 |
|     420 | 0x1F81      |        8065 |
|     421 | 0x1F82      |        8066 |
|     422 | 0x1BCAA     |      113834 |
|     423 | 0x4F75      |       20341 |
|     424 | 0x07FD      |        2045 |
|     425 | 0x1F83      |        8067 |
|     426 | 0x1F84      |        8068 |
|     427 | 0x1A09D     |      106653 |
|     428 | 0x4EDD      |       20189 |
|     429 | 0xFFFFFF7A  |  4294967162 |
|     430 | 0x014D      |         333 |
|     431 | 0x1B1DA     |      111066 |
|     432 | 0x49E5      |       18917 |
|     433 | 0x0924      |        2340 |
|     434 | 0x1F85      |        8069 |
|     435 | 0x1F86      |        8070 |
|     436 | 0x1F87      |        8071 |
|     437 | 0x1BA94     |      113300 |
|     438 | 0x4948      |       18760 |
|     439 | 0xFFFFFF93  |  4294967187 |
|     440 | 0x1F88      |        8072 |
|     441 | 0x1A37A     |      107386 |
|     442 | 0x4B41      |       19265 |
|     443 | 0x0080      |         128 |
|     444 | 0x1A362     |      107362 |
|     445 | 0x51F3      |       20979 |
|     446 | 0x0095      |         149 |
|     447 | 0x1F89      |        8073 |
|     448 | 0x009A      |         154 |
|     449 | 0x1F8A      |        8074 |
|     450 | 0x1F8B      |        8075 |
|     451 | 0x0578      |        1400 |
|     452 | 0x1F8C      |        8076 |
|     453 | 0xFFF9EAAA  |  4294568618 |
|     454 | 0xFFFE9419  |  4294874137 |
|     455 | 0x9BFD      |       39933 |
|     456 | 0x09BC      |        2492 |
|     457 | 0x020C      |         524 |
|     458 | 0x1F8D      |        8077 |
|     459 | 0x1F8E      |        8078 |
|     460 | 0x00A7      |         167 |
|     461 | 0x00FF      |         255 |
|     462 | 0x24DD0     |      150992 |
|     463 | 0xC3D2      |       50130 |
|     464 | 0xFFFFA23D  |  4294943293 |
|     465 | 0x043B      |        1083 |
|     466 | 0x2698F     |      158095 |
|     467 | 0xE761      |       59233 |
|     468 | 0xFFFFA240  |  4294943296 |
|     469 | 0x06C5      |        1733 |
|     470 | 0x251C0     |      152000 |
|     471 | 0xDA9A      |       55962 |
|     472 | 0x0917      |        2327 |
|     473 | 0x1F8F      |        8079 |
|     474 | 0x1F90      |        8080 |
|     475 | 0x0A7C      |        2684 |
|     476 | 0x2650E     |      156942 |
|     477 | 0xE617      |       58903 |
|     478 | 0xFFFFA23F  |  4294943295 |
|     479 | 0x07E2      |        2018 |
|     480 | 0x00D6      |         214 |
|     481 | 0x1F91      |        8081 |
|     482 | 0x1F92      |        8082 |
|     483 | 0x1F93      |        8083 |
|     484 | 0x1F94      |        8084 |
|     485 | 0x1F95      |        8085 |
|     486 | 0x0A7D      |        2685 |
|     487 | 0x1F96      |        8086 |
|     488 | 0x1F97      |        8087 |
|     489 | 0x1F98      |        8088 |
|     490 | 0x1F99      |        8089 |
|     491 | 0x24D27     |      150823 |
|     492 | 0xC4AB      |       50347 |
|     493 | 0x03EA      |        1002 |
|     494 | 0x1F9A      |        8090 |
|     495 | 0x1F9B      |        8091 |
|     496 | 0x1F9C      |        8092 |
|     497 | 0x0A7B      |        2683 |
|     498 | 0x24D6A     |      150890 |
|     499 | 0xBCD4      |       48340 |
|     500 | 0xFFFFA266  |  4294943334 |
|     501 | 0x0BB5      |        2997 |
|     502 | 0x1F9D      |        8093 |
|     503 | 0x1F9E      |        8094 |
|     504 | 0x0057      |          87 |
|     505 | 0xFFFC6AF0  |  4294732528 |
|     506 | 0x15F61     |       89953 |
|     507 | 0x0C14      |        3092 |
|     508 | 0xFFFC7190  |  4294734224 |
|     509 | 0x15F6D     |       89965 |
|     510 | 0xFFFC6317  |  4294730519 |
|     511 | 0x15E86     |       89734 |
|     512 | 0xFFFC78EA  |  4294736106 |
|     513 | 0x15E87     |       89735 |
|     514 | 0xFFFC6DE2  |  4294733282 |
|     515 | 0x1686C     |       92268 |
|     516 | 0xFFFC88BD  |  4294740157 |
|     517 | 0x16177     |       90487 |
|     518 | 0x0932      |        2354 |
|     519 | 0xFFFC70BF  |  4294734015 |
|     520 | 0x17451     |       95313 |
|     521 | 0xFFFC6975  |  4294732149 |
|     522 | 0x1389E     |       80030 |
|     523 | 0xFFFC63F3  |  4294730739 |
|     524 | 0x13589     |       79241 |
|     525 | 0xFFFC65C0  |  4294731200 |
|     526 | 0x13AAE     |       80558 |
|     527 | 0xFFFC7165  |  4294734181 |
|     528 | 0x13996     |       80278 |
|     529 | 0xFFFC7976  |  4294736246 |
|     530 | 0x13C5D     |       80989 |
|     531 | 0xFFFC7384  |  4294734724 |
|     532 | 0x13F49     |       81737 |
|     533 | 0xFFFC496B  |  4294723947 |
|     534 | 0x16534     |       91444 |
|     535 | 0x0FDC      |        4060 |
|     536 | 0xFFFC4E27  |  4294725159 |
|     537 | 0x160FA     |       90362 |
|     538 | 0xFFFC4A7A  |  4294724218 |
|     539 | 0x14E21     |       85537 |
|     540 | 0x0F0A      |        3850 |
|     541 | 0xFFFC45E2  |  4294723042 |
|     542 | 0x147CA     |       83914 |
|     543 | 0xFFFC42A3  |  4294722211 |
|     544 | 0x14EE6     |       85734 |
|     545 | 0xFFFC6E62  |  4294733410 |
|     546 | 0x15486     |       87174 |
|     547 | 0xFFFC66FA  |  4294731514 |
|     548 | 0x154BD     |       87229 |
|     549 | 0xFFFC7610  |  4294735376 |
|     550 | 0x1550C     |       87308 |
|     551 | 0x09BA      |        2490 |
|     552 | 0x0981      |        2433 |
|     553 | 0x0A71      |        2673 |
|     554 | 0x0C33      |        3123 |
|     555 | 0x008C      |         140 |
|     556 | 0x0212      |         530 |
|     557 | 0x1FA0      |        8096 |
|     558 | 0x0154      |         340 |
|     559 | 0xFFFC6AD3  |  4294732499 |
|     560 | 0x19100     |      102656 |
|     561 | 0xFFFFFDA7  |  4294966695 |
|     562 | 0xFFFC7245  |  4294734405 |
|     563 | 0x190D9     |      102617 |
|     564 | 0xFFFC6E41  |  4294733377 |
|     565 | 0x1AC52     |      109650 |
|     566 | 0xFFFC6FF3  |  4294733811 |
|     567 | 0x1B62E     |      112174 |
|     568 | 0xFFFC6E33  |  4294733363 |
|     569 | 0x1839C     |       99228 |
|     570 | 0xFFFC6AA7  |  4294732455 |
|     571 | 0x17B9D     |       97181 |
|     572 | 0xFFFC728F  |  4294734479 |
|     573 | 0x17B9B     |       97179 |
|     574 | 0x1FA1      |        8097 |
|     575 | 0x0089      |         137 |
|     576 | 0x58086     |      360582 |
|     577 | 0xFFFDE677  |  4294829687 |
|     578 | 0x22AF      |        8879 |
|     579 | 0x0519      |        1305 |
|     580 | 0x565C7     |      353735 |
|     581 | 0xFFFDF7A5  |  4294834085 |
|     582 | 0x00F8      |         248 |
|     583 | 0x57902     |      358658 |
|     584 | 0xFFFE0153  |  4294836563 |
|     585 | 0x208E      |        8334 |
|     586 | 0x0A83      |        2691 |
|     587 | 0x57670     |      358000 |
|     588 | 0xFFFE11DC  |  4294840796 |
|     589 | 0x1D4C      |        7500 |
|     590 | 0x0400      |        1024 |
|     591 | 0x5D67B     |      382587 |
|     592 | 0xFFFDCDE6  |  4294823398 |
|     593 | 0xFFFFF509  |  4294964489 |
|     594 | 0x086F      |        2159 |
|     595 | 0x56CF3     |      355571 |
|     596 | 0xFFFE3710  |  4294850320 |
|     597 | 0x1D84      |        7556 |
|     598 | 0x0524      |        1316 |
|     599 | 0x5924B     |      365131 |
|     600 | 0xFFFE0199  |  4294836633 |
|     601 | 0x1FAE      |        8110 |
|     602 | 0x0B91      |        2961 |
|     603 | 0x5AEAA     |      372394 |
|     604 | 0xFFFDDB4E  |  4294826830 |
|     605 | 0x139F      |        5023 |
|     606 | 0x0214      |         532 |
|     607 | 0x57550     |      357712 |
|     608 | 0xFFFDD3F3  |  4294824947 |
|     609 | 0x22B1      |        8881 |
|     610 | 0x0D33      |        3379 |
|     611 | 0x5761A     |      357914 |
|     612 | 0xFFFDEEB5  |  4294831797 |
|     613 | 0x222A      |        8746 |
|     614 | 0x08DB      |        2267 |
|     615 | 0x58117     |      360727 |
|     616 | 0xFFFE10E9  |  4294840553 |
|     617 | 0x1FC7      |        8135 |
|     618 | 0x563E6     |      353254 |
|     619 | 0xFFFE110E  |  4294840590 |
|     620 | 0x1F18      |        7960 |
|     621 | 0x012D      |         301 |
|     622 | 0x55DB5     |      351669 |
|     623 | 0xFFFE2DF8  |  4294847992 |
|     624 | 0x1C3E      |        7230 |
|     625 | 0x0D54      |        3412 |
|     626 | 0x008A      |         138 |
|     627 | 0x08B1      |        2225 |
|     628 | 0x0090      |         144 |
|     629 | 0x04EC      |        1260 |
|     630 | 0x050A      |        1290 |
|     631 | 0x004F      |          79 |
|     632 | 0x009D      |         157 |
|     633 | 0x0478      |        1144 |
|     634 | 0x0032      |          50 |
|     635 | 0x037F      |         895 |
|     636 | 0x5BA82     |      375426 |
|     637 | 0xFFFDCE42  |  4294823490 |
|     638 | 0x1268      |        4712 |
|     639 | 0x0A5E      |        2654 |
|     640 | 0x08B5      |        2229 |
|     641 | 0x00ED      |         237 |
|     642 | 0xFFFF50EE  |  4294922478 |
|     643 | 0xFFFFFA69  |  4294965865 |
|     644 | 0xFFFFD8F1  |  4294957297 |
|     645 | 0x0807      |        2055 |
|     646 | 0xFFFF1DB3  |  4294909363 |
|     647 | 0xFFFFEA8A  |  4294961802 |
|     648 | 0x07CF      |        1999 |
|     649 | 0x0BC9      |        3017 |
|     650 | 0xFFFF332E  |  4294914862 |
|     651 | 0xFFFFF5FB  |  4294964731 |
|     652 | 0x07FF      |        2047 |
|     653 | 0xFFFF3101  |  4294914305 |
|     654 | 0x0ABC      |        2748 |
|     655 | 0xFFFF3695  |  4294915733 |
|     656 | 0xFFFFFBBB  |  4294966203 |
|     657 | 0x08F3      |        2291 |
|     658 | 0xFFFF07BE  |  4294903742 |
|     659 | 0x2D40      |       11584 |
|     660 | 0x0C2C      |        3116 |
|     661 | 0x00F0      |         240 |
|     662 | 0x0131      |         305 |
|     663 | 0x18149     |       98633 |
|     664 | 0x2F52      |       12114 |
|     665 | 0xFFFFB127  |  4294947111 |
|     666 | 0x064A      |        1610 |
|     667 | 0x17BA5     |       97189 |
|     668 | 0x2ACF      |       10959 |
|     669 | 0x0E09      |        3593 |
|     670 | 0x052B      |        1323 |
|     671 | 0x09BB      |        2491 |
|     672 | 0x00A0      |         160 |
|     673 | 0x0DAF      |        3503 |
|     674 | 0x04E2      |        1250 |
|     675 | 0xFFFF3292  |  4294914706 |
|     676 | 0xFFFF3056  |  4294914134 |
|     677 | 0xFFFFE890  |  4294961296 |
|     678 | 0x0E56      |        3670 |
|     679 | 0xFFFF41D6  |  4294918614 |
|     680 | 0xFFFF39D3  |  4294916563 |
|     681 | 0x05DE      |        1502 |
|     682 | 0xFFFF36E4  |  4294915812 |
|     683 | 0xFFFF3A9E  |  4294916766 |
|     684 | 0x03CB      |         971 |
|     685 | 0xFFFF40A4  |  4294918308 |
|     686 | 0xFFFF2F37  |  4294913847 |
|     687 | 0x0848      |        2120 |
|     688 | 0xFFFCDE0C  |  4294761996 |
|     689 | 0xFFFE7327  |  4294865703 |
|     690 | 0xFFFFE891  |  4294961297 |
|     691 | 0x074C      |        1868 |
|     692 | 0xFFFCD41D  |  4294759453 |
|     693 | 0xFFFE6FBD  |  4294864829 |
|     694 | 0x0F96      |        3990 |
|     695 | 0xFFFCE972  |  4294764914 |
|     696 | 0xFFFE5D82  |  4294860162 |
|     697 | 0x0A25      |        2597 |
|     698 | 0xFFFCEE95  |  4294766229 |
|     699 | 0xFFFE5D78  |  4294860152 |
|     700 | 0x09B4      |        2484 |
|     701 | 0xFFFCE9FC  |  4294765052 |
|     702 | 0xFFFE579B  |  4294858651 |
|     703 | 0x0A11      |        2577 |
|     704 | 0xFFFD8A14  |  4294806036 |
|     705 | 0xFFFE7C49  |  4294868041 |
|     706 | 0xFFFFF060  |  4294963296 |
|     707 | 0x053E      |        1342 |
|     708 | 0xFFFD9936  |  4294809910 |
|     709 | 0xFFFEB633  |  4294882867 |
|     710 | 0x0908      |        2312 |
|     711 | 0xFFFD8332  |  4294804274 |
|     712 | 0xFFFE73B7  |  4294865847 |
|     713 | 0x0C45      |        3141 |
|     714 | 0xFFFCE1DD  |  4294762973 |
|     715 | 0xFFFFFE26  |  4294966822 |
|     716 | 0xFFFFD8F2  |  4294957298 |
|     717 | 0x0C75      |        3189 |
|     718 | 0xFFFCEC71  |  4294765681 |
|     719 | 0x025C      |         604 |
|     720 | 0x09B3      |        2483 |
|     721 | 0xFFFCE364  |  4294763364 |
|     722 | 0x029A      |         666 |
|     723 | 0xFFFC6EA2  |  4294733474 |
|     724 | 0x1517B     |       86395 |
|     725 | 0xFFFEC72B  |  4294887211 |
|     726 | 0xFFFE1671  |  4294841969 |
|     727 | 0xFFFFEEB7  |  4294962871 |
|     728 | 0x0BFC      |        3068 |
|     729 | 0x0866      |        2150 |
|     730 | 0x0179      |         377 |
|     731 | 0x0087      |         135 |
|     732 | 0x004B      |          75 |
|     733 | 0x00D8      |         216 |
|     734 | 0xFFFEC870  |  4294887536 |
|     735 | 0xFFFE2119  |  4294844697 |
|     736 | 0xFFFFEF8E  |  4294963086 |
|     737 | 0x03A0      |         928 |
|     738 | 0xFFFEC495  |  4294886549 |
|     739 | 0xFFFE260F  |  4294845967 |
|     740 | 0x0405      |        1029 |
|     741 | 0xFFFECC63  |  4294888547 |
|     742 | 0xFFFE2542  |  4294845762 |
|     743 | 0x04DB      |        1243 |
|     744 | 0xFFFC3A8F  |  4294720143 |
|     745 | 0x123C4     |       74692 |
|     746 | 0x0E2F      |        3631 |
|     747 | 0xFFFC5E84  |  4294729348 |
|     748 | 0x14194     |       82324 |
|     749 | 0x0113      |         275 |
|     750 | 0xFFFC4748  |  4294723400 |
|     751 | 0x131CA     |       78282 |
|     752 | 0x0581      |        1409 |
|     753 | 0x0010      |          16 |
|     754 | 0x0168      |         360 |

## String References

- **8006**: Sorry to have kept you all waiting!
- **8027**: Partner with Adelheid? [Sure, what could go wrong?/I'm flattered, but...]
- **8097**: And so it was that the Mythril Musketeers set off for the battlefield once more...

## Events

### Event 65535

#### Metadata

| Field        | Value   |
|--------------|---------|
| Entrypoint   | 0x0000  |
| Data Size    | 1 bytes |
| Instructions | 1       |

```
      00 01 02 03 04 05 06 07  08 09 0A 0B 0C 0D 0E 0F
      -- -- -- -- -- -- -- --  -- -- -- -- -- -- -- --
0000: 00                                                .               
```

#### Opcodes

```
  0: 0x0000 [0x00] END_REQSTACK()
```

### Event 4

#### Metadata

| Field        | Value      |
|--------------|------------|
| Entrypoint   | 0x0001     |
| Data Size    | 3558 bytes |
| Instructions | 378        |

```
      00 01 02 03 04 05 06 07  08 09 0A 0B 0C 0D 0E 0F
      -- -- -- -- -- -- -- --  -- -- -- -- -- -- -- --
0000:    42 5D 00 80 01 80 45  02 80 F8 FF FF 7F F8 FF   B]....E........
0010: FF 7F 66 64 6F 31 00 80  55 02 80 F8 FF FF 7F F8  ..fdo1..U.......
0020: FF FF 7F 66 64 6F 31 46  01 38 03 80 2F 00 74 83  ...fdo1F.8../.t.
0030: 05 01 2F 00 75 83 05 01  4E 00 75 83 05 01 2F 00  ../.u...N.u.../.
0040: 76 83 05 01 4E 00 76 83  05 01 BA 74 83 05 01 04  v...N.v....t....
0050: 80 05 80 06 80 07 80 BA  75 83 05 01 08 80 09 80  ........u.......
0060: 0A 80 0B 80 BA 76 83 05  01 0C 80 0D 80 0E 80 0F  .....v..........
0070: 80 BA F0 FF FF 7F 10 80  11 80 12 80 07 80 80 75  ...............u
0080: 83 05 01 80 76 83 05 01  80 F0 FF FF 7F 94 01 75  ....v..........u
0090: 83 05 01 94 01 76 83 05  01 45 13 80 F8 FF FF 7F  .....v...E......
00A0: F8 FF FF 7F 73 30 39 30  00 80 1C 14 80 45 02 80  ....s090.....E..
00B0: F8 FF FF 7F F8 FF FF 7F  66 64 69 31 00 80 55 02  ........fdi1..U.
00C0: 80 F8 FF FF 7F F8 FF FF  7F 66 64 69 31 1C 15 80  .........fdi1...
00D0: 52 13 80 F8 FF FF 7F F8  FF FF 7F 73 30 39 30 45  R..........s090E
00E0: 13 80 F8 FF FF 7F F8 FF  FF 7F 73 30 39 31 00 80  ..........s091..
00F0: 4E 00 74 83 05 01 80 74  83 05 01 27 05 74 83 05  N.t....t...'.t..
0100: 01 02 1C 16 80 2B 74 83  05 01 17 80 23 2A 05 74  .....+t.....#*.t
0110: 83 05 01 52 13 80 F8 FF  FF 7F F8 FF FF 7F 73 30  ...R..........s0
0120: 39 31 45 13 80 F8 FF FF  7F F8 FF FF 7F 73 30 39  91E..........s09
0130: 32 00 80 66 00 80 74 83  05 01 74 83 05 01 74 6C  2..f..t...t...tl
0140: 6B 30 2B 74 83 05 01 18  80 23 66 00 80 74 83 05  k0+t.....#f..t..
0150: 01 74 83 05 01 74 65 6E  30 5C 00 19 80 5C 01 19  .t...ten0\...\..
0160: 80 9A 5B 1A 80 75 83 05  01 75 83 05 01 67 75 73  ..[..u...u...gus
0170: 30 52 13 80 F8 FF FF 7F  F8 FF FF 7F 73 30 39 32  0R..........s092
0180: 45 13 80 F8 FF FF 7F F8  FF FF 7F 73 30 39 33 00  E..........s093.
0190: 80 5B 1B 80 74 83 05 01  74 83 05 01 67 75 73 30  .[..t...t...gus0
01A0: 1C 14 80 2B 74 83 05 01  1C 80 1C 1D 80 27 05 76  ...+t........'.v
01B0: 83 05 01 02 1C 1E 80 27  05 F0 FF FF 7F 13 1C 14  .......'........
01C0: 80 52 13 80 F8 FF FF 7F  F8 FF FF 7F 73 30 39 33  .R..........s093
01D0: 45 13 80 F8 FF FF 7F F8  FF FF 7F 73 30 39 34 00  E..........s094.
01E0: 80 7B 74 83 05 01 BA 74  83 05 01 1F 80 20 80 21  .{t....t..... .!
01F0: 80 22 80 2B 76 83 05 01  23 80 2A 05 76 83 05 01  .".+v...#.*.v...
0200: 2A 05 F0 FF FF 7F 55 13  80 F8 FF FF 7F F8 FF FF  *.....U.........
0210: 7F 73 30 39 34 5B 1A 80  75 83 05 01 75 83 05 01  .s094[..u...u...
0220: 67 75 73 31 1C 14 80 45  13 80 F8 FF FF 7F F8 FF  gus1...E........
0230: FF 7F 73 30 39 35 00 80  1C 16 80 52 13 80 F8 FF  ..s095.....R....
0240: FF 7F F8 FF FF 7F 73 30  39 35 45 13 80 F8 FF FF  ......s095E.....
0250: 7F F8 FF FF 7F 73 30 39  36 00 80 5B 1B 80 74 83  .....s096..[..t.
0260: 05 01 74 83 05 01 67 75  73 31 1C 24 80 45 25 80  ..t...gus1.$.E%.
0270: F8 FF FF 7F F8 FF FF 7F  77 68 6F 30 00 80 45 13  ........who0..E.
0280: 80 F8 FF FF 7F F8 FF FF  7F 64 61 67 65 00 80 55  .........dage..U
0290: 25 80 F8 FF FF 7F F8 FF  FF 7F 77 68 6F 30 55 13  %.........who0U.
02A0: 80 F8 FF FF 7F F8 FF FF  7F 73 30 39 36 6B 69 64  .........s096kid
02B0: 6C 30 75 83 05 01 2F 00  77 83 05 01 4E 00 77 83  l0u.../.w...N.w.
02C0: 05 01 2F 00 7A 83 05 01  27 05 75 83 05 01 02 BA  ../.z...'.u.....
02D0: 74 83 05 01 26 80 27 80  28 80 22 80 BA 75 83 05  t...&.'.(."..u..
02E0: 01 29 80 2A 80 2B 80 2C  80 BA 77 83 05 01 2D 80  .).*.+.,..w...-.
02F0: 2E 80 2F 80 30 80 80 75  83 05 01 80 77 83 05 01  ../.0..u....w...
0300: 80 74 83 05 01 1C 01 80  2C 77 83 05 01 77 83 05  .t......,w...w..
0310: 01 64 65 61 64 5B 31 80  75 83 05 01 75 83 05 01  .dead[1.u...u...
0320: 74 6F 6E 30 53 77 83 05  01 77 83 05 01 64 65 61  ton0Sw...w...dea
0330: 64 45 13 80 F8 FF FF 7F  F8 FF FF 7F 73 30 39 39  dE..........s099
0340: 00 80 1C 14 80 45 25 80  F8 FF FF 7F F8 FF FF 7F  .....E%.........
0350: 77 68 69 31 00 80 5B 1B  80 74 83 05 01 74 83 05  whi1..[..t...t..
0360: 01 67 75 73 32 7C 00 74  83 05 01 2B 74 83 05 01  .gus2|.t...+t...
0370: 32 80 1C 01 80 52 13 80  F8 FF FF 7F F8 FF FF 7F  2....R..........
0380: 73 30 39 39 45 13 80 F8  FF FF 7F F8 FF FF 7F 73  s099E..........s
0390: 31 30 30 00 80 7C 01 74  83 05 01 2B 74 83 05 01  100..|.t...+t...
03A0: 33 80 23 55 13 80 F8 FF  FF 7F F8 FF FF 7F 73 31  3.#U..........s1
03B0: 30 30 1C 24 80 5B 31 80  75 83 05 01 75 83 05 01  00.$.[1.u...u...
03C0: 74 6F 6E 31 BB 34 80 7A  83 05 01 7A 83 05 01 73  ton1.4.z...z...s
03D0: 30 30 30 00 80 45 13 80  F8 FF FF 7F F8 FF FF 7F  000..E..........
03E0: 73 31 30 32 00 80 BA 77  83 05 01 35 80 36 80 37  s102...w...5.6.7
03F0: 80 30 80 1C 15 80 52 13  80 F8 FF FF 7F F8 FF FF  .0....R.........
0400: 7F 73 31 30 32 45 13 80  F8 FF FF 7F F8 FF FF 7F  .s102E..........
0410: 73 31 30 33 00 80 1C 38  80 52 13 80 F8 FF FF 7F  s103...8.R......
0420: F8 FF FF 7F 73 31 30 33  45 13 80 F8 FF FF 7F F8  ....s103E.......
0430: FF FF 7F 73 31 30 34 00  80 1C 01 80 52 13 80 F8  ...s104.....R...
0440: FF FF 7F F8 FF FF 7F 73  31 30 34 45 13 80 F8 FF  .......s104E....
0450: FF 7F F8 FF FF 7F 73 31  30 35 00 80 1C 1E 80 4E  ......s105.....N
0460: 00 7A 83 05 01 80 7A 83  05 01 5B 31 80 7A 83 05  .z....z...[1.z..
0470: 01 7A 83 05 01 74 6F 61  31 BB 34 80 7A 83 05 01  .z...toa1.4.z...
0480: 7A 83 05 01 73 30 30 31  00 80 1C 01 80 27 05 76  z...s001.....'.v
0490: 83 05 01 03 1C 14 80 27  05 F0 FF FF 7F 14 1C 24  .......'.......$
04A0: 80 52 13 80 F8 FF FF 7F  F8 FF FF 7F 73 31 30 35  .R..........s105
04B0: 27 05 74 83 05 01 03 45  13 80 F8 FF FF 7F F8 FF  '.t....E........
04C0: FF 7F 73 31 30 31 00 80  6B 69 64 6C 30 74 83 05  ..s101..kidl0t..
04D0: 01 4E 01 7A 83 05 01 BA  74 83 05 01 39 80 3A 80  .N.z....t...9.:.
04E0: 0E 80 3B 80 80 74 83 05  01 2B 76 83 05 01 3C 80  ..;..t...+v...<.
04F0: 23 2A 05 74 83 05 01 4A  74 83 05 01 75 83 05 01  #*.t...Jt...u...
0500: 79 00 74 83 05 01 74 83  05 01 1C 24 80 2B 74 83  y.t...t....$.+t.
0510: 05 01 3D 80 23 2A 05 76  83 05 01 2A 05 F0 FF FF  ..=.#*.v...*....
0520: 7F 5B 3E 80 75 83 05 01  75 83 05 01 74 6F 6E 32  .[>.u...u...ton2
0530: 52 13 80 F8 FF FF 7F F8  FF FF 7F 73 31 30 31 45  R..........s101E
0540: 13 80 F8 FF FF 7F F8 FF  FF 7F 73 31 30 36 00 80  ..........s106..
0550: 4A F0 FF FF 7F 75 83 05  01 4A 76 83 05 01 75 83  J....u...Jv...u.
0560: 05 01 7B 76 83 05 01 1C  3F 80 52 13 80 F8 FF FF  ..{v....?.R.....
0570: 7F F8 FF FF 7F 73 31 30  36 45 13 80 F8 FF FF 7F  .....s106E......
0580: F8 FF FF 7F 73 31 30 37  00 80 1C 16 80 9F 40 80  ....s107......@.
0590: F8 FF FF 7F F8 FF FF 7F  73 74 72 30 00 80 1C 1D  ........str0....
05A0: 80 9F 40 80 F8 FF FF 7F  F8 FF FF 7F 6B 69 6C 6C  ..@.........kill
05B0: 00 80 1C 1D 80 9F 40 80  F8 FF FF 7F F8 FF FF 7F  ......@.........
05C0: 73 74 72 30 00 80 1C 14  80 9F 40 80 F8 FF FF 7F  str0......@.....
05D0: F8 FF FF 7F 6B 69 6C 6C  00 80 5B 41 80 76 83 05  ....kill..[A.v..
05E0: 01 76 83 05 01 73 68 61  30 1C 14 80 52 13 80 F8  .v...sha0...R...
05F0: FF FF 7F F8 FF FF 7F 73  31 30 37 45 13 80 F8 FF  .......s107E....
0600: FF 7F F8 FF FF 7F 73 31  30 38 00 80 2B 76 83 05  ......s108..+v..
0610: 01 42 80 23 53 76 83 05  01 76 83 05 01 73 68 61  .B.#Sv...v...sha
0620: 30 2B 75 83 05 01 43 80  23 5B 44 80 75 83 05 01  0+u...C.#[D.u...
0630: 75 83 05 01 74 6F 6E 33  45 13 80 F8 FF FF 7F F8  u...ton3E.......
0640: FF FF 7F 74 6F 6E 33 00  80 1C 24 80 52 13 80 F8  ...ton3...$.R...
0650: FF FF 7F F8 FF FF 7F 73  31 30 38 45 13 80 F8 FF  .......s108E....
0660: FF 7F F8 FF FF 7F 73 31  30 39 00 80 1C 16 80 79  ......s109.....y
0670: 00 74 83 05 01 75 83 05  01 2B 75 83 05 01 45 80  .t...u...+u...E.
0680: 23 2B 75 83 05 01 46 80  23 53 75 83 05 01 75 83  #+u...F.#Su...u.
0690: 05 01 74 6F 6E 33 52 13  80 F8 FF FF 7F F8 FF FF  ..ton3R.........
06A0: 7F 73 31 30 39 45 13 80  F8 FF FF 7F F8 FF FF 7F  .s109E..........
06B0: 73 31 31 30 00 80 66 00  80 74 83 05 01 74 83 05  s110..f..t...t..
06C0: 01 74 6C 6B 30 2B 74 83  05 01 47 80 23 66 00 80  .tlk0+t...G.#f..
06D0: 74 83 05 01 74 83 05 01  74 65 6E 30 5D 00 80 01  t...t...ten0]...
06E0: 80 52 13 80 F8 FF FF 7F  F8 FF FF 7F 73 31 31 30  .R..........s110
06F0: 45 13 80 F8 FF FF 7F F8  FF FF 7F 73 31 31 31 00  E..........s111.
0700: 80 27 05 74 83 05 01 04  7C 00 75 83 05 01 2B 75  .'.t....|.u...+u
0710: 83 05 01 48 80 23 5B 44  80 75 83 05 01 75 83 05  ...H.#[D.u...u..
0720: 01 74 6F 6E 34 BB 34 80  75 83 05 01 75 83 05 01  .ton4.4.u...u...
0730: 73 30 30 32 00 80 1C 01  80 52 13 80 F8 FF FF 7F  s002.....R......
0740: F8 FF FF 7F 73 31 31 31  45 13 80 F8 FF FF 7F F8  ....s111E.......
0750: FF FF 7F 73 31 31 32 00  80 1C 24 80 66 49 80 74  ...s112...$.fI.t
0760: 83 05 01 74 83 05 01 73  68 61 30 2B 74 83 05 01  ...t...sha0+t...
0770: 4A 80 23 45 02 80 F8 FF  FF 7F F8 FF FF 7F 66 64  J.#E..........fd
0780: 6F 31 00 80 55 02 80 F8  FF FF 7F F8 FF FF 7F 66  o1..U..........f
0790: 64 6F 31 52 13 80 F8 FF  FF 7F F8 FF FF 7F 73 31  do1R..........s1
07A0: 31 32 6B 69 64 6C 30 75  83 05 01 6B 69 64 6C 30  12kidl0u...kidl0
07B0: 76 83 05 01 6B 69 64 6C  30 74 83 05 01 27 05 74  v...kidl0t...'.t
07C0: 83 05 01 05 4E 01 77 83  05 01 2F 00 79 83 05 01  ....N.w.../.y...
07D0: 4E 00 79 83 05 01 2F 00  78 83 05 01 4E 00 78 83  N.y.../.x...N.x.
07E0: 05 01 BA 79 83 05 01 4B  80 4C 80 4D 80 4E 80 BA  ...y...K.L.M.N..
07F0: 78 83 05 01 4F 80 50 80  51 80 52 80 BA 75 83 05  x...O.P.Q.R..u..
0800: 01 53 80 54 80 55 80 56  80 BA 76 83 05 01 57 80  .S.T.U.V..v...W.
0810: 58 80 59 80 5A 80 BA 74  83 05 01 5B 80 5C 80 5D  X.Y.Z..t...[.\.]
0820: 80 5E 80 BA F0 FF FF 7F  5F 80 60 80 61 80 5A 80  .^......_.`.a.Z.
0830: 80 79 83 05 01 80 78 83  05 01 80 75 83 05 01 80  .y....x....u....
0840: 76 83 05 01 80 74 83 05  01 80 F0 FF FF 7F 81 00  v....t..........
0850: 75 83 05 01 4A 76 83 05  01 79 83 05 01 7B 76 83  u...Jv...y...{v.
0860: 05 01 5B 62 80 78 83 05  01 78 83 05 01 75 64 65  ..[b.x...x...ude
0870: 30 66 49 80 79 83 05 01  79 83 05 01 73 68 61 30  0fI.y...y...sha0
0880: 53 79 83 05 01 79 83 05  01 73 68 61 30 5B 1A 80  Sy...y...sha0[..
0890: 75 83 05 01 75 83 05 01  70 65 69 30 45 13 80 F8  u...u...pei0E...
08A0: FF FF 7F F8 FF FF 7F 73  31 31 33 00 80 1C 14 80  .......s113.....
08B0: 45 02 80 F8 FF FF 7F F8  FF FF 7F 66 64 69 31 00  E..........fdi1.
08C0: 80 55 02 80 F8 FF FF 7F  F8 FF FF 7F 66 64 69 31  .U..........fdi1
08D0: 1C 63 80 52 13 80 F8 FF  FF 7F F8 FF FF 7F 73 31  .c.R..........s1
08E0: 31 33 45 13 80 F8 FF FF  7F F8 FF FF 7F 73 31 31  13E..........s11
08F0: 34 00 80 2B 79 83 05 01  64 80 23 52 13 80 F8 FF  4..+y...d.#R....
0900: FF 7F F8 FF FF 7F 73 31  31 34 45 13 80 F8 FF FF  ......s114E.....
0910: 7F F8 FF FF 7F 73 31 31  35 00 80 2B 78 83 05 01  .....s115..+x...
0920: 65 80 23 2B 79 83 05 01  66 80 23 52 13 80 F8 FF  e.#+y...f.#R....
0930: FF 7F F8 FF FF 7F 73 31  31 35 45 13 80 F8 FF FF  ......s115E.....
0940: 7F F8 FF FF 7F 73 31 31  36 00 80 4A 76 83 05 01  .....s116..Jv...
0950: 78 83 05 01 7B 76 83 05  01 1C 24 80 4A F0 FF FF  x...{v....$.J...
0960: 7F 76 83 05 01 2B 76 83  05 01 67 80 23 5C 00 68  .v...+v...g.#\.h
0970: 80 5C 01 68 80 9A 52 13  80 F8 FF FF 7F F8 FF FF  .\.h..R.........
0980: 7F 73 31 31 36 45 13 80  F8 FF FF 7F F8 FF FF 7F  .s116E..........
0990: 73 31 31 37 00 80 2B 78  83 05 01 69 80 23 52 13  s117..+x...i.#R.
09A0: 80 F8 FF FF 7F F8 FF FF  7F 73 31 31 37 45 13 80  .........s117E..
09B0: F8 FF FF 7F F8 FF FF 7F  73 31 31 38 00 80 2B 76  ........s118..+v
09C0: 83 05 01 6A 80 23 55 13  80 F8 FF FF 7F F8 FF FF  ...j.#U.........
09D0: 7F 73 31 31 38 45 13 80  F8 FF FF 7F F8 FF FF 7F  .s118E..........
09E0: 73 31 31 39 00 80 5B 41  80 76 83 05 01 76 83 05  s119..[A.v...v..
09F0: 01 73 69 74 30 2B 76 83  05 01 6B 80 23 5B 62 80  .sit0+v...k.#[b.
0A00: 78 83 05 01 78 83 05 01  75 64 65 31 2B 78 83 05  x...x...ude1+x..
0A10: 01 6C 80 23 53 78 83 05  01 78 83 05 01 75 64 65  .l.#Sx...x...ude
0A20: 31 5B 41 80 76 83 05 01  76 83 05 01 73 69 74 31  1[A.v...v...sit1
0A30: 52 13 80 F8 FF FF 7F F8  FF FF 7F 73 31 31 39 45  R..........s119E
0A40: 13 80 F8 FF FF 7F F8 FF  FF 7F 73 31 32 30 00 80  ..........s120..
0A50: 4A 74 83 05 01 78 83 05  01 1C 24 80 79 00 78 83  Jt...x....$.y.x.
0A60: 05 01 74 83 05 01 2B 74  83 05 01 6D 80 23 53 76  ..t...+t...m.#Sv
0A70: 83 05 01 76 83 05 01 73  69 74 31 52 13 80 F8 FF  ...v...sit1R....
0A80: FF 7F F8 FF FF 7F 73 31  32 30 45 13 80 F8 FF FF  ......s120E.....
0A90: 7F F8 FF FF 7F 73 31 32  31 00 80 5B 6E 80 76 83  .....s121..[n.v.
0AA0: 05 01 76 83 05 01 74 73  6B 31 4A 78 83 05 01 74  ..v...tsk1Jx...t
0AB0: 83 05 01 66 00 80 74 83  05 01 74 83 05 01 74 6C  ...f..t...t...tl
0AC0: 6B 30 2B 74 83 05 01 6F  80 23 66 00 80 74 83 05  k0+t...o.#f..t..
0AD0: 01 74 83 05 01 74 65 6E  30 1C 24 80 52 13 80 F8  .t...ten0.$.R...
0AE0: FF FF 7F F8 FF FF 7F 73  31 32 31 45 13 80 F8 FF  .......s121E....
0AF0: FF 7F F8 FF FF 7F 73 31  32 32 00 80 5B 62 80 78  ......s122..[b.x
0B00: 83 05 01 78 83 05 01 74  6C 6B 30 2B 78 83 05 01  ...x...tlk0+x...
0B10: 70 80 23 5B 62 80 78 83  05 01 78 83 05 01 74 6C  p.#[b.x...x...tl
0B20: 6B 31 53 78 83 05 01 78  83 05 01 74 6C 6B 31 53  k1Sx...x...tlk1S
0B30: 76 83 05 01 76 83 05 01  74 73 6B 31 52 13 80 F8  v...v...tsk1R...
0B40: FF FF 7F F8 FF FF 7F 73  31 32 32 45 13 80 F8 FF  .......s122E....
0B50: FF 7F F8 FF FF 7F 73 31  32 33 00 80 27 05 78 83  ......s123..'.x.
0B60: 05 01 02 1C 24 80 2B 78  83 05 01 71 80 23 2A 05  ....$.+x...q.#*.
0B70: 78 83 05 01 52 13 80 F8  FF FF 7F F8 FF FF 7F 73  x...R..........s
0B80: 31 32 33 45 13 80 F8 FF  FF 7F F8 FF FF 7F 73 31  123E..........s1
0B90: 32 34 00 80 BA 79 83 05  01 72 80 73 80 74 80 75  24...y...r.s.t.u
0BA0: 80 80 79 83 05 01 66 49  80 79 83 05 01 79 83 05  ..y...fI.y...y..
0BB0: 01 73 68 61 30 5B 6E 80  76 83 05 01 76 83 05 01  .sha0[n.v...v...
0BC0: 74 68 6B 32 6B 69 64 6C  30 78 83 05 01 2B 76 83  thk2kidl0x...+v.
0BD0: 05 01 76 80 23 53 76 83  05 01 76 83 05 01 74 68  ..v.#Sv...v...th
0BE0: 6B 32 52 13 80 F8 FF FF  7F F8 FF FF 7F 73 31 32  k2R..........s12
0BF0: 34 45 13 80 F8 FF FF 7F  F8 FF FF 7F 73 31 32 35  4E..........s125
0C00: 00 80 4A 78 83 05 01 76  83 05 01 2B 78 83 05 01  ..Jx...v...+x...
0C10: 77 80 23 53 79 83 05 01  79 83 05 01 73 68 61 30  w.#Sy...y...sha0
0C20: 52 13 80 F8 FF FF 7F F8  FF FF 7F 73 31 32 35 45  R..........s125E
0C30: 13 80 F8 FF FF 7F F8 FF  FF 7F 73 31 32 36 00 80  ..........s126..
0C40: 4A 76 83 05 01 78 83 05  01 1C 24 80 5B 02 80 76  Jv...x....$.[..v
0C50: 83 05 01 76 83 05 01 74  73 61 30 2B 76 83 05 01  ...v...tsa0+v...
0C60: 78 80 23 2B 76 83 05 01  79 80 23 5B 02 80 76 83  x.#+v...y.#[..v.
0C70: 05 01 76 83 05 01 74 73  61 31 52 13 80 F8 FF FF  ..v...tsa1R.....
0C80: 7F F8 FF FF 7F 73 31 32  36 45 13 80 F8 FF FF 7F  .....s126E......
0C90: F8 FF FF 7F 73 31 32 37  00 80 BA 74 83 05 01 7A  ....s127...t...z
0CA0: 80 7B 80 7C 80 75 80 80  74 83 05 01 2B 78 83 05  .{.|.u..t...+x..
0CB0: 01 7D 80 23 5B 7E 80 78  83 05 01 78 83 05 01 6D  .}.#[~.x...x...m
0CC0: 65 69 30 1C 14 80 52 13  80 F8 FF FF 7F F8 FF FF  ei0...R.........
0CD0: 7F 73 31 32 37 45 13 80  F8 FF FF 7F F8 FF FF 7F  .s127E..........
0CE0: 73 31 32 39 00 80 2B 78  83 05 01 7F 80 23 5B 80  s129..+x.....#[.
0CF0: 80 76 83 05 01 76 83 05  01 6B 65 69 30 2B 76 83  .v...v...kei0+v.
0D00: 05 01 81 80 23 53 76 83  05 01 76 83 05 01 6B 65  ....#Sv...v...ke
0D10: 69 30 52 13 80 F8 FF FF  7F F8 FF FF 7F 73 31 32  i0R..........s12
0D20: 39 45 13 80 F8 FF FF 7F  F8 FF FF 7F 73 31 32 38  9E..........s128
0D30: 00 80 5B 7E 80 78 83 05  01 78 83 05 01 6D 65 69  ..[~.x...x...mei
0D40: 31 4A 76 83 05 01 F0 FF  FF 7F 4A 74 83 05 01 76  1Jv.......Jt...v
0D50: 83 05 01 1C 24 80 2B 76  83 05 01 82 80 23 52 13  ....$.+v.....#R.
0D60: 80 F8 FF FF 7F F8 FF FF  7F 73 31 32 38 45 13 80  .........s128E..
0D70: F8 FF FF 7F F8 FF FF 7F  73 31 33 30 00 80 27 05  ........s130..'.
0D80: 76 83 05 01 04 1C 24 80  27 05 F0 FF FF 7F 15 1C  v.....$.'.......
0D90: 16 80 5D 00 80 01 80 45  02 80 F8 FF FF 7F F8 FF  ..]....E........
0DA0: FF 7F 66 64 6F 31 00 80  55 02 80 F8 FF FF 7F F8  ..fdo1..U.......
0DB0: FF FF 7F 66 64 6F 31 52  13 80 F8 FF FF 7F F8 FF  ...fdo1R........
0DC0: FF 7F 73 31 33 30 5C 00  83 80 5C 01 83 80 9A 46  ..s130\...\....F
0DD0: 00 1C 16 80 45 02 80 F8  FF FF 7F F8 FF FF 7F 66  ....E..........f
0DE0: 64 69 31 00 80 21 00                              di1..!.         
```

#### Opcodes

```
  0: 0x0001 [0x42] SET_CLI_EVENT_CANCEL_DATA()
  1: 0x0002 [0x5D] SET_MUSIC_VOLUME(volume=0*, fade_time=120*)
  2: 0x0007 [0x45] LOAD_SCHEDULED_TASK: Load scheduler "fdo1" with entities [EventEntity, EventEntity], work=[200*, 0*]
  3: 0x0018 [0x55] WAIT_LOAD_SCHEDULER: Wait for scheduler "fdo1" with entities [EventEntity, EventEntity], work=200*
  4: 0x0027 [0x46] CAMERA_CONTROL: Disable user control
  5: 0x0029 [0x38] SET_CLIENT_EVENT_MODE(mode=27*)
  6: 0x002C [0x2F] Derek Karst (ID: 17138548/0x01058374)->Render.Flags0 &= ~0x80000 // Bit 19
  7: 0x0032 [0x2F] Pale Eagle (ID: 17138549/0x01058375)->Render.Flags0 &= ~0x80000 // Bit 19
  8: 0x0038 [0x4E] SET_ENTITY_HIDE_FLAG: Show Pale Eagle (ID: 17138549/0x01058375)
  9: 0x003E [0x2F] Volker (ID: 17138550/0x01058376)->Render.Flags0 &= ~0x80000 // Bit 19
 10: 0x0044 [0x4E] SET_ENTITY_HIDE_FLAG: Show Volker (ID: 17138550/0x01058376)
 11: 0x004A [0xBA] SET_ENTITY_POSITION(entity_id=Derek Karst (ID: 17138548/0x01058374), pos_x=296.351*, pos_z=519.823*, pos_y=-59.999*, direction=350.8째*)
 12: 0x0057 [0xBA] SET_ENTITY_POSITION(entity_id=Pale Eagle (ID: 17138549/0x01058375), pos_x=300.214*, pos_z=509.681*, pos_y=-60.396*, direction=272.5째*)
 13: 0x0064 [0xBA] SET_ENTITY_POSITION(entity_id=Volker (ID: 17138550/0x01058376), pos_x=276.315*, pos_z=519.135*, pos_y=-60.000*, direction=357.6째*)
 14: 0x0071 [0xBA] SET_ENTITY_POSITION(entity_id=LocalPlayer, pos_x=274.490*, pos_z=517.829*, pos_y=-59.838*, direction=350.8째*)
 15: 0x007E [0x80] LOAD_WAIT(entity=Pale Eagle (ID: 17138549/0x01058375))
 16: 0x0083 [0x80] LOAD_WAIT(entity=Volker (ID: 17138550/0x01058376))
 17: 0x0088 [0x80] LOAD_WAIT(entity=LocalPlayer)
 18: 0x008D [0x94] Pale Eagle (ID: 17138549/0x01058375)->Render.Flags3 ^= 0x01
 19: 0x0093 [0x94] Volker (ID: 17138550/0x01058376)->Render.Flags3 ^= 0x01
 20: 0x0099 [0x45] LOAD_SCHEDULED_TASK: Load scheduler "s090" with entities [EventEntity, EventEntity], work=[362*, 0*]
 21: 0x00AA [0x1C] WAIT(15* ticks)
 22: 0x00AD [0x45] LOAD_SCHEDULED_TASK: Load scheduler "fdi1" with entities [EventEntity, EventEntity], work=[200*, 0*]
 23: 0x00BE [0x55] WAIT_LOAD_SCHEDULER: Wait for scheduler "fdi1" with entities [EventEntity, EventEntity], work=200*
 24: 0x00CD [0x1C] WAIT(210* ticks)
 25: 0x00D0 [0x52] END_LOAD_SCHEDULER: End scheduler "s090" with entities [EventEntity, EventEntity], work=362*
 26: 0x00DF [0x45] LOAD_SCHEDULED_TASK: Load scheduler "s091" with entities [EventEntity, EventEntity], work=[362*, 0*]
 27: 0x00F0 [0x4E] SET_ENTITY_HIDE_FLAG: Show Derek Karst (ID: 17138548/0x01058374)
 28: 0x00F6 [0x80] LOAD_WAIT(entity=Derek Karst (ID: 17138548/0x01058374))
 29: 0x00FB [0x27] REQ_SET(priority=0x05, entity_id=Derek Karst (ID: 17138548/0x01058374), tag_num=0x02)
 30: 0x0102 [0x1C] WAIT(60* ticks)
 31: 0x0105 [0x2B] Derek Karst (ID: 17138548/0x01058374) [7966*]:
     "Please excuse my tardiness. I hope you haven't waited long."
 32: 0x010C [0x23] WAIT_FOR_DIALOG_INTERACTION
 33: 0x010D [0x2A] GET_REQ_LEVEL(level=5, entity_id=Derek Karst (ID: 17138548/0x01058374))
 34: 0x0113 [0x52] END_LOAD_SCHEDULER: End scheduler "s091" with entities [EventEntity, EventEntity], work=362*
 35: 0x0122 [0x45] LOAD_SCHEDULED_TASK: Load scheduler "s092" with entities [EventEntity, EventEntity], work=[362*, 0*]
 36: 0x0133 [0x66] LOAD_EXT_SCHEDULER_MAIN: Load scheduler "tlk0" with entities [Derek Karst (ID: 17138548/0x01058374), Derek Karst (ID: 17138548/0x01058374)], work=0*
 37: 0x0142 [0x2B] Derek Karst (ID: 17138548/0x01058374) [7967*]:
     "That young Galka gave me a much-needed wake-up call the other day. I had neglected to see the merit of a candid conversation between ourselves in resolving--"
 38: 0x0149 [0x23] WAIT_FOR_DIALOG_INTERACTION
 39: 0x014A [0x66] LOAD_EXT_SCHEDULER_MAIN: Load scheduler "ten0" with entities [Derek Karst (ID: 17138548/0x01058374), Derek Karst (ID: 17138548/0x01058374)], work=0*
 40: 0x0159 [0x5C] MUSIC_CONTROL: Set Idle (Day) music to song 250*
 41: 0x015D [0x5C] MUSIC_CONTROL: Set Idle (Night) music to song 250*
 42: 0x0161 [0x9A] WAIT_MUSIC_SERVER()
 43: 0x0162 [0x5B] LOAD_EXT_SCHEDULER: Load scheduler "gus0" with entities [Pale Eagle (ID: 17138549/0x01058375), Pale Eagle (ID: 17138549/0x01058375)], work=1385*
 44: 0x0171 [0x52] END_LOAD_SCHEDULER: End scheduler "s092" with entities [EventEntity, EventEntity], work=362*
 45: 0x0180 [0x45] LOAD_SCHEDULED_TASK: Load scheduler "s093" with entities [EventEntity, EventEntity], work=[362*, 0*]
 46: 0x0191 [0x5B] LOAD_EXT_SCHEDULER: Load scheduler "gus0" with entities [Derek Karst (ID: 17138548/0x01058374), Derek Karst (ID: 17138548/0x01058374)], work=1480*
 47: 0x01A0 [0x1C] WAIT(15* ticks)
 48: 0x01A3 [0x2B] Derek Karst (ID: 17138548/0x01058374) [7968*]:
     "Wh-what are you...!?"
 49: 0x01AA [0x1C] WAIT(45* ticks)
 50: 0x01AD [0x27] REQ_SET(priority=0x05, entity_id=Volker (ID: 17138550/0x01058376), tag_num=0x02)
 51: 0x01B4 [0x1C] WAIT(5* ticks)
 52: 0x01B7 [0x27] REQ_SET(priority=0x05, entity_id=LocalPlayer, tag_num=0x13)
 53: 0x01BE [0x1C] WAIT(15* ticks)
 54: 0x01C1 [0x52] END_LOAD_SCHEDULER: End scheduler "s093" with entities [EventEntity, EventEntity], work=362*
 55: 0x01D0 [0x45] LOAD_SCHEDULED_TASK: Load scheduler "s094" with entities [EventEntity, EventEntity], work=[362*, 0*]
 56: 0x01E1 [0x7B] Derek Karst (ID: 17138548/0x01058374) stops talking
 57: 0x01E6 [0xBA] SET_ENTITY_POSITION(entity_id=Derek Karst (ID: 17138548/0x01058374), pos_x=299.966*, pos_z=518.024*, pos_y=-59.881*, direction=89.4째*)
 58: 0x01F3 [0x2B] Volker (ID: 17138550/0x01058376) [7969*]:
     "Chairman, no!"
 59: 0x01FA [0x2A] GET_REQ_LEVEL(level=5, entity_id=Volker (ID: 17138550/0x01058376))
 60: 0x0200 [0x2A] GET_REQ_LEVEL(level=5, entity_id=LocalPlayer)
 61: 0x0206 [0x55] WAIT_LOAD_SCHEDULER: Wait for scheduler "s094" with entities [EventEntity, EventEntity], work=362*
 62: 0x0215 [0x5B] LOAD_EXT_SCHEDULER: Load scheduler "gus1" with entities [Pale Eagle (ID: 17138549/0x01058375), Pale Eagle (ID: 17138549/0x01058375)], work=1385*
 63: 0x0224 [0x1C] WAIT(15* ticks)
 64: 0x0227 [0x45] LOAD_SCHEDULED_TASK: Load scheduler "s095" with entities [EventEntity, EventEntity], work=[362*, 0*]
 65: 0x0238 [0x1C] WAIT(60* ticks)
 66: 0x023B [0x52] END_LOAD_SCHEDULER: End scheduler "s095" with entities [EventEntity, EventEntity], work=362*
 67: 0x024A [0x45] LOAD_SCHEDULED_TASK: Load scheduler "s096" with entities [EventEntity, EventEntity], work=[362*, 0*]
 68: 0x025B [0x5B] LOAD_EXT_SCHEDULER: Load scheduler "gus1" with entities [Derek Karst (ID: 17138548/0x01058374), Derek Karst (ID: 17138548/0x01058374)], work=1480*
 69: 0x026A [0x1C] WAIT(30* ticks)
 70: 0x026D [0x45] LOAD_SCHEDULED_TASK: Load scheduler "who0" with entities [EventEntity, EventEntity], work=[201*, 0*]
 71: 0x027E [0x45] LOAD_SCHEDULED_TASK: Load scheduler "dage" with entities [EventEntity, EventEntity], work=[362*, 0*]
 72: 0x028F [0x55] WAIT_LOAD_SCHEDULER: Wait for scheduler "who0" with entities [EventEntity, EventEntity], work=201*
 73: 0x029E [0x55] WAIT_LOAD_SCHEDULER: Wait for scheduler "s096" with entities [EventEntity, EventEntity], work=362*
 74: 0x02AD [0x6B] STOP_AND_IDLE: Pale Eagle (ID: 17138549/0x01058375) stops current action and resets to idle (animation="idl0")
 75: 0x02B6 [0x2F] Unnamed NPC (ID: 17138551/0x01058377)->Render.Flags0 &= ~0x80000 // Bit 19
 76: 0x02BC [0x4E] SET_ENTITY_HIDE_FLAG: Show Unnamed NPC (ID: 17138551/0x01058377)
 77: 0x02C2 [0x2F] Unnamed NPC (ID: 17138554/0x0105837A)->Render.Flags0 &= ~0x80000 // Bit 19
 78: 0x02C8 [0x27] REQ_SET(priority=0x05, entity_id=Pale Eagle (ID: 17138549/0x01058375), tag_num=0x02)
 79: 0x02CF [0xBA] SET_ENTITY_POSITION(entity_id=Derek Karst (ID: 17138548/0x01058374), pos_x=300.870*, pos_z=516.771*, pos_y=-59.799*, direction=89.4째*)
 80: 0x02DC [0xBA] SET_ENTITY_POSITION(entity_id=Pale Eagle (ID: 17138549/0x01058375), pos_x=298.075*, pos_z=518.292*, pos_y=-60.016*, direction=268.5째*)
 81: 0x02E9 [0xBA] SET_ENTITY_POSITION(entity_id=Unnamed NPC (ID: 17138551/0x01058377), pos_x=297.573*, pos_z=520.628*, pos_y=-60.131*, direction=351.2째*)
 82: 0x02F6 [0x80] LOAD_WAIT(entity=Pale Eagle (ID: 17138549/0x01058375))
 83: 0x02FB [0x80] LOAD_WAIT(entity=Unnamed NPC (ID: 17138551/0x01058377))
 84: 0x0300 [0x80] LOAD_WAIT(entity=Derek Karst (ID: 17138548/0x01058374))
 85: 0x0305 [0x1C] WAIT(120* ticks)
 86: 0x0308 [0x2C] CREATE_SCHEDULER_TASK: Create scheduler "dead" with entities [Unnamed NPC (ID: 17138551/0x01058377), Unnamed NPC (ID: 17138551/0x01058377)]
 87: 0x0315 [0x5B] LOAD_EXT_SCHEDULER: Load scheduler "ton0" with entities [Pale Eagle (ID: 17138549/0x01058375), Pale Eagle (ID: 17138549/0x01058375)], work=1386*
 88: 0x0324 [0x53] WAIT_SCHEDULER_TASK: Wait for scheduler "dead" with entities [Unnamed NPC (ID: 17138551/0x01058377), Unnamed NPC (ID: 17138551/0x01058377)]
 89: 0x0331 [0x45] LOAD_SCHEDULED_TASK: Load scheduler "s099" with entities [EventEntity, EventEntity], work=[362*, 0*]
 90: 0x0342 [0x1C] WAIT(15* ticks)
 91: 0x0345 [0x45] LOAD_SCHEDULED_TASK: Load scheduler "whi1" with entities [EventEntity, EventEntity], work=[201*, 0*]
 92: 0x0356 [0x5B] LOAD_EXT_SCHEDULER: Load scheduler "gus2" with entities [Derek Karst (ID: 17138548/0x01058374), Derek Karst (ID: 17138548/0x01058374)], work=1480*
 93: 0x0365 [0x7C] Derek Karst (ID: 17138548/0x01058374)->Render.Flags2 |= 0x00
 94: 0x036B [0x2B] Derek Karst (ID: 17138548/0x01058374) [7970*]:
     "...?"
 95: 0x0372 [0x1C] WAIT(120* ticks)
 96: 0x0375 [0x52] END_LOAD_SCHEDULER: End scheduler "s099" with entities [EventEntity, EventEntity], work=362*
 97: 0x0384 [0x45] LOAD_SCHEDULED_TASK: Load scheduler "s100" with entities [EventEntity, EventEntity], work=[362*, 0*]
 98: 0x0395 [0x7C] Derek Karst (ID: 17138548/0x01058374)->Render.Flags2 |= 0x01
 99: 0x039B [0x2B] Derek Karst (ID: 17138548/0x01058374) [7971*]:
     "Pale Eagle!"
100: 0x03A2 [0x23] WAIT_FOR_DIALOG_INTERACTION
101: 0x03A3 [0x55] WAIT_LOAD_SCHEDULER: Wait for scheduler "s100" with entities [EventEntity, EventEntity], work=362*
102: 0x03B2 [0x1C] WAIT(30* ticks)
103: 0x03B5 [0x5B] LOAD_EXT_SCHEDULER: Load scheduler "ton1" with entities [Pale Eagle (ID: 17138549/0x01058375), Pale Eagle (ID: 17138549/0x01058375)], work=1386*
104: 0x03C4 [0xBB] LOAD_EVENT_SCHEDULER_ALT: Load scheduler "s000" with entities [Unnamed NPC (ID: 17138554/0x0105837A), Unnamed NPC (ID: 17138554/0x0105837A)], work=[232*, 0*]
105: 0x03D5 [0x45] LOAD_SCHEDULED_TASK: Load scheduler "s102" with entities [EventEntity, EventEntity], work=[362*, 0*]
106: 0x03E6 [0xBA] SET_ENTITY_POSITION(entity_id=Unnamed NPC (ID: 17138551/0x01058377), pos_x=298.142*, pos_z=521.266*, pos_y=-60.252*, direction=351.2째*)
107: 0x03F3 [0x1C] WAIT(210* ticks)
108: 0x03F6 [0x52] END_LOAD_SCHEDULER: End scheduler "s102" with entities [EventEntity, EventEntity], work=362*
109: 0x0405 [0x45] LOAD_SCHEDULED_TASK: Load scheduler "s103" with entities [EventEntity, EventEntity], work=[362*, 0*]
110: 0x0416 [0x1C] WAIT(90* ticks)
111: 0x0419 [0x52] END_LOAD_SCHEDULER: End scheduler "s103" with entities [EventEntity, EventEntity], work=362*
112: 0x0428 [0x45] LOAD_SCHEDULED_TASK: Load scheduler "s104" with entities [EventEntity, EventEntity], work=[362*, 0*]
113: 0x0439 [0x1C] WAIT(120* ticks)
114: 0x043C [0x52] END_LOAD_SCHEDULER: End scheduler "s104" with entities [EventEntity, EventEntity], work=362*
115: 0x044B [0x45] LOAD_SCHEDULED_TASK: Load scheduler "s105" with entities [EventEntity, EventEntity], work=[362*, 0*]
116: 0x045C [0x1C] WAIT(5* ticks)
117: 0x045F [0x4E] SET_ENTITY_HIDE_FLAG: Show Unnamed NPC (ID: 17138554/0x0105837A)
118: 0x0465 [0x80] LOAD_WAIT(entity=Unnamed NPC (ID: 17138554/0x0105837A))
119: 0x046A [0x5B] LOAD_EXT_SCHEDULER: Load scheduler "toa1" with entities [Unnamed NPC (ID: 17138554/0x0105837A), Unnamed NPC (ID: 17138554/0x0105837A)], work=1386*
120: 0x0479 [0xBB] LOAD_EVENT_SCHEDULER_ALT: Load scheduler "s001" with entities [Unnamed NPC (ID: 17138554/0x0105837A), Unnamed NPC (ID: 17138554/0x0105837A)], work=[232*, 0*]
121: 0x048A [0x1C] WAIT(120* ticks)
122: 0x048D [0x27] REQ_SET(priority=0x05, entity_id=Volker (ID: 17138550/0x01058376), tag_num=0x03)
123: 0x0494 [0x1C] WAIT(15* ticks)
124: 0x0497 [0x27] REQ_SET(priority=0x05, entity_id=LocalPlayer, tag_num=0x14)
125: 0x049E [0x1C] WAIT(30* ticks)
126: 0x04A1 [0x52] END_LOAD_SCHEDULER: End scheduler "s105" with entities [EventEntity, EventEntity], work=362*
127: 0x04B0 [0x27] REQ_SET(priority=0x05, entity_id=Derek Karst (ID: 17138548/0x01058374), tag_num=0x03)
128: 0x04B7 [0x45] LOAD_SCHEDULED_TASK: Load scheduler "s101" with entities [EventEntity, EventEntity], work=[362*, 0*]
129: 0x04C8 [0x6B] STOP_AND_IDLE: Derek Karst (ID: 17138548/0x01058374) stops current action and resets to idle (animation="idl0")
130: 0x04D1 [0x4E] SET_ENTITY_HIDE_FLAG: Hide Unnamed NPC (ID: 17138554/0x0105837A)
131: 0x04D7 [0xBA] SET_ENTITY_POSITION(entity_id=Derek Karst (ID: 17138548/0x01058374), pos_x=299.828*, pos_z=519.490*, pos_y=-60.000*, direction=191.9째*)
132: 0x04E4 [0x80] LOAD_WAIT(entity=Derek Karst (ID: 17138548/0x01058374))
133: 0x04E9 [0x2B] Volker (ID: 17138550/0x01058376) [7972*]:
     "Senator! Chairman! Are you harmed!?"
134: 0x04F0 [0x23] WAIT_FOR_DIALOG_INTERACTION
135: 0x04F1 [0x2A] GET_REQ_LEVEL(level=5, entity_id=Derek Karst (ID: 17138548/0x01058374))
136: 0x04F7 [0x4A] Derek Karst (ID: 17138548/0x01058374) looks at Pale Eagle (ID: 17138549/0x01058375)
137: 0x0500 [0x79] Derek Karst (ID: 17138548/0x01058374) looks at Derek Karst (ID: 17138548/0x01058374) (Basic look)
138: 0x050A [0x1C] WAIT(30* ticks)
139: 0x050D [0x2B] Derek Karst (ID: 17138548/0x01058374) [7973*]:
     "I'm fine, but the chairman...he has been stabbed."
140: 0x0514 [0x23] WAIT_FOR_DIALOG_INTERACTION
141: 0x0515 [0x2A] GET_REQ_LEVEL(level=5, entity_id=Volker (ID: 17138550/0x01058376))
142: 0x051B [0x2A] GET_REQ_LEVEL(level=5, entity_id=LocalPlayer)
143: 0x0521 [0x5B] LOAD_EXT_SCHEDULER: Load scheduler "ton2" with entities [Pale Eagle (ID: 17138549/0x01058375), Pale Eagle (ID: 17138549/0x01058375)], work=2204*
144: 0x0530 [0x52] END_LOAD_SCHEDULER: End scheduler "s101" with entities [EventEntity, EventEntity], work=362*
145: 0x053F [0x45] LOAD_SCHEDULED_TASK: Load scheduler "s106" with entities [EventEntity, EventEntity], work=[362*, 0*]
146: 0x0550 [0x4A] LocalPlayer looks at Pale Eagle (ID: 17138549/0x01058375)
147: 0x0559 [0x4A] Volker (ID: 17138550/0x01058376) looks at Pale Eagle (ID: 17138549/0x01058375)
148: 0x0562 [0x7B] Volker (ID: 17138550/0x01058376) stops talking
149: 0x0567 [0x1C] WAIT(270* ticks)
150: 0x056A [0x52] END_LOAD_SCHEDULER: End scheduler "s106" with entities [EventEntity, EventEntity], work=362*
151: 0x0579 [0x45] LOAD_SCHEDULED_TASK: Load scheduler "s107" with entities [EventEntity, EventEntity], work=[362*, 0*]
152: 0x058A [0x1C] WAIT(60* ticks)
153: 0x058D [0x9F] LOAD_SCHEDULED_TASK_ALT: Load scheduler "str0" with entities [EventEntity, EventEntity], work=[127*, 0*]
154: 0x059E [0x1C] WAIT(45* ticks)
155: 0x05A1 [0x9F] LOAD_SCHEDULED_TASK_ALT: Load scheduler "kill" with entities [EventEntity, EventEntity], work=[127*, 0*]
156: 0x05B2 [0x1C] WAIT(45* ticks)
157: 0x05B5 [0x9F] LOAD_SCHEDULED_TASK_ALT: Load scheduler "str0" with entities [EventEntity, EventEntity], work=[127*, 0*]
158: 0x05C6 [0x1C] WAIT(15* ticks)
159: 0x05C9 [0x9F] LOAD_SCHEDULED_TASK_ALT: Load scheduler "kill" with entities [EventEntity, EventEntity], work=[127*, 0*]
160: 0x05DA [0x5B] LOAD_EXT_SCHEDULER: Load scheduler "sha0" with entities [Volker (ID: 17138550/0x01058376), Volker (ID: 17138550/0x01058376)], work=1395*
161: 0x05E9 [0x1C] WAIT(15* ticks)
162: 0x05EC [0x52] END_LOAD_SCHEDULER: End scheduler "s107" with entities [EventEntity, EventEntity], work=362*
163: 0x05FB [0x45] LOAD_SCHEDULED_TASK: Load scheduler "s108" with entities [EventEntity, EventEntity], work=[362*, 0*]
164: 0x060C [0x2B] Volker (ID: 17138550/0x01058376) [7974*]:
     "Chairman!"
165: 0x0613 [0x23] WAIT_FOR_DIALOG_INTERACTION
166: 0x0614 [0x53] WAIT_SCHEDULER_TASK: Wait for scheduler "sha0" with entities [Volker (ID: 17138550/0x01058376), Volker (ID: 17138550/0x01058376)]
167: 0x0621 [0x2B] Pale Eagle (ID: 17138549/0x01058375) [7975*]:
     "Th...this is nothing to worry about..."
168: 0x0628 [0x23] WAIT_FOR_DIALOG_INTERACTION
169: 0x0629 [0x5B] LOAD_EXT_SCHEDULER: Load scheduler "ton3" with entities [Pale Eagle (ID: 17138549/0x01058375), Pale Eagle (ID: 17138549/0x01058375)], work=2205*
170: 0x0638 [0x45] LOAD_SCHEDULED_TASK: Load scheduler "ton3" with entities [EventEntity, EventEntity], work=[362*, 0*]
171: 0x0649 [0x1C] WAIT(30* ticks)
172: 0x064C [0x52] END_LOAD_SCHEDULER: End scheduler "s108" with entities [EventEntity, EventEntity], work=362*
173: 0x065B [0x45] LOAD_SCHEDULED_TASK: Load scheduler "s109" with entities [EventEntity, EventEntity], work=[362*, 0*]
174: 0x066C [0x1C] WAIT(60* ticks)
175: 0x066F [0x79] Derek Karst (ID: 17138548/0x01058374) looks at Pale Eagle (ID: 17138549/0x01058375) (Basic look)
176: 0x0679 [0x2B] Pale Eagle (ID: 17138549/0x01058375) [7976*]:
     "Senator... Now is not the time for civil war. Our citizens... They must be united..."
177: 0x0680 [0x23] WAIT_FOR_DIALOG_INTERACTION
178: 0x0681 [0x2B] Pale Eagle (ID: 17138549/0x01058375) [7977*]:
     "I am prepared to resign from my post. You need but request it..."
179: 0x0688 [0x23] WAIT_FOR_DIALOG_INTERACTION
180: 0x0689 [0x53] WAIT_SCHEDULER_TASK: Wait for scheduler "ton3" with entities [Pale Eagle (ID: 17138549/0x01058375), Pale Eagle (ID: 17138549/0x01058375)]
181: 0x0696 [0x52] END_LOAD_SCHEDULER: End scheduler "s109" with entities [EventEntity, EventEntity], work=362*
182: 0x06A5 [0x45] LOAD_SCHEDULED_TASK: Load scheduler "s110" with entities [EventEntity, EventEntity], work=[362*, 0*]
183: 0x06B6 [0x66] LOAD_EXT_SCHEDULER_MAIN: Load scheduler "tlk0" with entities [Derek Karst (ID: 17138548/0x01058374), Derek Karst (ID: 17138548/0x01058374)], work=0*
184: 0x06C5 [0x2B] Derek Karst (ID: 17138548/0x01058374) [7978*]:
     "You need say nothing more, Pale Eagle. Your selfless act this day more than proves your innocence."
185: 0x06CC [0x23] WAIT_FOR_DIALOG_INTERACTION
186: 0x06CD [0x66] LOAD_EXT_SCHEDULER_MAIN: Load scheduler "ten0" with entities [Derek Karst (ID: 17138548/0x01058374), Derek Karst (ID: 17138548/0x01058374)], work=0*
187: 0x06DC [0x5D] SET_MUSIC_VOLUME(volume=0*, fade_time=120*)
188: 0x06E1 [0x52] END_LOAD_SCHEDULER: End scheduler "s110" with entities [EventEntity, EventEntity], work=362*
189: 0x06F0 [0x45] LOAD_SCHEDULED_TASK: Load scheduler "s111" with entities [EventEntity, EventEntity], work=[362*, 0*]
190: 0x0701 [0x27] REQ_SET(priority=0x05, entity_id=Derek Karst (ID: 17138548/0x01058374), tag_num=0x04)
191: 0x0708 [0x7C] Pale Eagle (ID: 17138549/0x01058375)->Render.Flags2 |= 0x00
192: 0x070E [0x2B] Pale Eagle (ID: 17138549/0x01058375) [7979*]:
     "..."
193: 0x0715 [0x23] WAIT_FOR_DIALOG_INTERACTION
194: 0x0716 [0x5B] LOAD_EXT_SCHEDULER: Load scheduler "ton4" with entities [Pale Eagle (ID: 17138549/0x01058375), Pale Eagle (ID: 17138549/0x01058375)], work=2205*
195: 0x0725 [0xBB] LOAD_EVENT_SCHEDULER_ALT: Load scheduler "s002" with entities [Pale Eagle (ID: 17138549/0x01058375), Pale Eagle (ID: 17138549/0x01058375)], work=[232*, 0*]
196: 0x0736 [0x1C] WAIT(120* ticks)
197: 0x0739 [0x52] END_LOAD_SCHEDULER: End scheduler "s111" with entities [EventEntity, EventEntity], work=362*
198: 0x0748 [0x45] LOAD_SCHEDULED_TASK: Load scheduler "s112" with entities [EventEntity, EventEntity], work=[362*, 0*]
199: 0x0759 [0x1C] WAIT(30* ticks)
200: 0x075C [0x66] LOAD_EXT_SCHEDULER_MAIN: Load scheduler "sha0" with entities [Derek Karst (ID: 17138548/0x01058374), Derek Karst (ID: 17138548/0x01058374)], work=9*
201: 0x076B [0x2B] Derek Karst (ID: 17138548/0x01058374) [7980*]:
     "Pale Eagle! Be strong now!"
202: 0x0772 [0x23] WAIT_FOR_DIALOG_INTERACTION
203: 0x0773 [0x45] LOAD_SCHEDULED_TASK: Load scheduler "fdo1" with entities [EventEntity, EventEntity], work=[200*, 0*]
204: 0x0784 [0x55] WAIT_LOAD_SCHEDULER: Wait for scheduler "fdo1" with entities [EventEntity, EventEntity], work=200*
205: 0x0793 [0x52] END_LOAD_SCHEDULER: End scheduler "s112" with entities [EventEntity, EventEntity], work=362*
206: 0x07A2 [0x6B] STOP_AND_IDLE: Pale Eagle (ID: 17138549/0x01058375) stops current action and resets to idle (animation="idl0")
207: 0x07AB [0x6B] STOP_AND_IDLE: Volker (ID: 17138550/0x01058376) stops current action and resets to idle (animation="idl0")
208: 0x07B4 [0x6B] STOP_AND_IDLE: Derek Karst (ID: 17138548/0x01058374) stops current action and resets to idle (animation="idl0")
209: 0x07BD [0x27] REQ_SET(priority=0x05, entity_id=Derek Karst (ID: 17138548/0x01058374), tag_num=0x05)
210: 0x07C4 [0x4E] SET_ENTITY_HIDE_FLAG: Hide Unnamed NPC (ID: 17138551/0x01058377)
211: 0x07CA [0x2F] Nicolaus (ID: 17138553/0x01058379)->Render.Flags0 &= ~0x80000 // Bit 19
212: 0x07D0 [0x4E] SET_ENTITY_HIDE_FLAG: Show Nicolaus (ID: 17138553/0x01058379)
213: 0x07D6 [0x2F] Klara (ID: 17138552/0x01058378)->Render.Flags0 &= ~0x80000 // Bit 19
214: 0x07DC [0x4E] SET_ENTITY_HIDE_FLAG: Show Klara (ID: 17138552/0x01058378)
215: 0x07E2 [0xBA] SET_ENTITY_POSITION(entity_id=Nicolaus (ID: 17138553/0x01058379), pos_x=311.447*, pos_z=512.572*, pos_y=-60.153*, direction=56.3째*)
216: 0x07EF [0xBA] SET_ENTITY_POSITION(entity_id=Klara (ID: 17138552/0x01058378), pos_x=312.143*, pos_z=514.448*, pos_y=-60.123*, direction=73.9째*)
217: 0x07FC [0xBA] SET_ENTITY_POSITION(entity_id=Pale Eagle (ID: 17138549/0x01058375), pos_x=313.066*, pos_z=511.525*, pos_y=-60.156*, direction=226.8째*)
218: 0x0809 [0xBA] SET_ENTITY_POSITION(entity_id=Volker (ID: 17138550/0x01058376), pos_x=309.215*, pos_z=513.185*, pos_y=-59.836*, direction=348.2째*)
219: 0x0816 [0xBA] SET_ENTITY_POSITION(entity_id=Derek Karst (ID: 17138548/0x01058374), pos_x=313.819*, pos_z=513.573*, pos_y=-60.041*, direction=133.2째*)
220: 0x0823 [0xBA] SET_ENTITY_POSITION(entity_id=LocalPlayer, pos_x=309.068*, pos_z=511.320*, pos_y=-59.849*, direction=348.2째*)
221: 0x0830 [0x80] LOAD_WAIT(entity=Nicolaus (ID: 17138553/0x01058379))
222: 0x0835 [0x80] LOAD_WAIT(entity=Klara (ID: 17138552/0x01058378))
223: 0x083A [0x80] LOAD_WAIT(entity=Pale Eagle (ID: 17138549/0x01058375))
224: 0x083F [0x80] LOAD_WAIT(entity=Volker (ID: 17138550/0x01058376))
225: 0x0844 [0x80] LOAD_WAIT(entity=Derek Karst (ID: 17138548/0x01058374))
226: 0x0849 [0x80] LOAD_WAIT(entity=LocalPlayer)
227: 0x084E [0x81] SET_ENTITY_BLINKING(blink_flag=0x00, entity=Pale Eagle (ID: 17138549/0x01058375))
228: 0x0854 [0x4A] Volker (ID: 17138550/0x01058376) looks at Nicolaus (ID: 17138553/0x01058379)
229: 0x085D [0x7B] Volker (ID: 17138550/0x01058376) stops talking
230: 0x0862 [0x5B] LOAD_EXT_SCHEDULER: Load scheduler "ude0" with entities [Klara (ID: 17138552/0x01058378), Klara (ID: 17138552/0x01058378)], work=1346*
231: 0x0871 [0x66] LOAD_EXT_SCHEDULER_MAIN: Load scheduler "sha0" with entities [Nicolaus (ID: 17138553/0x01058379), Nicolaus (ID: 17138553/0x01058379)], work=9*
232: 0x0880 [0x53] WAIT_SCHEDULER_TASK: Wait for scheduler "sha0" with entities [Nicolaus (ID: 17138553/0x01058379), Nicolaus (ID: 17138553/0x01058379)]
233: 0x088D [0x5B] LOAD_EXT_SCHEDULER: Load scheduler "pei0" with entities [Pale Eagle (ID: 17138549/0x01058375), Pale Eagle (ID: 17138549/0x01058375)], work=1385*
234: 0x089C [0x45] LOAD_SCHEDULED_TASK: Load scheduler "s113" with entities [EventEntity, EventEntity], work=[362*, 0*]
235: 0x08AD [0x1C] WAIT(15* ticks)
236: 0x08B0 [0x45] LOAD_SCHEDULED_TASK: Load scheduler "fdi1" with entities [EventEntity, EventEntity], work=[200*, 0*]
237: 0x08C1 [0x55] WAIT_LOAD_SCHEDULER: Wait for scheduler "fdi1" with entities [EventEntity, EventEntity], work=200*
238: 0x08D0 [0x1C] WAIT(180* ticks)
239: 0x08D3 [0x52] END_LOAD_SCHEDULER: End scheduler "s113" with entities [EventEntity, EventEntity], work=362*
240: 0x08E2 [0x45] LOAD_SCHEDULED_TASK: Load scheduler "s114" with entities [EventEntity, EventEntity], work=[362*, 0*]
241: 0x08F3 [0x2B] Nicolaus (ID: 17138553/0x01058379) [7981*]:
     "He's in a serious but stable condition. Fortunately, the assassin missed his vital spots."
242: 0x08FA [0x23] WAIT_FOR_DIALOG_INTERACTION
243: 0x08FB [0x52] END_LOAD_SCHEDULER: End scheduler "s114" with entities [EventEntity, EventEntity], work=362*
244: 0x090A [0x45] LOAD_SCHEDULED_TASK: Load scheduler "s115" with entities [EventEntity, EventEntity], work=[362*, 0*]
245: 0x091B [0x2B] Klara (ID: 17138552/0x01058378) [7982*]:
     "Can he be transported back to the infirmary?"
246: 0x0922 [0x23] WAIT_FOR_DIALOG_INTERACTION
247: 0x0923 [0x2B] Nicolaus (ID: 17138553/0x01058379) [7983*]:
     "It would be too risky to move the patient now. We must first treat the poison used by the Tonberry, and then wait for the symptoms to subside."
248: 0x092A [0x23] WAIT_FOR_DIALOG_INTERACTION
249: 0x092B [0x52] END_LOAD_SCHEDULER: End scheduler "s115" with entities [EventEntity, EventEntity], work=362*
250: 0x093A [0x45] LOAD_SCHEDULED_TASK: Load scheduler "s116" with entities [EventEntity, EventEntity], work=[362*, 0*]
251: 0x094B [0x4A] Volker (ID: 17138550/0x01058376) looks at Klara (ID: 17138552/0x01058378)
252: 0x0954 [0x7B] Volker (ID: 17138550/0x01058376) stops talking
253: 0x0959 [0x1C] WAIT(30* ticks)
254: 0x095C [0x4A] LocalPlayer looks at Volker (ID: 17138550/0x01058376)
255: 0x0965 [0x2B] Volker (ID: 17138550/0x01058376) [7984*]:
     "Captain, what of Five Moons?"
256: 0x096C [0x23] WAIT_FOR_DIALOG_INTERACTION
257: 0x096D [0x5C] MUSIC_CONTROL: Set Idle (Day) music to song 161*
258: 0x0971 [0x5C] MUSIC_CONTROL: Set Idle (Night) music to song 161*
259: 0x0975 [0x9A] WAIT_MUSIC_SERVER()
260: 0x0976 [0x52] END_LOAD_SCHEDULER: End scheduler "s116" with entities [EventEntity, EventEntity], work=362*
261: 0x0985 [0x45] LOAD_SCHEDULED_TASK: Load scheduler "s117" with entities [EventEntity, EventEntity], work=[362*, 0*]
262: 0x0996 [0x2B] Klara (ID: 17138552/0x01058378) [7985*]:
     "He has escaped detainment..."
263: 0x099D [0x23] WAIT_FOR_DIALOG_INTERACTION
264: 0x099E [0x52] END_LOAD_SCHEDULER: End scheduler "s117" with entities [EventEntity, EventEntity], work=362*
265: 0x09AD [0x45] LOAD_SCHEDULED_TASK: Load scheduler "s118" with entities [EventEntity, EventEntity], work=[362*, 0*]
266: 0x09BE [0x2B] Volker (ID: 17138550/0x01058376) [7986*]:
     "What!?"
267: 0x09C5 [0x23] WAIT_FOR_DIALOG_INTERACTION
268: 0x09C6 [0x55] WAIT_LOAD_SCHEDULER: Wait for scheduler "s118" with entities [EventEntity, EventEntity], work=362*
269: 0x09D5 [0x45] LOAD_SCHEDULED_TASK: Load scheduler "s119" with entities [EventEntity, EventEntity], work=[362*, 0*]
270: 0x09E6 [0x5B] LOAD_EXT_SCHEDULER: Load scheduler "sit0" with entities [Volker (ID: 17138550/0x01058376), Volker (ID: 17138550/0x01058376)], work=1395*
271: 0x09F5 [0x2B] Volker (ID: 17138550/0x01058376) [7987*]:
     "That fool! How are we supposed to lessen his charges if he keeps incriminating himself!?"
272: 0x09FC [0x23] WAIT_FOR_DIALOG_INTERACTION
273: 0x09FD [0x5B] LOAD_EXT_SCHEDULER: Load scheduler "ude1" with entities [Klara (ID: 17138552/0x01058378), Klara (ID: 17138552/0x01058378)], work=1346*
274: 0x0A0C [0x2B] Klara (ID: 17138552/0x01058378) [7988*]:
     "Zeid is out searching for him as we speak, but thus far has been unable to track him down."
275: 0x0A13 [0x23] WAIT_FOR_DIALOG_INTERACTION
276: 0x0A14 [0x53] WAIT_SCHEDULER_TASK: Wait for scheduler "ude1" with entities [Klara (ID: 17138552/0x01058378), Klara (ID: 17138552/0x01058378)]
277: 0x0A21 [0x5B] LOAD_EXT_SCHEDULER: Load scheduler "sit1" with entities [Volker (ID: 17138550/0x01058376), Volker (ID: 17138550/0x01058376)], work=1395*
278: 0x0A30 [0x52] END_LOAD_SCHEDULER: End scheduler "s119" with entities [EventEntity, EventEntity], work=362*
279: 0x0A3F [0x45] LOAD_SCHEDULED_TASK: Load scheduler "s120" with entities [EventEntity, EventEntity], work=[362*, 0*]
280: 0x0A50 [0x4A] Derek Karst (ID: 17138548/0x01058374) looks at Klara (ID: 17138552/0x01058378)
281: 0x0A59 [0x1C] WAIT(30* ticks)
282: 0x0A5C [0x79] Klara (ID: 17138552/0x01058378) looks at Derek Karst (ID: 17138548/0x01058374) (Basic look)
283: 0x0A66 [0x2B] Derek Karst (ID: 17138548/0x01058374) [7989*]:
     "Five Moons... That is the young Galka with whom I spoke?"
284: 0x0A6D [0x23] WAIT_FOR_DIALOG_INTERACTION
285: 0x0A6E [0x53] WAIT_SCHEDULER_TASK: Wait for scheduler "sit1" with entities [Volker (ID: 17138550/0x01058376), Volker (ID: 17138550/0x01058376)]
286: 0x0A7B [0x52] END_LOAD_SCHEDULER: End scheduler "s120" with entities [EventEntity, EventEntity], work=362*
287: 0x0A8A [0x45] LOAD_SCHEDULED_TASK: Load scheduler "s121" with entities [EventEntity, EventEntity], work=[362*, 0*]
288: 0x0A9B [0x5B] LOAD_EXT_SCHEDULER: Load scheduler "tsk1" with entities [Volker (ID: 17138550/0x01058376), Volker (ID: 17138550/0x01058376)], work=1397*
289: 0x0AAA [0x4A] Klara (ID: 17138552/0x01058378) looks at Derek Karst (ID: 17138548/0x01058374)
290: 0x0AB3 [0x66] LOAD_EXT_SCHEDULER_MAIN: Load scheduler "tlk0" with entities [Derek Karst (ID: 17138548/0x01058374), Derek Karst (ID: 17138548/0x01058374)], work=0*
291: 0x0AC2 [0x2B] Derek Karst (ID: 17138548/0x01058374) [7990*]:
     "My reconciliation with Pale Eagle was made possible thanks to him. I will do everything in my power to mitigate his charges."
292: 0x0AC9 [0x23] WAIT_FOR_DIALOG_INTERACTION
293: 0x0ACA [0x66] LOAD_EXT_SCHEDULER_MAIN: Load scheduler "ten0" with entities [Derek Karst (ID: 17138548/0x01058374), Derek Karst (ID: 17138548/0x01058374)], work=0*
294: 0x0AD9 [0x1C] WAIT(30* ticks)
295: 0x0ADC [0x52] END_LOAD_SCHEDULER: End scheduler "s121" with entities [EventEntity, EventEntity], work=362*
296: 0x0AEB [0x45] LOAD_SCHEDULED_TASK: Load scheduler "s122" with entities [EventEntity, EventEntity], work=[362*, 0*]
297: 0x0AFC [0x5B] LOAD_EXT_SCHEDULER: Load scheduler "tlk0" with entities [Klara (ID: 17138552/0x01058378), Klara (ID: 17138552/0x01058378)], work=1346*
298: 0x0B0B [0x2B] Klara (ID: 17138552/0x01058378) [7991*]:
     "Thank you, Your Excellency. Your reassurance means a lot to us."
299: 0x0B12 [0x23] WAIT_FOR_DIALOG_INTERACTION
300: 0x0B13 [0x5B] LOAD_EXT_SCHEDULER: Load scheduler "tlk1" with entities [Klara (ID: 17138552/0x01058378), Klara (ID: 17138552/0x01058378)], work=1346*
301: 0x0B22 [0x53] WAIT_SCHEDULER_TASK: Wait for scheduler "tlk1" with entities [Klara (ID: 17138552/0x01058378), Klara (ID: 17138552/0x01058378)]
302: 0x0B2F [0x53] WAIT_SCHEDULER_TASK: Wait for scheduler "tsk1" with entities [Volker (ID: 17138550/0x01058376), Volker (ID: 17138550/0x01058376)]
303: 0x0B3C [0x52] END_LOAD_SCHEDULER: End scheduler "s122" with entities [EventEntity, EventEntity], work=362*
304: 0x0B4B [0x45] LOAD_SCHEDULED_TASK: Load scheduler "s123" with entities [EventEntity, EventEntity], work=[362*, 0*]
305: 0x0B5C [0x27] REQ_SET(priority=0x05, entity_id=Klara (ID: 17138552/0x01058378), tag_num=0x02)
306: 0x0B63 [0x1C] WAIT(30* ticks)
307: 0x0B66 [0x2B] Klara (ID: 17138552/0x01058378) [7992*]:
     "Our priority now is to locate Five Moons before the military police do. Who knows what other charges they'll venture to add to his already hefty list."
308: 0x0B6D [0x23] WAIT_FOR_DIALOG_INTERACTION
309: 0x0B6E [0x2A] GET_REQ_LEVEL(level=5, entity_id=Klara (ID: 17138552/0x01058378))
310: 0x0B74 [0x52] END_LOAD_SCHEDULER: End scheduler "s123" with entities [EventEntity, EventEntity], work=362*
311: 0x0B83 [0x45] LOAD_SCHEDULED_TASK: Load scheduler "s124" with entities [EventEntity, EventEntity], work=[362*, 0*]
312: 0x0B94 [0xBA] SET_ENTITY_POSITION(entity_id=Nicolaus (ID: 17138553/0x01058379), pos_x=311.819*, pos_z=511.910*, pos_y=-60.258*, direction=274.6째*)
313: 0x0BA1 [0x80] LOAD_WAIT(entity=Nicolaus (ID: 17138553/0x01058379))
314: 0x0BA6 [0x66] LOAD_EXT_SCHEDULER_MAIN: Load scheduler "sha0" with entities [Nicolaus (ID: 17138553/0x01058379), Nicolaus (ID: 17138553/0x01058379)], work=9*
315: 0x0BB5 [0x5B] LOAD_EXT_SCHEDULER: Load scheduler "thk2" with entities [Volker (ID: 17138550/0x01058376), Volker (ID: 17138550/0x01058376)], work=1397*
316: 0x0BC4 [0x6B] STOP_AND_IDLE: Klara (ID: 17138552/0x01058378) stops current action and resets to idle (animation="idl0")
317: 0x0BCD [0x2B] Volker (ID: 17138550/0x01058376) [7993*]:
     "Grauberg... I have a feeling he's headed for Grauberg."
318: 0x0BD4 [0x23] WAIT_FOR_DIALOG_INTERACTION
319: 0x0BD5 [0x53] WAIT_SCHEDULER_TASK: Wait for scheduler "thk2" with entities [Volker (ID: 17138550/0x01058376), Volker (ID: 17138550/0x01058376)]
320: 0x0BE2 [0x52] END_LOAD_SCHEDULER: End scheduler "s124" with entities [EventEntity, EventEntity], work=362*
321: 0x0BF1 [0x45] LOAD_SCHEDULED_TASK: Load scheduler "s125" with entities [EventEntity, EventEntity], work=[362*, 0*]
322: 0x0C02 [0x4A] Klara (ID: 17138552/0x01058378) looks at Volker (ID: 17138550/0x01058376)
323: 0x0C0B [0x2B] Klara (ID: 17138552/0x01058378) [7994*]:
     "What makes you think so?"
324: 0x0C12 [0x23] WAIT_FOR_DIALOG_INTERACTION
325: 0x0C13 [0x53] WAIT_SCHEDULER_TASK: Wait for scheduler "sha0" with entities [Nicolaus (ID: 17138553/0x01058379), Nicolaus (ID: 17138553/0x01058379)]
326: 0x0C20 [0x52] END_LOAD_SCHEDULER: End scheduler "s125" with entities [EventEntity, EventEntity], work=362*
327: 0x0C2F [0x45] LOAD_SCHEDULED_TASK: Load scheduler "s126" with entities [EventEntity, EventEntity], work=[362*, 0*]
328: 0x0C40 [0x4A] Volker (ID: 17138550/0x01058376) looks at Klara (ID: 17138552/0x01058378)
329: 0x0C49 [0x1C] WAIT(30* ticks)
330: 0x0C4C [0x5B] LOAD_EXT_SCHEDULER: Load scheduler "tsa0" with entities [Volker (ID: 17138550/0x01058376), Volker (ID: 17138550/0x01058376)], work=200*
331: 0x0C5B [0x2B] Volker (ID: 17138550/0x01058376) [7995*]:
     "Up there in the hills is an ancestral shrine where Galka pay respects to those who gave their lives in the war against the Antica."
332: 0x0C62 [0x23] WAIT_FOR_DIALOG_INTERACTION
333: 0x0C63 [0x2B] Volker (ID: 17138550/0x01058376) [7996*]:
     "Five Moons himself once told me how all Galka adults go there to report momentous undertakings to those who have gone before them."
334: 0x0C6A [0x23] WAIT_FOR_DIALOG_INTERACTION
335: 0x0C6B [0x5B] LOAD_EXT_SCHEDULER: Load scheduler "tsa1" with entities [Volker (ID: 17138550/0x01058376), Volker (ID: 17138550/0x01058376)], work=200*
336: 0x0C7A [0x52] END_LOAD_SCHEDULER: End scheduler "s126" with entities [EventEntity, EventEntity], work=362*
337: 0x0C89 [0x45] LOAD_SCHEDULED_TASK: Load scheduler "s127" with entities [EventEntity, EventEntity], work=[362*, 0*]
338: 0x0C9A [0xBA] SET_ENTITY_POSITION(entity_id=Derek Karst (ID: 17138548/0x01058374), pos_x=312.635*, pos_z=513.579*, pos_y=-60.114*, direction=274.6째*)
339: 0x0CA7 [0x80] LOAD_WAIT(entity=Derek Karst (ID: 17138548/0x01058374))
340: 0x0CAC [0x2B] Klara (ID: 17138552/0x01058378) [7997*]:
     "I see. It certainly warrants an investigation."
341: 0x0CB3 [0x23] WAIT_FOR_DIALOG_INTERACTION
342: 0x0CB4 [0x5B] LOAD_EXT_SCHEDULER: Load scheduler "mei0" with entities [Klara (ID: 17138552/0x01058378), Klara (ID: 17138552/0x01058378)], work=1348*
343: 0x0CC3 [0x1C] WAIT(15* ticks)
344: 0x0CC6 [0x52] END_LOAD_SCHEDULER: End scheduler "s127" with entities [EventEntity, EventEntity], work=362*
345: 0x0CD5 [0x45] LOAD_SCHEDULED_TASK: Load scheduler "s129" with entities [EventEntity, EventEntity], work=[362*, 0*]
346: 0x0CE6 [0x2B] Klara (ID: 17138552/0x01058378) [7998*]:
     "Volker, you are to head to Grauberg immediately. I will remain here with Nicolaus and tend to Chairman Pale Eagle."
347: 0x0CED [0x23] WAIT_FOR_DIALOG_INTERACTION
348: 0x0CEE [0x5B] LOAD_EXT_SCHEDULER: Load scheduler "kei0" with entities [Volker (ID: 17138550/0x01058376), Volker (ID: 17138550/0x01058376)], work=1396*
349: 0x0CFD [0x2B] Volker (ID: 17138550/0x01058376) [7999*]:
     "Understood!"
350: 0x0D04 [0x23] WAIT_FOR_DIALOG_INTERACTION
351: 0x0D05 [0x53] WAIT_SCHEDULER_TASK: Wait for scheduler "kei0" with entities [Volker (ID: 17138550/0x01058376), Volker (ID: 17138550/0x01058376)]
352: 0x0D12 [0x52] END_LOAD_SCHEDULER: End scheduler "s129" with entities [EventEntity, EventEntity], work=362*
353: 0x0D21 [0x45] LOAD_SCHEDULED_TASK: Load scheduler "s128" with entities [EventEntity, EventEntity], work=[362*, 0*]
354: 0x0D32 [0x5B] LOAD_EXT_SCHEDULER: Load scheduler "mei1" with entities [Klara (ID: 17138552/0x01058378), Klara (ID: 17138552/0x01058378)], work=1348*
355: 0x0D41 [0x4A] Volker (ID: 17138550/0x01058376) looks at LocalPlayer
356: 0x0D4A [0x4A] Derek Karst (ID: 17138548/0x01058374) looks at Volker (ID: 17138550/0x01058376)
357: 0x0D53 [0x1C] WAIT(30* ticks)
358: 0x0D56 [0x2B] Volker (ID: 17138550/0x01058376) [8000*]:
     "<Player>, come with me!"
359: 0x0D5D [0x23] WAIT_FOR_DIALOG_INTERACTION
360: 0x0D5E [0x52] END_LOAD_SCHEDULER: End scheduler "s128" with entities [EventEntity, EventEntity], work=362*
361: 0x0D6D [0x45] LOAD_SCHEDULED_TASK: Load scheduler "s130" with entities [EventEntity, EventEntity], work=[362*, 0*]
362: 0x0D7E [0x27] REQ_SET(priority=0x05, entity_id=Volker (ID: 17138550/0x01058376), tag_num=0x04)
363: 0x0D85 [0x1C] WAIT(30* ticks)
364: 0x0D88 [0x27] REQ_SET(priority=0x05, entity_id=LocalPlayer, tag_num=0x15)
365: 0x0D8F [0x1C] WAIT(60* ticks)
366: 0x0D92 [0x5D] SET_MUSIC_VOLUME(volume=0*, fade_time=120*)
367: 0x0D97 [0x45] LOAD_SCHEDULED_TASK: Load scheduler "fdo1" with entities [EventEntity, EventEntity], work=[200*, 0*]
368: 0x0DA8 [0x55] WAIT_LOAD_SCHEDULER: Wait for scheduler "fdo1" with entities [EventEntity, EventEntity], work=200*
369: 0x0DB7 [0x52] END_LOAD_SCHEDULER: End scheduler "s130" with entities [EventEntity, EventEntity], work=362*
370: 0x0DC6 [0x5C] MUSIC_CONTROL: Set Idle (Day) music to song 253*
371: 0x0DCA [0x5C] MUSIC_CONTROL: Set Idle (Night) music to song 253*
372: 0x0DCE [0x9A] WAIT_MUSIC_SERVER()
373: 0x0DCF [0x46] CAMERA_CONTROL: Restore default settings
374: 0x0DD1 [0x1C] WAIT(60* ticks)
375: 0x0DD4 [0x45] LOAD_SCHEDULED_TASK: Load scheduler "fdi1" with entities [EventEntity, EventEntity], work=[200*, 0*]
376: 0x0DE5 [0x21] END_EVENT
377: 0x0DE6 [0x00] END_REQSTACK()
```

### Event 5

#### Metadata

| Field        | Value      |
|--------------|------------|
| Entrypoint   | 0x0DE7     |
| Data Size    | 2938 bytes |
| Instructions | 342        |

```
      00 01 02 03 04 05 06 07  08 09 0A 0B 0C 0D 0E 0F
      -- -- -- -- -- -- -- --  -- -- -- -- -- -- -- --
0DE0:                      42  5D 00 80 01 80 45 02 80         B]....E..
0DF0: F8 FF FF 7F F8 FF FF 7F  66 64 6F 31 00 80 55 02  ........fdo1..U.
0E00: 80 F8 FF FF 7F F8 FF FF  7F 66 64 6F 31 46 01 38  .........fdo1F.8
0E10: 03 80 1C 84 80 34 85 80  77 86 80 84 80 1C 84 80  .....4..w.......
0E20: 2F 00 78 83 05 01 4E 00  78 83 05 01 2F 00 7B 83  /.x...N.x.../.{.
0E30: 05 01 4E 00 7B 83 05 01  2F 00 79 83 05 01 4E 00  ..N.{.../.y...N.
0E40: 79 83 05 01 2F 00 76 83  05 01 4E 00 76 83 05 01  y.../.v...N.v...
0E50: 2F 00 7C 83 05 01 2F 00  7E 83 05 01 2F 00 7F 83  /.|.../.~.../...
0E60: 05 01 2F 00 80 83 05 01  2F 00 81 83 05 01 BA F0  ../...../.......
0E70: FF FF 7F 87 80 88 80 89  80 8A 80 BA 78 83 05 01  ............x...
0E80: 8B 80 8C 80 8D 80 8E 80  BA 7B 83 05 01 8F 80 90  .........{......
0E90: 80 91 80 92 80 BA 79 83  05 01 93 80 94 80 95 80  ......y.........
0EA0: 96 80 BA 76 83 05 01 97  80 98 80 99 80 9A 80 BA  ...v............
0EB0: 7C 83 05 01 9B 80 9C 80  9D 80 9E 80 BA 7E 83 05  |............~..
0EC0: 01 9F 80 A0 80 A1 80 9E  80 BA 7F 83 05 01 A2 80  ................
0ED0: A3 80 A4 80 A5 80 BA 80  83 05 01 A6 80 A7 80 A8  ................
0EE0: 80 9E 80 BA 81 83 05 01  A9 80 AA 80 AB 80 9E 80  ................
0EF0: 80 F0 FF FF 7F 80 78 83  05 01 80 7B 83 05 01 80  ......x....{....
0F00: 79 83 05 01 80 76 83 05  01 5C 00 AC 80 5C 01 AC  y....v...\...\..
0F10: 80 9A 27 05 78 83 05 01  04 1C 14 80 27 05 7B 83  ..'.x.......'.{.
0F20: 05 01 02 1C AD 80 27 05  76 83 05 01 06 1C 1E 80  ......'.v.......
0F30: 27 05 79 83 05 01 03 45  AE 80 F8 FF FF 7F F8 FF  '.y....E........
0F40: FF 7F 73 30 36 33 00 80  1C 14 80 45 02 80 F8 FF  ..s063.....E....
0F50: FF 7F F8 FF FF 7F 66 64  69 31 00 80 55 02 80 F8  ......fdi1..U...
0F60: FF FF 7F F8 FF FF 7F 66  64 69 31 2B 78 83 05 01  .......fdi1+x...
0F70: AF 80 23 2A 05 78 83 05  01 52 AE 80 F8 FF FF 7F  ..#*.x...R......
0F80: F8 FF FF 7F 73 30 36 33  45 AE 80 F8 FF FF 7F F8  ....s063E.......
0F90: FF FF 7F 73 30 36 34 00  80 5B 62 80 78 83 05 01  ...s064..[b.x...
0FA0: 78 83 05 01 74 6C 6B 30  2B 78 83 05 01 B0 80 23  x...tlk0+x.....#
0FB0: 5B 62 80 78 83 05 01 78  83 05 01 74 6C 6B 31 4E  [b.x...x...tlk1N
0FC0: 00 7C 83 05 01 4E 00 7E  83 05 01 4E 00 7F 83 05  .|...N.~...N....
0FD0: 01 4E 00 80 83 05 01 4E  00 81 83 05 01 80 7C 83  .N.....N......|.
0FE0: 05 01 80 7E 83 05 01 80  7F 83 05 01 80 80 83 05  ...~............
0FF0: 01 80 81 83 05 01 27 05  7C 83 05 01 02 1C 14 80  ......'.|.......
1000: 27 05 7E 83 05 01 02 1C  AD 80 27 05 7F 83 05 01  '.~.......'.....
1010: 02 1C 1E 80 27 05 80 83  05 01 02 1C 1E 80 27 05  ....'.........'.
1020: 81 83 05 01 02 1C 24 80  52 AE 80 F8 FF FF 7F F8  ......$.R.......
1030: FF FF 7F 73 30 36 34 45  AE 80 F8 FF FF 7F F8 FF  ...s064E........
1040: FF 7F 73 30 36 35 00 80  1D B1 80 23 2A 05 7C 83  ..s065.....#*.|.
1050: 05 01 2A 05 7E 83 05 01  2A 05 7F 83 05 01 2A 05  ..*.~...*.....*.
1060: 80 83 05 01 2A 05 81 83  05 01 52 AE 80 F8 FF FF  ....*.....R.....
1070: 7F F8 FF FF 7F 73 30 36  35 45 AE 80 F8 FF FF 7F  .....s065E......
1080: F8 FF FF 7F 73 30 36 36  00 80 4A 7C 83 05 01 79  ....s066..J|...y
1090: 83 05 01 4A 7E 83 05 01  79 83 05 01 4A 7F 83 05  ...J~...y...J...
10A0: 01 79 83 05 01 4A 80 83  05 01 79 83 05 01 4A 81  .y...J....y...J.
10B0: 83 05 01 79 83 05 01 79  00 79 83 05 01 7B 83 05  ...y...y.y...{..
10C0: 01 2B 79 83 05 01 B2 80  23 1C 24 80 52 AE 80 F8  .+y.....#.$.R...
10D0: FF FF 7F F8 FF FF 7F 73  30 36 36 45 AE 80 F8 FF  .......s066E....
10E0: FF 7F F8 FF FF 7F 73 30  36 37 00 80 6E 7C 83 05  ......s067..n|..
10F0: 01 B3 80 99 7C 83 05 01  BA 7B 83 05 01 B4 80 B5  ....|....{......
1100: 80 B6 80 8A 80 4A 79 83  05 01 7C 83 05 01 4A 78  .....Jy...|...Jx
1110: 83 05 01 7C 83 05 01 4A  76 83 05 01 7C 83 05 01  ...|...Jv...|...
1120: 79 00 78 83 05 01 78 83  05 01 2B 7C 83 05 01 B7  y.x...x...+|....
1130: 80 23 1C 24 80 52 AE 80  F8 FF FF 7F F8 FF FF 7F  .#.$.R..........
1140: 73 30 36 37 45 AE 80 F8  FF FF 7F F8 FF FF 7F 73  s067E..........s
1150: 30 36 38 00 80 4E 01 F0  FF FF 7F BA F0 FF FF 7F  068..N..........
1160: B8 80 B9 80 BA 80 BB 80  2B 79 83 05 01 BC 80 23  ........+y.....#
1170: 6E 7C 83 05 01 00 80 99  7C 83 05 01 2B 7C 83 05  n|......|...+|..
1180: 01 BD 80 23 52 AE 80 F8  FF FF 7F F8 FF FF 7F 73  ...#R..........s
1190: 30 36 38 45 AE 80 F8 FF  FF 7F F8 FF FF 7F 73 30  068E..........s0
11A0: 36 39 00 80 27 05 78 83  05 01 05 4A 7C 83 05 01  69..'.x....J|...
11B0: 78 83 05 01 4A 7E 83 05  01 78 83 05 01 4A 7F 83  x...J~...x...J..
11C0: 05 01 78 83 05 01 4A 80  83 05 01 78 83 05 01 4A  ..x...J....x...J
11D0: 81 83 05 01 78 83 05 01  2B 78 83 05 01 BE 80 23  ....x...+x.....#
11E0: 2A 05 78 83 05 01 52 AE  80 F8 FF FF 7F F8 FF FF  *.x...R.........
11F0: 7F 73 30 36 39 45 AE 80  F8 FF FF 7F F8 FF FF 7F  .s069E..........
1200: 73 30 37 30 00 80 5B 62  80 78 83 05 01 78 83 05  s070..[b.x...x..
1210: 01 74 6C 6B 30 2B 78 83  05 01 BF 80 23 2B 78 83  .tlk0+x.....#+x.
1220: 05 01 C0 80 23 52 AE 80  F8 FF FF 7F F8 FF FF 7F  ....#R..........
1230: 73 30 37 30 45 AE 80 F8  FF FF 7F F8 FF FF 7F 73  s070E..........s
1240: 30 37 31 00 80 66 C1 80  7C 83 05 01 7C 83 05 01  071..f..|...|...
1250: 74 6C 6B 30 4E 00 F0 FF  FF 7F BA 7B 83 05 01 C2  tlk0N......{....
1260: 80 C3 80 C4 80 C5 80 80  F0 FF FF 7F 4A F0 FF FF  ............J...
1270: 7F 7C 83 05 01 2B 7C 83  05 01 C6 80 23 1C 24 80  .|...+|.....#.$.
1280: 52 AE 80 F8 FF FF 7F F8  FF FF 7F 73 30 37 31 45  R..........s071E
1290: AE 80 F8 FF FF 7F F8 FF  FF 7F 73 30 37 32 00 80  ..........s072..
12A0: BA 7E 83 05 01 C7 80 C8  80 C9 80 CA 80 6B 69 64  .~...........kid
12B0: 6C 30 7C 83 05 01 2B 78  83 05 01 CB 80 23 80 7E  l0|...+x.....#.~
12C0: 83 05 01 52 AE 80 F8 FF  FF 7F F8 FF FF 7F 73 30  ...R..........s0
12D0: 37 32 45 AE 80 F8 FF FF  7F F8 FF FF 7F 73 30 37  72E..........s07
12E0: 33 00 80 5B 62 80 78 83  05 01 78 83 05 01 74 6C  3..[b.x...x...tl
12F0: 6B 31 2B 78 83 05 01 CC  80 23 6E 7C 83 05 01 CD  k1+x.....#n|....
1300: 80 99 7C 83 05 01 2B 7C  83 05 01 CE 80 23 52 AE  ..|...+|.....#R.
1310: 80 F8 FF FF 7F F8 FF FF  7F 73 30 37 33 45 AE 80  .........s073E..
1320: F8 FF FF 7F F8 FF FF 7F  73 30 37 34 00 80 79 00  ........s074..y.
1330: 7C 83 05 01 79 83 05 01  2B 7C 83 05 01 CF 80 23  |...y...+|.....#
1340: 52 AE 80 F8 FF FF 7F F8  FF FF 7F 73 30 37 34 45  R..........s074E
1350: AE 80 F8 FF FF 7F F8 FF  FF 7F 73 30 37 35 00 80  ..........s075..
1360: 27 05 79 83 05 01 04 7B  7C 83 05 01 7B 7E 83 05  '.y....{|...{~..
1370: 01 1C D0 80 52 AE 80 F8  FF FF 7F F8 FF FF 7F 73  ....R..........s
1380: 30 37 35 45 AE 80 F8 FF  FF 7F F8 FF FF 7F 73 30  075E..........s0
1390: 37 36 00 80 BA 7F 83 05  01 D1 80 D2 80 D3 80 D4  76..............
13A0: 80 4E 01 78 83 05 01 BA  78 83 05 01 D5 80 D6 80  .N.x....x.......
13B0: D7 80 D8 80 2A 05 79 83  05 01 4A 7C 83 05 01 79  ....*.y...J|...y
13C0: 83 05 01 4A 79 83 05 01  7C 83 05 01 4A 7F 83 05  ...Jy...|...J...
13D0: 01 76 83 05 01 4A 76 83  05 01 7F 83 05 01 79 00  .v...Jv.......y.
13E0: 80 83 05 01 7C 83 05 01  1C 24 80 5B 02 80 76 83  ....|....$.[..v.
13F0: 05 01 76 83 05 01 74 6C  61 30 66 C1 80 7F 83 05  ..v...tla0f.....
1400: 01 7F 83 05 01 74 68 6B  31 79 00 7E 83 05 01 79  .....thk1y.~...y
1410: 83 05 01 66 00 80 79 83  05 01 79 83 05 01 74 6C  ...f..y...y...tl
1420: 6B 30 2B 79 83 05 01 D9  80 23 66 00 80 79 83 05  k0+y.....#f..y..
1430: 01 79 83 05 01 74 65 6E  30 52 AE 80 F8 FF FF 7F  .y...ten0R......
1440: F8 FF FF 7F 73 30 37 36  45 AE 80 F8 FF FF 7F F8  ....s076E.......
1450: FF FF 7F 73 30 37 37 00  80 79 00 7E 83 05 01 7C  ...s077..y.~...|
1460: 83 05 01 6E 7C 83 05 01  DA 80 99 7C 83 05 01 2B  ...n|......|...+
1470: 7C 83 05 01 DB 80 23 52  AE 80 F8 FF FF 7F F8 FF  |.....#R........
1480: FF 7F 73 30 37 37 45 AE  80 F8 FF FF 7F F8 FF FF  ..s077E.........
1490: 7F 73 30 37 38 00 80 27  05 7C 83 05 01 03 2B 7C  .s078..'.|....+|
14A0: 83 05 01 DC 80 23 2A 05  7C 83 05 01 52 AE 80 F8  .....#*.|...R...
14B0: FF FF 7F F8 FF FF 7F 73  30 37 38 45 AE 80 F8 FF  .......s078E....
14C0: FF 7F F8 FF FF 7F 73 30  37 39 00 80 1C 24 80 2B  ......s079...$.+
14D0: 7C 83 05 01 DD 80 23 52  AE 80 F8 FF FF 7F F8 FF  |.....#R........
14E0: FF 7F 73 30 37 39 45 AE  80 F8 FF FF 7F F8 FF FF  ..s079E.........
14F0: 7F 73 30 38 30 00 80 5B  DE 80 7C 83 05 01 7C 83  .s080..[..|...|.
1500: 05 01 7A 64 30 30 45 DF  80 F8 FF FF 7F F8 FF FF  ..zd00E.........
1510: 7F 7A 64 30 30 00 80 2B  7C 83 05 01 E0 80 23 53  .zd00..+|.....#S
1520: 7C 83 05 01 7C 83 05 01  7A 64 30 30 5B E1 80 7B  |...|...zd00[..{
1530: 83 05 01 7B 83 05 01 75  64 73 30 52 AE 80 F8 FF  ...{...uds0R....
1540: FF 7F F8 FF FF 7F 73 30  38 30 45 AE 80 F8 FF FF  ......s080E.....
1550: 7F F8 FF FF 7F 73 30 38  31 00 80 4E 01 80 83 05  .....s081..N....
1560: 01 BA 80 83 05 01 E2 80  E3 80 E4 80 D8 80 4E 01  ..............N.
1570: 81 83 05 01 7C 00 7B 83  05 01 2B 7B 83 05 01 E5  ....|.{...+{....
1580: 80 23 7C 01 7B 83 05 01  53 7B 83 05 01 7B 83 05  .#|.{...S{...{..
1590: 01 75 64 73 30 52 AE 80  F8 FF FF 7F F8 FF FF 7F  .uds0R..........
15A0: 73 30 38 31 45 AE 80 F8  FF FF 7F F8 FF FF 7F 73  s081E..........s
15B0: 30 38 32 00 80 5B DE 80  7C 83 05 01 7C 83 05 01  082..[..|...|...
15C0: 7A 64 30 31 45 DF 80 F8  FF FF 7F F8 FF FF 7F 7A  zd01E..........z
15D0: 64 30 31 00 80 4E 00 81  83 05 01 BA 7F 83 05 01  d01..N..........
15E0: E6 80 E7 80 E8 80 E9 80  BA 76 83 05 01 EA 80 EB  .........v......
15F0: 80 EC 80 ED 80 BA 81 83  05 01 EE 80 EF 80 F0 80  ................
1600: D4 80 2B 7C 83 05 01 F1  80 23 80 7F 83 05 01 80  ..+|.....#......
1610: 76 83 05 01 80 81 83 05  01 53 7C 83 05 01 7C 83  v........S|...|.
1620: 05 01 7A 64 30 31 52 AE  80 F8 FF FF 7F F8 FF FF  ..zd01R.........
1630: 7F 73 30 38 32 45 AE 80  F8 FF FF 7F F8 FF FF 7F  .s082E..........
1640: 73 30 38 33 00 80 6B 69  64 6C 30 7C 83 05 01 27  s083..kidl0|...'
1650: 05 7C 83 05 01 04 2B 7C  83 05 01 F2 80 23 2A 05  .|....+|.....#*.
1660: 7C 83 05 01 52 AE 80 F8  FF FF 7F F8 FF FF 7F 73  |...R..........s
1670: 30 38 33 45 AE 80 F8 FF  FF 7F F8 FF FF 7F 73 30  083E..........s0
1680: 38 34 00 80 24 F3 80 00  80 00 80 25 02 00 10 84  84..$......%....
1690: 80 00 FC 16 52 AE 80 F8  FF FF 7F F8 FF FF 7F 73  ....R..........s
16A0: 30 38 34 45 AE 80 F8 FF  FF 7F F8 FF FF 7F 73 30  084E..........s0
16B0: 38 35 00 80 5B F4 80 7C  83 05 01 7C 83 05 01 74  85..[..|...|...t
16C0: 6C 68 30 2B 7C 83 05 01  F5 80 23 53 7C 83 05 01  lh0+|.....#S|...
16D0: 7C 83 05 01 74 6C 68 30  5B F4 80 7C 83 05 01 7C  |...tlh0[..|...|
16E0: 83 05 01 74 6C 68 31 52  AE 80 F8 FF FF 7F F8 FF  ...tlh1R........
16F0: FF 7F 73 30 38 35 01 73  16 01 FC 16 7B F0 FF FF  ..s085.s....{...
1700: 7F 52 AE 80 F8 FF FF 7F  F8 FF FF 7F 73 30 38 34  .R..........s084
1710: 45 AE 80 F8 FF FF 7F F8  FF FF 7F 73 30 38 36 00  E..........s086.
1720: 80 29 05 F0 FF FF 7F 16  4A F0 FF FF 7F 7C 83 05  .)......J....|..
1730: 01 4A 7C 83 05 01 F0 FF  FF 7F 1C 24 80 6E 7C 83  .J|........$.n|.
1740: 05 01 CD 80 99 7C 83 05  01 2B 7C 83 05 01 F6 80  .....|...+|.....
1750: 23 52 AE 80 F8 FF FF 7F  F8 FF FF 7F 73 30 38 36  #R..........s086
1760: 45 AE 80 F8 FF FF 7F F8  FF FF 7F 73 30 38 37 00  E..........s087.
1770: 80 66 C1 80 7C 83 05 01  7C 83 05 01 74 68 6B 31  .f..|...|...thk1
1780: 4E 00 78 83 05 01 4E 00  80 83 05 01 6B 69 64 6C  N.x...N.....kidl
1790: 30 76 83 05 01 6B 69 64  6C 30 7F 83 05 01 2B 7C  0v...kidl0....+|
17A0: 83 05 01 F7 80 23 53 7C  83 05 01 7C 83 05 01 74  .....#S|...|...t
17B0: 68 6B 31 80 78 83 05 01  80 80 83 05 01 52 AE 80  hk1.x........R..
17C0: F8 FF FF 7F F8 FF FF 7F  73 30 38 37 45 AE 80 F8  ........s087E...
17D0: FF FF 7F F8 FF FF 7F 73  30 38 38 00 80 2B 79 83  .......s088..+y.
17E0: 05 01 F8 80 23 5B 62 80  78 83 05 01 78 83 05 01  ....#[b.x...x...
17F0: 74 6C 6B 30 52 AE 80 F8  FF FF 7F F8 FF FF 7F 73  tlk0R..........s
1800: 30 38 38 45 AE 80 F8 FF  FF 7F F8 FF FF 7F 73 31  088E..........s1
1810: 38 35 00 80 4A 7F 83 05  01 78 83 05 01 4A 81 83  85..J....x...J..
1820: 05 01 78 83 05 01 4A 76  83 05 01 78 83 05 01 4A  ..x...Jv...x...J
1830: 7C 83 05 01 78 83 05 01  4A 79 83 05 01 78 83 05  |...x...Jy...x..
1840: 01 4A 7E 83 05 01 78 83  05 01 4A F0 FF FF 7F 78  .J~...x...J....x
1850: 83 05 01 2B 78 83 05 01  F9 80 23 1C 24 80 5B FA  ...+x.....#.$.[.
1860: 80 7B 83 05 01 7B 83 05  01 79 65 73 30 66 FB 80  .{...{...yes0f..
1870: 79 83 05 01 79 83 05 01  6B 62 61 32 6E 7C 83 05  y...y...kba2n|..
1880: 01 FC 80 99 7C 83 05 01  6E F0 FF FF 7F FC 80 99  ....|...n.......
1890: F0 FF FF 7F 52 AE 80 F8  FF FF 7F F8 FF FF 7F 73  ....R..........s
18A0: 31 38 35 45 AE 80 F8 FF  FF 7F F8 FF FF 7F 73 30  185E..........s0
18B0: 38 39 00 80 5B 62 80 78  83 05 01 78 83 05 01 74  89..[b.x...x...t
18C0: 6C 6B 31 5B 80 80 76 83  05 01 76 83 05 01 6B 65  lk1[..v...v...ke
18D0: 69 30 6E 7E 83 05 01 FC  80 99 7E 83 05 01 6E 7F  i0n~......~...n.
18E0: 83 05 01 FC 80 99 7F 83  05 01 6E 80 83 05 01 FC  ..........n.....
18F0: 80 99 80 83 05 01 6E 81  83 05 01 FC 80 99 81 83  ......n.........
1900: 05 01 55 AE 80 F8 FF FF  7F F8 FF FF 7F 73 30 38  ..U..........s08
