# 17138550 - Volker

## Common Data

| Field            | Value                        |
|------------------|------------------------------|
| Zone             | North Gustaberg [S] (ID: 88) |
| Block Size       | 472 bytes                    |
| Total Events     | 16                           |
| References Count | 38                           |

## List of Events

| Event ID                   | Entrypoint   |   Size |   Instructions |
|----------------------------|--------------|--------|----------------|
| [65535](#event-65535)      | 0x0000       |      1 |              1 |
| [4](#event-4)              | 0x0001       |      7 |              2 |
| [65535.1](#event-655351)   | 0x0008       |     14 |              4 |
| [65535.2](#event-655352)   | 0x0016       |     14 |              4 |
| [65535.3](#event-655353)   | 0x0024       |     14 |              4 |
| [5](#event-5)              | 0x0032       |      7 |              2 |
| [65535.4](#event-655354)   | 0x0039       |     22 |              6 |
| [6](#event-6)              | 0x004F       |      7 |              2 |
| [65535.5](#event-655355)   | 0x0056       |     14 |              4 |
| [65535.6](#event-655356)   | 0x0064       |     14 |              4 |
| [65535.7](#event-655357)   | 0x0072       |     14 |              4 |
| [13](#event-13)            | 0x0080       |     11 |              3 |
| [65535.8](#event-655358)   | 0x008B       |     26 |              7 |
| [65535.9](#event-655359)   | 0x00A5       |     16 |              5 |
| [65535.10](#event-6553510) | 0x00B5       |     52 |             10 |
| [65535.11](#event-6553511) | 0x00E9       |      5 |              2 |

## DAT References (imed_data)

|   Index | Hex Value   |   Dec Value |
|---------|-------------|-------------|
|       0 | 0x0028      |          40 |
|       1 | 0x43E4D     |      278093 |
|       2 | 0x7EC3F     |      519231 |
|       3 | 0xFFFF15A1  |  4294907297 |
|       4 | 0x48637     |      296503 |
|       5 | 0x7F269     |      520809 |
|       6 | 0xFFFF14FA  |  4294907130 |
|       7 | 0x4A320     |      303904 |
|       8 | 0x7F6CA     |      521930 |
|       9 | 0xFFFF14DC  |  4294907100 |
|      10 | 0x290E5     |      168165 |
|      11 | 0x36EFD     |      225021 |
|      12 | 0xFFFFA255  |  4294943317 |
|      13 | 0x001E      |          30 |
|      14 | 0x000D      |          13 |
|      15 | 0x18589     |       99721 |
|      16 | 0x6A60      |       27232 |
|      17 | 0xFFFFFFA8  |  4294967208 |
|      18 | 0x1840B     |       99339 |
|      19 | 0x9B4C      |       39756 |
|      20 | 0x007C      |         124 |
|      21 | 0x1BB0C     |      113420 |
|      22 | 0x50A2      |       20642 |
|      23 | 0x0963      |        2403 |
|      24 | 0xFFFC728F  |  4294734479 |
|      25 | 0x17B9B     |       97179 |
|      26 | 0x0000      |           0 |
|      27 | 0xFFFC7121  |  4294734113 |
|      28 | 0x1C628     |      116264 |
|      29 | 0xFFFFFE38  |  4294966840 |
|      30 | 0x2664C     |      157260 |
|      31 | 0x00B4      |         180 |
|      32 | 0x5CECF     |      380623 |
|      33 | 0x0900      |        2304 |
|      34 | 0x0BC3      |        3011 |
|      35 | 0x299DC     |      170460 |
|      36 | 0x0001      |           1 |
|      37 | 0x08CC      |        2252 |

## Events

### Event 65535

#### Metadata

| Field        | Value   |
|--------------|---------|
| Entrypoint   | 0x0000  |
| Data Size    | 1 bytes |
| Instructions | 1       |

```
      00 01 02 03 04 05 06 07  08 09 0A 0B 0C 0D 0E 0F
      -- -- -- -- -- -- -- --  -- -- -- -- -- -- -- --
0000: 00                                                .               
```

#### Opcodes

```
  0: 0x0000 [0x00] END_REQSTACK()
```

### Event 4

#### Metadata

| Field        | Value   |
|--------------|---------|
| Entrypoint   | 0x0001  |
| Data Size    | 7 bytes |
| Instructions | 2       |

```
      00 01 02 03 04 05 06 07  08 09 0A 0B 0C 0D 0E 0F
      -- -- -- -- -- -- -- --  -- -- -- -- -- -- -- --
0000:    92 01 F8 FF FF 7F 00                            .......        
```

#### Opcodes

```
  0: 0x0001 [0x92] EventEntity->Render.Flags3 ^= 0x01
  1: 0x0007 [0x00] END_REQSTACK()
```

### Event 65535.1

#### Metadata

| Field        | Value    |
|--------------|----------|
| Entrypoint   | 0x0008   |
| Data Size    | 14 bytes |
| Instructions | 4        |

```
      00 01 02 03 04 05 06 07  08 09 0A 0B 0C 0D 0E 0F
      -- -- -- -- -- -- -- --  -- -- -- -- -- -- -- --
0000:                          32 00 80 1F 00 01 80 02          2.......
0010: 80 03 80 1F 01 00                                 ......          
```

#### Opcodes

```
  0: 0x0008 [0x32] ExtData[1]->MainSpeed = 40* * 0.1
  1: 0x000B [0x1F] MOVE_ENTITY: EventEntity moves to X=278.093*, Z=519.231*, Y=-59.999*
  2: 0x0013 [0x1F] MOVE_ENTITY: Update entity position (mode=1)
  3: 0x0015 [0x00] END_REQSTACK()
```

### Event 65535.2

#### Metadata

| Field        | Value    |
|--------------|----------|
| Entrypoint   | 0x0016   |
| Data Size    | 14 bytes |
| Instructions | 4        |

```
      00 01 02 03 04 05 06 07  08 09 0A 0B 0C 0D 0E 0F
      -- -- -- -- -- -- -- --  -- -- -- -- -- -- -- --
0010:                   32 00  80 1F 00 04 80 05 80 06        2.........
0020: 80 1F 01 00                                       ....            
```

#### Opcodes

```
  0: 0x0016 [0x32] ExtData[1]->MainSpeed = 40* * 0.1
  1: 0x0019 [0x1F] MOVE_ENTITY: EventEntity moves to X=296.503*, Z=520.809*, Y=-60.166*
  2: 0x0021 [0x1F] MOVE_ENTITY: Update entity position (mode=1)
  3: 0x0023 [0x00] END_REQSTACK()
```

### Event 65535.3

#### Metadata

| Field        | Value    |
|--------------|----------|
| Entrypoint   | 0x0024   |
| Data Size    | 14 bytes |
| Instructions | 4        |

```
      00 01 02 03 04 05 06 07  08 09 0A 0B 0C 0D 0E 0F
      -- -- -- -- -- -- -- --  -- -- -- -- -- -- -- --
0020:             32 00 80 1F  00 07 80 08 80 09 80 1F      2...........
0030: 01 00                                             ..              
```

#### Opcodes

```
  0: 0x0024 [0x32] ExtData[1]->MainSpeed = 40* * 0.1
  1: 0x0027 [0x1F] MOVE_ENTITY: EventEntity moves to X=303.904*, Z=521.930*, Y=-60.196*
  2: 0x002F [0x1F] MOVE_ENTITY: Update entity position (mode=1)
  3: 0x0031 [0x00] END_REQSTACK()
```

### Event 5

#### Metadata

| Field        | Value   |
|--------------|---------|
| Entrypoint   | 0x0032  |
| Data Size    | 7 bytes |
| Instructions | 2       |

```
      00 01 02 03 04 05 06 07  08 09 0A 0B 0C 0D 0E 0F
      -- -- -- -- -- -- -- --  -- -- -- -- -- -- -- --
0030:       92 01 F8 FF FF 7F  00                         .......       
```

#### Opcodes

```
  0: 0x0032 [0x92] EventEntity->Render.Flags3 ^= 0x01
  1: 0x0038 [0x00] END_REQSTACK()
```

### Event 65535.4

#### Metadata

| Field        | Value    |
|--------------|----------|
| Entrypoint   | 0x0039   |
| Data Size    | 22 bytes |
| Instructions | 6        |

```
      00 01 02 03 04 05 06 07  08 09 0A 0B 0C 0D 0E 0F
      -- -- -- -- -- -- -- --  -- -- -- -- -- -- -- --
0030:                             32 00 80 1F 00 0A 80           2......
0040: 0B 80 0C 80 1F 01 1E F0  FF FF 7F 1C 0D 80 00     ............... 
```

#### Opcodes

```
  0: 0x0039 [0x32] ExtData[1]->MainSpeed = 40* * 0.1
  1: 0x003C [0x1F] MOVE_ENTITY: EventEntity moves to X=168.165*, Z=225.021*, Y=-23.979*
  2: 0x0044 [0x1F] MOVE_ENTITY: Update entity position (mode=1)
  3: 0x0046 [0x1E] EventEntity looks at LocalPlayer and starts talking
  4: 0x004B [0x1C] WAIT(30* ticks)
  5: 0x004E [0x00] END_REQSTACK()
```

### Event 6

#### Metadata

| Field        | Value   |
|--------------|---------|
| Entrypoint   | 0x004F  |
| Data Size    | 7 bytes |
| Instructions | 2       |

```
      00 01 02 03 04 05 06 07  08 09 0A 0B 0C 0D 0E 0F
      -- -- -- -- -- -- -- --  -- -- -- -- -- -- -- --
0040:                                               92                 .
0050: 01 F8 FF FF 7F 00                                 ......          
```

#### Opcodes

```
  0: 0x004F [0x92] EventEntity->Render.Flags3 ^= 0x01
  1: 0x0055 [0x00] END_REQSTACK()
```

### Event 65535.5

#### Metadata

| Field        | Value    |
|--------------|----------|
| Entrypoint   | 0x0056   |
| Data Size    | 14 bytes |
| Instructions | 4        |

```
      00 01 02 03 04 05 06 07  08 09 0A 0B 0C 0D 0E 0F
      -- -- -- -- -- -- -- --  -- -- -- -- -- -- -- --
0050:                   32 0E  80 1F 00 0F 80 10 80 11        2.........
0060: 80 1F 01 00                                       ....            
```

#### Opcodes

```
  0: 0x0056 [0x32] ExtData[1]->MainSpeed = 13* * 0.1
  1: 0x0059 [0x1F] MOVE_ENTITY: EventEntity moves to X=99.721*, Z=27.232*, Y=-0.088*
  2: 0x0061 [0x1F] MOVE_ENTITY: Update entity position (mode=1)
  3: 0x0063 [0x00] END_REQSTACK()
```

### Event 65535.6

#### Metadata

| Field        | Value    |
|--------------|----------|
| Entrypoint   | 0x0064   |
| Data Size    | 14 bytes |
| Instructions | 4        |

```
      00 01 02 03 04 05 06 07  08 09 0A 0B 0C 0D 0E 0F
      -- -- -- -- -- -- -- --  -- -- -- -- -- -- -- --
0060:             32 00 80 1F  00 12 80 13 80 14 80 1F      2...........
0070: 01 00                                             ..              
```

#### Opcodes

```
  0: 0x0064 [0x32] ExtData[1]->MainSpeed = 40* * 0.1
  1: 0x0067 [0x1F] MOVE_ENTITY: EventEntity moves to X=99.339*, Z=39.756*, Y=0.124*
  2: 0x006F [0x1F] MOVE_ENTITY: Update entity position (mode=1)
  3: 0x0071 [0x00] END_REQSTACK()
```

### Event 65535.7

#### Metadata

| Field        | Value    |
|--------------|----------|
| Entrypoint   | 0x0072   |
| Data Size    | 14 bytes |
| Instructions | 4        |

```
      00 01 02 03 04 05 06 07  08 09 0A 0B 0C 0D 0E 0F
      -- -- -- -- -- -- -- --  -- -- -- -- -- -- -- --
0070:       32 00 80 1F 00 15  80 16 80 14 80 1F 01 00    2.............
```

#### Opcodes

```
  0: 0x0072 [0x32] ExtData[1]->MainSpeed = 40* * 0.1
  1: 0x0075 [0x1F] MOVE_ENTITY: EventEntity moves to X=113.420*, Z=20.642*, Y=0.124*
  2: 0x007D [0x1F] MOVE_ENTITY: Update entity position (mode=1)
  3: 0x007F [0x00] END_REQSTACK()
```

### Event 13

#### Metadata

| Field        | Value    |
|--------------|----------|
| Entrypoint   | 0x0080   |
| Data Size    | 11 bytes |
| Instructions | 3        |

```
      00 01 02 03 04 05 06 07  08 09 0A 0B 0C 0D 0E 0F
      -- -- -- -- -- -- -- --  -- -- -- -- -- -- -- --
0080: 92 01 F8 FF FF 7F B6 00  17 80 00                 ...........     
```

#### Opcodes

```
  0: 0x0080 [0x92] EventEntity->Render.Flags3 ^= 0x01
  1: 0x0086 [0xB6] ENTITY_APPEARANCE_HANDLER(case=Hair style, value=2403*)
  2: 0x008A [0x00] END_REQSTACK()
```

### Event 65535.8

#### Metadata

| Field        | Value    |
|--------------|----------|
| Entrypoint   | 0x008B   |
| Data Size    | 26 bytes |
| Instructions | 7        |

```
      00 01 02 03 04 05 06 07  08 09 0A 0B 0C 0D 0E 0F
      -- -- -- -- -- -- -- --  -- -- -- -- -- -- -- --
0080:                                   33 01 32 0D 80             3.2..
0090: 1F 00 18 80 19 80 1A 80  1F 01 1F 00 1B 80 1C 80  ................
00A0: 1D 80 1F 01 00                                    .....           
```

#### Opcodes

```
  0: 0x008B [0x33] EventEntity->Render.Flags0 |= 0x200000 // Bit 21 (flag=0x01)
  1: 0x008D [0x32] ExtData[1]->MainSpeed = 30* * 0.1
  2: 0x0090 [0x1F] MOVE_ENTITY: EventEntity moves to X=-232.817*, Z=97.179*, Y=0.000*
  3: 0x0098 [0x1F] MOVE_ENTITY: Update entity position (mode=1)
  4: 0x009A [0x1F] MOVE_ENTITY: EventEntity moves to X=-233.183*, Z=116.264*, Y=-0.456*
  5: 0x00A2 [0x1F] MOVE_ENTITY: Update entity position (mode=1)
  6: 0x00A4 [0x00] END_REQSTACK()
```

### Event 65535.9

#### Metadata

| Field        | Value    |
|--------------|----------|
| Entrypoint   | 0x00A5   |
| Data Size    | 16 bytes |
| Instructions | 5        |

```
      00 01 02 03 04 05 06 07  08 09 0A 0B 0C 0D 0E 0F
      -- -- -- -- -- -- -- --  -- -- -- -- -- -- -- --
00A0:                33 01 32  0D 80 1F 00 1B 80 1C 80       3.2........
00B0: 1D 80 1F 01 00                                    .....           
```

#### Opcodes

```
  0: 0x00A5 [0x33] EventEntity->Render.Flags0 |= 0x200000 // Bit 21 (flag=0x01)
  1: 0x00A7 [0x32] ExtData[1]->MainSpeed = 30* * 0.1
  2: 0x00AA [0x1F] MOVE_ENTITY: EventEntity moves to X=-233.183*, Z=116.264*, Y=-0.456*
  3: 0x00B2 [0x1F] MOVE_ENTITY: Update entity position (mode=1)
  4: 0x00B4 [0x00] END_REQSTACK()
```

### Event 65535.10

#### Metadata

| Field        | Value    |
|--------------|----------|
| Entrypoint   | 0x00B5   |
| Data Size    | 52 bytes |
| Instructions | 10       |

```
      00 01 02 03 04 05 06 07  08 09 0A 0B 0C 0D 0E 0F
      -- -- -- -- -- -- -- --  -- -- -- -- -- -- -- --
00B0:                03 00 00  1A 80 03 01 00 1E 80 02       ...........
00C0: 00 00 1A 80 00 E8 00 07  01 00 1F 80 37 20 80 01  ............7 ..
00D0: 00 21 80 22 80 02 01 00  23 80 00 E2 00 03 00 00  .!."....#.......
00E0: 24 80 1C 24 80 01 BF 00  00                       $..$.....       
```

#### Opcodes

```
  0: 0x00B5 [0x03] ExtData[1]->WorkLocal[0] = 0*
  1: 0x00BA [0x03] ExtData[1]->WorkLocal[1] = 157260*
  2: 0x00BF [0x02] IF !(ExtData[1]->WorkLocal[0] == 0*) GOTO 0x00E8
  3: 0x00C7 [0x07] ExtData[1]->WorkLocal[1] += 180*
  4: 0x00CC [0x37] UPDATE_EVENT_POSITION_AND_DIR: x=380.623*, z=ExtData[1]->WorkLocal[1], y=2.304*, direction=264.6°*
  5: 0x00D5 [0x02] IF !(ExtData[1]->WorkLocal[1] == 170460*) GOTO 0x00E2
  6: 0x00DD [0x03] ExtData[1]->WorkLocal[0] = 1*
  7: 0x00E2 [0x1C] WAIT(1* ticks)
  8: 0x00E5 [0x01] GOTO 0x00BF
  9: 0x00E8 [0x00] END_REQSTACK()
```

### Event 65535.11

#### Metadata

| Field        | Value   |
|--------------|---------|
| Entrypoint   | 0x00E9  |
| Data Size    | 5 bytes |
| Instructions | 2       |

```
      00 01 02 03 04 05 06 07  08 09 0A 0B 0C 0D 0E 0F
      -- -- -- -- -- -- -- --  -- -- -- -- -- -- -- --
00E0:                             B6 00 25 80 00                 ..%..  
```

#### Opcodes

```
  0: 0x00E9 [0xB6] ENTITY_APPEARANCE_HANDLER(case=Hair style, value=2252*)
  1: 0x00ED [0x00] END_REQSTACK()
```
