# 17138578

## Common Data

| Field            | Value                        |
|------------------|------------------------------|
| Zone             | North Gustaberg [S] (ID: 88) |
| Block Size       | 200 bytes                    |
| Total Events     | 4                            |
| References Count | 15                           |

## List of Events

| Event ID                 | Entrypoint   |   Size |   Instructions |
|--------------------------|--------------|--------|----------------|
| [65535](#event-65535)    | 0x0000       |      1 |              1 |
| [13](#event-13)          | 0x0001       |      7 |              2 |
| [65535.1](#event-655351) | 0x0008       |     14 |              4 |
| [65535.2](#event-655352) | 0x0016       |     83 |             15 |

## DAT References (imed_data)

|   Index | Hex Value   |   Dec Value |
|---------|-------------|-------------|
|       0 | 0x0028      |          40 |
|       1 | 0xFFFF27DC  |  4294911964 |
|       2 | 0x13A2      |        5026 |
|       3 | 0x07CF      |        1999 |
|       4 | 0xFFFEFE2A  |  4294901290 |
|       5 | 0x18D1      |        6353 |
|       6 | 0x0087      |         135 |
|       7 | 0xFFFEF5C1  |  4294899137 |
|       8 | 0x1B22      |        6946 |
|       9 | 0xFFFEDE4F  |  4294893135 |
|      10 | 0x1085      |        4229 |
|      11 | 0xFFFEDC3E  |  4294892606 |
|      12 | 0x1CC4      |        7364 |
|      13 | 0xFFFECB4C  |  4294888268 |
|      14 | 0x195A      |        6490 |

## Events

### Event 65535

#### Metadata

| Field        | Value   |
|--------------|---------|
| Entrypoint   | 0x0000  |
| Data Size    | 1 bytes |
| Instructions | 1       |

```
      00 01 02 03 04 05 06 07  08 09 0A 0B 0C 0D 0E 0F
      -- -- -- -- -- -- -- --  -- -- -- -- -- -- -- --
0000: 00                                                .               
```

#### Opcodes

```
  0: 0x0000 [0x00] END_REQSTACK()
```

### Event 13

#### Metadata

| Field        | Value   |
|--------------|---------|
| Entrypoint   | 0x0001  |
| Data Size    | 7 bytes |
| Instructions | 2       |

```
      00 01 02 03 04 05 06 07  08 09 0A 0B 0C 0D 0E 0F
      -- -- -- -- -- -- -- --  -- -- -- -- -- -- -- --
0000:    92 01 F8 FF FF 7F 00                            .......        
```

#### Opcodes

```
  0: 0x0001 [0x92] EventEntity->Render.Flags3 ^= 0x01
  1: 0x0007 [0x00] END_REQSTACK()
```

### Event 65535.1

#### Metadata

| Field        | Value    |
|--------------|----------|
| Entrypoint   | 0x0008   |
| Data Size    | 14 bytes |
| Instructions | 4        |

```
      00 01 02 03 04 05 06 07  08 09 0A 0B 0C 0D 0E 0F
      -- -- -- -- -- -- -- --  -- -- -- -- -- -- -- --
0000:                          32 00 80 1F 00 01 80 02          2.......
0010: 80 03 80 1F 01 00                                 ......          
```

#### Opcodes

```
  0: 0x0008 [0x32] ExtData[1]->MainSpeed = 40* * 0.1
  1: 0x000B [0x1F] MOVE_ENTITY: EventEntity moves to X=-55.332*, Z=5.026*, Y=1.999*
  2: 0x0013 [0x1F] MOVE_ENTITY: Update entity position (mode=1)
  3: 0x0015 [0x00] END_REQSTACK()
```

### Event 65535.2

#### Metadata

| Field        | Value    |
|--------------|----------|
| Entrypoint   | 0x0016   |
| Data Size    | 83 bytes |
| Instructions | 15       |

```
      00 01 02 03 04 05 06 07  08 09 0A 0B 0C 0D 0E 0F
      -- -- -- -- -- -- -- --  -- -- -- -- -- -- -- --
0010:                   32 00  80 1F 00 04 80 05 80 03        2.........
0020: 80 1F 01 6F 66 06 80 F8  FF FF 7F F8 FF FF 7F 6E  ...of..........n
0030: 72 69 30 53 F8 FF FF 7F  F8 FF FF 7F 6E 72 69 30  ri0S........nri0
0040: 1F 00 07 80 08 80 03 80  1F 01 1F 00 09 80 0A 80  ................
0050: 03 80 1F 01 1F 00 0B 80  0C 80 03 80 1F 01 1F 00  ................
0060: 0D 80 0E 80 03 80 1F 01  00                       .........       
```

#### Opcodes

```
  0: 0x0016 [0x32] ExtData[1]->MainSpeed = 40* * 0.1
  1: 0x0019 [0x1F] MOVE_ENTITY: EventEntity moves to X=-66.006*, Z=6.353*, Y=1.999*
  2: 0x0021 [0x1F] MOVE_ENTITY: Update entity position (mode=1)
  3: 0x0023 [0x6F] WAIT_FRAME_DELAY: Yield until WaitTime reaches zero
  4: 0x0024 [0x66] LOAD_EXT_SCHEDULER_MAIN: Load scheduler "nri0" with entities [EventEntity, EventEntity], work=135*
  5: 0x0033 [0x53] WAIT_SCHEDULER_TASK: Wait for scheduler "nri0" with entities [EventEntity, EventEntity]
  6: 0x0040 [0x1F] MOVE_ENTITY: EventEntity moves to X=-68.159*, Z=6.946*, Y=1.999*
  7: 0x0048 [0x1F] MOVE_ENTITY: Update entity position (mode=1)
  8: 0x004A [0x1F] MOVE_ENTITY: EventEntity moves to X=-74.161*, Z=4.229*, Y=1.999*
  9: 0x0052 [0x1F] MOVE_ENTITY: Update entity position (mode=1)
 10: 0x0054 [0x1F] MOVE_ENTITY: EventEntity moves to X=-74.690*, Z=7.364*, Y=1.999*
 11: 0x005C [0x1F] MOVE_ENTITY: Update entity position (mode=1)
 12: 0x005E [0x1F] MOVE_ENTITY: EventEntity moves to X=-79.028*, Z=6.490*, Y=1.999*
 13: 0x0066 [0x1F] MOVE_ENTITY: Update entity position (mode=1)
 14: 0x0068 [0x00] END_REQSTACK()
```
