# 17138552 - Klara

## Common Data

| Field            | Value                        |
|------------------|------------------------------|
| Zone             | North Gustaberg [S] (ID: 88) |
| Block Size       | 596 bytes                    |
| Total Events     | 22                           |
| References Count | 48                           |

## List of Events

| Event ID                   | Entrypoint   |   Size |   Instructions |
|----------------------------|--------------|--------|----------------|
| [65535](#event-65535)      | 0x0000       |      1 |              1 |
| [4](#event-4)              | 0x0001       |      7 |              2 |
| [65535.1](#event-655351)   | 0x0008       |     43 |              7 |
| [5](#event-5)              | 0x0033       |      7 |              2 |
| [65535.2](#event-655352)   | 0x003A       |     22 |              6 |
| [65535.3](#event-655353)   | 0x0050       |     14 |              4 |
| [6](#event-6)              | 0x005E       |      7 |              2 |
| [65535.4](#event-655354)   | 0x0065       |     14 |              4 |
| [65535.5](#event-655355)   | 0x0073       |     14 |              4 |
| [65535.6](#event-655356)   | 0x0081       |     24 |              6 |
| [10](#event-10)            | 0x0099       |      9 |              3 |
| [65535.7](#event-655357)   | 0x00A2       |     27 |              7 |
| [65535.8](#event-655358)   | 0x00BD       |     14 |              4 |
| [65535.9](#event-655359)   | 0x00CB       |      4 |              2 |
| [65535.10](#event-6553510) | 0x00CF       |      4 |              2 |
| [65535.11](#event-6553511) | 0x00D3       |      3 |              2 |
| [65535.12](#event-6553512) | 0x00D6       |     10 |              2 |
| [65535.13](#event-6553513) | 0x00E0       |     44 |             10 |
| [13](#event-13)            | 0x010C       |      7 |              2 |
| [65535.14](#event-6553514) | 0x0113       |     14 |              4 |
| [65535.15](#event-6553515) | 0x0121       |      5 |              2 |
| [65535.16](#event-6553516) | 0x0126       |      5 |              2 |

## DAT References (imed_data)

|   Index | Hex Value   |   Dec Value |
|---------|-------------|-------------|
|       0 | 0x000D      |          13 |
|       1 | 0x4BE93     |      310931 |
|       2 | 0x7D985     |      514437 |
|       3 | 0xFFFF15BC  |  4294907324 |
|       4 | 0x0542      |        1346 |
|       5 | 0x0028      |          40 |
|       6 | 0x29132     |      168242 |
|       7 | 0x366E0     |      222944 |
|       8 | 0xFFFFA297  |  4294943383 |
|       9 | 0x001E      |          30 |
|      10 | 0x29D57     |      171351 |
|      11 | 0x3696D     |      223597 |
|      12 | 0xFFFFA338  |  4294943544 |
|      13 | 0x18DF5     |      101877 |
|      14 | 0x6C9F      |       27807 |
|      15 | 0xFFFFFFE5  |  4294967269 |
|      16 | 0x18CC3     |      101571 |
|      17 | 0x961B      |       38427 |
|      18 | 0x002E      |          46 |
|      19 | 0x1A851     |      108625 |
|      20 | 0x4E79      |       20089 |
|      21 | 0x005D      |          93 |
|      22 | 0x0FFF      |        4095 |
|      23 | 0x003C      |          60 |
|      24 | 0x251B7     |      151991 |
|      25 | 0xE4AE      |       58542 |
|      26 | 0xFFFFA240  |  4294943296 |
|      27 | 0x2512D     |      151853 |
|      28 | 0xD3E9      |       54249 |
|      29 | 0xFFFFA23A  |  4294943290 |
|      30 | 0x0000      |           0 |
|      31 | 0x0002      |           2 |
|      32 | 0x25223     |      152099 |
|      33 | 0xDDC9      |       56777 |
|      34 | 0xFFFFA241  |  4294943297 |
|      35 | 0x2551D     |      152861 |
|      36 | 0xE1C0      |       57792 |
|      37 | 0xFFFFA21A  |  4294943258 |
|      38 | 0x25972     |      153970 |
|      39 | 0xE58A      |       58762 |
|      40 | 0xFFFFA215  |  4294943253 |
|      41 | 0x2689B     |      157851 |
|      42 | 0xE6A6      |       59046 |
|      43 | 0xFFFF3695  |  4294915733 |
|      44 | 0xFFFFFBBB  |  4294966203 |
|      45 | 0xFFFFD8F1  |  4294957297 |
|      46 | 0x08DD      |        2269 |
|      47 | 0x08D5      |        2261 |

## Events

### Event 65535

#### Metadata

| Field        | Value   |
|--------------|---------|
| Entrypoint   | 0x0000  |
| Data Size    | 1 bytes |
| Instructions | 1       |

```
      00 01 02 03 04 05 06 07  08 09 0A 0B 0C 0D 0E 0F
      -- -- -- -- -- -- -- --  -- -- -- -- -- -- -- --
0000: 00                                                .               
```

#### Opcodes

```
  0: 0x0000 [0x00] END_REQSTACK()
```

### Event 4

#### Metadata

| Field        | Value   |
|--------------|---------|
| Entrypoint   | 0x0001  |
| Data Size    | 7 bytes |
| Instructions | 2       |

```
      00 01 02 03 04 05 06 07  08 09 0A 0B 0C 0D 0E 0F
      -- -- -- -- -- -- -- --  -- -- -- -- -- -- -- --
0000:    92 01 F8 FF FF 7F 00                            .......        
```

#### Opcodes

```
  0: 0x0001 [0x92] EventEntity->Render.Flags3 ^= 0x01
  1: 0x0007 [0x00] END_REQSTACK()
```

### Event 65535.1

#### Metadata

| Field        | Value    |
|--------------|----------|
| Entrypoint   | 0x0008   |
| Data Size    | 43 bytes |
| Instructions | 7        |

```
      00 01 02 03 04 05 06 07  08 09 0A 0B 0C 0D 0E 0F
      -- -- -- -- -- -- -- --  -- -- -- -- -- -- -- --
0000:                          32 00 80 1F 00 01 80 02          2.......
0010: 80 03 80 1F 01 6F 5B 04  80 78 83 05 01 78 83 05  .....o[..x...x..
0020: 01 75 64 65 30 53 78 83  05 01 78 83 05 01 75 64  .ude0Sx...x...ud
0030: 65 30 00                                          e0.             
```

#### Opcodes

```
  0: 0x0008 [0x32] ExtData[1]->MainSpeed = 13* * 0.1
  1: 0x000B [0x1F] MOVE_ENTITY: EventEntity moves to X=310.931*, Z=514.437*, Y=-59.972*
  2: 0x0013 [0x1F] MOVE_ENTITY: Update entity position (mode=1)
  3: 0x0015 [0x6F] WAIT_FRAME_DELAY: Yield until WaitTime reaches zero
  4: 0x0016 [0x5B] LOAD_EXT_SCHEDULER: Load scheduler "ude0" with entities [Klara (ID: 17138552/0x01058378), Klara (ID: 17138552/0x01058378)], work=1346*
  5: 0x0025 [0x53] WAIT_SCHEDULER_TASK: Wait for scheduler "ude0" with entities [Klara (ID: 17138552/0x01058378), Klara (ID: 17138552/0x01058378)]
  6: 0x0032 [0x00] END_REQSTACK()
```

### Event 5

#### Metadata

| Field        | Value   |
|--------------|---------|
| Entrypoint   | 0x0033  |
| Data Size    | 7 bytes |
| Instructions | 2       |

```
      00 01 02 03 04 05 06 07  08 09 0A 0B 0C 0D 0E 0F
      -- -- -- -- -- -- -- --  -- -- -- -- -- -- -- --
0030:          92 01 F8 FF FF  7F 00                       .......      
```

#### Opcodes

```
  0: 0x0033 [0x92] EventEntity->Render.Flags3 ^= 0x01
  1: 0x0039 [0x00] END_REQSTACK()
```

### Event 65535.2

#### Metadata

| Field        | Value    |
|--------------|----------|
| Entrypoint   | 0x003A   |
| Data Size    | 22 bytes |
| Instructions | 6        |

```
      00 01 02 03 04 05 06 07  08 09 0A 0B 0C 0D 0E 0F
      -- -- -- -- -- -- -- --  -- -- -- -- -- -- -- --
0030:                                32 05 80 1F 00 06            2.....
0040: 80 07 80 08 80 1F 01 1E  F0 FF FF 7F 1C 09 80 00  ................
```

#### Opcodes

```
  0: 0x003A [0x32] ExtData[1]->MainSpeed = 40* * 0.1
  1: 0x003D [0x1F] MOVE_ENTITY: EventEntity moves to X=168.242*, Z=222.944*, Y=-23.913*
  2: 0x0045 [0x1F] MOVE_ENTITY: Update entity position (mode=1)
  3: 0x0047 [0x1E] EventEntity looks at LocalPlayer and starts talking
  4: 0x004C [0x1C] WAIT(30* ticks)
  5: 0x004F [0x00] END_REQSTACK()
```

### Event 65535.3

#### Metadata

| Field        | Value    |
|--------------|----------|
| Entrypoint   | 0x0050   |
| Data Size    | 14 bytes |
| Instructions | 4        |

```
      00 01 02 03 04 05 06 07  08 09 0A 0B 0C 0D 0E 0F
      -- -- -- -- -- -- -- --  -- -- -- -- -- -- -- --
0050: 32 00 80 1F 00 0A 80 0B  80 0C 80 1F 01 00        2.............  
```

#### Opcodes

```
  0: 0x0050 [0x32] ExtData[1]->MainSpeed = 13* * 0.1
  1: 0x0053 [0x1F] MOVE_ENTITY: EventEntity moves to X=171.351*, Z=223.597*, Y=-23.752*
  2: 0x005B [0x1F] MOVE_ENTITY: Update entity position (mode=1)
  3: 0x005D [0x00] END_REQSTACK()
```

### Event 6

#### Metadata

| Field        | Value   |
|--------------|---------|
| Entrypoint   | 0x005E  |
| Data Size    | 7 bytes |
| Instructions | 2       |

```
      00 01 02 03 04 05 06 07  08 09 0A 0B 0C 0D 0E 0F
      -- -- -- -- -- -- -- --  -- -- -- -- -- -- -- --
0050:                                            92 01                ..
0060: F8 FF FF 7F 00                                    .....           
```

#### Opcodes

```
  0: 0x005E [0x92] EventEntity->Render.Flags3 ^= 0x01
  1: 0x0064 [0x00] END_REQSTACK()
```

### Event 65535.4

#### Metadata

| Field        | Value    |
|--------------|----------|
| Entrypoint   | 0x0065   |
| Data Size    | 14 bytes |
| Instructions | 4        |

```
      00 01 02 03 04 05 06 07  08 09 0A 0B 0C 0D 0E 0F
      -- -- -- -- -- -- -- --  -- -- -- -- -- -- -- --
0060:                32 00 80  1F 00 0D 80 0E 80 0F 80       2..........
0070: 1F 01 00                                          ...             
```

#### Opcodes

```
  0: 0x0065 [0x32] ExtData[1]->MainSpeed = 13* * 0.1
  1: 0x0068 [0x1F] MOVE_ENTITY: EventEntity moves to X=101.877*, Z=27.807*, Y=-0.027*
  2: 0x0070 [0x1F] MOVE_ENTITY: Update entity position (mode=1)
  3: 0x0072 [0x00] END_REQSTACK()
```

### Event 65535.5

#### Metadata

| Field        | Value    |
|--------------|----------|
| Entrypoint   | 0x0073   |
| Data Size    | 14 bytes |
| Instructions | 4        |

```
      00 01 02 03 04 05 06 07  08 09 0A 0B 0C 0D 0E 0F
      -- -- -- -- -- -- -- --  -- -- -- -- -- -- -- --
0070:          32 05 80 1F 00  10 80 11 80 12 80 1F 01     2............
0080: 00                                                .               
```

#### Opcodes

```
  0: 0x0073 [0x32] ExtData[1]->MainSpeed = 40* * 0.1
  1: 0x0076 [0x1F] MOVE_ENTITY: EventEntity moves to X=101.571*, Z=38.427*, Y=0.046*
  2: 0x007E [0x1F] MOVE_ENTITY: Update entity position (mode=1)
  3: 0x0080 [0x00] END_REQSTACK()
```

### Event 65535.6

#### Metadata

| Field        | Value    |
|--------------|----------|
| Entrypoint   | 0x0081   |
| Data Size    | 24 bytes |
| Instructions | 6        |

```
      00 01 02 03 04 05 06 07  08 09 0A 0B 0C 0D 0E 0F
      -- -- -- -- -- -- -- --  -- -- -- -- -- -- -- --
0080:    32 00 80 1F 00 13 80  14 80 15 80 1F 01 4B 78   2............Kx
0090: 83 05 01 16 80 1C 17 80  00                       .........       
```

#### Opcodes

```
  0: 0x0081 [0x32] ExtData[1]->MainSpeed = 13* * 0.1
  1: 0x0084 [0x1F] MOVE_ENTITY: EventEntity moves to X=108.625*, Z=20.089*, Y=0.093*
  2: 0x008C [0x1F] MOVE_ENTITY: Update entity position (mode=1)
  3: 0x008E [0x4B] UPDATE_ENTITY_YAW(entity=Klara (ID: 17138552/0x01058378), yaw=22.5°*)
  4: 0x0095 [0x1C] WAIT(60* ticks)
  5: 0x0098 [0x00] END_REQSTACK()
```

### Event 10

#### Metadata

| Field        | Value   |
|--------------|---------|
| Entrypoint   | 0x0099  |
| Data Size    | 9 bytes |
| Instructions | 3       |

```
      00 01 02 03 04 05 06 07  08 09 0A 0B 0C 0D 0E 0F
      -- -- -- -- -- -- -- --  -- -- -- -- -- -- -- --
0090:                             92 01 F8 FF FF 7F A4           .......
00A0: 01 00                                             ..              
```

#### Opcodes

```
  0: 0x0099 [0x92] EventEntity->Render.Flags3 ^= 0x01
  1: 0x009F [0xA4] EventEntity->Flags3.unknown_3_2 = 1
  2: 0x00A1 [0x00] END_REQSTACK()
```

### Event 65535.7

#### Metadata

| Field        | Value    |
|--------------|----------|
| Entrypoint   | 0x00A2   |
| Data Size    | 27 bytes |
| Instructions | 7        |

```
      00 01 02 03 04 05 06 07  08 09 0A 0B 0C 0D 0E 0F
      -- -- -- -- -- -- -- --  -- -- -- -- -- -- -- --
00A0:       32 00 80 1F 00 18  80 19 80 1A 80 1F 01 1E    2.............
00B0: 7B 83 05 01 7B F8 FF FF  7F 1C 09 80 00           {...{........   
```

#### Opcodes

```
  0: 0x00A2 [0x32] ExtData[1]->MainSpeed = 13* * 0.1
  1: 0x00A5 [0x1F] MOVE_ENTITY: EventEntity moves to X=151.991*, Z=58.542*, Y=-24.000*
  2: 0x00AD [0x1F] MOVE_ENTITY: Update entity position (mode=1)
  3: 0x00AF [0x1E] EventEntity looks at Zeid (ID: 17138555/0x0105837B) and starts talking
  4: 0x00B4 [0x7B] EventEntity stops talking
  5: 0x00B9 [0x1C] WAIT(30* ticks)
  6: 0x00BC [0x00] END_REQSTACK()
```

### Event 65535.8

#### Metadata

| Field        | Value    |
|--------------|----------|
| Entrypoint   | 0x00BD   |
| Data Size    | 14 bytes |
| Instructions | 4        |

```
      00 01 02 03 04 05 06 07  08 09 0A 0B 0C 0D 0E 0F
      -- -- -- -- -- -- -- --  -- -- -- -- -- -- -- --
00B0:                                         32 00 80               2..
00C0: 1F 00 1B 80 1C 80 1D 80  1F 01 00                 ...........     
```

#### Opcodes

```
  0: 0x00BD [0x32] ExtData[1]->MainSpeed = 13* * 0.1
  1: 0x00C0 [0x1F] MOVE_ENTITY: EventEntity moves to X=151.853*, Z=54.249*, Y=-24.006*
  2: 0x00C8 [0x1F] MOVE_ENTITY: Update entity position (mode=1)
  3: 0x00CA [0x00] END_REQSTACK()
```

### Event 65535.9

#### Metadata

| Field        | Value   |
|--------------|---------|
| Entrypoint   | 0x00CB  |
| Data Size    | 4 bytes |
| Instructions | 2       |

```
      00 01 02 03 04 05 06 07  08 09 0A 0B 0C 0D 0E 0F
      -- -- -- -- -- -- -- --  -- -- -- -- -- -- -- --
00C0:                                   95 1E 80 00                .... 
```

#### Opcodes

```
  0: 0x00CB [0x95] SETUP_EVENT_NPC: Prepare NPC for event (Render.Flags3 = 0*)
  1: 0x00CE [0x00] END_REQSTACK()
```

### Event 65535.10

#### Metadata

| Field        | Value   |
|--------------|---------|
| Entrypoint   | 0x00CF  |
| Data Size    | 4 bytes |
| Instructions | 2       |

```
      00 01 02 03 04 05 06 07  08 09 0A 0B 0C 0D 0E 0F
      -- -- -- -- -- -- -- --  -- -- -- -- -- -- -- --
00C0:                                               95                 .
00D0: 1F 80 00                                          ...             
```

#### Opcodes

```
  0: 0x00CF [0x95] SETUP_EVENT_NPC: Prepare NPC for event (Render.Flags3 = 2*)
  1: 0x00D2 [0x00] END_REQSTACK()
```

### Event 65535.11

#### Metadata

| Field        | Value   |
|--------------|---------|
| Entrypoint   | 0x00D3  |
| Data Size    | 3 bytes |
| Instructions | 2       |

```
      00 01 02 03 04 05 06 07  08 09 0A 0B 0C 0D 0E 0F
      -- -- -- -- -- -- -- --  -- -- -- -- -- -- -- --
00D0:          A4 00 00                                    ...          
```

#### Opcodes

```
  0: 0x00D3 [0xA4] EventEntity->Flags3.unknown_3_2 = 0
  1: 0x00D5 [0x00] END_REQSTACK()
```

### Event 65535.12

#### Metadata

| Field        | Value    |
|--------------|----------|
| Entrypoint   | 0x00D6   |
| Data Size    | 10 bytes |
| Instructions | 2        |

```
      00 01 02 03 04 05 06 07  08 09 0A 0B 0C 0D 0E 0F
      -- -- -- -- -- -- -- --  -- -- -- -- -- -- -- --
00D0:                   6C F8  FF FF 7F 1E 80 17 80 00        l.........
```

#### Opcodes

```
  0: 0x00D6 [0x6C] FADE_ENTITY_COLOR(entity_id=EventEntity, end_alpha=0*, fade_time=60*)
  1: 0x00DF [0x00] END_REQSTACK()
```

### Event 65535.13

#### Metadata

| Field        | Value    |
|--------------|----------|
| Entrypoint   | 0x00E0   |
| Data Size    | 44 bytes |
| Instructions | 10       |

```
      00 01 02 03 04 05 06 07  08 09 0A 0B 0C 0D 0E 0F
      -- -- -- -- -- -- -- --  -- -- -- -- -- -- -- --
00E0: 32 00 80 1F 00 20 80 21  80 22 80 1F 01 1F 00 23  2.... .!.".....#
00F0: 80 24 80 25 80 1F 01 1F  00 26 80 27 80 28 80 1F  .$.%.....&.'.(..
0100: 01 1F 00 29 80 2A 80 1A  80 1F 01 00              ...).*......    
```

#### Opcodes

```
  0: 0x00E0 [0x32] ExtData[1]->MainSpeed = 13* * 0.1
  1: 0x00E3 [0x1F] MOVE_ENTITY: EventEntity moves to X=152.099*, Z=56.777*, Y=-23.999*
  2: 0x00EB [0x1F] MOVE_ENTITY: Update entity position (mode=1)
  3: 0x00ED [0x1F] MOVE_ENTITY: EventEntity moves to X=152.861*, Z=57.792*, Y=-24.038*
  4: 0x00F5 [0x1F] MOVE_ENTITY: Update entity position (mode=1)
  5: 0x00F7 [0x1F] MOVE_ENTITY: EventEntity moves to X=153.970*, Z=58.762*, Y=-24.043*
  6: 0x00FF [0x1F] MOVE_ENTITY: Update entity position (mode=1)
  7: 0x0101 [0x1F] MOVE_ENTITY: EventEntity moves to X=157.851*, Z=59.046*, Y=-24.000*
  8: 0x0109 [0x1F] MOVE_ENTITY: Update entity position (mode=1)
  9: 0x010B [0x00] END_REQSTACK()
```

### Event 13

#### Metadata

| Field        | Value   |
|--------------|---------|
| Entrypoint   | 0x010C  |
| Data Size    | 7 bytes |
| Instructions | 2       |

```
      00 01 02 03 04 05 06 07  08 09 0A 0B 0C 0D 0E 0F
      -- -- -- -- -- -- -- --  -- -- -- -- -- -- -- --
0100:                                      92 01 F8 FF              ....
0110: FF 7F 00                                          ...             
```

#### Opcodes

```
  0: 0x010C [0x92] EventEntity->Render.Flags3 ^= 0x01
  1: 0x0112 [0x00] END_REQSTACK()
```

### Event 65535.14

#### Metadata

| Field        | Value    |
|--------------|----------|
| Entrypoint   | 0x0113   |
| Data Size    | 14 bytes |
| Instructions | 4        |

```
      00 01 02 03 04 05 06 07  08 09 0A 0B 0C 0D 0E 0F
      -- -- -- -- -- -- -- --  -- -- -- -- -- -- -- --
0110:          32 00 80 1F 00  2B 80 2C 80 2D 80 1F 01     2....+.,.-...
0120: 00                                                .               
```

#### Opcodes

```
  0: 0x0113 [0x32] ExtData[1]->MainSpeed = 13* * 0.1
  1: 0x0116 [0x1F] MOVE_ENTITY: EventEntity moves to X=-51.563*, Z=-1.093*, Y=-9.999*
  2: 0x011E [0x1F] MOVE_ENTITY: Update entity position (mode=1)
  3: 0x0120 [0x00] END_REQSTACK()
```

### Event 65535.15

#### Metadata

| Field        | Value   |
|--------------|---------|
| Entrypoint   | 0x0121  |
| Data Size    | 5 bytes |
| Instructions | 2       |

```
      00 01 02 03 04 05 06 07  08 09 0A 0B 0C 0D 0E 0F
      -- -- -- -- -- -- -- --  -- -- -- -- -- -- -- --
0120:    B6 00 2E 80 00                                  .....          
```

#### Opcodes

```
  0: 0x0121 [0xB6] ENTITY_APPEARANCE_HANDLER(case=Hair style, value=2269*)
  1: 0x0125 [0x00] END_REQSTACK()
```

### Event 65535.16

#### Metadata

| Field        | Value   |
|--------------|---------|
| Entrypoint   | 0x0126  |
| Data Size    | 5 bytes |
| Instructions | 2       |

```
      00 01 02 03 04 05 06 07  08 09 0A 0B 0C 0D 0E 0F
      -- -- -- -- -- -- -- --  -- -- -- -- -- -- -- --
0120:                   B6 00  2F 80 00                       ../..     
```

#### Opcodes

```
  0: 0x0126 [0xB6] ENTITY_APPEARANCE_HANDLER(case=Hair style, value=2261*)
  1: 0x012A [0x00] END_REQSTACK()
```
