# 17138555 - Zeid

## Common Data

| Field            | Value                        |
|------------------|------------------------------|
| Zone             | North Gustaberg [S] (ID: 88) |
| Block Size       | 492 bytes                    |
| Total Events     | 15                           |
| References Count | 41                           |

## List of Events

| Event ID                   | Entrypoint   |   Size |   Instructions |
|----------------------------|--------------|--------|----------------|
| [65535](#event-65535)      | 0x0000       |      1 |              1 |
| [5](#event-5)              | 0x0001       |      7 |              2 |
| [65535.1](#event-655351)   | 0x0008       |     22 |              6 |
| [6](#event-6)              | 0x001E       |      7 |              2 |
| [65535.2](#event-655352)   | 0x0025       |     14 |              4 |
| [65535.3](#event-655353)   | 0x0033       |     14 |              4 |
| [65535.4](#event-655354)   | 0x0041       |     14 |              4 |
| [10](#event-10)            | 0x004F       |      9 |              3 |
| [65535.5](#event-655355)   | 0x0058       |      3 |              2 |
| [65535.6](#event-655356)   | 0x005B       |     14 |              4 |
| [65535.7](#event-655357)   | 0x0069       |     44 |             10 |
| [13](#event-13)            | 0x0095       |      7 |              2 |
| [65535.8](#event-655358)   | 0x009C       |     26 |              7 |
| [65535.9](#event-655359)   | 0x00B6       |     16 |              5 |
| [65535.10](#event-6553510) | 0x00C6       |     52 |             10 |

## DAT References (imed_data)

|   Index | Hex Value   |   Dec Value |
|---------|-------------|-------------|
|       0 | 0x0028      |          40 |
|       1 | 0x299E2     |      170466 |
|       2 | 0x36705     |      222981 |
|       3 | 0xFFFFA347  |  4294943559 |
|       4 | 0x001E      |          30 |
|       5 | 0x000D      |          13 |
|       6 | 0x18A4E     |      100942 |
|       7 | 0x2E11      |       11793 |
|       8 | 0x00AF      |         175 |
|       9 | 0x189D9     |      100825 |
|      10 | 0x0099      |         153 |
|      11 | 0x007C      |         124 |
|      12 | 0x1B6A0     |      112288 |
|      13 | 0x4B0D      |       19213 |
|      14 | 0x2509E     |      151710 |
|      15 | 0xC3E5      |       50149 |
|      16 | 0xFFFFA241  |  4294943297 |
|      17 | 0x25223     |      152099 |
|      18 | 0xDDC9      |       56777 |
|      19 | 0x2551D     |      152861 |
|      20 | 0xE1C0      |       57792 |
|      21 | 0xFFFFA21A  |  4294943258 |
|      22 | 0x25972     |      153970 |
|      23 | 0xE58A      |       58762 |
|      24 | 0xFFFFA215  |  4294943253 |
|      25 | 0x2689B     |      157851 |
|      26 | 0xE6A6      |       59046 |
|      27 | 0xFFFFA240  |  4294943296 |
|      28 | 0xFFFC6AA7  |  4294732455 |
|      29 | 0x17B9D     |       97181 |
|      30 | 0x0000      |           0 |
|      31 | 0xFFFC6A82  |  4294732418 |
|      32 | 0x1C6AE     |      116398 |
|      33 | 0xFFFFFE38  |  4294966840 |
|      34 | 0x2646B     |      156779 |
|      35 | 0x00B4      |         180 |
|      36 | 0x5C7EC     |      378860 |
|      37 | 0x08A4      |        2212 |
|      38 | 0x0BD0      |        3024 |
|      39 | 0x29A53     |      170579 |
|      40 | 0x0001      |           1 |

## Events

### Event 65535

#### Metadata

| Field        | Value   |
|--------------|---------|
| Entrypoint   | 0x0000  |
| Data Size    | 1 bytes |
| Instructions | 1       |

```
      00 01 02 03 04 05 06 07  08 09 0A 0B 0C 0D 0E 0F
      -- -- -- -- -- -- -- --  -- -- -- -- -- -- -- --
0000: 00                                                .               
```

#### Opcodes

```
  0: 0x0000 [0x00] END_REQSTACK()
```

### Event 5

#### Metadata

| Field        | Value   |
|--------------|---------|
| Entrypoint   | 0x0001  |
| Data Size    | 7 bytes |
| Instructions | 2       |

```
      00 01 02 03 04 05 06 07  08 09 0A 0B 0C 0D 0E 0F
      -- -- -- -- -- -- -- --  -- -- -- -- -- -- -- --
0000:    92 01 F8 FF FF 7F 00                            .......        
```

#### Opcodes

```
  0: 0x0001 [0x92] EventEntity->Render.Flags3 ^= 0x01
  1: 0x0007 [0x00] END_REQSTACK()
```

### Event 65535.1

#### Metadata

| Field        | Value    |
|--------------|----------|
| Entrypoint   | 0x0008   |
| Data Size    | 22 bytes |
| Instructions | 6        |

```
      00 01 02 03 04 05 06 07  08 09 0A 0B 0C 0D 0E 0F
      -- -- -- -- -- -- -- --  -- -- -- -- -- -- -- --
0000:                          32 00 80 1F 00 01 80 02          2.......
0010: 80 03 80 1F 01 1E F0 FF  FF 7F 1C 04 80 00        ..............  
```

#### Opcodes

```
  0: 0x0008 [0x32] ExtData[1]->MainSpeed = 40* * 0.1
  1: 0x000B [0x1F] MOVE_ENTITY: EventEntity moves to X=170.466*, Z=222.981*, Y=-23.737*
  2: 0x0013 [0x1F] MOVE_ENTITY: Update entity position (mode=1)
  3: 0x0015 [0x1E] EventEntity looks at LocalPlayer and starts talking
  4: 0x001A [0x1C] WAIT(30* ticks)
  5: 0x001D [0x00] END_REQSTACK()
```

### Event 6

#### Metadata

| Field        | Value   |
|--------------|---------|
| Entrypoint   | 0x001E  |
| Data Size    | 7 bytes |
| Instructions | 2       |

```
      00 01 02 03 04 05 06 07  08 09 0A 0B 0C 0D 0E 0F
      -- -- -- -- -- -- -- --  -- -- -- -- -- -- -- --
0010:                                            92 01                ..
0020: F8 FF FF 7F 00                                    .....           
```

#### Opcodes

```
  0: 0x001E [0x92] EventEntity->Render.Flags3 ^= 0x01
  1: 0x0024 [0x00] END_REQSTACK()
```

### Event 65535.2

#### Metadata

| Field        | Value    |
|--------------|----------|
| Entrypoint   | 0x0025   |
| Data Size    | 14 bytes |
| Instructions | 4        |

```
      00 01 02 03 04 05 06 07  08 09 0A 0B 0C 0D 0E 0F
      -- -- -- -- -- -- -- --  -- -- -- -- -- -- -- --
0020:                32 05 80  1F 00 06 80 07 80 08 80       2..........
0030: 1F 01 00                                          ...             
```

#### Opcodes

```
  0: 0x0025 [0x32] ExtData[1]->MainSpeed = 13* * 0.1
  1: 0x0028 [0x1F] MOVE_ENTITY: EventEntity moves to X=100.942*, Z=11.793*, Y=0.175*
  2: 0x0030 [0x1F] MOVE_ENTITY: Update entity position (mode=1)
  3: 0x0032 [0x00] END_REQSTACK()
```

### Event 65535.3

#### Metadata

| Field        | Value    |
|--------------|----------|
| Entrypoint   | 0x0033   |
| Data Size    | 14 bytes |
| Instructions | 4        |

```
      00 01 02 03 04 05 06 07  08 09 0A 0B 0C 0D 0E 0F
      -- -- -- -- -- -- -- --  -- -- -- -- -- -- -- --
0030:          32 00 80 1F 00  09 80 0A 80 0B 80 1F 01     2............
0040: 00                                                .               
```

#### Opcodes

```
  0: 0x0033 [0x32] ExtData[1]->MainSpeed = 40* * 0.1
  1: 0x0036 [0x1F] MOVE_ENTITY: EventEntity moves to X=100.825*, Z=0.153*, Y=0.124*
  2: 0x003E [0x1F] MOVE_ENTITY: Update entity position (mode=1)
  3: 0x0040 [0x00] END_REQSTACK()
```

### Event 65535.4

#### Metadata

| Field        | Value    |
|--------------|----------|
| Entrypoint   | 0x0041   |
| Data Size    | 14 bytes |
| Instructions | 4        |

```
      00 01 02 03 04 05 06 07  08 09 0A 0B 0C 0D 0E 0F
      -- -- -- -- -- -- -- --  -- -- -- -- -- -- -- --
0040:    32 05 80 1F 00 0C 80  0D 80 0B 80 1F 01 00      2............. 
```

#### Opcodes

```
  0: 0x0041 [0x32] ExtData[1]->MainSpeed = 13* * 0.1
  1: 0x0044 [0x1F] MOVE_ENTITY: EventEntity moves to X=112.288*, Z=19.213*, Y=0.124*
  2: 0x004C [0x1F] MOVE_ENTITY: Update entity position (mode=1)
  3: 0x004E [0x00] END_REQSTACK()
```

### Event 10

#### Metadata

| Field        | Value   |
|--------------|---------|
| Entrypoint   | 0x004F  |
| Data Size    | 9 bytes |
| Instructions | 3       |

```
      00 01 02 03 04 05 06 07  08 09 0A 0B 0C 0D 0E 0F
      -- -- -- -- -- -- -- --  -- -- -- -- -- -- -- --
0040:                                               92                 .
0050: 01 F8 FF FF 7F A4 01 00                           ........        
```

#### Opcodes

```
  0: 0x004F [0x92] EventEntity->Render.Flags3 ^= 0x01
  1: 0x0055 [0xA4] EventEntity->Flags3.unknown_3_2 = 1
  2: 0x0057 [0x00] END_REQSTACK()
```

### Event 65535.5

#### Metadata

| Field        | Value   |
|--------------|---------|
| Entrypoint   | 0x0058  |
| Data Size    | 3 bytes |
| Instructions | 2       |

```
      00 01 02 03 04 05 06 07  08 09 0A 0B 0C 0D 0E 0F
      -- -- -- -- -- -- -- --  -- -- -- -- -- -- -- --
0050:                          A4 00 00                         ...     
```

#### Opcodes

```
  0: 0x0058 [0xA4] EventEntity->Flags3.unknown_3_2 = 0
  1: 0x005A [0x00] END_REQSTACK()
```

### Event 65535.6

#### Metadata

| Field        | Value    |
|--------------|----------|
| Entrypoint   | 0x005B   |
| Data Size    | 14 bytes |
| Instructions | 4        |

```
      00 01 02 03 04 05 06 07  08 09 0A 0B 0C 0D 0E 0F
      -- -- -- -- -- -- -- --  -- -- -- -- -- -- -- --
0050:                                   32 05 80 1F 00             2....
0060: 0E 80 0F 80 10 80 1F 01  00                       .........       
```

#### Opcodes

```
  0: 0x005B [0x32] ExtData[1]->MainSpeed = 13* * 0.1
  1: 0x005E [0x1F] MOVE_ENTITY: EventEntity moves to X=151.710*, Z=50.149*, Y=-23.999*
  2: 0x0066 [0x1F] MOVE_ENTITY: Update entity position (mode=1)
  3: 0x0068 [0x00] END_REQSTACK()
```

### Event 65535.7

#### Metadata

| Field        | Value    |
|--------------|----------|
| Entrypoint   | 0x0069   |
| Data Size    | 44 bytes |
| Instructions | 10       |

```
      00 01 02 03 04 05 06 07  08 09 0A 0B 0C 0D 0E 0F
      -- -- -- -- -- -- -- --  -- -- -- -- -- -- -- --
0060:                             32 05 80 1F 00 11 80           2......
0070: 12 80 10 80 1F 01 1F 00  13 80 14 80 15 80 1F 01  ................
0080: 1F 00 16 80 17 80 18 80  1F 01 1F 00 19 80 1A 80  ................
0090: 1B 80 1F 01 00                                    .....           
```

#### Opcodes

```
  0: 0x0069 [0x32] ExtData[1]->MainSpeed = 13* * 0.1
  1: 0x006C [0x1F] MOVE_ENTITY: EventEntity moves to X=152.099*, Z=56.777*, Y=-23.999*
  2: 0x0074 [0x1F] MOVE_ENTITY: Update entity position (mode=1)
  3: 0x0076 [0x1F] MOVE_ENTITY: EventEntity moves to X=152.861*, Z=57.792*, Y=-24.038*
  4: 0x007E [0x1F] MOVE_ENTITY: Update entity position (mode=1)
  5: 0x0080 [0x1F] MOVE_ENTITY: EventEntity moves to X=153.970*, Z=58.762*, Y=-24.043*
  6: 0x0088 [0x1F] MOVE_ENTITY: Update entity position (mode=1)
  7: 0x008A [0x1F] MOVE_ENTITY: EventEntity moves to X=157.851*, Z=59.046*, Y=-24.000*
  8: 0x0092 [0x1F] MOVE_ENTITY: Update entity position (mode=1)
  9: 0x0094 [0x00] END_REQSTACK()
```

### Event 13

#### Metadata

| Field        | Value   |
|--------------|---------|
| Entrypoint   | 0x0095  |
| Data Size    | 7 bytes |
| Instructions | 2       |

```
      00 01 02 03 04 05 06 07  08 09 0A 0B 0C 0D 0E 0F
      -- -- -- -- -- -- -- --  -- -- -- -- -- -- -- --
0090:                92 01 F8  FF FF 7F 00                   .......    
```

#### Opcodes

```
  0: 0x0095 [0x92] EventEntity->Render.Flags3 ^= 0x01
  1: 0x009B [0x00] END_REQSTACK()
```

### Event 65535.8

#### Metadata

| Field        | Value    |
|--------------|----------|
| Entrypoint   | 0x009C   |
| Data Size    | 26 bytes |
| Instructions | 7        |

```
      00 01 02 03 04 05 06 07  08 09 0A 0B 0C 0D 0E 0F
      -- -- -- -- -- -- -- --  -- -- -- -- -- -- -- --
0090:                                      33 01 32 04              3.2.
00A0: 80 1F 00 1C 80 1D 80 1E  80 1F 01 1F 00 1F 80 20  ............... 
00B0: 80 21 80 1F 01 00                                 .!....          
```

#### Opcodes

```
  0: 0x009C [0x33] EventEntity->Render.Flags0 |= 0x200000 // Bit 21 (flag=0x01)
  1: 0x009E [0x32] ExtData[1]->MainSpeed = 30* * 0.1
  2: 0x00A1 [0x1F] MOVE_ENTITY: EventEntity moves to X=-234.841*, Z=97.181*, Y=0.000*
  3: 0x00A9 [0x1F] MOVE_ENTITY: Update entity position (mode=1)
  4: 0x00AB [0x1F] MOVE_ENTITY: EventEntity moves to X=-234.878*, Z=116.398*, Y=-0.456*
  5: 0x00B3 [0x1F] MOVE_ENTITY: Update entity position (mode=1)
  6: 0x00B5 [0x00] END_REQSTACK()
```

### Event 65535.9

#### Metadata

| Field        | Value    |
|--------------|----------|
| Entrypoint   | 0x00B6   |
| Data Size    | 16 bytes |
| Instructions | 5        |

```
      00 01 02 03 04 05 06 07  08 09 0A 0B 0C 0D 0E 0F
      -- -- -- -- -- -- -- --  -- -- -- -- -- -- -- --
00B0:                   33 01  32 04 80 1F 00 1F 80 20        3.2...... 
00C0: 80 21 80 1F 01 00                                 .!....          
```

#### Opcodes

```
  0: 0x00B6 [0x33] EventEntity->Render.Flags0 |= 0x200000 // Bit 21 (flag=0x01)
  1: 0x00B8 [0x32] ExtData[1]->MainSpeed = 30* * 0.1
  2: 0x00BB [0x1F] MOVE_ENTITY: EventEntity moves to X=-234.878*, Z=116.398*, Y=-0.456*
  3: 0x00C3 [0x1F] MOVE_ENTITY: Update entity position (mode=1)
  4: 0x00C5 [0x00] END_REQSTACK()
```

### Event 65535.10

#### Metadata

| Field        | Value    |
|--------------|----------|
| Entrypoint   | 0x00C6   |
| Data Size    | 52 bytes |
| Instructions | 10       |

```
      00 01 02 03 04 05 06 07  08 09 0A 0B 0C 0D 0E 0F
      -- -- -- -- -- -- -- --  -- -- -- -- -- -- -- --
00C0:                   03 00  00 1E 80 03 01 00 22 80        ........".
00D0: 02 00 00 1E 80 00 F9 00  07 01 00 23 80 37 24 80  ...........#.7$.
00E0: 01 00 25 80 26 80 02 01  00 27 80 00 F3 00 03 00  ..%.&....'......
00F0: 00 28 80 1C 28 80 01 D0  00 00                    .(..(.....      
```

#### Opcodes

```
  0: 0x00C6 [0x03] ExtData[1]->WorkLocal[0] = 0*
  1: 0x00CB [0x03] ExtData[1]->WorkLocal[1] = 156779*
  2: 0x00D0 [0x02] IF !(ExtData[1]->WorkLocal[0] == 0*) GOTO 0x00F9
  3: 0x00D8 [0x07] ExtData[1]->WorkLocal[1] += 180*
  4: 0x00DD [0x37] UPDATE_EVENT_POSITION_AND_DIR: x=378.860*, z=ExtData[1]->WorkLocal[1], y=2.212*, direction=265.8°*
  5: 0x00E6 [0x02] IF !(ExtData[1]->WorkLocal[1] == 170579*) GOTO 0x00F3
  6: 0x00EE [0x03] ExtData[1]->WorkLocal[0] = 1*
  7: 0x00F3 [0x1C] WAIT(1* ticks)
  8: 0x00F6 [0x01] GOTO 0x00D0
  9: 0x00F9 [0x00] END_REQSTACK()
```
