# 17138579

## Common Data

| Field            | Value                        |
|------------------|------------------------------|
| Zone             | North Gustaberg [S] (ID: 88) |
| Block Size       | 256 bytes                    |
| Total Events     | 4                            |
| References Count | 23                           |

## List of Events

| Event ID                 | Entrypoint   |   Size |   Instructions |
|--------------------------|--------------|--------|----------------|
| [65535](#event-65535)    | 0x0000       |      1 |              1 |
| [13](#event-13)          | 0x0001       |      7 |              2 |
| [65535.1](#event-655351) | 0x0008       |     37 |              7 |
| [65535.2](#event-655352) | 0x002D       |     84 |             18 |

## DAT References (imed_data)

|   Index | Hex Value   |   Dec Value |
|---------|-------------|-------------|
|       0 | 0x000D      |          13 |
|       1 | 0xFFFF3066  |  4294914150 |
|       2 | 0x008A      |         138 |
|       3 | 0x07CF      |        1999 |
|       4 | 0x001E      |          30 |
|       5 | 0x0045      |          69 |
|       6 | 0x0028      |          40 |
|       7 | 0xFFFF0C59  |  4294904921 |
|       8 | 0x19E6      |        6630 |
|       9 | 0xFFFF0976  |  4294904182 |
|      10 | 0xFFFFFABD  |  4294965949 |
|      11 | 0xFFFF0108  |  4294902024 |
|      12 | 0xFFFFFFAF  |  4294967215 |
|      13 | 0xFFFEF932  |  4294900018 |
|      14 | 0x15EF      |        5615 |
|      15 | 0xFFFEED71  |  4294897009 |
|      16 | 0x11B8      |        4536 |
|      17 | 0xFFFEE3B3  |  4294894515 |
|      18 | 0xFFFFF38A  |  4294964106 |
|      19 | 0xFFFED825  |  4294891557 |
|      20 | 0xFFFFFB8E  |  4294966158 |
|      21 | 0xFFFED457  |  4294890583 |
|      22 | 0x2A79      |       10873 |

## Events

### Event 65535

#### Metadata

| Field        | Value   |
|--------------|---------|
| Entrypoint   | 0x0000  |
| Data Size    | 1 bytes |
| Instructions | 1       |

```
      00 01 02 03 04 05 06 07  08 09 0A 0B 0C 0D 0E 0F
      -- -- -- -- -- -- -- --  -- -- -- -- -- -- -- --
0000: 00                                                .               
```

#### Opcodes

```
  0: 0x0000 [0x00] END_REQSTACK()
```

### Event 13

#### Metadata

| Field        | Value   |
|--------------|---------|
| Entrypoint   | 0x0001  |
| Data Size    | 7 bytes |
| Instructions | 2       |

```
      00 01 02 03 04 05 06 07  08 09 0A 0B 0C 0D 0E 0F
      -- -- -- -- -- -- -- --  -- -- -- -- -- -- -- --
0000:    92 01 F8 FF FF 7F 00                            .......        
```

#### Opcodes

```
  0: 0x0001 [0x92] EventEntity->Render.Flags3 ^= 0x01
  1: 0x0007 [0x00] END_REQSTACK()
```

### Event 65535.1

#### Metadata

| Field        | Value    |
|--------------|----------|
| Entrypoint   | 0x0008   |
| Data Size    | 37 bytes |
| Instructions | 7        |

```
      00 01 02 03 04 05 06 07  08 09 0A 0B 0C 0D 0E 0F
      -- -- -- -- -- -- -- --  -- -- -- -- -- -- -- --
0000:                          32 00 80 1F 00 01 80 02          2.......
0010: 80 03 80 1F 01 1E 92 83  05 01 1C 04 80 66 05 80  .............f..
0020: F8 FF FF 7F F8 FF FF 7F  74 6C 6B 30 00           ........tlk0.   
```

#### Opcodes

```
  0: 0x0008 [0x32] ExtData[1]->MainSpeed = 13* * 0.1
  1: 0x000B [0x1F] MOVE_ENTITY: EventEntity moves to X=-53.146*, Z=0.138*, Y=1.999*
  2: 0x0013 [0x1F] MOVE_ENTITY: Update entity position (mode=1)
  3: 0x0015 [0x1E] EventEntity looks at Unnamed NPC (ID: 17138578/0x01058392) and starts talking
  4: 0x001A [0x1C] WAIT(30* ticks)
  5: 0x001D [0x66] LOAD_EXT_SCHEDULER_MAIN: Load scheduler "tlk0" with entities [EventEntity, EventEntity], work=69*
  6: 0x002C [0x00] END_REQSTACK()
```

### Event 65535.2

#### Metadata

| Field        | Value    |
|--------------|----------|
| Entrypoint   | 0x002D   |
| Data Size    | 84 bytes |
| Instructions | 18       |

```
      00 01 02 03 04 05 06 07  08 09 0A 0B 0C 0D 0E 0F
      -- -- -- -- -- -- -- --  -- -- -- -- -- -- -- --
0020:                                         32 06 80               2..
0030: 1F 00 07 80 08 80 03 80  1F 01 1F 00 09 80 0A 80  ................
0040: 03 80 1F 01 1F 00 0B 80  0C 80 03 80 1F 01 1F 00  ................
0050: 0D 80 0E 80 03 80 1F 01  1F 00 0F 80 10 80 03 80  ................
0060: 1F 01 1F 00 11 80 12 80  03 80 1F 01 1F 00 13 80  ................
0070: 14 80 03 80 1F 01 1F 00  15 80 16 80 03 80 1F 01  ................
0080: 00                                                .               
```

#### Opcodes

```
  0: 0x002D [0x32] ExtData[1]->MainSpeed = 40* * 0.1
  1: 0x0030 [0x1F] MOVE_ENTITY: EventEntity moves to X=-62.375*, Z=6.630*, Y=1.999*
  2: 0x0038 [0x1F] MOVE_ENTITY: Update entity position (mode=1)
  3: 0x003A [0x1F] MOVE_ENTITY: EventEntity moves to X=-63.114*, Z=-1.347*, Y=1.999*
  4: 0x0042 [0x1F] MOVE_ENTITY: Update entity position (mode=1)
  5: 0x0044 [0x1F] MOVE_ENTITY: EventEntity moves to X=-65.272*, Z=-0.081*, Y=1.999*
  6: 0x004C [0x1F] MOVE_ENTITY: Update entity position (mode=1)
  7: 0x004E [0x1F] MOVE_ENTITY: EventEntity moves to X=-67.278*, Z=5.615*, Y=1.999*
  8: 0x0056 [0x1F] MOVE_ENTITY: Update entity position (mode=1)
  9: 0x0058 [0x1F] MOVE_ENTITY: EventEntity moves to X=-70.287*, Z=4.536*, Y=1.999*
 10: 0x0060 [0x1F] MOVE_ENTITY: Update entity position (mode=1)
 11: 0x0062 [0x1F] MOVE_ENTITY: EventEntity moves to X=-72.781*, Z=-3.190*, Y=1.999*
 12: 0x006A [0x1F] MOVE_ENTITY: Update entity position (mode=1)
 13: 0x006C [0x1F] MOVE_ENTITY: EventEntity moves to X=-75.739*, Z=-1.138*, Y=1.999*
 14: 0x0074 [0x1F] MOVE_ENTITY: Update entity position (mode=1)
 15: 0x0076 [0x1F] MOVE_ENTITY: EventEntity moves to X=-76.713*, Z=10.873*, Y=1.999*
 16: 0x007E [0x1F] MOVE_ENTITY: Update entity position (mode=1)
 17: 0x0080 [0x00] END_REQSTACK()
```
