# 17138567 - Pagdako

## Common Data

| Field            | Value                        |
|------------------|------------------------------|
| Zone             | North Gustaberg [S] (ID: 88) |
| Block Size       | 204 bytes                    |
| Total Events     | 4                            |
| References Count | 19                           |

## List of Events

| Event ID                 | Entrypoint   |   Size |   Instructions |
|--------------------------|--------------|--------|----------------|
| [65535](#event-65535)    | 0x0000       |      1 |              1 |
| [13](#event-13)          | 0x0001       |      7 |              2 |
| [65535.1](#event-655351) | 0x0008       |     14 |              4 |
| [65535.2](#event-655352) | 0x0016       |     74 |             16 |

## DAT References (imed_data)

|   Index | Hex Value   |   Dec Value |
|---------|-------------|-------------|
|       0 | 0x0028      |          40 |
|       1 | 0xFFFF1C28  |  4294908968 |
|       2 | 0x0D12      |        3346 |
|       3 | 0x07CF      |        1999 |
|       4 | 0x0032      |          50 |
|       5 | 0xFFFF0976  |  4294904182 |
|       6 | 0xFFFFFABD  |  4294965949 |
|       7 | 0xFFFF0108  |  4294902024 |
|       8 | 0xFFFFFFAF  |  4294967215 |
|       9 | 0xFFFEF932  |  4294900018 |
|      10 | 0x15EF      |        5615 |
|      11 | 0xFFFEED71  |  4294897009 |
|      12 | 0x11B8      |        4536 |
|      13 | 0xFFFEE3B3  |  4294894515 |
|      14 | 0xFFFFF38A  |  4294964106 |
|      15 | 0xFFFED825  |  4294891557 |
|      16 | 0xFFFFFB8E  |  4294966158 |
|      17 | 0xFFFED457  |  4294890583 |
|      18 | 0x2A79      |       10873 |

## Events

### Event 65535

#### Metadata

| Field        | Value   |
|--------------|---------|
| Entrypoint   | 0x0000  |
| Data Size    | 1 bytes |
| Instructions | 1       |

```
      00 01 02 03 04 05 06 07  08 09 0A 0B 0C 0D 0E 0F
      -- -- -- -- -- -- -- --  -- -- -- -- -- -- -- --
0000: 00                                                .               
```

#### Opcodes

```
  0: 0x0000 [0x00] END_REQSTACK()
```

### Event 13

#### Metadata

| Field        | Value   |
|--------------|---------|
| Entrypoint   | 0x0001  |
| Data Size    | 7 bytes |
| Instructions | 2       |

```
      00 01 02 03 04 05 06 07  08 09 0A 0B 0C 0D 0E 0F
      -- -- -- -- -- -- -- --  -- -- -- -- -- -- -- --
0000:    92 01 F8 FF FF 7F 00                            .......        
```

#### Opcodes

```
  0: 0x0001 [0x92] EventEntity->Render.Flags3 ^= 0x01
  1: 0x0007 [0x00] END_REQSTACK()
```

### Event 65535.1

#### Metadata

| Field        | Value    |
|--------------|----------|
| Entrypoint   | 0x0008   |
| Data Size    | 14 bytes |
| Instructions | 4        |

```
      00 01 02 03 04 05 06 07  08 09 0A 0B 0C 0D 0E 0F
      -- -- -- -- -- -- -- --  -- -- -- -- -- -- -- --
0000:                          32 00 80 1F 00 01 80 02          2.......
0010: 80 03 80 1F 01 00                                 ......          
```

#### Opcodes

```
  0: 0x0008 [0x32] ExtData[1]->MainSpeed = 40* * 0.1
  1: 0x000B [0x1F] MOVE_ENTITY: EventEntity moves to X=-58.328*, Z=3.346*, Y=1.999*
  2: 0x0013 [0x1F] MOVE_ENTITY: Update entity position (mode=1)
  3: 0x0015 [0x00] END_REQSTACK()
```

### Event 65535.2

#### Metadata

| Field        | Value    |
|--------------|----------|
| Entrypoint   | 0x0016   |
| Data Size    | 74 bytes |
| Instructions | 16       |

```
      00 01 02 03 04 05 06 07  08 09 0A 0B 0C 0D 0E 0F
      -- -- -- -- -- -- -- --  -- -- -- -- -- -- -- --
0010:                   32 04  80 1F 00 05 80 06 80 03        2.........
0020: 80 1F 01 1F 00 07 80 08  80 03 80 1F 01 1F 00 09  ................
0030: 80 0A 80 03 80 1F 01 1F  00 0B 80 0C 80 03 80 1F  ................
0040: 01 1F 00 0D 80 0E 80 03  80 1F 01 1F 00 0F 80 10  ................
0050: 80 03 80 1F 01 1F 00 11  80 12 80 03 80 1F 01 00  ................
```

#### Opcodes

```
  0: 0x0016 [0x32] ExtData[1]->MainSpeed = 50* * 0.1
  1: 0x0019 [0x1F] MOVE_ENTITY: EventEntity moves to X=-63.114*, Z=-1.347*, Y=1.999*
  2: 0x0021 [0x1F] MOVE_ENTITY: Update entity position (mode=1)
  3: 0x0023 [0x1F] MOVE_ENTITY: EventEntity moves to X=-65.272*, Z=-0.081*, Y=1.999*
  4: 0x002B [0x1F] MOVE_ENTITY: Update entity position (mode=1)
  5: 0x002D [0x1F] MOVE_ENTITY: EventEntity moves to X=-67.278*, Z=5.615*, Y=1.999*
  6: 0x0035 [0x1F] MOVE_ENTITY: Update entity position (mode=1)
  7: 0x0037 [0x1F] MOVE_ENTITY: EventEntity moves to X=-70.287*, Z=4.536*, Y=1.999*
  8: 0x003F [0x1F] MOVE_ENTITY: Update entity position (mode=1)
  9: 0x0041 [0x1F] MOVE_ENTITY: EventEntity moves to X=-72.781*, Z=-3.190*, Y=1.999*
 10: 0x0049 [0x1F] MOVE_ENTITY: Update entity position (mode=1)
 11: 0x004B [0x1F] MOVE_ENTITY: EventEntity moves to X=-75.739*, Z=-1.138*, Y=1.999*
 12: 0x0053 [0x1F] MOVE_ENTITY: Update entity position (mode=1)
 13: 0x0055 [0x1F] MOVE_ENTITY: EventEntity moves to X=-76.713*, Z=10.873*, Y=1.999*
 14: 0x005D [0x1F] MOVE_ENTITY: Update entity position (mode=1)
 15: 0x005F [0x00] END_REQSTACK()
```
