# 17138596

## Common Data

| Field            | Value                        |
|------------------|------------------------------|
| Zone             | North Gustaberg [S] (ID: 88) |
| Block Size       | 7776 bytes                   |
| Total Events     | 4                            |
| References Count | 227                          |

## List of Events

| Event ID              | Entrypoint   |   Size |   Instructions |
|-----------------------|--------------|--------|----------------|
| [65535](#event-65535) | 0x0000       |      1 |              1 |
| [14](#event-14)       | 0x0001       |   2086 |            235 |
| [15](#event-15)       | 0x0827       |   1139 |            133 |
| [16](#event-16)       | 0x0C9A       |   3609 |            407 |

## DAT References (imed_data)

|   Index | Hex Value   |   Dec Value |
|---------|-------------|-------------|
|       0 | 0x0013      |          19 |
|       1 | 0x31FCA     |      204746 |
|       2 | 0xA2EE4     |      667364 |
|       3 | 0xFFFFAEC2  |  4294946498 |
|       4 | 0x0DF1      |        3569 |
|       5 | 0x30DF2     |      200178 |
|       6 | 0x9CC7F     |      642175 |
|       7 | 0xFFFFB1E0  |  4294947296 |
|       8 | 0x0B37      |        2871 |
|       9 | 0x00FD      |         253 |
|      10 | 0x001E      |          30 |
|      11 | 0x0224      |         548 |
|      12 | 0x0000      |           0 |
|      13 | 0x0009      |           9 |
|      14 | 0x1FA8      |        8104 |
|      15 | 0x1FA9      |        8105 |
|      16 | 0x0007      |           7 |
|      17 | 0x005A      |          90 |
|      18 | 0x1FAA      |        8106 |
|      19 | 0x0078      |         120 |
|      20 | 0x003C      |          60 |
|      21 | 0x1FAB      |        8107 |
|      22 | 0x1FAC      |        8108 |
|      23 | 0x000A      |          10 |
|      24 | 0x1FAD      |        8109 |
|      25 | 0x0019      |          25 |
|      26 | 0x1FAE      |        8110 |
|      27 | 0x00A0      |         160 |
|      28 | 0x0028      |          40 |
|      29 | 0x1FAF      |        8111 |
|      30 | 0x001A      |          26 |
|      31 | 0x1FB0      |        8112 |
|      32 | 0x31E3F     |      204351 |
|      33 | 0xA32E0     |      668384 |
|      34 | 0xFFFFAEF1  |  4294946545 |
|      35 | 0x0F20      |        3872 |
|      36 | 0x0856      |        2134 |
|      37 | 0x1FB1      |        8113 |
|      38 | 0x1FB2      |        8114 |
|      39 | 0x1FB3      |        8115 |
|      40 | 0x0032      |          50 |
|      41 | 0x0064      |         100 |
|      42 | 0x1FB4      |        8116 |
|      43 | 0x0006      |           6 |
|      44 | 0x1FB5      |        8117 |
|      45 | 0x00B4      |         180 |
|      46 | 0x00F0      |         240 |
|      47 | 0x1FB6      |        8118 |
|      48 | 0x000F      |          15 |
|      49 | 0x0001      |           1 |
|      50 | 0x0050      |          80 |
|      51 | 0x0002      |           2 |
|      52 | 0x0005      |           5 |
|      53 | 0x0016      |          22 |
|      54 | 0x1FB7      |        8119 |
|      55 | 0x0020      |          32 |
|      56 | 0x1FB8      |        8120 |
|      57 | 0x00C8      |         200 |
|      58 | 0xFFF9E6A8  |  4294567592 |
|      59 | 0xFFFE963F  |  4294874687 |
|      60 | 0x9C30      |       39984 |
|      61 | 0x05C9      |        1481 |
|      62 | 0xFFF9F093  |  4294570131 |
|      63 | 0xFFFE95A4  |  4294874532 |
|      64 | 0x9CDA      |       40154 |
|      65 | 0xFFF9C09B  |  4294557851 |
|      66 | 0xFFFE5B4B  |  4294859595 |
|      67 | 0x9A6F      |       39535 |
|      68 | 0x002B      |          43 |
|      69 | 0x1FBA      |        8122 |
|      70 | 0x1FBB      |        8123 |
|      71 | 0x1FBC      |        8124 |
|      72 | 0x0854      |        2132 |
|      73 | 0x1FBD      |        8125 |
|      74 | 0x1FBE      |        8126 |
|      75 | 0x0857      |        2135 |
|      76 | 0x008C      |         140 |
|      77 | 0x1FBF      |        8127 |
|      78 | 0xFFF9E8D3  |  4294568147 |
|      79 | 0xFFFE951F  |  4294874399 |
|      80 | 0x9C00      |       39936 |
|      81 | 0x0AEB      |        2795 |
|      82 | 0x0003      |           3 |
|      83 | 0x0008      |           8 |
|      84 | 0x1FC0      |        8128 |
|      85 | 0x1FC1      |        8129 |
|      86 | 0xFFF87003  |  4294471683 |
|      87 | 0x87E1E     |      556574 |
|      88 | 0x9993      |       39315 |
|      89 | 0x0A3C      |        2620 |
|      90 | 0xFFF81A1C  |  4294449692 |
|      91 | 0x8C1EF     |      573935 |
|      92 | 0x9ACE      |       39630 |
|      93 | 0xFFF82F98  |  4294455192 |
|      94 | 0x898BB     |      563387 |
|      95 | 0x9B96      |       39830 |
|      96 | 0xFFF83DC9  |  4294458825 |
|      97 | 0x89B8E     |      564110 |
|      98 | 0x99D5      |       39381 |
|      99 | 0xFFF86F67  |  4294471527 |
|     100 | 0x87CF1     |      556273 |
|     101 | 0x9944      |       39236 |
|     102 | 0x0EE9      |        3817 |
|     103 | 0xFFF83229  |  4294455849 |
|     104 | 0x8CC00     |      576512 |
|     105 | 0x98EF      |       39151 |
|     106 | 0x0A67      |        2663 |
|     107 | 0x1FC2      |        8130 |
|     108 | 0x0015      |          21 |
|     109 | 0x00F6      |         246 |
|     110 | 0x08C2      |        2242 |
|     111 | 0x1FC3      |        8131 |
|     112 | 0xFFF82891  |  4294453393 |
|     113 | 0x8C399     |      574361 |
|     114 | 0x997D      |       39293 |
|     115 | 0x1FC4      |        8132 |
|     116 | 0x96C8      |       38600 |
|     117 | 0x1FC5      |        8133 |
|     118 | 0xFFF82A40  |  4294453824 |
|     119 | 0x8C0CF     |      573647 |
|     120 | 0x9892      |       39058 |
|     121 | 0xFFF84799  |  4294461337 |
|     122 | 0x8B95F     |      571743 |
|     123 | 0x9609      |       38409 |
|     124 | 0x00FA      |         250 |
|     125 | 0x085E      |        2142 |
|     126 | 0x1FC6      |        8134 |
|     127 | 0x00B9      |         185 |
|     128 | 0x1FC7      |        8135 |
|     129 | 0xFFF89C60  |  4294483040 |
|     130 | 0x84D73     |      544115 |
|     131 | 0x99B7      |       39351 |
|     132 | 0x09B3      |        2483 |
|     133 | 0xFFF89D17  |  4294483223 |
|     134 | 0x83EE5     |      540389 |
|     135 | 0x97A5      |       38821 |
|     136 | 0xFFF8A07C  |  4294484092 |
|     137 | 0x843D4     |      541652 |
|     138 | 0x98ED      |       39149 |
|     139 | 0xFFF8A65C  |  4294485596 |
|     140 | 0x84C1A     |      543770 |
|     141 | 0x9B0C      |       39692 |
|     142 | 0xFFF8AAEF  |  4294486767 |
|     143 | 0x85142     |      545090 |
|     144 | 0x9BE7      |       39911 |
|     145 | 0x1FC8      |        8136 |
|     146 | 0x1FC9      |        8137 |
|     147 | 0xFFF884A4  |  4294476964 |
|     148 | 0x87887     |      555143 |
|     149 | 0x999B      |       39323 |
|     150 | 0x01E8      |         488 |
|     151 | 0xFFF88BEA  |  4294478826 |
|     152 | 0x87BDB     |      555995 |
|     153 | 0x9B2B      |       39723 |
|     154 | 0xFFF85F72  |  4294467442 |
|     155 | 0x88AF4     |      559860 |
|     156 | 0x9C14      |       39956 |
|     157 | 0x09C7      |        2503 |
|     158 | 0x002D      |          45 |
|     159 | 0x0501      |        1281 |
|     160 | 0xFFF834AF  |  4294456495 |
|     161 | 0x8B4B6     |      570550 |
|     162 | 0x9700      |       38656 |
|     163 | 0x0A68      |        2664 |
|     164 | 0xFFF8319D  |  4294455709 |
|     165 | 0x8ABCC     |      568268 |
|     166 | 0x9780      |       38784 |
|     167 | 0xFFF83D76  |  4294458742 |
|     168 | 0x8B668     |      570984 |
|     169 | 0x9779      |       38777 |
|     170 | 0x0014      |          20 |
|     171 | 0x0046      |          70 |
|     172 | 0x1FCA      |        8138 |
|     173 | 0x01A4      |         420 |
|     174 | 0x0526      |        1318 |
|     175 | 0x00AA      |         170 |
|     176 | 0xFFF892C7  |  4294480583 |
|     177 | 0x889C7     |      559559 |
|     178 | 0x9C3F      |       39999 |
|     179 | 0x081F      |        2079 |
|     180 | 0xFFF896CD  |  4294481613 |
|     181 | 0x88358     |      557912 |
|     182 | 0xFFF88EE4  |  4294479588 |
|     183 | 0x87DB7     |      556471 |
|     184 | 0x9B8F      |       39823 |
|     185 | 0x0904      |        2308 |
|     186 | 0xFFF895C5  |  4294481349 |
|     187 | 0x87D92     |      556434 |
|     188 | 0x9BF2      |       39922 |
|     189 | 0x0910      |        2320 |
|     190 | 0xFFF8780C  |  4294473740 |
|     191 | 0x87DF2     |      556530 |
|     192 | 0x99F0      |       39408 |
|     193 | 0x0945      |        2373 |
|     194 | 0xFFF87A7C  |  4294474364 |
|     195 | 0x882A8     |      557736 |
|     196 | 0x9AE1      |       39649 |
|     197 | 0x08FA      |        2298 |
|     198 | 0xFFF87BFD  |  4294474749 |
|     199 | 0x88DDA     |      560602 |
|     200 | 0x9BFF      |       39935 |
|     201 | 0x08DD      |        2269 |
|     202 | 0xFFF87C4E  |  4294474830 |
|     203 | 0x89204     |      561668 |
|     204 | 0x9B95      |       39829 |
|     205 | 0xFFF82F59  |  4294455129 |
|     206 | 0x89ECA     |      564938 |
|     207 | 0x9C40      |       40000 |
|     208 | 0x03E8      |        1000 |
|     209 | 0xFFF840CD  |  4294459597 |
|     210 | 0x8A873     |      567411 |
|     211 | 0x98BC      |       39100 |
|     212 | 0x076C      |        1900 |
|     213 | 0xFFF85460  |  4294464608 |
|     214 | 0x88BDD     |      560093 |
|     215 | 0x9C1E      |       39966 |
|     216 | 0xFFF83557  |  4294456663 |
|     217 | 0x8A5CD     |      566733 |
|     218 | 0x9827      |       38951 |
|     219 | 0x0140      |         320 |
|     220 | 0x0010      |          16 |
|     221 | 0x0045      |          69 |
|     222 | 0x1FCB      |        8139 |
|     223 | 0x1FCC      |        8140 |
|     224 | 0x00C9      |         201 |
|     225 | 0x00D7      |         215 |
|     226 | 0x0223      |         547 |

## Events

### Event 65535

#### Metadata

| Field        | Value   |
|--------------|---------|
| Entrypoint   | 0x0000  |
| Data Size    | 1 bytes |
| Instructions | 1       |

```
      00 01 02 03 04 05 06 07  08 09 0A 0B 0C 0D 0E 0F
      -- -- -- -- -- -- -- --  -- -- -- -- -- -- -- --
0000: 00                                                .               
```

#### Opcodes

```
  0: 0x0000 [0x00] END_REQSTACK()
```

### Event 14

#### Metadata

| Field        | Value      |
|--------------|------------|
| Entrypoint   | 0x0001     |
| Data Size    | 2086 bytes |
| Instructions | 235        |

```
      00 01 02 03 04 05 06 07  08 09 0A 0B 0C 0D 0E 0F
      -- -- -- -- -- -- -- --  -- -- -- -- -- -- -- --
0000:    42 1A 43 18 46 01 38  00 80 27 10 A6 83 05 01   B.C.F.8..'.....
0010: 09 27 10 29 83 05 01 0C  27 10 A7 83 05 01 08 92  .'.)....'.......
0020: 01 A6 83 05 01 92 01 29  83 05 01 92 01 A7 83 05  .......)........
0030: 01 94 01 A6 83 05 01 94  01 29 83 05 01 94 01 A7  .........)......
0040: 83 05 01 80 A6 83 05 01  80 29 83 05 01 80 A7 83  .........)......
0050: 05 01 BA F0 FF FF 7F 01  80 02 80 03 80 04 80 BA  ................
0060: A6 83 05 01 01 80 02 80  03 80 04 80 BA A7 83 05  ................
0070: 01 05 80 06 80 07 80 08  80 4A A7 83 05 01 29 83  .........J....).
0080: 05 01 4A F0 FF FF 7F 29  83 05 01 4A 29 83 05 01  ..J....)...J)...
0090: F0 FF FF 7F 4A A6 83 05  01 29 83 05 01 5C 00 09  ....J....)...\..
00A0: 80 5C 01 09 80 1C 0A 80  9A 45 0B 80 F8 FF FF 7F  .\.......E......
00B0: F8 FF FF 7F 62 30 33 30  0C 80 1A 22 18 66 0D 80  ....b030...".f..
00C0: 29 83 05 01 29 83 05 01  74 6C 6B 30 2B 29 83 05  )...)...tlk0+)..
00D0: 01 0E 80 23 66 0D 80 29  83 05 01 29 83 05 01 74  ...#f..)...)...t
00E0: 6C 6B 31 52 0B 80 F8 FF  FF 7F F8 FF FF 7F 62 30  lk1R..........b0
00F0: 33 30 45 0B 80 F8 FF FF  7F F8 FF FF 7F 62 30 33  30E..........b03
0100: 31 0C 80 2B 29 83 05 01  0F 80 23 6E F0 FF FF 7F  1..+).....#n....
0110: 10 80 99 F0 FF FF 7F 1C  11 80 7B 29 83 05 01 66  ..........{)...f
0120: 0D 80 29 83 05 01 29 83  05 01 74 68 6B 31 2B 29  ..)...)...thk1+)
0130: 83 05 01 12 80 23 52 0B  80 F8 FF FF 7F F8 FF FF  .....#R.........
0140: 7F 62 30 33 31 45 0B 80  F8 FF FF 7F F8 FF FF 7F  .b031E..........
0150: 6F 76 34 30 0C 80 45 0B  80 F8 FF FF 7F F8 FF FF  ov40..E.........
0160: 7F 62 30 33 32 0C 80 1C  13 80 1A 85 18 52 0B 80  .b032........R..
0170: F8 FF FF 7F F8 FF FF 7F  62 30 33 32 1C 0A 80 6B  ........b032...k
0180: 69 64 6C 30 29 83 05 01  4A 29 83 05 01 A6 83 05  idl0)...J)......
0190: 01 27 10 A6 83 05 01 05  27 10 F0 FF FF 7F 2A 1C  .'......'.....*.
01A0: 14 80 45 0B 80 F8 FF FF  7F F8 FF FF 7F 62 30 33  ..E..........b03
01B0: 33 0C 80 1A 71 1A 6E 29  83 05 01 10 80 99 29 83  3...q.n)......).
01C0: 05 01 2B 29 83 05 01 15  80 23 52 0B 80 F8 FF FF  ..+).....#R.....
01D0: 7F F8 FF FF 7F 62 30 33  33 45 0B 80 F8 FF FF 7F  .....b033E......
01E0: F8 FF FF 7F 6F 76 34 30  0C 80 45 0B 80 F8 FF FF  ....ov40..E.....
01F0: 7F F8 FF FF 7F 62 30 33  34 0C 80 66 0D 80 29 83  .....b034..f..).
0200: 05 01 29 83 05 01 74 6C  6B 30 2B 29 83 05 01 16  ..)...tlk0+)....
0210: 80 23 66 0D 80 29 83 05  01 29 83 05 01 74 6C 6B  .#f..)...)...tlk
0220: 31 27 10 A7 83 05 01 02  1C 17 80 52 0B 80 F8 FF  1'.........R....
0230: FF 7F F8 FF FF 7F 62 30  33 34 45 0B 80 F8 FF FF  ......b034E.....
0240: 7F F8 FF FF 7F 62 30 33  35 0C 80 2B A7 83 05 01  .....b035..+....
0250: 18 80 1C 19 80 4A 29 83  05 01 A7 83 05 01 1C 0A  .....J).........
0260: 80 4A A6 83 05 01 A7 83  05 01 1C 14 80 52 0B 80  .J...........R..
0270: F8 FF FF 7F F8 FF FF 7F  62 30 33 35 45 0B 80 F8  ........b035E...
0280: FF FF 7F F8 FF FF 7F 6F  76 34 30 0C 80 45 0B 80  .......ov40..E..
0290: F8 FF FF 7F F8 FF FF 7F  62 30 33 36 0C 80 27 10  ........b036..'.
02A0: 29 83 05 01 07 2B 29 83  05 01 1A 80 1C 1B 80 52  )....+)........R
02B0: 0B 80 F8 FF FF 7F F8 FF  FF 7F 62 30 33 36 45 0B  ..........b036E.
02C0: 80 F8 FF FF 7F F8 FF FF  7F 6F 76 34 30 0C 80 45  .........ov40..E
02D0: 0B 80 F8 FF FF 7F F8 FF  FF 7F 30 62 6C 72 0C 80  ..........0blr..
02E0: 45 0B 80 F8 FF FF 7F F8  FF FF 7F 62 30 33 37 0C  E..........b037.
02F0: 80 4A A6 83 05 01 A7 83  05 01 1C 1C 80 66 0D 80  .J...........f..
0300: 29 83 05 01 29 83 05 01  74 6C 6B 30 2B 29 83 05  )...)...tlk0+)..
0310: 01 1D 80 4A A6 83 05 01  A7 83 05 01 2A 10 A7 83  ...J........*...
0320: 05 01 4A A6 83 05 01 A7  83 05 01 23 66 0D 80 29  ..J........#f..)
0330: 83 05 01 29 83 05 01 74  6C 6B 31 6E A7 83 05 01  ...)...tlk1n....
0340: 1E 80 99 A7 83 05 01 52  0B 80 F8 FF FF 7F F8 FF  .......R........
0350: FF 7F 62 30 33 37 45 0B  80 F8 FF FF 7F F8 FF FF  ..b037E.........
0360: 7F 62 30 33 38 0C 80 2B  A7 83 05 01 1F 80 BA A6  .b038..+........
0370: 83 05 01 20 80 21 80 22  80 23 80 4A A6 83 05 01  ... .!.".#.J....
0380: A7 83 05 01 6F 76 A6 83  05 01 23 52 0B 80 F8 FF  ....ov....#R....
0390: FF 7F F8 FF FF 7F 62 30  33 38 45 0B 80 F8 FF FF  ......b038E.....
03A0: 7F F8 FF FF 7F 62 30 33  39 0C 80 5B 24 80 A6 83  .....b039..[$...
03B0: 05 01 A6 83 05 01 74 6C  61 30 2B A6 83 05 01 25  ......tla0+....%
03C0: 80 1C 14 80 4A A7 83 05  01 A6 83 05 01 23 5B 24  ....J........#[$
03D0: 80 A6 83 05 01 A6 83 05  01 74 6C 61 31 6F 76 2B  .........tla1ov+
03E0: 83 05 01 6E A7 83 05 01  10 80 99 A7 83 05 01 2B  ...n...........+
03F0: A7 83 05 01 26 80 23 6E  29 83 05 01 19 80 99 29  ....&.#n)......)
0400: 83 05 01 52 0B 80 F8 FF  FF 7F F8 FF FF 7F 62 30  ...R..........b0
0410: 33 39 45 0B 80 F8 FF FF  7F F8 FF FF 7F 62 30 34  39E..........b04
0420: 30 0C 80 2B 29 83 05 01  27 80 1C 28 80 4A A7 83  0..+)...'..(.J..
0430: 05 01 29 83 05 01 1C 0A  80 4A A6 83 05 01 29 83  ..)......J....).
0440: 05 01 1C 29 80 23 52 0B  80 F8 FF FF 7F F8 FF FF  ...).#R.........
0450: 7F 62 30 34 30 45 0B 80  F8 FF FF 7F F8 FF FF 7F  .b040E..........
0460: 6F 76 34 30 0C 80 45 0B  80 F8 FF FF 7F F8 FF FF  ov40..E.........
0470: 7F 30 62 6C 72 0C 80 45  0B 80 F8 FF FF 7F F8 FF  .0blr..E........
0480: FF 7F 62 31 34 30 0C 80  66 0D 80 A7 83 05 01 A7  ..b140..f.......
0490: 83 05 01 74 6C 6B 30 2B  A7 83 05 01 2A 80 23 66  ...tlk0+....*.#f
04A0: 0D 80 A7 83 05 01 A7 83  05 01 74 6C 6B 31 6E 29  ..........tlk1n)
04B0: 83 05 01 2B 80 99 29 83  05 01 2B 29 83 05 01 2C  ...+..)...+)...,
04C0: 80 1C 2D 80 23 52 0B 80  F8 FF FF 7F F8 FF FF 7F  ..-.#R..........
04D0: 62 31 34 30 45 0B 80 F8  FF FF 7F F8 FF FF 7F 6F  b140E..........o
04E0: 76 34 30 0C 80 45 0B 80  F8 FF FF 7F F8 FF FF 7F  v40..E..........
04F0: 62 31 34 31 0C 80 66 0D  80 A7 83 05 01 A7 83 05  b141..f.........
0500: 01 74 6C 6B 30 1C 1B 80  66 24 80 A6 83 05 01 A6  .tlk0...f$......
0510: 83 05 01 74 68 61 30 52  0B 80 F8 FF FF 7F F8 FF  ...tha0R........
0520: FF 7F 62 31 34 31 45 0B  80 F8 FF FF 7F F8 FF FF  ..b141E.........
0530: 7F 6F 76 34 30 0C 80 45  0B 80 F8 FF FF 7F F8 FF  .ov40..E........
0540: FF 7F 62 32 34 31 0C 80  66 0D 80 A7 83 05 01 A7  ..b241..f.......
0550: 83 05 01 74 6C 6B 31 1C  2E 80 7B A6 83 05 01 52  ...tlk1...{....R
0560: 0B 80 F8 FF FF 7F F8 FF  FF 7F 62 32 34 31 45 0B  ..........b241E.
0570: 80 F8 FF FF 7F F8 FF FF  7F 6F 76 34 30 0C 80 45  .........ov40..E
0580: 0B 80 F8 FF FF 7F F8 FF  FF 7F 62 30 34 31 0C 80  ..........b041..
0590: 1C 14 80 4A 29 83 05 01  A6 83 05 01 6F 76 29 83  ...J).......ov).
05A0: 05 01 66 0D 80 29 83 05  01 29 83 05 01 74 77 61  ..f..)...)...twa
05B0: 30 2B 29 83 05 01 2F 80  1C 30 80 79 00 A6 83 05  0+).../..0.y....
05C0: 01 29 83 05 01 66 24 80  A6 83 05 01 A6 83 05 01  .)...f$.........
05D0: 74 68 61 31 23 66 0D 80  29 83 05 01 29 83 05 01  tha1#f..)...)...
05E0: 74 77 61 31 1A 85 18 52  0B 80 F8 FF FF 7F F8 FF  twa1...R........
05F0: FF 7F 62 30 34 31 1C 31  80 27 10 A6 83 05 01 04  ..b041.1.'......
0600: 27 10 A7 83 05 01 03 27  10 F0 FF FF 7F 2B 4A 29  '......'.....+J)
0610: 83 05 01 F0 FF FF 7F 7B  29 83 05 01 1C 0A 80 66  .......{)......f
0620: 0D 80 29 83 05 01 29 83  05 01 74 68 6B 31 1C 32  ..)...)...thk1.2
0630: 80 45 0B 80 F8 FF FF 7F  F8 FF FF 7F 62 30 34 32  .E..........b042
0640: 0C 80 1A 92 1A 1C 14 80  66 0D 80 29 83 05 01 29  ........f..)...)
0650: 83 05 01 74 68 6B 32 1C  1B 80 29 10 F0 FF FF 7F  ...thk2...).....
0660: 2C 02 02 10 33 80 80 9D  06 52 0B 80 F8 FF FF 7F  ,...3....R......
0670: F8 FF FF 7F 62 30 34 32  45 0B 80 F8 FF FF 7F F8  ....b042E.......
0680: FF FF 7F 6F 76 34 30 0C  80 45 0B 80 F8 FF FF 7F  ...ov40..E......
0690: F8 FF FF 7F 62 74 34 33  0C 80 01 82 07 02 02 10  ....bt43........
06A0: 34 80 80 D9 06 52 0B 80  F8 FF FF 7F F8 FF FF 7F  4....R..........
06B0: 62 30 34 32 45 0B 80 F8  FF FF 7F F8 FF FF 7F 6F  b042E..........o
06C0: 76 34 30 0C 80 45 0B 80  F8 FF FF 7F F8 FF FF 7F  v40..E..........
06D0: 62 74 34 33 0C 80 01 82  07 02 02 10 2B 80 80 15  bt43........+...
06E0: 07 52 0B 80 F8 FF FF 7F  F8 FF FF 7F 62 30 34 32  .R..........b042
06F0: 45 0B 80 F8 FF FF 7F F8  FF FF 7F 6F 76 34 30 0C  E..........ov40.
0700: 80 45 0B 80 F8 FF FF 7F  F8 FF FF 7F 62 74 34 33  .E..........bt43
0710: 0C 80 01 82 07 02 02 10  10 80 80 51 07 52 0B 80  ...........Q.R..
0720: F8 FF FF 7F F8 FF FF 7F  62 30 34 32 45 0B 80 F8  ........b042E...
0730: FF FF 7F F8 FF FF 7F 6F  76 34 30 0C 80 45 0B 80  .......ov40..E..
0740: F8 FF FF 7F F8 FF FF 7F  62 74 34 33 0C 80 01 82  ........bt43....
0750: 07 52 0B 80 F8 FF FF 7F  F8 FF FF 7F 62 30 34 32  .R..........b042
0760: 45 0B 80 F8 FF FF 7F F8  FF FF 7F 6F 76 34 30 0C  E..........ov40.
0770: 80 45 0B 80 F8 FF FF 7F  F8 FF FF 7F 62 30 34 33  .E..........b043
0780: 0C 80 1C 1C 80 79 00 29  83 05 01 F0 FF FF 7F 6E  .....y.).......n
0790: F0 FF FF 7F 35 80 99 F0  FF FF 7F 1C 13 80 2B 29  ....5.........+)
07A0: 83 05 01 36 80 1C 1C 80  23 52 0B 80 F8 FF FF 7F  ...6....#R......
07B0: F8 FF FF 7F 62 74 34 33  52 0B 80 F8 FF FF 7F F8  ....bt43R.......
07C0: FF FF 7F 62 30 34 33 45  0B 80 F8 FF FF 7F F8 FF  ...b043E........
07D0: FF 7F 6F 76 34 30 0C 80  45 0B 80 F8 FF FF 7F F8  ..ov40..E.......
07E0: FF FF 7F 62 30 34 34 0C  80 6E 29 83 05 01 37 80  ...b044..n)...7.
07F0: 99 29 83 05 01 2B 29 83  05 01 38 80 23 1A 43 18  .)...+)...8.#.C.
0800: 52 0B 80 F8 FF FF 7F F8  FF FF 7F 62 30 34 34 1C  R..........b044.
0810: 0A 80 46 00 45 39 80 F0  FF FF 7F F0 FF FF 7F 66  ..F.E9.........f
0820: 64 69 32 0C 80 21 00                              di2..!.         
```

#### Opcodes

```
  0: 0x0001 [0x42] SET_CLI_EVENT_CANCEL_DATA()
  1: 0x0002 [0x1A] CALL_SUBROUTINE(address=0x1843)
  2: 0x0005 [0x46] CAMERA_CONTROL: Disable user control
  3: 0x0007 [0x38] SET_CLIENT_EVENT_MODE(mode=19*)
  4: 0x000A [0x27] REQ_SET(priority=0x10, entity_id=Lilisette (ID: 17138598/0x010583A6), tag_num=0x09)
  5: 0x0011 [0x27] REQ_SET(priority=0x10, entity_id=Gebhardt (ID: 17138473/0x01058329), tag_num=0x0C)
  6: 0x0018 [0x27] REQ_SET(priority=0x10, entity_id=Wilmar (ID: 17138599/0x010583A7), tag_num=0x08)
  7: 0x001F [0x92] Lilisette (ID: 17138598/0x010583A6)->Render.Flags3 ^= 0x01
  8: 0x0025 [0x92] Gebhardt (ID: 17138473/0x01058329)->Render.Flags3 ^= 0x01
  9: 0x002B [0x92] Wilmar (ID: 17138599/0x010583A7)->Render.Flags3 ^= 0x01
 10: 0x0031 [0x94] Lilisette (ID: 17138598/0x010583A6)->Render.Flags3 ^= 0x01
 11: 0x0037 [0x94] Gebhardt (ID: 17138473/0x01058329)->Render.Flags3 ^= 0x01
 12: 0x003D [0x94] Wilmar (ID: 17138599/0x010583A7)->Render.Flags3 ^= 0x01
 13: 0x0043 [0x80] LOAD_WAIT(entity=Lilisette (ID: 17138598/0x010583A6))
 14: 0x0048 [0x80] LOAD_WAIT(entity=Gebhardt (ID: 17138473/0x01058329))
 15: 0x004D [0x80] LOAD_WAIT(entity=Wilmar (ID: 17138599/0x010583A7))
 16: 0x0052 [0xBA] SET_ENTITY_POSITION(entity_id=LocalPlayer, pos_x=204.746*, pos_z=667.364*, pos_y=-20.798*, direction=313.7°*)
 17: 0x005F [0xBA] SET_ENTITY_POSITION(entity_id=Lilisette (ID: 17138598/0x010583A6), pos_x=204.746*, pos_z=667.364*, pos_y=-20.798*, direction=313.7°*)
 18: 0x006C [0xBA] SET_ENTITY_POSITION(entity_id=Wilmar (ID: 17138599/0x010583A7), pos_x=200.178*, pos_z=642.175*, pos_y=-20.000*, direction=252.3°*)
 19: 0x0079 [0x4A] Wilmar (ID: 17138599/0x010583A7) looks at Gebhardt (ID: 17138473/0x01058329)
 20: 0x0082 [0x4A] LocalPlayer looks at Gebhardt (ID: 17138473/0x01058329)
 21: 0x008B [0x4A] Gebhardt (ID: 17138473/0x01058329) looks at LocalPlayer
 22: 0x0094 [0x4A] Lilisette (ID: 17138598/0x010583A6) looks at Gebhardt (ID: 17138473/0x01058329)
 23: 0x009D [0x5C] MUSIC_CONTROL: Set Idle (Day) music to song 253*
 24: 0x00A1 [0x5C] MUSIC_CONTROL: Set Idle (Night) music to song 253*
 25: 0x00A5 [0x1C] WAIT(30* ticks)
 26: 0x00A8 [0x9A] WAIT_MUSIC_SERVER()
 27: 0x00A9 [0x45] LOAD_SCHEDULED_TASK: Load scheduler "b030" with entities [EventEntity, EventEntity], work=[548*, 0*]
 28: 0x00BA [0x1A] CALL_SUBROUTINE(address=0x1822)
 29: 0x00BD [0x66] LOAD_EXT_SCHEDULER_MAIN: Load scheduler "tlk0" with entities [Gebhardt (ID: 17138473/0x01058329), Gebhardt (ID: 17138473/0x01058329)], work=9*
 30: 0x00CC [0x2B] Gebhardt (ID: 17138473/0x01058329) [8104*]:
    → "By gosh, is it time already for rations? Oh, an unrelated matter? My mistake."
 31: 0x00D3 [0x23] WAIT_FOR_DIALOG_INTERACTION
 32: 0x00D4 [0x66] LOAD_EXT_SCHEDULER_MAIN: Load scheduler "tlk1" with entities [Gebhardt (ID: 17138473/0x01058329), Gebhardt (ID: 17138473/0x01058329)], work=9*
 33: 0x00E3 [0x52] END_LOAD_SCHEDULER: End scheduler "b030" with entities [EventEntity, EventEntity], work=548*
 34: 0x00F2 [0x45] LOAD_SCHEDULED_TASK: Load scheduler "b031" with entities [EventEntity, EventEntity], work=[548*, 0*]
 35: 0x0103 [0x2B] Gebhardt (ID: 17138473/0x01058329) [8105*]:
    → "Hm? You want to know if a red-headed dancer lass has brought us supplies recently?"
 36: 0x010A [0x23] WAIT_FOR_DIALOG_INTERACTION
 37: 0x010B [0x6E] LocalPlayer uses emote 7*
 38: 0x0112 [0x99] Wait for LocalPlayer animation to complete
 39: 0x0117 [0x1C] WAIT(90* ticks)
 40: 0x011A [0x7B] Gebhardt (ID: 17138473/0x01058329) stops talking
 41: 0x011F [0x66] LOAD_EXT_SCHEDULER_MAIN: Load scheduler "thk1" with entities [Gebhardt (ID: 17138473/0x01058329), Gebhardt (ID: 17138473/0x01058329)], work=9*
 42: 0x012E [0x2B] Gebhardt (ID: 17138473/0x01058329) [8106*]:
    → "Sounds like a delivery service made in heaven, if you ask me. As such, I'm as disappointed as you are to answer in the negative."
 43: 0x0135 [0x23] WAIT_FOR_DIALOG_INTERACTION
 44: 0x0136 [0x52] END_LOAD_SCHEDULER: End scheduler "b031" with entities [EventEntity, EventEntity], work=548*
 45: 0x0145 [0x45] LOAD_SCHEDULED_TASK: Load scheduler "ov40" with entities [EventEntity, EventEntity], work=[548*, 0*]
 46: 0x0156 [0x45] LOAD_SCHEDULED_TASK: Load scheduler "b032" with entities [EventEntity, EventEntity], work=[548*, 0*]
 47: 0x0167 [0x1C] WAIT(120* ticks)
 48: 0x016A [0x1A] CALL_SUBROUTINE(address=0x1885)
 49: 0x016D [0x52] END_LOAD_SCHEDULER: End scheduler "b032" with entities [EventEntity, EventEntity], work=548*
 50: 0x017C [0x1C] WAIT(30* ticks)
 51: 0x017F [0x6B] STOP_AND_IDLE: Gebhardt (ID: 17138473/0x01058329) stops current action and resets to idle (animation="idl0")
 52: 0x0188 [0x4A] Gebhardt (ID: 17138473/0x01058329) looks at Lilisette (ID: 17138598/0x010583A6)
 53: 0x0191 [0x27] REQ_SET(priority=0x10, entity_id=Lilisette (ID: 17138598/0x010583A6), tag_num=0x05)
 54: 0x0198 [0x27] REQ_SET(priority=0x10, entity_id=LocalPlayer, tag_num=0x2A)
 55: 0x019F [0x1C] WAIT(60* ticks)
 56: 0x01A2 [0x45] LOAD_SCHEDULED_TASK: Load scheduler "b033" with entities [EventEntity, EventEntity], work=[548*, 0*]
 57: 0x01B3 [0x1A] CALL_SUBROUTINE(address=0x1A71)
 58: 0x01B6 [0x6E] Gebhardt (ID: 17138473/0x01058329) uses emote 7*
 59: 0x01BD [0x99] Wait for Gebhardt (ID: 17138473/0x01058329) animation to complete
 60: 0x01C2 [0x2B] Gebhardt (ID: 17138473/0x01058329) [8107*]:
    → "Finally, the rations! With the beastmen constantly harrying our supply routes, the men and I didn't know when we'd see our next faerie apple."
 61: 0x01C9 [0x23] WAIT_FOR_DIALOG_INTERACTION
 62: 0x01CA [0x52] END_LOAD_SCHEDULER: End scheduler "b033" with entities [EventEntity, EventEntity], work=548*
 63: 0x01D9 [0x45] LOAD_SCHEDULED_TASK: Load scheduler "ov40" with entities [EventEntity, EventEntity], work=[548*, 0*]
 64: 0x01EA [0x45] LOAD_SCHEDULED_TASK: Load scheduler "b034" with entities [EventEntity, EventEntity], work=[548*, 0*]
 65: 0x01FB [0x66] LOAD_EXT_SCHEDULER_MAIN: Load scheduler "tlk0" with entities [Gebhardt (ID: 17138473/0x01058329), Gebhardt (ID: 17138473/0x01058329)], work=9*
 66: 0x020A [0x2B] Gebhardt (ID: 17138473/0x01058329) [8108*]:
    → "Speaking of supply routes, you hear if those documents got to the Benedikt Watchtower?"
 67: 0x0211 [0x23] WAIT_FOR_DIALOG_INTERACTION
 68: 0x0212 [0x66] LOAD_EXT_SCHEDULER_MAIN: Load scheduler "tlk1" with entities [Gebhardt (ID: 17138473/0x01058329), Gebhardt (ID: 17138473/0x01058329)], work=9*
 69: 0x0221 [0x27] REQ_SET(priority=0x10, entity_id=Wilmar (ID: 17138599/0x010583A7), tag_num=0x02)
 70: 0x0228 [0x1C] WAIT(10* ticks)
 71: 0x022B [0x52] END_LOAD_SCHEDULER: End scheduler "b034" with entities [EventEntity, EventEntity], work=548*
 72: 0x023A [0x45] LOAD_SCHEDULED_TASK: Load scheduler "b035" with entities [EventEntity, EventEntity], work=[548*, 0*]
 73: 0x024B [0x2B] Wilmar (ID: 17138599/0x010583A7) [8109*]:
    → "W-we have a situation!"
 74: 0x0252 [0x1C] WAIT(25* ticks)
 75: 0x0255 [0x4A] Gebhardt (ID: 17138473/0x01058329) looks at Wilmar (ID: 17138599/0x010583A7)
 76: 0x025E [0x1C] WAIT(30* ticks)
 77: 0x0261 [0x4A] Lilisette (ID: 17138598/0x010583A6) looks at Wilmar (ID: 17138599/0x010583A7)
 78: 0x026A [0x1C] WAIT(60* ticks)
 79: 0x026D [0x52] END_LOAD_SCHEDULER: End scheduler "b035" with entities [EventEntity, EventEntity], work=548*
 80: 0x027C [0x45] LOAD_SCHEDULED_TASK: Load scheduler "ov40" with entities [EventEntity, EventEntity], work=[548*, 0*]
 81: 0x028D [0x45] LOAD_SCHEDULED_TASK: Load scheduler "b036" with entities [EventEntity, EventEntity], work=[548*, 0*]
 82: 0x029E [0x27] REQ_SET(priority=0x10, entity_id=Gebhardt (ID: 17138473/0x01058329), tag_num=0x07)
 83: 0x02A5 [0x2B] Gebhardt (ID: 17138473/0x01058329) [8110*]:
    → "!?"
 84: 0x02AC [0x1C] WAIT(160* ticks)
 85: 0x02AF [0x52] END_LOAD_SCHEDULER: End scheduler "b036" with entities [EventEntity, EventEntity], work=548*
 86: 0x02BE [0x45] LOAD_SCHEDULED_TASK: Load scheduler "ov40" with entities [EventEntity, EventEntity], work=[548*, 0*]
 87: 0x02CF [0x45] LOAD_SCHEDULED_TASK: Load scheduler "0blr" with entities [EventEntity, EventEntity], work=[548*, 0*]
 88: 0x02E0 [0x45] LOAD_SCHEDULED_TASK: Load scheduler "b037" with entities [EventEntity, EventEntity], work=[548*, 0*]
 89: 0x02F1 [0x4A] Lilisette (ID: 17138598/0x010583A6) looks at Wilmar (ID: 17138599/0x010583A7)
 90: 0x02FA [0x1C] WAIT(40* ticks)
 91: 0x02FD [0x66] LOAD_EXT_SCHEDULER_MAIN: Load scheduler "tlk0" with entities [Gebhardt (ID: 17138473/0x01058329), Gebhardt (ID: 17138473/0x01058329)], work=9*
 92: 0x030C [0x2B] Gebhardt (ID: 17138473/0x01058329) [8111*]:
    → "What's the matter, man!?"
 93: 0x0313 [0x4A] Lilisette (ID: 17138598/0x010583A6) looks at Wilmar (ID: 17138599/0x010583A7)
 94: 0x031C [0x2A] GET_REQ_LEVEL(level=16, entity_id=Wilmar (ID: 17138599/0x010583A7))
 95: 0x0322 [0x4A] Lilisette (ID: 17138598/0x010583A6) looks at Wilmar (ID: 17138599/0x010583A7)
 96: 0x032B [0x23] WAIT_FOR_DIALOG_INTERACTION
 97: 0x032C [0x66] LOAD_EXT_SCHEDULER_MAIN: Load scheduler "tlk1" with entities [Gebhardt (ID: 17138473/0x01058329), Gebhardt (ID: 17138473/0x01058329)], work=9*
 98: 0x033B [0x6E] Wilmar (ID: 17138599/0x010583A7) uses emote 26*
 99: 0x0342 [0x99] Wait for Wilmar (ID: 17138599/0x010583A7) animation to complete
100: 0x0347 [0x52] END_LOAD_SCHEDULER: End scheduler "b037" with entities [EventEntity, EventEntity], work=548*
101: 0x0356 [0x45] LOAD_SCHEDULED_TASK: Load scheduler "b038" with entities [EventEntity, EventEntity], work=[548*, 0*]
102: 0x0367 [0x2B] Wilmar (ID: 17138599/0x010583A7) [8112*]:
    → "Th-the documents...they've fallen into enemy hands!"
103: 0x036E [0xBA] SET_ENTITY_POSITION(entity_id=Lilisette (ID: 17138598/0x010583A6), pos_x=204.351*, pos_z=668.384*, pos_y=-20.751*, direction=340.3°*)
104: 0x037B [0x4A] Lilisette (ID: 17138598/0x010583A6) looks at Wilmar (ID: 17138599/0x010583A7)
105: 0x0384 [0x6F] WAIT_FRAME_DELAY: Yield until WaitTime reaches zero
106: 0x0385 [0x76] CHECK_ENTITY_RENDER_FLAGS: Wait until Lilisette (ID: 17138598/0x010583A6) Render.Flags0 and Render.Flags3 conditions are met
107: 0x038A [0x23] WAIT_FOR_DIALOG_INTERACTION
108: 0x038B [0x52] END_LOAD_SCHEDULER: End scheduler "b038" with entities [EventEntity, EventEntity], work=548*
109: 0x039A [0x45] LOAD_SCHEDULED_TASK: Load scheduler "b039" with entities [EventEntity, EventEntity], work=[548*, 0*]
110: 0x03AB [0x5B] LOAD_EXT_SCHEDULER: Load scheduler "tla0" with entities [Lilisette (ID: 17138598/0x010583A6), Lilisette (ID: 17138598/0x010583A6)], work=2134*
111: 0x03BA [0x2B] Lilisette (ID: 17138598/0x010583A6) [8113*]:
    → "What in the world has happened?"
112: 0x03C1 [0x1C] WAIT(60* ticks)
113: 0x03C4 [0x4A] Wilmar (ID: 17138599/0x010583A7) looks at Lilisette (ID: 17138598/0x010583A6)
114: 0x03CD [0x23] WAIT_FOR_DIALOG_INTERACTION
115: 0x03CE [0x5B] LOAD_EXT_SCHEDULER: Load scheduler "tla1" with entities [Lilisette (ID: 17138598/0x010583A6), Lilisette (ID: 17138598/0x010583A6)], work=2134*
116: 0x03DD [0x6F] WAIT_FRAME_DELAY: Yield until WaitTime reaches zero
117: 0x03DE [0x76] CHECK_ENTITY_RENDER_FLAGS: Wait until Bernhard (ID: 17138475/0x0105832B) Render.Flags0 and Render.Flags3 conditions are met
118: 0x03E3 [0x6E] Wilmar (ID: 17138599/0x010583A7) uses emote 7*
119: 0x03EA [0x99] Wait for Wilmar (ID: 17138599/0x010583A7) animation to complete
120: 0x03EF [0x2B] Wilmar (ID: 17138599/0x010583A7) [8114*]:
    → "A party of turtlebacks ambushed the unit transporting the president's communication! Those accursed Quadav went so far as to set a trap..."
121: 0x03F6 [0x23] WAIT_FOR_DIALOG_INTERACTION
122: 0x03F7 [0x6E] Gebhardt (ID: 17138473/0x01058329) uses emote 25*
123: 0x03FE [0x99] Wait for Gebhardt (ID: 17138473/0x01058329) animation to complete
124: 0x0403 [0x52] END_LOAD_SCHEDULER: End scheduler "b039" with entities [EventEntity, EventEntity], work=548*
125: 0x0412 [0x45] LOAD_SCHEDULED_TASK: Load scheduler "b040" with entities [EventEntity, EventEntity], work=[548*, 0*]
126: 0x0423 [0x2B] Gebhardt (ID: 17138473/0x01058329) [8115*]:
    → "Do we know where they're headed?"
127: 0x042A [0x1C] WAIT(50* ticks)
128: 0x042D [0x4A] Wilmar (ID: 17138599/0x010583A7) looks at Gebhardt (ID: 17138473/0x01058329)
129: 0x0436 [0x1C] WAIT(30* ticks)
130: 0x0439 [0x4A] Lilisette (ID: 17138598/0x010583A6) looks at Gebhardt (ID: 17138473/0x01058329)
131: 0x0442 [0x1C] WAIT(100* ticks)
132: 0x0445 [0x23] WAIT_FOR_DIALOG_INTERACTION
133: 0x0446 [0x52] END_LOAD_SCHEDULER: End scheduler "b040" with entities [EventEntity, EventEntity], work=548*
134: 0x0455 [0x45] LOAD_SCHEDULED_TASK: Load scheduler "ov40" with entities [EventEntity, EventEntity], work=[548*, 0*]
135: 0x0466 [0x45] LOAD_SCHEDULED_TASK: Load scheduler "0blr" with entities [EventEntity, EventEntity], work=[548*, 0*]
136: 0x0477 [0x45] LOAD_SCHEDULED_TASK: Load scheduler "b140" with entities [EventEntity, EventEntity], work=[548*, 0*]
137: 0x0488 [0x66] LOAD_EXT_SCHEDULER_MAIN: Load scheduler "tlk0" with entities [Wilmar (ID: 17138599/0x010583A7), Wilmar (ID: 17138599/0x010583A7)], work=9*
138: 0x0497 [0x2B] Wilmar (ID: 17138599/0x010583A7) [8116*]:
    → "Nary a clue was left on the scene, but the bunch over at Benedikt are gathering intel as we speak."
139: 0x049E [0x23] WAIT_FOR_DIALOG_INTERACTION
140: 0x049F [0x66] LOAD_EXT_SCHEDULER_MAIN: Load scheduler "tlk1" with entities [Wilmar (ID: 17138599/0x010583A7), Wilmar (ID: 17138599/0x010583A7)], work=9*
141: 0x04AE [0x6E] Gebhardt (ID: 17138473/0x01058329) uses emote 6*
142: 0x04B5 [0x99] Wait for Gebhardt (ID: 17138473/0x01058329) animation to complete
143: 0x04BA [0x2B] Gebhardt (ID: 17138473/0x01058329) [8117*]:
    → "The Goddess be good. Should the contents of the missive be made public knowledge..."
144: 0x04C1 [0x1C] WAIT(180* ticks)
145: 0x04C4 [0x23] WAIT_FOR_DIALOG_INTERACTION
146: 0x04C5 [0x52] END_LOAD_SCHEDULER: End scheduler "b140" with entities [EventEntity, EventEntity], work=548*
147: 0x04D4 [0x45] LOAD_SCHEDULED_TASK: Load scheduler "ov40" with entities [EventEntity, EventEntity], work=[548*, 0*]
148: 0x04E5 [0x45] LOAD_SCHEDULED_TASK: Load scheduler "b141" with entities [EventEntity, EventEntity], work=[548*, 0*]
149: 0x04F6 [0x66] LOAD_EXT_SCHEDULER_MAIN: Load scheduler "tlk0" with entities [Wilmar (ID: 17138599/0x010583A7), Wilmar (ID: 17138599/0x010583A7)], work=9*
150: 0x0505 [0x1C] WAIT(160* ticks)
151: 0x0508 [0x66] LOAD_EXT_SCHEDULER_MAIN: Load scheduler "tha0" with entities [Lilisette (ID: 17138598/0x010583A6), Lilisette (ID: 17138598/0x010583A6)], work=2134*
152: 0x0517 [0x52] END_LOAD_SCHEDULER: End scheduler "b141" with entities [EventEntity, EventEntity], work=548*
153: 0x0526 [0x45] LOAD_SCHEDULED_TASK: Load scheduler "ov40" with entities [EventEntity, EventEntity], work=[548*, 0*]
154: 0x0537 [0x45] LOAD_SCHEDULED_TASK: Load scheduler "b241" with entities [EventEntity, EventEntity], work=[548*, 0*]
155: 0x0548 [0x66] LOAD_EXT_SCHEDULER_MAIN: Load scheduler "tlk1" with entities [Wilmar (ID: 17138599/0x010583A7), Wilmar (ID: 17138599/0x010583A7)], work=9*
156: 0x0557 [0x1C] WAIT(240* ticks)
157: 0x055A [0x7B] Lilisette (ID: 17138598/0x010583A6) stops talking
158: 0x055F [0x52] END_LOAD_SCHEDULER: End scheduler "b241" with entities [EventEntity, EventEntity], work=548*
159: 0x056E [0x45] LOAD_SCHEDULED_TASK: Load scheduler "ov40" with entities [EventEntity, EventEntity], work=[548*, 0*]
160: 0x057F [0x45] LOAD_SCHEDULED_TASK: Load scheduler "b041" with entities [EventEntity, EventEntity], work=[548*, 0*]
161: 0x0590 [0x1C] WAIT(60* ticks)
162: 0x0593 [0x4A] Gebhardt (ID: 17138473/0x01058329) looks at Lilisette (ID: 17138598/0x010583A6)
163: 0x059C [0x6F] WAIT_FRAME_DELAY: Yield until WaitTime reaches zero
164: 0x059D [0x76] CHECK_ENTITY_RENDER_FLAGS: Wait until Gebhardt (ID: 17138473/0x01058329) Render.Flags0 and Render.Flags3 conditions are met
165: 0x05A2 [0x66] LOAD_EXT_SCHEDULER_MAIN: Load scheduler "twa0" with entities [Gebhardt (ID: 17138473/0x01058329), Gebhardt (ID: 17138473/0x01058329)], work=9*
166: 0x05B1 [0x2B] Gebhardt (ID: 17138473/0x01058329) [8118*]:
    → "Well, there's no reason for you to get involved in this mess, lass. My thanks again for the supplies. I'll see to it that word of your service reaches Centurion Adelbrecht."
167: 0x05B8 [0x1C] WAIT(15* ticks)
168: 0x05BB [0x79] Lilisette (ID: 17138598/0x010583A6) looks at Gebhardt (ID: 17138473/0x01058329) (Basic look)
169: 0x05C5 [0x66] LOAD_EXT_SCHEDULER_MAIN: Load scheduler "tha1" with entities [Lilisette (ID: 17138598/0x010583A6), Lilisette (ID: 17138598/0x010583A6)], work=2134*
170: 0x05D4 [0x23] WAIT_FOR_DIALOG_INTERACTION
171: 0x05D5 [0x66] LOAD_EXT_SCHEDULER_MAIN: Load scheduler "twa1" with entities [Gebhardt (ID: 17138473/0x01058329), Gebhardt (ID: 17138473/0x01058329)], work=9*
172: 0x05E4 [0x1A] CALL_SUBROUTINE(address=0x1885)
173: 0x05E7 [0x52] END_LOAD_SCHEDULER: End scheduler "b041" with entities [EventEntity, EventEntity], work=548*
174: 0x05F6 [0x1C] WAIT(1* ticks)
175: 0x05F9 [0x27] REQ_SET(priority=0x10, entity_id=Lilisette (ID: 17138598/0x010583A6), tag_num=0x04)
176: 0x0600 [0x27] REQ_SET(priority=0x10, entity_id=Wilmar (ID: 17138599/0x010583A7), tag_num=0x03)
177: 0x0607 [0x27] REQ_SET(priority=0x10, entity_id=LocalPlayer, tag_num=0x2B)
178: 0x060E [0x4A] Gebhardt (ID: 17138473/0x01058329) looks at LocalPlayer
179: 0x0617 [0x7B] Gebhardt (ID: 17138473/0x01058329) stops talking
180: 0x061C [0x1C] WAIT(30* ticks)
181: 0x061F [0x66] LOAD_EXT_SCHEDULER_MAIN: Load scheduler "thk1" with entities [Gebhardt (ID: 17138473/0x01058329), Gebhardt (ID: 17138473/0x01058329)], work=9*
182: 0x062E [0x1C] WAIT(80* ticks)
183: 0x0631 [0x45] LOAD_SCHEDULED_TASK: Load scheduler "b042" with entities [EventEntity, EventEntity], work=[548*, 0*]
184: 0x0642 [0x1A] CALL_SUBROUTINE(address=0x1A92)
185: 0x0645 [0x1C] WAIT(60* ticks)
186: 0x0648 [0x66] LOAD_EXT_SCHEDULER_MAIN: Load scheduler "thk2" with entities [Gebhardt (ID: 17138473/0x01058329), Gebhardt (ID: 17138473/0x01058329)], work=9*
187: 0x0657 [0x1C] WAIT(160* ticks)
188: 0x065A [0x29] REQ_SET_WAIT(priority=0x10, entity_id=LocalPlayer, tag_num=0x2C)
189: 0x0661 [0x02] IF !(Work_Zone[2] == 2*) GOTO 0x069D
190: 0x0669 [0x52] END_LOAD_SCHEDULER: End scheduler "b042" with entities [EventEntity, EventEntity], work=548*
191: 0x0678 [0x45] LOAD_SCHEDULED_TASK: Load scheduler "ov40" with entities [EventEntity, EventEntity], work=[548*, 0*]
192: 0x0689 [0x45] LOAD_SCHEDULED_TASK: Load scheduler "bt43" with entities [EventEntity, EventEntity], work=[548*, 0*]
193: 0x069A [0x01] GOTO 0x0782
194: 0x069D [0x02] IF !(Work_Zone[2] == 5*) GOTO 0x06D9
195: 0x06A5 [0x52] END_LOAD_SCHEDULER: End scheduler "b042" with entities [EventEntity, EventEntity], work=548*
196: 0x06B4 [0x45] LOAD_SCHEDULED_TASK: Load scheduler "ov40" with entities [EventEntity, EventEntity], work=[548*, 0*]
197: 0x06C5 [0x45] LOAD_SCHEDULED_TASK: Load scheduler "bt43" with entities [EventEntity, EventEntity], work=[548*, 0*]
198: 0x06D6 [0x01] GOTO 0x0782
199: 0x06D9 [0x02] IF !(Work_Zone[2] == 6*) GOTO 0x0715
200: 0x06E1 [0x52] END_LOAD_SCHEDULER: End scheduler "b042" with entities [EventEntity, EventEntity], work=548*
201: 0x06F0 [0x45] LOAD_SCHEDULED_TASK: Load scheduler "ov40" with entities [EventEntity, EventEntity], work=[548*, 0*]
202: 0x0701 [0x45] LOAD_SCHEDULED_TASK: Load scheduler "bt43" with entities [EventEntity, EventEntity], work=[548*, 0*]
203: 0x0712 [0x01] GOTO 0x0782
204: 0x0715 [0x02] IF !(Work_Zone[2] == 7*) GOTO 0x0751
205: 0x071D [0x52] END_LOAD_SCHEDULER: End scheduler "b042" with entities [EventEntity, EventEntity], work=548*
206: 0x072C [0x45] LOAD_SCHEDULED_TASK: Load scheduler "ov40" with entities [EventEntity, EventEntity], work=[548*, 0*]
207: 0x073D [0x45] LOAD_SCHEDULED_TASK: Load scheduler "bt43" with entities [EventEntity, EventEntity], work=[548*, 0*]
208: 0x074E [0x01] GOTO 0x0782
209: 0x0751 [0x52] END_LOAD_SCHEDULER: End scheduler "b042" with entities [EventEntity, EventEntity], work=548*
210: 0x0760 [0x45] LOAD_SCHEDULED_TASK: Load scheduler "ov40" with entities [EventEntity, EventEntity], work=[548*, 0*]
211: 0x0771 [0x45] LOAD_SCHEDULED_TASK: Load scheduler "b043" with entities [EventEntity, EventEntity], work=[548*, 0*]

SUBROUTINE_0782:
212: 0x0782 [0x1C] WAIT(40* ticks)
213: 0x0785 [0x79] Gebhardt (ID: 17138473/0x01058329) looks at LocalPlayer (Basic look)
214: 0x078F [0x6E] LocalPlayer uses emote 22*
215: 0x0796 [0x99] Wait for LocalPlayer animation to complete
216: 0x079B [0x1C] WAIT(120* ticks)
217: 0x079E [0x2B] Gebhardt (ID: 17138473/0x01058329) [8119*]:
    → "...Huh?"
218: 0x07A5 [0x1C] WAIT(40* ticks)
219: 0x07A8 [0x23] WAIT_FOR_DIALOG_INTERACTION
220: 0x07A9 [0x52] END_LOAD_SCHEDULER: End scheduler "bt43" with entities [EventEntity, EventEntity], work=548*
221: 0x07B8 [0x52] END_LOAD_SCHEDULER: End scheduler "b043" with entities [EventEntity, EventEntity], work=548*
222: 0x07C7 [0x45] LOAD_SCHEDULED_TASK: Load scheduler "ov40" with entities [EventEntity, EventEntity], work=[548*, 0*]
223: 0x07D8 [0x45] LOAD_SCHEDULED_TASK: Load scheduler "b044" with entities [EventEntity, EventEntity], work=[548*, 0*]
224: 0x07E9 [0x6E] Gebhardt (ID: 17138473/0x01058329) uses emote 32*
225: 0x07F0 [0x99] Wait for Gebhardt (ID: 17138473/0x01058329) animation to complete
226: 0x07F5 [0x2B] Gebhardt (ID: 17138473/0x01058329) [8120*]:
    → "Was that what they call an out-of-body experience? Anyway, as I was saying, no red-headed dancer lass has brought us supplies, more's the pity."
227: 0x07FC [0x23] WAIT_FOR_DIALOG_INTERACTION
228: 0x07FD [0x1A] CALL_SUBROUTINE(address=0x1843)
229: 0x0800 [0x52] END_LOAD_SCHEDULER: End scheduler "b044" with entities [EventEntity, EventEntity], work=548*
230: 0x080F [0x1C] WAIT(30* ticks)
231: 0x0812 [0x46] CAMERA_CONTROL: Restore default settings
232: 0x0814 [0x45] LOAD_SCHEDULED_TASK: Load scheduler "fdi2" with entities [LocalPlayer, LocalPlayer], work=[200*, 0*]
233: 0x0825 [0x21] END_EVENT
234: 0x0826 [0x00] END_REQSTACK()
```

### Event 15

#### Metadata

| Field        | Value      |
|--------------|------------|
| Entrypoint   | 0x0827     |
| Data Size    | 1139 bytes |
| Instructions | 133        |

```
      00 01 02 03 04 05 06 07  08 09 0A 0B 0C 0D 0E 0F
      -- -- -- -- -- -- -- --  -- -- -- -- -- -- -- --
0820:                      42  1A 43 18 46 01 38 00 80         B.C.F.8..
0830: 27 10 A6 83 05 01 0B 27  10 2A 83 05 01 0E 27 10  '......'.*....'.
0840: 2B 83 05 01 0A 92 01 A6  83 05 01 92 01 2A 83 05  +............*..
0850: 01 92 01 2B 83 05 01 94  01 A6 83 05 01 94 01 2A  ...+...........*
0860: 83 05 01 94 01 2B 83 05  01 80 A6 83 05 01 80 2A  .....+.........*
0870: 83 05 01 80 2B 83 05 01  29 10 F0 FF FF 7F 2C 03  ....+...).....,.
0880: 00 00 02 10 BA 2B 83 05  01 3A 80 3B 80 3C 80 3D  .....+...:.;.<.=
0890: 80 BA F0 FF FF 7F 3E 80  3F 80 40 80 3D 80 BA A6  ......>.?.@.=...
08A0: 83 05 01 41 80 42 80 43  80 44 80 4A A6 83 05 01  ...A.B.C.D.J....
08B0: 2A 83 05 01 4A 2B 83 05  01 2A 83 05 01 4A F0 FF  *...J+...*...J..
08C0: FF 7F 2A 83 05 01 4A 2A  83 05 01 2B 83 05 01 27  ..*...J*...+...'
08D0: 10 F0 FF FF 7F 04 5C 00  09 80 5C 01 09 80 1C 0A  ......\...\.....
08E0: 80 9A 45 0B 80 F8 FF FF  7F F8 FF FF 7F 62 30 34  ..E..........b04
08F0: 35 0C 80 1A B7 19 66 0D  80 2B 83 05 01 2B 83 05  5.....f..+...+..
0900: 01 74 77 61 30 2B 2B 83  05 01 45 80 23 66 0D 80  .twa0++...E.#f..
0910: 2B 83 05 01 2B 83 05 01  74 77 61 31 6E 2A 83 05  +...+...twa1n*..
0920: 01 1E 80 99 2A 83 05 01  2B 2A 83 05 01 46 80 23  ....*...+*...F.#
0930: 6E 2B 83 05 01 2B 80 99  2B 83 05 01 2B 2B 83 05  n+...+..+...++..
0940: 01 47 80 23 52 0B 80 F8  FF FF 7F F8 FF FF 7F 62  .G.#R..........b
0950: 30 34 35 45 0B 80 F8 FF  FF 7F F8 FF FF 7F 6F 76  045E..........ov
0960: 34 30 0C 80 45 0B 80 F8  FF FF 7F F8 FF FF 7F 62  40..E..........b
0970: 30 34 36 0C 80 1C 14 80  4A F0 FF FF 7F A6 83 05  046.....J.......
0980: 01 1C 32 80 7B A6 83 05  01 5B 48 80 A6 83 05 01  ..2.{....[H.....
0990: A6 83 05 01 74 6C 63 30  52 0B 80 F8 FF FF 7F F8  ....tlc0R.......
09A0: FF FF 7F 62 30 34 36 45  0B 80 F8 FF FF 7F F8 FF  ...b046E........
09B0: FF 7F 6F 76 34 30 0C 80  45 0B 80 F8 FF FF 7F F8  ..ov40..E.......
09C0: FF FF 7F 62 30 34 37 0C  80 2B A6 83 05 01 49 80  ...b047..+....I.
09D0: 23 52 0B 80 F8 FF FF 7F  F8 FF FF 7F 62 30 34 37  #R..........b047
09E0: 45 0B 80 F8 FF FF 7F F8  FF FF 7F 62 30 34 38 0C  E..........b048.
09F0: 80 7C 00 A6 83 05 01 2B  A6 83 05 01 4A 80 23 52  .|.....+....J.#R
0A00: 0B 80 F8 FF FF 7F F8 FF  FF 7F 62 30 34 38 45 0B  ..........b048E.
0A10: 80 F8 FF FF 7F F8 FF FF  7F 6F 76 34 30 0C 80 45  .........ov40..E
0A20: 0B 80 F8 FF FF 7F F8 FF  FF 7F 62 30 34 39 0C 80  ..........b049..
0A30: 1C 31 80 5B 4B 80 A6 83  05 01 A6 83 05 01 66 32  .1.[K.........f2
0A40: 30 31 5B 48 80 A6 83 05  01 A6 83 05 01 74 6C 63  01[H.........tlc
0A50: 31 1C 4C 80 2B A6 83 05  01 4D 80 1C 13 80 23 27  1.L.+....M....#'
0A60: 10 A6 83 05 01 06 52 0B  80 F8 FF FF 7F F8 FF FF  ......R.........
0A70: 7F 62 30 34 39 45 0B 80  F8 FF FF 7F F8 FF FF 7F  .b049E..........
0A80: 6F 76 34 30 0C 80 45 0B  80 F8 FF FF 7F F8 FF FF  ov40..E.........
0A90: 7F 62 30 35 30 0C 80 1C  2E 80 1A 85 18 52 0B 80  .b050........R..
0AA0: F8 FF FF 7F F8 FF FF 7F  62 30 35 30 7A 00 A6 83  ........b050z...
0AB0: 05 01 27 10 2B 83 05 01  01 27 10 F0 FF FF 7F 2B  ..'.+....'.....+
0AC0: 1C 31 80 27 10 A6 83 05  01 04 BA F0 FF FF 7F 4E  .1.'...........N
0AD0: 80 4F 80 50 80 51 80 4A  F0 FF FF 7F 2A 83 05 01  .O.P.Q.J....*...
0AE0: 4A 2A 83 05 01 F0 FF FF  7F 1C 11 80 45 0B 80 F8  J*..........E...
0AF0: FF FF 7F F8 FF FF 7F 62  30 35 31 0C 80 1A 92 1A  .......b051.....
0B00: 1C 13 80 02 00 00 52 80  80 3F 0B 52 0B 80 F8 FF  ......R..?.R....
0B10: FF 7F F8 FF FF 7F 62 30  35 31 45 0B 80 F8 FF FF  ......b051E.....
0B20: 7F F8 FF FF 7F 6F 76 36  30 0C 80 45 0B 80 F8 FF  .....ov60..E....
0B30: FF 7F F8 FF FF 7F 62 67  35 32 0C 80 01 24 0C 02  ......bg52...$..
0B40: 00 00 34 80 80 7B 0B 52  0B 80 F8 FF FF 7F F8 FF  ..4..{.R........
0B50: FF 7F 62 30 35 31 45 0B  80 F8 FF FF 7F F8 FF FF  ..b051E.........
0B60: 7F 6F 76 36 30 0C 80 45  0B 80 F8 FF FF 7F F8 FF  .ov60..E........
0B70: FF 7F 62 74 35 32 0C 80  01 24 0C 02 00 00 2B 80  ..bt52...$....+.
0B80: 80 B7 0B 52 0B 80 F8 FF  FF 7F F8 FF FF 7F 62 30  ...R..........b0
0B90: 35 31 45 0B 80 F8 FF FF  7F F8 FF FF 7F 6F 76 36  51E..........ov6
0BA0: 30 0C 80 45 0B 80 F8 FF  FF 7F F8 FF FF 7F 62 74  0..E..........bt
0BB0: 35 32 0C 80 01 24 0C 02  00 00 53 80 80 F3 0B 52  52...$....S....R
0BC0: 0B 80 F8 FF FF 7F F8 FF  FF 7F 62 30 35 31 45 0B  ..........b051E.
0BD0: 80 F8 FF FF 7F F8 FF FF  7F 6F 76 36 30 0C 80 45  .........ov60..E
0BE0: 0B 80 F8 FF FF 7F F8 FF  FF 7F 62 67 35 32 0C 80  ..........bg52..
0BF0: 01 24 0C 52 0B 80 F8 FF  FF 7F F8 FF FF 7F 62 30  .$.R..........b0
0C00: 35 31 45 0B 80 F8 FF FF  7F F8 FF FF 7F 6F 76 36  51E..........ov6
0C10: 30 0C 80 45 0B 80 F8 FF  FF 7F F8 FF FF 7F 62 30  0..E..........b0
0C20: 35 32 0C 80 1C 1C 80 2B  2A 83 05 01 54 80 23 6E  52.....+*...T.#n
0C30: F0 FF FF 7F 10 80 99 F0  FF FF 7F 1C 11 80 6E 2A  ..............n*
0C40: 83 05 01 2B 80 99 2A 83  05 01 2B 2A 83 05 01 55  ...+..*...+*...U
0C50: 80 23 1A 43 18 52 0B 80  F8 FF FF 7F F8 FF FF 7F  .#.C.R..........
0C60: 62 30 35 32 52 0B 80 F8  FF FF 7F F8 FF FF 7F 62  b052R..........b
0C70: 74 35 32 52 0B 80 F8 FF  FF 7F F8 FF FF 7F 62 67  t52R..........bg
0C80: 35 32 1C 0A 80 46 00 45  39 80 F0 FF FF 7F F0 FF  52...F.E9.......
0C90: FF 7F 66 64 69 32 0C 80  21 00                    ..fdi2..!.      
```

#### Opcodes

```
  0: 0x0827 [0x42] SET_CLI_EVENT_CANCEL_DATA()
  1: 0x0828 [0x1A] CALL_SUBROUTINE(address=0x1843)
  2: 0x082B [0x46] CAMERA_CONTROL: Disable user control
  3: 0x082D [0x38] SET_CLIENT_EVENT_MODE(mode=19*)
  4: 0x0830 [0x27] REQ_SET(priority=0x10, entity_id=Lilisette (ID: 17138598/0x010583A6), tag_num=0x0B)
  5: 0x0837 [0x27] REQ_SET(priority=0x10, entity_id=Roderich (ID: 17138474/0x0105832A), tag_num=0x0E)
  6: 0x083E [0x27] REQ_SET(priority=0x10, entity_id=Bernhard (ID: 17138475/0x0105832B), tag_num=0x0A)
  7: 0x0845 [0x92] Lilisette (ID: 17138598/0x010583A6)->Render.Flags3 ^= 0x01
  8: 0x084B [0x92] Roderich (ID: 17138474/0x0105832A)->Render.Flags3 ^= 0x01
  9: 0x0851 [0x92] Bernhard (ID: 17138475/0x0105832B)->Render.Flags3 ^= 0x01
 10: 0x0857 [0x94] Lilisette (ID: 17138598/0x010583A6)->Render.Flags3 ^= 0x01
 11: 0x085D [0x94] Roderich (ID: 17138474/0x0105832A)->Render.Flags3 ^= 0x01
 12: 0x0863 [0x94] Bernhard (ID: 17138475/0x0105832B)->Render.Flags3 ^= 0x01
 13: 0x0869 [0x80] LOAD_WAIT(entity=Lilisette (ID: 17138598/0x010583A6))
 14: 0x086E [0x80] LOAD_WAIT(entity=Roderich (ID: 17138474/0x0105832A))
 15: 0x0873 [0x80] LOAD_WAIT(entity=Bernhard (ID: 17138475/0x0105832B))
 16: 0x0878 [0x29] REQ_SET_WAIT(priority=0x10, entity_id=LocalPlayer, tag_num=0x2C)
 17: 0x087F [0x03] ExtData[1]->WorkLocal[0] = Work_Zone[2]
 18: 0x0884 [0xBA] SET_ENTITY_POSITION(entity_id=Bernhard (ID: 17138475/0x0105832B), pos_x=-399.704*, pos_z=-92.609*, pos_y=39.984*, direction=130.2°*)
 19: 0x0891 [0xBA] SET_ENTITY_POSITION(entity_id=LocalPlayer, pos_x=-397.165*, pos_z=-92.764*, pos_y=40.154*, direction=130.2°*)
 20: 0x089E [0xBA] SET_ENTITY_POSITION(entity_id=Lilisette (ID: 17138598/0x010583A6), pos_x=-409.445*, pos_z=-107.701*, pos_y=39.535*, direction=3.8°*)
 21: 0x08AB [0x4A] Lilisette (ID: 17138598/0x010583A6) looks at Roderich (ID: 17138474/0x0105832A)
 22: 0x08B4 [0x4A] Bernhard (ID: 17138475/0x0105832B) looks at Roderich (ID: 17138474/0x0105832A)
 23: 0x08BD [0x4A] LocalPlayer looks at Roderich (ID: 17138474/0x0105832A)
 24: 0x08C6 [0x4A] Roderich (ID: 17138474/0x0105832A) looks at Bernhard (ID: 17138475/0x0105832B)
 25: 0x08CF [0x27] REQ_SET(priority=0x10, entity_id=LocalPlayer, tag_num=0x04)
 26: 0x08D6 [0x5C] MUSIC_CONTROL: Set Idle (Day) music to song 253*
 27: 0x08DA [0x5C] MUSIC_CONTROL: Set Idle (Night) music to song 253*
 28: 0x08DE [0x1C] WAIT(30* ticks)
 29: 0x08E1 [0x9A] WAIT_MUSIC_SERVER()
 30: 0x08E2 [0x45] LOAD_SCHEDULED_TASK: Load scheduler "b045" with entities [EventEntity, EventEntity], work=[548*, 0*]
 31: 0x08F3 [0x1A] CALL_SUBROUTINE(address=0x19B7)
 32: 0x08F6 [0x66] LOAD_EXT_SCHEDULER_MAIN: Load scheduler "twa0" with entities [Bernhard (ID: 17138475/0x0105832B), Bernhard (ID: 17138475/0x0105832B)], work=9*
 33: 0x0905 [0x2B] Bernhard (ID: 17138475/0x0105832B) [8122*]:
    → "There's been no word from the unit dispatched to the northeast to retrieve the missive. And permission has only just come down to send a second unit to the Quadav's western camp."
 34: 0x090C [0x23] WAIT_FOR_DIALOG_INTERACTION
 35: 0x090D [0x66] LOAD_EXT_SCHEDULER_MAIN: Load scheduler "twa1" with entities [Bernhard (ID: 17138475/0x0105832B), Bernhard (ID: 17138475/0x0105832B)], work=9*
 36: 0x091C [0x6E] Roderich (ID: 17138474/0x0105832A) uses emote 26*
 37: 0x0923 [0x99] Wait for Roderich (ID: 17138474/0x0105832A) animation to complete
 38: 0x0928 [0x2B] Roderich (ID: 17138474/0x0105832A) [8123*]:
    → "Blast! In the time it'll take to ready our troops, the enemy'll be long gone!"
 39: 0x092F [0x23] WAIT_FOR_DIALOG_INTERACTION
 40: 0x0930 [0x6E] Bernhard (ID: 17138475/0x0105832B) uses emote 6*
 41: 0x0937 [0x99] Wait for Bernhard (ID: 17138475/0x0105832B) animation to complete
 42: 0x093C [0x2B] Bernhard (ID: 17138475/0x0105832B) [8124*]:
    → "..."
 43: 0x0943 [0x23] WAIT_FOR_DIALOG_INTERACTION
 44: 0x0944 [0x52] END_LOAD_SCHEDULER: End scheduler "b045" with entities [EventEntity, EventEntity], work=548*
 45: 0x0953 [0x45] LOAD_SCHEDULED_TASK: Load scheduler "ov40" with entities [EventEntity, EventEntity], work=[548*, 0*]
 46: 0x0964 [0x45] LOAD_SCHEDULED_TASK: Load scheduler "b046" with entities [EventEntity, EventEntity], work=[548*, 0*]
 47: 0x0975 [0x1C] WAIT(60* ticks)
 48: 0x0978 [0x4A] LocalPlayer looks at Lilisette (ID: 17138598/0x010583A6)
 49: 0x0981 [0x1C] WAIT(80* ticks)
 50: 0x0984 [0x7B] Lilisette (ID: 17138598/0x010583A6) stops talking
 51: 0x0989 [0x5B] LOAD_EXT_SCHEDULER: Load scheduler "tlc0" with entities [Lilisette (ID: 17138598/0x010583A6), Lilisette (ID: 17138598/0x010583A6)], work=2132*
 52: 0x0998 [0x52] END_LOAD_SCHEDULER: End scheduler "b046" with entities [EventEntity, EventEntity], work=548*
 53: 0x09A7 [0x45] LOAD_SCHEDULED_TASK: Load scheduler "ov40" with entities [EventEntity, EventEntity], work=[548*, 0*]
 54: 0x09B8 [0x45] LOAD_SCHEDULED_TASK: Load scheduler "b047" with entities [EventEntity, EventEntity], work=[548*, 0*]
 55: 0x09C9 [0x2B] Lilisette (ID: 17138598/0x010583A6) [8125*]:
    → "The Republican army seems to be in quite a bind right now. Not enough hands to go around, it'd seem..."
 56: 0x09D0 [0x23] WAIT_FOR_DIALOG_INTERACTION
 57: 0x09D1 [0x52] END_LOAD_SCHEDULER: End scheduler "b047" with entities [EventEntity, EventEntity], work=548*
 58: 0x09E0 [0x45] LOAD_SCHEDULED_TASK: Load scheduler "b048" with entities [EventEntity, EventEntity], work=[548*, 0*]
 59: 0x09F1 [0x7C] Lilisette (ID: 17138598/0x010583A6)->Render.Flags2 |= 0x00
 60: 0x09F7 [0x2B] Lilisette (ID: 17138598/0x010583A6) [8126*]:
    → "...!"
 61: 0x09FE [0x23] WAIT_FOR_DIALOG_INTERACTION
 62: 0x09FF [0x52] END_LOAD_SCHEDULER: End scheduler "b048" with entities [EventEntity, EventEntity], work=548*
 63: 0x0A0E [0x45] LOAD_SCHEDULED_TASK: Load scheduler "ov40" with entities [EventEntity, EventEntity], work=[548*, 0*]
 64: 0x0A1F [0x45] LOAD_SCHEDULED_TASK: Load scheduler "b049" with entities [EventEntity, EventEntity], work=[548*, 0*]
 65: 0x0A30 [0x1C] WAIT(1* ticks)
 66: 0x0A33 [0x5B] LOAD_EXT_SCHEDULER: Load scheduler "f201" with entities [Lilisette (ID: 17138598/0x010583A6), Lilisette (ID: 17138598/0x010583A6)], work=2135*
 67: 0x0A42 [0x5B] LOAD_EXT_SCHEDULER: Load scheduler "tlc1" with entities [Lilisette (ID: 17138598/0x010583A6), Lilisette (ID: 17138598/0x010583A6)], work=2132*
 68: 0x0A51 [0x1C] WAIT(140* ticks)
 69: 0x0A54 [0x2B] Lilisette (ID: 17138598/0x010583A6) [8127*]:
    → "The camp located due west, was it? Hehehehehe..."
 70: 0x0A5B [0x1C] WAIT(120* ticks)
 71: 0x0A5E [0x23] WAIT_FOR_DIALOG_INTERACTION
 72: 0x0A5F [0x27] REQ_SET(priority=0x10, entity_id=Lilisette (ID: 17138598/0x010583A6), tag_num=0x06)
 73: 0x0A66 [0x52] END_LOAD_SCHEDULER: End scheduler "b049" with entities [EventEntity, EventEntity], work=548*
 74: 0x0A75 [0x45] LOAD_SCHEDULED_TASK: Load scheduler "ov40" with entities [EventEntity, EventEntity], work=[548*, 0*]
 75: 0x0A86 [0x45] LOAD_SCHEDULED_TASK: Load scheduler "b050" with entities [EventEntity, EventEntity], work=[548*, 0*]
 76: 0x0A97 [0x1C] WAIT(240* ticks)
 77: 0x0A9A [0x1A] CALL_SUBROUTINE(address=0x1885)
 78: 0x0A9D [0x52] END_LOAD_SCHEDULER: End scheduler "b050" with entities [EventEntity, EventEntity], work=548*
 79: 0x0AAC [0x7A] VM_CONTROL: Reset VM for Lilisette (ID: 17138598/0x010583A6)
 80: 0x0AB2 [0x27] REQ_SET(priority=0x10, entity_id=Bernhard (ID: 17138475/0x0105832B), tag_num=0x01)
 81: 0x0AB9 [0x27] REQ_SET(priority=0x10, entity_id=LocalPlayer, tag_num=0x2B)
 82: 0x0AC0 [0x1C] WAIT(1* ticks)
 83: 0x0AC3 [0x27] REQ_SET(priority=0x10, entity_id=Lilisette (ID: 17138598/0x010583A6), tag_num=0x04)
 84: 0x0ACA [0xBA] SET_ENTITY_POSITION(entity_id=LocalPlayer, pos_x=-399.149*, pos_z=-92.897*, pos_y=39.936*, direction=245.6°*)
 85: 0x0AD7 [0x4A] LocalPlayer looks at Roderich (ID: 17138474/0x0105832A)
 86: 0x0AE0 [0x4A] Roderich (ID: 17138474/0x0105832A) looks at LocalPlayer
 87: 0x0AE9 [0x1C] WAIT(90* ticks)
 88: 0x0AEC [0x45] LOAD_SCHEDULED_TASK: Load scheduler "b051" with entities [EventEntity, EventEntity], work=[548*, 0*]
 89: 0x0AFD [0x1A] CALL_SUBROUTINE(address=0x1A92)
 90: 0x0B00 [0x1C] WAIT(120* ticks)
 91: 0x0B03 [0x02] IF !(ExtData[1]->WorkLocal[0] == 3*) GOTO 0x0B3F
 92: 0x0B0B [0x52] END_LOAD_SCHEDULER: End scheduler "b051" with entities [EventEntity, EventEntity], work=548*
 93: 0x0B1A [0x45] LOAD_SCHEDULED_TASK: Load scheduler "ov60" with entities [EventEntity, EventEntity], work=[548*, 0*]
 94: 0x0B2B [0x45] LOAD_SCHEDULED_TASK: Load scheduler "bg52" with entities [EventEntity, EventEntity], work=[548*, 0*]
 95: 0x0B3C [0x01] GOTO 0x0C24
 96: 0x0B3F [0x02] IF !(ExtData[1]->WorkLocal[0] == 5*) GOTO 0x0B7B
 97: 0x0B47 [0x52] END_LOAD_SCHEDULER: End scheduler "b051" with entities [EventEntity, EventEntity], work=548*
 98: 0x0B56 [0x45] LOAD_SCHEDULED_TASK: Load scheduler "ov60" with entities [EventEntity, EventEntity], work=[548*, 0*]
 99: 0x0B67 [0x45] LOAD_SCHEDULED_TASK: Load scheduler "bt52" with entities [EventEntity, EventEntity], work=[548*, 0*]
100: 0x0B78 [0x01] GOTO 0x0C24
101: 0x0B7B [0x02] IF !(ExtData[1]->WorkLocal[0] == 6*) GOTO 0x0BB7
102: 0x0B83 [0x52] END_LOAD_SCHEDULER: End scheduler "b051" with entities [EventEntity, EventEntity], work=548*
103: 0x0B92 [0x45] LOAD_SCHEDULED_TASK: Load scheduler "ov60" with entities [EventEntity, EventEntity], work=[548*, 0*]
104: 0x0BA3 [0x45] LOAD_SCHEDULED_TASK: Load scheduler "bt52" with entities [EventEntity, EventEntity], work=[548*, 0*]
105: 0x0BB4 [0x01] GOTO 0x0C24
106: 0x0BB7 [0x02] IF !(ExtData[1]->WorkLocal[0] == 8*) GOTO 0x0BF3
107: 0x0BBF [0x52] END_LOAD_SCHEDULER: End scheduler "b051" with entities [EventEntity, EventEntity], work=548*
108: 0x0BCE [0x45] LOAD_SCHEDULED_TASK: Load scheduler "ov60" with entities [EventEntity, EventEntity], work=[548*, 0*]
109: 0x0BDF [0x45] LOAD_SCHEDULED_TASK: Load scheduler "bg52" with entities [EventEntity, EventEntity], work=[548*, 0*]
110: 0x0BF0 [0x01] GOTO 0x0C24
111: 0x0BF3 [0x52] END_LOAD_SCHEDULER: End scheduler "b051" with entities [EventEntity, EventEntity], work=548*
112: 0x0C02 [0x45] LOAD_SCHEDULED_TASK: Load scheduler "ov60" with entities [EventEntity, EventEntity], work=[548*, 0*]
113: 0x0C13 [0x45] LOAD_SCHEDULED_TASK: Load scheduler "b052" with entities [EventEntity, EventEntity], work=[548*, 0*]

SUBROUTINE_0C24:
114: 0x0C24 [0x1C] WAIT(40* ticks)
115: 0x0C27 [0x2B] Roderich (ID: 17138474/0x0105832A) [8128*]:
    → "What? A dancer girl with hair of fire?"
116: 0x0C2E [0x23] WAIT_FOR_DIALOG_INTERACTION
117: 0x0C2F [0x6E] LocalPlayer uses emote 7*
118: 0x0C36 [0x99] Wait for LocalPlayer animation to complete
119: 0x0C3B [0x1C] WAIT(90* ticks)
120: 0x0C3E [0x6E] Roderich (ID: 17138474/0x0105832A) uses emote 6*
121: 0x0C45 [0x99] Wait for Roderich (ID: 17138474/0x0105832A) animation to complete
122: 0x0C4A [0x2B] Roderich (ID: 17138474/0x0105832A) [8129*]:
    → "Sad to say, but I haven't had the pleasure of seeing such a person."
123: 0x0C51 [0x23] WAIT_FOR_DIALOG_INTERACTION
124: 0x0C52 [0x1A] CALL_SUBROUTINE(address=0x1843)
125: 0x0C55 [0x52] END_LOAD_SCHEDULER: End scheduler "b052" with entities [EventEntity, EventEntity], work=548*
126: 0x0C64 [0x52] END_LOAD_SCHEDULER: End scheduler "bt52" with entities [EventEntity, EventEntity], work=548*
127: 0x0C73 [0x52] END_LOAD_SCHEDULER: End scheduler "bg52" with entities [EventEntity, EventEntity], work=548*
128: 0x0C82 [0x1C] WAIT(30* ticks)
129: 0x0C85 [0x46] CAMERA_CONTROL: Restore default settings
130: 0x0C87 [0x45] LOAD_SCHEDULED_TASK: Load scheduler "fdi2" with entities [LocalPlayer, LocalPlayer], work=[200*, 0*]
131: 0x0C98 [0x21] END_EVENT
132: 0x0C99 [0x00] END_REQSTACK()
```

### Event 16

#### Metadata

| Field        | Value      |
|--------------|------------|
| Entrypoint   | 0x0C9A     |
| Data Size    | 3609 bytes |
| Instructions | 346        |

```
      00 01 02 03 04 05 06 07  08 09 0A 0B 0C 0D 0E 0F
      -- -- -- -- -- -- -- --  -- -- -- -- -- -- -- --
0C90:                                42 1A 43 18 46 01            B.C.F.
0CA0: 38 00 80 5D 0C 80 39 80  27 10 A6 83 05 01 0B 27  8..]..9.'......'
0CB0: 10 2C 83 05 01 0E 27 10  28 83 05 01 0E 27 10 A8  .,....'.(....'..
0CC0: 83 05 01 07 27 10 A9 83  05 01 07 27 10 A5 83 05  ....'......'....
0CD0: 01 03 2F 00 2C 83 05 01  2F 00 2D 83 05 01 2F 00  ../.,.../.-.../.
0CE0: 2E 83 05 01 2F 00 2F 83  05 01 2F 00 30 83 05 01  ...././.../.0...
0CF0: 2F 00 31 83 05 01 4E 00  2C 83 05 01 4E 00 2D 83  /.1...N.,...N.-.
0D00: 05 01 4E 00 2E 83 05 01  4E 00 2F 83 05 01 4E 00  ..N.....N./...N.
0D10: 30 83 05 01 4E 00 31 83  05 01 92 01 A6 83 05 01  0...N.1.........
0D20: 92 01 2C 83 05 01 92 01  28 83 05 01 92 01 A8 83  ..,.....(.......
0D30: 05 01 92 01 A9 83 05 01  92 01 A5 83 05 01 92 01  ................
0D40: 2C 83 05 01 92 01 2D 83  05 01 92 01 2E 83 05 01  ,.....-.........
0D50: 92 01 2F 83 05 01 92 01  30 83 05 01 92 01 31 83  ../.....0.....1.
0D60: 05 01 94 01 A6 83 05 01  94 01 2C 83 05 01 94 01  ..........,.....
0D70: 28 83 05 01 94 01 A8 83  05 01 94 01 A9 83 05 01  (...............
0D80: 94 01 A5 83 05 01 94 01  2C 83 05 01 94 01 2D 83  ........,.....-.
0D90: 05 01 94 01 2E 83 05 01  94 01 2F 83 05 01 94 01  ........../.....
0DA0: 30 83 05 01 94 01 31 83  05 01 80 A6 83 05 01 80  0.....1.........
0DB0: 2C 83 05 01 80 28 83 05  01 80 A8 83 05 01 80 A9  ,....(..........
0DC0: 83 05 01 80 A5 83 05 01  80 31 83 05 01 BA 28 83  .........1....(.
0DD0: 05 01 56 80 57 80 58 80  59 80 BA A6 83 05 01 5A  ..V.W.X.Y......Z
0DE0: 80 5B 80 5C 80 59 80 BA  A8 83 05 01 5D 80 5E 80  .[.\.Y......].^.
0DF0: 5F 80 59 80 BA A9 83 05  01 60 80 61 80 62 80 59  _.Y......`.a.b.Y
0E00: 80 BA 2C 83 05 01 0C 80  0C 80 0C 80 0C 80 BA 2D  ..,............-
0E10: 83 05 01 0C 80 0C 80 0C  80 0C 80 BA 2E 83 05 01  ................
0E20: 0C 80 0C 80 0C 80 0C 80  BA 2F 83 05 01 0C 80 0C  ........./......
0E30: 80 0C 80 0C 80 BA 30 83  05 01 0C 80 0C 80 0C 80  ......0.........
0E40: 0C 80 BA 31 83 05 01 63  80 64 80 65 80 66 80 BA  ...1...c.d.e.f..
0E50: F0 FF FF 7F 67 80 68 80  69 80 6A 80 7E 06 2C 83  ....g.h.i.j.~.,.
0E60: 05 01 33 80 0C 80 0C 80  0C 80 0C 80 31 80 7E 04  ..3.........1.~.
0E70: 2C 83 05 01 7E 06 2D 83  05 01 33 80 0C 80 0C 80  ,...~.-...3.....
0E80: 0C 80 0C 80 31 80 7E 04  2D 83 05 01 7E 06 2E 83  ....1.~.-...~...
0E90: 05 01 33 80 0C 80 0C 80  0C 80 0C 80 31 80 7E 04  ..3.........1.~.
0EA0: 2E 83 05 01 7E 06 2F 83  05 01 33 80 0C 80 0C 80  ....~./...3.....
0EB0: 0C 80 0C 80 31 80 7E 04  2F 83 05 01 7E 06 30 83  ....1.~./...~.0.
0EC0: 05 01 33 80 0C 80 0C 80  0C 80 0C 80 31 80 7E 04  ..3.........1.~.
0ED0: 30 83 05 01 80 2C 83 05  01 80 2D 83 05 01 80 2E  0....,....-.....
0EE0: 83 05 01 80 2F 83 05 01  80 30 83 05 01 27 10 31  ..../....0...'.1
0EF0: 83 05 01 07 27 10 F0 FF  FF 7F 04 27 10 2D 83 05  ....'......'.-..
0F00: 01 05 27 10 2E 83 05 01  05 27 10 2F 83 05 01 05  ..'......'./....
0F10: 27 10 30 83 05 01 05 1C  31 80 27 10 28 83 05 01  '.0.....1.'.(...
0F20: 0A 45 0B 80 F8 FF FF 7F  F8 FF FF 7F 62 30 35 33  .E..........b053
0F30: 0C 80 1A B7 19 1C 4C 80  52 0B 80 F8 FF FF 7F F8  ......L.R.......
0F40: FF FF 7F 62 30 35 33 45  0B 80 F8 FF FF 7F F8 FF  ...b053E........
0F50: FF 7F 62 30 35 34 0C 80  1C 32 80 27 10 A6 83 05  ..b054...2.'....
0F60: 01 07 1C 14 80 4A F0 FF  FF 7F A6 83 05 01 52 0B  .....J........R.
0F70: 80 F8 FF FF 7F F8 FF FF  7F 62 30 35 34 45 0B 80  .........b054E..
0F80: F8 FF FF 7F F8 FF FF 7F  62 30 35 35 0C 80 2B A6  ........b055..+.
0F90: 83 05 01 6B 80 1C 1C 80  7A 00 28 83 05 01 2A 10  ...k....z.(...*.
0FA0: A6 83 05 01 6E F0 FF FF  7F 6C 80 99 F0 FF FF 7F  ....n....l......
0FB0: 1C 11 80 23 5C 00 6D 80  5C 01 6D 80 6F 76 A6 83  ...#\.m.\.m.ov..
0FC0: 05 01 9A 5B 6E 80 A6 83  05 01 A6 83 05 01 68 64  ...[n.........hd
0FD0: 63 30 52 0B 80 F8 FF FF  7F F8 FF FF 7F 62 30 35  c0R..........b05
0FE0: 35 45 0B 80 F8 FF FF 7F  F8 FF FF 7F 62 31 35 35  5E..........b155
0FF0: 0C 80 2B A6 83 05 01 6F  80 BA 28 83 05 01 70 80  ..+....o..(...p.
1000: 71 80 72 80 59 80 4A 28  83 05 01 A6 83 05 01 1C  q.r.Y.J(........
1010: 1B 80 23 5B 6E 80 A6 83  05 01 A6 83 05 01 68 64  ..#[n.........hd
1020: 63 31 52 0B 80 F8 FF FF  7F F8 FF FF 7F 62 31 35  c1R..........b15
1030: 35 45 0B 80 F8 FF FF 7F  F8 FF FF 7F 6F 76 34 30  5E..........ov40
1040: 0C 80 45 0B 80 F8 FF FF  7F F8 FF FF 7F 62 30 35  ..E..........b05
1050: 36 0C 80 2B A6 83 05 01  73 80 29 10 F0 FF FF 7F  6..+....s.).....
1060: 2C 02 02 10 34 80 80 80  10 59 05 F0 FF FF 7F 01  ,...4....Y......
1070: BA F0 FF FF 7F 67 80 68  80 74 80 6A 80 01 9F 10  .....g.h.t.j....
1080: 02 02 10 2B 80 80 9F 10  59 05 F0 FF FF 7F 01 BA  ...+....Y.......
1090: F0 FF FF 7F 67 80 68 80  74 80 6A 80 01 9F 10 1C  ....g.h.t.j.....
10A0: 14 80 23 5D 0C 80 39 80  52 0B 80 F8 FF FF 7F F8  ..#]..9.R.......
10B0: FF FF 7F 62 30 35 36 45  0B 80 F8 FF FF 7F F8 FF  ...b056E........
10C0: FF 7F 6F 76 34 30 0C 80  45 0B 80 F8 FF FF 7F F8  ..ov40..E.......
10D0: FF FF 7F 62 30 35 37 0C  80 27 10 A8 83 05 01 04  ...b057..'......
10E0: 1C 30 80 4A F0 FF FF 7F  A8 83 05 01 27 10 A9 83  .0.J........'...
10F0: 05 01 04 7B A6 83 05 01  1C 0A 80 6E F0 FF FF 7F  ...{.......n....
1100: 6C 80 99 F0 FF FF 7F 1C  13 80 81 00 A6 83 05 01  l...............
1110: 7C 00 A6 83 05 01 5B 24  80 A6 83 05 01 A6 83 05  |.....[$........
1120: 01 6F 64 6F 30 52 0B 80  F8 FF FF 7F F8 FF FF 7F  .odo0R..........
1130: 62 30 35 37 45 0B 80 F8  FF FF 7F F8 FF FF 7F 62  b057E..........b
1140: 30 35 38 0C 80 2B A6 83  05 01 75 80 27 10 F0 FF  058..+....u.'...
1150: FF 7F 2A 59 05 F0 FF FF  7F 00 1C 31 80 7A 00 A8  ..*Y.......1.z..
1160: 83 05 01 7A 00 A9 83 05  01 BA 28 83 05 01 76 80  ...z......(...v.
1170: 77 80 78 80 59 80 BA A9  83 05 01 79 80 7A 80 7B  w.x.Y......y.z.{
1180: 80 59 80 4A 28 83 05 01  A6 83 05 01 1C 17 80 23  .Y.J(..........#
1190: 5C 00 7C 80 5C 01 7C 80  9A 27 10 A8 83 05 01 05  \.|.\.|..'......
11A0: 1C 30 80 27 10 A9 83 05  01 05 5B 7D 80 A6 83 05  .0.'......[}....
11B0: 01 A6 83 05 01 69 62 75  30 52 0B 80 F8 FF FF 7F  .....ibu0R......
11C0: F8 FF FF 7F 62 30 35 38  45 0B 80 F8 FF FF 7F F8  ....b058E.......
11D0: FF FF 7F 6F 76 34 30 0C  80 45 0B 80 F8 FF FF 7F  ...ov40..E......
11E0: F8 FF FF 7F 62 30 35 39  0C 80 2B A6 83 05 01 7E  ....b059..+....~
11F0: 80 1C 7F 80 23 5B 4B 80  A6 83 05 01 A6 83 05 01  ....#[K.........
1200: 66 69 30 31 52 0B 80 F8  FF FF 7F F8 FF FF 7F 62  fi01R..........b
1210: 30 35 39 45 0B 80 F8 FF  FF 7F F8 FF FF 7F 6F 76  059E..........ov
1220: 34 30 0C 80 45 0B 80 F8  FF FF 7F F8 FF FF 7F 62  40..E..........b
1230: 30 36 30 0C 80 2B A6 83  05 01 80 80 27 10 2D 83  060..+......'.-.
1240: 05 01 06 27 10 2E 83 05  01 06 27 10 2F 83 05 01  ...'......'./...
1250: 06 27 10 30 83 05 01 06  1C 31 80 BA 2C 83 05 01  .'.0.....1..,...
1260: 81 80 82 80 83 80 84 80  BA 2D 83 05 01 85 80 86  .........-......
1270: 80 87 80 84 80 BA 2E 83  05 01 88 80 89 80 8A 80  ................
1280: 84 80 BA 2F 83 05 01 8B  80 8C 80 8D 80 84 80 BA  .../............
1290: 30 83 05 01 8E 80 8F 80  90 80 84 80 1C 34 80 23  0............4.#
12A0: 5B 4B 80 A6 83 05 01 A6  83 05 01 66 69 30 30 2A  [K.........fi00*
12B0: 10 A8 83 05 01 2A 10 A9  83 05 01 27 10 2C 83 05  .....*.....'.,..
12C0: 01 02 27 10 2D 83 05 01  02 27 10 2E 83 05 01 02  ..'.-....'......
12D0: 27 10 2F 83 05 01 02 27  10 30 83 05 01 02 1C 17  './....'.0......
12E0: 80 52 0B 80 F8 FF FF 7F  F8 FF FF 7F 62 30 36 30  .R..........b060
12F0: 45 0B 80 F8 FF FF 7F F8  FF FF 7F 62 30 36 31 0C  E..........b061.
1300: 80 5B 4B 80 A6 83 05 01  A6 83 05 01 66 63 30 30  .[K.........fc00
1310: 2B A5 83 05 01 91 80 23  2A 10 2D 83 05 01 2A 10  +......#*.-...*.
1320: 2E 83 05 01 2A 10 2F 83  05 01 2A 10 30 83 05 01  ....*./...*.0...
1330: 52 0B 80 F8 FF FF 7F F8  FF FF 7F 62 30 36 31 45  R..........b061E
1340: 0B 80 F8 FF FF 7F F8 FF  FF 7F 62 30 36 32 0C 80  ..........b062..
1350: 2B A6 83 05 01 92 80 BA  2F 83 05 01 93 80 94 80  +......./.......
1360: 95 80 96 80 BA 30 83 05  01 97 80 98 80 99 80 96  .....0..........
1370: 80 BA 2C 83 05 01 9A 80  9B 80 9C 80 9D 80 7E 05  ..,...........~.
1380: 2C 83 05 01 27 10 31 83  05 01 08 4A 2F 83 05 01  ,...'.1....J/...
1390: 28 83 05 01 4A 30 83 05  01 28 83 05 01 1C 9E 80  (...J0...(......
13A0: 80 2C 83 05 01 23 5B 9F  80 2C 83 05 01 2C 83 05  .,...#[..,...,..
13B0: 01 7A 61 30 30 52 0B 80  F8 FF FF 7F F8 FF FF 7F  .za00R..........
13C0: 62 30 36 32 45 0B 80 F8  FF FF 7F F8 FF FF 7F 62  b062E..........b
13D0: 30 36 33 0C 80 45 0B 80  F8 FF FF 7F F8 FF FF 7F  063..E..........
13E0: 73 65 7A 61 0C 80 BA 28  83 05 01 A0 80 A1 80 A2  seza...(........
13F0: 80 A3 80 BA A8 83 05 01  A4 80 A5 80 A6 80 A3 80  ................
1400: BA A9 83 05 01 A7 80 A8  80 A9 80 A3 80 4A 28 83  .............J(.
1410: 05 01 2C 83 05 01 1C AA  80 27 10 A6 83 05 01 04  ..,......'......
1420: 4A A8 83 05 01 2C 83 05  01 1C 0A 80 4A A9 83 05  J....,......J...
1430: 01 2C 83 05 01 1C AB 80  2B 2C 83 05 01 AC 80 1C  .,......+,......
1440: AD 80 52 0B 80 F8 FF FF  7F F8 FF FF 7F 62 30 36  ..R..........b06
1450: 33 45 0B 80 F8 FF FF 7F  F8 FF FF 7F 6F 76 34 30  3E..........ov40
1460: 0C 80 45 0B 80 F8 FF FF  7F F8 FF FF 7F 62 30 36  ..E..........b06
1470: 34 0C 80 5B AE 80 28 83  05 01 28 83 05 01 6F 64  4..[..(...(...od
1480: 6F 30 1C AF 80 23 5D 0C  80 39 80 1A 43 18 52 0B  o0...#]..9..C.R.
1490: 80 F8 FF FF 7F F8 FF FF  7F 62 30 36 34 7E 05 2D  .........b064~.-
14A0: 83 05 01 7E 05 2E 83 05  01 7E 05 2F 83 05 01 7E  ...~.....~./...~
14B0: 05 30 83 05 01 2F 00 32  83 05 01 4E 00 32 83 05  .0.../.2...N.2..
14C0: 01 2F 00 33 83 05 01 4E  00 33 83 05 01 2F 00 34  ./.3...N.3.../.4
14D0: 83 05 01 4E 00 34 83 05  01 2F 00 35 83 05 01 4E  ...N.4.../.5...N
14E0: 00 35 83 05 01 BA 32 83  05 01 B0 80 B1 80 B2 80  .5....2.........
14F0: B3 80 BA 33 83 05 01 B4  80 B5 80 B2 80 B3 80 BA  ...3............
1500: 34 83 05 01 B6 80 B7 80  B8 80 B9 80 BA 35 83 05  4............5..
1510: 01 BA 80 BB 80 BC 80 BD  80 BA 2D 83 05 01 BE 80  ..........-.....
1520: BF 80 C0 80 C1 80 BA 2E  83 05 01 C2 80 C3 80 C4  ................
1530: 80 C5 80 BA 2F 83 05 01  C6 80 C7 80 C8 80 C9 80  ..../...........
1540: BA 30 83 05 01 CA 80 CB  80 CC 80 14 80 80 2D 83  .0............-.
1550: 05 01 80 2E 83 05 01 80  2F 83 05 01 80 30 83 05  ......../....0..
1560: 01 4A 2D 83 05 01 28 83  05 01 4A 2E 83 05 01 28  .J-...(...J....(
1570: 83 05 01 4A 2F 83 05 01  28 83 05 01 4A 30 83 05  ...J/...(...J0..
1580: 01 28 83 05 01 59 05 28  83 05 01 01 59 05 A8 83  .(...Y.(....Y...
1590: 05 01 01 BA 28 83 05 01  CD 80 CE 80 CF 80 D0 80  ....(...........
15A0: BA A8 83 05 01 D1 80 D2  80 D3 80 D4 80 BA A9 83  ................
15B0: 05 01 A7 80 A8 80 A9 80  A3 80 BA A6 83 05 01 D5  ................
15C0: 80 D6 80 D7 80 6A 80 BA  F0 FF FF 7F D8 80 D9 80  .....j..........
15D0: DA 80 A3 80 4A F0 FF FF  7F 28 83 05 01 6B 69 64  ....J....(...kid
15E0: 6C 30 2C 83 05 01 6B 69  64 6C 30 A6 83 05 01 27  l0,...kidl0....'
15F0: 10 A6 83 05 01 05 92 00  F0 FF FF 7F 27 10 F0 FF  ............'...
1600: FF 7F 04 5B AE 80 28 83  05 01 28 83 05 01 64 65  ...[..(...(...de
1610: 64 6C 5B AE 80 A8 83 05  01 A8 83 05 01 64 65 64  dl[..........ded
1620: 6C 5B AE 80 A9 83 05 01  A9 83 05 01 64 65 64 6C  l[..........dedl
1630: 4A A6 83 05 01 2C 83 05  01 4A 2C 83 05 01 A6 83  J....,...J,.....
1640: 05 01 45 0B 80 F8 FF FF  7F F8 FF FF 7F 64 6F 6B  ..E..........dok
1650: 61 0C 80 1C DB 80 81 01  A6 83 05 01 5B 4B 80 A6  a...........[K..
1660: 83 05 01 A6 83 05 01 66  64 30 30 45 0B 80 F8 FF  .......fd00E....
1670: FF 7F F8 FF FF 7F 62 30  36 35 0C 80 1A B7 19 6E  ......b065.....n
1680: F0 FF FF 7F DC 80 99 F0  FF FF 7F 1C 29 80 5C 00  ............).\.
1690: 09 80 5C 01 09 80 9A 52  0B 80 F8 FF FF 7F F8 FF  ..\....R........
16A0: FF 7F 62 30 36 35 45 0B  80 F8 FF FF 7F F8 FF FF  ..b065E.........
16B0: 7F 6F 76 36 30 0C 80 45  0B 80 F8 FF FF 7F F8 FF  .ov60..E........
16C0: FF 7F 62 30 36 36 0C 80  66 DD 80 2C 83 05 01 2C  ..b066..f..,...,
16D0: 83 05 01 74 77 61 30 4A  F0 FF FF 7F 2C 83 05 01  ...twa0J....,...
16E0: 2B 2C 83 05 01 DE 80 23  66 DD 80 2C 83 05 01 2C  +,.....#f..,...,
16F0: 83 05 01 74 77 61 31 7B  A6 83 05 01 5B 48 80 A6  ...twa1{....[H..
1700: 83 05 01 A6 83 05 01 74  6C 64 30 52 0B 80 F8 FF  .......tld0R....
1710: FF 7F F8 FF FF 7F 62 30  36 36 45 0B 80 F8 FF FF  ......b066E.....
1720: 7F F8 FF FF 7F 6F 76 34  30 0C 80 45 0B 80 F8 FF  .....ov40..E....
1730: FF 7F F8 FF FF 7F 62 30  36 37 0C 80 1C AF 80 5B  ......b067.....[
1740: 48 80 A6 83 05 01 A6 83  05 01 74 6C 64 31 52 0B  H.........tld1R.
1750: 80 F8 FF FF 7F F8 FF FF  7F 62 30 36 37 45 0B 80  .........b067E..
1760: F8 FF FF 7F F8 FF FF 7F  6F 76 34 30 0C 80 45 0B  ........ov40..E.
1770: 80 F8 FF FF 7F F8 FF FF  7F 62 30 36 38 0C 80 79  .........b068..y
1780: 00 A6 83 05 01 2C 83 05  01 66 DD 80 2C 83 05 01  .....,...f..,...
1790: 2C 83 05 01 74 77 62 30  2B 2C 83 05 01 DF 80 23  ,...twb0+,.....#
17A0: 66 DD 80 2C 83 05 01 2C  83 05 01 74 77 62 31 1A  f..,...,...twb1.
17B0: 43 18 52 0B 80 F8 FF FF  7F F8 FF FF 7F 62 30 36  C.R..........b06
17C0: 38 27 10 F0 FF FF 7F 2B  1C 0A 80 46 00 45 39 80  8'.....+...F.E9.
17D0: F0 FF FF 7F F0 FF FF 7F  66 64 69 32 0C 80 21 00  ........fdi2..!.
17E0: 45 39 80 F0 FF FF 7F F0  FF FF 7F 66 64 69 30 0C  E9.........fdi0.
17F0: 80 55 39 80 F0 FF FF 7F  F0 FF FF 7F 66 64 69 30  .U9.........fdi0
1800: 1B 45 39 80 F0 FF FF 7F  F0 FF FF 7F 66 64 6F 30  .E9.........fdo0
1810: 0C 80 55 39 80 F0 FF FF  7F F0 FF FF 7F 66 64 6F  ..U9.........fdo
1820: 30 1B 45 39 80 F0 FF FF  7F F0 FF FF 7F 66 64 69  0.E9.........fdi
1830: 31 0C 80 55 39 80 F0 FF  FF 7F F0 FF FF 7F 66 64  1..U9.........fd
1840: 69 31 1B 45 39 80 F0 FF  FF 7F F0 FF FF 7F 66 64  i1.E9.........fd
1850: 6F 31 0C 80 55 39 80 F0  FF FF 7F F0 FF FF 7F 66  o1..U9.........f
1860: 64 6F 31 1B 45 E0 80 F0  FF FF 7F F0 FF FF 7F 77  do1.E..........w
1870: 68 69 31 0C 80 55 E0 80  F0 FF FF 7F F0 FF FF 7F  hi1..U..........
1880: 77 68 69 31 1B 45 E0 80  F0 FF FF 7F F0 FF FF 7F  whi1.E..........
1890: 77 68 6F 31 0C 80 55 E0  80 F0 FF FF 7F F0 FF FF  who1..U.........
18A0: 7F 77 68 6F 31 1B 45 E0  80 F0 FF FF 7F F0 FF FF  .who1.E.........
18B0: 7F 77 68 6F 32 0C 80 55  E0 80 F0 FF FF 7F F0 FF  .who2..U........
18C0: FF 7F 77 68 6F 32 1B 45  E0 80 F0 FF FF 7F F0 FF  ..who2.E........
18D0: FF 7F 77 68 6F 33 0C 80  55 E0 80 F0 FF FF 7F F0  ..who3..U.......
18E0: FF FF 7F 77 68 6F 33 1B  62 31 80 F0 FF FF 7F F0  ...who3.b1......
18F0: FF FF 7F 6D 61 69 6E 0C  80 1C 9E 80 45 39 80 F0  ...main.....E9..
1900: FF FF 7F F0 FF FF 7F 66  64 6F 31 0C 80 55 39 80  .......fdo1..U9.
1910: F0 FF FF 7F F0 FF FF 7F  66 64 6F 31 1B 45 39 80  ........fdo1.E9.
1920: F0 FF FF 7F F0 FF FF 7F  66 64 69 31 0C 80 62 33  ........fdi1..b3
1930: 80 F0 FF FF 7F F0 FF FF  7F 6D 61 69 6E 0C 80 1C  .........main...
1940: 0A 80 55 39 80 F0 FF FF  7F F0 FF FF 7F 66 64 69  ..U9.........fdi
1950: 31 1B 45 39 80 F0 FF FF  7F F0 FF FF 7F 62 6C 6F  1.E9.........blo
1960: 6E 0C 80 45 E0 80 F0 FF  FF 7F F0 FF FF 7F 62 6C  n..E..........bl
1970: 6F 6E 0C 80 1B 45 E0 80  F0 FF FF 7F F0 FF FF 7F  on...E..........
1980: 77 68 69 30 0C 80 55 E0  80 F0 FF FF 7F F0 FF FF  whi0..U.........
1990: 7F 77 68 69 30 1B 45 E0  80 F0 FF FF 7F F0 FF FF  .whi0.E.........
19A0: 7F 77 68 6F 30 0C 80 55  E0 80 F0 FF FF 7F F0 FF  .who0..U........
19B0: FF 7F 77 68 6F 30 1B 45  E1 80 F0 FF FF 7F F0 FF  ..who0.E........
19C0: FF 7F 65 66 6F 6E 0C 80  55 E1 80 F0 FF FF 7F F0  ..efon..U.......
19D0: FF FF 7F 65 66 6F 6E 1B  45 39 80 F0 FF FF 7F F0  ...efon.E9......
19E0: FF FF 7F 66 64 69 73 0C  80 1B 45 39 80 F0 FF FF  ...fdis...E9....
19F0: 7F F0 FF FF 7F 66 64 6F  73 0C 80 55 39 80 F0 FF  .....fdos..U9...
1A00: FF 7F F0 FF FF 7F 66 64  6F 73 1B 45 39 80 F0 FF  ......fdos.E9...
1A10: FF 7F F0 FF FF 7F 66 64  69 66 0C 80 1B 45 39 80  ......fdif...E9.
1A20: F0 FF FF 7F F0 FF FF 7F  66 64 6F 66 0C 80 55 39  ........fdof..U9
1A30: 80 F0 FF FF 7F F0 FF FF  7F 66 64 6F 66 1B 45 39  .........fdof.E9
1A40: 80 F0 FF FF 7F F0 FF FF  7F 66 64 69 70 0C 80 1B  .........fdip...
1A50: 45 39 80 F0 FF FF 7F F0  FF FF 7F 66 64 6F 70 0C  E9.........fdop.
1A60: 80 55 39 80 F0 FF FF 7F  F0 FF FF 7F 66 64 6F 70  .U9.........fdop
1A70: 1B 45 E2 80 F8 FF FF 7F  F8 FF FF 7F 6F 6C 64 31  .E..........old1
1A80: 0C 80 55 E2 80 F8 FF FF  7F F8 FF FF 7F 6F 6C 64  ..U..........old
1A90: 31 1B 45 E2 80 F8 FF FF  7F F8 FF FF 7F 6E 65 77  1.E..........new
1AA0: 31 0C 80 55 E2 80 F8 FF  FF 7F F8 FF FF 7F 6E 65  1..U..........ne
1AB0: 77 31 1B                                          w1.             
```

#### Opcodes

```
  0: 0x0C9A [0x42] SET_CLI_EVENT_CANCEL_DATA()
  1: 0x0C9B [0x1A] CALL_SUBROUTINE(address=0x1843)
  2: 0x0C9E [0x46] CAMERA_CONTROL: Disable user control
  3: 0x0CA0 [0x38] SET_CLIENT_EVENT_MODE(mode=19*)
  4: 0x0CA3 [0x5D] SET_MUSIC_VOLUME(volume=0*, fade_time=200*)
  5: 0x0CA8 [0x27] REQ_SET(priority=0x10, entity_id=Lilisette (ID: 17138598/0x010583A6), tag_num=0x0B)
  6: 0x0CAF [0x27] REQ_SET(priority=0x10, entity_id=Zazarg (ID: 17138476/0x0105832C), tag_num=0x0E)
  7: 0x0CB6 [0x27] REQ_SET(priority=0x10, entity_id=Unnamed NPC (ID: 17138472/0x01058328), tag_num=0x0E)
  8: 0x0CBD [0x27] REQ_SET(priority=0x10, entity_id=02 (ID: 17138600/0x010583A8), tag_num=0x07)
  9: 0x0CC4 [0x27] REQ_SET(priority=0x10, entity_id=03 (ID: 17138601/0x010583A9), tag_num=0x07)
 10: 0x0CCB [0x27] REQ_SET(priority=0x10, entity_id=??? (ID: 17138597/0x010583A5), tag_num=0x03)
 11: 0x0CD2 [0x2F] Zazarg (ID: 17138476/0x0105832C)->Render.Flags0 &= ~0x80000 // Bit 19
 12: 0x0CD8 [0x2F] Unnamed NPC (ID: 17138477/0x0105832D)->Render.Flags0 &= ~0x80000 // Bit 19
 13: 0x0CDE [0x2F] Unnamed NPC (ID: 17138478/0x0105832E)->Render.Flags0 &= ~0x80000 // Bit 19
 14: 0x0CE4 [0x2F] Unnamed NPC (ID: 17138479/0x0105832F)->Render.Flags0 &= ~0x80000 // Bit 19
 15: 0x0CEA [0x2F] Unnamed NPC (ID: 17138480/0x01058330)->Render.Flags0 &= ~0x80000 // Bit 19
 16: 0x0CF0 [0x2F] Unnamed NPC (ID: 17138481/0x01058331)->Render.Flags0 &= ~0x80000 // Bit 19
 17: 0x0CF6 [0x4E] SET_ENTITY_HIDE_FLAG: Show Zazarg (ID: 17138476/0x0105832C)
 18: 0x0CFC [0x4E] SET_ENTITY_HIDE_FLAG: Show Unnamed NPC (ID: 17138477/0x0105832D)
 19: 0x0D02 [0x4E] SET_ENTITY_HIDE_FLAG: Show Unnamed NPC (ID: 17138478/0x0105832E)
 20: 0x0D08 [0x4E] SET_ENTITY_HIDE_FLAG: Show Unnamed NPC (ID: 17138479/0x0105832F)
 21: 0x0D0E [0x4E] SET_ENTITY_HIDE_FLAG: Show Unnamed NPC (ID: 17138480/0x01058330)
 22: 0x0D14 [0x4E] SET_ENTITY_HIDE_FLAG: Show Unnamed NPC (ID: 17138481/0x01058331)
 23: 0x0D1A [0x92] Lilisette (ID: 17138598/0x010583A6)->Render.Flags3 ^= 0x01
 24: 0x0D20 [0x92] Zazarg (ID: 17138476/0x0105832C)->Render.Flags3 ^= 0x01
 25: 0x0D26 [0x92] Unnamed NPC (ID: 17138472/0x01058328)->Render.Flags3 ^= 0x01
 26: 0x0D2C [0x92] 02 (ID: 17138600/0x010583A8)->Render.Flags3 ^= 0x01
 27: 0x0D32 [0x92] 03 (ID: 17138601/0x010583A9)->Render.Flags3 ^= 0x01
 28: 0x0D38 [0x92] ??? (ID: 17138597/0x010583A5)->Render.Flags3 ^= 0x01
 29: 0x0D3E [0x92] Zazarg (ID: 17138476/0x0105832C)->Render.Flags3 ^= 0x01
 30: 0x0D44 [0x92] Unnamed NPC (ID: 17138477/0x0105832D)->Render.Flags3 ^= 0x01
 31: 0x0D4A [0x92] Unnamed NPC (ID: 17138478/0x0105832E)->Render.Flags3 ^= 0x01
 32: 0x0D50 [0x92] Unnamed NPC (ID: 17138479/0x0105832F)->Render.Flags3 ^= 0x01
 33: 0x0D56 [0x92] Unnamed NPC (ID: 17138480/0x01058330)->Render.Flags3 ^= 0x01
 34: 0x0D5C [0x92] Unnamed NPC (ID: 17138481/0x01058331)->Render.Flags3 ^= 0x01
 35: 0x0D62 [0x94] Lilisette (ID: 17138598/0x010583A6)->Render.Flags3 ^= 0x01
 36: 0x0D68 [0x94] Zazarg (ID: 17138476/0x0105832C)->Render.Flags3 ^= 0x01
 37: 0x0D6E [0x94] Unnamed NPC (ID: 17138472/0x01058328)->Render.Flags3 ^= 0x01
 38: 0x0D74 [0x94] 02 (ID: 17138600/0x010583A8)->Render.Flags3 ^= 0x01
 39: 0x0D7A [0x94] 03 (ID: 17138601/0x010583A9)->Render.Flags3 ^= 0x01
 40: 0x0D80 [0x94] ??? (ID: 17138597/0x010583A5)->Render.Flags3 ^= 0x01
 41: 0x0D86 [0x94] Zazarg (ID: 17138476/0x0105832C)->Render.Flags3 ^= 0x01
 42: 0x0D8C [0x94] Unnamed NPC (ID: 17138477/0x0105832D)->Render.Flags3 ^= 0x01
 43: 0x0D92 [0x94] Unnamed NPC (ID: 17138478/0x0105832E)->Render.Flags3 ^= 0x01
 44: 0x0D98 [0x94] Unnamed NPC (ID: 17138479/0x0105832F)->Render.Flags3 ^= 0x01
 45: 0x0D9E [0x94] Unnamed NPC (ID: 17138480/0x01058330)->Render.Flags3 ^= 0x01
 46: 0x0DA4 [0x94] Unnamed NPC (ID: 17138481/0x01058331)->Render.Flags3 ^= 0x01
 47: 0x0DAA [0x80] LOAD_WAIT(entity=Lilisette (ID: 17138598/0x010583A6))
 48: 0x0DAF [0x80] LOAD_WAIT(entity=Zazarg (ID: 17138476/0x0105832C))
 49: 0x0DB4 [0x80] LOAD_WAIT(entity=Unnamed NPC (ID: 17138472/0x01058328))
 50: 0x0DB9 [0x80] LOAD_WAIT(entity=02 (ID: 17138600/0x010583A8))
 51: 0x0DBE [0x80] LOAD_WAIT(entity=03 (ID: 17138601/0x010583A9))
 52: 0x0DC3 [0x80] LOAD_WAIT(entity=??? (ID: 17138597/0x010583A5))
 53: 0x0DC8 [0x80] LOAD_WAIT(entity=Unnamed NPC (ID: 17138481/0x01058331))
 54: 0x0DCD [0xBA] SET_ENTITY_POSITION(entity_id=Unnamed NPC (ID: 17138472/0x01058328), pos_x=-495.613*, pos_z=556.574*, pos_y=39.315*, direction=230.3°*)
 55: 0x0DDA [0xBA] SET_ENTITY_POSITION(entity_id=Lilisette (ID: 17138598/0x010583A6), pos_x=-517.604*, pos_z=573.935*, pos_y=39.630*, direction=230.3°*)
 56: 0x0DE7 [0xBA] SET_ENTITY_POSITION(entity_id=02 (ID: 17138600/0x010583A8), pos_x=-512.104*, pos_z=563.387*, pos_y=39.830*, direction=230.3°*)
 57: 0x0DF4 [0xBA] SET_ENTITY_POSITION(entity_id=03 (ID: 17138601/0x010583A9), pos_x=-508.471*, pos_z=564.110*, pos_y=39.381*, direction=230.3°*)
 58: 0x0E01 [0xBA] SET_ENTITY_POSITION(entity_id=Zazarg (ID: 17138476/0x0105832C), pos_x=0.000*, pos_z=0.000*, pos_y=0.000*, direction=0.0°*)
 59: 0x0E0E [0xBA] SET_ENTITY_POSITION(entity_id=Unnamed NPC (ID: 17138477/0x0105832D), pos_x=0.000*, pos_z=0.000*, pos_y=0.000*, direction=0.0°*)
 60: 0x0E1B [0xBA] SET_ENTITY_POSITION(entity_id=Unnamed NPC (ID: 17138478/0x0105832E), pos_x=0.000*, pos_z=0.000*, pos_y=0.000*, direction=0.0°*)
 61: 0x0E28 [0xBA] SET_ENTITY_POSITION(entity_id=Unnamed NPC (ID: 17138479/0x0105832F), pos_x=0.000*, pos_z=0.000*, pos_y=0.000*, direction=0.0°*)
 62: 0x0E35 [0xBA] SET_ENTITY_POSITION(entity_id=Unnamed NPC (ID: 17138480/0x01058330), pos_x=0.000*, pos_z=0.000*, pos_y=0.000*, direction=0.0°*)
 63: 0x0E42 [0xBA] SET_ENTITY_POSITION(entity_id=Unnamed NPC (ID: 17138481/0x01058331), pos_x=-495.769*, pos_z=556.273*, pos_y=39.236*, direction=335.5°*)
 64: 0x0E4F [0xBA] SET_ENTITY_POSITION(entity_id=LocalPlayer, pos_x=-511.447*, pos_z=576.512*, pos_y=39.151*, direction=234.0°*)
 65: 0x0E5C [0x7E] CHOCOBO_MOUNT: Mode 6 (custom mount) on Zazarg (ID: 17138476/0x0105832C)
 66: 0x0E6E [0x7E] CHOCOBO_MOUNT: Mode 4 on Zazarg (ID: 17138476/0x0105832C)
 67: 0x0E74 [0x7E] CHOCOBO_MOUNT: Mode 6 (custom mount) on Unnamed NPC (ID: 17138477/0x0105832D)
 68: 0x0E86 [0x7E] CHOCOBO_MOUNT: Mode 4 on Unnamed NPC (ID: 17138477/0x0105832D)
 69: 0x0E8C [0x7E] CHOCOBO_MOUNT: Mode 6 (custom mount) on Unnamed NPC (ID: 17138478/0x0105832E)
 70: 0x0E9E [0x7E] CHOCOBO_MOUNT: Mode 4 on Unnamed NPC (ID: 17138478/0x0105832E)
 71: 0x0EA4 [0x7E] CHOCOBO_MOUNT: Mode 6 (custom mount) on Unnamed NPC (ID: 17138479/0x0105832F)
 72: 0x0EB6 [0x7E] CHOCOBO_MOUNT: Mode 4 on Unnamed NPC (ID: 17138479/0x0105832F)
 73: 0x0EBC [0x7E] CHOCOBO_MOUNT: Mode 6 (custom mount) on Unnamed NPC (ID: 17138480/0x01058330)
 74: 0x0ECE [0x7E] CHOCOBO_MOUNT: Mode 4 on Unnamed NPC (ID: 17138480/0x01058330)
 75: 0x0ED4 [0x80] LOAD_WAIT(entity=Zazarg (ID: 17138476/0x0105832C))
 76: 0x0ED9 [0x80] LOAD_WAIT(entity=Unnamed NPC (ID: 17138477/0x0105832D))
 77: 0x0EDE [0x80] LOAD_WAIT(entity=Unnamed NPC (ID: 17138478/0x0105832E))
 78: 0x0EE3 [0x80] LOAD_WAIT(entity=Unnamed NPC (ID: 17138479/0x0105832F))
 79: 0x0EE8 [0x80] LOAD_WAIT(entity=Unnamed NPC (ID: 17138480/0x01058330))
 80: 0x0EED [0x27] REQ_SET(priority=0x10, entity_id=Unnamed NPC (ID: 17138481/0x01058331), tag_num=0x07)
 81: 0x0EF4 [0x27] REQ_SET(priority=0x10, entity_id=LocalPlayer, tag_num=0x04)
 82: 0x0EFB [0x27] REQ_SET(priority=0x10, entity_id=Unnamed NPC (ID: 17138477/0x0105832D), tag_num=0x05)
 83: 0x0F02 [0x27] REQ_SET(priority=0x10, entity_id=Unnamed NPC (ID: 17138478/0x0105832E), tag_num=0x05)
 84: 0x0F09 [0x27] REQ_SET(priority=0x10, entity_id=Unnamed NPC (ID: 17138479/0x0105832F), tag_num=0x05)
 85: 0x0F10 [0x27] REQ_SET(priority=0x10, entity_id=Unnamed NPC (ID: 17138480/0x01058330), tag_num=0x05)
 86: 0x0F17 [0x1C] WAIT(1* ticks)
 87: 0x0F1A [0x27] REQ_SET(priority=0x10, entity_id=Unnamed NPC (ID: 17138472/0x01058328), tag_num=0x0A)
 88: 0x0F21 [0x45] LOAD_SCHEDULED_TASK: Load scheduler "b053" with entities [EventEntity, EventEntity], work=[548*, 0*]
 89: 0x0F32 [0x1A] CALL_SUBROUTINE(address=0x19B7)
 90: 0x0F35 [0x1C] WAIT(140* ticks)
 91: 0x0F38 [0x52] END_LOAD_SCHEDULER: End scheduler "b053" with entities [EventEntity, EventEntity], work=548*
 92: 0x0F47 [0x45] LOAD_SCHEDULED_TASK: Load scheduler "b054" with entities [EventEntity, EventEntity], work=[548*, 0*]
 93: 0x0F58 [0x1C] WAIT(80* ticks)
 94: 0x0F5B [0x27] REQ_SET(priority=0x10, entity_id=Lilisette (ID: 17138598/0x010583A6), tag_num=0x07)
 95: 0x0F62 [0x1C] WAIT(60* ticks)
 96: 0x0F65 [0x4A] LocalPlayer looks at Lilisette (ID: 17138598/0x010583A6)
 97: 0x0F6E [0x52] END_LOAD_SCHEDULER: End scheduler "b054" with entities [EventEntity, EventEntity], work=548*
 98: 0x0F7D [0x45] LOAD_SCHEDULED_TASK: Load scheduler "b055" with entities [EventEntity, EventEntity], work=[548*, 0*]
 99: 0x0F8E [0x2B] Lilisette (ID: 17138598/0x010583A6) [8130*]:
    → "Not so fast!"
100: 0x0F95 [0x1C] WAIT(40* ticks)
101: 0x0F98 [0x7A] VM_CONTROL: Reset VM for Unnamed NPC (ID: 17138472/0x01058328)
102: 0x0F9E [0x2A] GET_REQ_LEVEL(level=16, entity_id=Lilisette (ID: 17138598/0x010583A6))
103: 0x0FA4 [0x6E] LocalPlayer uses emote 21*
104: 0x0FAB [0x99] Wait for LocalPlayer animation to complete
105: 0x0FB0 [0x1C] WAIT(90* ticks)
106: 0x0FB3 [0x23] WAIT_FOR_DIALOG_INTERACTION
107: 0x0FB4 [0x5C] MUSIC_CONTROL: Set Idle (Day) music to song 246*
108: 0x0FB8 [0x5C] MUSIC_CONTROL: Set Idle (Night) music to song 246*
109: 0x0FBC [0x6F] WAIT_FRAME_DELAY: Yield until WaitTime reaches zero
110: 0x0FBD [0x76] CHECK_ENTITY_RENDER_FLAGS: Wait until Lilisette (ID: 17138598/0x010583A6) Render.Flags0 and Render.Flags3 conditions are met
111: 0x0FC2 [0x9A] WAIT_MUSIC_SERVER()
112: 0x0FC3 [0x5B] LOAD_EXT_SCHEDULER: Load scheduler "hdc0" with entities [Lilisette (ID: 17138598/0x010583A6), Lilisette (ID: 17138598/0x010583A6)], work=2242*
113: 0x0FD2 [0x52] END_LOAD_SCHEDULER: End scheduler "b055" with entities [EventEntity, EventEntity], work=548*
114: 0x0FE1 [0x45] LOAD_SCHEDULED_TASK: Load scheduler "b155" with entities [EventEntity, EventEntity], work=[548*, 0*]
115: 0x0FF2 [0x2B] Lilisette (ID: 17138598/0x010583A6) [8131*]:
    → "I believe you have something that doesn't belong to you."
116: 0x0FF9 [0xBA] SET_ENTITY_POSITION(entity_id=Unnamed NPC (ID: 17138472/0x01058328), pos_x=-513.903*, pos_z=574.361*, pos_y=39.293*, direction=230.3°*)
117: 0x1006 [0x4A] Unnamed NPC (ID: 17138472/0x01058328) looks at Lilisette (ID: 17138598/0x010583A6)
118: 0x100F [0x1C] WAIT(160* ticks)
119: 0x1012 [0x23] WAIT_FOR_DIALOG_INTERACTION
120: 0x1013 [0x5B] LOAD_EXT_SCHEDULER: Load scheduler "hdc1" with entities [Lilisette (ID: 17138598/0x010583A6), Lilisette (ID: 17138598/0x010583A6)], work=2242*
121: 0x1022 [0x52] END_LOAD_SCHEDULER: End scheduler "b155" with entities [EventEntity, EventEntity], work=548*
122: 0x1031 [0x45] LOAD_SCHEDULED_TASK: Load scheduler "ov40" with entities [EventEntity, EventEntity], work=[548*, 0*]
123: 0x1042 [0x45] LOAD_SCHEDULED_TASK: Load scheduler "b056" with entities [EventEntity, EventEntity], work=[548*, 0*]
124: 0x1053 [0x2B] Lilisette (ID: 17138598/0x010583A6) [8132*]:
    → "Hehehehe... Surrender that missive this instant, or Future Fabulous will make you wish you did!"
125: 0x105A [0x29] REQ_SET_WAIT(priority=0x10, entity_id=LocalPlayer, tag_num=0x2C)
126: 0x1061 [0x02] IF !(Work_Zone[2] == 5*) GOTO 0x1080
127: 0x1069 [0x59] UPDATE_ENTITY_DATA: LocalPlayer->Render.Flags0 |= 0x200000
128: 0x1070 [0xBA] SET_ENTITY_POSITION(entity_id=LocalPlayer, pos_x=-511.447*, pos_z=576.512*, pos_y=38.600*, direction=234.0°*)
129: 0x107D [0x01] GOTO 0x109F
130: 0x1080 [0x02] IF !(Work_Zone[2] == 6*) GOTO 0x109F
131: 0x1088 [0x59] UPDATE_ENTITY_DATA: LocalPlayer->Render.Flags0 |= 0x200000
132: 0x108F [0xBA] SET_ENTITY_POSITION(entity_id=LocalPlayer, pos_x=-511.447*, pos_z=576.512*, pos_y=38.600*, direction=234.0°*)
133: 0x109C [0x01] GOTO 0x109F

SUBROUTINE_109F:
134: 0x109F [0x1C] WAIT(60* ticks)
135: 0x10A2 [0x23] WAIT_FOR_DIALOG_INTERACTION
136: 0x10A3 [0x5D] SET_MUSIC_VOLUME(volume=0*, fade_time=200*)
137: 0x10A8 [0x52] END_LOAD_SCHEDULER: End scheduler "b056" with entities [EventEntity, EventEntity], work=548*
138: 0x10B7 [0x45] LOAD_SCHEDULED_TASK: Load scheduler "ov40" with entities [EventEntity, EventEntity], work=[548*, 0*]
139: 0x10C8 [0x45] LOAD_SCHEDULED_TASK: Load scheduler "b057" with entities [EventEntity, EventEntity], work=[548*, 0*]
140: 0x10D9 [0x27] REQ_SET(priority=0x10, entity_id=02 (ID: 17138600/0x010583A8), tag_num=0x04)
141: 0x10E0 [0x1C] WAIT(15* ticks)
142: 0x10E3 [0x4A] LocalPlayer looks at 02 (ID: 17138600/0x010583A8)
143: 0x10EC [0x27] REQ_SET(priority=0x10, entity_id=03 (ID: 17138601/0x010583A9), tag_num=0x04)
144: 0x10F3 [0x7B] Lilisette (ID: 17138598/0x010583A6) stops talking
145: 0x10F8 [0x1C] WAIT(30* ticks)
146: 0x10FB [0x6E] LocalPlayer uses emote 21*
147: 0x1102 [0x99] Wait for LocalPlayer animation to complete
148: 0x1107 [0x1C] WAIT(120* ticks)
149: 0x110A [0x81] SET_ENTITY_BLINKING(blink_flag=0x00, entity=Lilisette (ID: 17138598/0x010583A6))
150: 0x1110 [0x7C] Lilisette (ID: 17138598/0x010583A6)->Render.Flags2 |= 0x00
151: 0x1116 [0x5B] LOAD_EXT_SCHEDULER: Load scheduler "odo0" with entities [Lilisette (ID: 17138598/0x010583A6), Lilisette (ID: 17138598/0x010583A6)], work=2134*
152: 0x1125 [0x52] END_LOAD_SCHEDULER: End scheduler "b057" with entities [EventEntity, EventEntity], work=548*
153: 0x1134 [0x45] LOAD_SCHEDULED_TASK: Load scheduler "b058" with entities [EventEntity, EventEntity], work=[548*, 0*]
154: 0x1145 [0x2B] Lilisette (ID: 17138598/0x010583A6) [8133*]:
    → "!!!"
155: 0x114C [0x27] REQ_SET(priority=0x10, entity_id=LocalPlayer, tag_num=0x2A)
156: 0x1153 [0x59] UPDATE_ENTITY_DATA: LocalPlayer->Render.Flags0 &= ~0x200000
157: 0x115A [0x1C] WAIT(1* ticks)
158: 0x115D [0x7A] VM_CONTROL: Reset VM for 02 (ID: 17138600/0x010583A8)
159: 0x1163 [0x7A] VM_CONTROL: Reset VM for 03 (ID: 17138601/0x010583A9)
160: 0x1169 [0xBA] SET_ENTITY_POSITION(entity_id=Unnamed NPC (ID: 17138472/0x01058328), pos_x=-513.472*, pos_z=573.647*, pos_y=39.058*, direction=230.3°*)
161: 0x1176 [0xBA] SET_ENTITY_POSITION(entity_id=03 (ID: 17138601/0x010583A9), pos_x=-505.959*, pos_z=571.743*, pos_y=38.409*, direction=230.3°*)
162: 0x1183 [0x4A] Unnamed NPC (ID: 17138472/0x01058328) looks at Lilisette (ID: 17138598/0x010583A6)
163: 0x118C [0x1C] WAIT(10* ticks)
164: 0x118F [0x23] WAIT_FOR_DIALOG_INTERACTION
165: 0x1190 [0x5C] MUSIC_CONTROL: Set Idle (Day) music to song 250*
166: 0x1194 [0x5C] MUSIC_CONTROL: Set Idle (Night) music to song 250*
167: 0x1198 [0x9A] WAIT_MUSIC_SERVER()
168: 0x1199 [0x27] REQ_SET(priority=0x10, entity_id=02 (ID: 17138600/0x010583A8), tag_num=0x05)
169: 0x11A0 [0x1C] WAIT(15* ticks)
170: 0x11A3 [0x27] REQ_SET(priority=0x10, entity_id=03 (ID: 17138601/0x010583A9), tag_num=0x05)
171: 0x11AA [0x5B] LOAD_EXT_SCHEDULER: Load scheduler "ibu0" with entities [Lilisette (ID: 17138598/0x010583A6), Lilisette (ID: 17138598/0x010583A6)], work=2142*
172: 0x11B9 [0x52] END_LOAD_SCHEDULER: End scheduler "b058" with entities [EventEntity, EventEntity], work=548*
173: 0x11C8 [0x45] LOAD_SCHEDULED_TASK: Load scheduler "ov40" with entities [EventEntity, EventEntity], work=[548*, 0*]
174: 0x11D9 [0x45] LOAD_SCHEDULED_TASK: Load scheduler "b059" with entities [EventEntity, EventEntity], work=[548*, 0*]
175: 0x11EA [0x2B] Lilisette (ID: 17138598/0x010583A6) [8134*]:
    → "M-making up with numbers what you lack in style, I see."
176: 0x11F1 [0x1C] WAIT(185* ticks)
177: 0x11F4 [0x23] WAIT_FOR_DIALOG_INTERACTION
178: 0x11F5 [0x5B] LOAD_EXT_SCHEDULER: Load scheduler "fi01" with entities [Lilisette (ID: 17138598/0x010583A6), Lilisette (ID: 17138598/0x010583A6)], work=2135*
179: 0x1204 [0x52] END_LOAD_SCHEDULER: End scheduler "b059" with entities [EventEntity, EventEntity], work=548*
180: 0x1213 [0x45] LOAD_SCHEDULED_TASK: Load scheduler "ov40" with entities [EventEntity, EventEntity], work=[548*, 0*]
181: 0x1224 [0x45] LOAD_SCHEDULED_TASK: Load scheduler "b060" with entities [EventEntity, EventEntity], work=[548*, 0*]
182: 0x1235 [0x2B] Lilisette (ID: 17138598/0x010583A6) [8135*]:
    → "Grrr... Were <Player> here, the whole lot of you would be canned and shipped as turtle soup in a heartbeat!"
183: 0x123C [0x27] REQ_SET(priority=0x10, entity_id=Unnamed NPC (ID: 17138477/0x0105832D), tag_num=0x06)
184: 0x1243 [0x27] REQ_SET(priority=0x10, entity_id=Unnamed NPC (ID: 17138478/0x0105832E), tag_num=0x06)
185: 0x124A [0x27] REQ_SET(priority=0x10, entity_id=Unnamed NPC (ID: 17138479/0x0105832F), tag_num=0x06)
186: 0x1251 [0x27] REQ_SET(priority=0x10, entity_id=Unnamed NPC (ID: 17138480/0x01058330), tag_num=0x06)
187: 0x1258 [0x1C] WAIT(1* ticks)
188: 0x125B [0xBA] SET_ENTITY_POSITION(entity_id=Zazarg (ID: 17138476/0x0105832C), pos_x=-484.256*, pos_z=544.115*, pos_y=39.351*, direction=218.2°*)
189: 0x1268 [0xBA] SET_ENTITY_POSITION(entity_id=Unnamed NPC (ID: 17138477/0x0105832D), pos_x=-484.073*, pos_z=540.389*, pos_y=38.821*, direction=218.2°*)
190: 0x1275 [0xBA] SET_ENTITY_POSITION(entity_id=Unnamed NPC (ID: 17138478/0x0105832E), pos_x=-483.204*, pos_z=541.652*, pos_y=39.149*, direction=218.2°*)
191: 0x1282 [0xBA] SET_ENTITY_POSITION(entity_id=Unnamed NPC (ID: 17138479/0x0105832F), pos_x=-481.700*, pos_z=543.770*, pos_y=39.692*, direction=218.2°*)
192: 0x128F [0xBA] SET_ENTITY_POSITION(entity_id=Unnamed NPC (ID: 17138480/0x01058330), pos_x=-480.529*, pos_z=545.090*, pos_y=39.911*, direction=218.2°*)
193: 0x129C [0x1C] WAIT(5* ticks)
194: 0x129F [0x23] WAIT_FOR_DIALOG_INTERACTION
195: 0x12A0 [0x5B] LOAD_EXT_SCHEDULER: Load scheduler "fi00" with entities [Lilisette (ID: 17138598/0x010583A6), Lilisette (ID: 17138598/0x010583A6)], work=2135*
196: 0x12AF [0x2A] GET_REQ_LEVEL(level=16, entity_id=02 (ID: 17138600/0x010583A8))
197: 0x12B5 [0x2A] GET_REQ_LEVEL(level=16, entity_id=03 (ID: 17138601/0x010583A9))
198: 0x12BB [0x27] REQ_SET(priority=0x10, entity_id=Zazarg (ID: 17138476/0x0105832C), tag_num=0x02)
199: 0x12C2 [0x27] REQ_SET(priority=0x10, entity_id=Unnamed NPC (ID: 17138477/0x0105832D), tag_num=0x02)
200: 0x12C9 [0x27] REQ_SET(priority=0x10, entity_id=Unnamed NPC (ID: 17138478/0x0105832E), tag_num=0x02)
201: 0x12D0 [0x27] REQ_SET(priority=0x10, entity_id=Unnamed NPC (ID: 17138479/0x0105832F), tag_num=0x02)
202: 0x12D7 [0x27] REQ_SET(priority=0x10, entity_id=Unnamed NPC (ID: 17138480/0x01058330), tag_num=0x02)
203: 0x12DE [0x1C] WAIT(10* ticks)
204: 0x12E1 [0x52] END_LOAD_SCHEDULER: End scheduler "b060" with entities [EventEntity, EventEntity], work=548*
205: 0x12F0 [0x45] LOAD_SCHEDULED_TASK: Load scheduler "b061" with entities [EventEntity, EventEntity], work=[548*, 0*]
206: 0x1301 [0x5B] LOAD_EXT_SCHEDULER: Load scheduler "fc00" with entities [Lilisette (ID: 17138598/0x010583A6), Lilisette (ID: 17138598/0x010583A6)], work=2135*
207: 0x1310 [0x2B] ??? (ID: 17138597/0x010583A5) [8136*]:
    → "Hold it right there, shellbacks!"
208: 0x1317 [0x23] WAIT_FOR_DIALOG_INTERACTION
209: 0x1318 [0x2A] GET_REQ_LEVEL(level=16, entity_id=Unnamed NPC (ID: 17138477/0x0105832D))
210: 0x131E [0x2A] GET_REQ_LEVEL(level=16, entity_id=Unnamed NPC (ID: 17138478/0x0105832E))
211: 0x1324 [0x2A] GET_REQ_LEVEL(level=16, entity_id=Unnamed NPC (ID: 17138479/0x0105832F))
212: 0x132A [0x2A] GET_REQ_LEVEL(level=16, entity_id=Unnamed NPC (ID: 17138480/0x01058330))
213: 0x1330 [0x52] END_LOAD_SCHEDULER: End scheduler "b061" with entities [EventEntity, EventEntity], work=548*
214: 0x133F [0x45] LOAD_SCHEDULED_TASK: Load scheduler "b062" with entities [EventEntity, EventEntity], work=[548*, 0*]
215: 0x1350 [0x2B] Lilisette (ID: 17138598/0x010583A6) [8137*]:
    → "!?"
216: 0x1357 [0xBA] SET_ENTITY_POSITION(entity_id=Unnamed NPC (ID: 17138479/0x0105832F), pos_x=-490.332*, pos_z=555.143*, pos_y=39.323*, direction=42.9°*)
217: 0x1364 [0xBA] SET_ENTITY_POSITION(entity_id=Unnamed NPC (ID: 17138480/0x01058330), pos_x=-488.470*, pos_z=555.995*, pos_y=39.723*, direction=42.9°*)
218: 0x1371 [0xBA] SET_ENTITY_POSITION(entity_id=Zazarg (ID: 17138476/0x0105832C), pos_x=-499.854*, pos_z=559.860*, pos_y=39.956*, direction=220.0°*)
219: 0x137E [0x7E] CHOCOBO_MOUNT: Dismount Zazarg (ID: 17138476/0x0105832C) (status = 0)
220: 0x1384 [0x27] REQ_SET(priority=0x10, entity_id=Unnamed NPC (ID: 17138481/0x01058331), tag_num=0x08)
221: 0x138B [0x4A] Unnamed NPC (ID: 17138479/0x0105832F) looks at Unnamed NPC (ID: 17138472/0x01058328)
222: 0x1394 [0x4A] Unnamed NPC (ID: 17138480/0x01058330) looks at Unnamed NPC (ID: 17138472/0x01058328)
223: 0x139D [0x1C] WAIT(45* ticks)
224: 0x13A0 [0x80] LOAD_WAIT(entity=Zazarg (ID: 17138476/0x0105832C))
225: 0x13A5 [0x23] WAIT_FOR_DIALOG_INTERACTION
226: 0x13A6 [0x5B] LOAD_EXT_SCHEDULER: Load scheduler "za00" with entities [Zazarg (ID: 17138476/0x0105832C), Zazarg (ID: 17138476/0x0105832C)], work=1281*
227: 0x13B5 [0x52] END_LOAD_SCHEDULER: End scheduler "b062" with entities [EventEntity, EventEntity], work=548*
228: 0x13C4 [0x45] LOAD_SCHEDULED_TASK: Load scheduler "b063" with entities [EventEntity, EventEntity], work=[548*, 0*]
229: 0x13D5 [0x45] LOAD_SCHEDULED_TASK: Load scheduler "seza" with entities [EventEntity, EventEntity], work=[548*, 0*]
230: 0x13E6 [0xBA] SET_ENTITY_POSITION(entity_id=Unnamed NPC (ID: 17138472/0x01058328), pos_x=-510.801*, pos_z=570.550*, pos_y=38.656*, direction=234.1°*)
231: 0x13F3 [0xBA] SET_ENTITY_POSITION(entity_id=02 (ID: 17138600/0x010583A8), pos_x=-511.587*, pos_z=568.268*, pos_y=38.784*, direction=234.1°*)
232: 0x1400 [0xBA] SET_ENTITY_POSITION(entity_id=03 (ID: 17138601/0x010583A9), pos_x=-508.554*, pos_z=570.984*, pos_y=38.777*, direction=234.1°*)
233: 0x140D [0x4A] Unnamed NPC (ID: 17138472/0x01058328) looks at Zazarg (ID: 17138476/0x0105832C)
234: 0x1416 [0x1C] WAIT(20* ticks)
235: 0x1419 [0x27] REQ_SET(priority=0x10, entity_id=Lilisette (ID: 17138598/0x010583A6), tag_num=0x04)
236: 0x1420 [0x4A] 02 (ID: 17138600/0x010583A8) looks at Zazarg (ID: 17138476/0x0105832C)
237: 0x1429 [0x1C] WAIT(30* ticks)
238: 0x142C [0x4A] 03 (ID: 17138601/0x010583A9) looks at Zazarg (ID: 17138476/0x0105832C)
239: 0x1435 [0x1C] WAIT(70* ticks)
240: 0x1438 [0x2B] Zazarg (ID: 17138476/0x0105832C) [8138*]:
    → "Shame on you, pickin' on a young lady on her lonesome. This makes for a far more even fight, don'tcha think?"
241: 0x143F [0x1C] WAIT(420* ticks)
242: 0x1442 [0x52] END_LOAD_SCHEDULER: End scheduler "b063" with entities [EventEntity, EventEntity], work=548*
243: 0x1451 [0x45] LOAD_SCHEDULED_TASK: Load scheduler "ov40" with entities [EventEntity, EventEntity], work=[548*, 0*]
244: 0x1462 [0x45] LOAD_SCHEDULED_TASK: Load scheduler "b064" with entities [EventEntity, EventEntity], work=[548*, 0*]
245: 0x1473 [0x5B] LOAD_EXT_SCHEDULER: Load scheduler "odo0" with entities [Unnamed NPC (ID: 17138472/0x01058328), Unnamed NPC (ID: 17138472/0x01058328)], work=1318*
246: 0x1482 [0x1C] WAIT(170* ticks)
247: 0x1485 [0x23] WAIT_FOR_DIALOG_INTERACTION
248: 0x1486 [0x5D] SET_MUSIC_VOLUME(volume=0*, fade_time=200*)
249: 0x148B [0x1A] CALL_SUBROUTINE(address=0x1843)
250: 0x148E [0x52] END_LOAD_SCHEDULER: End scheduler "b064" with entities [EventEntity, EventEntity], work=548*
251: 0x149D [0x7E] CHOCOBO_MOUNT: Dismount Unnamed NPC (ID: 17138477/0x0105832D) (status = 0)
252: 0x14A3 [0x7E] CHOCOBO_MOUNT: Dismount Unnamed NPC (ID: 17138478/0x0105832E) (status = 0)
253: 0x14A9 [0x7E] CHOCOBO_MOUNT: Dismount Unnamed NPC (ID: 17138479/0x0105832F) (status = 0)
254: 0x14AF [0x7E] CHOCOBO_MOUNT: Dismount Unnamed NPC (ID: 17138480/0x01058330) (status = 0)
255: 0x14B5 [0x2F] Unnamed NPC (ID: 17138482/0x01058332)->Render.Flags0 &= ~0x80000 // Bit 19
