# 17138569 - Prien

## Common Data

| Field            | Value                        |
|------------------|------------------------------|
| Zone             | North Gustaberg [S] (ID: 88) |
| Block Size       | 120 bytes                    |
| Total Events     | 4                            |
| References Count | 10                           |

## List of Events

| Event ID                 | Entrypoint   |   Size |   Instructions |
|--------------------------|--------------|--------|----------------|
| [65535](#event-65535)    | 0x0000       |      1 |              1 |
| [13](#event-13)          | 0x0001       |      7 |              2 |
| [65535.1](#event-655351) | 0x0008       |     16 |              5 |
| [65535.2](#event-655352) | 0x0018       |     24 |              6 |

## DAT References (imed_data)

|   Index | Hex Value   |   Dec Value |
|---------|-------------|-------------|
|       0 | 0x001E      |          30 |
|       1 | 0xFFFC6D6A  |  4294733162 |
|       2 | 0x1CD96     |      118166 |
|       3 | 0xFFFFFE38  |  4294966840 |
|       4 | 0x5D034     |      380980 |
|       5 | 0x29BDE     |      170974 |
|       6 | 0x0A9B      |        2715 |
|       7 | 0x5CB51     |      379729 |
|       8 | 0x2AEBE     |      175806 |
|       9 | 0x098A      |        2442 |

## Events

### Event 65535

#### Metadata

| Field        | Value   |
|--------------|---------|
| Entrypoint   | 0x0000  |
| Data Size    | 1 bytes |
| Instructions | 1       |

```
      00 01 02 03 04 05 06 07  08 09 0A 0B 0C 0D 0E 0F
      -- -- -- -- -- -- -- --  -- -- -- -- -- -- -- --
0000: 00                                                .               
```

#### Opcodes

```
  0: 0x0000 [0x00] END_REQSTACK()
```

### Event 13

#### Metadata

| Field        | Value   |
|--------------|---------|
| Entrypoint   | 0x0001  |
| Data Size    | 7 bytes |
| Instructions | 2       |

```
      00 01 02 03 04 05 06 07  08 09 0A 0B 0C 0D 0E 0F
      -- -- -- -- -- -- -- --  -- -- -- -- -- -- -- --
0000:    92 01 F8 FF FF 7F 00                            .......        
```

#### Opcodes

```
  0: 0x0001 [0x92] EventEntity->Render.Flags3 ^= 0x01
  1: 0x0007 [0x00] END_REQSTACK()
```

### Event 65535.1

#### Metadata

| Field        | Value    |
|--------------|----------|
| Entrypoint   | 0x0008   |
| Data Size    | 16 bytes |
| Instructions | 5        |

```
      00 01 02 03 04 05 06 07  08 09 0A 0B 0C 0D 0E 0F
      -- -- -- -- -- -- -- --  -- -- -- -- -- -- -- --
0000:                          33 01 32 00 80 1F 00 01          3.2.....
0010: 80 02 80 03 80 1F 01 00                           ........        
```

#### Opcodes

```
  0: 0x0008 [0x33] EventEntity->Render.Flags0 |= 0x200000 // Bit 21 (flag=0x01)
  1: 0x000A [0x32] ExtData[1]->MainSpeed = 30* * 0.1
  2: 0x000D [0x1F] MOVE_ENTITY: EventEntity moves to X=-234.134*, Z=118.166*, Y=-0.456*
  3: 0x0015 [0x1F] MOVE_ENTITY: Update entity position (mode=1)
  4: 0x0017 [0x00] END_REQSTACK()
```

### Event 65535.2

#### Metadata

| Field        | Value    |
|--------------|----------|
| Entrypoint   | 0x0018   |
| Data Size    | 24 bytes |
| Instructions | 6        |

```
      00 01 02 03 04 05 06 07  08 09 0A 0B 0C 0D 0E 0F
      -- -- -- -- -- -- -- --  -- -- -- -- -- -- -- --
0010:                          32 00 80 1F 00 04 80 05          2.......
0020: 80 06 80 1F 01 1F 00 07  80 08 80 09 80 1F 01 00  ................
```

#### Opcodes

```
  0: 0x0018 [0x32] ExtData[1]->MainSpeed = 30* * 0.1
  1: 0x001B [0x1F] MOVE_ENTITY: EventEntity moves to X=380.980*, Z=170.974*, Y=2.715*
  2: 0x0023 [0x1F] MOVE_ENTITY: Update entity position (mode=1)
  3: 0x0025 [0x1F] MOVE_ENTITY: EventEntity moves to X=379.729*, Z=175.806*, Y=2.442*
  4: 0x002D [0x1F] MOVE_ENTITY: Update entity position (mode=1)
  5: 0x002F [0x00] END_REQSTACK()
```
