# 17138489

## Common Data

| Field            | Value                        |
|------------------|------------------------------|
| Zone             | North Gustaberg [S] (ID: 88) |
| Block Size       | 116 bytes                    |
| Total Events     | 3                            |
| References Count | 11                           |

## List of Events

| Event ID                 | Entrypoint   |   Size |   Instructions |
|--------------------------|--------------|--------|----------------|
| [65535](#event-65535)    | 0x0000       |      1 |              1 |
| [1](#event-1)            | 0x0001       |      1 |              1 |
| [65535.1](#event-655351) | 0x0002       |     42 |             10 |

## DAT References (imed_data)

|   Index | Hex Value   |   Dec Value |
|---------|-------------|-------------|
|       0 | 0x0028      |          40 |
|       1 | 0x5DA92     |      383634 |
|       2 | 0x26939     |      158009 |
|       3 | 0x08CB      |        2251 |
|       4 | 0x5D928     |      383272 |
|       5 | 0x26F39     |      159545 |
|       6 | 0x08F4      |        2292 |
|       7 | 0x5D51C     |      382236 |
|       8 | 0x27215     |      160277 |
|       9 | 0x0937      |        2359 |
|      10 | 0x001E      |          30 |

## Events

### Event 65535

#### Metadata

| Field        | Value   |
|--------------|---------|
| Entrypoint   | 0x0000  |
| Data Size    | 1 bytes |
| Instructions | 1       |

```
      00 01 02 03 04 05 06 07  08 09 0A 0B 0C 0D 0E 0F
      -- -- -- -- -- -- -- --  -- -- -- -- -- -- -- --
0000: 00                                                .               
```

#### Opcodes

```
  0: 0x0000 [0x00] END_REQSTACK()
```

### Event 1

#### Metadata

| Field        | Value   |
|--------------|---------|
| Entrypoint   | 0x0001  |
| Data Size    | 1 bytes |
| Instructions | 1       |

```
      00 01 02 03 04 05 06 07  08 09 0A 0B 0C 0D 0E 0F
      -- -- -- -- -- -- -- --  -- -- -- -- -- -- -- --
0000:    00                                              .              
```

#### Opcodes

```
  0: 0x0001 [0x00] END_REQSTACK()
```

### Event 65535.1

#### Metadata

| Field        | Value    |
|--------------|----------|
| Entrypoint   | 0x0002   |
| Data Size    | 42 bytes |
| Instructions | 10       |

```
      00 01 02 03 04 05 06 07  08 09 0A 0B 0C 0D 0E 0F
      -- -- -- -- -- -- -- --  -- -- -- -- -- -- -- --
0000:       32 00 80 1F 00 01  80 02 80 03 80 1F 01 1F    2.............
0010: 00 04 80 05 80 06 80 1F  01 1F 00 07 80 08 80 09  ................
0020: 80 1F 01 1E 37 83 05 01  1C 0A 80 00              ....7.......    
```

#### Opcodes

```
  0: 0x0002 [0x32] ExtData[1]->MainSpeed = 40* * 0.1
  1: 0x0005 [0x1F] MOVE_ENTITY: EventEntity moves to X=383.634*, Z=158.009*, Y=2.251*
  2: 0x000D [0x1F] MOVE_ENTITY: Update entity position (mode=1)
  3: 0x000F [0x1F] MOVE_ENTITY: EventEntity moves to X=383.272*, Z=159.545*, Y=2.292*
  4: 0x0017 [0x1F] MOVE_ENTITY: Update entity position (mode=1)
  5: 0x0019 [0x1F] MOVE_ENTITY: EventEntity moves to X=382.236*, Z=160.277*, Y=2.359*
  6: 0x0021 [0x1F] MOVE_ENTITY: Update entity position (mode=1)
  7: 0x0023 [0x1E] EventEntity looks at Wolfram (ID: 17138487/0x01058337) and starts talking
  8: 0x0028 [0x1C] WAIT(30* ticks)
  9: 0x002B [0x00] END_REQSTACK()
```
