# 0x7FFFFFF0 - Zone Events

## Common Data

| Field            | Value                        |
|------------------|------------------------------|
| Zone             | North Gustaberg [S] (ID: 88) |
| Block Size       | 11128 bytes                  |
| Total Events     | 46                           |
| References Count | 365                          |

## List of Events

| Event ID                   | Entrypoint   |   Size |   Instructions |
|----------------------------|--------------|--------|----------------|
| [65535](#event-65535)      | 0x0000       |      1 |              1 |
| [65534](#event-65534)      | 0x0001       |      1 |              1 |
| [201](#event-201)          | 0x0002       |    102 |             15 |
| [202](#event-202)          | 0x0068       |     29 |              7 |
| [65535.1](#event-655351)   | 0x0085       |     10 |              2 |
| [65535.2](#event-655352)   | 0x008F       |     16 |              3 |
| [65535.3](#event-655353)   | 0x009F       |     41 |              5 |
| [65535.4](#event-655354)   | 0x00C8       |     14 |              4 |
| [65535.5](#event-655355)   | 0x00D6       |     14 |              4 |
| [204](#event-204)          | 0x00E4       |    412 |             63 |
| [102](#event-102)          | 0x0280       |    538 |             60 |
| [104](#event-104)          | 0x049A       |    874 |            104 |
| [106](#event-106)          | 0x0804       |   2566 |            285 |
| [1](#event-1)              | 0x120A       |   1146 |            124 |
| [65535.6](#event-655356)   | 0x1684       |     14 |              4 |
| [65535.7](#event-655357)   | 0x1692       |     22 |              6 |
| [65535.8](#event-655358)   | 0x16A8       |     37 |              5 |
| [65535.9](#event-655359)   | 0x16CD       |    185 |             37 |
| [3](#event-3)              | 0x1786       |   1973 |            228 |
| [65535.10](#event-6553510) | 0x1F3B       |     14 |              4 |
| [65535.11](#event-6553511) | 0x1F49       |     14 |              4 |
| [65535.12](#event-6553512) | 0x1F57       |     14 |              4 |
| [65535.13](#event-6553513) | 0x1F65       |     14 |              4 |
| [65535.14](#event-6553514) | 0x1F73       |     14 |              4 |
| [65535.15](#event-6553515) | 0x1F81       |     17 |              5 |
| [65535.16](#event-6553516) | 0x1F92       |     22 |              6 |
| [65535.17](#event-6553517) | 0x1FA8       |     24 |              6 |
| [65535.18](#event-6553518) | 0x1FC0       |     14 |              4 |
| [65535.19](#event-6553519) | 0x1FCE       |     14 |              4 |
| [65535.20](#event-6553520) | 0x1FDC       |      3 |              2 |
| [65535.21](#event-6553521) | 0x1FDF       |      3 |              2 |
| [65535.22](#event-6553522) | 0x1FE2       |     27 |              5 |
| [65535.23](#event-6553523) | 0x1FFD       |     24 |              4 |
| [65535.24](#event-6553524) | 0x2015       |     22 |              6 |
| [65535.25](#event-6553525) | 0x202B       |     22 |              6 |
| [65535.26](#event-6553526) | 0x2041       |     24 |              4 |
| [65535.27](#event-6553527) | 0x2059       |     24 |              4 |
| [65535.28](#event-6553528) | 0x2071       |     37 |              9 |
| [65535.29](#event-6553529) | 0x2096       |      6 |              4 |
| [65535.30](#event-6553530) | 0x209C       |      6 |              4 |
| [65535.31](#event-6553531) | 0x20A2       |      6 |              4 |
| [65535.32](#event-6553532) | 0x20A8       |      6 |              4 |
| [65535.33](#event-6553533) | 0x20AE       |     16 |              3 |
| [65535.34](#event-6553534) | 0x20BE       |     16 |              3 |
| [65535.35](#event-6553535) | 0x20CE       |      6 |              2 |
| [264](#event-264)          | 0x20D4       |   1061 |            204 |

## DAT References (imed_data)

|   Index | Hex Value   |   Dec Value |
|---------|-------------|-------------|
|       0 | 0x1E3E      |        7742 |
|       1 | 0x00C8      |         200 |
|       2 | 0x0000      |           0 |
|       3 | 0x0001      |           1 |
|       4 | 0x005A      |          90 |
|       5 | 0x003C      |          60 |
|       6 | 0x00C9      |         201 |
|       7 | 0x1F1D      |        7965 |
|       8 | 0x00EA      |         234 |
|       9 | 0x0056      |          86 |
|      10 | 0x71D80     |      466304 |
|      11 | 0x75015     |      479253 |
|      12 | 0xFFFFFFE9  |  4294967273 |
|      13 | 0x0800      |        2048 |
|      14 | 0x0094      |         148 |
|      15 | 0x00F0      |         240 |
|      16 | 0x000D      |          13 |
|      17 | 0x4EAD8     |      322264 |
|      18 | 0xE2024     |      925732 |
|      19 | 0xFFFFB062  |  4294946914 |
|      20 | 0x507FC     |      329724 |
|      21 | 0xE389B     |      931995 |
|      22 | 0xFFFFA9E3  |  4294945251 |
|      23 | 0x0013      |          19 |
|      24 | 0x5CD7A     |      380282 |
|      25 | 0x23B6A     |      146282 |
|      26 | 0x02FA      |         762 |
|      27 | 0x0B35      |        2869 |
|      28 | 0x5BEC6     |      376518 |
|      29 | 0x2597E     |      153982 |
|      30 | 0x057B      |        1403 |
|      31 | 0x0527      |        1319 |
|      32 | 0x5C02F     |      376879 |
|      33 | 0x25E0A     |      155146 |
|      34 | 0x069C      |        1692 |
|      35 | 0x01C3      |         451 |
|      36 | 0x01C8      |         456 |
|      37 | 0x001E      |          30 |
|      38 | 0x0002      |           2 |
|      39 | 0x5C6E0     |      378592 |
|      40 | 0x24755     |      149333 |
|      41 | 0x02E5      |         741 |
|      42 | 0x1E41      |        7745 |
|      43 | 0x0020      |          32 |
|      44 | 0x1E42      |        7746 |
|      45 | 0x0022      |          34 |
|      46 | 0x1E43      |        7747 |
|      47 | 0x001A      |          26 |
|      48 | 0x1E44      |        7748 |
|      49 | 0x0006      |           6 |
|      50 | 0x1E45      |        7749 |
|      51 | 0x001B      |          27 |
|      52 | 0x31EBB     |      204475 |
|      53 | 0xA2E06     |      667142 |
|      54 | 0xFFFFAED3  |  4294946515 |
|      55 | 0x0E8B      |        3723 |
|      56 | 0x014B      |         331 |
|      57 | 0x000F      |          15 |
|      58 | 0x1ED7      |        7895 |
|      59 | 0x0009      |           9 |
|      60 | 0x1ED8      |        7896 |
|      61 | 0x1ED9      |        7897 |
|      62 | 0x1EDA      |        7898 |
|      63 | 0x1EDB      |        7899 |
|      64 | 0x1EDC      |        7900 |
|      65 | 0x1EDD      |        7901 |
|      66 | 0x1EDE      |        7902 |
|      67 | 0x1EDF      |        7903 |
|      68 | 0xFFF9BE0B  |  4294557195 |
|      69 | 0xFFFE9980  |  4294875520 |
|      70 | 0xA335      |       41781 |
|      71 | 0x074F      |        1871 |
|      72 | 0xFFF9E577  |  4294567287 |
|      73 | 0xFFFE94D0  |  4294874320 |
|      74 | 0x9C3C      |       39996 |
|      75 | 0x0BC6      |        3014 |
|      76 | 0x1EE2      |        7906 |
|      77 | 0x1EE3      |        7907 |
|      78 | 0x0078      |         120 |
|      79 | 0x00E7      |         231 |
|      80 | 0x1EE4      |        7908 |
|      81 | 0x1EE5      |        7909 |
|      82 | 0x1EE6      |        7910 |
|      83 | 0x1EE7      |        7911 |
|      84 | 0x1EE8      |        7912 |
|      85 | 0x1EE9      |        7913 |
|      86 | 0x1EEA      |        7914 |
|      87 | 0x1EEB      |        7915 |
|      88 | 0x1EEC      |        7916 |
|      89 | 0x00B4      |         180 |
|      90 | 0x1EED      |        7917 |
|      91 | 0x1EEE      |        7918 |
|      92 | 0x00FD      |         253 |
|      93 | 0xFFF8474F  |  4294461263 |
|      94 | 0x8A334     |      566068 |
|      95 | 0x97D5      |       38869 |
|      96 | 0x0279      |         633 |
|      97 | 0xFFF89C60  |  4294483040 |
|      98 | 0x84D73     |      544115 |
|      99 | 0x99B7      |       39351 |
|     100 | 0x09B3      |        2483 |
|     101 | 0xFFF89D17  |  4294483223 |
|     102 | 0x83EE5     |      540389 |
|     103 | 0x97A5      |       38821 |
|     104 | 0xFFF8A07C  |  4294484092 |
|     105 | 0x843D4     |      541652 |
|     106 | 0x98ED      |       39149 |
|     107 | 0xFFF8A65C  |  4294485596 |
|     108 | 0x84C1A     |      543770 |
|     109 | 0x9B0C      |       39692 |
|     110 | 0xFFF8AAEF  |  4294486767 |
|     111 | 0x85142     |      545090 |
|     112 | 0x9BE7      |       39911 |
|     113 | 0xFFF833C0  |  4294456256 |
|     114 | 0x8B5CF     |      570831 |
|     115 | 0x96CB      |       38603 |
|     116 | 0x0A67      |        2663 |
|     117 | 0x0003      |           3 |
|     118 | 0x0004      |           4 |
|     119 | 0x0005      |           5 |
|     120 | 0x0008      |           8 |
|     121 | 0x0526      |        1318 |
|     122 | 0x0064      |         100 |
|     123 | 0x0015      |          21 |
|     124 | 0xFFF84F38  |  4294463288 |
|     125 | 0x89AD8     |      563928 |
|     126 | 0x98FC      |       39164 |
|     127 | 0x01E8      |         488 |
|     128 | 0x1EF2      |        7922 |
|     129 | 0xFFF86F67  |  4294471527 |
|     130 | 0x87CF1     |      556273 |
|     131 | 0x9944      |       39236 |
|     132 | 0x0EE9      |        3817 |
|     133 | 0xFFF884A4  |  4294476964 |
|     134 | 0x87887     |      555143 |
|     135 | 0x999B      |       39323 |
|     136 | 0xFFF88BEA  |  4294478826 |
|     137 | 0x87BDB     |      555995 |
|     138 | 0x9B2B      |       39723 |
|     139 | 0xFFF85F72  |  4294467442 |
|     140 | 0x88AF4     |      559860 |
|     141 | 0x9C14      |       39956 |
|     142 | 0x09C7      |        2503 |
|     143 | 0x0501      |        1281 |
|     144 | 0x1EF3      |        7923 |
|     145 | 0xFFF88ACC  |  4294478540 |
|     146 | 0x886BD     |      558781 |
|     147 | 0x9C02      |       39938 |
|     148 | 0x0947      |        2375 |
|     149 | 0xFFF892C7  |  4294480583 |
|     150 | 0x889C7     |      559559 |
|     151 | 0x9C3F      |       39999 |
|     152 | 0x081F      |        2079 |
|     153 | 0xFFF896CD  |  4294481613 |
|     154 | 0x88358     |      557912 |
|     155 | 0xFFF88EE4  |  4294479588 |
|     156 | 0x87DB7     |      556471 |
|     157 | 0x9B8F      |       39823 |
|     158 | 0x0904      |        2308 |
|     159 | 0xFFF895C5  |  4294481349 |
|     160 | 0x87D92     |      556434 |
|     161 | 0x9BF2      |       39922 |
|     162 | 0x0910      |        2320 |
|     163 | 0xFFF8458F  |  4294460815 |
|     164 | 0x88966     |      559462 |
|     165 | 0x9C06      |       39942 |
|     166 | 0x0F3C      |        3900 |
|     167 | 0xFFF85D37  |  4294466871 |
|     168 | 0x887C2     |      559042 |
|     169 | 0x9BA6      |       39846 |
|     170 | 0xFFF870CB  |  4294471883 |
|     171 | 0x8898F     |      559503 |
|     172 | 0x9BEB      |       39915 |
|     173 | 0x08B0      |        2224 |
|     174 | 0xFFF8780C  |  4294473740 |
|     175 | 0x87DF2     |      556530 |
|     176 | 0x99F0      |       39408 |
|     177 | 0x0945      |        2373 |
|     178 | 0xFFF87A7C  |  4294474364 |
|     179 | 0x882A8     |      557736 |
|     180 | 0x9AE1      |       39649 |
|     181 | 0x08FA      |        2298 |
|     182 | 0xFFF87BFD  |  4294474749 |
|     183 | 0x88DDA     |      560602 |
|     184 | 0x9BFF      |       39935 |
|     185 | 0x08DD      |        2269 |
|     186 | 0xFFF87C4E  |  4294474830 |
|     187 | 0x89204     |      561668 |
|     188 | 0x9B95      |       39829 |
|     189 | 0x0532      |        1330 |
|     190 | 0x1EF4      |        7924 |
|     191 | 0x1EF5      |        7925 |
|     192 | 0x0045      |          69 |
|     193 | 0xFFF84BDF  |  4294462431 |
|     194 | 0x88960     |      559456 |
|     195 | 0x9C05      |       39941 |
|     196 | 0x00F1      |         241 |
|     197 | 0x1EF6      |        7926 |
|     198 | 0x1EF7      |        7927 |
|     199 | 0x1EF8      |        7928 |
|     200 | 0x07D0      |        2000 |
|     201 | 0x0898      |        2200 |
|     202 | 0xFFF892E2  |  4294480610 |
|     203 | 0x87E03     |      556547 |
|     204 | 0x9BD3      |       39891 |
|     205 | 0x0960      |        2400 |
|     206 | 0xFFF88AB7  |  4294478519 |
|     207 | 0x87CA3     |      556195 |
|     208 | 0x9B3A      |       39738 |
|     209 | 0x09C4      |        2500 |
|     210 | 0xFFF88D00  |  4294479104 |
|     211 | 0x88379     |      557945 |
|     212 | 0x9BCE      |       39886 |
|     213 | 0x5CC7E     |      380030 |
|     214 | 0x2717F     |      160127 |
|     215 | 0x09C1      |        2497 |
|     216 | 0x0408      |        1032 |
|     217 | 0x5CC73     |      380019 |
|     218 | 0x254FC     |      152828 |
|     219 | 0x04BB      |        1211 |
|     220 | 0x0B88      |        2952 |
|     221 | 0x5D3F0     |      381936 |
|     222 | 0x2596D     |      153965 |
|     223 | 0x0618      |        1560 |
|     224 | 0x0BDC      |        3036 |
|     225 | 0x5CC26     |      379942 |
|     226 | 0x2461A     |      149018 |
|     227 | 0x02FB      |         763 |
|     228 | 0x0C79      |        3193 |
|     229 | 0x0511      |        1297 |
|     230 | 0x012C      |         300 |
|     231 | 0x007F      |         127 |
|     232 | 0x1EFF      |        7935 |
|     233 | 0x1F00      |        7936 |
|     234 | 0x1F01      |        7937 |
|     235 | 0x1F02      |        7938 |
|     236 | 0x1F03      |        7939 |
|     237 | 0x5CC2C     |      379948 |
|     238 | 0x252B1     |      152241 |
|     239 | 0x041D      |        1053 |
|     240 | 0x0028      |          40 |
|     241 | 0x5CFEF     |      380911 |
|     242 | 0x264F3     |      156915 |
|     243 | 0x08B1      |        2225 |
|     244 | 0x000A      |          10 |
|     245 | 0x0046      |          70 |
|     246 | 0x008C      |         140 |
|     247 | 0x00D2      |         210 |
|     248 | 0xFFFC6BAB  |  4294732715 |
|     249 | 0x66DDB     |      421339 |
|     250 | 0x9DDC      |       40412 |
|     251 | 0x014F      |         335 |
|     252 | 0xFFFC6A7E  |  4294732414 |
|     253 | 0x661FD     |      418301 |
|     254 | 0x9CA5      |       40101 |
|     255 | 0x0C46      |        3142 |
|     256 | 0xFFFC62C6  |  4294730438 |
|     257 | 0x66D91     |      421265 |
|     258 | 0x9CD7      |       40151 |
|     259 | 0x0BF5      |        3061 |
|     260 | 0xFFFC734B  |  4294734667 |
|     261 | 0x66BF1     |      420849 |
|     262 | 0x9F66      |       40806 |
|     263 | 0x0D3F      |        3391 |
|     264 | 0xFFFC5B23  |  4294728483 |
|     265 | 0x68ADE     |      428766 |
|     266 | 0xA10C      |       41228 |
|     267 | 0x0D40      |        3392 |
|     268 | 0x1F05      |        7941 |
|     269 | 0x1F06      |        7942 |
|     270 | 0x00EE      |         238 |
|     271 | 0x1F07      |        7943 |
|     272 | 0x1F08      |        7944 |
|     273 | 0x1F09      |        7945 |
|     274 | 0x1F0A      |        7946 |
|     275 | 0x1F0B      |        7947 |
|     276 | 0x1F0C      |        7948 |
|     277 | 0x1F0D      |        7949 |
|     278 | 0x1F0E      |        7950 |
|     279 | 0x1F0F      |        7951 |
|     280 | 0x0053      |          83 |
|     281 | 0x0011      |          17 |
|     282 | 0x328E9     |      207081 |
|     283 | 0x4D042     |      315458 |
|     284 | 0xFFFF82FE  |  4294935294 |
|     285 | 0x0791      |        1937 |
|     286 | 0x0397      |         919 |
|     287 | 0x1F10      |        7952 |
|     288 | 0x1F11      |        7953 |
|     289 | 0x0058      |          88 |
|     290 | 0xFFFC639A  |  4294730650 |
|     291 | 0x68614     |      427540 |
|     292 | 0x9FE8      |       40936 |
|     293 | 0x0DAC      |        3500 |
|     294 | 0xFFFC605E  |  4294729822 |
|     295 | 0x67D19     |      425241 |
|     296 | 0x9EC8      |       40648 |
|     297 | 0x1F12      |        7954 |
|     298 | 0x1F13      |        7955 |
|     299 | 0x1F14      |        7956 |
|     300 | 0x00EF      |         239 |
|     301 | 0x1F15      |        7957 |
|     302 | 0xFFFC5340  |  4294726464 |
|     303 | 0x69330     |      430896 |
|     304 | 0xA388      |       41864 |
|     305 | 0x1F16      |        7958 |
|     306 | 0x1F17      |        7959 |
|     307 | 0x1F18      |        7960 |
|     308 | 0x1F19      |        7961 |
|     309 | 0x1F1A      |        7962 |
|     310 | 0x1F1B      |        7963 |
|     311 | 0x438B3     |      276659 |
|     312 | 0x7E806     |      518150 |
|     313 | 0xFFFF15A0  |  4294907296 |
|     314 | 0x4818C     |      295308 |
|     315 | 0x7EE38     |      519736 |
|     316 | 0x49DC8     |      302536 |
|     317 | 0x7F38A     |      521098 |
|     318 | 0xFFFF152F  |  4294907183 |
|     319 | 0x292C5     |      168645 |
|     320 | 0x370C7     |      225479 |
|     321 | 0xFFFFA268  |  4294943336 |
|     322 | 0x356A6     |      218790 |
|     323 | 0xFFFD749D  |  4294800541 |
|     324 | 0xFFFFC1CD  |  4294951373 |
|     325 | 0x355A7     |      218535 |
|     326 | 0xFFFD633A  |  4294796090 |
|     327 | 0xFFFFC1D9  |  4294951385 |
|     328 | 0x19C91     |      105617 |
|     329 | 0x51A3      |       20899 |
|     330 | 0x0068      |         104 |
|     331 | 0x1AD78     |      109944 |
|     332 | 0x5307      |       21255 |
|     333 | 0x007C      |         124 |
|     334 | 0x0814      |        2068 |
|     335 | 0x1EEA5     |      126629 |
|     336 | 0x543A      |       21562 |
|     337 | 0xFFFFFF55  |  4294967125 |
|     338 | 0x1DB46     |      121670 |
|     339 | 0x503A      |       20538 |
|     340 | 0x251B7     |      151991 |
|     341 | 0xE4AE      |       58542 |
|     342 | 0xFFFFA240  |  4294943296 |
|     343 | 0x25493     |      152723 |
|     344 | 0xC893      |       51347 |
|     345 | 0xFFFFA259  |  4294943321 |
|     346 | 0xFFFC6E33  |  4294733363 |
|     347 | 0x18DD7     |      101847 |
|     348 | 0xFFFFFDA7  |  4294966695 |
|     349 | 0x0400      |        1024 |
|     350 | 0x1FA2      |        8098 |
|     351 | 0x1FA3      |        8099 |
|     352 | 0x1FA4      |        8100 |
|     353 | 0x1FA5      |        8101 |
|     354 | 0x0080      |         128 |
|     355 | 0x0090      |         144 |
|     356 | 0x1BC9      |        7113 |
|     357 | 0x1BCA      |        7114 |
|     358 | 0x1BCC      |        7116 |
|     359 | 0x1BCD      |        7117 |
|     360 | 0x1BCE      |        7118 |
|     361 | 0x1BCF      |        7119 |
|     362 | 0x0102      |         258 |
|     363 | 0x0202      |         514 |
|     364 | 0x0156      |         342 |

## String References

- **7742**: The order has been given by your party leader to enter [Everbloom Hollow/the Ruhotz Silvermines/Ghoyu's Reverie].
- **7965**: The sandworm swallows you whole!
- **8098**: A long and grueling battle lay ahead, this we knew... Yet not a one of us faltered in our step.
- **8099**: "Even when engulfed in the darkest shadow, be steadfast of heart, and there will always be a ray of light to be found.
- **8100**: "Stay true to yourself, and to your friends, and there is no battle that cannot be won--no shadow that cannot be quenched." Such were her words to us.
- **8101**: Let us fight this battle together, my friend.

## Events

### Event 65535

#### Metadata

| Field        | Value   |
|--------------|---------|
| Entrypoint   | 0x0000  |
| Data Size    | 1 bytes |
| Instructions | 1       |

```
      00 01 02 03 04 05 06 07  08 09 0A 0B 0C 0D 0E 0F
      -- -- -- -- -- -- -- --  -- -- -- -- -- -- -- --
0000: 00                                                .               
```

#### Opcodes

```
  0: 0x0000 [0x00] END_REQSTACK()
```

### Event 65534

#### Metadata

| Field        | Value   |
|--------------|---------|
| Entrypoint   | 0x0001  |
| Data Size    | 1 bytes |
| Instructions | 1       |

```
      00 01 02 03 04 05 06 07  08 09 0A 0B 0C 0D 0E 0F
      -- -- -- -- -- -- -- --  -- -- -- -- -- -- -- --
0000:    00                                              .              
```

#### Opcodes

```
  0: 0x0001 [0x00] END_REQSTACK()
```

### Event 201

#### Metadata

| Field        | Value     |
|--------------|-----------|
| Entrypoint   | 0x0002    |
| Data Size    | 102 bytes |
| Instructions | 15        |

```
      00 01 02 03 04 05 06 07  08 09 0A 0B 0C 0D 0E 0F
      -- -- -- -- -- -- -- --  -- -- -- -- -- -- -- --
0000:       42 48 00 80 45 01  80 F0 FF FF 7F F0 FF FF    BH..E.........
0010: 7F 66 64 6F 31 02 80 02  03 10 02 80 00 33 00 62  .fdo1........3.b
0020: 03 80 F0 FF FF 7F F0 FF  FF 7F 6D 61 69 6E 02 80  ..........main..
0030: 1C 04 80 1C 05 80 83 1E  17 AA 1E 17 1E 17 1E 17  ................
0040: 1E 17 1E 17 1F 17 1E 17  1E 17 03 00 00 02 80 77  ...............w
0050: 1F 17 00 00 78 45 06 80  F0 FF FF 7F F0 FF FF 7F  ....xE..........
0060: 77 68 69 31 02 80 21 00                           whi1..!.        
```

#### Opcodes

```
  0: 0x0002 [0x42] SET_CLI_EVENT_CANCEL_DATA()
  1: 0x0003 [0x48] [System] [7742*]:
    → "The order has been given by your party leader to enter [Everbloom Hollow/the Ruhotz Silvermines/Ghoyu's Reverie]."
  2: 0x0006 [0x45] LOAD_SCHEDULED_TASK: Load scheduler "fdo1" with entities [LocalPlayer, LocalPlayer], work=[200*, 0*]
  3: 0x0017 [0x02] IF !(Work_Zone[3] == 0*) GOTO 0x0033
  4: 0x001F [0x62] LOAD_EVENT_SCHEDULER: Load scheduler "main" with entities [LocalPlayer, LocalPlayer], work=[1*, 0*]
  5: 0x0030 [0x1C] WAIT(90* ticks)
  6: 0x0033 [0x1C] WAIT(60* ticks)
  7: 0x0036 [0x83] Work_Zone_1700[30] = GetGameTime()
  8: 0x0039 [0xAA] VANA_DIEL_TIMESTAMP_CONVERTER(timestamp=Work_Zone_1700[30], year=Work_Zone_1700[30], month=Work_Zone_1700[30], day=Work_Zone_1700[30], weekday=Work_Zone_1700[30], hour=Work_Zone_1700[31], minute=Work_Zone_1700[30], moon=Work_Zone_1700[30])
  9: 0x004A [0x03] ExtData[1]->WorkLocal[0] = 0*
 10: 0x004F [0x77] SET_EVENT_TIME_WEATHER(hour=Work_Zone_1700[31], weather=ExtData[1]->WorkLocal[0])
 11: 0x0054 [0x78] ENABLE_GAME_TIMER_RESET_WEATHER()
 12: 0x0055 [0x45] LOAD_SCHEDULED_TASK: Load scheduler "whi1" with entities [LocalPlayer, LocalPlayer], work=[201*, 0*]
 13: 0x0066 [0x21] END_EVENT
 14: 0x0067 [0x00] END_REQSTACK()
```

### Event 202

#### Metadata

| Field        | Value    |
|--------------|----------|
| Entrypoint   | 0x0068   |
| Data Size    | 29 bytes |
| Instructions | 7        |

```
      00 01 02 03 04 05 06 07  08 09 0A 0B 0C 0D 0E 0F
      -- -- -- -- -- -- -- --  -- -- -- -- -- -- -- --
0060:                          42 48 07 80 BB 08 80 F0          BH......
0070: FF FF 7F F0 FF FF 7F 6D  61 69 6E 02 80 1C 05 80  .......main.....
0080: 1C 05 80 21 00                                    ...!.           
```

#### Opcodes

```
  0: 0x0068 [0x42] SET_CLI_EVENT_CANCEL_DATA()
  1: 0x0069 [0x48] [System] [7965*]:
    → "The sandworm swallows you whole!"
  2: 0x006C [0xBB] LOAD_EVENT_SCHEDULER_ALT: Load scheduler "main" with entities [LocalPlayer, LocalPlayer], work=[234*, 0*]
  3: 0x007D [0x1C] WAIT(60* ticks)
  4: 0x0080 [0x1C] WAIT(60* ticks)
  5: 0x0083 [0x21] END_EVENT
  6: 0x0084 [0x00] END_REQSTACK()
```

### Event 65535.1

#### Metadata

| Field        | Value    |
|--------------|----------|
| Entrypoint   | 0x0085   |
| Data Size    | 10 bytes |
| Instructions | 2        |

```
      00 01 02 03 04 05 06 07  08 09 0A 0B 0C 0D 0E 0F
      -- -- -- -- -- -- -- --  -- -- -- -- -- -- -- --
0080:                6C F8 FF  FF 7F 09 80 03 80 00          l......... 
```

#### Opcodes

```
  0: 0x0085 [0x6C] FADE_ENTITY_COLOR(entity_id=EventEntity, end_alpha=86*, fade_time=1*)
  1: 0x008E [0x00] END_REQSTACK()
```

### Event 65535.2

#### Metadata

| Field        | Value    |
|--------------|----------|
| Entrypoint   | 0x008F   |
| Data Size    | 16 bytes |
| Instructions | 3        |

```
      00 01 02 03 04 05 06 07  08 09 0A 0B 0C 0D 0E 0F
      -- -- -- -- -- -- -- --  -- -- -- -- -- -- -- --
0080:                                               92                 .
0090: 01 F0 FF FF 7F 37 0A 80  0B 80 0C 80 0D 80 00     .....7......... 
```

#### Opcodes

```
  0: 0x008F [0x92] LocalPlayer->Render.Flags3 ^= 0x01
  1: 0x0095 [0x37] UPDATE_EVENT_POSITION_AND_DIR: x=466.304*, z=479.253*, y=-0.023*, direction=180.0°*
  2: 0x009E [0x00] END_REQSTACK()
```

### Event 65535.3

#### Metadata

| Field        | Value    |
|--------------|----------|
| Entrypoint   | 0x009F   |
| Data Size    | 41 bytes |
| Instructions | 5        |

```
      00 01 02 03 04 05 06 07  08 09 0A 0B 0C 0D 0E 0F
      -- -- -- -- -- -- -- --  -- -- -- -- -- -- -- --
0090:                                               BB                 .
00A0: 0E 80 F0 FF FF 7F 23 83  05 01 6D 61 69 6E 02 80  ......#...main..
00B0: 1C 0F 80 45 01 80 F0 FF  FF 7F F0 FF FF 7F 66 64  ...E..........fd
00C0: 6F 31 02 80 1C 05 80 00                           o1......        
```

#### Opcodes

```
  0: 0x009F [0xBB] LOAD_EVENT_SCHEDULER_ALT: Load scheduler "main" with entities [LocalPlayer, Cavernous Maw (ID: 17138467/0x01058323)], work=[148*, 0*]
  1: 0x00B0 [0x1C] WAIT(240* ticks)
  2: 0x00B3 [0x45] LOAD_SCHEDULED_TASK: Load scheduler "fdo1" with entities [LocalPlayer, LocalPlayer], work=[200*, 0*]
  3: 0x00C4 [0x1C] WAIT(60* ticks)
  4: 0x00C7 [0x00] END_REQSTACK()
```

### Event 65535.4

#### Metadata

| Field        | Value    |
|--------------|----------|
| Entrypoint   | 0x00C8   |
| Data Size    | 14 bytes |
| Instructions | 4        |

```
      00 01 02 03 04 05 06 07  08 09 0A 0B 0C 0D 0E 0F
      -- -- -- -- -- -- -- --  -- -- -- -- -- -- -- --
00C0:                          32 10 80 1F 00 11 80 12          2.......
00D0: 80 13 80 1F 01 00                                 ......          
```

#### Opcodes

```
  0: 0x00C8 [0x32] ExtData[1]->MainSpeed = 13* * 0.1
  1: 0x00CB [0x1F] MOVE_ENTITY: EventEntity moves to X=322.264*, Z=925.732*, Y=-20.382*
  2: 0x00D3 [0x1F] MOVE_ENTITY: Update entity position (mode=1)
  3: 0x00D5 [0x00] END_REQSTACK()
```

### Event 65535.5

#### Metadata

| Field        | Value    |
|--------------|----------|
| Entrypoint   | 0x00D6   |
| Data Size    | 14 bytes |
| Instructions | 4        |

```
      00 01 02 03 04 05 06 07  08 09 0A 0B 0C 0D 0E 0F
      -- -- -- -- -- -- -- --  -- -- -- -- -- -- -- --
00D0:                   32 10  80 1F 00 14 80 15 80 16        2.........
00E0: 80 1F 01 00                                       ....            
```

#### Opcodes

```
  0: 0x00D6 [0x32] ExtData[1]->MainSpeed = 13* * 0.1
  1: 0x00D9 [0x1F] MOVE_ENTITY: EventEntity moves to X=329.724*, Z=931.995*, Y=-22.045*
  2: 0x00E1 [0x1F] MOVE_ENTITY: Update entity position (mode=1)
  3: 0x00E3 [0x00] END_REQSTACK()
```

### Event 204

#### Metadata

| Field        | Value     |
|--------------|-----------|
| Entrypoint   | 0x00E4    |
| Data Size    | 412 bytes |
| Instructions | 63        |

```
      00 01 02 03 04 05 06 07  08 09 0A 0B 0C 0D 0E 0F
      -- -- -- -- -- -- -- --  -- -- -- -- -- -- -- --
00E0:             42 20 01 46  01 45 01 80 F0 FF FF 7F      B .F.E......
00F0: F0 FF FF 7F 66 64 6F 31  02 80 1C 05 80 38 17 80  ....fdo1.....8..
0100: 4E 00 F0 FF FF 7F 80 F0  FF FF 7F BA F0 FF FF 7F  N...............
0110: 18 80 19 80 1A 80 1B 80  BA 2B 83 05 01 1C 80 1D  .........+......
0120: 80 1E 80 1F 80 4E 00 2B  83 05 01 80 2B 83 05 01  .....N.+....+...
0130: 92 01 2B 83 05 01 80 36  83 05 01 92 01 36 83 05  ..+....6.....6..
0140: 01 2F 00 31 83 05 01 4E  00 31 83 05 01 80 31 83  ./.1...N.1....1.
0150: 05 01 BA 31 83 05 01 20  80 21 80 22 80 23 80 45  ...1... .!.".#.E
0160: 24 80 F0 FF FF 7F F0 FF  FF 7F 77 68 35 30 02 80  $.........wh50..
0170: 45 01 80 F0 FF FF 7F F0  FF FF 7F 66 64 69 31 02  E..........fdi1.
0180: 80 1C 05 80 29 0F 2B 83  05 01 0F 1C 25 80 4A 2B  ....).+.....%.J+
0190: 83 05 01 36 83 05 01 6F  70 4A 36 83 05 01 2B 83  ...6...opJ6...+.
01A0: 05 01 6F 70 66 26 80 2B  83 05 01 2B 83 05 01 6B  ..opf&.+...+...k
01B0: 62 61 32 32 10 80 1F 00  27 80 28 80 29 80 1F 01  ba22....'.(.)...
01C0: 1C 05 80 53 F8 FF FF 7F  F8 FF FF 7F 6B 62 61 32  ...S........kba2
01D0: 2B 2B 83 05 01 2A 80 23  52 24 80 F0 FF FF 7F F0  ++...*.#R$......
01E0: FF FF 7F 77 68 35 30 45  24 80 F0 FF FF 7F F0 FF  ...wh50E$.......
01F0: FF 7F 77 68 35 31 02 80  6E 2B 83 05 01 2B 80 99  ..wh51..n+...+..
0200: 2B 83 05 01 2B 2B 83 05  01 2C 80 23 6E 36 83 05  +...++...,.#n6..
0210: 01 2D 80 99 36 83 05 01  2B 36 83 05 01 2E 80 23  .-..6...+6.....#
0220: 6E 2B 83 05 01 2F 80 99  2B 83 05 01 2B 2B 83 05  n+.../..+...++..
0230: 01 30 80 23 6E 36 83 05  01 31 80 99 36 83 05 01  .0.#n6...1..6...
0240: 2B 36 83 05 01 32 80 23  45 01 80 F0 FF FF 7F F0  +6...2.#E.......
0250: FF FF 7F 66 64 6F 31 02  80 1C 05 80 52 24 80 F0  ...fdo1.....R$..
0260: FF FF 7F F0 FF FF 7F 77  68 35 31 46 00 45 01 80  .......wh51F.E..
0270: F0 FF FF 7F F0 FF FF 7F  66 64 69 31 02 80 21 00  ........fdi1..!.
```

#### Opcodes

```
  0: 0x00E4 [0x42] SET_CLI_EVENT_CANCEL_DATA()
  1: 0x00E5 [0x20] SET_CLI_EVENT_UC_FLAG: Lock player control
  2: 0x00E7 [0x46] CAMERA_CONTROL: Disable user control
  3: 0x00E9 [0x45] LOAD_SCHEDULED_TASK: Load scheduler "fdo1" with entities [LocalPlayer, LocalPlayer], work=[200*, 0*]
  4: 0x00FA [0x1C] WAIT(60* ticks)
  5: 0x00FD [0x38] SET_CLIENT_EVENT_MODE(mode=19*)
  6: 0x0100 [0x4E] SET_ENTITY_HIDE_FLAG: Show LocalPlayer
  7: 0x0106 [0x80] LOAD_WAIT(entity=LocalPlayer)
  8: 0x010B [0xBA] SET_ENTITY_POSITION(entity_id=LocalPlayer, pos_x=380.282*, pos_z=146.282*, pos_y=0.762*, direction=252.2°*)
  9: 0x0118 [0xBA] SET_ENTITY_POSITION(entity_id=Bernhard (ID: 17138475/0x0105832B), pos_x=376.518*, pos_z=153.982*, pos_y=1.403*, direction=115.9°*)
 10: 0x0125 [0x4E] SET_ENTITY_HIDE_FLAG: Show Bernhard (ID: 17138475/0x0105832B)
 11: 0x012B [0x80] LOAD_WAIT(entity=Bernhard (ID: 17138475/0x0105832B))
 12: 0x0130 [0x92] Bernhard (ID: 17138475/0x0105832B)->Render.Flags3 ^= 0x01
 13: 0x0136 [0x80] LOAD_WAIT(entity=Solitary Ant (ID: 17138486/0x01058336))
 14: 0x013B [0x92] Solitary Ant (ID: 17138486/0x01058336)->Render.Flags3 ^= 0x01
 15: 0x0141 [0x2F] Unnamed NPC (ID: 17138481/0x01058331)->Render.Flags0 &= ~0x80000 // Bit 19
 16: 0x0147 [0x4E] SET_ENTITY_HIDE_FLAG: Show Unnamed NPC (ID: 17138481/0x01058331)
 17: 0x014D [0x80] LOAD_WAIT(entity=Unnamed NPC (ID: 17138481/0x01058331))
 18: 0x0152 [0xBA] SET_ENTITY_POSITION(entity_id=Unnamed NPC (ID: 17138481/0x01058331), pos_x=376.879*, pos_z=155.146*, pos_y=1.692*, direction=39.6°*)
 19: 0x015F [0x45] LOAD_SCHEDULED_TASK: Load scheduler "wh50" with entities [LocalPlayer, LocalPlayer], work=[456*, 0*]
 20: 0x0170 [0x45] LOAD_SCHEDULED_TASK: Load scheduler "fdi1" with entities [LocalPlayer, LocalPlayer], work=[200*, 0*]
 21: 0x0181 [0x1C] WAIT(60* ticks)
 22: 0x0184 [0x29] REQ_SET_WAIT(priority=0x0F, entity_id=Bernhard (ID: 17138475/0x0105832B), tag_num=0x0F)
 23: 0x018B [0x1C] WAIT(30* ticks)
 24: 0x018E [0x4A] Bernhard (ID: 17138475/0x0105832B) looks at Solitary Ant (ID: 17138486/0x01058336)
 25: 0x0197 [0x6F] WAIT_FRAME_DELAY: Yield until WaitTime reaches zero
 26: 0x0198 [0x70] WAIT_ENTITY_RENDER_FLAG: Wait while EventEntity->Render.Flags3 bit 2 is set (cancel turn if not)
 27: 0x0199 [0x4A] Solitary Ant (ID: 17138486/0x01058336) looks at Bernhard (ID: 17138475/0x0105832B)
 28: 0x01A2 [0x6F] WAIT_FRAME_DELAY: Yield until WaitTime reaches zero
 29: 0x01A3 [0x70] WAIT_ENTITY_RENDER_FLAG: Wait while EventEntity->Render.Flags3 bit 2 is set (cancel turn if not)
 30: 0x01A4 [0x66] LOAD_EXT_SCHEDULER_MAIN: Load scheduler "kba2" with entities [Bernhard (ID: 17138475/0x0105832B), Bernhard (ID: 17138475/0x0105832B)], work=2*
 31: 0x01B3 [0x32] ExtData[1]->MainSpeed = 13* * 0.1
 32: 0x01B6 [0x1F] MOVE_ENTITY: EventEntity moves to X=378.592*, Z=149.333*, Y=0.741*
 33: 0x01BE [0x1F] MOVE_ENTITY: Update entity position (mode=1)
 34: 0x01C0 [0x1C] WAIT(60* ticks)
 35: 0x01C3 [0x53] WAIT_SCHEDULER_TASK: Wait for scheduler "kba2" with entities [EventEntity, EventEntity]
 36: 0x01D0 [0x2B] Bernhard (ID: 17138475/0x0105832B) [7745*]:
    → "Sir! Reporting back from patrol of the P-Palborough Mines, sir! N-Nothing out of the ordinary, save for what sounded like the faint scream of a woman in the v-vicinity of the entrance."
 37: 0x01D7 [0x23] WAIT_FOR_DIALOG_INTERACTION
 38: 0x01D8 [0x52] END_LOAD_SCHEDULER: End scheduler "wh50" with entities [LocalPlayer, LocalPlayer], work=456*
 39: 0x01E7 [0x45] LOAD_SCHEDULED_TASK: Load scheduler "wh51" with entities [LocalPlayer, LocalPlayer], work=[456*, 0*]
 40: 0x01F8 [0x6E] Bernhard (ID: 17138475/0x0105832B) uses emote 32*
 41: 0x01FF [0x99] Wait for Bernhard (ID: 17138475/0x0105832B) animation to complete
 42: 0x0204 [0x2B] Bernhard (ID: 17138475/0x0105832B) [7746*]:
    → "Assuming it to be a g-ghost--and a potential liability to my well-being--I n-naturally investigated no further, sir!"
 43: 0x020B [0x23] WAIT_FOR_DIALOG_INTERACTION
 44: 0x020C [0x6E] Solitary Ant (ID: 17138486/0x01058336) uses emote 34*
 45: 0x0213 [0x99] Wait for Solitary Ant (ID: 17138486/0x01058336) animation to complete
 46: 0x0218 [0x2B] Solitary Ant (ID: 17138486/0x01058336) [7747*]:
    → "Idiot! And you call yourself a soldier? Could it have been a mercenary...? With the famine of late, perhaps it was an unfortunate civilian collecting mushrooms for their starving children..."
 47: 0x021F [0x23] WAIT_FOR_DIALOG_INTERACTION
 48: 0x0220 [0x6E] Bernhard (ID: 17138475/0x0105832B) uses emote 26*
 49: 0x0227 [0x99] Wait for Bernhard (ID: 17138475/0x0105832B) animation to complete
 50: 0x022C [0x2B] Bernhard (ID: 17138475/0x0105832B) [7748*]:
    → "Of c-course, sir! Gee, you're so smart, sir!"
 51: 0x0233 [0x23] WAIT_FOR_DIALOG_INTERACTION
 52: 0x0234 [0x6E] Solitary Ant (ID: 17138486/0x01058336) uses emote 6*
 53: 0x023B [0x99] Wait for Solitary Ant (ID: 17138486/0x01058336) animation to complete
 54: 0x0240 [0x2B] Solitary Ant (ID: 17138486/0x01058336) [7749*]:
    → "Anyway, we'd best have a rescue squad sent out. Pull yourself together and come with me!"
 55: 0x0247 [0x23] WAIT_FOR_DIALOG_INTERACTION
 56: 0x0248 [0x45] LOAD_SCHEDULED_TASK: Load scheduler "fdo1" with entities [LocalPlayer, LocalPlayer], work=[200*, 0*]
 57: 0x0259 [0x1C] WAIT(60* ticks)
 58: 0x025C [0x52] END_LOAD_SCHEDULER: End scheduler "wh51" with entities [LocalPlayer, LocalPlayer], work=456*
 59: 0x026B [0x46] CAMERA_CONTROL: Restore default settings
 60: 0x026D [0x45] LOAD_SCHEDULED_TASK: Load scheduler "fdi1" with entities [LocalPlayer, LocalPlayer], work=[200*, 0*]
 61: 0x027E [0x21] END_EVENT
 62: 0x027F [0x00] END_REQSTACK()
```

### Event 102

#### Metadata

| Field        | Value     |
|--------------|-----------|
| Entrypoint   | 0x0280    |
| Data Size    | 538 bytes |
| Instructions | 60        |

```
      00 01 02 03 04 05 06 07  08 09 0A 0B 0C 0D 0E 0F
      -- -- -- -- -- -- -- --  -- -- -- -- -- -- -- --
0280: 42 45 01 80 F8 FF FF 7F  F8 FF FF 7F 66 64 6F 31  BE..........fdo1
0290: 02 80 55 01 80 F8 FF FF  7F F8 FF FF 7F 66 64 6F  ..U..........fdo
02A0: 31 46 01 38 33 80 92 01  29 83 05 01 92 01 2A 83  1F.83...).....*.
02B0: 05 01 4E 00 29 83 05 01  4E 00 2A 83 05 01 BA F0  ..N.)...N.*.....
02C0: FF FF 7F 34 80 35 80 36  80 37 80 80 F0 FF FF 7F  ...4.5.6.7......
02D0: 80 29 83 05 01 4A 29 83  05 01 F0 FF FF 7F 4A F0  .)...J).......J.
02E0: FF FF 7F 29 83 05 01 1C  25 80 45 38 80 F8 FF FF  ...)....%.E8....
02F0: 7F F8 FF FF 7F 73 31 32  33 02 80 1C 39 80 45 01  .....s123...9.E.
0300: 80 F8 FF FF 7F F8 FF FF  7F 66 64 69 31 02 80 55  .........fdi1..U
0310: 01 80 F8 FF FF 7F F8 FF  FF 7F 66 64 69 31 2B 29  ..........fdi1+)
0320: 83 05 01 3A 80 23 52 38  80 F8 FF FF 7F F8 FF FF  ...:.#R8........
0330: 7F 73 31 32 33 45 38 80  F8 FF FF 7F F8 FF FF 7F  .s123E8.........
0340: 73 31 32 34 02 80 66 3B  80 29 83 05 01 29 83 05  s124..f;.)...)..
0350: 01 74 77 62 30 2B 29 83  05 01 3C 80 23 66 3B 80  .twb0+)...<.#f;.
0360: 29 83 05 01 29 83 05 01  74 77 62 31 52 38 80 F8  )...)...twb1R8..
0370: FF FF 7F F8 FF FF 7F 73  31 32 34 45 38 80 F8 FF  .......s124E8...
0380: FF 7F F8 FF FF 7F 73 31  32 35 02 80 2B 29 83 05  ......s125..+)..
0390: 01 3D 80 23 52 38 80 F8  FF FF 7F F8 FF FF 7F 73  .=.#R8.........s
03A0: 31 32 35 45 38 80 F8 FF  FF 7F F8 FF FF 7F 73 31  125E8.........s1
03B0: 32 36 02 80 2B 29 83 05  01 3E 80 23 52 38 80 F8  26..+)...>.#R8..
03C0: FF FF 7F F8 FF FF 7F 73  31 32 36 45 38 80 F8 FF  .......s126E8...
03D0: FF 7F F8 FF FF 7F 73 31  32 37 02 80 2B 29 83 05  ......s127..+)..
03E0: 01 3F 80 23 2B 29 83 05  01 40 80 23 52 38 80 F8  .?.#+)...@.#R8..
03F0: FF FF 7F F8 FF FF 7F 73  31 32 37 45 38 80 F8 FF  .......s127E8...
0400: FF 7F F8 FF FF 7F 73 31  32 38 02 80 66 3B 80 29  ......s128..f;.)
0410: 83 05 01 29 83 05 01 74  77 62 30 2B 29 83 05 01  ...)...twb0+)...
0420: 41 80 23 2B 29 83 05 01  42 80 23 52 38 80 F8 FF  A.#+)...B.#R8...
0430: FF 7F F8 FF FF 7F 73 31  32 38 45 38 80 F8 FF FF  ......s128E8....
0440: 7F F8 FF FF 7F 73 31 32  39 02 80 2B 29 83 05 01  .....s129..+)...
0450: 43 80 23 45 01 80 F8 FF  FF 7F F8 FF FF 7F 66 64  C.#E..........fd
0460: 6F 31 02 80 55 01 80 F8  FF FF 7F F8 FF FF 7F 66  o1..U..........f
0470: 64 6F 31 52 38 80 F8 FF  FF 7F F8 FF FF 7F 73 31  do1R8.........s1
0480: 32 39 46 00 1C 05 80 45  01 80 F8 FF FF 7F F8 FF  29F....E........
0490: FF 7F 66 64 69 31 02 80  21 00                    ..fdi1..!.      
```

#### Opcodes

```
  0: 0x0280 [0x42] SET_CLI_EVENT_CANCEL_DATA()
  1: 0x0281 [0x45] LOAD_SCHEDULED_TASK: Load scheduler "fdo1" with entities [EventEntity, EventEntity], work=[200*, 0*]
  2: 0x0292 [0x55] WAIT_LOAD_SCHEDULER: Wait for scheduler "fdo1" with entities [EventEntity, EventEntity], work=200*
  3: 0x02A1 [0x46] CAMERA_CONTROL: Disable user control
  4: 0x02A3 [0x38] SET_CLIENT_EVENT_MODE(mode=27*)
  5: 0x02A6 [0x92] Gebhardt (ID: 17138473/0x01058329)->Render.Flags3 ^= 0x01
  6: 0x02AC [0x92] Roderich (ID: 17138474/0x0105832A)->Render.Flags3 ^= 0x01
  7: 0x02B2 [0x4E] SET_ENTITY_HIDE_FLAG: Show Gebhardt (ID: 17138473/0x01058329)
  8: 0x02B8 [0x4E] SET_ENTITY_HIDE_FLAG: Show Roderich (ID: 17138474/0x0105832A)
  9: 0x02BE [0xBA] SET_ENTITY_POSITION(entity_id=LocalPlayer, pos_x=204.475*, pos_z=667.142*, pos_y=-20.781*, direction=327.2°*)
 10: 0x02CB [0x80] LOAD_WAIT(entity=LocalPlayer)
 11: 0x02D0 [0x80] LOAD_WAIT(entity=Gebhardt (ID: 17138473/0x01058329))
 12: 0x02D5 [0x4A] Gebhardt (ID: 17138473/0x01058329) looks at LocalPlayer
 13: 0x02DE [0x4A] LocalPlayer looks at Gebhardt (ID: 17138473/0x01058329)
 14: 0x02E7 [0x1C] WAIT(30* ticks)
 15: 0x02EA [0x45] LOAD_SCHEDULED_TASK: Load scheduler "s123" with entities [EventEntity, EventEntity], work=[331*, 0*]
 16: 0x02FB [0x1C] WAIT(15* ticks)
 17: 0x02FE [0x45] LOAD_SCHEDULED_TASK: Load scheduler "fdi1" with entities [EventEntity, EventEntity], work=[200*, 0*]
 18: 0x030F [0x55] WAIT_LOAD_SCHEDULER: Wait for scheduler "fdi1" with entities [EventEntity, EventEntity], work=200*
 19: 0x031E [0x2B] Gebhardt (ID: 17138473/0x01058329) [7895*]:
    → "Rations!? Hand those over, rookie! Let's see... Biscuits...anchovies... Oooh! Faerie apples!"
 20: 0x0325 [0x23] WAIT_FOR_DIALOG_INTERACTION
 21: 0x0326 [0x52] END_LOAD_SCHEDULER: End scheduler "s123" with entities [EventEntity, EventEntity], work=331*
 22: 0x0335 [0x45] LOAD_SCHEDULED_TASK: Load scheduler "s124" with entities [EventEntity, EventEntity], work=[331*, 0*]
 23: 0x0346 [0x66] LOAD_EXT_SCHEDULER_MAIN: Load scheduler "twb0" with entities [Gebhardt (ID: 17138473/0x01058329), Gebhardt (ID: 17138473/0x01058329)], work=9*
 24: 0x0355 [0x2B] Gebhardt (ID: 17138473/0x01058329) [7896*]:
    → "It's been ages since me and my boys last sunk our teeth into some of these. Fresh fruit is so hard to come by these days, with the beastmen always ambushing our supply routes."
 25: 0x035C [0x23] WAIT_FOR_DIALOG_INTERACTION
 26: 0x035D [0x66] LOAD_EXT_SCHEDULER_MAIN: Load scheduler "twb1" with entities [Gebhardt (ID: 17138473/0x01058329), Gebhardt (ID: 17138473/0x01058329)], work=9*
 27: 0x036C [0x52] END_LOAD_SCHEDULER: End scheduler "s124" with entities [EventEntity, EventEntity], work=331*
 28: 0x037B [0x45] LOAD_SCHEDULED_TASK: Load scheduler "s125" with entities [EventEntity, EventEntity], work=[331*, 0*]
 29: 0x038C [0x2B] Gebhardt (ID: 17138473/0x01058329) [7897*]:
    → "Speaking of supply routes, you hear if those documents got to the Benedikt Watchtower?"
 30: 0x0393 [0x23] WAIT_FOR_DIALOG_INTERACTION
 31: 0x0394 [0x52] END_LOAD_SCHEDULER: End scheduler "s125" with entities [EventEntity, EventEntity], work=331*
 32: 0x03A3 [0x45] LOAD_SCHEDULED_TASK: Load scheduler "s126" with entities [EventEntity, EventEntity], work=[331*, 0*]
 33: 0x03B4 [0x2B] Gebhardt (ID: 17138473/0x01058329) [7898*]:
    → "...Don't know what I'm talking about, do you? Alright, I'll fill you in, rookie...but none of this leaves this place, you hear me?"
 34: 0x03BB [0x23] WAIT_FOR_DIALOG_INTERACTION
 35: 0x03BC [0x52] END_LOAD_SCHEDULER: End scheduler "s126" with entities [EventEntity, EventEntity], work=331*
 36: 0x03CB [0x45] LOAD_SCHEDULED_TASK: Load scheduler "s127" with entities [EventEntity, EventEntity], work=[331*, 0*]
 37: 0x03DC [0x2B] Gebhardt (ID: 17138473/0x01058329) [7899*]:
    → "To the southwest of here, there's another watchtower. Only, unlike this one, the Benedikt Watchtower periodically receives communications from headquarters."
 38: 0x03E3 [0x23] WAIT_FOR_DIALOG_INTERACTION
 39: 0x03E4 [0x2B] Gebhardt (ID: 17138473/0x01058329) [7900*]:
    → "Why, you ask? Well, it all has to do with that prestigious tactician they have locked up down there."
 40: 0x03EB [0x23] WAIT_FOR_DIALOG_INTERACTION
 41: 0x03EC [0x52] END_LOAD_SCHEDULER: End scheduler "s127" with entities [EventEntity, EventEntity], work=331*
 42: 0x03FB [0x45] LOAD_SCHEDULED_TASK: Load scheduler "s128" with entities [EventEntity, EventEntity], work=[331*, 0*]
 43: 0x040C [0x66] LOAD_EXT_SCHEDULER_MAIN: Load scheduler "twb0" with entities [Gebhardt (ID: 17138473/0x01058329), Gebhardt (ID: 17138473/0x01058329)], work=9*
 44: 0x041B [0x2B] Gebhardt (ID: 17138473/0x01058329) [7901*]:
    → "Word has it that he was convicted of some terrible crime, but his exceptional knowledge in beastman tactics has forced the president into relying on his advice when forming new battle strategies."
 45: 0x0422 [0x23] WAIT_FOR_DIALOG_INTERACTION
 46: 0x0423 [0x2B] Gebhardt (ID: 17138473/0x01058329) [7902*]:
    → "Now think about it... What if the citizens of the Republic were to find out about this--that the president was putting himself above the laws of our forefathers? In a time of war, distrust in our leaders is the last thing we need. If any of those communications were to fall into the wrong hands, all hell would break loose."
 47: 0x042A [0x23] WAIT_FOR_DIALOG_INTERACTION
 48: 0x042B [0x52] END_LOAD_SCHEDULER: End scheduler "s128" with entities [EventEntity, EventEntity], work=331*
 49: 0x043A [0x45] LOAD_SCHEDULED_TASK: Load scheduler "s129" with entities [EventEntity, EventEntity], work=[331*, 0*]
 50: 0x044B [0x2B] Gebhardt (ID: 17138473/0x01058329) [7903*]:
    → "Hey, I just had an idea. My duties bind me to this watchtower, but you're free to come and go as you please, right? Would you mind going down to the Benedikt Watchtower and asking Decurion Roderich if this week's communication arrived?"
 51: 0x0452 [0x23] WAIT_FOR_DIALOG_INTERACTION
 52: 0x0453 [0x45] LOAD_SCHEDULED_TASK: Load scheduler "fdo1" with entities [EventEntity, EventEntity], work=[200*, 0*]
 53: 0x0464 [0x55] WAIT_LOAD_SCHEDULER: Wait for scheduler "fdo1" with entities [EventEntity, EventEntity], work=200*
 54: 0x0473 [0x52] END_LOAD_SCHEDULER: End scheduler "s129" with entities [EventEntity, EventEntity], work=331*
 55: 0x0482 [0x46] CAMERA_CONTROL: Restore default settings
 56: 0x0484 [0x1C] WAIT(60* ticks)
 57: 0x0487 [0x45] LOAD_SCHEDULED_TASK: Load scheduler "fdi1" with entities [EventEntity, EventEntity], work=[200*, 0*]
 58: 0x0498 [0x21] END_EVENT
 59: 0x0499 [0x00] END_REQSTACK()
```

### Event 104

#### Metadata

| Field        | Value     |
|--------------|-----------|
| Entrypoint   | 0x049A    |
| Data Size    | 874 bytes |
| Instructions | 104       |

```
      00 01 02 03 04 05 06 07  08 09 0A 0B 0C 0D 0E 0F
      -- -- -- -- -- -- -- --  -- -- -- -- -- -- -- --
0490:                                42 03 01 00 02 10            B.....
04A0: 45 01 80 F8 FF FF 7F F8  FF FF 7F 66 64 6F 31 02  E..........fdo1.
04B0: 80 55 01 80 F8 FF FF 7F  F8 FF FF 7F 66 64 6F 31  .U..........fdo1
04C0: 46 01 38 33 80 92 01 2A  83 05 01 92 01 2B 83 05  F.83...*.....+..
04D0: 01 2F 00 2B 83 05 01 4E  00 2A 83 05 01 BA 2B 83  ./.+...N.*....+.
04E0: 05 01 44 80 45 80 46 80  47 80 BA F0 FF FF 7F 48  ..D.E.F.G......H
04F0: 80 49 80 4A 80 4B 80 80  F0 FF FF 7F 80 2A 83 05  .I.J.K.......*..
0500: 01 94 01 2A 83 05 01 4A  2A 83 05 01 F0 FF FF 7F  ...*...J*.......
0510: 4A F0 FF FF 7F 2A 83 05  01 1C 25 80 45 38 80 F8  J....*....%.E8..
0520: FF FF 7F F8 FF FF 7F 73  31 33 30 02 80 1C 39 80  .......s130...9.
0530: 45 01 80 F8 FF FF 7F F8  FF FF 7F 66 64 69 31 02  E..........fdi1.
0540: 80 55 01 80 F8 FF FF 7F  F8 FF FF 7F 66 64 69 31  .U..........fdi1
0550: 2B 2A 83 05 01 4C 80 23  52 38 80 F8 FF FF 7F F8  +*...L.#R8......
0560: FF FF 7F 73 31 33 30 45  38 80 F8 FF FF 7F F8 FF  ...s130E8.......
0570: FF 7F 73 31 33 31 02 80  66 3B 80 2A 83 05 01 2A  ..s131..f;.*...*
0580: 83 05 01 74 77 61 30 2B  2A 83 05 01 4D 80 23 66  ...twa0+*...M.#f
0590: 3B 80 2A 83 05 01 2A 83  05 01 74 77 61 31 5D 02  ;.*...*...twa1].
05A0: 80 4E 80 5C 00 4F 80 5C  01 4F 80 9A 4E 00 2B 83  .N.\.O.\.O..N.+.
05B0: 05 01 80 2B 83 05 01 27  05 2B 83 05 01 04 1C 25  ...+...'.+.....%
05C0: 80 52 38 80 F8 FF FF 7F  F8 FF FF 7F 73 31 33 31  .R8.........s131
05D0: 45 38 80 F8 FF FF 7F F8  FF FF 7F 73 31 33 32 02  E8.........s132.
05E0: 80 02 01 00 02 80 00 F4  05 2B 2B 83 05 01 50 80  .........++...P.
05F0: 23 01 FC 05 2B 2B 83 05  01 51 80 23 4A 2A 83 05  #...++...Q.#J*..
0600: 01 2B 83 05 01 2B 2A 83  05 01 52 80 23 2A 05 2B  .+...+*...R.#*.+
0610: 83 05 01 52 38 80 F8 FF  FF 7F F8 FF FF 7F 73 31  ...R8.........s1
0620: 33 32 45 38 80 F8 FF FF  7F F8 FF FF 7F 73 31 33  32E8.........s13
0630: 33 02 80 66 3B 80 2B 83  05 01 2B 83 05 01 74 77  3..f;.+...+...tw
0640: 61 30 2B 2B 83 05 01 53  80 23 2B 2B 83 05 01 54  a0++...S.#++...T
0650: 80 23 66 3B 80 2B 83 05  01 2B 83 05 01 74 77 61  .#f;.+...+...twa
0660: 31 52 38 80 F8 FF FF 7F  F8 FF FF 7F 73 31 33 33  1R8.........s133
0670: 45 38 80 F8 FF FF 7F F8  FF FF 7F 73 31 33 34 02  E8.........s134.
0680: 80 66 3B 80 2A 83 05 01  2A 83 05 01 74 77 61 30  .f;.*...*...twa0
0690: 2B 2A 83 05 01 55 80 23  66 3B 80 2A 83 05 01 2A  +*...U.#f;.*...*
06A0: 83 05 01 74 77 61 31 66  3B 80 2B 83 05 01 2B 83  ...twa1f;.+...+.
06B0: 05 01 74 77 61 30 2B 2B  83 05 01 56 80 23 52 38  ..twa0++...V.#R8
06C0: 80 F8 FF FF 7F F8 FF FF  7F 73 31 33 34 45 38 80  .........s134E8.
06D0: F8 FF FF 7F F8 FF FF 7F  73 31 33 35 02 80 7C 00  ........s135..|.
06E0: 2A 83 05 01 2B 2A 83 05  01 57 80 23 7C 01 2A 83  *...+*...W.#|.*.
06F0: 05 01 52 38 80 F8 FF FF  7F F8 FF FF 7F 73 31 33  ..R8.........s13
0700: 35 45 38 80 F8 FF FF 7F  F8 FF FF 7F 73 31 33 36  5E8.........s136
0710: 02 80 2B 2B 83 05 01 58  80 23 66 3B 80 2B 83 05  ..++...X.#f;.+..
0720: 01 2B 83 05 01 74 77 61  31 52 38 80 F8 FF FF 7F  .+...twa1R8.....
0730: F8 FF FF 7F 73 31 33 36  45 38 80 F8 FF FF 7F F8  ....s136E8......
0740: FF FF 7F 73 31 33 37 02  80 27 05 2B 83 05 01 05  ...s137..'.+....
0750: 1C 59 80 52 38 80 F8 FF  FF 7F F8 FF FF 7F 73 31  .Y.R8.........s1
0760: 33 37 45 38 80 F8 FF FF  7F F8 FF FF 7F 73 31 33  37E8.........s13
0770: 38 02 80 2B 2A 83 05 01  5A 80 23 52 38 80 F8 FF  8..+*...Z.#R8...
0780: FF 7F F8 FF FF 7F 73 31  33 38 45 38 80 F8 FF FF  ......s138E8....
0790: 7F F8 FF FF 7F 73 31 33  39 02 80 6E 2A 83 05 01  .....s139..n*...
07A0: 31 80 99 2A 83 05 01 2B  2A 83 05 01 5B 80 23 5D  1..*...+*...[.#]
07B0: 02 80 4E 80 45 01 80 F8  FF FF 7F F8 FF FF 7F 66  ..N.E..........f
07C0: 64 6F 31 02 80 55 01 80  F8 FF FF 7F F8 FF FF 7F  do1..U..........
07D0: 66 64 6F 31 52 38 80 F8  FF FF 7F F8 FF FF 7F 73  fdo1R8.........s
07E0: 31 33 39 5C 00 5C 80 5C  01 5C 80 9A 46 00 1C 05  139\.\.\.\..F...
07F0: 80 45 01 80 F8 FF FF 7F  F8 FF FF 7F 66 64 69 31  .E..........fdi1
0800: 02 80 21 00                                       ..!.            
```

#### Opcodes

```
  0: 0x049A [0x42] SET_CLI_EVENT_CANCEL_DATA()
  1: 0x049B [0x03] ExtData[1]->WorkLocal[1] = Work_Zone[2]
  2: 0x04A0 [0x45] LOAD_SCHEDULED_TASK: Load scheduler "fdo1" with entities [EventEntity, EventEntity], work=[200*, 0*]
  3: 0x04B1 [0x55] WAIT_LOAD_SCHEDULER: Wait for scheduler "fdo1" with entities [EventEntity, EventEntity], work=200*
  4: 0x04C0 [0x46] CAMERA_CONTROL: Disable user control
  5: 0x04C2 [0x38] SET_CLIENT_EVENT_MODE(mode=27*)
  6: 0x04C5 [0x92] Roderich (ID: 17138474/0x0105832A)->Render.Flags3 ^= 0x01
  7: 0x04CB [0x92] Bernhard (ID: 17138475/0x0105832B)->Render.Flags3 ^= 0x01
  8: 0x04D1 [0x2F] Bernhard (ID: 17138475/0x0105832B)->Render.Flags0 &= ~0x80000 // Bit 19
  9: 0x04D7 [0x4E] SET_ENTITY_HIDE_FLAG: Show Roderich (ID: 17138474/0x0105832A)
 10: 0x04DD [0xBA] SET_ENTITY_POSITION(entity_id=Bernhard (ID: 17138475/0x0105832B), pos_x=-410.101*, pos_z=-91.776*, pos_y=41.781*, direction=164.4°*)
 11: 0x04EA [0xBA] SET_ENTITY_POSITION(entity_id=LocalPlayer, pos_x=-400.009*, pos_z=-92.976*, pos_y=39.996*, direction=264.9°*)
 12: 0x04F7 [0x80] LOAD_WAIT(entity=LocalPlayer)
 13: 0x04FC [0x80] LOAD_WAIT(entity=Roderich (ID: 17138474/0x0105832A))
 14: 0x0501 [0x94] Roderich (ID: 17138474/0x0105832A)->Render.Flags3 ^= 0x01
 15: 0x0507 [0x4A] Roderich (ID: 17138474/0x0105832A) looks at LocalPlayer
 16: 0x0510 [0x4A] LocalPlayer looks at Roderich (ID: 17138474/0x0105832A)
 17: 0x0519 [0x1C] WAIT(30* ticks)
 18: 0x051C [0x45] LOAD_SCHEDULED_TASK: Load scheduler "s130" with entities [EventEntity, EventEntity], work=[331*, 0*]
 19: 0x052D [0x1C] WAIT(15* ticks)
 20: 0x0530 [0x45] LOAD_SCHEDULED_TASK: Load scheduler "fdi1" with entities [EventEntity, EventEntity], work=[200*, 0*]
 21: 0x0541 [0x55] WAIT_LOAD_SCHEDULER: Wait for scheduler "fdi1" with entities [EventEntity, EventEntity], work=200*
 22: 0x0550 [0x2B] Roderich (ID: 17138474/0x0105832A) [7906*]:
    → "Centurion Gebhardt asked you to come all the way here and check on the status of the communication?"
 23: 0x0557 [0x23] WAIT_FOR_DIALOG_INTERACTION
 24: 0x0558 [0x52] END_LOAD_SCHEDULER: End scheduler "s130" with entities [EventEntity, EventEntity], work=331*
 25: 0x0567 [0x45] LOAD_SCHEDULED_TASK: Load scheduler "s131" with entities [EventEntity, EventEntity], work=[331*, 0*]
 26: 0x0578 [0x66] LOAD_EXT_SCHEDULER_MAIN: Load scheduler "twa0" with entities [Roderich (ID: 17138474/0x0105832A), Roderich (ID: 17138474/0x0105832A)], work=9*
 27: 0x0587 [0x2B] Roderich (ID: 17138474/0x0105832A) [7907*]:
    → "Haha. The centurion's always worrying too much. We've five of the division's finest guarding that missive as it makes its way here. Nothing could go wr--"
 28: 0x058E [0x23] WAIT_FOR_DIALOG_INTERACTION
 29: 0x058F [0x66] LOAD_EXT_SCHEDULER_MAIN: Load scheduler "twa1" with entities [Roderich (ID: 17138474/0x0105832A), Roderich (ID: 17138474/0x0105832A)], work=9*
 30: 0x059E [0x5D] SET_MUSIC_VOLUME(volume=0*, fade_time=120*)
 31: 0x05A3 [0x5C] MUSIC_CONTROL: Set Idle (Day) music to song 231*
 32: 0x05A7 [0x5C] MUSIC_CONTROL: Set Idle (Night) music to song 231*
 33: 0x05AB [0x9A] WAIT_MUSIC_SERVER()
 34: 0x05AC [0x4E] SET_ENTITY_HIDE_FLAG: Show Bernhard (ID: 17138475/0x0105832B)
 35: 0x05B2 [0x80] LOAD_WAIT(entity=Bernhard (ID: 17138475/0x0105832B))
 36: 0x05B7 [0x27] REQ_SET(priority=0x05, entity_id=Bernhard (ID: 17138475/0x0105832B), tag_num=0x04)
 37: 0x05BE [0x1C] WAIT(30* ticks)
 38: 0x05C1 [0x52] END_LOAD_SCHEDULER: End scheduler "s131" with entities [EventEntity, EventEntity], work=331*
 39: 0x05D0 [0x45] LOAD_SCHEDULED_TASK: Load scheduler "s132" with entities [EventEntity, EventEntity], work=[331*, 0*]
 40: 0x05E1 [0x02] IF !(ExtData[1]->WorkLocal[1] == 0*) GOTO 0x05F4
 41: 0x05E9 [0x2B] Bernhard (ID: 17138475/0x0105832B) [7908*]:
    → "Decurion! I just received a call on the emergency linkshell line! A party of turtlebacks ambushed the unit transporting the president's communication."
 42: 0x05F0 [0x23] WAIT_FOR_DIALOG_INTERACTION
 43: 0x05F1 [0x01] GOTO 0x05FC
 44: 0x05F4 [0x2B] Bernhard (ID: 17138475/0x0105832B) [7909*]:
    → "I just received a call on the emergency linkshell line! A party of turtlebacks has once again ambushed the unit transporting the president's communication."
 45: 0x05FB [0x23] WAIT_FOR_DIALOG_INTERACTION

SUBROUTINE_05FC:
 46: 0x05FC [0x4A] Roderich (ID: 17138474/0x0105832A) looks at Bernhard (ID: 17138475/0x0105832B)
 47: 0x0605 [0x2B] Roderich (ID: 17138474/0x0105832A) [7910*]:
    → "Damn!"
 48: 0x060C [0x23] WAIT_FOR_DIALOG_INTERACTION
 49: 0x060D [0x2A] GET_REQ_LEVEL(level=5, entity_id=Bernhard (ID: 17138475/0x0105832B))
 50: 0x0613 [0x52] END_LOAD_SCHEDULER: End scheduler "s132" with entities [EventEntity, EventEntity], work=331*
 51: 0x0622 [0x45] LOAD_SCHEDULED_TASK: Load scheduler "s133" with entities [EventEntity, EventEntity], work=[331*, 0*]
 52: 0x0633 [0x66] LOAD_EXT_SCHEDULER_MAIN: Load scheduler "twa0" with entities [Bernhard (ID: 17138475/0x0105832B), Bernhard (ID: 17138475/0x0105832B)], work=9*
 53: 0x0642 [0x2B] Bernhard (ID: 17138475/0x0105832B) [7911*]:
    → "The Metalworks has already dispatched another unit to retrieve the missive, but they have not yet been able to locate the perpetrators."
 54: 0x0649 [0x23] WAIT_FOR_DIALOG_INTERACTION
 55: 0x064A [0x2B] Bernhard (ID: 17138475/0x0105832B) [7912*]:
    → "The unit is currently en route to a turtleback stronghold to the northeast. They should arrive shortly."
 56: 0x0651 [0x23] WAIT_FOR_DIALOG_INTERACTION
 57: 0x0652 [0x66] LOAD_EXT_SCHEDULER_MAIN: Load scheduler "twa1" with entities [Bernhard (ID: 17138475/0x0105832B), Bernhard (ID: 17138475/0x0105832B)], work=9*
 58: 0x0661 [0x52] END_LOAD_SCHEDULER: End scheduler "s133" with entities [EventEntity, EventEntity], work=331*
 59: 0x0670 [0x45] LOAD_SCHEDULED_TASK: Load scheduler "s134" with entities [EventEntity, EventEntity], work=[331*, 0*]
 60: 0x0681 [0x66] LOAD_EXT_SCHEDULER_MAIN: Load scheduler "twa0" with entities [Roderich (ID: 17138474/0x0105832A), Roderich (ID: 17138474/0x0105832A)], work=9*
 61: 0x0690 [0x2B] Roderich (ID: 17138474/0x0105832A) [7913*]:
    → "Wait, but what of the camp to the west? Have they dispatched a second unit?"
 62: 0x0697 [0x23] WAIT_FOR_DIALOG_INTERACTION
 63: 0x0698 [0x66] LOAD_EXT_SCHEDULER_MAIN: Load scheduler "twa1" with entities [Roderich (ID: 17138474/0x0105832A), Roderich (ID: 17138474/0x0105832A)], work=9*
 64: 0x06A7 [0x66] LOAD_EXT_SCHEDULER_MAIN: Load scheduler "twa0" with entities [Bernhard (ID: 17138475/0x0105832B), Bernhard (ID: 17138475/0x0105832B)], work=9*
 65: 0x06B6 [0x2B] Bernhard (ID: 17138475/0x0105832B) [7914*]:
    → "Due to the lack of intel on the size of the ambush party, our praefectae felt that it was too dangerous to divide our forces..."
 66: 0x06BD [0x23] WAIT_FOR_DIALOG_INTERACTION
 67: 0x06BE [0x52] END_LOAD_SCHEDULER: End scheduler "s134" with entities [EventEntity, EventEntity], work=331*
 68: 0x06CD [0x45] LOAD_SCHEDULED_TASK: Load scheduler "s135" with entities [EventEntity, EventEntity], work=[331*, 0*]
 69: 0x06DE [0x7C] Roderich (ID: 17138474/0x0105832A)->Render.Flags2 |= 0x00
 70: 0x06E4 [0x2B] Roderich (ID: 17138474/0x0105832A) [7915*]:
    → "But we need someone there now!"
 71: 0x06EB [0x23] WAIT_FOR_DIALOG_INTERACTION
 72: 0x06EC [0x7C] Roderich (ID: 17138474/0x0105832A)->Render.Flags2 |= 0x01
 73: 0x06F2 [0x52] END_LOAD_SCHEDULER: End scheduler "s135" with entities [EventEntity, EventEntity], work=331*
 74: 0x0701 [0x45] LOAD_SCHEDULED_TASK: Load scheduler "s136" with entities [EventEntity, EventEntity], work=[331*, 0*]
 75: 0x0712 [0x2B] Bernhard (ID: 17138475/0x0105832B) [7916*]:
    → "Sir! Yes sir! I will get back on the linkshell and request another unit, and we'll just have to cross our fingers and hope they listen..."
 76: 0x0719 [0x23] WAIT_FOR_DIALOG_INTERACTION
 77: 0x071A [0x66] LOAD_EXT_SCHEDULER_MAIN: Load scheduler "twa1" with entities [Bernhard (ID: 17138475/0x0105832B), Bernhard (ID: 17138475/0x0105832B)], work=9*
 78: 0x0729 [0x52] END_LOAD_SCHEDULER: End scheduler "s136" with entities [EventEntity, EventEntity], work=331*
 79: 0x0738 [0x45] LOAD_SCHEDULED_TASK: Load scheduler "s137" with entities [EventEntity, EventEntity], work=[331*, 0*]
 80: 0x0749 [0x27] REQ_SET(priority=0x05, entity_id=Bernhard (ID: 17138475/0x0105832B), tag_num=0x05)
 81: 0x0750 [0x1C] WAIT(180* ticks)
 82: 0x0753 [0x52] END_LOAD_SCHEDULER: End scheduler "s137" with entities [EventEntity, EventEntity], work=331*
 83: 0x0762 [0x45] LOAD_SCHEDULED_TASK: Load scheduler "s138" with entities [EventEntity, EventEntity], work=[331*, 0*]
 84: 0x0773 [0x2B] Roderich (ID: 17138474/0x0105832A) [7917*]:
    → "The private's right. If the Metalworks hasn't sent anyone by now, it means they have no one to spare."
 85: 0x077A [0x23] WAIT_FOR_DIALOG_INTERACTION
 86: 0x077B [0x52] END_LOAD_SCHEDULER: End scheduler "s138" with entities [EventEntity, EventEntity], work=331*
 87: 0x078A [0x45] LOAD_SCHEDULED_TASK: Load scheduler "s139" with entities [EventEntity, EventEntity], work=[331*, 0*]
 88: 0x079B [0x6E] Roderich (ID: 17138474/0x0105832A) uses emote 6*
 89: 0x07A2 [0x99] Wait for Roderich (ID: 17138474/0x0105832A) animation to complete
 90: 0x07A7 [0x2B] Roderich (ID: 17138474/0x0105832A) [7918*]:
    → "That means we can only sit back and pray that our unit made the right decision, because if they didn't, and that communication is taken into the western camp..."
 91: 0x07AE [0x23] WAIT_FOR_DIALOG_INTERACTION
 92: 0x07AF [0x5D] SET_MUSIC_VOLUME(volume=0*, fade_time=120*)
 93: 0x07B4 [0x45] LOAD_SCHEDULED_TASK: Load scheduler "fdo1" with entities [EventEntity, EventEntity], work=[200*, 0*]
 94: 0x07C5 [0x55] WAIT_LOAD_SCHEDULER: Wait for scheduler "fdo1" with entities [EventEntity, EventEntity], work=200*
 95: 0x07D4 [0x52] END_LOAD_SCHEDULER: End scheduler "s139" with entities [EventEntity, EventEntity], work=331*
 96: 0x07E3 [0x5C] MUSIC_CONTROL: Set Idle (Day) music to song 253*
 97: 0x07E7 [0x5C] MUSIC_CONTROL: Set Idle (Night) music to song 253*
 98: 0x07EB [0x9A] WAIT_MUSIC_SERVER()
 99: 0x07EC [0x46] CAMERA_CONTROL: Restore default settings
100: 0x07EE [0x1C] WAIT(60* ticks)
101: 0x07F1 [0x45] LOAD_SCHEDULED_TASK: Load scheduler "fdi1" with entities [EventEntity, EventEntity], work=[200*, 0*]
102: 0x0802 [0x21] END_EVENT
103: 0x0803 [0x00] END_REQSTACK()
```

### Event 106

#### Metadata

| Field        | Value      |
|--------------|------------|
| Entrypoint   | 0x0804     |
| Data Size    | 2566 bytes |
| Instructions | 285        |

```
      00 01 02 03 04 05 06 07  08 09 0A 0B 0C 0D 0E 0F
      -- -- -- -- -- -- -- --  -- -- -- -- -- -- -- --
0800:             42 5D 02 80  4E 80 45 01 80 F8 FF FF      B]..N.E.....
0810: 7F F8 FF FF 7F 66 64 6F  31 02 80 55 01 80 F8 FF  .....fdo1..U....
0820: FF 7F F8 FF FF 7F 66 64  6F 31 46 01 38 33 80 92  ......fdo1F.83..
0830: 01 2C 83 05 01 92 01 2D  83 05 01 92 01 2E 83 05  .,.....-........
0840: 01 92 01 2F 83 05 01 92  01 30 83 05 01 2F 00 2C  .../.....0.../.,
0850: 83 05 01 2F 00 2D 83 05  01 2F 00 2E 83 05 01 2F  .../.-.../...../
0860: 00 2F 83 05 01 2F 00 30  83 05 01 2F 00 28 83 05  ./.../.0.../.(..
0870: 01 4E 00 28 83 05 01 4E  00 2C 83 05 01 4E 00 2D  .N.(...N.,...N.-
0880: 83 05 01 4E 00 2E 83 05  01 4E 00 2F 83 05 01 4E  ...N.....N./...N
0890: 00 30 83 05 01 BA 28 83  05 01 5D 80 5E 80 5F 80  .0....(...].^._.
08A0: 60 80 BA 2C 83 05 01 61  80 62 80 63 80 64 80 BA  `..,...a.b.c.d..
08B0: 2D 83 05 01 65 80 66 80  67 80 64 80 BA 2E 83 05  -...e.f.g.d.....
08C0: 01 68 80 69 80 6A 80 64  80 BA 2F 83 05 01 6B 80  .h.i.j.d../...k.
08D0: 6C 80 6D 80 64 80 BA 30  83 05 01 6E 80 6F 80 70  l.m.d..0...n.o.p
08E0: 80 64 80 BA F0 FF FF 7F  71 80 72 80 73 80 74 80  .d......q.r.s.t.
08F0: 7E 06 2C 83 05 01 26 80  02 80 02 80 02 80 02 80  ~.,...&.........
0900: 03 80 7E 04 2C 83 05 01  7E 06 2D 83 05 01 26 80  ..~.,...~.-...&.
0910: 02 80 02 80 02 80 02 80  03 80 7E 04 2D 83 05 01  ..........~.-...
0920: 7E 06 2E 83 05 01 26 80  02 80 02 80 02 80 02 80  ~.....&.........
0930: 03 80 7E 04 2E 83 05 01  7E 06 2F 83 05 01 26 80  ..~.....~./...&.
0940: 02 80 02 80 02 80 02 80  03 80 7E 04 2F 83 05 01  ..........~./...
0950: 7E 06 30 83 05 01 26 80  02 80 02 80 02 80 02 80  ~.0...&.........
0960: 03 80 7E 04 30 83 05 01  80 F0 FF FF 7F 80 28 83  ..~.0.........(.
0970: 05 01 80 2C 83 05 01 80  2D 83 05 01 80 2E 83 05  ...,....-.......
0980: 01 80 2F 83 05 01 80 30  83 05 01 27 05 28 83 05  ../....0...'.(..
0990: 01 02 45 38 80 F8 FF FF  7F F8 FF FF 7F 73 31 34  ..E8.........s14
09A0: 30 02 80 1C 39 80 45 01  80 F8 FF FF 7F F8 FF FF  0...9.E.........
09B0: 7F 66 64 69 31 02 80 55  01 80 F8 FF FF 7F F8 FF  .fdi1..U........
09C0: FF 7F 66 64 69 31 2A 05  28 83 05 01 4A F0 FF FF  ..fdi1*.(...J...
09D0: 7F 28 83 05 01 1C 05 80  52 38 80 F8 FF FF 7F F8  .(......R8......
09E0: FF FF 7F 73 31 34 30 45  38 80 F8 FF FF 7F F8 FF  ...s140E8.......
09F0: FF 7F 73 31 34 31 02 80  55 38 80 F8 FF FF 7F F8  ..s141..U8......
0A00: FF FF 7F 73 31 34 31 1C  25 80 02 87 7F 75 80 80  ...s141.%....u..
0A10: 26 0A 45 38 80 F8 FF FF  7F F8 FF FF 7F 73 31 34  &.E8.........s14
0A20: 37 02 80 01 A7 0A 02 87  7F 76 80 80 42 0A 45 38  7........v..B.E8
0A30: 80 F8 FF FF 7F F8 FF FF  7F 73 31 34 37 02 80 01  .........s147...
0A40: A7 0A 02 87 7F 77 80 80  5E 0A 45 38 80 F8 FF FF  .....w..^.E8....
0A50: 7F F8 FF FF 7F 73 31 34  38 02 80 01 A7 0A 02 87  .....s148.......
0A60: 7F 31 80 80 7A 0A 45 38  80 F8 FF FF 7F F8 FF FF  .1..z.E8........
0A70: 7F 73 31 34 38 02 80 01  A7 0A 02 87 7F 78 80 80  .s148........x..
0A80: 96 0A 45 38 80 F8 FF FF  7F F8 FF FF 7F 73 31 34  ..E8.........s14
0A90: 37 02 80 01 A7 0A 45 38  80 F8 FF FF 7F F8 FF FF  7.....E8........
0AA0: 7F 73 31 34 32 02 80 1C  4E 80 52 38 80 F8 FF FF  .s142...N.R8....
0AB0: 7F F8 FF FF 7F 73 31 34  32 45 38 80 F8 FF FF 7F  .....s142E8.....
0AC0: F8 FF FF 7F 73 31 34 33  02 80 1C 4E 80 52 38 80  ....s143...N.R8.
0AD0: F8 FF FF 7F F8 FF FF 7F  73 31 34 33 45 38 80 F8  ........s143E8..
0AE0: FF FF 7F F8 FF FF 7F 73  31 34 34 02 80 5B 79 80  .......s144..[y.
0AF0: 28 83 05 01 28 83 05 01  65 73 63 30 1C 25 80 45  (...(...esc0.%.E
0B00: 38 80 F8 FF FF 7F F8 FF  FF 7F 66 6F 6F 74 02 80  8.........foot..
0B10: 1C 7A 80 52 38 80 F8 FF  FF 7F F8 FF FF 7F 73 31  .z.R8.........s1
0B20: 34 34 45 38 80 F8 FF FF  7F F8 FF FF 7F 73 32 31  44E8.........s21
0B30: 39 02 80 1C 25 80 45 38  80 F8 FF FF 7F F8 FF FF  9...%.E8........
0B40: 7F 73 32 32 35 02 80 6E  F0 FF FF 7F 7B 80 99 F0  .s225..n....{...
0B50: FF FF 7F 53 28 83 05 01  28 83 05 01 65 73 63 30  ...S(...(...esc0
0B60: 5C 00 4E 80 5C 01 4E 80  9A 27 05 2C 83 05 01 02  \.N.\.N..'.,....
0B70: 27 05 2D 83 05 01 02 27  05 2E 83 05 01 02 27 05  '.-....'......'.
0B80: 2F 83 05 01 02 27 05 30  83 05 01 02 1C 25 80 52  /....'.0.....%.R
0B90: 38 80 F8 FF FF 7F F8 FF  FF 7F 73 32 31 39 45 38  8.........s219E8
0BA0: 80 F8 FF FF 7F F8 FF FF  7F 73 31 34 35 02 80 6B  .........s145..k
0BB0: 69 64 6C 30 28 83 05 01  BA 28 83 05 01 7C 80 7D  idl0(....(...|.}
0BC0: 80 7E 80 7F 80 80 28 83  05 01 2B 3A 83 05 01 80  .~....(...+:....
0BD0: 80 23 2A 05 2C 83 05 01  2A 05 2D 83 05 01 2A 05  .#*.,...*.-...*.
0BE0: 2E 83 05 01 2A 05 2F 83  05 01 2A 05 30 83 05 01  ....*./...*.0...
0BF0: 55 38 80 F8 FF FF 7F F8  FF FF 7F 73 31 34 35 45  U8.........s145E
0C00: 38 80 F8 FF FF 7F F8 FF  FF 7F 73 32 32 33 02 80  8.........s223..
0C10: 7E 05 2C 83 05 01 2F 00  31 83 05 01 4E 00 31 83  ~.,.../.1...N.1.
0C20: 05 01 BA 31 83 05 01 81  80 82 80 83 80 84 80 BA  ...1............
0C30: 2F 83 05 01 85 80 86 80  87 80 7F 80 BA 30 83 05  /............0..
0C40: 01 88 80 89 80 8A 80 7F  80 BA 2C 83 05 01 8B 80  ..........,.....
0C50: 8C 80 8D 80 8E 80 80 31  83 05 01 80 2C 83 05 01  .......1....,...
0C60: 4A 2F 83 05 01 28 83 05  01 4A 30 83 05 01 28 83  J/...(...J0...(.
0C70: 05 01 55 38 80 F8 FF FF  7F F8 FF FF 7F 73 32 32  ..U8.........s22
0C80: 33 1C 25 80 5B 8F 80 2C  83 05 01 2C 83 05 01 7A  3.%.[..,...,...z
0C90: 61 30 30 45 38 80 F8 FF  FF 7F F8 FF FF 7F 73 31  a00E8.........s1
0CA0: 35 37 02 80 4A 28 83 05  01 2C 83 05 01 7B 28 83  57..J(...,...{(.
0CB0: 05 01 1C 59 80 52 38 80  F8 FF FF 7F F8 FF FF 7F  ...Y.R8.........
0CC0: 73 31 35 37 45 38 80 F8  FF FF 7F F8 FF FF 7F 73  s157E8.........s
0CD0: 32 32 32 02 80 1C 4E 80  52 38 80 F8 FF FF 7F F8  222...N.R8......
0CE0: FF FF 7F 73 32 32 32 45  38 80 F8 FF FF 7F F8 FF  ...s222E8.......
0CF0: FF 7F 73 31 34 36 02 80  27 05 28 83 05 01 04 2B  ..s146..'.(....+
0D00: 2C 83 05 01 90 80 23 2A  05 28 83 05 01 45 01 80  ,.....#*.(...E..
0D10: F8 FF FF 7F F8 FF FF 7F  66 64 6F 31 02 80 55 01  ........fdo1..U.
0D20: 80 F8 FF FF 7F F8 FF FF  7F 66 64 6F 31 52 38 80  .........fdo1R8.
0D30: F8 FF FF 7F F8 FF FF 7F  73 31 34 36 7E 05 2C 83  ........s146~.,.
0D40: 05 01 7E 05 2D 83 05 01  7E 05 2E 83 05 01 7E 05  ..~.-...~.....~.
0D50: 2F 83 05 01 7E 05 30 83  05 01 2F 00 32 83 05 01  /...~.0.../.2...
0D60: 4E 00 32 83 05 01 2F 00  33 83 05 01 4E 00 33 83  N.2.../.3...N.3.
0D70: 05 01 2F 00 34 83 05 01  4E 00 34 83 05 01 2F 00  ../.4...N.4.../.
0D80: 35 83 05 01 4E 00 35 83  05 01 BA 31 83 05 01 91  5...N.5....1....
0D90: 80 92 80 93 80 94 80 BA  32 83 05 01 95 80 96 80  ........2.......
0DA0: 97 80 98 80 BA 33 83 05  01 99 80 9A 80 97 80 98  .....3..........
0DB0: 80 BA 34 83 05 01 9B 80  9C 80 9D 80 9E 80 BA 35  ..4............5
0DC0: 83 05 01 9F 80 A0 80 A1  80 A2 80 BA F0 FF FF 7F  ................
0DD0: A3 80 A4 80 A5 80 A6 80  BA 28 83 05 01 A7 80 A8  .........(......
0DE0: 80 A9 80 60 80 80 31 83  05 01 80 32 83 05 01 80  ...`..1....2....
0DF0: 33 83 05 01 80 34 83 05  01 80 35 83 05 01 80 F0  3....4....5.....
0E00: FF FF 7F 80 28 83 05 01  BA 2C 83 05 01 AA 80 AB  ....(....,......
0E10: 80 AC 80 AD 80 BA 2D 83  05 01 AE 80 AF 80 B0 80  ......-.........
0E20: B1 80 BA 2E 83 05 01 B2  80 B3 80 B4 80 B5 80 BA  ................
0E30: 2F 83 05 01 B6 80 B7 80  B8 80 B9 80 BA 30 83 05  /............0..
0E40: 01 BA 80 BB 80 BC 80 05  80 80 2C 83 05 01 80 2D  ..........,....-
0E50: 83 05 01 80 2E 83 05 01  80 2F 83 05 01 80 30 83  ........./....0.
0E60: 05 01 4A 2C 83 05 01 28  83 05 01 4A 2D 83 05 01  ..J,...(...J-...
0E70: 28 83 05 01 4A 2E 83 05  01 28 83 05 01 4A 2F 83  (...J....(...J/.
0E80: 05 01 28 83 05 01 4A 30  83 05 01 28 83 05 01 4A  ..(...J0...(...J
0E90: F0 FF FF 7F 28 83 05 01  4A 28 83 05 01 2C 83 05  ....(...J(...,..
0EA0: 01 7B 28 83 05 01 7B 2C  83 05 01 7B 2D 83 05 01  .{(...{,...{-...
0EB0: 7B 2E 83 05 01 7B 2F 83  05 01 7B 30 83 05 01 45  {....{/...{0...E
0EC0: 38 80 F8 FF FF 7F F8 FF  FF 7F 64 6F 6B 61 02 80  8.........doka..
0ED0: 1C 4E 80 2C 28 83 05 01  28 83 05 01 64 65 61 64  .N.,(...(...dead
0EE0: 53 28 83 05 01 28 83 05  01 64 65 61 64 5B BD 80  S(...(...dead[..
0EF0: 2C 83 05 01 2C 83 05 01  73 70 6C 61 45 38 80 F8  ,...,...splaE8..
0F00: FF FF 7F F8 FF FF 7F 73  31 34 39 02 80 1C 39 80  .......s149...9.
0F10: 45 01 80 F8 FF FF 7F F8  FF FF 7F 66 64 69 31 02  E..........fdi1.
0F20: 80 55 01 80 F8 FF FF 7F  F8 FF FF 7F 66 64 69 31  .U..........fdi1
0F30: 1C 4E 80 5B 8F 80 2C 83  05 01 2C 83 05 01 62 73  .N.[..,...,...bs
0F40: 71 30 52 38 80 F8 FF FF  7F F8 FF FF 7F 73 31 34  q0R8.........s14
0F50: 39 45 38 80 F8 FF FF 7F  F8 FF FF 7F 73 32 32 31  9E8.........s221
0F60: 02 80 1C 05 80 2B 2C 83  05 01 BE 80 23 53 2C 83  .....+,.....#S,.
0F70: 05 01 2C 83 05 01 62 73  71 30 52 38 80 F8 FF FF  ..,...bsq0R8....
0F80: 7F F8 FF FF 7F 73 32 32  31 45 38 80 F8 FF FF 7F  .....s221E8.....
0F90: F8 FF FF 7F 73 31 35 30  02 80 27 05 2C 83 05 01  ....s150..'.,...
0FA0: 04 2B 2C 83 05 01 BF 80  23 2A 05 2C 83 05 01 52  .+,.....#*.,...R
0FB0: 38 80 F8 FF FF 7F F8 FF  FF 7F 73 31 35 30 45 38  8.........s150E8
0FC0: 80 F8 FF FF 7F F8 FF FF  7F 73 31 35 31 02 80 66  .........s151..f
0FD0: C0 80 2C 83 05 01 2C 83  05 01 73 68 61 30 BA F0  ..,...,...sha0..
0FE0: FF FF 7F C1 80 C2 80 C3  80 C4 80 80 F0 FF FF 7F  ................
0FF0: 53 2C 83 05 01 2C 83 05  01 73 68 61 30 52 38 80  S,...,...sha0R8.
1000: F8 FF FF 7F F8 FF FF 7F  73 31 35 31 45 38 80 F8  ........s151E8..
1010: FF FF 7F F8 FF FF 7F 73  31 35 32 02 80 4A F0 FF  .......s152..J..
1020: FF 7F 2C 83 05 01 1C 25  80 2B 2C 83 05 01 C5 80  ..,....%.+,.....
1030: 23 52 38 80 F8 FF FF 7F  F8 FF FF 7F 73 31 35 32  #R8.........s152
1040: 45 38 80 F8 FF FF 7F F8  FF FF 7F 73 31 35 33 02  E8.........s153.
1050: 80 66 C0 80 2C 83 05 01  2C 83 05 01 73 68 61 31  .f..,...,...sha1
1060: 2B 2C 83 05 01 C6 80 23  53 2C 83 05 01 2C 83 05  +,.....#S,...,..
1070: 01 73 68 61 31 52 38 80  F8 FF FF 7F F8 FF FF 7F  .sha1R8.........
1080: 73 31 35 33 45 38 80 F8  FF FF 7F F8 FF FF 7F 73  s153E8.........s
1090: 31 35 34 02 80 4A 2C 83  05 01 F0 FF FF 7F 1C 25  154..J,........%
10A0: 80 66 C0 80 2C 83 05 01  2C 83 05 01 74 6C 6B 30  .f..,...,...tlk0
10B0: 2B 2C 83 05 01 C7 80 23  66 C0 80 2C 83 05 01 2C  +,.....#f..,...,
10C0: 83 05 01 74 6C 6B 31 52  38 80 F8 FF FF 7F F8 FF  ...tlk1R8.......
10D0: FF 7F 73 31 35 34 45 38  80 F8 FF FF 7F F8 FF FF  ..s154E8........
10E0: 7F 73 31 35 35 02 80 29  05 2D 83 05 01 03 29 05  .s155..).-....).
10F0: 2E 83 05 01 03 29 05 2F  83 05 01 03 29 05 30 83  .....)./....).0.
1100: 05 01 03 BA 2D 83 05 01  95 80 96 80 97 80 C8 80  ....-...........
1110: BA 2E 83 05 01 99 80 9A  80 97 80 C9 80 BA 2F 83  ............../.
1120: 05 01 CA 80 CB 80 CC 80  CD 80 BA 30 83 05 01 CE  ...........0....
1130: 80 CF 80 D0 80 D1 80 BA  31 83 05 01 D2 80 D3 80  ........1.......
1140: D4 80 84 80 80 2D 83 05  01 80 2E 83 05 01 80 2F  .....-........./
1150: 83 05 01 80 30 83 05 01  80 31 83 05 01 1C 05 80  ....0....1......
1160: 27 05 2C 83 05 01 05 4E  01 32 83 05 01 4E 01 33  '.,....N.2...N.3
1170: 83 05 01 4E 01 34 83 05  01 4E 01 35 83 05 01 2A  ...N.4...N.5...*
1180: 05 2C 83 05 01 1C 05 80  27 05 2C 83 05 01 06 1C  .,......'.,.....
1190: 25 80 52 38 80 F8 FF FF  7F F8 FF FF 7F 73 31 35  %.R8.........s15
11A0: 35 45 38 80 F8 FF FF 7F  F8 FF FF 7F 73 31 35 36  5E8.........s156
11B0: 02 80 1C 4E 80 5D 02 80  4E 80 45 01 80 F8 FF FF  ...N.]..N.E.....
11C0: 7F F8 FF FF 7F 66 64 6F  31 02 80 55 01 80 F8 FF  .....fdo1..U....
11D0: FF 7F F8 FF FF 7F 66 64  6F 31 52 38 80 F8 FF FF  ......fdo1R8....
11E0: 7F F8 FF FF 7F 73 31 35  36 5C 00 5C 80 5C 01 5C  .....s156\.\.\.\
11F0: 80 9A 46 00 1C 05 80 45  01 80 F8 FF FF 7F F8 FF  ..F....E........
1200: FF 7F 66 64 69 31 02 80  21 00                    ..fdi1..!.      
```

#### Opcodes

```
  0: 0x0804 [0x42] SET_CLI_EVENT_CANCEL_DATA()
  1: 0x0805 [0x5D] SET_MUSIC_VOLUME(volume=0*, fade_time=120*)
  2: 0x080A [0x45] LOAD_SCHEDULED_TASK: Load scheduler "fdo1" with entities [EventEntity, EventEntity], work=[200*, 0*]
  3: 0x081B [0x55] WAIT_LOAD_SCHEDULER: Wait for scheduler "fdo1" with entities [EventEntity, EventEntity], work=200*
  4: 0x082A [0x46] CAMERA_CONTROL: Disable user control
  5: 0x082C [0x38] SET_CLIENT_EVENT_MODE(mode=27*)
  6: 0x082F [0x92] Zazarg (ID: 17138476/0x0105832C)->Render.Flags3 ^= 0x01
  7: 0x0835 [0x92] Unnamed NPC (ID: 17138477/0x0105832D)->Render.Flags3 ^= 0x01
  8: 0x083B [0x92] Unnamed NPC (ID: 17138478/0x0105832E)->Render.Flags3 ^= 0x01
  9: 0x0841 [0x92] Unnamed NPC (ID: 17138479/0x0105832F)->Render.Flags3 ^= 0x01
 10: 0x0847 [0x92] Unnamed NPC (ID: 17138480/0x01058330)->Render.Flags3 ^= 0x01
 11: 0x084D [0x2F] Zazarg (ID: 17138476/0x0105832C)->Render.Flags0 &= ~0x80000 // Bit 19
 12: 0x0853 [0x2F] Unnamed NPC (ID: 17138477/0x0105832D)->Render.Flags0 &= ~0x80000 // Bit 19
 13: 0x0859 [0x2F] Unnamed NPC (ID: 17138478/0x0105832E)->Render.Flags0 &= ~0x80000 // Bit 19
 14: 0x085F [0x2F] Unnamed NPC (ID: 17138479/0x0105832F)->Render.Flags0 &= ~0x80000 // Bit 19
 15: 0x0865 [0x2F] Unnamed NPC (ID: 17138480/0x01058330)->Render.Flags0 &= ~0x80000 // Bit 19
 16: 0x086B [0x2F] Unnamed NPC (ID: 17138472/0x01058328)->Render.Flags0 &= ~0x80000 // Bit 19
 17: 0x0871 [0x4E] SET_ENTITY_HIDE_FLAG: Show Unnamed NPC (ID: 17138472/0x01058328)
 18: 0x0877 [0x4E] SET_ENTITY_HIDE_FLAG: Show Zazarg (ID: 17138476/0x0105832C)
 19: 0x087D [0x4E] SET_ENTITY_HIDE_FLAG: Show Unnamed NPC (ID: 17138477/0x0105832D)
 20: 0x0883 [0x4E] SET_ENTITY_HIDE_FLAG: Show Unnamed NPC (ID: 17138478/0x0105832E)
 21: 0x0889 [0x4E] SET_ENTITY_HIDE_FLAG: Show Unnamed NPC (ID: 17138479/0x0105832F)
 22: 0x088F [0x4E] SET_ENTITY_HIDE_FLAG: Show Unnamed NPC (ID: 17138480/0x01058330)
 23: 0x0895 [0xBA] SET_ENTITY_POSITION(entity_id=Unnamed NPC (ID: 17138472/0x01058328), pos_x=-506.033*, pos_z=566.068*, pos_y=38.869*, direction=55.6°*)
 24: 0x08A2 [0xBA] SET_ENTITY_POSITION(entity_id=Zazarg (ID: 17138476/0x0105832C), pos_x=-484.256*, pos_z=544.115*, pos_y=39.351*, direction=218.2°*)
 25: 0x08AF [0xBA] SET_ENTITY_POSITION(entity_id=Unnamed NPC (ID: 17138477/0x0105832D), pos_x=-484.073*, pos_z=540.389*, pos_y=38.821*, direction=218.2°*)
 26: 0x08BC [0xBA] SET_ENTITY_POSITION(entity_id=Unnamed NPC (ID: 17138478/0x0105832E), pos_x=-483.204*, pos_z=541.652*, pos_y=39.149*, direction=218.2°*)
 27: 0x08C9 [0xBA] SET_ENTITY_POSITION(entity_id=Unnamed NPC (ID: 17138479/0x0105832F), pos_x=-481.700*, pos_z=543.770*, pos_y=39.692*, direction=218.2°*)
 28: 0x08D6 [0xBA] SET_ENTITY_POSITION(entity_id=Unnamed NPC (ID: 17138480/0x01058330), pos_x=-480.529*, pos_z=545.090*, pos_y=39.911*, direction=218.2°*)
 29: 0x08E3 [0xBA] SET_ENTITY_POSITION(entity_id=LocalPlayer, pos_x=-511.040*, pos_z=570.831*, pos_y=38.603*, direction=234.0°*)
 30: 0x08F0 [0x7E] CHOCOBO_MOUNT: Mode 6 (custom mount) on Zazarg (ID: 17138476/0x0105832C)
 31: 0x0902 [0x7E] CHOCOBO_MOUNT: Mode 4 on Zazarg (ID: 17138476/0x0105832C)
 32: 0x0908 [0x7E] CHOCOBO_MOUNT: Mode 6 (custom mount) on Unnamed NPC (ID: 17138477/0x0105832D)
 33: 0x091A [0x7E] CHOCOBO_MOUNT: Mode 4 on Unnamed NPC (ID: 17138477/0x0105832D)
 34: 0x0920 [0x7E] CHOCOBO_MOUNT: Mode 6 (custom mount) on Unnamed NPC (ID: 17138478/0x0105832E)
 35: 0x0932 [0x7E] CHOCOBO_MOUNT: Mode 4 on Unnamed NPC (ID: 17138478/0x0105832E)
 36: 0x0938 [0x7E] CHOCOBO_MOUNT: Mode 6 (custom mount) on Unnamed NPC (ID: 17138479/0x0105832F)
 37: 0x094A [0x7E] CHOCOBO_MOUNT: Mode 4 on Unnamed NPC (ID: 17138479/0x0105832F)
 38: 0x0950 [0x7E] CHOCOBO_MOUNT: Mode 6 (custom mount) on Unnamed NPC (ID: 17138480/0x01058330)
 39: 0x0962 [0x7E] CHOCOBO_MOUNT: Mode 4 on Unnamed NPC (ID: 17138480/0x01058330)
 40: 0x0968 [0x80] LOAD_WAIT(entity=LocalPlayer)
 41: 0x096D [0x80] LOAD_WAIT(entity=Unnamed NPC (ID: 17138472/0x01058328))
 42: 0x0972 [0x80] LOAD_WAIT(entity=Zazarg (ID: 17138476/0x0105832C))
 43: 0x0977 [0x80] LOAD_WAIT(entity=Unnamed NPC (ID: 17138477/0x0105832D))
 44: 0x097C [0x80] LOAD_WAIT(entity=Unnamed NPC (ID: 17138478/0x0105832E))
 45: 0x0981 [0x80] LOAD_WAIT(entity=Unnamed NPC (ID: 17138479/0x0105832F))
 46: 0x0986 [0x80] LOAD_WAIT(entity=Unnamed NPC (ID: 17138480/0x01058330))
 47: 0x098B [0x27] REQ_SET(priority=0x05, entity_id=Unnamed NPC (ID: 17138472/0x01058328), tag_num=0x02)
 48: 0x0992 [0x45] LOAD_SCHEDULED_TASK: Load scheduler "s140" with entities [EventEntity, EventEntity], work=[331*, 0*]
 49: 0x09A3 [0x1C] WAIT(15* ticks)
 50: 0x09A6 [0x45] LOAD_SCHEDULED_TASK: Load scheduler "fdi1" with entities [EventEntity, EventEntity], work=[200*, 0*]
 51: 0x09B7 [0x55] WAIT_LOAD_SCHEDULER: Wait for scheduler "fdi1" with entities [EventEntity, EventEntity], work=200*
 52: 0x09C6 [0x2A] GET_REQ_LEVEL(level=5, entity_id=Unnamed NPC (ID: 17138472/0x01058328))
 53: 0x09CC [0x4A] LocalPlayer looks at Unnamed NPC (ID: 17138472/0x01058328)
 54: 0x09D5 [0x1C] WAIT(60* ticks)
 55: 0x09D8 [0x52] END_LOAD_SCHEDULER: End scheduler "s140" with entities [EventEntity, EventEntity], work=331*
 56: 0x09E7 [0x45] LOAD_SCHEDULED_TASK: Load scheduler "s141" with entities [EventEntity, EventEntity], work=[331*, 0*]
 57: 0x09F8 [0x55] WAIT_LOAD_SCHEDULER: Wait for scheduler "s141" with entities [EventEntity, EventEntity], work=331*
 58: 0x0A07 [0x1C] WAIT(30* ticks)
 59: 0x0A0A [0x02] IF !(LocalPlayer->Race == 3*) GOTO 0x0A26
 60: 0x0A12 [0x45] LOAD_SCHEDULED_TASK: Load scheduler "s147" with entities [EventEntity, EventEntity], work=[331*, 0*]
 61: 0x0A23 [0x01] GOTO 0x0AA7
 62: 0x0A26 [0x02] IF !(LocalPlayer->Race == 4*) GOTO 0x0A42
 63: 0x0A2E [0x45] LOAD_SCHEDULED_TASK: Load scheduler "s147" with entities [EventEntity, EventEntity], work=[331*, 0*]
 64: 0x0A3F [0x01] GOTO 0x0AA7
 65: 0x0A42 [0x02] IF !(LocalPlayer->Race == 5*) GOTO 0x0A5E
 66: 0x0A4A [0x45] LOAD_SCHEDULED_TASK: Load scheduler "s148" with entities [EventEntity, EventEntity], work=[331*, 0*]
 67: 0x0A5B [0x01] GOTO 0x0AA7
 68: 0x0A5E [0x02] IF !(LocalPlayer->Race == 6*) GOTO 0x0A7A
 69: 0x0A66 [0x45] LOAD_SCHEDULED_TASK: Load scheduler "s148" with entities [EventEntity, EventEntity], work=[331*, 0*]
 70: 0x0A77 [0x01] GOTO 0x0AA7
 71: 0x0A7A [0x02] IF !(LocalPlayer->Race == 8*) GOTO 0x0A96
 72: 0x0A82 [0x45] LOAD_SCHEDULED_TASK: Load scheduler "s147" with entities [EventEntity, EventEntity], work=[331*, 0*]
 73: 0x0A93 [0x01] GOTO 0x0AA7
 74: 0x0A96 [0x45] LOAD_SCHEDULED_TASK: Load scheduler "s142" with entities [EventEntity, EventEntity], work=[331*, 0*]

SUBROUTINE_0AA7:
 75: 0x0AA7 [0x1C] WAIT(120* ticks)
 76: 0x0AAA [0x52] END_LOAD_SCHEDULER: End scheduler "s142" with entities [EventEntity, EventEntity], work=331*
 77: 0x0AB9 [0x45] LOAD_SCHEDULED_TASK: Load scheduler "s143" with entities [EventEntity, EventEntity], work=[331*, 0*]
 78: 0x0ACA [0x1C] WAIT(120* ticks)
 79: 0x0ACD [0x52] END_LOAD_SCHEDULER: End scheduler "s143" with entities [EventEntity, EventEntity], work=331*
 80: 0x0ADC [0x45] LOAD_SCHEDULED_TASK: Load scheduler "s144" with entities [EventEntity, EventEntity], work=[331*, 0*]
 81: 0x0AED [0x5B] LOAD_EXT_SCHEDULER: Load scheduler "esc0" with entities [Unnamed NPC (ID: 17138472/0x01058328), Unnamed NPC (ID: 17138472/0x01058328)], work=1318*
 82: 0x0AFC [0x1C] WAIT(30* ticks)
 83: 0x0AFF [0x45] LOAD_SCHEDULED_TASK: Load scheduler "foot" with entities [EventEntity, EventEntity], work=[331*, 0*]
 84: 0x0B10 [0x1C] WAIT(100* ticks)
 85: 0x0B13 [0x52] END_LOAD_SCHEDULER: End scheduler "s144" with entities [EventEntity, EventEntity], work=331*
 86: 0x0B22 [0x45] LOAD_SCHEDULED_TASK: Load scheduler "s219" with entities [EventEntity, EventEntity], work=[331*, 0*]
 87: 0x0B33 [0x1C] WAIT(30* ticks)
 88: 0x0B36 [0x45] LOAD_SCHEDULED_TASK: Load scheduler "s225" with entities [EventEntity, EventEntity], work=[331*, 0*]
 89: 0x0B47 [0x6E] LocalPlayer uses emote 21*
 90: 0x0B4E [0x99] Wait for LocalPlayer animation to complete
 91: 0x0B53 [0x53] WAIT_SCHEDULER_TASK: Wait for scheduler "esc0" with entities [Unnamed NPC (ID: 17138472/0x01058328), Unnamed NPC (ID: 17138472/0x01058328)]
 92: 0x0B60 [0x5C] MUSIC_CONTROL: Set Idle (Day) music to song 120*
 93: 0x0B64 [0x5C] MUSIC_CONTROL: Set Idle (Night) music to song 120*
 94: 0x0B68 [0x9A] WAIT_MUSIC_SERVER()
 95: 0x0B69 [0x27] REQ_SET(priority=0x05, entity_id=Zazarg (ID: 17138476/0x0105832C), tag_num=0x02)
 96: 0x0B70 [0x27] REQ_SET(priority=0x05, entity_id=Unnamed NPC (ID: 17138477/0x0105832D), tag_num=0x02)
 97: 0x0B77 [0x27] REQ_SET(priority=0x05, entity_id=Unnamed NPC (ID: 17138478/0x0105832E), tag_num=0x02)
 98: 0x0B7E [0x27] REQ_SET(priority=0x05, entity_id=Unnamed NPC (ID: 17138479/0x0105832F), tag_num=0x02)
 99: 0x0B85 [0x27] REQ_SET(priority=0x05, entity_id=Unnamed NPC (ID: 17138480/0x01058330), tag_num=0x02)
100: 0x0B8C [0x1C] WAIT(30* ticks)
101: 0x0B8F [0x52] END_LOAD_SCHEDULER: End scheduler "s219" with entities [EventEntity, EventEntity], work=331*
102: 0x0B9E [0x45] LOAD_SCHEDULED_TASK: Load scheduler "s145" with entities [EventEntity, EventEntity], work=[331*, 0*]
103: 0x0BAF [0x6B] STOP_AND_IDLE: Unnamed NPC (ID: 17138472/0x01058328) stops current action and resets to idle (animation="idl0")
104: 0x0BB8 [0xBA] SET_ENTITY_POSITION(entity_id=Unnamed NPC (ID: 17138472/0x01058328), pos_x=-504.008*, pos_z=563.928*, pos_y=39.164*, direction=42.9°*)
105: 0x0BC5 [0x80] LOAD_WAIT(entity=Unnamed NPC (ID: 17138472/0x01058328))
106: 0x0BCA [0x2B] ??? (ID: 17138490/0x0105833A) [7922*]:
    → "Stop right there! I think you have something of mine!"
107: 0x0BD1 [0x23] WAIT_FOR_DIALOG_INTERACTION
108: 0x0BD2 [0x2A] GET_REQ_LEVEL(level=5, entity_id=Zazarg (ID: 17138476/0x0105832C))
109: 0x0BD8 [0x2A] GET_REQ_LEVEL(level=5, entity_id=Unnamed NPC (ID: 17138477/0x0105832D))
110: 0x0BDE [0x2A] GET_REQ_LEVEL(level=5, entity_id=Unnamed NPC (ID: 17138478/0x0105832E))
111: 0x0BE4 [0x2A] GET_REQ_LEVEL(level=5, entity_id=Unnamed NPC (ID: 17138479/0x0105832F))
112: 0x0BEA [0x2A] GET_REQ_LEVEL(level=5, entity_id=Unnamed NPC (ID: 17138480/0x01058330))
113: 0x0BF0 [0x55] WAIT_LOAD_SCHEDULER: Wait for scheduler "s145" with entities [EventEntity, EventEntity], work=331*
114: 0x0BFF [0x45] LOAD_SCHEDULED_TASK: Load scheduler "s223" with entities [EventEntity, EventEntity], work=[331*, 0*]
115: 0x0C10 [0x7E] CHOCOBO_MOUNT: Dismount Zazarg (ID: 17138476/0x0105832C) (status = 0)
116: 0x0C16 [0x2F] Unnamed NPC (ID: 17138481/0x01058331)->Render.Flags0 &= ~0x80000 // Bit 19
117: 0x0C1C [0x4E] SET_ENTITY_HIDE_FLAG: Show Unnamed NPC (ID: 17138481/0x01058331)
118: 0x0C22 [0xBA] SET_ENTITY_POSITION(entity_id=Unnamed NPC (ID: 17138481/0x01058331), pos_x=-495.769*, pos_z=556.273*, pos_y=39.236*, direction=335.5°*)
119: 0x0C2F [0xBA] SET_ENTITY_POSITION(entity_id=Unnamed NPC (ID: 17138479/0x0105832F), pos_x=-490.332*, pos_z=555.143*, pos_y=39.323*, direction=42.9°*)
120: 0x0C3C [0xBA] SET_ENTITY_POSITION(entity_id=Unnamed NPC (ID: 17138480/0x01058330), pos_x=-488.470*, pos_z=555.995*, pos_y=39.723*, direction=42.9°*)
121: 0x0C49 [0xBA] SET_ENTITY_POSITION(entity_id=Zazarg (ID: 17138476/0x0105832C), pos_x=-499.854*, pos_z=559.860*, pos_y=39.956*, direction=220.0°*)
122: 0x0C56 [0x80] LOAD_WAIT(entity=Unnamed NPC (ID: 17138481/0x01058331))
123: 0x0C5B [0x80] LOAD_WAIT(entity=Zazarg (ID: 17138476/0x0105832C))
124: 0x0C60 [0x4A] Unnamed NPC (ID: 17138479/0x0105832F) looks at Unnamed NPC (ID: 17138472/0x01058328)
125: 0x0C69 [0x4A] Unnamed NPC (ID: 17138480/0x01058330) looks at Unnamed NPC (ID: 17138472/0x01058328)
126: 0x0C72 [0x55] WAIT_LOAD_SCHEDULER: Wait for scheduler "s223" with entities [EventEntity, EventEntity], work=331*
127: 0x0C81 [0x1C] WAIT(30* ticks)
128: 0x0C84 [0x5B] LOAD_EXT_SCHEDULER: Load scheduler "za00" with entities [Zazarg (ID: 17138476/0x0105832C), Zazarg (ID: 17138476/0x0105832C)], work=1281*
129: 0x0C93 [0x45] LOAD_SCHEDULED_TASK: Load scheduler "s157" with entities [EventEntity, EventEntity], work=[331*, 0*]
130: 0x0CA4 [0x4A] Unnamed NPC (ID: 17138472/0x01058328) looks at Zazarg (ID: 17138476/0x0105832C)
131: 0x0CAD [0x7B] Unnamed NPC (ID: 17138472/0x01058328) stops talking
132: 0x0CB2 [0x1C] WAIT(180* ticks)
133: 0x0CB5 [0x52] END_LOAD_SCHEDULER: End scheduler "s157" with entities [EventEntity, EventEntity], work=331*
134: 0x0CC4 [0x45] LOAD_SCHEDULED_TASK: Load scheduler "s222" with entities [EventEntity, EventEntity], work=[331*, 0*]
135: 0x0CD5 [0x1C] WAIT(120* ticks)
136: 0x0CD8 [0x52] END_LOAD_SCHEDULER: End scheduler "s222" with entities [EventEntity, EventEntity], work=331*
137: 0x0CE7 [0x45] LOAD_SCHEDULED_TASK: Load scheduler "s146" with entities [EventEntity, EventEntity], work=[331*, 0*]
138: 0x0CF8 [0x27] REQ_SET(priority=0x05, entity_id=Unnamed NPC (ID: 17138472/0x01058328), tag_num=0x04)
139: 0x0CFF [0x2B] Zazarg (ID: 17138476/0x0105832C) [7923*]:
    → "Now we can play nice, and you can hand it over, or we can play...rough. Your choice, turtleback."
140: 0x0D06 [0x23] WAIT_FOR_DIALOG_INTERACTION
141: 0x0D07 [0x2A] GET_REQ_LEVEL(level=5, entity_id=Unnamed NPC (ID: 17138472/0x01058328))
142: 0x0D0D [0x45] LOAD_SCHEDULED_TASK: Load scheduler "fdo1" with entities [EventEntity, EventEntity], work=[200*, 0*]
143: 0x0D1E [0x55] WAIT_LOAD_SCHEDULER: Wait for scheduler "fdo1" with entities [EventEntity, EventEntity], work=200*
144: 0x0D2D [0x52] END_LOAD_SCHEDULER: End scheduler "s146" with entities [EventEntity, EventEntity], work=331*
145: 0x0D3C [0x7E] CHOCOBO_MOUNT: Dismount Zazarg (ID: 17138476/0x0105832C) (status = 0)
146: 0x0D42 [0x7E] CHOCOBO_MOUNT: Dismount Unnamed NPC (ID: 17138477/0x0105832D) (status = 0)
147: 0x0D48 [0x7E] CHOCOBO_MOUNT: Dismount Unnamed NPC (ID: 17138478/0x0105832E) (status = 0)
148: 0x0D4E [0x7E] CHOCOBO_MOUNT: Dismount Unnamed NPC (ID: 17138479/0x0105832F) (status = 0)
149: 0x0D54 [0x7E] CHOCOBO_MOUNT: Dismount Unnamed NPC (ID: 17138480/0x01058330) (status = 0)
150: 0x0D5A [0x2F] Unnamed NPC (ID: 17138482/0x01058332)->Render.Flags0 &= ~0x80000 // Bit 19
151: 0x0D60 [0x4E] SET_ENTITY_HIDE_FLAG: Show Unnamed NPC (ID: 17138482/0x01058332)
152: 0x0D66 [0x2F] Unnamed NPC (ID: 17138483/0x01058333)->Render.Flags0 &= ~0x80000 // Bit 19
153: 0x0D6C [0x4E] SET_ENTITY_HIDE_FLAG: Show Unnamed NPC (ID: 17138483/0x01058333)
154: 0x0D72 [0x2F] Unnamed NPC (ID: 17138484/0x01058334)->Render.Flags0 &= ~0x80000 // Bit 19
155: 0x0D78 [0x4E] SET_ENTITY_HIDE_FLAG: Show Unnamed NPC (ID: 17138484/0x01058334)
156: 0x0D7E [0x2F] Unnamed NPC (ID: 17138485/0x01058335)->Render.Flags0 &= ~0x80000 // Bit 19
157: 0x0D84 [0x4E] SET_ENTITY_HIDE_FLAG: Show Unnamed NPC (ID: 17138485/0x01058335)
158: 0x0D8A [0xBA] SET_ENTITY_POSITION(entity_id=Unnamed NPC (ID: 17138481/0x01058331), pos_x=-488.756*, pos_z=558.781*, pos_y=39.938*, direction=208.7°*)
159: 0x0D97 [0xBA] SET_ENTITY_POSITION(entity_id=Unnamed NPC (ID: 17138482/0x01058332), pos_x=-486.713*, pos_z=559.559*, pos_y=39.999*, direction=182.7°*)
160: 0x0DA4 [0xBA] SET_ENTITY_POSITION(entity_id=Unnamed NPC (ID: 17138483/0x01058333), pos_x=-485.683*, pos_z=557.912*, pos_y=39.999*, direction=182.7°*)
161: 0x0DB1 [0xBA] SET_ENTITY_POSITION(entity_id=Unnamed NPC (ID: 17138484/0x01058334), pos_x=-487.708*, pos_z=556.471*, pos_y=39.823*, direction=202.8°*)
162: 0x0DBE [0xBA] SET_ENTITY_POSITION(entity_id=Unnamed NPC (ID: 17138485/0x01058335), pos_x=-485.947*, pos_z=556.434*, pos_y=39.922*, direction=203.9°*)
163: 0x0DCB [0xBA] SET_ENTITY_POSITION(entity_id=LocalPlayer, pos_x=-506.481*, pos_z=559.462*, pos_y=39.942*, direction=342.8°*)
164: 0x0DD8 [0xBA] SET_ENTITY_POSITION(entity_id=Unnamed NPC (ID: 17138472/0x01058328), pos_x=-500.425*, pos_z=559.042*, pos_y=39.846*, direction=55.6°*)
165: 0x0DE5 [0x80] LOAD_WAIT(entity=Unnamed NPC (ID: 17138481/0x01058331))
166: 0x0DEA [0x80] LOAD_WAIT(entity=Unnamed NPC (ID: 17138482/0x01058332))
167: 0x0DEF [0x80] LOAD_WAIT(entity=Unnamed NPC (ID: 17138483/0x01058333))
168: 0x0DF4 [0x80] LOAD_WAIT(entity=Unnamed NPC (ID: 17138484/0x01058334))
169: 0x0DF9 [0x80] LOAD_WAIT(entity=Unnamed NPC (ID: 17138485/0x01058335))
170: 0x0DFE [0x80] LOAD_WAIT(entity=LocalPlayer)
171: 0x0E03 [0x80] LOAD_WAIT(entity=Unnamed NPC (ID: 17138472/0x01058328))
172: 0x0E08 [0xBA] SET_ENTITY_POSITION(entity_id=Zazarg (ID: 17138476/0x0105832C), pos_x=-495.413*, pos_z=559.503*, pos_y=39.915*, direction=195.5°*)
173: 0x0E15 [0xBA] SET_ENTITY_POSITION(entity_id=Unnamed NPC (ID: 17138477/0x0105832D), pos_x=-493.556*, pos_z=556.530*, pos_y=39.408*, direction=208.6°*)
174: 0x0E22 [0xBA] SET_ENTITY_POSITION(entity_id=Unnamed NPC (ID: 17138478/0x0105832E), pos_x=-492.932*, pos_z=557.736*, pos_y=39.649*, direction=202.0°*)
175: 0x0E2F [0xBA] SET_ENTITY_POSITION(entity_id=Unnamed NPC (ID: 17138479/0x0105832F), pos_x=-492.547*, pos_z=560.602*, pos_y=39.935*, direction=199.4°*)
176: 0x0E3C [0xBA] SET_ENTITY_POSITION(entity_id=Unnamed NPC (ID: 17138480/0x01058330), pos_x=-492.466*, pos_z=561.668*, pos_y=39.829*, direction=5.3°*)
177: 0x0E49 [0x80] LOAD_WAIT(entity=Zazarg (ID: 17138476/0x0105832C))
178: 0x0E4E [0x80] LOAD_WAIT(entity=Unnamed NPC (ID: 17138477/0x0105832D))
179: 0x0E53 [0x80] LOAD_WAIT(entity=Unnamed NPC (ID: 17138478/0x0105832E))
180: 0x0E58 [0x80] LOAD_WAIT(entity=Unnamed NPC (ID: 17138479/0x0105832F))
181: 0x0E5D [0x80] LOAD_WAIT(entity=Unnamed NPC (ID: 17138480/0x01058330))
182: 0x0E62 [0x4A] Zazarg (ID: 17138476/0x0105832C) looks at Unnamed NPC (ID: 17138472/0x01058328)
183: 0x0E6B [0x4A] Unnamed NPC (ID: 17138477/0x0105832D) looks at Unnamed NPC (ID: 17138472/0x01058328)
184: 0x0E74 [0x4A] Unnamed NPC (ID: 17138478/0x0105832E) looks at Unnamed NPC (ID: 17138472/0x01058328)
185: 0x0E7D [0x4A] Unnamed NPC (ID: 17138479/0x0105832F) looks at Unnamed NPC (ID: 17138472/0x01058328)
186: 0x0E86 [0x4A] Unnamed NPC (ID: 17138480/0x01058330) looks at Unnamed NPC (ID: 17138472/0x01058328)
187: 0x0E8F [0x4A] LocalPlayer looks at Unnamed NPC (ID: 17138472/0x01058328)
188: 0x0E98 [0x4A] Unnamed NPC (ID: 17138472/0x01058328) looks at Zazarg (ID: 17138476/0x0105832C)
189: 0x0EA1 [0x7B] Unnamed NPC (ID: 17138472/0x01058328) stops talking
190: 0x0EA6 [0x7B] Zazarg (ID: 17138476/0x0105832C) stops talking
191: 0x0EAB [0x7B] Unnamed NPC (ID: 17138477/0x0105832D) stops talking
192: 0x0EB0 [0x7B] Unnamed NPC (ID: 17138478/0x0105832E) stops talking
193: 0x0EB5 [0x7B] Unnamed NPC (ID: 17138479/0x0105832F) stops talking
194: 0x0EBA [0x7B] Unnamed NPC (ID: 17138480/0x01058330) stops talking
195: 0x0EBF [0x45] LOAD_SCHEDULED_TASK: Load scheduler "doka" with entities [EventEntity, EventEntity], work=[331*, 0*]
196: 0x0ED0 [0x1C] WAIT(120* ticks)
197: 0x0ED3 [0x2C] CREATE_SCHEDULER_TASK: Create scheduler "dead" with entities [Unnamed NPC (ID: 17138472/0x01058328), Unnamed NPC (ID: 17138472/0x01058328)]
198: 0x0EE0 [0x53] WAIT_SCHEDULER_TASK: Wait for scheduler "dead" with entities [Unnamed NPC (ID: 17138472/0x01058328), Unnamed NPC (ID: 17138472/0x01058328)]
199: 0x0EED [0x5B] LOAD_EXT_SCHEDULER: Load scheduler "spla" with entities [Zazarg (ID: 17138476/0x0105832C), Zazarg (ID: 17138476/0x0105832C)], work=1330*
200: 0x0EFC [0x45] LOAD_SCHEDULED_TASK: Load scheduler "s149" with entities [EventEntity, EventEntity], work=[331*, 0*]
201: 0x0F0D [0x1C] WAIT(15* ticks)
202: 0x0F10 [0x45] LOAD_SCHEDULED_TASK: Load scheduler "fdi1" with entities [EventEntity, EventEntity], work=[200*, 0*]
203: 0x0F21 [0x55] WAIT_LOAD_SCHEDULER: Wait for scheduler "fdi1" with entities [EventEntity, EventEntity], work=200*
204: 0x0F30 [0x1C] WAIT(120* ticks)
205: 0x0F33 [0x5B] LOAD_EXT_SCHEDULER: Load scheduler "bsq0" with entities [Zazarg (ID: 17138476/0x0105832C), Zazarg (ID: 17138476/0x0105832C)], work=1281*
206: 0x0F42 [0x52] END_LOAD_SCHEDULER: End scheduler "s149" with entities [EventEntity, EventEntity], work=331*
207: 0x0F51 [0x45] LOAD_SCHEDULED_TASK: Load scheduler "s221" with entities [EventEntity, EventEntity], work=[331*, 0*]
208: 0x0F62 [0x1C] WAIT(60* ticks)
209: 0x0F65 [0x2B] Zazarg (ID: 17138476/0x0105832C) [7924*]:
    → "Hmph. He chose...poorly."
210: 0x0F6C [0x23] WAIT_FOR_DIALOG_INTERACTION
211: 0x0F6D [0x53] WAIT_SCHEDULER_TASK: Wait for scheduler "bsq0" with entities [Zazarg (ID: 17138476/0x0105832C), Zazarg (ID: 17138476/0x0105832C)]
212: 0x0F7A [0x52] END_LOAD_SCHEDULER: End scheduler "s221" with entities [EventEntity, EventEntity], work=331*
213: 0x0F89 [0x45] LOAD_SCHEDULED_TASK: Load scheduler "s150" with entities [EventEntity, EventEntity], work=[331*, 0*]
214: 0x0F9A [0x27] REQ_SET(priority=0x05, entity_id=Zazarg (ID: 17138476/0x0105832C), tag_num=0x04)
215: 0x0FA1 [0x2B] Zazarg (ID: 17138476/0x0105832C) [7925*]:
    → "Now for the communication..."
216: 0x0FA8 [0x23] WAIT_FOR_DIALOG_INTERACTION
217: 0x0FA9 [0x2A] GET_REQ_LEVEL(level=5, entity_id=Zazarg (ID: 17138476/0x0105832C))
218: 0x0FAF [0x52] END_LOAD_SCHEDULER: End scheduler "s150" with entities [EventEntity, EventEntity], work=331*
219: 0x0FBE [0x45] LOAD_SCHEDULED_TASK: Load scheduler "s151" with entities [EventEntity, EventEntity], work=[331*, 0*]
220: 0x0FCF [0x66] LOAD_EXT_SCHEDULER_MAIN: Load scheduler "sha0" with entities [Zazarg (ID: 17138476/0x0105832C), Zazarg (ID: 17138476/0x0105832C)], work=69*
221: 0x0FDE [0xBA] SET_ENTITY_POSITION(entity_id=LocalPlayer, pos_x=-504.865*, pos_z=559.456*, pos_y=39.941*, direction=21.2°*)
222: 0x0FEB [0x80] LOAD_WAIT(entity=LocalPlayer)
223: 0x0FF0 [0x53] WAIT_SCHEDULER_TASK: Wait for scheduler "sha0" with entities [Zazarg (ID: 17138476/0x0105832C), Zazarg (ID: 17138476/0x0105832C)]
224: 0x0FFD [0x52] END_LOAD_SCHEDULER: End scheduler "s151" with entities [EventEntity, EventEntity], work=331*
225: 0x100C [0x45] LOAD_SCHEDULED_TASK: Load scheduler "s152" with entities [EventEntity, EventEntity], work=[331*, 0*]
226: 0x101D [0x4A] LocalPlayer looks at Zazarg (ID: 17138476/0x0105832C)
227: 0x1026 [0x1C] WAIT(30* ticks)
228: 0x1029 [0x2B] Zazarg (ID: 17138476/0x0105832C) [7926*]:
    → "Excellent. It still seems to be in one piece."
229: 0x1030 [0x23] WAIT_FOR_DIALOG_INTERACTION
230: 0x1031 [0x52] END_LOAD_SCHEDULER: End scheduler "s152" with entities [EventEntity, EventEntity], work=331*
231: 0x1040 [0x45] LOAD_SCHEDULED_TASK: Load scheduler "s153" with entities [EventEntity, EventEntity], work=[331*, 0*]
232: 0x1051 [0x66] LOAD_EXT_SCHEDULER_MAIN: Load scheduler "sha1" with entities [Zazarg (ID: 17138476/0x0105832C), Zazarg (ID: 17138476/0x0105832C)], work=69*
233: 0x1060 [0x2B] Zazarg (ID: 17138476/0x0105832C) [7927*]:
    → "If this were to fall into the hands of their Elite Guard, we'd be paying for it in blood."
234: 0x1067 [0x23] WAIT_FOR_DIALOG_INTERACTION
235: 0x1068 [0x53] WAIT_SCHEDULER_TASK: Wait for scheduler "sha1" with entities [Zazarg (ID: 17138476/0x0105832C), Zazarg (ID: 17138476/0x0105832C)]
236: 0x1075 [0x52] END_LOAD_SCHEDULER: End scheduler "s153" with entities [EventEntity, EventEntity], work=331*
237: 0x1084 [0x45] LOAD_SCHEDULED_TASK: Load scheduler "s154" with entities [EventEntity, EventEntity], work=[331*, 0*]
238: 0x1095 [0x4A] Zazarg (ID: 17138476/0x0105832C) looks at LocalPlayer
239: 0x109E [0x1C] WAIT(30* ticks)
240: 0x10A1 [0x66] LOAD_EXT_SCHEDULER_MAIN: Load scheduler "tlk0" with entities [Zazarg (ID: 17138476/0x0105832C), Zazarg (ID: 17138476/0x0105832C)], work=69*
241: 0x10B0 [0x2B] Zazarg (ID: 17138476/0x0105832C) [7928*]:
    → "Thanks for your help, soldier. If it wasn't for you, I might not've been able to catch the turtle before he crawled back into his pond."
242: 0x10B7 [0x23] WAIT_FOR_DIALOG_INTERACTION
243: 0x10B8 [0x66] LOAD_EXT_SCHEDULER_MAIN: Load scheduler "tlk1" with entities [Zazarg (ID: 17138476/0x0105832C), Zazarg (ID: 17138476/0x0105832C)], work=69*
244: 0x10C7 [0x52] END_LOAD_SCHEDULER: End scheduler "s154" with entities [EventEntity, EventEntity], work=331*
245: 0x10D6 [0x45] LOAD_SCHEDULED_TASK: Load scheduler "s155" with entities [EventEntity, EventEntity], work=[331*, 0*]
246: 0x10E7 [0x29] REQ_SET_WAIT(priority=0x05, entity_id=Unnamed NPC (ID: 17138477/0x0105832D), tag_num=0x03)
247: 0x10EE [0x29] REQ_SET_WAIT(priority=0x05, entity_id=Unnamed NPC (ID: 17138478/0x0105832E), tag_num=0x03)
248: 0x10F5 [0x29] REQ_SET_WAIT(priority=0x05, entity_id=Unnamed NPC (ID: 17138479/0x0105832F), tag_num=0x03)
249: 0x10FC [0x29] REQ_SET_WAIT(priority=0x05, entity_id=Unnamed NPC (ID: 17138480/0x01058330), tag_num=0x03)
250: 0x1103 [0xBA] SET_ENTITY_POSITION(entity_id=Unnamed NPC (ID: 17138477/0x0105832D), pos_x=-486.713*, pos_z=559.559*, pos_y=39.999*, direction=175.8°*)
251: 0x1110 [0xBA] SET_ENTITY_POSITION(entity_id=Unnamed NPC (ID: 17138478/0x0105832E), pos_x=-485.683*, pos_z=557.912*, pos_y=39.999*, direction=193.4°*)
252: 0x111D [0xBA] SET_ENTITY_POSITION(entity_id=Unnamed NPC (ID: 17138479/0x0105832F), pos_x=-486.686*, pos_z=556.547*, pos_y=39.891*, direction=210.9°*)
253: 0x112A [0xBA] SET_ENTITY_POSITION(entity_id=Unnamed NPC (ID: 17138480/0x01058330), pos_x=-488.777*, pos_z=556.195*, pos_y=39.738*, direction=219.7°*)
254: 0x1137 [0xBA] SET_ENTITY_POSITION(entity_id=Unnamed NPC (ID: 17138481/0x01058331), pos_x=-488.192*, pos_z=557.945*, pos_y=39.886*, direction=335.5°*)
255: 0x1144 [0x80] LOAD_WAIT(entity=Unnamed NPC (ID: 17138477/0x0105832D))
256: 0x1149 [0x80] LOAD_WAIT(entity=Unnamed NPC (ID: 17138478/0x0105832E))
257: 0x114E [0x80] LOAD_WAIT(entity=Unnamed NPC (ID: 17138479/0x0105832F))
258: 0x1153 [0x80] LOAD_WAIT(entity=Unnamed NPC (ID: 17138480/0x01058330))
259: 0x1158 [0x80] LOAD_WAIT(entity=Unnamed NPC (ID: 17138481/0x01058331))
260: 0x115D [0x1C] WAIT(60* ticks)
261: 0x1160 [0x27] REQ_SET(priority=0x05, entity_id=Zazarg (ID: 17138476/0x0105832C), tag_num=0x05)
262: 0x1167 [0x4E] SET_ENTITY_HIDE_FLAG: Hide Unnamed NPC (ID: 17138482/0x01058332)
263: 0x116D [0x4E] SET_ENTITY_HIDE_FLAG: Hide Unnamed NPC (ID: 17138483/0x01058333)
264: 0x1173 [0x4E] SET_ENTITY_HIDE_FLAG: Hide Unnamed NPC (ID: 17138484/0x01058334)
265: 0x1179 [0x4E] SET_ENTITY_HIDE_FLAG: Hide Unnamed NPC (ID: 17138485/0x01058335)
266: 0x117F [0x2A] GET_REQ_LEVEL(level=5, entity_id=Zazarg (ID: 17138476/0x0105832C))
267: 0x1185 [0x1C] WAIT(60* ticks)
268: 0x1188 [0x27] REQ_SET(priority=0x05, entity_id=Zazarg (ID: 17138476/0x0105832C), tag_num=0x06)
269: 0x118F [0x1C] WAIT(30* ticks)
270: 0x1192 [0x52] END_LOAD_SCHEDULER: End scheduler "s155" with entities [EventEntity, EventEntity], work=331*
271: 0x11A1 [0x45] LOAD_SCHEDULED_TASK: Load scheduler "s156" with entities [EventEntity, EventEntity], work=[331*, 0*]
272: 0x11B2 [0x1C] WAIT(120* ticks)
273: 0x11B5 [0x5D] SET_MUSIC_VOLUME(volume=0*, fade_time=120*)
274: 0x11BA [0x45] LOAD_SCHEDULED_TASK: Load scheduler "fdo1" with entities [EventEntity, EventEntity], work=[200*, 0*]
275: 0x11CB [0x55] WAIT_LOAD_SCHEDULER: Wait for scheduler "fdo1" with entities [EventEntity, EventEntity], work=200*
276: 0x11DA [0x52] END_LOAD_SCHEDULER: End scheduler "s156" with entities [EventEntity, EventEntity], work=331*
277: 0x11E9 [0x5C] MUSIC_CONTROL: Set Idle (Day) music to song 253*
278: 0x11ED [0x5C] MUSIC_CONTROL: Set Idle (Night) music to song 253*
279: 0x11F1 [0x9A] WAIT_MUSIC_SERVER()
280: 0x11F2 [0x46] CAMERA_CONTROL: Restore default settings
281: 0x11F4 [0x1C] WAIT(60* ticks)
282: 0x11F7 [0x45] LOAD_SCHEDULED_TASK: Load scheduler "fdi1" with entities [EventEntity, EventEntity], work=[200*, 0*]
283: 0x1208 [0x21] END_EVENT
284: 0x1209 [0x00] END_REQSTACK()
```

### Event 1

#### Metadata

| Field        | Value      |
|--------------|------------|
| Entrypoint   | 0x120A     |
| Data Size    | 1146 bytes |
| Instructions | 124        |

```
      00 01 02 03 04 05 06 07  08 09 0A 0B 0C 0D 0E 0F
      -- -- -- -- -- -- -- --  -- -- -- -- -- -- -- --
1200:                                42 5D 02 80 4E 80            B]..N.
1210: 45 01 80 F8 FF FF 7F F8  FF FF 7F 66 64 6F 31 02  E..........fdo1.
1220: 80 55 01 80 F8 FF FF 7F  F8 FF FF 7F 66 64 6F 31  .U..........fdo1
1230: 46 01 38 33 80 92 01 36  83 05 01 92 01 37 83 05  F.83...6.....7..
1240: 01 92 01 38 83 05 01 92  01 39 83 05 01 2F 00 37  ...8.....9.../.7
1250: 83 05 01 4E 00 37 83 05  01 2F 00 38 83 05 01 2F  ...N.7.../.8.../
1260: 00 39 83 05 01 4E 00 37  83 05 01 4E 00 F0 FF FF  .9...N.7...N....
1270: 7F 4E 00 36 83 05 01 BA  37 83 05 01 D5 80 D6 80  .N.6....7.......
1280: D7 80 D8 80 BA 38 83 05  01 D9 80 DA 80 DB 80 DC  .....8..........
1290: 80 BA 39 83 05 01 DD 80  DE 80 DF 80 E0 80 BA F0  ..9.............
12A0: FF FF 7F E1 80 E2 80 E3  80 E4 80 80 37 83 05 01  ............7...
12B0: 80 F0 FF FF 7F 80 36 83  05 01 45 38 80 F8 FF FF  ......6...E8....
12C0: 7F F8 FF FF 7F 73 32 30  36 02 80 1C 39 80 45 01  .....s206...9.E.
12D0: 80 F8 FF FF 7F F8 FF FF  7F 66 64 69 31 02 80 29  .........fdi1..)
12E0: 05 F0 FF FF 7F 0E 1C 25  80 5B E5 80 37 83 05 01  .......%.[..7...
12F0: 37 83 05 01 62 73 30 30  52 38 80 F8 FF FF 7F F8  7...bs00R8......
1300: FF FF 7F 73 32 30 36 45  38 80 F8 FF FF 7F F8 FF  ...s206E8.......
1310: FF 7F 73 32 30 37 02 80  45 38 80 F8 FF FF 7F F8  ..s207..E8......
1320: FF FF 7F 79 6F 72 6F 02  80 4A F0 FF FF 7F 37 83  ...yoro..J....7.
1330: 05 01 1C 0F 80 52 38 80  F8 FF FF 7F F8 FF FF 7F  .....R8.........
1340: 73 32 30 37 45 38 80 F8  FF FF 7F F8 FF FF 7F 73  s207E8.........s
1350: 32 30 38 02 80 4A 36 83  05 01 37 83 05 01 1C E6  208..J6...7.....
