# Event 65535

## Metadata

| Field           | Value    |
|-----------------|----------|
| Event Index     | 8/10     |
| Offset          | 0x002E   |
| Data Size       | 47 bytes |
| Calculated Size | 47 bytes |
| Instructions    | 7        |

```
      00 01 02 03 04 05 06 07  08 09 0A 0B 0C 0D 0E 0F
      -- -- -- -- -- -- -- --  -- -- -- -- -- -- -- --
0020:                                            32 0C                2.
0030: 80 1F 00 0D 80 0E 80 0F  80 1F 01 CD 00 80 F8 A2  ................
0040: 08 01 F8 A2 08 01 73 30  30 31 10 80 1C 11 80 2C  ......s001.....,
0050: F4 A2 08 01 F4 A2 08 01  64 65 61 64 00           ........dead.   
```

## Opcodes

```
  0: 0x002E [0x32] ExtData[1]->MainSpeed = 45* * 0.1
  1: 0x0031 [0x1F] MOVE_ENTITY: EventEntity moves to X=-352.987*, Z=24.785*, Y=-35.156*
  2: 0x0039 [0x1F] MOVE_ENTITY: Update entity position (mode=1)
  3: 0x003B [0xCD] LOAD_SCHEDULED_TASK_ALT4(work_offset=13*, entity1=04 (ID: 17343224/0x0108A2F8), entity2=04 (ID: 17343224/0x0108A2F8), action="s001", work_offset2=0*)
  4: 0x004C [0x1C] WAIT(60* ticks)
  5: 0x004F [0x2C] CREATE_SCHEDULER_TASK: Create scheduler "dead" for entities [Bukadaemon6 (ID: 17343220/0x0108A2F4), Bukadaemon6 (ID: 17343220/0x0108A2F4)]
  6: 0x005C [0x00] END_REQSTACK()
```
