# Event 814

## Metadata

| Field           | Value    |
|-----------------|----------|
| Event Index     | 5/24     |
| Offset          | 0x0190   |
| Data Size       | 37 bytes |
| Calculated Size | 37 bytes |
| Instructions    | 13       |

```
      00 01 02 03 04 05 06 07  08 09 0A 0B 0C 0D 0E 0F
      -- -- -- -- -- -- -- --  -- -- -- -- -- -- -- --
0190: 1E F0 FF FF 7F 6F 70 1C  10 80 4B F8 FF FF 7F 12  .....op...K.....
01A0: 80 6F 70 6E F8 FF FF 7F  06 80 99 F8 FF FF 7F 1D  .opn............
01B0: 13 80 23 21 00                                    ..#!.           
```

## Opcodes

```
  0: 0x0190 [0x1E] EventEntity looks at LocalPlayer and starts talking
  1: 0x0195 [0x6F] WAIT_FRAME_DELAY: Yield until WaitTime reaches zero
  2: 0x0196 [0x70] WAIT_ENTITY_RENDER_FLAG: Wait while EventEntity->Render.Flags3 bit 2 is set (cancel turn if not)
  3: 0x0197 [0x1C] WAIT(30* ticks)
  4: 0x019A [0x4B] UPDATE_ENTITY_YAW(entity=EventEntity, yaw=5.81°*)
  5: 0x01A1 [0x6F] WAIT_FRAME_DELAY: Yield until WaitTime reaches zero
  6: 0x01A2 [0x70] WAIT_ENTITY_RENDER_FLAG: Wait while EventEntity->Render.Flags3 bit 2 is set (cancel turn if not)
  7: 0x01A3 [0x6E] EventEntity uses emote 0*
  8: 0x01AA [0x99] Wait for EventEntity animation to complete
  9: 0x01AF [0x1D] PRINT_EVENT_MESSAGE(message_id=13331*)
    → "Go talk to the guard Harara over yonder and have her cast \u00072Signet\u00073 on you. Then come back and see me.\u007F1\u0000\u0007"
 10: 0x01B2 [0x23] WAIT_FOR_DIALOG_INTERACTION
 11: 0x01B3 [0x21] END_EVENT
 12: 0x01B4 [0x00] END_REQSTACK()
```
