# Event 177

## Metadata

| Field           | Value    |
|-----------------|----------|
| Event Index     | 3/128    |
| Offset          | 0x003D   |
| Data Size       | 60 bytes |
| Calculated Size | 60 bytes |
| Instructions    | 10       |

```
      00 01 02 03 04 05 06 07  08 09 0A 0B 0C 0D 0E 0F
      -- -- -- -- -- -- -- --  -- -- -- -- -- -- -- --
0030:                                         1E F0 FF               ...
0040: FF 7F 6F 76 F8 FF FF 7F  66 00 80 F8 FF FF 7F F8  ..ov....f.......
0050: FF FF 7F 74 6C 6B 30 1D  02 80 23 66 00 80 F8 FF  ...tlk0...#f....
0060: FF 7F F8 FF FF 7F 74 6C  6B 32 53 F8 FF FF 7F F8  ......tlk2S.....
0070: FF FF 7F 74 6C 6B 32 21  00                       ...tlk2!.       
```

## Opcodes

```
  0: 0x003D [0x1E] EventEntity looks at LocalPlayer and starts talking
  1: 0x0042 [0x6F] WAIT_FRAME_DELAY: Yield until WaitTime reaches zero
  2: 0x0043 [0x76] CHECK_ENTITY_RENDER_FLAGS: Wait until EventEntity Render.Flags0 and Render.Flags3 conditions are met
  3: 0x0048 [0x66] LOAD_EXT_SCHEDULER_MAIN: Load scheduler "tlk0" with entities [EventEntity, EventEntity], work=50*
  4: 0x0057 [0x1D] PRINT_EVENT_MESSAGE(message_id=7697*)
    → "The other day when Lion came, she was in and out of here like a white rrrabbit on a full moon. I wonder what she could be up to?\u007F1\u0000\u0007"
  5: 0x005A [0x23] WAIT_FOR_DIALOG_INTERACTION
  6: 0x005B [0x66] LOAD_EXT_SCHEDULER_MAIN: Load scheduler "tlk2" with entities [EventEntity, EventEntity], work=50*
  7: 0x006A [0x53] WAIT_SCHEDULER_TASK: Wait for scheduler "tlk2" with entities [EventEntity, EventEntity]
  8: 0x0077 [0x21] END_EVENT
  9: 0x0078 [0x00] END_REQSTACK()
```
