# Event 218

## Metadata

| Field           | Value    |
|-----------------|----------|
| Event Index     | 13/128   |
| Offset          | 0x0246   |
| Data Size       | 60 bytes |
| Calculated Size | 60 bytes |
| Instructions    | 10       |

```
      00 01 02 03 04 05 06 07  08 09 0A 0B 0C 0D 0E 0F
      -- -- -- -- -- -- -- --  -- -- -- -- -- -- -- --
0240:                   1E F0  FF FF 7F 6F 76 F8 FF FF        .....ov...
0250: 7F 66 00 80 F8 FF FF 7F  F8 FF FF 7F 74 6C 6B 30  .f..........tlk0
0260: 1D 1A 80 23 66 00 80 F8  FF FF 7F F8 FF FF 7F 74  ...#f..........t
0270: 6C 6B 32 53 F8 FF FF 7F  F8 FF FF 7F 74 6C 6B 32  lk2S........tlk2
0280: 21 00                                             !.              
```

## Opcodes

```
  0: 0x0246 [0x1E] EventEntity looks at LocalPlayer and starts talking
  1: 0x024B [0x6F] WAIT_FRAME_DELAY: Yield until WaitTime reaches zero
  2: 0x024C [0x76] CHECK_ENTITY_RENDER_FLAGS: Wait until EventEntity Render.Flags0 and Render.Flags3 conditions are met
  3: 0x0251 [0x66] LOAD_EXT_SCHEDULER_MAIN(work_offset=50*, entity1=EventEntity, entity2=EventEntity, action="tlk0")
  4: 0x0260 [0x1D] PRINT_EVENT_MESSAGE(message_id=7693*)
    → "Hey, you made it through! But look at this junk. It's trash! Next time go easier on the goods, okay?\u007F1\u0000\u0007"
  5: 0x0263 [0x23] WAIT_FOR_DIALOG_INTERACTION
  6: 0x0264 [0x66] LOAD_EXT_SCHEDULER_MAIN(work_offset=50*, entity1=EventEntity, entity2=EventEntity, action="tlk2")
  7: 0x0273 [0x53] WAIT_SCHEDULER_TASK(entity1=EventEntity, entity2=EventEntity, action_id="tlk2")
  8: 0x0280 [0x21] END_EVENT
  9: 0x0281 [0x00] END_REQSTACK()
```
