# Event 221

## Metadata

| Field           | Value    |
|-----------------|----------|
| Event Index     | 15/128   |
| Offset          | 0x02F1   |
| Data Size       | 43 bytes |
| Calculated Size | 43 bytes |
| Instructions    | 9        |

```
      00 01 02 03 04 05 06 07  08 09 0A 0B 0C 0D 0E 0F
      -- -- -- -- -- -- -- --  -- -- -- -- -- -- -- --
02F0:    1E F0 FF FF 7F 6F 70  66 00 80 F8 FF FF 7F F8   .....opf.......
0300: FF FF 7F 74 6C 6B 30 1D  25 80 23 66 00 80 F8 FF  ...tlk0.%.#f....
0310: FF 7F F8 FF FF 7F 74 6C  6B 32 21 00              ......tlk2!.    
```

## Opcodes

```
  0: 0x02F1 [0x1E] EventEntity looks at LocalPlayer and starts talking
  1: 0x02F6 [0x6F] WAIT_FRAME_DELAY: Yield until WaitTime reaches zero
  2: 0x02F7 [0x70] WAIT_ENTITY_RENDER_FLAG: Wait while EventEntity->Render.Flags3 bit 2 is set (cancel turn if not)
  3: 0x02F8 [0x66] LOAD_EXT_SCHEDULER_MAIN(work_offset=50*, entity1=EventEntity, entity2=EventEntity, action="tlk0")
  4: 0x0307 [0x1D] PRINT_EVENT_MESSAGE(message_id=8016*)
    → "Look, the toolbox is on top of a crate outside of Port Jeuno's Duty-Free shop. Go ahead and take it.\u007F1\u0000\u0007"
  5: 0x030A [0x23] WAIT_FOR_DIALOG_INTERACTION
  6: 0x030B [0x66] LOAD_EXT_SCHEDULER_MAIN(work_offset=50*, entity1=EventEntity, entity2=EventEntity, action="tlk2")
  7: 0x031A [0x21] END_EVENT
  8: 0x031B [0x00] END_REQSTACK()
```
