# Event 26

## Metadata

| Field           | Value    |
|-----------------|----------|
| Event Index     | 8/55     |
| Offset          | 0x02C4   |
| Data Size       | 87 bytes |
| Calculated Size | 87 bytes |
| Instructions    | 9        |

```
      00 01 02 03 04 05 06 07  08 09 0A 0B 0C 0D 0E 0F
      -- -- -- -- -- -- -- --  -- -- -- -- -- -- -- --
02C0:             45 12 80 F0  FF FF 7F F0 FF FF 7F 66      E..........f
02D0: 64 6F 31 08 80 1C 13 80  45 14 80 F0 FF FF 7F F0  do1.....E.......
02E0: FF FF 7F 64 76 30 35 08  80 45 12 80 F0 FF FF 7F  ...dv05..E......
02F0: F0 FF FF 7F 66 64 69 31  08 80 2C D4 51 09 01 F0  ....fdi1..,.Q...
0300: FF FF 7F 63 61 62 6B 1C  1E 80 2C D4 51 09 01 F0  ...cabk...,.Q...
0310: FF FF 7F 73 68 62 6B 1C  1F 80 00                 ...shbk....     
```

## Opcodes

```
  0: 0x02C4 [0x45] LOAD_SCHEDULED_TASK: Load scheduler "fdo1" with entities [LocalPlayer, LocalPlayer], work=[200*, 0*]
  1: 0x02D5 [0x1C] WAIT(60* ticks)
  2: 0x02D8 [0x45] LOAD_SCHEDULED_TASK: Load scheduler "dv05" with entities [LocalPlayer, LocalPlayer], work=[94*, 0*]
  3: 0x02E9 [0x45] LOAD_SCHEDULED_TASK: Load scheduler "fdi1" with entities [LocalPlayer, LocalPlayer], work=[200*, 0*]
  4: 0x02FA [0x2C] CREATE_SCHEDULER_TASK: Create scheduler "cabk" with entities [Sedal-Godjal (ID: 17387988/0x010951D4), LocalPlayer]
  5: 0x0307 [0x1C] WAIT(300* ticks)
  6: 0x030A [0x2C] CREATE_SCHEDULER_TASK: Create scheduler "shbk" with entities [Sedal-Godjal (ID: 17387988/0x010951D4), LocalPlayer]
  7: 0x0317 [0x1C] WAIT(140* ticks)
  8: 0x031A [0x00] END_REQSTACK()
```
