# Event 65535

## Metadata

| Field           | Value    |
|-----------------|----------|
| Event Index     | 48/55    |
| Offset          | 0x0973   |
| Data Size       | 37 bytes |
| Calculated Size | 37 bytes |
| Instructions    | 9        |

```
      00 01 02 03 04 05 06 07  08 09 0A 0B 0C 0D 0E 0F
      -- -- -- -- -- -- -- --  -- -- -- -- -- -- -- --
0970:          29 08 D4 51 09  01 09 1D 39 80 23 29 08     )..Q....9.#).
0980: D4 51 09 01 0A 29 08 D4  51 09 01 11 1D 3A 80 23  .Q...)..Q....:.#
0990: 29 08 D4 51 09 01 12 00                           )..Q....        
```

## Opcodes

```
  0: 0x0973 [0x29] REQ_SET_WAIT(priority=0x08, entity_id=Sedal-Godjal (ID: 17387988/0x010951D4), tag_num=0x09)
  1: 0x097A [0x1D] PRINT_EVENT_MESSAGE(message_id=7540*)
    → "Principal Koru-Moru had embezzled several years' worth of the Aurastery's budgetaru, and it didn't look like he would be giving it back. So, I thought I would take the name of Mojiji and try writing him a fan letter.\u007F1\u0000\u0007"
  2: 0x097D [0x23] WAIT_FOR_DIALOG_INTERACTION
  3: 0x097E [0x29] REQ_SET_WAIT(priority=0x08, entity_id=Sedal-Godjal (ID: 17387988/0x010951D4), tag_num=0x0A)
  4: 0x0985 [0x29] REQ_SET_WAIT(priority=0x08, entity_id=Sedal-Godjal (ID: 17387988/0x010951D4), tag_num=0x11)
  5: 0x098C [0x1D] PRINT_EVENT_MESSAGE(message_id=7541*)
    → "The effect of this was almostaru instantaneous. Every time I wrote him a letter, I convinced him to return a little more gil, but all the deception started to make me feel uneasy-queasy.\u007F1\u0000\u0007"
  6: 0x098F [0x23] WAIT_FOR_DIALOG_INTERACTION
  7: 0x0990 [0x29] REQ_SET_WAIT(priority=0x08, entity_id=Sedal-Godjal (ID: 17387988/0x010951D4), tag_num=0x12)
  8: 0x0997 [0x00] END_REQSTACK()
```
