# Event 65535

## Metadata

| Field           | Value    |
|-----------------|----------|
| Event Index     | 37/55    |
| Offset          | 0x065B   |
| Data Size       | 37 bytes |
| Calculated Size | 37 bytes |
| Instructions    | 9        |

```
      00 01 02 03 04 05 06 07  08 09 0A 0B 0C 0D 0E 0F
      -- -- -- -- -- -- -- --  -- -- -- -- -- -- -- --
0650:                                   29 08 D4 51 09             )..Q.
0660: 01 0F 1D 2B 80 23 29 08  D4 51 09 01 10 29 08 D4  ...+.#)..Q...)..
0670: 51 09 01 1B 1D 2C 80 23  29 08 D4 51 09 01 1C 00  Q....,.#)..Q....
```

## Opcodes

```
  0: 0x065B [0x29] REQ_SET_WAIT(priority=0x08, entity_id=Sedal-Godjal (ID: 17387988/0x010951D4), tag_num=0x0F)
  1: 0x0662 [0x1D] PRINT_EVENT_MESSAGE(message_id=7525*)
    → "Until the knights get here, I have to magically seal this area for the sake of the people of San d'Oria.\u007F1\u0000\u0007"
  2: 0x0665 [0x23] WAIT_FOR_DIALOG_INTERACTION
  3: 0x0666 [0x29] REQ_SET_WAIT(priority=0x08, entity_id=Sedal-Godjal (ID: 17387988/0x010951D4), tag_num=0x10)
  4: 0x066D [0x29] REQ_SET_WAIT(priority=0x08, entity_id=Sedal-Godjal (ID: 17387988/0x010951D4), tag_num=0x1B)
  5: 0x0674 [0x1D] PRINT_EVENT_MESSAGE(message_id=7526*)
    → "However, my concentration for maintaining the seal is being disruptarued. An Orc carrying \u0001\u0001\u0001 \u0001\u0005$\u0002\u0001\u0000\u0000 has been enspelling me from afar...\u007F1\u0000\u0007"
  6: 0x0677 [0x23] WAIT_FOR_DIALOG_INTERACTION
  7: 0x0678 [0x29] REQ_SET_WAIT(priority=0x08, entity_id=Sedal-Godjal (ID: 17387988/0x010951D4), tag_num=0x1C)
  8: 0x067F [0x00] END_REQSTACK()
```
