# Event 15

## Metadata

| Field           | Value    |
|-----------------|----------|
| Event Index     | 7/26     |
| Offset          | 0x0220   |
| Data Size       | 81 bytes |
| Calculated Size | 81 bytes |
| Instructions    | 10       |

```
      00 01 02 03 04 05 06 07  08 09 0A 0B 0C 0D 0E 0F
      -- -- -- -- -- -- -- --  -- -- -- -- -- -- -- --
0220: 20 01 42 45 00 80 F0 FF  FF 7F F0 FF FF 7F 66 64   .BE..........fd
0230: 6F 30 01 80 55 00 80 F0  FF FF 7F F0 FF FF 7F 66  o0..U..........f
0240: 64 6F 30 47 00 09 80 0A  80 0B 80 0C 80 47 01 45  do0G.........G.E
0250: 00 80 F0 FF FF 7F F0 FF  FF 7F 66 64 69 30 01 80  ..........fdi0..
0260: 55 00 80 F0 FF FF 7F F0  FF FF 7F 66 64 69 30 21  U..........fdi0!
0270: 00                                                .               
```

## Opcodes

```
  0: 0x0220 [0x20] SET_CLI_EVENT_UC_FLAG: Lock player control
  1: 0x0222 [0x42] SET_CLI_EVENT_CANCEL_DATA()
  2: 0x0223 [0x45] LOAD_SCHEDULED_TASK(work_offset1=200*, entity1=LocalPlayer, entity2=LocalPlayer, scheduler_id="fdo0", work_offset2=0*)
  3: 0x0234 [0x55] WAIT_LOAD_SCHEDULER(work_offset=200*, entity1=LocalPlayer, entity2=LocalPlayer, scheduler_id="fdo0")
  4: 0x0243 [0x47] UPDATE_PLAYER_POS(230.785*, -530.009*, -1.986*, yaw=181.9°*)
  5: 0x024D [0x47] WAIT_PLAYER_POS_UPDATE
  6: 0x024F [0x45] LOAD_SCHEDULED_TASK(work_offset1=200*, entity1=LocalPlayer, entity2=LocalPlayer, scheduler_id="fdi0", work_offset2=0*)
  7: 0x0260 [0x55] WAIT_LOAD_SCHEDULER(work_offset=200*, entity1=LocalPlayer, entity2=LocalPlayer, scheduler_id="fdi0")
  8: 0x026F [0x21] END_EVENT
  9: 0x0270 [0x00] END_REQSTACK()
```
