# Event 17

## Metadata

| Field           | Value    |
|-----------------|----------|
| Event Index     | 13/26    |
| Offset          | 0x0434   |
| Data Size       | 81 bytes |
| Calculated Size | 81 bytes |
| Instructions    | 10       |

```
      00 01 02 03 04 05 06 07  08 09 0A 0B 0C 0D 0E 0F
      -- -- -- -- -- -- -- --  -- -- -- -- -- -- -- --
0430:             20 01 42 45  00 80 F0 FF FF 7F F0 FF       .BE........
0440: FF 7F 66 64 6F 30 01 80  55 00 80 F0 FF FF 7F F0  ..fdo0..U.......
0450: FF FF 7F 66 64 6F 30 47  00 11 80 12 80 13 80 14  ...fdo0G........
0460: 80 47 01 45 00 80 F0 FF  FF 7F F0 FF FF 7F 66 64  .G.E..........fd
0470: 69 30 01 80 55 00 80 F0  FF FF 7F F0 FF FF 7F 66  i0..U..........f
0480: 64 69 30 21 00                                    di0!.           
```

## Opcodes

```
  0: 0x0434 [0x20] SET_CLI_EVENT_UC_FLAG: Lock player control
  1: 0x0436 [0x42] SET_CLI_EVENT_CANCEL_DATA()
  2: 0x0437 [0x45] LOAD_SCHEDULED_TASK(work_offset1=200*, entity1=LocalPlayer, entity2=LocalPlayer, scheduler_id="fdo0", work_offset2=0*)
  3: 0x0448 [0x55] WAIT_LOAD_SCHEDULER(work_offset=200*, entity1=LocalPlayer, entity2=LocalPlayer, scheduler_id="fdo0")
  4: 0x0457 [0x47] UPDATE_PLAYER_POS(-302.415*, 505.614*, -1.982*, yaw=135.5°*)
  5: 0x0461 [0x47] WAIT_PLAYER_POS_UPDATE
  6: 0x0463 [0x45] LOAD_SCHEDULED_TASK(work_offset1=200*, entity1=LocalPlayer, entity2=LocalPlayer, scheduler_id="fdi0", work_offset2=0*)
  7: 0x0474 [0x55] WAIT_LOAD_SCHEDULER(work_offset=200*, entity1=LocalPlayer, entity2=LocalPlayer, scheduler_id="fdi0")
  8: 0x0483 [0x21] END_EVENT
  9: 0x0484 [0x00] END_REQSTACK()
```
