# Event 41

## Metadata

| Field           | Value    |
|-----------------|----------|
| Event Index     | 10/26    |
| Offset          | 0x032A   |
| Data Size       | 81 bytes |
| Calculated Size | 81 bytes |
| Instructions    | 10       |

```
      00 01 02 03 04 05 06 07  08 09 0A 0B 0C 0D 0E 0F
      -- -- -- -- -- -- -- --  -- -- -- -- -- -- -- --
0320:                                20 01 42 45 00 80             .BE..
0330: F0 FF FF 7F F0 FF FF 7F  66 64 6F 30 01 80 55 00  ........fdo0..U.
0340: 80 F0 FF FF 7F F0 FF FF  7F 66 64 6F 30 47 00 0D  .........fdo0G..
0350: 80 0E 80 0F 80 10 80 47  01 45 00 80 F0 FF FF 7F  .......G.E......
0360: F0 FF FF 7F 66 64 69 30  01 80 55 00 80 F0 FF FF  ....fdi0..U.....
0370: 7F F0 FF FF 7F 66 64 69  30 21 00                 .....fdi0!.     
```

## Opcodes

```
  0: 0x032A [0x20] SET_CLI_EVENT_UC_FLAG: Lock player control
  1: 0x032C [0x42] SET_CLI_EVENT_CANCEL_DATA()
  2: 0x032D [0x45] LOAD_SCHEDULED_TASK: Load scheduler "fdo0" with entities [LocalPlayer, LocalPlayer], work=[200*, 0*]
  3: 0x033E [0x55] WAIT_LOAD_SCHEDULER: Wait for scheduler "fdo0" with entities [LocalPlayer, LocalPlayer], work=200*
  4: 0x034D [0x47] UPDATE_PLAYER_POS(-136.983*, 60.653*, -2.000*, yaw=135.0°*)
  5: 0x0357 [0x47] WAIT_PLAYER_POS_UPDATE
  6: 0x0359 [0x45] LOAD_SCHEDULED_TASK: Load scheduler "fdi0" with entities [LocalPlayer, LocalPlayer], work=[200*, 0*]
  7: 0x036A [0x55] WAIT_LOAD_SCHEDULER: Wait for scheduler "fdi0" with entities [LocalPlayer, LocalPlayer], work=200*
  8: 0x0379 [0x21] END_EVENT
  9: 0x037A [0x00] END_REQSTACK()
```
