# Event 65535

## Metadata

| Field           | Value    |
|-----------------|----------|
| Event Index     | 38/61    |
| Offset          | 0x01FE   |
| Data Size       | 91 bytes |
| Calculated Size | 91 bytes |
| Instructions    | 6        |

```
      00 01 02 03 04 05 06 07  08 09 0A 0B 0C 0D 0E 0F
      -- -- -- -- -- -- -- --  -- -- -- -- -- -- -- --
01F0:                                            1F 00                ..
0200: 4E 80 4F 80 50 80 1F 01  31 00 51 80 52 80 05 80  N.O.P...1.Q.R...
0210: 53 80 31 01 00 3B F8 FF  FF 7F 01 00 02 00 03 00  S.1..;..........
0220: 3A F8 FF FF 7F 04 00 17  05 00 04 00 00 00 16 06  :...............
0230: 00 04 00 00 00 07 01 00  05 00 07 02 00 06 00 1B  ................
0240: 17 05 00 04 00 00 00 16  06 00 04 00 00 00 07 01  ................
0250: 00 05 00 07 02 00 06 00  1B                       .........       
```

## Opcodes

```
  0: 0x01FE [0x1F] MOVE_ENTITY: EventEntity moves to X=85.830*, Z=42.811*, Y=0.385*
  1: 0x0206 [0x1F] MOVE_ENTITY: Update entity position (mode=1)
  2: 0x0208 [0x31] UPDATE_ENTITY_POSITION: Set EventEntity goal position to X=85.096*, Z=35.986*, Y=0.480*, Time=180*
  3: 0x0212 [0x31] UPDATE_ENTITY_POSITION: Move EventEntity towards goal position
  4: 0x0214 [0x00] END_REQSTACK()
```

## Data or dead code:

```
# Data Section: 0x0215 (68 bytes)
     0x0215: 3B F8 FF FF 7F 01 00 02 00 03 00 3A F8 FF FF 7F
     0x0225: 04 00 17 05 00 04 00 00 00 16 06 00 04 00 00 00
     0x0235: 07 01 00 05 00 07 02 00 06 00 1B 17 05 00 04 00
     0x0245: 00 00 16 06 00 04 00 00 00 07 01 00 05 00 07 02
     0x0255: 00 06 00 1B
```