# 17461512 - Chumia

## Common Data

| Field            | Value                           |
|------------------|---------------------------------|
| Zone             | Bostaunieux Oubliette (ID: 167) |
| Block Size       | 328 bytes                       |
| Total Events     | 11                              |
| References Count | 23                              |

## List of Events

| Event ID                 | Entrypoint   |   Size |   Instructions |
|--------------------------|--------------|--------|----------------|
| [65535](#event-65535)    | 0x0000       |      1 |              1 |
| [6](#event-6)            | 0x0001       |      1 |              1 |
| [65535.1](#event-655351) | 0x0002       |     10 |              2 |
| [65535.2](#event-655352) | 0x000C       |     22 |              8 |
| [65535.3](#event-655353) | 0x0022       |     22 |              8 |
| [65535.4](#event-655354) | 0x0038       |      9 |              3 |
| [65535.5](#event-655355) | 0x0041       |     19 |              3 |
| [65535.6](#event-655356) | 0x0054       |     19 |              3 |
| [65535.7](#event-655357) | 0x0067       |     19 |              3 |
| [65535.8](#event-655358) | 0x007A       |     19 |              3 |
| [65535.9](#event-655359) | 0x008D       |     33 |              8 |

## DAT References (imed_data)

|   Index | Hex Value   |   Dec Value |
|---------|-------------|-------------|
|       0 | 0x113DD     |       70621 |
|       1 | 0x4665      |       18021 |
|       2 | 0xFFFFA212  |  4294943250 |
|       3 | 0x0FD9      |        4057 |
|       4 | 0x000D      |          13 |
|       5 | 0x1179D     |       71581 |
|       6 | 0x481A      |       18458 |
|       7 | 0xFFFFA232  |  4294943282 |
|       8 | 0x11885     |       71813 |
|       9 | 0x4129      |       16681 |
|      10 | 0xFFFFA233  |  4294943283 |
|      11 | 0x1CD3      |        7379 |
|      12 | 0x0027      |          39 |
|      13 | 0x003C      |          60 |
|      14 | 0x10162     |       65890 |
|      15 | 0x47B9      |       18361 |
|      16 | 0xFFFFA1C5  |  4294943173 |
|      17 | 0x5227      |       21031 |
|      18 | 0x486F      |       18543 |
|      19 | 0xFFFFA222  |  4294943266 |
|      20 | 0x5399      |       21401 |
|      21 | 0x2E93      |       11923 |
|      22 | 0xFFFFA219  |  4294943257 |

## Events

### Event 65535

#### Metadata

| Field        | Value   |
|--------------|---------|
| Entrypoint   | 0x0000  |
| Data Size    | 1 bytes |
| Instructions | 1       |

```
      00 01 02 03 04 05 06 07  08 09 0A 0B 0C 0D 0E 0F
      -- -- -- -- -- -- -- --  -- -- -- -- -- -- -- --
0000: 00                                                .               
```

#### Opcodes

```
  0: 0x0000 [0x00] END_REQSTACK()
```

### Event 6

#### Metadata

| Field        | Value   |
|--------------|---------|
| Entrypoint   | 0x0001  |
| Data Size    | 1 bytes |
| Instructions | 1       |

```
      00 01 02 03 04 05 06 07  08 09 0A 0B 0C 0D 0E 0F
      -- -- -- -- -- -- -- --  -- -- -- -- -- -- -- --
0000:    00                                              .              
```

#### Opcodes

```
  0: 0x0001 [0x00] END_REQSTACK()
```

### Event 65535.1

#### Metadata

| Field        | Value    |
|--------------|----------|
| Entrypoint   | 0x0002   |
| Data Size    | 10 bytes |
| Instructions | 2        |

```
      00 01 02 03 04 05 06 07  08 09 0A 0B 0C 0D 0E 0F
      -- -- -- -- -- -- -- --  -- -- -- -- -- -- -- --
0000:       37 00 80 01 80 02  80 03 80 00                7.........    
```

#### Opcodes

```
  0: 0x0002 [0x37] UPDATE_EVENT_POSITION_AND_DIR: x=70.621*, z=18.021*, y=-24.046*, direction=356.6°*
  1: 0x000B [0x00] END_REQSTACK()
```

### Event 65535.2

#### Metadata

| Field        | Value    |
|--------------|----------|
| Entrypoint   | 0x000C   |
| Data Size    | 22 bytes |
| Instructions | 8        |

```
      00 01 02 03 04 05 06 07  08 09 0A 0B 0C 0D 0E 0F
      -- -- -- -- -- -- -- --  -- -- -- -- -- -- -- --
0000:                                      32 04 80 1F              2...
0010: 00 05 80 06 80 07 80 1F  01 6F 1E F0 FF FF 7F 6F  .........o.....o
0020: 70 00                                             p.              
```

#### Opcodes

```
  0: 0x000C [0x32] ExtData[1]->MainSpeed = 13* * 0.1
  1: 0x000F [0x1F] MOVE_ENTITY: EventEntity moves to X=71.581*, Z=18.458*, Y=-24.014*
  2: 0x0017 [0x1F] MOVE_ENTITY: Update entity position (mode=1)
  3: 0x0019 [0x6F] WAIT_FRAME_DELAY: Yield until WaitTime reaches zero
  4: 0x001A [0x1E] EventEntity looks at LocalPlayer and starts talking
  5: 0x001F [0x6F] WAIT_FRAME_DELAY: Yield until WaitTime reaches zero
  6: 0x0020 [0x70] WAIT_ENTITY_RENDER_FLAG: Wait while EventEntity->Render.Flags3 bit 2 is set (cancel turn if not)
  7: 0x0021 [0x00] END_REQSTACK()
```

### Event 65535.3

#### Metadata

| Field        | Value    |
|--------------|----------|
| Entrypoint   | 0x0022   |
| Data Size    | 22 bytes |
| Instructions | 8        |

```
      00 01 02 03 04 05 06 07  08 09 0A 0B 0C 0D 0E 0F
      -- -- -- -- -- -- -- --  -- -- -- -- -- -- -- --
0020:       32 04 80 1F 00 08  80 09 80 0A 80 1F 01 6F    2............o
0030: 1E 39 71 0A 01 6F 70 00                           .9q..op.        
```

#### Opcodes

```
  0: 0x0022 [0x32] ExtData[1]->MainSpeed = 13* * 0.1
  1: 0x0025 [0x1F] MOVE_ENTITY: EventEntity moves to X=71.813*, Z=16.681*, Y=-24.013*
  2: 0x002D [0x1F] MOVE_ENTITY: Update entity position (mode=1)
  3: 0x002F [0x6F] WAIT_FRAME_DELAY: Yield until WaitTime reaches zero
  4: 0x0030 [0x1E] EventEntity looks at Jurgenclaus (ID: 17461561/0x010A7139) and starts talking
  5: 0x0035 [0x6F] WAIT_FRAME_DELAY: Yield until WaitTime reaches zero
  6: 0x0036 [0x70] WAIT_ENTITY_RENDER_FLAG: Wait while EventEntity->Render.Flags3 bit 2 is set (cancel turn if not)
  7: 0x0037 [0x00] END_REQSTACK()
```

### Event 65535.4

#### Metadata

| Field        | Value   |
|--------------|---------|
| Entrypoint   | 0x0038  |
| Data Size    | 9 bytes |
| Instructions | 3       |

```
      00 01 02 03 04 05 06 07  08 09 0A 0B 0C 0D 0E 0F
      -- -- -- -- -- -- -- --  -- -- -- -- -- -- -- --
0030:                          2B 39 71 0A 01 0B 80 23          +9q....#
0040: 00                                                .               
```

#### Opcodes

```
  0: 0x0038 [0x2B] Jurgenclaus (ID: 17461561/0x010A7139) [7379*]:
    → "And he couldn't wait to kill dragons and dragoons! Ahahaha!"
  1: 0x003F [0x23] WAIT_FOR_DIALOG_INTERACTION
  2: 0x0040 [0x00] END_REQSTACK()
```

### Event 65535.5

#### Metadata

| Field        | Value    |
|--------------|----------|
| Entrypoint   | 0x0041   |
| Data Size    | 19 bytes |
| Instructions | 3        |

```
      00 01 02 03 04 05 06 07  08 09 0A 0B 0C 0D 0E 0F
      -- -- -- -- -- -- -- --  -- -- -- -- -- -- -- --
0040:    66 0C 80 F8 FF FF 7F  F8 FF FF 7F 74 6C 6B 30   f..........tlk0
0050: 1C 0D 80 00                                       ....            
```

#### Opcodes

```
  0: 0x0041 [0x66] LOAD_EXT_SCHEDULER_MAIN: Load scheduler "tlk0" with entities [EventEntity, EventEntity], work=39*
  1: 0x0050 [0x1C] WAIT(60* ticks)
  2: 0x0053 [0x00] END_REQSTACK()
```

### Event 65535.6

#### Metadata

| Field        | Value    |
|--------------|----------|
| Entrypoint   | 0x0054   |
| Data Size    | 19 bytes |
| Instructions | 3        |

```
      00 01 02 03 04 05 06 07  08 09 0A 0B 0C 0D 0E 0F
      -- -- -- -- -- -- -- --  -- -- -- -- -- -- -- --
0050:             66 0C 80 F8  FF FF 7F F8 FF FF 7F 74      f..........t
0060: 6C 6B 31 1C 0D 80 00                              lk1....         
```

#### Opcodes

```
  0: 0x0054 [0x66] LOAD_EXT_SCHEDULER_MAIN: Load scheduler "tlk1" with entities [EventEntity, EventEntity], work=39*
  1: 0x0063 [0x1C] WAIT(60* ticks)
  2: 0x0066 [0x00] END_REQSTACK()
```

### Event 65535.7

#### Metadata

| Field        | Value    |
|--------------|----------|
| Entrypoint   | 0x0067   |
| Data Size    | 19 bytes |
| Instructions | 3        |

```
      00 01 02 03 04 05 06 07  08 09 0A 0B 0C 0D 0E 0F
      -- -- -- -- -- -- -- --  -- -- -- -- -- -- -- --
0060:                      66  0C 80 F8 FF FF 7F F8 FF         f........
0070: FF 7F 74 68 6B 31 1C 0D  80 00                    ..thk1....      
```

#### Opcodes

```
  0: 0x0067 [0x66] LOAD_EXT_SCHEDULER_MAIN: Load scheduler "thk1" with entities [EventEntity, EventEntity], work=39*
  1: 0x0076 [0x1C] WAIT(60* ticks)
  2: 0x0079 [0x00] END_REQSTACK()
```

### Event 65535.8

#### Metadata

| Field        | Value    |
|--------------|----------|
| Entrypoint   | 0x007A   |
| Data Size    | 19 bytes |
| Instructions | 3        |

```
      00 01 02 03 04 05 06 07  08 09 0A 0B 0C 0D 0E 0F
      -- -- -- -- -- -- -- --  -- -- -- -- -- -- -- --
0070:                                66 0C 80 F8 FF FF            f.....
0080: 7F F8 FF FF 7F 74 68 6B  32 1C 0D 80 00           .....thk2....   
```

#### Opcodes

```
  0: 0x007A [0x66] LOAD_EXT_SCHEDULER_MAIN: Load scheduler "thk2" with entities [EventEntity, EventEntity], work=39*
  1: 0x0089 [0x1C] WAIT(60* ticks)
  2: 0x008C [0x00] END_REQSTACK()
```

### Event 65535.9

#### Metadata

| Field        | Value    |
|--------------|----------|
| Entrypoint   | 0x008D   |
| Data Size    | 33 bytes |
| Instructions | 8        |

```
      00 01 02 03 04 05 06 07  08 09 0A 0B 0C 0D 0E 0F
      -- -- -- -- -- -- -- --  -- -- -- -- -- -- -- --
0080:                                         1F 00 0E               ...
0090: 80 0F 80 10 80 1F 01 1F  00 11 80 12 80 13 80 1F  ................
00A0: 01 1F 00 14 80 15 80 16  80 1F 01 22 01 00        ..........."..  
```

#### Opcodes

```
  0: 0x008D [0x1F] MOVE_ENTITY: EventEntity moves to X=65.890*, Z=18.361*, Y=-24.123*
  1: 0x0095 [0x1F] MOVE_ENTITY: Update entity position (mode=1)
  2: 0x0097 [0x1F] MOVE_ENTITY: EventEntity moves to X=21.031*, Z=18.543*, Y=-24.030*
  3: 0x009F [0x1F] MOVE_ENTITY: Update entity position (mode=1)
  4: 0x00A1 [0x1F] MOVE_ENTITY: EventEntity moves to X=21.401*, Z=11.923*, Y=-24.039*
  5: 0x00A9 [0x1F] MOVE_ENTITY: Update entity position (mode=1)
  6: 0x00AB [0x22] ENTITY_HIDE_FLAG(enabled=0x01)
  7: 0x00AD [0x00] END_REQSTACK()
```
