# 17461560 - Brugaire

## Common Data

| Field            | Value                           |
|------------------|---------------------------------|
| Zone             | Bostaunieux Oubliette (ID: 167) |
| Block Size       | 356 bytes                       |
| Total Events     | 10                              |
| References Count | 16                              |

## List of Events

| Event ID                 | Entrypoint   |   Size |   Instructions |
|--------------------------|--------------|--------|----------------|
| [65535](#event-65535)    | 0x0000       |      1 |              1 |
| [5](#event-5)            | 0x0001       |     10 |              2 |
| [65535.1](#event-655351) | 0x000B       |     22 |              8 |
| [65535.2](#event-655352) | 0x0021       |     26 |              7 |
| [65535.3](#event-655353) | 0x003B       |     29 |              3 |
| [65535.4](#event-655354) | 0x0058       |     29 |              3 |
| [65535.5](#event-655355) | 0x0075       |     29 |              3 |
| [65535.6](#event-655356) | 0x0092       |     29 |              3 |
| [65535.7](#event-655357) | 0x00AF       |     29 |              3 |
| [65535.8](#event-655358) | 0x00CC       |     29 |              3 |

## DAT References (imed_data)

|   Index | Hex Value   |   Dec Value |
|---------|-------------|-------------|
|       0 | 0xBEDD      |       48861 |
|       1 | 0x4BFB      |       19451 |
|       2 | 0xFFFFA262  |  4294943330 |
|       3 | 0x0FF7      |        4087 |
|       4 | 0x000D      |          13 |
|       5 | 0xCD9B      |       52635 |
|       6 | 0x4BE1      |       19425 |
|       7 | 0xFFFFA275  |  4294943349 |
|       8 | 0x508B      |       20619 |
|       9 | 0x5030      |       20528 |
|      10 | 0xFFFFA22E  |  4294943278 |
|      11 | 0x4E50      |       20048 |
|      12 | 0x313D      |       12605 |
|      13 | 0xFFFFA21B  |  4294943259 |
|      14 | 0x0014      |          20 |
|      15 | 0x0015      |          21 |

## Events

### Event 65535

#### Metadata

| Field        | Value   |
|--------------|---------|
| Entrypoint   | 0x0000  |
| Data Size    | 1 bytes |
| Instructions | 1       |

```
      00 01 02 03 04 05 06 07  08 09 0A 0B 0C 0D 0E 0F
      -- -- -- -- -- -- -- --  -- -- -- -- -- -- -- --
0000: 00                                                .               
```

#### Opcodes

```
  0: 0x0000 [0x00] END_REQSTACK()
```

### Event 5

#### Metadata

| Field        | Value    |
|--------------|----------|
| Entrypoint   | 0x0001   |
| Data Size    | 10 bytes |
| Instructions | 2        |

```
      00 01 02 03 04 05 06 07  08 09 0A 0B 0C 0D 0E 0F
      -- -- -- -- -- -- -- --  -- -- -- -- -- -- -- --
0000:    37 00 80 01 80 02 80  03 80 00                  7.........     
```

#### Opcodes

```
  0: 0x0001 [0x37] UPDATE_EVENT_POSITION_AND_DIR: x=48.861*, z=19.451*, y=-23.966*, direction=359.2°*
  1: 0x000A [0x00] END_REQSTACK()
```

### Event 65535.1

#### Metadata

| Field        | Value    |
|--------------|----------|
| Entrypoint   | 0x000B   |
| Data Size    | 22 bytes |
| Instructions | 8        |

```
      00 01 02 03 04 05 06 07  08 09 0A 0B 0C 0D 0E 0F
      -- -- -- -- -- -- -- --  -- -- -- -- -- -- -- --
0000:                                   32 04 80 1F 00             2....
0010: 05 80 06 80 07 80 1F 01  6F 1E 07 71 0A 01 6F 70  ........o..q..op
0020: 00                                                .               
```

#### Opcodes

```
  0: 0x000B [0x32] ExtData[1]->MainSpeed = 13* * 0.1
  1: 0x000E [0x1F] MOVE_ENTITY: EventEntity moves to X=52.635*, Z=19.425*, Y=-23.947*
  2: 0x0016 [0x1F] MOVE_ENTITY: Update entity position (mode=1)
  3: 0x0018 [0x6F] WAIT_FRAME_DELAY: Yield until WaitTime reaches zero
  4: 0x0019 [0x1E] EventEntity looks at Novalmauge (ID: 17461511/0x010A7107) and starts talking
  5: 0x001E [0x6F] WAIT_FRAME_DELAY: Yield until WaitTime reaches zero
  6: 0x001F [0x70] WAIT_ENTITY_RENDER_FLAG: Wait while EventEntity->Render.Flags3 bit 2 is set (cancel turn if not)
  7: 0x0020 [0x00] END_REQSTACK()
```

### Event 65535.2

#### Metadata

| Field        | Value    |
|--------------|----------|
| Entrypoint   | 0x0021   |
| Data Size    | 26 bytes |
| Instructions | 7        |

```
      00 01 02 03 04 05 06 07  08 09 0A 0B 0C 0D 0E 0F
      -- -- -- -- -- -- -- --  -- -- -- -- -- -- -- --
0020:    32 04 80 1F 00 08 80  09 80 0A 80 1F 01 1F 00   2..............
0030: 0B 80 0C 80 0D 80 1F 01  22 01 00                 ........"..     
```

#### Opcodes

```
  0: 0x0021 [0x32] ExtData[1]->MainSpeed = 13* * 0.1
  1: 0x0024 [0x1F] MOVE_ENTITY: EventEntity moves to X=20.619*, Z=20.528*, Y=-24.018*
  2: 0x002C [0x1F] MOVE_ENTITY: Update entity position (mode=1)
  3: 0x002E [0x1F] MOVE_ENTITY: EventEntity moves to X=20.048*, Z=12.605*, Y=-24.037*
  4: 0x0036 [0x1F] MOVE_ENTITY: Update entity position (mode=1)
  5: 0x0038 [0x22] ENTITY_HIDE_FLAG(enabled=0x01)
  6: 0x003A [0x00] END_REQSTACK()
```

### Event 65535.3

#### Metadata

| Field        | Value    |
|--------------|----------|
| Entrypoint   | 0x003B   |
| Data Size    | 29 bytes |
| Instructions | 3        |

```
      00 01 02 03 04 05 06 07  08 09 0A 0B 0C 0D 0E 0F
      -- -- -- -- -- -- -- --  -- -- -- -- -- -- -- --
0030:                                   66 0E 80 F8 FF             f....
0040: FF 7F F8 FF FF 7F 70 61  73 30 53 F8 FF FF 7F F8  ......pas0S.....
0050: FF FF 7F 70 61 73 30 00                           ...pas0.        
```

#### Opcodes

```
  0: 0x003B [0x66] LOAD_EXT_SCHEDULER_MAIN: Load scheduler "pas0" with entities [EventEntity, EventEntity], work=20*
  1: 0x004A [0x53] WAIT_SCHEDULER_TASK: Wait for scheduler "pas0" with entities [EventEntity, EventEntity]
  2: 0x0057 [0x00] END_REQSTACK()
```

### Event 65535.4

#### Metadata

| Field        | Value    |
|--------------|----------|
| Entrypoint   | 0x0058   |
| Data Size    | 29 bytes |
| Instructions | 3        |

```
      00 01 02 03 04 05 06 07  08 09 0A 0B 0C 0D 0E 0F
      -- -- -- -- -- -- -- --  -- -- -- -- -- -- -- --
0050:                          66 0F 80 F8 FF FF 7F F8          f.......
0060: FF FF 7F 70 6F 69 30 53  F8 FF FF 7F F8 FF FF 7F  ...poi0S........
0070: 70 6F 69 30 00                                    poi0.           
```

#### Opcodes

```
  0: 0x0058 [0x66] LOAD_EXT_SCHEDULER_MAIN: Load scheduler "poi0" with entities [EventEntity, EventEntity], work=21*
  1: 0x0067 [0x53] WAIT_SCHEDULER_TASK: Wait for scheduler "poi0" with entities [EventEntity, EventEntity]
  2: 0x0074 [0x00] END_REQSTACK()
```

### Event 65535.5

#### Metadata

| Field        | Value    |
|--------------|----------|
| Entrypoint   | 0x0075   |
| Data Size    | 29 bytes |
| Instructions | 3        |

```
      00 01 02 03 04 05 06 07  08 09 0A 0B 0C 0D 0E 0F
      -- -- -- -- -- -- -- --  -- -- -- -- -- -- -- --
0070:                66 0F 80  F8 FF FF 7F F8 FF FF 7F       f..........
0080: 70 6F 69 31 53 F8 FF FF  7F F8 FF FF 7F 70 6F 69  poi1S........poi
0090: 31 00                                             1.              
```

#### Opcodes

```
  0: 0x0075 [0x66] LOAD_EXT_SCHEDULER_MAIN: Load scheduler "poi1" with entities [EventEntity, EventEntity], work=21*
  1: 0x0084 [0x53] WAIT_SCHEDULER_TASK: Wait for scheduler "poi1" with entities [EventEntity, EventEntity]
  2: 0x0091 [0x00] END_REQSTACK()
```

### Event 65535.6

#### Metadata

| Field        | Value    |
|--------------|----------|
| Entrypoint   | 0x0092   |
| Data Size    | 29 bytes |
| Instructions | 3        |

```
      00 01 02 03 04 05 06 07  08 09 0A 0B 0C 0D 0E 0F
      -- -- -- -- -- -- -- --  -- -- -- -- -- -- -- --
0090:       66 0E 80 F8 FF FF  7F F8 FF FF 7F 74 6C 6B    f..........tlk
00A0: 30 53 F8 FF FF 7F F8 FF  FF 7F 74 6C 6B 30 00     0S........tlk0. 
```

#### Opcodes

```
  0: 0x0092 [0x66] LOAD_EXT_SCHEDULER_MAIN: Load scheduler "tlk0" with entities [EventEntity, EventEntity], work=20*
  1: 0x00A1 [0x53] WAIT_SCHEDULER_TASK: Wait for scheduler "tlk0" with entities [EventEntity, EventEntity]
  2: 0x00AE [0x00] END_REQSTACK()
```

### Event 65535.7

#### Metadata

| Field        | Value    |
|--------------|----------|
| Entrypoint   | 0x00AF   |
| Data Size    | 29 bytes |
| Instructions | 3        |

```
      00 01 02 03 04 05 06 07  08 09 0A 0B 0C 0D 0E 0F
      -- -- -- -- -- -- -- --  -- -- -- -- -- -- -- --
00A0:                                               66                 f
00B0: 0E 80 F8 FF FF 7F F8 FF  FF 7F 74 6C 6B 31 53 F8  ..........tlk1S.
00C0: FF FF 7F F8 FF FF 7F 74  6C 6B 31 00              .......tlk1.    
```

#### Opcodes

```
  0: 0x00AF [0x66] LOAD_EXT_SCHEDULER_MAIN: Load scheduler "tlk1" with entities [EventEntity, EventEntity], work=20*
  1: 0x00BE [0x53] WAIT_SCHEDULER_TASK: Wait for scheduler "tlk1" with entities [EventEntity, EventEntity]
  2: 0x00CB [0x00] END_REQSTACK()
```

### Event 65535.8

#### Metadata

| Field        | Value    |
|--------------|----------|
| Entrypoint   | 0x00CC   |
| Data Size    | 29 bytes |
| Instructions | 3        |

```
      00 01 02 03 04 05 06 07  08 09 0A 0B 0C 0D 0E 0F
      -- -- -- -- -- -- -- --  -- -- -- -- -- -- -- --
00C0:                                      66 0F 80 F8              f...
00D0: FF FF 7F F8 FF FF 7F 64  69 73 30 53 F8 FF FF 7F  .......dis0S....
00E0: F8 FF FF 7F 64 69 73 30  00                       ....dis0.       
```

#### Opcodes

```
  0: 0x00CC [0x66] LOAD_EXT_SCHEDULER_MAIN: Load scheduler "dis0" with entities [EventEntity, EventEntity], work=21*
  1: 0x00DB [0x53] WAIT_SCHEDULER_TASK: Wait for scheduler "dis0" with entities [EventEntity, EventEntity]
  2: 0x00E8 [0x00] END_REQSTACK()
```
