# 17461511 - Novalmauge

## Common Data

| Field            | Value                           |
|------------------|---------------------------------|
| Zone             | Bostaunieux Oubliette (ID: 167) |
| Block Size       | 2528 bytes                      |
| Total Events     | 26                              |
| References Count | 75                              |

## List of Events

| Event ID                 | Entrypoint   |   Size |   Instructions |
|--------------------------|--------------|--------|----------------|
| [65535](#event-65535)    | 0x0000       |      1 |              1 |
| [2](#event-2)            | 0x0001       |     20 |              9 |
| [65535.1](#event-655351) | 0x0015       |     20 |              3 |
| [0](#event-0)            | 0x0029       |      1 |              1 |
| [3](#event-3)            | 0x002A       |    224 |             44 |
| [1](#event-1)            | 0x010A       |      1 |              1 |
| [4](#event-4)            | 0x010B       |     25 |             10 |
| [5](#event-5)            | 0x0124       |      1 |              1 |
| [65535.2](#event-655352) | 0x0125       |     15 |              5 |
| [10](#event-10)          | 0x0134       |     29 |              9 |
| [13](#event-13)          | 0x0151       |    521 |             96 |
| [11](#event-11)          | 0x035A       |     77 |             13 |
| [12](#event-12)          | 0x03A7       |    449 |             75 |
| [14](#event-14)          | 0x0568       |     84 |             14 |
| [15](#event-15)          | 0x05BC       |     56 |             14 |
| [16](#event-16)          | 0x05F4       |     18 |              8 |
| [17](#event-17)          | 0x0606       |    276 |             38 |
| [65535.3](#event-655353) | 0x071A       |     19 |              3 |
| [65535.4](#event-655354) | 0x072D       |     19 |              3 |
| [65535.5](#event-655355) | 0x0740       |     19 |              3 |
| [65535.6](#event-655356) | 0x0753       |     19 |              3 |
| [65535.7](#event-655357) | 0x0766       |     29 |              3 |
| [65535.8](#event-655358) | 0x0783       |    161 |             15 |
| [6](#event-6)            | 0x0824       |      1 |              1 |
| [7](#event-7)            | 0x0825       |     13 |              7 |
| [65535.9](#event-655359) | 0x0832       |     10 |              2 |

## DAT References (imed_data)

|   Index | Hex Value   |   Dec Value |
|---------|-------------|-------------|
|       0 | 0x1CE9      |        7401 |
|       1 | 0xD4BC      |       54460 |
|       2 | 0x4C34      |       19508 |
|       3 | 0xFFFFA232  |  4294943282 |
|       4 | 0x0F14      |        3860 |
|       5 | 0x0001      |           1 |
|       6 | 0x0000      |           0 |
|       7 | 0x4199      |       16793 |
|       8 | 0x1CE0      |        7392 |
|       9 | 0x1CE1      |        7393 |
|      10 | 0x0002      |           2 |
|      11 | 0x001D      |          29 |
|      12 | 0x1CE2      |        7394 |
|      13 | 0x1CE3      |        7395 |
|      14 | 0x1CE4      |        7396 |
|      15 | 0x1CE5      |        7397 |
|      16 | 0x1CE7      |        7399 |
|      17 | 0x1CE8      |        7400 |
|      18 | 0x1CE6      |        7398 |
|      19 | 0x0158      |         344 |
|      20 | 0x0159      |         345 |
|      21 | 0x1CF3      |        7411 |
|      22 | 0x000A      |          10 |
|      23 | 0xCB60      |       52064 |
|      24 | 0x4B8C      |       19340 |
|      25 | 0xFFFFA28B  |  4294943371 |
|      26 | 0x000F      |          15 |
|      27 | 0x1CA8      |        7336 |
|      28 | 0x03A2      |         930 |
|      29 | 0x1CB5      |        7349 |
|      30 | 0x1CB2      |        7346 |
|      31 | 0x1CB6      |        7350 |
|      32 | 0x1CAF      |        7343 |
|      33 | 0x0013      |          19 |
|      34 | 0x0043      |          67 |
|      35 | 0x1CAD      |        7341 |
|      36 | 0x1CAE      |        7342 |
|      37 | 0x0006      |           6 |
|      38 | 0x003C      |          60 |
|      39 | 0x0005      |           5 |
|      40 | 0x1CB0      |        7344 |
|      41 | 0x1CB1      |        7345 |
|      42 | 0x0007      |           7 |
|      43 | 0x002D      |          45 |
|      44 | 0x1CB3      |        7347 |
|      45 | 0x1CB4      |        7348 |
|      46 | 0x00C8      |         200 |
|      47 | 0x1CAB      |        7339 |
|      48 | 0x1CB7      |        7351 |
|      49 | 0x1CB8      |        7352 |
|      50 | 0x1CB9      |        7353 |
|      51 | 0x1CBA      |        7354 |
|      52 | 0x1CBB      |        7355 |
|      53 | 0x1CBC      |        7356 |
|      54 | 0x1CBD      |        7357 |
|      55 | 0x1CBE      |        7358 |
|      56 | 0x1CBF      |        7359 |
|      57 | 0x1CC0      |        7360 |
|      58 | 0x1CC1      |        7361 |
|      59 | 0x00C9      |         201 |
|      60 | 0x1CC2      |        7362 |
|      61 | 0x1CC3      |        7363 |
|      62 | 0x03BF      |         959 |
|      63 | 0x1CC4      |        7364 |
|      64 | 0x1CC5      |        7365 |
|      65 | 0x1CC6      |        7366 |
|      66 | 0x1CC7      |        7367 |
|      67 | 0x1CC8      |        7368 |
|      68 | 0x0014      |          20 |
|      69 | 0x1CC9      |        7369 |
|      70 | 0x1CD5      |        7381 |
|      71 | 0x1286F     |       75887 |
|      72 | 0x4D3A      |       19770 |
|      73 | 0xFFFFA1F5  |  4294943221 |
|      74 | 0x07E9      |        2025 |

## String References

- **7336**: Those without business here should be on their way. That means you.
- **7339**: So you will bring me $0? Please then, make haste.
- **7342**: Listen to him? [Hear what he has to say./No way.]
- **7346**: Accept Novalmauge's request? [Accept./Turn him down.]
- **7353**: Do you believe the rumors? [Yes, I do./Never!]
- **7364**: Eh? Someone threw poison in the water by the sluice gate? You want me to make a neutralizer, then?
- **7365**: I prefer to avoid goings-on of this sort, but I cannot refuse a request from you after what you have done for me. All right, I will see what I can do!
- **7366**: Bring me $7. We can use it to make a neutralizer that should put things to rights...I hope.
- **7367**: Bring me $7. We can use it to make a neutralizer that should put things to rights...I hope.
- **7368**: You've brought me $7? Excellent! Now, I need a little time.
- **7369**: There! With this all will be well. Of course, it saddens me to hear this sort of thing still goes on up there. After all this time, they haven't changed.
- **7381**: If you wish to learn of dragons, ask the archeologist, Oiheaurese, in the cathedral. He should know well their lore.
- **7393**: Was there something else? [I lost the $1.../This curse has bested me./No, sorry to disturb you.]
- **7397**: What is your decision? [I can go no further./I will persevere.]
- **7411**: Journey to the Den of Rancor with this $3 and obtain the $3. When you have bound the evil in the scythe, your exertions will be at an end.

## Events

### Event 65535

#### Metadata

| Field        | Value   |
|--------------|---------|
| Entrypoint   | 0x0000  |
| Data Size    | 1 bytes |
| Instructions | 1       |

```
      00 01 02 03 04 05 06 07  08 09 0A 0B 0C 0D 0E 0F
      -- -- -- -- -- -- -- --  -- -- -- -- -- -- -- --
0000: 00                                                .               
```

#### Opcodes

```
  0: 0x0000 [0x00] END_REQSTACK()
```

### Event 2

#### Metadata

| Field        | Value    |
|--------------|----------|
| Entrypoint   | 0x0001   |
| Data Size    | 20 bytes |
| Instructions | 9        |

```
      00 01 02 03 04 05 06 07  08 09 0A 0B 0C 0D 0E 0F
      -- -- -- -- -- -- -- --  -- -- -- -- -- -- -- --
0000:    20 01 42 1E F0 FF FF  7F 6F 70 2B 07 71 0A 01    .B.....op+.q..
0010: 00 80 23 21 00                                    ..#!.           
```

#### Opcodes

```
  0: 0x0001 [0x20] SET_CLI_EVENT_UC_FLAG: Lock player control
  1: 0x0003 [0x42] SET_CLI_EVENT_CANCEL_DATA()
  2: 0x0004 [0x1E] EventEntity looks at LocalPlayer and starts talking
  3: 0x0009 [0x6F] WAIT_FRAME_DELAY: Yield until WaitTime reaches zero
  4: 0x000A [0x70] WAIT_ENTITY_RENDER_FLAG: Wait while EventEntity->Render.Flags3 bit 2 is set (cancel turn if not)
  5: 0x000B [0x2B] Novalmauge (ID: 17461511/0x010A7107) [7401*]:
    → "You still need to cleanse the scythe in several more battles before the curse's influence is removed. Be sure the curse does not find a new home in you."
  6: 0x0012 [0x23] WAIT_FOR_DIALOG_INTERACTION
  7: 0x0013 [0x21] END_EVENT
  8: 0x0014 [0x00] END_REQSTACK()
```

### Event 65535.1

#### Metadata

| Field        | Value    |
|--------------|----------|
| Entrypoint   | 0x0015   |
| Data Size    | 20 bytes |
| Instructions | 3        |

```
      00 01 02 03 04 05 06 07  08 09 0A 0B 0C 0D 0E 0F
      -- -- -- -- -- -- -- --  -- -- -- -- -- -- -- --
0010:                37 01 80  02 80 03 80 04 80 79 00       7........y.
0020: 07 71 0A 01 F0 FF FF 7F  00                       .q.......       
```

#### Opcodes

```
  0: 0x0015 [0x37] UPDATE_EVENT_POSITION_AND_DIR: x=54.460*, z=19.508*, y=-24.014*, direction=339.2°*
  1: 0x001E [0x79] Novalmauge (ID: 17461511/0x010A7107) looks at LocalPlayer (Basic look)
  2: 0x0028 [0x00] END_REQSTACK()
```

### Event 0

#### Metadata

| Field        | Value   |
|--------------|---------|
| Entrypoint   | 0x0029  |
| Data Size    | 1 bytes |
| Instructions | 1       |

```
      00 01 02 03 04 05 06 07  08 09 0A 0B 0C 0D 0E 0F
      -- -- -- -- -- -- -- --  -- -- -- -- -- -- -- --
0020:                             00                             .      
```

#### Opcodes

```
  0: 0x0029 [0x00] END_REQSTACK()
```

### Event 3

#### Metadata

| Field        | Value     |
|--------------|-----------|
| Entrypoint   | 0x002A    |
| Data Size    | 224 bytes |
| Instructions | 44        |

```
      00 01 02 03 04 05 06 07  08 09 0A 0B 0C 0D 0E 0F
      -- -- -- -- -- -- -- --  -- -- -- -- -- -- -- --
0020:                                20 01 42 1E F0 FF             .B...
0030: FF 7F 6F 70 06 00 00 02  02 10 05 80 00 46 00 3C  ..op.........F.<
0040: 00 00 06 80 05 80 06 01  10 03 03 10 07 80 2B 07  ..............+.
0050: 71 0A 01 08 80 23 24 09  80 0A 80 00 00 25 02 00  q....#$......%..
0060: 10 06 80 00 9C 00 66 0B  80 F8 FF FF 7F F8 FF FF  ......f.........
0070: 7F 74 6C 6B 30 2B 07 71  0A 01 0C 80 23 66 0B 80  .tlk0+.q....#f..
0080: F8 FF FF 7F F8 FF FF 7F  74 6C 6B 31 2B 07 71 0A  ........tlk1+.q.
0090: 01 0D 80 23 03 01 10 05  80 01 08 01 02 00 10 05  ...#............
00A0: 80 00 08 01 66 0B 80 F8  FF FF 7F F8 FF FF 7F 74  ....f..........t
00B0: 68 6B 31 2B 07 71 0A 01  0E 80 23 24 0F 80 05 80  hk1+.q....#$....
00C0: 06 80 25 66 0B 80 F8 FF  FF 7F F8 FF FF 7F 74 68  ..%f..........th
00D0: 6B 32 02 00 10 06 80 00  F2 00 2B 07 71 0A 01 10  k2........+.q...
00E0: 80 23 2B 07 71 0A 01 11  80 23 03 01 10 0A 80 01  .#+.q....#......
00F0: 05 01 02 00 10 05 80 00  05 01 2B 07 71 0A 01 12  ..........+.q...
0100: 80 23 01 05 01 01 08 01  21 00                    .#......!.      
```

#### Opcodes

```
  0: 0x002A [0x20] SET_CLI_EVENT_UC_FLAG: Lock player control
  1: 0x002C [0x42] SET_CLI_EVENT_CANCEL_DATA()
  2: 0x002D [0x1E] EventEntity looks at LocalPlayer and starts talking
  3: 0x0032 [0x6F] WAIT_FRAME_DELAY: Yield until WaitTime reaches zero
  4: 0x0033 [0x70] WAIT_ENTITY_RENDER_FLAG: Wait while EventEntity->Render.Flags3 bit 2 is set (cancel turn if not)
  5: 0x0034 [0x06] ExtData[1]->WorkLocal[0] = 0
  6: 0x0037 [0x02] IF !(Work_Zone[2] == 1*) GOTO 0x0046
  7: 0x003F [0x3C] SET_BIT_FLAG_CONDITIONAL(target_work_offset=ExtData[1]->WorkLocal[0], bit_index_work_offset=0*, condition_work_offset=1*)
  8: 0x0046 [0x06] Work_Zone[1] = 0
  9: 0x0049 [0x03] Work_Zone[3] = 16793*
 10: 0x004E [0x2B] Novalmauge (ID: 17461511/0x010A7107) [7392*]:
    → "How goes it? If you wish to know if the curse has been removed, then let me see the $1. Or perhaps there was something else you wished to discuss?"
 11: 0x0055 [0x23] WAIT_FOR_DIALOG_INTERACTION
 12: 0x0056 [0x24] CREATE_DIALOG(message_id=7393*, default_option=2*, option_flags=ExtData[1]->WorkLocal[0])
    → "Was there something else? [I lost the $1.../This curse has bested me./No, sorry to disturb you.]"
 13: 0x005D [0x25] WAIT_DIALOG_SELECT()
 14: 0x005E [0x02] IF !(Work_Zone[0] == 0*) GOTO 0x009C
 15: 0x0066 [0x66] LOAD_EXT_SCHEDULER_MAIN: Load scheduler "tlk0" with entities [EventEntity, EventEntity], work=29*
 16: 0x0075 [0x2B] Novalmauge (ID: 17461511/0x010A7107) [7394*]:
    → "Strangely enough, I just came into possession of another such scythe. I would advise against handing these weapons around to your compatriots, though. They are not toys to be played with, my friend."
 17: 0x007C [0x23] WAIT_FOR_DIALOG_INTERACTION
 18: 0x007D [0x66] LOAD_EXT_SCHEDULER_MAIN: Load scheduler "tlk1" with entities [EventEntity, EventEntity], work=29*
 19: 0x008C [0x2B] Novalmauge (ID: 17461511/0x010A7107) [7395*]:
    → "Naturally, you must begin the process of removing the curse anew. A lack of focus can cost you dearly. Please do be careful this time."
 20: 0x0093 [0x23] WAIT_FOR_DIALOG_INTERACTION
 21: 0x0094 [0x03] Work_Zone[1] = 1*
 22: 0x0099 [0x01] GOTO 0x0108
 23: 0x009C [0x02] IF !(Work_Zone[0] == 1*) GOTO 0x0108
 24: 0x00A4 [0x66] LOAD_EXT_SCHEDULER_MAIN: Load scheduler "thk1" with entities [EventEntity, EventEntity], work=29*
 25: 0x00B3 [0x2B] Novalmauge (ID: 17461511/0x010A7107) [7396*]:
    → "I agree that this is a dangerous feat to attempt, but I believe that you have the strength of spirit to prevail. If you persevere until the end, your reward will be great. Do you still wish to give up?"
 26: 0x00BA [0x23] WAIT_FOR_DIALOG_INTERACTION
 27: 0x00BB [0x24] CREATE_DIALOG(message_id=7397*, default_option=1*, option_flags=0*)
    → "What is your decision? [I can go no further./I will persevere.]"
 28: 0x00C2 [0x25] WAIT_DIALOG_SELECT()
 29: 0x00C3 [0x66] LOAD_EXT_SCHEDULER_MAIN: Load scheduler "thk2" with entities [EventEntity, EventEntity], work=29*
 30: 0x00D2 [0x02] IF !(Work_Zone[0] == 0*) GOTO 0x00F2
 31: 0x00DA [0x2B] Novalmauge (ID: 17461511/0x010A7107) [7399*]:
    → "If you feel your resolve crumbling, then you are right to end your attempt here."
 32: 0x00E1 [0x23] WAIT_FOR_DIALOG_INTERACTION
 33: 0x00E2 [0x2B] Novalmauge (ID: 17461511/0x010A7107) [7400*]:
    → "I advise you to rest for a time to cleanse your spirit of evil influences. Dispose of the scythe and do not pass it on to anyone else."
 34: 0x00E9 [0x23] WAIT_FOR_DIALOG_INTERACTION
 35: 0x00EA [0x03] Work_Zone[1] = 2*
 36: 0x00EF [0x01] GOTO 0x0105
 37: 0x00F2 [0x02] IF !(Work_Zone[0] == 1*) GOTO 0x0105
 38: 0x00FA [0x2B] Novalmauge (ID: 17461511/0x010A7107) [7398*]:
    → "That is good. But do not let your focus waver, or the curse will gain hold of you. Take care, my friend."
 39: 0x0101 [0x23] WAIT_FOR_DIALOG_INTERACTION
 40: 0x0102 [0x01] GOTO 0x0105

SUBROUTINE_0105:
 41: 0x0105 [0x01] GOTO 0x0108

SUBROUTINE_0108:
 42: 0x0108 [0x21] END_EVENT
 43: 0x0109 [0x00] END_REQSTACK()
```

### Event 1

#### Metadata

| Field        | Value   |
|--------------|---------|
| Entrypoint   | 0x010A  |
| Data Size    | 1 bytes |
| Instructions | 1       |

```
      00 01 02 03 04 05 06 07  08 09 0A 0B 0C 0D 0E 0F
      -- -- -- -- -- -- -- --  -- -- -- -- -- -- -- --
0100:                                00                           .     
```

#### Opcodes

```
  0: 0x010A [0x00] END_REQSTACK()
```

### Event 4

#### Metadata

| Field        | Value    |
|--------------|----------|
| Entrypoint   | 0x010B   |
| Data Size    | 25 bytes |
| Instructions | 10       |

```
      00 01 02 03 04 05 06 07  08 09 0A 0B 0C 0D 0E 0F
      -- -- -- -- -- -- -- --  -- -- -- -- -- -- -- --
0100:                                   20 01 1E F0 FF              ....
0110: FF 7F 6F 70 03 03 10 13  80 03 04 10 14 80 1D 15  ..op............
0120: 80 23 21 00                                       .#!.            
```

#### Opcodes

```
  0: 0x010B [0x20] SET_CLI_EVENT_UC_FLAG: Lock player control
  1: 0x010D [0x1E] EventEntity looks at LocalPlayer and starts talking
  2: 0x0112 [0x6F] WAIT_FRAME_DELAY: Yield until WaitTime reaches zero
  3: 0x0113 [0x70] WAIT_ENTITY_RENDER_FLAG: Wait while EventEntity->Render.Flags3 bit 2 is set (cancel turn if not)
  4: 0x0114 [0x03] Work_Zone[3] = 344*
  5: 0x0119 [0x03] Work_Zone[4] = 345*
  6: 0x011E [0x1D] PRINT_EVENT_MESSAGE(message_id=7411*)
    → "Journey to the Den of Rancor with this $3 and obtain the $3. When you have bound the evil in the scythe, your exertions will be at an end."
  7: 0x0121 [0x23] WAIT_FOR_DIALOG_INTERACTION
  8: 0x0122 [0x21] END_EVENT
  9: 0x0123 [0x00] END_REQSTACK()
```

### Event 5

#### Metadata

| Field        | Value   |
|--------------|---------|
| Entrypoint   | 0x0124  |
| Data Size    | 1 bytes |
| Instructions | 1       |

```
      00 01 02 03 04 05 06 07  08 09 0A 0B 0C 0D 0E 0F
      -- -- -- -- -- -- -- --  -- -- -- -- -- -- -- --
0120:             00                                        .           
```

#### Opcodes

```
  0: 0x0124 [0x00] END_REQSTACK()
```

### Event 65535.2

#### Metadata

| Field        | Value    |
|--------------|----------|
| Entrypoint   | 0x0125   |
| Data Size    | 15 bytes |
| Instructions | 5        |

```
      00 01 02 03 04 05 06 07  08 09 0A 0B 0C 0D 0E 0F
      -- -- -- -- -- -- -- --  -- -- -- -- -- -- -- --
0120:                32 16 80  1F 00 17 80 18 80 19 80       2..........
0130: 1F 01 6F 00                                       ..o.            
```

#### Opcodes

```
  0: 0x0125 [0x32] ExtData[1]->MainSpeed = 10* * 0.1
  1: 0x0128 [0x1F] MOVE_ENTITY: EventEntity moves to X=52.064*, Z=19.340*, Y=-23.925*
  2: 0x0130 [0x1F] MOVE_ENTITY: Update entity position (mode=1)
  3: 0x0132 [0x6F] WAIT_FRAME_DELAY: Yield until WaitTime reaches zero
  4: 0x0133 [0x00] END_REQSTACK()
```

### Event 10

#### Metadata

| Field        | Value    |
|--------------|----------|
| Entrypoint   | 0x0134   |
| Data Size    | 29 bytes |
| Instructions | 9        |

```
      00 01 02 03 04 05 06 07  08 09 0A 0B 0C 0D 0E 0F
      -- -- -- -- -- -- -- --  -- -- -- -- -- -- -- --
0130:             1E F0 FF FF  7F 1C 1A 80 4A F0 FF FF      ........J...
0140: 7F 07 71 0A 01 6F 76 F0  FF FF 7F 1D 1B 80 23 21  ..q..ov.......#!
0150: 00                                                .               
```

#### Opcodes

```
  0: 0x0134 [0x1E] EventEntity looks at LocalPlayer and starts talking
  1: 0x0139 [0x1C] WAIT(15* ticks)
  2: 0x013C [0x4A] LocalPlayer looks at Novalmauge (ID: 17461511/0x010A7107)
  3: 0x0145 [0x6F] WAIT_FRAME_DELAY: Yield until WaitTime reaches zero
  4: 0x0146 [0x76] CHECK_ENTITY_RENDER_FLAGS: Wait until LocalPlayer Render.Flags0 and Render.Flags3 conditions are met
  5: 0x014B [0x1D] PRINT_EVENT_MESSAGE(message_id=7336*)
    → "Those without business here should be on their way. That means you."
  6: 0x014E [0x23] WAIT_FOR_DIALOG_INTERACTION
  7: 0x014F [0x21] END_EVENT
  8: 0x0150 [0x00] END_REQSTACK()
```

### Event 13

#### Metadata

| Field        | Value     |
|--------------|-----------|
| Entrypoint   | 0x0151    |
| Data Size    | 521 bytes |
| Instructions | 94        |

```
      00 01 02 03 04 05 06 07  08 09 0A 0B 0C 0D 0E 0F
      -- -- -- -- -- -- -- --  -- -- -- -- -- -- -- --
0150:    42 06 01 10 03 01 00  02 10 1E F0 FF FF 7F 1C   B..............
0160: 1A 80 02 01 00 05 80 00  AC 01 03 02 10 1C 80 2B  ...............+
0170: 07 71 0A 01 1D 80 23 24  1E 80 05 80 06 80 25 02  .q....#$......%.
0180: 00 10 06 80 00 97 01 03  01 10 05 80 2B 07 71 0A  ............+.q.
0190: 01 1F 80 23 01 AA 01 02  00 10 05 80 00 AA 01 2B  ...#...........+
01A0: 07 71 0A 01 20 80 23 01  AA 01 21 00 4A F0 FF FF  .q.. .#...!.J...
01B0: 7F 07 71 0A 01 6F 76 F0  FF FF 7F 1A C1 07 1C 1A  ..q..ov.........
01C0: 80 38 21 80 66 0B 80 07  71 0A 01 07 71 0A 01 00  .8!.f...q...q...
01D0: FE FE FE 46 01 27 10 F0  FF FF 7F 06 37 01 80 02  ...F.'......7...
01E0: 80 03 80 04 80 79 00 F0  FF FF 7F 07 71 0A 01 79  .....y......q..y
01F0: 00 07 71 0A 01 F0 FF FF  7F 45 22 80 F0 FF FF 7F  ..q......E".....
0200: F0 FF FF 7F 73 67 30 31  06 80 1A E2 07 03 02 10  ....sg01........
0210: 1C 80 66 0B 80 07 71 0A  01 07 71 0A 01 74 6C 6B  ..f...q...q..tlk
0220: 30 2B 07 71 0A 01 23 80  23 66 0B 80 07 71 0A 01  0+.q..#.#f...q..
0230: 07 71 0A 01 74 6C 6B 31  24 24 80 05 80 06 80 25  .q..tlk1$$.....%
0240: 02 00 10 06 80 00 4B 02  01 7F 02 02 00 10 05 80  ......K.........
0250: 00 7F 02 6E F0 FF FF 7F  25 80 99 F0 FF FF 7F 1C  ...n....%.......
0260: 26 80 6E 07 71 0A 01 25  80 99 07 71 0A 01 1C 1A  &.n.q..%...q....
0270: 80 2B 07 71 0A 01 20 80  23 01 3F 03 01 7F 02 53  .+.q.. .#.?....S
0280: 07 71 0A 01 07 71 0A 01  74 6C 6B 31 1C 27 80 66  .q...q..tlk1.'.f
0290: 0B 80 07 71 0A 01 07 71  0A 01 74 6C 6B 30 2B 07  ...q...q..tlk0+.
02A0: 71 0A 01 28 80 23 2B 07  71 0A 01 29 80 23 66 0B  q..(.#+.q..).#f.
02B0: 80 07 71 0A 01 07 71 0A  01 74 6C 6B 31 24 1E 80  ..q...q..tlk1$..
02C0: 05 80 06 80 25 02 00 10  06 80 00 E4 02 03 01 10  ....%...........
02D0: 05 80 6E F0 FF FF 7F 2A  80 99 F0 FF FF 7F 1C 2B  ..n....*.......+
02E0: 80 01 18 03 02 00 10 05  80 00 18 03 6E F0 FF FF  ............n...
02F0: 7F 25 80 99 F0 FF FF 7F  1C 26 80 6E 07 71 0A 01  .%.......&.n.q..
0300: 27 80 99 07 71 0A 01 1C  1A 80 2B 07 71 0A 01 2C  '...q.....+.q..,
0310: 80 23 01 3F 03 01 18 03  53 07 71 0A 01 07 71 0A  .#.?....S.q...q.
0320: 01 74 6C 6B 31 1C 27 80  6E 07 71 0A 01 2A 80 99  .tlk1.'.n.q..*..
0330: 07 71 0A 01 1C 1A 80 2B  07 71 0A 01 2D 80 23 1A  .q.....+.q..-.#.
0340: C1 07 1C 1A 80 45 2E 80  F0 FF FF 7F F0 FF FF 7F  .....E..........
0350: 66 64 69 32 06 80 46 00  21 00                    fdi2..F.!.      
```

#### Opcodes

```
  0: 0x0151 [0x42] SET_CLI_EVENT_CANCEL_DATA()
  1: 0x0152 [0x06] Work_Zone[1] = 0
  2: 0x0155 [0x03] ExtData[1]->WorkLocal[1] = Work_Zone[2]
  3: 0x015A [0x1E] EventEntity looks at LocalPlayer and starts talking
  4: 0x015F [0x1C] WAIT(15* ticks)
  5: 0x0162 [0x02] IF !(ExtData[1]->WorkLocal[1] == 1*) GOTO 0x01AC
  6: 0x016A [0x03] Work_Zone[2] = 930*
  7: 0x016F [0x2B] Novalmauge (ID: 17461511/0x010A7107) [7349*]:
    → "Eh? What? You'll take my request?"
  8: 0x0176 [0x23] WAIT_FOR_DIALOG_INTERACTION
  9: 0x0177 [0x24] CREATE_DIALOG(message_id=7346*, default_option=1*, option_flags=0*)
    → "Accept Novalmauge's request? [Accept./Turn him down.]"
 10: 0x017E [0x25] WAIT_DIALOG_SELECT()
 11: 0x017F [0x02] IF !(Work_Zone[0] == 0*) GOTO 0x0197
 12: 0x0187 [0x03] Work_Zone[1] = 1*
 13: 0x018C [0x2B] Novalmauge (ID: 17461511/0x010A7107) [7350*]:
    → "That is good news, indeed. I want you to bring me $0, and as fast as you can."
 14: 0x0193 [0x23] WAIT_FOR_DIALOG_INTERACTION
 15: 0x0194 [0x01] GOTO 0x01AA
 16: 0x0197 [0x02] IF !(Work_Zone[0] == 1*) GOTO 0x01AA
 17: 0x019F [0x2B] Novalmauge (ID: 17461511/0x010A7107) [7343*]:
    → "Ah. I see. Don't mind me, then."
 18: 0x01A6 [0x23] WAIT_FOR_DIALOG_INTERACTION
 19: 0x01A7 [0x01] GOTO 0x01AA

SUBROUTINE_01AA:
 20: 0x01AA [0x21] END_EVENT
 21: 0x01AB [0x00] END_REQSTACK()
 22: 0x01AC [0x4A] LocalPlayer looks at Novalmauge (ID: 17461511/0x010A7107)
 23: 0x01B5 [0x6F] WAIT_FRAME_DELAY: Yield until WaitTime reaches zero
 24: 0x01B6 [0x76] CHECK_ENTITY_RENDER_FLAGS: Wait until LocalPlayer Render.Flags0 and Render.Flags3 conditions are met
 25: 0x01BB [0x1A] CALL_SUBROUTINE(address=0x07C1)
 26: 0x01BE [0x1C] WAIT(15* ticks)
 27: 0x01C1 [0x38] SET_CLIENT_EVENT_MODE(mode=19*)
 28: 0x01C4 [0x66] LOAD_EXT_SCHEDULER_MAIN: Load scheduler 0xFEFEFE00 with entities [Novalmauge (ID: 17461511/0x010A7107), Novalmauge (ID: 17461511/0x010A7107)], work=29*
 29: 0x01D3 [0x46] CAMERA_CONTROL: Disable user control
 30: 0x01D5 [0x27] REQ_SET(priority=0x10, entity_id=LocalPlayer, tag_num=0x06)
 31: 0x01DC [0x37] UPDATE_EVENT_POSITION_AND_DIR: x=54.460*, z=19.508*, y=-24.014*, direction=339.2°*
 32: 0x01E5 [0x79] LocalPlayer looks at Novalmauge (ID: 17461511/0x010A7107) (Basic look)
 33: 0x01EF [0x79] Novalmauge (ID: 17461511/0x010A7107) looks at LocalPlayer (Basic look)
 34: 0x01F9 [0x45] LOAD_SCHEDULED_TASK: Load scheduler "sg01" with entities [LocalPlayer, LocalPlayer], work=[67*, 0*]
 35: 0x020A [0x1A] CALL_SUBROUTINE(address=0x07E2)
 36: 0x020D [0x03] Work_Zone[2] = 930*
 37: 0x0212 [0x66] LOAD_EXT_SCHEDULER_MAIN: Load scheduler "tlk0" with entities [Novalmauge (ID: 17461511/0x010A7107), Novalmauge (ID: 17461511/0x010A7107)], work=29*
 38: 0x0221 [0x2B] Novalmauge (ID: 17461511/0x010A7107) [7341*]:
    → "If you have a moment, will you hear my request?"
 39: 0x0228 [0x23] WAIT_FOR_DIALOG_INTERACTION
 40: 0x0229 [0x66] LOAD_EXT_SCHEDULER_MAIN: Load scheduler "tlk1" with entities [Novalmauge (ID: 17461511/0x010A7107), Novalmauge (ID: 17461511/0x010A7107)], work=29*
 41: 0x0238 [0x24] CREATE_DIALOG(message_id=7342*, default_option=1*, option_flags=0*)
    → "Listen to him? [Hear what he has to say./No way.]"
 42: 0x023F [0x25] WAIT_DIALOG_SELECT()
 43: 0x0240 [0x02] IF !(Work_Zone[0] == 0*) GOTO 0x024B
 44: 0x0248 [0x01] GOTO 0x027F
 45: 0x024B [0x02] IF !(Work_Zone[0] == 1*) GOTO 0x027F
 46: 0x0253 [0x6E] LocalPlayer uses emote 6*
 47: 0x025A [0x99] Wait for LocalPlayer animation to complete
 48: 0x025F [0x1C] WAIT(60* ticks)
 49: 0x0262 [0x6E] Novalmauge (ID: 17461511/0x010A7107) uses emote 6*
 50: 0x0269 [0x99] Wait for Novalmauge (ID: 17461511/0x010A7107) animation to complete
 51: 0x026E [0x1C] WAIT(15* ticks)
 52: 0x0271 [0x2B] Novalmauge (ID: 17461511/0x010A7107) [7343*]:
    → "Ah. I see. Don't mind me, then."
 53: 0x0278 [0x23] WAIT_FOR_DIALOG_INTERACTION
 54: 0x0279 [0x01] GOTO 0x033F

SUBROUTINE_027F:
 55: 0x027F [0x53] WAIT_SCHEDULER_TASK: Wait for scheduler "tlk1" with entities [Novalmauge (ID: 17461511/0x010A7107), Novalmauge (ID: 17461511/0x010A7107)]
 56: 0x028C [0x1C] WAIT(5* ticks)
 57: 0x028F [0x66] LOAD_EXT_SCHEDULER_MAIN: Load scheduler "tlk0" with entities [Novalmauge (ID: 17461511/0x010A7107), Novalmauge (ID: 17461511/0x010A7107)], work=29*
 58: 0x029E [0x2B] Novalmauge (ID: 17461511/0x010A7107) [7344*]:
    → "I want you to bring me $0."
 59: 0x02A5 [0x23] WAIT_FOR_DIALOG_INTERACTION
 60: 0x02A6 [0x2B] Novalmauge (ID: 17461511/0x010A7107) [7345*]:
    → "Just...don't ask me why. How about it? Will you do this for me?"
 61: 0x02AD [0x23] WAIT_FOR_DIALOG_INTERACTION
 62: 0x02AE [0x66] LOAD_EXT_SCHEDULER_MAIN: Load scheduler "tlk1" with entities [Novalmauge (ID: 17461511/0x010A7107), Novalmauge (ID: 17461511/0x010A7107)], work=29*
 63: 0x02BD [0x24] CREATE_DIALOG(message_id=7346*, default_option=1*, option_flags=0*)
    → "Accept Novalmauge's request? [Accept./Turn him down.]"
 64: 0x02C4 [0x25] WAIT_DIALOG_SELECT()
 65: 0x02C5 [0x02] IF !(Work_Zone[0] == 0*) GOTO 0x02E4
 66: 0x02CD [0x03] Work_Zone[1] = 1*
 67: 0x02D2 [0x6E] LocalPlayer uses emote 7*
 68: 0x02D9 [0x99] Wait for LocalPlayer animation to complete
 69: 0x02DE [0x1C] WAIT(45* ticks)
 70: 0x02E1 [0x01] GOTO 0x0318
 71: 0x02E4 [0x02] IF !(Work_Zone[0] == 1*) GOTO 0x0318
 72: 0x02EC [0x6E] LocalPlayer uses emote 6*
 73: 0x02F3 [0x99] Wait for LocalPlayer animation to complete
 74: 0x02F8 [0x1C] WAIT(60* ticks)
 75: 0x02FB [0x6E] Novalmauge (ID: 17461511/0x010A7107) uses emote 5*
 76: 0x0302 [0x99] Wait for Novalmauge (ID: 17461511/0x010A7107) animation to complete
 77: 0x0307 [0x1C] WAIT(15* ticks)
 78: 0x030A [0x2B] Novalmauge (ID: 17461511/0x010A7107) [7347*]:
    → "Ah...ah-hah. That is to be expected, I guess. Sorry to ask such a ludicrous favor! Don't worry yourself about it."
 79: 0x0311 [0x23] WAIT_FOR_DIALOG_INTERACTION
 80: 0x0312 [0x01] GOTO 0x033F

SUBROUTINE_0318:
 81: 0x0318 [0x53] WAIT_SCHEDULER_TASK: Wait for scheduler "tlk1" with entities [Novalmauge (ID: 17461511/0x010A7107), Novalmauge (ID: 17461511/0x010A7107)]
 82: 0x0325 [0x1C] WAIT(5* ticks)
 83: 0x0328 [0x6E] Novalmauge (ID: 17461511/0x010A7107) uses emote 7*
 84: 0x032F [0x99] Wait for Novalmauge (ID: 17461511/0x010A7107) animation to complete
 85: 0x0334 [0x1C] WAIT(15* ticks)
 86: 0x0337 [0x2B] Novalmauge (ID: 17461511/0x010A7107) [7348*]:
    → "That is good news, indeed. Please hurry, I beg you."
 87: 0x033E [0x23] WAIT_FOR_DIALOG_INTERACTION

SUBROUTINE_033F:
 88: 0x033F [0x1A] CALL_SUBROUTINE(address=0x07C1)
 89: 0x0342 [0x1C] WAIT(15* ticks)
 90: 0x0345 [0x45] LOAD_SCHEDULED_TASK: Load scheduler "fdi2" with entities [LocalPlayer, LocalPlayer], work=[200*, 0*]
 91: 0x0356 [0x46] CAMERA_CONTROL: Restore default settings
 92: 0x0358 [0x21] END_EVENT
 93: 0x0359 [0x00] END_REQSTACK()
```

#### Data or dead code:

```
# Dead code (unreachable instructions):
     0x027C [0x01] GOTO 0x027F
# Dead code (unreachable instructions):
     0x0315 [0x01] GOTO 0x0318
```

### Event 11

#### Metadata

| Field        | Value    |
|--------------|----------|
| Entrypoint   | 0x035A   |
| Data Size    | 77 bytes |
| Instructions | 13       |

```
      00 01 02 03 04 05 06 07  08 09 0A 0B 0C 0D 0E 0F
      -- -- -- -- -- -- -- --  -- -- -- -- -- -- -- --
0350:                                1E F0 FF FF 7F 1C            ......
0360: 1A 80 4A F0 FF FF 7F 07  71 0A 01 6F 76 F0 FF FF  ..J.....q..ov...
0370: 7F 03 02 10 1C 80 66 0B  80 07 71 0A 01 07 71 0A  ......f...q...q.
0380: 01 74 6C 6B 30 1D 2F 80  23 66 0B 80 07 71 0A 01  .tlk0./.#f...q..
0390: 07 71 0A 01 74 6C 6B 31  53 07 71 0A 01 07 71 0A  .q..tlk1S.q...q.
03A0: 01 74 6C 6B 31 21 00                              .tlk1!.         
```

#### Opcodes

```
  0: 0x035A [0x1E] EventEntity looks at LocalPlayer and starts talking
  1: 0x035F [0x1C] WAIT(15* ticks)
  2: 0x0362 [0x4A] LocalPlayer looks at Novalmauge (ID: 17461511/0x010A7107)
  3: 0x036B [0x6F] WAIT_FRAME_DELAY: Yield until WaitTime reaches zero
  4: 0x036C [0x76] CHECK_ENTITY_RENDER_FLAGS: Wait until LocalPlayer Render.Flags0 and Render.Flags3 conditions are met
  5: 0x0371 [0x03] Work_Zone[2] = 930*
  6: 0x0376 [0x66] LOAD_EXT_SCHEDULER_MAIN: Load scheduler "tlk0" with entities [Novalmauge (ID: 17461511/0x010A7107), Novalmauge (ID: 17461511/0x010A7107)], work=29*
  7: 0x0385 [0x1D] PRINT_EVENT_MESSAGE(message_id=7339*)
    → "So you will bring me $0? Please then, make haste."
  8: 0x0388 [0x23] WAIT_FOR_DIALOG_INTERACTION
  9: 0x0389 [0x66] LOAD_EXT_SCHEDULER_MAIN: Load scheduler "tlk1" with entities [Novalmauge (ID: 17461511/0x010A7107), Novalmauge (ID: 17461511/0x010A7107)], work=29*
 10: 0x0398 [0x53] WAIT_SCHEDULER_TASK: Wait for scheduler "tlk1" with entities [Novalmauge (ID: 17461511/0x010A7107), Novalmauge (ID: 17461511/0x010A7107)]
 11: 0x03A5 [0x21] END_EVENT
 12: 0x03A6 [0x00] END_REQSTACK()
```

### Event 12

#### Metadata

| Field        | Value     |
|--------------|-----------|
| Entrypoint   | 0x03A7    |
| Data Size    | 449 bytes |
| Instructions | 75        |

```
      00 01 02 03 04 05 06 07  08 09 0A 0B 0C 0D 0E 0F
      -- -- -- -- -- -- -- --  -- -- -- -- -- -- -- --
03A0:                      42  1E F0 FF FF 7F 1C 1A 80         B........
03B0: 4A F0 FF FF 7F 07 71 0A  01 6F 76 F0 FF FF 7F 1A  J.....q..ov.....
03C0: C1 07 1C 1A 80 38 21 80  66 0B 80 07 71 0A 01 07  .....8!.f...q...
03D0: 71 0A 01 00 FE FE FE 46  01 27 10 F0 FF FF 7F 06  q......F.'......
03E0: 37 01 80 02 80 03 80 04  80 79 00 F0 FF FF 7F 07  7........y......
03F0: 71 0A 01 79 00 07 71 0A  01 F0 FF FF 7F 45 22 80  q..y..q......E".
0400: F0 FF FF 7F F0 FF FF 7F  73 67 30 31 06 80 1A E2  ........sg01....
0410: 07 03 02 10 1C 80 6E 07  71 0A 01 2A 80 99 07 71  ......n.q..*...q
0420: 0A 01 1C 1A 80 2B 07 71  0A 01 30 80 23 66 0B 80  .....+.q..0.#f..
0430: 07 71 0A 01 07 71 0A 01  74 6C 6B 30 2B 07 71 0A  .q...q..tlk0+.q.
0440: 01 31 80 23 66 0B 80 07  71 0A 01 07 71 0A 01 74  .1.#f...q...q..t
0450: 6C 6B 31 24 32 80 05 80  06 80 25 02 00 10 06 80  lk1$2.....%.....
0460: 00 75 04 6E F0 FF FF 7F  2A 80 99 F0 FF FF 7F 1C  .u.n....*.......
0470: 2B 80 01 8F 04 02 00 10  05 80 00 8F 04 6E F0 FF  +............n..
0480: FF 7F 25 80 99 F0 FF FF  7F 1C 26 80 01 8F 04 53  ..%.......&....S
0490: 07 71 0A 01 07 71 0A 01  74 6C 6B 31 1C 27 80 6E  .q...q..tlk1.'.n
04A0: 07 71 0A 01 25 80 99 07  71 0A 01 1C 1A 80 2B 07  .q..%...q.....+.
04B0: 71 0A 01 33 80 23 66 0B  80 07 71 0A 01 07 71 0A  q..3.#f...q...q.
04C0: 01 74 6C 6B 30 2B 07 71  0A 01 34 80 23 2B 07 71  .tlk0+.q..4.#+.q
04D0: 0A 01 35 80 23 2B 07 71  0A 01 36 80 23 2B 07 71  ..5.#+.q..6.#+.q
04E0: 0A 01 37 80 23 45 22 80  F0 FF FF 7F F0 FF FF 7F  ..7.#E".........
04F0: 73 67 30 32 06 80 2B 07  71 0A 01 38 80 23 2B 07  sg02..+.q..8.#+.
0500: 71 0A 01 39 80 23 66 0B  80 07 71 0A 01 07 71 0A  q..9.#f...q...q.
0510: 01 74 6C 6B 31 53 07 71  0A 01 07 71 0A 01 74 6C  .tlk1S.q...q..tl
0520: 6B 31 1C 27 80 6E 07 71  0A 01 06 80 99 07 71 0A  k1.'.n.q......q.
0530: 01 1C 1A 80 2B 07 71 0A  01 3A 80 23 1A C1 07 1C  ....+.q..:.#....
0540: 1A 80 45 3B 80 F0 FF FF  7F F0 FF FF 7F 71 73 74  ..E;.........qst
0550: 63 06 80 45 2E 80 F0 FF  FF 7F F0 FF FF 7F 66 64  c..E..........fd
0560: 69 32 06 80 46 00 21 00                           i2..F.!.        
```

#### Opcodes

```
  0: 0x03A7 [0x42] SET_CLI_EVENT_CANCEL_DATA()
  1: 0x03A8 [0x1E] EventEntity looks at LocalPlayer and starts talking
  2: 0x03AD [0x1C] WAIT(15* ticks)
  3: 0x03B0 [0x4A] LocalPlayer looks at Novalmauge (ID: 17461511/0x010A7107)
  4: 0x03B9 [0x6F] WAIT_FRAME_DELAY: Yield until WaitTime reaches zero
  5: 0x03BA [0x76] CHECK_ENTITY_RENDER_FLAGS: Wait until LocalPlayer Render.Flags0 and Render.Flags3 conditions are met
  6: 0x03BF [0x1A] CALL_SUBROUTINE(address=0x07C1)
  7: 0x03C2 [0x1C] WAIT(15* ticks)
  8: 0x03C5 [0x38] SET_CLIENT_EVENT_MODE(mode=19*)
  9: 0x03C8 [0x66] LOAD_EXT_SCHEDULER_MAIN: Load scheduler 0xFEFEFE00 with entities [Novalmauge (ID: 17461511/0x010A7107), Novalmauge (ID: 17461511/0x010A7107)], work=29*
 10: 0x03D7 [0x46] CAMERA_CONTROL: Disable user control
 11: 0x03D9 [0x27] REQ_SET(priority=0x10, entity_id=LocalPlayer, tag_num=0x06)
 12: 0x03E0 [0x37] UPDATE_EVENT_POSITION_AND_DIR: x=54.460*, z=19.508*, y=-24.014*, direction=339.2°*
 13: 0x03E9 [0x79] LocalPlayer looks at Novalmauge (ID: 17461511/0x010A7107) (Basic look)
 14: 0x03F3 [0x79] Novalmauge (ID: 17461511/0x010A7107) looks at LocalPlayer (Basic look)
 15: 0x03FD [0x45] LOAD_SCHEDULED_TASK: Load scheduler "sg01" with entities [LocalPlayer, LocalPlayer], work=[67*, 0*]
 16: 0x040E [0x1A] CALL_SUBROUTINE(address=0x07E2)
 17: 0x0411 [0x03] Work_Zone[2] = 930*
 18: 0x0416 [0x6E] Novalmauge (ID: 17461511/0x010A7107) uses emote 7*
 19: 0x041D [0x99] Wait for Novalmauge (ID: 17461511/0x010A7107) animation to complete
 20: 0x0422 [0x1C] WAIT(15* ticks)
 21: 0x0425 [0x2B] Novalmauge (ID: 17461511/0x010A7107) [7351*]:
    → "You do me a great service. It is hard to find such a helper. I thank you."
 22: 0x042C [0x23] WAIT_FOR_DIALOG_INTERACTION
 23: 0x042D [0x66] LOAD_EXT_SCHEDULER_MAIN: Load scheduler "tlk0" with entities [Novalmauge (ID: 17461511/0x010A7107), Novalmauge (ID: 17461511/0x010A7107)], work=29*
 24: 0x043C [0x2B] Novalmauge (ID: 17461511/0x010A7107) [7352*]:
    → "You've...heard about me? That I am some sort of blood-sucker...a freak of nature? And of course, you'd believe them...everyone does."
 25: 0x0443 [0x23] WAIT_FOR_DIALOG_INTERACTION
 26: 0x0444 [0x66] LOAD_EXT_SCHEDULER_MAIN: Load scheduler "tlk1" with entities [Novalmauge (ID: 17461511/0x010A7107), Novalmauge (ID: 17461511/0x010A7107)], work=29*
 27: 0x0453 [0x24] CREATE_DIALOG(message_id=7353*, default_option=1*, option_flags=0*)
    → "Do you believe the rumors? [Yes, I do./Never!]"
 28: 0x045A [0x25] WAIT_DIALOG_SELECT()
 29: 0x045B [0x02] IF !(Work_Zone[0] == 0*) GOTO 0x0475
 30: 0x0463 [0x6E] LocalPlayer uses emote 7*
 31: 0x046A [0x99] Wait for LocalPlayer animation to complete
 32: 0x046F [0x1C] WAIT(45* ticks)
 33: 0x0472 [0x01] GOTO 0x048F
 34: 0x0475 [0x02] IF !(Work_Zone[0] == 1*) GOTO 0x048F
 35: 0x047D [0x6E] LocalPlayer uses emote 6*
 36: 0x0484 [0x99] Wait for LocalPlayer animation to complete
 37: 0x0489 [0x1C] WAIT(60* ticks)
 38: 0x048C [0x01] GOTO 0x048F

SUBROUTINE_048F:
 39: 0x048F [0x53] WAIT_SCHEDULER_TASK: Wait for scheduler "tlk1" with entities [Novalmauge (ID: 17461511/0x010A7107), Novalmauge (ID: 17461511/0x010A7107)]
 40: 0x049C [0x1C] WAIT(5* ticks)
 41: 0x049F [0x6E] Novalmauge (ID: 17461511/0x010A7107) uses emote 6*
 42: 0x04A6 [0x99] Wait for Novalmauge (ID: 17461511/0x010A7107) animation to complete
 43: 0x04AB [0x1C] WAIT(15* ticks)
 44: 0x04AE [0x2B] Novalmauge (ID: 17461511/0x010A7107) [7354*]:
    → "Never mind... You seem to be a kind soul, so I will tell you. I have a disease."
 45: 0x04B5 [0x23] WAIT_FOR_DIALOG_INTERACTION
 46: 0x04B6 [0x66] LOAD_EXT_SCHEDULER_MAIN: Load scheduler "tlk0" with entities [Novalmauge (ID: 17461511/0x010A7107), Novalmauge (ID: 17461511/0x010A7107)], work=29*
 47: 0x04C5 [0x2B] Novalmauge (ID: 17461511/0x010A7107) [7355*]:
    → "Whenever the light of the sun touches my skin, it burns me in a horrible fashion."
 48: 0x04CC [0x23] WAIT_FOR_DIALOG_INTERACTION
 49: 0x04CD [0x2B] Novalmauge (ID: 17461511/0x010A7107) [7356*]:
    → "I was poisoned, long ago... That is how I became this way. And I have been trying to find a cure, some kind of serum, ever since."
 50: 0x04D4 [0x23] WAIT_FOR_DIALOG_INTERACTION
 51: 0x04D5 [0x2B] Novalmauge (ID: 17461511/0x010A7107) [7357*]:
    → "After many experiments, I found that these $0 are the only things that ease my pain."
 52: 0x04DC [0x23] WAIT_FOR_DIALOG_INTERACTION
 53: 0x04DD [0x2B] Novalmauge (ID: 17461511/0x010A7107) [7358*]:
    → "Yes, I've become quite knowledgeable in the ways of poisons. People still shun me, but I do not blame them."
 54: 0x04E4 [0x23] WAIT_FOR_DIALOG_INTERACTION
 55: 0x04E5 [0x45] LOAD_SCHEDULED_TASK: Load scheduler "sg02" with entities [LocalPlayer, LocalPlayer], work=[67*, 0*]
 56: 0x04F6 [0x2B] Novalmauge (ID: 17461511/0x010A7107) [7359*]:
    → "The people of San d'Oria can see only with their own eyes, never another's. They think their own view superior to all."
 57: 0x04FD [0x23] WAIT_FOR_DIALOG_INTERACTION
 58: 0x04FE [0x2B] Novalmauge (ID: 17461511/0x010A7107) [7360*]:
    → "But you, my friend, are different. If there is anything I can do, you need but ask me."
 59: 0x0505 [0x23] WAIT_FOR_DIALOG_INTERACTION
 60: 0x0506 [0x66] LOAD_EXT_SCHEDULER_MAIN: Load scheduler "tlk1" with entities [Novalmauge (ID: 17461511/0x010A7107), Novalmauge (ID: 17461511/0x010A7107)], work=29*
 61: 0x0515 [0x53] WAIT_SCHEDULER_TASK: Wait for scheduler "tlk1" with entities [Novalmauge (ID: 17461511/0x010A7107), Novalmauge (ID: 17461511/0x010A7107)]
 62: 0x0522 [0x1C] WAIT(5* ticks)
 63: 0x0525 [0x6E] Novalmauge (ID: 17461511/0x010A7107) uses emote 0*
 64: 0x052C [0x99] Wait for Novalmauge (ID: 17461511/0x010A7107) animation to complete
 65: 0x0531 [0x1C] WAIT(15* ticks)
 66: 0x0534 [0x2B] Novalmauge (ID: 17461511/0x010A7107) [7361*]:
    → "Here, take this. It is not much, but it is all I have. I give you my thanks."
 67: 0x053B [0x23] WAIT_FOR_DIALOG_INTERACTION
 68: 0x053C [0x1A] CALL_SUBROUTINE(address=0x07C1)
 69: 0x053F [0x1C] WAIT(15* ticks)
 70: 0x0542 [0x45] LOAD_SCHEDULED_TASK: Load scheduler "qstc" with entities [LocalPlayer, LocalPlayer], work=[201*, 0*]
 71: 0x0553 [0x45] LOAD_SCHEDULED_TASK: Load scheduler "fdi2" with entities [LocalPlayer, LocalPlayer], work=[200*, 0*]
 72: 0x0564 [0x46] CAMERA_CONTROL: Restore default settings
 73: 0x0566 [0x21] END_EVENT
 74: 0x0567 [0x00] END_REQSTACK()
```

### Event 14

#### Metadata

| Field        | Value    |
|--------------|----------|
| Entrypoint   | 0x0568   |
| Data Size    | 84 bytes |
| Instructions | 14       |

```
      00 01 02 03 04 05 06 07  08 09 0A 0B 0C 0D 0E 0F
      -- -- -- -- -- -- -- --  -- -- -- -- -- -- -- --
0560:                          1E F0 FF FF 7F 1C 1A 80          ........
0570: 4A F0 FF FF 7F 07 71 0A  01 6F 76 F0 FF FF 7F 66  J.....q..ov....f
0580: 0B 80 07 71 0A 01 07 71  0A 01 74 6C 6B 30 2B 07  ...q...q..tlk0+.
0590: 71 0A 01 3C 80 23 2B 07  71 0A 01 3D 80 23 66 0B  q..<.#+.q..=.#f.
05A0: 80 07 71 0A 01 07 71 0A  01 74 6C 6B 31 53 07 71  ..q...q..tlk1S.q
05B0: 0A 01 07 71 0A 01 74 6C  6B 31 21 00              ...q..tlk1!.    
```

#### Opcodes

```
  0: 0x0568 [0x1E] EventEntity looks at LocalPlayer and starts talking
  1: 0x056D [0x1C] WAIT(15* ticks)
  2: 0x0570 [0x4A] LocalPlayer looks at Novalmauge (ID: 17461511/0x010A7107)
  3: 0x0579 [0x6F] WAIT_FRAME_DELAY: Yield until WaitTime reaches zero
  4: 0x057A [0x76] CHECK_ENTITY_RENDER_FLAGS: Wait until LocalPlayer Render.Flags0 and Render.Flags3 conditions are met
  5: 0x057F [0x66] LOAD_EXT_SCHEDULER_MAIN: Load scheduler "tlk0" with entities [Novalmauge (ID: 17461511/0x010A7107), Novalmauge (ID: 17461511/0x010A7107)], work=29*
  6: 0x058E [0x2B] Novalmauge (ID: 17461511/0x010A7107) [7362*]:
    → "This dungeon has a dark past, especially the deepest room. There are many strange tales about it, yes..."
  7: 0x0595 [0x23] WAIT_FOR_DIALOG_INTERACTION
  8: 0x0596 [0x2B] Novalmauge (ID: 17461511/0x010A7107) [7363*]:
    → "I wouldn't be surprised if you were the one to uncover the truth."
  9: 0x059D [0x23] WAIT_FOR_DIALOG_INTERACTION
 10: 0x059E [0x66] LOAD_EXT_SCHEDULER_MAIN: Load scheduler "tlk1" with entities [Novalmauge (ID: 17461511/0x010A7107), Novalmauge (ID: 17461511/0x010A7107)], work=29*
 11: 0x05AD [0x53] WAIT_SCHEDULER_TASK: Wait for scheduler "tlk1" with entities [Novalmauge (ID: 17461511/0x010A7107), Novalmauge (ID: 17461511/0x010A7107)]
 12: 0x05BA [0x21] END_EVENT
 13: 0x05BB [0x00] END_REQSTACK()
```

### Event 15

#### Metadata

| Field        | Value    |
|--------------|----------|
| Entrypoint   | 0x05BC   |
| Data Size    | 56 bytes |
| Instructions | 14       |

```
      00 01 02 03 04 05 06 07  08 09 0A 0B 0C 0D 0E 0F
      -- -- -- -- -- -- -- --  -- -- -- -- -- -- -- --
05B0:                                      1E F0 FF FF              ....
05C0: 7F 6F 70 66 0B 80 F8 FF  FF 7F F8 FF FF 7F 74 68  .opf..........th
05D0: 6B 31 03 09 10 3E 80 1D  3F 80 23 1D 40 80 23 66  k1...>..?.#.@.#f
05E0: 0B 80 F8 FF FF 7F F8 FF  FF 7F 74 68 6B 32 1D 41  ..........thk2.A
05F0: 80 23 21 00                                       .#!.            
```

#### Opcodes

```
  0: 0x05BC [0x1E] EventEntity looks at LocalPlayer and starts talking
  1: 0x05C1 [0x6F] WAIT_FRAME_DELAY: Yield until WaitTime reaches zero
  2: 0x05C2 [0x70] WAIT_ENTITY_RENDER_FLAG: Wait while EventEntity->Render.Flags3 bit 2 is set (cancel turn if not)
  3: 0x05C3 [0x66] LOAD_EXT_SCHEDULER_MAIN: Load scheduler "thk1" with entities [EventEntity, EventEntity], work=29*
  4: 0x05D2 [0x03] Work_Zone[9] = 959*
  5: 0x05D7 [0x1D] PRINT_EVENT_MESSAGE(message_id=7364*)
    → "Eh? Someone threw poison in the water by the sluice gate? You want me to make a neutralizer, then?"
  6: 0x05DA [0x23] WAIT_FOR_DIALOG_INTERACTION
  7: 0x05DB [0x1D] PRINT_EVENT_MESSAGE(message_id=7365*)
    → "I prefer to avoid goings-on of this sort, but I cannot refuse a request from you after what you have done for me. All right, I will see what I can do!"
  8: 0x05DE [0x23] WAIT_FOR_DIALOG_INTERACTION
  9: 0x05DF [0x66] LOAD_EXT_SCHEDULER_MAIN: Load scheduler "thk2" with entities [EventEntity, EventEntity], work=29*
 10: 0x05EE [0x1D] PRINT_EVENT_MESSAGE(message_id=7366*)
    → "Bring me $7. We can use it to make a neutralizer that should put things to rights...I hope."
 11: 0x05F1 [0x23] WAIT_FOR_DIALOG_INTERACTION
 12: 0x05F2 [0x21] END_EVENT
 13: 0x05F3 [0x00] END_REQSTACK()
```

### Event 16

#### Metadata

| Field        | Value    |
|--------------|----------|
| Entrypoint   | 0x05F4   |
| Data Size    | 18 bytes |
| Instructions | 8        |

```
      00 01 02 03 04 05 06 07  08 09 0A 0B 0C 0D 0E 0F
      -- -- -- -- -- -- -- --  -- -- -- -- -- -- -- --
05F0:             1E F0 FF FF  7F 6F 70 03 09 10 3E 80      .....op...>.
0600: 1D 42 80 23 21 00                                 .B.#!.          
```

#### Opcodes

```
  0: 0x05F4 [0x1E] EventEntity looks at LocalPlayer and starts talking
  1: 0x05F9 [0x6F] WAIT_FRAME_DELAY: Yield until WaitTime reaches zero
  2: 0x05FA [0x70] WAIT_ENTITY_RENDER_FLAG: Wait while EventEntity->Render.Flags3 bit 2 is set (cancel turn if not)
  3: 0x05FB [0x03] Work_Zone[9] = 959*
  4: 0x0600 [0x1D] PRINT_EVENT_MESSAGE(message_id=7367*)
    → "Bring me $7. We can use it to make a neutralizer that should put things to rights...I hope."
  5: 0x0603 [0x23] WAIT_FOR_DIALOG_INTERACTION
  6: 0x0604 [0x21] END_EVENT
  7: 0x0605 [0x00] END_REQSTACK()
```

### Event 17

#### Metadata

| Field        | Value     |
|--------------|-----------|
| Entrypoint   | 0x0606    |
| Data Size    | 276 bytes |
| Instructions | 38        |

```
      00 01 02 03 04 05 06 07  08 09 0A 0B 0C 0D 0E 0F
      -- -- -- -- -- -- -- --  -- -- -- -- -- -- -- --
0600:                   42 1E  F0 FF FF 7F 1C 1A 80 4A        B........J
0610: F0 FF FF 7F 07 71 0A 01  6F 76 F0 FF FF 7F 1A C1  .....q..ov......
0620: 07 1C 1A 80 38 21 80 66  0B 80 07 71 0A 01 07 71  ....8!.f...q...q
0630: 0A 01 00 FE FE FE 46 01  27 10 F0 FF FF 7F 06 37  ......F.'......7
0640: 01 80 02 80 03 80 04 80  79 00 F0 FF FF 7F 07 71  ........y......q
0650: 0A 01 79 00 07 71 0A 01  F0 FF FF 7F 45 22 80 F0  ..y..q......E"..
0660: FF FF 7F F0 FF FF 7F 73  67 30 31 06 80 1A E2 07  .......sg01.....
0670: 03 09 10 3E 80 1D 43 80  23 45 2E 80 F0 FF FF 7F  ...>..C.#E......
0680: F0 FF FF 7F 66 64 6F 31  06 80 55 2E 80 F0 FF FF  ....fdo1..U.....
0690: 7F F0 FF FF 7F 66 64 6F  31 1C 26 80 45 2E 80 F0  .....fdo1.&.E...
06A0: FF FF 7F F0 FF FF 7F 66  64 69 31 06 80 55 2E 80  .......fdi1..U..
06B0: F0 FF FF 7F F0 FF FF 7F  66 64 69 31 66 44 80 F8  ........fdi1fD..
06C0: FF FF 7F F8 FF FF 7F 70  61 73 30 53 F8 FF FF 7F  .......pas0S....
06D0: F8 FF FF 7F 70 61 73 30  66 0B 80 F8 FF FF 7F F8  ....pas0f.......
06E0: FF FF 7F 74 68 6B 31 03  09 10 3E 80 1D 45 80 23  ...thk1...>..E.#
06F0: 66 0B 80 F8 FF FF 7F F8  FF FF 7F 74 68 6B 32 1A  f..........thk2.
0700: C1 07 1C 1A 80 45 2E 80  F0 FF FF 7F F0 FF FF 7F  .....E..........
0710: 66 64 69 32 06 80 46 00  21 00                    fdi2..F.!.      
```

#### Opcodes

```
  0: 0x0606 [0x42] SET_CLI_EVENT_CANCEL_DATA()
  1: 0x0607 [0x1E] EventEntity looks at LocalPlayer and starts talking
  2: 0x060C [0x1C] WAIT(15* ticks)
  3: 0x060F [0x4A] LocalPlayer looks at Novalmauge (ID: 17461511/0x010A7107)
  4: 0x0618 [0x6F] WAIT_FRAME_DELAY: Yield until WaitTime reaches zero
  5: 0x0619 [0x76] CHECK_ENTITY_RENDER_FLAGS: Wait until LocalPlayer Render.Flags0 and Render.Flags3 conditions are met
  6: 0x061E [0x1A] CALL_SUBROUTINE(address=0x07C1)
  7: 0x0621 [0x1C] WAIT(15* ticks)
  8: 0x0624 [0x38] SET_CLIENT_EVENT_MODE(mode=19*)
  9: 0x0627 [0x66] LOAD_EXT_SCHEDULER_MAIN: Load scheduler 0xFEFEFE00 with entities [Novalmauge (ID: 17461511/0x010A7107), Novalmauge (ID: 17461511/0x010A7107)], work=29*
 10: 0x0636 [0x46] CAMERA_CONTROL: Disable user control
 11: 0x0638 [0x27] REQ_SET(priority=0x10, entity_id=LocalPlayer, tag_num=0x06)
 12: 0x063F [0x37] UPDATE_EVENT_POSITION_AND_DIR: x=54.460*, z=19.508*, y=-24.014*, direction=339.2°*
 13: 0x0648 [0x79] LocalPlayer looks at Novalmauge (ID: 17461511/0x010A7107) (Basic look)
 14: 0x0652 [0x79] Novalmauge (ID: 17461511/0x010A7107) looks at LocalPlayer (Basic look)
 15: 0x065C [0x45] LOAD_SCHEDULED_TASK: Load scheduler "sg01" with entities [LocalPlayer, LocalPlayer], work=[67*, 0*]
 16: 0x066D [0x1A] CALL_SUBROUTINE(address=0x07E2)
 17: 0x0670 [0x03] Work_Zone[9] = 959*
 18: 0x0675 [0x1D] PRINT_EVENT_MESSAGE(message_id=7368*)
    → "You've brought me $7? Excellent! Now, I need a little time."
 19: 0x0678 [0x23] WAIT_FOR_DIALOG_INTERACTION
 20: 0x0679 [0x45] LOAD_SCHEDULED_TASK: Load scheduler "fdo1" with entities [LocalPlayer, LocalPlayer], work=[200*, 0*]
 21: 0x068A [0x55] WAIT_LOAD_SCHEDULER: Wait for scheduler "fdo1" with entities [LocalPlayer, LocalPlayer], work=200*
 22: 0x0699 [0x1C] WAIT(60* ticks)
 23: 0x069C [0x45] LOAD_SCHEDULED_TASK: Load scheduler "fdi1" with entities [LocalPlayer, LocalPlayer], work=[200*, 0*]
 24: 0x06AD [0x55] WAIT_LOAD_SCHEDULER: Wait for scheduler "fdi1" with entities [LocalPlayer, LocalPlayer], work=200*
 25: 0x06BC [0x66] LOAD_EXT_SCHEDULER_MAIN: Load scheduler "pas0" with entities [EventEntity, EventEntity], work=20*
 26: 0x06CB [0x53] WAIT_SCHEDULER_TASK: Wait for scheduler "pas0" with entities [EventEntity, EventEntity]
 27: 0x06D8 [0x66] LOAD_EXT_SCHEDULER_MAIN: Load scheduler "thk1" with entities [EventEntity, EventEntity], work=29*
 28: 0x06E7 [0x03] Work_Zone[9] = 959*
 29: 0x06EC [0x1D] PRINT_EVENT_MESSAGE(message_id=7369*)
    → "There! With this all will be well. Of course, it saddens me to hear this sort of thing still goes on up there. After all this time, they haven't changed."
 30: 0x06EF [0x23] WAIT_FOR_DIALOG_INTERACTION
 31: 0x06F0 [0x66] LOAD_EXT_SCHEDULER_MAIN: Load scheduler "thk2" with entities [EventEntity, EventEntity], work=29*
 32: 0x06FF [0x1A] CALL_SUBROUTINE(address=0x07C1)
 33: 0x0702 [0x1C] WAIT(15* ticks)
 34: 0x0705 [0x45] LOAD_SCHEDULED_TASK: Load scheduler "fdi2" with entities [LocalPlayer, LocalPlayer], work=[200*, 0*]
 35: 0x0716 [0x46] CAMERA_CONTROL: Restore default settings
 36: 0x0718 [0x21] END_EVENT
 37: 0x0719 [0x00] END_REQSTACK()
```

### Event 65535.3

#### Metadata

| Field        | Value    |
|--------------|----------|
| Entrypoint   | 0x071A   |
| Data Size    | 19 bytes |
| Instructions | 3        |

```
      00 01 02 03 04 05 06 07  08 09 0A 0B 0C 0D 0E 0F
      -- -- -- -- -- -- -- --  -- -- -- -- -- -- -- --
0710:                                66 0B 80 F8 FF FF            f.....
0720: 7F F8 FF FF 7F 74 6C 6B  30 1C 26 80 00           .....tlk0.&..   
```

#### Opcodes

```
  0: 0x071A [0x66] LOAD_EXT_SCHEDULER_MAIN: Load scheduler "tlk0" with entities [EventEntity, EventEntity], work=29*
  1: 0x0729 [0x1C] WAIT(60* ticks)
  2: 0x072C [0x00] END_REQSTACK()
```

### Event 65535.4

#### Metadata

| Field        | Value    |
|--------------|----------|
| Entrypoint   | 0x072D   |
| Data Size    | 19 bytes |
| Instructions | 3        |

```
      00 01 02 03 04 05 06 07  08 09 0A 0B 0C 0D 0E 0F
      -- -- -- -- -- -- -- --  -- -- -- -- -- -- -- --
0720:                                         66 0B 80               f..
0730: F8 FF FF 7F F8 FF FF 7F  74 6C 6B 31 1C 26 80 00  ........tlk1.&..
```

#### Opcodes

```
  0: 0x072D [0x66] LOAD_EXT_SCHEDULER_MAIN: Load scheduler "tlk1" with entities [EventEntity, EventEntity], work=29*
  1: 0x073C [0x1C] WAIT(60* ticks)
  2: 0x073F [0x00] END_REQSTACK()
```

### Event 65535.5

#### Metadata

| Field        | Value    |
|--------------|----------|
| Entrypoint   | 0x0740   |
| Data Size    | 19 bytes |
| Instructions | 3        |

```
      00 01 02 03 04 05 06 07  08 09 0A 0B 0C 0D 0E 0F
      -- -- -- -- -- -- -- --  -- -- -- -- -- -- -- --
0740: 66 0B 80 F8 FF FF 7F F8  FF FF 7F 74 68 6B 31 1C  f..........thk1.
0750: 26 80 00                                          &..             
```

#### Opcodes

```
  0: 0x0740 [0x66] LOAD_EXT_SCHEDULER_MAIN: Load scheduler "thk1" with entities [EventEntity, EventEntity], work=29*
  1: 0x074F [0x1C] WAIT(60* ticks)
  2: 0x0752 [0x00] END_REQSTACK()
```

### Event 65535.6

#### Metadata

| Field        | Value    |
|--------------|----------|
| Entrypoint   | 0x0753   |
| Data Size    | 19 bytes |
| Instructions | 3        |

```
      00 01 02 03 04 05 06 07  08 09 0A 0B 0C 0D 0E 0F
      -- -- -- -- -- -- -- --  -- -- -- -- -- -- -- --
0750:          66 0B 80 F8 FF  FF 7F F8 FF FF 7F 74 68     f..........th
0760: 6B 32 1C 26 80 00                                 k2.&..          
```

#### Opcodes

```
  0: 0x0753 [0x66] LOAD_EXT_SCHEDULER_MAIN: Load scheduler "thk2" with entities [EventEntity, EventEntity], work=29*
  1: 0x0762 [0x1C] WAIT(60* ticks)
  2: 0x0765 [0x00] END_REQSTACK()
```

### Event 65535.7

#### Metadata

| Field        | Value    |
|--------------|----------|
| Entrypoint   | 0x0766   |
| Data Size    | 29 bytes |
| Instructions | 3        |

```
      00 01 02 03 04 05 06 07  08 09 0A 0B 0C 0D 0E 0F
      -- -- -- -- -- -- -- --  -- -- -- -- -- -- -- --
0760:                   66 0B  80 F8 FF FF 7F F8 FF FF        f.........
0770: 7F 73 68 61 30 53 F8 FF  FF 7F F8 FF FF 7F 73 68  .sha0S........sh
0780: 61 30 00                                          a0.             
```

#### Opcodes

```
  0: 0x0766 [0x66] LOAD_EXT_SCHEDULER_MAIN: Load scheduler "sha0" with entities [EventEntity, EventEntity], work=29*
  1: 0x0775 [0x53] WAIT_SCHEDULER_TASK: Wait for scheduler "sha0" with entities [EventEntity, EventEntity]
  2: 0x0782 [0x00] END_REQSTACK()
```

### Event 65535.8

#### Metadata

| Field        | Value     |
|--------------|-----------|
| Entrypoint   | 0x0783    |
| Data Size    | 161 bytes |
| Instructions | 3         |

```
      00 01 02 03 04 05 06 07  08 09 0A 0B 0C 0D 0E 0F
      -- -- -- -- -- -- -- --  -- -- -- -- -- -- -- --
0780:          66 0B 80 F8 FF  FF 7F F8 FF FF 7F 73 68     f..........sh
0790: 61 31 53 F8 FF FF 7F F8  FF FF 7F 73 68 61 31 00  a1S........sha1.
07A0: 45 2E 80 F0 FF FF 7F F0  FF FF 7F 66 64 69 30 06  E..........fdi0.
07B0: 80 55 2E 80 F0 FF FF 7F  F0 FF FF 7F 66 64 69 30  .U..........fdi0
07C0: 1B 45 2E 80 F0 FF FF 7F  F0 FF FF 7F 66 64 6F 30  .E..........fdo0
07D0: 06 80 55 2E 80 F0 FF FF  7F F0 FF FF 7F 66 64 6F  ..U..........fdo
07E0: 30 1B 45 2E 80 F0 FF FF  7F F0 FF FF 7F 66 64 69  0.E..........fdi
07F0: 31 06 80 55 2E 80 F0 FF  FF 7F F0 FF FF 7F 66 64  1..U..........fd
0800: 69 31 1B 45 2E 80 F0 FF  FF 7F F0 FF FF 7F 66 64  i1.E..........fd
0810: 6F 31 06 80 55 2E 80 F0  FF FF 7F F0 FF FF 7F 66  o1..U..........f
0820: 64 6F 31 1B                                       do1.            
```

#### Opcodes

```
  0: 0x0783 [0x66] LOAD_EXT_SCHEDULER_MAIN: Load scheduler "sha1" with entities [EventEntity, EventEntity], work=29*
  1: 0x0792 [0x53] WAIT_SCHEDULER_TASK: Wait for scheduler "sha1" with entities [EventEntity, EventEntity]
  2: 0x079F [0x00] END_REQSTACK()
```

#### Data or dead code:

```
# Dead code (unreachable instructions):
     0x07A0 [0x45] LOAD_SCHEDULED_TASK: Load scheduler "fdi0" with entities [LocalPlayer, LocalPlayer], work=[200*, 0*]
     0x07B1 [0x55] WAIT_LOAD_SCHEDULER: Wait for scheduler "fdi0" with entities [LocalPlayer, LocalPlayer], work=200*
     0x07C0 [0x1B] RETURN
     0x07C1 [0x45] LOAD_SCHEDULED_TASK: Load scheduler "fdo0" with entities [LocalPlayer, LocalPlayer], work=[200*, 0*]
     0x07D2 [0x55] WAIT_LOAD_SCHEDULER: Wait for scheduler "fdo0" with entities [LocalPlayer, LocalPlayer], work=200*
     0x07E1 [0x1B] RETURN
     0x07E2 [0x45] LOAD_SCHEDULED_TASK: Load scheduler "fdi1" with entities [LocalPlayer, LocalPlayer], work=[200*, 0*]
     0x07F3 [0x55] WAIT_LOAD_SCHEDULER: Wait for scheduler "fdi1" with entities [LocalPlayer, LocalPlayer], work=200*
     0x0802 [0x1B] RETURN
     0x0803 [0x45] LOAD_SCHEDULED_TASK: Load scheduler "fdo1" with entities [LocalPlayer, LocalPlayer], work=[200*, 0*]
     0x0814 [0x55] WAIT_LOAD_SCHEDULER: Wait for scheduler "fdo1" with entities [LocalPlayer, LocalPlayer], work=200*
     0x0823 [0x1B] RETURN
```

### Event 6

#### Metadata

| Field        | Value   |
|--------------|---------|
| Entrypoint   | 0x0824  |
| Data Size    | 1 bytes |
| Instructions | 1       |

```
      00 01 02 03 04 05 06 07  08 09 0A 0B 0C 0D 0E 0F
      -- -- -- -- -- -- -- --  -- -- -- -- -- -- -- --
0820:             00                                        .           
```

#### Opcodes

```
  0: 0x0824 [0x00] END_REQSTACK()
```

### Event 7

#### Metadata

| Field        | Value    |
|--------------|----------|
| Entrypoint   | 0x0825   |
| Data Size    | 13 bytes |
| Instructions | 7        |

```
      00 01 02 03 04 05 06 07  08 09 0A 0B 0C 0D 0E 0F
      -- -- -- -- -- -- -- --  -- -- -- -- -- -- -- --
0820:                1E F0 FF  FF 7F 6F 70 1D 46 80 23       .....op.F.#
0830: 21 00                                             !.              
```

#### Opcodes

```
  0: 0x0825 [0x1E] EventEntity looks at LocalPlayer and starts talking
  1: 0x082A [0x6F] WAIT_FRAME_DELAY: Yield until WaitTime reaches zero
  2: 0x082B [0x70] WAIT_ENTITY_RENDER_FLAG: Wait while EventEntity->Render.Flags3 bit 2 is set (cancel turn if not)
  3: 0x082C [0x1D] PRINT_EVENT_MESSAGE(message_id=7381*)
    → "If you wish to learn of dragons, ask the archeologist, Oiheaurese, in the cathedral. He should know well their lore."
  4: 0x082F [0x23] WAIT_FOR_DIALOG_INTERACTION
  5: 0x0830 [0x21] END_EVENT
  6: 0x0831 [0x00] END_REQSTACK()
```

### Event 65535.9

#### Metadata

| Field        | Value    |
|--------------|----------|
| Entrypoint   | 0x0832   |
| Data Size    | 10 bytes |
| Instructions | 2        |

```
      00 01 02 03 04 05 06 07  08 09 0A 0B 0C 0D 0E 0F
      -- -- -- -- -- -- -- --  -- -- -- -- -- -- -- --
0830:       37 47 80 48 80 49  80 4A 80 00                7G.H.I.J..    
```

#### Opcodes

```
  0: 0x0832 [0x37] UPDATE_EVENT_POSITION_AND_DIR: x=75.887*, z=19.770*, y=-24.075*, direction=178.0°*
  1: 0x083B [0x00] END_REQSTACK()
```
