# 0x7FFFFFF0 - Zone Events

## Common Data

| Field            | Value                           |
|------------------|---------------------------------|
| Zone             | Bostaunieux Oubliette (ID: 167) |
| Block Size       | 2852 bytes                      |
| Total Events     | 10                              |
| References Count | 91                              |

## List of Events

| Event ID                 | Entrypoint   |   Size |   Instructions |
|--------------------------|--------------|--------|----------------|
| [65535](#event-65535)    | 0x0000       |      1 |              1 |
| [65534](#event-65534)    | 0x0001       |      1 |              1 |
| [65535.1](#event-655351) | 0x0002       |      6 |              2 |
| [1](#event-1)            | 0x0008       |    392 |             61 |
| [5](#event-5)            | 0x0190       |   1032 |            152 |
| [0](#event-0)            | 0x0598       |    349 |             51 |
| [65535.2](#event-655352) | 0x06F5       |     10 |              2 |
| [65535.3](#event-655353) | 0x06FF       |     36 |              4 |
| [65535.4](#event-655354) | 0x0723       |     10 |              2 |
| [9](#event-9)            | 0x072D       |    595 |             88 |

## DAT References (imed_data)

|   Index | Hex Value   |   Dec Value |
|---------|-------------|-------------|
|       0 | 0x00C8      |         200 |
|       1 | 0x0000      |           0 |
|       2 | 0x007F      |         127 |
|       3 | 0x0013      |          19 |
|       4 | 0xD862      |       55394 |
|       5 | 0x5003      |       20483 |
|       6 | 0xFFFFA213  |  4294943251 |
|       7 | 0x061A      |        1562 |
|       8 | 0x0001      |           1 |
|       9 | 0x0035      |          53 |
|      10 | 0x4199      |       16793 |
|      11 | 0x0158      |         344 |
|      12 | 0x0159      |         345 |
|      13 | 0x1CEA      |        7402 |
|      14 | 0x001E      |          30 |
|      15 | 0x1CEB      |        7403 |
|      16 | 0x1CEC      |        7404 |
|      17 | 0x1CED      |        7405 |
|      18 | 0x0402      |        1026 |
|      19 | 0x000F      |          15 |
|      20 | 0x1CEE      |        7406 |
|      21 | 0x1CEF      |        7407 |
|      22 | 0x1CF0      |        7408 |
|      23 | 0x1CF1      |        7409 |
|      24 | 0x1CF2      |        7410 |
|      25 | 0x1CF4      |        7412 |
|      26 | 0x1CF5      |        7413 |
|      27 | 0x005A      |          90 |
|      28 | 0x00A3      |         163 |
|      29 | 0x0002      |           2 |
|      30 | 0x1CF6      |        7414 |
|      31 | 0x1CF7      |        7415 |
|      32 | 0x1CF8      |        7416 |
|      33 | 0x1CF9      |        7417 |
|      34 | 0x1CFA      |        7418 |
|      35 | 0x1CFB      |        7419 |
|      36 | 0x01F4      |         500 |
|      37 | 0x003C      |          60 |
|      38 | 0x1CFC      |        7420 |
|      39 | 0x000A      |          10 |
|      40 | 0x1CFD      |        7421 |
|      41 | 0x1CFE      |        7422 |
|      42 | 0x009D      |         157 |
|      43 | 0x1CFF      |        7423 |
|      44 | 0x1D00      |        7424 |
|      45 | 0x0014      |          20 |
|      46 | 0x1D01      |        7425 |
|      47 | 0x1D02      |        7426 |
|      48 | 0x07EB      |        2027 |
|      49 | 0x1D03      |        7427 |
|      50 | 0x1D04      |        7428 |
|      51 | 0x1D05      |        7429 |
|      52 | 0x1D06      |        7430 |
|      53 | 0x1D07      |        7431 |
|      54 | 0x1D08      |        7432 |
|      55 | 0x00B4      |         180 |
|      56 | 0x1D09      |        7433 |
|      57 | 0x1D0A      |        7434 |
|      58 | 0x1D0B      |        7435 |
|      59 | 0x00F0      |         240 |
|      60 | 0x00C9      |         201 |
|      61 | 0x1CD9      |        7385 |
|      62 | 0x1CDA      |        7386 |
|      63 | 0x1CDB      |        7387 |
|      64 | 0x1CDC      |        7388 |
|      65 | 0x1CDD      |        7389 |
|      66 | 0x1CDE      |        7390 |
|      67 | 0x1CDF      |        7391 |
|      68 | 0x0043      |          67 |
|      69 | 0x11E45     |       73285 |
|      70 | 0x4C53      |       19539 |
|      71 | 0xFFFFA240  |  4294943296 |
|      72 | 0x0FA7      |        4007 |
|      73 | 0x1CA2      |        7330 |
|      74 | 0x1CA3      |        7331 |
|      75 | 0x1CA4      |        7332 |
|      76 | 0xFFFFB670  |  4294948464 |
|      77 | 0x4E0E      |       19982 |
|      78 | 0x0482      |        1154 |
|      79 | 0x083C      |        2108 |
|      80 | 0xFFFFBECD  |  4294950605 |
|      81 | 0x4DE9      |       19945 |
|      82 | 0xFFFFB9B0  |  4294949296 |
|      83 | 0x0800      |        2048 |
|      84 | 0x000D      |          13 |
|      85 | 0xFFFFB9B1  |  4294949297 |
|      86 | 0x0005      |           5 |
|      87 | 0x0009      |           9 |
|      88 | 0x0046      |          70 |
|      89 | 0x008C      |         140 |
|      90 | 0x00D2      |         210 |

## String References

- **7332**: What will you do? [Open the lid and enter./Stay up here for now.]
- **7388**: What say you? [I'll take a swing at it./I haven't the time right now.]

## Events

### Event 65535

#### Metadata

| Field        | Value   |
|--------------|---------|
| Entrypoint   | 0x0000  |
| Data Size    | 1 bytes |
| Instructions | 1       |

```
      00 01 02 03 04 05 06 07  08 09 0A 0B 0C 0D 0E 0F
      -- -- -- -- -- -- -- --  -- -- -- -- -- -- -- --
0000: 00                                                .               
```

#### Opcodes

```
  0: 0x0000 [0x00] END_REQSTACK()
```

### Event 65534

#### Metadata

| Field        | Value   |
|--------------|---------|
| Entrypoint   | 0x0001  |
| Data Size    | 1 bytes |
| Instructions | 1       |

```
      00 01 02 03 04 05 06 07  08 09 0A 0B 0C 0D 0E 0F
      -- -- -- -- -- -- -- --  -- -- -- -- -- -- -- --
0000:    00                                              .              
```

#### Opcodes

```
  0: 0x0001 [0x00] END_REQSTACK()
```

### Event 65535.1

#### Metadata

| Field        | Value   |
|--------------|---------|
| Entrypoint   | 0x0002  |
| Data Size    | 6 bytes |
| Instructions | 2       |

```
      00 01 02 03 04 05 06 07  08 09 0A 0B 0C 0D 0E 0F
      -- -- -- -- -- -- -- --  -- -- -- -- -- -- -- --
0000:       03 09 10 07 7F 00                             ......        
```

#### Opcodes

```
  0: 0x0002 [0x03] Work_Zone[9] = Entity->Race
  1: 0x0007 [0x00] END_REQSTACK()
```

### Event 1

#### Metadata

| Field        | Value     |
|--------------|-----------|
| Entrypoint   | 0x0008    |
| Data Size    | 392 bytes |
| Instructions | 61        |

```
      00 01 02 03 04 05 06 07  08 09 0A 0B 0C 0D 0E 0F
      -- -- -- -- -- -- -- --  -- -- -- -- -- -- -- --
0000:                          20 01 46 01 42 45 00 80           .F.BE..
0010: F0 FF FF 7F F0 FF FF 7F  66 64 6F 31 01 80 55 00  ........fdo1..U.
0020: 80 F0 FF FF 7F F0 FF FF  7F 66 64 6F 31 5C 00 02  .........fdo1\..
0030: 80 5C 01 02 80 38 03 80  37 04 80 05 80 06 80 07  .\...8..7.......
0040: 80 29 03 07 71 0A 01 02  97 01 80 08 80 45 09 80  .)..q........E..
0050: F0 FF FF 7F F0 FF FF 7F  78 30 30 30 01 80 55 09  ........x000..U.
0060: 80 F0 FF FF 7F F0 FF FF  7F 78 30 30 30 45 00 80  .........x000E..
0070: F0 FF FF 7F F0 FF FF 7F  66 64 69 31 01 80 55 00  ........fdi1..U.
0080: 80 F0 FF FF 7F F0 FF FF  7F 66 64 69 31 03 02 10  .........fdi1...
0090: 0A 80 03 03 10 0B 80 03  04 10 0C 80 2B 07 71 0A  ............+.q.
00A0: 01 0D 80 23 7B 07 71 0A  01 27 03 07 71 0A 01 13  ...#{.q..'..q...
00B0: 1C 0E 80 2B 07 71 0A 01  0F 80 23 27 03 07 71 0A  ...+.q....#'..q.
00C0: 01 14 2B 07 71 0A 01 10  80 23 2A 03 07 71 0A 01  ..+.q....#*..q..
00D0: 2B 07 71 0A 01 11 80 23  4B 07 71 0A 01 12 80 1C  +.q....#K.q.....
00E0: 13 80 45 09 80 F0 FF FF  7F F0 FF FF 7F 78 30 30  ..E..........x00
00F0: 31 01 80 55 09 80 F0 FF  FF 7F F0 FF FF 7F 78 30  1..U..........x0
0100: 30 31 6F 76 07 71 0A 01  2B 07 71 0A 01 14 80 23  01ov.q..+.q....#
0110: 2B 07 71 0A 01 15 80 23  4A 07 71 0A 01 F0 FF FF  +.q....#J.q.....
0120: 7F 6F 76 07 71 0A 01 27  03 07 71 0A 01 11 2B 07  .ov.q..'..q...+.
0130: 71 0A 01 16 80 23 2B 07  71 0A 01 17 80 23 27 03  q....#+.q....#'.
0140: 07 71 0A 01 12 2B 07 71  0A 01 18 80 23 2A 03 07  .q...+.q....#*..
0150: 71 0A 01 45 00 80 F0 FF  FF 7F F0 FF FF 7F 66 64  q..E..........fd
0160: 6F 32 01 80 55 00 80 F0  FF FF 7F F0 FF FF 7F 66  o2..U..........f
0170: 64 6F 32 5C 00 01 80 5C  01 01 80 46 00 45 00 80  do2\...\...F.E..
0180: F0 FF FF 7F F0 FF FF 7F  66 64 69 32 01 80 21 00  ........fdi2..!.
```

#### Opcodes

```
  0: 0x0008 [0x20] SET_CLI_EVENT_UC_FLAG: Lock player control
  1: 0x000A [0x46] CAMERA_CONTROL: Disable user control
  2: 0x000C [0x42] SET_CLI_EVENT_CANCEL_DATA()
  3: 0x000D [0x45] LOAD_SCHEDULED_TASK: Load scheduler "fdo1" with entities [LocalPlayer, LocalPlayer], work=[200*, 0*]
  4: 0x001E [0x55] WAIT_LOAD_SCHEDULER: Wait for scheduler "fdo1" with entities [LocalPlayer, LocalPlayer], work=200*
  5: 0x002D [0x5C] MUSIC_CONTROL: Set Idle (Day) music to song 127*
  6: 0x0031 [0x5C] MUSIC_CONTROL: Set Idle (Night) music to song 127*
  7: 0x0035 [0x38] SET_CLIENT_EVENT_MODE(mode=19*)
  8: 0x0038 [0x37] UPDATE_EVENT_POSITION_AND_DIR: x=55.394*, z=20.483*, y=-24.045*, direction=137.3°*
  9: 0x0041 [0x29] REQ_SET_WAIT(priority=0x03, entity_id=Novalmauge (ID: 17461511/0x010A7107), tag_num=0x02)
 10: 0x0048 [0x97] SAVE_SET_WIND_VALUES(wind_base=0x8001, wind_width=0x8008)
 11: 0x004D [0x45] LOAD_SCHEDULED_TASK: Load scheduler "x000" with entities [LocalPlayer, LocalPlayer], work=[53*, 0*]
 12: 0x005E [0x55] WAIT_LOAD_SCHEDULER: Wait for scheduler "x000" with entities [LocalPlayer, LocalPlayer], work=53*
 13: 0x006D [0x45] LOAD_SCHEDULED_TASK: Load scheduler "fdi1" with entities [LocalPlayer, LocalPlayer], work=[200*, 0*]
 14: 0x007E [0x55] WAIT_LOAD_SCHEDULER: Wait for scheduler "fdi1" with entities [LocalPlayer, LocalPlayer], work=200*
 15: 0x008D [0x03] Work_Zone[2] = 16793*
 16: 0x0092 [0x03] Work_Zone[3] = 344*
 17: 0x0097 [0x03] Work_Zone[4] = 345*
 18: 0x009C [0x2B] Novalmauge (ID: 17461511/0x010A7107) [7402*]:
    → "You have done splendidly. However, there is still one thing that remains to be done."
 19: 0x00A3 [0x23] WAIT_FOR_DIALOG_INTERACTION
 20: 0x00A4 [0x7B] Novalmauge (ID: 17461511/0x010A7107) stops talking
 21: 0x00A9 [0x27] REQ_SET(priority=0x03, entity_id=Novalmauge (ID: 17461511/0x010A7107), tag_num=0x13)
 22: 0x00B0 [0x1C] WAIT(30* ticks)
 23: 0x00B3 [0x2B] Novalmauge (ID: 17461511/0x010A7107) [7403*]:
    → "Ugh..."
 24: 0x00BA [0x23] WAIT_FOR_DIALOG_INTERACTION
 25: 0x00BB [0x27] REQ_SET(priority=0x03, entity_id=Novalmauge (ID: 17461511/0x010A7107), tag_num=0x14)
 26: 0x00C2 [0x2B] Novalmauge (ID: 17461511/0x010A7107) [7404*]:
    → "You must excuse me. My supply of medicine has run dry and I'm not in the best of shape these days."
 27: 0x00C9 [0x23] WAIT_FOR_DIALOG_INTERACTION
 28: 0x00CA [0x2A] GET_REQ_LEVEL(level=3, entity_id=Novalmauge (ID: 17461511/0x010A7107))
 29: 0x00D0 [0x2B] Novalmauge (ID: 17461511/0x010A7107) [7405*]:
    → "What caused my condition, you ask?"
 30: 0x00D7 [0x23] WAIT_FOR_DIALOG_INTERACTION
 31: 0x00D8 [0x4B] UPDATE_ENTITY_YAW(entity=Novalmauge (ID: 17461511/0x010A7107), yaw=5.6°*)
 32: 0x00DF [0x1C] WAIT(15* ticks)
 33: 0x00E2 [0x45] LOAD_SCHEDULED_TASK: Load scheduler "x001" with entities [LocalPlayer, LocalPlayer], work=[53*, 0*]
 34: 0x00F3 [0x55] WAIT_LOAD_SCHEDULER: Wait for scheduler "x001" with entities [LocalPlayer, LocalPlayer], work=53*
 35: 0x0102 [0x6F] WAIT_FRAME_DELAY: Yield until WaitTime reaches zero
 36: 0x0103 [0x76] CHECK_ENTITY_RENDER_FLAGS: Wait until Novalmauge (ID: 17461511/0x010A7107) Render.Flags0 and Render.Flags3 conditions are met
 37: 0x0108 [0x2B] Novalmauge (ID: 17461511/0x010A7107) [7406*]:
    → "I was once forced to undergo battle training in a certain place. It was there I was given a potion to drink that reduced me to this pitiful state..."
 38: 0x010F [0x23] WAIT_FOR_DIALOG_INTERACTION
 39: 0x0110 [0x2B] Novalmauge (ID: 17461511/0x010A7107) [7407*]:
    → "I spent days on end in blackness, on the brink of losing my very sense of self. I finally managed to crawl out of that darkness with my sanity intact, but my companions are still..."
 40: 0x0117 [0x23] WAIT_FOR_DIALOG_INTERACTION
 41: 0x0118 [0x4A] Novalmauge (ID: 17461511/0x010A7107) looks at LocalPlayer
 42: 0x0121 [0x6F] WAIT_FRAME_DELAY: Yield until WaitTime reaches zero
 43: 0x0122 [0x76] CHECK_ENTITY_RENDER_FLAGS: Wait until Novalmauge (ID: 17461511/0x010A7107) Render.Flags0 and Render.Flags3 conditions are met
 44: 0x0127 [0x27] REQ_SET(priority=0x03, entity_id=Novalmauge (ID: 17461511/0x010A7107), tag_num=0x11)
 45: 0x012E [0x2B] Novalmauge (ID: 17461511/0x010A7107) [7408*]:
    → "Enough of this talk. Your final trial awaits you. If this test is not completed, your effort until this point will have been for naught."
 46: 0x0135 [0x23] WAIT_FOR_DIALOG_INTERACTION
 47: 0x0136 [0x2B] Novalmauge (ID: 17461511/0x010A7107) [7409*]:
    → "Journey to the Den of Rancor with this $3 and obtain the $3. When you have bound the evil in the scythe, your exertions will be at an end."
 48: 0x013D [0x23] WAIT_FOR_DIALOG_INTERACTION
 49: 0x013E [0x27] REQ_SET(priority=0x03, entity_id=Novalmauge (ID: 17461511/0x010A7107), tag_num=0x12)
 50: 0x0145 [0x2B] Novalmauge (ID: 17461511/0x010A7107) [7410*]:
    → "I will hold the $0 here for your return. My prayers go with you..."
 51: 0x014C [0x23] WAIT_FOR_DIALOG_INTERACTION
 52: 0x014D [0x2A] GET_REQ_LEVEL(level=3, entity_id=Novalmauge (ID: 17461511/0x010A7107))
 53: 0x0153 [0x45] LOAD_SCHEDULED_TASK: Load scheduler "fdo2" with entities [LocalPlayer, LocalPlayer], work=[200*, 0*]
 54: 0x0164 [0x55] WAIT_LOAD_SCHEDULER: Wait for scheduler "fdo2" with entities [LocalPlayer, LocalPlayer], work=200*
 55: 0x0173 [0x5C] MUSIC_CONTROL: Set Idle (Day) music to song 0*
 56: 0x0177 [0x5C] MUSIC_CONTROL: Set Idle (Night) music to song 0*
 57: 0x017B [0x46] CAMERA_CONTROL: Restore default settings
 58: 0x017D [0x45] LOAD_SCHEDULED_TASK: Load scheduler "fdi2" with entities [LocalPlayer, LocalPlayer], work=[200*, 0*]
 59: 0x018E [0x21] END_EVENT
 60: 0x018F [0x00] END_REQSTACK()
```

### Event 5

#### Metadata

| Field        | Value      |
|--------------|------------|
| Entrypoint   | 0x0190     |
| Data Size    | 1032 bytes |
| Instructions | 152        |

```
      00 01 02 03 04 05 06 07  08 09 0A 0B 0C 0D 0E 0F
      -- -- -- -- -- -- -- --  -- -- -- -- -- -- -- --
0190: 20 01 46 01 42 45 00 80  F0 FF FF 7F F0 FF FF 7F   .F.BE..........
01A0: 66 64 6F 31 01 80 55 00  80 F0 FF FF 7F F0 FF FF  fdo1..U.........
01B0: 7F 66 64 6F 31 38 03 80  37 04 80 05 80 06 80 07  .fdo18..7.......
01C0: 80 29 03 07 71 0A 01 02  97 01 80 08 80 45 09 80  .)..q........E..
01D0: F0 FF FF 7F F0 FF FF 7F  78 30 30 34 01 80 55 09  ........x004..U.
01E0: 80 F0 FF FF 7F F0 FF FF  7F 78 30 30 34 45 00 80  .........x004E..
01F0: F0 FF FF 7F F0 FF FF 7F  66 64 69 31 01 80 55 00  ........fdi1..U.
0200: 80 F0 FF FF 7F F0 FF FF  7F 66 64 69 31 2B 07 71  .........fdi1+.q
0210: 0A 01 19 80 23 1C 0E 80  4E 00 38 71 0A 01 2B 38  ....#...N.8q..+8
0220: 71 0A 01 1A 80 1C 1B 80  4A 07 71 0A 01 38 71 0A  q.......J.q..8q.
0230: 01 6F 76 07 71 0A 01 4A  F0 FF FF 7F 38 71 0A 01  .ov.q..J....8q..
0240: 5C 00 1C 80 5C 01 1C 80  23 27 03 38 71 0A 01 02  \...\...#'.8q...
0250: 1C 1D 80 45 09 80 F0 FF  FF 7F F0 FF FF 7F 78 30  ...E..........x0
0260: 30 32 01 80 55 09 80 F0  FF FF 7F F0 FF FF 7F 78  02..U..........x
0270: 30 30 32 2A 03 38 71 0A  01 27 03 07 71 0A 01 11  002*.8q..'..q...
0280: 2B 07 71 0A 01 1E 80 23  29 03 07 71 0A 01 12 27  +.q....#)..q...'
0290: 03 38 71 0A 01 04 2B 38  71 0A 01 1F 80 23 2A 03  .8q...+8q....#*.
02A0: 38 71 0A 01 27 03 07 71  0A 01 13 2B 07 71 0A 01  8q..'..q...+.q..
02B0: 20 80 23 27 03 38 71 0A  01 09 1C 13 80 45 09 80   .#'.8q......E..
02C0: F0 FF FF 7F F0 FF FF 7F  78 30 30 33 01 80 2B 38  ........x003..+8
02D0: 71 0A 01 21 80 23 55 09  80 F0 FF FF 7F F0 FF FF  q..!.#U.........
02E0: 7F 78 30 30 33 2A 03 38  71 0A 01 27 03 38 71 0A  .x003*.8q..'.8q.
02F0: 01 05 2B 38 71 0A 01 22  80 23 29 03 38 71 0A 01  ..+8q..".#).8q..
0300: 06 2B 38 71 0A 01 23 80  23 5D 01 80 24 80 27 03  .+8q..#.#]..$.'.
0310: 38 71 0A 01 03 1C 25 80  29 03 07 71 0A 01 14 2B  8q....%.)..q...+
0320: 07 71 0A 01 26 80 23 1C  25 80 4A 07 71 0A 01 F0  .q..&.#.%.J.q...
0330: FF FF 7F 1C 27 80 45 09  80 F0 FF FF 7F F0 FF FF  ....'.E.........
0340: 7F 78 30 30 34 01 80 55  09 80 F0 FF FF 7F F0 FF  .x004..U........
0350: FF 7F 78 30 30 34 6F 76  07 71 0A 01 4A F0 FF FF  ..x004ov.q..J...
0360: 7F 07 71 0A 01 2B 07 71  0A 01 28 80 23 2B 07 71  ..q..+.q..(.#+.q
0370: 0A 01 29 80 23 5C 00 2A  80 5C 01 2A 80 27 03 07  ..).#\.*.\.*.'..
0380: 71 0A 01 13 2B 07 71 0A  01 2B 80 23 2B 07 71 0A  q...+.q..+.#+.q.
0390: 01 2C 80 23 27 03 07 71  0A 01 14 1C 2D 80 45 09  .,.#'..q....-.E.
03A0: 80 F0 FF FF 7F F0 FF FF  7F 78 30 30 35 01 80 55  .........x005..U
03B0: 09 80 F0 FF FF 7F F0 FF  FF 7F 78 30 30 35 2B 07  ..........x005+.
03C0: 71 0A 01 2E 80 23 2A 03  07 71 0A 01 2B 07 71 0A  q....#*..q..+.q.
03D0: 01 2F 80 23 4B 07 71 0A  01 30 80 1C 27 80 45 09  ./.#K.q..0..'.E.
03E0: 80 F0 FF FF 7F F0 FF FF  7F 78 30 30 36 01 80 6F  .........x006..o
03F0: 76 07 71 0A 01 2B 07 71  0A 01 31 80 23 55 09 80  v.q..+.q..1.#U..
0400: F0 FF FF 7F F0 FF FF 7F  78 30 30 36 2B 07 71 0A  ........x006+.q.
0410: 01 32 80 23 1C 0E 80 27  03 07 71 0A 01 08 1C 25  .2.#...'..q....%
0420: 80 45 09 80 F0 FF FF 7F  F0 FF FF 7F 78 30 30 37  .E..........x007
0430: 01 80 55 09 80 F0 FF FF  7F F0 FF FF 7F 78 30 30  ..U..........x00
0440: 37 2A 03 07 71 0A 01 2B  07 71 0A 01 33 80 23 2B  7*..q..+.q..3.#+
0450: 07 71 0A 01 34 80 23 27  03 07 71 0A 01 15 1C 25  .q..4.#'..q....%
0460: 80 45 09 80 F0 FF FF 7F  F0 FF FF 7F 78 30 30 38  .E..........x008
0470: 01 80 55 09 80 F0 FF FF  7F F0 FF FF 7F 78 30 30  ..U..........x00
0480: 38 2A 03 07 71 0A 01 2B  07 71 0A 01 35 80 23 45  8*..q..+.q..5.#E
0490: 09 80 F0 FF FF 7F F0 FF  FF 7F 78 30 30 61 01 80  ..........x00a..
04A0: 55 09 80 F0 FF FF 7F F0  FF FF 7F 78 30 30 61 2B  U..........x00a+
04B0: 07 71 0A 01 36 80 1C 37  80 23 29 03 07 71 0A 01  .q..6..7.#)..q..
04C0: 16 1C 0E 80 45 09 80 F0  FF FF 7F F0 FF FF 7F 78  ....E..........x
04D0: 30 30 62 01 80 1C 0E 80  2B 07 71 0A 01 38 80 23  00b.....+.q..8.#
04E0: 55 09 80 F0 FF FF 7F F0  FF FF 7F 78 30 30 62 1C  U..........x00b.
04F0: 25 80 45 09 80 F0 FF FF  7F F0 FF FF 7F 78 30 30  %.E..........x00
0500: 39 01 80 55 09 80 F0 FF  FF 7F F0 FF FF 7F 78 30  9..U..........x0
0510: 30 39 1C 2D 80 4A 07 71  0A 01 F0 FF FF 7F 6F 76  09.-.J.q......ov
0520: 07 71 0A 01 2B 07 71 0A  01 39 80 23 27 03 07 71  .q..+.q..9.#'..q
0530: 0A 01 11 2B 07 71 0A 01  3A 80 23 5D 01 80 3B 80  ...+.q..:.#]..;.
0540: 27 03 07 71 0A 01 12 1C  25 80 45 3C 80 F0 FF FF  '..q....%.E<....
0550: 7F F0 FF FF 7F 71 73 74  63 01 80 45 00 80 F0 FF  .....qstc..E....
0560: FF 7F F0 FF FF 7F 66 64  6F 32 01 80 55 00 80 F0  ......fdo2..U...
0570: FF FF 7F F0 FF FF 7F 66  64 6F 32 5C 00 01 80 5C  .......fdo2\...\
0580: 01 01 80 46 00 45 00 80  F0 FF FF 7F F0 FF FF 7F  ...F.E..........
0590: 66 64 69 32 01 80 21 00                           fdi2..!.        
```

#### Opcodes

```
  0: 0x0190 [0x20] SET_CLI_EVENT_UC_FLAG: Lock player control
  1: 0x0192 [0x46] CAMERA_CONTROL: Disable user control
  2: 0x0194 [0x42] SET_CLI_EVENT_CANCEL_DATA()
  3: 0x0195 [0x45] LOAD_SCHEDULED_TASK: Load scheduler "fdo1" with entities [LocalPlayer, LocalPlayer], work=[200*, 0*]
  4: 0x01A6 [0x55] WAIT_LOAD_SCHEDULER: Wait for scheduler "fdo1" with entities [LocalPlayer, LocalPlayer], work=200*
  5: 0x01B5 [0x38] SET_CLIENT_EVENT_MODE(mode=19*)
  6: 0x01B8 [0x37] UPDATE_EVENT_POSITION_AND_DIR: x=55.394*, z=20.483*, y=-24.045*, direction=137.3°*
  7: 0x01C1 [0x29] REQ_SET_WAIT(priority=0x03, entity_id=Novalmauge (ID: 17461511/0x010A7107), tag_num=0x02)
  8: 0x01C8 [0x97] SAVE_SET_WIND_VALUES(wind_base=0x8001, wind_width=0x8008)
  9: 0x01CD [0x45] LOAD_SCHEDULED_TASK: Load scheduler "x004" with entities [LocalPlayer, LocalPlayer], work=[53*, 0*]
 10: 0x01DE [0x55] WAIT_LOAD_SCHEDULER: Wait for scheduler "x004" with entities [LocalPlayer, LocalPlayer], work=53*
 11: 0x01ED [0x45] LOAD_SCHEDULED_TASK: Load scheduler "fdi1" with entities [LocalPlayer, LocalPlayer], work=[200*, 0*]
 12: 0x01FE [0x55] WAIT_LOAD_SCHEDULER: Wait for scheduler "fdi1" with entities [LocalPlayer, LocalPlayer], work=200*
 13: 0x020D [0x2B] Novalmauge (ID: 17461511/0x010A7107) [7412*]:
    → "I knew you would return victorious. Another soul...ah, another scythe has been freed from its curse. You have my gratitude."
 14: 0x0214 [0x23] WAIT_FOR_DIALOG_INTERACTION
 15: 0x0215 [0x1C] WAIT(30* ticks)
 16: 0x0218 [0x4E] SET_ENTITY_HIDE_FLAG: Show Brugaire (ID: 17461560/0x010A7138)
 17: 0x021E [0x2B] Brugaire (ID: 17461560/0x010A7138) [7413*]:
    → "Novalmauge, here's that oversized scythe of yours, freshly sharpened."
 18: 0x0225 [0x1C] WAIT(90* ticks)
 19: 0x0228 [0x4A] Novalmauge (ID: 17461511/0x010A7107) looks at Brugaire (ID: 17461560/0x010A7138)
 20: 0x0231 [0x6F] WAIT_FRAME_DELAY: Yield until WaitTime reaches zero
 21: 0x0232 [0x76] CHECK_ENTITY_RENDER_FLAGS: Wait until Novalmauge (ID: 17461511/0x010A7107) Render.Flags0 and Render.Flags3 conditions are met
 22: 0x0237 [0x4A] LocalPlayer looks at Brugaire (ID: 17461560/0x010A7138)
 23: 0x0240 [0x5C] MUSIC_CONTROL: Set Idle (Day) music to song 163*
 24: 0x0244 [0x5C] MUSIC_CONTROL: Set Idle (Night) music to song 163*
 25: 0x0248 [0x23] WAIT_FOR_DIALOG_INTERACTION
 26: 0x0249 [0x27] REQ_SET(priority=0x03, entity_id=Brugaire (ID: 17461560/0x010A7138), tag_num=0x02)
 27: 0x0250 [0x1C] WAIT(2* ticks)
 28: 0x0253 [0x45] LOAD_SCHEDULED_TASK: Load scheduler "x002" with entities [LocalPlayer, LocalPlayer], work=[53*, 0*]
 29: 0x0264 [0x55] WAIT_LOAD_SCHEDULER: Wait for scheduler "x002" with entities [LocalPlayer, LocalPlayer], work=53*
 30: 0x0273 [0x2A] GET_REQ_LEVEL(level=3, entity_id=Brugaire (ID: 17461560/0x010A7138))
 31: 0x0279 [0x27] REQ_SET(priority=0x03, entity_id=Novalmauge (ID: 17461511/0x010A7107), tag_num=0x11)
 32: 0x0280 [0x2B] Novalmauge (ID: 17461511/0x010A7107) [7414*]:
    → "Thank you, Brugaire. Here is your usual fee."
 33: 0x0287 [0x23] WAIT_FOR_DIALOG_INTERACTION
 34: 0x0288 [0x29] REQ_SET_WAIT(priority=0x03, entity_id=Novalmauge (ID: 17461511/0x010A7107), tag_num=0x12)
 35: 0x028F [0x27] REQ_SET(priority=0x03, entity_id=Brugaire (ID: 17461560/0x010A7138), tag_num=0x04)
 36: 0x0296 [0x2B] Brugaire (ID: 17461560/0x010A7138) [7415*]:
    → "As long as I get my money I don't much care, but what the hell are you doing with this thing? I've never seen anyone blunt a blade so quickly."
 37: 0x029D [0x23] WAIT_FOR_DIALOG_INTERACTION
 38: 0x029E [0x2A] GET_REQ_LEVEL(level=3, entity_id=Brugaire (ID: 17461560/0x010A7138))
 39: 0x02A4 [0x27] REQ_SET(priority=0x03, entity_id=Novalmauge (ID: 17461511/0x010A7107), tag_num=0x13)
 40: 0x02AB [0x2B] Novalmauge (ID: 17461511/0x010A7107) [7416*]:
    → "I was under the impression that the Brugaire Consortium respected the privacy of its customers. Was I mistaken?"
 41: 0x02B2 [0x23] WAIT_FOR_DIALOG_INTERACTION
 42: 0x02B3 [0x27] REQ_SET(priority=0x03, entity_id=Brugaire (ID: 17461560/0x010A7138), tag_num=0x09)
 43: 0x02BA [0x1C] WAIT(15* ticks)
 44: 0x02BD [0x45] LOAD_SCHEDULED_TASK: Load scheduler "x003" with entities [LocalPlayer, LocalPlayer], work=[53*, 0*]
 45: 0x02CE [0x2B] Brugaire (ID: 17461560/0x010A7138) [7417*]:
    → "Good grief, man. I'm not trying to grill you, I was just curious."
 46: 0x02D5 [0x23] WAIT_FOR_DIALOG_INTERACTION
 47: 0x02D6 [0x55] WAIT_LOAD_SCHEDULER: Wait for scheduler "x003" with entities [LocalPlayer, LocalPlayer], work=53*
 48: 0x02E5 [0x2A] GET_REQ_LEVEL(level=3, entity_id=Brugaire (ID: 17461560/0x010A7138))
 49: 0x02EB [0x27] REQ_SET(priority=0x03, entity_id=Brugaire (ID: 17461560/0x010A7138), tag_num=0x05)
 50: 0x02F2 [0x2B] Brugaire (ID: 17461560/0x010A7138) [7418*]:
    → "Well, I don't want to invade your privacy any longer, so I'll just get out of here, shall I? You oughta give a little thought to your reputation outside of your little world here. You're not exactly Mister Popular up in town."
 51: 0x02F9 [0x23] WAIT_FOR_DIALOG_INTERACTION
 52: 0x02FA [0x29] REQ_SET_WAIT(priority=0x03, entity_id=Brugaire (ID: 17461560/0x010A7138), tag_num=0x06)
 53: 0x0301 [0x2B] Brugaire (ID: 17461560/0x010A7138) [7419*]:
    → "I'll be seeing you."
 54: 0x0308 [0x23] WAIT_FOR_DIALOG_INTERACTION
 55: 0x0309 [0x5D] SET_MUSIC_VOLUME(volume=0*, fade_time=500*)
 56: 0x030E [0x27] REQ_SET(priority=0x03, entity_id=Brugaire (ID: 17461560/0x010A7138), tag_num=0x03)
 57: 0x0315 [0x1C] WAIT(60* ticks)
 58: 0x0318 [0x29] REQ_SET_WAIT(priority=0x03, entity_id=Novalmauge (ID: 17461511/0x010A7107), tag_num=0x14)
 59: 0x031F [0x2B] Novalmauge (ID: 17461511/0x010A7107) [7420*]:
    → "..."
 60: 0x0326 [0x23] WAIT_FOR_DIALOG_INTERACTION
 61: 0x0327 [0x1C] WAIT(60* ticks)
 62: 0x032A [0x4A] Novalmauge (ID: 17461511/0x010A7107) looks at LocalPlayer
 63: 0x0333 [0x1C] WAIT(10* ticks)
 64: 0x0336 [0x45] LOAD_SCHEDULED_TASK: Load scheduler "x004" with entities [LocalPlayer, LocalPlayer], work=[53*, 0*]
 65: 0x0347 [0x55] WAIT_LOAD_SCHEDULER: Wait for scheduler "x004" with entities [LocalPlayer, LocalPlayer], work=53*
 66: 0x0356 [0x6F] WAIT_FRAME_DELAY: Yield until WaitTime reaches zero
 67: 0x0357 [0x76] CHECK_ENTITY_RENDER_FLAGS: Wait until Novalmauge (ID: 17461511/0x010A7107) Render.Flags0 and Render.Flags3 conditions are met
 68: 0x035C [0x4A] LocalPlayer looks at Novalmauge (ID: 17461511/0x010A7107)
 69: 0x0365 [0x2B] Novalmauge (ID: 17461511/0x010A7107) [7421*]:
    → "I feel I can tell you the truth of my situation."
 70: 0x036C [0x23] WAIT_FOR_DIALOG_INTERACTION
 71: 0x036D [0x2B] Novalmauge (ID: 17461511/0x010A7107) [7422*]:
    → "Do you remember how I spoke of being forced to undergo battle training at a certain place?"
 72: 0x0374 [0x23] WAIT_FOR_DIALOG_INTERACTION
 73: 0x0375 [0x5C] MUSIC_CONTROL: Set Idle (Day) music to song 157*
 74: 0x0379 [0x5C] MUSIC_CONTROL: Set Idle (Night) music to song 157*
 75: 0x037D [0x27] REQ_SET(priority=0x03, entity_id=Novalmauge (ID: 17461511/0x010A7107), tag_num=0x13)
 76: 0x0384 [0x2B] Novalmauge (ID: 17461511/0x010A7107) [7423*]:
    → "The ones that captured me were shadows. Surely you have seen them? Those undead creatures that resemble Elvaan?"
 77: 0x038B [0x23] WAIT_FOR_DIALOG_INTERACTION
 78: 0x038C [0x2B] Novalmauge (ID: 17461511/0x010A7107) [7424*]:
    → "They kidnap young children, who are made to drink a vile potion while learning the arts of war. Eventually the children become shadows themselves. That is how they increase their numbers."
 79: 0x0393 [0x23] WAIT_FOR_DIALOG_INTERACTION
 80: 0x0394 [0x27] REQ_SET(priority=0x03, entity_id=Novalmauge (ID: 17461511/0x010A7107), tag_num=0x14)
 81: 0x039B [0x1C] WAIT(20* ticks)
 82: 0x039E [0x45] LOAD_SCHEDULED_TASK: Load scheduler "x005" with entities [LocalPlayer, LocalPlayer], work=[53*, 0*]
 83: 0x03AF [0x55] WAIT_LOAD_SCHEDULER: Wait for scheduler "x005" with entities [LocalPlayer, LocalPlayer], work=53*
 84: 0x03BE [0x2B] Novalmauge (ID: 17461511/0x010A7107) [7425*]:
    → "Have you heard the tales of Elvaan children disappearing from the Kingdom? This is the work of the shadows."
 85: 0x03C5 [0x23] WAIT_FOR_DIALOG_INTERACTION
 86: 0x03C6 [0x2A] GET_REQ_LEVEL(level=3, entity_id=Novalmauge (ID: 17461511/0x010A7107))
 87: 0x03CC [0x2B] Novalmauge (ID: 17461511/0x010A7107) [7426*]:
    → "Hard to believe? I know it to be true, for I was one of those children..."
 88: 0x03D3 [0x23] WAIT_FOR_DIALOG_INTERACTION
 89: 0x03D4 [0x4B] UPDATE_ENTITY_YAW(entity=Novalmauge (ID: 17461511/0x010A7107), yaw=11.1°*)
 90: 0x03DB [0x1C] WAIT(10* ticks)
 91: 0x03DE [0x45] LOAD_SCHEDULED_TASK: Load scheduler "x006" with entities [LocalPlayer, LocalPlayer], work=[53*, 0*]
 92: 0x03EF [0x6F] WAIT_FRAME_DELAY: Yield until WaitTime reaches zero
 93: 0x03F0 [0x76] CHECK_ENTITY_RENDER_FLAGS: Wait until Novalmauge (ID: 17461511/0x010A7107) Render.Flags0 and Render.Flags3 conditions are met
 94: 0x03F5 [0x2B] Novalmauge (ID: 17461511/0x010A7107) [7427*]:
    → "The shadows that roam the darkness today were once my friends, abducted as I was. When the transformation into shadow is complete, all sense of self is lost. My companions no longer recognize me."
 95: 0x03FC [0x23] WAIT_FOR_DIALOG_INTERACTION
 96: 0x03FD [0x55] WAIT_LOAD_SCHEDULER: Wait for scheduler "x006" with entities [LocalPlayer, LocalPlayer], work=53*
 97: 0x040C [0x2B] Novalmauge (ID: 17461511/0x010A7107) [7428*]:
    → "To release their souls from damnation, I shun the sun's rays and hunt shadows in this perpetual night. This scythe is their salvation."
 98: 0x0413 [0x23] WAIT_FOR_DIALOG_INTERACTION
 99: 0x0414 [0x1C] WAIT(30* ticks)
100: 0x0417 [0x27] REQ_SET(priority=0x03, entity_id=Novalmauge (ID: 17461511/0x010A7107), tag_num=0x08)
101: 0x041E [0x1C] WAIT(60* ticks)
102: 0x0421 [0x45] LOAD_SCHEDULED_TASK: Load scheduler "x007" with entities [LocalPlayer, LocalPlayer], work=[53*, 0*]
103: 0x0432 [0x55] WAIT_LOAD_SCHEDULER: Wait for scheduler "x007" with entities [LocalPlayer, LocalPlayer], work=53*
104: 0x0441 [0x2A] GET_REQ_LEVEL(level=3, entity_id=Novalmauge (ID: 17461511/0x010A7107))
105: 0x0447 [0x2B] Novalmauge (ID: 17461511/0x010A7107) [7429*]:
    → "I escaped that blackest night once, only to find a deeper kind of darkness waiting for me in the form of despair. Perhaps this is my penance for being the sole survivor."
106: 0x044E [0x23] WAIT_FOR_DIALOG_INTERACTION
107: 0x044F [0x2B] Novalmauge (ID: 17461511/0x010A7107) [7430*]:
    → "I cannot blame people for thinking I am some kind of vampire. I see my own actions as monstrous."
108: 0x0456 [0x23] WAIT_FOR_DIALOG_INTERACTION
109: 0x0457 [0x27] REQ_SET(priority=0x03, entity_id=Novalmauge (ID: 17461511/0x010A7107), tag_num=0x15)
110: 0x045E [0x1C] WAIT(60* ticks)
111: 0x0461 [0x45] LOAD_SCHEDULED_TASK: Load scheduler "x008" with entities [LocalPlayer, LocalPlayer], work=[53*, 0*]
112: 0x0472 [0x55] WAIT_LOAD_SCHEDULER: Wait for scheduler "x008" with entities [LocalPlayer, LocalPlayer], work=53*
113: 0x0481 [0x2A] GET_REQ_LEVEL(level=3, entity_id=Novalmauge (ID: 17461511/0x010A7107))
114: 0x0487 [0x2B] Novalmauge (ID: 17461511/0x010A7107) [7431*]:
    → "But I care not for other people's opinions; I merely do what I must. To grant their souls peace by my own hand...I owe my companions that, at least."
115: 0x048E [0x23] WAIT_FOR_DIALOG_INTERACTION
116: 0x048F [0x45] LOAD_SCHEDULED_TASK: Load scheduler "x00a" with entities [LocalPlayer, LocalPlayer], work=[53*, 0*]
117: 0x04A0 [0x55] WAIT_LOAD_SCHEDULER: Wait for scheduler "x00a" with entities [LocalPlayer, LocalPlayer], work=53*
118: 0x04AF [0x2B] Novalmauge (ID: 17461511/0x010A7107) [7432*]:
    → "Forgive me, my friends..."
119: 0x04B6 [0x1C] WAIT(180* ticks)
120: 0x04B9 [0x23] WAIT_FOR_DIALOG_INTERACTION
121: 0x04BA [0x29] REQ_SET_WAIT(priority=0x03, entity_id=Novalmauge (ID: 17461511/0x010A7107), tag_num=0x16)
122: 0x04C1 [0x1C] WAIT(30* ticks)
123: 0x04C4 [0x45] LOAD_SCHEDULED_TASK: Load scheduler "x00b" with entities [LocalPlayer, LocalPlayer], work=[53*, 0*]
124: 0x04D5 [0x1C] WAIT(30* ticks)
125: 0x04D8 [0x2B] Novalmauge (ID: 17461511/0x010A7107) [7433*]:
    → "My entire existence is here in the darkness."
126: 0x04DF [0x23] WAIT_FOR_DIALOG_INTERACTION
127: 0x04E0 [0x55] WAIT_LOAD_SCHEDULER: Wait for scheduler "x00b" with entities [LocalPlayer, LocalPlayer], work=53*
128: 0x04EF [0x1C] WAIT(60* ticks)
129: 0x04F2 [0x45] LOAD_SCHEDULED_TASK: Load scheduler "x009" with entities [LocalPlayer, LocalPlayer], work=[53*, 0*]
130: 0x0503 [0x55] WAIT_LOAD_SCHEDULER: Wait for scheduler "x009" with entities [LocalPlayer, LocalPlayer], work=53*
131: 0x0512 [0x1C] WAIT(20* ticks)
132: 0x0515 [0x4A] Novalmauge (ID: 17461511/0x010A7107) looks at LocalPlayer
133: 0x051E [0x6F] WAIT_FRAME_DELAY: Yield until WaitTime reaches zero
134: 0x051F [0x76] CHECK_ENTITY_RENDER_FLAGS: Wait until Novalmauge (ID: 17461511/0x010A7107) Render.Flags0 and Render.Flags3 conditions are met
135: 0x0524 [0x2B] Novalmauge (ID: 17461511/0x010A7107) [7434*]:
    → "Whenever you release the soul of a shadow, I ask that you whisper a prayer for them:"
136: 0x052B [0x23] WAIT_FOR_DIALOG_INTERACTION
137: 0x052C [0x27] REQ_SET(priority=0x03, entity_id=Novalmauge (ID: 17461511/0x010A7107), tag_num=0x11)
138: 0x0533 [0x2B] Novalmauge (ID: 17461511/0x010A7107) [7435*]:
    → ""May your next life be bathed in bless<Player>hd light...""
139: 0x053A [0x23] WAIT_FOR_DIALOG_INTERACTION
140: 0x053B [0x5D] SET_MUSIC_VOLUME(volume=0*, fade_time=240*)
141: 0x0540 [0x27] REQ_SET(priority=0x03, entity_id=Novalmauge (ID: 17461511/0x010A7107), tag_num=0x12)
142: 0x0547 [0x1C] WAIT(60* ticks)
143: 0x054A [0x45] LOAD_SCHEDULED_TASK: Load scheduler "qstc" with entities [LocalPlayer, LocalPlayer], work=[201*, 0*]
144: 0x055B [0x45] LOAD_SCHEDULED_TASK: Load scheduler "fdo2" with entities [LocalPlayer, LocalPlayer], work=[200*, 0*]
145: 0x056C [0x55] WAIT_LOAD_SCHEDULER: Wait for scheduler "fdo2" with entities [LocalPlayer, LocalPlayer], work=200*
146: 0x057B [0x5C] MUSIC_CONTROL: Set Idle (Day) music to song 0*
147: 0x057F [0x5C] MUSIC_CONTROL: Set Idle (Night) music to song 0*
148: 0x0583 [0x46] CAMERA_CONTROL: Restore default settings
149: 0x0585 [0x45] LOAD_SCHEDULED_TASK: Load scheduler "fdi2" with entities [LocalPlayer, LocalPlayer], work=[200*, 0*]
150: 0x0596 [0x21] END_EVENT
151: 0x0597 [0x00] END_REQSTACK()
```

### Event 0

#### Metadata

| Field        | Value     |
|--------------|-----------|
| Entrypoint   | 0x0598    |
| Data Size    | 349 bytes |
| Instructions | 51        |

```
      00 01 02 03 04 05 06 07  08 09 0A 0B 0C 0D 0E 0F
      -- -- -- -- -- -- -- --  -- -- -- -- -- -- -- --
0590:                          20 01 46 01 42 45 00 80           .F.BE..
05A0: F0 FF FF 7F F0 FF FF 7F  66 64 6F 31 01 80 55 00  ........fdo1..U.
05B0: 80 F0 FF FF 7F F0 FF FF  7F 66 64 6F 31 5C 00 1C  .........fdo1\..
05C0: 80 5C 01 1C 80 38 03 80  37 04 80 05 80 06 80 07  .\...8..7.......
05D0: 80 29 03 07 71 0A 01 02  97 01 80 08 80 45 09 80  .)..q........E..
05E0: F0 FF FF 7F F0 FF FF 7F  78 30 30 31 01 80 55 09  ........x001..U.
05F0: 80 F0 FF FF 7F F0 FF FF  7F 78 30 30 31 45 00 80  .........x001E..
0600: F0 FF FF 7F F0 FF FF 7F  66 64 69 31 01 80 55 00  ........fdi1..U.
0610: 80 F0 FF FF 7F F0 FF FF  7F 66 64 69 31 27 03 07  .........fdi1'..
0620: 71 0A 01 13 2B 07 71 0A  01 3D 80 23 2B 07 71 0A  q...+.q..=.#+.q.
0630: 01 3E 80 23 27 03 07 71  0A 01 14 1C 2D 80 45 09  .>.#'..q....-.E.
0640: 80 F0 FF FF 7F F0 FF FF  7F 78 30 30 30 01 80 55  .........x000..U
0650: 09 80 F0 FF FF 7F F0 FF  FF 7F 78 30 30 30 2B 07  ..........x000+.
0660: 71 0A 01 3F 80 23 2A 03  07 71 0A 01 06 01 10 24  q..?.#*..q.....$
0670: 40 80 08 80 01 80 25 02  00 10 01 80 00 A5 06 27  @.....%........'
0680: 03 07 71 0A 01 11 2B 07  71 0A 01 41 80 23 2B 07  ..q...+.q..A.#+.
0690: 71 0A 01 42 80 23 27 03  07 71 0A 01 12 03 01 10  q..B.#'..q......
06A0: 08 80 01 B8 06 02 00 10  08 80 00 B8 06 2B 07 71  .............+.q
06B0: 0A 01 43 80 23 01 B8 06  45 00 80 F0 FF FF 7F F0  ..C.#...E.......
06C0: FF FF 7F 66 64 6F 32 01  80 55 00 80 F0 FF FF 7F  ...fdo2..U......
06D0: F0 FF FF 7F 66 64 6F 32  5C 00 01 80 5C 01 01 80  ....fdo2\...\...
06E0: 46 00 45 00 80 F0 FF FF  7F F0 FF FF 7F 66 64 69  F.E..........fdi
06F0: 32 01 80 21 00                                    2..!.           
```

#### Opcodes

```
  0: 0x0598 [0x20] SET_CLI_EVENT_UC_FLAG: Lock player control
  1: 0x059A [0x46] CAMERA_CONTROL: Disable user control
  2: 0x059C [0x42] SET_CLI_EVENT_CANCEL_DATA()
  3: 0x059D [0x45] LOAD_SCHEDULED_TASK: Load scheduler "fdo1" with entities [LocalPlayer, LocalPlayer], work=[200*, 0*]
  4: 0x05AE [0x55] WAIT_LOAD_SCHEDULER: Wait for scheduler "fdo1" with entities [LocalPlayer, LocalPlayer], work=200*
  5: 0x05BD [0x5C] MUSIC_CONTROL: Set Idle (Day) music to song 163*
  6: 0x05C1 [0x5C] MUSIC_CONTROL: Set Idle (Night) music to song 163*
  7: 0x05C5 [0x38] SET_CLIENT_EVENT_MODE(mode=19*)
  8: 0x05C8 [0x37] UPDATE_EVENT_POSITION_AND_DIR: x=55.394*, z=20.483*, y=-24.045*, direction=137.3°*
  9: 0x05D1 [0x29] REQ_SET_WAIT(priority=0x03, entity_id=Novalmauge (ID: 17461511/0x010A7107), tag_num=0x02)
 10: 0x05D8 [0x97] SAVE_SET_WIND_VALUES(wind_base=0x8001, wind_width=0x8008)
 11: 0x05DD [0x45] LOAD_SCHEDULED_TASK: Load scheduler "x001" with entities [LocalPlayer, LocalPlayer], work=[53*, 0*]
 12: 0x05EE [0x55] WAIT_LOAD_SCHEDULER: Wait for scheduler "x001" with entities [LocalPlayer, LocalPlayer], work=53*
 13: 0x05FD [0x45] LOAD_SCHEDULED_TASK: Load scheduler "fdi1" with entities [LocalPlayer, LocalPlayer], work=[200*, 0*]
 14: 0x060E [0x55] WAIT_LOAD_SCHEDULER: Wait for scheduler "fdi1" with entities [LocalPlayer, LocalPlayer], work=200*
 15: 0x061D [0x27] REQ_SET(priority=0x03, entity_id=Novalmauge (ID: 17461511/0x010A7107), tag_num=0x13)
 16: 0x0624 [0x2B] Novalmauge (ID: 17461511/0x010A7107) [7385*]:
    → "You are also a wielder of the scythe? And quite a skilled one, I dare say. Though it may not appear likely, I, too, have some small ability with that weapon. I actually have quite a collection of scythes."
 17: 0x062B [0x23] WAIT_FOR_DIALOG_INTERACTION
 18: 0x062C [0x2B] Novalmauge (ID: 17461511/0x010A7107) [7386*]:
    → "One of the scythes I possess has a decidedly ominous aura. "Cursed" is the only way I can describe it. A perfectly sane person who takes up this scythe begins to act in the most unusual manner..."
 19: 0x0633 [0x23] WAIT_FOR_DIALOG_INTERACTION
 20: 0x0634 [0x27] REQ_SET(priority=0x03, entity_id=Novalmauge (ID: 17461511/0x010A7107), tag_num=0x14)
 21: 0x063B [0x1C] WAIT(20* ticks)
 22: 0x063E [0x45] LOAD_SCHEDULED_TASK: Load scheduler "x000" with entities [LocalPlayer, LocalPlayer], work=[53*, 0*]
 23: 0x064F [0x55] WAIT_LOAD_SCHEDULER: Wait for scheduler "x000" with entities [LocalPlayer, LocalPlayer], work=53*
 24: 0x065E [0x2B] Novalmauge (ID: 17461511/0x010A7107) [7387*]:
    → "It is said, however, that if the curse on the scythe can be overcome by the heat of many battles, the wielder gains the knowledge of a new weapon technique. What say you? Are you up to the challenge?"
 25: 0x0665 [0x23] WAIT_FOR_DIALOG_INTERACTION
 26: 0x0666 [0x2A] GET_REQ_LEVEL(level=3, entity_id=Novalmauge (ID: 17461511/0x010A7107))
 27: 0x066C [0x06] Work_Zone[1] = 0
 28: 0x066F [0x24] CREATE_DIALOG(message_id=7388*, default_option=1*, option_flags=0*)
    → "What say you? [I'll take a swing at it./I haven't the time right now.]"
 29: 0x0676 [0x25] WAIT_DIALOG_SELECT()
 30: 0x0677 [0x02] IF !(Work_Zone[0] == 0*) GOTO 0x06A5
 31: 0x067F [0x27] REQ_SET(priority=0x03, entity_id=Novalmauge (ID: 17461511/0x010A7107), tag_num=0x11)
 32: 0x0686 [0x2B] Novalmauge (ID: 17461511/0x010A7107) [7389*]:
    → "Excellent. Here is the weapon. When the curse has been lifted, the scythe will lose its power. Bring it back to me when this happens and I will see if the blight has truly been cleansed."
 33: 0x068D [0x23] WAIT_FOR_DIALOG_INTERACTION
 34: 0x068E [0x2B] Novalmauge (ID: 17461511/0x010A7107) [7390*]:
    → "Take care not to lose yourself to the curse..."
 35: 0x0695 [0x23] WAIT_FOR_DIALOG_INTERACTION
 36: 0x0696 [0x27] REQ_SET(priority=0x03, entity_id=Novalmauge (ID: 17461511/0x010A7107), tag_num=0x12)
 37: 0x069D [0x03] Work_Zone[1] = 1*
 38: 0x06A2 [0x01] GOTO 0x06B8
 39: 0x06A5 [0x02] IF !(Work_Zone[0] == 1*) GOTO 0x06B8
 40: 0x06AD [0x2B] Novalmauge (ID: 17461511/0x010A7107) [7391*]:
    → "If that's the case, perhaps it would be better if you forgot we ever had this conversation..."
 41: 0x06B4 [0x23] WAIT_FOR_DIALOG_INTERACTION
 42: 0x06B5 [0x01] GOTO 0x06B8

SUBROUTINE_06B8:
 43: 0x06B8 [0x45] LOAD_SCHEDULED_TASK: Load scheduler "fdo2" with entities [LocalPlayer, LocalPlayer], work=[200*, 0*]
 44: 0x06C9 [0x55] WAIT_LOAD_SCHEDULER: Wait for scheduler "fdo2" with entities [LocalPlayer, LocalPlayer], work=200*
 45: 0x06D8 [0x5C] MUSIC_CONTROL: Set Idle (Day) music to song 0*
 46: 0x06DC [0x5C] MUSIC_CONTROL: Set Idle (Night) music to song 0*
 47: 0x06E0 [0x46] CAMERA_CONTROL: Restore default settings
 48: 0x06E2 [0x45] LOAD_SCHEDULED_TASK: Load scheduler "fdi2" with entities [LocalPlayer, LocalPlayer], work=[200*, 0*]
 49: 0x06F3 [0x21] END_EVENT
 50: 0x06F4 [0x00] END_REQSTACK()
```

### Event 65535.2

#### Metadata

| Field        | Value    |
|--------------|----------|
| Entrypoint   | 0x06F5   |
| Data Size    | 10 bytes |
| Instructions | 2        |

```
      00 01 02 03 04 05 06 07  08 09 0A 0B 0C 0D 0E 0F
      -- -- -- -- -- -- -- --  -- -- -- -- -- -- -- --
06F0:                37 04 80  05 80 06 80 07 80 00          7......... 
```

#### Opcodes

```
  0: 0x06F5 [0x37] UPDATE_EVENT_POSITION_AND_DIR: x=55.394*, z=20.483*, y=-24.045*, direction=137.3°*
  1: 0x06FE [0x00] END_REQSTACK()
```

### Event 65535.3

#### Metadata

| Field        | Value    |
|--------------|----------|
| Entrypoint   | 0x06FF   |
| Data Size    | 36 bytes |
| Instructions | 4        |

```
      00 01 02 03 04 05 06 07  08 09 0A 0B 0C 0D 0E 0F
      -- -- -- -- -- -- -- --  -- -- -- -- -- -- -- --
06F0:                                               1C                 .
0700: 0E 80 45 44 80 F0 FF FF  7F F0 FF FF 7F 73 67 30  ..ED.........sg0
0710: 33 01 80 55 44 80 F0 FF  FF 7F F0 FF FF 7F 73 67  3..UD.........sg
0720: 30 33 00                                          03.             
```

#### Opcodes

```
  0: 0x06FF [0x1C] WAIT(30* ticks)
  1: 0x0702 [0x45] LOAD_SCHEDULED_TASK: Load scheduler "sg03" with entities [LocalPlayer, LocalPlayer], work=[67*, 0*]
  2: 0x0713 [0x55] WAIT_LOAD_SCHEDULER: Wait for scheduler "sg03" with entities [LocalPlayer, LocalPlayer], work=67*
  3: 0x0722 [0x00] END_REQSTACK()
```

### Event 65535.4

#### Metadata

| Field        | Value    |
|--------------|----------|
| Entrypoint   | 0x0723   |
| Data Size    | 10 bytes |
| Instructions | 2        |

```
      00 01 02 03 04 05 06 07  08 09 0A 0B 0C 0D 0E 0F
      -- -- -- -- -- -- -- --  -- -- -- -- -- -- -- --
0720:          37 45 80 46 80  47 80 48 80 00              7E.F.G.H..   
```

#### Opcodes

```
  0: 0x0723 [0x37] UPDATE_EVENT_POSITION_AND_DIR: x=73.285*, z=19.539*, y=-24.000*, direction=352.2°*
  1: 0x072C [0x00] END_REQSTACK()
```

### Event 9

#### Metadata

| Field        | Value     |
|--------------|-----------|
| Entrypoint   | 0x072D    |
| Data Size    | 595 bytes |
| Instructions | 64        |

```
      00 01 02 03 04 05 06 07  08 09 0A 0B 0C 0D 0E 0F
      -- -- -- -- -- -- -- --  -- -- -- -- -- -- -- --
0720:                                         4A 0B 71               J.q
0730: 0A 01 F0 FF FF 7F 6F 76  0B 71 0A 01 2B 0B 71 0A  ......ov.q..+.q.
0740: 01 49 80 23 2B 0B 71 0A  01 4A 80 23 24 4B 80 08  .I.#+.q..J.#$K..
0750: 80 01 80 25 02 00 10 01  80 00 EA 08 43 00 43 01  ...%........C.C.
0760: 20 01 46 01 42 45 00 80  F0 FF FF 7F F0 FF FF 7F   .F.BE..........
0770: 66 64 6F 31 01 80 55 00  80 F0 FF FF 7F F0 FF FF  fdo1..U.........
0780: 7F 66 64 6F 31 38 03 80  79 00 F0 FF FF 7F F0 FF  .fdo18..y.......
0790: FF 7F 47 00 4C 80 4D 80  4E 80 4F 80 47 01 37 50  ..G.L.M.N.O.G.7P
07A0: 80 51 80 52 80 53 80 97  01 80 08 80 45 44 80 F0  .Q.R.S......ED..
07B0: FF FF 7F F0 FF FF 7F 71  30 30 30 01 80 55 44 80  .......q000..UD.
07C0: F0 FF FF 7F F0 FF FF 7F  71 30 30 30 03 00 00 87  ........q000....
07D0: 7F 1A EC 08 66 01 00 F0  FF FF 7F F0 FF FF 7F 00  ....f...........
07E0: FE FE FE 45 00 80 F0 FF  FF 7F F0 FF FF 7F 66 64  ...E..........fd
07F0: 69 31 01 80 55 00 80 F0  FF FF 7F F0 FF FF 7F 66  i1..U..........f
0800: 64 69 31 1C 25 80 32 54  80 1F 00 4C 80 4D 80 55  di1.%.2T...L.M.U
0810: 80 1F 01 1C 25 80 29 03  0C 71 0A 01 02 1C 56 80  ....%.)..q....V.
0820: 45 44 80 F0 FF FF 7F F0  FF FF 7F 71 30 30 31 01  ED.........q001.
0830: 80 55 44 80 F0 FF FF 7F  F0 FF FF 7F 71 30 30 31  .UD.........q001
0840: 66 01 00 F0 FF FF 7F F0  FF FF 7F 73 68 61 30 1C  f..........sha0.
0850: 56 80 45 44 80 F0 FF FF  7F F0 FF FF 7F 71 30 30  V.ED.........q00
0860: 32 01 80 55 44 80 F0 FF  FF 7F F0 FF FF 7F 71 30  2..UD.........q0
0870: 30 32 1C 56 80 45 44 80  F0 FF FF 7F F0 FF FF 7F  02.V.ED.........
0880: 71 30 30 33 01 80 55 44  80 F0 FF FF 7F F0 FF FF  q003..UD........
0890: 7F 71 30 30 33 1C 25 80  66 01 00 F0 FF FF 7F F0  .q003.%.f.......
08A0: FF FF 7F 73 68 61 31 53  F0 FF FF 7F F0 FF FF 7F  ...sha1S........
08B0: 73 68 61 31 45 00 80 F0  FF FF 7F F0 FF FF 7F 66  sha1E..........f
08C0: 64 6F 32 01 80 55 00 80  F0 FF FF 7F F0 FF FF 7F  do2..U..........
08D0: 66 64 6F 32 46 00 45 00  80 F0 FF FF 7F F0 FF FF  fdo2F.E.........
08E0: 7F 66 64 69 32 01 80 01  EA 08 21 00 03 01 00 00  .fdi2.....!.....
08F0: 00 02 01 00 56 80 05 01  09 08 01 00 08 80 01 06  ....V...........
0900: 09 08 01 00 1D 80 14 01  00 27 80 07 01 00 57 80  .........'....W.
0910: 1B 03 01 00 00 00 02 01  00 56 80 05 26 09 08 01  .........V..&...
0920: 00 08 80 01 2B 09 08 01  00 1D 80 14 01 00 27 80  ....+.........'.
0930: 07 01 00 58 80 1B 03 01  00 00 00 02 01 00 56 80  ...X..........V.
0940: 05 4B 09 08 01 00 08 80  01 50 09 08 01 00 1D 80  .K.......P......
0950: 14 01 00 27 80 07 01 00  59 80 1B 03 01 00 00 00  ...'....Y.......
0960: 02 01 00 56 80 05 70 09  08 01 00 08 80 01 75 09  ...V..p.......u.
0970: 08 01 00 1D 80 14 01 00  27 80 07 01 00 5A 80 1B  ........'....Z..
```

#### Opcodes

```
  0: 0x072D [0x4A] Couchatorage (ID: 17461515/0x010A710B) looks at LocalPlayer
  1: 0x0736 [0x6F] WAIT_FRAME_DELAY: Yield until WaitTime reaches zero
  2: 0x0737 [0x76] CHECK_ENTITY_RENDER_FLAGS: Wait until Couchatorage (ID: 17461515/0x010A710B) Render.Flags0 and Render.Flags3 conditions are met
  3: 0x073C [0x2B] Couchatorage (ID: 17461515/0x010A710B) [7330*]:
    → "In past times, it was said that nobles accused of treason were thrown down there. They would wander for days through the maze of sewer tunnels, until they would finally collapse from starvation."
  4: 0x0743 [0x23] WAIT_FOR_DIALOG_INTERACTION
  5: 0x0744 [0x2B] Couchatorage (ID: 17461515/0x010A710B) [7331*]:
    → "Now terrible beasts prowl through the darkness. If you have the courage, you may enter."
  6: 0x074B [0x23] WAIT_FOR_DIALOG_INTERACTION
  7: 0x074C [0x24] CREATE_DIALOG(message_id=7332*, default_option=1*, option_flags=0*)
    → "What will you do? [Open the lid and enter./Stay up here for now.]"
  8: 0x0753 [0x25] WAIT_DIALOG_SELECT()
  9: 0x0754 [0x02] IF !(Work_Zone[0] == 0*) GOTO 0x08EA
 10: 0x075C [0x43] SEND_EVENT_UPDATE: Send pending tag to server (packet 0x005B)
 11: 0x075E [0x43] SEND_EVENT_UPDATE: Check pending flag (skip if not pending)
 12: 0x0760 [0x20] SET_CLI_EVENT_UC_FLAG: Lock player control
 13: 0x0762 [0x46] CAMERA_CONTROL: Disable user control
 14: 0x0764 [0x42] SET_CLI_EVENT_CANCEL_DATA()
 15: 0x0765 [0x45] LOAD_SCHEDULED_TASK: Load scheduler "fdo1" with entities [LocalPlayer, LocalPlayer], work=[200*, 0*]
 16: 0x0776 [0x55] WAIT_LOAD_SCHEDULER: Wait for scheduler "fdo1" with entities [LocalPlayer, LocalPlayer], work=200*
 17: 0x0785 [0x38] SET_CLIENT_EVENT_MODE(mode=19*)
 18: 0x0788 [0x79] LocalPlayer looks at LocalPlayer (Basic look)
 19: 0x0792 [0x47] UPDATE_PLAYER_POS(-18.832*, 19.982*, 1.154*, yaw=185.3°*)
 20: 0x079C [0x47] WAIT_PLAYER_POS_UPDATE
 21: 0x079E [0x37] UPDATE_EVENT_POSITION_AND_DIR: x=-16.691*, z=19.945*, y=-18.000*, direction=180.0°*
 22: 0x07A7 [0x97] SAVE_SET_WIND_VALUES(wind_base=0x8001, wind_width=0x8008)
 23: 0x07AC [0x45] LOAD_SCHEDULED_TASK: Load scheduler "q000" with entities [LocalPlayer, LocalPlayer], work=[67*, 0*]
 24: 0x07BD [0x55] WAIT_LOAD_SCHEDULER: Wait for scheduler "q000" with entities [LocalPlayer, LocalPlayer], work=67*
 25: 0x07CC [0x03] ExtData[1]->WorkLocal[0] = LocalPlayer->Race
 26: 0x07D1 [0x1A] CALL_SUBROUTINE(address=0x08EC)
 27: 0x07D4 [0x66] LOAD_EXT_SCHEDULER_MAIN: Load scheduler 0xFEFEFE00 with entities [LocalPlayer, LocalPlayer], work=ExtData[1]->WorkLocal[1]
 28: 0x07E3 [0x45] LOAD_SCHEDULED_TASK: Load scheduler "fdi1" with entities [LocalPlayer, LocalPlayer], work=[200*, 0*]
 29: 0x07F4 [0x55] WAIT_LOAD_SCHEDULER: Wait for scheduler "fdi1" with entities [LocalPlayer, LocalPlayer], work=200*
 30: 0x0803 [0x1C] WAIT(60* ticks)
 31: 0x0806 [0x32] ExtData[1]->MainSpeed = 13* * 0.1
 32: 0x0809 [0x1F] MOVE_ENTITY: EventEntity moves to X=-18.832*, Z=19.982*, Y=-17.999*
 33: 0x0811 [0x1F] MOVE_ENTITY: Update entity position (mode=1)
 34: 0x0813 [0x1C] WAIT(60* ticks)
 35: 0x0816 [0x29] REQ_SET_WAIT(priority=0x03, entity_id=Sewer Lid (ID: 17461516/0x010A710C), tag_num=0x02)
 36: 0x081D [0x1C] WAIT(5* ticks)
 37: 0x0820 [0x45] LOAD_SCHEDULED_TASK: Load scheduler "q001" with entities [LocalPlayer, LocalPlayer], work=[67*, 0*]
 38: 0x0831 [0x55] WAIT_LOAD_SCHEDULER: Wait for scheduler "q001" with entities [LocalPlayer, LocalPlayer], work=67*
 39: 0x0840 [0x66] LOAD_EXT_SCHEDULER_MAIN: Load scheduler "sha0" with entities [LocalPlayer, LocalPlayer], work=ExtData[1]->WorkLocal[1]
 40: 0x084F [0x1C] WAIT(5* ticks)
 41: 0x0852 [0x45] LOAD_SCHEDULED_TASK: Load scheduler "q002" with entities [LocalPlayer, LocalPlayer], work=[67*, 0*]
 42: 0x0863 [0x55] WAIT_LOAD_SCHEDULER: Wait for scheduler "q002" with entities [LocalPlayer, LocalPlayer], work=67*
 43: 0x0872 [0x1C] WAIT(5* ticks)
 44: 0x0875 [0x45] LOAD_SCHEDULED_TASK: Load scheduler "q003" with entities [LocalPlayer, LocalPlayer], work=[67*, 0*]
 45: 0x0886 [0x55] WAIT_LOAD_SCHEDULER: Wait for scheduler "q003" with entities [LocalPlayer, LocalPlayer], work=67*
 46: 0x0895 [0x1C] WAIT(60* ticks)
 47: 0x0898 [0x66] LOAD_EXT_SCHEDULER_MAIN: Load scheduler "sha1" with entities [LocalPlayer, LocalPlayer], work=ExtData[1]->WorkLocal[1]
 48: 0x08A7 [0x53] WAIT_SCHEDULER_TASK: Wait for scheduler "sha1" with entities [LocalPlayer, LocalPlayer]
 49: 0x08B4 [0x45] LOAD_SCHEDULED_TASK: Load scheduler "fdo2" with entities [LocalPlayer, LocalPlayer], work=[200*, 0*]
 50: 0x08C5 [0x55] WAIT_LOAD_SCHEDULER: Wait for scheduler "fdo2" with entities [LocalPlayer, LocalPlayer], work=200*
 51: 0x08D4 [0x46] CAMERA_CONTROL: Restore default settings
 52: 0x08D6 [0x45] LOAD_SCHEDULED_TASK: Load scheduler "fdi2" with entities [LocalPlayer, LocalPlayer], work=[200*, 0*]
 53: 0x08E7 [0x01] GOTO 0x08EA

SUBROUTINE_08EA:
 54: 0x08EA [0x21] END_EVENT
 55: 0x08EB [0x00] END_REQSTACK()

SUBROUTINE_08EC:
 56: 0x08EC [0x03] ExtData[1]->WorkLocal[1] = ExtData[1]->WorkLocal[0]
 57: 0x08F1 [0x02] IF !(ExtData[1]->WorkLocal[1] > 5*) GOTO 0x0901
 58: 0x08F9 [0x08] ExtData[1]->WorkLocal[1] -= 1*
 59: 0x08FE [0x01] GOTO 0x0906
 60: 0x0901 [0x08] ExtData[1]->WorkLocal[1] -= 2*

SUBROUTINE_0906:
 61: 0x0906 [0x14] ExtData[1]->WorkLocal[1] *= 10*
 62: 0x090B [0x07] ExtData[1]->WorkLocal[1] += 9*
 63: 0x0910 [0x1B] RETURN
```

#### Data or dead code:

```
# Dead code (unreachable instructions):
     0x0911 [0x03] ExtData[1]->WorkLocal[1] = ExtData[1]->WorkLocal[0]
     0x0916 [0x02] IF !(ExtData[1]->WorkLocal[1] > 5*) GOTO 0x0926
     0x091E [0x08] ExtData[1]->WorkLocal[1] -= 1*
     0x0923 [0x01] GOTO 0x092B
     0x0926 [0x08] ExtData[1]->WorkLocal[1] -= 2*
     0x092B [0x14] ExtData[1]->WorkLocal[1] *= 10*
     0x0930 [0x07] ExtData[1]->WorkLocal[1] += 70*
     0x0935 [0x1B] RETURN
     0x0936 [0x03] ExtData[1]->WorkLocal[1] = ExtData[1]->WorkLocal[0]
     0x093B [0x02] IF !(ExtData[1]->WorkLocal[1] > 5*) GOTO 0x094B
     0x0943 [0x08] ExtData[1]->WorkLocal[1] -= 1*
     0x0948 [0x01] GOTO 0x0950
     0x094B [0x08] ExtData[1]->WorkLocal[1] -= 2*
     0x0950 [0x14] ExtData[1]->WorkLocal[1] *= 10*
     0x0955 [0x07] ExtData[1]->WorkLocal[1] += 140*
     0x095A [0x1B] RETURN
     0x095B [0x03] ExtData[1]->WorkLocal[1] = ExtData[1]->WorkLocal[0]
     0x0960 [0x02] IF !(ExtData[1]->WorkLocal[1] > 5*) GOTO 0x0970
     0x0968 [0x08] ExtData[1]->WorkLocal[1] -= 1*
     0x096D [0x01] GOTO 0x0975
     0x0970 [0x08] ExtData[1]->WorkLocal[1] -= 2*
     0x0975 [0x14] ExtData[1]->WorkLocal[1] *= 10*
     0x097A [0x07] ExtData[1]->WorkLocal[1] += 210*
     0x097F [0x1B] RETURN
```
