# Event 65535

## Metadata

| Field           | Value    |
|-----------------|----------|
| Event Index     | 14/14    |
| Offset          | 0x0099   |
| Data Size       | 29 bytes |
| Calculated Size | 29 bytes |
| Instructions    | 8        |

```
      00 01 02 03 04 05 06 07  08 09 0A 0B 0C 0D 0E 0F
      -- -- -- -- -- -- -- --  -- -- -- -- -- -- -- --
0090:                             1F 00 06 80 07 80 00           .......
00A0: 80 1F 01 6F 1F 00 08 80  09 80 00 80 1F 01 6F 4E  ...o..........oN
00B0: 01 9F 02 05 01 00                                 ......          
```

## Opcodes

```
  0: 0x0099 [0x1F] MOVE_ENTITY: EventEntity moves to X=-21.685*, Z=-4.497*, Y=0.000*
  1: 0x00A1 [0x1F] MOVE_ENTITY: Update entity position (mode=1)
  2: 0x00A3 [0x6F] WAIT_FRAME_DELAY: Yield until WaitTime reaches zero
  3: 0x00A4 [0x1F] MOVE_ENTITY: EventEntity moves to X=-13.060*, Z=-3.912*, Y=0.000*
  4: 0x00AC [0x1F] MOVE_ENTITY: Update entity position (mode=1)
  5: 0x00AE [0x6F] WAIT_FRAME_DELAY: Yield until WaitTime reaches zero
  6: 0x00AF [0x4E] SET_ENTITY_HIDE_FLAG: Hide Gallauciond (ID: 17105567/0x0105029F)
  7: 0x00B5 [0x00] END_REQSTACK()
```
