# Event 65535

## Metadata

| Field           | Value    |
|-----------------|----------|
| Event Index     | 6/6      |
| Offset          | 0x0033   |
| Data Size       | 55 bytes |
| Calculated Size | 55 bytes |
| Instructions    | 9        |

```
      00 01 02 03 04 05 06 07  08 09 0A 0B 0C 0D 0E 0F
      -- -- -- -- -- -- -- --  -- -- -- -- -- -- -- --
0030:          1C 03 80 6C 7E  62 0B 01 02 80 04 80 1C     ...l~b.......
0040: 04 80 66 05 80 7E 62 0B  01 7E 62 0B 01 73 68 62  ..f..~b..~b..shb
0050: 6B 1C 06 80 6C 7E 62 0B  01 00 80 04 80 1C 06 80  k...l~b.........
0060: 6B 69 64 6C 30 7E 62 0B  01 00                    kidl0~b...      
```

## Opcodes

```
  0: 0x0033 [0x1C] WAIT(210* ticks)
  1: 0x0036 [0x6C] FADE_ENTITY_COLOR(entity_id=03 (ID: 17523326/0x010B627E), end_alpha=128*, fade_time=90*)
  2: 0x003F [0x1C] WAIT(90* ticks)
  3: 0x0042 [0x66] LOAD_EXT_SCHEDULER_MAIN: Load scheduler "shbk" with entities [03 (ID: 17523326/0x010B627E), 03 (ID: 17523326/0x010B627E)], work=43*
  4: 0x0051 [0x1C] WAIT(120* ticks)
  5: 0x0054 [0x6C] FADE_ENTITY_COLOR(entity_id=03 (ID: 17523326/0x010B627E), end_alpha=0*, fade_time=90*)
  6: 0x005D [0x1C] WAIT(120* ticks)
  7: 0x0060 [0x6B] STOP_AND_IDLE: 03 (ID: 17523326/0x010B627E) stops current action and resets to idle (animation="idl0")
  8: 0x0069 [0x00] END_REQSTACK()
```
