# 17727560 - Ceraulian

## Common Data

| Field            | Value                     |
|------------------|---------------------------|
| Zone             | Port San d'Oria (ID: 232) |
| Block Size       | 740 bytes                 |
| Total Events     | 28                        |
| References Count | 32                        |

## List of Events

| Event ID                 | Entrypoint   |   Size |   Instructions |
|--------------------------|--------------|--------|----------------|
| [65535](#event-65535)    | 0x0000       |      1 |              1 |
| [24](#event-24)          | 0x0001       |      1 |              1 |
| [18](#event-18)          | 0x0002       |      1 |              1 |
| [14](#event-14)          | 0x0003       |     77 |             20 |
| [13](#event-13)          | 0x0050       |     20 |              6 |
| [17](#event-17)          | 0x0064       |      1 |              1 |
| [3](#event-3)            | 0x0065       |     15 |              5 |
| [7](#event-7)            | 0x0074       |      1 |              1 |
| [8](#event-8)            | 0x0075       |     15 |              5 |
| [6](#event-6)            | 0x0084       |     28 |              8 |
| [9](#event-9)            | 0x00A0       |     15 |              5 |
| [15](#event-15)          | 0x00AF       |      1 |              1 |
| [16](#event-16)          | 0x00B0       |     15 |              5 |
| [19](#event-19)          | 0x00BF       |      1 |              1 |
| [23](#event-23)          | 0x00C0       |     15 |              5 |
| [20](#event-20)          | 0x00CF       |     15 |              5 |
| [22](#event-22)          | 0x00DE       |      1 |              1 |
| [21](#event-21)          | 0x00DF       |     15 |              5 |
| [587](#event-587)        | 0x00EE       |     63 |             15 |
| [65535.1](#event-655351) | 0x012D       |     13 |              3 |
| [65535.2](#event-655352) | 0x013A       |     10 |              2 |
| [65535.3](#event-655353) | 0x0144       |     20 |              6 |
| [65535.4](#event-655354) | 0x0158       |     19 |              3 |
| [65535.5](#event-655355) | 0x016B       |      9 |              3 |
| [65535.6](#event-655356) | 0x0174       |     19 |              3 |
| [65535.7](#event-655357) | 0x0187       |     32 |              4 |
| [65535.8](#event-655358) | 0x01A7       |     29 |              3 |
| [65535.9](#event-655359) | 0x01C4       |     29 |              3 |

## DAT References (imed_data)

|   Index | Hex Value   |   Dec Value |
|---------|-------------|-------------|
|       0 | 0x30CE      |       12494 |
|       1 | 0x20A3      |        8355 |
|       2 | 0x20A4      |        8356 |
|       3 | 0x0001      |           1 |
|       4 | 0x0000      |           0 |
|       5 | 0x20A5      |        8357 |
|       6 | 0x20A6      |        8358 |
|       7 | 0x20A7      |        8359 |
|       8 | 0x20B9      |        8377 |
|       9 | 0x20C4      |        8388 |
|      10 | 0x01C1      |         449 |
|      11 | 0x20C5      |        8389 |
|      12 | 0x20C6      |        8390 |
|      13 | 0x20C7      |        8391 |
|      14 | 0x20EA      |        8426 |
|      15 | 0x20F2      |        8434 |
|      16 | 0x20F3      |        8435 |
|      17 | 0x20F9      |        8441 |
|      18 | 0x0014      |          20 |
|      19 | 0x1ECE      |        7886 |
|      20 | 0x003C      |          60 |
|      21 | 0x1ECF      |        7887 |
|      22 | 0x001E      |          30 |
|      23 | 0x0007      |           7 |
|      24 | 0xFFFFFAE5  |  4294965989 |
|      25 | 0xFFFE4D2A  |  4294855978 |
|      26 | 0xFFFFF060  |  4294963296 |
|      27 | 0x0D2C      |        3372 |
|      28 | 0x000D      |          13 |
|      29 | 0xFFFFFEB1  |  4294966961 |
|      30 | 0xFFFE5664  |  4294858340 |
|      31 | 0x0015      |          21 |

## String References

- **7886**: Come on, man, I think we're a little over our heads here! Someone big over in Jeuno gave that to commemorate...
- **7887**: H-hey! Who are you? I don't know what you heard, but this is Brugaire Consortium business! Top secret. Get lost.
- **8356**: Help him out? [Sure, why not./I only work for cold, hard gil.]

## Events

### Event 65535

#### Metadata

| Field        | Value   |
|--------------|---------|
| Entrypoint   | 0x0000  |
| Data Size    | 1 bytes |
| Instructions | 1       |

```
      00 01 02 03 04 05 06 07  08 09 0A 0B 0C 0D 0E 0F
      -- -- -- -- -- -- -- --  -- -- -- -- -- -- -- --
0000: 00                                                .               
```

#### Opcodes

```
  0: 0x0000 [0x00] END_REQSTACK()
```

### Event 24

#### Metadata

| Field        | Value   |
|--------------|---------|
| Entrypoint   | 0x0001  |
| Data Size    | 1 bytes |
| Instructions | 1       |

```
      00 01 02 03 04 05 06 07  08 09 0A 0B 0C 0D 0E 0F
      -- -- -- -- -- -- -- --  -- -- -- -- -- -- -- --
0000:    00                                              .              
```

#### Opcodes

```
  0: 0x0001 [0x00] END_REQSTACK()
```

### Event 18

#### Metadata

| Field        | Value   |
|--------------|---------|
| Entrypoint   | 0x0002  |
| Data Size    | 1 bytes |
| Instructions | 1       |

```
      00 01 02 03 04 05 06 07  08 09 0A 0B 0C 0D 0E 0F
      -- -- -- -- -- -- -- --  -- -- -- -- -- -- -- --
0000:       00                                            .             
```

#### Opcodes

```
  0: 0x0002 [0x00] END_REQSTACK()
```

### Event 14

#### Metadata

| Field        | Value    |
|--------------|----------|
| Entrypoint   | 0x0003   |
| Data Size    | 77 bytes |
| Instructions | 20       |

```
      00 01 02 03 04 05 06 07  08 09 0A 0B 0C 0D 0E 0F
      -- -- -- -- -- -- -- --  -- -- -- -- -- -- -- --
0000:          20 01 1E F0 FF  FF 7F 42 03 09 10 00 80      ......B.....
0010: 2B 48 80 0E 01 01 80 23  06 01 10 24 02 80 03 80  +H.....#...$....
0020: 04 80 25 02 00 10 04 80  00 3B 00 2B 48 80 0E 01  ..%......;.+H...
0030: 05 80 23 03 01 10 03 80  01 4E 00 02 00 10 03 80  ..#......N......
0040: 00 4E 00 2B 48 80 0E 01  06 80 23 01 4E 00 21 00  .N.+H.....#.N.!.
```

#### Opcodes

```
  0: 0x0003 [0x20] SET_CLI_EVENT_UC_FLAG: Lock player control
  1: 0x0005 [0x1E] EventEntity looks at LocalPlayer and starts talking
  2: 0x000A [0x42] SET_CLI_EVENT_CANCEL_DATA()
  3: 0x000B [0x03] Work_Zone[9] = 12494*
  4: 0x0010 [0x2B] Ceraulian (ID: 17727560/0x010E8048) [8355*]:
    → "Do you think that you could find me $7? I can't pay you anything, and I know it's a lot to ask..."
  5: 0x0017 [0x23] WAIT_FOR_DIALOG_INTERACTION
  6: 0x0018 [0x06] Work_Zone[1] = 0
  7: 0x001B [0x24] CREATE_DIALOG(message_id=8356*, default_option=1*, option_flags=0*)
    → "Help him out? [Sure, why not./I only work for cold, hard gil.]"
  8: 0x0022 [0x25] WAIT_DIALOG_SELECT()
  9: 0x0023 [0x02] IF !(Work_Zone[0] == 0*) GOTO 0x003B
 10: 0x002B [0x2B] Ceraulian (ID: 17727560/0x010E8048) [8357*]:
    → "Really? Well, I won't hold my breath. There aren't too many adventurers who work for nothing these days."
 11: 0x0032 [0x23] WAIT_FOR_DIALOG_INTERACTION
 12: 0x0033 [0x03] Work_Zone[1] = 1*
 13: 0x0038 [0x01] GOTO 0x004E
 14: 0x003B [0x02] IF !(Work_Zone[0] == 1*) GOTO 0x004E
 15: 0x0043 [0x2B] Ceraulian (ID: 17727560/0x010E8048) [8358*]:
    → "Can't say I'm surprised. Haven't met many adventurers who work for free."
 16: 0x004A [0x23] WAIT_FOR_DIALOG_INTERACTION
 17: 0x004B [0x01] GOTO 0x004E

SUBROUTINE_004E:
 18: 0x004E [0x21] END_EVENT
 19: 0x004F [0x00] END_REQSTACK()
```

### Event 13

#### Metadata

| Field        | Value    |
|--------------|----------|
| Entrypoint   | 0x0050   |
| Data Size    | 20 bytes |
| Instructions | 6        |

```
      00 01 02 03 04 05 06 07  08 09 0A 0B 0C 0D 0E 0F
      -- -- -- -- -- -- -- --  -- -- -- -- -- -- -- --
0050: 1E F0 FF FF 7F 03 09 10  00 80 2B 48 80 0E 01 07  ..........+H....
0060: 80 23 21 00                                       .#!.            
```

#### Opcodes

```
  0: 0x0050 [0x1E] EventEntity looks at LocalPlayer and starts talking
  1: 0x0055 [0x03] Work_Zone[9] = 12494*
  2: 0x005A [0x2B] Ceraulian (ID: 17727560/0x010E8048) [8359*]:
    → "Well, I'm not gonna hold my breath waiting for that $7. There aren't too many adventurers who work for nothing these days."
  3: 0x0061 [0x23] WAIT_FOR_DIALOG_INTERACTION
  4: 0x0062 [0x21] END_EVENT
  5: 0x0063 [0x00] END_REQSTACK()
```

### Event 17

#### Metadata

| Field        | Value   |
|--------------|---------|
| Entrypoint   | 0x0064  |
| Data Size    | 1 bytes |
| Instructions | 1       |

```
      00 01 02 03 04 05 06 07  08 09 0A 0B 0C 0D 0E 0F
      -- -- -- -- -- -- -- --  -- -- -- -- -- -- -- --
0060:             00                                        .           
```

#### Opcodes

```
  0: 0x0064 [0x00] END_REQSTACK()
```

### Event 3

#### Metadata

| Field        | Value    |
|--------------|----------|
| Entrypoint   | 0x0065   |
| Data Size    | 15 bytes |
| Instructions | 5        |

```
      00 01 02 03 04 05 06 07  08 09 0A 0B 0C 0D 0E 0F
      -- -- -- -- -- -- -- --  -- -- -- -- -- -- -- --
0060:                1E F0 FF  FF 7F 2B 48 80 0E 01 08       .....+H....
0070: 80 23 21 00                                       .#!.            
```

#### Opcodes

```
  0: 0x0065 [0x1E] EventEntity looks at LocalPlayer and starts talking
  1: 0x006A [0x2B] Ceraulian (ID: 17727560/0x010E8048) [8377*]:
    → "I hope my child will be sad when I leave this world... Dammit, I'm starting to tear up. Gotta get back to work."
  2: 0x0071 [0x23] WAIT_FOR_DIALOG_INTERACTION
  3: 0x0072 [0x21] END_EVENT
  4: 0x0073 [0x00] END_REQSTACK()
```

### Event 7

#### Metadata

| Field        | Value   |
|--------------|---------|
| Entrypoint   | 0x0074  |
| Data Size    | 1 bytes |
| Instructions | 1       |

```
      00 01 02 03 04 05 06 07  08 09 0A 0B 0C 0D 0E 0F
      -- -- -- -- -- -- -- --  -- -- -- -- -- -- -- --
0070:             00                                        .           
```

#### Opcodes

```
  0: 0x0074 [0x00] END_REQSTACK()
```

### Event 8

#### Metadata

| Field        | Value    |
|--------------|----------|
| Entrypoint   | 0x0075   |
| Data Size    | 15 bytes |
| Instructions | 5        |

```
      00 01 02 03 04 05 06 07  08 09 0A 0B 0C 0D 0E 0F
      -- -- -- -- -- -- -- --  -- -- -- -- -- -- -- --
0070:                1E F0 FF  FF 7F 2B 48 80 0E 01 09       .....+H....
0080: 80 23 21 00                                       .#!.            
```

#### Opcodes

```
  0: 0x0075 [0x1E] EventEntity looks at LocalPlayer and starts talking
  1: 0x007A [0x2B] Ceraulian (ID: 17727560/0x010E8048) [8388*]:
    → "The cad that mugged our boss must have been following him the whole time. There must be someone who saw what happened."
  2: 0x0081 [0x23] WAIT_FOR_DIALOG_INTERACTION
  3: 0x0082 [0x21] END_EVENT
  4: 0x0083 [0x00] END_REQSTACK()
```

### Event 6

#### Metadata

| Field        | Value    |
|--------------|----------|
| Entrypoint   | 0x0084   |
| Data Size    | 28 bytes |
| Instructions | 8        |

```
      00 01 02 03 04 05 06 07  08 09 0A 0B 0C 0D 0E 0F
      -- -- -- -- -- -- -- --  -- -- -- -- -- -- -- --
0080:             1E F0 FF FF  7F 03 09 10 0A 80 2B 48      ..........+H
0090: 80 0E 01 0B 80 23 2B 48  80 0E 01 0C 80 23 21 00  .....#+H.....#!.
```

#### Opcodes

```
  0: 0x0084 [0x1E] EventEntity looks at LocalPlayer and starts talking
  1: 0x0089 [0x03] Work_Zone[9] = 449*
  2: 0x008E [0x2B] Ceraulian (ID: 17727560/0x010E8048) [8389*]:
    → "The girl who tended to the boss after his attack picked up that $3? Hmm, I guess it could have belonged to his attacker..."
  3: 0x0095 [0x23] WAIT_FOR_DIALOG_INTERACTION
  4: 0x0096 [0x2B] Ceraulian (ID: 17727560/0x010E8048) [8390*]:
    → "That kind of jewelry isn't worth much without the matching earring. It looks to be of reasonably high quality, and would bring in a nice profit if you could get the Goldsmith's Guild to recreate its partner."
  5: 0x009D [0x23] WAIT_FOR_DIALOG_INTERACTION
  6: 0x009E [0x21] END_EVENT
  7: 0x009F [0x00] END_REQSTACK()
```

### Event 9

#### Metadata

| Field        | Value    |
|--------------|----------|
| Entrypoint   | 0x00A0   |
| Data Size    | 15 bytes |
| Instructions | 5        |

```
      00 01 02 03 04 05 06 07  08 09 0A 0B 0C 0D 0E 0F
      -- -- -- -- -- -- -- --  -- -- -- -- -- -- -- --
00A0: 1E F0 FF FF 7F 2B 48 80  0E 01 0D 80 23 21 00     .....+H.....#!. 
```

#### Opcodes

```
  0: 0x00A0 [0x1E] EventEntity looks at LocalPlayer and starts talking
  1: 0x00A5 [0x2B] Ceraulian (ID: 17727560/0x010E8048) [8391*]:
    → "The person who attacked our boss must have lost their desire to live. As soon as you find out who it is, the boss is gonna beat them to a pulp!"
  2: 0x00AC [0x23] WAIT_FOR_DIALOG_INTERACTION
  3: 0x00AD [0x21] END_EVENT
  4: 0x00AE [0x00] END_REQSTACK()
```

### Event 15

#### Metadata

| Field        | Value   |
|--------------|---------|
| Entrypoint   | 0x00AF  |
| Data Size    | 1 bytes |
| Instructions | 1       |

```
      00 01 02 03 04 05 06 07  08 09 0A 0B 0C 0D 0E 0F
      -- -- -- -- -- -- -- --  -- -- -- -- -- -- -- --
00A0:                                               00                 .
```

#### Opcodes

```
  0: 0x00AF [0x00] END_REQSTACK()
```

### Event 16

#### Metadata

| Field        | Value    |
|--------------|----------|
| Entrypoint   | 0x00B0   |
| Data Size    | 15 bytes |
| Instructions | 5        |

```
      00 01 02 03 04 05 06 07  08 09 0A 0B 0C 0D 0E 0F
      -- -- -- -- -- -- -- --  -- -- -- -- -- -- -- --
00B0: 1E F0 FF FF 7F 2B 48 80  0E 01 0E 80 23 21 00     .....+H.....#!. 
```

#### Opcodes

```
  0: 0x00B0 [0x1E] EventEntity looks at LocalPlayer and starts talking
  1: 0x00B5 [0x2B] Ceraulian (ID: 17727560/0x010E8048) [8426*]:
    → "Our boss is really a nice guy, but he's just a little awkward in expressing himself. It's that quality that makes me wanna keep working for him."
  2: 0x00BC [0x23] WAIT_FOR_DIALOG_INTERACTION
  3: 0x00BD [0x21] END_EVENT
  4: 0x00BE [0x00] END_REQSTACK()
```

### Event 19

#### Metadata

| Field        | Value   |
|--------------|---------|
| Entrypoint   | 0x00BF  |
| Data Size    | 1 bytes |
| Instructions | 1       |

```
      00 01 02 03 04 05 06 07  08 09 0A 0B 0C 0D 0E 0F
      -- -- -- -- -- -- -- --  -- -- -- -- -- -- -- --
00B0:                                               00                 .
```

#### Opcodes

```
  0: 0x00BF [0x00] END_REQSTACK()
```

### Event 23

#### Metadata

| Field        | Value    |
|--------------|----------|
| Entrypoint   | 0x00C0   |
| Data Size    | 15 bytes |
| Instructions | 5        |

```
      00 01 02 03 04 05 06 07  08 09 0A 0B 0C 0D 0E 0F
      -- -- -- -- -- -- -- --  -- -- -- -- -- -- -- --
00C0: 1E F0 FF FF 7F 2B 48 80  0E 01 0F 80 23 21 00     .....+H.....#!. 
```

#### Opcodes

```
  0: 0x00C0 [0x1E] EventEntity looks at LocalPlayer and starts talking
  1: 0x00C5 [0x2B] Ceraulian (ID: 17727560/0x010E8048) [8434*]:
    → "You've got nerve, keeping secrets from the boss... I think you'd be better off finding that treasure chest in the Kuftal Tunnel and getting back here as soon as possible!"
  2: 0x00CC [0x23] WAIT_FOR_DIALOG_INTERACTION
  3: 0x00CD [0x21] END_EVENT
  4: 0x00CE [0x00] END_REQSTACK()
```

### Event 20

#### Metadata

| Field        | Value    |
|--------------|----------|
| Entrypoint   | 0x00CF   |
| Data Size    | 15 bytes |
| Instructions | 5        |

```
      00 01 02 03 04 05 06 07  08 09 0A 0B 0C 0D 0E 0F
      -- -- -- -- -- -- -- --  -- -- -- -- -- -- -- --
00C0:                                               1E                 .
00D0: F0 FF FF 7F 2B 48 80 0E  01 10 80 23 21 00        ....+H.....#!.  
```

#### Opcodes

```
  0: 0x00CF [0x1E] EventEntity looks at LocalPlayer and starts talking
  1: 0x00D4 [0x2B] Ceraulian (ID: 17727560/0x010E8048) [8435*]:
    → "Huh, the chest was empty!? All you found was some letter of defiance...? When the boss finds out, he's gonna hit the roof! He hates to be made a fool of..."
  2: 0x00DB [0x23] WAIT_FOR_DIALOG_INTERACTION
  3: 0x00DC [0x21] END_EVENT
  4: 0x00DD [0x00] END_REQSTACK()
```

### Event 22

#### Metadata

| Field        | Value   |
|--------------|---------|
| Entrypoint   | 0x00DE  |
| Data Size    | 1 bytes |
| Instructions | 1       |

```
      00 01 02 03 04 05 06 07  08 09 0A 0B 0C 0D 0E 0F
      -- -- -- -- -- -- -- --  -- -- -- -- -- -- -- --
00D0:                                            00                   . 
```

#### Opcodes

```
  0: 0x00DE [0x00] END_REQSTACK()
```

### Event 21

#### Metadata

| Field        | Value    |
|--------------|----------|
| Entrypoint   | 0x00DF   |
| Data Size    | 15 bytes |
| Instructions | 5        |

```
      00 01 02 03 04 05 06 07  08 09 0A 0B 0C 0D 0E 0F
      -- -- -- -- -- -- -- --  -- -- -- -- -- -- -- --
00D0:                                               1E                 .
00E0: F0 FF FF 7F 2B 48 80 0E  01 11 80 23 21 00        ....+H.....#!.  
```

#### Opcodes

```
  0: 0x00DF [0x1E] EventEntity looks at LocalPlayer and starts talking
  1: 0x00E4 [0x2B] Ceraulian (ID: 17727560/0x010E8048) [8441*]:
    → "All this "last dragoon" business has tired me out, but at least it's never dull around here! Keeps me motivated, even if meeting my quota can be stressful sometimes."
  2: 0x00EB [0x23] WAIT_FOR_DIALOG_INTERACTION
  3: 0x00EC [0x21] END_EVENT
  4: 0x00ED [0x00] END_REQSTACK()
```

### Event 587

#### Metadata

| Field        | Value    |
|--------------|----------|
| Entrypoint   | 0x00EE   |
| Data Size    | 63 bytes |
| Instructions | 15       |

```
      00 01 02 03 04 05 06 07  08 09 0A 0B 0C 0D 0E 0F
      -- -- -- -- -- -- -- --  -- -- -- -- -- -- -- --
00E0:                                            66 12                f.
00F0: 80 F8 FF FF 7F F8 FF FF  7F 74 6C 6B 30 1D 13 80  .........tlk0...
0100: 23 5E 69 64 6C 30 1C 14  80 1E F0 FF FF 7F 6F 70  #^idl0........op
0110: 66 12 80 F8 FF FF 7F F8  FF FF 7F 74 6C 6B 30 1D  f..........tlk0.
0120: 15 80 23 5E 69 64 6C 30  1C 16 80 21 00           ..#^idl0...!.   
```

#### Opcodes

```
  0: 0x00EE [0x66] LOAD_EXT_SCHEDULER_MAIN: Load scheduler "tlk0" with entities [EventEntity, EventEntity], work=20*
  1: 0x00FD [0x1D] PRINT_EVENT_MESSAGE(message_id=7886*)
    → "Come on, man, I think we're a little over our heads here! Someone big over in Jeuno gave that to commemorate..."
  2: 0x0100 [0x23] WAIT_FOR_DIALOG_INTERACTION
  3: 0x0101 [0x5E] EventEntity goes idle (kills current action) (animation: "idl0")
  4: 0x0106 [0x1C] WAIT(60* ticks)
  5: 0x0109 [0x1E] EventEntity looks at LocalPlayer and starts talking
  6: 0x010E [0x6F] WAIT_FRAME_DELAY: Yield until WaitTime reaches zero
  7: 0x010F [0x70] WAIT_ENTITY_RENDER_FLAG: Wait while EventEntity->Render.Flags3 bit 2 is set (cancel turn if not)
  8: 0x0110 [0x66] LOAD_EXT_SCHEDULER_MAIN: Load scheduler "tlk0" with entities [EventEntity, EventEntity], work=20*
  9: 0x011F [0x1D] PRINT_EVENT_MESSAGE(message_id=7887*)
    → "H-hey! Who are you? I don't know what you heard, but this is Brugaire Consortium business! Top secret. Get lost."
 10: 0x0122 [0x23] WAIT_FOR_DIALOG_INTERACTION
 11: 0x0123 [0x5E] EventEntity goes idle (kills current action) (animation: "idl0")
 12: 0x0128 [0x1C] WAIT(30* ticks)
 13: 0x012B [0x21] END_EVENT
 14: 0x012C [0x00] END_REQSTACK()
```

### Event 65535.1

#### Metadata

| Field        | Value    |
|--------------|----------|
| Entrypoint   | 0x012D   |
| Data Size    | 13 bytes |
| Instructions | 3        |

```
      00 01 02 03 04 05 06 07  08 09 0A 0B 0C 0D 0E 0F
      -- -- -- -- -- -- -- --  -- -- -- -- -- -- -- --
0120:                                         6E F8 FF               n..
0130: FF 7F 17 80 99 F8 FF FF  7F 00                    ..........      
```

#### Opcodes

```
  0: 0x012D [0x6E] EventEntity uses emote 7*
  1: 0x0134 [0x99] Wait for EventEntity animation to complete
  2: 0x0139 [0x00] END_REQSTACK()
```

### Event 65535.2

#### Metadata

| Field        | Value    |
|--------------|----------|
| Entrypoint   | 0x013A   |
| Data Size    | 10 bytes |
| Instructions | 2        |

```
      00 01 02 03 04 05 06 07  08 09 0A 0B 0C 0D 0E 0F
      -- -- -- -- -- -- -- --  -- -- -- -- -- -- -- --
0130:                                37 18 80 19 80 1A            7.....
0140: 80 1B 80 00                                       ....            
```

#### Opcodes

```
  0: 0x013A [0x37] UPDATE_EVENT_POSITION_AND_DIR: x=-1.307*, z=-111.318*, y=-4.000*, direction=296.4°*
  1: 0x0143 [0x00] END_REQSTACK()
```

### Event 65535.3

#### Metadata

| Field        | Value    |
|--------------|----------|
| Entrypoint   | 0x0144   |
| Data Size    | 20 bytes |
| Instructions | 6        |

```
      00 01 02 03 04 05 06 07  08 09 0A 0B 0C 0D 0E 0F
      -- -- -- -- -- -- -- --  -- -- -- -- -- -- -- --
0140:             32 1C 80 1F  00 1D 80 1E 80 1A 80 1F      2...........
0150: 01 6F 1E 49 80 0E 01 00                           .o.I....        
```

#### Opcodes

```
  0: 0x0144 [0x32] ExtData[1]->MainSpeed = 13* * 0.1
  1: 0x0147 [0x1F] MOVE_ENTITY: EventEntity moves to X=-0.335*, Z=-108.956*, Y=-4.000*
  2: 0x014F [0x1F] MOVE_ENTITY: Update entity position (mode=1)
  3: 0x0151 [0x6F] WAIT_FRAME_DELAY: Yield until WaitTime reaches zero
  4: 0x0152 [0x1E] EventEntity looks at Brugaire (ID: 17727561/0x010E8049) and starts talking
  5: 0x0157 [0x00] END_REQSTACK()
```

### Event 65535.4

#### Metadata

| Field        | Value    |
|--------------|----------|
| Entrypoint   | 0x0158   |
| Data Size    | 19 bytes |
| Instructions | 3        |

```
      00 01 02 03 04 05 06 07  08 09 0A 0B 0C 0D 0E 0F
      -- -- -- -- -- -- -- --  -- -- -- -- -- -- -- --
0150:                          66 12 80 F8 FF FF 7F F8          f.......
0160: FF FF 7F 74 6C 6B 30 1C  14 80 00                 ...tlk0....     
```

#### Opcodes

```
  0: 0x0158 [0x66] LOAD_EXT_SCHEDULER_MAIN: Load scheduler "tlk0" with entities [EventEntity, EventEntity], work=20*
  1: 0x0167 [0x1C] WAIT(60* ticks)
  2: 0x016A [0x00] END_REQSTACK()
```

### Event 65535.5

#### Metadata

| Field        | Value   |
|--------------|---------|
| Entrypoint   | 0x016B  |
| Data Size    | 9 bytes |
| Instructions | 3       |

```
      00 01 02 03 04 05 06 07  08 09 0A 0B 0C 0D 0E 0F
      -- -- -- -- -- -- -- --  -- -- -- -- -- -- -- --
0160:                                   5E 69 64 6C 30             ^idl0
0170: 1C 14 80 00                                       ....            
```

#### Opcodes

```
  0: 0x016B [0x5E] EventEntity goes idle (kills current action) (animation: "idl0")
  1: 0x0170 [0x1C] WAIT(60* ticks)
  2: 0x0173 [0x00] END_REQSTACK()
```

### Event 65535.6

#### Metadata

| Field        | Value    |
|--------------|----------|
| Entrypoint   | 0x0174   |
| Data Size    | 19 bytes |
| Instructions | 3        |

```
      00 01 02 03 04 05 06 07  08 09 0A 0B 0C 0D 0E 0F
      -- -- -- -- -- -- -- --  -- -- -- -- -- -- -- --
0170:             66 12 80 F8  FF FF 7F F8 FF FF 7F 74      f..........t
0180: 68 6B 31 1C 14 80 00                              hk1....         
```

#### Opcodes

```
  0: 0x0174 [0x66] LOAD_EXT_SCHEDULER_MAIN: Load scheduler "thk1" with entities [EventEntity, EventEntity], work=20*
  1: 0x0183 [0x1C] WAIT(60* ticks)
  2: 0x0186 [0x00] END_REQSTACK()
```

### Event 65535.7

#### Metadata

| Field        | Value    |
|--------------|----------|
| Entrypoint   | 0x0187   |
| Data Size    | 32 bytes |
| Instructions | 4        |

```
      00 01 02 03 04 05 06 07  08 09 0A 0B 0C 0D 0E 0F
      -- -- -- -- -- -- -- --  -- -- -- -- -- -- -- --
0180:                      53  F8 FF FF 7F F8 FF FF 7F         S........
0190: 74 68 6B 31 66 12 80 F8  FF FF 7F F8 FF FF 7F 74  thk1f..........t
01A0: 68 6B 32 1C 14 80 00                              hk2....         
```

#### Opcodes

```
  0: 0x0187 [0x53] WAIT_SCHEDULER_TASK: Wait for scheduler "thk1" with entities [EventEntity, EventEntity]
  1: 0x0194 [0x66] LOAD_EXT_SCHEDULER_MAIN: Load scheduler "thk2" with entities [EventEntity, EventEntity], work=20*
  2: 0x01A3 [0x1C] WAIT(60* ticks)
  3: 0x01A6 [0x00] END_REQSTACK()
```

### Event 65535.8

#### Metadata

| Field        | Value    |
|--------------|----------|
| Entrypoint   | 0x01A7   |
| Data Size    | 29 bytes |
| Instructions | 3        |

```
      00 01 02 03 04 05 06 07  08 09 0A 0B 0C 0D 0E 0F
      -- -- -- -- -- -- -- --  -- -- -- -- -- -- -- --
01A0:                      66  1F 80 F8 FF FF 7F F8 FF         f........
01B0: FF 7F 64 69 73 30 53 F8  FF FF 7F F8 FF FF 7F 64  ..dis0S........d
01C0: 69 73 30 00                                       is0.            
```

#### Opcodes

```
  0: 0x01A7 [0x66] LOAD_EXT_SCHEDULER_MAIN: Load scheduler "dis0" with entities [EventEntity, EventEntity], work=21*
  1: 0x01B6 [0x53] WAIT_SCHEDULER_TASK: Wait for scheduler "dis0" with entities [EventEntity, EventEntity]
  2: 0x01C3 [0x00] END_REQSTACK()
```

### Event 65535.9

#### Metadata

| Field        | Value    |
|--------------|----------|
| Entrypoint   | 0x01C4   |
| Data Size    | 29 bytes |
| Instructions | 3        |

```
      00 01 02 03 04 05 06 07  08 09 0A 0B 0C 0D 0E 0F
      -- -- -- -- -- -- -- --  -- -- -- -- -- -- -- --
01C0:             66 12 80 F8  FF FF 7F F8 FF FF 7F 70      f..........p
01D0: 61 73 30 53 F8 FF FF 7F  F8 FF FF 7F 70 61 73 30  as0S........pas0
01E0: 00                                                .               
```

#### Opcodes

```
  0: 0x01C4 [0x66] LOAD_EXT_SCHEDULER_MAIN: Load scheduler "pas0" with entities [EventEntity, EventEntity], work=20*
  1: 0x01D3 [0x53] WAIT_SCHEDULER_TASK: Wait for scheduler "pas0" with entities [EventEntity, EventEntity]
  2: 0x01E0 [0x00] END_REQSTACK()
```
