# 17727598

## Common Data

| Field            | Value                     |
|------------------|---------------------------|
| Zone             | Port San d'Oria (ID: 232) |
| Block Size       | 228 bytes                 |
| Total Events     | 4                         |
| References Count | 12                        |

## List of Events

| Event ID              | Entrypoint   |   Size |   Instructions |
|-----------------------|--------------|--------|----------------|
| [65535](#event-65535) | 0x0000       |      1 |              1 |
| [700](#event-700)     | 0x0001       |    143 |             21 |
| [764](#event-764)     | 0x0090       |      1 |              1 |
| [832](#event-832)     | 0x0091       |      1 |              1 |

## DAT References (imed_data)

|   Index | Hex Value   |   Dec Value |
|---------|-------------|-------------|
|       0 | 0x0084      |         132 |
|       1 | 0x0000      |           0 |
|       2 | 0x0003      |           3 |
|       3 | 0x0001      |           1 |
|       4 | 0x003C      |          60 |
|       5 | 0x0080      |         128 |
|       6 | 0x00F0      |         240 |
|       7 | 0x00C8      |         200 |
|       8 | 0x00BE      |         190 |
|       9 | 0x03C0      |         960 |
|      10 | 0x021C      |         540 |
|      11 | 0x0078      |         120 |

## Events

### Event 65535

#### Metadata

| Field        | Value   |
|--------------|---------|
| Entrypoint   | 0x0000  |
| Data Size    | 1 bytes |
| Instructions | 1       |

```
      00 01 02 03 04 05 06 07  08 09 0A 0B 0C 0D 0E 0F
      -- -- -- -- -- -- -- --  -- -- -- -- -- -- -- --
0000: 00                                                .               
```

#### Opcodes

```
  0: 0x0000 [0x00] END_REQSTACK()
```

### Event 700

#### Metadata

| Field        | Value     |
|--------------|-----------|
| Entrypoint   | 0x0001    |
| Data Size    | 143 bytes |
| Instructions | 21        |

```
      00 01 02 03 04 05 06 07  08 09 0A 0B 0C 0D 0E 0F
      -- -- -- -- -- -- -- --  -- -- -- -- -- -- -- --
0000:    20 01 42 46 01 45 00  80 F0 FF FF 7F F0 FF FF    .BF.E.........
0010: 7F 73 73 68 70 01 80 38  02 80 4F 03 80 5D 01 80  .sshp..8..O..]..
0020: 04 80 1C 04 80 5C 00 05  80 5C 01 05 80 1C 06 80  .....\...\......
0030: 45 07 80 F0 FF FF 7F F0  FF FF 7F 6F 76 6C 31 01  E..........ovl1.
0040: 80 45 08 80 F0 FF FF 7F  F0 FF FF 7F 73 30 30 33  .E..........s003
0050: 01 80 1C 09 80 45 07 80  F0 FF FF 7F F0 FF FF 7F  .....E..........
0060: 6F 76 6C 31 01 80 45 08  80 F0 FF FF 7F F0 FF FF  ovl1..E.........
0070: 7F 73 30 30 34 01 80 1C  0A 80 45 07 80 F0 FF FF  .s004.....E.....
0080: 7F F0 FF FF 7F 66 64 6F  32 01 80 1C 0B 80 21 00  .....fdo2.....!.
```

#### Opcodes

```
  0: 0x0001 [0x20] SET_CLI_EVENT_UC_FLAG: Lock player control
  1: 0x0003 [0x42] SET_CLI_EVENT_CANCEL_DATA()
  2: 0x0004 [0x46] CAMERA_CONTROL: Disable user control
  3: 0x0006 [0x45] LOAD_SCHEDULED_TASK: Load scheduler "sshp" with entities [LocalPlayer, LocalPlayer], work=[132*, 0*]
  4: 0x0017 [0x38] SET_CLIENT_EVENT_MODE(mode=3*)
  5: 0x001A [0x4F] EventEntity->StatusEvent = 1* // Custom event value
  6: 0x001D [0x5D] SET_MUSIC_VOLUME(volume=0*, fade_time=60*)
  7: 0x0022 [0x1C] WAIT(60* ticks)
  8: 0x0025 [0x5C] MUSIC_CONTROL: Set Idle (Day) music to song 128*
  9: 0x0029 [0x5C] MUSIC_CONTROL: Set Idle (Night) music to song 128*
 10: 0x002D [0x1C] WAIT(240* ticks)
 11: 0x0030 [0x45] LOAD_SCHEDULED_TASK: Load scheduler "ovl1" with entities [LocalPlayer, LocalPlayer], work=[200*, 0*]
 12: 0x0041 [0x45] LOAD_SCHEDULED_TASK: Load scheduler "s003" with entities [LocalPlayer, LocalPlayer], work=[190*, 0*]
 13: 0x0052 [0x1C] WAIT(960* ticks)
 14: 0x0055 [0x45] LOAD_SCHEDULED_TASK: Load scheduler "ovl1" with entities [LocalPlayer, LocalPlayer], work=[200*, 0*]
 15: 0x0066 [0x45] LOAD_SCHEDULED_TASK: Load scheduler "s004" with entities [LocalPlayer, LocalPlayer], work=[190*, 0*]
 16: 0x0077 [0x1C] WAIT(540* ticks)
 17: 0x007A [0x45] LOAD_SCHEDULED_TASK: Load scheduler "fdo2" with entities [LocalPlayer, LocalPlayer], work=[200*, 0*]
 18: 0x008B [0x1C] WAIT(120* ticks)
 19: 0x008E [0x21] END_EVENT
 20: 0x008F [0x00] END_REQSTACK()
```

### Event 764

#### Metadata

| Field        | Value   |
|--------------|---------|
| Entrypoint   | 0x0090  |
| Data Size    | 1 bytes |
| Instructions | 1       |

```
      00 01 02 03 04 05 06 07  08 09 0A 0B 0C 0D 0E 0F
      -- -- -- -- -- -- -- --  -- -- -- -- -- -- -- --
0090: 00                                                .               
```

#### Opcodes

```
  0: 0x0090 [0x00] END_REQSTACK()
```

### Event 832

#### Metadata

| Field        | Value   |
|--------------|---------|
| Entrypoint   | 0x0091  |
| Data Size    | 1 bytes |
| Instructions | 1       |

```
      00 01 02 03 04 05 06 07  08 09 0A 0B 0C 0D 0E 0F
      -- -- -- -- -- -- -- --  -- -- -- -- -- -- -- --
0090:    00                                              .              
```

#### Opcodes

```
  0: 0x0091 [0x00] END_REQSTACK()
```
