# 17727531 - Phersula

## Common Data

| Field            | Value                     |
|------------------|---------------------------|
| Zone             | Port San d'Oria (ID: 232) |
| Block Size       | 1112 bytes                |
| Total Events     | 9                         |
| References Count | 35                        |

## List of Events

| Event ID                 | Entrypoint   |   Size |   Instructions |
|--------------------------|--------------|--------|----------------|
| [65535](#event-65535)    | 0x0000       |      1 |              1 |
| [545](#event-545)        | 0x0001       |     36 |             10 |
| [775](#event-775)        | 0x0025       |    208 |             50 |
| [574](#event-574)        | 0x00F5       |    150 |             37 |
| [576](#event-576)        | 0x018B       |    148 |             36 |
| [575](#event-575)        | 0x021F       |    149 |             37 |
| [577](#event-577)        | 0x02B4       |     43 |             13 |
| [65535.1](#event-655351) | 0x02DF       |     42 |             12 |
| [578](#event-578)        | 0x0309       |    142 |             34 |

## DAT References (imed_data)

|   Index | Hex Value   |   Dec Value |
|---------|-------------|-------------|
|       0 | 0x001E      |          30 |
|       1 | 0x1DDB      |        7643 |
|       2 | 0x0000      |           0 |
|       3 | 0x0006      |           6 |
|       4 | 0x0002      |           2 |
|       5 | 0x0001      |           1 |
|       6 | 0x2BC4      |       11204 |
|       7 | 0x2BC5      |       11205 |
|       8 | 0x2BCD      |       11213 |
|       9 | 0x2BC9      |       11209 |
|      10 | 0x2BC6      |       11206 |
|      11 | 0x2BC7      |       11207 |
|      12 | 0x2BC8      |       11208 |
|      13 | 0x001F      |          31 |
|      14 | 0xFFFFFFFF  |  4294967295 |
|      15 | 0x2BCE      |       11214 |
|      16 | 0x2BCC      |       11212 |
|      17 | 0x0003      |           3 |
|      18 | 0x0004      |           4 |
|      19 | 0x0005      |           5 |
|      20 | 0x0008      |           8 |
|      21 | 0x0007      |           7 |
|      22 | 0x0009      |           9 |
|      23 | 0x000A      |          10 |
|      24 | 0x000B      |          11 |
|      25 | 0x000C      |          12 |
|      26 | 0x000D      |          13 |
|      27 | 0x000E      |          14 |
|      28 | 0x000F      |          15 |
|      29 | 0x0010      |          16 |
|      30 | 0x0011      |          17 |
|      31 | 0x0012      |          18 |
|      32 | 0x0013      |          19 |
|      33 | 0x0014      |          20 |
|      34 | 0x0015      |          21 |

## String References

- **0**: The San d'Oria residential area is ahead. You'll find your Mog House within.
- **1**: I've not told you about Mog Houses yet, have I? Would you care to learn about them now?
- **2**: Care to learn about Mog Houses? [Sure!/No, thanks.]
- **3**: Mog Houses are useful places. You can recover your HP and MP, and store items there.
- **4**: You can also change jobs there. All adventurers of San d'Orian citizenship are assigned a Mog House.
- **5**: Make yourself at home!
- **6**: The San d'Oria residential area is ahead. You'll find your Mog House within.
- **7**: Would you like to hear about Mog Houses again?
- **8**: Hmm... So be it.
- **9**: Ahead lies the residential area. You'll find your Mog House within.
- **10**: By the way, my records indicate that you're renting a room in [San d'Oria/Bastok/Windurst/Jeuno/Kazham/Rabao/Norg/Al Zahbi].
- **11**: Would you like to check out of the room in [San d'Oria/Bastok/Windurst/Jeuno/Kazham/Rabao/Norg/Al Zahbi] and move your things back here?
- **12**: Move back to San d'Oria? [Yes, please./No, not yet.]
- **13**: It is done. We've checked you out of your Rent-a-Room in [San d'Oria/Bastok/Windurst/Jeuno/Kazham/Rabao/Norg/Al Zahbi].
- **14**: All your belongings should be waiting for you inside. Those moogles are amazing creatures, are they not?
- **15**: Ahead lies the residential area. Proceed to your Rent-a-Room, foreigner!
- **16**: If you're already renting here, you may come and go as you please, like the Mog House in your homeland.
- **17**: Ahead lies the residential area.
- **18**: Wait! By law, all foreigners must lease a Rent-a-Room before entering the residential area!
- **19**: Once you've registered with us, you can use it as you would a Mog House back home, wherever that may be.
- **20**: Will you stay in San d'Oria? [Yes./No, I'd rather not.]
- **21**: All right, then. A San d'Orian Rent-a-Room has been leased to your name. Now move along, foreigner!
- **7643**: Beyond lies the residential area.
- **11204**: The San d'Oria residential area is ahead. You'll find your Mog House within.
- **11205**: Ahead lies the residential area. Proceed to your Rent-a-Room, foreigner!
- **11206**: Mog Houses are useful places. You can recover your HP and MP, and store items.
- **11207**: You can also change jobs there. All adventurers of San d'Orian citizenship are assigned a Mog House.
- **11208**: Make yourself at home!
- **11209**: Hmm... So be it.
- **11212**: This way, please.
- **11213**: What do you wish to do? [Nothing in particular./Ask for an explanation of Mog Houses./Visit the Mog House of a party member.]
- **11214**: Whose Mog House will you visit? [Never mind./%1/%2/%3/%4/%5/%6/%7/%8/%9/%10/%11/%12/%13/%14/%15/%16/%17]

## Events

### Event 65535

#### Metadata

| Field        | Value   |
|--------------|---------|
| Entrypoint   | 0x0000  |
| Data Size    | 1 bytes |
| Instructions | 1       |

```
      00 01 02 03 04 05 06 07  08 09 0A 0B 0C 0D 0E 0F
      -- -- -- -- -- -- -- --  -- -- -- -- -- -- -- --
0000: 00                                                .               
```

#### Opcodes

```
  0: 0x0000 [0x00] END_REQSTACK()
```

### Event 545

#### Metadata

| Field        | Value    |
|--------------|----------|
| Entrypoint   | 0x0001   |
| Data Size    | 36 bytes |
| Instructions | 10       |

```
      00 01 02 03 04 05 06 07  08 09 0A 0B 0C 0D 0E 0F
      -- -- -- -- -- -- -- --  -- -- -- -- -- -- -- --
0000:    1E F0 FF FF 7F 6F 70  66 00 80 F8 FF FF 7F F8   .....opf.......
0010: FF FF 7F 74 6C 6B 30 1D  01 80 23 5E 69 64 6C 30  ...tlk0...#^idl0
0020: 1C 00 80 21 00                                    ...!.           
```

#### Opcodes

```
  0: 0x0001 [0x1E] EventEntity looks at LocalPlayer and starts talking
  1: 0x0006 [0x6F] WAIT_FRAME_DELAY: Yield until WaitTime reaches zero
  2: 0x0007 [0x70] WAIT_ENTITY_RENDER_FLAG: Wait while EventEntity->Render.Flags3 bit 2 is set (cancel turn if not)
  3: 0x0008 [0x66] LOAD_EXT_SCHEDULER_MAIN: Load scheduler "tlk0" with entities [EventEntity, EventEntity], work=30*
  4: 0x0017 [0x1D] PRINT_EVENT_MESSAGE(message_id=7643*)
    → "Beyond lies the residential area."
  5: 0x001A [0x23] WAIT_FOR_DIALOG_INTERACTION
  6: 0x001B [0x5E] EventEntity goes idle (kills current action) (animation: "idl0")
  7: 0x0020 [0x1C] WAIT(30* ticks)
  8: 0x0023 [0x21] END_EVENT
  9: 0x0024 [0x00] END_REQSTACK()
```

### Event 775

#### Metadata

| Field        | Value     |
|--------------|-----------|
| Entrypoint   | 0x0025    |
| Data Size    | 208 bytes |
| Instructions | 50        |

```
      00 01 02 03 04 05 06 07  08 09 0A 0B 0C 0D 0E 0F
      -- -- -- -- -- -- -- --  -- -- -- -- -- -- -- --
0020:                02 00 00  02 80 00 F4 00 03 01 10       ...........
0030: 02 80 03 02 00 03 80 C2  01 01 00 02 01 00 02 80  ................
0040: 01 4A 00 3D 02 00 04 80  05 80 1E F0 FF FF 7F 02  .J.=............
0050: 02 10 02 80 00 65 00 1D  06 80 23 3D 02 00 05 80  .....e....#=....
0060: 05 80 01 69 00 1D 07 80  23 02 02 00 03 80 01 F3  ...i....#.......
0070: 00 24 08 80 02 80 02 00  25 02 00 10 02 80 00 88  .$......%.......
0080: 00 1D 09 80 23 01 F3 00  02 00 10 05 80 00 A6 00  ....#...........
0090: 1D 0A 80 23 1D 0B 80 23  1D 0C 80 23 3C 01 10 0D  ...#...#...#<...
00A0: 80 05 80 01 F3 00 02 00  10 04 80 00 F3 00 C2 01  ................
00B0: 01 00 0F 01 00 0E 80 3D  01 00 02 80 05 80 24 0F  .......=......$.
00C0: 80 02 80 01 00 25 02 00  10 02 80 00 D5 00 1D 09  .....%..........
00D0: 80 23 01 D5 00 02 00 10  02 80 00 E5 00 03 01 10  .#..............
00E0: 02 80 01 F0 00 42 1D 10  80 23 C2 02 00 10 01 10  .....B...#......
00F0: 01 F3 00 21 00                                    ...!.           
```

#### Opcodes

```
  0: 0x0025 [0x02] IF !(ExtData[1]->WorkLocal[0] == 0*) GOTO 0x00F4
  1: 0x002D [0x03] Work_Zone[1] = 0*
  2: 0x0032 [0x03] ExtData[1]->WorkLocal[2] = 6*
  3: 0x0037 [0xC2] PARTY_STATE_CHECK: ExtData[1]->WorkLocal[1] = mask of visitable party members
  4: 0x003B [0x02] IF !(ExtData[1]->WorkLocal[1] == 0*) GOTO 0x004A
  5: 0x0043 [0x3D] CLEAR_BIT_FLAG_CONDITIONAL(target_work_offset=ExtData[1]->WorkLocal[2], bit_index_work_offset=2*, condition_work_offset=1*)
  6: 0x004A [0x1E] EventEntity looks at LocalPlayer and starts talking
  7: 0x004F [0x02] IF !(Work_Zone[2] == 0*) GOTO 0x0065
  8: 0x0057 [0x1D] PRINT_EVENT_MESSAGE(message_id=11204*)
    → "The San d'Oria residential area is ahead. You'll find your Mog House within."
  9: 0x005A [0x23] WAIT_FOR_DIALOG_INTERACTION
 10: 0x005B [0x3D] CLEAR_BIT_FLAG_CONDITIONAL(target_work_offset=ExtData[1]->WorkLocal[2], bit_index_work_offset=1*, condition_work_offset=1*)
 11: 0x0062 [0x01] GOTO 0x0069
 12: 0x0065 [0x1D] PRINT_EVENT_MESSAGE(message_id=11205*)
    → "Ahead lies the residential area. Proceed to your Rent-a-Room, foreigner!"
 13: 0x0068 [0x23] WAIT_FOR_DIALOG_INTERACTION

SUBROUTINE_0069:
 14: 0x0069 [0x02] IF !(ExtData[1]->WorkLocal[2] == 6*) GOTO 0x00F3
 15: 0x0071 [0x24] CREATE_DIALOG(message_id=11213*, default_option=0*, option_flags=ExtData[1]->WorkLocal[2])
    → "What do you wish to do? [Nothing in particular./Ask for an explanation of Mog Houses./Visit the Mog House of a party member.]"
 16: 0x0078 [0x25] WAIT_DIALOG_SELECT()
 17: 0x0079 [0x02] IF !(Work_Zone[0] == 0*) GOTO 0x0088
 18: 0x0081 [0x1D] PRINT_EVENT_MESSAGE(message_id=11209*)
    → "Hmm... So be it."
 19: 0x0084 [0x23] WAIT_FOR_DIALOG_INTERACTION
 20: 0x0085 [0x01] GOTO 0x00F3
 21: 0x0088 [0x02] IF !(Work_Zone[0] == 1*) GOTO 0x00A6
 22: 0x0090 [0x1D] PRINT_EVENT_MESSAGE(message_id=11206*)
    → "Mog Houses are useful places. You can recover your HP and MP, and store items."
 23: 0x0093 [0x23] WAIT_FOR_DIALOG_INTERACTION
 24: 0x0094 [0x1D] PRINT_EVENT_MESSAGE(message_id=11207*)
    → "You can also change jobs there. All adventurers of San d'Orian citizenship are assigned a Mog House."
 25: 0x0097 [0x23] WAIT_FOR_DIALOG_INTERACTION
 26: 0x0098 [0x1D] PRINT_EVENT_MESSAGE(message_id=11208*)
    → "Make yourself at home!"
 27: 0x009B [0x23] WAIT_FOR_DIALOG_INTERACTION
 28: 0x009C [0x3C] SET_BIT_FLAG_CONDITIONAL(target_work_offset=Work_Zone[1], bit_index_work_offset=31*, condition_work_offset=1*)
 29: 0x00A3 [0x01] GOTO 0x00F3
 30: 0x00A6 [0x02] IF !(Work_Zone[0] == 2*) GOTO 0x00F3
 31: 0x00AE [0xC2] PARTY_STATE_CHECK: ExtData[1]->WorkLocal[1] = mask of visitable party members
 32: 0x00B2 [0x0F] ExtData[1]->WorkLocal[1] ^= 4294967295*
 33: 0x00B7 [0x3D] CLEAR_BIT_FLAG_CONDITIONAL(target_work_offset=ExtData[1]->WorkLocal[1], bit_index_work_offset=0*, condition_work_offset=1*)
 34: 0x00BE [0x24] CREATE_DIALOG(message_id=11214*, default_option=0*, option_flags=ExtData[1]->WorkLocal[1])
    → "Whose Mog House will you visit? [Never mind./%1/%2/%3/%4/%5/%6/%7/%8/%9/%10/%11/%12/%13/%14/%15/%16/%17]"
 35: 0x00C5 [0x25] WAIT_DIALOG_SELECT()
 36: 0x00C6 [0x02] IF !(Work_Zone[0] == 0*) GOTO 0x00D5
 37: 0x00CE [0x1D] PRINT_EVENT_MESSAGE(message_id=11209*)
    → "Hmm... So be it."
 38: 0x00D1 [0x23] WAIT_FOR_DIALOG_INTERACTION
 39: 0x00D2 [0x01] GOTO 0x00D5

SUBROUTINE_00D5:
 40: 0x00D5 [0x02] IF !(Work_Zone[0] == 0*) GOTO 0x00E5
 41: 0x00DD [0x03] Work_Zone[1] = 0*
 42: 0x00E2 [0x01] GOTO 0x00F0
 43: 0x00E5 [0x42] SET_CLI_EVENT_CANCEL_DATA()
 44: 0x00E6 [0x1D] PRINT_EVENT_MESSAGE(message_id=11212*)
    → "This way, please."
 45: 0x00E9 [0x23] WAIT_FOR_DIALOG_INTERACTION
 46: 0x00EA [0xC2] PARTY_STATE_CHECK: Work_Zone[1] = check if party member (from Work_Zone[0]) house is open

SUBROUTINE_00F0:
 47: 0x00F0 [0x01] GOTO 0x00F3

SUBROUTINE_00F3:
 48: 0x00F3 [0x21] END_EVENT
 49: 0x00F4 [0x00] END_REQSTACK()
```

### Event 574

#### Metadata

| Field        | Value     |
|--------------|-----------|
| Entrypoint   | 0x00F5    |
| Data Size    | 150 bytes |
| Instructions | 37        |

```
      00 01 02 03 04 05 06 07  08 09 0A 0B 0C 0D 0E 0F
      -- -- -- -- -- -- -- --  -- -- -- -- -- -- -- --
00F0:                1E F0 FF  FF 7F 6F 70 66 00 80 F8       .....opf...
0100: FF FF 7F F8 FF FF 7F 74  6C 6B 30 1D 02 80 23 1C  .......tlk0...#.
0110: 00 80 1D 05 80 23 5E 69  64 6C 30 24 04 80 02 80  .....#^idl0$....
0120: 02 80 25 02 00 10 02 80  00 5C 01 66 00 80 F8 FF  ..%......\.f....
0130: FF 7F F8 FF FF 7F 74 6C  6B 30 1D 11 80 23 1C 00  ......tlk0...#..
0140: 80 1D 12 80 23 1C 00 80  1D 13 80 23 5E 69 64 6C  ....#......#^idl
0150: 30 1C 00 80 03 01 10 02  80 01 87 01 02 00 10 05  0...............
0160: 80 00 87 01 66 00 80 F8  FF FF 7F F8 FF FF 7F 74  ....f..........t
0170: 6C 6B 30 1D 14 80 23 5E  69 64 6C 30 1C 00 80 03  lk0...#^idl0....
0180: 01 10 05 80 01 87 01 20  00 21 00                 ....... .!.     
```

#### Opcodes

```
  0: 0x00F5 [0x1E] EventEntity looks at LocalPlayer and starts talking
  1: 0x00FA [0x6F] WAIT_FRAME_DELAY: Yield until WaitTime reaches zero
  2: 0x00FB [0x70] WAIT_ENTITY_RENDER_FLAG: Wait while EventEntity->Render.Flags3 bit 2 is set (cancel turn if not)
  3: 0x00FC [0x66] LOAD_EXT_SCHEDULER_MAIN: Load scheduler "tlk0" with entities [EventEntity, EventEntity], work=30*
  4: 0x010B [0x1D] PRINT_EVENT_MESSAGE(message_id=0*)
    → "The San d'Oria residential area is ahead. You'll find your Mog House within."
  5: 0x010E [0x23] WAIT_FOR_DIALOG_INTERACTION
  6: 0x010F [0x1C] WAIT(30* ticks)
  7: 0x0112 [0x1D] PRINT_EVENT_MESSAGE(message_id=1*)
    → "I've not told you about Mog Houses yet, have I? Would you care to learn about them now?"
  8: 0x0115 [0x23] WAIT_FOR_DIALOG_INTERACTION
  9: 0x0116 [0x5E] EventEntity goes idle (kills current action) (animation: "idl0")
 10: 0x011B [0x24] CREATE_DIALOG(message_id=2*, default_option=0*, option_flags=0*)
    → "Care to learn about Mog Houses? [Sure!/No, thanks.]"
 11: 0x0122 [0x25] WAIT_DIALOG_SELECT()
 12: 0x0123 [0x02] IF !(Work_Zone[0] == 0*) GOTO 0x015C
 13: 0x012B [0x66] LOAD_EXT_SCHEDULER_MAIN: Load scheduler "tlk0" with entities [EventEntity, EventEntity], work=30*
 14: 0x013A [0x1D] PRINT_EVENT_MESSAGE(message_id=3*)
    → "Mog Houses are useful places. You can recover your HP and MP, and store items there."
 15: 0x013D [0x23] WAIT_FOR_DIALOG_INTERACTION
 16: 0x013E [0x1C] WAIT(30* ticks)
 17: 0x0141 [0x1D] PRINT_EVENT_MESSAGE(message_id=4*)
    → "You can also change jobs there. All adventurers of San d'Orian citizenship are assigned a Mog House."
 18: 0x0144 [0x23] WAIT_FOR_DIALOG_INTERACTION
 19: 0x0145 [0x1C] WAIT(30* ticks)
 20: 0x0148 [0x1D] PRINT_EVENT_MESSAGE(message_id=5*)
    → "Make yourself at home!"
 21: 0x014B [0x23] WAIT_FOR_DIALOG_INTERACTION
 22: 0x014C [0x5E] EventEntity goes idle (kills current action) (animation: "idl0")
 23: 0x0151 [0x1C] WAIT(30* ticks)
 24: 0x0154 [0x03] Work_Zone[1] = 0*
 25: 0x0159 [0x01] GOTO 0x0187
 26: 0x015C [0x02] IF !(Work_Zone[0] == 1*) GOTO 0x0187
 27: 0x0164 [0x66] LOAD_EXT_SCHEDULER_MAIN: Load scheduler "tlk0" with entities [EventEntity, EventEntity], work=30*
 28: 0x0173 [0x1D] PRINT_EVENT_MESSAGE(message_id=8*)
    → "Hmm... So be it."
 29: 0x0176 [0x23] WAIT_FOR_DIALOG_INTERACTION
 30: 0x0177 [0x5E] EventEntity goes idle (kills current action) (animation: "idl0")
 31: 0x017C [0x1C] WAIT(30* ticks)
 32: 0x017F [0x03] Work_Zone[1] = 1*
 33: 0x0184 [0x01] GOTO 0x0187

SUBROUTINE_0187:
 34: 0x0187 [0x20] SET_CLI_EVENT_UC_FLAG: Unlock player control
 35: 0x0189 [0x21] END_EVENT
 36: 0x018A [0x00] END_REQSTACK()
```

### Event 576

#### Metadata

| Field        | Value     |
|--------------|-----------|
| Entrypoint   | 0x018B    |
| Data Size    | 148 bytes |
| Instructions | 36        |

```
      00 01 02 03 04 05 06 07  08 09 0A 0B 0C 0D 0E 0F
      -- -- -- -- -- -- -- --  -- -- -- -- -- -- -- --
0180:                                   1E F0 FF FF 7F             .....
0190: 6F 70 66 00 80 F8 FF FF  7F F8 FF FF 7F 74 6C 6B  opf..........tlk
01A0: 30 1D 03 80 23 1C 00 80  1D 15 80 23 5E 69 64 6C  0...#......#^idl
01B0: 30 24 04 80 05 80 02 80  25 02 00 10 02 80 00 F2  0$......%.......
01C0: 01 66 00 80 F8 FF FF 7F  F8 FF FF 7F 74 6C 6B 30  .f..........tlk0
01D0: 1D 11 80 23 1C 00 80 1D  12 80 23 1C 00 80 1D 13  ...#......#.....
01E0: 80 23 5E 69 64 6C 30 1C  00 80 03 01 10 02 80 01  .#^idl0.........
01F0: 1D 02 02 00 10 05 80 00  1D 02 66 00 80 F8 FF FF  ..........f.....
0200: 7F F8 FF FF 7F 74 6C 6B  30 1D 14 80 23 5E 69 64  .....tlk0...#^id
0210: 6C 30 1C 00 80 03 01 10  05 80 01 1D 02 21 00     l0...........!. 
```

#### Opcodes

```
  0: 0x018B [0x1E] EventEntity looks at LocalPlayer and starts talking
  1: 0x0190 [0x6F] WAIT_FRAME_DELAY: Yield until WaitTime reaches zero
  2: 0x0191 [0x70] WAIT_ENTITY_RENDER_FLAG: Wait while EventEntity->Render.Flags3 bit 2 is set (cancel turn if not)
  3: 0x0192 [0x66] LOAD_EXT_SCHEDULER_MAIN: Load scheduler "tlk0" with entities [EventEntity, EventEntity], work=30*
  4: 0x01A1 [0x1D] PRINT_EVENT_MESSAGE(message_id=6*)
    → "The San d'Oria residential area is ahead. You'll find your Mog House within."
  5: 0x01A4 [0x23] WAIT_FOR_DIALOG_INTERACTION
  6: 0x01A5 [0x1C] WAIT(30* ticks)
  7: 0x01A8 [0x1D] PRINT_EVENT_MESSAGE(message_id=7*)
    → "Would you like to hear about Mog Houses again?"
  8: 0x01AB [0x23] WAIT_FOR_DIALOG_INTERACTION
  9: 0x01AC [0x5E] EventEntity goes idle (kills current action) (animation: "idl0")
 10: 0x01B1 [0x24] CREATE_DIALOG(message_id=2*, default_option=1*, option_flags=0*)
    → "Care to learn about Mog Houses? [Sure!/No, thanks.]"
 11: 0x01B8 [0x25] WAIT_DIALOG_SELECT()
 12: 0x01B9 [0x02] IF !(Work_Zone[0] == 0*) GOTO 0x01F2
 13: 0x01C1 [0x66] LOAD_EXT_SCHEDULER_MAIN: Load scheduler "tlk0" with entities [EventEntity, EventEntity], work=30*
 14: 0x01D0 [0x1D] PRINT_EVENT_MESSAGE(message_id=3*)
    → "Mog Houses are useful places. You can recover your HP and MP, and store items there."
 15: 0x01D3 [0x23] WAIT_FOR_DIALOG_INTERACTION
 16: 0x01D4 [0x1C] WAIT(30* ticks)
 17: 0x01D7 [0x1D] PRINT_EVENT_MESSAGE(message_id=4*)
    → "You can also change jobs there. All adventurers of San d'Orian citizenship are assigned a Mog House."
 18: 0x01DA [0x23] WAIT_FOR_DIALOG_INTERACTION
 19: 0x01DB [0x1C] WAIT(30* ticks)
 20: 0x01DE [0x1D] PRINT_EVENT_MESSAGE(message_id=5*)
    → "Make yourself at home!"
 21: 0x01E1 [0x23] WAIT_FOR_DIALOG_INTERACTION
 22: 0x01E2 [0x5E] EventEntity goes idle (kills current action) (animation: "idl0")
 23: 0x01E7 [0x1C] WAIT(30* ticks)
 24: 0x01EA [0x03] Work_Zone[1] = 0*
 25: 0x01EF [0x01] GOTO 0x021D
 26: 0x01F2 [0x02] IF !(Work_Zone[0] == 1*) GOTO 0x021D
 27: 0x01FA [0x66] LOAD_EXT_SCHEDULER_MAIN: Load scheduler "tlk0" with entities [EventEntity, EventEntity], work=30*
 28: 0x0209 [0x1D] PRINT_EVENT_MESSAGE(message_id=8*)
    → "Hmm... So be it."
 29: 0x020C [0x23] WAIT_FOR_DIALOG_INTERACTION
 30: 0x020D [0x5E] EventEntity goes idle (kills current action) (animation: "idl0")
 31: 0x0212 [0x1C] WAIT(30* ticks)
 32: 0x0215 [0x03] Work_Zone[1] = 1*
 33: 0x021A [0x01] GOTO 0x021D

SUBROUTINE_021D:
 34: 0x021D [0x21] END_EVENT
 35: 0x021E [0x00] END_REQSTACK()
```

### Event 575

#### Metadata

| Field        | Value     |
|--------------|-----------|
| Entrypoint   | 0x021F    |
| Data Size    | 149 bytes |
| Instructions | 37        |

```
      00 01 02 03 04 05 06 07  08 09 0A 0B 0C 0D 0E 0F
      -- -- -- -- -- -- -- --  -- -- -- -- -- -- -- --
0210:                                               1E                 .
0220: F0 FF FF 7F 6F 70 66 00  80 F8 FF FF 7F F8 FF FF  ....opf.........
0230: 7F 74 6C 6B 30 1D 16 80  23 1C 00 80 1D 17 80 23  .tlk0...#......#
0240: 1C 00 80 1D 18 80 23 5E  69 64 6C 30 24 19 80 02  ......#^idl0$...
0250: 80 02 80 25 02 00 10 02  80 00 87 02 42 66 00 80  ...%........Bf..
0260: F8 FF FF 7F F8 FF FF 7F  74 6C 6B 30 1D 1A 80 23  ........tlk0...#
0270: 1C 00 80 1D 1B 80 23 5E  69 64 6C 30 1C 00 80 03  ......#^idl0....
0280: 01 10 02 80 01 B2 02 02  00 10 05 80 00 B2 02 66  ...............f
0290: 00 80 F8 FF FF 7F F8 FF  FF 7F 74 6C 6B 30 1D 14  ..........tlk0..
02A0: 80 23 5E 69 64 6C 30 1C  00 80 03 01 10 05 80 01  .#^idl0.........
02B0: B2 02 21 00                                       ..!.            
```

#### Opcodes

```
  0: 0x021F [0x1E] EventEntity looks at LocalPlayer and starts talking
  1: 0x0224 [0x6F] WAIT_FRAME_DELAY: Yield until WaitTime reaches zero
  2: 0x0225 [0x70] WAIT_ENTITY_RENDER_FLAG: Wait while EventEntity->Render.Flags3 bit 2 is set (cancel turn if not)
  3: 0x0226 [0x66] LOAD_EXT_SCHEDULER_MAIN: Load scheduler "tlk0" with entities [EventEntity, EventEntity], work=30*
  4: 0x0235 [0x1D] PRINT_EVENT_MESSAGE(message_id=9*)
    → "Ahead lies the residential area. You'll find your Mog House within."
  5: 0x0238 [0x23] WAIT_FOR_DIALOG_INTERACTION
  6: 0x0239 [0x1C] WAIT(30* ticks)
  7: 0x023C [0x1D] PRINT_EVENT_MESSAGE(message_id=10*)
    → "By the way, my records indicate that you're renting a room in [San d'Oria/Bastok/Windurst/Jeuno/Kazham/Rabao/Norg/Al Zahbi]."
  8: 0x023F [0x23] WAIT_FOR_DIALOG_INTERACTION
  9: 0x0240 [0x1C] WAIT(30* ticks)
 10: 0x0243 [0x1D] PRINT_EVENT_MESSAGE(message_id=11*)
    → "Would you like to check out of the room in [San d'Oria/Bastok/Windurst/Jeuno/Kazham/Rabao/Norg/Al Zahbi] and move your things back here?"
 11: 0x0246 [0x23] WAIT_FOR_DIALOG_INTERACTION
 12: 0x0247 [0x5E] EventEntity goes idle (kills current action) (animation: "idl0")
 13: 0x024C [0x24] CREATE_DIALOG(message_id=12*, default_option=0*, option_flags=0*)
    → "Move back to San d'Oria? [Yes, please./No, not yet.]"
 14: 0x0253 [0x25] WAIT_DIALOG_SELECT()
 15: 0x0254 [0x02] IF !(Work_Zone[0] == 0*) GOTO 0x0287
 16: 0x025C [0x42] SET_CLI_EVENT_CANCEL_DATA()
 17: 0x025D [0x66] LOAD_EXT_SCHEDULER_MAIN: Load scheduler "tlk0" with entities [EventEntity, EventEntity], work=30*
 18: 0x026C [0x1D] PRINT_EVENT_MESSAGE(message_id=13*)
    → "It is done. We've checked you out of your Rent-a-Room in [San d'Oria/Bastok/Windurst/Jeuno/Kazham/Rabao/Norg/Al Zahbi]."
 19: 0x026F [0x23] WAIT_FOR_DIALOG_INTERACTION
 20: 0x0270 [0x1C] WAIT(30* ticks)
 21: 0x0273 [0x1D] PRINT_EVENT_MESSAGE(message_id=14*)
    → "All your belongings should be waiting for you inside. Those moogles are amazing creatures, are they not?"
 22: 0x0276 [0x23] WAIT_FOR_DIALOG_INTERACTION
 23: 0x0277 [0x5E] EventEntity goes idle (kills current action) (animation: "idl0")
 24: 0x027C [0x1C] WAIT(30* ticks)
 25: 0x027F [0x03] Work_Zone[1] = 0*
 26: 0x0284 [0x01] GOTO 0x02B2
 27: 0x0287 [0x02] IF !(Work_Zone[0] == 1*) GOTO 0x02B2
 28: 0x028F [0x66] LOAD_EXT_SCHEDULER_MAIN: Load scheduler "tlk0" with entities [EventEntity, EventEntity], work=30*
 29: 0x029E [0x1D] PRINT_EVENT_MESSAGE(message_id=8*)
    → "Hmm... So be it."
 30: 0x02A1 [0x23] WAIT_FOR_DIALOG_INTERACTION
 31: 0x02A2 [0x5E] EventEntity goes idle (kills current action) (animation: "idl0")
 32: 0x02A7 [0x1C] WAIT(30* ticks)
 33: 0x02AA [0x03] Work_Zone[1] = 1*
 34: 0x02AF [0x01] GOTO 0x02B2

SUBROUTINE_02B2:
 35: 0x02B2 [0x21] END_EVENT
 36: 0x02B3 [0x00] END_REQSTACK()
```

### Event 577

#### Metadata

| Field        | Value    |
|--------------|----------|
| Entrypoint   | 0x02B4   |
| Data Size    | 43 bytes |
| Instructions | 13       |

```
      00 01 02 03 04 05 06 07  08 09 0A 0B 0C 0D 0E 0F
      -- -- -- -- -- -- -- --  -- -- -- -- -- -- -- --
02B0:             1E F0 FF FF  7F 6F 70 66 00 80 F8 FF      .....opf....
02C0: FF 7F F8 FF FF 7F 74 6C  6B 30 1D 1C 80 23 1C 00  ......tlk0...#..
02D0: 80 1D 1D 80 23 5E 69 64  6C 30 1C 00 80 21 00     ....#^idl0...!. 
```

#### Opcodes

```
  0: 0x02B4 [0x1E] EventEntity looks at LocalPlayer and starts talking
  1: 0x02B9 [0x6F] WAIT_FRAME_DELAY: Yield until WaitTime reaches zero
  2: 0x02BA [0x70] WAIT_ENTITY_RENDER_FLAG: Wait while EventEntity->Render.Flags3 bit 2 is set (cancel turn if not)
  3: 0x02BB [0x66] LOAD_EXT_SCHEDULER_MAIN: Load scheduler "tlk0" with entities [EventEntity, EventEntity], work=30*
  4: 0x02CA [0x1D] PRINT_EVENT_MESSAGE(message_id=15*)
    → "Ahead lies the residential area. Proceed to your Rent-a-Room, foreigner!"
  5: 0x02CD [0x23] WAIT_FOR_DIALOG_INTERACTION
  6: 0x02CE [0x1C] WAIT(30* ticks)
  7: 0x02D1 [0x1D] PRINT_EVENT_MESSAGE(message_id=16*)
    → "If you're already renting here, you may come and go as you please, like the Mog House in your homeland."
  8: 0x02D4 [0x23] WAIT_FOR_DIALOG_INTERACTION
  9: 0x02D5 [0x5E] EventEntity goes idle (kills current action) (animation: "idl0")
 10: 0x02DA [0x1C] WAIT(30* ticks)
 11: 0x02DD [0x21] END_EVENT
 12: 0x02DE [0x00] END_REQSTACK()
```

### Event 65535.1

#### Metadata

| Field        | Value    |
|--------------|----------|
| Entrypoint   | 0x02DF   |
| Data Size    | 42 bytes |
| Instructions | 12       |

```
      00 01 02 03 04 05 06 07  08 09 0A 0B 0C 0D 0E 0F
      -- -- -- -- -- -- -- --  -- -- -- -- -- -- -- --
02D0:                                               1E                 .
02E0: F0 FF FF 7F 6F 70 66 00  80 F8 FF FF 7F F8 FF FF  ....opf.........
02F0: 7F 74 6C 6B 30 1D 1C 80  23 1C 00 80 1D 1D 80 23  .tlk0...#......#
0300: 5E 69 64 6C 30 1C 00 80  00                       ^idl0....       
```

#### Opcodes

```
  0: 0x02DF [0x1E] EventEntity looks at LocalPlayer and starts talking
  1: 0x02E4 [0x6F] WAIT_FRAME_DELAY: Yield until WaitTime reaches zero
  2: 0x02E5 [0x70] WAIT_ENTITY_RENDER_FLAG: Wait while EventEntity->Render.Flags3 bit 2 is set (cancel turn if not)
  3: 0x02E6 [0x66] LOAD_EXT_SCHEDULER_MAIN: Load scheduler "tlk0" with entities [EventEntity, EventEntity], work=30*
  4: 0x02F5 [0x1D] PRINT_EVENT_MESSAGE(message_id=15*)
    → "Ahead lies the residential area. Proceed to your Rent-a-Room, foreigner!"
  5: 0x02F8 [0x23] WAIT_FOR_DIALOG_INTERACTION
  6: 0x02F9 [0x1C] WAIT(30* ticks)
  7: 0x02FC [0x1D] PRINT_EVENT_MESSAGE(message_id=16*)
    → "If you're already renting here, you may come and go as you please, like the Mog House in your homeland."
  8: 0x02FF [0x23] WAIT_FOR_DIALOG_INTERACTION
  9: 0x0300 [0x5E] EventEntity goes idle (kills current action) (animation: "idl0")
 10: 0x0305 [0x1C] WAIT(30* ticks)
 11: 0x0308 [0x00] END_REQSTACK()
```

### Event 578

#### Metadata

| Field        | Value     |
|--------------|-----------|
| Entrypoint   | 0x0309    |
| Data Size    | 142 bytes |
| Instructions | 34        |

```
      00 01 02 03 04 05 06 07  08 09 0A 0B 0C 0D 0E 0F
      -- -- -- -- -- -- -- --  -- -- -- -- -- -- -- --
0300:                             1E F0 FF FF 7F 6F 70           .....op
0310: 66 00 80 F8 FF FF 7F F8  FF FF 7F 74 6C 6B 30 1D  f..........tlk0.
0320: 1E 80 23 1C 00 80 1D 1F  80 23 1C 00 80 1D 20 80  ..#......#.... .
0330: 23 5E 69 64 6C 30 24 21  80 02 80 02 80 25 02 00  #^idl0$!.....%..
0340: 10 02 80 00 6A 03 42 66  00 80 F8 FF FF 7F F8 FF  ....j.Bf........
0350: FF 7F 74 6C 6B 30 1D 22  80 23 5E 69 64 6C 30 1C  ..tlk0.".#^idl0.
0360: 00 80 03 01 10 02 80 01  95 03 02 00 10 05 80 00  ................
0370: 95 03 66 00 80 F8 FF FF  7F F8 FF FF 7F 74 6C 6B  ..f..........tlk
0380: 30 1D 14 80 23 5E 69 64  6C 30 1C 00 80 03 01 10  0...#^idl0......
0390: 05 80 01 95 03 21 00                              .....!.         
```

#### Opcodes

```
  0: 0x0309 [0x1E] EventEntity looks at LocalPlayer and starts talking
  1: 0x030E [0x6F] WAIT_FRAME_DELAY: Yield until WaitTime reaches zero
  2: 0x030F [0x70] WAIT_ENTITY_RENDER_FLAG: Wait while EventEntity->Render.Flags3 bit 2 is set (cancel turn if not)
  3: 0x0310 [0x66] LOAD_EXT_SCHEDULER_MAIN: Load scheduler "tlk0" with entities [EventEntity, EventEntity], work=30*
  4: 0x031F [0x1D] PRINT_EVENT_MESSAGE(message_id=17*)
    → "Ahead lies the residential area."
  5: 0x0322 [0x23] WAIT_FOR_DIALOG_INTERACTION
  6: 0x0323 [0x1C] WAIT(30* ticks)
  7: 0x0326 [0x1D] PRINT_EVENT_MESSAGE(message_id=18*)
    → "Wait! By law, all foreigners must lease a Rent-a-Room before entering the residential area!"
  8: 0x0329 [0x23] WAIT_FOR_DIALOG_INTERACTION
  9: 0x032A [0x1C] WAIT(30* ticks)
 10: 0x032D [0x1D] PRINT_EVENT_MESSAGE(message_id=19*)
    → "Once you've registered with us, you can use it as you would a Mog House back home, wherever that may be."
 11: 0x0330 [0x23] WAIT_FOR_DIALOG_INTERACTION
 12: 0x0331 [0x5E] EventEntity goes idle (kills current action) (animation: "idl0")
 13: 0x0336 [0x24] CREATE_DIALOG(message_id=20*, default_option=0*, option_flags=0*)
    → "Will you stay in San d'Oria? [Yes./No, I'd rather not.]"
 14: 0x033D [0x25] WAIT_DIALOG_SELECT()
 15: 0x033E [0x02] IF !(Work_Zone[0] == 0*) GOTO 0x036A
 16: 0x0346 [0x42] SET_CLI_EVENT_CANCEL_DATA()
 17: 0x0347 [0x66] LOAD_EXT_SCHEDULER_MAIN: Load scheduler "tlk0" with entities [EventEntity, EventEntity], work=30*
 18: 0x0356 [0x1D] PRINT_EVENT_MESSAGE(message_id=21*)
    → "All right, then. A San d'Orian Rent-a-Room has been leased to your name. Now move along, foreigner!"
 19: 0x0359 [0x23] WAIT_FOR_DIALOG_INTERACTION
 20: 0x035A [0x5E] EventEntity goes idle (kills current action) (animation: "idl0")
 21: 0x035F [0x1C] WAIT(30* ticks)
 22: 0x0362 [0x03] Work_Zone[1] = 0*
 23: 0x0367 [0x01] GOTO 0x0395
 24: 0x036A [0x02] IF !(Work_Zone[0] == 1*) GOTO 0x0395
 25: 0x0372 [0x66] LOAD_EXT_SCHEDULER_MAIN: Load scheduler "tlk0" with entities [EventEntity, EventEntity], work=30*
 26: 0x0381 [0x1D] PRINT_EVENT_MESSAGE(message_id=8*)
    → "Hmm... So be it."
 27: 0x0384 [0x23] WAIT_FOR_DIALOG_INTERACTION
 28: 0x0385 [0x5E] EventEntity goes idle (kills current action) (animation: "idl0")
 29: 0x038A [0x1C] WAIT(30* ticks)
 30: 0x038D [0x03] Work_Zone[1] = 1*
 31: 0x0392 [0x01] GOTO 0x0395

SUBROUTINE_0395:
 32: 0x0395 [0x21] END_EVENT
 33: 0x0396 [0x00] END_REQSTACK()
```
