# 17727507 - Regine

## Common Data

| Field            | Value                     |
|------------------|---------------------------|
| Zone             | Port San d'Oria (ID: 232) |
| Block Size       | 796 bytes                 |
| Total Events     | 8                         |
| References Count | 34                        |

## List of Events

| Event ID                 | Entrypoint   |   Size |   Instructions |
|--------------------------|--------------|--------|----------------|
| [65535](#event-65535)    | 0x0000       |      1 |              1 |
| [510](#event-510)        | 0x0001       |    446 |             98 |
| [535](#event-535)        | 0x01BF       |     55 |             19 |
| [536](#event-536)        | 0x01F6       |     41 |             13 |
| [603](#event-603)        | 0x021F       |     60 |             14 |
| [601](#event-601)        | 0x025B       |      1 |              1 |
| [65535.1](#event-655351) | 0x025C       |      6 |              2 |
| [746](#event-746)        | 0x0262       |      1 |              1 |

## DAT References (imed_data)

|   Index | Hex Value   |   Dec Value |
|---------|-------------|-------------|
|       0 | 0x40000000  |  1073741824 |
|       1 | 0x001E      |          30 |
|       2 | 0x1D72      |        7538 |
|       3 | 0x0002      |           2 |
|       4 | 0x0008      |           8 |
|       5 | 0x0003      |           3 |
|       6 | 0x0004      |           4 |
|       7 | 0x000C      |          12 |
|       8 | 0x1D74      |        7540 |
|       9 | 0x0000      |           0 |
|      10 | 0x1D77      |        7543 |
|      11 | 0x0001      |           1 |
|      12 | 0x1D75      |        7541 |
|      13 | 0x1D76      |        7542 |
|      14 | 0x1D9E      |        7582 |
|      15 | 0x1D9F      |        7583 |
|      16 | 0x1DA0      |        7584 |
|      17 | 0x1DA1      |        7585 |
|      18 | 0x1DA2      |        7586 |
|      19 | 0x1DA3      |        7587 |
|      20 | 0x1DA4      |        7588 |
|      21 | 0x1DA5      |        7589 |
|      22 | 0x1DA6      |        7590 |
|      23 | 0x1DA7      |        7591 |
|      24 | 0x1DA8      |        7592 |
|      25 | 0x000A      |          10 |
|      26 | 0x1DAA      |        7594 |
|      27 | 0x1D7B      |        7547 |
|      28 | 0x1D7C      |        7548 |
|      29 | 0x1D7D      |        7549 |
|      30 | 0x1D7E      |        7550 |
|      31 | 0x1DAF      |        7599 |
|      32 | 0x1DB0      |        7600 |
|      33 | 0x00C9      |         201 |

## String References

- **7538**: Good day! I am Regine. How might I help you?
- **7540**: How may I help you? [I forgot why I'm here./I want to buy magic./I'm looking for work./I'm out of flyers.]
- **7541**: There are two kinds of magic in the world: white that heals wounds, and black that makes them. Which do you choose?
- **7542**: Which do you choose? [White magic./Black magic.]
- **7543**: Now, that won't do. Come back when you remember what brought you here.
- **7547**: Well, I didn't take you for a courier! You look more like an adventurer, you know.
- **7548**: It's hard to keep up with fashion these days. Let's have the parcel, then.
- **7549**: Thank you for that. Drop in and do some shopping next time. Oh, and please give my regards to your manager.
- **7550**: My, my, my! What's this? I'm flattered, but this is a business, you know.
- **7582**: For two years we have run this shop, but alas! Hardly a customer in all this time!
- **7583**: We finally decided that perhaps our store is not in a good location.
- **7585**: Really! Hold your tongue when I speak with a customer, my dear, dear sister!
- **7586**: As a matter of fact, I've a request for you.
- **7587**: I need help passing out flyers for our Magicmart to people in town. I will pay you! Please, will you help?
- **7588**: Pass out flyers? [I'd love to./Not now, sorry.]
- **7589**: Here are the flyers, then. Please hand them to people on the streets of San d'Oria. Pass them all out, if you can!
- **7590**: Give them only to city folk; adventurers seem to find our place without help, and I wouldn't want to waste flyers.
- **7591**: Thank you! Come back when you've passed out all fifteen flyers. I'll pay you then!
- **7592**: As you wish. But come back if you have a change of heart.
- **7594**: You've lost the flyers? Paper and ink are not free, you know. I'll give you one flyer for $7 gil. Just "Trade" the money to me.
- **7599**: You've handed out all the flyers? Simply amazing! Here's your money, then, as promised!
- **7600**: I do hope everyone reads those flyers...

## Events

### Event 65535

#### Metadata

| Field        | Value   |
|--------------|---------|
| Entrypoint   | 0x0000  |
| Data Size    | 1 bytes |
| Instructions | 1       |

```
      00 01 02 03 04 05 06 07  08 09 0A 0B 0C 0D 0E 0F
      -- -- -- -- -- -- -- --  -- -- -- -- -- -- -- --
0000: 00                                                .               
```

#### Opcodes

```
  0: 0x0000 [0x00] END_REQSTACK()
```

### Event 510

#### Metadata

| Field        | Value     |
|--------------|-----------|
| Entrypoint   | 0x0001    |
| Data Size    | 446 bytes |
| Instructions | 98        |

```
      00 01 02 03 04 05 06 07  08 09 0A 0B 0C 0D 0E 0F
      -- -- -- -- -- -- -- --  -- -- -- -- -- -- -- --
0000:    03 00 00 02 10 03 01  10 00 80 1E F0 FF FF 7F   ...............
0010: 6F 70 66 01 80 F8 FF FF  7F F8 FF FF 7F 74 6C 6B  opf..........tlk
0020: 30 1D 02 80 23 5E 69 64  6C 30 02 00 00 03 80 80  0...#^idl0......
0030: 3A 00 03 01 00 04 80 01  4F 00 02 00 00 05 80 80  :.......O.......
0040: 4A 00 03 01 00 06 80 01  4F 00 03 01 00 07 80 24  J.......O......$
0050: 08 80 09 80 01 00 25 02  00 10 09 80 00 8A 00 66  ......%........f
0060: 01 80 F8 FF FF 7F F8 FF  FF 7F 64 69 73 30 1D 0A  ..........dis0..
0070: 80 23 53 F8 FF FF 7F F8  FF FF 7F 64 69 73 30 1C  .#S........dis0.
0080: 01 80 03 01 10 00 80 01  BD 01 02 00 10 0B 80 00  ................
0090: D5 00 66 01 80 F8 FF FF  7F F8 FF FF 7F 74 6C 6B  ..f..........tlk
00A0: 30 1D 0C 80 23 5E 69 64  6C 30 24 0D 80 09 80 09  0...#^idl0$.....
00B0: 80 25 02 00 10 09 80 00  C2 00 03 01 10 09 80 01  .%..............
00C0: D2 00 02 00 10 0B 80 00  D2 00 03 01 10 0B 80 01  ................
00D0: D2 00 01 BD 01 02 00 10  03 80 00 A3 01 1E F0 FF  ................
00E0: FF 7F 6F 70 66 01 80 F8  FF FF 7F F8 FF FF 7F 74  ..opf..........t
00F0: 6C 6B 30 1D 0E 80 23 1D  0F 80 23 5E 69 64 6C 30  lk0...#...#^idl0
0100: 4A 14 80 0E 01 13 80 0E  01 6F 76 13 80 0E 01 66  J........ov....f
0110: 01 80 14 80 0E 01 14 80  0E 01 74 6C 6B 30 2B 14  ..........tlk0+.
0120: 80 0E 01 10 80 23 6B 69  64 6C 30 14 80 0E 01 1E  .....#kidl0.....
0130: 14 80 0E 01 6F 70 1D 11  80 23 1E F0 FF FF 7F 6F  ....op...#.....o
0140: 70 66 01 80 F8 FF FF 7F  F8 FF FF 7F 74 6C 6B 30  pf..........tlk0
0150: 1D 12 80 23 1D 13 80 23  5E 69 64 6C 30 24 14 80  ...#...#^idl0$..
0160: 0B 80 09 80 25 02 00 10  09 80 00 91 01 42 66 01  ....%........Bf.
0170: 80 F8 FF FF 7F F8 FF FF  7F 74 6C 6B 31 1D 15 80  .........tlk1...
0180: 23 1D 16 80 23 1D 17 80  23 03 01 10 03 80 01 A0  #...#...#.......
0190: 01 02 00 10 0B 80 00 A0  01 1D 18 80 23 01 A0 01  ............#...
01A0: 01 BD 01 02 00 10 05 80  00 BD 01 42 03 09 10 19  ...........B....
01B0: 80 1D 1A 80 23 03 01 10  05 80 01 BD 01 21 00     ....#........!. 
```

#### Opcodes

```
  0: 0x0001 [0x03] ExtData[1]->WorkLocal[0] = Work_Zone[2]
  1: 0x0006 [0x03] Work_Zone[1] = 1073741824*
  2: 0x000B [0x1E] EventEntity looks at LocalPlayer and starts talking
  3: 0x0010 [0x6F] WAIT_FRAME_DELAY: Yield until WaitTime reaches zero
  4: 0x0011 [0x70] WAIT_ENTITY_RENDER_FLAG: Wait while EventEntity->Render.Flags3 bit 2 is set (cancel turn if not)
  5: 0x0012 [0x66] LOAD_EXT_SCHEDULER_MAIN: Load scheduler "tlk0" with entities [EventEntity, EventEntity], work=30*
  6: 0x0021 [0x1D] PRINT_EVENT_MESSAGE(message_id=7538*)
    → "Good day! I am Regine. How might I help you?"
  7: 0x0024 [0x23] WAIT_FOR_DIALOG_INTERACTION
  8: 0x0025 [0x5E] EventEntity goes idle (kills current action) (animation: "idl0")
  9: 0x002A [0x02] IF !(ExtData[1]->WorkLocal[0] == 2*) GOTO 0x003A
 10: 0x0032 [0x03] ExtData[1]->WorkLocal[1] = 8*
 11: 0x0037 [0x01] GOTO 0x004F
 12: 0x003A [0x02] IF !(ExtData[1]->WorkLocal[0] == 3*) GOTO 0x004A
 13: 0x0042 [0x03] ExtData[1]->WorkLocal[1] = 4*
 14: 0x0047 [0x01] GOTO 0x004F
 15: 0x004A [0x03] ExtData[1]->WorkLocal[1] = 12*

SUBROUTINE_004F:
 16: 0x004F [0x24] CREATE_DIALOG(message_id=7540*, default_option=0*, option_flags=ExtData[1]->WorkLocal[1])
    → "How may I help you? [I forgot why I'm here./I want to buy magic./I'm looking for work./I'm out of flyers.]"
 17: 0x0056 [0x25] WAIT_DIALOG_SELECT()
 18: 0x0057 [0x02] IF !(Work_Zone[0] == 0*) GOTO 0x008A
 19: 0x005F [0x66] LOAD_EXT_SCHEDULER_MAIN: Load scheduler "dis0" with entities [EventEntity, EventEntity], work=30*
 20: 0x006E [0x1D] PRINT_EVENT_MESSAGE(message_id=7543*)
    → "Now, that won't do. Come back when you remember what brought you here."
 21: 0x0071 [0x23] WAIT_FOR_DIALOG_INTERACTION
 22: 0x0072 [0x53] WAIT_SCHEDULER_TASK: Wait for scheduler "dis0" with entities [EventEntity, EventEntity]
 23: 0x007F [0x1C] WAIT(30* ticks)
 24: 0x0082 [0x03] Work_Zone[1] = 1073741824*
 25: 0x0087 [0x01] GOTO 0x01BD
 26: 0x008A [0x02] IF !(Work_Zone[0] == 1*) GOTO 0x00D5
 27: 0x0092 [0x66] LOAD_EXT_SCHEDULER_MAIN: Load scheduler "tlk0" with entities [EventEntity, EventEntity], work=30*
 28: 0x00A1 [0x1D] PRINT_EVENT_MESSAGE(message_id=7541*)
    → "There are two kinds of magic in the world: white that heals wounds, and black that makes them. Which do you choose?"
 29: 0x00A4 [0x23] WAIT_FOR_DIALOG_INTERACTION
 30: 0x00A5 [0x5E] EventEntity goes idle (kills current action) (animation: "idl0")
 31: 0x00AA [0x24] CREATE_DIALOG(message_id=7542*, default_option=0*, option_flags=0*)
    → "Which do you choose? [White magic./Black magic.]"
 32: 0x00B1 [0x25] WAIT_DIALOG_SELECT()
 33: 0x00B2 [0x02] IF !(Work_Zone[0] == 0*) GOTO 0x00C2
 34: 0x00BA [0x03] Work_Zone[1] = 0*
 35: 0x00BF [0x01] GOTO 0x00D2
 36: 0x00C2 [0x02] IF !(Work_Zone[0] == 1*) GOTO 0x00D2
 37: 0x00CA [0x03] Work_Zone[1] = 1*
 38: 0x00CF [0x01] GOTO 0x00D2

SUBROUTINE_00D2:
 39: 0x00D2 [0x01] GOTO 0x01BD
 40: 0x00D5 [0x02] IF !(Work_Zone[0] == 2*) GOTO 0x01A3
 41: 0x00DD [0x1E] EventEntity looks at LocalPlayer and starts talking
 42: 0x00E2 [0x6F] WAIT_FRAME_DELAY: Yield until WaitTime reaches zero
 43: 0x00E3 [0x70] WAIT_ENTITY_RENDER_FLAG: Wait while EventEntity->Render.Flags3 bit 2 is set (cancel turn if not)
 44: 0x00E4 [0x66] LOAD_EXT_SCHEDULER_MAIN: Load scheduler "tlk0" with entities [EventEntity, EventEntity], work=30*
 45: 0x00F3 [0x1D] PRINT_EVENT_MESSAGE(message_id=7582*)
    → "For two years we have run this shop, but alas! Hardly a customer in all this time!"
 46: 0x00F6 [0x23] WAIT_FOR_DIALOG_INTERACTION
 47: 0x00F7 [0x1D] PRINT_EVENT_MESSAGE(message_id=7583*)
    → "We finally decided that perhaps our store is not in a good location."
 48: 0x00FA [0x23] WAIT_FOR_DIALOG_INTERACTION
 49: 0x00FB [0x5E] EventEntity goes idle (kills current action) (animation: "idl0")
 50: 0x0100 [0x4A] Rugiette (ID: 17727508/0x010E8014) looks at Regine (ID: 17727507/0x010E8013)
 51: 0x0109 [0x6F] WAIT_FRAME_DELAY: Yield until WaitTime reaches zero
 52: 0x010A [0x76] CHECK_ENTITY_RENDER_FLAGS: Wait until Regine (ID: 17727507/0x010E8013) Render.Flags0 and Render.Flags3 conditions are met
 53: 0x010F [0x66] LOAD_EXT_SCHEDULER_MAIN: Load scheduler "tlk0" with entities [Rugiette (ID: 17727508/0x010E8014), Rugiette (ID: 17727508/0x010E8014)], work=30*
 54: 0x011E [0x2B] Rugiette (ID: 17727508/0x010E8014) [7584*]:
    → "Were I a customer, I would never turn from the corridor up above, and come all the way down this dreary stairwell!"
 55: 0x0125 [0x23] WAIT_FOR_DIALOG_INTERACTION
 56: 0x0126 [0x6B] STOP_AND_IDLE: Rugiette (ID: 17727508/0x010E8014) stops current action and resets to idle (animation="idl0")
 57: 0x012F [0x1E] EventEntity looks at Rugiette (ID: 17727508/0x010E8014) and starts talking
 58: 0x0134 [0x6F] WAIT_FRAME_DELAY: Yield until WaitTime reaches zero
 59: 0x0135 [0x70] WAIT_ENTITY_RENDER_FLAG: Wait while EventEntity->Render.Flags3 bit 2 is set (cancel turn if not)
 60: 0x0136 [0x1D] PRINT_EVENT_MESSAGE(message_id=7585*)
    → "Really! Hold your tongue when I speak with a customer, my dear, dear sister!"
 61: 0x0139 [0x23] WAIT_FOR_DIALOG_INTERACTION
 62: 0x013A [0x1E] EventEntity looks at LocalPlayer and starts talking
 63: 0x013F [0x6F] WAIT_FRAME_DELAY: Yield until WaitTime reaches zero
 64: 0x0140 [0x70] WAIT_ENTITY_RENDER_FLAG: Wait while EventEntity->Render.Flags3 bit 2 is set (cancel turn if not)
 65: 0x0141 [0x66] LOAD_EXT_SCHEDULER_MAIN: Load scheduler "tlk0" with entities [EventEntity, EventEntity], work=30*
 66: 0x0150 [0x1D] PRINT_EVENT_MESSAGE(message_id=7586*)
    → "As a matter of fact, I've a request for you."
 67: 0x0153 [0x23] WAIT_FOR_DIALOG_INTERACTION
 68: 0x0154 [0x1D] PRINT_EVENT_MESSAGE(message_id=7587*)
    → "I need help passing out flyers for our Magicmart to people in town. I will pay you! Please, will you help?"
 69: 0x0157 [0x23] WAIT_FOR_DIALOG_INTERACTION
 70: 0x0158 [0x5E] EventEntity goes idle (kills current action) (animation: "idl0")
 71: 0x015D [0x24] CREATE_DIALOG(message_id=7588*, default_option=1*, option_flags=0*)
    → "Pass out flyers? [I'd love to./Not now, sorry.]"
 72: 0x0164 [0x25] WAIT_DIALOG_SELECT()
 73: 0x0165 [0x02] IF !(Work_Zone[0] == 0*) GOTO 0x0191
 74: 0x016D [0x42] SET_CLI_EVENT_CANCEL_DATA()
 75: 0x016E [0x66] LOAD_EXT_SCHEDULER_MAIN: Load scheduler "tlk1" with entities [EventEntity, EventEntity], work=30*
 76: 0x017D [0x1D] PRINT_EVENT_MESSAGE(message_id=7589*)
    → "Here are the flyers, then. Please hand them to people on the streets of San d'Oria. Pass them all out, if you can!"
 77: 0x0180 [0x23] WAIT_FOR_DIALOG_INTERACTION
 78: 0x0181 [0x1D] PRINT_EVENT_MESSAGE(message_id=7590*)
    → "Give them only to city folk; adventurers seem to find our place without help, and I wouldn't want to waste flyers."
 79: 0x0184 [0x23] WAIT_FOR_DIALOG_INTERACTION
 80: 0x0185 [0x1D] PRINT_EVENT_MESSAGE(message_id=7591*)
    → "Thank you! Come back when you've passed out all fifteen flyers. I'll pay you then!"
 81: 0x0188 [0x23] WAIT_FOR_DIALOG_INTERACTION
 82: 0x0189 [0x03] Work_Zone[1] = 2*
 83: 0x018E [0x01] GOTO 0x01A0
 84: 0x0191 [0x02] IF !(Work_Zone[0] == 1*) GOTO 0x01A0
 85: 0x0199 [0x1D] PRINT_EVENT_MESSAGE(message_id=7592*)
    → "As you wish. But come back if you have a change of heart."
 86: 0x019C [0x23] WAIT_FOR_DIALOG_INTERACTION
 87: 0x019D [0x01] GOTO 0x01A0

SUBROUTINE_01A0:
 88: 0x01A0 [0x01] GOTO 0x01BD
 89: 0x01A3 [0x02] IF !(Work_Zone[0] == 3*) GOTO 0x01BD
 90: 0x01AB [0x42] SET_CLI_EVENT_CANCEL_DATA()
 91: 0x01AC [0x03] Work_Zone[9] = 10*
 92: 0x01B1 [0x1D] PRINT_EVENT_MESSAGE(message_id=7594*)
    → "You've lost the flyers? Paper and ink are not free, you know. I'll give you one flyer for $7 gil. Just "Trade" the money to me."
 93: 0x01B4 [0x23] WAIT_FOR_DIALOG_INTERACTION
 94: 0x01B5 [0x03] Work_Zone[1] = 3*
 95: 0x01BA [0x01] GOTO 0x01BD

SUBROUTINE_01BD:
 96: 0x01BD [0x21] END_EVENT
 97: 0x01BE [0x00] END_REQSTACK()
```

### Event 535

#### Metadata

| Field        | Value    |
|--------------|----------|
| Entrypoint   | 0x01BF   |
| Data Size    | 55 bytes |
| Instructions | 19       |

```
      00 01 02 03 04 05 06 07  08 09 0A 0B 0C 0D 0E 0F
      -- -- -- -- -- -- -- --  -- -- -- -- -- -- -- --
01B0:                                               42                 B
01C0: 20 01 1E F0 FF FF 7F 6F  70 66 01 80 F8 FF FF 7F   ......opf......
01D0: F8 FF FF 7F 74 6C 6B 30  1D 1B 80 23 1C 01 80 1D  ....tlk0...#....
01E0: 1C 80 23 1C 01 80 1D 1D  80 23 5E 69 64 6C 30 1C  ..#......#^idl0.
01F0: 01 80 20 00 21 00                                 .. .!.          
```

#### Opcodes

```
  0: 0x01BF [0x42] SET_CLI_EVENT_CANCEL_DATA()
  1: 0x01C0 [0x20] SET_CLI_EVENT_UC_FLAG: Lock player control
  2: 0x01C2 [0x1E] EventEntity looks at LocalPlayer and starts talking
  3: 0x01C7 [0x6F] WAIT_FRAME_DELAY: Yield until WaitTime reaches zero
  4: 0x01C8 [0x70] WAIT_ENTITY_RENDER_FLAG: Wait while EventEntity->Render.Flags3 bit 2 is set (cancel turn if not)
  5: 0x01C9 [0x66] LOAD_EXT_SCHEDULER_MAIN: Load scheduler "tlk0" with entities [EventEntity, EventEntity], work=30*
  6: 0x01D8 [0x1D] PRINT_EVENT_MESSAGE(message_id=7547*)
    → "Well, I didn't take you for a courier! You look more like an adventurer, you know."
  7: 0x01DB [0x23] WAIT_FOR_DIALOG_INTERACTION
  8: 0x01DC [0x1C] WAIT(30* ticks)
  9: 0x01DF [0x1D] PRINT_EVENT_MESSAGE(message_id=7548*)
    → "It's hard to keep up with fashion these days. Let's have the parcel, then."
 10: 0x01E2 [0x23] WAIT_FOR_DIALOG_INTERACTION
 11: 0x01E3 [0x1C] WAIT(30* ticks)
 12: 0x01E6 [0x1D] PRINT_EVENT_MESSAGE(message_id=7549*)
    → "Thank you for that. Drop in and do some shopping next time. Oh, and please give my regards to your manager."
 13: 0x01E9 [0x23] WAIT_FOR_DIALOG_INTERACTION
 14: 0x01EA [0x5E] EventEntity goes idle (kills current action) (animation: "idl0")
 15: 0x01EF [0x1C] WAIT(30* ticks)
 16: 0x01F2 [0x20] SET_CLI_EVENT_UC_FLAG: Unlock player control
 17: 0x01F4 [0x21] END_EVENT
 18: 0x01F5 [0x00] END_REQSTACK()
```

### Event 536

#### Metadata

| Field        | Value    |
|--------------|----------|
| Entrypoint   | 0x01F6   |
| Data Size    | 41 bytes |
| Instructions | 13       |

```
      00 01 02 03 04 05 06 07  08 09 0A 0B 0C 0D 0E 0F
      -- -- -- -- -- -- -- --  -- -- -- -- -- -- -- --
01F0:                   42 20  01 1E F0 FF FF 7F 6F 70        B ......op
0200: 66 01 80 F8 FF FF 7F F8  FF FF 7F 74 6C 6B 30 1D  f..........tlk0.
0210: 1E 80 23 5E 69 64 6C 30  1C 01 80 20 00 21 00     ..#^idl0... .!. 
```

#### Opcodes

```
  0: 0x01F6 [0x42] SET_CLI_EVENT_CANCEL_DATA()
  1: 0x01F7 [0x20] SET_CLI_EVENT_UC_FLAG: Lock player control
  2: 0x01F9 [0x1E] EventEntity looks at LocalPlayer and starts talking
  3: 0x01FE [0x6F] WAIT_FRAME_DELAY: Yield until WaitTime reaches zero
  4: 0x01FF [0x70] WAIT_ENTITY_RENDER_FLAG: Wait while EventEntity->Render.Flags3 bit 2 is set (cancel turn if not)
  5: 0x0200 [0x66] LOAD_EXT_SCHEDULER_MAIN: Load scheduler "tlk0" with entities [EventEntity, EventEntity], work=30*
  6: 0x020F [0x1D] PRINT_EVENT_MESSAGE(message_id=7550*)
    → "My, my, my! What's this? I'm flattered, but this is a business, you know."
  7: 0x0212 [0x23] WAIT_FOR_DIALOG_INTERACTION
  8: 0x0213 [0x5E] EventEntity goes idle (kills current action) (animation: "idl0")
  9: 0x0218 [0x1C] WAIT(30* ticks)
 10: 0x021B [0x20] SET_CLI_EVENT_UC_FLAG: Unlock player control
 11: 0x021D [0x21] END_EVENT
 12: 0x021E [0x00] END_REQSTACK()
```

### Event 603

#### Metadata

| Field        | Value    |
|--------------|----------|
| Entrypoint   | 0x021F   |
| Data Size    | 60 bytes |
| Instructions | 14       |

```
      00 01 02 03 04 05 06 07  08 09 0A 0B 0C 0D 0E 0F
      -- -- -- -- -- -- -- --  -- -- -- -- -- -- -- --
0210:                                               1E                 .
0220: F0 FF FF 7F 6F 70 66 01  80 F8 FF FF 7F F8 FF FF  ....opf.........
0230: 7F 74 6C 6B 30 1D 1F 80  23 1C 01 80 1D 20 80 23  .tlk0...#.... .#
0240: 5E 69 64 6C 30 1C 01 80  45 21 80 F0 FF FF 7F F0  ^idl0...E!......
0250: FF FF 7F 71 73 74 63 09  80 21 00                 ...qstc..!.     
```

#### Opcodes

```
  0: 0x021F [0x1E] EventEntity looks at LocalPlayer and starts talking
  1: 0x0224 [0x6F] WAIT_FRAME_DELAY: Yield until WaitTime reaches zero
  2: 0x0225 [0x70] WAIT_ENTITY_RENDER_FLAG: Wait while EventEntity->Render.Flags3 bit 2 is set (cancel turn if not)
  3: 0x0226 [0x66] LOAD_EXT_SCHEDULER_MAIN: Load scheduler "tlk0" with entities [EventEntity, EventEntity], work=30*
  4: 0x0235 [0x1D] PRINT_EVENT_MESSAGE(message_id=7599*)
    → "You've handed out all the flyers? Simply amazing! Here's your money, then, as promised!"
  5: 0x0238 [0x23] WAIT_FOR_DIALOG_INTERACTION
  6: 0x0239 [0x1C] WAIT(30* ticks)
  7: 0x023C [0x1D] PRINT_EVENT_MESSAGE(message_id=7600*)
    → "I do hope everyone reads those flyers..."
  8: 0x023F [0x23] WAIT_FOR_DIALOG_INTERACTION
  9: 0x0240 [0x5E] EventEntity goes idle (kills current action) (animation: "idl0")
 10: 0x0245 [0x1C] WAIT(30* ticks)
 11: 0x0248 [0x45] LOAD_SCHEDULED_TASK: Load scheduler "qstc" with entities [LocalPlayer, LocalPlayer], work=[201*, 0*]
 12: 0x0259 [0x21] END_EVENT
 13: 0x025A [0x00] END_REQSTACK()
```

### Event 601

#### Metadata

| Field        | Value   |
|--------------|---------|
| Entrypoint   | 0x025B  |
| Data Size    | 1 bytes |
| Instructions | 1       |

```
      00 01 02 03 04 05 06 07  08 09 0A 0B 0C 0D 0E 0F
      -- -- -- -- -- -- -- --  -- -- -- -- -- -- -- --
0250:                                   00                         .    
```

#### Opcodes

```
  0: 0x025B [0x00] END_REQSTACK()
```

### Event 65535.1

#### Metadata

| Field        | Value   |
|--------------|---------|
| Entrypoint   | 0x025C  |
| Data Size    | 6 bytes |
| Instructions | 2       |

```
      00 01 02 03 04 05 06 07  08 09 0A 0B 0C 0D 0E 0F
      -- -- -- -- -- -- -- --  -- -- -- -- -- -- -- --
0250:                                      5E 69 64 6C              ^idl
0260: 30 00                                             0.              
```

#### Opcodes

```
  0: 0x025C [0x5E] EventEntity goes idle (kills current action) (animation: "idl0")
  1: 0x0261 [0x00] END_REQSTACK()
```

### Event 746

#### Metadata

| Field        | Value   |
|--------------|---------|
| Entrypoint   | 0x0262  |
| Data Size    | 1 bytes |
| Instructions | 1       |

```
      00 01 02 03 04 05 06 07  08 09 0A 0B 0C 0D 0E 0F
      -- -- -- -- -- -- -- --  -- -- -- -- -- -- -- --
0260:       00                                            .             
```

#### Opcodes

```
  0: 0x0262 [0x00] END_REQSTACK()
```
