# 17727496 - Altiret

## Common Data

| Field            | Value                     |
|------------------|---------------------------|
| Zone             | Port San d'Oria (ID: 232) |
| Block Size       | 684 bytes                 |
| Total Events     | 14                        |
| References Count | 32                        |

## List of Events

| Event ID                 | Entrypoint   |   Size |   Instructions |
|--------------------------|--------------|--------|----------------|
| [65535](#event-65535)    | 0x0000       |      1 |              1 |
| [4](#event-4)            | 0x0001       |      1 |              1 |
| [65535.1](#event-655351) | 0x0002       |     32 |              5 |
| [65535.2](#event-655352) | 0x0022       |     34 |              6 |
| [65535.3](#event-655353) | 0x0044       |     36 |              8 |
| [559](#event-559)        | 0x0068       |     43 |             13 |
| [502](#event-502)        | 0x0093       |      1 |              1 |
| [65535.4](#event-655354) | 0x0094       |     32 |              8 |
| [65535.5](#event-655355) | 0x00B4       |     48 |              6 |
| [547](#event-547)        | 0x00E4       |     43 |             13 |
| [550](#event-550)        | 0x010F       |     98 |             20 |
| [551](#event-551)        | 0x0171       |     41 |             13 |
| [548](#event-548)        | 0x019A       |     36 |             10 |
| [580](#event-580)        | 0x01BE       |     36 |             10 |

## DAT References (imed_data)

|   Index | Hex Value   |   Dec Value |
|---------|-------------|-------------|
|       0 | 0xFFFF4D47  |  4294921543 |
|       1 | 0xFFFF7152  |  4294930770 |
|       2 | 0xFFFFF061  |  4294963297 |
|       3 | 0x0EEB      |        3819 |
|       4 | 0x0014      |          20 |
|       5 | 0x1D31      |        7473 |
|       6 | 0x62F9      |       25337 |
|       7 | 0xFFFF2E30  |  4294913584 |
|       8 | 0xFFFFFC18  |  4294966296 |
|       9 | 0x0E9B      |        3739 |
|      10 | 0x000D      |          13 |
|      11 | 0x7815      |       30741 |
|      12 | 0xFFFF3CC3  |  4294917315 |
|      13 | 0x92B9      |       37561 |
|      14 | 0xFFFF45C6  |  4294919622 |
|      15 | 0xFFFFFC19  |  4294966297 |
|      16 | 0x0C00      |        3072 |
|      17 | 0x1D33      |        7475 |
|      18 | 0x001E      |          30 |
|      19 | 0x1D34      |        7476 |
|      20 | 0x1D2D      |        7469 |
|      21 | 0x1D2F      |        7471 |
|      22 | 0x1D35      |        7477 |
|      23 | 0x1D36      |        7478 |
|      24 | 0x0243      |         579 |
|      25 | 0x1D4B      |        7499 |
|      26 | 0x1D4C      |        7500 |
|      27 | 0x00C9      |         201 |
|      28 | 0x0000      |           0 |
|      29 | 0x1D4D      |        7501 |
|      30 | 0x1EF6      |        7926 |
|      31 | 0x1D4E      |        7502 |

## String References

- **7469**: Stop, thief!
- **7471**: I've been had! Stop that thief!
- **7473**: Confound it! She's getting away, but I can't abandon this post!
- **7475**: Hello there, I am Altiret. I'm here to catch things on the airship hulls: fiends, and worse.
- **7476**: That's why they need port guards like me. Day and night we stand here. But hardship is naught to an Elvaan knight!
- **7477**: You...saw her didn't you? The pickpocket?
- **7478**: She copped my gold-rimmed glasses! They belonged to my wife. Please get them back!
- **7499**: Oooh! You've found them! My wife's $0! Thank you, kind adventurer!
- **7500**: Please accept this. Go ahead, it's yours.
- **7501**: This isn't mine! I thank you, but you'd better keep it.
- **7502**: What was stolen is now returned, and I didn't have to leave my post! Thanks again.
- **7926**: Welcome to my simple shop.

## Events

### Event 65535

#### Metadata

| Field        | Value   |
|--------------|---------|
| Entrypoint   | 0x0000  |
| Data Size    | 1 bytes |
| Instructions | 1       |

```
      00 01 02 03 04 05 06 07  08 09 0A 0B 0C 0D 0E 0F
      -- -- -- -- -- -- -- --  -- -- -- -- -- -- -- --
0000: 00                                                .               
```

#### Opcodes

```
  0: 0x0000 [0x00] END_REQSTACK()
```

### Event 4

#### Metadata

| Field        | Value   |
|--------------|---------|
| Entrypoint   | 0x0001  |
| Data Size    | 1 bytes |
| Instructions | 1       |

```
      00 01 02 03 04 05 06 07  08 09 0A 0B 0C 0D 0E 0F
      -- -- -- -- -- -- -- --  -- -- -- -- -- -- -- --
0000:    00                                              .              
```

#### Opcodes

```
  0: 0x0001 [0x00] END_REQSTACK()
```

### Event 65535.1

#### Metadata

| Field        | Value    |
|--------------|----------|
| Entrypoint   | 0x0002   |
| Data Size    | 32 bytes |
| Instructions | 5        |

```
      00 01 02 03 04 05 06 07  08 09 0A 0B 0C 0D 0E 0F
      -- -- -- -- -- -- -- --  -- -- -- -- -- -- -- --
0000:       92 01 F8 FF FF 7F  94 01 F8 FF FF 7F 79 00    ............y.
0010: F8 FF FF 7F 70 80 0E 01  37 00 80 01 80 02 80 03  ....p...7.......
0020: 80 00                                             ..              
```

#### Opcodes

```
  0: 0x0002 [0x92] EventEntity->Render.Flags3 ^= 0x01
  1: 0x0008 [0x94] EventEntity->Render.Flags3 ^= 0x01
  2: 0x000E [0x79] EventEntity looks at Ulmia (ID: 17727600/0x010E8070) (Basic look)
  3: 0x0018 [0x37] UPDATE_EVENT_POSITION_AND_DIR: x=-45.753*, z=-36.526*, y=-3.999*, direction=335.6°*
  4: 0x0021 [0x00] END_REQSTACK()
```

### Event 65535.2

#### Metadata

| Field        | Value    |
|--------------|----------|
| Entrypoint   | 0x0022   |
| Data Size    | 34 bytes |
| Instructions | 6        |

```
      00 01 02 03 04 05 06 07  08 09 0A 0B 0C 0D 0E 0F
      -- -- -- -- -- -- -- --  -- -- -- -- -- -- -- --
0020:       4A F0 FF FF 7F 08  80 0E 01 66 04 80 08 80    J........f....
0030: 0E 01 08 80 0E 01 74 6C  6B 30 1D 05 80 23 5E 69  ......tlk0...#^i
0040: 64 6C 30 00                                       dl0.            
```

#### Opcodes

```
  0: 0x0022 [0x4A] LocalPlayer looks at Altiret (ID: 17727496/0x010E8008)
  1: 0x002B [0x66] LOAD_EXT_SCHEDULER_MAIN: Load scheduler "tlk0" with entities [Altiret (ID: 17727496/0x010E8008), Altiret (ID: 17727496/0x010E8008)], work=20*
  2: 0x003A [0x1D] PRINT_EVENT_MESSAGE(message_id=7473*)
    → "Confound it! She's getting away, but I can't abandon this post!"
  3: 0x003D [0x23] WAIT_FOR_DIALOG_INTERACTION
  4: 0x003E [0x5E] EventEntity goes idle (kills current action) (animation: "idl0")
  5: 0x0043 [0x00] END_REQSTACK()
```

### Event 65535.3

#### Metadata

| Field        | Value    |
|--------------|----------|
| Entrypoint   | 0x0044   |
| Data Size    | 36 bytes |
| Instructions | 8        |

```
      00 01 02 03 04 05 06 07  08 09 0A 0B 0C 0D 0E 0F
      -- -- -- -- -- -- -- --  -- -- -- -- -- -- -- --
0040:             37 06 80 07  80 08 80 09 80 32 0A 80      7........2..
0050: 1F 00 0B 80 0C 80 08 80  1F 01 1F 00 0D 80 0E 80  ................
0060: 0F 80 1F 01 39 10 80 00                           ....9...        
```

#### Opcodes

```
  0: 0x0044 [0x37] UPDATE_EVENT_POSITION_AND_DIR: x=25.337*, z=-53.712*, y=-1.000*, direction=328.6°*
  1: 0x004D [0x32] ExtData[1]->MainSpeed = 13* * 0.1
  2: 0x0050 [0x1F] MOVE_ENTITY: EventEntity moves to X=30.741*, Z=-49.981*, Y=-1.000*
  3: 0x0058 [0x1F] MOVE_ENTITY: Update entity position (mode=1)
  4: 0x005A [0x1F] MOVE_ENTITY: EventEntity moves to X=37.561*, Z=-47.674*, Y=-0.999*
  5: 0x0062 [0x1F] MOVE_ENTITY: Update entity position (mode=1)
  6: 0x0064 [0x39] SET_ENTITY_DIRECTION(direction=16.9°*)
  7: 0x0067 [0x00] END_REQSTACK()
```

### Event 559

#### Metadata

| Field        | Value    |
|--------------|----------|
| Entrypoint   | 0x0068   |
| Data Size    | 43 bytes |
| Instructions | 13       |

```
      00 01 02 03 04 05 06 07  08 09 0A 0B 0C 0D 0E 0F
      -- -- -- -- -- -- -- --  -- -- -- -- -- -- -- --
0060:                          1E F0 FF FF 7F 6F 70 66          .....opf
0070: 04 80 08 80 0E 01 08 80  0E 01 74 6C 6B 30 1D 11  ..........tlk0..
0080: 80 23 1C 12 80 1D 13 80  23 5E 69 64 6C 30 1C 12  .#......#^idl0..
0090: 80 21 00                                          .!.             
```

#### Opcodes

```
  0: 0x0068 [0x1E] EventEntity looks at LocalPlayer and starts talking
  1: 0x006D [0x6F] WAIT_FRAME_DELAY: Yield until WaitTime reaches zero
  2: 0x006E [0x70] WAIT_ENTITY_RENDER_FLAG: Wait while EventEntity->Render.Flags3 bit 2 is set (cancel turn if not)
  3: 0x006F [0x66] LOAD_EXT_SCHEDULER_MAIN: Load scheduler "tlk0" with entities [Altiret (ID: 17727496/0x010E8008), Altiret (ID: 17727496/0x010E8008)], work=20*
  4: 0x007E [0x1D] PRINT_EVENT_MESSAGE(message_id=7475*)
    → "Hello there, I am Altiret. I'm here to catch things on the airship hulls: fiends, and worse."
  5: 0x0081 [0x23] WAIT_FOR_DIALOG_INTERACTION
  6: 0x0082 [0x1C] WAIT(30* ticks)
  7: 0x0085 [0x1D] PRINT_EVENT_MESSAGE(message_id=7476*)
    → "That's why they need port guards like me. Day and night we stand here. But hardship is naught to an Elvaan knight!"
  8: 0x0088 [0x23] WAIT_FOR_DIALOG_INTERACTION
  9: 0x0089 [0x5E] EventEntity goes idle (kills current action) (animation: "idl0")
 10: 0x008E [0x1C] WAIT(30* ticks)
 11: 0x0091 [0x21] END_EVENT
 12: 0x0092 [0x00] END_REQSTACK()
```

### Event 502

#### Metadata

| Field        | Value   |
|--------------|---------|
| Entrypoint   | 0x0093  |
| Data Size    | 1 bytes |
| Instructions | 1       |

```
      00 01 02 03 04 05 06 07  08 09 0A 0B 0C 0D 0E 0F
      -- -- -- -- -- -- -- --  -- -- -- -- -- -- -- --
0090:          00                                          .            
```

#### Opcodes

```
  0: 0x0093 [0x00] END_REQSTACK()
```

### Event 65535.4

#### Metadata

| Field        | Value    |
|--------------|----------|
| Entrypoint   | 0x0094   |
| Data Size    | 32 bytes |
| Instructions | 8        |

```
      00 01 02 03 04 05 06 07  08 09 0A 0B 0C 0D 0E 0F
      -- -- -- -- -- -- -- --  -- -- -- -- -- -- -- --
0090:             1E 06 80 0E  01 6F 70 66 04 80 08 80      .....opf....
00A0: 0E 01 08 80 0E 01 70 6F  69 31 1D 14 80 23 5E 69  ......poi1...#^i
00B0: 64 6C 30 00                                       dl0.            
```

#### Opcodes

```
  0: 0x0094 [0x1E] EventEntity looks at Esca (ID: 17727494/0x010E8006) and starts talking
  1: 0x0099 [0x6F] WAIT_FRAME_DELAY: Yield until WaitTime reaches zero
  2: 0x009A [0x70] WAIT_ENTITY_RENDER_FLAG: Wait while EventEntity->Render.Flags3 bit 2 is set (cancel turn if not)
  3: 0x009B [0x66] LOAD_EXT_SCHEDULER_MAIN: Load scheduler "poi1" with entities [Altiret (ID: 17727496/0x010E8008), Altiret (ID: 17727496/0x010E8008)], work=20*
  4: 0x00AA [0x1D] PRINT_EVENT_MESSAGE(message_id=7469*)
    → "Stop, thief!"
  5: 0x00AD [0x23] WAIT_FOR_DIALOG_INTERACTION
  6: 0x00AE [0x5E] EventEntity goes idle (kills current action) (animation: "idl0")
  7: 0x00B3 [0x00] END_REQSTACK()
```

### Event 65535.5

#### Metadata

| Field        | Value    |
|--------------|----------|
| Entrypoint   | 0x00B4   |
| Data Size    | 48 bytes |
| Instructions | 6        |

```
      00 01 02 03 04 05 06 07  08 09 0A 0B 0C 0D 0E 0F
      -- -- -- -- -- -- -- --  -- -- -- -- -- -- -- --
00B0:             66 04 80 08  80 0E 01 08 80 0E 01 70      f..........p
00C0: 6F 69 31 1D 15 80 23 66  04 80 08 80 0E 01 08 80  oi1...#f........
00D0: 0E 01 70 6F 69 32 53 08  80 0E 01 08 80 0E 01 70  ..poi2S........p
00E0: 6F 69 32 00                                       oi2.            
```

#### Opcodes

```
  0: 0x00B4 [0x66] LOAD_EXT_SCHEDULER_MAIN: Load scheduler "poi1" with entities [Altiret (ID: 17727496/0x010E8008), Altiret (ID: 17727496/0x010E8008)], work=20*
  1: 0x00C3 [0x1D] PRINT_EVENT_MESSAGE(message_id=7471*)
    → "I've been had! Stop that thief!"
  2: 0x00C6 [0x23] WAIT_FOR_DIALOG_INTERACTION
  3: 0x00C7 [0x66] LOAD_EXT_SCHEDULER_MAIN: Load scheduler "poi2" with entities [Altiret (ID: 17727496/0x010E8008), Altiret (ID: 17727496/0x010E8008)], work=20*
  4: 0x00D6 [0x53] WAIT_SCHEDULER_TASK: Wait for scheduler "poi2" with entities [Altiret (ID: 17727496/0x010E8008), Altiret (ID: 17727496/0x010E8008)]
  5: 0x00E3 [0x00] END_REQSTACK()
```

### Event 547

#### Metadata

| Field        | Value    |
|--------------|----------|
| Entrypoint   | 0x00E4   |
| Data Size    | 43 bytes |
| Instructions | 13       |

```
      00 01 02 03 04 05 06 07  08 09 0A 0B 0C 0D 0E 0F
      -- -- -- -- -- -- -- --  -- -- -- -- -- -- -- --
00E0:             1E F0 FF FF  7F 6F 70 66 04 80 08 80      .....opf....
00F0: 0E 01 08 80 0E 01 74 6C  6B 30 1D 16 80 23 1C 12  ......tlk0...#..
0100: 80 1D 17 80 23 5E 69 64  6C 30 1C 12 80 21 00     ....#^idl0...!. 
```

#### Opcodes

```
  0: 0x00E4 [0x1E] EventEntity looks at LocalPlayer and starts talking
  1: 0x00E9 [0x6F] WAIT_FRAME_DELAY: Yield until WaitTime reaches zero
  2: 0x00EA [0x70] WAIT_ENTITY_RENDER_FLAG: Wait while EventEntity->Render.Flags3 bit 2 is set (cancel turn if not)
  3: 0x00EB [0x66] LOAD_EXT_SCHEDULER_MAIN: Load scheduler "tlk0" with entities [Altiret (ID: 17727496/0x010E8008), Altiret (ID: 17727496/0x010E8008)], work=20*
  4: 0x00FA [0x1D] PRINT_EVENT_MESSAGE(message_id=7477*)
    → "You...saw her didn't you? The pickpocket?"
  5: 0x00FD [0x23] WAIT_FOR_DIALOG_INTERACTION
  6: 0x00FE [0x1C] WAIT(30* ticks)
  7: 0x0101 [0x1D] PRINT_EVENT_MESSAGE(message_id=7478*)
    → "She copped my gold-rimmed glasses! They belonged to my wife. Please get them back!"
  8: 0x0104 [0x23] WAIT_FOR_DIALOG_INTERACTION
  9: 0x0105 [0x5E] EventEntity goes idle (kills current action) (animation: "idl0")
 10: 0x010A [0x1C] WAIT(30* ticks)
 11: 0x010D [0x21] END_EVENT
 12: 0x010E [0x00] END_REQSTACK()
```

### Event 550

#### Metadata

| Field        | Value    |
|--------------|----------|
| Entrypoint   | 0x010F   |
| Data Size    | 98 bytes |
| Instructions | 20       |

```
      00 01 02 03 04 05 06 07  08 09 0A 0B 0C 0D 0E 0F
      -- -- -- -- -- -- -- --  -- -- -- -- -- -- -- --
0100:                                               42                 B
0110: 20 01 1E F0 FF FF 7F 6F  70 66 04 80 08 80 0E 01   ......opf......
0120: 08 80 0E 01 74 6C 6B 30  03 02 10 18 80 1D 19 80  ....tlk0........
0130: 23 5E 69 64 6C 30 1C 12  80 66 04 80 08 80 0E 01  #^idl0...f......
0140: 08 80 0E 01 70 61 73 30  1D 1A 80 23 53 08 80 0E  ....pas0...#S...
0150: 01 08 80 0E 01 70 61 73  30 45 1B 80 F0 FF FF 7F  .....pas0E......
0160: F0 FF FF 7F 71 73 74 63  1C 80 1C 12 80 20 00 21  ....qstc..... .!
0170: 00                                                .               
```

#### Opcodes

```
  0: 0x010F [0x42] SET_CLI_EVENT_CANCEL_DATA()
  1: 0x0110 [0x20] SET_CLI_EVENT_UC_FLAG: Lock player control
  2: 0x0112 [0x1E] EventEntity looks at LocalPlayer and starts talking
  3: 0x0117 [0x6F] WAIT_FRAME_DELAY: Yield until WaitTime reaches zero
  4: 0x0118 [0x70] WAIT_ENTITY_RENDER_FLAG: Wait while EventEntity->Render.Flags3 bit 2 is set (cancel turn if not)
  5: 0x0119 [0x66] LOAD_EXT_SCHEDULER_MAIN: Load scheduler "tlk0" with entities [Altiret (ID: 17727496/0x010E8008), Altiret (ID: 17727496/0x010E8008)], work=20*
  6: 0x0128 [0x03] Work_Zone[2] = 579*
  7: 0x012D [0x1D] PRINT_EVENT_MESSAGE(message_id=7499*)
    → "Oooh! You've found them! My wife's $0! Thank you, kind adventurer!"
  8: 0x0130 [0x23] WAIT_FOR_DIALOG_INTERACTION
  9: 0x0131 [0x5E] EventEntity goes idle (kills current action) (animation: "idl0")
 10: 0x0136 [0x1C] WAIT(30* ticks)
 11: 0x0139 [0x66] LOAD_EXT_SCHEDULER_MAIN: Load scheduler "pas0" with entities [Altiret (ID: 17727496/0x010E8008), Altiret (ID: 17727496/0x010E8008)], work=20*
 12: 0x0148 [0x1D] PRINT_EVENT_MESSAGE(message_id=7500*)
    → "Please accept this. Go ahead, it's yours."
 13: 0x014B [0x23] WAIT_FOR_DIALOG_INTERACTION
 14: 0x014C [0x53] WAIT_SCHEDULER_TASK: Wait for scheduler "pas0" with entities [Altiret (ID: 17727496/0x010E8008), Altiret (ID: 17727496/0x010E8008)]
 15: 0x0159 [0x45] LOAD_SCHEDULED_TASK: Load scheduler "qstc" with entities [LocalPlayer, LocalPlayer], work=[201*, 0*]
 16: 0x016A [0x1C] WAIT(30* ticks)
 17: 0x016D [0x20] SET_CLI_EVENT_UC_FLAG: Unlock player control
 18: 0x016F [0x21] END_EVENT
 19: 0x0170 [0x00] END_REQSTACK()
```

### Event 551

#### Metadata

| Field        | Value    |
|--------------|----------|
| Entrypoint   | 0x0171   |
| Data Size    | 41 bytes |
| Instructions | 13       |

```
      00 01 02 03 04 05 06 07  08 09 0A 0B 0C 0D 0E 0F
      -- -- -- -- -- -- -- --  -- -- -- -- -- -- -- --
0170:    42 20 01 1E F0 FF FF  7F 6F 70 66 04 80 08 80   B ......opf....
0180: 0E 01 08 80 0E 01 74 6C  6B 30 1D 1D 80 23 5E 69  ......tlk0...#^i
0190: 64 6C 30 1C 12 80 20 00  21 00                    dl0... .!.      
```

#### Opcodes

```
  0: 0x0171 [0x42] SET_CLI_EVENT_CANCEL_DATA()
  1: 0x0172 [0x20] SET_CLI_EVENT_UC_FLAG: Lock player control
  2: 0x0174 [0x1E] EventEntity looks at LocalPlayer and starts talking
  3: 0x0179 [0x6F] WAIT_FRAME_DELAY: Yield until WaitTime reaches zero
  4: 0x017A [0x70] WAIT_ENTITY_RENDER_FLAG: Wait while EventEntity->Render.Flags3 bit 2 is set (cancel turn if not)
  5: 0x017B [0x66] LOAD_EXT_SCHEDULER_MAIN: Load scheduler "tlk0" with entities [Altiret (ID: 17727496/0x010E8008), Altiret (ID: 17727496/0x010E8008)], work=20*
  6: 0x018A [0x1D] PRINT_EVENT_MESSAGE(message_id=7501*)
    → "This isn't mine! I thank you, but you'd better keep it."
  7: 0x018D [0x23] WAIT_FOR_DIALOG_INTERACTION
  8: 0x018E [0x5E] EventEntity goes idle (kills current action) (animation: "idl0")
  9: 0x0193 [0x1C] WAIT(30* ticks)
 10: 0x0196 [0x20] SET_CLI_EVENT_UC_FLAG: Unlock player control
 11: 0x0198 [0x21] END_EVENT
 12: 0x0199 [0x00] END_REQSTACK()
```

### Event 548

#### Metadata

| Field        | Value    |
|--------------|----------|
| Entrypoint   | 0x019A   |
| Data Size    | 36 bytes |
| Instructions | 10       |

```
      00 01 02 03 04 05 06 07  08 09 0A 0B 0C 0D 0E 0F
      -- -- -- -- -- -- -- --  -- -- -- -- -- -- -- --
0190:                                1E F0 FF FF 7F 6F            .....o
01A0: 70 66 04 80 08 80 0E 01  08 80 0E 01 74 6C 6B 30  pf..........tlk0
01B0: 1D 1E 80 23 5E 69 64 6C  30 1C 12 80 21 00        ...#^idl0...!.  
```

#### Opcodes

```
  0: 0x019A [0x1E] EventEntity looks at LocalPlayer and starts talking
  1: 0x019F [0x6F] WAIT_FRAME_DELAY: Yield until WaitTime reaches zero
  2: 0x01A0 [0x70] WAIT_ENTITY_RENDER_FLAG: Wait while EventEntity->Render.Flags3 bit 2 is set (cancel turn if not)
  3: 0x01A1 [0x66] LOAD_EXT_SCHEDULER_MAIN: Load scheduler "tlk0" with entities [Altiret (ID: 17727496/0x010E8008), Altiret (ID: 17727496/0x010E8008)], work=20*
  4: 0x01B0 [0x1D] PRINT_EVENT_MESSAGE(message_id=7926*)
    → "Welcome to my simple shop."
  5: 0x01B3 [0x23] WAIT_FOR_DIALOG_INTERACTION
  6: 0x01B4 [0x5E] EventEntity goes idle (kills current action) (animation: "idl0")
  7: 0x01B9 [0x1C] WAIT(30* ticks)
  8: 0x01BC [0x21] END_EVENT
  9: 0x01BD [0x00] END_REQSTACK()
```

### Event 580

#### Metadata

| Field        | Value    |
|--------------|----------|
| Entrypoint   | 0x01BE   |
| Data Size    | 36 bytes |
| Instructions | 10       |

```
      00 01 02 03 04 05 06 07  08 09 0A 0B 0C 0D 0E 0F
      -- -- -- -- -- -- -- --  -- -- -- -- -- -- -- --
01B0:                                            1E F0                ..
01C0: FF FF 7F 6F 70 66 04 80  08 80 0E 01 08 80 0E 01  ...opf..........
01D0: 74 6C 6B 30 1D 1F 80 23  5E 69 64 6C 30 1C 12 80  tlk0...#^idl0...
01E0: 21 00                                             !.              
```

#### Opcodes

```
  0: 0x01BE [0x1E] EventEntity looks at LocalPlayer and starts talking
  1: 0x01C3 [0x6F] WAIT_FRAME_DELAY: Yield until WaitTime reaches zero
  2: 0x01C4 [0x70] WAIT_ENTITY_RENDER_FLAG: Wait while EventEntity->Render.Flags3 bit 2 is set (cancel turn if not)
  3: 0x01C5 [0x66] LOAD_EXT_SCHEDULER_MAIN: Load scheduler "tlk0" with entities [Altiret (ID: 17727496/0x010E8008), Altiret (ID: 17727496/0x010E8008)], work=20*
  4: 0x01D4 [0x1D] PRINT_EVENT_MESSAGE(message_id=7502*)
    → "What was stolen is now returned, and I didn't have to leave my post! Thanks again."
  5: 0x01D7 [0x23] WAIT_FOR_DIALOG_INTERACTION
  6: 0x01D8 [0x5E] EventEntity goes idle (kills current action) (animation: "idl0")
  7: 0x01DD [0x1C] WAIT(30* ticks)
  8: 0x01E0 [0x21] END_EVENT
  9: 0x01E1 [0x00] END_REQSTACK()
```
