# 17727497 - Morjean

## Common Data

| Field            | Value                     |
|------------------|---------------------------|
| Zone             | Port San d'Oria (ID: 232) |
| Block Size       | 160 bytes                 |
| Total Events     | 3                         |
| References Count | 13                        |

## List of Events

| Event ID                 | Entrypoint   |   Size |   Instructions |
|--------------------------|--------------|--------|----------------|
| [65535](#event-65535)    | 0x0000       |      1 |              1 |
| [65535.1](#event-655351) | 0x0001       |     78 |             22 |
| [502](#event-502)        | 0x004F       |      1 |              1 |

## DAT References (imed_data)

|   Index | Hex Value   |   Dec Value |
|---------|-------------|-------------|
|       0 | 0xFFFFF192  |  4294963602 |
|       1 | 0xFFFF0386  |  4294902662 |
|       2 | 0xFFFFF061  |  4294963297 |
|       3 | 0x039E      |         926 |
|       4 | 0x00B4      |         180 |
|       5 | 0x0028      |          40 |
|       6 | 0xFFFFF086  |  4294963334 |
|       7 | 0xFFFEF666  |  4294899302 |
|       8 | 0xFFFFF060  |  4294963296 |
|       9 | 0x003C      |          60 |
|      10 | 0x04B0      |        1200 |
|      11 | 0x0578      |        1400 |
|      12 | 0x001E      |          30 |

## Events

### Event 65535

#### Metadata

| Field        | Value   |
|--------------|---------|
| Entrypoint   | 0x0000  |
| Data Size    | 1 bytes |
| Instructions | 1       |

```
      00 01 02 03 04 05 06 07  08 09 0A 0B 0C 0D 0E 0F
      -- -- -- -- -- -- -- --  -- -- -- -- -- -- -- --
0000: 00                                                .               
```

#### Opcodes

```
  0: 0x0000 [0x00] END_REQSTACK()
```

### Event 65535.1

#### Metadata

| Field        | Value    |
|--------------|----------|
| Entrypoint   | 0x0001   |
| Data Size    | 78 bytes |
| Instructions | 22       |

```
      00 01 02 03 04 05 06 07  08 09 0A 0B 0C 0D 0E 0F
      -- -- -- -- -- -- -- --  -- -- -- -- -- -- -- --
0000:    2F 00 09 80 0E 01 22  00 37 00 80 01 80 02 80   /.....".7......
0010: 03 80 1C 04 80 32 05 80  1F 00 06 80 07 80 08 80  .....2..........
0020: 1F 01 1C 09 80 39 0A 80  1C 09 80 39 0B 80 1C 09  .....9.....9....
0030: 80 39 0A 80 1C 09 80 39  0B 80 1C 0C 80 39 0A 80  .9.....9.....9..
0040: 1C 0C 80 39 0B 80 2F 01  09 80 0E 01 22 01 00     ...9../.....".. 
```

#### Opcodes

```
  0: 0x0001 [0x2F] Morjean (ID: 17727497/0x010E8009)->Render.Flags0 &= ~0x80000 // Bit 19
  1: 0x0007 [0x22] ENTITY_HIDE_FLAG(enabled=0x00)
  2: 0x0009 [0x37] UPDATE_EVENT_POSITION_AND_DIR: x=-3.694*, z=-64.634*, y=-3.999*, direction=81.4°*
  3: 0x0012 [0x1C] WAIT(180* ticks)
  4: 0x0015 [0x32] ExtData[1]->MainSpeed = 40* * 0.1
  5: 0x0018 [0x1F] MOVE_ENTITY: EventEntity moves to X=-3.962*, Z=-67.994*, Y=-4.000*
  6: 0x0020 [0x1F] MOVE_ENTITY: Update entity position (mode=1)
  7: 0x0022 [0x1C] WAIT(60* ticks)
  8: 0x0025 [0x39] SET_ENTITY_DIRECTION(direction=6.6°*)
  9: 0x0028 [0x1C] WAIT(60* ticks)
 10: 0x002B [0x39] SET_ENTITY_DIRECTION(direction=7.7°*)
 11: 0x002E [0x1C] WAIT(60* ticks)
 12: 0x0031 [0x39] SET_ENTITY_DIRECTION(direction=6.6°*)
 13: 0x0034 [0x1C] WAIT(60* ticks)
 14: 0x0037 [0x39] SET_ENTITY_DIRECTION(direction=7.7°*)
 15: 0x003A [0x1C] WAIT(30* ticks)
 16: 0x003D [0x39] SET_ENTITY_DIRECTION(direction=6.6°*)
 17: 0x0040 [0x1C] WAIT(30* ticks)
 18: 0x0043 [0x39] SET_ENTITY_DIRECTION(direction=7.7°*)
 19: 0x0046 [0x2F] Morjean (ID: 17727497/0x010E8009)->Render.Flags0 |= 0x80000 // Bit 19
 20: 0x004C [0x22] ENTITY_HIDE_FLAG(enabled=0x01)
 21: 0x004E [0x00] END_REQSTACK()
```

### Event 502

#### Metadata

| Field        | Value   |
|--------------|---------|
| Entrypoint   | 0x004F  |
| Data Size    | 1 bytes |
| Instructions | 1       |

```
      00 01 02 03 04 05 06 07  08 09 0A 0B 0C 0D 0E 0F
      -- -- -- -- -- -- -- --  -- -- -- -- -- -- -- --
0040:                                               00                 .
```

#### Opcodes

```
  0: 0x004F [0x00] END_REQSTACK()
```
