# 17727562 - Felippe

## Common Data

| Field            | Value                     |
|------------------|---------------------------|
| Zone             | Port San d'Oria (ID: 232) |
| Block Size       | 308 bytes                 |
| Total Events     | 11                        |
| References Count | 17                        |

## List of Events

| Event ID                 | Entrypoint   |   Size |   Instructions |
|--------------------------|--------------|--------|----------------|
| [65535](#event-65535)    | 0x0000       |      1 |              1 |
| [4](#event-4)            | 0x0001       |      1 |              1 |
| [65535.1](#event-655351) | 0x0002       |     27 |              5 |
| [65535.2](#event-655352) | 0x001D       |     14 |              4 |
| [15](#event-15)          | 0x002B       |     10 |              2 |
| [65535.3](#event-655353) | 0x0035       |     20 |              6 |
| [65535.4](#event-655354) | 0x0049       |     31 |              8 |
| [65535.5](#event-655355) | 0x0068       |     19 |              3 |
| [65535.6](#event-655356) | 0x007B       |      9 |              3 |
| [65535.7](#event-655357) | 0x0084       |     19 |              3 |
| [65535.8](#event-655358) | 0x0097       |     29 |              3 |

## DAT References (imed_data)

|   Index | Hex Value   |   Dec Value |
|---------|-------------|-------------|
|       0 | 0xFFFF646F  |  4294927471 |
|       1 | 0xFFFF8FC1  |  4294938561 |
|       2 | 0xFFFFF061  |  4294963297 |
|       3 | 0x014F      |         335 |
|       4 | 0x000D      |          13 |
|       5 | 0xFFFF3E6C  |  4294917740 |
|       6 | 0xFFFF8166  |  4294934886 |
|       7 | 0x0F90      |        3984 |
|       8 | 0xFFFE80EA  |  4294869226 |
|       9 | 0xFFFFF060  |  4294963296 |
|      10 | 0x0414      |        1044 |
|      11 | 0x06F6      |        1782 |
|      12 | 0xFFFE6789  |  4294862729 |
|      13 | 0x0F5F      |        3935 |
|      14 | 0xFFFE9323  |  4294873891 |
|      15 | 0x0041      |          65 |
|      16 | 0x003C      |          60 |

## Events

### Event 65535

#### Metadata

| Field        | Value   |
|--------------|---------|
| Entrypoint   | 0x0000  |
| Data Size    | 1 bytes |
| Instructions | 1       |

```
      00 01 02 03 04 05 06 07  08 09 0A 0B 0C 0D 0E 0F
      -- -- -- -- -- -- -- --  -- -- -- -- -- -- -- --
0000: 00                                                .               
```

#### Opcodes

```
  0: 0x0000 [0x00] END_REQSTACK()
```

### Event 4

#### Metadata

| Field        | Value   |
|--------------|---------|
| Entrypoint   | 0x0001  |
| Data Size    | 1 bytes |
| Instructions | 1       |

```
      00 01 02 03 04 05 06 07  08 09 0A 0B 0C 0D 0E 0F
      -- -- -- -- -- -- -- --  -- -- -- -- -- -- -- --
0000:    00                                              .              
```

#### Opcodes

```
  0: 0x0001 [0x00] END_REQSTACK()
```

### Event 65535.1

#### Metadata

| Field        | Value    |
|--------------|----------|
| Entrypoint   | 0x0002   |
| Data Size    | 27 bytes |
| Instructions | 5        |

```
      00 01 02 03 04 05 06 07  08 09 0A 0B 0C 0D 0E 0F
      -- -- -- -- -- -- -- --  -- -- -- -- -- -- -- --
0000:       92 01 F8 FF FF 7F  94 01 F8 FF FF 7F 37 00    ............7.
0010: 80 01 80 02 80 03 80 1E  70 80 0E 01 00           ........p....   
```

#### Opcodes

```
  0: 0x0002 [0x92] EventEntity->Render.Flags3 ^= 0x01
  1: 0x0008 [0x94] EventEntity->Render.Flags3 ^= 0x01
  2: 0x000E [0x37] UPDATE_EVENT_POSITION_AND_DIR: x=-39.825*, z=-28.735*, y=-3.999*, direction=29.4°*
  3: 0x0017 [0x1E] EventEntity looks at Ulmia (ID: 17727600/0x010E8070) and starts talking
  4: 0x001C [0x00] END_REQSTACK()
```

### Event 65535.2

#### Metadata

| Field        | Value    |
|--------------|----------|
| Entrypoint   | 0x001D   |
| Data Size    | 14 bytes |
| Instructions | 4        |

```
      00 01 02 03 04 05 06 07  08 09 0A 0B 0C 0D 0E 0F
      -- -- -- -- -- -- -- --  -- -- -- -- -- -- -- --
0010:                                         32 04 80               2..
0020: 1F 00 05 80 06 80 02 80  1F 01 00                 ...........     
```

#### Opcodes

```
  0: 0x001D [0x32] ExtData[1]->MainSpeed = 13* * 0.1
  1: 0x0020 [0x1F] MOVE_ENTITY: EventEntity moves to X=-49.556*, Z=-32.410*, Y=-3.999*
  2: 0x0028 [0x1F] MOVE_ENTITY: Update entity position (mode=1)
  3: 0x002A [0x00] END_REQSTACK()
```

### Event 15

#### Metadata

| Field        | Value    |
|--------------|----------|
| Entrypoint   | 0x002B   |
| Data Size    | 10 bytes |
| Instructions | 2        |

```
      00 01 02 03 04 05 06 07  08 09 0A 0B 0C 0D 0E 0F
      -- -- -- -- -- -- -- --  -- -- -- -- -- -- -- --
0020:                                   37 07 80 08 80             7....
0030: 09 80 0A 80 00                                    .....           
```

#### Opcodes

```
  0: 0x002B [0x37] UPDATE_EVENT_POSITION_AND_DIR: x=3.984*, z=-98.070*, y=-4.000*, direction=91.8°*
  1: 0x0034 [0x00] END_REQSTACK()
```

### Event 65535.3

#### Metadata

| Field        | Value    |
|--------------|----------|
| Entrypoint   | 0x0035   |
| Data Size    | 20 bytes |
| Instructions | 6        |

```
      00 01 02 03 04 05 06 07  08 09 0A 0B 0C 0D 0E 0F
      -- -- -- -- -- -- -- --  -- -- -- -- -- -- -- --
0030:                32 04 80  1F 00 0B 80 0C 80 09 80       2..........
0040: 1F 01 6F 1E 49 80 0E 01  00                       ..o.I....       
```

#### Opcodes

```
  0: 0x0035 [0x32] ExtData[1]->MainSpeed = 13* * 0.1
  1: 0x0038 [0x1F] MOVE_ENTITY: EventEntity moves to X=1.782*, Z=-104.567*, Y=-4.000*
  2: 0x0040 [0x1F] MOVE_ENTITY: Update entity position (mode=1)
  3: 0x0042 [0x6F] WAIT_FRAME_DELAY: Yield until WaitTime reaches zero
  4: 0x0043 [0x1E] EventEntity looks at Brugaire (ID: 17727561/0x010E8049) and starts talking
  5: 0x0048 [0x00] END_REQSTACK()
```

### Event 65535.4

#### Metadata

| Field        | Value    |
|--------------|----------|
| Entrypoint   | 0x0049   |
| Data Size    | 31 bytes |
| Instructions | 8        |

```
      00 01 02 03 04 05 06 07  08 09 0A 0B 0C 0D 0E 0F
      -- -- -- -- -- -- -- --  -- -- -- -- -- -- -- --
0040:                             1F 00 07 80 08 80 09           .......
0050: 80 1F 01 27 03 62 80 0E  01 05 1F 00 0D 80 0E 80  ...'.b..........
0060: 09 80 1F 01 6F 22 01 00                           ....o"..        
```

#### Opcodes

```
  0: 0x0049 [0x1F] MOVE_ENTITY: EventEntity moves to X=3.984*, Z=-98.070*, Y=-4.000*
  1: 0x0051 [0x1F] MOVE_ENTITY: Update entity position (mode=1)
  2: 0x0053 [0x27] REQ_SET(priority=0x03, entity_id=Door:Cargo Room A (ID: 17727586/0x010E8062), tag_num=0x05)
  3: 0x005A [0x1F] MOVE_ENTITY: EventEntity moves to X=3.935*, Z=-93.405*, Y=-4.000*
  4: 0x0062 [0x1F] MOVE_ENTITY: Update entity position (mode=1)
  5: 0x0064 [0x6F] WAIT_FRAME_DELAY: Yield until WaitTime reaches zero
  6: 0x0065 [0x22] ENTITY_HIDE_FLAG(enabled=0x01)
  7: 0x0067 [0x00] END_REQSTACK()
```

### Event 65535.5

#### Metadata

| Field        | Value    |
|--------------|----------|
| Entrypoint   | 0x0068   |
| Data Size    | 19 bytes |
| Instructions | 3        |

```
      00 01 02 03 04 05 06 07  08 09 0A 0B 0C 0D 0E 0F
      -- -- -- -- -- -- -- --  -- -- -- -- -- -- -- --
0060:                          5B 0F 80 F8 FF FF 7F F8          [.......
0070: FF FF 7F 74 6C 6B 30 1C  10 80 00                 ...tlk0....     
```

#### Opcodes

```
  0: 0x0068 [0x5B] LOAD_EXT_SCHEDULER: Load scheduler "tlk0" with entities [EventEntity, EventEntity], work=65*
  1: 0x0077 [0x1C] WAIT(60* ticks)
  2: 0x007A [0x00] END_REQSTACK()
```

### Event 65535.6

#### Metadata

| Field        | Value   |
|--------------|---------|
| Entrypoint   | 0x007B  |
| Data Size    | 9 bytes |
| Instructions | 3       |

```
      00 01 02 03 04 05 06 07  08 09 0A 0B 0C 0D 0E 0F
      -- -- -- -- -- -- -- --  -- -- -- -- -- -- -- --
0070:                                   5E 69 64 6C 30             ^idl0
0080: 1C 10 80 00                                       ....            
```

#### Opcodes

```
  0: 0x007B [0x5E] EventEntity goes idle (kills current action) (animation: "idl0")
  1: 0x0080 [0x1C] WAIT(60* ticks)
  2: 0x0083 [0x00] END_REQSTACK()
```

### Event 65535.7

#### Metadata

| Field        | Value    |
|--------------|----------|
| Entrypoint   | 0x0084   |
| Data Size    | 19 bytes |
| Instructions | 3        |

```
      00 01 02 03 04 05 06 07  08 09 0A 0B 0C 0D 0E 0F
      -- -- -- -- -- -- -- --  -- -- -- -- -- -- -- --
0080:             5B 0F 80 F8  FF FF 7F F8 FF FF 7F 74      [..........t
0090: 68 6B 31 1C 10 80 00                              hk1....         
```

#### Opcodes

```
  0: 0x0084 [0x5B] LOAD_EXT_SCHEDULER: Load scheduler "thk1" with entities [EventEntity, EventEntity], work=65*
  1: 0x0093 [0x1C] WAIT(60* ticks)
  2: 0x0096 [0x00] END_REQSTACK()
```

### Event 65535.8

#### Metadata

| Field        | Value    |
|--------------|----------|
| Entrypoint   | 0x0097   |
| Data Size    | 29 bytes |
| Instructions | 3        |

```
      00 01 02 03 04 05 06 07  08 09 0A 0B 0C 0D 0E 0F
      -- -- -- -- -- -- -- --  -- -- -- -- -- -- -- --
0090:                      5B  0F 80 F8 FF FF 7F F8 FF         [........
00A0: FF 7F 74 68 6B 32 53 F8  FF FF 7F F8 FF FF 7F 74  ..thk2S........t
00B0: 68 6B 32 00                                       hk2.            
```

#### Opcodes

```
  0: 0x0097 [0x5B] LOAD_EXT_SCHEDULER: Load scheduler "thk2" with entities [EventEntity, EventEntity], work=65*
  1: 0x00A6 [0x53] WAIT_SCHEDULER_TASK: Wait for scheduler "thk2" with entities [EventEntity, EventEntity]
  2: 0x00B3 [0x00] END_REQSTACK()
```
