# 17727621 - Raqtibahl

## Common Data

| Field            | Value                     |
|------------------|---------------------------|
| Zone             | Port San d'Oria (ID: 232) |
| Block Size       | 1888 bytes                |
| Total Events     | 12                        |
| References Count | 62                        |

## List of Events

| Event ID              | Entrypoint   |   Size |   Instructions |
|-----------------------|--------------|--------|----------------|
| [65535](#event-65535) | 0x0000       |      1 |              1 |
| [753](#event-753)     | 0x0001       |    716 |            105 |
| [754](#event-754)     | 0x02CD       |     52 |             14 |
| [755](#event-755)     | 0x0301       |     45 |             13 |
| [761](#event-761)     | 0x032E       |     29 |              9 |
| [760](#event-760)     | 0x034B       |     19 |              7 |
| [757](#event-757)     | 0x035E       |     27 |              9 |
| [756](#event-756)     | 0x0379       |    649 |             90 |
| [758](#event-758)     | 0x0602       |     16 |              6 |
| [759](#event-759)     | 0x0612       |     19 |              7 |
| [792](#event-792)     | 0x0625       |      1 |              1 |
| [793](#event-793)     | 0x0626       |      1 |              1 |

## DAT References (imed_data)

|   Index | Hex Value   |   Dec Value |
|---------|-------------|-------------|
|       0 | 0x00C8      |         200 |
|       1 | 0x0000      |           0 |
|       2 | 0x0013      |          19 |
|       3 | 0x016D      |         365 |
|       4 | 0x00AF      |         175 |
|       5 | 0x02F9      |         761 |
|       6 | 0x033C      |         828 |
|       7 | 0x0725      |        1829 |
|       8 | 0x07CD      |        1997 |
|       9 | 0x088B      |        2187 |
|      10 | 0x0001      |           1 |
|      11 | 0x38BA      |       14522 |
|      12 | 0x001E      |          30 |
|      13 | 0x011B      |         283 |
|      14 | 0x005A      |          90 |
|      15 | 0x2204      |        8708 |
|      16 | 0x0014      |          20 |
|      17 | 0x2205      |        8709 |
|      18 | 0x2206      |        8710 |
|      19 | 0x2207      |        8711 |
|      20 | 0x2208      |        8712 |
|      21 | 0x003C      |          60 |
|      22 | 0x2209      |        8713 |
|      23 | 0x220A      |        8714 |
|      24 | 0x0042      |          66 |
|      25 | 0x220B      |        8715 |
|      26 | 0x220C      |        8716 |
|      27 | 0x220D      |        8717 |
|      28 | 0x220E      |        8718 |
|      29 | 0x220F      |        8719 |
|      30 | 0x2210      |        8720 |
|      31 | 0x2211      |        8721 |
|      32 | 0x2212      |        8722 |
|      33 | 0x2213      |        8723 |
|      34 | 0x006B      |         107 |
|      35 | 0x2214      |        8724 |
|      36 | 0x2215      |        8725 |
|      37 | 0x2216      |        8726 |
|      38 | 0x2217      |        8727 |
|      39 | 0x2218      |        8728 |
|      40 | 0x2219      |        8729 |
|      41 | 0x221A      |        8730 |
|      42 | 0x221B      |        8731 |
|      43 | 0x221C      |        8732 |
|      44 | 0x221D      |        8733 |
|      45 | 0x221E      |        8734 |
|      46 | 0x221F      |        8735 |
|      47 | 0x2220      |        8736 |
|      48 | 0x2221      |        8737 |
|      49 | 0x2222      |        8738 |
|      50 | 0x2223      |        8739 |
|      51 | 0x2224      |        8740 |
|      52 | 0x2225      |        8741 |
|      53 | 0x2226      |        8742 |
|      54 | 0x2227      |        8743 |
|      55 | 0x2228      |        8744 |
|      56 | 0x2229      |        8745 |
|      57 | 0x222A      |        8746 |
|      58 | 0x00C9      |         201 |
|      59 | 0x222B      |        8747 |
|      60 | 0x222C      |        8748 |
|      61 | 0x222D      |        8749 |

## String References

- **8710**: Show him Leleroon's letter? [Yes./Not now.]

## Events

### Event 65535

#### Metadata

| Field        | Value   |
|--------------|---------|
| Entrypoint   | 0x0000  |
| Data Size    | 1 bytes |
| Instructions | 1       |

```
      00 01 02 03 04 05 06 07  08 09 0A 0B 0C 0D 0E 0F
      -- -- -- -- -- -- -- --  -- -- -- -- -- -- -- --
0000: 00                                                .               
```

#### Opcodes

```
  0: 0x0000 [0x00] END_REQSTACK()
```

### Event 753

#### Metadata

| Field        | Value     |
|--------------|-----------|
| Entrypoint   | 0x0001    |
| Data Size    | 716 bytes |
| Instructions | 104       |

```
      00 01 02 03 04 05 06 07  08 09 0A 0B 0C 0D 0E 0F
      -- -- -- -- -- -- -- --  -- -- -- -- -- -- -- --
0000:    42 45 00 80 F8 FF FF  7F F8 FF FF 7F 66 64 6F   BE..........fdo
0010: 31 01 80 55 00 80 F8 FF  FF 7F F8 FF FF 7F 66 64  1..U..........fd
0020: 6F 31 46 01 38 02 80 29  10 F0 FF FF 7F 3E 92 01  o1F.8..).....>..
0030: 85 80 0E 01 75 00 03 80  75 01 80 F0 FF FF 7F 29  ....u...u......)
0040: 10 61 80 0E 01 03 4A F0  FF FF 7F 85 80 0E 01 5C  .a....J........\
0050: 00 04 80 5C 01 04 80 9A  03 02 10 05 80 03 03 10  ...\............
0060: 06 80 03 04 10 07 80 03  05 10 08 80 03 06 10 09  ................
0070: 80 03 07 10 0A 80 03 08  10 0B 80 1C 0C 80 45 0D  ..............E.
0080: 80 F0 FF FF 7F F0 FF FF  7F 75 30 30 30 01 80 45  .........u000..E
0090: 00 80 F8 FF FF 7F F8 FF  FF 7F 66 64 69 31 01 80  ..........fdi1..
00A0: 1C 0E 80 2B 85 80 0E 01  0F 80 23 66 10 80 F8 FF  ...+......#f....
00B0: FF 7F F8 FF FF 7F 74 68  6B 31 2B 85 80 0E 01 11  ......thk1+.....
00C0: 80 23 24 12 80 01 80 01  80 25 02 00 10 01 80 00  .#$......%......
00D0: FD 00 52 0D 80 F0 FF FF  7F F0 FF FF 7F 75 30 30  ..R..........u00
00E0: 30 45 0D 80 F0 FF FF 7F  F0 FF FF 7F 75 30 30 31  0E..........u001
00F0: 01 80 2B 85 80 0E 01 13  80 23 01 0B 01 02 00 10  ..+......#......
0100: 0A 80 00 0B 01 01 C2 00  01 0B 01 66 10 80 F8 FF  ...........f....
0110: FF 7F F8 FF FF 7F 74 68  6B 32 1C 0C 80 2B 85 80  ......thk2...+..
0120: 0E 01 14 80 23 1C 0C 80  52 0D 80 F0 FF FF 7F F0  ....#...R.......
0130: FF FF 7F 75 30 30 31 45  0D 80 F0 FF FF 7F F0 FF  ...u001E........
0140: FF 7F 75 30 30 32 01 80  1C 15 80 66 10 80 F8 FF  ..u002.....f....
0150: FF 7F F8 FF FF 7F 74 6C  6B 30 2B 85 80 0E 01 16  ......tlk0+.....
0160: 80 23 2B 85 80 0E 01 17  80 23 66 10 80 F8 FF FF  .#+......#f.....
0170: 7F F8 FF FF 7F 74 6C 6B  31 1C 0C 80 52 0D 80 F0  .....tlk1...R...
0180: FF FF 7F F0 FF FF 7F 75  30 30 32 45 0D 80 F0 FF  .......u002E....
0190: FF 7F F0 FF FF 7F 75 30  30 33 01 80 1C 0C 80 66  ......u003.....f
01A0: 18 80 F8 FF FF 7F F8 FF  FF 7F 73 74 64 30 2B 85  ..........std0+.
01B0: 80 0E 01 19 80 23 1C 0C  80 2B 85 80 0E 01 1A 80  .....#...+......
01C0: 23 1C 0C 80 52 0D 80 F0  FF FF 7F F0 FF FF 7F 75  #...R..........u
01D0: 30 30 33 45 0D 80 F0 FF  FF 7F F0 FF FF 7F 75 30  003E..........u0
01E0: 30 34 01 80 1C 15 80 2B  85 80 0E 01 1B 80 23 1C  04.....+......#.
01F0: 15 80 2B 85 80 0E 01 1C  80 23 2B 85 80 0E 01 1D  ..+......#+.....
0200: 80 23 52 0D 80 F0 FF FF  7F F0 FF FF 7F 75 30 30  .#R..........u00
0210: 34 45 0D 80 F0 FF FF 7F  F0 FF FF 7F 75 30 30 35  4E..........u005
0220: 01 80 1C 15 80 2B 85 80  0E 01 1E 80 23 66 18 80  .....+......#f..
0230: F8 FF FF 7F F8 FF FF 7F  73 74 64 31 2B 85 80 0E  ........std1+...
0240: 01 1F 80 23 1C 0C 80 52  0D 80 F0 FF FF 7F F0 FF  ...#...R........
0250: FF 7F 75 30 30 35 45 0D  80 F0 FF FF 7F F0 FF FF  ..u005E.........
0260: 7F 75 30 30 36 01 80 1C  0C 80 2B 85 80 0E 01 20  .u006.....+.... 
0270: 80 23 2B 85 80 0E 01 21  80 23 1C 15 80 45 00 80  .#+....!.#...E..
0280: F8 FF FF 7F F8 FF FF 7F  66 64 6F 31 01 80 55 00  ........fdo1..U.
0290: 80 F8 FF FF 7F F8 FF FF  7F 66 64 6F 31 1C 0C 80  .........fdo1...
02A0: 52 0D 80 F0 FF FF 7F F0  FF FF 7F 75 30 30 36 5C  R..........u006\
02B0: 00 22 80 5C 01 22 80 9A  46 00 45 00 80 F8 FF FF  .".\."..F.E.....
02C0: 7F F8 FF FF 7F 66 64 69  31 01 80 21 00           .....fdi1..!.   
```

#### Opcodes

```
  0: 0x0001 [0x42] SET_CLI_EVENT_CANCEL_DATA()
  1: 0x0002 [0x45] LOAD_SCHEDULED_TASK: Load scheduler "fdo1" with entities [EventEntity, EventEntity], work=[200*, 0*]
  2: 0x0013 [0x55] WAIT_LOAD_SCHEDULER: Wait for scheduler "fdo1" with entities [EventEntity, EventEntity], work=200*
  3: 0x0022 [0x46] CAMERA_CONTROL: Disable user control
  4: 0x0024 [0x38] SET_CLIENT_EVENT_MODE(mode=19*)
  5: 0x0027 [0x29] REQ_SET_WAIT(priority=0x10, entity_id=LocalPlayer, tag_num=0x3E)
  6: 0x002E [0x92] Raqtibahl (ID: 17727621/0x010E8085)->Render.Flags3 ^= 0x01
  7: 0x0034 [0x75] LOAD_ROOM(Load indoor room, room=365*)
  8: 0x0038 [0x75] LOAD_ROOM(No action)
  9: 0x003A [0x80] LOAD_WAIT(entity=LocalPlayer)
 10: 0x003F [0x29] REQ_SET_WAIT(priority=0x10, entity_id=Door:"Rusty Anchor" (ID: 17727585/0x010E8061), tag_num=0x03)
 11: 0x0046 [0x4A] LocalPlayer looks at Raqtibahl (ID: 17727621/0x010E8085)
 12: 0x004F [0x5C] MUSIC_CONTROL: Set Idle (Day) music to song 175*
 13: 0x0053 [0x5C] MUSIC_CONTROL: Set Idle (Night) music to song 175*
 14: 0x0057 [0x9A] WAIT_MUSIC_SERVER()
 15: 0x0058 [0x03] Work_Zone[2] = 761*
 16: 0x005D [0x03] Work_Zone[3] = 828*
 17: 0x0062 [0x03] Work_Zone[4] = 1829*
 18: 0x0067 [0x03] Work_Zone[5] = 1997*
 19: 0x006C [0x03] Work_Zone[6] = 2187*
 20: 0x0071 [0x03] Work_Zone[7] = 1*
 21: 0x0076 [0x03] Work_Zone[8] = 14522*
 22: 0x007B [0x1C] WAIT(30* ticks)
 23: 0x007E [0x45] LOAD_SCHEDULED_TASK: Load scheduler "u000" with entities [LocalPlayer, LocalPlayer], work=[283*, 0*]
 24: 0x008F [0x45] LOAD_SCHEDULED_TASK: Load scheduler "fdi1" with entities [EventEntity, EventEntity], work=[200*, 0*]
 25: 0x00A0 [0x1C] WAIT(90* ticks)
 26: 0x00A3 [0x2B] Raqtibahl (ID: 17727621/0x010E8085) [8708*]:
    → "Hm..."
 27: 0x00AA [0x23] WAIT_FOR_DIALOG_INTERACTION
 28: 0x00AB [0x66] LOAD_EXT_SCHEDULER_MAIN: Load scheduler "thk1" with entities [EventEntity, EventEntity], work=20*
 29: 0x00BA [0x2B] Raqtibahl (ID: 17727621/0x010E8085) [8709*]:
    → "I do not remember ever seeing you before. What do you need of me?"
 30: 0x00C1 [0x23] WAIT_FOR_DIALOG_INTERACTION
 31: 0x00C2 [0x24] CREATE_DIALOG(message_id=8710*, default_option=0*, option_flags=0*)
    → "Show him Leleroon's letter? [Yes./Not now.]"
 32: 0x00C9 [0x25] WAIT_DIALOG_SELECT()
 33: 0x00CA [0x02] IF !(Work_Zone[0] == 0*) GOTO 0x00FD
 34: 0x00D2 [0x52] END_LOAD_SCHEDULER: End scheduler "u000" with entities [LocalPlayer, LocalPlayer], work=283*
 35: 0x00E1 [0x45] LOAD_SCHEDULED_TASK: Load scheduler "u001" with entities [LocalPlayer, LocalPlayer], work=[283*, 0*]
 36: 0x00F2 [0x2B] Raqtibahl (ID: 17727621/0x010E8085) [8711*]:
    → "Well now, what have we here? I have not seen Leleroon in a long time. I wonder how the little Qiqirn is doing..."
 37: 0x00F9 [0x23] WAIT_FOR_DIALOG_INTERACTION
 38: 0x00FA [0x01] GOTO 0x010B
 39: 0x00FD [0x02] IF !(Work_Zone[0] == 1*) GOTO 0x010B
 40: 0x0105 [0x01] GOTO 0x00C2

SUBROUTINE_010B:
 41: 0x010B [0x66] LOAD_EXT_SCHEDULER_MAIN: Load scheduler "thk2" with entities [EventEntity, EventEntity], work=20*
 42: 0x011A [0x1C] WAIT(30* ticks)
 43: 0x011D [0x2B] Raqtibahl (ID: 17727621/0x010E8085) [8712*]:
    → "You are a member of the Seagull Phratrie, correct? Sorry for my curt words earlier."
 44: 0x0124 [0x23] WAIT_FOR_DIALOG_INTERACTION
 45: 0x0125 [0x1C] WAIT(30* ticks)
 46: 0x0128 [0x52] END_LOAD_SCHEDULER: End scheduler "u001" with entities [LocalPlayer, LocalPlayer], work=283*
 47: 0x0137 [0x45] LOAD_SCHEDULED_TASK: Load scheduler "u002" with entities [LocalPlayer, LocalPlayer], work=[283*, 0*]
 48: 0x0148 [0x1C] WAIT(60* ticks)
 49: 0x014B [0x66] LOAD_EXT_SCHEDULER_MAIN: Load scheduler "tlk0" with entities [EventEntity, EventEntity], work=20*
 50: 0x015A [0x2B] Raqtibahl (ID: 17727621/0x010E8085) [8713*]:
    → "I was a member of the Black Cradle's crew until that giant hole was blown into its hull... Then I ventured here to San d'Oria."
 51: 0x0161 [0x23] WAIT_FOR_DIALOG_INTERACTION
 52: 0x0162 [0x2B] Raqtibahl (ID: 17727621/0x010E8085) [8714*]:
    → "As the oldest member, all the battles were starting to take their toll on me. So when the ship sank, I took the opportunity to retire."
 53: 0x0169 [0x23] WAIT_FOR_DIALOG_INTERACTION
 54: 0x016A [0x66] LOAD_EXT_SCHEDULER_MAIN: Load scheduler "tlk1" with entities [EventEntity, EventEntity], work=20*
 55: 0x0179 [0x1C] WAIT(30* ticks)
 56: 0x017C [0x52] END_LOAD_SCHEDULER: End scheduler "u002" with entities [LocalPlayer, LocalPlayer], work=283*
 57: 0x018B [0x45] LOAD_SCHEDULED_TASK: Load scheduler "u003" with entities [LocalPlayer, LocalPlayer], work=[283*, 0*]
 58: 0x019C [0x1C] WAIT(30* ticks)
 59: 0x019F [0x66] LOAD_EXT_SCHEDULER_MAIN: Load scheduler "std0" with entities [EventEntity, EventEntity], work=66*
 60: 0x01AE [0x2B] Raqtibahl (ID: 17727621/0x010E8085) [8715*]:
    → "You came here in order to get some quality corsair armor, did you?"
 61: 0x01B5 [0x23] WAIT_FOR_DIALOG_INTERACTION
 62: 0x01B6 [0x1C] WAIT(30* ticks)
 63: 0x01B9 [0x2B] Raqtibahl (ID: 17727621/0x010E8085) [8716*]:
    → "Well then, you have come to the right place. I can make $6 for you."
 64: 0x01C0 [0x23] WAIT_FOR_DIALOG_INTERACTION
 65: 0x01C1 [0x1C] WAIT(30* ticks)
 66: 0x01C4 [0x52] END_LOAD_SCHEDULER: End scheduler "u003" with entities [LocalPlayer, LocalPlayer], work=283*
 67: 0x01D3 [0x45] LOAD_SCHEDULED_TASK: Load scheduler "u004" with entities [LocalPlayer, LocalPlayer], work=[283*, 0*]
 68: 0x01E4 [0x1C] WAIT(60* ticks)
 69: 0x01E7 [0x2B] Raqtibahl (ID: 17727621/0x010E8085) [8717*]:
    → "However, first I must test your skill as a corsair and determine that you are up to my standard. Until now, I have created equipment for Qultada only."
 70: 0x01EE [0x23] WAIT_FOR_DIALOG_INTERACTION
 71: 0x01EF [0x1C] WAIT(60* ticks)
 72: 0x01F2 [0x2B] Raqtibahl (ID: 17727621/0x010E8085) [8718*]:
    → "You have met Qultada, have you not?"
 73: 0x01F9 [0x23] WAIT_FOR_DIALOG_INTERACTION
 74: 0x01FA [0x2B] Raqtibahl (ID: 17727621/0x010E8085) [8719*]:
    → "When I decided to abandon life at sea, the fool tried desperately to stop me."
 75: 0x0201 [0x23] WAIT_FOR_DIALOG_INTERACTION
 76: 0x0202 [0x52] END_LOAD_SCHEDULER: End scheduler "u004" with entities [LocalPlayer, LocalPlayer], work=283*
 77: 0x0211 [0x45] LOAD_SCHEDULED_TASK: Load scheduler "u005" with entities [LocalPlayer, LocalPlayer], work=[283*, 0*]
 78: 0x0222 [0x1C] WAIT(60* ticks)
 79: 0x0225 [0x2B] Raqtibahl (ID: 17727621/0x010E8085) [8720*]:
    → "Anyway, that is all in the past."
 80: 0x022C [0x23] WAIT_FOR_DIALOG_INTERACTION
 81: 0x022D [0x66] LOAD_EXT_SCHEDULER_MAIN: Load scheduler "std1" with entities [EventEntity, EventEntity], work=66*
 82: 0x023C [0x2B] Raqtibahl (ID: 17727621/0x010E8085) [8721*]:
    → "Bring me $0, $1, $2, and $3..."
 83: 0x0243 [0x23] WAIT_FOR_DIALOG_INTERACTION
 84: 0x0244 [0x1C] WAIT(30* ticks)
 85: 0x0247 [0x52] END_LOAD_SCHEDULER: End scheduler "u005" with entities [LocalPlayer, LocalPlayer], work=283*
 86: 0x0256 [0x45] LOAD_SCHEDULED_TASK: Load scheduler "u006" with entities [LocalPlayer, LocalPlayer], work=[283*, 0*]
 87: 0x0267 [0x1C] WAIT(30* ticks)
 88: 0x026A [0x2B] Raqtibahl (ID: 17727621/0x010E8085) [8722*]:
    → "I cannot do anything until you bring me the materials first."
 89: 0x0271 [0x23] WAIT_FOR_DIALOG_INTERACTION
 90: 0x0272 [0x2B] Raqtibahl (ID: 17727621/0x010E8085) [8723*]:
    → "Come back after you manage to find them."
 91: 0x0279 [0x23] WAIT_FOR_DIALOG_INTERACTION
 92: 0x027A [0x1C] WAIT(60* ticks)
 93: 0x027D [0x45] LOAD_SCHEDULED_TASK: Load scheduler "fdo1" with entities [EventEntity, EventEntity], work=[200*, 0*]
 94: 0x028E [0x55] WAIT_LOAD_SCHEDULER: Wait for scheduler "fdo1" with entities [EventEntity, EventEntity], work=200*
 95: 0x029D [0x1C] WAIT(30* ticks)
 96: 0x02A0 [0x52] END_LOAD_SCHEDULER: End scheduler "u006" with entities [LocalPlayer, LocalPlayer], work=283*
 97: 0x02AF [0x5C] MUSIC_CONTROL: Set Idle (Day) music to song 107*
 98: 0x02B3 [0x5C] MUSIC_CONTROL: Set Idle (Night) music to song 107*
 99: 0x02B7 [0x9A] WAIT_MUSIC_SERVER()
100: 0x02B8 [0x46] CAMERA_CONTROL: Restore default settings
101: 0x02BA [0x45] LOAD_SCHEDULED_TASK: Load scheduler "fdi1" with entities [EventEntity, EventEntity], work=[200*, 0*]
102: 0x02CB [0x21] END_EVENT
103: 0x02CC [0x00] END_REQSTACK()
```

#### Data or dead code:

```
# Dead code (unreachable instructions):
     0x0108 [0x01] GOTO 0x010B
```

### Event 754

#### Metadata

| Field        | Value    |
|--------------|----------|
| Entrypoint   | 0x02CD   |
| Data Size    | 52 bytes |
| Instructions | 14       |

```
      00 01 02 03 04 05 06 07  08 09 0A 0B 0C 0D 0E 0F
      -- -- -- -- -- -- -- --  -- -- -- -- -- -- -- --
02C0:                                         42 03 02               B..
02D0: 10 05 80 03 03 10 06 80  03 04 10 07 80 03 05 10  ................
02E0: 08 80 03 06 10 09 80 2B  85 80 0E 01 1F 80 23 2B  .......+......#+
02F0: 85 80 0E 01 20 80 23 2B  85 80 0E 01 21 80 23 21  .... .#+....!.#!
0300: 00                                                .               
```

#### Opcodes

```
  0: 0x02CD [0x42] SET_CLI_EVENT_CANCEL_DATA()
  1: 0x02CE [0x03] Work_Zone[2] = 761*
  2: 0x02D3 [0x03] Work_Zone[3] = 828*
  3: 0x02D8 [0x03] Work_Zone[4] = 1829*
  4: 0x02DD [0x03] Work_Zone[5] = 1997*
  5: 0x02E2 [0x03] Work_Zone[6] = 2187*
  6: 0x02E7 [0x2B] Raqtibahl (ID: 17727621/0x010E8085) [8721*]:
    → "Bring me $0, $1, $2, and $3..."
  7: 0x02EE [0x23] WAIT_FOR_DIALOG_INTERACTION
  8: 0x02EF [0x2B] Raqtibahl (ID: 17727621/0x010E8085) [8722*]:
    → "I cannot do anything until you bring me the materials first."
  9: 0x02F6 [0x23] WAIT_FOR_DIALOG_INTERACTION
 10: 0x02F7 [0x2B] Raqtibahl (ID: 17727621/0x010E8085) [8723*]:
    → "Come back after you manage to find them."
 11: 0x02FE [0x23] WAIT_FOR_DIALOG_INTERACTION
 12: 0x02FF [0x21] END_EVENT
 13: 0x0300 [0x00] END_REQSTACK()
```

### Event 755

#### Metadata

| Field        | Value    |
|--------------|----------|
| Entrypoint   | 0x0301   |
| Data Size    | 45 bytes |
| Instructions | 13       |

```
      00 01 02 03 04 05 06 07  08 09 0A 0B 0C 0D 0E 0F
      -- -- -- -- -- -- -- --  -- -- -- -- -- -- -- --
0300:    42 03 06 10 09 80 03  07 10 0A 80 2B 85 80 0E   B..........+...
0310: 01 23 80 23 2B 85 80 0E  01 24 80 23 2B 85 80 0E  .#.#+....$.#+...
0320: 01 25 80 23 2B 85 80 0E  01 26 80 23 21 00        .%.#+....&.#!.  
```

#### Opcodes

```
  0: 0x0301 [0x42] SET_CLI_EVENT_CANCEL_DATA()
  1: 0x0302 [0x03] Work_Zone[6] = 2187*
  2: 0x0307 [0x03] Work_Zone[7] = 1*
  3: 0x030C [0x2B] Raqtibahl (ID: 17727621/0x010E8085) [8724*]:
    → "Ah, I see you've managed to find all the materials. Good work."
  4: 0x0313 [0x23] WAIT_FOR_DIALOG_INTERACTION
  5: 0x0314 [0x2B] Raqtibahl (ID: 17727621/0x010E8085) [8725*]:
    → "All you have to do now is pay the costs of production."
  6: 0x031B [0x23] WAIT_FOR_DIALOG_INTERACTION
  7: 0x031C [0x2B] Raqtibahl (ID: 17727621/0x010E8085) [8726*]:
    → "That will be $5 $0$4 ..."
  8: 0x0323 [0x23] WAIT_FOR_DIALOG_INTERACTION
  9: 0x0324 [0x2B] Raqtibahl (ID: 17727621/0x010E8085) [8727*]:
    → "I am not going anywhere. Just bring the materials whenever you want."
 10: 0x032B [0x23] WAIT_FOR_DIALOG_INTERACTION
 11: 0x032C [0x21] END_EVENT
 12: 0x032D [0x00] END_REQSTACK()
```

### Event 761

#### Metadata

| Field        | Value    |
|--------------|----------|
| Entrypoint   | 0x032E   |
| Data Size    | 29 bytes |
| Instructions | 9        |

```
      00 01 02 03 04 05 06 07  08 09 0A 0B 0C 0D 0E 0F
      -- -- -- -- -- -- -- --  -- -- -- -- -- -- -- --
0320:                                            42 03                B.
0330: 06 10 09 80 03 07 10 0A  80 2B 85 80 0E 01 25 80  .........+....%.
0340: 23 2B 85 80 0E 01 26 80  23 21 00                 #+....&.#!.     
```

#### Opcodes

```
  0: 0x032E [0x42] SET_CLI_EVENT_CANCEL_DATA()
  1: 0x032F [0x03] Work_Zone[6] = 2187*
  2: 0x0334 [0x03] Work_Zone[7] = 1*
  3: 0x0339 [0x2B] Raqtibahl (ID: 17727621/0x010E8085) [8726*]:
    → "That will be $5 $0$4 ..."
  4: 0x0340 [0x23] WAIT_FOR_DIALOG_INTERACTION
  5: 0x0341 [0x2B] Raqtibahl (ID: 17727621/0x010E8085) [8727*]:
    → "I am not going anywhere. Just bring the materials whenever you want."
  6: 0x0348 [0x23] WAIT_FOR_DIALOG_INTERACTION
  7: 0x0349 [0x21] END_EVENT
  8: 0x034A [0x00] END_REQSTACK()
```

### Event 760

#### Metadata

| Field        | Value    |
|--------------|----------|
| Entrypoint   | 0x034B   |
| Data Size    | 19 bytes |
| Instructions | 7        |

```
      00 01 02 03 04 05 06 07  08 09 0A 0B 0C 0D 0E 0F
      -- -- -- -- -- -- -- --  -- -- -- -- -- -- -- --
0340:                                   42 2B 85 80 0E             B+...
0350: 01 27 80 23 2B 85 80 0E  01 28 80 23 21 00        .'.#+....(.#!.  
```

#### Opcodes

```
  0: 0x034B [0x42] SET_CLI_EVENT_CANCEL_DATA()
  1: 0x034C [0x2B] Raqtibahl (ID: 17727621/0x010E8085) [8728*]:
    → "Well, this is an unexpected development..."
  2: 0x0353 [0x23] WAIT_FOR_DIALOG_INTERACTION
  3: 0x0354 [0x2B] Raqtibahl (ID: 17727621/0x010E8085) [8729*]:
    → "I guess I will have to actually make your equipment, then! Please wait a while until I can finish."
  4: 0x035B [0x23] WAIT_FOR_DIALOG_INTERACTION
  5: 0x035C [0x21] END_EVENT
  6: 0x035D [0x00] END_REQSTACK()
```

### Event 757

#### Metadata

| Field        | Value    |
|--------------|----------|
| Entrypoint   | 0x035E   |
| Data Size    | 27 bytes |
| Instructions | 9        |

```
      00 01 02 03 04 05 06 07  08 09 0A 0B 0C 0D 0E 0F
      -- -- -- -- -- -- -- --  -- -- -- -- -- -- -- --
0350:                                            42 2B                B+
0360: 85 80 0E 01 29 80 23 2B  85 80 0E 01 2A 80 23 2B  ....).#+....*.#+
0370: 85 80 0E 01 2B 80 23 21  00                       ....+.#!.       
```

#### Opcodes

```
  0: 0x035E [0x42] SET_CLI_EVENT_CANCEL_DATA()
  1: 0x035F [0x2B] Raqtibahl (ID: 17727621/0x010E8085) [8730*]:
    → "Patience, now, patience. Hasty work makes sloppy work."
  2: 0x0366 [0x23] WAIT_FOR_DIALOG_INTERACTION
  3: 0x0367 [0x2B] Raqtibahl (ID: 17727621/0x010E8085) [8731*]:
    → "The way of the corsair means being able to show the world an easygoing smile in the most anxious of times."
  4: 0x036E [0x23] WAIT_FOR_DIALOG_INTERACTION
  5: 0x036F [0x2B] Raqtibahl (ID: 17727621/0x010E8085) [8732*]:
    → "So relax and wait just a bit longer."
  6: 0x0376 [0x23] WAIT_FOR_DIALOG_INTERACTION
  7: 0x0377 [0x21] END_EVENT
  8: 0x0378 [0x00] END_REQSTACK()
```

### Event 756

#### Metadata

| Field        | Value     |
|--------------|-----------|
| Entrypoint   | 0x0379    |
| Data Size    | 649 bytes |
| Instructions | 90        |

```
      00 01 02 03 04 05 06 07  08 09 0A 0B 0C 0D 0E 0F
      -- -- -- -- -- -- -- --  -- -- -- -- -- -- -- --
0370:                             42 45 00 80 F8 FF FF           BE.....
0380: 7F F8 FF FF 7F 66 64 6F  31 01 80 55 00 80 F8 FF  .....fdo1..U....
0390: FF 7F F8 FF FF 7F 66 64  6F 31 46 01 38 02 80 29  ......fdo1F.8..)
03A0: 10 F0 FF FF 7F 3E 29 10  61 80 0E 01 03 92 01 85  .....>).a.......
03B0: 80 0E 01 75 00 03 80 75  01 80 F0 FF FF 7F 4A F0  ...u...u......J.
03C0: FF FF 7F 85 80 0E 01 1E  F0 FF FF 7F 5C 00 04 80  ............\...
03D0: 5C 01 04 80 9A 03 08 10  0B 80 1C 0C 80 45 0D 80  \............E..
03E0: F0 FF FF 7F F0 FF FF 7F  75 30 30 37 01 80 45 00  ........u007..E.
03F0: 80 F8 FF FF 7F F8 FF FF  7F 66 64 69 31 01 80 1C  .........fdi1...
0400: 15 80 66 10 80 F8 FF FF  7F F8 FF FF 7F 70 61 73  ..f..........pas
0410: 30 2B 85 80 0E 01 2C 80  23 1C 0E 80 66 10 80 F8  0+....,.#...f...
0420: FF FF 7F F8 FF FF 7F 74  68 6B 31 1C 0C 80 2B 85  .......thk1...+.
0430: 80 0E 01 2D 80 23 52 0D  80 F0 FF FF 7F F0 FF FF  ...-.#R.........
0440: 7F 75 30 30 37 45 0D 80  F0 FF FF 7F F0 FF FF 7F  .u007E..........
0450: 75 30 30 38 01 80 1C 0C  80 2B 85 80 0E 01 2E 80  u008.....+......
0460: 23 2B 85 80 0E 01 2F 80  23 1C 0C 80 2B 85 80 0E  #+..../.#...+...
0470: 01 30 80 23 52 0D 80 F0  FF FF 7F F0 FF FF 7F 75  .0.#R..........u
0480: 30 30 38 45 0D 80 F0 FF  FF 7F F0 FF FF 7F 75 30  008E..........u0
0490: 30 39 01 80 1C 15 80 66  10 80 F8 FF FF 7F F8 FF  09.....f........
04A0: FF 7F 74 68 6B 32 2B 85  80 0E 01 31 80 23 1C 0C  ..thk2+....1.#..
04B0: 80 66 10 80 F8 FF FF 7F  F8 FF FF 7F 74 6C 6B 30  .f..........tlk0
04C0: 2B 85 80 0E 01 32 80 23  2B 85 80 0E 01 33 80 23  +....2.#+....3.#
04D0: 66 10 80 F8 FF FF 7F F8  FF FF 7F 74 6C 6B 31 1C  f..........tlk1.
04E0: 0C 80 52 0D 80 F0 FF FF  7F F0 FF FF 7F 75 30 30  ..R..........u00
04F0: 39 45 0D 80 F0 FF FF 7F  F0 FF FF 7F 75 30 31 30  9E..........u010
0500: 01 80 66 18 80 F8 FF FF  7F F8 FF FF 7F 73 74 64  ..f..........std
0510: 30 2B 85 80 0E 01 34 80  23 1C 15 80 2B 85 80 0E  0+....4.#...+...
0520: 01 35 80 23 1C 0C 80 52  0D 80 F0 FF FF 7F F0 FF  .5.#...R........
0530: FF 7F 75 30 31 30 45 0D  80 F0 FF FF 7F F0 FF FF  ..u010E.........
0540: 7F 75 30 31 31 01 80 1C  0C 80 2B 85 80 0E 01 36  .u011.....+....6
0550: 80 23 2B 85 80 0E 01 37  80 23 52 0D 80 F0 FF FF  .#+....7.#R.....
0560: 7F F0 FF FF 7F 75 30 31  31 45 0D 80 F0 FF FF 7F  .....u011E......
0570: F0 FF FF 7F 75 30 31 32  01 80 66 18 80 F8 FF FF  ....u012..f.....
0580: 7F F8 FF FF 7F 73 74 64  31 2B 85 80 0E 01 38 80  .....std1+....8.
0590: 23 2B 85 80 0E 01 39 80  23 5D 15 80 01 80 1C 15  #+....9.#]......
05A0: 80 45 00 80 F8 FF FF 7F  F8 FF FF 7F 66 64 6F 31  .E..........fdo1
05B0: 01 80 55 00 80 F8 FF FF  7F F8 FF FF 7F 66 64 6F  ..U..........fdo
05C0: 31 1C 15 80 45 3A 80 F0  FF FF 7F F0 FF FF 7F 71  1...E:.........q
05D0: 73 74 63 01 80 52 0D 80  F0 FF FF 7F F0 FF FF 7F  stc..R..........
05E0: 75 30 31 32 5C 00 22 80  5C 01 22 80 9A 46 00 45  u012\.".\."..F.E
05F0: 00 80 F8 FF FF 7F F8 FF  FF 7F 66 64 69 31 01 80  ..........fdi1..
0600: 21 00                                             !.              
```

#### Opcodes

```
  0: 0x0379 [0x42] SET_CLI_EVENT_CANCEL_DATA()
  1: 0x037A [0x45] LOAD_SCHEDULED_TASK: Load scheduler "fdo1" with entities [EventEntity, EventEntity], work=[200*, 0*]
  2: 0x038B [0x55] WAIT_LOAD_SCHEDULER: Wait for scheduler "fdo1" with entities [EventEntity, EventEntity], work=200*
  3: 0x039A [0x46] CAMERA_CONTROL: Disable user control
  4: 0x039C [0x38] SET_CLIENT_EVENT_MODE(mode=19*)
  5: 0x039F [0x29] REQ_SET_WAIT(priority=0x10, entity_id=LocalPlayer, tag_num=0x3E)
  6: 0x03A6 [0x29] REQ_SET_WAIT(priority=0x10, entity_id=Door:"Rusty Anchor" (ID: 17727585/0x010E8061), tag_num=0x03)
  7: 0x03AD [0x92] Raqtibahl (ID: 17727621/0x010E8085)->Render.Flags3 ^= 0x01
  8: 0x03B3 [0x75] LOAD_ROOM(Load indoor room, room=365*)
  9: 0x03B7 [0x75] LOAD_ROOM(No action)
 10: 0x03B9 [0x80] LOAD_WAIT(entity=LocalPlayer)
 11: 0x03BE [0x4A] LocalPlayer looks at Raqtibahl (ID: 17727621/0x010E8085)
 12: 0x03C7 [0x1E] EventEntity looks at LocalPlayer and starts talking
 13: 0x03CC [0x5C] MUSIC_CONTROL: Set Idle (Day) music to song 175*
 14: 0x03D0 [0x5C] MUSIC_CONTROL: Set Idle (Night) music to song 175*
 15: 0x03D4 [0x9A] WAIT_MUSIC_SERVER()
 16: 0x03D5 [0x03] Work_Zone[8] = 14522*
 17: 0x03DA [0x1C] WAIT(30* ticks)
 18: 0x03DD [0x45] LOAD_SCHEDULED_TASK: Load scheduler "u007" with entities [LocalPlayer, LocalPlayer], work=[283*, 0*]
 19: 0x03EE [0x45] LOAD_SCHEDULED_TASK: Load scheduler "fdi1" with entities [EventEntity, EventEntity], work=[200*, 0*]
 20: 0x03FF [0x1C] WAIT(60* ticks)
 21: 0x0402 [0x66] LOAD_EXT_SCHEDULER_MAIN: Load scheduler "pas0" with entities [EventEntity, EventEntity], work=20*
 22: 0x0411 [0x2B] Raqtibahl (ID: 17727621/0x010E8085) [8733*]:
    → "Here you go... A genuine $6, all for you."
 23: 0x0418 [0x23] WAIT_FOR_DIALOG_INTERACTION
 24: 0x0419 [0x1C] WAIT(90* ticks)
 25: 0x041C [0x66] LOAD_EXT_SCHEDULER_MAIN: Load scheduler "thk1" with entities [EventEntity, EventEntity], work=20*
 26: 0x042B [0x1C] WAIT(30* ticks)
 27: 0x042E [0x2B] Raqtibahl (ID: 17727621/0x010E8085) [8734*]:
    → "Ah, the corsairs... Those were the days..."
 28: 0x0435 [0x23] WAIT_FOR_DIALOG_INTERACTION
 29: 0x0436 [0x52] END_LOAD_SCHEDULER: End scheduler "u007" with entities [LocalPlayer, LocalPlayer], work=283*
 30: 0x0445 [0x45] LOAD_SCHEDULED_TASK: Load scheduler "u008" with entities [LocalPlayer, LocalPlayer], work=[283*, 0*]
 31: 0x0456 [0x1C] WAIT(30* ticks)
 32: 0x0459 [0x2B] Raqtibahl (ID: 17727621/0x010E8085) [8735*]:
    → "Qultada and I had many a disagreement on that ship. I used to have more of a temper."
 33: 0x0460 [0x23] WAIT_FOR_DIALOG_INTERACTION
 34: 0x0461 [0x2B] Raqtibahl (ID: 17727621/0x010E8085) [8736*]:
    → "I thought we should stop hounding the Empire."
 35: 0x0468 [0x23] WAIT_FOR_DIALOG_INTERACTION
 36: 0x0469 [0x1C] WAIT(30* ticks)
 37: 0x046C [0x2B] Raqtibahl (ID: 17727621/0x010E8085) [8737*]:
    → "I often disagreed with his methods, and eventually left the Phratrie because of it."
 38: 0x0473 [0x23] WAIT_FOR_DIALOG_INTERACTION
 39: 0x0474 [0x52] END_LOAD_SCHEDULER: End scheduler "u008" with entities [LocalPlayer, LocalPlayer], work=283*
 40: 0x0483 [0x45] LOAD_SCHEDULED_TASK: Load scheduler "u009" with entities [LocalPlayer, LocalPlayer], work=[283*, 0*]
 41: 0x0494 [0x1C] WAIT(60* ticks)
 42: 0x0497 [0x66] LOAD_EXT_SCHEDULER_MAIN: Load scheduler "thk2" with entities [EventEntity, EventEntity], work=20*
 43: 0x04A6 [0x2B] Raqtibahl (ID: 17727621/0x010E8085) [8738*]:
    → "Now that I am here on land, though, I am starting to understand his ideas, too. I have had a lot to think about..."
 44: 0x04AD [0x23] WAIT_FOR_DIALOG_INTERACTION
 45: 0x04AE [0x1C] WAIT(30* ticks)
 46: 0x04B1 [0x66] LOAD_EXT_SCHEDULER_MAIN: Load scheduler "tlk0" with entities [EventEntity, EventEntity], work=20*
 47: 0x04C0 [0x2B] Raqtibahl (ID: 17727621/0x010E8085) [8739*]:
    → "It seems to me that a captain is a lot like the sea breeze..."
 48: 0x04C7 [0x23] WAIT_FOR_DIALOG_INTERACTION
 49: 0x04C8 [0x2B] Raqtibahl (ID: 17727621/0x010E8085) [8740*]:
    → "Leading a storm of a crew... Pressing ever forward over the seas..."
 50: 0x04CF [0x23] WAIT_FOR_DIALOG_INTERACTION
 51: 0x04D0 [0x66] LOAD_EXT_SCHEDULER_MAIN: Load scheduler "tlk1" with entities [EventEntity, EventEntity], work=20*
 52: 0x04DF [0x1C] WAIT(30* ticks)
 53: 0x04E2 [0x52] END_LOAD_SCHEDULER: End scheduler "u009" with entities [LocalPlayer, LocalPlayer], work=283*
 54: 0x04F1 [0x45] LOAD_SCHEDULED_TASK: Load scheduler "u010" with entities [LocalPlayer, LocalPlayer], work=[283*, 0*]
 55: 0x0502 [0x66] LOAD_EXT_SCHEDULER_MAIN: Load scheduler "std0" with entities [EventEntity, EventEntity], work=66*
 56: 0x0511 [0x2B] Raqtibahl (ID: 17727621/0x010E8085) [8741*]:
    → "You know Qultada, so you must know what I mean."
 57: 0x0518 [0x23] WAIT_FOR_DIALOG_INTERACTION
 58: 0x0519 [0x1C] WAIT(60* ticks)
 59: 0x051C [0x2B] Raqtibahl (ID: 17727621/0x010E8085) [8742*]:
    → "That man can be like a hurricane..."
 60: 0x0523 [0x23] WAIT_FOR_DIALOG_INTERACTION
 61: 0x0524 [0x1C] WAIT(30* ticks)
 62: 0x0527 [0x52] END_LOAD_SCHEDULER: End scheduler "u010" with entities [LocalPlayer, LocalPlayer], work=283*
 63: 0x0536 [0x45] LOAD_SCHEDULED_TASK: Load scheduler "u011" with entities [LocalPlayer, LocalPlayer], work=[283*, 0*]
 64: 0x0547 [0x1C] WAIT(30* ticks)
 65: 0x054A [0x2B] Raqtibahl (ID: 17727621/0x010E8085) [8743*]:
    → "When you came to visit me the other day, I felt the same qualities in you."
 66: 0x0551 [0x23] WAIT_FOR_DIALOG_INTERACTION
 67: 0x0552 [0x2B] Raqtibahl (ID: 17727621/0x010E8085) [8744*]:
    → "Such memories make me long to return to life on the endless waves..."
 68: 0x0559 [0x23] WAIT_FOR_DIALOG_INTERACTION
 69: 0x055A [0x52] END_LOAD_SCHEDULER: End scheduler "u011" with entities [LocalPlayer, LocalPlayer], work=283*
 70: 0x0569 [0x45] LOAD_SCHEDULED_TASK: Load scheduler "u012" with entities [LocalPlayer, LocalPlayer], work=[283*, 0*]
 71: 0x057A [0x66] LOAD_EXT_SCHEDULER_MAIN: Load scheduler "std1" with entities [EventEntity, EventEntity], work=66*
 72: 0x0589 [0x2B] Raqtibahl (ID: 17727621/0x010E8085) [8745*]:
    → "Please give everyone my blessings."
 73: 0x0590 [0x23] WAIT_FOR_DIALOG_INTERACTION
 74: 0x0591 [0x2B] Raqtibahl (ID: 17727621/0x010E8085) [8746*]:
    → "I can no longer sail, but I have no doubt that you and your companions will shape a new path for the corsairs."
 75: 0x0598 [0x23] WAIT_FOR_DIALOG_INTERACTION
 76: 0x0599 [0x5D] SET_MUSIC_VOLUME(volume=60*, fade_time=0*)
 77: 0x059E [0x1C] WAIT(60* ticks)
 78: 0x05A1 [0x45] LOAD_SCHEDULED_TASK: Load scheduler "fdo1" with entities [EventEntity, EventEntity], work=[200*, 0*]
 79: 0x05B2 [0x55] WAIT_LOAD_SCHEDULER: Wait for scheduler "fdo1" with entities [EventEntity, EventEntity], work=200*
 80: 0x05C1 [0x1C] WAIT(60* ticks)
 81: 0x05C4 [0x45] LOAD_SCHEDULED_TASK: Load scheduler "qstc" with entities [LocalPlayer, LocalPlayer], work=[201*, 0*]
 82: 0x05D5 [0x52] END_LOAD_SCHEDULER: End scheduler "u012" with entities [LocalPlayer, LocalPlayer], work=283*
 83: 0x05E4 [0x5C] MUSIC_CONTROL: Set Idle (Day) music to song 107*
 84: 0x05E8 [0x5C] MUSIC_CONTROL: Set Idle (Night) music to song 107*
 85: 0x05EC [0x9A] WAIT_MUSIC_SERVER()
 86: 0x05ED [0x46] CAMERA_CONTROL: Restore default settings
 87: 0x05EF [0x45] LOAD_SCHEDULED_TASK: Load scheduler "fdi1" with entities [EventEntity, EventEntity], work=[200*, 0*]
 88: 0x0600 [0x21] END_EVENT
 89: 0x0601 [0x00] END_REQSTACK()
```

### Event 758

#### Metadata

| Field        | Value    |
|--------------|----------|
| Entrypoint   | 0x0602   |
| Data Size    | 16 bytes |
| Instructions | 6        |

```
      00 01 02 03 04 05 06 07  08 09 0A 0B 0C 0D 0E 0F
      -- -- -- -- -- -- -- --  -- -- -- -- -- -- -- --
0600:       42 03 02 10 0B 80  2B 85 80 0E 01 3B 80 23    B.....+....;.#
0610: 21 00                                             !.              
```

#### Opcodes

```
  0: 0x0602 [0x42] SET_CLI_EVENT_CANCEL_DATA()
  1: 0x0603 [0x03] Work_Zone[2] = 14522*
  2: 0x0608 [0x2B] Raqtibahl (ID: 17727621/0x010E8085) [8747*]:
    → "Are you properly caring for your $0? Whenever you have the time, please tell me how things are going on the Aradjiah continent."
  3: 0x060F [0x23] WAIT_FOR_DIALOG_INTERACTION
  4: 0x0610 [0x21] END_EVENT
  5: 0x0611 [0x00] END_REQSTACK()
```

### Event 759

#### Metadata

| Field        | Value    |
|--------------|----------|
| Entrypoint   | 0x0612   |
| Data Size    | 19 bytes |
| Instructions | 7        |

```
      00 01 02 03 04 05 06 07  08 09 0A 0B 0C 0D 0E 0F
      -- -- -- -- -- -- -- --  -- -- -- -- -- -- -- --
0610:       42 2B 85 80 0E 01  3C 80 23 2B 85 80 0E 01    B+....<.#+....
0620: 3D 80 23 21 00                                    =.#!.           
```

#### Opcodes

```
  0: 0x0612 [0x42] SET_CLI_EVENT_CANCEL_DATA()
  1: 0x0613 [0x2B] Raqtibahl (ID: 17727621/0x010E8085) [8748*]:
    → "I have been long separated from Aradjiah, but the smell of the sea is the same across Urhguum."
  2: 0x061A [0x23] WAIT_FOR_DIALOG_INTERACTION
  3: 0x061B [0x2B] Raqtibahl (ID: 17727621/0x010E8085) [8749*]:
    → "Whenever I close my eyes, my homeland spreads out before me as vividly as ever."
  4: 0x0622 [0x23] WAIT_FOR_DIALOG_INTERACTION
  5: 0x0623 [0x21] END_EVENT
  6: 0x0624 [0x00] END_REQSTACK()
```

### Event 792

#### Metadata

| Field        | Value   |
|--------------|---------|
| Entrypoint   | 0x0625  |
| Data Size    | 1 bytes |
| Instructions | 1       |

```
      00 01 02 03 04 05 06 07  08 09 0A 0B 0C 0D 0E 0F
      -- -- -- -- -- -- -- --  -- -- -- -- -- -- -- --
0620:                00                                      .          
```

#### Opcodes

```
  0: 0x0625 [0x00] END_REQSTACK()
```

### Event 793

#### Metadata

| Field        | Value   |
|--------------|---------|
| Entrypoint   | 0x0626  |
| Data Size    | 1 bytes |
| Instructions | 1       |

```
      00 01 02 03 04 05 06 07  08 09 0A 0B 0C 0D 0E 0F
      -- -- -- -- -- -- -- --  -- -- -- -- -- -- -- --
0620:                   00                                    .         
```

#### Opcodes

```
  0: 0x0626 [0x00] END_REQSTACK()
```
