# 17727600 - Ulmia

## Common Data

| Field            | Value                     |
|------------------|---------------------------|
| Zone             | Port San d'Oria (ID: 232) |
| Block Size       | 544 bytes                 |
| Total Events     | 15                        |
| References Count | 15                        |

## List of Events

| Event ID                   | Entrypoint   |   Size |   Instructions |
|----------------------------|--------------|--------|----------------|
| [65535](#event-65535)      | 0x0000       |     13 |              3 |
| [4](#event-4)              | 0x000D       |     27 |              5 |
| [65535.1](#event-655351)   | 0x0028       |     15 |              5 |
| [65535.2](#event-655352)   | 0x0037       |     30 |             10 |
| [65535.3](#event-655353)   | 0x0055       |     23 |              7 |
| [65535.4](#event-655354)   | 0x006C       |     23 |              7 |
| [65535.5](#event-655355)   | 0x0083       |     92 |             18 |
| [65535.6](#event-655356)   | 0x00DF       |     16 |              2 |
| [65535.7](#event-655357)   | 0x00EF       |     29 |              3 |
| [65535.8](#event-655358)   | 0x010C       |     16 |              2 |
| [65535.9](#event-655359)   | 0x011C       |     29 |              3 |
| [65535.10](#event-6553510) | 0x0139       |     16 |              2 |
| [65535.11](#event-6553511) | 0x0149       |     19 |              3 |
| [65535.12](#event-6553512) | 0x015C       |     29 |              3 |
| [65535.13](#event-6553513) | 0x0179       |     29 |              3 |

## DAT References (imed_data)

|   Index | Hex Value   |   Dec Value |
|---------|-------------|-------------|
|       0 | 0xFFFF711D  |  4294930717 |
|       1 | 0xFFFF8601  |  4294936065 |
|       2 | 0xFFFFF060  |  4294963296 |
|       3 | 0x0800      |        2048 |
|       4 | 0x03E8      |        1000 |
|       5 | 0x000D      |          13 |
|       6 | 0x05DC      |        1500 |
|       7 | 0x0028      |          40 |
|       8 | 0xFFFF5E7B  |  4294925947 |
|       9 | 0xFFFF590F  |  4294924559 |
|      10 | 0xFFFF5D91  |  4294925713 |
|      11 | 0xFFFF27F8  |  4294911992 |
|      12 | 0x01A4      |         420 |
|      13 | 0x003C      |          60 |
|      14 | 0x01A5      |         421 |

## Events

### Event 65535

#### Metadata

| Field        | Value    |
|--------------|----------|
| Entrypoint   | 0x0000   |
| Data Size    | 13 bytes |
| Instructions | 3        |

```
      00 01 02 03 04 05 06 07  08 09 0A 0B 0C 0D 0E 0F
      -- -- -- -- -- -- -- --  -- -- -- -- -- -- -- --
0000: 92 01 F8 FF FF 7F 94 01  F8 FF FF 7F 00           .............   
```

#### Opcodes

```
  0: 0x0000 [0x92] EventEntity->Render.Flags3 ^= 0x01
  1: 0x0006 [0x94] EventEntity->Render.Flags3 ^= 0x01
  2: 0x000C [0x00] END_REQSTACK()
```

### Event 4

#### Metadata

| Field        | Value    |
|--------------|----------|
| Entrypoint   | 0x000D   |
| Data Size    | 27 bytes |
| Instructions | 5        |

```
      00 01 02 03 04 05 06 07  08 09 0A 0B 0C 0D 0E 0F
      -- -- -- -- -- -- -- --  -- -- -- -- -- -- -- --
0000:                                         37 00 80               7..
0010: 01 80 02 80 03 80 03 00  00 04 80 1A 9B 00 37 01  ..............7.
0020: 00 02 00 03 00 03 80 00                           ........        
```

#### Opcodes

```
  0: 0x000D [0x37] UPDATE_EVENT_POSITION_AND_DIR: x=-36.579*, z=-31.231*, y=-4.000*, direction=180.0°*
  1: 0x0016 [0x03] ExtData[1]->WorkLocal[0] = 1000*
  2: 0x001B [0x1A] CALL_SUBROUTINE(address=0x009B)
  3: 0x001E [0x37] UPDATE_EVENT_POSITION_AND_DIR: x=ExtData[1]->WorkLocal[1], z=ExtData[1]->WorkLocal[2], y=ExtData[1]->WorkLocal[3], direction=180.0°*
  4: 0x0027 [0x00] END_REQSTACK()
```

### Event 65535.1

#### Metadata

| Field        | Value    |
|--------------|----------|
| Entrypoint   | 0x0028   |
| Data Size    | 15 bytes |
| Instructions | 5        |

```
      00 01 02 03 04 05 06 07  08 09 0A 0B 0C 0D 0E 0F
      -- -- -- -- -- -- -- --  -- -- -- -- -- -- -- --
0020:                          32 05 80 1F 00 00 80 01          2.......
0030: 80 02 80 1F 01 6F 00                              .....o.         
```

#### Opcodes

```
  0: 0x0028 [0x32] ExtData[1]->MainSpeed = 13* * 0.1
  1: 0x002B [0x1F] MOVE_ENTITY: EventEntity moves to X=-36.579*, Z=-31.231*, Y=-4.000*
  2: 0x0033 [0x1F] MOVE_ENTITY: Update entity position (mode=1)
  3: 0x0035 [0x6F] WAIT_FRAME_DELAY: Yield until WaitTime reaches zero
  4: 0x0036 [0x00] END_REQSTACK()
```

### Event 65535.2

#### Metadata

| Field        | Value    |
|--------------|----------|
| Entrypoint   | 0x0037   |
| Data Size    | 30 bytes |
| Instructions | 10       |

```
      00 01 02 03 04 05 06 07  08 09 0A 0B 0C 0D 0E 0F
      -- -- -- -- -- -- -- --  -- -- -- -- -- -- -- --
0030:                      1E  71 80 0E 01 6F 70 03 00         .q...op..
0040: 00 06 80 1A 9B 00 32 07  80 1F 00 01 00 02 00 03  ......2.........
0050: 00 1F 01 6F 00                                    ...o.           
```

#### Opcodes

```
  0: 0x0037 [0x1E] EventEntity looks at Shikaree X (ID: 17727601/0x010E8071) and starts talking
  1: 0x003C [0x6F] WAIT_FRAME_DELAY: Yield until WaitTime reaches zero
  2: 0x003D [0x70] WAIT_ENTITY_RENDER_FLAG: Wait while EventEntity->Render.Flags3 bit 2 is set (cancel turn if not)
  3: 0x003E [0x03] ExtData[1]->WorkLocal[0] = 1500*
  4: 0x0043 [0x1A] CALL_SUBROUTINE(address=0x009B)
  5: 0x0046 [0x32] ExtData[1]->MainSpeed = 40* * 0.1
  6: 0x0049 [0x1F] MOVE_ENTITY: EventEntity moves to X=ExtData[1]->WorkLocal[1], Z=ExtData[1]->WorkLocal[2], Y=ExtData[1]->WorkLocal[3]
  7: 0x0051 [0x1F] MOVE_ENTITY: Update entity position (mode=1)
  8: 0x0053 [0x6F] WAIT_FRAME_DELAY: Yield until WaitTime reaches zero
  9: 0x0054 [0x00] END_REQSTACK()
```

### Event 65535.3

#### Metadata

| Field        | Value    |
|--------------|----------|
| Entrypoint   | 0x0055   |
| Data Size    | 23 bytes |
| Instructions | 7        |

```
      00 01 02 03 04 05 06 07  08 09 0A 0B 0C 0D 0E 0F
      -- -- -- -- -- -- -- --  -- -- -- -- -- -- -- --
0050:                03 00 00  04 80 1A 9B 00 32 05 80       ........2..
0060: 1F 00 01 00 02 00 03 00  1F 01 6F 00              ..........o.    
```

#### Opcodes

```
  0: 0x0055 [0x03] ExtData[1]->WorkLocal[0] = 1000*
  1: 0x005A [0x1A] CALL_SUBROUTINE(address=0x009B)
  2: 0x005D [0x32] ExtData[1]->MainSpeed = 13* * 0.1
  3: 0x0060 [0x1F] MOVE_ENTITY: EventEntity moves to X=ExtData[1]->WorkLocal[1], Z=ExtData[1]->WorkLocal[2], Y=ExtData[1]->WorkLocal[3]
  4: 0x0068 [0x1F] MOVE_ENTITY: Update entity position (mode=1)
  5: 0x006A [0x6F] WAIT_FRAME_DELAY: Yield until WaitTime reaches zero
  6: 0x006B [0x00] END_REQSTACK()
```

### Event 65535.4

#### Metadata

| Field        | Value    |
|--------------|----------|
| Entrypoint   | 0x006C   |
| Data Size    | 23 bytes |
| Instructions | 7        |

```
      00 01 02 03 04 05 06 07  08 09 0A 0B 0C 0D 0E 0F
      -- -- -- -- -- -- -- --  -- -- -- -- -- -- -- --
0060:                                      03 00 00 06              ....
0070: 80 1A 9B 00 32 05 80 1F  00 01 00 02 00 03 00 1F  ....2...........
0080: 01 6F 00                                          .o.             
```

#### Opcodes

```
  0: 0x006C [0x03] ExtData[1]->WorkLocal[0] = 1500*
  1: 0x0071 [0x1A] CALL_SUBROUTINE(address=0x009B)
  2: 0x0074 [0x32] ExtData[1]->MainSpeed = 13* * 0.1
  3: 0x0077 [0x1F] MOVE_ENTITY: EventEntity moves to X=ExtData[1]->WorkLocal[1], Z=ExtData[1]->WorkLocal[2], Y=ExtData[1]->WorkLocal[3]
  4: 0x007F [0x1F] MOVE_ENTITY: Update entity position (mode=1)
  5: 0x0081 [0x6F] WAIT_FRAME_DELAY: Yield until WaitTime reaches zero
  6: 0x0082 [0x00] END_REQSTACK()
```

### Event 65535.5

#### Metadata

| Field        | Value    |
|--------------|----------|
| Entrypoint   | 0x0083   |
| Data Size    | 92 bytes |
| Instructions | 6        |

```
      00 01 02 03 04 05 06 07  08 09 0A 0B 0C 0D 0E 0F
      -- -- -- -- -- -- -- --  -- -- -- -- -- -- -- --
0080:          32 07 80 1F 00  08 80 09 80 02 80 1F 01     2............
0090: 1F 00 0A 80 0B 80 02 80  1F 01 00 3B F8 FF FF 7F  ...........;....
00A0: 01 00 02 00 03 00 3A F8  FF FF 7F 04 00 17 05 00  ......:.........
00B0: 04 00 00 00 16 06 00 04  00 00 00 07 01 00 05 00  ................
00C0: 07 02 00 06 00 1B 17 05  00 04 00 00 00 16 06 00  ................
00D0: 04 00 00 00 07 01 00 05  00 07 02 00 06 00 1B     ............... 
```

#### Opcodes

```
  0: 0x0083 [0x32] ExtData[1]->MainSpeed = 40* * 0.1
  1: 0x0086 [0x1F] MOVE_ENTITY: EventEntity moves to X=-41.349*, Z=-42.737*, Y=-4.000*
  2: 0x008E [0x1F] MOVE_ENTITY: Update entity position (mode=1)
  3: 0x0090 [0x1F] MOVE_ENTITY: EventEntity moves to X=-41.583*, Z=-55.304*, Y=-4.000*
  4: 0x0098 [0x1F] MOVE_ENTITY: Update entity position (mode=1)
  5: 0x009A [0x00] END_REQSTACK()
```

#### Data or dead code:

```
# Dead code (unreachable instructions):
     0x009B [0x3B] GET_ENTITY_POSITION(entity=EventEntity, x_destination=ExtData[1]->WorkLocal[1], y_destination=ExtData[1]->WorkLocal[2], z_destination=ExtData[1]->WorkLocal[3])
     0x00A6 [0x3A] CONVERT_YAW_TO_BYTE(entity=EventEntity, result_destination=ExtData[1]->WorkLocal[4])
     0x00AD [0x17] ExtData[1]->WorkLocal[5] = cos(ExtData[1]->WorkLocal[4]) * ExtData[1]->WorkLocal[0]
     0x00B4 [0x16] ExtData[1]->WorkLocal[6] = sin(ExtData[1]->WorkLocal[4]) * ExtData[1]->WorkLocal[0]
     0x00BB [0x07] ExtData[1]->WorkLocal[1] += ExtData[1]->WorkLocal[5]
     0x00C0 [0x07] ExtData[1]->WorkLocal[2] += ExtData[1]->WorkLocal[6]
     0x00C5 [0x1B] RETURN
     0x00C6 [0x17] ExtData[1]->WorkLocal[5] = cos(ExtData[1]->WorkLocal[4]) * ExtData[1]->WorkLocal[0]
     0x00CD [0x16] ExtData[1]->WorkLocal[6] = sin(ExtData[1]->WorkLocal[4]) * ExtData[1]->WorkLocal[0]
     0x00D4 [0x07] ExtData[1]->WorkLocal[1] += ExtData[1]->WorkLocal[5]
     0x00D9 [0x07] ExtData[1]->WorkLocal[2] += ExtData[1]->WorkLocal[6]
     0x00DE [0x1B] RETURN
```

### Event 65535.6

#### Metadata

| Field        | Value    |
|--------------|----------|
| Entrypoint   | 0x00DF   |
| Data Size    | 16 bytes |
| Instructions | 2        |

```
      00 01 02 03 04 05 06 07  08 09 0A 0B 0C 0D 0E 0F
      -- -- -- -- -- -- -- --  -- -- -- -- -- -- -- --
00D0:                                               5B                 [
00E0: 0C 80 F8 FF FF 7F F8 FF  FF 7F 74 6C 62 30 00     ..........tlb0. 
```

#### Opcodes

```
  0: 0x00DF [0x5B] LOAD_EXT_SCHEDULER: Load scheduler "tlb0" with entities [EventEntity, EventEntity], work=420*
  1: 0x00EE [0x00] END_REQSTACK()
```

### Event 65535.7

#### Metadata

| Field        | Value    |
|--------------|----------|
| Entrypoint   | 0x00EF   |
| Data Size    | 29 bytes |
| Instructions | 3        |

```
      00 01 02 03 04 05 06 07  08 09 0A 0B 0C 0D 0E 0F
      -- -- -- -- -- -- -- --  -- -- -- -- -- -- -- --
00E0:                                               5B                 [
00F0: 0C 80 F8 FF FF 7F F8 FF  FF 7F 74 6C 62 31 53 F8  ..........tlb1S.
0100: FF FF 7F F8 FF FF 7F 74  6C 62 31 00              .......tlb1.    
```

#### Opcodes

```
  0: 0x00EF [0x5B] LOAD_EXT_SCHEDULER: Load scheduler "tlb1" with entities [EventEntity, EventEntity], work=420*
  1: 0x00FE [0x53] WAIT_SCHEDULER_TASK: Wait for scheduler "tlb1" with entities [EventEntity, EventEntity]
  2: 0x010B [0x00] END_REQSTACK()
```

### Event 65535.8

#### Metadata

| Field        | Value    |
|--------------|----------|
| Entrypoint   | 0x010C   |
| Data Size    | 16 bytes |
| Instructions | 2        |

```
      00 01 02 03 04 05 06 07  08 09 0A 0B 0C 0D 0E 0F
      -- -- -- -- -- -- -- --  -- -- -- -- -- -- -- --
0100:                                      5B 0C 80 F8              [...
0110: FF FF 7F F8 FF FF 7F 74  6C 61 30 00              .......tla0.    
```

#### Opcodes

```
  0: 0x010C [0x5B] LOAD_EXT_SCHEDULER: Load scheduler "tla0" with entities [EventEntity, EventEntity], work=420*
  1: 0x011B [0x00] END_REQSTACK()
```

### Event 65535.9

#### Metadata

| Field        | Value    |
|--------------|----------|
| Entrypoint   | 0x011C   |
| Data Size    | 29 bytes |
| Instructions | 3        |

```
      00 01 02 03 04 05 06 07  08 09 0A 0B 0C 0D 0E 0F
      -- -- -- -- -- -- -- --  -- -- -- -- -- -- -- --
0110:                                      5B 0C 80 F8              [...
0120: FF FF 7F F8 FF FF 7F 74  6C 61 31 53 F8 FF FF 7F  .......tla1S....
0130: F8 FF FF 7F 74 6C 61 31  00                       ....tla1.       
```

#### Opcodes

```
  0: 0x011C [0x5B] LOAD_EXT_SCHEDULER: Load scheduler "tla1" with entities [EventEntity, EventEntity], work=420*
  1: 0x012B [0x53] WAIT_SCHEDULER_TASK: Wait for scheduler "tla1" with entities [EventEntity, EventEntity]
  2: 0x0138 [0x00] END_REQSTACK()
```

### Event 65535.10

#### Metadata

| Field        | Value    |
|--------------|----------|
| Entrypoint   | 0x0139   |
| Data Size    | 16 bytes |
| Instructions | 2        |

```
      00 01 02 03 04 05 06 07  08 09 0A 0B 0C 0D 0E 0F
      -- -- -- -- -- -- -- --  -- -- -- -- -- -- -- --
0130:                             5B 0C 80 F8 FF FF 7F           [......
0140: F8 FF FF 7F 74 6C 63 30  00                       ....tlc0.       
```

#### Opcodes

```
  0: 0x0139 [0x5B] LOAD_EXT_SCHEDULER: Load scheduler "tlc0" with entities [EventEntity, EventEntity], work=420*
  1: 0x0148 [0x00] END_REQSTACK()
```

### Event 65535.11

#### Metadata

| Field        | Value    |
|--------------|----------|
| Entrypoint   | 0x0149   |
| Data Size    | 19 bytes |
| Instructions | 3        |

```
      00 01 02 03 04 05 06 07  08 09 0A 0B 0C 0D 0E 0F
      -- -- -- -- -- -- -- --  -- -- -- -- -- -- -- --
0140:                             5B 0C 80 F8 FF FF 7F           [......
0150: F8 FF FF 7F 74 6C 63 31  1C 0D 80 00              ....tlc1....    
```

#### Opcodes

```
  0: 0x0149 [0x5B] LOAD_EXT_SCHEDULER: Load scheduler "tlc1" with entities [EventEntity, EventEntity], work=420*
  1: 0x0158 [0x1C] WAIT(60* ticks)
  2: 0x015B [0x00] END_REQSTACK()
```

### Event 65535.12

#### Metadata

| Field        | Value    |
|--------------|----------|
| Entrypoint   | 0x015C   |
| Data Size    | 29 bytes |
| Instructions | 3        |

```
      00 01 02 03 04 05 06 07  08 09 0A 0B 0C 0D 0E 0F
      -- -- -- -- -- -- -- --  -- -- -- -- -- -- -- --
0150:                                      5B 0E 80 F8              [...
0160: FF FF 7F F8 FF FF 7F 68  72 70 32 53 F8 FF FF 7F  .......hrp2S....
0170: F8 FF FF 7F 68 72 70 32  00                       ....hrp2.       
```

#### Opcodes

```
  0: 0x015C [0x5B] LOAD_EXT_SCHEDULER: Load scheduler "hrp2" with entities [EventEntity, EventEntity], work=421*
  1: 0x016B [0x53] WAIT_SCHEDULER_TASK: Wait for scheduler "hrp2" with entities [EventEntity, EventEntity]
  2: 0x0178 [0x00] END_REQSTACK()
```

### Event 65535.13

#### Metadata

| Field        | Value    |
|--------------|----------|
| Entrypoint   | 0x0179   |
| Data Size    | 29 bytes |
| Instructions | 3        |

```
      00 01 02 03 04 05 06 07  08 09 0A 0B 0C 0D 0E 0F
      -- -- -- -- -- -- -- --  -- -- -- -- -- -- -- --
0170:                             5B 0E 80 F8 FF FF 7F           [......
0180: F8 FF FF 7F 68 72 70 33  53 F8 FF FF 7F F8 FF FF  ....hrp3S.......
0190: 7F 68 72 70 33 00                                 .hrp3.          
```

#### Opcodes

```
  0: 0x0179 [0x5B] LOAD_EXT_SCHEDULER: Load scheduler "hrp3" with entities [EventEntity, EventEntity], work=421*
  1: 0x0188 [0x53] WAIT_SCHEDULER_TASK: Wait for scheduler "hrp3" with entities [EventEntity, EventEntity]
  2: 0x0195 [0x00] END_REQSTACK()
```
