# 17727550 - Parcarin

## Common Data

| Field            | Value                     |
|------------------|---------------------------|
| Zone             | Port San d'Oria (ID: 232) |
| Block Size       | 180 bytes                 |
| Total Events     | 3                         |
| References Count | 9                         |

## List of Events

| Event ID              | Entrypoint   |   Size |   Instructions |
|-----------------------|--------------|--------|----------------|
| [65535](#event-65535) | 0x0000       |      1 |              1 |
| [566](#event-566)     | 0x0001       |     43 |             13 |
| [747](#event-747)     | 0x002C       |     70 |             14 |

## DAT References (imed_data)

|   Index | Hex Value   |   Dec Value |
|---------|-------------|-------------|
|       0 | 0x0014      |          20 |
|       1 | 0x1E96      |        7830 |
|       2 | 0x001E      |          30 |
|       3 | 0x1E97      |        7831 |
|       4 | 0x21F2      |        8690 |
|       5 | 0x21F7      |        8695 |
|       6 | 0x003C      |          60 |
|       7 | 0x0015      |          21 |
|       8 | 0x21F8      |        8696 |

## String References

- **7830**: Heard the whispers, have you? The beastmen have a new leader. War is preparing!
- **7831**: Ah, but any horde of beastmen will break upon these walls like water. Long live King Destin!
- **8690**: <Player>'s badge flashes brightly.
- **8695**: I hear the town of Al Zahbi, a strategic location in the west of Aht Urhgan, often finds itself surrounded by invading beastman forces... What feeble defenses they must have in the Near East.
- **8696**: This is what comes of a nation that does not embrace the path of chivalry. Our heroic knights would make short work of any beastman horde, no matter their number! Long live King Destin!

## Events

### Event 65535

#### Metadata

| Field        | Value   |
|--------------|---------|
| Entrypoint   | 0x0000  |
| Data Size    | 1 bytes |
| Instructions | 1       |

```
      00 01 02 03 04 05 06 07  08 09 0A 0B 0C 0D 0E 0F
      -- -- -- -- -- -- -- --  -- -- -- -- -- -- -- --
0000: 00                                                .               
```

#### Opcodes

```
  0: 0x0000 [0x00] END_REQSTACK()
```

### Event 566

#### Metadata

| Field        | Value    |
|--------------|----------|
| Entrypoint   | 0x0001   |
| Data Size    | 43 bytes |
| Instructions | 13       |

```
      00 01 02 03 04 05 06 07  08 09 0A 0B 0C 0D 0E 0F
      -- -- -- -- -- -- -- --  -- -- -- -- -- -- -- --
0000:    1E F0 FF FF 7F 6F 70  66 00 80 F8 FF FF 7F F8   .....opf.......
0010: FF FF 7F 74 6C 6B 30 1D  01 80 23 1C 02 80 1D 03  ...tlk0...#.....
0020: 80 23 5E 69 64 6C 30 1C  02 80 21 00              .#^idl0...!.    
```

#### Opcodes

```
  0: 0x0001 [0x1E] EventEntity looks at LocalPlayer and starts talking
  1: 0x0006 [0x6F] WAIT_FRAME_DELAY: Yield until WaitTime reaches zero
  2: 0x0007 [0x70] WAIT_ENTITY_RENDER_FLAG: Wait while EventEntity->Render.Flags3 bit 2 is set (cancel turn if not)
  3: 0x0008 [0x66] LOAD_EXT_SCHEDULER_MAIN: Load scheduler "tlk0" with entities [EventEntity, EventEntity], work=20*
  4: 0x0017 [0x1D] PRINT_EVENT_MESSAGE(message_id=7830*)
    → "Heard the whispers, have you? The beastmen have a new leader. War is preparing!"
  5: 0x001A [0x23] WAIT_FOR_DIALOG_INTERACTION
  6: 0x001B [0x1C] WAIT(30* ticks)
  7: 0x001E [0x1D] PRINT_EVENT_MESSAGE(message_id=7831*)
    → "Ah, but any horde of beastmen will break upon these walls like water. Long live King Destin!"
  8: 0x0021 [0x23] WAIT_FOR_DIALOG_INTERACTION
  9: 0x0022 [0x5E] EventEntity goes idle (kills current action) (animation: "idl0")
 10: 0x0027 [0x1C] WAIT(30* ticks)
 11: 0x002A [0x21] END_EVENT
 12: 0x002B [0x00] END_REQSTACK()
```

### Event 747

#### Metadata

| Field        | Value    |
|--------------|----------|
| Entrypoint   | 0x002C   |
| Data Size    | 70 bytes |
| Instructions | 14       |

```
      00 01 02 03 04 05 06 07  08 09 0A 0B 0C 0D 0E 0F
      -- -- -- -- -- -- -- --  -- -- -- -- -- -- -- --
0020:                                      42 48 04 80              BH..
0030: 1E F0 FF FF 7F 1C 02 80  66 00 80 F8 FF FF 7F F8  ........f.......
0040: FF FF 7F 74 6C 6B 30 1D  05 80 23 66 00 80 F8 FF  ...tlk0...#f....
0050: FF 7F F8 FF FF 7F 74 6C  6B 31 1C 06 80 66 07 80  ......tlk1...f..
0060: F8 FF FF 7F F8 FF FF 7F  64 69 73 30 1D 08 80 23  ........dis0...#
0070: 21 00                                             !.              
```

#### Opcodes

```
  0: 0x002C [0x42] SET_CLI_EVENT_CANCEL_DATA()
  1: 0x002D [0x48] [System] [8690*]:
    → "<Player>'s badge flashes brightly."
  2: 0x0030 [0x1E] EventEntity looks at LocalPlayer and starts talking
  3: 0x0035 [0x1C] WAIT(30* ticks)
  4: 0x0038 [0x66] LOAD_EXT_SCHEDULER_MAIN: Load scheduler "tlk0" with entities [EventEntity, EventEntity], work=20*
  5: 0x0047 [0x1D] PRINT_EVENT_MESSAGE(message_id=8695*)
    → "I hear the town of Al Zahbi, a strategic location in the west of Aht Urhgan, often finds itself surrounded by invading beastman forces... What feeble defenses they must have in the Near East."
  6: 0x004A [0x23] WAIT_FOR_DIALOG_INTERACTION
  7: 0x004B [0x66] LOAD_EXT_SCHEDULER_MAIN: Load scheduler "tlk1" with entities [EventEntity, EventEntity], work=20*
  8: 0x005A [0x1C] WAIT(60* ticks)
  9: 0x005D [0x66] LOAD_EXT_SCHEDULER_MAIN: Load scheduler "dis0" with entities [EventEntity, EventEntity], work=21*
 10: 0x006C [0x1D] PRINT_EVENT_MESSAGE(message_id=8696*)
    → "This is what comes of a nation that does not embrace the path of chivalry. Our heroic knights would make short work of any beastman horde, no matter their number! Long live King Destin!"
 11: 0x006F [0x23] WAIT_FOR_DIALOG_INTERACTION
 12: 0x0070 [0x21] END_EVENT
 13: 0x0071 [0x00] END_REQSTACK()
```
