# 17727505 - Portaure

## Common Data

| Field            | Value                     |
|------------------|---------------------------|
| Zone             | Port San d'Oria (ID: 232) |
| Block Size       | 756 bytes                 |
| Total Events     | 13                        |
| References Count | 37                        |

## List of Events

| Event ID                 | Entrypoint   |   Size |   Instructions |
|--------------------------|--------------|--------|----------------|
| [65535](#event-65535)    | 0x0000       |      1 |              1 |
| [571](#event-571)        | 0x0001       |     64 |             22 |
| [650](#event-650)        | 0x0041       |     28 |              8 |
| [651](#event-651)        | 0x005D       |    237 |             52 |
| [652](#event-652)        | 0x014A       |     32 |             10 |
| [653](#event-653)        | 0x016A       |     46 |             10 |
| [654](#event-654)        | 0x0198       |     33 |             11 |
| [655](#event-655)        | 0x01B9       |     29 |              9 |
| [17](#event-17)          | 0x01D6       |     12 |              3 |
| [65535.1](#event-655351) | 0x01E2       |     26 |              6 |
| [65535.2](#event-655352) | 0x01FC       |     19 |              3 |
| [65535.3](#event-655353) | 0x020F       |      9 |              3 |
| [745](#event-745)        | 0x0218       |      1 |              1 |

## DAT References (imed_data)

|   Index | Hex Value   |   Dec Value |
|---------|-------------|-------------|
|       0 | 0x0014      |          20 |
|       1 | 0x1E9D      |        7837 |
|       2 | 0x001E      |          30 |
|       3 | 0x1E9E      |        7838 |
|       4 | 0x1E9F      |        7839 |
|       5 | 0x1EA0      |        7840 |
|       6 | 0x1EA1      |        7841 |
|       7 | 0x1EA2      |        7842 |
|       8 | 0x0001      |           1 |
|       9 | 0x1EAA      |        7850 |
|      10 | 0x1EA3      |        7843 |
|      11 | 0x1EA4      |        7844 |
|      12 | 0x0000      |           0 |
|      13 | 0x1EA6      |        7846 |
|      14 | 0x1EA7      |        7847 |
|      15 | 0x1EA8      |        7848 |
|      16 | 0x1EA9      |        7849 |
|      17 | 0x1EAB      |        7851 |
|      18 | 0x1EAC      |        7852 |
|      19 | 0x1EAD      |        7853 |
|      20 | 0x1EAE      |        7854 |
|      21 | 0x1EA5      |        7845 |
|      22 | 0x1EAF      |        7855 |
|      23 | 0x1EB0      |        7856 |
|      24 | 0x1EB1      |        7857 |
|      25 | 0x00C9      |         201 |
|      26 | 0x1EB2      |        7858 |
|      27 | 0x1EB3      |        7859 |
|      28 | 0x1EB4      |        7860 |
|      29 | 0x1190      |        4496 |
|      30 | 0xFFFE8922  |  4294871330 |
|      31 | 0xFFFFF060  |  4294963296 |
|      32 | 0x0462      |        1122 |
|      33 | 0x0028      |          40 |
|      34 | 0x0CE1      |        3297 |
|      35 | 0xFFFE6849  |  4294862921 |
|      36 | 0x003C      |          60 |

## String References

- **7837**: Well, well... A new recruit! I was once an adventurer myself. Mind you, that was a long time ago...
- **7838**: Aye, there hasn't been a war since the beastmen rose twenty years ago. I tried to settle down, and sold off my armor for some city clothes.
- **7839**: But this son of adventurers couldn't give up his heritage for steady work. Not for lack of trying, mind you!
- **7840**: Always got into fights with superiors, or quit at the first hint of boredom. Come to think of it, I've gotten nowhere, have I?
- **7841**: I won't complain, but San d'Oria's days of glory are gone forever.
- **7842**: Our days of glory are gone forever.
- **7843**: A Tenshodo member, are you? Say, if you're interested, I've got something that needs doing. Might be worth a listen, at least.
- **7844**: How about it? [Hear what he has to say./Not now.]
- **7845**: I see, I see. Well, to each [his/her] own. You come back if you change your mind.
- **7846**: That's the spirit! Now to business. I've got something I want you to take to the Tenshodo in Jeuno.
- **7847**: There's a bit of a story behind this one... But nothing that need concern you! You just take it to the Tenshodo for me.
- **7848**: I'd bring it by foot, if I wasn't so sure it'd get broken. Airship's the way to go... But then there's customs to deal with.
- **7849**: You'll get it through, won't you? If they catch you, they'll only confiscate the goods and keep you from flying for a while. No worries! I'll pay good, I will.
- **7850**: All you have to do is deliver some goods by airship to the Tenshodo in Jeuno.
- **7851**: How about it? [Let's do it./I don't think so.]
- **7852**: That's what I like to hear! Just hop on the airship to Jeuno, and make sure this gets to Yin Pocanakhu at the Tenshodo there.
- **7853**: And it might be best to wait until nightfall.
- **7854**: You're doing yourself a disservice, not taking this job, you know. Come back if you change your mind.
- **7855**: Just make the delivery to Yin Pocanakhu at the Tenshodo in Jeuno. Don't worry! If you're caught, they'll just suspend your Jeuno flight privileges a short while.
- **7856**: But if you're still a touch worried, you might consider waiting until nightfall.
- **7857**: You made it! You're a lucky one, then; they always seem to catch me. Oh, and your money, as promised!
- **7858**: Eh, they caught you? Ah, just a stripe of bad luck, that's all. This business is like rolling dice.
- **7859**: Sorry to put you in a fix, eh? But don't let it get you down! There's always next time!
- **7860**: What? Damaged it, did you? Pay attention when I talk to you! Take it on the airship next time!

## Events

### Event 65535

#### Metadata

| Field        | Value   |
|--------------|---------|
| Entrypoint   | 0x0000  |
| Data Size    | 1 bytes |
| Instructions | 1       |

```
      00 01 02 03 04 05 06 07  08 09 0A 0B 0C 0D 0E 0F
      -- -- -- -- -- -- -- --  -- -- -- -- -- -- -- --
0000: 00                                                .               
```

#### Opcodes

```
  0: 0x0000 [0x00] END_REQSTACK()
```

### Event 571

#### Metadata

| Field        | Value    |
|--------------|----------|
| Entrypoint   | 0x0001   |
| Data Size    | 64 bytes |
| Instructions | 22       |

```
      00 01 02 03 04 05 06 07  08 09 0A 0B 0C 0D 0E 0F
      -- -- -- -- -- -- -- --  -- -- -- -- -- -- -- --
0000:    1E F0 FF FF 7F 6F 70  66 00 80 F8 FF FF 7F F8   .....opf.......
0010: FF FF 7F 74 6C 6B 30 1D  01 80 23 1C 02 80 1D 03  ...tlk0...#.....
0020: 80 23 1C 02 80 1D 04 80  23 1C 02 80 1D 05 80 23  .#......#......#
0030: 1C 02 80 1D 06 80 23 5E  69 64 6C 30 1C 02 80 21  ......#^idl0...!
0040: 00                                                .               
```

#### Opcodes

```
  0: 0x0001 [0x1E] EventEntity looks at LocalPlayer and starts talking
  1: 0x0006 [0x6F] WAIT_FRAME_DELAY: Yield until WaitTime reaches zero
  2: 0x0007 [0x70] WAIT_ENTITY_RENDER_FLAG: Wait while EventEntity->Render.Flags3 bit 2 is set (cancel turn if not)
  3: 0x0008 [0x66] LOAD_EXT_SCHEDULER_MAIN: Load scheduler "tlk0" with entities [EventEntity, EventEntity], work=20*
  4: 0x0017 [0x1D] PRINT_EVENT_MESSAGE(message_id=7837*)
    → "Well, well... A new recruit! I was once an adventurer myself. Mind you, that was a long time ago..."
  5: 0x001A [0x23] WAIT_FOR_DIALOG_INTERACTION
  6: 0x001B [0x1C] WAIT(30* ticks)
  7: 0x001E [0x1D] PRINT_EVENT_MESSAGE(message_id=7838*)
    → "Aye, there hasn't been a war since the beastmen rose twenty years ago. I tried to settle down, and sold off my armor for some city clothes."
  8: 0x0021 [0x23] WAIT_FOR_DIALOG_INTERACTION
  9: 0x0022 [0x1C] WAIT(30* ticks)
 10: 0x0025 [0x1D] PRINT_EVENT_MESSAGE(message_id=7839*)
    → "But this son of adventurers couldn't give up his heritage for steady work. Not for lack of trying, mind you!"
 11: 0x0028 [0x23] WAIT_FOR_DIALOG_INTERACTION
 12: 0x0029 [0x1C] WAIT(30* ticks)
 13: 0x002C [0x1D] PRINT_EVENT_MESSAGE(message_id=7840*)
    → "Always got into fights with superiors, or quit at the first hint of boredom. Come to think of it, I've gotten nowhere, have I?"
 14: 0x002F [0x23] WAIT_FOR_DIALOG_INTERACTION
 15: 0x0030 [0x1C] WAIT(30* ticks)
 16: 0x0033 [0x1D] PRINT_EVENT_MESSAGE(message_id=7841*)
    → "I won't complain, but San d'Oria's days of glory are gone forever."
 17: 0x0036 [0x23] WAIT_FOR_DIALOG_INTERACTION
 18: 0x0037 [0x5E] EventEntity goes idle (kills current action) (animation: "idl0")
 19: 0x003C [0x1C] WAIT(30* ticks)
 20: 0x003F [0x21] END_EVENT
 21: 0x0040 [0x00] END_REQSTACK()
```

### Event 650

#### Metadata

| Field        | Value    |
|--------------|----------|
| Entrypoint   | 0x0041   |
| Data Size    | 28 bytes |
| Instructions | 8        |

```
      00 01 02 03 04 05 06 07  08 09 0A 0B 0C 0D 0E 0F
      -- -- -- -- -- -- -- --  -- -- -- -- -- -- -- --
0040:    1E F0 FF FF 7F 6F 70  66 00 80 F8 FF FF 7F F8   .....opf.......
0050: FF FF 7F 74 6C 6B 30 1D  07 80 23 21 00           ...tlk0...#!.   
```

#### Opcodes

```
  0: 0x0041 [0x1E] EventEntity looks at LocalPlayer and starts talking
  1: 0x0046 [0x6F] WAIT_FRAME_DELAY: Yield until WaitTime reaches zero
  2: 0x0047 [0x70] WAIT_ENTITY_RENDER_FLAG: Wait while EventEntity->Render.Flags3 bit 2 is set (cancel turn if not)
  3: 0x0048 [0x66] LOAD_EXT_SCHEDULER_MAIN: Load scheduler "tlk0" with entities [EventEntity, EventEntity], work=20*
  4: 0x0057 [0x1D] PRINT_EVENT_MESSAGE(message_id=7842*)
    → "Our days of glory are gone forever."
  5: 0x005A [0x23] WAIT_FOR_DIALOG_INTERACTION
  6: 0x005B [0x21] END_EVENT
  7: 0x005C [0x00] END_REQSTACK()
```

### Event 651

#### Metadata

| Field        | Value     |
|--------------|-----------|
| Entrypoint   | 0x005D    |
| Data Size    | 237 bytes |
| Instructions | 47        |

```
      00 01 02 03 04 05 06 07  08 09 0A 0B 0C 0D 0E 0F
      -- -- -- -- -- -- -- --  -- -- -- -- -- -- -- --
0050:                                         06 01 10               ...
0060: 03 00 00 02 10 1E F0 FF  FF 7F 6F 70 02 00 00 08  ..........op....
0070: 80 00 8D 00 66 00 80 F8  FF FF 7F F8 FF FF 7F 74  ....f..........t
0080: 6C 6B 30 1D 09 80 23 01  D9 00 01 A5 00 66 00 80  lk0...#......f..
0090: F8 FF FF 7F F8 FF FF 7F  74 6C 6B 30 1D 0A 80 23  ........tlk0...#
00A0: 5E 69 64 6C 30 24 0B 80  08 80 0C 80 25 02 00 10  ^idl0$......%...
00B0: 0C 80 00 2A 01 66 00 80  F8 FF FF 7F F8 FF FF 7F  ...*.f..........
00C0: 74 6C 6B 30 1D 0D 80 23  1D 0E 80 23 1D 0F 80 23  tlk0...#...#...#
00D0: 1D 10 80 23 5E 69 64 6C  30 24 11 80 08 80 0C 80  ...#^idl0$......
00E0: 25 02 00 10 0C 80 00 09  01 42 66 00 80 F8 FF FF  %........Bf.....
00F0: 7F F8 FF FF 7F 74 6C 6B  30 1D 12 80 23 1D 13 80  .....tlk0...#...
0100: 23 03 01 10 08 80 01 27  01 02 00 10 08 80 00 27  #......'.......'
0110: 01 66 00 80 F8 FF FF 7F  F8 FF FF 7F 74 68 6B 31  .f..........thk1
0120: 1D 14 80 23 01 27 01 01  48 01 02 00 10 08 80 00  ...#.'..H.......
0130: 48 01 66 00 80 F8 FF FF  7F F8 FF FF 7F 74 68 6B  H.f..........thk
0140: 31 1D 15 80 23 01 48 01  21 00                    1...#.H.!.      
```

#### Opcodes

```
  0: 0x005D [0x06] Work_Zone[1] = 0
  1: 0x0060 [0x03] ExtData[1]->WorkLocal[0] = Work_Zone[2]
  2: 0x0065 [0x1E] EventEntity looks at LocalPlayer and starts talking
  3: 0x006A [0x6F] WAIT_FRAME_DELAY: Yield until WaitTime reaches zero
  4: 0x006B [0x70] WAIT_ENTITY_RENDER_FLAG: Wait while EventEntity->Render.Flags3 bit 2 is set (cancel turn if not)
  5: 0x006C [0x02] IF !(ExtData[1]->WorkLocal[0] == 1*) GOTO 0x008D
  6: 0x0074 [0x66] LOAD_EXT_SCHEDULER_MAIN: Load scheduler "tlk0" with entities [EventEntity, EventEntity], work=20*
  7: 0x0083 [0x1D] PRINT_EVENT_MESSAGE(message_id=7850*)
    → "All you have to do is deliver some goods by airship to the Tenshodo in Jeuno."
  8: 0x0086 [0x23] WAIT_FOR_DIALOG_INTERACTION
  9: 0x0087 [0x01] GOTO 0x00D9

SUBROUTINE_00A5:
 10: 0x00A5 [0x24] CREATE_DIALOG(message_id=7844*, default_option=1*, option_flags=0*)
    → "How about it? [Hear what he has to say./Not now.]"
 11: 0x00AC [0x25] WAIT_DIALOG_SELECT()
 12: 0x00AD [0x02] IF !(Work_Zone[0] == 0*) GOTO 0x012A
 13: 0x00B5 [0x66] LOAD_EXT_SCHEDULER_MAIN: Load scheduler "tlk0" with entities [EventEntity, EventEntity], work=20*
 14: 0x00C4 [0x1D] PRINT_EVENT_MESSAGE(message_id=7846*)
    → "That's the spirit! Now to business. I've got something I want you to take to the Tenshodo in Jeuno."
 15: 0x00C7 [0x23] WAIT_FOR_DIALOG_INTERACTION
 16: 0x00C8 [0x1D] PRINT_EVENT_MESSAGE(message_id=7847*)
    → "There's a bit of a story behind this one... But nothing that need concern you! You just take it to the Tenshodo for me."
 17: 0x00CB [0x23] WAIT_FOR_DIALOG_INTERACTION
 18: 0x00CC [0x1D] PRINT_EVENT_MESSAGE(message_id=7848*)
    → "I'd bring it by foot, if I wasn't so sure it'd get broken. Airship's the way to go... But then there's customs to deal with."
 19: 0x00CF [0x23] WAIT_FOR_DIALOG_INTERACTION
 20: 0x00D0 [0x1D] PRINT_EVENT_MESSAGE(message_id=7849*)
    → "You'll get it through, won't you? If they catch you, they'll only confiscate the goods and keep you from flying for a while. No worries! I'll pay good, I will."
 21: 0x00D3 [0x23] WAIT_FOR_DIALOG_INTERACTION
 22: 0x00D4 [0x5E] EventEntity goes idle (kills current action) (animation: "idl0")

SUBROUTINE_00D9:
 23: 0x00D9 [0x24] CREATE_DIALOG(message_id=7851*, default_option=1*, option_flags=0*)
    → "How about it? [Let's do it./I don't think so.]"
 24: 0x00E0 [0x25] WAIT_DIALOG_SELECT()
 25: 0x00E1 [0x02] IF !(Work_Zone[0] == 0*) GOTO 0x0109
 26: 0x00E9 [0x42] SET_CLI_EVENT_CANCEL_DATA()
 27: 0x00EA [0x66] LOAD_EXT_SCHEDULER_MAIN: Load scheduler "tlk0" with entities [EventEntity, EventEntity], work=20*
 28: 0x00F9 [0x1D] PRINT_EVENT_MESSAGE(message_id=7852*)
    → "That's what I like to hear! Just hop on the airship to Jeuno, and make sure this gets to Yin Pocanakhu at the Tenshodo there."
 29: 0x00FC [0x23] WAIT_FOR_DIALOG_INTERACTION
 30: 0x00FD [0x1D] PRINT_EVENT_MESSAGE(message_id=7853*)
    → "And it might be best to wait until nightfall."
 31: 0x0100 [0x23] WAIT_FOR_DIALOG_INTERACTION
 32: 0x0101 [0x03] Work_Zone[1] = 1*
 33: 0x0106 [0x01] GOTO 0x0127
 34: 0x0109 [0x02] IF !(Work_Zone[0] == 1*) GOTO 0x0127
 35: 0x0111 [0x66] LOAD_EXT_SCHEDULER_MAIN: Load scheduler "thk1" with entities [EventEntity, EventEntity], work=20*
 36: 0x0120 [0x1D] PRINT_EVENT_MESSAGE(message_id=7854*)
    → "You're doing yourself a disservice, not taking this job, you know. Come back if you change your mind."
 37: 0x0123 [0x23] WAIT_FOR_DIALOG_INTERACTION
 38: 0x0124 [0x01] GOTO 0x0127

SUBROUTINE_0127:
 39: 0x0127 [0x01] GOTO 0x0148
 40: 0x012A [0x02] IF !(Work_Zone[0] == 1*) GOTO 0x0148
 41: 0x0132 [0x66] LOAD_EXT_SCHEDULER_MAIN: Load scheduler "thk1" with entities [EventEntity, EventEntity], work=20*
 42: 0x0141 [0x1D] PRINT_EVENT_MESSAGE(message_id=7845*)
    → "I see, I see. Well, to each [his/her] own. You come back if you change your mind."
 43: 0x0144 [0x23] WAIT_FOR_DIALOG_INTERACTION
 44: 0x0145 [0x01] GOTO 0x0148

SUBROUTINE_0148:
 45: 0x0148 [0x21] END_EVENT
 46: 0x0149 [0x00] END_REQSTACK()
```

#### Data or dead code:

```
# Dead code (unreachable instructions):
     0x008A [0x01] GOTO 0x00A5
```

### Event 652

#### Metadata

| Field        | Value    |
|--------------|----------|
| Entrypoint   | 0x014A   |
| Data Size    | 32 bytes |
| Instructions | 10       |

```
      00 01 02 03 04 05 06 07  08 09 0A 0B 0C 0D 0E 0F
      -- -- -- -- -- -- -- --  -- -- -- -- -- -- -- --
0140:                                1E F0 FF FF 7F 6F            .....o
0150: 70 66 00 80 F8 FF FF 7F  F8 FF FF 7F 74 6C 6B 30  pf..........tlk0
0160: 1D 16 80 23 1D 17 80 23  21 00                    ...#...#!.      
```

#### Opcodes

```
  0: 0x014A [0x1E] EventEntity looks at LocalPlayer and starts talking
  1: 0x014F [0x6F] WAIT_FRAME_DELAY: Yield until WaitTime reaches zero
  2: 0x0150 [0x70] WAIT_ENTITY_RENDER_FLAG: Wait while EventEntity->Render.Flags3 bit 2 is set (cancel turn if not)
  3: 0x0151 [0x66] LOAD_EXT_SCHEDULER_MAIN: Load scheduler "tlk0" with entities [EventEntity, EventEntity], work=20*
  4: 0x0160 [0x1D] PRINT_EVENT_MESSAGE(message_id=7855*)
    → "Just make the delivery to Yin Pocanakhu at the Tenshodo in Jeuno. Don't worry! If you're caught, they'll just suspend your Jeuno flight privileges a short while."
  5: 0x0163 [0x23] WAIT_FOR_DIALOG_INTERACTION
  6: 0x0164 [0x1D] PRINT_EVENT_MESSAGE(message_id=7856*)
    → "But if you're still a touch worried, you might consider waiting until nightfall."
  7: 0x0167 [0x23] WAIT_FOR_DIALOG_INTERACTION
  8: 0x0168 [0x21] END_EVENT
  9: 0x0169 [0x00] END_REQSTACK()
```

### Event 653

#### Metadata

| Field        | Value    |
|--------------|----------|
| Entrypoint   | 0x016A   |
| Data Size    | 46 bytes |
| Instructions | 10       |

```
      00 01 02 03 04 05 06 07  08 09 0A 0B 0C 0D 0E 0F
      -- -- -- -- -- -- -- --  -- -- -- -- -- -- -- --
0160:                                42 1E F0 FF FF 7F            B.....
0170: 6F 70 66 00 80 F8 FF FF  7F F8 FF FF 7F 74 6C 6B  opf..........tlk
0180: 30 1D 18 80 23 45 19 80  F0 FF FF 7F F0 FF FF 7F  0...#E..........
0190: 71 73 74 63 0C 80 21 00                           qstc..!.        
```

#### Opcodes

```
  0: 0x016A [0x42] SET_CLI_EVENT_CANCEL_DATA()
  1: 0x016B [0x1E] EventEntity looks at LocalPlayer and starts talking
  2: 0x0170 [0x6F] WAIT_FRAME_DELAY: Yield until WaitTime reaches zero
  3: 0x0171 [0x70] WAIT_ENTITY_RENDER_FLAG: Wait while EventEntity->Render.Flags3 bit 2 is set (cancel turn if not)
  4: 0x0172 [0x66] LOAD_EXT_SCHEDULER_MAIN: Load scheduler "tlk0" with entities [EventEntity, EventEntity], work=20*
  5: 0x0181 [0x1D] PRINT_EVENT_MESSAGE(message_id=7857*)
    → "You made it! You're a lucky one, then; they always seem to catch me. Oh, and your money, as promised!"
  6: 0x0184 [0x23] WAIT_FOR_DIALOG_INTERACTION
  7: 0x0185 [0x45] LOAD_SCHEDULED_TASK: Load scheduler "qstc" with entities [LocalPlayer, LocalPlayer], work=[201*, 0*]
  8: 0x0196 [0x21] END_EVENT
  9: 0x0197 [0x00] END_REQSTACK()
```

### Event 654

#### Metadata

| Field        | Value    |
|--------------|----------|
| Entrypoint   | 0x0198   |
| Data Size    | 33 bytes |
| Instructions | 11       |

```
      00 01 02 03 04 05 06 07  08 09 0A 0B 0C 0D 0E 0F
      -- -- -- -- -- -- -- --  -- -- -- -- -- -- -- --
0190:                          42 1E F0 FF FF 7F 6F 70          B.....op
01A0: 66 00 80 F8 FF FF 7F F8  FF FF 7F 74 6C 6B 30 1D  f..........tlk0.
01B0: 1A 80 23 1D 1B 80 23 21  00                       ..#...#!.       
```

#### Opcodes

```
  0: 0x0198 [0x42] SET_CLI_EVENT_CANCEL_DATA()
  1: 0x0199 [0x1E] EventEntity looks at LocalPlayer and starts talking
  2: 0x019E [0x6F] WAIT_FRAME_DELAY: Yield until WaitTime reaches zero
  3: 0x019F [0x70] WAIT_ENTITY_RENDER_FLAG: Wait while EventEntity->Render.Flags3 bit 2 is set (cancel turn if not)
  4: 0x01A0 [0x66] LOAD_EXT_SCHEDULER_MAIN: Load scheduler "tlk0" with entities [EventEntity, EventEntity], work=20*
  5: 0x01AF [0x1D] PRINT_EVENT_MESSAGE(message_id=7858*)
    → "Eh, they caught you? Ah, just a stripe of bad luck, that's all. This business is like rolling dice."
  6: 0x01B2 [0x23] WAIT_FOR_DIALOG_INTERACTION
  7: 0x01B3 [0x1D] PRINT_EVENT_MESSAGE(message_id=7859*)
    → "Sorry to put you in a fix, eh? But don't let it get you down! There's always next time!"
  8: 0x01B6 [0x23] WAIT_FOR_DIALOG_INTERACTION
  9: 0x01B7 [0x21] END_EVENT
 10: 0x01B8 [0x00] END_REQSTACK()
```

### Event 655

#### Metadata

| Field        | Value    |
|--------------|----------|
| Entrypoint   | 0x01B9   |
| Data Size    | 29 bytes |
| Instructions | 9        |

```
      00 01 02 03 04 05 06 07  08 09 0A 0B 0C 0D 0E 0F
      -- -- -- -- -- -- -- --  -- -- -- -- -- -- -- --
01B0:                             42 1E F0 FF FF 7F 6F           B.....o
01C0: 70 66 00 80 F8 FF FF 7F  F8 FF FF 7F 74 6C 6B 30  pf..........tlk0
01D0: 1D 1C 80 23 21 00                                 ...#!.          
```

#### Opcodes

```
  0: 0x01B9 [0x42] SET_CLI_EVENT_CANCEL_DATA()
  1: 0x01BA [0x1E] EventEntity looks at LocalPlayer and starts talking
  2: 0x01BF [0x6F] WAIT_FRAME_DELAY: Yield until WaitTime reaches zero
  3: 0x01C0 [0x70] WAIT_ENTITY_RENDER_FLAG: Wait while EventEntity->Render.Flags3 bit 2 is set (cancel turn if not)
  4: 0x01C1 [0x66] LOAD_EXT_SCHEDULER_MAIN: Load scheduler "tlk0" with entities [EventEntity, EventEntity], work=20*
  5: 0x01D0 [0x1D] PRINT_EVENT_MESSAGE(message_id=7860*)
    → "What? Damaged it, did you? Pay attention when I talk to you! Take it on the airship next time!"
  6: 0x01D3 [0x23] WAIT_FOR_DIALOG_INTERACTION
  7: 0x01D4 [0x21] END_EVENT
  8: 0x01D5 [0x00] END_REQSTACK()
```

### Event 17

#### Metadata

| Field        | Value    |
|--------------|----------|
| Entrypoint   | 0x01D6   |
| Data Size    | 12 bytes |
| Instructions | 3        |

```
      00 01 02 03 04 05 06 07  08 09 0A 0B 0C 0D 0E 0F
      -- -- -- -- -- -- -- --  -- -- -- -- -- -- -- --
01D0:                   22 01  37 1D 80 1E 80 1F 80 20        ".7...... 
01E0: 80 00                                             ..              
```

#### Opcodes

```
  0: 0x01D6 [0x22] ENTITY_HIDE_FLAG(enabled=0x01)
  1: 0x01D8 [0x37] UPDATE_EVENT_POSITION_AND_DIR: x=4.496*, z=-95.966*, y=-4.000*, direction=98.6°*
  2: 0x01E1 [0x00] END_REQSTACK()
```

### Event 65535.1

#### Metadata

| Field        | Value    |
|--------------|----------|
| Entrypoint   | 0x01E2   |
| Data Size    | 26 bytes |
| Instructions | 6        |

```
      00 01 02 03 04 05 06 07  08 09 0A 0B 0C 0D 0E 0F
      -- -- -- -- -- -- -- --  -- -- -- -- -- -- -- --
01E0:       22 00 32 21 80 1F  00 22 80 23 80 1F 80 1F    ".2!...".#....
01F0: 01 79 00 F8 FF FF 7F 49  80 0E 01 00              .y.....I....    
```

#### Opcodes

```
  0: 0x01E2 [0x22] ENTITY_HIDE_FLAG(enabled=0x00)
  1: 0x01E4 [0x32] ExtData[1]->MainSpeed = 40* * 0.1
  2: 0x01E7 [0x1F] MOVE_ENTITY: EventEntity moves to X=3.297*, Z=-104.375*, Y=-4.000*
  3: 0x01EF [0x1F] MOVE_ENTITY: Update entity position (mode=1)
  4: 0x01F1 [0x79] EventEntity looks at Brugaire (ID: 17727561/0x010E8049) (Basic look)
  5: 0x01FB [0x00] END_REQSTACK()
```

### Event 65535.2

#### Metadata

| Field        | Value    |
|--------------|----------|
| Entrypoint   | 0x01FC   |
| Data Size    | 19 bytes |
| Instructions | 3        |

```
      00 01 02 03 04 05 06 07  08 09 0A 0B 0C 0D 0E 0F
      -- -- -- -- -- -- -- --  -- -- -- -- -- -- -- --
01F0:                                      66 00 80 F8              f...
0200: FF FF 7F F8 FF FF 7F 74  6C 6B 30 1C 24 80 00     .......tlk0.$.. 
```

#### Opcodes

```
  0: 0x01FC [0x66] LOAD_EXT_SCHEDULER_MAIN: Load scheduler "tlk0" with entities [EventEntity, EventEntity], work=20*
  1: 0x020B [0x1C] WAIT(60* ticks)
  2: 0x020E [0x00] END_REQSTACK()
```

### Event 65535.3

#### Metadata

| Field        | Value   |
|--------------|---------|
| Entrypoint   | 0x020F  |
| Data Size    | 9 bytes |
| Instructions | 3       |

```
      00 01 02 03 04 05 06 07  08 09 0A 0B 0C 0D 0E 0F
      -- -- -- -- -- -- -- --  -- -- -- -- -- -- -- --
0200:                                               5E                 ^
0210: 69 64 6C 30 1C 24 80 00                           idl0.$..        
```

#### Opcodes

```
  0: 0x020F [0x5E] EventEntity goes idle (kills current action) (animation: "idl0")
  1: 0x0214 [0x1C] WAIT(60* ticks)
  2: 0x0217 [0x00] END_REQSTACK()
```

### Event 745

#### Metadata

| Field        | Value   |
|--------------|---------|
| Entrypoint   | 0x0218  |
| Data Size    | 1 bytes |
| Instructions | 1       |

```
      00 01 02 03 04 05 06 07  08 09 0A 0B 0C 0D 0E 0F
      -- -- -- -- -- -- -- --  -- -- -- -- -- -- -- --
0210:                          00                               .       
```

#### Opcodes

```
  0: 0x0218 [0x00] END_REQSTACK()
```
