# 17727561 - Brugaire

## Common Data

| Field            | Value                     |
|------------------|---------------------------|
| Zone             | Port San d'Oria (ID: 232) |
| Block Size       | 1072 bytes                |
| Total Events     | 32                        |
| References Count | 73                        |

## List of Events

| Event ID                   | Entrypoint   |   Size |   Instructions |
|----------------------------|--------------|--------|----------------|
| [65535](#event-65535)      | 0x0000       |      1 |              1 |
| [18](#event-18)            | 0x0001       |     10 |              2 |
| [17](#event-17)            | 0x000B       |     13 |              3 |
| [7](#event-7)              | 0x0018       |     10 |              2 |
| [15](#event-15)            | 0x0022       |     10 |              2 |
| [19](#event-19)            | 0x002C       |     10 |              2 |
| [22](#event-22)            | 0x0036       |     13 |              3 |
| [65535.1](#event-655351)   | 0x0043       |     15 |              5 |
| [65535.2](#event-655352)   | 0x0052       |     17 |              5 |
| [65535.3](#event-655353)   | 0x0063       |     19 |              7 |
| [65535.4](#event-655354)   | 0x0076       |     37 |              8 |
| [65535.5](#event-655355)   | 0x009B       |     19 |              7 |
| [65535.6](#event-655356)   | 0x00AE       |     12 |              4 |
| [65535.7](#event-655357)   | 0x00BA       |     18 |              6 |
| [65535.8](#event-655358)   | 0x00CC       |     47 |             12 |
| [65535.9](#event-655359)   | 0x00FB       |     45 |             10 |
| [65535.10](#event-6553510) | 0x0128       |     20 |              6 |
| [65535.11](#event-6553511) | 0x013C       |     12 |              4 |
| [65535.12](#event-6553512) | 0x0148       |     13 |              3 |
| [65535.13](#event-6553513) | 0x0155       |     31 |              7 |
| [65535.14](#event-6553514) | 0x0174       |     12 |              4 |
| [65535.15](#event-6553515) | 0x0180       |     17 |              5 |
| [65535.16](#event-6553516) | 0x0191       |     12 |              4 |
| [65535.17](#event-6553517) | 0x019D       |     20 |              4 |
| [65535.18](#event-6553518) | 0x01B1       |     31 |              8 |
| [65535.19](#event-6553519) | 0x01D0       |     32 |             10 |
| [65535.20](#event-6553520) | 0x01F0       |     19 |              3 |
| [65535.21](#event-6553521) | 0x0203       |      9 |              3 |
| [65535.22](#event-6553522) | 0x020C       |     19 |              3 |
| [65535.23](#event-6553523) | 0x021F       |     32 |              4 |
| [65535.24](#event-6553524) | 0x023F       |     29 |              3 |
| [65535.25](#event-6553525) | 0x025C       |     29 |              3 |

## DAT References (imed_data)

|   Index | Hex Value   |   Dec Value |
|---------|-------------|-------------|
|       0 | 0x0F80      |        3968 |
|       1 | 0xFFFE0DE5  |  4294839781 |
|       2 | 0xFFFFE0C1  |  4294959297 |
|       3 | 0x0C04      |        3076 |
|       4 | 0x000D      |          13 |
|       5 | 0x171D      |        5917 |
|       6 | 0xFFFE3417  |  4294849559 |
|       7 | 0xFFFFE469  |  4294960233 |
|       8 | 0x0FF6      |        4086 |
|       9 | 0x07BF      |        1983 |
|      10 | 0xFFFE20B3  |  4294844595 |
|      11 | 0x0964      |        2404 |
|      12 | 0x098B      |        2443 |
|      13 | 0xFFFE22C8  |  4294845128 |
|      14 | 0x0845      |        2117 |
|      15 | 0x0F3A      |        3898 |
|      16 | 0xFFFE1D8D  |  4294843789 |
|      17 | 0x02F0      |         752 |
|      18 | 0xFFFE1F9F  |  4294844319 |
|      19 | 0x0172      |         370 |
|      20 | 0xFFFE24AE  |  4294845614 |
|      21 | 0xFFFFE0C0  |  4294959296 |
|      22 | 0x0F8D      |        3981 |
|      23 | 0xFFFE1E71  |  4294844017 |
|      24 | 0x0CCB      |        3275 |
|      25 | 0xFFFE1EB0  |  4294844080 |
|      26 | 0x0197      |         407 |
|      27 | 0xFFFE23EE  |  4294845422 |
|      28 | 0x079D      |        1949 |
|      29 | 0xFFFE2D95  |  4294847893 |
|      30 | 0x0C00      |        3072 |
|      31 | 0x003C      |          60 |
|      32 | 0x2213      |        8723 |
|      33 | 0xFFFE2CEC  |  4294847724 |
|      34 | 0x2197      |        8599 |
|      35 | 0xFFFE3406  |  4294849542 |
|      36 | 0x1E24      |        7716 |
|      37 | 0xFFFE343D  |  4294849597 |
|      38 | 0xFFFFFF69  |  4294967145 |
|      39 | 0xFFFE34D3  |  4294849747 |
|      40 | 0xFFFFF060  |  4294963296 |
|      41 | 0x225E      |        8798 |
|      42 | 0xFFFE342B  |  4294849579 |
|      43 | 0x223E      |        8766 |
|      44 | 0xFFFE2DA0  |  4294847904 |
|      45 | 0x055C      |        1372 |
|      46 | 0xFFFE2722  |  4294846242 |
|      47 | 0x0FD0      |        4048 |
|      48 | 0xFFFE1D2A  |  4294843690 |
|      49 | 0x0F84      |        3972 |
|      50 | 0xFFFE27F5  |  4294846453 |
|      51 | 0x2179      |        8569 |
|      52 | 0xFFFE2C9A  |  4294847642 |
|      53 | 0x00A0      |         160 |
|      54 | 0x0400      |        1024 |
|      55 | 0xFFFE4A6F  |  4294855279 |
|      56 | 0x0B4E      |        2894 |
|      57 | 0x06D9      |        1753 |
|      58 | 0xFFFE616A  |  4294861162 |
|      59 | 0x0106      |         262 |
|      60 | 0x0028      |          40 |
|      61 | 0x065B      |        1627 |
|      62 | 0xFFFE5B52  |  4294859602 |
|      63 | 0x0C09      |        3081 |
|      64 | 0x0F90      |        3984 |
|      65 | 0xFFFE80EA  |  4294869226 |
|      66 | 0x00B4      |         180 |
|      67 | 0x0F5F      |        3935 |
|      68 | 0xFFFE9323  |  4294873891 |
|      69 | 0x015D      |         349 |
|      70 | 0xFFFE2542  |  4294845762 |
|      71 | 0x0014      |          20 |
|      72 | 0x0015      |          21 |

## Events

### Event 65535

#### Metadata

| Field        | Value   |
|--------------|---------|
| Entrypoint   | 0x0000  |
| Data Size    | 1 bytes |
| Instructions | 1       |

```
      00 01 02 03 04 05 06 07  08 09 0A 0B 0C 0D 0E 0F
      -- -- -- -- -- -- -- --  -- -- -- -- -- -- -- --
0000: 00                                                .               
```

#### Opcodes

```
  0: 0x0000 [0x00] END_REQSTACK()
```

### Event 18

#### Metadata

| Field        | Value    |
|--------------|----------|
| Entrypoint   | 0x0001   |
| Data Size    | 10 bytes |
| Instructions | 2        |

```
      00 01 02 03 04 05 06 07  08 09 0A 0B 0C 0D 0E 0F
      -- -- -- -- -- -- -- --  -- -- -- -- -- -- -- --
0000:    37 00 80 01 80 02 80  03 80 00                  7.........     
```

#### Opcodes

```
  0: 0x0001 [0x37] UPDATE_EVENT_POSITION_AND_DIR: x=3.968*, z=-127.515*, y=-7.999*, direction=270.3°*
  1: 0x000A [0x00] END_REQSTACK()
```

### Event 17

#### Metadata

| Field        | Value    |
|--------------|----------|
| Entrypoint   | 0x000B   |
| Data Size    | 13 bytes |
| Instructions | 3        |

```
      00 01 02 03 04 05 06 07  08 09 0A 0B 0C 0D 0E 0F
      -- -- -- -- -- -- -- --  -- -- -- -- -- -- -- --
0000:                                   37 00 80 01 80             7....
0010: 02 80 03 80 32 04 80 00                           ....2...        
```

#### Opcodes

```
  0: 0x000B [0x37] UPDATE_EVENT_POSITION_AND_DIR: x=3.968*, z=-127.515*, y=-7.999*, direction=270.3°*
  1: 0x0014 [0x32] ExtData[1]->MainSpeed = 13* * 0.1
  2: 0x0017 [0x00] END_REQSTACK()
```

### Event 7

#### Metadata

| Field        | Value    |
|--------------|----------|
| Entrypoint   | 0x0018   |
| Data Size    | 10 bytes |
| Instructions | 2        |

```
      00 01 02 03 04 05 06 07  08 09 0A 0B 0C 0D 0E 0F
      -- -- -- -- -- -- -- --  -- -- -- -- -- -- -- --
0010:                          37 05 80 06 80 07 80 08          7.......
0020: 80 00                                             ..              
```

#### Opcodes

```
  0: 0x0018 [0x37] UPDATE_EVENT_POSITION_AND_DIR: x=5.917*, z=-117.737*, y=-7.063*, direction=359.1°*
  1: 0x0021 [0x00] END_REQSTACK()
```

### Event 15

#### Metadata

| Field        | Value    |
|--------------|----------|
| Entrypoint   | 0x0022   |
| Data Size    | 10 bytes |
| Instructions | 2        |

```
      00 01 02 03 04 05 06 07  08 09 0A 0B 0C 0D 0E 0F
      -- -- -- -- -- -- -- --  -- -- -- -- -- -- -- --
0020:       37 09 80 0A 80 02  80 0B 80 00                7.........    
```

#### Opcodes

```
  0: 0x0022 [0x37] UPDATE_EVENT_POSITION_AND_DIR: x=1.983*, z=-122.701*, y=-7.999*, direction=211.3°*
  1: 0x002B [0x00] END_REQSTACK()
```

### Event 19

#### Metadata

| Field        | Value    |
|--------------|----------|
| Entrypoint   | 0x002C   |
| Data Size    | 10 bytes |
| Instructions | 2        |

```
      00 01 02 03 04 05 06 07  08 09 0A 0B 0C 0D 0E 0F
      -- -- -- -- -- -- -- --  -- -- -- -- -- -- -- --
0020:                                      37 0C 80 0D              7...
0030: 80 02 80 0E 80 00                                 ......          
```

#### Opcodes

```
  0: 0x002C [0x37] UPDATE_EVENT_POSITION_AND_DIR: x=2.443*, z=-122.168*, y=-7.999*, direction=186.1°*
  1: 0x0035 [0x00] END_REQSTACK()
```

### Event 22

#### Metadata

| Field        | Value    |
|--------------|----------|
| Entrypoint   | 0x0036   |
| Data Size    | 13 bytes |
| Instructions | 3        |

```
      00 01 02 03 04 05 06 07  08 09 0A 0B 0C 0D 0E 0F
      -- -- -- -- -- -- -- --  -- -- -- -- -- -- -- --
0030:                   37 00  80 01 80 02 80 03 80 32        7........2
0040: 04 80 00                                          ...             
```

#### Opcodes

```
  0: 0x0036 [0x37] UPDATE_EVENT_POSITION_AND_DIR: x=3.968*, z=-127.515*, y=-7.999*, direction=270.3°*
  1: 0x003F [0x32] ExtData[1]->MainSpeed = 13* * 0.1
  2: 0x0042 [0x00] END_REQSTACK()
```

### Event 65535.1

#### Metadata

| Field        | Value    |
|--------------|----------|
| Entrypoint   | 0x0043   |
| Data Size    | 15 bytes |
| Instructions | 5        |

```
      00 01 02 03 04 05 06 07  08 09 0A 0B 0C 0D 0E 0F
      -- -- -- -- -- -- -- --  -- -- -- -- -- -- -- --
0040:          32 04 80 1F 00  0F 80 10 80 02 80 1F 01     2............
0050: 6F 00                                             o.              
```

#### Opcodes

```
  0: 0x0043 [0x32] ExtData[1]->MainSpeed = 13* * 0.1
  1: 0x0046 [0x1F] MOVE_ENTITY: EventEntity moves to X=3.898*, Z=-123.507*, Y=-7.999*
  2: 0x004E [0x1F] MOVE_ENTITY: Update entity position (mode=1)
  3: 0x0050 [0x6F] WAIT_FRAME_DELAY: Yield until WaitTime reaches zero
  4: 0x0051 [0x00] END_REQSTACK()
```

### Event 65535.2

#### Metadata

| Field        | Value    |
|--------------|----------|
| Entrypoint   | 0x0052   |
| Data Size    | 17 bytes |
| Instructions | 5        |

```
      00 01 02 03 04 05 06 07  08 09 0A 0B 0C 0D 0E 0F
      -- -- -- -- -- -- -- --  -- -- -- -- -- -- -- --
0050:       1F 00 11 80 12 80  02 80 1F 01 6F 1E 47 80    ..........o.G.
0060: 0E 01 00                                          ...             
```

#### Opcodes

```
  0: 0x0052 [0x1F] MOVE_ENTITY: EventEntity moves to X=0.752*, Z=-122.977*, Y=-7.999*
  1: 0x005A [0x1F] MOVE_ENTITY: Update entity position (mode=1)
  2: 0x005C [0x6F] WAIT_FRAME_DELAY: Yield until WaitTime reaches zero
  3: 0x005D [0x1E] EventEntity looks at Arminibit (ID: 17727559/0x010E8047) and starts talking
  4: 0x0062 [0x00] END_REQSTACK()
```

### Event 65535.3

#### Metadata

| Field        | Value    |
|--------------|----------|
| Entrypoint   | 0x0063   |
| Data Size    | 19 bytes |
| Instructions | 7        |

```
      00 01 02 03 04 05 06 07  08 09 0A 0B 0C 0D 0E 0F
      -- -- -- -- -- -- -- --  -- -- -- -- -- -- -- --
0060:          1F 00 13 80 14  80 15 80 1F 01 6F 1E 48     ..........o.H
0070: 80 0E 01 6F 70 00                                 ...op.          
```

#### Opcodes

```
  0: 0x0063 [0x1F] MOVE_ENTITY: EventEntity moves to X=0.370*, Z=-121.682*, Y=-8.000*
  1: 0x006B [0x1F] MOVE_ENTITY: Update entity position (mode=1)
  2: 0x006D [0x6F] WAIT_FRAME_DELAY: Yield until WaitTime reaches zero
  3: 0x006E [0x1E] EventEntity looks at Ceraulian (ID: 17727560/0x010E8048) and starts talking
  4: 0x0073 [0x6F] WAIT_FRAME_DELAY: Yield until WaitTime reaches zero
  5: 0x0074 [0x70] WAIT_ENTITY_RENDER_FLAG: Wait while EventEntity->Render.Flags3 bit 2 is set (cancel turn if not)
  6: 0x0075 [0x00] END_REQSTACK()
```

### Event 65535.4

#### Metadata

| Field        | Value    |
|--------------|----------|
| Entrypoint   | 0x0076   |
| Data Size    | 37 bytes |
| Instructions | 8        |

```
      00 01 02 03 04 05 06 07  08 09 0A 0B 0C 0D 0E 0F
      -- -- -- -- -- -- -- --  -- -- -- -- -- -- -- --
0070:                   1F 00  16 80 17 80 02 80 1F 01        ..........
0080: 27 02 64 80 0E 01 06 27  03 64 80 0E 01 08 1F 00  '.d....'.d......
0090: 00 80 01 80 02 80 1F 01  22 01 00                 ........"..     
```

#### Opcodes

```
  0: 0x0076 [0x1F] MOVE_ENTITY: EventEntity moves to X=3.981*, Z=-123.279*, Y=-7.999*
  1: 0x007E [0x1F] MOVE_ENTITY: Update entity position (mode=1)
  2: 0x0080 [0x27] REQ_SET(priority=0x02, entity_id=Door:Cargo Room A (ID: 17727588/0x010E8064), tag_num=0x06)
  3: 0x0087 [0x27] REQ_SET(priority=0x03, entity_id=Door:Cargo Room A (ID: 17727588/0x010E8064), tag_num=0x08)
  4: 0x008E [0x1F] MOVE_ENTITY: EventEntity moves to X=3.968*, Z=-127.515*, Y=-7.999*
  5: 0x0096 [0x1F] MOVE_ENTITY: Update entity position (mode=1)
  6: 0x0098 [0x22] ENTITY_HIDE_FLAG(enabled=0x01)
  7: 0x009A [0x00] END_REQSTACK()
```

### Event 65535.5

#### Metadata

| Field        | Value    |
|--------------|----------|
| Entrypoint   | 0x009B   |
| Data Size    | 19 bytes |
| Instructions | 7        |

```
      00 01 02 03 04 05 06 07  08 09 0A 0B 0C 0D 0E 0F
      -- -- -- -- -- -- -- --  -- -- -- -- -- -- -- --
0090:                                   1F 00 18 80 19             .....
00A0: 80 02 80 1F 01 6F 1E 48  80 0E 01 6F 70 00        .....o.H...op.  
```

#### Opcodes

```
  0: 0x009B [0x1F] MOVE_ENTITY: EventEntity moves to X=3.275*, Z=-123.216*, Y=-7.999*
  1: 0x00A3 [0x1F] MOVE_ENTITY: Update entity position (mode=1)
  2: 0x00A5 [0x6F] WAIT_FRAME_DELAY: Yield until WaitTime reaches zero
  3: 0x00A6 [0x1E] EventEntity looks at Ceraulian (ID: 17727560/0x010E8048) and starts talking
  4: 0x00AB [0x6F] WAIT_FRAME_DELAY: Yield until WaitTime reaches zero
  5: 0x00AC [0x70] WAIT_ENTITY_RENDER_FLAG: Wait while EventEntity->Render.Flags3 bit 2 is set (cancel turn if not)
  6: 0x00AD [0x00] END_REQSTACK()
```

### Event 65535.6

#### Metadata

| Field        | Value    |
|--------------|----------|
| Entrypoint   | 0x00AE   |
| Data Size    | 12 bytes |
| Instructions | 4        |

```
      00 01 02 03 04 05 06 07  08 09 0A 0B 0C 0D 0E 0F
      -- -- -- -- -- -- -- --  -- -- -- -- -- -- -- --
00A0:                                            1F 00                ..
00B0: 1A 80 1B 80 02 80 1F 01  6F 00                    ........o.      
```

#### Opcodes

```
  0: 0x00AE [0x1F] MOVE_ENTITY: EventEntity moves to X=0.407*, Z=-121.874*, Y=-7.999*
  1: 0x00B6 [0x1F] MOVE_ENTITY: Update entity position (mode=1)
  2: 0x00B8 [0x6F] WAIT_FRAME_DELAY: Yield until WaitTime reaches zero
  3: 0x00B9 [0x00] END_REQSTACK()
```

### Event 65535.7

#### Metadata

| Field        | Value    |
|--------------|----------|
| Entrypoint   | 0x00BA   |
| Data Size    | 18 bytes |
| Instructions | 6        |

```
      00 01 02 03 04 05 06 07  08 09 0A 0B 0C 0D 0E 0F
      -- -- -- -- -- -- -- --  -- -- -- -- -- -- -- --
00B0:                                1F 00 1C 80 1D 80            ......
00C0: 02 80 1F 01 6F 39 1E 80  1C 1F 80 00              ....o9......    
```

#### Opcodes

```
  0: 0x00BA [0x1F] MOVE_ENTITY: EventEntity moves to X=1.949*, Z=-119.403*, Y=-7.999*
  1: 0x00C2 [0x1F] MOVE_ENTITY: Update entity position (mode=1)
  2: 0x00C4 [0x6F] WAIT_FRAME_DELAY: Yield until WaitTime reaches zero
  3: 0x00C5 [0x39] SET_ENTITY_DIRECTION(direction=16.9°*)
  4: 0x00C8 [0x1C] WAIT(60* ticks)
  5: 0x00CB [0x00] END_REQSTACK()
```

### Event 65535.8

#### Metadata

| Field        | Value    |
|--------------|----------|
| Entrypoint   | 0x00CC   |
| Data Size    | 47 bytes |
| Instructions | 12       |

```
      00 01 02 03 04 05 06 07  08 09 0A 0B 0C 0D 0E 0F
      -- -- -- -- -- -- -- --  -- -- -- -- -- -- -- --
00C0:                                      1F 00 20 80              .. .
00D0: 21 80 02 80 1F 01 1F 00  22 80 23 80 02 80 1F 01  !.......".#.....
00E0: 1F 00 24 80 25 80 15 80  1F 01 33 01 5A 00 26 80  ..$.%.....3.Z.&.
00F0: 27 80 28 80 5A 01 22 01  33 00 00                 '.(.Z.".3..     
```

#### Opcodes

```
  0: 0x00CC [0x1F] MOVE_ENTITY: EventEntity moves to X=8.723*, Z=-119.572*, Y=-7.999*
  1: 0x00D4 [0x1F] MOVE_ENTITY: Update entity position (mode=1)
  2: 0x00D6 [0x1F] MOVE_ENTITY: EventEntity moves to X=8.599*, Z=-117.754*, Y=-7.999*
  3: 0x00DE [0x1F] MOVE_ENTITY: Update entity position (mode=1)
  4: 0x00E0 [0x1F] MOVE_ENTITY: EventEntity moves to X=7.716*, Z=-117.699*, Y=-8.000*
  5: 0x00E8 [0x1F] MOVE_ENTITY: Update entity position (mode=1)
  6: 0x00EA [0x33] EventEntity->Render.Flags0 |= 0x200000 // Bit 21 (flag=0x01)
  7: 0x00EC [0x5A] UPDATE_EVENT_POSITION: Set EventEntity MovePosition to X=-0.151*, Z=-117.549*, Y=-4.000*
  8: 0x00F4 [0x5A] UPDATE_EVENT_POSITION: Move EventEntity incrementally towards MovePosition
  9: 0x00F6 [0x22] ENTITY_HIDE_FLAG(enabled=0x01)
 10: 0x00F8 [0x33] EventEntity->Render.Flags0 &= ~ 0x200000 // Bit 21 (flag=0x00)
 11: 0x00FA [0x00] END_REQSTACK()
```

### Event 65535.9

#### Metadata

| Field        | Value    |
|--------------|----------|
| Entrypoint   | 0x00FB   |
| Data Size    | 45 bytes |
| Instructions | 10       |

```
      00 01 02 03 04 05 06 07  08 09 0A 0B 0C 0D 0E 0F
      -- -- -- -- -- -- -- --  -- -- -- -- -- -- -- --
00F0:                                   22 00 32 04 80             ".2..
0100: 1F 00 29 80 2A 80 15 80  1F 01 4A F0 FF FF 7F 49  ..).*.....J....I
0110: 80 0E 01 1F 00 2B 80 2C  80 15 80 1F 01 1F 00 2D  .....+.,.......-
0120: 80 2E 80 15 80 1F 01 00                           ........        
```

#### Opcodes

```
  0: 0x00FB [0x22] ENTITY_HIDE_FLAG(enabled=0x00)
  1: 0x00FD [0x32] ExtData[1]->MainSpeed = 13* * 0.1
  2: 0x0100 [0x1F] MOVE_ENTITY: EventEntity moves to X=8.798*, Z=-117.717*, Y=-8.000*
  3: 0x0108 [0x1F] MOVE_ENTITY: Update entity position (mode=1)
  4: 0x010A [0x4A] LocalPlayer looks at Brugaire (ID: 17727561/0x010E8049)
  5: 0x0113 [0x1F] MOVE_ENTITY: EventEntity moves to X=8.766*, Z=-119.392*, Y=-8.000*
  6: 0x011B [0x1F] MOVE_ENTITY: Update entity position (mode=1)
  7: 0x011D [0x1F] MOVE_ENTITY: EventEntity moves to X=1.372*, Z=-121.054*, Y=-8.000*
  8: 0x0125 [0x1F] MOVE_ENTITY: Update entity position (mode=1)
  9: 0x0127 [0x00] END_REQSTACK()
```

### Event 65535.10

#### Metadata

| Field        | Value    |
|--------------|----------|
| Entrypoint   | 0x0128   |
| Data Size    | 20 bytes |
| Instructions | 6        |

```
      00 01 02 03 04 05 06 07  08 09 0A 0B 0C 0D 0E 0F
      -- -- -- -- -- -- -- --  -- -- -- -- -- -- -- --
0120:                          32 04 80 1F 00 2F 80 30          2..../.0
0130: 80 15 80 1F 01 6F 1E 4B  80 0E 01 00              .....o.K....    
```

#### Opcodes

```
  0: 0x0128 [0x32] ExtData[1]->MainSpeed = 13* * 0.1
  1: 0x012B [0x1F] MOVE_ENTITY: EventEntity moves to X=4.048*, Z=-123.606*, Y=-8.000*
  2: 0x0133 [0x1F] MOVE_ENTITY: Update entity position (mode=1)
  3: 0x0135 [0x6F] WAIT_FRAME_DELAY: Yield until WaitTime reaches zero
  4: 0x0136 [0x1E] EventEntity looks at Rahal (ID: 17727563/0x010E804B) and starts talking
  5: 0x013B [0x00] END_REQSTACK()
```

### Event 65535.11

#### Metadata

| Field        | Value    |
|--------------|----------|
| Entrypoint   | 0x013C   |
| Data Size    | 12 bytes |
| Instructions | 4        |

```
      00 01 02 03 04 05 06 07  08 09 0A 0B 0C 0D 0E 0F
      -- -- -- -- -- -- -- --  -- -- -- -- -- -- -- --
0130:                                      1F 00 31 80              ..1.
0140: 32 80 02 80 1F 01 6F 00                           2.....o.        
```

#### Opcodes

```
  0: 0x013C [0x1F] MOVE_ENTITY: EventEntity moves to X=3.972*, Z=-120.843*, Y=-7.999*
  1: 0x0144 [0x1F] MOVE_ENTITY: Update entity position (mode=1)
  2: 0x0146 [0x6F] WAIT_FRAME_DELAY: Yield until WaitTime reaches zero
  3: 0x0147 [0x00] END_REQSTACK()
```

### Event 65535.12

#### Metadata

| Field        | Value    |
|--------------|----------|
| Entrypoint   | 0x0148   |
| Data Size    | 13 bytes |
| Instructions | 3        |

```
      00 01 02 03 04 05 06 07  08 09 0A 0B 0C 0D 0E 0F
      -- -- -- -- -- -- -- --  -- -- -- -- -- -- -- --
0140:                          31 00 33 80 34 80 15 80          1.3.4...
0150: 35 80 31 01 00                                    5.1..           
```

#### Opcodes

```
  0: 0x0148 [0x31] UPDATE_ENTITY_POSITION: Set EventEntity goal position to X=8.569*, Z=-119.654*, Y=-8.000*, Time=160*
  1: 0x0152 [0x31] UPDATE_ENTITY_POSITION: Move EventEntity towards goal position
  2: 0x0154 [0x00] END_REQSTACK()
```

### Event 65535.13

#### Metadata

| Field        | Value    |
|--------------|----------|
| Entrypoint   | 0x0155   |
| Data Size    | 31 bytes |
| Instructions | 7        |

```
      00 01 02 03 04 05 06 07  08 09 0A 0B 0C 0D 0E 0F
      -- -- -- -- -- -- -- --  -- -- -- -- -- -- -- --
0150:                5E 69 64  6C 30 37 36 80 37 80 28       ^idl076.7.(
0160: 80 38 80 1F 00 39 80 3A  80 28 80 1F 01 6F 1E 4A  .8...9.:.(...o.J
0170: 80 0E 01 00                                       ....            
```

#### Opcodes

```
  0: 0x0155 [0x5E] EventEntity goes idle (kills current action) (animation: "idl0")
  1: 0x015A [0x37] UPDATE_EVENT_POSITION_AND_DIR: x=1.024*, z=-112.017*, y=-4.000*, direction=254.3°*
  2: 0x0163 [0x1F] MOVE_ENTITY: EventEntity moves to X=1.753*, Z=-106.134*, Y=-4.000*
  3: 0x016B [0x1F] MOVE_ENTITY: Update entity position (mode=1)
  4: 0x016D [0x6F] WAIT_FRAME_DELAY: Yield until WaitTime reaches zero
  5: 0x016E [0x1E] EventEntity looks at Felippe (ID: 17727562/0x010E804A) and starts talking
  6: 0x0173 [0x00] END_REQSTACK()
```

### Event 65535.14

#### Metadata

| Field        | Value    |
|--------------|----------|
| Entrypoint   | 0x0174   |
| Data Size    | 12 bytes |
| Instructions | 4        |

```
      00 01 02 03 04 05 06 07  08 09 0A 0B 0C 0D 0E 0F
      -- -- -- -- -- -- -- --  -- -- -- -- -- -- -- --
0170:             7B F8 FF FF  7F 39 3B 80 1C 3C 80 00      {....9;..<..
```

#### Opcodes

```
  0: 0x0174 [0x7B] EventEntity stops talking
  1: 0x0179 [0x39] SET_ENTITY_DIRECTION(direction=1.4°*)
  2: 0x017C [0x1C] WAIT(40* ticks)
  3: 0x017F [0x00] END_REQSTACK()
```

### Event 65535.15

#### Metadata

| Field        | Value    |
|--------------|----------|
| Entrypoint   | 0x0180   |
| Data Size    | 17 bytes |
| Instructions | 5        |

```
      00 01 02 03 04 05 06 07  08 09 0A 0B 0C 0D 0E 0F
      -- -- -- -- -- -- -- --  -- -- -- -- -- -- -- --
0180: 1F 00 3D 80 3E 80 28 80  1F 01 6F 1E F0 FF FF 7F  ..=.>.(...o.....
0190: 00                                                .               
```

#### Opcodes

```
  0: 0x0180 [0x1F] MOVE_ENTITY: EventEntity moves to X=1.627*, Z=-107.694*, Y=-4.000*
  1: 0x0188 [0x1F] MOVE_ENTITY: Update entity position (mode=1)
  2: 0x018A [0x6F] WAIT_FRAME_DELAY: Yield until WaitTime reaches zero
  3: 0x018B [0x1E] EventEntity looks at LocalPlayer and starts talking
  4: 0x0190 [0x00] END_REQSTACK()
```

### Event 65535.16

#### Metadata

| Field        | Value    |
|--------------|----------|
| Entrypoint   | 0x0191   |
| Data Size    | 12 bytes |
| Instructions | 4        |

```
      00 01 02 03 04 05 06 07  08 09 0A 0B 0C 0D 0E 0F
      -- -- -- -- -- -- -- --  -- -- -- -- -- -- -- --
0190:    7B F8 FF FF 7F 39 3F  80 1C 1F 80 00            {....9?.....   
```

#### Opcodes

```
  0: 0x0191 [0x7B] EventEntity stops talking
  1: 0x0196 [0x39] SET_ENTITY_DIRECTION(direction=16.9°*)
  2: 0x0199 [0x1C] WAIT(60* ticks)
  3: 0x019C [0x00] END_REQSTACK()
```

### Event 65535.17

#### Metadata

| Field        | Value    |
|--------------|----------|
| Entrypoint   | 0x019D   |
| Data Size    | 20 bytes |
| Instructions | 4        |

```
      00 01 02 03 04 05 06 07  08 09 0A 0B 0C 0D 0E 0F
      -- -- -- -- -- -- -- --  -- -- -- -- -- -- -- --
0190:                                         27 02 62               '.b
01A0: 80 0E 01 03 31 00 40 80  41 80 28 80 42 80 31 01  ....1.@.A.(.B.1.
01B0: 00                                                .               
```

#### Opcodes

```
  0: 0x019D [0x27] REQ_SET(priority=0x02, entity_id=Door:Cargo Room A (ID: 17727586/0x010E8062), tag_num=0x03)
  1: 0x01A4 [0x31] UPDATE_ENTITY_POSITION: Set EventEntity goal position to X=3.984*, Z=-98.070*, Y=-4.000*, Time=180*
  2: 0x01AE [0x31] UPDATE_ENTITY_POSITION: Move EventEntity towards goal position
  3: 0x01B0 [0x00] END_REQSTACK()
```

### Event 65535.18

#### Metadata

| Field        | Value    |
|--------------|----------|
| Entrypoint   | 0x01B1   |
| Data Size    | 31 bytes |
| Instructions | 8        |

```
      00 01 02 03 04 05 06 07  08 09 0A 0B 0C 0D 0E 0F
      -- -- -- -- -- -- -- --  -- -- -- -- -- -- -- --
01B0:    1F 00 40 80 41 80 28  80 1F 01 27 03 62 80 0E   ..@.A.(...'.b..
01C0: 01 05 1F 00 43 80 44 80  28 80 1F 01 6F 22 01 00  ....C.D.(...o"..
```

#### Opcodes

```
  0: 0x01B1 [0x1F] MOVE_ENTITY: EventEntity moves to X=3.984*, Z=-98.070*, Y=-4.000*
  1: 0x01B9 [0x1F] MOVE_ENTITY: Update entity position (mode=1)
  2: 0x01BB [0x27] REQ_SET(priority=0x03, entity_id=Door:Cargo Room A (ID: 17727586/0x010E8062), tag_num=0x05)
  3: 0x01C2 [0x1F] MOVE_ENTITY: EventEntity moves to X=3.935*, Z=-93.405*, Y=-4.000*
  4: 0x01CA [0x1F] MOVE_ENTITY: Update entity position (mode=1)
  5: 0x01CC [0x6F] WAIT_FRAME_DELAY: Yield until WaitTime reaches zero
  6: 0x01CD [0x22] ENTITY_HIDE_FLAG(enabled=0x01)
  7: 0x01CF [0x00] END_REQSTACK()
```

### Event 65535.19

#### Metadata

| Field        | Value    |
|--------------|----------|
| Entrypoint   | 0x01D0   |
| Data Size    | 32 bytes |
| Instructions | 10       |

```
      00 01 02 03 04 05 06 07  08 09 0A 0B 0C 0D 0E 0F
      -- -- -- -- -- -- -- --  -- -- -- -- -- -- -- --
01D0: 32 04 80 1F 00 0F 80 10  80 02 80 1F 01 1F 00 45  2..............E
01E0: 80 46 80 15 80 1F 01 6F  1E 48 80 0E 01 6F 70 00  .F.....o.H...op.
```

#### Opcodes

```
  0: 0x01D0 [0x32] ExtData[1]->MainSpeed = 13* * 0.1
  1: 0x01D3 [0x1F] MOVE_ENTITY: EventEntity moves to X=3.898*, Z=-123.507*, Y=-7.999*
  2: 0x01DB [0x1F] MOVE_ENTITY: Update entity position (mode=1)
  3: 0x01DD [0x1F] MOVE_ENTITY: EventEntity moves to X=0.349*, Z=-121.534*, Y=-8.000*
  4: 0x01E5 [0x1F] MOVE_ENTITY: Update entity position (mode=1)
  5: 0x01E7 [0x6F] WAIT_FRAME_DELAY: Yield until WaitTime reaches zero
  6: 0x01E8 [0x1E] EventEntity looks at Ceraulian (ID: 17727560/0x010E8048) and starts talking
  7: 0x01ED [0x6F] WAIT_FRAME_DELAY: Yield until WaitTime reaches zero
  8: 0x01EE [0x70] WAIT_ENTITY_RENDER_FLAG: Wait while EventEntity->Render.Flags3 bit 2 is set (cancel turn if not)
  9: 0x01EF [0x00] END_REQSTACK()
```

### Event 65535.20

#### Metadata

| Field        | Value    |
|--------------|----------|
| Entrypoint   | 0x01F0   |
| Data Size    | 19 bytes |
| Instructions | 3        |

```
      00 01 02 03 04 05 06 07  08 09 0A 0B 0C 0D 0E 0F
      -- -- -- -- -- -- -- --  -- -- -- -- -- -- -- --
01F0: 66 47 80 F8 FF FF 7F F8  FF FF 7F 74 6C 6B 30 1C  fG.........tlk0.
0200: 1F 80 00                                          ...             
```

#### Opcodes

```
  0: 0x01F0 [0x66] LOAD_EXT_SCHEDULER_MAIN: Load scheduler "tlk0" with entities [EventEntity, EventEntity], work=20*
  1: 0x01FF [0x1C] WAIT(60* ticks)
  2: 0x0202 [0x00] END_REQSTACK()
```

### Event 65535.21

#### Metadata

| Field        | Value   |
|--------------|---------|
| Entrypoint   | 0x0203  |
| Data Size    | 9 bytes |
| Instructions | 3       |

```
      00 01 02 03 04 05 06 07  08 09 0A 0B 0C 0D 0E 0F
      -- -- -- -- -- -- -- --  -- -- -- -- -- -- -- --
0200:          5E 69 64 6C 30  1C 1F 80 00                 ^idl0....    
```

#### Opcodes

```
  0: 0x0203 [0x5E] EventEntity goes idle (kills current action) (animation: "idl0")
  1: 0x0208 [0x1C] WAIT(60* ticks)
  2: 0x020B [0x00] END_REQSTACK()
```

### Event 65535.22

#### Metadata

| Field        | Value    |
|--------------|----------|
| Entrypoint   | 0x020C   |
| Data Size    | 19 bytes |
| Instructions | 3        |

```
      00 01 02 03 04 05 06 07  08 09 0A 0B 0C 0D 0E 0F
      -- -- -- -- -- -- -- --  -- -- -- -- -- -- -- --
0200:                                      66 47 80 F8              fG..
0210: FF FF 7F F8 FF FF 7F 74  68 6B 31 1C 1F 80 00     .......thk1.... 
```

#### Opcodes

```
  0: 0x020C [0x66] LOAD_EXT_SCHEDULER_MAIN: Load scheduler "thk1" with entities [EventEntity, EventEntity], work=20*
  1: 0x021B [0x1C] WAIT(60* ticks)
  2: 0x021E [0x00] END_REQSTACK()
```

### Event 65535.23

#### Metadata

| Field        | Value    |
|--------------|----------|
| Entrypoint   | 0x021F   |
| Data Size    | 32 bytes |
| Instructions | 4        |

```
      00 01 02 03 04 05 06 07  08 09 0A 0B 0C 0D 0E 0F
      -- -- -- -- -- -- -- --  -- -- -- -- -- -- -- --
0210:                                               53                 S
0220: F8 FF FF 7F F8 FF FF 7F  74 68 6B 31 66 47 80 F8  ........thk1fG..
0230: FF FF 7F F8 FF FF 7F 74  68 6B 32 1C 1F 80 00     .......thk2.... 
```

#### Opcodes

```
  0: 0x021F [0x53] WAIT_SCHEDULER_TASK: Wait for scheduler "thk1" with entities [EventEntity, EventEntity]
  1: 0x022C [0x66] LOAD_EXT_SCHEDULER_MAIN: Load scheduler "thk2" with entities [EventEntity, EventEntity], work=20*
  2: 0x023B [0x1C] WAIT(60* ticks)
  3: 0x023E [0x00] END_REQSTACK()
```

### Event 65535.24

#### Metadata

| Field        | Value    |
|--------------|----------|
| Entrypoint   | 0x023F   |
| Data Size    | 29 bytes |
| Instructions | 3        |

```
      00 01 02 03 04 05 06 07  08 09 0A 0B 0C 0D 0E 0F
      -- -- -- -- -- -- -- --  -- -- -- -- -- -- -- --
0230:                                               66                 f
0240: 48 80 F8 FF FF 7F F8 FF  FF 7F 64 69 73 30 53 F8  H.........dis0S.
0250: FF FF 7F F8 FF FF 7F 64  69 73 30 00              .......dis0.    
```

#### Opcodes

```
  0: 0x023F [0x66] LOAD_EXT_SCHEDULER_MAIN: Load scheduler "dis0" with entities [EventEntity, EventEntity], work=21*
  1: 0x024E [0x53] WAIT_SCHEDULER_TASK: Wait for scheduler "dis0" with entities [EventEntity, EventEntity]
  2: 0x025B [0x00] END_REQSTACK()
```

### Event 65535.25

#### Metadata

| Field        | Value    |
|--------------|----------|
| Entrypoint   | 0x025C   |
| Data Size    | 29 bytes |
| Instructions | 3        |

```
      00 01 02 03 04 05 06 07  08 09 0A 0B 0C 0D 0E 0F
      -- -- -- -- -- -- -- --  -- -- -- -- -- -- -- --
0250:                                      66 47 80 F8              fG..
0260: FF FF 7F F8 FF FF 7F 70  61 73 30 53 F8 FF FF 7F  .......pas0S....
0270: F8 FF FF 7F 70 61 73 30  00                       ....pas0.       
```

#### Opcodes

```
  0: 0x025C [0x66] LOAD_EXT_SCHEDULER_MAIN: Load scheduler "pas0" with entities [EventEntity, EventEntity], work=20*
  1: 0x026B [0x53] WAIT_SCHEDULER_TASK: Wait for scheduler "pas0" with entities [EventEntity, EventEntity]
  2: 0x0278 [0x00] END_REQSTACK()
```
