# 17727647

## Common Data

| Field            | Value                     |
|------------------|---------------------------|
| Zone             | Port San d'Oria (ID: 232) |
| Block Size       | 6500 bytes                |
| Total Events     | 4                         |
| References Count | 106                       |

## List of Events

| Event ID              | Entrypoint   |   Size |   Instructions |
|-----------------------|--------------|--------|----------------|
| [65535](#event-65535) | 0x0000       |      1 |              1 |
| [792](#event-792)     | 0x0001       |    835 |            108 |
| [793](#event-793)     | 0x0344       |   4480 |            516 |
| [794](#event-794)     | 0x14C4       |    725 |             73 |

## DAT References (imed_data)

|   Index | Hex Value   |   Dec Value |
|---------|-------------|-------------|
|       0 | 0x0013      |          19 |
|       1 | 0xFFFEF843  |  4294899779 |
|       2 | 0xFFFF8291  |  4294935185 |
|       3 | 0xFFFFEA88  |  4294961800 |
|       4 | 0x0C18      |        3096 |
|       5 | 0xFFFEF887  |  4294899847 |
|       6 | 0xFFFF8EB8  |  4294938296 |
|       7 | 0x0BC3      |        3011 |
|       8 | 0x016D      |         365 |
|       9 | 0x00B4      |         180 |
|      10 | 0x001E      |          30 |
|      11 | 0x0001      |           1 |
|      12 | 0x0225      |         549 |
|      13 | 0x0000      |           0 |
|      14 | 0x0002      |           2 |
|      15 | 0x0003      |           3 |
|      16 | 0x0004      |           4 |
|      17 | 0x0005      |           5 |
|      18 | 0x0006      |           6 |
|      19 | 0x0007      |           7 |
|      20 | 0x0008      |           8 |
|      21 | 0x2CE7      |       11495 |
|      22 | 0x005A      |          90 |
|      23 | 0x0016      |          22 |
|      24 | 0x2CE8      |       11496 |
|      25 | 0x0078      |         120 |
|      26 | 0x2CE9      |       11497 |
|      27 | 0x0096      |         150 |
|      28 | 0x2CEA      |       11498 |
|      29 | 0x003C      |          60 |
|      30 | 0x2CEB      |       11499 |
|      31 | 0x2CEC      |       11500 |
|      32 | 0x2CED      |       11501 |
|      33 | 0x2CEE      |       11502 |
|      34 | 0x00C8      |         200 |
|      35 | 0xFFFEF823  |  4294899747 |
|      36 | 0xFFFF81A0  |  4294934944 |
|      37 | 0x1578      |        5496 |
|      38 | 0xFFFF2469  |  4294911081 |
|      39 | 0xFFFF735F  |  4294931295 |
|      40 | 0xFFFFEE6C  |  4294962796 |
|      41 | 0x0872      |        2162 |
|      42 | 0x2CF0      |       11504 |
|      43 | 0x2CF1      |       11505 |
|      44 | 0x2CF2      |       11506 |
|      45 | 0x2CF3      |       11507 |
|      46 | 0x2CF4      |       11508 |
|      47 | 0x2CF5      |       11509 |
|      48 | 0x2CF6      |       11510 |
|      49 | 0x03F3      |        1011 |
|      50 | 0x0014      |          20 |
|      51 | 0x01F4      |         500 |
|      52 | 0x001D      |          29 |
|      53 | 0x2CF7      |       11511 |
|      54 | 0x2CF8      |       11512 |
|      55 | 0x0854      |        2132 |
|      56 | 0x2CF9      |       11513 |
|      57 | 0x2CFA      |       11514 |
|      58 | 0x2CFB      |       11515 |
|      59 | 0x0857      |        2135 |
|      60 | 0x0850      |        2128 |
|      61 | 0x00D2      |         210 |
|      62 | 0x2CFC      |       11516 |
|      63 | 0x2CFD      |       11517 |
|      64 | 0x09E3      |        2531 |
|      65 | 0x000F      |          15 |
|      66 | 0x2CFE      |       11518 |
|      67 | 0x2CFF      |       11519 |
|      68 | 0xFFFEE7BF  |  4294895551 |
|      69 | 0xFFFF8AD0  |  4294937296 |
|      70 | 0x1B58      |        7000 |
|      71 | 0xFFFF8785  |  4294936453 |
|      72 | 0xFFFFE4A8  |  4294960296 |
|      73 | 0x00B1      |         177 |
|      74 | 0x0168      |         360 |
|      75 | 0xFFFEEE90  |  4294897296 |
|      76 | 0xFFFF8300  |  4294935296 |
|      77 | 0x2D00      |       11520 |
|      78 | 0x2D01      |       11521 |
|      79 | 0x085B      |        2139 |
|      80 | 0x2D02      |       11522 |
|      81 | 0x2D03      |       11523 |
|      82 | 0x2D04      |       11524 |
|      83 | 0x0856      |        2134 |
|      84 | 0x2D05      |       11525 |
|      85 | 0x2D06      |       11526 |
|      86 | 0x2D07      |       11527 |
|      87 | 0xFFFF0162  |  4294902114 |
|      88 | 0xFFFF7E54  |  4294934100 |
|      89 | 0x0ABB      |        2747 |
|      90 | 0xFFFFE894  |  4294961300 |
|      91 | 0x2D08      |       11528 |
|      92 | 0x2D09      |       11529 |
|      93 | 0x2D0A      |       11530 |
|      94 | 0x2D0B      |       11531 |
|      95 | 0x2D0C      |       11532 |
|      96 | 0x2D0D      |       11533 |
|      97 | 0x2D0E      |       11534 |
|      98 | 0x2D0F      |       11535 |
|      99 | 0x2D10      |       11536 |
|     100 | 0x012C      |         300 |
|     101 | 0x00F0      |         240 |
|     102 | 0x00C9      |         201 |
|     103 | 0x2CEF      |       11503 |
|     104 | 0x002D      |          45 |
|     105 | 0x00D7      |         215 |

## Events

### Event 65535

#### Metadata

| Field        | Value   |
|--------------|---------|
| Entrypoint   | 0x0000  |
| Data Size    | 1 bytes |
| Instructions | 1       |

```
      00 01 02 03 04 05 06 07  08 09 0A 0B 0C 0D 0E 0F
      -- -- -- -- -- -- -- --  -- -- -- -- -- -- -- --
0000: 00                                                .               
```

#### Opcodes

```
  0: 0x0000 [0x00] END_REQSTACK()
```

### Event 792

#### Metadata

| Field        | Value     |
|--------------|-----------|
| Entrypoint   | 0x0001    |
| Data Size    | 835 bytes |
| Instructions | 108       |

```
      00 01 02 03 04 05 06 07  08 09 0A 0B 0C 0D 0E 0F
      -- -- -- -- -- -- -- --  -- -- -- -- -- -- -- --
0000:    42 1A 6B 15 46 01 38  00 80 4E 00 0A 80 0E 01   B.k.F.8..N.....
0010: 92 01 0A 80 0E 01 92 01  0B 80 0E 01 92 01 0C 80  ................
0020: 0E 01 92 01 0D 80 0E 01  92 01 0E 80 0E 01 92 01  ................
0030: 0F 80 0E 01 92 01 85 80  0E 01 92 01 84 80 0E 01  ................
0040: 94 01 F0 FF FF 7F 94 01  0A 80 0E 01 BA F0 FF FF  ................
0050: 7F 01 80 02 80 03 80 04  80 BA 0A 80 0E 01 05 80  ................
0060: 06 80 03 80 07 80 80 F0  FF FF 7F 75 00 08 80 75  ...........u...u
0070: 01 1C 09 80 4A F0 FF FF  7F 0A 80 0E 01 4A 0A 80  ....J........J..
0080: 0E 01 F0 FF FF 7F 1C 0A  80 29 10 F0 FF FF 7F 3F  .........).....?
0090: 02 02 10 0B 80 80 AC 00  45 0C 80 F0 FF FF 7F F0  ........E.......
00A0: FF FF 7F 30 33 30 30 0D  80 01 70 01 02 02 10 0E  ...0300...p.....
00B0: 80 80 C8 00 45 0C 80 F0  FF FF 7F F0 FF FF 7F 30  ....E..........0
00C0: 33 30 30 0D 80 01 70 01  02 02 10 0F 80 80 E4 00  300...p.........
00D0: 45 0C 80 F0 FF FF 7F F0  FF FF 7F 30 33 30 31 0D  E..........0301.
00E0: 80 01 70 01 02 02 10 10  80 80 00 01 45 0C 80 F0  ..p.........E...
00F0: FF FF 7F F0 FF FF 7F 30  33 30 31 0D 80 01 70 01  .......0301...p.
0100: 02 02 10 11 80 80 1C 01  45 0C 80 F0 FF FF 7F F0  ........E.......
0110: FF FF 7F 30 33 30 32 0D  80 01 70 01 02 02 10 12  ...0302...p.....
0120: 80 80 38 01 45 0C 80 F0  FF FF 7F F0 FF FF 7F 30  ..8.E..........0
0130: 33 30 32 0D 80 01 70 01  02 02 10 13 80 80 54 01  302...p.......T.
0140: 45 0C 80 F0 FF FF 7F F0  FF FF 7F 30 33 30 30 0D  E..........0300.
0150: 80 01 70 01 02 02 10 14  80 80 70 01 45 0C 80 F0  ..p.......p.E...
0160: FF FF 7F F0 FF FF 7F 30  33 30 31 0D 80 01 70 01  .......0301...p.
0170: 1A 4A 15 5B 0A 80 0A 80  0E 01 0A 80 0E 01 74 6C  .J.[..........tl
0180: 6B 30 2B 0A 80 0E 01 15  80 1C 16 80 23 5B 0A 80  k0+.........#[..
0190: 0A 80 0E 01 0A 80 0E 01  74 6C 6B 31 6E F0 FF FF  ........tlk1n...
01A0: 7F 17 80 99 F0 FF FF 7F  1C 09 80 52 0C 80 F0 FF  ...........R....
01B0: FF 7F F0 FF FF 7F 30 33  30 30 52 0C 80 F0 FF FF  ......0300R.....
01C0: 7F F0 FF FF 7F 30 33 30  31 52 0C 80 F0 FF FF 7F  .....0301R......
01D0: F0 FF FF 7F 30 33 30 32  45 0C 80 F0 FF FF 7F F0  ....0302E.......
01E0: FF FF 7F 30 33 30 33 0D  80 5B 0A 80 0A 80 0E 01  ...0303..[......
01F0: 0A 80 0E 01 74 68 6B 31  2B 0A 80 0E 01 18 80 1C  ....thk1+.......
0200: 19 80 23 5B 0A 80 0A 80  0E 01 0A 80 0E 01 74 68  ..#[..........th
0210: 6B 32 2B 0A 80 0E 01 1A  80 23 6E F0 FF FF 7F 13  k2+......#n.....
0220: 80 99 F0 FF FF 7F 1C 1B  80 52 0C 80 F0 FF FF 7F  .........R......
0230: F0 FF FF 7F 30 33 30 33  45 0C 80 F0 FF FF 7F F0  ....0303E.......
0240: FF FF 7F 30 33 30 35 0D  80 5B 0A 80 0A 80 0E 01  ...0305..[......
0250: 0A 80 0E 01 74 6C 6B 30  2B 0A 80 0E 01 1C 80 1C  ....tlk0+.......
0260: 16 80 23 5B 0A 80 0A 80  0E 01 0A 80 0E 01 74 6C  ..#[..........tl
0270: 6B 31 1C 1D 80 5B 0A 80  0A 80 0E 01 0A 80 0E 01  k1...[..........
0280: 70 61 73 30 2B 0A 80 0E  01 1E 80 1C 09 80 23 52  pas0+.........#R
0290: 0C 80 F0 FF FF 7F F0 FF  FF 7F 30 33 30 35 45 0C  ..........0305E.
02A0: 80 F0 FF FF 7F F0 FF FF  7F 30 33 30 34 0D 80 5B  .........0304..[
02B0: 0A 80 0A 80 0E 01 0A 80  0E 01 74 6C 6B 30 2B 0A  ..........tlk0+.
02C0: 80 0E 01 1F 80 1C 16 80  23 2B 0A 80 0E 01 20 80  ........#+.... .
02D0: 23 52 0C 80 F0 FF FF 7F  F0 FF FF 7F 30 33 30 34  #R..........0304
02E0: 45 0C 80 F0 FF FF 7F F0  FF FF 7F 30 33 30 36 0D  E..........0306.
02F0: 80 2B 0A 80 0E 01 21 80  23 5B 0A 80 0A 80 0E 01  .+....!.#[......
0300: 0A 80 0E 01 74 6C 6B 31  6E F0 FF FF 7F 13 80 99  ....tlk1n.......
0310: F0 FF FF 7F 1C 16 80 1A  6B 15 1C 0A 80 52 0C 80  ........k....R..
0320: F0 FF FF 7F F0 FF FF 7F  30 33 30 36 1C 0A 80 46  ........0306...F
0330: 00 45 22 80 F0 FF FF 7F  F0 FF FF 7F 66 64 69 32  .E".........fdi2
0340: 0D 80 21 00                                       ..!.            
```

#### Opcodes

```
  0: 0x0001 [0x42] SET_CLI_EVENT_CANCEL_DATA()
  1: 0x0002 [0x1A] CALL_SUBROUTINE(address=0x156B)
  2: 0x0005 [0x46] CAMERA_CONTROL: Disable user control
  3: 0x0007 [0x38] SET_CLIENT_EVENT_MODE(mode=19*)
  4: 0x000A [0x4E] SET_ENTITY_HIDE_FLAG: Show Thierride (ID: 17727498/0x010E800A)
  5: 0x0010 [0x92] Thierride (ID: 17727498/0x010E800A)->Render.Flags3 ^= 0x01
  6: 0x0016 [0x92] Gulemont (ID: 17727499/0x010E800B)->Render.Flags3 ^= 0x01
  7: 0x001C [0x92] Ilgusin (ID: 17727500/0x010E800C)->Render.Flags3 ^= 0x01
  8: 0x0022 [0x92] Antreneau (ID: 17727501/0x010E800D)->Render.Flags3 ^= 0x01
  9: 0x0028 [0x92] Nogelle (ID: 17727502/0x010E800E)->Render.Flags3 ^= 0x01
 10: 0x002E [0x92] Croumangue (ID: 17727503/0x010E800F)->Render.Flags3 ^= 0x01
 11: 0x0034 [0x92] Raqtibahl (ID: 17727621/0x010E8085)->Render.Flags3 ^= 0x01
 12: 0x003A [0x92] Perdiouvilet (ID: 17727620/0x010E8084)->Render.Flags3 ^= 0x01
 13: 0x0040 [0x94] LocalPlayer->Render.Flags3 ^= 0x01
 14: 0x0046 [0x94] Thierride (ID: 17727498/0x010E800A)->Render.Flags3 ^= 0x01
 15: 0x004C [0xBA] SET_ENTITY_POSITION(entity_id=LocalPlayer, pos_x=-67.517*, pos_z=-32.111*, pos_y=-5.496*, direction=272.1°*)
 16: 0x0059 [0xBA] SET_ENTITY_POSITION(entity_id=Thierride (ID: 17727498/0x010E800A), pos_x=-67.449*, pos_z=-29.000*, pos_y=-5.496*, direction=264.6°*)
 17: 0x0066 [0x80] LOAD_WAIT(entity=LocalPlayer)
 18: 0x006B [0x75] LOAD_ROOM(Load indoor room, room=365*)
 19: 0x006F [0x75] LOAD_ROOM(No action)
 20: 0x0071 [0x1C] WAIT(180* ticks)
 21: 0x0074 [0x4A] LocalPlayer looks at Thierride (ID: 17727498/0x010E800A)
 22: 0x007D [0x4A] Thierride (ID: 17727498/0x010E800A) looks at LocalPlayer
 23: 0x0086 [0x1C] WAIT(30* ticks)
 24: 0x0089 [0x29] REQ_SET_WAIT(priority=0x10, entity_id=LocalPlayer, tag_num=0x3F)
 25: 0x0090 [0x02] IF !(Work_Zone[2] == 1*) GOTO 0x00AC
 26: 0x0098 [0x45] LOAD_SCHEDULED_TASK: Load scheduler "0300" with entities [LocalPlayer, LocalPlayer], work=[549*, 0*]
 27: 0x00A9 [0x01] GOTO 0x0170
 28: 0x00AC [0x02] IF !(Work_Zone[2] == 2*) GOTO 0x00C8
 29: 0x00B4 [0x45] LOAD_SCHEDULED_TASK: Load scheduler "0300" with entities [LocalPlayer, LocalPlayer], work=[549*, 0*]
 30: 0x00C5 [0x01] GOTO 0x0170
 31: 0x00C8 [0x02] IF !(Work_Zone[2] == 3*) GOTO 0x00E4
 32: 0x00D0 [0x45] LOAD_SCHEDULED_TASK: Load scheduler "0301" with entities [LocalPlayer, LocalPlayer], work=[549*, 0*]
 33: 0x00E1 [0x01] GOTO 0x0170
 34: 0x00E4 [0x02] IF !(Work_Zone[2] == 4*) GOTO 0x0100
 35: 0x00EC [0x45] LOAD_SCHEDULED_TASK: Load scheduler "0301" with entities [LocalPlayer, LocalPlayer], work=[549*, 0*]
 36: 0x00FD [0x01] GOTO 0x0170
 37: 0x0100 [0x02] IF !(Work_Zone[2] == 5*) GOTO 0x011C
 38: 0x0108 [0x45] LOAD_SCHEDULED_TASK: Load scheduler "0302" with entities [LocalPlayer, LocalPlayer], work=[549*, 0*]
 39: 0x0119 [0x01] GOTO 0x0170
 40: 0x011C [0x02] IF !(Work_Zone[2] == 6*) GOTO 0x0138
 41: 0x0124 [0x45] LOAD_SCHEDULED_TASK: Load scheduler "0302" with entities [LocalPlayer, LocalPlayer], work=[549*, 0*]
 42: 0x0135 [0x01] GOTO 0x0170
 43: 0x0138 [0x02] IF !(Work_Zone[2] == 7*) GOTO 0x0154
 44: 0x0140 [0x45] LOAD_SCHEDULED_TASK: Load scheduler "0300" with entities [LocalPlayer, LocalPlayer], work=[549*, 0*]
 45: 0x0151 [0x01] GOTO 0x0170
 46: 0x0154 [0x02] IF !(Work_Zone[2] == 8*) GOTO 0x0170
 47: 0x015C [0x45] LOAD_SCHEDULED_TASK: Load scheduler "0301" with entities [LocalPlayer, LocalPlayer], work=[549*, 0*]
 48: 0x016D [0x01] GOTO 0x0170

SUBROUTINE_0170:
 49: 0x0170 [0x1A] CALL_SUBROUTINE(address=0x154A)
 50: 0x0173 [0x5B] LOAD_EXT_SCHEDULER: Load scheduler "tlk0" with entities [Thierride (ID: 17727498/0x010E800A), Thierride (ID: 17727498/0x010E800A)], work=30*
 51: 0x0182 [0x2B] Thierride (ID: 17727498/0x010E800A) [11495*]:
    → "Welcome. What'll it be?"
 52: 0x0189 [0x1C] WAIT(90* ticks)
 53: 0x018C [0x23] WAIT_FOR_DIALOG_INTERACTION
 54: 0x018D [0x5B] LOAD_EXT_SCHEDULER: Load scheduler "tlk1" with entities [Thierride (ID: 17727498/0x010E800A), Thierride (ID: 17727498/0x010E800A)], work=30*
 55: 0x019C [0x6E] LocalPlayer uses emote 22*
 56: 0x01A3 [0x99] Wait for LocalPlayer animation to complete
 57: 0x01A8 [0x1C] WAIT(180* ticks)
 58: 0x01AB [0x52] END_LOAD_SCHEDULER: End scheduler "0300" with entities [LocalPlayer, LocalPlayer], work=549*
 59: 0x01BA [0x52] END_LOAD_SCHEDULER: End scheduler "0301" with entities [LocalPlayer, LocalPlayer], work=549*
 60: 0x01C9 [0x52] END_LOAD_SCHEDULER: End scheduler "0302" with entities [LocalPlayer, LocalPlayer], work=549*
 61: 0x01D8 [0x45] LOAD_SCHEDULED_TASK: Load scheduler "0303" with entities [LocalPlayer, LocalPlayer], work=[549*, 0*]
 62: 0x01E9 [0x5B] LOAD_EXT_SCHEDULER: Load scheduler "thk1" with entities [Thierride (ID: 17727498/0x010E800A), Thierride (ID: 17727498/0x010E800A)], work=30*
 63: 0x01F8 [0x2B] Thierride (ID: 17727498/0x010E800A) [11496*]:
    → "What's that? You wish to know if a red-haired girl has been here of late? Apologies, but I cannot assist you at present. The kitchen demands my undivided attention."
 64: 0x01FF [0x1C] WAIT(120* ticks)
 65: 0x0202 [0x23] WAIT_FOR_DIALOG_INTERACTION
 66: 0x0203 [0x5B] LOAD_EXT_SCHEDULER: Load scheduler "thk2" with entities [Thierride (ID: 17727498/0x010E800A), Thierride (ID: 17727498/0x010E800A)], work=30*
 67: 0x0212 [0x2B] Thierride (ID: 17727498/0x010E800A) [11497*]:
    → "Wait a moment... You're an adventurer, are you not?"
 68: 0x0219 [0x23] WAIT_FOR_DIALOG_INTERACTION
 69: 0x021A [0x6E] LocalPlayer uses emote 7*
 70: 0x0221 [0x99] Wait for LocalPlayer animation to complete
 71: 0x0226 [0x1C] WAIT(150* ticks)
 72: 0x0229 [0x52] END_LOAD_SCHEDULER: End scheduler "0303" with entities [LocalPlayer, LocalPlayer], work=549*
 73: 0x0238 [0x45] LOAD_SCHEDULED_TASK: Load scheduler "0305" with entities [LocalPlayer, LocalPlayer], work=[549*, 0*]
 74: 0x0249 [0x5B] LOAD_EXT_SCHEDULER: Load scheduler "tlk0" with entities [Thierride (ID: 17727498/0x010E800A), Thierride (ID: 17727498/0x010E800A)], work=30*
 75: 0x0258 [0x2B] Thierride (ID: 17727498/0x010E800A) [11498*]:
    → "Truly!? The Goddess be praised! I have urgent need of your assistance. Hear me out, I beg you."
 76: 0x025F [0x1C] WAIT(90* ticks)
 77: 0x0262 [0x23] WAIT_FOR_DIALOG_INTERACTION
 78: 0x0263 [0x5B] LOAD_EXT_SCHEDULER: Load scheduler "tlk1" with entities [Thierride (ID: 17727498/0x010E800A), Thierride (ID: 17727498/0x010E800A)], work=30*
 79: 0x0272 [0x1C] WAIT(60* ticks)
 80: 0x0275 [0x5B] LOAD_EXT_SCHEDULER: Load scheduler "pas0" with entities [Thierride (ID: 17727498/0x010E800A), Thierride (ID: 17727498/0x010E800A)], work=30*
 81: 0x0284 [0x2B] Thierride (ID: 17727498/0x010E800A) [11499*]:
    → "I've invented a new bean dish, you see, and require that a sample of it be delivered to Amaura, an elderly resident of Southern San d'Oria."
 82: 0x028B [0x1C] WAIT(180* ticks)
 83: 0x028E [0x23] WAIT_FOR_DIALOG_INTERACTION
 84: 0x028F [0x52] END_LOAD_SCHEDULER: End scheduler "0305" with entities [LocalPlayer, LocalPlayer], work=549*
 85: 0x029E [0x45] LOAD_SCHEDULED_TASK: Load scheduler "0304" with entities [LocalPlayer, LocalPlayer], work=[549*, 0*]
 86: 0x02AF [0x5B] LOAD_EXT_SCHEDULER: Load scheduler "tlk0" with entities [Thierride (ID: 17727498/0x010E800A), Thierride (ID: 17727498/0x010E800A)], work=30*
 87: 0x02BE [0x2B] Thierride (ID: 17727498/0x010E800A) [11500*]:
    → "She has been my nose and mouth ever since I swapped my fishing rod for a skillet. It's become a custom between us that I have her ply her senses on new cuisine I create."
 88: 0x02C5 [0x1C] WAIT(90* ticks)
 89: 0x02C8 [0x23] WAIT_FOR_DIALOG_INTERACTION
 90: 0x02C9 [0x2B] Thierride (ID: 17727498/0x010E800A) [11501*]:
    → "Would that I could make the delivery myself while it's still fresh and piping hot, but my customers have voracious appetites and must needs be fed."
 91: 0x02D0 [0x23] WAIT_FOR_DIALOG_INTERACTION
 92: 0x02D1 [0x52] END_LOAD_SCHEDULER: End scheduler "0304" with entities [LocalPlayer, LocalPlayer], work=549*
 93: 0x02E0 [0x45] LOAD_SCHEDULED_TASK: Load scheduler "0306" with entities [LocalPlayer, LocalPlayer], work=[549*, 0*]
 94: 0x02F1 [0x2B] Thierride (ID: 17727498/0x010E800A) [11502*]:
    → "Should you do me this one favor, you may consider my aid at your disposal."
 95: 0x02F8 [0x23] WAIT_FOR_DIALOG_INTERACTION
 96: 0x02F9 [0x5B] LOAD_EXT_SCHEDULER: Load scheduler "tlk1" with entities [Thierride (ID: 17727498/0x010E800A), Thierride (ID: 17727498/0x010E800A)], work=30*
 97: 0x0308 [0x6E] LocalPlayer uses emote 7*
 98: 0x030F [0x99] Wait for LocalPlayer animation to complete
 99: 0x0314 [0x1C] WAIT(90* ticks)
100: 0x0317 [0x1A] CALL_SUBROUTINE(address=0x156B)
101: 0x031A [0x1C] WAIT(30* ticks)
102: 0x031D [0x52] END_LOAD_SCHEDULER: End scheduler "0306" with entities [LocalPlayer, LocalPlayer], work=549*
103: 0x032C [0x1C] WAIT(30* ticks)
104: 0x032F [0x46] CAMERA_CONTROL: Restore default settings
105: 0x0331 [0x45] LOAD_SCHEDULED_TASK: Load scheduler "fdi2" with entities [LocalPlayer, LocalPlayer], work=[200*, 0*]
106: 0x0342 [0x21] END_EVENT
107: 0x0343 [0x00] END_REQSTACK()
```

### Event 793

#### Metadata

| Field        | Value      |
|--------------|------------|
| Entrypoint   | 0x0344     |
| Data Size    | 4480 bytes |
| Instructions | 516        |

```
      00 01 02 03 04 05 06 07  08 09 0A 0B 0C 0D 0E 0F
      -- -- -- -- -- -- -- --  -- -- -- -- -- -- -- --
0340:             42 1A 6B 15  46 01 38 00 80 4E 00 0A      B.k.F.8..N..
0350: 80 0E 01 4E 00 A1 80 0E  01 4E 00 A0 80 0E 01 4E  ...N.....N.....N
0360: 00 A2 80 0E 01 92 01 0A  80 0E 01 92 01 0B 80 0E  ................
0370: 01 92 01 0C 80 0E 01 92  01 0D 80 0E 01 92 01 0E  ................
0380: 80 0E 01 92 01 0F 80 0E  01 92 01 85 80 0E 01 92  ................
0390: 01 84 80 0E 01 92 01 A1  80 0E 01 92 01 A2 80 0E  ................
03A0: 01 92 01 A0 80 0E 01 94  01 F0 FF FF 7F 94 01 0A  ................
03B0: 80 0E 01 BA F0 FF FF 7F  23 80 24 80 03 80 04 80  ........#.$.....
03C0: BA 0A 80 0E 01 05 80 06  80 03 80 07 80 BA A1 80  ................
03D0: 0E 01 05 80 06 80 03 80  07 80 BA A2 80 0E 01 05  ................
03E0: 80 0D 80 25 80 0D 80 BA  A0 80 0E 01 26 80 27 80  ...%........&.'.
03F0: 28 80 29 80 80 F0 FF FF  7F 80 0A 80 0E 01 80 0B  (.).............
0400: 80 0E 01 80 0C 80 0E 01  80 0D 80 0E 01 80 0E 80  ................
0410: 0E 01 80 0F 80 0E 01 80  85 80 0E 01 80 84 80 0E  ................
0420: 01 80 A0 80 0E 01 75 00  08 80 75 01 1C 09 80 4A  ......u...u....J
0430: F0 FF FF 7F 0A 80 0E 01  4A 0A 80 0E 01 F0 FF FF  ........J.......
0440: 7F 27 10 61 80 0E 01 03  27 10 A1 80 0E 01 03 27  .'.a....'......'
0450: 10 A0 80 0E 01 04 1C 0A  80 45 0C 80 F0 FF FF 7F  .........E......
0460: F0 FF FF 7F 30 34 30 30  0D 80 1A 4A 15 2B 0A 80  ....0400...J.+..
0470: 0E 01 2A 80 23 52 0C 80  F0 FF FF 7F F0 FF FF 7F  ..*.#R..........
0480: 30 34 30 30 29 10 F0 FF  FF 7F 3F 02 02 10 0B 80  0400).....?.....
0490: 80 A7 04 45 0C 80 F0 FF  FF 7F F0 FF FF 7F 34 6D  ...E..........4m
04A0: 64 30 0D 80 01 6B 05 02  02 10 0E 80 80 C3 04 45  d0...k.........E
04B0: 0C 80 F0 FF FF 7F F0 FF  FF 7F 34 6D 64 30 0D 80  ..........4md0..
04C0: 01 6B 05 02 02 10 0F 80  80 DF 04 45 0C 80 F0 FF  .k.........E....
04D0: FF 7F F0 FF FF 7F 34 68  69 30 0D 80 01 6B 05 02  ......4hi0...k..
04E0: 02 10 10 80 80 FB 04 45  0C 80 F0 FF FF 7F F0 FF  .......E........
04F0: FF 7F 34 68 69 30 0D 80  01 6B 05 02 02 10 11 80  ..4hi0...k......
0500: 80 17 05 45 0C 80 F0 FF  FF 7F F0 FF FF 7F 34 73  ...E..........4s
0510: 68 30 0D 80 01 6B 05 02  02 10 12 80 80 33 05 45  h0...k.......3.E
0520: 0C 80 F0 FF FF 7F F0 FF  FF 7F 34 73 68 30 0D 80  ..........4sh0..
0530: 01 6B 05 02 02 10 13 80  80 4F 05 45 0C 80 F0 FF  .k.......O.E....
0540: FF 7F F0 FF FF 7F 34 6D  64 30 0D 80 01 6B 05 02  ......4md0...k..
0550: 02 10 14 80 80 6B 05 45  0C 80 F0 FF FF 7F F0 FF  .....k.E........
0560: FF 7F 34 68 69 30 0D 80  01 6B 05 27 10 F0 FF FF  ..4hi0...k.'....
0570: 7F 41 1C 09 80 27 10 F0  FF FF 7F 42 1C 1B 80 52  .A...'.....B...R
0580: 0C 80 F0 FF FF 7F F0 FF  FF 7F 34 68 69 30 52 0C  ..........4hi0R.
0590: 80 F0 FF FF 7F F0 FF FF  7F 34 6D 64 30 52 0C 80  .........4md0R..
05A0: F0 FF FF 7F F0 FF FF 7F  34 73 68 30 45 0C 80 F0  ........4sh0E...
05B0: FF FF 7F F0 FF FF 7F 30  34 30 33 0D 80 5B 0A 80  .......0403..[..
05C0: 0A 80 0E 01 0A 80 0E 01  74 6C 6B 30 2B 0A 80 0E  ........tlk0+...
05D0: 01 2B 80 23 52 0C 80 F0  FF FF 7F F0 FF FF 7F 30  .+.#R..........0
05E0: 34 30 33 45 0C 80 F0 FF  FF 7F F0 FF FF 7F 30 34  403E..........04
05F0: 30 32 0D 80 2B 0A 80 0E  01 2C 80 23 5B 0A 80 0A  02..+....,.#[...
0600: 80 0E 01 0A 80 0E 01 74  6C 6B 31 2B 0A 80 0E 01  .......tlk1+....
0610: 2D 80 23 27 10 F0 FF FF  7F 41 1C 09 80 27 10 F0  -.#'.....A...'..
0620: FF FF 7F 42 52 0C 80 F0  FF FF 7F F0 FF FF 7F 30  ...BR..........0
0630: 34 30 32 45 0C 80 F0 FF  FF 7F F0 FF FF 7F 30 34  402E..........04
0640: 30 31 0D 80 5B 0A 80 0A  80 0E 01 0A 80 0E 01 74  01..[..........t
0650: 68 6B 31 2B 0A 80 0E 01  2E 80 23 1C 19 80 52 0C  hk1+......#...R.
0660: 80 F0 FF FF 7F F0 FF FF  7F 30 34 30 31 45 0C 80  .........0401E..
0670: F0 FF FF 7F F0 FF FF 7F  30 34 30 34 0D 80 5B 0A  ........0404..[.
0680: 80 0A 80 0E 01 0A 80 0E  01 74 68 6B 32 2B 0A 80  .........thk2+..
0690: 0E 01 2F 80 23 52 0C 80  F0 FF FF 7F F0 FF FF 7F  ../.#R..........
06A0: 30 34 30 34 02 02 10 0B  80 80 C0 06 45 0C 80 F0  0404........E...
06B0: FF FF 7F F0 FF FF 7F 30  34 30 35 0D 80 01 84 07  .......0405.....
06C0: 02 02 10 0E 80 80 DC 06  45 0C 80 F0 FF FF 7F F0  ........E.......
06D0: FF FF 7F 30 34 30 35 0D  80 01 84 07 02 02 10 0F  ...0405.........
06E0: 80 80 F8 06 45 0C 80 F0  FF FF 7F F0 FF FF 7F 30  ....E..........0
06F0: 34 30 78 0D 80 01 84 07  02 02 10 10 80 80 14 07  40x.............
0700: 45 0C 80 F0 FF FF 7F F0  FF FF 7F 30 34 30 78 0D  E..........040x.
0710: 80 01 84 07 02 02 10 11  80 80 30 07 45 0C 80 F0  ..........0.E...
0720: FF FF 7F F0 FF FF 7F 30  34 30 35 0D 80 01 84 07  .......0405.....
0730: 02 02 10 12 80 80 4C 07  45 0C 80 F0 FF FF 7F F0  ......L.E.......
0740: FF FF 7F 30 34 30 35 0D  80 01 84 07 02 02 10 13  ...0405.........
0750: 80 80 68 07 45 0C 80 F0  FF FF 7F F0 FF FF 7F 30  ..h.E..........0
0760: 34 30 35 0D 80 01 84 07  02 02 10 14 80 80 84 07  405.............
0770: 45 0C 80 F0 FF FF 7F F0  FF FF 7F 30 34 30 78 0D  E..........040x.
0780: 80 01 84 07 7B 0A 80 0E  01 5B 0A 80 0A 80 0E 01  ....{....[......
0790: 0A 80 0E 01 74 68 6B 31  2B 0A 80 0E 01 30 80 23  ....thk1+....0.#
07A0: 7B F0 FF FF 7F 6E F0 FF  FF 7F 00 80 99 F0 FF FF  {....n..........
07B0: 7F 1C 09 80 27 10 F0 FF  FF 7F 51 1C 16 80 52 0C  ....'.....Q...R.
07C0: 80 F0 FF FF 7F F0 FF FF  7F 30 34 30 35 52 0C 80  .........0405R..
07D0: F0 FF FF 7F F0 FF FF 7F  30 34 30 78 02 02 10 0B  ........040x....
07E0: 80 80 F8 07 45 0C 80 F0  FF FF 7F F0 FF FF 7F 34  ....E..........4
07F0: 66 6D 30 0D 80 01 BC 08  02 02 10 0E 80 80 14 08  fm0.............
0800: 45 0C 80 F0 FF FF 7F F0  FF FF 7F 34 66 68 30 0D  E..........4fh0.
0810: 80 01 BC 08 02 02 10 0F  80 80 30 08 45 0C 80 F0  ..........0.E...
0820: FF FF 7F F0 FF FF 7F 34  65 6D 30 0D 80 01 BC 08  .......4em0.....
0830: 02 02 10 10 80 80 4C 08  45 0C 80 F0 FF FF 7F F0  ......L.E.......
0840: FF FF 7F 34 65 68 30 0D  80 01 BC 08 02 02 10 11  ...4eh0.........
0850: 80 80 68 08 45 0C 80 F0  FF FF 7F F0 FF FF 7F 34  ..h.E..........4
0860: 74 72 30 0D 80 01 BC 08  02 02 10 12 80 80 84 08  tr0.............
0870: 45 0C 80 F0 FF FF 7F F0  FF FF 7F 34 74 72 30 0D  E..........4tr0.
0880: 80 01 BC 08 02 02 10 13  80 80 A0 08 45 0C 80 F0  ............E...
0890: FF FF 7F F0 FF FF 7F 34  6D 74 30 0D 80 01 BC 08  .......4mt0.....
08A0: 02 02 10 14 80 80 BC 08  45 0C 80 F0 FF FF 7F F0  ........E.......
08B0: FF FF 7F 34 67 6C 30 0D  80 01 BC 08 2A 10 F0 FF  ...4gl0.....*...
08C0: FF 7F 1A BE 16 1A 8C 15  1A AD 15 7B 0A 80 0E 01  ...........{....
08D0: 4B 0A 80 0E 01 31 80 27  10 0A 80 0E 01 10 27 10  K....1.'......'.
08E0: A1 80 0E 01 04 29 10 F0  FF FF 7F 43 1C 1D 80 27  .....).....C...'
08F0: 10 F0 FF FF 7F 4C 27 10  A0 80 0E 01 05 4A 0D 80  .....L'......J..
0900: 0E 01 0E 80 0E 01 4A 0E  80 0E 01 0D 80 0E 01 1C  ......J.........
0910: 09 80 66 32 80 0D 80 0E  01 0D 80 0E 01 74 6C 6B  ..f2.........tlk
0920: 30 66 32 80 0C 80 0E 01  0C 80 0E 01 74 6C 6B 30  0f2.........tlk0
0930: 52 0C 80 F0 FF FF 7F F0  FF FF 7F 34 66 6D 30 52  R..........4fm0R
0940: 0C 80 F0 FF FF 7F F0 FF  FF 7F 34 66 68 30 52 0C  ..........4fh0R.
0950: 80 F0 FF FF 7F F0 FF FF  7F 34 65 6D 30 52 0C 80  .........4em0R..
0960: F0 FF FF 7F F0 FF FF 7F  34 65 68 30 52 0C 80 F0  ........4eh0R...
0970: FF FF 7F F0 FF FF 7F 34  74 72 30 52 0C 80 F0 FF  .......4tr0R....
0980: FF 7F F0 FF FF 7F 34 6D  74 30 52 0C 80 F0 FF FF  ......4mt0R.....
0990: 7F F0 FF FF 7F 34 67 6C  30 45 0C 80 F0 FF FF 7F  .....4gl0E......
09A0: F0 FF FF 7F 62 6C 39 38  0D 80 45 0C 80 F0 FF FF  ....bl98..E.....
09B0: 7F F0 FF FF 7F 30 34 30  37 0D 80 1A DF 16 1A 8C  .....0407.......
09C0: 15 1C 1D 80 66 32 80 0D  80 0E 01 0D 80 0E 01 74  ....f2.........t
09D0: 6C 6B 31 1C 0A 80 4A 0E  80 0E 01 0A 80 0E 01 1C  lk1...J.........
09E0: 1D 80 66 0A 80 0E 80 0E  01 0E 80 0E 01 74 6C 6B  ..f..........tlk
09F0: 30 1C 19 80 52 0C 80 F0  FF FF 7F F0 FF FF 7F 30  0...R..........0
0A00: 34 30 37 45 0C 80 F0 FF  FF 7F F0 FF FF 7F 30 34  407E..........04
0A10: 30 38 0D 80 66 0A 80 0E  80 0E 01 0E 80 0E 01 74  08..f..........t
0A20: 6C 6B 31 4A 0E 80 0E 01  0D 80 0E 01 1C 19 80 5B  lk1J...........[
0A30: 0A 80 0B 80 0E 01 0B 80  0E 01 74 68 6B 31 1C 19  ..........thk1..
0A40: 80 52 0C 80 F0 FF FF 7F  F0 FF FF 7F 30 34 30 38  .R..........0408
0A50: 45 0C 80 F0 FF FF 7F F0  FF FF 7F 30 34 30 39 0D  E..........0409.
0A60: 80 1C 1D 80 66 32 80 0C  80 0E 01 0C 80 0E 01 74  ....f2.........t
0A70: 6C 6B 31 1C 1D 80 27 10  F0 FF FF 7F 44 1C 1D 80  lk1...'.....D...
0A80: 5B 0A 80 0B 80 0E 01 0B  80 0E 01 74 68 6B 32 1C  [..........thk2.
0A90: 1D 80 27 10 F0 FF FF 7F  53 1C 1D 80 52 0C 80 F0  ..'.....S...R...
0AA0: FF FF 7F F0 FF FF 7F 30  34 30 39 45 0C 80 F0 FF  .......0409E....
0AB0: FF 7F F0 FF FF 7F 30 34  30 61 0D 80 1C 19 80 52  ......040a.....R
0AC0: 0C 80 F0 FF FF 7F F0 FF  FF 7F 30 34 30 61 45 0C  ..........040aE.
0AD0: 80 F0 FF FF 7F F0 FF FF  7F 30 34 30 36 0D 80 7A  .........0406..z
0AE0: 00 F0 FF FF 7F 6B 69 64  6C 30 F0 FF FF 7F 6E F0  .....kidl0....n.
0AF0: FF FF 7F 12 80 99 F0 FF  FF 7F 4B F0 FF FF 7F 33  ..........K....3
0B00: 80 1C 1D 80 27 10 61 80  0E 01 04 1C 16 80 4A F0  ....'.a.......J.
0B10: FF FF 7F A0 80 0E 01 1C  0A 80 1C 1D 80 27 10 A0  .............'..
0B20: 80 0E 01 02 1C 1D 80 52  0C 80 F0 FF FF 7F F0 FF  .......R........
0B30: FF 7F 30 34 30 36 45 0C  80 F0 FF FF 7F F0 FF FF  ..0406E.........
0B40: 7F 30 34 30 62 0D 80 1C  16 80 6E F0 FF FF 7F 34  .040b.....n....4
0B50: 80 99 F0 FF FF 7F 1C 1B  80 52 0C 80 F0 FF FF 7F  .........R......
0B60: F0 FF FF 7F 30 34 30 62  45 0C 80 F0 FF FF 7F F0  ....040bE.......
0B70: FF FF 7F 30 34 30 63 0D  80 27 10 61 80 0E 01 03  ...040c..'.a....
0B80: 2B A0 80 0E 01 35 80 23  1C 0A 80 4A F0 FF FF 7F  +....5.#...J....
0B90: A0 80 0E 01 1C 0A 80 4A  A1 80 0E 01 A0 80 0E 01  .......J........
0BA0: 1C 1D 80 5B 0A 80 A1 80  0E 01 A1 80 0E 01 74 6C  ...[..........tl
0BB0: 6B 30 2B A1 80 0E 01 36  80 23 52 0C 80 F0 FF FF  k0+....6.#R.....
0BC0: 7F F0 FF FF 7F 30 34 30  63 45 0C 80 F0 FF FF 7F  .....040cE......
0BD0: F0 FF FF 7F 30 34 30 64  0D 80 5B 37 80 A0 80 0E  ....040d..[7....
0BE0: 01 A0 80 0E 01 74 6C 63  30 5B 0A 80 A1 80 0E 01  .....tlc0[......
0BF0: A1 80 0E 01 74 6C 6B 31  2B A0 80 0E 01 38 80 1C  ....tlk1+....8..
0C00: 1B 80 23 5B 37 80 A0 80  0E 01 A0 80 0E 01 74 6C  ..#[7.........tl
0C10: 63 31 5B 0A 80 A1 80 0E  01 A1 80 0E 01 74 6C 6B  c1[..........tlk
0C20: 30 2B A1 80 0E 01 39 80  1C 19 80 23 52 0C 80 F0  0+....9....#R...
0C30: FF FF 7F F0 FF FF 7F 30  34 30 64 45 0C 80 F0 FF  .......040dE....
0C40: FF 7F F0 FF FF 7F 30 34  30 65 0D 80 81 00 A0 80  ......040e......
0C50: 0E 01 2B A0 80 0E 01 3A  80 5B 3B 80 A0 80 0E 01  ..+....:.[;.....
0C60: A0 80 0E 01 66 64 30 31  5B 3C 80 A0 80 0E 01 A0  ....fd01[<......
0C70: 80 0E 01 68 64 62 30 5B  0A 80 A1 80 0E 01 A1 80  ...hdb0[........
0C80: 0E 01 74 6C 6B 31 1C 3D  80 23 52 0C 80 F0 FF FF  ..tlk1.=.#R.....
0C90: 7F F0 FF FF 7F 30 34 30  65 45 0C 80 F0 FF FF 7F  .....040eE......
0CA0: F0 FF FF 7F 30 34 30 67  0D 80 5B 3B 80 A0 80 0E  ....040g..[;....
0CB0: 01 A0 80 0E 01 66 64 30  30 5B 0A 80 A1 80 0E 01  .....fd00[......
0CC0: A1 80 0E 01 74 6C 6B 30  2B A1 80 0E 01 3E 80 23  ....tlk0+....>.#
0CD0: 5B 0A 80 A1 80 0E 01 A1  80 0E 01 74 6C 6B 31 5B  [..........tlk1[
0CE0: 3C 80 A0 80 0E 01 A0 80  0E 01 68 64 62 31 4A A1  <.........hdb1J.
0CF0: 80 0E 01 A2 80 0E 01 1C  1D 80 5B 0A 80 A1 80 0E  ..........[.....
0D00: 01 A1 80 0E 01 74 6C 6B  30 1C 09 80 5B 0A 80 A1  .....tlk0...[...
0D10: 80 0E 01 A1 80 0E 01 74  6C 6B 31 1C 1D 80 52 0C  .......tlk1...R.
0D20: 80 F0 FF FF 7F F0 FF FF  7F 30 34 30 67 45 0C 80  .........040gE..
0D30: F0 FF FF 7F F0 FF FF 7F  30 34 30 68 0D 80 4A A1  ........040h..J.
0D40: 80 0E 01 A0 80 0E 01 1C  0A 80 5B 0A 80 A1 80 0E  ..........[.....
0D50: 01 A1 80 0E 01 70 61 73  30 2B A1 80 0E 01 3F 80  .....pas0+....?.
0D60: 1C 3D 80 23 5B 3B 80 A0  80 0E 01 A0 80 0E 01 66  .=.#[;.........f
0D70: 64 30 31 5B 40 80 A0 80  0E 01 A0 80 0E 01 6B 65  d01[@.........ke
0D80: 79 30 1C 41 80 52 0C 80  F0 FF FF 7F F0 FF FF 7F  y0.A.R..........
0D90: 30 34 30 68 45 0C 80 F0  FF FF 7F F0 FF FF 7F 30  040hE..........0
0DA0: 34 30 69 0D 80 2B A0 80  0E 01 42 80 1C 19 80 7B  40i..+....B....{
0DB0: A0 80 0E 01 23 52 0C 80  F0 FF FF 7F F0 FF FF 7F  ....#R..........
0DC0: 30 34 30 69 45 0C 80 F0  FF FF 7F F0 FF FF 7F 30  040iE..........0
0DD0: 34 30 66 0D 80 81 01 A0  80 0E 01 5B 3B 80 A0 80  40f........[;...
0DE0: 0E 01 A0 80 0E 01 66 30  30 30 59 05 A2 80 0E 01  ......f000Y.....
0DF0: 01 2B A1 80 0E 01 43 80  23 7B A1 80 0E 01 27 10  .+....C.#{....'.
0E00: A1 80 0E 01 05 1C 19 80  52 0C 80 F0 FF FF 7F F0  ........R.......
0E10: FF FF 7F 30 34 30 66 45  0C 80 F0 FF FF 7F F0 FF  ...040fE........
0E20: FF 7F 30 34 30 70 0D 80  BA A2 80 0E 01 44 80 45  ..040p.......D.E
0E30: 80 46 80 0D 80 2A 10 A1  80 0E 01 1C 19 80 BA A2  .F...*..........
0E40: 80 0E 01 44 80 47 80 48  80 0D 80 5B 0A 80 A1 80  ...D.G.H...[....
0E50: 0E 01 A1 80 0E 01 74 6C  6B 30 1C 09 80 C5 49 80  ......tlk0....I.
0E60: A2 80 0E 01 A2 80 0E 01  73 30 30 32 0D 80 1C 4A  ........s002...J
0E70: 80 5B 0A 80 A1 80 0E 01  A1 80 0E 01 74 6C 6B 31  .[..........tlk1
0E80: 1C 19 80 BA A2 80 0E 01  4B 80 4C 80 48 80 0D 80  ........K.L.H...
0E90: 4A A1 80 0E 01 A2 80 0E  01 7B A1 80 0E 01 1C 19  J........{......
0EA0: 80 BA A2 80 0E 01 4B 80  4C 80 46 80 0D 80 5B 0A  ......K.L.F...[.
0EB0: 80 A1 80 0E 01 A1 80 0E  01 74 68 6B 31 2B A1 80  .........thk1+..
0EC0: 0E 01 4D 80 23 BA A2 80  0E 01 0D 80 0D 80 0D 80  ..M.#...........
0ED0: 0D 80 C5 49 80 A2 80 0E  01 A2 80 0E 01 6B 6C 73  ...I.........kls
0EE0: 31 0D 80 52 0C 80 F0 FF  FF 7F F0 FF FF 7F 30 34  1..R..........04
0EF0: 30 70 45 0C 80 F0 FF FF  7F F0 FF FF 7F 30 34 30  0pE..........040
0F00: 6A 0D 80 2B A0 80 0E 01  4E 80 5B 4F 80 A0 80 0E  j..+....N.[O....
0F10: 01 A0 80 0E 01 6E 6F 30  30 1C 09 80 4A A0 80 0E  .....no00...J...
0F20: 01 A1 80 0E 01 1C 16 80  23 52 0C 80 F0 FF FF 7F  ........#R......
0F30: F0 FF FF 7F 30 34 30 6A  45 0C 80 F0 FF FF 7F F0  ....040jE.......
0F40: FF FF 7F 30 34 30 6B 0D  80 5B 0A 80 A1 80 0E 01  ...040k..[......
0F50: A1 80 0E 01 74 68 6B 32  1C 16 80 4A A1 80 0E 01  ....thk2...J....
0F60: A0 80 0E 01 1C 16 80 27  10 A1 80 0E 01 06 1C 19  .......'........
0F70: 80 52 0C 80 F0 FF FF 7F  F0 FF FF 7F 30 34 30 6B  .R..........040k
0F80: 45 0C 80 F0 FF FF 7F F0  FF FF 7F 30 34 30 6C 0D  E..........040l.
0F90: 80 1C 1D 80 2B A1 80 0E  01 50 80 2A 10 A1 80 0E  ....+....P.*....
0FA0: 01 1C 16 80 23 2A 10 A1  80 0E 01 52 0C 80 F0 FF  ....#*.....R....
0FB0: FF 7F F0 FF FF 7F 30 34  30 6C 45 0C 80 F0 FF FF  ......040lE.....
0FC0: 7F F0 FF FF 7F 30 34 30  6D 0D 80 2B A0 80 0E 01  .....040m..+....
0FD0: 51 80 23 52 0C 80 F0 FF  FF 7F F0 FF FF 7F 30 34  Q.#R..........04
0FE0: 30 6D 45 0C 80 F0 FF FF  7F F0 FF FF 7F 30 34 30  0mE..........040
0FF0: 6E 0D 80 2B A1 80 0E 01  52 80 23 52 0C 80 F0 FF  n..+....R.#R....
1000: FF 7F F0 FF FF 7F 30 34  30 6E 45 0C 80 F0 FF FF  ......040nE.....
1010: 7F F0 FF FF 7F 30 34 30  6F 0D 80 5B 53 80 A0 80  .....040o..[S...
1020: 0E 01 A0 80 0E 01 74 68  61 30 2B A0 80 0E 01 54  ......tha0+....T
1030: 80 1C 19 80 23 52 0C 80  F0 FF FF 7F F0 FF FF 7F  ....#R..........
1040: 30 34 30 6F 45 0C 80 F0  FF FF 7F F0 FF FF 7F 30  040oE..........0
1050: 34 30 71 0D 80 5B 53 80  A0 80 0E 01 A0 80 0E 01  40q..[S.........
1060: 74 68 61 31 2B A1 80 0E  01 55 80 1C 19 80 23 52  tha1+....U....#R
1070: 0C 80 F0 FF FF 7F F0 FF  FF 7F 30 34 30 71 45 0C  ..........040qE.
1080: 80 F0 FF FF 7F F0 FF FF  7F 62 6C 39 38 0D 80 45  .........bl98..E
1090: 0C 80 F0 FF FF 7F F0 FF  FF 7F 30 34 30 72 0D 80  ..........040r..
10A0: 2B A0 80 0E 01 56 80 5B  4F 80 A0 80 0E 01 A0 80  +....V.[O.......
10B0: 0E 01 6E 6F 30 30 1C 16  80 27 10 A0 80 0E 01 03  ..no00...'......
10C0: 27 10 61 80 0E 01 04 1C  16 80 4A F0 FF FF 7F A0  '.a.......J.....
10D0: 80 0E 01 1C 1D 80 1A AD  15 27 10 A1 80 0E 01 03  .........'......
10E0: 27 10 0A 80 0E 01 11 2A  10 A0 80 0E 01 27 10 61  '......*.....'.a
10F0: 80 0E 01 03 1C 1D 80 27  10 A0 80 0E 01 04 7B A0  .......'......{.
1100: 80 0E 01 7B F0 FF FF 7F  27 10 F0 FF FF 7F 4D 59  ...{....'.....MY
1110: 05 A0 80 0E 01 01 BA A0  80 0E 01 57 80 58 80 03  ...........W.X..
1120: 80 59 80 02 02 10 0F 80  80 3B 11 BA A0 80 0E 01  .Y.......;......
1130: 57 80 58 80 5A 80 59 80  01 6B 11 02 02 10 10 80  W.X.Z.Y..k......
1140: 80 53 11 BA A0 80 0E 01  57 80 58 80 5A 80 59 80  .S......W.X.Z.Y.
1150: 01 6B 11 02 02 10 14 80  80 6B 11 BA A0 80 0E 01  .k.......k......
1160: 57 80 58 80 5A 80 59 80  01 6B 11 1C 09 80 52 0C  W.X.Z.Y..k....R.
1170: 80 F0 FF FF 7F F0 FF FF  7F 30 34 30 72 45 0C 80  .........040rE..
1180: F0 FF FF 7F F0 FF FF 7F  62 6C 6F 66 0D 80 45 0C  ........blof..E.
1190: 80 F0 FF FF 7F F0 FF FF  7F 6B 61 69 66 0D 80 45  .........kaif..E
11A0: 0C 80 F0 FF FF 7F F0 FF  FF 7F 30 34 30 73 0D 80  ..........040s..
11B0: 1A 8C 15 1C 1D 80 5B 0A  80 0A 80 0E 01 0A 80 0E  ......[.........
11C0: 01 74 68 6B 32 2B 0A 80  0E 01 5B 80 1C 1D 80 4A  .thk2+....[....J
11D0: F0 FF FF 7F 0A 80 0E 01  1C 19 80 23 52 0C 80 F0  ...........#R...
11E0: FF FF 7F F0 FF FF 7F 30  34 30 73 45 0C 80 F0 FF  .......040sE....
11F0: FF 7F F0 FF FF 7F 30 34  30 74 0D 80 4A 0A 80 0E  ......040t..J...
1200: 01 F0 FF FF 7F 5B 0A 80  0A 80 0E 01 0A 80 0E 01  .....[..........
1210: 74 6C 6B 30 2B 0A 80 0E  01 5C 80 1C 19 80 23 5B  tlk0+....\....#[
1220: 0A 80 0A 80 0E 01 0A 80  0E 01 74 6C 6B 31 2B 0A  ..........tlk1+.
1230: 80 0E 01 5D 80 1C 19 80  23 52 0C 80 F0 FF FF 7F  ...]....#R......
1240: F0 FF FF 7F 30 34 30 74  45 0C 80 F0 FF FF 7F F0  ....040tE.......
1250: FF FF 7F 30 34 30 76 0D  80 5B 0A 80 0A 80 0E 01  ...040v..[......
1260: 0A 80 0E 01 74 68 6B 31  7B 0A 80 0E 01 2B 0A 80  ....thk1{....+..
1270: 0E 01 5E 80 1C 16 80 23  2B 0A 80 0E 01 5F 80 23  ..^....#+...._.#
1280: 52 0C 80 F0 FF FF 7F F0  FF FF 7F 30 34 30 76 45  R..........040vE
1290: 0C 80 F0 FF FF 7F F0 FF  FF 7F 30 34 30 75 0D 80  ..........040u..
12A0: 5B 0A 80 0A 80 0E 01 0A  80 0E 01 74 68 6B 32 79  [..........thk2y
12B0: 00 0A 80 0E 01 F0 FF FF  7F 2B 0A 80 0E 01 60 80  .........+....`.
12C0: 1C 16 80 23 5B 0A 80 0A  80 0E 01 0A 80 0E 01 74  ...#[..........t
12D0: 68 6B 31 7B 0A 80 0E 01  2B 0A 80 0E 01 61 80 23  hk1{....+....a.#
12E0: 52 0C 80 F0 FF FF 7F F0  FF FF 7F 30 34 30 75 45  R..........040uE
12F0: 0C 80 F0 FF FF 7F F0 FF  FF 7F 30 34 30 77 0D 80  ..........040w..
1300: 1C 19 80 5B 0A 80 0A 80  0E 01 0A 80 0E 01 74 68  ...[..........th
1310: 6B 32 79 00 0A 80 0E 01  F0 FF FF 7F 2B 0A 80 0E  k2y.........+...
1320: 01 62 80 1C 16 80 23 2B  0A 80 0E 01 63 80 23 52  .b....#+....c.#R
1330: 0C 80 F0 FF FF 7F F0 FF  FF 7F 30 34 30 77 02 02  ..........040w..
1340: 10 0B 80 80 5A 13 45 0C  80 F0 FF FF 7F F0 FF FF  ....Z.E.........
1350: 7F 34 6D 64 31 0D 80 01  1E 14 02 02 10 0E 80 80  .4md1...........
1360: 76 13 45 0C 80 F0 FF FF  7F F0 FF FF 7F 34 6D 64  v.E..........4md
1370: 31 0D 80 01 1E 14 02 02  10 0F 80 80 92 13 45 0C  1.............E.
1380: 80 F0 FF FF 7F F0 FF FF  7F 34 68 69 31 0D 80 01  .........4hi1...
1390: 1E 14 02 02 10 10 80 80  AE 13 45 0C 80 F0 FF FF  ..........E.....
13A0: 7F F0 FF FF 7F 34 68 69  31 0D 80 01 1E 14 02 02  .....4hi1.......
13B0: 10 11 80 80 CA 13 45 0C  80 F0 FF FF 7F F0 FF FF  ......E.........
13C0: 7F 34 73 68 31 0D 80 01  1E 14 02 02 10 12 80 80  .4sh1...........
13D0: E6 13 45 0C 80 F0 FF FF  7F F0 FF FF 7F 34 73 68  ..E..........4sh
13E0: 31 0D 80 01 1E 14 02 02  10 13 80 80 02 14 45 0C  1.............E.
13F0: 80 F0 FF FF 7F F0 FF FF  7F 34 6D 64 31 0D 80 01  .........4md1...
1400: 1E 14 02 02 10 14 80 80  1E 14 45 0C 80 F0 FF FF  ..........E.....
1410: 7F F0 FF FF 7F 34 68 69  31 0D 80 01 1E 14 1C 19  .....4hi1.......
1420: 80 CD 16 80 F0 FF FF 7F  A0 80 0E 01 62 30 30 30  ............b000
1430: 0D 80 1C 64 80 CD 16 80  F0 FF FF 7F A0 80 0E 01  ...d............
1440: 62 30 30 31 0D 80 1C 65  80 CD 16 80 F0 FF FF 7F  b001...e........
1450: A0 80 0E 01 62 30 30 32  0D 80 1C 09 80 1A 6B 15  ....b002......k.
1460: 52 0C 80 F0 FF FF 7F F0  FF FF 7F 34 6D 64 31 52  R..........4md1R
1470: 0C 80 F0 FF FF 7F F0 FF  FF 7F 34 68 69 31 52 0C  ..........4hi1R.
1480: 80 F0 FF FF 7F F0 FF FF  7F 34 73 68 31 59 05 A2  .........4sh1Y..
1490: 80 0E 01 00 27 10 F0 FF  FF 7F 4D 1C 0A 80 46 00  ....'.....M...F.
14A0: 45 66 80 F0 FF FF 7F F0  FF FF 7F 71 73 74 63 0D  Ef.........qstc.
14B0: 80 45 22 80 F0 FF FF 7F  F0 FF FF 7F 66 64 69 32  .E".........fdi2
14C0: 0D 80 21 00                                       ..!.            
```

#### Opcodes

```
  0: 0x0344 [0x42] SET_CLI_EVENT_CANCEL_DATA()
  1: 0x0345 [0x1A] CALL_SUBROUTINE(address=0x156B)
  2: 0x0348 [0x46] CAMERA_CONTROL: Disable user control
  3: 0x034A [0x38] SET_CLIENT_EVENT_MODE(mode=19*)
  4: 0x034D [0x4E] SET_ENTITY_HIDE_FLAG: Show Thierride (ID: 17727498/0x010E800A)
  5: 0x0353 [0x4E] SET_ENTITY_HIDE_FLAG: Show Thierride (ID: 17727649/0x010E80A1)
  6: 0x0359 [0x4E] SET_ENTITY_HIDE_FLAG: Show Lilisette (ID: 17727648/0x010E80A0)
  7: 0x035F [0x4E] SET_ENTITY_HIDE_FLAG: Show ??? (ID: 17727650/0x010E80A2)
  8: 0x0365 [0x92] Thierride (ID: 17727498/0x010E800A)->Render.Flags3 ^= 0x01
  9: 0x036B [0x92] Gulemont (ID: 17727499/0x010E800B)->Render.Flags3 ^= 0x01
 10: 0x0371 [0x92] Ilgusin (ID: 17727500/0x010E800C)->Render.Flags3 ^= 0x01
 11: 0x0377 [0x92] Antreneau (ID: 17727501/0x010E800D)->Render.Flags3 ^= 0x01
 12: 0x037D [0x92] Nogelle (ID: 17727502/0x010E800E)->Render.Flags3 ^= 0x01
 13: 0x0383 [0x92] Croumangue (ID: 17727503/0x010E800F)->Render.Flags3 ^= 0x01
 14: 0x0389 [0x92] Raqtibahl (ID: 17727621/0x010E8085)->Render.Flags3 ^= 0x01
 15: 0x038F [0x92] Perdiouvilet (ID: 17727620/0x010E8084)->Render.Flags3 ^= 0x01
 16: 0x0395 [0x92] Thierride (ID: 17727649/0x010E80A1)->Render.Flags3 ^= 0x01
 17: 0x039B [0x92] ??? (ID: 17727650/0x010E80A2)->Render.Flags3 ^= 0x01
 18: 0x03A1 [0x92] Lilisette (ID: 17727648/0x010E80A0)->Render.Flags3 ^= 0x01
 19: 0x03A7 [0x94] LocalPlayer->Render.Flags3 ^= 0x01
 20: 0x03AD [0x94] Thierride (ID: 17727498/0x010E800A)->Render.Flags3 ^= 0x01
 21: 0x03B3 [0xBA] SET_ENTITY_POSITION(entity_id=LocalPlayer, pos_x=-67.549*, pos_z=-32.352*, pos_y=-5.496*, direction=272.1°*)
 22: 0x03C0 [0xBA] SET_ENTITY_POSITION(entity_id=Thierride (ID: 17727498/0x010E800A), pos_x=-67.449*, pos_z=-29.000*, pos_y=-5.496*, direction=264.6°*)
 23: 0x03CD [0xBA] SET_ENTITY_POSITION(entity_id=Thierride (ID: 17727649/0x010E80A1), pos_x=-67.449*, pos_z=-29.000*, pos_y=-5.496*, direction=264.6°*)
 24: 0x03DA [0xBA] SET_ENTITY_POSITION(entity_id=??? (ID: 17727650/0x010E80A2), pos_x=-67.449*, pos_z=0.000*, pos_y=5.496*, direction=0.0°*)
 25: 0x03E7 [0xBA] SET_ENTITY_POSITION(entity_id=Lilisette (ID: 17727648/0x010E80A0), pos_x=-56.215*, pos_z=-36.001*, pos_y=-4.500*, direction=190.0°*)
 26: 0x03F4 [0x80] LOAD_WAIT(entity=LocalPlayer)
 27: 0x03F9 [0x80] LOAD_WAIT(entity=Thierride (ID: 17727498/0x010E800A))
 28: 0x03FE [0x80] LOAD_WAIT(entity=Gulemont (ID: 17727499/0x010E800B))
 29: 0x0403 [0x80] LOAD_WAIT(entity=Ilgusin (ID: 17727500/0x010E800C))
 30: 0x0408 [0x80] LOAD_WAIT(entity=Antreneau (ID: 17727501/0x010E800D))
 31: 0x040D [0x80] LOAD_WAIT(entity=Nogelle (ID: 17727502/0x010E800E))
 32: 0x0412 [0x80] LOAD_WAIT(entity=Croumangue (ID: 17727503/0x010E800F))
 33: 0x0417 [0x80] LOAD_WAIT(entity=Raqtibahl (ID: 17727621/0x010E8085))
 34: 0x041C [0x80] LOAD_WAIT(entity=Perdiouvilet (ID: 17727620/0x010E8084))
 35: 0x0421 [0x80] LOAD_WAIT(entity=Lilisette (ID: 17727648/0x010E80A0))
 36: 0x0426 [0x75] LOAD_ROOM(Load indoor room, room=365*)
 37: 0x042A [0x75] LOAD_ROOM(No action)
 38: 0x042C [0x1C] WAIT(180* ticks)
 39: 0x042F [0x4A] LocalPlayer looks at Thierride (ID: 17727498/0x010E800A)
 40: 0x0438 [0x4A] Thierride (ID: 17727498/0x010E800A) looks at LocalPlayer
 41: 0x0441 [0x27] REQ_SET(priority=0x10, entity_id=Door:"Rusty Anchor" (ID: 17727585/0x010E8061), tag_num=0x03)
 42: 0x0448 [0x27] REQ_SET(priority=0x10, entity_id=Thierride (ID: 17727649/0x010E80A1), tag_num=0x03)
 43: 0x044F [0x27] REQ_SET(priority=0x10, entity_id=Lilisette (ID: 17727648/0x010E80A0), tag_num=0x04)
 44: 0x0456 [0x1C] WAIT(30* ticks)
 45: 0x0459 [0x45] LOAD_SCHEDULED_TASK: Load scheduler "0400" with entities [LocalPlayer, LocalPlayer], work=[549*, 0*]
 46: 0x046A [0x1A] CALL_SUBROUTINE(address=0x154A)
 47: 0x046D [0x2B] Thierride (ID: 17727498/0x010E800A) [11504*]:
    → "Ah, you're back. I trust you had no difficulty making the delivery in good speed. And now, for good or ill, the moment of truth is come. What words did Amaura have for me?"
 48: 0x0474 [0x23] WAIT_FOR_DIALOG_INTERACTION
 49: 0x0475 [0x52] END_LOAD_SCHEDULER: End scheduler "0400" with entities [LocalPlayer, LocalPlayer], work=549*
 50: 0x0484 [0x29] REQ_SET_WAIT(priority=0x10, entity_id=LocalPlayer, tag_num=0x3F)
 51: 0x048B [0x02] IF !(Work_Zone[2] == 1*) GOTO 0x04A7
 52: 0x0493 [0x45] LOAD_SCHEDULED_TASK: Load scheduler "4md0" with entities [LocalPlayer, LocalPlayer], work=[549*, 0*]
 53: 0x04A4 [0x01] GOTO 0x056B
 54: 0x04A7 [0x02] IF !(Work_Zone[2] == 2*) GOTO 0x04C3
 55: 0x04AF [0x45] LOAD_SCHEDULED_TASK: Load scheduler "4md0" with entities [LocalPlayer, LocalPlayer], work=[549*, 0*]
 56: 0x04C0 [0x01] GOTO 0x056B
 57: 0x04C3 [0x02] IF !(Work_Zone[2] == 3*) GOTO 0x04DF
 58: 0x04CB [0x45] LOAD_SCHEDULED_TASK: Load scheduler "4hi0" with entities [LocalPlayer, LocalPlayer], work=[549*, 0*]
 59: 0x04DC [0x01] GOTO 0x056B
 60: 0x04DF [0x02] IF !(Work_Zone[2] == 4*) GOTO 0x04FB
 61: 0x04E7 [0x45] LOAD_SCHEDULED_TASK: Load scheduler "4hi0" with entities [LocalPlayer, LocalPlayer], work=[549*, 0*]
 62: 0x04F8 [0x01] GOTO 0x056B
 63: 0x04FB [0x02] IF !(Work_Zone[2] == 5*) GOTO 0x0517
 64: 0x0503 [0x45] LOAD_SCHEDULED_TASK: Load scheduler "4sh0" with entities [LocalPlayer, LocalPlayer], work=[549*, 0*]
 65: 0x0514 [0x01] GOTO 0x056B
 66: 0x0517 [0x02] IF !(Work_Zone[2] == 6*) GOTO 0x0533
 67: 0x051F [0x45] LOAD_SCHEDULED_TASK: Load scheduler "4sh0" with entities [LocalPlayer, LocalPlayer], work=[549*, 0*]
 68: 0x0530 [0x01] GOTO 0x056B
 69: 0x0533 [0x02] IF !(Work_Zone[2] == 7*) GOTO 0x054F
 70: 0x053B [0x45] LOAD_SCHEDULED_TASK: Load scheduler "4md0" with entities [LocalPlayer, LocalPlayer], work=[549*, 0*]
 71: 0x054C [0x01] GOTO 0x056B
 72: 0x054F [0x02] IF !(Work_Zone[2] == 8*) GOTO 0x056B
 73: 0x0557 [0x45] LOAD_SCHEDULED_TASK: Load scheduler "4hi0" with entities [LocalPlayer, LocalPlayer], work=[549*, 0*]
 74: 0x0568 [0x01] GOTO 0x056B

SUBROUTINE_056B:
 75: 0x056B [0x27] REQ_SET(priority=0x10, entity_id=LocalPlayer, tag_num=0x41)
 76: 0x0572 [0x1C] WAIT(180* ticks)
 77: 0x0575 [0x27] REQ_SET(priority=0x10, entity_id=LocalPlayer, tag_num=0x42)
 78: 0x057C [0x1C] WAIT(150* ticks)
 79: 0x057F [0x52] END_LOAD_SCHEDULER: End scheduler "4hi0" with entities [LocalPlayer, LocalPlayer], work=549*
 80: 0x058E [0x52] END_LOAD_SCHEDULER: End scheduler "4md0" with entities [LocalPlayer, LocalPlayer], work=549*
 81: 0x059D [0x52] END_LOAD_SCHEDULER: End scheduler "4sh0" with entities [LocalPlayer, LocalPlayer], work=549*
 82: 0x05AC [0x45] LOAD_SCHEDULED_TASK: Load scheduler "0403" with entities [LocalPlayer, LocalPlayer], work=[549*, 0*]
 83: 0x05BD [0x5B] LOAD_EXT_SCHEDULER: Load scheduler "tlk0" with entities [Thierride (ID: 17727498/0x010E800A), Thierride (ID: 17727498/0x010E800A)], work=30*
 84: 0x05CC [0x2B] Thierride (ID: 17727498/0x010E800A) [11505*]:
    → "Truly? Naught is more heartening than a vote of confidence from her. I can now add the dish to my establishment's menu without reserve."
 85: 0x05D3 [0x23] WAIT_FOR_DIALOG_INTERACTION
 86: 0x05D4 [0x52] END_LOAD_SCHEDULER: End scheduler "0403" with entities [LocalPlayer, LocalPlayer], work=549*
 87: 0x05E3 [0x45] LOAD_SCHEDULED_TASK: Load scheduler "0402" with entities [LocalPlayer, LocalPlayer], work=[549*, 0*]
 88: 0x05F4 [0x2B] Thierride (ID: 17727498/0x010E800A) [11506*]:
    → "Now then, I believe you had a request for me. By way of thanks, I shall do all in my power to assist you."
 89: 0x05FB [0x23] WAIT_FOR_DIALOG_INTERACTION
 90: 0x05FC [0x5B] LOAD_EXT_SCHEDULER: Load scheduler "tlk1" with entities [Thierride (ID: 17727498/0x010E800A), Thierride (ID: 17727498/0x010E800A)], work=30*
 91: 0x060B [0x2B] Thierride (ID: 17727498/0x010E800A) [11507*]:
    → "You were searching for a friend, I believe. Describe her to me, and we shall see whether she has indeed been here."
 92: 0x0612 [0x23] WAIT_FOR_DIALOG_INTERACTION
 93: 0x0613 [0x27] REQ_SET(priority=0x10, entity_id=LocalPlayer, tag_num=0x41)
 94: 0x061A [0x1C] WAIT(180* ticks)
 95: 0x061D [0x27] REQ_SET(priority=0x10, entity_id=LocalPlayer, tag_num=0x42)
 96: 0x0624 [0x52] END_LOAD_SCHEDULER: End scheduler "0402" with entities [LocalPlayer, LocalPlayer], work=549*
 97: 0x0633 [0x45] LOAD_SCHEDULED_TASK: Load scheduler "0401" with entities [LocalPlayer, LocalPlayer], work=[549*, 0*]
 98: 0x0644 [0x5B] LOAD_EXT_SCHEDULER: Load scheduler "thk1" with entities [Thierride (ID: 17727498/0x010E800A), Thierride (ID: 17727498/0x010E800A)], work=30*
 99: 0x0653 [0x2B] Thierride (ID: 17727498/0x010E800A) [11508*]:
    → "Hmmm... A girl born of Hume and Elvaan parents, with hair kissed by fire..."
100: 0x065A [0x23] WAIT_FOR_DIALOG_INTERACTION
101: 0x065B [0x1C] WAIT(120* ticks)
102: 0x065E [0x52] END_LOAD_SCHEDULER: End scheduler "0401" with entities [LocalPlayer, LocalPlayer], work=549*
103: 0x066D [0x45] LOAD_SCHEDULED_TASK: Load scheduler "0404" with entities [LocalPlayer, LocalPlayer], work=[549*, 0*]
104: 0x067E [0x5B] LOAD_EXT_SCHEDULER: Load scheduler "thk2" with entities [Thierride (ID: 17727498/0x010E800A), Thierride (ID: 17727498/0x010E800A)], work=30*
105: 0x068D [0x2B] Thierride (ID: 17727498/0x010E800A) [11509*]:
    → "Hrrrmmm... You've done me a great kindness, but I fear I may not be of much help in your quest."
106: 0x0694 [0x23] WAIT_FOR_DIALOG_INTERACTION
107: 0x0695 [0x52] END_LOAD_SCHEDULER: End scheduler "0404" with entities [LocalPlayer, LocalPlayer], work=549*
108: 0x06A4 [0x02] IF !(Work_Zone[2] == 1*) GOTO 0x06C0
109: 0x06AC [0x45] LOAD_SCHEDULED_TASK: Load scheduler "0405" with entities [LocalPlayer, LocalPlayer], work=[549*, 0*]
110: 0x06BD [0x01] GOTO 0x0784
111: 0x06C0 [0x02] IF !(Work_Zone[2] == 2*) GOTO 0x06DC
112: 0x06C8 [0x45] LOAD_SCHEDULED_TASK: Load scheduler "0405" with entities [LocalPlayer, LocalPlayer], work=[549*, 0*]
113: 0x06D9 [0x01] GOTO 0x0784
114: 0x06DC [0x02] IF !(Work_Zone[2] == 3*) GOTO 0x06F8
115: 0x06E4 [0x45] LOAD_SCHEDULED_TASK: Load scheduler "040x" with entities [LocalPlayer, LocalPlayer], work=[549*, 0*]
116: 0x06F5 [0x01] GOTO 0x0784
117: 0x06F8 [0x02] IF !(Work_Zone[2] == 4*) GOTO 0x0714
118: 0x0700 [0x45] LOAD_SCHEDULED_TASK: Load scheduler "040x" with entities [LocalPlayer, LocalPlayer], work=[549*, 0*]
119: 0x0711 [0x01] GOTO 0x0784
120: 0x0714 [0x02] IF !(Work_Zone[2] == 5*) GOTO 0x0730
121: 0x071C [0x45] LOAD_SCHEDULED_TASK: Load scheduler "0405" with entities [LocalPlayer, LocalPlayer], work=[549*, 0*]
122: 0x072D [0x01] GOTO 0x0784
123: 0x0730 [0x02] IF !(Work_Zone[2] == 6*) GOTO 0x074C
124: 0x0738 [0x45] LOAD_SCHEDULED_TASK: Load scheduler "0405" with entities [LocalPlayer, LocalPlayer], work=[549*, 0*]
125: 0x0749 [0x01] GOTO 0x0784
126: 0x074C [0x02] IF !(Work_Zone[2] == 7*) GOTO 0x0768
127: 0x0754 [0x45] LOAD_SCHEDULED_TASK: Load scheduler "0405" with entities [LocalPlayer, LocalPlayer], work=[549*, 0*]
128: 0x0765 [0x01] GOTO 0x0784
129: 0x0768 [0x02] IF !(Work_Zone[2] == 8*) GOTO 0x0784
130: 0x0770 [0x45] LOAD_SCHEDULED_TASK: Load scheduler "040x" with entities [LocalPlayer, LocalPlayer], work=[549*, 0*]
131: 0x0781 [0x01] GOTO 0x0784

SUBROUTINE_0784:
132: 0x0784 [0x7B] Thierride (ID: 17727498/0x010E800A) stops talking
133: 0x0789 [0x5B] LOAD_EXT_SCHEDULER: Load scheduler "thk1" with entities [Thierride (ID: 17727498/0x010E800A), Thierride (ID: 17727498/0x010E800A)], work=30*
134: 0x0798 [0x2B] Thierride (ID: 17727498/0x010E800A) [11510*]:
    → "I could've sworn seeing who you describe...yet I can say neither when nor where that was."
135: 0x079F [0x23] WAIT_FOR_DIALOG_INTERACTION
136: 0x07A0 [0x7B] LocalPlayer stops talking
137: 0x07A5 [0x6E] LocalPlayer uses emote 19*
138: 0x07AC [0x99] Wait for LocalPlayer animation to complete
139: 0x07B1 [0x1C] WAIT(180* ticks)
140: 0x07B4 [0x27] REQ_SET(priority=0x10, entity_id=LocalPlayer, tag_num=0x51)
141: 0x07BB [0x1C] WAIT(90* ticks)
142: 0x07BE [0x52] END_LOAD_SCHEDULER: End scheduler "0405" with entities [LocalPlayer, LocalPlayer], work=549*
143: 0x07CD [0x52] END_LOAD_SCHEDULER: End scheduler "040x" with entities [LocalPlayer, LocalPlayer], work=549*
144: 0x07DC [0x02] IF !(Work_Zone[2] == 1*) GOTO 0x07F8
145: 0x07E4 [0x45] LOAD_SCHEDULED_TASK: Load scheduler "4fm0" with entities [LocalPlayer, LocalPlayer], work=[549*, 0*]
146: 0x07F5 [0x01] GOTO 0x08BC
147: 0x07F8 [0x02] IF !(Work_Zone[2] == 2*) GOTO 0x0814
148: 0x0800 [0x45] LOAD_SCHEDULED_TASK: Load scheduler "4fh0" with entities [LocalPlayer, LocalPlayer], work=[549*, 0*]
149: 0x0811 [0x01] GOTO 0x08BC
150: 0x0814 [0x02] IF !(Work_Zone[2] == 3*) GOTO 0x0830
151: 0x081C [0x45] LOAD_SCHEDULED_TASK: Load scheduler "4em0" with entities [LocalPlayer, LocalPlayer], work=[549*, 0*]
152: 0x082D [0x01] GOTO 0x08BC
153: 0x0830 [0x02] IF !(Work_Zone[2] == 4*) GOTO 0x084C
154: 0x0838 [0x45] LOAD_SCHEDULED_TASK: Load scheduler "4eh0" with entities [LocalPlayer, LocalPlayer], work=[549*, 0*]
155: 0x0849 [0x01] GOTO 0x08BC
156: 0x084C [0x02] IF !(Work_Zone[2] == 5*) GOTO 0x0868
157: 0x0854 [0x45] LOAD_SCHEDULED_TASK: Load scheduler "4tr0" with entities [LocalPlayer, LocalPlayer], work=[549*, 0*]
158: 0x0865 [0x01] GOTO 0x08BC
159: 0x0868 [0x02] IF !(Work_Zone[2] == 6*) GOTO 0x0884
160: 0x0870 [0x45] LOAD_SCHEDULED_TASK: Load scheduler "4tr0" with entities [LocalPlayer, LocalPlayer], work=[549*, 0*]
161: 0x0881 [0x01] GOTO 0x08BC
162: 0x0884 [0x02] IF !(Work_Zone[2] == 7*) GOTO 0x08A0
163: 0x088C [0x45] LOAD_SCHEDULED_TASK: Load scheduler "4mt0" with entities [LocalPlayer, LocalPlayer], work=[549*, 0*]
164: 0x089D [0x01] GOTO 0x08BC
165: 0x08A0 [0x02] IF !(Work_Zone[2] == 8*) GOTO 0x08BC
166: 0x08A8 [0x45] LOAD_SCHEDULED_TASK: Load scheduler "4gl0" with entities [LocalPlayer, LocalPlayer], work=[549*, 0*]
167: 0x08B9 [0x01] GOTO 0x08BC

SUBROUTINE_08BC:
168: 0x08BC [0x2A] GET_REQ_LEVEL(level=16, entity_id=LocalPlayer)
169: 0x08C2 [0x1A] CALL_SUBROUTINE(address=0x16BE)
170: 0x08C5 [0x1A] CALL_SUBROUTINE(address=0x158C)
171: 0x08C8 [0x1A] CALL_SUBROUTINE(address=0x15AD)
172: 0x08CB [0x7B] Thierride (ID: 17727498/0x010E800A) stops talking
173: 0x08D0 [0x4B] UPDATE_ENTITY_YAW(entity=Thierride (ID: 17727498/0x010E800A), yaw=5.6°*)
174: 0x08D7 [0x27] REQ_SET(priority=0x10, entity_id=Thierride (ID: 17727498/0x010E800A), tag_num=0x10)
175: 0x08DE [0x27] REQ_SET(priority=0x10, entity_id=Thierride (ID: 17727649/0x010E80A1), tag_num=0x04)
176: 0x08E5 [0x29] REQ_SET_WAIT(priority=0x10, entity_id=LocalPlayer, tag_num=0x43)
177: 0x08EC [0x1C] WAIT(60* ticks)
178: 0x08EF [0x27] REQ_SET(priority=0x10, entity_id=LocalPlayer, tag_num=0x4C)
179: 0x08F6 [0x27] REQ_SET(priority=0x10, entity_id=Lilisette (ID: 17727648/0x010E80A0), tag_num=0x05)
180: 0x08FD [0x4A] Antreneau (ID: 17727501/0x010E800D) looks at Nogelle (ID: 17727502/0x010E800E)
181: 0x0906 [0x4A] Nogelle (ID: 17727502/0x010E800E) looks at Antreneau (ID: 17727501/0x010E800D)
182: 0x090F [0x1C] WAIT(180* ticks)
183: 0x0912 [0x66] LOAD_EXT_SCHEDULER_MAIN: Load scheduler "tlk0" with entities [Antreneau (ID: 17727501/0x010E800D), Antreneau (ID: 17727501/0x010E800D)], work=20*
184: 0x0921 [0x66] LOAD_EXT_SCHEDULER_MAIN: Load scheduler "tlk0" with entities [Ilgusin (ID: 17727500/0x010E800C), Ilgusin (ID: 17727500/0x010E800C)], work=20*
185: 0x0930 [0x52] END_LOAD_SCHEDULER: End scheduler "4fm0" with entities [LocalPlayer, LocalPlayer], work=549*
186: 0x093F [0x52] END_LOAD_SCHEDULER: End scheduler "4fh0" with entities [LocalPlayer, LocalPlayer], work=549*
187: 0x094E [0x52] END_LOAD_SCHEDULER: End scheduler "4em0" with entities [LocalPlayer, LocalPlayer], work=549*
188: 0x095D [0x52] END_LOAD_SCHEDULER: End scheduler "4eh0" with entities [LocalPlayer, LocalPlayer], work=549*
189: 0x096C [0x52] END_LOAD_SCHEDULER: End scheduler "4tr0" with entities [LocalPlayer, LocalPlayer], work=549*
190: 0x097B [0x52] END_LOAD_SCHEDULER: End scheduler "4mt0" with entities [LocalPlayer, LocalPlayer], work=549*
191: 0x098A [0x52] END_LOAD_SCHEDULER: End scheduler "4gl0" with entities [LocalPlayer, LocalPlayer], work=549*
192: 0x0999 [0x45] LOAD_SCHEDULED_TASK: Load scheduler "bl98" with entities [LocalPlayer, LocalPlayer], work=[549*, 0*]
193: 0x09AA [0x45] LOAD_SCHEDULED_TASK: Load scheduler "0407" with entities [LocalPlayer, LocalPlayer], work=[549*, 0*]
194: 0x09BB [0x1A] CALL_SUBROUTINE(address=0x16DF)
195: 0x09BE [0x1A] CALL_SUBROUTINE(address=0x158C)
196: 0x09C1 [0x1C] WAIT(60* ticks)
197: 0x09C4 [0x66] LOAD_EXT_SCHEDULER_MAIN: Load scheduler "tlk1" with entities [Antreneau (ID: 17727501/0x010E800D), Antreneau (ID: 17727501/0x010E800D)], work=20*
198: 0x09D3 [0x1C] WAIT(30* ticks)
199: 0x09D6 [0x4A] Nogelle (ID: 17727502/0x010E800E) looks at Thierride (ID: 17727498/0x010E800A)
200: 0x09DF [0x1C] WAIT(60* ticks)
201: 0x09E2 [0x66] LOAD_EXT_SCHEDULER_MAIN: Load scheduler "tlk0" with entities [Nogelle (ID: 17727502/0x010E800E), Nogelle (ID: 17727502/0x010E800E)], work=30*
202: 0x09F1 [0x1C] WAIT(120* ticks)
203: 0x09F4 [0x52] END_LOAD_SCHEDULER: End scheduler "0407" with entities [LocalPlayer, LocalPlayer], work=549*
204: 0x0A03 [0x45] LOAD_SCHEDULED_TASK: Load scheduler "0408" with entities [LocalPlayer, LocalPlayer], work=[549*, 0*]
205: 0x0A14 [0x66] LOAD_EXT_SCHEDULER_MAIN: Load scheduler "tlk1" with entities [Nogelle (ID: 17727502/0x010E800E), Nogelle (ID: 17727502/0x010E800E)], work=30*
206: 0x0A23 [0x4A] Nogelle (ID: 17727502/0x010E800E) looks at Antreneau (ID: 17727501/0x010E800D)
207: 0x0A2C [0x1C] WAIT(120* ticks)
208: 0x0A2F [0x5B] LOAD_EXT_SCHEDULER: Load scheduler "thk1" with entities [Gulemont (ID: 17727499/0x010E800B), Gulemont (ID: 17727499/0x010E800B)], work=30*
209: 0x0A3E [0x1C] WAIT(120* ticks)
210: 0x0A41 [0x52] END_LOAD_SCHEDULER: End scheduler "0408" with entities [LocalPlayer, LocalPlayer], work=549*
211: 0x0A50 [0x45] LOAD_SCHEDULED_TASK: Load scheduler "0409" with entities [LocalPlayer, LocalPlayer], work=[549*, 0*]
212: 0x0A61 [0x1C] WAIT(60* ticks)
213: 0x0A64 [0x66] LOAD_EXT_SCHEDULER_MAIN: Load scheduler "tlk1" with entities [Ilgusin (ID: 17727500/0x010E800C), Ilgusin (ID: 17727500/0x010E800C)], work=20*
214: 0x0A73 [0x1C] WAIT(60* ticks)
215: 0x0A76 [0x27] REQ_SET(priority=0x10, entity_id=LocalPlayer, tag_num=0x44)
216: 0x0A7D [0x1C] WAIT(60* ticks)
217: 0x0A80 [0x5B] LOAD_EXT_SCHEDULER: Load scheduler "thk2" with entities [Gulemont (ID: 17727499/0x010E800B), Gulemont (ID: 17727499/0x010E800B)], work=30*
218: 0x0A8F [0x1C] WAIT(60* ticks)
219: 0x0A92 [0x27] REQ_SET(priority=0x10, entity_id=LocalPlayer, tag_num=0x53)
220: 0x0A99 [0x1C] WAIT(60* ticks)
221: 0x0A9C [0x52] END_LOAD_SCHEDULER: End scheduler "0409" with entities [LocalPlayer, LocalPlayer], work=549*
222: 0x0AAB [0x45] LOAD_SCHEDULED_TASK: Load scheduler "040a" with entities [LocalPlayer, LocalPlayer], work=[549*, 0*]
223: 0x0ABC [0x1C] WAIT(120* ticks)
224: 0x0ABF [0x52] END_LOAD_SCHEDULER: End scheduler "040a" with entities [LocalPlayer, LocalPlayer], work=549*
225: 0x0ACE [0x45] LOAD_SCHEDULED_TASK: Load scheduler "0406" with entities [LocalPlayer, LocalPlayer], work=[549*, 0*]
226: 0x0ADF [0x7A] VM_CONTROL: Reset VM for LocalPlayer
227: 0x0AE5 [0x6B] STOP_AND_IDLE: LocalPlayer stops current action and resets to idle (animation="idl0")
228: 0x0AEE [0x6E] LocalPlayer uses emote 6*
229: 0x0AF5 [0x99] Wait for LocalPlayer animation to complete
230: 0x0AFA [0x4B] UPDATE_ENTITY_YAW(entity=LocalPlayer, yaw=2.7°*)
231: 0x0B01 [0x1C] WAIT(60* ticks)
232: 0x0B04 [0x27] REQ_SET(priority=0x10, entity_id=Door:"Rusty Anchor" (ID: 17727585/0x010E8061), tag_num=0x04)
233: 0x0B0B [0x1C] WAIT(90* ticks)
234: 0x0B0E [0x4A] LocalPlayer looks at Lilisette (ID: 17727648/0x010E80A0)
235: 0x0B17 [0x1C] WAIT(30* ticks)
236: 0x0B1A [0x1C] WAIT(60* ticks)
237: 0x0B1D [0x27] REQ_SET(priority=0x10, entity_id=Lilisette (ID: 17727648/0x010E80A0), tag_num=0x02)
238: 0x0B24 [0x1C] WAIT(60* ticks)
239: 0x0B27 [0x52] END_LOAD_SCHEDULER: End scheduler "0406" with entities [LocalPlayer, LocalPlayer], work=549*
240: 0x0B36 [0x45] LOAD_SCHEDULED_TASK: Load scheduler "040b" with entities [LocalPlayer, LocalPlayer], work=[549*, 0*]
241: 0x0B47 [0x1C] WAIT(90* ticks)
242: 0x0B4A [0x6E] LocalPlayer uses emote 29*
243: 0x0B51 [0x99] Wait for LocalPlayer animation to complete
244: 0x0B56 [0x1C] WAIT(150* ticks)
245: 0x0B59 [0x52] END_LOAD_SCHEDULER: End scheduler "040b" with entities [LocalPlayer, LocalPlayer], work=549*
246: 0x0B68 [0x45] LOAD_SCHEDULED_TASK: Load scheduler "040c" with entities [LocalPlayer, LocalPlayer], work=[549*, 0*]
247: 0x0B79 [0x27] REQ_SET(priority=0x10, entity_id=Door:"Rusty Anchor" (ID: 17727585/0x010E8061), tag_num=0x03)
248: 0x0B80 [0x2B] Lilisette (ID: 17727648/0x010E80A0) [11511*]:
    → "Mister Thierride!"
249: 0x0B87 [0x23] WAIT_FOR_DIALOG_INTERACTION
250: 0x0B88 [0x1C] WAIT(30* ticks)
251: 0x0B8B [0x4A] LocalPlayer looks at Lilisette (ID: 17727648/0x010E80A0)
252: 0x0B94 [0x1C] WAIT(30* ticks)
253: 0x0B97 [0x4A] Thierride (ID: 17727649/0x010E80A1) looks at Lilisette (ID: 17727648/0x010E80A0)
254: 0x0BA0 [0x1C] WAIT(60* ticks)
255: 0x0BA3 [0x5B] LOAD_EXT_SCHEDULER: Load scheduler "tlk0" with entities [Thierride (ID: 17727649/0x010E80A1), Thierride (ID: 17727649/0x010E80A1)], work=30*
256: 0x0BB2 [0x2B] Thierride (ID: 17727649/0x010E80A1) [11512*]:
    → "Why, if it isn't dear little Lilisette, come to pay visit. Have you been keeping well, lass?"
257: 0x0BB9 [0x23] WAIT_FOR_DIALOG_INTERACTION
258: 0x0BBA [0x52] END_LOAD_SCHEDULER: End scheduler "040c" with entities [LocalPlayer, LocalPlayer], work=549*
259: 0x0BC9 [0x45] LOAD_SCHEDULED_TASK: Load scheduler "040d" with entities [LocalPlayer, LocalPlayer], work=[549*, 0*]
260: 0x0BDA [0x5B] LOAD_EXT_SCHEDULER: Load scheduler "tlc0" with entities [Lilisette (ID: 17727648/0x010E80A0), Lilisette (ID: 17727648/0x010E80A0)], work=2132*
261: 0x0BE9 [0x5B] LOAD_EXT_SCHEDULER: Load scheduler "tlk1" with entities [Thierride (ID: 17727649/0x010E80A1), Thierride (ID: 17727649/0x010E80A1)], work=30*
262: 0x0BF8 [0x2B] Lilisette (ID: 17727648/0x010E80A0) [11513*]:
    → "But of course! Have you ever known me to keep unwell?"
263: 0x0BFF [0x1C] WAIT(150* ticks)
264: 0x0C02 [0x23] WAIT_FOR_DIALOG_INTERACTION
265: 0x0C03 [0x5B] LOAD_EXT_SCHEDULER: Load scheduler "tlc1" with entities [Lilisette (ID: 17727648/0x010E80A0), Lilisette (ID: 17727648/0x010E80A0)], work=2132*
266: 0x0C12 [0x5B] LOAD_EXT_SCHEDULER: Load scheduler "tlk0" with entities [Thierride (ID: 17727649/0x010E80A1), Thierride (ID: 17727649/0x010E80A1)], work=30*
267: 0x0C21 [0x2B] Thierride (ID: 17727649/0x010E80A1) [11514*]:
    → "Hahahaha! It pleases me to hear that. It would please me even more, however, if you would be the first to taste my new bean dish."
268: 0x0C28 [0x1C] WAIT(120* ticks)
269: 0x0C2B [0x23] WAIT_FOR_DIALOG_INTERACTION
270: 0x0C2C [0x52] END_LOAD_SCHEDULER: End scheduler "040d" with entities [LocalPlayer, LocalPlayer], work=549*
271: 0x0C3B [0x45] LOAD_SCHEDULED_TASK: Load scheduler "040e" with entities [LocalPlayer, LocalPlayer], work=[549*, 0*]
272: 0x0C4C [0x81] SET_ENTITY_BLINKING(blink_flag=0x00, entity=Lilisette (ID: 17727648/0x010E80A0))
273: 0x0C52 [0x2B] Lilisette (ID: 17727648/0x010E80A0) [11515*]:
    → "Truly!? I've been outside all day, and am hungry enough to eat a chocobo!"
274: 0x0C59 [0x5B] LOAD_EXT_SCHEDULER: Load scheduler "fd01" with entities [Lilisette (ID: 17727648/0x010E80A0), Lilisette (ID: 17727648/0x010E80A0)], work=2135*
275: 0x0C68 [0x5B] LOAD_EXT_SCHEDULER: Load scheduler "hdb0" with entities [Lilisette (ID: 17727648/0x010E80A0), Lilisette (ID: 17727648/0x010E80A0)], work=2128*
276: 0x0C77 [0x5B] LOAD_EXT_SCHEDULER: Load scheduler "tlk1" with entities [Thierride (ID: 17727649/0x010E80A1), Thierride (ID: 17727649/0x010E80A1)], work=30*
277: 0x0C86 [0x1C] WAIT(210* ticks)
278: 0x0C89 [0x23] WAIT_FOR_DIALOG_INTERACTION
279: 0x0C8A [0x52] END_LOAD_SCHEDULER: End scheduler "040e" with entities [LocalPlayer, LocalPlayer], work=549*
280: 0x0C99 [0x45] LOAD_SCHEDULED_TASK: Load scheduler "040g" with entities [LocalPlayer, LocalPlayer], work=[549*, 0*]
281: 0x0CAA [0x5B] LOAD_EXT_SCHEDULER: Load scheduler "fd00" with entities [Lilisette (ID: 17727648/0x010E80A0), Lilisette (ID: 17727648/0x010E80A0)], work=2135*
282: 0x0CB9 [0x5B] LOAD_EXT_SCHEDULER: Load scheduler "tlk0" with entities [Thierride (ID: 17727649/0x010E80A1), Thierride (ID: 17727649/0x010E80A1)], work=30*
283: 0x0CC8 [0x2B] Thierride (ID: 17727649/0x010E80A1) [11516*]:
    → "Ahahaha! As milady commands, repast shall be served this instant!"
284: 0x0CCF [0x23] WAIT_FOR_DIALOG_INTERACTION
285: 0x0CD0 [0x5B] LOAD_EXT_SCHEDULER: Load scheduler "tlk1" with entities [Thierride (ID: 17727649/0x010E80A1), Thierride (ID: 17727649/0x010E80A1)], work=30*
286: 0x0CDF [0x5B] LOAD_EXT_SCHEDULER: Load scheduler "hdb1" with entities [Lilisette (ID: 17727648/0x010E80A0), Lilisette (ID: 17727648/0x010E80A0)], work=2128*
287: 0x0CEE [0x4A] Thierride (ID: 17727649/0x010E80A1) looks at ??? (ID: 17727650/0x010E80A2)
288: 0x0CF7 [0x1C] WAIT(60* ticks)
289: 0x0CFA [0x5B] LOAD_EXT_SCHEDULER: Load scheduler "tlk0" with entities [Thierride (ID: 17727649/0x010E80A1), Thierride (ID: 17727649/0x010E80A1)], work=30*
290: 0x0D09 [0x1C] WAIT(180* ticks)
291: 0x0D0C [0x5B] LOAD_EXT_SCHEDULER: Load scheduler "tlk1" with entities [Thierride (ID: 17727649/0x010E80A1), Thierride (ID: 17727649/0x010E80A1)], work=30*
292: 0x0D1B [0x1C] WAIT(60* ticks)
293: 0x0D1E [0x52] END_LOAD_SCHEDULER: End scheduler "040g" with entities [LocalPlayer, LocalPlayer], work=549*
294: 0x0D2D [0x45] LOAD_SCHEDULED_TASK: Load scheduler "040h" with entities [LocalPlayer, LocalPlayer], work=[549*, 0*]
295: 0x0D3E [0x4A] Thierride (ID: 17727649/0x010E80A1) looks at Lilisette (ID: 17727648/0x010E80A0)
296: 0x0D47 [0x1C] WAIT(30* ticks)
297: 0x0D4A [0x5B] LOAD_EXT_SCHEDULER: Load scheduler "pas0" with entities [Thierride (ID: 17727649/0x010E80A1), Thierride (ID: 17727649/0x010E80A1)], work=30*
298: 0x0D59 [0x2B] Thierride (ID: 17727649/0x010E80A1) [11517*]:
    → "Voila! I give you my latest culinary invention! It's fresh off the cookfire, though, so do take care not to scald yourself."
299: 0x0D60 [0x1C] WAIT(210* ticks)
300: 0x0D63 [0x23] WAIT_FOR_DIALOG_INTERACTION
301: 0x0D64 [0x5B] LOAD_EXT_SCHEDULER: Load scheduler "fd01" with entities [Lilisette (ID: 17727648/0x010E80A0), Lilisette (ID: 17727648/0x010E80A0)], work=2135*
302: 0x0D73 [0x5B] LOAD_EXT_SCHEDULER: Load scheduler "key0" with entities [Lilisette (ID: 17727648/0x010E80A0), Lilisette (ID: 17727648/0x010E80A0)], work=2531*
303: 0x0D82 [0x1C] WAIT(15* ticks)
304: 0x0D85 [0x52] END_LOAD_SCHEDULER: End scheduler "040h" with entities [LocalPlayer, LocalPlayer], work=549*
305: 0x0D94 [0x45] LOAD_SCHEDULED_TASK: Load scheduler "040i" with entities [LocalPlayer, LocalPlayer], work=[549*, 0*]
306: 0x0DA5 [0x2B] Lilisette (ID: 17727648/0x010E80A0) [11518*]:
    → "Wow! It looks sooo good! Over the lips and past the gums, look out tummy here it comes!t"
307: 0x0DAC [0x1C] WAIT(120* ticks)
308: 0x0DAF [0x7B] Lilisette (ID: 17727648/0x010E80A0) stops talking
309: 0x0DB4 [0x23] WAIT_FOR_DIALOG_INTERACTION
310: 0x0DB5 [0x52] END_LOAD_SCHEDULER: End scheduler "040i" with entities [LocalPlayer, LocalPlayer], work=549*
311: 0x0DC4 [0x45] LOAD_SCHEDULED_TASK: Load scheduler "040f" with entities [LocalPlayer, LocalPlayer], work=[549*, 0*]
312: 0x0DD5 [0x81] SET_ENTITY_BLINKING(blink_flag=0x01, entity=Lilisette (ID: 17727648/0x010E80A0))
313: 0x0DDB [0x5B] LOAD_EXT_SCHEDULER: Load scheduler "f000" with entities [Lilisette (ID: 17727648/0x010E80A0), Lilisette (ID: 17727648/0x010E80A0)], work=2135*
314: 0x0DEA [0x59] UPDATE_ENTITY_DATA: ??? (ID: 17727650/0x010E80A2)->Render.Flags0 |= 0x200000
315: 0x0DF1 [0x2B] Thierride (ID: 17727649/0x010E80A1) [11519*]:
    → "Bon app<Player>itit! I eagerly await your impression!"
316: 0x0DF8 [0x23] WAIT_FOR_DIALOG_INTERACTION
317: 0x0DF9 [0x7B] Thierride (ID: 17727649/0x010E80A1) stops talking
318: 0x0DFE [0x27] REQ_SET(priority=0x10, entity_id=Thierride (ID: 17727649/0x010E80A1), tag_num=0x05)
319: 0x0E05 [0x1C] WAIT(120* ticks)
320: 0x0E08 [0x52] END_LOAD_SCHEDULER: End scheduler "040f" with entities [LocalPlayer, LocalPlayer], work=549*
321: 0x0E17 [0x45] LOAD_SCHEDULED_TASK: Load scheduler "040p" with entities [LocalPlayer, LocalPlayer], work=[549*, 0*]
322: 0x0E28 [0xBA] SET_ENTITY_POSITION(entity_id=??? (ID: 17727650/0x010E80A2), pos_x=-71.745*, pos_z=-30.000*, pos_y=7.000*, direction=0.0°*)
323: 0x0E35 [0x2A] GET_REQ_LEVEL(level=16, entity_id=Thierride (ID: 17727649/0x010E80A1))
324: 0x0E3B [0x1C] WAIT(120* ticks)
325: 0x0E3E [0xBA] SET_ENTITY_POSITION(entity_id=??? (ID: 17727650/0x010E80A2), pos_x=-71.745*, pos_z=-30.843*, pos_y=-7.000*, direction=0.0°*)
326: 0x0E4B [0x5B] LOAD_EXT_SCHEDULER: Load scheduler "tlk0" with entities [Thierride (ID: 17727649/0x010E80A1), Thierride (ID: 17727649/0x010E80A1)], work=30*
327: 0x0E5A [0x1C] WAIT(180* ticks)
328: 0x0E5D [0xC5] LOAD_SCHEDULED_TASK_ALT3: Load scheduler 0x800D3230 for entities [??? (ID: 17727650/0x010E80A2), ??? (ID: 17727650/0x010E80A2)], work=177*, param=12403
329: 0x0E6E [0x1C] WAIT(360* ticks)
330: 0x0E71 [0x5B] LOAD_EXT_SCHEDULER: Load scheduler "tlk1" with entities [Thierride (ID: 17727649/0x010E80A1), Thierride (ID: 17727649/0x010E80A1)], work=30*
331: 0x0E80 [0x1C] WAIT(120* ticks)
332: 0x0E83 [0xBA] SET_ENTITY_POSITION(entity_id=??? (ID: 17727650/0x010E80A2), pos_x=-70.000*, pos_z=-32.000*, pos_y=-7.000*, direction=0.0°*)
333: 0x0E90 [0x4A] Thierride (ID: 17727649/0x010E80A1) looks at ??? (ID: 17727650/0x010E80A2)
334: 0x0E99 [0x7B] Thierride (ID: 17727649/0x010E80A1) stops talking
335: 0x0E9E [0x1C] WAIT(120* ticks)
336: 0x0EA1 [0xBA] SET_ENTITY_POSITION(entity_id=??? (ID: 17727650/0x010E80A2), pos_x=-70.000*, pos_z=-32.000*, pos_y=7.000*, direction=0.0°*)
337: 0x0EAE [0x5B] LOAD_EXT_SCHEDULER: Load scheduler "thk1" with entities [Thierride (ID: 17727649/0x010E80A1), Thierride (ID: 17727649/0x010E80A1)], work=30*
338: 0x0EBD [0x2B] Thierride (ID: 17727649/0x010E80A1) [11520*]:
    → "...?"
339: 0x0EC4 [0x23] WAIT_FOR_DIALOG_INTERACTION
340: 0x0EC5 [0xBA] SET_ENTITY_POSITION(entity_id=??? (ID: 17727650/0x010E80A2), pos_x=0.000*, pos_z=0.000*, pos_y=0.000*, direction=0.0°*)
341: 0x0ED2 [0xC5] LOAD_SCHEDULED_TASK_ALT3: Load scheduler 0x800D3173 for entities [??? (ID: 17727650/0x010E80A2), ??? (ID: 17727650/0x010E80A2)], work=177*, param=27755
342: 0x0EE3 [0x52] END_LOAD_SCHEDULER: End scheduler "040p" with entities [LocalPlayer, LocalPlayer], work=549*
343: 0x0EF2 [0x45] LOAD_SCHEDULED_TASK: Load scheduler "040j" with entities [LocalPlayer, LocalPlayer], work=[549*, 0*]
344: 0x0F03 [0x2B] Lilisette (ID: 17727648/0x010E80A0) [11521*]:
    → "Phew... Thanks for the meal, Mister Thierride!"
345: 0x0F0A [0x5B] LOAD_EXT_SCHEDULER: Load scheduler "no00" with entities [Lilisette (ID: 17727648/0x010E80A0), Lilisette (ID: 17727648/0x010E80A0)], work=2139*
346: 0x0F19 [0x1C] WAIT(180* ticks)
347: 0x0F1C [0x4A] Lilisette (ID: 17727648/0x010E80A0) looks at Thierride (ID: 17727649/0x010E80A1)
348: 0x0F25 [0x1C] WAIT(90* ticks)
349: 0x0F28 [0x23] WAIT_FOR_DIALOG_INTERACTION
350: 0x0F29 [0x52] END_LOAD_SCHEDULER: End scheduler "040j" with entities [LocalPlayer, LocalPlayer], work=549*
351: 0x0F38 [0x45] LOAD_SCHEDULED_TASK: Load scheduler "040k" with entities [LocalPlayer, LocalPlayer], work=[549*, 0*]
352: 0x0F49 [0x5B] LOAD_EXT_SCHEDULER: Load scheduler "thk2" with entities [Thierride (ID: 17727649/0x010E80A1), Thierride (ID: 17727649/0x010E80A1)], work=30*
353: 0x0F58 [0x1C] WAIT(90* ticks)
354: 0x0F5B [0x4A] Thierride (ID: 17727649/0x010E80A1) looks at Lilisette (ID: 17727648/0x010E80A0)
355: 0x0F64 [0x1C] WAIT(90* ticks)
356: 0x0F67 [0x27] REQ_SET(priority=0x10, entity_id=Thierride (ID: 17727649/0x010E80A1), tag_num=0x06)
357: 0x0F6E [0x1C] WAIT(120* ticks)
358: 0x0F71 [0x52] END_LOAD_SCHEDULER: End scheduler "040k" with entities [LocalPlayer, LocalPlayer], work=549*
359: 0x0F80 [0x45] LOAD_SCHEDULED_TASK: Load scheduler "040l" with entities [LocalPlayer, LocalPlayer], work=[549*, 0*]
360: 0x0F91 [0x1C] WAIT(60* ticks)
361: 0x0F94 [0x2B] Thierride (ID: 17727649/0x010E80A1) [11522*]:
    → "...Hm? Wh-what is it?"
362: 0x0F9B [0x2A] GET_REQ_LEVEL(level=16, entity_id=Thierride (ID: 17727649/0x010E80A1))
363: 0x0FA1 [0x1C] WAIT(90* ticks)
364: 0x0FA4 [0x23] WAIT_FOR_DIALOG_INTERACTION
365: 0x0FA5 [0x2A] GET_REQ_LEVEL(level=16, entity_id=Thierride (ID: 17727649/0x010E80A1))
366: 0x0FAB [0x52] END_LOAD_SCHEDULER: End scheduler "040l" with entities [LocalPlayer, LocalPlayer], work=549*
367: 0x0FBA [0x45] LOAD_SCHEDULED_TASK: Load scheduler "040m" with entities [LocalPlayer, LocalPlayer], work=[549*, 0*]
368: 0x0FCB [0x2B] Lilisette (ID: 17727648/0x010E80A0) [11523*]:
    → "It wasn't very good this time, though."
369: 0x0FD2 [0x23] WAIT_FOR_DIALOG_INTERACTION
370: 0x0FD3 [0x52] END_LOAD_SCHEDULER: End scheduler "040m" with entities [LocalPlayer, LocalPlayer], work=549*
371: 0x0FE2 [0x45] LOAD_SCHEDULED_TASK: Load scheduler "040n" with entities [LocalPlayer, LocalPlayer], work=[549*, 0*]
372: 0x0FF3 [0x2B] Thierride (ID: 17727649/0x010E80A1) [11524*]:
    → "Wh-what did you say!?"
373: 0x0FFA [0x23] WAIT_FOR_DIALOG_INTERACTION
374: 0x0FFB [0x52] END_LOAD_SCHEDULER: End scheduler "040n" with entities [LocalPlayer, LocalPlayer], work=549*
375: 0x100A [0x45] LOAD_SCHEDULED_TASK: Load scheduler "040o" with entities [LocalPlayer, LocalPlayer], work=[549*, 0*]
376: 0x101B [0x5B] LOAD_EXT_SCHEDULER: Load scheduler "tha0" with entities [Lilisette (ID: 17727648/0x010E80A0), Lilisette (ID: 17727648/0x010E80A0)], work=2134*
377: 0x102A [0x2B] Lilisette (ID: 17727648/0x010E80A0) [11525*]:
    → "You used a different salt, right? It's got too much edge, and isn't so flattering on the beans..."
378: 0x1031 [0x1C] WAIT(120* ticks)
379: 0x1034 [0x23] WAIT_FOR_DIALOG_INTERACTION
380: 0x1035 [0x52] END_LOAD_SCHEDULER: End scheduler "040o" with entities [LocalPlayer, LocalPlayer], work=549*
381: 0x1044 [0x45] LOAD_SCHEDULED_TASK: Load scheduler "040q" with entities [LocalPlayer, LocalPlayer], work=[549*, 0*]
382: 0x1055 [0x5B] LOAD_EXT_SCHEDULER: Load scheduler "tha1" with entities [Lilisette (ID: 17727648/0x010E80A0), Lilisette (ID: 17727648/0x010E80A0)], work=2134*
383: 0x1064 [0x2B] Thierride (ID: 17727649/0x010E80A1) [11526*]:
    → "Wh-who do you presume to be, to find fault with my cuisine!? I feed you from my own hearth, yet you have the gall to repay me with mockery!? Away with you! Begone from my sight!"
384: 0x106B [0x1C] WAIT(120* ticks)
385: 0x106E [0x23] WAIT_FOR_DIALOG_INTERACTION
386: 0x106F [0x52] END_LOAD_SCHEDULER: End scheduler "040q" with entities [LocalPlayer, LocalPlayer], work=549*
387: 0x107E [0x45] LOAD_SCHEDULED_TASK: Load scheduler "bl98" with entities [LocalPlayer, LocalPlayer], work=[549*, 0*]
388: 0x108F [0x45] LOAD_SCHEDULED_TASK: Load scheduler "040r" with entities [LocalPlayer, LocalPlayer], work=[549*, 0*]
389: 0x10A0 [0x2B] Lilisette (ID: 17727648/0x010E80A0) [11527*]:
    → "Waaah! I'm...I'm sorry, Mister Thierride! <Sob>..."
390: 0x10A7 [0x5B] LOAD_EXT_SCHEDULER: Load scheduler "no00" with entities [Lilisette (ID: 17727648/0x010E80A0), Lilisette (ID: 17727648/0x010E80A0)], work=2139*
391: 0x10B6 [0x1C] WAIT(90* ticks)
392: 0x10B9 [0x27] REQ_SET(priority=0x10, entity_id=Lilisette (ID: 17727648/0x010E80A0), tag_num=0x03)
393: 0x10C0 [0x27] REQ_SET(priority=0x10, entity_id=Door:"Rusty Anchor" (ID: 17727585/0x010E8061), tag_num=0x04)
394: 0x10C7 [0x1C] WAIT(90* ticks)
395: 0x10CA [0x4A] LocalPlayer looks at Lilisette (ID: 17727648/0x010E80A0)
396: 0x10D3 [0x1C] WAIT(60* ticks)
397: 0x10D6 [0x1A] CALL_SUBROUTINE(address=0x15AD)
398: 0x10D9 [0x27] REQ_SET(priority=0x10, entity_id=Thierride (ID: 17727649/0x010E80A1), tag_num=0x03)
399: 0x10E0 [0x27] REQ_SET(priority=0x10, entity_id=Thierride (ID: 17727498/0x010E800A), tag_num=0x11)
400: 0x10E7 [0x2A] GET_REQ_LEVEL(level=16, entity_id=Lilisette (ID: 17727648/0x010E80A0))
401: 0x10ED [0x27] REQ_SET(priority=0x10, entity_id=Door:"Rusty Anchor" (ID: 17727585/0x010E8061), tag_num=0x03)
402: 0x10F4 [0x1C] WAIT(60* ticks)
403: 0x10F7 [0x27] REQ_SET(priority=0x10, entity_id=Lilisette (ID: 17727648/0x010E80A0), tag_num=0x04)
404: 0x10FE [0x7B] Lilisette (ID: 17727648/0x010E80A0) stops talking
405: 0x1103 [0x7B] LocalPlayer stops talking
406: 0x1108 [0x27] REQ_SET(priority=0x10, entity_id=LocalPlayer, tag_num=0x4D)
407: 0x110F [0x59] UPDATE_ENTITY_DATA: Lilisette (ID: 17727648/0x010E80A0)->Render.Flags0 |= 0x200000
408: 0x1116 [0xBA] SET_ENTITY_POSITION(entity_id=Lilisette (ID: 17727648/0x010E80A0), pos_x=-65.182*, pos_z=-33.196*, pos_y=-5.496*, direction=241.4°*)
409: 0x1123 [0x02] IF !(Work_Zone[2] == 3*) GOTO 0x113B
410: 0x112B [0xBA] SET_ENTITY_POSITION(entity_id=Lilisette (ID: 17727648/0x010E80A0), pos_x=-65.182*, pos_z=-33.196*, pos_y=-5.996*, direction=241.4°*)
411: 0x1138 [0x01] GOTO 0x116B
412: 0x113B [0x02] IF !(Work_Zone[2] == 4*) GOTO 0x1153
413: 0x1143 [0xBA] SET_ENTITY_POSITION(entity_id=Lilisette (ID: 17727648/0x010E80A0), pos_x=-65.182*, pos_z=-33.196*, pos_y=-5.996*, direction=241.4°*)
414: 0x1150 [0x01] GOTO 0x116B
415: 0x1153 [0x02] IF !(Work_Zone[2] == 8*) GOTO 0x116B
416: 0x115B [0xBA] SET_ENTITY_POSITION(entity_id=Lilisette (ID: 17727648/0x010E80A0), pos_x=-65.182*, pos_z=-33.196*, pos_y=-5.996*, direction=241.4°*)
417: 0x1168 [0x01] GOTO 0x116B

SUBROUTINE_116B:
418: 0x116B [0x1C] WAIT(180* ticks)
419: 0x116E [0x52] END_LOAD_SCHEDULER: End scheduler "040r" with entities [LocalPlayer, LocalPlayer], work=549*
420: 0x117D [0x45] LOAD_SCHEDULED_TASK: Load scheduler "blof" with entities [LocalPlayer, LocalPlayer], work=[549*, 0*]
421: 0x118E [0x45] LOAD_SCHEDULED_TASK: Load scheduler "kaif" with entities [LocalPlayer, LocalPlayer], work=[549*, 0*]
422: 0x119F [0x45] LOAD_SCHEDULED_TASK: Load scheduler "040s" with entities [LocalPlayer, LocalPlayer], work=[549*, 0*]
423: 0x11B0 [0x1A] CALL_SUBROUTINE(address=0x158C)
424: 0x11B3 [0x1C] WAIT(60* ticks)
425: 0x11B6 [0x5B] LOAD_EXT_SCHEDULER: Load scheduler "thk2" with entities [Thierride (ID: 17727498/0x010E800A), Thierride (ID: 17727498/0x010E800A)], work=30*
426: 0x11C5 [0x2B] Thierride (ID: 17727498/0x010E800A) [11528*]:
    → "Ah! It's coming back to me now!"
427: 0x11CC [0x1C] WAIT(60* ticks)
428: 0x11CF [0x4A] LocalPlayer looks at Thierride (ID: 17727498/0x010E800A)
429: 0x11D8 [0x1C] WAIT(120* ticks)
430: 0x11DB [0x23] WAIT_FOR_DIALOG_INTERACTION
431: 0x11DC [0x52] END_LOAD_SCHEDULER: End scheduler "040s" with entities [LocalPlayer, LocalPlayer], work=549*
432: 0x11EB [0x45] LOAD_SCHEDULED_TASK: Load scheduler "040t" with entities [LocalPlayer, LocalPlayer], work=[549*, 0*]
433: 0x11FC [0x4A] Thierride (ID: 17727498/0x010E800A) looks at LocalPlayer
434: 0x1205 [0x5B] LOAD_EXT_SCHEDULER: Load scheduler "tlk0" with entities [Thierride (ID: 17727498/0x010E800A), Thierride (ID: 17727498/0x010E800A)], work=30*
435: 0x1214 [0x2B] Thierride (ID: 17727498/0x010E800A) [11529*]:
    → "It feels like a lifetime ago when that little red-haired girl criticized my cooking..."
436: 0x121B [0x1C] WAIT(120* ticks)
437: 0x121E [0x23] WAIT_FOR_DIALOG_INTERACTION
438: 0x121F [0x5B] LOAD_EXT_SCHEDULER: Load scheduler "tlk1" with entities [Thierride (ID: 17727498/0x010E800A), Thierride (ID: 17727498/0x010E800A)], work=30*
439: 0x122E [0x2B] Thierride (ID: 17727498/0x010E800A) [11530*]:
    → "She tore my fragile pride to shreds with her innocent words. In a fit of anger, I took leave of myself and chased the poor lass away."
440: 0x1235 [0x1C] WAIT(120* ticks)
441: 0x1238 [0x23] WAIT_FOR_DIALOG_INTERACTION
442: 0x1239 [0x52] END_LOAD_SCHEDULER: End scheduler "040t" with entities [LocalPlayer, LocalPlayer], work=549*
443: 0x1248 [0x45] LOAD_SCHEDULED_TASK: Load scheduler "040v" with entities [LocalPlayer, LocalPlayer], work=[549*, 0*]
444: 0x1259 [0x5B] LOAD_EXT_SCHEDULER: Load scheduler "thk1" with entities [Thierride (ID: 17727498/0x010E800A), Thierride (ID: 17727498/0x010E800A)], work=30*
445: 0x1268 [0x7B] Thierride (ID: 17727498/0x010E800A) stops talking
446: 0x126D [0x2B] Thierride (ID: 17727498/0x010E800A) [11531*]:
    → "After she had fled, however, I mulled over her comments...and found naught but truth in them. It was exactly as she had said regarding the seasoning."
447: 0x1274 [0x1C] WAIT(90* ticks)
448: 0x1277 [0x23] WAIT_FOR_DIALOG_INTERACTION
449: 0x1278 [0x2B] Thierride (ID: 17727498/0x010E800A) [11532*]:
    → "In retrospect, many and more of my success stories--my better-loved dishes--owe their existence to her."
450: 0x127F [0x23] WAIT_FOR_DIALOG_INTERACTION
451: 0x1280 [0x52] END_LOAD_SCHEDULER: End scheduler "040v" with entities [LocalPlayer, LocalPlayer], work=549*
452: 0x128F [0x45] LOAD_SCHEDULED_TASK: Load scheduler "040u" with entities [LocalPlayer, LocalPlayer], work=[549*, 0*]
453: 0x12A0 [0x5B] LOAD_EXT_SCHEDULER: Load scheduler "thk2" with entities [Thierride (ID: 17727498/0x010E800A), Thierride (ID: 17727498/0x010E800A)], work=30*
454: 0x12AF [0x79] Thierride (ID: 17727498/0x010E800A) looks at LocalPlayer (Basic look)
455: 0x12B9 [0x2B] Thierride (ID: 17727498/0x010E800A) [11533*]:
    → "She was undeserving of my anger. It shames me still to think of my unseemly behavior that day."
456: 0x12C0 [0x1C] WAIT(90* ticks)
457: 0x12C3 [0x23] WAIT_FOR_DIALOG_INTERACTION
458: 0x12C4 [0x5B] LOAD_EXT_SCHEDULER: Load scheduler "thk1" with entities [Thierride (ID: 17727498/0x010E800A), Thierride (ID: 17727498/0x010E800A)], work=30*
459: 0x12D3 [0x7B] Thierride (ID: 17727498/0x010E800A) stops talking
460: 0x12D8 [0x2B] Thierride (ID: 17727498/0x010E800A) [11534*]:
    → "Hrmmm... Come to think of it, there was another little girl even before then, one equally given to speaking her mind with regards to my cuisine."
461: 0x12DF [0x23] WAIT_FOR_DIALOG_INTERACTION
462: 0x12E0 [0x52] END_LOAD_SCHEDULER: End scheduler "040u" with entities [LocalPlayer, LocalPlayer], work=549*
463: 0x12EF [0x45] LOAD_SCHEDULED_TASK: Load scheduler "040w" with entities [LocalPlayer, LocalPlayer], work=[549*, 0*]
464: 0x1300 [0x1C] WAIT(120* ticks)
465: 0x1303 [0x5B] LOAD_EXT_SCHEDULER: Load scheduler "thk2" with entities [Thierride (ID: 17727498/0x010E800A), Thierride (ID: 17727498/0x010E800A)], work=30*
466: 0x1312 [0x79] Thierride (ID: 17727498/0x010E800A) looks at LocalPlayer (Basic look)
467: 0x131C [0x2B] Thierride (ID: 17727498/0x010E800A) [11535*]:
    → "But age has taken its toll, I fear, and my memory is reluctant to divulge anything in full nowadays."
468: 0x1323 [0x1C] WAIT(90* ticks)
469: 0x1326 [0x23] WAIT_FOR_DIALOG_INTERACTION
470: 0x1327 [0x2B] Thierride (ID: 17727498/0x010E800A) [11536*]:
    → "I'm sorry I couldn't be of greater help in your quest. But I promise you, when next I invent a new dish, you shall be the first to sample its savory delights."
471: 0x132E [0x23] WAIT_FOR_DIALOG_INTERACTION
472: 0x132F [0x52] END_LOAD_SCHEDULER: End scheduler "040w" with entities [LocalPlayer, LocalPlayer], work=549*
473: 0x133E [0x02] IF !(Work_Zone[2] == 1*) GOTO 0x135A
474: 0x1346 [0x45] LOAD_SCHEDULED_TASK: Load scheduler "4md1" with entities [LocalPlayer, LocalPlayer], work=[549*, 0*]
475: 0x1357 [0x01] GOTO 0x141E
476: 0x135A [0x02] IF !(Work_Zone[2] == 2*) GOTO 0x1376
477: 0x1362 [0x45] LOAD_SCHEDULED_TASK: Load scheduler "4md1" with entities [LocalPlayer, LocalPlayer], work=[549*, 0*]
478: 0x1373 [0x01] GOTO 0x141E
479: 0x1376 [0x02] IF !(Work_Zone[2] == 3*) GOTO 0x1392
480: 0x137E [0x45] LOAD_SCHEDULED_TASK: Load scheduler "4hi1" with entities [LocalPlayer, LocalPlayer], work=[549*, 0*]
481: 0x138F [0x01] GOTO 0x141E
482: 0x1392 [0x02] IF !(Work_Zone[2] == 4*) GOTO 0x13AE
483: 0x139A [0x45] LOAD_SCHEDULED_TASK: Load scheduler "4hi1" with entities [LocalPlayer, LocalPlayer], work=[549*, 0*]
484: 0x13AB [0x01] GOTO 0x141E
485: 0x13AE [0x02] IF !(Work_Zone[2] == 5*) GOTO 0x13CA
486: 0x13B6 [0x45] LOAD_SCHEDULED_TASK: Load scheduler "4sh1" with entities [LocalPlayer, LocalPlayer], work=[549*, 0*]
487: 0x13C7 [0x01] GOTO 0x141E
488: 0x13CA [0x02] IF !(Work_Zone[2] == 6*) GOTO 0x13E6
489: 0x13D2 [0x45] LOAD_SCHEDULED_TASK: Load scheduler "4sh1" with entities [LocalPlayer, LocalPlayer], work=[549*, 0*]
490: 0x13E3 [0x01] GOTO 0x141E
491: 0x13E6 [0x02] IF !(Work_Zone[2] == 7*) GOTO 0x1402
492: 0x13EE [0x45] LOAD_SCHEDULED_TASK: Load scheduler "4md1" with entities [LocalPlayer, LocalPlayer], work=[549*, 0*]
493: 0x13FF [0x01] GOTO 0x141E
494: 0x1402 [0x02] IF !(Work_Zone[2] == 8*) GOTO 0x141E
495: 0x140A [0x45] LOAD_SCHEDULED_TASK: Load scheduler "4hi1" with entities [LocalPlayer, LocalPlayer], work=[549*, 0*]
496: 0x141B [0x01] GOTO 0x141E

SUBROUTINE_141E:
497: 0x141E [0x1C] WAIT(120* ticks)
498: 0x1421 [0xCD] LOAD_SCHEDULED_TASK_ALT4: Load scheduler "b000" with entities [LocalPlayer, Lilisette (ID: 17727648/0x010E80A0)], work=[90*, 0*]
499: 0x1432 [0x1C] WAIT(300* ticks)
500: 0x1435 [0xCD] LOAD_SCHEDULED_TASK_ALT4: Load scheduler "b001" with entities [LocalPlayer, Lilisette (ID: 17727648/0x010E80A0)], work=[90*, 0*]
501: 0x1446 [0x1C] WAIT(240* ticks)
502: 0x1449 [0xCD] LOAD_SCHEDULED_TASK_ALT4: Load scheduler "b002" with entities [LocalPlayer, Lilisette (ID: 17727648/0x010E80A0)], work=[90*, 0*]
503: 0x145A [0x1C] WAIT(180* ticks)
504: 0x145D [0x1A] CALL_SUBROUTINE(address=0x156B)
505: 0x1460 [0x52] END_LOAD_SCHEDULER: End scheduler "4md1" with entities [LocalPlayer, LocalPlayer], work=549*
506: 0x146F [0x52] END_LOAD_SCHEDULER: End scheduler "4hi1" with entities [LocalPlayer, LocalPlayer], work=549*
507: 0x147E [0x52] END_LOAD_SCHEDULER: End scheduler "4sh1" with entities [LocalPlayer, LocalPlayer], work=549*
508: 0x148D [0x59] UPDATE_ENTITY_DATA: ??? (ID: 17727650/0x010E80A2)->Render.Flags0 &= ~0x200000
509: 0x1494 [0x27] REQ_SET(priority=0x10, entity_id=LocalPlayer, tag_num=0x4D)
510: 0x149B [0x1C] WAIT(30* ticks)
511: 0x149E [0x46] CAMERA_CONTROL: Restore default settings
512: 0x14A0 [0x45] LOAD_SCHEDULED_TASK: Load scheduler "qstc" with entities [LocalPlayer, LocalPlayer], work=[201*, 0*]
513: 0x14B1 [0x45] LOAD_SCHEDULED_TASK: Load scheduler "fdi2" with entities [LocalPlayer, LocalPlayer], work=[200*, 0*]
514: 0x14C2 [0x21] END_EVENT
515: 0x14C3 [0x00] END_REQSTACK()
```

### Event 794

#### Metadata

| Field        | Value     |
|--------------|-----------|
| Entrypoint   | 0x14C4    |
| Data Size    | 725 bytes |
| Instructions | 12        |

```
      00 01 02 03 04 05 06 07  08 09 0A 0B 0C 0D 0E 0F
      -- -- -- -- -- -- -- --  -- -- -- -- -- -- -- --
14C0:             42 4A 0A 80  0E 01 F0 FF FF 7F 4A F0      BJ........J.
14D0: FF FF 7F 0A 80 0E 01 1C  1D 80 5B 0A 80 0A 80 0E  ..........[.....
14E0: 01 0A 80 0E 01 74 6C 6B  30 2B 0A 80 0E 01 67 80  .....tlk0+....g.
14F0: 1C 16 80 23 5B 0A 80 0A  80 0E 01 0A 80 0E 01 74  ...#[..........t
1500: 6C 6B 31 1C 16 80 21 00  45 22 80 F0 FF FF 7F F0  lk1...!.E"......
1510: FF FF 7F 66 64 69 30 0D  80 55 22 80 F0 FF FF 7F  ...fdi0..U".....
1520: F0 FF FF 7F 66 64 69 30  1B 45 22 80 F0 FF FF 7F  ....fdi0.E".....
1530: F0 FF FF 7F 66 64 6F 30  0D 80 55 22 80 F0 FF FF  ....fdo0..U"....
1540: 7F F0 FF FF 7F 66 64 6F  30 1B 45 22 80 F0 FF FF  .....fdo0.E"....
1550: 7F F0 FF FF 7F 66 64 69  31 0D 80 55 22 80 F0 FF  .....fdi1..U"...
1560: FF 7F F0 FF FF 7F 66 64  69 31 1B 45 22 80 F0 FF  ......fdi1.E"...
1570: FF 7F F0 FF FF 7F 66 64  6F 31 0D 80 55 22 80 F0  ......fdo1..U"..
1580: FF FF 7F F0 FF FF 7F 66  64 6F 31 1B 45 66 80 F0  .......fdo1.Ef..
1590: FF FF 7F F0 FF FF 7F 77  68 69 31 0D 80 55 66 80  .......whi1..Uf.
15A0: F0 FF FF 7F F0 FF FF 7F  77 68 69 31 1B 45 66 80  ........whi1.Ef.
15B0: F0 FF FF 7F F0 FF FF 7F  77 68 6F 31 0D 80 55 66  ........who1..Uf
15C0: 80 F0 FF FF 7F F0 FF FF  7F 77 68 6F 31 1B 45 66  .........who1.Ef
15D0: 80 F0 FF FF 7F F0 FF FF  7F 77 68 6F 32 0D 80 55  .........who2..U
15E0: 66 80 F0 FF FF 7F F0 FF  FF 7F 77 68 6F 32 1B 45  f.........who2.E
15F0: 66 80 F0 FF FF 7F F0 FF  FF 7F 77 68 6F 33 0D 80  f.........who3..
1600: 55 66 80 F0 FF FF 7F F0  FF FF 7F 77 68 6F 33 1B  Uf.........who3.
1610: 62 0B 80 F0 FF FF 7F F0  FF FF 7F 6D 61 69 6E 0D  b..........main.
1620: 80 1C 68 80 45 22 80 F0  FF FF 7F F0 FF FF 7F 66  ..h.E".........f
1630: 64 6F 31 0D 80 55 22 80  F0 FF FF 7F F0 FF FF 7F  do1..U".........
1640: 66 64 6F 31 1B 45 22 80  F0 FF FF 7F F0 FF FF 7F  fdo1.E".........
1650: 66 64 69 31 0D 80 62 0E  80 F0 FF FF 7F F0 FF FF  fdi1..b.........
1660: 7F 6D 61 69 6E 0D 80 1C  0A 80 55 22 80 F0 FF FF  .main.....U"....
1670: 7F F0 FF FF 7F 66 64 69  31 1B 45 22 80 F0 FF FF  .....fdi1.E"....
1680: 7F F0 FF FF 7F 62 6C 6F  6E 0D 80 45 66 80 F0 FF  .....blon..Ef...
1690: FF 7F F0 FF FF 7F 62 6C  6F 6E 0D 80 1B 45 66 80  ......blon...Ef.
16A0: F0 FF FF 7F F0 FF FF 7F  77 68 69 30 0D 80 55 66  ........whi0..Uf
16B0: 80 F0 FF FF 7F F0 FF FF  7F 77 68 69 30 1B 45 66  .........whi0.Ef
16C0: 80 F0 FF FF 7F F0 FF FF  7F 77 68 6F 30 0D 80 55  .........who0..U
16D0: 66 80 F0 FF FF 7F F0 FF  FF 7F 77 68 6F 30 1B 45  f.........who0.E
16E0: 69 80 F0 FF FF 7F F0 FF  FF 7F 65 66 6F 6E 0D 80  i.........efon..
16F0: 55 69 80 F0 FF FF 7F F0  FF FF 7F 65 66 6F 6E 1B  Ui.........efon.
1700: 45 22 80 F0 FF FF 7F F0  FF FF 7F 66 64 69 73 0D  E".........fdis.
1710: 80 1B 45 22 80 F0 FF FF  7F F0 FF FF 7F 66 64 6F  ..E".........fdo
1720: 73 0D 80 55 22 80 F0 FF  FF 7F F0 FF FF 7F 66 64  s..U".........fd
1730: 6F 73 1B 45 22 80 F0 FF  FF 7F F0 FF FF 7F 66 64  os.E".........fd
1740: 69 66 0D 80 1B 45 22 80  F0 FF FF 7F F0 FF FF 7F  if...E".........
1750: 66 64 6F 66 0D 80 55 22  80 F0 FF FF 7F F0 FF FF  fdof..U"........
1760: 7F 66 64 6F 66 1B 45 22  80 F0 FF FF 7F F0 FF FF  .fdof.E"........
1770: 7F 66 64 69 70 0D 80 1B  45 22 80 F0 FF FF 7F F0  .fdip...E"......
1780: FF FF 7F 66 64 6F 70 0D  80 55 22 80 F0 FF FF 7F  ...fdop..U".....
1790: F0 FF FF 7F 66 64 6F 70  1B                       ....fdop.       
```

#### Opcodes

```
  0: 0x14C4 [0x42] SET_CLI_EVENT_CANCEL_DATA()
  1: 0x14C5 [0x4A] Thierride (ID: 17727498/0x010E800A) looks at LocalPlayer
  2: 0x14CE [0x4A] LocalPlayer looks at Thierride (ID: 17727498/0x010E800A)
  3: 0x14D7 [0x1C] WAIT(60* ticks)
  4: 0x14DA [0x5B] LOAD_EXT_SCHEDULER: Load scheduler "tlk0" with entities [Thierride (ID: 17727498/0x010E800A), Thierride (ID: 17727498/0x010E800A)], work=30*
  5: 0x14E9 [0x2B] Thierride (ID: 17727498/0x010E800A) [11503*]:
    → "Please see the dish delivered to Amaura before it cools."
  6: 0x14F0 [0x1C] WAIT(90* ticks)
  7: 0x14F3 [0x23] WAIT_FOR_DIALOG_INTERACTION
  8: 0x14F4 [0x5B] LOAD_EXT_SCHEDULER: Load scheduler "tlk1" with entities [Thierride (ID: 17727498/0x010E800A), Thierride (ID: 17727498/0x010E800A)], work=30*
  9: 0x1503 [0x1C] WAIT(90* ticks)
 10: 0x1506 [0x21] END_EVENT
 11: 0x1507 [0x00] END_REQSTACK()
```

#### Data or dead code:

```
# Dead code (unreachable instructions):
     0x1508 [0x45] LOAD_SCHEDULED_TASK: Load scheduler "fdi0" with entities [LocalPlayer, LocalPlayer], work=[200*, 0*]
     0x1519 [0x55] WAIT_LOAD_SCHEDULER: Wait for scheduler "fdi0" with entities [LocalPlayer, LocalPlayer], work=200*
     0x1528 [0x1B] RETURN
     0x1529 [0x45] LOAD_SCHEDULED_TASK: Load scheduler "fdo0" with entities [LocalPlayer, LocalPlayer], work=[200*, 0*]
     0x153A [0x55] WAIT_LOAD_SCHEDULER: Wait for scheduler "fdo0" with entities [LocalPlayer, LocalPlayer], work=200*
     0x1549 [0x1B] RETURN
     0x154A [0x45] LOAD_SCHEDULED_TASK: Load scheduler "fdi1" with entities [LocalPlayer, LocalPlayer], work=[200*, 0*]
     0x155B [0x55] WAIT_LOAD_SCHEDULER: Wait for scheduler "fdi1" with entities [LocalPlayer, LocalPlayer], work=200*
     0x156A [0x1B] RETURN
     0x156B [0x45] LOAD_SCHEDULED_TASK: Load scheduler "fdo1" with entities [LocalPlayer, LocalPlayer], work=[200*, 0*]
     0x157C [0x55] WAIT_LOAD_SCHEDULER: Wait for scheduler "fdo1" with entities [LocalPlayer, LocalPlayer], work=200*
     0x158B [0x1B] RETURN
     0x158C [0x45] LOAD_SCHEDULED_TASK: Load scheduler "whi1" with entities [LocalPlayer, LocalPlayer], work=[201*, 0*]
     0x159D [0x55] WAIT_LOAD_SCHEDULER: Wait for scheduler "whi1" with entities [LocalPlayer, LocalPlayer], work=201*
     0x15AC [0x1B] RETURN
     0x15AD [0x45] LOAD_SCHEDULED_TASK: Load scheduler "who1" with entities [LocalPlayer, LocalPlayer], work=[201*, 0*]
     0x15BE [0x55] WAIT_LOAD_SCHEDULER: Wait for scheduler "who1" with entities [LocalPlayer, LocalPlayer], work=201*
     0x15CD [0x1B] RETURN
     0x15CE [0x45] LOAD_SCHEDULED_TASK: Load scheduler "who2" with entities [LocalPlayer, LocalPlayer], work=[201*, 0*]
     0x15DF [0x55] WAIT_LOAD_SCHEDULER: Wait for scheduler "who2" with entities [LocalPlayer, LocalPlayer], work=201*
     0x15EE [0x1B] RETURN
     0x15EF [0x45] LOAD_SCHEDULED_TASK: Load scheduler "who3" with entities [LocalPlayer, LocalPlayer], work=[201*, 0*]
     0x1600 [0x55] WAIT_LOAD_SCHEDULER: Wait for scheduler "who3" with entities [LocalPlayer, LocalPlayer], work=201*
     0x160F [0x1B] RETURN
     0x1610 [0x62] LOAD_EVENT_SCHEDULER: Load scheduler "main" with entities [LocalPlayer, LocalPlayer], work=[1*, 0*]
     0x1621 [0x1C] WAIT(45* ticks)
     0x1624 [0x45] LOAD_SCHEDULED_TASK: Load scheduler "fdo1" with entities [LocalPlayer, LocalPlayer], work=[200*, 0*]
     0x1635 [0x55] WAIT_LOAD_SCHEDULER: Wait for scheduler "fdo1" with entities [LocalPlayer, LocalPlayer], work=200*
     0x1644 [0x1B] RETURN
     0x1645 [0x45] LOAD_SCHEDULED_TASK: Load scheduler "fdi1" with entities [LocalPlayer, LocalPlayer], work=[200*, 0*]
     0x1656 [0x62] LOAD_EVENT_SCHEDULER: Load scheduler "main" with entities [LocalPlayer, LocalPlayer], work=[2*, 0*]
     0x1667 [0x1C] WAIT(30* ticks)
     0x166A [0x55] WAIT_LOAD_SCHEDULER: Wait for scheduler "fdi1" with entities [LocalPlayer, LocalPlayer], work=200*
     0x1679 [0x1B] RETURN
     0x167A [0x45] LOAD_SCHEDULED_TASK: Load scheduler "blon" with entities [LocalPlayer, LocalPlayer], work=[200*, 0*]
     0x168B [0x45] LOAD_SCHEDULED_TASK: Load scheduler "blon" with entities [LocalPlayer, LocalPlayer], work=[201*, 0*]
     0x169C [0x1B] RETURN
     0x169D [0x45] LOAD_SCHEDULED_TASK: Load scheduler "whi0" with entities [LocalPlayer, LocalPlayer], work=[201*, 0*]
     0x16AE [0x55] WAIT_LOAD_SCHEDULER: Wait for scheduler "whi0" with entities [LocalPlayer, LocalPlayer], work=201*
     0x16BD [0x1B] RETURN
     0x16BE [0x45] LOAD_SCHEDULED_TASK: Load scheduler "who0" with entities [LocalPlayer, LocalPlayer], work=[201*, 0*]
     0x16CF [0x55] WAIT_LOAD_SCHEDULER: Wait for scheduler "who0" with entities [LocalPlayer, LocalPlayer], work=201*
     0x16DE [0x1B] RETURN
     0x16DF [0x45] LOAD_SCHEDULED_TASK: Load scheduler "efon" with entities [LocalPlayer, LocalPlayer], work=[215*, 0*]
     0x16F0 [0x55] WAIT_LOAD_SCHEDULER: Wait for scheduler "efon" with entities [LocalPlayer, LocalPlayer], work=215*
     0x16FF [0x1B] RETURN
     0x1700 [0x45] LOAD_SCHEDULED_TASK: Load scheduler "fdis" with entities [LocalPlayer, LocalPlayer], work=[200*, 0*]
     0x1711 [0x1B] RETURN
     0x1712 [0x45] LOAD_SCHEDULED_TASK: Load scheduler "fdos" with entities [LocalPlayer, LocalPlayer], work=[200*, 0*]
     0x1723 [0x55] WAIT_LOAD_SCHEDULER: Wait for scheduler "fdos" with entities [LocalPlayer, LocalPlayer], work=200*
     0x1732 [0x1B] RETURN
     0x1733 [0x45] LOAD_SCHEDULED_TASK: Load scheduler "fdif" with entities [LocalPlayer, LocalPlayer], work=[200*, 0*]
     0x1744 [0x1B] RETURN
     0x1745 [0x45] LOAD_SCHEDULED_TASK: Load scheduler "fdof" with entities [LocalPlayer, LocalPlayer], work=[200*, 0*]
     0x1756 [0x55] WAIT_LOAD_SCHEDULER: Wait for scheduler "fdof" with entities [LocalPlayer, LocalPlayer], work=200*
     0x1765 [0x1B] RETURN
     0x1766 [0x45] LOAD_SCHEDULED_TASK: Load scheduler "fdip" with entities [LocalPlayer, LocalPlayer], work=[200*, 0*]
     0x1777 [0x1B] RETURN
     0x1778 [0x45] LOAD_SCHEDULED_TASK: Load scheduler "fdop" with entities [LocalPlayer, LocalPlayer], work=[200*, 0*]
     0x1789 [0x55] WAIT_LOAD_SCHEDULER: Wait for scheduler "fdop" with entities [LocalPlayer, LocalPlayer], work=200*
     0x1798 [0x1B] RETURN
```
