# 17727688

## Common Data

| Field            | Value                     |
|------------------|---------------------------|
| Zone             | Port San d'Oria (ID: 232) |
| Block Size       | 200 bytes                 |
| Total Events     | 2                         |
| References Count | 6                         |

## List of Events

| Event ID              | Entrypoint   |   Size |   Instructions |
|-----------------------|--------------|--------|----------------|
| [65535](#event-65535) | 0x0000       |      1 |              1 |
| [832](#event-832)     | 0x0001       |    151 |             32 |

## DAT References (imed_data)

|   Index | Hex Value   |   Dec Value |
|---------|-------------|-------------|
|       0 | 0x0000      |           0 |
|       1 | 0x0001      |           1 |
|       2 | 0x00A8      |         168 |
|       3 | 0x0083      |         131 |
|       4 | 0x0082      |         130 |
|       5 | 0x00A6      |         166 |

## Events

### Event 65535

#### Metadata

| Field        | Value   |
|--------------|---------|
| Entrypoint   | 0x0000  |
| Data Size    | 1 bytes |
| Instructions | 1       |

```
      00 01 02 03 04 05 06 07  08 09 0A 0B 0C 0D 0E 0F
      -- -- -- -- -- -- -- --  -- -- -- -- -- -- -- --
0000: 00                                                .               
```

#### Opcodes

```
  0: 0x0000 [0x00] END_REQSTACK()
```

### Event 832

#### Metadata

| Field        | Value     |
|--------------|-----------|
| Entrypoint   | 0x0001    |
| Data Size    | 151 bytes |
| Instructions | 27        |

```
      00 01 02 03 04 05 06 07  08 09 0A 0B 0C 0D 0E 0F
      -- -- -- -- -- -- -- --  -- -- -- -- -- -- -- --
0000:    03 04 00 00 80 02 01  80 01 80 00 97 00 02 47   ..............G
0010: 10 00 00 01 76 00 02 47  10 02 80 80 2B 00 05 03  ....v..G....+...
0020: 00 3C 04 00 00 80 01 80  01 6D 00 02 47 10 03 80  .<.......m..G...
0030: 80 40 00 05 03 00 3C 04  00 00 80 01 80 01 6D 00  .@....<.......m.
0040: 02 47 10 04 80 80 55 00  05 03 00 3C 04 00 00 80  .G....U....<....
0050: 01 80 01 6D 00 02 47 10  05 80 80 6A 00 05 03 00  ...m..G....j....
0060: 3C 04 00 00 80 01 80 01  6D 00 06 03 00 5C 00 47  <.......m....\.G
0070: 10 5C 01 47 10 9A 03 00  00 47 10 02 03 00 00 80  .\.G.....G......
0080: 01 91 00 5C B0 02 00 02  02 00 00 80 00 91 00 5C  ...\...........\
0090: B1 1C 01 80 01 06 00 00                           ........        
```

#### Opcodes

```
  0: 0x0001 [0x03] ExtData[1]->WorkLocal[4] = 0*
  1: 0x0006 [0x02] IF !(1* == 1*) GOTO 0x0097
  2: 0x000E [0x02] IF !(Work_Zone[71] == ExtData[1]->WorkLocal[0]) GOTO 0x0076
  3: 0x0016 [0x02] IF !(Work_Zone[71] == 168*) GOTO 0x002B
  4: 0x001E [0x05] ExtData[1]->WorkLocal[3] = 1
  5: 0x0021 [0x3C] SET_BIT_FLAG_CONDITIONAL(target_work_offset=ExtData[1]->WorkLocal[4], bit_index_work_offset=0*, condition_work_offset=1*)
  6: 0x0028 [0x01] GOTO 0x006D
  7: 0x002B [0x02] IF !(Work_Zone[71] == 131*) GOTO 0x0040
  8: 0x0033 [0x05] ExtData[1]->WorkLocal[3] = 1
  9: 0x0036 [0x3C] SET_BIT_FLAG_CONDITIONAL(target_work_offset=ExtData[1]->WorkLocal[4], bit_index_work_offset=0*, condition_work_offset=1*)
 10: 0x003D [0x01] GOTO 0x006D
 11: 0x0040 [0x02] IF !(Work_Zone[71] == 130*) GOTO 0x0055
 12: 0x0048 [0x05] ExtData[1]->WorkLocal[3] = 1
 13: 0x004B [0x3C] SET_BIT_FLAG_CONDITIONAL(target_work_offset=ExtData[1]->WorkLocal[4], bit_index_work_offset=0*, condition_work_offset=1*)
 14: 0x0052 [0x01] GOTO 0x006D
 15: 0x0055 [0x02] IF !(Work_Zone[71] == 166*) GOTO 0x006A
 16: 0x005D [0x05] ExtData[1]->WorkLocal[3] = 1
 17: 0x0060 [0x3C] SET_BIT_FLAG_CONDITIONAL(target_work_offset=ExtData[1]->WorkLocal[4], bit_index_work_offset=0*, condition_work_offset=1*)
 18: 0x0067 [0x01] GOTO 0x006D
 19: 0x006A [0x06] ExtData[1]->WorkLocal[3] = 0

SUBROUTINE_006D:
 20: 0x006D [0x5C] MUSIC_CONTROL: Set Idle (Day) music to song Work_Zone[71]
 21: 0x0071 [0x5C] MUSIC_CONTROL: Set Idle (Night) music to song Work_Zone[71]
 22: 0x0075 [0x9A] WAIT_MUSIC_SERVER()
 23: 0x0076 [0x03] ExtData[1]->WorkLocal[0] = Work_Zone[71]
 24: 0x007B [0x02] IF !(ExtData[1]->WorkLocal[3] == 0*) GOTO 0x0091
 25: 0x0083 [0x5C] MUSIC_CONTROL: Unknown control type 0xB0, song_id=song ExtData[1]->WorkLocal[2]
 26: 0x0089 [0x00] END_REQSTACK()
```

#### Data or dead code:

```
# Dead code (unreachable instructions):
     0x008A [0x00] END_REQSTACK()
     0x008B [0x80] LOAD_WAIT(entity=Unknown NPC (ID: 1543540992/0x5C009100))
     0x0090 [0xB1] GET_APP_FLAG(flag_type=0x1C, dest_offset=0x8001)
```
