# 17727493 - Callort

## Common Data

| Field            | Value                     |
|------------------|---------------------------|
| Zone             | Port San d'Oria (ID: 232) |
| Block Size       | 124 bytes                 |
| Total Events     | 5                         |
| References Count | 6                         |

## List of Events

| Event ID                 | Entrypoint   |   Size |   Instructions |
|--------------------------|--------------|--------|----------------|
| [65535](#event-65535)    | 0x0000       |      1 |              1 |
| [4](#event-4)            | 0x0001       |      1 |              1 |
| [500](#event-500)        | 0x0002       |      1 |              1 |
| [65535.1](#event-655351) | 0x0003       |      1 |              1 |
| [557](#event-557)        | 0x0004       |     57 |             19 |

## DAT References (imed_data)

|   Index | Hex Value   |   Dec Value |
|---------|-------------|-------------|
|       0 | 0x0014      |          20 |
|       1 | 0x1E86      |        7814 |
|       2 | 0x001E      |          30 |
|       3 | 0x1E87      |        7815 |
|       4 | 0x1E88      |        7816 |
|       5 | 0x1E89      |        7817 |

## String References

- **7814**: Airships fly between our kingdom and the Grand Duchy of Jeuno to the east. I'll never forget the first day I saw one of those ships fly...
- **7815**: Jeuno's history is short, but quickly did that village of Hume fishermen grow into what it is today.
- **7816**: When their archduke came to power, he excavated the ruins nearby. The knowledge they found there made them as mighty as San d'Oria, by any reckoning.
- **7817**: But once a fisherman, always a fisherman, I say. 'Tis the Elvaan of San d'Oria that will rule Vana'diel, mark my words!

## Events

### Event 65535

#### Metadata

| Field        | Value   |
|--------------|---------|
| Entrypoint   | 0x0000  |
| Data Size    | 1 bytes |
| Instructions | 1       |

```
      00 01 02 03 04 05 06 07  08 09 0A 0B 0C 0D 0E 0F
      -- -- -- -- -- -- -- --  -- -- -- -- -- -- -- --
0000: 00                                                .               
```

#### Opcodes

```
  0: 0x0000 [0x00] END_REQSTACK()
```

### Event 4

#### Metadata

| Field        | Value   |
|--------------|---------|
| Entrypoint   | 0x0001  |
| Data Size    | 1 bytes |
| Instructions | 1       |

```
      00 01 02 03 04 05 06 07  08 09 0A 0B 0C 0D 0E 0F
      -- -- -- -- -- -- -- --  -- -- -- -- -- -- -- --
0000:    00                                              .              
```

#### Opcodes

```
  0: 0x0001 [0x00] END_REQSTACK()
```

### Event 500

#### Metadata

| Field        | Value   |
|--------------|---------|
| Entrypoint   | 0x0002  |
| Data Size    | 1 bytes |
| Instructions | 1       |

```
      00 01 02 03 04 05 06 07  08 09 0A 0B 0C 0D 0E 0F
      -- -- -- -- -- -- -- --  -- -- -- -- -- -- -- --
0000:       00                                            .             
```

#### Opcodes

```
  0: 0x0002 [0x00] END_REQSTACK()
```

### Event 65535.1

#### Metadata

| Field        | Value   |
|--------------|---------|
| Entrypoint   | 0x0003  |
| Data Size    | 1 bytes |
| Instructions | 1       |

```
      00 01 02 03 04 05 06 07  08 09 0A 0B 0C 0D 0E 0F
      -- -- -- -- -- -- -- --  -- -- -- -- -- -- -- --
0000:          00                                          .            
```

#### Opcodes

```
  0: 0x0003 [0x00] END_REQSTACK()
```

### Event 557

#### Metadata

| Field        | Value    |
|--------------|----------|
| Entrypoint   | 0x0004   |
| Data Size    | 57 bytes |
| Instructions | 19       |

```
      00 01 02 03 04 05 06 07  08 09 0A 0B 0C 0D 0E 0F
      -- -- -- -- -- -- -- --  -- -- -- -- -- -- -- --
0000:             1E F0 FF FF  7F 6F 70 66 00 80 F8 FF      .....opf....
0010: FF 7F F8 FF FF 7F 74 6C  6B 30 1D 01 80 23 1C 02  ......tlk0...#..
0020: 80 1D 03 80 23 1C 02 80  1D 04 80 23 1C 02 80 1D  ....#......#....
0030: 05 80 23 5E 69 64 6C 30  1C 02 80 21 00           ..#^idl0...!.   
```

#### Opcodes

```
  0: 0x0004 [0x1E] EventEntity looks at LocalPlayer and starts talking
  1: 0x0009 [0x6F] WAIT_FRAME_DELAY: Yield until WaitTime reaches zero
  2: 0x000A [0x70] WAIT_ENTITY_RENDER_FLAG: Wait while EventEntity->Render.Flags3 bit 2 is set (cancel turn if not)
  3: 0x000B [0x66] LOAD_EXT_SCHEDULER_MAIN: Load scheduler "tlk0" with entities [EventEntity, EventEntity], work=20*
  4: 0x001A [0x1D] PRINT_EVENT_MESSAGE(message_id=7814*)
    → "Airships fly between our kingdom and the Grand Duchy of Jeuno to the east. I'll never forget the first day I saw one of those ships fly..."
  5: 0x001D [0x23] WAIT_FOR_DIALOG_INTERACTION
  6: 0x001E [0x1C] WAIT(30* ticks)
  7: 0x0021 [0x1D] PRINT_EVENT_MESSAGE(message_id=7815*)
    → "Jeuno's history is short, but quickly did that village of Hume fishermen grow into what it is today."
  8: 0x0024 [0x23] WAIT_FOR_DIALOG_INTERACTION
  9: 0x0025 [0x1C] WAIT(30* ticks)
 10: 0x0028 [0x1D] PRINT_EVENT_MESSAGE(message_id=7816*)
    → "When their archduke came to power, he excavated the ruins nearby. The knowledge they found there made them as mighty as San d'Oria, by any reckoning."
 11: 0x002B [0x23] WAIT_FOR_DIALOG_INTERACTION
 12: 0x002C [0x1C] WAIT(30* ticks)
 13: 0x002F [0x1D] PRINT_EVENT_MESSAGE(message_id=7817*)
    → "But once a fisherman, always a fisherman, I say. 'Tis the Elvaan of San d'Oria that will rule Vana'diel, mark my words!"
 14: 0x0032 [0x23] WAIT_FOR_DIALOG_INTERACTION
 15: 0x0033 [0x5E] EventEntity goes idle (kills current action) (animation: "idl0")
 16: 0x0038 [0x1C] WAIT(30* ticks)
 17: 0x003B [0x21] END_EVENT
 18: 0x003C [0x00] END_REQSTACK()
```
