# 17727490 - Pieuje

## Common Data

| Field            | Value                     |
|------------------|---------------------------|
| Zone             | Port San d'Oria (ID: 232) |
| Block Size       | 220 bytes                 |
| Total Events     | 12                        |
| References Count | 9                         |

## List of Events

| Event ID                   | Entrypoint   |   Size |   Instructions |
|----------------------------|--------------|--------|----------------|
| [65535](#event-65535)      | 0x0000       |      1 |              1 |
| [65535.1](#event-655351)   | 0x0001       |      6 |              2 |
| [500](#event-500)          | 0x0007       |      3 |              2 |
| [65535.2](#event-655352)   | 0x000A       |     22 |              6 |
| [65535.3](#event-655353)   | 0x0020       |     16 |              4 |
| [65535.4](#event-655354)   | 0x0030       |      6 |              2 |
| [65535.5](#event-655355)   | 0x0036       |      6 |              2 |
| [65535.6](#event-655356)   | 0x003C       |      6 |              2 |
| [65535.7](#event-655357)   | 0x0042       |      9 |              3 |
| [65535.8](#event-655358)   | 0x004B       |      9 |              3 |
| [65535.9](#event-655359)   | 0x0054       |      9 |              3 |
| [65535.10](#event-6553510) | 0x005D       |     25 |              7 |

## DAT References (imed_data)

|   Index | Hex Value   |   Dec Value |
|---------|-------------|-------------|
|       0 | 0x000D      |          13 |
|       1 | 0xFFFE6D61  |  4294864225 |
|       2 | 0xFFFE1074  |  4294840436 |
|       3 | 0xFFFFE0C0  |  4294959296 |
|       4 | 0xFFFE6FAE  |  4294864814 |
|       5 | 0xFFFE0E2F  |  4294839855 |
|       6 | 0x003C      |          60 |
|       7 | 0xFFFE64D2  |  4294862034 |
|       8 | 0xFFFE0438  |  4294837304 |

## Events

### Event 65535

#### Metadata

| Field        | Value   |
|--------------|---------|
| Entrypoint   | 0x0000  |
| Data Size    | 1 bytes |
| Instructions | 1       |

```
      00 01 02 03 04 05 06 07  08 09 0A 0B 0C 0D 0E 0F
      -- -- -- -- -- -- -- --  -- -- -- -- -- -- -- --
0000: 00                                                .               
```

#### Opcodes

```
  0: 0x0000 [0x00] END_REQSTACK()
```

### Event 65535.1

#### Metadata

| Field        | Value   |
|--------------|---------|
| Entrypoint   | 0x0001  |
| Data Size    | 6 bytes |
| Instructions | 2       |

```
      00 01 02 03 04 05 06 07  08 09 0A 0B 0C 0D 0E 0F
      -- -- -- -- -- -- -- --  -- -- -- -- -- -- -- --
0000:    5E 69 64 6C 30 00                               ^idl0.         
```

#### Opcodes

```
  0: 0x0001 [0x5E] EventEntity goes idle (kills current action) (animation: "idl0")
  1: 0x0006 [0x00] END_REQSTACK()
```

### Event 500

#### Metadata

| Field        | Value   |
|--------------|---------|
| Entrypoint   | 0x0007  |
| Data Size    | 3 bytes |
| Instructions | 2       |

```
      00 01 02 03 04 05 06 07  08 09 0A 0B 0C 0D 0E 0F
      -- -- -- -- -- -- -- --  -- -- -- -- -- -- -- --
0000:                      22  01 00                           "..      
```

#### Opcodes

```
  0: 0x0007 [0x22] ENTITY_HIDE_FLAG(enabled=0x01)
  1: 0x0009 [0x00] END_REQSTACK()
```

### Event 65535.2

#### Metadata

| Field        | Value    |
|--------------|----------|
| Entrypoint   | 0x000A   |
| Data Size    | 22 bytes |
| Instructions | 6        |

```
      00 01 02 03 04 05 06 07  08 09 0A 0B 0C 0D 0E 0F
      -- -- -- -- -- -- -- --  -- -- -- -- -- -- -- --
0000:                                2F 00 02 80 0E 01            /.....
0010: 22 00 32 00 80 1F 00 01  80 02 80 03 80 1F 01 00  ".2.............
```

#### Opcodes

```
  0: 0x000A [0x2F] Pieuje (ID: 17727490/0x010E8002)->Render.Flags0 &= ~0x80000 // Bit 19
  1: 0x0010 [0x22] ENTITY_HIDE_FLAG(enabled=0x00)
  2: 0x0012 [0x32] ExtData[1]->MainSpeed = 13* * 0.1
  3: 0x0015 [0x1F] MOVE_ENTITY: EventEntity moves to X=-103.071*, Z=-126.860*, Y=-8.000*
  4: 0x001D [0x1F] MOVE_ENTITY: Update entity position (mode=1)
  5: 0x001F [0x00] END_REQSTACK()
```

### Event 65535.3

#### Metadata

| Field        | Value    |
|--------------|----------|
| Entrypoint   | 0x0020   |
| Data Size    | 16 bytes |
| Instructions | 4        |

```
      00 01 02 03 04 05 06 07  08 09 0A 0B 0C 0D 0E 0F
      -- -- -- -- -- -- -- --  -- -- -- -- -- -- -- --
0020: 1F 00 04 80 05 80 03 80  1F 01 1E 01 80 0E 01 00  ................
```

#### Opcodes

```
  0: 0x0020 [0x1F] MOVE_ENTITY: EventEntity moves to X=-102.482*, Z=-127.441*, Y=-8.000*
  1: 0x0028 [0x1F] MOVE_ENTITY: Update entity position (mode=1)
  2: 0x002A [0x1E] EventEntity looks at Trion (ID: 17727489/0x010E8001) and starts talking
  3: 0x002F [0x00] END_REQSTACK()
```

### Event 65535.4

#### Metadata

| Field        | Value   |
|--------------|---------|
| Entrypoint   | 0x0030  |
| Data Size    | 6 bytes |
| Instructions | 2       |

```
      00 01 02 03 04 05 06 07  08 09 0A 0B 0C 0D 0E 0F
      -- -- -- -- -- -- -- --  -- -- -- -- -- -- -- --
0030: 1E 04 80 0E 01 00                                 ......          
```

#### Opcodes

```
  0: 0x0030 [0x1E] EventEntity looks at Avandale (ID: 17727492/0x010E8004) and starts talking
  1: 0x0035 [0x00] END_REQSTACK()
```

### Event 65535.5

#### Metadata

| Field        | Value   |
|--------------|---------|
| Entrypoint   | 0x0036  |
| Data Size    | 6 bytes |
| Instructions | 2       |

```
      00 01 02 03 04 05 06 07  08 09 0A 0B 0C 0D 0E 0F
      -- -- -- -- -- -- -- --  -- -- -- -- -- -- -- --
0030:                   1E F0  FF FF 7F 00                    ......    
```

#### Opcodes

```
  0: 0x0036 [0x1E] EventEntity looks at LocalPlayer and starts talking
  1: 0x003B [0x00] END_REQSTACK()
```

### Event 65535.6

#### Metadata

| Field        | Value   |
|--------------|---------|
| Entrypoint   | 0x003C  |
| Data Size    | 6 bytes |
| Instructions | 2       |

```
      00 01 02 03 04 05 06 07  08 09 0A 0B 0C 0D 0E 0F
      -- -- -- -- -- -- -- --  -- -- -- -- -- -- -- --
0030:                                      1E 01 80 0E              ....
0040: 01 00                                             ..              
```

#### Opcodes

```
  0: 0x003C [0x1E] EventEntity looks at Trion (ID: 17727489/0x010E8001) and starts talking
  1: 0x0041 [0x00] END_REQSTACK()
```

### Event 65535.7

#### Metadata

| Field        | Value   |
|--------------|---------|
| Entrypoint   | 0x0042  |
| Data Size    | 9 bytes |
| Instructions | 3       |

```
      00 01 02 03 04 05 06 07  08 09 0A 0B 0C 0D 0E 0F
      -- -- -- -- -- -- -- --  -- -- -- -- -- -- -- --
0040:       1C 06 80 1E 04 80  0E 01 00                   .........     
```

#### Opcodes

```
  0: 0x0042 [0x1C] WAIT(60* ticks)
  1: 0x0045 [0x1E] EventEntity looks at Avandale (ID: 17727492/0x010E8004) and starts talking
  2: 0x004A [0x00] END_REQSTACK()
```

### Event 65535.8

#### Metadata

| Field        | Value   |
|--------------|---------|
| Entrypoint   | 0x004B  |
| Data Size    | 9 bytes |
| Instructions | 3       |

```
      00 01 02 03 04 05 06 07  08 09 0A 0B 0C 0D 0E 0F
      -- -- -- -- -- -- -- --  -- -- -- -- -- -- -- --
0040:                                   1C 06 80 1E F0             .....
0050: FF FF 7F 00                                       ....            
```

#### Opcodes

```
  0: 0x004B [0x1C] WAIT(60* ticks)
  1: 0x004E [0x1E] EventEntity looks at LocalPlayer and starts talking
  2: 0x0053 [0x00] END_REQSTACK()
```

### Event 65535.9

#### Metadata

| Field        | Value   |
|--------------|---------|
| Entrypoint   | 0x0054  |
| Data Size    | 9 bytes |
| Instructions | 3       |

```
      00 01 02 03 04 05 06 07  08 09 0A 0B 0C 0D 0E 0F
      -- -- -- -- -- -- -- --  -- -- -- -- -- -- -- --
0050:             1C 06 80 1E  01 80 0E 01 00               .........   
```

#### Opcodes

```
  0: 0x0054 [0x1C] WAIT(60* ticks)
  1: 0x0057 [0x1E] EventEntity looks at Trion (ID: 17727489/0x010E8001) and starts talking
  2: 0x005C [0x00] END_REQSTACK()
```

### Event 65535.10

#### Metadata

| Field        | Value    |
|--------------|----------|
| Entrypoint   | 0x005D   |
| Data Size    | 25 bytes |
| Instructions | 7        |

```
      00 01 02 03 04 05 06 07  08 09 0A 0B 0C 0D 0E 0F
      -- -- -- -- -- -- -- --  -- -- -- -- -- -- -- --
0050:                                         32 00 80               2..
0060: 1C 06 80 1F 00 07 80 08  80 03 80 1F 01 2F 01 02  ............./..
0070: 80 0E 01 22 01 00                                 ..."..          
```

#### Opcodes

```
  0: 0x005D [0x32] ExtData[1]->MainSpeed = 13* * 0.1
  1: 0x0060 [0x1C] WAIT(60* ticks)
  2: 0x0063 [0x1F] MOVE_ENTITY: EventEntity moves to X=-105.262*, Z=-129.992*, Y=-8.000*
  3: 0x006B [0x1F] MOVE_ENTITY: Update entity position (mode=1)
  4: 0x006D [0x2F] Pieuje (ID: 17727490/0x010E8002)->Render.Flags0 |= 0x80000 // Bit 19
  5: 0x0073 [0x22] ENTITY_HIDE_FLAG(enabled=0x01)
  6: 0x0075 [0x00] END_REQSTACK()
```
