# 17727613 - Ufanne

## Common Data

| Field            | Value                     |
|------------------|---------------------------|
| Zone             | Port San d'Oria (ID: 232) |
| Block Size       | 596 bytes                 |
| Total Events     | 12                        |
| References Count | 30                        |

## List of Events

| Event ID              | Entrypoint   |   Size |   Instructions |
|-----------------------|--------------|--------|----------------|
| [65535](#event-65535) | 0x0000       |      1 |              1 |
| [500](#event-500)     | 0x0001       |      3 |              2 |
| [304](#event-304)     | 0x0004       |     88 |             24 |
| [305](#event-305)     | 0x005C       |     35 |              8 |
| [307](#event-307)     | 0x007F       |     43 |             10 |
| [306](#event-306)     | 0x00AA       |     10 |              4 |
| [300](#event-300)     | 0x00B4       |     88 |             24 |
| [301](#event-301)     | 0x010C       |     35 |              8 |
| [303](#event-303)     | 0x012F       |     43 |             10 |
| [302](#event-302)     | 0x015A       |     10 |              4 |
| [310](#event-310)     | 0x0164       |     26 |              6 |
| [309](#event-309)     | 0x017E       |     30 |              8 |

## DAT References (imed_data)

|   Index | Hex Value   |   Dec Value |
|---------|-------------|-------------|
|       0 | 0x1FE1      |        8161 |
|       1 | 0x1FE2      |        8162 |
|       2 | 0x1FE3      |        8163 |
|       3 | 0x1FE4      |        8164 |
|       4 | 0x0000      |           0 |
|       5 | 0x1FE5      |        8165 |
|       6 | 0x1FE6      |        8166 |
|       7 | 0x02BC      |         700 |
|       8 | 0x0001      |           1 |
|       9 | 0x1FE7      |        8167 |
|      10 | 0x1FE9      |        8169 |
|      11 | 0x00C9      |         201 |
|      12 | 0x02BD      |         701 |
|      13 | 0x1FEC      |        8172 |
|      14 | 0x02BE      |         702 |
|      15 | 0x1FEA      |        8170 |
|      16 | 0x1FD5      |        8149 |
|      17 | 0x1FD6      |        8150 |
|      18 | 0x1FD7      |        8151 |
|      19 | 0x1FD8      |        8152 |
|      20 | 0x1FD9      |        8153 |
|      21 | 0x1FDA      |        8154 |
|      22 | 0x1FDB      |        8155 |
|      23 | 0x1FDD      |        8157 |
|      24 | 0x1FE0      |        8160 |
|      25 | 0x1FDE      |        8158 |
|      26 | 0x001E      |          30 |
|      27 | 0x1FEF      |        8175 |
|      28 | 0x1FED      |        8173 |
|      29 | 0x1FEE      |        8174 |

## String References

- **8152**: Help Gallijaux? [Help out./Refuse.]
- **8164**: Help Joulet? [Help out./Refuse.]
- **8173**: You've collected $2 [carp/carps] for [Gallijaux/Joulet] so far.
- **8174**: Those two--so feverish are they in their devotion to the art of fishing that they lose count of their haul of fish and have to start over from the beginning.
- **8175**: Those two... I do wish they wouldn't carp so about who can catch more fish than whom. And why should I care either way?

## Events

### Event 65535

#### Metadata

| Field        | Value   |
|--------------|---------|
| Entrypoint   | 0x0000  |
| Data Size    | 1 bytes |
| Instructions | 1       |

```
      00 01 02 03 04 05 06 07  08 09 0A 0B 0C 0D 0E 0F
      -- -- -- -- -- -- -- --  -- -- -- -- -- -- -- --
0000: 00                                                .               
```

#### Opcodes

```
  0: 0x0000 [0x00] END_REQSTACK()
```

### Event 500

#### Metadata

| Field        | Value   |
|--------------|---------|
| Entrypoint   | 0x0001  |
| Data Size    | 3 bytes |
| Instructions | 2       |

```
      00 01 02 03 04 05 06 07  08 09 0A 0B 0C 0D 0E 0F
      -- -- -- -- -- -- -- --  -- -- -- -- -- -- -- --
0000:    22 01 00                                        "..            
```

#### Opcodes

```
  0: 0x0001 [0x22] ENTITY_HIDE_FLAG(enabled=0x01)
  1: 0x0003 [0x00] END_REQSTACK()
```

### Event 304

#### Metadata

| Field        | Value    |
|--------------|----------|
| Entrypoint   | 0x0004   |
| Data Size    | 88 bytes |
| Instructions | 17       |

```
      00 01 02 03 04 05 06 07  08 09 0A 0B 0C 0D 0E 0F
      -- -- -- -- -- -- -- --  -- -- -- -- -- -- -- --
0000:             2B 7C 80 0E  01 00 80 23 2B 7C 80 0E      +|.....#+|..
0010: 01 01 80 23 2B 7C 80 0E  01 02 80 23 24 03 80 04  ...#+|.....#$...
0020: 80 04 80 25 02 00 10 04  80 00 46 00 2B 7C 80 0E  ...%......F.+|..
0030: 01 05 80 23 2B 7C 80 0E  01 06 80 23 03 01 10 07  ...#+|.....#....
0040: 80 21 00 01 5B 00 02 00  10 08 80 00 5B 00 2B 7C  .!..[.......[.+|
0050: 80 0E 01 09 80 23 21 00  01 5B 00 00              .....#!..[..    
```

#### Opcodes

```
  0: 0x0004 [0x2B] Joulet (ID: 17727612/0x010E807C) [8161*]:
    → "Good day. I am Joulet, and Gallijaux is my elder brother. Our mother likes to say we were born with fishing rods in our hands."
  1: 0x000B [0x23] WAIT_FOR_DIALOG_INTERACTION
  2: 0x000C [0x2B] Joulet (ID: 17727612/0x010E807C) [8162*]:
    → "We've always wondered who was the better angler...but never could agree on the results of our contests, no matter how many times we tried."
  3: 0x0013 [0x23] WAIT_FOR_DIALOG_INTERACTION
  4: 0x0014 [0x2B] Joulet (ID: 17727612/0x010E807C) [8163*]:
    → "So we had the idea to make some friends, and invite them to fish, too, then compare who found the better fisherman. Might you be willing to help me out?"
  5: 0x001B [0x23] WAIT_FOR_DIALOG_INTERACTION
  6: 0x001C [0x24] CREATE_DIALOG(message_id=8164*, default_option=0*, option_flags=0*)
    → "Help Joulet? [Help out./Refuse.]"
  7: 0x0023 [0x25] WAIT_DIALOG_SELECT()
  8: 0x0024 [0x02] IF !(Work_Zone[0] == 0*) GOTO 0x0046
  9: 0x002C [0x2B] Joulet (ID: 17727612/0x010E807C) [8165*]:
    → "Indeed? Splendid! Then listen--the two kinds of fish I want you to bring me are $0 and $1. That shouldn't be too hard, should it?"
 10: 0x0033 [0x23] WAIT_FOR_DIALOG_INTERACTION
 11: 0x0034 [0x2B] Joulet (ID: 17727612/0x010E807C) [8166*]:
    → "You can get the fish however you like, just bring them to me when you do. And the more you can bring, the better! I'll reimburse you, of course."
 12: 0x003B [0x23] WAIT_FOR_DIALOG_INTERACTION
 13: 0x003C [0x03] Work_Zone[1] = 700*
 14: 0x0041 [0x21] END_EVENT
 15: 0x0042 [0x00] END_REQSTACK()

SUBROUTINE_005B:
 16: 0x005B [0x00] END_REQSTACK()
```

#### Data or dead code:

```
# Dead code (unreachable instructions):
     0x0043 [0x01] GOTO 0x005B
     0x0058 [0x01] GOTO 0x005B
```

### Event 305

#### Metadata

| Field        | Value    |
|--------------|----------|
| Entrypoint   | 0x005C   |
| Data Size    | 35 bytes |
| Instructions | 8        |

```
      00 01 02 03 04 05 06 07  08 09 0A 0B 0C 0D 0E 0F
      -- -- -- -- -- -- -- --  -- -- -- -- -- -- -- --
0050:                                      20 01 42 2B               .B+
0060: 7C 80 0E 01 0A 80 23 45  0B 80 F0 FF FF 7F F0 FF  |.....#E........
0070: FF 7F 71 73 74 63 04 80  03 01 10 0C 80 21 00     ..qstc.......!. 
```

#### Opcodes

```
  0: 0x005C [0x20] SET_CLI_EVENT_UC_FLAG: Lock player control
  1: 0x005E [0x42] SET_CLI_EVENT_CANCEL_DATA()
  2: 0x005F [0x2B] Joulet (ID: 17727612/0x010E807C) [8169*]:
    → "This is a fine haul you've brought! I thank you!"
  3: 0x0066 [0x23] WAIT_FOR_DIALOG_INTERACTION
  4: 0x0067 [0x45] LOAD_SCHEDULED_TASK: Load scheduler "qstc" with entities [LocalPlayer, LocalPlayer], work=[201*, 0*]
  5: 0x0078 [0x03] Work_Zone[1] = 701*
  6: 0x007D [0x21] END_EVENT
  7: 0x007E [0x00] END_REQSTACK()
```

### Event 307

#### Metadata

| Field        | Value    |
|--------------|----------|
| Entrypoint   | 0x007F   |
| Data Size    | 43 bytes |
| Instructions | 10       |

```
      00 01 02 03 04 05 06 07  08 09 0A 0B 0C 0D 0E 0F
      -- -- -- -- -- -- -- --  -- -- -- -- -- -- -- --
0070:                                               20                  
0080: 01 42 2B 7C 80 0E 01 0A  80 23 2B 7C 80 0E 01 0D  .B+|.....#+|....
0090: 80 23 45 0B 80 F0 FF FF  7F F0 FF FF 7F 71 73 74  .#E..........qst
00A0: 63 04 80 03 01 10 0E 80  21 00                    c.......!.      
```

#### Opcodes

```
  0: 0x007F [0x20] SET_CLI_EVENT_UC_FLAG: Lock player control
  1: 0x0081 [0x42] SET_CLI_EVENT_CANCEL_DATA()
  2: 0x0082 [0x2B] Joulet (ID: 17727612/0x010E807C) [8169*]:
    → "This is a fine haul you've brought! I thank you!"
  3: 0x0089 [0x23] WAIT_FOR_DIALOG_INTERACTION
  4: 0x008A [0x2B] Joulet (ID: 17727612/0x010E807C) [8172*]:
    → "You'll be ecstatic to know that you've brought me more than 10,000 carps! I'd like to give you these tokens of my tremendous appreciation. Keep up the good work!"
  5: 0x0091 [0x23] WAIT_FOR_DIALOG_INTERACTION
  6: 0x0092 [0x45] LOAD_SCHEDULED_TASK: Load scheduler "qstc" with entities [LocalPlayer, LocalPlayer], work=[201*, 0*]
  7: 0x00A3 [0x03] Work_Zone[1] = 702*
  8: 0x00A8 [0x21] END_EVENT
  9: 0x00A9 [0x00] END_REQSTACK()
```

### Event 306

#### Metadata

| Field        | Value    |
|--------------|----------|
| Entrypoint   | 0x00AA   |
| Data Size    | 10 bytes |
| Instructions | 4        |

```
      00 01 02 03 04 05 06 07  08 09 0A 0B 0C 0D 0E 0F
      -- -- -- -- -- -- -- --  -- -- -- -- -- -- -- --
00A0:                                2B 7C 80 0E 01 0F            +|....
00B0: 80 23 21 00                                       .#!.            
```

#### Opcodes

```
  0: 0x00AA [0x2B] Joulet (ID: 17727612/0x010E807C) [8170*]:
    → "Eh...what's this? I'm afraid I can't accept this. It's not what I asked you for, is it?"
  1: 0x00B1 [0x23] WAIT_FOR_DIALOG_INTERACTION
  2: 0x00B2 [0x21] END_EVENT
  3: 0x00B3 [0x00] END_REQSTACK()
```

### Event 300

#### Metadata

| Field        | Value    |
|--------------|----------|
| Entrypoint   | 0x00B4   |
| Data Size    | 88 bytes |
| Instructions | 17       |

```
      00 01 02 03 04 05 06 07  08 09 0A 0B 0C 0D 0E 0F
      -- -- -- -- -- -- -- --  -- -- -- -- -- -- -- --
00B0:             2B 7B 80 0E  01 10 80 23 2B 7B 80 0E      +{.....#+{..
00C0: 01 11 80 23 2B 7B 80 0E  01 12 80 23 24 13 80 04  ...#+{.....#$...
00D0: 80 04 80 25 02 00 10 04  80 00 F6 00 2B 7B 80 0E  ...%........+{..
00E0: 01 14 80 23 2B 7B 80 0E  01 15 80 23 03 01 10 07  ...#+{.....#....
00F0: 80 21 00 01 0B 01 02 00  10 08 80 00 0B 01 2B 7B  .!............+{
0100: 80 0E 01 16 80 23 21 00  01 0B 01 00              .....#!.....    
```

#### Opcodes

```
  0: 0x00B4 [0x2B] Gallijaux (ID: 17727611/0x010E807B) [8149*]:
    → "Me name's Gallijaux, and I'd take fishing over food and drink any day. This here's my little brother, Joulet. He's a bit of an angler, too."
  1: 0x00BB [0x23] WAIT_FOR_DIALOG_INTERACTION
  2: 0x00BC [0x2B] Gallijaux (ID: 17727611/0x010E807B) [8150*]:
    → "Truth be told, that's a matter of great contention between us. We've competed to see who's the better fisherman before, but could never agree on the results, you see."
  3: 0x00C3 [0x23] WAIT_FOR_DIALOG_INTERACTION
  4: 0x00C4 [0x2B] Gallijaux (ID: 17727611/0x010E807B) [8151*]:
    → "So we got to thinking that we should instead ask others to fish for us, and see who finds the better fisherman! How about it? Will you help?"
  5: 0x00CB [0x23] WAIT_FOR_DIALOG_INTERACTION
  6: 0x00CC [0x24] CREATE_DIALOG(message_id=8152*, default_option=0*, option_flags=0*)
    → "Help Gallijaux? [Help out./Refuse.]"
  7: 0x00D3 [0x25] WAIT_DIALOG_SELECT()
  8: 0x00D4 [0x02] IF !(Work_Zone[0] == 0*) GOTO 0x00F6
  9: 0x00DC [0x2B] Gallijaux (ID: 17727611/0x010E807B) [8153*]:
    → "I knew you were the type! That's great. Now, I want you to bring me either $0 or $1. Simple, eh?"
 10: 0x00E3 [0x23] WAIT_FOR_DIALOG_INTERACTION
 11: 0x00E4 [0x2B] Gallijaux (ID: 17727611/0x010E807B) [8154*]:
    → "I won't ask how you get them, just bring them to me--the more the merrier, eh? And don't you worry, I always put me gil where me mouth is."
 12: 0x00EB [0x23] WAIT_FOR_DIALOG_INTERACTION
 13: 0x00EC [0x03] Work_Zone[1] = 700*
 14: 0x00F1 [0x21] END_EVENT
 15: 0x00F2 [0x00] END_REQSTACK()

SUBROUTINE_010B:
 16: 0x010B [0x00] END_REQSTACK()
```

#### Data or dead code:

```
# Dead code (unreachable instructions):
     0x00F3 [0x01] GOTO 0x010B
     0x0108 [0x01] GOTO 0x010B
```

### Event 301

#### Metadata

| Field        | Value    |
|--------------|----------|
| Entrypoint   | 0x010C   |
| Data Size    | 35 bytes |
| Instructions | 8        |

```
      00 01 02 03 04 05 06 07  08 09 0A 0B 0C 0D 0E 0F
      -- -- -- -- -- -- -- --  -- -- -- -- -- -- -- --
0100:                                      20 01 42 2B               .B+
0110: 7B 80 0E 01 17 80 23 45  0B 80 F0 FF FF 7F F0 FF  {.....#E........
0120: FF 7F 71 73 74 63 04 80  03 01 10 0C 80 21 00     ..qstc.......!. 
```

#### Opcodes

```
  0: 0x010C [0x20] SET_CLI_EVENT_UC_FLAG: Lock player control
  1: 0x010E [0x42] SET_CLI_EVENT_CANCEL_DATA()
  2: 0x010F [0x2B] Gallijaux (ID: 17727611/0x010E807B) [8157*]:
    → "Ah, look at what you've brought me. This'll do fine, it will. Bring more!"
  3: 0x0116 [0x23] WAIT_FOR_DIALOG_INTERACTION
  4: 0x0117 [0x45] LOAD_SCHEDULED_TASK: Load scheduler "qstc" with entities [LocalPlayer, LocalPlayer], work=[201*, 0*]
  5: 0x0128 [0x03] Work_Zone[1] = 701*
  6: 0x012D [0x21] END_EVENT
  7: 0x012E [0x00] END_REQSTACK()
```

### Event 303

#### Metadata

| Field        | Value    |
|--------------|----------|
| Entrypoint   | 0x012F   |
| Data Size    | 43 bytes |
| Instructions | 10       |

```
      00 01 02 03 04 05 06 07  08 09 0A 0B 0C 0D 0E 0F
      -- -- -- -- -- -- -- --  -- -- -- -- -- -- -- --
0120:                                               20                  
0130: 01 42 2B 7B 80 0E 01 17  80 23 2B 7B 80 0E 01 18  .B+{.....#+{....
0140: 80 23 45 0B 80 F0 FF FF  7F F0 FF FF 7F 71 73 74  .#E..........qst
0150: 63 04 80 03 01 10 0E 80  21 00                    c.......!.      
```

#### Opcodes

```
  0: 0x012F [0x20] SET_CLI_EVENT_UC_FLAG: Lock player control
  1: 0x0131 [0x42] SET_CLI_EVENT_CANCEL_DATA()
  2: 0x0132 [0x2B] Gallijaux (ID: 17727611/0x010E807B) [8157*]:
    → "Ah, look at what you've brought me. This'll do fine, it will. Bring more!"
  3: 0x0139 [0x23] WAIT_FOR_DIALOG_INTERACTION
  4: 0x013A [0x2B] Gallijaux (ID: 17727611/0x010E807B) [8160*]:
    → "Well now, it seems that you've brought me more than 10,000 carps! That's worth a reward to certify your accomplishment, methinks! You keep up the good work."
  5: 0x0141 [0x23] WAIT_FOR_DIALOG_INTERACTION
  6: 0x0142 [0x45] LOAD_SCHEDULED_TASK: Load scheduler "qstc" with entities [LocalPlayer, LocalPlayer], work=[201*, 0*]
  7: 0x0153 [0x03] Work_Zone[1] = 702*
  8: 0x0158 [0x21] END_EVENT
  9: 0x0159 [0x00] END_REQSTACK()
```

### Event 302

#### Metadata

| Field        | Value    |
|--------------|----------|
| Entrypoint   | 0x015A   |
| Data Size    | 10 bytes |
| Instructions | 4        |

```
      00 01 02 03 04 05 06 07  08 09 0A 0B 0C 0D 0E 0F
      -- -- -- -- -- -- -- --  -- -- -- -- -- -- -- --
0150:                                2B 7B 80 0E 01 19            +{....
0160: 80 23 21 00                                       .#!.            
```

#### Opcodes

```
  0: 0x015A [0x2B] Gallijaux (ID: 17727611/0x010E807B) [8158*]:
    → "Hey, hey... I appreciate your generosity, but I certainly didn't ask for nothing like this!"
  1: 0x0161 [0x23] WAIT_FOR_DIALOG_INTERACTION
  2: 0x0162 [0x21] END_EVENT
  3: 0x0163 [0x00] END_REQSTACK()
```

### Event 310

#### Metadata

| Field        | Value    |
|--------------|----------|
| Entrypoint   | 0x0164   |
| Data Size    | 26 bytes |
| Instructions | 6        |

```
      00 01 02 03 04 05 06 07  08 09 0A 0B 0C 0D 0E 0F
      -- -- -- -- -- -- -- --  -- -- -- -- -- -- -- --
0160:             1E F0 FF FF  7F 66 1A 80 F8 FF FF 7F      .....f......
0170: F8 FF FF 7F 64 69 73 30  1D 1B 80 23 21 00        ....dis0...#!.  
```

#### Opcodes

```
  0: 0x0164 [0x1E] EventEntity looks at LocalPlayer and starts talking
  1: 0x0169 [0x66] LOAD_EXT_SCHEDULER_MAIN: Load scheduler "dis0" with entities [EventEntity, EventEntity], work=30*
  2: 0x0178 [0x1D] PRINT_EVENT_MESSAGE(message_id=8175*)
    → "Those two... I do wish they wouldn't carp so about who can catch more fish than whom. And why should I care either way?"
  3: 0x017B [0x23] WAIT_FOR_DIALOG_INTERACTION
  4: 0x017C [0x21] END_EVENT
  5: 0x017D [0x00] END_REQSTACK()
```

### Event 309

#### Metadata

| Field        | Value    |
|--------------|----------|
| Entrypoint   | 0x017E   |
| Data Size    | 30 bytes |
| Instructions | 8        |

```
      00 01 02 03 04 05 06 07  08 09 0A 0B 0C 0D 0E 0F
      -- -- -- -- -- -- -- --  -- -- -- -- -- -- -- --
0170:                                            1E F0                ..
0180: FF FF 7F 66 1A 80 F8 FF  FF 7F F8 FF FF 7F 74 6C  ...f..........tl
0190: 6B 30 1D 1C 80 23 1D 1D  80 23 21 00              k0...#...#!.    
```

#### Opcodes

```
  0: 0x017E [0x1E] EventEntity looks at LocalPlayer and starts talking
  1: 0x0183 [0x66] LOAD_EXT_SCHEDULER_MAIN: Load scheduler "tlk0" with entities [EventEntity, EventEntity], work=30*
  2: 0x0192 [0x1D] PRINT_EVENT_MESSAGE(message_id=8173*)
    → "You've collected $2 [carp/carps] for [Gallijaux/Joulet] so far."
  3: 0x0195 [0x23] WAIT_FOR_DIALOG_INTERACTION
  4: 0x0196 [0x1D] PRINT_EVENT_MESSAGE(message_id=8174*)
    → "Those two--so feverish are they in their devotion to the art of fishing that they lose count of their haul of fish and have to start over from the beginning."
  5: 0x0199 [0x23] WAIT_FOR_DIALOG_INTERACTION
  6: 0x019A [0x21] END_EVENT
  7: 0x019B [0x00] END_REQSTACK()
```
