# 17727492 - Avandale

## Common Data

| Field            | Value                     |
|------------------|---------------------------|
| Zone             | Port San d'Oria (ID: 232) |
| Block Size       | 552 bytes                 |
| Total Events     | 7                         |
| References Count | 24                        |

## List of Events

| Event ID                 | Entrypoint   |   Size |   Instructions |
|--------------------------|--------------|--------|----------------|
| [65535](#event-65535)    | 0x0000       |      1 |              1 |
| [65535.1](#event-655351) | 0x0001       |      6 |              2 |
| [500](#event-500)        | 0x0007       |      1 |              1 |
| [65535.2](#event-655352) | 0x0008       |      5 |              3 |
| [65535.3](#event-655353) | 0x000D       |      6 |              2 |
| [65535.4](#event-655354) | 0x0013       |      9 |              5 |
| [555](#event-555)        | 0x001C       |    384 |             90 |

## DAT References (imed_data)

|   Index | Hex Value   |   Dec Value |
|---------|-------------|-------------|
|       0 | 0x1CCC      |        7372 |
|       1 | 0x1CD2      |        7378 |
|       2 | 0x1CD3      |        7379 |
|       3 | 0x0014      |          20 |
|       4 | 0x1CE5      |        7397 |
|       5 | 0x1CE6      |        7398 |
|       6 | 0x0000      |           0 |
|       7 | 0x0001      |           1 |
|       8 | 0x1CE7      |        7399 |
|       9 | 0x001E      |          30 |
|      10 | 0x1CE8      |        7400 |
|      11 | 0x1CE9      |        7401 |
|      12 | 0x0002      |           2 |
|      13 | 0x1CEB      |        7403 |
|      14 | 0x0003      |           3 |
|      15 | 0x1CEC      |        7404 |
|      16 | 0x1CEE      |        7406 |
|      17 | 0x1CEF      |        7407 |
|      18 | 0x1CF1      |        7409 |
|      19 | 0x1CF2      |        7410 |
|      20 | 0x1CF3      |        7411 |
|      21 | 0x1CF4      |        7412 |
|      22 | 0x1CF5      |        7413 |
|      23 | 0x1CF6      |        7414 |

## String References

- **7372**: [Cutscene] On this particular day there comes a new adventurer, ready to make a name for [himself/herself] in San d'Oria.
- **7378**: Oh, a new recruit, are you? That explains it!
- **7379**: Well, far be it from me to chastise someone on [his/her] first day. Still, as a citizen of San d'Oria, you--
- **7397**: Perhaps I could be of service. Is there anything in particular you'd like to know?
- **7398**: Something you'd like to know? [Nothing, actually./I'd like to get out of the city./I'd like to do some shopping./Tell me more about adventuring.]
- **7399**: Just got here and you're aching to leave, eh? Listen, the lands are wild beyond our gates, filled with fiends and their ilk.
- **7400**: But if you must go, take those stairs, head for Northern San d'Oria, then go out Ranperre Gate. You'll need to go down Laborman's Way, then take a right to get to the gate.
- **7401**: If you need any help with directions, ask those around you. Our citizens are friendly, for the most part.
- **7403**: If you want to buy weapons or other supplies, just ask one of the merchants in town.
- **7404**: Ahh, recruits... Don't know which way to hold a sword and you think you're ready for adventures. Well, what would you like to know?
- **7406**: What would you like to know? [Helping people./Hunting monsters./Making easy money./Working for my country.]
- **7407**: Ah, a commendable choice! Come to think of it, there was a lady in front of a house on Pikeman's Way. She may be in need of assistance.
- **7409**: Ahh, recruits... Don't know your own limits until a fiend beats it into your head for you. Very well. How about gathering some hides?
- **7410**: From Northern San d'Oria, pass through Victory Arch to enter Southern San d'Oria. There you'll find the Tanners' Guild. They need hides every now and then.
- **7411**: If you have trouble finding the Tanners' Guild, just ask around.
- **7412**: Easy money, eh? Typical of a new recruit. I cannot promise ease, but try the lumberyard in Northern San d'Oria. Should be enough work for you there.
- **7413**: Go up those stairs there to get to Northern San d'Oria. You'll find the lumberyard near the top.
- **7414**: Ah, a commendable choice. Head to any city gate and inquire at the gatehouse. They'll give you work befitting your rank.

## Events

### Event 65535

#### Metadata

| Field        | Value   |
|--------------|---------|
| Entrypoint   | 0x0000  |
| Data Size    | 1 bytes |
| Instructions | 1       |

```
      00 01 02 03 04 05 06 07  08 09 0A 0B 0C 0D 0E 0F
      -- -- -- -- -- -- -- --  -- -- -- -- -- -- -- --
0000: 00                                                .               
```

#### Opcodes

```
  0: 0x0000 [0x00] END_REQSTACK()
```

### Event 65535.1

#### Metadata

| Field        | Value   |
|--------------|---------|
| Entrypoint   | 0x0001  |
| Data Size    | 6 bytes |
| Instructions | 2       |

```
      00 01 02 03 04 05 06 07  08 09 0A 0B 0C 0D 0E 0F
      -- -- -- -- -- -- -- --  -- -- -- -- -- -- -- --
0000:    5E 69 64 6C 30 00                               ^idl0.         
```

#### Opcodes

```
  0: 0x0001 [0x5E] EventEntity goes idle (kills current action) (animation: "idl0")
  1: 0x0006 [0x00] END_REQSTACK()
```

### Event 500

#### Metadata

| Field        | Value   |
|--------------|---------|
| Entrypoint   | 0x0007  |
| Data Size    | 1 bytes |
| Instructions | 1       |

```
      00 01 02 03 04 05 06 07  08 09 0A 0B 0C 0D 0E 0F
      -- -- -- -- -- -- -- --  -- -- -- -- -- -- -- --
0000:                      00                                  .        
```

#### Opcodes

```
  0: 0x0007 [0x00] END_REQSTACK()
```

### Event 65535.2

#### Metadata

| Field        | Value   |
|--------------|---------|
| Entrypoint   | 0x0008  |
| Data Size    | 5 bytes |
| Instructions | 3       |

```
      00 01 02 03 04 05 06 07  08 09 0A 0B 0C 0D 0E 0F
      -- -- -- -- -- -- -- --  -- -- -- -- -- -- -- --
0000:                          48 00 80 23 00                   H..#.   
```

#### Opcodes

```
  0: 0x0008 [0x48] [System] [7372*]:
    → "[Cutscene] On this particular day there comes a new adventurer, ready to make a name for [himself/herself] in San d'Oria."
  1: 0x000B [0x23] WAIT_FOR_DIALOG_INTERACTION
  2: 0x000C [0x00] END_REQSTACK()
```

### Event 65535.3

#### Metadata

| Field        | Value   |
|--------------|---------|
| Entrypoint   | 0x000D  |
| Data Size    | 6 bytes |
| Instructions | 2       |

```
      00 01 02 03 04 05 06 07  08 09 0A 0B 0C 0D 0E 0F
      -- -- -- -- -- -- -- --  -- -- -- -- -- -- -- --
0000:                                         1E F0 FF               ...
0010: FF 7F 00                                          ...             
```

#### Opcodes

```
  0: 0x000D [0x1E] EventEntity looks at LocalPlayer and starts talking
  1: 0x0012 [0x00] END_REQSTACK()
```

### Event 65535.4

#### Metadata

| Field        | Value   |
|--------------|---------|
| Entrypoint   | 0x0013  |
| Data Size    | 9 bytes |
| Instructions | 5       |

```
      00 01 02 03 04 05 06 07  08 09 0A 0B 0C 0D 0E 0F
      -- -- -- -- -- -- -- --  -- -- -- -- -- -- -- --
0010:          1D 01 80 23 1D  02 80 23 00                 ...#...#.    
```

#### Opcodes

```
  0: 0x0013 [0x1D] PRINT_EVENT_MESSAGE(message_id=7378*)
    → "Oh, a new recruit, are you? That explains it!"
  1: 0x0016 [0x23] WAIT_FOR_DIALOG_INTERACTION
  2: 0x0017 [0x1D] PRINT_EVENT_MESSAGE(message_id=7379*)
    → "Well, far be it from me to chastise someone on [his/her] first day. Still, as a citizen of San d'Oria, you--"
  3: 0x001A [0x23] WAIT_FOR_DIALOG_INTERACTION
  4: 0x001B [0x00] END_REQSTACK()
```

### Event 555

#### Metadata

| Field        | Value     |
|--------------|-----------|
| Entrypoint   | 0x001C    |
| Data Size    | 384 bytes |
| Instructions | 89        |

```
      00 01 02 03 04 05 06 07  08 09 0A 0B 0C 0D 0E 0F
      -- -- -- -- -- -- -- --  -- -- -- -- -- -- -- --
0010:                                      1E F0 FF FF              ....
0020: 7F 6F 70 66 03 80 F8 FF  FF 7F F8 FF FF 7F 74 6C  .opf..........tl
0030: 6B 30 1D 04 80 23 5E 69  64 6C 30 24 05 80 06 80  k0...#^idl0$....
0040: 06 80 25 02 00 10 06 80  00 4E 00 01 CE 00 02 00  ..%......N......
0050: 10 07 80 00 82 00 66 03  80 F8 FF FF 7F F8 FF FF  ......f.........
0060: 7F 74 6C 6B 30 1D 08 80  23 1C 09 80 1D 0A 80 23  .tlk0...#......#
0070: 1C 09 80 1D 0B 80 23 5E  69 64 6C 30 1C 09 80 01  ......#^idl0....
0080: CE 00 02 00 10 0C 80 00  A8 00 66 03 80 F8 FF FF  ..........f.....
0090: 7F F8 FF FF 7F 74 6C 6B  30 1D 0D 80 23 5E 69 64  .....tlk0...#^id
00A0: 6C 30 1C 09 80 01 CE 00  02 00 10 0E 80 00 CE 00  l0..............
00B0: 66 03 80 F8 FF FF 7F F8  FF FF 7F 74 6C 6B 30 1D  f..........tlk0.
00C0: 0F 80 23 5E 69 64 6C 30  01 D0 00 01 CE 00 21 00  ..#^idl0......!.
00D0: 24 10 80 06 80 06 80 25  02 00 10 06 80 00 05 01  $......%........
00E0: 66 03 80 F8 FF FF 7F F8  FF FF 7F 74 6C 6B 30 1D  f..........tlk0.
00F0: 11 80 23 1C 09 80 1D 0B  80 23 5E 69 64 6C 30 1C  ..#......#^idl0.
0100: 09 80 01 9A 01 02 00 10  07 80 00 39 01 66 03 80  ...........9.f..
0110: F8 FF FF 7F F8 FF FF 7F  74 6C 6B 30 1D 12 80 23  ........tlk0...#
0120: 1C 09 80 1D 13 80 23 1C  09 80 1D 14 80 23 5E 69  ......#......#^i
0130: 64 6C 30 1C 09 80 01 9A  01 02 00 10 0C 80 00 6D  dl0............m
0140: 01 66 03 80 F8 FF FF 7F  F8 FF FF 7F 74 6C 6B 30  .f..........tlk0
0150: 1D 15 80 23 1C 09 80 1D  16 80 23 1C 09 80 1D 0B  ...#......#.....
0160: 80 23 5E 69 64 6C 30 1C  09 80 01 9A 01 02 00 10  .#^idl0.........
0170: 0E 80 00 9A 01 66 03 80  F8 FF FF 7F F8 FF FF 7F  .....f..........
0180: 74 6C 6B 30 1D 17 80 23  1C 09 80 1D 0B 80 23 5E  tlk0...#......#^
0190: 69 64 6C 30 1C 09 80 01  9A 01 21 00              idl0......!.    
```

#### Opcodes

```
  0: 0x001C [0x1E] EventEntity looks at LocalPlayer and starts talking
  1: 0x0021 [0x6F] WAIT_FRAME_DELAY: Yield until WaitTime reaches zero
  2: 0x0022 [0x70] WAIT_ENTITY_RENDER_FLAG: Wait while EventEntity->Render.Flags3 bit 2 is set (cancel turn if not)
  3: 0x0023 [0x66] LOAD_EXT_SCHEDULER_MAIN: Load scheduler "tlk0" with entities [EventEntity, EventEntity], work=20*
  4: 0x0032 [0x1D] PRINT_EVENT_MESSAGE(message_id=7397*)
    → "Perhaps I could be of service. Is there anything in particular you'd like to know?"
  5: 0x0035 [0x23] WAIT_FOR_DIALOG_INTERACTION
  6: 0x0036 [0x5E] EventEntity goes idle (kills current action) (animation: "idl0")
  7: 0x003B [0x24] CREATE_DIALOG(message_id=7398*, default_option=0*, option_flags=0*)
    → "Something you'd like to know? [Nothing, actually./I'd like to get out of the city./I'd like to do some shopping./Tell me more about adventuring.]"
  8: 0x0042 [0x25] WAIT_DIALOG_SELECT()
  9: 0x0043 [0x02] IF !(Work_Zone[0] == 0*) GOTO 0x004E
 10: 0x004B [0x01] GOTO 0x00CE
 11: 0x004E [0x02] IF !(Work_Zone[0] == 1*) GOTO 0x0082
 12: 0x0056 [0x66] LOAD_EXT_SCHEDULER_MAIN: Load scheduler "tlk0" with entities [EventEntity, EventEntity], work=20*
 13: 0x0065 [0x1D] PRINT_EVENT_MESSAGE(message_id=7399*)
    → "Just got here and you're aching to leave, eh? Listen, the lands are wild beyond our gates, filled with fiends and their ilk."
 14: 0x0068 [0x23] WAIT_FOR_DIALOG_INTERACTION
 15: 0x0069 [0x1C] WAIT(30* ticks)
 16: 0x006C [0x1D] PRINT_EVENT_MESSAGE(message_id=7400*)
    → "But if you must go, take those stairs, head for Northern San d'Oria, then go out Ranperre Gate. You'll need to go down Laborman's Way, then take a right to get to the gate."
 17: 0x006F [0x23] WAIT_FOR_DIALOG_INTERACTION
 18: 0x0070 [0x1C] WAIT(30* ticks)
 19: 0x0073 [0x1D] PRINT_EVENT_MESSAGE(message_id=7401*)
    → "If you need any help with directions, ask those around you. Our citizens are friendly, for the most part."
 20: 0x0076 [0x23] WAIT_FOR_DIALOG_INTERACTION
 21: 0x0077 [0x5E] EventEntity goes idle (kills current action) (animation: "idl0")
 22: 0x007C [0x1C] WAIT(30* ticks)
 23: 0x007F [0x01] GOTO 0x00CE
 24: 0x0082 [0x02] IF !(Work_Zone[0] == 2*) GOTO 0x00A8
 25: 0x008A [0x66] LOAD_EXT_SCHEDULER_MAIN: Load scheduler "tlk0" with entities [EventEntity, EventEntity], work=20*
 26: 0x0099 [0x1D] PRINT_EVENT_MESSAGE(message_id=7403*)
    → "If you want to buy weapons or other supplies, just ask one of the merchants in town."
 27: 0x009C [0x23] WAIT_FOR_DIALOG_INTERACTION
 28: 0x009D [0x5E] EventEntity goes idle (kills current action) (animation: "idl0")
 29: 0x00A2 [0x1C] WAIT(30* ticks)
 30: 0x00A5 [0x01] GOTO 0x00CE
 31: 0x00A8 [0x02] IF !(Work_Zone[0] == 3*) GOTO 0x00CE
 32: 0x00B0 [0x66] LOAD_EXT_SCHEDULER_MAIN: Load scheduler "tlk0" with entities [EventEntity, EventEntity], work=20*
 33: 0x00BF [0x1D] PRINT_EVENT_MESSAGE(message_id=7404*)
    → "Ahh, recruits... Don't know which way to hold a sword and you think you're ready for adventures. Well, what would you like to know?"
 34: 0x00C2 [0x23] WAIT_FOR_DIALOG_INTERACTION
 35: 0x00C3 [0x5E] EventEntity goes idle (kills current action) (animation: "idl0")
 36: 0x00C8 [0x01] GOTO 0x00D0

SUBROUTINE_00CE:
 37: 0x00CE [0x21] END_EVENT
 38: 0x00CF [0x00] END_REQSTACK()

SUBROUTINE_00D0:
 39: 0x00D0 [0x24] CREATE_DIALOG(message_id=7406*, default_option=0*, option_flags=0*)
    → "What would you like to know? [Helping people./Hunting monsters./Making easy money./Working for my country.]"
 40: 0x00D7 [0x25] WAIT_DIALOG_SELECT()
 41: 0x00D8 [0x02] IF !(Work_Zone[0] == 0*) GOTO 0x0105
 42: 0x00E0 [0x66] LOAD_EXT_SCHEDULER_MAIN: Load scheduler "tlk0" with entities [EventEntity, EventEntity], work=20*
 43: 0x00EF [0x1D] PRINT_EVENT_MESSAGE(message_id=7407*)
    → "Ah, a commendable choice! Come to think of it, there was a lady in front of a house on Pikeman's Way. She may be in need of assistance."
 44: 0x00F2 [0x23] WAIT_FOR_DIALOG_INTERACTION
 45: 0x00F3 [0x1C] WAIT(30* ticks)
 46: 0x00F6 [0x1D] PRINT_EVENT_MESSAGE(message_id=7401*)
    → "If you need any help with directions, ask those around you. Our citizens are friendly, for the most part."
 47: 0x00F9 [0x23] WAIT_FOR_DIALOG_INTERACTION
 48: 0x00FA [0x5E] EventEntity goes idle (kills current action) (animation: "idl0")
 49: 0x00FF [0x1C] WAIT(30* ticks)
 50: 0x0102 [0x01] GOTO 0x019A
 51: 0x0105 [0x02] IF !(Work_Zone[0] == 1*) GOTO 0x0139
 52: 0x010D [0x66] LOAD_EXT_SCHEDULER_MAIN: Load scheduler "tlk0" with entities [EventEntity, EventEntity], work=20*
 53: 0x011C [0x1D] PRINT_EVENT_MESSAGE(message_id=7409*)
    → "Ahh, recruits... Don't know your own limits until a fiend beats it into your head for you. Very well. How about gathering some hides?"
 54: 0x011F [0x23] WAIT_FOR_DIALOG_INTERACTION
 55: 0x0120 [0x1C] WAIT(30* ticks)
 56: 0x0123 [0x1D] PRINT_EVENT_MESSAGE(message_id=7410*)
    → "From Northern San d'Oria, pass through Victory Arch to enter Southern San d'Oria. There you'll find the Tanners' Guild. They need hides every now and then."
 57: 0x0126 [0x23] WAIT_FOR_DIALOG_INTERACTION
 58: 0x0127 [0x1C] WAIT(30* ticks)
 59: 0x012A [0x1D] PRINT_EVENT_MESSAGE(message_id=7411*)
    → "If you have trouble finding the Tanners' Guild, just ask around."
 60: 0x012D [0x23] WAIT_FOR_DIALOG_INTERACTION
 61: 0x012E [0x5E] EventEntity goes idle (kills current action) (animation: "idl0")
 62: 0x0133 [0x1C] WAIT(30* ticks)
 63: 0x0136 [0x01] GOTO 0x019A
 64: 0x0139 [0x02] IF !(Work_Zone[0] == 2*) GOTO 0x016D
 65: 0x0141 [0x66] LOAD_EXT_SCHEDULER_MAIN: Load scheduler "tlk0" with entities [EventEntity, EventEntity], work=20*
 66: 0x0150 [0x1D] PRINT_EVENT_MESSAGE(message_id=7412*)
    → "Easy money, eh? Typical of a new recruit. I cannot promise ease, but try the lumberyard in Northern San d'Oria. Should be enough work for you there."
 67: 0x0153 [0x23] WAIT_FOR_DIALOG_INTERACTION
 68: 0x0154 [0x1C] WAIT(30* ticks)
 69: 0x0157 [0x1D] PRINT_EVENT_MESSAGE(message_id=7413*)
    → "Go up those stairs there to get to Northern San d'Oria. You'll find the lumberyard near the top."
 70: 0x015A [0x23] WAIT_FOR_DIALOG_INTERACTION
 71: 0x015B [0x1C] WAIT(30* ticks)
 72: 0x015E [0x1D] PRINT_EVENT_MESSAGE(message_id=7401*)
    → "If you need any help with directions, ask those around you. Our citizens are friendly, for the most part."
 73: 0x0161 [0x23] WAIT_FOR_DIALOG_INTERACTION
 74: 0x0162 [0x5E] EventEntity goes idle (kills current action) (animation: "idl0")
 75: 0x0167 [0x1C] WAIT(30* ticks)
 76: 0x016A [0x01] GOTO 0x019A
 77: 0x016D [0x02] IF !(Work_Zone[0] == 3*) GOTO 0x019A
 78: 0x0175 [0x66] LOAD_EXT_SCHEDULER_MAIN: Load scheduler "tlk0" with entities [EventEntity, EventEntity], work=20*
 79: 0x0184 [0x1D] PRINT_EVENT_MESSAGE(message_id=7414*)
    → "Ah, a commendable choice. Head to any city gate and inquire at the gatehouse. They'll give you work befitting your rank."
 80: 0x0187 [0x23] WAIT_FOR_DIALOG_INTERACTION
 81: 0x0188 [0x1C] WAIT(30* ticks)
 82: 0x018B [0x1D] PRINT_EVENT_MESSAGE(message_id=7401*)
    → "If you need any help with directions, ask those around you. Our citizens are friendly, for the most part."
 83: 0x018E [0x23] WAIT_FOR_DIALOG_INTERACTION
 84: 0x018F [0x5E] EventEntity goes idle (kills current action) (animation: "idl0")
 85: 0x0194 [0x1C] WAIT(30* ticks)
 86: 0x0197 [0x01] GOTO 0x019A

SUBROUTINE_019A:
 87: 0x019A [0x21] END_EVENT
 88: 0x019B [0x00] END_REQSTACK()
```

#### Data or dead code:

```
# Dead code (unreachable instructions):
     0x00CB [0x01] GOTO 0x00CE
```
