# 17727619

## Common Data

| Field            | Value                     |
|------------------|---------------------------|
| Zone             | Port San d'Oria (ID: 232) |
| Block Size       | 21356 bytes               |
| Total Events     | 4                         |
| References Count | 297                       |

## List of Events

| Event ID                 | Entrypoint   |   Size |   Instructions |
|--------------------------|--------------|--------|----------------|
| [65535](#event-65535)    | 0x0000       |      1 |              1 |
| [745](#event-745)        | 0x0001       |   1582 |            250 |
| [65535.1](#event-655351) | 0x062F       |     14 |              4 |
| [65535.2](#event-655352) | 0x063D       |  18538 |           3186 |

## DAT References (imed_data)

|   Index | Hex Value   |   Dec Value |
|---------|-------------|-------------|
|       0 | 0x0170      |         368 |
|       1 | 0x00C8      |         200 |
|       2 | 0x0000      |           0 |
|       3 | 0x0013      |          19 |
|       4 | 0xFFFFBA9E  |  4294949534 |
|       5 | 0xFFFE94E9  |  4294874345 |
|       6 | 0xFFFFF060  |  4294963296 |
|       7 | 0x054F      |        1359 |
|       8 | 0x00C0      |         192 |
|       9 | 0x003C      |          60 |
|      10 | 0x000F      |          15 |
|      11 | 0x2123      |        8483 |
|      12 | 0x0015      |          21 |
|      13 | 0x2124      |        8484 |
|      14 | 0x0014      |          20 |
|      15 | 0x2125      |        8485 |
|      16 | 0x2126      |        8486 |
|      17 | 0x001E      |          30 |
|      18 | 0x0007      |           7 |
|      19 | 0x000D      |          13 |
|      20 | 0xFFFFB082  |  4294946946 |
|      21 | 0xFFFE6235  |  4294861365 |
|      22 | 0x0001      |           1 |
|      23 | 0x2127      |        8487 |
|      24 | 0x0002      |           2 |
|      25 | 0x2128      |        8488 |
|      26 | 0x0003      |           3 |
|      27 | 0x2129      |        8489 |
|      28 | 0x0004      |           4 |
|      29 | 0x212A      |        8490 |
|      30 | 0x0005      |           5 |
|      31 | 0x212D      |        8493 |
|      32 | 0x0006      |           6 |
|      33 | 0x212E      |        8494 |
|      34 | 0x212F      |        8495 |
|      35 | 0x0008      |           8 |
|      36 | 0x2130      |        8496 |
|      37 | 0x0009      |           9 |
|      38 | 0x2131      |        8497 |
|      39 | 0x000A      |          10 |
|      40 | 0x212B      |        8491 |
|      41 | 0x000B      |          11 |
|      42 | 0x212C      |        8492 |
|      43 | 0x000C      |          12 |
|      44 | 0x2132      |        8498 |
|      45 | 0x0028      |          40 |
|      46 | 0x0032      |          50 |
|      47 | 0x0078      |         120 |
|      48 | 0x2133      |        8499 |
|      49 | 0x2134      |        8500 |
|      50 | 0x2135      |        8501 |
|      51 | 0x2136      |        8502 |
|      52 | 0x2137      |        8503 |
|      53 | 0x213A      |        8506 |
|      54 | 0x213B      |        8507 |
|      55 | 0x213C      |        8508 |
|      56 | 0x213D      |        8509 |
|      57 | 0x213E      |        8510 |
|      58 | 0x2138      |        8504 |
|      59 | 0x2139      |        8505 |
|      60 | 0x213F      |        8511 |
|      61 | 0x001B      |          27 |
|      62 | 0x2140      |        8512 |
|      63 | 0x2141      |        8513 |
|      64 | 0x005A      |          90 |
|      65 | 0x2142      |        8514 |
|      66 | 0x2143      |        8515 |
|      67 | 0x2144      |        8516 |
|      68 | 0x2145      |        8517 |
|      69 | 0xFFFFC6D3  |  4294952659 |
|      70 | 0xFFFE84E7  |  4294870247 |
|      71 | 0xFFFFB2FF  |  4294947583 |
|      72 | 0xFFFE6369  |  4294861673 |
|      73 | 0x005F      |          95 |
|      74 | 0x0064      |         100 |
|      75 | 0x0069      |         105 |
|      76 | 0x0052      |          82 |
|      77 | 0x0057      |          87 |
|      78 | 0x005C      |          92 |
|      79 | 0x0059      |          89 |
|      80 | 0x005D      |          93 |
|      81 | 0x0061      |          97 |
|      82 | 0x0060      |          96 |
|      83 | 0x0012      |          18 |
|      84 | 0x0017      |          23 |
|      85 | 0x000E      |          14 |
|      86 | 0x0018      |          24 |
|      87 | 0x001F      |          31 |
|      88 | 0x0010      |          16 |
|      89 | 0x018D      |         397 |
|      90 | 0x0175      |         373 |
|      91 | 0x0171      |         369 |
|      92 | 0x014C      |         332 |
|      93 | 0x01C1      |         449 |
|      94 | 0x027C      |         636 |
|      95 | 0x027B      |         635 |
|      96 | 0x027D      |         637 |
|      97 | 0x02D3      |         723 |
|      98 | 0x0321      |         801 |
|      99 | 0x0326      |         806 |
|     100 | 0x01E1      |         481 |
|     101 | 0x0343      |         835 |
|     102 | 0x0386      |         902 |
|     103 | 0x0388      |         904 |
|     104 | 0x0361      |         865 |
|     105 | 0x0387      |         903 |
|     106 | 0x038A      |         906 |
|     107 | 0x003F      |          63 |
|     108 | 0x0282      |         642 |
|     109 | 0x0283      |         643 |
|     110 | 0x0288      |         648 |
|     111 | 0x0289      |         649 |
|     112 | 0x028A      |         650 |
|     113 | 0x028B      |         651 |
|     114 | 0x029E      |         670 |
|     115 | 0x0019      |          25 |
|     116 | 0x00C6      |         198 |
|     117 | 0x00B5      |         181 |
|     118 | 0x008C      |         140 |
|     119 | 0x008E      |         142 |
|     120 | 0x007A      |         122 |
|     121 | 0x014B      |         331 |
|     122 | 0x0148      |         328 |
|     123 | 0x0166      |         358 |
|     124 | 0x017A      |         378 |
|     125 | 0x0182      |         386 |
|     126 | 0x0183      |         387 |
|     127 | 0x0192      |         402 |
|     128 | 0x01DF      |         479 |
|     129 | 0x01E9      |         489 |
|     130 | 0x001C      |          28 |
|     131 | 0x00E6      |         230 |
|     132 | 0x00EB      |         235 |
|     133 | 0x00F5      |         245 |
|     134 | 0x007E      |         126 |
|     135 | 0x007F      |         127 |
|     136 | 0x00F3      |         243 |
|     137 | 0x00F4      |         244 |
|     138 | 0x00E0      |         224 |
|     139 | 0x00E9      |         233 |
|     140 | 0x009E      |         158 |
|     141 | 0x009D      |         157 |
|     142 | 0x00E2      |         226 |
|     143 | 0x00E1      |         225 |
|     144 | 0x014F      |         335 |
|     145 | 0x014E      |         334 |
|     146 | 0x0167      |         359 |
|     147 | 0x00E5      |         229 |
|     148 | 0x0169      |         361 |
|     149 | 0x016A      |         362 |
|     150 | 0x0168      |         360 |
|     151 | 0x0133      |         307 |
|     152 | 0x0174      |         372 |
|     153 | 0x018C      |         396 |
|     154 | 0x0194      |         404 |
|     155 | 0x0195      |         405 |
|     156 | 0x0178      |         376 |
|     157 | 0x0240      |         576 |
|     158 | 0x0197      |         407 |
|     159 | 0x0198      |         408 |
|     160 | 0x01A3      |         419 |
|     161 | 0x019E      |         414 |
|     162 | 0x0246      |         582 |
|     163 | 0x0247      |         583 |
|     164 | 0x0248      |         584 |
|     165 | 0x024B      |         587 |
|     166 | 0x024A      |         586 |
|     167 | 0x0011      |          17 |
|     168 | 0x024F      |         591 |
|     169 | 0x01C3      |         451 |
|     170 | 0x01C4      |         452 |
|     171 | 0x01EF      |         495 |
|     172 | 0x01F0      |         496 |
|     173 | 0x001A      |          26 |
|     174 | 0x0095      |         149 |
|     175 | 0x001D      |          29 |
|     176 | 0x0073      |         115 |
|     177 | 0x0034      |          52 |
|     178 | 0x0024      |          36 |
|     179 | 0x005E      |          94 |
|     180 | 0x0072      |         114 |
|     181 | 0x0031      |          49 |
|     182 | 0x006C      |         108 |
|     183 | 0x003A      |          58 |
|     184 | 0x0096      |         150 |
|     185 | 0x0016      |          22 |
|     186 | 0x0035      |          53 |
|     187 | 0x0085      |         133 |
|     188 | 0x0081      |         129 |
|     189 | 0x0023      |          35 |
|     190 | 0x0033      |          51 |
|     191 | 0x0082      |         130 |
|     192 | 0x0039      |          57 |
|     193 | 0x0020      |          32 |
|     194 | 0x0038      |          56 |
|     195 | 0x0036      |          54 |
|     196 | 0x0083      |         131 |
|     197 | 0x00A2      |         162 |
|     198 | 0x0022      |          34 |
|     199 | 0x0021      |          33 |
|     200 | 0x0065      |         101 |
|     201 | 0x0086      |         134 |
|     202 | 0x0062      |          98 |
|     203 | 0x008D      |         141 |
|     204 | 0x0037      |          55 |
|     205 | 0x008A      |         138 |
|     206 | 0x008B      |         139 |
|     207 | 0x002B      |          43 |
|     208 | 0x0067      |         103 |
|     209 | 0x0030      |          48 |
|     210 | 0x002D      |          45 |
|     211 | 0x00A1      |         161 |
|     212 | 0x0066      |         102 |
|     213 | 0x0075      |         117 |
|     214 | 0x0068      |         104 |
|     215 | 0x007B      |         123 |
|     216 | 0x0077      |         119 |
|     217 | 0x01FE      |         510 |
|     218 | 0x009F      |         159 |
|     219 | 0x00A4      |         164 |
|     220 | 0x00A9      |         169 |
|     221 | 0x00AC      |         172 |
|     222 | 0x00B2      |         178 |
|     223 | 0x00B0      |         176 |
|     224 | 0x013D      |         317 |
|     225 | 0x0108      |         264 |
|     226 | 0x010C      |         268 |
|     227 | 0x0100      |         256 |
|     228 | 0x00FB      |         251 |
|     229 | 0x00B8      |         184 |
|     230 | 0x011C      |         284 |
|     231 | 0x0041      |          65 |
|     232 | 0x0042      |          66 |
|     233 | 0x0047      |          71 |
|     234 | 0x0160      |         352 |
|     235 | 0x0043      |          67 |
|     236 | 0x0048      |          72 |
|     237 | 0x004B      |          75 |
|     238 | 0x004C      |          76 |
|     239 | 0x004D      |          77 |
|     240 | 0x005B      |          91 |
|     241 | 0x0058      |          88 |
|     242 | 0x0053      |          83 |
|     243 | 0x0054      |          84 |
|     244 | 0x0161      |         353 |
|     245 | 0x015C      |         348 |
|     246 | 0x016D      |         365 |
|     247 | 0x00C5      |         197 |
|     248 | 0x00C3      |         195 |
|     249 | 0x00C7      |         199 |
|     250 | 0x015E      |         350 |
|     251 | 0x00C4      |         196 |
|     252 | 0x016E      |         366 |
|     253 | 0x00D0      |         208 |
|     254 | 0x00CD      |         205 |
|     255 | 0x00CA      |         202 |
|     256 | 0x00D2      |         210 |
|     257 | 0x00D8      |         216 |
|     258 | 0x00D5      |         213 |
|     259 | 0x00D6      |         214 |
|     260 | 0x013B      |         315 |
|     261 | 0x0136      |         310 |
|     262 | 0x013A      |         314 |
|     263 | 0x0137      |         311 |
|     264 | 0x016F      |         367 |
|     265 | 0x0138      |         312 |
|     266 | 0x0139      |         313 |
|     267 | 0x009A      |         154 |
|     268 | 0x0091      |         145 |
|     269 | 0x009B      |         155 |
|     270 | 0x0099      |         153 |
|     271 | 0x0093      |         147 |
|     272 | 0x0092      |         146 |
|     273 | 0x0098      |         152 |
|     274 | 0x0071      |         113 |
|     275 | 0x00E8      |         232 |
|     276 | 0x00DD      |         221 |
|     277 | 0x00F8      |         248 |
|     278 | 0x00F1      |         241 |
|     279 | 0x0124      |         292 |
|     280 | 0x012E      |         302 |
|     281 | 0x0129      |         297 |
|     282 | 0x0122      |         290 |
|     283 | 0x0132      |         306 |
|     284 | 0x0126      |         294 |
|     285 | 0x0155      |         341 |
|     286 | 0x0025      |          37 |
|     287 | 0x0029      |          41 |
|     288 | 0x007D      |         125 |
|     289 | 0x0079      |         121 |
|     290 | 0x007C      |         124 |
|     291 | 0x0074      |         116 |
|     292 | 0x00EC      |         236 |
|     293 | 0x019C      |         412 |
|     294 | 0x0193      |         403 |
|     295 | 0x01C6      |         454 |
|     296 | 0x01C7      |         455 |

## Events

### Event 65535

#### Metadata

| Field        | Value   |
|--------------|---------|
| Entrypoint   | 0x0000  |
| Data Size    | 1 bytes |
| Instructions | 1       |

```
      00 01 02 03 04 05 06 07  08 09 0A 0B 0C 0D 0E 0F
      -- -- -- -- -- -- -- --  -- -- -- -- -- -- -- --
0000: 00                                                .               
```

#### Opcodes

```
  0: 0x0000 [0x00] END_REQSTACK()
```

### Event 745

#### Metadata

| Field        | Value      |
|--------------|------------|
| Entrypoint   | 0x0001     |
| Data Size    | 1582 bytes |
| Instructions | 250        |

```
      00 01 02 03 04 05 06 07  08 09 0A 0B 0C 0D 0E 0F
      -- -- -- -- -- -- -- --  -- -- -- -- -- -- -- --
0000:    42 2F 00 83 80 0E 01  80 83 80 0E 01 75 00 00   B/..........u..
0010: 80 75 01 45 01 80 F0 FF  FF 7F F0 FF FF 7F 66 64  .u.E..........fd
0020: 6F 30 02 80 55 01 80 F0  FF FF 7F F0 FF FF 7F 66  o0..U..........f
0030: 64 6F 30 46 01 92 01 11  80 0E 01 38 03 80 1A 61  do0F.......8...a
0040: 1F 1A AC 16 1A 7C 0E 4E  00 83 80 0E 01 95 02 80  .....|.N........
0050: 37 04 80 05 80 06 80 07  80 29 05 F0 FF FF 7F 3D  7........).....=
0060: 4A 11 80 0E 01 F0 FF FF  7F 6F 76 11 80 0E 01 45  J........ov....E
0070: 08 80 F0 FF FF 7F F0 FF  FF 7F 73 30 31 31 02 80  ..........s011..
0080: 1C 09 80 45 01 80 F0 FF  FF 7F F0 FF FF 7F 66 64  ...E..........fd
0090: 69 31 02 80 55 01 80 F0  FF FF 7F F0 FF FF 7F 66  i1..U..........f
00A0: 64 69 31 1C 0A 80 2B 11  80 0E 01 0B 80 23 66 0C  di1...+......#f.
00B0: 80 11 80 0E 01 11 80 0E  01 64 69 73 30 2B 11 80  .........dis0+..
00C0: 0E 01 0D 80 23 52 08 80  F0 FF FF 7F F0 FF FF 7F  ....#R..........
00D0: 73 30 31 31 45 08 80 F0  FF FF 7F F0 FF FF 7F 73  s011E..........s
00E0: 30 31 32 02 80 4A 11 80  0E 01 F0 FF FF 7F 6F 76  012..J........ov
00F0: 11 80 0E 01 66 0E 80 11  80 0E 01 11 80 0E 01 74  ....f..........t
0100: 6C 6B 30 2B 11 80 0E 01  0F 80 23 2B 11 80 0E 01  lk0+......#+....
0110: 10 80 23 66 0E 80 11 80  0E 01 11 80 0E 01 74 6C  ..#f..........tl
0120: 6B 31 27 0A 83 80 0E 01  02 52 08 80 F0 FF FF 7F  k1'......R......
0130: F0 FF FF 7F 73 30 31 32  45 08 80 F0 FF FF 7F F0  ....s012E.......
0140: FF FF 7F 73 30 31 33 02  80 27 14 63 80 0E 01 02  ...s013..'.c....
0150: 2A 0A 83 80 0E 01 79 00  F0 FF FF 7F 63 80 0E 01  *.....y.....c...
0160: 29 0F 83 80 0E 01 03 79  00 F0 FF FF 7F 83 80 0E  )......y........
0170: 01 1C 11 80 79 00 83 80  0E 01 F0 FF FF 7F 1C 11  ....y...........
0180: 80 6E 83 80 0E 01 12 80  99 83 80 0E 01 1C 09 80  .n..............
0190: 52 08 80 F0 FF FF 7F F0  FF FF 7F 73 30 31 33 45  R..........s013E
01A0: 08 80 F0 FF FF 7F F0 FF  FF 7F 73 30 31 34 02 80  ..........s014..
01B0: 4A 83 80 0E 01 11 80 0E  01 6F 76 83 80 0E 01 1C  J........ov.....
01C0: 09 80 32 13 80 1F 00 14  80 15 80 06 80 1F 01 6F  ..2............o
01D0: 79 00 F0 FF FF 7F 11 80  0E 01 4A 11 80 0E 01 83  y.........J.....
01E0: 80 0E 01 6F 76 11 80 0E  01 1A 82 1B 02 08 00 16  ...ov...........
01F0: 80 80 FF 01 2B 83 80 0E  01 17 80 23 01 D0 02 02  ....+......#....
0200: 08 00 18 80 80 12 02 2B  83 80 0E 01 19 80 23 01  .......+......#.
0210: D0 02 02 08 00 1A 80 80  25 02 2B 83 80 0E 01 1B  ........%.+.....
0220: 80 23 01 D0 02 02 08 00  1C 80 80 38 02 2B 83 80  .#.........8.+..
0230: 0E 01 1D 80 23 01 D0 02  02 08 00 1E 80 80 4B 02  ....#.........K.
0240: 2B 83 80 0E 01 1F 80 23  01 D0 02 02 08 00 20 80  +......#...... .
0250: 80 5E 02 2B 83 80 0E 01  21 80 23 01 D0 02 02 08  .^.+....!.#.....
0260: 00 12 80 80 71 02 2B 83  80 0E 01 22 80 23 01 D0  ....q.+....".#..
0270: 02 02 08 00 23 80 80 84  02 2B 83 80 0E 01 24 80  ....#....+....$.
0280: 23 01 D0 02 02 08 00 25  80 80 97 02 2B 83 80 0E  #......%....+...
0290: 01 26 80 23 01 D0 02 02  08 00 27 80 80 AA 02 2B  .&.#......'....+
02A0: 83 80 0E 01 28 80 23 01  D0 02 02 08 00 29 80 80  ....(.#......)..
02B0: BD 02 2B 83 80 0E 01 2A  80 23 01 D0 02 02 08 00  ..+....*.#......
02C0: 2B 80 80 D0 02 2B 83 80  0E 01 2C 80 23 01 D0 02  +....+....,.#...
02D0: 1A A1 1A 02 0B 00 02 80  80 ED 02 66 02 80 83 80  ...........f....
02E0: 0E 01 83 80 0E 01 70 61  73 30 01 A3 03 02 0B 00  ......pas0......
02F0: 16 80 80 07 03 66 27 80  83 80 0E 01 83 80 0E 01  .....f'.........
0300: 70 61 73 30 01 A3 03 02  0B 00 18 80 80 21 03 66  pas0.........!.f
0310: 0E 80 83 80 0E 01 83 80  0E 01 70 61 73 30 01 A3  ..........pas0..
0320: 03 02 0B 00 1A 80 80 3B  03 66 11 80 83 80 0E 01  .......;.f......
0330: 83 80 0E 01 70 61 73 30  01 A3 03 02 0B 00 1C 80  ....pas0........
0340: 80 55 03 66 2D 80 83 80  0E 01 83 80 0E 01 70 61  .U.f-.........pa
0350: 73 30 01 A3 03 02 0B 00  1E 80 80 6F 03 66 2D 80  s0.........o.f-.
0360: 83 80 0E 01 83 80 0E 01  70 61 73 30 01 A3 03 02  ........pas0....
0370: 0B 00 20 80 80 89 03 66  2E 80 83 80 0E 01 83 80  .. ....f........
0380: 0E 01 70 61 73 30 01 A3  03 02 0B 00 12 80 80 A3  ..pas0..........
0390: 03 66 09 80 83 80 0E 01  83 80 0E 01 70 61 73 30  .f..........pas0
03A0: 01 A3 03 1C 2F 80 66 0C  80 11 80 0E 01 11 80 0E  ..../.f.........
03B0: 01 64 69 73 30 2B 11 80  0E 01 30 80 23 1A 82 1B  .dis0+....0.#...
03C0: 02 08 00 16 80 80 DF 03  6E 83 80 0E 01 12 80 99  ........n.......
03D0: 83 80 0E 01 2B 83 80 0E  01 31 80 23 01 10 05 02  ....+....1.#....
03E0: 08 00 18 80 80 F2 03 2B  83 80 0E 01 32 80 23 01  .......+....2.#.
03F0: 10 05 02 08 00 1A 80 80  05 04 2B 83 80 0E 01 33  ..........+....3
0400: 80 23 01 10 05 02 08 00  1C 80 80 24 04 6E 83 80  .#.........$.n..
0410: 0E 01 12 80 99 83 80 0E  01 2B 83 80 0E 01 34 80  .........+....4.
0420: 23 01 10 05 02 08 00 1E  80 80 43 04 6E 83 80 0E  #.........C.n...
0430: 01 12 80 99 83 80 0E 01  2B 83 80 0E 01 35 80 23  ........+....5.#
0440: 01 10 05 02 08 00 20 80  80 56 04 2B 83 80 0E 01  ...... ..V.+....
0450: 36 80 23 01 10 05 02 08  00 12 80 80 75 04 6E 83  6.#.........u.n.
0460: 80 0E 01 12 80 99 83 80  0E 01 2B 83 80 0E 01 37  ..........+....7
0470: 80 23 01 10 05 02 08 00  23 80 80 94 04 6E 83 80  .#......#....n..
0480: 0E 01 12 80 99 83 80 0E  01 2B 83 80 0E 01 38 80  .........+....8.
0490: 23 01 10 05 02 08 00 25  80 80 B3 04 6E 83 80 0E  #......%....n...
04A0: 01 12 80 99 83 80 0E 01  2B 83 80 0E 01 39 80 23  ........+....9.#
04B0: 01 10 05 02 08 00 27 80  80 D2 04 6E 83 80 0E 01  ......'....n....
04C0: 12 80 99 83 80 0E 01 2B  83 80 0E 01 3A 80 23 01  .......+....:.#.
04D0: 10 05 02 08 00 29 80 80  F1 04 6E 83 80 0E 01 12  .....)....n.....
04E0: 80 99 83 80 0E 01 2B 83  80 0E 01 3B 80 23 01 10  ......+....;.#..
04F0: 05 02 08 00 2B 80 80 10  05 6E 83 80 0E 01 12 80  ....+....n......
0500: 99 83 80 0E 01 2B 83 80  0E 01 3C 80 23 01 10 05  .....+....<.#...
0510: 52 08 80 F0 FF FF 7F F0  FF FF 7F 73 30 31 34 45  R..........s014E
0520: 08 80 F0 FF FF 7F F0 FF  FF 7F 73 30 31 35 02 80  ..........s015..
0530: 66 3D 80 11 80 0E 01 11  80 0E 01 74 6C 62 30 2B  f=.........tlb0+
0540: 11 80 0E 01 3E 80 23 2B  11 80 0E 01 3F 80 23 1C  ....>.#+....?.#.
0550: 40 80 52 08 80 F0 FF FF  7F F0 FF FF 7F 73 30 31  @.R..........s01
0560: 35 45 08 80 F0 FF FF 7F  F0 FF FF 7F 73 30 31 36  5E..........s016
0570: 02 80 1C 11 80 2B 11 80  0E 01 41 80 23 66 3D 80  .....+....A.#f=.
0580: 11 80 0E 01 11 80 0E 01  74 6C 62 31 2B 11 80 0E  ........tlb1+...
0590: 01 42 80 23 1C 40 80 52  08 80 F0 FF FF 7F F0 FF  .B.#.@.R........
05A0: FF 7F 73 30 31 36 45 08  80 F0 FF FF 7F F0 FF FF  ..s016E.........
05B0: 7F 73 30 31 37 02 80 1C  09 80 66 0C 80 11 80 0E  .s017.....f.....
05C0: 01 11 80 0E 01 64 69 73  30 2B 11 80 0E 01 43 80  .....dis0+....C.
05D0: 23 2B 11 80 0E 01 44 80  23 1C 2F 80 45 01 80 F0  #+....D.#./.E...
05E0: FF FF 7F F0 FF FF 7F 66  64 6F 31 02 80 55 01 80  .......fdo1..U..
05F0: F0 FF FF 7F F0 FF FF 7F  66 64 6F 31 52 08 80 F0  ........fdo1R...
0600: FF FF 7F F0 FF FF 7F 73  30 31 37 4E 01 83 80 0E  .......s017N....
0610: 01 46 00 1C 09 80 45 01  80 F0 FF FF 7F F0 FF FF  .F....E.........
0620: 7F 66 64 69 30 02 80 2F  01 83 80 0E 01 21 00     .fdi0../.....!. 
```

#### Opcodes

```
  0: 0x0001 [0x42] SET_CLI_EVENT_CANCEL_DATA()
  1: 0x0002 [0x2F] Unnamed NPC (ID: 17727619/0x010E8083)->Render.Flags0 &= ~0x80000 // Bit 19
  2: 0x0008 [0x80] LOAD_WAIT(entity=Unnamed NPC (ID: 17727619/0x010E8083))
  3: 0x000D [0x75] LOAD_ROOM(Load indoor room, room=368*)
  4: 0x0011 [0x75] LOAD_ROOM(No action)
  5: 0x0013 [0x45] LOAD_SCHEDULED_TASK: Load scheduler "fdo0" with entities [LocalPlayer, LocalPlayer], work=[200*, 0*]
  6: 0x0024 [0x55] WAIT_LOAD_SCHEDULER: Wait for scheduler "fdo0" with entities [LocalPlayer, LocalPlayer], work=200*
  7: 0x0033 [0x46] CAMERA_CONTROL: Disable user control
  8: 0x0035 [0x92] Portaure (ID: 17727505/0x010E8011)->Render.Flags3 ^= 0x01
  9: 0x003B [0x38] SET_CLIENT_EVENT_MODE(mode=19*)
 10: 0x003E [0x1A] CALL_SUBROUTINE(address=0x1F61)
 11: 0x0041 [0x1A] CALL_SUBROUTINE(address=0x16AC)
 12: 0x0044 [0x1A] CALL_SUBROUTINE(address=0x0E7C)
 13: 0x0047 [0x4E] SET_ENTITY_HIDE_FLAG: Show Unnamed NPC (ID: 17727619/0x010E8083)
 14: 0x004D [0x95] SETUP_EVENT_NPC: Prepare NPC for event (Render.Flags3 = 0*)
 15: 0x0050 [0x37] UPDATE_EVENT_POSITION_AND_DIR: x=-17.762*, z=-92.951*, y=-4.000*, direction=119.4°*
 16: 0x0059 [0x29] REQ_SET_WAIT(priority=0x05, entity_id=LocalPlayer, tag_num=0x3D)
 17: 0x0060 [0x4A] Portaure (ID: 17727505/0x010E8011) looks at LocalPlayer
 18: 0x0069 [0x6F] WAIT_FRAME_DELAY: Yield until WaitTime reaches zero
 19: 0x006A [0x76] CHECK_ENTITY_RENDER_FLAGS: Wait until Portaure (ID: 17727505/0x010E8011) Render.Flags0 and Render.Flags3 conditions are met
 20: 0x006F [0x45] LOAD_SCHEDULED_TASK: Load scheduler "s011" with entities [LocalPlayer, LocalPlayer], work=[192*, 0*]
 21: 0x0080 [0x1C] WAIT(60* ticks)
 22: 0x0083 [0x45] LOAD_SCHEDULED_TASK: Load scheduler "fdi1" with entities [LocalPlayer, LocalPlayer], work=[200*, 0*]
 23: 0x0094 [0x55] WAIT_LOAD_SCHEDULER: Wait for scheduler "fdi1" with entities [LocalPlayer, LocalPlayer], work=200*
 24: 0x00A3 [0x1C] WAIT(15* ticks)
 25: 0x00A6 [0x2B] Portaure (ID: 17727505/0x010E8011) [8483*]:
    → "Once you've lost something, it's gone for good, huh? Not my lucky day..."
 26: 0x00AD [0x23] WAIT_FOR_DIALOG_INTERACTION
 27: 0x00AE [0x66] LOAD_EXT_SCHEDULER_MAIN: Load scheduler "dis0" with entities [Portaure (ID: 17727505/0x010E8011), Portaure (ID: 17727505/0x010E8011)], work=21*
 28: 0x00BD [0x2B] Portaure (ID: 17727505/0x010E8011) [8484*]:
    → "<Sigh>..."
 29: 0x00C4 [0x23] WAIT_FOR_DIALOG_INTERACTION
 30: 0x00C5 [0x52] END_LOAD_SCHEDULER: End scheduler "s011" with entities [LocalPlayer, LocalPlayer], work=192*
 31: 0x00D4 [0x45] LOAD_SCHEDULED_TASK: Load scheduler "s012" with entities [LocalPlayer, LocalPlayer], work=[192*, 0*]
 32: 0x00E5 [0x4A] Portaure (ID: 17727505/0x010E8011) looks at LocalPlayer
 33: 0x00EE [0x6F] WAIT_FRAME_DELAY: Yield until WaitTime reaches zero
 34: 0x00EF [0x76] CHECK_ENTITY_RENDER_FLAGS: Wait until Portaure (ID: 17727505/0x010E8011) Render.Flags0 and Render.Flags3 conditions are met
 35: 0x00F4 [0x66] LOAD_EXT_SCHEDULER_MAIN: Load scheduler "tlk0" with entities [Portaure (ID: 17727505/0x010E8011), Portaure (ID: 17727505/0x010E8011)], work=20*
 36: 0x0103 [0x2B] Portaure (ID: 17727505/0x010E8011) [8485*]:
    → "My precious cargo... It was being transported to Jeuno when it was stolen."
 37: 0x010A [0x23] WAIT_FOR_DIALOG_INTERACTION
 38: 0x010B [0x2B] Portaure (ID: 17727505/0x010E8011) [8486*]:
    → "This is just between you and me, you understand? My cargo was a treasure from the Near East surrounded by rumors of ill fate. But my greed blinded me to the dangers."
 39: 0x0112 [0x23] WAIT_FOR_DIALOG_INTERACTION
 40: 0x0113 [0x66] LOAD_EXT_SCHEDULER_MAIN: Load scheduler "tlk1" with entities [Portaure (ID: 17727505/0x010E8011), Portaure (ID: 17727505/0x010E8011)], work=20*
 41: 0x0122 [0x27] REQ_SET(priority=0x0A, entity_id=Unnamed NPC (ID: 17727619/0x010E8083), tag_num=0x02)
 42: 0x0129 [0x52] END_LOAD_SCHEDULER: End scheduler "s012" with entities [LocalPlayer, LocalPlayer], work=192*
 43: 0x0138 [0x45] LOAD_SCHEDULED_TASK: Load scheduler "s013" with entities [LocalPlayer, LocalPlayer], work=[192*, 0*]
 44: 0x0149 [0x27] REQ_SET(priority=0x14, entity_id=Door:Cargo Room B (ID: 17727587/0x010E8063), tag_num=0x02)
 45: 0x0150 [0x2A] GET_REQ_LEVEL(level=10, entity_id=Unnamed NPC (ID: 17727619/0x010E8083))
 46: 0x0156 [0x79] LocalPlayer looks at Door:Cargo Room B (ID: 17727587/0x010E8063) (Basic look)
 47: 0x0160 [0x29] REQ_SET_WAIT(priority=0x0F, entity_id=Unnamed NPC (ID: 17727619/0x010E8083), tag_num=0x03)
 48: 0x0167 [0x79] LocalPlayer looks at Unnamed NPC (ID: 17727619/0x010E8083) (Basic look)
 49: 0x0171 [0x1C] WAIT(30* ticks)
 50: 0x0174 [0x79] Unnamed NPC (ID: 17727619/0x010E8083) looks at LocalPlayer (Basic look)
 51: 0x017E [0x1C] WAIT(30* ticks)
 52: 0x0181 [0x6E] Unnamed NPC (ID: 17727619/0x010E8083) uses emote 7*
 53: 0x0188 [0x99] Wait for Unnamed NPC (ID: 17727619/0x010E8083) animation to complete
 54: 0x018D [0x1C] WAIT(60* ticks)
 55: 0x0190 [0x52] END_LOAD_SCHEDULER: End scheduler "s013" with entities [LocalPlayer, LocalPlayer], work=192*
 56: 0x019F [0x45] LOAD_SCHEDULED_TASK: Load scheduler "s014" with entities [LocalPlayer, LocalPlayer], work=[192*, 0*]
 57: 0x01B0 [0x4A] Unnamed NPC (ID: 17727619/0x010E8083) looks at Portaure (ID: 17727505/0x010E8011)
 58: 0x01B9 [0x6F] WAIT_FRAME_DELAY: Yield until WaitTime reaches zero
 59: 0x01BA [0x76] CHECK_ENTITY_RENDER_FLAGS: Wait until Unnamed NPC (ID: 17727619/0x010E8083) Render.Flags0 and Render.Flags3 conditions are met
 60: 0x01BF [0x1C] WAIT(60* ticks)
 61: 0x01C2 [0x32] ExtData[1]->MainSpeed = 13* * 0.1
 62: 0x01C5 [0x1F] MOVE_ENTITY: EventEntity moves to X=-20.350*, Z=-105.931*, Y=-4.000*
 63: 0x01CD [0x1F] MOVE_ENTITY: Update entity position (mode=1)
 64: 0x01CF [0x6F] WAIT_FRAME_DELAY: Yield until WaitTime reaches zero
 65: 0x01D0 [0x79] LocalPlayer looks at Portaure (ID: 17727505/0x010E8011) (Basic look)
 66: 0x01DA [0x4A] Portaure (ID: 17727505/0x010E8011) looks at Unnamed NPC (ID: 17727619/0x010E8083)
 67: 0x01E3 [0x6F] WAIT_FRAME_DELAY: Yield until WaitTime reaches zero
 68: 0x01E4 [0x76] CHECK_ENTITY_RENDER_FLAGS: Wait until Portaure (ID: 17727505/0x010E8011) Render.Flags0 and Render.Flags3 conditions are met
 69: 0x01E9 [0x1A] CALL_SUBROUTINE(address=0x1B82)
 70: 0x01EC [0x02] IF !(ExtData[1]->WorkLocal[8] == 1*) GOTO 0x01FF
 71: 0x01F4 [0x2B] Unnamed NPC (ID: 17727619/0x010E8083) [8487*]:
    → "Did your cargo happen to look anything like this mirror?"
 72: 0x01FB [0x23] WAIT_FOR_DIALOG_INTERACTION
 73: 0x01FC [0x01] GOTO 0x02D0
 74: 0x01FF [0x02] IF !(ExtData[1]->WorkLocal[8] == 2*) GOTO 0x0212
 75: 0x0207 [0x2B] Unnamed NPC (ID: 17727619/0x010E8083) [8488*]:
    → "Did your treasure look like this mirror!?"
 76: 0x020E [0x23] WAIT_FOR_DIALOG_INTERACTION
 77: 0x020F [0x01] GOTO 0x02D0
 78: 0x0212 [0x02] IF !(ExtData[1]->WorkLocal[8] == 3*) GOTO 0x0225
 79: 0x021A [0x2B] Unnamed NPC (ID: 17727619/0x010E8083) [8489*]:
    → "Your treasure looked a lot like this mirror, right?"
 80: 0x0221 [0x23] WAIT_FOR_DIALOG_INTERACTION
 81: 0x0222 [0x01] GOTO 0x02D0
 82: 0x0225 [0x02] IF !(ExtData[1]->WorkLocal[8] == 4*) GOTO 0x0238
 83: 0x022D [0x2B] Unnamed NPC (ID: 17727619/0x010E8083) [8490*]:
    → "Did your treasure resemble this mirror, by any chance?"
 84: 0x0234 [0x23] WAIT_FOR_DIALOG_INTERACTION
 85: 0x0235 [0x01] GOTO 0x02D0
 86: 0x0238 [0x02] IF !(ExtData[1]->WorkLocal[8] == 5*) GOTO 0x024B
 87: 0x0240 [0x2B] Unnamed NPC (ID: 17727619/0x010E8083) [8493*]:
    → "Did your cargo look anything like this mirror?"
 88: 0x0247 [0x23] WAIT_FOR_DIALOG_INTERACTION
 89: 0x0248 [0x01] GOTO 0x02D0
 90: 0x024B [0x02] IF !(ExtData[1]->WorkLocal[8] == 6*) GOTO 0x025E
 91: 0x0253 [0x2B] Unnamed NPC (ID: 17727619/0x010E8083) [8494*]:
    → "Does this mirror look anything like your lost cargo?"
 92: 0x025A [0x23] WAIT_FOR_DIALOG_INTERACTION
 93: 0x025B [0x01] GOTO 0x02D0
 94: 0x025E [0x02] IF !(ExtData[1]->WorkLocal[8] == 7*) GOTO 0x0271
 95: 0x0266 [0x2B] Unnamed NPC (ID: 17727619/0x010E8083) [8495*]:
    → "This lost cargo of yours. Did it look anything like this mirror?"
 96: 0x026D [0x23] WAIT_FOR_DIALOG_INTERACTION
 97: 0x026E [0x01] GOTO 0x02D0
 98: 0x0271 [0x02] IF !(ExtData[1]->WorkLocal[8] == 8*) GOTO 0x0284
 99: 0x0279 [0x2B] Unnamed NPC (ID: 17727619/0x010E8083) [8496*]:
    → "Hey! Does this mirror look like your lost treasure?"
100: 0x0280 [0x23] WAIT_FOR_DIALOG_INTERACTION
101: 0x0281 [0x01] GOTO 0x02D0
102: 0x0284 [0x02] IF !(ExtData[1]->WorkLocal[8] == 9*) GOTO 0x0297
103: 0x028C [0x2B] Unnamed NPC (ID: 17727619/0x010E8083) [8497*]:
    → "Did your treasure resemble this mirror, by any chance?"
104: 0x0293 [0x23] WAIT_FOR_DIALOG_INTERACTION
105: 0x0294 [0x01] GOTO 0x02D0
106: 0x0297 [0x02] IF !(ExtData[1]->WorkLocal[8] == 10*) GOTO 0x02AA
107: 0x029F [0x2B] Unnamed NPC (ID: 17727619/0x010E8083) [8491*]:
    → "Did your treasure look anything like this mirror?"
108: 0x02A6 [0x23] WAIT_FOR_DIALOG_INTERACTION
109: 0x02A7 [0x01] GOTO 0x02D0
110: 0x02AA [0x02] IF !(ExtData[1]->WorkLocal[8] == 11*) GOTO 0x02BD
111: 0x02B2 [0x2B] Unnamed NPC (ID: 17727619/0x010E8083) [8492*]:
    → "Your treasure, did it look like this mirror here?"
112: 0x02B9 [0x23] WAIT_FOR_DIALOG_INTERACTION
113: 0x02BA [0x01] GOTO 0x02D0
114: 0x02BD [0x02] IF !(ExtData[1]->WorkLocal[8] == 12*) GOTO 0x02D0
115: 0x02C5 [0x2B] Unnamed NPC (ID: 17727619/0x010E8083) [8498*]:
    → "Does this cargo you speak of resemble this mirror?"
116: 0x02CC [0x23] WAIT_FOR_DIALOG_INTERACTION
117: 0x02CD [0x01] GOTO 0x02D0

SUBROUTINE_02D0:
118: 0x02D0 [0x1A] CALL_SUBROUTINE(address=0x1AA1)
119: 0x02D3 [0x02] IF !(ExtData[1]->WorkLocal[11] == 0*) GOTO 0x02ED
120: 0x02DB [0x66] LOAD_EXT_SCHEDULER_MAIN: Load scheduler "pas0" with entities [Unnamed NPC (ID: 17727619/0x010E8083), Unnamed NPC (ID: 17727619/0x010E8083)], work=0*
121: 0x02EA [0x01] GOTO 0x03A3
122: 0x02ED [0x02] IF !(ExtData[1]->WorkLocal[11] == 1*) GOTO 0x0307
123: 0x02F5 [0x66] LOAD_EXT_SCHEDULER_MAIN: Load scheduler "pas0" with entities [Unnamed NPC (ID: 17727619/0x010E8083), Unnamed NPC (ID: 17727619/0x010E8083)], work=10*
124: 0x0304 [0x01] GOTO 0x03A3
125: 0x0307 [0x02] IF !(ExtData[1]->WorkLocal[11] == 2*) GOTO 0x0321
126: 0x030F [0x66] LOAD_EXT_SCHEDULER_MAIN: Load scheduler "pas0" with entities [Unnamed NPC (ID: 17727619/0x010E8083), Unnamed NPC (ID: 17727619/0x010E8083)], work=20*
127: 0x031E [0x01] GOTO 0x03A3
128: 0x0321 [0x02] IF !(ExtData[1]->WorkLocal[11] == 3*) GOTO 0x033B
129: 0x0329 [0x66] LOAD_EXT_SCHEDULER_MAIN: Load scheduler "pas0" with entities [Unnamed NPC (ID: 17727619/0x010E8083), Unnamed NPC (ID: 17727619/0x010E8083)], work=30*
130: 0x0338 [0x01] GOTO 0x03A3
131: 0x033B [0x02] IF !(ExtData[1]->WorkLocal[11] == 4*) GOTO 0x0355
132: 0x0343 [0x66] LOAD_EXT_SCHEDULER_MAIN: Load scheduler "pas0" with entities [Unnamed NPC (ID: 17727619/0x010E8083), Unnamed NPC (ID: 17727619/0x010E8083)], work=40*
133: 0x0352 [0x01] GOTO 0x03A3
134: 0x0355 [0x02] IF !(ExtData[1]->WorkLocal[11] == 5*) GOTO 0x036F
135: 0x035D [0x66] LOAD_EXT_SCHEDULER_MAIN: Load scheduler "pas0" with entities [Unnamed NPC (ID: 17727619/0x010E8083), Unnamed NPC (ID: 17727619/0x010E8083)], work=40*
136: 0x036C [0x01] GOTO 0x03A3
137: 0x036F [0x02] IF !(ExtData[1]->WorkLocal[11] == 6*) GOTO 0x0389
138: 0x0377 [0x66] LOAD_EXT_SCHEDULER_MAIN: Load scheduler "pas0" with entities [Unnamed NPC (ID: 17727619/0x010E8083), Unnamed NPC (ID: 17727619/0x010E8083)], work=50*
139: 0x0386 [0x01] GOTO 0x03A3
140: 0x0389 [0x02] IF !(ExtData[1]->WorkLocal[11] == 7*) GOTO 0x03A3
141: 0x0391 [0x66] LOAD_EXT_SCHEDULER_MAIN: Load scheduler "pas0" with entities [Unnamed NPC (ID: 17727619/0x010E8083), Unnamed NPC (ID: 17727619/0x010E8083)], work=60*
142: 0x03A0 [0x01] GOTO 0x03A3

SUBROUTINE_03A3:
143: 0x03A3 [0x1C] WAIT(120* ticks)
144: 0x03A6 [0x66] LOAD_EXT_SCHEDULER_MAIN: Load scheduler "dis0" with entities [Portaure (ID: 17727505/0x010E8011), Portaure (ID: 17727505/0x010E8011)], work=21*
145: 0x03B5 [0x2B] Portaure (ID: 17727505/0x010E8011) [8499*]:
    → "Yes, it's definitely very similar... You haven't experienced any...problems...carrying it around?"
146: 0x03BC [0x23] WAIT_FOR_DIALOG_INTERACTION
147: 0x03BD [0x1A] CALL_SUBROUTINE(address=0x1B82)
148: 0x03C0 [0x02] IF !(ExtData[1]->WorkLocal[8] == 1*) GOTO 0x03DF
149: 0x03C8 [0x6E] Unnamed NPC (ID: 17727619/0x010E8083) uses emote 7*
150: 0x03CF [0x99] Wait for Unnamed NPC (ID: 17727619/0x010E8083) animation to complete
151: 0x03D4 [0x2B] Unnamed NPC (ID: 17727619/0x010E8083) [8500*]:
    → "Not that I've noticed. Why do you ask?"
152: 0x03DB [0x23] WAIT_FOR_DIALOG_INTERACTION
153: 0x03DC [0x01] GOTO 0x0510
154: 0x03DF [0x02] IF !(ExtData[1]->WorkLocal[8] == 2*) GOTO 0x03F2
155: 0x03E7 [0x2B] Unnamed NPC (ID: 17727619/0x010E8083) [8501*]:
    → "Not at all. Why do you ask?"
156: 0x03EE [0x23] WAIT_FOR_DIALOG_INTERACTION
157: 0x03EF [0x01] GOTO 0x0510
158: 0x03F2 [0x02] IF !(ExtData[1]->WorkLocal[8] == 3*) GOTO 0x0405
159: 0x03FA [0x2B] Unnamed NPC (ID: 17727619/0x010E8083) [8502*]:
    → "Not so much. Why do you ask?"
160: 0x0401 [0x23] WAIT_FOR_DIALOG_INTERACTION
161: 0x0402 [0x01] GOTO 0x0510
162: 0x0405 [0x02] IF !(ExtData[1]->WorkLocal[8] == 4*) GOTO 0x0424
163: 0x040D [0x6E] Unnamed NPC (ID: 17727619/0x010E8083) uses emote 7*
164: 0x0414 [0x99] Wait for Unnamed NPC (ID: 17727619/0x010E8083) animation to complete
165: 0x0419 [0x2B] Unnamed NPC (ID: 17727619/0x010E8083) [8503*]:
    → "Nothing worth mentioning. Why do you ask?"
166: 0x0420 [0x23] WAIT_FOR_DIALOG_INTERACTION
167: 0x0421 [0x01] GOTO 0x0510
168: 0x0424 [0x02] IF !(ExtData[1]->WorkLocal[8] == 5*) GOTO 0x0443
169: 0x042C [0x6E] Unnamed NPC (ID: 17727619/0x010E8083) uses emote 7*
170: 0x0433 [0x99] Wait for Unnamed NPC (ID: 17727619/0x010E8083) animation to complete
171: 0x0438 [0x2B] Unnamed NPC (ID: 17727619/0x010E8083) [8506*]:
    → "Can't say that I have. Why do you ask?"
172: 0x043F [0x23] WAIT_FOR_DIALOG_INTERACTION
173: 0x0440 [0x01] GOTO 0x0510
174: 0x0443 [0x02] IF !(ExtData[1]->WorkLocal[8] == 6*) GOTO 0x0456
175: 0x044B [0x2B] Unnamed NPC (ID: 17727619/0x010E8083) [8507*]:
    → "Everything's been smooth sailing! Why do you ask?"
176: 0x0452 [0x23] WAIT_FOR_DIALOG_INTERACTION
177: 0x0453 [0x01] GOTO 0x0510
178: 0x0456 [0x02] IF !(ExtData[1]->WorkLocal[8] == 7*) GOTO 0x0475
179: 0x045E [0x6E] Unnamed NPC (ID: 17727619/0x010E8083) uses emote 7*
180: 0x0465 [0x99] Wait for Unnamed NPC (ID: 17727619/0x010E8083) animation to complete
181: 0x046A [0x2B] Unnamed NPC (ID: 17727619/0x010E8083) [8508*]:
    → "No, nothing at all. Why do you ask?"
182: 0x0471 [0x23] WAIT_FOR_DIALOG_INTERACTION
183: 0x0472 [0x01] GOTO 0x0510
184: 0x0475 [0x02] IF !(ExtData[1]->WorkLocal[8] == 8*) GOTO 0x0494
185: 0x047D [0x6E] Unnamed NPC (ID: 17727619/0x010E8083) uses emote 7*
186: 0x0484 [0x99] Wait for Unnamed NPC (ID: 17727619/0x010E8083) animation to complete
187: 0x0489 [0x2B] Unnamed NPC (ID: 17727619/0x010E8083) [8509*]:
    → "Nope! Why do you ask?"
188: 0x0490 [0x23] WAIT_FOR_DIALOG_INTERACTION
189: 0x0491 [0x01] GOTO 0x0510
190: 0x0494 [0x02] IF !(ExtData[1]->WorkLocal[8] == 9*) GOTO 0x04B3
191: 0x049C [0x6E] Unnamed NPC (ID: 17727619/0x010E8083) uses emote 7*
192: 0x04A3 [0x99] Wait for Unnamed NPC (ID: 17727619/0x010E8083) animation to complete
193: 0x04A8 [0x2B] Unnamed NPC (ID: 17727619/0x010E8083) [8510*]:
    → "Nothing worth mentioning. Why do you ask?"
194: 0x04AF [0x23] WAIT_FOR_DIALOG_INTERACTION
195: 0x04B0 [0x01] GOTO 0x0510
196: 0x04B3 [0x02] IF !(ExtData[1]->WorkLocal[8] == 10*) GOTO 0x04D2
197: 0x04BB [0x6E] Unnamed NPC (ID: 17727619/0x010E8083) uses emote 7*
198: 0x04C2 [0x99] Wait for Unnamed NPC (ID: 17727619/0x010E8083) animation to complete
199: 0x04C7 [0x2B] Unnamed NPC (ID: 17727619/0x010E8083) [8504*]:
    → "Problems...? No, why do ask?"
200: 0x04CE [0x23] WAIT_FOR_DIALOG_INTERACTION
201: 0x04CF [0x01] GOTO 0x0510
202: 0x04D2 [0x02] IF !(ExtData[1]->WorkLocal[8] == 11*) GOTO 0x04F1
203: 0x04DA [0x6E] Unnamed NPC (ID: 17727619/0x010E8083) uses emote 7*
204: 0x04E1 [0x99] Wait for Unnamed NPC (ID: 17727619/0x010E8083) animation to complete
205: 0x04E6 [0x2B] Unnamed NPC (ID: 17727619/0x010E8083) [8505*]:
    → "No, I can't say I have. Why do you ask?"
206: 0x04ED [0x23] WAIT_FOR_DIALOG_INTERACTION
207: 0x04EE [0x01] GOTO 0x0510
208: 0x04F1 [0x02] IF !(ExtData[1]->WorkLocal[8] == 12*) GOTO 0x0510
209: 0x04F9 [0x6E] Unnamed NPC (ID: 17727619/0x010E8083) uses emote 7*
210: 0x0500 [0x99] Wait for Unnamed NPC (ID: 17727619/0x010E8083) animation to complete
211: 0x0505 [0x2B] Unnamed NPC (ID: 17727619/0x010E8083) [8511*]:
    → "No, not at all. Why do you ask? Is there something you know?"
212: 0x050C [0x23] WAIT_FOR_DIALOG_INTERACTION
213: 0x050D [0x01] GOTO 0x0510

SUBROUTINE_0510:
214: 0x0510 [0x52] END_LOAD_SCHEDULER: End scheduler "s014" with entities [LocalPlayer, LocalPlayer], work=192*
215: 0x051F [0x45] LOAD_SCHEDULED_TASK: Load scheduler "s015" with entities [LocalPlayer, LocalPlayer], work=[192*, 0*]
216: 0x0530 [0x66] LOAD_EXT_SCHEDULER_MAIN: Load scheduler "tlb0" with entities [Portaure (ID: 17727505/0x010E8011), Portaure (ID: 17727505/0x010E8011)], work=27*
217: 0x053F [0x2B] Portaure (ID: 17727505/0x010E8011) [8512*]:
    → "It's just that the mirror I was dealing with had decorative markings much the same as the one you hold."
218: 0x0546 [0x23] WAIT_FOR_DIALOG_INTERACTION
219: 0x0547 [0x2B] Portaure (ID: 17727505/0x010E8011) [8513*]:
    → "It was rumored to have the power to make a person lose himself to rage."
220: 0x054E [0x23] WAIT_FOR_DIALOG_INTERACTION
221: 0x054F [0x1C] WAIT(90* ticks)
222: 0x0552 [0x52] END_LOAD_SCHEDULER: End scheduler "s015" with entities [LocalPlayer, LocalPlayer], work=192*
223: 0x0561 [0x45] LOAD_SCHEDULED_TASK: Load scheduler "s016" with entities [LocalPlayer, LocalPlayer], work=[192*, 0*]
224: 0x0572 [0x1C] WAIT(30* ticks)
225: 0x0575 [0x2B] Portaure (ID: 17727505/0x010E8011) [8514*]:
    → "In any case, Ghelsba Orcs attacked the courier before he got anywhere near Jeuno."
226: 0x057C [0x23] WAIT_FOR_DIALOG_INTERACTION
227: 0x057D [0x66] LOAD_EXT_SCHEDULER_MAIN: Load scheduler "tlb1" with entities [Portaure (ID: 17727505/0x010E8011), Portaure (ID: 17727505/0x010E8011)], work=27*
228: 0x058C [0x2B] Portaure (ID: 17727505/0x010E8011) [8515*]:
    → "This deal is in complete shambles. And that hellspawned mirror is to blame."
229: 0x0593 [0x23] WAIT_FOR_DIALOG_INTERACTION
230: 0x0594 [0x1C] WAIT(90* ticks)
231: 0x0597 [0x52] END_LOAD_SCHEDULER: End scheduler "s016" with entities [LocalPlayer, LocalPlayer], work=192*
232: 0x05A6 [0x45] LOAD_SCHEDULED_TASK: Load scheduler "s017" with entities [LocalPlayer, LocalPlayer], work=[192*, 0*]
233: 0x05B7 [0x1C] WAIT(60* ticks)
234: 0x05BA [0x66] LOAD_EXT_SCHEDULER_MAIN: Load scheduler "dis0" with entities [Portaure (ID: 17727505/0x010E8011), Portaure (ID: 17727505/0x010E8011)], work=21*
235: 0x05C9 [0x2B] Portaure (ID: 17727505/0x010E8011) [8516*]:
    → "I should know better than to dabble in powers I don't understand..."
236: 0x05D0 [0x23] WAIT_FOR_DIALOG_INTERACTION
237: 0x05D1 [0x2B] Portaure (ID: 17727505/0x010E8011) [8517*]:
    → "Consider yourselves warned."
238: 0x05D8 [0x23] WAIT_FOR_DIALOG_INTERACTION
239: 0x05D9 [0x1C] WAIT(120* ticks)
240: 0x05DC [0x45] LOAD_SCHEDULED_TASK: Load scheduler "fdo1" with entities [LocalPlayer, LocalPlayer], work=[200*, 0*]
241: 0x05ED [0x55] WAIT_LOAD_SCHEDULER: Wait for scheduler "fdo1" with entities [LocalPlayer, LocalPlayer], work=200*
242: 0x05FC [0x52] END_LOAD_SCHEDULER: End scheduler "s017" with entities [LocalPlayer, LocalPlayer], work=192*
243: 0x060B [0x4E] SET_ENTITY_HIDE_FLAG: Hide Unnamed NPC (ID: 17727619/0x010E8083)
244: 0x0611 [0x46] CAMERA_CONTROL: Restore default settings
245: 0x0613 [0x1C] WAIT(60* ticks)
246: 0x0616 [0x45] LOAD_SCHEDULED_TASK: Load scheduler "fdi0" with entities [LocalPlayer, LocalPlayer], work=[200*, 0*]
247: 0x0627 [0x2F] Unnamed NPC (ID: 17727619/0x010E8083)->Render.Flags0 |= 0x80000 // Bit 19
248: 0x062D [0x21] END_EVENT
249: 0x062E [0x00] END_REQSTACK()
```

### Event 65535.1

#### Metadata

| Field        | Value    |
|--------------|----------|
| Entrypoint   | 0x062F   |
| Data Size    | 14 bytes |
| Instructions | 4        |

```
      00 01 02 03 04 05 06 07  08 09 0A 0B 0C 0D 0E 0F
      -- -- -- -- -- -- -- --  -- -- -- -- -- -- -- --
0620:                                               32                 2
0630: 13 80 1F 00 45 80 46 80  06 80 1F 01 00           ....E.F......   
```

#### Opcodes

```
  0: 0x062F [0x32] ExtData[1]->MainSpeed = 13* * 0.1
  1: 0x0632 [0x1F] MOVE_ENTITY: EventEntity moves to X=-14.637*, Z=-97.049*, Y=-4.000*
  2: 0x063A [0x1F] MOVE_ENTITY: Update entity position (mode=1)
  3: 0x063C [0x00] END_REQSTACK()
```

### Event 65535.2

#### Metadata

| Field        | Value       |
|--------------|-------------|
| Entrypoint   | 0x063D      |
| Data Size    | 18538 bytes |
| Instructions | 5           |

```
      00 01 02 03 04 05 06 07  08 09 0A 0B 0C 0D 0E 0F
      -- -- -- -- -- -- -- --  -- -- -- -- -- -- -- --
0630:                                         32 13 80               2..
0640: 1F 00 47 80 48 80 06 80  1F 01 6F 00 03 02 00 02  ..G.H.....o.....
0650: 80 1A 97 1A 1A A1 1A 02  0B 00 02 80 80 5A 07 02  .............Z..
0660: 01 00 02 80 80 7E 06 B4  00 02 00 46 65 6C 69 7A  .....~.....Feliz
0670: 00 00 00 00 00 00 00 00  00 00 00 01 57 07 02 01  ............W...
0680: 00 16 80 80 9D 06 B4 00  02 00 46 65 72 64 69 6E  ..........Ferdin
0690: 61 6E 64 00 00 00 00 00  00 00 01 57 07 02 01 00  and........W....
06A0: 18 80 80 BC 06 B4 00 02  00 47 75 6E 6E 61 72 00  .........Gunnar.
06B0: 00 00 00 00 00 00 00 00  00 01 57 07 02 01 00 1A  ..........W.....
06C0: 80 80 DB 06 B4 00 02 00  4D 61 73 73 69 6D 6F 00  ........Massimo.
06D0: 00 00 00 00 00 00 00 00  01 57 07 02 01 00 1C 80  .........W......
06E0: 80 FA 06 B4 00 02 00 4F  6C 64 72 69 63 68 00 00  .......Oldrich..
06F0: 00 00 00 00 00 00 00 01  57 07 02 01 00 1E 80 80  ........W.......
0700: 19 07 B4 00 02 00 53 69  65 67 77 61 72 64 00 00  ......Siegward..
0710: 00 00 00 00 00 00 01 57  07 02 01 00 20 80 80 38  .......W.... ..8
0720: 07 B4 00 02 00 54 68 65  6F 62 61 6C 64 00 00 00  .....Theobald...
0730: 00 00 00 00 00 01 57 07  02 01 00 12 80 80 57 07  ......W.......W.
0740: B4 00 02 00 5A 65 6E 6A  69 00 00 00 00 00 00 00  ....Zenji.......
0750: 00 00 00 00 01 57 07 01  6F 0E 02 0B 00 16 80 80  .....W..o.......
0760: 5D 08 02 01 00 02 80 80  81 07 B4 00 02 00 41 6D  ].............Am
0770: 65 72 69 74 61 00 00 00  00 00 00 00 00 00 01 5A  erita..........Z
0780: 08 02 01 00 16 80 80 A0  07 B4 00 02 00 42 65 61  .............Bea
0790: 74 72 69 63 65 00 00 00  00 00 00 00 00 01 5A 08  trice.........Z.
07A0: 02 01 00 18 80 80 BF 07  B4 00 02 00 48 65 6E 72  ............Henr
07B0: 69 65 74 74 61 00 00 00  00 00 00 00 01 5A 08 02  ietta........Z..
07C0: 01 00 1A 80 80 DE 07 B4  00 02 00 4A 65 73 69 6D  ...........Jesim
07D0: 61 65 00 00 00 00 00 00  00 00 00 01 5A 08 02 01  ae..........Z...
07E0: 00 1C 80 80 FD 07 B4 00  02 00 4B 61 72 79 6E 00  ..........Karyn.
07F0: 00 00 00 00 00 00 00 00  00 00 01 5A 08 02 01 00  ...........Z....
0800: 1E 80 80 1C 08 B4 00 02  00 4E 61 6E 61 6B 6F 00  .........Nanako.
0810: 00 00 00 00 00 00 00 00  00 01 5A 08 02 01 00 20  ..........Z.... 
0820: 80 80 3B 08 B4 00 02 00  53 68 61 72 6C 65 6E 65  ..;.....Sharlene
0830: 00 00 00 00 00 00 00 00  01 5A 08 02 01 00 12 80  .........Z......
0840: 80 5A 08 B4 00 02 00 53  69 65 67 68 69 6C 64 65  .Z.....Sieghilde
0850: 00 00 00 00 00 00 00 01  5A 08 01 6F 0E 02 0B 00  ........Z..o....
0860: 18 80 80 60 09 02 01 00  02 80 80 84 08 B4 00 02  ...`............
0870: 00 43 68 61 6E 61 6E 64  69 74 00 00 00 00 00 00  .Chanandit......
0880: 00 01 5D 09 02 01 00 16  80 80 A3 08 B4 00 02 00  ..].............
0890: 44 65 75 6C 6D 61 65 75  78 00 00 00 00 00 00 00  Deulmaeux.......
08A0: 01 5D 09 02 01 00 18 80  80 C2 08 B4 00 02 00 44  .].............D
08B0: 65 6D 72 65 73 69 6E 61  75 78 00 00 00 00 00 01  emresinaux......
08C0: 5D 09 02 01 00 1A 80 80  E1 08 B4 00 02 00 45 70  ].............Ep
08D0: 68 65 61 6C 67 61 75 78  00 00 00 00 00 00 01 5D  healgaux.......]
08E0: 09 02 01 00 1C 80 80 00  09 B4 00 02 00 47 61 75  .............Gau
08F0: 6C 64 65 76 61 6C 00 00  00 00 00 00 00 01 5D 09  ldeval........].
0900: 02 01 00 1E 80 80 1F 09  B4 00 02 00 47 72 61 75  ............Grau
0910: 66 66 65 6D 61 72 74 00  00 00 00 00 01 5D 09 02  ffemart......]..
0920: 01 00 20 80 80 3E 09 B4  00 02 00 4D 69 67 61 69  .. ..>.....Migai
0930: 66 6F 6E 67 75 74 00 00  00 00 00 01 5D 09 02 01  fongut......]...
0940: 00 12 80 80 5D 09 B4 00  02 00 52 6F 6D 69 64 69  ....].....Romidi
0950: 61 6E 74 00 00 00 00 00  00 00 01 5D 09 01 6F 0E  ant........]..o.
0960: 02 0B 00 1A 80 80 63 0A  02 01 00 02 80 80 87 09  ......c.........
0970: B4 00 02 00 41 72 6D 69  74 74 69 65 00 00 00 00  ....Armittie....
0980: 00 00 00 00 01 60 0A 02  01 00 16 80 80 A6 09 B4  .....`..........
0990: 00 02 00 43 61 64 65 70  75 72 65 00 00 00 00 00  ...Cadepure.....
09A0: 00 00 00 01 60 0A 02 01  00 18 80 80 C5 09 B4 00  ....`...........
09B0: 02 00 43 6C 65 61 72 69  74 65 00 00 00 00 00 00  ..Clearite......
09C0: 00 00 01 60 0A 02 01 00  1A 80 80 E4 09 B4 00 02  ...`............
09D0: 00 45 70 69 6C 6C 65 76  65 00 00 00 00 00 00 00  .Epilleve.......
09E0: 00 01 60 0A 02 01 00 1C  80 80 03 0A B4 00 02 00  ..`.............
09F0: 4C 69 61 62 65 6C 6C 65  00 00 00 00 00 00 00 00  Liabelle........
0A00: 01 60 0A 02 01 00 1E 80  80 22 0A B4 00 02 00 4E  .`.......".....N
0A10: 61 75 74 68 69 6D 61 00  00 00 00 00 00 00 00 01  authima.........
0A20: 60 0A 02 01 00 20 80 80  41 0A B4 00 02 00 52 61  `.... ..A.....Ra
0A30: 64 69 6C 6C 65 00 00 00  00 00 00 00 00 00 01 60  dille..........`
0A40: 0A 02 01 00 12 80 80 60  0A B4 00 02 00 56 69 6D  .......`.....Vim
0A50: 65 63 68 75 65 00 00 00  00 00 00 00 00 01 60 0A  echue.........`.
0A60: 01 6F 0E 02 0B 00 1C 80  80 66 0B 02 01 00 02 80  .o.......f......
0A70: 80 8A 0A B4 00 02 00 42  61 6C 75 2D 46 61 6C 75  .......Balu-Falu
0A80: 00 00 00 00 00 00 00 01  63 0B 02 01 00 16 80 80  ........c.......
0A90: A9 0A B4 00 02 00 42 75  72 67 2D 4C 61 64 61 72  ......Burg-Ladar
0AA0: 67 00 00 00 00 00 01 63  0B 02 01 00 18 80 80 C8  g......c........
0AB0: 0A B4 00 02 00 45 68 67  6F 2D 52 79 75 68 67 6F  .....Ehgo-Ryuhgo
0AC0: 00 00 00 00 00 01 63 0B  02 01 00 1A 80 80 E7 0A  ......c.........
0AD0: B4 00 02 00 4B 6F 6C 75  69 2D 50 65 6C 75 69 00  ....Kolui-Pelui.
0AE0: 00 00 00 00 01 63 0B 02  01 00 1C 80 80 06 0B B4  .....c..........
0AF0: 00 02 00 4E 6F 6B 75 6D  2D 41 6B 6B 75 6D 00 00  ...Nokum-Akkum..
0B00: 00 00 00 01 63 0B 02 01  00 1E 80 80 25 0B B4 00  ....c.......%...
0B10: 02 00 53 61 76 75 6C 2D  4B 69 76 75 6C 00 00 00  ..Savul-Kivul...
0B20: 00 00 01 63 0B 02 01 00  20 80 80 44 0B B4 00 02  ...c.... ..D....
0B30: 00 56 69 6E 6A 61 2D 4B  61 6E 6A 61 00 00 00 00  .Vinja-Kanja....
0B40: 00 01 63 0B 02 01 00 12  80 80 63 0B B4 00 02 00  ..c.......c.....
0B50: 59 61 72 67 61 2D 55 6D  69 67 61 00 00 00 00 00  Yarga-Umiga.....
0B60: 01 63 0B 01 6F 0E 02 0B  00 1E 80 80 69 0C 02 01  .c..o.......i...
0B70: 00 02 80 80 8D 0B B4 00  02 00 43 75 70 61 70 61  ..........Cupapa
0B80: 00 00 00 00 00 00 00 00  00 00 01 66 0C 02 01 00  ...........f....
0B90: 16 80 80 AC 0B B4 00 02  00 4A 61 6A 75 6A 75 00  .........Jajuju.
0BA0: 00 00 00 00 00 00 00 00  00 01 66 0C 02 01 00 18  ..........f.....
0BB0: 80 80 CB 0B B4 00 02 00  4B 61 6C 6F 6B 6F 6B 6F  ........Kalokoko
0BC0: 00 00 00 00 00 00 00 00  01 66 0C 02 01 00 1A 80  .........f......
0BD0: 80 EA 0B B4 00 02 00 4D  61 68 6F 79 61 79 61 00  .......Mahoyaya.
0BE0: 00 00 00 00 00 00 00 01  66 0C 02 01 00 1C 80 80  ........f.......
0BF0: 09 0C B4 00 02 00 50 61  6B 75 72 61 72 61 00 00  ......Pakurara..
0C00: 00 00 00 00 00 00 01 66  0C 02 01 00 1E 80 80 28  .......f.......(
0C10: 0C B4 00 02 00 52 69 70  6F 6B 65 6B 65 00 00 00  .....Ripokeke...
0C20: 00 00 00 00 00 01 66 0C  02 01 00 20 80 80 47 0C  ......f.... ..G.
0C30: B4 00 02 00 59 61 77 61  77 61 00 00 00 00 00 00  ....Yawawa......
0C40: 00 00 00 00 01 66 0C 02  01 00 12 80 80 66 0C B4  .....f.......f..
0C50: 00 02 00 59 75 66 61 66  61 00 00 00 00 00 00 00  ...Yufafa.......
0C60: 00 00 00 01 66 0C 01 6F  0E 02 0B 00 20 80 80 6C  ....f..o.... ..l
0C70: 0D 02 01 00 02 80 80 90  0C B4 00 02 00 46 68 69  .............Fhi
0C80: 67 00 00 00 00 00 00 00  00 00 00 00 00 01 69 0D  g.............i.
0C90: 02 01 00 16 80 80 AF 0C  B4 00 02 00 4B 68 75 6D  ............Khum
0CA0: 61 00 00 00 00 00 00 00  00 00 00 00 01 69 0D 02  a............i..
0CB0: 01 00 18 80 80 CE 0C B4  00 02 00 50 69 6D 79 00  ...........Pimy.
0CC0: 00 00 00 00 00 00 00 00  00 00 00 01 69 0D 02 01  ............i...
0CD0: 00 1A 80 80 ED 0C B4 00  02 00 52 61 6B 61 00 00  ..........Raka..
0CE0: 00 00 00 00 00 00 00 00  00 00 01 69 0D 02 01 00  ...........i....
0CF0: 1C 80 80 0C 0D B4 00 02  00 53 61 68 79 75 00 00  .........Sahyu..
0D00: 00 00 00 00 00 00 00 00  00 01 69 0D 02 01 00 1E  ..........i.....
0D10: 80 80 2B 0D B4 00 02 00  53 75 66 68 69 00 00 00  ..+.....Sufhi...
0D20: 00 00 00 00 00 00 00 00  01 69 0D 02 01 00 20 80  .........i.... .
0D30: 80 4A 0D B4 00 02 00 54  73 75 69 6D 00 00 00 00  .J.....Tsuim....
0D40: 00 00 00 00 00 00 00 01  69 0D 02 01 00 12 80 80  ........i.......
0D50: 69 0D B4 00 02 00 59 6F  6C 69 00 00 00 00 00 00  i.....Yoli......
0D60: 00 00 00 00 00 00 01 69  0D 01 6F 0E 02 0B 00 12  .......i..o.....
0D70: 80 80 6F 0E 02 01 00 02  80 80 93 0D B4 00 02 00  ..o.............
0D80: 44 75 72 69 62 00 00 00  00 00 00 00 00 00 00 00  Durib...........
0D90: 01 6C 0E 02 01 00 16 80  80 B2 0D B4 00 02 00 44  .l.............D
0DA0: 7A 61 70 69 77 61 00 00  00 00 00 00 00 00 00 01  zapiwa..........
0DB0: 6C 0E 02 01 00 18 80 80  D1 0D B4 00 02 00 4A 75  l.............Ju
0DC0: 67 6F 77 61 00 00 00 00  00 00 00 00 00 00 01 6C  gowa...........l
0DD0: 0E 02 01 00 1A 80 80 F0  0D B4 00 02 00 4D 75 67  .............Mug
0DE0: 69 64 6F 00 00 00 00 00  00 00 00 00 00 01 6C 0E  ido...........l.
0DF0: 02 01 00 1C 80 80 0F 0E  B4 00 02 00 56 6F 6C 64  ............Vold
0E00: 61 69 00 00 00 00 00 00  00 00 00 00 01 6C 0E 02  ai...........l..
0E10: 01 00 1E 80 80 2E 0E B4  00 02 00 57 61 67 77 65  ...........Wagwe
0E20: 69 00 00 00 00 00 00 00  00 00 00 01 6C 0E 02 01  i...........l...
0E30: 00 20 80 80 4D 0E B4 00  02 00 5A 61 79 61 67 00  . ..M.....Zayag.
0E40: 00 00 00 00 00 00 00 00  00 00 01 6C 0E 02 01 00  ...........l....
0E50: 12 80 80 6C 0E B4 00 02  00 5A 6F 6C 64 6F 66 00  ...l.....Zoldof.
0E60: 00 00 00 00 00 00 00 00  00 01 6C 0E 01 6F 0E 02  ..........l..o..
0E70: 02 00 02 80 01 7B 0E B5  00 02 00 1B 03 02 00 02  .....{..........
0E80: 80 1A 97 1A 1A A1 1A 02  0B 00 02 80 80 8A 0F 02  ................
0E90: 01 00 02 80 80 AE 0E B4  00 02 00 46 65 6C 69 7A  ...........Feliz
0EA0: 00 00 00 00 00 00 00 00  00 00 00 01 87 0F 02 01  ................
0EB0: 00 16 80 80 CD 0E B4 00  02 00 46 65 72 64 69 6E  ..........Ferdin
0EC0: 61 6E 64 00 00 00 00 00  00 00 01 87 0F 02 01 00  and.............
0ED0: 18 80 80 EC 0E B4 00 02  00 47 75 6E 6E 61 72 00  .........Gunnar.
0EE0: 00 00 00 00 00 00 00 00  00 01 87 0F 02 01 00 1A  ................
0EF0: 80 80 0B 0F B4 00 02 00  4D 61 73 73 69 6D 6F 00  ........Massimo.
0F00: 00 00 00 00 00 00 00 00  01 87 0F 02 01 00 1C 80  ................
0F10: 80 2A 0F B4 00 02 00 4F  6C 64 72 69 63 68 00 00  .*.....Oldrich..
0F20: 00 00 00 00 00 00 00 01  87 0F 02 01 00 1E 80 80  ................
0F30: 49 0F B4 00 02 00 53 69  65 67 77 61 72 64 00 00  I.....Siegward..
0F40: 00 00 00 00 00 00 01 87  0F 02 01 00 20 80 80 68  ............ ..h
0F50: 0F B4 00 02 00 54 68 65  6F 62 61 6C 64 00 00 00  .....Theobald...
0F60: 00 00 00 00 00 01 87 0F  02 01 00 12 80 80 87 0F  ................
0F70: B4 00 02 00 5A 65 6E 6A  69 00 00 00 00 00 00 00  ....Zenji.......
0F80: 00 00 00 00 01 87 0F 01  9F 16 02 0B 00 16 80 80  ................
0F90: 8D 10 02 01 00 02 80 80  B1 0F B4 00 02 00 41 6D  ..............Am
0FA0: 65 72 69 74 61 00 00 00  00 00 00 00 00 00 01 8A  erita...........
0FB0: 10 02 01 00 16 80 80 D0  0F B4 00 02 00 42 65 61  .............Bea
0FC0: 74 72 69 63 65 00 00 00  00 00 00 00 00 01 8A 10  trice...........
0FD0: 02 01 00 18 80 80 EF 0F  B4 00 02 00 48 65 6E 72  ............Henr
0FE0: 69 65 74 74 61 00 00 00  00 00 00 00 01 8A 10 02  ietta...........
0FF0: 01 00 1A 80 80 0E 10 B4  00 02 00 4A 65 73 69 6D  ...........Jesim
1000: 61 65 00 00 00 00 00 00  00 00 00 01 8A 10 02 01  ae..............
1010: 00 1C 80 80 2D 10 B4 00  02 00 4B 61 72 79 6E 00  ....-.....Karyn.
1020: 00 00 00 00 00 00 00 00  00 00 01 8A 10 02 01 00  ................
1030: 1E 80 80 4C 10 B4 00 02  00 4E 61 6E 61 6B 6F 00  ...L.....Nanako.
1040: 00 00 00 00 00 00 00 00  00 01 8A 10 02 01 00 20  ............... 
1050: 80 80 6B 10 B4 00 02 00  53 68 61 72 6C 65 6E 65  ..k.....Sharlene
1060: 00 00 00 00 00 00 00 00  01 8A 10 02 01 00 12 80  ................
1070: 80 8A 10 B4 00 02 00 53  69 65 67 68 69 6C 64 65  .......Sieghilde
1080: 00 00 00 00 00 00 00 01  8A 10 01 9F 16 02 0B 00  ................
1090: 18 80 80 90 11 02 01 00  02 80 80 B4 10 B4 00 02  ................
10A0: 00 43 68 61 6E 61 6E 64  69 74 00 00 00 00 00 00  .Chanandit......
10B0: 00 01 8D 11 02 01 00 16  80 80 D3 10 B4 00 02 00  ................
10C0: 44 65 75 6C 6D 61 65 75  78 00 00 00 00 00 00 00  Deulmaeux.......
10D0: 01 8D 11 02 01 00 18 80  80 F2 10 B4 00 02 00 44  ...............D
10E0: 65 6D 72 65 73 69 6E 61  75 78 00 00 00 00 00 01  emresinaux......
10F0: 8D 11 02 01 00 1A 80 80  11 11 B4 00 02 00 45 70  ..............Ep
1100: 68 65 61 6C 67 61 75 78  00 00 00 00 00 00 01 8D  healgaux........
1110: 11 02 01 00 1C 80 80 30  11 B4 00 02 00 47 61 75  .......0.....Gau
1120: 6C 64 65 76 61 6C 00 00  00 00 00 00 00 01 8D 11  ldeval..........
1130: 02 01 00 1E 80 80 4F 11  B4 00 02 00 47 72 61 75  ......O.....Grau
1140: 66 66 65 6D 61 72 74 00  00 00 00 00 01 8D 11 02  ffemart.........
1150: 01 00 20 80 80 6E 11 B4  00 02 00 4D 69 67 61 69  .. ..n.....Migai
1160: 66 6F 6E 67 75 74 00 00  00 00 00 01 8D 11 02 01  fongut..........
1170: 00 12 80 80 8D 11 B4 00  02 00 52 6F 6D 69 64 69  ..........Romidi
1180: 61 6E 74 00 00 00 00 00  00 00 01 8D 11 01 9F 16  ant.............
1190: 02 0B 00 1A 80 80 93 12  02 01 00 02 80 80 B7 11  ................
11A0: B4 00 02 00 41 72 6D 69  74 74 69 65 00 00 00 00  ....Armittie....
11B0: 00 00 00 00 01 90 12 02  01 00 16 80 80 D6 11 B4  ................
11C0: 00 02 00 43 61 64 65 70  75 72 65 00 00 00 00 00  ...Cadepure.....
11D0: 00 00 00 01 90 12 02 01  00 18 80 80 F5 11 B4 00  ................
11E0: 02 00 43 6C 65 61 72 69  74 65 00 00 00 00 00 00  ..Clearite......
11F0: 00 00 01 90 12 02 01 00  1A 80 80 14 12 B4 00 02  ................
1200: 00 45 70 69 6C 6C 65 76  65 00 00 00 00 00 00 00  .Epilleve.......
1210: 00 01 90 12 02 01 00 1C  80 80 33 12 B4 00 02 00  ..........3.....
1220: 4C 69 61 62 65 6C 6C 65  00 00 00 00 00 00 00 00  Liabelle........
1230: 01 90 12 02 01 00 1E 80  80 52 12 B4 00 02 00 4E  .........R.....N
1240: 61 75 74 68 69 6D 61 00  00 00 00 00 00 00 00 01  authima.........
1250: 90 12 02 01 00 20 80 80  71 12 B4 00 02 00 52 61  ..... ..q.....Ra
1260: 64 69 6C 6C 65 00 00 00  00 00 00 00 00 00 01 90  dille...........
1270: 12 02 01 00 12 80 80 90  12 B4 00 02 00 56 69 6D  .............Vim
1280: 65 63 68 75 65 00 00 00  00 00 00 00 00 01 90 12  echue...........
1290: 01 9F 16 02 0B 00 1C 80  80 96 13 02 01 00 02 80  ................
12A0: 80 BA 12 B4 00 02 00 42  61 6C 75 2D 46 61 6C 75  .......Balu-Falu
12B0: 00 00 00 00 00 00 00 01  93 13 02 01 00 16 80 80  ................
12C0: D9 12 B4 00 02 00 42 75  72 67 2D 4C 61 64 61 72  ......Burg-Ladar
12D0: 67 00 00 00 00 00 01 93  13 02 01 00 18 80 80 F8  g...............
12E0: 12 B4 00 02 00 45 68 67  6F 2D 52 79 75 68 67 6F  .....Ehgo-Ryuhgo
12F0: 00 00 00 00 00 01 93 13  02 01 00 1A 80 80 17 13  ................
1300: B4 00 02 00 4B 6F 6C 75  69 2D 50 65 6C 75 69 00  ....Kolui-Pelui.
1310: 00 00 00 00 01 93 13 02  01 00 1C 80 80 36 13 B4  .............6..
1320: 00 02 00 4E 6F 6B 75 6D  2D 41 6B 6B 75 6D 00 00  ...Nokum-Akkum..
1330: 00 00 00 01 93 13 02 01  00 1E 80 80 55 13 B4 00  ............U...
1340: 02 00 53 61 76 75 6C 2D  4B 69 76 75 6C 00 00 00  ..Savul-Kivul...
1350: 00 00 01 93 13 02 01 00  20 80 80 74 13 B4 00 02  ........ ..t....
1360: 00 56 69 6E 6A 61 2D 4B  61 6E 6A 61 00 00 00 00  .Vinja-Kanja....
1370: 00 01 93 13 02 01 00 12  80 80 93 13 B4 00 02 00  ................
1380: 59 61 72 67 61 2D 55 6D  69 67 61 00 00 00 00 00  Yarga-Umiga.....
1390: 01 93 13 01 9F 16 02 0B  00 1E 80 80 99 14 02 01  ................
13A0: 00 02 80 80 BD 13 B4 00  02 00 43 75 70 61 70 61  ..........Cupapa
13B0: 00 00 00 00 00 00 00 00  00 00 01 96 14 02 01 00  ................
13C0: 16 80 80 DC 13 B4 00 02  00 4A 61 6A 75 6A 75 00  .........Jajuju.
13D0: 00 00 00 00 00 00 00 00  00 01 96 14 02 01 00 18  ................
13E0: 80 80 FB 13 B4 00 02 00  4B 61 6C 6F 6B 6F 6B 6F  ........Kalokoko
13F0: 00 00 00 00 00 00 00 00  01 96 14 02 01 00 1A 80  ................
1400: 80 1A 14 B4 00 02 00 4D  61 68 6F 79 61 79 61 00  .......Mahoyaya.
1410: 00 00 00 00 00 00 00 01  96 14 02 01 00 1C 80 80  ................
1420: 39 14 B4 00 02 00 50 61  6B 75 72 61 72 61 00 00  9.....Pakurara..
1430: 00 00 00 00 00 00 01 96  14 02 01 00 1E 80 80 58  ...............X
1440: 14 B4 00 02 00 52 69 70  6F 6B 65 6B 65 00 00 00  .....Ripokeke...
1450: 00 00 00 00 00 01 96 14  02 01 00 20 80 80 77 14  ........... ..w.
1460: B4 00 02 00 59 61 77 61  77 61 00 00 00 00 00 00  ....Yawawa......
1470: 00 00 00 00 01 96 14 02  01 00 12 80 80 96 14 B4  ................
1480: 00 02 00 59 75 66 61 66  61 00 00 00 00 00 00 00  ...Yufafa.......
1490: 00 00 00 01 96 14 01 9F  16 02 0B 00 20 80 80 9C  ............ ...
14A0: 15 02 01 00 02 80 80 C0  14 B4 00 02 00 46 68 69  .............Fhi
14B0: 67 00 00 00 00 00 00 00  00 00 00 00 00 01 99 15  g...............
14C0: 02 01 00 16 80 80 DF 14  B4 00 02 00 4B 68 75 6D  ............Khum
14D0: 61 00 00 00 00 00 00 00  00 00 00 00 01 99 15 02  a...............
14E0: 01 00 18 80 80 FE 14 B4  00 02 00 50 69 6D 79 00  ...........Pimy.
14F0: 00 00 00 00 00 00 00 00  00 00 00 01 99 15 02 01  ................
1500: 00 1A 80 80 1D 15 B4 00  02 00 52 61 6B 61 00 00  ..........Raka..
1510: 00 00 00 00 00 00 00 00  00 00 01 99 15 02 01 00  ................
1520: 1C 80 80 3C 15 B4 00 02  00 53 61 68 79 75 00 00  ...<.....Sahyu..
1530: 00 00 00 00 00 00 00 00  00 01 99 15 02 01 00 1E  ................
1540: 80 80 5B 15 B4 00 02 00  53 75 66 68 69 00 00 00  ..[.....Sufhi...
1550: 00 00 00 00 00 00 00 00  01 99 15 02 01 00 20 80  .............. .
1560: 80 7A 15 B4 00 02 00 54  73 75 69 6D 00 00 00 00  .z.....Tsuim....
1570: 00 00 00 00 00 00 00 01  99 15 02 01 00 12 80 80  ................
1580: 99 15 B4 00 02 00 59 6F  6C 69 00 00 00 00 00 00  ......Yoli......
1590: 00 00 00 00 00 00 01 99  15 01 9F 16 02 0B 00 12  ................
15A0: 80 80 9F 16 02 01 00 02  80 80 C3 15 B4 00 02 00  ................
15B0: 44 75 72 69 62 00 00 00  00 00 00 00 00 00 00 00  Durib...........
15C0: 01 9C 16 02 01 00 16 80  80 E2 15 B4 00 02 00 44  ...............D
15D0: 7A 61 70 69 77 61 00 00  00 00 00 00 00 00 00 01  zapiwa..........
15E0: 9C 16 02 01 00 18 80 80  01 16 B4 00 02 00 4A 75  ..............Ju
15F0: 67 6F 77 61 00 00 00 00  00 00 00 00 00 00 01 9C  gowa............
1600: 16 02 01 00 1A 80 80 20  16 B4 00 02 00 4D 75 67  ....... .....Mug
1610: 69 64 6F 00 00 00 00 00  00 00 00 00 00 01 9C 16  ido.............
1620: 02 01 00 1C 80 80 3F 16  B4 00 02 00 56 6F 6C 64  ......?.....Vold
1630: 61 69 00 00 00 00 00 00  00 00 00 00 01 9C 16 02  ai..............
1640: 01 00 1E 80 80 5E 16 B4  00 02 00 57 61 67 77 65  .....^.....Wagwe
1650: 69 00 00 00 00 00 00 00  00 00 00 01 9C 16 02 01  i...............
1660: 00 20 80 80 7D 16 B4 00  02 00 5A 61 79 61 67 00  . ..}.....Zayag.
1670: 00 00 00 00 00 00 00 00  00 00 01 9C 16 02 01 00  ................
1680: 12 80 80 9C 16 B4 00 02  00 5A 6F 6C 64 6F 66 00  .........Zoldof.
1690: 00 00 00 00 00 00 00 00  00 01 9C 16 01 9F 16 02  ................
16A0: 02 00 02 80 01 AB 16 B5  00 02 00 1B 1A 72 1A 02  .............r..
16B0: 09 00 02 80 02 77 18 02  0B 00 02 80 80 EF 16 02  .....w..........
16C0: 09 00 16 80 80 CE 16 B6  0F 49 80 01 EC 16 02 09  .........I......
16D0: 00 18 80 80 DD 16 B6 0F  4A 80 01 EC 16 02 09 00  ........J.......
16E0: 1A 80 80 EC 16 B6 0F 4B  80 01 EC 16 01 77 18 02  .......K.....w..
16F0: 0B 00 16 80 80 27 17 02  09 00 16 80 80 06 17 B6  .....'..........
1700: 0F 49 80 01 24 17 02 09  00 18 80 80 15 17 B6 0F  .I..$...........
1710: 4A 80 01 24 17 02 09 00  1A 80 80 24 17 B6 0F 4B  J..$.......$...K
1720: 80 01 24 17 01 77 18 02  0B 00 18 80 80 5F 17 02  ..$..w......._..
1730: 09 00 16 80 80 3E 17 B6  0F 49 80 01 5C 17 02 09  .....>...I..\...
1740: 00 18 80 80 4D 17 B6 0F  4A 80 01 5C 17 02 09 00  ....M...J..\....
1750: 1A 80 80 5C 17 B6 0F 4B  80 01 5C 17 01 77 18 02  ...\...K..\..w..
1760: 0B 00 1A 80 80 97 17 02  09 00 16 80 80 76 17 B6  .............v..
1770: 0F 49 80 01 94 17 02 09  00 18 80 80 85 17 B6 0F  .I..............
1780: 4A 80 01 94 17 02 09 00  1A 80 80 94 17 B6 0F 4B  J..............K
1790: 80 01 94 17 01 77 18 02  0B 00 1C 80 80 CF 17 02  .....w..........
17A0: 09 00 16 80 80 AE 17 B6  0F 4C 80 01 CC 17 02 09  .........L......
17B0: 00 18 80 80 BD 17 B6 0F  4D 80 01 CC 17 02 09 00  ........M.......
17C0: 1A 80 80 CC 17 B6 0F 4E  80 01 CC 17 01 77 18 02  .......N.....w..
17D0: 0B 00 1E 80 80 07 18 02  09 00 16 80 80 E6 17 B6  ................
17E0: 0F 4C 80 01 04 18 02 09  00 18 80 80 F5 17 B6 0F  .L..............
17F0: 4D 80 01 04 18 02 09 00  1A 80 80 04 18 B6 0F 4E  M..............N
1800: 80 01 04 18 01 77 18 02  0B 00 20 80 80 3F 18 02  .....w.... ..?..
1810: 09 00 16 80 80 1E 18 B6  0F 4F 80 01 3C 18 02 09  .........O..<...
1820: 00 18 80 80 2D 18 B6 0F  50 80 01 3C 18 02 09 00  ....-...P..<....
1830: 1A 80 80 3C 18 B6 0F 51  80 01 3C 18 01 77 18 02  ...<...Q..<..w..
1840: 0B 00 12 80 80 77 18 02  09 00 16 80 80 56 18 B6  .....w.......V..
1850: 0F 4E 80 01 74 18 02 09  00 18 80 80 65 18 B6 0F  .N..t.......e...
1860: 52 80 01 74 18 02 09 00  1A 80 80 74 18 B6 0F 4A  R..t.......t...J
1870: 80 01 74 18 01 77 18 0B  0B 00 B6 0B 0B 00 0C 00  ..t..w..........
1880: 0D 00 0E 00 0F 00 10 00  11 00 02 80 02 80 1B 1A  ................
1890: 72 1A 02 09 00 02 80 02  5A 1A 02 0B 00 02 80 80  r.......Z.......
18A0: D2 18 02 09 00 16 80 80  B1 18 B6 0F 49 80 01 CF  ............I...
18B0: 18 02 09 00 18 80 80 C0  18 B6 0F 4A 80 01 CF 18  ...........J....
18C0: 02 09 00 1A 80 80 CF 18  B6 0F 4B 80 01 CF 18 01  ..........K.....
18D0: 5A 1A 02 0B 00 16 80 80  0A 19 02 09 00 16 80 80  Z...............
18E0: E9 18 B6 0F 49 80 01 07  19 02 09 00 18 80 80 F8  ....I...........
18F0: 18 B6 0F 4A 80 01 07 19  02 09 00 1A 80 80 07 19  ...J............
1900: B6 0F 4B 80 01 07 19 01  5A 1A 02 0B 00 18 80 80  ..K.....Z.......
1910: 42 19 02 09 00 16 80 80  21 19 B6 0F 49 80 01 3F  B.......!...I..?
1920: 19 02 09 00 18 80 80 30  19 B6 0F 4A 80 01 3F 19  .......0...J..?.
1930: 02 09 00 1A 80 80 3F 19  B6 0F 4B 80 01 3F 19 01  ......?...K..?..
1940: 5A 1A 02 0B 00 1A 80 80  7A 19 02 09 00 16 80 80  Z.......z.......
1950: 59 19 B6 0F 49 80 01 77  19 02 09 00 18 80 80 68  Y...I..w.......h
1960: 19 B6 0F 4A 80 01 77 19  02 09 00 1A 80 80 77 19  ...J..w.......w.
1970: B6 0F 4B 80 01 77 19 01  5A 1A 02 0B 00 1C 80 80  ..K..w..Z.......
1980: B2 19 02 09 00 16 80 80  91 19 B6 0F 4C 80 01 AF  ............L...
1990: 19 02 09 00 18 80 80 A0  19 B6 0F 4D 80 01 AF 19  ...........M....
19A0: 02 09 00 1A 80 80 AF 19  B6 0F 4E 80 01 AF 19 01  ..........N.....
19B0: 5A 1A 02 0B 00 1E 80 80  EA 19 02 09 00 16 80 80  Z...............
19C0: C9 19 B6 0F 4C 80 01 E7  19 02 09 00 18 80 80 D8  ....L...........
19D0: 19 B6 0F 4D 80 01 E7 19  02 09 00 1A 80 80 E7 19  ...M............
19E0: B6 0F 4E 80 01 E7 19 01  5A 1A 02 0B 00 20 80 80  ..N.....Z.... ..
19F0: 22 1A 02 09 00 16 80 80  01 1A B6 0F 4F 80 01 1F  "...........O...
1A00: 1A 02 09 00 18 80 80 10  1A B6 0F 50 80 01 1F 1A  ...........P....
1A10: 02 09 00 1A 80 80 1F 1A  B6 0F 51 80 01 1F 1A 01  ..........Q.....
1A20: 5A 1A 02 0B 00 12 80 80  5A 1A 02 09 00 16 80 80  Z.......Z.......
1A30: 39 1A B6 0F 4E 80 01 57  1A 02 09 00 18 80 80 48  9...N..W.......H
1A40: 1A B6 0F 52 80 01 57 1A  02 09 00 1A 80 80 57 1A  ...R..W.......W.
1A50: B6 0F 4A 80 01 57 1A 01  5A 1A 0B 0B 00 B6 0B 0B  ..J..W..Z.......
1A60: 00 0C 00 0D 00 0E 00 0F  00 10 00 11 00 12 00 13  ................
1A70: 00 1B 1A A1 1A 1A 96 1B  1A 8C 1B 1A ED 1F 1A 02  ................
1A80: 20 1A 22 20 1A 42 20 1A  62 20 1A 8F 1F 1A AF 1F   ." .B .b ......
1A90: 1A 82 20 1A AA 20 1B 41  02 80 1A 80 09 10 01 00  .. .. .A........
1AA0: 1B 41 1C 80 20 80 09 10  0B 00 03 1E 17 02 80 02  .A.. ...........
1AB0: 0B 00 02 80 80 BF 1A 03  1F 17 02 80 01 2F 1B 02  ............./..
1AC0: 0B 00 16 80 80 CF 1A 03  1F 17 16 80 01 2F 1B 02  ............./..
1AD0: 0B 00 18 80 80 DF 1A 03  1F 17 02 80 01 2F 1B 02  ............./..
1AE0: 0B 00 1A 80 80 EF 1A 03  1F 17 16 80 01 2F 1B 02  ............./..
1AF0: 0B 00 1C 80 80 FF 1A 03  1F 17 02 80 01 2F 1B 02  ............./..
1B00: 0B 00 1E 80 80 0F 1B 03  1F 17 16 80 01 2F 1B 02  ............./..
1B10: 0B 00 20 80 80 1F 1B 03  1F 17 16 80 01 2F 1B 02  .. ........../..
1B20: 0B 00 12 80 80 2F 1B 03  1F 17 02 80 01 2F 1B 02  ...../......./..
1B30: 1F 17 16 80 00 77 1B 02  87 7F 18 80 80 47 1B 03  .....w.......G..
1B40: 1E 17 16 80 01 77 1B 02  87 7F 1C 80 80 57 1B 03  .....w.......W..
1B50: 1E 17 16 80 01 77 1B 02  87 7F 20 80 80 67 1B 03  .....w.... ..g..
1B60: 1E 17 16 80 01 77 1B 02  87 7F 12 80 80 77 1B 03  .....w.......w..
1B70: 1E 17 16 80 01 77 1B 1B  41 23 80 25 80 09 10 06  .....w..A#.%....
1B80: 00 1B 41 27 80 13 80 09  10 08 00 1B 41 53 80 03  ..A'........AS..
1B90: 80 09 10 09 00 1B 1A A1  1A 1A 78 1B 02 06 00 02  ..........x.....
1BA0: 80 00 B0 1B 41 0E 80 54  80 09 10 0C 00 01 F0 1E  ....A..T........
1BB0: 02 0B 00 02 80 80 18 1C  02 06 00 16 80 80 D7 1B  ................
1BC0: 3E 09 10 12 80 CF 1B 03  0C 00 13 80 01 D4 1B 03  >...............
1BD0: 0C 00 2B 80 01 15 1C 02  06 00 18 80 80 F6 1B 3E  ..+............>
1BE0: 09 10 12 80 EE 1B 03 0C  00 1E 80 01 F3 1B 03 0C  ................
1BF0: 00 1C 80 01 15 1C 02 06  00 1A 80 80 15 1C 3E 09  ..............>.
1C00: 10 12 80 0D 1C 03 0C 00  16 80 01 12 1C 03 0C 00  ................
1C10: 02 80 01 15 1C 01 F0 1E  02 0B 00 16 80 80 80 1C  ................
1C20: 02 06 00 16 80 80 3F 1C  3E 09 10 12 80 37 1C 03  ......?.>....7..
1C30: 0C 00 16 80 01 3C 1C 03  0C 00 02 80 01 7D 1C 02  .....<.......}..
1C40: 06 00 18 80 80 5E 1C 3E  09 10 12 80 56 1C 03 0C  .....^.>....V...
1C50: 00 1E 80 01 5B 1C 03 0C  00 1C 80 01 7D 1C 02 06  ....[.......}...
1C60: 00 1A 80 80 7D 1C 3E 09  10 12 80 75 1C 03 0C 00  ....}.>....u....
1C70: 1A 80 01 7A 1C 03 0C 00  18 80 01 7D 1C 01 F0 1E  ...z.......}....
1C80: 02 0B 00 18 80 80 E8 1C  02 06 00 16 80 80 A7 1C  ................
1C90: 3E 09 10 12 80 9F 1C 03  0C 00 1A 80 01 A4 1C 03  >...............
1CA0: 0C 00 18 80 01 E5 1C 02  06 00 18 80 80 C6 1C 3E  ...............>
1CB0: 09 10 12 80 BE 1C 03 0C  00 0A 80 01 C3 1C 03 0C  ................
1CC0: 00 55 80 01 E5 1C 02 06  00 1A 80 80 E5 1C 3E 09  .U............>.
1CD0: 10 12 80 DD 1C 03 0C 00  13 80 01 E2 1C 03 0C 00  ................
1CE0: 2B 80 01 E5 1C 01 F0 1E  02 0B 00 1A 80 80 50 1D  +.............P.
1CF0: 02 06 00 16 80 80 0F 1D  3E 09 10 12 80 07 1D 03  ........>.......
1D00: 0C 00 16 80 01 0C 1D 03  0C 00 02 80 01 4D 1D 02  .............M..
1D10: 06 00 18 80 80 2E 1D 3E  09 10 12 80 26 1D 03 0C  .......>....&...
1D20: 00 29 80 01 2B 1D 03 0C  00 27 80 01 4D 1D 02 06  .)..+....'..M...
1D30: 00 1A 80 80 4D 1D 3E 09  10 12 80 45 1D 03 0C 00  ....M.>....E....
1D40: 12 80 01 4A 1D 03 0C 00  20 80 01 4D 1D 01 F0 1E  ...J.... ..M....
1D50: 02 0B 00 1C 80 80 B8 1D  02 06 00 16 80 80 77 1D  ..............w.
1D60: 3E 09 10 12 80 6F 1D 03  0C 00 1E 80 01 74 1D 03  >....o.......t..
1D70: 0C 00 1C 80 01 B5 1D 02  06 00 18 80 80 96 1D 3E  ...............>
1D80: 09 10 12 80 8E 1D 03 0C  00 1A 80 01 93 1D 03 0C  ................
1D90: 00 18 80 01 B5 1D 02 06  00 1A 80 80 B5 1D 3E 09  ..............>.
1DA0: 10 12 80 AD 1D 03 0C 00  12 80 01 B2 1D 03 0C 00  ................
1DB0: 20 80 01 B5 1D 01 F0 1E  02 0B 00 1E 80 80 20 1E   ............. .
1DC0: 02 06 00 16 80 80 DF 1D  3E 09 10 12 80 D7 1D 03  ........>.......
1DD0: 0C 00 1A 80 01 DC 1D 03  0C 00 18 80 01 1D 1E 02  ................
1DE0: 06 00 18 80 80 FE 1D 3E  09 10 12 80 F6 1D 03 0C  .......>........
1DF0: 00 12 80 01 FB 1D 03 0C  00 20 80 01 1D 1E 02 06  ......... ......
1E00: 00 1A 80 80 1D 1E 3E 09  10 12 80 15 1E 03 0C 00  ......>.........
1E10: 16 80 01 1A 1E 03 0C 00  02 80 01 1D 1E 01 F0 1E  ................
1E20: 02 0B 00 20 80 80 88 1E  02 06 00 16 80 80 47 1E  ... ..........G.
1E30: 3E 09 10 12 80 3F 1E 03  0C 00 25 80 01 44 1E 03  >....?....%..D..
1E40: 0C 00 23 80 01 85 1E 02  06 00 18 80 80 66 1E 3E  ..#..........f.>
1E50: 09 10 12 80 5E 1E 03 0C  00 29 80 01 63 1E 03 0C  ....^....)..c...
1E60: 00 27 80 01 85 1E 02 06  00 1A 80 80 85 1E 3E 09  .'............>.
1E70: 10 12 80 7D 1E 03 0C 00  13 80 01 82 1E 03 0C 00  ...}............
1E80: 2B 80 01 85 1E 01 F0 1E  02 0B 00 12 80 80 F0 1E  +...............
1E90: 02 06 00 16 80 80 AF 1E  3E 09 10 12 80 A7 1E 03  ........>.......
1EA0: 0C 00 1E 80 01 AC 1E 03  0C 00 1C 80 01 ED 1E 02  ................
1EB0: 06 00 18 80 80 CE 1E 3E  09 10 12 80 C6 1E 03 0C  .......>........
1EC0: 00 13 80 01 CB 1E 03 0C  00 2B 80 01 ED 1E 02 06  .........+......
1ED0: 00 1A 80 80 ED 1E 3E 09  10 12 80 E5 1E 03 0C 00  ......>.........
1EE0: 29 80 01 EA 1E 03 0C 00  27 80 01 ED 1E 01 F0 1E  ).......'.......
1EF0: 1B 40 56 80 57 80 01 10  16 80 43 00 43 01 1B 40  .@V.W.....C.C..@
1F00: 56 80 57 80 01 10 18 80  43 00 43 01 1B 40 56 80  V.W.....C.C..@V.
1F10: 57 80 01 10 1A 80 43 00  43 01 1B 40 56 80 57 80  W.....C.C..@V.W.
1F20: 01 10 1C 80 43 00 43 01  1B 40 56 80 57 80 01 10  ....C.C..@V.W...
1F30: 1E 80 43 00 43 01 1B 40  56 80 57 80 01 10 20 80  ..C.C..@V.W... .
1F40: 43 00 43 01 1B 40 56 80  57 80 01 10 12 80 43 00  C.C..@V.W.....C.
1F50: 43 01 1B 40 56 80 57 80  01 10 23 80 43 00 43 01  C..@V.W...#.C.C.
1F60: 1B 40 56 80 57 80 01 10  27 80 43 00 43 01 1B 1A  .@V.W...'.C.C...
1F70: A1 1A 03 0A 00 0B 00 02  0A 00 1E 80 04 84 1F 08  ................
1F80: 0A 00 16 80 14 0A 00 27  80 07 0A 00 25 80 1B 03  .......'....%...
1F90: 16 00 02 80 03 17 00 02  80 41 0E 80 54 80 08 10  .........A..T...
1FA0: 16 00 41 02 80 1A 80 07  10 17 00 1A 35 46 1B 03  ..A.........5F..
1FB0: 16 00 02 80 41 56 80 3D  80 08 10 16 00 3E 07 10  ....AV.=.....>..
1FC0: 0E 80 D3 1F 41 02 80 1A  80 07 10 17 00 1A 1D 4C  ....A..........L
1FD0: 01 EC 1F 41 02 80 1A 80  07 10 17 00 02 17 00 02  ...A............
1FE0: 80 80 E7 1F 01 EC 1F 03  13 00 02 80 1B 03 16 00  ................
1FF0: 02 80 41 02 80 1A 80 08  10 16 00 1A 82 1B 1A 7C  ..A............|
2000: 31 1B 03 15 00 02 80 03  16 00 02 80 41 20 80 12  1...........A ..
2010: 80 07 10 15 00 41 1C 80  12 80 08 10 16 00 1A 81  .....A..........
2020: 39 1B 03 15 00 02 80 03  16 00 02 80 41 23 80 25  9...........A#.%
2030: 80 07 10 15 00 41 23 80  29 80 08 10 16 00 1A AE  .....A#.).......
2040: 3C 1B 03 15 00 02 80 03  16 00 02 80 41 27 80 29  <...........A'.)
2050: 80 07 10 15 00 41 2B 80  0A 80 08 10 16 00 1A DB  .....A+.........
2060: 3F 1B 03 15 00 02 80 03  16 00 02 80 41 2B 80 13  ?...........A+..
2070: 80 07 10 15 00 41 58 80  03 80 08 10 16 00 1A 08  .....AX.........
2080: 43 1B 41 02 80 1A 80 06  10 14 00 1A A1 1A 1A F9  C.A.............
2090: 4C 41 1C 80 12 80 06 10  14 00 1A FC 4D 41 23 80  LA..........MA#.
20A0: 29 80 06 10 14 00 1A 46  4E 1B 41 0C 80 56 80 07  )......FN.A..V..
20B0: 10 00 00 02 00 00 16 80  80 C3 20 03 12 00 59 80  .......... ...Y.
20C0: 01 0C 22 02 00 00 18 80  80 D3 20 03 12 00 5A 80  .."....... ...Z.
20D0: 01 0C 22 02 00 00 1A 80  80 E3 20 03 12 00 00 80  .."....... .....
20E0: 01 0C 22 02 00 00 1C 80  80 F3 20 03 12 00 5B 80  .."....... ...[.
20F0: 01 0C 22 02 00 00 1E 80  80 03 21 03 12 00 5C 80  ..".......!...\.
2100: 01 0C 22 02 00 00 20 80  80 13 21 03 12 00 5D 80  .."... ...!...].
2110: 01 0C 22 02 00 00 12 80  80 0C 22 41 02 80 12 80  .."......."A....
2120: 03 10 00 00 02 00 00 02  80 80 34 21 03 12 00 59  ..........4!...Y
2130: 80 01 09 22 02 00 00 16  80 80 44 21 03 12 00 5E  ..."......D!...^
2140: 80 01 09 22 02 00 00 18  80 80 54 21 03 12 00 5F  ..."......T!..._
2150: 80 01 09 22 02 00 00 1A  80 80 64 21 03 12 00 60  ..."......d!...`
2160: 80 01 09 22 02 00 00 1C  80 80 74 21 03 12 00 61  ..."......t!...a
2170: 80 01 09 22 02 00 00 1E  80 80 84 21 03 12 00 62  ...".......!...b
2180: 80 01 09 22 02 00 00 20  80 80 94 21 03 12 00 63  ..."... ...!...c
2190: 80 01 09 22 02 00 00 12  80 80 A9 21 03 12 00 64  ...".......!...d
21A0: 80 03 13 00 64 80 01 09  22 02 00 00 23 80 80 B9  ....d..."...#...
21B0: 21 03 12 00 65 80 01 09  22 02 00 00 25 80 80 C9  !...e..."...%...
21C0: 21 03 12 00 66 80 01 09  22 02 00 00 27 80 80 D9  !...f..."...'...
21D0: 21 03 12 00 67 80 01 09  22 02 00 00 29 80 80 E9  !...g..."...)...
21E0: 21 03 12 00 68 80 01 09  22 02 00 00 2B 80 80 F9  !...h..."...+...
21F0: 21 03 12 00 69 80 01 09  22 02 00 00 13 80 80 09  !...i...".......
2200: 22 03 12 00 6A 80 01 09  22 01 0C 22 3E 03 10 23  "...j..."..">..#
2210: 80 9C 22 41 25 80 0A 80  03 10 00 00 02 00 00 02  .."A%...........
2220: 80 80 2C 22 03 13 00 6B  80 01 9C 22 02 00 00 16  ..,"...k..."....
2230: 80 80 3C 22 03 13 00 6C  80 01 9C 22 02 00 00 18  ..<"...l..."....
2240: 80 80 4C 22 03 13 00 6D  80 01 9C 22 02 00 00 1A  ..L"...m..."....
2250: 80 80 5C 22 03 13 00 6E  80 01 9C 22 02 00 00 1C  ..\"...n..."....
2260: 80 80 6C 22 03 13 00 6F  80 01 9C 22 02 00 00 1E  ..l"...o..."....
2270: 80 80 7C 22 03 13 00 70  80 01 9C 22 02 00 00 20  ..|"...p..."... 
2280: 80 80 8C 22 03 13 00 71  80 01 9C 22 02 00 00 12  ..."...q..."....
2290: 80 80 9C 22 03 13 00 72  80 01 9C 22 41 73 80 3D  ..."...r..."As.=
22A0: 80 07 10 00 00 02 00 00  16 80 80 B5 22 03 0D 00  ............"...
22B0: 74 80 01 64 24 02 00 00  18 80 80 C5 22 03 0D 00  t..d$......."...
22C0: 2E 80 01 64 24 02 00 00  1A 80 80 D5 22 03 0D 00  ...d$......."...
22D0: 75 80 01 64 24 02 00 00  1C 80 80 E5 22 03 0D 00  u..d$......."...
22E0: 76 80 01 64 24 02 00 00  1E 80 80 F5 22 03 0D 00  v..d$......."...
22F0: 77 80 01 64 24 02 00 00  20 80 80 05 23 03 0D 00  w..d$... ...#...
2300: 78 80 01 64 24 02 00 00  12 80 80 64 24 41 58 80  x..d$......d$AX.
2310: 54 80 03 10 00 00 02 00  00 02 80 80 A1 23 02 0B  T............#..
2320: 00 02 80 80 2E 23 03 0D  00 79 80 01 9E 23 02 0B  .....#...y...#..
2330: 00 16 80 80 3E 23 03 0D  00 5C 80 01 9E 23 02 0B  ....>#...\...#..
2340: 00 18 80 80 4E 23 03 0D  00 79 80 01 9E 23 02 0B  ....N#...y...#..
2350: 00 1A 80 80 5E 23 03 0D  00 5C 80 01 9E 23 02 0B  ....^#...\...#..
2360: 00 1C 80 80 6E 23 03 0D  00 79 80 01 9E 23 02 0B  ....n#...y...#..
2370: 00 1E 80 80 7E 23 03 0D  00 5C 80 01 9E 23 02 0B  ....~#...\...#..
2380: 00 20 80 80 8E 23 03 0D  00 5C 80 01 9E 23 02 0B  . ...#...\...#..
2390: 00 12 80 80 9E 23 03 0D  00 79 80 01 9E 23 01 61  .....#...y...#.a
23A0: 24 02 00 00 16 80 80 B1  23 03 0D 00 7A 80 01 61  $.......#...z..a
23B0: 24 02 00 00 18 80 80 C1  23 03 0D 00 7B 80 01 61  $.......#...{..a
23C0: 24 02 00 00 1A 80 80 D1  23 03 0D 00 00 80 01 61  $.......#......a
23D0: 24 02 00 00 1C 80 80 E1  23 03 0D 00 5B 80 01 61  $.......#...[..a
23E0: 24 02 00 00 1E 80 80 F1  23 03 0D 00 7C 80 01 61  $.......#...|..a
23F0: 24 02 00 00 20 80 80 01  24 03 0D 00 78 80 01 61  $... ...$...x..a
2400: 24 02 00 00 12 80 80 11  24 03 0D 00 78 80 01 61  $.......$...x..a
2410: 24 02 00 00 23 80 80 21  24 03 0D 00 7D 80 01 61  $...#..!$...}..a
2420: 24 02 00 00 25 80 80 31  24 03 0D 00 7E 80 01 61  $...%..1$...~..a
2430: 24 02 00 00 27 80 80 41  24 03 0D 00 7F 80 01 61  $...'..A$......a
2440: 24 02 00 00 29 80 80 51  24 03 0D 00 80 80 01 61  $...)..Q$......a
2450: 24 02 00 00 2B 80 80 61  24 03 0D 00 81 80 01 61  $...+..a$......a
2460: 24 01 64 24 41 82 80 57  80 07 10 00 00 02 00 00  $.d$A..W........
2470: 25 80 80 8C 24 03 0E 00  83 80 03 0F 00 83 80 03  %...$...........
2480: 10 00 83 80 03 11 00 83  80 01 7B 31 02 00 00 27  ..........{1...'
2490: 80 80 8F 25 02 0B 00 02  80 80 B3 24 03 0E 00 84  ...%.......$....
24A0: 80 03 0F 00 84 80 03 10  00 84 80 03 11 00 84 80  ................
24B0: 01 8C 25 02 0B 00 16 80  80 D2 24 03 0E 00 85 80  ..%.......$.....
24C0: 03 0F 00 85 80 03 10 00  85 80 03 11 00 85 80 01  ................
24D0: 8C 25 02 0B 00 18 80 80  F1 24 03 0E 00 84 80 03  .%.......$......
24E0: 0F 00 84 80 03 10 00 84  80 03 11 00 84 80 01 8C  ................
24F0: 25 02 0B 00 1A 80 80 10  25 03 0E 00 85 80 03 0F  %.......%.......
2500: 00 85 80 03 10 00 85 80  03 11 00 85 80 01 8C 25  ...............%
2510: 02 0B 00 1C 80 80 2F 25  03 0E 00 84 80 03 0F 00  ....../%........
2520: 84 80 03 10 00 84 80 03  11 00 84 80 01 8C 25 02  ..............%.
2530: 0B 00 1E 80 80 4E 25 03  0E 00 85 80 03 0F 00 85  .....N%.........
2540: 80 03 10 00 85 80 03 11  00 85 80 01 8C 25 02 0B  .............%..
2550: 00 20 80 80 6D 25 03 0E  00 85 80 03 0F 00 85 80  . ..m%..........
2560: 03 10 00 85 80 03 11 00  85 80 01 8C 25 02 0B 00  ............%...
2570: 12 80 80 8C 25 03 0E 00  84 80 03 0F 00 84 80 03  ....%...........
2580: 10 00 84 80 03 11 00 84  80 01 8C 25 01 7B 31 02  ...........%.{1.
2590: 00 00 29 80 80 92 26 02  0B 00 02 80 80 B6 25 03  ..)...&.......%.
25A0: 0E 00 79 80 03 0F 00 79  80 03 10 00 79 80 03 11  ..y....y....y...
25B0: 00 79 80 01 8F 26 02 0B  00 16 80 80 D5 25 03 0E  .y...&.......%..
25C0: 00 5C 80 03 0F 00 5C 80  03 10 00 5C 80 03 11 00  .\....\....\....
25D0: 5C 80 01 8F 26 02 0B 00  18 80 80 F4 25 03 0E 00  \...&.......%...
25E0: 79 80 03 0F 00 79 80 03  10 00 79 80 03 11 00 79  y....y....y....y
25F0: 80 01 8F 26 02 0B 00 1A  80 80 13 26 03 0E 00 5C  ...&.......&...\
2600: 80 03 0F 00 5C 80 03 10  00 5C 80 03 11 00 5C 80  ....\....\....\.
2610: 01 8F 26 02 0B 00 1C 80  80 32 26 03 0E 00 79 80  ..&......2&...y.
2620: 03 0F 00 79 80 03 10 00  79 80 03 11 00 79 80 01  ...y....y....y..
2630: 8F 26 02 0B 00 1E 80 80  51 26 03 0E 00 5C 80 03  .&......Q&...\..
2640: 0F 00 5C 80 03 10 00 5C  80 03 11 00 5C 80 01 8F  ..\....\....\...
2650: 26 02 0B 00 20 80 80 70  26 03 0E 00 5C 80 03 0F  &... ..p&...\...
2660: 00 5C 80 03 10 00 5C 80  03 11 00 5C 80 01 8F 26  .\....\....\...&
2670: 02 0B 00 12 80 80 8F 26  03 0E 00 79 80 03 0F 00  .......&...y....
2680: 79 80 03 10 00 79 80 03  11 00 79 80 01 8F 26 01  y....y....y...&.
2690: 7B 31 02 00 00 16 80 80  26 27 02 0B 00 02 80 80  {1......&'......
26A0: AA 26 03 0E 00 86 80 01  1A 27 02 0B 00 16 80 80  .&.......'......
26B0: BA 26 03 0E 00 87 80 01  1A 27 02 0B 00 18 80 80  .&.......'......
26C0: CA 26 03 0E 00 86 80 01  1A 27 02 0B 00 1A 80 80  .&.......'......
26D0: DA 26 03 0E 00 87 80 01  1A 27 02 0B 00 1C 80 80  .&.......'......
26E0: EA 26 03 0E 00 86 80 01  1A 27 02 0B 00 1E 80 80  .&.......'......
26F0: FA 26 03 0E 00 87 80 01  1A 27 02 0B 00 20 80 80  .&.......'... ..
2700: 0A 27 03 0E 00 87 80 01  1A 27 02 0B 00 12 80 80  .'.......'......
2710: 1A 27 03 0E 00 86 80 01  1A 27 1A 22 20 1A 42 20  .'.......'." .B 
2720: 1A 62 20 01 7B 31 02 00  00 18 80 80 BA 27 02 0B  .b .{1.......'..
2730: 00 02 80 80 3E 27 03 0E  00 88 80 01 AE 27 02 0B  ....>'.......'..
2740: 00 16 80 80 4E 27 03 0E  00 89 80 01 AE 27 02 0B  ....N'.......'..
2750: 00 18 80 80 5E 27 03 0E  00 88 80 01 AE 27 02 0B  ....^'.......'..
2760: 00 1A 80 80 6E 27 03 0E  00 89 80 01 AE 27 02 0B  ....n'.......'..
2770: 00 1C 80 80 7E 27 03 0E  00 88 80 01 AE 27 02 0B  ....~'.......'..
2780: 00 1E 80 80 8E 27 03 0E  00 89 80 01 AE 27 02 0B  .....'.......'..
2790: 00 20 80 80 9E 27 03 0E  00 89 80 01 AE 27 02 0B  . ...'.......'..
27A0: 00 12 80 80 AE 27 03 0E  00 88 80 01 AE 27 1A 22  .....'.......'."
27B0: 20 1A 42 20 1A 62 20 01  7B 31 02 00 00 12 80 80   .B .b .{1......
27C0: 4E 28 02 0B 00 02 80 80  D2 27 03 0E 00 8A 80 01  N(.......'......
27D0: 42 28 02 0B 00 16 80 80  E2 27 03 0E 00 8B 80 01  B(.......'......
27E0: 42 28 02 0B 00 18 80 80  F2 27 03 0E 00 8A 80 01  B(.......'......
27F0: 42 28 02 0B 00 1A 80 80  02 28 03 0E 00 8B 80 01  B(.......(......
2800: 42 28 02 0B 00 1C 80 80  12 28 03 0E 00 8A 80 01  B(.......(......
2810: 42 28 02 0B 00 1E 80 80  22 28 03 0E 00 8B 80 01  B(......"(......
2820: 42 28 02 0B 00 20 80 80  32 28 03 0E 00 8B 80 01  B(... ..2(......
2830: 42 28 02 0B 00 12 80 80  42 28 03 0E 00 8A 80 01  B(......B(......
2840: 42 28 1A 22 20 1A 42 20  1A 62 20 01 7B 31 02 00  B(." .B .b .{1..
2850: 00 1A 80 80 8C 28 02 0B  00 1E 80 00 75 28 03 0E  .....(......u(..
2860: 00 8C 80 03 0F 00 8C 80  03 10 00 8C 80 03 11 00  ................
2870: 8C 80 01 89 28 03 0E 00  8D 80 03 0F 00 8D 80 03  ....(...........
2880: 10 00 8D 80 03 11 00 8D  80 01 7B 31 02 00 00 1C  ..........{1....
2890: 80 80 CA 28 02 0B 00 1E  80 00 B3 28 03 0E 00 8E  ...(.......(....
28A0: 80 03 0F 00 8E 80 03 10  00 8E 80 03 11 00 8E 80  ................
28B0: 01 C7 28 03 0E 00 8F 80  03 0F 00 8F 80 03 10 00  ..(.............
28C0: 8F 80 03 11 00 8F 80 01  7B 31 02 00 00 23 80 80  ........{1...#..
28D0: 08 29 02 0B 00 1E 80 00  F1 28 03 0E 00 90 80 03  .).......(......
28E0: 0F 00 90 80 03 10 00 90  80 03 11 00 90 80 01 05  ................
28F0: 29 03 0E 00 91 80 03 0F  00 91 80 03 10 00 91 80  )...............
2900: 03 11 00 91 80 01 7B 31  02 00 00 2B 80 80 0B 2A  ......{1...+...*
2910: 02 0B 00 02 80 80 2F 29  03 0E 00 7B 80 03 0F 00  ....../)...{....
2920: 7B 80 03 10 00 7B 80 03  11 00 7B 80 01 08 2A 02  {....{....{...*.
2930: 0B 00 16 80 80 4E 29 03  0E 00 92 80 03 0F 00 92  .....N).........
2940: 80 03 10 00 92 80 03 11  00 92 80 01 08 2A 02 0B  .............*..
2950: 00 18 80 80 6D 29 03 0E  00 7B 80 03 0F 00 7B 80  ....m)...{....{.
2960: 03 10 00 7B 80 03 11 00  7B 80 01 08 2A 02 0B 00  ...{....{...*...
2970: 1A 80 80 8C 29 03 0E 00  92 80 03 0F 00 92 80 03  ....)...........
2980: 10 00 92 80 03 11 00 92  80 01 08 2A 02 0B 00 1C  ...........*....
2990: 80 80 AB 29 03 0E 00 7B  80 03 0F 00 7B 80 03 10  ...)...{....{...
29A0: 00 7B 80 03 11 00 7B 80  01 08 2A 02 0B 00 1E 80  .{....{...*.....
29B0: 80 CA 29 03 0E 00 92 80  03 0F 00 92 80 03 10 00  ..).............
29C0: 92 80 03 11 00 92 80 01  08 2A 02 0B 00 20 80 80  .........*... ..
29D0: E9 29 03 0E 00 92 80 03  0F 00 92 80 03 10 00 92  .)..............
29E0: 80 03 11 00 92 80 01 08  2A 02 0B 00 12 80 80 08  ........*.......
29F0: 2A 03 0E 00 7B 80 03 0F  00 7B 80 03 10 00 7B 80  *...{....{....{.
2A00: 03 11 00 7B 80 01 08 2A  01 7B 31 02 00 00 1E 80  ...{...*.{1.....
2A10: 80 29 2A 03 0D 00 02 80  03 0E 00 93 80 1A 22 20  .)*..........." 
2A20: 1A 42 20 1A 62 20 01 7B  31 02 00 00 20 80 80 C3  .B .b .{1... ...
2A30: 2A 03 0E 00 76 80 03 0F  00 78 80 03 11 00 76 80  *...v....x....v.
2A40: 02 0B 00 02 80 80 50 2A  03 10 00 88 80 01 C0 2A  ......P*.......*
2A50: 02 0B 00 16 80 80 60 2A  03 10 00 89 80 01 C0 2A  ......`*.......*
2A60: 02 0B 00 18 80 80 70 2A  03 10 00 88 80 01 C0 2A  ......p*.......*
2A70: 02 0B 00 1A 80 80 80 2A  03 10 00 89 80 01 C0 2A  .......*.......*
2A80: 02 0B 00 1C 80 80 90 2A  03 10 00 88 80 01 C0 2A  .......*.......*
2A90: 02 0B 00 1E 80 80 A0 2A  03 10 00 89 80 01 C0 2A  .......*.......*
2AA0: 02 0B 00 20 80 80 B0 2A  03 10 00 89 80 01 C0 2A  ... ...*.......*
2AB0: 02 0B 00 12 80 80 C0 2A  03 10 00 88 80 01 C0 2A  .......*.......*
2AC0: 01 7B 31 02 00 00 13 80  80 E1 2A 03 0D 00 94 80  .{1.......*.....
2AD0: 03 0E 00 94 80 1A 22 20  1A 42 20 1A 62 20 01 7B  ......" .B .b .{
2AE0: 31 02 00 00 55 80 80 FF  2A 03 0D 00 95 80 03 0E  1...U...*.......
2AF0: 00 95 80 1A 22 20 1A 42  20 1A 62 20 01 7B 31 02  ...." .B .b .{1.
2B00: 00 00 0A 80 80 7B 31 41  56 80 57 80 03 10 00 00  .....{1AV.W.....
2B10: 02 00 00 02 80 80 2E 2B  03 0D 00 96 80 03 0E 00  .......+........
2B20: 96 80 1A 22 20 1A 42 20  1A 62 20 01 78 31 02 00  ..." .B .b .x1..
2B30: 00 16 80 80 52 2B 03 0D  00 5A 80 03 0E 00 97 80  ....R+...Z......
2B40: 03 0F 00 97 80 03 10 00  97 80 03 11 00 97 80 01  ................
2B50: 78 31 02 00 00 18 80 80  76 2B 03 0D 00 98 80 03  x1......v+......
2B60: 0E 00 98 80 03 0F 00 98  80 03 10 00 98 80 03 11  ................
2B70: 00 98 80 01 78 31 02 00  00 20 80 80 9A 2B 03 0D  ....x1... ...+..
2B80: 00 99 80 03 0E 00 99 80  03 0F 00 99 80 03 10 00  ................
2B90: 99 80 03 11 00 99 80 01  78 31 02 00 00 12 80 80  ........x1......
2BA0: 9D 2C 02 0B 00 02 80 80  C1 2B 03 0E 00 9A 80 03  .,.......+......
2BB0: 0F 00 9A 80 03 10 00 9A  80 03 11 00 9A 80 01 9A  ................
2BC0: 2C 02 0B 00 16 80 80 E0  2B 03 0E 00 9B 80 03 0F  ,.......+.......
2BD0: 00 9B 80 03 10 00 9B 80  03 11 00 9B 80 01 9A 2C  ...............,
2BE0: 02 0B 00 18 80 80 FF 2B  03 0E 00 9A 80 03 0F 00  .......+........
2BF0: 9A 80 03 10 00 9A 80 03  11 00 9A 80 01 9A 2C 02  ..............,.
2C00: 0B 00 1A 80 80 1E 2C 03  0E 00 9B 80 03 0F 00 9B  ......,.........
2C10: 80 03 10 00 9B 80 03 11  00 9B 80 01 9A 2C 02 0B  .............,..
2C20: 00 1C 80 80 3D 2C 03 0E  00 9A 80 03 0F 00 9A 80  ....=,..........
2C30: 03 10 00 9A 80 03 11 00  9A 80 01 9A 2C 02 0B 00  ............,...
2C40: 1E 80 80 5C 2C 03 0E 00  9B 80 03 0F 00 9B 80 03  ...\,...........
2C50: 10 00 9B 80 03 11 00 9B  80 01 9A 2C 02 0B 00 20  ...........,... 
2C60: 80 80 7B 2C 03 0E 00 9B  80 03 0F 00 9B 80 03 10  ..{,............
2C70: 00 9B 80 03 11 00 9B 80  01 9A 2C 02 0B 00 12 80  ..........,.....
2C80: 80 9A 2C 03 0E 00 9A 80  03 0F 00 9A 80 03 10 00  ..,.............
2C90: 9A 80 03 11 00 9A 80 01  9A 2C 01 78 31 02 00 00  .........,.x1...
2CA0: 1A 80 80 56 2D 02 0B 00  02 80 80 BA 2C 03 0E 00  ...V-.......,...
2CB0: 00 80 03 10 00 00 80 01  4D 2D 02 0B 00 16 80 80  ........M-......
2CC0: CF 2C 03 0E 00 5B 80 03  10 00 5B 80 01 4D 2D 02  .,...[....[..M-.
2CD0: 0B 00 18 80 80 E4 2C 03  0E 00 00 80 03 10 00 00  ......,.........
2CE0: 80 01 4D 2D 02 0B 00 1A  80 80 F9 2C 03 0E 00 5B  ..M-.......,...[
2CF0: 80 03 10 00 5B 80 01 4D  2D 02 0B 00 1C 80 80 0E  ....[..M-.......
2D00: 2D 03 0E 00 00 80 03 10  00 00 80 01 4D 2D 02 0B  -...........M-..
2D10: 00 1E 80 80 23 2D 03 0E  00 5B 80 03 10 00 5B 80  ....#-...[....[.
2D20: 01 4D 2D 02 0B 00 20 80  80 38 2D 03 0E 00 5B 80  .M-... ..8-...[.
2D30: 03 10 00 5B 80 01 4D 2D  02 0B 00 12 80 80 4D 2D  ...[..M-......M-
2D40: 03 0E 00 00 80 03 10 00  00 80 01 4D 2D 1A 22 20  ...........M-." 
2D50: 1A 62 20 01 78 31 02 00  00 1C 80 80 7A 2D 03 0D  .b .x1......z-..
2D60: 00 9C 80 03 0E 00 9C 80  03 0F 00 9C 80 03 10 00  ................
2D70: 9C 80 03 11 00 9C 80 01  78 31 02 00 00 1E 80 80  ........x1......
2D80: 93 2D 03 0E 00 9D 80 1A  22 20 1A 42 20 1A 62 20  .-......" .B .b 
2D90: 01 78 31 02 00 00 23 80  80 BE 2E 02 0B 00 02 80  .x1...#.........
2DA0: 80 BF 2D 03 0D 00 9E 80  03 0E 00 9E 80 03 0F 00  ..-.............
2DB0: 9E 80 03 10 00 9E 80 03  11 00 9E 80 01 BB 2E 02  ................
2DC0: 0B 00 16 80 80 E3 2D 03  0D 00 9F 80 03 0E 00 9F  ......-.........
2DD0: 80 03 0F 00 9F 80 03 10  00 9F 80 03 11 00 9F 80  ................
2DE0: 01 BB 2E 02 0B 00 18 80  80 07 2E 03 0D 00 9E 80  ................
2DF0: 03 0E 00 9E 80 03 0F 00  9E 80 03 10 00 9E 80 03  ................
2E00: 11 00 9E 80 01 BB 2E 02  0B 00 1A 80 80 2B 2E 03  .............+..
2E10: 0D 00 9F 80 03 0E 00 9F  80 03 0F 00 9F 80 03 10  ................
2E20: 00 9F 80 03 11 00 9F 80  01 BB 2E 02 0B 00 1C 80  ................
2E30: 80 4F 2E 03 0D 00 9E 80  03 0E 00 9E 80 03 0F 00  .O..............
2E40: 9E 80 03 10 00 9E 80 03  11 00 9E 80 01 BB 2E 02  ................
2E50: 0B 00 1E 80 80 73 2E 03  0D 00 9F 80 03 0E 00 9F  .....s..........
2E60: 80 03 0F 00 9F 80 03 10  00 9F 80 03 11 00 9F 80  ................
2E70: 01 BB 2E 02 0B 00 20 80  80 97 2E 03 0D 00 9F 80  ...... .........
2E80: 03 0E 00 9F 80 03 0F 00  9F 80 03 10 00 9F 80 03  ................
2E90: 11 00 9F 80 01 BB 2E 02  0B 00 12 80 80 BB 2E 03  ................
2EA0: 0D 00 9E 80 03 0E 00 9E  80 03 0F 00 9E 80 03 10  ................
2EB0: 00 9E 80 03 11 00 9E 80  01 BB 2E 01 78 31 02 00  ............x1..
2EC0: 00 25 80 80 DE 2E 03 0D  00 A0 80 03 0E 00 A0 80  .%..............
2ED0: 03 0F 00 A0 80 1A 42 20  1A 62 20 01 78 31 02 00  ......B .b .x1..
2EE0: 00 27 80 80 02 2F 03 0D  00 A1 80 03 0E 00 A1 80  .'.../..........
2EF0: 03 0F 00 A1 80 03 10 00  A1 80 03 11 00 A1 80 01  ................
2F00: 78 31 02 00 00 29 80 80  1B 2F 03 0E 00 A2 80 1A  x1...).../......
2F10: 22 20 1A 42 20 1A 62 20  01 78 31 02 00 00 2B 80  " .B .b .x1...+.
2F20: 80 34 2F 03 0E 00 A3 80  1A 22 20 1A 42 20 1A 62  .4/......" .B .b
2F30: 20 01 78 31 02 00 00 13  80 80 58 2F 03 0D 00 5D   .x1......X/...]
2F40: 80 03 0E 00 5D 80 03 0F  00 5D 80 03 10 00 5D 80  ....]....]....].
2F50: 03 11 00 5D 80 01 78 31  02 00 00 55 80 80 71 2F  ...]..x1...U..q/
2F60: 03 0E 00 A4 80 1A 22 20  1A 42 20 1A 62 20 01 78  ......" .B .b .x
2F70: 31 02 00 00 0A 80 80 8A  2F 03 0E 00 A5 80 1A 22  1......./......"
2F80: 20 1A 42 20 1A 62 20 01  78 31 02 00 00 58 80 80   .B .b .x1...X..
2F90: A3 2F 03 0E 00 A6 80 1A  22 20 1A 42 20 1A 62 20  ./......" .B .b 
2FA0: 01 78 31 02 00 00 A7 80  80 BC 2F 03 0E 00 A8 80  .x1......./.....
2FB0: 1A 22 20 1A 42 20 1A 62  20 01 78 31 02 00 00 53  ." .B .b .x1...S
2FC0: 80 80 75 30 02 0B 00 02  80 80 D9 2F 03 0E 00 A9  ..u0......./....
2FD0: 80 03 10 00 00 80 01 6C  30 02 0B 00 16 80 80 EE  .......l0.......
2FE0: 2F 03 0E 00 AA 80 03 10  00 5B 80 01 6C 30 02 0B  /........[..l0..
2FF0: 00 18 80 80 03 30 03 0E  00 A9 80 03 10 00 00 80  .....0..........
3000: 01 6C 30 02 0B 00 1A 80  80 18 30 03 0E 00 AA 80  .l0.......0.....
3010: 03 10 00 5B 80 01 6C 30  02 0B 00 1C 80 80 2D 30  ...[..l0......-0
3020: 03 0E 00 A9 80 03 10 00  00 80 01 6C 30 02 0B 00  ...........l0...
3030: 1E 80 80 42 30 03 0E 00  AA 80 03 10 00 5B 80 01  ...B0........[..
3040: 6C 30 02 0B 00 20 80 80  57 30 03 0E 00 AA 80 03  l0... ..W0......
3050: 10 00 5B 80 01 6C 30 02  0B 00 12 80 80 6C 30 03  ..[..l0......l0.
3060: 0E 00 A9 80 03 10 00 00  80 01 6C 30 1A 22 20 1A  ..........l0." .
3070: 62 20 01 78 31 02 00 00  03 80 80 78 31 02 0B 00  b .x1......x1...
3080: 02 80 80 9C 30 03 0E 00  AB 80 03 0F 00 AB 80 03  ....0...........
3090: 10 00 AB 80 03 11 00 AB  80 01 75 31 02 0B 00 16  ..........u1....
30A0: 80 80 BB 30 03 0E 00 AC  80 03 0F 00 AC 80 03 10  ...0............
30B0: 00 AC 80 03 11 00 AC 80  01 75 31 02 0B 00 18 80  .........u1.....
30C0: 80 DA 30 03 0E 00 AB 80  03 0F 00 AB 80 03 10 00  ..0.............
30D0: AB 80 03 11 00 AB 80 01  75 31 02 0B 00 1A 80 80  ........u1......
30E0: F9 30 03 0E 00 AC 80 03  0F 00 AC 80 03 10 00 AC  .0..............
30F0: 80 03 11 00 AC 80 01 75  31 02 0B 00 1C 80 80 18  .......u1.......
3100: 31 03 0E 00 AB 80 03 0F  00 AB 80 03 10 00 AB 80  1...............
3110: 03 11 00 AB 80 01 75 31  02 0B 00 1E 80 80 37 31  ......u1......71
3120: 03 0E 00 AC 80 03 0F 00  AC 80 03 10 00 AC 80 03  ................
3130: 11 00 AC 80 01 75 31 02  0B 00 20 80 80 56 31 03  .....u1... ..V1.
3140: 0E 00 AC 80 03 0F 00 AC  80 03 10 00 AC 80 03 11  ................
3150: 00 AC 80 01 75 31 02 0B  00 12 80 80 75 31 03 0E  ....u1......u1..
3160: 00 AB 80 03 0F 00 AB 80  03 10 00 AB 80 03 11 00  ................
3170: AB 80 01 75 31 01 78 31  01 7B 31 1B 02 08 00 16  ...u1.x1.{1.....
3180: 80 80 27 32 02 16 00 02  80 80 94 31 03 0D 00 02  ..'2.......1....
3190: 80 01 24 32 02 16 00 16  80 80 A4 31 03 0D 00 16  ..$2.......1....
31A0: 80 01 24 32 02 16 00 18  80 80 B4 31 03 0D 00 AD  ..$2.......1....
31B0: 80 01 24 32 02 16 00 1A  80 80 C4 31 03 0D 00 AE  ..$2.......1....
31C0: 80 01 24 32 02 16 00 1C  80 80 D4 31 03 0D 00 1E  ..$2.......1....
31D0: 80 01 24 32 02 16 00 1E  80 80 E4 31 03 0D 00 AF  ..$2.......1....
31E0: 80 01 24 32 02 16 00 20  80 80 F4 31 03 0D 00 12  ..$2... ...1....
31F0: 80 01 24 32 02 16 00 12  80 80 04 32 03 0D 00 52  ..$2.......2...R
3200: 80 01 24 32 02 16 00 23  80 80 14 32 03 0D 00 B0  ..$2...#...2....
3210: 80 01 24 32 02 16 00 25  80 80 24 32 03 0D 00 B1  ..$2...%..$2....
3220: 80 01 24 32 01 80 39 02  08 00 18 80 80 D2 32 02  ..$2..9.......2.
3230: 16 00 02 80 80 3F 32 03  0D 00 02 80 01 CF 32 02  .....?2.......2.
3240: 16 00 16 80 80 4F 32 03  0D 00 A7 80 01 CF 32 02  .....O2.......2.
3250: 16 00 18 80 80 5F 32 03  0D 00 18 80 01 CF 32 02  ....._2.......2.
3260: 16 00 1A 80 80 6F 32 03  0D 00 25 80 01 CF 32 02  .....o2...%...2.
3270: 16 00 1C 80 80 7F 32 03  0D 00 B2 80 01 CF 32 02  ......2.......2.
3280: 16 00 1E 80 80 8F 32 03  0D 00 AE 80 01 CF 32 02  ......2.......2.
3290: 16 00 20 80 80 9F 32 03  0D 00 54 80 01 CF 32 02  .. ...2...T...2.
32A0: 16 00 12 80 80 AF 32 03  0D 00 B3 80 01 CF 32 02  ......2.......2.
32B0: 16 00 23 80 80 BF 32 03  0D 00 B4 80 01 CF 32 02  ..#...2.......2.
32C0: 16 00 25 80 80 CF 32 03  0D 00 B5 80 01 CF 32 01  ..%...2.......2.
32D0: 80 39 02 08 00 1A 80 80  7D 33 02 16 00 02 80 80  .9......}3......
32E0: EA 32 03 0D 00 02 80 01  7A 33 02 16 00 16 80 80  .2......z3......
32F0: FA 32 03 0D 00 1E 80 01  7A 33 02 16 00 18 80 80  .2......z3......
3300: 0A 33 03 0D 00 58 80 01  7A 33 02 16 00 1A 80 80  .3...X..z3......
3310: 1A 33 03 0D 00 3D 80 01  7A 33 02 16 00 1C 80 80  .3...=..z3......
3320: 2A 33 03 0D 00 B6 80 01  7A 33 02 16 00 1E 80 80  *3......z3......
3330: 3A 33 03 0D 00 B4 80 01  7A 33 02 16 00 20 80 80  :3......z3... ..
3340: 4A 33 03 0D 00 B7 80 01  7A 33 02 16 00 12 80 80  J3......z3......
3350: 5A 33 03 0D 00 B8 80 01  7A 33 02 16 00 23 80 80  Z3......z3...#..
3360: 6A 33 03 0D 00 B9 80 01  7A 33 02 16 00 25 80 80  j3......z3...%..
3370: 7A 33 03 0D 00 BA 80 01  7A 33 01 80 39 02 08 00  z3......z3..9...
3380: 1C 80 80 28 34 02 16 00  02 80 80 95 33 03 0D 00  ...(4.......3...
3390: 02 80 01 25 34 02 16 00  16 80 80 A5 33 03 0D 00  ...%4.......3...
33A0: 82 80 01 25 34 02 16 00  18 80 80 B5 33 03 0D 00  ...%4.......3...
33B0: 53 80 01 25 34 02 16 00  1A 80 80 C5 33 03 0D 00  S..%4.......3...
33C0: BB 80 01 25 34 02 16 00  1C 80 80 D5 33 03 0D 00  ...%4.......3...
33D0: BC 80 01 25 34 02 16 00  1E 80 80 E5 33 03 0D 00  ...%4.......3...
33E0: 2B 80 01 25 34 02 16 00  20 80 80 F5 33 03 0D 00  +..%4... ...3...
33F0: BD 80 01 25 34 02 16 00  12 80 80 05 34 03 0D 00  ...%4.......4...
3400: 1E 80 01 25 34 02 16 00  23 80 80 15 34 03 0D 00  ...%4...#...4...
3410: 56 80 01 25 34 02 16 00  25 80 80 25 34 03 0D 00  V..%4...%..%4...
3420: BE 80 01 25 34 01 80 39  02 08 00 1E 80 80 D3 34  ...%4..9.......4
3430: 02 16 00 02 80 80 40 34  03 0D 00 02 80 01 D0 34  ......@4.......4
3440: 02 16 00 16 80 80 50 34  03 0D 00 0E 80 01 D0 34  ......P4.......4
3450: 02 16 00 18 80 80 60 34  03 0D 00 AE 80 01 D0 34  ......`4.......4
3460: 02 16 00 1A 80 80 70 34  03 0D 00 BF 80 01 D0 34  ......p4.......4
3470: 02 16 00 1C 80 80 80 34  03 0D 00 03 80 01 D0 34  .......4.......4
3480: 02 16 00 1E 80 80 90 34  03 0D 00 54 80 01 D0 34  .......4...T...4
3490: 02 16 00 20 80 80 A0 34  03 0D 00 1E 80 01 D0 34  ... ...4.......4
34A0: 02 16 00 12 80 80 B0 34  03 0D 00 13 80 01 D0 34  .......4.......4
34B0: 02 16 00 23 80 80 C0 34  03 0D 00 C0 80 01 D0 34  ...#...4.......4
34C0: 02 16 00 25 80 80 D0 34  03 0D 00 BA 80 01 D0 34  ...%...4.......4
34D0: 01 80 39 02 08 00 20 80  80 7E 35 02 16 00 02 80  ..9... ..~5.....
34E0: 80 EB 34 03 0D 00 02 80  01 7B 35 02 16 00 16 80  ..4......{5.....
34F0: 80 FB 34 03 0D 00 C1 80  01 7B 35 02 16 00 18 80  ..4......{5.....
3500: 80 0B 35 03 0D 00 0C 80  01 7B 35 02 16 00 1A 80  ..5......{5.....
3510: 80 1B 35 03 0D 00 B2 80  01 7B 35 02 16 00 1C 80  ..5......{5.....
3520: 80 2B 35 03 0D 00 C2 80  01 7B 35 02 16 00 1E 80  .+5......{5.....
3530: 80 3B 35 03 0D 00 BF 80  01 7B 35 02 16 00 20 80  .;5......{5... .
3540: 80 4B 35 03 0D 00 C3 80  01 7B 35 02 16 00 12 80  .K5......{5.....
3550: 80 5B 35 03 0D 00 53 80  01 7B 35 02 16 00 23 80  .[5...S..{5...#.
3560: 80 6B 35 03 0D 00 1C 80  01 7B 35 02 16 00 25 80  .k5......{5...%.
3570: 80 7B 35 03 0D 00 BE 80  01 7B 35 01 80 39 02 08  .{5......{5..9..
3580: 00 12 80 80 29 36 02 16  00 02 80 80 96 35 03 0D  ....)6.......5..
3590: 00 02 80 01 26 36 02 16  00 16 80 80 A6 35 03 0D  ....&6.......5..
35A0: 00 C4 80 01 26 36 02 16  00 18 80 80 B6 35 03 0D  ....&6.......5..
35B0: 00 03 80 01 26 36 02 16  00 1A 80 80 C6 35 03 0D  ....&6.......5..
35C0: 00 0E 80 01 26 36 02 16  00 1C 80 80 D6 35 03 0D  ....&6.......5..
35D0: 00 BB 80 01 26 36 02 16  00 1E 80 80 E6 35 03 0D  ....&6.......5..
35E0: 00 13 80 01 26 36 02 16  00 20 80 80 F6 35 03 0D  ....&6... ...5..
35F0: 00 AE 80 01 26 36 02 16  00 12 80 80 06 36 03 0D  ....&6.......6..
3600: 00 0C 80 01 26 36 02 16  00 23 80 80 16 36 03 0D  ....&6...#...6..
3610: 00 C5 80 01 26 36 02 16  00 25 80 80 26 36 03 0D  ....&6...%..&6..
3620: 00 BA 80 01 26 36 01 80  39 02 08 00 23 80 80 D4  ....&6..9...#...
3630: 36 02 16 00 02 80 80 41  36 03 0D 00 02 80 01 D1  6......A6.......
3640: 36 02 16 00 16 80 80 51  36 03 0D 00 C6 80 01 D1  6......Q6.......
3650: 36 02 16 00 18 80 80 61  36 03 0D 00 0A 80 01 D1  6......a6.......
3660: 36 02 16 00 1A 80 80 71  36 03 0D 00 53 80 01 D1  6......q6...S...
3670: 36 02 16 00 1C 80 80 81  36 03 0D 00 AE 80 01 D1  6.......6.......
3680: 36 02 16 00 1E 80 80 91  36 03 0D 00 0E 80 01 D1  6.......6.......
3690: 36 02 16 00 20 80 80 A1  36 03 0D 00 BB 80 01 D1  6... ...6.......
36A0: 36 02 16 00 12 80 80 B1  36 03 0D 00 12 80 01 D1  6.......6.......
36B0: 36 02 16 00 23 80 80 C1  36 03 0D 00 03 80 01 D1  6...#...6.......
36C0: 36 02 16 00 25 80 80 D1  36 03 0D 00 B5 80 01 D1  6...%...6.......
36D0: 36 01 80 39 02 08 00 25  80 80 7F 37 02 16 00 02  6..9...%...7....
36E0: 80 80 EC 36 03 0D 00 02  80 01 7C 37 02 16 00 16  ...6......|7....
36F0: 80 80 FC 36 03 0D 00 0A  80 01 7C 37 02 16 00 18  ...6......|7....
3700: 80 80 0C 37 03 0D 00 82  80 01 7C 37 02 16 00 1A  ...7......|7....
3710: 80 80 1C 37 03 0D 00 BC  80 01 7C 37 02 16 00 1C  ...7......|7....
3720: 80 80 2C 37 03 0D 00 53  80 01 7C 37 02 16 00 1E  ..,7...S..|7....
3730: 80 80 3C 37 03 0D 00 BB  80 01 7C 37 02 16 00 20  ..<7......|7... 
3740: 80 80 4C 37 03 0D 00 C7  80 01 7C 37 02 16 00 12  ..L7......|7....
3750: 80 80 5C 37 03 0D 00 2B  80 01 7C 37 02 16 00 23  ..\7...+..|7...#
3760: 80 80 6C 37 03 0D 00 C8  80 01 7C 37 02 16 00 25  ..l7......|7...%
3770: 80 80 7C 37 03 0D 00 BE  80 01 7C 37 01 80 39 02  ..|7......|7..9.
3780: 08 00 27 80 80 2A 38 02  16 00 02 80 80 97 37 03  ..'..*8.......7.
3790: 0D 00 02 80 01 27 38 02  16 00 16 80 80 A7 37 03  .....'8.......7.
37A0: 0D 00 20 80 01 27 38 02  16 00 18 80 80 B7 37 03  .. ..'8.......7.
37B0: 0D 00 C1 80 01 27 38 02  16 00 1A 80 80 C7 37 03  .....'8.......7.
37C0: 0D 00 BB 80 01 27 38 02  16 00 1C 80 80 D7 37 03  .....'8.......7.
37D0: 0D 00 AE 80 01 27 38 02  16 00 1E 80 80 E7 37 03  .....'8.......7.
37E0: 0D 00 1C 80 01 27 38 02  16 00 20 80 80 F7 37 03  .....'8... ...7.
