# 17727555 - Teilsa

## Common Data

| Field            | Value                     |
|------------------|---------------------------|
| Zone             | Port San d'Oria (ID: 232) |
| Block Size       | 8428 bytes                |
| Total Events     | 5                         |
| References Count | 233                       |

## List of Events

| Event ID              | Entrypoint   |   Size |   Instructions |
|-----------------------|--------------|--------|----------------|
| [65535](#event-65535) | 0x0000       |      1 |              1 |
| [573](#event-573)     | 0x0001       |     43 |             13 |
| [612](#event-612)     | 0x002C       |     82 |             20 |
| [500](#event-500)     | 0x007E       |      1 |              1 |
| [810](#event-810)     | 0x007F       |   7331 |           2040 |

## DAT References (imed_data)

|   Index | Hex Value   |   Dec Value |
|---------|-------------|-------------|
|       0 | 0x001E      |          30 |
|       1 | 0x1EBB      |        7867 |
|       2 | 0x1EBC      |        7868 |
|       3 | 0x1EBD      |        7869 |
|       4 | 0x0218      |         536 |
|       5 | 0x1EBE      |        7870 |
|       6 | 0x2BD0      |       11216 |
|       7 | 0x0000      |           0 |
|       8 | 0x0001      |           1 |
|       9 | 0x0019      |          25 |
|      10 | 0x0002      |           2 |
|      11 | 0x001A      |          26 |
|      12 | 0x0004      |           4 |
|      13 | 0x0005      |           5 |
|      14 | 0x0008      |           8 |
|      15 | 0x0009      |           9 |
|      16 | 0x000C      |          12 |
|      17 | 0x000D      |          13 |
|      18 | 0x0010      |          16 |
|      19 | 0x0006      |           6 |
|      20 | 0x000B      |          11 |
|      21 | 0x0011      |          17 |
|      22 | 0x0012      |          18 |
|      23 | 0x0017      |          23 |
|      24 | 0x0018      |          24 |
|      25 | 0x001D      |          29 |
|      26 | 0x0200      |         512 |
|      27 | 0x2E2B      |       11819 |
|      28 | 0x2E45      |       11845 |
|      29 | 0xFFFFFFFF  |  4294967295 |
|      30 | 0x0003      |           3 |
|      31 | 0x2E46      |       11846 |
|      32 | 0x2E50      |       11856 |
|      33 | 0x000A      |          10 |
|      34 | 0x2E54      |       11860 |
|      35 | 0x2E58      |       11864 |
|      36 | 0x2E5C      |       11868 |
|      37 | 0x2E60      |       11872 |
|      38 | 0x2E64      |       11876 |
|      39 | 0x2E68      |       11880 |
|      40 | 0x2E6C      |       11884 |
|      41 | 0x0007      |           7 |
|      42 | 0x2E70      |       11888 |
|      43 | 0x2E74      |       11892 |
|      44 | 0x2E78      |       11896 |
|      45 | 0x2E7C      |       11900 |
|      46 | 0x2E47      |       11847 |
|      47 | 0x2E48      |       11848 |
|      48 | 0x00E6      |         230 |
|      49 | 0xFFFE14F3  |  4294841587 |
|      50 | 0x39D5      |       14805 |
|      51 | 0x2E4C      |       11852 |
|      52 | 0x11107     |       69895 |
|      53 | 0xA071      |       41073 |
|      54 | 0xFFFDD980  |  4294826368 |
|      55 | 0x877C      |       34684 |
|      56 | 0x29695     |      169621 |
|      57 | 0xAFAE      |       44974 |
|      58 | 0xFFFD61A6  |  4294795686 |
|      59 | 0x2F9B      |       12187 |
|      60 | 0x13EC3     |       81603 |
|      61 | 0x1C0E2     |      114914 |
|      62 | 0x1C720     |      116512 |
|      63 | 0x14AC7     |       84679 |
|      64 | 0x1E1F4     |      123380 |
|      65 | 0x14AC1     |       84673 |
|      66 | 0x19ABB     |      105147 |
|      67 | 0xFFFFBEA1  |  4294950561 |
|      68 | 0xFFFD41F2  |  4294787570 |
|      69 | 0x6BB6      |       27574 |
|      70 | 0x1E36A     |      123754 |
|      71 | 0x167DD     |       92125 |
|      72 | 0xFFFDE3A4  |  4294828964 |
|      73 | 0x100E0     |       65760 |
|      74 | 0x000E      |          14 |
|      75 | 0x000F      |          15 |
|      76 | 0x105A8     |       66984 |
|      77 | 0x1002B     |       65579 |
|      78 | 0xFFFD1D97  |  4294778263 |
|      79 | 0x18352     |       99154 |
|      80 | 0x147D4     |       83924 |
|      81 | 0x1AFCC     |      110540 |
|      82 | 0x265C5     |      157125 |
|      83 | 0x49C8      |       18888 |
|      84 | 0x0013      |          19 |
|      85 | 0xFFFDDDE1  |  4294827489 |
|      86 | 0xFFFFDA3C  |  4294957628 |
|      87 | 0x0014      |          20 |
|      88 | 0x0015      |          21 |
|      89 | 0x0016      |          22 |
|      90 | 0xFFFFBCFE  |  4294950142 |
|      91 | 0x2FAB      |       12203 |
|      92 | 0xFFFEB671  |  4294882929 |
|      93 | 0x1640C     |       91148 |
|      94 | 0xFFFE7E76  |  4294868598 |
|      95 | 0x7D38      |       32056 |
|      96 | 0x17495     |       95381 |
|      97 | 0x1BBC1     |      113601 |
|      98 | 0x001B      |          27 |
|      99 | 0x001C      |          28 |
|     100 | 0xFFFFC0BE  |  4294951102 |
|     101 | 0x2E1D      |       11805 |
|     102 | 0x2E49      |       11849 |
|     103 | 0x00E7      |         231 |
|     104 | 0x1BD96     |      114070 |
|     105 | 0x1AA9F     |      109215 |
|     106 | 0x14E2      |        5346 |
|     107 | 0x6913      |       26899 |
|     108 | 0xFFFDE34C  |  4294828876 |
|     109 | 0xD794      |       55188 |
|     110 | 0x1F703     |      128771 |
|     111 | 0x1CF0A     |      118538 |
|     112 | 0xFFFD8AB7  |  4294806199 |
|     113 | 0x217B4     |      137140 |
|     114 | 0xFFFE1EFF  |  4294844159 |
|     115 | 0x13A4E     |       80462 |
|     116 | 0xFFFD323A  |  4294783546 |
|     117 | 0x3E71A     |      255770 |
|     118 | 0xFFFC6746  |  4294731590 |
|     119 | 0x19E1B     |      106011 |
|     120 | 0x2E4D      |       11853 |
|     121 | 0x21D91     |      138641 |
|     122 | 0x2029A     |      131738 |
|     123 | 0x16B67     |       93031 |
|     124 | 0x1CEDF     |      118495 |
|     125 | 0x892E      |       35118 |
|     126 | 0xEBC2      |       60354 |
|     127 | 0x18131     |       98609 |
|     128 | 0x1BDDD     |      114141 |
|     129 | 0x1F556     |      128342 |
|     130 | 0x175FB     |       95739 |
|     131 | 0xFFFDE892  |  4294830226 |
|     132 | 0x2783F     |      161855 |
|     133 | 0xFFFE804E  |  4294869070 |
|     134 | 0x10EB5     |       69301 |
|     135 | 0xFFFD2373  |  4294779763 |
|     136 | 0x1AE19     |      110105 |
|     137 | 0xFFFDA4D1  |  4294812881 |
|     138 | 0x25890     |      153744 |
|     139 | 0xFFFD1F0E  |  4294778638 |
|     140 | 0x1AADB     |      109275 |
|     141 | 0x1F746     |      128838 |
|     142 | 0x1F552     |      128338 |
|     143 | 0xFFFD6B59  |  4294798169 |
|     144 | 0x26BD5     |      158677 |
|     145 | 0x2E4A      |       11850 |
|     146 | 0x00E8      |         232 |
|     147 | 0x530F      |       21263 |
|     148 | 0xFFFEFF10  |  4294901520 |
|     149 | 0xFFFEF6F5  |  4294899445 |
|     150 | 0xFFFF6754  |  4294928212 |
|     151 | 0xFFFFD677  |  4294956663 |
|     152 | 0xFFFE22A9  |  4294845097 |
|     153 | 0x10ACD     |       68301 |
|     154 | 0xFFFEE004  |  4294893572 |
|     155 | 0xFFFFC694  |  4294952596 |
|     156 | 0xFFFF5515  |  4294923541 |
|     157 | 0xFFFFBCBF  |  4294950079 |
|     158 | 0xFFFF54EB  |  4294923499 |
|     159 | 0xFFFEEC8B  |  4294896779 |
|     160 | 0xFFFF7FCB  |  4294934475 |
|     161 | 0xFFFEE8D7  |  4294895831 |
|     162 | 0xFFFF5F87  |  4294926215 |
|     163 | 0xFFFFF9BA  |  4294965690 |
|     164 | 0xFFFDBA3E  |  4294818366 |
|     165 | 0xFFFFAA11  |  4294945297 |
|     166 | 0xFFFE5E83  |  4294860419 |
|     167 | 0xFFFFFC96  |  4294966422 |
|     168 | 0xFFFE27AE  |  4294846382 |
|     169 | 0xFFFFEBA7  |  4294962087 |
|     170 | 0x9B99      |       39833 |
|     171 | 0x0028      |          40 |
|     172 | 0x2E4B      |       11851 |
|     173 | 0x00E9      |         233 |
|     174 | 0x0974      |        2420 |
|     175 | 0x07AE      |        1966 |
|     176 | 0x71DF      |       29151 |
|     177 | 0xFFFFFC74  |  4294966388 |
|     178 | 0xFFFE61F2  |  4294861298 |
|     179 | 0x11A29     |       72233 |
|     180 | 0xFFFF6B90  |  4294929296 |
|     181 | 0x126B4     |       75444 |
|     182 | 0xFFFF8717  |  4294936343 |
|     183 | 0xFFFFDF3E  |  4294958910 |
|     184 | 0xFFFF6B93  |  4294929299 |
|     185 | 0x6F80      |       28544 |
|     186 | 0x2E30      |       11824 |
|     187 | 0x2E31      |       11825 |
|     188 | 0xFFFE6209  |  4294861321 |
|     189 | 0xFFFE025A  |  4294836826 |
|     190 | 0x2E33      |       11827 |
|     191 | 0x005A      |          90 |
|     192 | 0x0050      |          80 |
|     193 | 0xFFFF918B  |  4294939019 |
|     194 | 0x2E34      |       11828 |
|     195 | 0xFFFE965E  |  4294874718 |
|     196 | 0xFFFF1F31  |  4294909745 |
|     197 | 0x2E35      |       11829 |
|     198 | 0x2E36      |       11830 |
|     199 | 0x2E37      |       11831 |
|     200 | 0x2E38      |       11832 |
|     201 | 0x2E39      |       11833 |
|     202 | 0x2E3A      |       11834 |
|     203 | 0x2E3B      |       11835 |
|     204 | 0xFFFEB2E2  |  4294882018 |
|     205 | 0xFFFF39EC  |  4294916588 |
|     206 | 0x2E3C      |       11836 |
|     207 | 0x2E3D      |       11837 |
|     208 | 0x2E3E      |       11838 |
|     209 | 0x2E3F      |       11839 |
|     210 | 0x2E2C      |       11820 |
|     211 | 0x2E41      |       11841 |
|     212 | 0x2E40      |       11840 |
|     213 | 0xFFFEB978  |  4294883704 |
|     214 | 0xFFFE7649  |  4294866505 |
|     215 | 0x2E7E      |       11902 |
|     216 | 0x248C0     |      149696 |
|     217 | 0x2504F     |      151631 |
|     218 | 0x2E7F      |       11903 |
|     219 | 0xFFFFFFFB  |  4294967291 |
|     220 | 0x2E80      |       11904 |
|     221 | 0x2E81      |       11905 |
|     222 | 0x2E82      |       11906 |
|     223 | 0x2E83      |       11907 |
|     224 | 0x2E84      |       11908 |
|     225 | 0x2E85      |       11909 |
|     226 | 0x2E86      |       11910 |
|     227 | 0x2E87      |       11911 |
|     228 | 0x2E88      |       11912 |
|     229 | 0x2E42      |       11842 |
|     230 | 0x2E43      |       11843 |
|     231 | 0x2E44      |       11844 |
|     232 | 0x2E2F      |       11823 |

## String References

- **7867**: Are you confident in your faith? Somewhere out there lies the gate to eternal paradise.
- **7868**: We are children of the Goddess of the Dawn. She is the mother of all living things, and Vana'diel is her cradle.
- **7869**: I am Teilsa, one of the faithful. Ever do I seek the way to Paradise.
- **7870**: If you lose your way, choose "Map" from your main menu. Here, let me give you this in exchange for your $0.
- **11216**: By the Westgate in Southern San d'Oria is a woman named Alaune. Speak with her, for she has knowledge that will surely aid your aspirations as an adventurer.
- **11819**: Inquire about what? [I want to find some quests!/I want to try the tutorial event!/Teach me about Records of Eminence!/Teach me about the Trust initiative!/I want a map of the area I'm in!/I want maps of the whole city!/How do I give items to people?/How do I fight outside town?/What are quests and missions?/Tell me more about Southern San d'Oria!/I have other questions./Nothing for now.]
- **11820**: I can mark the locations of important people on your map of the San d'Oria area, should you require it.
- **11823**: There are people willing to sell you maps in both Northern and Southern San d'Oria, but the vendor in Northern San d'Oria is closer...if you are in a hurry.
- **11824**: Our kingdom has prepared a special tour of duty for newly enlisted troops such as you. Hopefully you make the best of it.
- **11825**: To begin the journey, simply talk to Alaune in Southern San d'Oria. She resides near the gate to West Ronfaure.
- **11827**: To rendezvous with her, ascend the stairs that lead southwest, which should take you to Northern San d'Oria.
- **11828**: Once there, proceed southward until you reach Southern San d'Oria.
- **11829**: I shall mark her position upon your map so you may locate her more easily once you are in that vicinity.
- **11830**: It is possible to check who has been marked on your map by opening the "Map" menu, selecting the "Markers" option, and then scrolling to the right.
- **11831**: Performing a "Wide Scan" from the "Map" menu also allows you to locate people in your vicinity, should that method prove more convenient.
- **11832**: Whether decorated in battle or recently enlisted, all can benefit from trying their hand at Records of Eminence. It is a simple method for participating in Vana'diel's many adventures, and bestows rewards all its own.
- **11833**: Open the main menu, go right to get to the next screen, and select "Objective List" under the "Quests" submenu.
- **11834**: Select "Tutorial," head to "Basics," and accept the objective "First Step Forward" to get started down this magnificent road.
- **11835**: Permit me to provide you with a hint for completing "First Step Forward."
- **11836**: Find the person designated by the objective in Southern San d'Oria. I shall mark their location on your map.
- **11837**: Records of Eminence contains a plethora of objectives, many of which will surely fit your play style. It would behoove you to take advantage of this opportunity.
- **11838**: The Trust initiative is a special magic regimen developed by one of the world's finest academies of magic.
- **11839**: Those who successfully undergo training will be bestowed with the ability to call forth powerful allies into battle.
- **11840**: Only adventurers who have proven their worth by achieving level five are eligible to participate. I will provide you with further information when you reach that landmark.
- **11841**: Gondebaud is their representative, and he is stationed in Southern San d'Oria. I shall mark his location on your map should you desire to make further inquiries.
- **11842**: If you harbor doubts about something I have not yet touched upon, first open the main menu. From there, scroll right to the second page and select the "Help Desk" option.
- **11843**: Once you have done that, select "Help Desk" again from the list of categories that appears in the new window. Finally, enter the section entitled "I need help with the game controls."
- **11844**: The answer to your question likely lies there.
- **11845**: Though I wish the situation were less dire, there exist many who require your aid. Do you wish to reference the materials I have gathered on them?
- **11846**: Inquire about which locale? [None./Southern San d'Oria: $1 individual[/s]./Northern San d'Oria: $2 individual[/s]./Port San d'Oria: $3 individual[/s]./Chateau d'Oraguille: $4 individual[/s].]
- **11847**: The following individuals are likely to request your assistance if you are to speak to them.
- **11848**: Who will you go see in Southern San d'Oria? [No one./Glenne./Rosel./Raimbroy./Andecia./Parvipon./Legata./Amutiyaal./Atelloune./Maugie./Hanaa Punaa./Gondebaud./Balasiel./Balasiel./Hanaa Punaa./Helbort./Sobane./Norejaie./Paouala./Taumila./Hanaa Punaa./Balasiel./Femitte./Amaura./Deraquien./Sobane./Sharzalion./Balasiel./Rouva.]
- **11849**: Who will you go see in Northern San d'Oria? [No one./Miageau./Ailbeche./Abeaule./Abioleget./Secodiand./Kuu Mohzolhi./Ramua./Someone atop the tower./Pagisalis./Someone atop the tower./Olbergieut./Abeaule./Maloquedil./Someone atop the tower./Morjean./Eperdur./Eperdur./Vamorcote./Belgidiveau./Gulmama./Rondipur./Castilchat./Narcheral./Ailbeche./Ailbeche./Miaux.]
- **11850**: $3A$3$3g$3m[(Antreneau) Who will you go see in Port San d'Oria? [No one./Altiret./Gulemont./Fontoumant./Regine./Gallijaux./Joulet./Nogelle./Antreneau./Vounebariont./Portaure./Antreneau./Ceraulian./Eddy.]
- **11851**: Who will you go see in Chateau d'Oraguille? [No one./Halver./Curilla./Chalvatot./Curilla./Curilla./Someone beyond the door./Rahal./Curilla./Someone beyond the door./Someone beyond the door.]
- **11852**: Allow me to make things easier for you and mark their location on your map.
- **11853**: Heading there, are we? Allow me to mark your map so you do not lose your way.
- **11856**: I have saved a rather paramount detail for last. Allow me to explain.
- **11860**: You may teleport between these crystalline nodes called "home points" for efficient travel. Be sure to examine any you stumble upon.
- **11864**: Remember to purchase a map from the appropriate vendor before going to a faraway land. If you do, you can check your location within that place.
- **11868**: I advise you to put any unwanted goods up for sale at the auction house rather than be taken advantage of by the vendors here.
- **11872**: The undead often assault adventurers with low HP, which is all the more reason to never let your guard down in the wilderness.
- **11876**: Increasing your strength (STR) enhances your attack power, but--regrettably--does nothing for your magic attack.
- **11880**: Increasing your dexterity (DEX) improves such faculties as accuracy and critical hit rate.
- **11884**: Increasing your vitality (VIT) improves such faculties as physical defense and the potency of restorative abilities like Cure.
- **11888**: Increasing your agility (AGI) improves such faculties as physical evasion and ranged accuracy. It also reduces enemies' critical hit evasion.
- **11892**: Increasing your intelligence (INT) improves such faculties as the accuracy and damage of your elemental magic spells.
- **11896**: Mind (MND) improves such faculties as the potency of healing spells and the accuracy of white magic spells.
- **11900**: Charisma (CHR) improves such faculties as the effectiveness of the beastmaster ability "charm" and the accuracy of bards' songs.
- **11902**: Look as long as you desire. I shall not interfere.
- **11903**: Rumoie in Southern San d'Oria also fancies herself something of a cartographer. You can always go to her if you want your map marked.
- **11904**: The action of handing over objects to others is termed "trading" here. To trade items to people, open the main menu--which will appear on the right-hand side of your screen--and select "Trade."
- **11905**: In the event you have neglected to target your interlocutor, please do so after selecting the "Trade" option. Afterwards, choose the item or items you wish to bequeath in the window that appears and hit "OK."
- **11906**: This process will be an integral part of the quests and missions you shall undertake in the future, so I entreat you to commit it to memory.
- **11907**: Should you be in possession of $6, please trade it to me. In return, I shall bestow some monetary remunerations upon you, care of the monarchy.
- **11908**: It would behoove you to remember the following points when engaging in combat outside the city gates. One: outfit yourself with weapons and armor. Two: magic spells are learned from scrolls.
- **11909**: Thirdly--and of the utmost import--is that you "check" your adversaries before challenging them. It would not do for you to go charging into battle against an enemy who thoroughly outclasses you.
- **11910**: Finally, never forget to check your spoils of war.
- **11911**: Tasks issued by residents of the city for you to complete are called "quests." Simply fulfill the requirements, such as procuring the desired item, to receive a reward.
- **11912**: On the other hand, orders handed down directly from those involved with the nation's administration are called "missions." Converse with the guard by the gate for a more detailed explanation.

## Events

### Event 65535

#### Metadata

| Field        | Value   |
|--------------|---------|
| Entrypoint   | 0x0000  |
| Data Size    | 1 bytes |
| Instructions | 1       |

```
      00 01 02 03 04 05 06 07  08 09 0A 0B 0C 0D 0E 0F
      -- -- -- -- -- -- -- --  -- -- -- -- -- -- -- --
0000: 00                                                .               
```

#### Opcodes

```
  0: 0x0000 [0x00] END_REQSTACK()
```

### Event 573

#### Metadata

| Field        | Value    |
|--------------|----------|
| Entrypoint   | 0x0001   |
| Data Size    | 43 bytes |
| Instructions | 13       |

```
      00 01 02 03 04 05 06 07  08 09 0A 0B 0C 0D 0E 0F
      -- -- -- -- -- -- -- --  -- -- -- -- -- -- -- --
0000:    1E F0 FF FF 7F 6F 70  66 00 80 F8 FF FF 7F F8   .....opf.......
0010: FF FF 7F 74 6C 6B 30 1D  01 80 23 1C 00 80 1D 02  ...tlk0...#.....
0020: 80 23 5E 69 64 6C 30 1C  00 80 21 00              .#^idl0...!.    
```

#### Opcodes

```
  0: 0x0001 [0x1E] EventEntity looks at LocalPlayer and starts talking
  1: 0x0006 [0x6F] WAIT_FRAME_DELAY: Yield until WaitTime reaches zero
  2: 0x0007 [0x70] WAIT_ENTITY_RENDER_FLAG: Wait while EventEntity->Render.Flags3 bit 2 is set (cancel turn if not)
  3: 0x0008 [0x66] LOAD_EXT_SCHEDULER_MAIN: Load scheduler "tlk0" with entities [EventEntity, EventEntity], work=30*
  4: 0x0017 [0x1D] PRINT_EVENT_MESSAGE(message_id=7867*)
    → "Are you confident in your faith? Somewhere out there lies the gate to eternal paradise."
  5: 0x001A [0x23] WAIT_FOR_DIALOG_INTERACTION
  6: 0x001B [0x1C] WAIT(30* ticks)
  7: 0x001E [0x1D] PRINT_EVENT_MESSAGE(message_id=7868*)
    → "We are children of the Goddess of the Dawn. She is the mother of all living things, and Vana'diel is her cradle."
  8: 0x0021 [0x23] WAIT_FOR_DIALOG_INTERACTION
  9: 0x0022 [0x5E] EventEntity goes idle (kills current action) (animation: "idl0")
 10: 0x0027 [0x1C] WAIT(30* ticks)
 11: 0x002A [0x21] END_EVENT
 12: 0x002B [0x00] END_REQSTACK()
```

### Event 612

#### Metadata

| Field        | Value    |
|--------------|----------|
| Entrypoint   | 0x002C   |
| Data Size    | 82 bytes |
| Instructions | 20       |

```
      00 01 02 03 04 05 06 07  08 09 0A 0B 0C 0D 0E 0F
      -- -- -- -- -- -- -- --  -- -- -- -- -- -- -- --
0020:                                      42 20 01 1E              B ..
0030: F0 FF FF 7F 6F 70 66 00  80 F8 FF FF 7F F8 FF FF  ....opf.........
0040: 7F 74 6C 6B 30 1D 03 80  23 5E 69 64 6C 30 1C 00  .tlk0...#^idl0..
0050: 80 66 00 80 F8 FF FF 7F  F8 FF FF 7F 70 61 73 30  .f..........pas0
0060: 03 02 10 04 80 1D 05 80  23 53 F8 FF FF 7F F8 FF  ........#S......
0070: FF 7F 70 61 73 30 1D 06  80 23 20 00 21 00        ..pas0...# .!.  
```

#### Opcodes

```
  0: 0x002C [0x42] SET_CLI_EVENT_CANCEL_DATA()
  1: 0x002D [0x20] SET_CLI_EVENT_UC_FLAG: Lock player control
  2: 0x002F [0x1E] EventEntity looks at LocalPlayer and starts talking
  3: 0x0034 [0x6F] WAIT_FRAME_DELAY: Yield until WaitTime reaches zero
  4: 0x0035 [0x70] WAIT_ENTITY_RENDER_FLAG: Wait while EventEntity->Render.Flags3 bit 2 is set (cancel turn if not)
  5: 0x0036 [0x66] LOAD_EXT_SCHEDULER_MAIN: Load scheduler "tlk0" with entities [EventEntity, EventEntity], work=30*
  6: 0x0045 [0x1D] PRINT_EVENT_MESSAGE(message_id=7869*)
    → "I am Teilsa, one of the faithful. Ever do I seek the way to Paradise."
  7: 0x0048 [0x23] WAIT_FOR_DIALOG_INTERACTION
  8: 0x0049 [0x5E] EventEntity goes idle (kills current action) (animation: "idl0")
  9: 0x004E [0x1C] WAIT(30* ticks)
 10: 0x0051 [0x66] LOAD_EXT_SCHEDULER_MAIN: Load scheduler "pas0" with entities [EventEntity, EventEntity], work=30*
 11: 0x0060 [0x03] Work_Zone[2] = 536*
 12: 0x0065 [0x1D] PRINT_EVENT_MESSAGE(message_id=7870*)
    → "If you lose your way, choose "Map" from your main menu. Here, let me give you this in exchange for your $0."
 13: 0x0068 [0x23] WAIT_FOR_DIALOG_INTERACTION
 14: 0x0069 [0x53] WAIT_SCHEDULER_TASK: Wait for scheduler "pas0" with entities [EventEntity, EventEntity]
 15: 0x0076 [0x1D] PRINT_EVENT_MESSAGE(message_id=11216*)
    → "By the Westgate in Southern San d'Oria is a woman named Alaune. Speak with her, for she has knowledge that will surely aid your aspirations as an adventurer."
 16: 0x0079 [0x23] WAIT_FOR_DIALOG_INTERACTION
 17: 0x007A [0x20] SET_CLI_EVENT_UC_FLAG: Unlock player control
 18: 0x007C [0x21] END_EVENT
 19: 0x007D [0x00] END_REQSTACK()
```

### Event 500

#### Metadata

| Field        | Value   |
|--------------|---------|
| Entrypoint   | 0x007E  |
| Data Size    | 1 bytes |
| Instructions | 1       |

```
      00 01 02 03 04 05 06 07  08 09 0A 0B 0C 0D 0E 0F
      -- -- -- -- -- -- -- --  -- -- -- -- -- -- -- --
0070:                                            00                   . 
```

#### Opcodes

```
  0: 0x007E [0x00] END_REQSTACK()
```

### Event 810

#### Metadata

| Field        | Value      |
|--------------|------------|
| Entrypoint   | 0x007F     |
| Data Size    | 7331 bytes |
| Instructions | 293        |

```
      00 01 02 03 04 05 06 07  08 09 0A 0B 0C 0D 0E 0F
      -- -- -- -- -- -- -- --  -- -- -- -- -- -- -- --
0070:                                               03                 .
0080: 00 00 03 10 03 01 00 04  10 03 02 00 05 10 03 03  ................
0090: 00 06 10 03 04 00 07 10  03 05 00 08 10 3E 09 10  .............>..
00A0: 07 80 AC 00 03 06 00 07  80 01 B1 00 03 06 00 08  ................
00B0: 80 3E 09 10 09 80 C0 00  03 10 00 0A 80 01 D4 00  .>..............
00C0: 3E 09 10 0B 80 CF 00 03  10 00 08 80 01 D4 00 03  >...............
00D0: 10 00 07 80 41 08 80 0C  80 09 10 07 00 41 0D 80  ....A........A..
00E0: 0E 80 09 10 08 00 41 0F  80 10 80 09 10 09 00 41  ......A........A
00F0: 11 80 12 80 09 10 0A 00  02 07 00 07 80 00 05 01  ................
0100: 03 07 00 08 80 02 08 00  07 80 00 12 01 03 08 00  ................
0110: 08 80 02 09 00 07 80 00  1F 01 03 09 00 08 80 02  ................
0120: 0A 00 07 80 00 2C 01 03  0A 00 08 80 41 07 80 0D  .....,......A...
0130: 80 05 00 03 10 41 13 80  14 80 05 00 04 10 41 10  .....A........A.
0140: 80 15 80 05 00 05 10 41  16 80 17 80 05 00 06 10  .......A........
0150: 41 18 80 19 80 05 00 07  10 03 0F 00 07 80 1E F0  A...............
0160: FF FF 7F 1D 03 80 23 03  0F 00 1A 80 03 09 10 08  ......#.........
0170: 80 03 0E 00 07 80 02 0E  00 07 80 00 E9 1C 2E 24  ...............$
0180: 1B 80 07 80 0F 00 25 02  00 10 07 80 00 AB 18 02  ......%.........
0190: 06 00 08 80 00 9D 01 1A  F2 1C 01 A4 18 1D 1C 80  ................
01A0: 23 02 00 00 1D 80 00 B5  01 03 03 10 07 80 3D 00  #.............=.
01B0: 00 07 80 08 80 02 01 00  1D 80 00 C9 01 03 04 10  ................
01C0: 07 80 3D 01 00 07 80 08  80 02 02 00 1D 80 00 DD  ..=.............
01D0: 01 03 05 10 07 80 3D 02  00 07 80 08 80 02 03 00  ......=.........
01E0: 1D 80 00 F1 01 03 06 10  07 80 3D 03 00 07 80 08  ..........=.....
01F0: 80 03 0C 00 08 80 02 0C  00 07 80 02 A4 18 41 07  ..............A.
0200: 80 0D 80 05 00 03 10 41  13 80 14 80 05 00 04 10  .......A........
0210: 41 10 80 15 80 05 00 05  10 41 16 80 17 80 05 00  A........A......
0220: 06 10 41 18 80 19 80 05  00 07 10 03 02 10 07 80  ..A.............
0230: 02 03 10 07 80 00 3F 02  3C 02 10 08 80 08 80 02  ......?.<.......
0240: 04 10 07 80 00 4E 02 3C  02 10 0A 80 08 80 02 05  .....N.<........
0250: 10 07 80 00 5D 02 3C 02  10 1E 80 08 80 02 06 10  ....].<.........
0260: 07 80 00 6C 02 3C 02 10  0C 80 08 80 02 07 10 07  ...l.<..........
0270: 80 00 7B 02 3C 02 10 0D  80 08 80 2E 24 1F 80 07  ..{.<.......$...
0280: 80 02 10 25 02 00 10 07  80 00 42 03 06 0C 00 03  ...%......B.....
0290: 09 10 07 80 1D 20 80 23  13 0D 00 21 80 02 0D 00  ..... .#...!....
02A0: 07 80 00 AC 02 1D 22 80  23 01 3F 03 02 0D 00 08  ......".#.?.....
02B0: 80 00 BB 02 1D 23 80 23  01 3F 03 02 0D 00 0A 80  .....#.#.?......
02C0: 00 CA 02 1D 24 80 23 01  3F 03 02 0D 00 1E 80 00  ....$.#.?.......
02D0: D9 02 1D 25 80 23 01 3F  03 02 0D 00 0C 80 00 E8  ...%.#.?........
02E0: 02 1D 26 80 23 01 3F 03  02 0D 00 0D 80 00 F7 02  ..&.#.?.........
02F0: 1D 27 80 23 01 3F 03 02  0D 00 13 80 00 06 03 1D  .'.#.?..........
0300: 28 80 23 01 3F 03 02 0D  00 29 80 00 15 03 1D 2A  (.#.?....).....*
0310: 80 23 01 3F 03 02 0D 00  0E 80 00 24 03 1D 2B 80  .#.?.......$..+.
0320: 23 01 3F 03 02 0D 00 0F  80 00 33 03 1D 2C 80 23  #.?.......3..,.#
0330: 01 3F 03 02 0D 00 21 80  00 3F 03 1D 2D 80 23 01  .?....!..?..-.#.
0340: A1 18 02 00 10 08 80 00  E4 0A 03 02 10 07 80 1D  ................
0350: 2E 80 23 03 0B 00 08 80  02 0B 00 07 80 02 E1 0A  ..#.............
0360: 03 08 10 07 00 07 08 10  21 80 03 01 10 08 10 43  ........!......C
0370: 00 43 01 2E 24 2F 80 07  80 00 00 25 02 00 10 07  .C..$/.....%....
0380: 80 00 8A 03 06 0B 00 01  DE 0A 02 00 10 08 80 00  ................
0390: CD 03 42 89 30 80 1C 00  80 8B 30 80 07 00 31 80  ..B.0.....0...1.
03A0: 32 80 47 6C 65 6E 6E 65  00 00 00 00 00 00 00 00  2.Glenne........
03B0: 00 00 02 07 00 0F 80 03  BF 03 07 07 00 08 80 1C  ................
03C0: 00 80 1D 33 80 23 8A 1C  00 80 01 DE 0A 02 00 10  ...3.#..........
03D0: 0A 80 00 10 04 42 89 30  80 1C 00 80 8B 30 80 07  .....B.0.....0..
03E0: 00 34 80 35 80 52 6F 73  65 6C 00 00 00 00 00 00  .4.5.Rosel......
03F0: 00 00 00 00 00 02 07 00  0F 80 03 02 04 07 07 00  ................
0400: 08 80 1C 00 80 1D 33 80  23 8A 1C 00 80 01 DE 0A  ......3.#.......
0410: 02 00 10 1E 80 00 53 04  42 89 30 80 1C 00 80 8B  ......S.B.0.....
0420: 30 80 07 00 36 80 37 80  52 61 69 6D 62 72 6F 79  0...6.7.Raimbroy
0430: 00 00 00 00 00 00 00 00  02 07 00 0F 80 03 45 04  ..............E.
0440: 07 07 00 08 80 1C 00 80  1D 33 80 23 8A 1C 00 80  .........3.#....
0450: 01 DE 0A 02 00 10 0C 80  00 96 04 42 89 30 80 1C  ...........B.0..
0460: 00 80 8B 30 80 07 00 38  80 39 80 41 6E 64 65 63  ...0...8.9.Andec
0470: 69 61 00 00 00 00 00 00  00 00 00 02 07 00 0F 80  ia..............
0480: 03 88 04 07 07 00 08 80  1C 00 80 1D 33 80 23 8A  ............3.#.
0490: 1C 00 80 01 DE 0A 02 00  10 0D 80 00 D9 04 42 89  ..............B.
04A0: 30 80 1C 00 80 8B 30 80  07 00 3A 80 3B 80 50 61  0.....0...:.;.Pa
04B0: 72 76 69 70 6F 6E 00 00  00 00 00 00 00 00 02 07  rvipon..........
04C0: 00 0F 80 03 CB 04 07 07  00 08 80 1C 00 80 1D 33  ...............3
04D0: 80 23 8A 1C 00 80 01 DE  0A 02 00 10 13 80 00 1C  .#..............
04E0: 05 42 89 30 80 1C 00 80  8B 30 80 07 00 3C 80 3D  .B.0.....0...<.=
04F0: 80 4C 65 67 61 74 61 00  00 00 00 00 00 00 00 00  .Legata.........
0500: 00 02 07 00 0F 80 03 0E  05 07 07 00 08 80 1C 00  ................
0510: 80 1D 33 80 23 8A 1C 00  80 01 DE 0A 02 00 10 29  ..3.#..........)
0520: 80 00 5F 05 42 89 30 80  1C 00 80 8B 30 80 07 00  .._.B.0.....0...
0530: 3E 80 3F 80 41 6D 75 74  69 79 61 61 6C 00 00 00  >.?.Amutiyaal...
0540: 00 00 00 00 02 07 00 0F  80 03 51 05 07 07 00 08  ..........Q.....
0550: 80 1C 00 80 1D 33 80 23  8A 1C 00 80 01 DE 0A 02  .....3.#........
0560: 00 10 0E 80 00 A2 05 42  89 30 80 1C 00 80 8B 30  .......B.0.....0
0570: 80 07 00 40 80 41 80 41  74 65 6C 6C 6F 75 6E 65  ...@.A.Atelloune
0580: 00 00 00 00 00 00 00 02  07 00 0F 80 03 94 05 07  ................
0590: 07 00 08 80 1C 00 80 1D  33 80 23 8A 1C 00 80 01  ........3.#.....
05A0: DE 0A 02 00 10 0F 80 00  E5 05 42 89 30 80 1C 00  ..........B.0...
05B0: 80 8B 30 80 07 00 42 80  43 80 4D 61 75 67 69 65  ..0...B.C.Maugie
05C0: 00 00 00 00 00 00 00 00  00 00 02 07 00 0F 80 03  ................
05D0: D7 05 07 07 00 08 80 1C  00 80 1D 33 80 23 8A 1C  ...........3.#..
05E0: 00 80 01 DE 0A 02 00 10  21 80 00 28 06 42 89 30  ........!..(.B.0
05F0: 80 1C 00 80 8B 30 80 07  00 44 80 45 80 48 61 6E  .....0...D.E.Han
0600: 61 61 5F 50 75 6E 61 61  00 00 00 00 00 02 07 00  aa_Punaa........
0610: 0F 80 03 1A 06 07 07 00  08 80 1C 00 80 1D 33 80  ..............3.
0620: 23 8A 1C 00 80 01 DE 0A  02 00 10 14 80 00 6B 06  #.............k.
0630: 42 89 30 80 1C 00 80 8B  30 80 07 00 46 80 47 80  B.0.....0...F.G.
0640: 47 6F 6E 64 65 62 61 75  64 00 00 00 00 00 00 00  Gondebaud.......
0650: 02 07 00 0F 80 03 5D 06  07 07 00 08 80 1C 00 80  ......].........
0660: 1D 33 80 23 8A 1C 00 80  01 DE 0A 02 00 10 10 80  .3.#............
0670: 00 AE 06 42 89 30 80 1C  00 80 8B 30 80 07 00 48  ...B.0.....0...H
0680: 80 49 80 42 61 6C 61 73  69 65 6C 00 00 00 00 00  .I.Balasiel.....
0690: 00 00 00 02 07 00 0F 80  03 A0 06 07 07 00 08 80  ................
06A0: 1C 00 80 1D 33 80 23 8A  1C 00 80 01 DE 0A 02 00  ....3.#.........
06B0: 10 11 80 00 F1 06 42 89  30 80 1C 00 80 8B 30 80  ......B.0.....0.
06C0: 07 00 48 80 49 80 42 61  6C 61 73 69 65 6C 00 00  ..H.I.Balasiel..
06D0: 00 00 00 00 00 00 02 07  00 0F 80 03 E3 06 07 07  ................
06E0: 00 08 80 1C 00 80 1D 33  80 23 8A 1C 00 80 01 DE  .......3.#......
06F0: 0A 02 00 10 4A 80 00 34  07 42 89 30 80 1C 00 80  ....J..4.B.0....
0700: 8B 30 80 07 00 44 80 45  80 48 61 6E 61 61 5F 50  .0...D.E.Hanaa_P
0710: 75 6E 61 61 00 00 00 00  00 02 07 00 0F 80 03 26  unaa...........&
0720: 07 07 07 00 08 80 1C 00  80 1D 33 80 23 8A 1C 00  ..........3.#...
0730: 80 01 DE 0A 02 00 10 4B  80 00 77 07 42 89 30 80  .......K..w.B.0.
0740: 1C 00 80 8B 30 80 07 00  4C 80 4D 80 48 65 6C 62  ....0...L.M.Helb
0750: 6F 72 74 00 00 00 00 00  00 00 00 00 02 07 00 0F  ort.............
0760: 80 03 69 07 07 07 00 08  80 1C 00 80 1D 33 80 23  ..i..........3.#
0770: 8A 1C 00 80 01 DE 0A 02  00 10 12 80 00 BA 07 42  ...............B
0780: 89 30 80 1C 00 80 8B 30  80 07 00 4E 80 4F 80 53  .0.....0...N.O.S
0790: 6F 62 61 6E 65 00 00 00  00 00 00 00 00 00 00 02  obane...........
07A0: 07 00 0F 80 03 AC 07 07  07 00 08 80 1C 00 80 1D  ................
07B0: 33 80 23 8A 1C 00 80 01  DE 0A 02 00 10 15 80 00  3.#.............
07C0: FD 07 42 89 30 80 1C 00  80 8B 30 80 07 00 50 80  ..B.0.....0...P.
07D0: 51 80 4E 6F 72 65 6A 61  69 65 00 00 00 00 00 00  Q.Norejaie......
07E0: 00 00 02 07 00 0F 80 03  EF 07 07 07 00 08 80 1C  ................
07F0: 00 80 1D 33 80 23 8A 1C  00 80 01 DE 0A 02 00 10  ...3.#..........
0800: 16 80 00 40 08 42 89 30  80 1C 00 80 8B 30 80 07  ...@.B.0.....0..
0810: 00 52 80 53 80 50 61 6F  75 61 6C 61 00 00 00 00  .R.S.Paouala....
0820: 00 00 00 00 00 02 07 00  0F 80 03 32 08 07 07 00  ...........2....
0830: 08 80 1C 00 80 1D 33 80  23 8A 1C 00 80 01 DE 0A  ......3.#.......
0840: 02 00 10 54 80 00 83 08  42 89 30 80 1C 00 80 8B  ...T....B.0.....
0850: 30 80 07 00 55 80 56 80  54 61 75 6D 69 6C 61 00  0...U.V.Taumila.
0860: 00 00 00 00 00 00 00 00  02 07 00 0F 80 03 75 08  ..............u.
0870: 07 07 00 08 80 1C 00 80  1D 33 80 23 8A 1C 00 80  .........3.#....
0880: 01 DE 0A 02 00 10 57 80  00 C6 08 42 89 30 80 1C  ......W....B.0..
0890: 00 80 8B 30 80 07 00 44  80 45 80 48 61 6E 61 61  ...0...D.E.Hanaa
08A0: 5F 50 75 6E 61 61 00 00  00 00 00 02 07 00 0F 80  _Punaa..........
08B0: 03 B8 08 07 07 00 08 80  1C 00 80 1D 33 80 23 8A  ............3.#.
08C0: 1C 00 80 01 DE 0A 02 00  10 58 80 00 09 09 42 89  .........X....B.
08D0: 30 80 1C 00 80 8B 30 80  07 00 48 80 49 80 42 61  0.....0...H.I.Ba
08E0: 6C 61 73 69 65 6C 00 00  00 00 00 00 00 00 02 07  lasiel..........
08F0: 00 0F 80 03 FB 08 07 07  00 08 80 1C 00 80 1D 33  ...............3
0900: 80 23 8A 1C 00 80 01 DE  0A 02 00 10 59 80 00 4C  .#..........Y..L
0910: 09 42 89 30 80 1C 00 80  8B 30 80 07 00 5A 80 5B  .B.0.....0...Z.[
0920: 80 46 65 6D 69 74 74 65  00 00 00 00 00 00 00 00  .Femitte........
0930: 00 02 07 00 0F 80 03 3E  09 07 07 00 08 80 1C 00  .......>........
0940: 80 1D 33 80 23 8A 1C 00  80 01 DE 0A 02 00 10 17  ..3.#...........
0950: 80 00 8F 09 42 89 30 80  1C 00 80 8B 30 80 07 00  ....B.0.....0...
0960: 5C 80 5D 80 41 6D 61 75  72 61 00 00 00 00 00 00  \.].Amaura......
0970: 00 00 00 00 02 07 00 0F  80 03 81 09 07 07 00 08  ................
0980: 80 1C 00 80 1D 33 80 23  8A 1C 00 80 01 DE 0A 02  .....3.#........
0990: 00 10 18 80 00 D2 09 42  89 30 80 1C 00 80 8B 30  .......B.0.....0
09A0: 80 07 00 5E 80 5F 80 44  65 72 61 71 75 69 65 6E  ...^._.Deraquien
09B0: 00 00 00 00 00 00 00 02  07 00 0F 80 03 C4 09 07  ................
09C0: 07 00 08 80 1C 00 80 1D  33 80 23 8A 1C 00 80 01  ........3.#.....
09D0: DE 0A 02 00 10 09 80 00  15 0A 42 89 30 80 1C 00  ..........B.0...
09E0: 80 8B 30 80 07 00 4E 80  4F 80 53 6F 62 61 6E 65  ..0...N.O.Sobane
09F0: 00 00 00 00 00 00 00 00  00 00 02 07 00 0F 80 03  ................
0A00: 07 0A 07 07 00 08 80 1C  00 80 1D 33 80 23 8A 1C  ...........3.#..
0A10: 00 80 01 DE 0A 02 00 10  0B 80 00 58 0A 42 89 30  ...........X.B.0
0A20: 80 1C 00 80 8B 30 80 07  00 60 80 61 80 53 68 61  .....0...`.a.Sha
0A30: 72 7A 61 6C 69 6F 6E 00  00 00 00 00 00 02 07 00  rzalion.........
0A40: 0F 80 03 4A 0A 07 07 00  08 80 1C 00 80 1D 33 80  ...J..........3.
0A50: 23 8A 1C 00 80 01 DE 0A  02 00 10 62 80 00 9B 0A  #..........b....
0A60: 42 89 30 80 1C 00 80 8B  30 80 07 00 48 80 49 80  B.0.....0...H.I.
0A70: 42 61 6C 61 73 69 65 6C  00 00 00 00 00 00 00 00  Balasiel........
0A80: 02 07 00 0F 80 03 8D 0A  07 07 00 08 80 1C 00 80  ................
0A90: 1D 33 80 23 8A 1C 00 80  01 DE 0A 02 00 10 63 80  .3.#..........c.
0AA0: 00 DE 0A 42 89 30 80 1C  00 80 8B 30 80 07 00 64  ...B.0.....0...d
0AB0: 80 65 80 52 6F 75 76 61  00 00 00 00 00 00 00 00  .e.Rouva........
0AC0: 00 00 00 02 07 00 0F 80  03 D0 0A 07 07 00 08 80  ................
0AD0: 1C 00 80 1D 33 80 23 8A  1C 00 80 01 DE 0A 01 58  ....3.#........X
0AE0: 03 01 A1 18 02 00 10 0A  80 00 00 12 03 02 10 08  ................
0AF0: 80 1D 2E 80 23 03 0B 00  08 80 02 0B 00 07 80 02  ....#...........
0B00: FD 11 03 08 10 08 00 07  08 10 57 80 03 01 10 08  ..........W.....
0B10: 10 43 00 43 01 2E 24 66  80 07 80 01 00 25 02 00  .C.C..$f.....%..
0B20: 10 07 80 00 2C 0B 06 0B  00 01 FA 11 02 00 10 08  ....,...........
0B30: 80 00 6F 0B 42 89 67 80  1C 00 80 8B 67 80 08 00  ..o.B.g.....g...
0B40: 68 80 69 80 4D 69 61 67  65 61 75 00 00 00 00 00  h.i.Miageau.....
0B50: 00 00 00 00 02 08 00 0F  80 03 61 0B 07 08 00 08  ..........a.....
0B60: 80 1C 00 80 1D 33 80 23  8A 1C 00 80 01 FA 11 02  .....3.#........
0B70: 00 10 0A 80 00 B2 0B 42  89 67 80 1C 00 80 8B 67  .......B.g.....g
0B80: 80 08 00 6A 80 6B 80 41  69 6C 62 65 63 68 65 00  ...j.k.Ailbeche.
0B90: 00 00 00 00 00 00 00 02  08 00 0F 80 03 A4 0B 07  ................
0BA0: 08 00 08 80 1C 00 80 1D  33 80 23 8A 1C 00 80 01  ........3.#.....
0BB0: FA 11 02 00 10 1E 80 00  F5 0B 42 89 67 80 1C 00  ..........B.g...
0BC0: 80 8B 67 80 08 00 6C 80  6D 80 41 62 65 61 75 6C  ..g...l.m.Abeaul
0BD0: 65 00 00 00 00 00 00 00  00 00 02 08 00 0F 80 03  e...............
0BE0: E7 0B 07 08 00 08 80 1C  00 80 1D 33 80 23 8A 1C  ...........3.#..
0BF0: 00 80 01 FA 11 02 00 10  0C 80 00 38 0C 42 89 67  ...........8.B.g
0C00: 80 1C 00 80 8B 67 80 08  00 6E 80 6F 80 41 62 69  .....g...n.o.Abi
0C10: 6F 6C 65 67 65 74 00 00  00 00 00 00 00 02 08 00  oleget..........
0C20: 0F 80 03 2A 0C 07 08 00  08 80 1C 00 80 1D 33 80  ...*..........3.
0C30: 23 8A 1C 00 80 01 FA 11  02 00 10 0D 80 00 7B 0C  #.............{.
0C40: 42 89 67 80 1C 00 80 8B  67 80 08 00 70 80 71 80  B.g.....g...p.q.
0C50: 53 65 63 6F 64 69 61 6E  64 00 00 00 00 00 00 00  Secodiand.......
0C60: 02 08 00 0F 80 03 6D 0C  07 08 00 08 80 1C 00 80  ......m.........
0C70: 1D 33 80 23 8A 1C 00 80  01 FA 11 02 00 10 13 80  .3.#............
0C80: 00 BE 0C 42 89 67 80 1C  00 80 8B 67 80 08 00 72  ...B.g.....g...r
0C90: 80 73 80 4B 75 75 5F 4D  6F 68 7A 6F 6C 68 69 00  .s.Kuu_Mohzolhi.
0CA0: 00 00 00 02 08 00 0F 80  03 B0 0C 07 08 00 08 80  ................
0CB0: 1C 00 80 1D 33 80 23 8A  1C 00 80 01 FA 11 02 00  ....3.#.........
0CC0: 10 29 80 00 01 0D 42 89  67 80 1C 00 80 8B 67 80  .)....B.g.....g.
0CD0: 08 00 74 80 75 80 52 61  6D 75 61 00 00 00 00 00  ..t.u.Ramua.....
0CE0: 00 00 00 00 00 00 02 08  00 0F 80 03 F3 0C 07 08  ................
0CF0: 00 08 80 1C 00 80 1D 33  80 23 8A 1C 00 80 01 FA  .......3.#......
0D00: 11 02 00 10 0E 80 00 44  0D 42 89 67 80 1C 00 80  .......D.B.g....
0D10: 8B 67 80 08 00 76 80 77  80 3F 3F 3F 00 00 00 00  .g...v.w.???....
0D20: 00 00 00 00 00 00 00 00  00 02 08 00 0F 80 03 36  ...............6
0D30: 0D 07 08 00 08 80 1C 00  80 1D 78 80 23 8A 1C 00  ..........x.#...
0D40: 80 01 FA 11 02 00 10 0F  80 00 87 0D 42 89 67 80  ............B.g.
0D50: 1C 00 80 8B 67 80 08 00  79 80 7A 80 50 61 67 69  ....g...y.z.Pagi
0D60: 73 61 6C 69 73 00 00 00  00 00 00 00 02 08 00 0F  salis...........
0D70: 80 03 79 0D 07 08 00 08  80 1C 00 80 1D 33 80 23  ..y..........3.#
0D80: 8A 1C 00 80 01 FA 11 02  00 10 21 80 00 CA 0D 42  ..........!....B
0D90: 89 67 80 1C 00 80 8B 67  80 08 00 76 80 77 80 3F  .g.....g...v.w.?
0DA0: 3F 3F 00 00 00 00 00 00  00 00 00 00 00 00 00 02  ??..............
0DB0: 08 00 0F 80 03 BC 0D 07  08 00 08 80 1C 00 80 1D  ................
0DC0: 78 80 23 8A 1C 00 80 01  FA 11 02 00 10 14 80 00  x.#.............
0DD0: 0D 0E 42 89 67 80 1C 00  80 8B 67 80 08 00 7B 80  ..B.g.....g...{.
0DE0: 7C 80 4F 6C 62 65 72 67  69 65 75 74 00 00 00 00  |.Olbergieut....
0DF0: 00 00 02 08 00 0F 80 03  FF 0D 07 08 00 08 80 1C  ................
0E00: 00 80 1D 33 80 23 8A 1C  00 80 01 FA 11 02 00 10  ...3.#..........
0E10: 10 80 00 50 0E 42 89 67  80 1C 00 80 8B 67 80 08  ...P.B.g.....g..
0E20: 00 6C 80 6D 80 41 62 65  61 75 6C 65 00 00 00 00  .l.m.Abeaule....
0E30: 00 00 00 00 00 02 08 00  0F 80 03 42 0E 07 08 00  ...........B....
0E40: 08 80 1C 00 80 1D 33 80  23 8A 1C 00 80 01 FA 11  ......3.#.......
0E50: 02 00 10 11 80 00 93 0E  42 89 67 80 1C 00 80 8B  ........B.g.....
0E60: 67 80 08 00 7D 80 7E 80  4D 61 6C 6F 71 75 65 64  g...}.~.Maloqued
0E70: 69 6C 00 00 00 00 00 00  02 08 00 0F 80 03 85 0E  il..............
0E80: 07 08 00 08 80 1C 00 80  1D 33 80 23 8A 1C 00 80  .........3.#....
0E90: 01 FA 11 02 00 10 4A 80  00 D6 0E 42 89 67 80 1C  ......J....B.g..
0EA0: 00 80 8B 67 80 08 00 76  80 77 80 3F 3F 3F 00 00  ...g...v.w.???..
0EB0: 00 00 00 00 00 00 00 00  00 00 00 02 08 00 0F 80  ................
0EC0: 03 C8 0E 07 08 00 08 80  1C 00 80 1D 78 80 23 8A  ............x.#.
0ED0: 1C 00 80 01 FA 11 02 00  10 4B 80 00 19 0F 42 89  .........K....B.
0EE0: 67 80 1C 00 80 8B 67 80  08 00 7F 80 80 80 4D 6F  g.....g.......Mo
0EF0: 72 6A 65 61 6E 00 00 00  00 00 00 00 00 00 02 08  rjean...........
0F00: 00 0F 80 03 0B 0F 07 08  00 08 80 1C 00 80 1D 33  ...............3
0F10: 80 23 8A 1C 00 80 01 FA  11 02 00 10 12 80 00 5C  .#.............\
0F20: 0F 42 89 67 80 1C 00 80  8B 67 80 08 00 81 80 82  .B.g.....g......
0F30: 80 45 70 65 72 64 75 72  00 00 00 00 00 00 00 00  .Eperdur........
0F40: 00 02 08 00 0F 80 03 4E  0F 07 08 00 08 80 1C 00  .......N........
0F50: 80 1D 33 80 23 8A 1C 00  80 01 FA 11 02 00 10 15  ..3.#...........
0F60: 80 00 9F 0F 42 89 67 80  1C 00 80 8B 67 80 08 00  ....B.g.....g...
0F70: 81 80 82 80 45 70 65 72  64 75 72 00 00 00 00 00  ....Eperdur.....
0F80: 00 00 00 00 02 08 00 0F  80 03 91 0F 07 08 00 08  ................
0F90: 80 1C 00 80 1D 33 80 23  8A 1C 00 80 01 FA 11 02  .....3.#........
0FA0: 00 10 16 80 00 E2 0F 42  89 67 80 1C 00 80 8B 67  .......B.g.....g
0FB0: 80 08 00 83 80 84 80 56  61 6D 6F 72 63 6F 74 65  .......Vamorcote
0FC0: 00 00 00 00 00 00 00 02  08 00 0F 80 03 D4 0F 07  ................
0FD0: 08 00 08 80 1C 00 80 1D  33 80 23 8A 1C 00 80 01  ........3.#.....
0FE0: FA 11 02 00 10 54 80 00  25 10 42 89 67 80 1C 00  .....T..%.B.g...
0FF0: 80 8B 67 80 08 00 85 80  86 80 42 65 6C 67 69 64  ..g.......Belgid
1000: 69 76 65 61 75 00 00 00  00 00 02 08 00 0F 80 03  iveau...........
1010: 17 10 07 08 00 08 80 1C  00 80 1D 33 80 23 8A 1C  ...........3.#..
1020: 00 80 01 FA 11 02 00 10  57 80 00 68 10 42 89 67  ........W..h.B.g
1030: 80 1C 00 80 8B 67 80 08  00 87 80 88 80 47 75 6C  .....g.......Gul
1040: 6D 61 6D 61 00 00 00 00  00 00 00 00 00 02 08 00  mama............
1050: 0F 80 03 5A 10 07 08 00  08 80 1C 00 80 1D 33 80  ...Z..........3.
1060: 23 8A 1C 00 80 01 FA 11  02 00 10 58 80 00 AB 10  #..........X....
1070: 42 89 67 80 1C 00 80 8B  67 80 08 00 89 80 8A 80  B.g.....g.......
1080: 52 6F 6E 64 69 70 75 72  00 00 00 00 00 00 00 00  Rondipur........
1090: 02 08 00 0F 80 03 9D 10  07 08 00 08 80 1C 00 80  ................
10A0: 1D 33 80 23 8A 1C 00 80  01 FA 11 02 00 10 59 80  .3.#..........Y.
10B0: 00 EE 10 42 89 67 80 1C  00 80 8B 67 80 08 00 8B  ...B.g.....g....
10C0: 80 8C 80 43 61 73 74 69  6C 63 68 61 74 00 00 00  ...Castilchat...
10D0: 00 00 00 02 08 00 0F 80  03 E0 10 07 08 00 08 80  ................
10E0: 1C 00 80 1D 33 80 23 8A  1C 00 80 01 FA 11 02 00  ....3.#.........
10F0: 10 17 80 00 31 11 42 89  67 80 1C 00 80 8B 67 80  ....1.B.g.....g.
1100: 08 00 8D 80 8E 80 4E 61  72 63 68 65 72 61 6C 00  ......Narcheral.
1110: 00 00 00 00 00 00 02 08  00 0F 80 03 23 11 07 08  ............#...
1120: 00 08 80 1C 00 80 1D 33  80 23 8A 1C 00 80 01 FA  .......3.#......
1130: 11 02 00 10 0B 80 00 74  11 42 89 67 80 1C 00 80  .......t.B.g....
1140: 8B 67 80 08 00 6A 80 6B  80 41 69 6C 62 65 63 68  .g...j.k.Ailbech
1150: 65 00 00 00 00 00 00 00  00 02 08 00 0F 80 03 66  e..............f
1160: 11 07 08 00 08 80 1C 00  80 1D 33 80 23 8A 1C 00  ..........3.#...
1170: 80 01 FA 11 02 00 10 62  80 00 B7 11 42 89 67 80  .......b....B.g.
1180: 1C 00 80 8B 67 80 08 00  6A 80 6B 80 41 69 6C 62  ....g...j.k.Ailb
1190: 65 63 68 65 00 00 00 00  00 00 00 00 02 08 00 0F  eche............
11A0: 80 03 A9 11 07 08 00 08  80 1C 00 80 1D 33 80 23  .............3.#
11B0: 8A 1C 00 80 01 FA 11 02  00 10 63 80 00 FA 11 42  ..........c....B
11C0: 89 67 80 1C 00 80 8B 67  80 08 00 8F 80 90 80 4D  .g.....g.......M
11D0: 69 61 75 78 00 00 00 00  00 00 00 00 00 00 00 02  iaux............
11E0: 08 00 0F 80 03 EC 11 07  08 00 08 80 1C 00 80 1D  ................
11F0: 33 80 23 8A 1C 00 80 01  FA 11 01 FA 0A 01 A1 18  3.#.............
1200: 02 00 10 1E 80 00 B5 15  03 02 10 0A 80 1D 2E 80  ................
1210: 23 03 0B 00 08 80 02 0B  00 07 80 02 B2 15 03 08  #...............
1220: 10 09 00 07 08 10 00 80  03 01 10 08 10 43 00 43  .............C.C
1230: 01 2E 24 91 80 07 80 02  00 25 02 00 10 07 80 00  ..$......%......
1240: 48 12 06 0B 00 01 AF 15  02 00 10 08 80 00 8B 12  H...............
1250: 42 89 92 80 1C 00 80 8B  92 80 09 00 93 80 94 80  B...............
1260: 41 6C 74 69 72 65 74 00  00 00 00 00 00 00 00 00  Altiret.........
1270: 02 09 00 0F 80 03 7D 12  07 09 00 08 80 1C 00 80  ......}.........
1280: 1D 33 80 23 8A 1C 00 80  01 AF 15 02 00 10 0A 80  .3.#............
1290: 00 CE 12 42 89 92 80 1C  00 80 8B 92 80 09 00 95  ...B............
12A0: 80 96 80 47 75 6C 65 6D  6F 6E 74 00 00 00 00 00  ...Gulemont.....
12B0: 00 00 00 02 09 00 0F 80  03 C0 12 07 09 00 08 80  ................
12C0: 1C 00 80 1D 33 80 23 8A  1C 00 80 01 AF 15 02 00  ....3.#.........
12D0: 10 1E 80 00 11 13 42 89  92 80 1C 00 80 8B 92 80  ......B.........
12E0: 09 00 97 80 98 80 46 6F  6E 74 6F 75 6D 61 6E 74  ......Fontoumant
12F0: 00 00 00 00 00 00 02 09  00 0F 80 03 03 13 07 09  ................
1300: 00 08 80 1C 00 80 1D 33  80 23 8A 1C 00 80 01 AF  .......3.#......
1310: 15 02 00 10 0C 80 00 54  13 42 89 92 80 1C 00 80  .......T.B......
1320: 8B 92 80 09 00 99 80 9A  80 52 65 67 69 6E 65 00  .........Regine.
1330: 00 00 00 00 00 00 00 00  00 02 09 00 0F 80 03 46  ...............F
1340: 13 07 09 00 08 80 1C 00  80 1D 33 80 23 8A 1C 00  ..........3.#...
1350: 80 01 AF 15 02 00 10 0D  80 00 97 13 42 89 92 80  ............B...
1360: 1C 00 80 8B 92 80 09 00  9B 80 9C 80 47 61 6C 6C  ............Gall
1370: 69 6A 61 75 78 00 00 00  00 00 00 00 02 09 00 0F  ijaux...........
1380: 80 03 89 13 07 09 00 08  80 1C 00 80 1D 33 80 23  .............3.#
1390: 8A 1C 00 80 01 AF 15 02  00 10 13 80 00 DA 13 42  ...............B
13A0: 89 92 80 1C 00 80 8B 92  80 09 00 9D 80 9E 80 4A  ...............J
13B0: 6F 75 6C 65 74 00 00 00  00 00 00 00 00 00 00 02  oulet...........
13C0: 09 00 0F 80 03 CC 13 07  09 00 08 80 1C 00 80 1D  ................
13D0: 33 80 23 8A 1C 00 80 01  AF 15 02 00 10 29 80 00  3.#..........)..
13E0: 1D 14 42 89 92 80 1C 00  80 8B 92 80 09 00 9F 80  ..B.............
13F0: A0 80 4E 6F 67 65 6C 6C  65 00 00 00 00 00 00 00  ..Nogelle.......
1400: 00 00 02 09 00 0F 80 03  0F 14 07 09 00 08 80 1C  ................
1410: 00 80 1D 33 80 23 8A 1C  00 80 01 AF 15 02 00 10  ...3.#..........
1420: 0E 80 00 60 14 42 89 92  80 1C 00 80 8B 92 80 09  ...`.B..........
1430: 00 A1 80 A2 80 41 6E 74  72 65 6E 65 61 75 00 00  .....Antreneau..
1440: 00 00 00 00 00 02 09 00  0F 80 03 52 14 07 09 00  ...........R....
1450: 08 80 1C 00 80 1D 33 80  23 8A 1C 00 80 01 AF 15  ......3.#.......
1460: 02 00 10 0F 80 00 A3 14  42 89 92 80 1C 00 80 8B  ........B.......
1470: 92 80 09 00 A3 80 A4 80  56 6F 75 6E 65 62 61 72  ........Vounebar
1480: 69 6F 6E 74 00 00 00 00  02 09 00 0F 80 03 95 14  iont............
1490: 07 09 00 08 80 1C 00 80  1D 33 80 23 8A 1C 00 80  .........3.#....
14A0: 01 AF 15 02 00 10 21 80  00 E6 14 42 89 92 80 1C  ......!....B....
14B0: 00 80 8B 92 80 09 00 A5  80 A6 80 50 6F 72 74 61  ...........Porta
14C0: 75 72 65 00 00 00 00 00  00 00 00 02 09 00 0F 80  ure.............
14D0: 03 D8 14 07 09 00 08 80  1C 00 80 1D 33 80 23 8A  ............3.#.
14E0: 1C 00 80 01 AF 15 02 00  10 14 80 00 29 15 42 89  ............).B.
14F0: 92 80 1C 00 80 8B 92 80  09 00 A1 80 A2 80 41 6E  ..............An
1500: 74 72 65 6E 65 61 75 00  00 00 00 00 00 00 02 09  treneau.........
1510: 00 0F 80 03 1B 15 07 09  00 08 80 1C 00 80 1D 33  ...............3
1520: 80 23 8A 1C 00 80 01 AF  15 02 00 10 10 80 00 6C  .#.............l
1530: 15 42 89 92 80 1C 00 80  8B 92 80 09 00 A7 80 A8  .B..............
1540: 80 43 65 72 61 75 6C 69  61 6E 00 00 00 00 00 00  .Ceraulian......
1550: 00 02 09 00 0F 80 03 5E  15 07 09 00 08 80 1C 00  .......^........
1560: 80 1D 33 80 23 8A 1C 00  80 01 AF 15 02 00 10 11  ..3.#...........
1570: 80 00 AF 15 42 89 92 80  1C 00 80 8B 92 80 09 00  ....B...........
1580: A9 80 AA 80 45 64 64 79  00 00 00 00 00 00 00 00  ....Eddy........
1590: 00 00 00 00 02 09 00 0F  80 03 A1 15 07 09 00 08  ................
15A0: 80 1C 00 80 1D 33 80 23  8A 1C 00 80 01 AF 15 01  .....3.#........
15B0: 16 12 01 A1 18 02 00 10  0C 80 00 A1 18 03 02 10  ................
15C0: 1E 80 1D 2E 80 23 03 0B  00 08 80 02 0B 00 07 80  .....#..........
15D0: 02 9E 18 03 08 10 0A 00  07 08 10 AB 80 03 01 10  ................
15E0: 08 10 43 00 43 01 2E 24  AC 80 07 80 03 00 25 02  ..C.C..$......%.
15F0: 00 10 07 80 00 FD 15 06  0B 00 01 9B 18 02 00 10  ................
1600: 08 80 00 40 16 42 89 AD  80 1C 00 80 8B AD 80 0A  ...@.B..........
1610: 00 AE 80 AF 80 48 61 6C  76 65 72 00 00 00 00 00  .....Halver.....
1620: 00 00 00 00 00 02 0A 00  0F 80 03 32 16 07 0A 00  ...........2....
1630: 08 80 1C 00 80 1D 33 80  23 8A 1C 00 80 01 9B 18  ......3.#.......
1640: 02 00 10 0A 80 00 83 16  42 89 AD 80 1C 00 80 8B  ........B.......
1650: AD 80 0A 00 B0 80 B1 80  43 75 72 69 6C 6C 61 00  ........Curilla.
1660: 00 00 00 00 00 00 00 00  02 0A 00 0F 80 03 75 16  ..............u.
1670: 07 0A 00 08 80 1C 00 80  1D 33 80 23 8A 1C 00 80  .........3.#....
1680: 01 9B 18 02 00 10 1E 80  00 C6 16 42 89 AD 80 1C  ...........B....
1690: 00 80 8B AD 80 0A 00 B2  80 B3 80 43 68 61 6C 76  ...........Chalv
16A0: 61 74 6F 74 00 00 00 00  00 00 00 02 0A 00 0F 80  atot............
16B0: 03 B8 16 07 0A 00 08 80  1C 00 80 1D 33 80 23 8A  ............3.#.
16C0: 1C 00 80 01 9B 18 02 00  10 0C 80 00 09 17 42 89  ..............B.
16D0: AD 80 1C 00 80 8B AD 80  0A 00 B0 80 B1 80 43 75  ..............Cu
16E0: 72 69 6C 6C 61 00 00 00  00 00 00 00 00 00 02 0A  rilla...........
16F0: 00 0F 80 03 FB 16 07 0A  00 08 80 1C 00 80 1D 33  ...............3
1700: 80 23 8A 1C 00 80 01 9B  18 02 00 10 0D 80 00 4C  .#.............L
1710: 17 42 89 AD 80 1C 00 80  8B AD 80 0A 00 B0 80 B1  .B..............
1720: 80 43 75 72 69 6C 6C 61  00 00 00 00 00 00 00 00  .Curilla........
1730: 00 02 0A 00 0F 80 03 3E  17 07 0A 00 08 80 1C 00  .......>........
1740: 80 1D 33 80 23 8A 1C 00  80 01 9B 18 02 00 10 13  ..3.#...........
1750: 80 00 8F 17 42 89 AD 80  1C 00 80 8B AD 80 0A 00  ....B...........
1760: B4 80 B5 80 3F 3F 3F 00  00 00 00 00 00 00 00 00  ....???.........
1770: 00 00 00 00 02 0A 00 0F  80 03 81 17 07 0A 00 08  ................
1780: 80 1C 00 80 1D 78 80 23  8A 1C 00 80 01 9B 18 02  .....x.#........
1790: 00 10 29 80 00 D2 17 42  89 AD 80 1C 00 80 8B AD  ..)....B........
17A0: 80 0A 00 B6 80 B7 80 52  61 68 61 6C 00 00 00 00  .......Rahal....
17B0: 00 00 00 00 00 00 00 02  0A 00 0F 80 03 C4 17 07  ................
17C0: 0A 00 08 80 1C 00 80 1D  33 80 23 8A 1C 00 80 01  ........3.#.....
17D0: 9B 18 02 00 10 0E 80 00  15 18 42 89 AD 80 1C 00  ..........B.....
17E0: 80 8B AD 80 0A 00 B0 80  B1 80 43 75 72 69 6C 6C  ..........Curill
17F0: 61 00 00 00 00 00 00 00  00 00 02 0A 00 0F 80 03  a...............
1800: 07 18 07 0A 00 08 80 1C  00 80 1D 33 80 23 8A 1C  ...........3.#..
1810: 00 80 01 9B 18 02 00 10  0F 80 00 58 18 42 89 AD  ...........X.B..
1820: 80 1C 00 80 8B AD 80 0A  00 B8 80 B9 80 3F 3F 3F  .............???
1830: 00 00 00 00 00 00 00 00  00 00 00 00 00 02 0A 00  ................
1840: 0F 80 03 4A 18 07 0A 00  08 80 1C 00 80 1D 78 80  ...J..........x.
1850: 23 8A 1C 00 80 01 9B 18  02 00 10 21 80 00 9B 18  #..........!....
1860: 42 89 AD 80 1C 00 80 8B  AD 80 0A 00 B8 80 B9 80  B...............
1870: 3F 3F 3F 00 00 00 00 00  00 00 00 00 00 00 00 00  ???.............
1880: 02 0A 00 0F 80 03 8D 18  07 0A 00 08 80 1C 00 80  ................
1890: 1D 78 80 23 8A 1C 00 80  01 9B 18 01 CB 15 01 A1  .x.#............
18A0: 18 01 F6 01 20 00 21 00  01 E6 1C 02 00 10 08 80  .... .!.........
18B0: 00 76 19 02 06 00 08 80  00 C5 18 1A F2 1C 20 00  .v............ .
18C0: 21 00 01 73 19 66 00 80  F8 FF FF 7F F8 FF FF 7F  !..s.f..........
18D0: 74 6C 6B 30 1D BA 80 23  1D BB 80 23 66 00 80 F8  tlk0...#...#f...
18E0: FF FF 7F F8 FF FF 7F 74  6C 6B 31 42 89 92 80 1C  .......tlk1B....
18F0: 00 80 8B 92 80 07 80 BC  80 BD 80 3F 3F 3F 00 00  ...........???..
1900: 00 00 00 00 00 00 00 00  00 00 00 1D BE 80 1C BF  ................
1910: 80 23 8A 1C C0 80 89 67  80 1C 00 80 8B 67 80 08  .#.....g.....g..
1920: 80 07 80 C1 80 3F 3F 3F  00 00 00 00 00 00 00 00  .....???........
1930: 00 00 00 00 00 1D C2 80  1C BF 80 23 8A 1C C0 80  ...........#....
1940: 89 30 80 1C 00 80 8B 30  80 0A 80 C3 80 C4 80 41  .0.....0.......A
1950: 6C 61 75 6E 65 00 00 00  00 00 00 00 00 00 00 1D  laune...........
1960: C5 80 1C BF 80 23 8A 1C  C0 80 1D C6 80 23 1D C7  .....#.......#..
1970: 80 23 2E 01 E6 1C 02 00  10 0A 80 00 A8 1A 03 09  .#..............
1980: 10 08 80 02 10 00 07 80  00 B8 19 66 00 80 F8 FF  ...........f....
1990: FF 7F F8 FF FF 7F 74 6C  6B 30 1D C8 80 23 1D C9  ......tlk0...#..
19A0: 80 23 1D CA 80 23 66 00  80 F8 FF FF 7F F8 FF FF  .#...#f.........
19B0: 7F 74 6C 6B 31 01 A5 1A  02 10 00 08 80 00 7F 1A  .tlk1...........
19C0: 02 06 00 08 80 00 D2 19  1A F2 1C 20 00 21 00 01  ........... .!..
19D0: 7C 1A 1D CB 80 23 42 89  92 80 1C 00 80 8B 92 80  |....#B.........
19E0: 07 80 BC 80 BD 80 3F 3F  3F 00 00 00 00 00 00 00  ......???.......
19F0: 00 00 00 00 00 00 1D BE  80 1C BF 80 23 8A 1C C0  ............#...
1A00: 80 89 67 80 1C 00 80 8B  67 80 08 80 07 80 C1 80  ..g.....g.......
1A10: 3F 3F 3F 00 00 00 00 00  00 00 00 00 00 00 00 00  ???.............
1A20: 1D C2 80 1C BF 80 23 8A  1C C0 80 89 30 80 1C 00  ......#.....0...
1A30: 80 8B 30 80 0A 80 CC 80  CD 80 52 6F 6C 61 6E 64  ..0.......Roland
1A40: 69 65 6E 6E 65 00 00 00  00 00 1D CE 80 1C BF 80  ienne...........
1A50: 23 8A 1C C0 80 66 00 80  F8 FF FF 7F F8 FF FF 7F  #....f..........
1A60: 74 6C 6B 30 1D C6 80 23  1D C7 80 23 66 00 80 F8  tlk0...#...#f...
1A70: FF FF 7F F8 FF FF 7F 74  6C 6B 31 2E 01 A5 1A 66  .......tlk1....f
1A80: 00 80 F8 FF FF 7F F8 FF  FF 7F 74 6C 6B 30 1D C9  ..........tlk0..
1A90: 80 23 1D CF 80 23 66 00  80 F8 FF FF 7F F8 FF FF  .#...#f.........
1AA0: 7F 74 6C 6B 31 01 E6 1C  02 00 10 1E 80 00 50 1B  .tlk1.........P.
1AB0: 66 00 80 F8 FF FF 7F F8  FF FF 7F 74 6C 6B 30 1D  f..........tlk0.
1AC0: D0 80 23 1D D1 80 23 66  00 80 F8 FF FF 7F F8 FF  ..#...#f........
1AD0: FF 7F 74 6C 6B 31 02 88  7F 0D 80 04 49 1B 02 06  ..tlk1......I...
1AE0: 00 08 80 00 F7 1A 03 09  10 07 80 1D D2 80 23 03  ..............#.
1AF0: 09 10 08 80 01 46 1B 42  89 30 80 1C 00 80 8B 30  .....F.B.0.....0
1B00: 80 08 80 46 80 47 80 47  6F 6E 64 65 62 61 75 64  ...F.G.Gondebaud
1B10: 00 00 00 00 00 00 00 1D  D3 80 1C BF 80 23 8A 66  .............#.f
1B20: 00 80 F8 FF FF 7F F8 FF  FF 7F 74 6C 6B 30 1D C6  ..........tlk0..
1B30: 80 23 1D C7 80 23 66 00  80 F8 FF FF 7F F8 FF FF  .#...#f.........
1B40: 7F 74 6C 6B 31 2E 01 4D  1B 1D D4 80 23 01 E6 1C  .tlk1..M....#...
1B50: 02 00 10 0C 80 00 CB 1B  42 C8 92 80 07 80 08 80  ........B.......
1B60: 8B 92 80 07 80 D5 80 D6  80 54 65 69 6C 73 61 00  .........Teilsa.
1B70: 00 00 00 00 00 00 00 00  00 03 09 10 08 80 1D D7  ................
1B80: 80 1C BF 80 23 1D C6 80  23 8A 1D C7 80 1C C0 80  ....#...#.......
1B90: 23 02 06 00 08 80 00 9C  1B 01 C7 1B C8 30 80 07  #............0..
1BA0: 80 08 80 8B 30 80 1E 80  D8 80 D9 80 52 75 6D 6F  ....0.......Rumo
1BB0: 69 65 00 00 00 00 00 00  00 00 00 00 1D DA 80 1C  ie..............
1BC0: BF 80 23 8A 1C C0 80 2E  01 E6 1C 02 00 10 0D 80  ..#.............
1BD0: 00 E8 1B 42 8D DB 80 0A  80 1D D7 80 1C BF 80 23  ...B...........#
1BE0: 8A 1C C0 80 2E 01 E6 1C  02 00 10 13 80 00 30 1C  ..............0.
1BF0: 66 00 80 F8 FF FF 7F F8  FF FF 7F 74 6C 6B 30 1D  f..........tlk0.
1C00: DC 80 23 1D DD 80 23 1D  DE 80 23 66 00 80 F8 FF  ..#...#...#f....
1C10: FF 7F F8 FF FF 7F 74 6C  6B 31 03 09 10 08 80 03  ......tlk1......
1C20: 08 10 04 80 1D DF 80 23  03 09 10 08 80 01 E6 1C  .......#........
1C30: 02 00 10 29 80 00 65 1C  66 00 80 F8 FF FF 7F F8  ...)..e.f.......
1C40: FF FF 7F 74 6C 6B 30 1D  E0 80 23 1D E1 80 23 66  ...tlk0...#...#f
1C50: 00 80 F8 FF FF 7F F8 FF  FF 7F 74 6C 6B 31 1D E2  ..........tlk1..
1C60: 80 23 01 E6 1C 02 00 10  0E 80 00 96 1C 66 00 80  .#...........f..
1C70: F8 FF FF 7F F8 FF FF 7F  74 6C 6B 30 1D E3 80 23  ........tlk0...#
1C80: 66 00 80 F8 FF FF 7F F8  FF FF 7F 74 6C 6B 31 1D  f..........tlk1.
1C90: E4 80 23 01 E6 1C 02 00  10 0F 80 00 A1 1C 01 E6  ..#.............
1CA0: 1C 02 00 10 21 80 00 D6  1C 66 00 80 F8 FF FF 7F  ....!....f......
1CB0: F8 FF FF 7F 74 6C 6B 30  1D E5 80 23 1D E6 80 23  ....tlk0...#...#
1CC0: 66 00 80 F8 FF FF 7F F8  FF FF 7F 74 6C 6B 31 1D  f..........tlk1.
1CD0: E7 80 23 01 E6 1C 02 00  10 14 80 00 E6 1C 03 0E  ..#.............
1CE0: 00 08 80 01 E6 1C 01 76  01 5E 69 64 6C 30 20 00  .......v.^idl0 .
1CF0: 21 00 66 00 80 F8 FF FF  7F F8 FF FF 7F 74 6C 6B  !.f..........tlk
1D00: 30 03 09 10 07 80 1D D2  80 23 1D E8 80 23 1D BE  0........#...#..
1D10: 80 23 66 00 80 F8 FF FF  7F F8 FF FF 7F 74 6C 6B  .#f..........tlk
1D20: 31 1B                                             1.              
```

#### Opcodes

```
  0: 0x007F [0x03] ExtData[1]->WorkLocal[0] = Work_Zone[3]
  1: 0x0084 [0x03] ExtData[1]->WorkLocal[1] = Work_Zone[4]
  2: 0x0089 [0x03] ExtData[1]->WorkLocal[2] = Work_Zone[5]
  3: 0x008E [0x03] ExtData[1]->WorkLocal[3] = Work_Zone[6]
  4: 0x0093 [0x03] ExtData[1]->WorkLocal[4] = Work_Zone[7]
  5: 0x0098 [0x03] ExtData[1]->WorkLocal[5] = Work_Zone[8]
  6: 0x009D [0x3E] IF !(Work_Zone[9] bit 0*) GOTO 0x00AC
  7: 0x00A4 [0x03] ExtData[1]->WorkLocal[6] = 0*
  8: 0x00A9 [0x01] GOTO 0x00B1
  9: 0x00AC [0x03] ExtData[1]->WorkLocal[6] = 1*

SUBROUTINE_00B1:
 10: 0x00B1 [0x3E] IF !(Work_Zone[9] bit 25*) GOTO 0x00C0
 11: 0x00B8 [0x03] ExtData[1]->WorkLocal[16] = 2*
 12: 0x00BD [0x01] GOTO 0x00D4
 13: 0x00C0 [0x3E] IF !(Work_Zone[9] bit 26*) GOTO 0x00CF
 14: 0x00C7 [0x03] ExtData[1]->WorkLocal[16] = 1*
 15: 0x00CC [0x01] GOTO 0x00D4
 16: 0x00CF [0x03] ExtData[1]->WorkLocal[16] = 0*

SUBROUTINE_00D4:
 17: 0x00D4 [0x41] ExtData[1]->WorkLocal[7] = Work_Zone[9] (bits 1*-4*)
 18: 0x00DD [0x41] ExtData[1]->WorkLocal[8] = Work_Zone[9] (bits 5*-8*)
 19: 0x00E6 [0x41] ExtData[1]->WorkLocal[9] = Work_Zone[9] (bits 9*-12*)
 20: 0x00EF [0x41] ExtData[1]->WorkLocal[10] = Work_Zone[9] (bits 13*-16*)
 21: 0x00F8 [0x02] IF !(ExtData[1]->WorkLocal[7] == 0*) GOTO 0x0105
 22: 0x0100 [0x03] ExtData[1]->WorkLocal[7] = 1*
 23: 0x0105 [0x02] IF !(ExtData[1]->WorkLocal[8] == 0*) GOTO 0x0112
 24: 0x010D [0x03] ExtData[1]->WorkLocal[8] = 1*
 25: 0x0112 [0x02] IF !(ExtData[1]->WorkLocal[9] == 0*) GOTO 0x011F
 26: 0x011A [0x03] ExtData[1]->WorkLocal[9] = 1*
 27: 0x011F [0x02] IF !(ExtData[1]->WorkLocal[10] == 0*) GOTO 0x012C
 28: 0x0127 [0x03] ExtData[1]->WorkLocal[10] = 1*
 29: 0x012C [0x41] Work_Zone[3] = ExtData[1]->WorkLocal[5] (bits 0*-5*)
 30: 0x0135 [0x41] Work_Zone[4] = ExtData[1]->WorkLocal[5] (bits 6*-11*)
 31: 0x013E [0x41] Work_Zone[5] = ExtData[1]->WorkLocal[5] (bits 12*-17*)
 32: 0x0147 [0x41] Work_Zone[6] = ExtData[1]->WorkLocal[5] (bits 18*-23*)
 33: 0x0150 [0x41] Work_Zone[7] = ExtData[1]->WorkLocal[5] (bits 24*-29*)
 34: 0x0159 [0x03] ExtData[1]->WorkLocal[15] = 0*
 35: 0x015E [0x1E] EventEntity looks at LocalPlayer and starts talking
 36: 0x0163 [0x1D] PRINT_EVENT_MESSAGE(message_id=7869*)
    → "I am Teilsa, one of the faithful. Ever do I seek the way to Paradise."
 37: 0x0166 [0x23] WAIT_FOR_DIALOG_INTERACTION
 38: 0x0167 [0x03] ExtData[1]->WorkLocal[15] = 512*
 39: 0x016C [0x03] Work_Zone[9] = 1*
 40: 0x0171 [0x03] ExtData[1]->WorkLocal[14] = 0*

SUBROUTINE_0176:
 41: 0x0176 [0x02] IF !(ExtData[1]->WorkLocal[14] == 0*) GOTO 0x1CE9
 42: 0x017E [0x2E] SET_CLI_EVENT_CANCEL_FLAGS()
 43: 0x017F [0x24] CREATE_DIALOG(message_id=11819*, default_option=0*, option_flags=ExtData[1]->WorkLocal[15])
    → "Inquire about what? [I want to find some quests!/I want to try the tutorial event!/Teach me about Records of Eminence!/Teach me about the Trust initiative!/I want a map of the area I'm in!/I want maps of the whole city!/How do I give items to people?/How do I fight outside town?/What are quests and missions?/Tell me more about Southern San d'Oria!/I have other questions./Nothing for now.]"
 44: 0x0186 [0x25] WAIT_DIALOG_SELECT()
 45: 0x0187 [0x02] IF !(Work_Zone[0] == 0*) GOTO 0x18AB
 46: 0x018F [0x02] IF !(ExtData[1]->WorkLocal[6] == 1*) GOTO 0x019D
 47: 0x0197 [0x1A] CALL_SUBROUTINE(address=0x1CF2)
 48: 0x019A [0x01] GOTO 0x18A4
 49: 0x019D [0x1D] PRINT_EVENT_MESSAGE(message_id=11845*)
    → "Though I wish the situation were less dire, there exist many who require your aid. Do you wish to reference the materials I have gathered on them?"
 50: 0x01A0 [0x23] WAIT_FOR_DIALOG_INTERACTION
 51: 0x01A1 [0x02] IF !(ExtData[1]->WorkLocal[0] == 4294967295*) GOTO 0x01B5
 52: 0x01A9 [0x03] Work_Zone[3] = 0*
 53: 0x01AE [0x3D] CLEAR_BIT_FLAG_CONDITIONAL(target_work_offset=ExtData[1]->WorkLocal[0], bit_index_work_offset=0*, condition_work_offset=1*)
 54: 0x01B5 [0x02] IF !(ExtData[1]->WorkLocal[1] == 4294967295*) GOTO 0x01C9
 55: 0x01BD [0x03] Work_Zone[4] = 0*
 56: 0x01C2 [0x3D] CLEAR_BIT_FLAG_CONDITIONAL(target_work_offset=ExtData[1]->WorkLocal[1], bit_index_work_offset=0*, condition_work_offset=1*)
 57: 0x01C9 [0x02] IF !(ExtData[1]->WorkLocal[2] == 4294967295*) GOTO 0x01DD
 58: 0x01D1 [0x03] Work_Zone[5] = 0*
 59: 0x01D6 [0x3D] CLEAR_BIT_FLAG_CONDITIONAL(target_work_offset=ExtData[1]->WorkLocal[2], bit_index_work_offset=0*, condition_work_offset=1*)
 60: 0x01DD [0x02] IF !(ExtData[1]->WorkLocal[3] == 4294967295*) GOTO 0x01F1
 61: 0x01E5 [0x03] Work_Zone[6] = 0*
 62: 0x01EA [0x3D] CLEAR_BIT_FLAG_CONDITIONAL(target_work_offset=ExtData[1]->WorkLocal[3], bit_index_work_offset=0*, condition_work_offset=1*)
 63: 0x01F1 [0x03] ExtData[1]->WorkLocal[12] = 1*

SUBROUTINE_01F6:
 64: 0x01F6 [0x02] IF !(ExtData[1]->WorkLocal[12] <= 0*) GOTO 0x18A4
 65: 0x01FE [0x41] Work_Zone[3] = ExtData[1]->WorkLocal[5] (bits 0*-5*)
 66: 0x0207 [0x41] Work_Zone[4] = ExtData[1]->WorkLocal[5] (bits 6*-11*)
 67: 0x0210 [0x41] Work_Zone[5] = ExtData[1]->WorkLocal[5] (bits 12*-17*)
 68: 0x0219 [0x41] Work_Zone[6] = ExtData[1]->WorkLocal[5] (bits 18*-23*)
 69: 0x0222 [0x41] Work_Zone[7] = ExtData[1]->WorkLocal[5] (bits 24*-29*)
 70: 0x022B [0x03] Work_Zone[2] = 0*
 71: 0x0230 [0x02] IF !(Work_Zone[3] == 0*) GOTO 0x023F
 72: 0x0238 [0x3C] SET_BIT_FLAG_CONDITIONAL(target_work_offset=Work_Zone[2], bit_index_work_offset=1*, condition_work_offset=1*)
 73: 0x023F [0x02] IF !(Work_Zone[4] == 0*) GOTO 0x024E
 74: 0x0247 [0x3C] SET_BIT_FLAG_CONDITIONAL(target_work_offset=Work_Zone[2], bit_index_work_offset=2*, condition_work_offset=1*)
 75: 0x024E [0x02] IF !(Work_Zone[5] == 0*) GOTO 0x025D
 76: 0x0256 [0x3C] SET_BIT_FLAG_CONDITIONAL(target_work_offset=Work_Zone[2], bit_index_work_offset=3*, condition_work_offset=1*)
 77: 0x025D [0x02] IF !(Work_Zone[6] == 0*) GOTO 0x026C
 78: 0x0265 [0x3C] SET_BIT_FLAG_CONDITIONAL(target_work_offset=Work_Zone[2], bit_index_work_offset=4*, condition_work_offset=1*)
 79: 0x026C [0x02] IF !(Work_Zone[7] == 0*) GOTO 0x027B
 80: 0x0274 [0x3C] SET_BIT_FLAG_CONDITIONAL(target_work_offset=Work_Zone[2], bit_index_work_offset=5*, condition_work_offset=1*)
 81: 0x027B [0x2E] SET_CLI_EVENT_CANCEL_FLAGS()
 82: 0x027C [0x24] CREATE_DIALOG(message_id=11846*, default_option=0*, option_flags=Work_Zone[2])
    → "Inquire about which locale? [None./Southern San d'Oria: $1 individual[/s]./Northern San d'Oria: $2 individual[/s]./Port San d'Oria: $3 individual[/s]./Chateau d'Oraguille: $4 individual[/s].]"
 83: 0x0283 [0x25] WAIT_DIALOG_SELECT()
 84: 0x0284 [0x02] IF !(Work_Zone[0] == 0*) GOTO 0x0342
 85: 0x028C [0x06] ExtData[1]->WorkLocal[12] = 0
 86: 0x028F [0x03] Work_Zone[9] = 0*
 87: 0x0294 [0x1D] PRINT_EVENT_MESSAGE(message_id=11856*)
    → "I have saved a rather paramount detail for last. Allow me to explain."
 88: 0x0297 [0x23] WAIT_FOR_DIALOG_INTERACTION
 89: 0x0298 [0x13] ExtData[1]->WorkLocal[13] = rand() % 10*
 90: 0x029D [0x02] IF !(ExtData[1]->WorkLocal[13] == 0*) GOTO 0x02AC
 91: 0x02A5 [0x1D] PRINT_EVENT_MESSAGE(message_id=11860*)
    → "You may teleport between these crystalline nodes called "home points" for efficient travel. Be sure to examine any you stumble upon."
 92: 0x02A8 [0x23] WAIT_FOR_DIALOG_INTERACTION
 93: 0x02A9 [0x01] GOTO 0x033F
 94: 0x02AC [0x02] IF !(ExtData[1]->WorkLocal[13] == 1*) GOTO 0x02BB
 95: 0x02B4 [0x1D] PRINT_EVENT_MESSAGE(message_id=11864*)
    → "Remember to purchase a map from the appropriate vendor before going to a faraway land. If you do, you can check your location within that place."
 96: 0x02B7 [0x23] WAIT_FOR_DIALOG_INTERACTION
 97: 0x02B8 [0x01] GOTO 0x033F
 98: 0x02BB [0x02] IF !(ExtData[1]->WorkLocal[13] == 2*) GOTO 0x02CA
 99: 0x02C3 [0x1D] PRINT_EVENT_MESSAGE(message_id=11868*)
    → "I advise you to put any unwanted goods up for sale at the auction house rather than be taken advantage of by the vendors here."
100: 0x02C6 [0x23] WAIT_FOR_DIALOG_INTERACTION
101: 0x02C7 [0x01] GOTO 0x033F
102: 0x02CA [0x02] IF !(ExtData[1]->WorkLocal[13] == 3*) GOTO 0x02D9
103: 0x02D2 [0x1D] PRINT_EVENT_MESSAGE(message_id=11872*)
    → "The undead often assault adventurers with low HP, which is all the more reason to never let your guard down in the wilderness."
104: 0x02D5 [0x23] WAIT_FOR_DIALOG_INTERACTION
105: 0x02D6 [0x01] GOTO 0x033F
106: 0x02D9 [0x02] IF !(ExtData[1]->WorkLocal[13] == 4*) GOTO 0x02E8
107: 0x02E1 [0x1D] PRINT_EVENT_MESSAGE(message_id=11876*)
    → "Increasing your strength (STR) enhances your attack power, but--regrettably--does nothing for your magic attack."
108: 0x02E4 [0x23] WAIT_FOR_DIALOG_INTERACTION
109: 0x02E5 [0x01] GOTO 0x033F
110: 0x02E8 [0x02] IF !(ExtData[1]->WorkLocal[13] == 5*) GOTO 0x02F7
111: 0x02F0 [0x1D] PRINT_EVENT_MESSAGE(message_id=11880*)
    → "Increasing your dexterity (DEX) improves such faculties as accuracy and critical hit rate."
112: 0x02F3 [0x23] WAIT_FOR_DIALOG_INTERACTION
113: 0x02F4 [0x01] GOTO 0x033F
114: 0x02F7 [0x02] IF !(ExtData[1]->WorkLocal[13] == 6*) GOTO 0x0306
115: 0x02FF [0x1D] PRINT_EVENT_MESSAGE(message_id=11884*)
    → "Increasing your vitality (VIT) improves such faculties as physical defense and the potency of restorative abilities like Cure."
116: 0x0302 [0x23] WAIT_FOR_DIALOG_INTERACTION
117: 0x0303 [0x01] GOTO 0x033F
118: 0x0306 [0x02] IF !(ExtData[1]->WorkLocal[13] == 7*) GOTO 0x0315
119: 0x030E [0x1D] PRINT_EVENT_MESSAGE(message_id=11888*)
    → "Increasing your agility (AGI) improves such faculties as physical evasion and ranged accuracy. It also reduces enemies' critical hit evasion."
120: 0x0311 [0x23] WAIT_FOR_DIALOG_INTERACTION
121: 0x0312 [0x01] GOTO 0x033F
122: 0x0315 [0x02] IF !(ExtData[1]->WorkLocal[13] == 8*) GOTO 0x0324
123: 0x031D [0x1D] PRINT_EVENT_MESSAGE(message_id=11892*)
    → "Increasing your intelligence (INT) improves such faculties as the accuracy and damage of your elemental magic spells."
124: 0x0320 [0x23] WAIT_FOR_DIALOG_INTERACTION
125: 0x0321 [0x01] GOTO 0x033F
126: 0x0324 [0x02] IF !(ExtData[1]->WorkLocal[13] == 9*) GOTO 0x0333
127: 0x032C [0x1D] PRINT_EVENT_MESSAGE(message_id=11896*)
    → "Mind (MND) improves such faculties as the potency of healing spells and the accuracy of white magic spells."
128: 0x032F [0x23] WAIT_FOR_DIALOG_INTERACTION
129: 0x0330 [0x01] GOTO 0x033F
130: 0x0333 [0x02] IF !(ExtData[1]->WorkLocal[13] == 10*) GOTO 0x033F
131: 0x033B [0x1D] PRINT_EVENT_MESSAGE(message_id=11900*)
    → "Charisma (CHR) improves such faculties as the effectiveness of the beastmaster ability "charm" and the accuracy of bards' songs."
132: 0x033E [0x23] WAIT_FOR_DIALOG_INTERACTION

SUBROUTINE_033F:
133: 0x033F [0x01] GOTO 0x18A1
134: 0x0342 [0x02] IF !(Work_Zone[0] == 1*) GOTO 0x0AE4
135: 0x034A [0x03] Work_Zone[2] = 0*
136: 0x034F [0x1D] PRINT_EVENT_MESSAGE(message_id=11847*)
    → "The following individuals are likely to request your assistance if you are to speak to them."
137: 0x0352 [0x23] WAIT_FOR_DIALOG_INTERACTION
138: 0x0353 [0x03] ExtData[1]->WorkLocal[11] = 1*

SUBROUTINE_0358:
139: 0x0358 [0x02] IF !(ExtData[1]->WorkLocal[11] <= 0*) GOTO 0x0AE1
140: 0x0360 [0x03] Work_Zone[8] = ExtData[1]->WorkLocal[7]
141: 0x0365 [0x07] Work_Zone[8] += 10*
142: 0x036A [0x03] Work_Zone[1] = Work_Zone[8]
143: 0x036F [0x43] SEND_EVENT_UPDATE: Send pending tag to server (packet 0x005B)
144: 0x0371 [0x43] SEND_EVENT_UPDATE: Check pending flag (skip if not pending)
145: 0x0373 [0x2E] SET_CLI_EVENT_CANCEL_FLAGS()
146: 0x0374 [0x24] CREATE_DIALOG(message_id=11848*, default_option=0*, option_flags=ExtData[1]->WorkLocal[0])
    → "Who will you go see in Southern San d'Oria? [No one./Glenne./Rosel./Raimbroy./Andecia./Parvipon./Legata./Amutiyaal./Atelloune./Maugie./Hanaa Punaa./Gondebaud./Balasiel./Balasiel./Hanaa Punaa./Helbort./Sobane./Norejaie./Paouala./Taumila./Hanaa Punaa./Balasiel./Femitte./Amaura./Deraquien./Sobane./Sharzalion./Balasiel./Rouva.]"
147: 0x037B [0x25] WAIT_DIALOG_SELECT()
148: 0x037C [0x02] IF !(Work_Zone[0] == 0*) GOTO 0x038A
149: 0x0384 [0x06] ExtData[1]->WorkLocal[11] = 0
150: 0x0387 [0x01] GOTO 0x0ADE
151: 0x038A [0x02] IF !(Work_Zone[0] == 1*) GOTO 0x03CD
152: 0x0392 [0x42] SET_CLI_EVENT_CANCEL_DATA()
153: 0x0393 [0x89] OPEN_MAP(map_id=0x00008030)
154: 0x0396 [0x1C] WAIT(30* ticks)
155: 0x0399 [0x8B] SET_EVENT_MARK: Add/update map marker on map 230* at (-125.709*, 14.805*), index=ExtData[1]->WorkLocal[7], name=(no name)
156: 0x03A2 [0x47] WAIT_PLAYER_POS_UPDATE
157: 0x03A4 [0x65] CALCULATE_3D_DISTANCE(result=0x6E6E, entity1=Unknown NPC (ID: 101/0x00000065), entity2=Unknown NPC (ID: 0/0x00000000))
158: 0x03AF [0x00] END_REQSTACK()

SUBROUTINE_0ADE:
159: 0x0ADE [0x01] GOTO 0x0358
160: 0x0AE1 [0x01] GOTO 0x18A1
161: 0x0AE4 [0x02] IF !(Work_Zone[0] == 2*) GOTO 0x1200
162: 0x0AEC [0x03] Work_Zone[2] = 1*
163: 0x0AF1 [0x1D] PRINT_EVENT_MESSAGE(message_id=11847*)
    → "The following individuals are likely to request your assistance if you are to speak to them."
164: 0x0AF4 [0x23] WAIT_FOR_DIALOG_INTERACTION
165: 0x0AF5 [0x03] ExtData[1]->WorkLocal[11] = 1*

SUBROUTINE_0AFA:
166: 0x0AFA [0x02] IF !(ExtData[1]->WorkLocal[11] <= 0*) GOTO 0x11FD
167: 0x0B02 [0x03] Work_Zone[8] = ExtData[1]->WorkLocal[8]
168: 0x0B07 [0x07] Work_Zone[8] += 20*
169: 0x0B0C [0x03] Work_Zone[1] = Work_Zone[8]
170: 0x0B11 [0x43] SEND_EVENT_UPDATE: Send pending tag to server (packet 0x005B)
171: 0x0B13 [0x43] SEND_EVENT_UPDATE: Check pending flag (skip if not pending)
172: 0x0B15 [0x2E] SET_CLI_EVENT_CANCEL_FLAGS()
173: 0x0B16 [0x24] CREATE_DIALOG(message_id=11849*, default_option=0*, option_flags=ExtData[1]->WorkLocal[1])
    → "Who will you go see in Northern San d'Oria? [No one./Miageau./Ailbeche./Abeaule./Abioleget./Secodiand./Kuu Mohzolhi./Ramua./Someone atop the tower./Pagisalis./Someone atop the tower./Olbergieut./Abeaule./Maloquedil./Someone atop the tower./Morjean./Eperdur./Eperdur./Vamorcote./Belgidiveau./Gulmama./Rondipur./Castilchat./Narcheral./Ailbeche./Ailbeche./Miaux.]"
174: 0x0B1D [0x25] WAIT_DIALOG_SELECT()
175: 0x0B1E [0x02] IF !(Work_Zone[0] == 0*) GOTO 0x0B2C
176: 0x0B26 [0x06] ExtData[1]->WorkLocal[11] = 0
177: 0x0B29 [0x01] GOTO 0x11FA
178: 0x0B2C [0x02] IF !(Work_Zone[0] == 1*) GOTO 0x0B6F
179: 0x0B34 [0x42] SET_CLI_EVENT_CANCEL_DATA()
180: 0x0B35 [0x89] OPEN_MAP(map_id=0x00008067)
181: 0x0B38 [0x1C] WAIT(30* ticks)
182: 0x0B3B [0x8B] SET_EVENT_MARK: Add/update map marker on map 231* at (114.070*, 109.215*), index=ExtData[1]->WorkLocal[8], name=(no name)
183: 0x0B44 [0x4D] EventEntity->StatusEvent = 9 // Close door
184: 0x0B45 [0x69] SET_SOUND_VOLUME: Mute Effects/System/Zone
185: 0x0B49 [0x61] EventEntity->Render.Flags2 |= 0x00000001
186: 0x0B4B [0x00] END_REQSTACK()

SUBROUTINE_11FA:
187: 0x11FA [0x01] GOTO 0x0AFA
188: 0x11FD [0x01] GOTO 0x18A1
189: 0x1200 [0x02] IF !(Work_Zone[0] == 3*) GOTO 0x15B5
190: 0x1208 [0x03] Work_Zone[2] = 2*
191: 0x120D [0x1D] PRINT_EVENT_MESSAGE(message_id=11847*)
    → "The following individuals are likely to request your assistance if you are to speak to them."
192: 0x1210 [0x23] WAIT_FOR_DIALOG_INTERACTION
193: 0x1211 [0x03] ExtData[1]->WorkLocal[11] = 1*

SUBROUTINE_1216:
194: 0x1216 [0x02] IF !(ExtData[1]->WorkLocal[11] <= 0*) GOTO 0x15B2
195: 0x121E [0x03] Work_Zone[8] = ExtData[1]->WorkLocal[9]
196: 0x1223 [0x07] Work_Zone[8] += 30*
197: 0x1228 [0x03] Work_Zone[1] = Work_Zone[8]
198: 0x122D [0x43] SEND_EVENT_UPDATE: Send pending tag to server (packet 0x005B)
199: 0x122F [0x43] SEND_EVENT_UPDATE: Check pending flag (skip if not pending)
200: 0x1231 [0x2E] SET_CLI_EVENT_CANCEL_FLAGS()
201: 0x1232 [0x24] CREATE_DIALOG(message_id=11850*, default_option=0*, option_flags=ExtData[1]->WorkLocal[2])
    → "$3A$3$3g$3m[(Antreneau) Who will you go see in Port San d'Oria? [No one./Altiret./Gulemont./Fontoumant./Regine./Gallijaux./Joulet./Nogelle./Antreneau./Vounebariont./Portaure./Antreneau./Ceraulian./Eddy.]"
202: 0x1239 [0x25] WAIT_DIALOG_SELECT()
203: 0x123A [0x02] IF !(Work_Zone[0] == 0*) GOTO 0x1248
204: 0x1242 [0x06] ExtData[1]->WorkLocal[11] = 0
205: 0x1245 [0x01] GOTO 0x15AF
206: 0x1248 [0x02] IF !(Work_Zone[0] == 1*) GOTO 0x128B
207: 0x1250 [0x42] SET_CLI_EVENT_CANCEL_DATA()
208: 0x1251 [0x89] OPEN_MAP(map_id=0x00008092)
209: 0x1254 [0x1C] WAIT(30* ticks)
210: 0x1257 [0x8B] SET_EVENT_MARK: Add/update map marker on map 232* at (21.263*, -65.776*), index=ExtData[1]->WorkLocal[9], name=(no name)
211: 0x1260 [0x41] ExtData[1]->WorkLocal[0] = 0x7465 (bits 0x746C-0x7269)
212: 0x1269 [0x00] END_REQSTACK()

SUBROUTINE_15AF:
213: 0x15AF [0x01] GOTO 0x1216
214: 0x15B2 [0x01] GOTO 0x18A1
215: 0x15B5 [0x02] IF !(Work_Zone[0] == 4*) GOTO 0x18A1
216: 0x15BD [0x03] Work_Zone[2] = 3*
217: 0x15C2 [0x1D] PRINT_EVENT_MESSAGE(message_id=11847*)
    → "The following individuals are likely to request your assistance if you are to speak to them."
218: 0x15C5 [0x23] WAIT_FOR_DIALOG_INTERACTION
219: 0x15C6 [0x03] ExtData[1]->WorkLocal[11] = 1*

SUBROUTINE_15CB:
220: 0x15CB [0x02] IF !(ExtData[1]->WorkLocal[11] <= 0*) GOTO 0x189E
221: 0x15D3 [0x03] Work_Zone[8] = ExtData[1]->WorkLocal[10]
222: 0x15D8 [0x07] Work_Zone[8] += 40*
223: 0x15DD [0x03] Work_Zone[1] = Work_Zone[8]
224: 0x15E2 [0x43] SEND_EVENT_UPDATE: Send pending tag to server (packet 0x005B)
225: 0x15E4 [0x43] SEND_EVENT_UPDATE: Check pending flag (skip if not pending)
226: 0x15E6 [0x2E] SET_CLI_EVENT_CANCEL_FLAGS()
227: 0x15E7 [0x24] CREATE_DIALOG(message_id=11851*, default_option=0*, option_flags=ExtData[1]->WorkLocal[3])
    → "Who will you go see in Chateau d'Oraguille? [No one./Halver./Curilla./Chalvatot./Curilla./Curilla./Someone beyond the door./Rahal./Curilla./Someone beyond the door./Someone beyond the door.]"
228: 0x15EE [0x25] WAIT_DIALOG_SELECT()
229: 0x15EF [0x02] IF !(Work_Zone[0] == 0*) GOTO 0x15FD
230: 0x15F7 [0x06] ExtData[1]->WorkLocal[11] = 0
231: 0x15FA [0x01] GOTO 0x189B
232: 0x15FD [0x02] IF !(Work_Zone[0] == 1*) GOTO 0x1640
233: 0x1605 [0x42] SET_CLI_EVENT_CANCEL_DATA()
234: 0x1606 [0x89] OPEN_MAP(map_id=0x000080AD)
235: 0x1609 [0x1C] WAIT(30* ticks)
236: 0x160C [0x8B] SET_EVENT_MARK: Add/update map marker on map 233* at (2.420*, 1.966*), index=ExtData[1]->WorkLocal[10], name=(no name)
237: 0x1615 [0x48] [System] [0x6C61]:
238: 0x1618 [0x76] CHECK_ENTITY_RENDER_FLAGS: Wait until Unknown NPC (ID: 29285/0x00007265) Render.Flags0 and Render.Flags3 conditions are met
239: 0x161D [0x00] END_REQSTACK()

SUBROUTINE_189B:
240: 0x189B [0x01] GOTO 0x15CB
241: 0x189E [0x01] GOTO 0x18A1

SUBROUTINE_18A1:
242: 0x18A1 [0x01] GOTO 0x01F6

SUBROUTINE_18A4:
243: 0x18A4 [0x20] SET_CLI_EVENT_UC_FLAG: Unlock player control
244: 0x18A6 [0x21] END_EVENT
245: 0x18A7 [0x00] END_REQSTACK()

SUBROUTINE_1AA5:
246: 0x1AA5 [0x01] GOTO 0x1CE6
247: 0x1AA8 [0x02] IF !(Work_Zone[0] == 3*) GOTO 0x1B50
248: 0x1AB0 [0x66] LOAD_EXT_SCHEDULER_MAIN: Load scheduler "tlk0" with entities [EventEntity, EventEntity], work=30*
249: 0x1ABF [0x1D] PRINT_EVENT_MESSAGE(message_id=11838*)
    → "The Trust initiative is a special magic regimen developed by one of the world's finest academies of magic."
250: 0x1AC2 [0x23] WAIT_FOR_DIALOG_INTERACTION
251: 0x1AC3 [0x1D] PRINT_EVENT_MESSAGE(message_id=11839*)
    → "Those who successfully undergo training will be bestowed with the ability to call forth powerful allies into battle."
252: 0x1AC6 [0x23] WAIT_FOR_DIALOG_INTERACTION
253: 0x1AC7 [0x66] LOAD_EXT_SCHEDULER_MAIN: Load scheduler "tlk1" with entities [EventEntity, EventEntity], work=30*
254: 0x1AD6 [0x02] IF !(LocalPlayer->JobLevel < 5*) GOTO 0x1B49
255: 0x1ADE [0x02] IF !(ExtData[1]->WorkLocal[6] == 1*) GOTO 0x1AF7
256: 0x1AE6 [0x03] Work_Zone[9] = 0*
257: 0x1AEB [0x1D] PRINT_EVENT_MESSAGE(message_id=11820*)
    → "I can mark the locations of important people on your map of the San d'Oria area, should you require it."
258: 0x1AEE [0x23] WAIT_FOR_DIALOG_INTERACTION
259: 0x1AEF [0x03] Work_Zone[9] = 1*
260: 0x1AF4 [0x01] GOTO 0x1B46
261: 0x1AF7 [0x42] SET_CLI_EVENT_CANCEL_DATA()
262: 0x1AF8 [0x89] OPEN_MAP(map_id=0x00008030)
263: 0x1AFB [0x1C] WAIT(30* ticks)
264: 0x1AFE [0x8B] SET_EVENT_MARK: Add/update map marker on map 230* at (123.754*, 92.125*), index=1*, name=(no name)
265: 0x1B07 [0x47] WAIT_PLAYER_POS_UPDATE
266: 0x1B09 [0x6E] Unknown NPC (ID: 1633838436/0x61626564) uses emote 0x6475
267: 0x1B10 [0x00] END_REQSTACK()

SUBROUTINE_1B46:
268: 0x1B46 [0x01] GOTO 0x1B4D
269: 0x1B49 [0x1D] PRINT_EVENT_MESSAGE(message_id=11840*)
    → "Only adventurers who have proven their worth by achieving level five are eligible to participate. I will provide you with further information when you reach that landmark."
270: 0x1B4C [0x23] WAIT_FOR_DIALOG_INTERACTION

SUBROUTINE_1B4D:
271: 0x1B4D [0x01] GOTO 0x1CE6
272: 0x1B50 [0x02] IF !(Work_Zone[0] == 4*) GOTO 0x1BCB
273: 0x1B58 [0x42] SET_CLI_EVENT_CANCEL_DATA()
274: 0x1B59 [0xC8] OPEN_MAP_WINDOW(zone=0x8092, submap=0x8007, flag=0x8008)
275: 0x1B60 [0x8B] SET_EVENT_MARK: Add/update map marker on map 232* at (-83.592*, -100.791*), index=0*, name=(no name)
276: 0x1B69 [0x54] WAIT_MAP_SCHEDULER: Wait for scheduler 0x00000000 with entities [Unknown NPC (ID: 1936484709/0x736C6965), Unknown NPC (ID: 97/0x00000061)]
277: 0x1B76 [0x00] END_REQSTACK()

SUBROUTINE_1CE6:
278: 0x1CE6 [0x01] GOTO 0x0176
279: 0x1CE9 [0x5E] EventEntity goes idle (kills current action) (animation: "idl0")
280: 0x1CEE [0x20] SET_CLI_EVENT_UC_FLAG: Unlock player control
281: 0x1CF0 [0x21] END_EVENT
282: 0x1CF1 [0x00] END_REQSTACK()

SUBROUTINE_1CF2:
283: 0x1CF2 [0x66] LOAD_EXT_SCHEDULER_MAIN: Load scheduler "tlk0" with entities [EventEntity, EventEntity], work=30*
284: 0x1D01 [0x03] Work_Zone[9] = 0*
285: 0x1D06 [0x1D] PRINT_EVENT_MESSAGE(message_id=11820*)
    → "I can mark the locations of important people on your map of the San d'Oria area, should you require it."
286: 0x1D09 [0x23] WAIT_FOR_DIALOG_INTERACTION
287: 0x1D0A [0x1D] PRINT_EVENT_MESSAGE(message_id=11823*)
    → "There are people willing to sell you maps in both Northern and Southern San d'Oria, but the vendor in Northern San d'Oria is closer...if you are in a hurry."
288: 0x1D0D [0x23] WAIT_FOR_DIALOG_INTERACTION
289: 0x1D0E [0x1D] PRINT_EVENT_MESSAGE(message_id=11827*)
    → "To rendezvous with her, ascend the stairs that lead southwest, which should take you to Northern San d'Oria."
290: 0x1D11 [0x23] WAIT_FOR_DIALOG_INTERACTION
291: 0x1D12 [0x66] LOAD_EXT_SCHEDULER_MAIN: Load scheduler "tlk1" with entities [EventEntity, EventEntity], work=30*
292: 0x1D21 [0x1B] RETURN
```

#### Data or dead code:

```
# Dead code (unreachable instructions):
     0x03B0 [0x00] END_REQSTACK()
     0x03B1 [0x00] END_REQSTACK()
     0x03B2 [0x02] IF !(ExtData[1]->WorkLocal[7] >= 9*) GOTO 0x03BF
     0x03BA [0x07] ExtData[1]->WorkLocal[7] += 1*
     0x03BF [0x1C] WAIT(30* ticks)
     0x03C2 [0x1D] PRINT_EVENT_MESSAGE(message_id=11852*)
    → "Allow me to make things easier for you and mark their location on your map."
     0x03C5 [0x23] WAIT_FOR_DIALOG_INTERACTION
     0x03C6 [0x8A] CLOSE_MAP()
     0x03C7 [0x1C] WAIT(30* ticks)
     0x03CA [0x01] GOTO 0x0ADE
     0x03F5 [0x02] IF !(ExtData[1]->WorkLocal[7] >= 9*) GOTO 0x0402
     0x03FD [0x07] ExtData[1]->WorkLocal[7] += 1*
     0x0402 [0x1C] WAIT(30* ticks)
     0x0405 [0x1D] PRINT_EVENT_MESSAGE(message_id=11852*)
    → "Allow me to make things easier for you and mark their location on your map."
     0x0408 [0x23] WAIT_FOR_DIALOG_INTERACTION
     0x0409 [0x8A] CLOSE_MAP()
     0x040A [0x1C] WAIT(30* ticks)
     0x040D [0x01] GOTO 0x0ADE
     0x0438 [0x02] IF !(ExtData[1]->WorkLocal[7] >= 9*) GOTO 0x0445
     0x0440 [0x07] ExtData[1]->WorkLocal[7] += 1*
     0x0445 [0x1C] WAIT(30* ticks)
     0x0448 [0x1D] PRINT_EVENT_MESSAGE(message_id=11852*)
    → "Allow me to make things easier for you and mark their location on your map."
     0x044B [0x23] WAIT_FOR_DIALOG_INTERACTION
     0x044C [0x8A] CLOSE_MAP()
     0x044D [0x1C] WAIT(30* ticks)
     0x0450 [0x01] GOTO 0x0ADE
     0x0475 [0x00] END_REQSTACK()
     0x0476 [0x00] END_REQSTACK()
     0x0477 [0x00] END_REQSTACK()
     0x0478 [0x00] END_REQSTACK()
     0x0479 [0x00] END_REQSTACK()
     0x047A [0x00] END_REQSTACK()
     0x047B [0x02] IF !(ExtData[1]->WorkLocal[7] >= 9*) GOTO 0x0488
     0x0483 [0x07] ExtData[1]->WorkLocal[7] += 1*
     0x0488 [0x1C] WAIT(30* ticks)
     0x048B [0x1D] PRINT_EVENT_MESSAGE(message_id=11852*)
    → "Allow me to make things easier for you and mark their location on your map."
     0x048E [0x23] WAIT_FOR_DIALOG_INTERACTION
     0x048F [0x8A] CLOSE_MAP()
     0x0490 [0x1C] WAIT(30* ticks)
     0x0493 [0x01] GOTO 0x0ADE
     0x04BC [0x00] END_REQSTACK()
     0x04BD [0x00] END_REQSTACK()
     0x04BE [0x02] IF !(ExtData[1]->WorkLocal[7] >= 9*) GOTO 0x04CB
     0x04C6 [0x07] ExtData[1]->WorkLocal[7] += 1*
     0x04CB [0x1C] WAIT(30* ticks)
     0x04CE [0x1D] PRINT_EVENT_MESSAGE(message_id=11852*)
    → "Allow me to make things easier for you and mark their location on your map."
     0x04D1 [0x23] WAIT_FOR_DIALOG_INTERACTION
     0x04D2 [0x8A] CLOSE_MAP()
     0x04D3 [0x1C] WAIT(30* ticks)
     0x04D6 [0x01] GOTO 0x0ADE
     0x04FE [0x00] END_REQSTACK()
     0x04FF [0x00] END_REQSTACK()
     0x0500 [0x00] END_REQSTACK()
     0x0501 [0x02] IF !(ExtData[1]->WorkLocal[7] >= 9*) GOTO 0x050E
     0x0509 [0x07] ExtData[1]->WorkLocal[7] += 1*
     0x050E [0x1C] WAIT(30* ticks)
     0x0511 [0x1D] PRINT_EVENT_MESSAGE(message_id=11852*)
    → "Allow me to make things easier for you and mark their location on your map."
     0x0514 [0x23] WAIT_FOR_DIALOG_INTERACTION
     0x0515 [0x8A] CLOSE_MAP()
     0x0516 [0x1C] WAIT(30* ticks)
     0x0519 [0x01] GOTO 0x0ADE
     0x053E [0x00] END_REQSTACK()
     0x053F [0x00] END_REQSTACK()
     0x0540 [0x00] END_REQSTACK()
     0x0541 [0x00] END_REQSTACK()
     0x0542 [0x00] END_REQSTACK()
     0x0543 [0x00] END_REQSTACK()
     0x0544 [0x02] IF !(ExtData[1]->WorkLocal[7] >= 9*) GOTO 0x0551
     0x054C [0x07] ExtData[1]->WorkLocal[7] += 1*
     0x0551 [0x1C] WAIT(30* ticks)
     0x0554 [0x1D] PRINT_EVENT_MESSAGE(message_id=11852*)
    → "Allow me to make things easier for you and mark their location on your map."
     0x0557 [0x23] WAIT_FOR_DIALOG_INTERACTION
     0x0558 [0x8A] CLOSE_MAP()
     0x0559 [0x1C] WAIT(30* ticks)
     0x055C [0x01] GOTO 0x0ADE
     0x0581 [0x00] END_REQSTACK()
     0x0582 [0x00] END_REQSTACK()
     0x0583 [0x00] END_REQSTACK()
     0x0584 [0x00] END_REQSTACK()
     0x0585 [0x00] END_REQSTACK()
     0x0586 [0x00] END_REQSTACK()
     0x0587 [0x02] IF !(ExtData[1]->WorkLocal[7] >= 9*) GOTO 0x0594
     0x058F [0x07] ExtData[1]->WorkLocal[7] += 1*
     0x0594 [0x1C] WAIT(30* ticks)
     0x0597 [0x1D] PRINT_EVENT_MESSAGE(message_id=11852*)
    → "Allow me to make things easier for you and mark their location on your map."
     0x059A [0x23] WAIT_FOR_DIALOG_INTERACTION
     0x059B [0x8A] CLOSE_MAP()
     0x059C [0x1C] WAIT(30* ticks)
     0x059F [0x01] GOTO 0x0ADE
     0x05C3 [0x00] END_REQSTACK()
     0x05C4 [0x00] END_REQSTACK()
     0x05C5 [0x00] END_REQSTACK()
     0x05C6 [0x00] END_REQSTACK()
     0x05C7 [0x00] END_REQSTACK()
     0x05C8 [0x00] END_REQSTACK()
     0x05C9 [0x00] END_REQSTACK()
     0x05CA [0x02] IF !(ExtData[1]->WorkLocal[7] >= 9*) GOTO 0x05D7
     0x05D2 [0x07] ExtData[1]->WorkLocal[7] += 1*
     0x05D7 [0x1C] WAIT(30* ticks)
     0x05DA [0x1D] PRINT_EVENT_MESSAGE(message_id=11852*)
    → "Allow me to make things easier for you and mark their location on your map."
     0x05DD [0x23] WAIT_FOR_DIALOG_INTERACTION
     0x05DE [0x8A] CLOSE_MAP()
     0x05DF [0x1C] WAIT(30* ticks)
     0x05E2 [0x01] GOTO 0x0ADE
     0x0609 [0x00] END_REQSTACK()
     0x060A [0x00] END_REQSTACK()
     0x060B [0x00] END_REQSTACK()
     0x060C [0x00] END_REQSTACK()
     0x060D [0x02] IF !(ExtData[1]->WorkLocal[7] >= 9*) GOTO 0x061A
     0x0615 [0x07] ExtData[1]->WorkLocal[7] += 1*
     0x061A [0x1C] WAIT(30* ticks)
     0x061D [0x1D] PRINT_EVENT_MESSAGE(message_id=11852*)
    → "Allow me to make things easier for you and mark their location on your map."
     0x0620 [0x23] WAIT_FOR_DIALOG_INTERACTION
     0x0621 [0x8A] CLOSE_MAP()
     0x0622 [0x1C] WAIT(30* ticks)
     0x0625 [0x01] GOTO 0x0ADE
     0x064A [0x00] END_REQSTACK()
     0x064B [0x00] END_REQSTACK()
     0x064C [0x00] END_REQSTACK()
     0x064D [0x00] END_REQSTACK()
     0x064E [0x00] END_REQSTACK()
     0x064F [0x00] END_REQSTACK()
     0x0650 [0x02] IF !(ExtData[1]->WorkLocal[7] >= 9*) GOTO 0x065D
     0x0658 [0x07] ExtData[1]->WorkLocal[7] += 1*
     0x065D [0x1C] WAIT(30* ticks)
     0x0660 [0x1D] PRINT_EVENT_MESSAGE(message_id=11852*)
    → "Allow me to make things easier for you and mark their location on your map."
     0x0663 [0x23] WAIT_FOR_DIALOG_INTERACTION
     0x0664 [0x8A] CLOSE_MAP()
     0x0665 [0x1C] WAIT(30* ticks)
     0x0668 [0x01] GOTO 0x0ADE
     0x068D [0x00] END_REQSTACK()
     0x068E [0x00] END_REQSTACK()
     0x068F [0x00] END_REQSTACK()
     0x0690 [0x00] END_REQSTACK()
     0x0691 [0x00] END_REQSTACK()
     0x0692 [0x00] END_REQSTACK()
     0x0693 [0x02] IF !(ExtData[1]->WorkLocal[7] >= 9*) GOTO 0x06A0
     0x069B [0x07] ExtData[1]->WorkLocal[7] += 1*
     0x06A0 [0x1C] WAIT(30* ticks)
     0x06A3 [0x1D] PRINT_EVENT_MESSAGE(message_id=11852*)
    → "Allow me to make things easier for you and mark their location on your map."
     0x06A6 [0x23] WAIT_FOR_DIALOG_INTERACTION
     0x06A7 [0x8A] CLOSE_MAP()
     0x06A8 [0x1C] WAIT(30* ticks)
     0x06AB [0x01] GOTO 0x0ADE
     0x06D0 [0x00] END_REQSTACK()
     0x06D1 [0x00] END_REQSTACK()
     0x06D2 [0x00] END_REQSTACK()
     0x06D3 [0x00] END_REQSTACK()
     0x06D4 [0x00] END_REQSTACK()
     0x06D5 [0x00] END_REQSTACK()
     0x06D6 [0x02] IF !(ExtData[1]->WorkLocal[7] >= 9*) GOTO 0x06E3
     0x06DE [0x07] ExtData[1]->WorkLocal[7] += 1*
     0x06E3 [0x1C] WAIT(30* ticks)
     0x06E6 [0x1D] PRINT_EVENT_MESSAGE(message_id=11852*)
    → "Allow me to make things easier for you and mark their location on your map."
     0x06E9 [0x23] WAIT_FOR_DIALOG_INTERACTION
     0x06EA [0x8A] CLOSE_MAP()
     0x06EB [0x1C] WAIT(30* ticks)
     0x06EE [0x01] GOTO 0x0ADE
     0x0715 [0x00] END_REQSTACK()
     0x0716 [0x00] END_REQSTACK()
     0x0717 [0x00] END_REQSTACK()
     0x0718 [0x00] END_REQSTACK()
     0x0719 [0x02] IF !(ExtData[1]->WorkLocal[7] >= 9*) GOTO 0x0726
     0x0721 [0x07] ExtData[1]->WorkLocal[7] += 1*
     0x0726 [0x1C] WAIT(30* ticks)
     0x0729 [0x1D] PRINT_EVENT_MESSAGE(message_id=11852*)
    → "Allow me to make things easier for you and mark their location on your map."
     0x072C [0x23] WAIT_FOR_DIALOG_INTERACTION
     0x072D [0x8A] CLOSE_MAP()
     0x072E [0x1C] WAIT(30* ticks)
     0x0731 [0x01] GOTO 0x0ADE
     0x076B [0x80] LOAD_WAIT(entity=Unknown NPC (ID: 595604253/0x2380331D))
     0x0770 [0x8A] CLOSE_MAP()
     0x0771 [0x1C] WAIT(30* ticks)
     0x0774 [0x01] GOTO 0x0ADE
     0x079D [0x00] END_REQSTACK()
     0x079E [0x00] END_REQSTACK()
     0x079F [0x02] IF !(ExtData[1]->WorkLocal[7] >= 9*) GOTO 0x07AC
     0x07A7 [0x07] ExtData[1]->WorkLocal[7] += 1*
     0x07AC [0x1C] WAIT(30* ticks)
     0x07AF [0x1D] PRINT_EVENT_MESSAGE(message_id=11852*)
    → "Allow me to make things easier for you and mark their location on your map."
     0x07B2 [0x23] WAIT_FOR_DIALOG_INTERACTION
     0x07B3 [0x8A] CLOSE_MAP()
     0x07B4 [0x1C] WAIT(30* ticks)
     0x07B7 [0x01] GOTO 0x0ADE
     0x07DD [0x00] END_REQSTACK()
     0x07DE [0x00] END_REQSTACK()
     0x07DF [0x00] END_REQSTACK()
     0x07E0 [0x00] END_REQSTACK()
     0x07E1 [0x00] END_REQSTACK()
     0x07E2 [0x02] IF !(ExtData[1]->WorkLocal[7] >= 9*) GOTO 0x07EF
     0x07EA [0x07] ExtData[1]->WorkLocal[7] += 1*
     0x07EF [0x1C] WAIT(30* ticks)
     0x07F2 [0x1D] PRINT_EVENT_MESSAGE(message_id=11852*)
    → "Allow me to make things easier for you and mark their location on your map."
     0x07F5 [0x23] WAIT_FOR_DIALOG_INTERACTION
     0x07F6 [0x8A] CLOSE_MAP()
     0x07F7 [0x1C] WAIT(30* ticks)
     0x07FA [0x01] GOTO 0x0ADE
     0x0823 [0x00] END_REQSTACK()
     0x0824 [0x00] END_REQSTACK()
     0x0825 [0x02] IF !(ExtData[1]->WorkLocal[7] >= 9*) GOTO 0x0832
     0x082D [0x07] ExtData[1]->WorkLocal[7] += 1*
     0x0832 [0x1C] WAIT(30* ticks)
     0x0835 [0x1D] PRINT_EVENT_MESSAGE(message_id=11852*)
    → "Allow me to make things easier for you and mark their location on your map."
     0x0838 [0x23] WAIT_FOR_DIALOG_INTERACTION
     0x0839 [0x8A] CLOSE_MAP()
     0x083A [0x1C] WAIT(30* ticks)
     0x083D [0x01] GOTO 0x0ADE
     0x0866 [0x00] END_REQSTACK()
     0x0867 [0x00] END_REQSTACK()
     0x0868 [0x02] IF !(ExtData[1]->WorkLocal[7] >= 9*) GOTO 0x0875
     0x0870 [0x07] ExtData[1]->WorkLocal[7] += 1*
     0x0875 [0x1C] WAIT(30* ticks)
     0x0878 [0x1D] PRINT_EVENT_MESSAGE(message_id=11852*)
    → "Allow me to make things easier for you and mark their location on your map."
     0x087B [0x23] WAIT_FOR_DIALOG_INTERACTION
     0x087C [0x8A] CLOSE_MAP()
     0x087D [0x1C] WAIT(30* ticks)
     0x0880 [0x01] GOTO 0x0ADE
     0x08A7 [0x00] END_REQSTACK()
     0x08A8 [0x00] END_REQSTACK()
     0x08A9 [0x00] END_REQSTACK()
     0x08AA [0x00] END_REQSTACK()
     0x08AB [0x02] IF !(ExtData[1]->WorkLocal[7] >= 9*) GOTO 0x08B8
     0x08B3 [0x07] ExtData[1]->WorkLocal[7] += 1*
     0x08B8 [0x1C] WAIT(30* ticks)
     0x08BB [0x1D] PRINT_EVENT_MESSAGE(message_id=11852*)
    → "Allow me to make things easier for you and mark their location on your map."
     0x08BE [0x23] WAIT_FOR_DIALOG_INTERACTION
     0x08BF [0x8A] CLOSE_MAP()
     0x08C0 [0x1C] WAIT(30* ticks)
     0x08C3 [0x01] GOTO 0x0ADE
     0x08E8 [0x00] END_REQSTACK()
     0x08E9 [0x00] END_REQSTACK()
     0x08EA [0x00] END_REQSTACK()
     0x08EB [0x00] END_REQSTACK()
     0x08EC [0x00] END_REQSTACK()
     0x08ED [0x00] END_REQSTACK()
     0x08EE [0x02] IF !(ExtData[1]->WorkLocal[7] >= 9*) GOTO 0x08FB
     0x08F6 [0x07] ExtData[1]->WorkLocal[7] += 1*
     0x08FB [0x1C] WAIT(30* ticks)
     0x08FE [0x1D] PRINT_EVENT_MESSAGE(message_id=11852*)
    → "Allow me to make things easier for you and mark their location on your map."
     0x0901 [0x23] WAIT_FOR_DIALOG_INTERACTION
     0x0902 [0x8A] CLOSE_MAP()
     0x0903 [0x1C] WAIT(30* ticks)
     0x0906 [0x01] GOTO 0x0ADE
     0x092B [0x00] END_REQSTACK()
     0x092C [0x00] END_REQSTACK()
     0x092D [0x00] END_REQSTACK()
     0x092E [0x00] END_REQSTACK()
     0x092F [0x00] END_REQSTACK()
     0x0930 [0x00] END_REQSTACK()
     0x0931 [0x02] IF !(ExtData[1]->WorkLocal[7] >= 9*) GOTO 0x093E
     0x0939 [0x07] ExtData[1]->WorkLocal[7] += 1*
     0x093E [0x1C] WAIT(30* ticks)
     0x0941 [0x1D] PRINT_EVENT_MESSAGE(message_id=11852*)
    → "Allow me to make things easier for you and mark their location on your map."
     0x0944 [0x23] WAIT_FOR_DIALOG_INTERACTION
     0x0945 [0x8A] CLOSE_MAP()
     0x0946 [0x1C] WAIT(30* ticks)
     0x0949 [0x01] GOTO 0x0ADE
     0x096E [0x00] END_REQSTACK()
     0x096F [0x00] END_REQSTACK()
     0x0970 [0x00] END_REQSTACK()
     0x0971 [0x00] END_REQSTACK()
     0x0972 [0x00] END_REQSTACK()
     0x0973 [0x00] END_REQSTACK()
     0x0974 [0x02] IF !(ExtData[1]->WorkLocal[7] >= 9*) GOTO 0x0981
     0x097C [0x07] ExtData[1]->WorkLocal[7] += 1*
     0x0981 [0x1C] WAIT(30* ticks)
     0x0984 [0x1D] PRINT_EVENT_MESSAGE(message_id=11852*)
    → "Allow me to make things easier for you and mark their location on your map."
     0x0987 [0x23] WAIT_FOR_DIALOG_INTERACTION
     0x0988 [0x8A] CLOSE_MAP()
     0x0989 [0x1C] WAIT(30* ticks)
     0x098C [0x01] GOTO 0x0ADE
     0x09B1 [0x00] END_REQSTACK()
     0x09B2 [0x00] END_REQSTACK()
     0x09B3 [0x00] END_REQSTACK()
     0x09B4 [0x00] END_REQSTACK()
     0x09B5 [0x00] END_REQSTACK()
     0x09B6 [0x00] END_REQSTACK()
     0x09B7 [0x02] IF !(ExtData[1]->WorkLocal[7] >= 9*) GOTO 0x09C4
     0x09BF [0x07] ExtData[1]->WorkLocal[7] += 1*
     0x09C4 [0x1C] WAIT(30* ticks)
     0x09C7 [0x1D] PRINT_EVENT_MESSAGE(message_id=11852*)
    → "Allow me to make things easier for you and mark their location on your map."
     0x09CA [0x23] WAIT_FOR_DIALOG_INTERACTION
     0x09CB [0x8A] CLOSE_MAP()
     0x09CC [0x1C] WAIT(30* ticks)
     0x09CF [0x01] GOTO 0x0ADE
     0x09F8 [0x00] END_REQSTACK()
     0x09F9 [0x00] END_REQSTACK()
     0x09FA [0x02] IF !(ExtData[1]->WorkLocal[7] >= 9*) GOTO 0x0A07
     0x0A02 [0x07] ExtData[1]->WorkLocal[7] += 1*
     0x0A07 [0x1C] WAIT(30* ticks)
     0x0A0A [0x1D] PRINT_EVENT_MESSAGE(message_id=11852*)
    → "Allow me to make things easier for you and mark their location on your map."
     0x0A0D [0x23] WAIT_FOR_DIALOG_INTERACTION
     0x0A0E [0x8A] CLOSE_MAP()
     0x0A0F [0x1C] WAIT(30* ticks)
     0x0A12 [0x01] GOTO 0x0ADE
     0x0A3B [0x00] END_REQSTACK()
     0x0A3C [0x00] END_REQSTACK()
     0x0A3D [0x02] IF !(ExtData[1]->WorkLocal[7] >= 9*) GOTO 0x0A4A
     0x0A45 [0x07] ExtData[1]->WorkLocal[7] += 1*
     0x0A4A [0x1C] WAIT(30* ticks)
     0x0A4D [0x1D] PRINT_EVENT_MESSAGE(message_id=11852*)
    → "Allow me to make things easier for you and mark their location on your map."
     0x0A50 [0x23] WAIT_FOR_DIALOG_INTERACTION
     0x0A51 [0x8A] CLOSE_MAP()
     0x0A52 [0x1C] WAIT(30* ticks)
     0x0A55 [0x01] GOTO 0x0ADE
     0x0A7A [0x00] END_REQSTACK()
     0x0A7B [0x00] END_REQSTACK()
     0x0A7C [0x00] END_REQSTACK()
     0x0A7D [0x00] END_REQSTACK()
     0x0A7E [0x00] END_REQSTACK()
     0x0A7F [0x00] END_REQSTACK()
     0x0A80 [0x02] IF !(ExtData[1]->WorkLocal[7] >= 9*) GOTO 0x0A8D
     0x0A88 [0x07] ExtData[1]->WorkLocal[7] += 1*
     0x0A8D [0x1C] WAIT(30* ticks)
     0x0A90 [0x1D] PRINT_EVENT_MESSAGE(message_id=11852*)
    → "Allow me to make things easier for you and mark their location on your map."
     0x0A93 [0x23] WAIT_FOR_DIALOG_INTERACTION
     0x0A94 [0x8A] CLOSE_MAP()
     0x0A95 [0x1C] WAIT(30* ticks)
     0x0A98 [0x01] GOTO 0x0ADE
     0x0AC3 [0x02] IF !(ExtData[1]->WorkLocal[7] >= 9*) GOTO 0x0AD0
     0x0ACB [0x07] ExtData[1]->WorkLocal[7] += 1*
     0x0AD0 [0x1C] WAIT(30* ticks)
     0x0AD3 [0x1D] PRINT_EVENT_MESSAGE(message_id=11852*)
    → "Allow me to make things easier for you and mark their location on your map."
     0x0AD6 [0x23] WAIT_FOR_DIALOG_INTERACTION
     0x0AD7 [0x8A] CLOSE_MAP()
     0x0AD8 [0x1C] WAIT(30* ticks)
     0x0ADB [0x01] GOTO 0x0ADE
# Dead code (unreachable instructions):
     0x0B4C [0x00] END_REQSTACK()
     0x0B4D [0x00] END_REQSTACK()
     0x0B4E [0x00] END_REQSTACK()
     0x0B4F [0x00] END_REQSTACK()
     0x0B50 [0x00] END_REQSTACK()
     0x0B51 [0x00] END_REQSTACK()
     0x0B52 [0x00] END_REQSTACK()
     0x0B53 [0x00] END_REQSTACK()
     0x0B54 [0x02] IF !(ExtData[1]->WorkLocal[8] >= 9*) GOTO 0x0B61
     0x0B5C [0x07] ExtData[1]->WorkLocal[8] += 1*
     0x0B61 [0x1C] WAIT(30* ticks)
     0x0B64 [0x1D] PRINT_EVENT_MESSAGE(message_id=11852*)
    → "Allow me to make things easier for you and mark their location on your map."
     0x0B67 [0x23] WAIT_FOR_DIALOG_INTERACTION
     0x0B68 [0x8A] CLOSE_MAP()
     0x0B69 [0x1C] WAIT(30* ticks)
     0x0B6C [0x01] GOTO 0x11FA
     0x0B91 [0x00] END_REQSTACK()
     0x0B92 [0x00] END_REQSTACK()
     0x0B93 [0x00] END_REQSTACK()
     0x0B94 [0x00] END_REQSTACK()
     0x0B95 [0x00] END_REQSTACK()
     0x0B96 [0x00] END_REQSTACK()
     0x0B97 [0x02] IF !(ExtData[1]->WorkLocal[8] >= 9*) GOTO 0x0BA4
     0x0B9F [0x07] ExtData[1]->WorkLocal[8] += 1*
     0x0BA4 [0x1C] WAIT(30* ticks)
     0x0BA7 [0x1D] PRINT_EVENT_MESSAGE(message_id=11852*)
    → "Allow me to make things easier for you and mark their location on your map."
     0x0BAA [0x23] WAIT_FOR_DIALOG_INTERACTION
     0x0BAB [0x8A] CLOSE_MAP()
     0x0BAC [0x1C] WAIT(30* ticks)
     0x0BAF [0x01] GOTO 0x11FA
     0x0BD4 [0x00] END_REQSTACK()
     0x0BD5 [0x00] END_REQSTACK()
     0x0BD6 [0x00] END_REQSTACK()
     0x0BD7 [0x00] END_REQSTACK()
     0x0BD8 [0x00] END_REQSTACK()
     0x0BD9 [0x00] END_REQSTACK()
     0x0BDA [0x02] IF !(ExtData[1]->WorkLocal[8] >= 9*) GOTO 0x0BE7
     0x0BE2 [0x07] ExtData[1]->WorkLocal[8] += 1*
     0x0BE7 [0x1C] WAIT(30* ticks)
     0x0BEA [0x1D] PRINT_EVENT_MESSAGE(message_id=11852*)
    → "Allow me to make things easier for you and mark their location on your map."
     0x0BED [0x23] WAIT_FOR_DIALOG_INTERACTION
     0x0BEE [0x8A] CLOSE_MAP()
     0x0BEF [0x1C] WAIT(30* ticks)
     0x0BF2 [0x01] GOTO 0x11FA
     0x0C17 [0x00] END_REQSTACK()
     0x0C18 [0x00] END_REQSTACK()
     0x0C19 [0x00] END_REQSTACK()
     0x0C1A [0x00] END_REQSTACK()
     0x0C1B [0x00] END_REQSTACK()
     0x0C1C [0x00] END_REQSTACK()
     0x0C1D [0x02] IF !(ExtData[1]->WorkLocal[8] >= 9*) GOTO 0x0C2A
     0x0C25 [0x07] ExtData[1]->WorkLocal[8] += 1*
     0x0C2A [0x1C] WAIT(30* ticks)
     0x0C2D [0x1D] PRINT_EVENT_MESSAGE(message_id=11852*)
    → "Allow me to make things easier for you and mark their location on your map."
     0x0C30 [0x23] WAIT_FOR_DIALOG_INTERACTION
     0x0C31 [0x8A] CLOSE_MAP()
     0x0C32 [0x1C] WAIT(30* ticks)
     0x0C35 [0x01] GOTO 0x11FA
     0x0C5E [0x00] END_REQSTACK()
     0x0C5F [0x00] END_REQSTACK()
     0x0C60 [0x02] IF !(ExtData[1]->WorkLocal[8] >= 9*) GOTO 0x0C6D
     0x0C68 [0x07] ExtData[1]->WorkLocal[8] += 1*
     0x0C6D [0x1C] WAIT(30* ticks)
     0x0C70 [0x1D] PRINT_EVENT_MESSAGE(message_id=11852*)
    → "Allow me to make things easier for you and mark their location on your map."
     0x0C73 [0x23] WAIT_FOR_DIALOG_INTERACTION
     0x0C74 [0x8A] CLOSE_MAP()
     0x0C75 [0x1C] WAIT(30* ticks)
     0x0C78 [0x01] GOTO 0x11FA
     0x0CA6 [0x0F] 0x0380 ^= 0x0CB0
     0x0CAB [0x07] ExtData[1]->WorkLocal[8] += 1*
     0x0CB0 [0x1C] WAIT(30* ticks)
     0x0CB3 [0x1D] PRINT_EVENT_MESSAGE(message_id=11852*)
    → "Allow me to make things easier for you and mark their location on your map."
     0x0CB6 [0x23] WAIT_FOR_DIALOG_INTERACTION
     0x0CB7 [0x8A] CLOSE_MAP()
     0x0CB8 [0x1C] WAIT(30* ticks)
