# 17727510 - Anton

## Common Data

| Field            | Value                     |
|------------------|---------------------------|
| Zone             | Port San d'Oria (ID: 232) |
| Block Size       | 288 bytes                 |
| Total Events     | 5                         |
| References Count | 11                        |

## List of Events

| Event ID              | Entrypoint   |   Size |   Instructions |
|-----------------------|--------------|--------|----------------|
| [65535](#event-65535) | 0x0000       |      1 |              1 |
| [517](#event-517)     | 0x0001       |     41 |             11 |
| [716](#event-716)     | 0x002A       |     41 |             11 |
| [604](#event-604)     | 0x0053       |    121 |             21 |
| [613](#event-613)     | 0x00CC       |      1 |              1 |

## DAT References (imed_data)

|   Index | Hex Value   |   Dec Value |
|---------|-------------|-------------|
|       0 | 0x0000      |           0 |
|       1 | 0x0008      |           8 |
|       2 | 0x1DC3      |        7619 |
|       3 | 0x001E      |          30 |
|       4 | 0x00C8      |         200 |
|       5 | 0x1DC4      |        7620 |
|       6 | 0x1DC1      |        7617 |
|       7 | 0x0001      |           1 |
|       8 | 0xFFFFD274  |  4294955636 |
|       9 | 0x6D0D      |       27917 |
|      10 | 0xFFFFE0C0  |  4294959296 |

## String References

- **7617**: Pay $0 gil and leave San d'Oria? [Yes./No.]
- **7619**: I'm sorry, but $6 is required to go beyond this door.
- **7620**: I'm terribly sorry, but you don't have enough money. You will need $0 gil. Please come again.

## Events

### Event 65535

#### Metadata

| Field        | Value   |
|--------------|---------|
| Entrypoint   | 0x0000  |
| Data Size    | 1 bytes |
| Instructions | 1       |

```
      00 01 02 03 04 05 06 07  08 09 0A 0B 0C 0D 0E 0F
      -- -- -- -- -- -- -- --  -- -- -- -- -- -- -- --
0000: 00                                                .               
```

#### Opcodes

```
  0: 0x0000 [0x00] END_REQSTACK()
```

### Event 517

#### Metadata

| Field        | Value    |
|--------------|----------|
| Entrypoint   | 0x0001   |
| Data Size    | 41 bytes |
| Instructions | 11       |

```
      00 01 02 03 04 05 06 07  08 09 0A 0B 0C 0D 0E 0F
      -- -- -- -- -- -- -- --  -- -- -- -- -- -- -- --
0000:    1E F0 FF FF 7F 6F 70  66 00 80 F8 FF FF 7F F8   .....opf.......
0010: FF FF 7F 74 6C 6B 30 03  09 10 01 80 1D 02 80 23  ...tlk0........#
0020: 5E 69 64 6C 30 1C 03 80  21 00                    ^idl0...!.      
```

#### Opcodes

```
  0: 0x0001 [0x1E] EventEntity looks at LocalPlayer and starts talking
  1: 0x0006 [0x6F] WAIT_FRAME_DELAY: Yield until WaitTime reaches zero
  2: 0x0007 [0x70] WAIT_ENTITY_RENDER_FLAG: Wait while EventEntity->Render.Flags3 bit 2 is set (cancel turn if not)
  3: 0x0008 [0x66] LOAD_EXT_SCHEDULER_MAIN: Load scheduler "tlk0" with entities [EventEntity, EventEntity], work=0*
  4: 0x0017 [0x03] Work_Zone[9] = 8*
  5: 0x001C [0x1D] PRINT_EVENT_MESSAGE(message_id=7619*)
    → "I'm sorry, but $6 is required to go beyond this door."
  6: 0x001F [0x23] WAIT_FOR_DIALOG_INTERACTION
  7: 0x0020 [0x5E] EventEntity goes idle (kills current action) (animation: "idl0")
  8: 0x0025 [0x1C] WAIT(30* ticks)
  9: 0x0028 [0x21] END_EVENT
 10: 0x0029 [0x00] END_REQSTACK()
```

### Event 716

#### Metadata

| Field        | Value    |
|--------------|----------|
| Entrypoint   | 0x002A   |
| Data Size    | 41 bytes |
| Instructions | 11       |

```
      00 01 02 03 04 05 06 07  08 09 0A 0B 0C 0D 0E 0F
      -- -- -- -- -- -- -- --  -- -- -- -- -- -- -- --
0020:                                1E F0 FF FF 7F 6F            .....o
0030: 70 66 00 80 F8 FF FF 7F  F8 FF FF 7F 74 6C 6B 30  pf..........tlk0
0040: 03 02 10 04 80 1D 05 80  23 5E 69 64 6C 30 1C 03  ........#^idl0..
0050: 80 21 00                                          .!.             
```

#### Opcodes

```
  0: 0x002A [0x1E] EventEntity looks at LocalPlayer and starts talking
  1: 0x002F [0x6F] WAIT_FRAME_DELAY: Yield until WaitTime reaches zero
  2: 0x0030 [0x70] WAIT_ENTITY_RENDER_FLAG: Wait while EventEntity->Render.Flags3 bit 2 is set (cancel turn if not)
  3: 0x0031 [0x66] LOAD_EXT_SCHEDULER_MAIN: Load scheduler "tlk0" with entities [EventEntity, EventEntity], work=0*
  4: 0x0040 [0x03] Work_Zone[2] = 200*
  5: 0x0045 [0x1D] PRINT_EVENT_MESSAGE(message_id=7620*)
    → "I'm terribly sorry, but you don't have enough money. You will need $0 gil. Please come again."
  6: 0x0048 [0x23] WAIT_FOR_DIALOG_INTERACTION
  7: 0x0049 [0x5E] EventEntity goes idle (kills current action) (animation: "idl0")
  8: 0x004E [0x1C] WAIT(30* ticks)
  9: 0x0051 [0x21] END_EVENT
 10: 0x0052 [0x00] END_REQSTACK()
```

### Event 604

#### Metadata

| Field        | Value     |
|--------------|-----------|
| Entrypoint   | 0x0053    |
| Data Size    | 121 bytes |
| Instructions | 21        |

```
      00 01 02 03 04 05 06 07  08 09 0A 0B 0C 0D 0E 0F
      -- -- -- -- -- -- -- --  -- -- -- -- -- -- -- --
0050:          1E F0 FF FF 7F  03 02 10 04 80 24 06 80     ..........$..
0060: 07 80 00 80 25 02 00 10  00 80 00 CA 00 42 46 01  ....%........BF.
0070: 27 65 F0 FF FF 7F 27 2A  65 F0 FF FF 7F 27 64 6A  'e....'*e....'dj
0080: 80 0E 01 03 2A 64 6A 80  0E 01 27 65 F0 FF FF 7F  ....*dj...'e....
0090: 28 2A 65 F0 FF FF 7F 45  04 80 F0 FF FF 7F F0 FF  (*e....E........
00A0: FF 7F 66 64 6F 30 00 80  47 00 08 80 09 80 0A 80  ..fdo0..G.......
00B0: 07 80 47 01 46 00 45 04  80 F0 FF FF 7F F0 FF FF  ..G.F.E.........
00C0: 7F 66 64 69 30 00 80 01  CA 00 21 00              .fdi0.....!.    
```

#### Opcodes

```
  0: 0x0053 [0x1E] EventEntity looks at LocalPlayer and starts talking
  1: 0x0058 [0x03] Work_Zone[2] = 200*
  2: 0x005D [0x24] CREATE_DIALOG(message_id=7617*, default_option=1*, option_flags=0*)
    → "Pay $0 gil and leave San d'Oria? [Yes./No.]"
  3: 0x0064 [0x25] WAIT_DIALOG_SELECT()
  4: 0x0065 [0x02] IF !(Work_Zone[0] == 0*) GOTO 0x00CA
  5: 0x006D [0x42] SET_CLI_EVENT_CANCEL_DATA()
  6: 0x006E [0x46] CAMERA_CONTROL: Disable user control
  7: 0x0070 [0x27] REQ_SET(priority=0x65, entity_id=LocalPlayer, tag_num=0x27)
  8: 0x0077 [0x2A] GET_REQ_LEVEL(level=101, entity_id=LocalPlayer)
  9: 0x007D [0x27] REQ_SET(priority=0x64, entity_id=Door:Departures Exit (ID: 17727594/0x010E806A), tag_num=0x03)
 10: 0x0084 [0x2A] GET_REQ_LEVEL(level=100, entity_id=Door:Departures Exit (ID: 17727594/0x010E806A))
 11: 0x008A [0x27] REQ_SET(priority=0x65, entity_id=LocalPlayer, tag_num=0x28)
 12: 0x0091 [0x2A] GET_REQ_LEVEL(level=101, entity_id=LocalPlayer)
 13: 0x0097 [0x45] LOAD_SCHEDULED_TASK: Load scheduler "fdo0" with entities [LocalPlayer, LocalPlayer], work=[200*, 0*]
 14: 0x00A8 [0x47] UPDATE_PLAYER_POS(-11.660*, 27.917*, -8.000*, yaw=0.1°*)
 15: 0x00B2 [0x47] WAIT_PLAYER_POS_UPDATE
 16: 0x00B4 [0x46] CAMERA_CONTROL: Restore default settings
 17: 0x00B6 [0x45] LOAD_SCHEDULED_TASK: Load scheduler "fdi0" with entities [LocalPlayer, LocalPlayer], work=[200*, 0*]
 18: 0x00C7 [0x01] GOTO 0x00CA

SUBROUTINE_00CA:
 19: 0x00CA [0x21] END_EVENT
 20: 0x00CB [0x00] END_REQSTACK()
```

### Event 613

#### Metadata

| Field        | Value   |
|--------------|---------|
| Entrypoint   | 0x00CC  |
| Data Size    | 1 bytes |
| Instructions | 1       |

```
      00 01 02 03 04 05 06 07  08 09 0A 0B 0C 0D 0E 0F
      -- -- -- -- -- -- -- --  -- -- -- -- -- -- -- --
00C0:                                      00                       .   
```

#### Opcodes

```
  0: 0x00CC [0x00] END_REQSTACK()
```
