# 17727501 - Antreneau

## Common Data

| Field            | Value                     |
|------------------|---------------------------|
| Zone             | Port San d'Oria (ID: 232) |
| Block Size       | 2708 bytes                |
| Total Events     | 44                        |
| References Count | 57                        |

## List of Events

| Event ID                   | Entrypoint   |   Size |   Instructions |
|----------------------------|--------------|--------|----------------|
| [65535](#event-65535)      | 0x0000       |      1 |              1 |
| [521](#event-521)          | 0x0001       |      1 |              1 |
| [527](#event-527)          | 0x0002       |    671 |            103 |
| [525](#event-525)          | 0x02A1       |     29 |              7 |
| [530](#event-530)          | 0x02BE       |     80 |             20 |
| [538](#event-538)          | 0x030E       |     36 |             10 |
| [531](#event-531)          | 0x0332       |     45 |             13 |
| [532](#event-532)          | 0x035F       |     40 |             12 |
| [533](#event-533)          | 0x0387       |     40 |             12 |
| [65535.1](#event-655351)   | 0x03AF       |     16 |              2 |
| [65535.2](#event-655352)   | 0x03BF       |     14 |              2 |
| [65535.3](#event-655353)   | 0x03CD       |     16 |              2 |
| [65535.4](#event-655354)   | 0x03DD       |     14 |              2 |
| [65535.5](#event-655355)   | 0x03EB       |     16 |              2 |
| [65535.6](#event-655356)   | 0x03FB       |     14 |              2 |
| [65535.7](#event-655357)   | 0x0409       |     16 |              2 |
| [65535.8](#event-655358)   | 0x0419       |     14 |              2 |
| [65535.9](#event-655359)   | 0x0427       |     16 |              2 |
| [65535.10](#event-6553510) | 0x0437       |     14 |              2 |
| [65535.11](#event-6553511) | 0x0445       |     16 |              2 |
| [65535.12](#event-6553512) | 0x0455       |     14 |              2 |
| [65535.13](#event-6553513) | 0x0463       |     16 |              2 |
| [65535.14](#event-6553514) | 0x0473       |     14 |              2 |
| [65535.15](#event-6553515) | 0x0481       |     16 |              2 |
| [65535.16](#event-6553516) | 0x0491       |     14 |              2 |
| [65535.17](#event-6553517) | 0x049F       |     16 |              2 |
| [65535.18](#event-6553518) | 0x04AF       |     14 |              2 |
| [65535.19](#event-6553519) | 0x04BD       |     16 |              2 |
| [65535.20](#event-6553520) | 0x04CD       |     14 |              2 |
| [65535.21](#event-6553521) | 0x04DB       |     16 |              2 |
| [65535.22](#event-6553522) | 0x04EB       |     14 |              2 |
| [65535.23](#event-6553523) | 0x04F9       |     16 |              2 |
| [65535.24](#event-6553524) | 0x0509       |     14 |              2 |
| [65535.25](#event-6553525) | 0x0517       |     16 |              2 |
| [65535.26](#event-6553526) | 0x0527       |     14 |              2 |
| [65535.27](#event-6553527) | 0x0535       |     16 |              2 |
| [65535.28](#event-6553528) | 0x0545       |     14 |              2 |
| [65535.29](#event-6553529) | 0x0553       |     16 |              2 |
| [65535.30](#event-6553530) | 0x0563       |     14 |              2 |
| [725](#event-725)          | 0x0571       |    770 |            107 |
| [726](#event-726)          | 0x0873       |     37 |             14 |
| [727](#event-727)          | 0x0898       |     84 |             21 |
| [792](#event-792)          | 0x08EC       |      1 |              1 |
| [793](#event-793)          | 0x08ED       |      1 |              1 |

## DAT References (imed_data)

|   Index | Hex Value   |   Dec Value |
|---------|-------------|-------------|
|       0 | 0x016D      |         365 |
|       1 | 0x0084      |         132 |
|       2 | 0x0000      |           0 |
|       3 | 0x00C8      |         200 |
|       4 | 0x0003      |           3 |
|       5 | 0x0014      |          20 |
|       6 | 0x1D08      |        7432 |
|       7 | 0x001E      |          30 |
|       8 | 0x1D09      |        7433 |
|       9 | 0x1D0A      |        7434 |
|      10 | 0x1D0B      |        7435 |
|      11 | 0x0078      |         120 |
|      12 | 0x003C      |          60 |
|      13 | 0x1D0C      |        7436 |
|      14 | 0x0015      |          21 |
|      15 | 0x1D0D      |        7437 |
|      16 | 0x1D0E      |        7438 |
|      17 | 0x1D0F      |        7439 |
|      18 | 0x1D10      |        7440 |
|      19 | 0x1106      |        4358 |
|      20 | 0x1D11      |        7441 |
|      21 | 0x0001      |           1 |
|      22 | 0x1D12      |        7442 |
|      23 | 0x1D18      |        7448 |
|      24 | 0x1D19      |        7449 |
|      25 | 0x1D1A      |        7450 |
|      26 | 0x1D1B      |        7451 |
|      27 | 0x1D1C      |        7452 |
|      28 | 0x1D14      |        7444 |
|      29 | 0x1D15      |        7445 |
|      30 | 0x1D1D      |        7453 |
|      31 | 0x001A      |          26 |
|      32 | 0x001B      |          27 |
|      33 | 0x001D      |          29 |
|      34 | 0x007F      |         127 |
|      35 | 0x0005      |           5 |
|      36 | 0x0019      |          25 |
|      37 | 0x0006      |           6 |
|      38 | 0x2102      |        8450 |
|      39 | 0x2103      |        8451 |
|      40 | 0x2104      |        8452 |
|      41 | 0x2105      |        8453 |
|      42 | 0x2106      |        8454 |
|      43 | 0x2107      |        8455 |
|      44 | 0x2108      |        8456 |
|      45 | 0x2109      |        8457 |
|      46 | 0x210A      |        8458 |
|      47 | 0x210B      |        8459 |
|      48 | 0x210C      |        8460 |
|      49 | 0x210D      |        8461 |
|      50 | 0x006B      |         107 |
|      51 | 0x210E      |        8462 |
|      52 | 0x210F      |        8463 |
|      53 | 0x2110      |        8464 |
|      54 | 0x2111      |        8465 |
|      55 | 0x2112      |        8466 |
|      56 | 0x2113      |        8467 |

## String References

- **7432**: Egads, I'm hungry! I feel faint...
- **7433**: Bring meat! Any meat, I say! I'm just back from a long march, and I hunger!
- **7435**: Out of meat! Well I...I guess there's no helping that now, is there? What else have you got?
- **7437**: By Altana! Not beans again...
- **7439**: Please! I've had naught but beans for weeks!
- **7440**: And a belly full of beans doesn't satisfy.
- **7442**: By the Goddess, not beans again. Oh, anything...anything but beans.
- **7444**: Why, these are fine $0! Hand them to the chef, friend, right away!
- **7445**: What's this? I don't need this!
- **7448**: Adventurer! You brought the meat, eh? I thank you from the bottom of my stomach!
- **7449**: Let me share a tidbit of knowledge with you. It might come in handy.
- **7450**: You know what they say about a good meal? Well, it's true that food can give you a real boost. Try a few dishes till you find what works for you.
- **7451**: Tell you what, I'll give you a bit of this here. No, no, it's on me, really. I'd be eating beans if it weren't for you!
- **7452**: Ah, but it seems you're carrying too much already. You come back when you've lightened your load.
- **7453**: Go on, take it.
- **8462**: If you wish to meet with my uncle, you must cross the Uleguerand Range.
- **8463**: I am not permitted to give you a map of the area, however I will tell you the directions the guide gave my uncle.
- **8464**: According to the guide, a cave found on the slopes of Thousandfall Ridge leads to the other side of the Uleguerand Range.
- **8465**: You actually managed to find my uncle!?
- **8466**: So, he is well? He travels a hard path, if what you say is true. I feel ashamed to be complaining of nothing more than a steady diet of beans.
- **8467**: But I cannot quell this desire for meat! Bring me meat! Any dish with meat in it will do!

## Events

### Event 65535

#### Metadata

| Field        | Value   |
|--------------|---------|
| Entrypoint   | 0x0000  |
| Data Size    | 1 bytes |
| Instructions | 1       |

```
      00 01 02 03 04 05 06 07  08 09 0A 0B 0C 0D 0E 0F
      -- -- -- -- -- -- -- --  -- -- -- -- -- -- -- --
0000: 00                                                .               
```

#### Opcodes

```
  0: 0x0000 [0x00] END_REQSTACK()
```

### Event 521

#### Metadata

| Field        | Value   |
|--------------|---------|
| Entrypoint   | 0x0001  |
| Data Size    | 1 bytes |
| Instructions | 1       |

```
      00 01 02 03 04 05 06 07  08 09 0A 0B 0C 0D 0E 0F
      -- -- -- -- -- -- -- --  -- -- -- -- -- -- -- --
0000:    00                                              .              
```

#### Opcodes

```
  0: 0x0001 [0x00] END_REQSTACK()
```

### Event 527

#### Metadata

| Field        | Value     |
|--------------|-----------|
| Entrypoint   | 0x0002    |
| Data Size    | 671 bytes |
| Instructions | 103       |

```
      00 01 02 03 04 05 06 07  08 09 0A 0B 0C 0D 0E 0F
      -- -- -- -- -- -- -- --  -- -- -- -- -- -- -- --
0000:       42 46 01 75 00 00  80 75 01 27 63 F0 FF FF    BF.u...u.'c...
0010: 7F 0E 2A 63 F0 FF FF 7F  45 01 80 F0 FF FF 7F F0  ..*c....E.......
0020: FF FF 7F 73 30 37 31 02  80 45 03 80 F0 FF FF 7F  ...s071..E......
0030: F0 FF FF 7F 66 64 69 31  02 80 38 04 80 55 01 80  ....fdi1..8..U..
0040: F0 FF FF 7F F0 FF FF 7F  73 30 37 31 66 05 80 F8  ........s071f...
0050: FF FF 7F F8 FF FF 7F 74  68 6B 31 1D 06 80 23 66  .......thk1...#f
0060: 05 80 F8 FF FF 7F F8 FF  FF 7F 74 68 6B 32 53 F8  ..........thk2S.
0070: FF FF 7F F8 FF FF 7F 74  68 6B 32 1C 07 80 4A 0E  .......thk2...J.
0080: 80 0E 01 0D 80 0E 01 1E  0A 80 0E 01 6F 70 66 05  ............opf.
0090: 80 F8 FF FF 7F F8 FF FF  7F 74 6C 6B 30 1D 08 80  .........tlk0...
00A0: 23 5E 69 64 6C 30 1C 07  80 45 01 80 F0 FF FF 7F  #^idl0...E......
00B0: F0 FF FF 7F 73 30 35 33  02 80 66 07 80 0E 80 0E  ....s053..f.....
00C0: 01 0E 80 0E 01 74 6C 6B  30 2B 0E 80 0E 01 09 80  .....tlk0+......
00D0: 23 27 65 0E 80 0E 01 02  2A 65 0E 80 0E 01 1C 07  #'e.....*e......
00E0: 80 1E 0E 80 0E 01 45 01  80 F0 FF FF 7F F0 FF FF  ......E.........
00F0: 7F 73 30 35 34 02 80 6F  70 66 05 80 F8 FF FF 7F  .s054..opf......
0100: F8 FF FF 7F 74 6C 6B 30  1D 0A 80 23 5E 69 64 6C  ....tlk0...#^idl
0110: 30 1C 07 80 4A 0E 80 0E  01 0A 80 0E 01 6F 76 0E  0...J........ov.
0120: 80 0E 01 66 07 80 0E 80  0E 01 0E 80 0E 01 74 6C  ...f..........tl
0130: 6B 30 1C 0B 80 27 65 0E  80 0E 01 02 2A 65 0E 80  k0...'e.....*e..
0140: 0E 01 1C 0C 80 4A 0E 80  0E 01 0D 80 0E 01 6F 76  .....J........ov
0150: 0E 80 0E 01 66 07 80 0E  80 0E 01 0E 80 0E 01 74  ....f..........t
0160: 6C 6B 30 2B 0E 80 0E 01  0D 80 23 27 65 0E 80 0E  lk0+......#'e...
0170: 01 02 2A 65 0E 80 0E 01  1C 07 80 1E 0E 80 0E 01  ..*e............
0180: 45 01 80 F0 FF FF 7F F0  FF FF 7F 73 30 35 35 02  E..........s055.
0190: 80 6F 70 66 0E 80 F8 FF  FF 7F F8 FF FF 7F 64 69  .opf..........di
01A0: 73 30 1D 0F 80 23 53 F8  FF FF 7F F8 FF FF 7F 64  s0...#S........d
01B0: 69 73 30 1C 07 80 45 01  80 F0 FF FF 7F F0 FF FF  is0...E.........
01C0: 7F 73 30 35 33 02 80 66  07 80 0E 80 0E 01 0E 80  .s053..f........
01D0: 0E 01 74 6C 6B 30 2B 0E  80 0E 01 10 80 23 27 65  ..tlk0+......#'e
01E0: 0E 80 0E 01 02 2A 65 0E  80 0E 01 1C 07 80 45 01  .....*e.......E.
01F0: 80 F0 FF FF 7F F0 FF FF  7F 73 30 35 32 02 80 66  .........s052..f
0200: 05 80 F8 FF FF 7F F8 FF  FF 7F 74 68 6B 31 1D 11  ..........thk1..
0210: 80 23 1C 07 80 1D 12 80  23 66 05 80 F8 FF FF 7F  .#......#f......
0220: F8 FF FF 7F 74 68 6B 32  53 F8 FF FF 7F F8 FF FF  ....thk2S.......
0230: 7F 74 68 6B 32 1C 0C 80  45 01 80 F0 FF FF 7F F0  .thk2...E.......
0240: FF FF 7F 73 30 35 36 02  80 4A 0A 80 0E 01 0D 80  ...s056..J......
0250: 0E 01 6F 76 0A 80 0E 01  5B 07 80 0A 80 0E 01 0A  ..ov....[.......
0260: 80 0E 01 74 68 6B 30 03  02 10 13 80 2B 0A 80 0E  ...thk0.....+...
0270: 01 14 80 23 27 66 0A 80  0E 01 06 2A 66 0A 80 0E  ...#'f.....*f...
0280: 01 1C 07 80 4A F0 FF FF  7F 0A 80 0E 01 1C 07 80  ....J...........
0290: 5E 69 64 6C 30 1C 07 80  03 01 10 15 80 46 00 21  ^idl0........F.!
02A0: 00                                                .               
```

#### Opcodes

```
  0: 0x0002 [0x42] SET_CLI_EVENT_CANCEL_DATA()
  1: 0x0003 [0x46] CAMERA_CONTROL: Disable user control
  2: 0x0005 [0x75] LOAD_ROOM(Load indoor room, room=365*)
  3: 0x0009 [0x75] LOAD_ROOM(No action)
  4: 0x000B [0x27] REQ_SET(priority=0x63, entity_id=LocalPlayer, tag_num=0x0E)
  5: 0x0012 [0x2A] GET_REQ_LEVEL(level=99, entity_id=LocalPlayer)
  6: 0x0018 [0x45] LOAD_SCHEDULED_TASK: Load scheduler "s071" with entities [LocalPlayer, LocalPlayer], work=[132*, 0*]
  7: 0x0029 [0x45] LOAD_SCHEDULED_TASK: Load scheduler "fdi1" with entities [LocalPlayer, LocalPlayer], work=[200*, 0*]
  8: 0x003A [0x38] SET_CLIENT_EVENT_MODE(mode=3*)
  9: 0x003D [0x55] WAIT_LOAD_SCHEDULER: Wait for scheduler "s071" with entities [LocalPlayer, LocalPlayer], work=132*
 10: 0x004C [0x66] LOAD_EXT_SCHEDULER_MAIN: Load scheduler "thk1" with entities [EventEntity, EventEntity], work=20*
 11: 0x005B [0x1D] PRINT_EVENT_MESSAGE(message_id=7432*)
    → "Egads, I'm hungry! I feel faint..."
 12: 0x005E [0x23] WAIT_FOR_DIALOG_INTERACTION
 13: 0x005F [0x66] LOAD_EXT_SCHEDULER_MAIN: Load scheduler "thk2" with entities [EventEntity, EventEntity], work=20*
 14: 0x006E [0x53] WAIT_SCHEDULER_TASK: Wait for scheduler "thk2" with entities [EventEntity, EventEntity]
 15: 0x007B [0x1C] WAIT(30* ticks)
 16: 0x007E [0x4A] Nogelle (ID: 17727502/0x010E800E) looks at Antreneau (ID: 17727501/0x010E800D)
 17: 0x0087 [0x1E] EventEntity looks at Thierride (ID: 17727498/0x010E800A) and starts talking
 18: 0x008C [0x6F] WAIT_FRAME_DELAY: Yield until WaitTime reaches zero
 19: 0x008D [0x70] WAIT_ENTITY_RENDER_FLAG: Wait while EventEntity->Render.Flags3 bit 2 is set (cancel turn if not)
 20: 0x008E [0x66] LOAD_EXT_SCHEDULER_MAIN: Load scheduler "tlk0" with entities [EventEntity, EventEntity], work=20*
 21: 0x009D [0x1D] PRINT_EVENT_MESSAGE(message_id=7433*)
    → "Bring meat! Any meat, I say! I'm just back from a long march, and I hunger!"
 22: 0x00A0 [0x23] WAIT_FOR_DIALOG_INTERACTION
 23: 0x00A1 [0x5E] EventEntity goes idle (kills current action) (animation: "idl0")
 24: 0x00A6 [0x1C] WAIT(30* ticks)
 25: 0x00A9 [0x45] LOAD_SCHEDULED_TASK: Load scheduler "s053" with entities [LocalPlayer, LocalPlayer], work=[132*, 0*]
 26: 0x00BA [0x66] LOAD_EXT_SCHEDULER_MAIN: Load scheduler "tlk0" with entities [Nogelle (ID: 17727502/0x010E800E), Nogelle (ID: 17727502/0x010E800E)], work=30*
 27: 0x00C9 [0x2B] Nogelle (ID: 17727502/0x010E800E) [7434*]:
    → "I am terribly sorry, sir. We've run out of meat, you see--"
 28: 0x00D0 [0x23] WAIT_FOR_DIALOG_INTERACTION
 29: 0x00D1 [0x27] REQ_SET(priority=0x65, entity_id=Nogelle (ID: 17727502/0x010E800E), tag_num=0x02)
 30: 0x00D8 [0x2A] GET_REQ_LEVEL(level=101, entity_id=Nogelle (ID: 17727502/0x010E800E))
 31: 0x00DE [0x1C] WAIT(30* ticks)
 32: 0x00E1 [0x1E] EventEntity looks at Nogelle (ID: 17727502/0x010E800E) and starts talking
 33: 0x00E6 [0x45] LOAD_SCHEDULED_TASK: Load scheduler "s054" with entities [LocalPlayer, LocalPlayer], work=[132*, 0*]
 34: 0x00F7 [0x6F] WAIT_FRAME_DELAY: Yield until WaitTime reaches zero
 35: 0x00F8 [0x70] WAIT_ENTITY_RENDER_FLAG: Wait while EventEntity->Render.Flags3 bit 2 is set (cancel turn if not)
 36: 0x00F9 [0x66] LOAD_EXT_SCHEDULER_MAIN: Load scheduler "tlk0" with entities [EventEntity, EventEntity], work=20*
 37: 0x0108 [0x1D] PRINT_EVENT_MESSAGE(message_id=7435*)
    → "Out of meat! Well I...I guess there's no helping that now, is there? What else have you got?"
 38: 0x010B [0x23] WAIT_FOR_DIALOG_INTERACTION
 39: 0x010C [0x5E] EventEntity goes idle (kills current action) (animation: "idl0")
 40: 0x0111 [0x1C] WAIT(30* ticks)
 41: 0x0114 [0x4A] Nogelle (ID: 17727502/0x010E800E) looks at Thierride (ID: 17727498/0x010E800A)
 42: 0x011D [0x6F] WAIT_FRAME_DELAY: Yield until WaitTime reaches zero
 43: 0x011E [0x76] CHECK_ENTITY_RENDER_FLAGS: Wait until Nogelle (ID: 17727502/0x010E800E) Render.Flags0 and Render.Flags3 conditions are met
 44: 0x0123 [0x66] LOAD_EXT_SCHEDULER_MAIN: Load scheduler "tlk0" with entities [Nogelle (ID: 17727502/0x010E800E), Nogelle (ID: 17727502/0x010E800E)], work=30*
 45: 0x0132 [0x1C] WAIT(120* ticks)
 46: 0x0135 [0x27] REQ_SET(priority=0x65, entity_id=Nogelle (ID: 17727502/0x010E800E), tag_num=0x02)
 47: 0x013C [0x2A] GET_REQ_LEVEL(level=101, entity_id=Nogelle (ID: 17727502/0x010E800E))
 48: 0x0142 [0x1C] WAIT(60* ticks)
 49: 0x0145 [0x4A] Nogelle (ID: 17727502/0x010E800E) looks at Antreneau (ID: 17727501/0x010E800D)
 50: 0x014E [0x6F] WAIT_FRAME_DELAY: Yield until WaitTime reaches zero
 51: 0x014F [0x76] CHECK_ENTITY_RENDER_FLAGS: Wait until Nogelle (ID: 17727502/0x010E800E) Render.Flags0 and Render.Flags3 conditions are met
 52: 0x0154 [0x66] LOAD_EXT_SCHEDULER_MAIN: Load scheduler "tlk0" with entities [Nogelle (ID: 17727502/0x010E800E), Nogelle (ID: 17727502/0x010E800E)], work=30*
 53: 0x0163 [0x2B] Nogelle (ID: 17727502/0x010E800E) [7436*]:
    → "We...have the usual. I'll bring it right out."
 54: 0x016A [0x23] WAIT_FOR_DIALOG_INTERACTION
 55: 0x016B [0x27] REQ_SET(priority=0x65, entity_id=Nogelle (ID: 17727502/0x010E800E), tag_num=0x02)
 56: 0x0172 [0x2A] GET_REQ_LEVEL(level=101, entity_id=Nogelle (ID: 17727502/0x010E800E))
 57: 0x0178 [0x1C] WAIT(30* ticks)
 58: 0x017B [0x1E] EventEntity looks at Nogelle (ID: 17727502/0x010E800E) and starts talking
 59: 0x0180 [0x45] LOAD_SCHEDULED_TASK: Load scheduler "s055" with entities [LocalPlayer, LocalPlayer], work=[132*, 0*]
 60: 0x0191 [0x6F] WAIT_FRAME_DELAY: Yield until WaitTime reaches zero
 61: 0x0192 [0x70] WAIT_ENTITY_RENDER_FLAG: Wait while EventEntity->Render.Flags3 bit 2 is set (cancel turn if not)
 62: 0x0193 [0x66] LOAD_EXT_SCHEDULER_MAIN: Load scheduler "dis0" with entities [EventEntity, EventEntity], work=21*
 63: 0x01A2 [0x1D] PRINT_EVENT_MESSAGE(message_id=7437*)
    → "By Altana! Not beans again..."
 64: 0x01A5 [0x23] WAIT_FOR_DIALOG_INTERACTION
 65: 0x01A6 [0x53] WAIT_SCHEDULER_TASK: Wait for scheduler "dis0" with entities [EventEntity, EventEntity]
 66: 0x01B3 [0x1C] WAIT(30* ticks)
 67: 0x01B6 [0x45] LOAD_SCHEDULED_TASK: Load scheduler "s053" with entities [LocalPlayer, LocalPlayer], work=[132*, 0*]
 68: 0x01C7 [0x66] LOAD_EXT_SCHEDULER_MAIN: Load scheduler "tlk0" with entities [Nogelle (ID: 17727502/0x010E800E), Nogelle (ID: 17727502/0x010E800E)], work=30*
 69: 0x01D6 [0x2B] Nogelle (ID: 17727502/0x010E800E) [7438*]:
    → "I'm afraid so..."
 70: 0x01DD [0x23] WAIT_FOR_DIALOG_INTERACTION
 71: 0x01DE [0x27] REQ_SET(priority=0x65, entity_id=Nogelle (ID: 17727502/0x010E800E), tag_num=0x02)
 72: 0x01E5 [0x2A] GET_REQ_LEVEL(level=101, entity_id=Nogelle (ID: 17727502/0x010E800E))
 73: 0x01EB [0x1C] WAIT(30* ticks)
 74: 0x01EE [0x45] LOAD_SCHEDULED_TASK: Load scheduler "s052" with entities [LocalPlayer, LocalPlayer], work=[132*, 0*]
 75: 0x01FF [0x66] LOAD_EXT_SCHEDULER_MAIN: Load scheduler "thk1" with entities [EventEntity, EventEntity], work=20*
 76: 0x020E [0x1D] PRINT_EVENT_MESSAGE(message_id=7439*)
    → "Please! I've had naught but beans for weeks!"
 77: 0x0211 [0x23] WAIT_FOR_DIALOG_INTERACTION
 78: 0x0212 [0x1C] WAIT(30* ticks)
 79: 0x0215 [0x1D] PRINT_EVENT_MESSAGE(message_id=7440*)
    → "And a belly full of beans doesn't satisfy."
 80: 0x0218 [0x23] WAIT_FOR_DIALOG_INTERACTION
 81: 0x0219 [0x66] LOAD_EXT_SCHEDULER_MAIN: Load scheduler "thk2" with entities [EventEntity, EventEntity], work=20*
 82: 0x0228 [0x53] WAIT_SCHEDULER_TASK: Wait for scheduler "thk2" with entities [EventEntity, EventEntity]
 83: 0x0235 [0x1C] WAIT(60* ticks)
 84: 0x0238 [0x45] LOAD_SCHEDULED_TASK: Load scheduler "s056" with entities [LocalPlayer, LocalPlayer], work=[132*, 0*]
 85: 0x0249 [0x4A] Thierride (ID: 17727498/0x010E800A) looks at Antreneau (ID: 17727501/0x010E800D)
 86: 0x0252 [0x6F] WAIT_FRAME_DELAY: Yield until WaitTime reaches zero
 87: 0x0253 [0x76] CHECK_ENTITY_RENDER_FLAGS: Wait until Thierride (ID: 17727498/0x010E800A) Render.Flags0 and Render.Flags3 conditions are met
 88: 0x0258 [0x5B] LOAD_EXT_SCHEDULER: Load scheduler "thk0" with entities [Thierride (ID: 17727498/0x010E800A), Thierride (ID: 17727498/0x010E800A)], work=30*
 89: 0x0267 [0x03] Work_Zone[2] = 4358*
 90: 0x026C [0x2B] Thierride (ID: 17727498/0x010E800A) [7441*]:
    → "Hmm... If only I had five $0, I could make something for him."
 91: 0x0273 [0x23] WAIT_FOR_DIALOG_INTERACTION
 92: 0x0274 [0x27] REQ_SET(priority=0x66, entity_id=Thierride (ID: 17727498/0x010E800A), tag_num=0x06)
 93: 0x027B [0x2A] GET_REQ_LEVEL(level=102, entity_id=Thierride (ID: 17727498/0x010E800A))
 94: 0x0281 [0x1C] WAIT(30* ticks)
 95: 0x0284 [0x4A] LocalPlayer looks at Thierride (ID: 17727498/0x010E800A)
 96: 0x028D [0x1C] WAIT(30* ticks)
 97: 0x0290 [0x5E] EventEntity goes idle (kills current action) (animation: "idl0")
 98: 0x0295 [0x1C] WAIT(30* ticks)
 99: 0x0298 [0x03] Work_Zone[1] = 1*
100: 0x029D [0x46] CAMERA_CONTROL: Restore default settings
101: 0x029F [0x21] END_EVENT
102: 0x02A0 [0x00] END_REQSTACK()
```

### Event 525

#### Metadata

| Field        | Value    |
|--------------|----------|
| Entrypoint   | 0x02A1   |
| Data Size    | 29 bytes |
| Instructions | 7        |

```
      00 01 02 03 04 05 06 07  08 09 0A 0B 0C 0D 0E 0F
      -- -- -- -- -- -- -- --  -- -- -- -- -- -- -- --
02A0:    66 05 80 F8 FF FF 7F  F8 FF FF 7F 74 6C 6B 30   f..........tlk0
02B0: 1D 16 80 23 5E 69 64 6C  30 1C 07 80 21 00        ...#^idl0...!.  
```

#### Opcodes

```
  0: 0x02A1 [0x66] LOAD_EXT_SCHEDULER_MAIN: Load scheduler "tlk0" with entities [EventEntity, EventEntity], work=20*
  1: 0x02B0 [0x1D] PRINT_EVENT_MESSAGE(message_id=7442*)
    → "By the Goddess, not beans again. Oh, anything...anything but beans."
  2: 0x02B3 [0x23] WAIT_FOR_DIALOG_INTERACTION
  3: 0x02B4 [0x5E] EventEntity goes idle (kills current action) (animation: "idl0")
  4: 0x02B9 [0x1C] WAIT(30* ticks)
  5: 0x02BC [0x21] END_EVENT
  6: 0x02BD [0x00] END_REQSTACK()
```

### Event 530

#### Metadata

| Field        | Value    |
|--------------|----------|
| Entrypoint   | 0x02BE   |
| Data Size    | 80 bytes |
| Instructions | 20       |

```
      00 01 02 03 04 05 06 07  08 09 0A 0B 0C 0D 0E 0F
      -- -- -- -- -- -- -- --  -- -- -- -- -- -- -- --
02B0:                                            1E F0                ..
02C0: FF FF 7F 6F 70 66 05 80  F8 FF FF 7F F8 FF FF 7F  ...opf..........
02D0: 74 6C 6B 30 1D 17 80 23  1C 07 80 1D 18 80 23 1C  tlk0...#......#.
02E0: 07 80 1D 19 80 23 1C 07  80 66 05 80 F8 FF FF 7F  .....#...f......
02F0: F8 FF FF 7F 70 61 73 30  1D 1A 80 23 53 F8 FF FF  ....pas0...#S...
0300: 7F F8 FF FF 7F 70 61 73  30 1C 07 80 21 00        .....pas0...!.  
```

#### Opcodes

```
  0: 0x02BE [0x1E] EventEntity looks at LocalPlayer and starts talking
  1: 0x02C3 [0x6F] WAIT_FRAME_DELAY: Yield until WaitTime reaches zero
  2: 0x02C4 [0x70] WAIT_ENTITY_RENDER_FLAG: Wait while EventEntity->Render.Flags3 bit 2 is set (cancel turn if not)
  3: 0x02C5 [0x66] LOAD_EXT_SCHEDULER_MAIN: Load scheduler "tlk0" with entities [EventEntity, EventEntity], work=20*
  4: 0x02D4 [0x1D] PRINT_EVENT_MESSAGE(message_id=7448*)
    → "Adventurer! You brought the meat, eh? I thank you from the bottom of my stomach!"
  5: 0x02D7 [0x23] WAIT_FOR_DIALOG_INTERACTION
  6: 0x02D8 [0x1C] WAIT(30* ticks)
  7: 0x02DB [0x1D] PRINT_EVENT_MESSAGE(message_id=7449*)
    → "Let me share a tidbit of knowledge with you. It might come in handy."
  8: 0x02DE [0x23] WAIT_FOR_DIALOG_INTERACTION
  9: 0x02DF [0x1C] WAIT(30* ticks)
 10: 0x02E2 [0x1D] PRINT_EVENT_MESSAGE(message_id=7450*)
    → "You know what they say about a good meal? Well, it's true that food can give you a real boost. Try a few dishes till you find what works for you."
 11: 0x02E5 [0x23] WAIT_FOR_DIALOG_INTERACTION
 12: 0x02E6 [0x1C] WAIT(30* ticks)
 13: 0x02E9 [0x66] LOAD_EXT_SCHEDULER_MAIN: Load scheduler "pas0" with entities [EventEntity, EventEntity], work=20*
 14: 0x02F8 [0x1D] PRINT_EVENT_MESSAGE(message_id=7451*)
    → "Tell you what, I'll give you a bit of this here. No, no, it's on me, really. I'd be eating beans if it weren't for you!"
 15: 0x02FB [0x23] WAIT_FOR_DIALOG_INTERACTION
 16: 0x02FC [0x53] WAIT_SCHEDULER_TASK: Wait for scheduler "pas0" with entities [EventEntity, EventEntity]
 17: 0x0309 [0x1C] WAIT(30* ticks)
 18: 0x030C [0x21] END_EVENT
 19: 0x030D [0x00] END_REQSTACK()
```

### Event 538

#### Metadata

| Field        | Value    |
|--------------|----------|
| Entrypoint   | 0x030E   |
| Data Size    | 36 bytes |
| Instructions | 10       |

```
      00 01 02 03 04 05 06 07  08 09 0A 0B 0C 0D 0E 0F
      -- -- -- -- -- -- -- --  -- -- -- -- -- -- -- --
0300:                                            1E F0                ..
0310: FF FF 7F 6F 70 66 05 80  F8 FF FF 7F F8 FF FF 7F  ...opf..........
0320: 74 6C 6B 30 1D 1B 80 23  5E 69 64 6C 30 1C 07 80  tlk0...#^idl0...
0330: 21 00                                             !.              
```

#### Opcodes

```
  0: 0x030E [0x1E] EventEntity looks at LocalPlayer and starts talking
  1: 0x0313 [0x6F] WAIT_FRAME_DELAY: Yield until WaitTime reaches zero
  2: 0x0314 [0x70] WAIT_ENTITY_RENDER_FLAG: Wait while EventEntity->Render.Flags3 bit 2 is set (cancel turn if not)
  3: 0x0315 [0x66] LOAD_EXT_SCHEDULER_MAIN: Load scheduler "tlk0" with entities [EventEntity, EventEntity], work=20*
  4: 0x0324 [0x1D] PRINT_EVENT_MESSAGE(message_id=7452*)
    → "Ah, but it seems you're carrying too much already. You come back when you've lightened your load."
  5: 0x0327 [0x23] WAIT_FOR_DIALOG_INTERACTION
  6: 0x0328 [0x5E] EventEntity goes idle (kills current action) (animation: "idl0")
  7: 0x032D [0x1C] WAIT(30* ticks)
  8: 0x0330 [0x21] END_EVENT
  9: 0x0331 [0x00] END_REQSTACK()
```

### Event 531

#### Metadata

| Field        | Value    |
|--------------|----------|
| Entrypoint   | 0x0332   |
| Data Size    | 45 bytes |
| Instructions | 13       |

```
      00 01 02 03 04 05 06 07  08 09 0A 0B 0C 0D 0E 0F
      -- -- -- -- -- -- -- --  -- -- -- -- -- -- -- --
0330:       20 01 1E F0 FF FF  7F 6F 70 66 05 80 F8 FF     ......opf....
0340: FF 7F F8 FF FF 7F 74 6C  6B 30 03 02 10 13 80 1D  ......tlk0......
0350: 1C 80 23 5E 69 64 6C 30  1C 07 80 20 00 21 00     ..#^idl0... .!. 
```

#### Opcodes

```
  0: 0x0332 [0x20] SET_CLI_EVENT_UC_FLAG: Lock player control
  1: 0x0334 [0x1E] EventEntity looks at LocalPlayer and starts talking
  2: 0x0339 [0x6F] WAIT_FRAME_DELAY: Yield until WaitTime reaches zero
  3: 0x033A [0x70] WAIT_ENTITY_RENDER_FLAG: Wait while EventEntity->Render.Flags3 bit 2 is set (cancel turn if not)
  4: 0x033B [0x66] LOAD_EXT_SCHEDULER_MAIN: Load scheduler "tlk0" with entities [EventEntity, EventEntity], work=20*
  5: 0x034A [0x03] Work_Zone[2] = 4358*
  6: 0x034F [0x1D] PRINT_EVENT_MESSAGE(message_id=7444*)
    → "Why, these are fine $0! Hand them to the chef, friend, right away!"
  7: 0x0352 [0x23] WAIT_FOR_DIALOG_INTERACTION
  8: 0x0353 [0x5E] EventEntity goes idle (kills current action) (animation: "idl0")
  9: 0x0358 [0x1C] WAIT(30* ticks)
 10: 0x035B [0x20] SET_CLI_EVENT_UC_FLAG: Unlock player control
 11: 0x035D [0x21] END_EVENT
 12: 0x035E [0x00] END_REQSTACK()
```

### Event 532

#### Metadata

| Field        | Value    |
|--------------|----------|
| Entrypoint   | 0x035F   |
| Data Size    | 40 bytes |
| Instructions | 12       |

```
      00 01 02 03 04 05 06 07  08 09 0A 0B 0C 0D 0E 0F
      -- -- -- -- -- -- -- --  -- -- -- -- -- -- -- --
0350:                                               20                  
0360: 01 1E F0 FF FF 7F 6F 70  66 05 80 F8 FF FF 7F F8  ......opf.......
0370: FF FF 7F 74 6C 6B 30 1D  1D 80 23 5E 69 64 6C 30  ...tlk0...#^idl0
0380: 1C 07 80 20 00 21 00                              ... .!.         
```

#### Opcodes

```
  0: 0x035F [0x20] SET_CLI_EVENT_UC_FLAG: Lock player control
  1: 0x0361 [0x1E] EventEntity looks at LocalPlayer and starts talking
  2: 0x0366 [0x6F] WAIT_FRAME_DELAY: Yield until WaitTime reaches zero
  3: 0x0367 [0x70] WAIT_ENTITY_RENDER_FLAG: Wait while EventEntity->Render.Flags3 bit 2 is set (cancel turn if not)
  4: 0x0368 [0x66] LOAD_EXT_SCHEDULER_MAIN: Load scheduler "tlk0" with entities [EventEntity, EventEntity], work=20*
  5: 0x0377 [0x1D] PRINT_EVENT_MESSAGE(message_id=7445*)
    → "What's this? I don't need this!"
  6: 0x037A [0x23] WAIT_FOR_DIALOG_INTERACTION
  7: 0x037B [0x5E] EventEntity goes idle (kills current action) (animation: "idl0")
  8: 0x0380 [0x1C] WAIT(30* ticks)
  9: 0x0383 [0x20] SET_CLI_EVENT_UC_FLAG: Unlock player control
 10: 0x0385 [0x21] END_EVENT
 11: 0x0386 [0x00] END_REQSTACK()
```

### Event 533

#### Metadata

| Field        | Value    |
|--------------|----------|
| Entrypoint   | 0x0387   |
| Data Size    | 40 bytes |
| Instructions | 12       |

```
      00 01 02 03 04 05 06 07  08 09 0A 0B 0C 0D 0E 0F
      -- -- -- -- -- -- -- --  -- -- -- -- -- -- -- --
0380:                      20  01 1E F0 FF FF 7F 6F 70          ......op
0390: 66 05 80 F8 FF FF 7F F8  FF FF 7F 74 6C 6B 30 1D  f..........tlk0.
03A0: 1E 80 23 5E 69 64 6C 30  1C 07 80 20 00 21 00     ..#^idl0... .!. 
```

#### Opcodes

```
  0: 0x0387 [0x20] SET_CLI_EVENT_UC_FLAG: Lock player control
  1: 0x0389 [0x1E] EventEntity looks at LocalPlayer and starts talking
  2: 0x038E [0x6F] WAIT_FRAME_DELAY: Yield until WaitTime reaches zero
  3: 0x038F [0x70] WAIT_ENTITY_RENDER_FLAG: Wait while EventEntity->Render.Flags3 bit 2 is set (cancel turn if not)
  4: 0x0390 [0x66] LOAD_EXT_SCHEDULER_MAIN: Load scheduler "tlk0" with entities [EventEntity, EventEntity], work=20*
  5: 0x039F [0x1D] PRINT_EVENT_MESSAGE(message_id=7453*)
    → "Go on, take it."
  6: 0x03A2 [0x23] WAIT_FOR_DIALOG_INTERACTION
  7: 0x03A3 [0x5E] EventEntity goes idle (kills current action) (animation: "idl0")
  8: 0x03A8 [0x1C] WAIT(30* ticks)
  9: 0x03AB [0x20] SET_CLI_EVENT_UC_FLAG: Unlock player control
 10: 0x03AD [0x21] END_EVENT
 11: 0x03AE [0x00] END_REQSTACK()
```

### Event 65535.1

#### Metadata

| Field        | Value    |
|--------------|----------|
| Entrypoint   | 0x03AF   |
| Data Size    | 16 bytes |
| Instructions | 2        |

```
      00 01 02 03 04 05 06 07  08 09 0A 0B 0C 0D 0E 0F
      -- -- -- -- -- -- -- --  -- -- -- -- -- -- -- --
03A0:                                               66                 f
03B0: 05 80 F8 FF FF 7F F8 FF  FF 7F 74 6C 6B 30 00     ..........tlk0. 
```

#### Opcodes

```
  0: 0x03AF [0x66] LOAD_EXT_SCHEDULER_MAIN: Load scheduler "tlk0" with entities [EventEntity, EventEntity], work=20*
  1: 0x03BE [0x00] END_REQSTACK()
```

### Event 65535.2

#### Metadata

| Field        | Value    |
|--------------|----------|
| Entrypoint   | 0x03BF   |
| Data Size    | 14 bytes |
| Instructions | 2        |

```
      00 01 02 03 04 05 06 07  08 09 0A 0B 0C 0D 0E 0F
      -- -- -- -- -- -- -- --  -- -- -- -- -- -- -- --
03B0:                                               53                 S
03C0: F8 FF FF 7F F8 FF FF 7F  74 6C 6B 30 00           ........tlk0.   
```

#### Opcodes

```
  0: 0x03BF [0x53] WAIT_SCHEDULER_TASK: Wait for scheduler "tlk0" with entities [EventEntity, EventEntity]
  1: 0x03CC [0x00] END_REQSTACK()
```

### Event 65535.3

#### Metadata

| Field        | Value    |
|--------------|----------|
| Entrypoint   | 0x03CD   |
| Data Size    | 16 bytes |
| Instructions | 2        |

```
      00 01 02 03 04 05 06 07  08 09 0A 0B 0C 0D 0E 0F
      -- -- -- -- -- -- -- --  -- -- -- -- -- -- -- --
03C0:                                         66 05 80               f..
03D0: F8 FF FF 7F F8 FF FF 7F  74 6C 6B 31 00           ........tlk1.   
```

#### Opcodes

```
  0: 0x03CD [0x66] LOAD_EXT_SCHEDULER_MAIN: Load scheduler "tlk1" with entities [EventEntity, EventEntity], work=20*
  1: 0x03DC [0x00] END_REQSTACK()
```

### Event 65535.4

#### Metadata

| Field        | Value    |
|--------------|----------|
| Entrypoint   | 0x03DD   |
| Data Size    | 14 bytes |
| Instructions | 2        |

```
      00 01 02 03 04 05 06 07  08 09 0A 0B 0C 0D 0E 0F
      -- -- -- -- -- -- -- --  -- -- -- -- -- -- -- --
03D0:                                         53 F8 FF               S..
03E0: FF 7F F8 FF FF 7F 74 6C  6B 31 00                 ......tlk1.     
```

#### Opcodes

```
  0: 0x03DD [0x53] WAIT_SCHEDULER_TASK: Wait for scheduler "tlk1" with entities [EventEntity, EventEntity]
  1: 0x03EA [0x00] END_REQSTACK()
```

### Event 65535.5

#### Metadata

| Field        | Value    |
|--------------|----------|
| Entrypoint   | 0x03EB   |
| Data Size    | 16 bytes |
| Instructions | 2        |

```
      00 01 02 03 04 05 06 07  08 09 0A 0B 0C 0D 0E 0F
      -- -- -- -- -- -- -- --  -- -- -- -- -- -- -- --
03E0:                                   66 05 80 F8 FF             f....
03F0: FF 7F F8 FF FF 7F 74 68  6B 31 00                 ......thk1.     
```

#### Opcodes

```
  0: 0x03EB [0x66] LOAD_EXT_SCHEDULER_MAIN: Load scheduler "thk1" with entities [EventEntity, EventEntity], work=20*
  1: 0x03FA [0x00] END_REQSTACK()
```

### Event 65535.6

#### Metadata

| Field        | Value    |
|--------------|----------|
| Entrypoint   | 0x03FB   |
| Data Size    | 14 bytes |
| Instructions | 2        |

```
      00 01 02 03 04 05 06 07  08 09 0A 0B 0C 0D 0E 0F
      -- -- -- -- -- -- -- --  -- -- -- -- -- -- -- --
03F0:                                   53 F8 FF FF 7F             S....
0400: F8 FF FF 7F 74 68 6B 31  00                       ....thk1.       
```

#### Opcodes

```
  0: 0x03FB [0x53] WAIT_SCHEDULER_TASK: Wait for scheduler "thk1" with entities [EventEntity, EventEntity]
  1: 0x0408 [0x00] END_REQSTACK()
```

### Event 65535.7

#### Metadata

| Field        | Value    |
|--------------|----------|
| Entrypoint   | 0x0409   |
| Data Size    | 16 bytes |
| Instructions | 2        |

```
      00 01 02 03 04 05 06 07  08 09 0A 0B 0C 0D 0E 0F
      -- -- -- -- -- -- -- --  -- -- -- -- -- -- -- --
0400:                             66 05 80 F8 FF FF 7F           f......
0410: F8 FF FF 7F 74 68 6B 32  00                       ....thk2.       
```

#### Opcodes

```
  0: 0x0409 [0x66] LOAD_EXT_SCHEDULER_MAIN: Load scheduler "thk2" with entities [EventEntity, EventEntity], work=20*
  1: 0x0418 [0x00] END_REQSTACK()
```

### Event 65535.8

#### Metadata

| Field        | Value    |
|--------------|----------|
| Entrypoint   | 0x0419   |
| Data Size    | 14 bytes |
| Instructions | 2        |

```
      00 01 02 03 04 05 06 07  08 09 0A 0B 0C 0D 0E 0F
      -- -- -- -- -- -- -- --  -- -- -- -- -- -- -- --
0410:                             53 F8 FF FF 7F F8 FF           S......
0420: FF 7F 74 68 6B 32 00                              ..thk2.         
```

#### Opcodes

```
  0: 0x0419 [0x53] WAIT_SCHEDULER_TASK: Wait for scheduler "thk2" with entities [EventEntity, EventEntity]
  1: 0x0426 [0x00] END_REQSTACK()
```

### Event 65535.9

#### Metadata

| Field        | Value    |
|--------------|----------|
| Entrypoint   | 0x0427   |
| Data Size    | 16 bytes |
| Instructions | 2        |

```
      00 01 02 03 04 05 06 07  08 09 0A 0B 0C 0D 0E 0F
      -- -- -- -- -- -- -- --  -- -- -- -- -- -- -- --
0420:                      66  05 80 F8 FF FF 7F F8 FF         f........
0430: FF 7F 70 61 73 30 00                              ..pas0.         
```

#### Opcodes

```
  0: 0x0427 [0x66] LOAD_EXT_SCHEDULER_MAIN: Load scheduler "pas0" with entities [EventEntity, EventEntity], work=20*
  1: 0x0436 [0x00] END_REQSTACK()
```

### Event 65535.10

#### Metadata

| Field        | Value    |
|--------------|----------|
| Entrypoint   | 0x0437   |
| Data Size    | 14 bytes |
| Instructions | 2        |

```
      00 01 02 03 04 05 06 07  08 09 0A 0B 0C 0D 0E 0F
      -- -- -- -- -- -- -- --  -- -- -- -- -- -- -- --
0430:                      53  F8 FF FF 7F F8 FF FF 7F         S........
0440: 70 61 73 30 00                                    pas0.           
```

#### Opcodes

```
  0: 0x0437 [0x53] WAIT_SCHEDULER_TASK: Wait for scheduler "pas0" with entities [EventEntity, EventEntity]
  1: 0x0444 [0x00] END_REQSTACK()
```

### Event 65535.11

#### Metadata

| Field        | Value    |
|--------------|----------|
| Entrypoint   | 0x0445   |
| Data Size    | 16 bytes |
| Instructions | 2        |

```
      00 01 02 03 04 05 06 07  08 09 0A 0B 0C 0D 0E 0F
      -- -- -- -- -- -- -- --  -- -- -- -- -- -- -- --
0440:                66 0E 80  F8 FF FF 7F F8 FF FF 7F       f..........
0450: 70 6F 69 30 00                                    poi0.           
```

#### Opcodes

```
  0: 0x0445 [0x66] LOAD_EXT_SCHEDULER_MAIN: Load scheduler "poi0" with entities [EventEntity, EventEntity], work=21*
  1: 0x0454 [0x00] END_REQSTACK()
```

### Event 65535.12

#### Metadata

| Field        | Value    |
|--------------|----------|
| Entrypoint   | 0x0455   |
| Data Size    | 14 bytes |
| Instructions | 2        |

```
      00 01 02 03 04 05 06 07  08 09 0A 0B 0C 0D 0E 0F
      -- -- -- -- -- -- -- --  -- -- -- -- -- -- -- --
0450:                53 F8 FF  FF 7F F8 FF FF 7F 70 6F       S........po
0460: 69 30 00                                          i0.             
```

#### Opcodes

```
  0: 0x0455 [0x53] WAIT_SCHEDULER_TASK: Wait for scheduler "poi0" with entities [EventEntity, EventEntity]
  1: 0x0462 [0x00] END_REQSTACK()
```

### Event 65535.13

#### Metadata

| Field        | Value    |
|--------------|----------|
| Entrypoint   | 0x0463   |
| Data Size    | 16 bytes |
| Instructions | 2        |

```
      00 01 02 03 04 05 06 07  08 09 0A 0B 0C 0D 0E 0F
      -- -- -- -- -- -- -- --  -- -- -- -- -- -- -- --
0460:          66 0E 80 F8 FF  FF 7F F8 FF FF 7F 70 6F     f..........po
0470: 69 31 00                                          i1.             
```

#### Opcodes

```
  0: 0x0463 [0x66] LOAD_EXT_SCHEDULER_MAIN: Load scheduler "poi1" with entities [EventEntity, EventEntity], work=21*
  1: 0x0472 [0x00] END_REQSTACK()
```

### Event 65535.14

#### Metadata

| Field        | Value    |
|--------------|----------|
| Entrypoint   | 0x0473   |
| Data Size    | 14 bytes |
| Instructions | 2        |

```
      00 01 02 03 04 05 06 07  08 09 0A 0B 0C 0D 0E 0F
      -- -- -- -- -- -- -- --  -- -- -- -- -- -- -- --
0470:          53 F8 FF FF 7F  F8 FF FF 7F 70 6F 69 31     S........poi1
0480: 00                                                .               
```

#### Opcodes

```
  0: 0x0473 [0x53] WAIT_SCHEDULER_TASK: Wait for scheduler "poi1" with entities [EventEntity, EventEntity]
  1: 0x0480 [0x00] END_REQSTACK()
```

### Event 65535.15

#### Metadata

| Field        | Value    |
|--------------|----------|
| Entrypoint   | 0x0481   |
| Data Size    | 16 bytes |
| Instructions | 2        |

```
      00 01 02 03 04 05 06 07  08 09 0A 0B 0C 0D 0E 0F
      -- -- -- -- -- -- -- --  -- -- -- -- -- -- -- --
0480:    66 0E 80 F8 FF FF 7F  F8 FF FF 7F 64 69 73 30   f..........dis0
0490: 00                                                .               
```

#### Opcodes

```
  0: 0x0481 [0x66] LOAD_EXT_SCHEDULER_MAIN: Load scheduler "dis0" with entities [EventEntity, EventEntity], work=21*
  1: 0x0490 [0x00] END_REQSTACK()
```

### Event 65535.16

#### Metadata

| Field        | Value    |
|--------------|----------|
| Entrypoint   | 0x0491   |
| Data Size    | 14 bytes |
| Instructions | 2        |

```
      00 01 02 03 04 05 06 07  08 09 0A 0B 0C 0D 0E 0F
      -- -- -- -- -- -- -- --  -- -- -- -- -- -- -- --
0490:    53 F8 FF FF 7F F8 FF  FF 7F 64 69 73 30 00      S........dis0. 
```

#### Opcodes

```
  0: 0x0491 [0x53] WAIT_SCHEDULER_TASK: Wait for scheduler "dis0" with entities [EventEntity, EventEntity]
  1: 0x049E [0x00] END_REQSTACK()
```

### Event 65535.17

#### Metadata

| Field        | Value    |
|--------------|----------|
| Entrypoint   | 0x049F   |
| Data Size    | 16 bytes |
| Instructions | 2        |

```
      00 01 02 03 04 05 06 07  08 09 0A 0B 0C 0D 0E 0F
      -- -- -- -- -- -- -- --  -- -- -- -- -- -- -- --
0490:                                               66                 f
04A0: 1F 80 F8 FF FF 7F F8 FF  FF 7F 6F 72 6F 30 00     ..........oro0. 
```

#### Opcodes

```
  0: 0x049F [0x66] LOAD_EXT_SCHEDULER_MAIN: Load scheduler "oro0" with entities [EventEntity, EventEntity], work=26*
  1: 0x04AE [0x00] END_REQSTACK()
```

### Event 65535.18

#### Metadata

| Field        | Value    |
|--------------|----------|
| Entrypoint   | 0x04AF   |
| Data Size    | 14 bytes |
| Instructions | 2        |

```
      00 01 02 03 04 05 06 07  08 09 0A 0B 0C 0D 0E 0F
      -- -- -- -- -- -- -- --  -- -- -- -- -- -- -- --
04A0:                                               53                 S
04B0: F8 FF FF 7F F8 FF FF 7F  6F 72 6F 30 00           ........oro0.   
```

#### Opcodes

```
  0: 0x04AF [0x53] WAIT_SCHEDULER_TASK: Wait for scheduler "oro0" with entities [EventEntity, EventEntity]
  1: 0x04BC [0x00] END_REQSTACK()
```

### Event 65535.19

#### Metadata

| Field        | Value    |
|--------------|----------|
| Entrypoint   | 0x04BD   |
| Data Size    | 16 bytes |
| Instructions | 2        |

```
      00 01 02 03 04 05 06 07  08 09 0A 0B 0C 0D 0E 0F
      -- -- -- -- -- -- -- --  -- -- -- -- -- -- -- --
04B0:                                         66 1F 80               f..
04C0: F8 FF FF 7F F8 FF FF 7F  6F 72 6F 31 00           ........oro1.   
```

#### Opcodes

```
  0: 0x04BD [0x66] LOAD_EXT_SCHEDULER_MAIN: Load scheduler "oro1" with entities [EventEntity, EventEntity], work=26*
  1: 0x04CC [0x00] END_REQSTACK()
```

### Event 65535.20

#### Metadata

| Field        | Value    |
|--------------|----------|
| Entrypoint   | 0x04CD   |
| Data Size    | 14 bytes |
| Instructions | 2        |

```
      00 01 02 03 04 05 06 07  08 09 0A 0B 0C 0D 0E 0F
      -- -- -- -- -- -- -- --  -- -- -- -- -- -- -- --
04C0:                                         53 F8 FF               S..
04D0: FF 7F F8 FF FF 7F 6F 72  6F 31 00                 ......oro1.     
```

#### Opcodes

```
  0: 0x04CD [0x53] WAIT_SCHEDULER_TASK: Wait for scheduler "oro1" with entities [EventEntity, EventEntity]
  1: 0x04DA [0x00] END_REQSTACK()
```

### Event 65535.21

#### Metadata

| Field        | Value    |
|--------------|----------|
| Entrypoint   | 0x04DB   |
| Data Size    | 16 bytes |
| Instructions | 2        |

```
      00 01 02 03 04 05 06 07  08 09 0A 0B 0C 0D 0E 0F
      -- -- -- -- -- -- -- --  -- -- -- -- -- -- -- --
04D0:                                   66 20 80 F8 FF             f ...
04E0: FF 7F F8 FF FF 7F 74 6C  62 30 00                 ......tlb0.     
```

#### Opcodes

```
  0: 0x04DB [0x66] LOAD_EXT_SCHEDULER_MAIN: Load scheduler "tlb0" with entities [EventEntity, EventEntity], work=27*
  1: 0x04EA [0x00] END_REQSTACK()
```

### Event 65535.22

#### Metadata

| Field        | Value    |
|--------------|----------|
| Entrypoint   | 0x04EB   |
| Data Size    | 14 bytes |
| Instructions | 2        |

```
      00 01 02 03 04 05 06 07  08 09 0A 0B 0C 0D 0E 0F
      -- -- -- -- -- -- -- --  -- -- -- -- -- -- -- --
04E0:                                   53 F8 FF FF 7F             S....
04F0: F8 FF FF 7F 74 6C 62 30  00                       ....tlb0.       
```

#### Opcodes

```
  0: 0x04EB [0x53] WAIT_SCHEDULER_TASK: Wait for scheduler "tlb0" with entities [EventEntity, EventEntity]
  1: 0x04F8 [0x00] END_REQSTACK()
```

### Event 65535.23

#### Metadata

| Field        | Value    |
|--------------|----------|
| Entrypoint   | 0x04F9   |
| Data Size    | 16 bytes |
| Instructions | 2        |

```
      00 01 02 03 04 05 06 07  08 09 0A 0B 0C 0D 0E 0F
      -- -- -- -- -- -- -- --  -- -- -- -- -- -- -- --
04F0:                             66 20 80 F8 FF FF 7F           f .....
0500: F8 FF FF 7F 74 6C 62 31  00                       ....tlb1.       
```

#### Opcodes

```
  0: 0x04F9 [0x66] LOAD_EXT_SCHEDULER_MAIN: Load scheduler "tlb1" with entities [EventEntity, EventEntity], work=27*
  1: 0x0508 [0x00] END_REQSTACK()
```

### Event 65535.24

#### Metadata

| Field        | Value    |
|--------------|----------|
| Entrypoint   | 0x0509   |
| Data Size    | 14 bytes |
| Instructions | 2        |

```
      00 01 02 03 04 05 06 07  08 09 0A 0B 0C 0D 0E 0F
      -- -- -- -- -- -- -- --  -- -- -- -- -- -- -- --
0500:                             53 F8 FF FF 7F F8 FF           S......
0510: FF 7F 74 6C 62 31 00                              ..tlb1.         
```

#### Opcodes

```
  0: 0x0509 [0x53] WAIT_SCHEDULER_TASK: Wait for scheduler "tlb1" with entities [EventEntity, EventEntity]
  1: 0x0516 [0x00] END_REQSTACK()
```

### Event 65535.25

#### Metadata

| Field        | Value    |
|--------------|----------|
| Entrypoint   | 0x0517   |
| Data Size    | 16 bytes |
| Instructions | 2        |

```
      00 01 02 03 04 05 06 07  08 09 0A 0B 0C 0D 0E 0F
      -- -- -- -- -- -- -- --  -- -- -- -- -- -- -- --
0510:                      66  21 80 F8 FF FF 7F F8 FF         f!.......
0520: FF 7F 73 69 74 30 00                              ..sit0.         
```

#### Opcodes

```
  0: 0x0517 [0x66] LOAD_EXT_SCHEDULER_MAIN: Load scheduler "sit0" with entities [EventEntity, EventEntity], work=29*
  1: 0x0526 [0x00] END_REQSTACK()
```

### Event 65535.26

#### Metadata

| Field        | Value    |
|--------------|----------|
| Entrypoint   | 0x0527   |
| Data Size    | 14 bytes |
| Instructions | 2        |

```
      00 01 02 03 04 05 06 07  08 09 0A 0B 0C 0D 0E 0F
      -- -- -- -- -- -- -- --  -- -- -- -- -- -- -- --
0520:                      53  F8 FF FF 7F F8 FF FF 7F         S........
0530: 73 69 74 30 00                                    sit0.           
```

#### Opcodes

```
  0: 0x0527 [0x53] WAIT_SCHEDULER_TASK: Wait for scheduler "sit0" with entities [EventEntity, EventEntity]
  1: 0x0534 [0x00] END_REQSTACK()
```

### Event 65535.27

#### Metadata

| Field        | Value    |
|--------------|----------|
| Entrypoint   | 0x0535   |
| Data Size    | 16 bytes |
| Instructions | 2        |

```
      00 01 02 03 04 05 06 07  08 09 0A 0B 0C 0D 0E 0F
      -- -- -- -- -- -- -- --  -- -- -- -- -- -- -- --
0530:                66 21 80  F8 FF FF 7F F8 FF FF 7F       f!.........
0540: 73 69 74 31 00                                    sit1.           
```

#### Opcodes

```
  0: 0x0535 [0x66] LOAD_EXT_SCHEDULER_MAIN: Load scheduler "sit1" with entities [EventEntity, EventEntity], work=29*
  1: 0x0544 [0x00] END_REQSTACK()
```

### Event 65535.28

#### Metadata

| Field        | Value    |
|--------------|----------|
| Entrypoint   | 0x0545   |
| Data Size    | 14 bytes |
| Instructions | 2        |

```
      00 01 02 03 04 05 06 07  08 09 0A 0B 0C 0D 0E 0F
      -- -- -- -- -- -- -- --  -- -- -- -- -- -- -- --
0540:                53 F8 FF  FF 7F F8 FF FF 7F 73 69       S........si
0550: 74 31 00                                          t1.             
```

#### Opcodes

```
  0: 0x0545 [0x53] WAIT_SCHEDULER_TASK: Wait for scheduler "sit1" with entities [EventEntity, EventEntity]
  1: 0x0552 [0x00] END_REQSTACK()
```

### Event 65535.29

#### Metadata

| Field        | Value    |
|--------------|----------|
| Entrypoint   | 0x0553   |
| Data Size    | 16 bytes |
| Instructions | 2        |

```
      00 01 02 03 04 05 06 07  08 09 0A 0B 0C 0D 0E 0F
      -- -- -- -- -- -- -- --  -- -- -- -- -- -- -- --
0550:          66 21 80 F8 FF  FF 7F F8 FF FF 7F 73 69     f!.........si
0560: 74 6C 00                                          tl.             
```

#### Opcodes

```
  0: 0x0553 [0x66] LOAD_EXT_SCHEDULER_MAIN: Load scheduler "sitl" with entities [EventEntity, EventEntity], work=29*
  1: 0x0562 [0x00] END_REQSTACK()
```

### Event 65535.30

#### Metadata

| Field        | Value    |
|--------------|----------|
| Entrypoint   | 0x0563   |
| Data Size    | 14 bytes |
| Instructions | 2        |

```
      00 01 02 03 04 05 06 07  08 09 0A 0B 0C 0D 0E 0F
      -- -- -- -- -- -- -- --  -- -- -- -- -- -- -- --
0560:          53 F8 FF FF 7F  F8 FF FF 7F 73 69 74 6C     S........sitl
0570: 00                                                .               
```

#### Opcodes

```
  0: 0x0563 [0x53] WAIT_SCHEDULER_TASK: Wait for scheduler "sitl" with entities [EventEntity, EventEntity]
  1: 0x0570 [0x00] END_REQSTACK()
```

### Event 725

#### Metadata

| Field        | Value     |
|--------------|-----------|
| Entrypoint   | 0x0571    |
| Data Size    | 770 bytes |
| Instructions | 107       |

```
      00 01 02 03 04 05 06 07  08 09 0A 0B 0C 0D 0E 0F
      -- -- -- -- -- -- -- --  -- -- -- -- -- -- -- --
0570:    20 01 42 46 01 5D 02  80 0B 80 45 03 80 F8 FF    .BF.]....E....
0580: FF 7F F8 FF FF 7F 66 64  6F 31 02 80 1C 0B 80 38  ......fdo1.....8
0590: 04 80 29 08 F0 FF FF 7F  37 75 00 00 80 75 01 29  ..).....7u...u.)
05A0: 0B F0 FF FF 7F 3B 4E 00  0D 80 0E 01 80 0D 80 0E  .....;N.........
05B0: 01 92 01 0D 80 0E 01 4A  F0 FF FF 7F 0D 80 0E 01  .......J........
05C0: 6F 76 F0 FF FF 7F 5C 00  22 80 5C 01 22 80 02 09  ov....\.".\."...
05D0: 10 23 80 00 EA 05 45 24  80 F8 FF FF 7F F8 FF FF  .#....E$........
05E0: 7F 73 30 37 34 02 80 01  17 06 02 09 10 25 80 00  .s074........%..
05F0: 06 06 45 24 80 F8 FF FF  7F F8 FF FF 7F 73 30 37  ..E$.........s07
0600: 34 02 80 01 17 06 45 24  80 F8 FF FF 7F F8 FF FF  4.....E$........
0610: 7F 73 30 36 38 02 80 45  03 80 F8 FF FF 7F F8 FF  .s068..E........
0620: FF 7F 66 64 69 31 02 80  29 08 0D 80 0E 01 17 2B  ..fdi1..)......+
0630: 0D 80 0E 01 26 80 23 29  08 0D 80 0E 01 18 29 08  ....&.#)......).
0640: 0D 80 0E 01 0D 2B 0D 80  0E 01 27 80 23 29 08 0D  .....+....'.#)..
0650: 80 0E 01 0E 02 09 10 23  80 00 6E 06 52 24 80 F8  .......#..n.R$..
0660: FF FF 7F F8 FF FF 7F 73  30 37 34 01 97 06 02 09  .......s074.....
0670: 10 25 80 00 88 06 52 24  80 F8 FF FF 7F F8 FF FF  .%....R$........
0680: 7F 73 30 37 34 01 97 06  52 24 80 F8 FF FF 7F F8  .s074...R$......
0690: FF FF 7F 73 30 36 38 45  24 80 F8 FF FF 7F F8 FF  ...s068E$.......
06A0: FF 7F 73 30 36 39 02 80  29 08 0D 80 0E 01 0F 29  ..s069..)......)
06B0: 08 0D 80 0E 01 10 4A 0D  80 0E 01 F0 FF FF 7F 6F  ......J........o
06C0: 76 0D 80 0E 01 2B 0D 80  0E 01 28 80 23 29 08 0D  v....+....(.#)..
06D0: 80 0E 01 09 2B 0D 80 0E  01 29 80 23 29 08 0D 80  ....+....).#)...
06E0: 0E 01 0A 52 24 80 F8 FF  FF 7F F8 FF FF 7F 73 30  ...R$.........s0
06F0: 36 39 02 09 10 23 80 00  0E 07 45 24 80 F8 FF FF  69...#....E$....
0700: 7F F8 FF FF 7F 73 30 37  35 02 80 01 3B 07 02 09  .....s075...;...
0710: 10 25 80 00 2A 07 45 24  80 F8 FF FF 7F F8 FF FF  .%..*.E$........
0720: 7F 73 30 37 35 02 80 01  3B 07 45 24 80 F8 FF FF  .s075...;.E$....
0730: 7F F8 FF FF 7F 73 30 37  30 02 80 29 08 0D 80 0E  .....s070..)....
0740: 01 0B 2B 0D 80 0E 01 2A  80 23 29 08 0D 80 0E 01  ..+....*.#).....
0750: 0C 29 08 0D 80 0E 01 0D  2B 0D 80 0E 01 2B 80 23  .)......+....+.#
0760: 52 24 80 F8 FF FF 7F F8  FF FF 7F 73 30 37 30 45  R$.........s070E
0770: 24 80 F8 FF FF 7F F8 FF  FF 7F 73 30 37 31 02 80  $.........s071..
0780: 2B 0D 80 0E 01 2C 80 23  29 08 0D 80 0E 01 0E 29  +....,.#)......)
0790: 08 0D 80 0E 01 0F 2B 0D  80 0E 01 2D 80 23 2B 0D  ......+....-.#+.
07A0: 80 0E 01 2E 80 23 29 08  0D 80 0E 01 10 52 24 80  .....#)......R$.
07B0: F8 FF FF 7F F8 FF FF 7F  73 30 37 31 45 24 80 F8  ........s071E$..
07C0: FF FF 7F F8 FF FF 7F 73  30 37 32 02 80 29 08 0D  .......s072..)..
07D0: 80 0E 01 09 2B 0D 80 0E  01 2F 80 23 2B 0D 80 0E  ....+..../.#+...
07E0: 01 30 80 23 29 08 0D 80  0E 01 0A 52 24 80 F8 FF  .0.#)......R$...
07F0: FF 7F F8 FF FF 7F 73 30  37 32 45 24 80 F8 FF FF  ......s072E$....
0800: 7F F8 FF FF 7F 73 30 37  33 02 80 29 08 0D 80 0E  .....s073..)....
0810: 01 0B 2B 0D 80 0E 01 31  80 23 29 08 0D 80 0E 01  ..+....1.#).....
0820: 0C 5D 02 80 0B 80 45 03  80 F0 FF FF 7F F0 FF FF  .]....E.........
0830: 7F 66 64 6F 31 02 80 1C  0B 80 52 24 80 F8 FF FF  .fdo1.....R$....
0840: 7F F8 FF FF 7F 73 30 37  33 5C 00 32 80 5C 01 32  .....s073\.2.\.2
0850: 80 4E 00 F0 FF FF 7F 80  F0 FF FF 7F 46 00 45 03  .N..........F.E.
0860: 80 F0 FF FF 7F F0 FF FF  7F 66 64 69 31 02 80 20  .........fdi1.. 
0870: 00 21 00                                          .!.             
```

#### Opcodes

```
  0: 0x0571 [0x20] SET_CLI_EVENT_UC_FLAG: Lock player control
  1: 0x0573 [0x42] SET_CLI_EVENT_CANCEL_DATA()
  2: 0x0574 [0x46] CAMERA_CONTROL: Disable user control
  3: 0x0576 [0x5D] SET_MUSIC_VOLUME(volume=0*, fade_time=120*)
  4: 0x057B [0x45] LOAD_SCHEDULED_TASK: Load scheduler "fdo1" with entities [EventEntity, EventEntity], work=[200*, 0*]
  5: 0x058C [0x1C] WAIT(120* ticks)
  6: 0x058F [0x38] SET_CLIENT_EVENT_MODE(mode=3*)
  7: 0x0592 [0x29] REQ_SET_WAIT(priority=0x08, entity_id=LocalPlayer, tag_num=0x37)
  8: 0x0599 [0x75] LOAD_ROOM(Load indoor room, room=365*)
  9: 0x059D [0x75] LOAD_ROOM(No action)
 10: 0x059F [0x29] REQ_SET_WAIT(priority=0x0B, entity_id=LocalPlayer, tag_num=0x3B)
 11: 0x05A6 [0x4E] SET_ENTITY_HIDE_FLAG: Show Antreneau (ID: 17727501/0x010E800D)
 12: 0x05AC [0x80] LOAD_WAIT(entity=Antreneau (ID: 17727501/0x010E800D))
 13: 0x05B1 [0x92] Antreneau (ID: 17727501/0x010E800D)->Render.Flags3 ^= 0x01
 14: 0x05B7 [0x4A] LocalPlayer looks at Antreneau (ID: 17727501/0x010E800D)
 15: 0x05C0 [0x6F] WAIT_FRAME_DELAY: Yield until WaitTime reaches zero
 16: 0x05C1 [0x76] CHECK_ENTITY_RENDER_FLAGS: Wait until LocalPlayer Render.Flags0 and Render.Flags3 conditions are met
 17: 0x05C6 [0x5C] MUSIC_CONTROL: Set Idle (Day) music to song 127*
 18: 0x05CA [0x5C] MUSIC_CONTROL: Set Idle (Night) music to song 127*
 19: 0x05CE [0x02] IF !(Work_Zone[9] == 5*) GOTO 0x05EA
 20: 0x05D6 [0x45] LOAD_SCHEDULED_TASK: Load scheduler "s074" with entities [EventEntity, EventEntity], work=[25*, 0*]
 21: 0x05E7 [0x01] GOTO 0x0617
 22: 0x05EA [0x02] IF !(Work_Zone[9] == 6*) GOTO 0x0606
 23: 0x05F2 [0x45] LOAD_SCHEDULED_TASK: Load scheduler "s074" with entities [EventEntity, EventEntity], work=[25*, 0*]
 24: 0x0603 [0x01] GOTO 0x0617
 25: 0x0606 [0x45] LOAD_SCHEDULED_TASK: Load scheduler "s068" with entities [EventEntity, EventEntity], work=[25*, 0*]

SUBROUTINE_0617:
 26: 0x0617 [0x45] LOAD_SCHEDULED_TASK: Load scheduler "fdi1" with entities [EventEntity, EventEntity], work=[200*, 0*]
 27: 0x0628 [0x29] REQ_SET_WAIT(priority=0x08, entity_id=Antreneau (ID: 17727501/0x010E800D), tag_num=0x17)
 28: 0x062F [0x2B] Antreneau (ID: 17727501/0x010E800D) [8450*]:
    → "Beans, beans, and more beans. If the world were not in this sorry state, my connections with the count would have me seated at a banquet table."
 29: 0x0636 [0x23] WAIT_FOR_DIALOG_INTERACTION
 30: 0x0637 [0x29] REQ_SET_WAIT(priority=0x08, entity_id=Antreneau (ID: 17727501/0x010E800D), tag_num=0x18)
 31: 0x063E [0x29] REQ_SET_WAIT(priority=0x08, entity_id=Antreneau (ID: 17727501/0x010E800D), tag_num=0x0D)
 32: 0x0645 [0x2B] Antreneau (ID: 17727501/0x010E800D) [8451*]:
    → "Will not Uncle Louverance restore the Knights Mistalle to our former glory in the foreseeable future? An age has passed since he left on his journey to the north..."
 33: 0x064C [0x23] WAIT_FOR_DIALOG_INTERACTION
 34: 0x064D [0x29] REQ_SET_WAIT(priority=0x08, entity_id=Antreneau (ID: 17727501/0x010E800D), tag_num=0x0E)
 35: 0x0654 [0x02] IF !(Work_Zone[9] == 5*) GOTO 0x066E
 36: 0x065C [0x52] END_LOAD_SCHEDULER: End scheduler "s074" with entities [EventEntity, EventEntity], work=25*
 37: 0x066B [0x01] GOTO 0x0697
 38: 0x066E [0x02] IF !(Work_Zone[9] == 6*) GOTO 0x0688
 39: 0x0676 [0x52] END_LOAD_SCHEDULER: End scheduler "s074" with entities [EventEntity, EventEntity], work=25*
 40: 0x0685 [0x01] GOTO 0x0697
 41: 0x0688 [0x52] END_LOAD_SCHEDULER: End scheduler "s068" with entities [EventEntity, EventEntity], work=25*

SUBROUTINE_0697:
 42: 0x0697 [0x45] LOAD_SCHEDULED_TASK: Load scheduler "s069" with entities [EventEntity, EventEntity], work=[25*, 0*]
 43: 0x06A8 [0x29] REQ_SET_WAIT(priority=0x08, entity_id=Antreneau (ID: 17727501/0x010E800D), tag_num=0x0F)
 44: 0x06AF [0x29] REQ_SET_WAIT(priority=0x08, entity_id=Antreneau (ID: 17727501/0x010E800D), tag_num=0x10)
 45: 0x06B6 [0x4A] Antreneau (ID: 17727501/0x010E800D) looks at LocalPlayer
 46: 0x06BF [0x6F] WAIT_FRAME_DELAY: Yield until WaitTime reaches zero
 47: 0x06C0 [0x76] CHECK_ENTITY_RENDER_FLAGS: Wait until Antreneau (ID: 17727501/0x010E800D) Render.Flags0 and Render.Flags3 conditions are met
 48: 0x06C5 [0x2B] Antreneau (ID: 17727501/0x010E800D) [8452*]:
    → "What's this? You wish to hear more of my uncle? You have strange interests for an adventurer, friend."
 49: 0x06CC [0x23] WAIT_FOR_DIALOG_INTERACTION
 50: 0x06CD [0x29] REQ_SET_WAIT(priority=0x08, entity_id=Antreneau (ID: 17727501/0x010E800D), tag_num=0x09)
 51: 0x06D4 [0x2B] Antreneau (ID: 17727501/0x010E800D) [8453*]:
    → "If you wish to learn more about my uncle, why not meet with him in person? He can be found somewhere beyond the Uleguerand Range, north of Xarcabard."
 52: 0x06DB [0x23] WAIT_FOR_DIALOG_INTERACTION
 53: 0x06DC [0x29] REQ_SET_WAIT(priority=0x08, entity_id=Antreneau (ID: 17727501/0x010E800D), tag_num=0x0A)
 54: 0x06E3 [0x52] END_LOAD_SCHEDULER: End scheduler "s069" with entities [EventEntity, EventEntity], work=25*
 55: 0x06F2 [0x02] IF !(Work_Zone[9] == 5*) GOTO 0x070E
 56: 0x06FA [0x45] LOAD_SCHEDULED_TASK: Load scheduler "s075" with entities [EventEntity, EventEntity], work=[25*, 0*]
 57: 0x070B [0x01] GOTO 0x073B
 58: 0x070E [0x02] IF !(Work_Zone[9] == 6*) GOTO 0x072A
 59: 0x0716 [0x45] LOAD_SCHEDULED_TASK: Load scheduler "s075" with entities [EventEntity, EventEntity], work=[25*, 0*]
 60: 0x0727 [0x01] GOTO 0x073B
 61: 0x072A [0x45] LOAD_SCHEDULED_TASK: Load scheduler "s070" with entities [EventEntity, EventEntity], work=[25*, 0*]

SUBROUTINE_073B:
 62: 0x073B [0x29] REQ_SET_WAIT(priority=0x08, entity_id=Antreneau (ID: 17727501/0x010E800D), tag_num=0x0B)
 63: 0x0742 [0x2B] Antreneau (ID: 17727501/0x010E800D) [8454*]:
    → "The Orcish forces passed over the Uleguerand Range to stage their invasion into Quon. Several hundred years ago, during their efforts to halt the Orcs' advance through the mountains, the Royal Knights drew a map of the area."
 64: 0x0749 [0x23] WAIT_FOR_DIALOG_INTERACTION
 65: 0x074A [0x29] REQ_SET_WAIT(priority=0x08, entity_id=Antreneau (ID: 17727501/0x010E800D), tag_num=0x0C)
 66: 0x0751 [0x29] REQ_SET_WAIT(priority=0x08, entity_id=Antreneau (ID: 17727501/0x010E800D), tag_num=0x0D)
 67: 0x0758 [0x2B] Antreneau (ID: 17727501/0x010E800D) [8455*]:
    → "Access to this map is strictly controlled, and it cannot be freely borrowed."
 68: 0x075F [0x23] WAIT_FOR_DIALOG_INTERACTION
 69: 0x0760 [0x52] END_LOAD_SCHEDULER: End scheduler "s070" with entities [EventEntity, EventEntity], work=25*
 70: 0x076F [0x45] LOAD_SCHEDULED_TASK: Load scheduler "s071" with entities [EventEntity, EventEntity], work=[25*, 0*]
 71: 0x0780 [0x2B] Antreneau (ID: 17727501/0x010E800D) [8456*]:
    → "The cartography was based on intelligence gathered in the conflict with the Orcish Empire..."
 72: 0x0787 [0x23] WAIT_FOR_DIALOG_INTERACTION
 73: 0x0788 [0x29] REQ_SET_WAIT(priority=0x08, entity_id=Antreneau (ID: 17727501/0x010E800D), tag_num=0x0E)
 74: 0x078F [0x29] REQ_SET_WAIT(priority=0x08, entity_id=Antreneau (ID: 17727501/0x010E800D), tag_num=0x0F)
 75: 0x0796 [0x2B] Antreneau (ID: 17727501/0x010E800D) [8457*]:
    → "...and perusal of the map will reveal the Royal Knights' battle tactics."
 76: 0x079D [0x23] WAIT_FOR_DIALOG_INTERACTION
 77: 0x079E [0x2B] Antreneau (ID: 17727501/0x010E800D) [8458*]:
    → "Due to the return of Lord Excenmille--and his report that the Orcish Empire's strength far exceeds our estimates--the map has been placed under even tighter security."
 78: 0x07A5 [0x23] WAIT_FOR_DIALOG_INTERACTION
 79: 0x07A6 [0x29] REQ_SET_WAIT(priority=0x08, entity_id=Antreneau (ID: 17727501/0x010E800D), tag_num=0x10)
 80: 0x07AD [0x52] END_LOAD_SCHEDULER: End scheduler "s071" with entities [EventEntity, EventEntity], work=25*
 81: 0x07BC [0x45] LOAD_SCHEDULED_TASK: Load scheduler "s072" with entities [EventEntity, EventEntity], work=[25*, 0*]
 82: 0x07CD [0x29] REQ_SET_WAIT(priority=0x08, entity_id=Antreneau (ID: 17727501/0x010E800D), tag_num=0x09)
 83: 0x07D4 [0x2B] Antreneau (ID: 17727501/0x010E800D) [8459*]:
    → "In the case of my uncle, his problem was solved by the appearance of a man who offered to guide him across the mountains."
 84: 0x07DB [0x23] WAIT_FOR_DIALOG_INTERACTION
 85: 0x07DC [0x2B] Antreneau (ID: 17727501/0x010E800D) [8460*]:
    → "According to that guide, the northern side of the Uleguerand Range can be reached through the tunnels that wind beneath Thousandfall Ridge."
 86: 0x07E3 [0x23] WAIT_FOR_DIALOG_INTERACTION
 87: 0x07E4 [0x29] REQ_SET_WAIT(priority=0x08, entity_id=Antreneau (ID: 17727501/0x010E800D), tag_num=0x0A)
 88: 0x07EB [0x52] END_LOAD_SCHEDULER: End scheduler "s072" with entities [EventEntity, EventEntity], work=25*
 89: 0x07FA [0x45] LOAD_SCHEDULED_TASK: Load scheduler "s073" with entities [EventEntity, EventEntity], work=[25*, 0*]
 90: 0x080B [0x29] REQ_SET_WAIT(priority=0x08, entity_id=Antreneau (ID: 17727501/0x010E800D), tag_num=0x0B)
 91: 0x0812 [0x2B] Antreneau (ID: 17727501/0x010E800D) [8461*]:
    → "If you truly intend to meet with my uncle, tell him his nephew, Antreneau, worries for him and wishes for his swift return."
 92: 0x0819 [0x23] WAIT_FOR_DIALOG_INTERACTION
 93: 0x081A [0x29] REQ_SET_WAIT(priority=0x08, entity_id=Antreneau (ID: 17727501/0x010E800D), tag_num=0x0C)
 94: 0x0821 [0x5D] SET_MUSIC_VOLUME(volume=0*, fade_time=120*)
 95: 0x0826 [0x45] LOAD_SCHEDULED_TASK: Load scheduler "fdo1" with entities [LocalPlayer, LocalPlayer], work=[200*, 0*]
 96: 0x0837 [0x1C] WAIT(120* ticks)
 97: 0x083A [0x52] END_LOAD_SCHEDULER: End scheduler "s073" with entities [EventEntity, EventEntity], work=25*
 98: 0x0849 [0x5C] MUSIC_CONTROL: Set Idle (Day) music to song 107*
 99: 0x084D [0x5C] MUSIC_CONTROL: Set Idle (Night) music to song 107*
100: 0x0851 [0x4E] SET_ENTITY_HIDE_FLAG: Show LocalPlayer
101: 0x0857 [0x80] LOAD_WAIT(entity=LocalPlayer)
102: 0x085C [0x46] CAMERA_CONTROL: Restore default settings
103: 0x085E [0x45] LOAD_SCHEDULED_TASK: Load scheduler "fdi1" with entities [LocalPlayer, LocalPlayer], work=[200*, 0*]
104: 0x086F [0x20] SET_CLI_EVENT_UC_FLAG: Unlock player control
105: 0x0871 [0x21] END_EVENT
106: 0x0872 [0x00] END_REQSTACK()
```

### Event 726

#### Metadata

| Field        | Value    |
|--------------|----------|
| Entrypoint   | 0x0873   |
| Data Size    | 37 bytes |
| Instructions | 14       |

```
      00 01 02 03 04 05 06 07  08 09 0A 0B 0C 0D 0E 0F
      -- -- -- -- -- -- -- --  -- -- -- -- -- -- -- --
0870:          1E F0 FF FF 7F  6F 70 29 08 0D 80 0E 01     .....op).....
0880: 09 1D 33 80 23 1D 34 80  23 1D 35 80 23 29 08 0D  ..3.#.4.#.5.#)..
0890: 80 0E 01 0A 20 00 21 00                           .... .!.        
```

#### Opcodes

```
  0: 0x0873 [0x1E] EventEntity looks at LocalPlayer and starts talking
  1: 0x0878 [0x6F] WAIT_FRAME_DELAY: Yield until WaitTime reaches zero
  2: 0x0879 [0x70] WAIT_ENTITY_RENDER_FLAG: Wait while EventEntity->Render.Flags3 bit 2 is set (cancel turn if not)
  3: 0x087A [0x29] REQ_SET_WAIT(priority=0x08, entity_id=Antreneau (ID: 17727501/0x010E800D), tag_num=0x09)
  4: 0x0881 [0x1D] PRINT_EVENT_MESSAGE(message_id=8462*)
    → "If you wish to meet with my uncle, you must cross the Uleguerand Range."
  5: 0x0884 [0x23] WAIT_FOR_DIALOG_INTERACTION
  6: 0x0885 [0x1D] PRINT_EVENT_MESSAGE(message_id=8463*)
    → "I am not permitted to give you a map of the area, however I will tell you the directions the guide gave my uncle."
  7: 0x0888 [0x23] WAIT_FOR_DIALOG_INTERACTION
  8: 0x0889 [0x1D] PRINT_EVENT_MESSAGE(message_id=8464*)
    → "According to the guide, a cave found on the slopes of Thousandfall Ridge leads to the other side of the Uleguerand Range."
  9: 0x088C [0x23] WAIT_FOR_DIALOG_INTERACTION
 10: 0x088D [0x29] REQ_SET_WAIT(priority=0x08, entity_id=Antreneau (ID: 17727501/0x010E800D), tag_num=0x0A)
 11: 0x0894 [0x20] SET_CLI_EVENT_UC_FLAG: Unlock player control
 12: 0x0896 [0x21] END_EVENT
 13: 0x0897 [0x00] END_REQSTACK()
```

### Event 727

#### Metadata

| Field        | Value    |
|--------------|----------|
| Entrypoint   | 0x0898   |
| Data Size    | 84 bytes |
| Instructions | 21       |

```
      00 01 02 03 04 05 06 07  08 09 0A 0B 0C 0D 0E 0F
      -- -- -- -- -- -- -- --  -- -- -- -- -- -- -- --
0890:                          1E F0 FF FF 7F 6F 70 29          .....op)
08A0: 08 0D 80 0E 01 1D 1D 36  80 23 29 08 0D 80 0E 01  .......6.#).....
08B0: 1E 29 08 0D 80 0E 01 1F  29 08 0D 80 0E 01 20 29  .)......)..... )
08C0: 08 0D 80 0E 01 0D 1D 37  80 23 29 08 0D 80 0E 01  .......7.#).....
08D0: 0E 29 08 0D 80 0E 01 0F  29 08 0D 80 0E 01 10 1E  .)......).......
08E0: 0E 80 0E 01 1D 38 80 23  20 00 21 00              .....8.# .!.    
```

#### Opcodes

```
  0: 0x0898 [0x1E] EventEntity looks at LocalPlayer and starts talking
  1: 0x089D [0x6F] WAIT_FRAME_DELAY: Yield until WaitTime reaches zero
  2: 0x089E [0x70] WAIT_ENTITY_RENDER_FLAG: Wait while EventEntity->Render.Flags3 bit 2 is set (cancel turn if not)
  3: 0x089F [0x29] REQ_SET_WAIT(priority=0x08, entity_id=Antreneau (ID: 17727501/0x010E800D), tag_num=0x1D)
  4: 0x08A6 [0x1D] PRINT_EVENT_MESSAGE(message_id=8465*)
    → "You actually managed to find my uncle!?"
  5: 0x08A9 [0x23] WAIT_FOR_DIALOG_INTERACTION
  6: 0x08AA [0x29] REQ_SET_WAIT(priority=0x08, entity_id=Antreneau (ID: 17727501/0x010E800D), tag_num=0x1E)
  7: 0x08B1 [0x29] REQ_SET_WAIT(priority=0x08, entity_id=Antreneau (ID: 17727501/0x010E800D), tag_num=0x1F)
  8: 0x08B8 [0x29] REQ_SET_WAIT(priority=0x08, entity_id=Antreneau (ID: 17727501/0x010E800D), tag_num=0x20)
  9: 0x08BF [0x29] REQ_SET_WAIT(priority=0x08, entity_id=Antreneau (ID: 17727501/0x010E800D), tag_num=0x0D)
 10: 0x08C6 [0x1D] PRINT_EVENT_MESSAGE(message_id=8466*)
    → "So, he is well? He travels a hard path, if what you say is true. I feel ashamed to be complaining of nothing more than a steady diet of beans."
 11: 0x08C9 [0x23] WAIT_FOR_DIALOG_INTERACTION
 12: 0x08CA [0x29] REQ_SET_WAIT(priority=0x08, entity_id=Antreneau (ID: 17727501/0x010E800D), tag_num=0x0E)
 13: 0x08D1 [0x29] REQ_SET_WAIT(priority=0x08, entity_id=Antreneau (ID: 17727501/0x010E800D), tag_num=0x0F)
 14: 0x08D8 [0x29] REQ_SET_WAIT(priority=0x08, entity_id=Antreneau (ID: 17727501/0x010E800D), tag_num=0x10)
 15: 0x08DF [0x1E] EventEntity looks at Nogelle (ID: 17727502/0x010E800E) and starts talking
 16: 0x08E4 [0x1D] PRINT_EVENT_MESSAGE(message_id=8467*)
    → "But I cannot quell this desire for meat! Bring me meat! Any dish with meat in it will do!"
 17: 0x08E7 [0x23] WAIT_FOR_DIALOG_INTERACTION
 18: 0x08E8 [0x20] SET_CLI_EVENT_UC_FLAG: Unlock player control
 19: 0x08EA [0x21] END_EVENT
 20: 0x08EB [0x00] END_REQSTACK()
```

### Event 792

#### Metadata

| Field        | Value   |
|--------------|---------|
| Entrypoint   | 0x08EC  |
| Data Size    | 1 bytes |
| Instructions | 1       |

```
      00 01 02 03 04 05 06 07  08 09 0A 0B 0C 0D 0E 0F
      -- -- -- -- -- -- -- --  -- -- -- -- -- -- -- --
08E0:                                      00                       .   
```

#### Opcodes

```
  0: 0x08EC [0x00] END_REQSTACK()
```

### Event 793

#### Metadata

| Field        | Value   |
|--------------|---------|
| Entrypoint   | 0x08ED  |
| Data Size    | 1 bytes |
| Instructions | 1       |

```
      00 01 02 03 04 05 06 07  08 09 0A 0B 0C 0D 0E 0F
      -- -- -- -- -- -- -- --  -- -- -- -- -- -- -- --
08E0:                                         00                     .  
```

#### Opcodes

```
  0: 0x08ED [0x00] END_REQSTACK()
```
