# 17727489 - Trion

## Common Data

| Field            | Value                     |
|------------------|---------------------------|
| Zone             | Port San d'Oria (ID: 232) |
| Block Size       | 280 bytes                 |
| Total Events     | 15                        |
| References Count | 13                        |

## List of Events

| Event ID                   | Entrypoint   |   Size |   Instructions |
|----------------------------|--------------|--------|----------------|
| [65535](#event-65535)      | 0x0000       |      1 |              1 |
| [65535.1](#event-655351)   | 0x0001       |      5 |              3 |
| [65535.2](#event-655352)   | 0x0006       |      6 |              2 |
| [500](#event-500)          | 0x000C       |      3 |              2 |
| [65535.3](#event-655353)   | 0x000F       |      9 |              3 |
| [65535.4](#event-655354)   | 0x0018       |     19 |              5 |
| [65535.5](#event-655355)   | 0x002B       |     19 |              5 |
| [65535.6](#event-655356)   | 0x003E       |      6 |              2 |
| [65535.7](#event-655357)   | 0x0044       |      6 |              2 |
| [65535.8](#event-655358)   | 0x004A       |      6 |              2 |
| [65535.9](#event-655359)   | 0x0050       |      9 |              3 |
| [65535.10](#event-6553510) | 0x0059       |      9 |              3 |
| [65535.11](#event-6553511) | 0x0062       |      9 |              3 |
| [65535.12](#event-6553512) | 0x006B       |     13 |              3 |
| [65535.13](#event-6553513) | 0x0078       |     32 |              8 |

## DAT References (imed_data)

|   Index | Hex Value   |   Dec Value |
|---------|-------------|-------------|
|       0 | 0x1CD0      |        7376 |
|       1 | 0x000D      |          13 |
|       2 | 0xFFFE67F8  |  4294862840 |
|       3 | 0xFFFE0819  |  4294838297 |
|       4 | 0xFFFFE0C0  |  4294959296 |
|       5 | 0xFFFE6A57  |  4294863447 |
|       6 | 0xFFFE0C41  |  4294839361 |
|       7 | 0x003C      |          60 |
|       8 | 0xFFFE6C89  |  4294864009 |
|       9 | 0xFFFE0A7C  |  4294838908 |
|      10 | 0xFFFEB44B  |  4294882379 |
|      11 | 0xFFFE531A  |  4294857498 |
|      12 | 0xFFFFF014  |  4294963220 |

## String References

- **7376**: [Cutscene] Never before has [he/she] set foot within the Elvaan capital, but [he/she] is resolved to let nothing stand in [his/her] way.

## Events

### Event 65535

#### Metadata

| Field        | Value   |
|--------------|---------|
| Entrypoint   | 0x0000  |
| Data Size    | 1 bytes |
| Instructions | 1       |

```
      00 01 02 03 04 05 06 07  08 09 0A 0B 0C 0D 0E 0F
      -- -- -- -- -- -- -- --  -- -- -- -- -- -- -- --
0000: 00                                                .               
```

#### Opcodes

```
  0: 0x0000 [0x00] END_REQSTACK()
```

### Event 65535.1

#### Metadata

| Field        | Value   |
|--------------|---------|
| Entrypoint   | 0x0001  |
| Data Size    | 5 bytes |
| Instructions | 3       |

```
      00 01 02 03 04 05 06 07  08 09 0A 0B 0C 0D 0E 0F
      -- -- -- -- -- -- -- --  -- -- -- -- -- -- -- --
0000:    48 00 80 23 00                                  H..#.          
```

#### Opcodes

```
  0: 0x0001 [0x48] [System] [7376*]:
    → "[Cutscene] Never before has [he/she] set foot within the Elvaan capital, but [he/she] is resolved to let nothing stand in [his/her] way."
  1: 0x0004 [0x23] WAIT_FOR_DIALOG_INTERACTION
  2: 0x0005 [0x00] END_REQSTACK()
```

### Event 65535.2

#### Metadata

| Field        | Value   |
|--------------|---------|
| Entrypoint   | 0x0006  |
| Data Size    | 6 bytes |
| Instructions | 2       |

```
      00 01 02 03 04 05 06 07  08 09 0A 0B 0C 0D 0E 0F
      -- -- -- -- -- -- -- --  -- -- -- -- -- -- -- --
0000:                   5E 69  64 6C 30 00                    ^idl0.    
```

#### Opcodes

```
  0: 0x0006 [0x5E] EventEntity goes idle (kills current action) (animation: "idl0")
  1: 0x000B [0x00] END_REQSTACK()
```

### Event 500

#### Metadata

| Field        | Value   |
|--------------|---------|
| Entrypoint   | 0x000C  |
| Data Size    | 3 bytes |
| Instructions | 2       |

```
      00 01 02 03 04 05 06 07  08 09 0A 0B 0C 0D 0E 0F
      -- -- -- -- -- -- -- --  -- -- -- -- -- -- -- --
0000:                                      22 01 00                 ".. 
```

#### Opcodes

```
  0: 0x000C [0x22] ENTITY_HIDE_FLAG(enabled=0x01)
  1: 0x000E [0x00] END_REQSTACK()
```

### Event 65535.3

#### Metadata

| Field        | Value   |
|--------------|---------|
| Entrypoint   | 0x000F  |
| Data Size    | 9 bytes |
| Instructions | 3       |

```
      00 01 02 03 04 05 06 07  08 09 0A 0B 0C 0D 0E 0F
      -- -- -- -- -- -- -- --  -- -- -- -- -- -- -- --
0000:                                               2F                 /
0010: 00 01 80 0E 01 22 00 00                           ....."..        
```

#### Opcodes

```
  0: 0x000F [0x2F] Trion (ID: 17727489/0x010E8001)->Render.Flags0 &= ~0x80000 // Bit 19
  1: 0x0015 [0x22] ENTITY_HIDE_FLAG(enabled=0x00)
  2: 0x0017 [0x00] END_REQSTACK()
```

### Event 65535.4

#### Metadata

| Field        | Value    |
|--------------|----------|
| Entrypoint   | 0x0018   |
| Data Size    | 19 bytes |
| Instructions | 5        |

```
      00 01 02 03 04 05 06 07  08 09 0A 0B 0C 0D 0E 0F
      -- -- -- -- -- -- -- --  -- -- -- -- -- -- -- --
0010:                          32 01 80 1F 00 02 80 03          2.......
0020: 80 04 80 1F 01 1E 04 80  0E 01 00                 ...........     
```

#### Opcodes

```
  0: 0x0018 [0x32] ExtData[1]->MainSpeed = 13* * 0.1
  1: 0x001B [0x1F] MOVE_ENTITY: EventEntity moves to X=-104.456*, Z=-128.999*, Y=-8.000*
  2: 0x0023 [0x1F] MOVE_ENTITY: Update entity position (mode=1)
  3: 0x0025 [0x1E] EventEntity looks at Avandale (ID: 17727492/0x010E8004) and starts talking
  4: 0x002A [0x00] END_REQSTACK()
```

### Event 65535.5

#### Metadata

| Field        | Value    |
|--------------|----------|
| Entrypoint   | 0x002B   |
| Data Size    | 19 bytes |
| Instructions | 5        |

```
      00 01 02 03 04 05 06 07  08 09 0A 0B 0C 0D 0E 0F
      -- -- -- -- -- -- -- --  -- -- -- -- -- -- -- --
0020:                                   32 01 80 1F 00             2....
0030: 05 80 06 80 04 80 1F 01  1E 02 80 0E 01 00        ..............  
```

#### Opcodes

```
  0: 0x002B [0x32] ExtData[1]->MainSpeed = 13* * 0.1
  1: 0x002E [0x1F] MOVE_ENTITY: EventEntity moves to X=-103.849*, Z=-127.935*, Y=-8.000*
  2: 0x0036 [0x1F] MOVE_ENTITY: Update entity position (mode=1)
  3: 0x0038 [0x1E] EventEntity looks at Pieuje (ID: 17727490/0x010E8002) and starts talking
  4: 0x003D [0x00] END_REQSTACK()
```

### Event 65535.6

#### Metadata

| Field        | Value   |
|--------------|---------|
| Entrypoint   | 0x003E  |
| Data Size    | 6 bytes |
| Instructions | 2       |

```
      00 01 02 03 04 05 06 07  08 09 0A 0B 0C 0D 0E 0F
      -- -- -- -- -- -- -- --  -- -- -- -- -- -- -- --
0030:                                            1E 04                ..
0040: 80 0E 01 00                                       ....            
```

#### Opcodes

```
  0: 0x003E [0x1E] EventEntity looks at Avandale (ID: 17727492/0x010E8004) and starts talking
  1: 0x0043 [0x00] END_REQSTACK()
```

### Event 65535.7

#### Metadata

| Field        | Value   |
|--------------|---------|
| Entrypoint   | 0x0044  |
| Data Size    | 6 bytes |
| Instructions | 2       |

```
      00 01 02 03 04 05 06 07  08 09 0A 0B 0C 0D 0E 0F
      -- -- -- -- -- -- -- --  -- -- -- -- -- -- -- --
0040:             1E F0 FF FF  7F 00                        ......      
```

#### Opcodes

```
  0: 0x0044 [0x1E] EventEntity looks at LocalPlayer and starts talking
  1: 0x0049 [0x00] END_REQSTACK()
```

### Event 65535.8

#### Metadata

| Field        | Value   |
|--------------|---------|
| Entrypoint   | 0x004A  |
| Data Size    | 6 bytes |
| Instructions | 2       |

```
      00 01 02 03 04 05 06 07  08 09 0A 0B 0C 0D 0E 0F
      -- -- -- -- -- -- -- --  -- -- -- -- -- -- -- --
0040:                                1E 02 80 0E 01 00            ......
```

#### Opcodes

```
  0: 0x004A [0x1E] EventEntity looks at Pieuje (ID: 17727490/0x010E8002) and starts talking
  1: 0x004F [0x00] END_REQSTACK()
```

### Event 65535.9

#### Metadata

| Field        | Value   |
|--------------|---------|
| Entrypoint   | 0x0050  |
| Data Size    | 9 bytes |
| Instructions | 3       |

```
      00 01 02 03 04 05 06 07  08 09 0A 0B 0C 0D 0E 0F
      -- -- -- -- -- -- -- --  -- -- -- -- -- -- -- --
0050: 1C 07 80 1E 04 80 0E 01  00                       .........       
```

#### Opcodes

```
  0: 0x0050 [0x1C] WAIT(60* ticks)
  1: 0x0053 [0x1E] EventEntity looks at Avandale (ID: 17727492/0x010E8004) and starts talking
  2: 0x0058 [0x00] END_REQSTACK()
```

### Event 65535.10

#### Metadata

| Field        | Value   |
|--------------|---------|
| Entrypoint   | 0x0059  |
| Data Size    | 9 bytes |
| Instructions | 3       |

```
      00 01 02 03 04 05 06 07  08 09 0A 0B 0C 0D 0E 0F
      -- -- -- -- -- -- -- --  -- -- -- -- -- -- -- --
0050:                             1C 07 80 1E F0 FF FF           .......
0060: 7F 00                                             ..              
```

#### Opcodes

```
  0: 0x0059 [0x1C] WAIT(60* ticks)
  1: 0x005C [0x1E] EventEntity looks at LocalPlayer and starts talking
  2: 0x0061 [0x00] END_REQSTACK()
```

### Event 65535.11

#### Metadata

| Field        | Value   |
|--------------|---------|
| Entrypoint   | 0x0062  |
| Data Size    | 9 bytes |
| Instructions | 3       |

```
      00 01 02 03 04 05 06 07  08 09 0A 0B 0C 0D 0E 0F
      -- -- -- -- -- -- -- --  -- -- -- -- -- -- -- --
0060:       1C 07 80 1E 02 80  0E 01 00                   .........     
```

#### Opcodes

```
  0: 0x0062 [0x1C] WAIT(60* ticks)
  1: 0x0065 [0x1E] EventEntity looks at Pieuje (ID: 17727490/0x010E8002) and starts talking
  2: 0x006A [0x00] END_REQSTACK()
```

### Event 65535.12

#### Metadata

| Field        | Value    |
|--------------|----------|
| Entrypoint   | 0x006B   |
| Data Size    | 13 bytes |
| Instructions | 3        |

```
      00 01 02 03 04 05 06 07  08 09 0A 0B 0C 0D 0E 0F
      -- -- -- -- -- -- -- --  -- -- -- -- -- -- -- --
0060:                                   36 08 80 09 80             6....
0070: 04 80 1E 02 80 0E 01 00                           ........        
```

#### Opcodes

```
  0: 0x006B [0x36] SET_ENTITY_EVENT_POSITION(pos_x=-103.287*, pos_z=-128.388*, pos_y=-8.000*)
  1: 0x0072 [0x1E] EventEntity looks at Pieuje (ID: 17727490/0x010E8002) and starts talking
  2: 0x0077 [0x00] END_REQSTACK()
```

### Event 65535.13

#### Metadata

| Field        | Value    |
|--------------|----------|
| Entrypoint   | 0x0078   |
| Data Size    | 32 bytes |
| Instructions | 8        |

```
      00 01 02 03 04 05 06 07  08 09 0A 0B 0C 0D 0E 0F
      -- -- -- -- -- -- -- --  -- -- -- -- -- -- -- --
0070:                          32 01 80 1F 00 08 80 09          2.......
0080: 80 04 80 1F 01 1F 00 0A  80 0B 80 0C 80 1F 01 2F  .............../
0090: 01 01 80 0E 01 22 01 00                           ....."..        
```

#### Opcodes

```
  0: 0x0078 [0x32] ExtData[1]->MainSpeed = 13* * 0.1
  1: 0x007B [0x1F] MOVE_ENTITY: EventEntity moves to X=-103.287*, Z=-128.388*, Y=-8.000*
  2: 0x0083 [0x1F] MOVE_ENTITY: Update entity position (mode=1)
  3: 0x0085 [0x1F] MOVE_ENTITY: EventEntity moves to X=-84.917*, Z=-109.798*, Y=-4.076*
  4: 0x008D [0x1F] MOVE_ENTITY: Update entity position (mode=1)
  5: 0x008F [0x2F] Trion (ID: 17727489/0x010E8001)->Render.Flags0 |= 0x80000 // Bit 19
  6: 0x0095 [0x22] ENTITY_HIDE_FLAG(enabled=0x01)
  7: 0x0097 [0x00] END_REQSTACK()
```
