# 17727508 - Rugiette

## Common Data

| Field            | Value                     |
|------------------|---------------------------|
| Zone             | Port San d'Oria (ID: 232) |
| Block Size       | 364 bytes                 |
| Total Events     | 5                         |
| References Count | 11                        |

## List of Events

| Event ID                 | Entrypoint   |   Size |   Instructions |
|--------------------------|--------------|--------|----------------|
| [65535](#event-65535)    | 0x0000       |      1 |              1 |
| [601](#event-601)        | 0x0001       |    161 |             31 |
| [65535.1](#event-655351) | 0x00A2       |      6 |              2 |
| [510](#event-510)        | 0x00A8       |      1 |              1 |
| [746](#event-746)        | 0x00A9       |    114 |             20 |

## DAT References (imed_data)

|   Index | Hex Value   |   Dec Value |
|---------|-------------|-------------|
|       0 | 0x001E      |          30 |
|       1 | 0x1D91      |        7569 |
|       2 | 0x1D92      |        7570 |
|       3 | 0x129F      |        4767 |
|       4 | 0x1D93      |        7571 |
|       5 | 0x1D94      |        7572 |
|       6 | 0x21F2      |        8690 |
|       7 | 0x21F3      |        8691 |
|       8 | 0x21F4      |        8692 |
|       9 | 0x21F5      |        8693 |
|      10 | 0x21F6      |        8694 |

## String References

- **7569**: Oh, Regine? Isn't there anything for me to do? We've only had one or two people in here all day...
- **7571**: Every time I think we've got a real customer, all they want are $0. I warned you against opening a magic shop in San d'Oria!
- **8690**: <Player>'s badge flashes brightly.
- **8691**: I must say, things are rather lively in town today. Do you not agree, Regine?
- **8693**: Just when you think a customer has finally appeared, they flash that silly badge and begin prattling about the "Empire of Aht Urhgan." As if we would know anything about such an exotic country.

## Events

### Event 65535

#### Metadata

| Field        | Value   |
|--------------|---------|
| Entrypoint   | 0x0000  |
| Data Size    | 1 bytes |
| Instructions | 1       |

```
      00 01 02 03 04 05 06 07  08 09 0A 0B 0C 0D 0E 0F
      -- -- -- -- -- -- -- --  -- -- -- -- -- -- -- --
0000: 00                                                .               
```

#### Opcodes

```
  0: 0x0000 [0x00] END_REQSTACK()
```

### Event 601

#### Metadata

| Field        | Value     |
|--------------|-----------|
| Entrypoint   | 0x0001    |
| Data Size    | 161 bytes |
| Instructions | 31        |

```
      00 01 02 03 04 05 06 07  08 09 0A 0B 0C 0D 0E 0F
      -- -- -- -- -- -- -- --  -- -- -- -- -- -- -- --
0000:    1E 13 80 0E 01 6F 70  66 00 80 F8 FF FF 7F F8   .....opf.......
0010: FF FF 7F 74 6C 6B 30 1D  01 80 23 5E 69 64 6C 30  ...tlk0...#^idl0
0020: 1C 00 80 4A 13 80 0E 01  14 80 0E 01 6F 76 13 80  ...J........ov..
0030: 0E 01 66 00 80 13 80 0E  01 13 80 0E 01 74 6C 6B  ..f..........tlk
0040: 30 2B 13 80 0E 01 02 80  23 27 64 13 80 0E 01 06  0+......#'d.....
0050: 2A 64 13 80 0E 01 1C 00  80 66 00 80 F8 FF FF 7F  *d.......f......
0060: F8 FF FF 7F 74 6C 6B 30  03 02 10 03 80 1D 04 80  ....tlk0........
0070: 23 5E 69 64 6C 30 1C 00  80 66 00 80 13 80 0E 01  #^idl0...f......
0080: 13 80 0E 01 74 6C 6B 30  2B 13 80 0E 01 05 80 23  ....tlk0+......#
0090: 27 64 13 80 0E 01 06 2A  64 13 80 0E 01 1C 00 80  'd.....*d.......
00A0: 21 00                                             !.              
```

#### Opcodes

```
  0: 0x0001 [0x1E] EventEntity looks at Regine (ID: 17727507/0x010E8013) and starts talking
  1: 0x0006 [0x6F] WAIT_FRAME_DELAY: Yield until WaitTime reaches zero
  2: 0x0007 [0x70] WAIT_ENTITY_RENDER_FLAG: Wait while EventEntity->Render.Flags3 bit 2 is set (cancel turn if not)
  3: 0x0008 [0x66] LOAD_EXT_SCHEDULER_MAIN: Load scheduler "tlk0" with entities [EventEntity, EventEntity], work=30*
  4: 0x0017 [0x1D] PRINT_EVENT_MESSAGE(message_id=7569*)
    → "Oh, Regine? Isn't there anything for me to do? We've only had one or two people in here all day..."
  5: 0x001A [0x23] WAIT_FOR_DIALOG_INTERACTION
  6: 0x001B [0x5E] EventEntity goes idle (kills current action) (animation: "idl0")
  7: 0x0020 [0x1C] WAIT(30* ticks)
  8: 0x0023 [0x4A] Regine (ID: 17727507/0x010E8013) looks at Rugiette (ID: 17727508/0x010E8014)
  9: 0x002C [0x6F] WAIT_FRAME_DELAY: Yield until WaitTime reaches zero
 10: 0x002D [0x76] CHECK_ENTITY_RENDER_FLAGS: Wait until Regine (ID: 17727507/0x010E8013) Render.Flags0 and Render.Flags3 conditions are met
 11: 0x0032 [0x66] LOAD_EXT_SCHEDULER_MAIN: Load scheduler "tlk0" with entities [Regine (ID: 17727507/0x010E8013), Regine (ID: 17727507/0x010E8013)], work=30*
 12: 0x0041 [0x2B] Regine (ID: 17727507/0x010E8013) [7570*]:
    → "Patience, my good sister, patience. Some big spender is likely to come walking in that door any moment now... I hope."
 13: 0x0048 [0x23] WAIT_FOR_DIALOG_INTERACTION
 14: 0x0049 [0x27] REQ_SET(priority=0x64, entity_id=Regine (ID: 17727507/0x010E8013), tag_num=0x06)
 15: 0x0050 [0x2A] GET_REQ_LEVEL(level=100, entity_id=Regine (ID: 17727507/0x010E8013))
 16: 0x0056 [0x1C] WAIT(30* ticks)
 17: 0x0059 [0x66] LOAD_EXT_SCHEDULER_MAIN: Load scheduler "tlk0" with entities [EventEntity, EventEntity], work=30*
 18: 0x0068 [0x03] Work_Zone[2] = 4767*
 19: 0x006D [0x1D] PRINT_EVENT_MESSAGE(message_id=7571*)
    → "Every time I think we've got a real customer, all they want are $0. I warned you against opening a magic shop in San d'Oria!"
 20: 0x0070 [0x23] WAIT_FOR_DIALOG_INTERACTION
 21: 0x0071 [0x5E] EventEntity goes idle (kills current action) (animation: "idl0")
 22: 0x0076 [0x1C] WAIT(30* ticks)
 23: 0x0079 [0x66] LOAD_EXT_SCHEDULER_MAIN: Load scheduler "tlk0" with entities [Regine (ID: 17727507/0x010E8013), Regine (ID: 17727507/0x010E8013)], work=30*
 24: 0x0088 [0x2B] Regine (ID: 17727507/0x010E8013) [7572*]:
    → "But you're the one who said, "I don't want to move that far!" when I suggested we go to Windurst!"
 25: 0x008F [0x23] WAIT_FOR_DIALOG_INTERACTION
 26: 0x0090 [0x27] REQ_SET(priority=0x64, entity_id=Regine (ID: 17727507/0x010E8013), tag_num=0x06)
 27: 0x0097 [0x2A] GET_REQ_LEVEL(level=100, entity_id=Regine (ID: 17727507/0x010E8013))
 28: 0x009D [0x1C] WAIT(30* ticks)
 29: 0x00A0 [0x21] END_EVENT
 30: 0x00A1 [0x00] END_REQSTACK()
```

### Event 65535.1

#### Metadata

| Field        | Value   |
|--------------|---------|
| Entrypoint   | 0x00A2  |
| Data Size    | 6 bytes |
| Instructions | 2       |

```
      00 01 02 03 04 05 06 07  08 09 0A 0B 0C 0D 0E 0F
      -- -- -- -- -- -- -- --  -- -- -- -- -- -- -- --
00A0:       5E 69 64 6C 30 00                             ^idl0.        
```

#### Opcodes

```
  0: 0x00A2 [0x5E] EventEntity goes idle (kills current action) (animation: "idl0")
  1: 0x00A7 [0x00] END_REQSTACK()
```

### Event 510

#### Metadata

| Field        | Value   |
|--------------|---------|
| Entrypoint   | 0x00A8  |
| Data Size    | 1 bytes |
| Instructions | 1       |

```
      00 01 02 03 04 05 06 07  08 09 0A 0B 0C 0D 0E 0F
      -- -- -- -- -- -- -- --  -- -- -- -- -- -- -- --
00A0:                          00                               .       
```

#### Opcodes

```
  0: 0x00A8 [0x00] END_REQSTACK()
```

### Event 746

#### Metadata

| Field        | Value     |
|--------------|-----------|
| Entrypoint   | 0x00A9    |
| Data Size    | 114 bytes |
| Instructions | 20        |

```
      00 01 02 03 04 05 06 07  08 09 0A 0B 0C 0D 0E 0F
      -- -- -- -- -- -- -- --  -- -- -- -- -- -- -- --
00A0:                             42 48 06 80 4A 14 80           BH..J..
00B0: 0E 01 13 80 0E 01 1C 00  80 1D 07 80 23 4A 13 80  ............#J..
00C0: 0E 01 14 80 0E 01 1C 00  80 2B 13 80 0E 01 08 80  .........+......
00D0: 23 66 00 80 14 80 0E 01  14 80 0E 01 74 6C 6B 30  #f..........tlk0
00E0: 1D 09 80 23 66 00 80 14  80 0E 01 14 80 0E 01 74  ...#f..........t
00F0: 6C 6B 31 66 00 80 13 80  0E 01 13 80 0E 01 74 6C  lk1f..........tl
0100: 6B 30 2B 13 80 0E 01 0A  80 23 66 00 80 13 80 0E  k0+......#f.....
0110: 01 13 80 0E 01 74 6C 6B  31 21 00                 .....tlk1!.     
```

#### Opcodes

```
  0: 0x00A9 [0x42] SET_CLI_EVENT_CANCEL_DATA()
  1: 0x00AA [0x48] [System] [8690*]:
    → "<Player>'s badge flashes brightly."
  2: 0x00AD [0x4A] Rugiette (ID: 17727508/0x010E8014) looks at Regine (ID: 17727507/0x010E8013)
  3: 0x00B6 [0x1C] WAIT(30* ticks)
  4: 0x00B9 [0x1D] PRINT_EVENT_MESSAGE(message_id=8691*)
    → "I must say, things are rather lively in town today. Do you not agree, Regine?"
  5: 0x00BC [0x23] WAIT_FOR_DIALOG_INTERACTION
  6: 0x00BD [0x4A] Regine (ID: 17727507/0x010E8013) looks at Rugiette (ID: 17727508/0x010E8014)
  7: 0x00C6 [0x1C] WAIT(30* ticks)
  8: 0x00C9 [0x2B] Regine (ID: 17727507/0x010E8013) [8692*]:
    → "With all the people coming in and out, I find myself hoping some rich red mage without a spell to her name might wander in and purchase our entire stock..."
  9: 0x00D0 [0x23] WAIT_FOR_DIALOG_INTERACTION
 10: 0x00D1 [0x66] LOAD_EXT_SCHEDULER_MAIN: Load scheduler "tlk0" with entities [Rugiette (ID: 17727508/0x010E8014), Rugiette (ID: 17727508/0x010E8014)], work=30*
 11: 0x00E0 [0x1D] PRINT_EVENT_MESSAGE(message_id=8693*)
    → "Just when you think a customer has finally appeared, they flash that silly badge and begin prattling about the "Empire of Aht Urhgan." As if we would know anything about such an exotic country."
 12: 0x00E3 [0x23] WAIT_FOR_DIALOG_INTERACTION
 13: 0x00E4 [0x66] LOAD_EXT_SCHEDULER_MAIN: Load scheduler "tlk1" with entities [Rugiette (ID: 17727508/0x010E8014), Rugiette (ID: 17727508/0x010E8014)], work=30*
 14: 0x00F3 [0x66] LOAD_EXT_SCHEDULER_MAIN: Load scheduler "tlk0" with entities [Regine (ID: 17727507/0x010E8013), Regine (ID: 17727507/0x010E8013)], work=30*
 15: 0x0102 [0x2B] Regine (ID: 17727507/0x010E8013) [8694*]:
    → "Who would dream that either of us had even traveled beyond the borders of San d'Oria? Do they believe we are like the Tavnazians of old and maintain trading partners in the Near East?"
 16: 0x0109 [0x23] WAIT_FOR_DIALOG_INTERACTION
 17: 0x010A [0x66] LOAD_EXT_SCHEDULER_MAIN: Load scheduler "tlk1" with entities [Regine (ID: 17727507/0x010E8013), Regine (ID: 17727507/0x010E8013)], work=30*
 18: 0x0119 [0x21] END_EVENT
 19: 0x011A [0x00] END_REQSTACK()
```
