# 17727512 - Anoki

## Common Data

| Field            | Value                     |
|------------------|---------------------------|
| Zone             | Port San d'Oria (ID: 232) |
| Block Size       | 452 bytes                 |
| Total Events     | 4                         |
| References Count | 16                        |

## List of Events

| Event ID              | Entrypoint   |   Size |   Instructions |
|-----------------------|--------------|--------|----------------|
| [65535](#event-65535) | 0x0000       |      1 |              1 |
| [519](#event-519)     | 0x0001       |     41 |             11 |
| [724](#event-724)     | 0x002A       |    276 |             45 |
| [728](#event-728)     | 0x013E       |     38 |             13 |

## DAT References (imed_data)

|   Index | Hex Value   |   Dec Value |
|---------|-------------|-------------|
|       0 | 0x0000      |           0 |
|       1 | 0x0008      |           8 |
|       2 | 0x1DC9      |        7625 |
|       3 | 0x001E      |          30 |
|       4 | 0x00C8      |         200 |
|       5 | 0x003C      |          60 |
|       6 | 0x0013      |          19 |
|       7 | 0x016C      |         364 |
|       8 | 0x00AF      |         175 |
|       9 | 0x20FB      |        8443 |
|      10 | 0x20FC      |        8444 |
|      11 | 0x20FD      |        8445 |
|      12 | 0x20FE      |        8446 |
|      13 | 0x20FF      |        8447 |
|      14 | 0x2100      |        8448 |
|      15 | 0x2101      |        8449 |

## String References

- **7625**: All passengers, please present your $3 at the door.
- **8443**: Wh-when will the airship from Tavnazia arrive!?
- **8444**: I am sorry, but we have no records for the type of airship you described.
- **8445**: Vessels not registered with the air travel agency are considered illegal, and are only permitted to dock here in emergency situations.
- **8446**: Did you truly see an airship like that? Are you sure it wasn't a dream or hallucination?
- **8447**: Are you still going on about that imaginary airship? I assure you, every single vessel is strictly monitored by the air travel agency.
- **8448**: Even under the orders of the cathedral, no airship can be freely commandeered to fly off to any old place in Vana'diel--especially not the Tavnazian Marquisate!
- **8449**: If you don't believe me, try asking at any of the other agencies. That is, if you don't mind having people doubt your sanity...

## Events

### Event 65535

#### Metadata

| Field        | Value   |
|--------------|---------|
| Entrypoint   | 0x0000  |
| Data Size    | 1 bytes |
| Instructions | 1       |

```
      00 01 02 03 04 05 06 07  08 09 0A 0B 0C 0D 0E 0F
      -- -- -- -- -- -- -- --  -- -- -- -- -- -- -- --
0000: 00                                                .               
```

#### Opcodes

```
  0: 0x0000 [0x00] END_REQSTACK()
```

### Event 519

#### Metadata

| Field        | Value    |
|--------------|----------|
| Entrypoint   | 0x0001   |
| Data Size    | 41 bytes |
| Instructions | 11       |

```
      00 01 02 03 04 05 06 07  08 09 0A 0B 0C 0D 0E 0F
      -- -- -- -- -- -- -- --  -- -- -- -- -- -- -- --
0000:    1E F0 FF FF 7F 6F 70  66 00 80 F8 FF FF 7F F8   .....opf.......
0010: FF FF 7F 74 6C 6B 30 03  09 10 01 80 1D 02 80 23  ...tlk0........#
0020: 5E 69 64 6C 30 1C 03 80  21 00                    ^idl0...!.      
```

#### Opcodes

```
  0: 0x0001 [0x1E] EventEntity looks at LocalPlayer and starts talking
  1: 0x0006 [0x6F] WAIT_FRAME_DELAY: Yield until WaitTime reaches zero
  2: 0x0007 [0x70] WAIT_ENTITY_RENDER_FLAG: Wait while EventEntity->Render.Flags3 bit 2 is set (cancel turn if not)
  3: 0x0008 [0x66] LOAD_EXT_SCHEDULER_MAIN: Load scheduler "tlk0" with entities [EventEntity, EventEntity], work=0*
  4: 0x0017 [0x03] Work_Zone[9] = 8*
  5: 0x001C [0x1D] PRINT_EVENT_MESSAGE(message_id=7625*)
    → "All passengers, please present your $3 at the door."
  6: 0x001F [0x23] WAIT_FOR_DIALOG_INTERACTION
  7: 0x0020 [0x5E] EventEntity goes idle (kills current action) (animation: "idl0")
  8: 0x0025 [0x1C] WAIT(30* ticks)
  9: 0x0028 [0x21] END_EVENT
 10: 0x0029 [0x00] END_REQSTACK()
```

### Event 724

#### Metadata

| Field        | Value     |
|--------------|-----------|
| Entrypoint   | 0x002A    |
| Data Size    | 276 bytes |
| Instructions | 45        |

```
      00 01 02 03 04 05 06 07  08 09 0A 0B 0C 0D 0E 0F
      -- -- -- -- -- -- -- --  -- -- -- -- -- -- -- --
0020:                                20 01 42 46 01 4A             .BF.J
0030: 18 80 0E 01 F0 FF FF 7F  45 04 80 F8 FF FF 7F F8  ........E.......
0040: FF FF 7F 66 64 6F 31 00  80 1C 05 80 6F 76 18 80  ...fdo1.....ov..
0050: 0E 01 38 06 80 29 08 F0  FF FF 7F 37 75 00 07 80  ..8..).....7u...
0060: 75 01 29 0B F0 FF FF 7F  3A 4A F0 FF FF 7F 18 80  u.).....:J......
0070: 0E 01 4A 18 80 0E 01 F0  FF FF 7F 6F 76 F0 FF FF  ..J........ov...
0080: 7F 6F 76 18 80 0E 01 92  01 F8 FF FF 7F 4E 00 18  .ov..........N..
0090: 80 0E 01 80 18 80 0E 01  45 08 80 F8 FF FF 7F F8  ........E.......
00A0: FF FF 7F 73 30 38 36 00  80 45 04 80 F8 FF FF 7F  ...s086..E......
00B0: F8 FF FF 7F 66 64 69 31  00 80 66 00 80 F8 FF FF  ....fdi1..f.....
00C0: 7F F8 FF FF 7F 74 6C 6B  30 1D 09 80 23 1D 0A 80  .....tlk0...#...
00D0: 23 52 08 80 F8 FF FF 7F  F8 FF FF 7F 73 30 38 36  #R..........s086
00E0: 45 08 80 F8 FF FF 7F F8  FF FF 7F 73 30 38 37 00  E..........s087.
00F0: 80 1D 0B 80 23 1D 0C 80  23 45 04 80 F0 FF FF 7F  ....#...#E......
0100: F0 FF FF 7F 66 64 6F 31  00 80 1C 05 80 52 08 80  ....fdo1.....R..
0110: F8 FF FF 7F F8 FF FF 7F  73 30 38 37 4E 00 F0 FF  ........s087N...
0120: FF 7F 80 F0 FF FF 7F 46  00 45 04 80 F0 FF FF 7F  .......F.E......
0130: F0 FF FF 7F 66 64 69 31  00 80 20 00 21 00        ....fdi1.. .!.  
```

#### Opcodes

```
  0: 0x002A [0x20] SET_CLI_EVENT_UC_FLAG: Lock player control
  1: 0x002C [0x42] SET_CLI_EVENT_CANCEL_DATA()
  2: 0x002D [0x46] CAMERA_CONTROL: Disable user control
  3: 0x002F [0x4A] Anoki (ID: 17727512/0x010E8018) looks at LocalPlayer
  4: 0x0038 [0x45] LOAD_SCHEDULED_TASK: Load scheduler "fdo1" with entities [EventEntity, EventEntity], work=[200*, 0*]
  5: 0x0049 [0x1C] WAIT(60* ticks)
  6: 0x004C [0x6F] WAIT_FRAME_DELAY: Yield until WaitTime reaches zero
  7: 0x004D [0x76] CHECK_ENTITY_RENDER_FLAGS: Wait until Anoki (ID: 17727512/0x010E8018) Render.Flags0 and Render.Flags3 conditions are met
  8: 0x0052 [0x38] SET_CLIENT_EVENT_MODE(mode=19*)
  9: 0x0055 [0x29] REQ_SET_WAIT(priority=0x08, entity_id=LocalPlayer, tag_num=0x37)
 10: 0x005C [0x75] LOAD_ROOM(Load indoor room, room=364*)
 11: 0x0060 [0x75] LOAD_ROOM(No action)
 12: 0x0062 [0x29] REQ_SET_WAIT(priority=0x0B, entity_id=LocalPlayer, tag_num=0x3A)
 13: 0x0069 [0x4A] LocalPlayer looks at Anoki (ID: 17727512/0x010E8018)
 14: 0x0072 [0x4A] Anoki (ID: 17727512/0x010E8018) looks at LocalPlayer
 15: 0x007B [0x6F] WAIT_FRAME_DELAY: Yield until WaitTime reaches zero
 16: 0x007C [0x76] CHECK_ENTITY_RENDER_FLAGS: Wait until LocalPlayer Render.Flags0 and Render.Flags3 conditions are met
 17: 0x0081 [0x6F] WAIT_FRAME_DELAY: Yield until WaitTime reaches zero
 18: 0x0082 [0x76] CHECK_ENTITY_RENDER_FLAGS: Wait until Anoki (ID: 17727512/0x010E8018) Render.Flags0 and Render.Flags3 conditions are met
 19: 0x0087 [0x92] EventEntity->Render.Flags3 ^= 0x01
 20: 0x008D [0x4E] SET_ENTITY_HIDE_FLAG: Show Anoki (ID: 17727512/0x010E8018)
 21: 0x0093 [0x80] LOAD_WAIT(entity=Anoki (ID: 17727512/0x010E8018))
 22: 0x0098 [0x45] LOAD_SCHEDULED_TASK: Load scheduler "s086" with entities [EventEntity, EventEntity], work=[175*, 0*]
 23: 0x00A9 [0x45] LOAD_SCHEDULED_TASK: Load scheduler "fdi1" with entities [EventEntity, EventEntity], work=[200*, 0*]
 24: 0x00BA [0x66] LOAD_EXT_SCHEDULER_MAIN: Load scheduler "tlk0" with entities [EventEntity, EventEntity], work=0*
 25: 0x00C9 [0x1D] PRINT_EVENT_MESSAGE(message_id=8443*)
    → "Wh-when will the airship from Tavnazia arrive!?"
 26: 0x00CC [0x23] WAIT_FOR_DIALOG_INTERACTION
 27: 0x00CD [0x1D] PRINT_EVENT_MESSAGE(message_id=8444*)
    → "I am sorry, but we have no records for the type of airship you described."
 28: 0x00D0 [0x23] WAIT_FOR_DIALOG_INTERACTION
 29: 0x00D1 [0x52] END_LOAD_SCHEDULER: End scheduler "s086" with entities [EventEntity, EventEntity], work=175*
 30: 0x00E0 [0x45] LOAD_SCHEDULED_TASK: Load scheduler "s087" with entities [EventEntity, EventEntity], work=[175*, 0*]
 31: 0x00F1 [0x1D] PRINT_EVENT_MESSAGE(message_id=8445*)
    → "Vessels not registered with the air travel agency are considered illegal, and are only permitted to dock here in emergency situations."
 32: 0x00F4 [0x23] WAIT_FOR_DIALOG_INTERACTION
 33: 0x00F5 [0x1D] PRINT_EVENT_MESSAGE(message_id=8446*)
    → "Did you truly see an airship like that? Are you sure it wasn't a dream or hallucination?"
 34: 0x00F8 [0x23] WAIT_FOR_DIALOG_INTERACTION
 35: 0x00F9 [0x45] LOAD_SCHEDULED_TASK: Load scheduler "fdo1" with entities [LocalPlayer, LocalPlayer], work=[200*, 0*]
 36: 0x010A [0x1C] WAIT(60* ticks)
 37: 0x010D [0x52] END_LOAD_SCHEDULER: End scheduler "s087" with entities [EventEntity, EventEntity], work=175*
 38: 0x011C [0x4E] SET_ENTITY_HIDE_FLAG: Show LocalPlayer
 39: 0x0122 [0x80] LOAD_WAIT(entity=LocalPlayer)
 40: 0x0127 [0x46] CAMERA_CONTROL: Restore default settings
 41: 0x0129 [0x45] LOAD_SCHEDULED_TASK: Load scheduler "fdi1" with entities [LocalPlayer, LocalPlayer], work=[200*, 0*]
 42: 0x013A [0x20] SET_CLI_EVENT_UC_FLAG: Unlock player control
 43: 0x013C [0x21] END_EVENT
 44: 0x013D [0x00] END_REQSTACK()
```

### Event 728

#### Metadata

| Field        | Value    |
|--------------|----------|
| Entrypoint   | 0x013E   |
| Data Size    | 38 bytes |
| Instructions | 13       |

```
      00 01 02 03 04 05 06 07  08 09 0A 0B 0C 0D 0E 0F
      -- -- -- -- -- -- -- --  -- -- -- -- -- -- -- --
0130:                                            1E F0                ..
0140: FF FF 7F 6F 70 66 00 80  F8 FF FF 7F F8 FF FF 7F  ...opf..........
0150: 74 6C 6B 30 1D 0D 80 23  1D 0E 80 23 1D 0F 80 23  tlk0...#...#...#
0160: 20 00 21 00                                        .!.            
```

#### Opcodes

```
  0: 0x013E [0x1E] EventEntity looks at LocalPlayer and starts talking
  1: 0x0143 [0x6F] WAIT_FRAME_DELAY: Yield until WaitTime reaches zero
  2: 0x0144 [0x70] WAIT_ENTITY_RENDER_FLAG: Wait while EventEntity->Render.Flags3 bit 2 is set (cancel turn if not)
  3: 0x0145 [0x66] LOAD_EXT_SCHEDULER_MAIN: Load scheduler "tlk0" with entities [EventEntity, EventEntity], work=0*
  4: 0x0154 [0x1D] PRINT_EVENT_MESSAGE(message_id=8447*)
    → "Are you still going on about that imaginary airship? I assure you, every single vessel is strictly monitored by the air travel agency."
  5: 0x0157 [0x23] WAIT_FOR_DIALOG_INTERACTION
  6: 0x0158 [0x1D] PRINT_EVENT_MESSAGE(message_id=8448*)
    → "Even under the orders of the cathedral, no airship can be freely commandeered to fly off to any old place in Vana'diel--especially not the Tavnazian Marquisate!"
  7: 0x015B [0x23] WAIT_FOR_DIALOG_INTERACTION
  8: 0x015C [0x1D] PRINT_EVENT_MESSAGE(message_id=8449*)
    → "If you don't believe me, try asking at any of the other agencies. That is, if you don't mind having people doubt your sanity..."
  9: 0x015F [0x23] WAIT_FOR_DIALOG_INTERACTION
 10: 0x0160 [0x20] SET_CLI_EVENT_UC_FLAG: Unlock player control
 11: 0x0162 [0x21] END_EVENT
 12: 0x0163 [0x00] END_REQSTACK()
```
