# 17727558 - Answald

## Common Data

| Field            | Value                     |
|------------------|---------------------------|
| Zone             | Port San d'Oria (ID: 232) |
| Block Size       | 248 bytes                 |
| Total Events     | 6                         |
| References Count | 15                        |

## List of Events

| Event ID                 | Entrypoint   |   Size |   Instructions |
|--------------------------|--------------|--------|----------------|
| [65535](#event-65535)    | 0x0000       |      1 |              1 |
| [4](#event-4)            | 0x0001       |      1 |              1 |
| [65535.1](#event-655351) | 0x0002       |     53 |             12 |
| [65535.2](#event-655352) | 0x0037       |     13 |              4 |
| [584](#event-584)        | 0x0044       |     50 |             16 |
| [65535.3](#event-655353) | 0x0076       |     29 |              3 |

## DAT References (imed_data)

|   Index | Hex Value   |   Dec Value |
|---------|-------------|-------------|
|       0 | 0x000D      |          13 |
|       1 | 0xFFFF56E4  |  4294924004 |
|       2 | 0xFFFF8130  |  4294934832 |
|       3 | 0xFFFFF061  |  4294963297 |
|       4 | 0x0C06      |        3078 |
|       5 | 0xFFFF578A  |  4294924170 |
|       6 | 0xFFFF8ADF  |  4294937311 |
|       7 | 0xFFFF5BAB  |  4294925227 |
|       8 | 0xFFFFC7EA  |  4294952938 |
|       9 | 0xFFFFE3AF  |  4294960047 |
|      10 | 0x0000      |           0 |
|      11 | 0x1EC7      |        7879 |
|      12 | 0x001E      |          30 |
|      13 | 0x1EC8      |        7880 |
|      14 | 0x1EC9      |        7881 |

## String References

- **7879**: Behold San d'Oria, city of legends! I've always wanted to come here and join a proud order of knights.
- **7880**: They don't let raw recruits into the chateau, but no matter! I'll complete so many missions they'll make me a certified adventurer in no time!
- **7881**: But first, I'll warm up on a few of those worms outside the city gates! You have to walk before you can fly, my friend.

## Events

### Event 65535

#### Metadata

| Field        | Value   |
|--------------|---------|
| Entrypoint   | 0x0000  |
| Data Size    | 1 bytes |
| Instructions | 1       |

```
      00 01 02 03 04 05 06 07  08 09 0A 0B 0C 0D 0E 0F
      -- -- -- -- -- -- -- --  -- -- -- -- -- -- -- --
0000: 00                                                .               
```

#### Opcodes

```
  0: 0x0000 [0x00] END_REQSTACK()
```

### Event 4

#### Metadata

| Field        | Value   |
|--------------|---------|
| Entrypoint   | 0x0001  |
| Data Size    | 1 bytes |
| Instructions | 1       |

```
      00 01 02 03 04 05 06 07  08 09 0A 0B 0C 0D 0E 0F
      -- -- -- -- -- -- -- --  -- -- -- -- -- -- -- --
0000:    00                                              .              
```

#### Opcodes

```
  0: 0x0001 [0x00] END_REQSTACK()
```

### Event 65535.1

#### Metadata

| Field        | Value    |
|--------------|----------|
| Entrypoint   | 0x0002   |
| Data Size    | 53 bytes |
| Instructions | 12       |

```
      00 01 02 03 04 05 06 07  08 09 0A 0B 0C 0D 0E 0F
      -- -- -- -- -- -- -- --  -- -- -- -- -- -- -- --
0000:       92 01 F8 FF FF 7F  94 01 F8 FF FF 7F 79 00    ............y.
0010: F8 FF FF 7F 70 80 0E 01  32 00 80 37 01 80 02 80  ....p...2..7....
0020: 03 80 04 80 1F 00 05 80  06 80 03 80 1F 01 6F 1E  ..............o.
0030: 70 80 0E 01 6F 70 00                              p...op.         
```

#### Opcodes

```
  0: 0x0002 [0x92] EventEntity->Render.Flags3 ^= 0x01
  1: 0x0008 [0x94] EventEntity->Render.Flags3 ^= 0x01
  2: 0x000E [0x79] EventEntity looks at Ulmia (ID: 17727600/0x010E8070) (Basic look)
  3: 0x0018 [0x32] ExtData[1]->MainSpeed = 13* * 0.1
  4: 0x001B [0x37] UPDATE_EVENT_POSITION_AND_DIR: x=-43.292*, z=-32.464*, y=-3.999*, direction=270.5°*
  5: 0x0024 [0x1F] MOVE_ENTITY: EventEntity moves to X=-43.126*, Z=-29.985*, Y=-3.999*
  6: 0x002C [0x1F] MOVE_ENTITY: Update entity position (mode=1)
  7: 0x002E [0x6F] WAIT_FRAME_DELAY: Yield until WaitTime reaches zero
  8: 0x002F [0x1E] EventEntity looks at Ulmia (ID: 17727600/0x010E8070) and starts talking
  9: 0x0034 [0x6F] WAIT_FRAME_DELAY: Yield until WaitTime reaches zero
 10: 0x0035 [0x70] WAIT_ENTITY_RENDER_FLAG: Wait while EventEntity->Render.Flags3 bit 2 is set (cancel turn if not)
 11: 0x0036 [0x00] END_REQSTACK()
```

### Event 65535.2

#### Metadata

| Field        | Value    |
|--------------|----------|
| Entrypoint   | 0x0037   |
| Data Size    | 13 bytes |
| Instructions | 4        |

```
      00 01 02 03 04 05 06 07  08 09 0A 0B 0C 0D 0E 0F
      -- -- -- -- -- -- -- --  -- -- -- -- -- -- -- --
0030:                      1F  00 07 80 08 80 09 80 1F         .........
0040: 01 22 01 00                                       ."..            
```

#### Opcodes

```
  0: 0x0037 [0x1F] MOVE_ENTITY: EventEntity moves to X=-42.069*, Z=-14.358*, Y=-7.249*
  1: 0x003F [0x1F] MOVE_ENTITY: Update entity position (mode=1)
  2: 0x0041 [0x22] ENTITY_HIDE_FLAG(enabled=0x01)
  3: 0x0043 [0x00] END_REQSTACK()
```

### Event 584

#### Metadata

| Field        | Value    |
|--------------|----------|
| Entrypoint   | 0x0044   |
| Data Size    | 50 bytes |
| Instructions | 16       |

```
      00 01 02 03 04 05 06 07  08 09 0A 0B 0C 0D 0E 0F
      -- -- -- -- -- -- -- --  -- -- -- -- -- -- -- --
0040:             1E F0 FF FF  7F 6F 70 66 0A 80 F8 FF      .....opf....
0050: FF 7F F8 FF FF 7F 74 6C  6B 30 1D 0B 80 23 1C 0C  ......tlk0...#..
0060: 80 1D 0D 80 23 1C 0C 80  1D 0E 80 23 5E 69 64 6C  ....#......#^idl
0070: 30 1C 0C 80 21 00                                 0...!.          
```

#### Opcodes

```
  0: 0x0044 [0x1E] EventEntity looks at LocalPlayer and starts talking
  1: 0x0049 [0x6F] WAIT_FRAME_DELAY: Yield until WaitTime reaches zero
  2: 0x004A [0x70] WAIT_ENTITY_RENDER_FLAG: Wait while EventEntity->Render.Flags3 bit 2 is set (cancel turn if not)
  3: 0x004B [0x66] LOAD_EXT_SCHEDULER_MAIN: Load scheduler "tlk0" with entities [EventEntity, EventEntity], work=0*
  4: 0x005A [0x1D] PRINT_EVENT_MESSAGE(message_id=7879*)
    → "Behold San d'Oria, city of legends! I've always wanted to come here and join a proud order of knights."
  5: 0x005D [0x23] WAIT_FOR_DIALOG_INTERACTION
  6: 0x005E [0x1C] WAIT(30* ticks)
  7: 0x0061 [0x1D] PRINT_EVENT_MESSAGE(message_id=7880*)
    → "They don't let raw recruits into the chateau, but no matter! I'll complete so many missions they'll make me a certified adventurer in no time!"
  8: 0x0064 [0x23] WAIT_FOR_DIALOG_INTERACTION
  9: 0x0065 [0x1C] WAIT(30* ticks)
 10: 0x0068 [0x1D] PRINT_EVENT_MESSAGE(message_id=7881*)
    → "But first, I'll warm up on a few of those worms outside the city gates! You have to walk before you can fly, my friend."
 11: 0x006B [0x23] WAIT_FOR_DIALOG_INTERACTION
 12: 0x006C [0x5E] EventEntity goes idle (kills current action) (animation: "idl0")
 13: 0x0071 [0x1C] WAIT(30* ticks)
 14: 0x0074 [0x21] END_EVENT
 15: 0x0075 [0x00] END_REQSTACK()
```

### Event 65535.3

#### Metadata

| Field        | Value    |
|--------------|----------|
| Entrypoint   | 0x0076   |
| Data Size    | 29 bytes |
| Instructions | 3        |

```
      00 01 02 03 04 05 06 07  08 09 0A 0B 0C 0D 0E 0F
      -- -- -- -- -- -- -- --  -- -- -- -- -- -- -- --
0070:                   66 0A  80 F8 FF FF 7F F8 FF FF        f.........
0080: 7F 64 69 73 30 53 F8 FF  FF 7F F8 FF FF 7F 64 69  .dis0S........di
0090: 73 30 00                                          s0.             
```

#### Opcodes

```
  0: 0x0076 [0x66] LOAD_EXT_SCHEDULER_MAIN: Load scheduler "dis0" with entities [EventEntity, EventEntity], work=0*
  1: 0x0085 [0x53] WAIT_SCHEDULER_TASK: Wait for scheduler "dis0" with entities [EventEntity, EventEntity]
  2: 0x0092 [0x00] END_REQSTACK()
```
