# 17727491 - Claidie

## Common Data

| Field            | Value                     |
|------------------|---------------------------|
| Zone             | Port San d'Oria (ID: 232) |
| Block Size       | 200 bytes                 |
| Total Events     | 12                        |
| References Count | 7                         |

## List of Events

| Event ID                   | Entrypoint   |   Size |   Instructions |
|----------------------------|--------------|--------|----------------|
| [65535](#event-65535)      | 0x0000       |      1 |              1 |
| [65535.1](#event-655351)   | 0x0001       |      6 |              2 |
| [500](#event-500)          | 0x0007       |      3 |              2 |
| [65535.2](#event-655352)   | 0x000A       |     25 |              7 |
| [65535.3](#event-655353)   | 0x0023       |      6 |              2 |
| [65535.4](#event-655354)   | 0x0029       |      6 |              2 |
| [65535.5](#event-655355)   | 0x002F       |      6 |              2 |
| [65535.6](#event-655356)   | 0x0035       |      6 |              2 |
| [65535.7](#event-655357)   | 0x003B       |      9 |              3 |
| [65535.8](#event-655358)   | 0x0044       |      9 |              3 |
| [65535.9](#event-655359)   | 0x004D       |      9 |              3 |
| [65535.10](#event-6553510) | 0x0056       |     22 |              6 |

## DAT References (imed_data)

|   Index | Hex Value   |   Dec Value |
|---------|-------------|-------------|
|       0 | 0x000A      |          10 |
|       1 | 0x003C      |          60 |
|       2 | 0xFFFE6B06  |  4294863622 |
|       3 | 0xFFFE138E  |  4294841230 |
|       4 | 0xFFFFE0C0  |  4294959296 |
|       5 | 0xFFFE608D  |  4294860941 |
|       6 | 0xFFFE0627  |  4294837799 |

## Events

### Event 65535

#### Metadata

| Field        | Value   |
|--------------|---------|
| Entrypoint   | 0x0000  |
| Data Size    | 1 bytes |
| Instructions | 1       |

```
      00 01 02 03 04 05 06 07  08 09 0A 0B 0C 0D 0E 0F
      -- -- -- -- -- -- -- --  -- -- -- -- -- -- -- --
0000: 00                                                .               
```

#### Opcodes

```
  0: 0x0000 [0x00] END_REQSTACK()
```

### Event 65535.1

#### Metadata

| Field        | Value   |
|--------------|---------|
| Entrypoint   | 0x0001  |
| Data Size    | 6 bytes |
| Instructions | 2       |

```
      00 01 02 03 04 05 06 07  08 09 0A 0B 0C 0D 0E 0F
      -- -- -- -- -- -- -- --  -- -- -- -- -- -- -- --
0000:    5E 69 64 6C 30 00                               ^idl0.         
```

#### Opcodes

```
  0: 0x0001 [0x5E] EventEntity goes idle (kills current action) (animation: "idl0")
  1: 0x0006 [0x00] END_REQSTACK()
```

### Event 500

#### Metadata

| Field        | Value   |
|--------------|---------|
| Entrypoint   | 0x0007  |
| Data Size    | 3 bytes |
| Instructions | 2       |

```
      00 01 02 03 04 05 06 07  08 09 0A 0B 0C 0D 0E 0F
      -- -- -- -- -- -- -- --  -- -- -- -- -- -- -- --
0000:                      22  01 00                           "..      
```

#### Opcodes

```
  0: 0x0007 [0x22] ENTITY_HIDE_FLAG(enabled=0x01)
  1: 0x0009 [0x00] END_REQSTACK()
```

### Event 65535.2

#### Metadata

| Field        | Value    |
|--------------|----------|
| Entrypoint   | 0x000A   |
| Data Size    | 25 bytes |
| Instructions | 7        |

```
      00 01 02 03 04 05 06 07  08 09 0A 0B 0C 0D 0E 0F
      -- -- -- -- -- -- -- --  -- -- -- -- -- -- -- --
0000:                                2F 00 03 80 0E 01            /.....
0010: 22 00 32 00 80 1C 01 80  1F 00 02 80 03 80 04 80  ".2.............
0020: 1F 01 00                                          ...             
```

#### Opcodes

```
  0: 0x000A [0x2F] Claidie (ID: 17727491/0x010E8003)->Render.Flags0 &= ~0x80000 // Bit 19
  1: 0x0010 [0x22] ENTITY_HIDE_FLAG(enabled=0x00)
  2: 0x0012 [0x32] ExtData[1]->MainSpeed = 10* * 0.1
  3: 0x0015 [0x1C] WAIT(60* ticks)
  4: 0x0018 [0x1F] MOVE_ENTITY: EventEntity moves to X=-103.674*, Z=-126.066*, Y=-8.000*
  5: 0x0020 [0x1F] MOVE_ENTITY: Update entity position (mode=1)
  6: 0x0022 [0x00] END_REQSTACK()
```

### Event 65535.3

#### Metadata

| Field        | Value   |
|--------------|---------|
| Entrypoint   | 0x0023  |
| Data Size    | 6 bytes |
| Instructions | 2       |

```
      00 01 02 03 04 05 06 07  08 09 0A 0B 0C 0D 0E 0F
      -- -- -- -- -- -- -- --  -- -- -- -- -- -- -- --
0020:          1E 04 80 0E 01  00                          ......       
```

#### Opcodes

```
  0: 0x0023 [0x1E] EventEntity looks at Avandale (ID: 17727492/0x010E8004) and starts talking
  1: 0x0028 [0x00] END_REQSTACK()
```

### Event 65535.4

#### Metadata

| Field        | Value   |
|--------------|---------|
| Entrypoint   | 0x0029  |
| Data Size    | 6 bytes |
| Instructions | 2       |

```
      00 01 02 03 04 05 06 07  08 09 0A 0B 0C 0D 0E 0F
      -- -- -- -- -- -- -- --  -- -- -- -- -- -- -- --
0020:                             1E F0 FF FF 7F 00              ...... 
```

#### Opcodes

```
  0: 0x0029 [0x1E] EventEntity looks at LocalPlayer and starts talking
  1: 0x002E [0x00] END_REQSTACK()
```

### Event 65535.5

#### Metadata

| Field        | Value   |
|--------------|---------|
| Entrypoint   | 0x002F  |
| Data Size    | 6 bytes |
| Instructions | 2       |

```
      00 01 02 03 04 05 06 07  08 09 0A 0B 0C 0D 0E 0F
      -- -- -- -- -- -- -- --  -- -- -- -- -- -- -- --
0020:                                               1E                 .
0030: 01 80 0E 01 00                                    .....           
```

#### Opcodes

```
  0: 0x002F [0x1E] EventEntity looks at Trion (ID: 17727489/0x010E8001) and starts talking
  1: 0x0034 [0x00] END_REQSTACK()
```

### Event 65535.6

#### Metadata

| Field        | Value   |
|--------------|---------|
| Entrypoint   | 0x0035  |
| Data Size    | 6 bytes |
| Instructions | 2       |

```
      00 01 02 03 04 05 06 07  08 09 0A 0B 0C 0D 0E 0F
      -- -- -- -- -- -- -- --  -- -- -- -- -- -- -- --
0030:                1E 02 80  0E 01 00                      ......     
```

#### Opcodes

```
  0: 0x0035 [0x1E] EventEntity looks at Pieuje (ID: 17727490/0x010E8002) and starts talking
  1: 0x003A [0x00] END_REQSTACK()
```

### Event 65535.7

#### Metadata

| Field        | Value   |
|--------------|---------|
| Entrypoint   | 0x003B  |
| Data Size    | 9 bytes |
| Instructions | 3       |

```
      00 01 02 03 04 05 06 07  08 09 0A 0B 0C 0D 0E 0F
      -- -- -- -- -- -- -- --  -- -- -- -- -- -- -- --
0030:                                   1C 01 80 1E F0             .....
0040: FF FF 7F 00                                       ....            
```

#### Opcodes

```
  0: 0x003B [0x1C] WAIT(60* ticks)
  1: 0x003E [0x1E] EventEntity looks at LocalPlayer and starts talking
  2: 0x0043 [0x00] END_REQSTACK()
```

### Event 65535.8

#### Metadata

| Field        | Value   |
|--------------|---------|
| Entrypoint   | 0x0044  |
| Data Size    | 9 bytes |
| Instructions | 3       |

```
      00 01 02 03 04 05 06 07  08 09 0A 0B 0C 0D 0E 0F
      -- -- -- -- -- -- -- --  -- -- -- -- -- -- -- --
0040:             1C 01 80 1E  01 80 0E 01 00               .........   
```

#### Opcodes

```
  0: 0x0044 [0x1C] WAIT(60* ticks)
  1: 0x0047 [0x1E] EventEntity looks at Trion (ID: 17727489/0x010E8001) and starts talking
  2: 0x004C [0x00] END_REQSTACK()
```

### Event 65535.9

#### Metadata

| Field        | Value   |
|--------------|---------|
| Entrypoint   | 0x004D  |
| Data Size    | 9 bytes |
| Instructions | 3       |

```
      00 01 02 03 04 05 06 07  08 09 0A 0B 0C 0D 0E 0F
      -- -- -- -- -- -- -- --  -- -- -- -- -- -- -- --
0040:                                         1C 01 80               ...
0050: 1E 02 80 0E 01 00                                 ......          
```

#### Opcodes

```
  0: 0x004D [0x1C] WAIT(60* ticks)
  1: 0x0050 [0x1E] EventEntity looks at Pieuje (ID: 17727490/0x010E8002) and starts talking
  2: 0x0055 [0x00] END_REQSTACK()
```

### Event 65535.10

#### Metadata

| Field        | Value    |
|--------------|----------|
| Entrypoint   | 0x0056   |
| Data Size    | 22 bytes |
| Instructions | 6        |

```
      00 01 02 03 04 05 06 07  08 09 0A 0B 0C 0D 0E 0F
      -- -- -- -- -- -- -- --  -- -- -- -- -- -- -- --
0050:                   32 00  80 1F 00 05 80 06 80 04        2.........
0060: 80 1F 01 2F 01 03 80 0E  01 22 01 00              .../....."..    
```

#### Opcodes

```
  0: 0x0056 [0x32] ExtData[1]->MainSpeed = 10* * 0.1
  1: 0x0059 [0x1F] MOVE_ENTITY: EventEntity moves to X=-106.355*, Z=-129.497*, Y=-8.000*
  2: 0x0061 [0x1F] MOVE_ENTITY: Update entity position (mode=1)
  3: 0x0063 [0x2F] Claidie (ID: 17727491/0x010E8003)->Render.Flags0 |= 0x80000 // Bit 19
  4: 0x0069 [0x22] ENTITY_HIDE_FLAG(enabled=0x01)
  5: 0x006B [0x00] END_REQSTACK()
```
