# 17727515 - Apstaule

## Common Data

| Field            | Value                     |
|------------------|---------------------------|
| Zone             | Port San d'Oria (ID: 232) |
| Block Size       | 212 bytes                 |
| Total Events     | 5                         |
| References Count | 8                         |

## List of Events

| Event ID              | Entrypoint   |   Size |   Instructions |
|-----------------------|--------------|--------|----------------|
| [65535](#event-65535) | 0x0000       |      1 |              1 |
| [500](#event-500)     | 0x0001       |      1 |              1 |
| [542](#event-542)     | 0x0002       |     50 |             16 |
| [540](#event-540)     | 0x0034       |     48 |             16 |
| [541](#event-541)     | 0x0064       |     41 |             13 |

## DAT References (imed_data)

|   Index | Hex Value   |   Dec Value |
|---------|-------------|-------------|
|       0 | 0x0014      |          20 |
|       1 | 0x1DD8      |        7640 |
|       2 | 0x001E      |          30 |
|       3 | 0x1DD9      |        7641 |
|       4 | 0x1DDA      |        7642 |
|       5 | 0x1D82      |        7554 |
|       6 | 0x1D83      |        7555 |
|       7 | 0x1D84      |        7556 |

## String References

- **7554**: Eh? A parcel? What's an adventurer like you doing deliveries for?
- **7555**: I mean, anybody could do what you're doing. How come an adventurer... Ah, never mind. Give my regards to the chief!
- **7556**: Huh? I didn't order this! Here, take it back.
- **7640**: The Shadow Lord turned the beastmen into fierce opponents in the Great War twenty years ago.
- **7641**: Alas, what a terrible sight they were! I still shiver just thinking of them!
- **7642**: If heroes hadn't come forth to stop the Shadow Lord...who knows what would have become of this world!

## Events

### Event 65535

#### Metadata

| Field        | Value   |
|--------------|---------|
| Entrypoint   | 0x0000  |
| Data Size    | 1 bytes |
| Instructions | 1       |

```
      00 01 02 03 04 05 06 07  08 09 0A 0B 0C 0D 0E 0F
      -- -- -- -- -- -- -- --  -- -- -- -- -- -- -- --
0000: 00                                                .               
```

#### Opcodes

```
  0: 0x0000 [0x00] END_REQSTACK()
```

### Event 500

#### Metadata

| Field        | Value   |
|--------------|---------|
| Entrypoint   | 0x0001  |
| Data Size    | 1 bytes |
| Instructions | 1       |

```
      00 01 02 03 04 05 06 07  08 09 0A 0B 0C 0D 0E 0F
      -- -- -- -- -- -- -- --  -- -- -- -- -- -- -- --
0000:    00                                              .              
```

#### Opcodes

```
  0: 0x0001 [0x00] END_REQSTACK()
```

### Event 542

#### Metadata

| Field        | Value    |
|--------------|----------|
| Entrypoint   | 0x0002   |
| Data Size    | 50 bytes |
| Instructions | 16       |

```
      00 01 02 03 04 05 06 07  08 09 0A 0B 0C 0D 0E 0F
      -- -- -- -- -- -- -- --  -- -- -- -- -- -- -- --
0000:       1E F0 FF FF 7F 6F  70 66 00 80 F8 FF FF 7F    .....opf......
0010: F8 FF FF 7F 74 6C 6B 30  1D 01 80 23 1C 02 80 1D  ....tlk0...#....
0020: 03 80 23 1C 02 80 1D 04  80 23 5E 69 64 6C 30 1C  ..#......#^idl0.
0030: 02 80 21 00                                       ..!.            
```

#### Opcodes

```
  0: 0x0002 [0x1E] EventEntity looks at LocalPlayer and starts talking
  1: 0x0007 [0x6F] WAIT_FRAME_DELAY: Yield until WaitTime reaches zero
  2: 0x0008 [0x70] WAIT_ENTITY_RENDER_FLAG: Wait while EventEntity->Render.Flags3 bit 2 is set (cancel turn if not)
  3: 0x0009 [0x66] LOAD_EXT_SCHEDULER_MAIN: Load scheduler "tlk0" with entities [EventEntity, EventEntity], work=20*
  4: 0x0018 [0x1D] PRINT_EVENT_MESSAGE(message_id=7640*)
    → "The Shadow Lord turned the beastmen into fierce opponents in the Great War twenty years ago."
  5: 0x001B [0x23] WAIT_FOR_DIALOG_INTERACTION
  6: 0x001C [0x1C] WAIT(30* ticks)
  7: 0x001F [0x1D] PRINT_EVENT_MESSAGE(message_id=7641*)
    → "Alas, what a terrible sight they were! I still shiver just thinking of them!"
  8: 0x0022 [0x23] WAIT_FOR_DIALOG_INTERACTION
  9: 0x0023 [0x1C] WAIT(30* ticks)
 10: 0x0026 [0x1D] PRINT_EVENT_MESSAGE(message_id=7642*)
    → "If heroes hadn't come forth to stop the Shadow Lord...who knows what would have become of this world!"
 11: 0x0029 [0x23] WAIT_FOR_DIALOG_INTERACTION
 12: 0x002A [0x5E] EventEntity goes idle (kills current action) (animation: "idl0")
 13: 0x002F [0x1C] WAIT(30* ticks)
 14: 0x0032 [0x21] END_EVENT
 15: 0x0033 [0x00] END_REQSTACK()
```

### Event 540

#### Metadata

| Field        | Value    |
|--------------|----------|
| Entrypoint   | 0x0034   |
| Data Size    | 48 bytes |
| Instructions | 16       |

```
      00 01 02 03 04 05 06 07  08 09 0A 0B 0C 0D 0E 0F
      -- -- -- -- -- -- -- --  -- -- -- -- -- -- -- --
0030:             42 20 01 1E  F0 FF FF 7F 6F 70 66 00      B ......opf.
0040: 80 F8 FF FF 7F F8 FF FF  7F 74 6C 6B 30 1D 05 80  .........tlk0...
0050: 23 1C 02 80 1D 06 80 23  5E 69 64 6C 30 1C 02 80  #......#^idl0...
0060: 20 00 21 00                                        .!.            
```

#### Opcodes

```
  0: 0x0034 [0x42] SET_CLI_EVENT_CANCEL_DATA()
  1: 0x0035 [0x20] SET_CLI_EVENT_UC_FLAG: Lock player control
  2: 0x0037 [0x1E] EventEntity looks at LocalPlayer and starts talking
  3: 0x003C [0x6F] WAIT_FRAME_DELAY: Yield until WaitTime reaches zero
  4: 0x003D [0x70] WAIT_ENTITY_RENDER_FLAG: Wait while EventEntity->Render.Flags3 bit 2 is set (cancel turn if not)
  5: 0x003E [0x66] LOAD_EXT_SCHEDULER_MAIN: Load scheduler "tlk0" with entities [EventEntity, EventEntity], work=20*
  6: 0x004D [0x1D] PRINT_EVENT_MESSAGE(message_id=7554*)
    → "Eh? A parcel? What's an adventurer like you doing deliveries for?"
  7: 0x0050 [0x23] WAIT_FOR_DIALOG_INTERACTION
  8: 0x0051 [0x1C] WAIT(30* ticks)
  9: 0x0054 [0x1D] PRINT_EVENT_MESSAGE(message_id=7555*)
    → "I mean, anybody could do what you're doing. How come an adventurer... Ah, never mind. Give my regards to the chief!"
 10: 0x0057 [0x23] WAIT_FOR_DIALOG_INTERACTION
 11: 0x0058 [0x5E] EventEntity goes idle (kills current action) (animation: "idl0")
 12: 0x005D [0x1C] WAIT(30* ticks)
 13: 0x0060 [0x20] SET_CLI_EVENT_UC_FLAG: Unlock player control
 14: 0x0062 [0x21] END_EVENT
 15: 0x0063 [0x00] END_REQSTACK()
```

### Event 541

#### Metadata

| Field        | Value    |
|--------------|----------|
| Entrypoint   | 0x0064   |
| Data Size    | 41 bytes |
| Instructions | 13       |

```
      00 01 02 03 04 05 06 07  08 09 0A 0B 0C 0D 0E 0F
      -- -- -- -- -- -- -- --  -- -- -- -- -- -- -- --
0060:             42 20 01 1E  F0 FF FF 7F 6F 70 66 00      B ......opf.
0070: 80 F8 FF FF 7F F8 FF FF  7F 74 6C 6B 30 1D 07 80  .........tlk0...
0080: 23 5E 69 64 6C 30 1C 02  80 20 00 21 00           #^idl0... .!.   
```

#### Opcodes

```
  0: 0x0064 [0x42] SET_CLI_EVENT_CANCEL_DATA()
  1: 0x0065 [0x20] SET_CLI_EVENT_UC_FLAG: Lock player control
  2: 0x0067 [0x1E] EventEntity looks at LocalPlayer and starts talking
  3: 0x006C [0x6F] WAIT_FRAME_DELAY: Yield until WaitTime reaches zero
  4: 0x006D [0x70] WAIT_ENTITY_RENDER_FLAG: Wait while EventEntity->Render.Flags3 bit 2 is set (cancel turn if not)
  5: 0x006E [0x66] LOAD_EXT_SCHEDULER_MAIN: Load scheduler "tlk0" with entities [EventEntity, EventEntity], work=20*
  6: 0x007D [0x1D] PRINT_EVENT_MESSAGE(message_id=7556*)
    → "Huh? I didn't order this! Here, take it back."
  7: 0x0080 [0x23] WAIT_FOR_DIALOG_INTERACTION
  8: 0x0081 [0x5E] EventEntity goes idle (kills current action) (animation: "idl0")
  9: 0x0086 [0x1C] WAIT(30* ticks)
 10: 0x0089 [0x20] SET_CLI_EVENT_UC_FLAG: Unlock player control
 11: 0x008B [0x21] END_EVENT
 12: 0x008C [0x00] END_REQSTACK()
```
