# 17727494 - Esca

## Common Data

| Field            | Value                     |
|------------------|---------------------------|
| Zone             | Port San d'Oria (ID: 232) |
| Block Size       | 280 bytes                 |
| Total Events     | 7                         |
| References Count | 18                        |

## List of Events

| Event ID                 | Entrypoint   |   Size |   Instructions |
|--------------------------|--------------|--------|----------------|
| [65535](#event-65535)    | 0x0000       |      1 |              1 |
| [65535.1](#event-655351) | 0x0001       |     23 |              5 |
| [502](#event-502)        | 0x0018       |      1 |              1 |
| [65535.2](#event-655352) | 0x0019       |     62 |             12 |
| [65535.3](#event-655353) | 0x0057       |     21 |              5 |
| [65535.4](#event-655354) | 0x006C       |     48 |              8 |
| [65535.5](#event-655355) | 0x009C       |      6 |              2 |

## DAT References (imed_data)

|   Index | Hex Value   |   Dec Value |
|---------|-------------|-------------|
|       0 | 0xFFFFF45B  |  4294964315 |
|       1 | 0xFFFEBC16  |  4294884374 |
|       2 | 0xFFFFF061  |  4294963297 |
|       3 | 0x07EB      |        2027 |
|       4 | 0x0028      |          40 |
|       5 | 0xFFFF4C65  |  4294921317 |
|       6 | 0xFFFEB6E9  |  4294883049 |
|       7 | 0x1F8C      |        8076 |
|       8 | 0xFFFED2F8  |  4294890232 |
|       9 | 0xFFFFF060  |  4294963296 |
|      10 | 0x071A      |        1818 |
|      11 | 0x03E8      |        1000 |
|      12 | 0x0400      |        1024 |
|      13 | 0x0050      |          80 |
|      14 | 0xFFFFD401  |  4294956033 |
|      15 | 0xFFFEC962  |  4294887778 |
|      16 | 0x0084      |         132 |
|      17 | 0x0000      |           0 |

## Events

### Event 65535

#### Metadata

| Field        | Value   |
|--------------|---------|
| Entrypoint   | 0x0000  |
| Data Size    | 1 bytes |
| Instructions | 1       |

```
      00 01 02 03 04 05 06 07  08 09 0A 0B 0C 0D 0E 0F
      -- -- -- -- -- -- -- --  -- -- -- -- -- -- -- --
0000: 00                                                .               
```

#### Opcodes

```
  0: 0x0000 [0x00] END_REQSTACK()
```

### Event 65535.1

#### Metadata

| Field        | Value    |
|--------------|----------|
| Entrypoint   | 0x0001   |
| Data Size    | 23 bytes |
| Instructions | 5        |

```
      00 01 02 03 04 05 06 07  08 09 0A 0B 0C 0D 0E 0F
      -- -- -- -- -- -- -- --  -- -- -- -- -- -- -- --
0000:    37 00 80 01 80 02 80  03 80 32 04 80 1F 00 05   7........2.....
0010: 80 06 80 02 80 1F 01 00                           ........        
```

#### Opcodes

```
  0: 0x0001 [0x37] UPDATE_EVENT_POSITION_AND_DIR: x=-2.981*, z=-82.922*, y=-3.999*, direction=178.1°*
  1: 0x000A [0x32] ExtData[1]->MainSpeed = 40* * 0.1
  2: 0x000D [0x1F] MOVE_ENTITY: EventEntity moves to X=-45.979*, Z=-84.247*, Y=-3.999*
  3: 0x0015 [0x1F] MOVE_ENTITY: Update entity position (mode=1)
  4: 0x0017 [0x00] END_REQSTACK()
```

### Event 502

#### Metadata

| Field        | Value   |
|--------------|---------|
| Entrypoint   | 0x0018  |
| Data Size    | 1 bytes |
| Instructions | 1       |

```
      00 01 02 03 04 05 06 07  08 09 0A 0B 0C 0D 0E 0F
      -- -- -- -- -- -- -- --  -- -- -- -- -- -- -- --
0010:                          00                               .       
```

#### Opcodes

```
  0: 0x0018 [0x00] END_REQSTACK()
```

### Event 65535.2

#### Metadata

| Field        | Value    |
|--------------|----------|
| Entrypoint   | 0x0019   |
| Data Size    | 62 bytes |
| Instructions | 12       |

```
      00 01 02 03 04 05 06 07  08 09 0A 0B 0C 0D 0E 0F
      -- -- -- -- -- -- -- --  -- -- -- -- -- -- -- --
0010:                             2F 00 06 80 0E 01 22           /....."
0020: 00 37 07 80 08 80 09 80  0A 80 32 04 80 3B F0 FF  .7........2..;..
0030: FF 7F 00 00 01 00 02 00  08 00 00 0B 80 07 01 00  ................
0040: 0B 80 1F 00 00 00 01 00  02 00 1F 01 39 0C 80 27  ............9..'
0050: 64 F0 FF FF 7F 0F 00                              d......         
```

#### Opcodes

```
  0: 0x0019 [0x2F] Esca (ID: 17727494/0x010E8006)->Render.Flags0 &= ~0x80000 // Bit 19
  1: 0x001F [0x22] ENTITY_HIDE_FLAG(enabled=0x00)
  2: 0x0021 [0x37] UPDATE_EVENT_POSITION_AND_DIR: x=8.076*, z=-77.064*, y=-4.000*, direction=159.8°*
  3: 0x002A [0x32] ExtData[1]->MainSpeed = 40* * 0.1
  4: 0x002D [0x3B] GET_ENTITY_POSITION(entity=LocalPlayer, x_destination=ExtData[1]->WorkLocal[0], y_destination=ExtData[1]->WorkLocal[1], z_destination=ExtData[1]->WorkLocal[2])
  5: 0x0038 [0x08] ExtData[1]->WorkLocal[0] -= 1000*
  6: 0x003D [0x07] ExtData[1]->WorkLocal[1] += 1000*
  7: 0x0042 [0x1F] MOVE_ENTITY: EventEntity moves to X=ExtData[1]->WorkLocal[0], Z=ExtData[1]->WorkLocal[1], Y=ExtData[1]->WorkLocal[2]
  8: 0x004A [0x1F] MOVE_ENTITY: Update entity position (mode=1)
  9: 0x004C [0x39] SET_ENTITY_DIRECTION(direction=5.6°*)
 10: 0x004F [0x27] REQ_SET(priority=0x64, entity_id=LocalPlayer, tag_num=0x0F)
 11: 0x0056 [0x00] END_REQSTACK()
```

### Event 65535.3

#### Metadata

| Field        | Value    |
|--------------|----------|
| Entrypoint   | 0x0057   |
| Data Size    | 21 bytes |
| Instructions | 5        |

```
      00 01 02 03 04 05 06 07  08 09 0A 0B 0C 0D 0E 0F
      -- -- -- -- -- -- -- --  -- -- -- -- -- -- -- --
0050:                      32  0D 80 27 64 F0 FF FF 7F         2..'d....
0060: 0F 1F 00 0E 80 0F 80 02  80 1F 01 00              ............    
```

#### Opcodes

```
  0: 0x0057 [0x32] ExtData[1]->MainSpeed = 80* * 0.1
  1: 0x005A [0x27] REQ_SET(priority=0x64, entity_id=LocalPlayer, tag_num=0x0F)
  2: 0x0061 [0x1F] MOVE_ENTITY: EventEntity moves to X=-11.263*, Z=-79.518*, Y=-3.999*
  3: 0x0069 [0x1F] MOVE_ENTITY: Update entity position (mode=1)
  4: 0x006B [0x00] END_REQSTACK()
```

### Event 65535.4

#### Metadata

| Field        | Value    |
|--------------|----------|
| Entrypoint   | 0x006C   |
| Data Size    | 48 bytes |
| Instructions | 8        |

```
      00 01 02 03 04 05 06 07  08 09 0A 0B 0C 0D 0E 0F
      -- -- -- -- -- -- -- --  -- -- -- -- -- -- -- --
0060:                                      46 01 45 10              F.E.
0070: 80 F0 FF FF 7F F0 FF FF  7F 73 30 30 30 11 80 46  .........s000..F
0080: 00 27 65 08 80 0E 01 08  2A 65 08 80 0E 01 27 64  .'e.....*e....'d
0090: 07 80 0E 01 04 2A 64 07  80 0E 01 00              .....*d.....    
```

#### Opcodes

```
  0: 0x006C [0x46] CAMERA_CONTROL: Disable user control
  1: 0x006E [0x45] LOAD_SCHEDULED_TASK: Load scheduler "s000" with entities [LocalPlayer, LocalPlayer], work=[132*, 0*]
  2: 0x007F [0x46] CAMERA_CONTROL: Restore default settings
  3: 0x0081 [0x27] REQ_SET(priority=0x65, entity_id=Altiret (ID: 17727496/0x010E8008), tag_num=0x08)
  4: 0x0088 [0x2A] GET_REQ_LEVEL(level=101, entity_id=Altiret (ID: 17727496/0x010E8008))
  5: 0x008E [0x27] REQ_SET(priority=0x64, entity_id=Miene (ID: 17727495/0x010E8007), tag_num=0x04)
  6: 0x0095 [0x2A] GET_REQ_LEVEL(level=100, entity_id=Miene (ID: 17727495/0x010E8007))
  7: 0x009B [0x00] END_REQSTACK()
```

### Event 65535.5

#### Metadata

| Field        | Value   |
|--------------|---------|
| Entrypoint   | 0x009C  |
| Data Size    | 6 bytes |
| Instructions | 2       |

```
      00 01 02 03 04 05 06 07  08 09 0A 0B 0C 0D 0E 0F
      -- -- -- -- -- -- -- --  -- -- -- -- -- -- -- --
0090:                                      5E 69 64 6C              ^idl
00A0: 30 00                                             0.              
```

#### Opcodes

```
  0: 0x009C [0x5E] EventEntity goes idle (kills current action) (animation: "idl0")
  1: 0x00A1 [0x00] END_REQSTACK()
```
