# 17727495 - Miene

## Common Data

| Field            | Value                     |
|------------------|---------------------------|
| Zone             | Port San d'Oria (ID: 232) |
| Block Size       | 1180 bytes                |
| Total Events     | 15                        |
| References Count | 35                        |

## List of Events

| Event ID                 | Entrypoint   |   Size |   Instructions |
|--------------------------|--------------|--------|----------------|
| [65535](#event-65535)    | 0x0000       |      1 |              1 |
| [4](#event-4)            | 0x0001       |      1 |              1 |
| [65535.1](#event-655351) | 0x0002       |     32 |              5 |
| [65535.2](#event-655352) | 0x0022       |     14 |              4 |
| [65535.3](#event-655353) | 0x0030       |      6 |              2 |
| [65535.4](#event-655354) | 0x0036       |      9 |              3 |
| [500](#event-500)        | 0x003F       |      1 |              1 |
| [65535.5](#event-655355) | 0x0040       |      1 |              1 |
| [65535.6](#event-655356) | 0x0041       |     23 |              5 |
| [502](#event-502)        | 0x0058       |    645 |             90 |
| [554](#event-554)        | 0x02DD       |     36 |             10 |
| [549](#event-549)        | 0x0301       |     78 |             18 |
| [553](#event-553)        | 0x034F       |     36 |             10 |
| [552](#event-552)        | 0x0373       |     36 |             10 |
| [611](#event-611)        | 0x0397       |     44 |             10 |

## DAT References (imed_data)

|   Index | Hex Value   |   Dec Value |
|---------|-------------|-------------|
|       0 | 0xFFFF6702  |  4294928130 |
|       1 | 0xFFFF8594  |  4294935956 |
|       2 | 0xFFFFF060  |  4294963296 |
|       3 | 0x0FC9      |        4041 |
|       4 | 0x0028      |          40 |
|       5 | 0xFFFF566D  |  4294923885 |
|       6 | 0xFFFEF3C1  |  4294898625 |
|       7 | 0x1D2E      |        7470 |
|       8 | 0x4891      |       18577 |
|       9 | 0xFFFEE80D  |  4294895629 |
|      10 | 0xFFFFF061  |  4294963297 |
|      11 | 0x06DF      |        1759 |
|      12 | 0xFFFFC45F  |  4294952031 |
|      13 | 0xFFFE89B3  |  4294871475 |
|      14 | 0x00C8      |         200 |
|      15 | 0x0000      |           0 |
|      16 | 0x003C      |          60 |
|      17 | 0x0084      |         132 |
|      18 | 0x0003      |           3 |
|      19 | 0x0002      |           2 |
|      20 | 0x0050      |          80 |
|      21 | 0x1D2A      |        7466 |
|      22 | 0x001E      |          30 |
|      23 | 0x1D2B      |        7467 |
|      24 | 0x1D2C      |        7468 |
|      25 | 0x074D      |        1869 |
|      26 | 0x1D30      |        7472 |
|      27 | 0x002D      |          45 |
|      28 | 0x1D32      |        7474 |
|      29 | 0x1D38      |        7480 |
|      30 | 0x1D39      |        7481 |
|      31 | 0x1D3A      |        7482 |
|      32 | 0x1D3C      |        7484 |
|      33 | 0x1D41      |        7489 |
|      34 | 0x1D3B      |        7483 |

## String References

- **7466**: You are an adventurer, are you not? Tell me, what's your mission rank?
- **7467**: Well? Hmm... Even the longest journey begins with a single step, they say!
- **7470**: Uh-oh!
- **7474**: Say, that man needs help! Why don't you help him? You are an adventurer, right?
- **7480**: Say, is this yours? It looks like a button... Maybe it fell off when that lady ran into you.
- **7481**: It's not yours, huh? How odd... I'm sure it wasn't here a moment ago!
- **7482**: Well, I'll give it to you anyway. Perhaps it will be of some use.
- **7483**: Say, what's this doing here? Isn't this the button I gave you? You must have dropped it, silly!
- **7484**: You're working hard, right? I think adventurers should battle in the field, not boast in the tavern!
- **7489**: Oh, you can't carry it? It's just a button! Why don't you get rid of some of those other things you're carrying first.

## Events

### Event 65535

#### Metadata

| Field        | Value   |
|--------------|---------|
| Entrypoint   | 0x0000  |
| Data Size    | 1 bytes |
| Instructions | 1       |

```
      00 01 02 03 04 05 06 07  08 09 0A 0B 0C 0D 0E 0F
      -- -- -- -- -- -- -- --  -- -- -- -- -- -- -- --
0000: 00                                                .               
```

#### Opcodes

```
  0: 0x0000 [0x00] END_REQSTACK()
```

### Event 4

#### Metadata

| Field        | Value   |
|--------------|---------|
| Entrypoint   | 0x0001  |
| Data Size    | 1 bytes |
| Instructions | 1       |

```
      00 01 02 03 04 05 06 07  08 09 0A 0B 0C 0D 0E 0F
      -- -- -- -- -- -- -- --  -- -- -- -- -- -- -- --
0000:    00                                              .              
```

#### Opcodes

```
  0: 0x0001 [0x00] END_REQSTACK()
```

### Event 65535.1

#### Metadata

| Field        | Value    |
|--------------|----------|
| Entrypoint   | 0x0002   |
| Data Size    | 32 bytes |
| Instructions | 5        |

```
      00 01 02 03 04 05 06 07  08 09 0A 0B 0C 0D 0E 0F
      -- -- -- -- -- -- -- --  -- -- -- -- -- -- -- --
0000:       92 01 F8 FF FF 7F  94 01 F8 FF FF 7F 79 00    ............y.
0010: F8 FF FF 7F 70 80 0E 01  37 00 80 01 80 02 80 03  ....p...7.......
0020: 80 00                                             ..              
```

#### Opcodes

```
  0: 0x0002 [0x92] EventEntity->Render.Flags3 ^= 0x01
  1: 0x0008 [0x94] EventEntity->Render.Flags3 ^= 0x01
  2: 0x000E [0x79] EventEntity looks at Ulmia (ID: 17727600/0x010E8070) (Basic look)
  3: 0x0018 [0x37] UPDATE_EVENT_POSITION_AND_DIR: x=-39.166*, z=-31.340*, y=-4.000*, direction=355.2°*
  4: 0x0021 [0x00] END_REQSTACK()
```

### Event 65535.2

#### Metadata

| Field        | Value    |
|--------------|----------|
| Entrypoint   | 0x0022   |
| Data Size    | 14 bytes |
| Instructions | 4        |

```
      00 01 02 03 04 05 06 07  08 09 0A 0B 0C 0D 0E 0F
      -- -- -- -- -- -- -- --  -- -- -- -- -- -- -- --
0020:       32 04 80 1F 00 05  80 06 80 02 80 1F 01 00    2.............
```

#### Opcodes

```
  0: 0x0022 [0x32] ExtData[1]->MainSpeed = 40* * 0.1
  1: 0x0025 [0x1F] MOVE_ENTITY: EventEntity moves to X=-43.411*, Z=-68.671*, Y=-4.000*
  2: 0x002D [0x1F] MOVE_ENTITY: Update entity position (mode=1)
  3: 0x002F [0x00] END_REQSTACK()
```

### Event 65535.3

#### Metadata

| Field        | Value   |
|--------------|---------|
| Entrypoint   | 0x0030  |
| Data Size    | 6 bytes |
| Instructions | 2       |

```
      00 01 02 03 04 05 06 07  08 09 0A 0B 0C 0D 0E 0F
      -- -- -- -- -- -- -- --  -- -- -- -- -- -- -- --
0030: 1E F0 FF FF 7F 00                                 ......          
```

#### Opcodes

```
  0: 0x0030 [0x1E] EventEntity looks at LocalPlayer and starts talking
  1: 0x0035 [0x00] END_REQSTACK()
```

### Event 65535.4

#### Metadata

| Field        | Value   |
|--------------|---------|
| Entrypoint   | 0x0036  |
| Data Size    | 9 bytes |
| Instructions | 3       |

```
      00 01 02 03 04 05 06 07  08 09 0A 0B 0C 0D 0E 0F
      -- -- -- -- -- -- -- --  -- -- -- -- -- -- -- --
0030:                   1E 08  80 0E 01 1D 07 80 00           ......... 
```

#### Opcodes

```
  0: 0x0036 [0x1E] EventEntity looks at Altiret (ID: 17727496/0x010E8008) and starts talking
  1: 0x003B [0x1D] PRINT_EVENT_MESSAGE(message_id=7470*)
    → "Uh-oh!"
  2: 0x003E [0x00] END_REQSTACK()
```

### Event 500

#### Metadata

| Field        | Value   |
|--------------|---------|
| Entrypoint   | 0x003F  |
| Data Size    | 1 bytes |
| Instructions | 1       |

```
      00 01 02 03 04 05 06 07  08 09 0A 0B 0C 0D 0E 0F
      -- -- -- -- -- -- -- --  -- -- -- -- -- -- -- --
0030:                                               00                 .
```

#### Opcodes

```
  0: 0x003F [0x00] END_REQSTACK()
```

### Event 65535.5

#### Metadata

| Field        | Value   |
|--------------|---------|
| Entrypoint   | 0x0040  |
| Data Size    | 1 bytes |
| Instructions | 1       |

```
      00 01 02 03 04 05 06 07  08 09 0A 0B 0C 0D 0E 0F
      -- -- -- -- -- -- -- --  -- -- -- -- -- -- -- --
0040: 00                                                .               
```

#### Opcodes

```
  0: 0x0040 [0x00] END_REQSTACK()
```

### Event 65535.6

#### Metadata

| Field        | Value    |
|--------------|----------|
| Entrypoint   | 0x0041   |
| Data Size    | 23 bytes |
| Instructions | 5        |

```
      00 01 02 03 04 05 06 07  08 09 0A 0B 0C 0D 0E 0F
      -- -- -- -- -- -- -- --  -- -- -- -- -- -- -- --
0040:    37 08 80 09 80 0A 80  0B 80 32 04 80 1F 00 0C   7........2.....
0050: 80 0D 80 0A 80 1F 01 00                           ........        
```

#### Opcodes

```
  0: 0x0041 [0x37] UPDATE_EVENT_POSITION_AND_DIR: x=18.577*, z=-71.667*, y=-3.999*, direction=154.6°*
  1: 0x004A [0x32] ExtData[1]->MainSpeed = 40* * 0.1
  2: 0x004D [0x1F] MOVE_ENTITY: EventEntity moves to X=-15.265*, Z=-95.821*, Y=-3.999*
  3: 0x0055 [0x1F] MOVE_ENTITY: Update entity position (mode=1)
  4: 0x0057 [0x00] END_REQSTACK()
```

### Event 502

#### Metadata

| Field        | Value     |
|--------------|-----------|
| Entrypoint   | 0x0058    |
| Data Size    | 645 bytes |
| Instructions | 90        |

```
      00 01 02 03 04 05 06 07  08 09 0A 0B 0C 0D 0E 0F
      -- -- -- -- -- -- -- --  -- -- -- -- -- -- -- --
0050:                          03 00 00 02 10 46 01 42          .....F.B
0060: 45 0E 80 F8 FF FF 7F F8  FF FF 7F 66 64 6F 31 0F  E..........fdo1.
0070: 80 1C 10 80 27 69 F0 FF  FF 7F 0D 2A 69 F0 FF FF  ....'i.....*i...
0080: 7F 1E F0 FF FF 7F 4A 08  80 0E 01 F0 FF FF 7F 45  ......J........E
0090: 11 80 F0 FF FF 7F F0 FF  FF 7F 73 30 34 38 0F 80  ..........s048..
00A0: 38 12 80 45 0E 80 F8 FF  FF 7F F8 FF FF 7F 66 64  8..E..........fd
00B0: 69 31 0F 80 55 11 80 F0  FF FF 7F F0 FF FF 7F 73  i1..U..........s
00C0: 30 34 38 02 00 00 13 80  05 18 01 5B 14 80 07 80  048........[....
00D0: 0E 01 07 80 0E 01 74 6C  6B 30 1D 15 80 23 5E 69  ......tlk0...#^i
00E0: 64 6C 30 1C 16 80 5B 14  80 07 80 0E 01 07 80 0E  dl0...[.........
00F0: 01 74 68 6B 31 1D 17 80  23 5B 14 80 07 80 0E 01  .thk1...#[......
0100: 07 80 0E 01 74 68 6B 32  53 07 80 0E 01 07 80 0E  ....thk2S.......
0110: 01 74 68 6B 32 1C 16 80  27 64 06 80 0E 01 03 45  .thk2...'d.....E
0120: 11 80 F0 FF FF 7F F0 FF  FF 7F 73 30 36 37 0F 80  ..........s067..
0130: 2A 64 06 80 0E 01 79 00  06 80 0E 01 F0 FF FF 7F  *d....y.........
0140: 6F 76 06 80 0E 01 66 16  80 06 80 0E 01 06 80 0E  ov....f.........
0150: 01 74 6C 6B 30 2B 06 80  0E 01 18 80 23 27 63 06  .tlk0+......#'c.
0160: 80 0E 01 06 2A 63 06 80  0E 01 1C 10 80 45 11 80  ....*c.......E..
0170: F0 FF FF 7F F0 FF FF 7F  73 30 37 36 0F 80 4A 06  ........s076..J.
0180: 80 0E 01 08 80 0E 01 4A  F0 FF FF 7F 08 80 0E 01  .......J........
0190: 27 64 08 80 0E 01 07 2A  64 08 80 0E 01 1C 16 80  'd.....*d.......
01A0: 4A 06 80 0E 01 F0 FF FF  7F 27 65 F0 FF FF 7F 12  J........'e.....
01B0: 1E 08 80 0E 01 1D 07 80  23 1C 16 80 2A 65 F0 FF  ........#...*e..
01C0: FF 7F 7B 06 80 0E 01 45  11 80 F0 FF FF 7F F0 FF  ..{....E........
01D0: FF 7F 73 30 35 30 0F 80  27 66 08 80 0E 01 08 2A  ..s050..'f.....*
01E0: 66 08 80 0E 01 1C 16 80  45 11 80 F0 FF FF 7F F0  f.......E.......
01F0: FF FF 7F 73 30 36 38 0F  80 4A F0 FF FF 7F 06 80  ...s068..J......
0200: 0E 01 4B 06 80 0E 01 19  80 6F 76 06 80 0E 01 66  ..K......ov....f
0210: 16 80 06 80 0E 01 06 80  0E 01 74 6C 6B 30 2B 06  ..........tlk0+.
0220: 80 0E 01 1A 80 23 27 63  06 80 0E 01 06 2A 63 06  .....#'c.....*c.
0230: 80 0E 01 52 11 80 F0 FF  FF 7F F0 FF FF 7F 73 30  ...R..........s0
0240: 36 38 45 11 80 F0 FF FF  7F F0 FF FF 7F 73 30 36  68E..........s06
0250: 39 0F 80 1E 06 80 0E 01  27 64 06 80 0E 01 04 2A  9.......'d.....*
0260: 64 06 80 0E 01 52 11 80  F0 FF FF 7F F0 FF FF 7F  d....R..........
0270: 73 30 36 39 45 11 80 F0  FF FF 7F F0 FF FF 7F 73  s069E..........s
0280: 30 36 36 0F 80 1E 08 80  0E 01 27 65 08 80 0E 01  066.......'e....
0290: 03 2A 65 08 80 0E 01 1C  16 80 45 11 80 F0 FF FF  .*e.......E.....
02A0: 7F F0 FF FF 7F 73 30 37  30 0F 80 1E F0 FF FF 7F  .....s070.......
02B0: 1C 1B 80 4A F0 FF FF 7F  07 80 0E 01 6F 70 5B 14  ...J........op[.
02C0: 80 07 80 0E 01 07 80 0E  01 74 6C 6B 30 1D 1C 80  .........tlk0...
02D0: 23 5E 69 64 6C 30 1C 16  80 46 00 21 00           #^idl0...F.!.   
```

#### Opcodes

```
  0: 0x0058 [0x03] ExtData[1]->WorkLocal[0] = Work_Zone[2]
  1: 0x005D [0x46] CAMERA_CONTROL: Disable user control
  2: 0x005F [0x42] SET_CLI_EVENT_CANCEL_DATA()
  3: 0x0060 [0x45] LOAD_SCHEDULED_TASK: Load scheduler "fdo1" with entities [EventEntity, EventEntity], work=[200*, 0*]
  4: 0x0071 [0x1C] WAIT(60* ticks)
  5: 0x0074 [0x27] REQ_SET(priority=0x69, entity_id=LocalPlayer, tag_num=0x0D)
  6: 0x007B [0x2A] GET_REQ_LEVEL(level=105, entity_id=LocalPlayer)
  7: 0x0081 [0x1E] EventEntity looks at LocalPlayer and starts talking
  8: 0x0086 [0x4A] Altiret (ID: 17727496/0x010E8008) looks at LocalPlayer
  9: 0x008F [0x45] LOAD_SCHEDULED_TASK: Load scheduler "s048" with entities [LocalPlayer, LocalPlayer], work=[132*, 0*]
 10: 0x00A0 [0x38] SET_CLIENT_EVENT_MODE(mode=3*)
 11: 0x00A3 [0x45] LOAD_SCHEDULED_TASK: Load scheduler "fdi1" with entities [EventEntity, EventEntity], work=[200*, 0*]
 12: 0x00B4 [0x55] WAIT_LOAD_SCHEDULER: Wait for scheduler "s048" with entities [LocalPlayer, LocalPlayer], work=132*
 13: 0x00C3 [0x02] IF !(ExtData[1]->WorkLocal[0] > 2*) GOTO 0x0118
 14: 0x00CB [0x5B] LOAD_EXT_SCHEDULER: Load scheduler "tlk0" with entities [Miene (ID: 17727495/0x010E8007), Miene (ID: 17727495/0x010E8007)], work=80*
 15: 0x00DA [0x1D] PRINT_EVENT_MESSAGE(message_id=7466*)
    → "You are an adventurer, are you not? Tell me, what's your mission rank?"
 16: 0x00DD [0x23] WAIT_FOR_DIALOG_INTERACTION
 17: 0x00DE [0x5E] EventEntity goes idle (kills current action) (animation: "idl0")
 18: 0x00E3 [0x1C] WAIT(30* ticks)
 19: 0x00E6 [0x5B] LOAD_EXT_SCHEDULER: Load scheduler "thk1" with entities [Miene (ID: 17727495/0x010E8007), Miene (ID: 17727495/0x010E8007)], work=80*
 20: 0x00F5 [0x1D] PRINT_EVENT_MESSAGE(message_id=7467*)
    → "Well? Hmm... Even the longest journey begins with a single step, they say!"
 21: 0x00F8 [0x23] WAIT_FOR_DIALOG_INTERACTION
 22: 0x00F9 [0x5B] LOAD_EXT_SCHEDULER: Load scheduler "thk2" with entities [Miene (ID: 17727495/0x010E8007), Miene (ID: 17727495/0x010E8007)], work=80*
 23: 0x0108 [0x53] WAIT_SCHEDULER_TASK: Wait for scheduler "thk2" with entities [Miene (ID: 17727495/0x010E8007), Miene (ID: 17727495/0x010E8007)]
 24: 0x0115 [0x1C] WAIT(30* ticks)
 25: 0x0118 [0x27] REQ_SET(priority=0x64, entity_id=Esca (ID: 17727494/0x010E8006), tag_num=0x03)
 26: 0x011F [0x45] LOAD_SCHEDULED_TASK: Load scheduler "s067" with entities [LocalPlayer, LocalPlayer], work=[132*, 0*]
 27: 0x0130 [0x2A] GET_REQ_LEVEL(level=100, entity_id=Esca (ID: 17727494/0x010E8006))
 28: 0x0136 [0x79] Esca (ID: 17727494/0x010E8006) looks at LocalPlayer (Basic look)
 29: 0x0140 [0x6F] WAIT_FRAME_DELAY: Yield until WaitTime reaches zero
 30: 0x0141 [0x76] CHECK_ENTITY_RENDER_FLAGS: Wait until Esca (ID: 17727494/0x010E8006) Render.Flags0 and Render.Flags3 conditions are met
 31: 0x0146 [0x66] LOAD_EXT_SCHEDULER_MAIN: Load scheduler "tlk0" with entities [Esca (ID: 17727494/0x010E8006), Esca (ID: 17727494/0x010E8006)], work=30*
 32: 0x0155 [0x2B] Esca (ID: 17727494/0x010E8006) [7468*]:
    → "Hey! Out of my way!"
 33: 0x015C [0x23] WAIT_FOR_DIALOG_INTERACTION
 34: 0x015D [0x27] REQ_SET(priority=0x63, entity_id=Esca (ID: 17727494/0x010E8006), tag_num=0x06)
 35: 0x0164 [0x2A] GET_REQ_LEVEL(level=99, entity_id=Esca (ID: 17727494/0x010E8006))
 36: 0x016A [0x1C] WAIT(60* ticks)
 37: 0x016D [0x45] LOAD_SCHEDULED_TASK: Load scheduler "s076" with entities [LocalPlayer, LocalPlayer], work=[132*, 0*]
 38: 0x017E [0x4A] Esca (ID: 17727494/0x010E8006) looks at Altiret (ID: 17727496/0x010E8008)
 39: 0x0187 [0x4A] LocalPlayer looks at Altiret (ID: 17727496/0x010E8008)
 40: 0x0190 [0x27] REQ_SET(priority=0x64, entity_id=Altiret (ID: 17727496/0x010E8008), tag_num=0x07)
 41: 0x0197 [0x2A] GET_REQ_LEVEL(level=100, entity_id=Altiret (ID: 17727496/0x010E8008))
 42: 0x019D [0x1C] WAIT(30* ticks)
 43: 0x01A0 [0x4A] Esca (ID: 17727494/0x010E8006) looks at LocalPlayer
 44: 0x01A9 [0x27] REQ_SET(priority=0x65, entity_id=LocalPlayer, tag_num=0x12)
 45: 0x01B0 [0x1E] EventEntity looks at Altiret (ID: 17727496/0x010E8008) and starts talking
 46: 0x01B5 [0x1D] PRINT_EVENT_MESSAGE(message_id=7470*)
    → "Uh-oh!"
 47: 0x01B8 [0x23] WAIT_FOR_DIALOG_INTERACTION
 48: 0x01B9 [0x1C] WAIT(30* ticks)
 49: 0x01BC [0x2A] GET_REQ_LEVEL(level=101, entity_id=LocalPlayer)
 50: 0x01C2 [0x7B] Esca (ID: 17727494/0x010E8006) stops talking
 51: 0x01C7 [0x45] LOAD_SCHEDULED_TASK: Load scheduler "s050" with entities [LocalPlayer, LocalPlayer], work=[132*, 0*]
 52: 0x01D8 [0x27] REQ_SET(priority=0x66, entity_id=Altiret (ID: 17727496/0x010E8008), tag_num=0x08)
 53: 0x01DF [0x2A] GET_REQ_LEVEL(level=102, entity_id=Altiret (ID: 17727496/0x010E8008))
 54: 0x01E5 [0x1C] WAIT(30* ticks)
 55: 0x01E8 [0x45] LOAD_SCHEDULED_TASK: Load scheduler "s068" with entities [LocalPlayer, LocalPlayer], work=[132*, 0*]
 56: 0x01F9 [0x4A] LocalPlayer looks at Esca (ID: 17727494/0x010E8006)
 57: 0x0202 [0x4B] UPDATE_ENTITY_YAW(entity=Esca (ID: 17727494/0x010E8006), yaw=10.3°*)
 58: 0x0209 [0x6F] WAIT_FRAME_DELAY: Yield until WaitTime reaches zero
 59: 0x020A [0x76] CHECK_ENTITY_RENDER_FLAGS: Wait until Esca (ID: 17727494/0x010E8006) Render.Flags0 and Render.Flags3 conditions are met
 60: 0x020F [0x66] LOAD_EXT_SCHEDULER_MAIN: Load scheduler "tlk0" with entities [Esca (ID: 17727494/0x010E8006), Esca (ID: 17727494/0x010E8006)], work=30*
 61: 0x021E [0x2B] Esca (ID: 17727494/0x010E8006) [7472*]:
    → "Nobody can catch Esca the Swift! Haha!"
 62: 0x0225 [0x23] WAIT_FOR_DIALOG_INTERACTION
 63: 0x0226 [0x27] REQ_SET(priority=0x63, entity_id=Esca (ID: 17727494/0x010E8006), tag_num=0x06)
 64: 0x022D [0x2A] GET_REQ_LEVEL(level=99, entity_id=Esca (ID: 17727494/0x010E8006))
 65: 0x0233 [0x52] END_LOAD_SCHEDULER: End scheduler "s068" with entities [LocalPlayer, LocalPlayer], work=132*
 66: 0x0242 [0x45] LOAD_SCHEDULED_TASK: Load scheduler "s069" with entities [LocalPlayer, LocalPlayer], work=[132*, 0*]
 67: 0x0253 [0x1E] EventEntity looks at Esca (ID: 17727494/0x010E8006) and starts talking
 68: 0x0258 [0x27] REQ_SET(priority=0x64, entity_id=Esca (ID: 17727494/0x010E8006), tag_num=0x04)
 69: 0x025F [0x2A] GET_REQ_LEVEL(level=100, entity_id=Esca (ID: 17727494/0x010E8006))
 70: 0x0265 [0x52] END_LOAD_SCHEDULER: End scheduler "s069" with entities [LocalPlayer, LocalPlayer], work=132*
 71: 0x0274 [0x45] LOAD_SCHEDULED_TASK: Load scheduler "s066" with entities [LocalPlayer, LocalPlayer], work=[132*, 0*]
 72: 0x0285 [0x1E] EventEntity looks at Altiret (ID: 17727496/0x010E8008) and starts talking
 73: 0x028A [0x27] REQ_SET(priority=0x65, entity_id=Altiret (ID: 17727496/0x010E8008), tag_num=0x03)
 74: 0x0291 [0x2A] GET_REQ_LEVEL(level=101, entity_id=Altiret (ID: 17727496/0x010E8008))
 75: 0x0297 [0x1C] WAIT(30* ticks)
 76: 0x029A [0x45] LOAD_SCHEDULED_TASK: Load scheduler "s070" with entities [LocalPlayer, LocalPlayer], work=[132*, 0*]
 77: 0x02AB [0x1E] EventEntity looks at LocalPlayer and starts talking
 78: 0x02B0 [0x1C] WAIT(45* ticks)
 79: 0x02B3 [0x4A] LocalPlayer looks at Miene (ID: 17727495/0x010E8007)
 80: 0x02BC [0x6F] WAIT_FRAME_DELAY: Yield until WaitTime reaches zero
 81: 0x02BD [0x70] WAIT_ENTITY_RENDER_FLAG: Wait while EventEntity->Render.Flags3 bit 2 is set (cancel turn if not)
 82: 0x02BE [0x5B] LOAD_EXT_SCHEDULER: Load scheduler "tlk0" with entities [Miene (ID: 17727495/0x010E8007), Miene (ID: 17727495/0x010E8007)], work=80*
 83: 0x02CD [0x1D] PRINT_EVENT_MESSAGE(message_id=7474*)
    → "Say, that man needs help! Why don't you help him? You are an adventurer, right?"
 84: 0x02D0 [0x23] WAIT_FOR_DIALOG_INTERACTION
 85: 0x02D1 [0x5E] EventEntity goes idle (kills current action) (animation: "idl0")
 86: 0x02D6 [0x1C] WAIT(30* ticks)
 87: 0x02D9 [0x46] CAMERA_CONTROL: Restore default settings
 88: 0x02DB [0x21] END_EVENT
 89: 0x02DC [0x00] END_REQSTACK()
```

### Event 554

#### Metadata

| Field        | Value    |
|--------------|----------|
| Entrypoint   | 0x02DD   |
| Data Size    | 36 bytes |
| Instructions | 10       |

```
      00 01 02 03 04 05 06 07  08 09 0A 0B 0C 0D 0E 0F
      -- -- -- -- -- -- -- --  -- -- -- -- -- -- -- --
02D0:                                         1E F0 FF               ...
02E0: FF 7F 6F 70 5B 14 80 07  80 0E 01 07 80 0E 01 74  ..op[..........t
02F0: 6C 6B 30 1D 1C 80 23 5E  69 64 6C 30 1C 16 80 21  lk0...#^idl0...!
0300: 00                                                .               
```

#### Opcodes

```
  0: 0x02DD [0x1E] EventEntity looks at LocalPlayer and starts talking
  1: 0x02E2 [0x6F] WAIT_FRAME_DELAY: Yield until WaitTime reaches zero
  2: 0x02E3 [0x70] WAIT_ENTITY_RENDER_FLAG: Wait while EventEntity->Render.Flags3 bit 2 is set (cancel turn if not)
  3: 0x02E4 [0x5B] LOAD_EXT_SCHEDULER: Load scheduler "tlk0" with entities [Miene (ID: 17727495/0x010E8007), Miene (ID: 17727495/0x010E8007)], work=80*
  4: 0x02F3 [0x1D] PRINT_EVENT_MESSAGE(message_id=7474*)
    → "Say, that man needs help! Why don't you help him? You are an adventurer, right?"
  5: 0x02F6 [0x23] WAIT_FOR_DIALOG_INTERACTION
  6: 0x02F7 [0x5E] EventEntity goes idle (kills current action) (animation: "idl0")
  7: 0x02FC [0x1C] WAIT(30* ticks)
  8: 0x02FF [0x21] END_EVENT
  9: 0x0300 [0x00] END_REQSTACK()
```

### Event 549

#### Metadata

| Field        | Value    |
|--------------|----------|
| Entrypoint   | 0x0301   |
| Data Size    | 78 bytes |
| Instructions | 18       |

```
      00 01 02 03 04 05 06 07  08 09 0A 0B 0C 0D 0E 0F
      -- -- -- -- -- -- -- --  -- -- -- -- -- -- -- --
0300:    1E F0 FF FF 7F 6F 70  5B 14 80 07 80 0E 01 07   .....op[.......
0310: 80 0E 01 74 6C 6B 30 1D  1D 80 23 1C 16 80 1D 1E  ...tlk0...#.....
0320: 80 23 5E 69 64 6C 30 1C  16 80 5B 14 80 07 80 0E  .#^idl0...[.....
0330: 01 07 80 0E 01 70 61 73  30 1D 1F 80 23 53 07 80  .....pas0...#S..
0340: 0E 01 07 80 0E 01 70 61  73 30 1C 16 80 21 00     ......pas0...!. 
```

#### Opcodes

```
  0: 0x0301 [0x1E] EventEntity looks at LocalPlayer and starts talking
  1: 0x0306 [0x6F] WAIT_FRAME_DELAY: Yield until WaitTime reaches zero
  2: 0x0307 [0x70] WAIT_ENTITY_RENDER_FLAG: Wait while EventEntity->Render.Flags3 bit 2 is set (cancel turn if not)
  3: 0x0308 [0x5B] LOAD_EXT_SCHEDULER: Load scheduler "tlk0" with entities [Miene (ID: 17727495/0x010E8007), Miene (ID: 17727495/0x010E8007)], work=80*
  4: 0x0317 [0x1D] PRINT_EVENT_MESSAGE(message_id=7480*)
    → "Say, is this yours? It looks like a button... Maybe it fell off when that lady ran into you."
  5: 0x031A [0x23] WAIT_FOR_DIALOG_INTERACTION
  6: 0x031B [0x1C] WAIT(30* ticks)
  7: 0x031E [0x1D] PRINT_EVENT_MESSAGE(message_id=7481*)
    → "It's not yours, huh? How odd... I'm sure it wasn't here a moment ago!"
  8: 0x0321 [0x23] WAIT_FOR_DIALOG_INTERACTION
  9: 0x0322 [0x5E] EventEntity goes idle (kills current action) (animation: "idl0")
 10: 0x0327 [0x1C] WAIT(30* ticks)
 11: 0x032A [0x5B] LOAD_EXT_SCHEDULER: Load scheduler "pas0" with entities [Miene (ID: 17727495/0x010E8007), Miene (ID: 17727495/0x010E8007)], work=80*
 12: 0x0339 [0x1D] PRINT_EVENT_MESSAGE(message_id=7482*)
    → "Well, I'll give it to you anyway. Perhaps it will be of some use."
 13: 0x033C [0x23] WAIT_FOR_DIALOG_INTERACTION
 14: 0x033D [0x53] WAIT_SCHEDULER_TASK: Wait for scheduler "pas0" with entities [Miene (ID: 17727495/0x010E8007), Miene (ID: 17727495/0x010E8007)]
 15: 0x034A [0x1C] WAIT(30* ticks)
 16: 0x034D [0x21] END_EVENT
 17: 0x034E [0x00] END_REQSTACK()
```

### Event 553

#### Metadata

| Field        | Value    |
|--------------|----------|
| Entrypoint   | 0x034F   |
| Data Size    | 36 bytes |
| Instructions | 10       |

```
      00 01 02 03 04 05 06 07  08 09 0A 0B 0C 0D 0E 0F
      -- -- -- -- -- -- -- --  -- -- -- -- -- -- -- --
0340:                                               1E                 .
0350: F0 FF FF 7F 6F 70 5B 14  80 07 80 0E 01 07 80 0E  ....op[.........
0360: 01 74 6C 6B 30 1D 20 80  23 5E 69 64 6C 30 1C 16  .tlk0. .#^idl0..
0370: 80 21 00                                          .!.             
```

#### Opcodes

```
  0: 0x034F [0x1E] EventEntity looks at LocalPlayer and starts talking
  1: 0x0354 [0x6F] WAIT_FRAME_DELAY: Yield until WaitTime reaches zero
  2: 0x0355 [0x70] WAIT_ENTITY_RENDER_FLAG: Wait while EventEntity->Render.Flags3 bit 2 is set (cancel turn if not)
  3: 0x0356 [0x5B] LOAD_EXT_SCHEDULER: Load scheduler "tlk0" with entities [Miene (ID: 17727495/0x010E8007), Miene (ID: 17727495/0x010E8007)], work=80*
  4: 0x0365 [0x1D] PRINT_EVENT_MESSAGE(message_id=7484*)
    → "You're working hard, right? I think adventurers should battle in the field, not boast in the tavern!"
  5: 0x0368 [0x23] WAIT_FOR_DIALOG_INTERACTION
  6: 0x0369 [0x5E] EventEntity goes idle (kills current action) (animation: "idl0")
  7: 0x036E [0x1C] WAIT(30* ticks)
  8: 0x0371 [0x21] END_EVENT
  9: 0x0372 [0x00] END_REQSTACK()
```

### Event 552

#### Metadata

| Field        | Value    |
|--------------|----------|
| Entrypoint   | 0x0373   |
| Data Size    | 36 bytes |
| Instructions | 10       |

```
      00 01 02 03 04 05 06 07  08 09 0A 0B 0C 0D 0E 0F
      -- -- -- -- -- -- -- --  -- -- -- -- -- -- -- --
0370:          1E F0 FF FF 7F  6F 70 5B 14 80 07 80 0E     .....op[.....
0380: 01 07 80 0E 01 74 6C 6B  30 1D 21 80 23 5E 69 64  .....tlk0.!.#^id
0390: 6C 30 1C 16 80 21 00                              l0...!.         
```

#### Opcodes

```
  0: 0x0373 [0x1E] EventEntity looks at LocalPlayer and starts talking
  1: 0x0378 [0x6F] WAIT_FRAME_DELAY: Yield until WaitTime reaches zero
  2: 0x0379 [0x70] WAIT_ENTITY_RENDER_FLAG: Wait while EventEntity->Render.Flags3 bit 2 is set (cancel turn if not)
  3: 0x037A [0x5B] LOAD_EXT_SCHEDULER: Load scheduler "tlk0" with entities [Miene (ID: 17727495/0x010E8007), Miene (ID: 17727495/0x010E8007)], work=80*
  4: 0x0389 [0x1D] PRINT_EVENT_MESSAGE(message_id=7489*)
    → "Oh, you can't carry it? It's just a button! Why don't you get rid of some of those other things you're carrying first."
  5: 0x038C [0x23] WAIT_FOR_DIALOG_INTERACTION
  6: 0x038D [0x5E] EventEntity goes idle (kills current action) (animation: "idl0")
  7: 0x0392 [0x1C] WAIT(30* ticks)
  8: 0x0395 [0x21] END_EVENT
  9: 0x0396 [0x00] END_REQSTACK()
```

### Event 611

#### Metadata

| Field        | Value    |
|--------------|----------|
| Entrypoint   | 0x0397   |
| Data Size    | 44 bytes |
| Instructions | 10       |

```
      00 01 02 03 04 05 06 07  08 09 0A 0B 0C 0D 0E 0F
      -- -- -- -- -- -- -- --  -- -- -- -- -- -- -- --
0390:                      1E  F0 FF FF 7F 6F 70 5B 14         .....op[.
03A0: 80 07 80 0E 01 07 80 0E  01 65 30 30 31 1D 22 80  .........e001.".
03B0: 23 53 07 80 0E 01 07 80  0E 01 65 30 30 31 1C 16  #S........e001..
03C0: 80 21 00                                          .!.             
```

#### Opcodes

```
  0: 0x0397 [0x1E] EventEntity looks at LocalPlayer and starts talking
  1: 0x039C [0x6F] WAIT_FRAME_DELAY: Yield until WaitTime reaches zero
  2: 0x039D [0x70] WAIT_ENTITY_RENDER_FLAG: Wait while EventEntity->Render.Flags3 bit 2 is set (cancel turn if not)
  3: 0x039E [0x5B] LOAD_EXT_SCHEDULER: Load scheduler "e001" with entities [Miene (ID: 17727495/0x010E8007), Miene (ID: 17727495/0x010E8007)], work=80*
  4: 0x03AD [0x1D] PRINT_EVENT_MESSAGE(message_id=7483*)
    → "Say, what's this doing here? Isn't this the button I gave you? You must have dropped it, silly!"
  5: 0x03B0 [0x23] WAIT_FOR_DIALOG_INTERACTION
  6: 0x03B1 [0x53] WAIT_SCHEDULER_TASK: Wait for scheduler "e001" with entities [Miene (ID: 17727495/0x010E8007), Miene (ID: 17727495/0x010E8007)]
  7: 0x03BE [0x1C] WAIT(30* ticks)
  8: 0x03C1 [0x21] END_EVENT
  9: 0x03C2 [0x00] END_REQSTACK()
```
