# 0x7FFFFFF0 - Zone Events

## Common Data

| Field            | Value                     |
|------------------|---------------------------|
| Zone             | Port San d'Oria (ID: 232) |
| Block Size       | 14680 bytes               |
| Total Events     | 84                        |
| References Count | 363                       |

## List of Events

| Event ID                   | Entrypoint   |   Size |   Instructions |
|----------------------------|--------------|--------|----------------|
| [65535](#event-65535)      | 0x0000       |      1 |              1 |
| [65535.1](#event-655351)   | 0x0001       |     10 |              2 |
| [4](#event-4)              | 0x000B       |   3008 |            430 |
| [65535.2](#event-655352)   | 0x0BCB       |      1 |              1 |
| [500](#event-500)          | 0x0BCC       |   3595 |            490 |
| [65535.3](#event-655353)   | 0x19D7       |      1 |              1 |
| [65535.4](#event-655354)   | 0x19D8       |      1 |              1 |
| [65535.5](#event-655355)   | 0x19D9       |     10 |              2 |
| [65535.6](#event-655356)   | 0x19E3       |     10 |              2 |
| [65535.7](#event-655357)   | 0x19ED       |     10 |              2 |
| [65535.8](#event-655358)   | 0x19F7       |      1 |              1 |
| [65535.9](#event-655359)   | 0x19F8       |     23 |              5 |
| [502](#event-502)          | 0x1A0F       |      1 |              1 |
| [65535.10](#event-6553510) | 0x1A10       |     10 |              2 |
| [65535.11](#event-6553511) | 0x1A1A       |     10 |              2 |
| [505](#event-505)          | 0x1A24       |      6 |              2 |
| [506](#event-506)          | 0x1A2A       |      6 |              2 |
| [507](#event-507)          | 0x1A30       |      6 |              2 |
| [65535.12](#event-6553512) | 0x1A36       |      6 |              2 |
| [65535.13](#event-6553513) | 0x1A3C       |      6 |              2 |
| [65535.14](#event-6553514) | 0x1A42       |      6 |              2 |
| [65535.15](#event-6553515) | 0x1A48       |      6 |              2 |
| [65535.16](#event-6553516) | 0x1A4E       |      6 |              2 |
| [65535.17](#event-6553517) | 0x1A54       |      6 |              2 |
| [65535.18](#event-6553518) | 0x1A5A       |      9 |              3 |
| [65535.19](#event-6553519) | 0x1A63       |      9 |              3 |
| [65535.20](#event-6553520) | 0x1A6C       |      9 |              3 |
| [65535.21](#event-6553521) | 0x1A75       |      9 |              3 |
| [65535.22](#event-6553522) | 0x1A7E       |      9 |              3 |
| [65535.23](#event-6553523) | 0x1A87       |      9 |              3 |
| [509](#event-509)          | 0x1A90       |      1 |              1 |
| [65535.24](#event-6553524) | 0x1A91       |      6 |              2 |
| [521](#event-521)          | 0x1A97       |      1 |              1 |
| [65535.25](#event-6553525) | 0x1A98       |      6 |              2 |
| [65535.26](#event-6553526) | 0x1A9E       |      6 |              2 |
| [65535.27](#event-6553527) | 0x1AA4       |      6 |              2 |
| [65535.28](#event-6553528) | 0x1AAA       |     10 |              2 |
| [508](#event-508)          | 0x1AB4       |     11 |              3 |
| [65535.29](#event-6553529) | 0x1ABF       |      6 |              2 |
| [65535.30](#event-6553530) | 0x1AC5       |     31 |              7 |
| [65535.31](#event-6553531) | 0x1AE4       |     14 |              4 |
| [65535.32](#event-6553532) | 0x1AF2       |     41 |              9 |
| [65535.33](#event-6553533) | 0x1B1B       |     26 |              6 |
| [700](#event-700)          | 0x1B35       |     12 |              3 |
| [702](#event-702)          | 0x1B41       |     83 |             12 |
| [701](#event-701)          | 0x1B94       |     17 |              6 |
| [65534](#event-65534)      | 0x1BA5       |      1 |              1 |
| [18](#event-18)            | 0x1BA6       |    937 |            139 |
| [17](#event-17)            | 0x1F4F       |    855 |            124 |
| [7](#event-7)              | 0x22A6       |    675 |             95 |
| [15](#event-15)            | 0x2549       |   1790 |            254 |
| [19](#event-19)            | 0x2C47       |    381 |             56 |
| [22](#event-22)            | 0x2DC4       |    416 |             60 |
| [65535.34](#event-6553534) | 0x2F64       |      6 |              2 |
| [65535.35](#event-6553535) | 0x2F6A       |      6 |              2 |
| [65535.36](#event-6553536) | 0x2F70       |      6 |              2 |
| [65535.37](#event-6553537) | 0x2F76       |      6 |              2 |
| [65535.38](#event-6553538) | 0x2F7C       |      6 |              2 |
| [65535.39](#event-6553539) | 0x2F82       |     10 |              2 |
| [65535.40](#event-6553540) | 0x2F8C       |     10 |              2 |
| [745](#event-745)          | 0x2F96       |      1 |              1 |
| [65535.41](#event-6553541) | 0x2F97       |     10 |              2 |
| [65535.42](#event-6553542) | 0x2FA1       |     15 |              3 |
| [65535.43](#event-6553543) | 0x2FB0       |      6 |              2 |
| [65535.44](#event-6553544) | 0x2FB6       |      6 |              2 |
| [65535.45](#event-6553545) | 0x2FBC       |     24 |              4 |
| [65535.46](#event-6553546) | 0x2FD4       |     24 |              4 |
| [65535.47](#event-6553547) | 0x2FEC       |     37 |              5 |
| [65535.48](#event-6553548) | 0x3011       |     37 |              5 |
| [65535.49](#event-6553549) | 0x3036       |    190 |             38 |
| [65535.50](#event-6553550) | 0x30F4       |     15 |              5 |
| [65535.51](#event-6553551) | 0x3103       |     41 |              9 |
| [65535.52](#event-6553552) | 0x312C       |     29 |              5 |
| [65535.53](#event-6553553) | 0x3149       |     24 |              4 |
| [65535.54](#event-6553554) | 0x3161       |     24 |              4 |
| [65535.55](#event-6553555) | 0x3179       |     16 |              3 |
| [65535.56](#event-6553556) | 0x3189       |     10 |              2 |
| [65535.57](#event-6553557) | 0x3193       |     16 |              3 |
| [65535.58](#event-6553558) | 0x31A3       |     38 |              5 |
| [65535.59](#event-6553559) | 0x31C9       |     38 |              5 |
| [65535.60](#event-6553560) | 0x31EF       |     38 |              5 |
| [65535.61](#event-6553561) | 0x3215       |     14 |              4 |
| [65535.62](#event-6553562) | 0x3223       |     14 |              4 |
| [65535.63](#event-6553563) | 0x3231       |     27 |              5 |

## DAT References (imed_data)

|   Index | Hex Value   |   Dec Value |
|---------|-------------|-------------|
|       0 | 0x009A      |         154 |
|       1 | 0xFFFFF98B  |  4294965643 |
|       2 | 0x0000      |           0 |
|       3 | 0x0B83      |        2947 |
|       4 | 0x00C8      |         200 |
|       5 | 0x0003      |           3 |
|       6 | 0x00E6      |         230 |
|       7 | 0x012C      |         300 |
|       8 | 0x0001      |           1 |
|       9 | 0x000F      |          15 |
|      10 | 0x00FF      |         255 |
|      11 | 0x0051      |          81 |
|      12 | 0x0078      |         120 |
|      13 | 0x2005      |        8197 |
|      14 | 0x000A      |          10 |
|      15 | 0x2006      |        8198 |
|      16 | 0x2007      |        8199 |
|      17 | 0x006E      |         110 |
|      18 | 0x003C      |          60 |
|      19 | 0x007C      |         124 |
|      20 | 0x2008      |        8200 |
|      21 | 0x2009      |        8201 |
|      22 | 0x0096      |         150 |
|      23 | 0x200A      |        8202 |
|      24 | 0x200B      |        8203 |
|      25 | 0x200C      |        8204 |
|      26 | 0x200D      |        8205 |
|      27 | 0x200E      |        8206 |
|      28 | 0x200F      |        8207 |
|      29 | 0x00E7      |         231 |
|      30 | 0x2010      |        8208 |
|      31 | 0x2011      |        8209 |
|      32 | 0x2012      |        8210 |
|      33 | 0x2013      |        8211 |
|      34 | 0x2014      |        8212 |
|      35 | 0x2015      |        8213 |
|      36 | 0x2016      |        8214 |
|      37 | 0x2017      |        8215 |
|      38 | 0x006C      |         108 |
|      39 | 0x2018      |        8216 |
|      40 | 0x2019      |        8217 |
|      41 | 0x201A      |        8218 |
|      42 | 0x201B      |        8219 |
|      43 | 0x201C      |        8220 |
|      44 | 0x201D      |        8221 |
|      45 | 0x201E      |        8222 |
|      46 | 0x0032      |          50 |
|      47 | 0x0028      |          40 |
|      48 | 0x201F      |        8223 |
|      49 | 0x0F17      |        3863 |
|      50 | 0x2020      |        8224 |
|      51 | 0x2021      |        8225 |
|      52 | 0x0B14      |        2836 |
|      53 | 0x2022      |        8226 |
|      54 | 0x0014      |          20 |
|      55 | 0x2023      |        8227 |
|      56 | 0x005A      |          90 |
|      57 | 0xFFFF65B6  |  4294927798 |
|      58 | 0xFFFF7E96  |  4294934166 |
|      59 | 0xFFFFF061  |  4294963297 |
|      60 | 0x0CDF      |        3295 |
|      61 | 0xFFFFF448  |  4294964296 |
|      62 | 0x0BB8      |        3000 |
|      63 | 0x000D      |          13 |
|      64 | 0x001E      |          30 |
|      65 | 0x2024      |        8228 |
|      66 | 0x2025      |        8229 |
|      67 | 0x08D2      |        2258 |
|      68 | 0x2026      |        8230 |
|      69 | 0x2027      |        8231 |
|      70 | 0x2028      |        8232 |
|      71 | 0x2029      |        8233 |
|      72 | 0x202A      |        8234 |
|      73 | 0x002D      |          45 |
|      74 | 0x202B      |        8235 |
|      75 | 0x202C      |        8236 |
|      76 | 0x007F      |         127 |
|      77 | 0x202D      |        8237 |
|      78 | 0x202E      |        8238 |
|      79 | 0x202F      |        8239 |
|      80 | 0x2030      |        8240 |
|      81 | 0x0064      |         100 |
|      82 | 0x2031      |        8241 |
|      83 | 0x2032      |        8242 |
|      84 | 0x2033      |        8243 |
|      85 | 0x050B      |        1291 |
|      86 | 0x2034      |        8244 |
|      87 | 0x006B      |         107 |
|      88 | 0x0005      |           5 |
|      89 | 0x017C      |         380 |
|      90 | 0x0008      |           8 |
|      91 | 0x0084      |         132 |
|      92 | 0x1CC8      |        7368 |
|      93 | 0x1CC9      |        7369 |
|      94 | 0x1CCA      |        7370 |
|      95 | 0x1CCB      |        7371 |
|      96 | 0xFFFFC0D1  |  4294951121 |
|      97 | 0xFFFF2826  |  4294912038 |
|      98 | 0xFFFFF830  |  4294965296 |
|      99 | 0x0BDC      |        3036 |
|     100 | 0xFFFFC1BD  |  4294951357 |
|     101 | 0xFFFF5248  |  4294922824 |
|     102 | 0xFFFED011  |  4294889489 |
|     103 | 0xFFFE57C6  |  4294858694 |
|     104 | 0xFFFFF060  |  4294963296 |
|     105 | 0x0187      |         391 |
|     106 | 0x1CCD      |        7373 |
|     107 | 0x1CCE      |        7374 |
|     108 | 0x004B      |          75 |
|     109 | 0x1CCF      |        7375 |
|     110 | 0xFFFE4FC5  |  4294856645 |
|     111 | 0xFFFDEFA4  |  4294832036 |
|     112 | 0xFFFFDECD  |  4294958797 |
|     113 | 0x0E17      |        3607 |
|     114 | 0xFFFE6454  |  4294861908 |
|     115 | 0xFFFE1152  |  4294840658 |
|     116 | 0xFFFFE0C0  |  4294959296 |
|     117 | 0x1CD1      |        7377 |
|     118 | 0x1CD2      |        7378 |
|     119 | 0x1CD3      |        7379 |
|     120 | 0x1CD4      |        7380 |
|     121 | 0x1CD5      |        7381 |
|     122 | 0x0073      |         115 |
|     123 | 0x1CD6      |        7382 |
|     124 | 0x1CD7      |        7383 |
|     125 | 0x1CD8      |        7384 |
|     126 | 0x007D      |         125 |
|     127 | 0x1CD9      |        7385 |
|     128 | 0x1CDA      |        7386 |
|     129 | 0x1CDB      |        7387 |
|     130 | 0x1CDC      |        7388 |
|     131 | 0x1CDD      |        7389 |
|     132 | 0x007E      |         126 |
|     133 | 0x1CDE      |        7390 |
|     134 | 0x1CDF      |        7391 |
|     135 | 0x1CE0      |        7392 |
|     136 | 0x1CE1      |        7393 |
|     137 | 0x00B4      |         180 |
|     138 | 0x1CE2      |        7394 |
|     139 | 0x1CE3      |        7395 |
|     140 | 0x1CE4      |        7396 |
|     141 | 0x1CE5      |        7397 |
|     142 | 0x1CE6      |        7398 |
|     143 | 0x1CE7      |        7399 |
|     144 | 0x1CE8      |        7400 |
|     145 | 0x1CE9      |        7401 |
|     146 | 0x0002      |           2 |
|     147 | 0x1CEB      |        7403 |
|     148 | 0x1CEC      |        7404 |
|     149 | 0x00E8      |         232 |
|     150 | 0xFFFEB978  |  4294883704 |
|     151 | 0xFFFE7649  |  4294866505 |
|     152 | 0x0218      |         536 |
|     153 | 0x1CF7      |        7415 |
|     154 | 0x2E8D      |       11917 |
|     155 | 0x2E8E      |       11918 |
|     156 | 0x1CF8      |        7416 |
|     157 | 0x1CEE      |        7406 |
|     158 | 0x1CEF      |        7407 |
|     159 | 0x1CF1      |        7409 |
|     160 | 0x1CF2      |        7410 |
|     161 | 0x1CF3      |        7411 |
|     162 | 0x1CF4      |        7412 |
|     163 | 0x1CF5      |        7413 |
|     164 | 0x1CF6      |        7414 |
|     165 | 0xFFFEEE90  |  4294897296 |
|     166 | 0x0800      |        2048 |
|     167 | 0xFFFFCAB2  |  4294953650 |
|     168 | 0xFFFF5520  |  4294923552 |
|     169 | 0x0D6B      |        3435 |
|     170 | 0x0019      |          25 |
|     171 | 0xFFFFC167  |  4294951271 |
|     172 | 0xFFFF0670  |  4294903408 |
|     173 | 0x0BEA      |        3050 |
|     174 | 0xFFFFC1C0  |  4294951360 |
|     175 | 0xFFFF559D  |  4294923677 |
|     176 | 0x035A      |         858 |
|     177 | 0xFFFEC7DF  |  4294887391 |
|     178 | 0x0420      |        1056 |
|     179 | 0xFFFEF27B  |  4294898299 |
|     180 | 0xFFFF5EDA  |  4294926042 |
|     181 | 0xFFFFEA88  |  4294961800 |
|     182 | 0x0819      |        2073 |
|     183 | 0xFFFEF82A  |  4294899754 |
|     184 | 0xFFFF84BE  |  4294935742 |
|     185 | 0x0BB7      |        2999 |
|     186 | 0xFFFFBB3E  |  4294949694 |
|     187 | 0x6DF2      |       28146 |
|     188 | 0xFFFFD274  |  4294955636 |
|     189 | 0x6D0D      |       27917 |
|     190 | 0xFFFF9723  |  4294940451 |
|     191 | 0x437D      |       17277 |
|     192 | 0x0405      |        1029 |
|     193 | 0xFFFF9733  |  4294940467 |
|     194 | 0x3C99      |       15513 |
|     195 | 0x0400      |        1024 |
|     196 | 0xFFFF96A7  |  4294940327 |
|     197 | 0x23C6      |        9158 |
|     198 | 0xFFFFFEA1  |  4294966945 |
|     199 | 0xABEB      |       44011 |
|     200 | 0xFFFFFE4C  |  4294966860 |
|     201 | 0x0807      |        2055 |
|     202 | 0x0258      |         600 |
|     203 | 0x021C      |         540 |
|     204 | 0x016F      |         367 |
|     205 | 0xFFFFFFF4  |  4294967284 |
|     206 | 0xFFFE2A8D  |  4294847117 |
|     207 | 0x04CC      |        1228 |
|     208 | 0x00F6      |         246 |
|     209 | 0x2093      |        8339 |
|     210 | 0x2094      |        8340 |
|     211 | 0x2095      |        8341 |
|     212 | 0x2096      |        8342 |
|     213 | 0x2097      |        8343 |
|     214 | 0x2098      |        8344 |
|     215 | 0x2099      |        8345 |
|     216 | 0x209A      |        8346 |
|     217 | 0x209B      |        8347 |
|     218 | 0x209C      |        8348 |
|     219 | 0x209D      |        8349 |
|     220 | 0x209E      |        8350 |
|     221 | 0x209F      |        8351 |
|     222 | 0x00F0      |         240 |
|     223 | 0x20A0      |        8352 |
|     224 | 0x20A1      |        8353 |
|     225 | 0x30CE      |       12494 |
|     226 | 0x20A2      |        8354 |
|     227 | 0x20A3      |        8355 |
|     228 | 0x20A4      |        8356 |
|     229 | 0x20A5      |        8357 |
|     230 | 0x20A6      |        8358 |
|     231 | 0x02CD      |         717 |
|     232 | 0xFFFE2C0C  |  4294847500 |
|     233 | 0xFFFFE0C1  |  4294959297 |
|     234 | 0x0694      |        1684 |
|     235 | 0x20A9      |        8361 |
|     236 | 0x20AA      |        8362 |
|     237 | 0x20AB      |        8363 |
|     238 | 0x20AC      |        8364 |
|     239 | 0x20AD      |        8365 |
|     240 | 0x20AE      |        8366 |
|     241 | 0x20AF      |        8367 |
|     242 | 0x20B0      |        8368 |
|     243 | 0x20B1      |        8369 |
|     244 | 0x20B2      |        8370 |
|     245 | 0x009F      |         159 |
|     246 | 0x20B3      |        8371 |
|     247 | 0x20B4      |        8372 |
|     248 | 0x20B5      |        8373 |
|     249 | 0x20B6      |        8374 |
|     250 | 0x0082      |         130 |
|     251 | 0x20B7      |        8375 |
|     252 | 0x00A3      |         163 |
|     253 | 0x0344      |         836 |
|     254 | 0xFFFE210A  |  4294844682 |
|     255 | 0x0991      |        2449 |
|     256 | 0x20BA      |        8378 |
|     257 | 0x20BB      |        8379 |
|     258 | 0x20BC      |        8380 |
|     259 | 0x20BD      |        8381 |
|     260 | 0x20BE      |        8382 |
|     261 | 0x20BF      |        8383 |
|     262 | 0x20C0      |        8384 |
|     263 | 0x20C1      |        8385 |
|     264 | 0x20C2      |        8386 |
|     265 | 0x20C3      |        8387 |
|     266 | 0x20C8      |        8392 |
|     267 | 0x0296      |         662 |
|     268 | 0xFFFE2472  |  4294845554 |
|     269 | 0x0126      |         294 |
|     270 | 0x20C9      |        8393 |
|     271 | 0x20CA      |        8394 |
|     272 | 0x20CB      |        8395 |
|     273 | 0x20CC      |        8396 |
|     274 | 0x20CD      |        8397 |
|     275 | 0x20CE      |        8398 |
|     276 | 0x20CF      |        8399 |
|     277 | 0x20D0      |        8400 |
|     278 | 0x20D1      |        8401 |
|     279 | 0x20D2      |        8402 |
|     280 | 0x20D3      |        8403 |
|     281 | 0x20D4      |        8404 |
|     282 | 0x20D5      |        8405 |
|     283 | 0x20D6      |        8406 |
|     284 | 0x20D7      |        8407 |
|     285 | 0x20D8      |        8408 |
|     286 | 0x20D9      |        8409 |
|     287 | 0x20DA      |        8410 |
|     288 | 0x20DB      |        8411 |
|     289 | 0x20DC      |        8412 |
|     290 | 0x20DD      |        8413 |
|     291 | 0x20DE      |        8414 |
|     292 | 0x20DF      |        8415 |
|     293 | 0x20E0      |        8416 |
|     294 | 0xFFFFFB3E  |  4294966078 |
|     295 | 0xFFFE3F02  |  4294852354 |
|     296 | 0x04D4      |        1236 |
|     297 | 0xFFFFFC3B  |  4294966331 |
|     298 | 0xFFFE4763  |  4294854499 |
|     299 | 0x060F      |        1551 |
|     300 | 0xFFFE53E2  |  4294857698 |
|     301 | 0x20E1      |        8417 |
|     302 | 0x20E2      |        8418 |
|     303 | 0x20E3      |        8419 |
|     304 | 0x20E4      |        8420 |
|     305 | 0x20E5      |        8421 |
|     306 | 0x20E6      |        8422 |
|     307 | 0x20E7      |        8423 |
|     308 | 0x20E8      |        8424 |
|     309 | 0x20E9      |        8425 |
|     310 | 0x00C9      |         201 |
|     311 | 0x20EC      |        8428 |
|     312 | 0x007B      |         123 |
|     313 | 0x0256      |         598 |
|     314 | 0xFFFE23D4  |  4294845396 |
|     315 | 0x0038      |          56 |
|     316 | 0x20ED      |        8429 |
|     317 | 0x0006      |           6 |
|     318 | 0x20EE      |        8430 |
|     319 | 0x20EF      |        8431 |
|     320 | 0x20F0      |        8432 |
|     321 | 0x20F1      |        8433 |
|     322 | 0x20F4      |        8436 |
|     323 | 0x20F5      |        8437 |
|     324 | 0x20F6      |        8438 |
|     325 | 0x20F7      |        8439 |
|     326 | 0x20F8      |        8440 |
|     327 | 0xFFFFA8B6  |  4294944950 |
|     328 | 0x6BBF      |       27583 |
|     329 | 0x0BEE      |        3054 |
|     330 | 0xFFFEEEC5  |  4294897349 |
|     331 | 0xFFFF66BE  |  4294928062 |
|     332 | 0x05E1      |        1505 |
|     333 | 0xFFFFABBF  |  4294945727 |
|     334 | 0xFFFE6712  |  4294862610 |
|     335 | 0x041A      |        1050 |
|     336 | 0xFFFF16F3  |  4294907635 |
|     337 | 0xFFFF6762  |  4294928226 |
|     338 | 0xFFFFEE70  |  4294962800 |
|     339 | 0x0009      |           9 |
|     340 | 0x0046      |          70 |
|     341 | 0x008C      |         140 |
|     342 | 0x00D2      |         210 |
|     343 | 0x2814C     |      164172 |
|     344 | 0x5118B     |      332171 |
|     345 | 0xFFFEA992  |  4294879634 |
|     346 | 0x27951     |      162129 |
|     347 | 0x510CC     |      331980 |
|     348 | 0xFFFEA9CB  |  4294879691 |
|     349 | 0x0040      |          64 |
|     350 | 0x0080      |         128 |
|     351 | 0x0091      |         145 |
|     352 | 0x004F      |          79 |
|     353 | 0x004C      |          76 |
|     354 | 0x0106      |         262 |
|     355 | 0x0030      |          48 |
|     356 | 0x0018      |          24 |
|     357 | 0x0004      |           4 |
|     358 | 0x0050      |          80 |
|     359 | 0xFFFF0286  |  4294902406 |
|     360 | 0xFFFF7C5B  |  4294933595 |
|     361 | 0xFFFF15DF  |  4294907359 |
|     362 | 0xFFFF735D  |  4294931293 |

## String References

- **7368**: [Cutscene] The fortress city of San d'Oria lies to the north on the great continent of Quon. The beating heart of an ancient kingdom, it is home to a thousand legends past.
- **7369**: [Cutscene] But now, her reign of glory is but a memory. Heroes raise shining swords to the heavens no more.
- **7370**: [Cutscene] The sun has set on the kingdom of knights. An old lion, never to rise again... Thus do some dismiss her now.
- **7371**: [Cutscene] Yet young Elvaan knights still venture proudly into the wilds of Vana'diel, determined to triumph over any foe.
- **7373**: [Cutscene] The king wishes to bolster his ranks, and <Player> has journeyed far to answer the call.
- **7374**: [Cutscene] Should fortune favor [him/her], bards across the land will sing of [his/her] exploits for generations to come.
- **7375**: [Cutscene] Of course, [he/she] has only begun [his/her] rise to glory. No one can tell what [his/her] future holds.
- **7398**: Something you'd like to know? [Nothing, actually./I'd like to get out of the city./I'd like to do some shopping./Tell me more about adventuring.]
- **7406**: What would you like to know? [Helping people./Hunting monsters./Making easy money./Working for my country.]
- **8229**: What do you wish to ask? [Are you all right?/Who was that?]
- **8234**: Prishe is... [fine./in trouble.]
- **8356**: Help him out? [Sure, why not./I only work for cold, hard gil.]

## Events

### Event 65535

#### Metadata

| Field        | Value   |
|--------------|---------|
| Entrypoint   | 0x0000  |
| Data Size    | 1 bytes |
| Instructions | 1       |

```
      00 01 02 03 04 05 06 07  08 09 0A 0B 0C 0D 0E 0F
      -- -- -- -- -- -- -- --  -- -- -- -- -- -- -- --
0000: 00                                                .               
```

#### Opcodes

```
  0: 0x0000 [0x00] END_REQSTACK()
```

### Event 65535.1

#### Metadata

| Field        | Value    |
|--------------|----------|
| Entrypoint   | 0x0001   |
| Data Size    | 10 bytes |
| Instructions | 2        |

```
      00 01 02 03 04 05 06 07  08 09 0A 0B 0C 0D 0E 0F
      -- -- -- -- -- -- -- --  -- -- -- -- -- -- -- --
0000:    37 00 80 01 80 02 80  03 80 00                  7.........     
```

#### Opcodes

```
  0: 0x0001 [0x37] UPDATE_EVENT_POSITION_AND_DIR: x=0.154*, z=-1.653*, y=0.000*, direction=259.0°*
  1: 0x000A [0x00] END_REQSTACK()
```

### Event 4

#### Metadata

| Field        | Value      |
|--------------|------------|
| Entrypoint   | 0x000B     |
| Data Size    | 3008 bytes |
| Instructions | 425        |

```
      00 01 02 03 04 05 06 07  08 09 0A 0B 0C 0D 0E 0F
      -- -- -- -- -- -- -- --  -- -- -- -- -- -- -- --
0000:                                   20 01 46 01 42              .F.B
0010: 45 04 80 F0 FF FF 7F F0  FF FF 7F 66 64 6F 31 02  E..........fdo1.
0020: 80 55 04 80 F0 FF FF 7F  F0 FF FF 7F 66 64 6F 31  .U..........fdo1
0030: 38 05 80 94 01 F0 FF FF  7F 79 00 F0 FF FF 7F 70  8........y.....p
0040: 80 0E 01 4E 01 F0 FF FF  7F 4E 00 70 80 0E 01 4E  ...N.....N.p...N
0050: 00 4A 80 0E 01 80 08 80  0E 01 80 3B 80 0E 01 80  .J.........;....
0060: 4A 80 0E 01 80 4F 80 0E  01 80 07 80 0E 01 80 50  J....O.........P
0070: 80 0E 01 80 51 80 0E 01  80 46 80 0E 01 5C 00 06  ....Q....F...\..
0080: 80 5C 01 06 80 9A 1C 07  80 27 04 70 80 0E 01 0D  .\.......'.p....
0090: 27 03 08 80 0E 01 02 27  03 3B 80 0E 01 02 27 03  '......'.;....'.
00A0: 4A 80 0E 01 02 27 03 4F  80 0E 01 02 27 03 07 80  J....'.O....'...
00B0: 0E 01 02 27 03 50 80 0E  01 02 27 03 51 80 0E 01  ...'.P....'.Q...
00C0: 02 27 03 46 80 0E 01 02  97 02 80 08 80 77 09 80  .'.F.........w..
00D0: 0A 80 45 0B 80 F0 FF FF  7F F0 FF FF 7F 77 30 30  ..E..........w00
00E0: 30 02 80 45 04 80 F0 FF  FF 7F F0 FF FF 7F 66 64  0..E..........fd
00F0: 69 31 02 80 55 04 80 F0  FF FF 7F F0 FF FF 7F 66  i1..U..........f
0100: 64 69 31 55 0B 80 F0 FF  FF 7F F0 FF FF 7F 77 30  di1U..........w0
0110: 30 30 2A 03 46 80 0E 01  1C 0C 80 45 04 80 F0 FF  00*.F......E....
0120: FF 7F F0 FF FF 7F 6F 76  6C 31 02 80 45 0B 80 F0  ......ovl1..E...
0130: FF FF 7F F0 FF FF 7F 77  30 30 62 02 80 55 0B 80  .......w00b..U..
0140: F0 FF FF 7F F0 FF FF 7F  77 30 30 62 1C 0C 80 45  ........w00b...E
0150: 04 80 F0 FF FF 7F F0 FF  FF 7F 6F 76 6C 31 02 80  ..........ovl1..
0160: 45 0B 80 F0 FF FF 7F F0  FF FF 7F 77 30 30 31 02  E..........w001.
0170: 80 27 03 46 80 0E 01 05  2B 46 80 0E 01 0D 80 23  .'.F....+F.....#
0180: 2A 03 46 80 0E 01 27 03  46 80 0E 01 03 1C 0C 80  *.F...'.F.......
0190: 52 0B 80 F0 FF FF 7F F0  FF FF 7F 77 30 30 31 45  R..........w001E
01A0: 04 80 F0 FF FF 7F F0 FF  FF 7F 6F 76 6C 31 02 80  ..........ovl1..
01B0: 45 0B 80 F0 FF FF 7F F0  FF FF 7F 77 30 30 32 02  E..........w002.
01C0: 80 4A 71 80 0E 01 70 80  0E 01 79 00 08 80 0E 01  .Jq...p...y.....
01D0: 3B 80 0E 01 1C 0E 80 2B  08 80 0E 01 0F 80 23 2B  ;......+......#+
01E0: 3B 80 0E 01 10 80 23 79  00 08 80 0E 01 70 80 0E  ;.....#y.....p..
01F0: 01 1C 11 80 4E 00 71 80  0E 01 27 03 71 80 0E 01  ....N.q...'.q...
0200: 02 1C 0E 80 52 0B 80 F0  FF FF 7F F0 FF FF 7F 77  ....R..........w
0210: 30 30 32 45 0B 80 F0 FF  FF 7F F0 FF FF 7F 77 30  002E..........w0
0220: 30 61 02 80 55 0B 80 F0  FF FF 7F F0 FF FF 7F 77  0a..U..........w
0230: 30 30 61 2A 03 71 80 0E  01 1C 12 80 45 0B 80 F0  00a*.q......E...
0240: FF FF 7F F0 FF FF 7F 77  30 30 33 02 80 4E 01 71  .......w003..N.q
0250: 80 0E 01 4E 01 08 80 0E  01 4E 01 3B 80 0E 01 55  ...N.....N.;...U
0260: 0B 80 F0 FF FF 7F F0 FF  FF 7F 77 30 30 33 5D 02  ..........w003].
0270: 80 0C 80 27 04 70 80 0E  01 0E 1C 0C 80 5C 00 13  ...'.p.......\..
0280: 80 5C 01 13 80 2B 4A 80  0E 01 14 80 23 27 03 4A  .\...+J.....#'.J
0290: 80 0E 01 03 1C 0C 80 45  0B 80 F0 FF FF 7F F0 FF  .......E........
02A0: FF 7F 77 30 30 34 02 80  4E 01 4A 80 0E 01 55 0B  ..w004..N.J...U.
02B0: 80 F0 FF FF 7F F0 FF FF  7F 77 30 30 34 27 03 4F  .........w004'.O
02C0: 80 0E 01 05 2B 4F 80 0E  01 15 80 1C 12 80 27 03  ....+O........'.
02D0: 07 80 0E 01 03 23 29 03  4F 80 0E 01 06 27 03 4F  .....#).O....'.O
02E0: 80 0E 01 03 1C 16 80 4E  00 50 80 0E 01 4E 00 51  .......N.P...N.Q
02F0: 80 0E 01 27 03 50 80 0E  01 03 27 03 51 80 0E 01  ...'.P....'.Q...
0300: 03 1C 0E 80 45 0B 80 F0  FF FF 7F F0 FF FF 7F 77  ....E..........w
0310: 30 30 36 02 80 4E 01 4F  80 0E 01 4E 01 07 80 0E  006..N.O...N....
0320: 01 6B 69 64 6C 30 70 80  0E 01 1C 12 80 52 0B 80  .kidl0p......R..
0330: F0 FF FF 7F F0 FF FF 7F  77 30 30 36 45 0B 80 F0  ........w006E...
0340: FF FF 7F F0 FF FF 7F 77  30 30 35 02 80 55 0B 80  .......w005..U..
0350: F0 FF FF 7F F0 FF FF 7F  77 30 30 35 2A 03 50 80  ........w005*.P.
0360: 0E 01 2A 03 51 80 0E 01  4A 70 80 0E 01 51 80 0E  ..*.Q...Jp...Q..
0370: 01 6F 76 70 80 0E 01 2B  50 80 0E 01 17 80 23 27  .ovp...+P.....#'
0380: 03 70 80 0E 01 07 1C 0E  80 2B 70 80 0E 01 18 80  .p.......+p.....
0390: 23 27 03 51 80 0E 01 06  2B 51 80 0E 01 19 80 23  #'.Q....+Q.....#
03A0: 29 03 51 80 0E 01 07 7B  51 80 0E 01 27 03 51 80  ).Q....{Q...'.Q.
03B0: 0E 01 04 1C 09 80 7B 50  80 0E 01 27 03 50 80 0E  ......{P...'.P..
03C0: 01 04 1C 0C 80 29 03 70  80 0E 01 08 27 03 70 80  .....).p....'.p.
03D0: 0E 01 02 1C 0E 80 45 0B  80 F0 FF FF 7F F0 FF FF  ......E.........
03E0: 7F 79 30 30 30 02 80 4E  01 50 80 0E 01 4E 01 51  .y000..N.P...N.Q
03F0: 80 0E 01 55 0B 80 F0 FF  FF 7F F0 FF FF 7F 79 30  ...U..........y0
0400: 30 30 2A 03 70 80 0E 01  1C 12 80 4E 00 71 80 0E  00*.p......N.q..
0410: 01 5D 02 80 0C 80 29 03  71 80 0E 01 03 2B 71 80  .]....).q....+q.
0420: 0E 01 1A 80 23 4A 70 80  0E 01 71 80 0E 01 1C 09  ....#Jp...q.....
0430: 80 45 0B 80 F0 FF FF 7F  F0 FF FF 7F 79 30 30 31  .E..........y001
0440: 02 80 2B 70 80 0E 01 1B  80 23 55 0B 80 F0 FF FF  ..+p.....#U.....
0450: 7F F0 FF FF 7F 79 30 30  31 2B 70 80 0E 01 1C 80  .....y001+p.....
0460: 23 45 0B 80 F0 FF FF 7F  F0 FF FF 7F 79 30 30 32  #E..........y002
0470: 02 80 55 0B 80 F0 FF FF  7F F0 FF FF 7F 79 30 30  ..U..........y00
0480: 32 5C 00 1D 80 5C 01 1D  80 27 03 71 80 0E 01 06  2\...\...'.q....
0490: 2B 71 80 0E 01 1E 80 23  2B 71 80 0E 01 1F 80 23  +q.....#+q.....#
04A0: 29 03 71 80 0E 01 07 28  03 70 80 0E 01 09 1C 0E  ).q....(.p......
04B0: 80 45 0B 80 F0 FF FF 7F  F0 FF FF 7F 79 30 30 33  .E..........y003
04C0: 02 80 2B 70 80 0E 01 20  80 23 55 0B 80 F0 FF FF  ..+p... .#U.....
04D0: 7F F0 FF FF 7F 79 30 30  33 2B 70 80 0E 01 21 80  .....y003+p...!.
04E0: 23 45 0B 80 F0 FF FF 7F  F0 FF FF 7F 79 30 30 34  #E..........y004
04F0: 02 80 1C 12 80 27 03 71  80 0E 01 06 2B 71 80 0E  .....'.q....+q..
0500: 01 22 80 23 55 0B 80 F0  FF FF 7F F0 FF FF 7F 79  .".#U..........y
0510: 30 30 34 2B 71 80 0E 01  23 80 23 27 03 71 80 0E  004+q...#.#'.q..
0520: 01 07 45 04 80 F0 FF FF  7F F0 FF FF 7F 6F 76 6C  ..E..........ovl
0530: 31 02 80 45 0B 80 F0 FF  FF 7F F0 FF FF 7F 79 30  1..E..........y0
0540: 30 36 02 80 7C 00 70 80  0E 01 2B 70 80 0E 01 24  06..|.p...+p...$
0550: 80 23 7C 01 70 80 0E 01  55 0B 80 F0 FF FF 7F F0  .#|.p...U.......
0560: FF FF 7F 79 30 30 36 2B  70 80 0E 01 25 80 23 45  ...y006+p...%.#E
0570: 0B 80 F0 FF FF 7F F0 FF  FF 7F 79 30 30 35 02 80  ..........y005..
0580: 45 26 80 F0 FF FF 7F F0  FF FF 7F 62 61 73 68 02  E&.........bash.
0590: 80 45 04 80 71 80 0E 01  71 80 0E 01 62 6C 6F 6E  .E..q...q...blon
05A0: 02 80 55 0B 80 F0 FF FF  7F F0 FF FF 7F 79 30 30  ..U..........y00
05B0: 35 1C 0E 80 45 04 80 71  80 0E 01 71 80 0E 01 62  5...E..q...q...b
05C0: 6C 6F 66 02 80 81 00 71  80 0E 01 2B 71 80 0E 01  lof....q...+q...
05D0: 27 80 23 81 01 71 80 0E  01 45 0B 80 F0 FF FF 7F  '.#..q...E......
05E0: F0 FF FF 7F 79 30 30 37  02 80 55 0B 80 F0 FF FF  ....y007..U.....
05F0: 7F F0 FF FF 7F 79 30 30  37 27 03 70 80 0E 01 0A  .....y007'.p....
0600: 7C 00 70 80 0E 01 2B 70  80 0E 01 28 80 23 7C 01  |.p...+p...(.#|.
0610: 70 80 0E 01 2A 03 70 80  0E 01 45 0B 80 F0 FF FF  p...*.p...E.....
0620: 7F F0 FF FF 7F 79 30 30  38 02 80 27 03 71 80 0E  .....y008..'.q..
0630: 01 08 2B 71 80 0E 01 29  80 23 2B 71 80 0E 01 2A  ..+q...).#+q...*
0640: 80 23 52 0B 80 F0 FF FF  7F F0 FF FF 7F 79 30 30  .#R..........y00
0650: 38 45 0B 80 F0 FF FF 7F  F0 FF FF 7F 79 30 30 39  8E..........y009
0660: 02 80 27 03 70 80 0E 01  0B 2B 70 80 0E 01 2B 80  ..'.p....+p...+.
0670: 23 29 03 70 80 0E 01 0C  55 0B 80 F0 FF FF 7F F0  #).p....U.......
0680: FF FF 7F 79 30 30 39 2B  71 80 0E 01 2C 80 23 27  ...y009+q...,.#'
0690: 03 71 80 0E 01 09 2B 71  80 0E 01 2D 80 23 2A 03  .q....+q...-.#*.
06A0: 71 80 0E 01 27 03 71 80  0E 01 04 1C 2E 80 27 03  q...'.q.......'.
06B0: 70 80 0E 01 03 1C 2F 80  45 0B 80 F0 FF FF 7F F0  p...../.E.......
06C0: FF FF 7F 79 30 31 30 02  80 2B 70 80 0E 01 30 80  ...y010..+p...0.
06D0: 23 55 0B 80 F0 FF FF 7F  F0 FF FF 7F 79 30 31 30  #U..........y010
06E0: 2A 03 70 80 0E 01 2A 03  71 80 0E 01 4B 71 80 0E  *.p...*.q...Kq..
06F0: 01 31 80 79 00 71 80 0E  01 70 80 0E 01 1C 0E 80  .1.y.q...p......
0700: 45 26 80 F0 FF FF 7F F0  FF FF 7F 62 61 73 68 02  E&.........bash.
0710: 80 45 0B 80 F0 FF FF 7F  F0 FF FF 7F 79 30 31 31  .E..........y011
0720: 02 80 81 00 71 80 0E 01  1C 12 80 2B 71 80 0E 01  ....q......+q...
0730: 32 80 23 55 0B 80 F0 FF  FF 7F F0 FF FF 7F 79 30  2.#U..........y0
0740: 31 31 45 0B 80 F0 FF FF  7F F0 FF FF 7F 79 30 31  11E..........y01
0750: 32 02 80 55 0B 80 F0 FF  FF 7F F0 FF FF 7F 79 30  2..U..........y0
0760: 31 32 81 01 71 80 0E 01  1C 12 80 7C 00 70 80 0E  12..q......|.p..
0770: 01 2B 70 80 0E 01 33 80  23 7C 01 70 80 0E 01 4B  .+p...3.#|.p...K
0780: 71 80 0E 01 34 80 6F 76  71 80 0E 01 2B 71 80 0E  q...4.ovq...+q..
0790: 01 35 80 23 6F 76 71 80  0E 01 45 04 80 F0 FF FF  .5.#ovq...E.....
07A0: 7F F0 FF FF 7F 6F 76 6C  31 02 80 45 0B 80 F0 FF  .....ovl1..E....
07B0: FF 7F F0 FF FF 7F 79 30  31 34 02 80 55 0B 80 F0  ......y014..U...
07C0: FF FF 7F F0 FF FF 7F 79  30 31 34 1C 36 80 2B 71  .......y014.6.+q
07D0: 80 0E 01 37 80 23 27 03  71 80 0E 01 05 1C 38 80  ...7.#'.q.....8.
07E0: 45 0B 80 F0 FF FF 7F F0  FF FF 7F 79 30 31 33 02  E..........y013.
07F0: 80 55 0B 80 F0 FF FF 7F  F0 FF FF 7F 79 30 31 33  .U..........y013
0800: 37 39 80 3A 80 3B 80 3C  80 03 07 00 3D 80 1A 87  79.:.;.<....=...
0810: 0B 37 08 00 09 00 0A 00  0B 00 1C 08 80 4E 00 F0  .7...........N..
0820: FF FF 7F 79 00 F0 FF FF  7F 71 80 0E 01 03 07 00  ...y.....q......
0830: 3E 80 1A 87 0B 32 3F 80  1F 00 08 00 09 00 0A 00  >....2?.........
0840: 1F 01 1C 40 80 4A 70 80  0E 01 F0 FF FF 7F 6F 76  ...@.Jp.......ov
0850: 70 80 0E 01 2B 70 80 0E  01 41 80 27 03 70 80 0E  p...+p...A.'.p..
0860: 01 04 1C 40 80 45 0B 80  F0 FF FF 7F F0 FF FF 7F  ...@.E..........
0870: 78 30 30 30 02 80 55 0B  80 F0 FF FF 7F F0 FF FF  x000..U.........
0880: 7F 78 30 30 30 2A 03 70  80 0E 01 79 00 F0 FF FF  .x000*.p...y....
0890: 7F 70 80 0E 01 23 06 06  00 24 42 80 02 80 02 80  .p...#...$B.....
08A0: 25 02 00 10 02 80 00 B1  08 03 06 00 02 80 01 C1  %...............
08B0: 08 02 00 10 08 80 00 C1  08 03 06 00 08 80 01 C1  ................
08C0: 08 4B 70 80 0E 01 43 80  79 00 70 80 0E 01 71 80  .Kp...C.y.p...q.
08D0: 0E 01 6F 76 70 80 0E 01  45 0B 80 F0 FF FF 7F F0  ..ovp...E.......
08E0: FF FF 7F 78 30 30 31 02  80 02 06 00 02 80 80 FC  ...x001.........
08F0: 08 2B 70 80 0E 01 44 80  23 01 0F 09 02 06 00 08  .+p...D.#.......
0900: 80 80 0F 09 2B 70 80 0E  01 45 80 23 01 0F 09 7B  ....+p...E.#...{
0910: 70 80 0E 01 1C 0E 80 2B  70 80 0E 01 46 80 23 5D  p......+p...F.#]
0920: 02 80 0C 80 4A 70 80 0E  01 F0 FF FF 7F 1C 0E 80  ....Jp..........
0930: 52 0B 80 F0 FF FF 7F F0  FF FF 7F 78 30 30 31 45  R..........x001E
0940: 0B 80 F0 FF FF 7F F0 FF  FF 7F 78 30 30 32 02 80  ..........x002..
0950: 6F 76 70 80 0E 01 1C 09  80 27 03 70 80 0E 01 07  ovp......'.p....
0960: 2B 70 80 0E 01 47 80 23  06 06 00 24 48 80 02 80  +p...G.#...$H...
0970: 02 80 25 02 00 10 02 80  00 83 09 03 06 00 02 80  ..%.............
0980: 01 93 09 02 00 10 08 80  00 93 09 03 06 00 08 80  ................
0990: 01 93 09 1C 49 80 52 0B  80 F0 FF FF 7F F0 FF FF  ....I.R.........
09A0: 7F 78 30 30 32 45 04 80  71 80 0E 01 71 80 0E 01  .x002E..q...q...
09B0: 6F 76 6C 31 02 80 45 0B  80 F0 FF FF 7F F0 FF FF  ovl1..E.........
09C0: 7F 78 30 30 33 02 80 1C  12 80 27 03 70 80 0E 01  .x003.....'.p...
09D0: 08 02 06 00 02 80 80 E4  09 2B 70 80 0E 01 4A 80  .........+p...J.
09E0: 23 01 F7 09 02 06 00 08  80 80 F7 09 2B 70 80 0E  #...........+p..
09F0: 01 4B 80 23 01 F7 09 5C  00 4C 80 5C 01 4C 80 55  .K.#...\.L.\.L.U
0A00: 0B 80 F0 FF FF 7F F0 FF  FF 7F 78 30 30 33 2B 70  ..........x003+p
0A10: 80 0E 01 4D 80 23 2A 03  70 80 0E 01 1C 40 80 4B  ...M.#*.p....@.K
0A20: 70 80 0E 01 02 80 6F 76  70 80 0E 01 2B 70 80 0E  p.....ovp...+p..
0A30: 01 4E 80 23 27 03 70 80  0E 01 05 1C 12 80 45 0B  .N.#'.p.......E.
0A40: 80 F0 FF FF 7F F0 FF FF  7F 78 30 30 34 02 80 2A  .........x004..*
0A50: 03 70 80 0E 01 4A F0 FF  FF 7F 70 80 0E 01 1C 38  .p...J....p....8
0A60: 80 2B 70 80 0E 01 4F 80  23 55 0B 80 F0 FF FF 7F  .+p...O.#U......
0A70: F0 FF FF 7F 78 30 30 34  2B 70 80 0E 01 50 80 23  ....x004+p...P.#
0A80: 1C 40 80 45 04 80 F0 FF  FF 7F F0 FF FF 7F 6F 76  .@.E..........ov
0A90: 6C 31 02 80 45 0B 80 F0  FF FF 7F F0 FF FF 7F 78  l1..E..........x
0AA0: 30 30 35 02 80 1C 51 80  4A 70 80 0E 01 F0 FF FF  005...Q.Jp......
0AB0: 7F 6F 76 70 80 0E 01 2B  70 80 0E 01 52 80 23 55  .ovp...+p...R.#U
0AC0: 0B 80 F0 FF FF 7F F0 FF  FF 7F 78 30 30 35 2B 70  ..........x005+p
0AD0: 80 0E 01 53 80 23 45 0B  80 F0 FF FF 7F F0 FF FF  ...S.#E.........
0AE0: 7F 78 30 30 36 02 80 29  03 70 80 0E 01 04 2B 70  .x006..).p....+p
0AF0: 80 0E 01 54 80 23 4B 70  80 0E 01 55 80 2B 70 80  ...T.#Kp...U.+p.
0B00: 0E 01 56 80 23 6F 76 70  80 0E 01 7B 70 80 0E 01  ..V.#ovp...{p...
0B10: 27 03 70 80 0E 01 06 1C  40 80 4A F0 FF FF 7F 70  '.p.....@.J....p
0B20: 80 0E 01 1C 38 80 4A F0  FF FF 7F 70 80 0E 01 1C  ....8.J....p....
0B30: 40 80 45 04 80 F0 FF FF  7F F0 FF FF 7F 66 64 6F  @.E..........fdo
0B40: 32 02 80 55 04 80 F0 FF  FF 7F F0 FF FF 7F 66 64  2..U..........fd
0B50: 6F 32 78 52 0B 80 F0 FF  FF 7F F0 FF FF 7F 78 30  o2xR..........x0
0B60: 30 36 5D 02 80 07 80 1C  07 80 5C 00 57 80 5C 01  06].......\.W.\.
0B70: 57 80 46 00 45 04 80 F0  FF FF 7F F0 FF FF 7F 66  W.F.E..........f
0B80: 64 69 32 02 80 21 00 3B  F8 FF FF 7F 08 00 09 00  di2..!.;........
0B90: 0A 00 3A F8 FF FF 7F 0B  00 17 0C 00 0B 00 07 00  ..:.............
0BA0: 16 0D 00 0B 00 07 00 07  08 00 0C 00 07 09 00 0D  ................
0BB0: 00 1B 17 0C 00 0B 00 07  00 16 0D 00 0B 00 07 00  ................
0BC0: 07 08 00 0C 00 07 09 00  0D 00 1B                 ...........     
```

#### Opcodes

```
  0: 0x000B [0x20] SET_CLI_EVENT_UC_FLAG: Lock player control
  1: 0x000D [0x46] CAMERA_CONTROL: Disable user control
  2: 0x000F [0x42] SET_CLI_EVENT_CANCEL_DATA()
  3: 0x0010 [0x45] LOAD_SCHEDULED_TASK: Load scheduler "fdo1" with entities [LocalPlayer, LocalPlayer], work=[200*, 0*]
  4: 0x0021 [0x55] WAIT_LOAD_SCHEDULER: Wait for scheduler "fdo1" with entities [LocalPlayer, LocalPlayer], work=200*
  5: 0x0030 [0x38] SET_CLIENT_EVENT_MODE(mode=3*)
  6: 0x0033 [0x94] LocalPlayer->Render.Flags3 ^= 0x01
  7: 0x0039 [0x79] LocalPlayer looks at Ulmia (ID: 17727600/0x010E8070) (Basic look)
  8: 0x0043 [0x4E] SET_ENTITY_HIDE_FLAG: Hide LocalPlayer
  9: 0x0049 [0x4E] SET_ENTITY_HIDE_FLAG: Show Ulmia (ID: 17727600/0x010E8070)
 10: 0x004F [0x4E] SET_ENTITY_HIDE_FLAG: Show Felippe (ID: 17727562/0x010E804A)
 11: 0x0055 [0x80] LOAD_WAIT(entity=Altiret (ID: 17727496/0x010E8008))
 12: 0x005A [0x80] LOAD_WAIT(entity=Eaugouint (ID: 17727547/0x010E803B))
 13: 0x005F [0x80] LOAD_WAIT(entity=Felippe (ID: 17727562/0x010E804A))
 14: 0x0064 [0x80] LOAD_WAIT(entity=Bellue (ID: 17727567/0x010E804F))
 15: 0x0069 [0x80] LOAD_WAIT(entity=Miene (ID: 17727495/0x010E8007))
 16: 0x006E [0x80] LOAD_WAIT(entity=Bonarpant (ID: 17727568/0x010E8050))
 17: 0x0073 [0x80] LOAD_WAIT(entity=Prietta (ID: 17727569/0x010E8051))
 18: 0x0078 [0x80] LOAD_WAIT(entity=Answald (ID: 17727558/0x010E8046))
 19: 0x007D [0x5C] MUSIC_CONTROL: Set Idle (Day) music to song 230*
 20: 0x0081 [0x5C] MUSIC_CONTROL: Set Idle (Night) music to song 230*
 21: 0x0085 [0x9A] WAIT_MUSIC_SERVER()
 22: 0x0086 [0x1C] WAIT(300* ticks)
 23: 0x0089 [0x27] REQ_SET(priority=0x04, entity_id=Ulmia (ID: 17727600/0x010E8070), tag_num=0x0D)
 24: 0x0090 [0x27] REQ_SET(priority=0x03, entity_id=Altiret (ID: 17727496/0x010E8008), tag_num=0x02)
 25: 0x0097 [0x27] REQ_SET(priority=0x03, entity_id=Eaugouint (ID: 17727547/0x010E803B), tag_num=0x02)
 26: 0x009E [0x27] REQ_SET(priority=0x03, entity_id=Felippe (ID: 17727562/0x010E804A), tag_num=0x02)
 27: 0x00A5 [0x27] REQ_SET(priority=0x03, entity_id=Bellue (ID: 17727567/0x010E804F), tag_num=0x02)
 28: 0x00AC [0x27] REQ_SET(priority=0x03, entity_id=Miene (ID: 17727495/0x010E8007), tag_num=0x02)
 29: 0x00B3 [0x27] REQ_SET(priority=0x03, entity_id=Bonarpant (ID: 17727568/0x010E8050), tag_num=0x02)
 30: 0x00BA [0x27] REQ_SET(priority=0x03, entity_id=Prietta (ID: 17727569/0x010E8051), tag_num=0x02)
 31: 0x00C1 [0x27] REQ_SET(priority=0x03, entity_id=Answald (ID: 17727558/0x010E8046), tag_num=0x02)
 32: 0x00C8 [0x97] SAVE_SET_WIND_VALUES(wind_base=0x8002, wind_width=0x8008)
 33: 0x00CD [0x77] SET_EVENT_TIME_WEATHER(hour=15*, weather=255*)
 34: 0x00D2 [0x45] LOAD_SCHEDULED_TASK: Load scheduler "w000" with entities [LocalPlayer, LocalPlayer], work=[81*, 0*]
 35: 0x00E3 [0x45] LOAD_SCHEDULED_TASK: Load scheduler "fdi1" with entities [LocalPlayer, LocalPlayer], work=[200*, 0*]
 36: 0x00F4 [0x55] WAIT_LOAD_SCHEDULER: Wait for scheduler "fdi1" with entities [LocalPlayer, LocalPlayer], work=200*
 37: 0x0103 [0x55] WAIT_LOAD_SCHEDULER: Wait for scheduler "w000" with entities [LocalPlayer, LocalPlayer], work=81*
 38: 0x0112 [0x2A] GET_REQ_LEVEL(level=3, entity_id=Answald (ID: 17727558/0x010E8046))
 39: 0x0118 [0x1C] WAIT(120* ticks)
 40: 0x011B [0x45] LOAD_SCHEDULED_TASK: Load scheduler "ovl1" with entities [LocalPlayer, LocalPlayer], work=[200*, 0*]
 41: 0x012C [0x45] LOAD_SCHEDULED_TASK: Load scheduler "w00b" with entities [LocalPlayer, LocalPlayer], work=[81*, 0*]
 42: 0x013D [0x55] WAIT_LOAD_SCHEDULER: Wait for scheduler "w00b" with entities [LocalPlayer, LocalPlayer], work=81*
 43: 0x014C [0x1C] WAIT(120* ticks)
 44: 0x014F [0x45] LOAD_SCHEDULED_TASK: Load scheduler "ovl1" with entities [LocalPlayer, LocalPlayer], work=[200*, 0*]
 45: 0x0160 [0x45] LOAD_SCHEDULED_TASK: Load scheduler "w001" with entities [LocalPlayer, LocalPlayer], work=[81*, 0*]
 46: 0x0171 [0x27] REQ_SET(priority=0x03, entity_id=Answald (ID: 17727558/0x010E8046), tag_num=0x05)
 47: 0x0178 [0x2B] Answald (ID: 17727558/0x010E8046) [8197*]:
    → "I wonder who that beautiful young lass is waiting for every day and every night down by the docks..."
 48: 0x017F [0x23] WAIT_FOR_DIALOG_INTERACTION
 49: 0x0180 [0x2A] GET_REQ_LEVEL(level=3, entity_id=Answald (ID: 17727558/0x010E8046))
 50: 0x0186 [0x27] REQ_SET(priority=0x03, entity_id=Answald (ID: 17727558/0x010E8046), tag_num=0x03)
 51: 0x018D [0x1C] WAIT(120* ticks)
 52: 0x0190 [0x52] END_LOAD_SCHEDULER: End scheduler "w001" with entities [LocalPlayer, LocalPlayer], work=81*
 53: 0x019F [0x45] LOAD_SCHEDULED_TASK: Load scheduler "ovl1" with entities [LocalPlayer, LocalPlayer], work=[200*, 0*]
 54: 0x01B0 [0x45] LOAD_SCHEDULED_TASK: Load scheduler "w002" with entities [LocalPlayer, LocalPlayer], work=[81*, 0*]
 55: 0x01C1 [0x4A] Shikaree X (ID: 17727601/0x010E8071) looks at Ulmia (ID: 17727600/0x010E8070)
 56: 0x01CA [0x79] Altiret (ID: 17727496/0x010E8008) looks at Eaugouint (ID: 17727547/0x010E803B) (Basic look)
 57: 0x01D4 [0x1C] WAIT(10* ticks)
 58: 0x01D7 [0x2B] Altiret (ID: 17727496/0x010E8008) [8198*]:
    → "I dare you to go down there and ask her name. You think you could handle that?"
 59: 0x01DE [0x23] WAIT_FOR_DIALOG_INTERACTION
 60: 0x01DF [0x2B] Eaugouint (ID: 17727547/0x010E803B) [8199*]:
    → "You've got to be joking! We're still on duty! Though I do get off in three hours..."
 61: 0x01E6 [0x23] WAIT_FOR_DIALOG_INTERACTION
 62: 0x01E7 [0x79] Altiret (ID: 17727496/0x010E8008) looks at Ulmia (ID: 17727600/0x010E8070) (Basic look)
 63: 0x01F1 [0x1C] WAIT(110* ticks)
 64: 0x01F4 [0x4E] SET_ENTITY_HIDE_FLAG: Show Shikaree X (ID: 17727601/0x010E8071)
 65: 0x01FA [0x27] REQ_SET(priority=0x03, entity_id=Shikaree X (ID: 17727601/0x010E8071), tag_num=0x02)
 66: 0x0201 [0x1C] WAIT(10* ticks)
 67: 0x0204 [0x52] END_LOAD_SCHEDULER: End scheduler "w002" with entities [LocalPlayer, LocalPlayer], work=81*
 68: 0x0213 [0x45] LOAD_SCHEDULED_TASK: Load scheduler "w00a" with entities [LocalPlayer, LocalPlayer], work=[81*, 0*]
 69: 0x0224 [0x55] WAIT_LOAD_SCHEDULER: Wait for scheduler "w00a" with entities [LocalPlayer, LocalPlayer], work=81*
 70: 0x0233 [0x2A] GET_REQ_LEVEL(level=3, entity_id=Shikaree X (ID: 17727601/0x010E8071))
 71: 0x0239 [0x1C] WAIT(60* ticks)
 72: 0x023C [0x45] LOAD_SCHEDULED_TASK: Load scheduler "w003" with entities [LocalPlayer, LocalPlayer], work=[81*, 0*]
 73: 0x024D [0x4E] SET_ENTITY_HIDE_FLAG: Hide Shikaree X (ID: 17727601/0x010E8071)
 74: 0x0253 [0x4E] SET_ENTITY_HIDE_FLAG: Hide Altiret (ID: 17727496/0x010E8008)
 75: 0x0259 [0x4E] SET_ENTITY_HIDE_FLAG: Hide Eaugouint (ID: 17727547/0x010E803B)
 76: 0x025F [0x55] WAIT_LOAD_SCHEDULER: Wait for scheduler "w003" with entities [LocalPlayer, LocalPlayer], work=81*
 77: 0x026E [0x5D] SET_MUSIC_VOLUME(volume=0*, fade_time=120*)
 78: 0x0273 [0x27] REQ_SET(priority=0x04, entity_id=Ulmia (ID: 17727600/0x010E8070), tag_num=0x0E)
 79: 0x027A [0x1C] WAIT(120* ticks)
 80: 0x027D [0x5C] MUSIC_CONTROL: Set Idle (Day) music to song 124*
 81: 0x0281 [0x5C] MUSIC_CONTROL: Set Idle (Night) music to song 124*
 82: 0x0285 [0x2B] Felippe (ID: 17727562/0x010E804A) [8200*]:
    → "A fine tune it is. Never heard it before, but it somehow sounds familiar..."
 83: 0x028C [0x23] WAIT_FOR_DIALOG_INTERACTION
 84: 0x028D [0x27] REQ_SET(priority=0x03, entity_id=Felippe (ID: 17727562/0x010E804A), tag_num=0x03)
 85: 0x0294 [0x1C] WAIT(120* ticks)
 86: 0x0297 [0x45] LOAD_SCHEDULED_TASK: Load scheduler "w004" with entities [LocalPlayer, LocalPlayer], work=[81*, 0*]
 87: 0x02A8 [0x4E] SET_ENTITY_HIDE_FLAG: Hide Felippe (ID: 17727562/0x010E804A)
 88: 0x02AE [0x55] WAIT_LOAD_SCHEDULER: Wait for scheduler "w004" with entities [LocalPlayer, LocalPlayer], work=81*
 89: 0x02BD [0x27] REQ_SET(priority=0x03, entity_id=Bellue (ID: 17727567/0x010E804F), tag_num=0x05)
 90: 0x02C4 [0x2B] Bellue (ID: 17727567/0x010E804F) [8201*]:
    → "I never thought I'd live to hear that melody again. Brings back memories, it does..."
 91: 0x02CB [0x1C] WAIT(60* ticks)
 92: 0x02CE [0x27] REQ_SET(priority=0x03, entity_id=Miene (ID: 17727495/0x010E8007), tag_num=0x03)
 93: 0x02D5 [0x23] WAIT_FOR_DIALOG_INTERACTION
 94: 0x02D6 [0x29] REQ_SET_WAIT(priority=0x03, entity_id=Bellue (ID: 17727567/0x010E804F), tag_num=0x06)
 95: 0x02DD [0x27] REQ_SET(priority=0x03, entity_id=Bellue (ID: 17727567/0x010E804F), tag_num=0x03)
 96: 0x02E4 [0x1C] WAIT(150* ticks)
 97: 0x02E7 [0x4E] SET_ENTITY_HIDE_FLAG: Show Bonarpant (ID: 17727568/0x010E8050)
 98: 0x02ED [0x4E] SET_ENTITY_HIDE_FLAG: Show Prietta (ID: 17727569/0x010E8051)
 99: 0x02F3 [0x27] REQ_SET(priority=0x03, entity_id=Bonarpant (ID: 17727568/0x010E8050), tag_num=0x03)
100: 0x02FA [0x27] REQ_SET(priority=0x03, entity_id=Prietta (ID: 17727569/0x010E8051), tag_num=0x03)
101: 0x0301 [0x1C] WAIT(10* ticks)
102: 0x0304 [0x45] LOAD_SCHEDULED_TASK: Load scheduler "w006" with entities [LocalPlayer, LocalPlayer], work=[81*, 0*]
103: 0x0315 [0x4E] SET_ENTITY_HIDE_FLAG: Hide Bellue (ID: 17727567/0x010E804F)
104: 0x031B [0x4E] SET_ENTITY_HIDE_FLAG: Hide Miene (ID: 17727495/0x010E8007)
105: 0x0321 [0x6B] STOP_AND_IDLE: Ulmia (ID: 17727600/0x010E8070) stops current action and resets to idle (animation="idl0")
106: 0x032A [0x1C] WAIT(60* ticks)
107: 0x032D [0x52] END_LOAD_SCHEDULER: End scheduler "w006" with entities [LocalPlayer, LocalPlayer], work=81*
108: 0x033C [0x45] LOAD_SCHEDULED_TASK: Load scheduler "w005" with entities [LocalPlayer, LocalPlayer], work=[81*, 0*]
109: 0x034D [0x55] WAIT_LOAD_SCHEDULER: Wait for scheduler "w005" with entities [LocalPlayer, LocalPlayer], work=81*
110: 0x035C [0x2A] GET_REQ_LEVEL(level=3, entity_id=Bonarpant (ID: 17727568/0x010E8050))
111: 0x0362 [0x2A] GET_REQ_LEVEL(level=3, entity_id=Prietta (ID: 17727569/0x010E8051))
112: 0x0368 [0x4A] Ulmia (ID: 17727600/0x010E8070) looks at Prietta (ID: 17727569/0x010E8051)
113: 0x0371 [0x6F] WAIT_FRAME_DELAY: Yield until WaitTime reaches zero
114: 0x0372 [0x76] CHECK_ENTITY_RENDER_FLAGS: Wait until Ulmia (ID: 17727600/0x010E8070) Render.Flags0 and Render.Flags3 conditions are met
115: 0x0377 [0x2B] Bonarpant (ID: 17727568/0x010E8050) [8202*]:
    → "You still haven't found the girl you're looking for?"
116: 0x037E [0x23] WAIT_FOR_DIALOG_INTERACTION
117: 0x037F [0x27] REQ_SET(priority=0x03, entity_id=Ulmia (ID: 17727600/0x010E8070), tag_num=0x07)
118: 0x0386 [0x1C] WAIT(10* ticks)
119: 0x0389 [0x2B] Ulmia (ID: 17727600/0x010E8070) [8203*]:
    → "No, I have not..."
120: 0x0390 [0x23] WAIT_FOR_DIALOG_INTERACTION
121: 0x0391 [0x27] REQ_SET(priority=0x03, entity_id=Prietta (ID: 17727569/0x010E8051), tag_num=0x06)
122: 0x0398 [0x2B] Prietta (ID: 17727569/0x010E8051) [8204*]:
    → "Don't worry. She'll turn up, I guarantee it. You'd have to be crazy not to be drawn by the sweet melody of Ulmia's harp."
123: 0x039F [0x23] WAIT_FOR_DIALOG_INTERACTION
124: 0x03A0 [0x29] REQ_SET_WAIT(priority=0x03, entity_id=Prietta (ID: 17727569/0x010E8051), tag_num=0x07)
125: 0x03A7 [0x7B] Prietta (ID: 17727569/0x010E8051) stops talking
126: 0x03AC [0x27] REQ_SET(priority=0x03, entity_id=Prietta (ID: 17727569/0x010E8051), tag_num=0x04)
127: 0x03B3 [0x1C] WAIT(15* ticks)
128: 0x03B6 [0x7B] Bonarpant (ID: 17727568/0x010E8050) stops talking
129: 0x03BB [0x27] REQ_SET(priority=0x03, entity_id=Bonarpant (ID: 17727568/0x010E8050), tag_num=0x04)
130: 0x03C2 [0x1C] WAIT(120* ticks)
131: 0x03C5 [0x29] REQ_SET_WAIT(priority=0x03, entity_id=Ulmia (ID: 17727600/0x010E8070), tag_num=0x08)
132: 0x03CC [0x27] REQ_SET(priority=0x03, entity_id=Ulmia (ID: 17727600/0x010E8070), tag_num=0x02)
133: 0x03D3 [0x1C] WAIT(10* ticks)
134: 0x03D6 [0x45] LOAD_SCHEDULED_TASK: Load scheduler "y000" with entities [LocalPlayer, LocalPlayer], work=[81*, 0*]
135: 0x03E7 [0x4E] SET_ENTITY_HIDE_FLAG: Hide Bonarpant (ID: 17727568/0x010E8050)
136: 0x03ED [0x4E] SET_ENTITY_HIDE_FLAG: Hide Prietta (ID: 17727569/0x010E8051)
137: 0x03F3 [0x55] WAIT_LOAD_SCHEDULER: Wait for scheduler "y000" with entities [LocalPlayer, LocalPlayer], work=81*
138: 0x0402 [0x2A] GET_REQ_LEVEL(level=3, entity_id=Ulmia (ID: 17727600/0x010E8070))
139: 0x0408 [0x1C] WAIT(60* ticks)
140: 0x040B [0x4E] SET_ENTITY_HIDE_FLAG: Show Shikaree X (ID: 17727601/0x010E8071)
141: 0x0411 [0x5D] SET_MUSIC_VOLUME(volume=0*, fade_time=120*)
142: 0x0416 [0x29] REQ_SET_WAIT(priority=0x03, entity_id=Shikaree X (ID: 17727601/0x010E8071), tag_num=0x03)
143: 0x041D [0x2B] Shikaree X (ID: 17727601/0x010E8071) [8205*]:
    → "Hey, music-lady, you wouldn't happen to be looking for somebody, would you?"
144: 0x0424 [0x23] WAIT_FOR_DIALOG_INTERACTION
145: 0x0425 [0x4A] Ulmia (ID: 17727600/0x010E8070) looks at Shikaree X (ID: 17727601/0x010E8071)
146: 0x042E [0x1C] WAIT(15* ticks)
147: 0x0431 [0x45] LOAD_SCHEDULED_TASK: Load scheduler "y001" with entities [LocalPlayer, LocalPlayer], work=[81*, 0*]
148: 0x0442 [0x2B] Ulmia (ID: 17727600/0x010E8070) [8206*]:
    → "Ah...y-yes I am!"
149: 0x0449 [0x23] WAIT_FOR_DIALOG_INTERACTION
150: 0x044A [0x55] WAIT_LOAD_SCHEDULER: Wait for scheduler "y001" with entities [LocalPlayer, LocalPlayer], work=81*
151: 0x0459 [0x2B] Ulmia (ID: 17727600/0x010E8070) [8207*]:
    → "I am searching for a young girl. Her hair is light blue, and she is dressed in the theologian gowns of the Tavnazian Cathedral."
152: 0x0460 [0x23] WAIT_FOR_DIALOG_INTERACTION
153: 0x0461 [0x45] LOAD_SCHEDULED_TASK: Load scheduler "y002" with entities [LocalPlayer, LocalPlayer], work=[81*, 0*]
154: 0x0472 [0x55] WAIT_LOAD_SCHEDULER: Wait for scheduler "y002" with entities [LocalPlayer, LocalPlayer], work=81*
155: 0x0481 [0x5C] MUSIC_CONTROL: Set Idle (Day) music to song 231*
156: 0x0485 [0x5C] MUSIC_CONTROL: Set Idle (Night) music to song 231*
157: 0x0489 [0x27] REQ_SET(priority=0x03, entity_id=Shikaree X (ID: 17727601/0x010E8071), tag_num=0x06)
158: 0x0490 [0x2B] Shikaree X (ID: 17727601/0x010E8071) [8208*]:
    → "Hmmm... Blue hairrr... Theologian gowns..."
159: 0x0497 [0x23] WAIT_FOR_DIALOG_INTERACTION
160: 0x0498 [0x2B] Shikaree X (ID: 17727601/0x010E8071) [8209*]:
    → "Sounds a lot like the girl that the guys up in Jeuno are looking for."
161: 0x049F [0x23] WAIT_FOR_DIALOG_INTERACTION
162: 0x04A0 [0x29] REQ_SET_WAIT(priority=0x03, entity_id=Shikaree X (ID: 17727601/0x010E8071), tag_num=0x07)
163: 0x04A7 [0x28] REQ_SET_WITH_CONDITIONS(priority=0x03, target_entity=Ulmia (ID: 17727600/0x010E8070), tag_num=0x09)
164: 0x04AE [0x1C] WAIT(10* ticks)
165: 0x04B1 [0x45] LOAD_SCHEDULED_TASK: Load scheduler "y003" with entities [LocalPlayer, LocalPlayer], work=[81*, 0*]
166: 0x04C2 [0x2B] Ulmia (ID: 17727600/0x010E8070) [8210*]:
    → "! Um..."
167: 0x04C9 [0x23] WAIT_FOR_DIALOG_INTERACTION
168: 0x04CA [0x55] WAIT_LOAD_SCHEDULER: Wait for scheduler "y003" with entities [LocalPlayer, LocalPlayer], work=81*
169: 0x04D9 [0x2B] Ulmia (ID: 17727600/0x010E8070) [8211*]:
    → "Kind traveler, do you know anything of the girl that the Duchy seeks?"
170: 0x04E0 [0x23] WAIT_FOR_DIALOG_INTERACTION
171: 0x04E1 [0x45] LOAD_SCHEDULED_TASK: Load scheduler "y004" with entities [LocalPlayer, LocalPlayer], work=[81*, 0*]
172: 0x04F2 [0x1C] WAIT(60* ticks)
173: 0x04F5 [0x27] REQ_SET(priority=0x03, entity_id=Shikaree X (ID: 17727601/0x010E8071), tag_num=0x06)
174: 0x04FC [0x2B] Shikaree X (ID: 17727601/0x010E8071) [8212*]:
    → "Yeah, well, it just happens to be that I'm looking for the same girl."
175: 0x0503 [0x23] WAIT_FOR_DIALOG_INTERACTION
176: 0x0504 [0x55] WAIT_LOAD_SCHEDULER: Wait for scheduler "y004" with entities [LocalPlayer, LocalPlayer], work=81*
177: 0x0513 [0x2B] Shikaree X (ID: 17727601/0x010E8071) [8213*]:
    → "Now whether that girl is the same girl you'rrre looking for...I don't know."
178: 0x051A [0x23] WAIT_FOR_DIALOG_INTERACTION
179: 0x051B [0x27] REQ_SET(priority=0x03, entity_id=Shikaree X (ID: 17727601/0x010E8071), tag_num=0x07)
180: 0x0522 [0x45] LOAD_SCHEDULED_TASK: Load scheduler "ovl1" with entities [LocalPlayer, LocalPlayer], work=[200*, 0*]
181: 0x0533 [0x45] LOAD_SCHEDULED_TASK: Load scheduler "y006" with entities [LocalPlayer, LocalPlayer], work=[81*, 0*]
182: 0x0544 [0x7C] Ulmia (ID: 17727600/0x010E8070)->Render.Flags2 |= 0x00
183: 0x054A [0x2B] Ulmia (ID: 17727600/0x010E8070) [8214*]:
    → "..."
184: 0x0551 [0x23] WAIT_FOR_DIALOG_INTERACTION
185: 0x0552 [0x7C] Ulmia (ID: 17727600/0x010E8070)->Render.Flags2 |= 0x01
186: 0x0558 [0x55] WAIT_LOAD_SCHEDULER: Wait for scheduler "y006" with entities [LocalPlayer, LocalPlayer], work=81*
187: 0x0567 [0x2B] Ulmia (ID: 17727600/0x010E8070) [8215*]:
    → "I do not mean to pry, but has Jeuno hired you to find the girl they are searching for?"
188: 0x056E [0x23] WAIT_FOR_DIALOG_INTERACTION
189: 0x056F [0x45] LOAD_SCHEDULED_TASK: Load scheduler "y005" with entities [LocalPlayer, LocalPlayer], work=[81*, 0*]
190: 0x0580 [0x45] LOAD_SCHEDULED_TASK: Load scheduler "bash" with entities [LocalPlayer, LocalPlayer], work=[108*, 0*]
191: 0x0591 [0x45] LOAD_SCHEDULED_TASK: Load scheduler "blon" with entities [Shikaree X (ID: 17727601/0x010E8071), Shikaree X (ID: 17727601/0x010E8071)], work=[200*, 0*]
192: 0x05A2 [0x55] WAIT_LOAD_SCHEDULER: Wait for scheduler "y005" with entities [LocalPlayer, LocalPlayer], work=81*
193: 0x05B1 [0x1C] WAIT(10* ticks)
194: 0x05B4 [0x45] LOAD_SCHEDULED_TASK: Load scheduler "blof" with entities [Shikaree X (ID: 17727601/0x010E8071), Shikaree X (ID: 17727601/0x010E8071)], work=[200*, 0*]
195: 0x05C5 [0x81] SET_ENTITY_BLINKING(blink_flag=0x00, entity=Shikaree X (ID: 17727601/0x010E8071))
196: 0x05CB [0x2B] Shikaree X (ID: 17727601/0x010E8071) [8216*]:
    → "Does it look like I work for the Duchy? If that's what you want to believe, go rrright ahead. You Elvaan are all the same--only seeing what you want to see."
197: 0x05D2 [0x23] WAIT_FOR_DIALOG_INTERACTION
198: 0x05D3 [0x81] SET_ENTITY_BLINKING(blink_flag=0x01, entity=Shikaree X (ID: 17727601/0x010E8071))
199: 0x05D9 [0x45] LOAD_SCHEDULED_TASK: Load scheduler "y007" with entities [LocalPlayer, LocalPlayer], work=[81*, 0*]
200: 0x05EA [0x55] WAIT_LOAD_SCHEDULER: Wait for scheduler "y007" with entities [LocalPlayer, LocalPlayer], work=81*
201: 0x05F9 [0x27] REQ_SET(priority=0x03, entity_id=Ulmia (ID: 17727600/0x010E8070), tag_num=0x0A)
202: 0x0600 [0x7C] Ulmia (ID: 17727600/0x010E8070)->Render.Flags2 |= 0x00
203: 0x0606 [0x2B] Ulmia (ID: 17727600/0x010E8070) [8217*]:
    → "..."
204: 0x060D [0x23] WAIT_FOR_DIALOG_INTERACTION
205: 0x060E [0x7C] Ulmia (ID: 17727600/0x010E8070)->Render.Flags2 |= 0x01
206: 0x0614 [0x2A] GET_REQ_LEVEL(level=3, entity_id=Ulmia (ID: 17727600/0x010E8070))
207: 0x061A [0x45] LOAD_SCHEDULED_TASK: Load scheduler "y008" with entities [LocalPlayer, LocalPlayer], work=[81*, 0*]
208: 0x062B [0x27] REQ_SET(priority=0x03, entity_id=Shikaree X (ID: 17727601/0x010E8071), tag_num=0x08)
209: 0x0632 [0x2B] Shikaree X (ID: 17727601/0x010E8071) [8218*]:
    → "Hey, did you know that along with the girl's, there's another warrant out for the capture of some strrrange boy?"
210: 0x0639 [0x23] WAIT_FOR_DIALOG_INTERACTION
211: 0x063A [0x2B] Shikaree X (ID: 17727601/0x010E8071) [8219*]:
    → "How much do you want to bet that those two are togetherrr?"
212: 0x0641 [0x23] WAIT_FOR_DIALOG_INTERACTION
213: 0x0642 [0x52] END_LOAD_SCHEDULER: End scheduler "y008" with entities [LocalPlayer, LocalPlayer], work=81*
214: 0x0651 [0x45] LOAD_SCHEDULED_TASK: Load scheduler "y009" with entities [LocalPlayer, LocalPlayer], work=[81*, 0*]
215: 0x0662 [0x27] REQ_SET(priority=0x03, entity_id=Ulmia (ID: 17727600/0x010E8070), tag_num=0x0B)
216: 0x0669 [0x2B] Ulmia (ID: 17727600/0x010E8070) [8220*]:
    → "I do not know... But if the girl you and I are searching for is the same person, I can tell you this: she is not one to run."
217: 0x0670 [0x23] WAIT_FOR_DIALOG_INTERACTION
218: 0x0671 [0x29] REQ_SET_WAIT(priority=0x03, entity_id=Ulmia (ID: 17727600/0x010E8070), tag_num=0x0C)
219: 0x0678 [0x55] WAIT_LOAD_SCHEDULER: Wait for scheduler "y009" with entities [LocalPlayer, LocalPlayer], work=81*
220: 0x0687 [0x2B] Shikaree X (ID: 17727601/0x010E8071) [8221*]:
    → "Huh... Catching mice is what we Mithra live for, but it's turning out to look like this job is going to be a little differrrent."
221: 0x068E [0x23] WAIT_FOR_DIALOG_INTERACTION
222: 0x068F [0x27] REQ_SET(priority=0x03, entity_id=Shikaree X (ID: 17727601/0x010E8071), tag_num=0x09)
223: 0x0696 [0x2B] Shikaree X (ID: 17727601/0x010E8071) [8222*]:
    → "Oh well, I don't have time to play two games of cat and mouse, so I guess I'll just concentrrrate on the boy."
224: 0x069D [0x23] WAIT_FOR_DIALOG_INTERACTION
225: 0x069E [0x2A] GET_REQ_LEVEL(level=3, entity_id=Shikaree X (ID: 17727601/0x010E8071))
226: 0x06A4 [0x27] REQ_SET(priority=0x03, entity_id=Shikaree X (ID: 17727601/0x010E8071), tag_num=0x04)
227: 0x06AB [0x1C] WAIT(50* ticks)
228: 0x06AE [0x27] REQ_SET(priority=0x03, entity_id=Ulmia (ID: 17727600/0x010E8070), tag_num=0x03)
229: 0x06B5 [0x1C] WAIT(40* ticks)
230: 0x06B8 [0x45] LOAD_SCHEDULED_TASK: Load scheduler "y010" with entities [LocalPlayer, LocalPlayer], work=[81*, 0*]
231: 0x06C9 [0x2B] Ulmia (ID: 17727600/0x010E8070) [8223*]:
    → "Wait! What... What do you know of the boy?"
232: 0x06D0 [0x23] WAIT_FOR_DIALOG_INTERACTION
233: 0x06D1 [0x55] WAIT_LOAD_SCHEDULER: Wait for scheduler "y010" with entities [LocalPlayer, LocalPlayer], work=81*
234: 0x06E0 [0x2A] GET_REQ_LEVEL(level=3, entity_id=Ulmia (ID: 17727600/0x010E8070))
235: 0x06E6 [0x2A] GET_REQ_LEVEL(level=3, entity_id=Shikaree X (ID: 17727601/0x010E8071))
236: 0x06EC [0x4B] UPDATE_ENTITY_YAW(entity=Shikaree X (ID: 17727601/0x010E8071), yaw=21.2°*)
237: 0x06F3 [0x79] Shikaree X (ID: 17727601/0x010E8071) looks at Ulmia (ID: 17727600/0x010E8070) (Basic look)
238: 0x06FD [0x1C] WAIT(10* ticks)
239: 0x0700 [0x45] LOAD_SCHEDULED_TASK: Load scheduler "bash" with entities [LocalPlayer, LocalPlayer], work=[108*, 0*]
240: 0x0711 [0x45] LOAD_SCHEDULED_TASK: Load scheduler "y011" with entities [LocalPlayer, LocalPlayer], work=[81*, 0*]
241: 0x0722 [0x81] SET_ENTITY_BLINKING(blink_flag=0x00, entity=Shikaree X (ID: 17727601/0x010E8071))
242: 0x0728 [0x1C] WAIT(60* ticks)
243: 0x072B [0x2B] Shikaree X (ID: 17727601/0x010E8071) [8224*]:
    → "Hah hah... Music-lady, you should be careful about what you ask. The answerrr might just bite you back."
244: 0x0732 [0x23] WAIT_FOR_DIALOG_INTERACTION
245: 0x0733 [0x55] WAIT_LOAD_SCHEDULER: Wait for scheduler "y011" with entities [LocalPlayer, LocalPlayer], work=81*
246: 0x0742 [0x45] LOAD_SCHEDULED_TASK: Load scheduler "y012" with entities [LocalPlayer, LocalPlayer], work=[81*, 0*]
247: 0x0753 [0x55] WAIT_LOAD_SCHEDULER: Wait for scheduler "y012" with entities [LocalPlayer, LocalPlayer], work=81*
248: 0x0762 [0x81] SET_ENTITY_BLINKING(blink_flag=0x01, entity=Shikaree X (ID: 17727601/0x010E8071))
249: 0x0768 [0x1C] WAIT(60* ticks)
250: 0x076B [0x7C] Ulmia (ID: 17727600/0x010E8070)->Render.Flags2 |= 0x00
251: 0x0771 [0x2B] Ulmia (ID: 17727600/0x010E8070) [8225*]:
    → "..."
252: 0x0778 [0x23] WAIT_FOR_DIALOG_INTERACTION
253: 0x0779 [0x7C] Ulmia (ID: 17727600/0x010E8070)->Render.Flags2 |= 0x01
254: 0x077F [0x4B] UPDATE_ENTITY_YAW(entity=Shikaree X (ID: 17727601/0x010E8071), yaw=15.6°*)
255: 0x0786 [0x6F] WAIT_FRAME_DELAY: Yield until WaitTime reaches zero
256: 0x0787 [0x76] CHECK_ENTITY_RENDER_FLAGS: Wait until Shikaree X (ID: 17727601/0x010E8071) Render.Flags0 and Render.Flags3 conditions are met
257: 0x078C [0x2B] Shikaree X (ID: 17727601/0x010E8071) [8226*]:
    → "If the girl you are looking for is the same one I'm seeking, then we'll meet again."
258: 0x0793 [0x23] WAIT_FOR_DIALOG_INTERACTION
259: 0x0794 [0x6F] WAIT_FRAME_DELAY: Yield until WaitTime reaches zero
260: 0x0795 [0x76] CHECK_ENTITY_RENDER_FLAGS: Wait until Shikaree X (ID: 17727601/0x010E8071) Render.Flags0 and Render.Flags3 conditions are met
261: 0x079A [0x45] LOAD_SCHEDULED_TASK: Load scheduler "ovl1" with entities [LocalPlayer, LocalPlayer], work=[200*, 0*]
262: 0x07AB [0x45] LOAD_SCHEDULED_TASK: Load scheduler "y014" with entities [LocalPlayer, LocalPlayer], work=[81*, 0*]
263: 0x07BC [0x55] WAIT_LOAD_SCHEDULER: Wait for scheduler "y014" with entities [LocalPlayer, LocalPlayer], work=81*
264: 0x07CB [0x1C] WAIT(20* ticks)
265: 0x07CE [0x2B] Shikaree X (ID: 17727601/0x010E8071) [8227*]:
    → "If you still want to know the answerrr to your question, then I guess it wouldn't hurt to tell you. Until next time..."
266: 0x07D5 [0x23] WAIT_FOR_DIALOG_INTERACTION
267: 0x07D6 [0x27] REQ_SET(priority=0x03, entity_id=Shikaree X (ID: 17727601/0x010E8071), tag_num=0x05)
268: 0x07DD [0x1C] WAIT(90* ticks)
269: 0x07E0 [0x45] LOAD_SCHEDULED_TASK: Load scheduler "y013" with entities [LocalPlayer, LocalPlayer], work=[81*, 0*]
270: 0x07F1 [0x55] WAIT_LOAD_SCHEDULER: Wait for scheduler "y013" with entities [LocalPlayer, LocalPlayer], work=81*
271: 0x0800 [0x37] UPDATE_EVENT_POSITION_AND_DIR: x=-39.498*, z=-33.130*, y=-3.999*, direction=289.6°*
272: 0x0809 [0x03] ExtData[1]->WorkLocal[7] = 4294964296*
273: 0x080E [0x1A] CALL_SUBROUTINE(address=0x0B87)
274: 0x0811 [0x37] UPDATE_EVENT_POSITION_AND_DIR: x=ExtData[1]->WorkLocal[8], z=ExtData[1]->WorkLocal[9], y=ExtData[1]->WorkLocal[10], direction=ExtData[1]->WorkLocal[11]
275: 0x081A [0x1C] WAIT(1* ticks)
276: 0x081D [0x4E] SET_ENTITY_HIDE_FLAG: Show LocalPlayer
277: 0x0823 [0x79] LocalPlayer looks at Shikaree X (ID: 17727601/0x010E8071) (Basic look)
278: 0x082D [0x03] ExtData[1]->WorkLocal[7] = 3000*
279: 0x0832 [0x1A] CALL_SUBROUTINE(address=0x0B87)
280: 0x0835 [0x32] ExtData[1]->MainSpeed = 13* * 0.1
281: 0x0838 [0x1F] MOVE_ENTITY: EventEntity moves to X=ExtData[1]->WorkLocal[8], Z=ExtData[1]->WorkLocal[9], Y=ExtData[1]->WorkLocal[10]
282: 0x0840 [0x1F] MOVE_ENTITY: Update entity position (mode=1)
283: 0x0842 [0x1C] WAIT(30* ticks)
284: 0x0845 [0x4A] Ulmia (ID: 17727600/0x010E8070) looks at LocalPlayer
285: 0x084E [0x6F] WAIT_FRAME_DELAY: Yield until WaitTime reaches zero
286: 0x084F [0x76] CHECK_ENTITY_RENDER_FLAGS: Wait until Ulmia (ID: 17727600/0x010E8070) Render.Flags0 and Render.Flags3 conditions are met
287: 0x0854 [0x2B] Ulmia (ID: 17727600/0x010E8070) [8228*]:
    → "<Player>!"
288: 0x085B [0x27] REQ_SET(priority=0x03, entity_id=Ulmia (ID: 17727600/0x010E8070), tag_num=0x04)
289: 0x0862 [0x1C] WAIT(30* ticks)
290: 0x0865 [0x45] LOAD_SCHEDULED_TASK: Load scheduler "x000" with entities [LocalPlayer, LocalPlayer], work=[81*, 0*]
291: 0x0876 [0x55] WAIT_LOAD_SCHEDULER: Wait for scheduler "x000" with entities [LocalPlayer, LocalPlayer], work=81*
292: 0x0885 [0x2A] GET_REQ_LEVEL(level=3, entity_id=Ulmia (ID: 17727600/0x010E8070))
293: 0x088B [0x79] LocalPlayer looks at Ulmia (ID: 17727600/0x010E8070) (Basic look)
294: 0x0895 [0x23] WAIT_FOR_DIALOG_INTERACTION
295: 0x0896 [0x06] ExtData[1]->WorkLocal[6] = 0
296: 0x0899 [0x24] CREATE_DIALOG(message_id=8229*, default_option=0*, option_flags=0*)
    → "What do you wish to ask? [Are you all right?/Who was that?]"
297: 0x08A0 [0x25] WAIT_DIALOG_SELECT()
298: 0x08A1 [0x02] IF !(Work_Zone[0] == 0*) GOTO 0x08B1
299: 0x08A9 [0x03] ExtData[1]->WorkLocal[6] = 0*
300: 0x08AE [0x01] GOTO 0x08C1
301: 0x08B1 [0x02] IF !(Work_Zone[0] == 1*) GOTO 0x08C1
302: 0x08B9 [0x03] ExtData[1]->WorkLocal[6] = 1*
303: 0x08BE [0x01] GOTO 0x08C1

SUBROUTINE_08C1:
304: 0x08C1 [0x4B] UPDATE_ENTITY_YAW(entity=Ulmia (ID: 17727600/0x010E8070), yaw=12.4°*)
305: 0x08C8 [0x79] Ulmia (ID: 17727600/0x010E8070) looks at Shikaree X (ID: 17727601/0x010E8071) (Basic look)
306: 0x08D2 [0x6F] WAIT_FRAME_DELAY: Yield until WaitTime reaches zero
307: 0x08D3 [0x76] CHECK_ENTITY_RENDER_FLAGS: Wait until Ulmia (ID: 17727600/0x010E8070) Render.Flags0 and Render.Flags3 conditions are met
308: 0x08D8 [0x45] LOAD_SCHEDULED_TASK: Load scheduler "x001" with entities [LocalPlayer, LocalPlayer], work=[81*, 0*]
309: 0x08E9 [0x02] IF !(ExtData[1]->WorkLocal[6] == 0*) GOTO 0x08FC
310: 0x08F1 [0x2B] Ulmia (ID: 17727600/0x010E8070) [8230*]:
    → "I-I'm fine... I do not know who that Mithra was, but I have a feeling she is searching for Prishe."
311: 0x08F8 [0x23] WAIT_FOR_DIALOG_INTERACTION
312: 0x08F9 [0x01] GOTO 0x090F
313: 0x08FC [0x02] IF !(ExtData[1]->WorkLocal[6] == 1*) GOTO 0x090F
314: 0x0904 [0x2B] Ulmia (ID: 17727600/0x010E8070) [8231*]:
    → "I do not know who that Mithra was, but I have a feeling she is searching for Prishe."
315: 0x090B [0x23] WAIT_FOR_DIALOG_INTERACTION
316: 0x090C [0x01] GOTO 0x090F

SUBROUTINE_090F:
317: 0x090F [0x7B] Ulmia (ID: 17727600/0x010E8070) stops talking
318: 0x0914 [0x1C] WAIT(10* ticks)
319: 0x0917 [0x2B] Ulmia (ID: 17727600/0x010E8070) [8232*]:
    → "Those eyes... It was as if she were hunting prey..."
320: 0x091E [0x23] WAIT_FOR_DIALOG_INTERACTION
321: 0x091F [0x5D] SET_MUSIC_VOLUME(volume=0*, fade_time=120*)
322: 0x0924 [0x4A] Ulmia (ID: 17727600/0x010E8070) looks at LocalPlayer
323: 0x092D [0x1C] WAIT(10* ticks)
324: 0x0930 [0x52] END_LOAD_SCHEDULER: End scheduler "x001" with entities [LocalPlayer, LocalPlayer], work=81*
325: 0x093F [0x45] LOAD_SCHEDULED_TASK: Load scheduler "x002" with entities [LocalPlayer, LocalPlayer], work=[81*, 0*]
326: 0x0950 [0x6F] WAIT_FRAME_DELAY: Yield until WaitTime reaches zero
327: 0x0951 [0x76] CHECK_ENTITY_RENDER_FLAGS: Wait until Ulmia (ID: 17727600/0x010E8070) Render.Flags0 and Render.Flags3 conditions are met
328: 0x0956 [0x1C] WAIT(15* ticks)
329: 0x0959 [0x27] REQ_SET(priority=0x03, entity_id=Ulmia (ID: 17727600/0x010E8070), tag_num=0x07)
330: 0x0960 [0x2B] Ulmia (ID: 17727600/0x010E8070) [8233*]:
    → "<Player>! Is... Is Prishe all right? She is, is she not? Please, tell me she is..."
331: 0x0967 [0x23] WAIT_FOR_DIALOG_INTERACTION
332: 0x0968 [0x06] ExtData[1]->WorkLocal[6] = 0
333: 0x096B [0x24] CREATE_DIALOG(message_id=8234*, default_option=0*, option_flags=0*)
    → "Prishe is... [fine./in trouble.]"
334: 0x0972 [0x25] WAIT_DIALOG_SELECT()
335: 0x0973 [0x02] IF !(Work_Zone[0] == 0*) GOTO 0x0983
336: 0x097B [0x03] ExtData[1]->WorkLocal[6] = 0*
337: 0x0980 [0x01] GOTO 0x0993
338: 0x0983 [0x02] IF !(Work_Zone[0] == 1*) GOTO 0x0993
339: 0x098B [0x03] ExtData[1]->WorkLocal[6] = 1*
340: 0x0990 [0x01] GOTO 0x0993

SUBROUTINE_0993:
341: 0x0993 [0x1C] WAIT(45* ticks)
342: 0x0996 [0x52] END_LOAD_SCHEDULER: End scheduler "x002" with entities [LocalPlayer, LocalPlayer], work=81*
343: 0x09A5 [0x45] LOAD_SCHEDULED_TASK: Load scheduler "ovl1" with entities [Shikaree X (ID: 17727601/0x010E8071), Shikaree X (ID: 17727601/0x010E8071)], work=[200*, 0*]
344: 0x09B6 [0x45] LOAD_SCHEDULED_TASK: Load scheduler "x003" with entities [LocalPlayer, LocalPlayer], work=[81*, 0*]
345: 0x09C7 [0x1C] WAIT(60* ticks)
346: 0x09CA [0x27] REQ_SET(priority=0x03, entity_id=Ulmia (ID: 17727600/0x010E8070), tag_num=0x08)
347: 0x09D1 [0x02] IF !(ExtData[1]->WorkLocal[6] == 0*) GOTO 0x09E4
348: 0x09D9 [0x2B] Ulmia (ID: 17727600/0x010E8070) [8235*]:
    → "Oh, thank you, <Player>. It comforts me to hear you say that."
349: 0x09E0 [0x23] WAIT_FOR_DIALOG_INTERACTION
350: 0x09E1 [0x01] GOTO 0x09F7
351: 0x09E4 [0x02] IF !(ExtData[1]->WorkLocal[6] == 1*) GOTO 0x09F7
352: 0x09EC [0x2B] Ulmia (ID: 17727600/0x010E8070) [8236*]:
    → "So you feel the same as I, <Player>... However..."
353: 0x09F3 [0x23] WAIT_FOR_DIALOG_INTERACTION
354: 0x09F4 [0x01] GOTO 0x09F7

SUBROUTINE_09F7:
355: 0x09F7 [0x5C] MUSIC_CONTROL: Set Idle (Day) music to song 127*
356: 0x09FB [0x5C] MUSIC_CONTROL: Set Idle (Night) music to song 127*
357: 0x09FF [0x55] WAIT_LOAD_SCHEDULER: Wait for scheduler "x003" with entities [LocalPlayer, LocalPlayer], work=81*
358: 0x0A0E [0x2B] Ulmia (ID: 17727600/0x010E8070) [8237*]:
    → "As long as you are here by my side, I believe that everything will be fine..."
359: 0x0A15 [0x23] WAIT_FOR_DIALOG_INTERACTION
360: 0x0A16 [0x2A] GET_REQ_LEVEL(level=3, entity_id=Ulmia (ID: 17727600/0x010E8070))
361: 0x0A1C [0x1C] WAIT(30* ticks)
362: 0x0A1F [0x4B] UPDATE_ENTITY_YAW(entity=Ulmia (ID: 17727600/0x010E8070), yaw=0.0°*)
363: 0x0A26 [0x6F] WAIT_FRAME_DELAY: Yield until WaitTime reaches zero
364: 0x0A27 [0x76] CHECK_ENTITY_RENDER_FLAGS: Wait until Ulmia (ID: 17727600/0x010E8070) Render.Flags0 and Render.Flags3 conditions are met
365: 0x0A2C [0x2B] Ulmia (ID: 17727600/0x010E8070) [8238*]:
    → "I... Oh, I am sorry. I did not mean..."
366: 0x0A33 [0x23] WAIT_FOR_DIALOG_INTERACTION
367: 0x0A34 [0x27] REQ_SET(priority=0x03, entity_id=Ulmia (ID: 17727600/0x010E8070), tag_num=0x05)
368: 0x0A3B [0x1C] WAIT(60* ticks)
369: 0x0A3E [0x45] LOAD_SCHEDULED_TASK: Load scheduler "x004" with entities [LocalPlayer, LocalPlayer], work=[81*, 0*]
370: 0x0A4F [0x2A] GET_REQ_LEVEL(level=3, entity_id=Ulmia (ID: 17727600/0x010E8070))
371: 0x0A55 [0x4A] LocalPlayer looks at Ulmia (ID: 17727600/0x010E8070)
372: 0x0A5E [0x1C] WAIT(90* ticks)
373: 0x0A61 [0x2B] Ulmia (ID: 17727600/0x010E8070) [8239*]:
    → "Lady Hinaree has introduced me to many people she believed may know something of Prishe, but I have uncovered nothing..."
374: 0x0A68 [0x23] WAIT_FOR_DIALOG_INTERACTION
375: 0x0A69 [0x55] WAIT_LOAD_SCHEDULER: Wait for scheduler "x004" with entities [LocalPlayer, LocalPlayer], work=81*
376: 0x0A78 [0x2B] Ulmia (ID: 17727600/0x010E8070) [8240*]:
    → "I am so worried... If anything were to happen to her..."
377: 0x0A7F [0x23] WAIT_FOR_DIALOG_INTERACTION
378: 0x0A80 [0x1C] WAIT(30* ticks)
379: 0x0A83 [0x45] LOAD_SCHEDULED_TASK: Load scheduler "ovl1" with entities [LocalPlayer, LocalPlayer], work=[200*, 0*]
380: 0x0A94 [0x45] LOAD_SCHEDULED_TASK: Load scheduler "x005" with entities [LocalPlayer, LocalPlayer], work=[81*, 0*]
381: 0x0AA5 [0x1C] WAIT(100* ticks)
382: 0x0AA8 [0x4A] Ulmia (ID: 17727600/0x010E8070) looks at LocalPlayer
383: 0x0AB1 [0x6F] WAIT_FRAME_DELAY: Yield until WaitTime reaches zero
384: 0x0AB2 [0x76] CHECK_ENTITY_RENDER_FLAGS: Wait until Ulmia (ID: 17727600/0x010E8070) Render.Flags0 and Render.Flags3 conditions are met
385: 0x0AB7 [0x2B] Ulmia (ID: 17727600/0x010E8070) [8241*]:
    → "What? You have a message from Lady Hinaree?"
386: 0x0ABE [0x23] WAIT_FOR_DIALOG_INTERACTION
387: 0x0ABF [0x55] WAIT_LOAD_SCHEDULER: Wait for scheduler "x005" with entities [LocalPlayer, LocalPlayer], work=81*
388: 0x0ACE [0x2B] Ulmia (ID: 17727600/0x010E8070) [8242*]:
    → "I am to meet with High Priest Chasalvige in the cathedral?"
389: 0x0AD5 [0x23] WAIT_FOR_DIALOG_INTERACTION
390: 0x0AD6 [0x45] LOAD_SCHEDULED_TASK: Load scheduler "x006" with entities [LocalPlayer, LocalPlayer], work=[81*, 0*]
391: 0x0AE7 [0x29] REQ_SET_WAIT(priority=0x03, entity_id=Ulmia (ID: 17727600/0x010E8070), tag_num=0x04)
392: 0x0AEE [0x2B] Ulmia (ID: 17727600/0x010E8070) [8243*]:
    → "Thank you very much, <Player>!"
393: 0x0AF5 [0x23] WAIT_FOR_DIALOG_INTERACTION
394: 0x0AF6 [0x4B] UPDATE_ENTITY_YAW(entity=Ulmia (ID: 17727600/0x010E8070), yaw=7.1°*)
395: 0x0AFD [0x2B] Ulmia (ID: 17727600/0x010E8070) [8244*]:
    → "I will make for Northern San d'Oria right away!"
396: 0x0B04 [0x23] WAIT_FOR_DIALOG_INTERACTION
397: 0x0B05 [0x6F] WAIT_FRAME_DELAY: Yield until WaitTime reaches zero
398: 0x0B06 [0x76] CHECK_ENTITY_RENDER_FLAGS: Wait until Ulmia (ID: 17727600/0x010E8070) Render.Flags0 and Render.Flags3 conditions are met
399: 0x0B0B [0x7B] Ulmia (ID: 17727600/0x010E8070) stops talking
400: 0x0B10 [0x27] REQ_SET(priority=0x03, entity_id=Ulmia (ID: 17727600/0x010E8070), tag_num=0x06)
401: 0x0B17 [0x1C] WAIT(30* ticks)
402: 0x0B1A [0x4A] LocalPlayer looks at Ulmia (ID: 17727600/0x010E8070)
403: 0x0B23 [0x1C] WAIT(90* ticks)
404: 0x0B26 [0x4A] LocalPlayer looks at Ulmia (ID: 17727600/0x010E8070)
405: 0x0B2F [0x1C] WAIT(30* ticks)
406: 0x0B32 [0x45] LOAD_SCHEDULED_TASK: Load scheduler "fdo2" with entities [LocalPlayer, LocalPlayer], work=[200*, 0*]
407: 0x0B43 [0x55] WAIT_LOAD_SCHEDULER: Wait for scheduler "fdo2" with entities [LocalPlayer, LocalPlayer], work=200*
408: 0x0B52 [0x78] ENABLE_GAME_TIMER_RESET_WEATHER()
409: 0x0B53 [0x52] END_LOAD_SCHEDULER: End scheduler "x006" with entities [LocalPlayer, LocalPlayer], work=81*
410: 0x0B62 [0x5D] SET_MUSIC_VOLUME(volume=0*, fade_time=300*)
411: 0x0B67 [0x1C] WAIT(300* ticks)
412: 0x0B6A [0x5C] MUSIC_CONTROL: Set Idle (Day) music to song 107*
413: 0x0B6E [0x5C] MUSIC_CONTROL: Set Idle (Night) music to song 107*
414: 0x0B72 [0x46] CAMERA_CONTROL: Restore default settings
415: 0x0B74 [0x45] LOAD_SCHEDULED_TASK: Load scheduler "fdi2" with entities [LocalPlayer, LocalPlayer], work=[200*, 0*]
416: 0x0B85 [0x21] END_EVENT
417: 0x0B86 [0x00] END_REQSTACK()

SUBROUTINE_0B87:
418: 0x0B87 [0x3B] GET_ENTITY_POSITION(entity=EventEntity, x_destination=ExtData[1]->WorkLocal[8], y_destination=ExtData[1]->WorkLocal[9], z_destination=ExtData[1]->WorkLocal[10])
419: 0x0B92 [0x3A] CONVERT_YAW_TO_BYTE(entity=EventEntity, result_destination=ExtData[1]->WorkLocal[11])
420: 0x0B99 [0x17] ExtData[1]->WorkLocal[12] = cos(ExtData[1]->WorkLocal[11]) * ExtData[1]->WorkLocal[7]
421: 0x0BA0 [0x16] ExtData[1]->WorkLocal[13] = sin(ExtData[1]->WorkLocal[11]) * ExtData[1]->WorkLocal[7]
422: 0x0BA7 [0x07] ExtData[1]->WorkLocal[8] += ExtData[1]->WorkLocal[12]
423: 0x0BAC [0x07] ExtData[1]->WorkLocal[9] += ExtData[1]->WorkLocal[13]
424: 0x0BB1 [0x1B] RETURN
```

#### Data or dead code:

```
# Dead code (unreachable instructions):
     0x0BB2 [0x17] ExtData[1]->WorkLocal[12] = cos(ExtData[1]->WorkLocal[11]) * ExtData[1]->WorkLocal[7]
     0x0BB9 [0x16] ExtData[1]->WorkLocal[13] = sin(ExtData[1]->WorkLocal[11]) * ExtData[1]->WorkLocal[7]
     0x0BC0 [0x07] ExtData[1]->WorkLocal[8] += ExtData[1]->WorkLocal[12]
     0x0BC5 [0x07] ExtData[1]->WorkLocal[9] += ExtData[1]->WorkLocal[13]
     0x0BCA [0x1B] RETURN
```

### Event 65535.2

#### Metadata

| Field        | Value   |
|--------------|---------|
| Entrypoint   | 0x0BCB  |
| Data Size    | 1 bytes |
| Instructions | 1       |

```
      00 01 02 03 04 05 06 07  08 09 0A 0B 0C 0D 0E 0F
      -- -- -- -- -- -- -- --  -- -- -- -- -- -- -- --
0BC0:                                   00                         .    
```

#### Opcodes

```
  0: 0x0BCB [0x00] END_REQSTACK()
```

### Event 500

#### Metadata

| Field        | Value      |
|--------------|------------|
| Entrypoint   | 0x0BCC     |
| Data Size    | 3595 bytes |
| Instructions | 435        |

```
      00 01 02 03 04 05 06 07  08 09 0A 0B 0C 0D 0E 0F
      -- -- -- -- -- -- -- --  -- -- -- -- -- -- -- --
0BC0:                                      22 01 42 46              ".BF
0BD0: 01 69 01 58 80 5C 00 57  80 5C 01 57 80 67 51 80  .i.X.\.W.\.W.gQ.
0BE0: 59 80 77 5A 80 08 80 1C  40 80 45 5B 80 F0 FF FF  Y.wZ....@.E[....
0BF0: 7F F0 FF FF 7F 73 30 30  36 02 80 45 04 80 F0 FF  .....s006..E....
0C00: FF 7F F0 FF FF 7F 66 64  69 31 02 80 55 04 80 F0  ......fdi1..U...
0C10: FF FF 7F F0 FF FF 7F 66  64 69 31 48 5C 80 23 45  .......fdi1H\.#E
0C20: 04 80 F0 FF FF 7F F0 FF  FF 7F 66 64 6F 31 02 80  ..........fdo1..
0C30: 55 5B 80 F0 FF FF 7F F0  FF FF 7F 73 30 30 36 27  U[.........s006'
0C40: 6B 0E 80 0E 01 0A 27 6C  0F 80 0E 01 04 55 04 80  k.....'l.....U..
0C50: F0 FF FF 7F F0 FF FF 7F  66 64 6F 31 1C 12 80 45  ........fdo1...E
0C60: 04 80 F0 FF FF 7F F0 FF  FF 7F 66 64 69 31 02 80  ..........fdi1..
0C70: 45 5B 80 F0 FF FF 7F F0  FF FF 7F 73 30 37 33 02  E[.........s073.
0C80: 80 48 5D 80 23 45 04 80  F0 FF FF 7F F0 FF FF 7F  .H].#E..........
0C90: 66 64 6F 31 02 80 55 5B  80 F0 FF FF 7F F0 FF FF  fdo1..U[........
0CA0: 7F 73 30 30 34 55 04 80  F0 FF FF 7F F0 FF FF 7F  .s004U..........
0CB0: 66 64 6F 31 1C 12 80 45  04 80 F0 FF FF 7F F0 FF  fdo1...E........
0CC0: FF 7F 66 64 69 31 02 80  45 5B 80 F0 FF FF 7F F0  ..fdi1..E[......
0CD0: FF FF 7F 73 30 30 33 02  80 48 5E 80 23 45 04 80  ...s003..H^.#E..
0CE0: F0 FF FF 7F F0 FF FF 7F  66 64 6F 31 02 80 55 5B  ........fdo1..U[
0CF0: 80 F0 FF FF 7F F0 FF FF  7F 73 30 30 33 55 04 80  .........s003U..
0D00: F0 FF FF 7F F0 FF FF 7F  66 64 6F 31 2F 00 2C 80  ........fdo1/.,.
0D10: 0E 01 2F 00 2D 80 0E 01  2F 00 2E 80 0E 01 2F 00  ../.-.../...../.
0D20: 2F 80 0E 01 2F 00 30 80  0E 01 2F 00 31 80 0E 01  /.../.0.../.1...
0D30: 2F 00 32 80 0E 01 2F 00  33 80 0E 01 4E 00 2C 80  /.2.../.3...N.,.
0D40: 0E 01 4E 00 2D 80 0E 01  4E 00 2E 80 0E 01 4E 00  ..N.-...N.....N.
0D50: 2F 80 0E 01 4E 00 30 80  0E 01 4E 00 31 80 0E 01  /...N.0...N.1...
0D60: 4E 00 32 80 0E 01 4E 00  33 80 0E 01 27 65 2C 80  N.2...N.3...'e,.
0D70: 0E 01 03 27 66 2D 80 0E  01 03 27 67 2E 80 0E 01  ...'f-....'g....
0D80: 03 27 68 2F 80 0E 01 03  27 69 30 80 0E 01 03 27  .'h/....'i0....'
0D90: 6A 31 80 0E 01 03 27 6B  32 80 0E 01 03 27 6C 33  j1....'k2....'l3
0DA0: 80 0E 01 03 1C 12 80 45  04 80 F0 FF FF 7F F0 FF  .......E........
0DB0: FF 7F 66 64 69 31 02 80  45 5B 80 F0 FF FF 7F F0  ..fdi1..E[......
0DC0: FF FF 7F 73 30 36 32 02  80 48 5F 80 23 45 04 80  ...s062..H_.#E..
0DD0: F0 FF FF 7F F0 FF FF 7F  66 64 6F 31 02 80 55 5B  ........fdo1..U[
0DE0: 80 F0 FF FF 7F F0 FF FF  7F 73 30 36 32 55 04 80  .........s062U..
0DF0: F0 FF FF 7F F0 FF FF 7F  66 64 6F 31 2F 01 2C 80  ........fdo1/.,.
0E00: 0E 01 2F 01 2D 80 0E 01  2F 01 2E 80 0E 01 2F 01  ../.-.../...../.
0E10: 2F 80 0E 01 2F 01 30 80  0E 01 2F 01 31 80 0E 01  /.../.0.../.1...
0E20: 2F 01 32 80 0E 01 2F 01  33 80 0E 01 4E 01 2C 80  /.2.../.3...N.,.
0E30: 0E 01 4E 01 2D 80 0E 01  4E 01 2E 80 0E 01 4E 01  ..N.-...N.....N.
0E40: 2F 80 0E 01 4E 01 30 80  0E 01 4E 01 31 80 0E 01  /...N.0...N.1...
0E50: 4E 01 32 80 0E 01 4E 01  33 80 0E 01 45 04 80 F0  N.2...N.3...E...
0E60: FF FF 7F F0 FF FF 7F 66  64 69 31 02 80 4E 01 7D  .......fdi1..N.}
0E70: 80 0E 01 4E 01 15 80 0E  01 22 00 37 60 80 61 80  ...N.....".7`.a.
0E80: 62 80 63 80 45 5B 80 F0  FF FF 7F F0 FF FF 7F 73  b.c.E[.........s
0E90: 30 36 35 02 80 27 66 04  80 0E 01 03 32 3F 80 1F  065..'f.....2?..
0EA0: 00 64 80 65 80 62 80 1F  01 45 04 80 F0 FF FF 7F  .d.e.b...E......
0EB0: F0 FF FF 7F 66 64 6F 31  02 80 55 5B 80 F0 FF FF  ....fdo1..U[....
0EC0: 7F F0 FF FF 7F 73 30 31  36 55 04 80 F0 FF FF 7F  .....s016U......
0ED0: F0 FF FF 7F 66 64 6F 31  4E 00 7D 80 0E 01 22 01  ....fdo1N.}...".
0EE0: 1C 12 80 37 66 80 67 80  68 80 69 80 45 04 80 F0  ...7f.g.h.i.E...
0EF0: FF FF 7F F0 FF FF 7F 66  64 69 31 02 80 45 5B 80  .......fdi1..E[.
0F00: F0 FF FF 7F F0 FF FF 7F  73 30 30 39 02 80 48 6A  ........s009..Hj
0F10: 80 23 45 04 80 F0 FF FF  7F F0 FF FF 7F 66 64 6F  .#E..........fdo
0F20: 31 02 80 55 5B 80 F0 FF  FF 7F F0 FF FF 7F 73 30  1..U[.........s0
0F30: 30 39 55 04 80 F0 FF FF  7F F0 FF FF 7F 66 64 6F  09U..........fdo
0F40: 31 1C 12 80 45 04 80 F0  FF FF 7F F0 FF FF 7F 66  1...E..........f
0F50: 64 69 31 02 80 45 5B 80  F0 FF FF 7F F0 FF FF 7F  di1..E[.........
0F60: 73 30 31 35 02 80 48 6B  80 23 45 04 80 F0 FF FF  s015..Hk.#E.....
0F70: 7F F0 FF FF 7F 66 64 6F  31 02 80 55 5B 80 F0 FF  .....fdo1..U[...
0F80: FF 7F F0 FF FF 7F 73 30  31 35 4E 00 15 80 0E 01  ......s015N.....
0F90: 27 65 0A 80 0E 01 03 27  66 06 80 0E 01 01 27 67  'e.....'f.....'g
0FA0: 07 80 0E 01 08 27 69 15  80 0E 01 03 27 6A 0B 80  .....'i.....'j..
0FB0: 0E 01 09 27 6A 0C 80 0E  01 08 27 6B 0E 80 0E 01  ...'j.....'k....
0FC0: 0B 27 6C 0F 80 0E 01 05  55 04 80 F0 FF FF 7F F0  .'l.....U.......
0FD0: FF FF 7F 66 64 6F 31 1C  6C 80 45 04 80 F0 FF FF  ...fdo1.l.E.....
0FE0: 7F F0 FF FF 7F 66 64 69  31 02 80 45 5B 80 F0 FF  .....fdi1..E[...
0FF0: FF 7F F0 FF FF 7F 73 30  30 30 02 80 48 6D 80 23  ......s000..Hm.#
1000: 45 04 80 F0 FF FF 7F F0  FF FF 7F 66 64 6F 31 02  E..........fdo1.
1010: 80 55 5B 80 F0 FF FF 7F  F0 FF FF 7F 73 30 30 30  .U[.........s000
1020: 55 04 80 F0 FF FF 7F F0  FF FF 7F 66 64 6F 31 1C  U..........fdo1.
1030: 12 80 22 01 32 3F 80 27  5F 01 80 0E 01 01 37 6E  ..".2?.'_.....7n
1040: 80 6F 80 70 80 71 80 22  00 45 5B 80 F0 FF FF 7F  .o.p.q.".E[.....
1050: F0 FF FF 7F 73 30 32 33  02 80 1C 0C 80 45 04 80  ....s023.....E..
1060: F0 FF FF 7F F0 FF FF 7F  66 64 69 31 02 80 1F 00  ........fdi1....
1070: 72 80 73 80 74 80 1F 01  55 5B 80 F0 FF FF 7F F0  r.s.t...U[......
1080: FF FF 7F 73 30 32 33 68  69 00 58 80 45 5B 80 F0  ...s023hi.X.E[..
1090: FF FF 7F F0 FF FF 7F 73  30 34 31 02 80 2B 04 80  .......s041..+..
10A0: 0E 01 75 80 23 79 00 F0  FF FF 7F 04 80 0E 01 1C  ..u.#y..........
10B0: 40 80 7B F0 FF FF 7F 45  5B 80 F0 FF FF 7F F0 FF  @.{....E[.......
10C0: FF 7F 73 30 30 31 02 80  55 5B 80 F0 FF FF 7F F0  ..s001..U[......
10D0: FF FF 7F 73 30 30 31 1E  04 80 0E 01 4A 04 80 0E  ...s001.....J...
10E0: 01 F0 FF FF 7F 6F 76 04  80 0E 01 66 36 80 04 80  .....ov....f6...
10F0: 0E 01 04 80 0E 01 74 6C  6B 30 2B 04 80 0E 01 76  ......tlk0+....v
1100: 80 23 1C 40 80 45 5B 80  F0 FF FF 7F F0 FF FF 7F  .#.@.E[.........
1110: 73 30 30 32 02 80 2B 04  80 0E 01 77 80 23 55 5B  s002..+....w.#U[
1120: 80 F0 FF FF 7F F0 FF FF  7F 73 30 30 32 1C 0C 80  .........s002...
1130: 2B 01 80 0E 01 78 80 23  27 64 01 80 0E 01 04 2A  +....x.#'d.....*
1140: 64 01 80 0E 01 45 5B 80  F0 FF FF 7F F0 FF FF 7F  d....E[.........
1150: 73 30 33 33 02 80 4A 04  80 0E 01 01 80 0E 01 1C  s033..J.........
1160: 49 80 1E 01 80 0E 01 1C  0C 80 27 64 01 80 0E 01  I.........'d....
1170: 05 66 36 80 04 80 0E 01  04 80 0E 01 74 6C 6B 30  .f6.........tlk0
1180: 2B 04 80 0E 01 79 80 23  27 67 04 80 0E 01 01 2A  +....y.#'g.....*
1190: 67 04 80 0E 01 1C 40 80  1E 01 80 0E 01 2A 64 01  g.....@......*d.
11A0: 80 0E 01 4A 01 80 0E 01  F0 FF FF 7F 1C 12 80 5B  ...J...........[
11B0: 7A 80 01 80 0E 01 01 80  0E 01 74 6C 6B 30 2B 01  z.........tlk0+.
11C0: 80 0E 01 7B 80 23 27 64  01 80 0E 01 02 2A 64 01  ...{.#'d.....*d.
11D0: 80 0E 01 27 65 02 80 0E  01 03 27 66 03 80 0E 01  ...'e.....'f....
11E0: 03 1C 0C 80 4A 04 80 0E  01 01 80 0E 01 45 5B 80  ....J........E[.
11F0: F0 FF FF 7F F0 FF FF 7F  73 30 33 34 02 80 2B 02  ........s034..+.
1200: 80 0E 01 7C 80 23 4A 01  80 0E 01 02 80 0E 01 6F  ...|.#J........o
1210: 76 01 80 0E 01 1E 02 80  0E 01 5B 7A 80 01 80 0E  v.........[z....
1220: 01 01 80 0E 01 61 72 61  30 2B 01 80 0E 01 7D 80  .....ara0+....}.
1230: 23 5B 7A 80 01 80 0E 01  01 80 0E 01 61 72 61 31  #[z.........ara1
1240: 53 01 80 0E 01 01 80 0E  01 61 72 61 31 1C 40 80  S........ara1.@.
1250: 2A 65 02 80 0E 01 2A 66  03 80 0E 01 4A 03 80 0E  *e....*f....J...
1260: 01 02 80 0E 01 6F 76 03  80 0E 01 5B 7E 80 03 80  .....ov....[~...
1270: 0E 01 03 80 0E 01 74 6C  6B 30 2B 03 80 0E 01 7F  ......tlk0+.....
1280: 80 23 5B 7E 80 03 80 0E  01 03 80 0E 01 74 6C 6B  .#[~.........tlk
1290: 31 53 03 80 0E 01 03 80  0E 01 74 6C 6B 31 1C 40  1S........tlk1.@
12A0: 80 45 5B 80 F0 FF FF 7F  F0 FF FF 7F 73 30 33 35  .E[.........s035
12B0: 02 80 4A 02 80 0E 01 04  80 0E 01 6F 76 02 80 0E  ..J........ov...
12C0: 01 5B 0C 80 02 80 0E 01  02 80 0E 01 74 6C 6B 30  .[..........tlk0
12D0: 2B 02 80 0E 01 80 80 23  5B 0C 80 02 80 0E 01 02  +......#[.......
12E0: 80 0E 01 74 6C 6B 31 53  02 80 0E 01 02 80 0E 01  ...tlk1S........
12F0: 74 6C 6B 31 1C 40 80 45  5B 80 F0 FF FF 7F F0 FF  tlk1.@.E[.......
1300: FF 7F 73 30 33 36 02 80  4A 01 80 0E 01 02 80 0E  ..s036..J.......
1310: 01 27 67 03 80 0E 01 09  1E 01 80 0E 01 6F 76 01  .'g..........ov.
1320: 80 0E 01 5B 7A 80 01 80  0E 01 01 80 0E 01 61 72  ...[z.........ar
1330: 61 30 2B 01 80 0E 01 81  80 23 5B 7A 80 01 80 0E  a0+......#[z....
1340: 01 01 80 0E 01 61 72 61  31 53 01 80 0E 01 01 80  .....ara1S......
1350: 0E 01 61 72 61 31 1C 40  80 45 5B 80 F0 FF FF 7F  ..ara1.@.E[.....
1360: F0 FF FF 7F 73 30 33 37  02 80 4A 02 80 0E 01 01  ....s037..J.....
1370: 80 0E 01 6F 76 02 80 0E  01 5B 0C 80 02 80 0E 01  ...ov....[......
1380: 02 80 0E 01 74 6C 6B 30  2B 02 80 0E 01 82 80 23  ....tlk0+......#
1390: 5B 0C 80 02 80 0E 01 02  80 0E 01 74 6C 6B 31 53  [..........tlk1S
13A0: 02 80 0E 01 02 80 0E 01  74 6C 6B 31 1C 40 80 27  ........tlk1.@.'
13B0: 64 01 80 0E 01 06 1E 02  80 0E 01 2A 64 01 80 0E  d..........*d...
13C0: 01 5B 7A 80 01 80 0E 01  01 80 0E 01 61 72 61 30  .[z.........ara0
13D0: 2B 01 80 0E 01 83 80 23  5B 7A 80 01 80 0E 01 01  +......#[z......
13E0: 80 0E 01 61 72 61 31 53  01 80 0E 01 01 80 0E 01  ...ara1S........
13F0: 61 72 61 31 1C 12 80 45  5B 80 F0 FF FF 7F F0 FF  ara1...E[.......
1400: FF 7F 73 30 33 39 02 80  5B 84 80 03 80 0E 01 03  ..s039..[.......
1410: 80 0E 01 6D 65 64 30 2B  03 80 0E 01 85 80 23 27  ...med0+......#'
1420: 64 01 80 0E 01 0D 53 03  80 0E 01 03 80 0E 01 6D  d.....S........m
1430: 65 64 30 1C 40 80 4A 03  80 0E 01 01 80 0E 01 6F  ed0.@.J........o
1440: 76 03 80 0E 01 5B 7E 80  03 80 0E 01 03 80 0E 01  v....[~.........
1450: 74 6C 6B 30 2B 03 80 0E  01 86 80 23 5B 7E 80 03  tlk0+......#[~..
1460: 80 0E 01 03 80 0E 01 74  6C 6B 31 53 03 80 0E 01  .......tlk1S....
1470: 03 80 0E 01 74 6C 6B 31  4A 04 80 0E 01 02 80 0E  ....tlk1J.......
1480: 01 1C 40 80 45 5B 80 F0  FF FF 7F F0 FF FF 7F 73  ..@.E[.........s
1490: 30 34 30 02 80 1C 40 80  4A 01 80 0E 01 03 80 0E  040...@.J.......
14A0: 01 6F 76 01 80 0E 01 5B  7A 80 01 80 0E 01 01 80  .ov....[z.......
14B0: 0E 01 74 6C 6B 30 2B 01  80 0E 01 87 80 23 5B 7A  ..tlk0+......#[z
14C0: 80 01 80 0E 01 01 80 0E  01 74 6C 6B 31 53 01 80  .........tlk1S..
14D0: 0E 01 01 80 0E 01 74 6C  6B 31 1C 40 80 27 64 01  ......tlk1.@.'d.
14E0: 80 0E 01 0E 1C 0C 80 45  5B 80 F0 FF FF 7F F0 FF  .......E[.......
14F0: FF 7F 73 30 33 38 02 80  1C 12 80 5B 0C 80 02 80  ..s038.....[....
1500: 0E 01 02 80 0E 01 74 6C  6B 30 2B 02 80 0E 01 88  ......tlk0+.....
1510: 80 23 5B 0C 80 02 80 0E  01 02 80 0E 01 74 6C 6B  .#[..........tlk
1520: 31 53 02 80 0E 01 02 80  0E 01 74 6C 6B 31 1C 40  1S........tlk1.@
1530: 80 45 5B 80 F0 FF FF 7F  F0 FF FF 7F 73 30 36 33  .E[.........s063
1540: 02 80 27 65 02 80 0E 01  0B 4A 04 80 0E 01 F0 FF  ..'e.....J......
1550: FF 7F 1C 89 80 1E 03 80  0E 01 5B 7E 80 03 80 0E  ..........[~....
1560: 01 03 80 0E 01 74 6C 6B  30 2B 03 80 0E 01 8A 80  .....tlk0+......
1570: 23 5B 7E 80 03 80 0E 01  03 80 0E 01 74 6C 6B 31  #[~.........tlk1
1580: 53 03 80 0E 01 03 80 0E  01 74 6C 6B 31 1C 40 80  S........tlk1.@.
1590: 4A 03 80 0E 01 F0 FF FF  7F 6F 76 03 80 0E 01 5B  J........ov....[
15A0: 7E 80 03 80 0E 01 03 80  0E 01 74 6C 6B 30 2B 03  ~.........tlk0+.
15B0: 80 0E 01 8B 80 23 5B 7E  80 03 80 0E 01 03 80 0E  .....#[~........
15C0: 01 74 6C 6B 31 53 03 80  0E 01 03 80 0E 01 74 6C  .tlk1S........tl
15D0: 6B 31 1C 40 80 27 66 03  80 0E 01 0B 2A 66 03 80  k1.@.'f.....*f..
15E0: 0E 01 1E 04 80 0E 01 6F  76 04 80 0E 01 66 36 80  .......ov....f6.
15F0: 04 80 0E 01 04 80 0E 01  74 6C 6B 30 2B 04 80 0E  ........tlk0+...
1600: 01 8C 80 23 27 67 04 80  0E 01 01 2A 67 04 80 0E  ...#'g.....*g...
1610: 01 1C 40 80 45 5B 80 F0  FF FF 7F F0 FF FF 7F 73  ..@.E[.........s
1620: 30 30 35 02 80 4A 04 80  0E 01 F0 FF FF 7F 6F 76  005..J........ov
1630: 04 80 0E 01 66 36 80 04  80 0E 01 04 80 0E 01 74  ....f6.........t
1640: 6C 6B 30 2B 04 80 0E 01  8D 80 23 27 67 04 80 0E  lk0+......#'g...
1650: 01 01 2A 67 04 80 0E 01  4E 01 01 80 0E 01 1E 04  ..*g....N.......
1660: 80 0E 01 55 5B 80 F0 FF  FF 7F F0 FF FF 7F 73 30  ...U[.........s0
1670: 30 35 24 8E 80 02 80 02  80 25 02 00 10 02 80 00  05$......%......
1680: 85 16 01 31 17 02 00 10  08 80 00 CD 16 66 36 80  ...1.........f6.
1690: 04 80 0E 01 04 80 0E 01  74 6C 6B 30 2B 04 80 0E  ........tlk0+...
16A0: 01 8F 80 23 1C 40 80 2B  04 80 0E 01 90 80 23 1C  ...#.@.+......#.
16B0: 40 80 2B 04 80 0E 01 91  80 23 27 67 04 80 0E 01  @.+......#'g....
16C0: 01 2A 67 04 80 0E 01 1C  40 80 01 31 17 02 00 10  .*g.....@..1....
16D0: 92 80 00 FF 16 66 36 80  04 80 0E 01 04 80 0E 01  .....f6.........
16E0: 74 6C 6B 30 2B 04 80 0E  01 93 80 23 27 67 04 80  tlk0+......#'g..
16F0: 0E 01 01 2A 67 04 80 0E  01 1C 40 80 01 31 17 02  ...*g.....@..1..
1700: 00 10 05 80 00 31 17 66  36 80 04 80 0E 01 04 80  .....1.f6.......
1710: 0E 01 74 6C 6B 30 2B 04  80 0E 01 94 80 23 27 67  ..tlk0+......#'g
1720: 04 80 0E 01 01 2A 67 04  80 0E 01 01 FB 17 01 31  .....*g........1
1730: 17 C8 95 80 02 80 08 80  8B 95 80 02 80 96 80 97  ................
1740: 80 54 65 69 6C 73 61 00  00 00 00 00 00 00 00 00  .Teilsa.........
1750: 00 03 02 10 98 80 2B 04  80 0E 01 99 80 23 8A 1C  ......+......#..
1760: 12 80 45 5B 80 F0 FF FF  7F F0 FF FF 7F 73 30 37  ..E[.........s07
1770: 37 02 80 2B 04 80 0E 01  9A 80 23 2B 04 80 0E 01  7..+......#+....
1780: 9B 80 23 52 5B 80 F0 FF  FF 7F F0 FF FF 7F 73 30  ..#R[.........s0
1790: 37 37 45 5B 80 F0 FF FF  7F F0 FF FF 7F 73 30 30  77E[.........s00
17A0: 35 02 80 66 36 80 04 80  0E 01 04 80 0E 01 74 6C  5..f6.........tl
17B0: 6B 30 2B 04 80 0E 01 9C  80 23 5E 69 64 6C 30 45  k0+......#^idl0E
17C0: 04 80 F0 FF FF 7F F0 FF  FF 7F 66 64 6F 32 02 80  ..........fdo2..
17D0: 55 04 80 F0 FF FF 7F F0  FF FF 7F 66 64 6F 32 78  U..........fdo2x
17E0: 1C 0C 80 46 00 1C 0C 80  45 04 80 F0 FF FF 7F F0  ...F....E.......
17F0: FF FF 7F 66 64 69 32 02  80 21 00 24 9D 80 02 80  ...fdi2..!.$....
1800: 02 80 25 02 00 10 02 80  00 40 18 66 36 80 04 80  ..%......@.f6...
1810: 0E 01 04 80 0E 01 74 6C  6B 30 2B 04 80 0E 01 9E  ......tlk0+.....
1820: 80 23 1C 40 80 2B 04 80  0E 01 91 80 23 27 67 04  .#.@.+......#'g.
1830: 80 0E 01 01 2A 67 04 80  0E 01 1C 40 80 01 0D 19  ....*g.....@....
1840: 02 00 10 08 80 00 88 18  66 36 80 04 80 0E 01 04  ........f6......
1850: 80 0E 01 74 6C 6B 30 2B  04 80 0E 01 9F 80 23 1C  ...tlk0+......#.
1860: 40 80 2B 04 80 0E 01 A0  80 23 1C 40 80 2B 04 80  @.+......#.@.+..
1870: 0E 01 A1 80 23 27 67 04  80 0E 01 01 2A 67 04 80  ....#'g.....*g..
1880: 0E 01 1C 40 80 01 0D 19  02 00 10 92 80 00 D0 18  ...@............
1890: 66 36 80 04 80 0E 01 04  80 0E 01 74 6C 6B 30 2B  f6.........tlk0+
18A0: 04 80 0E 01 A2 80 23 1C  40 80 2B 04 80 0E 01 A3  ......#.@.+.....
18B0: 80 23 1C 40 80 2B 04 80  0E 01 91 80 23 27 67 04  .#.@.+......#'g.
18C0: 80 0E 01 01 2A 67 04 80  0E 01 1C 40 80 01 0D 19  ....*g.....@....
18D0: 02 00 10 05 80 00 0D 19  66 36 80 04 80 0E 01 04  ........f6......
18E0: 80 0E 01 74 6C 6B 30 2B  04 80 0E 01 A4 80 23 1C  ...tlk0+......#.
18F0: 40 80 2B 04 80 0E 01 91  80 23 27 67 04 80 0E 01  @.+......#'g....
1900: 01 2A 67 04 80 0E 01 1C  40 80 01 0D 19 C8 95 80  .*g.....@.......
1910: 02 80 08 80 8B 95 80 02  80 96 80 97 80 54 65 69  .............Tei
1920: 6C 73 61 00 00 00 00 00  00 00 00 00 00 03 02 10  lsa.............
1930: 98 80 2B 04 80 0E 01 99  80 23 8A 1C 12 80 45 5B  ..+......#....E[
1940: 80 F0 FF FF 7F F0 FF FF  7F 73 30 37 37 02 80 2B  .........s077..+
1950: 04 80 0E 01 9A 80 23 2B  04 80 0E 01 9B 80 23 52  ......#+......#R
1960: 5B 80 F0 FF FF 7F F0 FF  FF 7F 73 30 37 37 45 5B  [.........s077E[
1970: 80 F0 FF FF 7F F0 FF FF  7F 73 30 30 35 02 80 66  .........s005..f
1980: 36 80 04 80 0E 01 04 80  0E 01 74 6C 6B 30 2B 04  6.........tlk0+.
1990: 80 0E 01 9C 80 23 5E 69  64 6C 30 45 04 80 F0 FF  .....#^idl0E....
19A0: FF 7F F0 FF FF 7F 66 64  6F 32 02 80 55 04 80 F0  ......fdo2..U...
19B0: FF FF 7F F0 FF FF 7F 66  64 6F 32 78 1C 0C 80 46  .......fdo2x...F
19C0: 00 1C 0C 80 45 04 80 F0  FF FF 7F F0 FF FF 7F 66  ....E..........f
19D0: 64 69 32 02 80 21 00                              di2..!.         
```

#### Opcodes

```
  0: 0x0BCC [0x22] ENTITY_HIDE_FLAG(enabled=0x01)
  1: 0x0BCE [0x42] SET_CLI_EVENT_CANCEL_DATA()
  2: 0x0BCF [0x46] CAMERA_CONTROL: Disable user control
  3: 0x0BD1 [0x69] SET_SOUND_VOLUME: Mute Master/SpecialChat
  4: 0x0BD5 [0x5C] MUSIC_CONTROL: Set Idle (Day) music to song 107*
  5: 0x0BD9 [0x5C] MUSIC_CONTROL: Set Idle (Night) music to song 107*
  6: 0x0BDD [0x67] HIDE_HUD_ELEMENTS(param1=0x8051, param2=0x8059)
  7: 0x0BE2 [0x77] SET_EVENT_TIME_WEATHER(hour=8*, weather=1*)
  8: 0x0BE7 [0x1C] WAIT(30* ticks)
  9: 0x0BEA [0x45] LOAD_SCHEDULED_TASK: Load scheduler "s006" with entities [LocalPlayer, LocalPlayer], work=[132*, 0*]
 10: 0x0BFB [0x45] LOAD_SCHEDULED_TASK: Load scheduler "fdi1" with entities [LocalPlayer, LocalPlayer], work=[200*, 0*]
 11: 0x0C0C [0x55] WAIT_LOAD_SCHEDULER: Wait for scheduler "fdi1" with entities [LocalPlayer, LocalPlayer], work=200*
 12: 0x0C1B [0x48] [System] [7368*]:
    → "[Cutscene] The fortress city of San d'Oria lies to the north on the great continent of Quon. The beating heart of an ancient kingdom, it is home to a thousand legends past."
 13: 0x0C1E [0x23] WAIT_FOR_DIALOG_INTERACTION
 14: 0x0C1F [0x45] LOAD_SCHEDULED_TASK: Load scheduler "fdo1" with entities [LocalPlayer, LocalPlayer], work=[200*, 0*]
 15: 0x0C30 [0x55] WAIT_LOAD_SCHEDULER: Wait for scheduler "s006" with entities [LocalPlayer, LocalPlayer], work=132*
 16: 0x0C3F [0x27] REQ_SET(priority=0x6B, entity_id=Nogelle (ID: 17727502/0x010E800E), tag_num=0x0A)
 17: 0x0C46 [0x27] REQ_SET(priority=0x6C, entity_id=Croumangue (ID: 17727503/0x010E800F), tag_num=0x04)
 18: 0x0C4D [0x55] WAIT_LOAD_SCHEDULER: Wait for scheduler "fdo1" with entities [LocalPlayer, LocalPlayer], work=200*
 19: 0x0C5C [0x1C] WAIT(60* ticks)
 20: 0x0C5F [0x45] LOAD_SCHEDULED_TASK: Load scheduler "fdi1" with entities [LocalPlayer, LocalPlayer], work=[200*, 0*]
 21: 0x0C70 [0x45] LOAD_SCHEDULED_TASK: Load scheduler "s073" with entities [LocalPlayer, LocalPlayer], work=[132*, 0*]
 22: 0x0C81 [0x48] [System] [7369*]:
    → "[Cutscene] But now, her reign of glory is but a memory. Heroes raise shining swords to the heavens no more."
 23: 0x0C84 [0x23] WAIT_FOR_DIALOG_INTERACTION
 24: 0x0C85 [0x45] LOAD_SCHEDULED_TASK: Load scheduler "fdo1" with entities [LocalPlayer, LocalPlayer], work=[200*, 0*]
 25: 0x0C96 [0x55] WAIT_LOAD_SCHEDULER: Wait for scheduler "s004" with entities [LocalPlayer, LocalPlayer], work=132*
 26: 0x0CA5 [0x55] WAIT_LOAD_SCHEDULER: Wait for scheduler "fdo1" with entities [LocalPlayer, LocalPlayer], work=200*
 27: 0x0CB4 [0x1C] WAIT(60* ticks)
 28: 0x0CB7 [0x45] LOAD_SCHEDULED_TASK: Load scheduler "fdi1" with entities [LocalPlayer, LocalPlayer], work=[200*, 0*]
 29: 0x0CC8 [0x45] LOAD_SCHEDULED_TASK: Load scheduler "s003" with entities [LocalPlayer, LocalPlayer], work=[132*, 0*]
 30: 0x0CD9 [0x48] [System] [7370*]:
    → "[Cutscene] The sun has set on the kingdom of knights. An old lion, never to rise again... Thus do some dismiss her now."
 31: 0x0CDC [0x23] WAIT_FOR_DIALOG_INTERACTION
 32: 0x0CDD [0x45] LOAD_SCHEDULED_TASK: Load scheduler "fdo1" with entities [LocalPlayer, LocalPlayer], work=[200*, 0*]
 33: 0x0CEE [0x55] WAIT_LOAD_SCHEDULER: Wait for scheduler "s003" with entities [LocalPlayer, LocalPlayer], work=132*
 34: 0x0CFD [0x55] WAIT_LOAD_SCHEDULER: Wait for scheduler "fdo1" with entities [LocalPlayer, LocalPlayer], work=200*
 35: 0x0D0C [0x2F] Unnamed NPC (ID: 17727532/0x010E802C)->Render.Flags0 &= ~0x80000 // Bit 19
 36: 0x0D12 [0x2F] Unnamed NPC (ID: 17727533/0x010E802D)->Render.Flags0 &= ~0x80000 // Bit 19
 37: 0x0D18 [0x2F] Unnamed NPC (ID: 17727534/0x010E802E)->Render.Flags0 &= ~0x80000 // Bit 19
 38: 0x0D1E [0x2F] Unnamed NPC (ID: 17727535/0x010E802F)->Render.Flags0 &= ~0x80000 // Bit 19
 39: 0x0D24 [0x2F] Unnamed NPC (ID: 17727536/0x010E8030)->Render.Flags0 &= ~0x80000 // Bit 19
 40: 0x0D2A [0x2F] Unnamed NPC (ID: 17727537/0x010E8031)->Render.Flags0 &= ~0x80000 // Bit 19
 41: 0x0D30 [0x2F] Unnamed NPC (ID: 17727538/0x010E8032)->Render.Flags0 &= ~0x80000 // Bit 19
 42: 0x0D36 [0x2F] Unnamed NPC (ID: 17727539/0x010E8033)->Render.Flags0 &= ~0x80000 // Bit 19
 43: 0x0D3C [0x4E] SET_ENTITY_HIDE_FLAG: Show Unnamed NPC (ID: 17727532/0x010E802C)
 44: 0x0D42 [0x4E] SET_ENTITY_HIDE_FLAG: Show Unnamed NPC (ID: 17727533/0x010E802D)
 45: 0x0D48 [0x4E] SET_ENTITY_HIDE_FLAG: Show Unnamed NPC (ID: 17727534/0x010E802E)
 46: 0x0D4E [0x4E] SET_ENTITY_HIDE_FLAG: Show Unnamed NPC (ID: 17727535/0x010E802F)
 47: 0x0D54 [0x4E] SET_ENTITY_HIDE_FLAG: Show Unnamed NPC (ID: 17727536/0x010E8030)
 48: 0x0D5A [0x4E] SET_ENTITY_HIDE_FLAG: Show Unnamed NPC (ID: 17727537/0x010E8031)
 49: 0x0D60 [0x4E] SET_ENTITY_HIDE_FLAG: Show Unnamed NPC (ID: 17727538/0x010E8032)
 50: 0x0D66 [0x4E] SET_ENTITY_HIDE_FLAG: Show Unnamed NPC (ID: 17727539/0x010E8033)
 51: 0x0D6C [0x27] REQ_SET(priority=0x65, entity_id=Unnamed NPC (ID: 17727532/0x010E802C), tag_num=0x03)
 52: 0x0D73 [0x27] REQ_SET(priority=0x66, entity_id=Unnamed NPC (ID: 17727533/0x010E802D), tag_num=0x03)
 53: 0x0D7A [0x27] REQ_SET(priority=0x67, entity_id=Unnamed NPC (ID: 17727534/0x010E802E), tag_num=0x03)
 54: 0x0D81 [0x27] REQ_SET(priority=0x68, entity_id=Unnamed NPC (ID: 17727535/0x010E802F), tag_num=0x03)
 55: 0x0D88 [0x27] REQ_SET(priority=0x69, entity_id=Unnamed NPC (ID: 17727536/0x010E8030), tag_num=0x03)
 56: 0x0D8F [0x27] REQ_SET(priority=0x6A, entity_id=Unnamed NPC (ID: 17727537/0x010E8031), tag_num=0x03)
 57: 0x0D96 [0x27] REQ_SET(priority=0x6B, entity_id=Unnamed NPC (ID: 17727538/0x010E8032), tag_num=0x03)
 58: 0x0D9D [0x27] REQ_SET(priority=0x6C, entity_id=Unnamed NPC (ID: 17727539/0x010E8033), tag_num=0x03)
 59: 0x0DA4 [0x1C] WAIT(60* ticks)
 60: 0x0DA7 [0x45] LOAD_SCHEDULED_TASK: Load scheduler "fdi1" with entities [LocalPlayer, LocalPlayer], work=[200*, 0*]
 61: 0x0DB8 [0x45] LOAD_SCHEDULED_TASK: Load scheduler "s062" with entities [LocalPlayer, LocalPlayer], work=[132*, 0*]
 62: 0x0DC9 [0x48] [System] [7371*]:
    → "[Cutscene] Yet young Elvaan knights still venture proudly into the wilds of Vana'diel, determined to triumph over any foe."
 63: 0x0DCC [0x23] WAIT_FOR_DIALOG_INTERACTION
 64: 0x0DCD [0x45] LOAD_SCHEDULED_TASK: Load scheduler "fdo1" with entities [LocalPlayer, LocalPlayer], work=[200*, 0*]
 65: 0x0DDE [0x55] WAIT_LOAD_SCHEDULER: Wait for scheduler "s062" with entities [LocalPlayer, LocalPlayer], work=132*
 66: 0x0DED [0x55] WAIT_LOAD_SCHEDULER: Wait for scheduler "fdo1" with entities [LocalPlayer, LocalPlayer], work=200*
 67: 0x0DFC [0x2F] Unnamed NPC (ID: 17727532/0x010E802C)->Render.Flags0 |= 0x80000 // Bit 19
 68: 0x0E02 [0x2F] Unnamed NPC (ID: 17727533/0x010E802D)->Render.Flags0 |= 0x80000 // Bit 19
 69: 0x0E08 [0x2F] Unnamed NPC (ID: 17727534/0x010E802E)->Render.Flags0 |= 0x80000 // Bit 19
 70: 0x0E0E [0x2F] Unnamed NPC (ID: 17727535/0x010E802F)->Render.Flags0 |= 0x80000 // Bit 19
 71: 0x0E14 [0x2F] Unnamed NPC (ID: 17727536/0x010E8030)->Render.Flags0 |= 0x80000 // Bit 19
 72: 0x0E1A [0x2F] Unnamed NPC (ID: 17727537/0x010E8031)->Render.Flags0 |= 0x80000 // Bit 19
 73: 0x0E20 [0x2F] Unnamed NPC (ID: 17727538/0x010E8032)->Render.Flags0 |= 0x80000 // Bit 19
 74: 0x0E26 [0x2F] Unnamed NPC (ID: 17727539/0x010E8033)->Render.Flags0 |= 0x80000 // Bit 19
 75: 0x0E2C [0x4E] SET_ENTITY_HIDE_FLAG: Hide Unnamed NPC (ID: 17727532/0x010E802C)
 76: 0x0E32 [0x4E] SET_ENTITY_HIDE_FLAG: Hide Unnamed NPC (ID: 17727533/0x010E802D)
 77: 0x0E38 [0x4E] SET_ENTITY_HIDE_FLAG: Hide Unnamed NPC (ID: 17727534/0x010E802E)
