# Event 235

## Metadata

| Field           | Value    |
|-----------------|----------|
| Event Index     | 7/8      |
| Offset          | 0x007A   |
| Data Size       | 52 bytes |
| Calculated Size | 52 bytes |
| Instructions    | 12       |

```
      00 01 02 03 04 05 06 07  08 09 0A 0B 0C 0D 0E 0F
      -- -- -- -- -- -- -- --  -- -- -- -- -- -- -- --
0070:                                66 03 80 F8 FF FF            f.....
0080: 7F F8 FF FF 7F 74 68 6B  31 1D 0A 80 23 1C 0B 80  .....thk1...#...
0090: 23 66 03 80 F8 FF FF 7F  F8 FF FF 7F 74 68 6B 32  #f..........thk2
00A0: 1C 0C 80 1E F0 FF FF 7F  1D 0D 80 23 21 00        ...........#!.  
```

## Opcodes

```
  0: 0x007A [0x66] LOAD_EXT_SCHEDULER_MAIN(work_offset=30*, entity1=EventEntity, entity2=EventEntity, action="thk1")
  1: 0x0089 [0x1D] PRINT_EVENT_MESSAGE(message_id=10801*)
    → "I wonder if my little buddy's okay...\u007F1\u0000\u0007"
  2: 0x008C [0x23] WAIT_FOR_DIALOG_INTERACTION
  3: 0x008D [0x1C] WAIT(90* ticks)
  4: 0x0090 [0x23] WAIT_FOR_DIALOG_INTERACTION
  5: 0x0091 [0x66] LOAD_EXT_SCHEDULER_MAIN(work_offset=30*, entity1=EventEntity, entity2=EventEntity, action="thk2")
  6: 0x00A0 [0x1C] WAIT(10* ticks)
  7: 0x00A3 [0x1E] EventEntity looks at LocalPlayer and starts talking
  8: 0x00A8 [0x1D] PRINT_EVENT_MESSAGE(message_id=10802*)
    → "Ah, what am I worried about. She's got more brains in her pinky than I do in my pocket!\u0007She'll make it back to her hometown. I'm sure of it!\u007F1\u0000\u0007"
  9: 0x00AB [0x23] WAIT_FOR_DIALOG_INTERACTION
 10: 0x00AC [0x21] END_EVENT
 11: 0x00AD [0x00] END_REQSTACK()
```
