# Event 55

## Metadata

| Field           | Value    |
|-----------------|----------|
| Event Index     | 8/19     |
| Offset          | 0x0037   |
| Data Size       | 22 bytes |
| Calculated Size | 22 bytes |
| Instructions    | 8        |

```
      00 01 02 03 04 05 06 07  08 09 0A 0B 0C 0D 0E 0F
      -- -- -- -- -- -- -- --  -- -- -- -- -- -- -- --
0030:                      38  00 80 1E F0 FF FF 7F 03         8........
0040: 02 10 04 80 1D 05 80 23  1A 58 01 21 00           .......#.X.!.   
```

## Opcodes

```
  0: 0x0037 [0x38] SET_CLIENT_EVENT_MODE(mode=8*)
  1: 0x003A [0x1E] EventEntity looks at LocalPlayer and starts talking
  2: 0x003F [0x03] Work_Zone[2] = 1093*
  3: 0x0044 [0x1D] PRINT_EVENT_MESSAGE(message_id=9126*)
    → "In Fei'Yin there is an old fountain run dry. They say that you can call a spirit of the dead by simply casting \u0001\u0001\u0001 \u0001\u0005$\u0002\u0000\u0000\u0000 into it. At any rate, that place is a decrepit ruin, so there's no end to the hogwash rumors.\u007F1\u0000\u0007"
  4: 0x0047 [0x23] WAIT_FOR_DIALOG_INTERACTION
  5: 0x0048 [0x1A] CALL_SUBROUTINE(address=0x0158)
  6: 0x004B [0x21] END_EVENT
  7: 0x004C [0x00] END_REQSTACK()
```
