# Event 57

## Metadata

| Field           | Value    |
|-----------------|----------|
| Event Index     | 9/19     |
| Offset          | 0x004D   |
| Data Size       | 64 bytes |
| Calculated Size | 64 bytes |
| Instructions    | 12       |

```
      00 01 02 03 04 05 06 07  08 09 0A 0B 0C 0D 0E 0F
      -- -- -- -- -- -- -- --  -- -- -- -- -- -- -- --
0040:                                         38 00 80               8..
0050: 1E F0 FF FF 7F 1D 06 80  23 5B 07 80 F8 FF FF 7F  ........#[......
0060: F8 FF FF 7F 74 68 6B 31  1D 08 80 23 5B 07 80 F8  ....thk1...#[...
0070: FF FF 7F F8 FF FF 7F 74  68 6B 32 53 F8 FF FF 7F  .......thk2S....
0080: F8 FF FF 7F 74 68 6B 32  1A 58 01 21 00           ....thk2.X.!.   
```

## Opcodes

```
  0: 0x004D [0x38] SET_CLIENT_EVENT_MODE(mode=8*)
  1: 0x0050 [0x1E] EventEntity looks at LocalPlayer and starts talking
  2: 0x0055 [0x1D] PRINT_EVENT_MESSAGE(message_id=9127*)
    → "So, the rumor was true? Huzzah! No, I need no thanks. I am happy to just hear your tale.\u007F1\u0000\u0007"
  3: 0x0058 [0x23] WAIT_FOR_DIALOG_INTERACTION
  4: 0x0059 [0x5B] LOAD_EXT_SCHEDULER: Load scheduler "thk1" with entities [EventEntity, EventEntity], work=30*
  5: 0x0068 [0x1D] PRINT_EVENT_MESSAGE(message_id=9128*)
    → "But what could he mean by a \u00072small dark tight place\u00073? You'd best ask the other patrons or members of your own party for their insight.\u007F1\u0000\u0007"
  6: 0x006B [0x23] WAIT_FOR_DIALOG_INTERACTION
  7: 0x006C [0x5B] LOAD_EXT_SCHEDULER: Load scheduler "thk2" with entities [EventEntity, EventEntity], work=30*
  8: 0x007B [0x53] WAIT_SCHEDULER_TASK: Wait for scheduler "thk2" with entities [EventEntity, EventEntity]
  9: 0x0088 [0x1A] CALL_SUBROUTINE(address=0x0158)
 10: 0x008B [0x21] END_EVENT
 11: 0x008C [0x00] END_REQSTACK()
```
