# Event 65535

## Metadata

| Field           | Value    |
|-----------------|----------|
| Event Index     | 42/50    |
| Offset          | 0x023E   |
| Data Size       | 51 bytes |
| Calculated Size | 51 bytes |
| Instructions    | 10       |

```
      00 01 02 03 04 05 06 07  08 09 0A 0B 0C 0D 0E 0F
      -- -- -- -- -- -- -- --  -- -- -- -- -- -- -- --
0230:                                            32 19                2.
0240: 80 37 1F 80 20 80 1C 80  21 80 1F 00 22 80 23 80  .7.. ...!...".#.
0250: 1C 80 1F 01 1F 00 24 80  25 80 26 80 1F 01 6F 1E  ......$.%.&...o.
0260: 53 90 11 01 AD 02 0C 80  F8 FF FF 7F 53 90 11 01  S...........S...
0270: 00                                                .               
```

## Opcodes

```
  0: 0x023E [0x32] ExtData[1]->MainSpeed = 40* * 0.1
  1: 0x0241 [0x37] UPDATE_EVENT_POSITION_AND_DIR: x=-447.478*, z=-240.553*, y=-167.200*, direction=184.5°*
  2: 0x024A [0x1F] MOVE_ENTITY: EventEntity moves to X=-451.499*, Z=-240.384*, Y=-167.200*
  3: 0x0252 [0x1F] MOVE_ENTITY: Update entity position (mode=1)
  4: 0x0254 [0x1F] MOVE_ENTITY: EventEntity moves to X=-460.437*, Z=-240.117*, Y=-167.220*
  5: 0x025C [0x1F] MOVE_ENTITY: Update entity position (mode=1)
  6: 0x025E [0x6F] WAIT_FRAME_DELAY: Yield until WaitTime reaches zero
  7: 0x025F [0x1E] EventEntity looks at Shadow Lord (ID: 17928275/0x01119053) and starts talking
  8: 0x0264 [0xAD] DUAL_ENTITY_SCHEDULER: Execute sub-case 2 with entities [EventEntity, Shadow Lord (ID: 17928275/0x01119053)], param=3*
  9: 0x0270 [0x00] END_REQSTACK()
```
