# Event 65535

## Metadata

| Field           | Value    |
|-----------------|----------|
| Event Index     | 3/5      |
| Offset          | 0x0013   |
| Data Size       | 95 bytes |
| Calculated Size | 95 bytes |
| Instructions    | 10       |

```
      00 01 02 03 04 05 06 07  08 09 0A 0B 0C 0D 0E 0F
      -- -- -- -- -- -- -- --  -- -- -- -- -- -- -- --
0010:          37 02 80 03 80  04 80 05 80 62 06 80 01     7........b...
0020: 51 0A 01 01 51 0A 01 6B  6F 6E 65 00 80 1C 07 80  Q...Q..kone.....
0030: 6C F8 FF FF 7F 08 80 09  80 55 0A 80 F0 FF FF 7F  l........U......
0040: F0 FF FF 7F 73 67 36 36  4E 00 F0 FF FF 7F 45 0A  ....sg66N.....E.
0050: 80 F0 FF FF 7F F0 FF FF  7F 73 67 36 34 00 80 66  .........sg64..f
0060: 0B 80 01 51 0A 01 01 51  0A 01 64 6B 30 30 1C 0C  ...Q...Q..dk00..
0070: 80 00                                             ..              
```

## Opcodes

```
  0: 0x0013 [0x37] UPDATE_EVENT_POSITION_AND_DIR: x=-451.743*, z=-239.904*, y=-167.199*, direction=179.4°*
  1: 0x001C [0x62] LOAD_EVENT_SCHEDULER (arg=5012): Load scheduler "kone" with entities [Cornelia (ID: 17453313/0x010A5101), Cornelia (ID: 17453313/0x010A5101)], work=[22*, 0*]
  2: 0x002D [0x1C] WAIT(150* ticks)
  3: 0x0030 [0x6C] FADE_ENTITY_COLOR(entity_id=EventEntity, end_alpha=72*, fade_time=270*)
  4: 0x0039 [0x55] WAIT_LOAD_SCHEDULER(work_offset=65*, entity1=LocalPlayer, entity2=LocalPlayer, scheduler_id="sg66")
  5: 0x0048 [0x4E] SET_ENTITY_HIDE_FLAG: Show LocalPlayer
  6: 0x004E [0x45] LOAD_SCHEDULED_TASK(work_offset1=65*, entity1=LocalPlayer, entity2=LocalPlayer, scheduler_id="sg64", work_offset2=0*)
  7: 0x005F [0x66] LOAD_EXT_SCHEDULER_MAIN(work_offset=12*, entity1=Cornelia (ID: 17453313/0x010A5101), entity2=Cornelia (ID: 17453313/0x010A5101), action="dk00")
  8: 0x006E [0x1C] WAIT(120* ticks)
  9: 0x0071 [0x00] END_REQSTACK()
```
