# 17101346 - Mnejing

## Common Data

| Field            | Value                  |
|------------------|------------------------|
| Zone             | Caedarva Mire (ID: 79) |
| Block Size       | 1936 bytes             |
| Total Events     | 91                     |
| References Count | 57                     |

## List of Events

| Event ID                   | Entrypoint   |   Size |   Instructions |
|----------------------------|--------------|--------|----------------|
| [65535](#event-65535)      | 0x0000       |      1 |              1 |
| [65535.1](#event-655351)   | 0x0001       |      1 |              1 |
| [65535.2](#event-655352)   | 0x0002       |     18 |              4 |
| [65535.3](#event-655353)   | 0x0014       |     10 |              2 |
| [65535.4](#event-655354)   | 0x001E       |      9 |              3 |
| [65535.5](#event-655355)   | 0x0027       |      9 |              3 |
| [65535.6](#event-655356)   | 0x0030       |     10 |              2 |
| [65535.7](#event-655357)   | 0x003A       |     10 |              2 |
| [65535.8](#event-655358)   | 0x0044       |     16 |              2 |
| [65535.9](#event-655359)   | 0x0054       |     14 |              2 |
| [65535.10](#event-6553510) | 0x0062       |     16 |              2 |
| [65535.11](#event-6553511) | 0x0072       |     14 |              2 |
| [65535.12](#event-6553512) | 0x0080       |     16 |              2 |
| [65535.13](#event-6553513) | 0x0090       |     14 |              2 |
| [65535.14](#event-6553514) | 0x009E       |     16 |              2 |
| [65535.15](#event-6553515) | 0x00AE       |     14 |              2 |
| [65535.16](#event-6553516) | 0x00BC       |     16 |              2 |
| [65535.17](#event-6553517) | 0x00CC       |     14 |              2 |
| [65535.18](#event-6553518) | 0x00DA       |     16 |              2 |
| [65535.19](#event-6553519) | 0x00EA       |     14 |              2 |
| [65535.20](#event-6553520) | 0x00F8       |     16 |              2 |
| [65535.21](#event-6553521) | 0x0108       |     14 |              2 |
| [65535.22](#event-6553522) | 0x0116       |     16 |              2 |
| [65535.23](#event-6553523) | 0x0126       |     14 |              2 |
| [65535.24](#event-6553524) | 0x0134       |     16 |              2 |
| [65535.25](#event-6553525) | 0x0144       |     14 |              2 |
| [65535.26](#event-6553526) | 0x0152       |     16 |              2 |
| [65535.27](#event-6553527) | 0x0162       |     14 |              2 |
| [65535.28](#event-6553528) | 0x0170       |      9 |              3 |
| [65535.29](#event-6553529) | 0x0179       |     16 |              2 |
| [65535.30](#event-6553530) | 0x0189       |     14 |              2 |
| [65535.31](#event-6553531) | 0x0197       |     16 |              2 |
| [65535.32](#event-6553532) | 0x01A7       |     14 |              2 |
| [65535.33](#event-6553533) | 0x01B5       |     16 |              2 |
| [65535.34](#event-6553534) | 0x01C5       |     14 |              2 |
| [65535.35](#event-6553535) | 0x01D3       |     16 |              2 |
| [65535.36](#event-6553536) | 0x01E3       |     14 |              2 |
| [65535.37](#event-6553537) | 0x01F1       |     44 |              4 |
| [65535.38](#event-6553538) | 0x021D       |     14 |              2 |
| [65535.39](#event-6553539) | 0x022B       |     16 |              2 |
| [65535.40](#event-6553540) | 0x023B       |     14 |              2 |
| [65535.41](#event-6553541) | 0x0249       |     16 |              2 |
| [65535.42](#event-6553542) | 0x0259       |     14 |              2 |
| [65535.43](#event-6553543) | 0x0267       |     16 |              2 |
| [65535.44](#event-6553544) | 0x0277       |     14 |              2 |
| [65535.45](#event-6553545) | 0x0285       |     16 |              2 |
| [65535.46](#event-6553546) | 0x0295       |     14 |              2 |
| [65535.47](#event-6553547) | 0x02A3       |     16 |              2 |
| [65535.48](#event-6553548) | 0x02B3       |     14 |              2 |
| [65535.49](#event-6553549) | 0x02C1       |     16 |              2 |
| [65535.50](#event-6553550) | 0x02D1       |     14 |              2 |
| [65535.51](#event-6553551) | 0x02DF       |     16 |              2 |
| [65535.52](#event-6553552) | 0x02EF       |     14 |              2 |
| [65535.53](#event-6553553) | 0x02FD       |     16 |              2 |
| [65535.54](#event-6553554) | 0x030D       |     14 |              2 |
| [65535.55](#event-6553555) | 0x031B       |     16 |              2 |
| [65535.56](#event-6553556) | 0x032B       |     14 |              2 |
| [65535.57](#event-6553557) | 0x0339       |     16 |              2 |
| [65535.58](#event-6553558) | 0x0349       |     14 |              2 |
| [65535.59](#event-6553559) | 0x0357       |     16 |              2 |
| [65535.60](#event-6553560) | 0x0367       |     14 |              2 |
| [65535.61](#event-6553561) | 0x0375       |     16 |              2 |
| [65535.62](#event-6553562) | 0x0385       |     14 |              2 |
| [65535.63](#event-6553563) | 0x0393       |     16 |              2 |
| [65535.64](#event-6553564) | 0x03A3       |     14 |              2 |
| [65535.65](#event-6553565) | 0x03B1       |     16 |              2 |
| [65535.66](#event-6553566) | 0x03C1       |     14 |              2 |
| [65535.67](#event-6553567) | 0x03CF       |     16 |              2 |
| [65535.68](#event-6553568) | 0x03DF       |     14 |              2 |
| [65535.69](#event-6553569) | 0x03ED       |     16 |              2 |
| [65535.70](#event-6553570) | 0x03FD       |     14 |              2 |
| [65535.71](#event-6553571) | 0x040B       |     16 |              2 |
| [65535.72](#event-6553572) | 0x041B       |     14 |              2 |
| [65535.73](#event-6553573) | 0x0429       |     57 |              5 |
| [21](#event-21)            | 0x0462       |      1 |              1 |
| [65535.74](#event-6553574) | 0x0463       |     10 |              2 |
| [65535.75](#event-6553575) | 0x046D       |     12 |              3 |
| [65535.76](#event-6553576) | 0x0479       |     10 |              2 |
| [65535.77](#event-6553577) | 0x0483       |     18 |              6 |
| [65535.78](#event-6553578) | 0x0495       |     10 |              2 |
| [65535.79](#event-6553579) | 0x049F       |     10 |              2 |
| [65535.80](#event-6553580) | 0x04A9       |     10 |              2 |
| [65535.81](#event-6553581) | 0x04B3       |     12 |              3 |
| [65535.82](#event-6553582) | 0x04BF       |      4 |              2 |
| [310](#event-310)          | 0x04C3       |      7 |              2 |
| [65535.83](#event-6553583) | 0x04CA       |     22 |              8 |
| [65535.84](#event-6553584) | 0x04E0       |     15 |              5 |
| [311](#event-311)          | 0x04EF       |      7 |              2 |
| [65535.85](#event-6553585) | 0x04F6       |     15 |              5 |
| [65535.86](#event-6553586) | 0x0505       |     15 |              5 |
| [65535.87](#event-6553587) | 0x0514       |     25 |              7 |

## DAT References (imed_data)

|   Index | Hex Value   |   Dec Value |
|---------|-------------|-------------|
|       0 | 0x0000      |           0 |
|       1 | 0x0001      |           1 |
|       2 | 0x0080      |         128 |
|       3 | 0x0389      |         905 |
|       4 | 0x03A5      |         933 |
|       5 | 0x042D      |        1069 |
|       6 | 0x042C      |        1068 |
|       7 | 0x003C      |          60 |
|       8 | 0x0353      |         851 |
|       9 | 0x035A      |         858 |
|      10 | 0x038A      |         906 |
|      11 | 0x038B      |         907 |
|      12 | 0x2365      |        9061 |
|      13 | 0x5062      |       20578 |
|      14 | 0xFFFFAA10  |  4294945296 |
|      15 | 0x00B4      |         180 |
|      16 | 0x2E3C2     |      189378 |
|      17 | 0xFFFA274E  |  4294584142 |
|      18 | 0xFFFFC4DC  |  4294952156 |
|      19 | 0x0800      |        2048 |
|      20 | 0x37E7A     |      228986 |
|      21 | 0xFFFA56F4  |  4294596340 |
|      22 | 0xFFFFEE34  |  4294962740 |
|      23 | 0x07C3      |        1987 |
|      24 | 0x000F      |          15 |
|      25 | 0x0028      |          40 |
|      26 | 0x36048     |      221256 |
|      27 | 0xFFFA578D  |  4294596493 |
|      28 | 0xFFFFEE3B  |  4294962747 |
|      29 | 0x347D0     |      214992 |
|      30 | 0xFFFA4690  |  4294592144 |
|      31 | 0xFFFFEF70  |  4294963056 |
|      32 | 0x068B      |        1675 |
|      33 | 0x2D07F     |      184447 |
|      34 | 0xFFFA30A7  |  4294586535 |
|      35 | 0xFFFFC4EA  |  4294952170 |
|      36 | 0x0201      |         513 |
|      37 | 0x2E210     |      188944 |
|      38 | 0xFFFA2078  |  4294582392 |
|      39 | 0xFFFFC39B  |  4294951835 |
|      40 | 0xFFFFC4A0  |  4294952096 |
|      41 | 0x000D      |          13 |
|      42 | 0xFFF91AE7  |  4294515431 |
|      43 | 0xFFF6D659  |  4294366809 |
|      44 | 0x202F      |        8239 |
|      45 | 0xFFF91A75  |  4294515317 |
|      46 | 0xFFF6D9D4  |  4294367700 |
|      47 | 0x2037      |        8247 |
|      48 | 0xFFF920B1  |  4294516913 |
|      49 | 0xFFF6ED7B  |  4294372731 |
|      50 | 0x2039      |        8249 |
|      51 | 0xFFF91D35  |  4294516021 |
|      52 | 0xFFF6DF84  |  4294369156 |
|      53 | 0xFFF91DF6  |  4294516214 |
|      54 | 0xFFF6D112  |  4294365458 |
|      55 | 0xFFF92607  |  4294518279 |
|      56 | 0xFFF6CE2F  |  4294364719 |

## Events

### Event 65535

#### Metadata

| Field        | Value   |
|--------------|---------|
| Entrypoint   | 0x0000  |
| Data Size    | 1 bytes |
| Instructions | 1       |

```
      00 01 02 03 04 05 06 07  08 09 0A 0B 0C 0D 0E 0F
      -- -- -- -- -- -- -- --  -- -- -- -- -- -- -- --
0000: 00                                                .               
```

#### Opcodes

```
  0: 0x0000 [0x00] END_REQSTACK()
```

### Event 65535.1

#### Metadata

| Field        | Value   |
|--------------|---------|
| Entrypoint   | 0x0001  |
| Data Size    | 1 bytes |
| Instructions | 1       |

```
      00 01 02 03 04 05 06 07  08 09 0A 0B 0C 0D 0E 0F
      -- -- -- -- -- -- -- --  -- -- -- -- -- -- -- --
0000:    00                                              .              
```

#### Opcodes

```
  0: 0x0001 [0x00] END_REQSTACK()
```

### Event 65535.2

#### Metadata

| Field        | Value    |
|--------------|----------|
| Entrypoint   | 0x0002   |
| Data Size    | 18 bytes |
| Instructions | 4        |

```
      00 01 02 03 04 05 06 07  08 09 0A 0B 0C 0D 0E 0F
      -- -- -- -- -- -- -- --  -- -- -- -- -- -- -- --
0000:       22 00 2F 00 F8 FF  FF 7F 6C F8 FF FF 7F 00    "./.....l.....
0010: 80 01 80 00                                       ....            
```

#### Opcodes

```
  0: 0x0002 [0x22] ENTITY_HIDE_FLAG(enabled=0x00)
  1: 0x0004 [0x2F] EventEntity->Render.Flags0 &= ~0x80000 // Bit 19
  2: 0x000A [0x6C] FADE_ENTITY_COLOR(entity_id=EventEntity, end_alpha=0*, fade_time=1*)
  3: 0x0013 [0x00] END_REQSTACK()
```

### Event 65535.3

#### Metadata

| Field        | Value    |
|--------------|----------|
| Entrypoint   | 0x0014   |
| Data Size    | 10 bytes |
| Instructions | 2        |

```
      00 01 02 03 04 05 06 07  08 09 0A 0B 0C 0D 0E 0F
      -- -- -- -- -- -- -- --  -- -- -- -- -- -- -- --
0010:             6C F8 FF FF  7F 02 80 01 80 00            l.........  
```

#### Opcodes

```
  0: 0x0014 [0x6C] FADE_ENTITY_COLOR(entity_id=EventEntity, end_alpha=128*, fade_time=1*)
  1: 0x001D [0x00] END_REQSTACK()
```

### Event 65535.4

#### Metadata

| Field        | Value   |
|--------------|---------|
| Entrypoint   | 0x001E  |
| Data Size    | 9 bytes |
| Instructions | 3       |

```
      00 01 02 03 04 05 06 07  08 09 0A 0B 0C 0D 0E 0F
      -- -- -- -- -- -- -- --  -- -- -- -- -- -- -- --
0010:                                            22 00                ".
0020: 2F 00 F8 FF FF 7F 00                              /......         
```

#### Opcodes

```
  0: 0x001E [0x22] ENTITY_HIDE_FLAG(enabled=0x00)
  1: 0x0020 [0x2F] EventEntity->Render.Flags0 &= ~0x80000 // Bit 19
  2: 0x0026 [0x00] END_REQSTACK()
```

### Event 65535.5

#### Metadata

| Field        | Value   |
|--------------|---------|
| Entrypoint   | 0x0027  |
| Data Size    | 9 bytes |
| Instructions | 3       |

```
      00 01 02 03 04 05 06 07  08 09 0A 0B 0C 0D 0E 0F
      -- -- -- -- -- -- -- --  -- -- -- -- -- -- -- --
0020:                      22  01 2F 01 F8 FF FF 7F 00         "./......
```

#### Opcodes

```
  0: 0x0027 [0x22] ENTITY_HIDE_FLAG(enabled=0x01)
  1: 0x0029 [0x2F] EventEntity->Render.Flags0 |= 0x80000 // Bit 19
  2: 0x002F [0x00] END_REQSTACK()
```

### Event 65535.6

#### Metadata

| Field        | Value    |
|--------------|----------|
| Entrypoint   | 0x0030   |
| Data Size    | 10 bytes |
| Instructions | 2        |

```
      00 01 02 03 04 05 06 07  08 09 0A 0B 0C 0D 0E 0F
      -- -- -- -- -- -- -- --  -- -- -- -- -- -- -- --
0030: 6C F8 FF FF 7F 00 80 01  80 00                    l.........      
```

#### Opcodes

```
  0: 0x0030 [0x6C] FADE_ENTITY_COLOR(entity_id=EventEntity, end_alpha=0*, fade_time=1*)
  1: 0x0039 [0x00] END_REQSTACK()
```

### Event 65535.7

#### Metadata

| Field        | Value    |
|--------------|----------|
| Entrypoint   | 0x003A   |
| Data Size    | 10 bytes |
| Instructions | 2        |

```
      00 01 02 03 04 05 06 07  08 09 0A 0B 0C 0D 0E 0F
      -- -- -- -- -- -- -- --  -- -- -- -- -- -- -- --
0030:                                6C F8 FF FF 7F 02            l.....
0040: 80 01 80 00                                       ....            
```

#### Opcodes

```
  0: 0x003A [0x6C] FADE_ENTITY_COLOR(entity_id=EventEntity, end_alpha=128*, fade_time=1*)
  1: 0x0043 [0x00] END_REQSTACK()
```

### Event 65535.8

#### Metadata

| Field        | Value    |
|--------------|----------|
| Entrypoint   | 0x0044   |
| Data Size    | 16 bytes |
| Instructions | 2        |

```
      00 01 02 03 04 05 06 07  08 09 0A 0B 0C 0D 0E 0F
      -- -- -- -- -- -- -- --  -- -- -- -- -- -- -- --
0040:             5B 03 80 F8  FF FF 7F F8 FF FF 7F 75      [..........u
0050: 73 69 30 00                                       si0.            
```

#### Opcodes

```
  0: 0x0044 [0x5B] LOAD_EXT_SCHEDULER: Load scheduler "usi0" with entities [EventEntity, EventEntity], work=905*
  1: 0x0053 [0x00] END_REQSTACK()
```

### Event 65535.9

#### Metadata

| Field        | Value    |
|--------------|----------|
| Entrypoint   | 0x0054   |
| Data Size    | 14 bytes |
| Instructions | 2        |

```
      00 01 02 03 04 05 06 07  08 09 0A 0B 0C 0D 0E 0F
      -- -- -- -- -- -- -- --  -- -- -- -- -- -- -- --
0050:             53 F8 FF FF  7F F8 FF FF 7F 75 73 69      S........usi
0060: 30 00                                             0.              
```

#### Opcodes

```
  0: 0x0054 [0x53] WAIT_SCHEDULER_TASK: Wait for scheduler "usi0" with entities [EventEntity, EventEntity]
  1: 0x0061 [0x00] END_REQSTACK()
```

### Event 65535.10

#### Metadata

| Field        | Value    |
|--------------|----------|
| Entrypoint   | 0x0062   |
| Data Size    | 16 bytes |
| Instructions | 2        |

```
      00 01 02 03 04 05 06 07  08 09 0A 0B 0C 0D 0E 0F
      -- -- -- -- -- -- -- --  -- -- -- -- -- -- -- --
0060:       5B 03 80 F8 FF FF  7F F8 FF FF 7F 68 69 6B    [..........hik
0070: 30 00                                             0.              
```

#### Opcodes

```
  0: 0x0062 [0x5B] LOAD_EXT_SCHEDULER: Load scheduler "hik0" with entities [EventEntity, EventEntity], work=905*
  1: 0x0071 [0x00] END_REQSTACK()
```

### Event 65535.11

#### Metadata

| Field        | Value    |
|--------------|----------|
| Entrypoint   | 0x0072   |
| Data Size    | 14 bytes |
| Instructions | 2        |

```
      00 01 02 03 04 05 06 07  08 09 0A 0B 0C 0D 0E 0F
      -- -- -- -- -- -- -- --  -- -- -- -- -- -- -- --
0070:       53 F8 FF FF 7F F8  FF FF 7F 68 69 6B 30 00    S........hik0.
```

#### Opcodes

```
  0: 0x0072 [0x53] WAIT_SCHEDULER_TASK: Wait for scheduler "hik0" with entities [EventEntity, EventEntity]
  1: 0x007F [0x00] END_REQSTACK()
```

### Event 65535.12

#### Metadata

| Field        | Value    |
|--------------|----------|
| Entrypoint   | 0x0080   |
| Data Size    | 16 bytes |
| Instructions | 2        |

```
      00 01 02 03 04 05 06 07  08 09 0A 0B 0C 0D 0E 0F
      -- -- -- -- -- -- -- --  -- -- -- -- -- -- -- --
0080: 5B 03 80 F8 FF FF 7F F8  FF FF 7F 68 69 6B 31 00  [..........hik1.
```

#### Opcodes

```
  0: 0x0080 [0x5B] LOAD_EXT_SCHEDULER: Load scheduler "hik1" with entities [EventEntity, EventEntity], work=905*
  1: 0x008F [0x00] END_REQSTACK()
```

### Event 65535.13

#### Metadata

| Field        | Value    |
|--------------|----------|
| Entrypoint   | 0x0090   |
| Data Size    | 14 bytes |
| Instructions | 2        |

```
      00 01 02 03 04 05 06 07  08 09 0A 0B 0C 0D 0E 0F
      -- -- -- -- -- -- -- --  -- -- -- -- -- -- -- --
0090: 53 F8 FF FF 7F F8 FF FF  7F 68 69 6B 31 00        S........hik1.  
```

#### Opcodes

```
  0: 0x0090 [0x53] WAIT_SCHEDULER_TASK: Wait for scheduler "hik1" with entities [EventEntity, EventEntity]
  1: 0x009D [0x00] END_REQSTACK()
```

### Event 65535.14

#### Metadata

| Field        | Value    |
|--------------|----------|
| Entrypoint   | 0x009E   |
| Data Size    | 16 bytes |
| Instructions | 2        |

```
      00 01 02 03 04 05 06 07  08 09 0A 0B 0C 0D 0E 0F
      -- -- -- -- -- -- -- --  -- -- -- -- -- -- -- --
0090:                                            5B 03                [.
00A0: 80 F8 FF FF 7F F8 FF FF  7F 75 64 65 30 00        .........ude0.  
```

#### Opcodes

```
  0: 0x009E [0x5B] LOAD_EXT_SCHEDULER: Load scheduler "ude0" with entities [EventEntity, EventEntity], work=905*
  1: 0x00AD [0x00] END_REQSTACK()
```

### Event 65535.15

#### Metadata

| Field        | Value    |
|--------------|----------|
| Entrypoint   | 0x00AE   |
| Data Size    | 14 bytes |
| Instructions | 2        |

```
      00 01 02 03 04 05 06 07  08 09 0A 0B 0C 0D 0E 0F
      -- -- -- -- -- -- -- --  -- -- -- -- -- -- -- --
00A0:                                            53 F8                S.
00B0: FF FF 7F F8 FF FF 7F 75  64 65 30 00              .......ude0.    
```

#### Opcodes

```
  0: 0x00AE [0x53] WAIT_SCHEDULER_TASK: Wait for scheduler "ude0" with entities [EventEntity, EventEntity]
  1: 0x00BB [0x00] END_REQSTACK()
```

### Event 65535.16

#### Metadata

| Field        | Value    |
|--------------|----------|
| Entrypoint   | 0x00BC   |
| Data Size    | 16 bytes |
| Instructions | 2        |

```
      00 01 02 03 04 05 06 07  08 09 0A 0B 0C 0D 0E 0F
      -- -- -- -- -- -- -- --  -- -- -- -- -- -- -- --
00B0:                                      5B 03 80 F8              [...
00C0: FF FF 7F F8 FF FF 7F 75  64 65 31 00              .......ude1.    
```

#### Opcodes

```
  0: 0x00BC [0x5B] LOAD_EXT_SCHEDULER: Load scheduler "ude1" with entities [EventEntity, EventEntity], work=905*
  1: 0x00CB [0x00] END_REQSTACK()
```

### Event 65535.17

#### Metadata

| Field        | Value    |
|--------------|----------|
| Entrypoint   | 0x00CC   |
| Data Size    | 14 bytes |
| Instructions | 2        |

```
      00 01 02 03 04 05 06 07  08 09 0A 0B 0C 0D 0E 0F
      -- -- -- -- -- -- -- --  -- -- -- -- -- -- -- --
00C0:                                      53 F8 FF FF              S...
00D0: 7F F8 FF FF 7F 75 64 65  31 00                    .....ude1.      
```

#### Opcodes

```
  0: 0x00CC [0x53] WAIT_SCHEDULER_TASK: Wait for scheduler "ude1" with entities [EventEntity, EventEntity]
  1: 0x00D9 [0x00] END_REQSTACK()
```

### Event 65535.18

#### Metadata

| Field        | Value    |
|--------------|----------|
| Entrypoint   | 0x00DA   |
| Data Size    | 16 bytes |
| Instructions | 2        |

```
      00 01 02 03 04 05 06 07  08 09 0A 0B 0C 0D 0E 0F
      -- -- -- -- -- -- -- --  -- -- -- -- -- -- -- --
00D0:                                5B 04 80 F8 FF FF            [.....
00E0: 7F F8 FF FF 7F 75 64 62  73 00                    .....udbs.      
```

#### Opcodes

```
  0: 0x00DA [0x5B] LOAD_EXT_SCHEDULER: Load scheduler "udbs" with entities [EventEntity, EventEntity], work=933*
  1: 0x00E9 [0x00] END_REQSTACK()
```

### Event 65535.19

#### Metadata

| Field        | Value    |
|--------------|----------|
| Entrypoint   | 0x00EA   |
| Data Size    | 14 bytes |
| Instructions | 2        |

```
      00 01 02 03 04 05 06 07  08 09 0A 0B 0C 0D 0E 0F
      -- -- -- -- -- -- -- --  -- -- -- -- -- -- -- --
00E0:                                53 F8 FF FF 7F F8            S.....
00F0: FF FF 7F 75 64 62 73 00                           ...udbs.        
```

#### Opcodes

```
  0: 0x00EA [0x53] WAIT_SCHEDULER_TASK: Wait for scheduler "udbs" with entities [EventEntity, EventEntity]
  1: 0x00F7 [0x00] END_REQSTACK()
```

### Event 65535.20

#### Metadata

| Field        | Value    |
|--------------|----------|
| Entrypoint   | 0x00F8   |
| Data Size    | 16 bytes |
| Instructions | 2        |

```
      00 01 02 03 04 05 06 07  08 09 0A 0B 0C 0D 0E 0F
      -- -- -- -- -- -- -- --  -- -- -- -- -- -- -- --
00F0:                          5B 04 80 F8 FF FF 7F F8          [.......
0100: FF FF 7F 75 64 62 31 00                           ...udb1.        
```

#### Opcodes

```
  0: 0x00F8 [0x5B] LOAD_EXT_SCHEDULER: Load scheduler "udb1" with entities [EventEntity, EventEntity], work=933*
  1: 0x0107 [0x00] END_REQSTACK()
```

### Event 65535.21

#### Metadata

| Field        | Value    |
|--------------|----------|
| Entrypoint   | 0x0108   |
| Data Size    | 14 bytes |
| Instructions | 2        |

```
      00 01 02 03 04 05 06 07  08 09 0A 0B 0C 0D 0E 0F
      -- -- -- -- -- -- -- --  -- -- -- -- -- -- -- --
0100:                          53 F8 FF FF 7F F8 FF FF          S.......
0110: 7F 75 64 62 31 00                                 .udb1.          
```

#### Opcodes

```
  0: 0x0108 [0x53] WAIT_SCHEDULER_TASK: Wait for scheduler "udb1" with entities [EventEntity, EventEntity]
  1: 0x0115 [0x00] END_REQSTACK()
```

### Event 65535.22

#### Metadata

| Field        | Value    |
|--------------|----------|
| Entrypoint   | 0x0116   |
| Data Size    | 16 bytes |
| Instructions | 2        |

```
      00 01 02 03 04 05 06 07  08 09 0A 0B 0C 0D 0E 0F
      -- -- -- -- -- -- -- --  -- -- -- -- -- -- -- --
0110:                   5B 05  80 F8 FF FF 7F F8 FF FF        [.........
0120: 7F 75 73 69 30 00                                 .usi0.          
```

#### Opcodes

```
  0: 0x0116 [0x5B] LOAD_EXT_SCHEDULER: Load scheduler "usi0" with entities [EventEntity, EventEntity], work=1069*
  1: 0x0125 [0x00] END_REQSTACK()
```

### Event 65535.23

#### Metadata

| Field        | Value    |
|--------------|----------|
| Entrypoint   | 0x0126   |
| Data Size    | 14 bytes |
| Instructions | 2        |

```
      00 01 02 03 04 05 06 07  08 09 0A 0B 0C 0D 0E 0F
      -- -- -- -- -- -- -- --  -- -- -- -- -- -- -- --
0120:                   53 F8  FF FF 7F F8 FF FF 7F 75        S........u
0130: 73 69 30 00                                       si0.            
```

#### Opcodes

```
  0: 0x0126 [0x53] WAIT_SCHEDULER_TASK: Wait for scheduler "usi0" with entities [EventEntity, EventEntity]
  1: 0x0133 [0x00] END_REQSTACK()
```

### Event 65535.24

#### Metadata

| Field        | Value    |
|--------------|----------|
| Entrypoint   | 0x0134   |
| Data Size    | 16 bytes |
| Instructions | 2        |

```
      00 01 02 03 04 05 06 07  08 09 0A 0B 0C 0D 0E 0F
      -- -- -- -- -- -- -- --  -- -- -- -- -- -- -- --
0130:             5B 06 80 F8  FF FF 7F F8 FF FF 7F 73      [..........s
0140: 74 70 30 00                                       tp0.            
```

#### Opcodes

```
  0: 0x0134 [0x5B] LOAD_EXT_SCHEDULER: Load scheduler "stp0" with entities [EventEntity, EventEntity], work=1068*
  1: 0x0143 [0x00] END_REQSTACK()
```

### Event 65535.25

#### Metadata

| Field        | Value    |
|--------------|----------|
| Entrypoint   | 0x0144   |
| Data Size    | 14 bytes |
| Instructions | 2        |

```
      00 01 02 03 04 05 06 07  08 09 0A 0B 0C 0D 0E 0F
      -- -- -- -- -- -- -- --  -- -- -- -- -- -- -- --
0140:             53 F8 FF FF  7F F8 FF FF 7F 73 74 70      S........stp
0150: 30 00                                             0.              
```

#### Opcodes

```
  0: 0x0144 [0x53] WAIT_SCHEDULER_TASK: Wait for scheduler "stp0" with entities [EventEntity, EventEntity]
  1: 0x0151 [0x00] END_REQSTACK()
```

### Event 65535.26

#### Metadata

| Field        | Value    |
|--------------|----------|
| Entrypoint   | 0x0152   |
| Data Size    | 16 bytes |
| Instructions | 2        |

```
      00 01 02 03 04 05 06 07  08 09 0A 0B 0C 0D 0E 0F
      -- -- -- -- -- -- -- --  -- -- -- -- -- -- -- --
0150:       5B 06 80 F8 FF FF  7F F8 FF FF 7F 6D 6E 30    [..........mn0
0160: 30 00                                             0.              
```

#### Opcodes

```
  0: 0x0152 [0x5B] LOAD_EXT_SCHEDULER: Load scheduler "mn00" with entities [EventEntity, EventEntity], work=1068*
  1: 0x0161 [0x00] END_REQSTACK()
```

### Event 65535.27

#### Metadata

| Field        | Value    |
|--------------|----------|
| Entrypoint   | 0x0162   |
| Data Size    | 14 bytes |
| Instructions | 2        |

```
      00 01 02 03 04 05 06 07  08 09 0A 0B 0C 0D 0E 0F
      -- -- -- -- -- -- -- --  -- -- -- -- -- -- -- --
0160:       53 F8 FF FF 7F F8  FF FF 7F 6D 6E 30 30 00    S........mn00.
```

#### Opcodes

```
  0: 0x0162 [0x53] WAIT_SCHEDULER_TASK: Wait for scheduler "mn00" with entities [EventEntity, EventEntity]
  1: 0x016F [0x00] END_REQSTACK()
```

### Event 65535.28

#### Metadata

| Field        | Value   |
|--------------|---------|
| Entrypoint   | 0x0170  |
| Data Size    | 9 bytes |
| Instructions | 3       |

```
      00 01 02 03 04 05 06 07  08 09 0A 0B 0C 0D 0E 0F
      -- -- -- -- -- -- -- --  -- -- -- -- -- -- -- --
0170: 5E 69 64 6C 30 1C 07 80  00                       ^idl0....       
```

#### Opcodes

```
  0: 0x0170 [0x5E] EventEntity goes idle (kills current action) (animation: "idl0")
  1: 0x0175 [0x1C] WAIT(60* ticks)
  2: 0x0178 [0x00] END_REQSTACK()
```

### Event 65535.29

#### Metadata

| Field        | Value    |
|--------------|----------|
| Entrypoint   | 0x0179   |
| Data Size    | 16 bytes |
| Instructions | 2        |

```
      00 01 02 03 04 05 06 07  08 09 0A 0B 0C 0D 0E 0F
      -- -- -- -- -- -- -- --  -- -- -- -- -- -- -- --
0170:                             5B 08 80 F8 FF FF 7F           [......
0180: F8 FF FF 7F 73 69 6C 30  00                       ....sil0.       
```

#### Opcodes

```
  0: 0x0179 [0x5B] LOAD_EXT_SCHEDULER: Load scheduler "sil0" with entities [EventEntity, EventEntity], work=851*
  1: 0x0188 [0x00] END_REQSTACK()
```

### Event 65535.30

#### Metadata

| Field        | Value    |
|--------------|----------|
| Entrypoint   | 0x0189   |
| Data Size    | 14 bytes |
| Instructions | 2        |

```
      00 01 02 03 04 05 06 07  08 09 0A 0B 0C 0D 0E 0F
      -- -- -- -- -- -- -- --  -- -- -- -- -- -- -- --
0180:                             53 F8 FF FF 7F F8 FF           S......
0190: FF 7F 73 69 6C 30 00                              ..sil0.         
```

#### Opcodes

```
  0: 0x0189 [0x53] WAIT_SCHEDULER_TASK: Wait for scheduler "sil0" with entities [EventEntity, EventEntity]
  1: 0x0196 [0x00] END_REQSTACK()
```

### Event 65535.31

#### Metadata

| Field        | Value    |
|--------------|----------|
| Entrypoint   | 0x0197   |
| Data Size    | 16 bytes |
| Instructions | 2        |

```
      00 01 02 03 04 05 06 07  08 09 0A 0B 0C 0D 0E 0F
      -- -- -- -- -- -- -- --  -- -- -- -- -- -- -- --
0190:                      5B  08 80 F8 FF FF 7F F8 FF         [........
01A0: FF 7F 79 61 68 30 00                              ..yah0.         
```

#### Opcodes

```
  0: 0x0197 [0x5B] LOAD_EXT_SCHEDULER: Load scheduler "yah0" with entities [EventEntity, EventEntity], work=851*
  1: 0x01A6 [0x00] END_REQSTACK()
```

### Event 65535.32

#### Metadata

| Field        | Value    |
|--------------|----------|
| Entrypoint   | 0x01A7   |
| Data Size    | 14 bytes |
| Instructions | 2        |

```
      00 01 02 03 04 05 06 07  08 09 0A 0B 0C 0D 0E 0F
      -- -- -- -- -- -- -- --  -- -- -- -- -- -- -- --
01A0:                      53  F8 FF FF 7F F8 FF FF 7F         S........
01B0: 79 61 68 30 00                                    yah0.           
```

#### Opcodes

```
  0: 0x01A7 [0x53] WAIT_SCHEDULER_TASK: Wait for scheduler "yah0" with entities [EventEntity, EventEntity]
  1: 0x01B4 [0x00] END_REQSTACK()
```

### Event 65535.33

#### Metadata

| Field        | Value    |
|--------------|----------|
| Entrypoint   | 0x01B5   |
| Data Size    | 16 bytes |
| Instructions | 2        |

```
      00 01 02 03 04 05 06 07  08 09 0A 0B 0C 0D 0E 0F
      -- -- -- -- -- -- -- --  -- -- -- -- -- -- -- --
01B0:                5B 09 80  F8 FF FF 7F F8 FF FF 7F       [..........
01C0: 74 6C 6B 30 00                                    tlk0.           
```

#### Opcodes

```
  0: 0x01B5 [0x5B] LOAD_EXT_SCHEDULER: Load scheduler "tlk0" with entities [EventEntity, EventEntity], work=858*
  1: 0x01C4 [0x00] END_REQSTACK()
```

### Event 65535.34

#### Metadata

| Field        | Value    |
|--------------|----------|
| Entrypoint   | 0x01C5   |
| Data Size    | 14 bytes |
| Instructions | 2        |

```
      00 01 02 03 04 05 06 07  08 09 0A 0B 0C 0D 0E 0F
      -- -- -- -- -- -- -- --  -- -- -- -- -- -- -- --
01C0:                53 F8 FF  FF 7F F8 FF FF 7F 74 6C       S........tl
01D0: 6B 30 00                                          k0.             
```

#### Opcodes

```
  0: 0x01C5 [0x53] WAIT_SCHEDULER_TASK: Wait for scheduler "tlk0" with entities [EventEntity, EventEntity]
  1: 0x01D2 [0x00] END_REQSTACK()
```

### Event 65535.35

#### Metadata

| Field        | Value    |
|--------------|----------|
| Entrypoint   | 0x01D3   |
| Data Size    | 16 bytes |
| Instructions | 2        |

```
      00 01 02 03 04 05 06 07  08 09 0A 0B 0C 0D 0E 0F
      -- -- -- -- -- -- -- --  -- -- -- -- -- -- -- --
01D0:          5B 09 80 F8 FF  FF 7F F8 FF FF 7F 74 6C     [..........tl
01E0: 6B 31 00                                          k1.             
```

#### Opcodes

```
  0: 0x01D3 [0x5B] LOAD_EXT_SCHEDULER: Load scheduler "tlk1" with entities [EventEntity, EventEntity], work=858*
  1: 0x01E2 [0x00] END_REQSTACK()
```

### Event 65535.36

#### Metadata

| Field        | Value    |
|--------------|----------|
| Entrypoint   | 0x01E3   |
| Data Size    | 14 bytes |
| Instructions | 2        |

```
      00 01 02 03 04 05 06 07  08 09 0A 0B 0C 0D 0E 0F
      -- -- -- -- -- -- -- --  -- -- -- -- -- -- -- --
01E0:          53 F8 FF FF 7F  F8 FF FF 7F 74 6C 6B 31     S........tlk1
01F0: 00                                                .               
```

#### Opcodes

```
  0: 0x01E3 [0x53] WAIT_SCHEDULER_TASK: Wait for scheduler "tlk1" with entities [EventEntity, EventEntity]
  1: 0x01F0 [0x00] END_REQSTACK()
```

### Event 65535.37

#### Metadata

| Field        | Value    |
|--------------|----------|
| Entrypoint   | 0x01F1   |
| Data Size    | 44 bytes |
| Instructions | 4        |

```
      00 01 02 03 04 05 06 07  08 09 0A 0B 0C 0D 0E 0F
      -- -- -- -- -- -- -- --  -- -- -- -- -- -- -- --
01F0:    5B 09 80 F8 FF FF 7F  F8 FF FF 7F 74 6C 6B 30   [..........tlk0
0200: 53 F8 FF FF 7F F8 FF FF  7F 74 6C 6B 30 5B 09 80  S........tlk0[..
0210: F8 FF FF 7F F8 FF FF 7F  74 6C 6B 31 00           ........tlk1.   
```

#### Opcodes

```
  0: 0x01F1 [0x5B] LOAD_EXT_SCHEDULER: Load scheduler "tlk0" with entities [EventEntity, EventEntity], work=858*
  1: 0x0200 [0x53] WAIT_SCHEDULER_TASK: Wait for scheduler "tlk0" with entities [EventEntity, EventEntity]
  2: 0x020D [0x5B] LOAD_EXT_SCHEDULER: Load scheduler "tlk1" with entities [EventEntity, EventEntity], work=858*
  3: 0x021C [0x00] END_REQSTACK()
```

### Event 65535.38

#### Metadata

| Field        | Value    |
|--------------|----------|
| Entrypoint   | 0x021D   |
| Data Size    | 14 bytes |
| Instructions | 2        |

```
      00 01 02 03 04 05 06 07  08 09 0A 0B 0C 0D 0E 0F
      -- -- -- -- -- -- -- --  -- -- -- -- -- -- -- --
0210:                                         53 F8 FF               S..
0220: FF 7F F8 FF FF 7F 74 6C  6B 31 00                 ......tlk1.     
```

#### Opcodes

```
  0: 0x021D [0x53] WAIT_SCHEDULER_TASK: Wait for scheduler "tlk1" with entities [EventEntity, EventEntity]
  1: 0x022A [0x00] END_REQSTACK()
```

### Event 65535.39

#### Metadata

| Field        | Value    |
|--------------|----------|
| Entrypoint   | 0x022B   |
| Data Size    | 16 bytes |
| Instructions | 2        |

```
      00 01 02 03 04 05 06 07  08 09 0A 0B 0C 0D 0E 0F
      -- -- -- -- -- -- -- --  -- -- -- -- -- -- -- --
0220:                                   5B 09 80 F8 FF             [....
0230: FF 7F F8 FF FF 7F 74 68  6B 30 00                 ......thk0.     
```

#### Opcodes

```
  0: 0x022B [0x5B] LOAD_EXT_SCHEDULER: Load scheduler "thk0" with entities [EventEntity, EventEntity], work=858*
  1: 0x023A [0x00] END_REQSTACK()
```

### Event 65535.40

#### Metadata

| Field        | Value    |
|--------------|----------|
| Entrypoint   | 0x023B   |
| Data Size    | 14 bytes |
| Instructions | 2        |

```
      00 01 02 03 04 05 06 07  08 09 0A 0B 0C 0D 0E 0F
      -- -- -- -- -- -- -- --  -- -- -- -- -- -- -- --
0230:                                   53 F8 FF FF 7F             S....
0240: F8 FF FF 7F 74 68 6B 30  00                       ....thk0.       
```

#### Opcodes

```
  0: 0x023B [0x53] WAIT_SCHEDULER_TASK: Wait for scheduler "thk0" with entities [EventEntity, EventEntity]
  1: 0x0248 [0x00] END_REQSTACK()
```

### Event 65535.41

#### Metadata

| Field        | Value    |
|--------------|----------|
| Entrypoint   | 0x0249   |
| Data Size    | 16 bytes |
| Instructions | 2        |

```
      00 01 02 03 04 05 06 07  08 09 0A 0B 0C 0D 0E 0F
      -- -- -- -- -- -- -- --  -- -- -- -- -- -- -- --
0240:                             5B 09 80 F8 FF FF 7F           [......
0250: F8 FF FF 7F 74 68 6B 31  00                       ....thk1.       
```

#### Opcodes

```
  0: 0x0249 [0x5B] LOAD_EXT_SCHEDULER: Load scheduler "thk1" with entities [EventEntity, EventEntity], work=858*
  1: 0x0258 [0x00] END_REQSTACK()
```

### Event 65535.42

#### Metadata

| Field        | Value    |
|--------------|----------|
| Entrypoint   | 0x0259   |
| Data Size    | 14 bytes |
| Instructions | 2        |

```
      00 01 02 03 04 05 06 07  08 09 0A 0B 0C 0D 0E 0F
      -- -- -- -- -- -- -- --  -- -- -- -- -- -- -- --
0250:                             53 F8 FF FF 7F F8 FF           S......
0260: FF 7F 74 68 6B 31 00                              ..thk1.         
```

#### Opcodes

```
  0: 0x0259 [0x53] WAIT_SCHEDULER_TASK: Wait for scheduler "thk1" with entities [EventEntity, EventEntity]
  1: 0x0266 [0x00] END_REQSTACK()
```

### Event 65535.43

#### Metadata

| Field        | Value    |
|--------------|----------|
| Entrypoint   | 0x0267   |
| Data Size    | 16 bytes |
| Instructions | 2        |

```
      00 01 02 03 04 05 06 07  08 09 0A 0B 0C 0D 0E 0F
      -- -- -- -- -- -- -- --  -- -- -- -- -- -- -- --
0260:                      5B  09 80 F8 FF FF 7F F8 FF         [........
0270: FF 7F 74 6B 61 30 00                              ..tka0.         
```

#### Opcodes

```
  0: 0x0267 [0x5B] LOAD_EXT_SCHEDULER: Load scheduler "tka0" with entities [EventEntity, EventEntity], work=858*
  1: 0x0276 [0x00] END_REQSTACK()
```

### Event 65535.44

#### Metadata

| Field        | Value    |
|--------------|----------|
| Entrypoint   | 0x0277   |
| Data Size    | 14 bytes |
| Instructions | 2        |

```
      00 01 02 03 04 05 06 07  08 09 0A 0B 0C 0D 0E 0F
      -- -- -- -- -- -- -- --  -- -- -- -- -- -- -- --
0270:                      53  F8 FF FF 7F F8 FF FF 7F         S........
0280: 74 6B 61 30 00                                    tka0.           
```

#### Opcodes

```
  0: 0x0277 [0x53] WAIT_SCHEDULER_TASK: Wait for scheduler "tka0" with entities [EventEntity, EventEntity]
  1: 0x0284 [0x00] END_REQSTACK()
```

### Event 65535.45

#### Metadata

| Field        | Value    |
|--------------|----------|
| Entrypoint   | 0x0285   |
| Data Size    | 16 bytes |
| Instructions | 2        |

```
      00 01 02 03 04 05 06 07  08 09 0A 0B 0C 0D 0E 0F
      -- -- -- -- -- -- -- --  -- -- -- -- -- -- -- --
0280:                5B 09 80  F8 FF FF 7F F8 FF FF 7F       [..........
0290: 74 6B 61 31 00                                    tka1.           
```

#### Opcodes

```
  0: 0x0285 [0x5B] LOAD_EXT_SCHEDULER: Load scheduler "tka1" with entities [EventEntity, EventEntity], work=858*
  1: 0x0294 [0x00] END_REQSTACK()
```

### Event 65535.46

#### Metadata

| Field        | Value    |
|--------------|----------|
| Entrypoint   | 0x0295   |
| Data Size    | 14 bytes |
| Instructions | 2        |

```
      00 01 02 03 04 05 06 07  08 09 0A 0B 0C 0D 0E 0F
      -- -- -- -- -- -- -- --  -- -- -- -- -- -- -- --
0290:                53 F8 FF  FF 7F F8 FF FF 7F 74 6B       S........tk
02A0: 61 31 00                                          a1.             
```

#### Opcodes

```
  0: 0x0295 [0x53] WAIT_SCHEDULER_TASK: Wait for scheduler "tka1" with entities [EventEntity, EventEntity]
  1: 0x02A2 [0x00] END_REQSTACK()
```

### Event 65535.47

#### Metadata

| Field        | Value    |
|--------------|----------|
| Entrypoint   | 0x02A3   |
| Data Size    | 16 bytes |
| Instructions | 2        |

```
      00 01 02 03 04 05 06 07  08 09 0A 0B 0C 0D 0E 0F
      -- -- -- -- -- -- -- --  -- -- -- -- -- -- -- --
02A0:          5B 09 80 F8 FF  FF 7F F8 FF FF 7F 74 75     [..........tu
02B0: 6E 30 00                                          n0.             
```

#### Opcodes

```
  0: 0x02A3 [0x5B] LOAD_EXT_SCHEDULER: Load scheduler "tun0" with entities [EventEntity, EventEntity], work=858*
  1: 0x02B2 [0x00] END_REQSTACK()
```

### Event 65535.48

#### Metadata

| Field        | Value    |
|--------------|----------|
| Entrypoint   | 0x02B3   |
| Data Size    | 14 bytes |
| Instructions | 2        |

```
      00 01 02 03 04 05 06 07  08 09 0A 0B 0C 0D 0E 0F
      -- -- -- -- -- -- -- --  -- -- -- -- -- -- -- --
02B0:          53 F8 FF FF 7F  F8 FF FF 7F 74 75 6E 30     S........tun0
02C0: 00                                                .               
```

#### Opcodes

```
  0: 0x02B3 [0x53] WAIT_SCHEDULER_TASK: Wait for scheduler "tun0" with entities [EventEntity, EventEntity]
  1: 0x02C0 [0x00] END_REQSTACK()
```

### Event 65535.49

#### Metadata

| Field        | Value    |
|--------------|----------|
| Entrypoint   | 0x02C1   |
| Data Size    | 16 bytes |
| Instructions | 2        |

```
      00 01 02 03 04 05 06 07  08 09 0A 0B 0C 0D 0E 0F
      -- -- -- -- -- -- -- --  -- -- -- -- -- -- -- --
02C0:    5B 09 80 F8 FF FF 7F  F8 FF FF 7F 74 75 6E 31   [..........tun1
02D0: 00                                                .               
```

#### Opcodes

```
  0: 0x02C1 [0x5B] LOAD_EXT_SCHEDULER: Load scheduler "tun1" with entities [EventEntity, EventEntity], work=858*
  1: 0x02D0 [0x00] END_REQSTACK()
```

### Event 65535.50

#### Metadata

| Field        | Value    |
|--------------|----------|
| Entrypoint   | 0x02D1   |
| Data Size    | 14 bytes |
| Instructions | 2        |

```
      00 01 02 03 04 05 06 07  08 09 0A 0B 0C 0D 0E 0F
      -- -- -- -- -- -- -- --  -- -- -- -- -- -- -- --
02D0:    53 F8 FF FF 7F F8 FF  FF 7F 74 75 6E 31 00      S........tun1. 
```

#### Opcodes

```
  0: 0x02D1 [0x53] WAIT_SCHEDULER_TASK: Wait for scheduler "tun1" with entities [EventEntity, EventEntity]
  1: 0x02DE [0x00] END_REQSTACK()
```

### Event 65535.51

#### Metadata

| Field        | Value    |
|--------------|----------|
| Entrypoint   | 0x02DF   |
| Data Size    | 16 bytes |
| Instructions | 2        |

```
      00 01 02 03 04 05 06 07  08 09 0A 0B 0C 0D 0E 0F
      -- -- -- -- -- -- -- --  -- -- -- -- -- -- -- --
02D0:                                               5B                 [
02E0: 09 80 F8 FF FF 7F F8 FF  FF 7F 79 61 68 63 00     ..........yahc. 
```

#### Opcodes

```
  0: 0x02DF [0x5B] LOAD_EXT_SCHEDULER: Load scheduler "yahc" with entities [EventEntity, EventEntity], work=858*
  1: 0x02EE [0x00] END_REQSTACK()
```

### Event 65535.52

#### Metadata

| Field        | Value    |
|--------------|----------|
| Entrypoint   | 0x02EF   |
| Data Size    | 14 bytes |
| Instructions | 2        |

```
      00 01 02 03 04 05 06 07  08 09 0A 0B 0C 0D 0E 0F
      -- -- -- -- -- -- -- --  -- -- -- -- -- -- -- --
02E0:                                               53                 S
02F0: F8 FF FF 7F F8 FF FF 7F  79 61 68 63 00           ........yahc.   
```

#### Opcodes

```
  0: 0x02EF [0x53] WAIT_SCHEDULER_TASK: Wait for scheduler "yahc" with entities [EventEntity, EventEntity]
  1: 0x02FC [0x00] END_REQSTACK()
```

### Event 65535.53

#### Metadata

| Field        | Value    |
|--------------|----------|
| Entrypoint   | 0x02FD   |
| Data Size    | 16 bytes |
| Instructions | 2        |

```
      00 01 02 03 04 05 06 07  08 09 0A 0B 0C 0D 0E 0F
      -- -- -- -- -- -- -- --  -- -- -- -- -- -- -- --
02F0:                                         5B 0A 80               [..
0300: F8 FF FF 7F F8 FF FF 7F  6B 6F 75 30 00           ........kou0.   
```

#### Opcodes

```
  0: 0x02FD [0x5B] LOAD_EXT_SCHEDULER: Load scheduler "kou0" with entities [EventEntity, EventEntity], work=906*
  1: 0x030C [0x00] END_REQSTACK()
```

### Event 65535.54

#### Metadata

| Field        | Value    |
|--------------|----------|
| Entrypoint   | 0x030D   |
| Data Size    | 14 bytes |
| Instructions | 2        |

```
      00 01 02 03 04 05 06 07  08 09 0A 0B 0C 0D 0E 0F
      -- -- -- -- -- -- -- --  -- -- -- -- -- -- -- --
0300:                                         53 F8 FF               S..
0310: FF 7F F8 FF FF 7F 6B 6F  75 30 00                 ......kou0.     
```

#### Opcodes

```
  0: 0x030D [0x53] WAIT_SCHEDULER_TASK: Wait for scheduler "kou0" with entities [EventEntity, EventEntity]
  1: 0x031A [0x00] END_REQSTACK()
```

### Event 65535.55

#### Metadata

| Field        | Value    |
|--------------|----------|
| Entrypoint   | 0x031B   |
| Data Size    | 16 bytes |
| Instructions | 2        |

```
      00 01 02 03 04 05 06 07  08 09 0A 0B 0C 0D 0E 0F
      -- -- -- -- -- -- -- --  -- -- -- -- -- -- -- --
0310:                                   5B 0A 80 F8 FF             [....
0320: FF 7F F8 FF FF 7F 6B 6F  75 31 00                 ......kou1.     
```

#### Opcodes

```
  0: 0x031B [0x5B] LOAD_EXT_SCHEDULER: Load scheduler "kou1" with entities [EventEntity, EventEntity], work=906*
  1: 0x032A [0x00] END_REQSTACK()
```

### Event 65535.56

#### Metadata

| Field        | Value    |
|--------------|----------|
| Entrypoint   | 0x032B   |
| Data Size    | 14 bytes |
| Instructions | 2        |

```
      00 01 02 03 04 05 06 07  08 09 0A 0B 0C 0D 0E 0F
      -- -- -- -- -- -- -- --  -- -- -- -- -- -- -- --
0320:                                   53 F8 FF FF 7F             S....
0330: F8 FF FF 7F 6B 6F 75 31  00                       ....kou1.       
```

#### Opcodes

```
  0: 0x032B [0x53] WAIT_SCHEDULER_TASK: Wait for scheduler "kou1" with entities [EventEntity, EventEntity]
  1: 0x0338 [0x00] END_REQSTACK()
```

### Event 65535.57

#### Metadata

| Field        | Value    |
|--------------|----------|
| Entrypoint   | 0x0339   |
| Data Size    | 16 bytes |
| Instructions | 2        |

```
      00 01 02 03 04 05 06 07  08 09 0A 0B 0C 0D 0E 0F
      -- -- -- -- -- -- -- --  -- -- -- -- -- -- -- --
0330:                             5B 0A 80 F8 FF FF 7F           [......
0340: F8 FF FF 7F 69 79 61 30  00                       ....iya0.       
```

#### Opcodes

```
  0: 0x0339 [0x5B] LOAD_EXT_SCHEDULER: Load scheduler "iya0" with entities [EventEntity, EventEntity], work=906*
  1: 0x0348 [0x00] END_REQSTACK()
```

### Event 65535.58

#### Metadata

| Field        | Value    |
|--------------|----------|
| Entrypoint   | 0x0349   |
| Data Size    | 14 bytes |
| Instructions | 2        |

```
      00 01 02 03 04 05 06 07  08 09 0A 0B 0C 0D 0E 0F
      -- -- -- -- -- -- -- --  -- -- -- -- -- -- -- --
0340:                             53 F8 FF FF 7F F8 FF           S......
0350: FF 7F 69 79 61 30 00                              ..iya0.         
```

#### Opcodes

```
  0: 0x0349 [0x53] WAIT_SCHEDULER_TASK: Wait for scheduler "iya0" with entities [EventEntity, EventEntity]
  1: 0x0356 [0x00] END_REQSTACK()
```

### Event 65535.59

#### Metadata

| Field        | Value    |
|--------------|----------|
| Entrypoint   | 0x0357   |
| Data Size    | 16 bytes |
| Instructions | 2        |

```
      00 01 02 03 04 05 06 07  08 09 0A 0B 0C 0D 0E 0F
      -- -- -- -- -- -- -- --  -- -- -- -- -- -- -- --
0350:                      5B  0A 80 F8 FF FF 7F F8 FF         [........
0360: FF 7F 79 65 73 30 00                              ..yes0.         
```

#### Opcodes

```
  0: 0x0357 [0x5B] LOAD_EXT_SCHEDULER: Load scheduler "yes0" with entities [EventEntity, EventEntity], work=906*
  1: 0x0366 [0x00] END_REQSTACK()
```

### Event 65535.60

#### Metadata

| Field        | Value    |
|--------------|----------|
| Entrypoint   | 0x0367   |
| Data Size    | 14 bytes |
| Instructions | 2        |

```
      00 01 02 03 04 05 06 07  08 09 0A 0B 0C 0D 0E 0F
      -- -- -- -- -- -- -- --  -- -- -- -- -- -- -- --
0360:                      53  F8 FF FF 7F F8 FF FF 7F         S........
0370: 79 65 73 30 00                                    yes0.           
```

#### Opcodes

```
  0: 0x0367 [0x53] WAIT_SCHEDULER_TASK: Wait for scheduler "yes0" with entities [EventEntity, EventEntity]
  1: 0x0374 [0x00] END_REQSTACK()
```

### Event 65535.61

#### Metadata

| Field        | Value    |
|--------------|----------|
| Entrypoint   | 0x0375   |
| Data Size    | 16 bytes |
| Instructions | 2        |

```
      00 01 02 03 04 05 06 07  08 09 0A 0B 0C 0D 0E 0F
      -- -- -- -- -- -- -- --  -- -- -- -- -- -- -- --
0370:                5B 0A 80  F8 FF FF 7F F8 FF FF 7F       [..........
0380: 6E 6F 30 30 00                                    no00.           
```

#### Opcodes

```
  0: 0x0375 [0x5B] LOAD_EXT_SCHEDULER: Load scheduler "no00" with entities [EventEntity, EventEntity], work=906*
  1: 0x0384 [0x00] END_REQSTACK()
```

### Event 65535.62

#### Metadata

| Field        | Value    |
|--------------|----------|
| Entrypoint   | 0x0385   |
| Data Size    | 14 bytes |
| Instructions | 2        |

```
      00 01 02 03 04 05 06 07  08 09 0A 0B 0C 0D 0E 0F
      -- -- -- -- -- -- -- --  -- -- -- -- -- -- -- --
0380:                53 F8 FF  FF 7F F8 FF FF 7F 6E 6F       S........no
0390: 30 30 00                                          00.             
```

#### Opcodes

```
  0: 0x0385 [0x53] WAIT_SCHEDULER_TASK: Wait for scheduler "no00" with entities [EventEntity, EventEntity]
  1: 0x0392 [0x00] END_REQSTACK()
```

### Event 65535.63

#### Metadata

| Field        | Value    |
|--------------|----------|
| Entrypoint   | 0x0393   |
| Data Size    | 16 bytes |
| Instructions | 2        |

```
      00 01 02 03 04 05 06 07  08 09 0A 0B 0C 0D 0E 0F
      -- -- -- -- -- -- -- --  -- -- -- -- -- -- -- --
0390:          5B 0A 80 F8 FF  FF 7F F8 FF FF 7F 73 65     [..........se
03A0: 63 30 00                                          c0.             
```

#### Opcodes

```
  0: 0x0393 [0x5B] LOAD_EXT_SCHEDULER: Load scheduler "sec0" with entities [EventEntity, EventEntity], work=906*
  1: 0x03A2 [0x00] END_REQSTACK()
```

### Event 65535.64

#### Metadata

| Field        | Value    |
|--------------|----------|
| Entrypoint   | 0x03A3   |
| Data Size    | 14 bytes |
| Instructions | 2        |

```
      00 01 02 03 04 05 06 07  08 09 0A 0B 0C 0D 0E 0F
      -- -- -- -- -- -- -- --  -- -- -- -- -- -- -- --
03A0:          53 F8 FF FF 7F  F8 FF FF 7F 73 65 63 30     S........sec0
03B0: 00                                                .               
```

#### Opcodes

```
  0: 0x03A3 [0x53] WAIT_SCHEDULER_TASK: Wait for scheduler "sec0" with entities [EventEntity, EventEntity]
  1: 0x03B0 [0x00] END_REQSTACK()
```

### Event 65535.65

#### Metadata

| Field        | Value    |
|--------------|----------|
| Entrypoint   | 0x03B1   |
| Data Size    | 16 bytes |
| Instructions | 2        |

```
      00 01 02 03 04 05 06 07  08 09 0A 0B 0C 0D 0E 0F
      -- -- -- -- -- -- -- --  -- -- -- -- -- -- -- --
03B0:    5B 0A 80 F8 FF FF 7F  F8 FF FF 7F 73 65 63 31   [..........sec1
03C0: 00                                                .               
```

#### Opcodes

```
  0: 0x03B1 [0x5B] LOAD_EXT_SCHEDULER: Load scheduler "sec1" with entities [EventEntity, EventEntity], work=906*
  1: 0x03C0 [0x00] END_REQSTACK()
```

### Event 65535.66

#### Metadata

| Field        | Value    |
|--------------|----------|
| Entrypoint   | 0x03C1   |
| Data Size    | 14 bytes |
| Instructions | 2        |

```
      00 01 02 03 04 05 06 07  08 09 0A 0B 0C 0D 0E 0F
      -- -- -- -- -- -- -- --  -- -- -- -- -- -- -- --
03C0:    53 F8 FF FF 7F F8 FF  FF 7F 73 65 63 31 00      S........sec1. 
```

#### Opcodes

```
  0: 0x03C1 [0x53] WAIT_SCHEDULER_TASK: Wait for scheduler "sec1" with entities [EventEntity, EventEntity]
  1: 0x03CE [0x00] END_REQSTACK()
```

### Event 65535.67

#### Metadata

| Field        | Value    |
|--------------|----------|
| Entrypoint   | 0x03CF   |
| Data Size    | 16 bytes |
| Instructions | 2        |

```
      00 01 02 03 04 05 06 07  08 09 0A 0B 0C 0D 0E 0F
      -- -- -- -- -- -- -- --  -- -- -- -- -- -- -- --
03C0:                                               5B                 [
03D0: 0B 80 F8 FF FF 7F F8 FF  FF 7F 69 74 6D 30 00     ..........itm0. 
```

#### Opcodes

```
  0: 0x03CF [0x5B] LOAD_EXT_SCHEDULER: Load scheduler "itm0" with entities [EventEntity, EventEntity], work=907*
  1: 0x03DE [0x00] END_REQSTACK()
```

### Event 65535.68

#### Metadata

| Field        | Value    |
|--------------|----------|
| Entrypoint   | 0x03DF   |
| Data Size    | 14 bytes |
| Instructions | 2        |

```
      00 01 02 03 04 05 06 07  08 09 0A 0B 0C 0D 0E 0F
      -- -- -- -- -- -- -- --  -- -- -- -- -- -- -- --
03D0:                                               53                 S
03E0: F8 FF FF 7F F8 FF FF 7F  69 74 6D 30 00           ........itm0.   
```

#### Opcodes

```
  0: 0x03DF [0x53] WAIT_SCHEDULER_TASK: Wait for scheduler "itm0" with entities [EventEntity, EventEntity]
  1: 0x03EC [0x00] END_REQSTACK()
```

### Event 65535.69

#### Metadata

| Field        | Value    |
|--------------|----------|
| Entrypoint   | 0x03ED   |
| Data Size    | 16 bytes |
| Instructions | 2        |

```
      00 01 02 03 04 05 06 07  08 09 0A 0B 0C 0D 0E 0F
      -- -- -- -- -- -- -- --  -- -- -- -- -- -- -- --
03E0:                                         5B 06 80               [..
03F0: F8 FF FF 7F F8 FF FF 7F  6B 69 73 30 00           ........kis0.   
```

#### Opcodes

```
  0: 0x03ED [0x5B] LOAD_EXT_SCHEDULER: Load scheduler "kis0" with entities [EventEntity, EventEntity], work=1068*
  1: 0x03FC [0x00] END_REQSTACK()
```

### Event 65535.70

#### Metadata

| Field        | Value    |
|--------------|----------|
| Entrypoint   | 0x03FD   |
| Data Size    | 14 bytes |
| Instructions | 2        |

```
      00 01 02 03 04 05 06 07  08 09 0A 0B 0C 0D 0E 0F
      -- -- -- -- -- -- -- --  -- -- -- -- -- -- -- --
03F0:                                         53 F8 FF               S..
0400: FF 7F F8 FF FF 7F 6B 69  73 30 00                 ......kis0.     
```

#### Opcodes

```
  0: 0x03FD [0x53] WAIT_SCHEDULER_TASK: Wait for scheduler "kis0" with entities [EventEntity, EventEntity]
  1: 0x040A [0x00] END_REQSTACK()
```

### Event 65535.71

#### Metadata

| Field        | Value    |
|--------------|----------|
| Entrypoint   | 0x040B   |
| Data Size    | 16 bytes |
| Instructions | 2        |

```
      00 01 02 03 04 05 06 07  08 09 0A 0B 0C 0D 0E 0F
      -- -- -- -- -- -- -- --  -- -- -- -- -- -- -- --
0400:                                   5B 06 80 F8 FF             [....
0410: FF 7F F8 FF FF 7F 6B 69  73 31 00                 ......kis1.     
```

#### Opcodes

```
  0: 0x040B [0x5B] LOAD_EXT_SCHEDULER: Load scheduler "kis1" with entities [EventEntity, EventEntity], work=1068*
  1: 0x041A [0x00] END_REQSTACK()
```

### Event 65535.72

#### Metadata

| Field        | Value    |
|--------------|----------|
| Entrypoint   | 0x041B   |
| Data Size    | 14 bytes |
| Instructions | 2        |

```
      00 01 02 03 04 05 06 07  08 09 0A 0B 0C 0D 0E 0F
      -- -- -- -- -- -- -- --  -- -- -- -- -- -- -- --
0410:                                   53 F8 FF FF 7F             S....
0420: F8 FF FF 7F 6B 69 73 31  00                       ....kis1.       
```

#### Opcodes

```
  0: 0x041B [0x53] WAIT_SCHEDULER_TASK: Wait for scheduler "kis1" with entities [EventEntity, EventEntity]
  1: 0x0428 [0x00] END_REQSTACK()
```

### Event 65535.73

#### Metadata

| Field        | Value    |
|--------------|----------|
| Entrypoint   | 0x0429   |
| Data Size    | 57 bytes |
| Instructions | 5        |

```
      00 01 02 03 04 05 06 07  08 09 0A 0B 0C 0D 0E 0F
      -- -- -- -- -- -- -- --  -- -- -- -- -- -- -- --
0420:                             5B 06 80 F8 FF FF 7F           [......
0430: F8 FF FF 7F 6B 69 73 30  53 F8 FF FF 7F F8 FF FF  ....kis0S.......
0440: 7F 6B 69 73 30 5B 06 80  F8 FF FF 7F F8 FF FF 7F  .kis0[..........
0450: 6B 69 73 31 53 F8 FF FF  7F F8 FF FF 7F 6B 69 73  kis1S........kis
0460: 31 00                                             1.              
```

#### Opcodes

```
  0: 0x0429 [0x5B] LOAD_EXT_SCHEDULER: Load scheduler "kis0" with entities [EventEntity, EventEntity], work=1068*
  1: 0x0438 [0x53] WAIT_SCHEDULER_TASK: Wait for scheduler "kis0" with entities [EventEntity, EventEntity]
  2: 0x0445 [0x5B] LOAD_EXT_SCHEDULER: Load scheduler "kis1" with entities [EventEntity, EventEntity], work=1068*
  3: 0x0454 [0x53] WAIT_SCHEDULER_TASK: Wait for scheduler "kis1" with entities [EventEntity, EventEntity]
  4: 0x0461 [0x00] END_REQSTACK()
```

### Event 21

#### Metadata

| Field        | Value   |
|--------------|---------|
| Entrypoint   | 0x0462  |
| Data Size    | 1 bytes |
| Instructions | 1       |

```
      00 01 02 03 04 05 06 07  08 09 0A 0B 0C 0D 0E 0F
      -- -- -- -- -- -- -- --  -- -- -- -- -- -- -- --
0460:       00                                            .             
```

#### Opcodes

```
  0: 0x0462 [0x00] END_REQSTACK()
```

### Event 65535.74

#### Metadata

| Field        | Value    |
|--------------|----------|
| Entrypoint   | 0x0463   |
| Data Size    | 10 bytes |
| Instructions | 2        |

```
      00 01 02 03 04 05 06 07  08 09 0A 0B 0C 0D 0E 0F
      -- -- -- -- -- -- -- --  -- -- -- -- -- -- -- --
0460:          37 0C 80 0D 80  0E 80 0F 80 00              7.........   
```

#### Opcodes

```
  0: 0x0463 [0x37] UPDATE_EVENT_POSITION_AND_DIR: x=9.061*, z=20.578*, y=-22.000*, direction=15.8*
  1: 0x046C [0x00] END_REQSTACK()
```

### Event 65535.75

#### Metadata

| Field        | Value    |
|--------------|----------|
| Entrypoint   | 0x046D   |
| Data Size    | 12 bytes |
| Instructions | 3        |

```
      00 01 02 03 04 05 06 07  08 09 0A 0B 0C 0D 0E 0F
      -- -- -- -- -- -- -- --  -- -- -- -- -- -- -- --
0460:                                         33 01 37               3.7
0470: 10 80 11 80 12 80 13 80  00                       .........       
```

#### Opcodes

```
  0: 0x046D [0x33] EventEntity->Render.Flags0 |= 0x200000 // Bit 21 (flag=0x01)
  1: 0x046F [0x37] UPDATE_EVENT_POSITION_AND_DIR: x=189.378*, z=-383.154*, y=-15.140*, direction=180.0*
  2: 0x0478 [0x00] END_REQSTACK()
```

### Event 65535.76

#### Metadata

| Field        | Value    |
|--------------|----------|
| Entrypoint   | 0x0479   |
| Data Size    | 10 bytes |
| Instructions | 2        |

```
      00 01 02 03 04 05 06 07  08 09 0A 0B 0C 0D 0E 0F
      -- -- -- -- -- -- -- --  -- -- -- -- -- -- -- --
0470:                             37 14 80 15 80 16 80           7......
0480: 17 80 00                                          ...             
```

#### Opcodes

```
  0: 0x0479 [0x37] UPDATE_EVENT_POSITION_AND_DIR: x=228.986*, z=-370.956*, y=-4.556*, direction=174.6*
  1: 0x0482 [0x00] END_REQSTACK()
```

### Event 65535.77

#### Metadata

| Field        | Value    |
|--------------|----------|
| Entrypoint   | 0x0483   |
| Data Size    | 18 bytes |
| Instructions | 6        |

```
      00 01 02 03 04 05 06 07  08 09 0A 0B 0C 0D 0E 0F
      -- -- -- -- -- -- -- --  -- -- -- -- -- -- -- --
0480:          1C 18 80 32 19  80 1F 00 1A 80 1B 80 1C     ...2.........
0490: 80 1F 01 6F 00                                    ...o.           
```

#### Opcodes

```
  0: 0x0483 [0x1C] WAIT(15* ticks)
  1: 0x0486 [0x32] ExtData[1]->MainSpeed = 40* * 0.1
  2: 0x0489 [0x1F] MOVE_ENTITY: EventEntity moves to X=221.256*, Z=-370.803*, Y=-4.549*
  3: 0x0491 [0x1F] MOVE_ENTITY: Update entity position (mode=1)
  4: 0x0493 [0x6F] WAIT_FRAME_DELAY: Yield until WaitTime reaches zero
  5: 0x0494 [0x00] END_REQSTACK()
```

### Event 65535.78

#### Metadata

| Field        | Value    |
|--------------|----------|
| Entrypoint   | 0x0495   |
| Data Size    | 10 bytes |
| Instructions | 2        |

```
      00 01 02 03 04 05 06 07  08 09 0A 0B 0C 0D 0E 0F
      -- -- -- -- -- -- -- --  -- -- -- -- -- -- -- --
0490:                37 1D 80  1E 80 1F 80 20 80 00          7...... .. 
```

#### Opcodes

```
  0: 0x0495 [0x37] UPDATE_EVENT_POSITION_AND_DIR: x=214.992*, z=-375.152*, y=-4.240*, direction=147.2*
  1: 0x049E [0x00] END_REQSTACK()
```

### Event 65535.79

#### Metadata

| Field        | Value    |
|--------------|----------|
| Entrypoint   | 0x049F   |
| Data Size    | 10 bytes |
| Instructions | 2        |

```
      00 01 02 03 04 05 06 07  08 09 0A 0B 0C 0D 0E 0F
      -- -- -- -- -- -- -- --  -- -- -- -- -- -- -- --
0490:                                               37                 7
04A0: 21 80 22 80 23 80 24 80  00                       !.".#.$..       
```

#### Opcodes

```
  0: 0x049F [0x37] UPDATE_EVENT_POSITION_AND_DIR: x=184.447*, z=-380.761*, y=-15.126*, direction=45.1*
  1: 0x04A8 [0x00] END_REQSTACK()
```

### Event 65535.80

#### Metadata

| Field        | Value    |
|--------------|----------|
| Entrypoint   | 0x04A9   |
| Data Size    | 10 bytes |
| Instructions | 2        |

```
      00 01 02 03 04 05 06 07  08 09 0A 0B 0C 0D 0E 0F
      -- -- -- -- -- -- -- --  -- -- -- -- -- -- -- --
04A0:                             37 25 80 26 80 27 80           7%.&.'.
04B0: 13 80 00                                          ...             
```

#### Opcodes

```
  0: 0x04A9 [0x37] UPDATE_EVENT_POSITION_AND_DIR: x=188.944*, z=-384.904*, y=-15.461*, direction=180.0*
  1: 0x04B2 [0x00] END_REQSTACK()
```

### Event 65535.81

#### Metadata

| Field        | Value    |
|--------------|----------|
| Entrypoint   | 0x04B3   |
| Data Size    | 12 bytes |
| Instructions | 3        |

```
      00 01 02 03 04 05 06 07  08 09 0A 0B 0C 0D 0E 0F
      -- -- -- -- -- -- -- --  -- -- -- -- -- -- -- --
04B0:          33 01 37 10 80  11 80 28 80 13 80 00        3.7....(.... 
```

#### Opcodes

```
  0: 0x04B3 [0x33] EventEntity->Render.Flags0 |= 0x200000 // Bit 21 (flag=0x01)
  1: 0x04B5 [0x37] UPDATE_EVENT_POSITION_AND_DIR: x=189.378*, z=-383.154*, y=-15.200*, direction=180.0*
  2: 0x04BE [0x00] END_REQSTACK()
```

### Event 65535.82

#### Metadata

| Field        | Value   |
|--------------|---------|
| Entrypoint   | 0x04BF  |
| Data Size    | 4 bytes |
| Instructions | 2       |

```
      00 01 02 03 04 05 06 07  08 09 0A 0B 0C 0D 0E 0F
      -- -- -- -- -- -- -- --  -- -- -- -- -- -- -- --
04B0:                                               C0                 .
04C0: 01 80 00                                          ...             
```

#### Opcodes

```
  0: 0x04BF [0xC0] EventEntity->Render.Flags3 |= 0x1000 // Set bit 12 (from 1*)
  1: 0x04C2 [0x00] END_REQSTACK()
```

### Event 310

#### Metadata

| Field        | Value   |
|--------------|---------|
| Entrypoint   | 0x04C3  |
| Data Size    | 7 bytes |
| Instructions | 2       |

```
      00 01 02 03 04 05 06 07  08 09 0A 0B 0C 0D 0E 0F
      -- -- -- -- -- -- -- --  -- -- -- -- -- -- -- --
04C0:          92 01 F8 FF FF  7F 00                       .......      
```

#### Opcodes

```
  0: 0x04C3 [0x92] EventEntity->Render.Flags3 ^= 0x01
  1: 0x04C9 [0x00] END_REQSTACK()
```

### Event 65535.83

#### Metadata

| Field        | Value    |
|--------------|----------|
| Entrypoint   | 0x04CA   |
| Data Size    | 22 bytes |
| Instructions | 8        |

```
      00 01 02 03 04 05 06 07  08 09 0A 0B 0C 0D 0E 0F
      -- -- -- -- -- -- -- --  -- -- -- -- -- -- -- --
04C0:                                32 29 80 1F 00 2A            2)...*
04D0: 80 2B 80 2C 80 1F 01 6F  1E 63 F2 04 01 6F 70 00  .+.,...o.c...op.
```

#### Opcodes

```
  0: 0x04CA [0x32] ExtData[1]->MainSpeed = 13* * 0.1
  1: 0x04CD [0x1F] MOVE_ENTITY: EventEntity moves to X=-451.865*, Z=-600.487*, Y=8.239*
  2: 0x04D5 [0x1F] MOVE_ENTITY: Update entity position (mode=1)
  3: 0x04D7 [0x6F] WAIT_FRAME_DELAY: Yield until WaitTime reaches zero
  4: 0x04D8 [0x1E] EventEntity looks at Uran-Mafran (ID: 17101411/0x0104F263) and starts talking
  5: 0x04DD [0x6F] WAIT_FRAME_DELAY: Yield until WaitTime reaches zero
  6: 0x04DE [0x70] WAIT_ENTITY_RENDER_FLAG: Wait while EventEntity->Render.Flags3 bit 2 is set (cancel turn if not)
  7: 0x04DF [0x00] END_REQSTACK()
```

### Event 65535.84

#### Metadata

| Field        | Value    |
|--------------|----------|
| Entrypoint   | 0x04E0   |
| Data Size    | 15 bytes |
| Instructions | 5        |

```
      00 01 02 03 04 05 06 07  08 09 0A 0B 0C 0D 0E 0F
      -- -- -- -- -- -- -- --  -- -- -- -- -- -- -- --
04E0: 32 29 80 1F 00 2D 80 2E  80 2F 80 1F 01 6F 00     2)...-.../...o. 
```

#### Opcodes

```
  0: 0x04E0 [0x32] ExtData[1]->MainSpeed = 13* * 0.1
  1: 0x04E3 [0x1F] MOVE_ENTITY: EventEntity moves to X=-451.979*, Z=-599.596*, Y=8.247*
  2: 0x04EB [0x1F] MOVE_ENTITY: Update entity position (mode=1)
  3: 0x04ED [0x6F] WAIT_FRAME_DELAY: Yield until WaitTime reaches zero
  4: 0x04EE [0x00] END_REQSTACK()
```

### Event 311

#### Metadata

| Field        | Value   |
|--------------|---------|
| Entrypoint   | 0x04EF  |
| Data Size    | 7 bytes |
| Instructions | 2       |

```
      00 01 02 03 04 05 06 07  08 09 0A 0B 0C 0D 0E 0F
      -- -- -- -- -- -- -- --  -- -- -- -- -- -- -- --
04E0:                                               92                 .
04F0: 01 F8 FF FF 7F 00                                 ......          
```

#### Opcodes

```
  0: 0x04EF [0x92] EventEntity->Render.Flags3 ^= 0x01
  1: 0x04F5 [0x00] END_REQSTACK()
```

### Event 65535.85

#### Metadata

| Field        | Value    |
|--------------|----------|
| Entrypoint   | 0x04F6   |
| Data Size    | 15 bytes |
| Instructions | 5        |

```
      00 01 02 03 04 05 06 07  08 09 0A 0B 0C 0D 0E 0F
      -- -- -- -- -- -- -- --  -- -- -- -- -- -- -- --
04F0:                   32 19  80 1F 00 30 80 31 80 32        2....0.1.2
0500: 80 1F 01 6F 00                                    ...o.           
```

#### Opcodes

```
  0: 0x04F6 [0x32] ExtData[1]->MainSpeed = 40* * 0.1
  1: 0x04F9 [0x1F] MOVE_ENTITY: EventEntity moves to X=-450.383*, Z=-594.565*, Y=8.249*
  2: 0x0501 [0x1F] MOVE_ENTITY: Update entity position (mode=1)
  3: 0x0503 [0x6F] WAIT_FRAME_DELAY: Yield until WaitTime reaches zero
  4: 0x0504 [0x00] END_REQSTACK()
```

### Event 65535.86

#### Metadata

| Field        | Value    |
|--------------|----------|
| Entrypoint   | 0x0505   |
| Data Size    | 15 bytes |
| Instructions | 5        |

```
      00 01 02 03 04 05 06 07  08 09 0A 0B 0C 0D 0E 0F
      -- -- -- -- -- -- -- --  -- -- -- -- -- -- -- --
0500:                32 19 80  1F 00 33 80 34 80 32 80       2....3.4.2.
0510: 1F 01 6F 00                                       ..o.            
```

#### Opcodes

```
  0: 0x0505 [0x32] ExtData[1]->MainSpeed = 40* * 0.1
  1: 0x0508 [0x1F] MOVE_ENTITY: EventEntity moves to X=-451.275*, Z=-598.140*, Y=8.249*
  2: 0x0510 [0x1F] MOVE_ENTITY: Update entity position (mode=1)
  3: 0x0512 [0x6F] WAIT_FRAME_DELAY: Yield until WaitTime reaches zero
  4: 0x0513 [0x00] END_REQSTACK()
```

### Event 65535.87

#### Metadata

| Field        | Value    |
|--------------|----------|
| Entrypoint   | 0x0514   |
| Data Size    | 25 bytes |
| Instructions | 7        |

```
      00 01 02 03 04 05 06 07  08 09 0A 0B 0C 0D 0E 0F
      -- -- -- -- -- -- -- --  -- -- -- -- -- -- -- --
0510:             32 19 80 1F  00 35 80 36 80 32 80 1F      2....5.6.2..
0520: 01 1F 00 37 80 38 80 32  80 1F 01 6F 00           ...7.8.2...o.   
```

#### Opcodes

```
  0: 0x0514 [0x32] ExtData[1]->MainSpeed = 40* * 0.1
  1: 0x0517 [0x1F] MOVE_ENTITY: EventEntity moves to X=-451.082*, Z=-601.838*, Y=8.249*
  2: 0x051F [0x1F] MOVE_ENTITY: Update entity position (mode=1)
  3: 0x0521 [0x1F] MOVE_ENTITY: EventEntity moves to X=-449.017*, Z=-602.577*, Y=8.249*
  4: 0x0529 [0x1F] MOVE_ENTITY: Update entity position (mode=1)
  5: 0x052B [0x6F] WAIT_FRAME_DELAY: Yield until WaitTime reaches zero
  6: 0x052C [0x00] END_REQSTACK()
```
