# 17101363 - Nahshib

## Common Data

| Field            | Value                  |
|------------------|------------------------|
| Zone             | Caedarva Mire (ID: 79) |
| Block Size       | 908 bytes              |
| Total Events     | 12                     |
| References Count | 43                     |

## List of Events

| Event ID                 | Entrypoint   |   Size |   Instructions |
|--------------------------|--------------|--------|----------------|
| [65535](#event-65535)    | 0x0000       |      1 |              1 |
| [4](#event-4)            | 0x0001       |     80 |             21 |
| [5](#event-5)            | 0x0051       |      1 |              1 |
| [6](#event-6)            | 0x0052       |     56 |             15 |
| [7](#event-7)            | 0x008A       |     84 |             23 |
| [148](#event-148)        | 0x00DE       |    144 |             44 |
| [10](#event-10)          | 0x016E       |      1 |              1 |
| [11](#event-11)          | 0x016F       |     11 |              5 |
| [65535.1](#event-655351) | 0x017A       |     37 |              5 |
| [65535.2](#event-655352) | 0x019F       |    185 |             37 |
| [22](#event-22)          | 0x0258       |     31 |             11 |
| [23](#event-23)          | 0x0277       |     39 |             13 |

## DAT References (imed_data)

|   Index | Hex Value   |   Dec Value |
|---------|-------------|-------------|
|       0 | 0x0000      |           0 |
|       1 | 0x1CF5      |        7413 |
|       2 | 0x1CF6      |        7414 |
|       3 | 0x1D11      |        7441 |
|       4 | 0x1D12      |        7442 |
|       5 | 0x1D13      |        7443 |
|       6 | 0x1D0B      |        7435 |
|       7 | 0x1D24      |        7460 |
|       8 | 0x1D0C      |        7436 |
|       9 | 0x005A      |          90 |
|      10 | 0x1D0D      |        7437 |
|      11 | 0x1D0E      |        7438 |
|      12 | 0x1D25      |        7461 |
|      13 | 0x1D26      |        7462 |
|      14 | 0x1D48      |        7496 |
|      15 | 0x1D49      |        7497 |
|      16 | 0x1D4A      |        7498 |
|      17 | 0x1D4B      |        7499 |
|      18 | 0x1D4C      |        7500 |
|      19 | 0x0001      |           1 |
|      20 | 0x0032      |          50 |
|      21 | 0x1D4F      |        7503 |
|      22 | 0x1D4D      |        7501 |
|      23 | 0x1D4E      |        7502 |
|      24 | 0x1D50      |        7504 |
|      25 | 0x1D51      |        7505 |
|      26 | 0x0002      |           2 |
|      27 | 0x1D52      |        7506 |
|      28 | 0x1D53      |        7507 |
|      29 | 0x1D54      |        7508 |
|      30 | 0x1DA9      |        7593 |
|      31 | 0x0005      |           5 |
|      32 | 0x000A      |          10 |
|      33 | 0x0009      |           9 |
|      34 | 0x0046      |          70 |
|      35 | 0x008C      |         140 |
|      36 | 0x00D2      |         210 |
|      37 | 0x035C      |         860 |
|      38 | 0x1E8B      |        7819 |
|      39 | 0x1E8C      |        7820 |
|      40 | 0x1E8D      |        7821 |
|      41 | 0x1E8E      |        7822 |
|      42 | 0x1E8F      |        7823 |

## String References

- **7436**: <Player>'s mercenary badge flashes.
- **7496**: Greetings, mercenary. I am % of the Immortals.
- **7497**: You are here on an Assault mission? Then you'll be wanting command verification.
- **7498**: Do you want command verification? [Yes./No./Command what...?]
- **7499**: If you have $0 [credit/credits] available from your Imperial Standing, I will recognize your ability to lead this Assault mission.
- **7500**: Receive command verification? [Yes. ($0 [credit/credits])/No.]
- **7501**: Very well. Consider your command of this mission verified.
- **7502**: With this in your possession, you will be able to pass through the runic seal and enter the Assault area. Good luck.
- **7503**: I cannot entrust leadership of a mission to a mercenary with such an unimpressive standing. Return to me when you are worthy.
- **7504**: You refuse to assume leadership? Perhaps you should make that decision before you speak to me.
- **7505**: No? Then I suggest you complete your preparations and await your leader's orders!
- **7506**: Receiving command verification will authorize you to begin an Assault mission.
- **7507**: Naturally, you are also charged with the responsibility of making sure your party members are ready to enter the Assault area.
- **7508**: However, successfully completing an Assault mission under your command will most certainly improve your standing with the Empire.

## Events

### Event 65535

#### Metadata

| Field        | Value   |
|--------------|---------|
| Entrypoint   | 0x0000  |
| Data Size    | 1 bytes |
| Instructions | 1       |

```
      00 01 02 03 04 05 06 07  08 09 0A 0B 0C 0D 0E 0F
      -- -- -- -- -- -- -- --  -- -- -- -- -- -- -- --
0000: 00                                                .               
```

#### Opcodes

```
  0: 0x0000 [0x00] END_REQSTACK()
```

### Event 4

#### Metadata

| Field        | Value    |
|--------------|----------|
| Entrypoint   | 0x0001   |
| Data Size    | 80 bytes |
| Instructions | 21       |

```
      00 01 02 03 04 05 06 07  08 09 0A 0B 0C 0D 0E 0F
      -- -- -- -- -- -- -- --  -- -- -- -- -- -- -- --
0000:    03 00 00 02 10 02 00  00 00 80 00 28 00 1E F0   ...........(...
0010: FF FF 7F 6F 70 2B 33 F2  04 01 01 80 23 2B 33 F2  ...op+3.....#+3.
0020: 04 01 02 80 23 01 4F 00  4A 34 F2 04 01 F0 FF FF  ....#.O.J4......
0030: 7F 6F 76 34 F2 04 01 2B  34 F2 04 01 03 80 23 2B  .ov4...+4.....#+
0040: 34 F2 04 01 04 80 23 2B  34 F2 04 01 05 80 23 21  4.....#+4.....#!
0050: 00                                                .               
```

#### Opcodes

```
  0: 0x0001 [0x03] ExtData[1]->WorkLocal[0] = Work_Zone[2]
  1: 0x0006 [0x02] IF !(ExtData[1]->WorkLocal[0] == 0*) GOTO 0x0028
  2: 0x000E [0x1E] EventEntity looks at LocalPlayer and starts talking
  3: 0x0013 [0x6F] WAIT_FRAME_DELAY: Yield until WaitTime reaches zero
  4: 0x0014 [0x70] WAIT_ENTITY_RENDER_FLAG: Wait while EventEntity->Render.Flags3 bit 2 is set (cancel turn if not)
  5: 0x0015 [0x2B] Nahshib (ID: 17101363/0x0104F233) [7413*]:
    → "I am Nahshib, and this is the Dvucca Isle staging point. I will fulfill my duties to the Empress day or night, rain or shine!"
  6: 0x001C [0x23] WAIT_FOR_DIALOG_INTERACTION
  7: 0x001D [0x2B] Nahshib (ID: 17101363/0x0104F233) [7414*]:
    → "I take great pride in my work. What could be more honorable than protecting the Empire? What I'm really trying to say, though, is..."
  8: 0x0024 [0x23] WAIT_FOR_DIALOG_INTERACTION
  9: 0x0025 [0x01] GOTO 0x004F
 10: 0x0028 [0x4A] Nareema (ID: 17101364/0x0104F234) looks at LocalPlayer
 11: 0x0031 [0x6F] WAIT_FRAME_DELAY: Yield until WaitTime reaches zero
 12: 0x0032 [0x76] CHECK_ENTITY_RENDER_FLAGS: Wait until Nareema (ID: 17101364/0x0104F234) Render.Flags0 and Render.Flags3 conditions are met
 13: 0x0037 [0x2B] Nareema (ID: 17101364/0x0104F234) [7441*]:
    → "I, Nareema, will carry out the Empress's orders through fire, ice, and storm! Oh...welcome to the Azouph Isle staging point."
 14: 0x003E [0x23] WAIT_FOR_DIALOG_INTERACTION
 15: 0x003F [0x2B] Nareema (ID: 17101364/0x0104F234) [7442*]:
    → "Wait! I do believe you're trespassing on Imperial property!"
 16: 0x0046 [0x23] WAIT_FOR_DIALOG_INTERACTION
 17: 0x0047 [0x2B] Nareema (ID: 17101364/0x0104F234) [7443*]:
    → "Get out of here!"
 18: 0x004E [0x23] WAIT_FOR_DIALOG_INTERACTION

SUBROUTINE_004F:
 19: 0x004F [0x21] END_EVENT
 20: 0x0050 [0x00] END_REQSTACK()
```

### Event 5

#### Metadata

| Field        | Value   |
|--------------|---------|
| Entrypoint   | 0x0051  |
| Data Size    | 1 bytes |
| Instructions | 1       |

```
      00 01 02 03 04 05 06 07  08 09 0A 0B 0C 0D 0E 0F
      -- -- -- -- -- -- -- --  -- -- -- -- -- -- -- --
0050:    00                                              .              
```

#### Opcodes

```
  0: 0x0051 [0x00] END_REQSTACK()
```

### Event 6

#### Metadata

| Field        | Value    |
|--------------|----------|
| Entrypoint   | 0x0052   |
| Data Size    | 56 bytes |
| Instructions | 15       |

```
      00 01 02 03 04 05 06 07  08 09 0A 0B 0C 0D 0E 0F
      -- -- -- -- -- -- -- --  -- -- -- -- -- -- -- --
0050:       03 00 00 02 10 02  00 00 00 80 00 71 00 1E    ...........q..
0060: F0 FF FF 7F 6F 70 2B 33  F2 04 01 06 80 23 01 88  ....op+3.....#..
0070: 00 4A 34 F2 04 01 F0 FF  FF 7F 6F 76 34 F2 04 01  .J4.......ov4...
0080: 2B 34 F2 04 01 07 80 23  21 00                    +4.....#!.      
```

#### Opcodes

```
  0: 0x0052 [0x03] ExtData[1]->WorkLocal[0] = Work_Zone[2]
  1: 0x0057 [0x02] IF !(ExtData[1]->WorkLocal[0] == 0*) GOTO 0x0071
  2: 0x005F [0x1E] EventEntity looks at LocalPlayer and starts talking
  3: 0x0064 [0x6F] WAIT_FRAME_DELAY: Yield until WaitTime reaches zero
  4: 0x0065 [0x70] WAIT_ENTITY_RENDER_FLAG: Wait while EventEntity->Render.Flags3 bit 2 is set (cancel turn if not)
  5: 0x0066 [0x2B] Nahshib (ID: 17101363/0x0104F233) [7435*]:
    → "I am sure the runic portal will come in handy the next time you wish to return here to the Dvucca Isle staging point."
  6: 0x006D [0x23] WAIT_FOR_DIALOG_INTERACTION
  7: 0x006E [0x01] GOTO 0x0088
  8: 0x0071 [0x4A] Nareema (ID: 17101364/0x0104F234) looks at LocalPlayer
  9: 0x007A [0x6F] WAIT_FRAME_DELAY: Yield until WaitTime reaches zero
 10: 0x007B [0x76] CHECK_ENTITY_RENDER_FLAGS: Wait until Nareema (ID: 17101364/0x0104F234) Render.Flags0 and Render.Flags3 conditions are met
 11: 0x0080 [0x2B] Nareema (ID: 17101364/0x0104F234) [7460*]:
    → "If you ever want to return here, you can use the runic portal. At least, I think so..."
 12: 0x0087 [0x23] WAIT_FOR_DIALOG_INTERACTION

SUBROUTINE_0088:
 13: 0x0088 [0x21] END_EVENT
 14: 0x0089 [0x00] END_REQSTACK()
```

### Event 7

#### Metadata

| Field        | Value    |
|--------------|----------|
| Entrypoint   | 0x008A   |
| Data Size    | 84 bytes |
| Instructions | 23       |

```
      00 01 02 03 04 05 06 07  08 09 0A 0B 0C 0D 0E 0F
      -- -- -- -- -- -- -- --  -- -- -- -- -- -- -- --
0080:                                03 00 00 02 10 02            ......
0090: 00 00 00 80 00 B7 00 1E  F0 FF FF 7F 6F 70 48 08  ............opH.
00A0: 80 1C 09 80 2B 33 F2 04  01 0A 80 23 2B 33 F2 04  ....+3.....#+3..
00B0: 01 0B 80 23 01 DC 00 4A  34 F2 04 01 F0 FF FF 7F  ...#...J4.......
00C0: 6F 76 34 F2 04 01 48 08  80 1C 09 80 2B 34 F2 04  ov4...H.....+4..
00D0: 01 0C 80 23 2B 34 F2 04  01 0D 80 23 21 00        ...#+4.....#!.  
```

#### Opcodes

```
  0: 0x008A [0x03] ExtData[1]->WorkLocal[0] = Work_Zone[2]
  1: 0x008F [0x02] IF !(ExtData[1]->WorkLocal[0] == 0*) GOTO 0x00B7
  2: 0x0097 [0x1E] EventEntity looks at LocalPlayer and starts talking
  3: 0x009C [0x6F] WAIT_FRAME_DELAY: Yield until WaitTime reaches zero
  4: 0x009D [0x70] WAIT_ENTITY_RENDER_FLAG: Wait while EventEntity->Render.Flags3 bit 2 is set (cancel turn if not)
  5: 0x009E [0x48] [System] [7436*]:
    → "<Player>'s mercenary badge flashes."
  6: 0x00A1 [0x1C] WAIT(90* ticks)
  7: 0x00A4 [0x2B] Nahshib (ID: 17101363/0x0104F233) [7437*]:
    → "The mark of the wildcat... I see you have joined the ranks of the Salaheem's Sentinels mercenaries."
  8: 0x00AB [0x23] WAIT_FOR_DIALOG_INTERACTION
  9: 0x00AC [0x2B] Nahshib (ID: 17101363/0x0104F233) [7438*]:
    → "So, you and I are both new recruits..."
 10: 0x00B3 [0x23] WAIT_FOR_DIALOG_INTERACTION
 11: 0x00B4 [0x01] GOTO 0x00DC
 12: 0x00B7 [0x4A] Nareema (ID: 17101364/0x0104F234) looks at LocalPlayer
 13: 0x00C0 [0x6F] WAIT_FRAME_DELAY: Yield until WaitTime reaches zero
 14: 0x00C1 [0x76] CHECK_ENTITY_RENDER_FLAGS: Wait until Nareema (ID: 17101364/0x0104F234) Render.Flags0 and Render.Flags3 conditions are met
 15: 0x00C6 [0x48] [System] [7436*]:
    → "<Player>'s mercenary badge flashes."
 16: 0x00C9 [0x1C] WAIT(90* ticks)
 17: 0x00CC [0x2B] Nareema (ID: 17101364/0x0104F234) [7461*]:
    → "Is this the mark of the wildcat? So you're a mercenary now, are you? I hope that all the fighting doesn't change you..."
 18: 0x00D3 [0x23] WAIT_FOR_DIALOG_INTERACTION
 19: 0x00D4 [0x2B] Nareema (ID: 17101364/0x0104F234) [7462*]:
    → "Long ago, I used to be an adventurer... I was so free back then. I don't want you to ever lose that youthful innocence."
 20: 0x00DB [0x23] WAIT_FOR_DIALOG_INTERACTION

SUBROUTINE_00DC:
 21: 0x00DC [0x21] END_EVENT
 22: 0x00DD [0x00] END_REQSTACK()
```

### Event 148

#### Metadata

| Field        | Value     |
|--------------|-----------|
| Entrypoint   | 0x00DE    |
| Data Size    | 144 bytes |
| Instructions | 44        |

```
      00 01 02 03 04 05 06 07  08 09 0A 0B 0C 0D 0E 0F
      -- -- -- -- -- -- -- --  -- -- -- -- -- -- -- --
00D0:                                            03 01                ..
00E0: 10 00 80 1E F0 FF FF 7F  1D 0E 80 23 1D 0F 80 23  ...........#...#
00F0: 24 10 80 00 80 00 80 25  02 00 10 00 80 00 46 01  $......%......F.
0100: 1D 11 80 23 24 12 80 13  80 00 80 25 02 00 10 00  ...#$......%....
0110: 80 00 34 01 02 03 10 14  80 03 23 01 1D 15 80 23  ..4.......#....#
0120: 01 31 01 42 1D 16 80 23  1D 17 80 23 03 01 10 13  .1.B...#...#....
0130: 80 01 43 01 02 00 10 13  80 00 43 01 1D 18 80 23  ..C.......C....#
0140: 01 43 01 01 6C 01 02 00  10 13 80 00 55 01 1D 19  .C..l.......U...
0150: 80 23 01 6C 01 02 00 10  1A 80 00 6C 01 1D 1B 80  .#.l.......l....
0160: 23 1D 1C 80 23 1D 1D 80  23 01 6C 01 21 00        #...#...#.l.!.  
```

#### Opcodes

```
  0: 0x00DE [0x03] Work_Zone[1] = 0*
  1: 0x00E3 [0x1E] EventEntity looks at LocalPlayer and starts talking
  2: 0x00E8 [0x1D] PRINT_EVENT_MESSAGE(message_id=7496*)
    → "Greetings, mercenary. I am % of the Immortals."
  3: 0x00EB [0x23] WAIT_FOR_DIALOG_INTERACTION
  4: 0x00EC [0x1D] PRINT_EVENT_MESSAGE(message_id=7497*)
    → "You are here on an Assault mission? Then you'll be wanting command verification."
  5: 0x00EF [0x23] WAIT_FOR_DIALOG_INTERACTION
  6: 0x00F0 [0x24] CREATE_DIALOG(message_id=7498*, default_option=0*, option_flags=0*)
    → "Do you want command verification? [Yes./No./Command what...?]"
  7: 0x00F7 [0x25] WAIT_DIALOG_SELECT()
  8: 0x00F8 [0x02] IF !(Work_Zone[0] == 0*) GOTO 0x0146
  9: 0x0100 [0x1D] PRINT_EVENT_MESSAGE(message_id=7499*)
    → "If you have $0 [credit/credits] available from your Imperial Standing, I will recognize your ability to lead this Assault mission."
 10: 0x0103 [0x23] WAIT_FOR_DIALOG_INTERACTION
 11: 0x0104 [0x24] CREATE_DIALOG(message_id=7500*, default_option=1*, option_flags=0*)
    → "Receive command verification? [Yes. ($0 [credit/credits])/No.]"
 12: 0x010B [0x25] WAIT_DIALOG_SELECT()
 13: 0x010C [0x02] IF !(Work_Zone[0] == 0*) GOTO 0x0134
 14: 0x0114 [0x02] IF !(Work_Zone[3] >= 50*) GOTO 0x0123
 15: 0x011C [0x1D] PRINT_EVENT_MESSAGE(message_id=7503*)
    → "I cannot entrust leadership of a mission to a mercenary with such an unimpressive standing. Return to me when you are worthy."
 16: 0x011F [0x23] WAIT_FOR_DIALOG_INTERACTION
 17: 0x0120 [0x01] GOTO 0x0131
 18: 0x0123 [0x42] SET_CLI_EVENT_CANCEL_DATA()
 19: 0x0124 [0x1D] PRINT_EVENT_MESSAGE(message_id=7501*)
    → "Very well. Consider your command of this mission verified."
 20: 0x0127 [0x23] WAIT_FOR_DIALOG_INTERACTION
 21: 0x0128 [0x1D] PRINT_EVENT_MESSAGE(message_id=7502*)
    → "With this in your possession, you will be able to pass through the runic seal and enter the Assault area. Good luck."
 22: 0x012B [0x23] WAIT_FOR_DIALOG_INTERACTION
 23: 0x012C [0x03] Work_Zone[1] = 1*

SUBROUTINE_0131:
 24: 0x0131 [0x01] GOTO 0x0143
 25: 0x0134 [0x02] IF !(Work_Zone[0] == 1*) GOTO 0x0143
 26: 0x013C [0x1D] PRINT_EVENT_MESSAGE(message_id=7504*)
    → "You refuse to assume leadership? Perhaps you should make that decision before you speak to me."
 27: 0x013F [0x23] WAIT_FOR_DIALOG_INTERACTION
 28: 0x0140 [0x01] GOTO 0x0143

SUBROUTINE_0143:
 29: 0x0143 [0x01] GOTO 0x016C
 30: 0x0146 [0x02] IF !(Work_Zone[0] == 1*) GOTO 0x0155
 31: 0x014E [0x1D] PRINT_EVENT_MESSAGE(message_id=7505*)
    → "No? Then I suggest you complete your preparations and await your leader's orders!"
 32: 0x0151 [0x23] WAIT_FOR_DIALOG_INTERACTION
 33: 0x0152 [0x01] GOTO 0x016C
 34: 0x0155 [0x02] IF !(Work_Zone[0] == 2*) GOTO 0x016C
 35: 0x015D [0x1D] PRINT_EVENT_MESSAGE(message_id=7506*)
    → "Receiving command verification will authorize you to begin an Assault mission."
 36: 0x0160 [0x23] WAIT_FOR_DIALOG_INTERACTION
 37: 0x0161 [0x1D] PRINT_EVENT_MESSAGE(message_id=7507*)
    → "Naturally, you are also charged with the responsibility of making sure your party members are ready to enter the Assault area."
 38: 0x0164 [0x23] WAIT_FOR_DIALOG_INTERACTION
 39: 0x0165 [0x1D] PRINT_EVENT_MESSAGE(message_id=7508*)
    → "However, successfully completing an Assault mission under your command will most certainly improve your standing with the Empire."
 40: 0x0168 [0x23] WAIT_FOR_DIALOG_INTERACTION
 41: 0x0169 [0x01] GOTO 0x016C

SUBROUTINE_016C:
 42: 0x016C [0x21] END_EVENT
 43: 0x016D [0x00] END_REQSTACK()
```

### Event 10

#### Metadata

| Field        | Value   |
|--------------|---------|
| Entrypoint   | 0x016E  |
| Data Size    | 1 bytes |
| Instructions | 1       |

```
      00 01 02 03 04 05 06 07  08 09 0A 0B 0C 0D 0E 0F
      -- -- -- -- -- -- -- --  -- -- -- -- -- -- -- --
0160:                                            00                   . 
```

#### Opcodes

```
  0: 0x016E [0x00] END_REQSTACK()
```

### Event 11

#### Metadata

| Field        | Value    |
|--------------|----------|
| Entrypoint   | 0x016F   |
| Data Size    | 11 bytes |
| Instructions | 5        |

```
      00 01 02 03 04 05 06 07  08 09 0A 0B 0C 0D 0E 0F
      -- -- -- -- -- -- -- --  -- -- -- -- -- -- -- --
0160:                                               42                 B
0170: 2B 33 F2 04 01 1E 80 23  21 00                    +3.....#!.      
```

#### Opcodes

```
  0: 0x016F [0x42] SET_CLI_EVENT_CANCEL_DATA()
  1: 0x0170 [0x2B] Nahshib (ID: 17101363/0x0104F233) [7593*]:
    → "So now I am the teacher...? Heh."
  2: 0x0177 [0x23] WAIT_FOR_DIALOG_INTERACTION
  3: 0x0178 [0x21] END_EVENT
  4: 0x0179 [0x00] END_REQSTACK()
```

### Event 65535.1

#### Metadata

| Field        | Value    |
|--------------|----------|
| Entrypoint   | 0x017A   |
| Data Size    | 37 bytes |
| Instructions | 5        |

```
      00 01 02 03 04 05 06 07  08 09 0A 0B 0C 0D 0E 0F
      -- -- -- -- -- -- -- --  -- -- -- -- -- -- -- --
0170:                                03 01 00 07 7F 1A            ......
0180: C4 01 66 02 00 F8 FF FF  7F F8 FF FF 7F 73 68 61  ..f..........sha
0190: 30 53 F8 FF FF 7F F8 FF  FF 7F 73 68 61 30 00     0S........sha0. 
```

#### Opcodes

```
  0: 0x017A [0x03] ExtData[1]->WorkLocal[1] = Entity->Race
  1: 0x017F [0x1A] CALL_SUBROUTINE(address=0x01C4)
  2: 0x0182 [0x66] LOAD_EXT_SCHEDULER_MAIN: Load scheduler "sha0" with entities [EventEntity, EventEntity], work=ExtData[1]->WorkLocal[2]
  3: 0x0191 [0x53] WAIT_SCHEDULER_TASK: Wait for scheduler "sha0" with entities [EventEntity, EventEntity]
  4: 0x019E [0x00] END_REQSTACK()
```

### Event 65535.2

#### Metadata

| Field        | Value     |
|--------------|-----------|
| Entrypoint   | 0x019F    |
| Data Size    | 185 bytes |
| Instructions | 13        |

```
      00 01 02 03 04 05 06 07  08 09 0A 0B 0C 0D 0E 0F
      -- -- -- -- -- -- -- --  -- -- -- -- -- -- -- --
0190:                                               03                 .
01A0: 01 00 07 7F 1A C4 01 66  02 00 F8 FF FF 7F F8 FF  .......f........
01B0: FF 7F 73 68 61 31 53 F8  FF FF 7F F8 FF FF 7F 73  ..sha1S........s
01C0: 68 61 31 00 03 02 00 01  00 02 02 00 1F 80 05 D9  ha1.............
01D0: 01 08 02 00 13 80 01 DE  01 08 02 00 1A 80 14 02  ................
01E0: 00 20 80 07 02 00 21 80  1B 03 02 00 01 00 02 02  . ....!.........
01F0: 00 1F 80 05 FE 01 08 02  00 13 80 01 03 02 08 02  ................
0200: 00 1A 80 14 02 00 20 80  07 02 00 22 80 1B 03 02  ...... ...."....
0210: 00 01 00 02 02 00 1F 80  05 23 02 08 02 00 13 80  .........#......
0220: 01 28 02 08 02 00 1A 80  14 02 00 20 80 07 02 00  .(......... ....
0230: 23 80 1B 03 02 00 01 00  02 02 00 1F 80 05 48 02  #.............H.
0240: 08 02 00 13 80 01 4D 02  08 02 00 1A 80 14 02 00  ......M.........
0250: 20 80 07 02 00 24 80 1B                            ....$..        
```

#### Opcodes

```
  0: 0x019F [0x03] ExtData[1]->WorkLocal[1] = Entity->Race
  1: 0x01A4 [0x1A] CALL_SUBROUTINE(address=0x01C4)
  2: 0x01A7 [0x66] LOAD_EXT_SCHEDULER_MAIN: Load scheduler "sha1" with entities [EventEntity, EventEntity], work=ExtData[1]->WorkLocal[2]
  3: 0x01B6 [0x53] WAIT_SCHEDULER_TASK: Wait for scheduler "sha1" with entities [EventEntity, EventEntity]
  4: 0x01C3 [0x00] END_REQSTACK()

SUBROUTINE_01C4:
  5: 0x01C4 [0x03] ExtData[1]->WorkLocal[2] = ExtData[1]->WorkLocal[1]
  6: 0x01C9 [0x02] IF !(ExtData[1]->WorkLocal[2] > 5*) GOTO 0x01D9
  7: 0x01D1 [0x08] ExtData[1]->WorkLocal[2] -= 1*
  8: 0x01D6 [0x01] GOTO 0x01DE
  9: 0x01D9 [0x08] ExtData[1]->WorkLocal[2] -= 2*

SUBROUTINE_01DE:
 10: 0x01DE [0x14] ExtData[1]->WorkLocal[2] *= 10*
 11: 0x01E3 [0x07] ExtData[1]->WorkLocal[2] += 9*
 12: 0x01E8 [0x1B] RETURN
```

#### Data or dead code:

```
# Dead code (unreachable instructions):
     0x01E9 [0x03] ExtData[1]->WorkLocal[2] = ExtData[1]->WorkLocal[1]
     0x01EE [0x02] IF !(ExtData[1]->WorkLocal[2] > 5*) GOTO 0x01FE
     0x01F6 [0x08] ExtData[1]->WorkLocal[2] -= 1*
     0x01FB [0x01] GOTO 0x0203
     0x01FE [0x08] ExtData[1]->WorkLocal[2] -= 2*
     0x0203 [0x14] ExtData[1]->WorkLocal[2] *= 10*
     0x0208 [0x07] ExtData[1]->WorkLocal[2] += 70*
     0x020D [0x1B] RETURN
     0x020E [0x03] ExtData[1]->WorkLocal[2] = ExtData[1]->WorkLocal[1]
     0x0213 [0x02] IF !(ExtData[1]->WorkLocal[2] > 5*) GOTO 0x0223
     0x021B [0x08] ExtData[1]->WorkLocal[2] -= 1*
     0x0220 [0x01] GOTO 0x0228
     0x0223 [0x08] ExtData[1]->WorkLocal[2] -= 2*
     0x0228 [0x14] ExtData[1]->WorkLocal[2] *= 10*
     0x022D [0x07] ExtData[1]->WorkLocal[2] += 140*
     0x0232 [0x1B] RETURN
     0x0233 [0x03] ExtData[1]->WorkLocal[2] = ExtData[1]->WorkLocal[1]
     0x0238 [0x02] IF !(ExtData[1]->WorkLocal[2] > 5*) GOTO 0x0248
     0x0240 [0x08] ExtData[1]->WorkLocal[2] -= 1*
     0x0245 [0x01] GOTO 0x024D
     0x0248 [0x08] ExtData[1]->WorkLocal[2] -= 2*
     0x024D [0x14] ExtData[1]->WorkLocal[2] *= 10*
     0x0252 [0x07] ExtData[1]->WorkLocal[2] += 210*
     0x0257 [0x1B] RETURN
```

### Event 22

#### Metadata

| Field        | Value    |
|--------------|----------|
| Entrypoint   | 0x0258   |
| Data Size    | 31 bytes |
| Instructions | 11       |

```
      00 01 02 03 04 05 06 07  08 09 0A 0B 0C 0D 0E 0F
      -- -- -- -- -- -- -- --  -- -- -- -- -- -- -- --
0250:                          42 1E F0 FF FF 7F 6F 70          B.....op
0260: 03 02 10 25 80 2B 33 F2  04 01 26 80 23 2B 33 F2  ...%.+3...&.#+3.
0270: 04 01 27 80 23 21 00                              ..'.#!.         
```

#### Opcodes

```
  0: 0x0258 [0x42] SET_CLI_EVENT_CANCEL_DATA()
  1: 0x0259 [0x1E] EventEntity looks at LocalPlayer and starts talking
  2: 0x025E [0x6F] WAIT_FRAME_DELAY: Yield until WaitTime reaches zero
  3: 0x025F [0x70] WAIT_ENTITY_RENDER_FLAG: Wait while EventEntity->Render.Flags3 bit 2 is set (cancel turn if not)
  4: 0x0260 [0x03] Work_Zone[2] = 860*
  5: 0x0265 [0x2B] Nahshib (ID: 17101363/0x0104F233) [7819*]:
    → "You lost your $3? Typical mercenary..."
  6: 0x026C [0x23] WAIT_FOR_DIALOG_INTERACTION
  7: 0x026D [0x2B] Nahshib (ID: 17101363/0x0104F233) [7820*]:
    → "Here, take this and get out of my sight!"
  8: 0x0274 [0x23] WAIT_FOR_DIALOG_INTERACTION
  9: 0x0275 [0x21] END_EVENT
 10: 0x0276 [0x00] END_REQSTACK()
```

### Event 23

#### Metadata

| Field        | Value    |
|--------------|----------|
| Entrypoint   | 0x0277   |
| Data Size    | 39 bytes |
| Instructions | 13       |

```
      00 01 02 03 04 05 06 07  08 09 0A 0B 0C 0D 0E 0F
      -- -- -- -- -- -- -- --  -- -- -- -- -- -- -- --
0270:                      42  1E F0 FF FF 7F 6F 70 03         B.....op.
0280: 02 10 25 80 2B 33 F2 04  01 28 80 23 2B 33 F2 04  ..%.+3...(.#+3..
0290: 01 29 80 23 2B 33 F2 04  01 2A 80 23 21 00        .).#+3...*.#!.  
```

#### Opcodes

```
  0: 0x0277 [0x42] SET_CLI_EVENT_CANCEL_DATA()
  1: 0x0278 [0x1E] EventEntity looks at LocalPlayer and starts talking
  2: 0x027D [0x6F] WAIT_FRAME_DELAY: Yield until WaitTime reaches zero
  3: 0x027E [0x70] WAIT_ENTITY_RENDER_FLAG: Wait while EventEntity->Render.Flags3 bit 2 is set (cancel turn if not)
  4: 0x027F [0x03] Work_Zone[2] = 860*
  5: 0x0284 [0x2B] Nahshib (ID: 17101363/0x0104F233) [7821*]:
    → "You...you lost another $3!?"
  6: 0x028B [0x23] WAIT_FOR_DIALOG_INTERACTION
  7: 0x028C [0x2B] Nahshib (ID: 17101363/0x0104F233) [7822*]:
    → "Do you know how long it takes to get those things reissued?"
  8: 0x0293 [0x23] WAIT_FOR_DIALOG_INTERACTION
  9: 0x0294 [0x2B] Nahshib (ID: 17101363/0x0104F233) [7823*]:
    → "Good-for-nothing, rock-headed mercenaries! Take your worthless hide out of here and gimme time to forget your oafish face!"
 10: 0x029B [0x23] WAIT_FOR_DIALOG_INTERACTION
 11: 0x029C [0x21] END_EVENT
 12: 0x029D [0x00] END_REQSTACK()
```
