# 17101375 - Yafahb

## Common Data

| Field            | Value                  |
|------------------|------------------------|
| Zone             | Caedarva Mire (ID: 79) |
| Block Size       | 900 bytes              |
| Total Events     | 21                     |
| References Count | 62                     |

## List of Events

| Event ID                   | Entrypoint   |   Size |   Instructions |
|----------------------------|--------------|--------|----------------|
| [65535](#event-65535)      | 0x0000       |      1 |              1 |
| [14](#event-14)            | 0x0001       |     10 |              2 |
| [65535.1](#event-655351)   | 0x000B       |     14 |              4 |
| [15](#event-15)            | 0x0019       |      1 |              1 |
| [65535.2](#event-655352)   | 0x001A       |     10 |              2 |
| [65535.3](#event-655353)   | 0x0024       |     14 |              4 |
| [65535.4](#event-655354)   | 0x0032       |     28 |              6 |
| [65535.5](#event-655355)   | 0x004E       |     10 |              2 |
| [65535.6](#event-655356)   | 0x0058       |      4 |              2 |
| [65535.7](#event-655357)   | 0x005C       |     11 |              3 |
| [65535.8](#event-655358)   | 0x0067       |     33 |              7 |
| [65535.9](#event-655359)   | 0x0088       |     87 |             10 |
| [65535.10](#event-6553510) | 0x00DF       |    203 |             21 |
| [65535.11](#event-6553511) | 0x01AA       |      1 |              1 |
| [65535.12](#event-6553512) | 0x01AB       |     11 |              3 |
| [65535.13](#event-6553513) | 0x01B6       |     10 |              2 |
| [65535.14](#event-6553514) | 0x01C0       |     14 |              4 |
| [65535.15](#event-6553515) | 0x01CE       |     10 |              2 |
| [65535.16](#event-6553516) | 0x01D8       |     14 |              4 |
| [65535.17](#event-6553517) | 0x01E6       |     14 |              4 |
| [65535.18](#event-6553518) | 0x01F4       |     50 |              8 |

## DAT References (imed_data)

|   Index | Hex Value   |   Dec Value |
|---------|-------------|-------------|
|       0 | 0x23EEC     |      147180 |
|       1 | 0xFFF66EF2  |  4294340338 |
|       2 | 0x0187      |         391 |
|       3 | 0x070D      |        1805 |
|       4 | 0x000D      |          13 |
|       5 | 0x236C4     |      145092 |
|       6 | 0xFFF66FCA  |  4294340554 |
|       7 | 0x0082      |         130 |
|       8 | 0x225D5     |      140757 |
|       9 | 0xFFF6932D  |  4294349613 |
|      10 | 0x0000      |           0 |
|      11 | 0x0565      |        1381 |
|      12 | 0x0028      |          40 |
|      13 | 0x213D8     |      136152 |
|      14 | 0xFFF67CBD  |  4294343869 |
|      15 | 0x00DF      |         223 |
|      16 | 0x21C60     |      138336 |
|      17 | 0xFFF66895  |  4294338709 |
|      18 | 0x010D      |         269 |
|      19 | 0x0627      |        1575 |
|      20 | 0x2228D     |      139917 |
|      21 | 0xFFF67ABB  |  4294343355 |
|      22 | 0xFFFFFFFD  |  4294967293 |
|      23 | 0x21C29     |      138281 |
|      24 | 0xFFF67ECD  |  4294344397 |
|      25 | 0x0027      |          39 |
|      26 | 0x024A      |         586 |
|      27 | 0x005A      |          90 |
|      28 | 0x22A75     |      141941 |
|      29 | 0xFFF66CB8  |  4294339768 |
|      30 | 0x0015      |          21 |
|      31 | 0x20DAB     |      134571 |
|      32 | 0xFFF6593A  |  4294334778 |
|      33 | 0x0488      |        1160 |
|      34 | 0x0009      |           9 |
|      35 | 0x1FD56     |      130390 |
|      36 | 0xFFF657C4  |  4294334404 |
|      37 | 0x0594      |        1428 |
|      38 | 0x0078      |         120 |
|      39 | 0x1F3FE     |      127998 |
|      40 | 0xFFF662F9  |  4294337273 |
|      41 | 0x05A9      |        1449 |
|      42 | 0x22387     |      140167 |
|      43 | 0xFFF6796B  |  4294343019 |
|      44 | 0xFFFFFFF3  |  4294967283 |
|      45 | 0x798C6     |      497862 |
|      46 | 0x15B79     |       88953 |
|      47 | 0xFFFF7C52  |  4294933586 |
|      48 | 0x0700      |        1792 |
|      49 | 0x74702     |      476930 |
|      50 | 0x1396F     |       80239 |
|      51 | 0xFFFF8300  |  4294935296 |
|      52 | 0x740EA     |      475370 |
|      53 | 0x13B51     |       80721 |
|      54 | 0xFFFF8326  |  4294935334 |
|      55 | 0x0B1F      |        2847 |
|      56 | 0x74299     |      475801 |
|      57 | 0x14132     |       82226 |
|      58 | 0xFFFF8301  |  4294935297 |
|      59 | 0x74300     |      475904 |
|      60 | 0x14481     |       83073 |
|      61 | 0x004B      |          75 |

## Events

### Event 65535

#### Metadata

| Field        | Value   |
|--------------|---------|
| Entrypoint   | 0x0000  |
| Data Size    | 1 bytes |
| Instructions | 1       |

```
      00 01 02 03 04 05 06 07  08 09 0A 0B 0C 0D 0E 0F
      -- -- -- -- -- -- -- --  -- -- -- -- -- -- -- --
0000: 00                                                .               
```

#### Opcodes

```
  0: 0x0000 [0x00] END_REQSTACK()
```

### Event 14

#### Metadata

| Field        | Value    |
|--------------|----------|
| Entrypoint   | 0x0001   |
| Data Size    | 10 bytes |
| Instructions | 2        |

```
      00 01 02 03 04 05 06 07  08 09 0A 0B 0C 0D 0E 0F
      -- -- -- -- -- -- -- --  -- -- -- -- -- -- -- --
0000:    37 00 80 01 80 02 80  03 80 00                  7.........     
```

#### Opcodes

```
  0: 0x0001 [0x37] UPDATE_EVENT_POSITION_AND_DIR: x=147.180*, z=-626.958*, y=0.391*, direction=158.6°*
  1: 0x000A [0x00] END_REQSTACK()
```

### Event 65535.1

#### Metadata

| Field        | Value    |
|--------------|----------|
| Entrypoint   | 0x000B   |
| Data Size    | 14 bytes |
| Instructions | 4        |

```
      00 01 02 03 04 05 06 07  08 09 0A 0B 0C 0D 0E 0F
      -- -- -- -- -- -- -- --  -- -- -- -- -- -- -- --
0000:                                   32 04 80 1F 00             2....
0010: 05 80 06 80 07 80 1F 01  00                       .........       
```

#### Opcodes

```
  0: 0x000B [0x32] ExtData[1]->MainSpeed = 13* * 0.1
  1: 0x000E [0x1F] MOVE_ENTITY: EventEntity moves to X=145.092*, Z=-626.742*, Y=0.130*
  2: 0x0016 [0x1F] MOVE_ENTITY: Update entity position (mode=1)
  3: 0x0018 [0x00] END_REQSTACK()
```

### Event 15

#### Metadata

| Field        | Value   |
|--------------|---------|
| Entrypoint   | 0x0019  |
| Data Size    | 1 bytes |
| Instructions | 1       |

```
      00 01 02 03 04 05 06 07  08 09 0A 0B 0C 0D 0E 0F
      -- -- -- -- -- -- -- --  -- -- -- -- -- -- -- --
0010:                             00                             .      
```

#### Opcodes

```
  0: 0x0019 [0x00] END_REQSTACK()
```

### Event 65535.2

#### Metadata

| Field        | Value    |
|--------------|----------|
| Entrypoint   | 0x001A   |
| Data Size    | 10 bytes |
| Instructions | 2        |

```
      00 01 02 03 04 05 06 07  08 09 0A 0B 0C 0D 0E 0F
      -- -- -- -- -- -- -- --  -- -- -- -- -- -- -- --
0010:                                37 08 80 09 80 0A            7.....
0020: 80 0B 80 00                                       ....            
```

#### Opcodes

```
  0: 0x001A [0x37] UPDATE_EVENT_POSITION_AND_DIR: x=140.757*, z=-617.683*, y=0.000*, direction=121.4°*
  1: 0x0023 [0x00] END_REQSTACK()
```

### Event 65535.3

#### Metadata

| Field        | Value    |
|--------------|----------|
| Entrypoint   | 0x0024   |
| Data Size    | 14 bytes |
| Instructions | 4        |

```
      00 01 02 03 04 05 06 07  08 09 0A 0B 0C 0D 0E 0F
      -- -- -- -- -- -- -- --  -- -- -- -- -- -- -- --
0020:             32 0C 80 1F  00 0D 80 0E 80 0F 80 1F      2...........
0030: 01 00                                             ..              
```

#### Opcodes

```
  0: 0x0024 [0x32] ExtData[1]->MainSpeed = 40* * 0.1
  1: 0x0027 [0x1F] MOVE_ENTITY: EventEntity moves to X=136.152*, Z=-623.427*, Y=0.223*
  2: 0x002F [0x1F] MOVE_ENTITY: Update entity position (mode=1)
  3: 0x0031 [0x00] END_REQSTACK()
```

### Event 65535.4

#### Metadata

| Field        | Value    |
|--------------|----------|
| Entrypoint   | 0x0032   |
| Data Size    | 28 bytes |
| Instructions | 6        |

```
      00 01 02 03 04 05 06 07  08 09 0A 0B 0C 0D 0E 0F
      -- -- -- -- -- -- -- --  -- -- -- -- -- -- -- --
0030:       37 10 80 11 80 12  80 13 80 32 04 80 1F 00    7........2....
0040: 14 80 15 80 16 80 1F 01  1E 42 F2 04 01 00        .........B....  
```

#### Opcodes

```
  0: 0x0032 [0x37] UPDATE_EVENT_POSITION_AND_DIR: x=138.336*, z=-628.587*, y=0.269*, direction=138.4°*
  1: 0x003B [0x32] ExtData[1]->MainSpeed = 13* * 0.1
  2: 0x003E [0x1F] MOVE_ENTITY: EventEntity moves to X=139.917*, Z=-623.941*, Y=-0.003*
  3: 0x0046 [0x1F] MOVE_ENTITY: Update entity position (mode=1)
  4: 0x0048 [0x1E] EventEntity looks at Iruki-Waraki (ID: 17101378/0x0104F242) and starts talking
  5: 0x004D [0x00] END_REQSTACK()
```

### Event 65535.5

#### Metadata

| Field        | Value    |
|--------------|----------|
| Entrypoint   | 0x004E   |
| Data Size    | 10 bytes |
| Instructions | 2        |

```
      00 01 02 03 04 05 06 07  08 09 0A 0B 0C 0D 0E 0F
      -- -- -- -- -- -- -- --  -- -- -- -- -- -- -- --
0040:                                            37 17                7.
0050: 80 18 80 19 80 1A 80 00                           ........        
```

#### Opcodes

```
  0: 0x004E [0x37] UPDATE_EVENT_POSITION_AND_DIR: x=138.281*, z=-622.899*, y=0.039*, direction=51.5°*
  1: 0x0057 [0x00] END_REQSTACK()
```

### Event 65535.6

#### Metadata

| Field        | Value   |
|--------------|---------|
| Entrypoint   | 0x0058  |
| Data Size    | 4 bytes |
| Instructions | 2       |

```
      00 01 02 03 04 05 06 07  08 09 0A 0B 0C 0D 0E 0F
      -- -- -- -- -- -- -- --  -- -- -- -- -- -- -- --
0050:                          1C 1B 80 00                      ....    
```

#### Opcodes

```
  0: 0x0058 [0x1C] WAIT(90* ticks)
  1: 0x005B [0x00] END_REQSTACK()
```

### Event 65535.7

#### Metadata

| Field        | Value    |
|--------------|----------|
| Entrypoint   | 0x005C   |
| Data Size    | 11 bytes |
| Instructions | 3        |

```
      00 01 02 03 04 05 06 07  08 09 0A 0B 0C 0D 0E 0F
      -- -- -- -- -- -- -- --  -- -- -- -- -- -- -- --
0050:                                      1F 00 1C 80              ....
0060: 1D 80 0A 80 1F 01 00                              .......         
```

#### Opcodes

```
  0: 0x005C [0x1F] MOVE_ENTITY: EventEntity moves to X=141.941*, Z=-627.528*, Y=0.000*
  1: 0x0064 [0x1F] MOVE_ENTITY: Update entity position (mode=1)
  2: 0x0066 [0x00] END_REQSTACK()
```

### Event 65535.8

#### Metadata

| Field        | Value    |
|--------------|----------|
| Entrypoint   | 0x0067   |
| Data Size    | 33 bytes |
| Instructions | 7        |

```
      00 01 02 03 04 05 06 07  08 09 0A 0B 0C 0D 0E 0F
      -- -- -- -- -- -- -- --  -- -- -- -- -- -- -- --
0060:                      4A  3F F2 04 01 40 F2 04 01         J?...@...
0070: 6F 76 3F F2 04 01 6E 3F  F2 04 01 1E 80 99 3F F2  ov?...n?......?.
0080: 04 01 99 3F F2 04 01 00                           ...?....        
```

#### Opcodes

```
  0: 0x0067 [0x4A] Yafahb (ID: 17101375/0x0104F23F) looks at Automaton (ID: 17101376/0x0104F240)
  1: 0x0070 [0x6F] WAIT_FRAME_DELAY: Yield until WaitTime reaches zero
  2: 0x0071 [0x76] CHECK_ENTITY_RENDER_FLAGS: Wait until Yafahb (ID: 17101375/0x0104F23F) Render.Flags0 and Render.Flags3 conditions are met
  3: 0x0076 [0x6E] Yafahb (ID: 17101375/0x0104F23F) uses emote 21*
  4: 0x007D [0x99] Wait for Yafahb (ID: 17101375/0x0104F23F) animation to complete
  5: 0x0082 [0x99] Wait for Yafahb (ID: 17101375/0x0104F23F) animation to complete
  6: 0x0087 [0x00] END_REQSTACK()
```

### Event 65535.9

#### Metadata

| Field        | Value    |
|--------------|----------|
| Entrypoint   | 0x0088   |
| Data Size    | 87 bytes |
| Instructions | 10       |

```
      00 01 02 03 04 05 06 07  08 09 0A 0B 0C 0D 0E 0F
      -- -- -- -- -- -- -- --  -- -- -- -- -- -- -- --
0080:                          29 0A 3D F2 04 01 02 79          ).=....y
0090: 00 3F F2 04 01 3D F2 04  01 32 0C 80 1F 00 1F 80  .?...=...2......
00A0: 20 80 21 80 1F 01 66 22  80 3F F2 04 01 3F F2 04   .!...f".?...?..
00B0: 01 73 68 61 30 53 F8 FF  FF 7F F8 FF FF 7F 73 68  .sha0S........sh
00C0: 61 30 66 22 80 3F F2 04  01 3F F2 04 01 73 69 72  a0f".?...?...sir
00D0: 30 53 F8 FF FF 7F F8 FF  FF 7F 73 69 72 30 00     0S........sir0. 
```

#### Opcodes

```
  0: 0x0088 [0x29] REQ_SET_WAIT(priority=0x0A, entity_id=??? (ID: 17101373/0x0104F23D), tag_num=0x02)
  1: 0x008F [0x79] Yafahb (ID: 17101375/0x0104F23F) looks at ??? (ID: 17101373/0x0104F23D) (Basic look)
  2: 0x0099 [0x32] ExtData[1]->MainSpeed = 40* * 0.1
  3: 0x009C [0x1F] MOVE_ENTITY: EventEntity moves to X=134.571*, Z=-632.518*, Y=1.160*
  4: 0x00A4 [0x1F] MOVE_ENTITY: Update entity position (mode=1)
  5: 0x00A6 [0x66] LOAD_EXT_SCHEDULER_MAIN: Load scheduler "sha0" with entities [Yafahb (ID: 17101375/0x0104F23F), Yafahb (ID: 17101375/0x0104F23F)], work=9*
  6: 0x00B5 [0x53] WAIT_SCHEDULER_TASK: Wait for scheduler "sha0" with entities [EventEntity, EventEntity]
  7: 0x00C2 [0x66] LOAD_EXT_SCHEDULER_MAIN: Load scheduler "sir0" with entities [Yafahb (ID: 17101375/0x0104F23F), Yafahb (ID: 17101375/0x0104F23F)], work=9*
  8: 0x00D1 [0x53] WAIT_SCHEDULER_TASK: Wait for scheduler "sir0" with entities [EventEntity, EventEntity]
  9: 0x00DE [0x00] END_REQSTACK()
```

### Event 65535.10

#### Metadata

| Field        | Value     |
|--------------|-----------|
| Entrypoint   | 0x00DF    |
| Data Size    | 203 bytes |
| Instructions | 21        |

```
      00 01 02 03 04 05 06 07  08 09 0A 0B 0C 0D 0E 0F
      -- -- -- -- -- -- -- --  -- -- -- -- -- -- -- --
00D0:                                               1F                 .
00E0: 00 23 80 24 80 25 80 1F  01 29 0A 3D F2 04 01 03  .#.$.%...).=....
00F0: 79 00 3F F2 04 01 3D F2  04 01 66 22 80 3F F2 04  y.?...=...f".?..
0100: 01 3F F2 04 01 73 68 61  30 53 F8 FF FF 7F F8 FF  .?...sha0S......
0110: FF 7F 73 68 61 30 66 22  80 3F F2 04 01 3F F2 04  ..sha0f".?...?..
0120: 01 73 69 72 30 1C 26 80  66 22 80 3F F2 04 01 3F  .sir0.&.f".?...?
0130: F2 04 01 73 69 72 31 53  F8 FF FF 7F F8 FF FF 7F  ...sir1S........
0140: 73 69 72 31 66 22 80 3F  F2 04 01 3F F2 04 01 73  sir1f".?...?...s
0150: 68 61 31 53 F8 FF FF 7F  F8 FF FF 7F 73 68 61 31  ha1S........sha1
0160: 1F 00 27 80 28 80 29 80  1F 01 29 0A 3D F2 04 01  ..'.(.)...).=...
0170: 04 79 00 3F F2 04 01 3D  F2 04 01 66 22 80 3F F2  .y.?...=...f".?.
0180: 04 01 3F F2 04 01 73 68  61 30 53 F8 FF FF 7F F8  ..?...sha0S.....
0190: FF FF 7F 73 68 61 30 66  22 80 3F F2 04 01 3F F2  ...sha0f".?...?.
01A0: 04 01 73 69 72 30 1C 26  80 00                    ..sir0.&..      
```

#### Opcodes

```
  0: 0x00DF [0x1F] MOVE_ENTITY: EventEntity moves to X=130.390*, Z=-632.892*, Y=1.428*
  1: 0x00E7 [0x1F] MOVE_ENTITY: Update entity position (mode=1)
  2: 0x00E9 [0x29] REQ_SET_WAIT(priority=0x0A, entity_id=??? (ID: 17101373/0x0104F23D), tag_num=0x03)
  3: 0x00F0 [0x79] Yafahb (ID: 17101375/0x0104F23F) looks at ??? (ID: 17101373/0x0104F23D) (Basic look)
  4: 0x00FA [0x66] LOAD_EXT_SCHEDULER_MAIN: Load scheduler "sha0" with entities [Yafahb (ID: 17101375/0x0104F23F), Yafahb (ID: 17101375/0x0104F23F)], work=9*
  5: 0x0109 [0x53] WAIT_SCHEDULER_TASK: Wait for scheduler "sha0" with entities [EventEntity, EventEntity]
  6: 0x0116 [0x66] LOAD_EXT_SCHEDULER_MAIN: Load scheduler "sir0" with entities [Yafahb (ID: 17101375/0x0104F23F), Yafahb (ID: 17101375/0x0104F23F)], work=9*
  7: 0x0125 [0x1C] WAIT(120* ticks)
  8: 0x0128 [0x66] LOAD_EXT_SCHEDULER_MAIN: Load scheduler "sir1" with entities [Yafahb (ID: 17101375/0x0104F23F), Yafahb (ID: 17101375/0x0104F23F)], work=9*
  9: 0x0137 [0x53] WAIT_SCHEDULER_TASK: Wait for scheduler "sir1" with entities [EventEntity, EventEntity]
 10: 0x0144 [0x66] LOAD_EXT_SCHEDULER_MAIN: Load scheduler "sha1" with entities [Yafahb (ID: 17101375/0x0104F23F), Yafahb (ID: 17101375/0x0104F23F)], work=9*
 11: 0x0153 [0x53] WAIT_SCHEDULER_TASK: Wait for scheduler "sha1" with entities [EventEntity, EventEntity]
 12: 0x0160 [0x1F] MOVE_ENTITY: EventEntity moves to X=127.998*, Z=-630.023*, Y=1.449*
 13: 0x0168 [0x1F] MOVE_ENTITY: Update entity position (mode=1)
 14: 0x016A [0x29] REQ_SET_WAIT(priority=0x0A, entity_id=??? (ID: 17101373/0x0104F23D), tag_num=0x04)
 15: 0x0171 [0x79] Yafahb (ID: 17101375/0x0104F23F) looks at ??? (ID: 17101373/0x0104F23D) (Basic look)
 16: 0x017B [0x66] LOAD_EXT_SCHEDULER_MAIN: Load scheduler "sha0" with entities [Yafahb (ID: 17101375/0x0104F23F), Yafahb (ID: 17101375/0x0104F23F)], work=9*
 17: 0x018A [0x53] WAIT_SCHEDULER_TASK: Wait for scheduler "sha0" with entities [EventEntity, EventEntity]
 18: 0x0197 [0x66] LOAD_EXT_SCHEDULER_MAIN: Load scheduler "sir0" with entities [Yafahb (ID: 17101375/0x0104F23F), Yafahb (ID: 17101375/0x0104F23F)], work=9*
 19: 0x01A6 [0x1C] WAIT(120* ticks)
 20: 0x01A9 [0x00] END_REQSTACK()
```

### Event 65535.11

#### Metadata

| Field        | Value   |
|--------------|---------|
| Entrypoint   | 0x01AA  |
| Data Size    | 1 bytes |
| Instructions | 1       |

```
      00 01 02 03 04 05 06 07  08 09 0A 0B 0C 0D 0E 0F
      -- -- -- -- -- -- -- --  -- -- -- -- -- -- -- --
01A0:                                00                           .     
```

#### Opcodes

```
  0: 0x01AA [0x00] END_REQSTACK()
```

### Event 65535.12

#### Metadata

| Field        | Value    |
|--------------|----------|
| Entrypoint   | 0x01AB   |
| Data Size    | 11 bytes |
| Instructions | 3        |

```
      00 01 02 03 04 05 06 07  08 09 0A 0B 0C 0D 0E 0F
      -- -- -- -- -- -- -- --  -- -- -- -- -- -- -- --
01A0:                                   1F 00 2A 80 2B             ..*.+
01B0: 80 2C 80 1F 01 00                                 .,....          
```

#### Opcodes

```
  0: 0x01AB [0x1F] MOVE_ENTITY: EventEntity moves to X=140.167*, Z=-624.277*, Y=-0.013*
  1: 0x01B3 [0x1F] MOVE_ENTITY: Update entity position (mode=1)
  2: 0x01B5 [0x00] END_REQSTACK()
```

### Event 65535.13

#### Metadata

| Field        | Value    |
|--------------|----------|
| Entrypoint   | 0x01B6   |
| Data Size    | 10 bytes |
| Instructions | 2        |

```
      00 01 02 03 04 05 06 07  08 09 0A 0B 0C 0D 0E 0F
      -- -- -- -- -- -- -- --  -- -- -- -- -- -- -- --
01B0:                   37 2D  80 2E 80 2F 80 30 80 00        7-.../.0..
```

#### Opcodes

```
  0: 0x01B6 [0x37] UPDATE_EVENT_POSITION_AND_DIR: x=497.862*, z=88.953*, y=-33.710*, direction=157.5°*
  1: 0x01BF [0x00] END_REQSTACK()
```

### Event 65535.14

#### Metadata

| Field        | Value    |
|--------------|----------|
| Entrypoint   | 0x01C0   |
| Data Size    | 14 bytes |
| Instructions | 4        |

```
      00 01 02 03 04 05 06 07  08 09 0A 0B 0C 0D 0E 0F
      -- -- -- -- -- -- -- --  -- -- -- -- -- -- -- --
01C0: 32 0C 80 1F 00 31 80 32  80 33 80 1F 01 00        2....1.2.3....  
```

#### Opcodes

```
  0: 0x01C0 [0x32] ExtData[1]->MainSpeed = 40* * 0.1
  1: 0x01C3 [0x1F] MOVE_ENTITY: EventEntity moves to X=476.930*, Z=80.239*, Y=-32.000*
  2: 0x01CB [0x1F] MOVE_ENTITY: Update entity position (mode=1)
  3: 0x01CD [0x00] END_REQSTACK()
```

### Event 65535.15

#### Metadata

| Field        | Value    |
|--------------|----------|
| Entrypoint   | 0x01CE   |
| Data Size    | 10 bytes |
| Instructions | 2        |

```
      00 01 02 03 04 05 06 07  08 09 0A 0B 0C 0D 0E 0F
      -- -- -- -- -- -- -- --  -- -- -- -- -- -- -- --
01C0:                                            37 34                74
01D0: 80 35 80 36 80 37 80 00                           .5.6.7..        
```

#### Opcodes

```
  0: 0x01CE [0x37] UPDATE_EVENT_POSITION_AND_DIR: x=475.370*, z=80.721*, y=-31.962*, direction=250.2°*
  1: 0x01D7 [0x00] END_REQSTACK()
```

### Event 65535.16

#### Metadata

| Field        | Value    |
|--------------|----------|
| Entrypoint   | 0x01D8   |
| Data Size    | 14 bytes |
| Instructions | 4        |

```
      00 01 02 03 04 05 06 07  08 09 0A 0B 0C 0D 0E 0F
      -- -- -- -- -- -- -- --  -- -- -- -- -- -- -- --
01D0:                          32 0C 80 1F 00 38 80 39          2....8.9
01E0: 80 3A 80 1F 01 00                                 .:....          
```

#### Opcodes

```
  0: 0x01D8 [0x32] ExtData[1]->MainSpeed = 40* * 0.1
  1: 0x01DB [0x1F] MOVE_ENTITY: EventEntity moves to X=475.801*, Z=82.226*, Y=-31.999*
  2: 0x01E3 [0x1F] MOVE_ENTITY: Update entity position (mode=1)
  3: 0x01E5 [0x00] END_REQSTACK()
```

### Event 65535.17

#### Metadata

| Field        | Value    |
|--------------|----------|
| Entrypoint   | 0x01E6   |
| Data Size    | 14 bytes |
| Instructions | 4        |

```
      00 01 02 03 04 05 06 07  08 09 0A 0B 0C 0D 0E 0F
      -- -- -- -- -- -- -- --  -- -- -- -- -- -- -- --
01E0:                   32 04  80 1F 00 3B 80 3C 80 3A        2....;.<.:
01F0: 80 1F 01 00                                       ....            
```

#### Opcodes

```
  0: 0x01E6 [0x32] ExtData[1]->MainSpeed = 13* * 0.1
  1: 0x01E9 [0x1F] MOVE_ENTITY: EventEntity moves to X=475.904*, Z=83.073*, Y=-31.999*
  2: 0x01F1 [0x1F] MOVE_ENTITY: Update entity position (mode=1)
  3: 0x01F3 [0x00] END_REQSTACK()
```

### Event 65535.18

#### Metadata

| Field        | Value    |
|--------------|----------|
| Entrypoint   | 0x01F4   |
| Data Size    | 50 bytes |
| Instructions | 8        |

```
      00 01 02 03 04 05 06 07  08 09 0A 0B 0C 0D 0E 0F
      -- -- -- -- -- -- -- --  -- -- -- -- -- -- -- --
01F0:             79 00 3F F2  04 01 F0 FF FF 7F 1C 3D      y.?........=
0200: 80 79 00 3F F2 04 01 42  F2 04 01 1C 3D 80 79 00  .y.?...B....=.y.
0210: 3F F2 04 01 F0 FF FF 7F  1C 3D 80 79 00 3F F2 04  ?........=.y.?..
0220: 01 42 F2 04 01 00                                 .B....          
```

#### Opcodes

```
  0: 0x01F4 [0x79] Yafahb (ID: 17101375/0x0104F23F) looks at LocalPlayer (Basic look)
  1: 0x01FE [0x1C] WAIT(75* ticks)
  2: 0x0201 [0x79] Yafahb (ID: 17101375/0x0104F23F) looks at Iruki-Waraki (ID: 17101378/0x0104F242) (Basic look)
  3: 0x020B [0x1C] WAIT(75* ticks)
  4: 0x020E [0x79] Yafahb (ID: 17101375/0x0104F23F) looks at LocalPlayer (Basic look)
  5: 0x0218 [0x1C] WAIT(75* ticks)
  6: 0x021B [0x79] Yafahb (ID: 17101375/0x0104F23F) looks at Iruki-Waraki (ID: 17101378/0x0104F242) (Basic look)
  7: 0x0225 [0x00] END_REQSTACK()
```
