# 17101418

## Common Data

| Field            | Value                  |
|------------------|------------------------|
| Zone             | Caedarva Mire (ID: 79) |
| Block Size       | 164 bytes              |
| Total Events     | 5                      |
| References Count | 10                     |

## List of Events

| Event ID                 | Entrypoint   |   Size |   Instructions |
|--------------------------|--------------|--------|----------------|
| [65535](#event-65535)    | 0x0000       |      1 |              1 |
| [310](#event-310)        | 0x0001       |      7 |              2 |
| [312](#event-312)        | 0x0008       |     38 |              7 |
| [311](#event-311)        | 0x002E       |      1 |              1 |
| [65535.1](#event-655351) | 0x002F       |     38 |              7 |

## DAT References (imed_data)

|   Index | Hex Value   |   Dec Value |
|---------|-------------|-------------|
|       0 | 0xFFF91C31  |  4294515761 |
|       1 | 0xFFF6A4AD  |  4294354093 |
|       2 | 0x1CE2      |        7394 |
|       3 | 0x0132      |         306 |
|       4 | 0x0400      |        1024 |
|       5 | 0x0001      |           1 |
|       6 | 0xFFF901D7  |  4294509015 |
|       7 | 0xFFF6E67D  |  4294370941 |
|       8 | 0x1D4B      |        7499 |
|       9 | 0x00DC      |         220 |

## Events

### Event 65535

#### Metadata

| Field        | Value   |
|--------------|---------|
| Entrypoint   | 0x0000  |
| Data Size    | 1 bytes |
| Instructions | 1       |

```
      00 01 02 03 04 05 06 07  08 09 0A 0B 0C 0D 0E 0F
      -- -- -- -- -- -- -- --  -- -- -- -- -- -- -- --
0000: 00                                                .               
```

#### Opcodes

```
  0: 0x0000 [0x00] END_REQSTACK()
```

### Event 310

#### Metadata

| Field        | Value   |
|--------------|---------|
| Entrypoint   | 0x0001  |
| Data Size    | 7 bytes |
| Instructions | 2       |

```
      00 01 02 03 04 05 06 07  08 09 0A 0B 0C 0D 0E 0F
      -- -- -- -- -- -- -- --  -- -- -- -- -- -- -- --
0000:    92 01 F8 FF FF 7F 00                            .......        
```

#### Opcodes

```
  0: 0x0001 [0x92] EventEntity->Render.Flags3 ^= 0x01
  1: 0x0007 [0x00] END_REQSTACK()
```

### Event 312

#### Metadata

| Field        | Value    |
|--------------|----------|
| Entrypoint   | 0x0008   |
| Data Size    | 38 bytes |
| Instructions | 7        |

```
      00 01 02 03 04 05 06 07  08 09 0A 0B 0C 0D 0E 0F
      -- -- -- -- -- -- -- --  -- -- -- -- -- -- -- --
0000:                          33 01 37 00 80 01 80 02          3.7.....
0010: 80 03 80 D8 01 6A F2 04  01 04 80 D8 03 6A F2 04  .....j.......j..
0020: 01 05 80 D8 02 6A F2 04  01 05 80 22 00 00        .....j....."..  
```

#### Opcodes

```
  0: 0x0008 [0x33] EventEntity->Render.Flags0 |= 0x200000 // Bit 21 (flag=0x01)
  1: 0x000A [0x37] UPDATE_EVENT_POSITION_AND_DIR: x=-451.535*, z=-613.203*, y=7.394*, direction=26.9°*
  2: 0x0013 [0xD8] SET_ENTITY_EVENT_DIR: Set Unnamed NPC (ID: 17101418/0x0104F26A) EventDir[0] = 1024*
  3: 0x001B [0xD8] SET_ENTITY_EVENT_DIR: Set Unnamed NPC (ID: 17101418/0x0104F26A) EventDir[2] = 1*
  4: 0x0023 [0xD8] SET_ENTITY_EVENT_DIR: Set Unnamed NPC (ID: 17101418/0x0104F26A) EventDir[1] = 1*
  5: 0x002B [0x22] ENTITY_HIDE_FLAG(enabled=0x00)
  6: 0x002D [0x00] END_REQSTACK()
```

### Event 311

#### Metadata

| Field        | Value   |
|--------------|---------|
| Entrypoint   | 0x002E  |
| Data Size    | 1 bytes |
| Instructions | 1       |

```
      00 01 02 03 04 05 06 07  08 09 0A 0B 0C 0D 0E 0F
      -- -- -- -- -- -- -- --  -- -- -- -- -- -- -- --
0020:                                            00                   . 
```

#### Opcodes

```
  0: 0x002E [0x00] END_REQSTACK()
```

### Event 65535.1

#### Metadata

| Field        | Value    |
|--------------|----------|
| Entrypoint   | 0x002F   |
| Data Size    | 38 bytes |
| Instructions | 7        |

```
      00 01 02 03 04 05 06 07  08 09 0A 0B 0C 0D 0E 0F
      -- -- -- -- -- -- -- --  -- -- -- -- -- -- -- --
0020:                                               33                 3
0030: 01 37 06 80 07 80 08 80  09 80 D8 01 6A F2 04 01  .7..........j...
0040: 04 80 D8 03 6A F2 04 01  05 80 D8 02 6A F2 04 01  ....j.......j...
0050: 05 80 22 00 00                                    .."..           
```

#### Opcodes

```
  0: 0x002F [0x33] EventEntity->Render.Flags0 |= 0x200000 // Bit 21 (flag=0x01)
  1: 0x0031 [0x37] UPDATE_EVENT_POSITION_AND_DIR: x=-458.281*, z=-596.355*, y=7.499*, direction=19.3°*
  2: 0x003A [0xD8] SET_ENTITY_EVENT_DIR: Set Unnamed NPC (ID: 17101418/0x0104F26A) EventDir[0] = 1024*
  3: 0x0042 [0xD8] SET_ENTITY_EVENT_DIR: Set Unnamed NPC (ID: 17101418/0x0104F26A) EventDir[2] = 1*
  4: 0x004A [0xD8] SET_ENTITY_EVENT_DIR: Set Unnamed NPC (ID: 17101418/0x0104F26A) EventDir[1] = 1*
  5: 0x0052 [0x22] ENTITY_HIDE_FLAG(enabled=0x00)
  6: 0x0054 [0x00] END_REQSTACK()
```
