# 17101339

## Common Data

| Field            | Value                  |
|------------------|------------------------|
| Zone             | Caedarva Mire (ID: 79) |
| Block Size       | 452 bytes              |
| Total Events     | 20                     |
| References Count | 16                     |

## List of Events

| Event ID                   | Entrypoint   |   Size |   Instructions |
|----------------------------|--------------|--------|----------------|
| [65535](#event-65535)      | 0x0000       |      1 |              1 |
| [8](#event-8)              | 0x0001       |      1 |              1 |
| [9](#event-9)              | 0x0002       |      1 |              1 |
| [24](#event-24)            | 0x0003       |      1 |              1 |
| [65535.1](#event-655351)   | 0x0004       |     13 |              3 |
| [65535.2](#event-655352)   | 0x0011       |     10 |              2 |
| [21](#event-21)            | 0x001B       |      1 |              1 |
| [65535.3](#event-655353)   | 0x001C       |     79 |             12 |
| [65535.4](#event-655354)   | 0x006B       |     52 |              6 |
| [65535.5](#event-655355)   | 0x009F       |     52 |              6 |
| [65535.6](#event-655356)   | 0x00D3       |     10 |              2 |
| [65535.7](#event-655357)   | 0x00DD       |     10 |              2 |
| [65535.8](#event-655358)   | 0x00E7       |     27 |              3 |
| [65535.9](#event-655359)   | 0x0102       |      7 |              2 |
| [65535.10](#event-6553510) | 0x0109       |      7 |              2 |
| [65535.11](#event-6553511) | 0x0110       |      7 |              2 |
| [65535.12](#event-6553512) | 0x0117       |     10 |              2 |
| [25](#event-25)            | 0x0121       |      1 |              1 |
| [27](#event-27)            | 0x0122       |      1 |              1 |
| [26](#event-26)            | 0x0123       |      1 |              1 |

## DAT References (imed_data)

|   Index | Hex Value   |   Dec Value |
|---------|-------------|-------------|
|       0 | 0x001E      |          30 |
|       1 | 0x0000      |           0 |
|       2 | 0x0078      |         120 |
|       3 | 0x0396      |         918 |
|       4 | 0x0150      |         336 |
|       5 | 0x03FB      |        1019 |
|       6 | 0x003C      |          60 |
|       7 | 0x0080      |         128 |
|       8 | 0x000F      |          15 |
|       9 | 0x0001      |           1 |
|      10 | 0x013C      |         316 |
|      11 | 0x000E      |          14 |
|      12 | 0x0384      |         900 |
|      13 | 0x0006      |           6 |
|      14 | 0x012C      |         300 |
|      15 | 0x0E10      |        3600 |

## Events

### Event 65535

#### Metadata

| Field        | Value   |
|--------------|---------|
| Entrypoint   | 0x0000  |
| Data Size    | 1 bytes |
| Instructions | 1       |

```
      00 01 02 03 04 05 06 07  08 09 0A 0B 0C 0D 0E 0F
      -- -- -- -- -- -- -- --  -- -- -- -- -- -- -- --
0000: 00                                                .               
```

#### Opcodes

```
  0: 0x0000 [0x00] END_REQSTACK()
```

### Event 8

#### Metadata

| Field        | Value   |
|--------------|---------|
| Entrypoint   | 0x0001  |
| Data Size    | 1 bytes |
| Instructions | 1       |

```
      00 01 02 03 04 05 06 07  08 09 0A 0B 0C 0D 0E 0F
      -- -- -- -- -- -- -- --  -- -- -- -- -- -- -- --
0000:    00                                              .              
```

#### Opcodes

```
  0: 0x0001 [0x00] END_REQSTACK()
```

### Event 9

#### Metadata

| Field        | Value   |
|--------------|---------|
| Entrypoint   | 0x0002  |
| Data Size    | 1 bytes |
| Instructions | 1       |

```
      00 01 02 03 04 05 06 07  08 09 0A 0B 0C 0D 0E 0F
      -- -- -- -- -- -- -- --  -- -- -- -- -- -- -- --
0000:       00                                            .             
```

#### Opcodes

```
  0: 0x0002 [0x00] END_REQSTACK()
```

### Event 24

#### Metadata

| Field        | Value   |
|--------------|---------|
| Entrypoint   | 0x0003  |
| Data Size    | 1 bytes |
| Instructions | 1       |

```
      00 01 02 03 04 05 06 07  08 09 0A 0B 0C 0D 0E 0F
      -- -- -- -- -- -- -- --  -- -- -- -- -- -- -- --
0000:          00                                          .            
```

#### Opcodes

```
  0: 0x0003 [0x00] END_REQSTACK()
```

### Event 65535.1

#### Metadata

| Field        | Value    |
|--------------|----------|
| Entrypoint   | 0x0004   |
| Data Size    | 13 bytes |
| Instructions | 3        |

```
      00 01 02 03 04 05 06 07  08 09 0A 0B 0C 0D 0E 0F
      -- -- -- -- -- -- -- --  -- -- -- -- -- -- -- --
0000:             1C 00 80 4A  F0 FF FF 7F 20 F2 04 01      ...J.... ...
0010: 00                                                .               
```

#### Opcodes

```
  0: 0x0004 [0x1C] WAIT(30* ticks)
  1: 0x0007 [0x4A] LocalPlayer looks at Jazaraat (ID: 17101344/0x0104F220)
  2: 0x0010 [0x00] END_REQSTACK()
```

### Event 65535.2

#### Metadata

| Field        | Value    |
|--------------|----------|
| Entrypoint   | 0x0011   |
| Data Size    | 10 bytes |
| Instructions | 2        |

```
      00 01 02 03 04 05 06 07  08 09 0A 0B 0C 0D 0E 0F
      -- -- -- -- -- -- -- --  -- -- -- -- -- -- -- --
0010:    6C 20 F2 04 01 01 80  02 80 00                  l ........     
```

#### Opcodes

```
  0: 0x0011 [0x6C] FADE_ENTITY_COLOR(entity_id=Jazaraat (ID: 17101344/0x0104F220), end_alpha=0*, fade_time=120*)
  1: 0x001A [0x00] END_REQSTACK()
```

### Event 21

#### Metadata

| Field        | Value   |
|--------------|---------|
| Entrypoint   | 0x001B  |
| Data Size    | 1 bytes |
| Instructions | 1       |

```
      00 01 02 03 04 05 06 07  08 09 0A 0B 0C 0D 0E 0F
      -- -- -- -- -- -- -- --  -- -- -- -- -- -- -- --
0010:                                   00                         .    
```

#### Opcodes

```
  0: 0x001B [0x00] END_REQSTACK()
```

### Event 65535.3

#### Metadata

| Field        | Value    |
|--------------|----------|
| Entrypoint   | 0x001C   |
| Data Size    | 79 bytes |
| Instructions | 12       |

```
      00 01 02 03 04 05 06 07  08 09 0A 0B 0C 0D 0E 0F
      -- -- -- -- -- -- -- --  -- -- -- -- -- -- -- --
0010:                                      5B 03 80 21              [..!
0020: F2 04 01 21 F2 04 01 67  6F 30 31 03 02 10 04 80  ...!...go01.....
0030: 27 10 1A F2 04 01 04 1C  02 80 27 10 2A F2 04 01  '.........'.*...
0040: 0A 27 10 2C F2 04 01 0C  27 10 2D F2 04 01 0C 27  .'.,....'.-....'
0050: 10 2E F2 04 01 0B 2A 10  1A F2 04 01 27 10 29 F2  ......*.....'.).
0060: 04 01 0A 27 10 21 F2 04  01 0A 00                 ...'.!.....     
```

#### Opcodes

```
  0: 0x001C [0x5B] LOAD_EXT_SCHEDULER: Load scheduler "go01" with entities [Razfahd (ID: 17101345/0x0104F221), Razfahd (ID: 17101345/0x0104F221)], work=918*
  1: 0x002B [0x03] Work_Zone[2] = 336*
  2: 0x0030 [0x27] REQ_SET(priority=0x10, entity_id=??? (ID: 17101338/0x0104F21A), tag_num=0x04)
  3: 0x0037 [0x1C] WAIT(120* ticks)
  4: 0x003A [0x27] REQ_SET(priority=0x10, entity_id=Amkeen (ID: 17101354/0x0104F22A), tag_num=0x0A)
  5: 0x0041 [0x27] REQ_SET(priority=0x10, entity_id=1 (ID: 17101356/0x0104F22C), tag_num=0x0C)
  6: 0x0048 [0x27] REQ_SET(priority=0x10, entity_id=2 (ID: 17101357/0x0104F22D), tag_num=0x0C)
  7: 0x004F [0x27] REQ_SET(priority=0x10, entity_id=3 (ID: 17101358/0x0104F22E), tag_num=0x0B)
  8: 0x0056 [0x2A] GET_REQ_LEVEL(level=16, entity_id=??? (ID: 17101338/0x0104F21A))
  9: 0x005C [0x27] REQ_SET(priority=0x10, entity_id=Whafael (ID: 17101353/0x0104F229), tag_num=0x0A)
 10: 0x0063 [0x27] REQ_SET(priority=0x10, entity_id=Razfahd (ID: 17101345/0x0104F221), tag_num=0x0A)
 11: 0x006A [0x00] END_REQSTACK()
```

### Event 65535.4

#### Metadata

| Field        | Value    |
|--------------|----------|
| Entrypoint   | 0x006B   |
| Data Size    | 52 bytes |
| Instructions | 6        |

```
      00 01 02 03 04 05 06 07  08 09 0A 0B 0C 0D 0E 0F
      -- -- -- -- -- -- -- --  -- -- -- -- -- -- -- --
0060:                                   5B 05 80 2E F2             [....
0070: 04 01 2E F2 04 01 6B 73  69 30 1C 06 80 5B 05 80  ......ksi0...[..
0080: 2D F2 04 01 2D F2 04 01  6B 73 69 30 1C 06 80 5B  -...-...ksi0...[
0090: 05 80 2C F2 04 01 2C F2  04 01 6B 73 69 30 00     ..,...,...ksi0. 
```

#### Opcodes

```
  0: 0x006B [0x5B] LOAD_EXT_SCHEDULER: Load scheduler "ksi0" with entities [3 (ID: 17101358/0x0104F22E), 3 (ID: 17101358/0x0104F22E)], work=1019*
  1: 0x007A [0x1C] WAIT(60* ticks)
  2: 0x007D [0x5B] LOAD_EXT_SCHEDULER: Load scheduler "ksi0" with entities [2 (ID: 17101357/0x0104F22D), 2 (ID: 17101357/0x0104F22D)], work=1019*
  3: 0x008C [0x1C] WAIT(60* ticks)
  4: 0x008F [0x5B] LOAD_EXT_SCHEDULER: Load scheduler "ksi0" with entities [1 (ID: 17101356/0x0104F22C), 1 (ID: 17101356/0x0104F22C)], work=1019*
  5: 0x009E [0x00] END_REQSTACK()
```

### Event 65535.5

#### Metadata

| Field        | Value    |
|--------------|----------|
| Entrypoint   | 0x009F   |
| Data Size    | 52 bytes |
| Instructions | 6        |

```
      00 01 02 03 04 05 06 07  08 09 0A 0B 0C 0D 0E 0F
      -- -- -- -- -- -- -- --  -- -- -- -- -- -- -- --
0090:                                               5B                 [
00A0: 05 80 2E F2 04 01 2E F2  04 01 6B 73 69 31 1C 06  ..........ksi1..
00B0: 80 5B 05 80 2D F2 04 01  2D F2 04 01 6B 73 69 31  .[..-...-...ksi1
00C0: 1C 06 80 5B 05 80 2C F2  04 01 2C F2 04 01 6B 73  ...[..,...,...ks
00D0: 69 31 00                                          i1.             
```

#### Opcodes

```
  0: 0x009F [0x5B] LOAD_EXT_SCHEDULER: Load scheduler "ksi1" with entities [3 (ID: 17101358/0x0104F22E), 3 (ID: 17101358/0x0104F22E)], work=1019*
  1: 0x00AE [0x1C] WAIT(60* ticks)
  2: 0x00B1 [0x5B] LOAD_EXT_SCHEDULER: Load scheduler "ksi1" with entities [2 (ID: 17101357/0x0104F22D), 2 (ID: 17101357/0x0104F22D)], work=1019*
  3: 0x00C0 [0x1C] WAIT(60* ticks)
  4: 0x00C3 [0x5B] LOAD_EXT_SCHEDULER: Load scheduler "ksi1" with entities [1 (ID: 17101356/0x0104F22C), 1 (ID: 17101356/0x0104F22C)], work=1019*
  5: 0x00D2 [0x00] END_REQSTACK()
```

### Event 65535.6

#### Metadata

| Field        | Value    |
|--------------|----------|
| Entrypoint   | 0x00D3   |
| Data Size    | 10 bytes |
| Instructions | 2        |

```
      00 01 02 03 04 05 06 07  08 09 0A 0B 0C 0D 0E 0F
      -- -- -- -- -- -- -- --  -- -- -- -- -- -- -- --
00D0:          6C 23 F2 04 01  07 80 08 80 00              l#........   
```

#### Opcodes

```
  0: 0x00D3 [0x6C] FADE_ENTITY_COLOR(entity_id=Ovjang (ID: 17101347/0x0104F223), end_alpha=128*, fade_time=15*)
  1: 0x00DC [0x00] END_REQSTACK()
```

### Event 65535.7

#### Metadata

| Field        | Value    |
|--------------|----------|
| Entrypoint   | 0x00DD   |
| Data Size    | 10 bytes |
| Instructions | 2        |

```
      00 01 02 03 04 05 06 07  08 09 0A 0B 0C 0D 0E 0F
      -- -- -- -- -- -- -- --  -- -- -- -- -- -- -- --
00D0:                                         6C 23 F2               l#.
00E0: 04 01 01 80 09 80 00                              .......         
```

#### Opcodes

```
  0: 0x00DD [0x6C] FADE_ENTITY_COLOR(entity_id=Ovjang (ID: 17101347/0x0104F223), end_alpha=0*, fade_time=1*)
  1: 0x00E6 [0x00] END_REQSTACK()
```

### Event 65535.8

#### Metadata

| Field        | Value    |
|--------------|----------|
| Entrypoint   | 0x00E7   |
| Data Size    | 27 bytes |
| Instructions | 3        |

```
      00 01 02 03 04 05 06 07  08 09 0A 0B 0C 0D 0E 0F
      -- -- -- -- -- -- -- --  -- -- -- -- -- -- -- --
00E0:                      6C  27 F2 04 01 07 80 06 80         l'.......
00F0: 45 0A 80 F0 FF FF 7F 27  F2 04 01 30 35 6B 65 01  E......'...05ke.
0100: 80 00                                             ..              
```

#### Opcodes

```
  0: 0x00E7 [0x6C] FADE_ENTITY_COLOR(entity_id=Flit (ID: 17101351/0x0104F227), end_alpha=128*, fade_time=60*)
  1: 0x00F0 [0x45] LOAD_SCHEDULED_TASK: Load scheduler "05ke" with entities [LocalPlayer, Flit (ID: 17101351/0x0104F227)], work=[316*, 0*]
  2: 0x0101 [0x00] END_REQSTACK()
```

### Event 65535.9

#### Metadata

| Field        | Value   |
|--------------|---------|
| Entrypoint   | 0x0102  |
| Data Size    | 7 bytes |
| Instructions | 2       |

```
      00 01 02 03 04 05 06 07  08 09 0A 0B 0C 0D 0E 0F
      -- -- -- -- -- -- -- --  -- -- -- -- -- -- -- --
0100:       AE 00 0B 80 0C 80  00                         .......       
```

#### Opcodes

```
  0: 0x0102 [0xAE] MULTI_PURPOSE_ENTITY_HANDLER(case_type=0x00 - Weather, param1=14*, param2=900*)
  1: 0x0108 [0x00] END_REQSTACK()
```

### Event 65535.10

#### Metadata

| Field        | Value   |
|--------------|---------|
| Entrypoint   | 0x0109  |
| Data Size    | 7 bytes |
| Instructions | 2       |

```
      00 01 02 03 04 05 06 07  08 09 0A 0B 0C 0D 0E 0F
      -- -- -- -- -- -- -- --  -- -- -- -- -- -- -- --
0100:                             AE 00 0D 80 0E 80 00           .......
```

#### Opcodes

```
  0: 0x0109 [0xAE] MULTI_PURPOSE_ENTITY_HANDLER(case_type=0x00 - Weather, param1=6*, param2=300*)
  1: 0x010F [0x00] END_REQSTACK()
```

### Event 65535.11

#### Metadata

| Field        | Value   |
|--------------|---------|
| Entrypoint   | 0x0110  |
| Data Size    | 7 bytes |
| Instructions | 2       |

```
      00 01 02 03 04 05 06 07  08 09 0A 0B 0C 0D 0E 0F
      -- -- -- -- -- -- -- --  -- -- -- -- -- -- -- --
0110: AE 00 0B 80 0F 80 00                              .......         
```

#### Opcodes

```
  0: 0x0110 [0xAE] MULTI_PURPOSE_ENTITY_HANDLER(case_type=0x00 - Weather, param1=14*, param2=3600*)
  1: 0x0116 [0x00] END_REQSTACK()
```

### Event 65535.12

#### Metadata

| Field        | Value    |
|--------------|----------|
| Entrypoint   | 0x0117   |
| Data Size    | 10 bytes |
| Instructions | 2        |

```
      00 01 02 03 04 05 06 07  08 09 0A 0B 0C 0D 0E 0F
      -- -- -- -- -- -- -- --  -- -- -- -- -- -- -- --
0110:                      6C  32 F2 04 01 01 80 02 80         l2.......
0120: 00                                                .               
```

#### Opcodes

```
  0: 0x0117 [0x6C] FADE_ENTITY_COLOR(entity_id=Balrahn Eidolon (ID: 17101362/0x0104F232), end_alpha=0*, fade_time=120*)
  1: 0x0120 [0x00] END_REQSTACK()
```

### Event 25

#### Metadata

| Field        | Value   |
|--------------|---------|
| Entrypoint   | 0x0121  |
| Data Size    | 1 bytes |
| Instructions | 1       |

```
      00 01 02 03 04 05 06 07  08 09 0A 0B 0C 0D 0E 0F
      -- -- -- -- -- -- -- --  -- -- -- -- -- -- -- --
0120:    00                                              .              
```

#### Opcodes

```
  0: 0x0121 [0x00] END_REQSTACK()
```

### Event 27

#### Metadata

| Field        | Value   |
|--------------|---------|
| Entrypoint   | 0x0122  |
| Data Size    | 1 bytes |
| Instructions | 1       |

```
      00 01 02 03 04 05 06 07  08 09 0A 0B 0C 0D 0E 0F
      -- -- -- -- -- -- -- --  -- -- -- -- -- -- -- --
0120:       00                                            .             
```

#### Opcodes

```
  0: 0x0122 [0x00] END_REQSTACK()
```

### Event 26

#### Metadata

| Field        | Value   |
|--------------|---------|
| Entrypoint   | 0x0123  |
| Data Size    | 1 bytes |
| Instructions | 1       |

```
      00 01 02 03 04 05 06 07  08 09 0A 0B 0C 0D 0E 0F
      -- -- -- -- -- -- -- --  -- -- -- -- -- -- -- --
0120:          00                                          .            
```

#### Opcodes

```
  0: 0x0123 [0x00] END_REQSTACK()
```
