# 17101391 - Basweema

## Common Data

| Field            | Value                  |
|------------------|------------------------|
| Zone             | Caedarva Mire (ID: 79) |
| Block Size       | 188 bytes              |
| Total Events     | 8                      |
| References Count | 15                     |

## List of Events

| Event ID                 | Entrypoint   |   Size |   Instructions |
|--------------------------|--------------|--------|----------------|
| [65535](#event-65535)    | 0x0000       |      1 |              1 |
| [17](#event-17)          | 0x0001       |      1 |              1 |
| [65535.1](#event-655351) | 0x0002       |     19 |              3 |
| [65535.2](#event-655352) | 0x0015       |     19 |              3 |
| [65535.3](#event-655353) | 0x0028       |     10 |              2 |
| [65535.4](#event-655354) | 0x0032       |     19 |              3 |
| [18](#event-18)          | 0x0045       |     10 |              2 |
| [19](#event-19)          | 0x004F       |      1 |              1 |

## DAT References (imed_data)

|   Index | Hex Value   |   Dec Value |
|---------|-------------|-------------|
|       0 | 0x704F9     |      460025 |
|       1 | 0xFFFBA499  |  4294681753 |
|       2 | 0xFFFFE252  |  4294959698 |
|       3 | 0x0049      |          73 |
|       4 | 0x701EF     |      459247 |
|       5 | 0xFFFBA026  |  4294680614 |
|       6 | 0xFFFFE20B  |  4294959627 |
|       7 | 0x0EDD      |        3805 |
|       8 | 0x0000      |           0 |
|       9 | 0x0080      |         128 |
|      10 | 0x00F0      |         240 |
|      11 | 0x706E0     |      460512 |
|      12 | 0xFFFBC43F  |  4294689855 |
|      13 | 0xFFFFE38D  |  4294960013 |
|      14 | 0x0B76      |        2934 |

## Events

### Event 65535

#### Metadata

| Field        | Value   |
|--------------|---------|
| Entrypoint   | 0x0000  |
| Data Size    | 1 bytes |
| Instructions | 1       |

```
      00 01 02 03 04 05 06 07  08 09 0A 0B 0C 0D 0E 0F
      -- -- -- -- -- -- -- --  -- -- -- -- -- -- -- --
0000: 00                                                .               
```

#### Opcodes

```
  0: 0x0000 [0x00] END_REQSTACK()
```

### Event 17

#### Metadata

| Field        | Value   |
|--------------|---------|
| Entrypoint   | 0x0001  |
| Data Size    | 1 bytes |
| Instructions | 1       |

```
      00 01 02 03 04 05 06 07  08 09 0A 0B 0C 0D 0E 0F
      -- -- -- -- -- -- -- --  -- -- -- -- -- -- -- --
0000:    00                                              .              
```

#### Opcodes

```
  0: 0x0001 [0x00] END_REQSTACK()
```

### Event 65535.1

#### Metadata

| Field        | Value    |
|--------------|----------|
| Entrypoint   | 0x0002   |
| Data Size    | 19 bytes |
| Instructions | 3        |

```
      00 01 02 03 04 05 06 07  08 09 0A 0B 0C 0D 0E 0F
      -- -- -- -- -- -- -- --  -- -- -- -- -- -- -- --
0000:       37 00 80 01 80 02  80 03 80 4A 4F F2 04 01    7........JO...
0010: 49 F2 04 01 00                                    I....           
```

#### Opcodes

```
  0: 0x0002 [0x37] UPDATE_EVENT_POSITION_AND_DIR: x=460.025*, z=-285.543*, y=-7.598*, direction=6.4°*
  1: 0x000B [0x4A] Basweema (ID: 17101391/0x0104F24F) looks at Ahgdeen (ID: 17101385/0x0104F249)
  2: 0x0014 [0x00] END_REQSTACK()
```

### Event 65535.2

#### Metadata

| Field        | Value    |
|--------------|----------|
| Entrypoint   | 0x0015   |
| Data Size    | 19 bytes |
| Instructions | 3        |

```
      00 01 02 03 04 05 06 07  08 09 0A 0B 0C 0D 0E 0F
      -- -- -- -- -- -- -- --  -- -- -- -- -- -- -- --
0010:                37 04 80  05 80 06 80 07 80 4A 4F       7........JO
0020: F2 04 01 4E F2 04 01 00                           ...N....        
```

#### Opcodes

```
  0: 0x0015 [0x37] UPDATE_EVENT_POSITION_AND_DIR: x=459.247*, z=-286.682*, y=-7.669*, direction=334.4°*
  1: 0x001E [0x4A] Basweema (ID: 17101391/0x0104F24F) looks at lamia2 (ID: 17101390/0x0104F24E)
  2: 0x0027 [0x00] END_REQSTACK()
```

### Event 65535.3

#### Metadata

| Field        | Value    |
|--------------|----------|
| Entrypoint   | 0x0028   |
| Data Size    | 10 bytes |
| Instructions | 2        |

```
      00 01 02 03 04 05 06 07  08 09 0A 0B 0C 0D 0E 0F
      -- -- -- -- -- -- -- --  -- -- -- -- -- -- -- --
0020:                          6C F8 FF FF 7F 08 80 08          l.......
0030: 80 00                                             ..              
```

#### Opcodes

```
  0: 0x0028 [0x6C] FADE_ENTITY_COLOR(entity_id=EventEntity, end_alpha=0*, fade_time=0*)
  1: 0x0031 [0x00] END_REQSTACK()
```

### Event 65535.4

#### Metadata

| Field        | Value    |
|--------------|----------|
| Entrypoint   | 0x0032   |
| Data Size    | 19 bytes |
| Instructions | 3        |

```
      00 01 02 03 04 05 06 07  08 09 0A 0B 0C 0D 0E 0F
      -- -- -- -- -- -- -- --  -- -- -- -- -- -- -- --
0030:       4A 4F F2 04 01 49  F2 04 01 6C F8 FF FF 7F    JO...I...l....
0040: 09 80 0A 80 00                                    .....           
```

#### Opcodes

```
  0: 0x0032 [0x4A] Basweema (ID: 17101391/0x0104F24F) looks at Ahgdeen (ID: 17101385/0x0104F249)
  1: 0x003B [0x6C] FADE_ENTITY_COLOR(entity_id=EventEntity, end_alpha=128*, fade_time=240*)
  2: 0x0044 [0x00] END_REQSTACK()
```

### Event 18

#### Metadata

| Field        | Value    |
|--------------|----------|
| Entrypoint   | 0x0045   |
| Data Size    | 10 bytes |
| Instructions | 2        |

```
      00 01 02 03 04 05 06 07  08 09 0A 0B 0C 0D 0E 0F
      -- -- -- -- -- -- -- --  -- -- -- -- -- -- -- --
0040:                37 0B 80  0C 80 0D 80 0E 80 00          7......... 
```

#### Opcodes

```
  0: 0x0045 [0x37] UPDATE_EVENT_POSITION_AND_DIR: x=460.512*, z=-277.441*, y=-7.283*, direction=257.9°*
  1: 0x004E [0x00] END_REQSTACK()
```

### Event 19

#### Metadata

| Field        | Value   |
|--------------|---------|
| Entrypoint   | 0x004F  |
| Data Size    | 1 bytes |
| Instructions | 1       |

```
      00 01 02 03 04 05 06 07  08 09 0A 0B 0C 0D 0E 0F
      -- -- -- -- -- -- -- --  -- -- -- -- -- -- -- --
0040:                                               00                 .
```

#### Opcodes

```
  0: 0x004F [0x00] END_REQSTACK()
```
