# 17101385 - Ahgdeen

## Common Data

| Field            | Value                  |
|------------------|------------------------|
| Zone             | Caedarva Mire (ID: 79) |
| Block Size       | 592 bytes              |
| Total Events     | 19                     |
| References Count | 60                     |

## List of Events

| Event ID                   | Entrypoint   |   Size |   Instructions |
|----------------------------|--------------|--------|----------------|
| [65535](#event-65535)      | 0x0000       |      1 |              1 |
| [16](#event-16)            | 0x0001       |     10 |              2 |
| [65535.1](#event-655351)   | 0x000B       |     14 |              4 |
| [65535.2](#event-655352)   | 0x0019       |     14 |              4 |
| [65535.3](#event-655353)   | 0x0027       |     10 |              2 |
| [65535.4](#event-655354)   | 0x0031       |     10 |              2 |
| [65535.5](#event-655355)   | 0x003B       |     10 |              2 |
| [65535.6](#event-655356)   | 0x0045       |     10 |              2 |
| [65535.7](#event-655357)   | 0x004F       |     14 |              4 |
| [65535.8](#event-655358)   | 0x005D       |      4 |              2 |
| [17](#event-17)            | 0x0061       |     10 |              2 |
| [65535.9](#event-655359)   | 0x006B       |     42 |              8 |
| [65535.10](#event-6553510) | 0x0095       |     23 |              5 |
| [18](#event-18)            | 0x00AC       |     10 |              2 |
| [65535.11](#event-6553511) | 0x00B6       |     23 |              5 |
| [65535.12](#event-6553512) | 0x00CD       |     14 |              4 |
| [65535.13](#event-6553513) | 0x00DB       |     10 |              2 |
| [65535.14](#event-6553514) | 0x00E5       |     19 |              3 |
| [19](#event-19)            | 0x00F8       |     10 |              2 |

## DAT References (imed_data)

|   Index | Hex Value   |   Dec Value |
|---------|-------------|-------------|
|       0 | 0x6AAD8     |      436952 |
|       1 | 0xFFFBE68D  |  4294698637 |
|       2 | 0xFFFFD861  |  4294957153 |
|       3 | 0x02D7      |         727 |
|       4 | 0x0028      |          40 |
|       5 | 0x6C0BA     |      442554 |
|       6 | 0xFFFBE21E  |  4294697502 |
|       7 | 0xFFFFD92F  |  4294957359 |
|       8 | 0x6D83F     |      448575 |
|       9 | 0xFFFBD33F  |  4294693695 |
|      10 | 0xFFFFE301  |  4294959873 |
|      11 | 0x743AB     |      476075 |
|      12 | 0xFFFBDC9E  |  4294696094 |
|      13 | 0xFFFFDD1D  |  4294958365 |
|      14 | 0x03D0      |         976 |
|      15 | 0x75459     |      480345 |
|      16 | 0xFFFBE82D  |  4294699053 |
|      17 | 0xFFFFD8F0  |  4294957296 |
|      18 | 0x006C      |         108 |
|      19 | 0x70E92     |      462482 |
|      20 | 0xFFFC2615  |  4294714901 |
|      21 | 0xFFFFB662  |  4294948450 |
|      22 | 0x03A0      |         928 |
|      23 | 0x74E39     |      478777 |
|      24 | 0xFFFC0C10  |  4294708240 |
|      25 | 0xFFFFD255  |  4294955605 |
|      26 | 0x0AC7      |        2759 |
|      27 | 0x000D      |          13 |
|      28 | 0x75323     |      480035 |
|      29 | 0xFFFBF718  |  4294702872 |
|      30 | 0x07D0      |        2000 |
|      31 | 0x6A9CC     |      436684 |
|      32 | 0xFFFBC382  |  4294689666 |
|      33 | 0xFFFFE0C0  |  4294959296 |
|      34 | 0x0F84      |        3972 |
|      35 | 0x6EC46     |      453702 |
|      36 | 0xFFFBB664  |  4294686308 |
|      37 | 0xFFFFE223  |  4294959651 |
|      38 | 0x03E8      |        1000 |
|      39 | 0x70360     |      459616 |
|      40 | 0xFFFBAE46  |  4294684230 |
|      41 | 0xFFFFE2B4  |  4294959796 |
|      42 | 0x7020A     |      459274 |
|      43 | 0xFFFBA68D  |  4294682253 |
|      44 | 0xFFFFE272  |  4294959730 |
|      45 | 0x6F860     |      456800 |
|      46 | 0xFFFBAB05  |  4294683397 |
|      47 | 0x0C6B      |        3179 |
|      48 | 0x70504     |      460036 |
|      49 | 0xFFFBBF8A  |  4294688650 |
|      50 | 0xFFFFE32F  |  4294959919 |
|      51 | 0x7056D     |      460141 |
|      52 | 0xFFFBC156  |  4294689110 |
|      53 | 0xFFFFE356  |  4294959958 |
|      54 | 0x0000      |           0 |
|      55 | 0x2571E     |      153374 |
|      56 | 0xFFF66777  |  4294338423 |
|      57 | 0x03B5      |         949 |
|      58 | 0x0A74      |        2676 |
|      59 | 0x0DB8      |        3512 |

## Events

### Event 65535

#### Metadata

| Field        | Value   |
|--------------|---------|
| Entrypoint   | 0x0000  |
| Data Size    | 1 bytes |
| Instructions | 1       |

```
      00 01 02 03 04 05 06 07  08 09 0A 0B 0C 0D 0E 0F
      -- -- -- -- -- -- -- --  -- -- -- -- -- -- -- --
0000: 00                                                .               
```

#### Opcodes

```
  0: 0x0000 [0x00] END_REQSTACK()
```

### Event 16

#### Metadata

| Field        | Value    |
|--------------|----------|
| Entrypoint   | 0x0001   |
| Data Size    | 10 bytes |
| Instructions | 2        |

```
      00 01 02 03 04 05 06 07  08 09 0A 0B 0C 0D 0E 0F
      -- -- -- -- -- -- -- --  -- -- -- -- -- -- -- --
0000:    37 00 80 01 80 02 80  03 80 00                  7.........     
```

#### Opcodes

```
  0: 0x0001 [0x37] UPDATE_EVENT_POSITION_AND_DIR: x=436.952*, z=-268.659*, y=-10.143*, direction=63.9°*
  1: 0x000A [0x00] END_REQSTACK()
```

### Event 65535.1

#### Metadata

| Field        | Value    |
|--------------|----------|
| Entrypoint   | 0x000B   |
| Data Size    | 14 bytes |
| Instructions | 4        |

```
      00 01 02 03 04 05 06 07  08 09 0A 0B 0C 0D 0E 0F
      -- -- -- -- -- -- -- --  -- -- -- -- -- -- -- --
0000:                                   32 04 80 1F 00             2....
0010: 05 80 06 80 07 80 1F 01  00                       .........       
```

#### Opcodes

```
  0: 0x000B [0x32] ExtData[1]->MainSpeed = 40* * 0.1
  1: 0x000E [0x1F] MOVE_ENTITY: EventEntity moves to X=442.554*, Z=-269.794*, Y=-9.937*
  2: 0x0016 [0x1F] MOVE_ENTITY: Update entity position (mode=1)
  3: 0x0018 [0x00] END_REQSTACK()
```

### Event 65535.2

#### Metadata

| Field        | Value    |
|--------------|----------|
| Entrypoint   | 0x0019   |
| Data Size    | 14 bytes |
| Instructions | 4        |

```
      00 01 02 03 04 05 06 07  08 09 0A 0B 0C 0D 0E 0F
      -- -- -- -- -- -- -- --  -- -- -- -- -- -- -- --
0010:                             32 04 80 1F 00 08 80           2......
0020: 09 80 0A 80 1F 01 00                              .......         
```

#### Opcodes

```
  0: 0x0019 [0x32] ExtData[1]->MainSpeed = 40* * 0.1
  1: 0x001C [0x1F] MOVE_ENTITY: EventEntity moves to X=448.575*, Z=-273.601*, Y=-7.423*
  2: 0x0024 [0x1F] MOVE_ENTITY: Update entity position (mode=1)
  3: 0x0026 [0x00] END_REQSTACK()
```

### Event 65535.3

#### Metadata

| Field        | Value    |
|--------------|----------|
| Entrypoint   | 0x0027   |
| Data Size    | 10 bytes |
| Instructions | 2        |

```
      00 01 02 03 04 05 06 07  08 09 0A 0B 0C 0D 0E 0F
      -- -- -- -- -- -- -- --  -- -- -- -- -- -- -- --
0020:                      37  0B 80 0C 80 0D 80 0E 80         7........
0030: 00                                                .               
```

#### Opcodes

```
  0: 0x0027 [0x37] UPDATE_EVENT_POSITION_AND_DIR: x=476.075*, z=-271.202*, y=-8.931*, direction=85.8°*
  1: 0x0030 [0x00] END_REQSTACK()
```

### Event 65535.4

#### Metadata

| Field        | Value    |
|--------------|----------|
| Entrypoint   | 0x0031   |
| Data Size    | 10 bytes |
| Instructions | 2        |

```
      00 01 02 03 04 05 06 07  08 09 0A 0B 0C 0D 0E 0F
      -- -- -- -- -- -- -- --  -- -- -- -- -- -- -- --
0030:    37 0F 80 10 80 11 80  12 80 00                  7.........     
```

#### Opcodes

```
  0: 0x0031 [0x37] UPDATE_EVENT_POSITION_AND_DIR: x=480.345*, z=-268.243*, y=-10.000*, direction=9.5°*
  1: 0x003A [0x00] END_REQSTACK()
```

### Event 65535.5

#### Metadata

| Field        | Value    |
|--------------|----------|
| Entrypoint   | 0x003B   |
| Data Size    | 10 bytes |
| Instructions | 2        |

```
      00 01 02 03 04 05 06 07  08 09 0A 0B 0C 0D 0E 0F
      -- -- -- -- -- -- -- --  -- -- -- -- -- -- -- --
0030:                                   37 13 80 14 80             7....
0040: 15 80 16 80 00                                    .....           
```

#### Opcodes

```
  0: 0x003B [0x37] UPDATE_EVENT_POSITION_AND_DIR: x=462.482*, z=-252.395*, y=-18.846*, direction=81.6°*
  1: 0x0044 [0x00] END_REQSTACK()
```

### Event 65535.6

#### Metadata

| Field        | Value    |
|--------------|----------|
| Entrypoint   | 0x0045   |
| Data Size    | 10 bytes |
| Instructions | 2        |

```
      00 01 02 03 04 05 06 07  08 09 0A 0B 0C 0D 0E 0F
      -- -- -- -- -- -- -- --  -- -- -- -- -- -- -- --
0040:                37 17 80  18 80 19 80 1A 80 00          7......... 
```

#### Opcodes

```
  0: 0x0045 [0x37] UPDATE_EVENT_POSITION_AND_DIR: x=478.777*, z=-259.056*, y=-11.691*, direction=242.5°*
  1: 0x004E [0x00] END_REQSTACK()
```

### Event 65535.7

#### Metadata

| Field        | Value    |
|--------------|----------|
| Entrypoint   | 0x004F   |
| Data Size    | 14 bytes |
| Instructions | 4        |

```
      00 01 02 03 04 05 06 07  08 09 0A 0B 0C 0D 0E 0F
      -- -- -- -- -- -- -- --  -- -- -- -- -- -- -- --
0040:                                               32                 2
0050: 1B 80 1F 00 1C 80 1D 80  11 80 1F 01 00           .............   
```

#### Opcodes

```
  0: 0x004F [0x32] ExtData[1]->MainSpeed = 13* * 0.1
  1: 0x0052 [0x1F] MOVE_ENTITY: EventEntity moves to X=480.035*, Z=-264.424*, Y=-10.000*
  2: 0x005A [0x1F] MOVE_ENTITY: Update entity position (mode=1)
  3: 0x005C [0x00] END_REQSTACK()
```

### Event 65535.8

#### Metadata

| Field        | Value   |
|--------------|---------|
| Entrypoint   | 0x005D  |
| Data Size    | 4 bytes |
| Instructions | 2       |

```
      00 01 02 03 04 05 06 07  08 09 0A 0B 0C 0D 0E 0F
      -- -- -- -- -- -- -- --  -- -- -- -- -- -- -- --
0050:                                         39 1E 80               9..
0060: 00                                                .               
```

#### Opcodes

```
  0: 0x005D [0x39] SET_ENTITY_DIRECTION(direction=11.0°*)
  1: 0x0060 [0x00] END_REQSTACK()
```

### Event 17

#### Metadata

| Field        | Value    |
|--------------|----------|
| Entrypoint   | 0x0061   |
| Data Size    | 10 bytes |
| Instructions | 2        |

```
      00 01 02 03 04 05 06 07  08 09 0A 0B 0C 0D 0E 0F
      -- -- -- -- -- -- -- --  -- -- -- -- -- -- -- --
0060:    37 1F 80 20 80 21 80  22 80 00                  7.. .!."..     
```

#### Opcodes

```
  0: 0x0061 [0x37] UPDATE_EVENT_POSITION_AND_DIR: x=436.684*, z=-277.630*, y=-8.000*, direction=349.1°*
  1: 0x006A [0x00] END_REQSTACK()
```

### Event 65535.9

#### Metadata

| Field        | Value    |
|--------------|----------|
| Entrypoint   | 0x006B   |
| Data Size    | 42 bytes |
| Instructions | 8        |

```
      00 01 02 03 04 05 06 07  08 09 0A 0B 0C 0D 0E 0F
      -- -- -- -- -- -- -- --  -- -- -- -- -- -- -- --
0060:                                   32 04 80 1F 00             2....
0070: 23 80 24 80 25 80 1F 01  37 23 80 24 80 25 80 26  #.$.%...7#.$.%.&
0080: 80 1F 00 27 80 28 80 29  80 1F 01 4A 49 F2 04 01  ...'.(.)...JI...
0090: 4A F2 04 01 00                                    J....           
```

#### Opcodes

```
  0: 0x006B [0x32] ExtData[1]->MainSpeed = 40* * 0.1
  1: 0x006E [0x1F] MOVE_ENTITY: EventEntity moves to X=453.702*, Z=-280.988*, Y=-7.645*
  2: 0x0076 [0x1F] MOVE_ENTITY: Update entity position (mode=1)
  3: 0x0078 [0x37] UPDATE_EVENT_POSITION_AND_DIR: x=453.702*, z=-280.988*, y=-7.645*, direction=87.9°*
  4: 0x0081 [0x1F] MOVE_ENTITY: EventEntity moves to X=459.616*, Z=-283.066*, Y=-7.500*
  5: 0x0089 [0x1F] MOVE_ENTITY: Update entity position (mode=1)
  6: 0x008B [0x4A] Ahgdeen (ID: 17101385/0x0104F249) looks at Basweema (ID: 17101386/0x0104F24A)
  7: 0x0094 [0x00] END_REQSTACK()
```

### Event 65535.10

#### Metadata

| Field        | Value    |
|--------------|----------|
| Entrypoint   | 0x0095   |
| Data Size    | 23 bytes |
| Instructions | 5        |

```
      00 01 02 03 04 05 06 07  08 09 0A 0B 0C 0D 0E 0F
      -- -- -- -- -- -- -- --  -- -- -- -- -- -- -- --
0090:                32 04 80  1F 00 2A 80 2B 80 2C 80       2....*.+.,.
00A0: 1F 01 4A 49 F2 04 01 4F  F2 04 01 00              ..JI...O....    
```

#### Opcodes

```
  0: 0x0095 [0x32] ExtData[1]->MainSpeed = 40* * 0.1
  1: 0x0098 [0x1F] MOVE_ENTITY: EventEntity moves to X=459.274*, Z=-285.043*, Y=-7.566*
  2: 0x00A0 [0x1F] MOVE_ENTITY: Update entity position (mode=1)
  3: 0x00A2 [0x4A] Ahgdeen (ID: 17101385/0x0104F249) looks at Basweema (ID: 17101391/0x0104F24F)
  4: 0x00AB [0x00] END_REQSTACK()
```

### Event 18

#### Metadata

| Field        | Value    |
|--------------|----------|
| Entrypoint   | 0x00AC   |
| Data Size    | 10 bytes |
| Instructions | 2        |

```
      00 01 02 03 04 05 06 07  08 09 0A 0B 0C 0D 0E 0F
      -- -- -- -- -- -- -- --  -- -- -- -- -- -- -- --
00A0:                                      37 2D 80 2E              7-..
00B0: 80 29 80 2F 80 00                                 .)./..          
```

#### Opcodes

```
  0: 0x00AC [0x37] UPDATE_EVENT_POSITION_AND_DIR: x=456.800*, z=-283.899*, y=-7.500*, direction=279.4°*
  1: 0x00B5 [0x00] END_REQSTACK()
```

### Event 65535.11

#### Metadata

| Field        | Value    |
|--------------|----------|
| Entrypoint   | 0x00B6   |
| Data Size    | 23 bytes |
| Instructions | 5        |

```
      00 01 02 03 04 05 06 07  08 09 0A 0B 0C 0D 0E 0F
      -- -- -- -- -- -- -- --  -- -- -- -- -- -- -- --
00B0:                   32 04  80 1F 00 30 80 31 80 32        2....0.1.2
00C0: 80 1F 01 4A 49 F2 04 01  4F F2 04 01 00           ...JI...O....   
```

#### Opcodes

```
  0: 0x00B6 [0x32] ExtData[1]->MainSpeed = 40* * 0.1
  1: 0x00B9 [0x1F] MOVE_ENTITY: EventEntity moves to X=460.036*, Z=-278.646*, Y=-7.377*
  2: 0x00C1 [0x1F] MOVE_ENTITY: Update entity position (mode=1)
  3: 0x00C3 [0x4A] Ahgdeen (ID: 17101385/0x0104F249) looks at Basweema (ID: 17101391/0x0104F24F)
  4: 0x00CC [0x00] END_REQSTACK()
```

### Event 65535.12

#### Metadata

| Field        | Value    |
|--------------|----------|
| Entrypoint   | 0x00CD   |
| Data Size    | 14 bytes |
| Instructions | 4        |

```
      00 01 02 03 04 05 06 07  08 09 0A 0B 0C 0D 0E 0F
      -- -- -- -- -- -- -- --  -- -- -- -- -- -- -- --
00C0:                                         32 1B 80               2..
00D0: 1F 00 33 80 34 80 35 80  1F 01 00                 ..3.4.5....     
```

#### Opcodes

```
  0: 0x00CD [0x32] ExtData[1]->MainSpeed = 13* * 0.1
  1: 0x00D0 [0x1F] MOVE_ENTITY: EventEntity moves to X=460.141*, Z=-278.186*, Y=-7.338*
  2: 0x00D8 [0x1F] MOVE_ENTITY: Update entity position (mode=1)
  3: 0x00DA [0x00] END_REQSTACK()
```

### Event 65535.13

#### Metadata

| Field        | Value    |
|--------------|----------|
| Entrypoint   | 0x00DB   |
| Data Size    | 10 bytes |
| Instructions | 2        |

```
      00 01 02 03 04 05 06 07  08 09 0A 0B 0C 0D 0E 0F
      -- -- -- -- -- -- -- --  -- -- -- -- -- -- -- --
00D0:                                   6C F8 FF FF 7F             l....
00E0: 36 80 36 80 00                                    6.6..           
```

#### Opcodes

```
  0: 0x00DB [0x6C] FADE_ENTITY_COLOR(entity_id=EventEntity, end_alpha=0*, fade_time=0*)
  1: 0x00E4 [0x00] END_REQSTACK()
```

### Event 65535.14

#### Metadata

| Field        | Value    |
|--------------|----------|
| Entrypoint   | 0x00E5   |
| Data Size    | 19 bytes |
| Instructions | 3        |

```
      00 01 02 03 04 05 06 07  08 09 0A 0B 0C 0D 0E 0F
      -- -- -- -- -- -- -- --  -- -- -- -- -- -- -- --
00E0:                37 37 80  38 80 39 80 3A 80 4A 49       77.8.9.:.JI
00F0: F2 04 01 50 F2 04 01 00                           ...P....        
```

#### Opcodes

```
  0: 0x00E5 [0x37] UPDATE_EVENT_POSITION_AND_DIR: x=153.374*, z=-628.873*, y=0.949*, direction=235.2°*
  1: 0x00EE [0x4A] Ahgdeen (ID: 17101385/0x0104F249) looks at usa (ID: 17101392/0x0104F250)
  2: 0x00F7 [0x00] END_REQSTACK()
```

### Event 19

#### Metadata

| Field        | Value    |
|--------------|----------|
| Entrypoint   | 0x00F8   |
| Data Size    | 10 bytes |
| Instructions | 2        |

```
      00 01 02 03 04 05 06 07  08 09 0A 0B 0C 0D 0E 0F
      -- -- -- -- -- -- -- --  -- -- -- -- -- -- -- --
00F0:                          37 2A 80 2B 80 2C 80 3B          7*.+.,.;
0100: 80 00                                             ..              
```

#### Opcodes

```
  0: 0x00F8 [0x37] UPDATE_EVENT_POSITION_AND_DIR: x=459.274*, z=-285.043*, y=-7.566*, direction=308.7°*
  1: 0x0101 [0x00] END_REQSTACK()
```
