# 17101381 - Dashahan

## Common Data

| Field            | Value                  |
|------------------|------------------------|
| Zone             | Caedarva Mire (ID: 79) |
| Block Size       | 96 bytes               |
| Total Events     | 4                      |
| References Count | 6                      |

## List of Events

| Event ID                 | Entrypoint   |   Size |   Instructions |
|--------------------------|--------------|--------|----------------|
| [65535](#event-65535)    | 0x0000       |      1 |              1 |
| [20](#event-20)          | 0x0001       |      1 |              1 |
| [65535.1](#event-655351) | 0x0002       |     19 |              5 |
| [65535.2](#event-655352) | 0x0015       |     19 |              5 |

## DAT References (imed_data)

|   Index | Hex Value   |   Dec Value |
|---------|-------------|-------------|
|       0 | 0x000D      |          13 |
|       1 | 0x28DFE     |      167422 |
|       2 | 0xFFF65CE3  |  4294335715 |
|       3 | 0x03B5      |         949 |
|       4 | 0x2872B     |      165675 |
|       5 | 0xFFF66092  |  4294336658 |

## Events

### Event 65535

#### Metadata

| Field        | Value   |
|--------------|---------|
| Entrypoint   | 0x0000  |
| Data Size    | 1 bytes |
| Instructions | 1       |

```
      00 01 02 03 04 05 06 07  08 09 0A 0B 0C 0D 0E 0F
      -- -- -- -- -- -- -- --  -- -- -- -- -- -- -- --
0000: 00                                                .               
```

#### Opcodes

```
  0: 0x0000 [0x00] END_REQSTACK()
```

### Event 20

#### Metadata

| Field        | Value   |
|--------------|---------|
| Entrypoint   | 0x0001  |
| Data Size    | 1 bytes |
| Instructions | 1       |

```
      00 01 02 03 04 05 06 07  08 09 0A 0B 0C 0D 0E 0F
      -- -- -- -- -- -- -- --  -- -- -- -- -- -- -- --
0000:    00                                              .              
```

#### Opcodes

```
  0: 0x0001 [0x00] END_REQSTACK()
```

### Event 65535.1

#### Metadata

| Field        | Value    |
|--------------|----------|
| Entrypoint   | 0x0002   |
| Data Size    | 19 bytes |
| Instructions | 5        |

```
      00 01 02 03 04 05 06 07  08 09 0A 0B 0C 0D 0E 0F
      -- -- -- -- -- -- -- --  -- -- -- -- -- -- -- --
0000:       32 00 80 1F 00 01  80 02 80 03 80 1F 01 1E    2.............
0010: 44 F2 04 01 00                                    D....           
```

#### Opcodes

```
  0: 0x0002 [0x32] ExtData[1]->MainSpeed = 13* * 0.1
  1: 0x0005 [0x1F] MOVE_ENTITY: EventEntity moves to X=167.422*, Z=-631.581*, Y=0.949*
  2: 0x000D [0x1F] MOVE_ENTITY: Update entity position (mode=1)
  3: 0x000F [0x1E] EventEntity looks at Liliroon (ID: 17101380/0x0104F244) and starts talking
  4: 0x0014 [0x00] END_REQSTACK()
```

### Event 65535.2

#### Metadata

| Field        | Value    |
|--------------|----------|
| Entrypoint   | 0x0015   |
| Data Size    | 19 bytes |
| Instructions | 5        |

```
      00 01 02 03 04 05 06 07  08 09 0A 0B 0C 0D 0E 0F
      -- -- -- -- -- -- -- --  -- -- -- -- -- -- -- --
0010:                32 00 80  1F 00 04 80 05 80 03 80       2..........
0020: 1F 01 1E 44 F2 04 01 00                           ...D....        
```

#### Opcodes

```
  0: 0x0015 [0x32] ExtData[1]->MainSpeed = 13* * 0.1
  1: 0x0018 [0x1F] MOVE_ENTITY: EventEntity moves to X=165.675*, Z=-630.638*, Y=0.949*
  2: 0x0020 [0x1F] MOVE_ENTITY: Update entity position (mode=1)
  3: 0x0022 [0x1E] EventEntity looks at Liliroon (ID: 17101380/0x0104F244) and starts talking
  4: 0x0027 [0x00] END_REQSTACK()
```
