# 17101342

## Common Data

| Field            | Value                  |
|------------------|------------------------|
| Zone             | Caedarva Mire (ID: 79) |
| Block Size       | 26208 bytes            |
| Total Events     | 8                      |
| References Count | 531                    |

## List of Events

| Event ID              | Entrypoint   |   Size |   Instructions |
|-----------------------|--------------|--------|----------------|
| [65535](#event-65535) | 0x0000       |      1 |              1 |
| [5](#event-5)         | 0x0001       |   1672 |            223 |
| [8](#event-8)         | 0x0689       |    578 |             78 |
| [9](#event-9)         | 0x08CB       |    704 |             96 |
| [10](#event-10)       | 0x0B8B       |    552 |             72 |
| [12](#event-12)       | 0x0DB3       |    591 |             77 |
| [20](#event-20)       | 0x1002       |   2395 |            313 |
| [21](#event-21)       | 0x195D       |  17542 |           1931 |

## DAT References (imed_data)

|   Index | Hex Value   |   Dec Value |
|---------|-------------|-------------|
|       0 | 0x0013      |          19 |
|       1 | 0x0000      |           0 |
|       2 | 0x000F      |          15 |
|       3 | 0x001E      |          30 |
|       4 | 0x0103      |         259 |
|       5 | 0x00FF      |         255 |
|       6 | 0x0009      |           9 |
|       7 | 0x1CF8      |        7416 |
|       8 | 0x1CF9      |        7417 |
|       9 | 0x1CFA      |        7418 |
|      10 | 0x0307      |         775 |
|      11 | 0x1CFB      |        7419 |
|      12 | 0x0001      |           1 |
|      13 | 0x1D0A      |        7434 |
|      14 | 0x1CFC      |        7420 |
|      15 | 0x0015      |          21 |
|      16 | 0x002D      |          45 |
|      17 | 0x1CFD      |        7421 |
|      18 | 0x0078      |         120 |
|      19 | 0x0016      |          22 |
|      20 | 0x1CFE      |        7422 |
|      21 | 0x1CFF      |        7423 |
|      22 | 0x003C      |          60 |
|      23 | 0x0006      |           6 |
|      24 | 0x1D00      |        7424 |
|      25 | 0x1D01      |        7425 |
|      26 | 0x0007      |           7 |
|      27 | 0x1D02      |        7426 |
|      28 | 0x1D03      |        7427 |
|      29 | 0x0CA1      |        3233 |
|      30 | 0x1D04      |        7428 |
|      31 | 0x1D05      |        7429 |
|      32 | 0x1D06      |        7430 |
|      33 | 0x1D07      |        7431 |
|      34 | 0x1D08      |        7432 |
|      35 | 0x1D09      |        7433 |
|      36 | 0x00C8      |         200 |
|      37 | 0x1D14      |        7444 |
|      38 | 0x1D15      |        7445 |
|      39 | 0x1D23      |        7459 |
|      40 | 0x1D13      |        7443 |
|      41 | 0x1D16      |        7446 |
|      42 | 0x1D17      |        7447 |
|      43 | 0x1D18      |        7448 |
|      44 | 0x1D19      |        7449 |
|      45 | 0x1D1A      |        7450 |
|      46 | 0x1D1B      |        7451 |
|      47 | 0x1D1C      |        7452 |
|      48 | 0x0423      |        1059 |
|      49 | 0x1D1D      |        7453 |
|      50 | 0x1D1E      |        7454 |
|      51 | 0x1D1F      |        7455 |
|      52 | 0x1D20      |        7456 |
|      53 | 0x1D21      |        7457 |
|      54 | 0x1D22      |        7458 |
|      55 | 0x1D7B      |        7547 |
|      56 | 0x1D7E      |        7550 |
|      57 | 0x1D7F      |        7551 |
|      58 | 0x00F7      |         247 |
|      59 | 0x0197      |         407 |
|      60 | 0x0355      |         853 |
|      61 | 0x007F      |         127 |
|      62 | 0x1D80      |        7552 |
|      63 | 0x1D81      |        7553 |
|      64 | 0x00AD      |         173 |
|      65 | 0x0026      |          38 |
|      66 | 0x009D      |         157 |
|      67 | 0x1D82      |        7554 |
|      68 | 0x1D83      |        7555 |
|      69 | 0x1D84      |        7556 |
|      70 | 0x1D85      |        7557 |
|      71 | 0x1D86      |        7558 |
|      72 | 0x1D87      |        7559 |
|      73 | 0x1D88      |        7560 |
|      74 | 0x1D89      |        7561 |
|      75 | 0x1D8A      |        7562 |
|      76 | 0x0360      |         864 |
|      77 | 0x1D8B      |        7563 |
|      78 | 0x1D8C      |        7564 |
|      79 | 0x1D8D      |        7565 |
|      80 | 0x1D8E      |        7566 |
|      81 | 0x1D8F      |        7567 |
|      82 | 0x0312      |         786 |
|      83 | 0x1D90      |        7568 |
|      84 | 0x1D91      |        7569 |
|      85 | 0x1D92      |        7570 |
|      86 | 0x0003      |           3 |
|      87 | 0x0111      |         273 |
|      88 | 0x1DA0      |        7584 |
|      89 | 0x0004      |           4 |
|      90 | 0x1DA1      |        7585 |
|      91 | 0x1DA2      |        7586 |
|      92 | 0x1DA3      |        7587 |
|      93 | 0x1DA4      |        7588 |
|      94 | 0x1DA5      |        7589 |
|      95 | 0x1DA6      |        7590 |
|      96 | 0x02B7      |         695 |
|      97 | 0x00B4      |         180 |
|      98 | 0x1DA7      |        7591 |
|      99 | 0x1DA8      |        7592 |
|     100 | 0x1D93      |        7571 |
|     101 | 0x1D94      |        7572 |
|     102 | 0x0005      |           5 |
|     103 | 0x1D95      |        7573 |
|     104 | 0x1D96      |        7574 |
|     105 | 0x1D97      |        7575 |
|     106 | 0x000B      |          11 |
|     107 | 0x1D98      |        7576 |
|     108 | 0x1D99      |        7577 |
|     109 | 0x02B6      |         694 |
|     110 | 0x00D2      |         210 |
|     111 | 0x1D9A      |        7578 |
|     112 | 0x1D9B      |        7579 |
|     113 | 0x2BE72     |      179826 |
|     114 | 0xFFF68BA3  |  4294347683 |
|     115 | 0x03B5      |         949 |
|     116 | 0x069B      |        1691 |
|     117 | 0x2CFF5     |      184309 |
|     118 | 0xFFF68BF7  |  4294347767 |
|     119 | 0x07AB      |        1963 |
|     120 | 0x0124      |         292 |
|     121 | 0x1DE7      |        7655 |
|     122 | 0x1DE8      |        7656 |
|     123 | 0x1DE9      |        7657 |
|     124 | 0x2A068     |      172136 |
|     125 | 0xFFF66049  |  4294336585 |
|     126 | 0x0880      |        2176 |
|     127 | 0x1DEA      |        7658 |
|     128 | 0x034B      |         843 |
|     129 | 0x1DEB      |        7659 |
|     130 | 0x005A      |          90 |
|     131 | 0x2A4E5     |      173285 |
|     132 | 0xFFF66748  |  4294338376 |
|     133 | 0x066A      |        1642 |
|     134 | 0x1DEC      |        7660 |
|     135 | 0x1DED      |        7661 |
|     136 | 0x1DEE      |        7662 |
|     137 | 0x1DEF      |        7663 |
|     138 | 0x1DF0      |        7664 |
|     139 | 0x1DF2      |        7666 |
|     140 | 0x1DF3      |        7667 |
|     141 | 0x1DF4      |        7668 |
|     142 | 0x0050      |          80 |
|     143 | 0x1DF5      |        7669 |
|     144 | 0x0371      |         881 |
|     145 | 0x1DF6      |        7670 |
|     146 | 0x1DF7      |        7671 |
|     147 | 0x1DF8      |        7672 |
|     148 | 0x1DF9      |        7673 |
|     149 | 0x1DFA      |        7674 |
|     150 | 0x00AE      |         174 |
|     151 | 0x1DFB      |        7675 |
|     152 | 0x1E02      |        7682 |
|     153 | 0x1DFC      |        7676 |
|     154 | 0x1DFD      |        7677 |
|     155 | 0x1DFE      |        7678 |
|     156 | 0x1DFF      |        7679 |
|     157 | 0x1E00      |        7680 |
|     158 | 0x1E01      |        7681 |
|     159 | 0x0046      |          70 |
|     160 | 0x1E03      |        7683 |
|     161 | 0x1E04      |        7684 |
|     162 | 0x1E05      |        7685 |
|     163 | 0x1E06      |        7686 |
|     164 | 0x1E07      |        7687 |
|     165 | 0x1E08      |        7688 |
|     166 | 0x1E09      |        7689 |
|     167 | 0x034A      |         842 |
|     168 | 0x1E0A      |        7690 |
|     169 | 0x1E0B      |        7691 |
|     170 | 0x1E0C      |        7692 |
|     171 | 0x1E0D      |        7693 |
|     172 | 0x1E0E      |        7694 |
|     173 | 0x1E0F      |        7695 |
|     174 | 0x1E10      |        7696 |
|     175 | 0x1E11      |        7697 |
|     176 | 0x1E14      |        7700 |
|     177 | 0x1E15      |        7701 |
|     178 | 0x1E16      |        7702 |
|     179 | 0x27CCB     |      163019 |
|     180 | 0xFFF66B39  |  4294339385 |
|     181 | 0x0B13      |        2835 |
|     182 | 0x27B78     |      162680 |
|     183 | 0xFFF66D38  |  4294339896 |
|     184 | 0x0A92      |        2706 |
|     185 | 0x0397      |         919 |
|     186 | 0x000C      |          12 |
|     187 | 0x1E18      |        7704 |
|     188 | 0x1E19      |        7705 |
|     189 | 0x1E1A      |        7706 |
|     190 | 0x012C      |         300 |
|     191 | 0x0123      |         291 |
|     192 | 0x0375      |         885 |
|     193 | 0x00B8      |         184 |
|     194 | 0x013D      |         317 |
|     195 | 0x1E90      |        7824 |
|     196 | 0x1E91      |        7825 |
|     197 | 0x035A      |         858 |
|     198 | 0x1E92      |        7826 |
|     199 | 0x1E93      |        7827 |
|     200 | 0x1E94      |        7828 |
|     201 | 0x0389      |         905 |
|     202 | 0x1E95      |        7829 |
|     203 | 0x0353      |         851 |
|     204 | 0x1E96      |        7830 |
|     205 | 0x1E97      |        7831 |
|     206 | 0x0AD4      |        2772 |
|     207 | 0x1E98      |        7832 |
|     208 | 0x037B      |         891 |
|     209 | 0x1E99      |        7833 |
|     210 | 0x03A4      |         932 |
|     211 | 0x1E9A      |        7834 |
|     212 | 0x1E9B      |        7835 |
|     213 | 0x1E9C      |        7836 |
|     214 | 0x1E9D      |        7837 |
|     215 | 0x1E9E      |        7838 |
|     216 | 0x1E9F      |        7839 |
|     217 | 0x038A      |         906 |
|     218 | 0x0014      |          20 |
|     219 | 0x1EA0      |        7840 |
|     220 | 0x0399      |         921 |
|     221 | 0x1EA1      |        7841 |
|     222 | 0x1EA2      |        7842 |
|     223 | 0x1EA3      |        7843 |
|     224 | 0x00B7      |         183 |
|     225 | 0x1EA4      |        7844 |
|     226 | 0x039E      |         926 |
|     227 | 0x1EA5      |        7845 |
|     228 | 0x1EA6      |        7846 |
|     229 | 0x0434      |        1076 |
|     230 | 0x1EA7      |        7847 |
|     231 | 0x1EA8      |        7848 |
|     232 | 0x1EA9      |        7849 |
|     233 | 0x1EAA      |        7850 |
|     234 | 0x1EAB      |        7851 |
|     235 | 0x1EAC      |        7852 |
|     236 | 0x1EAD      |        7853 |
|     237 | 0x1EAE      |        7854 |
|     238 | 0x0352      |         850 |
|     239 | 0x1EAF      |        7855 |
|     240 | 0x1EB0      |        7856 |
|     241 | 0x03E3      |         995 |
|     242 | 0x1EB1      |        7857 |
|     243 | 0x041B      |        1051 |
|     244 | 0x1EB2      |        7858 |
|     245 | 0x1EB3      |        7859 |
|     246 | 0x1EB4      |        7860 |
|     247 | 0x0096      |         150 |
|     248 | 0x1EB5      |        7861 |
|     249 | 0x1EB6      |        7862 |
|     250 | 0x1EB7      |        7863 |
|     251 | 0x1EB8      |        7864 |
|     252 | 0x1EB9      |        7865 |
|     253 | 0x1EBA      |        7866 |
|     254 | 0x038F      |         911 |
|     255 | 0x1EBB      |        7867 |
|     256 | 0x1EBC      |        7868 |
|     257 | 0x1EBD      |        7869 |
|     258 | 0x1EBE      |        7870 |
|     259 | 0x1EBF      |        7871 |
|     260 | 0x1EC0      |        7872 |
|     261 | 0x1EC1      |        7873 |
|     262 | 0x1EC2      |        7874 |
|     263 | 0x1EC3      |        7875 |
|     264 | 0x1EC4      |        7876 |
|     265 | 0x1EC5      |        7877 |
|     266 | 0x1EC6      |        7878 |
|     267 | 0x1EC7      |        7879 |
|     268 | 0x1EC8      |        7880 |
|     269 | 0x1EC9      |        7881 |
|     270 | 0x1ECA      |        7882 |
|     271 | 0x0038      |          56 |
|     272 | 0x00B9      |         185 |
|     273 | 0x03E7      |         999 |
|     274 | 0x03B8      |         952 |
|     275 | 0x0345      |         837 |
|     276 | 0x03F8      |        1016 |
|     277 | 0x1F7C      |        8060 |
|     278 | 0x013C      |         316 |
|     279 | 0x1ECB      |        7883 |
|     280 | 0x1ECC      |        7884 |
|     281 | 0x1ECD      |        7885 |
|     282 | 0x0347      |         839 |
|     283 | 0x1ECE      |        7886 |
|     284 | 0x1ECF      |        7887 |
|     285 | 0x1ED0      |        7888 |
|     286 | 0x1ED1      |        7889 |
|     287 | 0x1ED2      |        7890 |
|     288 | 0x1ED3      |        7891 |
|     289 | 0x1ED4      |        7892 |
|     290 | 0x1ED5      |        7893 |
|     291 | 0x0396      |         918 |
|     292 | 0x1ED6      |        7894 |
|     293 | 0x1ED7      |        7895 |
|     294 | 0x1ED8      |        7896 |
|     295 | 0x1ED9      |        7897 |
|     296 | 0x1EDA      |        7898 |
|     297 | 0x1EDB      |        7899 |
|     298 | 0x1EDC      |        7900 |
|     299 | 0x1EDD      |        7901 |
|     300 | 0x1EDE      |        7902 |
|     301 | 0x1EDF      |        7903 |
|     302 | 0x1EE0      |        7904 |
|     303 | 0x1EE1      |        7905 |
|     304 | 0x1EE2      |        7906 |
|     305 | 0x1EE3      |        7907 |
|     306 | 0x1EE4      |        7908 |
|     307 | 0x1EE5      |        7909 |
|     308 | 0x1EE6      |        7910 |
|     309 | 0x1EE7      |        7911 |
|     310 | 0x1EE8      |        7912 |
|     311 | 0x1EE9      |        7913 |
|     312 | 0x1EEA      |        7914 |
|     313 | 0x03E2      |         994 |
|     314 | 0x1EEB      |        7915 |
|     315 | 0x0087      |         135 |
|     316 | 0x03F9      |        1017 |
|     317 | 0x0028      |          40 |
|     318 | 0x00C3      |         195 |
|     319 | 0x03F2      |        1010 |
|     320 | 0x03F3      |        1011 |
|     321 | 0x0138      |         312 |
|     322 | 0x041F      |        1055 |
|     323 | 0x1EEC      |        7916 |
|     324 | 0x1EED      |        7917 |
|     325 | 0x03FA      |        1018 |
|     326 | 0x01D8      |         472 |
|     327 | 0x1EEE      |        7918 |
|     328 | 0x1EEF      |        7919 |
|     329 | 0x1EF0      |        7920 |
|     330 | 0x1EF1      |        7921 |
|     331 | 0x1EF2      |        7922 |
|     332 | 0x1EF3      |        7923 |
|     333 | 0x1EF4      |        7924 |
|     334 | 0x0346      |         838 |
|     335 | 0x1EF5      |        7925 |
|     336 | 0x1EF6      |        7926 |
|     337 | 0x1EF7      |        7927 |
|     338 | 0x1EF8      |        7928 |
|     339 | 0x1EF9      |        7929 |
|     340 | 0x1EFA      |        7930 |
|     341 | 0x1EFB      |        7931 |
|     342 | 0x1EFC      |        7932 |
|     343 | 0x1EFD      |        7933 |
|     344 | 0x1EFE      |        7934 |
|     345 | 0x1EFF      |        7935 |
|     346 | 0x1F00      |        7936 |
|     347 | 0x1F01      |        7937 |
|     348 | 0x1F02      |        7938 |
|     349 | 0x03FB      |        1019 |
|     350 | 0x1F03      |        7939 |
|     351 | 0x1F04      |        7940 |
|     352 | 0x1F05      |        7941 |
|     353 | 0x1F06      |        7942 |
|     354 | 0x1F07      |        7943 |
|     355 | 0x1F08      |        7944 |
|     356 | 0x0420      |        1056 |
|     357 | 0x1F09      |        7945 |
|     358 | 0x1F0A      |        7946 |
|     359 | 0x1F0B      |        7947 |
|     360 | 0x1F0C      |        7948 |
|     361 | 0x1F0D      |        7949 |
|     362 | 0x1F0E      |        7950 |
|     363 | 0x1F0F      |        7951 |
|     364 | 0x1F10      |        7952 |
|     365 | 0x1F11      |        7953 |
|     366 | 0x1F12      |        7954 |
|     367 | 0x1F13      |        7955 |
|     368 | 0x1F14      |        7956 |
|     369 | 0x1F15      |        7957 |
|     370 | 0x1F16      |        7958 |
|     371 | 0x1F17      |        7959 |
|     372 | 0x1F18      |        7960 |
|     373 | 0x1F19      |        7961 |
|     374 | 0x1F1A      |        7962 |
|     375 | 0x1F1B      |        7963 |
|     376 | 0x00A0      |         160 |
|     377 | 0x1F1C      |        7964 |
|     378 | 0x1F1D      |        7965 |
|     379 | 0x1F1E      |        7966 |
|     380 | 0x1F1F      |        7967 |
|     381 | 0x1F20      |        7968 |
|     382 | 0x1F21      |        7969 |
|     383 | 0x1F22      |        7970 |
|     384 | 0x1F23      |        7971 |
|     385 | 0x1F24      |        7972 |
|     386 | 0x1F25      |        7973 |
|     387 | 0x1F26      |        7974 |
|     388 | 0x1F27      |        7975 |
|     389 | 0x1F28      |        7976 |
|     390 | 0x1F29      |        7977 |
|     391 | 0x1F2A      |        7978 |
|     392 | 0x0418      |        1048 |
|     393 | 0x007E      |         126 |
|     394 | 0x1F2B      |        7979 |
|     395 | 0x0416      |        1046 |
|     396 | 0x011C      |         284 |
|     397 | 0x1F2C      |        7980 |
|     398 | 0x1F2D      |        7981 |
|     399 | 0x1F2E      |        7982 |
|     400 | 0x041C      |        1052 |
|     401 | 0x0174      |         372 |
|     402 | 0x1F2F      |        7983 |
|     403 | 0x0118      |         280 |
|     404 | 0x1F30      |        7984 |
|     405 | 0x1F31      |        7985 |
|     406 | 0x1F32      |        7986 |
|     407 | 0x041D      |        1053 |
|     408 | 0x03D8      |         984 |
|     409 | 0x1F33      |        7987 |
|     410 | 0x1F34      |        7988 |
|     411 | 0x1F35      |        7989 |
|     412 | 0x1F36      |        7990 |
|     413 | 0x1F37      |        7991 |
|     414 | 0x1F38      |        7992 |
|     415 | 0x017A      |         378 |
|     416 | 0x1F39      |        7993 |
|     417 | 0x041E      |        1054 |
|     418 | 0x00EA      |         234 |
|     419 | 0x1F3A      |        7994 |
|     420 | 0x00F0      |         240 |
|     421 | 0x1F3B      |        7995 |
|     422 | 0x004C      |          76 |
|     423 | 0x1F3C      |        7996 |
|     424 | 0x1F3D      |        7997 |
|     425 | 0x0094      |         148 |
|     426 | 0x1F3E      |        7998 |
|     427 | 0x0433      |        1075 |
|     428 | 0x1F3F      |        7999 |
|     429 | 0x1F40      |        8000 |
|     430 | 0x1F41      |        8001 |
|     431 | 0x1F42      |        8002 |
|     432 | 0x1F43      |        8003 |
|     433 | 0x1F44      |        8004 |
|     434 | 0x1F45      |        8005 |
|     435 | 0x011A      |         282 |
|     436 | 0x1F46      |        8006 |
|     437 | 0x1F47      |        8007 |
|     438 | 0x1F48      |        8008 |
|     439 | 0x1F49      |        8009 |
|     440 | 0x0390      |         912 |
|     441 | 0x0031      |          49 |
|     442 | 0x1F4A      |        8010 |
|     443 | 0x0074      |         116 |
|     444 | 0x1F4B      |        8011 |
|     445 | 0x003A      |          58 |
|     446 | 0x0039      |          57 |
|     447 | 0x1F4C      |        8012 |
|     448 | 0x00F2      |         242 |
|     449 | 0x1F4D      |        8013 |
|     450 | 0x1F4E      |        8014 |
|     451 | 0x00BA      |         186 |
|     452 | 0x026D      |         621 |
|     453 | 0x1F4F      |        8015 |
|     454 | 0x0377      |         887 |
|     455 | 0x1F50      |        8016 |
|     456 | 0x01F9      |         505 |
|     457 | 0x1F51      |        8017 |
|     458 | 0x1F52      |        8018 |
|     459 | 0x1F53      |        8019 |
|     460 | 0x1F54      |        8020 |
|     461 | 0x03FC      |        1020 |
|     462 | 0x1F55      |        8021 |
|     463 | 0x00A5      |         165 |
|     464 | 0x0025      |          37 |
|     465 | 0x0395      |         917 |
|     466 | 0x0024      |          36 |
|     467 | 0x000A      |          10 |
|     468 | 0x1F56      |        8022 |
|     469 | 0x1F57      |        8023 |
|     470 | 0x1F58      |        8024 |
|     471 | 0x1F59      |        8025 |
|     472 | 0x01E0      |         480 |
|     473 | 0x0404      |        1028 |
|     474 | 0x1F5A      |        8026 |
|     475 | 0x0022      |          34 |
|     476 | 0x03B6      |         950 |
|     477 | 0x1F5B      |        8027 |
|     478 | 0x035B      |         859 |
|     479 | 0x1F5C      |        8028 |
|     480 | 0x1F5D      |        8029 |
|     481 | 0x03F7      |        1015 |
|     482 | 0x007C      |         124 |
|     483 | 0x1F5E      |        8030 |
|     484 | 0x00AC      |         172 |
|     485 | 0x1F60      |        8032 |
|     486 | 0x0405      |        1029 |
|     487 | 0x00E4      |         228 |
|     488 | 0x1F61      |        8033 |
|     489 | 0x041A      |        1050 |
|     490 | 0x1F5F      |        8031 |
|     491 | 0x1F62      |        8034 |
|     492 | 0x03A5      |         933 |
|     493 | 0x00F8      |         248 |
|     494 | 0x1F64      |        8036 |
|     495 | 0x1F65      |        8037 |
|     496 | 0x1F66      |        8038 |
|     497 | 0x1F67      |        8039 |
|     498 | 0x0023      |          35 |
|     499 | 0x1F68      |        8040 |
|     500 | 0x0417      |        1047 |
|     501 | 0x1F63      |        8035 |
|     502 | 0x0258      |         600 |
|     503 | 0x1F69      |        8041 |
|     504 | 0x1F6A      |        8042 |
|     505 | 0x1F6B      |        8043 |
|     506 | 0x0064      |         100 |
|     507 | 0x035F      |         863 |
|     508 | 0x1F6C      |        8044 |
|     509 | 0x1F6D      |        8045 |
|     510 | 0x1F6E      |        8046 |
|     511 | 0x1F6F      |        8047 |
|     512 | 0x1F70      |        8048 |
|     513 | 0x1F71      |        8049 |
|     514 | 0x1F72      |        8050 |
|     515 | 0x1F73      |        8051 |
|     516 | 0x1F74      |        8052 |
|     517 | 0x1F75      |        8053 |
|     518 | 0x1F76      |        8054 |
|     519 | 0x1F77      |        8055 |
|     520 | 0x00CA      |         202 |
|     521 | 0x1F78      |        8056 |
|     522 | 0x1F79      |        8057 |
|     523 | 0x1F7A      |        8058 |
|     524 | 0x1F7B      |        8059 |
|     525 | 0x004F      |          79 |
|     526 | 0x0065      |         101 |
|     527 | 0x008A      |         138 |
|     528 | 0x00C9      |         201 |
|     529 | 0x0002      |           2 |
|     530 | 0x00D7      |         215 |

## String References

- **7419**: Show the $3? [Yes./I have nothing to say.]
- **7420**: You show the $3 to the Immortal.
- **7421**: Nahshib looks confused.
- **7446**: Nareema's face lights up!
- **7547**: The name "Sir Jazaraat" is engraved on the headstone...
- **7550**: A sudden, piercing wind blows over you.
- **7551**: <Player> hears a voice...
- **8060**: 

## Events

### Event 65535

#### Metadata

| Field        | Value   |
|--------------|---------|
| Entrypoint   | 0x0000  |
| Data Size    | 1 bytes |
| Instructions | 1       |

```
      00 01 02 03 04 05 06 07  08 09 0A 0B 0C 0D 0E 0F
      -- -- -- -- -- -- -- --  -- -- -- -- -- -- -- --
0000: 00                                                .               
```

#### Opcodes

```
  0: 0x0000 [0x00] END_REQSTACK()
```

### Event 5

#### Metadata

| Field        | Value      |
|--------------|------------|
| Entrypoint   | 0x0001     |
| Data Size    | 1672 bytes |
| Instructions | 186        |

```
      00 01 02 03 04 05 06 07  08 09 0A 0B 0C 0D 0E 0F
      -- -- -- -- -- -- -- --  -- -- -- -- -- -- -- --
0000:    42 03 00 00 02 10 1A  B5 5B 46 01 38 00 80 79   B.......[F.8..y
0010: 00 F0 FF FF 7F F0 FF FF  7F 02 00 00 01 80 00 90  ................
0020: 03 92 01 33 F2 04 01 94  01 F0 FF FF 7F 94 01 33  ...3...........3
0030: F2 04 01 29 10 F0 FF FF  7F 2B 80 F0 FF FF 7F 80  ...).....+......
0040: 33 F2 04 01 1C 02 80 4A  33 F2 04 01 F0 FF FF 7F  3......J3.......
0050: 4A F0 FF FF 7F 33 F2 04  01 1C 03 80 45 04 80 F0  J....3......E...
0060: FF FF 7F F0 FF FF 7F 66  33 30 30 01 80 45 05 80  .......f300..E..
0070: F0 FF FF 7F F0 FF FF 7F  73 31 33 37 01 80 1C 02  ........s137....
0080: 80 1A 94 5B 66 06 80 33  F2 04 01 33 F2 04 01 74  ...[f..3...3...t
0090: 77 62 30 2B 33 F2 04 01  07 80 23 52 05 80 F0 FF  wb0+3.....#R....
00A0: FF 7F F0 FF FF 7F 73 31  33 37 45 05 80 F0 FF FF  ......s137E.....
00B0: 7F F0 FF FF 7F 73 31 33  38 01 80 66 06 80 33 F2  .....s138..f..3.
00C0: 04 01 33 F2 04 01 74 77  62 31 2B 33 F2 04 01 08  ..3...twb1+3....
00D0: 80 23 6E 33 F2 04 01 01  80 99 33 F2 04 01 2B 33  .#n3......3...+3
00E0: F2 04 01 09 80 23 03 02  10 0A 80 24 0B 80 01 80  .....#.....$....
00F0: 01 80 25 02 00 10 0C 80  00 38 01 52 05 80 F0 FF  ..%......8.R....
0100: FF 7F F0 FF FF 7F 73 31  33 38 45 05 80 F0 FF FF  ......s138E.....
0110: 7F F0 FF FF 7F 73 31 34  35 01 80 66 06 80 33 F2  .....s145..f..3.
0120: 04 01 33 F2 04 01 74 77  62 30 2B 33 F2 04 01 0D  ..3...twb0+3....
0130: 80 23 01 51 03 01 38 01  52 05 80 F0 FF FF 7F F0  .#.Q..8.R.......
0140: FF FF 7F 73 31 33 38 45  05 80 F0 FF FF 7F F0 FF  ...s138E........
0150: FF 7F 73 31 33 39 01 80  6E F0 FF FF 7F 01 80 99  ..s139..n.......
0160: F0 FF FF 7F 03 02 10 0A  80 48 0E 80 23 6E 33 F2  .........H..#n3.
0170: 04 01 0F 80 99 33 F2 04  01 1C 10 80 48 11 80 1C  .....3......H...
0180: 12 80 52 05 80 F0 FF FF  7F F0 FF FF 7F 73 31 33  ..R..........s13
0190: 39 45 05 80 F0 FF FF 7F  F0 FF FF 7F 73 31 34 30  9E..........s140
01A0: 01 80 6E 33 F2 04 01 13  80 99 33 F2 04 01 03 02  ..n3......3.....
01B0: 10 0A 80 2B 33 F2 04 01  14 80 23 66 06 80 33 F2  ...+3.....#f..3.
01C0: 04 01 33 F2 04 01 74 77  61 30 2B 33 F2 04 01 15  ..3...twa0+3....
01D0: 80 23 66 06 80 33 F2 04  01 33 F2 04 01 74 77 61  .#f..3...3...twa
01E0: 31 1C 16 80 6E 33 F2 04  01 17 80 99 33 F2 04 01  1...n3......3...
01F0: 2B 33 F2 04 01 18 80 23  52 05 80 F0 FF FF 7F F0  +3.....#R.......
0200: FF FF 7F 73 31 34 30 45  05 80 F0 FF FF 7F F0 FF  ...s140E........
0210: FF 7F 73 31 34 31 01 80  2B 33 F2 04 01 19 80 23  ..s141..+3.....#
0220: 6E 33 F2 04 01 1A 80 99  33 F2 04 01 2B 33 F2 04  n3......3...+3..
0230: 01 1B 80 23 66 06 80 33  F2 04 01 33 F2 04 01 74  ...#f..3...3...t
0240: 77 61 30 2B 33 F2 04 01  1C 80 23 66 06 80 33 F2  wa0+3.....#f..3.
0250: 04 01 33 F2 04 01 74 77  61 31 52 05 80 F0 FF FF  ..3...twa1R.....
0260: 7F F0 FF FF 7F 73 31 34  31 45 05 80 F0 FF FF 7F  .....s141E......
0270: F0 FF FF 7F 73 31 34 32  01 80 4B F0 FF FF 7F 1D  ....s142..K.....
0280: 80 1C 03 80 4B 33 F2 04  01 1D 80 2B 33 F2 04 01  ....K3.....+3...
0290: 1E 80 23 6E 33 F2 04 01  17 80 99 33 F2 04 01 2B  ..#n3......3...+
02A0: 33 F2 04 01 1F 80 23 66  06 80 33 F2 04 01 33 F2  3.....#f..3...3.
02B0: 04 01 74 6C 6B 30 2B 33  F2 04 01 20 80 23 66 06  ..tlk0+3... .#f.
02C0: 80 33 F2 04 01 33 F2 04  01 74 6C 6B 31 1C 16 80  .3...3...tlk1...
02D0: 52 05 80 F0 FF FF 7F F0  FF FF 7F 73 31 34 32 45  R..........s142E
02E0: 05 80 F0 FF FF 7F F0 FF  FF 7F 73 31 34 33 01 80  ..........s143..
02F0: 2B 33 F2 04 01 21 80 23  52 05 80 F0 FF FF 7F F0  +3...!.#R.......
0300: FF FF 7F 73 31 34 33 45  05 80 F0 FF FF 7F F0 FF  ...s143E........
0310: FF 7F 73 31 34 34 01 80  4A 33 F2 04 01 F0 FF FF  ..s144..J3......
0320: 7F 1C 03 80 4A F0 FF FF  7F 33 F2 04 01 66 06 80  ....J....3...f..
0330: 33 F2 04 01 33 F2 04 01  74 6C 6B 30 2B 33 F2 04  3...3...tlk0+3..
0340: 01 22 80 23 2B 33 F2 04  01 23 80 23 03 01 10 0C  .".#+3...#.#....
0350: 80 1A B5 5B 1C 03 80 45  05 80 F0 FF FF 7F F0 FF  ...[...E........
0360: FF 7F 73 31 34 34 01 80  45 05 80 F0 FF FF 7F F0  ..s144..E.......
0370: FF FF 7F 73 31 34 35 01  80 46 00 45 24 80 F0 FF  ...s145..F.E$...
0380: FF 7F F0 FF FF 7F 66 64  69 32 01 80 21 01 88 06  ......fdi2..!...
0390: 92 01 34 F2 04 01 94 01  F0 FF FF 7F 94 01 34 F2  ..4...........4.
03A0: 04 01 29 10 F0 FF FF 7F  2C 80 F0 FF FF 7F 80 34  ..).....,......4
03B0: F2 04 01 1C 02 80 4A 34  F2 04 01 F0 FF FF 7F 4A  ......J4.......J
03C0: F0 FF FF 7F 34 F2 04 01  1C 03 80 45 05 80 F0 FF  ....4......E....
03D0: FF 7F F0 FF FF 7F 73 31  34 36 01 80 1C 02 80 1A  ......s146......
03E0: 94 5B 2B 34 F2 04 01 25  80 23 52 05 80 F0 FF FF  .[+4...%.#R.....
03F0: 7F F0 FF FF 7F 73 31 34  36 45 05 80 F0 FF FF 7F  .....s146E......
0400: F0 FF FF 7F 73 31 34 37  01 80 66 00 80 34 F2 04  ....s147..f..4..
0410: 01 34 F2 04 01 74 6C 6B  30 2B 34 F2 04 01 26 80  .4...tlk0+4...&.
0420: 23 66 00 80 34 F2 04 01  34 F2 04 01 74 6C 6B 31  #f..4...4...tlk1
0430: 03 02 10 0A 80 24 0B 80  01 80 01 80 25 02 00 10  .....$......%...
0440: 0C 80 00 87 04 52 05 80  F0 FF FF 7F F0 FF FF 7F  .....R..........
0450: 73 31 34 37 45 05 80 F0  FF FF 7F F0 FF FF 7F 73  s147E..........s
0460: 31 35 34 01 80 6E 34 F2  04 01 17 80 99 34 F2 04  154..n4......4..
0470: 01 2B 34 F2 04 01 27 80  23 2B 34 F2 04 01 28 80  .+4...'.#+4...(.
0480: 23 01 51 03 01 87 04 6E  F0 FF FF 7F 01 80 99 F0  #.Q....n........
0490: FF FF 7F 1C 02 80 52 05  80 F0 FF FF 7F F0 FF FF  ......R.........
04A0: 7F 73 31 34 37 45 05 80  F0 FF FF 7F F0 FF FF 7F  .s147E..........
04B0: 73 31 34 38 01 80 03 02  10 0A 80 48 0E 80 23 66  s148.......H..#f
04C0: 00 80 34 F2 04 01 34 F2  04 01 74 68 6B 31 1C 10  ..4...4...thk1..
04D0: 80 48 29 80 1C 12 80 52  05 80 F0 FF FF 7F F0 FF  .H)....R........
04E0: FF 7F 73 31 34 38 45 05  80 F0 FF FF 7F F0 FF FF  ..s148E.........
04F0: 7F 73 31 34 39 01 80 66  00 80 34 F2 04 01 34 F2  .s149..f..4...4.
0500: 04 01 74 68 6B 32 03 02  10 0A 80 2B 34 F2 04 01  ..thk2.....+4...
0510: 2A 80 23 66 00 80 34 F2  04 01 34 F2 04 01 74 6C  *.#f..4...4...tl
0520: 6B 30 03 02 10 0A 80 2B  34 F2 04 01 2B 80 23 2B  k0.....+4...+.#+
0530: 34 F2 04 01 2C 80 23 52  05 80 F0 FF FF 7F F0 FF  4...,.#R........
0540: FF 7F 73 31 34 39 45 05  80 F0 FF FF 7F F0 FF FF  ..s149E.........
0550: 7F 73 31 35 30 01 80 66  00 80 34 F2 04 01 34 F2  .s150..f..4...4.
0560: 04 01 74 6C 6B 31 2B 34  F2 04 01 2D 80 23 66 00  ..tlk1+4...-.#f.
0570: 80 34 F2 04 01 34 F2 04  01 74 68 6B 31 2B 34 F2  .4...4...thk1+4.
0580: 04 01 2E 80 23 66 00 80  34 F2 04 01 34 F2 04 01  ....#f..4...4...
0590: 74 68 6B 32 2B 34 F2 04  01 2F 80 23 52 05 80 F0  thk2+4.../.#R...
05A0: FF FF 7F F0 FF FF 7F 73  31 35 30 45 05 80 F0 FF  .......s150E....
05B0: FF 7F F0 FF FF 7F 73 31  35 31 01 80 4B F0 FF FF  ......s151..K...
05C0: 7F 30 80 2B 34 F2 04 01  31 80 23 2B 34 F2 04 01  .0.+4...1.#+4...
05D0: 32 80 23 52 05 80 F0 FF  FF 7F F0 FF FF 7F 73 31  2.#R..........s1
05E0: 35 31 45 05 80 F0 FF FF  7F F0 FF FF 7F 73 31 35  51E..........s15
05F0: 33 01 80 2B 34 F2 04 01  33 80 23 52 05 80 F0 FF  3..+4...3.#R....
0600: FF 7F F0 FF FF 7F 73 31  35 33 45 05 80 F0 FF FF  ......s153E.....
0610: 7F F0 FF FF 7F 73 31 35  32 01 80 4A F0 FF FF 7F  .....s152..J....
0620: 34 F2 04 01 2B 34 F2 04  01 34 80 23 66 00 80 34  4...+4...4.#f..4
0630: F2 04 01 34 F2 04 01 74  6C 6B 30 2B 34 F2 04 01  ...4...tlk0+4...
0640: 35 80 23 2B 34 F2 04 01  36 80 23 03 01 10 0C 80  5.#+4...6.#.....
0650: 1A B5 5B 1C 03 80 52 05  80 F0 FF FF 7F F0 FF FF  ..[...R.........
0660: 7F 73 31 35 32 52 05 80  F0 FF FF 7F F0 FF FF 7F  .s152R..........
0670: 73 31 35 34 46 00 45 24  80 F0 FF FF 7F F0 FF FF  s154F.E$........
0680: 7F 66 64 69 32 01 80 21  00                       .fdi2..!.       
```

#### Opcodes

```
  0: 0x0001 [0x42] SET_CLI_EVENT_CANCEL_DATA()
  1: 0x0002 [0x03] ExtData[1]->WorkLocal[0] = Work_Zone[2]
  2: 0x0007 [0x1A] CALL_SUBROUTINE(address=0x5BB5)
  3: 0x000A [0x46] CAMERA_CONTROL: Disable user control
  4: 0x000C [0x38] SET_CLIENT_EVENT_MODE(mode=19*)
  5: 0x000F [0x79] LocalPlayer looks at LocalPlayer (Basic look)
  6: 0x0019 [0x02] IF !(ExtData[1]->WorkLocal[0] == 0*) GOTO 0x0390
  7: 0x0021 [0x92] Nahshib (ID: 17101363/0x0104F233)->Render.Flags3 ^= 0x01
  8: 0x0027 [0x94] LocalPlayer->Render.Flags3 ^= 0x01
  9: 0x002D [0x94] Nahshib (ID: 17101363/0x0104F233)->Render.Flags3 ^= 0x01
 10: 0x0033 [0x29] REQ_SET_WAIT(priority=0x10, entity_id=LocalPlayer, tag_num=0x2B)
 11: 0x003A [0x80] LOAD_WAIT(entity=LocalPlayer)
 12: 0x003F [0x80] LOAD_WAIT(entity=Nahshib (ID: 17101363/0x0104F233))
 13: 0x0044 [0x1C] WAIT(15* ticks)
 14: 0x0047 [0x4A] Nahshib (ID: 17101363/0x0104F233) looks at LocalPlayer
 15: 0x0050 [0x4A] LocalPlayer looks at Nahshib (ID: 17101363/0x0104F233)
 16: 0x0059 [0x1C] WAIT(30* ticks)
 17: 0x005C [0x45] LOAD_SCHEDULED_TASK: Load scheduler "f300" with entities [LocalPlayer, LocalPlayer], work=[259*, 0*]
 18: 0x006D [0x45] LOAD_SCHEDULED_TASK: Load scheduler "s137" with entities [LocalPlayer, LocalPlayer], work=[255*, 0*]
 19: 0x007E [0x1C] WAIT(15* ticks)
 20: 0x0081 [0x1A] CALL_SUBROUTINE(address=0x5B94)
 21: 0x0084 [0x66] LOAD_EXT_SCHEDULER_MAIN: Load scheduler "twb0" with entities [Nahshib (ID: 17101363/0x0104F233), Nahshib (ID: 17101363/0x0104F233)], work=9*
 22: 0x0093 [0x2B] Nahshib (ID: 17101363/0x0104F233) [7416*]:
    → "I am Nahshib, and this is the Dvucca Isle staging point. I will fulfill my duties to the Empress day or night, rain or shine!"
 23: 0x009A [0x23] WAIT_FOR_DIALOG_INTERACTION
 24: 0x009B [0x52] END_LOAD_SCHEDULER: End scheduler "s137" with entities [LocalPlayer, LocalPlayer], work=255*
 25: 0x00AA [0x45] LOAD_SCHEDULED_TASK: Load scheduler "s138" with entities [LocalPlayer, LocalPlayer], work=[255*, 0*]
 26: 0x00BB [0x66] LOAD_EXT_SCHEDULER_MAIN: Load scheduler "twb1" with entities [Nahshib (ID: 17101363/0x0104F233), Nahshib (ID: 17101363/0x0104F233)], work=9*
 27: 0x00CA [0x2B] Nahshib (ID: 17101363/0x0104F233) [7417*]:
    → "What I'm really trying to say, though, is that..."
 28: 0x00D1 [0x23] WAIT_FOR_DIALOG_INTERACTION
 29: 0x00D2 [0x6E] Nahshib (ID: 17101363/0x0104F233) uses emote 0*
 30: 0x00D9 [0x99] Wait for Nahshib (ID: 17101363/0x0104F233) animation to complete
 31: 0x00DE [0x2B] Nahshib (ID: 17101363/0x0104F233) [7418*]:
    → "If you've got something to say, then spit it out!"
 32: 0x00E5 [0x23] WAIT_FOR_DIALOG_INTERACTION
 33: 0x00E6 [0x03] Work_Zone[2] = 775*
 34: 0x00EB [0x24] CREATE_DIALOG(message_id=7419*, default_option=0*, option_flags=0*)
    → "Show the $3? [Yes./I have nothing to say.]"
 35: 0x00F2 [0x25] WAIT_DIALOG_SELECT()
 36: 0x00F3 [0x02] IF !(Work_Zone[0] == 1*) GOTO 0x0138
 37: 0x00FB [0x52] END_LOAD_SCHEDULER: End scheduler "s138" with entities [LocalPlayer, LocalPlayer], work=255*
 38: 0x010A [0x45] LOAD_SCHEDULED_TASK: Load scheduler "s145" with entities [LocalPlayer, LocalPlayer], work=[255*, 0*]
 39: 0x011B [0x66] LOAD_EXT_SCHEDULER_MAIN: Load scheduler "twb0" with entities [Nahshib (ID: 17101363/0x0104F233), Nahshib (ID: 17101363/0x0104F233)], work=9*
 40: 0x012A [0x2B] Nahshib (ID: 17101363/0x0104F233) [7434*]:
    → "If you have no business here, then leave. This is the Imperial Army's territory."
 41: 0x0131 [0x23] WAIT_FOR_DIALOG_INTERACTION
 42: 0x0132 [0x01] GOTO 0x0351

SUBROUTINE_0138:
 43: 0x0138 [0x52] END_LOAD_SCHEDULER: End scheduler "s138" with entities [LocalPlayer, LocalPlayer], work=255*
 44: 0x0147 [0x45] LOAD_SCHEDULED_TASK: Load scheduler "s139" with entities [LocalPlayer, LocalPlayer], work=[255*, 0*]
 45: 0x0158 [0x6E] LocalPlayer uses emote 0*
 46: 0x015F [0x99] Wait for LocalPlayer animation to complete
 47: 0x0164 [0x03] Work_Zone[2] = 775*
 48: 0x0169 [0x48] [System] [7420*]:
    → "You show the $3 to the Immortal."
 49: 0x016C [0x23] WAIT_FOR_DIALOG_INTERACTION
 50: 0x016D [0x6E] Nahshib (ID: 17101363/0x0104F233) uses emote 21*
 51: 0x0174 [0x99] Wait for Nahshib (ID: 17101363/0x0104F233) animation to complete
 52: 0x0179 [0x1C] WAIT(45* ticks)
 53: 0x017C [0x48] [System] [7421*]:
    → "Nahshib looks confused."
 54: 0x017F [0x1C] WAIT(120* ticks)
 55: 0x0182 [0x52] END_LOAD_SCHEDULER: End scheduler "s139" with entities [LocalPlayer, LocalPlayer], work=255*
 56: 0x0191 [0x45] LOAD_SCHEDULED_TASK: Load scheduler "s140" with entities [LocalPlayer, LocalPlayer], work=[255*, 0*]
 57: 0x01A2 [0x6E] Nahshib (ID: 17101363/0x0104F233) uses emote 22*
 58: 0x01A9 [0x99] Wait for Nahshib (ID: 17101363/0x0104F233) animation to complete
 59: 0x01AE [0x03] Work_Zone[2] = 775*
 60: 0x01B3 [0x2B] Nahshib (ID: 17101363/0x0104F233) [7422*]:
    → "6? Did you meet with Naja Salaheem?"
 61: 0x01BA [0x23] WAIT_FOR_DIALOG_INTERACTION
 62: 0x01BB [0x66] LOAD_EXT_SCHEDULER_MAIN: Load scheduler "twa0" with entities [Nahshib (ID: 17101363/0x0104F233), Nahshib (ID: 17101363/0x0104F233)], work=9*
 63: 0x01CA [0x2B] Nahshib (ID: 17101363/0x0104F233) [7423*]:
    → "I heard from Daswil that $6 can be used to earn recognition as an Immortal..."
 64: 0x01D1 [0x23] WAIT_FOR_DIALOG_INTERACTION
 65: 0x01D2 [0x66] LOAD_EXT_SCHEDULER_MAIN: Load scheduler "twa1" with entities [Nahshib (ID: 17101363/0x0104F233), Nahshib (ID: 17101363/0x0104F233)], work=9*
 66: 0x01E1 [0x1C] WAIT(60* ticks)
 67: 0x01E4 [0x6E] Nahshib (ID: 17101363/0x0104F233) uses emote 6*
 68: 0x01EB [0x99] Wait for Nahshib (ID: 17101363/0x0104F233) animation to complete
 69: 0x01F0 [0x2B] Nahshib (ID: 17101363/0x0104F233) [7424*]:
    → "I never imagined I would get my hands on one so early... I'm still a brand-new member, after all."
 70: 0x01F7 [0x23] WAIT_FOR_DIALOG_INTERACTION
 71: 0x01F8 [0x52] END_LOAD_SCHEDULER: End scheduler "s140" with entities [LocalPlayer, LocalPlayer], work=255*
 72: 0x0207 [0x45] LOAD_SCHEDULED_TASK: Load scheduler "s141" with entities [LocalPlayer, LocalPlayer], work=[255*, 0*]
 73: 0x0218 [0x2B] Nahshib (ID: 17101363/0x0104F233) [7425*]:
    → "Oh, yes. Let me thank you."
 74: 0x021F [0x23] WAIT_FOR_DIALOG_INTERACTION
 75: 0x0220 [0x6E] Nahshib (ID: 17101363/0x0104F233) uses emote 7*
 76: 0x0227 [0x99] Wait for Nahshib (ID: 17101363/0x0104F233) animation to complete
 77: 0x022C [0x2B] Nahshib (ID: 17101363/0x0104F233) [7426*]:
    → "I have some good news for you."
 78: 0x0233 [0x23] WAIT_FOR_DIALOG_INTERACTION
 79: 0x0234 [0x66] LOAD_EXT_SCHEDULER_MAIN: Load scheduler "twa0" with entities [Nahshib (ID: 17101363/0x0104F233), Nahshib (ID: 17101363/0x0104F233)], work=9*
 80: 0x0243 [0x2B] Nahshib (ID: 17101363/0x0104F233) [7427*]:
    → "Do you see that shining blue pedestal behind you?"
 81: 0x024A [0x23] WAIT_FOR_DIALOG_INTERACTION
 82: 0x024B [0x66] LOAD_EXT_SCHEDULER_MAIN: Load scheduler "twa1" with entities [Nahshib (ID: 17101363/0x0104F233), Nahshib (ID: 17101363/0x0104F233)], work=9*
 83: 0x025A [0x52] END_LOAD_SCHEDULER: End scheduler "s141" with entities [LocalPlayer, LocalPlayer], work=255*
 84: 0x0269 [0x45] LOAD_SCHEDULED_TASK: Load scheduler "s142" with entities [LocalPlayer, LocalPlayer], work=[255*, 0*]
 85: 0x027A [0x4B] UPDATE_ENTITY_YAW(entity=LocalPlayer, yaw=17.8°*)
 86: 0x0281 [0x1C] WAIT(30* ticks)
 87: 0x0284 [0x4B] UPDATE_ENTITY_YAW(entity=Nahshib (ID: 17101363/0x0104F233), yaw=17.8°*)
 88: 0x028B [0x2B] Nahshib (ID: 17101363/0x0104F233) [7428*]:
    → "It's a transport device called a "runic portal.""
 89: 0x0292 [0x23] WAIT_FOR_DIALOG_INTERACTION
 90: 0x0293 [0x6E] Nahshib (ID: 17101363/0x0104F233) uses emote 6*
 91: 0x029A [0x99] Wait for Nahshib (ID: 17101363/0x0104F233) animation to complete
 92: 0x029F [0x2B] Nahshib (ID: 17101363/0x0104F233) [7429*]:
    → "Apparently, the great alchemists of Aht Urhgan created it. That kind of knowledge is completely beyond me."
 93: 0x02A6 [0x23] WAIT_FOR_DIALOG_INTERACTION
 94: 0x02A7 [0x66] LOAD_EXT_SCHEDULER_MAIN: Load scheduler "tlk0" with entities [Nahshib (ID: 17101363/0x0104F233), Nahshib (ID: 17101363/0x0104F233)], work=9*
 95: 0x02B6 [0x2B] Nahshib (ID: 17101363/0x0104F233) [7430*]:
    → "It doesn't really matter, though. All that matters is that it's extremely convenient. Why not give it a try?"
 96: 0x02BD [0x23] WAIT_FOR_DIALOG_INTERACTION
 97: 0x02BE [0x66] LOAD_EXT_SCHEDULER_MAIN: Load scheduler "tlk1" with entities [Nahshib (ID: 17101363/0x0104F233), Nahshib (ID: 17101363/0x0104F233)], work=9*
 98: 0x02CD [0x1C] WAIT(60* ticks)
 99: 0x02D0 [0x52] END_LOAD_SCHEDULER: End scheduler "s142" with entities [LocalPlayer, LocalPlayer], work=255*
100: 0x02DF [0x45] LOAD_SCHEDULED_TASK: Load scheduler "s143" with entities [LocalPlayer, LocalPlayer], work=[255*, 0*]
101: 0x02F0 [0x2B] Nahshib (ID: 17101363/0x0104F233) [7431*]:
    → "You'll be in for a surprise... Before you know it, you'll find yourself in the "Chamber of Passage" in Al Zahbi!"
102: 0x02F7 [0x23] WAIT_FOR_DIALOG_INTERACTION
103: 0x02F8 [0x52] END_LOAD_SCHEDULER: End scheduler "s143" with entities [LocalPlayer, LocalPlayer], work=255*
104: 0x0307 [0x45] LOAD_SCHEDULED_TASK: Load scheduler "s144" with entities [LocalPlayer, LocalPlayer], work=[255*, 0*]
105: 0x0318 [0x4A] Nahshib (ID: 17101363/0x0104F233) looks at LocalPlayer
106: 0x0321 [0x1C] WAIT(30* ticks)
107: 0x0324 [0x4A] LocalPlayer looks at Nahshib (ID: 17101363/0x0104F233)
108: 0x032D [0x66] LOAD_EXT_SCHEDULER_MAIN: Load scheduler "tlk0" with entities [Nahshib (ID: 17101363/0x0104F233), Nahshib (ID: 17101363/0x0104F233)], work=9*
109: 0x033C [0x2B] Nahshib (ID: 17101363/0x0104F233) [7432*]:
    → "Then, you'll be able to use the runic portal to freely travel to and from Al Zahbi."
110: 0x0343 [0x23] WAIT_FOR_DIALOG_INTERACTION
111: 0x0344 [0x2B] Nahshib (ID: 17101363/0x0104F233) [7433*]:
    → "The next time you wish to return here to the Dvucca Isle staging point, you would do well to remember the runic portal."
112: 0x034B [0x23] WAIT_FOR_DIALOG_INTERACTION
113: 0x034C [0x03] Work_Zone[1] = 1*

SUBROUTINE_0351:
114: 0x0351 [0x1A] CALL_SUBROUTINE(address=0x5BB5)
115: 0x0354 [0x1C] WAIT(30* ticks)
116: 0x0357 [0x45] LOAD_SCHEDULED_TASK: Load scheduler "s144" with entities [LocalPlayer, LocalPlayer], work=[255*, 0*]
117: 0x0368 [0x45] LOAD_SCHEDULED_TASK: Load scheduler "s145" with entities [LocalPlayer, LocalPlayer], work=[255*, 0*]
118: 0x0379 [0x46] CAMERA_CONTROL: Restore default settings
119: 0x037B [0x45] LOAD_SCHEDULED_TASK: Load scheduler "fdi2" with entities [LocalPlayer, LocalPlayer], work=[200*, 0*]
120: 0x038C [0x21] END_EVENT

SUBROUTINE_0487:
121: 0x0487 [0x6E] LocalPlayer uses emote 0*
122: 0x048E [0x99] Wait for LocalPlayer animation to complete
123: 0x0493 [0x1C] WAIT(15* ticks)
124: 0x0496 [0x52] END_LOAD_SCHEDULER: End scheduler "s147" with entities [LocalPlayer, LocalPlayer], work=255*
125: 0x04A5 [0x45] LOAD_SCHEDULED_TASK: Load scheduler "s148" with entities [LocalPlayer, LocalPlayer], work=[255*, 0*]
126: 0x04B6 [0x03] Work_Zone[2] = 775*
127: 0x04BB [0x48] [System] [7420*]:
    → "You show the $3 to the Immortal."
128: 0x04BE [0x23] WAIT_FOR_DIALOG_INTERACTION
129: 0x04BF [0x66] LOAD_EXT_SCHEDULER_MAIN: Load scheduler "thk1" with entities [Nareema (ID: 17101364/0x0104F234), Nareema (ID: 17101364/0x0104F234)], work=19*
130: 0x04CE [0x1C] WAIT(45* ticks)
131: 0x04D1 [0x48] [System] [7446*]:
    → "Nareema's face lights up!"
132: 0x04D4 [0x1C] WAIT(120* ticks)
133: 0x04D7 [0x52] END_LOAD_SCHEDULER: End scheduler "s148" with entities [LocalPlayer, LocalPlayer], work=255*
134: 0x04E6 [0x45] LOAD_SCHEDULED_TASK: Load scheduler "s149" with entities [LocalPlayer, LocalPlayer], work=[255*, 0*]
135: 0x04F7 [0x66] LOAD_EXT_SCHEDULER_MAIN: Load scheduler "thk2" with entities [Nareema (ID: 17101364/0x0104F234), Nareema (ID: 17101364/0x0104F234)], work=19*
136: 0x0506 [0x03] Work_Zone[2] = 775*
137: 0x050B [0x2B] Nareema (ID: 17101364/0x0104F234) [7447*]:
    → "Oh! 6! How did you get this?"
138: 0x0512 [0x23] WAIT_FOR_DIALOG_INTERACTION
139: 0x0513 [0x66] LOAD_EXT_SCHEDULER_MAIN: Load scheduler "tlk0" with entities [Nareema (ID: 17101364/0x0104F234), Nareema (ID: 17101364/0x0104F234)], work=19*
140: 0x0522 [0x03] Work_Zone[2] = 775*
141: 0x0527 [0x2B] Nareema (ID: 17101364/0x0104F234) [7448*]:
    → "It's magnificent... Look how it gleams... This scent makes me feel so fresh and pure!"
142: 0x052E [0x23] WAIT_FOR_DIALOG_INTERACTION
143: 0x052F [0x2B] Nareema (ID: 17101364/0x0104F234) [7449*]:
    → "This is such a precious item. Thank you so much!"
144: 0x0536 [0x23] WAIT_FOR_DIALOG_INTERACTION
145: 0x0537 [0x52] END_LOAD_SCHEDULER: End scheduler "s149" with entities [LocalPlayer, LocalPlayer], work=255*
146: 0x0546 [0x45] LOAD_SCHEDULED_TASK: Load scheduler "s150" with entities [LocalPlayer, LocalPlayer], work=[255*, 0*]
147: 0x0557 [0x66] LOAD_EXT_SCHEDULER_MAIN: Load scheduler "tlk1" with entities [Nareema (ID: 17101364/0x0104F234), Nareema (ID: 17101364/0x0104F234)], work=19*
148: 0x0566 [0x2B] Nareema (ID: 17101364/0x0104F234) [7450*]:
    → "What can I give you to show you my gratitude?"
149: 0x056D [0x23] WAIT_FOR_DIALOG_INTERACTION
150: 0x056E [0x66] LOAD_EXT_SCHEDULER_MAIN: Load scheduler "thk1" with entities [Nareema (ID: 17101364/0x0104F234), Nareema (ID: 17101364/0x0104F234)], work=19*
151: 0x057D [0x2B] Nareema (ID: 17101364/0x0104F234) [7451*]:
    → "Oh, I know! I have some fantastic information for you."
152: 0x0584 [0x23] WAIT_FOR_DIALOG_INTERACTION
153: 0x0585 [0x66] LOAD_EXT_SCHEDULER_MAIN: Load scheduler "thk2" with entities [Nareema (ID: 17101364/0x0104F234), Nareema (ID: 17101364/0x0104F234)], work=19*
154: 0x0594 [0x2B] Nareema (ID: 17101364/0x0104F234) [7452*]:
    → "See the glowing blue device behind you?"
155: 0x059B [0x23] WAIT_FOR_DIALOG_INTERACTION
156: 0x059C [0x52] END_LOAD_SCHEDULER: End scheduler "s150" with entities [LocalPlayer, LocalPlayer], work=255*
157: 0x05AB [0x45] LOAD_SCHEDULED_TASK: Load scheduler "s151" with entities [LocalPlayer, LocalPlayer], work=[255*, 0*]
158: 0x05BC [0x4B] UPDATE_ENTITY_YAW(entity=LocalPlayer, yaw=5.8°*)
159: 0x05C3 [0x2B] Nareema (ID: 17101364/0x0104F234) [7453*]:
    → "That's a "runic portal," the pride of Aht Urhgan!"
160: 0x05CA [0x23] WAIT_FOR_DIALOG_INTERACTION
161: 0x05CB [0x2B] Nareema (ID: 17101364/0x0104F234) [7454*]:
    → "Our brilliant alchemists created it themselves. It takes you apart and puts you back together in a faraway place!"
162: 0x05D2 [0x23] WAIT_FOR_DIALOG_INTERACTION
163: 0x05D3 [0x52] END_LOAD_SCHEDULER: End scheduler "s151" with entities [LocalPlayer, LocalPlayer], work=255*
164: 0x05E2 [0x45] LOAD_SCHEDULED_TASK: Load scheduler "s153" with entities [LocalPlayer, LocalPlayer], work=[255*, 0*]
165: 0x05F3 [0x2B] Nareema (ID: 17101364/0x0104F234) [7455*]:
    → "Scary, isn't it? I was scared at first, too. I mean, the entire contraption is simply beyond belief. It's hard to believe that such a thing could exist on Vana'diel!"
166: 0x05FA [0x23] WAIT_FOR_DIALOG_INTERACTION
167: 0x05FB [0x52] END_LOAD_SCHEDULER: End scheduler "s153" with entities [LocalPlayer, LocalPlayer], work=255*
168: 0x060A [0x45] LOAD_SCHEDULED_TASK: Load scheduler "s152" with entities [LocalPlayer, LocalPlayer], work=[255*, 0*]
169: 0x061B [0x4A] LocalPlayer looks at Nareema (ID: 17101364/0x0104F234)
170: 0x0624 [0x2B] Nareema (ID: 17101364/0x0104F234) [7456*]:
    → "I really don't get it... How could your body be disassembled, and then each individual molecule meticulously reassembled in Al Zahbi's Chamber of Passage? Does that make sense to you?"
171: 0x062B [0x23] WAIT_FOR_DIALOG_INTERACTION
172: 0x062C [0x66] LOAD_EXT_SCHEDULER_MAIN: Load scheduler "tlk0" with entities [Nareema (ID: 17101364/0x0104F234), Nareema (ID: 17101364/0x0104F234)], work=19*
173: 0x063B [0x2B] Nareema (ID: 17101364/0x0104F234) [7457*]:
    → "Well, it might be frightening, but once you've traveled to Al Zahbi once using the runic portal, you can use it to return here, too!"
174: 0x0642 [0x23] WAIT_FOR_DIALOG_INTERACTION
175: 0x0643 [0x2B] Nareema (ID: 17101364/0x0104F234) [7458*]:
    → "So if you'd ever like to talk with me again, don't forget about it!"
176: 0x064A [0x23] WAIT_FOR_DIALOG_INTERACTION
177: 0x064B [0x03] Work_Zone[1] = 1*
178: 0x0650 [0x1A] CALL_SUBROUTINE(address=0x5BB5)
179: 0x0653 [0x1C] WAIT(30* ticks)
180: 0x0656 [0x52] END_LOAD_SCHEDULER: End scheduler "s152" with entities [LocalPlayer, LocalPlayer], work=255*
181: 0x0665 [0x52] END_LOAD_SCHEDULER: End scheduler "s154" with entities [LocalPlayer, LocalPlayer], work=255*
182: 0x0674 [0x46] CAMERA_CONTROL: Restore default settings
183: 0x0676 [0x45] LOAD_SCHEDULED_TASK: Load scheduler "fdi2" with entities [LocalPlayer, LocalPlayer], work=[200*, 0*]
184: 0x0687 [0x21] END_EVENT

SUBROUTINE_0688:
185: 0x0688 [0x00] END_REQSTACK()
```

#### Data or dead code:

```
# Dead code (unreachable instructions):
     0x0135 [0x01] GOTO 0x0138
# Dead code (unreachable instructions):
     0x038D [0x01] GOTO 0x0688
     0x0484 [0x01] GOTO 0x0487
```

### Event 8

#### Metadata

| Field        | Value     |
|--------------|-----------|
| Entrypoint   | 0x0689    |
| Data Size    | 578 bytes |
| Instructions | 78        |

```
      00 01 02 03 04 05 06 07  08 09 0A 0B 0C 0D 0E 0F
      -- -- -- -- -- -- -- --  -- -- -- -- -- -- -- --
0680:                             42 1A B5 5B 46 01 38           B..[F.8
0690: 00 80 79 00 F0 FF FF 7F  F0 FF FF 7F 27 10 20 F2  ..y.........'. .
06A0: 04 01 02 92 01 20 F2 04  01 94 01 F0 FF FF 7F 94  ..... ..........
06B0: 01 20 F2 04 01 29 10 F0  FF FF 7F 2D 29 10 20 F2  . ...).....-). .
06C0: 04 01 0A 80 F0 FF FF 7F  80 20 F2 04 01 1C 02 80  ......... ......
06D0: 1C 03 80 45 04 80 F0 FF  FF 7F F0 FF FF 7F 66 6F  ...E..........fo
06E0: 30 30 01 80 1C 02 80 1A  94 5B 1C 16 80 29 10 F0  00.......[...)..
06F0: FF FF 7F 3F 48 37 80 23  52 04 80 F0 FF FF 7F F0  ...?H7.#R.......
0700: FF FF 7F 66 6F 30 30 45  04 80 F0 FF FF 7F F0 FF  ...fo00E........
0710: FF 7F 66 6F 30 31 01 80  5D 01 80 16 80 1C 16 80  ..fo01..].......
0720: 48 38 80 1C 16 80 29 10  F0 FF FF 7F 40 1C 03 80  H8....).....@...
0730: 55 04 80 F0 FF FF 7F F0  FF FF 7F 66 6F 30 31 45  U..........fo01E
0740: 04 80 F0 FF FF 7F F0 FF  FF 7F 66 6F 30 33 01 80  ..........fo03..
0750: 27 10 F0 FF FF 7F 2F 1C  10 80 48 39 80 1C 03 80  '...../...H9....
0760: 2A 10 F0 FF FF 7F 55 04  80 F0 FF FF 7F F0 FF FF  *.....U.........
0770: 7F 66 6F 30 33 45 04 80  F0 FF FF 7F F0 FF FF 7F  .fo03E..........
0780: 66 6F 30 32 01 80 1C 03  80 45 04 80 F0 FF FF 7F  fo02.....E......
0790: F0 FF FF 7F 30 73 6F 6C  01 80 9F 3A 80 20 F2 04  ....0sol...:. ..
07A0: 01 20 F2 04 01 6D 61 69  6E 01 80 1C 3B 80 5B 3C  . ...main...;.[<
07B0: 80 20 F2 04 01 20 F2 04  01 66 70 6F 70 1C 10 80  . ... ...fpop...
07C0: 5D 3D 80 12 80 52 04 80  F0 FF FF 7F F0 FF FF 7F  ]=...R..........
07D0: 66 6F 30 32 45 04 80 F0  FF FF 7F F0 FF FF 7F 66  fo02E..........f
07E0: 6F 30 36 01 80 27 10 1B  F2 04 01 04 7C 00 20 F2  o06..'......|. .
07F0: 04 01 2B 20 F2 04 01 3E  80 23 53 20 F2 04 01 20  ..+ ...>.#S ... 
0800: F2 04 01 66 70 6F 70 52  04 80 F0 FF FF 7F F0 FF  ...fpopR........
0810: FF 7F 66 6F 30 36 45 04  80 F0 FF FF 7F F0 FF FF  ..fo06E.........
0820: 7F 66 6F 30 34 01 80 1C  16 80 2B 20 F2 04 01 3F  .fo04.....+ ...?
0830: 80 23 6E F0 FF FF 7F 0F  80 99 F0 FF FF 7F 55 04  .#n...........U.
0840: 80 F0 FF FF 7F F0 FF FF  7F 66 6F 30 34 45 04 80  .........fo04E..
0850: F0 FF FF 7F F0 FF FF 7F  66 6F 30 35 01 80 9F 3A  ........fo05...:
0860: 80 20 F2 04 01 20 F2 04  01 73 74 6F 70 01 80 5B  . ... ...stop..[
0870: 3C 80 20 F2 04 01 20 F2  04 01 66 61 74 6B 1C 03  <. ... ...fatk..
0880: 80 1A 08 5D 1C 03 80 1A  B5 5B 1A D6 5B 52 04 80  ...].....[..[R..
0890: F0 FF FF 7F F0 FF FF 7F  66 6F 30 35 45 04 80 F0  ........fo05E...
08A0: FF FF 7F F0 FF FF 7F 30  62 6C 66 01 80 5C 00 40  .......0blf..\.@
08B0: 80 5C 01 40 80 9A 46 00  45 24 80 F0 FF FF 7F F0  .\.@..F.E$......
08C0: FF FF 7F 66 64 69 32 01  80 21 00                 ...fdi2..!.     
```

#### Opcodes

```
  0: 0x0689 [0x42] SET_CLI_EVENT_CANCEL_DATA()
  1: 0x068A [0x1A] CALL_SUBROUTINE(address=0x5BB5)
  2: 0x068D [0x46] CAMERA_CONTROL: Disable user control
  3: 0x068F [0x38] SET_CLIENT_EVENT_MODE(mode=19*)
  4: 0x0692 [0x79] LocalPlayer looks at LocalPlayer (Basic look)
  5: 0x069C [0x27] REQ_SET(priority=0x10, entity_id=Jazaraat (ID: 17101344/0x0104F220), tag_num=0x02)
  6: 0x06A3 [0x92] Jazaraat (ID: 17101344/0x0104F220)->Render.Flags3 ^= 0x01
  7: 0x06A9 [0x94] LocalPlayer->Render.Flags3 ^= 0x01
  8: 0x06AF [0x94] Jazaraat (ID: 17101344/0x0104F220)->Render.Flags3 ^= 0x01
  9: 0x06B5 [0x29] REQ_SET_WAIT(priority=0x10, entity_id=LocalPlayer, tag_num=0x2D)
 10: 0x06BC [0x29] REQ_SET_WAIT(priority=0x10, entity_id=Jazaraat (ID: 17101344/0x0104F220), tag_num=0x0A)
 11: 0x06C3 [0x80] LOAD_WAIT(entity=LocalPlayer)
 12: 0x06C8 [0x80] LOAD_WAIT(entity=Jazaraat (ID: 17101344/0x0104F220))
 13: 0x06CD [0x1C] WAIT(15* ticks)
 14: 0x06D0 [0x1C] WAIT(30* ticks)
 15: 0x06D3 [0x45] LOAD_SCHEDULED_TASK: Load scheduler "fo00" with entities [LocalPlayer, LocalPlayer], work=[259*, 0*]
 16: 0x06E4 [0x1C] WAIT(15* ticks)
 17: 0x06E7 [0x1A] CALL_SUBROUTINE(address=0x5B94)
 18: 0x06EA [0x1C] WAIT(60* ticks)
 19: 0x06ED [0x29] REQ_SET_WAIT(priority=0x10, entity_id=LocalPlayer, tag_num=0x3F)
 20: 0x06F4 [0x48] [System] [7547*]:
    → "The name "Sir Jazaraat" is engraved on the headstone..."
 21: 0x06F7 [0x23] WAIT_FOR_DIALOG_INTERACTION
 22: 0x06F8 [0x52] END_LOAD_SCHEDULER: End scheduler "fo00" with entities [LocalPlayer, LocalPlayer], work=259*
 23: 0x0707 [0x45] LOAD_SCHEDULED_TASK: Load scheduler "fo01" with entities [LocalPlayer, LocalPlayer], work=[259*, 0*]
 24: 0x0718 [0x5D] SET_MUSIC_VOLUME(volume=0*, fade_time=60*)
 25: 0x071D [0x1C] WAIT(60* ticks)
 26: 0x0720 [0x48] [System] [7550*]:
    → "A sudden, piercing wind blows over you."
 27: 0x0723 [0x1C] WAIT(60* ticks)
 28: 0x0726 [0x29] REQ_SET_WAIT(priority=0x10, entity_id=LocalPlayer, tag_num=0x40)
 29: 0x072D [0x1C] WAIT(30* ticks)
 30: 0x0730 [0x55] WAIT_LOAD_SCHEDULER: Wait for scheduler "fo01" with entities [LocalPlayer, LocalPlayer], work=259*
 31: 0x073F [0x45] LOAD_SCHEDULED_TASK: Load scheduler "fo03" with entities [LocalPlayer, LocalPlayer], work=[259*, 0*]
 32: 0x0750 [0x27] REQ_SET(priority=0x10, entity_id=LocalPlayer, tag_num=0x2F)
 33: 0x0757 [0x1C] WAIT(45* ticks)
 34: 0x075A [0x48] [System] [7551*]:
    → "<Player> hears a voice..."
 35: 0x075D [0x1C] WAIT(30* ticks)
 36: 0x0760 [0x2A] GET_REQ_LEVEL(level=16, entity_id=LocalPlayer)
 37: 0x0766 [0x55] WAIT_LOAD_SCHEDULER: Wait for scheduler "fo03" with entities [LocalPlayer, LocalPlayer], work=259*
 38: 0x0775 [0x45] LOAD_SCHEDULED_TASK: Load scheduler "fo02" with entities [LocalPlayer, LocalPlayer], work=[259*, 0*]
 39: 0x0786 [0x1C] WAIT(30* ticks)
 40: 0x0789 [0x45] LOAD_SCHEDULED_TASK: Load scheduler "0sol" with entities [LocalPlayer, LocalPlayer], work=[259*, 0*]
 41: 0x079A [0x9F] LOAD_SCHEDULED_TASK_ALT: Load scheduler "main" with entities [Jazaraat (ID: 17101344/0x0104F220), Jazaraat (ID: 17101344/0x0104F220)], work=[247*, 0*]
 42: 0x07AB [0x1C] WAIT(407* ticks)
 43: 0x07AE [0x5B] LOAD_EXT_SCHEDULER: Load scheduler "fpop" with entities [Jazaraat (ID: 17101344/0x0104F220), Jazaraat (ID: 17101344/0x0104F220)], work=853*
 44: 0x07BD [0x1C] WAIT(45* ticks)
 45: 0x07C0 [0x5D] SET_MUSIC_VOLUME(volume=127*, fade_time=120*)
 46: 0x07C5 [0x52] END_LOAD_SCHEDULER: End scheduler "fo02" with entities [LocalPlayer, LocalPlayer], work=259*
 47: 0x07D4 [0x45] LOAD_SCHEDULED_TASK: Load scheduler "fo06" with entities [LocalPlayer, LocalPlayer], work=[259*, 0*]
 48: 0x07E5 [0x27] REQ_SET(priority=0x10, entity_id=Unnamed NPC (ID: 17101339/0x0104F21B), tag_num=0x04)
 49: 0x07EC [0x7C] Jazaraat (ID: 17101344/0x0104F220)->Render.Flags2 |= 0x00
 50: 0x07F2 [0x2B] Jazaraat (ID: 17101344/0x0104F220) [7552*]:
    → "That smell...so familiar... My nation...no...not anymore..."
 51: 0x07F9 [0x23] WAIT_FOR_DIALOG_INTERACTION
 52: 0x07FA [0x53] WAIT_SCHEDULER_TASK: Wait for scheduler "fpop" with entities [Jazaraat (ID: 17101344/0x0104F220), Jazaraat (ID: 17101344/0x0104F220)]
 53: 0x0807 [0x52] END_LOAD_SCHEDULER: End scheduler "fo06" with entities [LocalPlayer, LocalPlayer], work=259*
 54: 0x0816 [0x45] LOAD_SCHEDULED_TASK: Load scheduler "fo04" with entities [LocalPlayer, LocalPlayer], work=[259*, 0*]
 55: 0x0827 [0x1C] WAIT(60* ticks)
 56: 0x082A [0x2B] Jazaraat (ID: 17101344/0x0104F220) [7553*]:
    → "My nation...now...Aht Urhgan... You...you..."
 57: 0x0831 [0x23] WAIT_FOR_DIALOG_INTERACTION
 58: 0x0832 [0x6E] LocalPlayer uses emote 21*
 59: 0x0839 [0x99] Wait for LocalPlayer animation to complete
 60: 0x083E [0x55] WAIT_LOAD_SCHEDULER: Wait for scheduler "fo04" with entities [LocalPlayer, LocalPlayer], work=259*
 61: 0x084D [0x45] LOAD_SCHEDULED_TASK: Load scheduler "fo05" with entities [LocalPlayer, LocalPlayer], work=[259*, 0*]
 62: 0x085E [0x9F] LOAD_SCHEDULED_TASK_ALT: Load scheduler "stop" with entities [Jazaraat (ID: 17101344/0x0104F220), Jazaraat (ID: 17101344/0x0104F220)], work=[247*, 0*]
 63: 0x086F [0x5B] LOAD_EXT_SCHEDULER: Load scheduler "fatk" with entities [Jazaraat (ID: 17101344/0x0104F220), Jazaraat (ID: 17101344/0x0104F220)], work=853*
 64: 0x087E [0x1C] WAIT(30* ticks)
 65: 0x0881 [0x1A] CALL_SUBROUTINE(address=0x5D08)
 66: 0x0884 [0x1C] WAIT(30* ticks)
 67: 0x0887 [0x1A] CALL_SUBROUTINE(address=0x5BB5)
 68: 0x088A [0x1A] CALL_SUBROUTINE(address=0x5BD6)
 69: 0x088D [0x52] END_LOAD_SCHEDULER: End scheduler "fo05" with entities [LocalPlayer, LocalPlayer], work=259*
 70: 0x089C [0x45] LOAD_SCHEDULED_TASK: Load scheduler "0blf" with entities [LocalPlayer, LocalPlayer], work=[259*, 0*]
 71: 0x08AD [0x5C] MUSIC_CONTROL: Set Idle (Day) music to song 173*
 72: 0x08B1 [0x5C] MUSIC_CONTROL: Set Idle (Night) music to song 173*
 73: 0x08B5 [0x9A] WAIT_MUSIC_SERVER()
 74: 0x08B6 [0x46] CAMERA_CONTROL: Restore default settings
 75: 0x08B8 [0x45] LOAD_SCHEDULED_TASK: Load scheduler "fdi2" with entities [LocalPlayer, LocalPlayer], work=[200*, 0*]
 76: 0x08C9 [0x21] END_EVENT
 77: 0x08CA [0x00] END_REQSTACK()
```

### Event 9

#### Metadata

| Field        | Value     |
|--------------|-----------|
| Entrypoint   | 0x08CB    |
| Data Size    | 704 bytes |
| Instructions | 96        |

```
      00 01 02 03 04 05 06 07  08 09 0A 0B 0C 0D 0E 0F
      -- -- -- -- -- -- -- --  -- -- -- -- -- -- -- --
08C0:                                   42 1A B5 5B 46             B..[F
08D0: 01 38 00 80 79 00 F0 FF  FF 7F F0 FF FF 7F 27 10  .8..y.........'.
08E0: 20 F2 04 01 04 92 01 20  F2 04 01 94 01 F0 FF FF   ...... ........
08F0: 7F 94 01 20 F2 04 01 29  10 F0 FF FF 7F 2E 29 10  ... ...)......).
0900: 20 F2 04 01 0A 80 F0 FF  FF 7F 80 20 F2 04 01 79   .......... ...y
0910: 00 F0 FF FF 7F 20 F2 04  01 9F 41 80 20 F2 04 01  ..... ....A. ...
0920: 20 F2 04 01 6D 61 69 6E  01 80 1C 02 80 5C 00 42   ...main.....\.B
0930: 80 5C 01 42 80 9A 1C 03  80 5B 3C 80 20 F2 04 01  .\.B.....[<. ...
0940: 20 F2 04 01 66 73 74 64  45 04 80 F0 FF FF 7F F0   ...fstdE.......
0950: FF FF 7F 66 6F 31 30 01  80 1C 02 80 1A 94 5B 7C  ...fo10.......[|
0960: 00 20 F2 04 01 2B 20 F2  04 01 43 80 23 2B 20 F2  . ...+ ...C.#+ .
0970: 04 01 44 80 23 52 04 80  F0 FF FF 7F F0 FF FF 7F  ..D.#R..........
0980: 66 6F 31 30 45 04 80 F0  FF FF 7F F0 FF FF 7F 66  fo10E..........f
0990: 6F 31 31 01 80 2B 20 F2  04 01 45 80 23 2B 20 F2  o11..+ ...E.#+ .
09A0: 04 01 46 80 23 52 04 80  F0 FF FF 7F F0 FF FF 7F  ..F.#R..........
09B0: 66 6F 31 31 45 04 80 F0  FF FF 7F F0 FF FF 7F 66  fo11E..........f
09C0: 6F 31 32 01 80 2B 20 F2  04 01 47 80 23 2B 20 F2  o12..+ ...G.#+ .
09D0: 04 01 48 80 23 52 04 80  F0 FF FF 7F F0 FF FF 7F  ..H.#R..........
09E0: 66 6F 31 32 45 04 80 F0  FF FF 7F F0 FF FF 7F 66  fo12E..........f
09F0: 6F 31 33 01 80 2B 20 F2  04 01 49 80 23 2B 20 F2  o13..+ ...I.#+ .
0A00: 04 01 4A 80 23 2B 20 F2  04 01 4B 80 23 52 04 80  ..J.#+ ...K.#R..
0A10: F0 FF FF 7F F0 FF FF 7F  66 6F 31 33 45 04 80 F0  ........fo13E...
0A20: FF FF 7F F0 FF FF 7F 66  6F 31 34 01 80 5B 4C 80  .......fo14..[L.
0A30: 20 F2 04 01 20 F2 04 01  61 6D 30 30 2B 20 F2 04   ... ...am00+ ..
0A40: 01 4D 80 23 2B 20 F2 04  01 4E 80 23 52 04 80 F0  .M.#+ ...N.#R...
0A50: FF FF 7F F0 FF FF 7F 66  6F 31 34 45 04 80 F0 FF  .......fo14E....
0A60: FF 7F F0 FF FF 7F 66 6F  31 35 01 80 2B 20 F2 04  ......fo15..+ ..
0A70: 01 4F 80 23 2B 20 F2 04  01 50 80 23 2B 20 F2 04  .O.#+ ...P.#+ ..
0A80: 01 51 80 23 52 04 80 F0  FF FF 7F F0 FF FF 7F 66  .Q.#R..........f
0A90: 6F 31 35 45 04 80 F0 FF  FF 7F F0 FF FF 7F 66 6F  o15E..........fo
0AA0: 31 36 01 80 1C 03 80 5B  4C 80 20 F2 04 01 20 F2  16.....[L. ... .
0AB0: 04 01 61 6D 30 31 03 02  10 52 80 2B 20 F2 04 01  ..am01...R.+ ...
0AC0: 53 80 23 2B 20 F2 04 01  54 80 23 52 04 80 F0 FF  S.#+ ...T.#R....
0AD0: FF 7F F0 FF FF 7F 66 6F  31 36 45 04 80 F0 FF FF  ......fo16E.....
0AE0: 7F F0 FF FF 7F 66 6F 31  37 01 80 5D 01 80 12 80  .....fo17..]....
0AF0: 27 10 1B F2 04 01 05 9F  41 80 20 F2 04 01 20 F2  '.......A. ... .
0B00: 04 01 73 74 6F 70 01 80  2B 20 F2 04 01 55 80 23  ..stop..+ ...U.#
0B10: 1C 16 80 52 04 80 F0 FF  FF 7F F0 FF FF 7F 66 6F  ...R..........fo
0B20: 31 37 45 04 80 F0 FF FF  7F F0 FF FF 7F 66 6F 31  17E..........fo1
0B30: 38 01 80 62 56 80 1F F2  04 01 1F F2 04 01 6D 61  8..bV.........ma
0B40: 69 6E 01 80 1C 03 80 1A  B5 5B 1C 03 80 52 04 80  in.......[...R..
0B50: F0 FF FF 7F F0 FF FF 7F  66 6F 31 38 45 04 80 F0  ........fo18E...
0B60: FF FF 7F F0 FF FF 7F 30  62 6C 66 01 80 5C 00 40  .......0blf..\.@
0B70: 80 5C 01 40 80 9A 46 00  45 24 80 F0 FF FF 7F F0  .\.@..F.E$......
0B80: FF FF 7F 66 64 69 32 01  80 21 00                 ...fdi2..!.     
```

#### Opcodes

```
  0: 0x08CB [0x42] SET_CLI_EVENT_CANCEL_DATA()
  1: 0x08CC [0x1A] CALL_SUBROUTINE(address=0x5BB5)
  2: 0x08CF [0x46] CAMERA_CONTROL: Disable user control
  3: 0x08D1 [0x38] SET_CLIENT_EVENT_MODE(mode=19*)
  4: 0x08D4 [0x79] LocalPlayer looks at LocalPlayer (Basic look)
  5: 0x08DE [0x27] REQ_SET(priority=0x10, entity_id=Jazaraat (ID: 17101344/0x0104F220), tag_num=0x04)
  6: 0x08E5 [0x92] Jazaraat (ID: 17101344/0x0104F220)->Render.Flags3 ^= 0x01
  7: 0x08EB [0x94] LocalPlayer->Render.Flags3 ^= 0x01
  8: 0x08F1 [0x94] Jazaraat (ID: 17101344/0x0104F220)->Render.Flags3 ^= 0x01
  9: 0x08F7 [0x29] REQ_SET_WAIT(priority=0x10, entity_id=LocalPlayer, tag_num=0x2E)
 10: 0x08FE [0x29] REQ_SET_WAIT(priority=0x10, entity_id=Jazaraat (ID: 17101344/0x0104F220), tag_num=0x0A)
 11: 0x0905 [0x80] LOAD_WAIT(entity=LocalPlayer)
 12: 0x090A [0x80] LOAD_WAIT(entity=Jazaraat (ID: 17101344/0x0104F220))
 13: 0x090F [0x79] LocalPlayer looks at Jazaraat (ID: 17101344/0x0104F220) (Basic look)
 14: 0x0919 [0x9F] LOAD_SCHEDULED_TASK_ALT: Load scheduler "main" with entities [Jazaraat (ID: 17101344/0x0104F220), Jazaraat (ID: 17101344/0x0104F220)], work=[38*, 0*]
 15: 0x092A [0x1C] WAIT(15* ticks)
 16: 0x092D [0x5C] MUSIC_CONTROL: Set Idle (Day) music to song 157*
 17: 0x0931 [0x5C] MUSIC_CONTROL: Set Idle (Night) music to song 157*
 18: 0x0935 [0x9A] WAIT_MUSIC_SERVER()
 19: 0x0936 [0x1C] WAIT(30* ticks)
 20: 0x0939 [0x5B] LOAD_EXT_SCHEDULER: Load scheduler "fstd" with entities [Jazaraat (ID: 17101344/0x0104F220), Jazaraat (ID: 17101344/0x0104F220)], work=853*
 21: 0x0948 [0x45] LOAD_SCHEDULED_TASK: Load scheduler "fo10" with entities [LocalPlayer, LocalPlayer], work=[259*, 0*]
 22: 0x0959 [0x1C] WAIT(15* ticks)
 23: 0x095C [0x1A] CALL_SUBROUTINE(address=0x5B94)
 24: 0x095F [0x7C] Jazaraat (ID: 17101344/0x0104F220)->Render.Flags2 |= 0x00
 25: 0x0965 [0x2B] Jazaraat (ID: 17101344/0x0104F220) [7554*]:
    → "Vile nation... Aht Urhgan..."
 26: 0x096C [0x23] WAIT_FOR_DIALOG_INTERACTION
 27: 0x096D [0x2B] Jazaraat (ID: 17101344/0x0104F220) [7555*]:
    → "Cannot bear... Cannot bear this anger...Aht Urhgan... Uaaaghhh..."
 28: 0x0974 [0x23] WAIT_FOR_DIALOG_INTERACTION
 29: 0x0975 [0x52] END_LOAD_SCHEDULER: End scheduler "fo10" with entities [LocalPlayer, LocalPlayer], work=259*
 30: 0x0984 [0x45] LOAD_SCHEDULED_TASK: Load scheduler "fo11" with entities [LocalPlayer, LocalPlayer], work=[259*, 0*]
 31: 0x0995 [0x2B] Jazaraat (ID: 17101344/0x0104F220) [7556*]:
    → "Uaaaghhh... Cannot forget...forgive..."
 32: 0x099C [0x23] WAIT_FOR_DIALOG_INTERACTION
 33: 0x099D [0x2B] Jazaraat (ID: 17101344/0x0104F220) [7557*]:
    → "Black...Coffin... Ship...of Ephramad..."
 34: 0x09A4 [0x23] WAIT_FOR_DIALOG_INTERACTION
 35: 0x09A5 [0x52] END_LOAD_SCHEDULER: End scheduler "fo11" with entities [LocalPlayer, LocalPlayer], work=259*
 36: 0x09B4 [0x45] LOAD_SCHEDULED_TASK: Load scheduler "fo12" with entities [LocalPlayer, LocalPlayer], work=[259*, 0*]
 37: 0x09C5 [0x2B] Jazaraat (ID: 17101344/0x0104F220) [7558*]:
    → "Sunk...sunk by that...wretched...nation..."
 38: 0x09CC [0x23] WAIT_FOR_DIALOG_INTERACTION
 39: 0x09CD [0x2B] Jazaraat (ID: 17101344/0x0104F220) [7559*]:
    → "The Coffin...drifts... I know not...where...Black...Cof..."
 40: 0x09D4 [0x23] WAIT_FOR_DIALOG_INTERACTION
 41: 0x09D5 [0x52] END_LOAD_SCHEDULER: End scheduler "fo12" with entities [LocalPlayer, LocalPlayer], work=259*
 42: 0x09E4 [0x45] LOAD_SCHEDULED_TASK: Load scheduler "fo13" with entities [LocalPlayer, LocalPlayer], work=[259*, 0*]
 43: 0x09F5 [0x2B] Jazaraat (ID: 17101344/0x0104F220) [7560*]:
    → "Will no one...send my words...? The warriors...of the Black Coffin...must hear..."
 44: 0x09FC [0x23] WAIT_FOR_DIALOG_INTERACTION
 45: 0x09FD [0x2B] Jazaraat (ID: 17101344/0x0104F220) [7561*]:
    → "Hated foe... Vile emperor..."
 46: 0x0A04 [0x23] WAIT_FOR_DIALOG_INTERACTION
 47: 0x0A05 [0x2B] Jazaraat (ID: 17101344/0x0104F220) [7562*]:
    → "Cannot bear... Anger...accursed emperor..."
 48: 0x0A0C [0x23] WAIT_FOR_DIALOG_INTERACTION
 49: 0x0A0D [0x52] END_LOAD_SCHEDULER: End scheduler "fo13" with entities [LocalPlayer, LocalPlayer], work=259*
 50: 0x0A1C [0x45] LOAD_SCHEDULED_TASK: Load scheduler "fo14" with entities [LocalPlayer, LocalPlayer], work=[259*, 0*]
 51: 0x0A2D [0x5B] LOAD_EXT_SCHEDULER: Load scheduler "am00" with entities [Jazaraat (ID: 17101344/0x0104F220), Jazaraat (ID: 17101344/0x0104F220)], work=864*
 52: 0x0A3C [0x2B] Jazaraat (ID: 17101344/0x0104F220) [7563*]:
    → "Uuuuaaaghhh..."
 53: 0x0A43 [0x23] WAIT_FOR_DIALOG_INTERACTION
 54: 0x0A44 [0x2B] Jazaraat (ID: 17101344/0x0104F220) [7564*]:
    → "Will...no one...hear my plea...?"
 55: 0x0A4B [0x23] WAIT_FOR_DIALOG_INTERACTION
 56: 0x0A4C [0x52] END_LOAD_SCHEDULER: End scheduler "fo14" with entities [LocalPlayer, LocalPlayer], work=259*
 57: 0x0A5B [0x45] LOAD_SCHEDULED_TASK: Load scheduler "fo15" with entities [LocalPlayer, LocalPlayer], work=[259*, 0*]
 58: 0x0A6C [0x2B] Jazaraat (ID: 17101344/0x0104F220) [7565*]:
    → "Aaauuuggghhh... This place...I cannot leave..."
 59: 0x0A73 [0x23] WAIT_FOR_DIALOG_INTERACTION
 60: 0x0A74 [0x2B] Jazaraat (ID: 17101344/0x0104F220) [7566*]:
    → "Someone...anyone..."
 61: 0x0A7B [0x23] WAIT_FOR_DIALOG_INTERACTION
 62: 0x0A7C [0x2B] Jazaraat (ID: 17101344/0x0104F220) [7567*]:
    → "Our revenge...on the emperor...begins with the rebirth...of the Black Coffin..."
 63: 0x0A83 [0x23] WAIT_FOR_DIALOG_INTERACTION
 64: 0x0A84 [0x52] END_LOAD_SCHEDULER: End scheduler "fo15" with entities [LocalPlayer, LocalPlayer], work=259*
 65: 0x0A93 [0x45] LOAD_SCHEDULED_TASK: Load scheduler "fo16" with entities [LocalPlayer, LocalPlayer], work=[259*, 0*]
 66: 0x0AA4 [0x1C] WAIT(30* ticks)
 67: 0x0AA7 [0x5B] LOAD_EXT_SCHEDULER: Load scheduler "am01" with entities [Jazaraat (ID: 17101344/0x0104F220), Jazaraat (ID: 17101344/0x0104F220)], work=864*
 68: 0x0AB6 [0x03] Work_Zone[2] = 786*
 69: 0x0ABB [0x2B] Jazaraat (ID: 17101344/0x0104F220) [7568*]:
    → "Will no one...take this $3...to the feet of the prince...?"
 70: 0x0AC2 [0x23] WAIT_FOR_DIALOG_INTERACTION
 71: 0x0AC3 [0x2B] Jazaraat (ID: 17101344/0x0104F220) [7569*]:
    → "Someone...to the prince's side... End...the reign of the Empire..."
 72: 0x0ACA [0x23] WAIT_FOR_DIALOG_INTERACTION
 73: 0x0ACB [0x52] END_LOAD_SCHEDULER: End scheduler "fo16" with entities [LocalPlayer, LocalPlayer], work=259*
 74: 0x0ADA [0x45] LOAD_SCHEDULED_TASK: Load scheduler "fo17" with entities [LocalPlayer, LocalPlayer], work=[259*, 0*]
 75: 0x0AEB [0x5D] SET_MUSIC_VOLUME(volume=0*, fade_time=120*)
 76: 0x0AF0 [0x27] REQ_SET(priority=0x10, entity_id=Unnamed NPC (ID: 17101339/0x0104F21B), tag_num=0x05)
 77: 0x0AF7 [0x9F] LOAD_SCHEDULED_TASK_ALT: Load scheduler "stop" with entities [Jazaraat (ID: 17101344/0x0104F220), Jazaraat (ID: 17101344/0x0104F220)], work=[38*, 0*]
 78: 0x0B08 [0x2B] Jazaraat (ID: 17101344/0x0104F220) [7570*]:
    → "Uuuuaaaghhh... Luzaf...where are you...?"
 79: 0x0B0F [0x23] WAIT_FOR_DIALOG_INTERACTION
 80: 0x0B10 [0x1C] WAIT(60* ticks)
 81: 0x0B13 [0x52] END_LOAD_SCHEDULER: End scheduler "fo17" with entities [LocalPlayer, LocalPlayer], work=259*
 82: 0x0B22 [0x45] LOAD_SCHEDULED_TASK: Load scheduler "fo18" with entities [LocalPlayer, LocalPlayer], work=[259*, 0*]
 83: 0x0B33 [0x62] LOAD_EVENT_SCHEDULER: Load scheduler "main" with entities [Jazaraat's Headstone (ID: 17101343/0x0104F21F), Jazaraat's Headstone (ID: 17101343/0x0104F21F)], work=[3*, 0*]
 84: 0x0B44 [0x1C] WAIT(30* ticks)
 85: 0x0B47 [0x1A] CALL_SUBROUTINE(address=0x5BB5)
 86: 0x0B4A [0x1C] WAIT(30* ticks)
 87: 0x0B4D [0x52] END_LOAD_SCHEDULER: End scheduler "fo18" with entities [LocalPlayer, LocalPlayer], work=259*
 88: 0x0B5C [0x45] LOAD_SCHEDULED_TASK: Load scheduler "0blf" with entities [LocalPlayer, LocalPlayer], work=[259*, 0*]
 89: 0x0B6D [0x5C] MUSIC_CONTROL: Set Idle (Day) music to song 173*
 90: 0x0B71 [0x5C] MUSIC_CONTROL: Set Idle (Night) music to song 173*
 91: 0x0B75 [0x9A] WAIT_MUSIC_SERVER()
 92: 0x0B76 [0x46] CAMERA_CONTROL: Restore default settings
 93: 0x0B78 [0x45] LOAD_SCHEDULED_TASK: Load scheduler "fdi2" with entities [LocalPlayer, LocalPlayer], work=[200*, 0*]
 94: 0x0B89 [0x21] END_EVENT
 95: 0x0B8A [0x00] END_REQSTACK()
```

### Event 10

#### Metadata

| Field        | Value     |
|--------------|-----------|
| Entrypoint   | 0x0B8B    |
| Data Size    | 552 bytes |
| Instructions | 72        |

```
      00 01 02 03 04 05 06 07  08 09 0A 0B 0C 0D 0E 0F
      -- -- -- -- -- -- -- --  -- -- -- -- -- -- -- --
0B80:                                   42 1A B5 5B 46             B..[F
0B90: 01 38 00 80 79 00 F0 FF  FF 7F F0 FF FF 7F 92 01  .8..y...........
0BA0: 33 F2 04 01 94 01 F0 FF  FF 7F 94 01 33 F2 04 01  3...........3...
0BB0: 29 10 F0 FF FF 7F 2B 80  F0 FF FF 7F 80 33 F2 04  ).....+......3..
0BC0: 01 1C 02 80 4A 33 F2 04  01 F0 FF FF 7F 4A F0 FF  ....J3.......J..
0BD0: FF 7F 33 F2 04 01 1C 03  80 45 57 80 F0 FF FF 7F  ..3......EW.....
0BE0: F0 FF FF 7F 61 61 30 30  01 80 1A 94 5B 1C 03 80  ....aa00....[...
0BF0: 2B 33 F2 04 01 58 80 23  52 57 80 F0 FF FF 7F F0  +3...X.#RW......
0C00: FF FF 7F 61 61 30 30 45  57 80 F0 FF FF 7F F0 FF  ...aa00EW.......
0C10: FF 7F 61 61 30 31 01 80  6E 33 F2 04 01 59 80 99  ..aa01..n3...Y..
0C20: 33 F2 04 01 99 33 F2 04  01 2B 33 F2 04 01 5A 80  3....3...+3...Z.
0C30: 23 66 06 80 33 F2 04 01  33 F2 04 01 74 77 61 30  #f..3...3...twa0
0C40: 2B 33 F2 04 01 5B 80 23  52 57 80 F0 FF FF 7F F0  +3...[.#RW......
0C50: FF FF 7F 61 61 30 31 45  57 80 F0 FF FF 7F F0 FF  ...aa01EW.......
0C60: FF 7F 61 61 30 32 01 80  2B 33 F2 04 01 5C 80 23  ..aa02..+3...\.#
0C70: 66 06 80 33 F2 04 01 33  F2 04 01 74 77 61 31 52  f..3...3...twa1R
0C80: 57 80 F0 FF FF 7F F0 FF  FF 7F 61 61 30 32 45 57  W.........aa02EW
0C90: 80 F0 FF FF 7F F0 FF FF  7F 61 61 30 33 01 80 2B  .........aa03..+
0CA0: 33 F2 04 01 5D 80 23 53  33 F2 04 01 33 F2 04 01  3...].#S3...3...
0CB0: 74 77 61 31 52 57 80 F0  FF FF 7F F0 FF FF 7F 61  twa1RW.........a
0CC0: 61 30 33 45 57 80 F0 FF  FF 7F F0 FF FF 7F 61 61  a03EW.........aa
0CD0: 30 34 01 80 6E 33 F2 04  01 01 80 99 33 F2 04 01  04..n3......3...
0CE0: 99 33 F2 04 01 2B 33 F2  04 01 5E 80 23 2B 33 F2  .3...+3...^.#+3.
0CF0: 04 01 5F 80 1C 03 80 73  60 80 33 F2 04 01 F0 FF  .._....s`.3.....
0D00: FF 7F 1C 10 80 52 57 80  F0 FF FF 7F F0 FF FF 7F  .....RW.........
0D10: 61 61 30 34 45 57 80 F0  FF FF 7F F0 FF FF 7F 61  aa04EW.........a
0D20: 61 30 35 01 80 1C 61 80  29 10 F0 FF FF 7F 3F 55  a05...a.).....?U
0D30: 57 80 F0 FF FF 7F F0 FF  FF 7F 61 61 30 35 45 57  W.........aa05EW
0D40: 80 F0 FF FF 7F F0 FF FF  7F 61 61 30 37 01 80 55  .........aa07..U
0D50: 57 80 F0 FF FF 7F F0 FF  FF 7F 61 61 30 37 2B 33  W.........aa07+3
0D60: F2 04 01 62 80 23 45 57  80 F0 FF FF 7F F0 FF FF  ...b.#EW........
0D70: 7F 61 61 30 38 01 80 29  10 33 F2 04 01 08 1C 10  .aa08..).3......
0D80: 80 2B 33 F2 04 01 63 80  23 1A B5 5B 1C 03 80 52  .+3...c.#..[...R
0D90: 57 80 F0 FF FF 7F F0 FF  FF 7F 61 61 30 38 46 00  W.........aa08F.
0DA0: 45 24 80 F0 FF FF 7F F0  FF FF 7F 66 64 69 32 01  E$.........fdi2.
0DB0: 80 21 00                                          .!.             
```

#### Opcodes

```
  0: 0x0B8B [0x42] SET_CLI_EVENT_CANCEL_DATA()
  1: 0x0B8C [0x1A] CALL_SUBROUTINE(address=0x5BB5)
  2: 0x0B8F [0x46] CAMERA_CONTROL: Disable user control
  3: 0x0B91 [0x38] SET_CLIENT_EVENT_MODE(mode=19*)
  4: 0x0B94 [0x79] LocalPlayer looks at LocalPlayer (Basic look)
  5: 0x0B9E [0x92] Nahshib (ID: 17101363/0x0104F233)->Render.Flags3 ^= 0x01
  6: 0x0BA4 [0x94] LocalPlayer->Render.Flags3 ^= 0x01
  7: 0x0BAA [0x94] Nahshib (ID: 17101363/0x0104F233)->Render.Flags3 ^= 0x01
  8: 0x0BB0 [0x29] REQ_SET_WAIT(priority=0x10, entity_id=LocalPlayer, tag_num=0x2B)
  9: 0x0BB7 [0x80] LOAD_WAIT(entity=LocalPlayer)
 10: 0x0BBC [0x80] LOAD_WAIT(entity=Nahshib (ID: 17101363/0x0104F233))
 11: 0x0BC1 [0x1C] WAIT(15* ticks)
 12: 0x0BC4 [0x4A] Nahshib (ID: 17101363/0x0104F233) looks at LocalPlayer
 13: 0x0BCD [0x4A] LocalPlayer looks at Nahshib (ID: 17101363/0x0104F233)
 14: 0x0BD6 [0x1C] WAIT(30* ticks)
 15: 0x0BD9 [0x45] LOAD_SCHEDULED_TASK: Load scheduler "aa00" with entities [LocalPlayer, LocalPlayer], work=[273*, 0*]
 16: 0x0BEA [0x1A] CALL_SUBROUTINE(address=0x5B94)
 17: 0x0BED [0x1C] WAIT(30* ticks)
 18: 0x0BF0 [0x2B] Nahshib (ID: 17101363/0x0104F233) [7584*]:
    → "You bear the mark..."
 19: 0x0BF7 [0x23] WAIT_FOR_DIALOG_INTERACTION
 20: 0x0BF8 [0x52] END_LOAD_SCHEDULER: End scheduler "aa00" with entities [LocalPlayer, LocalPlayer], work=273*
 21: 0x0C07 [0x45] LOAD_SCHEDULED_TASK: Load scheduler "aa01" with entities [LocalPlayer, LocalPlayer], work=[273*, 0*]
 22: 0x0C18 [0x6E] Nahshib (ID: 17101363/0x0104F233) uses emote 4*
 23: 0x0C1F [0x99] Wait for Nahshib (ID: 17101363/0x0104F233) animation to complete
 24: 0x0C24 [0x99] Wait for Nahshib (ID: 17101363/0x0104F233) animation to complete
 25: 0x0C29 [0x2B] Nahshib (ID: 17101363/0x0104F233) [7585*]:
    → "Heh...ahahahahaha!"
 26: 0x0C30 [0x23] WAIT_FOR_DIALOG_INTERACTION
 27: 0x0C31 [0x66] LOAD_EXT_SCHEDULER_MAIN: Load scheduler "twa0" with entities [Nahshib (ID: 17101363/0x0104F233), Nahshib (ID: 17101363/0x0104F233)], work=9*
 28: 0x0C40 [0x2B] Nahshib (ID: 17101363/0x0104F233) [7586*]:
    → "So they send the striplings to me now? Do you wish to shed your mortal shell? Was there nothing that bound you to that life?"
 29: 0x0C47 [0x23] WAIT_FOR_DIALOG_INTERACTION
 30: 0x0C48 [0x52] END_LOAD_SCHEDULER: End scheduler "aa01" with entities [LocalPlayer, LocalPlayer], work=273*
 31: 0x0C57 [0x45] LOAD_SCHEDULED_TASK: Load scheduler "aa02" with entities [LocalPlayer, LocalPlayer], work=[273*, 0*]
 32: 0x0C68 [0x2B] Nahshib (ID: 17101363/0x0104F233) [7587*]:
    → "How will the search for power transform you? What will you aspire to once your fall is complete?"
 33: 0x0C6F [0x23] WAIT_FOR_DIALOG_INTERACTION
 34: 0x0C70 [0x66] LOAD_EXT_SCHEDULER_MAIN: Load scheduler "twa1" with entities [Nahshib (ID: 17101363/0x0104F233), Nahshib (ID: 17101363/0x0104F233)], work=9*
 35: 0x0C7F [0x52] END_LOAD_SCHEDULER: End scheduler "aa02" with entities [LocalPlayer, LocalPlayer], work=273*
 36: 0x0C8E [0x45] LOAD_SCHEDULED_TASK: Load scheduler "aa03" with entities [LocalPlayer, LocalPlayer], work=[273*, 0*]
 37: 0x0C9F [0x2B] Nahshib (ID: 17101363/0x0104F233) [7588*]:
    → "Me? I...but no. That is for me to pursue."
 38: 0x0CA6 [0x23] WAIT_FOR_DIALOG_INTERACTION
 39: 0x0CA7 [0x53] WAIT_SCHEDULER_TASK: Wait for scheduler "twa1" with entities [Nahshib (ID: 17101363/0x0104F233), Nahshib (ID: 17101363/0x0104F233)]
 40: 0x0CB4 [0x52] END_LOAD_SCHEDULER: End scheduler "aa03" with entities [LocalPlayer, LocalPlayer], work=273*
 41: 0x0CC3 [0x45] LOAD_SCHEDULED_TASK: Load scheduler "aa04" with entities [LocalPlayer, LocalPlayer], work=[273*, 0*]
 42: 0x0CD4 [0x6E] Nahshib (ID: 17101363/0x0104F233) uses emote 0*
 43: 0x0CDB [0x99] Wait for Nahshib (ID: 17101363/0x0104F233) animation to complete
 44: 0x0CE0 [0x99] Wait for Nahshib (ID: 17101363/0x0104F233) animation to complete
 45: 0x0CE5 [0x2B] Nahshib (ID: 17101363/0x0104F233) [7589*]:
    → "Are you ready? I will give you the chance..."
 46: 0x0CEC [0x23] WAIT_FOR_DIALOG_INTERACTION
 47: 0x0CED [0x2B] Nahshib (ID: 17101363/0x0104F233) [7590*]:
    → "Your last chance to perish as a mortal!"
 48: 0x0CF4 [0x1C] WAIT(30* ticks)
 49: 0x0CF7 [0x73] Nahshib (ID: 17101363/0x0104F233) casts magic 695* on LocalPlayer
 50: 0x0D02 [0x1C] WAIT(45* ticks)
 51: 0x0D05 [0x52] END_LOAD_SCHEDULER: End scheduler "aa04" with entities [LocalPlayer, LocalPlayer], work=273*
 52: 0x0D14 [0x45] LOAD_SCHEDULED_TASK: Load scheduler "aa05" with entities [LocalPlayer, LocalPlayer], work=[273*, 0*]
 53: 0x0D25 [0x1C] WAIT(180* ticks)
 54: 0x0D28 [0x29] REQ_SET_WAIT(priority=0x10, entity_id=LocalPlayer, tag_num=0x3F)
 55: 0x0D2F [0x55] WAIT_LOAD_SCHEDULER: Wait for scheduler "aa05" with entities [LocalPlayer, LocalPlayer], work=273*
 56: 0x0D3E [0x45] LOAD_SCHEDULED_TASK: Load scheduler "aa07" with entities [LocalPlayer, LocalPlayer], work=[273*, 0*]
 57: 0x0D4F [0x55] WAIT_LOAD_SCHEDULER: Wait for scheduler "aa07" with entities [LocalPlayer, LocalPlayer], work=273*
 58: 0x0D5E [0x2B] Nahshib (ID: 17101363/0x0104F233) [7591*]:
    → "You are unscathed. Congratulations. And my condolences for the loss of your mortal existence."
 59: 0x0D65 [0x23] WAIT_FOR_DIALOG_INTERACTION
 60: 0x0D66 [0x45] LOAD_SCHEDULED_TASK: Load scheduler "aa08" with entities [LocalPlayer, LocalPlayer], work=[273*, 0*]
 61: 0x0D77 [0x29] REQ_SET_WAIT(priority=0x10, entity_id=Nahshib (ID: 17101363/0x0104F233), tag_num=0x08)
 62: 0x0D7E [0x1C] WAIT(45* ticks)
 63: 0x0D81 [0x2B] Nahshib (ID: 17101363/0x0104F233) [7592*]:
    → "But this is not the end of your path. Tread carefully, <Player>."
 64: 0x0D88 [0x23] WAIT_FOR_DIALOG_INTERACTION
 65: 0x0D89 [0x1A] CALL_SUBROUTINE(address=0x5BB5)
 66: 0x0D8C [0x1C] WAIT(30* ticks)
 67: 0x0D8F [0x52] END_LOAD_SCHEDULER: End scheduler "aa08" with entities [LocalPlayer, LocalPlayer], work=273*
 68: 0x0D9E [0x46] CAMERA_CONTROL: Restore default settings
 69: 0x0DA0 [0x45] LOAD_SCHEDULED_TASK: Load scheduler "fdi2" with entities [LocalPlayer, LocalPlayer], work=[200*, 0*]
 70: 0x0DB1 [0x21] END_EVENT
 71: 0x0DB2 [0x00] END_REQSTACK()
```

### Event 12

#### Metadata

| Field        | Value     |
|--------------|-----------|
| Entrypoint   | 0x0DB3    |
| Data Size    | 591 bytes |
| Instructions | 77        |

```
      00 01 02 03 04 05 06 07  08 09 0A 0B 0C 0D 0E 0F
      -- -- -- -- -- -- -- --  -- -- -- -- -- -- -- --
0DB0:          42 1A B5 5B 46  01 38 00 80 79 00 F0 FF     B..[F.8..y...
0DC0: FF 7F F0 FF FF 7F 92 01  34 F2 04 01 94 01 F0 FF  ........4.......
0DD0: FF 7F 94 01 34 F2 04 01  29 10 F0 FF FF 7F 2C 80  ....4...).....,.
0DE0: F0 FF FF 7F 80 34 F2 04  01 1C 02 80 4A 34 F2 04  .....4......J4..
0DF0: 01 F0 FF FF 7F 4A F0 FF  FF 7F 34 F2 04 01 1C 03  .....J....4.....
0E00: 80 45 57 80 F0 FF FF 7F  F0 FF FF 7F 61 62 30 30  .EW.........ab00
0E10: 01 80 1A 94 5B 6E 34 F2  04 01 17 80 99 34 F2 04  ....[n4......4..
0E20: 01 99 34 F2 04 01 2B 34  F2 04 01 64 80 23 52 57  ..4...+4...d.#RW
0E30: 80 F0 FF FF 7F F0 FF FF  7F 61 62 30 30 45 57 80  .........ab00EW.
0E40: F0 FF FF 7F F0 FF FF 7F  61 62 30 31 01 80 2B 34  ........ab01..+4
0E50: F2 04 01 65 80 23 6E 34  F2 04 01 66 80 99 34 F2  ...e.#n4...f..4.
0E60: 04 01 99 34 F2 04 01 2B  34 F2 04 01 67 80 23 52  ...4...+4...g.#R
0E70: 57 80 F0 FF FF 7F F0 FF  FF 7F 61 62 30 31 45 57  W.........ab01EW
0E80: 80 F0 FF FF 7F F0 FF FF  7F 61 62 30 32 01 80 66  .........ab02..f
0E90: 00 80 34 F2 04 01 34 F2  04 01 74 68 6B 31 2B 34  ..4...4...thk1+4
0EA0: F2 04 01 68 80 23 52 57  80 F0 FF FF 7F F0 FF FF  ...h.#RW........
0EB0: 7F 61 62 30 32 45 57 80  F0 FF FF 7F F0 FF FF 7F  .ab02EW.........
0EC0: 61 62 30 33 01 80 2B 34  F2 04 01 69 80 23 66 00  ab03..+4...i.#f.
0ED0: 80 34 F2 04 01 34 F2 04  01 74 68 6B 32 53 34 F2  .4...4...thk2S4.
0EE0: 04 01 34 F2 04 01 74 68  6B 32 52 57 80 F0 FF FF  ..4...thk2RW....
0EF0: 7F F0 FF FF 7F 61 62 30  33 45 57 80 F0 FF FF 7F  .....ab03EW.....
0F00: F0 FF FF 7F 61 62 30 34  01 80 6E 34 F2 04 01 6A  ....ab04..n4...j
0F10: 80 99 34 F2 04 01 99 34  F2 04 01 2B 34 F2 04 01  ..4....4...+4...
0F20: 6B 80 23 1C 16 80 2B 34  F2 04 01 6C 80 1C 03 80  k.#...+4...l....
0F30: 52 57 80 F0 FF FF 7F F0  FF FF 7F 61 62 30 34 45  RW.........ab04E
0F40: 57 80 F0 FF FF 7F F0 FF  FF 7F 61 62 30 35 01 80  W.........ab05..
0F50: 73 6D 80 34 F2 04 01 F0  FF FF 7F 1C 6E 80 29 10  sm.4........n.).
0F60: F0 FF FF 7F 3F 55 57 80  F0 FF FF 7F F0 FF FF 7F  ....?UW.........
0F70: 61 62 30 35 45 57 80 F0  FF FF 7F F0 FF FF 7F 61  ab05EW.........a
0F80: 62 30 37 01 80 55 57 80  F0 FF FF 7F F0 FF FF 7F  b07..UW.........
0F90: 61 62 30 37 6E 34 F2 04  01 13 80 99 34 F2 04 01  ab07n4......4...
0FA0: 99 34 F2 04 01 2B 34 F2  04 01 6F 80 23 1C 16 80  .4...+4...o.#...
0FB0: 45 57 80 F0 FF FF 7F F0  FF FF 7F 61 62 30 38 01  EW.........ab08.
0FC0: 80 66 00 80 34 F2 04 01  34 F2 04 01 74 6C 6B 30  .f..4...4...tlk0
0FD0: 2B 34 F2 04 01 70 80 23  1A B5 5B 1C 03 80 52 57  +4...p.#..[...RW
0FE0: 80 F0 FF FF 7F F0 FF FF  7F 61 62 30 38 46 00 45  .........ab08F.E
0FF0: 24 80 F0 FF FF 7F F0 FF  FF 7F 66 64 69 32 01 80  $.........fdi2..
1000: 21 00                                             !.              
```

#### Opcodes

```
  0: 0x0DB3 [0x42] SET_CLI_EVENT_CANCEL_DATA()
  1: 0x0DB4 [0x1A] CALL_SUBROUTINE(address=0x5BB5)
  2: 0x0DB7 [0x46] CAMERA_CONTROL: Disable user control
  3: 0x0DB9 [0x38] SET_CLIENT_EVENT_MODE(mode=19*)
  4: 0x0DBC [0x79] LocalPlayer looks at LocalPlayer (Basic look)
  5: 0x0DC6 [0x92] Nareema (ID: 17101364/0x0104F234)->Render.Flags3 ^= 0x01
  6: 0x0DCC [0x94] LocalPlayer->Render.Flags3 ^= 0x01
  7: 0x0DD2 [0x94] Nareema (ID: 17101364/0x0104F234)->Render.Flags3 ^= 0x01
  8: 0x0DD8 [0x29] REQ_SET_WAIT(priority=0x10, entity_id=LocalPlayer, tag_num=0x2C)
  9: 0x0DDF [0x80] LOAD_WAIT(entity=LocalPlayer)
 10: 0x0DE4 [0x80] LOAD_WAIT(entity=Nareema (ID: 17101364/0x0104F234))
 11: 0x0DE9 [0x1C] WAIT(15* ticks)
 12: 0x0DEC [0x4A] Nareema (ID: 17101364/0x0104F234) looks at LocalPlayer
 13: 0x0DF5 [0x4A] LocalPlayer looks at Nareema (ID: 17101364/0x0104F234)
 14: 0x0DFE [0x1C] WAIT(30* ticks)
 15: 0x0E01 [0x45] LOAD_SCHEDULED_TASK: Load scheduler "ab00" with entities [LocalPlayer, LocalPlayer], work=[273*, 0*]
 16: 0x0E12 [0x1A] CALL_SUBROUTINE(address=0x5B94)
 17: 0x0E15 [0x6E] Nareema (ID: 17101364/0x0104F234) uses emote 6*
 18: 0x0E1C [0x99] Wait for Nareema (ID: 17101364/0x0104F234) animation to complete
 19: 0x0E21 [0x99] Wait for Nareema (ID: 17101364/0x0104F234) animation to complete
 20: 0x0E26 [0x2B] Nareema (ID: 17101364/0x0104F234) [7571*]:
    → "Blue...? You are blue...?"
 21: 0x0E2D [0x23] WAIT_FOR_DIALOG_INTERACTION
 22: 0x0E2E [0x52] END_LOAD_SCHEDULER: End scheduler "ab00" with entities [LocalPlayer, LocalPlayer], work=273*
 23: 0x0E3D [0x45] LOAD_SCHEDULED_TASK: Load scheduler "ab01" with entities [LocalPlayer, LocalPlayer], work=[273*, 0*]
 24: 0x0E4E [0x2B] Nareema (ID: 17101364/0x0104F234) [7572*]:
    → "No...you didn't... The Immortals...request..."
 25: 0x0E55 [0x23] WAIT_FOR_DIALOG_INTERACTION
 26: 0x0E56 [0x6E] Nareema (ID: 17101364/0x0104F234) uses emote 5*
 27: 0x0E5D [0x99] Wait for Nareema (ID: 17101364/0x0104F234) animation to complete
 28: 0x0E62 [0x99] Wait for Nareema (ID: 17101364/0x0104F234) animation to complete
 29: 0x0E67 [0x2B] Nareema (ID: 17101364/0x0104F234) [7573*]:
    → "We are the same now, you and I. The sadness...the despair...the triumph..."
 30: 0x0E6E [0x23] WAIT_FOR_DIALOG_INTERACTION
 31: 0x0E6F [0x52] END_LOAD_SCHEDULER: End scheduler "ab01" with entities [LocalPlayer, LocalPlayer], work=273*
 32: 0x0E7E [0x45] LOAD_SCHEDULED_TASK: Load scheduler "ab02" with entities [LocalPlayer, LocalPlayer], work=[273*, 0*]
 33: 0x0E8F [0x66] LOAD_EXT_SCHEDULER_MAIN: Load scheduler "thk1" with entities [Nareema (ID: 17101364/0x0104F234), Nareema (ID: 17101364/0x0104F234)], work=19*
 34: 0x0E9E [0x2B] Nareema (ID: 17101364/0x0104F234) [7574*]:
    → "No... I mustn't...mustn't..."
 35: 0x0EA5 [0x23] WAIT_FOR_DIALOG_INTERACTION
 36: 0x0EA6 [0x52] END_LOAD_SCHEDULER: End scheduler "ab02" with entities [LocalPlayer, LocalPlayer], work=273*
 37: 0x0EB5 [0x45] LOAD_SCHEDULED_TASK: Load scheduler "ab03" with entities [LocalPlayer, LocalPlayer], work=[273*, 0*]
 38: 0x0EC6 [0x2B] Nareema (ID: 17101364/0x0104F234) [7575*]:
    → "I am a vessel... Blue and despoiled..."
 39: 0x0ECD [0x23] WAIT_FOR_DIALOG_INTERACTION
 40: 0x0ECE [0x66] LOAD_EXT_SCHEDULER_MAIN: Load scheduler "thk2" with entities [Nareema (ID: 17101364/0x0104F234), Nareema (ID: 17101364/0x0104F234)], work=19*
 41: 0x0EDD [0x53] WAIT_SCHEDULER_TASK: Wait for scheduler "thk2" with entities [Nareema (ID: 17101364/0x0104F234), Nareema (ID: 17101364/0x0104F234)]
 42: 0x0EEA [0x52] END_LOAD_SCHEDULER: End scheduler "ab03" with entities [LocalPlayer, LocalPlayer], work=273*
 43: 0x0EF9 [0x45] LOAD_SCHEDULED_TASK: Load scheduler "ab04" with entities [LocalPlayer, LocalPlayer], work=[273*, 0*]
 44: 0x0F0A [0x6E] Nareema (ID: 17101364/0x0104F234) uses emote 11*
 45: 0x0F11 [0x99] Wait for Nareema (ID: 17101364/0x0104F234) animation to complete
 46: 0x0F16 [0x99] Wait for Nareema (ID: 17101364/0x0104F234) animation to complete
 47: 0x0F1B [0x2B] Nareema (ID: 17101364/0x0104F234) [7576*]:
    → "I must perform my duty... It is your fate... But perhaps...?"
 48: 0x0F22 [0x23] WAIT_FOR_DIALOG_INTERACTION
 49: 0x0F23 [0x1C] WAIT(60* ticks)
 50: 0x0F26 [0x2B] Nareema (ID: 17101364/0x0104F234) [7577*]:
    → "Farewell..."
 51: 0x0F2D [0x1C] WAIT(30* ticks)
 52: 0x0F30 [0x52] END_LOAD_SCHEDULER: End scheduler "ab04" with entities [LocalPlayer, LocalPlayer], work=273*
 53: 0x0F3F [0x45] LOAD_SCHEDULED_TASK: Load scheduler "ab05" with entities [LocalPlayer, LocalPlayer], work=[273*, 0*]
 54: 0x0F50 [0x73] Nareema (ID: 17101364/0x0104F234) casts magic 694* on LocalPlayer
 55: 0x0F5B [0x1C] WAIT(210* ticks)
 56: 0x0F5E [0x29] REQ_SET_WAIT(priority=0x10, entity_id=LocalPlayer, tag_num=0x3F)
 57: 0x0F65 [0x55] WAIT_LOAD_SCHEDULER: Wait for scheduler "ab05" with entities [LocalPlayer, LocalPlayer], work=273*
 58: 0x0F74 [0x45] LOAD_SCHEDULED_TASK: Load scheduler "ab07" with entities [LocalPlayer, LocalPlayer], work=[273*, 0*]
 59: 0x0F85 [0x55] WAIT_LOAD_SCHEDULER: Wait for scheduler "ab07" with entities [LocalPlayer, LocalPlayer], work=273*
 60: 0x0F94 [0x6E] Nareema (ID: 17101364/0x0104F234) uses emote 22*
 61: 0x0F9B [0x99] Wait for Nareema (ID: 17101364/0x0104F234) animation to complete
 62: 0x0FA0 [0x99] Wait for Nareema (ID: 17101364/0x0104F234) animation to complete
 63: 0x0FA5 [0x2B] Nareema (ID: 17101364/0x0104F234) [7578*]:
    → "You survived. That is good...and that is bad. You have embraced the life of the beast..."
 64: 0x0FAC [0x23] WAIT_FOR_DIALOG_INTERACTION
 65: 0x0FAD [0x1C] WAIT(60* ticks)
 66: 0x0FB0 [0x45] LOAD_SCHEDULED_TASK: Load scheduler "ab08" with entities [LocalPlayer, LocalPlayer], work=[273*, 0*]
 67: 0x0FC1 [0x66] LOAD_EXT_SCHEDULER_MAIN: Load scheduler "tlk0" with entities [Nareema (ID: 17101364/0x0104F234), Nareema (ID: 17101364/0x0104F234)], work=19*
 68: 0x0FD0 [0x2B] Nareema (ID: 17101364/0x0104F234) [7579*]:
    → "You must struggle forward, as I have... So, go... Leave me..."
 69: 0x0FD7 [0x23] WAIT_FOR_DIALOG_INTERACTION
 70: 0x0FD8 [0x1A] CALL_SUBROUTINE(address=0x5BB5)
 71: 0x0FDB [0x1C] WAIT(30* ticks)
 72: 0x0FDE [0x52] END_LOAD_SCHEDULER: End scheduler "ab08" with entities [LocalPlayer, LocalPlayer], work=273*
 73: 0x0FED [0x46] CAMERA_CONTROL: Restore default settings
 74: 0x0FEF [0x45] LOAD_SCHEDULED_TASK: Load scheduler "fdi2" with entities [LocalPlayer, LocalPlayer], work=[200*, 0*]
 75: 0x1000 [0x21] END_EVENT
 76: 0x1001 [0x00] END_REQSTACK()
```

### Event 20

#### Metadata

| Field        | Value      |
|--------------|------------|
| Entrypoint   | 0x1002     |
| Data Size    | 2395 bytes |
| Instructions | 313        |

```
      00 01 02 03 04 05 06 07  08 09 0A 0B 0C 0D 0E 0F
      -- -- -- -- -- -- -- --  -- -- -- -- -- -- -- --
1000:       42 45 24 80 F8 FF  FF 7F F8 FF FF 7F 66 64    BE$.........fd
1010: 6F 31 01 80 55 24 80 F8  FF FF 7F F8 FF FF 7F 66  o1..U$.........f
1020: 64 6F 31 46 01 38 00 80  4E 00 44 F2 04 01 4E 00  do1F.8..N.D...N.
1030: 45 F2 04 01 2F 00 44 F2  04 01 2F 00 45 F2 04 01  E.../.D.../.E...
1040: 92 01 44 F2 04 01 92 01  45 F2 04 01 94 01 F0 FF  ..D.....E.......
1050: FF 7F 94 01 44 F2 04 01  80 F0 FF FF 7F 80 44 F2  ....D.........D.
1060: 04 01 80 45 F2 04 01 BA  44 F2 04 01 71 80 72 80  ...E....D...q.r.
1070: 73 80 74 80 BA F0 FF FF  7F 75 80 76 80 73 80 77  s.t......u.v.s.w
1080: 80 77 66 80 01 80 5C 00  01 80 5C 01 01 80 9A 1C  .wf...\...\.....
1090: 03 80 45 78 80 F0 FF FF  7F F0 FF FF 7F 7A 30 30  ..Ex.........z00
10A0: 30 01 80 45 24 80 F8 FF  FF 7F F8 FF FF 7F 66 64  0..E$.........fd
10B0: 69 31 01 80 1C 10 80 2B  44 F2 04 01 79 80 23 29  i1.....+D...y.#)
10C0: 10 44 F2 04 01 02 1C 03  80 52 78 80 F0 FF FF 7F  .D.......Rx.....
10D0: F0 FF FF 7F 7A 30 30 30  45 78 80 F0 FF FF 7F F0  ....z000Ex......
10E0: FF FF 7F 7A 30 30 31 01  80 1C 03 80 27 10 44 F2  ...z001.....'.D.
10F0: 04 01 03 1C 16 80 2B 44  F2 04 01 7A 80 23 1C 10  ......+D...z.#..
1100: 80 2B 44 F2 04 01 7B 80  23 1C 10 80 52 78 80 F0  .+D...{.#...Rx..
1110: FF FF 7F F0 FF FF 7F 7A  30 30 31 BA F0 FF FF 7F  .......z001.....
1120: 7C 80 7D 80 73 80 7E 80  45 78 80 F0 FF FF 7F F0  |.}.s.~.Ex......
1130: FF FF 7F 7A 30 30 32 01  80 1C 16 80 2B 44 F2 04  ...z002.....+D..
1140: 01 7F 80 23 1C 10 80 52  78 80 F0 FF FF 7F F0 FF  ...#...Rx.......
1150: FF 7F 7A 30 30 32 45 78  80 F0 FF FF 7F F0 FF FF  ..z002Ex........
1160: 7F 7A 30 30 33 01 80 27  10 F0 FF FF 7F 43 1C 10  .z003..'.....C..
1170: 80 5B 80 80 44 F2 04 01  44 F2 04 01 63 72 79 30  .[..D...D...cry0
1180: 2B 44 F2 04 01 81 80 23  1C 82 80 52 78 80 F0 FF  +D.....#...Rx...
1190: FF 7F F0 FF FF 7F 7A 30  30 33 BA 45 F2 04 01 83  ......z003.E....
11A0: 80 84 80 73 80 85 80 4A  45 F2 04 01 44 F2 04 01  ...s...JE...D...
11B0: 45 78 80 F0 FF FF 7F F0  FF FF 7F 7A 30 30 34 01  Ex.........z004.
11C0: 80 1C 16 80 2B 45 F2 04  01 86 80 23 1C 10 80 52  ....+E.....#...R
11D0: 78 80 F0 FF FF 7F F0 FF  FF 7F 7A 30 30 34 45 78  x.........z004Ex
11E0: 80 F0 FF FF 7F F0 FF FF  7F 7A 30 30 35 01 80 1C  .........z005...
11F0: 03 80 4A 44 F2 04 01 45  F2 04 01 1C 16 80 2B 44  ..JD...E......+D
1200: F2 04 01 87 80 23 52 78  80 F0 FF FF 7F F0 FF FF  .....#Rx........
1210: 7F 7A 30 30 35 27 10 45  F2 04 01 02 45 78 80 F0  .z005'.E....Ex..
1220: FF FF 7F F0 FF FF 7F 7A  30 30 36 01 80 1C 10 80  .......z006.....
1230: 2B 45 F2 04 01 88 80 23  1C 10 80 5B 80 80 44 F2  +E.....#...[..D.
1240: 04 01 44 F2 04 01 74 6C  62 30 2B 44 F2 04 01 89  ..D...tlb0+D....
1250: 80 23 5B 80 80 44 F2 04  01 44 F2 04 01 74 6C 62  .#[..D...D...tlb
1260: 31 1C 10 80 2B 45 F2 04  01 8A 80 23 52 78 80 F0  1...+E.....#Rx..
1270: FF FF 7F F0 FF FF 7F 7A  30 30 36 45 78 80 F0 FF  .......z006Ex...
1280: FF 7F F0 FF FF 7F 7A 30  30 37 01 80 1C 03 80 2B  ......z007.....+
1290: 44 F2 04 01 8B 80 23 1C  03 80 66 01 80 45 F2 04  D.....#...f..E..
12A0: 01 45 F2 04 01 74 6C 6B  30 2B 45 F2 04 01 8C 80  .E...tlk0+E.....
12B0: 23 66 01 80 45 F2 04 01  45 F2 04 01 74 65 6E 30  #f..E...E...ten0
12C0: 1C 03 80 52 78 80 F0 FF  FF 7F F0 FF FF 7F 7A 30  ...Rx.........z0
12D0: 30 37 45 78 80 F0 FF FF  7F F0 FF FF 7F 7A 30 30  07Ex.........z00
12E0: 38 01 80 4A 44 F2 04 01  45 F2 04 01 1C 16 80 5B  8..JD...E......[
12F0: 80 80 44 F2 04 01 44 F2  04 01 68 61 70 30 2B 44  ..D...D...hap0+D
1300: F2 04 01 8D 80 23 1C 8E  80 2B 45 F2 04 01 8F 80  .....#...+E.....
1310: 23 1C 16 80 5B 90 80 44  F2 04 01 44 F2 04 01 77  #...[..D...D...w
1320: 68 74 30 2B 44 F2 04 01  91 80 23 1C 10 80 52 78  ht0+D.....#...Rx
1330: 80 F0 FF FF 7F F0 FF FF  7F 7A 30 30 38 45 78 80  .........z008Ex.
1340: F0 FF FF 7F F0 FF FF 7F  7A 30 31 30 01 80 1C 10  ........z010....
1350: 80 2B 45 F2 04 01 92 80  23 1C 03 80 5B 90 80 44  .+E.....#...[..D
1360: F2 04 01 44 F2 04 01 77  68 74 31 2B 44 F2 04 01  ...D...wht1+D...
1370: 93 80 23 52 78 80 F0 FF  FF 7F F0 FF FF 7F 7A 30  ..#Rx.........z0
1380: 31 30 45 78 80 F0 FF FF  7F F0 FF FF 7F 7A 30 30  10Ex.........z00
1390: 39 01 80 1C 10 80 66 01  80 45 F2 04 01 45 F2 04  9.....f..E...E..
13A0: 01 74 68 6B 31 2B 45 F2  04 01 94 80 23 1C 10 80  .thk1+E.....#...
13B0: 2B 45 F2 04 01 95 80 23  5C 00 96 80 5C 01 96 80  +E.....#\...\...
13C0: 9A 1C 10 80 2B 45 F2 04  01 97 80 23 66 01 80 45  ....+E.....#f..E
13D0: F2 04 01 45 F2 04 01 74  68 6B 32 52 78 80 F0 FF  ...E...thk2Rx...
13E0: FF 7F F0 FF FF 7F 7A 30  30 39 45 78 80 F0 FF FF  ......z009Ex....
13F0: 7F F0 FF FF 7F 7A 30 31  31 01 80 2B 44 F2 04 01  .....z011..+D...
1400: 98 80 23 1C 12 80 52 78  80 F0 FF FF 7F F0 FF FF  ..#...Rx........
1410: 7F 7A 30 31 31 45 78 80  F0 FF FF 7F F0 FF FF 7F  .z011Ex.........
1420: 7A 30 31 32 01 80 1C 10  80 66 01 80 45 F2 04 01  z012.....f..E...
1430: 45 F2 04 01 74 6C 6B 31  2B 45 F2 04 01 99 80 23  E...tlk1+E.....#
1440: 1C 10 80 2B 45 F2 04 01  9A 80 23 66 01 80 45 F2  ...+E.....#f..E.
1450: 04 01 45 F2 04 01 74 65  6E 31 1C 10 80 27 10 44  ..E...ten1...'.D
1460: F2 04 01 04 1C 12 80 45  24 80 F8 FF FF 7F F8 FF  .......E$.......
1470: FF 7F 6F 76 6C 32 01 80  52 78 80 F0 FF FF 7F F0  ..ovl2..Rx......
1480: FF FF 7F 7A 30 31 32 45  78 80 F0 FF FF 7F F0 FF  ...z012Ex.......
1490: FF 7F 7A 30 31 33 01 80  1C 16 80 2B 44 F2 04 01  ..z013.....+D...
14A0: 9B 80 23 1C 16 80 2B 45  F2 04 01 9C 80 23 2B 45  ..#...+E.....#+E
14B0: F2 04 01 9D 80 23 1C 03  80 2B 45 F2 04 01 9E 80  .....#...+E.....
14C0: 23 52 78 80 F0 FF FF 7F  F0 FF FF 7F 7A 30 31 33  #Rx.........z013
14D0: 45 78 80 F0 FF FF 7F F0  FF FF 7F 7A 30 31 34 01  Ex.........z014.
14E0: 80 1C 16 80 2B 44 F2 04  01 98 80 23 1C 61 80 45  ....+D.....#.a.E
14F0: 24 80 F8 FF FF 7F F8 FF  FF 7F 66 64 6F 31 01 80  $.........fdo1..
1500: 55 24 80 F8 FF FF 7F F8  FF FF 7F 66 64 6F 31 52  U$.........fdo1R
1510: 78 80 F0 FF FF 7F F0 FF  FF 7F 7A 30 31 34 1C 12  x.........z014..
1520: 80 45 78 80 F0 FF FF 7F  F0 FF FF 7F 7A 30 31 35  .Ex.........z015
1530: 01 80 45 24 80 F8 FF FF  7F F8 FF FF 7F 66 64 69  ..E$.........fdi
1540: 31 01 80 1C 9F 80 2B 44  F2 04 01 A0 80 23 1C 10  1.....+D.....#..
1550: 80 2B 44 F2 04 01 A1 80  23 1C 10 80 2B 44 F2 04  .+D.....#...+D..
1560: 01 A2 80 23 52 78 80 F0  FF FF 7F F0 FF FF 7F 7A  ...#Rx.........z
1570: 30 31 35 45 78 80 F0 FF  FF 7F F0 FF FF 7F 7A 30  015Ex.........z0
1580: 31 36 01 80 1C 10 80 2B  45 F2 04 01 A3 80 23 1C  16.....+E.....#.
1590: 16 80 4A 44 F2 04 01 45  F2 04 01 2B 44 F2 04 01  ..JD...E...+D...
15A0: A4 80 23 1C 10 80 45 24  80 F8 FF FF 7F F8 FF FF  ..#...E$........
15B0: 7F 6F 76 6C 32 01 80 52  78 80 F0 FF FF 7F F0 FF  .ovl2..Rx.......
15C0: FF 7F 7A 30 31 36 45 78  80 F0 FF FF 7F F0 FF FF  ..z016Ex........
15D0: 7F 7A 30 31 37 01 80 1C  03 80 66 01 80 45 F2 04  .z017.....f..E..
15E0: 01 45 F2 04 01 74 6C 6B  30 2B 45 F2 04 01 A5 80  .E...tlk0+E.....
15F0: 23 2B 45 F2 04 01 A6 80  23 66 01 80 45 F2 04 01  #+E.....#f..E...
1600: 45 F2 04 01 74 65 6E 30  1C 03 80 5B A7 80 44 F2  E...ten0...[..D.
1610: 04 01 44 F2 04 01 63 72  79 30 52 78 80 F0 FF FF  ..D...cry0Rx....
1620: 7F F0 FF FF 7F 7A 30 31  37 45 78 80 F0 FF FF 7F  .....z017Ex.....
1630: F0 FF FF 7F 7A 30 31 38  01 80 2B 44 F2 04 01 A8  ....z018..+D....
1640: 80 23 1C 10 80 2B 45 F2  04 01 A9 80 23 52 78 80  .#...+E.....#Rx.
1650: F0 FF FF 7F F0 FF FF 7F  7A 30 31 38 45 78 80 F0  ........z018Ex..
1660: FF FF 7F F0 FF FF 7F 7A  30 31 39 01 80 29 10 45  .......z019..).E
1670: F2 04 01 03 1C 10 80 5B  A7 80 44 F2 04 01 44 F2  .......[..D...D.
1680: 04 01 63 72 79 31 2B 44  F2 04 01 AA 80 23 66 01  ..cry1+D.....#f.
1690: 80 45 F2 04 01 45 F2 04  01 70 61 73 30 1C 82 80  .E...E...pas0...
16A0: 52 78 80 F0 FF FF 7F F0  FF FF 7F 7A 30 31 39 45  Rx.........z019E
16B0: 78 80 F0 FF FF 7F F0 FF  FF 7F 7A 30 32 30 01 80  x.........z020..
16C0: 1C 16 80 2B 44 F2 04 01  AB 80 23 1C 16 80 52 78  ...+D.....#...Rx
16D0: 80 F0 FF FF 7F F0 FF FF  7F 7A 30 32 30 45 78 80  .........z020Ex.
16E0: F0 FF FF 7F F0 FF FF 7F  7A 30 32 31 01 80 1C 03  ........z021....
16F0: 80 2B 45 F2 04 01 AC 80  23 2B 44 F2 04 01 AD 80  .+E.....#+D.....
1700: 23 52 78 80 F0 FF FF 7F  F0 FF FF 7F 7A 30 32 31  #Rx.........z021
1710: 45 78 80 F0 FF FF 7F F0  FF FF 7F 7A 30 32 32 01  Ex.........z022.
1720: 80 1C 03 80 4A 45 F2 04  01 F0 FF FF 7F 66 01 80  ....JE.......f..
1730: 45 F2 04 01 45 F2 04 01  74 6C 6B 30 2B 45 F2 04  E...E...tlk0+E..
1740: 01 AE 80 23 1C 03 80 2B  45 F2 04 01 AF 80 23 66  ...#...+E.....#f
1750: 01 80 45 F2 04 01 45 F2  04 01 74 65 6E 30 52 78  ..E...E...ten0Rx
1760: 80 F0 FF FF 7F F0 FF FF  7F 7A 30 32 32 45 78 80  .........z022Ex.
1770: F0 FF FF 7F F0 FF FF 7F  7A 30 32 33 01 80 1C 03  ........z023....
1780: 80 4A 45 F2 04 01 44 F2  04 01 2B 45 F2 04 01 B0  .JE...D...+E....
1790: 80 23 2B 45 F2 04 01 B1  80 23 1C 03 80 27 10 44  .#+E.....#...'.D
17A0: F2 04 01 04 2B 44 F2 04  01 B2 80 23 1C 16 80 45  ....+D.....#...E
17B0: 24 80 F8 FF FF 7F F8 FF  FF 7F 66 64 6F 31 01 80  $.........fdo1..
17C0: 55 24 80 F8 FF FF 7F F8  FF FF 7F 66 64 6F 31 52  U$.........fdo1R
17D0: 78 80 F0 FF FF 7F F0 FF  FF 7F 7A 30 32 33 BA 44  x.........z023.D
17E0: F2 04 01 B3 80 B4 80 73  80 B5 80 BA 43 F2 04 01  .......s....C...
17F0: B6 80 B7 80 73 80 B8 80  1C 16 80 45 78 80 F0 FF  ....s......Ex...
1800: FF 7F F0 FF FF 7F 7A 30  32 34 01 80 45 24 80 F8  ......z024..E$..
1810: FF FF 7F F8 FF FF 7F 66  64 69 31 01 80 1C 10 80  .......fdi1.....
1820: 5B B9 80 44 F2 04 01 44  F2 04 01 73 68 61 30 1C  [..D...D...sha0.
1830: 82 80 BB BA 80 43 F2 04  01 43 F2 04 01 6D 61 69  .....C...C...mai
1840: 6E 01 80 1C 16 80 1C 82  80 52 78 80 F0 FF FF 7F  n........Rx.....
1850: F0 FF FF 7F 7A 30 32 34  45 78 80 F0 FF FF 7F F0  ....z024Ex......
1860: FF FF 7F 7A 30 32 35 01  80 1C 10 80 5B B9 80 44  ...z025.....[..D
1870: F2 04 01 44 F2 04 01 73  68 61 31 1C 10 80 2B 44  ...D...sha1...+D
1880: F2 04 01 BB 80 23 1C 10  80 2B 44 F2 04 01 BC 80  .....#...+D.....
1890: 23 1C 16 80 45 24 80 F8  FF FF 7F F8 FF FF 7F 6F  #...E$.........o
18A0: 76 6C 32 01 80 52 78 80  F0 FF FF 7F F0 FF FF 7F  vl2..Rx.........
18B0: 7A 30 32 35 45 78 80 F0  FF FF 7F F0 FF FF 7F 7A  z025Ex.........z
18C0: 30 32 36 01 80 1C 16 80  2B 44 F2 04 01 BD 80 23  026.....+D.....#
18D0: 1C 16 80 52 78 80 F0 FF  FF 7F F0 FF FF 7F 7A 30  ...Rx.........z0
18E0: 32 36 45 78 80 F0 FF FF  7F F0 FF FF 7F 7A 30 32  26Ex.........z02
18F0: 37 01 80 1C BE 80 5D 01  80 16 80 45 24 80 F8 FF  7.....]....E$...
1900: FF 7F F8 FF FF 7F 66 64  6F 31 01 80 55 24 80 F8  ......fdo1..U$..
1910: FF FF 7F F8 FF FF 7F 66  64 6F 31 1C 16 80 BB BA  .......fdo1.....
1920: 80 43 F2 04 01 43 F2 04  01 6B 69 6C 6C 01 80 78  .C...C...kill..x
1930: 52 BF 80 F0 FF FF 7F F0  FF FF 7F 7A 30 32 37 5C  R..........z027\
1940: 00 40 80 5C 01 40 80 9A  46 00 45 24 80 F0 FF FF  .@.\.@..F.E$....
1950: 7F F0 FF FF 7F 66 64 69  32 01 80 21 00           .....fdi2..!.   
```

#### Opcodes

```
  0: 0x1002 [0x42] SET_CLI_EVENT_CANCEL_DATA()
  1: 0x1003 [0x45] LOAD_SCHEDULED_TASK: Load scheduler "fdo1" with entities [EventEntity, EventEntity], work=[200*, 0*]
  2: 0x1014 [0x55] WAIT_LOAD_SCHEDULER: Wait for scheduler "fdo1" with entities [EventEntity, EventEntity], work=200*
  3: 0x1023 [0x46] CAMERA_CONTROL: Disable user control
  4: 0x1025 [0x38] SET_CLIENT_EVENT_MODE(mode=19*)
  5: 0x1028 [0x4E] SET_ENTITY_HIDE_FLAG: Show Liliroon (ID: 17101380/0x0104F244)
  6: 0x102E [0x4E] SET_ENTITY_HIDE_FLAG: Show Dashahan (ID: 17101381/0x0104F245)
  7: 0x1034 [0x2F] Liliroon (ID: 17101380/0x0104F244)->Render.Flags0 &= ~0x80000 // Bit 19
  8: 0x103A [0x2F] Dashahan (ID: 17101381/0x0104F245)->Render.Flags0 &= ~0x80000 // Bit 19
  9: 0x1040 [0x92] Liliroon (ID: 17101380/0x0104F244)->Render.Flags3 ^= 0x01
 10: 0x1046 [0x92] Dashahan (ID: 17101381/0x0104F245)->Render.Flags3 ^= 0x01
 11: 0x104C [0x94] LocalPlayer->Render.Flags3 ^= 0x01
