# 0x7FFFFFF0 - Zone Events

## Common Data

| Field            | Value                  |
|------------------|------------------------|
| Zone             | Caedarva Mire (ID: 79) |
| Block Size       | 7572 bytes             |
| Total Events     | 95                     |
| References Count | 306                    |

## List of Events

| Event ID                   | Entrypoint   |   Size |   Instructions |
|----------------------------|--------------|--------|----------------|
| [65535](#event-65535)      | 0x0000       |      1 |              1 |
| [65534](#event-65534)      | 0x0001       |      1 |              1 |
| [147](#event-147)          | 0x0002       |     46 |              8 |
| [90](#event-90)            | 0x0030       |     41 |              5 |
| [65535.1](#event-655351)   | 0x0059       |     41 |              5 |
| [65535.2](#event-655352)   | 0x0082       |     41 |              5 |
| [100](#event-100)          | 0x00AB       |     10 |              2 |
| [101](#event-101)          | 0x00B5       |     14 |              4 |
| [102](#event-102)          | 0x00C3       |     13 |              3 |
| [103](#event-103)          | 0x00D0       |     10 |              2 |
| [104](#event-104)          | 0x00DA       |     14 |              4 |
| [105](#event-105)          | 0x00E8       |     13 |              3 |
| [106](#event-106)          | 0x00F5       |     10 |              2 |
| [107](#event-107)          | 0x00FF       |     14 |              4 |
| [108](#event-108)          | 0x010D       |     13 |              3 |
| [109](#event-109)          | 0x011A       |     10 |              2 |
| [110](#event-110)          | 0x0124       |     14 |              4 |
| [111](#event-111)          | 0x0132       |     13 |              3 |
| [132](#event-132)          | 0x013F       |     10 |              2 |
| [135](#event-135)          | 0x0149       |     10 |              2 |
| [165](#event-165)          | 0x0153       |     10 |              2 |
| [166](#event-166)          | 0x015D       |     14 |              4 |
| [167](#event-167)          | 0x016B       |     10 |              2 |
| [168](#event-168)          | 0x0175       |     14 |              4 |
| [169](#event-169)          | 0x0183       |     13 |              3 |
| [185](#event-185)          | 0x0190       |     10 |              2 |
| [186](#event-186)          | 0x019A       |     14 |              4 |
| [187](#event-187)          | 0x01A8       |     10 |              2 |
| [188](#event-188)          | 0x01B2       |     14 |              4 |
| [189](#event-189)          | 0x01C0       |     13 |              3 |
| [205](#event-205)          | 0x01CD       |     10 |              2 |
| [206](#event-206)          | 0x01D7       |     14 |              4 |
| [207](#event-207)          | 0x01E5       |     10 |              2 |
| [208](#event-208)          | 0x01EF       |     14 |              4 |
| [209](#event-209)          | 0x01FD       |     13 |              3 |
| [225](#event-225)          | 0x020A       |     10 |              2 |
| [226](#event-226)          | 0x0214       |     14 |              4 |
| [227](#event-227)          | 0x0222       |     10 |              2 |
| [228](#event-228)          | 0x022C       |     14 |              4 |
| [229](#event-229)          | 0x023A       |     13 |              3 |
| [136](#event-136)          | 0x0247       |    719 |             85 |
| [137](#event-137)          | 0x0516       |      6 |              4 |
| [138](#event-138)          | 0x051C       |      6 |              4 |
| [65535.3](#event-655353)   | 0x0522       |     10 |              2 |
| [65535.4](#event-655354)   | 0x052C       |     10 |              2 |
| [65535.5](#event-655355)   | 0x0536       |     10 |              2 |
| [65535.6](#event-655356)   | 0x0540       |     10 |              2 |
| [65535.7](#event-655357)   | 0x054A       |     15 |              5 |
| [65535.8](#event-655358)   | 0x0559       |     10 |              2 |
| [65535.9](#event-655359)   | 0x0563       |     10 |              2 |
| [65535.10](#event-6553510) | 0x056D       |     15 |              5 |
| [65535.11](#event-6553511) | 0x057C       |     37 |             10 |
| [65535.12](#event-6553512) | 0x05A1       |     12 |              3 |
| [65535.13](#event-6553513) | 0x05AD       |     20 |              6 |
| [65535.14](#event-6553514) | 0x05C1       |     20 |              6 |
| [65535.15](#event-6553515) | 0x05D5       |     10 |              2 |
| [65535.16](#event-6553516) | 0x05DF       |     10 |              2 |
| [65535.17](#event-6553517) | 0x05E9       |      4 |              2 |
| [65535.18](#event-6553518) | 0x05ED       |     10 |              2 |
| [65535.19](#event-6553519) | 0x05F7       |     10 |              2 |
| [65535.20](#event-6553520) | 0x0601       |     15 |              5 |
| [65535.21](#event-6553521) | 0x0610       |     20 |              6 |
| [65535.22](#event-6553522) | 0x0624       |     15 |              5 |
| [65535.23](#event-6553523) | 0x0633       |     37 |              5 |
| [65535.24](#event-6553524) | 0x0658       |    185 |             37 |
| [14](#event-14)            | 0x0711       |   1285 |            170 |
| [15](#event-15)            | 0x0C16       |   1459 |            207 |
| [65535.25](#event-6553525) | 0x11C9       |     19 |              5 |
| [29](#event-29)            | 0x11DC       |    683 |             82 |
| [65535.26](#event-6553526) | 0x1487       |     10 |              2 |
| [65535.27](#event-6553527) | 0x1491       |     14 |              4 |
| [65535.28](#event-6553528) | 0x149F       |     10 |              2 |
| [65535.29](#event-6553529) | 0x14A9       |     10 |              2 |
| [65535.30](#event-6553530) | 0x14B3       |     10 |              2 |
| [65535.31](#event-6553531) | 0x14BD       |     10 |              2 |
| [65535.32](#event-6553532) | 0x14C7       |     14 |              4 |
| [65535.33](#event-6553533) | 0x14D5       |     10 |              2 |
| [65535.34](#event-6553534) | 0x14DF       |     23 |              5 |
| [65535.35](#event-6553535) | 0x14F6       |     19 |              3 |
| [65535.36](#event-6553536) | 0x1509       |     14 |              4 |
| [65535.37](#event-6553537) | 0x1517       |     10 |              2 |
| [65535.38](#event-6553538) | 0x1521       |     19 |              3 |
| [307](#event-307)          | 0x1534       |     10 |              4 |
| [65535.39](#event-6553539) | 0x153E       |    353 |             41 |
| [65535.40](#event-6553540) | 0x169F       |     31 |              9 |
| [65535.41](#event-6553541) | 0x16BE       |      7 |              3 |
| [65535.42](#event-6553542) | 0x16C5       |      7 |              3 |
| [65535.43](#event-6553543) | 0x16CC       |      4 |              2 |
| [65535.44](#event-6553544) | 0x16D0       |     15 |              5 |
| [65535.45](#event-6553545) | 0x16DF       |      6 |              2 |
| [65535.46](#event-6553546) | 0x16E5       |      7 |              3 |
| [65535.47](#event-6553547) | 0x16EC       |      7 |              3 |
| [65535.48](#event-6553548) | 0x16F3       |     24 |              4 |
| [65535.49](#event-6553549) | 0x170B       |     24 |              4 |
| [65535.50](#event-6553550) | 0x1723       |     27 |              5 |

## DAT References (imed_data)

|   Index | Hex Value   |   Dec Value |
|---------|-------------|-------------|
|       0 | 0x1D3A      |        7482 |
|       1 | 0x00C9      |         201 |
|       2 | 0x0000      |           0 |
|       3 | 0x008C      |         140 |
|       4 | 0x00C8      |         200 |
|       5 | 0x003C      |          60 |
|       6 | 0x0001      |           1 |
|       7 | 0x0002      |           2 |
|       8 | 0x00AA      |         170 |
|       9 | 0x83DCB     |      540107 |
|      10 | 0xFFF95913  |  4294531347 |
|      11 | 0xFFFFB8E2  |  4294949090 |
|      12 | 0x0400      |        1024 |
|      13 | 0x000D      |          13 |
|      14 | 0x83D79     |      540025 |
|      15 | 0xFFF93846  |  4294522950 |
|      16 | 0xFFFFB68F  |  4294948495 |
|      17 | 0x83DCA     |      540106 |
|      18 | 0xFFF94975  |  4294527349 |
|      19 | 0xFFFFB70D  |  4294948621 |
|      20 | 0x0C00      |        3072 |
|      21 | 0x83D4F     |      539983 |
|      22 | 0xFFF95ECE  |  4294532814 |
|      23 | 0xFFFFB923  |  4294949155 |
|      24 | 0xFFFB6BED  |  4294667245 |
|      25 | 0xFFFEC475  |  4294886517 |
|      26 | 0xFFFFE5ED  |  4294960621 |
|      27 | 0xFFFB6BF0  |  4294667248 |
|      28 | 0xFFFED98E  |  4294891918 |
|      29 | 0xFFFFE578  |  4294960504 |
|      30 | 0x7FE8C     |      523916 |
|      31 | 0xFFF85093  |  4294463635 |
|      32 | 0xFFFF91D6  |  4294939094 |
|      33 | 0x1000      |        4096 |
|      34 | 0xFFFBF6E8  |  4294702824 |
|      35 | 0xFFFF9135  |  4294938933 |
|      36 | 0xFFFFE891  |  4294961297 |
|      37 | 0x4DD93     |      318867 |
|      38 | 0xFFF551DD  |  4294267357 |
|      39 | 0x0F9F      |        3999 |
|      40 | 0x4ED59     |      322905 |
|      41 | 0xFFF551E7  |  4294267367 |
|      42 | 0x0800      |        2048 |
|      43 | 0xFFF94D3A  |  4294528314 |
|      44 | 0xFFF4B536  |  4294227254 |
|      45 | 0xFFF93D57  |  4294524247 |
|      46 | 0xFFF4B5FA  |  4294227450 |
|      47 | 0xFFFA33D0  |  4294587344 |
|      48 | 0xFFFBBF64  |  4294688612 |
|      49 | 0xFFFA3347  |  4294587207 |
|      50 | 0xFFFBAE8D  |  4294684301 |
|      51 | 0xFFF638A0  |  4294326432 |
|      52 | 0xFFFC08A0  |  4294707360 |
|      53 | 0x3E7F      |       15999 |
|      54 | 0xFFF64731  |  4294330161 |
|      55 | 0xFFFC07CE  |  4294707150 |
|      56 | 0x3E80      |       16000 |
|      57 | 0x1CD2      |        7378 |
|      58 | 0x001B      |          27 |
|      59 | 0x00FD      |         253 |
|      60 | 0x1CD3      |        7379 |
|      61 | 0x1CD4      |        7380 |
|      62 | 0x1CD5      |        7381 |
|      63 | 0x1CD6      |        7382 |
|      64 | 0x0078      |         120 |
|      65 | 0x00FE      |         254 |
|      66 | 0x1CD7      |        7383 |
|      67 | 0x1CD8      |        7384 |
|      68 | 0x0003      |           3 |
|      69 | 0x1CD9      |        7385 |
|      70 | 0x1CDA      |        7386 |
|      71 | 0x1CDB      |        7387 |
|      72 | 0xFFFBCB01  |  4294691585 |
|      73 | 0xFFFF0BEF  |  4294904815 |
|      74 | 0xFFFFE0C1  |  4294959297 |
|      75 | 0x027F      |         639 |
|      76 | 0x7E9A1     |      518561 |
|      77 | 0xFFF8D62D  |  4294497837 |
|      78 | 0xFFFFA33A  |  4294943546 |
|      79 | 0x0BAF      |        2991 |
|      80 | 0xFFFA1297  |  4294578839 |
|      81 | 0xFFF74D4A  |  4294397258 |
|      82 | 0x1E0B      |        7691 |
|      83 | 0x082F      |        2095 |
|      84 | 0xFFFA1D7A  |  4294581626 |
|      85 | 0xFFF74B83  |  4294396803 |
|      86 | 0x1DB2      |        7602 |
|      87 | 0x089C      |        2204 |
|      88 | 0x000A      |          10 |
|      89 | 0xFFFA1D78  |  4294581624 |
|      90 | 0xFFF74CEC  |  4294397164 |
|      91 | 0x1DB3      |        7603 |
|      92 | 0x0F57      |        3927 |
|      93 | 0x4644      |       17988 |
|      94 | 0xFFFFAA10  |  4294945296 |
|      95 | 0x0008      |           8 |
|      96 | 0x21544     |      136516 |
|      97 | 0xFFFAD006  |  4294627334 |
|      98 | 0xFFFFC531  |  4294952241 |
|      99 | 0x02B0      |         688 |
|     100 | 0x0026      |          38 |
|     101 | 0x21E95     |      138901 |
|     102 | 0xFFFABB33  |  4294622003 |
|     103 | 0xFFFFC49B  |  4294952091 |
|     104 | 0x2229A     |      139930 |
|     105 | 0xFFFAA741  |  4294616897 |
|     106 | 0xFFFFC6CA  |  4294952650 |
|     107 | 0x2257D     |      140669 |
|     108 | 0xFFFA9549  |  4294612297 |
|     109 | 0xFFFFC8DF  |  4294953183 |
|     110 | 0x001E      |          30 |
|     111 | 0x2B823     |      178211 |
|     112 | 0xFFFA5841  |  4294596673 |
|     113 | 0xFFFFC6BF  |  4294952639 |
|     114 | 0x038A      |         906 |
|     115 | 0x000B      |          11 |
|     116 | 0x2B994     |      178580 |
|     117 | 0xFFFA50D5  |  4294594773 |
|     118 | 0xFFFFC6A1  |  4294952609 |
|     119 | 0x2C49B     |      181403 |
|     120 | 0xFFFA4752  |  4294592338 |
|     121 | 0xFFFFC4A7  |  4294952103 |
|     122 | 0x2B966     |      178534 |
|     123 | 0xFFFA38C7  |  4294588615 |
|     124 | 0xFFFFC514  |  4294952212 |
|     125 | 0x2C02D     |      180269 |
|     126 | 0xFFFA4182  |  4294590850 |
|     127 | 0xFFFFC472  |  4294952050 |
|     128 | 0x0422      |        1058 |
|     129 | 0x0028      |          40 |
|     130 | 0x0080      |         128 |
|     131 | 0x000F      |          15 |
|     132 | 0x2C789     |      182153 |
|     133 | 0xFFFA3A5D  |  4294589021 |
|     134 | 0xFFFFC4F2  |  4294952178 |
|     135 | 0x2C8F5     |      182517 |
|     136 | 0xFFFA3219  |  4294586905 |
|     137 | 0xFFFFC4EB  |  4294952171 |
|     138 | 0x0025      |          37 |
|     139 | 0x2B95B     |      178523 |
|     140 | 0xFFFA4E88  |  4294594184 |
|     141 | 0xFFFFC684  |  4294952580 |
|     142 | 0x0005      |           5 |
|     143 | 0x0009      |           9 |
|     144 | 0x0046      |          70 |
|     145 | 0x00D2      |         210 |
|     146 | 0x00A3      |         163 |
|     147 | 0x0013      |          19 |
|     148 | 0x21475     |      136309 |
|     149 | 0xFFF66A5C  |  4294339164 |
|     150 | 0x01B0      |         432 |
|     151 | 0x070E      |        1806 |
|     152 | 0x0023      |          35 |
|     153 | 0x1DAC      |        7596 |
|     154 | 0x0BCA      |        3018 |
|     155 | 0x1DAD      |        7597 |
|     156 | 0x0014      |          20 |
|     157 | 0x1DAE      |        7598 |
|     158 | 0x0353      |         851 |
|     159 | 0x1DAF      |        7599 |
|     160 | 0x070D      |        1805 |
|     161 | 0x1DB0      |        7600 |
|     162 | 0x1DB1      |        7601 |
|     163 | 0x005A      |          90 |
|     164 | 0x1DB4      |        7604 |
|     165 | 0x1DB5      |        7605 |
|     166 | 0x1DB6      |        7606 |
|     167 | 0x1DB7      |        7607 |
|     168 | 0x1DB8      |        7608 |
|     169 | 0x1DB9      |        7609 |
|     170 | 0x1DBA      |        7610 |
|     171 | 0x1DBB      |        7611 |
|     172 | 0x0015      |          21 |
|     173 | 0x1DBC      |        7612 |
|     174 | 0x1DBD      |        7613 |
|     175 | 0x1DBE      |        7614 |
|     176 | 0x1DBF      |        7615 |
|     177 | 0x0096      |         150 |
|     178 | 0x1DC0      |        7616 |
|     179 | 0x1DC1      |        7617 |
|     180 | 0x1DC2      |        7618 |
|     181 | 0x00AD      |         173 |
|     182 | 0x75391     |      480145 |
|     183 | 0x13136     |       78134 |
|     184 | 0xFFFF8300  |  4294935296 |
|     185 | 0x0666      |        1638 |
|     186 | 0x73DEE     |      474606 |
|     187 | 0x12CF5     |       77045 |
|     188 | 0xFFFF8356  |  4294935382 |
|     189 | 0x1DC4      |        7620 |
|     190 | 0x1DC5      |        7621 |
|     191 | 0x1DC6      |        7622 |
|     192 | 0x0031      |          49 |
|     193 | 0x1DC7      |        7623 |
|     194 | 0x007F      |         127 |
|     195 | 0x1DC8      |        7624 |
|     196 | 0x1DC9      |        7625 |
|     197 | 0x1DCA      |        7626 |
|     198 | 0x1DCB      |        7627 |
|     199 | 0x057A      |        1402 |
|     200 | 0x1DCC      |        7628 |
|     201 | 0x1DCD      |        7629 |
|     202 | 0x1DCE      |        7630 |
|     203 | 0x1DCF      |        7631 |
|     204 | 0x1DD0      |        7632 |
|     205 | 0x1DD1      |        7633 |
|     206 | 0x1DD2      |        7634 |
|     207 | 0x1DD3      |        7635 |
|     208 | 0x1DD4      |        7636 |
|     209 | 0x1DD5      |        7637 |
|     210 | 0x1DD6      |        7638 |
|     211 | 0x1DD7      |        7639 |
|     212 | 0x747C4     |      477124 |
|     213 | 0x1401F     |       81951 |
|     214 | 0x0ADC      |        2780 |
|     215 | 0x1DD8      |        7640 |
|     216 | 0x1DD9      |        7641 |
|     217 | 0x1DDA      |        7642 |
|     218 | 0x1DDB      |        7643 |
|     219 | 0x1DDC      |        7644 |
|     220 | 0x1DDD      |        7645 |
|     221 | 0x1DDE      |        7646 |
|     222 | 0x1DDF      |        7647 |
|     223 | 0x0CCB      |        3275 |
|     224 | 0x1DE0      |        7648 |
|     225 | 0x1DE1      |        7649 |
|     226 | 0x1DE2      |        7650 |
|     227 | 0x1DE3      |        7651 |
|     228 | 0x285F2     |      165362 |
|     229 | 0xFFF65630  |  4294334000 |
|     230 | 0x03B5      |         949 |
|     231 | 0x0011      |          17 |
|     232 | 0x1FB6      |        8118 |
|     233 | 0x00FF      |         255 |
|     234 | 0x1FB7      |        8119 |
|     235 | 0x1FB8      |        8120 |
|     236 | 0x0006      |           6 |
|     237 | 0x1FB9      |        8121 |
|     238 | 0x1FBA      |        8122 |
|     239 | 0x1FBB      |        8123 |
|     240 | 0x1FBC      |        8124 |
|     241 | 0x6E183     |      450947 |
|     242 | 0xFFFBDB7A  |  4294695802 |
|     243 | 0xFFFFE4A4  |  4294960292 |
|     244 | 0x0DC9      |        3529 |
|     245 | 0x6FAFA     |      457466 |
|     246 | 0xFFFBDADD  |  4294695645 |
|     247 | 0xFFFFE4A8  |  4294960296 |
|     248 | 0x6EB9F     |      453535 |
|     249 | 0xFFFBCEED  |  4294692589 |
|     250 | 0xFFFFE464  |  4294960228 |
|     251 | 0x0841      |        2113 |
|     252 | 0x75836     |      481334 |
|     253 | 0xFFFBE0C4  |  4294697156 |
|     254 | 0xFFFFDBD8  |  4294958040 |
|     255 | 0x0BFF      |        3071 |
|     256 | 0x70967     |      461159 |
|     257 | 0xFFFC265C  |  4294714972 |
|     258 | 0xFFFFB53B  |  4294948155 |
|     259 | 0x02FF      |         767 |
|     260 | 0x74552     |      476498 |
|     261 | 0xFFFC0B51  |  4294708049 |
|     262 | 0xFFFFD279  |  4294955641 |
|     263 | 0x0AC7      |        2759 |
|     264 | 0x74DC1     |      478657 |
|     265 | 0xFFFBEF10  |  4294700816 |
|     266 | 0xFFFFD8F0  |  4294957296 |
|     267 | 0x67930     |      424240 |
|     268 | 0xFFFBBA42  |  4294687298 |
|     269 | 0xFFFFE2A4  |  4294959780 |
|     270 | 0x009B      |         155 |
|     271 | 0x6A566     |      435558 |
|     272 | 0xFFFBBCF1  |  4294687985 |
|     273 | 0xFFFFE0DB  |  4294959323 |
|     274 | 0x70D48     |      462152 |
|     275 | 0xFFFBA03A  |  4294680634 |
|     276 | 0xFFFFE240  |  4294959680 |
|     277 | 0x0941      |        2369 |
|     278 | 0x709F4     |      461300 |
|     279 | 0xFFFBB6D9  |  4294686425 |
|     280 | 0xFFFFE2B4  |  4294959796 |
|     281 | 0x31B76     |      203638 |
|     282 | 0xFFF7013A  |  4294377786 |
|     283 | 0x00F9      |         249 |
|     284 | 0x05C5      |        1477 |
|     285 | 0x247DA     |      149466 |
|     286 | 0xFFF65D54  |  4294335828 |
|     287 | 0x0A73      |        2675 |
|     288 | 0x0095      |         149 |
|     289 | 0x009F      |         159 |
|     290 | 0x00A9      |         169 |
|     291 | 0x0004      |           4 |
|     292 | 0x00B3      |         179 |
|     293 | 0x00BD      |         189 |
|     294 | 0x0007      |           7 |
|     295 | 0x00C7      |         199 |
|     296 | 0x00D1      |         209 |
|     297 | 0xBBBF6     |      769014 |
|     298 | 0x9A63C     |      632380 |
|     299 | 0xFFFFDDFF  |  4294958591 |
|     300 | 0xBB915     |      768277 |
|     301 | 0x9A760     |      632672 |
|     302 | 0xFFFFDEA5  |  4294958757 |
|     303 | 0xFFF92412  |  4294517778 |
|     304 | 0xFFF6E626  |  4294370854 |
|     305 | 0x2039      |        8249 |

## String References

- **7378**: Choose a picture to take.
- **7379**: First scene.
- **7380**: Second scene.
- **7381**: Third scene.
- **7382**: Which picture will you take? [Show me again./First scene./Second scene./Third scene.]
- **7383**: <Player> records the first scene.
- **7384**: <Player> records the second scene.
- **7385**: <Player> records the third scene.
- **7386**: <Player> takes in the surrounding scenery. ...The view is breathtaking.
- **7387**: <Player> thinks back on Balakaf's words. ...Perhaps this is not the best time to record a picture.
- **7482**: The order has been given to invade [the Leujaoam Sanctum/the Mamool Ja Training Grounds/Lebros Cavern/Periqia/the Ilrusi Atoll/Nyzul Isle/the Ashu Talif/Zhayolm Remnants/Arrapago Remnants/Bhaflau Remnants/Silver Sea Remnants]!

## Events

### Event 65535

#### Metadata

| Field        | Value   |
|--------------|---------|
| Entrypoint   | 0x0000  |
| Data Size    | 1 bytes |
| Instructions | 1       |

```
      00 01 02 03 04 05 06 07  08 09 0A 0B 0C 0D 0E 0F
      -- -- -- -- -- -- -- --  -- -- -- -- -- -- -- --
0000: 00                                                .               
```

#### Opcodes

```
  0: 0x0000 [0x00] END_REQSTACK()
```

### Event 65534

#### Metadata

| Field        | Value   |
|--------------|---------|
| Entrypoint   | 0x0001  |
| Data Size    | 1 bytes |
| Instructions | 1       |

```
      00 01 02 03 04 05 06 07  08 09 0A 0B 0C 0D 0E 0F
      -- -- -- -- -- -- -- --  -- -- -- -- -- -- -- --
0000:    00                                              .              
```

#### Opcodes

```
  0: 0x0001 [0x00] END_REQSTACK()
```

### Event 147

#### Metadata

| Field        | Value    |
|--------------|----------|
| Entrypoint   | 0x0002   |
| Data Size    | 46 bytes |
| Instructions | 8        |

```
      00 01 02 03 04 05 06 07  08 09 0A 0B 0C 0D 0E 0F
      -- -- -- -- -- -- -- --  -- -- -- -- -- -- -- --
0000:       42 48 00 80 9F 01  80 F8 FF FF 7F F8 FF FF    BH............
0010: 7F 6D 61 69 6E 02 80 1C  03 80 45 04 80 F0 FF FF  .main.....E.....
0020: 7F F0 FF FF 7F 66 64 6F  31 02 80 1C 05 80 21 00  .....fdo1.....!.
```

#### Opcodes

```
  0: 0x0002 [0x42] SET_CLI_EVENT_CANCEL_DATA()
  1: 0x0003 [0x48] [System] [7482*]:
    → "The order has been given to invade [the Leujaoam Sanctum/the Mamool Ja Training Grounds/Lebros Cavern/Periqia/the Ilrusi Atoll/Nyzul Isle/the Ashu Talif/Zhayolm Remnants/Arrapago Remnants/Bhaflau Remnants/Silver Sea Remnants]!"
  2: 0x0006 [0x9F] LOAD_SCHEDULED_TASK_ALT: Load scheduler "main" with entities [EventEntity, EventEntity], work=[201*, 0*]
  3: 0x0017 [0x1C] WAIT(140* ticks)
  4: 0x001A [0x45] LOAD_SCHEDULED_TASK: Load scheduler "fdo1" with entities [LocalPlayer, LocalPlayer], work=[200*, 0*]
  5: 0x002B [0x1C] WAIT(60* ticks)
  6: 0x002E [0x21] END_EVENT
  7: 0x002F [0x00] END_REQSTACK()
```

### Event 90

#### Metadata

| Field        | Value    |
|--------------|----------|
| Entrypoint   | 0x0030   |
| Data Size    | 41 bytes |
| Instructions | 5        |

```
      00 01 02 03 04 05 06 07  08 09 0A 0B 0C 0D 0E 0F
      -- -- -- -- -- -- -- --  -- -- -- -- -- -- -- --
0030: 9F 01 80 F8 FF FF 7F F8  FF FF 7F 6D 61 69 6E 02  ...........main.
0040: 80 1C 03 80 45 04 80 F0  FF FF 7F F0 FF FF 7F 66  ....E..........f
0050: 64 6F 31 02 80 1C 05 80  00                       do1......       
```

#### Opcodes

```
  0: 0x0030 [0x9F] LOAD_SCHEDULED_TASK_ALT: Load scheduler "main" with entities [EventEntity, EventEntity], work=[201*, 0*]
  1: 0x0041 [0x1C] WAIT(140* ticks)
  2: 0x0044 [0x45] LOAD_SCHEDULED_TASK: Load scheduler "fdo1" with entities [LocalPlayer, LocalPlayer], work=[200*, 0*]
  3: 0x0055 [0x1C] WAIT(60* ticks)
  4: 0x0058 [0x00] END_REQSTACK()
```

### Event 65535.1

#### Metadata

| Field        | Value    |
|--------------|----------|
| Entrypoint   | 0x0059   |
| Data Size    | 41 bytes |
| Instructions | 5        |

```
      00 01 02 03 04 05 06 07  08 09 0A 0B 0C 0D 0E 0F
      -- -- -- -- -- -- -- --  -- -- -- -- -- -- -- --
0050:                             62 06 80 F0 FF FF 7F           b......
0060: F0 FF FF 7F 6D 61 69 6E  02 80 1C 03 80 45 04 80  ....main.....E..
0070: F0 FF FF 7F F0 FF FF 7F  66 64 6F 31 02 80 1C 05  ........fdo1....
0080: 80 00                                             ..              
```

#### Opcodes

```
  0: 0x0059 [0x62] LOAD_EVENT_SCHEDULER: Load scheduler "main" with entities [LocalPlayer, LocalPlayer], work=[1*, 0*]
  1: 0x006A [0x1C] WAIT(140* ticks)
  2: 0x006D [0x45] LOAD_SCHEDULED_TASK: Load scheduler "fdo1" with entities [LocalPlayer, LocalPlayer], work=[200*, 0*]
  3: 0x007E [0x1C] WAIT(60* ticks)
  4: 0x0081 [0x00] END_REQSTACK()
```

### Event 65535.2

#### Metadata

| Field        | Value    |
|--------------|----------|
| Entrypoint   | 0x0082   |
| Data Size    | 41 bytes |
| Instructions | 5        |

```
      00 01 02 03 04 05 06 07  08 09 0A 0B 0C 0D 0E 0F
      -- -- -- -- -- -- -- --  -- -- -- -- -- -- -- --
0080:       45 04 80 F0 FF FF  7F F0 FF FF 7F 66 64 69    E..........fdi
0090: 31 02 80 1C 05 80 62 07  80 F0 FF FF 7F F0 FF FF  1.....b.........
00A0: 7F 6D 61 69 6E 02 80 1C  08 80 00                 .main......     
```

#### Opcodes

```
  0: 0x0082 [0x45] LOAD_SCHEDULED_TASK: Load scheduler "fdi1" with entities [LocalPlayer, LocalPlayer], work=[200*, 0*]
  1: 0x0093 [0x1C] WAIT(60* ticks)
  2: 0x0096 [0x62] LOAD_EVENT_SCHEDULER: Load scheduler "main" with entities [LocalPlayer, LocalPlayer], work=[2*, 0*]
  3: 0x00A7 [0x1C] WAIT(170* ticks)
  4: 0x00AA [0x00] END_REQSTACK()
```

### Event 100

#### Metadata

| Field        | Value    |
|--------------|----------|
| Entrypoint   | 0x00AB   |
| Data Size    | 10 bytes |
| Instructions | 2        |

```
      00 01 02 03 04 05 06 07  08 09 0A 0B 0C 0D 0E 0F
      -- -- -- -- -- -- -- --  -- -- -- -- -- -- -- --
00A0:                                   37 09 80 0A 80             7....
00B0: 0B 80 0C 80 00                                    .....           
```

#### Opcodes

```
  0: 0x00AB [0x37] UPDATE_EVENT_POSITION_AND_DIR: x=540.107*, z=-435.949*, y=-18.206*, direction=90.0°*
  1: 0x00B4 [0x00] END_REQSTACK()
```

### Event 101

#### Metadata

| Field        | Value    |
|--------------|----------|
| Entrypoint   | 0x00B5   |
| Data Size    | 14 bytes |
| Instructions | 4        |

```
      00 01 02 03 04 05 06 07  08 09 0A 0B 0C 0D 0E 0F
      -- -- -- -- -- -- -- --  -- -- -- -- -- -- -- --
00B0:                32 0D 80  1F 00 0E 80 0F 80 10 80       2..........
00C0: 1F 01 00                                          ...             
```

#### Opcodes

```
  0: 0x00B5 [0x32] ExtData[1]->MainSpeed = 13* * 0.1
  1: 0x00B8 [0x1F] MOVE_ENTITY: EventEntity moves to X=540.025*, Z=-444.346*, Y=-18.801*
  2: 0x00C0 [0x1F] MOVE_ENTITY: Update entity position (mode=1)
  3: 0x00C2 [0x00] END_REQSTACK()
```

### Event 102

#### Metadata

| Field        | Value    |
|--------------|----------|
| Entrypoint   | 0x00C3   |
| Data Size    | 13 bytes |
| Instructions | 3        |

```
      00 01 02 03 04 05 06 07  08 09 0A 0B 0C 0D 0E 0F
      -- -- -- -- -- -- -- --  -- -- -- -- -- -- -- --
00C0:          47 00 0E 80 0F  80 10 80 0C 80 47 01 00     G.........G..
```

#### Opcodes

```
  0: 0x00C3 [0x47] UPDATE_PLAYER_POS(540.025*, -444.346*, -18.801*, yaw=90.0°*)
  1: 0x00CD [0x47] WAIT_PLAYER_POS_UPDATE
  2: 0x00CF [0x00] END_REQSTACK()
```

### Event 103

#### Metadata

| Field        | Value    |
|--------------|----------|
| Entrypoint   | 0x00D0   |
| Data Size    | 10 bytes |
| Instructions | 2        |

```
      00 01 02 03 04 05 06 07  08 09 0A 0B 0C 0D 0E 0F
      -- -- -- -- -- -- -- --  -- -- -- -- -- -- -- --
00D0: 37 11 80 12 80 13 80 14  80 00                    7.........      
```

#### Opcodes

```
  0: 0x00D0 [0x37] UPDATE_EVENT_POSITION_AND_DIR: x=540.106*, z=-439.947*, y=-18.675*, direction=270.0°*
  1: 0x00D9 [0x00] END_REQSTACK()
```

### Event 104

#### Metadata

| Field        | Value    |
|--------------|----------|
| Entrypoint   | 0x00DA   |
| Data Size    | 14 bytes |
| Instructions | 4        |

```
      00 01 02 03 04 05 06 07  08 09 0A 0B 0C 0D 0E 0F
      -- -- -- -- -- -- -- --  -- -- -- -- -- -- -- --
00D0:                                32 0D 80 1F 00 15            2.....
00E0: 80 16 80 17 80 1F 01 00                           ........        
```

#### Opcodes

```
  0: 0x00DA [0x32] ExtData[1]->MainSpeed = 13* * 0.1
  1: 0x00DD [0x1F] MOVE_ENTITY: EventEntity moves to X=539.983*, Z=-434.482*, Y=-18.141*
  2: 0x00E5 [0x1F] MOVE_ENTITY: Update entity position (mode=1)
  3: 0x00E7 [0x00] END_REQSTACK()
```

### Event 105

#### Metadata

| Field        | Value    |
|--------------|----------|
| Entrypoint   | 0x00E8   |
| Data Size    | 13 bytes |
| Instructions | 3        |

```
      00 01 02 03 04 05 06 07  08 09 0A 0B 0C 0D 0E 0F
      -- -- -- -- -- -- -- --  -- -- -- -- -- -- -- --
00E0:                          47 00 15 80 16 80 17 80          G.......
00F0: 14 80 47 01 00                                    ..G..           
```

#### Opcodes

```
  0: 0x00E8 [0x47] UPDATE_PLAYER_POS(539.983*, -434.482*, -18.141*, yaw=270.0°*)
  1: 0x00F2 [0x47] WAIT_PLAYER_POS_UPDATE
  2: 0x00F4 [0x00] END_REQSTACK()
```

### Event 106

#### Metadata

| Field        | Value    |
|--------------|----------|
| Entrypoint   | 0x00F5   |
| Data Size    | 10 bytes |
| Instructions | 2        |

```
      00 01 02 03 04 05 06 07  08 09 0A 0B 0C 0D 0E 0F
      -- -- -- -- -- -- -- --  -- -- -- -- -- -- -- --
00F0:                37 18 80  19 80 1A 80 14 80 00          7......... 
```

#### Opcodes

```
  0: 0x00F5 [0x37] UPDATE_EVENT_POSITION_AND_DIR: x=-300.051*, z=-80.779*, y=-6.675*, direction=270.0°*
  1: 0x00FE [0x00] END_REQSTACK()
```

### Event 107

#### Metadata

| Field        | Value    |
|--------------|----------|
| Entrypoint   | 0x00FF   |
| Data Size    | 14 bytes |
| Instructions | 4        |

```
      00 01 02 03 04 05 06 07  08 09 0A 0B 0C 0D 0E 0F
      -- -- -- -- -- -- -- --  -- -- -- -- -- -- -- --
00F0:                                               32                 2
0100: 0D 80 1F 00 1B 80 1C 80  1D 80 1F 01 00           .............   
```

#### Opcodes

```
  0: 0x00FF [0x32] ExtData[1]->MainSpeed = 13* * 0.1
  1: 0x0102 [0x1F] MOVE_ENTITY: EventEntity moves to X=-300.048*, Z=-75.378*, Y=-6.792*
  2: 0x010A [0x1F] MOVE_ENTITY: Update entity position (mode=1)
  3: 0x010C [0x00] END_REQSTACK()
```

### Event 108

#### Metadata

| Field        | Value    |
|--------------|----------|
| Entrypoint   | 0x010D   |
| Data Size    | 13 bytes |
| Instructions | 3        |

```
      00 01 02 03 04 05 06 07  08 09 0A 0B 0C 0D 0E 0F
      -- -- -- -- -- -- -- --  -- -- -- -- -- -- -- --
0100:                                         47 00 1B               G..
0110: 80 1C 80 1D 80 14 80 47  01 00                    .......G..      
```

#### Opcodes

```
  0: 0x010D [0x47] UPDATE_PLAYER_POS(-300.048*, -75.378*, -6.792*, yaw=270.0°*)
  1: 0x0117 [0x47] WAIT_PLAYER_POS_UPDATE
  2: 0x0119 [0x00] END_REQSTACK()
```

### Event 109

#### Metadata

| Field        | Value    |
|--------------|----------|
| Entrypoint   | 0x011A   |
| Data Size    | 10 bytes |
| Instructions | 2        |

```
      00 01 02 03 04 05 06 07  08 09 0A 0B 0C 0D 0E 0F
      -- -- -- -- -- -- -- --  -- -- -- -- -- -- -- --
0110:                                37 1B 80 1C 80 1D            7.....
0120: 80 0C 80 00                                       ....            
```

#### Opcodes

```
  0: 0x011A [0x37] UPDATE_EVENT_POSITION_AND_DIR: x=-300.048*, z=-75.378*, y=-6.792*, direction=90.0°*
  1: 0x0123 [0x00] END_REQSTACK()
```

### Event 110

#### Metadata

| Field        | Value    |
|--------------|----------|
| Entrypoint   | 0x0124   |
| Data Size    | 14 bytes |
| Instructions | 4        |

```
      00 01 02 03 04 05 06 07  08 09 0A 0B 0C 0D 0E 0F
      -- -- -- -- -- -- -- --  -- -- -- -- -- -- -- --
0120:             32 0D 80 1F  00 18 80 19 80 1A 80 1F      2...........
0130: 01 00                                             ..              
```

#### Opcodes

```
  0: 0x0124 [0x32] ExtData[1]->MainSpeed = 13* * 0.1
  1: 0x0127 [0x1F] MOVE_ENTITY: EventEntity moves to X=-300.051*, Z=-80.779*, Y=-6.675*
  2: 0x012F [0x1F] MOVE_ENTITY: Update entity position (mode=1)
  3: 0x0131 [0x00] END_REQSTACK()
```

### Event 111

#### Metadata

| Field        | Value    |
|--------------|----------|
| Entrypoint   | 0x0132   |
| Data Size    | 13 bytes |
| Instructions | 3        |

```
      00 01 02 03 04 05 06 07  08 09 0A 0B 0C 0D 0E 0F
      -- -- -- -- -- -- -- --  -- -- -- -- -- -- -- --
0130:       47 00 18 80 19 80  1A 80 0C 80 47 01 00       G.........G.. 
```

#### Opcodes

```
  0: 0x0132 [0x47] UPDATE_PLAYER_POS(-300.051*, -80.779*, -6.675*, yaw=90.0°*)
  1: 0x013C [0x47] WAIT_PLAYER_POS_UPDATE
  2: 0x013E [0x00] END_REQSTACK()
```

### Event 132

#### Metadata

| Field        | Value    |
|--------------|----------|
| Entrypoint   | 0x013F   |
| Data Size    | 10 bytes |
| Instructions | 2        |

```
      00 01 02 03 04 05 06 07  08 09 0A 0B 0C 0D 0E 0F
      -- -- -- -- -- -- -- --  -- -- -- -- -- -- -- --
0130:                                               37                 7
0140: 1E 80 1F 80 20 80 21 80  00                       .... .!..       
```

#### Opcodes

```
  0: 0x013F [0x37] UPDATE_EVENT_POSITION_AND_DIR: x=523.916*, z=-503.661*, y=-28.202*, direction=360.0°*
  1: 0x0148 [0x00] END_REQSTACK()
```

### Event 135

#### Metadata

| Field        | Value    |
|--------------|----------|
| Entrypoint   | 0x0149   |
| Data Size    | 10 bytes |
| Instructions | 2        |

```
      00 01 02 03 04 05 06 07  08 09 0A 0B 0C 0D 0E 0F
      -- -- -- -- -- -- -- --  -- -- -- -- -- -- -- --
0140:                             37 22 80 23 80 24 80           7".#.$.
0150: 21 80 00                                          !..             
```

#### Opcodes

```
  0: 0x0149 [0x37] UPDATE_EVENT_POSITION_AND_DIR: x=-264.472*, z=-28.363*, y=-5.999*, direction=360.0°*
  1: 0x0152 [0x00] END_REQSTACK()
```

### Event 165

#### Metadata

| Field        | Value    |
|--------------|----------|
| Entrypoint   | 0x0153   |
| Data Size    | 10 bytes |
| Instructions | 2        |

```
      00 01 02 03 04 05 06 07  08 09 0A 0B 0C 0D 0E 0F
      -- -- -- -- -- -- -- --  -- -- -- -- -- -- -- --
0150:          37 25 80 26 80  27 80 02 80 00              7%.&.'....   
```

#### Opcodes

```
  0: 0x0153 [0x37] UPDATE_EVENT_POSITION_AND_DIR: x=318.867*, z=-699.939*, y=3.999*, direction=0.0°*
  1: 0x015C [0x00] END_REQSTACK()
```

### Event 166

#### Metadata

| Field        | Value    |
|--------------|----------|
| Entrypoint   | 0x015D   |
| Data Size    | 14 bytes |
| Instructions | 4        |

```
      00 01 02 03 04 05 06 07  08 09 0A 0B 0C 0D 0E 0F
      -- -- -- -- -- -- -- --  -- -- -- -- -- -- -- --
0150:                                         32 0D 80               2..
0160: 1F 00 28 80 29 80 27 80  1F 01 00                 ..(.).'....     
```

#### Opcodes

```
  0: 0x015D [0x32] ExtData[1]->MainSpeed = 13* * 0.1
  1: 0x0160 [0x1F] MOVE_ENTITY: EventEntity moves to X=322.905*, Z=-699.929*, Y=3.999*
  2: 0x0168 [0x1F] MOVE_ENTITY: Update entity position (mode=1)
  3: 0x016A [0x00] END_REQSTACK()
```

### Event 167

#### Metadata

| Field        | Value    |
|--------------|----------|
| Entrypoint   | 0x016B   |
| Data Size    | 10 bytes |
| Instructions | 2        |

```
      00 01 02 03 04 05 06 07  08 09 0A 0B 0C 0D 0E 0F
      -- -- -- -- -- -- -- --  -- -- -- -- -- -- -- --
0160:                                   37 28 80 29 80             7(.).
0170: 27 80 2A 80 00                                    '.*..           
```

#### Opcodes

```
  0: 0x016B [0x37] UPDATE_EVENT_POSITION_AND_DIR: x=322.905*, z=-699.929*, y=3.999*, direction=180.0°*
  1: 0x0174 [0x00] END_REQSTACK()
```

### Event 168

#### Metadata

| Field        | Value    |
|--------------|----------|
| Entrypoint   | 0x0175   |
| Data Size    | 14 bytes |
| Instructions | 4        |

```
      00 01 02 03 04 05 06 07  08 09 0A 0B 0C 0D 0E 0F
      -- -- -- -- -- -- -- --  -- -- -- -- -- -- -- --
0170:                32 0D 80  1F 00 25 80 26 80 27 80       2....%.&.'.
0180: 1F 01 00                                          ...             
```

#### Opcodes

```
  0: 0x0175 [0x32] ExtData[1]->MainSpeed = 13* * 0.1
  1: 0x0178 [0x1F] MOVE_ENTITY: EventEntity moves to X=318.867*, Z=-699.939*, Y=3.999*
  2: 0x0180 [0x1F] MOVE_ENTITY: Update entity position (mode=1)
  3: 0x0182 [0x00] END_REQSTACK()
```

### Event 169

#### Metadata

| Field        | Value    |
|--------------|----------|
| Entrypoint   | 0x0183   |
| Data Size    | 13 bytes |
| Instructions | 3        |

```
      00 01 02 03 04 05 06 07  08 09 0A 0B 0C 0D 0E 0F
      -- -- -- -- -- -- -- --  -- -- -- -- -- -- -- --
0180:          47 00 25 80 26  80 27 80 2A 80 47 01 00     G.%.&.'.*.G..
```

#### Opcodes

```
  0: 0x0183 [0x47] UPDATE_PLAYER_POS(318.867*, -699.939*, 3.999*, yaw=180.0°*)
  1: 0x018D [0x47] WAIT_PLAYER_POS_UPDATE
  2: 0x018F [0x00] END_REQSTACK()
```

### Event 185

#### Metadata

| Field        | Value    |
|--------------|----------|
| Entrypoint   | 0x0190   |
| Data Size    | 10 bytes |
| Instructions | 2        |

```
      00 01 02 03 04 05 06 07  08 09 0A 0B 0C 0D 0E 0F
      -- -- -- -- -- -- -- --  -- -- -- -- -- -- -- --
0190: 37 2B 80 2C 80 27 80 2A  80 00                    7+.,.'.*..      
```

#### Opcodes

```
  0: 0x0190 [0x37] UPDATE_EVENT_POSITION_AND_DIR: x=-438.982*, z=-740.042*, y=3.999*, direction=180.0°*
  1: 0x0199 [0x00] END_REQSTACK()
```

### Event 186

#### Metadata

| Field        | Value    |
|--------------|----------|
| Entrypoint   | 0x019A   |
| Data Size    | 14 bytes |
| Instructions | 4        |

```
      00 01 02 03 04 05 06 07  08 09 0A 0B 0C 0D 0E 0F
      -- -- -- -- -- -- -- --  -- -- -- -- -- -- -- --
0190:                                32 0D 80 1F 00 2D            2....-
01A0: 80 2E 80 27 80 1F 01 00                           ...'....        
```

#### Opcodes

```
  0: 0x019A [0x32] ExtData[1]->MainSpeed = 13* * 0.1
  1: 0x019D [0x1F] MOVE_ENTITY: EventEntity moves to X=-443.049*, Z=-739.846*, Y=3.999*
  2: 0x01A5 [0x1F] MOVE_ENTITY: Update entity position (mode=1)
  3: 0x01A7 [0x00] END_REQSTACK()
```

### Event 187

#### Metadata

| Field        | Value    |
|--------------|----------|
| Entrypoint   | 0x01A8   |
| Data Size    | 10 bytes |
| Instructions | 2        |

```
      00 01 02 03 04 05 06 07  08 09 0A 0B 0C 0D 0E 0F
      -- -- -- -- -- -- -- --  -- -- -- -- -- -- -- --
01A0:                          37 2D 80 2E 80 27 80 02          7-...'..
01B0: 80 00                                             ..              
```

#### Opcodes

```
  0: 0x01A8 [0x37] UPDATE_EVENT_POSITION_AND_DIR: x=-443.049*, z=-739.846*, y=3.999*, direction=0.0°*
  1: 0x01B1 [0x00] END_REQSTACK()
```

### Event 188

#### Metadata

| Field        | Value    |
|--------------|----------|
| Entrypoint   | 0x01B2   |
| Data Size    | 14 bytes |
| Instructions | 4        |

```
      00 01 02 03 04 05 06 07  08 09 0A 0B 0C 0D 0E 0F
      -- -- -- -- -- -- -- --  -- -- -- -- -- -- -- --
01B0:       32 0D 80 1F 00 2B  80 2C 80 27 80 1F 01 00    2....+.,.'....
```

#### Opcodes

```
  0: 0x01B2 [0x32] ExtData[1]->MainSpeed = 13* * 0.1
  1: 0x01B5 [0x1F] MOVE_ENTITY: EventEntity moves to X=-438.982*, Z=-740.042*, Y=3.999*
  2: 0x01BD [0x1F] MOVE_ENTITY: Update entity position (mode=1)
  3: 0x01BF [0x00] END_REQSTACK()
```

### Event 189

#### Metadata

| Field        | Value    |
|--------------|----------|
| Entrypoint   | 0x01C0   |
| Data Size    | 13 bytes |
| Instructions | 3        |

```
      00 01 02 03 04 05 06 07  08 09 0A 0B 0C 0D 0E 0F
      -- -- -- -- -- -- -- --  -- -- -- -- -- -- -- --
01C0: 47 00 2B 80 2C 80 27 80  02 80 47 01 00           G.+.,.'...G..   
```

#### Opcodes

```
  0: 0x01C0 [0x47] UPDATE_PLAYER_POS(-438.982*, -740.042*, 3.999*, yaw=0.0°*)
  1: 0x01CA [0x47] WAIT_PLAYER_POS_UPDATE
  2: 0x01CC [0x00] END_REQSTACK()
```

### Event 205

#### Metadata

| Field        | Value    |
|--------------|----------|
| Entrypoint   | 0x01CD   |
| Data Size    | 10 bytes |
| Instructions | 2        |

```
      00 01 02 03 04 05 06 07  08 09 0A 0B 0C 0D 0E 0F
      -- -- -- -- -- -- -- --  -- -- -- -- -- -- -- --
01C0:                                         37 2F 80               7/.
01D0: 30 80 02 80 0C 80 00                              0......         
```

#### Opcodes

```
  0: 0x01CD [0x37] UPDATE_EVENT_POSITION_AND_DIR: x=-379.952*, z=-278.684*, y=0.000*, direction=90.0°*
  1: 0x01D6 [0x00] END_REQSTACK()
```

### Event 206

#### Metadata

| Field        | Value    |
|--------------|----------|
| Entrypoint   | 0x01D7   |
| Data Size    | 14 bytes |
| Instructions | 4        |

```
      00 01 02 03 04 05 06 07  08 09 0A 0B 0C 0D 0E 0F
      -- -- -- -- -- -- -- --  -- -- -- -- -- -- -- --
01D0:                      32  0D 80 1F 00 31 80 32 80         2....1.2.
01E0: 02 80 1F 01 00                                    .....           
```

#### Opcodes

```
  0: 0x01D7 [0x32] ExtData[1]->MainSpeed = 13* * 0.1
  1: 0x01DA [0x1F] MOVE_ENTITY: EventEntity moves to X=-380.089*, Z=-282.995*, Y=0.000*
  2: 0x01E2 [0x1F] MOVE_ENTITY: Update entity position (mode=1)
  3: 0x01E4 [0x00] END_REQSTACK()
```

### Event 207

#### Metadata

| Field        | Value    |
|--------------|----------|
| Entrypoint   | 0x01E5   |
| Data Size    | 10 bytes |
| Instructions | 2        |

```
      00 01 02 03 04 05 06 07  08 09 0A 0B 0C 0D 0E 0F
      -- -- -- -- -- -- -- --  -- -- -- -- -- -- -- --
01E0:                37 31 80  32 80 02 80 14 80 00          71.2...... 
```

#### Opcodes

```
  0: 0x01E5 [0x37] UPDATE_EVENT_POSITION_AND_DIR: x=-380.089*, z=-282.995*, y=0.000*, direction=270.0°*
  1: 0x01EE [0x00] END_REQSTACK()
```

### Event 208

#### Metadata

| Field        | Value    |
|--------------|----------|
| Entrypoint   | 0x01EF   |
| Data Size    | 14 bytes |
| Instructions | 4        |

```
      00 01 02 03 04 05 06 07  08 09 0A 0B 0C 0D 0E 0F
      -- -- -- -- -- -- -- --  -- -- -- -- -- -- -- --
01E0:                                               32                 2
01F0: 0D 80 1F 00 2F 80 30 80  02 80 1F 01 00           ..../.0......   
```

#### Opcodes

```
  0: 0x01EF [0x32] ExtData[1]->MainSpeed = 13* * 0.1
  1: 0x01F2 [0x1F] MOVE_ENTITY: EventEntity moves to X=-379.952*, Z=-278.684*, Y=0.000*
  2: 0x01FA [0x1F] MOVE_ENTITY: Update entity position (mode=1)
  3: 0x01FC [0x00] END_REQSTACK()
```

### Event 209

#### Metadata

| Field        | Value    |
|--------------|----------|
| Entrypoint   | 0x01FD   |
| Data Size    | 13 bytes |
| Instructions | 3        |

```
      00 01 02 03 04 05 06 07  08 09 0A 0B 0C 0D 0E 0F
      -- -- -- -- -- -- -- --  -- -- -- -- -- -- -- --
01F0:                                         47 00 2F               G./
0200: 80 30 80 02 80 14 80 47  01 00                    .0.....G..      
```

#### Opcodes

```
  0: 0x01FD [0x47] UPDATE_PLAYER_POS(-379.952*, -278.684*, 0.000*, yaw=270.0°*)
  1: 0x0207 [0x47] WAIT_PLAYER_POS_UPDATE
  2: 0x0209 [0x00] END_REQSTACK()
```

### Event 225

#### Metadata

| Field        | Value    |
|--------------|----------|
| Entrypoint   | 0x020A   |
| Data Size    | 10 bytes |
| Instructions | 2        |

```
      00 01 02 03 04 05 06 07  08 09 0A 0B 0C 0D 0E 0F
      -- -- -- -- -- -- -- --  -- -- -- -- -- -- -- --
0200:                                37 33 80 34 80 35            73.4.5
0210: 80 02 80 00                                       ....            
```

#### Opcodes

```
  0: 0x020A [0x37] UPDATE_EVENT_POSITION_AND_DIR: x=-640.864*, z=-259.936*, y=15.999*, direction=0.0°*
  1: 0x0213 [0x00] END_REQSTACK()
```

### Event 226

#### Metadata

| Field        | Value    |
|--------------|----------|
| Entrypoint   | 0x0214   |
| Data Size    | 14 bytes |
| Instructions | 4        |

```
      00 01 02 03 04 05 06 07  08 09 0A 0B 0C 0D 0E 0F
      -- -- -- -- -- -- -- --  -- -- -- -- -- -- -- --
0210:             32 0D 80 1F  00 36 80 37 80 38 80 1F      2....6.7.8..
0220: 01 00                                             ..              
```

#### Opcodes

```
  0: 0x0214 [0x32] ExtData[1]->MainSpeed = 13* * 0.1
  1: 0x0217 [0x1F] MOVE_ENTITY: EventEntity moves to X=-637.135*, Z=-260.146*, Y=16.000*
  2: 0x021F [0x1F] MOVE_ENTITY: Update entity position (mode=1)
  3: 0x0221 [0x00] END_REQSTACK()
```

### Event 227

#### Metadata

| Field        | Value    |
|--------------|----------|
| Entrypoint   | 0x0222   |
| Data Size    | 10 bytes |
| Instructions | 2        |

```
      00 01 02 03 04 05 06 07  08 09 0A 0B 0C 0D 0E 0F
      -- -- -- -- -- -- -- --  -- -- -- -- -- -- -- --
0220:       37 36 80 37 80 38  80 2A 80 00                76.7.8.*..    
```

#### Opcodes

```
  0: 0x0222 [0x37] UPDATE_EVENT_POSITION_AND_DIR: x=-637.135*, z=-260.146*, y=16.000*, direction=180.0°*
  1: 0x022B [0x00] END_REQSTACK()
```

### Event 228

#### Metadata

| Field        | Value    |
|--------------|----------|
| Entrypoint   | 0x022C   |
| Data Size    | 14 bytes |
| Instructions | 4        |

```
      00 01 02 03 04 05 06 07  08 09 0A 0B 0C 0D 0E 0F
      -- -- -- -- -- -- -- --  -- -- -- -- -- -- -- --
0220:                                      32 0D 80 1F              2...
0230: 00 33 80 34 80 35 80 1F  01 00                    .3.4.5....      
```

#### Opcodes

```
  0: 0x022C [0x32] ExtData[1]->MainSpeed = 13* * 0.1
  1: 0x022F [0x1F] MOVE_ENTITY: EventEntity moves to X=-640.864*, Z=-259.936*, Y=15.999*
  2: 0x0237 [0x1F] MOVE_ENTITY: Update entity position (mode=1)
  3: 0x0239 [0x00] END_REQSTACK()
```

### Event 229

#### Metadata

| Field        | Value    |
|--------------|----------|
| Entrypoint   | 0x023A   |
| Data Size    | 13 bytes |
| Instructions | 3        |

```
      00 01 02 03 04 05 06 07  08 09 0A 0B 0C 0D 0E 0F
      -- -- -- -- -- -- -- --  -- -- -- -- -- -- -- --
0230:                                47 00 33 80 34 80            G.3.4.
0240: 35 80 2A 80 47 01 00                              5.*.G..         
```

#### Opcodes

```
  0: 0x023A [0x47] UPDATE_PLAYER_POS(-640.864*, -259.936*, 15.999*, yaw=180.0°*)
  1: 0x0244 [0x47] WAIT_PLAYER_POS_UPDATE
  2: 0x0246 [0x00] END_REQSTACK()
```

### Event 136

#### Metadata

| Field        | Value     |
|--------------|-----------|
| Entrypoint   | 0x0247    |
| Data Size    | 719 bytes |
| Instructions | 85        |

```
      00 01 02 03 04 05 06 07  08 09 0A 0B 0C 0D 0E 0F
      -- -- -- -- -- -- -- --  -- -- -- -- -- -- -- --
0240:                      42  48 39 80 23 45 04 80 F8         BH9.#E...
0250: FF FF 7F F8 FF FF 7F 66  64 6F 31 02 80 55 04 80  .......fdo1..U..
0260: F8 FF FF 7F F8 FF FF 7F  66 64 6F 31 46 01 38 3A  ........fdo1F.8:
0270: 80 4E 01 F0 FF FF 7F 03  00 00 02 80 02 00 00 02  .N..............
0280: 80 00 FE 04 45 3B 80 F8  FF FF 7F F8 FF FF 7F 73  ....E;.........s
0290: 30 38 35 02 80 1C 05 80  45 04 80 F8 FF FF 7F F8  085.....E.......
02A0: FF FF 7F 66 64 69 31 02  80 1C 05 80 48 3C 80 23  ...fdi1.....H<.#
02B0: 45 04 80 F8 FF FF 7F F8  FF FF 7F 66 64 6F 31 02  E..........fdo1.
02C0: 80 55 04 80 F8 FF FF 7F  F8 FF FF 7F 66 64 6F 31  .U..........fdo1
02D0: 52 3B 80 F8 FF FF 7F F8  FF FF 7F 73 30 38 35 45  R;.........s085E
02E0: 3B 80 F8 FF FF 7F F8 FF  FF 7F 73 30 38 33 02 80  ;.........s083..
02F0: 1C 05 80 45 04 80 F8 FF  FF 7F F8 FF FF 7F 66 64  ...E..........fd
0300: 69 31 02 80 1C 05 80 48  3D 80 23 45 04 80 F8 FF  i1.....H=.#E....
0310: FF 7F F8 FF FF 7F 66 64  6F 31 02 80 55 04 80 F8  ......fdo1..U...
0320: FF FF 7F F8 FF FF 7F 66  64 6F 31 52 3B 80 F8 FF  .......fdo1R;...
0330: FF 7F F8 FF FF 7F 73 30  38 33 45 3B 80 F8 FF FF  ......s083E;....
0340: 7F F8 FF FF 7F 73 30 38  34 02 80 1C 05 80 45 04  .....s084.....E.
0350: 80 F8 FF FF 7F F8 FF FF  7F 66 64 69 31 02 80 1C  .........fdi1...
0360: 05 80 48 3E 80 23 24 3F  80 02 80 02 80 25 02 00  ..H>.#$?.....%..
0370: 10 02 80 00 79 03 01 AE  04 02 00 10 06 80 00 FC  ....y...........
0380: 03 45 04 80 F8 FF FF 7F  F8 FF FF 7F 66 64 6F 31  .E..........fdo1
0390: 02 80 55 04 80 F8 FF FF  7F F8 FF FF 7F 66 64 6F  ..U..........fdo
03A0: 31 52 3B 80 F8 FF FF 7F  F8 FF FF 7F 73 30 38 34  1R;.........s084
03B0: 45 3B 80 F8 FF FF 7F F8  FF FF 7F 73 30 38 35 02  E;.........s085.
03C0: 80 1C 05 80 45 04 80 F8  FF FF 7F F8 FF FF 7F 66  ....E..........f
03D0: 64 69 31 02 80 1C 40 80  45 41 80 F8 FF FF 7F F8  di1...@.EA......
03E0: FF FF 7F 73 30 34 37 02  80 1C 40 80 48 42 80 03  ...s047...@.HB..
03F0: 00 00 06 80 03 01 10 06  80 01 AE 04 02 00 10 07  ................
0400: 80 00 7F 04 45 04 80 F8  FF FF 7F F8 FF FF 7F 66  ....E..........f
0410: 64 6F 31 02 80 55 04 80  F8 FF FF 7F F8 FF FF 7F  do1..U..........
0420: 66 64 6F 31 52 3B 80 F8  FF FF 7F F8 FF FF 7F 73  fdo1R;.........s
0430: 30 38 34 45 3B 80 F8 FF  FF 7F F8 FF FF 7F 73 30  084E;.........s0
0440: 38 33 02 80 1C 05 80 45  04 80 F8 FF FF 7F F8 FF  83.....E........
0450: FF 7F 66 64 69 31 02 80  1C 40 80 45 41 80 F8 FF  ..fdi1...@.EA...
0460: FF 7F F8 FF FF 7F 73 30  34 37 02 80 1C 40 80 48  ......s047...@.H
0470: 43 80 03 00 00 06 80 03  01 10 07 80 01 AE 04 02  C...............
0480: 00 10 44 80 00 AE 04 1C  40 80 45 41 80 F8 FF FF  ..D.....@.EA....
0490: 7F F8 FF FF 7F 73 30 34  37 02 80 1C 40 80 48 45  .....s047...@.HE
04A0: 80 03 00 00 06 80 03 01  10 44 80 01 AE 04 45 04  .........D....E.
04B0: 80 F8 FF FF 7F F8 FF FF  7F 66 64 6F 31 02 80 55  .........fdo1..U
04C0: 04 80 F8 FF FF 7F F8 FF  FF 7F 66 64 6F 31 52 3B  ..........fdo1R;
04D0: 80 F8 FF FF 7F F8 FF FF  7F 73 30 38 35 52 3B 80  .........s085R;.
04E0: F8 FF FF 7F F8 FF FF 7F  73 30 38 33 52 3B 80 F8  ........s083R;..
04F0: FF FF 7F F8 FF FF 7F 73  30 38 34 01 7C 02 46 00  .......s084.|.F.
0500: 1C 05 80 45 04 80 F8 FF  FF 7F F8 FF FF 7F 66 64  ...E..........fd
0510: 69 31 02 80 21 00                                 i1..!.          
```

#### Opcodes

```
  0: 0x0247 [0x42] SET_CLI_EVENT_CANCEL_DATA()
  1: 0x0248 [0x48] [System] [7378*]:
    → "Choose a picture to take."
  2: 0x024B [0x23] WAIT_FOR_DIALOG_INTERACTION
  3: 0x024C [0x45] LOAD_SCHEDULED_TASK: Load scheduler "fdo1" with entities [EventEntity, EventEntity], work=[200*, 0*]
  4: 0x025D [0x55] WAIT_LOAD_SCHEDULER: Wait for scheduler "fdo1" with entities [EventEntity, EventEntity], work=200*
  5: 0x026C [0x46] CAMERA_CONTROL: Disable user control
  6: 0x026E [0x38] SET_CLIENT_EVENT_MODE(mode=27*)
  7: 0x0271 [0x4E] SET_ENTITY_HIDE_FLAG: Hide LocalPlayer
  8: 0x0277 [0x03] ExtData[1]->WorkLocal[0] = 0*
  9: 0x027C [0x02] IF !(ExtData[1]->WorkLocal[0] == 0*) GOTO 0x04FE
 10: 0x0284 [0x45] LOAD_SCHEDULED_TASK: Load scheduler "s085" with entities [EventEntity, EventEntity], work=[253*, 0*]
 11: 0x0295 [0x1C] WAIT(60* ticks)
 12: 0x0298 [0x45] LOAD_SCHEDULED_TASK: Load scheduler "fdi1" with entities [EventEntity, EventEntity], work=[200*, 0*]
 13: 0x02A9 [0x1C] WAIT(60* ticks)
 14: 0x02AC [0x48] [System] [7379*]:
    → "First scene."
 15: 0x02AF [0x23] WAIT_FOR_DIALOG_INTERACTION
 16: 0x02B0 [0x45] LOAD_SCHEDULED_TASK: Load scheduler "fdo1" with entities [EventEntity, EventEntity], work=[200*, 0*]
 17: 0x02C1 [0x55] WAIT_LOAD_SCHEDULER: Wait for scheduler "fdo1" with entities [EventEntity, EventEntity], work=200*
 18: 0x02D0 [0x52] END_LOAD_SCHEDULER: End scheduler "s085" with entities [EventEntity, EventEntity], work=253*
 19: 0x02DF [0x45] LOAD_SCHEDULED_TASK: Load scheduler "s083" with entities [EventEntity, EventEntity], work=[253*, 0*]
 20: 0x02F0 [0x1C] WAIT(60* ticks)
 21: 0x02F3 [0x45] LOAD_SCHEDULED_TASK: Load scheduler "fdi1" with entities [EventEntity, EventEntity], work=[200*, 0*]
 22: 0x0304 [0x1C] WAIT(60* ticks)
 23: 0x0307 [0x48] [System] [7380*]:
    → "Second scene."
 24: 0x030A [0x23] WAIT_FOR_DIALOG_INTERACTION
 25: 0x030B [0x45] LOAD_SCHEDULED_TASK: Load scheduler "fdo1" with entities [EventEntity, EventEntity], work=[200*, 0*]
 26: 0x031C [0x55] WAIT_LOAD_SCHEDULER: Wait for scheduler "fdo1" with entities [EventEntity, EventEntity], work=200*
 27: 0x032B [0x52] END_LOAD_SCHEDULER: End scheduler "s083" with entities [EventEntity, EventEntity], work=253*
 28: 0x033A [0x45] LOAD_SCHEDULED_TASK: Load scheduler "s084" with entities [EventEntity, EventEntity], work=[253*, 0*]
 29: 0x034B [0x1C] WAIT(60* ticks)
 30: 0x034E [0x45] LOAD_SCHEDULED_TASK: Load scheduler "fdi1" with entities [EventEntity, EventEntity], work=[200*, 0*]
 31: 0x035F [0x1C] WAIT(60* ticks)
 32: 0x0362 [0x48] [System] [7381*]:
    → "Third scene."
 33: 0x0365 [0x23] WAIT_FOR_DIALOG_INTERACTION
 34: 0x0366 [0x24] CREATE_DIALOG(message_id=7382*, default_option=0*, option_flags=0*)
    → "Which picture will you take? [Show me again./First scene./Second scene./Third scene.]"
 35: 0x036D [0x25] WAIT_DIALOG_SELECT()
 36: 0x036E [0x02] IF !(Work_Zone[0] == 0*) GOTO 0x0379
 37: 0x0376 [0x01] GOTO 0x04AE
 38: 0x0379 [0x02] IF !(Work_Zone[0] == 1*) GOTO 0x03FC
 39: 0x0381 [0x45] LOAD_SCHEDULED_TASK: Load scheduler "fdo1" with entities [EventEntity, EventEntity], work=[200*, 0*]
 40: 0x0392 [0x55] WAIT_LOAD_SCHEDULER: Wait for scheduler "fdo1" with entities [EventEntity, EventEntity], work=200*
 41: 0x03A1 [0x52] END_LOAD_SCHEDULER: End scheduler "s084" with entities [EventEntity, EventEntity], work=253*
 42: 0x03B0 [0x45] LOAD_SCHEDULED_TASK: Load scheduler "s085" with entities [EventEntity, EventEntity], work=[253*, 0*]
 43: 0x03C1 [0x1C] WAIT(60* ticks)
 44: 0x03C4 [0x45] LOAD_SCHEDULED_TASK: Load scheduler "fdi1" with entities [EventEntity, EventEntity], work=[200*, 0*]
 45: 0x03D5 [0x1C] WAIT(120* ticks)
 46: 0x03D8 [0x45] LOAD_SCHEDULED_TASK: Load scheduler "s047" with entities [EventEntity, EventEntity], work=[254*, 0*]
 47: 0x03E9 [0x1C] WAIT(120* ticks)
 48: 0x03EC [0x48] [System] [7383*]:
    → "<Player> records the first scene."
 49: 0x03EF [0x03] ExtData[1]->WorkLocal[0] = 1*
 50: 0x03F4 [0x03] Work_Zone[1] = 1*
 51: 0x03F9 [0x01] GOTO 0x04AE
 52: 0x03FC [0x02] IF !(Work_Zone[0] == 2*) GOTO 0x047F
 53: 0x0404 [0x45] LOAD_SCHEDULED_TASK: Load scheduler "fdo1" with entities [EventEntity, EventEntity], work=[200*, 0*]
 54: 0x0415 [0x55] WAIT_LOAD_SCHEDULER: Wait for scheduler "fdo1" with entities [EventEntity, EventEntity], work=200*
 55: 0x0424 [0x52] END_LOAD_SCHEDULER: End scheduler "s084" with entities [EventEntity, EventEntity], work=253*
 56: 0x0433 [0x45] LOAD_SCHEDULED_TASK: Load scheduler "s083" with entities [EventEntity, EventEntity], work=[253*, 0*]
 57: 0x0444 [0x1C] WAIT(60* ticks)
 58: 0x0447 [0x45] LOAD_SCHEDULED_TASK: Load scheduler "fdi1" with entities [EventEntity, EventEntity], work=[200*, 0*]
 59: 0x0458 [0x1C] WAIT(120* ticks)
 60: 0x045B [0x45] LOAD_SCHEDULED_TASK: Load scheduler "s047" with entities [EventEntity, EventEntity], work=[254*, 0*]
 61: 0x046C [0x1C] WAIT(120* ticks)
 62: 0x046F [0x48] [System] [7384*]:
    → "<Player> records the second scene."
 63: 0x0472 [0x03] ExtData[1]->WorkLocal[0] = 1*
 64: 0x0477 [0x03] Work_Zone[1] = 2*
 65: 0x047C [0x01] GOTO 0x04AE
 66: 0x047F [0x02] IF !(Work_Zone[0] == 3*) GOTO 0x04AE
 67: 0x0487 [0x1C] WAIT(120* ticks)
 68: 0x048A [0x45] LOAD_SCHEDULED_TASK: Load scheduler "s047" with entities [EventEntity, EventEntity], work=[254*, 0*]
 69: 0x049B [0x1C] WAIT(120* ticks)
 70: 0x049E [0x48] [System] [7385*]:
    → "<Player> records the third scene."
 71: 0x04A1 [0x03] ExtData[1]->WorkLocal[0] = 1*
 72: 0x04A6 [0x03] Work_Zone[1] = 3*
 73: 0x04AB [0x01] GOTO 0x04AE

SUBROUTINE_04AE:
 74: 0x04AE [0x45] LOAD_SCHEDULED_TASK: Load scheduler "fdo1" with entities [EventEntity, EventEntity], work=[200*, 0*]
 75: 0x04BF [0x55] WAIT_LOAD_SCHEDULER: Wait for scheduler "fdo1" with entities [EventEntity, EventEntity], work=200*
 76: 0x04CE [0x52] END_LOAD_SCHEDULER: End scheduler "s085" with entities [EventEntity, EventEntity], work=253*
 77: 0x04DD [0x52] END_LOAD_SCHEDULER: End scheduler "s083" with entities [EventEntity, EventEntity], work=253*
 78: 0x04EC [0x52] END_LOAD_SCHEDULER: End scheduler "s084" with entities [EventEntity, EventEntity], work=253*
 79: 0x04FB [0x01] GOTO 0x027C
 80: 0x04FE [0x46] CAMERA_CONTROL: Restore default settings
 81: 0x0500 [0x1C] WAIT(60* ticks)
 82: 0x0503 [0x45] LOAD_SCHEDULED_TASK: Load scheduler "fdi1" with entities [EventEntity, EventEntity], work=[200*, 0*]
 83: 0x0514 [0x21] END_EVENT
 84: 0x0515 [0x00] END_REQSTACK()
```

### Event 137

#### Metadata

| Field        | Value   |
|--------------|---------|
| Entrypoint   | 0x0516  |
| Data Size    | 6 bytes |
| Instructions | 4       |

```
      00 01 02 03 04 05 06 07  08 09 0A 0B 0C 0D 0E 0F
      -- -- -- -- -- -- -- --  -- -- -- -- -- -- -- --
0510:                   48 46  80 23 21 00                    HF.#!.    
```

#### Opcodes

```
  0: 0x0516 [0x48] [System] [7386*]:
    → "<Player> takes in the surrounding scenery. ...The view is breathtaking."
  1: 0x0519 [0x23] WAIT_FOR_DIALOG_INTERACTION
  2: 0x051A [0x21] END_EVENT
  3: 0x051B [0x00] END_REQSTACK()
```

### Event 138

#### Metadata

| Field        | Value   |
|--------------|---------|
| Entrypoint   | 0x051C  |
| Data Size    | 6 bytes |
| Instructions | 4       |

```
      00 01 02 03 04 05 06 07  08 09 0A 0B 0C 0D 0E 0F
      -- -- -- -- -- -- -- --  -- -- -- -- -- -- -- --
0510:                                      48 47 80 23              HG.#
0520: 21 00                                             !.              
```

#### Opcodes

```
  0: 0x051C [0x48] [System] [7387*]:
    → "<Player> thinks back on Balakaf's words. ...Perhaps this is not the best time to record a picture."
  1: 0x051F [0x23] WAIT_FOR_DIALOG_INTERACTION
  2: 0x0520 [0x21] END_EVENT
  3: 0x0521 [0x00] END_REQSTACK()
```

### Event 65535.3

#### Metadata

| Field        | Value    |
|--------------|----------|
| Entrypoint   | 0x0522   |
| Data Size    | 10 bytes |
| Instructions | 2        |

```
      00 01 02 03 04 05 06 07  08 09 0A 0B 0C 0D 0E 0F
      -- -- -- -- -- -- -- --  -- -- -- -- -- -- -- --
0520:       37 48 80 49 80 4A  80 4B 80 00                7H.I.J.K..    
```

#### Opcodes

```
  0: 0x0522 [0x37] UPDATE_EVENT_POSITION_AND_DIR: x=-275.711*, z=-62.481*, y=-7.999*, direction=56.2°*
  1: 0x052B [0x00] END_REQSTACK()
```

### Event 65535.4

#### Metadata

| Field        | Value    |
|--------------|----------|
| Entrypoint   | 0x052C   |
| Data Size    | 10 bytes |
| Instructions | 2        |

```
      00 01 02 03 04 05 06 07  08 09 0A 0B 0C 0D 0E 0F
      -- -- -- -- -- -- -- --  -- -- -- -- -- -- -- --
0520:                                      37 4C 80 4D              7L.M
0530: 80 4E 80 4F 80 00                                 .N.O..          
```

#### Opcodes

```
  0: 0x052C [0x37] UPDATE_EVENT_POSITION_AND_DIR: x=518.561*, z=-469.459*, y=-23.750*, direction=262.9°*
  1: 0x0535 [0x00] END_REQSTACK()
```

### Event 65535.5

#### Metadata

| Field        | Value    |
|--------------|----------|
| Entrypoint   | 0x0536   |
| Data Size    | 10 bytes |
| Instructions | 2        |

```
      00 01 02 03 04 05 06 07  08 09 0A 0B 0C 0D 0E 0F
      -- -- -- -- -- -- -- --  -- -- -- -- -- -- -- --
0530:                   37 50  80 51 80 52 80 53 80 00        7P.Q.R.S..
```

#### Opcodes

```
  0: 0x0536 [0x37] UPDATE_EVENT_POSITION_AND_DIR: x=-388.457*, z=-570.038*, y=7.691*, direction=184.1°*
  1: 0x053F [0x00] END_REQSTACK()
```

### Event 65535.6

#### Metadata

| Field        | Value    |
|--------------|----------|
| Entrypoint   | 0x0540   |
| Data Size    | 10 bytes |
| Instructions | 2        |

```
      00 01 02 03 04 05 06 07  08 09 0A 0B 0C 0D 0E 0F
      -- -- -- -- -- -- -- --  -- -- -- -- -- -- -- --
0540: 37 54 80 55 80 56 80 57  80 00                    7T.U.V.W..      
```

#### Opcodes

```
  0: 0x0540 [0x37] UPDATE_EVENT_POSITION_AND_DIR: x=-385.670*, z=-570.493*, y=7.602*, direction=193.7°*
  1: 0x0549 [0x00] END_REQSTACK()
```

### Event 65535.7

#### Metadata

| Field        | Value    |
|--------------|----------|
| Entrypoint   | 0x054A   |
| Data Size    | 15 bytes |
| Instructions | 5        |

```
      00 01 02 03 04 05 06 07  08 09 0A 0B 0C 0D 0E 0F
      -- -- -- -- -- -- -- --  -- -- -- -- -- -- -- --
0540:                                32 58 80 1F 00 59            2X...Y
0550: 80 5A 80 5B 80 1F 01 6F  00                       .Z.[...o.       
```

#### Opcodes

```
  0: 0x054A [0x32] ExtData[1]->MainSpeed = 10* * 0.1
  1: 0x054D [0x1F] MOVE_ENTITY: EventEntity moves to X=-385.672*, Z=-570.132*, Y=7.603*
  2: 0x0555 [0x1F] MOVE_ENTITY: Update entity position (mode=1)
  3: 0x0557 [0x6F] WAIT_FRAME_DELAY: Yield until WaitTime reaches zero
  4: 0x0558 [0x00] END_REQSTACK()
```

### Event 65535.8

#### Metadata

| Field        | Value    |
|--------------|----------|
| Entrypoint   | 0x0559   |
| Data Size    | 10 bytes |
| Instructions | 2        |

```
      00 01 02 03 04 05 06 07  08 09 0A 0B 0C 0D 0E 0F
      -- -- -- -- -- -- -- --  -- -- -- -- -- -- -- --
0550:                             37 5C 80 5D 80 5E 80           7\.].^.
0560: 5F 80 00                                          _..             
```

#### Opcodes

```
  0: 0x0559 [0x37] UPDATE_EVENT_POSITION_AND_DIR: x=3.927*, z=17.988*, y=-22.000*, direction=0.7°*
  1: 0x0562 [0x00] END_REQSTACK()
```

### Event 65535.9

#### Metadata

| Field        | Value    |
|--------------|----------|
| Entrypoint   | 0x0563   |
| Data Size    | 10 bytes |
| Instructions | 2        |

```
      00 01 02 03 04 05 06 07  08 09 0A 0B 0C 0D 0E 0F
      -- -- -- -- -- -- -- --  -- -- -- -- -- -- -- --
0560:          37 60 80 61 80  62 80 63 80 00              7`.a.b.c..   
```

#### Opcodes

```
  0: 0x0563 [0x37] UPDATE_EVENT_POSITION_AND_DIR: x=136.516*, z=-339.962*, y=-15.055*, direction=60.5°*
  1: 0x056C [0x00] END_REQSTACK()
```

### Event 65535.10

#### Metadata

| Field        | Value    |
|--------------|----------|
| Entrypoint   | 0x056D   |
| Data Size    | 15 bytes |
| Instructions | 5        |

```
      00 01 02 03 04 05 06 07  08 09 0A 0B 0C 0D 0E 0F
      -- -- -- -- -- -- -- --  -- -- -- -- -- -- -- --
0560:                                         32 64 80               2d.
0570: 1F 00 65 80 66 80 67 80  1F 01 6F 00              ..e.f.g...o.    
```

#### Opcodes

```
  0: 0x056D [0x32] ExtData[1]->MainSpeed = 38* * 0.1
  1: 0x0570 [0x1F] MOVE_ENTITY: EventEntity moves to X=138.901*, Z=-345.293*, Y=-15.205*
  2: 0x0578 [0x1F] MOVE_ENTITY: Update entity position (mode=1)
  3: 0x057A [0x6F] WAIT_FRAME_DELAY: Yield until WaitTime reaches zero
  4: 0x057B [0x00] END_REQSTACK()
```

### Event 65535.11

#### Metadata

| Field        | Value    |
|--------------|----------|
| Entrypoint   | 0x057C   |
| Data Size    | 37 bytes |
| Instructions | 10       |

```
      00 01 02 03 04 05 06 07  08 09 0A 0B 0C 0D 0E 0F
      -- -- -- -- -- -- -- --  -- -- -- -- -- -- -- --
0570:                                      33 01 7B F8              3.{.
0580: FF FF 7F 32 64 80 5A 00  68 80 69 80 6A 80 5A 01  ...2d.Z.h.i.j.Z.
0590: 1C 06 80 5A 00 6B 80 6C  80 6D 80 5A 01 1C 6E 80  ...Z.k.l.m.Z..n.
05A0: 00                                                .               
```

#### Opcodes

```
  0: 0x057C [0x33] EventEntity->Render.Flags0 |= 0x200000 // Bit 21 (flag=0x01)
  1: 0x057E [0x7B] EventEntity stops talking
  2: 0x0583 [0x32] ExtData[1]->MainSpeed = 38* * 0.1
  3: 0x0586 [0x5A] UPDATE_EVENT_POSITION: Set EventEntity MovePosition to X=139.930*, Z=-350.399*, Y=-14.646*
  4: 0x058E [0x5A] UPDATE_EVENT_POSITION: Move EventEntity incrementally towards MovePosition
  5: 0x0590 [0x1C] WAIT(1* ticks)
  6: 0x0593 [0x5A] UPDATE_EVENT_POSITION: Set EventEntity MovePosition to X=140.669*, Z=-354.999*, Y=-14.113*
  7: 0x059B [0x5A] UPDATE_EVENT_POSITION: Move EventEntity incrementally towards MovePosition
  8: 0x059D [0x1C] WAIT(30* ticks)
  9: 0x05A0 [0x00] END_REQSTACK()
```

### Event 65535.12

#### Metadata

| Field        | Value    |
|--------------|----------|
| Entrypoint   | 0x05A1   |
| Data Size    | 12 bytes |
| Instructions | 3        |

```
      00 01 02 03 04 05 06 07  08 09 0A 0B 0C 0D 0E 0F
      -- -- -- -- -- -- -- --  -- -- -- -- -- -- -- --
05A0:    33 00 37 6F 80 70 80  71 80 72 80 00            3.7o.p.q.r..   
```

#### Opcodes

```
  0: 0x05A1 [0x33] EventEntity->Render.Flags0 &= ~ 0x200000 // Bit 21 (flag=0x00)
  1: 0x05A3 [0x37] UPDATE_EVENT_POSITION_AND_DIR: x=178.211*, z=-370.623*, y=-14.657*, direction=79.6°*
  2: 0x05AC [0x00] END_REQSTACK()
```

### Event 65535.13

#### Metadata

| Field        | Value    |
|--------------|----------|
| Entrypoint   | 0x05AD   |
| Data Size    | 20 bytes |
| Instructions | 6        |

```
      00 01 02 03 04 05 06 07  08 09 0A 0B 0C 0D 0E 0F
      -- -- -- -- -- -- -- --  -- -- -- -- -- -- -- --
05A0:                                         32 73 80               2s.
05B0: 1F 00 74 80 75 80 76 80  1F 01 6F 1E 21 F2 04 01  ..t.u.v...o.!...
05C0: 00                                                .               
```

#### Opcodes

```
  0: 0x05AD [0x32] ExtData[1]->MainSpeed = 11* * 0.1
  1: 0x05B0 [0x1F] MOVE_ENTITY: EventEntity moves to X=178.580*, Z=-372.523*, Y=-14.687*
  2: 0x05B8 [0x1F] MOVE_ENTITY: Update entity position (mode=1)
  3: 0x05BA [0x6F] WAIT_FRAME_DELAY: Yield until WaitTime reaches zero
  4: 0x05BB [0x1E] EventEntity looks at Razfahd (ID: 17101345/0x0104F221) and starts talking
  5: 0x05C0 [0x00] END_REQSTACK()
```

### Event 65535.14

#### Metadata

| Field        | Value    |
|--------------|----------|
| Entrypoint   | 0x05C1   |
| Data Size    | 20 bytes |
| Instructions | 6        |

```
      00 01 02 03 04 05 06 07  08 09 0A 0B 0C 0D 0E 0F
      -- -- -- -- -- -- -- --  -- -- -- -- -- -- -- --
05C0:    32 73 80 1F 00 77 80  78 80 79 80 1F 01 6F 1E   2s...w.x.y...o.
05D0: 21 F2 04 01 00                                    !....           
```

#### Opcodes

```
  0: 0x05C1 [0x32] ExtData[1]->MainSpeed = 11* * 0.1
  1: 0x05C4 [0x1F] MOVE_ENTITY: EventEntity moves to X=181.403*, Z=-374.958*, Y=-15.193*
  2: 0x05CC [0x1F] MOVE_ENTITY: Update entity position (mode=1)
  3: 0x05CE [0x6F] WAIT_FRAME_DELAY: Yield until WaitTime reaches zero
  4: 0x05CF [0x1E] EventEntity looks at Razfahd (ID: 17101345/0x0104F221) and starts talking
  5: 0x05D4 [0x00] END_REQSTACK()
```

### Event 65535.15

#### Metadata

| Field        | Value    |
|--------------|----------|
| Entrypoint   | 0x05D5   |
| Data Size    | 10 bytes |
| Instructions | 2        |

```
      00 01 02 03 04 05 06 07  08 09 0A 0B 0C 0D 0E 0F
      -- -- -- -- -- -- -- --  -- -- -- -- -- -- -- --
05D0:                37 7A 80  7B 80 7C 80 0C 80 00          7z.{.|.... 
```

#### Opcodes

```
  0: 0x05D5 [0x37] UPDATE_EVENT_POSITION_AND_DIR: x=178.534*, z=-378.681*, y=-15.084*, direction=90.0°*
  1: 0x05DE [0x00] END_REQSTACK()
```

### Event 65535.16

#### Metadata

| Field        | Value    |
|--------------|----------|
| Entrypoint   | 0x05DF   |
| Data Size    | 10 bytes |
| Instructions | 2        |

```
      00 01 02 03 04 05 06 07  08 09 0A 0B 0C 0D 0E 0F
      -- -- -- -- -- -- -- --  -- -- -- -- -- -- -- --
05D0:                                               37                 7
05E0: 7D 80 7E 80 7F 80 80 80  00                       }.~......       
```

#### Opcodes

```
  0: 0x05DF [0x37] UPDATE_EVENT_POSITION_AND_DIR: x=180.269*, z=-376.446*, y=-15.246*, direction=93.0°*
  1: 0x05E8 [0x00] END_REQSTACK()
```

### Event 65535.17

#### Metadata

| Field        | Value   |
|--------------|---------|
| Entrypoint   | 0x05E9  |
| Data Size    | 4 bytes |
| Instructions | 2       |

```
      00 01 02 03 04 05 06 07  08 09 0A 0B 0C 0D 0E 0F
      -- -- -- -- -- -- -- --  -- -- -- -- -- -- -- --
05E0:                             32 81 80 00                    2...   
```

#### Opcodes

```
  0: 0x05E9 [0x32] ExtData[1]->MainSpeed = 40* * 0.1
  1: 0x05EC [0x00] END_REQSTACK()
```

### Event 65535.18

#### Metadata

| Field        | Value    |
|--------------|----------|
| Entrypoint   | 0x05ED   |
| Data Size    | 10 bytes |
| Instructions | 2        |

```
      00 01 02 03 04 05 06 07  08 09 0A 0B 0C 0D 0E 0F
      -- -- -- -- -- -- -- --  -- -- -- -- -- -- -- --
05E0:                                         6C F8 FF               l..
05F0: FF 7F 82 80 83 80 00                              .......         
```

#### Opcodes

```
  0: 0x05ED [0x6C] FADE_ENTITY_COLOR(entity_id=EventEntity, end_alpha=128*, fade_time=15*)
  1: 0x05F6 [0x00] END_REQSTACK()
```

### Event 65535.19

#### Metadata

| Field        | Value    |
|--------------|----------|
| Entrypoint   | 0x05F7   |
| Data Size    | 10 bytes |
| Instructions | 2        |

```
      00 01 02 03 04 05 06 07  08 09 0A 0B 0C 0D 0E 0F
      -- -- -- -- -- -- -- --  -- -- -- -- -- -- -- --
05F0:                      6C  F8 FF FF 7F 02 80 06 80         l........
0600: 00                                                .               
```

#### Opcodes

```
  0: 0x05F7 [0x6C] FADE_ENTITY_COLOR(entity_id=EventEntity, end_alpha=0*, fade_time=1*)
  1: 0x0600 [0x00] END_REQSTACK()
```

### Event 65535.20

#### Metadata

| Field        | Value    |
|--------------|----------|
| Entrypoint   | 0x0601   |
| Data Size    | 15 bytes |
| Instructions | 5        |

```
      00 01 02 03 04 05 06 07  08 09 0A 0B 0C 0D 0E 0F
      -- -- -- -- -- -- -- --  -- -- -- -- -- -- -- --
0600:    32 64 80 1F 00 84 80  85 80 86 80 1F 01 6F 00   2d...........o.
```

#### Opcodes

```
  0: 0x0601 [0x32] ExtData[1]->MainSpeed = 38* * 0.1
  1: 0x0604 [0x1F] MOVE_ENTITY: EventEntity moves to X=182.153*, Z=-378.275*, Y=-15.118*
  2: 0x060C [0x1F] MOVE_ENTITY: Update entity position (mode=1)
  3: 0x060E [0x6F] WAIT_FRAME_DELAY: Yield until WaitTime reaches zero
  4: 0x060F [0x00] END_REQSTACK()
```

### Event 65535.21

#### Metadata

| Field        | Value    |
|--------------|----------|
| Entrypoint   | 0x0610   |
| Data Size    | 20 bytes |
| Instructions | 6        |

```
      00 01 02 03 04 05 06 07  08 09 0A 0B 0C 0D 0E 0F
      -- -- -- -- -- -- -- --  -- -- -- -- -- -- -- --
0610: 32 73 80 1F 00 87 80 88  80 89 80 1F 01 6F 1E 21  2s...........o.!
0620: F2 04 01 00                                       ....            
```

#### Opcodes

```
  0: 0x0610 [0x32] ExtData[1]->MainSpeed = 11* * 0.1
  1: 0x0613 [0x1F] MOVE_ENTITY: EventEntity moves to X=182.517*, Z=-380.391*, Y=-15.125*
  2: 0x061B [0x1F] MOVE_ENTITY: Update entity position (mode=1)
  3: 0x061D [0x6F] WAIT_FRAME_DELAY: Yield until WaitTime reaches zero
  4: 0x061E [0x1E] EventEntity looks at Razfahd (ID: 17101345/0x0104F221) and starts talking
  5: 0x0623 [0x00] END_REQSTACK()
```

### Event 65535.22

#### Metadata

| Field        | Value    |
|--------------|----------|
| Entrypoint   | 0x0624   |
| Data Size    | 15 bytes |
| Instructions | 5        |

```
      00 01 02 03 04 05 06 07  08 09 0A 0B 0C 0D 0E 0F
      -- -- -- -- -- -- -- --  -- -- -- -- -- -- -- --
0620:             32 8A 80 1F  00 8B 80 8C 80 8D 80 1F      2...........
0630: 01 6F 00                                          .o.             
```

#### Opcodes

```
  0: 0x0624 [0x32] ExtData[1]->MainSpeed = 37* * 0.1
  1: 0x0627 [0x1F] MOVE_ENTITY: EventEntity moves to X=178.523*, Z=-373.112*, Y=-14.716*
  2: 0x062F [0x1F] MOVE_ENTITY: Update entity position (mode=1)
  3: 0x0631 [0x6F] WAIT_FRAME_DELAY: Yield until WaitTime reaches zero
  4: 0x0632 [0x00] END_REQSTACK()
```

### Event 65535.23

#### Metadata

| Field        | Value    |
|--------------|----------|
| Entrypoint   | 0x0633   |
| Data Size    | 37 bytes |
| Instructions | 5        |

```
      00 01 02 03 04 05 06 07  08 09 0A 0B 0C 0D 0E 0F
      -- -- -- -- -- -- -- --  -- -- -- -- -- -- -- --
0630:          03 01 00 07 7F  1A 7D 06 66 02 00 F8 FF     ......}.f....
0640: FF 7F F8 FF FF 7F 73 68  61 30 53 F8 FF FF 7F F8  ......sha0S.....
0650: FF FF 7F 73 68 61 30 00                           ...sha0.        
```

#### Opcodes

```
  0: 0x0633 [0x03] ExtData[1]->WorkLocal[1] = Entity->Race
  1: 0x0638 [0x1A] CALL_SUBROUTINE(address=0x067D)
  2: 0x063B [0x66] LOAD_EXT_SCHEDULER_MAIN: Load scheduler "sha0" with entities [EventEntity, EventEntity], work=ExtData[1]->WorkLocal[2]
  3: 0x064A [0x53] WAIT_SCHEDULER_TASK: Wait for scheduler "sha0" with entities [EventEntity, EventEntity]
  4: 0x0657 [0x00] END_REQSTACK()
```

### Event 65535.24

#### Metadata

| Field        | Value     |
|--------------|-----------|
| Entrypoint   | 0x0658    |
| Data Size    | 185 bytes |
| Instructions | 13        |

```
      00 01 02 03 04 05 06 07  08 09 0A 0B 0C 0D 0E 0F
      -- -- -- -- -- -- -- --  -- -- -- -- -- -- -- --
0650:                          03 01 00 07 7F 1A 7D 06          ......}.
0660: 66 02 00 F8 FF FF 7F F8  FF FF 7F 73 68 61 31 53  f..........sha1S
0670: F8 FF FF 7F F8 FF FF 7F  73 68 61 31 00 03 02 00  ........sha1....
0680: 01 00 02 02 00 8E 80 05  92 06 08 02 00 06 80 01  ................
0690: 97 06 08 02 00 07 80 14  02 00 58 80 07 02 00 8F  ..........X.....
06A0: 80 1B 03 02 00 01 00 02  02 00 8E 80 05 B7 06 08  ................
06B0: 02 00 06 80 01 BC 06 08  02 00 07 80 14 02 00 58  ...............X
06C0: 80 07 02 00 90 80 1B 03  02 00 01 00 02 02 00 8E  ................
06D0: 80 05 DC 06 08 02 00 06  80 01 E1 06 08 02 00 07  ................
06E0: 80 14 02 00 58 80 07 02  00 03 80 1B 03 02 00 01  ....X...........
06F0: 00 02 02 00 8E 80 05 01  07 08 02 00 06 80 01 06  ................
0700: 07 08 02 00 07 80 14 02  00 58 80 07 02 00 91 80  .........X......
0710: 1B                                                .               
```

#### Opcodes

```
  0: 0x0658 [0x03] ExtData[1]->WorkLocal[1] = Entity->Race
  1: 0x065D [0x1A] CALL_SUBROUTINE(address=0x067D)
  2: 0x0660 [0x66] LOAD_EXT_SCHEDULER_MAIN: Load scheduler "sha1" with entities [EventEntity, EventEntity], work=ExtData[1]->WorkLocal[2]
  3: 0x066F [0x53] WAIT_SCHEDULER_TASK: Wait for scheduler "sha1" with entities [EventEntity, EventEntity]
  4: 0x067C [0x00] END_REQSTACK()

SUBROUTINE_067D:
  5: 0x067D [0x03] ExtData[1]->WorkLocal[2] = ExtData[1]->WorkLocal[1]
  6: 0x0682 [0x02] IF !(ExtData[1]->WorkLocal[2] > 5*) GOTO 0x0692
  7: 0x068A [0x08] ExtData[1]->WorkLocal[2] -= 1*
  8: 0x068F [0x01] GOTO 0x0697
  9: 0x0692 [0x08] ExtData[1]->WorkLocal[2] -= 2*

SUBROUTINE_0697:
 10: 0x0697 [0x14] ExtData[1]->WorkLocal[2] *= 10*
 11: 0x069C [0x07] ExtData[1]->WorkLocal[2] += 9*
 12: 0x06A1 [0x1B] RETURN
```

#### Data or dead code:

```
# Dead code (unreachable instructions):
     0x06A2 [0x03] ExtData[1]->WorkLocal[2] = ExtData[1]->WorkLocal[1]
     0x06A7 [0x02] IF !(ExtData[1]->WorkLocal[2] > 5*) GOTO 0x06B7
     0x06AF [0x08] ExtData[1]->WorkLocal[2] -= 1*
     0x06B4 [0x01] GOTO 0x06BC
     0x06B7 [0x08] ExtData[1]->WorkLocal[2] -= 2*
     0x06BC [0x14] ExtData[1]->WorkLocal[2] *= 10*
     0x06C1 [0x07] ExtData[1]->WorkLocal[2] += 70*
     0x06C6 [0x1B] RETURN
     0x06C7 [0x03] ExtData[1]->WorkLocal[2] = ExtData[1]->WorkLocal[1]
     0x06CC [0x02] IF !(ExtData[1]->WorkLocal[2] > 5*) GOTO 0x06DC
     0x06D4 [0x08] ExtData[1]->WorkLocal[2] -= 1*
     0x06D9 [0x01] GOTO 0x06E1
     0x06DC [0x08] ExtData[1]->WorkLocal[2] -= 2*
     0x06E1 [0x14] ExtData[1]->WorkLocal[2] *= 10*
     0x06E6 [0x07] ExtData[1]->WorkLocal[2] += 140*
     0x06EB [0x1B] RETURN
     0x06EC [0x03] ExtData[1]->WorkLocal[2] = ExtData[1]->WorkLocal[1]
     0x06F1 [0x02] IF !(ExtData[1]->WorkLocal[2] > 5*) GOTO 0x0701
     0x06F9 [0x08] ExtData[1]->WorkLocal[2] -= 1*
     0x06FE [0x01] GOTO 0x0706
     0x0701 [0x08] ExtData[1]->WorkLocal[2] -= 2*
     0x0706 [0x14] ExtData[1]->WorkLocal[2] *= 10*
     0x070B [0x07] ExtData[1]->WorkLocal[2] += 210*
     0x0710 [0x1B] RETURN
```

### Event 14

#### Metadata

| Field        | Value      |
|--------------|------------|
| Entrypoint   | 0x0711     |
| Data Size    | 1285 bytes |
| Instructions | 170        |

```
      00 01 02 03 04 05 06 07  08 09 0A 0B 0C 0D 0E 0F
      -- -- -- -- -- -- -- --  -- -- -- -- -- -- -- --
0710:    42 45 04 80 F8 FF FF  7F F8 FF FF 7F 66 64 6F   BE..........fdo
0720: 31 02 80 55 04 80 F8 FF  FF 7F F8 FF FF 7F 66 64  1..U..........fd
0730: 6F 31 5C 00 92 80 5C 01  92 80 38 93 80 46 01 37  o1\...\...8..F.7
0740: 94 80 95 80 96 80 97 80  4E 00 3F F2 04 01 4E 00  ........N.?...N.
0750: 40 F2 04 01 92 01 3F F2  04 01 92 01 40 F2 04 01  @.....?.....@...
0760: 80 3F F2 04 01 80 40 F2  04 01 9A 45 98 80 F8 FF  .?....@....E....
0770: FF 7F F8 FF FF 7F 73 32  37 63 02 80 45 04 80 F8  ......s27c..E...
0780: FF FF 7F F8 FF FF 7F 66  64 69 31 02 80 27 0A 3F  .......fdi1..'.?
0790: F2 04 01 02 2B 3D F2 04  01 99 80 23 2A 0A 3F F2  ....+=.....#*.?.
07A0: 04 01 4B 3F F2 04 01 9A  80 6F 76 3F F2 04 01 79  ..K?.....ov?...y
07B0: 00 3F F2 04 01 40 F2 04  01 45 98 80 F8 FF FF 7F  .?...@...E......
07C0: F8 FF FF 7F 73 32 37 64  02 80 27 0A 40 F2 04 01  ....s27d..'.@...
07D0: 03 2B 3D F2 04 01 9B 80  23 2A 0A 40 F2 04 01 4A  .+=.....#*.@...J
07E0: 40 F2 04 01 3F F2 04 01  6F 76 40 F2 04 01 66 8F  @...?...ov@...f.
07F0: 80 3F F2 04 01 3F F2 04  01 74 6C 6B 30 1C 9C 80  .?...?...tlk0...
0800: 45 98 80 F8 FF FF 7F F8  FF FF 7F 73 32 37 65 02  E..........s27e.
0810: 80 2B 3F F2 04 01 9D 80  23 5B 9E 80 40 F2 04 01  .+?.....#[..@...
0820: 40 F2 04 01 74 6C 6B 30  2B 40 F2 04 01 9F 80 23  @...tlk0+@.....#
0830: 5B 9E 80 40 F2 04 01 40  F2 04 01 74 6C 6B 31 66  [..@...@...tlk1f
0840: 8F 80 3F F2 04 01 3F F2  04 01 74 6C 6B 31 53 3F  ..?...?...tlk1S?
0850: F2 04 01 3F F2 04 01 74  6C 6B 31 4B 3F F2 04 01  ...?...tlk1K?...
0860: A0 80 6E 3F F2 04 01 93  80 99 3F F2 04 01 99 3F  ..n?......?....?
0870: F2 04 01 2B 3F F2 04 01  A1 80 23 4B 40 F2 04 01  ...+?.....#K@...
0880: A0 80 2B 40 F2 04 01 A2  80 23 45 98 80 F8 FF FF  ..+@.....#E.....
0890: 7F F8 FF FF 7F 73 32 37  66 02 80 27 0A 3F F2 04  .....s27f..'.?..
08A0: 01 09 27 0A 40 F2 04 01  05 1C A3 80 4A F0 FF FF  ..'.@.......J...
08B0: 7F 3F F2 04 01 2A 0A 3F  F2 04 01 2A 0A 40 F2 04  .?...*.?...*.@..
08C0: 01 2B 3F F2 04 01 56 80  23 66 8F 80 3F F2 04 01  .+?...V.#f..?...
08D0: 3F F2 04 01 74 6C 6B 30  2B 3F F2 04 01 5B 80 23  ?...tlk0+?...[.#
08E0: 4A 40 F2 04 01 3F F2 04  01 66 8F 80 3F F2 04 01  J@...?...f..?...
08F0: 3F F2 04 01 74 6C 6B 31  27 0A 3F F2 04 01 0A 2B  ?...tlk1'.?....+
0900: 40 F2 04 01 A4 80 23 2B  3F F2 04 01 A5 80 23 2A  @.....#+?.....#*
0910: 0A 3F F2 04 01 27 0A 3F  F2 04 01 0B 1C A3 80 45  .?...'.?.......E
0920: 98 80 F8 FF FF 7F F8 FF  FF 7F 73 32 37 67 02 80  ..........s27g..
0930: 29 0A 40 F2 04 01 06 4A  F0 FF FF 7F 40 F2 04 01  ).@....J....@...
0940: 2A 0A 3F F2 04 01 4A 40  F2 04 01 F0 FF FF 7F 1C  *.?...J@........
0950: 6E 80 1E 40 F2 04 01 2B  40 F2 04 01 A6 80 23 66  n..@...+@.....#f
0960: 8F 80 3F F2 04 01 3F F2  04 01 73 69 72 31 53 3F  ..?...?...sir1S?
0970: F2 04 01 3F F2 04 01 73  69 72 31 66 8F 80 3F F2  ...?...sir1f..?.
0980: 04 01 3F F2 04 01 73 68  61 31 53 3F F2 04 01 3F  ..?...sha1S?...?
0990: F2 04 01 73 68 61 31 4A  3F F2 04 01 40 F2 04 01  ...sha1J?...@...
09A0: 6F 76 3F F2 04 01 4A F0  FF FF 7F 3F F2 04 01 66  ov?...J....?...f
09B0: 8F 80 3F F2 04 01 3F F2  04 01 74 6C 6B 30 2B 3F  ..?...?...tlk0+?
09C0: F2 04 01 A7 80 23 66 8F  80 3F F2 04 01 3F F2 04  .....#f..?...?..
09D0: 01 74 6C 6B 31 4A 40 F2  04 01 3F F2 04 01 2B 40  .tlk1J@...?...+@
09E0: F2 04 01 A8 80 23 5B 9E  80 40 F2 04 01 40 F2 04  .....#[..@...@..
09F0: 01 74 6C 6B 30 2B 40 F2  04 01 A9 80 23 5B 9E 80  .tlk0+@.....#[..
0A00: 40 F2 04 01 40 F2 04 01  74 6C 6B 31 66 8F 80 3F  @...@...tlk1f..?
0A10: F2 04 01 3F F2 04 01 74  6C 6B 30 4A F0 FF FF 7F  ...?...tlk0J....
0A20: 40 F2 04 01 2B 3F F2 04  01 AA 80 23 66 8F 80 3F  @...+?.....#f..?
0A30: F2 04 01 3F F2 04 01 74  6C 6B 31 5B 9E 80 40 F2  ...?...tlk1[..@.
0A40: 04 01 40 F2 04 01 61 6E  67 30 2B 40 F2 04 01 AB  ..@...ang0+@....
0A50: 80 23 6E 3F F2 04 01 AC  80 99 3F F2 04 01 99 3F  .#n?......?....?
0A60: F2 04 01 27 0A 3F F2 04  01 08 2B 3F F2 04 01 AD  ...'.?....+?....
0A70: 80 23 2A 0A 3F F2 04 01  4A F0 FF FF 7F 3F F2 04  .#*.?...J....?..
0A80: 01 45 98 80 F8 FF FF 7F  F8 FF FF 7F 73 32 37 68  .E..........s27h
0A90: 02 80 79 00 F0 FF FF 7F  3F F2 04 01 29 0A 3F F2  ..y.....?...).?.
0AA0: 04 01 0C 4A F0 FF FF 7F  3F F2 04 01 4A 40 F2 04  ...J....?...J@..
0AB0: 01 3F F2 04 01 2B 3F F2  04 01 AE 80 23 66 8F 80  .?...+?.....#f..
0AC0: 3F F2 04 01 3F F2 04 01  73 69 72 31 53 3F F2 04  ?...?...sir1S?..
0AD0: 01 3F F2 04 01 73 69 72  31 66 8F 80 3F F2 04 01  .?...sir1f..?...
0AE0: 3F F2 04 01 73 68 61 31  53 3F F2 04 01 3F F2 04  ?...sha1S?...?..
0AF0: 01 73 68 61 31 4A 3F F2  04 01 40 F2 04 01 52 98  .sha1J?...@...R.
0B00: 80 F8 FF FF 7F F8 FF FF  7F 73 32 37 68 45 98 80  .........s27hE..
0B10: F8 FF FF 7F F8 FF FF 7F  73 32 37 69 02 80 2B 40  ........s27i..+@
0B20: F2 04 01 AF 80 23 4A 40  F2 04 01 F0 FF FF 7F 4A  .....#J@.......J
0B30: F0 FF FF 7F 40 F2 04 01  6F 76 40 F2 04 01 5B 9E  ....@...ov@...[.
0B40: 80 40 F2 04 01 40 F2 04  01 77 61 76 30 2B 40 F2  .@...@...wav0+@.
0B50: 04 01 B0 80 23 53 40 F2  04 01 40 F2 04 01 77 61  ....#S@...@...wa
0B60: 76 30 27 0A 40 F2 04 01  07 1C B1 80 4A 3F F2 04  v0'.@.......J?..
0B70: 01 F0 FF FF 7F 4A F0 FF  FF 7F 3F F2 04 01 2B 3F  .....J....?...+?
0B80: F2 04 01 B2 80 23 2A 0A  40 F2 04 01 4A 40 F2 04  .....#*.@...J@..
0B90: 01 3F F2 04 01 2B 40 F2  04 01 B3 80 23 79 00 3F  .?...+@.....#y.?
0BA0: F2 04 01 3F F2 04 01 27  0A 3F F2 04 01 0E 79 00  ...?...'.?....y.
0BB0: F0 FF FF 7F 3F F2 04 01  27 0A 3D F2 04 01 05 2B  ....?...'.=....+
0BC0: 3F F2 04 01 B4 80 23 2A  0A 3D F2 04 01 45 04 80  ?.....#*.=...E..
0BD0: F8 FF FF 7F F8 FF FF 7F  66 64 6F 31 02 80 55 04  ........fdo1..U.
0BE0: 80 F8 FF FF 7F F8 FF FF  7F 66 64 6F 31 4E 01 3F  .........fdo1N.?
0BF0: F2 04 01 4E 01 40 F2 04  01 46 00 5C 00 B5 80 5C  ...N.@...F.\...\
0C00: 01 B5 80 45 04 80 F8 FF  FF 7F F8 FF FF 7F 66 64  ...E..........fd
0C10: 69 31 02 80 21 00                                 i1..!.          
```

#### Opcodes

```
  0: 0x0711 [0x42] SET_CLI_EVENT_CANCEL_DATA()
  1: 0x0712 [0x45] LOAD_SCHEDULED_TASK: Load scheduler "fdo1" with entities [EventEntity, EventEntity], work=[200*, 0*]
  2: 0x0723 [0x55] WAIT_LOAD_SCHEDULER: Wait for scheduler "fdo1" with entities [EventEntity, EventEntity], work=200*
  3: 0x0732 [0x5C] MUSIC_CONTROL: Set Idle (Day) music to song 163*
  4: 0x0736 [0x5C] MUSIC_CONTROL: Set Idle (Night) music to song 163*
  5: 0x073A [0x38] SET_CLIENT_EVENT_MODE(mode=19*)
  6: 0x073D [0x46] CAMERA_CONTROL: Disable user control
  7: 0x073F [0x37] UPDATE_EVENT_POSITION_AND_DIR: x=136.309*, z=-628.132*, y=0.432*, direction=158.7°*
  8: 0x0748 [0x4E] SET_ENTITY_HIDE_FLAG: Show Yafahb (ID: 17101375/0x0104F23F)
  9: 0x074E [0x4E] SET_ENTITY_HIDE_FLAG: Show Automaton (ID: 17101376/0x0104F240)
 10: 0x0754 [0x92] Yafahb (ID: 17101375/0x0104F23F)->Render.Flags3 ^= 0x01
 11: 0x075A [0x92] Automaton (ID: 17101376/0x0104F240)->Render.Flags3 ^= 0x01
 12: 0x0760 [0x80] LOAD_WAIT(entity=Yafahb (ID: 17101375/0x0104F23F))
 13: 0x0765 [0x80] LOAD_WAIT(entity=Automaton (ID: 17101376/0x0104F240))
 14: 0x076A [0x9A] WAIT_MUSIC_SERVER()
 15: 0x076B [0x45] LOAD_SCHEDULED_TASK: Load scheduler "s27c" with entities [EventEntity, EventEntity], work=[35*, 0*]
 16: 0x077C [0x45] LOAD_SCHEDULED_TASK: Load scheduler "fdi1" with entities [EventEntity, EventEntity], work=[200*, 0*]
 17: 0x078D [0x27] REQ_SET(priority=0x0A, entity_id=Yafahb (ID: 17101375/0x0104F23F), tag_num=0x02)
 18: 0x0794 [0x2B] ??? (ID: 17101373/0x0104F23D) [7596*]:
    → "March! March!"
 19: 0x079B [0x23] WAIT_FOR_DIALOG_INTERACTION
 20: 0x079C [0x2A] GET_REQ_LEVEL(level=10, entity_id=Yafahb (ID: 17101375/0x0104F23F))
 21: 0x07A2 [0x4B] UPDATE_ENTITY_YAW(entity=Yafahb (ID: 17101375/0x0104F23F), yaw=16.6°*)
 22: 0x07A9 [0x6F] WAIT_FRAME_DELAY: Yield until WaitTime reaches zero
 23: 0x07AA [0x76] CHECK_ENTITY_RENDER_FLAGS: Wait until Yafahb (ID: 17101375/0x0104F23F) Render.Flags0 and Render.Flags3 conditions are met
 24: 0x07AF [0x79] Yafahb (ID: 17101375/0x0104F23F) looks at Automaton (ID: 17101376/0x0104F240) (Basic look)
 25: 0x07B9 [0x45] LOAD_SCHEDULED_TASK: Load scheduler "s27d" with entities [EventEntity, EventEntity], work=[35*, 0*]
 26: 0x07CA [0x27] REQ_SET(priority=0x0A, entity_id=Automaton (ID: 17101376/0x0104F240), tag_num=0x03)
 27: 0x07D1 [0x2B] ??? (ID: 17101373/0x0104F23D) [7597*]:
    → "Come on, you've got to stop this!"
 28: 0x07D8 [0x23] WAIT_FOR_DIALOG_INTERACTION
 29: 0x07D9 [0x2A] GET_REQ_LEVEL(level=10, entity_id=Automaton (ID: 17101376/0x0104F240))
 30: 0x07DF [0x4A] Automaton (ID: 17101376/0x0104F240) looks at Yafahb (ID: 17101375/0x0104F23F)
 31: 0x07E8 [0x6F] WAIT_FRAME_DELAY: Yield until WaitTime reaches zero
 32: 0x07E9 [0x76] CHECK_ENTITY_RENDER_FLAGS: Wait until Automaton (ID: 17101376/0x0104F240) Render.Flags0 and Render.Flags3 conditions are met
 33: 0x07EE [0x66] LOAD_EXT_SCHEDULER_MAIN: Load scheduler "tlk0" with entities [Yafahb (ID: 17101375/0x0104F23F), Yafahb (ID: 17101375/0x0104F23F)], work=9*
 34: 0x07FD [0x1C] WAIT(20* ticks)
 35: 0x0800 [0x45] LOAD_SCHEDULED_TASK: Load scheduler "s27e" with entities [EventEntity, EventEntity], work=[35*, 0*]
 36: 0x0811 [0x2B] Yafahb (ID: 17101375/0x0104F23F) [7598*]:
    → "If I go up against that monster, I'll end up as meat for the chigoes!"
 37: 0x0818 [0x23] WAIT_FOR_DIALOG_INTERACTION
 38: 0x0819 [0x5B] LOAD_EXT_SCHEDULER: Load scheduler "tlk0" with entities [Automaton (ID: 17101376/0x0104F240), Automaton (ID: 17101376/0x0104F240)], work=851*
 39: 0x0828 [0x2B] Automaton (ID: 17101376/0x0104F240) [7599*]:
    → "Shut your mouth, maggot. You find that gil pouch, even if it means your life."
 40: 0x082F [0x23] WAIT_FOR_DIALOG_INTERACTION
 41: 0x0830 [0x5B] LOAD_EXT_SCHEDULER: Load scheduler "tlk1" with entities [Automaton (ID: 17101376/0x0104F240), Automaton (ID: 17101376/0x0104F240)], work=851*
 42: 0x083F [0x66] LOAD_EXT_SCHEDULER_MAIN: Load scheduler "tlk1" with entities [Yafahb (ID: 17101375/0x0104F23F), Yafahb (ID: 17101375/0x0104F23F)], work=9*
 43: 0x084E [0x53] WAIT_SCHEDULER_TASK: Wait for scheduler "tlk1" with entities [Yafahb (ID: 17101375/0x0104F23F), Yafahb (ID: 17101375/0x0104F23F)]
 44: 0x085B [0x4B] UPDATE_ENTITY_YAW(entity=Yafahb (ID: 17101375/0x0104F23F), yaw=9.9°*)
 45: 0x0862 [0x6E] Yafahb (ID: 17101375/0x0104F23F) uses emote 19*
 46: 0x0869 [0x99] Wait for Yafahb (ID: 17101375/0x0104F23F) animation to complete
 47: 0x086E [0x99] Wait for Yafahb (ID: 17101375/0x0104F23F) animation to complete
 48: 0x0873 [0x2B] Yafahb (ID: 17101375/0x0104F23F) [7600*]:
    → "You can't be serio--hmm? What's this?"
 49: 0x087A [0x23] WAIT_FOR_DIALOG_INTERACTION
 50: 0x087B [0x4B] UPDATE_ENTITY_YAW(entity=Automaton (ID: 17101376/0x0104F240), yaw=9.9°*)
 51: 0x0882 [0x2B] Automaton (ID: 17101376/0x0104F240) [7601*]:
    → "The monster...isn't here?"
 52: 0x0889 [0x23] WAIT_FOR_DIALOG_INTERACTION
 53: 0x088A [0x45] LOAD_SCHEDULED_TASK: Load scheduler "s27f" with entities [EventEntity, EventEntity], work=[35*, 0*]
 54: 0x089B [0x27] REQ_SET(priority=0x0A, entity_id=Yafahb (ID: 17101375/0x0104F23F), tag_num=0x09)
 55: 0x08A2 [0x27] REQ_SET(priority=0x0A, entity_id=Automaton (ID: 17101376/0x0104F240), tag_num=0x05)
 56: 0x08A9 [0x1C] WAIT(90* ticks)
 57: 0x08AC [0x4A] LocalPlayer looks at Yafahb (ID: 17101375/0x0104F23F)
 58: 0x08B5 [0x2A] GET_REQ_LEVEL(level=10, entity_id=Yafahb (ID: 17101375/0x0104F23F))
 59: 0x08BB [0x2A] GET_REQ_LEVEL(level=10, entity_id=Automaton (ID: 17101376/0x0104F240))
 60: 0x08C1 [0x2B] Yafahb (ID: 17101375/0x0104F23F) [7602*]:
    → "You...defeated it for me?"
 61: 0x08C8 [0x23] WAIT_FOR_DIALOG_INTERACTION
 62: 0x08C9 [0x66] LOAD_EXT_SCHEDULER_MAIN: Load scheduler "tlk0" with entities [Yafahb (ID: 17101375/0x0104F23F), Yafahb (ID: 17101375/0x0104F23F)], work=9*
 63: 0x08D8 [0x2B] Yafahb (ID: 17101375/0x0104F23F) [7603*]:
    → "Oh, thank you! Thank you! My life was starting to flash before my eyes and everything... I will never forget this kind act!"
 64: 0x08DF [0x23] WAIT_FOR_DIALOG_INTERACTION
 65: 0x08E0 [0x4A] Automaton (ID: 17101376/0x0104F240) looks at Yafahb (ID: 17101375/0x0104F23F)
 66: 0x08E9 [0x66] LOAD_EXT_SCHEDULER_MAIN: Load scheduler "tlk1" with entities [Yafahb (ID: 17101375/0x0104F23F), Yafahb (ID: 17101375/0x0104F23F)], work=9*
 67: 0x08F8 [0x27] REQ_SET(priority=0x0A, entity_id=Yafahb (ID: 17101375/0x0104F23F), tag_num=0x0A)
 68: 0x08FF [0x2B] Automaton (ID: 17101376/0x0104F240) [7604*]:
    → "Stop your useless chatter. Get that gil pouch now!"
 69: 0x0906 [0x23] WAIT_FOR_DIALOG_INTERACTION
 70: 0x0907 [0x2B] Yafahb (ID: 17101375/0x0104F23F) [7605*]:
    → "M-my apologies! Right away!"
 71: 0x090E [0x23] WAIT_FOR_DIALOG_INTERACTION
 72: 0x090F [0x2A] GET_REQ_LEVEL(level=10, entity_id=Yafahb (ID: 17101375/0x0104F23F))
 73: 0x0915 [0x27] REQ_SET(priority=0x0A, entity_id=Yafahb (ID: 17101375/0x0104F23F), tag_num=0x0B)
 74: 0x091C [0x1C] WAIT(90* ticks)
 75: 0x091F [0x45] LOAD_SCHEDULED_TASK: Load scheduler "s27g" with entities [EventEntity, EventEntity], work=[35*, 0*]
 76: 0x0930 [0x29] REQ_SET_WAIT(priority=0x0A, entity_id=Automaton (ID: 17101376/0x0104F240), tag_num=0x06)
 77: 0x0937 [0x4A] LocalPlayer looks at Automaton (ID: 17101376/0x0104F240)
 78: 0x0940 [0x2A] GET_REQ_LEVEL(level=10, entity_id=Yafahb (ID: 17101375/0x0104F23F))
 79: 0x0946 [0x4A] Automaton (ID: 17101376/0x0104F240) looks at LocalPlayer
 80: 0x094F [0x1C] WAIT(30* ticks)
 81: 0x0952 [0x1E] EventEntity looks at Automaton (ID: 17101376/0x0104F240) and starts talking
 82: 0x0957 [0x2B] Automaton (ID: 17101376/0x0104F240) [7606*]:
    → "[Mister/Miss]! Thank you for your help. If this useless cur wasn't so slow, that monster would be feeding on Hume kebabi by now."
 83: 0x095E [0x23] WAIT_FOR_DIALOG_INTERACTION
 84: 0x095F [0x66] LOAD_EXT_SCHEDULER_MAIN: Load scheduler "sir1" with entities [Yafahb (ID: 17101375/0x0104F23F), Yafahb (ID: 17101375/0x0104F23F)], work=9*
 85: 0x096E [0x53] WAIT_SCHEDULER_TASK: Wait for scheduler "sir1" with entities [Yafahb (ID: 17101375/0x0104F23F), Yafahb (ID: 17101375/0x0104F23F)]
 86: 0x097B [0x66] LOAD_EXT_SCHEDULER_MAIN: Load scheduler "sha1" with entities [Yafahb (ID: 17101375/0x0104F23F), Yafahb (ID: 17101375/0x0104F23F)], work=9*
 87: 0x098A [0x53] WAIT_SCHEDULER_TASK: Wait for scheduler "sha1" with entities [Yafahb (ID: 17101375/0x0104F23F), Yafahb (ID: 17101375/0x0104F23F)]
 88: 0x0997 [0x4A] Yafahb (ID: 17101375/0x0104F23F) looks at Automaton (ID: 17101376/0x0104F240)
 89: 0x09A0 [0x6F] WAIT_FRAME_DELAY: Yield until WaitTime reaches zero
 90: 0x09A1 [0x76] CHECK_ENTITY_RENDER_FLAGS: Wait until Yafahb (ID: 17101375/0x0104F23F) Render.Flags0 and Render.Flags3 conditions are met
 91: 0x09A6 [0x4A] LocalPlayer looks at Yafahb (ID: 17101375/0x0104F23F)
 92: 0x09AF [0x66] LOAD_EXT_SCHEDULER_MAIN: Load scheduler "tlk0" with entities [Yafahb (ID: 17101375/0x0104F23F), Yafahb (ID: 17101375/0x0104F23F)], work=9*
 93: 0x09BE [0x2B] Yafahb (ID: 17101375/0x0104F23F) [7607*]:
    → "Ulp..."
 94: 0x09C5 [0x23] WAIT_FOR_DIALOG_INTERACTION
 95: 0x09C6 [0x66] LOAD_EXT_SCHEDULER_MAIN: Load scheduler "tlk1" with entities [Yafahb (ID: 17101375/0x0104F23F), Yafahb (ID: 17101375/0x0104F23F)], work=9*
 96: 0x09D5 [0x4A] Automaton (ID: 17101376/0x0104F240) looks at Yafahb (ID: 17101375/0x0104F23F)
 97: 0x09DE [0x2B] Automaton (ID: 17101376/0x0104F240) [7608*]:
    → "What? Have you found the gil pouch yet?"
 98: 0x09E5 [0x23] WAIT_FOR_DIALOG_INTERACTION
 99: 0x09E6 [0x5B] LOAD_EXT_SCHEDULER: Load scheduler "tlk0" with entities [Automaton (ID: 17101376/0x0104F240), Automaton (ID: 17101376/0x0104F240)], work=851*
100: 0x09F5 [0x2B] Automaton (ID: 17101376/0x0104F240) [7609*]:
    → "You have a lot of nerve, fool. You were the one who claimed that dropping the pouch in the swamp would turn it to gold! If you had never spouted such nonsense, this never would have happened!"
101: 0x09FC [0x23] WAIT_FOR_DIALOG_INTERACTION
102: 0x09FD [0x5B] LOAD_EXT_SCHEDULER: Load scheduler "tlk1" with entities [Automaton (ID: 17101376/0x0104F240), Automaton (ID: 17101376/0x0104F240)], work=851*
103: 0x0A0C [0x66] LOAD_EXT_SCHEDULER_MAIN: Load scheduler "tlk0" with entities [Yafahb (ID: 17101375/0x0104F23F), Yafahb (ID: 17101375/0x0104F23F)], work=9*
104: 0x0A1B [0x4A] LocalPlayer looks at Automaton (ID: 17101376/0x0104F240)
105: 0x0A24 [0x2B] Yafahb (ID: 17101375/0x0104F23F) [7610*]:
    → "...Weren't you the one who threw it in, though?"
106: 0x0A2B [0x23] WAIT_FOR_DIALOG_INTERACTION
107: 0x0A2C [0x66] LOAD_EXT_SCHEDULER_MAIN: Load scheduler "tlk1" with entities [Yafahb (ID: 17101375/0x0104F23F), Yafahb (ID: 17101375/0x0104F23F)], work=9*
108: 0x0A3B [0x5B] LOAD_EXT_SCHEDULER: Load scheduler "ang0" with entities [Automaton (ID: 17101376/0x0104F240), Automaton (ID: 17101376/0x0104F240)], work=851*
109: 0x0A4A [0x2B] Automaton (ID: 17101376/0x0104F240) [7611*]:
    → "Maybe if I throw you in, then I'll get the gold..."
110: 0x0A51 [0x23] WAIT_FOR_DIALOG_INTERACTION
111: 0x0A52 [0x6E] Yafahb (ID: 17101375/0x0104F23F) uses emote 21*
112: 0x0A59 [0x99] Wait for Yafahb (ID: 17101375/0x0104F23F) animation to complete
113: 0x0A5E [0x99] Wait for Yafahb (ID: 17101375/0x0104F23F) animation to complete
114: 0x0A63 [0x27] REQ_SET(priority=0x0A, entity_id=Yafahb (ID: 17101375/0x0104F23F), tag_num=0x08)
115: 0x0A6A [0x2B] Yafahb (ID: 17101375/0x0104F23F) [7612*]:
    → "M-my apologies!"
116: 0x0A71 [0x23] WAIT_FOR_DIALOG_INTERACTION
117: 0x0A72 [0x2A] GET_REQ_LEVEL(level=10, entity_id=Yafahb (ID: 17101375/0x0104F23F))
118: 0x0A78 [0x4A] LocalPlayer looks at Yafahb (ID: 17101375/0x0104F23F)
119: 0x0A81 [0x45] LOAD_SCHEDULED_TASK: Load scheduler "s27h" with entities [EventEntity, EventEntity], work=[35*, 0*]
120: 0x0A92 [0x79] LocalPlayer looks at Yafahb (ID: 17101375/0x0104F23F) (Basic look)
121: 0x0A9C [0x29] REQ_SET_WAIT(priority=0x0A, entity_id=Yafahb (ID: 17101375/0x0104F23F), tag_num=0x0C)
122: 0x0AA3 [0x4A] LocalPlayer looks at Yafahb (ID: 17101375/0x0104F23F)
123: 0x0AAC [0x4A] Automaton (ID: 17101376/0x0104F240) looks at Yafahb (ID: 17101375/0x0104F23F)
124: 0x0AB5 [0x2B] Yafahb (ID: 17101375/0x0104F23F) [7613*]:
    → "...It's here! I found it! I really found it! My pouch!"
125: 0x0ABC [0x23] WAIT_FOR_DIALOG_INTERACTION
126: 0x0ABD [0x66] LOAD_EXT_SCHEDULER_MAIN: Load scheduler "sir1" with entities [Yafahb (ID: 17101375/0x0104F23F), Yafahb (ID: 17101375/0x0104F23F)], work=9*
127: 0x0ACC [0x53] WAIT_SCHEDULER_TASK: Wait for scheduler "sir1" with entities [Yafahb (ID: 17101375/0x0104F23F), Yafahb (ID: 17101375/0x0104F23F)]
128: 0x0AD9 [0x66] LOAD_EXT_SCHEDULER_MAIN: Load scheduler "sha1" with entities [Yafahb (ID: 17101375/0x0104F23F), Yafahb (ID: 17101375/0x0104F23F)], work=9*
129: 0x0AE8 [0x53] WAIT_SCHEDULER_TASK: Wait for scheduler "sha1" with entities [Yafahb (ID: 17101375/0x0104F23F), Yafahb (ID: 17101375/0x0104F23F)]
130: 0x0AF5 [0x4A] Yafahb (ID: 17101375/0x0104F23F) looks at Automaton (ID: 17101376/0x0104F240)
131: 0x0AFE [0x52] END_LOAD_SCHEDULER: End scheduler "s27h" with entities [EventEntity, EventEntity], work=35*
132: 0x0B0D [0x45] LOAD_SCHEDULED_TASK: Load scheduler "s27i" with entities [EventEntity, EventEntity], work=[35*, 0*]
133: 0x0B1E [0x2B] Automaton (ID: 17101376/0x0104F240) [7614*]:
    → "It's about time. Lose it again, and you'll be praying for mercy."
134: 0x0B25 [0x23] WAIT_FOR_DIALOG_INTERACTION
135: 0x0B26 [0x4A] Automaton (ID: 17101376/0x0104F240) looks at LocalPlayer
136: 0x0B2F [0x4A] LocalPlayer looks at Automaton (ID: 17101376/0x0104F240)
137: 0x0B38 [0x6F] WAIT_FRAME_DELAY: Yield until WaitTime reaches zero
138: 0x0B39 [0x76] CHECK_ENTITY_RENDER_FLAGS: Wait until Automaton (ID: 17101376/0x0104F240) Render.Flags0 and Render.Flags3 conditions are met
139: 0x0B3E [0x5B] LOAD_EXT_SCHEDULER: Load scheduler "wav0" with entities [Automaton (ID: 17101376/0x0104F240), Automaton (ID: 17101376/0x0104F240)], work=851*
140: 0x0B4D [0x2B] Automaton (ID: 17101376/0x0104F240) [7615*]:
    → "We now return! See you later, [Mister/Miss]!"
141: 0x0B54 [0x23] WAIT_FOR_DIALOG_INTERACTION
142: 0x0B55 [0x53] WAIT_SCHEDULER_TASK: Wait for scheduler "wav0" with entities [Automaton (ID: 17101376/0x0104F240), Automaton (ID: 17101376/0x0104F240)]
143: 0x0B62 [0x27] REQ_SET(priority=0x0A, entity_id=Automaton (ID: 17101376/0x0104F240), tag_num=0x07)
144: 0x0B69 [0x1C] WAIT(150* ticks)
145: 0x0B6C [0x4A] Yafahb (ID: 17101375/0x0104F23F) looks at LocalPlayer
146: 0x0B75 [0x4A] LocalPlayer looks at Yafahb (ID: 17101375/0x0104F23F)
147: 0x0B7E [0x2B] Yafahb (ID: 17101375/0x0104F23F) [7616*]:
    → "S-sorry, we've got to be getting back now. But I thank you for your help from the bottom of my--"
148: 0x0B85 [0x23] WAIT_FOR_DIALOG_INTERACTION
149: 0x0B86 [0x2A] GET_REQ_LEVEL(level=10, entity_id=Automaton (ID: 17101376/0x0104F240))
150: 0x0B8C [0x4A] Automaton (ID: 17101376/0x0104F240) looks at Yafahb (ID: 17101375/0x0104F23F)
151: 0x0B95 [0x2B] Automaton (ID: 17101376/0x0104F240) [7617*]:
    → "It's time to go! Stop wasting time and get over here!"
152: 0x0B9C [0x23] WAIT_FOR_DIALOG_INTERACTION
153: 0x0B9D [0x79] Yafahb (ID: 17101375/0x0104F23F) looks at Yafahb (ID: 17101375/0x0104F23F) (Basic look)
154: 0x0BA7 [0x27] REQ_SET(priority=0x0A, entity_id=Yafahb (ID: 17101375/0x0104F23F), tag_num=0x0E)
155: 0x0BAE [0x79] LocalPlayer looks at Yafahb (ID: 17101375/0x0104F23F) (Basic look)
156: 0x0BB8 [0x27] REQ_SET(priority=0x0A, entity_id=??? (ID: 17101373/0x0104F23D), tag_num=0x05)
157: 0x0BBF [0x2B] Yafahb (ID: 17101375/0x0104F23F) [7618*]:
    → "W-wait up!"
158: 0x0BC6 [0x23] WAIT_FOR_DIALOG_INTERACTION
159: 0x0BC7 [0x2A] GET_REQ_LEVEL(level=10, entity_id=??? (ID: 17101373/0x0104F23D))
160: 0x0BCD [0x45] LOAD_SCHEDULED_TASK: Load scheduler "fdo1" with entities [EventEntity, EventEntity], work=[200*, 0*]
161: 0x0BDE [0x55] WAIT_LOAD_SCHEDULER: Wait for scheduler "fdo1" with entities [EventEntity, EventEntity], work=200*
162: 0x0BED [0x4E] SET_ENTITY_HIDE_FLAG: Hide Yafahb (ID: 17101375/0x0104F23F)
163: 0x0BF3 [0x4E] SET_ENTITY_HIDE_FLAG: Hide Automaton (ID: 17101376/0x0104F240)
164: 0x0BF9 [0x46] CAMERA_CONTROL: Restore default settings
165: 0x0BFB [0x5C] MUSIC_CONTROL: Set Idle (Day) music to song 173*
166: 0x0BFF [0x5C] MUSIC_CONTROL: Set Idle (Night) music to song 173*
167: 0x0C03 [0x45] LOAD_SCHEDULED_TASK: Load scheduler "fdi1" with entities [EventEntity, EventEntity], work=[200*, 0*]
168: 0x0C14 [0x21] END_EVENT
169: 0x0C15 [0x00] END_REQSTACK()
```

### Event 15

#### Metadata

| Field        | Value      |
|--------------|------------|
| Entrypoint   | 0x0C16     |
| Data Size    | 1459 bytes |
| Instructions | 207        |

```
      00 01 02 03 04 05 06 07  08 09 0A 0B 0C 0D 0E 0F
      -- -- -- -- -- -- -- --  -- -- -- -- -- -- -- --
0C10:                   42 45  04 80 F8 FF FF 7F F8 FF        BE........
0C20: FF 7F 66 64 6F 31 02 80  55 04 80 F8 FF FF 7F F8  ..fdo1..U.......
0C30: FF FF 7F 66 64 6F 31 46  01 5C 00 02 80 5C 01 02  ...fdo1F.\...\..
0C40: 80 38 93 80 37 B6 80 B7  80 B8 80 B9 80 29 0A 41  .8..7........).A
0C50: F2 04 01 02 92 01 42 F2  04 01 92 01 3F F2 04 01  ......B.....?...
0C60: 92 01 41 F2 04 01 4E 00  42 F2 04 01 4E 00 3F F2  ..A...N.B...N.?.
0C70: 04 01 4E 00 41 F2 04 01  80 F0 FF FF 7F 80 41 F2  ..N.A.........A.
0C80: 04 01 94 01 41 F2 04 01  1C 6E 80 45 98 80 F8 FF  ....A....n.E....
0C90: FF 7F F8 FF FF 7F 73 32  38 33 02 80 45 04 80 F8  ......s283..E...
0CA0: FF FF 7F F8 FF FF 7F 66  64 69 31 02 80 79 00 F0  .......fdi1..y..
0CB0: FF FF 7F F0 FF FF 7F 32  0D 80 1F 00 BA 80 BB 80  .......2........
0CC0: BC 80 1F 01 4A F0 FF FF  7F 41 F2 04 01 55 98 80  ....J....A...U..
0CD0: F8 FF FF 7F F8 FF FF 7F  73 32 38 33 1C 6E 80 45  ........s283.n.E
0CE0: 98 80 F8 FF FF 7F F8 FF  FF 7F 73 32 38 34 02 80  ..........s284..
0CF0: 29 0A 42 F2 04 01 06 29  0A 3F F2 04 01 0F 80 3F  ).B....).?.....?
0D00: F2 04 01 80 42 F2 04 01  27 0A 3F F2 04 01 10 29  ....B...'.?....)
0D10: 0A 42 F2 04 01 07 4A 42  F2 04 01 41 F2 04 01 2B  .B....JB...A...+
0D20: 42 F2 04 01 BD 80 23 55  98 80 F8 FF FF 7F F8 FF  B.....#U........
0D30: FF 7F 73 32 38 34 45 98  80 F8 FF FF 7F F8 FF FF  ..s284E.........
0D40: 7F 73 32 38 35 02 80 27  0A 41 F2 04 01 03 1C A3  .s285..'.A......
