# 17863434

## Common Data

| Field            | Value                           |
|------------------|---------------------------------|
| Zone             | Morimar Basalt Fields (ID: 265) |
| Block Size       | 572 bytes                       |
| Total Events     | 13                              |
| References Count | 24                              |

## List of Events

| Event ID                   | Entrypoint   |   Size |   Instructions |
|----------------------------|--------------|--------|----------------|
| [65535](#event-65535)      | 0x0000       |      1 |              1 |
| [65535.1](#event-655351)   | 0x0001       |     16 |              2 |
| [65535.2](#event-655352)   | 0x0011       |     14 |              2 |
| [65535.3](#event-655353)   | 0x001F       |     16 |              2 |
| [65535.4](#event-655354)   | 0x002F       |     14 |              2 |
| [65535.5](#event-655355)   | 0x003D       |     37 |              5 |
| [65535.6](#event-655356)   | 0x0062       |     14 |              2 |
| [65535.7](#event-655357)   | 0x0070       |     13 |              3 |
| [2588](#event-2588)        | 0x007D       |      1 |              1 |
| [65535.8](#event-655358)   | 0x007E       |     18 |              4 |
| [65535.9](#event-655359)   | 0x0090       |     56 |             12 |
| [65535.10](#event-6553510) | 0x00C8       |     10 |              2 |
| [65535.11](#event-6553511) | 0x00D2       |    195 |             41 |

## DAT References (imed_data)

|   Index | Hex Value   |   Dec Value |
|---------|-------------|-------------|
|       0 | 0x00A9      |         169 |
|       1 | 0x000C      |          12 |
|       2 | 0xFFFF45C8  |  4294919624 |
|       3 | 0x28854     |      165972 |
|       4 | 0x0A2D      |        2605 |
|       5 | 0x09C4      |        2500 |
|       6 | 0xFFFF3D78  |  4294917496 |
|       7 | 0x29964     |      170340 |
|       8 | 0x000D      |          13 |
|       9 | 0x0011      |          17 |
|      10 | 0x06A2      |        1698 |
|      11 | 0x0001      |           1 |
|      12 | 0xFFFF3772  |  4294915954 |
|      13 | 0x29BBA     |      170938 |
|      14 | 0x0684      |        1668 |
|      15 | 0x0B3F      |        2879 |
|      16 | 0x001E      |          30 |
|      17 | 0x0005      |           5 |
|      18 | 0x0002      |           2 |
|      19 | 0x000A      |          10 |
|      20 | 0x0009      |           9 |
|      21 | 0x0046      |          70 |
|      22 | 0x008C      |         140 |
|      23 | 0x00D2      |         210 |

## Events

### Event 65535

#### Metadata

| Field        | Value   |
|--------------|---------|
| Entrypoint   | 0x0000  |
| Data Size    | 1 bytes |
| Instructions | 1       |

```
      00 01 02 03 04 05 06 07  08 09 0A 0B 0C 0D 0E 0F
      -- -- -- -- -- -- -- --  -- -- -- -- -- -- -- --
0000: 00                                                .               
```

#### Opcodes

```
  0: 0x0000 [0x00] END_REQSTACK()
```

### Event 65535.1

#### Metadata

| Field        | Value    |
|--------------|----------|
| Entrypoint   | 0x0001   |
| Data Size    | 16 bytes |
| Instructions | 2        |

```
      00 01 02 03 04 05 06 07  08 09 0A 0B 0C 0D 0E 0F
      -- -- -- -- -- -- -- --  -- -- -- -- -- -- -- --
0000:    66 00 80 F8 FF FF 7F  F8 FF FF 7F 74 6C 6B 30   f..........tlk0
0010: 00                                                .               
```

#### Opcodes

```
  0: 0x0001 [0x66] LOAD_EXT_SCHEDULER_MAIN: Load scheduler "tlk0" with entities [EventEntity, EventEntity], work=169*
  1: 0x0010 [0x00] END_REQSTACK()
```

### Event 65535.2

#### Metadata

| Field        | Value    |
|--------------|----------|
| Entrypoint   | 0x0011   |
| Data Size    | 14 bytes |
| Instructions | 2        |

```
      00 01 02 03 04 05 06 07  08 09 0A 0B 0C 0D 0E 0F
      -- -- -- -- -- -- -- --  -- -- -- -- -- -- -- --
0010:    53 F8 FF FF 7F F8 FF  FF 7F 74 6C 6B 30 00      S........tlk0. 
```

#### Opcodes

```
  0: 0x0011 [0x53] WAIT_SCHEDULER_TASK: Wait for scheduler "tlk0" with entities [EventEntity, EventEntity]
  1: 0x001E [0x00] END_REQSTACK()
```

### Event 65535.3

#### Metadata

| Field        | Value    |
|--------------|----------|
| Entrypoint   | 0x001F   |
| Data Size    | 16 bytes |
| Instructions | 2        |

```
      00 01 02 03 04 05 06 07  08 09 0A 0B 0C 0D 0E 0F
      -- -- -- -- -- -- -- --  -- -- -- -- -- -- -- --
0010:                                               66                 f
0020: 00 80 F8 FF FF 7F F8 FF  FF 7F 74 6C 6B 31 00     ..........tlk1. 
```

#### Opcodes

```
  0: 0x001F [0x66] LOAD_EXT_SCHEDULER_MAIN: Load scheduler "tlk1" with entities [EventEntity, EventEntity], work=169*
  1: 0x002E [0x00] END_REQSTACK()
```

### Event 65535.4

#### Metadata

| Field        | Value    |
|--------------|----------|
| Entrypoint   | 0x002F   |
| Data Size    | 14 bytes |
| Instructions | 2        |

```
      00 01 02 03 04 05 06 07  08 09 0A 0B 0C 0D 0E 0F
      -- -- -- -- -- -- -- --  -- -- -- -- -- -- -- --
0020:                                               53                 S
0030: F8 FF FF 7F F8 FF FF 7F  74 6C 6B 31 00           ........tlk1.   
```

#### Opcodes

```
  0: 0x002F [0x53] WAIT_SCHEDULER_TASK: Wait for scheduler "tlk1" with entities [EventEntity, EventEntity]
  1: 0x003C [0x00] END_REQSTACK()
```

### Event 65535.5

#### Metadata

| Field        | Value    |
|--------------|----------|
| Entrypoint   | 0x003D   |
| Data Size    | 37 bytes |
| Instructions | 5        |

```
      00 01 02 03 04 05 06 07  08 09 0A 0B 0C 0D 0E 0F
      -- -- -- -- -- -- -- --  -- -- -- -- -- -- -- --
0030:                                         03 02 00               ...
0040: 07 7F 1A 01 01 66 03 00  F8 FF FF 7F F8 FF FF 7F  .....f..........
0050: 73 68 61 30 53 F8 FF FF  7F F8 FF FF 7F 73 68 61  sha0S........sha
0060: 30 00                                             0.              
```

#### Opcodes

```
  0: 0x003D [0x03] ExtData[1]->WorkLocal[2] = Entity->Race
  1: 0x0042 [0x1A] CALL_SUBROUTINE(address=0x0101)
  2: 0x0045 [0x66] LOAD_EXT_SCHEDULER_MAIN: Load scheduler "sha0" with entities [EventEntity, EventEntity], work=ExtData[1]->WorkLocal[3]
  3: 0x0054 [0x53] WAIT_SCHEDULER_TASK: Wait for scheduler "sha0" with entities [EventEntity, EventEntity]
  4: 0x0061 [0x00] END_REQSTACK()
```

### Event 65535.6

#### Metadata

| Field        | Value    |
|--------------|----------|
| Entrypoint   | 0x0062   |
| Data Size    | 14 bytes |
| Instructions | 2        |

```
      00 01 02 03 04 05 06 07  08 09 0A 0B 0C 0D 0E 0F
      -- -- -- -- -- -- -- --  -- -- -- -- -- -- -- --
0060:       53 F8 FF FF 7F F8  FF FF 7F 73 68 61 30 00    S........sha0.
```

#### Opcodes

```
  0: 0x0062 [0x53] WAIT_SCHEDULER_TASK: Wait for scheduler "sha0" with entities [EventEntity, EventEntity]
  1: 0x006F [0x00] END_REQSTACK()
```

### Event 65535.7

#### Metadata

| Field        | Value    |
|--------------|----------|
| Entrypoint   | 0x0070   |
| Data Size    | 13 bytes |
| Instructions | 3        |

```
      00 01 02 03 04 05 06 07  08 09 0A 0B 0C 0D 0E 0F
      -- -- -- -- -- -- -- --  -- -- -- -- -- -- -- --
0070: 6E F8 FF FF 7F 01 80 99  F8 FF FF 7F 00           n............   
```

#### Opcodes

```
  0: 0x0070 [0x6E] EventEntity uses emote 12*
  1: 0x0077 [0x99] Wait for EventEntity animation to complete
  2: 0x007C [0x00] END_REQSTACK()
```

### Event 2588

#### Metadata

| Field        | Value   |
|--------------|---------|
| Entrypoint   | 0x007D  |
| Data Size    | 1 bytes |
| Instructions | 1       |

```
      00 01 02 03 04 05 06 07  08 09 0A 0B 0C 0D 0E 0F
      -- -- -- -- -- -- -- --  -- -- -- -- -- -- -- --
0070:                                         00                     .  
```

#### Opcodes

```
  0: 0x007D [0x00] END_REQSTACK()
```

### Event 65535.8

#### Metadata

| Field        | Value    |
|--------------|----------|
| Entrypoint   | 0x007E   |
| Data Size    | 18 bytes |
| Instructions | 4        |

```
      00 01 02 03 04 05 06 07  08 09 0A 0B 0C 0D 0E 0F
      -- -- -- -- -- -- -- --  -- -- -- -- -- -- -- --
0070:                                            37 02                7.
0080: 80 03 80 04 80 05 80 2F  00 F8 FF FF 7F 22 00 00  ......./....."..
```

#### Opcodes

```
  0: 0x007E [0x37] UPDATE_EVENT_POSITION_AND_DIR: x=-47.672*, z=165.972*, y=2.605*, direction=219.7°*
  1: 0x0087 [0x2F] EventEntity->Render.Flags0 &= ~0x80000 // Bit 19
  2: 0x008D [0x22] ENTITY_HIDE_FLAG(enabled=0x00)
  3: 0x008F [0x00] END_REQSTACK()
```

### Event 65535.9

#### Metadata

| Field        | Value    |
|--------------|----------|
| Entrypoint   | 0x0090   |
| Data Size    | 56 bytes |
| Instructions | 12       |

```
      00 01 02 03 04 05 06 07  08 09 0A 0B 0C 0D 0E 0F
      -- -- -- -- -- -- -- --  -- -- -- -- -- -- -- --
0090: 03 00 00 02 80 03 01 00  03 80 02 00 00 06 80 02  ................
00A0: C7 00 02 01 00 07 80 03  C1 00 08 00 00 08 80 07  ................
00B0: 01 00 09 80 36 00 00 01  00 0A 80 1C 0B 80 01 A2  ....6...........
00C0: 00 1C 0B 80 01 9A 00 00                           ........        
```

#### Opcodes

```
  0: 0x0090 [0x03] ExtData[1]->WorkLocal[0] = 4294919624*
  1: 0x0095 [0x03] ExtData[1]->WorkLocal[1] = 165972*
  2: 0x009A [0x02] IF !(ExtData[1]->WorkLocal[0] <= 4294917496*) GOTO 0x00C7
  3: 0x00A2 [0x02] IF !(ExtData[1]->WorkLocal[1] >= 170340*) GOTO 0x00C1
  4: 0x00AA [0x08] ExtData[1]->WorkLocal[0] -= 13*
  5: 0x00AF [0x07] ExtData[1]->WorkLocal[1] += 17*
  6: 0x00B4 [0x36] SET_ENTITY_EVENT_POSITION(pos_x=ExtData[1]->WorkLocal[0], pos_z=ExtData[1]->WorkLocal[1], pos_y=1.698*)
  7: 0x00BB [0x1C] WAIT(1* ticks)
  8: 0x00BE [0x01] GOTO 0x00A2
  9: 0x00C1 [0x1C] WAIT(1* ticks)
 10: 0x00C4 [0x01] GOTO 0x009A
 11: 0x00C7 [0x00] END_REQSTACK()
```

### Event 65535.10

#### Metadata

| Field        | Value    |
|--------------|----------|
| Entrypoint   | 0x00C8   |
| Data Size    | 10 bytes |
| Instructions | 2        |

```
      00 01 02 03 04 05 06 07  08 09 0A 0B 0C 0D 0E 0F
      -- -- -- -- -- -- -- --  -- -- -- -- -- -- -- --
00C0:                          37 0C 80 0D 80 0E 80 0F          7.......
00D0: 80 00                                             ..              
```

#### Opcodes

```
  0: 0x00C8 [0x37] UPDATE_EVENT_POSITION_AND_DIR: x=-51.342*, z=170.938*, y=1.668*, direction=253.0°*
  1: 0x00D1 [0x00] END_REQSTACK()
```

### Event 65535.11

#### Metadata

| Field        | Value     |
|--------------|-----------|
| Entrypoint   | 0x00D2    |
| Data Size    | 195 bytes |
| Instructions | 17        |

```
      00 01 02 03 04 05 06 07  08 09 0A 0B 0C 0D 0E 0F
      -- -- -- -- -- -- -- --  -- -- -- -- -- -- -- --
00D0:       1C 10 80 03 02 00  07 7F 1A 01 01 66 03 00    ...........f..
00E0: F8 FF FF 7F F8 FF FF 7F  73 68 61 31 53 F8 FF FF  ........sha1S...
00F0: 7F F8 FF FF 7F 73 68 61  31 1E F0 FF FF 7F 6F 70  .....sha1.....op
0100: 00 03 03 00 02 00 02 03  00 11 80 05 16 01 08 03  ................
0110: 00 0B 80 01 1B 01 08 03  00 12 80 14 03 00 13 80  ................
0120: 07 03 00 14 80 1B 03 03  00 02 00 02 03 00 11 80  ................
0130: 05 3B 01 08 03 00 0B 80  01 40 01 08 03 00 12 80  .;.......@......
0140: 14 03 00 13 80 07 03 00  15 80 1B 03 03 00 02 00  ................
0150: 02 03 00 11 80 05 60 01  08 03 00 0B 80 01 65 01  ......`.......e.
0160: 08 03 00 12 80 14 03 00  13 80 07 03 00 16 80 1B  ................
0170: 03 03 00 02 00 02 03 00  11 80 05 85 01 08 03 00  ................
0180: 0B 80 01 8A 01 08 03 00  12 80 14 03 00 13 80 07  ................
0190: 03 00 17 80 1B                                    .....           
```

#### Opcodes

```
  0: 0x00D2 [0x1C] WAIT(30* ticks)
  1: 0x00D5 [0x03] ExtData[1]->WorkLocal[2] = Entity->Race
  2: 0x00DA [0x1A] CALL_SUBROUTINE(address=0x0101)
  3: 0x00DD [0x66] LOAD_EXT_SCHEDULER_MAIN: Load scheduler "sha1" with entities [EventEntity, EventEntity], work=ExtData[1]->WorkLocal[3]
  4: 0x00EC [0x53] WAIT_SCHEDULER_TASK: Wait for scheduler "sha1" with entities [EventEntity, EventEntity]
  5: 0x00F9 [0x1E] EventEntity looks at LocalPlayer and starts talking
  6: 0x00FE [0x6F] WAIT_FRAME_DELAY: Yield until WaitTime reaches zero
  7: 0x00FF [0x70] WAIT_ENTITY_RENDER_FLAG: Wait while EventEntity->Render.Flags3 bit 2 is set (cancel turn if not)
  8: 0x0100 [0x00] END_REQSTACK()

SUBROUTINE_0101:
  9: 0x0101 [0x03] ExtData[1]->WorkLocal[3] = ExtData[1]->WorkLocal[2]
 10: 0x0106 [0x02] IF !(ExtData[1]->WorkLocal[3] > 5*) GOTO 0x0116
 11: 0x010E [0x08] ExtData[1]->WorkLocal[3] -= 1*
 12: 0x0113 [0x01] GOTO 0x011B
 13: 0x0116 [0x08] ExtData[1]->WorkLocal[3] -= 2*

SUBROUTINE_011B:
 14: 0x011B [0x14] ExtData[1]->WorkLocal[3] *= 10*
 15: 0x0120 [0x07] ExtData[1]->WorkLocal[3] += 9*
 16: 0x0125 [0x1B] RETURN
```

#### Data or dead code:

```
# Dead code (unreachable instructions):
     0x0126 [0x03] ExtData[1]->WorkLocal[3] = ExtData[1]->WorkLocal[2]
     0x012B [0x02] IF !(ExtData[1]->WorkLocal[3] > 5*) GOTO 0x013B
     0x0133 [0x08] ExtData[1]->WorkLocal[3] -= 1*
     0x0138 [0x01] GOTO 0x0140
     0x013B [0x08] ExtData[1]->WorkLocal[3] -= 2*
     0x0140 [0x14] ExtData[1]->WorkLocal[3] *= 10*
     0x0145 [0x07] ExtData[1]->WorkLocal[3] += 70*
     0x014A [0x1B] RETURN
     0x014B [0x03] ExtData[1]->WorkLocal[3] = ExtData[1]->WorkLocal[2]
     0x0150 [0x02] IF !(ExtData[1]->WorkLocal[3] > 5*) GOTO 0x0160
     0x0158 [0x08] ExtData[1]->WorkLocal[3] -= 1*
     0x015D [0x01] GOTO 0x0165
     0x0160 [0x08] ExtData[1]->WorkLocal[3] -= 2*
     0x0165 [0x14] ExtData[1]->WorkLocal[3] *= 10*
     0x016A [0x07] ExtData[1]->WorkLocal[3] += 140*
     0x016F [0x1B] RETURN
     0x0170 [0x03] ExtData[1]->WorkLocal[3] = ExtData[1]->WorkLocal[2]
     0x0175 [0x02] IF !(ExtData[1]->WorkLocal[3] > 5*) GOTO 0x0185
     0x017D [0x08] ExtData[1]->WorkLocal[3] -= 1*
     0x0182 [0x01] GOTO 0x018A
     0x0185 [0x08] ExtData[1]->WorkLocal[3] -= 2*
     0x018A [0x14] ExtData[1]->WorkLocal[3] *= 10*
     0x018F [0x07] ExtData[1]->WorkLocal[3] += 210*
     0x0194 [0x1B] RETURN
```
