# 17863484 - Scalable Area

## Common Data

| Field            | Value                           |
|------------------|---------------------------------|
| Zone             | Morimar Basalt Fields (ID: 265) |
| Block Size       | 1072 bytes                      |
| Total Events     | 2                               |
| References Count | 81                              |

## List of Events

| Event ID              | Entrypoint   |   Size |   Instructions |
|-----------------------|--------------|--------|----------------|
| [65535](#event-65535) | 0x0000       |      1 |              1 |
| [45](#event-45)       | 0x0001       |    722 |            109 |

## DAT References (imed_data)

|   Index | Hex Value   |   Dec Value |
|---------|-------------|-------------|
|       0 | 0x095F      |        2399 |
|       1 | 0x0954      |        2388 |
|       2 | 0x1F5E      |        8030 |
|       3 | 0x1F5F      |        8031 |
|       4 | 0x0000      |           0 |
|       5 | 0x0001      |           1 |
|       6 | 0x00C8      |         200 |
|       7 | 0x0013      |          19 |
|       8 | 0x34904     |      215300 |
|       9 | 0xFFFA0D82  |  4294577538 |
|      10 | 0xFFFFFA8E  |  4294965902 |
|      11 | 0x0800      |        2048 |
|      12 | 0x0002      |           2 |
|      13 | 0x36717     |      222999 |
|      14 | 0xFFFA0AF9  |  4294576889 |
|      15 | 0xFFFFBFED  |  4294950893 |
|      16 | 0x0003      |           3 |
|      17 | 0x2CE4F     |      183887 |
|      18 | 0xFFF92278  |  4294517368 |
|      19 | 0xFFFFFA5C  |  4294965852 |
|      20 | 0x0004      |           4 |
|      21 | 0x2B389     |      177033 |
|      22 | 0xFFF9248E  |  4294517902 |
|      23 | 0xFFFFBFE5  |  4294950885 |
|      24 | 0xFFFFF830  |  4294965296 |
|      25 | 0x0005      |           5 |
|      26 | 0xFFFEA0BD  |  4294877373 |
|      27 | 0x2ADD2     |      175570 |
|      28 | 0xFFFFFA13  |  4294965779 |
|      29 | 0x0400      |        1024 |
|      30 | 0x0006      |           6 |
|      31 | 0xFFFEA1AD  |  4294877613 |
|      32 | 0x2CCAC     |      183468 |
|      33 | 0xFFFFBFFA  |  4294950906 |
|      34 | 0xFFFFFC7C  |  4294966396 |
|      35 | 0x0007      |           7 |
|      36 | 0xFFFF3C98  |  4294917272 |
|      37 | 0x3E705     |      255749 |
|      38 | 0xFFFFBC0C  |  4294949900 |
|      39 | 0x0008      |           8 |
|      40 | 0xFFFF3FFA  |  4294918138 |
|      41 | 0x40624     |      263716 |
|      42 | 0xFFFF816B  |  4294934891 |
|      43 | 0xFFFFFC00  |  4294966272 |
|      44 | 0x0009      |           9 |
|      45 | 0xFFFE057C  |  4294837628 |
|      46 | 0x48526     |      296230 |
|      47 | 0xFFFF7CE3  |  4294933731 |
|      48 | 0x0384      |         900 |
|      49 | 0x000A      |          10 |
|      50 | 0xFFFE0548  |  4294837576 |
|      51 | 0x4A408     |      304136 |
|      52 | 0xFFFF430A  |  4294918922 |
|      53 | 0xFFFFFC18  |  4294966296 |
|      54 | 0x000B      |          11 |
|      55 | 0xFFFD51F7  |  4294791671 |
|      56 | 0x1120C     |       70156 |
|      57 | 0xFFFFFA0F  |  4294965775 |
|      58 | 0x000C      |          12 |
|      59 | 0xFFFD3380  |  4294783872 |
|      60 | 0x11236     |       70198 |
|      61 | 0xFFFFBFFE  |  4294950910 |
|      62 | 0x000D      |          13 |
|      63 | 0xFFFCB1D9  |  4294750681 |
|      64 | 0x1AE34     |      110132 |
|      65 | 0xFFFFBB9B  |  4294949787 |
|      66 | 0xFFFFFF9C  |  4294967196 |
|      67 | 0x000E      |          14 |
|      68 | 0xFFFC98DA  |  4294744282 |
|      69 | 0x1AECC     |      110284 |
|      70 | 0xFFFF8172  |  4294934898 |
|      71 | 0x000F      |          15 |
|      72 | 0xFFFC17F9  |  4294711289 |
|      73 | 0x24A58     |      150104 |
|      74 | 0xFFFF7D6A  |  4294933866 |
|      75 | 0x0010      |          16 |
|      76 | 0xFFFBFD75  |  4294704501 |
|      77 | 0x24ABC     |      150204 |
|      78 | 0xFFFF42F1  |  4294918897 |
|      79 | 0x001E      |          30 |
|      80 | 0x40000000  |  1073741824 |

## String References

- **8030**: You might be able to [descend/ascend] using these vines if you only had $3 and $6.
- **8031**: [Descend/Ascend]? [Yes./No.]

## Events

### Event 65535

#### Metadata

| Field        | Value   |
|--------------|---------|
| Entrypoint   | 0x0000  |
| Data Size    | 1 bytes |
| Instructions | 1       |

```
      00 01 02 03 04 05 06 07  08 09 0A 0B 0C 0D 0E 0F
      -- -- -- -- -- -- -- --  -- -- -- -- -- -- -- --
0000: 00                                                .               
```

#### Opcodes

```
  0: 0x0000 [0x00] END_REQSTACK()
```

### Event 45

#### Metadata

| Field        | Value     |
|--------------|-----------|
| Entrypoint   | 0x0001    |
| Data Size    | 722 bytes |
| Instructions | 109       |

```
      00 01 02 03 04 05 06 07  08 09 0A 0B 0C 0D 0E 0F
      -- -- -- -- -- -- -- --  -- -- -- -- -- -- -- --
0000:    03 05 10 00 80 03 06  10 01 80 48 02 80 23 24   ..........H..#$
0010: 03 80 04 80 04 80 25 02  00 10 04 80 00 C1 02 42  ......%........B
0020: 03 01 10 05 80 43 00 43  01 4A F0 FF FF 7F F8 FF  .....C.C.J......
0030: FF 7F 6F 76 F0 FF FF 7F  45 06 80 F0 FF FF 7F F0  ..ov....E.......
0040: FF FF 7F 66 64 6F 31 04  80 55 06 80 F0 FF FF 7F  ...fdo1..U......
0050: F0 FF FF 7F 66 64 6F 31  38 07 80 02 07 10 05 80  ....fdo18.......
0060: 80 7F 00 BA F0 FF FF 7F  08 80 09 80 0A 80 0B 80  ................
0070: 47 00 08 80 09 80 0A 80  0B 80 47 01 01 9B 02 02  G.........G.....
0080: 07 10 0C 80 80 A3 00 BA  F0 FF FF 7F 0D 80 0E 80  ................
0090: 0F 80 06 80 47 00 0D 80  0E 80 0F 80 06 80 47 01  ....G.........G.
00A0: 01 9B 02 02 07 10 10 80  80 C7 00 BA F0 FF FF 7F  ................
00B0: 11 80 12 80 13 80 04 80  47 00 11 80 12 80 13 80  ........G.......
00C0: 04 80 47 01 01 9B 02 02  07 10 14 80 80 EB 00 BA  ..G.............
00D0: F0 FF FF 7F 15 80 16 80  17 80 18 80 47 00 15 80  ............G...
00E0: 16 80 17 80 18 80 47 01  01 9B 02 02 07 10 19 80  ......G.........
00F0: 80 0F 01 BA F0 FF FF 7F  1A 80 1B 80 1C 80 1D 80  ................
0100: 47 00 1A 80 1B 80 1C 80  1D 80 47 01 01 9B 02 02  G.........G.....
0110: 07 10 1E 80 80 33 01 BA  F0 FF FF 7F 1F 80 20 80  .....3........ .
0120: 21 80 22 80 47 00 1F 80  20 80 21 80 22 80 47 01  !.".G... .!.".G.
0130: 01 9B 02 02 07 10 23 80  80 57 01 BA F0 FF FF 7F  ......#..W......
0140: 24 80 25 80 26 80 1D 80  47 00 24 80 25 80 26 80  $.%.&...G.$.%.&.
0150: 1D 80 47 01 01 9B 02 02  07 10 27 80 80 7B 01 BA  ..G.......'..{..
0160: F0 FF FF 7F 28 80 29 80  2A 80 2B 80 47 00 28 80  ....(.).*.+.G.(.
0170: 29 80 2A 80 2B 80 47 01  01 9B 02 02 07 10 2C 80  ).*.+.G.......,.
0180: 80 9F 01 BA F0 FF FF 7F  2D 80 2E 80 2F 80 30 80  ........-.../.0.
0190: 47 00 2D 80 2E 80 2F 80  30 80 47 01 01 9B 02 02  G.-.../.0.G.....
01A0: 07 10 31 80 80 C3 01 BA  F0 FF FF 7F 32 80 33 80  ..1.........2.3.
01B0: 34 80 35 80 47 00 32 80  33 80 34 80 35 80 47 01  4.5.G.2.3.4.5.G.
01C0: 01 9B 02 02 07 10 36 80  80 E7 01 BA F0 FF FF 7F  ......6.........
01D0: 37 80 38 80 39 80 04 80  47 00 37 80 38 80 39 80  7.8.9...G.7.8.9.
01E0: 04 80 47 01 01 9B 02 02  07 10 3A 80 80 0B 02 BA  ..G.......:.....
01F0: F0 FF FF 7F 3B 80 3C 80  3D 80 18 80 47 00 3B 80  ....;.<.=...G.;.
0200: 3C 80 3D 80 18 80 47 01  01 9B 02 02 07 10 3E 80  <.=...G.......>.
0210: 80 2F 02 BA F0 FF FF 7F  3F 80 40 80 41 80 42 80  ./......?.@.A.B.
0220: 47 00 3F 80 40 80 41 80  42 80 47 01 01 9B 02 02  G.?.@.A.B.G.....
0230: 07 10 43 80 80 53 02 BA  F0 FF FF 7F 44 80 45 80  ..C..S......D.E.
0240: 46 80 18 80 47 00 44 80  45 80 46 80 18 80 47 01  F...G.D.E.F...G.
0250: 01 9B 02 02 07 10 47 80  80 77 02 BA F0 FF FF 7F  ......G..w......
0260: 48 80 49 80 4A 80 04 80  47 00 48 80 49 80 4A 80  H.I.J...G.H.I.J.
0270: 04 80 47 01 01 9B 02 02  07 10 4B 80 80 9B 02 BA  ..G.......K.....
0280: F0 FF FF 7F 4C 80 4D 80  4E 80 18 80 47 00 4C 80  ....L.M.N...G.L.
0290: 4D 80 4E 80 18 80 47 01  01 9B 02 1C 4F 80 80 F0  M.N...G.....O...
02A0: FF FF 7F 1C 47 80 AB 11  04 80 1C 05 80 45 06 80  ....G........E..
02B0: F0 FF FF 7F F0 FF FF 7F  66 64 69 32 04 80 01 D1  ........fdi2....
02C0: 02 02 00 10 05 80 00 D1  02 03 01 10 50 80 01 D1  ............P...
02D0: 02 21 00                                          .!.             
```

#### Opcodes

```
  0: 0x0001 [0x03] Work_Zone[5] = 2399*
  1: 0x0006 [0x03] Work_Zone[6] = 2388*
  2: 0x000B [0x48] [System] [8030*]:
    → "You might be able to [descend/ascend] using these vines if you only had $3 and $6."
  3: 0x000E [0x23] WAIT_FOR_DIALOG_INTERACTION
  4: 0x000F [0x24] CREATE_DIALOG(message_id=8031*, default_option=0*, option_flags=0*)
    → "[Descend/Ascend]? [Yes./No.]"
  5: 0x0016 [0x25] WAIT_DIALOG_SELECT()
  6: 0x0017 [0x02] IF !(Work_Zone[0] == 0*) GOTO 0x02C1
  7: 0x001F [0x42] SET_CLI_EVENT_CANCEL_DATA()
  8: 0x0020 [0x03] Work_Zone[1] = 1*
  9: 0x0025 [0x43] SEND_EVENT_UPDATE: Send pending tag to server (packet 0x005B)
 10: 0x0027 [0x43] SEND_EVENT_UPDATE: Check pending flag (skip if not pending)
 11: 0x0029 [0x4A] LocalPlayer looks at EventEntity
 12: 0x0032 [0x6F] WAIT_FRAME_DELAY: Yield until WaitTime reaches zero
 13: 0x0033 [0x76] CHECK_ENTITY_RENDER_FLAGS: Wait until LocalPlayer Render.Flags0 and Render.Flags3 conditions are met
 14: 0x0038 [0x45] LOAD_SCHEDULED_TASK: Load scheduler "fdo1" with entities [LocalPlayer, LocalPlayer], work=[200*, 0*]
 15: 0x0049 [0x55] WAIT_LOAD_SCHEDULER: Wait for scheduler "fdo1" with entities [LocalPlayer, LocalPlayer], work=200*
 16: 0x0058 [0x38] SET_CLIENT_EVENT_MODE(mode=19*)
 17: 0x005B [0x02] IF !(Work_Zone[7] == 1*) GOTO 0x007F
 18: 0x0063 [0xBA] SET_ENTITY_POSITION(entity_id=LocalPlayer, pos_x=215.300*, pos_z=-389.758*, pos_y=-1.394*, direction=180.0°*)
 19: 0x0070 [0x47] UPDATE_PLAYER_POS(215.300*, -389.758*, -1.394*, yaw=180.0°*)
 20: 0x007A [0x47] WAIT_PLAYER_POS_UPDATE
 21: 0x007C [0x01] GOTO 0x029B
 22: 0x007F [0x02] IF !(Work_Zone[7] == 2*) GOTO 0x00A3
 23: 0x0087 [0xBA] SET_ENTITY_POSITION(entity_id=LocalPlayer, pos_x=222.999*, pos_z=-390.407*, pos_y=-16.403*, direction=17.6°*)
 24: 0x0094 [0x47] UPDATE_PLAYER_POS(222.999*, -390.407*, -16.403*, yaw=17.6°*)
 25: 0x009E [0x47] WAIT_PLAYER_POS_UPDATE
 26: 0x00A0 [0x01] GOTO 0x029B
 27: 0x00A3 [0x02] IF !(Work_Zone[7] == 3*) GOTO 0x00C7
 28: 0x00AB [0xBA] SET_ENTITY_POSITION(entity_id=LocalPlayer, pos_x=183.887*, pos_z=-449.928*, pos_y=-1.444*, direction=0.0°*)
 29: 0x00B8 [0x47] UPDATE_PLAYER_POS(183.887*, -449.928*, -1.444*, yaw=0.0°*)
 30: 0x00C2 [0x47] WAIT_PLAYER_POS_UPDATE
 31: 0x00C4 [0x01] GOTO 0x029B
 32: 0x00C7 [0x02] IF !(Work_Zone[7] == 4*) GOTO 0x00EB
 33: 0x00CF [0xBA] SET_ENTITY_POSITION(entity_id=LocalPlayer, pos_x=177.033*, pos_z=-449.394*, pos_y=-16.411*, direction=377476043.4°*)
 34: 0x00DC [0x47] UPDATE_PLAYER_POS(177.033*, -449.394*, -16.411*, yaw=377476043.4°*)
 35: 0x00E6 [0x47] WAIT_PLAYER_POS_UPDATE
 36: 0x00E8 [0x01] GOTO 0x029B
 37: 0x00EB [0x02] IF !(Work_Zone[7] == 5*) GOTO 0x010F
 38: 0x00F3 [0xBA] SET_ENTITY_POSITION(entity_id=LocalPlayer, pos_x=-89.923*, pos_z=175.570*, pos_y=-1.517*, direction=90.0°*)
 39: 0x0100 [0x47] UPDATE_PLAYER_POS(-89.923*, 175.570*, -1.517*, yaw=90.0°*)
 40: 0x010A [0x47] WAIT_PLAYER_POS_UPDATE
 41: 0x010C [0x01] GOTO 0x029B
 42: 0x010F [0x02] IF !(Work_Zone[7] == 6*) GOTO 0x0133
 43: 0x0117 [0xBA] SET_ENTITY_POSITION(entity_id=LocalPlayer, pos_x=-89.683*, pos_z=183.468*, pos_y=-16.390*, direction=377476140.1°*)
 44: 0x0124 [0x47] UPDATE_PLAYER_POS(-89.683*, 183.468*, -16.390*, yaw=377476140.1°*)
 45: 0x012E [0x47] WAIT_PLAYER_POS_UPDATE
 46: 0x0130 [0x01] GOTO 0x029B
 47: 0x0133 [0x02] IF !(Work_Zone[7] == 7*) GOTO 0x0157
 48: 0x013B [0xBA] SET_ENTITY_POSITION(entity_id=LocalPlayer, pos_x=-50.024*, pos_z=255.749*, pos_y=-17.396*, direction=90.0°*)
 49: 0x0148 [0x47] UPDATE_PLAYER_POS(-50.024*, 255.749*, -17.396*, yaw=90.0°*)
 50: 0x0152 [0x47] WAIT_PLAYER_POS_UPDATE
 51: 0x0154 [0x01] GOTO 0x029B
 52: 0x0157 [0x02] IF !(Work_Zone[7] == 8*) GOTO 0x017B
 53: 0x015F [0xBA] SET_ENTITY_POSITION(entity_id=LocalPlayer, pos_x=-49.158*, pos_z=263.716*, pos_y=-32.405*, direction=377476129.2°*)
 54: 0x016C [0x47] UPDATE_PLAYER_POS(-49.158*, 263.716*, -32.405*, yaw=377476129.2°*)
 55: 0x0176 [0x47] WAIT_PLAYER_POS_UPDATE
 56: 0x0178 [0x01] GOTO 0x029B
 57: 0x017B [0x02] IF !(Work_Zone[7] == 9*) GOTO 0x019F
 58: 0x0183 [0xBA] SET_ENTITY_POSITION(entity_id=LocalPlayer, pos_x=-129.668*, pos_z=296.230*, pos_y=-33.565*, direction=79.1°*)
 59: 0x0190 [0x47] UPDATE_PLAYER_POS(-129.668*, 296.230*, -33.565*, yaw=79.1°*)
 60: 0x019A [0x47] WAIT_PLAYER_POS_UPDATE
 61: 0x019C [0x01] GOTO 0x029B
 62: 0x019F [0x02] IF !(Work_Zone[7] == 10*) GOTO 0x01C3
 63: 0x01A7 [0xBA] SET_ENTITY_POSITION(entity_id=LocalPlayer, pos_x=-129.720*, pos_z=304.136*, pos_y=-48.374*, direction=377476131.3°*)
 64: 0x01B4 [0x47] UPDATE_PLAYER_POS(-129.720*, 304.136*, -48.374*, yaw=377476131.3°*)
 65: 0x01BE [0x47] WAIT_PLAYER_POS_UPDATE
 66: 0x01C0 [0x01] GOTO 0x029B
 67: 0x01C3 [0x02] IF !(Work_Zone[7] == 11*) GOTO 0x01E7
 68: 0x01CB [0xBA] SET_ENTITY_POSITION(entity_id=LocalPlayer, pos_x=-175.625*, pos_z=70.156*, pos_y=-1.521*, direction=0.0°*)
 69: 0x01D8 [0x47] UPDATE_PLAYER_POS(-175.625*, 70.156*, -1.521*, yaw=0.0°*)
 70: 0x01E2 [0x47] WAIT_PLAYER_POS_UPDATE
 71: 0x01E4 [0x01] GOTO 0x029B
 72: 0x01E7 [0x02] IF !(Work_Zone[7] == 12*) GOTO 0x020B
 73: 0x01EF [0xBA] SET_ENTITY_POSITION(entity_id=LocalPlayer, pos_x=-183.424*, pos_z=70.198*, pos_y=-16.386*, direction=377476043.4°*)
 74: 0x01FC [0x47] UPDATE_PLAYER_POS(-183.424*, 70.198*, -16.386*, yaw=377476043.4°*)
 75: 0x0206 [0x47] WAIT_PLAYER_POS_UPDATE
 76: 0x0208 [0x01] GOTO 0x029B
 77: 0x020B [0x02] IF !(Work_Zone[7] == 13*) GOTO 0x022F
 78: 0x0213 [0xBA] SET_ENTITY_POSITION(entity_id=LocalPlayer, pos_x=-216.615*, pos_z=110.132*, pos_y=-17.509*, direction=377476210.4°*)
 79: 0x0220 [0x47] UPDATE_PLAYER_POS(-216.615*, 110.132*, -17.509*, yaw=377476210.4°*)
 80: 0x022A [0x47] WAIT_PLAYER_POS_UPDATE
 81: 0x022C [0x01] GOTO 0x029B
 82: 0x022F [0x02] IF !(Work_Zone[7] == 14*) GOTO 0x0253
 83: 0x0237 [0xBA] SET_ENTITY_POSITION(entity_id=LocalPlayer, pos_x=-223.014*, pos_z=110.284*, pos_y=-32.398*, direction=377476043.4°*)
 84: 0x0244 [0x47] UPDATE_PLAYER_POS(-223.014*, 110.284*, -32.398*, yaw=377476043.4°*)
 85: 0x024E [0x47] WAIT_PLAYER_POS_UPDATE
 86: 0x0250 [0x01] GOTO 0x029B
 87: 0x0253 [0x02] IF !(Work_Zone[7] == 15*) GOTO 0x0277
 88: 0x025B [0xBA] SET_ENTITY_POSITION(entity_id=LocalPlayer, pos_x=-256.007*, pos_z=150.104*, pos_y=-33.430*, direction=0.0°*)
 89: 0x0268 [0x47] UPDATE_PLAYER_POS(-256.007*, 150.104*, -33.430*, yaw=0.0°*)
 90: 0x0272 [0x47] WAIT_PLAYER_POS_UPDATE
 91: 0x0274 [0x01] GOTO 0x029B
 92: 0x0277 [0x02] IF !(Work_Zone[7] == 16*) GOTO 0x029B
 93: 0x027F [0xBA] SET_ENTITY_POSITION(entity_id=LocalPlayer, pos_x=-262.795*, pos_z=150.204*, pos_y=-48.399*, direction=377476043.4°*)
 94: 0x028C [0x47] UPDATE_PLAYER_POS(-262.795*, 150.204*, -48.399*, yaw=377476043.4°*)
 95: 0x0296 [0x47] WAIT_PLAYER_POS_UPDATE
 96: 0x0298 [0x01] GOTO 0x029B

SUBROUTINE_029B:
 97: 0x029B [0x1C] WAIT(30* ticks)
 98: 0x029E [0x80] LOAD_WAIT(entity=LocalPlayer)
 99: 0x02A3 [0x1C] WAIT(15* ticks)
100: 0x02A6 [0xAB] EventEntity->DespawnValue = 0* // Set despawn value
101: 0x02AA [0x1C] WAIT(1* ticks)
102: 0x02AD [0x45] LOAD_SCHEDULED_TASK: Load scheduler "fdi2" with entities [LocalPlayer, LocalPlayer], work=[200*, 0*]
103: 0x02BE [0x01] GOTO 0x02D1
104: 0x02C1 [0x02] IF !(Work_Zone[0] == 1*) GOTO 0x02D1
105: 0x02C9 [0x03] Work_Zone[1] = 1073741824*
106: 0x02CE [0x01] GOTO 0x02D1

SUBROUTINE_02D1:
107: 0x02D1 [0x21] END_EVENT
108: 0x02D2 [0x00] END_REQSTACK()
```
