# 17863417 - Apolliane

## Common Data

| Field            | Value                           |
|------------------|---------------------------------|
| Zone             | Morimar Basalt Fields (ID: 265) |
| Block Size       | 892 bytes                       |
| Total Events     | 21                              |
| References Count | 31                              |

## List of Events

| Event ID                   | Entrypoint   |   Size |   Instructions |
|----------------------------|--------------|--------|----------------|
| [65535](#event-65535)      | 0x0000       |      1 |              1 |
| [65535.1](#event-655351)   | 0x0001       |     47 |              5 |
| [65535.2](#event-655352)   | 0x0030       |     16 |              2 |
| [65535.3](#event-655353)   | 0x0040       |     14 |              2 |
| [65535.4](#event-655354)   | 0x004E       |     16 |              2 |
| [65535.5](#event-655355)   | 0x005E       |     14 |              2 |
| [65535.6](#event-655356)   | 0x006C       |     16 |              2 |
| [65535.7](#event-655357)   | 0x007C       |     14 |              2 |
| [65535.8](#event-655358)   | 0x008A       |     16 |              2 |
| [65535.9](#event-655359)   | 0x009A       |     14 |              2 |
| [65535.10](#event-6553510) | 0x00A8       |      9 |              3 |
| [65535.11](#event-6553511) | 0x00B1       |     16 |              4 |
| [65535.12](#event-6553512) | 0x00C1       |     16 |              4 |
| [65535.13](#event-6553513) | 0x00D1       |     16 |              4 |
| [2570](#event-2570)        | 0x00E1       |     31 |             10 |
| [2571](#event-2571)        | 0x0100       |     90 |             27 |
| [2572](#event-2572)        | 0x015A       |     39 |             14 |
| [2587](#event-2587)        | 0x0181       |     35 |             12 |
| [2573](#event-2573)        | 0x01A4       |    142 |             24 |
| [2574](#event-2574)        | 0x0232       |     70 |             15 |
| [28](#event-28)            | 0x0278       |     34 |             13 |

## DAT References (imed_data)

|   Index | Hex Value   |   Dec Value |
|---------|-------------|-------------|
|       0 | 0x0027      |          39 |
|       1 | 0x0032      |          50 |
|       2 | 0x00B3      |         179 |
|       3 | 0x001E      |          30 |
|       4 | 0x0000      |           0 |
|       5 | 0x000C      |          12 |
|       6 | 0x001A      |          26 |
|       7 | 0x1D61      |        7521 |
|       8 | 0x0F51      |        3921 |
|       9 | 0x089E      |        2206 |
|      10 | 0x1D62      |        7522 |
|      11 | 0x1D63      |        7523 |
|      12 | 0x1D64      |        7524 |
|      13 | 0x1D65      |        7525 |
|      14 | 0x1D66      |        7526 |
|      15 | 0x1D67      |        7527 |
|      16 | 0x1D68      |        7528 |
|      17 | 0x1D69      |        7529 |
|      18 | 0x1D6A      |        7530 |
|      19 | 0x1D6B      |        7531 |
|      20 | 0x1D6C      |        7532 |
|      21 | 0x1D6D      |        7533 |
|      22 | 0x1D6E      |        7534 |
|      23 | 0x00C8      |         200 |
|      24 | 0x003C      |          60 |
|      25 | 0x1D6F      |        7535 |
|      26 | 0x00C9      |         201 |
|      27 | 0x1D70      |        7536 |
|      28 | 0x1F04      |        7940 |
|      29 | 0x1F05      |        7941 |
|      30 | 0x1F06      |        7942 |

## String References

- **7521**: I would deign to assist you, but you must first register as a pioneer. Turn tail and return to Adoulin first to register, and then we can discuss matters further.
- **7522**: The Morimar Basalt Fields are riddled with walls and crags made of hardened magma. This has caused much consternation for those traveling here, as the paths are sometimes blocked by such dangers.
- **7523**: You, too, must have met with some of these hindrances countless times on your way here. Were you aware, however, that there are methods for breaking down these natural barriers?
- **7524**: It is truly a simple affair. There is a technique known by the moniker of $3, which will enable you to contriturate such annoyances in a flash.
- **7525**: I can enlighten you as to the secrets of such a skill. However, I will require something in return.
- **7526**: I ask not much of you--bring me $0, which can be excavated from ore deposits in the area. I presume it should take you no time at all.
- **7527**: This is a test of your skill in the wilds, young one. You must dig one up for yourself, not merely hand over one you have acquired by other means.
- **7528**: % can be mined from ore deposits here in the Morimar Basalt Fields. I am certain that you have experienced harvesting the mineral bounties that lodes provide, yes?
- **7529**: Remember--I require that you dig one up with your own tools.
- **7530**: Learning my techniques requires the proper mindset...for me, not for you. That's why I require $0--it represents the first step toward forming a bond of trust.
- **7531**: Yes, this item is of the type that I require--but it's far too clean and polished. I cannot believe you dug it up yourself.
- **7532**: You must put your skills to the test and find one using your own skills and strengths. I will accept no less.
- **7533**: Well done! One who is able to find a stone such as this surely has what it takes to navigate the perilous terrain of the basalt fields.
- **7534**: Hold steady, dear friend, and take the time for introspection. You have naturally acquired the skill $3 by fulfilling my meager request.
- **7535**: You should now be able to crush the stone walls with ease. Please forgive my sending you on such a meaningless task, but I wanted to impress upon you that you can do whatever you set your heart on.
- **7536**: The term "pioneer" may be just a word to you, but in Adoulin it embodies a certain strength of spirit. A pioneer who forgets that they serve the people is no pioneer at all.
- **7940**: Hostenn? Oh yes, terrible story, that. We procured some new explosives to use in our work here, but the detonation, well...
- **7941**: The blast alerted numerous revolting, gargantuan beasts who assaulted us from all sides.
- **7942**: Several of our expedition's members fled, yet they failed to return even when the immediate danger had passed. We are currently devoting all our resources to finding them.

## Events

### Event 65535

#### Metadata

| Field        | Value   |
|--------------|---------|
| Entrypoint   | 0x0000  |
| Data Size    | 1 bytes |
| Instructions | 1       |

```
      00 01 02 03 04 05 06 07  08 09 0A 0B 0C 0D 0E 0F
      -- -- -- -- -- -- -- --  -- -- -- -- -- -- -- --
0000: 00                                                .               
```

#### Opcodes

```
  0: 0x0000 [0x00] END_REQSTACK()
```

### Event 65535.1

#### Metadata

| Field        | Value    |
|--------------|----------|
| Entrypoint   | 0x0001   |
| Data Size    | 47 bytes |
| Instructions | 5        |

```
      00 01 02 03 04 05 06 07  08 09 0A 0B 0C 0D 0E 0F
      -- -- -- -- -- -- -- --  -- -- -- -- -- -- -- --
0000:    66 00 80 F8 FF FF 7F  F8 FF FF 7F 74 6C 6B 30   f..........tlk0
0010: 1C 01 80 66 00 80 F8 FF  FF 7F F8 FF FF 7F 74 6C  ...f..........tl
0020: 6B 31 53 F8 FF FF 7F F8  FF FF 7F 74 6C 6B 31 00  k1S........tlk1.
```

#### Opcodes

```
  0: 0x0001 [0x66] LOAD_EXT_SCHEDULER_MAIN: Load scheduler "tlk0" with entities [EventEntity, EventEntity], work=39*
  1: 0x0010 [0x1C] WAIT(50* ticks)
  2: 0x0013 [0x66] LOAD_EXT_SCHEDULER_MAIN: Load scheduler "tlk1" with entities [EventEntity, EventEntity], work=39*
  3: 0x0022 [0x53] WAIT_SCHEDULER_TASK: Wait for scheduler "tlk1" with entities [EventEntity, EventEntity]
  4: 0x002F [0x00] END_REQSTACK()
```

### Event 65535.2

#### Metadata

| Field        | Value    |
|--------------|----------|
| Entrypoint   | 0x0030   |
| Data Size    | 16 bytes |
| Instructions | 2        |

```
      00 01 02 03 04 05 06 07  08 09 0A 0B 0C 0D 0E 0F
      -- -- -- -- -- -- -- --  -- -- -- -- -- -- -- --
0030: 66 00 80 F8 FF FF 7F F8  FF FF 7F 74 68 6B 31 00  f..........thk1.
```

#### Opcodes

```
  0: 0x0030 [0x66] LOAD_EXT_SCHEDULER_MAIN: Load scheduler "thk1" with entities [EventEntity, EventEntity], work=39*
  1: 0x003F [0x00] END_REQSTACK()
```

### Event 65535.3

#### Metadata

| Field        | Value    |
|--------------|----------|
| Entrypoint   | 0x0040   |
| Data Size    | 14 bytes |
| Instructions | 2        |

```
      00 01 02 03 04 05 06 07  08 09 0A 0B 0C 0D 0E 0F
      -- -- -- -- -- -- -- --  -- -- -- -- -- -- -- --
0040: 53 F8 FF FF 7F F8 FF FF  7F 74 68 6B 31 00        S........thk1.  
```

#### Opcodes

```
  0: 0x0040 [0x53] WAIT_SCHEDULER_TASK: Wait for scheduler "thk1" with entities [EventEntity, EventEntity]
  1: 0x004D [0x00] END_REQSTACK()
```

### Event 65535.4

#### Metadata

| Field        | Value    |
|--------------|----------|
| Entrypoint   | 0x004E   |
| Data Size    | 16 bytes |
| Instructions | 2        |

```
      00 01 02 03 04 05 06 07  08 09 0A 0B 0C 0D 0E 0F
      -- -- -- -- -- -- -- --  -- -- -- -- -- -- -- --
0040:                                            66 00                f.
0050: 80 F8 FF FF 7F F8 FF FF  7F 74 68 6B 32 00        .........thk2.  
```

#### Opcodes

```
  0: 0x004E [0x66] LOAD_EXT_SCHEDULER_MAIN: Load scheduler "thk2" with entities [EventEntity, EventEntity], work=39*
  1: 0x005D [0x00] END_REQSTACK()
```

### Event 65535.5

#### Metadata

| Field        | Value    |
|--------------|----------|
| Entrypoint   | 0x005E   |
| Data Size    | 14 bytes |
| Instructions | 2        |

```
      00 01 02 03 04 05 06 07  08 09 0A 0B 0C 0D 0E 0F
      -- -- -- -- -- -- -- --  -- -- -- -- -- -- -- --
0050:                                            53 F8                S.
0060: FF FF 7F F8 FF FF 7F 74  68 6B 32 00              .......thk2.    
```

#### Opcodes

```
  0: 0x005E [0x53] WAIT_SCHEDULER_TASK: Wait for scheduler "thk2" with entities [EventEntity, EventEntity]
  1: 0x006B [0x00] END_REQSTACK()
```

### Event 65535.6

#### Metadata

| Field        | Value    |
|--------------|----------|
| Entrypoint   | 0x006C   |
| Data Size    | 16 bytes |
| Instructions | 2        |

```
      00 01 02 03 04 05 06 07  08 09 0A 0B 0C 0D 0E 0F
      -- -- -- -- -- -- -- --  -- -- -- -- -- -- -- --
0060:                                      66 02 80 F8              f...
0070: FF FF 7F F8 FF FF 7F 74  6C 6B 30 00              .......tlk0.    
```

#### Opcodes

```
  0: 0x006C [0x66] LOAD_EXT_SCHEDULER_MAIN: Load scheduler "tlk0" with entities [EventEntity, EventEntity], work=179*
  1: 0x007B [0x00] END_REQSTACK()
```

### Event 65535.7

#### Metadata

| Field        | Value    |
|--------------|----------|
| Entrypoint   | 0x007C   |
| Data Size    | 14 bytes |
| Instructions | 2        |

```
      00 01 02 03 04 05 06 07  08 09 0A 0B 0C 0D 0E 0F
      -- -- -- -- -- -- -- --  -- -- -- -- -- -- -- --
0070:                                      53 F8 FF FF              S...
0080: 7F F8 FF FF 7F 74 6C 6B  30 00                    .....tlk0.      
```

#### Opcodes

```
  0: 0x007C [0x53] WAIT_SCHEDULER_TASK: Wait for scheduler "tlk0" with entities [EventEntity, EventEntity]
  1: 0x0089 [0x00] END_REQSTACK()
```

### Event 65535.8

#### Metadata

| Field        | Value    |
|--------------|----------|
| Entrypoint   | 0x008A   |
| Data Size    | 16 bytes |
| Instructions | 2        |

```
      00 01 02 03 04 05 06 07  08 09 0A 0B 0C 0D 0E 0F
      -- -- -- -- -- -- -- --  -- -- -- -- -- -- -- --
0080:                                66 02 80 F8 FF FF            f.....
0090: 7F F8 FF FF 7F 74 6C 6B  31 00                    .....tlk1.      
```

#### Opcodes

```
  0: 0x008A [0x66] LOAD_EXT_SCHEDULER_MAIN: Load scheduler "tlk1" with entities [EventEntity, EventEntity], work=179*
  1: 0x0099 [0x00] END_REQSTACK()
```

### Event 65535.9

#### Metadata

| Field        | Value    |
|--------------|----------|
| Entrypoint   | 0x009A   |
| Data Size    | 14 bytes |
| Instructions | 2        |

```
      00 01 02 03 04 05 06 07  08 09 0A 0B 0C 0D 0E 0F
      -- -- -- -- -- -- -- --  -- -- -- -- -- -- -- --
0090:                                53 F8 FF FF 7F F8            S.....
00A0: FF FF 7F 74 6C 6B 31 00                           ...tlk1.        
```

#### Opcodes

```
  0: 0x009A [0x53] WAIT_SCHEDULER_TASK: Wait for scheduler "tlk1" with entities [EventEntity, EventEntity]
  1: 0x00A7 [0x00] END_REQSTACK()
```

### Event 65535.10

#### Metadata

| Field        | Value   |
|--------------|---------|
| Entrypoint   | 0x00A8  |
| Data Size    | 9 bytes |
| Instructions | 3       |

```
      00 01 02 03 04 05 06 07  08 09 0A 0B 0C 0D 0E 0F
      -- -- -- -- -- -- -- --  -- -- -- -- -- -- -- --
00A0:                          5E 69 64 6C 30 1C 03 80          ^idl0...
00B0: 00                                                .               
```

#### Opcodes

```
  0: 0x00A8 [0x5E] EventEntity goes idle (kills current action) (animation: "idl0")
  1: 0x00AD [0x1C] WAIT(30* ticks)
  2: 0x00B0 [0x00] END_REQSTACK()
```

### Event 65535.11

#### Metadata

| Field        | Value    |
|--------------|----------|
| Entrypoint   | 0x00B1   |
| Data Size    | 16 bytes |
| Instructions | 4        |

```
      00 01 02 03 04 05 06 07  08 09 0A 0B 0C 0D 0E 0F
      -- -- -- -- -- -- -- --  -- -- -- -- -- -- -- --
00B0:    6E F9 92 10 01 04 80  99 F9 92 10 01 1C 01 80   n..............
00C0: 00                                                .               
```

#### Opcodes

```
  0: 0x00B1 [0x6E] Apolliane (ID: 17863417/0x011092F9) uses emote 0*
  1: 0x00B8 [0x99] Wait for Apolliane (ID: 17863417/0x011092F9) animation to complete
  2: 0x00BD [0x1C] WAIT(50* ticks)
  3: 0x00C0 [0x00] END_REQSTACK()
```

### Event 65535.12

#### Metadata

| Field        | Value    |
|--------------|----------|
| Entrypoint   | 0x00C1   |
| Data Size    | 16 bytes |
| Instructions | 4        |

```
      00 01 02 03 04 05 06 07  08 09 0A 0B 0C 0D 0E 0F
      -- -- -- -- -- -- -- --  -- -- -- -- -- -- -- --
00C0:    6E F9 92 10 01 05 80  99 F9 92 10 01 1C 01 80   n..............
00D0: 00                                                .               
```

#### Opcodes

```
  0: 0x00C1 [0x6E] Apolliane (ID: 17863417/0x011092F9) uses emote 12*
  1: 0x00C8 [0x99] Wait for Apolliane (ID: 17863417/0x011092F9) animation to complete
  2: 0x00CD [0x1C] WAIT(50* ticks)
  3: 0x00D0 [0x00] END_REQSTACK()
```

### Event 65535.13

#### Metadata

| Field        | Value    |
|--------------|----------|
| Entrypoint   | 0x00D1   |
| Data Size    | 16 bytes |
| Instructions | 4        |

```
      00 01 02 03 04 05 06 07  08 09 0A 0B 0C 0D 0E 0F
      -- -- -- -- -- -- -- --  -- -- -- -- -- -- -- --
00D0:    6E F9 92 10 01 06 80  99 F9 92 10 01 1C 01 80   n..............
00E0: 00                                                .               
```

#### Opcodes

```
  0: 0x00D1 [0x6E] Apolliane (ID: 17863417/0x011092F9) uses emote 26*
  1: 0x00D8 [0x99] Wait for Apolliane (ID: 17863417/0x011092F9) animation to complete
  2: 0x00DD [0x1C] WAIT(50* ticks)
  3: 0x00E0 [0x00] END_REQSTACK()
```

### Event 2570

#### Metadata

| Field        | Value    |
|--------------|----------|
| Entrypoint   | 0x00E1   |
| Data Size    | 31 bytes |
| Instructions | 10       |

```
      00 01 02 03 04 05 06 07  08 09 0A 0B 0C 0D 0E 0F
      -- -- -- -- -- -- -- --  -- -- -- -- -- -- -- --
00E0:    03 02 10 03 7F 1E F0  FF FF 7F 6F 70 27 08 F9   ..........op'..
00F0: 92 10 01 01 1D 07 80 23  2A 08 F9 92 10 01 21 00  .......#*.....!.
```

#### Opcodes

```
  0: 0x00E1 [0x03] Work_Zone[2] = enDirCli(ExtData[1]->EventDir[1]) * 4096.0 * 0.15915963
  1: 0x00E6 [0x1E] EventEntity looks at LocalPlayer and starts talking
  2: 0x00EB [0x6F] WAIT_FRAME_DELAY: Yield until WaitTime reaches zero
  3: 0x00EC [0x70] WAIT_ENTITY_RENDER_FLAG: Wait while EventEntity->Render.Flags3 bit 2 is set (cancel turn if not)
  4: 0x00ED [0x27] REQ_SET(priority=0x08, entity_id=Apolliane (ID: 17863417/0x011092F9), tag_num=0x01)
  5: 0x00F4 [0x1D] PRINT_EVENT_MESSAGE(message_id=7521*)
    → "I would deign to assist you, but you must first register as a pioneer. Turn tail and return to Adoulin first to register, and then we can discuss matters further."
  6: 0x00F7 [0x23] WAIT_FOR_DIALOG_INTERACTION
  7: 0x00F8 [0x2A] GET_REQ_LEVEL(level=8, entity_id=Apolliane (ID: 17863417/0x011092F9))
  8: 0x00FE [0x21] END_EVENT
  9: 0x00FF [0x00] END_REQSTACK()
```

### Event 2571

#### Metadata

| Field        | Value    |
|--------------|----------|
| Entrypoint   | 0x0100   |
| Data Size    | 90 bytes |
| Instructions | 27       |

```
      00 01 02 03 04 05 06 07  08 09 0A 0B 0C 0D 0E 0F
      -- -- -- -- -- -- -- --  -- -- -- -- -- -- -- --
0100: 42 03 02 10 03 7F 1E F0  FF FF 7F 6F 70 03 02 10  B..........op...
0110: 08 80 03 03 10 09 80 27  08 F9 92 10 01 01 1D 0A  .......'........
0120: 80 23 1D 0B 80 23 2A 08  F9 92 10 01 29 08 F9 92  .#...#*.....)...
0130: 10 01 02 1D 0C 80 23 1D  0D 80 23 29 08 F9 92 10  ......#...#)....
0140: 01 03 29 08 F9 92 10 01  04 1D 0E 80 23 1D 0F 80  ..).........#...
0150: 23 29 08 F9 92 10 01 05  21 00                    #)......!.      
```

#### Opcodes

```
  0: 0x0100 [0x42] SET_CLI_EVENT_CANCEL_DATA()
  1: 0x0101 [0x03] Work_Zone[2] = enDirCli(ExtData[1]->EventDir[1]) * 4096.0 * 0.15915963
  2: 0x0106 [0x1E] EventEntity looks at LocalPlayer and starts talking
  3: 0x010B [0x6F] WAIT_FRAME_DELAY: Yield until WaitTime reaches zero
  4: 0x010C [0x70] WAIT_ENTITY_RENDER_FLAG: Wait while EventEntity->Render.Flags3 bit 2 is set (cancel turn if not)
  5: 0x010D [0x03] Work_Zone[2] = 3921*
  6: 0x0112 [0x03] Work_Zone[3] = 2206*
  7: 0x0117 [0x27] REQ_SET(priority=0x08, entity_id=Apolliane (ID: 17863417/0x011092F9), tag_num=0x01)
  8: 0x011E [0x1D] PRINT_EVENT_MESSAGE(message_id=7522*)
    → "The Morimar Basalt Fields are riddled with walls and crags made of hardened magma. This has caused much consternation for those traveling here, as the paths are sometimes blocked by such dangers."
  9: 0x0121 [0x23] WAIT_FOR_DIALOG_INTERACTION
 10: 0x0122 [0x1D] PRINT_EVENT_MESSAGE(message_id=7523*)
    → "You, too, must have met with some of these hindrances countless times on your way here. Were you aware, however, that there are methods for breaking down these natural barriers?"
 11: 0x0125 [0x23] WAIT_FOR_DIALOG_INTERACTION
 12: 0x0126 [0x2A] GET_REQ_LEVEL(level=8, entity_id=Apolliane (ID: 17863417/0x011092F9))
 13: 0x012C [0x29] REQ_SET_WAIT(priority=0x08, entity_id=Apolliane (ID: 17863417/0x011092F9), tag_num=0x02)
 14: 0x0133 [0x1D] PRINT_EVENT_MESSAGE(message_id=7524*)
    → "It is truly a simple affair. There is a technique known by the moniker of $3, which will enable you to contriturate such annoyances in a flash."
 15: 0x0136 [0x23] WAIT_FOR_DIALOG_INTERACTION
 16: 0x0137 [0x1D] PRINT_EVENT_MESSAGE(message_id=7525*)
    → "I can enlighten you as to the secrets of such a skill. However, I will require something in return."
 17: 0x013A [0x23] WAIT_FOR_DIALOG_INTERACTION
 18: 0x013B [0x29] REQ_SET_WAIT(priority=0x08, entity_id=Apolliane (ID: 17863417/0x011092F9), tag_num=0x03)
 19: 0x0142 [0x29] REQ_SET_WAIT(priority=0x08, entity_id=Apolliane (ID: 17863417/0x011092F9), tag_num=0x04)
 20: 0x0149 [0x1D] PRINT_EVENT_MESSAGE(message_id=7526*)
    → "I ask not much of you--bring me $0, which can be excavated from ore deposits in the area. I presume it should take you no time at all."
 21: 0x014C [0x23] WAIT_FOR_DIALOG_INTERACTION
 22: 0x014D [0x1D] PRINT_EVENT_MESSAGE(message_id=7527*)
    → "This is a test of your skill in the wilds, young one. You must dig one up for yourself, not merely hand over one you have acquired by other means."
 23: 0x0150 [0x23] WAIT_FOR_DIALOG_INTERACTION
 24: 0x0151 [0x29] REQ_SET_WAIT(priority=0x08, entity_id=Apolliane (ID: 17863417/0x011092F9), tag_num=0x05)
 25: 0x0158 [0x21] END_EVENT
 26: 0x0159 [0x00] END_REQSTACK()
```

### Event 2572

#### Metadata

| Field        | Value    |
|--------------|----------|
| Entrypoint   | 0x015A   |
| Data Size    | 39 bytes |
| Instructions | 14       |

```
      00 01 02 03 04 05 06 07  08 09 0A 0B 0C 0D 0E 0F
      -- -- -- -- -- -- -- --  -- -- -- -- -- -- -- --
0150:                                1E F0 FF FF 7F 6F            .....o
0160: 70 03 02 10 08 80 27 08  F9 92 10 01 01 1D 10 80  p.....'.........
0170: 23 1D 11 80 23 1D 12 80  23 2A 08 F9 92 10 01 21  #...#...#*.....!
0180: 00                                                .               
```

#### Opcodes

```
  0: 0x015A [0x1E] EventEntity looks at LocalPlayer and starts talking
  1: 0x015F [0x6F] WAIT_FRAME_DELAY: Yield until WaitTime reaches zero
  2: 0x0160 [0x70] WAIT_ENTITY_RENDER_FLAG: Wait while EventEntity->Render.Flags3 bit 2 is set (cancel turn if not)
  3: 0x0161 [0x03] Work_Zone[2] = 3921*
  4: 0x0166 [0x27] REQ_SET(priority=0x08, entity_id=Apolliane (ID: 17863417/0x011092F9), tag_num=0x01)
  5: 0x016D [0x1D] PRINT_EVENT_MESSAGE(message_id=7528*)
    → "% can be mined from ore deposits here in the Morimar Basalt Fields. I am certain that you have experienced harvesting the mineral bounties that lodes provide, yes?"
  6: 0x0170 [0x23] WAIT_FOR_DIALOG_INTERACTION
  7: 0x0171 [0x1D] PRINT_EVENT_MESSAGE(message_id=7529*)
    → "Remember--I require that you dig one up with your own tools."
  8: 0x0174 [0x23] WAIT_FOR_DIALOG_INTERACTION
  9: 0x0175 [0x1D] PRINT_EVENT_MESSAGE(message_id=7530*)
    → "Learning my techniques requires the proper mindset...for me, not for you. That's why I require $0--it represents the first step toward forming a bond of trust."
 10: 0x0178 [0x23] WAIT_FOR_DIALOG_INTERACTION
 11: 0x0179 [0x2A] GET_REQ_LEVEL(level=8, entity_id=Apolliane (ID: 17863417/0x011092F9))
 12: 0x017F [0x21] END_EVENT
 13: 0x0180 [0x00] END_REQSTACK()
```

### Event 2587

#### Metadata

| Field        | Value    |
|--------------|----------|
| Entrypoint   | 0x0181   |
| Data Size    | 35 bytes |
| Instructions | 12       |

```
      00 01 02 03 04 05 06 07  08 09 0A 0B 0C 0D 0E 0F
      -- -- -- -- -- -- -- --  -- -- -- -- -- -- -- --
0180:    1E F0 FF FF 7F 6F 70  03 02 10 08 80 27 08 F9   .....op.....'..
0190: 92 10 01 01 1D 13 80 23  1D 14 80 23 2A 08 F9 92  .......#...#*...
01A0: 10 01 21 00                                       ..!.            
```

#### Opcodes

```
  0: 0x0181 [0x1E] EventEntity looks at LocalPlayer and starts talking
  1: 0x0186 [0x6F] WAIT_FRAME_DELAY: Yield until WaitTime reaches zero
  2: 0x0187 [0x70] WAIT_ENTITY_RENDER_FLAG: Wait while EventEntity->Render.Flags3 bit 2 is set (cancel turn if not)
  3: 0x0188 [0x03] Work_Zone[2] = 3921*
  4: 0x018D [0x27] REQ_SET(priority=0x08, entity_id=Apolliane (ID: 17863417/0x011092F9), tag_num=0x01)
  5: 0x0194 [0x1D] PRINT_EVENT_MESSAGE(message_id=7531*)
    → "Yes, this item is of the type that I require--but it's far too clean and polished. I cannot believe you dug it up yourself."
  6: 0x0197 [0x23] WAIT_FOR_DIALOG_INTERACTION
  7: 0x0198 [0x1D] PRINT_EVENT_MESSAGE(message_id=7532*)
    → "You must put your skills to the test and find one using your own skills and strengths. I will accept no less."
  8: 0x019B [0x23] WAIT_FOR_DIALOG_INTERACTION
  9: 0x019C [0x2A] GET_REQ_LEVEL(level=8, entity_id=Apolliane (ID: 17863417/0x011092F9))
 10: 0x01A2 [0x21] END_EVENT
 11: 0x01A3 [0x00] END_REQSTACK()
```

### Event 2573

#### Metadata

| Field        | Value     |
|--------------|-----------|
| Entrypoint   | 0x01A4    |
| Data Size    | 142 bytes |
| Instructions | 24        |

```
      00 01 02 03 04 05 06 07  08 09 0A 0B 0C 0D 0E 0F
      -- -- -- -- -- -- -- --  -- -- -- -- -- -- -- --
01A0:             42 03 03 10  09 80 03 02 10 03 7F 1E      B...........
01B0: F0 FF FF 7F 6F 70 27 08  F9 92 10 01 0C 1D 15 80  ....op'.........
01C0: 23 1D 16 80 23 45 17 80  F0 FF FF 7F F0 FF FF 7F  #...#E..........
01D0: 66 64 6F 31 04 80 55 17  80 F0 FF FF 7F F0 FF FF  fdo1..U.........
01E0: 7F 66 64 6F 31 2A 08 F9  92 10 01 1C 18 80 45 17  .fdo1*........E.
01F0: 80 F0 FF FF 7F F0 FF FF  7F 66 64 69 31 04 80 55  .........fdi1..U
0200: 17 80 F0 FF FF 7F F0 FF  FF 7F 66 64 69 31 27 08  ..........fdi1'.
0210: F9 92 10 01 01 1D 19 80  23 2A 08 F9 92 10 01 45  ........#*.....E
0220: 1A 80 F8 FF FF 7F F8 FF  FF 7F 71 73 74 63 04 80  ..........qstc..
0230: 21 00                                             !.              
```

#### Opcodes

```
  0: 0x01A4 [0x42] SET_CLI_EVENT_CANCEL_DATA()
  1: 0x01A5 [0x03] Work_Zone[3] = 2206*
  2: 0x01AA [0x03] Work_Zone[2] = enDirCli(ExtData[1]->EventDir[1]) * 4096.0 * 0.15915963
  3: 0x01AF [0x1E] EventEntity looks at LocalPlayer and starts talking
  4: 0x01B4 [0x6F] WAIT_FRAME_DELAY: Yield until WaitTime reaches zero
  5: 0x01B5 [0x70] WAIT_ENTITY_RENDER_FLAG: Wait while EventEntity->Render.Flags3 bit 2 is set (cancel turn if not)
  6: 0x01B6 [0x27] REQ_SET(priority=0x08, entity_id=Apolliane (ID: 17863417/0x011092F9), tag_num=0x0C)
  7: 0x01BD [0x1D] PRINT_EVENT_MESSAGE(message_id=7533*)
    → "Well done! One who is able to find a stone such as this surely has what it takes to navigate the perilous terrain of the basalt fields."
  8: 0x01C0 [0x23] WAIT_FOR_DIALOG_INTERACTION
  9: 0x01C1 [0x1D] PRINT_EVENT_MESSAGE(message_id=7534*)
    → "Hold steady, dear friend, and take the time for introspection. You have naturally acquired the skill $3 by fulfilling my meager request."
 10: 0x01C4 [0x23] WAIT_FOR_DIALOG_INTERACTION
 11: 0x01C5 [0x45] LOAD_SCHEDULED_TASK: Load scheduler "fdo1" with entities [LocalPlayer, LocalPlayer], work=[200*, 0*]
 12: 0x01D6 [0x55] WAIT_LOAD_SCHEDULER: Wait for scheduler "fdo1" with entities [LocalPlayer, LocalPlayer], work=200*
 13: 0x01E5 [0x2A] GET_REQ_LEVEL(level=8, entity_id=Apolliane (ID: 17863417/0x011092F9))
 14: 0x01EB [0x1C] WAIT(60* ticks)
 15: 0x01EE [0x45] LOAD_SCHEDULED_TASK: Load scheduler "fdi1" with entities [LocalPlayer, LocalPlayer], work=[200*, 0*]
 16: 0x01FF [0x55] WAIT_LOAD_SCHEDULER: Wait for scheduler "fdi1" with entities [LocalPlayer, LocalPlayer], work=200*
 17: 0x020E [0x27] REQ_SET(priority=0x08, entity_id=Apolliane (ID: 17863417/0x011092F9), tag_num=0x01)
 18: 0x0215 [0x1D] PRINT_EVENT_MESSAGE(message_id=7535*)
    → "You should now be able to crush the stone walls with ease. Please forgive my sending you on such a meaningless task, but I wanted to impress upon you that you can do whatever you set your heart on."
 19: 0x0218 [0x23] WAIT_FOR_DIALOG_INTERACTION
 20: 0x0219 [0x2A] GET_REQ_LEVEL(level=8, entity_id=Apolliane (ID: 17863417/0x011092F9))
 21: 0x021F [0x45] LOAD_SCHEDULED_TASK: Load scheduler "qstc" with entities [EventEntity, EventEntity], work=[201*, 0*]
 22: 0x0230 [0x21] END_EVENT
 23: 0x0231 [0x00] END_REQSTACK()
```

### Event 2574

#### Metadata

| Field        | Value    |
|--------------|----------|
| Entrypoint   | 0x0232   |
| Data Size    | 70 bytes |
| Instructions | 15       |

```
      00 01 02 03 04 05 06 07  08 09 0A 0B 0C 0D 0E 0F
      -- -- -- -- -- -- -- --  -- -- -- -- -- -- -- --
0230:       03 02 10 03 7F 1E  F0 FF FF 7F 6F 70 66 00    ..........opf.
0240: 80 F8 FF FF 7F F8 FF FF  7F 74 6C 6B 30 27 08 F9  .........tlk0'..
0250: 92 10 01 01 1D 1B 80 23  2A 08 F9 92 10 01 66 00  .......#*.....f.
0260: 80 F8 FF FF 7F F8 FF FF  7F 74 6C 6B 31 4B F8 FF  .........tlk1K..
0270: FF 7F 02 10 6F 70 21 00                           ....op!.        
```

#### Opcodes

```
  0: 0x0232 [0x03] Work_Zone[2] = enDirCli(ExtData[1]->EventDir[1]) * 4096.0 * 0.15915963
  1: 0x0237 [0x1E] EventEntity looks at LocalPlayer and starts talking
  2: 0x023C [0x6F] WAIT_FRAME_DELAY: Yield until WaitTime reaches zero
  3: 0x023D [0x70] WAIT_ENTITY_RENDER_FLAG: Wait while EventEntity->Render.Flags3 bit 2 is set (cancel turn if not)
  4: 0x023E [0x66] LOAD_EXT_SCHEDULER_MAIN: Load scheduler "tlk0" with entities [EventEntity, EventEntity], work=39*
  5: 0x024D [0x27] REQ_SET(priority=0x08, entity_id=Apolliane (ID: 17863417/0x011092F9), tag_num=0x01)
  6: 0x0254 [0x1D] PRINT_EVENT_MESSAGE(message_id=7536*)
    → "The term "pioneer" may be just a word to you, but in Adoulin it embodies a certain strength of spirit. A pioneer who forgets that they serve the people is no pioneer at all."
  7: 0x0257 [0x23] WAIT_FOR_DIALOG_INTERACTION
  8: 0x0258 [0x2A] GET_REQ_LEVEL(level=8, entity_id=Apolliane (ID: 17863417/0x011092F9))
  9: 0x025E [0x66] LOAD_EXT_SCHEDULER_MAIN: Load scheduler "tlk1" with entities [EventEntity, EventEntity], work=39*
 10: 0x026D [0x4B] UPDATE_ENTITY_YAW(entity=EventEntity, yaw=Work_Zone[2])
 11: 0x0274 [0x6F] WAIT_FRAME_DELAY: Yield until WaitTime reaches zero
 12: 0x0275 [0x70] WAIT_ENTITY_RENDER_FLAG: Wait while EventEntity->Render.Flags3 bit 2 is set (cancel turn if not)
 13: 0x0276 [0x21] END_EVENT
 14: 0x0277 [0x00] END_REQSTACK()
```

### Event 28

#### Metadata

| Field        | Value    |
|--------------|----------|
| Entrypoint   | 0x0278   |
| Data Size    | 34 bytes |
| Instructions | 13       |

```
      00 01 02 03 04 05 06 07  08 09 0A 0B 0C 0D 0E 0F
      -- -- -- -- -- -- -- --  -- -- -- -- -- -- -- --
0270:                          1E F0 FF FF 7F 6F 70 27          .....op'
0280: 08 F9 92 10 01 01 1D 1C  80 23 1D 1D 80 23 1D 1E  .........#...#..
0290: 80 23 2A 08 F9 92 10 01  21 00                    .#*.....!.      
```

#### Opcodes

```
  0: 0x0278 [0x1E] EventEntity looks at LocalPlayer and starts talking
  1: 0x027D [0x6F] WAIT_FRAME_DELAY: Yield until WaitTime reaches zero
  2: 0x027E [0x70] WAIT_ENTITY_RENDER_FLAG: Wait while EventEntity->Render.Flags3 bit 2 is set (cancel turn if not)
  3: 0x027F [0x27] REQ_SET(priority=0x08, entity_id=Apolliane (ID: 17863417/0x011092F9), tag_num=0x01)
  4: 0x0286 [0x1D] PRINT_EVENT_MESSAGE(message_id=7940*)
    → "Hostenn? Oh yes, terrible story, that. We procured some new explosives to use in our work here, but the detonation, well..."
  5: 0x0289 [0x23] WAIT_FOR_DIALOG_INTERACTION
  6: 0x028A [0x1D] PRINT_EVENT_MESSAGE(message_id=7941*)
    → "The blast alerted numerous revolting, gargantuan beasts who assaulted us from all sides."
  7: 0x028D [0x23] WAIT_FOR_DIALOG_INTERACTION
  8: 0x028E [0x1D] PRINT_EVENT_MESSAGE(message_id=7942*)
    → "Several of our expedition's members fled, yet they failed to return even when the immediate danger had passed. We are currently devoting all our resources to finding them."
  9: 0x0291 [0x23] WAIT_FOR_DIALOG_INTERACTION
 10: 0x0292 [0x2A] GET_REQ_LEVEL(level=8, entity_id=Apolliane (ID: 17863417/0x011092F9))
 11: 0x0298 [0x21] END_EVENT
 12: 0x0299 [0x00] END_REQSTACK()
```
