# 17863433 - Orsa-Porsa

## Common Data

| Field            | Value                           |
|------------------|---------------------------------|
| Zone             | Morimar Basalt Fields (ID: 265) |
| Block Size       | 1320 bytes                      |
| Total Events     | 38                              |
| References Count | 32                              |

## List of Events

| Event ID                   | Entrypoint   |   Size |   Instructions |
|----------------------------|--------------|--------|----------------|
| [65535](#event-65535)      | 0x0000       |      1 |              1 |
| [65535.1](#event-655351)   | 0x0001       |     16 |              2 |
| [65535.2](#event-655352)   | 0x0011       |     22 |              4 |
| [65535.3](#event-655353)   | 0x0027       |      6 |              2 |
| [65535.4](#event-655354)   | 0x002D       |     16 |              2 |
| [65535.5](#event-655355)   | 0x003D       |     14 |              2 |
| [65535.6](#event-655356)   | 0x004B       |     16 |              2 |
| [65535.7](#event-655357)   | 0x005B       |     14 |              2 |
| [65535.8](#event-655358)   | 0x0069       |     16 |              2 |
| [65535.9](#event-655359)   | 0x0079       |     14 |              2 |
| [65535.10](#event-6553510) | 0x0087       |     16 |              2 |
| [65535.11](#event-6553511) | 0x0097       |     14 |              2 |
| [65535.12](#event-6553512) | 0x00A5       |     16 |              2 |
| [65535.13](#event-6553513) | 0x00B5       |     14 |              2 |
| [65535.14](#event-6553514) | 0x00C3       |     16 |              2 |
| [65535.15](#event-6553515) | 0x00D3       |     14 |              2 |
| [65535.16](#event-6553516) | 0x00E1       |     16 |              2 |
| [65535.17](#event-6553517) | 0x00F1       |     14 |              2 |
| [65535.18](#event-6553518) | 0x00FF       |     16 |              2 |
| [65535.19](#event-6553519) | 0x010F       |     14 |              2 |
| [65535.20](#event-6553520) | 0x011D       |     16 |              2 |
| [65535.21](#event-6553521) | 0x012D       |     14 |              2 |
| [65535.22](#event-6553522) | 0x013B       |     16 |              2 |
| [65535.23](#event-6553523) | 0x014B       |     14 |              2 |
| [65535.24](#event-6553524) | 0x0159       |     16 |              2 |
| [65535.25](#event-6553525) | 0x0169       |     14 |              2 |
| [65535.26](#event-6553526) | 0x0177       |     16 |              2 |
| [65535.27](#event-6553527) | 0x0187       |     14 |              2 |
| [65535.28](#event-6553528) | 0x0195       |     16 |              2 |
| [65535.29](#event-6553529) | 0x01A5       |     14 |              2 |
| [61](#event-61)            | 0x01B3       |     29 |             10 |
| [2580](#event-2580)        | 0x01D0       |     29 |             10 |
| [2581](#event-2581)        | 0x01ED       |    142 |             37 |
| [2582](#event-2582)        | 0x027B       |     29 |             10 |
| [2584](#event-2584)        | 0x0298       |    106 |             29 |
| [2583](#event-2583)        | 0x0302       |     29 |             10 |
| [2585](#event-2585)        | 0x031F       |    195 |             38 |
| [2586](#event-2586)        | 0x03E2       |     29 |             10 |

## DAT References (imed_data)

|   Index | Hex Value   |   Dec Value |
|---------|-------------|-------------|
|       0 | 0x0028      |          40 |
|       1 | 0x001E      |          30 |
|       2 | 0x0029      |          41 |
|       3 | 0x1F2B      |        7979 |
|       4 | 0x1F2C      |        7980 |
|       5 | 0x1F2D      |        7981 |
|       6 | 0x1F2E      |        7982 |
|       7 | 0x1F2F      |        7983 |
|       8 | 0x1F30      |        7984 |
|       9 | 0x1F31      |        7985 |
|      10 | 0x1F32      |        7986 |
|      11 | 0x1F33      |        7987 |
|      12 | 0x1F34      |        7988 |
|      13 | 0x1F35      |        7989 |
|      14 | 0x1F36      |        7990 |
|      15 | 0x1F37      |        7991 |
|      16 | 0x1F38      |        7992 |
|      17 | 0x1F39      |        7993 |
|      18 | 0x1F3A      |        7994 |
|      19 | 0x1F3B      |        7995 |
|      20 | 0x1F3C      |        7996 |
|      21 | 0x1F56      |        8022 |
|      22 | 0x1F57      |        8023 |
|      23 | 0x1F58      |        8024 |
|      24 | 0x00C8      |         200 |
|      25 | 0x0000      |           0 |
|      26 | 0x1F59      |        8025 |
|      27 | 0x1F5A      |        8026 |
|      28 | 0x1F5B      |        8027 |
|      29 | 0x1F5C      |        8028 |
|      30 | 0x1F5D      |        8029 |
|      31 | 0x00C9      |         201 |

## String References

- **7979**: I, Orsa-Porsa, am one of Adoulin's most accomplished botanistarus! And, yes, we do more than just pick flowers! Botany's a lot more dangerous than it looks!
- **7980**: My work is too dangerous for anyone who's not a licensed pioneer to assistaru me.
- **7981**: Oh-ho! A pioneer, here to visitaru me! And at the most opportune of moments!
- **7982**: If you've been here before, then you know all about the hotaru springs throughout the basalt fields. But did you know that there's this creepy old man hanging around lately?
- **7983**: I keep thinking, "Orsa-Porsa, it's not for you to judge"--but come on! This placey-wace hasn't even been fully colonized yet!
- **7984**: I would tell him to go home, but, erm...I haven't actually metaru the guy.
- **7985**: But it got me to thinking...wouldn't it be the bestaru if I had $1, $2, and $3?
- **7986**: When you think of hot springs, what do you think of? That's right, eggs and milk! ...Why are you looking at me like that? You boil the eggs in the hot springs, and wash them down with a tall glassy-wass of milk!
- **7987**: And to think, a pioneer appears before me right as my tummy-wummy starts rumbling. It's a sign from Altana herself!
- **7988**: You are preordained to bring me $1, $2, and $3! Then we'll be able to catch that old man for sure!
- **7989**: Don't forgetaru what I need--$1, $2, and $3!
- **7990**: Oh, what a wonderful pioneer you are. Blazing a trail not just in the basaltaru fields, but all the way back to the kitchen, too!
- **7991**: Now all we need to do is put the eggs and milk in this proverbial basketaru...
- **7992**: Bring it to the hot springs, and see if we can't catchy-watch ourselves a creepy old man!
- **7993**: But if you're going to go to the hot springs, you'll have to look the partaru. That's right--strip down to your birthday suit and hop right in there.
- **7994**: Oh, I almost forgot! Fallio, my partner in crime, has narrow-warrowed down the location where he thinks you'll be able to find the guy.
- **7995**: Do you have a mappy-wap? Here, let me show you. There. Right around H-7.
- **7996**: The hot springs pertinentaru to the task at hand are located around H-7 here in Morimar. Just jump right in and wait!
- **8022**: Wh-wh-what!? You actually metaru the guy?
- **8023**: I mean, this was all within my meticulous-wiculous calculations. However, I knew that the proper reaction was to actaru surprised, so I...uh...did.
- **8024**: So tell me, tell me! Who was he? What was he doing in the hotaru springs?
- **8025**: ...Is that all? No primitive tribesman taking a break from the huntaru? No spy from the Middle Lands come to investigataru our progress? Aww...I had such high hopes, too!
- **8026**: Still, there's something bother-wothering me.
- **8027**: Forget all this nonsense about "fun" and "excitement." What I wantaru to know is how you could stand such temperatures for so long!
- **8028**: C-could it be the glorious evolution!? Mankind making his firstaru steps toward something greater!?
- **8029**: You, <Player>, are a [man among men/woman among women]! A true hot springs mountaineer!

## Events

### Event 65535

#### Metadata

| Field        | Value   |
|--------------|---------|
| Entrypoint   | 0x0000  |
| Data Size    | 1 bytes |
| Instructions | 1       |

```
      00 01 02 03 04 05 06 07  08 09 0A 0B 0C 0D 0E 0F
      -- -- -- -- -- -- -- --  -- -- -- -- -- -- -- --
0000: 00                                                .               
```

#### Opcodes

```
  0: 0x0000 [0x00] END_REQSTACK()
```

### Event 65535.1

#### Metadata

| Field        | Value    |
|--------------|----------|
| Entrypoint   | 0x0001   |
| Data Size    | 16 bytes |
| Instructions | 2        |

```
      00 01 02 03 04 05 06 07  08 09 0A 0B 0C 0D 0E 0F
      -- -- -- -- -- -- -- --  -- -- -- -- -- -- -- --
0000:    66 00 80 F8 FF FF 7F  F8 FF FF 7F 74 6C 6B 30   f..........tlk0
0010: 00                                                .               
```

#### Opcodes

```
  0: 0x0001 [0x66] LOAD_EXT_SCHEDULER_MAIN: Load scheduler "tlk0" with entities [EventEntity, EventEntity], work=40*
  1: 0x0010 [0x00] END_REQSTACK()
```

### Event 65535.2

#### Metadata

| Field        | Value    |
|--------------|----------|
| Entrypoint   | 0x0011   |
| Data Size    | 22 bytes |
| Instructions | 4        |

```
      00 01 02 03 04 05 06 07  08 09 0A 0B 0C 0D 0E 0F
      -- -- -- -- -- -- -- --  -- -- -- -- -- -- -- --
0010:    53 F8 FF FF 7F F8 FF  FF 7F 74 6C 6B 30 5E 69   S........tlk0^i
0020: 64 6C 30 1C 01 80 00                              dl0....         
```

#### Opcodes

```
  0: 0x0011 [0x53] WAIT_SCHEDULER_TASK: Wait for scheduler "tlk0" with entities [EventEntity, EventEntity]
  1: 0x001E [0x5E] EventEntity goes idle (kills current action) (animation: "idl0")
  2: 0x0023 [0x1C] WAIT(30* ticks)
  3: 0x0026 [0x00] END_REQSTACK()
```

### Event 65535.3

#### Metadata

| Field        | Value   |
|--------------|---------|
| Entrypoint   | 0x0027  |
| Data Size    | 6 bytes |
| Instructions | 2       |

```
      00 01 02 03 04 05 06 07  08 09 0A 0B 0C 0D 0E 0F
      -- -- -- -- -- -- -- --  -- -- -- -- -- -- -- --
0020:                      5E  69 64 6C 30 00                  ^idl0.   
```

#### Opcodes

```
  0: 0x0027 [0x5E] EventEntity goes idle (kills current action) (animation: "idl0")
  1: 0x002C [0x00] END_REQSTACK()
```

### Event 65535.4

#### Metadata

| Field        | Value    |
|--------------|----------|
| Entrypoint   | 0x002D   |
| Data Size    | 16 bytes |
| Instructions | 2        |

```
      00 01 02 03 04 05 06 07  08 09 0A 0B 0C 0D 0E 0F
      -- -- -- -- -- -- -- --  -- -- -- -- -- -- -- --
0020:                                         66 00 80               f..
0030: F8 FF FF 7F F8 FF FF 7F  70 6F 69 30 00           ........poi0.   
```

#### Opcodes

```
  0: 0x002D [0x66] LOAD_EXT_SCHEDULER_MAIN: Load scheduler "poi0" with entities [EventEntity, EventEntity], work=40*
  1: 0x003C [0x00] END_REQSTACK()
```

### Event 65535.5

#### Metadata

| Field        | Value    |
|--------------|----------|
| Entrypoint   | 0x003D   |
| Data Size    | 14 bytes |
| Instructions | 2        |

```
      00 01 02 03 04 05 06 07  08 09 0A 0B 0C 0D 0E 0F
      -- -- -- -- -- -- -- --  -- -- -- -- -- -- -- --
0030:                                         53 F8 FF               S..
0040: FF 7F F8 FF FF 7F 70 6F  69 30 00                 ......poi0.     
```

#### Opcodes

```
  0: 0x003D [0x53] WAIT_SCHEDULER_TASK: Wait for scheduler "poi0" with entities [EventEntity, EventEntity]
  1: 0x004A [0x00] END_REQSTACK()
```

### Event 65535.6

#### Metadata

| Field        | Value    |
|--------------|----------|
| Entrypoint   | 0x004B   |
| Data Size    | 16 bytes |
| Instructions | 2        |

```
      00 01 02 03 04 05 06 07  08 09 0A 0B 0C 0D 0E 0F
      -- -- -- -- -- -- -- --  -- -- -- -- -- -- -- --
0040:                                   66 02 80 F8 FF             f....
0050: FF 7F F8 FF FF 7F 65 68  6E 30 00                 ......ehn0.     
```

#### Opcodes

```
  0: 0x004B [0x66] LOAD_EXT_SCHEDULER_MAIN: Load scheduler "ehn0" with entities [EventEntity, EventEntity], work=41*
  1: 0x005A [0x00] END_REQSTACK()
```

### Event 65535.7

#### Metadata

| Field        | Value    |
|--------------|----------|
| Entrypoint   | 0x005B   |
| Data Size    | 14 bytes |
| Instructions | 2        |

```
      00 01 02 03 04 05 06 07  08 09 0A 0B 0C 0D 0E 0F
      -- -- -- -- -- -- -- --  -- -- -- -- -- -- -- --
0050:                                   53 F8 FF FF 7F             S....
0060: F8 FF FF 7F 65 68 6E 30  00                       ....ehn0.       
```

#### Opcodes

```
  0: 0x005B [0x53] WAIT_SCHEDULER_TASK: Wait for scheduler "ehn0" with entities [EventEntity, EventEntity]
  1: 0x0068 [0x00] END_REQSTACK()
```

### Event 65535.8

#### Metadata

| Field        | Value    |
|--------------|----------|
| Entrypoint   | 0x0069   |
| Data Size    | 16 bytes |
| Instructions | 2        |

```
      00 01 02 03 04 05 06 07  08 09 0A 0B 0C 0D 0E 0F
      -- -- -- -- -- -- -- --  -- -- -- -- -- -- -- --
0060:                             66 02 80 F8 FF FF 7F           f......
0070: F8 FF FF 7F 65 68 6E 31  00                       ....ehn1.       
```

#### Opcodes

```
  0: 0x0069 [0x66] LOAD_EXT_SCHEDULER_MAIN: Load scheduler "ehn1" with entities [EventEntity, EventEntity], work=41*
  1: 0x0078 [0x00] END_REQSTACK()
```

### Event 65535.9

#### Metadata

| Field        | Value    |
|--------------|----------|
| Entrypoint   | 0x0079   |
| Data Size    | 14 bytes |
| Instructions | 2        |

```
      00 01 02 03 04 05 06 07  08 09 0A 0B 0C 0D 0E 0F
      -- -- -- -- -- -- -- --  -- -- -- -- -- -- -- --
0070:                             53 F8 FF FF 7F F8 FF           S......
0080: FF 7F 65 68 6E 31 00                              ..ehn1.         
```

#### Opcodes

```
  0: 0x0079 [0x53] WAIT_SCHEDULER_TASK: Wait for scheduler "ehn1" with entities [EventEntity, EventEntity]
  1: 0x0086 [0x00] END_REQSTACK()
```

### Event 65535.10

#### Metadata

| Field        | Value    |
|--------------|----------|
| Entrypoint   | 0x0087   |
| Data Size    | 16 bytes |
| Instructions | 2        |

```
      00 01 02 03 04 05 06 07  08 09 0A 0B 0C 0D 0E 0F
      -- -- -- -- -- -- -- --  -- -- -- -- -- -- -- --
0080:                      66  00 80 F8 FF FF 7F F8 FF         f........
0090: FF 7F 7A 69 74 30 00                              ..zit0.         
```

#### Opcodes

```
  0: 0x0087 [0x66] LOAD_EXT_SCHEDULER_MAIN: Load scheduler "zit0" with entities [EventEntity, EventEntity], work=40*
  1: 0x0096 [0x00] END_REQSTACK()
```

### Event 65535.11

#### Metadata

| Field        | Value    |
|--------------|----------|
| Entrypoint   | 0x0097   |
| Data Size    | 14 bytes |
| Instructions | 2        |

```
      00 01 02 03 04 05 06 07  08 09 0A 0B 0C 0D 0E 0F
      -- -- -- -- -- -- -- --  -- -- -- -- -- -- -- --
0090:                      53  F8 FF FF 7F F8 FF FF 7F         S........
00A0: 7A 69 74 30 00                                    zit0.           
```

#### Opcodes

```
  0: 0x0097 [0x53] WAIT_SCHEDULER_TASK: Wait for scheduler "zit0" with entities [EventEntity, EventEntity]
  1: 0x00A4 [0x00] END_REQSTACK()
```

### Event 65535.12

#### Metadata

| Field        | Value    |
|--------------|----------|
| Entrypoint   | 0x00A5   |
| Data Size    | 16 bytes |
| Instructions | 2        |

```
      00 01 02 03 04 05 06 07  08 09 0A 0B 0C 0D 0E 0F
      -- -- -- -- -- -- -- --  -- -- -- -- -- -- -- --
00A0:                66 00 80  F8 FF FF 7F F8 FF FF 7F       f..........
00B0: 77 61 69 30 00                                    wai0.           
```

#### Opcodes

```
  0: 0x00A5 [0x66] LOAD_EXT_SCHEDULER_MAIN: Load scheduler "wai0" with entities [EventEntity, EventEntity], work=40*
  1: 0x00B4 [0x00] END_REQSTACK()
```

### Event 65535.13

#### Metadata

| Field        | Value    |
|--------------|----------|
| Entrypoint   | 0x00B5   |
| Data Size    | 14 bytes |
| Instructions | 2        |

```
      00 01 02 03 04 05 06 07  08 09 0A 0B 0C 0D 0E 0F
      -- -- -- -- -- -- -- --  -- -- -- -- -- -- -- --
00B0:                53 F8 FF  FF 7F F8 FF FF 7F 77 61       S........wa
00C0: 69 30 00                                          i0.             
```

#### Opcodes

```
  0: 0x00B5 [0x53] WAIT_SCHEDULER_TASK: Wait for scheduler "wai0" with entities [EventEntity, EventEntity]
  1: 0x00C2 [0x00] END_REQSTACK()
```

### Event 65535.14

#### Metadata

| Field        | Value    |
|--------------|----------|
| Entrypoint   | 0x00C3   |
| Data Size    | 16 bytes |
| Instructions | 2        |

```
      00 01 02 03 04 05 06 07  08 09 0A 0B 0C 0D 0E 0F
      -- -- -- -- -- -- -- --  -- -- -- -- -- -- -- --
00C0:          66 00 80 F8 FF  FF 7F F8 FF FF 7F 74 68     f..........th
00D0: 6B 31 00                                          k1.             
```

#### Opcodes

```
  0: 0x00C3 [0x66] LOAD_EXT_SCHEDULER_MAIN: Load scheduler "thk1" with entities [EventEntity, EventEntity], work=40*
  1: 0x00D2 [0x00] END_REQSTACK()
```

### Event 65535.15

#### Metadata

| Field        | Value    |
|--------------|----------|
| Entrypoint   | 0x00D3   |
| Data Size    | 14 bytes |
| Instructions | 2        |

```
      00 01 02 03 04 05 06 07  08 09 0A 0B 0C 0D 0E 0F
      -- -- -- -- -- -- -- --  -- -- -- -- -- -- -- --
00D0:          53 F8 FF FF 7F  F8 FF FF 7F 74 68 6B 31     S........thk1
00E0: 00                                                .               
```

#### Opcodes

```
  0: 0x00D3 [0x53] WAIT_SCHEDULER_TASK: Wait for scheduler "thk1" with entities [EventEntity, EventEntity]
  1: 0x00E0 [0x00] END_REQSTACK()
```

### Event 65535.16

#### Metadata

| Field        | Value    |
|--------------|----------|
| Entrypoint   | 0x00E1   |
| Data Size    | 16 bytes |
| Instructions | 2        |

```
      00 01 02 03 04 05 06 07  08 09 0A 0B 0C 0D 0E 0F
      -- -- -- -- -- -- -- --  -- -- -- -- -- -- -- --
00E0:    66 00 80 F8 FF FF 7F  F8 FF FF 7F 74 68 6B 32   f..........thk2
00F0: 00                                                .               
```

#### Opcodes

```
  0: 0x00E1 [0x66] LOAD_EXT_SCHEDULER_MAIN: Load scheduler "thk2" with entities [EventEntity, EventEntity], work=40*
  1: 0x00F0 [0x00] END_REQSTACK()
```

### Event 65535.17

#### Metadata

| Field        | Value    |
|--------------|----------|
| Entrypoint   | 0x00F1   |
| Data Size    | 14 bytes |
| Instructions | 2        |

```
      00 01 02 03 04 05 06 07  08 09 0A 0B 0C 0D 0E 0F
      -- -- -- -- -- -- -- --  -- -- -- -- -- -- -- --
00F0:    53 F8 FF FF 7F F8 FF  FF 7F 74 68 6B 32 00      S........thk2. 
```

#### Opcodes

```
  0: 0x00F1 [0x53] WAIT_SCHEDULER_TASK: Wait for scheduler "thk2" with entities [EventEntity, EventEntity]
  1: 0x00FE [0x00] END_REQSTACK()
```

### Event 65535.18

#### Metadata

| Field        | Value    |
|--------------|----------|
| Entrypoint   | 0x00FF   |
| Data Size    | 16 bytes |
| Instructions | 2        |

```
      00 01 02 03 04 05 06 07  08 09 0A 0B 0C 0D 0E 0F
      -- -- -- -- -- -- -- --  -- -- -- -- -- -- -- --
00F0:                                               66                 f
0100: 00 80 F8 FF FF 7F F8 FF  FF 7F 70 61 73 30 00     ..........pas0. 
```

#### Opcodes

```
  0: 0x00FF [0x66] LOAD_EXT_SCHEDULER_MAIN: Load scheduler "pas0" with entities [EventEntity, EventEntity], work=40*
  1: 0x010E [0x00] END_REQSTACK()
```

### Event 65535.19

#### Metadata

| Field        | Value    |
|--------------|----------|
| Entrypoint   | 0x010F   |
| Data Size    | 14 bytes |
| Instructions | 2        |

```
      00 01 02 03 04 05 06 07  08 09 0A 0B 0C 0D 0E 0F
      -- -- -- -- -- -- -- --  -- -- -- -- -- -- -- --
0100:                                               53                 S
0110: F8 FF FF 7F F8 FF FF 7F  70 61 73 30 00           ........pas0.   
```

#### Opcodes

```
  0: 0x010F [0x53] WAIT_SCHEDULER_TASK: Wait for scheduler "pas0" with entities [EventEntity, EventEntity]
  1: 0x011C [0x00] END_REQSTACK()
```

### Event 65535.20

#### Metadata

| Field        | Value    |
|--------------|----------|
| Entrypoint   | 0x011D   |
| Data Size    | 16 bytes |
| Instructions | 2        |

```
      00 01 02 03 04 05 06 07  08 09 0A 0B 0C 0D 0E 0F
      -- -- -- -- -- -- -- --  -- -- -- -- -- -- -- --
0110:                                         66 00 80               f..
0120: F8 FF FF 7F F8 FF FF 7F  69 72 6F 30 00           ........iro0.   
```

#### Opcodes

```
  0: 0x011D [0x66] LOAD_EXT_SCHEDULER_MAIN: Load scheduler "iro0" with entities [EventEntity, EventEntity], work=40*
  1: 0x012C [0x00] END_REQSTACK()
```

### Event 65535.21

#### Metadata

| Field        | Value    |
|--------------|----------|
| Entrypoint   | 0x012D   |
| Data Size    | 14 bytes |
| Instructions | 2        |

```
      00 01 02 03 04 05 06 07  08 09 0A 0B 0C 0D 0E 0F
      -- -- -- -- -- -- -- --  -- -- -- -- -- -- -- --
0120:                                         53 F8 FF               S..
0130: FF 7F F8 FF FF 7F 69 72  6F 30 00                 ......iro0.     
```

#### Opcodes

```
  0: 0x012D [0x53] WAIT_SCHEDULER_TASK: Wait for scheduler "iro0" with entities [EventEntity, EventEntity]
  1: 0x013A [0x00] END_REQSTACK()
```

### Event 65535.22

#### Metadata

| Field        | Value    |
|--------------|----------|
| Entrypoint   | 0x013B   |
| Data Size    | 16 bytes |
| Instructions | 2        |

```
      00 01 02 03 04 05 06 07  08 09 0A 0B 0C 0D 0E 0F
      -- -- -- -- -- -- -- --  -- -- -- -- -- -- -- --
0130:                                   66 00 80 F8 FF             f....
0140: FF 7F F8 FF FF 7F 73 79  75 30 00                 ......syu0.     
```

#### Opcodes

```
  0: 0x013B [0x66] LOAD_EXT_SCHEDULER_MAIN: Load scheduler "syu0" with entities [EventEntity, EventEntity], work=40*
  1: 0x014A [0x00] END_REQSTACK()
```

### Event 65535.23

#### Metadata

| Field        | Value    |
|--------------|----------|
| Entrypoint   | 0x014B   |
| Data Size    | 14 bytes |
| Instructions | 2        |

```
      00 01 02 03 04 05 06 07  08 09 0A 0B 0C 0D 0E 0F
      -- -- -- -- -- -- -- --  -- -- -- -- -- -- -- --
0140:                                   53 F8 FF FF 7F             S....
0150: F8 FF FF 7F 73 79 75 30  00                       ....syu0.       
```

#### Opcodes

```
  0: 0x014B [0x53] WAIT_SCHEDULER_TASK: Wait for scheduler "syu0" with entities [EventEntity, EventEntity]
  1: 0x0158 [0x00] END_REQSTACK()
```

### Event 65535.24

#### Metadata

| Field        | Value    |
|--------------|----------|
| Entrypoint   | 0x0159   |
| Data Size    | 16 bytes |
| Instructions | 2        |

```
      00 01 02 03 04 05 06 07  08 09 0A 0B 0C 0D 0E 0F
      -- -- -- -- -- -- -- --  -- -- -- -- -- -- -- --
0150:                             66 00 80 F8 FF FF 7F           f......
0160: F8 FF FF 7F 67 6B 72 30  00                       ....gkr0.       
```

#### Opcodes

```
  0: 0x0159 [0x66] LOAD_EXT_SCHEDULER_MAIN: Load scheduler "gkr0" with entities [EventEntity, EventEntity], work=40*
  1: 0x0168 [0x00] END_REQSTACK()
```

### Event 65535.25

#### Metadata

| Field        | Value    |
|--------------|----------|
| Entrypoint   | 0x0169   |
| Data Size    | 14 bytes |
| Instructions | 2        |

```
      00 01 02 03 04 05 06 07  08 09 0A 0B 0C 0D 0E 0F
      -- -- -- -- -- -- -- --  -- -- -- -- -- -- -- --
0160:                             53 F8 FF FF 7F F8 FF           S......
0170: FF 7F 67 6B 72 30 00                              ..gkr0.         
```

#### Opcodes

```
  0: 0x0169 [0x53] WAIT_SCHEDULER_TASK: Wait for scheduler "gkr0" with entities [EventEntity, EventEntity]
  1: 0x0176 [0x00] END_REQSTACK()
```

### Event 65535.26

#### Metadata

| Field        | Value    |
|--------------|----------|
| Entrypoint   | 0x0177   |
| Data Size    | 16 bytes |
| Instructions | 2        |

```
      00 01 02 03 04 05 06 07  08 09 0A 0B 0C 0D 0E 0F
      -- -- -- -- -- -- -- --  -- -- -- -- -- -- -- --
0170:                      66  00 80 F8 FF FF 7F F8 FF         f........
0180: FF 7F 67 6B 72 31 00                              ..gkr1.         
```

#### Opcodes

```
  0: 0x0177 [0x66] LOAD_EXT_SCHEDULER_MAIN: Load scheduler "gkr1" with entities [EventEntity, EventEntity], work=40*
  1: 0x0186 [0x00] END_REQSTACK()
```

### Event 65535.27

#### Metadata

| Field        | Value    |
|--------------|----------|
| Entrypoint   | 0x0187   |
| Data Size    | 14 bytes |
| Instructions | 2        |

```
      00 01 02 03 04 05 06 07  08 09 0A 0B 0C 0D 0E 0F
      -- -- -- -- -- -- -- --  -- -- -- -- -- -- -- --
0180:                      53  F8 FF FF 7F F8 FF FF 7F         S........
0190: 67 6B 72 31 00                                    gkr1.           
```

#### Opcodes

```
  0: 0x0187 [0x53] WAIT_SCHEDULER_TASK: Wait for scheduler "gkr1" with entities [EventEntity, EventEntity]
  1: 0x0194 [0x00] END_REQSTACK()
```

### Event 65535.28

#### Metadata

| Field        | Value    |
|--------------|----------|
| Entrypoint   | 0x0195   |
| Data Size    | 16 bytes |
| Instructions | 2        |

```
      00 01 02 03 04 05 06 07  08 09 0A 0B 0C 0D 0E 0F
      -- -- -- -- -- -- -- --  -- -- -- -- -- -- -- --
0190:                66 00 80  F8 FF FF 7F F8 FF FF 7F       f..........
01A0: 77 61 76 30 00                                    wav0.           
```

#### Opcodes

```
  0: 0x0195 [0x66] LOAD_EXT_SCHEDULER_MAIN: Load scheduler "wav0" with entities [EventEntity, EventEntity], work=40*
  1: 0x01A4 [0x00] END_REQSTACK()
```

### Event 65535.29

#### Metadata

| Field        | Value    |
|--------------|----------|
| Entrypoint   | 0x01A5   |
| Data Size    | 14 bytes |
| Instructions | 2        |

```
      00 01 02 03 04 05 06 07  08 09 0A 0B 0C 0D 0E 0F
      -- -- -- -- -- -- -- --  -- -- -- -- -- -- -- --
01A0:                53 F8 FF  FF 7F F8 FF FF 7F 77 61       S........wa
01B0: 76 30 00                                          v0.             
```

#### Opcodes

```
  0: 0x01A5 [0x53] WAIT_SCHEDULER_TASK: Wait for scheduler "wav0" with entities [EventEntity, EventEntity]
  1: 0x01B2 [0x00] END_REQSTACK()
```

### Event 61

#### Metadata

| Field        | Value    |
|--------------|----------|
| Entrypoint   | 0x01B3   |
| Data Size    | 29 bytes |
| Instructions | 10       |

```
      00 01 02 03 04 05 06 07  08 09 0A 0B 0C 0D 0E 0F
      -- -- -- -- -- -- -- --  -- -- -- -- -- -- -- --
01B0:          1E F0 FF FF 7F  6F 70 29 08 09 93 10 01     .....op).....
01C0: 01 1D 03 80 23 29 08 09  93 10 01 02 20 00 21 00  ....#)...... .!.
```

#### Opcodes

```
  0: 0x01B3 [0x1E] EventEntity looks at LocalPlayer and starts talking
  1: 0x01B8 [0x6F] WAIT_FRAME_DELAY: Yield until WaitTime reaches zero
  2: 0x01B9 [0x70] WAIT_ENTITY_RENDER_FLAG: Wait while EventEntity->Render.Flags3 bit 2 is set (cancel turn if not)
  3: 0x01BA [0x29] REQ_SET_WAIT(priority=0x08, entity_id=Orsa-Porsa (ID: 17863433/0x01109309), tag_num=0x01)
  4: 0x01C1 [0x1D] PRINT_EVENT_MESSAGE(message_id=7979*)
    → "I, Orsa-Porsa, am one of Adoulin's most accomplished botanistarus! And, yes, we do more than just pick flowers! Botany's a lot more dangerous than it looks!"
  5: 0x01C4 [0x23] WAIT_FOR_DIALOG_INTERACTION
  6: 0x01C5 [0x29] REQ_SET_WAIT(priority=0x08, entity_id=Orsa-Porsa (ID: 17863433/0x01109309), tag_num=0x02)
  7: 0x01CC [0x20] SET_CLI_EVENT_UC_FLAG: Unlock player control
  8: 0x01CE [0x21] END_EVENT
  9: 0x01CF [0x00] END_REQSTACK()
```

### Event 2580

#### Metadata

| Field        | Value    |
|--------------|----------|
| Entrypoint   | 0x01D0   |
| Data Size    | 29 bytes |
| Instructions | 10       |

```
      00 01 02 03 04 05 06 07  08 09 0A 0B 0C 0D 0E 0F
      -- -- -- -- -- -- -- --  -- -- -- -- -- -- -- --
01D0: 1E F0 FF FF 7F 6F 70 29  08 09 93 10 01 01 1D 04  .....op)........
01E0: 80 23 29 08 09 93 10 01  02 20 00 21 00           .#)...... .!.   
```

#### Opcodes

```
  0: 0x01D0 [0x1E] EventEntity looks at LocalPlayer and starts talking
  1: 0x01D5 [0x6F] WAIT_FRAME_DELAY: Yield until WaitTime reaches zero
  2: 0x01D6 [0x70] WAIT_ENTITY_RENDER_FLAG: Wait while EventEntity->Render.Flags3 bit 2 is set (cancel turn if not)
  3: 0x01D7 [0x29] REQ_SET_WAIT(priority=0x08, entity_id=Orsa-Porsa (ID: 17863433/0x01109309), tag_num=0x01)
  4: 0x01DE [0x1D] PRINT_EVENT_MESSAGE(message_id=7980*)
    → "My work is too dangerous for anyone who's not a licensed pioneer to assistaru me."
  5: 0x01E1 [0x23] WAIT_FOR_DIALOG_INTERACTION
  6: 0x01E2 [0x29] REQ_SET_WAIT(priority=0x08, entity_id=Orsa-Porsa (ID: 17863433/0x01109309), tag_num=0x02)
  7: 0x01E9 [0x20] SET_CLI_EVENT_UC_FLAG: Unlock player control
  8: 0x01EB [0x21] END_EVENT
  9: 0x01EC [0x00] END_REQSTACK()
```

### Event 2581

#### Metadata

| Field        | Value     |
|--------------|-----------|
| Entrypoint   | 0x01ED    |
| Data Size    | 142 bytes |
| Instructions | 37        |

```
      00 01 02 03 04 05 06 07  08 09 0A 0B 0C 0D 0E 0F
      -- -- -- -- -- -- -- --  -- -- -- -- -- -- -- --
01E0:                                         42 1E F0               B..
01F0: FF FF 7F 6F 70 29 08 09  93 10 01 04 1D 05 80 23  ...op).........#
0200: 1D 06 80 23 29 08 09 93  10 01 05 29 08 09 93 10  ...#)......)....
0210: 01 0E 1D 07 80 23 29 08  09 93 10 01 0F 29 08 09  .....#)......)..
0220: 93 10 01 10 1D 08 80 23  29 08 09 93 10 01 11 29  .......#)......)
0230: 08 09 93 10 01 06 1D 09  80 23 29 08 09 93 10 01  .........#).....
0240: 07 29 08 09 93 10 01 08  29 08 09 93 10 01 09 29  .)......)......)
0250: 08 09 93 10 01 0C 1D 0A  80 23 1D 0B 80 23 29 08  .........#...#).
0260: 09 93 10 01 0D 29 08 09  93 10 01 04 1D 0C 80 23  .....).........#
0270: 29 08 09 93 10 01 05 20  00 21 00                 )...... .!.     
```

#### Opcodes

```
  0: 0x01ED [0x42] SET_CLI_EVENT_CANCEL_DATA()
  1: 0x01EE [0x1E] EventEntity looks at LocalPlayer and starts talking
  2: 0x01F3 [0x6F] WAIT_FRAME_DELAY: Yield until WaitTime reaches zero
  3: 0x01F4 [0x70] WAIT_ENTITY_RENDER_FLAG: Wait while EventEntity->Render.Flags3 bit 2 is set (cancel turn if not)
  4: 0x01F5 [0x29] REQ_SET_WAIT(priority=0x08, entity_id=Orsa-Porsa (ID: 17863433/0x01109309), tag_num=0x04)
  5: 0x01FC [0x1D] PRINT_EVENT_MESSAGE(message_id=7981*)
    → "Oh-ho! A pioneer, here to visitaru me! And at the most opportune of moments!"
  6: 0x01FF [0x23] WAIT_FOR_DIALOG_INTERACTION
  7: 0x0200 [0x1D] PRINT_EVENT_MESSAGE(message_id=7982*)
    → "If you've been here before, then you know all about the hotaru springs throughout the basalt fields. But did you know that there's this creepy old man hanging around lately?"
  8: 0x0203 [0x23] WAIT_FOR_DIALOG_INTERACTION
  9: 0x0204 [0x29] REQ_SET_WAIT(priority=0x08, entity_id=Orsa-Porsa (ID: 17863433/0x01109309), tag_num=0x05)
 10: 0x020B [0x29] REQ_SET_WAIT(priority=0x08, entity_id=Orsa-Porsa (ID: 17863433/0x01109309), tag_num=0x0E)
 11: 0x0212 [0x1D] PRINT_EVENT_MESSAGE(message_id=7983*)
    → "I keep thinking, "Orsa-Porsa, it's not for you to judge"--but come on! This placey-wace hasn't even been fully colonized yet!"
 12: 0x0215 [0x23] WAIT_FOR_DIALOG_INTERACTION
 13: 0x0216 [0x29] REQ_SET_WAIT(priority=0x08, entity_id=Orsa-Porsa (ID: 17863433/0x01109309), tag_num=0x0F)
 14: 0x021D [0x29] REQ_SET_WAIT(priority=0x08, entity_id=Orsa-Porsa (ID: 17863433/0x01109309), tag_num=0x10)
 15: 0x0224 [0x1D] PRINT_EVENT_MESSAGE(message_id=7984*)
    → "I would tell him to go home, but, erm...I haven't actually metaru the guy."
 16: 0x0227 [0x23] WAIT_FOR_DIALOG_INTERACTION
 17: 0x0228 [0x29] REQ_SET_WAIT(priority=0x08, entity_id=Orsa-Porsa (ID: 17863433/0x01109309), tag_num=0x11)
 18: 0x022F [0x29] REQ_SET_WAIT(priority=0x08, entity_id=Orsa-Porsa (ID: 17863433/0x01109309), tag_num=0x06)
 19: 0x0236 [0x1D] PRINT_EVENT_MESSAGE(message_id=7985*)
    → "But it got me to thinking...wouldn't it be the bestaru if I had $1, $2, and $3?"
 20: 0x0239 [0x23] WAIT_FOR_DIALOG_INTERACTION
 21: 0x023A [0x29] REQ_SET_WAIT(priority=0x08, entity_id=Orsa-Porsa (ID: 17863433/0x01109309), tag_num=0x07)
 22: 0x0241 [0x29] REQ_SET_WAIT(priority=0x08, entity_id=Orsa-Porsa (ID: 17863433/0x01109309), tag_num=0x08)
 23: 0x0248 [0x29] REQ_SET_WAIT(priority=0x08, entity_id=Orsa-Porsa (ID: 17863433/0x01109309), tag_num=0x09)
 24: 0x024F [0x29] REQ_SET_WAIT(priority=0x08, entity_id=Orsa-Porsa (ID: 17863433/0x01109309), tag_num=0x0C)
 25: 0x0256 [0x1D] PRINT_EVENT_MESSAGE(message_id=7986*)
    → "When you think of hot springs, what do you think of? That's right, eggs and milk! ...Why are you looking at me like that? You boil the eggs in the hot springs, and wash them down with a tall glassy-wass of milk!"
 26: 0x0259 [0x23] WAIT_FOR_DIALOG_INTERACTION
 27: 0x025A [0x1D] PRINT_EVENT_MESSAGE(message_id=7987*)
    → "And to think, a pioneer appears before me right as my tummy-wummy starts rumbling. It's a sign from Altana herself!"
 28: 0x025D [0x23] WAIT_FOR_DIALOG_INTERACTION
 29: 0x025E [0x29] REQ_SET_WAIT(priority=0x08, entity_id=Orsa-Porsa (ID: 17863433/0x01109309), tag_num=0x0D)
 30: 0x0265 [0x29] REQ_SET_WAIT(priority=0x08, entity_id=Orsa-Porsa (ID: 17863433/0x01109309), tag_num=0x04)
 31: 0x026C [0x1D] PRINT_EVENT_MESSAGE(message_id=7988*)
    → "You are preordained to bring me $1, $2, and $3! Then we'll be able to catch that old man for sure!"
 32: 0x026F [0x23] WAIT_FOR_DIALOG_INTERACTION
 33: 0x0270 [0x29] REQ_SET_WAIT(priority=0x08, entity_id=Orsa-Porsa (ID: 17863433/0x01109309), tag_num=0x05)
 34: 0x0277 [0x20] SET_CLI_EVENT_UC_FLAG: Unlock player control
 35: 0x0279 [0x21] END_EVENT
 36: 0x027A [0x00] END_REQSTACK()
```

### Event 2582

#### Metadata

| Field        | Value    |
|--------------|----------|
| Entrypoint   | 0x027B   |
| Data Size    | 29 bytes |
| Instructions | 10       |

```
      00 01 02 03 04 05 06 07  08 09 0A 0B 0C 0D 0E 0F
      -- -- -- -- -- -- -- --  -- -- -- -- -- -- -- --
0270:                                   1E F0 FF FF 7F             .....
0280: 6F 70 29 08 09 93 10 01  04 1D 0D 80 23 29 08 09  op).........#)..
0290: 93 10 01 05 20 00 21 00                           .... .!.        
```

#### Opcodes

```
  0: 0x027B [0x1E] EventEntity looks at LocalPlayer and starts talking
  1: 0x0280 [0x6F] WAIT_FRAME_DELAY: Yield until WaitTime reaches zero
  2: 0x0281 [0x70] WAIT_ENTITY_RENDER_FLAG: Wait while EventEntity->Render.Flags3 bit 2 is set (cancel turn if not)
  3: 0x0282 [0x29] REQ_SET_WAIT(priority=0x08, entity_id=Orsa-Porsa (ID: 17863433/0x01109309), tag_num=0x04)
  4: 0x0289 [0x1D] PRINT_EVENT_MESSAGE(message_id=7989*)
    → "Don't forgetaru what I need--$1, $2, and $3!"
  5: 0x028C [0x23] WAIT_FOR_DIALOG_INTERACTION
  6: 0x028D [0x29] REQ_SET_WAIT(priority=0x08, entity_id=Orsa-Porsa (ID: 17863433/0x01109309), tag_num=0x05)
  7: 0x0294 [0x20] SET_CLI_EVENT_UC_FLAG: Unlock player control
  8: 0x0296 [0x21] END_EVENT
  9: 0x0297 [0x00] END_REQSTACK()
```

### Event 2584

#### Metadata

| Field        | Value     |
|--------------|-----------|
| Entrypoint   | 0x0298    |
| Data Size    | 106 bytes |
| Instructions | 29        |

```
      00 01 02 03 04 05 06 07  08 09 0A 0B 0C 0D 0E 0F
      -- -- -- -- -- -- -- --  -- -- -- -- -- -- -- --
0290:                          42 1E F0 FF FF 7F 6F 70          B.....op
02A0: 29 08 09 93 10 01 1C 1D  0E 80 23 29 08 09 93 10  ).........#)....
02B0: 01 1D 29 08 09 93 10 01  16 1D 0F 80 23 29 08 09  ..).........#)..
02C0: 93 10 01 17 29 08 09 93  10 01 12 1D 10 80 23 29  ....).........#)
02D0: 08 09 93 10 01 13 29 08  09 93 10 01 0C 1D 11 80  ......).........
02E0: 23 29 08 09 93 10 01 0D  29 08 09 93 10 01 04 1D  #)......).......
02F0: 12 80 23 1D 13 80 23 29  08 09 93 10 01 05 20 00  ..#...#)...... .
0300: 21 00                                             !.              
```

#### Opcodes

```
  0: 0x0298 [0x42] SET_CLI_EVENT_CANCEL_DATA()
  1: 0x0299 [0x1E] EventEntity looks at LocalPlayer and starts talking
  2: 0x029E [0x6F] WAIT_FRAME_DELAY: Yield until WaitTime reaches zero
  3: 0x029F [0x70] WAIT_ENTITY_RENDER_FLAG: Wait while EventEntity->Render.Flags3 bit 2 is set (cancel turn if not)
  4: 0x02A0 [0x29] REQ_SET_WAIT(priority=0x08, entity_id=Orsa-Porsa (ID: 17863433/0x01109309), tag_num=0x1C)
  5: 0x02A7 [0x1D] PRINT_EVENT_MESSAGE(message_id=7990*)
    → "Oh, what a wonderful pioneer you are. Blazing a trail not just in the basaltaru fields, but all the way back to the kitchen, too!"
  6: 0x02AA [0x23] WAIT_FOR_DIALOG_INTERACTION
  7: 0x02AB [0x29] REQ_SET_WAIT(priority=0x08, entity_id=Orsa-Porsa (ID: 17863433/0x01109309), tag_num=0x1D)
  8: 0x02B2 [0x29] REQ_SET_WAIT(priority=0x08, entity_id=Orsa-Porsa (ID: 17863433/0x01109309), tag_num=0x16)
  9: 0x02B9 [0x1D] PRINT_EVENT_MESSAGE(message_id=7991*)
    → "Now all we need to do is put the eggs and milk in this proverbial basketaru..."
 10: 0x02BC [0x23] WAIT_FOR_DIALOG_INTERACTION
 11: 0x02BD [0x29] REQ_SET_WAIT(priority=0x08, entity_id=Orsa-Porsa (ID: 17863433/0x01109309), tag_num=0x17)
 12: 0x02C4 [0x29] REQ_SET_WAIT(priority=0x08, entity_id=Orsa-Porsa (ID: 17863433/0x01109309), tag_num=0x12)
 13: 0x02CB [0x1D] PRINT_EVENT_MESSAGE(message_id=7992*)
    → "Bring it to the hot springs, and see if we can't catchy-watch ourselves a creepy old man!"
 14: 0x02CE [0x23] WAIT_FOR_DIALOG_INTERACTION
 15: 0x02CF [0x29] REQ_SET_WAIT(priority=0x08, entity_id=Orsa-Porsa (ID: 17863433/0x01109309), tag_num=0x13)
 16: 0x02D6 [0x29] REQ_SET_WAIT(priority=0x08, entity_id=Orsa-Porsa (ID: 17863433/0x01109309), tag_num=0x0C)
 17: 0x02DD [0x1D] PRINT_EVENT_MESSAGE(message_id=7993*)
    → "But if you're going to go to the hot springs, you'll have to look the partaru. That's right--strip down to your birthday suit and hop right in there."
 18: 0x02E0 [0x23] WAIT_FOR_DIALOG_INTERACTION
 19: 0x02E1 [0x29] REQ_SET_WAIT(priority=0x08, entity_id=Orsa-Porsa (ID: 17863433/0x01109309), tag_num=0x0D)
 20: 0x02E8 [0x29] REQ_SET_WAIT(priority=0x08, entity_id=Orsa-Porsa (ID: 17863433/0x01109309), tag_num=0x04)
 21: 0x02EF [0x1D] PRINT_EVENT_MESSAGE(message_id=7994*)
    → "Oh, I almost forgot! Fallio, my partner in crime, has narrow-warrowed down the location where he thinks you'll be able to find the guy."
 22: 0x02F2 [0x23] WAIT_FOR_DIALOG_INTERACTION
 23: 0x02F3 [0x1D] PRINT_EVENT_MESSAGE(message_id=7995*)
    → "Do you have a mappy-wap? Here, let me show you. There. Right around H-7."
 24: 0x02F6 [0x23] WAIT_FOR_DIALOG_INTERACTION
 25: 0x02F7 [0x29] REQ_SET_WAIT(priority=0x08, entity_id=Orsa-Porsa (ID: 17863433/0x01109309), tag_num=0x05)
 26: 0x02FE [0x20] SET_CLI_EVENT_UC_FLAG: Unlock player control
 27: 0x0300 [0x21] END_EVENT
 28: 0x0301 [0x00] END_REQSTACK()
```

### Event 2583

#### Metadata

| Field        | Value    |
|--------------|----------|
| Entrypoint   | 0x0302   |
| Data Size    | 29 bytes |
| Instructions | 10       |

```
      00 01 02 03 04 05 06 07  08 09 0A 0B 0C 0D 0E 0F
      -- -- -- -- -- -- -- --  -- -- -- -- -- -- -- --
0300:       1E F0 FF FF 7F 6F  70 29 08 09 93 10 01 04    .....op)......
0310: 1D 14 80 23 29 08 09 93  10 01 05 20 00 21 00     ...#)...... .!. 
```

#### Opcodes

```
  0: 0x0302 [0x1E] EventEntity looks at LocalPlayer and starts talking
  1: 0x0307 [0x6F] WAIT_FRAME_DELAY: Yield until WaitTime reaches zero
  2: 0x0308 [0x70] WAIT_ENTITY_RENDER_FLAG: Wait while EventEntity->Render.Flags3 bit 2 is set (cancel turn if not)
  3: 0x0309 [0x29] REQ_SET_WAIT(priority=0x08, entity_id=Orsa-Porsa (ID: 17863433/0x01109309), tag_num=0x04)
  4: 0x0310 [0x1D] PRINT_EVENT_MESSAGE(message_id=7996*)
    → "The hot springs pertinentaru to the task at hand are located around H-7 here in Morimar. Just jump right in and wait!"
  5: 0x0313 [0x23] WAIT_FOR_DIALOG_INTERACTION
  6: 0x0314 [0x29] REQ_SET_WAIT(priority=0x08, entity_id=Orsa-Porsa (ID: 17863433/0x01109309), tag_num=0x05)
  7: 0x031B [0x20] SET_CLI_EVENT_UC_FLAG: Unlock player control
  8: 0x031D [0x21] END_EVENT
  9: 0x031E [0x00] END_REQSTACK()
```

### Event 2585

#### Metadata

| Field        | Value     |
|--------------|-----------|
| Entrypoint   | 0x031F    |
| Data Size    | 195 bytes |
| Instructions | 38        |

```
      00 01 02 03 04 05 06 07  08 09 0A 0B 0C 0D 0E 0F
      -- -- -- -- -- -- -- --  -- -- -- -- -- -- -- --
0310:                                               42                 B
0320: 1E F0 FF FF 7F 6F 70 29  08 09 93 10 01 0A 1D 15  .....op)........
0330: 80 23 29 08 09 93 10 01  0B 29 08 09 93 10 01 0E  .#)......)......
0340: 1D 16 80 23 1D 17 80 23  45 18 80 F0 FF FF 7F F0  ...#...#E.......
0350: FF FF 7F 66 64 6F 31 19  80 55 18 80 F0 FF FF 7F  ...fdo1..U......
0360: F0 FF FF 7F 66 64 6F 31  29 08 09 93 10 01 0F 45  ....fdo1)......E
0370: 18 80 F0 FF FF 7F F0 FF  FF 7F 66 64 69 31 19 80  ..........fdi1..
0380: 55 18 80 F0 FF FF 7F F0  FF FF 7F 66 64 69 31 29  U..........fdi1)
0390: 08 09 93 10 01 10 1D 1A  80 23 1D 1B 80 23 29 08  .........#...#).
03A0: 09 93 10 01 11 29 08 09  93 10 01 14 1D 1C 80 23  .....).........#
03B0: 29 08 09 93 10 01 15 29  08 09 93 10 01 16 1D 1D  )......)........
03C0: 80 23 1D 1E 80 23 29 08  09 93 10 01 17 45 1F 80  .#...#)......E..
03D0: F8 FF FF 7F F8 FF FF 7F  71 73 74 63 19 80 20 00  ........qstc.. .
03E0: 21 00                                             !.              
```

#### Opcodes

```
  0: 0x031F [0x42] SET_CLI_EVENT_CANCEL_DATA()
  1: 0x0320 [0x1E] EventEntity looks at LocalPlayer and starts talking
  2: 0x0325 [0x6F] WAIT_FRAME_DELAY: Yield until WaitTime reaches zero
  3: 0x0326 [0x70] WAIT_ENTITY_RENDER_FLAG: Wait while EventEntity->Render.Flags3 bit 2 is set (cancel turn if not)
  4: 0x0327 [0x29] REQ_SET_WAIT(priority=0x08, entity_id=Orsa-Porsa (ID: 17863433/0x01109309), tag_num=0x0A)
  5: 0x032E [0x1D] PRINT_EVENT_MESSAGE(message_id=8022*)
    → "Wh-wh-what!? You actually metaru the guy?"
  6: 0x0331 [0x23] WAIT_FOR_DIALOG_INTERACTION
  7: 0x0332 [0x29] REQ_SET_WAIT(priority=0x08, entity_id=Orsa-Porsa (ID: 17863433/0x01109309), tag_num=0x0B)
  8: 0x0339 [0x29] REQ_SET_WAIT(priority=0x08, entity_id=Orsa-Porsa (ID: 17863433/0x01109309), tag_num=0x0E)
  9: 0x0340 [0x1D] PRINT_EVENT_MESSAGE(message_id=8023*)
    → "I mean, this was all within my meticulous-wiculous calculations. However, I knew that the proper reaction was to actaru surprised, so I...uh...did."
 10: 0x0343 [0x23] WAIT_FOR_DIALOG_INTERACTION
 11: 0x0344 [0x1D] PRINT_EVENT_MESSAGE(message_id=8024*)
    → "So tell me, tell me! Who was he? What was he doing in the hotaru springs?"
 12: 0x0347 [0x23] WAIT_FOR_DIALOG_INTERACTION
 13: 0x0348 [0x45] LOAD_SCHEDULED_TASK: Load scheduler "fdo1" with entities [LocalPlayer, LocalPlayer], work=[200*, 0*]
 14: 0x0359 [0x55] WAIT_LOAD_SCHEDULER: Wait for scheduler "fdo1" with entities [LocalPlayer, LocalPlayer], work=200*
 15: 0x0368 [0x29] REQ_SET_WAIT(priority=0x08, entity_id=Orsa-Porsa (ID: 17863433/0x01109309), tag_num=0x0F)
 16: 0x036F [0x45] LOAD_SCHEDULED_TASK: Load scheduler "fdi1" with entities [LocalPlayer, LocalPlayer], work=[200*, 0*]
 17: 0x0380 [0x55] WAIT_LOAD_SCHEDULER: Wait for scheduler "fdi1" with entities [LocalPlayer, LocalPlayer], work=200*
 18: 0x038F [0x29] REQ_SET_WAIT(priority=0x08, entity_id=Orsa-Porsa (ID: 17863433/0x01109309), tag_num=0x10)
 19: 0x0396 [0x1D] PRINT_EVENT_MESSAGE(message_id=8025*)
    → "...Is that all? No primitive tribesman taking a break from the huntaru? No spy from the Middle Lands come to investigataru our progress? Aww...I had such high hopes, too!"
 20: 0x0399 [0x23] WAIT_FOR_DIALOG_INTERACTION
 21: 0x039A [0x1D] PRINT_EVENT_MESSAGE(message_id=8026*)
    → "Still, there's something bother-wothering me."
 22: 0x039D [0x23] WAIT_FOR_DIALOG_INTERACTION
 23: 0x039E [0x29] REQ_SET_WAIT(priority=0x08, entity_id=Orsa-Porsa (ID: 17863433/0x01109309), tag_num=0x11)
 24: 0x03A5 [0x29] REQ_SET_WAIT(priority=0x08, entity_id=Orsa-Porsa (ID: 17863433/0x01109309), tag_num=0x14)
 25: 0x03AC [0x1D] PRINT_EVENT_MESSAGE(message_id=8027*)
    → "Forget all this nonsense about "fun" and "excitement." What I wantaru to know is how you could stand such temperatures for so long!"
 26: 0x03AF [0x23] WAIT_FOR_DIALOG_INTERACTION
 27: 0x03B0 [0x29] REQ_SET_WAIT(priority=0x08, entity_id=Orsa-Porsa (ID: 17863433/0x01109309), tag_num=0x15)
 28: 0x03B7 [0x29] REQ_SET_WAIT(priority=0x08, entity_id=Orsa-Porsa (ID: 17863433/0x01109309), tag_num=0x16)
 29: 0x03BE [0x1D] PRINT_EVENT_MESSAGE(message_id=8028*)
    → "C-could it be the glorious evolution!? Mankind making his firstaru steps toward something greater!?"
 30: 0x03C1 [0x23] WAIT_FOR_DIALOG_INTERACTION
 31: 0x03C2 [0x1D] PRINT_EVENT_MESSAGE(message_id=8029*)
    → "You, <Player>, are a [man among men/woman among women]! A true hot springs mountaineer!"
 32: 0x03C5 [0x23] WAIT_FOR_DIALOG_INTERACTION
 33: 0x03C6 [0x29] REQ_SET_WAIT(priority=0x08, entity_id=Orsa-Porsa (ID: 17863433/0x01109309), tag_num=0x17)
 34: 0x03CD [0x45] LOAD_SCHEDULED_TASK: Load scheduler "qstc" with entities [EventEntity, EventEntity], work=[201*, 0*]
 35: 0x03DE [0x20] SET_CLI_EVENT_UC_FLAG: Unlock player control
 36: 0x03E0 [0x21] END_EVENT
 37: 0x03E1 [0x00] END_REQSTACK()
```

### Event 2586

#### Metadata

| Field        | Value    |
|--------------|----------|
| Entrypoint   | 0x03E2   |
| Data Size    | 29 bytes |
| Instructions | 10       |

```
      00 01 02 03 04 05 06 07  08 09 0A 0B 0C 0D 0E 0F
      -- -- -- -- -- -- -- --  -- -- -- -- -- -- -- --
03E0:       1E F0 FF FF 7F 6F  70 29 08 09 93 10 01 16    .....op)......
03F0: 1D 1E 80 23 29 08 09 93  10 01 17 20 00 21 00     ...#)...... .!. 
```

#### Opcodes

```
  0: 0x03E2 [0x1E] EventEntity looks at LocalPlayer and starts talking
  1: 0x03E7 [0x6F] WAIT_FRAME_DELAY: Yield until WaitTime reaches zero
  2: 0x03E8 [0x70] WAIT_ENTITY_RENDER_FLAG: Wait while EventEntity->Render.Flags3 bit 2 is set (cancel turn if not)
  3: 0x03E9 [0x29] REQ_SET_WAIT(priority=0x08, entity_id=Orsa-Porsa (ID: 17863433/0x01109309), tag_num=0x16)
  4: 0x03F0 [0x1D] PRINT_EVENT_MESSAGE(message_id=8029*)
    → "You, <Player>, are a [man among men/woman among women]! A true hot springs mountaineer!"
  5: 0x03F3 [0x23] WAIT_FOR_DIALOG_INTERACTION
  6: 0x03F4 [0x29] REQ_SET_WAIT(priority=0x08, entity_id=Orsa-Porsa (ID: 17863433/0x01109309), tag_num=0x17)
  7: 0x03FB [0x20] SET_CLI_EVENT_UC_FLAG: Unlock player control
  8: 0x03FD [0x21] END_EVENT
  9: 0x03FE [0x00] END_REQSTACK()
```
