# 17863427 - Dabnorrin

## Common Data

| Field            | Value                           |
|------------------|---------------------------------|
| Zone             | Morimar Basalt Fields (ID: 265) |
| Block Size       | 1532 bytes                      |
| Total Events     | 38                              |
| References Count | 37                              |

## List of Events

| Event ID                   | Entrypoint   |   Size |   Instructions |
|----------------------------|--------------|--------|----------------|
| [65535](#event-65535)      | 0x0000       |      1 |              1 |
| [65535.1](#event-655351)   | 0x0001       |      9 |              3 |
| [65535.2](#event-655352)   | 0x000A       |     16 |              2 |
| [65535.3](#event-655353)   | 0x001A       |     14 |              2 |
| [65535.4](#event-655354)   | 0x0028       |     16 |              2 |
| [65535.5](#event-655355)   | 0x0038       |     14 |              2 |
| [65535.6](#event-655356)   | 0x0046       |     16 |              2 |
| [65535.7](#event-655357)   | 0x0056       |     14 |              2 |
| [65535.8](#event-655358)   | 0x0064       |     16 |              2 |
| [65535.9](#event-655359)   | 0x0074       |     14 |              2 |
| [65535.10](#event-6553510) | 0x0082       |     16 |              2 |
| [65535.11](#event-6553511) | 0x0092       |     14 |              2 |
| [65535.12](#event-6553512) | 0x00A0       |     57 |              5 |
| [65535.13](#event-6553513) | 0x00D9       |     27 |              3 |
| [65535.14](#event-6553514) | 0x00F4       |     27 |              3 |
| [65535.15](#event-6553515) | 0x010F       |     16 |              2 |
| [65535.16](#event-6553516) | 0x011F       |     14 |              2 |
| [65535.17](#event-6553517) | 0x012D       |     16 |              2 |
| [65535.18](#event-6553518) | 0x013D       |     14 |              2 |
| [65535.19](#event-6553519) | 0x014B       |     16 |              2 |
| [65535.20](#event-6553520) | 0x015B       |     14 |              2 |
| [65535.21](#event-6553521) | 0x0169       |     16 |              2 |
| [65535.22](#event-6553522) | 0x0179       |     14 |              2 |
| [65535.23](#event-6553523) | 0x0187       |     16 |              4 |
| [65535.24](#event-6553524) | 0x0197       |     16 |              4 |
| [65535.25](#event-6553525) | 0x01A7       |     16 |              4 |
| [65535.26](#event-6553526) | 0x01B7       |     16 |              4 |
| [24](#event-24)            | 0x01C7       |      1 |              1 |
| [65535.27](#event-6553527) | 0x01C8       |     14 |              4 |
| [65535.28](#event-6553528) | 0x01D6       |     14 |              4 |
| [34](#event-34)            | 0x01E4       |     13 |              7 |
| [25](#event-25)            | 0x01F1       |     41 |             13 |
| [35](#event-35)            | 0x021A       |    222 |             50 |
| [37](#event-37)            | 0x02F8       |     33 |             11 |
| [39](#event-39)            | 0x0319       |     28 |              8 |
| [27](#event-27)            | 0x0335       |     95 |             23 |
| [36](#event-36)            | 0x0394       |     32 |             10 |
| [38](#event-38)            | 0x03B4       |    266 |             60 |

## DAT References (imed_data)

|   Index | Hex Value   |   Dec Value |
|---------|-------------|-------------|
|       0 | 0x003C      |          60 |
|       1 | 0x00D1      |         209 |
|       2 | 0x0083      |         131 |
|       3 | 0x0045      |          69 |
|       4 | 0x0015      |          21 |
|       5 | 0x0007      |           7 |
|       6 | 0x000B      |          11 |
|       7 | 0x000E      |          14 |
|       8 | 0x000D      |          13 |
|       9 | 0x5823A     |      361018 |
|      10 | 0x8E4C      |       36428 |
|      11 | 0xFFFFC181  |  4294951297 |
|      12 | 0x57AA4     |      359076 |
|      13 | 0x862C      |       34348 |
|      14 | 0xFFFFC180  |  4294951296 |
|      15 | 0x1ECD      |        7885 |
|      16 | 0x1EE1      |        7905 |
|      17 | 0x0945      |        2373 |
|      18 | 0x1EE2      |        7906 |
|      19 | 0x1EE3      |        7907 |
|      20 | 0x1EE7      |        7911 |
|      21 | 0x0466      |        1126 |
|      22 | 0x1EE8      |        7912 |
|      23 | 0x1EE9      |        7913 |
|      24 | 0x1EEA      |        7914 |
|      25 | 0x0000      |           0 |
|      26 | 0x1EEB      |        7915 |
|      27 | 0x0001      |           1 |
|      28 | 0x1EEC      |        7916 |
|      29 | 0x0002      |           2 |
|      30 | 0x1EEE      |        7918 |
|      31 | 0x0003      |           3 |
|      32 | 0x1EEF      |        7919 |
|      33 | 0x1F00      |        7936 |
|      34 | 0x1F01      |        7937 |
|      35 | 0x1F02      |        7938 |
|      36 | 0x1F03      |        7939 |

## String References

- **7885**: This pioneering stuff is tough on the back. What I wouldn't give to be home in Adoulin with my family!
- **7905**: Yes, I overheard what Hostenn was telling you. "Head to the open area in the northeast where you reach a dead end."
- **7906**: Something about placing the $3 near the ergon locus and summoning an elemental.
- **7907**: His challenge was for you to defeat it within ten minutes (Earth time), right? Should be simple enough. If you fail, come see me and we'll start the process over.
- **7911**: You need another $3? I suppose I might have one lying around, but it'll take me some time to find one...
- **7912**: Though if you really want to pass Hostenn's test, I can be persuaded to search extra hard for gil, bayld, or $3.
- **7913**: Of course, if you'd rather wait, I'll be able to come across one eventually. What do you say?
- **7914**: Purchase another one? [Purchase for 50000 gil./Purchase for 5000 bayld./Purchase for ten beastmen's seals./No purchasing for me.]
- **7915**: Purchase the item for [50,000 gil/5000 bayld]? (Gil: $1). [Yes./No.]
- **7916**: Purchase the item for [50,000 gil/5000 bayld]? (Bayld: $1). [Yes./No.]
- **7918**: Trade me ten beastmen's seals if you really want the item.
- **7919**: Well, well, so you're here for another $3. Don't screw it up this time, okay?
- **7936**: Hostenn gave you one hell of a test, and you managed to clear it. Not bad. Not bad at all.
- **7937**: If you want to give that elemental another go, just say the word and I'll give you another $3.
- **7938**: Do you want another $3? [Sure!/No thanks.]
- **7939**: You know how this works. Head to the northeast until you can't go any farther and place it down to lure in the creature. You've got ten minutes (Earth time) to succeed.

## Events

### Event 65535

#### Metadata

| Field        | Value   |
|--------------|---------|
| Entrypoint   | 0x0000  |
| Data Size    | 1 bytes |
| Instructions | 1       |

```
      00 01 02 03 04 05 06 07  08 09 0A 0B 0C 0D 0E 0F
      -- -- -- -- -- -- -- --  -- -- -- -- -- -- -- --
0000: 00                                                .               
```

#### Opcodes

```
  0: 0x0000 [0x00] END_REQSTACK()
```

### Event 65535.1

#### Metadata

| Field        | Value   |
|--------------|---------|
| Entrypoint   | 0x0001  |
| Data Size    | 9 bytes |
| Instructions | 3       |

```
      00 01 02 03 04 05 06 07  08 09 0A 0B 0C 0D 0E 0F
      -- -- -- -- -- -- -- --  -- -- -- -- -- -- -- --
0000:    5E 69 64 6C 30 1C 00  80 00                     ^idl0....      
```

#### Opcodes

```
  0: 0x0001 [0x5E] EventEntity goes idle (kills current action) (animation: "idl0")
  1: 0x0006 [0x1C] WAIT(60* ticks)
  2: 0x0009 [0x00] END_REQSTACK()
```

### Event 65535.2

#### Metadata

| Field        | Value    |
|--------------|----------|
| Entrypoint   | 0x000A   |
| Data Size    | 16 bytes |
| Instructions | 2        |

```
      00 01 02 03 04 05 06 07  08 09 0A 0B 0C 0D 0E 0F
      -- -- -- -- -- -- -- --  -- -- -- -- -- -- -- --
0000:                                66 01 80 F8 FF FF            f.....
0010: 7F F8 FF FF 7F 74 6C 6B  30 00                    .....tlk0.      
```

#### Opcodes

```
  0: 0x000A [0x66] LOAD_EXT_SCHEDULER_MAIN: Load scheduler "tlk0" with entities [EventEntity, EventEntity], work=209*
  1: 0x0019 [0x00] END_REQSTACK()
```

### Event 65535.3

#### Metadata

| Field        | Value    |
|--------------|----------|
| Entrypoint   | 0x001A   |
| Data Size    | 14 bytes |
| Instructions | 2        |

```
      00 01 02 03 04 05 06 07  08 09 0A 0B 0C 0D 0E 0F
      -- -- -- -- -- -- -- --  -- -- -- -- -- -- -- --
0010:                                53 F8 FF FF 7F F8            S.....
0020: FF FF 7F 74 6C 6B 30 00                           ...tlk0.        
```

#### Opcodes

```
  0: 0x001A [0x53] WAIT_SCHEDULER_TASK: Wait for scheduler "tlk0" with entities [EventEntity, EventEntity]
  1: 0x0027 [0x00] END_REQSTACK()
```

### Event 65535.4

#### Metadata

| Field        | Value    |
|--------------|----------|
| Entrypoint   | 0x0028   |
| Data Size    | 16 bytes |
| Instructions | 2        |

```
      00 01 02 03 04 05 06 07  08 09 0A 0B 0C 0D 0E 0F
      -- -- -- -- -- -- -- --  -- -- -- -- -- -- -- --
0020:                          66 01 80 F8 FF FF 7F F8          f.......
0030: FF FF 7F 74 6C 6B 31 00                           ...tlk1.        
```

#### Opcodes

```
  0: 0x0028 [0x66] LOAD_EXT_SCHEDULER_MAIN: Load scheduler "tlk1" with entities [EventEntity, EventEntity], work=209*
  1: 0x0037 [0x00] END_REQSTACK()
```

### Event 65535.5

#### Metadata

| Field        | Value    |
|--------------|----------|
| Entrypoint   | 0x0038   |
| Data Size    | 14 bytes |
| Instructions | 2        |

```
      00 01 02 03 04 05 06 07  08 09 0A 0B 0C 0D 0E 0F
      -- -- -- -- -- -- -- --  -- -- -- -- -- -- -- --
0030:                          53 F8 FF FF 7F F8 FF FF          S.......
0040: 7F 74 6C 6B 31 00                                 .tlk1.          
```

#### Opcodes

```
  0: 0x0038 [0x53] WAIT_SCHEDULER_TASK: Wait for scheduler "tlk1" with entities [EventEntity, EventEntity]
  1: 0x0045 [0x00] END_REQSTACK()
```

### Event 65535.6

#### Metadata

| Field        | Value    |
|--------------|----------|
| Entrypoint   | 0x0046   |
| Data Size    | 16 bytes |
| Instructions | 2        |

```
      00 01 02 03 04 05 06 07  08 09 0A 0B 0C 0D 0E 0F
      -- -- -- -- -- -- -- --  -- -- -- -- -- -- -- --
0040:                   66 02  80 F8 FF FF 7F F8 FF FF        f.........
0050: 7F 70 61 73 30 00                                 .pas0.          
```

#### Opcodes

```
  0: 0x0046 [0x66] LOAD_EXT_SCHEDULER_MAIN: Load scheduler "pas0" with entities [EventEntity, EventEntity], work=131*
  1: 0x0055 [0x00] END_REQSTACK()
```

### Event 65535.7

#### Metadata

| Field        | Value    |
|--------------|----------|
| Entrypoint   | 0x0056   |
| Data Size    | 14 bytes |
| Instructions | 2        |

```
      00 01 02 03 04 05 06 07  08 09 0A 0B 0C 0D 0E 0F
      -- -- -- -- -- -- -- --  -- -- -- -- -- -- -- --
0050:                   53 F8  FF FF 7F F8 FF FF 7F 70        S........p
0060: 61 73 30 00                                       as0.            
```

#### Opcodes

```
  0: 0x0056 [0x53] WAIT_SCHEDULER_TASK: Wait for scheduler "pas0" with entities [EventEntity, EventEntity]
  1: 0x0063 [0x00] END_REQSTACK()
```

### Event 65535.8

#### Metadata

| Field        | Value    |
|--------------|----------|
| Entrypoint   | 0x0064   |
| Data Size    | 16 bytes |
| Instructions | 2        |

```
      00 01 02 03 04 05 06 07  08 09 0A 0B 0C 0D 0E 0F
      -- -- -- -- -- -- -- --  -- -- -- -- -- -- -- --
0060:             66 03 80 F8  FF FF 7F F8 FF FF 7F 74      f..........t
0070: 6C 6B 30 00                                       lk0.            
```

#### Opcodes

```
  0: 0x0064 [0x66] LOAD_EXT_SCHEDULER_MAIN: Load scheduler "tlk0" with entities [EventEntity, EventEntity], work=69*
  1: 0x0073 [0x00] END_REQSTACK()
```

### Event 65535.9

#### Metadata

| Field        | Value    |
|--------------|----------|
| Entrypoint   | 0x0074   |
| Data Size    | 14 bytes |
| Instructions | 2        |

```
      00 01 02 03 04 05 06 07  08 09 0A 0B 0C 0D 0E 0F
      -- -- -- -- -- -- -- --  -- -- -- -- -- -- -- --
0070:             53 F8 FF FF  7F F8 FF FF 7F 74 6C 6B      S........tlk
0080: 30 00                                             0.              
```

#### Opcodes

```
  0: 0x0074 [0x53] WAIT_SCHEDULER_TASK: Wait for scheduler "tlk0" with entities [EventEntity, EventEntity]
  1: 0x0081 [0x00] END_REQSTACK()
```

### Event 65535.10

#### Metadata

| Field        | Value    |
|--------------|----------|
| Entrypoint   | 0x0082   |
| Data Size    | 16 bytes |
| Instructions | 2        |

```
      00 01 02 03 04 05 06 07  08 09 0A 0B 0C 0D 0E 0F
      -- -- -- -- -- -- -- --  -- -- -- -- -- -- -- --
0080:       66 03 80 F8 FF FF  7F F8 FF FF 7F 74 6C 6B    f..........tlk
0090: 30 00                                             0.              
```

#### Opcodes

```
  0: 0x0082 [0x66] LOAD_EXT_SCHEDULER_MAIN: Load scheduler "tlk0" with entities [EventEntity, EventEntity], work=69*
  1: 0x0091 [0x00] END_REQSTACK()
```

### Event 65535.11

#### Metadata

| Field        | Value    |
|--------------|----------|
| Entrypoint   | 0x0092   |
| Data Size    | 14 bytes |
| Instructions | 2        |

```
      00 01 02 03 04 05 06 07  08 09 0A 0B 0C 0D 0E 0F
      -- -- -- -- -- -- -- --  -- -- -- -- -- -- -- --
0090:       53 F8 FF FF 7F F8  FF FF 7F 74 6C 6B 30 00    S........tlk0.
```

#### Opcodes

```
  0: 0x0092 [0x53] WAIT_SCHEDULER_TASK: Wait for scheduler "tlk0" with entities [EventEntity, EventEntity]
  1: 0x009F [0x00] END_REQSTACK()
```

### Event 65535.12

#### Metadata

| Field        | Value    |
|--------------|----------|
| Entrypoint   | 0x00A0   |
| Data Size    | 57 bytes |
| Instructions | 5        |

```
      00 01 02 03 04 05 06 07  08 09 0A 0B 0C 0D 0E 0F
      -- -- -- -- -- -- -- --  -- -- -- -- -- -- -- --
00A0: 66 03 80 F8 FF FF 7F F8  FF FF 7F 74 6C 6B 30 53  f..........tlk0S
00B0: F8 FF FF 7F F8 FF FF 7F  74 6C 6B 30 66 03 80 F8  ........tlk0f...
00C0: FF FF 7F F8 FF FF 7F 74  6C 6B 30 53 F8 FF FF 7F  .......tlk0S....
00D0: F8 FF FF 7F 74 6C 6B 30  00                       ....tlk0.       
```

#### Opcodes

```
  0: 0x00A0 [0x66] LOAD_EXT_SCHEDULER_MAIN: Load scheduler "tlk0" with entities [EventEntity, EventEntity], work=69*
  1: 0x00AF [0x53] WAIT_SCHEDULER_TASK: Wait for scheduler "tlk0" with entities [EventEntity, EventEntity]
  2: 0x00BC [0x66] LOAD_EXT_SCHEDULER_MAIN: Load scheduler "tlk0" with entities [EventEntity, EventEntity], work=69*
  3: 0x00CB [0x53] WAIT_SCHEDULER_TASK: Wait for scheduler "tlk0" with entities [EventEntity, EventEntity]
  4: 0x00D8 [0x00] END_REQSTACK()
```

### Event 65535.13

#### Metadata

| Field        | Value    |
|--------------|----------|
| Entrypoint   | 0x00D9   |
| Data Size    | 27 bytes |
| Instructions | 3        |

```
      00 01 02 03 04 05 06 07  08 09 0A 0B 0C 0D 0E 0F
      -- -- -- -- -- -- -- --  -- -- -- -- -- -- -- --
00D0:                             2C F8 FF FF 7F F8 FF           ,......
00E0: FF 7F 63 6F 72 70 53 F8  FF FF 7F F8 FF FF 7F 63  ..corpS........c
00F0: 6F 72 70 00                                       orp.            
```

#### Opcodes

```
  0: 0x00D9 [0x2C] CREATE_SCHEDULER_TASK: Create scheduler "corp" with entities [EventEntity, EventEntity]
  1: 0x00E6 [0x53] WAIT_SCHEDULER_TASK: Wait for scheduler "corp" with entities [EventEntity, EventEntity]
  2: 0x00F3 [0x00] END_REQSTACK()
```

### Event 65535.14

#### Metadata

| Field        | Value    |
|--------------|----------|
| Entrypoint   | 0x00F4   |
| Data Size    | 27 bytes |
| Instructions | 3        |

```
      00 01 02 03 04 05 06 07  08 09 0A 0B 0C 0D 0E 0F
      -- -- -- -- -- -- -- --  -- -- -- -- -- -- -- --
00F0:             2C F8 FF FF  7F F8 FF FF 7F 73 69 74      ,........sit
0100: 30 53 F8 FF FF 7F F8 FF  FF 7F 73 69 74 30 00     0S........sit0. 
```

#### Opcodes

```
  0: 0x00F4 [0x2C] CREATE_SCHEDULER_TASK: Create scheduler "sit0" with entities [EventEntity, EventEntity]
  1: 0x0101 [0x53] WAIT_SCHEDULER_TASK: Wait for scheduler "sit0" with entities [EventEntity, EventEntity]
  2: 0x010E [0x00] END_REQSTACK()
```

### Event 65535.15

#### Metadata

| Field        | Value    |
|--------------|----------|
| Entrypoint   | 0x010F   |
| Data Size    | 16 bytes |
| Instructions | 2        |

```
      00 01 02 03 04 05 06 07  08 09 0A 0B 0C 0D 0E 0F
      -- -- -- -- -- -- -- --  -- -- -- -- -- -- -- --
0100:                                               66                 f
0110: 03 80 F8 FF FF 7F F8 FF  FF 7F 74 68 6B 31 00     ..........thk1. 
```

#### Opcodes

```
  0: 0x010F [0x66] LOAD_EXT_SCHEDULER_MAIN: Load scheduler "thk1" with entities [EventEntity, EventEntity], work=69*
  1: 0x011E [0x00] END_REQSTACK()
```

### Event 65535.16

#### Metadata

| Field        | Value    |
|--------------|----------|
| Entrypoint   | 0x011F   |
| Data Size    | 14 bytes |
| Instructions | 2        |

```
      00 01 02 03 04 05 06 07  08 09 0A 0B 0C 0D 0E 0F
      -- -- -- -- -- -- -- --  -- -- -- -- -- -- -- --
0110:                                               53                 S
0120: F8 FF FF 7F F8 FF FF 7F  74 68 6B 31 00           ........thk1.   
```

#### Opcodes

```
  0: 0x011F [0x53] WAIT_SCHEDULER_TASK: Wait for scheduler "thk1" with entities [EventEntity, EventEntity]
  1: 0x012C [0x00] END_REQSTACK()
```

### Event 65535.17

#### Metadata

| Field        | Value    |
|--------------|----------|
| Entrypoint   | 0x012D   |
| Data Size    | 16 bytes |
| Instructions | 2        |

```
      00 01 02 03 04 05 06 07  08 09 0A 0B 0C 0D 0E 0F
      -- -- -- -- -- -- -- --  -- -- -- -- -- -- -- --
0120:                                         66 03 80               f..
0130: F8 FF FF 7F F8 FF FF 7F  74 68 6B 32 00           ........thk2.   
```

#### Opcodes

```
  0: 0x012D [0x66] LOAD_EXT_SCHEDULER_MAIN: Load scheduler "thk2" with entities [EventEntity, EventEntity], work=69*
  1: 0x013C [0x00] END_REQSTACK()
```

### Event 65535.18

#### Metadata

| Field        | Value    |
|--------------|----------|
| Entrypoint   | 0x013D   |
| Data Size    | 14 bytes |
| Instructions | 2        |

```
      00 01 02 03 04 05 06 07  08 09 0A 0B 0C 0D 0E 0F
      -- -- -- -- -- -- -- --  -- -- -- -- -- -- -- --
0130:                                         53 F8 FF               S..
0140: FF 7F F8 FF FF 7F 74 68  6B 32 00                 ......thk2.     
```

#### Opcodes

```
  0: 0x013D [0x53] WAIT_SCHEDULER_TASK: Wait for scheduler "thk2" with entities [EventEntity, EventEntity]
  1: 0x014A [0x00] END_REQSTACK()
```

### Event 65535.19

#### Metadata

| Field        | Value    |
|--------------|----------|
| Entrypoint   | 0x014B   |
| Data Size    | 16 bytes |
| Instructions | 2        |

```
      00 01 02 03 04 05 06 07  08 09 0A 0B 0C 0D 0E 0F
      -- -- -- -- -- -- -- --  -- -- -- -- -- -- -- --
0140:                                   66 03 80 F8 FF             f....
0150: FF 7F F8 FF FF 7F 73 68  61 30 00                 ......sha0.     
```

#### Opcodes

```
  0: 0x014B [0x66] LOAD_EXT_SCHEDULER_MAIN: Load scheduler "sha0" with entities [EventEntity, EventEntity], work=69*
  1: 0x015A [0x00] END_REQSTACK()
```

### Event 65535.20

#### Metadata

| Field        | Value    |
|--------------|----------|
| Entrypoint   | 0x015B   |
| Data Size    | 14 bytes |
| Instructions | 2        |

```
      00 01 02 03 04 05 06 07  08 09 0A 0B 0C 0D 0E 0F
      -- -- -- -- -- -- -- --  -- -- -- -- -- -- -- --
0150:                                   53 F8 FF FF 7F             S....
0160: F8 FF FF 7F 73 68 61 30  00                       ....sha0.       
```

#### Opcodes

```
  0: 0x015B [0x53] WAIT_SCHEDULER_TASK: Wait for scheduler "sha0" with entities [EventEntity, EventEntity]
  1: 0x0168 [0x00] END_REQSTACK()
```

### Event 65535.21

#### Metadata

| Field        | Value    |
|--------------|----------|
| Entrypoint   | 0x0169   |
| Data Size    | 16 bytes |
| Instructions | 2        |

```
      00 01 02 03 04 05 06 07  08 09 0A 0B 0C 0D 0E 0F
      -- -- -- -- -- -- -- --  -- -- -- -- -- -- -- --
0160:                             66 03 80 F8 FF FF 7F           f......
0170: F8 FF FF 7F 73 68 61 31  00                       ....sha1.       
```

#### Opcodes

```
  0: 0x0169 [0x66] LOAD_EXT_SCHEDULER_MAIN: Load scheduler "sha1" with entities [EventEntity, EventEntity], work=69*
  1: 0x0178 [0x00] END_REQSTACK()
```

### Event 65535.22

#### Metadata

| Field        | Value    |
|--------------|----------|
| Entrypoint   | 0x0179   |
| Data Size    | 14 bytes |
| Instructions | 2        |

```
      00 01 02 03 04 05 06 07  08 09 0A 0B 0C 0D 0E 0F
      -- -- -- -- -- -- -- --  -- -- -- -- -- -- -- --
0170:                             53 F8 FF FF 7F F8 FF           S......
0180: FF 7F 73 68 61 31 00                              ..sha1.         
```

#### Opcodes

```
  0: 0x0179 [0x53] WAIT_SCHEDULER_TASK: Wait for scheduler "sha1" with entities [EventEntity, EventEntity]
  1: 0x0186 [0x00] END_REQSTACK()
```

### Event 65535.23

#### Metadata

| Field        | Value    |
|--------------|----------|
| Entrypoint   | 0x0187   |
| Data Size    | 16 bytes |
| Instructions | 4        |

```
      00 01 02 03 04 05 06 07  08 09 0A 0B 0C 0D 0E 0F
      -- -- -- -- -- -- -- --  -- -- -- -- -- -- -- --
0180:                      6E  F8 FF FF 7F 04 80 99 F8         n........
0190: FF FF 7F 1C 00 80 00                              .......         
```

#### Opcodes

```
  0: 0x0187 [0x6E] EventEntity uses emote 21*
  1: 0x018E [0x99] Wait for EventEntity animation to complete
  2: 0x0193 [0x1C] WAIT(60* ticks)
  3: 0x0196 [0x00] END_REQSTACK()
```

### Event 65535.24

#### Metadata

| Field        | Value    |
|--------------|----------|
| Entrypoint   | 0x0197   |
| Data Size    | 16 bytes |
| Instructions | 4        |

```
      00 01 02 03 04 05 06 07  08 09 0A 0B 0C 0D 0E 0F
      -- -- -- -- -- -- -- --  -- -- -- -- -- -- -- --
0190:                      6E  F8 FF FF 7F 05 80 99 F8         n........
01A0: FF FF 7F 1C 00 80 00                              .......         
```

#### Opcodes

```
  0: 0x0197 [0x6E] EventEntity uses emote 7*
  1: 0x019E [0x99] Wait for EventEntity animation to complete
  2: 0x01A3 [0x1C] WAIT(60* ticks)
  3: 0x01A6 [0x00] END_REQSTACK()
```

### Event 65535.25

#### Metadata

| Field        | Value    |
|--------------|----------|
| Entrypoint   | 0x01A7   |
| Data Size    | 16 bytes |
| Instructions | 4        |

```
      00 01 02 03 04 05 06 07  08 09 0A 0B 0C 0D 0E 0F
      -- -- -- -- -- -- -- --  -- -- -- -- -- -- -- --
01A0:                      6E  F8 FF FF 7F 06 80 99 F8         n........
01B0: FF FF 7F 1C 00 80 00                              .......         
```

#### Opcodes

```
  0: 0x01A7 [0x6E] EventEntity uses emote 11*
  1: 0x01AE [0x99] Wait for EventEntity animation to complete
  2: 0x01B3 [0x1C] WAIT(60* ticks)
  3: 0x01B6 [0x00] END_REQSTACK()
```

### Event 65535.26

#### Metadata

| Field        | Value    |
|--------------|----------|
| Entrypoint   | 0x01B7   |
| Data Size    | 16 bytes |
| Instructions | 4        |

```
      00 01 02 03 04 05 06 07  08 09 0A 0B 0C 0D 0E 0F
      -- -- -- -- -- -- -- --  -- -- -- -- -- -- -- --
01B0:                      6E  F8 FF FF 7F 07 80 99 F8         n........
01C0: FF FF 7F 1C 00 80 00                              .......         
```

#### Opcodes

```
  0: 0x01B7 [0x6E] EventEntity uses emote 14*
  1: 0x01BE [0x99] Wait for EventEntity animation to complete
  2: 0x01C3 [0x1C] WAIT(60* ticks)
  3: 0x01C6 [0x00] END_REQSTACK()
```

### Event 24

#### Metadata

| Field        | Value   |
|--------------|---------|
| Entrypoint   | 0x01C7  |
| Data Size    | 1 bytes |
| Instructions | 1       |

```
      00 01 02 03 04 05 06 07  08 09 0A 0B 0C 0D 0E 0F
      -- -- -- -- -- -- -- --  -- -- -- -- -- -- -- --
01C0:                      00                                  .        
```

#### Opcodes

```
  0: 0x01C7 [0x00] END_REQSTACK()
```

### Event 65535.27

#### Metadata

| Field        | Value    |
|--------------|----------|
| Entrypoint   | 0x01C8   |
| Data Size    | 14 bytes |
| Instructions | 4        |

```
      00 01 02 03 04 05 06 07  08 09 0A 0B 0C 0D 0E 0F
      -- -- -- -- -- -- -- --  -- -- -- -- -- -- -- --
01C0:                          32 08 80 1F 00 09 80 0A          2.......
01D0: 80 0B 80 1F 01 00                                 ......          
```

#### Opcodes

```
  0: 0x01C8 [0x32] ExtData[1]->MainSpeed = 13* * 0.1
  1: 0x01CB [0x1F] MOVE_ENTITY: EventEntity moves to X=361.018*, Z=36.428*, Y=-15.999*
  2: 0x01D3 [0x1F] MOVE_ENTITY: Update entity position (mode=1)
  3: 0x01D5 [0x00] END_REQSTACK()
```

### Event 65535.28

#### Metadata

| Field        | Value    |
|--------------|----------|
| Entrypoint   | 0x01D6   |
| Data Size    | 14 bytes |
| Instructions | 4        |

```
      00 01 02 03 04 05 06 07  08 09 0A 0B 0C 0D 0E 0F
      -- -- -- -- -- -- -- --  -- -- -- -- -- -- -- --
01D0:                   32 08  80 1F 00 0C 80 0D 80 0E        2.........
01E0: 80 1F 01 00                                       ....            
```

#### Opcodes

```
  0: 0x01D6 [0x32] ExtData[1]->MainSpeed = 13* * 0.1
  1: 0x01D9 [0x1F] MOVE_ENTITY: EventEntity moves to X=359.076*, Z=34.348*, Y=-16.000*
  2: 0x01E1 [0x1F] MOVE_ENTITY: Update entity position (mode=1)
  3: 0x01E3 [0x00] END_REQSTACK()
```

### Event 34

#### Metadata

| Field        | Value    |
|--------------|----------|
| Entrypoint   | 0x01E4   |
| Data Size    | 13 bytes |
| Instructions | 7        |

```
      00 01 02 03 04 05 06 07  08 09 0A 0B 0C 0D 0E 0F
      -- -- -- -- -- -- -- --  -- -- -- -- -- -- -- --
01E0:             1E F0 FF FF  7F 6F 70 1D 0F 80 23 21      .....op...#!
01F0: 00                                                .               
```

#### Opcodes

```
  0: 0x01E4 [0x1E] EventEntity looks at LocalPlayer and starts talking
  1: 0x01E9 [0x6F] WAIT_FRAME_DELAY: Yield until WaitTime reaches zero
  2: 0x01EA [0x70] WAIT_ENTITY_RENDER_FLAG: Wait while EventEntity->Render.Flags3 bit 2 is set (cancel turn if not)
  3: 0x01EB [0x1D] PRINT_EVENT_MESSAGE(message_id=7885*)
    → "This pioneering stuff is tough on the back. What I wouldn't give to be home in Adoulin with my family!"
  4: 0x01EE [0x23] WAIT_FOR_DIALOG_INTERACTION
  5: 0x01EF [0x21] END_EVENT
  6: 0x01F0 [0x00] END_REQSTACK()
```

### Event 25

#### Metadata

| Field        | Value    |
|--------------|----------|
| Entrypoint   | 0x01F1   |
| Data Size    | 41 bytes |
| Instructions | 13       |

```
      00 01 02 03 04 05 06 07  08 09 0A 0B 0C 0D 0E 0F
      -- -- -- -- -- -- -- --  -- -- -- -- -- -- -- --
01F0:    1E F0 FF FF 7F 6F 70  66 01 80 F8 FF FF 7F F8   .....opf.......
0200: FF FF 7F 74 6C 6B 30 1D  10 80 23 03 03 10 11 80  ...tlk0...#.....
0210: 1D 12 80 23 1D 13 80 23  21 00                    ...#...#!.      
```

#### Opcodes

```
  0: 0x01F1 [0x1E] EventEntity looks at LocalPlayer and starts talking
  1: 0x01F6 [0x6F] WAIT_FRAME_DELAY: Yield until WaitTime reaches zero
  2: 0x01F7 [0x70] WAIT_ENTITY_RENDER_FLAG: Wait while EventEntity->Render.Flags3 bit 2 is set (cancel turn if not)
  3: 0x01F8 [0x66] LOAD_EXT_SCHEDULER_MAIN: Load scheduler "tlk0" with entities [EventEntity, EventEntity], work=209*
  4: 0x0207 [0x1D] PRINT_EVENT_MESSAGE(message_id=7905*)
    → "Yes, I overheard what Hostenn was telling you. "Head to the open area in the northeast where you reach a dead end.""
  5: 0x020A [0x23] WAIT_FOR_DIALOG_INTERACTION
  6: 0x020B [0x03] Work_Zone[3] = 2373*
  7: 0x0210 [0x1D] PRINT_EVENT_MESSAGE(message_id=7906*)
    → "Something about placing the $3 near the ergon locus and summoning an elemental."
  8: 0x0213 [0x23] WAIT_FOR_DIALOG_INTERACTION
  9: 0x0214 [0x1D] PRINT_EVENT_MESSAGE(message_id=7907*)
    → "His challenge was for you to defeat it within ten minutes (Earth time), right? Should be simple enough. If you fail, come see me and we'll start the process over."
 10: 0x0217 [0x23] WAIT_FOR_DIALOG_INTERACTION
 11: 0x0218 [0x21] END_EVENT
 12: 0x0219 [0x00] END_REQSTACK()
```

### Event 35

#### Metadata

| Field        | Value     |
|--------------|-----------|
| Entrypoint   | 0x021A    |
| Data Size    | 222 bytes |
| Instructions | 50        |

```
      00 01 02 03 04 05 06 07  08 09 0A 0B 0C 0D 0E 0F
      -- -- -- -- -- -- -- --  -- -- -- -- -- -- -- --
0210:                                1E F0 FF FF 7F 6F            .....o
0220: 70 03 00 00 02 10 03 01  00 03 10 03 03 10 11 80  p...............
0230: 66 01 80 F8 FF FF 7F F8  FF FF 7F 74 6C 6B 30 1D  f..........tlk0.
0240: 14 80 23 03 05 10 15 80  1D 16 80 23 1D 17 80 23  ..#........#...#
0250: 24 18 80 19 80 19 80 25  02 00 10 19 80 00 95 02  $......%........
0260: 03 04 10 19 80 03 03 10  00 00 24 1A 80 1B 80 19  ..........$.....
0270: 80 25 02 00 10 19 80 00  82 02 03 01 10 1B 80 01  .%..............
0280: 92 02 02 00 10 1B 80 00  92 02 03 01 10 19 80 01  ................
0290: 92 02 01 F6 02 02 00 10  1B 80 00 D2 02 03 04 10  ................
02A0: 1B 80 03 03 10 01 00 24  1C 80 1B 80 19 80 25 02  .......$......%.
02B0: 00 10 19 80 00 BF 02 03  01 10 1D 80 01 CF 02 02  ................
02C0: 00 10 1B 80 00 CF 02 03  01 10 19 80 01 CF 02 01  ................
02D0: F6 02 02 00 10 1D 80 00  E6 02 1D 1E 80 23 03 01  .............#..
02E0: 10 19 80 01 F6 02 02 00  10 1F 80 00 F6 02 03 01  ................
02F0: 10 19 80 01 F6 02 21 00                           ......!.        
```

#### Opcodes

```
  0: 0x021A [0x1E] EventEntity looks at LocalPlayer and starts talking
  1: 0x021F [0x6F] WAIT_FRAME_DELAY: Yield until WaitTime reaches zero
  2: 0x0220 [0x70] WAIT_ENTITY_RENDER_FLAG: Wait while EventEntity->Render.Flags3 bit 2 is set (cancel turn if not)
  3: 0x0221 [0x03] ExtData[1]->WorkLocal[0] = Work_Zone[2]
  4: 0x0226 [0x03] ExtData[1]->WorkLocal[1] = Work_Zone[3]
  5: 0x022B [0x03] Work_Zone[3] = 2373*
  6: 0x0230 [0x66] LOAD_EXT_SCHEDULER_MAIN: Load scheduler "tlk0" with entities [EventEntity, EventEntity], work=209*
  7: 0x023F [0x1D] PRINT_EVENT_MESSAGE(message_id=7911*)
    → "You need another $3? I suppose I might have one lying around, but it'll take me some time to find one..."
  8: 0x0242 [0x23] WAIT_FOR_DIALOG_INTERACTION
  9: 0x0243 [0x03] Work_Zone[5] = 1126*
 10: 0x0248 [0x1D] PRINT_EVENT_MESSAGE(message_id=7912*)
    → "Though if you really want to pass Hostenn's test, I can be persuaded to search extra hard for gil, bayld, or $3."
 11: 0x024B [0x23] WAIT_FOR_DIALOG_INTERACTION
 12: 0x024C [0x1D] PRINT_EVENT_MESSAGE(message_id=7913*)
    → "Of course, if you'd rather wait, I'll be able to come across one eventually. What do you say?"
 13: 0x024F [0x23] WAIT_FOR_DIALOG_INTERACTION
 14: 0x0250 [0x24] CREATE_DIALOG(message_id=7914*, default_option=0*, option_flags=0*)
    → "Purchase another one? [Purchase for 50000 gil./Purchase for 5000 bayld./Purchase for ten beastmen's seals./No purchasing for me.]"
 15: 0x0257 [0x25] WAIT_DIALOG_SELECT()
 16: 0x0258 [0x02] IF !(Work_Zone[0] == 0*) GOTO 0x0295
 17: 0x0260 [0x03] Work_Zone[4] = 0*
 18: 0x0265 [0x03] Work_Zone[3] = ExtData[1]->WorkLocal[0]
 19: 0x026A [0x24] CREATE_DIALOG(message_id=7915*, default_option=1*, option_flags=0*)
    → "Purchase the item for [50,000 gil/5000 bayld]? (Gil: $1). [Yes./No.]"
 20: 0x0271 [0x25] WAIT_DIALOG_SELECT()
 21: 0x0272 [0x02] IF !(Work_Zone[0] == 0*) GOTO 0x0282
 22: 0x027A [0x03] Work_Zone[1] = 1*
 23: 0x027F [0x01] GOTO 0x0292
 24: 0x0282 [0x02] IF !(Work_Zone[0] == 1*) GOTO 0x0292
 25: 0x028A [0x03] Work_Zone[1] = 0*
 26: 0x028F [0x01] GOTO 0x0292

SUBROUTINE_0292:
 27: 0x0292 [0x01] GOTO 0x02F6
 28: 0x0295 [0x02] IF !(Work_Zone[0] == 1*) GOTO 0x02D2
 29: 0x029D [0x03] Work_Zone[4] = 1*
 30: 0x02A2 [0x03] Work_Zone[3] = ExtData[1]->WorkLocal[1]
 31: 0x02A7 [0x24] CREATE_DIALOG(message_id=7916*, default_option=1*, option_flags=0*)
    → "Purchase the item for [50,000 gil/5000 bayld]? (Bayld: $1). [Yes./No.]"
 32: 0x02AE [0x25] WAIT_DIALOG_SELECT()
 33: 0x02AF [0x02] IF !(Work_Zone[0] == 0*) GOTO 0x02BF
 34: 0x02B7 [0x03] Work_Zone[1] = 2*
 35: 0x02BC [0x01] GOTO 0x02CF
 36: 0x02BF [0x02] IF !(Work_Zone[0] == 1*) GOTO 0x02CF
 37: 0x02C7 [0x03] Work_Zone[1] = 0*
 38: 0x02CC [0x01] GOTO 0x02CF

SUBROUTINE_02CF:
 39: 0x02CF [0x01] GOTO 0x02F6
 40: 0x02D2 [0x02] IF !(Work_Zone[0] == 2*) GOTO 0x02E6
 41: 0x02DA [0x1D] PRINT_EVENT_MESSAGE(message_id=7918*)
    → "Trade me ten beastmen's seals if you really want the item."
 42: 0x02DD [0x23] WAIT_FOR_DIALOG_INTERACTION
 43: 0x02DE [0x03] Work_Zone[1] = 0*
 44: 0x02E3 [0x01] GOTO 0x02F6
 45: 0x02E6 [0x02] IF !(Work_Zone[0] == 3*) GOTO 0x02F6
 46: 0x02EE [0x03] Work_Zone[1] = 0*
 47: 0x02F3 [0x01] GOTO 0x02F6

SUBROUTINE_02F6:
 48: 0x02F6 [0x21] END_EVENT
 49: 0x02F7 [0x00] END_REQSTACK()
```

### Event 37

#### Metadata

| Field        | Value    |
|--------------|----------|
| Entrypoint   | 0x02F8   |
| Data Size    | 33 bytes |
| Instructions | 11       |

```
      00 01 02 03 04 05 06 07  08 09 0A 0B 0C 0D 0E 0F
      -- -- -- -- -- -- -- --  -- -- -- -- -- -- -- --
02F0:                          42 1E F0 FF FF 7F 6F 70          B.....op
0300: 03 03 10 11 80 29 08 03  93 10 01 06 1D 20 80 23  .....)....... .#
0310: 29 08 03 93 10 01 07 21  00                       )......!.       
```

#### Opcodes

```
  0: 0x02F8 [0x42] SET_CLI_EVENT_CANCEL_DATA()
  1: 0x02F9 [0x1E] EventEntity looks at LocalPlayer and starts talking
  2: 0x02FE [0x6F] WAIT_FRAME_DELAY: Yield until WaitTime reaches zero
  3: 0x02FF [0x70] WAIT_ENTITY_RENDER_FLAG: Wait while EventEntity->Render.Flags3 bit 2 is set (cancel turn if not)
  4: 0x0300 [0x03] Work_Zone[3] = 2373*
  5: 0x0305 [0x29] REQ_SET_WAIT(priority=0x08, entity_id=Dabnorrin (ID: 17863427/0x01109303), tag_num=0x06)
  6: 0x030C [0x1D] PRINT_EVENT_MESSAGE(message_id=7919*)
    → "Well, well, so you're here for another $3. Don't screw it up this time, okay?"
  7: 0x030F [0x23] WAIT_FOR_DIALOG_INTERACTION
  8: 0x0310 [0x29] REQ_SET_WAIT(priority=0x08, entity_id=Dabnorrin (ID: 17863427/0x01109303), tag_num=0x07)
  9: 0x0317 [0x21] END_EVENT
 10: 0x0318 [0x00] END_REQSTACK()
```

### Event 39

#### Metadata

| Field        | Value    |
|--------------|----------|
| Entrypoint   | 0x0319   |
| Data Size    | 28 bytes |
| Instructions | 8        |

```
      00 01 02 03 04 05 06 07  08 09 0A 0B 0C 0D 0E 0F
      -- -- -- -- -- -- -- --  -- -- -- -- -- -- -- --
0310:                             1E F0 FF FF 7F 6F 70           .....op
0320: 66 01 80 F8 FF FF 7F F8  FF FF 7F 74 6C 6B 30 1D  f..........tlk0.
0330: 21 80 23 21 00                                    !.#!.           
```

#### Opcodes

```
  0: 0x0319 [0x1E] EventEntity looks at LocalPlayer and starts talking
  1: 0x031E [0x6F] WAIT_FRAME_DELAY: Yield until WaitTime reaches zero
  2: 0x031F [0x70] WAIT_ENTITY_RENDER_FLAG: Wait while EventEntity->Render.Flags3 bit 2 is set (cancel turn if not)
  3: 0x0320 [0x66] LOAD_EXT_SCHEDULER_MAIN: Load scheduler "tlk0" with entities [EventEntity, EventEntity], work=209*
  4: 0x032F [0x1D] PRINT_EVENT_MESSAGE(message_id=7936*)
    → "Hostenn gave you one hell of a test, and you managed to clear it. Not bad. Not bad at all."
  5: 0x0332 [0x23] WAIT_FOR_DIALOG_INTERACTION
  6: 0x0333 [0x21] END_EVENT
  7: 0x0334 [0x00] END_REQSTACK()
```

### Event 27

#### Metadata

| Field        | Value    |
|--------------|----------|
| Entrypoint   | 0x0335   |
| Data Size    | 95 bytes |
| Instructions | 23       |

```
      00 01 02 03 04 05 06 07  08 09 0A 0B 0C 0D 0E 0F
      -- -- -- -- -- -- -- --  -- -- -- -- -- -- -- --
0330:                1E F0 FF  FF 7F 6F 70 03 03 10 11       .....op....
0340: 80 66 01 80 F8 FF FF 7F  F8 FF FF 7F 74 6C 6B 30  .f..........tlk0
0350: 1D 21 80 23 1D 22 80 23  24 23 80 19 80 19 80 25  .!.#.".#$#.....%
0360: 02 00 10 19 80 00 82 03  03 01 10 1D 80 29 08 03  .............)..
0370: 93 10 01 06 1D 24 80 23  29 08 03 93 10 01 07 01  .....$.#).......
0380: 92 03 02 00 10 1B 80 00  92 03 03 01 10 1B 80 01  ................
0390: 92 03 21 00                                       ..!.            
```

#### Opcodes

```
  0: 0x0335 [0x1E] EventEntity looks at LocalPlayer and starts talking
  1: 0x033A [0x6F] WAIT_FRAME_DELAY: Yield until WaitTime reaches zero
  2: 0x033B [0x70] WAIT_ENTITY_RENDER_FLAG: Wait while EventEntity->Render.Flags3 bit 2 is set (cancel turn if not)
  3: 0x033C [0x03] Work_Zone[3] = 2373*
  4: 0x0341 [0x66] LOAD_EXT_SCHEDULER_MAIN: Load scheduler "tlk0" with entities [EventEntity, EventEntity], work=209*
  5: 0x0350 [0x1D] PRINT_EVENT_MESSAGE(message_id=7936*)
    → "Hostenn gave you one hell of a test, and you managed to clear it. Not bad. Not bad at all."
  6: 0x0353 [0x23] WAIT_FOR_DIALOG_INTERACTION
  7: 0x0354 [0x1D] PRINT_EVENT_MESSAGE(message_id=7937*)
    → "If you want to give that elemental another go, just say the word and I'll give you another $3."
  8: 0x0357 [0x23] WAIT_FOR_DIALOG_INTERACTION
  9: 0x0358 [0x24] CREATE_DIALOG(message_id=7938*, default_option=0*, option_flags=0*)
    → "Do you want another $3? [Sure!/No thanks.]"
 10: 0x035F [0x25] WAIT_DIALOG_SELECT()
 11: 0x0360 [0x02] IF !(Work_Zone[0] == 0*) GOTO 0x0382
 12: 0x0368 [0x03] Work_Zone[1] = 2*
 13: 0x036D [0x29] REQ_SET_WAIT(priority=0x08, entity_id=Dabnorrin (ID: 17863427/0x01109303), tag_num=0x06)
 14: 0x0374 [0x1D] PRINT_EVENT_MESSAGE(message_id=7939*)
    → "You know how this works. Head to the northeast until you can't go any farther and place it down to lure in the creature. You've got ten minutes (Earth time) to succeed."
 15: 0x0377 [0x23] WAIT_FOR_DIALOG_INTERACTION
 16: 0x0378 [0x29] REQ_SET_WAIT(priority=0x08, entity_id=Dabnorrin (ID: 17863427/0x01109303), tag_num=0x07)
 17: 0x037F [0x01] GOTO 0x0392
 18: 0x0382 [0x02] IF !(Work_Zone[0] == 1*) GOTO 0x0392
 19: 0x038A [0x03] Work_Zone[1] = 1*
 20: 0x038F [0x01] GOTO 0x0392

SUBROUTINE_0392:
 21: 0x0392 [0x21] END_EVENT
 22: 0x0393 [0x00] END_REQSTACK()
```

### Event 36

#### Metadata

| Field        | Value    |
|--------------|----------|
| Entrypoint   | 0x0394   |
| Data Size    | 32 bytes |
| Instructions | 10       |

```
      00 01 02 03 04 05 06 07  08 09 0A 0B 0C 0D 0E 0F
      -- -- -- -- -- -- -- --  -- -- -- -- -- -- -- --
0390:             1E F0 FF FF  7F 6F 70 66 01 80 F8 FF      .....opf....
03A0: FF 7F F8 FF FF 7F 74 6C  6B 30 1D 21 80 23 1D 24  ......tlk0.!.#.$
03B0: 80 23 21 00                                       .#!.            
```

#### Opcodes

```
  0: 0x0394 [0x1E] EventEntity looks at LocalPlayer and starts talking
  1: 0x0399 [0x6F] WAIT_FRAME_DELAY: Yield until WaitTime reaches zero
  2: 0x039A [0x70] WAIT_ENTITY_RENDER_FLAG: Wait while EventEntity->Render.Flags3 bit 2 is set (cancel turn if not)
  3: 0x039B [0x66] LOAD_EXT_SCHEDULER_MAIN: Load scheduler "tlk0" with entities [EventEntity, EventEntity], work=209*
  4: 0x03AA [0x1D] PRINT_EVENT_MESSAGE(message_id=7936*)
    → "Hostenn gave you one hell of a test, and you managed to clear it. Not bad. Not bad at all."
  5: 0x03AD [0x23] WAIT_FOR_DIALOG_INTERACTION
  6: 0x03AE [0x1D] PRINT_EVENT_MESSAGE(message_id=7939*)
    → "You know how this works. Head to the northeast until you can't go any farther and place it down to lure in the creature. You've got ten minutes (Earth time) to succeed."
  7: 0x03B1 [0x23] WAIT_FOR_DIALOG_INTERACTION
  8: 0x03B2 [0x21] END_EVENT
  9: 0x03B3 [0x00] END_REQSTACK()
```

### Event 38

#### Metadata

| Field        | Value     |
|--------------|-----------|
| Entrypoint   | 0x03B4    |
| Data Size    | 266 bytes |
| Instructions | 60        |

```
      00 01 02 03 04 05 06 07  08 09 0A 0B 0C 0D 0E 0F
      -- -- -- -- -- -- -- --  -- -- -- -- -- -- -- --
03B0:             1E F0 FF FF  7F 6F 70 03 00 00 02 10      .....op.....
03C0: 03 01 00 03 10 03 05 10  15 80 03 03 10 11 80 66  ...............f
03D0: 01 80 F8 FF FF 7F F8 FF  FF 7F 74 6C 6B 30 1D 21  ..........tlk0.!
03E0: 80 23 1D 22 80 23 03 03  10 11 80 24 23 80 19 80  .#.".#.....$#...
03F0: 19 80 25 02 00 10 19 80  00 AC 04 1D 16 80 23 1D  ..%...........#.
0400: 17 80 23 24 18 80 19 80  19 80 25 02 00 10 19 80  ..#$......%.....
0410: 00 48 04 03 04 10 19 80  03 03 10 00 00 24 1A 80  .H...........$..
0420: 1B 80 19 80 25 02 00 10  19 80 00 35 04 03 01 10  ....%......5....
0430: 1B 80 01 45 04 02 00 10  1B 80 00 45 04 03 01 10  ...E.......E....
0440: 19 80 01 45 04 01 A9 04  02 00 10 1B 80 00 85 04  ...E............
0450: 03 04 10 1B 80 03 03 10  01 00 24 1C 80 1B 80 19  ..........$.....
0460: 80 25 02 00 10 19 80 00  72 04 03 01 10 1D 80 01  .%......r.......
0470: 82 04 02 00 10 1B 80 00  82 04 03 01 10 19 80 01  ................
0480: 82 04 01 A9 04 02 00 10  1D 80 00 99 04 1D 1E 80  ................
0490: 23 03 01 10 19 80 01 A9  04 02 00 10 1F 80 00 A9  #...............
04A0: 04 03 01 10 19 80 01 A9  04 01 BC 04 02 00 10 1B  ................
04B0: 80 00 BC 04 03 01 10 19  80 01 BC 04 21 00        ............!.  
```

#### Opcodes

```
  0: 0x03B4 [0x1E] EventEntity looks at LocalPlayer and starts talking
  1: 0x03B9 [0x6F] WAIT_FRAME_DELAY: Yield until WaitTime reaches zero
  2: 0x03BA [0x70] WAIT_ENTITY_RENDER_FLAG: Wait while EventEntity->Render.Flags3 bit 2 is set (cancel turn if not)
  3: 0x03BB [0x03] ExtData[1]->WorkLocal[0] = Work_Zone[2]
  4: 0x03C0 [0x03] ExtData[1]->WorkLocal[1] = Work_Zone[3]
  5: 0x03C5 [0x03] Work_Zone[5] = 1126*
  6: 0x03CA [0x03] Work_Zone[3] = 2373*
  7: 0x03CF [0x66] LOAD_EXT_SCHEDULER_MAIN: Load scheduler "tlk0" with entities [EventEntity, EventEntity], work=209*
  8: 0x03DE [0x1D] PRINT_EVENT_MESSAGE(message_id=7936*)
    → "Hostenn gave you one hell of a test, and you managed to clear it. Not bad. Not bad at all."
  9: 0x03E1 [0x23] WAIT_FOR_DIALOG_INTERACTION
 10: 0x03E2 [0x1D] PRINT_EVENT_MESSAGE(message_id=7937*)
    → "If you want to give that elemental another go, just say the word and I'll give you another $3."
 11: 0x03E5 [0x23] WAIT_FOR_DIALOG_INTERACTION
 12: 0x03E6 [0x03] Work_Zone[3] = 2373*
 13: 0x03EB [0x24] CREATE_DIALOG(message_id=7938*, default_option=0*, option_flags=0*)
    → "Do you want another $3? [Sure!/No thanks.]"
 14: 0x03F2 [0x25] WAIT_DIALOG_SELECT()
 15: 0x03F3 [0x02] IF !(Work_Zone[0] == 0*) GOTO 0x04AC
 16: 0x03FB [0x1D] PRINT_EVENT_MESSAGE(message_id=7912*)
    → "Though if you really want to pass Hostenn's test, I can be persuaded to search extra hard for gil, bayld, or $3."
 17: 0x03FE [0x23] WAIT_FOR_DIALOG_INTERACTION
 18: 0x03FF [0x1D] PRINT_EVENT_MESSAGE(message_id=7913*)
    → "Of course, if you'd rather wait, I'll be able to come across one eventually. What do you say?"
 19: 0x0402 [0x23] WAIT_FOR_DIALOG_INTERACTION
 20: 0x0403 [0x24] CREATE_DIALOG(message_id=7914*, default_option=0*, option_flags=0*)
    → "Purchase another one? [Purchase for 50000 gil./Purchase for 5000 bayld./Purchase for ten beastmen's seals./No purchasing for me.]"
 21: 0x040A [0x25] WAIT_DIALOG_SELECT()
 22: 0x040B [0x02] IF !(Work_Zone[0] == 0*) GOTO 0x0448
 23: 0x0413 [0x03] Work_Zone[4] = 0*
 24: 0x0418 [0x03] Work_Zone[3] = ExtData[1]->WorkLocal[0]
 25: 0x041D [0x24] CREATE_DIALOG(message_id=7915*, default_option=1*, option_flags=0*)
    → "Purchase the item for [50,000 gil/5000 bayld]? (Gil: $1). [Yes./No.]"
 26: 0x0424 [0x25] WAIT_DIALOG_SELECT()
 27: 0x0425 [0x02] IF !(Work_Zone[0] == 0*) GOTO 0x0435
 28: 0x042D [0x03] Work_Zone[1] = 1*
 29: 0x0432 [0x01] GOTO 0x0445
 30: 0x0435 [0x02] IF !(Work_Zone[0] == 1*) GOTO 0x0445
 31: 0x043D [0x03] Work_Zone[1] = 0*
 32: 0x0442 [0x01] GOTO 0x0445

SUBROUTINE_0445:
 33: 0x0445 [0x01] GOTO 0x04A9
 34: 0x0448 [0x02] IF !(Work_Zone[0] == 1*) GOTO 0x0485
 35: 0x0450 [0x03] Work_Zone[4] = 1*
 36: 0x0455 [0x03] Work_Zone[3] = ExtData[1]->WorkLocal[1]
 37: 0x045A [0x24] CREATE_DIALOG(message_id=7916*, default_option=1*, option_flags=0*)
    → "Purchase the item for [50,000 gil/5000 bayld]? (Bayld: $1). [Yes./No.]"
 38: 0x0461 [0x25] WAIT_DIALOG_SELECT()
 39: 0x0462 [0x02] IF !(Work_Zone[0] == 0*) GOTO 0x0472
 40: 0x046A [0x03] Work_Zone[1] = 2*
 41: 0x046F [0x01] GOTO 0x0482
 42: 0x0472 [0x02] IF !(Work_Zone[0] == 1*) GOTO 0x0482
 43: 0x047A [0x03] Work_Zone[1] = 0*
 44: 0x047F [0x01] GOTO 0x0482

SUBROUTINE_0482:
 45: 0x0482 [0x01] GOTO 0x04A9
 46: 0x0485 [0x02] IF !(Work_Zone[0] == 2*) GOTO 0x0499
 47: 0x048D [0x1D] PRINT_EVENT_MESSAGE(message_id=7918*)
    → "Trade me ten beastmen's seals if you really want the item."
 48: 0x0490 [0x23] WAIT_FOR_DIALOG_INTERACTION
 49: 0x0491 [0x03] Work_Zone[1] = 0*
 50: 0x0496 [0x01] GOTO 0x04A9
 51: 0x0499 [0x02] IF !(Work_Zone[0] == 3*) GOTO 0x04A9
 52: 0x04A1 [0x03] Work_Zone[1] = 0*
 53: 0x04A6 [0x01] GOTO 0x04A9

SUBROUTINE_04A9:
 54: 0x04A9 [0x01] GOTO 0x04BC
 55: 0x04AC [0x02] IF !(Work_Zone[0] == 1*) GOTO 0x04BC
 56: 0x04B4 [0x03] Work_Zone[1] = 0*
 57: 0x04B9 [0x01] GOTO 0x04BC

SUBROUTINE_04BC:
 58: 0x04BC [0x21] END_EVENT
 59: 0x04BD [0x00] END_REQSTACK()
```
