# 17863435

## Common Data

| Field            | Value                           |
|------------------|---------------------------------|
| Zone             | Morimar Basalt Fields (ID: 265) |
| Block Size       | 260 bytes                       |
| Total Events     | 9                               |
| References Count | 18                              |

## List of Events

| Event ID                 | Entrypoint   |   Size |   Instructions |
|--------------------------|--------------|--------|----------------|
| [65535](#event-65535)    | 0x0000       |      1 |              1 |
| [2588](#event-2588)      | 0x0001       |      1 |              1 |
| [65535.1](#event-655351) | 0x0002       |     18 |              4 |
| [65535.2](#event-655352) | 0x0014       |     38 |              5 |
| [65535.3](#event-655353) | 0x003A       |     13 |              3 |
| [65535.4](#event-655354) | 0x0047       |     14 |              4 |
| [65535.5](#event-655355) | 0x0055       |      4 |              2 |
| [65535.6](#event-655356) | 0x0059       |     23 |              5 |
| [65535.7](#event-655357) | 0x0070       |     21 |              2 |

## DAT References (imed_data)

|   Index | Hex Value   |   Dec Value |
|---------|-------------|-------------|
|       0 | 0x0000      |           0 |
|       1 | 0x0001      |           1 |
|       2 | 0x0003      |           3 |
|       3 | 0x00E1      |         225 |
|       4 | 0x0078      |         120 |
|       5 | 0x0080      |         128 |
|       6 | 0x00C8      |         200 |
|       7 | 0x000D      |          13 |
|       8 | 0xFFFF4464  |  4294919268 |
|       9 | 0x2AECC     |      175820 |
|      10 | 0x05BC      |        1468 |
|      11 | 0x012C      |         300 |
|      12 | 0x0028      |          40 |
|      13 | 0xFFFF4D7A  |  4294921594 |
|      14 | 0x2C40E     |      181262 |
|      15 | 0x00B7      |         183 |
|      16 | 0x0007      |           7 |
|      17 | 0x0006      |           6 |

## Events

### Event 65535

#### Metadata

| Field        | Value   |
|--------------|---------|
| Entrypoint   | 0x0000  |
| Data Size    | 1 bytes |
| Instructions | 1       |

```
      00 01 02 03 04 05 06 07  08 09 0A 0B 0C 0D 0E 0F
      -- -- -- -- -- -- -- --  -- -- -- -- -- -- -- --
0000: 00                                                .               
```

#### Opcodes

```
  0: 0x0000 [0x00] END_REQSTACK()
```

### Event 2588

#### Metadata

| Field        | Value   |
|--------------|---------|
| Entrypoint   | 0x0001  |
| Data Size    | 1 bytes |
| Instructions | 1       |

```
      00 01 02 03 04 05 06 07  08 09 0A 0B 0C 0D 0E 0F
      -- -- -- -- -- -- -- --  -- -- -- -- -- -- -- --
0000:    00                                              .              
```

#### Opcodes

```
  0: 0x0001 [0x00] END_REQSTACK()
```

### Event 65535.1

#### Metadata

| Field        | Value    |
|--------------|----------|
| Entrypoint   | 0x0002   |
| Data Size    | 18 bytes |
| Instructions | 4        |

```
      00 01 02 03 04 05 06 07  08 09 0A 0B 0C 0D 0E 0F
      -- -- -- -- -- -- -- --  -- -- -- -- -- -- -- --
0000:       2F 00 F8 FF FF 7F  22 00 6C F8 FF FF 7F 00    /.....".l.....
0010: 80 01 80 00                                       ....            
```

#### Opcodes

```
  0: 0x0002 [0x2F] EventEntity->Render.Flags0 &= ~0x80000 // Bit 19
  1: 0x0008 [0x22] ENTITY_HIDE_FLAG(enabled=0x00)
  2: 0x000A [0x6C] FADE_ENTITY_COLOR(entity_id=EventEntity, end_alpha=0*, fade_time=1*)
  3: 0x0013 [0x00] END_REQSTACK()
```

### Event 65535.2

#### Metadata

| Field        | Value    |
|--------------|----------|
| Entrypoint   | 0x0014   |
| Data Size    | 38 bytes |
| Instructions | 5        |

```
      00 01 02 03 04 05 06 07  08 09 0A 0B 0C 0D 0E 0F
      -- -- -- -- -- -- -- --  -- -- -- -- -- -- -- --
0010:             2F 00 F8 FF  FF 7F B6 0B 02 80 00 80      /...........
0020: 00 80 03 80 03 80 03 80  03 80 00 80 00 80 22 00  ..............".
0030: 6C F8 FF FF 7F 00 80 01  80 00                    l.........      
```

#### Opcodes

```
  0: 0x0014 [0x2F] EventEntity->Render.Flags0 &= ~0x80000 // Bit 19
  1: 0x001A [0xB6] ENTITY_APPEARANCE_HANDLER(case=Full entity look, race=3*, hair=0*, head=0*, body=225*, hands=225*, legs=225*, feet=225*, main=0*, sub=0*)
  2: 0x002E [0x22] ENTITY_HIDE_FLAG(enabled=0x00)
  3: 0x0030 [0x6C] FADE_ENTITY_COLOR(entity_id=EventEntity, end_alpha=0*, fade_time=1*)
  4: 0x0039 [0x00] END_REQSTACK()
```

### Event 65535.3

#### Metadata

| Field        | Value    |
|--------------|----------|
| Entrypoint   | 0x003A   |
| Data Size    | 13 bytes |
| Instructions | 3        |

```
      00 01 02 03 04 05 06 07  08 09 0A 0B 0C 0D 0E 0F
      -- -- -- -- -- -- -- --  -- -- -- -- -- -- -- --
0030:                                1C 04 80 6C F8 FF            ...l..
0040: FF 7F 05 80 06 80 00                              .......         
```

#### Opcodes

```
  0: 0x003A [0x1C] WAIT(120* ticks)
  1: 0x003D [0x6C] FADE_ENTITY_COLOR(entity_id=EventEntity, end_alpha=128*, fade_time=200*)
  2: 0x0046 [0x00] END_REQSTACK()
```

### Event 65535.4

#### Metadata

| Field        | Value    |
|--------------|----------|
| Entrypoint   | 0x0047   |
| Data Size    | 14 bytes |
| Instructions | 4        |

```
      00 01 02 03 04 05 06 07  08 09 0A 0B 0C 0D 0E 0F
      -- -- -- -- -- -- -- --  -- -- -- -- -- -- -- --
0040:                      32  07 80 1F 00 08 80 09 80         2........
0050: 0A 80 1F 01 00                                    .....           
```

#### Opcodes

```
  0: 0x0047 [0x32] ExtData[1]->MainSpeed = 13* * 0.1
  1: 0x004A [0x1F] MOVE_ENTITY: EventEntity moves to X=-48.028*, Z=175.820*, Y=1.468*
  2: 0x0052 [0x1F] MOVE_ENTITY: Update entity position (mode=1)
  3: 0x0054 [0x00] END_REQSTACK()
```

### Event 65535.5

#### Metadata

| Field        | Value   |
|--------------|---------|
| Entrypoint   | 0x0055  |
| Data Size    | 4 bytes |
| Instructions | 2       |

```
      00 01 02 03 04 05 06 07  08 09 0A 0B 0C 0D 0E 0F
      -- -- -- -- -- -- -- --  -- -- -- -- -- -- -- --
0050:                1C 0B 80  00                            ....       
```

#### Opcodes

```
  0: 0x0055 [0x1C] WAIT(300* ticks)
  1: 0x0058 [0x00] END_REQSTACK()
```

### Event 65535.6

#### Metadata

| Field        | Value    |
|--------------|----------|
| Entrypoint   | 0x0059   |
| Data Size    | 23 bytes |
| Instructions | 5        |

```
      00 01 02 03 04 05 06 07  08 09 0A 0B 0C 0D 0E 0F
      -- -- -- -- -- -- -- --  -- -- -- -- -- -- -- --
0050:                             32 0C 80 1F 00 0D 80           2......
0060: 0E 80 0F 80 1F 01 6C F8  FF FF 7F 00 80 01 80 00  ......l.........
```

#### Opcodes

```
  0: 0x0059 [0x32] ExtData[1]->MainSpeed = 40* * 0.1
  1: 0x005C [0x1F] MOVE_ENTITY: EventEntity moves to X=-45.702*, Z=181.262*, Y=0.183*
  2: 0x0064 [0x1F] MOVE_ENTITY: Update entity position (mode=1)
  3: 0x0066 [0x6C] FADE_ENTITY_COLOR(entity_id=EventEntity, end_alpha=0*, fade_time=1*)
  4: 0x006F [0x00] END_REQSTACK()
```

### Event 65535.7

#### Metadata

| Field        | Value    |
|--------------|----------|
| Entrypoint   | 0x0070   |
| Data Size    | 21 bytes |
| Instructions | 2        |

```
      00 01 02 03 04 05 06 07  08 09 0A 0B 0C 0D 0E 0F
      -- -- -- -- -- -- -- --  -- -- -- -- -- -- -- --
0070: B6 0B 10 80 11 80 00 80  03 80 03 80 03 80 03 80  ................
0080: 00 80 00 80 00                                    .....           
```

#### Opcodes

```
  0: 0x0070 [0xB6] ENTITY_APPEARANCE_HANDLER(case=Full entity look, race=7*, hair=6*, head=0*, body=225*, hands=225*, legs=225*, feet=225*, main=0*, sub=0*)
  1: 0x0084 [0x00] END_REQSTACK()
```
