# 17863402 - Daunting Emanation

## Common Data

| Field            | Value                           |
|------------------|---------------------------------|
| Zone             | Morimar Basalt Fields (ID: 265) |
| Block Size       | 4344 bytes                      |
| Total Events     | 4                               |
| References Count | 119                             |

## List of Events

| Event ID              | Entrypoint   |   Size |   Instructions |
|-----------------------|--------------|--------|----------------|
| [65535](#event-65535) | 0x0000       |      1 |              1 |
| [21](#event-21)       | 0x0001       |   1406 |            151 |
| [58](#event-58)       | 0x057F       |    936 |            113 |
| [62](#event-62)       | 0x0927       |   1493 |            167 |

## DAT References (imed_data)

|   Index | Hex Value   |   Dec Value |
|---------|-------------|-------------|
|       0 | 0x0000      |           0 |
|       1 | 0x0078      |         120 |
|       2 | 0x0001      |           1 |
|       3 | 0x00FF      |         255 |
|       4 | 0x00C8      |         200 |
|       5 | 0x00C9      |         201 |
|       6 | 0x001B      |          27 |
|       7 | 0x79D9F     |      499103 |
|       8 | 0xFFFA0B4C  |  4294576972 |
|       9 | 0xFFFFC391  |  4294951825 |
|      10 | 0x0B24      |        2852 |
|      11 | 0x7988E     |      497806 |
|      12 | 0xFFFA173B  |  4294580027 |
|      13 | 0xFFFFC36A  |  4294951786 |
|      14 | 0x0319      |         793 |
|      15 | 0x001E      |          30 |
|      16 | 0x0039      |          57 |
|      17 | 0x022E      |         558 |
|      18 | 0x000F      |          15 |
|      19 | 0x0015      |          21 |
|      20 | 0x005A      |          90 |
|      21 | 0x0028      |          40 |
|      22 | 0x008C      |         140 |
|      23 | 0x0005      |           5 |
|      24 | 0x0002      |           2 |
|      25 | 0x0096      |         150 |
|      26 | 0x0003      |           3 |
|      27 | 0x00A0      |         160 |
|      28 | 0x0004      |           4 |
|      29 | 0x00AA      |         170 |
|      30 | 0x00B4      |         180 |
|      31 | 0x0006      |           6 |
|      32 | 0x0007      |           7 |
|      33 | 0x00BE      |         190 |
|      34 | 0x0008      |           8 |
|      35 | 0x79BB9     |      498617 |
|      36 | 0xFFF9F7B8  |  4294571960 |
|      37 | 0xFFFFC31F  |  4294951711 |
|      38 | 0x0BF8      |        3064 |
|      39 | 0x0072      |         114 |
|      40 | 0x003C      |          60 |
|      41 | 0x0013      |          19 |
|      42 | 0x6BCC4     |      441540 |
|      43 | 0xFFFAB897  |  4294621335 |
|      44 | 0xFFFFC3D8  |  4294951896 |
|      45 | 0x07E2      |        2018 |
|      46 | 0x6BDBE     |      441790 |
|      47 | 0xFFFAF4FC  |  4294636796 |
|      48 | 0xFFFFC2C3  |  4294951619 |
|      49 | 0x047F      |        1151 |
|      50 | 0x6B062     |      438370 |
|      51 | 0xFFFAFA2C  |  4294638124 |
|      52 | 0xFFFFC281  |  4294951553 |
|      53 | 0x6B7D6     |      440278 |
|      54 | 0xFFFAF960  |  4294637920 |
|      55 | 0xFFFFC28B  |  4294951563 |
|      56 | 0x025D      |         605 |
|      57 | 0x6BBB1     |      441265 |
|      58 | 0xFFFB0683  |  4294641283 |
|      59 | 0xFFFFC1E4  |  4294951396 |
|      60 | 0x06BB      |        1723 |
|      61 | 0x08FD      |        2301 |
|      62 | 0x0907      |        2311 |
|      63 | 0x0B51      |        2897 |
|      64 | 0x0272      |         626 |
|      65 | 0x1F87      |        8071 |
|      66 | 0x0050      |          80 |
|      67 | 0x1F88      |        8072 |
|      68 | 0x0045      |          69 |
|      69 | 0x1F89      |        8073 |
|      70 | 0x1F8A      |        8074 |
|      71 | 0x0019      |          25 |
|      72 | 0x1F8B      |        8075 |
|      73 | 0x1F8C      |        8076 |
|      74 | 0x1F8D      |        8077 |
|      75 | 0x001A      |          26 |
|      76 | 0x1F8E      |        8078 |
|      77 | 0x0016      |          22 |
|      78 | 0x1F8F      |        8079 |
|      79 | 0x0F57      |        3927 |
|      80 | 0x0292      |         658 |
|      81 | 0x1000      |        4096 |
|      82 | 0x1F90      |        8080 |
|      83 | 0x1F91      |        8081 |
|      84 | 0x1F92      |        8082 |
|      85 | 0x1F93      |        8083 |
|      86 | 0x6D4F8     |      447736 |
|      87 | 0xFFFAAAEB  |  4294617835 |
|      88 | 0xFFFFC1DD  |  4294951389 |
|      89 | 0x0822      |        2082 |
|      90 | 0x02EB      |         747 |
|      91 | 0x1F96      |        8086 |
|      92 | 0x1F97      |        8087 |
|      93 | 0x1F98      |        8088 |
|      94 | 0x0009      |           9 |
|      95 | 0x1F99      |        8089 |
|      96 | 0x1F9A      |        8090 |
|      97 | 0x1F9B      |        8091 |
|      98 | 0x1F9C      |        8092 |
|      99 | 0x1F9D      |        8093 |
|     100 | 0x1F9E      |        8094 |
|     101 | 0x1F9F      |        8095 |
|     102 | 0x1FA0      |        8096 |
|     103 | 0x1FA1      |        8097 |
|     104 | 0x1FA2      |        8098 |
|     105 | 0x1FA3      |        8099 |
|     106 | 0x1FA4      |        8100 |
|     107 | 0x1FA5      |        8101 |
|     108 | 0x1FA6      |        8102 |
|     109 | 0x1FA7      |        8103 |
|     110 | 0x1FA8      |        8104 |
|     111 | 0x1FA9      |        8105 |
|     112 | 0x1FAA      |        8106 |
|     113 | 0x1FAB      |        8107 |
|     114 | 0x1FAC      |        8108 |
|     115 | 0x1FAD      |        8109 |
|     116 | 0x1FAE      |        8110 |
|     117 | 0x0024      |          36 |
|     118 | 0x1FAF      |        8111 |

## Events

### Event 65535

#### Metadata

| Field        | Value   |
|--------------|---------|
| Entrypoint   | 0x0000  |
| Data Size    | 1 bytes |
| Instructions | 1       |

```
      00 01 02 03 04 05 06 07  08 09 0A 0B 0C 0D 0E 0F
      -- -- -- -- -- -- -- --  -- -- -- -- -- -- -- --
0000: 00                                                .               
```

#### Opcodes

```
  0: 0x0000 [0x00] END_REQSTACK()
```

### Event 21

#### Metadata

| Field        | Value      |
|--------------|------------|
| Entrypoint   | 0x0001     |
| Data Size    | 1406 bytes |
| Instructions | 151        |

```
      00 01 02 03 04 05 06 07  08 09 0A 0B 0C 0D 0E 0F
      -- -- -- -- -- -- -- --  -- -- -- -- -- -- -- --
0000:    42 5D 00 80 01 80 02  09 10 02 80 00 25 00 77   B]..........%.w
0010: 00 80 03 80 45 04 80 F0  FF FF 7F F0 FF FF 7F 66  ....E..........f
0020: 64 69 30 00 80 45 05 80  F0 FF FF 7F F0 FF FF 7F  di0..E..........
0030: 77 68 6F 31 00 80 55 05  80 F0 FF FF 7F F0 FF FF  who1..U.........
0040: 7F 77 68 6F 31 46 01 38  06 80 2F 00 EB 92 10 01  .who1F.8../.....
0050: 4E 00 EB 92 10 01 BA F0  FF FF 7F 07 80 08 80 09  N...............
0060: 80 0A 80 BA EB 92 10 01  0B 80 0C 80 0D 80 0E 80  ................
0070: 80 F0 FF FF 7F 80 EB 92  10 01 4A F0 FF FF 7F EB  ..........J.....
0080: 92 10 01 4A EB 92 10 01  F0 FF FF 7F 1C 0F 80 5C  ...J...........\
0090: 00 10 80 5C 01 10 80 9A  45 11 80 F0 FF FF 7F F0  ...\....E.......
00A0: FF FF 7F 73 30 30 37 00  80 1C 12 80 45 05 80 F0  ...s007.....E...
00B0: FF FF 7F F0 FF FF 7F 77  68 69 31 00 80 1C 0F 80  .......whi1.....
00C0: 6E F0 FF FF 7F 13 80 99  F0 FF FF 7F 1C 14 80 C4  n...............
00D0: 01 00 80 EB 92 10 01 F0  FF FF 7F 52 11 80 F0 FF  ...........R....
00E0: FF 7F F0 FF FF 7F 73 30  30 37 45 11 80 F0 FF FF  ......s007E.....
00F0: 7F F0 FF FF 7F 73 30 30  38 00 80 1C 15 80 81 00  .....s008.......
0100: F0 FF FF 7F 02 87 7F 02  80 80 41 01 66 16 80 F0  ..........A.f...
0110: FF FF 7F F0 FF FF 7F 6D  61 62 30 1C 17 80 52 11  .......mab0...R.
0120: 80 F0 FF FF 7F F0 FF FF  7F 73 30 30 38 45 11 80  .........s008E..
0130: F0 FF FF 7F F0 FF FF 7F  73 32 33 31 00 80 01 EC  ........s231....
0140: 02 02 87 7F 18 80 80 7E  01 66 19 80 F0 FF FF 7F  .......~.f......
0150: F0 FF FF 7F 6D 61 62 30  1C 17 80 52 11 80 F0 FF  ....mab0...R....
0160: FF 7F F0 FF FF 7F 73 30  30 38 45 11 80 F0 FF FF  ......s008E.....
0170: 7F F0 FF FF 7F 73 32 33  32 00 80 01 EC 02 02 87  .....s232.......
0180: 7F 1A 80 80 BB 01 66 1B  80 F0 FF FF 7F F0 FF FF  ......f.........
0190: 7F 6D 61 62 30 1C 17 80  52 11 80 F0 FF FF 7F F0  .mab0...R.......
01A0: FF FF 7F 73 30 30 38 45  11 80 F0 FF FF 7F F0 FF  ...s008E........
01B0: FF 7F 73 32 33 33 00 80  01 EC 02 02 87 7F 1C 80  ..s233..........
01C0: 80 F8 01 66 1D 80 F0 FF  FF 7F F0 FF FF 7F 6D 61  ...f..........ma
01D0: 62 30 1C 17 80 52 11 80  F0 FF FF 7F F0 FF FF 7F  b0...R..........
01E0: 73 30 30 38 45 11 80 F0  FF FF 7F F0 FF FF 7F 73  s008E..........s
01F0: 32 33 34 00 80 01 EC 02  02 87 7F 17 80 80 35 02  234...........5.
0200: 66 1E 80 F0 FF FF 7F F0  FF FF 7F 6D 61 62 30 1C  f..........mab0.
0210: 17 80 52 11 80 F0 FF FF  7F F0 FF FF 7F 73 30 30  ..R..........s00
0220: 38 45 11 80 F0 FF FF 7F  F0 FF FF 7F 73 32 33 35  8E..........s235
0230: 00 80 01 EC 02 02 87 7F  1F 80 80 72 02 66 1E 80  ...........r.f..
0240: F0 FF FF 7F F0 FF FF 7F  6D 61 62 30 1C 17 80 52  ........mab0...R
0250: 11 80 F0 FF FF 7F F0 FF  FF 7F 73 30 30 38 45 11  ..........s008E.
0260: 80 F0 FF FF 7F F0 FF FF  7F 73 32 33 35 00 80 01  .........s235...
0270: EC 02 02 87 7F 20 80 80  AF 02 66 21 80 F0 FF FF  ..... ....f!....
0280: 7F F0 FF FF 7F 6D 61 62  30 1C 17 80 52 11 80 F0  .....mab0...R...
0290: FF FF 7F F0 FF FF 7F 73  30 30 38 45 11 80 F0 FF  .......s008E....
02A0: FF 7F F0 FF FF 7F 73 32  33 36 00 80 01 EC 02 02  ......s236......
02B0: 87 7F 22 80 80 EC 02 66  04 80 F0 FF FF 7F F0 FF  .."....f........
02C0: FF 7F 6D 61 62 30 1C 17  80 52 11 80 F0 FF FF 7F  ..mab0...R......
02D0: F0 FF FF 7F 73 30 30 38  45 11 80 F0 FF FF 7F F0  ....s008E.......
02E0: FF FF 7F 73 32 33 37 00  80 01 EC 02 1C 0F 80 5D  ...s237........]
02F0: 00 80 01 80 45 05 80 F0  FF FF 7F F0 FF FF 7F 77  ....E..........w
0300: 68 6F 30 00 80 55 05 80  F0 FF FF 7F F0 FF FF 7F  ho0..U..........
0310: 77 68 6F 30 52 11 80 F0  FF FF 7F F0 FF FF 7F 73  who0R..........s
0320: 32 33 31 52 11 80 F0 FF  FF 7F F0 FF FF 7F 73 32  231R..........s2
0330: 33 32 52 11 80 F0 FF FF  7F F0 FF FF 7F 73 32 33  32R..........s23
0340: 33 52 11 80 F0 FF FF 7F  F0 FF FF 7F 73 32 33 34  3R..........s234
0350: 52 11 80 F0 FF FF 7F F0  FF FF 7F 73 32 33 35 52  R..........s235R
0360: 11 80 F0 FF FF 7F F0 FF  FF 7F 73 32 33 36 52 11  ..........s236R.
0370: 80 F0 FF FF 7F F0 FF FF  7F 73 32 33 37 2F 00 EC  .........s237/..
0380: 92 10 01 4E 00 EC 92 10  01 BA EC 92 10 01 23 80  ...N..........#.
0390: 24 80 25 80 26 80 80 EC  92 10 01 1C 0F 80 C4 02  $.%.&...........
03A0: 27 80 EC 92 10 01 EB 92  10 01 2C EB 92 10 01 EB  '.........,.....
03B0: 92 10 01 64 65 61 64 1C  0F 80 45 11 80 F0 FF FF  ...dead...E.....
03C0: 7F F0 FF FF 7F 73 30 31  32 00 80 1C 12 80 45 05  .....s012.....E.
03D0: 80 F0 FF FF 7F F0 FF FF  7F 77 68 69 31 00 80 1C  .........whi1...
03E0: 01 80 52 11 80 F0 FF FF  7F F0 FF FF 7F 73 30 31  ..R..........s01
03F0: 32 45 11 80 F0 FF FF 7F  F0 FF FF 7F 73 30 30 39  2E..........s009
0400: 00 80 02 87 7F 02 80 80  1C 04 66 16 80 F0 FF FF  ..........f.....
0410: 7F F0 FF FF 7F 6D 61 62  31 01 D2 04 02 87 7F 18  .....mab1.......
0420: 80 80 36 04 66 19 80 F0  FF FF 7F F0 FF FF 7F 6D  ..6.f..........m
0430: 61 62 31 01 D2 04 02 87  7F 1A 80 80 50 04 66 1B  ab1.........P.f.
0440: 80 F0 FF FF 7F F0 FF FF  7F 6D 61 62 31 01 D2 04  .........mab1...
0450: 02 87 7F 1C 80 80 6A 04  66 1D 80 F0 FF FF 7F F0  ......j.f.......
0460: FF FF 7F 6D 61 62 31 01  D2 04 02 87 7F 17 80 80  ...mab1.........
0470: 84 04 66 1E 80 F0 FF FF  7F F0 FF FF 7F 6D 61 62  ..f..........mab
0480: 31 01 D2 04 02 87 7F 1F  80 80 9E 04 66 1E 80 F0  1...........f...
0490: FF FF 7F F0 FF FF 7F 6D  61 62 31 01 D2 04 02 87  .......mab1.....
04A0: 7F 20 80 80 B8 04 66 21  80 F0 FF FF 7F F0 FF FF  . ....f!........
04B0: 7F 6D 61 62 31 01 D2 04  02 87 7F 22 80 80 D2 04  .mab1......"....
04C0: 66 04 80 F0 FF FF 7F F0  FF FF 7F 6D 61 62 31 01  f..........mab1.
04D0: D2 04 1C 1E 80 52 11 80  F0 FF FF 7F F0 FF FF 7F  .....R..........
04E0: 73 30 30 39 45 11 80 F0  FF FF 7F F0 FF FF 7F 73  s009E..........s
04F0: 30 31 30 00 80 81 01 F0  FF FF 7F 4A F0 FF FF 7F  010........J....
0500: EC 92 10 01 1C 01 80 52  11 80 F0 FF FF 7F F0 FF  .......R........
0510: FF 7F 73 30 31 30 45 11  80 F0 FF FF 7F F0 FF FF  ..s010E.........
0520: 7F 73 30 31 31 00 80 27  05 EC 92 10 01 02 1C 01  .s011..'........
0530: 80 45 04 80 F0 FF FF 7F  F0 FF FF 7F 66 64 6F 31  .E..........fdo1
0540: 00 80 55 04 80 F0 FF FF  7F F0 FF FF 7F 66 64 6F  ..U..........fdo
0550: 31 52 11 80 F0 FF FF 7F  F0 FF FF 7F 73 30 31 31  1R..........s011
0560: C9 5C 00 28 80 5C 01 28  80 9A 46 00 45 04 80 F0  .\.(.\.(..F.E...
0570: FF FF 7F F0 FF FF 7F 66  64 69 32 00 80 21 00     .......fdi2..!. 
```

#### Opcodes

```
  0: 0x0001 [0x42] SET_CLI_EVENT_CANCEL_DATA()
  1: 0x0002 [0x5D] SET_MUSIC_VOLUME(volume=0*, fade_time=120*)
  2: 0x0007 [0x02] IF !(Work_Zone[9] == 1*) GOTO 0x0025
  3: 0x000F [0x77] SET_EVENT_TIME_WEATHER(hour=0*, weather=255*)
  4: 0x0014 [0x45] LOAD_SCHEDULED_TASK: Load scheduler "fdi0" with entities [LocalPlayer, LocalPlayer], work=[200*, 0*]
  5: 0x0025 [0x45] LOAD_SCHEDULED_TASK: Load scheduler "who1" with entities [LocalPlayer, LocalPlayer], work=[201*, 0*]
  6: 0x0036 [0x55] WAIT_LOAD_SCHEDULER: Wait for scheduler "who1" with entities [LocalPlayer, LocalPlayer], work=201*
  7: 0x0045 [0x46] CAMERA_CONTROL: Disable user control
  8: 0x0047 [0x38] SET_CLIENT_EVENT_MODE(mode=27*)
  9: 0x004A [0x2F] Unnamed NPC (ID: 17863403/0x011092EB)->Render.Flags0 &= ~0x80000 // Bit 19
 10: 0x0050 [0x4E] SET_ENTITY_HIDE_FLAG: Show Unnamed NPC (ID: 17863403/0x011092EB)
 11: 0x0056 [0xBA] SET_ENTITY_POSITION(entity_id=LocalPlayer, pos_x=499.103*, pos_z=-390.324*, pos_y=-15.471*, direction=250.7°*)
 12: 0x0063 [0xBA] SET_ENTITY_POSITION(entity_id=Unnamed NPC (ID: 17863403/0x011092EB), pos_x=497.806*, pos_z=-387.269*, pos_y=-15.510*, direction=69.7°*)
 13: 0x0070 [0x80] LOAD_WAIT(entity=LocalPlayer)
 14: 0x0075 [0x80] LOAD_WAIT(entity=Unnamed NPC (ID: 17863403/0x011092EB))
 15: 0x007A [0x4A] LocalPlayer looks at Unnamed NPC (ID: 17863403/0x011092EB)
 16: 0x0083 [0x4A] Unnamed NPC (ID: 17863403/0x011092EB) looks at LocalPlayer
 17: 0x008C [0x1C] WAIT(30* ticks)
 18: 0x008F [0x5C] MUSIC_CONTROL: Set Idle (Day) music to song 57*
 19: 0x0093 [0x5C] MUSIC_CONTROL: Set Idle (Night) music to song 57*
 20: 0x0097 [0x9A] WAIT_MUSIC_SERVER()
 21: 0x0098 [0x45] LOAD_SCHEDULED_TASK: Load scheduler "s007" with entities [LocalPlayer, LocalPlayer], work=[558*, 0*]
 22: 0x00A9 [0x1C] WAIT(15* ticks)
 23: 0x00AC [0x45] LOAD_SCHEDULED_TASK: Load scheduler "whi1" with entities [LocalPlayer, LocalPlayer], work=[201*, 0*]
 24: 0x00BD [0x1C] WAIT(30* ticks)
 25: 0x00C0 [0x6E] LocalPlayer uses emote 21*
 26: 0x00C7 [0x99] Wait for LocalPlayer animation to complete
 27: 0x00CC [0x1C] WAIT(90* ticks)
 28: 0x00CF [0xC4] SCHEDULE_MAGIC_CASTING_ALT (arg=17): Unnamed NPC (ID: 17863403/0x011092EB) casts magic 0* on LocalPlayer
 29: 0x00DB [0x52] END_LOAD_SCHEDULER: End scheduler "s007" with entities [LocalPlayer, LocalPlayer], work=558*
 30: 0x00EA [0x45] LOAD_SCHEDULED_TASK: Load scheduler "s008" with entities [LocalPlayer, LocalPlayer], work=[558*, 0*]
 31: 0x00FB [0x1C] WAIT(40* ticks)
 32: 0x00FE [0x81] SET_ENTITY_BLINKING(blink_flag=0x00, entity=LocalPlayer)
 33: 0x0104 [0x02] IF !(LocalPlayer->Race == 1*) GOTO 0x0141
 34: 0x010C [0x66] LOAD_EXT_SCHEDULER_MAIN: Load scheduler "mab0" with entities [LocalPlayer, LocalPlayer], work=140*
 35: 0x011B [0x1C] WAIT(5* ticks)
 36: 0x011E [0x52] END_LOAD_SCHEDULER: End scheduler "s008" with entities [LocalPlayer, LocalPlayer], work=558*
 37: 0x012D [0x45] LOAD_SCHEDULED_TASK: Load scheduler "s231" with entities [LocalPlayer, LocalPlayer], work=[558*, 0*]
 38: 0x013E [0x01] GOTO 0x02EC
 39: 0x0141 [0x02] IF !(LocalPlayer->Race == 2*) GOTO 0x017E
 40: 0x0149 [0x66] LOAD_EXT_SCHEDULER_MAIN: Load scheduler "mab0" with entities [LocalPlayer, LocalPlayer], work=150*
 41: 0x0158 [0x1C] WAIT(5* ticks)
 42: 0x015B [0x52] END_LOAD_SCHEDULER: End scheduler "s008" with entities [LocalPlayer, LocalPlayer], work=558*
 43: 0x016A [0x45] LOAD_SCHEDULED_TASK: Load scheduler "s232" with entities [LocalPlayer, LocalPlayer], work=[558*, 0*]
 44: 0x017B [0x01] GOTO 0x02EC
 45: 0x017E [0x02] IF !(LocalPlayer->Race == 3*) GOTO 0x01BB
 46: 0x0186 [0x66] LOAD_EXT_SCHEDULER_MAIN: Load scheduler "mab0" with entities [LocalPlayer, LocalPlayer], work=160*
 47: 0x0195 [0x1C] WAIT(5* ticks)
 48: 0x0198 [0x52] END_LOAD_SCHEDULER: End scheduler "s008" with entities [LocalPlayer, LocalPlayer], work=558*
 49: 0x01A7 [0x45] LOAD_SCHEDULED_TASK: Load scheduler "s233" with entities [LocalPlayer, LocalPlayer], work=[558*, 0*]
 50: 0x01B8 [0x01] GOTO 0x02EC
 51: 0x01BB [0x02] IF !(LocalPlayer->Race == 4*) GOTO 0x01F8
 52: 0x01C3 [0x66] LOAD_EXT_SCHEDULER_MAIN: Load scheduler "mab0" with entities [LocalPlayer, LocalPlayer], work=170*
 53: 0x01D2 [0x1C] WAIT(5* ticks)
 54: 0x01D5 [0x52] END_LOAD_SCHEDULER: End scheduler "s008" with entities [LocalPlayer, LocalPlayer], work=558*
 55: 0x01E4 [0x45] LOAD_SCHEDULED_TASK: Load scheduler "s234" with entities [LocalPlayer, LocalPlayer], work=[558*, 0*]
 56: 0x01F5 [0x01] GOTO 0x02EC
 57: 0x01F8 [0x02] IF !(LocalPlayer->Race == 5*) GOTO 0x0235
 58: 0x0200 [0x66] LOAD_EXT_SCHEDULER_MAIN: Load scheduler "mab0" with entities [LocalPlayer, LocalPlayer], work=180*
 59: 0x020F [0x1C] WAIT(5* ticks)
 60: 0x0212 [0x52] END_LOAD_SCHEDULER: End scheduler "s008" with entities [LocalPlayer, LocalPlayer], work=558*
 61: 0x0221 [0x45] LOAD_SCHEDULED_TASK: Load scheduler "s235" with entities [LocalPlayer, LocalPlayer], work=[558*, 0*]
 62: 0x0232 [0x01] GOTO 0x02EC
 63: 0x0235 [0x02] IF !(LocalPlayer->Race == 6*) GOTO 0x0272
 64: 0x023D [0x66] LOAD_EXT_SCHEDULER_MAIN: Load scheduler "mab0" with entities [LocalPlayer, LocalPlayer], work=180*
 65: 0x024C [0x1C] WAIT(5* ticks)
 66: 0x024F [0x52] END_LOAD_SCHEDULER: End scheduler "s008" with entities [LocalPlayer, LocalPlayer], work=558*
 67: 0x025E [0x45] LOAD_SCHEDULED_TASK: Load scheduler "s235" with entities [LocalPlayer, LocalPlayer], work=[558*, 0*]
 68: 0x026F [0x01] GOTO 0x02EC
 69: 0x0272 [0x02] IF !(LocalPlayer->Race == 7*) GOTO 0x02AF
 70: 0x027A [0x66] LOAD_EXT_SCHEDULER_MAIN: Load scheduler "mab0" with entities [LocalPlayer, LocalPlayer], work=190*
 71: 0x0289 [0x1C] WAIT(5* ticks)
 72: 0x028C [0x52] END_LOAD_SCHEDULER: End scheduler "s008" with entities [LocalPlayer, LocalPlayer], work=558*
 73: 0x029B [0x45] LOAD_SCHEDULED_TASK: Load scheduler "s236" with entities [LocalPlayer, LocalPlayer], work=[558*, 0*]
 74: 0x02AC [0x01] GOTO 0x02EC
 75: 0x02AF [0x02] IF !(LocalPlayer->Race == 8*) GOTO 0x02EC
 76: 0x02B7 [0x66] LOAD_EXT_SCHEDULER_MAIN: Load scheduler "mab0" with entities [LocalPlayer, LocalPlayer], work=200*
 77: 0x02C6 [0x1C] WAIT(5* ticks)
 78: 0x02C9 [0x52] END_LOAD_SCHEDULER: End scheduler "s008" with entities [LocalPlayer, LocalPlayer], work=558*
 79: 0x02D8 [0x45] LOAD_SCHEDULED_TASK: Load scheduler "s237" with entities [LocalPlayer, LocalPlayer], work=[558*, 0*]
 80: 0x02E9 [0x01] GOTO 0x02EC

SUBROUTINE_02EC:
 81: 0x02EC [0x1C] WAIT(30* ticks)
 82: 0x02EF [0x5D] SET_MUSIC_VOLUME(volume=0*, fade_time=120*)
 83: 0x02F4 [0x45] LOAD_SCHEDULED_TASK: Load scheduler "who0" with entities [LocalPlayer, LocalPlayer], work=[201*, 0*]
 84: 0x0305 [0x55] WAIT_LOAD_SCHEDULER: Wait for scheduler "who0" with entities [LocalPlayer, LocalPlayer], work=201*
 85: 0x0314 [0x52] END_LOAD_SCHEDULER: End scheduler "s231" with entities [LocalPlayer, LocalPlayer], work=558*
 86: 0x0323 [0x52] END_LOAD_SCHEDULER: End scheduler "s232" with entities [LocalPlayer, LocalPlayer], work=558*
 87: 0x0332 [0x52] END_LOAD_SCHEDULER: End scheduler "s233" with entities [LocalPlayer, LocalPlayer], work=558*
 88: 0x0341 [0x52] END_LOAD_SCHEDULER: End scheduler "s234" with entities [LocalPlayer, LocalPlayer], work=558*
 89: 0x0350 [0x52] END_LOAD_SCHEDULER: End scheduler "s235" with entities [LocalPlayer, LocalPlayer], work=558*
 90: 0x035F [0x52] END_LOAD_SCHEDULER: End scheduler "s236" with entities [LocalPlayer, LocalPlayer], work=558*
 91: 0x036E [0x52] END_LOAD_SCHEDULER: End scheduler "s237" with entities [LocalPlayer, LocalPlayer], work=558*
 92: 0x037D [0x2F] Unnamed NPC (ID: 17863404/0x011092EC)->Render.Flags0 &= ~0x80000 // Bit 19
 93: 0x0383 [0x4E] SET_ENTITY_HIDE_FLAG: Show Unnamed NPC (ID: 17863404/0x011092EC)
 94: 0x0389 [0xBA] SET_ENTITY_POSITION(entity_id=Unnamed NPC (ID: 17863404/0x011092EC), pos_x=498.617*, pos_z=-395.336*, pos_y=-15.585*, direction=269.3°*)
 95: 0x0396 [0x80] LOAD_WAIT(entity=Unnamed NPC (ID: 17863404/0x011092EC))
 96: 0x039B [0x1C] WAIT(30* ticks)
 97: 0x039E [0xC4] SCHEDULE_MAGIC_CASTING_ALT (arg=18): Unnamed NPC (ID: 17863404/0x011092EC) casts magic 114* on Unnamed NPC (ID: 17863403/0x011092EB)
 98: 0x03AA [0x2C] CREATE_SCHEDULER_TASK: Create scheduler "dead" with entities [Unnamed NPC (ID: 17863403/0x011092EB), Unnamed NPC (ID: 17863403/0x011092EB)]
 99: 0x03B7 [0x1C] WAIT(30* ticks)
100: 0x03BA [0x45] LOAD_SCHEDULED_TASK: Load scheduler "s012" with entities [LocalPlayer, LocalPlayer], work=[558*, 0*]
101: 0x03CB [0x1C] WAIT(15* ticks)
102: 0x03CE [0x45] LOAD_SCHEDULED_TASK: Load scheduler "whi1" with entities [LocalPlayer, LocalPlayer], work=[201*, 0*]
103: 0x03DF [0x1C] WAIT(120* ticks)
104: 0x03E2 [0x52] END_LOAD_SCHEDULER: End scheduler "s012" with entities [LocalPlayer, LocalPlayer], work=558*
105: 0x03F1 [0x45] LOAD_SCHEDULED_TASK: Load scheduler "s009" with entities [LocalPlayer, LocalPlayer], work=[558*, 0*]
106: 0x0402 [0x02] IF !(LocalPlayer->Race == 1*) GOTO 0x041C
107: 0x040A [0x66] LOAD_EXT_SCHEDULER_MAIN: Load scheduler "mab1" with entities [LocalPlayer, LocalPlayer], work=140*
108: 0x0419 [0x01] GOTO 0x04D2
109: 0x041C [0x02] IF !(LocalPlayer->Race == 2*) GOTO 0x0436
110: 0x0424 [0x66] LOAD_EXT_SCHEDULER_MAIN: Load scheduler "mab1" with entities [LocalPlayer, LocalPlayer], work=150*
111: 0x0433 [0x01] GOTO 0x04D2
112: 0x0436 [0x02] IF !(LocalPlayer->Race == 3*) GOTO 0x0450
113: 0x043E [0x66] LOAD_EXT_SCHEDULER_MAIN: Load scheduler "mab1" with entities [LocalPlayer, LocalPlayer], work=160*
114: 0x044D [0x01] GOTO 0x04D2
115: 0x0450 [0x02] IF !(LocalPlayer->Race == 4*) GOTO 0x046A
116: 0x0458 [0x66] LOAD_EXT_SCHEDULER_MAIN: Load scheduler "mab1" with entities [LocalPlayer, LocalPlayer], work=170*
117: 0x0467 [0x01] GOTO 0x04D2
118: 0x046A [0x02] IF !(LocalPlayer->Race == 5*) GOTO 0x0484
119: 0x0472 [0x66] LOAD_EXT_SCHEDULER_MAIN: Load scheduler "mab1" with entities [LocalPlayer, LocalPlayer], work=180*
120: 0x0481 [0x01] GOTO 0x04D2
121: 0x0484 [0x02] IF !(LocalPlayer->Race == 6*) GOTO 0x049E
122: 0x048C [0x66] LOAD_EXT_SCHEDULER_MAIN: Load scheduler "mab1" with entities [LocalPlayer, LocalPlayer], work=180*
123: 0x049B [0x01] GOTO 0x04D2
124: 0x049E [0x02] IF !(LocalPlayer->Race == 7*) GOTO 0x04B8
125: 0x04A6 [0x66] LOAD_EXT_SCHEDULER_MAIN: Load scheduler "mab1" with entities [LocalPlayer, LocalPlayer], work=190*
126: 0x04B5 [0x01] GOTO 0x04D2
127: 0x04B8 [0x02] IF !(LocalPlayer->Race == 8*) GOTO 0x04D2
128: 0x04C0 [0x66] LOAD_EXT_SCHEDULER_MAIN: Load scheduler "mab1" with entities [LocalPlayer, LocalPlayer], work=200*
129: 0x04CF [0x01] GOTO 0x04D2

SUBROUTINE_04D2:
130: 0x04D2 [0x1C] WAIT(180* ticks)
131: 0x04D5 [0x52] END_LOAD_SCHEDULER: End scheduler "s009" with entities [LocalPlayer, LocalPlayer], work=558*
132: 0x04E4 [0x45] LOAD_SCHEDULED_TASK: Load scheduler "s010" with entities [LocalPlayer, LocalPlayer], work=[558*, 0*]
133: 0x04F5 [0x81] SET_ENTITY_BLINKING(blink_flag=0x01, entity=LocalPlayer)
134: 0x04FB [0x4A] LocalPlayer looks at Unnamed NPC (ID: 17863404/0x011092EC)
135: 0x0504 [0x1C] WAIT(120* ticks)
136: 0x0507 [0x52] END_LOAD_SCHEDULER: End scheduler "s010" with entities [LocalPlayer, LocalPlayer], work=558*
137: 0x0516 [0x45] LOAD_SCHEDULED_TASK: Load scheduler "s011" with entities [LocalPlayer, LocalPlayer], work=[558*, 0*]
138: 0x0527 [0x27] REQ_SET(priority=0x05, entity_id=Unnamed NPC (ID: 17863404/0x011092EC), tag_num=0x02)
139: 0x052E [0x1C] WAIT(120* ticks)
140: 0x0531 [0x45] LOAD_SCHEDULED_TASK: Load scheduler "fdo1" with entities [LocalPlayer, LocalPlayer], work=[200*, 0*]
141: 0x0542 [0x55] WAIT_LOAD_SCHEDULER: Wait for scheduler "fdo1" with entities [LocalPlayer, LocalPlayer], work=200*
142: 0x0551 [0x52] END_LOAD_SCHEDULER: End scheduler "s011" with entities [LocalPlayer, LocalPlayer], work=558*
143: 0x0560 [0xC9] ENABLE_GAME_TIMER()
144: 0x0561 [0x5C] MUSIC_CONTROL: Set Idle (Day) music to song 60*
145: 0x0565 [0x5C] MUSIC_CONTROL: Set Idle (Night) music to song 60*
146: 0x0569 [0x9A] WAIT_MUSIC_SERVER()
147: 0x056A [0x46] CAMERA_CONTROL: Restore default settings
148: 0x056C [0x45] LOAD_SCHEDULED_TASK: Load scheduler "fdi2" with entities [LocalPlayer, LocalPlayer], work=[200*, 0*]
149: 0x057D [0x21] END_EVENT
150: 0x057E [0x00] END_REQSTACK()
```

### Event 58

#### Metadata

| Field        | Value     |
|--------------|-----------|
| Entrypoint   | 0x057F    |
| Data Size    | 936 bytes |
| Instructions | 113       |

```
      00 01 02 03 04 05 06 07  08 09 0A 0B 0C 0D 0E 0F
      -- -- -- -- -- -- -- --  -- -- -- -- -- -- -- --
0570:                                               42                 B
0580: 45 04 80 F0 FF FF 7F F0  FF FF 7F 66 64 6F 31 00  E..........fdo1.
0590: 80 55 04 80 F0 FF FF 7F  F0 FF FF 7F 66 64 6F 31  .U..........fdo1
05A0: 46 01 38 29 80 2F 00 EE  92 10 01 2F 00 EF 92 10  F.8)./...../....
05B0: 01 2F 00 F0 92 10 01 2F  00 F1 92 10 01 4E 00 EE  ./...../.....N..
05C0: 92 10 01 4E 00 EF 92 10  01 4E 00 F0 92 10 01 4E  ...N.....N.....N
05D0: 00 F1 92 10 01 94 01 EE  92 10 01 94 01 EF 92 10  ................
05E0: 01 94 01 F0 92 10 01 94  01 F1 92 10 01 94 01 F0  ................
05F0: FF FF 7F BA F0 FF FF 7F  2A 80 2B 80 2C 80 2D 80  ........*.+.,.-.
0600: BA EE 92 10 01 2E 80 2F  80 30 80 31 80 BA EF 92  ......./.0.1....
0610: 10 01 32 80 33 80 34 80  31 80 BA F0 92 10 01 35  ..2.3.4.1......5
0620: 80 36 80 37 80 38 80 BA  F1 92 10 01 39 80 3A 80  .6.7.8......9.:.
0630: 3B 80 3C 80 80 F0 FF FF  7F 80 ED 92 10 01 80 EE  ;.<.............
0640: 92 10 01 80 EF 92 10 01  80 F0 92 10 01 80 F1 92  ................
0650: 10 01 4A F0 FF FF 7F ED  92 10 01 4A EE 92 10 01  ..J........J....
0660: F1 92 10 01 1C 0F 80 5B  3D 80 EF 92 10 01 EF 92  .......[=.......
0670: 10 01 74 75 6B 6C 5B 3E  80 F0 92 10 01 F0 92 10  ..tukl[>........
0680: 01 68 65 74 61 5B 3F 80  F1 92 10 01 F1 92 10 01  .heta[?.........
0690: 74 61 6F 30 45 40 80 F0  FF FF 7F F0 FF FF 7F 73  tao0E@.........s
06A0: 31 31 32 00 80 1C 12 80  45 04 80 F0 FF FF 7F F0  112.....E.......
06B0: FF FF 7F 66 64 69 31 00  80 4A ED 92 10 01 F0 FF  ...fdi1..J......
06C0: FF 7F 1C 0F 80 2B ED 92  10 01 41 80 23 27 05 F0  .....+....A.#'..
06D0: FF FF 7F 02 1C 42 80 27  05 F0 FF FF 7F 03 1C 15  .....B.'........
06E0: 80 52 40 80 F0 FF FF 7F  F0 FF FF 7F 73 31 31 32  .R@.........s112
06F0: 45 40 80 F0 FF FF 7F F0  FF FF 7F 73 31 31 33 00  E@.........s113.
0700: 80 2B ED 92 10 01 43 80  23 66 44 80 ED 92 10 01  .+....C.#fD.....
0710: ED 92 10 01 74 6C 6B 30  2B ED 92 10 01 45 80 23  ....tlk0+....E.#
0720: 52 40 80 F0 FF FF 7F F0  FF FF 7F 73 31 31 33 45  R@.........s113E
0730: 40 80 F0 FF FF 7F F0 FF  FF 7F 73 31 31 34 00 80  @.........s114..
0740: 66 44 80 ED 92 10 01 ED  92 10 01 74 6C 6B 31 2B  fD.........tlk1+
0750: ED 92 10 01 46 80 23 52  40 80 F0 FF FF 7F F0 FF  ....F.#R@.......
0760: FF 7F 73 31 31 34 45 40  80 F0 FF FF 7F F0 FF FF  ..s114E@........
0770: 7F 73 31 31 35 00 80 4A  ED 92 10 01 EE 92 10 01  .s115..J........
0780: 1C 0F 80 4A EE 92 10 01  ED 92 10 01 6E ED 92 10  ...J........n...
0790: 01 47 80 99 ED 92 10 01  2B ED 92 10 01 48 80 1C  .G......+....H..
07A0: 0F 80 23 52 40 80 F0 FF  FF 7F F0 FF FF 7F 73 31  ..#R@.........s1
07B0: 31 35 45 40 80 F0 FF FF  7F F0 FF FF 7F 73 31 31  15E@.........s11
07C0: 36 00 80 66 15 80 EE 92  10 01 EE 92 10 01 67 6B  6..f..........gk
07D0: 72 30 2B EE 92 10 01 49  80 23 5B 3D 80 EF 92 10  r0+....I.#[=....
07E0: 01 EF 92 10 01 74 74 6C  30 2B EF 92 10 01 4A 80  .....ttl0+....J.
07F0: 23 52 40 80 F0 FF FF 7F  F0 FF FF 7F 73 31 31 36  #R@.........s116
0800: 45 40 80 F0 FF FF 7F F0  FF FF 7F 73 31 31 37 00  E@.........s117.
0810: 80 6E ED 92 10 01 4B 80  99 ED 92 10 01 2B ED 92  .n....K......+..
0820: 10 01 4C 80 23 52 40 80  F0 FF FF 7F F0 FF FF 7F  ..L.#R@.........
0830: 73 31 31 37 45 40 80 F0  FF FF 7F F0 FF FF 7F 73  s117E@.........s
0840: 31 31 38 00 80 4A ED 92  10 01 F0 FF FF 7F 1C 0F  118..J..........
0850: 80 6E ED 92 10 01 4D 80  99 ED 92 10 01 2B ED 92  .n....M......+..
0860: 10 01 4E 80 23 52 40 80  F0 FF FF 7F F0 FF FF 7F  ..N.#R@.........
0870: 73 31 31 38 45 40 80 F0  FF FF 7F F0 FF FF 7F 73  s118E@.........s
0880: 31 31 39 00 80 66 44 80  ED 92 10 01 ED 92 10 01  119..fD.........
0890: 74 6C 6B 30 03 02 10 4F  80 03 03 10 50 80 03 04  tlk0...O....P...
08A0: 10 51 80 2B ED 92 10 01  52 80 23 2B ED 92 10 01  .Q.+....R.#+....
08B0: 53 80 23 52 40 80 F0 FF  FF 7F F0 FF FF 7F 73 31  S.#R@.........s1
08C0: 31 39 45 40 80 F0 FF FF  7F F0 FF FF 7F 73 31 32  19E@.........s12
08D0: 30 00 80 2B ED 92 10 01  54 80 23 2B ED 92 10 01  0..+....T.#+....
08E0: 55 80 23 45 04 80 F0 FF  FF 7F F0 FF FF 7F 66 64  U.#E..........fd
08F0: 6F 31 00 80 55 04 80 F0  FF FF 7F F0 FF FF 7F 66  o1..U..........f
0900: 64 6F 31 52 40 80 F0 FF  FF 7F F0 FF FF 7F 73 31  do1R@.........s1
0910: 32 30 46 00 45 04 80 F0  FF FF 7F F0 FF FF 7F 66  20F.E..........f
0920: 64 69 32 00 80 21 00                              di2..!.         
```

#### Opcodes

```
  0: 0x057F [0x42] SET_CLI_EVENT_CANCEL_DATA()
  1: 0x0580 [0x45] LOAD_SCHEDULED_TASK: Load scheduler "fdo1" with entities [LocalPlayer, LocalPlayer], work=[200*, 0*]
  2: 0x0591 [0x55] WAIT_LOAD_SCHEDULER: Wait for scheduler "fdo1" with entities [LocalPlayer, LocalPlayer], work=200*
  3: 0x05A0 [0x46] CAMERA_CONTROL: Disable user control
  4: 0x05A2 [0x38] SET_CLIENT_EVENT_MODE(mode=19*)
  5: 0x05A5 [0x2F] Donda-Bonda (ID: 17863406/0x011092EE)->Render.Flags0 &= ~0x80000 // Bit 19
  6: 0x05AB [0x2F] Jaureche (ID: 17863407/0x011092EF)->Render.Flags0 &= ~0x80000 // Bit 19
  7: 0x05B1 [0x2F] Unnamed NPC (ID: 17863408/0x011092F0)->Render.Flags0 &= ~0x80000 // Bit 19
  8: 0x05B7 [0x2F] Unnamed NPC (ID: 17863409/0x011092F1)->Render.Flags0 &= ~0x80000 // Bit 19
  9: 0x05BD [0x4E] SET_ENTITY_HIDE_FLAG: Show Donda-Bonda (ID: 17863406/0x011092EE)
 10: 0x05C3 [0x4E] SET_ENTITY_HIDE_FLAG: Show Jaureche (ID: 17863407/0x011092EF)
 11: 0x05C9 [0x4E] SET_ENTITY_HIDE_FLAG: Show Unnamed NPC (ID: 17863408/0x011092F0)
 12: 0x05CF [0x4E] SET_ENTITY_HIDE_FLAG: Show Unnamed NPC (ID: 17863409/0x011092F1)
 13: 0x05D5 [0x94] Donda-Bonda (ID: 17863406/0x011092EE)->Render.Flags3 ^= 0x01
 14: 0x05DB [0x94] Jaureche (ID: 17863407/0x011092EF)->Render.Flags3 ^= 0x01
 15: 0x05E1 [0x94] Unnamed NPC (ID: 17863408/0x011092F0)->Render.Flags3 ^= 0x01
 16: 0x05E7 [0x94] Unnamed NPC (ID: 17863409/0x011092F1)->Render.Flags3 ^= 0x01
 17: 0x05ED [0x94] LocalPlayer->Render.Flags3 ^= 0x01
 18: 0x05F3 [0xBA] SET_ENTITY_POSITION(entity_id=LocalPlayer, pos_x=441.540*, pos_z=-345.961*, pos_y=-15.400*, direction=177.4°*)
 19: 0x0600 [0xBA] SET_ENTITY_POSITION(entity_id=Donda-Bonda (ID: 17863406/0x011092EE), pos_x=441.790*, pos_z=-330.500*, pos_y=-15.677*, direction=101.2°*)
 20: 0x060D [0xBA] SET_ENTITY_POSITION(entity_id=Jaureche (ID: 17863407/0x011092EF), pos_x=438.370*, pos_z=-329.172*, pos_y=-15.743*, direction=101.2°*)
 21: 0x061A [0xBA] SET_ENTITY_POSITION(entity_id=Unnamed NPC (ID: 17863408/0x011092F0), pos_x=440.278*, pos_z=-329.376*, pos_y=-15.733*, direction=53.2°*)
 22: 0x0627 [0xBA] SET_ENTITY_POSITION(entity_id=Unnamed NPC (ID: 17863409/0x011092F1), pos_x=441.265*, pos_z=-326.013*, pos_y=-15.900*, direction=151.4°*)
 23: 0x0634 [0x80] LOAD_WAIT(entity=LocalPlayer)
 24: 0x0639 [0x80] LOAD_WAIT(entity=Borghest (ID: 17863405/0x011092ED))
 25: 0x063E [0x80] LOAD_WAIT(entity=Donda-Bonda (ID: 17863406/0x011092EE))
 26: 0x0643 [0x80] LOAD_WAIT(entity=Jaureche (ID: 17863407/0x011092EF))
 27: 0x0648 [0x80] LOAD_WAIT(entity=Unnamed NPC (ID: 17863408/0x011092F0))
 28: 0x064D [0x80] LOAD_WAIT(entity=Unnamed NPC (ID: 17863409/0x011092F1))
 29: 0x0652 [0x4A] LocalPlayer looks at Borghest (ID: 17863405/0x011092ED)
 30: 0x065B [0x4A] Donda-Bonda (ID: 17863406/0x011092EE) looks at Unnamed NPC (ID: 17863409/0x011092F1)
 31: 0x0664 [0x1C] WAIT(30* ticks)
 32: 0x0667 [0x5B] LOAD_EXT_SCHEDULER: Load scheduler "tukl" with entities [Jaureche (ID: 17863407/0x011092EF), Jaureche (ID: 17863407/0x011092EF)], work=2301*
 33: 0x0676 [0x5B] LOAD_EXT_SCHEDULER: Load scheduler "heta" with entities [Unnamed NPC (ID: 17863408/0x011092F0), Unnamed NPC (ID: 17863408/0x011092F0)], work=2311*
 34: 0x0685 [0x5B] LOAD_EXT_SCHEDULER: Load scheduler "tao0" with entities [Unnamed NPC (ID: 17863409/0x011092F1), Unnamed NPC (ID: 17863409/0x011092F1)], work=2897*
 35: 0x0694 [0x45] LOAD_SCHEDULED_TASK: Load scheduler "s112" with entities [LocalPlayer, LocalPlayer], work=[626*, 0*]
 36: 0x06A5 [0x1C] WAIT(15* ticks)
 37: 0x06A8 [0x45] LOAD_SCHEDULED_TASK: Load scheduler "fdi1" with entities [LocalPlayer, LocalPlayer], work=[200*, 0*]
 38: 0x06B9 [0x4A] Borghest (ID: 17863405/0x011092ED) looks at LocalPlayer
 39: 0x06C2 [0x1C] WAIT(30* ticks)
 40: 0x06C5 [0x2B] Borghest (ID: 17863405/0x011092ED) [8071*]:
    → "If you've got nothing better to do than bother me, I suggest you get out of my sight."
 41: 0x06CC [0x23] WAIT_FOR_DIALOG_INTERACTION
 42: 0x06CD [0x27] REQ_SET(priority=0x05, entity_id=LocalPlayer, tag_num=0x02)
 43: 0x06D4 [0x1C] WAIT(80* ticks)
 44: 0x06D7 [0x27] REQ_SET(priority=0x05, entity_id=LocalPlayer, tag_num=0x03)
 45: 0x06DE [0x1C] WAIT(40* ticks)
 46: 0x06E1 [0x52] END_LOAD_SCHEDULER: End scheduler "s112" with entities [LocalPlayer, LocalPlayer], work=626*
 47: 0x06F0 [0x45] LOAD_SCHEDULED_TASK: Load scheduler "s113" with entities [LocalPlayer, LocalPlayer], work=[626*, 0*]
 48: 0x0701 [0x2B] Borghest (ID: 17863405/0x011092ED) [8072*]:
    → "Oh ho, you've got news of Logan? Hmph. Good to hear that damned pansy will stop faking it and get back to work."
 49: 0x0708 [0x23] WAIT_FOR_DIALOG_INTERACTION
 50: 0x0709 [0x66] LOAD_EXT_SCHEDULER_MAIN: Load scheduler "tlk0" with entities [Borghest (ID: 17863405/0x011092ED), Borghest (ID: 17863405/0x011092ED)], work=69*
 51: 0x0718 [0x2B] Borghest (ID: 17863405/0x011092ED) [8073*]:
    → "Yeah, yeah, I know he's really sick. It's just that everyone's been working their butts off to cover his workload. So that old biddy Svenja finally found a cure, eh?"
 52: 0x071F [0x23] WAIT_FOR_DIALOG_INTERACTION
 53: 0x0720 [0x52] END_LOAD_SCHEDULER: End scheduler "s113" with entities [LocalPlayer, LocalPlayer], work=626*
 54: 0x072F [0x45] LOAD_SCHEDULED_TASK: Load scheduler "s114" with entities [LocalPlayer, LocalPlayer], work=[626*, 0*]
 55: 0x0740 [0x66] LOAD_EXT_SCHEDULER_MAIN: Load scheduler "tlk1" with entities [Borghest (ID: 17863405/0x011092ED), Borghest (ID: 17863405/0x011092ED)], work=69*
 56: 0x074F [0x2B] Borghest (ID: 17863405/0x011092ED) [8074*]:
    → "I know I'm a bit hard on the boy, but if he's really coming back, then we need to get him a little something."
 57: 0x0756 [0x23] WAIT_FOR_DIALOG_INTERACTION
 58: 0x0757 [0x52] END_LOAD_SCHEDULER: End scheduler "s114" with entities [LocalPlayer, LocalPlayer], work=626*
 59: 0x0766 [0x45] LOAD_SCHEDULED_TASK: Load scheduler "s115" with entities [LocalPlayer, LocalPlayer], work=[626*, 0*]
 60: 0x0777 [0x4A] Borghest (ID: 17863405/0x011092ED) looks at Donda-Bonda (ID: 17863406/0x011092EE)
 61: 0x0780 [0x1C] WAIT(30* ticks)
 62: 0x0783 [0x4A] Donda-Bonda (ID: 17863406/0x011092EE) looks at Borghest (ID: 17863405/0x011092ED)
 63: 0x078C [0x6E] Borghest (ID: 17863405/0x011092ED) uses emote 25*
 64: 0x0793 [0x99] Wait for Borghest (ID: 17863405/0x011092ED) animation to complete
 65: 0x0798 [0x2B] Borghest (ID: 17863405/0x011092ED) [8075*]:
    → "Yo, you lazy good-for-nothings! We've gotta place a special order for that nincompoop of ours, Logan!"
 66: 0x079F [0x1C] WAIT(30* ticks)
 67: 0x07A2 [0x23] WAIT_FOR_DIALOG_INTERACTION
 68: 0x07A3 [0x52] END_LOAD_SCHEDULER: End scheduler "s115" with entities [LocalPlayer, LocalPlayer], work=626*
 69: 0x07B2 [0x45] LOAD_SCHEDULED_TASK: Load scheduler "s116" with entities [LocalPlayer, LocalPlayer], work=[626*, 0*]
 70: 0x07C3 [0x66] LOAD_EXT_SCHEDULER_MAIN: Load scheduler "gkr0" with entities [Donda-Bonda (ID: 17863406/0x011092EE), Donda-Bonda (ID: 17863406/0x011092EE)], work=40*
 71: 0x07D2 [0x2B] Donda-Bonda (ID: 17863406/0x011092EE) [8076*]:
    → "Oh, come on, boss. We just started our break and now you want us to go back out there?"
 72: 0x07D9 [0x23] WAIT_FOR_DIALOG_INTERACTION
 73: 0x07DA [0x5B] LOAD_EXT_SCHEDULER: Load scheduler "ttl0" with entities [Jaureche (ID: 17863407/0x011092EF), Jaureche (ID: 17863407/0x011092EF)], work=2301*
 74: 0x07E9 [0x2B] Jaureche (ID: 17863407/0x011092EF) [8077*]:
    → "My arms have already turned to jelly...please, let us at least sit for ten minutes!"
 75: 0x07F0 [0x23] WAIT_FOR_DIALOG_INTERACTION
 76: 0x07F1 [0x52] END_LOAD_SCHEDULER: End scheduler "s116" with entities [LocalPlayer, LocalPlayer], work=626*
 77: 0x0800 [0x45] LOAD_SCHEDULED_TASK: Load scheduler "s117" with entities [LocalPlayer, LocalPlayer], work=[626*, 0*]
 78: 0x0811 [0x6E] Borghest (ID: 17863405/0x011092ED) uses emote 26*
 79: 0x0818 [0x99] Wait for Borghest (ID: 17863405/0x011092ED) animation to complete
 80: 0x081D [0x2B] Borghest (ID: 17863405/0x011092ED) [8078*]:
    → "Oh, I'm sorry, delicate maidens. Of course we wouldn't want you to get your freshly painted nails chipped. Maybe I should serve you some tea and crumpets before you pass out from the vapors, hmm?"
 81: 0x0824 [0x23] WAIT_FOR_DIALOG_INTERACTION
 82: 0x0825 [0x52] END_LOAD_SCHEDULER: End scheduler "s117" with entities [LocalPlayer, LocalPlayer], work=626*
 83: 0x0834 [0x45] LOAD_SCHEDULED_TASK: Load scheduler "s118" with entities [LocalPlayer, LocalPlayer], work=[626*, 0*]
 84: 0x0845 [0x4A] Borghest (ID: 17863405/0x011092ED) looks at LocalPlayer
 85: 0x084E [0x1C] WAIT(30* ticks)
 86: 0x0851 [0x6E] Borghest (ID: 17863405/0x011092ED) uses emote 22*
 87: 0x0858 [0x99] Wait for Borghest (ID: 17863405/0x011092ED) animation to complete
 88: 0x085D [0x2B] Borghest (ID: 17863405/0x011092ED) [8079*]:
    → "<Sigh> Why do I even bother paying these slobs? Well, my brave pioneer, what are you standing here for? Go gather what we need to make Logan's welcome-back present!"
 89: 0x0864 [0x23] WAIT_FOR_DIALOG_INTERACTION
 90: 0x0865 [0x52] END_LOAD_SCHEDULER: End scheduler "s118" with entities [LocalPlayer, LocalPlayer], work=626*
 91: 0x0874 [0x45] LOAD_SCHEDULED_TASK: Load scheduler "s119" with entities [LocalPlayer, LocalPlayer], work=[626*, 0*]
 92: 0x0885 [0x66] LOAD_EXT_SCHEDULER_MAIN: Load scheduler "tlk0" with entities [Borghest (ID: 17863405/0x011092ED), Borghest (ID: 17863405/0x011092ED)], work=69*
 93: 0x0894 [0x03] Work_Zone[2] = 3927*
 94: 0x0899 [0x03] Work_Zone[3] = 658*
 95: 0x089E [0x03] Work_Zone[4] = 4096*
 96: 0x08A3 [0x2B] Borghest (ID: 17863405/0x011092ED) [8080*]:
    → "To make a pickaxe, we'll need $0, $1, and $2."
 97: 0x08AA [0x23] WAIT_FOR_DIALOG_INTERACTION
 98: 0x08AB [0x2B] Borghest (ID: 17863405/0x011092ED) [8081*]:
    → "For the love of...don't you start sniveling too, you slack-jawed moron! All you need is the materials, and the coalition will put it on my tab."
 99: 0x08B2 [0x23] WAIT_FOR_DIALOG_INTERACTION
100: 0x08B3 [0x52] END_LOAD_SCHEDULER: End scheduler "s119" with entities [LocalPlayer, LocalPlayer], work=626*
101: 0x08C2 [0x45] LOAD_SCHEDULED_TASK: Load scheduler "s120" with entities [LocalPlayer, LocalPlayer], work=[626*, 0*]
102: 0x08D3 [0x2B] Borghest (ID: 17863405/0x011092ED) [8082*]:
    → "That lovely Chanteillie at the Inventors' Coalition will take good care of you. She'd better, because I sure won't."
103: 0x08DA [0x23] WAIT_FOR_DIALOG_INTERACTION
104: 0x08DB [0x2B] Borghest (ID: 17863405/0x011092ED) [8083*]:
    → "And since you'll be in the city, I'm sure you'd be fine with bringing it to Logan yourself. I'll be far too busy changing these boys' diapers."
105: 0x08E2 [0x23] WAIT_FOR_DIALOG_INTERACTION
106: 0x08E3 [0x45] LOAD_SCHEDULED_TASK: Load scheduler "fdo1" with entities [LocalPlayer, LocalPlayer], work=[200*, 0*]
107: 0x08F4 [0x55] WAIT_LOAD_SCHEDULER: Wait for scheduler "fdo1" with entities [LocalPlayer, LocalPlayer], work=200*
108: 0x0903 [0x52] END_LOAD_SCHEDULER: End scheduler "s120" with entities [LocalPlayer, LocalPlayer], work=626*
109: 0x0912 [0x46] CAMERA_CONTROL: Restore default settings
110: 0x0914 [0x45] LOAD_SCHEDULED_TASK: Load scheduler "fdi2" with entities [LocalPlayer, LocalPlayer], work=[200*, 0*]
111: 0x0925 [0x21] END_EVENT
112: 0x0926 [0x00] END_REQSTACK()
```

### Event 62

#### Metadata

| Field        | Value      |
|--------------|------------|
| Entrypoint   | 0x0927     |
| Data Size    | 1493 bytes |
| Instructions | 167        |

```
      00 01 02 03 04 05 06 07  08 09 0A 0B 0C 0D 0E 0F
      -- -- -- -- -- -- -- --  -- -- -- -- -- -- -- --
0920:                      42  45 04 80 F0 FF FF 7F F0         BE.......
0930: FF FF 7F 66 64 6F 31 00  80 55 04 80 F0 FF FF 7F  ...fdo1..U......
0940: F0 FF FF 7F 66 64 6F 31  46 01 38 29 80 2F 00 EE  ....fdo1F.8)./..
0950: 92 10 01 4E 00 EE 92 10  01 94 01 EE 92 10 01 94  ...N............
0960: 01 ED 92 10 01 94 01 F0  FF FF 7F BA F0 FF FF 7F  ................
0970: 2A 80 2B 80 2C 80 2D 80  BA EE 92 10 01 56 80 57  *.+.,.-......V.W
0980: 80 58 80 59 80 80 F0 FF  FF 7F 80 ED 92 10 01 80  .X.Y............
0990: EE 92 10 01 4A F0 FF FF  7F ED 92 10 01 4A ED 92  ....J........J..
09A0: 10 01 F0 FF FF 7F 1C 0F  80 45 5A 80 F0 FF FF 7F  .........EZ.....
09B0: F0 FF FF 7F 73 30 33 31  00 80 1C 12 80 45 04 80  ....s031.....E..
09C0: F0 FF FF 7F F0 FF FF 7F  66 64 69 31 00 80 66 44  ........fdi1..fD
09D0: 80 ED 92 10 01 ED 92 10  01 74 6C 6B 30 2B ED 92  .........tlk0+..
09E0: 10 01 5B 80 23 66 44 80  ED 92 10 01 ED 92 10 01  ..[.#fD.........
09F0: 74 6C 6B 31 27 05 EE 92  10 01 03 1C 0F 80 52 5A  tlk1'.........RZ
0A00: 80 F0 FF FF 7F F0 FF FF  7F 73 30 33 31 45 5A 80  .........s031EZ.
0A10: F0 FF FF 7F F0 FF FF 7F  73 30 33 32 00 80 2B EE  ........s032..+.
0A20: 92 10 01 5C 80 23 79 00  ED 92 10 01 EE 92 10 01  ...\.#y.........
0A30: 2B ED 92 10 01 5D 80 23  2A 05 EE 92 10 01 66 5E  +....].#*.....f^
0A40: 80 EE 92 10 01 EE 92 10  01 74 6C 6B 30 52 5A 80  .........tlk0RZ.
0A50: F0 FF FF 7F F0 FF FF 7F  73 30 33 32 45 5A 80 F0  ........s032EZ..
0A60: FF FF 7F F0 FF FF 7F 73  30 33 33 00 80 2B EE 92  .......s033..+..
0A70: 10 01 5F 80 23 66 5E 80  EE 92 10 01 EE 92 10 01  .._.#f^.........
0A80: 74 6C 6B 31 52 5A 80 F0  FF FF 7F F0 FF FF 7F 73  tlk1RZ.........s
0A90: 30 33 33 45 5A 80 F0 FF  FF 7F F0 FF FF 7F 73 30  033EZ.........s0
0AA0: 33 34 00 80 2B ED 92 10  01 60 80 23 79 00 EE 92  34..+....`.#y...
0AB0: 10 01 F0 FF FF 7F 2B EE  92 10 01 61 80 23 52 5A  ......+....a.#RZ
0AC0: 80 F0 FF FF 7F F0 FF FF  7F 73 30 33 34 45 5A 80  .........s034EZ.
0AD0: F0 FF FF 7F F0 FF FF 7F  73 30 33 35 00 80 6E ED  ........s035..n.
0AE0: 92 10 01 1C 80 99 ED 92  10 01 79 00 EE 92 10 01  ..........y.....
0AF0: ED 92 10 01 2B ED 92 10  01 62 80 23 2B ED 92 10  ....+....b.#+...
0B00: 01 63 80 23 52 5A 80 F0  FF FF 7F F0 FF FF 7F 73  .c.#RZ.........s
0B10: 30 33 35 45 5A 80 F0 FF  FF 7F F0 FF FF 7F 73 30  035EZ.........s0
0B20: 33 36 00 80 6E EE 92 10  01 47 80 99 EE 92 10 01  36..n....G......
0B30: 2B EE 92 10 01 64 80 23  52 5A 80 F0 FF FF 7F F0  +....d.#RZ......
0B40: FF FF 7F 73 30 33 36 45  5A 80 F0 FF FF 7F F0 FF  ...s036EZ.......
0B50: FF 7F 73 30 33 37 00 80  66 44 80 ED 92 10 01 ED  ..s037..fD......
0B60: 92 10 01 74 6C 6B 30 2B  ED 92 10 01 65 80 23 2B  ...tlk0+....e.#+
0B70: ED 92 10 01 66 80 23 66  44 80 ED 92 10 01 ED 92  ....f.#fD.......
0B80: 10 01 74 6C 6B 31 52 5A  80 F0 FF FF 7F F0 FF FF  ..tlk1RZ........
0B90: 7F 73 30 33 37 02 87 7F  17 80 80 B1 0B 45 5A 80  .s037........EZ.
0BA0: F0 FF FF 7F F0 FF FF 7F  73 30 33 39 00 80 01 DE  ........s039....
0BB0: 0B 02 87 7F 1F 80 80 CD  0B 45 5A 80 F0 FF FF 7F  .........EZ.....
0BC0: F0 FF FF 7F 73 30 33 39  00 80 01 DE 0B 45 5A 80  ....s039.....EZ.
0BD0: F0 FF FF 7F F0 FF FF 7F  73 30 33 38 00 80 2B EE  ........s038..+.
0BE0: 92 10 01 67 80 23 52 5A  80 F0 FF FF 7F F0 FF FF  ...g.#RZ........
0BF0: 7F 73 30 33 38 52 5A 80  F0 FF FF 7F F0 FF FF 7F  .s038RZ.........
0C00: 73 30 33 39 45 5A 80 F0  FF FF 7F F0 FF FF 7F 73  s039EZ.........s
0C10: 30 34 30 00 80 66 44 80  ED 92 10 01 ED 92 10 01  040..fD.........
0C20: 74 6C 6B 30 2B ED 92 10  01 68 80 23 2B ED 92 10  tlk0+....h.#+...
0C30: 01 69 80 23 2B ED 92 10  01 6A 80 23 66 44 80 ED  .i.#+....j.#fD..
0C40: 92 10 01 ED 92 10 01 74  6C 6B 31 52 5A 80 F0 FF  .......tlk1RZ...
0C50: FF 7F F0 FF FF 7F 73 30  34 30 45 5A 80 F0 FF FF  ......s040EZ....
0C60: 7F F0 FF FF 7F 73 30 34  31 00 80 66 5E 80 EE 92  .....s041..f^...
0C70: 10 01 EE 92 10 01 74 6C  6B 30 2B EE 92 10 01 6B  ......tlk0+....k
0C80: 80 23 66 5E 80 EE 92 10  01 EE 92 10 01 74 6C 6B  .#f^.........tlk
0C90: 31 6E ED 92 10 01 20 80  99 ED 92 10 01 2B ED 92  1n.... ......+..
0CA0: 10 01 6C 80 23 52 5A 80  F0 FF FF 7F F0 FF FF 7F  ..l.#RZ.........
0CB0: 73 30 34 31 45 5A 80 F0  FF FF 7F F0 FF FF 7F 73  s041EZ.........s
0CC0: 30 34 32 00 80 27 05 F0  FF FF 7F 02 1C 42 80 27  042..'.......B.'
0CD0: 05 F0 FF FF 7F 03 1C 15  80 52 5A 80 F0 FF FF 7F  .........RZ.....
0CE0: F0 FF FF 7F 73 30 34 32  45 5A 80 F0 FF FF 7F F0  ....s042EZ......
0CF0: FF FF 7F 73 30 34 33 00  80 79 00 ED 92 10 01 F0  ...s043..y......
0D00: FF FF 7F 2B ED 92 10 01  6D 80 23 66 44 80 ED 92  ...+....m.#fD...
0D10: 10 01 ED 92 10 01 74 6C  6B 30 2B ED 92 10 01 6E  ......tlk0+....n
0D20: 80 23 2B ED 92 10 01 6F  80 23 66 44 80 ED 92 10  .#+....o.#fD....
0D30: 01 ED 92 10 01 74 6C 6B  31 52 5A 80 F0 FF FF 7F  .....tlk1RZ.....
0D40: F0 FF FF 7F 73 30 34 33  45 5A 80 F0 FF FF 7F F0  ....s043EZ......
0D50: FF FF 7F 73 30 34 34 00  80 27 05 F0 FF FF 7F 06  ...s044..'......
0D60: 1C 19 80 52 5A 80 F0 FF  FF 7F F0 FF FF 7F 73 30  ...RZ.........s0
0D70: 34 34 45 5A 80 F0 FF FF  7F F0 FF FF 7F 73 30 34  44EZ.........s04
0D80: 35 00 80 2B ED 92 10 01  70 80 23 52 5A 80 F0 FF  5..+....p.#RZ...
0D90: FF 7F F0 FF FF 7F 73 30  34 35 45 5A 80 F0 FF FF  ......s045EZ....
0DA0: 7F F0 FF FF 7F 73 30 34  36 00 80 66 44 80 ED 92  .....s046..fD...
0DB0: 10 01 ED 92 10 01 74 68  6B 31 2B ED 92 10 01 71  ......thk1+....q
0DC0: 80 23 2B ED 92 10 01 72  80 23 52 5A 80 F0 FF FF  .#+....r.#RZ....
0DD0: 7F F0 FF FF 7F 73 30 34  36 45 5A 80 F0 FF FF 7F  .....s046EZ.....
0DE0: F0 FF FF 7F 73 30 34 37  00 80 66 44 80 ED 92 10  ....s047..fD....
0DF0: 01 ED 92 10 01 74 68 6B  32 2B ED 92 10 01 73 80  .....thk2+....s.
0E00: 23 66 44 80 ED 92 10 01  ED 92 10 01 74 6C 6B 30  #fD.........tlk0
0E10: 2B ED 92 10 01 74 80 23  66 44 80 ED 92 10 01 ED  +....t.#fD......
0E20: 92 10 01 74 6C 6B 31 52  5A 80 F0 FF FF 7F F0 FF  ...tlk1RZ.......
0E30: FF 7F 73 30 34 37 02 87  7F 17 80 80 52 0E 45 5A  ..s047......R.EZ
0E40: 80 F0 FF FF 7F F0 FF FF  7F 73 30 33 39 00 80 01  .........s039...
0E50: 7F 0E 02 87 7F 1F 80 80  6E 0E 45 5A 80 F0 FF FF  ........n.EZ....
0E60: 7F F0 FF FF 7F 73 30 33  39 00 80 01 7F 0E 45 5A  .....s039.....EZ
0E70: 80 F0 FF FF 7F F0 FF FF  7F 73 30 33 38 00 80 6E  .........s038..n
0E80: EE 92 10 01 20 80 99 EE  92 10 01 6E F0 FF FF 7F  .... ......n....
0E90: 75 80 99 F0 FF FF 7F 2B  EE 92 10 01 76 80 23 45  u......+....v.#E
0EA0: 04 80 F0 FF FF 7F F0 FF  FF 7F 66 64 6F 31 00 80  ..........fdo1..
0EB0: 55 04 80 F0 FF FF 7F F0  FF FF 7F 66 64 6F 31 52  U..........fdo1R
0EC0: 5A 80 F0 FF FF 7F F0 FF  FF 7F 73 30 33 38 52 5A  Z.........s038RZ
0ED0: 80 F0 FF FF 7F F0 FF FF  7F 73 30 33 39 29 05 EE  .........s039)..
0EE0: 92 10 01 04 1C 28 80 46  00 45 04 80 F0 FF FF 7F  .....(.F.E......
0EF0: F0 FF FF 7F 66 64 69 32  00 80 21 00              ....fdi2..!.    
```

#### Opcodes

```
  0: 0x0927 [0x42] SET_CLI_EVENT_CANCEL_DATA()
  1: 0x0928 [0x45] LOAD_SCHEDULED_TASK: Load scheduler "fdo1" with entities [LocalPlayer, LocalPlayer], work=[200*, 0*]
  2: 0x0939 [0x55] WAIT_LOAD_SCHEDULER: Wait for scheduler "fdo1" with entities [LocalPlayer, LocalPlayer], work=200*
  3: 0x0948 [0x46] CAMERA_CONTROL: Disable user control
  4: 0x094A [0x38] SET_CLIENT_EVENT_MODE(mode=19*)
  5: 0x094D [0x2F] Donda-Bonda (ID: 17863406/0x011092EE)->Render.Flags0 &= ~0x80000 // Bit 19
  6: 0x0953 [0x4E] SET_ENTITY_HIDE_FLAG: Show Donda-Bonda (ID: 17863406/0x011092EE)
  7: 0x0959 [0x94] Donda-Bonda (ID: 17863406/0x011092EE)->Render.Flags3 ^= 0x01
  8: 0x095F [0x94] Borghest (ID: 17863405/0x011092ED)->Render.Flags3 ^= 0x01
  9: 0x0965 [0x94] LocalPlayer->Render.Flags3 ^= 0x01
 10: 0x096B [0xBA] SET_ENTITY_POSITION(entity_id=LocalPlayer, pos_x=441.540*, pos_z=-345.961*, pos_y=-15.400*, direction=177.4°*)
 11: 0x0978 [0xBA] SET_ENTITY_POSITION(entity_id=Donda-Bonda (ID: 17863406/0x011092EE), pos_x=447.736*, pos_z=-349.461*, pos_y=-15.907*, direction=183.0°*)
 12: 0x0985 [0x80] LOAD_WAIT(entity=LocalPlayer)
 13: 0x098A [0x80] LOAD_WAIT(entity=Borghest (ID: 17863405/0x011092ED))
 14: 0x098F [0x80] LOAD_WAIT(entity=Donda-Bonda (ID: 17863406/0x011092EE))
 15: 0x0994 [0x4A] LocalPlayer looks at Borghest (ID: 17863405/0x011092ED)
 16: 0x099D [0x4A] Borghest (ID: 17863405/0x011092ED) looks at LocalPlayer
 17: 0x09A6 [0x1C] WAIT(30* ticks)
 18: 0x09A9 [0x45] LOAD_SCHEDULED_TASK: Load scheduler "s031" with entities [LocalPlayer, LocalPlayer], work=[747*, 0*]
 19: 0x09BA [0x1C] WAIT(15* ticks)
 20: 0x09BD [0x45] LOAD_SCHEDULED_TASK: Load scheduler "fdi1" with entities [LocalPlayer, LocalPlayer], work=[200*, 0*]
 21: 0x09CE [0x66] LOAD_EXT_SCHEDULER_MAIN: Load scheduler "tlk0" with entities [Borghest (ID: 17863405/0x011092ED), Borghest (ID: 17863405/0x011092ED)], work=69*
 22: 0x09DD [0x2B] Borghest (ID: 17863405/0x011092ED) [8086*]:
    → "Fine day for you to be trottin' out here, <Player>. If you're here lookin' for answers 'bout that whole disease debacle, I'm 'fraid you won't ding nothin'."
 23: 0x09E4 [0x23] WAIT_FOR_DIALOG_INTERACTION
 24: 0x09E5 [0x66] LOAD_EXT_SCHEDULER_MAIN: Load scheduler "tlk1" with entities [Borghest (ID: 17863405/0x011092ED), Borghest (ID: 17863405/0x011092ED)], work=69*
 25: 0x09F4 [0x27] REQ_SET(priority=0x05, entity_id=Donda-Bonda (ID: 17863406/0x011092EE), tag_num=0x03)
 26: 0x09FB [0x1C] WAIT(30* ticks)
 27: 0x09FE [0x52] END_LOAD_SCHEDULER: End scheduler "s031" with entities [LocalPlayer, LocalPlayer], work=747*
 28: 0x0A0D [0x45] LOAD_SCHEDULED_TASK: Load scheduler "s032" with entities [LocalPlayer, LocalPlayer], work=[747*, 0*]
 29: 0x0A1E [0x2B] Donda-Bonda (ID: 17863406/0x011092EE) [8087*]:
    → "Have you seen Logan? Please--it's urgent!"
 30: 0x0A25 [0x23] WAIT_FOR_DIALOG_INTERACTION
 31: 0x0A26 [0x79] Borghest (ID: 17863405/0x011092ED) looks at Donda-Bonda (ID: 17863406/0x011092EE) (Basic look)
 32: 0x0A30 [0x2B] Borghest (ID: 17863405/0x011092ED) [8088*]:
    → "Hm? Did ya bring some chaff in with your wheat?"
 33: 0x0A37 [0x23] WAIT_FOR_DIALOG_INTERACTION
 34: 0x0A38 [0x2A] GET_REQ_LEVEL(level=5, entity_id=Donda-Bonda (ID: 17863406/0x011092EE))
 35: 0x0A3E [0x66] LOAD_EXT_SCHEDULER_MAIN: Load scheduler "tlk0" with entities [Donda-Bonda (ID: 17863406/0x011092EE), Donda-Bonda (ID: 17863406/0x011092EE)], work=9*
 36: 0x0A4D [0x52] END_LOAD_SCHEDULER: End scheduler "s032" with entities [LocalPlayer, LocalPlayer], work=747*
 37: 0x0A5C [0x45] LOAD_SCHEDULED_TASK: Load scheduler "s033" with entities [LocalPlayer, LocalPlayer], work=[747*, 0*]
 38: 0x0A6D [0x2B] Donda-Bonda (ID: 17863406/0x011092EE) [8089*]:
    → "I'm Othellius, healer from the Order of Janniston. Your man Logan slipped away from our infirmary, and we're afraid he may be in trouble."
 39: 0x0A74 [0x23] WAIT_FOR_DIALOG_INTERACTION
 40: 0x0A75 [0x66] LOAD_EXT_SCHEDULER_MAIN: Load scheduler "tlk1" with entities [Donda-Bonda (ID: 17863406/0x011092EE), Donda-Bonda (ID: 17863406/0x011092EE)], work=9*
 41: 0x0A84 [0x52] END_LOAD_SCHEDULER: End scheduler "s033" with entities [LocalPlayer, LocalPlayer], work=747*
 42: 0x0A93 [0x45] LOAD_SCHEDULED_TASK: Load scheduler "s034" with entities [LocalPlayer, LocalPlayer], work=[747*, 0*]
 43: 0x0AA4 [0x2B] Borghest (ID: 17863405/0x011092ED) [8090*]:
    → "Logan did what, now?"
 44: 0x0AAB [0x23] WAIT_FOR_DIALOG_INTERACTION
 45: 0x0AAC [0x79] Donda-Bonda (ID: 17863406/0x011092EE) looks at LocalPlayer (Basic look)
 46: 0x0AB6 [0x2B] Donda-Bonda (ID: 17863406/0x011092EE) [8091*]:
    → "Your pioneer friend explained to us that he may be off hunting some unknown quarry."
 47: 0x0ABD [0x23] WAIT_FOR_DIALOG_INTERACTION
 48: 0x0ABE [0x52] END_LOAD_SCHEDULER: End scheduler "s034" with entities [LocalPlayer, LocalPlayer], work=747*
 49: 0x0ACD [0x45] LOAD_SCHEDULED_TASK: Load scheduler "s035" with entities [LocalPlayer, LocalPlayer], work=[747*, 0*]
 50: 0x0ADE [0x6E] Borghest (ID: 17863405/0x011092ED) uses emote 4*
 51: 0x0AE5 [0x99] Wait for Borghest (ID: 17863405/0x011092ED) animation to complete
 52: 0x0AEA [0x79] Donda-Bonda (ID: 17863406/0x011092EE) looks at Borghest (ID: 17863405/0x011092ED) (Basic look)
 53: 0x0AF4 [0x2B] Borghest (ID: 17863405/0x011092ED) [8092*]:
    → "Gwahaha! Looks like the boy's not quite the fragile ballerina I'd pegged him as!"
 54: 0x0AFB [0x23] WAIT_FOR_DIALOG_INTERACTION
 55: 0x0AFC [0x2B] Borghest (ID: 17863405/0x011092ED) [8093*]:
    → "Ah, it does me good to know that not even the most frightful of plagues can hamper his love for colonization."
 56: 0x0B03 [0x23] WAIT_FOR_DIALOG_INTERACTION
 57: 0x0B04 [0x52] END_LOAD_SCHEDULER: End scheduler "s035" with entities [LocalPlayer, LocalPlayer], work=747*
 58: 0x0B13 [0x45] LOAD_SCHEDULED_TASK: Load scheduler "s036" with entities [LocalPlayer, LocalPlayer], work=[747*, 0*]
 59: 0x0B24 [0x6E] Donda-Bonda (ID: 17863406/0x011092EE) uses emote 25*
 60: 0x0B2B [0x99] Wait for Donda-Bonda (ID: 17863406/0x011092EE) animation to complete
 61: 0x0B30 [0x2B] Donda-Bonda (ID: 17863406/0x011092EE) [8094*]:
    → "This is no time for jokes! Has your time in the wilds stripped you of all sense of danger and urgency!?"
 62: 0x0B37 [0x23] WAIT_FOR_DIALOG_INTERACTION
 63: 0x0B38 [0x52] END_LOAD_SCHEDULER: End scheduler "s036" with entities [LocalPlayer, LocalPlayer], work=747*
 64: 0x0B47 [0x45] LOAD_SCHEDULED_TASK: Load scheduler "s037" with entities [LocalPlayer, LocalPlayer], work=[747*, 0*]
 65: 0x0B58 [0x66] LOAD_EXT_SCHEDULER_MAIN: Load scheduler "tlk0" with entities [Borghest (ID: 17863405/0x011092ED), Borghest (ID: 17863405/0x011092ED)], work=69*
 66: 0x0B67 [0x2B] Borghest (ID: 17863405/0x011092ED) [8095*]:
    → "It's not all that, lad. Calm yourself down and we'll whip ourselves up a plan."
 67: 0x0B6E [0x23] WAIT_FOR_DIALOG_INTERACTION
 68: 0x0B6F [0x2B] Borghest (ID: 17863405/0x011092ED) [8096*]:
    → "Not that he's been here, 'course, but I've got an inkling of where he might have traipsed off to."
 69: 0x0B76 [0x23] WAIT_FOR_DIALOG_INTERACTION
 70: 0x0B77 [0x66] LOAD_EXT_SCHEDULER_MAIN: Load scheduler "tlk1" with entities [Borghest (ID: 17863405/0x011092ED), Borghest (ID: 17863405/0x011092ED)], work=69*
 71: 0x0B86 [0x52] END_LOAD_SCHEDULER: End scheduler "s037" with entities [LocalPlayer, LocalPlayer], work=747*
 72: 0x0B95 [0x02] IF !(LocalPlayer->Race == 5*) GOTO 0x0BB1
 73: 0x0B9D [0x45] LOAD_SCHEDULED_TASK: Load scheduler "s039" with entities [LocalPlayer, LocalPlayer], work=[747*, 0*]
 74: 0x0BAE [0x01] GOTO 0x0BDE
 75: 0x0BB1 [0x02] IF !(LocalPlayer->Race == 6*) GOTO 0x0BCD
 76: 0x0BB9 [0x45] LOAD_SCHEDULED_TASK: Load scheduler "s039" with entities [LocalPlayer, LocalPlayer], work=[747*, 0*]
 77: 0x0BCA [0x01] GOTO 0x0BDE
 78: 0x0BCD [0x45] LOAD_SCHEDULED_TASK: Load scheduler "s038" with entities [LocalPlayer, LocalPlayer], work=[747*, 0*]

SUBROUTINE_0BDE:
 79: 0x0BDE [0x2B] Donda-Bonda (ID: 17863406/0x011092EE) [8097*]:
    → "Then...you know where he is?"
 80: 0x0BE5 [0x23] WAIT_FOR_DIALOG_INTERACTION
 81: 0x0BE6 [0x52] END_LOAD_SCHEDULER: End scheduler "s038" with entities [LocalPlayer, LocalPlayer], work=747*
 82: 0x0BF5 [0x52] END_LOAD_SCHEDULER: End scheduler "s039" with entities [LocalPlayer, LocalPlayer], work=747*
 83: 0x0C04 [0x45] LOAD_SCHEDULED_TASK: Load scheduler "s040" with entities [LocalPlayer, LocalPlayer], work=[747*, 0*]
 84: 0x0C15 [0x66] LOAD_EXT_SCHEDULER_MAIN: Load scheduler "tlk0" with entities [Borghest (ID: 17863405/0x011092ED), Borghest (ID: 17863405/0x011092ED)], work=69*
 85: 0x0C24 [0x2B] Borghest (ID: 17863405/0x011092ED) [8098*]:
    → "Couldn't tell you exactly where, no, but I'd wager a flagon that he's off tryin' to ransack a morbol."
 86: 0x0C2B [0x23] WAIT_FOR_DIALOG_INTERACTION
 87: 0x0C2C [0x2B] Borghest (ID: 17863405/0x011092ED) [8099*]:
    → "You mostly see 'em here in the basalt fields, but--and this is where things get interesting--there's been sightings of some o'er in Yorcia Weald."
 88: 0x0C33 [0x23] WAIT_FOR_DIALOG_INTERACTION
 89: 0x0C34 [0x2B] Borghest (ID: 17863405/0x011092ED) [8100*]:
    → "Curiosity got the hold of your patient 'fore he fell ill, and he went off to investigate the menace. Got himself more than a couple bruises, at that."
 90: 0x0C3B [0x23] WAIT_FOR_DIALOG_INTERACTION
 91: 0x0C3C [0x66] LOAD_EXT_SCHEDULER_MAIN: Load scheduler "tlk1" with entities [Borghest (ID: 17863405/0x011092ED), Borghest (ID: 17863405/0x011092ED)], work=69*
 92: 0x0C4B [0x52] END_LOAD_SCHEDULER: End scheduler "s040" with entities [LocalPlayer, LocalPlayer], work=747*
 93: 0x0C5A [0x45] LOAD_SCHEDULED_TASK: Load scheduler "s041" with entities [LocalPlayer, LocalPlayer], work=[747*, 0*]
 94: 0x0C6B [0x66] LOAD_EXT_SCHEDULER_MAIN: Load scheduler "tlk0" with entities [Donda-Bonda (ID: 17863406/0x011092EE), Donda-Bonda (ID: 17863406/0x011092EE)], work=9*
 95: 0x0C7A [0x2B] Donda-Bonda (ID: 17863406/0x011092EE) [8101*]:
    → "He went off to Yorcia Weald?"
 96: 0x0C81 [0x23] WAIT_FOR_DIALOG_INTERACTION
 97: 0x0C82 [0x66] LOAD_EXT_SCHEDULER_MAIN: Load scheduler "tlk1" with entities [Donda-Bonda (ID: 17863406/0x011092EE), Donda-Bonda (ID: 17863406/0x011092EE)], work=9*
 98: 0x0C91 [0x6E] Borghest (ID: 17863405/0x011092ED) uses emote 7*
 99: 0x0C98 [0x99] Wait for Borghest (ID: 17863405/0x011092ED) animation to complete
100: 0x0C9D [0x2B] Borghest (ID: 17863405/0x011092ED) [8102*]:
    → "Yup. We'll give you a hand--Logan is as much our charge as yours."
101: 0x0CA4 [0x23] WAIT_FOR_DIALOG_INTERACTION
102: 0x0CA5 [0x52] END_LOAD_SCHEDULER: End scheduler "s041" with entities [LocalPlayer, LocalPlayer], work=747*
103: 0x0CB4 [0x45] LOAD_SCHEDULED_TASK: Load scheduler "s042" with entities [LocalPlayer, LocalPlayer], work=[747*, 0*]
104: 0x0CC5 [0x27] REQ_SET(priority=0x05, entity_id=LocalPlayer, tag_num=0x02)
105: 0x0CCC [0x1C] WAIT(80* ticks)
106: 0x0CCF [0x27] REQ_SET(priority=0x05, entity_id=LocalPlayer, tag_num=0x03)
107: 0x0CD6 [0x1C] WAIT(40* ticks)
108: 0x0CD9 [0x52] END_LOAD_SCHEDULER: End scheduler "s042" with entities [LocalPlayer, LocalPlayer], work=747*
109: 0x0CE8 [0x45] LOAD_SCHEDULED_TASK: Load scheduler "s043" with entities [LocalPlayer, LocalPlayer], work=[747*, 0*]
110: 0x0CF9 [0x79] Borghest (ID: 17863405/0x011092ED) looks at LocalPlayer (Basic look)
111: 0x0D03 [0x2B] Borghest (ID: 17863405/0x011092ED) [8103*]:
    → "What's this, then? You crossed a morbol over in Foret de Hennetiel?"
112: 0x0D0A [0x23] WAIT_FOR_DIALOG_INTERACTION
113: 0x0D0B [0x66] LOAD_EXT_SCHEDULER_MAIN: Load scheduler "tlk0" with entities [Borghest (ID: 17863405/0x011092ED), Borghest (ID: 17863405/0x011092ED)], work=69*
114: 0x0D1A [0x2B] Borghest (ID: 17863405/0x011092ED) [8104*]:
    → "Hang on there, sport. Did you come across a dagger thrust into its side?"
115: 0x0D21 [0x23] WAIT_FOR_DIALOG_INTERACTION
116: 0x0D22 [0x2B] Borghest (ID: 17863405/0x011092ED) [8105*]:
    → "Logan'd mentioned he plunged his dagger into the beast somethin' fierce, but it lumbered away with the blade still embedded in its flesh."
117: 0x0D29 [0x23] WAIT_FOR_DIALOG_INTERACTION
118: 0x0D2A [0x66] LOAD_EXT_SCHEDULER_MAIN: Load scheduler "tlk1" with entities [Borghest (ID: 17863405/0x011092ED), Borghest (ID: 17863405/0x011092ED)], work=69*
119: 0x0D39 [0x52] END_LOAD_SCHEDULER: End scheduler "s043" with entities [LocalPlayer, LocalPlayer], work=747*
120: 0x0D48 [0x45] LOAD_SCHEDULED_TASK: Load scheduler "s044" with entities [LocalPlayer, LocalPlayer], work=[747*, 0*]
121: 0x0D59 [0x27] REQ_SET(priority=0x05, entity_id=LocalPlayer, tag_num=0x06)
122: 0x0D60 [0x1C] WAIT(150* ticks)
123: 0x0D63 [0x52] END_LOAD_SCHEDULER: End scheduler "s044" with entities [LocalPlayer, LocalPlayer], work=747*
124: 0x0D72 [0x45] LOAD_SCHEDULED_TASK: Load scheduler "s045" with entities [LocalPlayer, LocalPlayer], work=[747*, 0*]
125: 0x0D83 [0x2B] Borghest (ID: 17863405/0x011092ED) [8106*]:
    → "Th-that's Logan's blade, alright! Found it in Foret de Hennetiel, huh?"
126: 0x0D8A [0x23] WAIT_FOR_DIALOG_INTERACTION
127: 0x0D8B [0x52] END_LOAD_SCHEDULER: End scheduler "s045" with entities [LocalPlayer, LocalPlayer], work=747*
128: 0x0D9A [0x45] LOAD_SCHEDULED_TASK: Load scheduler "s046" with entities [LocalPlayer, LocalPlayer], work=[747*, 0*]
129: 0x0DAB [0x66] LOAD_EXT_SCHEDULER_MAIN: Load scheduler "thk1" with entities [Borghest (ID: 17863405/0x011092ED), Borghest (ID: 17863405/0x011092ED)], work=69*
130: 0x0DBA [0x2B] Borghest (ID: 17863405/0x011092ED) [8107*]:
    → "I'd wager that's as good a place to start looking as any."
131: 0x0DC1 [0x23] WAIT_FOR_DIALOG_INTERACTION
132: 0x0DC2 [0x2B] Borghest (ID: 17863405/0x011092ED) [8108*]:
    → "I tell you, <Player>, you're quicker on your feet than those lazy oafs at the station."
133: 0x0DC9 [0x23] WAIT_FOR_DIALOG_INTERACTION
134: 0x0DCA [0x52] END_LOAD_SCHEDULER: End scheduler "s046" with entities [LocalPlayer, LocalPlayer], work=747*
135: 0x0DD9 [0x45] LOAD_SCHEDULED_TASK: Load scheduler "s047" with entities [LocalPlayer, LocalPlayer], work=[747*, 0*]
136: 0x0DEA [0x66] LOAD_EXT_SCHEDULER_MAIN: Load scheduler "thk2" with entities [Borghest (ID: 17863405/0x011092ED), Borghest (ID: 17863405/0x011092ED)], work=69*
137: 0x0DF9 [0x2B] Borghest (ID: 17863405/0x011092ED) [8109*]:
    → "But like I said--your first step is to head to Foret de Hennetiel."
138: 0x0E00 [0x23] WAIT_FOR_DIALOG_INTERACTION
139: 0x0E01 [0x66] LOAD_EXT_SCHEDULER_MAIN: Load scheduler "tlk0" with entities [Borghest (ID: 17863405/0x011092ED), Borghest (ID: 17863405/0x011092ED)], work=69*
140: 0x0E10 [0x2B] Borghest (ID: 17863405/0x011092ED) [8110*]:
    → "While the boys and I're doing what we can over in Yorcia Weald, the two of you should haul tail over to the frontier station out in the foret and see if you can find out anythin'."
141: 0x0E17 [0x23] WAIT_FOR_DIALOG_INTERACTION
142: 0x0E18 [0x66] LOAD_EXT_SCHEDULER_MAIN: Load scheduler "tlk1" with entities [Borghest (ID: 17863405/0x011092ED), Borghest (ID: 17863405/0x011092ED)], work=69*
143: 0x0E27 [0x52] END_LOAD_SCHEDULER: End scheduler "s047" with entities [LocalPlayer, LocalPlayer], work=747*
144: 0x0E36 [0x02] IF !(LocalPlayer->Race == 5*) GOTO 0x0E52
145: 0x0E3E [0x45] LOAD_SCHEDULED_TASK: Load scheduler "s039" with entities [LocalPlayer, LocalPlayer], work=[747*, 0*]
146: 0x0E4F [0x01] GOTO 0x0E7F
147: 0x0E52 [0x02] IF !(LocalPlayer->Race == 6*) GOTO 0x0E6E
148: 0x0E5A [0x45] LOAD_SCHEDULED_TASK: Load scheduler "s039" with entities [LocalPlayer, LocalPlayer], work=[747*, 0*]
149: 0x0E6B [0x01] GOTO 0x0E7F
150: 0x0E6E [0x45] LOAD_SCHEDULED_TASK: Load scheduler "s038" with entities [LocalPlayer, LocalPlayer], work=[747*, 0*]

SUBROUTINE_0E7F:
151: 0x0E7F [0x6E] Donda-Bonda (ID: 17863406/0x011092EE) uses emote 7*
152: 0x0E86 [0x99] Wait for Donda-Bonda (ID: 17863406/0x011092EE) animation to complete
153: 0x0E8B [0x6E] LocalPlayer uses emote 36*
154: 0x0E92 [0x99] Wait for LocalPlayer animation to complete
155: 0x0E97 [0x2B] Donda-Bonda (ID: 17863406/0x011092EE) [8111*]:
    → "Good plan."
156: 0x0E9E [0x23] WAIT_FOR_DIALOG_INTERACTION
157: 0x0E9F [0x45] LOAD_SCHEDULED_TASK: Load scheduler "fdo1" with entities [LocalPlayer, LocalPlayer], work=[200*, 0*]
158: 0x0EB0 [0x55] WAIT_LOAD_SCHEDULER: Wait for scheduler "fdo1" with entities [LocalPlayer, LocalPlayer], work=200*
159: 0x0EBF [0x52] END_LOAD_SCHEDULER: End scheduler "s038" with entities [LocalPlayer, LocalPlayer], work=747*
160: 0x0ECE [0x52] END_LOAD_SCHEDULER: End scheduler "s039" with entities [LocalPlayer, LocalPlayer], work=747*
161: 0x0EDD [0x29] REQ_SET_WAIT(priority=0x05, entity_id=Donda-Bonda (ID: 17863406/0x011092EE), tag_num=0x04)
162: 0x0EE4 [0x1C] WAIT(60* ticks)
163: 0x0EE7 [0x46] CAMERA_CONTROL: Restore default settings
164: 0x0EE9 [0x45] LOAD_SCHEDULED_TASK: Load scheduler "fdi2" with entities [LocalPlayer, LocalPlayer], work=[200*, 0*]
165: 0x0EFA [0x21] END_EVENT
166: 0x0EFB [0x00] END_REQSTACK()
```
