# 17863438

## Common Data

| Field            | Value                           |
|------------------|---------------------------------|
| Zone             | Morimar Basalt Fields (ID: 265) |
| Block Size       | 5192 bytes                      |
| Total Events     | 4                               |
| References Count | 146                             |

## List of Events

| Event ID              | Entrypoint   |   Size |   Instructions |
|-----------------------|--------------|--------|----------------|
| [65535](#event-65535) | 0x0000       |      1 |              1 |
| [66](#event-66)       | 0x0001       |    528 |             85 |
| [65](#event-65)       | 0x0211       |   2049 |            325 |
| [64](#event-64)       | 0x0A12       |   1995 |            290 |

## DAT References (imed_data)

|   Index | Hex Value   |   Dec Value |
|---------|-------------|-------------|
|       0 | 0x00C8      |         200 |
|       1 | 0x0000      |           0 |
|       2 | 0x001B      |          27 |
|       3 | 0x00F0      |         240 |
|       4 | 0x01E0      |         480 |
|       5 | 0x874C      |       34636 |
|       6 | 0x3B79A     |      243610 |
|       7 | 0xFFFFC17D  |  4294951293 |
|       8 | 0x0C1F      |        3103 |
|       9 | 0x7E09      |       32265 |
|      10 | 0x3AADC     |      240348 |
|      11 | 0xFFFFC23C  |  4294951484 |
|      12 | 0x0D47      |        3399 |
|      13 | 0x0039      |          57 |
|      14 | 0x02C5      |         709 |
|      15 | 0x000F      |          15 |
|      16 | 0x0096      |         150 |
|      17 | 0x1FF5      |        8181 |
|      18 | 0x0064      |         100 |
|      19 | 0x1FF6      |        8182 |
|      20 | 0x0028      |          40 |
|      21 | 0x0014      |          20 |
|      22 | 0x0032      |          50 |
|      23 | 0x0001      |           1 |
|      24 | 0x005A      |          90 |
|      25 | 0x1FF4      |        8180 |
|      26 | 0x0046      |          70 |
|      27 | 0x0078      |         120 |
|      28 | 0x003C      |          60 |
|      29 | 0x9EEC      |       40684 |
|      30 | 0x3CEB4     |      249524 |
|      31 | 0xFFFF701F  |  4294930463 |
|      32 | 0x941F      |       37919 |
|      33 | 0x3CA5A     |      248410 |
|      34 | 0xFFFF771A  |  4294932250 |
|      35 | 0x0050      |          80 |
|      36 | 0x1FCB      |        8139 |
|      37 | 0x1FCC      |        8140 |
|      38 | 0x1FCD      |        8141 |
|      39 | 0x1FCE      |        8142 |
|      40 | 0x1FCF      |        8143 |
|      41 | 0x0015      |          21 |
|      42 | 0x0082      |         130 |
|      43 | 0x1FD0      |        8144 |
|      44 | 0x1E6B      |        7787 |
|      45 | 0x1FD1      |        8145 |
|      46 | 0x001E      |          30 |
|      47 | 0x1FD2      |        8146 |
|      48 | 0x1FD3      |        8147 |
|      49 | 0x1FD4      |        8148 |
|      50 | 0x1FD5      |        8149 |
|      51 | 0x0002      |           2 |
|      52 | 0x000C      |          12 |
|      53 | 0x1FD6      |        8150 |
|      54 | 0x1FD7      |        8151 |
|      55 | 0x0044      |          68 |
|      56 | 0x1FD8      |        8152 |
|      57 | 0x1FD9      |        8153 |
|      58 | 0x1FDA      |        8154 |
|      59 | 0x1FDB      |        8155 |
|      60 | 0x1FDC      |        8156 |
|      61 | 0x1FDD      |        8157 |
|      62 | 0x1FDE      |        8158 |
|      63 | 0x1FDF      |        8159 |
|      64 | 0x1FE0      |        8160 |
|      65 | 0x1FE1      |        8161 |
|      66 | 0x1FE2      |        8162 |
|      67 | 0x1FE3      |        8163 |
|      68 | 0x05A7      |        1447 |
|      69 | 0x05B3      |        1459 |
|      70 | 0x1FE4      |        8164 |
|      71 | 0x1FE5      |        8165 |
|      72 | 0x1FE6      |        8166 |
|      73 | 0x1FE7      |        8167 |
|      74 | 0x1FE8      |        8168 |
|      75 | 0x1FE9      |        8169 |
|      76 | 0x1FEA      |        8170 |
|      77 | 0x1FEB      |        8171 |
|      78 | 0x958B      |       38283 |
|      79 | 0x3D2FD     |      250621 |
|      80 | 0xFFFF7428  |  4294931496 |
|      81 | 0x05DC      |        1500 |
|      82 | 0x0020      |          32 |
|      83 | 0x1FEC      |        8172 |
|      84 | 0x1FED      |        8173 |
|      85 | 0x1FEE      |        8174 |
|      86 | 0x1FEF      |        8175 |
|      87 | 0x1FF0      |        8176 |
|      88 | 0x03C0      |         960 |
|      89 | 0x1FF1      |        8177 |
|      90 | 0x1FF2      |        8178 |
|      91 | 0x1FF3      |        8179 |
|      92 | 0x0080      |         128 |
|      93 | 0x822F      |       33327 |
|      94 | 0x3B69B     |      243355 |
|      95 | 0xFFFFC1D7  |  4294951383 |
|      96 | 0x007F      |         127 |
|      97 | 0x49DD9     |      302553 |
|      98 | 0x62BE0     |      404448 |
|      99 | 0x0349      |         841 |
|     100 | 0x0BFD      |        3069 |
|     101 | 0x4A048     |      303176 |
|     102 | 0x5FD37     |      392503 |
|     103 | 0x007C      |         124 |
|     104 | 0x05F5      |        1525 |
|     105 | 0x1FB1      |        8113 |
|     106 | 0x0003      |           3 |
|     107 | 0x0004      |           4 |
|     108 | 0x0005      |           5 |
|     109 | 0x0006      |           6 |
|     110 | 0x0008      |           8 |
|     111 | 0x1FB2      |        8114 |
|     112 | 0x1FB3      |        8115 |
|     113 | 0x1FB4      |        8116 |
|     114 | 0x1FB5      |        8117 |
|     115 | 0x1FB6      |        8118 |
|     116 | 0x1FB7      |        8119 |
|     117 | 0x1FB8      |        8120 |
|     118 | 0x00B4      |         180 |
|     119 | 0x012C      |         300 |
|     120 | 0x0258      |         600 |
|     121 | 0x1FB9      |        8121 |
|     122 | 0x1FBA      |        8122 |
|     123 | 0x1FBB      |        8123 |
|     124 | 0x0007      |           7 |
|     125 | 0x0072      |         114 |
|     126 | 0x0016      |          22 |
|     127 | 0x1FBC      |        8124 |
|     128 | 0x1FBD      |        8125 |
|     129 | 0x0EC5      |        3781 |
|     130 | 0x1FBE      |        8126 |
|     131 | 0x0104      |         260 |
|     132 | 0x1FBF      |        8127 |
|     133 | 0x1FC0      |        8128 |
|     134 | 0x1FC1      |        8129 |
|     135 | 0x1FC2      |        8130 |
|     136 | 0x1FC3      |        8131 |
|     137 | 0x006E      |         110 |
|     138 | 0x1FC4      |        8132 |
|     139 | 0x1FC5      |        8133 |
|     140 | 0x1FC6      |        8134 |
|     141 | 0x1FC7      |        8135 |
|     142 | 0x1FC8      |        8136 |
|     143 | 0x1FC9      |        8137 |
|     144 | 0x1FCA      |        8138 |
|     145 | 0x002D      |          45 |

## String References

- **7787**: @@
- **8123**: How do you respond? [Sure did!/I did not.]
- **8146**: How do you react? [Let's read them./How ominous./Well, since the magma's right here...]
- **8158**: "Many centuries ago lived a primal geomancer and her five disciples.
- **8159**: "The primal geomancer was none other than Sih Renaye, mistress of the wind, and she was followed by her five students: Moh Rihimi the flamedancer; Nhe Gafokei, seeker of ice; Woh Iyengi, keeper of thunder; Dho Mukufeh, bearer of water...
- **8160**: "...And Zacariah, guardian of earth. We are his descendants.
- **8161**: "When Sih Renaye passed into the lifestream, her four Mithra disciples gave themselves up to the Greater Power, and became spiritual manifestations of its greatness.
- **8162**: "Zacariah was an expert in many techniques that would prove to be of use to Adoulin, so he stayed behind and returned to the city.
- **8163**: "First among these was his skill in clothcraft. Sih charged him with fashioning sacred garments like those she donned herself.
- **8164**: "Pieces of those garments--as well as the means to create them--have been handed down through the generations.
- **8165**: "I have traveled throughout not just the continent in search of crystals and cloth that react to the traces of energy the garments still harbor.
- **8166**: "After many years my search finally bore fruit.
- **8167**: "Unfortunately, what I was searching for could not be found in Ulbuka, but only in the Middle Lands.
- **8168**: "I fully intend to head there once our survey in Morimar Basalt Fields has been completed.
- **8169**: "My one fear is that something happens to me before I can fulfill my charge, so I kept the crystals and crafting methods safe.
- **8170**: "So I ask you, descendant of Zacariah, to carry out my will.
- **8171**: "Help ensure that the methods of producing these most holy of garments remain passed down unbroken from generation to generation."
- **8181**: How do you respond? [Reach out to her./Let her be.]

## Events

### Event 65535

#### Metadata

| Field        | Value   |
|--------------|---------|
| Entrypoint   | 0x0000  |
| Data Size    | 1 bytes |
| Instructions | 1       |

```
      00 01 02 03 04 05 06 07  08 09 0A 0B 0C 0D 0E 0F
      -- -- -- -- -- -- -- --  -- -- -- -- -- -- -- --
0000: 00                                                .               
```

#### Opcodes

```
  0: 0x0000 [0x00] END_REQSTACK()
```

### Event 66

#### Metadata

| Field        | Value     |
|--------------|-----------|
| Entrypoint   | 0x0001    |
| Data Size    | 528 bytes |
| Instructions | 85        |

```
      00 01 02 03 04 05 06 07  08 09 0A 0B 0C 0D 0E 0F
      -- -- -- -- -- -- -- --  -- -- -- -- -- -- -- --
0000:    42 45 00 80 F0 FF FF  7F F0 FF FF 7F 66 64 6F   BE..........fdo
0010: 31 01 80 55 00 80 F0 FF  FF 7F F0 FF FF 7F 66 64  1..U..........fd
0020: 6F 31 46 01 38 02 80 5C  A0 01 80 03 80 5C A1 01  o1F.8..\.....\..
0030: 80 04 80 4E 00 F0 FF FF  7F 4E 00 00 93 10 01 4E  ...N.....N.....N
0040: 00 11 93 10 01 2F 00 00  93 10 01 2F 00 11 93 10  ...../...../....
0050: 01 94 01 00 93 10 01 94  01 11 93 10 01 94 01 F0  ................
0060: FF FF 7F 92 01 00 93 10  01 BA 00 93 10 01 05 80  ................
0070: 06 80 07 80 08 80 BA F0  FF FF 7F 09 80 0A 80 0B  ................
0080: 80 0C 80 80 00 93 10 01  80 11 93 10 01 80 F0 FF  ................
0090: FF 7F 4A 00 93 10 01 11  93 10 01 4A 11 93 10 01  ..J........J....
00A0: 00 93 10 01 6F 76 00 93  10 01 6F 76 11 93 10 01  ....ov....ov....
00B0: 81 00 00 93 10 01 7B 00  93 10 01 27 08 11 93 10  ......{....'....
00C0: 01 06 29 08 00 93 10 01  4F 2A 08 11 93 10 01 5C  ..).....O*.....\
00D0: 00 01 80 5C 01 01 80 5C  02 0D 80 5C 03 0D 80 9A  ...\...\...\....
00E0: 45 0E 80 F8 FF FF 7F F8  FF FF 7F 73 30 31 33 01  E..........s013.
00F0: 80 1C 0F 80 45 00 80 F0  FF FF 7F F0 FF FF 7F 66  ....E..........f
0100: 64 69 31 01 80 1C 10 80  45 0E 80 F8 FF FF 7F F8  di1.....E.......
0110: FF FF 7F 73 30 31 34 01  80 24 11 80 01 80 01 80  ...s014..$......
0120: 25 02 00 10 01 80 00 53  01 27 08 F0 FF FF 7F 02  %......S.'......
0130: 1C 12 80 2A 08 F0 FF FF  7F 2B 00 93 10 01 13 80  ...*.....+......
0140: 1C 14 80 1C 15 80 27 08  F0 FF FF 7F 03 1C 16 80  ......'.........
0150: 01 7A 01 02 00 10 17 80  00 7A 01 6E F0 FF FF 7F  .z.......z.n....
0160: 15 80 99 F0 FF FF 7F 1C  18 80 2B 00 93 10 01 19  ..........+.....
0170: 80 1C 14 80 1C 1A 80 01  7A 01 23 52 0E 80 F8 FF  ........z.#R....
0180: FF 7F F8 FF FF 7F 73 30  31 34 45 0E 80 F8 FF FF  ......s014E.....
0190: 7F F8 FF FF 7F 73 30 31  35 01 80 1C 1B 80 45 00  .....s015.....E.
01A0: 80 F0 FF FF 7F F0 FF FF  7F 66 64 6F 31 01 80 55  .........fdo1..U
01B0: 00 80 F0 FF FF 7F F0 FF  FF 7F 66 64 6F 31 52 0E  ..........fdo1R.
01C0: 80 F8 FF FF 7F F8 FF FF  7F 73 30 31 35 81 01 00  .........s015...
01D0: 93 10 01 4E 01 00 93 10  01 4E 01 11 93 10 01 5C  ...N.....N.....\
01E0: 00 1C 80 5C 01 1C 80 5C  02 0D 80 5C 03 0D 80 9A  ...\...\...\....
01F0: 1C 0F 80 AB 11 01 80 1C  17 80 AB 0A 46 00 45 00  ............F.E.
0200: 80 F0 FF FF 7F F0 FF FF  7F 66 64 69 32 01 80 21  .........fdi2..!
0210: 00                                                .               
```

#### Opcodes

```
  0: 0x0001 [0x42] SET_CLI_EVENT_CANCEL_DATA()
  1: 0x0002 [0x45] LOAD_SCHEDULED_TASK: Load scheduler "fdo1" with entities [LocalPlayer, LocalPlayer], work=[200*, 0*]
  2: 0x0013 [0x55] WAIT_LOAD_SCHEDULER: Wait for scheduler "fdo1" with entities [LocalPlayer, LocalPlayer], work=200*
  3: 0x0022 [0x46] CAMERA_CONTROL: Disable user control
  4: 0x0024 [0x38] SET_CLIENT_EVENT_MODE(mode=27*)
  5: 0x0027 [0x5C] MUSIC_CONTROL: Set music volume to song 0*, fade_time=240*
  6: 0x002D [0x5C] MUSIC_CONTROL: Adjust music volume to song 0*, fade_time=480*
  7: 0x0033 [0x4E] SET_ENTITY_HIDE_FLAG: Show LocalPlayer
  8: 0x0039 [0x4E] SET_ENTITY_HIDE_FLAG: Show Sylvie (ID: 17863424/0x01109300)
  9: 0x003F [0x4E] SET_ENTITY_HIDE_FLAG: Show Unnamed NPC (ID: 17863441/0x01109311)
 10: 0x0045 [0x2F] Sylvie (ID: 17863424/0x01109300)->Render.Flags0 &= ~0x80000 // Bit 19
 11: 0x004B [0x2F] Unnamed NPC (ID: 17863441/0x01109311)->Render.Flags0 &= ~0x80000 // Bit 19
 12: 0x0051 [0x94] Sylvie (ID: 17863424/0x01109300)->Render.Flags3 ^= 0x01
 13: 0x0057 [0x94] Unnamed NPC (ID: 17863441/0x01109311)->Render.Flags3 ^= 0x01
 14: 0x005D [0x94] LocalPlayer->Render.Flags3 ^= 0x01
 15: 0x0063 [0x92] Sylvie (ID: 17863424/0x01109300)->Render.Flags3 ^= 0x01
 16: 0x0069 [0xBA] SET_ENTITY_POSITION(entity_id=Sylvie (ID: 17863424/0x01109300), pos_x=34.636*, pos_z=243.610*, pos_y=-16.003*, direction=272.7°*)
 17: 0x0076 [0xBA] SET_ENTITY_POSITION(entity_id=LocalPlayer, pos_x=32.265*, pos_z=240.348*, pos_y=-15.812*, direction=298.7°*)
 18: 0x0083 [0x80] LOAD_WAIT(entity=Sylvie (ID: 17863424/0x01109300))
 19: 0x0088 [0x80] LOAD_WAIT(entity=Unnamed NPC (ID: 17863441/0x01109311))
 20: 0x008D [0x80] LOAD_WAIT(entity=LocalPlayer)
 21: 0x0092 [0x4A] Sylvie (ID: 17863424/0x01109300) looks at Unnamed NPC (ID: 17863441/0x01109311)
 22: 0x009B [0x4A] Unnamed NPC (ID: 17863441/0x01109311) looks at Sylvie (ID: 17863424/0x01109300)
 23: 0x00A4 [0x6F] WAIT_FRAME_DELAY: Yield until WaitTime reaches zero
 24: 0x00A5 [0x76] CHECK_ENTITY_RENDER_FLAGS: Wait until Sylvie (ID: 17863424/0x01109300) Render.Flags0 and Render.Flags3 conditions are met
 25: 0x00AA [0x6F] WAIT_FRAME_DELAY: Yield until WaitTime reaches zero
 26: 0x00AB [0x76] CHECK_ENTITY_RENDER_FLAGS: Wait until Unnamed NPC (ID: 17863441/0x01109311) Render.Flags0 and Render.Flags3 conditions are met
 27: 0x00B0 [0x81] SET_ENTITY_BLINKING(blink_flag=0x00, entity=Sylvie (ID: 17863424/0x01109300))
 28: 0x00B6 [0x7B] Sylvie (ID: 17863424/0x01109300) stops talking
 29: 0x00BB [0x27] REQ_SET(priority=0x08, entity_id=Unnamed NPC (ID: 17863441/0x01109311), tag_num=0x06)
 30: 0x00C2 [0x29] REQ_SET_WAIT(priority=0x08, entity_id=Sylvie (ID: 17863424/0x01109300), tag_num=0x4F)
 31: 0x00C9 [0x2A] GET_REQ_LEVEL(level=8, entity_id=Unnamed NPC (ID: 17863441/0x01109311))
 32: 0x00CF [0x5C] MUSIC_CONTROL: Set Idle (Day) music to song 0*
 33: 0x00D3 [0x5C] MUSIC_CONTROL: Set Idle (Night) music to song 0*
 34: 0x00D7 [0x5C] MUSIC_CONTROL: Set Combat (Solo) music to song 57*
 35: 0x00DB [0x5C] MUSIC_CONTROL: Set Combat (Party) music to song 57*
 36: 0x00DF [0x9A] WAIT_MUSIC_SERVER()
 37: 0x00E0 [0x45] LOAD_SCHEDULED_TASK: Load scheduler "s013" with entities [EventEntity, EventEntity], work=[709*, 0*]
 38: 0x00F1 [0x1C] WAIT(15* ticks)
 39: 0x00F4 [0x45] LOAD_SCHEDULED_TASK: Load scheduler "fdi1" with entities [LocalPlayer, LocalPlayer], work=[200*, 0*]
 40: 0x0105 [0x1C] WAIT(150* ticks)
 41: 0x0108 [0x45] LOAD_SCHEDULED_TASK: Load scheduler "s014" with entities [EventEntity, EventEntity], work=[709*, 0*]
 42: 0x0119 [0x24] CREATE_DIALOG(message_id=8181*, default_option=0*, option_flags=0*)
    → "How do you respond? [Reach out to her./Let her be.]"
 43: 0x0120 [0x25] WAIT_DIALOG_SELECT()
 44: 0x0121 [0x02] IF !(Work_Zone[0] == 0*) GOTO 0x0153
 45: 0x0129 [0x27] REQ_SET(priority=0x08, entity_id=LocalPlayer, tag_num=0x02)
 46: 0x0130 [0x1C] WAIT(100* ticks)
 47: 0x0133 [0x2A] GET_REQ_LEVEL(level=8, entity_id=LocalPlayer)
 48: 0x0139 [0x2B] Sylvie (ID: 17863424/0x01109300) [8182*]:
    → "...I'll be okay. Daddy would want me to head back to Adoulin and help get his affairs in order."
 49: 0x0140 [0x1C] WAIT(40* ticks)
 50: 0x0143 [0x1C] WAIT(20* ticks)
 51: 0x0146 [0x27] REQ_SET(priority=0x08, entity_id=LocalPlayer, tag_num=0x03)
 52: 0x014D [0x1C] WAIT(50* ticks)
 53: 0x0150 [0x01] GOTO 0x017A
 54: 0x0153 [0x02] IF !(Work_Zone[0] == 1*) GOTO 0x017A
 55: 0x015B [0x6E] LocalPlayer uses emote 20*
 56: 0x0162 [0x99] Wait for LocalPlayer animation to complete
 57: 0x0167 [0x1C] WAIT(90* ticks)
 58: 0x016A [0x2B] Sylvie (ID: 17863424/0x01109300) [8180*]:
    → "Daddy!!!"
 59: 0x0171 [0x1C] WAIT(40* ticks)
 60: 0x0174 [0x1C] WAIT(70* ticks)
 61: 0x0177 [0x01] GOTO 0x017A

SUBROUTINE_017A:
 62: 0x017A [0x23] WAIT_FOR_DIALOG_INTERACTION
 63: 0x017B [0x52] END_LOAD_SCHEDULER: End scheduler "s014" with entities [EventEntity, EventEntity], work=709*
 64: 0x018A [0x45] LOAD_SCHEDULED_TASK: Load scheduler "s015" with entities [EventEntity, EventEntity], work=[709*, 0*]
 65: 0x019B [0x1C] WAIT(120* ticks)
 66: 0x019E [0x45] LOAD_SCHEDULED_TASK: Load scheduler "fdo1" with entities [LocalPlayer, LocalPlayer], work=[200*, 0*]
 67: 0x01AF [0x55] WAIT_LOAD_SCHEDULER: Wait for scheduler "fdo1" with entities [LocalPlayer, LocalPlayer], work=200*
 68: 0x01BE [0x52] END_LOAD_SCHEDULER: End scheduler "s015" with entities [EventEntity, EventEntity], work=709*
 69: 0x01CD [0x81] SET_ENTITY_BLINKING(blink_flag=0x01, entity=Sylvie (ID: 17863424/0x01109300))
 70: 0x01D3 [0x4E] SET_ENTITY_HIDE_FLAG: Hide Sylvie (ID: 17863424/0x01109300)
 71: 0x01D9 [0x4E] SET_ENTITY_HIDE_FLAG: Hide Unnamed NPC (ID: 17863441/0x01109311)
 72: 0x01DF [0x5C] MUSIC_CONTROL: Set Idle (Day) music to song 60*
 73: 0x01E3 [0x5C] MUSIC_CONTROL: Set Idle (Night) music to song 60*
 74: 0x01E7 [0x5C] MUSIC_CONTROL: Set Combat (Solo) music to song 57*
 75: 0x01EB [0x5C] MUSIC_CONTROL: Set Combat (Party) music to song 57*
 76: 0x01EF [0x9A] WAIT_MUSIC_SERVER()
 77: 0x01F0 [0x1C] WAIT(15* ticks)
 78: 0x01F3 [0xAB] EventEntity->DespawnValue = 0* // Set despawn value
 79: 0x01F7 [0x1C] WAIT(1* ticks)
 80: 0x01FA [0xAB] EventEntity->UnknownFlag = 0 // Disable unknown flag
 81: 0x01FC [0x46] CAMERA_CONTROL: Restore default settings
 82: 0x01FE [0x45] LOAD_SCHEDULED_TASK: Load scheduler "fdi2" with entities [LocalPlayer, LocalPlayer], work=[200*, 0*]
 83: 0x020F [0x21] END_EVENT
 84: 0x0210 [0x00] END_REQSTACK()
```

### Event 65

#### Metadata

| Field        | Value      |
|--------------|------------|
| Entrypoint   | 0x0211     |
| Data Size    | 2049 bytes |
| Instructions | 325        |

```
      00 01 02 03 04 05 06 07  08 09 0A 0B 0C 0D 0E 0F
      -- -- -- -- -- -- -- --  -- -- -- -- -- -- -- --
0210:    42 45 00 80 F0 FF FF  7F F0 FF FF 7F 66 64 6F   BE..........fdo
0220: 31 01 80 55 00 80 F0 FF  FF 7F F0 FF FF 7F 66 64  1..U..........fd
0230: 6F 31 46 01 38 02 80 4E  00 F0 FF FF 7F 4E 00 00  o1F.8..N.....N..
0240: 93 10 01 4E 00 10 93 10  01 2F 00 00 93 10 01 2F  ...N...../...../
0250: 00 10 93 10 01 94 01 00  93 10 01 94 01 10 93 10  ................
0260: 01 94 01 F0 FF FF 7F 92  01 00 93 10 01 92 01 10  ................
0270: 93 10 01 BA 00 93 10 01  05 80 06 80 07 80 08 80  ................
0280: BA 10 93 10 01 1D 80 1E  80 1F 80 01 80 BA 0F 93  ................
0290: 10 01 20 80 21 80 22 80  01 80 BA F0 FF FF 7F 09  .. .!.".........
02A0: 80 0A 80 0B 80 0C 80 80  00 93 10 01 80 F0 FF FF  ................
02B0: 7F 4A F0 FF FF 7F 00 93  10 01 4A 00 93 10 01 10  .J........J.....
02C0: 93 10 01 45 0E 80 F8 FF  FF 7F F8 FF FF 7F 73 30  ...E..........s0
02D0: 30 31 01 80 1C 0F 80 45  00 80 F0 FF FF 7F F0 FF  01.....E........
02E0: FF 7F 66 64 69 31 01 80  1C 1A 80 4A F0 FF FF 7F  ..fdi1.....J....
02F0: 10 93 10 01 6F 76 F0 FF  FF 7F 1C 23 80 2B 00 93  ....ov.....#.+..
0300: 10 01 24 80 23 7B 00 93  10 01 79 00 F0 FF FF 7F  ..$.#{....y.....
0310: 00 93 10 01 29 08 00 93  10 01 5B 2B 00 93 10 01  ....).....[+....
0320: 25 80 1C 1A 80 2A 08 00  93 10 01 23 45 00 80 F0  %....*.....#E...
0330: FF FF 7F F0 FF FF 7F 66  64 6F 31 01 80 55 00 80  .......fdo1..U..
0340: F0 FF FF 7F F0 FF FF 7F  66 64 6F 31 1C 0F 80 52  ........fdo1...R
0350: 0E 80 F8 FF FF 7F F8 FF  FF 7F 73 30 30 31 45 0E  ..........s001E.
0360: 80 F8 FF FF 7F F8 FF FF  7F 64 69 67 67 01 80 29  .........digg..)
0370: 08 00 93 10 01 5F 4A F0  FF FF 7F 00 93 10 01 4E  ....._J........N
0380: 00 11 93 10 01 2F 00 11  93 10 01 94 01 11 93 10  ...../..........
0390: 01 80 11 93 10 01 4A 00  93 10 01 11 93 10 01 4A  ......J........J
03A0: 11 93 10 01 00 93 10 01  6F 76 00 93 10 01 6F 76  ........ov....ov
03B0: 11 93 10 01 1C 10 80 2B  00 93 10 01 26 80 23 45  .......+....&.#E
03C0: 0E 80 F8 FF FF 7F F8 FF  FF 7F 73 30 30 32 01 80  ..........s002..
03D0: 1C 0F 80 4A 00 93 10 01  F0 FF FF 7F 45 00 80 F0  ...J........E...
03E0: FF FF 7F F0 FF FF 7F 66  64 69 31 01 80 6F 76 00  .......fdi1..ov.
03F0: 93 10 01 27 08 00 93 10  01 57 2B 00 93 10 01 27  ...'.....W+....'
0400: 80 2A 08 00 93 10 01 23  52 0E 80 F8 FF FF 7F F8  .*.....#R.......
0410: FF FF 7F 73 30 30 32 45  0E 80 F8 FF FF 7F F8 FF  ...s002E........
0420: FF 7F 73 30 30 33 01 80  2B 00 93 10 01 28 80 1C  ..s003..+....(..
0430: 14 80 6E F0 FF FF 7F 29  80 99 F0 FF FF 7F 1C 2A  ..n....).......*
0440: 80 23 4A 00 93 10 01 11  93 10 01 2B 00 93 10 01  .#J........+....
0450: 2B 80 6F 76 00 93 10 01  29 08 00 93 10 01 5B 23  +.ov....).....[#
0460: 52 0E 80 F8 FF FF 7F F8  FF FF 7F 73 30 30 33 45  R..........s003E
0470: 0E 80 F8 FF FF 7F F8 FF  FF 7F 73 30 30 34 01 80  ..........s004..
0480: 29 08 00 93 10 01 5C 48  2C 80 23 27 08 11 93 10  ).....\H,.#'....
0490: 01 05 1C 12 80 2B 00 93  10 01 2D 80 1C 2E 80 29  .....+....-....)
04A0: 08 00 93 10 01 5D 1C 2E  80 23 27 08 00 93 10 01  .....]...#'.....
04B0: 5E 1C 1C 80 52 0E 80 F8  FF FF 7F F8 FF FF 7F 73  ^...R..........s
04C0: 30 30 34 45 0E 80 F8 FF  FF 7F F8 FF FF 7F 73 30  004E..........s0
04D0: 30 35 01 80 2A 08 00 93  10 01 4A 00 93 10 01 F0  05..*.....J.....
04E0: FF FF 7F 6F 76 00 93 10  01 24 2F 80 01 80 01 80  ...ov....$/.....
04F0: 25 02 00 10 01 80 00 5E  05 27 08 F0 FF FF 7F 02  %......^.'......
0500: 1C 12 80 2A 08 F0 FF FF  7F 27 08 F0 FF FF 7F 03  ...*.....'......
0510: 1C 15 80 52 0E 80 F8 FF  FF 7F F8 FF FF 7F 73 30  ...R..........s0
0520: 30 35 5C A0 01 80 03 80  5C A1 01 80 04 80 45 0E  05\.....\.....E.
0530: 80 F8 FF FF 7F F8 FF FF  7F 73 30 30 36 01 80 27  .........s006..'
0540: 08 00 93 10 01 54 2B 00  93 10 01 30 80 23 2A 08  .....T+....0.#*.
0550: F0 FF FF 7F 2A 08 00 93  10 01 23 01 3A 06 02 00  ....*.....#.:...
0560: 10 17 80 00 D3 05 27 08  F0 FF FF 7F 02 1C 12 80  ......'.........
0570: 2A 08 F0 FF FF 7F 27 08  F0 FF FF 7F 03 1C 15 80  *.....'.........
0580: 52 0E 80 F8 FF FF 7F F8  FF FF 7F 73 30 30 35 5C  R..........s005\
0590: A0 01 80 03 80 5C A1 01  80 04 80 45 0E 80 F8 FF  .....\.....E....
05A0: FF 7F F8 FF FF 7F 73 30  30 36 01 80 27 08 00 93  ......s006..'...
05B0: 10 01 54 2B 00 93 10 01  31 80 23 2B 00 93 10 01  ..T+....1.#+....
05C0: 32 80 23 2A 08 F0 FF FF  7F 2A 08 00 93 10 01 23  2.#*.....*.....#
05D0: 01 3A 06 02 00 10 33 80  00 3A 06 6E F0 FF FF 7F  .:....3..:.n....
05E0: 34 80 99 F0 FF FF 7F 1C  10 80 27 08 00 93 10 01  4.........'.....
05F0: 58 1C 2E 80 52 0E 80 F8  FF FF 7F F8 FF FF 7F 73  X...R..........s
0600: 30 30 35 5C A0 01 80 03  80 5C A1 01 80 04 80 45  005\.....\.....E
0610: 0E 80 F8 FF FF 7F F8 FF  FF 7F 73 30 30 37 01 80  ..........s007..
0620: 2B 00 93 10 01 35 80 23  2B 00 93 10 01 36 80 23  +....5.#+....6.#
0630: 2A 08 00 93 10 01 23 01  3A 06 52 0E 80 F8 FF FF  *.....#.:.R.....
0640: 7F F8 FF FF 7F 73 30 30  36 52 0E 80 F8 FF FF 7F  .....s006R......
0650: F8 FF FF 7F 73 30 30 37  5C 00 37 80 5C 01 37 80  ....s007\.7.\.7.
0660: 5C 02 01 80 5C 03 01 80  9A 45 0E 80 F8 FF FF 7F  \...\....E......
0670: F8 FF FF 7F 73 30 30 38  01 80 7B 00 93 10 01 27  ....s008..{....'
0680: 08 00 93 10 01 50 2B 00  93 10 01 38 80 23 2B 00  .....P+....8.#+.
0690: 93 10 01 39 80 23 2B 00  93 10 01 3A 80 23 2B 00  ...9.#+....:.#+.
06A0: 93 10 01 3B 80 23 2B 00  93 10 01 3C 80 23 2B 00  ...;.#+....<.#+.
06B0: 93 10 01 3D 80 23 48 2C  80 23 52 0E 80 F8 FF FF  ...=.#H,.#R.....
06C0: 7F F8 FF FF 7F 73 30 30  38 45 0E 80 F8 FF FF 7F  .....s008E......
06D0: F8 FF FF 7F 73 30 30 39  01 80 48 3E 80 23 48 3F  ....s009..H>.#H?
06E0: 80 23 48 40 80 23 48 41  80 23 48 42 80 23 48 43  .#H@.#HA.#HB.#HC
06F0: 80 23 52 0E 80 F8 FF FF  7F F8 FF FF 7F 73 30 30  .#R..........s00
0700: 39 4E 00 12 93 10 01 2F  00 12 93 10 01 94 01 12  9N...../........
0710: 93 10 01 80 12 93 10 01  7B 00 93 10 01 3B 00 93  ........{....;..
0720: 10 01 01 00 02 00 03 00  3A 00 93 10 01 04 00 BA  ........:.......
0730: 12 93 10 01 01 00 02 00  03 00 04 00 1C 0F 80 5B  ...............[
0740: 44 80 00 93 10 01 00 93  10 01 73 68 6B 30 5B 45  D.........shk0[E
0750: 80 12 93 10 01 12 93 10  01 73 68 6B 30 45 0E 80  .........shk0E..
0760: F8 FF FF 7F F8 FF FF 7F  73 30 31 30 01 80 48 46  ........s010..HF
0770: 80 23 48 47 80 23 48 48  80 23 48 49 80 23 48 4A  .#HG.#HH.#HI.#HJ
0780: 80 23 48 4B 80 23 48 4C  80 23 48 4D 80 23 48 2C  .#HK.#HL.#HM.#H,
0790: 80 23 52 0E 80 F8 FF FF  7F F8 FF FF 7F 73 30 31  .#R..........s01
07A0: 30 4E 00 02 93 10 01 2F  00 02 93 10 01 94 01 02  0N...../........
07B0: 93 10 01 92 01 02 93 10  01 59 05 02 93 10 01 01  .........Y......
07C0: BA 02 93 10 01 4E 80 4F  80 50 80 51 80 80 02 93  .....N.O.P.Q....
07D0: 10 01 79 00 02 93 10 01  0F 93 10 01 81 00 02 93  ..y.............
07E0: 10 01 6C 02 93 10 01 52  80 17 80 45 0E 80 F8 FF  ..l....R...E....
07F0: FF 7F F8 FF FF 7F 73 30  31 31 01 80 2B 00 93 10  ......s011..+...
0800: 01 53 80 23 2B 00 93 10  01 54 80 23 2B 00 93 10  .S.#+....T.#+...
0810: 01 55 80 23 2B 00 93 10  01 56 80 23 2B 00 93 10  .U.#+....V.#+...
0820: 01 57 80 23 52 0E 80 F8  FF FF 7F F8 FF FF 7F 73  .W.#R..........s
0830: 30 31 31 4E 01 12 93 10  01 5C A0 01 80 04 80 5C  011N.....\.....\
0840: A1 01 80 58 80 45 0E 80  F8 FF FF 7F F8 FF FF 7F  ...X.E..........
0850: 73 30 31 32 01 80 2B 00  93 10 01 59 80 23 81 00  s012..+....Y.#..
0860: 00 93 10 01 7B 00 93 10  01 27 08 00 93 10 01 4F  ....{....'.....O
0870: 6C 02 93 10 01 01 80 03  80 2B 00 93 10 01 5A 80  l........+....Z.
0880: 2A 08 00 93 10 01 23 48  2C 80 23 52 0E 80 F8 FF  *.....#H,.#R....
0890: FF 7F F8 FF FF 7F 73 30  31 32 45 0E 80 F8 FF FF  ......s012E.....
08A0: 7F F8 FF FF 7F 73 30 31  33 01 80 2B 00 93 10 01  .....s013..+....
08B0: 5B 80 1C 10 80 2A 08 00  93 10 01 23 52 0E 80 F8  [....*.....#R...
08C0: FF FF 7F F8 FF FF 7F 73  30 31 33 81 01 02 93 10  .......s013.....
08D0: 01 6C 02 93 10 01 5C 80  17 80 4E 01 02 93 10 01  .l....\...N.....
08E0: BA 0F 93 10 01 5D 80 5E  80 5F 80 01 80 45 0E 80  .....].^._...E..
08F0: F8 FF FF 7F F8 FF FF 7F  73 30 31 34 01 80 24 11  ........s014..$.
0900: 80 01 80 01 80 25 02 00  10 01 80 00 38 09 27 08  .....%......8.'.
0910: F0 FF FF 7F 02 1C 12 80  2A 08 F0 FF FF 7F 2B 00  ........*.....+.
0920: 93 10 01 13 80 1C 14 80  1C 15 80 27 08 F0 FF FF  ...........'....
0930: 7F 03 1C 16 80 01 69 09  02 00 10 17 80 00 69 09  ......i.......i.
0940: 6E F0 FF FF 7F 15 80 99  F0 FF FF 7F 1C 18 80 2B  n..............+
0950: 00 93 10 01 19 80 1C 14  80 79 00 00 93 10 01 0F  .........y......
0960: 93 10 01 1C 1A 80 01 69  09 23 52 0E 80 F8 FF FF  .......i.#R.....
0970: 7F F8 FF FF 7F 73 30 31  34 45 0E 80 F8 FF FF 7F  .....s014E......
0980: F8 FF FF 7F 73 30 31 35  01 80 1C 1B 80 45 00 80  ....s015.....E..
0990: F0 FF FF 7F F0 FF FF 7F  66 64 6F 31 01 80 55 00  ........fdo1..U.
09A0: 80 F0 FF FF 7F F0 FF FF  7F 66 64 6F 31 52 0E 80  .........fdo1R..
09B0: F8 FF FF 7F F8 FF FF 7F  73 30 31 35 81 01 00 93  ........s015....
09C0: 10 01 4E 01 00 93 10 01  4E 01 10 93 10 01 4E 01  ..N.....N.....N.
09D0: 11 93 10 01 5C 00 1C 80  5C 01 1C 80 5C 02 0D 80  ....\...\...\...
09E0: 5C 03 0D 80 9A 5C A0 60  80 17 80 5C A1 60 80 17  \....\.`...\.`..
09F0: 80 1C 0F 80 AB 11 01 80  1C 17 80 AB 0A 46 00 45  .............F.E
0A00: 00 80 F0 FF FF 7F F0 FF  FF 7F 66 64 69 32 01 80  ..........fdi2..
0A10: 21 00                                             !.              
```

#### Opcodes

```
  0: 0x0211 [0x42] SET_CLI_EVENT_CANCEL_DATA()
  1: 0x0212 [0x45] LOAD_SCHEDULED_TASK: Load scheduler "fdo1" with entities [LocalPlayer, LocalPlayer], work=[200*, 0*]
  2: 0x0223 [0x55] WAIT_LOAD_SCHEDULER: Wait for scheduler "fdo1" with entities [LocalPlayer, LocalPlayer], work=200*
  3: 0x0232 [0x46] CAMERA_CONTROL: Disable user control
  4: 0x0234 [0x38] SET_CLIENT_EVENT_MODE(mode=27*)
  5: 0x0237 [0x4E] SET_ENTITY_HIDE_FLAG: Show LocalPlayer
  6: 0x023D [0x4E] SET_ENTITY_HIDE_FLAG: Show Sylvie (ID: 17863424/0x01109300)
  7: 0x0243 [0x4E] SET_ENTITY_HIDE_FLAG: Show Unnamed NPC (ID: 17863440/0x01109310)
  8: 0x0249 [0x2F] Sylvie (ID: 17863424/0x01109300)->Render.Flags0 &= ~0x80000 // Bit 19
  9: 0x024F [0x2F] Unnamed NPC (ID: 17863440/0x01109310)->Render.Flags0 &= ~0x80000 // Bit 19
 10: 0x0255 [0x94] Sylvie (ID: 17863424/0x01109300)->Render.Flags3 ^= 0x01
 11: 0x025B [0x94] Unnamed NPC (ID: 17863440/0x01109310)->Render.Flags3 ^= 0x01
 12: 0x0261 [0x94] LocalPlayer->Render.Flags3 ^= 0x01
 13: 0x0267 [0x92] Sylvie (ID: 17863424/0x01109300)->Render.Flags3 ^= 0x01
 14: 0x026D [0x92] Unnamed NPC (ID: 17863440/0x01109310)->Render.Flags3 ^= 0x01
 15: 0x0273 [0xBA] SET_ENTITY_POSITION(entity_id=Sylvie (ID: 17863424/0x01109300), pos_x=34.636*, pos_z=243.610*, pos_y=-16.003*, direction=272.7°*)
 16: 0x0280 [0xBA] SET_ENTITY_POSITION(entity_id=Unnamed NPC (ID: 17863440/0x01109310), pos_x=40.684*, pos_z=249.524*, pos_y=-36.833*, direction=0.0°*)
 17: 0x028D [0xBA] SET_ENTITY_POSITION(entity_id=??? (ID: 17863439/0x0110930F), pos_x=37.919*, pos_z=248.410*, pos_y=-35.046*, direction=0.0°*)
 18: 0x029A [0xBA] SET_ENTITY_POSITION(entity_id=LocalPlayer, pos_x=32.265*, pos_z=240.348*, pos_y=-15.812*, direction=298.7°*)
 19: 0x02A7 [0x80] LOAD_WAIT(entity=Sylvie (ID: 17863424/0x01109300))
 20: 0x02AC [0x80] LOAD_WAIT(entity=LocalPlayer)
 21: 0x02B1 [0x4A] LocalPlayer looks at Sylvie (ID: 17863424/0x01109300)
 22: 0x02BA [0x4A] Sylvie (ID: 17863424/0x01109300) looks at Unnamed NPC (ID: 17863440/0x01109310)
 23: 0x02C3 [0x45] LOAD_SCHEDULED_TASK: Load scheduler "s001" with entities [EventEntity, EventEntity], work=[709*, 0*]
 24: 0x02D4 [0x1C] WAIT(15* ticks)
 25: 0x02D7 [0x45] LOAD_SCHEDULED_TASK: Load scheduler "fdi1" with entities [LocalPlayer, LocalPlayer], work=[200*, 0*]
 26: 0x02E8 [0x1C] WAIT(70* ticks)
 27: 0x02EB [0x4A] LocalPlayer looks at Unnamed NPC (ID: 17863440/0x01109310)
 28: 0x02F4 [0x6F] WAIT_FRAME_DELAY: Yield until WaitTime reaches zero
 29: 0x02F5 [0x76] CHECK_ENTITY_RENDER_FLAGS: Wait until LocalPlayer Render.Flags0 and Render.Flags3 conditions are met
 30: 0x02FA [0x1C] WAIT(80* ticks)
 31: 0x02FD [0x2B] Sylvie (ID: 17863424/0x01109300) [8139*]:
    → "Look, <Player>! A frozen flower hanging over boiling magma! How stupendamentous that it hasn't melted."
 32: 0x0304 [0x23] WAIT_FOR_DIALOG_INTERACTION
 33: 0x0305 [0x7B] Sylvie (ID: 17863424/0x01109300) stops talking
 34: 0x030A [0x79] LocalPlayer looks at Sylvie (ID: 17863424/0x01109300) (Basic look)
 35: 0x0314 [0x29] REQ_SET_WAIT(priority=0x08, entity_id=Sylvie (ID: 17863424/0x01109300), tag_num=0x5B)
 36: 0x031B [0x2B] Sylvie (ID: 17863424/0x01109300) [8140*]:
    → "This has gotta be the place. What Daddy mentioned must be around here somewhere."
 37: 0x0322 [0x1C] WAIT(70* ticks)
 38: 0x0325 [0x2A] GET_REQ_LEVEL(level=8, entity_id=Sylvie (ID: 17863424/0x01109300))
 39: 0x032B [0x23] WAIT_FOR_DIALOG_INTERACTION
 40: 0x032C [0x45] LOAD_SCHEDULED_TASK: Load scheduler "fdo1" with entities [LocalPlayer, LocalPlayer], work=[200*, 0*]
 41: 0x033D [0x55] WAIT_LOAD_SCHEDULER: Wait for scheduler "fdo1" with entities [LocalPlayer, LocalPlayer], work=200*
 42: 0x034C [0x1C] WAIT(15* ticks)
 43: 0x034F [0x52] END_LOAD_SCHEDULER: End scheduler "s001" with entities [EventEntity, EventEntity], work=709*
 44: 0x035E [0x45] LOAD_SCHEDULED_TASK: Load scheduler "digg" with entities [EventEntity, EventEntity], work=[709*, 0*]
 45: 0x036F [0x29] REQ_SET_WAIT(priority=0x08, entity_id=Sylvie (ID: 17863424/0x01109300), tag_num=0x5F)
 46: 0x0376 [0x4A] LocalPlayer looks at Sylvie (ID: 17863424/0x01109300)
 47: 0x037F [0x4E] SET_ENTITY_HIDE_FLAG: Show Unnamed NPC (ID: 17863441/0x01109311)
 48: 0x0385 [0x2F] Unnamed NPC (ID: 17863441/0x01109311)->Render.Flags0 &= ~0x80000 // Bit 19
 49: 0x038B [0x94] Unnamed NPC (ID: 17863441/0x01109311)->Render.Flags3 ^= 0x01
 50: 0x0391 [0x80] LOAD_WAIT(entity=Unnamed NPC (ID: 17863441/0x01109311))
 51: 0x0396 [0x4A] Sylvie (ID: 17863424/0x01109300) looks at Unnamed NPC (ID: 17863441/0x01109311)
 52: 0x039F [0x4A] Unnamed NPC (ID: 17863441/0x01109311) looks at Sylvie (ID: 17863424/0x01109300)
 53: 0x03A8 [0x6F] WAIT_FRAME_DELAY: Yield until WaitTime reaches zero
 54: 0x03A9 [0x76] CHECK_ENTITY_RENDER_FLAGS: Wait until Sylvie (ID: 17863424/0x01109300) Render.Flags0 and Render.Flags3 conditions are met
 55: 0x03AE [0x6F] WAIT_FRAME_DELAY: Yield until WaitTime reaches zero
 56: 0x03AF [0x76] CHECK_ENTITY_RENDER_FLAGS: Wait until Unnamed NPC (ID: 17863441/0x01109311) Render.Flags0 and Render.Flags3 conditions are met
 57: 0x03B4 [0x1C] WAIT(150* ticks)
 58: 0x03B7 [0x2B] Sylvie (ID: 17863424/0x01109300) [8141*]:
    → "Found it!"
 59: 0x03BE [0x23] WAIT_FOR_DIALOG_INTERACTION
 60: 0x03BF [0x45] LOAD_SCHEDULED_TASK: Load scheduler "s002" with entities [EventEntity, EventEntity], work=[709*, 0*]
 61: 0x03D0 [0x1C] WAIT(15* ticks)
 62: 0x03D3 [0x4A] Sylvie (ID: 17863424/0x01109300) looks at LocalPlayer
 63: 0x03DC [0x45] LOAD_SCHEDULED_TASK: Load scheduler "fdi1" with entities [LocalPlayer, LocalPlayer], work=[200*, 0*]
 64: 0x03ED [0x6F] WAIT_FRAME_DELAY: Yield until WaitTime reaches zero
 65: 0x03EE [0x76] CHECK_ENTITY_RENDER_FLAGS: Wait until Sylvie (ID: 17863424/0x01109300) Render.Flags0 and Render.Flags3 conditions are met
 66: 0x03F3 [0x27] REQ_SET(priority=0x08, entity_id=Sylvie (ID: 17863424/0x01109300), tag_num=0x57)
 67: 0x03FA [0x2B] Sylvie (ID: 17863424/0x01109300) [8142*]:
    → "Ta-daaaaaa!"
 68: 0x0401 [0x2A] GET_REQ_LEVEL(level=8, entity_id=Sylvie (ID: 17863424/0x01109300))
 69: 0x0407 [0x23] WAIT_FOR_DIALOG_INTERACTION
 70: 0x0408 [0x52] END_LOAD_SCHEDULER: End scheduler "s002" with entities [EventEntity, EventEntity], work=709*
 71: 0x0417 [0x45] LOAD_SCHEDULED_TASK: Load scheduler "s003" with entities [EventEntity, EventEntity], work=[709*, 0*]
 72: 0x0428 [0x2B] Sylvie (ID: 17863424/0x01109300) [8143*]:
    → "A small wooden box buried just below the surface!"
 73: 0x042F [0x1C] WAIT(40* ticks)
 74: 0x0432 [0x6E] LocalPlayer uses emote 21*
 75: 0x0439 [0x99] Wait for LocalPlayer animation to complete
 76: 0x043E [0x1C] WAIT(130* ticks)
 77: 0x0441 [0x23] WAIT_FOR_DIALOG_INTERACTION
 78: 0x0442 [0x4A] Sylvie (ID: 17863424/0x01109300) looks at Unnamed NPC (ID: 17863441/0x01109311)
 79: 0x044B [0x2B] Sylvie (ID: 17863424/0x01109300) [8144*]:
    → "I wonder what's inside..."
 80: 0x0452 [0x6F] WAIT_FRAME_DELAY: Yield until WaitTime reaches zero
 81: 0x0453 [0x76] CHECK_ENTITY_RENDER_FLAGS: Wait until Sylvie (ID: 17863424/0x01109300) Render.Flags0 and Render.Flags3 conditions are met
 82: 0x0458 [0x29] REQ_SET_WAIT(priority=0x08, entity_id=Sylvie (ID: 17863424/0x01109300), tag_num=0x5B)
 83: 0x045F [0x23] WAIT_FOR_DIALOG_INTERACTION
 84: 0x0460 [0x52] END_LOAD_SCHEDULER: End scheduler "s003" with entities [EventEntity, EventEntity], work=709*
 85: 0x046F [0x45] LOAD_SCHEDULED_TASK: Load scheduler "s004" with entities [EventEntity, EventEntity], work=[709*, 0*]
 86: 0x0480 [0x29] REQ_SET_WAIT(priority=0x08, entity_id=Sylvie (ID: 17863424/0x01109300), tag_num=0x5C)
 87: 0x0487 [0x48] [System] [7787*]:
    → "@@"
 88: 0x048A [0x23] WAIT_FOR_DIALOG_INTERACTION
 89: 0x048B [0x27] REQ_SET(priority=0x08, entity_id=Unnamed NPC (ID: 17863441/0x01109311), tag_num=0x05)
 90: 0x0492 [0x1C] WAIT(100* ticks)
 91: 0x0495 [0x2B] Sylvie (ID: 17863424/0x01109300) [8145*]:
    → "These must be Daddy's private papers."
 92: 0x049C [0x1C] WAIT(30* ticks)
 93: 0x049F [0x29] REQ_SET_WAIT(priority=0x08, entity_id=Sylvie (ID: 17863424/0x01109300), tag_num=0x5D)
 94: 0x04A6 [0x1C] WAIT(30* ticks)
 95: 0x04A9 [0x23] WAIT_FOR_DIALOG_INTERACTION
 96: 0x04AA [0x27] REQ_SET(priority=0x08, entity_id=Sylvie (ID: 17863424/0x01109300), tag_num=0x5E)
 97: 0x04B1 [0x1C] WAIT(60* ticks)
 98: 0x04B4 [0x52] END_LOAD_SCHEDULER: End scheduler "s004" with entities [EventEntity, EventEntity], work=709*
 99: 0x04C3 [0x45] LOAD_SCHEDULED_TASK: Load scheduler "s005" with entities [EventEntity, EventEntity], work=[709*, 0*]
100: 0x04D4 [0x2A] GET_REQ_LEVEL(level=8, entity_id=Sylvie (ID: 17863424/0x01109300))
101: 0x04DA [0x4A] Sylvie (ID: 17863424/0x01109300) looks at LocalPlayer
102: 0x04E3 [0x6F] WAIT_FRAME_DELAY: Yield until WaitTime reaches zero
103: 0x04E4 [0x76] CHECK_ENTITY_RENDER_FLAGS: Wait until Sylvie (ID: 17863424/0x01109300) Render.Flags0 and Render.Flags3 conditions are met
104: 0x04E9 [0x24] CREATE_DIALOG(message_id=8146*, default_option=0*, option_flags=0*)
    → "How do you react? [Let's read them./How ominous./Well, since the magma's right here...]"
105: 0x04F0 [0x25] WAIT_DIALOG_SELECT()
106: 0x04F1 [0x02] IF !(Work_Zone[0] == 0*) GOTO 0x055E
107: 0x04F9 [0x27] REQ_SET(priority=0x08, entity_id=LocalPlayer, tag_num=0x02)
108: 0x0500 [0x1C] WAIT(100* ticks)
109: 0x0503 [0x2A] GET_REQ_LEVEL(level=8, entity_id=LocalPlayer)
110: 0x0509 [0x27] REQ_SET(priority=0x08, entity_id=LocalPlayer, tag_num=0x03)
111: 0x0510 [0x1C] WAIT(20* ticks)
112: 0x0513 [0x52] END_LOAD_SCHEDULER: End scheduler "s005" with entities [EventEntity, EventEntity], work=709*
113: 0x0522 [0x5C] MUSIC_CONTROL: Set music volume to song 0*, fade_time=240*
114: 0x0528 [0x5C] MUSIC_CONTROL: Adjust music volume to song 0*, fade_time=480*
115: 0x052E [0x45] LOAD_SCHEDULED_TASK: Load scheduler "s006" with entities [EventEntity, EventEntity], work=[709*, 0*]
116: 0x053F [0x27] REQ_SET(priority=0x08, entity_id=Sylvie (ID: 17863424/0x01109300), tag_num=0x54)
117: 0x0546 [0x2B] Sylvie (ID: 17863424/0x01109300) [8147*]:
    → "I suppose we should. I'm a little worried about what's inside, but it's my responsibility."
118: 0x054D [0x23] WAIT_FOR_DIALOG_INTERACTION
119: 0x054E [0x2A] GET_REQ_LEVEL(level=8, entity_id=LocalPlayer)
120: 0x0554 [0x2A] GET_REQ_LEVEL(level=8, entity_id=Sylvie (ID: 17863424/0x01109300))
121: 0x055A [0x23] WAIT_FOR_DIALOG_INTERACTION
122: 0x055B [0x01] GOTO 0x063A
123: 0x055E [0x02] IF !(Work_Zone[0] == 1*) GOTO 0x05D3
124: 0x0566 [0x27] REQ_SET(priority=0x08, entity_id=LocalPlayer, tag_num=0x02)
125: 0x056D [0x1C] WAIT(100* ticks)
126: 0x0570 [0x2A] GET_REQ_LEVEL(level=8, entity_id=LocalPlayer)
127: 0x0576 [0x27] REQ_SET(priority=0x08, entity_id=LocalPlayer, tag_num=0x03)
128: 0x057D [0x1C] WAIT(20* ticks)
129: 0x0580 [0x52] END_LOAD_SCHEDULER: End scheduler "s005" with entities [EventEntity, EventEntity], work=709*
130: 0x058F [0x5C] MUSIC_CONTROL: Set music volume to song 0*, fade_time=240*
131: 0x0595 [0x5C] MUSIC_CONTROL: Adjust music volume to song 0*, fade_time=480*
132: 0x059B [0x45] LOAD_SCHEDULED_TASK: Load scheduler "s006" with entities [EventEntity, EventEntity], work=[709*, 0*]
133: 0x05AC [0x27] REQ_SET(priority=0x08, entity_id=Sylvie (ID: 17863424/0x01109300), tag_num=0x54)
134: 0x05B3 [0x2B] Sylvie (ID: 17863424/0x01109300) [8148*]:
    → "I'm a little creeped out, too, but it's my responsibility to learn what Daddy left."
135: 0x05BA [0x23] WAIT_FOR_DIALOG_INTERACTION
136: 0x05BB [0x2B] Sylvie (ID: 17863424/0x01109300) [8149*]:
    → "Here goes nothing."
137: 0x05C2 [0x23] WAIT_FOR_DIALOG_INTERACTION
138: 0x05C3 [0x2A] GET_REQ_LEVEL(level=8, entity_id=LocalPlayer)
139: 0x05C9 [0x2A] GET_REQ_LEVEL(level=8, entity_id=Sylvie (ID: 17863424/0x01109300))
140: 0x05CF [0x23] WAIT_FOR_DIALOG_INTERACTION
141: 0x05D0 [0x01] GOTO 0x063A
142: 0x05D3 [0x02] IF !(Work_Zone[0] == 2*) GOTO 0x063A
143: 0x05DB [0x6E] LocalPlayer uses emote 12*
144: 0x05E2 [0x99] Wait for LocalPlayer animation to complete
145: 0x05E7 [0x1C] WAIT(150* ticks)
146: 0x05EA [0x27] REQ_SET(priority=0x08, entity_id=Sylvie (ID: 17863424/0x01109300), tag_num=0x58)
147: 0x05F1 [0x1C] WAIT(30* ticks)
148: 0x05F4 [0x52] END_LOAD_SCHEDULER: End scheduler "s005" with entities [EventEntity, EventEntity], work=709*
149: 0x0603 [0x5C] MUSIC_CONTROL: Set music volume to song 0*, fade_time=240*
150: 0x0609 [0x5C] MUSIC_CONTROL: Adjust music volume to song 0*, fade_time=480*
151: 0x060F [0x45] LOAD_SCHEDULED_TASK: Load scheduler "s007" with entities [EventEntity, EventEntity], work=[709*, 0*]
152: 0x0620 [0x2B] Sylvie (ID: 17863424/0x01109300) [8150*]:
    → "You want me to what!?"
153: 0x0627 [0x23] WAIT_FOR_DIALOG_INTERACTION
154: 0x0628 [0x2B] Sylvie (ID: 17863424/0x01109300) [8151*]:
    → "We didn't come all the way here just to make smoke signals!"
155: 0x062F [0x23] WAIT_FOR_DIALOG_INTERACTION
156: 0x0630 [0x2A] GET_REQ_LEVEL(level=8, entity_id=Sylvie (ID: 17863424/0x01109300))
157: 0x0636 [0x23] WAIT_FOR_DIALOG_INTERACTION
158: 0x0637 [0x01] GOTO 0x063A

SUBROUTINE_063A:
159: 0x063A [0x52] END_LOAD_SCHEDULER: End scheduler "s006" with entities [EventEntity, EventEntity], work=709*
160: 0x0649 [0x52] END_LOAD_SCHEDULER: End scheduler "s007" with entities [EventEntity, EventEntity], work=709*
161: 0x0658 [0x5C] MUSIC_CONTROL: Set Idle (Day) music to song 68*
162: 0x065C [0x5C] MUSIC_CONTROL: Set Idle (Night) music to song 68*
163: 0x0660 [0x5C] MUSIC_CONTROL: Set Combat (Solo) music to song 0*
164: 0x0664 [0x5C] MUSIC_CONTROL: Set Combat (Party) music to song 0*
165: 0x0668 [0x9A] WAIT_MUSIC_SERVER()
166: 0x0669 [0x45] LOAD_SCHEDULED_TASK: Load scheduler "s008" with entities [EventEntity, EventEntity], work=[709*, 0*]
167: 0x067A [0x7B] Sylvie (ID: 17863424/0x01109300) stops talking
168: 0x067F [0x27] REQ_SET(priority=0x08, entity_id=Sylvie (ID: 17863424/0x01109300), tag_num=0x50)
169: 0x0686 [0x2B] Sylvie (ID: 17863424/0x01109300) [8152*]:
    → ""My name is Hostenn, and I am a geomancer living in Western Adoulin."
170: 0x068D [0x23] WAIT_FOR_DIALOG_INTERACTION
171: 0x068E [0x2B] Sylvie (ID: 17863424/0x01109300) [8153*]:
    → ""If you are reading these documents, then I no longer exist in this world."
172: 0x0695 [0x23] WAIT_FOR_DIALOG_INTERACTION
173: 0x0696 [0x2B] Sylvie (ID: 17863424/0x01109300) [8154*]:
    → ""If you are not of the bloodline of Zacariah, then I implore you to put this letter down and reseal the box."
174: 0x069D [0x23] WAIT_FOR_DIALOG_INTERACTION
175: 0x069E [0x2B] Sylvie (ID: 17863424/0x01109300) [8155*]:
    → ""The words contained herein are meant for Zacariah's progeny, so please find someone of his line in Adoulin to return this to."
176: 0x06A5 [0x23] WAIT_FOR_DIALOG_INTERACTION
177: 0x06A6 [0x2B] Sylvie (ID: 17863424/0x01109300) [8156*]:
    → ""Should you be one of his descendants, steel yourself and read on."
178: 0x06AD [0x23] WAIT_FOR_DIALOG_INTERACTION
179: 0x06AE [0x2B] Sylvie (ID: 17863424/0x01109300) [8157*]:
    → ""What you are about to read contains truths passed down from generation to generation."
180: 0x06B5 [0x23] WAIT_FOR_DIALOG_INTERACTION
181: 0x06B6 [0x48] [System] [7787*]:
    → "@@"
182: 0x06B9 [0x23] WAIT_FOR_DIALOG_INTERACTION
183: 0x06BA [0x52] END_LOAD_SCHEDULER: End scheduler "s008" with entities [EventEntity, EventEntity], work=709*
184: 0x06C9 [0x45] LOAD_SCHEDULED_TASK: Load scheduler "s009" with entities [EventEntity, EventEntity], work=[709*, 0*]
185: 0x06DA [0x48] [System] [8158*]:
    → ""Many centuries ago lived a primal geomancer and her five disciples."
186: 0x06DD [0x23] WAIT_FOR_DIALOG_INTERACTION
187: 0x06DE [0x48] [System] [8159*]:
    → ""The primal geomancer was none other than Sih Renaye, mistress of the wind, and she was followed by her five students: Moh Rihimi the flamedancer; Nhe Gafokei, seeker of ice; Woh Iyengi, keeper of thunder; Dho Mukufeh, bearer of water..."
188: 0x06E1 [0x23] WAIT_FOR_DIALOG_INTERACTION
189: 0x06E2 [0x48] [System] [8160*]:
    → ""...And Zacariah, guardian of earth. We are his descendants."
190: 0x06E5 [0x23] WAIT_FOR_DIALOG_INTERACTION
191: 0x06E6 [0x48] [System] [8161*]:
    → ""When Sih Renaye passed into the lifestream, her four Mithra disciples gave themselves up to the Greater Power, and became spiritual manifestations of its greatness."
192: 0x06E9 [0x23] WAIT_FOR_DIALOG_INTERACTION
193: 0x06EA [0x48] [System] [8162*]:
    → ""Zacariah was an expert in many techniques that would prove to be of use to Adoulin, so he stayed behind and returned to the city."
194: 0x06ED [0x23] WAIT_FOR_DIALOG_INTERACTION
195: 0x06EE [0x48] [System] [8163*]:
    → ""First among these was his skill in clothcraft. Sih charged him with fashioning sacred garments like those she donned herself."
196: 0x06F1 [0x23] WAIT_FOR_DIALOG_INTERACTION
197: 0x06F2 [0x52] END_LOAD_SCHEDULER: End scheduler "s009" with entities [EventEntity, EventEntity], work=709*
198: 0x0701 [0x4E] SET_ENTITY_HIDE_FLAG: Show Unnamed NPC (ID: 17863442/0x01109312)
199: 0x0707 [0x2F] Unnamed NPC (ID: 17863442/0x01109312)->Render.Flags0 &= ~0x80000 // Bit 19
200: 0x070D [0x94] Unnamed NPC (ID: 17863442/0x01109312)->Render.Flags3 ^= 0x01
201: 0x0713 [0x80] LOAD_WAIT(entity=Unnamed NPC (ID: 17863442/0x01109312))
202: 0x0718 [0x7B] Sylvie (ID: 17863424/0x01109300) stops talking
203: 0x071D [0x3B] GET_ENTITY_POSITION(entity=Sylvie (ID: 17863424/0x01109300), x_destination=ExtData[1]->WorkLocal[1], y_destination=ExtData[1]->WorkLocal[2], z_destination=ExtData[1]->WorkLocal[3])
204: 0x0728 [0x3A] CONVERT_YAW_TO_BYTE(entity=Sylvie (ID: 17863424/0x01109300), result_destination=ExtData[1]->WorkLocal[4])
205: 0x072F [0xBA] SET_ENTITY_POSITION(entity_id=Unnamed NPC (ID: 17863442/0x01109312), pos_x=ExtData[1]->WorkLocal[1], pos_z=ExtData[1]->WorkLocal[2], pos_y=ExtData[1]->WorkLocal[3], direction=ExtData[1]->WorkLocal[4])
206: 0x073C [0x1C] WAIT(15* ticks)
207: 0x073F [0x5B] LOAD_EXT_SCHEDULER: Load scheduler "shk0" with entities [Sylvie (ID: 17863424/0x01109300), Sylvie (ID: 17863424/0x01109300)], work=1447*
208: 0x074E [0x5B] LOAD_EXT_SCHEDULER: Load scheduler "shk0" with entities [Unnamed NPC (ID: 17863442/0x01109312), Unnamed NPC (ID: 17863442/0x01109312)], work=1459*
209: 0x075D [0x45] LOAD_SCHEDULED_TASK: Load scheduler "s010" with entities [EventEntity, EventEntity], work=[709*, 0*]
210: 0x076E [0x48] [System] [8164*]:
    → ""Pieces of those garments--as well as the means to create them--have been handed down through the generations."
211: 0x0771 [0x23] WAIT_FOR_DIALOG_INTERACTION
212: 0x0772 [0x48] [System] [8165*]:
    → ""I have traveled throughout not just the continent in search of crystals and cloth that react to the traces of energy the garments still harbor."
213: 0x0775 [0x23] WAIT_FOR_DIALOG_INTERACTION
214: 0x0776 [0x48] [System] [8166*]:
    → ""After many years my search finally bore fruit."
215: 0x0779 [0x23] WAIT_FOR_DIALOG_INTERACTION
216: 0x077A [0x48] [System] [8167*]:
    → ""Unfortunately, what I was searching for could not be found in Ulbuka, but only in the Middle Lands."
217: 0x077D [0x23] WAIT_FOR_DIALOG_INTERACTION
218: 0x077E [0x48] [System] [8168*]:
    → ""I fully intend to head there once our survey in Morimar Basalt Fields has been completed."
219: 0x0781 [0x23] WAIT_FOR_DIALOG_INTERACTION
220: 0x0782 [0x48] [System] [8169*]:
    → ""My one fear is that something happens to me before I can fulfill my charge, so I kept the crystals and crafting methods safe."
221: 0x0785 [0x23] WAIT_FOR_DIALOG_INTERACTION
222: 0x0786 [0x48] [System] [8170*]:
    → ""So I ask you, descendant of Zacariah, to carry out my will."
223: 0x0789 [0x23] WAIT_FOR_DIALOG_INTERACTION
224: 0x078A [0x48] [System] [8171*]:
    → ""Help ensure that the methods of producing these most holy of garments remain passed down unbroken from generation to generation.""
225: 0x078D [0x23] WAIT_FOR_DIALOG_INTERACTION
226: 0x078E [0x48] [System] [7787*]:
    → "@@"
227: 0x0791 [0x23] WAIT_FOR_DIALOG_INTERACTION
228: 0x0792 [0x52] END_LOAD_SCHEDULER: End scheduler "s010" with entities [EventEntity, EventEntity], work=709*
229: 0x07A1 [0x4E] SET_ENTITY_HIDE_FLAG: Show Hostenn (ID: 17863426/0x01109302)
230: 0x07A7 [0x2F] Hostenn (ID: 17863426/0x01109302)->Render.Flags0 &= ~0x80000 // Bit 19
231: 0x07AD [0x94] Hostenn (ID: 17863426/0x01109302)->Render.Flags3 ^= 0x01
232: 0x07B3 [0x92] Hostenn (ID: 17863426/0x01109302)->Render.Flags3 ^= 0x01
233: 0x07B9 [0x59] UPDATE_ENTITY_DATA: Hostenn (ID: 17863426/0x01109302)->Render.Flags0 |= 0x200000
234: 0x07C0 [0xBA] SET_ENTITY_POSITION(entity_id=Hostenn (ID: 17863426/0x01109302), pos_x=38.283*, pos_z=250.621*, pos_y=-35.800*, direction=131.8°*)
235: 0x07CD [0x80] LOAD_WAIT(entity=Hostenn (ID: 17863426/0x01109302))
236: 0x07D2 [0x79] Hostenn (ID: 17863426/0x01109302) looks at ??? (ID: 17863439/0x0110930F) (Basic look)
237: 0x07DC [0x81] SET_ENTITY_BLINKING(blink_flag=0x00, entity=Hostenn (ID: 17863426/0x01109302))
238: 0x07E2 [0x6C] FADE_ENTITY_COLOR(entity_id=Hostenn (ID: 17863426/0x01109302), end_alpha=32*, fade_time=1*)
239: 0x07EB [0x45] LOAD_SCHEDULED_TASK: Load scheduler "s011" with entities [EventEntity, EventEntity], work=[709*, 0*]
240: 0x07FC [0x2B] Sylvie (ID: 17863424/0x01109300) [8172*]:
    → "There's something else at the end."
241: 0x0803 [0x23] WAIT_FOR_DIALOG_INTERACTION
242: 0x0804 [0x2B] Sylvie (ID: 17863424/0x01109300) [8173*]:
    → ""To my beloved daughter, Sylvie."
243: 0x080B [0x23] WAIT_FOR_DIALOG_INTERACTION
244: 0x080C [0x2B] Sylvie (ID: 17863424/0x01109300) [8174*]:
    → ""Eventually the day will come when you get married and bear children."
245: 0x0813 [0x23] WAIT_FOR_DIALOG_INTERACTION
246: 0x0814 [0x2B] Sylvie (ID: 17863424/0x01109300) [8175*]:
    → ""Words cannot express my sadness at not being able to hold my grandchildren in my arms."
247: 0x081B [0x23] WAIT_FOR_DIALOG_INTERACTION
248: 0x081C [0x2B] Sylvie (ID: 17863424/0x01109300) [8176*]:
    → ""You've grown up so fast, and have borne many burdens because of my actions."
249: 0x0823 [0x23] WAIT_FOR_DIALOG_INTERACTION
250: 0x0824 [0x52] END_LOAD_SCHEDULER: End scheduler "s011" with entities [EventEntity, EventEntity], work=709*
251: 0x0833 [0x4E] SET_ENTITY_HIDE_FLAG: Hide Unnamed NPC (ID: 17863442/0x01109312)
252: 0x0839 [0x5C] MUSIC_CONTROL: Set music volume to song 0*, fade_time=480*
253: 0x083F [0x5C] MUSIC_CONTROL: Adjust music volume to song 0*, fade_time=960*
254: 0x0845 [0x45] LOAD_SCHEDULED_TASK: Load scheduler "s012" with entities [EventEntity, EventEntity], work=[709*, 0*]
255: 0x0856 [0x2B] Sylvie (ID: 17863424/0x01109300) [8177*]:
    → ""But I promise that I will continue to watch over you even after I return to the earth."
256: 0x085D [0x23] WAIT_FOR_DIALOG_INTERACTION
257: 0x085E [0x81] SET_ENTITY_BLINKING(blink_flag=0x00, entity=Sylvie (ID: 17863424/0x01109300))
258: 0x0864 [0x7B] Sylvie (ID: 17863424/0x01109300) stops talking
259: 0x0869 [0x27] REQ_SET(priority=0x08, entity_id=Sylvie (ID: 17863424/0x01109300), tag_num=0x4F)
260: 0x0870 [0x6C] FADE_ENTITY_COLOR(entity_id=Hostenn (ID: 17863426/0x01109302), end_alpha=0*, fade_time=240*)
261: 0x0879 [0x2B] Sylvie (ID: 17863424/0x01109300) [8178*]:
    → ""I love you. Always.""
262: 0x0880 [0x2A] GET_REQ_LEVEL(level=8, entity_id=Sylvie (ID: 17863424/0x01109300))
263: 0x0886 [0x23] WAIT_FOR_DIALOG_INTERACTION
264: 0x0887 [0x48] [System] [7787*]:
    → "@@"
265: 0x088A [0x23] WAIT_FOR_DIALOG_INTERACTION
266: 0x088B [0x52] END_LOAD_SCHEDULER: End scheduler "s012" with entities [EventEntity, EventEntity], work=709*
267: 0x089A [0x45] LOAD_SCHEDULED_TASK: Load scheduler "s013" with entities [EventEntity, EventEntity], work=[709*, 0*]
268: 0x08AB [0x2B] Sylvie (ID: 17863424/0x01109300) [8179*]:
    → "...Daddy..."
269: 0x08B2 [0x1C] WAIT(150* ticks)
270: 0x08B5 [0x2A] GET_REQ_LEVEL(level=8, entity_id=Sylvie (ID: 17863424/0x01109300))
271: 0x08BB [0x23] WAIT_FOR_DIALOG_INTERACTION
272: 0x08BC [0x52] END_LOAD_SCHEDULER: End scheduler "s013" with entities [EventEntity, EventEntity], work=709*
273: 0x08CB [0x81] SET_ENTITY_BLINKING(blink_flag=0x01, entity=Hostenn (ID: 17863426/0x01109302))
274: 0x08D1 [0x6C] FADE_ENTITY_COLOR(entity_id=Hostenn (ID: 17863426/0x01109302), end_alpha=128*, fade_time=1*)
275: 0x08DA [0x4E] SET_ENTITY_HIDE_FLAG: Hide Hostenn (ID: 17863426/0x01109302)
276: 0x08E0 [0xBA] SET_ENTITY_POSITION(entity_id=??? (ID: 17863439/0x0110930F), pos_x=33.327*, pos_z=243.355*, pos_y=-15.913*, direction=0.0°*)
277: 0x08ED [0x45] LOAD_SCHEDULED_TASK: Load scheduler "s014" with entities [EventEntity, EventEntity], work=[709*, 0*]
278: 0x08FE [0x24] CREATE_DIALOG(message_id=8181*, default_option=0*, option_flags=0*)
    → "How do you respond? [Reach out to her./Let her be.]"
279: 0x0905 [0x25] WAIT_DIALOG_SELECT()
280: 0x0906 [0x02] IF !(Work_Zone[0] == 0*) GOTO 0x0938
281: 0x090E [0x27] REQ_SET(priority=0x08, entity_id=LocalPlayer, tag_num=0x02)
282: 0x0915 [0x1C] WAIT(100* ticks)
283: 0x0918 [0x2A] GET_REQ_LEVEL(level=8, entity_id=LocalPlayer)
284: 0x091E [0x2B] Sylvie (ID: 17863424/0x01109300) [8182*]:
    → "...I'll be okay. Daddy would want me to head back to Adoulin and help get his affairs in order."
285: 0x0925 [0x1C] WAIT(40* ticks)
286: 0x0928 [0x1C] WAIT(20* ticks)
287: 0x092B [0x27] REQ_SET(priority=0x08, entity_id=LocalPlayer, tag_num=0x03)
288: 0x0932 [0x1C] WAIT(50* ticks)
289: 0x0935 [0x01] GOTO 0x0969
290: 0x0938 [0x02] IF !(Work_Zone[0] == 1*) GOTO 0x0969
291: 0x0940 [0x6E] LocalPlayer uses emote 20*
292: 0x0947 [0x99] Wait for LocalPlayer animation to complete
293: 0x094C [0x1C] WAIT(90* ticks)
294: 0x094F [0x2B] Sylvie (ID: 17863424/0x01109300) [8180*]:
    → "Daddy!!!"
295: 0x0956 [0x1C] WAIT(40* ticks)
296: 0x0959 [0x79] Sylvie (ID: 17863424/0x01109300) looks at ??? (ID: 17863439/0x0110930F) (Basic look)
297: 0x0963 [0x1C] WAIT(70* ticks)
298: 0x0966 [0x01] GOTO 0x0969

SUBROUTINE_0969:
299: 0x0969 [0x23] WAIT_FOR_DIALOG_INTERACTION
300: 0x096A [0x52] END_LOAD_SCHEDULER: End scheduler "s014" with entities [EventEntity, EventEntity], work=709*
301: 0x0979 [0x45] LOAD_SCHEDULED_TASK: Load scheduler "s015" with entities [EventEntity, EventEntity], work=[709*, 0*]
302: 0x098A [0x1C] WAIT(120* ticks)
303: 0x098D [0x45] LOAD_SCHEDULED_TASK: Load scheduler "fdo1" with entities [LocalPlayer, LocalPlayer], work=[200*, 0*]
304: 0x099E [0x55] WAIT_LOAD_SCHEDULER: Wait for scheduler "fdo1" with entities [LocalPlayer, LocalPlayer], work=200*
305: 0x09AD [0x52] END_LOAD_SCHEDULER: End scheduler "s015" with entities [EventEntity, EventEntity], work=709*
306: 0x09BC [0x81] SET_ENTITY_BLINKING(blink_flag=0x01, entity=Sylvie (ID: 17863424/0x01109300))
307: 0x09C2 [0x4E] SET_ENTITY_HIDE_FLAG: Hide Sylvie (ID: 17863424/0x01109300)
308: 0x09C8 [0x4E] SET_ENTITY_HIDE_FLAG: Hide Unnamed NPC (ID: 17863440/0x01109310)
309: 0x09CE [0x4E] SET_ENTITY_HIDE_FLAG: Hide Unnamed NPC (ID: 17863441/0x01109311)
310: 0x09D4 [0x5C] MUSIC_CONTROL: Set Idle (Day) music to song 60*
311: 0x09D8 [0x5C] MUSIC_CONTROL: Set Idle (Night) music to song 60*
312: 0x09DC [0x5C] MUSIC_CONTROL: Set Combat (Solo) music to song 57*
313: 0x09E0 [0x5C] MUSIC_CONTROL: Set Combat (Party) music to song 57*
314: 0x09E4 [0x9A] WAIT_MUSIC_SERVER()
315: 0x09E5 [0x5C] MUSIC_CONTROL: Set music volume to song 127*, fade_time=1*
316: 0x09EB [0x5C] MUSIC_CONTROL: Adjust music volume to song 127*, fade_time=1*
317: 0x09F1 [0x1C] WAIT(15* ticks)
318: 0x09F4 [0xAB] EventEntity->DespawnValue = 0* // Set despawn value
319: 0x09F8 [0x1C] WAIT(1* ticks)
320: 0x09FB [0xAB] EventEntity->UnknownFlag = 0 // Disable unknown flag
321: 0x09FD [0x46] CAMERA_CONTROL: Restore default settings
322: 0x09FF [0x45] LOAD_SCHEDULED_TASK: Load scheduler "fdi2" with entities [LocalPlayer, LocalPlayer], work=[200*, 0*]
323: 0x0A10 [0x21] END_EVENT
324: 0x0A11 [0x00] END_REQSTACK()
```

### Event 64

#### Metadata

| Field        | Value      |
|--------------|------------|
| Entrypoint   | 0x0A12     |
| Data Size    | 1995 bytes |
| Instructions | 276        |

```
      00 01 02 03 04 05 06 07  08 09 0A 0B 0C 0D 0E 0F
      -- -- -- -- -- -- -- --  -- -- -- -- -- -- -- --
0A10:       42 45 00 80 F0 FF  FF 7F F0 FF FF 7F 66 64    BE..........fd
0A20: 6F 31 01 80 55 00 80 F0  FF FF 7F F0 FF FF 7F 66  o1..U..........f
0A30: 64 6F 31 46 01 38 02 80  4E 00 F0 FF FF 7F 4E 00  do1F.8..N.....N.
0A40: 00 93 10 01 2F 00 00 93  10 01 94 01 00 93 10 01  ..../...........
0A50: 94 01 08 93 10 01 94 01  F0 FF FF 7F 92 01 00 93  ................
0A60: 10 01 92 01 08 93 10 01  27 08 08 93 10 01 02 BA  ........'.......
0A70: 00 93 10 01 61 80 62 80  63 80 64 80 BA F0 FF FF  ....a.b.c.d.....
0A80: 7F 65 80 66 80 67 80 68  80 80 00 93 10 01 80 08  .e.f.g.h........
0A90: 93 10 01 80 F0 FF FF 7F  2A 08 08 93 10 01 4A F0  ........*.....J.
0AA0: FF FF 7F 08 93 10 01 45  0E 80 F8 FF FF 7F F8 FF  .......E........
0AB0: FF 7F 73 30 30 30 01 80  1C 0F 80 45 00 80 F0 FF  ..s000.....E....
0AC0: FF 7F F0 FF FF 7F 66 64  69 31 01 80 27 08 F0 FF  ......fdi1..'...
0AD0: FF 7F 04 1C 1B 80 27 08  00 93 10 01 60 1C 1C 80  ......'.....`...
0AE0: 2B 00 93 10 01 69 80 2A  08 F0 FF FF 7F 23 27 08  +....i.*.....#'.
0AF0: F0 FF FF 7F 05 1C 15 80  2A 08 00 93 10 01 52 0E  ........*.....R.
0B00: 80 F8 FF FF 7F F8 FF FF  7F 73 30 30 30 02 87 7F  .........s000...
0B10: 6A 80 80 29 0B 45 0E 80  F8 FF FF 7F F8 FF FF 7F  j..).E..........
0B20: 73 30 31 36 01 80 01 AA  0B 02 87 7F 6B 80 80 45  s016........k..E
0B30: 0B 45 0E 80 F8 FF FF 7F  F8 FF FF 7F 73 30 31 36  .E..........s016
0B40: 01 80 01 AA 0B 02 87 7F  6C 80 80 61 0B 45 0E 80  ........l..a.E..
0B50: F8 FF FF 7F F8 FF FF 7F  73 30 31 38 01 80 01 AA  ........s018....
0B60: 0B 02 87 7F 6D 80 80 7D  0B 45 0E 80 F8 FF FF 7F  ....m..}.E......
0B70: F8 FF FF 7F 73 30 31 38  01 80 01 AA 0B 02 87 7F  ....s018........
0B80: 6E 80 80 99 0B 45 0E 80  F8 FF FF 7F F8 FF FF 7F  n....E..........
0B90: 73 30 31 36 01 80 01 AA  0B 45 0E 80 F8 FF FF 7F  s016.....E......
0BA0: F8 FF FF 7F 73 30 31 37  01 80 2B 00 93 10 01 6F  ....s017..+....o
0BB0: 80 2A 08 F0 FF FF 7F 4A  F0 FF FF 7F 00 93 10 01  .*.....J........
0BC0: 6F 76 F0 FF FF 7F 23 27  08 00 93 10 01 52 2B 00  ov....#'.....R+.
0BD0: 93 10 01 70 80 23 2B 00  93 10 01 71 80 2A 08 00  ...p.#+....q.*..
0BE0: 93 10 01 23 27 08 00 93  10 01 53 2B 00 93 10 01  ...#'.....S+....
0BF0: 72 80 2A 08 00 93 10 01  7B 00 93 10 01 29 08 00  r.*.....{....)..
0C00: 93 10 01 5A 23 27 08 00  93 10 01 61 1C 16 80 52  ...Z#'.....a...R
0C10: 0E 80 F8 FF FF 7F F8 FF  FF 7F 73 30 31 36 52 0E  ..........s016R.
0C20: 80 F8 FF FF 7F F8 FF FF  7F 73 30 31 37 52 0E 80  .........s017R..
0C30: F8 FF FF 7F F8 FF FF 7F  73 30 31 38 45 0E 80 F8  ........s018E...
0C40: FF FF 7F F8 FF FF 7F 73  30 31 39 01 80 2B 00 93  .......s019..+..
0C50: 10 01 73 80 2A 08 00 93  10 01 4A F0 FF FF 7F 00  ..s.*.....J.....
0C60: 93 10 01 6F 76 F0 FF FF  7F 23 2B 00 93 10 01 74  ...ov....#+....t
0C70: 80 23 52 0E 80 F8 FF FF  7F F8 FF FF 7F 73 30 31  .#R..........s01
0C80: 39 45 0E 80 F8 FF FF 7F  F8 FF FF 7F 73 30 32 30  9E..........s020
0C90: 01 80 27 08 00 93 10 01  58 2B 00 93 10 01 75 80  ..'.....X+....u.
0CA0: 2A 08 00 93 10 01 23 52  0E 80 F8 FF FF 7F F8 FF  *.....#R........
0CB0: FF 7F 73 30 32 30 45 0E  80 F8 FF FF 7F F8 FF FF  ..s020E.........
0CC0: 7F 73 30 32 31 01 80 48  2C 80 23 1C 76 80 5C A0  .s021..H,.#.v.\.
0CD0: 01 80 77 80 5C A1 01 80  78 80 7C 00 00 93 10 01  ..w.\...x.|.....
0CE0: 2B 00 93 10 01 79 80 23  7C 01 00 93 10 01 4A 00  +....y.#|.....J.
0CF0: 93 10 01 F0 FF FF 7F 6F  76 00 93 10 01 2B 00 93  .......ov....+..
0D00: 10 01 7A 80 23 52 0E 80  F8 FF FF 7F F8 FF FF 7F  ..z.#R..........
0D10: 73 30 32 31 45 0E 80 F8  FF FF 7F F8 FF FF 7F 73  s021E..........s
0D20: 30 32 32 01 80 24 7B 80  01 80 01 80 25 02 00 10  022..${.....%...
0D30: 01 80 00 79 0D 6E F0 FF  FF 7F 7C 80 99 F0 FF FF  ...y.n....|.....
0D40: 7F 1C 1C 80 5C A0 60 80  1B 80 5C A1 60 80 03 80  ....\.`...\.`...
0D50: 29 08 00 93 10 01 59 4B  00 93 10 01 7D 80 6F 76  ).....YK....}.ov
0D60: 00 93 10 01 52 0E 80 F8  FF FF 7F F8 FF FF 7F 73  ....R..........s
0D70: 30 32 32 01 B6 0C 01 C5  0D 02 00 10 17 80 00 C5  022.............
0D80: 0D 6E F0 FF FF 7F 7E 80  99 F0 FF FF 7F 1C 12 80  .n....~.........
0D90: 7B 00 93 10 01 29 08 00  93 10 01 50 1C 23 80 29  {....).....P.#.)
0DA0: 08 00 93 10 01 51 1C 2E  80 27 08 00 93 10 01 62  .....Q...'.....b
0DB0: 1C 1C 80 52 0E 80 F8 FF  FF 7F F8 FF FF 7F 73 30  ...R..........s0
0DC0: 32 32 01 C5 0D 45 0E 80  F8 FF FF 7F F8 FF FF 7F  22...E..........
0DD0: 73 30 32 33 01 80 2A 08  00 93 10 01 4A F0 FF FF  s023..*.....J...
0DE0: 7F 00 93 10 01 6F 76 F0  FF FF 7F 7C 00 00 93 10  .....ov....|....
0DF0: 01 2B 00 93 10 01 7F 80  23 7C 01 00 93 10 01 27  .+......#|.....'
0E00: 08 00 93 10 01 5B 2B 00  93 10 01 80 80 2A 08 00  .....[+......*..
0E10: 93 10 01 23 29 08 00 93  10 01 5E 4B 00 93 10 01  ...#).....^K....
0E20: 81 80 2B 00 93 10 01 82  80 6F 76 00 93 10 01 1C  ..+......ov.....
0E30: 1C 80 27 08 00 93 10 01  63 1C 1A 80 52 0E 80 F8  ..'.....c...R...
0E40: FF FF 7F F8 FF FF 7F 73  30 32 33 45 0E 80 F8 FF  .......s023E....
0E50: FF 7F F8 FF FF 7F 73 30  33 30 01 80 27 08 F0 FF  ......s030..'...
0E60: FF 7F 27 1C 83 80 52 0E  80 F8 FF FF 7F F8 FF FF  ..'...R.........
0E70: 7F 73 30 33 30 45 0E 80  F8 FF FF 7F F8 FF FF 7F  .s030E..........
0E80: 73 30 32 34 01 80 2A 08  00 93 10 01 23 27 08 00  s024..*.....#'..
0E90: 93 10 01 5C 2B 00 93 10  01 84 80 2A 08 00 93 10  ...\+......*....
0EA0: 01 2A 08 F0 FF FF 7F 4A  F0 FF FF 7F 00 93 10 01  .*.....J........
0EB0: 6F 76 F0 FF FF 7F 23 52  0E 80 F8 FF FF 7F F8 FF  ov....#R........
0EC0: FF 7F 73 30 32 34 45 0E  80 F8 FF FF 7F F8 FF FF  ..s024E.........
0ED0: 7F 73 30 32 35 01 80 27  08 00 93 10 01 5D 2B 00  .s025..'.....]+.
0EE0: 93 10 01 85 80 2A 08 00  93 10 01 23 52 0E 80 F8  .....*.....#R...
0EF0: FF FF 7F F8 FF FF 7F 73  30 32 35 45 0E 80 F8 FF  .......s025E....
0F00: FF 7F F8 FF FF 7F 73 30  32 36 01 80 29 08 00 93  ......s026..)...
0F10: 10 01 5E 4A 00 93 10 01  F0 FF FF 7F 2B 00 93 10  ..^J........+...
0F20: 01 86 80 6F 76 00 93 10  01 23 2B 00 93 10 01 87  ...ov....#+.....
0F30: 80 1C 23 80 6E F0 FF FF  7F 7C 80 99 F0 FF FF 7F  ..#.n....|......
0F40: 1C 23 80 23 52 0E 80 F8  FF FF 7F F8 FF FF 7F 73  .#.#R..........s
0F50: 30 32 36 5C 00 37 80 5C  01 37 80 5C 02 01 80 5C  026\.7.\.7.\...\
0F60: 03 01 80 9A 45 0E 80 F8  FF FF 7F F8 FF FF 7F 73  ....E..........s
0F70: 30 32 37 01 80 7B 00 93  10 01 27 08 00 93 10 01  027..{....'.....
0F80: 50 2B 00 93 10 01 88 80  23 1C 18 80 48 2C 80 23  P+......#...H,.#
0F90: 1C 89 80 2A 08 00 93 10  01 23 52 0E 80 F8 FF FF  ...*.....#R.....
0FA0: 7F F8 FF FF 7F 73 30 32  37 5C A0 01 80 1B 80 5C  .....s027\.....\
0FB0: A1 01 80 03 80 45 0E 80  F8 FF FF 7F F8 FF FF 7F  .....E..........
0FC0: 73 30 32 38 01 80 27 08  00 93 10 01 51 2B 00 93  s028..'.....Q+..
0FD0: 10 01 8A 80 2A 08 00 93  10 01 23 27 08 00 93 10  ....*.....#'....
0FE0: 01 56 2B 00 93 10 01 8B  80 2A 08 00 93 10 01 23  .V+......*.....#
0FF0: 52 0E 80 F8 FF FF 7F F8  FF FF 7F 73 30 32 38 5C  R..........s028\
1000: 00 01 80 5C 01 01 80 5C  02 0D 80 5C 03 0D 80 9A  ...\...\...\....
1010: 02 87 7F 6A 80 80 2C 10  45 0E 80 F8 FF FF 7F F8  ...j..,.E.......
1020: FF FF 7F 73 30 32 39 01  80 01 AD 10 02 87 7F 6B  ...s029........k
1030: 80 80 48 10 45 0E 80 F8  FF FF 7F F8 FF FF 7F 73  ..H.E..........s
1040: 30 32 39 01 80 01 AD 10  02 87 7F 6C 80 80 64 10  029........l..d.
1050: 45 0E 80 F8 FF FF 7F F8  FF FF 7F 73 30 33 32 01  E..........s032.
1060: 80 01 AD 10 02 87 7F 6D  80 80 80 10 45 0E 80 F8  .......m....E...
1070: FF FF 7F F8 FF FF 7F 73  30 33 32 01 80 01 AD 10  .......s032.....
1080: 02 87 7F 6E 80 80 9C 10  45 0E 80 F8 FF FF 7F F8  ...n....E.......
1090: FF FF 7F 73 30 32 39 01  80 01 AD 10 45 0E 80 F8  ...s029.....E...
10A0: FF FF 7F F8 FF FF 7F 73  30 33 31 01 80 27 08 00  .......s031..'..
10B0: 93 10 01 59 1C 1B 80 2A  08 00 93 10 01 79 00 00  ...Y...*.....y..
10C0: 93 10 01 F0 FF FF 7F 27  08 00 93 10 01 55 2B 00  .......'.....U+.
10D0: 93 10 01 8C 80 2A 08 00  93 10 01 23 2B 00 93 10  .....*.....#+...
10E0: 01 8D 80 23 7B 00 93 10  01 52 0E 80 F8 FF FF 7F  ...#{....R......
10F0: F8 FF FF 7F 73 30 32 39  52 0E 80 F8 FF FF 7F F8  ....s029R.......
1100: FF FF 7F 73 30 33 31 52  0E 80 F8 FF FF 7F F8 FF  ...s031R........
1110: FF 7F 73 30 33 32 5C 00  1C 80 5C 01 1C 80 5C 02  ..s032\...\...\.
1120: 0D 80 5C 03 0D 80 9A 5C  A0 60 80 17 80 5C A1 60  ..\....\.`...\.`
1130: 80 17 80 45 0E 80 F8 FF  FF 7F F8 FF FF 7F 73 30  ...E..........s0
1140: 33 33 01 80 27 08 00 93  10 01 4A 2B 00 93 10 01  33..'.....J+....
1150: 8E 80 23 2B 00 93 10 01  8F 80 2A 08 00 93 10 01  ..#+......*.....
1160: 23 27 08 00 93 10 01 4B  2B 00 93 10 01 90 80 2A  #'.....K+......*
1170: 08 00 93 10 01 1C 91 80  29 08 00 93 10 01 5A 23  ........).....Z#
1180: 45 00 80 F0 FF FF 7F F0  FF FF 7F 66 64 6F 31 01  E..........fdo1.
1190: 80 55 00 80 F0 FF FF 7F  F0 FF FF 7F 66 64 6F 31  .U..........fdo1
11A0: 52 0E 80 F8 FF FF 7F F8  FF FF 7F 73 30 33 33 29  R..........s033)
11B0: 08 08 93 10 01 03 4E 01  00 93 10 01 1C 0F 80 AB  ......N.........
11C0: 11 01 80 1C 17 80 AB 0A  46 00 45 00 80 F0 FF FF  ........F.E.....
11D0: 7F F0 FF FF 7F 66 64 69  32 01 80 21 00           .....fdi2..!.   
```

#### Opcodes

```
  0: 0x0A12 [0x42] SET_CLI_EVENT_CANCEL_DATA()
  1: 0x0A13 [0x45] LOAD_SCHEDULED_TASK: Load scheduler "fdo1" with entities [LocalPlayer, LocalPlayer], work=[200*, 0*]
  2: 0x0A24 [0x55] WAIT_LOAD_SCHEDULER: Wait for scheduler "fdo1" with entities [LocalPlayer, LocalPlayer], work=200*
  3: 0x0A33 [0x46] CAMERA_CONTROL: Disable user control
  4: 0x0A35 [0x38] SET_CLIENT_EVENT_MODE(mode=27*)
  5: 0x0A38 [0x4E] SET_ENTITY_HIDE_FLAG: Show LocalPlayer
  6: 0x0A3E [0x4E] SET_ENTITY_HIDE_FLAG: Show Sylvie (ID: 17863424/0x01109300)
  7: 0x0A44 [0x2F] Sylvie (ID: 17863424/0x01109300)->Render.Flags0 &= ~0x80000 // Bit 19
  8: 0x0A4A [0x94] Sylvie (ID: 17863424/0x01109300)->Render.Flags3 ^= 0x01
  9: 0x0A50 [0x94] Ergon Locus ??? (ID: 17863432/0x01109308)->Render.Flags3 ^= 0x01
 10: 0x0A56 [0x94] LocalPlayer->Render.Flags3 ^= 0x01
 11: 0x0A5C [0x92] Sylvie (ID: 17863424/0x01109300)->Render.Flags3 ^= 0x01
 12: 0x0A62 [0x92] Ergon Locus ??? (ID: 17863432/0x01109308)->Render.Flags3 ^= 0x01
 13: 0x0A68 [0x27] REQ_SET(priority=0x08, entity_id=Ergon Locus ??? (ID: 17863432/0x01109308), tag_num=0x02)
 14: 0x0A6F [0xBA] SET_ENTITY_POSITION(entity_id=Sylvie (ID: 17863424/0x01109300), pos_x=302.553*, pos_z=404.448*, pos_y=0.841*, direction=269.7°*)
 15: 0x0A7C [0xBA] SET_ENTITY_POSITION(entity_id=LocalPlayer, pos_x=303.176*, pos_z=392.503*, pos_y=0.124*, direction=134.0°*)
 16: 0x0A89 [0x80] LOAD_WAIT(entity=Sylvie (ID: 17863424/0x01109300))
 17: 0x0A8E [0x80] LOAD_WAIT(entity=Ergon Locus ??? (ID: 17863432/0x01109308))
 18: 0x0A93 [0x80] LOAD_WAIT(entity=LocalPlayer)
 19: 0x0A98 [0x2A] GET_REQ_LEVEL(level=8, entity_id=Ergon Locus ??? (ID: 17863432/0x01109308))
 20: 0x0A9E [0x4A] LocalPlayer looks at Ergon Locus ??? (ID: 17863432/0x01109308)
 21: 0x0AA7 [0x45] LOAD_SCHEDULED_TASK: Load scheduler "s000" with entities [EventEntity, EventEntity], work=[709*, 0*]
 22: 0x0AB8 [0x1C] WAIT(15* ticks)
 23: 0x0ABB [0x45] LOAD_SCHEDULED_TASK: Load scheduler "fdi1" with entities [LocalPlayer, LocalPlayer], work=[200*, 0*]
 24: 0x0ACC [0x27] REQ_SET(priority=0x08, entity_id=LocalPlayer, tag_num=0x04)
 25: 0x0AD3 [0x1C] WAIT(120* ticks)
 26: 0x0AD6 [0x27] REQ_SET(priority=0x08, entity_id=Sylvie (ID: 17863424/0x01109300), tag_num=0x60)
 27: 0x0ADD [0x1C] WAIT(60* ticks)
 28: 0x0AE0 [0x2B] Sylvie (ID: 17863424/0x01109300) [8113*]:
    → "<Player>...I'm really sorry."
 29: 0x0AE7 [0x2A] GET_REQ_LEVEL(level=8, entity_id=LocalPlayer)
 30: 0x0AED [0x23] WAIT_FOR_DIALOG_INTERACTION
 31: 0x0AEE [0x27] REQ_SET(priority=0x08, entity_id=LocalPlayer, tag_num=0x05)
 32: 0x0AF5 [0x1C] WAIT(20* ticks)
 33: 0x0AF8 [0x2A] GET_REQ_LEVEL(level=8, entity_id=Sylvie (ID: 17863424/0x01109300))
 34: 0x0AFE [0x52] END_LOAD_SCHEDULER: End scheduler "s000" with entities [EventEntity, EventEntity], work=709*
 35: 0x0B0D [0x02] IF !(LocalPlayer->Race == 3*) GOTO 0x0B29
 36: 0x0B15 [0x45] LOAD_SCHEDULED_TASK: Load scheduler "s016" with entities [EventEntity, EventEntity], work=[709*, 0*]
 37: 0x0B26 [0x01] GOTO 0x0BAA
 38: 0x0B29 [0x02] IF !(LocalPlayer->Race == 4*) GOTO 0x0B45
 39: 0x0B31 [0x45] LOAD_SCHEDULED_TASK: Load scheduler "s016" with entities [EventEntity, EventEntity], work=[709*, 0*]
 40: 0x0B42 [0x01] GOTO 0x0BAA
 41: 0x0B45 [0x02] IF !(LocalPlayer->Race == 5*) GOTO 0x0B61
 42: 0x0B4D [0x45] LOAD_SCHEDULED_TASK: Load scheduler "s018" with entities [EventEntity, EventEntity], work=[709*, 0*]
 43: 0x0B5E [0x01] GOTO 0x0BAA
 44: 0x0B61 [0x02] IF !(LocalPlayer->Race == 6*) GOTO 0x0B7D
 45: 0x0B69 [0x45] LOAD_SCHEDULED_TASK: Load scheduler "s018" with entities [EventEntity, EventEntity], work=[709*, 0*]
 46: 0x0B7A [0x01] GOTO 0x0BAA
 47: 0x0B7D [0x02] IF !(LocalPlayer->Race == 8*) GOTO 0x0B99
 48: 0x0B85 [0x45] LOAD_SCHEDULED_TASK: Load scheduler "s016" with entities [EventEntity, EventEntity], work=[709*, 0*]
 49: 0x0B96 [0x01] GOTO 0x0BAA
 50: 0x0B99 [0x45] LOAD_SCHEDULED_TASK: Load scheduler "s017" with entities [EventEntity, EventEntity], work=[709*, 0*]

SUBROUTINE_0BAA:
 51: 0x0BAA [0x2B] Sylvie (ID: 17863424/0x01109300) [8114*]:
    → "I've been hiding something from you."
 52: 0x0BB1 [0x2A] GET_REQ_LEVEL(level=8, entity_id=LocalPlayer)
 53: 0x0BB7 [0x4A] LocalPlayer looks at Sylvie (ID: 17863424/0x01109300)
 54: 0x0BC0 [0x6F] WAIT_FRAME_DELAY: Yield until WaitTime reaches zero
 55: 0x0BC1 [0x76] CHECK_ENTITY_RENDER_FLAGS: Wait until LocalPlayer Render.Flags0 and Render.Flags3 conditions are met
 56: 0x0BC6 [0x23] WAIT_FOR_DIALOG_INTERACTION
 57: 0x0BC7 [0x27] REQ_SET(priority=0x08, entity_id=Sylvie (ID: 17863424/0x01109300), tag_num=0x52)
 58: 0x0BCE [0x2B] Sylvie (ID: 17863424/0x01109300) [8115*]:
    → "I had hoped that I could hear Daddy's voice in the lifestream if I brought a storied geomancer such as yourself along with me."
 59: 0x0BD5 [0x23] WAIT_FOR_DIALOG_INTERACTION
 60: 0x0BD6 [0x2B] Sylvie (ID: 17863424/0x01109300) [8116*]:
    → "That's why I asked you to come with me."
 61: 0x0BDD [0x2A] GET_REQ_LEVEL(level=8, entity_id=Sylvie (ID: 17863424/0x01109300))
 62: 0x0BE3 [0x23] WAIT_FOR_DIALOG_INTERACTION
 63: 0x0BE4 [0x27] REQ_SET(priority=0x08, entity_id=Sylvie (ID: 17863424/0x01109300), tag_num=0x53)
 64: 0x0BEB [0x2B] Sylvie (ID: 17863424/0x01109300) [8117*]:
    → "I'm always asking you to come along with me. I know how selfish that is."
 65: 0x0BF2 [0x2A] GET_REQ_LEVEL(level=8, entity_id=Sylvie (ID: 17863424/0x01109300))
 66: 0x0BF8 [0x7B] Sylvie (ID: 17863424/0x01109300) stops talking
 67: 0x0BFD [0x29] REQ_SET_WAIT(priority=0x08, entity_id=Sylvie (ID: 17863424/0x01109300), tag_num=0x5A)
 68: 0x0C04 [0x23] WAIT_FOR_DIALOG_INTERACTION
 69: 0x0C05 [0x27] REQ_SET(priority=0x08, entity_id=Sylvie (ID: 17863424/0x01109300), tag_num=0x61)
 70: 0x0C0C [0x1C] WAIT(50* ticks)
 71: 0x0C0F [0x52] END_LOAD_SCHEDULER: End scheduler "s016" with entities [EventEntity, EventEntity], work=709*
 72: 0x0C1E [0x52] END_LOAD_SCHEDULER: End scheduler "s017" with entities [EventEntity, EventEntity], work=709*
 73: 0x0C2D [0x52] END_LOAD_SCHEDULER: End scheduler "s018" with entities [EventEntity, EventEntity], work=709*
 74: 0x0C3C [0x45] LOAD_SCHEDULED_TASK: Load scheduler "s019" with entities [EventEntity, EventEntity], work=[709*, 0*]
 75: 0x0C4D [0x2B] Sylvie (ID: 17863424/0x01109300) [8118*]:
    → "But I can't hear anything. Nothing at all."
 76: 0x0C54 [0x2A] GET_REQ_LEVEL(level=8, entity_id=Sylvie (ID: 17863424/0x01109300))
 77: 0x0C5A [0x4A] LocalPlayer looks at Sylvie (ID: 17863424/0x01109300)
 78: 0x0C63 [0x6F] WAIT_FRAME_DELAY: Yield until WaitTime reaches zero
 79: 0x0C64 [0x76] CHECK_ENTITY_RENDER_FLAGS: Wait until LocalPlayer Render.Flags0 and Render.Flags3 conditions are met
 80: 0x0C69 [0x23] WAIT_FOR_DIALOG_INTERACTION
 81: 0x0C6A [0x2B] Sylvie (ID: 17863424/0x01109300) [8119*]:
    → "I've grown so much as a geomancer, but I feel just as helpless as when I first donned the robes."
 82: 0x0C71 [0x23] WAIT_FOR_DIALOG_INTERACTION
 83: 0x0C72 [0x52] END_LOAD_SCHEDULER: End scheduler "s019" with entities [EventEntity, EventEntity], work=709*
 84: 0x0C81 [0x45] LOAD_SCHEDULED_TASK: Load scheduler "s020" with entities [EventEntity, EventEntity], work=[709*, 0*]
 85: 0x0C92 [0x27] REQ_SET(priority=0x08, entity_id=Sylvie (ID: 17863424/0x01109300), tag_num=0x58)
 86: 0x0C99 [0x2B] Sylvie (ID: 17863424/0x01109300) [8120*]:
    → "Why, Daddy? Why can't I hear you!?"
 87: 0x0CA0 [0x2A] GET_REQ_LEVEL(level=8, entity_id=Sylvie (ID: 17863424/0x01109300))
 88: 0x0CA6 [0x23] WAIT_FOR_DIALOG_INTERACTION
 89: 0x0CA7 [0x52] END_LOAD_SCHEDULER: End scheduler "s020" with entities [EventEntity, EventEntity], work=709*

SUBROUTINE_0CB6:
 90: 0x0CB6 [0x45] LOAD_SCHEDULED_TASK: Load scheduler "s021" with entities [EventEntity, EventEntity], work=[709*, 0*]
 91: 0x0CC7 [0x48] [System] [7787*]:
    → "@@"
 92: 0x0CCA [0x23] WAIT_FOR_DIALOG_INTERACTION
 93: 0x0CCB [0x1C] WAIT(180* ticks)
 94: 0x0CCE [0x5C] MUSIC_CONTROL: Set music volume to song 0*, fade_time=300*
 95: 0x0CD4 [0x5C] MUSIC_CONTROL: Adjust music volume to song 0*, fade_time=600*
 96: 0x0CDA [0x7C] Sylvie (ID: 17863424/0x01109300)->Render.Flags2 |= 0x00
 97: 0x0CE0 [0x2B] Sylvie (ID: 17863424/0x01109300) [8121*]:
    → "Huh?"
 98: 0x0CE7 [0x23] WAIT_FOR_DIALOG_INTERACTION
 99: 0x0CE8 [0x7C] Sylvie (ID: 17863424/0x01109300)->Render.Flags2 |= 0x01
100: 0x0CEE [0x4A] Sylvie (ID: 17863424/0x01109300) looks at LocalPlayer
101: 0x0CF7 [0x6F] WAIT_FRAME_DELAY: Yield until WaitTime reaches zero
102: 0x0CF8 [0x76] CHECK_ENTITY_RENDER_FLAGS: Wait until Sylvie (ID: 17863424/0x01109300) Render.Flags0 and Render.Flags3 conditions are met
103: 0x0CFD [0x2B] Sylvie (ID: 17863424/0x01109300) [8122*]:
    → "<Player>? Did you say something?"
104: 0x0D04 [0x23] WAIT_FOR_DIALOG_INTERACTION
105: 0x0D05 [0x52] END_LOAD_SCHEDULER: End scheduler "s021" with entities [EventEntity, EventEntity], work=709*
106: 0x0D14 [0x45] LOAD_SCHEDULED_TASK: Load scheduler "s022" with entities [EventEntity, EventEntity], work=[709*, 0*]
107: 0x0D25 [0x24] CREATE_DIALOG(message_id=8123*, default_option=0*, option_flags=0*)
    → "How do you respond? [Sure did!/I did not.]"
108: 0x0D2C [0x25] WAIT_DIALOG_SELECT()
109: 0x0D2D [0x02] IF !(Work_Zone[0] == 0*) GOTO 0x0D79
110: 0x0D35 [0x6E] LocalPlayer uses emote 7*
111: 0x0D3C [0x99] Wait for LocalPlayer animation to complete
112: 0x0D41 [0x1C] WAIT(60* ticks)
113: 0x0D44 [0x5C] MUSIC_CONTROL: Set music volume to song 127*, fade_time=120*
114: 0x0D4A [0x5C] MUSIC_CONTROL: Adjust music volume to song 127*, fade_time=240*
115: 0x0D50 [0x29] REQ_SET_WAIT(priority=0x08, entity_id=Sylvie (ID: 17863424/0x01109300), tag_num=0x59)
116: 0x0D57 [0x4B] UPDATE_ENTITY_YAW(entity=Sylvie (ID: 17863424/0x01109300), yaw=0.6°*)
117: 0x0D5E [0x6F] WAIT_FRAME_DELAY: Yield until WaitTime reaches zero
118: 0x0D5F [0x76] CHECK_ENTITY_RENDER_FLAGS: Wait until Sylvie (ID: 17863424/0x01109300) Render.Flags0 and Render.Flags3 conditions are met
119: 0x0D64 [0x52] END_LOAD_SCHEDULER: End scheduler "s022" with entities [EventEntity, EventEntity], work=709*
120: 0x0D73 [0x01] GOTO 0x0CB6

SUBROUTINE_0DC5:
121: 0x0DC5 [0x45] LOAD_SCHEDULED_TASK: Load scheduler "s023" with entities [EventEntity, EventEntity], work=[709*, 0*]
122: 0x0DD6 [0x2A] GET_REQ_LEVEL(level=8, entity_id=Sylvie (ID: 17863424/0x01109300))
123: 0x0DDC [0x4A] LocalPlayer looks at Sylvie (ID: 17863424/0x01109300)
124: 0x0DE5 [0x6F] WAIT_FRAME_DELAY: Yield until WaitTime reaches zero
125: 0x0DE6 [0x76] CHECK_ENTITY_RENDER_FLAGS: Wait until LocalPlayer Render.Flags0 and Render.Flags3 conditions are met
126: 0x0DEB [0x7C] Sylvie (ID: 17863424/0x01109300)->Render.Flags2 |= 0x00
127: 0x0DF1 [0x2B] Sylvie (ID: 17863424/0x01109300) [8124*]:
    → "No, there's definitely something there!"
128: 0x0DF8 [0x23] WAIT_FOR_DIALOG_INTERACTION
129: 0x0DF9 [0x7C] Sylvie (ID: 17863424/0x01109300)->Render.Flags2 |= 0x01
130: 0x0DFF [0x27] REQ_SET(priority=0x08, entity_id=Sylvie (ID: 17863424/0x01109300), tag_num=0x5B)
131: 0x0E06 [0x2B] Sylvie (ID: 17863424/0x01109300) [8125*]:
    → "Maybe...here?"
132: 0x0E0D [0x2A] GET_REQ_LEVEL(level=8, entity_id=Sylvie (ID: 17863424/0x01109300))
133: 0x0E13 [0x23] WAIT_FOR_DIALOG_INTERACTION
134: 0x0E14 [0x29] REQ_SET_WAIT(priority=0x08, entity_id=Sylvie (ID: 17863424/0x01109300), tag_num=0x5E)
135: 0x0E1B [0x4B] UPDATE_ENTITY_YAW(entity=Sylvie (ID: 17863424/0x01109300), yaw=20.8°*)
136: 0x0E22 [0x2B] Sylvie (ID: 17863424/0x01109300) [8126*]:
    → "Wait--over here!"
137: 0x0E29 [0x6F] WAIT_FRAME_DELAY: Yield until WaitTime reaches zero
138: 0x0E2A [0x76] CHECK_ENTITY_RENDER_FLAGS: Wait until Sylvie (ID: 17863424/0x01109300) Render.Flags0 and Render.Flags3 conditions are met
139: 0x0E2F [0x1C] WAIT(60* ticks)
140: 0x0E32 [0x27] REQ_SET(priority=0x08, entity_id=Sylvie (ID: 17863424/0x01109300), tag_num=0x63)
141: 0x0E39 [0x1C] WAIT(70* ticks)
142: 0x0E3C [0x52] END_LOAD_SCHEDULER: End scheduler "s023" with entities [EventEntity, EventEntity], work=709*
143: 0x0E4B [0x45] LOAD_SCHEDULED_TASK: Load scheduler "s030" with entities [EventEntity, EventEntity], work=[709*, 0*]
144: 0x0E5C [0x27] REQ_SET(priority=0x08, entity_id=LocalPlayer, tag_num=0x27)
145: 0x0E63 [0x1C] WAIT(260* ticks)
146: 0x0E66 [0x52] END_LOAD_SCHEDULER: End scheduler "s030" with entities [EventEntity, EventEntity], work=709*
147: 0x0E75 [0x45] LOAD_SCHEDULED_TASK: Load scheduler "s024" with entities [EventEntity, EventEntity], work=[709*, 0*]
148: 0x0E86 [0x2A] GET_REQ_LEVEL(level=8, entity_id=Sylvie (ID: 17863424/0x01109300))
149: 0x0E8C [0x23] WAIT_FOR_DIALOG_INTERACTION
150: 0x0E8D [0x27] REQ_SET(priority=0x08, entity_id=Sylvie (ID: 17863424/0x01109300), tag_num=0x5C)
151: 0x0E94 [0x2B] Sylvie (ID: 17863424/0x01109300) [8127*]:
    → "There's something buried in the snow."
152: 0x0E9B [0x2A] GET_REQ_LEVEL(level=8, entity_id=Sylvie (ID: 17863424/0x01109300))
153: 0x0EA1 [0x2A] GET_REQ_LEVEL(level=8, entity_id=LocalPlayer)
154: 0x0EA7 [0x4A] LocalPlayer looks at Sylvie (ID: 17863424/0x01109300)
155: 0x0EB0 [0x6F] WAIT_FRAME_DELAY: Yield until WaitTime reaches zero
156: 0x0EB1 [0x76] CHECK_ENTITY_RENDER_FLAGS: Wait until LocalPlayer Render.Flags0 and Render.Flags3 conditions are met
157: 0x0EB6 [0x23] WAIT_FOR_DIALOG_INTERACTION
158: 0x0EB7 [0x52] END_LOAD_SCHEDULER: End scheduler "s024" with entities [EventEntity, EventEntity], work=709*
159: 0x0EC6 [0x45] LOAD_SCHEDULED_TASK: Load scheduler "s025" with entities [EventEntity, EventEntity], work=[709*, 0*]
160: 0x0ED7 [0x27] REQ_SET(priority=0x08, entity_id=Sylvie (ID: 17863424/0x01109300), tag_num=0x5D)
161: 0x0EDE [0x2B] Sylvie (ID: 17863424/0x01109300) [8128*]:
    → "<Player>! Take a look at this!"
162: 0x0EE5 [0x2A] GET_REQ_LEVEL(level=8, entity_id=Sylvie (ID: 17863424/0x01109300))
163: 0x0EEB [0x23] WAIT_FOR_DIALOG_INTERACTION
164: 0x0EEC [0x52] END_LOAD_SCHEDULER: End scheduler "s025" with entities [EventEntity, EventEntity], work=709*
165: 0x0EFB [0x45] LOAD_SCHEDULED_TASK: Load scheduler "s026" with entities [EventEntity, EventEntity], work=[709*, 0*]
166: 0x0F0C [0x29] REQ_SET_WAIT(priority=0x08, entity_id=Sylvie (ID: 17863424/0x01109300), tag_num=0x5E)
167: 0x0F13 [0x4A] Sylvie (ID: 17863424/0x01109300) looks at LocalPlayer
168: 0x0F1C [0x2B] Sylvie (ID: 17863424/0x01109300) [8129*]:
    → "There's a letter from Daddy here in this pouch!"
169: 0x0F23 [0x6F] WAIT_FRAME_DELAY: Yield until WaitTime reaches zero
170: 0x0F24 [0x76] CHECK_ENTITY_RENDER_FLAGS: Wait until Sylvie (ID: 17863424/0x01109300) Render.Flags0 and Render.Flags3 conditions are met
171: 0x0F29 [0x23] WAIT_FOR_DIALOG_INTERACTION
172: 0x0F2A [0x2B] Sylvie (ID: 17863424/0x01109300) [8130*]:
    → "Let's see what it says."
173: 0x0F31 [0x1C] WAIT(80* ticks)
174: 0x0F34 [0x6E] LocalPlayer uses emote 7*
175: 0x0F3B [0x99] Wait for LocalPlayer animation to complete
176: 0x0F40 [0x1C] WAIT(80* ticks)
177: 0x0F43 [0x23] WAIT_FOR_DIALOG_INTERACTION
178: 0x0F44 [0x52] END_LOAD_SCHEDULER: End scheduler "s026" with entities [EventEntity, EventEntity], work=709*
179: 0x0F53 [0x5C] MUSIC_CONTROL: Set Idle (Day) music to song 68*
180: 0x0F57 [0x5C] MUSIC_CONTROL: Set Idle (Night) music to song 68*
181: 0x0F5B [0x5C] MUSIC_CONTROL: Set Combat (Solo) music to song 0*
182: 0x0F5F [0x5C] MUSIC_CONTROL: Set Combat (Party) music to song 0*
183: 0x0F63 [0x9A] WAIT_MUSIC_SERVER()
184: 0x0F64 [0x45] LOAD_SCHEDULED_TASK: Load scheduler "s027" with entities [EventEntity, EventEntity], work=[709*, 0*]
185: 0x0F75 [0x7B] Sylvie (ID: 17863424/0x01109300) stops talking
186: 0x0F7A [0x27] REQ_SET(priority=0x08, entity_id=Sylvie (ID: 17863424/0x01109300), tag_num=0x50)
187: 0x0F81 [0x2B] Sylvie (ID: 17863424/0x01109300) [8131*]:
    → ""It sleeps where the frozen flower hangs over boiling magma.""
188: 0x0F88 [0x23] WAIT_FOR_DIALOG_INTERACTION
189: 0x0F89 [0x1C] WAIT(90* ticks)
190: 0x0F8C [0x48] [System] [7787*]:
    → "@@"
191: 0x0F8F [0x23] WAIT_FOR_DIALOG_INTERACTION
192: 0x0F90 [0x1C] WAIT(110* ticks)
193: 0x0F93 [0x2A] GET_REQ_LEVEL(level=8, entity_id=Sylvie (ID: 17863424/0x01109300))
194: 0x0F99 [0x23] WAIT_FOR_DIALOG_INTERACTION
195: 0x0F9A [0x52] END_LOAD_SCHEDULER: End scheduler "s027" with entities [EventEntity, EventEntity], work=709*
196: 0x0FA9 [0x5C] MUSIC_CONTROL: Set music volume to song 0*, fade_time=120*
197: 0x0FAF [0x5C] MUSIC_CONTROL: Adjust music volume to song 0*, fade_time=240*
198: 0x0FB5 [0x45] LOAD_SCHEDULED_TASK: Load scheduler "s028" with entities [EventEntity, EventEntity], work=[709*, 0*]
199: 0x0FC6 [0x27] REQ_SET(priority=0x08, entity_id=Sylvie (ID: 17863424/0x01109300), tag_num=0x51)
200: 0x0FCD [0x2B] Sylvie (ID: 17863424/0x01109300) [8132*]:
    → "That's it!?"
201: 0x0FD4 [0x2A] GET_REQ_LEVEL(level=8, entity_id=Sylvie (ID: 17863424/0x01109300))
202: 0x0FDA [0x23] WAIT_FOR_DIALOG_INTERACTION
203: 0x0FDB [0x27] REQ_SET(priority=0x08, entity_id=Sylvie (ID: 17863424/0x01109300), tag_num=0x56)
204: 0x0FE2 [0x2B] Sylvie (ID: 17863424/0x01109300) [8133*]:
    → ""It sleeps"? What sleeps?"
205: 0x0FE9 [0x2A] GET_REQ_LEVEL(level=8, entity_id=Sylvie (ID: 17863424/0x01109300))
206: 0x0FEF [0x23] WAIT_FOR_DIALOG_INTERACTION
207: 0x0FF0 [0x52] END_LOAD_SCHEDULER: End scheduler "s028" with entities [EventEntity, EventEntity], work=709*
208: 0x0FFF [0x5C] MUSIC_CONTROL: Set Idle (Day) music to song 0*
209: 0x1003 [0x5C] MUSIC_CONTROL: Set Idle (Night) music to song 0*
210: 0x1007 [0x5C] MUSIC_CONTROL: Set Combat (Solo) music to song 57*
211: 0x100B [0x5C] MUSIC_CONTROL: Set Combat (Party) music to song 57*
212: 0x100F [0x9A] WAIT_MUSIC_SERVER()
213: 0x1010 [0x02] IF !(LocalPlayer->Race == 3*) GOTO 0x102C
214: 0x1018 [0x45] LOAD_SCHEDULED_TASK: Load scheduler "s029" with entities [EventEntity, EventEntity], work=[709*, 0*]
215: 0x1029 [0x01] GOTO 0x10AD
216: 0x102C [0x02] IF !(LocalPlayer->Race == 4*) GOTO 0x1048
217: 0x1034 [0x45] LOAD_SCHEDULED_TASK: Load scheduler "s029" with entities [EventEntity, EventEntity], work=[709*, 0*]
218: 0x1045 [0x01] GOTO 0x10AD
219: 0x1048 [0x02] IF !(LocalPlayer->Race == 5*) GOTO 0x1064
220: 0x1050 [0x45] LOAD_SCHEDULED_TASK: Load scheduler "s032" with entities [EventEntity, EventEntity], work=[709*, 0*]
221: 0x1061 [0x01] GOTO 0x10AD
222: 0x1064 [0x02] IF !(LocalPlayer->Race == 6*) GOTO 0x1080
223: 0x106C [0x45] LOAD_SCHEDULED_TASK: Load scheduler "s032" with entities [EventEntity, EventEntity], work=[709*, 0*]
224: 0x107D [0x01] GOTO 0x10AD
225: 0x1080 [0x02] IF !(LocalPlayer->Race == 8*) GOTO 0x109C
226: 0x1088 [0x45] LOAD_SCHEDULED_TASK: Load scheduler "s029" with entities [EventEntity, EventEntity], work=[709*, 0*]
227: 0x1099 [0x01] GOTO 0x10AD
228: 0x109C [0x45] LOAD_SCHEDULED_TASK: Load scheduler "s031" with entities [EventEntity, EventEntity], work=[709*, 0*]

SUBROUTINE_10AD:
229: 0x10AD [0x27] REQ_SET(priority=0x08, entity_id=Sylvie (ID: 17863424/0x01109300), tag_num=0x59)
230: 0x10B4 [0x1C] WAIT(120* ticks)
231: 0x10B7 [0x2A] GET_REQ_LEVEL(level=8, entity_id=Sylvie (ID: 17863424/0x01109300))
232: 0x10BD [0x79] Sylvie (ID: 17863424/0x01109300) looks at LocalPlayer (Basic look)
233: 0x10C7 [0x27] REQ_SET(priority=0x08, entity_id=Sylvie (ID: 17863424/0x01109300), tag_num=0x55)
234: 0x10CE [0x2B] Sylvie (ID: 17863424/0x01109300) [8134*]:
    → "Well, <Player>, I could sit here on my tushie or find out what Daddy is talking about."
235: 0x10D5 [0x2A] GET_REQ_LEVEL(level=8, entity_id=Sylvie (ID: 17863424/0x01109300))
236: 0x10DB [0x23] WAIT_FOR_DIALOG_INTERACTION
237: 0x10DC [0x2B] Sylvie (ID: 17863424/0x01109300) [8135*]:
    → "Hmmm..."
238: 0x10E3 [0x23] WAIT_FOR_DIALOG_INTERACTION
239: 0x10E4 [0x7B] Sylvie (ID: 17863424/0x01109300) stops talking
240: 0x10E9 [0x52] END_LOAD_SCHEDULER: End scheduler "s029" with entities [EventEntity, EventEntity], work=709*
241: 0x10F8 [0x52] END_LOAD_SCHEDULER: End scheduler "s031" with entities [EventEntity, EventEntity], work=709*
242: 0x1107 [0x52] END_LOAD_SCHEDULER: End scheduler "s032" with entities [EventEntity, EventEntity], work=709*
243: 0x1116 [0x5C] MUSIC_CONTROL: Set Idle (Day) music to song 60*
244: 0x111A [0x5C] MUSIC_CONTROL: Set Idle (Night) music to song 60*
245: 0x111E [0x5C] MUSIC_CONTROL: Set Combat (Solo) music to song 57*
246: 0x1122 [0x5C] MUSIC_CONTROL: Set Combat (Party) music to song 57*
247: 0x1126 [0x9A] WAIT_MUSIC_SERVER()
248: 0x1127 [0x5C] MUSIC_CONTROL: Set music volume to song 127*, fade_time=1*
249: 0x112D [0x5C] MUSIC_CONTROL: Adjust music volume to song 127*, fade_time=1*
250: 0x1133 [0x45] LOAD_SCHEDULED_TASK: Load scheduler "s033" with entities [EventEntity, EventEntity], work=[709*, 0*]
251: 0x1144 [0x27] REQ_SET(priority=0x08, entity_id=Sylvie (ID: 17863424/0x01109300), tag_num=0x4A)
252: 0x114B [0x2B] Sylvie (ID: 17863424/0x01109300) [8136*]:
    → "There's gotta be something here in Morimar Basalt Fields, don't you think?"
253: 0x1152 [0x23] WAIT_FOR_DIALOG_INTERACTION
254: 0x1153 [0x2B] Sylvie (ID: 17863424/0x01109300) [8137*]:
    → "I keep doing this to you, <Player>, but please come with me a little while longer!"
255: 0x115A [0x2A] GET_REQ_LEVEL(level=8, entity_id=Sylvie (ID: 17863424/0x01109300))
256: 0x1160 [0x23] WAIT_FOR_DIALOG_INTERACTION
257: 0x1161 [0x27] REQ_SET(priority=0x08, entity_id=Sylvie (ID: 17863424/0x01109300), tag_num=0x4B)
258: 0x1168 [0x2B] Sylvie (ID: 17863424/0x01109300) [8138*]:
    → "C'mon!"
259: 0x116F [0x2A] GET_REQ_LEVEL(level=8, entity_id=Sylvie (ID: 17863424/0x01109300))
260: 0x1175 [0x1C] WAIT(45* ticks)
261: 0x1178 [0x29] REQ_SET_WAIT(priority=0x08, entity_id=Sylvie (ID: 17863424/0x01109300), tag_num=0x5A)
262: 0x117F [0x23] WAIT_FOR_DIALOG_INTERACTION
263: 0x1180 [0x45] LOAD_SCHEDULED_TASK: Load scheduler "fdo1" with entities [LocalPlayer, LocalPlayer], work=[200*, 0*]
264: 0x1191 [0x55] WAIT_LOAD_SCHEDULER: Wait for scheduler "fdo1" with entities [LocalPlayer, LocalPlayer], work=200*
265: 0x11A0 [0x52] END_LOAD_SCHEDULER: End scheduler "s033" with entities [EventEntity, EventEntity], work=709*
266: 0x11AF [0x29] REQ_SET_WAIT(priority=0x08, entity_id=Ergon Locus ??? (ID: 17863432/0x01109308), tag_num=0x03)
267: 0x11B6 [0x4E] SET_ENTITY_HIDE_FLAG: Hide Sylvie (ID: 17863424/0x01109300)
268: 0x11BC [0x1C] WAIT(15* ticks)
269: 0x11BF [0xAB] EventEntity->DespawnValue = 0* // Set despawn value
270: 0x11C3 [0x1C] WAIT(1* ticks)
271: 0x11C6 [0xAB] EventEntity->UnknownFlag = 0 // Disable unknown flag
272: 0x11C8 [0x46] CAMERA_CONTROL: Restore default settings
273: 0x11CA [0x45] LOAD_SCHEDULED_TASK: Load scheduler "fdi2" with entities [LocalPlayer, LocalPlayer], work=[200*, 0*]
274: 0x11DB [0x21] END_EVENT
275: 0x11DC [0x00] END_REQSTACK()
```

#### Data or dead code:

```
# Dead code (unreachable instructions):
     0x0D76 [0x01] GOTO 0x0DC5
```
