# 17863441

## Common Data

| Field            | Value                           |
|------------------|---------------------------------|
| Zone             | Morimar Basalt Fields (ID: 265) |
| Block Size       | 288 bytes                       |
| Total Events     | 9                               |
| References Count | 6                               |

## List of Events

| Event ID                 | Entrypoint   |   Size |   Instructions |
|--------------------------|--------------|--------|----------------|
| [65535](#event-65535)    | 0x0000       |      1 |              1 |
| [65](#event-65)          | 0x0001       |     18 |              3 |
| [66](#event-66)          | 0x0013       |      5 |              2 |
| [65535.1](#event-655351) | 0x0018       |     27 |              3 |
| [65535.2](#event-655352) | 0x0033       |     27 |              3 |
| [65535.3](#event-655353) | 0x004E       |     27 |              3 |
| [65535.4](#event-655354) | 0x0069       |     53 |              5 |
| [65535.5](#event-655355) | 0x009E       |     27 |              3 |
| [65535.6](#event-655356) | 0x00B9       |     27 |              3 |

## DAT References (imed_data)

|   Index | Hex Value   |   Dec Value |
|---------|-------------|-------------|
|       0 | 0x0032      |          50 |
|       1 | 0x8B1D      |       35613 |
|       2 | 0x3BBD7     |      244695 |
|       3 | 0xFFFFC0D8  |  4294951128 |
|       4 | 0x05DC      |        1500 |
|       5 | 0x0000      |           0 |

## Events

### Event 65535

#### Metadata

| Field        | Value   |
|--------------|---------|
| Entrypoint   | 0x0000  |
| Data Size    | 1 bytes |
| Instructions | 1       |

```
      00 01 02 03 04 05 06 07  08 09 0A 0B 0C 0D 0E 0F
      -- -- -- -- -- -- -- --  -- -- -- -- -- -- -- --
0000: 00                                                .               
```

#### Opcodes

```
  0: 0x0000 [0x00] END_REQSTACK()
```

### Event 65

#### Metadata

| Field        | Value    |
|--------------|----------|
| Entrypoint   | 0x0001   |
| Data Size    | 18 bytes |
| Instructions | 3        |

```
      00 01 02 03 04 05 06 07  08 09 0A 0B 0C 0D 0E 0F
      -- -- -- -- -- -- -- --  -- -- -- -- -- -- -- --
0000:    B6 0F 00 80 BA 11 93  10 01 01 80 02 80 03 80   ...............
0010: 04 80 00                                          ...             
```

#### Opcodes

```
  0: 0x0001 [0xB6] ENTITY_APPEARANCE_HANDLER(case=Model size, value=50*)
  1: 0x0005 [0xBA] SET_ENTITY_POSITION(entity_id=Unnamed NPC (ID: 17863441/0x01109311), pos_x=35.613*, pos_z=244.695*, pos_y=-16.168*, direction=131.8°*)
  2: 0x0012 [0x00] END_REQSTACK()
```

### Event 66

#### Metadata

| Field        | Value   |
|--------------|---------|
| Entrypoint   | 0x0013  |
| Data Size    | 5 bytes |
| Instructions | 2       |

```
      00 01 02 03 04 05 06 07  08 09 0A 0B 0C 0D 0E 0F
      -- -- -- -- -- -- -- --  -- -- -- -- -- -- -- --
0010:          B6 0F 00 80 00                              .....        
```

#### Opcodes

```
  0: 0x0013 [0xB6] ENTITY_APPEARANCE_HANDLER(case=Model size, value=50*)
  1: 0x0017 [0x00] END_REQSTACK()
```

### Event 65535.1

#### Metadata

| Field        | Value    |
|--------------|----------|
| Entrypoint   | 0x0018   |
| Data Size    | 27 bytes |
| Instructions | 3        |

```
      00 01 02 03 04 05 06 07  08 09 0A 0B 0C 0D 0E 0F
      -- -- -- -- -- -- -- --  -- -- -- -- -- -- -- --
0010:                          2C F8 FF FF 7F F8 FF FF          ,.......
0020: 7F 6F 70 65 6E 53 F8 FF  FF 7F F8 FF FF 7F 6F 70  .openS........op
0030: 65 6E 00                                          en.             
```

#### Opcodes

```
  0: 0x0018 [0x2C] CREATE_SCHEDULER_TASK: Create scheduler "open" with entities [EventEntity, EventEntity]
  1: 0x0025 [0x53] WAIT_SCHEDULER_TASK: Wait for scheduler "open" with entities [EventEntity, EventEntity]
  2: 0x0032 [0x00] END_REQSTACK()
```

### Event 65535.2

#### Metadata

| Field        | Value    |
|--------------|----------|
| Entrypoint   | 0x0033   |
| Data Size    | 27 bytes |
| Instructions | 3        |

```
      00 01 02 03 04 05 06 07  08 09 0A 0B 0C 0D 0E 0F
      -- -- -- -- -- -- -- --  -- -- -- -- -- -- -- --
0030:          2C F8 FF FF 7F  F8 FF FF 7F 6F 70 65 31     ,........ope1
0040: 53 F8 FF FF 7F F8 FF FF  7F 6F 70 65 31 00        S........ope1.  
```

#### Opcodes

```
  0: 0x0033 [0x2C] CREATE_SCHEDULER_TASK: Create scheduler "ope1" with entities [EventEntity, EventEntity]
  1: 0x0040 [0x53] WAIT_SCHEDULER_TASK: Wait for scheduler "ope1" with entities [EventEntity, EventEntity]
  2: 0x004D [0x00] END_REQSTACK()
```

### Event 65535.3

#### Metadata

| Field        | Value    |
|--------------|----------|
| Entrypoint   | 0x004E   |
| Data Size    | 27 bytes |
| Instructions | 3        |

```
      00 01 02 03 04 05 06 07  08 09 0A 0B 0C 0D 0E 0F
      -- -- -- -- -- -- -- --  -- -- -- -- -- -- -- --
0040:                                            2C F8                ,.
0050: FF FF 7F F8 FF FF 7F 6F  70 65 32 53 F8 FF FF 7F  .......ope2S....
0060: F8 FF FF 7F 6F 70 65 32  00                       ....ope2.       
```

#### Opcodes

```
  0: 0x004E [0x2C] CREATE_SCHEDULER_TASK: Create scheduler "ope2" with entities [EventEntity, EventEntity]
  1: 0x005B [0x53] WAIT_SCHEDULER_TASK: Wait for scheduler "ope2" with entities [EventEntity, EventEntity]
  2: 0x0068 [0x00] END_REQSTACK()
```

### Event 65535.4

#### Metadata

| Field        | Value    |
|--------------|----------|
| Entrypoint   | 0x0069   |
| Data Size    | 53 bytes |
| Instructions | 5        |

```
      00 01 02 03 04 05 06 07  08 09 0A 0B 0C 0D 0E 0F
      -- -- -- -- -- -- -- --  -- -- -- -- -- -- -- --
0060:                             BA 11 93 10 01 05 80           .......
0070: 05 80 05 80 05 80 2C F8  FF FF 7F F8 FF FF 7F 6F  ......,........o
0080: 70 65 32 53 F8 FF FF 7F  F8 FF FF 7F 6F 70 65 32  pe2S........ope2
0090: BA 11 93 10 01 01 80 02  80 03 80 04 80 00        ..............  
```

#### Opcodes

```
  0: 0x0069 [0xBA] SET_ENTITY_POSITION(entity_id=Unnamed NPC (ID: 17863441/0x01109311), pos_x=0.000*, pos_z=0.000*, pos_y=0.000*, direction=0.0°*)
  1: 0x0076 [0x2C] CREATE_SCHEDULER_TASK: Create scheduler "ope2" with entities [EventEntity, EventEntity]
  2: 0x0083 [0x53] WAIT_SCHEDULER_TASK: Wait for scheduler "ope2" with entities [EventEntity, EventEntity]
  3: 0x0090 [0xBA] SET_ENTITY_POSITION(entity_id=Unnamed NPC (ID: 17863441/0x01109311), pos_x=35.613*, pos_z=244.695*, pos_y=-16.168*, direction=131.8°*)
  4: 0x009D [0x00] END_REQSTACK()
```

### Event 65535.5

#### Metadata

| Field        | Value    |
|--------------|----------|
| Entrypoint   | 0x009E   |
| Data Size    | 27 bytes |
| Instructions | 3        |

```
      00 01 02 03 04 05 06 07  08 09 0A 0B 0C 0D 0E 0F
      -- -- -- -- -- -- -- --  -- -- -- -- -- -- -- --
0090:                                            2C F8                ,.
00A0: FF FF 7F F8 FF FF 7F 63  6C 6F 73 53 F8 FF FF 7F  .......closS....
00B0: F8 FF FF 7F 63 6C 6F 73  00                       ....clos.       
```

#### Opcodes

```
  0: 0x009E [0x2C] CREATE_SCHEDULER_TASK: Create scheduler "clos" with entities [EventEntity, EventEntity]
  1: 0x00AB [0x53] WAIT_SCHEDULER_TASK: Wait for scheduler "clos" with entities [EventEntity, EventEntity]
  2: 0x00B8 [0x00] END_REQSTACK()
```

### Event 65535.6

#### Metadata

| Field        | Value    |
|--------------|----------|
| Entrypoint   | 0x00B9   |
| Data Size    | 27 bytes |
| Instructions | 3        |

```
      00 01 02 03 04 05 06 07  08 09 0A 0B 0C 0D 0E 0F
      -- -- -- -- -- -- -- --  -- -- -- -- -- -- -- --
00B0:                             2C F8 FF FF 7F F8 FF           ,......
00C0: FF 7F 6E 74 6F 65 53 F8  FF FF 7F F8 FF FF 7F 6E  ..ntoeS........n
00D0: 74 6F 65 00                                       toe.            
```

#### Opcodes

```
  0: 0x00B9 [0x2C] CREATE_SCHEDULER_TASK: Create scheduler "ntoe" with entities [EventEntity, EventEntity]
  1: 0x00C6 [0x53] WAIT_SCHEDULER_TASK: Wait for scheduler "ntoe" with entities [EventEntity, EventEntity]
  2: 0x00D3 [0x00] END_REQSTACK()
```
