# 17863313 - JGL_BUILD_MASTER_0

## Common Data

| Field            | Value                           |
|------------------|---------------------------------|
| Zone             | Morimar Basalt Fields (ID: 265) |
| Block Size       | 5576 bytes                      |
| Total Events     | 2                               |
| References Count | 73                              |

## List of Events

| Event ID              | Entrypoint   |   Size |   Instructions |
|-----------------------|--------------|--------|----------------|
| [65535](#event-65535) | 0x0000       |      1 |              1 |
| [2000](#event-2000)   | 0x0001       |   5258 |            817 |

## DAT References (imed_data)

|   Index | Hex Value   |   Dec Value |
|---------|-------------|-------------|
|       0 | 0x1C56      |        7254 |
|       1 | 0x0000      |           0 |
|       2 | 0x1C58      |        7256 |
|       3 | 0x0005      |           5 |
|       4 | 0x0013      |          19 |
|       5 | 0x0001      |           1 |
|       6 | 0x0002      |           2 |
|       7 | 0x40000000  |  1073741824 |
|       8 | 0x0004      |           4 |
|       9 | 0x1C59      |        7257 |
|      10 | 0x03E8      |        1000 |
|      11 | 0x03E3      |         995 |
|      12 | 0x0389      |         905 |
|      13 | 0x0003      |           3 |
|      14 | 0x0384      |         900 |
|      15 | 0x037F      |         895 |
|      16 | 0x0325      |         805 |
|      17 | 0x0006      |           6 |
|      18 | 0x0320      |         800 |
|      19 | 0x0007      |           7 |
|      20 | 0x031B      |         795 |
|      21 | 0x0008      |           8 |
|      22 | 0x02C1      |         705 |
|      23 | 0x0009      |           9 |
|      24 | 0x02BC      |         700 |
|      25 | 0x000A      |          10 |
|      26 | 0x02B7      |         695 |
|      27 | 0x000B      |          11 |
|      28 | 0x025D      |         605 |
|      29 | 0x000C      |          12 |
|      30 | 0x0258      |         600 |
|      31 | 0x000D      |          13 |
|      32 | 0x0253      |         595 |
|      33 | 0x000E      |          14 |
|      34 | 0x01F9      |         505 |
|      35 | 0x000F      |          15 |
|      36 | 0x01F4      |         500 |
|      37 | 0x0010      |          16 |
|      38 | 0x01EF      |         495 |
|      39 | 0x0011      |          17 |
|      40 | 0x0195      |         405 |
|      41 | 0x0012      |          18 |
|      42 | 0x0190      |         400 |
|      43 | 0x018B      |         395 |
|      44 | 0x0014      |          20 |
|      45 | 0x0131      |         305 |
|      46 | 0x0015      |          21 |
|      47 | 0x012C      |         300 |
|      48 | 0x0016      |          22 |
|      49 | 0x0127      |         295 |
|      50 | 0x0017      |          23 |
|      51 | 0x00CD      |         205 |
|      52 | 0x0018      |          24 |
|      53 | 0x00C8      |         200 |
|      54 | 0x0019      |          25 |
|      55 | 0x00C3      |         195 |
|      56 | 0x001A      |          26 |
|      57 | 0x0069      |         105 |
|      58 | 0x001B      |          27 |
|      59 | 0x0064      |         100 |
|      60 | 0x001C      |          28 |
|      61 | 0x005F      |          95 |
|      62 | 0x001D      |          29 |
|      63 | 0x001E      |          30 |
|      64 | 0x001F      |          31 |
|      65 | 0x1C5A      |        7258 |
|      66 | 0x00FA      |         250 |
|      67 | 0x00F5      |         245 |
|      68 | 0x1C5B      |        7259 |
|      69 | 0x09C4      |        2500 |
|      70 | 0x07D0      |        2000 |
|      71 | 0x05DC      |        1500 |
|      72 | 0x0032      |          50 |

## String References

- **7254**: DEBUG: Debug? [Colonization rate degradation over time: on/off/Biouvac degradation over time: on/off./Change internal colonization rate value./Change internal station building value./Change internal biouvac A building value./Change internal biouvac B building value./Change internal biouvac C building value./Change internal biouvac D building value./Change internal biouvac E building value./Add station coalition assignment completion value./Add biouvac A coalition assignment completion value./Add biouvac B coalition assignment completion value./Add biouvac C coalition assignment completion value./Add biouvac D coalition assignment completion value./Add biouvac E coalition assignment completion value./Add ergon locus A coalition assignment completion value./Add ergon locus B coalition assignment completion value./Add ergon locus C coalition assignment completion value./Add ergon locus D coalition assignment completion value./Ergon loc degradation over time: on/off./Add colonization rate coalition assigment completion value./Cancel.]
- **7256**: DEBUG: Degradation over time on/off. [ON./OFF./Cancel.]
- **7257**: DEBUG: Change internal value. [1000./995./905./900./895./805./800./795./705./700./695./605./600./595./505./500./495./405./400."95."05."00."95."05."00./195./105./100./95./5./0./Cancel.]
- **7258**: DEBUG: Change internal value. [250."45."05."00./195./105./100./95./5./0./Cancel.]
- **7259**: DEBUG: Add completion value. [2500."000./1500./1000./500."50./100./50./10./5./Cancel.]

## Events

### Event 65535

#### Metadata

| Field        | Value   |
|--------------|---------|
| Entrypoint   | 0x0000  |
| Data Size    | 1 bytes |
| Instructions | 1       |

```
      00 01 02 03 04 05 06 07  08 09 0A 0B 0C 0D 0E 0F
      -- -- -- -- -- -- -- --  -- -- -- -- -- -- -- --
0000: 00                                                .               
```

#### Opcodes

```
  0: 0x0000 [0x00] END_REQSTACK()
```

### Event 2000

#### Metadata

| Field        | Value      |
|--------------|------------|
| Entrypoint   | 0x0001     |
| Data Size    | 5258 bytes |
| Instructions | 817        |

```
      00 01 02 03 04 05 06 07  08 09 0A 0B 0C 0D 0E 0F
      -- -- -- -- -- -- -- --  -- -- -- -- -- -- -- --
0000:    24 00 80 01 80 01 80  25 02 00 10 01 80 00 65   $......%......e
0010: 00 24 02 80 01 80 01 80  25 02 00 10 01 80 00 2D  .$......%......-
0020: 00 40 03 80 04 80 01 10  05 80 01 51 00 02 00 10  .@.........Q....
0030: 05 80 00 41 00 40 03 80  04 80 01 10 01 80 01 51  ...A.@.........Q
0040: 00 02 00 10 06 80 00 51  00 03 01 10 07 80 01 51  .......Q.......Q
0050: 00 02 01 10 07 80 01 62  00 40 01 80 08 80 01 10  .......b.@......
0060: 05 80 01 89 14 02 00 10  05 80 00 C1 00 24 02 80  .............$..
0070: 01 80 01 80 25 02 00 10  01 80 00 89 00 40 03 80  ....%........@..
0080: 04 80 01 10 05 80 01 AD  00 02 00 10 05 80 00 9D  ................
0090: 00 40 03 80 04 80 01 10  01 80 01 AD 00 02 00 10  .@..............
00A0: 06 80 00 AD 00 03 01 10  07 80 01 AD 00 02 01 10  ................
00B0: 07 80 01 BE 00 40 01 80  08 80 01 10 06 80 01 89  .....@..........
00C0: 14 02 00 10 06 80 00 61  03 24 09 80 01 80 01 80  .......a.$......
00D0: 25 02 00 10 01 80 00 E5  00 40 03 80 04 80 01 10  %........@......
00E0: 0A 80 01 4D 03 02 00 10  05 80 00 F9 00 40 03 80  ...M.........@..
00F0: 04 80 01 10 0B 80 01 4D  03 02 00 10 06 80 00 0D  .......M........
0100: 01 40 03 80 04 80 01 10  0C 80 01 4D 03 02 00 10  .@.........M....
0110: 0D 80 00 21 01 40 03 80  04 80 01 10 0E 80 01 4D  ...!.@.........M
0120: 03 02 00 10 08 80 00 35  01 40 03 80 04 80 01 10  .......5.@......
0130: 0F 80 01 4D 03 02 00 10  03 80 00 49 01 40 03 80  ...M.......I.@..
0140: 04 80 01 10 10 80 01 4D  03 02 00 10 11 80 00 5D  .......M.......]
0150: 01 40 03 80 04 80 01 10  12 80 01 4D 03 02 00 10  .@.........M....
0160: 13 80 00 71 01 40 03 80  04 80 01 10 14 80 01 4D  ...q.@.........M
0170: 03 02 00 10 15 80 00 85  01 40 03 80 04 80 01 10  .........@......
0180: 16 80 01 4D 03 02 00 10  17 80 00 99 01 40 03 80  ...M.........@..
0190: 04 80 01 10 18 80 01 4D  03 02 00 10 19 80 00 AD  .......M........
01A0: 01 40 03 80 04 80 01 10  1A 80 01 4D 03 02 00 10  .@.........M....
01B0: 1B 80 00 C1 01 40 03 80  04 80 01 10 1C 80 01 4D  .....@.........M
01C0: 03 02 00 10 1D 80 00 D5  01 40 03 80 04 80 01 10  .........@......
01D0: 1E 80 01 4D 03 02 00 10  1F 80 00 E9 01 40 03 80  ...M.........@..
01E0: 04 80 01 10 20 80 01 4D  03 02 00 10 21 80 00 FD  .... ..M....!...
01F0: 01 40 03 80 04 80 01 10  22 80 01 4D 03 02 00 10  .@......"..M....
0200: 23 80 00 11 02 40 03 80  04 80 01 10 24 80 01 4D  #....@......$..M
0210: 03 02 00 10 25 80 00 25  02 40 03 80 04 80 01 10  ....%..%.@......
0220: 26 80 01 4D 03 02 00 10  27 80 00 39 02 40 03 80  &..M....'..9.@..
0230: 04 80 01 10 28 80 01 4D  03 02 00 10 29 80 00 4D  ....(..M....)..M
0240: 02 40 03 80 04 80 01 10  2A 80 01 4D 03 02 00 10  .@......*..M....
0250: 04 80 00 61 02 40 03 80  04 80 01 10 2B 80 01 4D  ...a.@......+..M
0260: 03 02 00 10 2C 80 00 75  02 40 03 80 04 80 01 10  ....,..u.@......
0270: 2D 80 01 4D 03 02 00 10  2E 80 00 89 02 40 03 80  -..M.........@..
0280: 04 80 01 10 2F 80 01 4D  03 02 00 10 30 80 00 9D  ..../..M....0...
0290: 02 40 03 80 04 80 01 10  31 80 01 4D 03 02 00 10  .@......1..M....
02A0: 32 80 00 B1 02 40 03 80  04 80 01 10 33 80 01 4D  2....@......3..M
02B0: 03 02 00 10 34 80 00 C5  02 40 03 80 04 80 01 10  ....4....@......
02C0: 35 80 01 4D 03 02 00 10  36 80 00 D9 02 40 03 80  5..M....6....@..
02D0: 04 80 01 10 37 80 01 4D  03 02 00 10 38 80 00 ED  ....7..M....8...
02E0: 02 40 03 80 04 80 01 10  39 80 01 4D 03 02 00 10  .@......9..M....
02F0: 3A 80 00 01 03 40 03 80  04 80 01 10 3B 80 01 4D  :....@......;..M
0300: 03 02 00 10 3C 80 00 15  03 40 03 80 04 80 01 10  ....<....@......
0310: 3D 80 01 4D 03 02 00 10  3E 80 00 29 03 40 03 80  =..M....>..).@..
0320: 04 80 01 10 03 80 01 4D  03 02 00 10 3F 80 00 3D  .......M....?..=
0330: 03 40 03 80 04 80 01 10  01 80 01 4D 03 02 00 10  .@.........M....
0340: 40 80 00 4D 03 03 01 10  07 80 01 4D 03 02 01 10  @..M.......M....
0350: 07 80 01 5E 03 40 01 80  08 80 01 10 0D 80 01 89  ...^.@..........
0360: 14 02 00 10 0D 80 00 5D  04 24 41 80 01 80 01 80  .......].$A.....
0370: 25 02 00 10 01 80 00 85  03 40 03 80 04 80 01 10  %........@......
0380: 42 80 01 49 04 02 00 10  05 80 00 99 03 40 03 80  B..I.........@..
0390: 04 80 01 10 43 80 01 49  04 02 00 10 06 80 00 AD  ....C..I........
03A0: 03 40 03 80 04 80 01 10  33 80 01 49 04 02 00 10  .@......3..I....
03B0: 0D 80 00 C1 03 40 03 80  04 80 01 10 35 80 01 49  .....@......5..I
03C0: 04 02 00 10 08 80 00 D5  03 40 03 80 04 80 01 10  .........@......
03D0: 37 80 01 49 04 02 00 10  03 80 00 E9 03 40 03 80  7..I.........@..
03E0: 04 80 01 10 39 80 01 49  04 02 00 10 11 80 00 FD  ....9..I........
03F0: 03 40 03 80 04 80 01 10  3B 80 01 49 04 02 00 10  .@......;..I....
0400: 13 80 00 11 04 40 03 80  04 80 01 10 3D 80 01 49  .....@......=..I
0410: 04 02 00 10 15 80 00 25  04 40 03 80 04 80 01 10  .......%.@......
0420: 03 80 01 49 04 02 00 10  17 80 00 39 04 40 03 80  ...I.......9.@..
0430: 04 80 01 10 01 80 01 49  04 02 00 10 19 80 00 49  .......I.......I
0440: 04 03 01 10 07 80 01 49  04 02 01 10 07 80 01 5A  .......I.......Z
0450: 04 40 01 80 08 80 01 10  08 80 01 89 14 02 00 10  .@..............
0460: 08 80 00 59 05 24 41 80  01 80 01 80 25 02 00 10  ...Y.$A.....%...
0470: 01 80 00 81 04 40 03 80  04 80 01 10 42 80 01 45  .....@......B..E
0480: 05 02 00 10 05 80 00 95  04 40 03 80 04 80 01 10  .........@......
0490: 43 80 01 45 05 02 00 10  06 80 00 A9 04 40 03 80  C..E.........@..
04A0: 04 80 01 10 33 80 01 45  05 02 00 10 0D 80 00 BD  ....3..E........
04B0: 04 40 03 80 04 80 01 10  35 80 01 45 05 02 00 10  .@......5..E....
04C0: 08 80 00 D1 04 40 03 80  04 80 01 10 37 80 01 45  .....@......7..E
04D0: 05 02 00 10 03 80 00 E5  04 40 03 80 04 80 01 10  .........@......
04E0: 39 80 01 45 05 02 00 10  11 80 00 F9 04 40 03 80  9..E.........@..
04F0: 04 80 01 10 3B 80 01 45  05 02 00 10 13 80 00 0D  ....;..E........
0500: 05 40 03 80 04 80 01 10  3D 80 01 45 05 02 00 10  .@......=..E....
0510: 15 80 00 21 05 40 03 80  04 80 01 10 03 80 01 45  ...!.@.........E
0520: 05 02 00 10 17 80 00 35  05 40 03 80 04 80 01 10  .......5.@......
0530: 01 80 01 45 05 02 00 10  19 80 00 45 05 03 01 10  ...E.......E....
0540: 07 80 01 45 05 02 01 10  07 80 01 56 05 40 01 80  ...E.......V.@..
0550: 08 80 01 10 03 80 01 89  14 02 00 10 03 80 00 55  ...............U
0560: 06 24 41 80 01 80 01 80  25 02 00 10 01 80 00 7D  .$A.....%......}
0570: 05 40 03 80 04 80 01 10  42 80 01 41 06 02 00 10  .@......B..A....
0580: 05 80 00 91 05 40 03 80  04 80 01 10 43 80 01 41  .....@......C..A
0590: 06 02 00 10 06 80 00 A5  05 40 03 80 04 80 01 10  .........@......
05A0: 33 80 01 41 06 02 00 10  0D 80 00 B9 05 40 03 80  3..A.........@..
05B0: 04 80 01 10 35 80 01 41  06 02 00 10 08 80 00 CD  ....5..A........
05C0: 05 40 03 80 04 80 01 10  37 80 01 41 06 02 00 10  .@......7..A....
05D0: 03 80 00 E1 05 40 03 80  04 80 01 10 39 80 01 41  .....@......9..A
05E0: 06 02 00 10 11 80 00 F5  05 40 03 80 04 80 01 10  .........@......
05F0: 3B 80 01 41 06 02 00 10  13 80 00 09 06 40 03 80  ;..A.........@..
0600: 04 80 01 10 3D 80 01 41  06 02 00 10 15 80 00 1D  ....=..A........
0610: 06 40 03 80 04 80 01 10  03 80 01 41 06 02 00 10  .@.........A....
0620: 17 80 00 31 06 40 03 80  04 80 01 10 01 80 01 41  ...1.@.........A
0630: 06 02 00 10 19 80 00 41  06 03 01 10 07 80 01 41  .......A.......A
0640: 06 02 01 10 07 80 01 52  06 40 01 80 08 80 01 10  .......R.@......
0650: 11 80 01 89 14 02 00 10  11 80 00 51 07 24 41 80  ...........Q.$A.
0660: 01 80 01 80 25 02 00 10  01 80 00 79 06 40 03 80  ....%......y.@..
0670: 04 80 01 10 42 80 01 3D  07 02 00 10 05 80 00 8D  ....B..=........
0680: 06 40 03 80 04 80 01 10  43 80 01 3D 07 02 00 10  .@......C..=....
0690: 06 80 00 A1 06 40 03 80  04 80 01 10 33 80 01 3D  .....@......3..=
06A0: 07 02 00 10 0D 80 00 B5  06 40 03 80 04 80 01 10  .........@......
06B0: 35 80 01 3D 07 02 00 10  08 80 00 C9 06 40 03 80  5..=.........@..
06C0: 04 80 01 10 37 80 01 3D  07 02 00 10 03 80 00 DD  ....7..=........
06D0: 06 40 03 80 04 80 01 10  39 80 01 3D 07 02 00 10  .@......9..=....
06E0: 11 80 00 F1 06 40 03 80  04 80 01 10 3B 80 01 3D  .....@......;..=
06F0: 07 02 00 10 13 80 00 05  07 40 03 80 04 80 01 10  .........@......
0700: 3D 80 01 3D 07 02 00 10  15 80 00 19 07 40 03 80  =..=.........@..
0710: 04 80 01 10 03 80 01 3D  07 02 00 10 17 80 00 2D  .......=.......-
0720: 07 40 03 80 04 80 01 10  01 80 01 3D 07 02 00 10  .@.........=....
0730: 19 80 00 3D 07 03 01 10  07 80 01 3D 07 02 01 10  ...=.......=....
0740: 07 80 01 4E 07 40 01 80  08 80 01 10 13 80 01 89  ...N.@..........
0750: 14 02 00 10 13 80 00 4D  08 24 41 80 01 80 01 80  .......M.$A.....
0760: 25 02 00 10 01 80 00 75  07 40 03 80 04 80 01 10  %......u.@......
0770: 42 80 01 39 08 02 00 10  05 80 00 89 07 40 03 80  B..9.........@..
0780: 04 80 01 10 43 80 01 39  08 02 00 10 06 80 00 9D  ....C..9........
0790: 07 40 03 80 04 80 01 10  33 80 01 39 08 02 00 10  .@......3..9....
07A0: 0D 80 00 B1 07 40 03 80  04 80 01 10 35 80 01 39  .....@......5..9
07B0: 08 02 00 10 08 80 00 C5  07 40 03 80 04 80 01 10  .........@......
07C0: 37 80 01 39 08 02 00 10  03 80 00 D9 07 40 03 80  7..9.........@..
07D0: 04 80 01 10 39 80 01 39  08 02 00 10 11 80 00 ED  ....9..9........
07E0: 07 40 03 80 04 80 01 10  3B 80 01 39 08 02 00 10  .@......;..9....
07F0: 13 80 00 01 08 40 03 80  04 80 01 10 3D 80 01 39  .....@......=..9
0800: 08 02 00 10 15 80 00 15  08 40 03 80 04 80 01 10  .........@......
0810: 03 80 01 39 08 02 00 10  17 80 00 29 08 40 03 80  ...9.......).@..
0820: 04 80 01 10 01 80 01 39  08 02 00 10 19 80 00 39  .......9.......9
0830: 08 03 01 10 07 80 01 39  08 02 01 10 07 80 01 4A  .......9.......J
0840: 08 40 01 80 08 80 01 10  15 80 01 89 14 02 00 10  .@..............
0850: 15 80 00 49 09 24 41 80  01 80 01 80 25 02 00 10  ...I.$A.....%...
0860: 01 80 00 71 08 40 03 80  04 80 01 10 42 80 01 35  ...q.@......B..5
0870: 09 02 00 10 05 80 00 85  08 40 03 80 04 80 01 10  .........@......
0880: 43 80 01 35 09 02 00 10  06 80 00 99 08 40 03 80  C..5.........@..
0890: 04 80 01 10 33 80 01 35  09 02 00 10 0D 80 00 AD  ....3..5........
08A0: 08 40 03 80 04 80 01 10  35 80 01 35 09 02 00 10  .@......5..5....
08B0: 08 80 00 C1 08 40 03 80  04 80 01 10 37 80 01 35  .....@......7..5
08C0: 09 02 00 10 03 80 00 D5  08 40 03 80 04 80 01 10  .........@......
08D0: 39 80 01 35 09 02 00 10  11 80 00 E9 08 40 03 80  9..5.........@..
08E0: 04 80 01 10 3B 80 01 35  09 02 00 10 13 80 00 FD  ....;..5........
08F0: 08 40 03 80 04 80 01 10  3D 80 01 35 09 02 00 10  .@......=..5....
0900: 15 80 00 11 09 40 03 80  04 80 01 10 03 80 01 35  .....@.........5
0910: 09 02 00 10 17 80 00 25  09 40 03 80 04 80 01 10  .......%.@......
0920: 01 80 01 35 09 02 00 10  19 80 00 35 09 03 01 10  ...5.......5....
0930: 07 80 01 35 09 02 01 10  07 80 01 46 09 40 01 80  ...5.......F.@..
0940: 08 80 01 10 17 80 01 89  14 02 00 10 17 80 00 45  ...............E
0950: 0A 24 44 80 01 80 01 80  25 02 00 10 01 80 00 6D  .$D.....%......m
0960: 09 40 03 80 04 80 01 10  45 80 01 31 0A 02 00 10  .@......E..1....
0970: 05 80 00 81 09 40 03 80  04 80 01 10 46 80 01 31  .....@......F..1
0980: 0A 02 00 10 06 80 00 95  09 40 03 80 04 80 01 10  .........@......
0990: 47 80 01 31 0A 02 00 10  0D 80 00 A9 09 40 03 80  G..1.........@..
09A0: 04 80 01 10 0A 80 01 31  0A 02 00 10 08 80 00 BD  .......1........
09B0: 09 40 03 80 04 80 01 10  24 80 01 31 0A 02 00 10  .@......$..1....
09C0: 03 80 00 D1 09 40 03 80  04 80 01 10 42 80 01 31  .....@......B..1
09D0: 0A 02 00 10 11 80 00 E5  09 40 03 80 04 80 01 10  .........@......
09E0: 3B 80 01 31 0A 02 00 10  13 80 00 F9 09 40 03 80  ;..1.........@..
09F0: 04 80 01 10 48 80 01 31  0A 02 00 10 15 80 00 0D  ....H..1........
0A00: 0A 40 03 80 04 80 01 10  19 80 01 31 0A 02 00 10  .@.........1....
0A10: 17 80 00 21 0A 40 03 80  04 80 01 10 03 80 01 31  ...!.@.........1
0A20: 0A 02 00 10 19 80 00 31  0A 03 01 10 07 80 01 31  .......1.......1
0A30: 0A 02 01 10 07 80 01 42  0A 40 01 80 08 80 01 10  .......B.@......
0A40: 19 80 01 89 14 02 00 10  19 80 00 41 0B 24 44 80  ...........A.$D.
0A50: 01 80 01 80 25 02 00 10  01 80 00 69 0A 40 03 80  ....%......i.@..
0A60: 04 80 01 10 45 80 01 2D  0B 02 00 10 05 80 00 7D  ....E..-.......}
0A70: 0A 40 03 80 04 80 01 10  46 80 01 2D 0B 02 00 10  .@......F..-....
0A80: 06 80 00 91 0A 40 03 80  04 80 01 10 47 80 01 2D  .....@......G..-
0A90: 0B 02 00 10 0D 80 00 A5  0A 40 03 80 04 80 01 10  .........@......
0AA0: 0A 80 01 2D 0B 02 00 10  08 80 00 B9 0A 40 03 80  ...-.........@..
0AB0: 04 80 01 10 24 80 01 2D  0B 02 00 10 03 80 00 CD  ....$..-........
0AC0: 0A 40 03 80 04 80 01 10  42 80 01 2D 0B 02 00 10  .@......B..-....
0AD0: 11 80 00 E1 0A 40 03 80  04 80 01 10 3B 80 01 2D  .....@......;..-
0AE0: 0B 02 00 10 13 80 00 F5  0A 40 03 80 04 80 01 10  .........@......
0AF0: 48 80 01 2D 0B 02 00 10  15 80 00 09 0B 40 03 80  H..-.........@..
0B00: 04 80 01 10 19 80 01 2D  0B 02 00 10 17 80 00 1D  .......-........
0B10: 0B 40 03 80 04 80 01 10  03 80 01 2D 0B 02 00 10  .@.........-....
0B20: 19 80 00 2D 0B 03 01 10  07 80 01 2D 0B 02 01 10  ...-.......-....
0B30: 07 80 01 3E 0B 40 01 80  08 80 01 10 1B 80 01 89  ...>.@..........
0B40: 14 02 00 10 1B 80 00 3D  0C 24 44 80 01 80 01 80  .......=.$D.....
0B50: 25 02 00 10 01 80 00 65  0B 40 03 80 04 80 01 10  %......e.@......
0B60: 45 80 01 29 0C 02 00 10  05 80 00 79 0B 40 03 80  E..).......y.@..
0B70: 04 80 01 10 46 80 01 29  0C 02 00 10 06 80 00 8D  ....F..)........
0B80: 0B 40 03 80 04 80 01 10  47 80 01 29 0C 02 00 10  .@......G..)....
0B90: 0D 80 00 A1 0B 40 03 80  04 80 01 10 0A 80 01 29  .....@.........)
0BA0: 0C 02 00 10 08 80 00 B5  0B 40 03 80 04 80 01 10  .........@......
0BB0: 24 80 01 29 0C 02 00 10  03 80 00 C9 0B 40 03 80  $..).........@..
0BC0: 04 80 01 10 42 80 01 29  0C 02 00 10 11 80 00 DD  ....B..)........
0BD0: 0B 40 03 80 04 80 01 10  3B 80 01 29 0C 02 00 10  .@......;..)....
0BE0: 13 80 00 F1 0B 40 03 80  04 80 01 10 48 80 01 29  .....@......H..)
0BF0: 0C 02 00 10 15 80 00 05  0C 40 03 80 04 80 01 10  .........@......
0C00: 19 80 01 29 0C 02 00 10  17 80 00 19 0C 40 03 80  ...).........@..
0C10: 04 80 01 10 03 80 01 29  0C 02 00 10 19 80 00 29  .......).......)
0C20: 0C 03 01 10 07 80 01 29  0C 02 01 10 07 80 01 3A  .......).......:
0C30: 0C 40 01 80 08 80 01 10  1D 80 01 89 14 02 00 10  .@..............
0C40: 1D 80 00 39 0D 24 44 80  01 80 01 80 25 02 00 10  ...9.$D.....%...
0C50: 01 80 00 61 0C 40 03 80  04 80 01 10 45 80 01 25  ...a.@......E..%
0C60: 0D 02 00 10 05 80 00 75  0C 40 03 80 04 80 01 10  .......u.@......
0C70: 46 80 01 25 0D 02 00 10  06 80 00 89 0C 40 03 80  F..%.........@..
0C80: 04 80 01 10 47 80 01 25  0D 02 00 10 0D 80 00 9D  ....G..%........
0C90: 0C 40 03 80 04 80 01 10  0A 80 01 25 0D 02 00 10  .@.........%....
0CA0: 08 80 00 B1 0C 40 03 80  04 80 01 10 24 80 01 25  .....@......$..%
0CB0: 0D 02 00 10 03 80 00 C5  0C 40 03 80 04 80 01 10  .........@......
0CC0: 42 80 01 25 0D 02 00 10  11 80 00 D9 0C 40 03 80  B..%.........@..
0CD0: 04 80 01 10 3B 80 01 25  0D 02 00 10 13 80 00 ED  ....;..%........
0CE0: 0C 40 03 80 04 80 01 10  48 80 01 25 0D 02 00 10  .@......H..%....
0CF0: 15 80 00 01 0D 40 03 80  04 80 01 10 19 80 01 25  .....@.........%
0D00: 0D 02 00 10 17 80 00 15  0D 40 03 80 04 80 01 10  .........@......
0D10: 03 80 01 25 0D 02 00 10  19 80 00 25 0D 03 01 10  ...%.......%....
0D20: 07 80 01 25 0D 02 01 10  07 80 01 36 0D 40 01 80  ...%.......6.@..
0D30: 08 80 01 10 1F 80 01 89  14 02 00 10 1F 80 00 35  ...............5
0D40: 0E 24 44 80 01 80 01 80  25 02 00 10 01 80 00 5D  .$D.....%......]
0D50: 0D 40 03 80 04 80 01 10  45 80 01 21 0E 02 00 10  .@......E..!....
0D60: 05 80 00 71 0D 40 03 80  04 80 01 10 46 80 01 21  ...q.@......F..!
0D70: 0E 02 00 10 06 80 00 85  0D 40 03 80 04 80 01 10  .........@......
0D80: 47 80 01 21 0E 02 00 10  0D 80 00 99 0D 40 03 80  G..!.........@..
0D90: 04 80 01 10 0A 80 01 21  0E 02 00 10 08 80 00 AD  .......!........
0DA0: 0D 40 03 80 04 80 01 10  24 80 01 21 0E 02 00 10  .@......$..!....
0DB0: 03 80 00 C1 0D 40 03 80  04 80 01 10 42 80 01 21  .....@......B..!
0DC0: 0E 02 00 10 11 80 00 D5  0D 40 03 80 04 80 01 10  .........@......
0DD0: 3B 80 01 21 0E 02 00 10  13 80 00 E9 0D 40 03 80  ;..!.........@..
0DE0: 04 80 01 10 48 80 01 21  0E 02 00 10 15 80 00 FD  ....H..!........
0DF0: 0D 40 03 80 04 80 01 10  19 80 01 21 0E 02 00 10  .@.........!....
0E00: 17 80 00 11 0E 40 03 80  04 80 01 10 03 80 01 21  .....@.........!
0E10: 0E 02 00 10 19 80 00 21  0E 03 01 10 07 80 01 21  .......!.......!
0E20: 0E 02 01 10 07 80 01 32  0E 40 01 80 08 80 01 10  .......2.@......
0E30: 21 80 01 89 14 02 00 10  21 80 00 31 0F 24 44 80  !.......!..1.$D.
0E40: 01 80 01 80 25 02 00 10  01 80 00 59 0E 40 03 80  ....%......Y.@..
0E50: 04 80 01 10 45 80 01 1D  0F 02 00 10 05 80 00 6D  ....E..........m
0E60: 0E 40 03 80 04 80 01 10  46 80 01 1D 0F 02 00 10  .@......F.......
0E70: 06 80 00 81 0E 40 03 80  04 80 01 10 47 80 01 1D  .....@......G...
0E80: 0F 02 00 10 0D 80 00 95  0E 40 03 80 04 80 01 10  .........@......
0E90: 0A 80 01 1D 0F 02 00 10  08 80 00 A9 0E 40 03 80  .............@..
0EA0: 04 80 01 10 24 80 01 1D  0F 02 00 10 03 80 00 BD  ....$...........
0EB0: 0E 40 03 80 04 80 01 10  42 80 01 1D 0F 02 00 10  .@......B.......
0EC0: 11 80 00 D1 0E 40 03 80  04 80 01 10 3B 80 01 1D  .....@......;...
0ED0: 0F 02 00 10 13 80 00 E5  0E 40 03 80 04 80 01 10  .........@......
0EE0: 48 80 01 1D 0F 02 00 10  15 80 00 F9 0E 40 03 80  H............@..
0EF0: 04 80 01 10 19 80 01 1D  0F 02 00 10 17 80 00 0D  ................
0F00: 0F 40 03 80 04 80 01 10  03 80 01 1D 0F 02 00 10  .@..............
0F10: 19 80 00 1D 0F 03 01 10  07 80 01 1D 0F 02 01 10  ................
0F20: 07 80 01 2E 0F 40 01 80  08 80 01 10 23 80 01 89  .....@......#...
0F30: 14 02 00 10 23 80 00 2D  10 24 44 80 01 80 01 80  ....#..-.$D.....
0F40: 25 02 00 10 01 80 00 55  0F 40 03 80 04 80 01 10  %......U.@......
0F50: 45 80 01 19 10 02 00 10  05 80 00 69 0F 40 03 80  E..........i.@..
0F60: 04 80 01 10 46 80 01 19  10 02 00 10 06 80 00 7D  ....F..........}
0F70: 0F 40 03 80 04 80 01 10  47 80 01 19 10 02 00 10  .@......G.......
0F80: 0D 80 00 91 0F 40 03 80  04 80 01 10 0A 80 01 19  .....@..........
0F90: 10 02 00 10 08 80 00 A5  0F 40 03 80 04 80 01 10  .........@......
0FA0: 24 80 01 19 10 02 00 10  03 80 00 B9 0F 40 03 80  $............@..
0FB0: 04 80 01 10 42 80 01 19  10 02 00 10 11 80 00 CD  ....B...........
0FC0: 0F 40 03 80 04 80 01 10  3B 80 01 19 10 02 00 10  .@......;.......
0FD0: 13 80 00 E1 0F 40 03 80  04 80 01 10 48 80 01 19  .....@......H...
0FE0: 10 02 00 10 15 80 00 F5  0F 40 03 80 04 80 01 10  .........@......
0FF0: 19 80 01 19 10 02 00 10  17 80 00 09 10 40 03 80  .............@..
1000: 04 80 01 10 03 80 01 19  10 02 00 10 19 80 00 19  ................
1010: 10 03 01 10 07 80 01 19  10 02 01 10 07 80 01 2A  ...............*
1020: 10 40 01 80 08 80 01 10  25 80 01 89 14 02 00 10  .@......%.......
1030: 25 80 00 29 11 24 44 80  01 80 01 80 25 02 00 10  %..).$D.....%...
1040: 01 80 00 51 10 40 03 80  04 80 01 10 45 80 01 15  ...Q.@......E...
1050: 11 02 00 10 05 80 00 65  10 40 03 80 04 80 01 10  .......e.@......
1060: 46 80 01 15 11 02 00 10  06 80 00 79 10 40 03 80  F..........y.@..
1070: 04 80 01 10 47 80 01 15  11 02 00 10 0D 80 00 8D  ....G...........
1080: 10 40 03 80 04 80 01 10  0A 80 01 15 11 02 00 10  .@..............
1090: 08 80 00 A1 10 40 03 80  04 80 01 10 24 80 01 15  .....@......$...
10A0: 11 02 00 10 03 80 00 B5  10 40 03 80 04 80 01 10  .........@......
10B0: 42 80 01 15 11 02 00 10  11 80 00 C9 10 40 03 80  B............@..
10C0: 04 80 01 10 3B 80 01 15  11 02 00 10 13 80 00 DD  ....;...........
10D0: 10 40 03 80 04 80 01 10  48 80 01 15 11 02 00 10  .@......H.......
10E0: 15 80 00 F1 10 40 03 80  04 80 01 10 19 80 01 15  .....@..........
10F0: 11 02 00 10 17 80 00 05  11 40 03 80 04 80 01 10  .........@......
1100: 03 80 01 15 11 02 00 10  19 80 00 15 11 03 01 10  ................
1110: 07 80 01 15 11 02 01 10  07 80 01 26 11 40 01 80  ...........&.@..
1120: 08 80 01 10 27 80 01 89  14 02 00 10 27 80 00 25  ....'.......'..%
1130: 12 24 44 80 01 80 01 80  25 02 00 10 01 80 00 4D  .$D.....%......M
1140: 11 40 03 80 04 80 01 10  45 80 01 11 12 02 00 10  .@......E.......
1150: 05 80 00 61 11 40 03 80  04 80 01 10 46 80 01 11  ...a.@......F...
1160: 12 02 00 10 06 80 00 75  11 40 03 80 04 80 01 10  .......u.@......
1170: 47 80 01 11 12 02 00 10  0D 80 00 89 11 40 03 80  G............@..
1180: 04 80 01 10 0A 80 01 11  12 02 00 10 08 80 00 9D  ................
1190: 11 40 03 80 04 80 01 10  24 80 01 11 12 02 00 10  .@......$.......
11A0: 03 80 00 B1 11 40 03 80  04 80 01 10 42 80 01 11  .....@......B...
11B0: 12 02 00 10 11 80 00 C5  11 40 03 80 04 80 01 10  .........@......
11C0: 3B 80 01 11 12 02 00 10  13 80 00 D9 11 40 03 80  ;............@..
11D0: 04 80 01 10 48 80 01 11  12 02 00 10 15 80 00 ED  ....H...........
11E0: 11 40 03 80 04 80 01 10  19 80 01 11 12 02 00 10  .@..............
11F0: 17 80 00 01 12 40 03 80  04 80 01 10 03 80 01 11  .....@..........
1200: 12 02 00 10 19 80 00 11  12 03 01 10 07 80 01 11  ................
1210: 12 02 01 10 07 80 01 22  12 40 01 80 08 80 01 10  .......".@......
1220: 29 80 01 89 14 02 00 10  29 80 00 21 13 24 44 80  ).......)..!.$D.
1230: 01 80 01 80 25 02 00 10  01 80 00 49 12 40 03 80  ....%......I.@..
1240: 04 80 01 10 45 80 01 0D  13 02 00 10 05 80 00 5D  ....E..........]
1250: 12 40 03 80 04 80 01 10  46 80 01 0D 13 02 00 10  .@......F.......
1260: 06 80 00 71 12 40 03 80  04 80 01 10 47 80 01 0D  ...q.@......G...
1270: 13 02 00 10 0D 80 00 85  12 40 03 80 04 80 01 10  .........@......
1280: 0A 80 01 0D 13 02 00 10  08 80 00 99 12 40 03 80  .............@..
1290: 04 80 01 10 24 80 01 0D  13 02 00 10 03 80 00 AD  ....$...........
12A0: 12 40 03 80 04 80 01 10  42 80 01 0D 13 02 00 10  .@......B.......
12B0: 11 80 00 C1 12 40 03 80  04 80 01 10 3B 80 01 0D  .....@......;...
12C0: 13 02 00 10 13 80 00 D5  12 40 03 80 04 80 01 10  .........@......
12D0: 48 80 01 0D 13 02 00 10  15 80 00 E9 12 40 03 80  H............@..
12E0: 04 80 01 10 19 80 01 0D  13 02 00 10 17 80 00 FD  ................
12F0: 12 40 03 80 04 80 01 10  03 80 01 0D 13 02 00 10  .@..............
1300: 19 80 00 0D 13 03 01 10  07 80 01 0D 13 02 01 10  ................
1310: 07 80 01 1E 13 40 01 80  08 80 01 10 04 80 01 89  .....@..........
1320: 14 02 00 10 04 80 00 7D  13 24 02 80 01 80 01 80  .......}.$......
1330: 25 02 00 10 01 80 00 45  13 40 03 80 04 80 01 10  %......E.@......
1340: 05 80 01 69 13 02 00 10  05 80 00 59 13 40 03 80  ...i.......Y.@..
1350: 04 80 01 10 01 80 01 69  13 02 00 10 06 80 00 69  .......i.......i
1360: 13 03 01 10 07 80 01 69  13 02 01 10 07 80 01 7A  .......i.......z
1370: 13 40 01 80 08 80 01 10  2C 80 01 89 14 02 00 10  .@......,.......
1380: 2C 80 00 79 14 24 44 80  01 80 01 80 25 02 00 10  ,..y.$D.....%...
1390: 01 80 00 A1 13 40 03 80  04 80 01 10 45 80 01 65  .....@......E..e
13A0: 14 02 00 10 05 80 00 B5  13 40 03 80 04 80 01 10  .........@......
13B0: 46 80 01 65 14 02 00 10  06 80 00 C9 13 40 03 80  F..e.........@..
13C0: 04 80 01 10 47 80 01 65  14 02 00 10 0D 80 00 DD  ....G..e........
13D0: 13 40 03 80 04 80 01 10  0A 80 01 65 14 02 00 10  .@.........e....
13E0: 08 80 00 F1 13 40 03 80  04 80 01 10 24 80 01 65  .....@......$..e
13F0: 14 02 00 10 03 80 00 05  14 40 03 80 04 80 01 10  .........@......
1400: 42 80 01 65 14 02 00 10  11 80 00 19 14 40 03 80  B..e.........@..
1410: 04 80 01 10 3B 80 01 65  14 02 00 10 13 80 00 2D  ....;..e.......-
1420: 14 40 03 80 04 80 01 10  48 80 01 65 14 02 00 10  .@......H..e....
1430: 15 80 00 41 14 40 03 80  04 80 01 10 19 80 01 65  ...A.@.........e
1440: 14 02 00 10 17 80 00 55  14 40 03 80 04 80 01 10  .......U.@......
1450: 03 80 01 65 14 02 00 10  19 80 00 65 14 03 01 10  ...e.......e....
1460: 07 80 01 65 14 02 01 10  07 80 01 76 14 40 01 80  ...e.......v.@..
1470: 08 80 01 10 2E 80 01 89  14 02 00 10 2E 80 00 89  ................
1480: 14 03 01 10 07 80 01 89  14 21 00                 .........!.     
```

#### Opcodes

```
  0: 0x0001 [0x24] CREATE_DIALOG(message_id=7254*, default_option=0*, option_flags=0*)
    → "DEBUG: Debug? [Colonization rate degradation over time: on/off/Biouvac degradation over time: on/off./Change internal colonization rate value./Change internal station building value./Change internal biouvac A building value./Change internal biouvac B building value./Change internal biouvac C building value./Change internal biouvac D building value./Change internal biouvac E building value./Add station coalition assignment completion value./Add biouvac A coalition assignment completion value./Add biouvac B coalition assignment completion value./Add biouvac C coalition assignment completion value./Add biouvac D coalition assignment completion value./Add biouvac E coalition assignment completion value./Add ergon locus A coalition assignment completion value./Add ergon locus B coalition assignment completion value./Add ergon locus C coalition assignment completion value./Add ergon locus D coalition assignment completion value./Ergon loc degradation over time: on/off./Add colonization rate coalition assigment completion value./Cancel.]"
  1: 0x0008 [0x25] WAIT_DIALOG_SELECT()
  2: 0x0009 [0x02] IF !(Work_Zone[0] == 0*) GOTO 0x0065
  3: 0x0011 [0x24] CREATE_DIALOG(message_id=7256*, default_option=0*, option_flags=0*)
    → "DEBUG: Degradation over time on/off. [ON./OFF./Cancel.]"
  4: 0x0018 [0x25] WAIT_DIALOG_SELECT()
  5: 0x0019 [0x02] IF !(Work_Zone[0] == 0*) GOTO 0x002D
  6: 0x0021 [0x40] SET_BIT_WORK_RANGE(start_bit=5*, end_bit=19*, target=Work_Zone[1], source=1*)
  7: 0x002A [0x01] GOTO 0x0051
  8: 0x002D [0x02] IF !(Work_Zone[0] == 1*) GOTO 0x0041
  9: 0x0035 [0x40] SET_BIT_WORK_RANGE(start_bit=5*, end_bit=19*, target=Work_Zone[1], source=0*)
 10: 0x003E [0x01] GOTO 0x0051
 11: 0x0041 [0x02] IF !(Work_Zone[0] == 2*) GOTO 0x0051
 12: 0x0049 [0x03] Work_Zone[1] = 1073741824*
 13: 0x004E [0x01] GOTO 0x0051

SUBROUTINE_0051:
 14: 0x0051 [0x02] IF !(Work_Zone[1] == 1073741824*) GOTO 0x0062
 15: 0x0059 [0x40] SET_BIT_WORK_RANGE(start_bit=0*, end_bit=4*, target=Work_Zone[1], source=1*)
 16: 0x0062 [0x01] GOTO 0x1489
 17: 0x0065 [0x02] IF !(Work_Zone[0] == 1*) GOTO 0x00C1
 18: 0x006D [0x24] CREATE_DIALOG(message_id=7256*, default_option=0*, option_flags=0*)
    → "DEBUG: Degradation over time on/off. [ON./OFF./Cancel.]"
 19: 0x0074 [0x25] WAIT_DIALOG_SELECT()
 20: 0x0075 [0x02] IF !(Work_Zone[0] == 0*) GOTO 0x0089
 21: 0x007D [0x40] SET_BIT_WORK_RANGE(start_bit=5*, end_bit=19*, target=Work_Zone[1], source=1*)
 22: 0x0086 [0x01] GOTO 0x00AD
 23: 0x0089 [0x02] IF !(Work_Zone[0] == 1*) GOTO 0x009D
 24: 0x0091 [0x40] SET_BIT_WORK_RANGE(start_bit=5*, end_bit=19*, target=Work_Zone[1], source=0*)
 25: 0x009A [0x01] GOTO 0x00AD
 26: 0x009D [0x02] IF !(Work_Zone[0] == 2*) GOTO 0x00AD
 27: 0x00A5 [0x03] Work_Zone[1] = 1073741824*
 28: 0x00AA [0x01] GOTO 0x00AD

SUBROUTINE_00AD:
 29: 0x00AD [0x02] IF !(Work_Zone[1] == 1073741824*) GOTO 0x00BE
 30: 0x00B5 [0x40] SET_BIT_WORK_RANGE(start_bit=0*, end_bit=4*, target=Work_Zone[1], source=2*)
 31: 0x00BE [0x01] GOTO 0x1489
 32: 0x00C1 [0x02] IF !(Work_Zone[0] == 2*) GOTO 0x0361
 33: 0x00C9 [0x24] CREATE_DIALOG(message_id=7257*, default_option=0*, option_flags=0*)
    → "DEBUG: Change internal value. [1000./995./905./900./895./805./800./795./705./700./695./605./600./595./505./500./495./405./400."95."05."00."95."05."00./195./105./100./95./5./0./Cancel.]"
 34: 0x00D0 [0x25] WAIT_DIALOG_SELECT()
 35: 0x00D1 [0x02] IF !(Work_Zone[0] == 0*) GOTO 0x00E5
 36: 0x00D9 [0x40] SET_BIT_WORK_RANGE(start_bit=5*, end_bit=19*, target=Work_Zone[1], source=1000*)
 37: 0x00E2 [0x01] GOTO 0x034D
 38: 0x00E5 [0x02] IF !(Work_Zone[0] == 1*) GOTO 0x00F9
 39: 0x00ED [0x40] SET_BIT_WORK_RANGE(start_bit=5*, end_bit=19*, target=Work_Zone[1], source=995*)
 40: 0x00F6 [0x01] GOTO 0x034D
 41: 0x00F9 [0x02] IF !(Work_Zone[0] == 2*) GOTO 0x010D
 42: 0x0101 [0x40] SET_BIT_WORK_RANGE(start_bit=5*, end_bit=19*, target=Work_Zone[1], source=905*)
 43: 0x010A [0x01] GOTO 0x034D
 44: 0x010D [0x02] IF !(Work_Zone[0] == 3*) GOTO 0x0121
 45: 0x0115 [0x40] SET_BIT_WORK_RANGE(start_bit=5*, end_bit=19*, target=Work_Zone[1], source=900*)
 46: 0x011E [0x01] GOTO 0x034D
 47: 0x0121 [0x02] IF !(Work_Zone[0] == 4*) GOTO 0x0135
 48: 0x0129 [0x40] SET_BIT_WORK_RANGE(start_bit=5*, end_bit=19*, target=Work_Zone[1], source=895*)
 49: 0x0132 [0x01] GOTO 0x034D
 50: 0x0135 [0x02] IF !(Work_Zone[0] == 5*) GOTO 0x0149
 51: 0x013D [0x40] SET_BIT_WORK_RANGE(start_bit=5*, end_bit=19*, target=Work_Zone[1], source=805*)
 52: 0x0146 [0x01] GOTO 0x034D
 53: 0x0149 [0x02] IF !(Work_Zone[0] == 6*) GOTO 0x015D
 54: 0x0151 [0x40] SET_BIT_WORK_RANGE(start_bit=5*, end_bit=19*, target=Work_Zone[1], source=800*)
 55: 0x015A [0x01] GOTO 0x034D
 56: 0x015D [0x02] IF !(Work_Zone[0] == 7*) GOTO 0x0171
 57: 0x0165 [0x40] SET_BIT_WORK_RANGE(start_bit=5*, end_bit=19*, target=Work_Zone[1], source=795*)
 58: 0x016E [0x01] GOTO 0x034D
 59: 0x0171 [0x02] IF !(Work_Zone[0] == 8*) GOTO 0x0185
 60: 0x0179 [0x40] SET_BIT_WORK_RANGE(start_bit=5*, end_bit=19*, target=Work_Zone[1], source=705*)
 61: 0x0182 [0x01] GOTO 0x034D
 62: 0x0185 [0x02] IF !(Work_Zone[0] == 9*) GOTO 0x0199
 63: 0x018D [0x40] SET_BIT_WORK_RANGE(start_bit=5*, end_bit=19*, target=Work_Zone[1], source=700*)
 64: 0x0196 [0x01] GOTO 0x034D
 65: 0x0199 [0x02] IF !(Work_Zone[0] == 10*) GOTO 0x01AD
 66: 0x01A1 [0x40] SET_BIT_WORK_RANGE(start_bit=5*, end_bit=19*, target=Work_Zone[1], source=695*)
 67: 0x01AA [0x01] GOTO 0x034D
 68: 0x01AD [0x02] IF !(Work_Zone[0] == 11*) GOTO 0x01C1
 69: 0x01B5 [0x40] SET_BIT_WORK_RANGE(start_bit=5*, end_bit=19*, target=Work_Zone[1], source=605*)
 70: 0x01BE [0x01] GOTO 0x034D
 71: 0x01C1 [0x02] IF !(Work_Zone[0] == 12*) GOTO 0x01D5
 72: 0x01C9 [0x40] SET_BIT_WORK_RANGE(start_bit=5*, end_bit=19*, target=Work_Zone[1], source=600*)
 73: 0x01D2 [0x01] GOTO 0x034D
 74: 0x01D5 [0x02] IF !(Work_Zone[0] == 13*) GOTO 0x01E9
 75: 0x01DD [0x40] SET_BIT_WORK_RANGE(start_bit=5*, end_bit=19*, target=Work_Zone[1], source=595*)
 76: 0x01E6 [0x01] GOTO 0x034D
 77: 0x01E9 [0x02] IF !(Work_Zone[0] == 14*) GOTO 0x01FD
 78: 0x01F1 [0x40] SET_BIT_WORK_RANGE(start_bit=5*, end_bit=19*, target=Work_Zone[1], source=505*)
 79: 0x01FA [0x01] GOTO 0x034D
 80: 0x01FD [0x02] IF !(Work_Zone[0] == 15*) GOTO 0x0211
 81: 0x0205 [0x40] SET_BIT_WORK_RANGE(start_bit=5*, end_bit=19*, target=Work_Zone[1], source=500*)
 82: 0x020E [0x01] GOTO 0x034D
 83: 0x0211 [0x02] IF !(Work_Zone[0] == 16*) GOTO 0x0225
 84: 0x0219 [0x40] SET_BIT_WORK_RANGE(start_bit=5*, end_bit=19*, target=Work_Zone[1], source=495*)
 85: 0x0222 [0x01] GOTO 0x034D
 86: 0x0225 [0x02] IF !(Work_Zone[0] == 17*) GOTO 0x0239
 87: 0x022D [0x40] SET_BIT_WORK_RANGE(start_bit=5*, end_bit=19*, target=Work_Zone[1], source=405*)
 88: 0x0236 [0x01] GOTO 0x034D
 89: 0x0239 [0x02] IF !(Work_Zone[0] == 18*) GOTO 0x024D
 90: 0x0241 [0x40] SET_BIT_WORK_RANGE(start_bit=5*, end_bit=19*, target=Work_Zone[1], source=400*)
 91: 0x024A [0x01] GOTO 0x034D
 92: 0x024D [0x02] IF !(Work_Zone[0] == 19*) GOTO 0x0261
 93: 0x0255 [0x40] SET_BIT_WORK_RANGE(start_bit=5*, end_bit=19*, target=Work_Zone[1], source=395*)
 94: 0x025E [0x01] GOTO 0x034D
 95: 0x0261 [0x02] IF !(Work_Zone[0] == 20*) GOTO 0x0275
 96: 0x0269 [0x40] SET_BIT_WORK_RANGE(start_bit=5*, end_bit=19*, target=Work_Zone[1], source=305*)
 97: 0x0272 [0x01] GOTO 0x034D
 98: 0x0275 [0x02] IF !(Work_Zone[0] == 21*) GOTO 0x0289
 99: 0x027D [0x40] SET_BIT_WORK_RANGE(start_bit=5*, end_bit=19*, target=Work_Zone[1], source=300*)
100: 0x0286 [0x01] GOTO 0x034D
101: 0x0289 [0x02] IF !(Work_Zone[0] == 22*) GOTO 0x029D
102: 0x0291 [0x40] SET_BIT_WORK_RANGE(start_bit=5*, end_bit=19*, target=Work_Zone[1], source=295*)
103: 0x029A [0x01] GOTO 0x034D
104: 0x029D [0x02] IF !(Work_Zone[0] == 23*) GOTO 0x02B1
105: 0x02A5 [0x40] SET_BIT_WORK_RANGE(start_bit=5*, end_bit=19*, target=Work_Zone[1], source=205*)
106: 0x02AE [0x01] GOTO 0x034D
107: 0x02B1 [0x02] IF !(Work_Zone[0] == 24*) GOTO 0x02C5
108: 0x02B9 [0x40] SET_BIT_WORK_RANGE(start_bit=5*, end_bit=19*, target=Work_Zone[1], source=200*)
109: 0x02C2 [0x01] GOTO 0x034D
110: 0x02C5 [0x02] IF !(Work_Zone[0] == 25*) GOTO 0x02D9
111: 0x02CD [0x40] SET_BIT_WORK_RANGE(start_bit=5*, end_bit=19*, target=Work_Zone[1], source=195*)
112: 0x02D6 [0x01] GOTO 0x034D
113: 0x02D9 [0x02] IF !(Work_Zone[0] == 26*) GOTO 0x02ED
114: 0x02E1 [0x40] SET_BIT_WORK_RANGE(start_bit=5*, end_bit=19*, target=Work_Zone[1], source=105*)
115: 0x02EA [0x01] GOTO 0x034D
116: 0x02ED [0x02] IF !(Work_Zone[0] == 27*) GOTO 0x0301
117: 0x02F5 [0x40] SET_BIT_WORK_RANGE(start_bit=5*, end_bit=19*, target=Work_Zone[1], source=100*)
118: 0x02FE [0x01] GOTO 0x034D
119: 0x0301 [0x02] IF !(Work_Zone[0] == 28*) GOTO 0x0315
120: 0x0309 [0x40] SET_BIT_WORK_RANGE(start_bit=5*, end_bit=19*, target=Work_Zone[1], source=95*)
121: 0x0312 [0x01] GOTO 0x034D
122: 0x0315 [0x02] IF !(Work_Zone[0] == 29*) GOTO 0x0329
123: 0x031D [0x40] SET_BIT_WORK_RANGE(start_bit=5*, end_bit=19*, target=Work_Zone[1], source=5*)
124: 0x0326 [0x01] GOTO 0x034D
125: 0x0329 [0x02] IF !(Work_Zone[0] == 30*) GOTO 0x033D
126: 0x0331 [0x40] SET_BIT_WORK_RANGE(start_bit=5*, end_bit=19*, target=Work_Zone[1], source=0*)
127: 0x033A [0x01] GOTO 0x034D
128: 0x033D [0x02] IF !(Work_Zone[0] == 31*) GOTO 0x034D
129: 0x0345 [0x03] Work_Zone[1] = 1073741824*
130: 0x034A [0x01] GOTO 0x034D

SUBROUTINE_034D:
131: 0x034D [0x02] IF !(Work_Zone[1] == 1073741824*) GOTO 0x035E
132: 0x0355 [0x40] SET_BIT_WORK_RANGE(start_bit=0*, end_bit=4*, target=Work_Zone[1], source=3*)
133: 0x035E [0x01] GOTO 0x1489
134: 0x0361 [0x02] IF !(Work_Zone[0] == 3*) GOTO 0x045D
135: 0x0369 [0x24] CREATE_DIALOG(message_id=7258*, default_option=0*, option_flags=0*)
    → "DEBUG: Change internal value. [250."45."05."00./195./105./100./95./5./0./Cancel.]"
136: 0x0370 [0x25] WAIT_DIALOG_SELECT()
137: 0x0371 [0x02] IF !(Work_Zone[0] == 0*) GOTO 0x0385
138: 0x0379 [0x40] SET_BIT_WORK_RANGE(start_bit=5*, end_bit=19*, target=Work_Zone[1], source=250*)
139: 0x0382 [0x01] GOTO 0x0449
140: 0x0385 [0x02] IF !(Work_Zone[0] == 1*) GOTO 0x0399
141: 0x038D [0x40] SET_BIT_WORK_RANGE(start_bit=5*, end_bit=19*, target=Work_Zone[1], source=245*)
142: 0x0396 [0x01] GOTO 0x0449
143: 0x0399 [0x02] IF !(Work_Zone[0] == 2*) GOTO 0x03AD
144: 0x03A1 [0x40] SET_BIT_WORK_RANGE(start_bit=5*, end_bit=19*, target=Work_Zone[1], source=205*)
145: 0x03AA [0x01] GOTO 0x0449
146: 0x03AD [0x02] IF !(Work_Zone[0] == 3*) GOTO 0x03C1
147: 0x03B5 [0x40] SET_BIT_WORK_RANGE(start_bit=5*, end_bit=19*, target=Work_Zone[1], source=200*)
148: 0x03BE [0x01] GOTO 0x0449
149: 0x03C1 [0x02] IF !(Work_Zone[0] == 4*) GOTO 0x03D5
150: 0x03C9 [0x40] SET_BIT_WORK_RANGE(start_bit=5*, end_bit=19*, target=Work_Zone[1], source=195*)
151: 0x03D2 [0x01] GOTO 0x0449
152: 0x03D5 [0x02] IF !(Work_Zone[0] == 5*) GOTO 0x03E9
153: 0x03DD [0x40] SET_BIT_WORK_RANGE(start_bit=5*, end_bit=19*, target=Work_Zone[1], source=105*)
154: 0x03E6 [0x01] GOTO 0x0449
155: 0x03E9 [0x02] IF !(Work_Zone[0] == 6*) GOTO 0x03FD
156: 0x03F1 [0x40] SET_BIT_WORK_RANGE(start_bit=5*, end_bit=19*, target=Work_Zone[1], source=100*)
157: 0x03FA [0x01] GOTO 0x0449
158: 0x03FD [0x02] IF !(Work_Zone[0] == 7*) GOTO 0x0411
159: 0x0405 [0x40] SET_BIT_WORK_RANGE(start_bit=5*, end_bit=19*, target=Work_Zone[1], source=95*)
160: 0x040E [0x01] GOTO 0x0449
161: 0x0411 [0x02] IF !(Work_Zone[0] == 8*) GOTO 0x0425
162: 0x0419 [0x40] SET_BIT_WORK_RANGE(start_bit=5*, end_bit=19*, target=Work_Zone[1], source=5*)
163: 0x0422 [0x01] GOTO 0x0449
164: 0x0425 [0x02] IF !(Work_Zone[0] == 9*) GOTO 0x0439
165: 0x042D [0x40] SET_BIT_WORK_RANGE(start_bit=5*, end_bit=19*, target=Work_Zone[1], source=0*)
166: 0x0436 [0x01] GOTO 0x0449
167: 0x0439 [0x02] IF !(Work_Zone[0] == 10*) GOTO 0x0449
168: 0x0441 [0x03] Work_Zone[1] = 1073741824*
169: 0x0446 [0x01] GOTO 0x0449

SUBROUTINE_0449:
170: 0x0449 [0x02] IF !(Work_Zone[1] == 1073741824*) GOTO 0x045A
171: 0x0451 [0x40] SET_BIT_WORK_RANGE(start_bit=0*, end_bit=4*, target=Work_Zone[1], source=4*)
172: 0x045A [0x01] GOTO 0x1489
173: 0x045D [0x02] IF !(Work_Zone[0] == 4*) GOTO 0x0559
174: 0x0465 [0x24] CREATE_DIALOG(message_id=7258*, default_option=0*, option_flags=0*)
    → "DEBUG: Change internal value. [250."45."05."00./195./105./100./95./5./0./Cancel.]"
175: 0x046C [0x25] WAIT_DIALOG_SELECT()
176: 0x046D [0x02] IF !(Work_Zone[0] == 0*) GOTO 0x0481
177: 0x0475 [0x40] SET_BIT_WORK_RANGE(start_bit=5*, end_bit=19*, target=Work_Zone[1], source=250*)
178: 0x047E [0x01] GOTO 0x0545
179: 0x0481 [0x02] IF !(Work_Zone[0] == 1*) GOTO 0x0495
180: 0x0489 [0x40] SET_BIT_WORK_RANGE(start_bit=5*, end_bit=19*, target=Work_Zone[1], source=245*)
181: 0x0492 [0x01] GOTO 0x0545
182: 0x0495 [0x02] IF !(Work_Zone[0] == 2*) GOTO 0x04A9
183: 0x049D [0x40] SET_BIT_WORK_RANGE(start_bit=5*, end_bit=19*, target=Work_Zone[1], source=205*)
184: 0x04A6 [0x01] GOTO 0x0545
185: 0x04A9 [0x02] IF !(Work_Zone[0] == 3*) GOTO 0x04BD
186: 0x04B1 [0x40] SET_BIT_WORK_RANGE(start_bit=5*, end_bit=19*, target=Work_Zone[1], source=200*)
187: 0x04BA [0x01] GOTO 0x0545
188: 0x04BD [0x02] IF !(Work_Zone[0] == 4*) GOTO 0x04D1
189: 0x04C5 [0x40] SET_BIT_WORK_RANGE(start_bit=5*, end_bit=19*, target=Work_Zone[1], source=195*)
190: 0x04CE [0x01] GOTO 0x0545
191: 0x04D1 [0x02] IF !(Work_Zone[0] == 5*) GOTO 0x04E5
192: 0x04D9 [0x40] SET_BIT_WORK_RANGE(start_bit=5*, end_bit=19*, target=Work_Zone[1], source=105*)
193: 0x04E2 [0x01] GOTO 0x0545
194: 0x04E5 [0x02] IF !(Work_Zone[0] == 6*) GOTO 0x04F9
195: 0x04ED [0x40] SET_BIT_WORK_RANGE(start_bit=5*, end_bit=19*, target=Work_Zone[1], source=100*)
196: 0x04F6 [0x01] GOTO 0x0545
197: 0x04F9 [0x02] IF !(Work_Zone[0] == 7*) GOTO 0x050D
198: 0x0501 [0x40] SET_BIT_WORK_RANGE(start_bit=5*, end_bit=19*, target=Work_Zone[1], source=95*)
199: 0x050A [0x01] GOTO 0x0545
200: 0x050D [0x02] IF !(Work_Zone[0] == 8*) GOTO 0x0521
201: 0x0515 [0x40] SET_BIT_WORK_RANGE(start_bit=5*, end_bit=19*, target=Work_Zone[1], source=5*)
202: 0x051E [0x01] GOTO 0x0545
203: 0x0521 [0x02] IF !(Work_Zone[0] == 9*) GOTO 0x0535
204: 0x0529 [0x40] SET_BIT_WORK_RANGE(start_bit=5*, end_bit=19*, target=Work_Zone[1], source=0*)
205: 0x0532 [0x01] GOTO 0x0545
206: 0x0535 [0x02] IF !(Work_Zone[0] == 10*) GOTO 0x0545
207: 0x053D [0x03] Work_Zone[1] = 1073741824*
208: 0x0542 [0x01] GOTO 0x0545

SUBROUTINE_0545:
209: 0x0545 [0x02] IF !(Work_Zone[1] == 1073741824*) GOTO 0x0556
210: 0x054D [0x40] SET_BIT_WORK_RANGE(start_bit=0*, end_bit=4*, target=Work_Zone[1], source=5*)
211: 0x0556 [0x01] GOTO 0x1489
212: 0x0559 [0x02] IF !(Work_Zone[0] == 5*) GOTO 0x0655
213: 0x0561 [0x24] CREATE_DIALOG(message_id=7258*, default_option=0*, option_flags=0*)
    → "DEBUG: Change internal value. [250."45."05."00./195./105./100./95./5./0./Cancel.]"
214: 0x0568 [0x25] WAIT_DIALOG_SELECT()
215: 0x0569 [0x02] IF !(Work_Zone[0] == 0*) GOTO 0x057D
216: 0x0571 [0x40] SET_BIT_WORK_RANGE(start_bit=5*, end_bit=19*, target=Work_Zone[1], source=250*)
217: 0x057A [0x01] GOTO 0x0641
218: 0x057D [0x02] IF !(Work_Zone[0] == 1*) GOTO 0x0591
219: 0x0585 [0x40] SET_BIT_WORK_RANGE(start_bit=5*, end_bit=19*, target=Work_Zone[1], source=245*)
220: 0x058E [0x01] GOTO 0x0641
221: 0x0591 [0x02] IF !(Work_Zone[0] == 2*) GOTO 0x05A5
222: 0x0599 [0x40] SET_BIT_WORK_RANGE(start_bit=5*, end_bit=19*, target=Work_Zone[1], source=205*)
223: 0x05A2 [0x01] GOTO 0x0641
224: 0x05A5 [0x02] IF !(Work_Zone[0] == 3*) GOTO 0x05B9
225: 0x05AD [0x40] SET_BIT_WORK_RANGE(start_bit=5*, end_bit=19*, target=Work_Zone[1], source=200*)
226: 0x05B6 [0x01] GOTO 0x0641
227: 0x05B9 [0x02] IF !(Work_Zone[0] == 4*) GOTO 0x05CD
228: 0x05C1 [0x40] SET_BIT_WORK_RANGE(start_bit=5*, end_bit=19*, target=Work_Zone[1], source=195*)
229: 0x05CA [0x01] GOTO 0x0641
230: 0x05CD [0x02] IF !(Work_Zone[0] == 5*) GOTO 0x05E1
231: 0x05D5 [0x40] SET_BIT_WORK_RANGE(start_bit=5*, end_bit=19*, target=Work_Zone[1], source=105*)
232: 0x05DE [0x01] GOTO 0x0641
233: 0x05E1 [0x02] IF !(Work_Zone[0] == 6*) GOTO 0x05F5
234: 0x05E9 [0x40] SET_BIT_WORK_RANGE(start_bit=5*, end_bit=19*, target=Work_Zone[1], source=100*)
235: 0x05F2 [0x01] GOTO 0x0641
236: 0x05F5 [0x02] IF !(Work_Zone[0] == 7*) GOTO 0x0609
237: 0x05FD [0x40] SET_BIT_WORK_RANGE(start_bit=5*, end_bit=19*, target=Work_Zone[1], source=95*)
238: 0x0606 [0x01] GOTO 0x0641
239: 0x0609 [0x02] IF !(Work_Zone[0] == 8*) GOTO 0x061D
240: 0x0611 [0x40] SET_BIT_WORK_RANGE(start_bit=5*, end_bit=19*, target=Work_Zone[1], source=5*)
241: 0x061A [0x01] GOTO 0x0641
242: 0x061D [0x02] IF !(Work_Zone[0] == 9*) GOTO 0x0631
243: 0x0625 [0x40] SET_BIT_WORK_RANGE(start_bit=5*, end_bit=19*, target=Work_Zone[1], source=0*)
244: 0x062E [0x01] GOTO 0x0641
245: 0x0631 [0x02] IF !(Work_Zone[0] == 10*) GOTO 0x0641
246: 0x0639 [0x03] Work_Zone[1] = 1073741824*
247: 0x063E [0x01] GOTO 0x0641

SUBROUTINE_0641:
248: 0x0641 [0x02] IF !(Work_Zone[1] == 1073741824*) GOTO 0x0652
249: 0x0649 [0x40] SET_BIT_WORK_RANGE(start_bit=0*, end_bit=4*, target=Work_Zone[1], source=6*)
250: 0x0652 [0x01] GOTO 0x1489
251: 0x0655 [0x02] IF !(Work_Zone[0] == 6*) GOTO 0x0751
252: 0x065D [0x24] CREATE_DIALOG(message_id=7258*, default_option=0*, option_flags=0*)
    → "DEBUG: Change internal value. [250."45."05."00./195./105./100./95./5./0./Cancel.]"
253: 0x0664 [0x25] WAIT_DIALOG_SELECT()
254: 0x0665 [0x02] IF !(Work_Zone[0] == 0*) GOTO 0x0679
255: 0x066D [0x40] SET_BIT_WORK_RANGE(start_bit=5*, end_bit=19*, target=Work_Zone[1], source=250*)
256: 0x0676 [0x01] GOTO 0x073D
257: 0x0679 [0x02] IF !(Work_Zone[0] == 1*) GOTO 0x068D
258: 0x0681 [0x40] SET_BIT_WORK_RANGE(start_bit=5*, end_bit=19*, target=Work_Zone[1], source=245*)
259: 0x068A [0x01] GOTO 0x073D
260: 0x068D [0x02] IF !(Work_Zone[0] == 2*) GOTO 0x06A1
261: 0x0695 [0x40] SET_BIT_WORK_RANGE(start_bit=5*, end_bit=19*, target=Work_Zone[1], source=205*)
262: 0x069E [0x01] GOTO 0x073D
263: 0x06A1 [0x02] IF !(Work_Zone[0] == 3*) GOTO 0x06B5
264: 0x06A9 [0x40] SET_BIT_WORK_RANGE(start_bit=5*, end_bit=19*, target=Work_Zone[1], source=200*)
265: 0x06B2 [0x01] GOTO 0x073D
266: 0x06B5 [0x02] IF !(Work_Zone[0] == 4*) GOTO 0x06C9
267: 0x06BD [0x40] SET_BIT_WORK_RANGE(start_bit=5*, end_bit=19*, target=Work_Zone[1], source=195*)
268: 0x06C6 [0x01] GOTO 0x073D
269: 0x06C9 [0x02] IF !(Work_Zone[0] == 5*) GOTO 0x06DD
270: 0x06D1 [0x40] SET_BIT_WORK_RANGE(start_bit=5*, end_bit=19*, target=Work_Zone[1], source=105*)
271: 0x06DA [0x01] GOTO 0x073D
272: 0x06DD [0x02] IF !(Work_Zone[0] == 6*) GOTO 0x06F1
273: 0x06E5 [0x40] SET_BIT_WORK_RANGE(start_bit=5*, end_bit=19*, target=Work_Zone[1], source=100*)
274: 0x06EE [0x01] GOTO 0x073D
275: 0x06F1 [0x02] IF !(Work_Zone[0] == 7*) GOTO 0x0705
276: 0x06F9 [0x40] SET_BIT_WORK_RANGE(start_bit=5*, end_bit=19*, target=Work_Zone[1], source=95*)
277: 0x0702 [0x01] GOTO 0x073D
278: 0x0705 [0x02] IF !(Work_Zone[0] == 8*) GOTO 0x0719
279: 0x070D [0x40] SET_BIT_WORK_RANGE(start_bit=5*, end_bit=19*, target=Work_Zone[1], source=5*)
280: 0x0716 [0x01] GOTO 0x073D
281: 0x0719 [0x02] IF !(Work_Zone[0] == 9*) GOTO 0x072D
282: 0x0721 [0x40] SET_BIT_WORK_RANGE(start_bit=5*, end_bit=19*, target=Work_Zone[1], source=0*)
283: 0x072A [0x01] GOTO 0x073D
284: 0x072D [0x02] IF !(Work_Zone[0] == 10*) GOTO 0x073D
285: 0x0735 [0x03] Work_Zone[1] = 1073741824*
286: 0x073A [0x01] GOTO 0x073D

SUBROUTINE_073D:
287: 0x073D [0x02] IF !(Work_Zone[1] == 1073741824*) GOTO 0x074E
288: 0x0745 [0x40] SET_BIT_WORK_RANGE(start_bit=0*, end_bit=4*, target=Work_Zone[1], source=7*)
289: 0x074E [0x01] GOTO 0x1489
290: 0x0751 [0x02] IF !(Work_Zone[0] == 7*) GOTO 0x084D
291: 0x0759 [0x24] CREATE_DIALOG(message_id=7258*, default_option=0*, option_flags=0*)
    → "DEBUG: Change internal value. [250."45."05."00./195./105./100./95./5./0./Cancel.]"
292: 0x0760 [0x25] WAIT_DIALOG_SELECT()
293: 0x0761 [0x02] IF !(Work_Zone[0] == 0*) GOTO 0x0775
294: 0x0769 [0x40] SET_BIT_WORK_RANGE(start_bit=5*, end_bit=19*, target=Work_Zone[1], source=250*)
295: 0x0772 [0x01] GOTO 0x0839
296: 0x0775 [0x02] IF !(Work_Zone[0] == 1*) GOTO 0x0789
297: 0x077D [0x40] SET_BIT_WORK_RANGE(start_bit=5*, end_bit=19*, target=Work_Zone[1], source=245*)
298: 0x0786 [0x01] GOTO 0x0839
299: 0x0789 [0x02] IF !(Work_Zone[0] == 2*) GOTO 0x079D
300: 0x0791 [0x40] SET_BIT_WORK_RANGE(start_bit=5*, end_bit=19*, target=Work_Zone[1], source=205*)
301: 0x079A [0x01] GOTO 0x0839
302: 0x079D [0x02] IF !(Work_Zone[0] == 3*) GOTO 0x07B1
303: 0x07A5 [0x40] SET_BIT_WORK_RANGE(start_bit=5*, end_bit=19*, target=Work_Zone[1], source=200*)
304: 0x07AE [0x01] GOTO 0x0839
305: 0x07B1 [0x02] IF !(Work_Zone[0] == 4*) GOTO 0x07C5
306: 0x07B9 [0x40] SET_BIT_WORK_RANGE(start_bit=5*, end_bit=19*, target=Work_Zone[1], source=195*)
307: 0x07C2 [0x01] GOTO 0x0839
308: 0x07C5 [0x02] IF !(Work_Zone[0] == 5*) GOTO 0x07D9
309: 0x07CD [0x40] SET_BIT_WORK_RANGE(start_bit=5*, end_bit=19*, target=Work_Zone[1], source=105*)
310: 0x07D6 [0x01] GOTO 0x0839
311: 0x07D9 [0x02] IF !(Work_Zone[0] == 6*) GOTO 0x07ED
312: 0x07E1 [0x40] SET_BIT_WORK_RANGE(start_bit=5*, end_bit=19*, target=Work_Zone[1], source=100*)
313: 0x07EA [0x01] GOTO 0x0839
314: 0x07ED [0x02] IF !(Work_Zone[0] == 7*) GOTO 0x0801
315: 0x07F5 [0x40] SET_BIT_WORK_RANGE(start_bit=5*, end_bit=19*, target=Work_Zone[1], source=95*)
316: 0x07FE [0x01] GOTO 0x0839
317: 0x0801 [0x02] IF !(Work_Zone[0] == 8*) GOTO 0x0815
318: 0x0809 [0x40] SET_BIT_WORK_RANGE(start_bit=5*, end_bit=19*, target=Work_Zone[1], source=5*)
319: 0x0812 [0x01] GOTO 0x0839
320: 0x0815 [0x02] IF !(Work_Zone[0] == 9*) GOTO 0x0829
321: 0x081D [0x40] SET_BIT_WORK_RANGE(start_bit=5*, end_bit=19*, target=Work_Zone[1], source=0*)
322: 0x0826 [0x01] GOTO 0x0839
323: 0x0829 [0x02] IF !(Work_Zone[0] == 10*) GOTO 0x0839
324: 0x0831 [0x03] Work_Zone[1] = 1073741824*
325: 0x0836 [0x01] GOTO 0x0839

SUBROUTINE_0839:
326: 0x0839 [0x02] IF !(Work_Zone[1] == 1073741824*) GOTO 0x084A
327: 0x0841 [0x40] SET_BIT_WORK_RANGE(start_bit=0*, end_bit=4*, target=Work_Zone[1], source=8*)
328: 0x084A [0x01] GOTO 0x1489
329: 0x084D [0x02] IF !(Work_Zone[0] == 8*) GOTO 0x0949
330: 0x0855 [0x24] CREATE_DIALOG(message_id=7258*, default_option=0*, option_flags=0*)
    → "DEBUG: Change internal value. [250."45."05."00./195./105./100./95./5./0./Cancel.]"
331: 0x085C [0x25] WAIT_DIALOG_SELECT()
332: 0x085D [0x02] IF !(Work_Zone[0] == 0*) GOTO 0x0871
333: 0x0865 [0x40] SET_BIT_WORK_RANGE(start_bit=5*, end_bit=19*, target=Work_Zone[1], source=250*)
334: 0x086E [0x01] GOTO 0x0935
335: 0x0871 [0x02] IF !(Work_Zone[0] == 1*) GOTO 0x0885
336: 0x0879 [0x40] SET_BIT_WORK_RANGE(start_bit=5*, end_bit=19*, target=Work_Zone[1], source=245*)
337: 0x0882 [0x01] GOTO 0x0935
338: 0x0885 [0x02] IF !(Work_Zone[0] == 2*) GOTO 0x0899
339: 0x088D [0x40] SET_BIT_WORK_RANGE(start_bit=5*, end_bit=19*, target=Work_Zone[1], source=205*)
340: 0x0896 [0x01] GOTO 0x0935
341: 0x0899 [0x02] IF !(Work_Zone[0] == 3*) GOTO 0x08AD
342: 0x08A1 [0x40] SET_BIT_WORK_RANGE(start_bit=5*, end_bit=19*, target=Work_Zone[1], source=200*)
343: 0x08AA [0x01] GOTO 0x0935
344: 0x08AD [0x02] IF !(Work_Zone[0] == 4*) GOTO 0x08C1
345: 0x08B5 [0x40] SET_BIT_WORK_RANGE(start_bit=5*, end_bit=19*, target=Work_Zone[1], source=195*)
346: 0x08BE [0x01] GOTO 0x0935
347: 0x08C1 [0x02] IF !(Work_Zone[0] == 5*) GOTO 0x08D5
348: 0x08C9 [0x40] SET_BIT_WORK_RANGE(start_bit=5*, end_bit=19*, target=Work_Zone[1], source=105*)
349: 0x08D2 [0x01] GOTO 0x0935
350: 0x08D5 [0x02] IF !(Work_Zone[0] == 6*) GOTO 0x08E9
351: 0x08DD [0x40] SET_BIT_WORK_RANGE(start_bit=5*, end_bit=19*, target=Work_Zone[1], source=100*)
352: 0x08E6 [0x01] GOTO 0x0935
353: 0x08E9 [0x02] IF !(Work_Zone[0] == 7*) GOTO 0x08FD
354: 0x08F1 [0x40] SET_BIT_WORK_RANGE(start_bit=5*, end_bit=19*, target=Work_Zone[1], source=95*)
355: 0x08FA [0x01] GOTO 0x0935
356: 0x08FD [0x02] IF !(Work_Zone[0] == 8*) GOTO 0x0911
357: 0x0905 [0x40] SET_BIT_WORK_RANGE(start_bit=5*, end_bit=19*, target=Work_Zone[1], source=5*)
358: 0x090E [0x01] GOTO 0x0935
359: 0x0911 [0x02] IF !(Work_Zone[0] == 9*) GOTO 0x0925
360: 0x0919 [0x40] SET_BIT_WORK_RANGE(start_bit=5*, end_bit=19*, target=Work_Zone[1], source=0*)
361: 0x0922 [0x01] GOTO 0x0935
362: 0x0925 [0x02] IF !(Work_Zone[0] == 10*) GOTO 0x0935
363: 0x092D [0x03] Work_Zone[1] = 1073741824*
364: 0x0932 [0x01] GOTO 0x0935

SUBROUTINE_0935:
365: 0x0935 [0x02] IF !(Work_Zone[1] == 1073741824*) GOTO 0x0946
366: 0x093D [0x40] SET_BIT_WORK_RANGE(start_bit=0*, end_bit=4*, target=Work_Zone[1], source=9*)
367: 0x0946 [0x01] GOTO 0x1489
368: 0x0949 [0x02] IF !(Work_Zone[0] == 9*) GOTO 0x0A45
369: 0x0951 [0x24] CREATE_DIALOG(message_id=7259*, default_option=0*, option_flags=0*)
    → "DEBUG: Add completion value. [2500."000./1500./1000./500."50./100./50./10./5./Cancel.]"
370: 0x0958 [0x25] WAIT_DIALOG_SELECT()
371: 0x0959 [0x02] IF !(Work_Zone[0] == 0*) GOTO 0x096D
372: 0x0961 [0x40] SET_BIT_WORK_RANGE(start_bit=5*, end_bit=19*, target=Work_Zone[1], source=2500*)
373: 0x096A [0x01] GOTO 0x0A31
374: 0x096D [0x02] IF !(Work_Zone[0] == 1*) GOTO 0x0981
375: 0x0975 [0x40] SET_BIT_WORK_RANGE(start_bit=5*, end_bit=19*, target=Work_Zone[1], source=2000*)
376: 0x097E [0x01] GOTO 0x0A31
377: 0x0981 [0x02] IF !(Work_Zone[0] == 2*) GOTO 0x0995
378: 0x0989 [0x40] SET_BIT_WORK_RANGE(start_bit=5*, end_bit=19*, target=Work_Zone[1], source=1500*)
379: 0x0992 [0x01] GOTO 0x0A31
380: 0x0995 [0x02] IF !(Work_Zone[0] == 3*) GOTO 0x09A9
381: 0x099D [0x40] SET_BIT_WORK_RANGE(start_bit=5*, end_bit=19*, target=Work_Zone[1], source=1000*)
382: 0x09A6 [0x01] GOTO 0x0A31
383: 0x09A9 [0x02] IF !(Work_Zone[0] == 4*) GOTO 0x09BD
384: 0x09B1 [0x40] SET_BIT_WORK_RANGE(start_bit=5*, end_bit=19*, target=Work_Zone[1], source=500*)
385: 0x09BA [0x01] GOTO 0x0A31
386: 0x09BD [0x02] IF !(Work_Zone[0] == 5*) GOTO 0x09D1
387: 0x09C5 [0x40] SET_BIT_WORK_RANGE(start_bit=5*, end_bit=19*, target=Work_Zone[1], source=250*)
388: 0x09CE [0x01] GOTO 0x0A31
389: 0x09D1 [0x02] IF !(Work_Zone[0] == 6*) GOTO 0x09E5
390: 0x09D9 [0x40] SET_BIT_WORK_RANGE(start_bit=5*, end_bit=19*, target=Work_Zone[1], source=100*)
391: 0x09E2 [0x01] GOTO 0x0A31
392: 0x09E5 [0x02] IF !(Work_Zone[0] == 7*) GOTO 0x09F9
393: 0x09ED [0x40] SET_BIT_WORK_RANGE(start_bit=5*, end_bit=19*, target=Work_Zone[1], source=50*)
394: 0x09F6 [0x01] GOTO 0x0A31
395: 0x09F9 [0x02] IF !(Work_Zone[0] == 8*) GOTO 0x0A0D
396: 0x0A01 [0x40] SET_BIT_WORK_RANGE(start_bit=5*, end_bit=19*, target=Work_Zone[1], source=10*)
397: 0x0A0A [0x01] GOTO 0x0A31
398: 0x0A0D [0x02] IF !(Work_Zone[0] == 9*) GOTO 0x0A21
399: 0x0A15 [0x40] SET_BIT_WORK_RANGE(start_bit=5*, end_bit=19*, target=Work_Zone[1], source=5*)
400: 0x0A1E [0x01] GOTO 0x0A31
401: 0x0A21 [0x02] IF !(Work_Zone[0] == 10*) GOTO 0x0A31
402: 0x0A29 [0x03] Work_Zone[1] = 1073741824*
403: 0x0A2E [0x01] GOTO 0x0A31

SUBROUTINE_0A31:
404: 0x0A31 [0x02] IF !(Work_Zone[1] == 1073741824*) GOTO 0x0A42
405: 0x0A39 [0x40] SET_BIT_WORK_RANGE(start_bit=0*, end_bit=4*, target=Work_Zone[1], source=10*)
406: 0x0A42 [0x01] GOTO 0x1489
407: 0x0A45 [0x02] IF !(Work_Zone[0] == 10*) GOTO 0x0B41
408: 0x0A4D [0x24] CREATE_DIALOG(message_id=7259*, default_option=0*, option_flags=0*)
    → "DEBUG: Add completion value. [2500."000./1500./1000./500."50./100./50./10./5./Cancel.]"
409: 0x0A54 [0x25] WAIT_DIALOG_SELECT()
410: 0x0A55 [0x02] IF !(Work_Zone[0] == 0*) GOTO 0x0A69
411: 0x0A5D [0x40] SET_BIT_WORK_RANGE(start_bit=5*, end_bit=19*, target=Work_Zone[1], source=2500*)
412: 0x0A66 [0x01] GOTO 0x0B2D
413: 0x0A69 [0x02] IF !(Work_Zone[0] == 1*) GOTO 0x0A7D
414: 0x0A71 [0x40] SET_BIT_WORK_RANGE(start_bit=5*, end_bit=19*, target=Work_Zone[1], source=2000*)
415: 0x0A7A [0x01] GOTO 0x0B2D
416: 0x0A7D [0x02] IF !(Work_Zone[0] == 2*) GOTO 0x0A91
417: 0x0A85 [0x40] SET_BIT_WORK_RANGE(start_bit=5*, end_bit=19*, target=Work_Zone[1], source=1500*)
418: 0x0A8E [0x01] GOTO 0x0B2D
419: 0x0A91 [0x02] IF !(Work_Zone[0] == 3*) GOTO 0x0AA5
420: 0x0A99 [0x40] SET_BIT_WORK_RANGE(start_bit=5*, end_bit=19*, target=Work_Zone[1], source=1000*)
421: 0x0AA2 [0x01] GOTO 0x0B2D
422: 0x0AA5 [0x02] IF !(Work_Zone[0] == 4*) GOTO 0x0AB9
423: 0x0AAD [0x40] SET_BIT_WORK_RANGE(start_bit=5*, end_bit=19*, target=Work_Zone[1], source=500*)
424: 0x0AB6 [0x01] GOTO 0x0B2D
425: 0x0AB9 [0x02] IF !(Work_Zone[0] == 5*) GOTO 0x0ACD
426: 0x0AC1 [0x40] SET_BIT_WORK_RANGE(start_bit=5*, end_bit=19*, target=Work_Zone[1], source=250*)
427: 0x0ACA [0x01] GOTO 0x0B2D
428: 0x0ACD [0x02] IF !(Work_Zone[0] == 6*) GOTO 0x0AE1
429: 0x0AD5 [0x40] SET_BIT_WORK_RANGE(start_bit=5*, end_bit=19*, target=Work_Zone[1], source=100*)
430: 0x0ADE [0x01] GOTO 0x0B2D
431: 0x0AE1 [0x02] IF !(Work_Zone[0] == 7*) GOTO 0x0AF5
432: 0x0AE9 [0x40] SET_BIT_WORK_RANGE(start_bit=5*, end_bit=19*, target=Work_Zone[1], source=50*)
433: 0x0AF2 [0x01] GOTO 0x0B2D
434: 0x0AF5 [0x02] IF !(Work_Zone[0] == 8*) GOTO 0x0B09
435: 0x0AFD [0x40] SET_BIT_WORK_RANGE(start_bit=5*, end_bit=19*, target=Work_Zone[1], source=10*)
436: 0x0B06 [0x01] GOTO 0x0B2D
437: 0x0B09 [0x02] IF !(Work_Zone[0] == 9*) GOTO 0x0B1D
438: 0x0B11 [0x40] SET_BIT_WORK_RANGE(start_bit=5*, end_bit=19*, target=Work_Zone[1], source=5*)
439: 0x0B1A [0x01] GOTO 0x0B2D
440: 0x0B1D [0x02] IF !(Work_Zone[0] == 10*) GOTO 0x0B2D
441: 0x0B25 [0x03] Work_Zone[1] = 1073741824*
442: 0x0B2A [0x01] GOTO 0x0B2D

SUBROUTINE_0B2D:
443: 0x0B2D [0x02] IF !(Work_Zone[1] == 1073741824*) GOTO 0x0B3E
444: 0x0B35 [0x40] SET_BIT_WORK_RANGE(start_bit=0*, end_bit=4*, target=Work_Zone[1], source=11*)
445: 0x0B3E [0x01] GOTO 0x1489
446: 0x0B41 [0x02] IF !(Work_Zone[0] == 11*) GOTO 0x0C3D
447: 0x0B49 [0x24] CREATE_DIALOG(message_id=7259*, default_option=0*, option_flags=0*)
    → "DEBUG: Add completion value. [2500."000./1500./1000./500."50./100./50./10./5./Cancel.]"
448: 0x0B50 [0x25] WAIT_DIALOG_SELECT()
449: 0x0B51 [0x02] IF !(Work_Zone[0] == 0*) GOTO 0x0B65
450: 0x0B59 [0x40] SET_BIT_WORK_RANGE(start_bit=5*, end_bit=19*, target=Work_Zone[1], source=2500*)
451: 0x0B62 [0x01] GOTO 0x0C29
452: 0x0B65 [0x02] IF !(Work_Zone[0] == 1*) GOTO 0x0B79
453: 0x0B6D [0x40] SET_BIT_WORK_RANGE(start_bit=5*, end_bit=19*, target=Work_Zone[1], source=2000*)
454: 0x0B76 [0x01] GOTO 0x0C29
455: 0x0B79 [0x02] IF !(Work_Zone[0] == 2*) GOTO 0x0B8D
456: 0x0B81 [0x40] SET_BIT_WORK_RANGE(start_bit=5*, end_bit=19*, target=Work_Zone[1], source=1500*)
457: 0x0B8A [0x01] GOTO 0x0C29
458: 0x0B8D [0x02] IF !(Work_Zone[0] == 3*) GOTO 0x0BA1
459: 0x0B95 [0x40] SET_BIT_WORK_RANGE(start_bit=5*, end_bit=19*, target=Work_Zone[1], source=1000*)
460: 0x0B9E [0x01] GOTO 0x0C29
461: 0x0BA1 [0x02] IF !(Work_Zone[0] == 4*) GOTO 0x0BB5
462: 0x0BA9 [0x40] SET_BIT_WORK_RANGE(start_bit=5*, end_bit=19*, target=Work_Zone[1], source=500*)
463: 0x0BB2 [0x01] GOTO 0x0C29
464: 0x0BB5 [0x02] IF !(Work_Zone[0] == 5*) GOTO 0x0BC9
465: 0x0BBD [0x40] SET_BIT_WORK_RANGE(start_bit=5*, end_bit=19*, target=Work_Zone[1], source=250*)
466: 0x0BC6 [0x01] GOTO 0x0C29
467: 0x0BC9 [0x02] IF !(Work_Zone[0] == 6*) GOTO 0x0BDD
468: 0x0BD1 [0x40] SET_BIT_WORK_RANGE(start_bit=5*, end_bit=19*, target=Work_Zone[1], source=100*)
469: 0x0BDA [0x01] GOTO 0x0C29
470: 0x0BDD [0x02] IF !(Work_Zone[0] == 7*) GOTO 0x0BF1
471: 0x0BE5 [0x40] SET_BIT_WORK_RANGE(start_bit=5*, end_bit=19*, target=Work_Zone[1], source=50*)
472: 0x0BEE [0x01] GOTO 0x0C29
473: 0x0BF1 [0x02] IF !(Work_Zone[0] == 8*) GOTO 0x0C05
474: 0x0BF9 [0x40] SET_BIT_WORK_RANGE(start_bit=5*, end_bit=19*, target=Work_Zone[1], source=10*)
475: 0x0C02 [0x01] GOTO 0x0C29
476: 0x0C05 [0x02] IF !(Work_Zone[0] == 9*) GOTO 0x0C19
477: 0x0C0D [0x40] SET_BIT_WORK_RANGE(start_bit=5*, end_bit=19*, target=Work_Zone[1], source=5*)
478: 0x0C16 [0x01] GOTO 0x0C29
479: 0x0C19 [0x02] IF !(Work_Zone[0] == 10*) GOTO 0x0C29
480: 0x0C21 [0x03] Work_Zone[1] = 1073741824*
481: 0x0C26 [0x01] GOTO 0x0C29

SUBROUTINE_0C29:
482: 0x0C29 [0x02] IF !(Work_Zone[1] == 1073741824*) GOTO 0x0C3A
483: 0x0C31 [0x40] SET_BIT_WORK_RANGE(start_bit=0*, end_bit=4*, target=Work_Zone[1], source=12*)
484: 0x0C3A [0x01] GOTO 0x1489
485: 0x0C3D [0x02] IF !(Work_Zone[0] == 12*) GOTO 0x0D39
486: 0x0C45 [0x24] CREATE_DIALOG(message_id=7259*, default_option=0*, option_flags=0*)
    → "DEBUG: Add completion value. [2500."000./1500./1000./500."50./100./50./10./5./Cancel.]"
487: 0x0C4C [0x25] WAIT_DIALOG_SELECT()
488: 0x0C4D [0x02] IF !(Work_Zone[0] == 0*) GOTO 0x0C61
489: 0x0C55 [0x40] SET_BIT_WORK_RANGE(start_bit=5*, end_bit=19*, target=Work_Zone[1], source=2500*)
490: 0x0C5E [0x01] GOTO 0x0D25
491: 0x0C61 [0x02] IF !(Work_Zone[0] == 1*) GOTO 0x0C75
492: 0x0C69 [0x40] SET_BIT_WORK_RANGE(start_bit=5*, end_bit=19*, target=Work_Zone[1], source=2000*)
493: 0x0C72 [0x01] GOTO 0x0D25
494: 0x0C75 [0x02] IF !(Work_Zone[0] == 2*) GOTO 0x0C89
495: 0x0C7D [0x40] SET_BIT_WORK_RANGE(start_bit=5*, end_bit=19*, target=Work_Zone[1], source=1500*)
496: 0x0C86 [0x01] GOTO 0x0D25
497: 0x0C89 [0x02] IF !(Work_Zone[0] == 3*) GOTO 0x0C9D
498: 0x0C91 [0x40] SET_BIT_WORK_RANGE(start_bit=5*, end_bit=19*, target=Work_Zone[1], source=1000*)
499: 0x0C9A [0x01] GOTO 0x0D25
500: 0x0C9D [0x02] IF !(Work_Zone[0] == 4*) GOTO 0x0CB1
501: 0x0CA5 [0x40] SET_BIT_WORK_RANGE(start_bit=5*, end_bit=19*, target=Work_Zone[1], source=500*)
502: 0x0CAE [0x01] GOTO 0x0D25
503: 0x0CB1 [0x02] IF !(Work_Zone[0] == 5*) GOTO 0x0CC5
504: 0x0CB9 [0x40] SET_BIT_WORK_RANGE(start_bit=5*, end_bit=19*, target=Work_Zone[1], source=250*)
505: 0x0CC2 [0x01] GOTO 0x0D25
506: 0x0CC5 [0x02] IF !(Work_Zone[0] == 6*) GOTO 0x0CD9
507: 0x0CCD [0x40] SET_BIT_WORK_RANGE(start_bit=5*, end_bit=19*, target=Work_Zone[1], source=100*)
508: 0x0CD6 [0x01] GOTO 0x0D25
509: 0x0CD9 [0x02] IF !(Work_Zone[0] == 7*) GOTO 0x0CED
510: 0x0CE1 [0x40] SET_BIT_WORK_RANGE(start_bit=5*, end_bit=19*, target=Work_Zone[1], source=50*)
511: 0x0CEA [0x01] GOTO 0x0D25
512: 0x0CED [0x02] IF !(Work_Zone[0] == 8*) GOTO 0x0D01
513: 0x0CF5 [0x40] SET_BIT_WORK_RANGE(start_bit=5*, end_bit=19*, target=Work_Zone[1], source=10*)
514: 0x0CFE [0x01] GOTO 0x0D25
515: 0x0D01 [0x02] IF !(Work_Zone[0] == 9*) GOTO 0x0D15
516: 0x0D09 [0x40] SET_BIT_WORK_RANGE(start_bit=5*, end_bit=19*, target=Work_Zone[1], source=5*)
517: 0x0D12 [0x01] GOTO 0x0D25
518: 0x0D15 [0x02] IF !(Work_Zone[0] == 10*) GOTO 0x0D25
519: 0x0D1D [0x03] Work_Zone[1] = 1073741824*
520: 0x0D22 [0x01] GOTO 0x0D25

SUBROUTINE_0D25:
521: 0x0D25 [0x02] IF !(Work_Zone[1] == 1073741824*) GOTO 0x0D36
522: 0x0D2D [0x40] SET_BIT_WORK_RANGE(start_bit=0*, end_bit=4*, target=Work_Zone[1], source=13*)
523: 0x0D36 [0x01] GOTO 0x1489
524: 0x0D39 [0x02] IF !(Work_Zone[0] == 13*) GOTO 0x0E35
525: 0x0D41 [0x24] CREATE_DIALOG(message_id=7259*, default_option=0*, option_flags=0*)
    → "DEBUG: Add completion value. [2500."000./1500./1000./500."50./100./50./10./5./Cancel.]"
526: 0x0D48 [0x25] WAIT_DIALOG_SELECT()
527: 0x0D49 [0x02] IF !(Work_Zone[0] == 0*) GOTO 0x0D5D
528: 0x0D51 [0x40] SET_BIT_WORK_RANGE(start_bit=5*, end_bit=19*, target=Work_Zone[1], source=2500*)
529: 0x0D5A [0x01] GOTO 0x0E21
530: 0x0D5D [0x02] IF !(Work_Zone[0] == 1*) GOTO 0x0D71
531: 0x0D65 [0x40] SET_BIT_WORK_RANGE(start_bit=5*, end_bit=19*, target=Work_Zone[1], source=2000*)
532: 0x0D6E [0x01] GOTO 0x0E21
533: 0x0D71 [0x02] IF !(Work_Zone[0] == 2*) GOTO 0x0D85
534: 0x0D79 [0x40] SET_BIT_WORK_RANGE(start_bit=5*, end_bit=19*, target=Work_Zone[1], source=1500*)
535: 0x0D82 [0x01] GOTO 0x0E21
536: 0x0D85 [0x02] IF !(Work_Zone[0] == 3*) GOTO 0x0D99
537: 0x0D8D [0x40] SET_BIT_WORK_RANGE(start_bit=5*, end_bit=19*, target=Work_Zone[1], source=1000*)
538: 0x0D96 [0x01] GOTO 0x0E21
539: 0x0D99 [0x02] IF !(Work_Zone[0] == 4*) GOTO 0x0DAD
540: 0x0DA1 [0x40] SET_BIT_WORK_RANGE(start_bit=5*, end_bit=19*, target=Work_Zone[1], source=500*)
541: 0x0DAA [0x01] GOTO 0x0E21
542: 0x0DAD [0x02] IF !(Work_Zone[0] == 5*) GOTO 0x0DC1
543: 0x0DB5 [0x40] SET_BIT_WORK_RANGE(start_bit=5*, end_bit=19*, target=Work_Zone[1], source=250*)
544: 0x0DBE [0x01] GOTO 0x0E21
545: 0x0DC1 [0x02] IF !(Work_Zone[0] == 6*) GOTO 0x0DD5
546: 0x0DC9 [0x40] SET_BIT_WORK_RANGE(start_bit=5*, end_bit=19*, target=Work_Zone[1], source=100*)
547: 0x0DD2 [0x01] GOTO 0x0E21
548: 0x0DD5 [0x02] IF !(Work_Zone[0] == 7*) GOTO 0x0DE9
549: 0x0DDD [0x40] SET_BIT_WORK_RANGE(start_bit=5*, end_bit=19*, target=Work_Zone[1], source=50*)
550: 0x0DE6 [0x01] GOTO 0x0E21
551: 0x0DE9 [0x02] IF !(Work_Zone[0] == 8*) GOTO 0x0DFD
552: 0x0DF1 [0x40] SET_BIT_WORK_RANGE(start_bit=5*, end_bit=19*, target=Work_Zone[1], source=10*)
553: 0x0DFA [0x01] GOTO 0x0E21
554: 0x0DFD [0x02] IF !(Work_Zone[0] == 9*) GOTO 0x0E11
555: 0x0E05 [0x40] SET_BIT_WORK_RANGE(start_bit=5*, end_bit=19*, target=Work_Zone[1], source=5*)
556: 0x0E0E [0x01] GOTO 0x0E21
557: 0x0E11 [0x02] IF !(Work_Zone[0] == 10*) GOTO 0x0E21
558: 0x0E19 [0x03] Work_Zone[1] = 1073741824*
559: 0x0E1E [0x01] GOTO 0x0E21

SUBROUTINE_0E21:
560: 0x0E21 [0x02] IF !(Work_Zone[1] == 1073741824*) GOTO 0x0E32
561: 0x0E29 [0x40] SET_BIT_WORK_RANGE(start_bit=0*, end_bit=4*, target=Work_Zone[1], source=14*)
562: 0x0E32 [0x01] GOTO 0x1489
563: 0x0E35 [0x02] IF !(Work_Zone[0] == 14*) GOTO 0x0F31
564: 0x0E3D [0x24] CREATE_DIALOG(message_id=7259*, default_option=0*, option_flags=0*)
    → "DEBUG: Add completion value. [2500."000./1500./1000./500."50./100./50./10./5./Cancel.]"
565: 0x0E44 [0x25] WAIT_DIALOG_SELECT()
566: 0x0E45 [0x02] IF !(Work_Zone[0] == 0*) GOTO 0x0E59
567: 0x0E4D [0x40] SET_BIT_WORK_RANGE(start_bit=5*, end_bit=19*, target=Work_Zone[1], source=2500*)
568: 0x0E56 [0x01] GOTO 0x0F1D
569: 0x0E59 [0x02] IF !(Work_Zone[0] == 1*) GOTO 0x0E6D
570: 0x0E61 [0x40] SET_BIT_WORK_RANGE(start_bit=5*, end_bit=19*, target=Work_Zone[1], source=2000*)
571: 0x0E6A [0x01] GOTO 0x0F1D
572: 0x0E6D [0x02] IF !(Work_Zone[0] == 2*) GOTO 0x0E81
573: 0x0E75 [0x40] SET_BIT_WORK_RANGE(start_bit=5*, end_bit=19*, target=Work_Zone[1], source=1500*)
574: 0x0E7E [0x01] GOTO 0x0F1D
575: 0x0E81 [0x02] IF !(Work_Zone[0] == 3*) GOTO 0x0E95
576: 0x0E89 [0x40] SET_BIT_WORK_RANGE(start_bit=5*, end_bit=19*, target=Work_Zone[1], source=1000*)
577: 0x0E92 [0x01] GOTO 0x0F1D
578: 0x0E95 [0x02] IF !(Work_Zone[0] == 4*) GOTO 0x0EA9
579: 0x0E9D [0x40] SET_BIT_WORK_RANGE(start_bit=5*, end_bit=19*, target=Work_Zone[1], source=500*)
580: 0x0EA6 [0x01] GOTO 0x0F1D
581: 0x0EA9 [0x02] IF !(Work_Zone[0] == 5*) GOTO 0x0EBD
582: 0x0EB1 [0x40] SET_BIT_WORK_RANGE(start_bit=5*, end_bit=19*, target=Work_Zone[1], source=250*)
583: 0x0EBA [0x01] GOTO 0x0F1D
584: 0x0EBD [0x02] IF !(Work_Zone[0] == 6*) GOTO 0x0ED1
585: 0x0EC5 [0x40] SET_BIT_WORK_RANGE(start_bit=5*, end_bit=19*, target=Work_Zone[1], source=100*)
586: 0x0ECE [0x01] GOTO 0x0F1D
587: 0x0ED1 [0x02] IF !(Work_Zone[0] == 7*) GOTO 0x0EE5
588: 0x0ED9 [0x40] SET_BIT_WORK_RANGE(start_bit=5*, end_bit=19*, target=Work_Zone[1], source=50*)
589: 0x0EE2 [0x01] GOTO 0x0F1D
590: 0x0EE5 [0x02] IF !(Work_Zone[0] == 8*) GOTO 0x0EF9
591: 0x0EED [0x40] SET_BIT_WORK_RANGE(start_bit=5*, end_bit=19*, target=Work_Zone[1], source=10*)
592: 0x0EF6 [0x01] GOTO 0x0F1D
593: 0x0EF9 [0x02] IF !(Work_Zone[0] == 9*) GOTO 0x0F0D
594: 0x0F01 [0x40] SET_BIT_WORK_RANGE(start_bit=5*, end_bit=19*, target=Work_Zone[1], source=5*)
595: 0x0F0A [0x01] GOTO 0x0F1D
596: 0x0F0D [0x02] IF !(Work_Zone[0] == 10*) GOTO 0x0F1D
597: 0x0F15 [0x03] Work_Zone[1] = 1073741824*
598: 0x0F1A [0x01] GOTO 0x0F1D

SUBROUTINE_0F1D:
599: 0x0F1D [0x02] IF !(Work_Zone[1] == 1073741824*) GOTO 0x0F2E
600: 0x0F25 [0x40] SET_BIT_WORK_RANGE(start_bit=0*, end_bit=4*, target=Work_Zone[1], source=15*)
601: 0x0F2E [0x01] GOTO 0x1489
602: 0x0F31 [0x02] IF !(Work_Zone[0] == 15*) GOTO 0x102D
603: 0x0F39 [0x24] CREATE_DIALOG(message_id=7259*, default_option=0*, option_flags=0*)
    → "DEBUG: Add completion value. [2500."000./1500./1000./500."50./100./50./10./5./Cancel.]"
604: 0x0F40 [0x25] WAIT_DIALOG_SELECT()
605: 0x0F41 [0x02] IF !(Work_Zone[0] == 0*) GOTO 0x0F55
606: 0x0F49 [0x40] SET_BIT_WORK_RANGE(start_bit=5*, end_bit=19*, target=Work_Zone[1], source=2500*)
607: 0x0F52 [0x01] GOTO 0x1019
608: 0x0F55 [0x02] IF !(Work_Zone[0] == 1*) GOTO 0x0F69
609: 0x0F5D [0x40] SET_BIT_WORK_RANGE(start_bit=5*, end_bit=19*, target=Work_Zone[1], source=2000*)
610: 0x0F66 [0x01] GOTO 0x1019
611: 0x0F69 [0x02] IF !(Work_Zone[0] == 2*) GOTO 0x0F7D
612: 0x0F71 [0x40] SET_BIT_WORK_RANGE(start_bit=5*, end_bit=19*, target=Work_Zone[1], source=1500*)
613: 0x0F7A [0x01] GOTO 0x1019
614: 0x0F7D [0x02] IF !(Work_Zone[0] == 3*) GOTO 0x0F91
615: 0x0F85 [0x40] SET_BIT_WORK_RANGE(start_bit=5*, end_bit=19*, target=Work_Zone[1], source=1000*)
616: 0x0F8E [0x01] GOTO 0x1019
617: 0x0F91 [0x02] IF !(Work_Zone[0] == 4*) GOTO 0x0FA5
618: 0x0F99 [0x40] SET_BIT_WORK_RANGE(start_bit=5*, end_bit=19*, target=Work_Zone[1], source=500*)
619: 0x0FA2 [0x01] GOTO 0x1019
620: 0x0FA5 [0x02] IF !(Work_Zone[0] == 5*) GOTO 0x0FB9
621: 0x0FAD [0x40] SET_BIT_WORK_RANGE(start_bit=5*, end_bit=19*, target=Work_Zone[1], source=250*)
622: 0x0FB6 [0x01] GOTO 0x1019
623: 0x0FB9 [0x02] IF !(Work_Zone[0] == 6*) GOTO 0x0FCD
624: 0x0FC1 [0x40] SET_BIT_WORK_RANGE(start_bit=5*, end_bit=19*, target=Work_Zone[1], source=100*)
625: 0x0FCA [0x01] GOTO 0x1019
626: 0x0FCD [0x02] IF !(Work_Zone[0] == 7*) GOTO 0x0FE1
627: 0x0FD5 [0x40] SET_BIT_WORK_RANGE(start_bit=5*, end_bit=19*, target=Work_Zone[1], source=50*)
628: 0x0FDE [0x01] GOTO 0x1019
629: 0x0FE1 [0x02] IF !(Work_Zone[0] == 8*) GOTO 0x0FF5
630: 0x0FE9 [0x40] SET_BIT_WORK_RANGE(start_bit=5*, end_bit=19*, target=Work_Zone[1], source=10*)
631: 0x0FF2 [0x01] GOTO 0x1019
632: 0x0FF5 [0x02] IF !(Work_Zone[0] == 9*) GOTO 0x1009
633: 0x0FFD [0x40] SET_BIT_WORK_RANGE(start_bit=5*, end_bit=19*, target=Work_Zone[1], source=5*)
634: 0x1006 [0x01] GOTO 0x1019
635: 0x1009 [0x02] IF !(Work_Zone[0] == 10*) GOTO 0x1019
636: 0x1011 [0x03] Work_Zone[1] = 1073741824*
637: 0x1016 [0x01] GOTO 0x1019

SUBROUTINE_1019:
638: 0x1019 [0x02] IF !(Work_Zone[1] == 1073741824*) GOTO 0x102A
639: 0x1021 [0x40] SET_BIT_WORK_RANGE(start_bit=0*, end_bit=4*, target=Work_Zone[1], source=16*)
640: 0x102A [0x01] GOTO 0x1489
641: 0x102D [0x02] IF !(Work_Zone[0] == 16*) GOTO 0x1129
642: 0x1035 [0x24] CREATE_DIALOG(message_id=7259*, default_option=0*, option_flags=0*)
    → "DEBUG: Add completion value. [2500."000./1500./1000./500."50./100./50./10./5./Cancel.]"
643: 0x103C [0x25] WAIT_DIALOG_SELECT()
644: 0x103D [0x02] IF !(Work_Zone[0] == 0*) GOTO 0x1051
645: 0x1045 [0x40] SET_BIT_WORK_RANGE(start_bit=5*, end_bit=19*, target=Work_Zone[1], source=2500*)
646: 0x104E [0x01] GOTO 0x1115
647: 0x1051 [0x02] IF !(Work_Zone[0] == 1*) GOTO 0x1065
648: 0x1059 [0x40] SET_BIT_WORK_RANGE(start_bit=5*, end_bit=19*, target=Work_Zone[1], source=2000*)
649: 0x1062 [0x01] GOTO 0x1115
650: 0x1065 [0x02] IF !(Work_Zone[0] == 2*) GOTO 0x1079
651: 0x106D [0x40] SET_BIT_WORK_RANGE(start_bit=5*, end_bit=19*, target=Work_Zone[1], source=1500*)
652: 0x1076 [0x01] GOTO 0x1115
653: 0x1079 [0x02] IF !(Work_Zone[0] == 3*) GOTO 0x108D
654: 0x1081 [0x40] SET_BIT_WORK_RANGE(start_bit=5*, end_bit=19*, target=Work_Zone[1], source=1000*)
655: 0x108A [0x01] GOTO 0x1115
656: 0x108D [0x02] IF !(Work_Zone[0] == 4*) GOTO 0x10A1
657: 0x1095 [0x40] SET_BIT_WORK_RANGE(start_bit=5*, end_bit=19*, target=Work_Zone[1], source=500*)
658: 0x109E [0x01] GOTO 0x1115
659: 0x10A1 [0x02] IF !(Work_Zone[0] == 5*) GOTO 0x10B5
660: 0x10A9 [0x40] SET_BIT_WORK_RANGE(start_bit=5*, end_bit=19*, target=Work_Zone[1], source=250*)
661: 0x10B2 [0x01] GOTO 0x1115
662: 0x10B5 [0x02] IF !(Work_Zone[0] == 6*) GOTO 0x10C9
663: 0x10BD [0x40] SET_BIT_WORK_RANGE(start_bit=5*, end_bit=19*, target=Work_Zone[1], source=100*)
664: 0x10C6 [0x01] GOTO 0x1115
665: 0x10C9 [0x02] IF !(Work_Zone[0] == 7*) GOTO 0x10DD
666: 0x10D1 [0x40] SET_BIT_WORK_RANGE(start_bit=5*, end_bit=19*, target=Work_Zone[1], source=50*)
667: 0x10DA [0x01] GOTO 0x1115
668: 0x10DD [0x02] IF !(Work_Zone[0] == 8*) GOTO 0x10F1
669: 0x10E5 [0x40] SET_BIT_WORK_RANGE(start_bit=5*, end_bit=19*, target=Work_Zone[1], source=10*)
670: 0x10EE [0x01] GOTO 0x1115
671: 0x10F1 [0x02] IF !(Work_Zone[0] == 9*) GOTO 0x1105
672: 0x10F9 [0x40] SET_BIT_WORK_RANGE(start_bit=5*, end_bit=19*, target=Work_Zone[1], source=5*)
673: 0x1102 [0x01] GOTO 0x1115
674: 0x1105 [0x02] IF !(Work_Zone[0] == 10*) GOTO 0x1115
675: 0x110D [0x03] Work_Zone[1] = 1073741824*
676: 0x1112 [0x01] GOTO 0x1115

SUBROUTINE_1115:
677: 0x1115 [0x02] IF !(Work_Zone[1] == 1073741824*) GOTO 0x1126
678: 0x111D [0x40] SET_BIT_WORK_RANGE(start_bit=0*, end_bit=4*, target=Work_Zone[1], source=17*)
679: 0x1126 [0x01] GOTO 0x1489
680: 0x1129 [0x02] IF !(Work_Zone[0] == 17*) GOTO 0x1225
681: 0x1131 [0x24] CREATE_DIALOG(message_id=7259*, default_option=0*, option_flags=0*)
    → "DEBUG: Add completion value. [2500."000./1500./1000./500."50./100./50./10./5./Cancel.]"
682: 0x1138 [0x25] WAIT_DIALOG_SELECT()
683: 0x1139 [0x02] IF !(Work_Zone[0] == 0*) GOTO 0x114D
684: 0x1141 [0x40] SET_BIT_WORK_RANGE(start_bit=5*, end_bit=19*, target=Work_Zone[1], source=2500*)
685: 0x114A [0x01] GOTO 0x1211
686: 0x114D [0x02] IF !(Work_Zone[0] == 1*) GOTO 0x1161
687: 0x1155 [0x40] SET_BIT_WORK_RANGE(start_bit=5*, end_bit=19*, target=Work_Zone[1], source=2000*)
688: 0x115E [0x01] GOTO 0x1211
689: 0x1161 [0x02] IF !(Work_Zone[0] == 2*) GOTO 0x1175
690: 0x1169 [0x40] SET_BIT_WORK_RANGE(start_bit=5*, end_bit=19*, target=Work_Zone[1], source=1500*)
691: 0x1172 [0x01] GOTO 0x1211
692: 0x1175 [0x02] IF !(Work_Zone[0] == 3*) GOTO 0x1189
693: 0x117D [0x40] SET_BIT_WORK_RANGE(start_bit=5*, end_bit=19*, target=Work_Zone[1], source=1000*)
694: 0x1186 [0x01] GOTO 0x1211
695: 0x1189 [0x02] IF !(Work_Zone[0] == 4*) GOTO 0x119D
696: 0x1191 [0x40] SET_BIT_WORK_RANGE(start_bit=5*, end_bit=19*, target=Work_Zone[1], source=500*)
697: 0x119A [0x01] GOTO 0x1211
698: 0x119D [0x02] IF !(Work_Zone[0] == 5*) GOTO 0x11B1
699: 0x11A5 [0x40] SET_BIT_WORK_RANGE(start_bit=5*, end_bit=19*, target=Work_Zone[1], source=250*)
700: 0x11AE [0x01] GOTO 0x1211
701: 0x11B1 [0x02] IF !(Work_Zone[0] == 6*) GOTO 0x11C5
702: 0x11B9 [0x40] SET_BIT_WORK_RANGE(start_bit=5*, end_bit=19*, target=Work_Zone[1], source=100*)
703: 0x11C2 [0x01] GOTO 0x1211
704: 0x11C5 [0x02] IF !(Work_Zone[0] == 7*) GOTO 0x11D9
705: 0x11CD [0x40] SET_BIT_WORK_RANGE(start_bit=5*, end_bit=19*, target=Work_Zone[1], source=50*)
706: 0x11D6 [0x01] GOTO 0x1211
707: 0x11D9 [0x02] IF !(Work_Zone[0] == 8*) GOTO 0x11ED
708: 0x11E1 [0x40] SET_BIT_WORK_RANGE(start_bit=5*, end_bit=19*, target=Work_Zone[1], source=10*)
709: 0x11EA [0x01] GOTO 0x1211
710: 0x11ED [0x02] IF !(Work_Zone[0] == 9*) GOTO 0x1201
711: 0x11F5 [0x40] SET_BIT_WORK_RANGE(start_bit=5*, end_bit=19*, target=Work_Zone[1], source=5*)
712: 0x11FE [0x01] GOTO 0x1211
713: 0x1201 [0x02] IF !(Work_Zone[0] == 10*) GOTO 0x1211
714: 0x1209 [0x03] Work_Zone[1] = 1073741824*
715: 0x120E [0x01] GOTO 0x1211

SUBROUTINE_1211:
716: 0x1211 [0x02] IF !(Work_Zone[1] == 1073741824*) GOTO 0x1222
717: 0x1219 [0x40] SET_BIT_WORK_RANGE(start_bit=0*, end_bit=4*, target=Work_Zone[1], source=18*)
718: 0x1222 [0x01] GOTO 0x1489
719: 0x1225 [0x02] IF !(Work_Zone[0] == 18*) GOTO 0x1321
720: 0x122D [0x24] CREATE_DIALOG(message_id=7259*, default_option=0*, option_flags=0*)
    → "DEBUG: Add completion value. [2500."000./1500./1000./500."50./100./50./10./5./Cancel.]"
721: 0x1234 [0x25] WAIT_DIALOG_SELECT()
722: 0x1235 [0x02] IF !(Work_Zone[0] == 0*) GOTO 0x1249
723: 0x123D [0x40] SET_BIT_WORK_RANGE(start_bit=5*, end_bit=19*, target=Work_Zone[1], source=2500*)
724: 0x1246 [0x01] GOTO 0x130D
725: 0x1249 [0x02] IF !(Work_Zone[0] == 1*) GOTO 0x125D
726: 0x1251 [0x40] SET_BIT_WORK_RANGE(start_bit=5*, end_bit=19*, target=Work_Zone[1], source=2000*)
727: 0x125A [0x01] GOTO 0x130D
728: 0x125D [0x02] IF !(Work_Zone[0] == 2*) GOTO 0x1271
729: 0x1265 [0x40] SET_BIT_WORK_RANGE(start_bit=5*, end_bit=19*, target=Work_Zone[1], source=1500*)
730: 0x126E [0x01] GOTO 0x130D
731: 0x1271 [0x02] IF !(Work_Zone[0] == 3*) GOTO 0x1285
732: 0x1279 [0x40] SET_BIT_WORK_RANGE(start_bit=5*, end_bit=19*, target=Work_Zone[1], source=1000*)
733: 0x1282 [0x01] GOTO 0x130D
734: 0x1285 [0x02] IF !(Work_Zone[0] == 4*) GOTO 0x1299
735: 0x128D [0x40] SET_BIT_WORK_RANGE(start_bit=5*, end_bit=19*, target=Work_Zone[1], source=500*)
736: 0x1296 [0x01] GOTO 0x130D
737: 0x1299 [0x02] IF !(Work_Zone[0] == 5*) GOTO 0x12AD
738: 0x12A1 [0x40] SET_BIT_WORK_RANGE(start_bit=5*, end_bit=19*, target=Work_Zone[1], source=250*)
739: 0x12AA [0x01] GOTO 0x130D
740: 0x12AD [0x02] IF !(Work_Zone[0] == 6*) GOTO 0x12C1
741: 0x12B5 [0x40] SET_BIT_WORK_RANGE(start_bit=5*, end_bit=19*, target=Work_Zone[1], source=100*)
742: 0x12BE [0x01] GOTO 0x130D
743: 0x12C1 [0x02] IF !(Work_Zone[0] == 7*) GOTO 0x12D5
744: 0x12C9 [0x40] SET_BIT_WORK_RANGE(start_bit=5*, end_bit=19*, target=Work_Zone[1], source=50*)
745: 0x12D2 [0x01] GOTO 0x130D
746: 0x12D5 [0x02] IF !(Work_Zone[0] == 8*) GOTO 0x12E9
747: 0x12DD [0x40] SET_BIT_WORK_RANGE(start_bit=5*, end_bit=19*, target=Work_Zone[1], source=10*)
748: 0x12E6 [0x01] GOTO 0x130D
749: 0x12E9 [0x02] IF !(Work_Zone[0] == 9*) GOTO 0x12FD
750: 0x12F1 [0x40] SET_BIT_WORK_RANGE(start_bit=5*, end_bit=19*, target=Work_Zone[1], source=5*)
751: 0x12FA [0x01] GOTO 0x130D
752: 0x12FD [0x02] IF !(Work_Zone[0] == 10*) GOTO 0x130D
753: 0x1305 [0x03] Work_Zone[1] = 1073741824*
754: 0x130A [0x01] GOTO 0x130D

SUBROUTINE_130D:
755: 0x130D [0x02] IF !(Work_Zone[1] == 1073741824*) GOTO 0x131E
756: 0x1315 [0x40] SET_BIT_WORK_RANGE(start_bit=0*, end_bit=4*, target=Work_Zone[1], source=19*)
757: 0x131E [0x01] GOTO 0x1489
758: 0x1321 [0x02] IF !(Work_Zone[0] == 19*) GOTO 0x137D
759: 0x1329 [0x24] CREATE_DIALOG(message_id=7256*, default_option=0*, option_flags=0*)
    → "DEBUG: Degradation over time on/off. [ON./OFF./Cancel.]"
760: 0x1330 [0x25] WAIT_DIALOG_SELECT()
761: 0x1331 [0x02] IF !(Work_Zone[0] == 0*) GOTO 0x1345
762: 0x1339 [0x40] SET_BIT_WORK_RANGE(start_bit=5*, end_bit=19*, target=Work_Zone[1], source=1*)
763: 0x1342 [0x01] GOTO 0x1369
764: 0x1345 [0x02] IF !(Work_Zone[0] == 1*) GOTO 0x1359
765: 0x134D [0x40] SET_BIT_WORK_RANGE(start_bit=5*, end_bit=19*, target=Work_Zone[1], source=0*)
766: 0x1356 [0x01] GOTO 0x1369
767: 0x1359 [0x02] IF !(Work_Zone[0] == 2*) GOTO 0x1369
768: 0x1361 [0x03] Work_Zone[1] = 1073741824*
769: 0x1366 [0x01] GOTO 0x1369

SUBROUTINE_1369:
770: 0x1369 [0x02] IF !(Work_Zone[1] == 1073741824*) GOTO 0x137A
771: 0x1371 [0x40] SET_BIT_WORK_RANGE(start_bit=0*, end_bit=4*, target=Work_Zone[1], source=20*)
772: 0x137A [0x01] GOTO 0x1489
773: 0x137D [0x02] IF !(Work_Zone[0] == 20*) GOTO 0x1479
774: 0x1385 [0x24] CREATE_DIALOG(message_id=7259*, default_option=0*, option_flags=0*)
    → "DEBUG: Add completion value. [2500."000./1500./1000./500."50./100./50./10./5./Cancel.]"
775: 0x138C [0x25] WAIT_DIALOG_SELECT()
776: 0x138D [0x02] IF !(Work_Zone[0] == 0*) GOTO 0x13A1
777: 0x1395 [0x40] SET_BIT_WORK_RANGE(start_bit=5*, end_bit=19*, target=Work_Zone[1], source=2500*)
778: 0x139E [0x01] GOTO 0x1465
779: 0x13A1 [0x02] IF !(Work_Zone[0] == 1*) GOTO 0x13B5
780: 0x13A9 [0x40] SET_BIT_WORK_RANGE(start_bit=5*, end_bit=19*, target=Work_Zone[1], source=2000*)
781: 0x13B2 [0x01] GOTO 0x1465
782: 0x13B5 [0x02] IF !(Work_Zone[0] == 2*) GOTO 0x13C9
783: 0x13BD [0x40] SET_BIT_WORK_RANGE(start_bit=5*, end_bit=19*, target=Work_Zone[1], source=1500*)
784: 0x13C6 [0x01] GOTO 0x1465
785: 0x13C9 [0x02] IF !(Work_Zone[0] == 3*) GOTO 0x13DD
786: 0x13D1 [0x40] SET_BIT_WORK_RANGE(start_bit=5*, end_bit=19*, target=Work_Zone[1], source=1000*)
787: 0x13DA [0x01] GOTO 0x1465
788: 0x13DD [0x02] IF !(Work_Zone[0] == 4*) GOTO 0x13F1
789: 0x13E5 [0x40] SET_BIT_WORK_RANGE(start_bit=5*, end_bit=19*, target=Work_Zone[1], source=500*)
790: 0x13EE [0x01] GOTO 0x1465
791: 0x13F1 [0x02] IF !(Work_Zone[0] == 5*) GOTO 0x1405
792: 0x13F9 [0x40] SET_BIT_WORK_RANGE(start_bit=5*, end_bit=19*, target=Work_Zone[1], source=250*)
793: 0x1402 [0x01] GOTO 0x1465
794: 0x1405 [0x02] IF !(Work_Zone[0] == 6*) GOTO 0x1419
795: 0x140D [0x40] SET_BIT_WORK_RANGE(start_bit=5*, end_bit=19*, target=Work_Zone[1], source=100*)
796: 0x1416 [0x01] GOTO 0x1465
797: 0x1419 [0x02] IF !(Work_Zone[0] == 7*) GOTO 0x142D
798: 0x1421 [0x40] SET_BIT_WORK_RANGE(start_bit=5*, end_bit=19*, target=Work_Zone[1], source=50*)
799: 0x142A [0x01] GOTO 0x1465
800: 0x142D [0x02] IF !(Work_Zone[0] == 8*) GOTO 0x1441
801: 0x1435 [0x40] SET_BIT_WORK_RANGE(start_bit=5*, end_bit=19*, target=Work_Zone[1], source=10*)
802: 0x143E [0x01] GOTO 0x1465
803: 0x1441 [0x02] IF !(Work_Zone[0] == 9*) GOTO 0x1455
804: 0x1449 [0x40] SET_BIT_WORK_RANGE(start_bit=5*, end_bit=19*, target=Work_Zone[1], source=5*)
805: 0x1452 [0x01] GOTO 0x1465
806: 0x1455 [0x02] IF !(Work_Zone[0] == 10*) GOTO 0x1465
807: 0x145D [0x03] Work_Zone[1] = 1073741824*
808: 0x1462 [0x01] GOTO 0x1465

SUBROUTINE_1465:
809: 0x1465 [0x02] IF !(Work_Zone[1] == 1073741824*) GOTO 0x1476
810: 0x146D [0x40] SET_BIT_WORK_RANGE(start_bit=0*, end_bit=4*, target=Work_Zone[1], source=21*)
811: 0x1476 [0x01] GOTO 0x1489
812: 0x1479 [0x02] IF !(Work_Zone[0] == 21*) GOTO 0x1489
813: 0x1481 [0x03] Work_Zone[1] = 1073741824*
814: 0x1486 [0x01] GOTO 0x1489

SUBROUTINE_1489:
815: 0x1489 [0x21] END_EVENT
816: 0x148A [0x00] END_REQSTACK()
```
