# 17863423 - DIRECTOR by yaeko

## Common Data

| Field            | Value                           |
|------------------|---------------------------------|
| Zone             | Morimar Basalt Fields (ID: 265) |
| Block Size       | 11280 bytes                     |
| Total Events     | 7                               |
| References Count | 156                             |

## List of Events

| Event ID                 | Entrypoint   |   Size |   Instructions |
|--------------------------|--------------|--------|----------------|
| [65535](#event-65535)    | 0x0000       |      1 |              1 |
| [65535.1](#event-655351) | 0x0001       |     25 |              3 |
| [24](#event-24)          | 0x001A       |   1619 |            202 |
| [26](#event-26)          | 0x066D       |   1290 |            170 |
| [30](#event-30)          | 0x0B77       |   1529 |            188 |
| [31](#event-31)          | 0x1170       |   3001 |            365 |
| [2588](#event-2588)      | 0x1D29       |   3147 |            398 |

## DAT References (imed_data)

|   Index | Hex Value   |   Dec Value |
|---------|-------------|-------------|
|       0 | 0x00C8      |         200 |
|       1 | 0x0000      |           0 |
|       2 | 0x0013      |          19 |
|       3 | 0x0014      |          20 |
|       4 | 0x0294      |         660 |
|       5 | 0x1ECE      |        7886 |
|       6 | 0x001E      |          30 |
|       7 | 0x0005      |           5 |
|       8 | 0x003C      |          60 |
|       9 | 0x1ECF      |        7887 |
|      10 | 0x1ED0      |        7888 |
|      11 | 0x1ED1      |        7889 |
|      12 | 0x0006      |           6 |
|      13 | 0x1ED2      |        7890 |
|      14 | 0x1ED3      |        7891 |
|      15 | 0x044C      |        1100 |
|      16 | 0x1ED4      |        7892 |
|      17 | 0x1ED5      |        7893 |
|      18 | 0x0001      |           1 |
|      19 | 0x1ED7      |        7895 |
|      20 | 0x1ED8      |        7896 |
|      21 | 0x0945      |        2373 |
|      22 | 0x1ED9      |        7897 |
|      23 | 0x1EDA      |        7898 |
|      24 | 0x1EDB      |        7899 |
|      25 | 0x1EDC      |        7900 |
|      26 | 0x07D0      |        2000 |
|      27 | 0x1EDD      |        7901 |
|      28 | 0x1EDE      |        7902 |
|      29 | 0x1EDF      |        7903 |
|      30 | 0x1EE0      |        7904 |
|      31 | 0x005A      |          90 |
|      32 | 0x1ED6      |        7894 |
|      33 | 0x1EF0      |        7920 |
|      34 | 0x0078      |         120 |
|      35 | 0x007F      |         127 |
|      36 | 0x1EF1      |        7921 |
|      37 | 0x1EF2      |        7922 |
|      38 | 0x0028      |          40 |
|      39 | 0x000A      |          10 |
|      40 | 0x0708      |        1800 |
|      41 | 0x1EF3      |        7923 |
|      42 | 0x1EF4      |        7924 |
|      43 | 0x1EF5      |        7925 |
|      44 | 0x1EF6      |        7926 |
|      45 | 0x1EF7      |        7927 |
|      46 | 0x1EF8      |        7928 |
|      47 | 0x1EF9      |        7929 |
|      48 | 0x1EFA      |        7930 |
|      49 | 0x1EFB      |        7931 |
|      50 | 0x06A4      |        1700 |
|      51 | 0x1EFC      |        7932 |
|      52 | 0x1EFD      |        7933 |
|      53 | 0x1EFE      |        7934 |
|      54 | 0x0400      |        1024 |
|      55 | 0x1EFF      |        7935 |
|      56 | 0x006E      |         110 |
|      57 | 0x00C9      |         201 |
|      58 | 0x0002      |           2 |
|      59 | 0x0064      |         100 |
|      60 | 0x0297      |         663 |
|      61 | 0x0050      |          80 |
|      62 | 0x1F0A      |        7946 |
|      63 | 0x1F0B      |        7947 |
|      64 | 0x1F0C      |        7948 |
|      65 | 0x1F0D      |        7949 |
|      66 | 0xFFFFFDA8  |  4294966696 |
|      67 | 0x0946      |        2374 |
|      68 | 0x1F0E      |        7950 |
|      69 | 0x1F0F      |        7951 |
|      70 | 0x0320      |         800 |
|      71 | 0x00A1      |         161 |
|      72 | 0x1F10      |        7952 |
|      73 | 0x1F11      |        7953 |
|      74 | 0x1F12      |        7954 |
|      75 | 0x084F      |        2127 |
|      76 | 0x1F13      |        7955 |
|      77 | 0x03E8      |        1000 |
|      78 | 0x1F14      |        7956 |
|      79 | 0x1F15      |        7957 |
|      80 | 0x0039      |          57 |
|      81 | 0x0082      |         130 |
|      82 | 0x012C      |         300 |
|      83 | 0x0096      |         150 |
|      84 | 0x0008      |           8 |
|      85 | 0x1F16      |        7958 |
|      86 | 0x1F17      |        7959 |
|      87 | 0x0EA9      |        3753 |
|      88 | 0x1F18      |        7960 |
|      89 | 0x1F19      |        7961 |
|      90 | 0x002D      |          45 |
|      91 | 0x4CD22     |      314658 |
|      92 | 0x63170     |      405872 |
|      93 | 0xFFFFFE7C  |  4294966908 |
|      94 | 0x0348      |         840 |
|      95 | 0x1F1A      |        7962 |
|      96 | 0x1F1B      |        7963 |
|      97 | 0x1F1C      |        7964 |
|      98 | 0x1F1D      |        7965 |
|      99 | 0x1F1E      |        7966 |
|     100 | 0x1F1F      |        7967 |
|     101 | 0x1F20      |        7968 |
|     102 | 0x0F45      |        3909 |
|     103 | 0x000F      |          15 |
|     104 | 0x1F21      |        7969 |
|     105 | 0x1F22      |        7970 |
|     106 | 0x1F23      |        7971 |
|     107 | 0x0104      |         260 |
|     108 | 0x1F24      |        7972 |
|     109 | 0x1F25      |        7973 |
|     110 | 0x077A      |        1914 |
|     111 | 0x1F26      |        7974 |
|     112 | 0x1F27      |        7975 |
|     113 | 0x1F28      |        7976 |
|     114 | 0x1F3D      |        7997 |
|     115 | 0x1F3E      |        7998 |
|     116 | 0x0017      |          23 |
|     117 | 0xFFFF36E5  |  4294915813 |
|     118 | 0x29288     |      168584 |
|     119 | 0x0669      |        1641 |
|     120 | 0x0163      |         355 |
|     121 | 0x00A3      |         163 |
|     122 | 0x00A7      |         167 |
|     123 | 0x1F40      |        8000 |
|     124 | 0x1F41      |        8001 |
|     125 | 0x15C0      |        5568 |
|     126 | 0x1F42      |        8002 |
|     127 | 0x0003      |           3 |
|     128 | 0x1F43      |        8003 |
|     129 | 0x1F44      |        8004 |
|     130 | 0x1F45      |        8005 |
|     131 | 0x1F46      |        8006 |
|     132 | 0x00F5      |         245 |
|     133 | 0x1F47      |        8007 |
|     134 | 0x1F48      |        8008 |
|     135 | 0x1F49      |        8009 |
|     136 | 0x1F4A      |        8010 |
|     137 | 0x0046      |          70 |
|     138 | 0x0080      |         128 |
|     139 | 0x1F4B      |        8011 |
|     140 | 0x1F4C      |        8012 |
|     141 | 0x003E      |          62 |
|     142 | 0x1F4D      |        8013 |
|     143 | 0xFFFFFA24  |  4294965796 |
|     144 | 0x1F4E      |        8014 |
|     145 | 0x1F4F      |        8015 |
|     146 | 0x0007      |           7 |
|     147 | 0x0190      |         400 |
|     148 | 0x1F50      |        8016 |
|     149 | 0x1F51      |        8017 |
|     150 | 0x1F52      |        8018 |
|     151 | 0x0015      |          21 |
|     152 | 0x008C      |         140 |
|     153 | 0x1F53      |        8019 |
|     154 | 0x1F54      |        8020 |
|     155 | 0x1F55      |        8021 |

## String References

- **7893**: Ask for Hostenn's aid? [How else will I improve?/A geomancer cabal? Too scary.]
- **7966**: <How long it hath been since one has rung this most divine of instruments...>
- **7967**: <We shall respect thy Communion.>
- **7997**: These must be the hot springs Orsa-Porsa mentioned.
- **7998**: Dive in? [Let's go!/Looks too hot for me...]

## Events

### Event 65535

#### Metadata

| Field        | Value   |
|--------------|---------|
| Entrypoint   | 0x0000  |
| Data Size    | 1 bytes |
| Instructions | 1       |

```
      00 01 02 03 04 05 06 07  08 09 0A 0B 0C 0D 0E 0F
      -- -- -- -- -- -- -- --  -- -- -- -- -- -- -- --
0000: 00                                                .               
```

#### Opcodes

```
  0: 0x0000 [0x00] END_REQSTACK()
```

### Event 65535.1

#### Metadata

| Field        | Value    |
|--------------|----------|
| Entrypoint   | 0x0001   |
| Data Size    | 25 bytes |
| Instructions | 3        |

```
      00 01 02 03 04 05 06 07  08 09 0A 0B 0C 0D 0E 0F
      -- -- -- -- -- -- -- --  -- -- -- -- -- -- -- --
0000:    B4 00 00 00 3F 3F 3F  00 00 00 00 00 00 00 00   ....???........
0010: 00 00 00 00 00 B5 00 00  00 00                    ..........      
```

#### Opcodes

```
  0: 0x0001 [0xB4] UI_WINDOW_STRING_HANDLER(case=0x00 - Copy string from opcode, work_offset=ExtData[1]->WorkLocal[0], string="???")
  1: 0x0015 [0xB5] SET_EVENT_ENTITY_NAME: Change EventEntity name to ExtData[1]->WorkLocal[0]
  2: 0x0019 [0x00] END_REQSTACK()
```

### Event 24

#### Metadata

| Field        | Value      |
|--------------|------------|
| Entrypoint   | 0x001A     |
| Data Size    | 1619 bytes |
| Instructions | 202        |

```
      00 01 02 03 04 05 06 07  08 09 0A 0B 0C 0D 0E 0F
      -- -- -- -- -- -- -- --  -- -- -- -- -- -- -- --
0010:                                42 46 01 45 00 80            BF.E..
0020: F0 FF FF 7F F0 FF FF 7F  66 64 6F 31 01 80 55 00  ........fdo1..U.
0030: 80 F0 FF FF 7F F0 FF FF  7F 66 64 6F 31 38 02 80  .........fdo18..
0040: 29 08 F0 FF FF 7F 0C 29  08 F0 FF FF 7F 0A 80 02  )......)........
0050: 93 10 01 80 03 93 10 01  4A F0 FF FF 7F 03 93 10  ........J.......
0060: 01 4A 03 93 10 01 F0 FF  FF 7F 92 01 03 93 10 01  .J..............
0070: 92 01 02 93 10 01 1C 03  80 79 00 03 93 10 01 F0  .........y......
0080: FF FF 7F 6F 76 F0 FF FF  7F 45 04 80 F0 FF FF 7F  ...ov....E......
0090: F0 FF FF 7F 73 30 36 30  01 80 45 00 80 F0 FF FF  ....s060..E.....
00A0: 7F F0 FF FF 7F 66 64 69  31 01 80 55 00 80 F0 FF  .....fdi1..U....
00B0: FF 7F F0 FF FF 7F 66 64  69 31 2B 03 93 10 01 05  ......fdi1+.....
00C0: 80 23 7B 03 93 10 01 27  08 03 93 10 01 1C 1C 06  .#{....'........
00D0: 80 45 00 80 F0 FF FF 7F  F0 FF FF 7F 66 64 6F 31  .E..........fdo1
00E0: 01 80 55 00 80 F0 FF FF  7F F0 FF FF 7F 66 64 6F  ..U..........fdo
00F0: 31 52 04 80 F0 FF FF 7F  F0 FF FF 7F 73 30 36 30  1R..........s060
0100: 29 08 02 93 10 01 0F 79  00 02 93 10 01 F0 FF FF  )......y........
0110: 7F 2A 08 03 93 10 01 79  00 03 93 10 01 F0 FF FF  .*.....y........
0120: 7F 79 00 F0 FF FF 7F 03  93 10 01 4A F0 FF FF 7F  .y.........J....
0130: 02 93 10 01 27 08 03 93  10 01 1D 27 08 02 93 10  ....'......'....
0140: 01 10 1C 07 80 45 04 80  F0 FF FF 7F F0 FF FF 7F  .....E..........
0150: 73 30 36 31 01 80 45 00  80 F0 FF FF 7F F0 FF FF  s061..E.........
0160: 7F 66 64 69 31 01 80 55  00 80 F0 FF FF 7F F0 FF  .fdi1..U........
0170: FF 7F 66 64 69 31 2A 08  02 93 10 01 2A 08 03 93  ..fdi1*.....*...
0180: 10 01 6F 76 F0 FF FF 7F  1C 08 80 52 04 80 F0 FF  ..ov.......R....
0190: FF 7F F0 FF FF 7F 73 30  36 31 45 04 80 F0 FF FF  ......s061E.....
01A0: 7F F0 FF FF 7F 73 30 36  32 01 80 29 08 02 93 10  .....s062..)....
01B0: 01 02 2B 02 93 10 01 09  80 23 29 08 02 93 10 01  ..+......#).....
01C0: 03 29 08 02 93 10 01 04  2B 02 93 10 01 0A 80 23  .)......+......#
01D0: 29 08 02 93 10 01 05 27  08 02 93 10 01 01 2B 02  )......'......+.
01E0: 93 10 01 0B 80 23 2A 08  02 93 10 01 52 04 80 F0  .....#*.....R...
01F0: FF FF 7F F0 FF FF 7F 73  30 36 32 02 09 10 07 80  .......s062.....
0200: 00 17 02 45 04 80 F0 FF  FF 7F F0 FF FF 7F 73 30  ...E..........s0
0210: 36 39 01 80 01 44 02 02  09 10 0C 80 00 33 02 45  69...D.......3.E
0220: 04 80 F0 FF FF 7F F0 FF  FF 7F 73 30 36 39 01 80  ..........s069..
0230: 01 44 02 45 04 80 F0 FF  FF 7F F0 FF FF 7F 73 30  .D.E..........s0
0240: 36 33 01 80 79 00 03 93  10 01 02 93 10 01 7B 02  63..y.........{.
0250: 93 10 01 27 08 02 93 10  01 11 2B 02 93 10 01 0D  ...'......+.....
0260: 80 23 4A F0 FF FF 7F 02  93 10 01 79 00 02 93 10  .#J........y....
0270: 01 F0 FF FF 7F 2B 02 93  10 01 0E 80 23 2A 08 02  .....+......#*..
0280: 93 10 01 02 09 10 07 80  00 9D 02 52 04 80 F0 FF  ...........R....
0290: FF 7F F0 FF FF 7F 73 30  36 39 01 C6 02 02 09 10  ......s069......
02A0: 0C 80 00 B7 02 52 04 80  F0 FF FF 7F F0 FF FF 7F  .....R..........
02B0: 73 30 36 39 01 C6 02 52  04 80 F0 FF FF 7F F0 FF  s069...R........
02C0: FF 7F 73 30 36 32 02 09  10 07 80 00 E2 02 45 04  ..s062........E.
02D0: 80 F0 FF FF 7F F0 FF FF  7F 73 30 37 30 01 80 01  .........s070...
02E0: 0F 03 02 09 10 0C 80 00  FE 02 45 04 80 F0 FF FF  ..........E.....
02F0: 7F F0 FF FF 7F 73 30 37  30 01 80 01 0F 03 45 04  .....s070.....E.
0300: 80 F0 FF FF 7F F0 FF FF  7F 73 30 36 34 01 80 4E  .........s064..N
0310: 01 03 93 10 01 4B 02 93  10 01 0F 80 2B 02 93 10  .....K......+...
0320: 01 10 80 23 24 11 80 01  80 01 80 25 02 00 10 01  ...#$......%....
0330: 80 00 99 05 03 01 10 12  80 27 08 02 93 10 01 01  .........'......
0340: 2B 02 93 10 01 13 80 23  02 09 10 07 80 00 62 03  +......#......b.
0350: 52 04 80 F0 FF FF 7F F0  FF FF 7F 73 30 37 30 01  R..........s070.
0360: 8B 03 02 09 10 0C 80 00  7C 03 52 04 80 F0 FF FF  ........|.R.....
0370: 7F F0 FF FF 7F 73 30 37  30 01 8B 03 52 04 80 F0  .....s070...R...
0380: FF FF 7F F0 FF FF 7F 73  30 36 34 45 04 80 F0 FF  .......s064E....
0390: FF 7F F0 FF FF 7F 73 30  36 36 01 80 2B 02 93 10  ......s066..+...
03A0: 01 14 80 23 2A 08 02 93  10 01 03 03 10 15 80 2B  ...#*..........+
03B0: 02 93 10 01 16 80 23 2B  02 93 10 01 17 80 23 52  ......#+......#R
03C0: 04 80 F0 FF FF 7F F0 FF  FF 7F 73 30 36 36 45 04  ..........s066E.
03D0: 80 F0 FF FF 7F F0 FF FF  7F 73 30 36 35 01 80 29  .........s065..)
03E0: 08 02 93 10 01 06 2B 02  93 10 01 18 80 23 2B 02  ......+......#+.
03F0: 93 10 01 19 80 23 29 08  02 93 10 01 07 52 04 80  .....#)......R..
0400: F0 FF FF 7F F0 FF FF 7F  73 30 36 35 02 09 10 07  ........s065....
0410: 80 00 28 04 45 04 80 F0  FF FF 7F F0 FF FF 7F 73  ..(.E..........s
0420: 30 37 31 01 80 01 55 04  02 09 10 0C 80 00 44 04  071...U.......D.
0430: 45 04 80 F0 FF FF 7F F0  FF FF 7F 73 30 37 31 01  E..........s071.
0440: 80 01 55 04 45 04 80 F0  FF FF 7F F0 FF FF 7F 73  ..U.E..........s
0450: 30 36 37 01 80 4E 00 03  93 10 01 4B 03 93 10 01  067..N.....K....
0460: 1A 80 29 08 02 93 10 01  08 2B 02 93 10 01 1B 80  ..)......+......
0470: 23 29 08 02 93 10 01 09  29 08 02 93 10 01 02 2B  #)......)......+
0480: 02 93 10 01 1C 80 23 29  08 02 93 10 01 03 02 09  ......#)........
0490: 10 07 80 00 A8 04 52 04  80 F0 FF FF 7F F0 FF FF  ......R.........
04A0: 7F 73 30 37 31 01 D1 04  02 09 10 0C 80 00 C2 04  .s071...........
04B0: 52 04 80 F0 FF FF 7F F0  FF FF 7F 73 30 37 31 01  R..........s071.
04C0: D1 04 52 04 80 F0 FF FF  7F F0 FF FF 7F 73 30 36  ..R..........s06
04D0: 37 02 09 10 07 80 00 ED  04 45 04 80 F0 FF FF 7F  7........E......
04E0: F0 FF FF 7F 73 30 37 30  01 80 01 1A 05 02 09 10  ....s070........
04F0: 0C 80 00 09 05 45 04 80  F0 FF FF 7F F0 FF FF 7F  .....E..........
0500: 73 30 37 30 01 80 01 1A  05 45 04 80 F0 FF FF 7F  s070.....E......
0510: F0 FF FF 7F 73 30 36 34  01 80 2B 02 93 10 01 1D  ....s064..+.....
0520: 80 23 29 08 02 93 10 01  04 2B 02 93 10 01 1E 80  .#)......+......
0530: 23 29 08 02 93 10 01 05  02 09 10 07 80 00 52 05  #)............R.
0540: 52 04 80 F0 FF FF 7F F0  FF FF 7F 73 30 37 30 01  R..........s070.
0550: 7B 05 02 09 10 0C 80 00  6C 05 52 04 80 F0 FF FF  {.......l.R.....
0560: 7F F0 FF FF 7F 73 30 37  30 01 7B 05 52 04 80 F0  .....s070.{.R...
0570: FF FF 7F F0 FF FF 7F 73  30 36 34 45 04 80 F0 FF  .......s064E....
0580: FF 7F F0 FF FF 7F 73 30  36 38 01 80 27 08 02 93  ......s068..'...
0590: 10 01 12 1C 1F 80 01 15  06 02 00 10 12 80 00 15  ................
05A0: 06 03 01 10 01 80 02 09  10 07 80 00 C0 05 52 04  ..............R.
05B0: 80 F0 FF FF 7F F0 FF FF  7F 73 30 37 30 01 E9 05  .........s070...
05C0: 02 09 10 0C 80 00 DA 05  52 04 80 F0 FF FF 7F F0  ........R.......
05D0: FF FF 7F 73 30 37 30 01  E9 05 52 04 80 F0 FF FF  ...s070...R.....
05E0: 7F F0 FF FF 7F 73 30 36  34 45 04 80 F0 FF FF 7F  .....s064E......
05F0: F0 FF FF 7F 73 30 36 38  01 80 4E 00 03 93 10 01  ....s068..N.....
0600: 2B 02 93 10 01 20 80 23  27 08 02 93 10 01 12 1C  +.... .#'.......
0610: 1F 80 01 15 06 45 00 80  F0 FF FF 7F F0 FF FF 7F  .....E..........
0620: 66 64 6F 31 01 80 55 00  80 F0 FF FF 7F F0 FF FF  fdo1..U.........
0630: 7F 66 64 6F 31 52 04 80  F0 FF FF 7F F0 FF FF 7F  .fdo1R..........
0640: 73 30 36 38 2A 08 02 93  10 01 4E 01 02 93 10 01  s068*.....N.....
0650: 2F 01 02 93 10 01 46 00  45 00 80 F0 FF FF 7F F0  /.....F.E.......
0660: FF FF 7F 66 64 69 31 01  80 20 00 21 00           ...fdi1.. .!.   
```

#### Opcodes

```
  0: 0x001A [0x42] SET_CLI_EVENT_CANCEL_DATA()
  1: 0x001B [0x46] CAMERA_CONTROL: Disable user control
  2: 0x001D [0x45] LOAD_SCHEDULED_TASK: Load scheduler "fdo1" with entities [LocalPlayer, LocalPlayer], work=[200*, 0*]
  3: 0x002E [0x55] WAIT_LOAD_SCHEDULER: Wait for scheduler "fdo1" with entities [LocalPlayer, LocalPlayer], work=200*
  4: 0x003D [0x38] SET_CLIENT_EVENT_MODE(mode=19*)
  5: 0x0040 [0x29] REQ_SET_WAIT(priority=0x08, entity_id=LocalPlayer, tag_num=0x0C)
  6: 0x0047 [0x29] REQ_SET_WAIT(priority=0x08, entity_id=LocalPlayer, tag_num=0x0A)
  7: 0x004E [0x80] LOAD_WAIT(entity=Hostenn (ID: 17863426/0x01109302))
  8: 0x0053 [0x80] LOAD_WAIT(entity=Dabnorrin (ID: 17863427/0x01109303))
  9: 0x0058 [0x4A] LocalPlayer looks at Dabnorrin (ID: 17863427/0x01109303)
 10: 0x0061 [0x4A] Dabnorrin (ID: 17863427/0x01109303) looks at LocalPlayer
 11: 0x006A [0x92] Dabnorrin (ID: 17863427/0x01109303)->Render.Flags3 ^= 0x01
 12: 0x0070 [0x92] Hostenn (ID: 17863426/0x01109302)->Render.Flags3 ^= 0x01
 13: 0x0076 [0x1C] WAIT(20* ticks)
 14: 0x0079 [0x79] Dabnorrin (ID: 17863427/0x01109303) looks at LocalPlayer (Basic look)
 15: 0x0083 [0x6F] WAIT_FRAME_DELAY: Yield until WaitTime reaches zero
 16: 0x0084 [0x76] CHECK_ENTITY_RENDER_FLAGS: Wait until LocalPlayer Render.Flags0 and Render.Flags3 conditions are met
 17: 0x0089 [0x45] LOAD_SCHEDULED_TASK: Load scheduler "s060" with entities [LocalPlayer, LocalPlayer], work=[660*, 0*]
 18: 0x009A [0x45] LOAD_SCHEDULED_TASK: Load scheduler "fdi1" with entities [LocalPlayer, LocalPlayer], work=[200*, 0*]
 19: 0x00AB [0x55] WAIT_LOAD_SCHEDULER: Wait for scheduler "fdi1" with entities [LocalPlayer, LocalPlayer], work=200*
 20: 0x00BA [0x2B] Dabnorrin (ID: 17863427/0x01109303) [7886*]:
    → "Can't you see I'm busy studying our next site? What's this? Sylvie's father? Oh right--Hostenn. Sit tight while I go call him."
 21: 0x00C1 [0x23] WAIT_FOR_DIALOG_INTERACTION
 22: 0x00C2 [0x7B] Dabnorrin (ID: 17863427/0x01109303) stops talking
 23: 0x00C7 [0x27] REQ_SET(priority=0x08, entity_id=Dabnorrin (ID: 17863427/0x01109303), tag_num=0x1C)
 24: 0x00CE [0x1C] WAIT(30* ticks)
 25: 0x00D1 [0x45] LOAD_SCHEDULED_TASK: Load scheduler "fdo1" with entities [LocalPlayer, LocalPlayer], work=[200*, 0*]
 26: 0x00E2 [0x55] WAIT_LOAD_SCHEDULER: Wait for scheduler "fdo1" with entities [LocalPlayer, LocalPlayer], work=200*
 27: 0x00F1 [0x52] END_LOAD_SCHEDULER: End scheduler "s060" with entities [LocalPlayer, LocalPlayer], work=660*
 28: 0x0100 [0x29] REQ_SET_WAIT(priority=0x08, entity_id=Hostenn (ID: 17863426/0x01109302), tag_num=0x0F)
 29: 0x0107 [0x79] Hostenn (ID: 17863426/0x01109302) looks at LocalPlayer (Basic look)
 30: 0x0111 [0x2A] GET_REQ_LEVEL(level=8, entity_id=Dabnorrin (ID: 17863427/0x01109303))
 31: 0x0117 [0x79] Dabnorrin (ID: 17863427/0x01109303) looks at LocalPlayer (Basic look)
 32: 0x0121 [0x79] LocalPlayer looks at Dabnorrin (ID: 17863427/0x01109303) (Basic look)
 33: 0x012B [0x4A] LocalPlayer looks at Hostenn (ID: 17863426/0x01109302)
 34: 0x0134 [0x27] REQ_SET(priority=0x08, entity_id=Dabnorrin (ID: 17863427/0x01109303), tag_num=0x1D)
 35: 0x013B [0x27] REQ_SET(priority=0x08, entity_id=Hostenn (ID: 17863426/0x01109302), tag_num=0x10)
 36: 0x0142 [0x1C] WAIT(5* ticks)
 37: 0x0145 [0x45] LOAD_SCHEDULED_TASK: Load scheduler "s061" with entities [LocalPlayer, LocalPlayer], work=[660*, 0*]
 38: 0x0156 [0x45] LOAD_SCHEDULED_TASK: Load scheduler "fdi1" with entities [LocalPlayer, LocalPlayer], work=[200*, 0*]
 39: 0x0167 [0x55] WAIT_LOAD_SCHEDULER: Wait for scheduler "fdi1" with entities [LocalPlayer, LocalPlayer], work=200*
 40: 0x0176 [0x2A] GET_REQ_LEVEL(level=8, entity_id=Hostenn (ID: 17863426/0x01109302))
 41: 0x017C [0x2A] GET_REQ_LEVEL(level=8, entity_id=Dabnorrin (ID: 17863427/0x01109303))
 42: 0x0182 [0x6F] WAIT_FRAME_DELAY: Yield until WaitTime reaches zero
 43: 0x0183 [0x76] CHECK_ENTITY_RENDER_FLAGS: Wait until LocalPlayer Render.Flags0 and Render.Flags3 conditions are met
 44: 0x0188 [0x1C] WAIT(60* ticks)
 45: 0x018B [0x52] END_LOAD_SCHEDULER: End scheduler "s061" with entities [LocalPlayer, LocalPlayer], work=660*
 46: 0x019A [0x45] LOAD_SCHEDULED_TASK: Load scheduler "s062" with entities [LocalPlayer, LocalPlayer], work=[660*, 0*]
 47: 0x01AB [0x29] REQ_SET_WAIT(priority=0x08, entity_id=Hostenn (ID: 17863426/0x01109302), tag_num=0x02)
 48: 0x01B2 [0x2B] Hostenn (ID: 17863426/0x01109302) [7887*]:
    → "Well, well, you must be the [man/woman] Sylvie was telling me about. I'm Hostenn. Pleased to meet ya."
 49: 0x01B9 [0x23] WAIT_FOR_DIALOG_INTERACTION
 50: 0x01BA [0x29] REQ_SET_WAIT(priority=0x08, entity_id=Hostenn (ID: 17863426/0x01109302), tag_num=0x03)
 51: 0x01C1 [0x29] REQ_SET_WAIT(priority=0x08, entity_id=Hostenn (ID: 17863426/0x01109302), tag_num=0x04)
 52: 0x01C8 [0x2B] Hostenn (ID: 17863426/0x01109302) [7888*]:
    → "My daughter can't keep her trap shut. <Player> this, <Player> that, it's driving me nuts! Let's see if you meet these high expectations of mine she's set for you."
 53: 0x01CF [0x23] WAIT_FOR_DIALOG_INTERACTION
 54: 0x01D0 [0x29] REQ_SET_WAIT(priority=0x08, entity_id=Hostenn (ID: 17863426/0x01109302), tag_num=0x05)
 55: 0x01D7 [0x27] REQ_SET(priority=0x08, entity_id=Hostenn (ID: 17863426/0x01109302), tag_num=0x01)
 56: 0x01DE [0x2B] Hostenn (ID: 17863426/0x01109302) [7889*]:
    → "Not that I mind teaching ya how to balance the conflicting responsibilities of geomancers and pioneers--just that it can get a bit hairy."
 57: 0x01E5 [0x23] WAIT_FOR_DIALOG_INTERACTION
 58: 0x01E6 [0x2A] GET_REQ_LEVEL(level=8, entity_id=Hostenn (ID: 17863426/0x01109302))
 59: 0x01EC [0x52] END_LOAD_SCHEDULER: End scheduler "s062" with entities [LocalPlayer, LocalPlayer], work=660*
 60: 0x01FB [0x02] IF !(Work_Zone[9] == 5*) GOTO 0x0217
 61: 0x0203 [0x45] LOAD_SCHEDULED_TASK: Load scheduler "s069" with entities [LocalPlayer, LocalPlayer], work=[660*, 0*]
 62: 0x0214 [0x01] GOTO 0x0244
 63: 0x0217 [0x02] IF !(Work_Zone[9] == 6*) GOTO 0x0233
 64: 0x021F [0x45] LOAD_SCHEDULED_TASK: Load scheduler "s069" with entities [LocalPlayer, LocalPlayer], work=[660*, 0*]
 65: 0x0230 [0x01] GOTO 0x0244
 66: 0x0233 [0x45] LOAD_SCHEDULED_TASK: Load scheduler "s063" with entities [LocalPlayer, LocalPlayer], work=[660*, 0*]

SUBROUTINE_0244:
 67: 0x0244 [0x79] Dabnorrin (ID: 17863427/0x01109303) looks at Hostenn (ID: 17863426/0x01109302) (Basic look)
 68: 0x024E [0x7B] Hostenn (ID: 17863426/0x01109302) stops talking
 69: 0x0253 [0x27] REQ_SET(priority=0x08, entity_id=Hostenn (ID: 17863426/0x01109302), tag_num=0x11)
 70: 0x025A [0x2B] Hostenn (ID: 17863426/0x01109302) [7890*]:
    → "And I don't mean simply the training. The more you learn, the more those Order of Renaye lackeys will shadow you, taking note of your every step."
 71: 0x0261 [0x23] WAIT_FOR_DIALOG_INTERACTION
 72: 0x0262 [0x4A] LocalPlayer looks at Hostenn (ID: 17863426/0x01109302)
 73: 0x026B [0x79] Hostenn (ID: 17863426/0x01109302) looks at LocalPlayer (Basic look)
 74: 0x0275 [0x2B] Hostenn (ID: 17863426/0x01109302) [7891*]:
    → "They may have their reasons for hunting us like dogs even as we sweat our butts off...but let's not get into that just now."
 75: 0x027C [0x23] WAIT_FOR_DIALOG_INTERACTION
 76: 0x027D [0x2A] GET_REQ_LEVEL(level=8, entity_id=Hostenn (ID: 17863426/0x01109302))
 77: 0x0283 [0x02] IF !(Work_Zone[9] == 5*) GOTO 0x029D
 78: 0x028B [0x52] END_LOAD_SCHEDULER: End scheduler "s069" with entities [LocalPlayer, LocalPlayer], work=660*
 79: 0x029A [0x01] GOTO 0x02C6
 80: 0x029D [0x02] IF !(Work_Zone[9] == 6*) GOTO 0x02B7
 81: 0x02A5 [0x52] END_LOAD_SCHEDULER: End scheduler "s069" with entities [LocalPlayer, LocalPlayer], work=660*
 82: 0x02B4 [0x01] GOTO 0x02C6
 83: 0x02B7 [0x52] END_LOAD_SCHEDULER: End scheduler "s062" with entities [LocalPlayer, LocalPlayer], work=660*

SUBROUTINE_02C6:
 84: 0x02C6 [0x02] IF !(Work_Zone[9] == 5*) GOTO 0x02E2
 85: 0x02CE [0x45] LOAD_SCHEDULED_TASK: Load scheduler "s070" with entities [LocalPlayer, LocalPlayer], work=[660*, 0*]
 86: 0x02DF [0x01] GOTO 0x030F
 87: 0x02E2 [0x02] IF !(Work_Zone[9] == 6*) GOTO 0x02FE
 88: 0x02EA [0x45] LOAD_SCHEDULED_TASK: Load scheduler "s070" with entities [LocalPlayer, LocalPlayer], work=[660*, 0*]
 89: 0x02FB [0x01] GOTO 0x030F
 90: 0x02FE [0x45] LOAD_SCHEDULED_TASK: Load scheduler "s064" with entities [LocalPlayer, LocalPlayer], work=[660*, 0*]

SUBROUTINE_030F:
 91: 0x030F [0x4E] SET_ENTITY_HIDE_FLAG: Hide Dabnorrin (ID: 17863427/0x01109303)
 92: 0x0315 [0x4B] UPDATE_ENTITY_YAW(entity=Hostenn (ID: 17863426/0x01109302), yaw=6.0°*)
 93: 0x031C [0x2B] Hostenn (ID: 17863426/0x01109302) [7892*]:
    → "So, knowing all I have told you, are ya still sure ya want my help?"
 94: 0x0323 [0x23] WAIT_FOR_DIALOG_INTERACTION
 95: 0x0324 [0x24] CREATE_DIALOG(message_id=7893*, default_option=0*, option_flags=0*)
    → "Ask for Hostenn's aid? [How else will I improve?/A geomancer cabal? Too scary.]"
 96: 0x032B [0x25] WAIT_DIALOG_SELECT()
 97: 0x032C [0x02] IF !(Work_Zone[0] == 0*) GOTO 0x0599
 98: 0x0334 [0x03] Work_Zone[1] = 1*
 99: 0x0339 [0x27] REQ_SET(priority=0x08, entity_id=Hostenn (ID: 17863426/0x01109302), tag_num=0x01)
100: 0x0340 [0x2B] Hostenn (ID: 17863426/0x01109302) [7895*]:
    → "Good. That attitude may just see ya through this thing in one piece."
101: 0x0347 [0x23] WAIT_FOR_DIALOG_INTERACTION
102: 0x0348 [0x02] IF !(Work_Zone[9] == 5*) GOTO 0x0362
103: 0x0350 [0x52] END_LOAD_SCHEDULER: End scheduler "s070" with entities [LocalPlayer, LocalPlayer], work=660*
104: 0x035F [0x01] GOTO 0x038B
105: 0x0362 [0x02] IF !(Work_Zone[9] == 6*) GOTO 0x037C
106: 0x036A [0x52] END_LOAD_SCHEDULER: End scheduler "s070" with entities [LocalPlayer, LocalPlayer], work=660*
107: 0x0379 [0x01] GOTO 0x038B
108: 0x037C [0x52] END_LOAD_SCHEDULER: End scheduler "s064" with entities [LocalPlayer, LocalPlayer], work=660*

SUBROUTINE_038B:
109: 0x038B [0x45] LOAD_SCHEDULED_TASK: Load scheduler "s066" with entities [LocalPlayer, LocalPlayer], work=[660*, 0*]
110: 0x039C [0x2B] Hostenn (ID: 17863426/0x01109302) [7896*]:
    → "There should be an ergon locus to the northeast of here, at a place where the path ends."
111: 0x03A3 [0x23] WAIT_FOR_DIALOG_INTERACTION
112: 0x03A4 [0x2A] GET_REQ_LEVEL(level=8, entity_id=Hostenn (ID: 17863426/0x01109302))
113: 0x03AA [0x03] Work_Zone[3] = 2373*
114: 0x03AF [0x2B] Hostenn (ID: 17863426/0x01109302) [7897*]:
    → "Place this $3 at a spot just to the south or the west of there. This should lure in an elemental force."
115: 0x03B6 [0x23] WAIT_FOR_DIALOG_INTERACTION
116: 0x03B7 [0x2B] Hostenn (ID: 17863426/0x01109302) [7898*]:
    → "Use all the knowledge and gusto ya have acquired as a geomancer to vanquish the foul beast--all by yourself."
117: 0x03BE [0x23] WAIT_FOR_DIALOG_INTERACTION
118: 0x03BF [0x52] END_LOAD_SCHEDULER: End scheduler "s066" with entities [LocalPlayer, LocalPlayer], work=660*
119: 0x03CE [0x45] LOAD_SCHEDULED_TASK: Load scheduler "s065" with entities [LocalPlayer, LocalPlayer], work=[660*, 0*]
120: 0x03DF [0x29] REQ_SET_WAIT(priority=0x08, entity_id=Hostenn (ID: 17863426/0x01109302), tag_num=0x06)
121: 0x03E6 [0x2B] Hostenn (ID: 17863426/0x01109302) [7899*]:
    → "Only fools say geomancers must protect all aspects of nature. Some things were meant to be put down before they become a threat. A geomancer must learn the difference between the two."
122: 0x03ED [0x23] WAIT_FOR_DIALOG_INTERACTION
123: 0x03EE [0x2B] Hostenn (ID: 17863426/0x01109302) [7900*]:
    → "Let the power of the colures flow through ya. As a geomancer, they are your sword and shield."
124: 0x03F5 [0x23] WAIT_FOR_DIALOG_INTERACTION
125: 0x03F6 [0x29] REQ_SET_WAIT(priority=0x08, entity_id=Hostenn (ID: 17863426/0x01109302), tag_num=0x07)
126: 0x03FD [0x52] END_LOAD_SCHEDULER: End scheduler "s065" with entities [LocalPlayer, LocalPlayer], work=660*
127: 0x040C [0x02] IF !(Work_Zone[9] == 5*) GOTO 0x0428
128: 0x0414 [0x45] LOAD_SCHEDULED_TASK: Load scheduler "s071" with entities [LocalPlayer, LocalPlayer], work=[660*, 0*]
129: 0x0425 [0x01] GOTO 0x0455
130: 0x0428 [0x02] IF !(Work_Zone[9] == 6*) GOTO 0x0444
131: 0x0430 [0x45] LOAD_SCHEDULED_TASK: Load scheduler "s071" with entities [LocalPlayer, LocalPlayer], work=[660*, 0*]
132: 0x0441 [0x01] GOTO 0x0455
133: 0x0444 [0x45] LOAD_SCHEDULED_TASK: Load scheduler "s067" with entities [LocalPlayer, LocalPlayer], work=[660*, 0*]

SUBROUTINE_0455:
134: 0x0455 [0x4E] SET_ENTITY_HIDE_FLAG: Show Dabnorrin (ID: 17863427/0x01109303)
135: 0x045B [0x4B] UPDATE_ENTITY_YAW(entity=Dabnorrin (ID: 17863427/0x01109303), yaw=11.0°*)
136: 0x0462 [0x29] REQ_SET_WAIT(priority=0x08, entity_id=Hostenn (ID: 17863426/0x01109302), tag_num=0x08)
137: 0x0469 [0x2B] Hostenn (ID: 17863426/0x01109302) [7901*]:
    → "The item measures how long ya struggled with the fiend. I will consider your operation to be a success if ya best it within ten minutes (Earth time)."
138: 0x0470 [0x23] WAIT_FOR_DIALOG_INTERACTION
139: 0x0471 [0x29] REQ_SET_WAIT(priority=0x08, entity_id=Hostenn (ID: 17863426/0x01109302), tag_num=0x09)
140: 0x0478 [0x29] REQ_SET_WAIT(priority=0x08, entity_id=Hostenn (ID: 17863426/0x01109302), tag_num=0x02)
141: 0x047F [0x2B] Hostenn (ID: 17863426/0x01109302) [7902*]:
    → "If it takes ya any longer, then ya don't understand the workings of nature and the lifestream as well as Sylvie claims. It's that simple."
142: 0x0486 [0x23] WAIT_FOR_DIALOG_INTERACTION
143: 0x0487 [0x29] REQ_SET_WAIT(priority=0x08, entity_id=Hostenn (ID: 17863426/0x01109302), tag_num=0x03)
144: 0x048E [0x02] IF !(Work_Zone[9] == 5*) GOTO 0x04A8
145: 0x0496 [0x52] END_LOAD_SCHEDULER: End scheduler "s071" with entities [LocalPlayer, LocalPlayer], work=660*
146: 0x04A5 [0x01] GOTO 0x04D1
147: 0x04A8 [0x02] IF !(Work_Zone[9] == 6*) GOTO 0x04C2
148: 0x04B0 [0x52] END_LOAD_SCHEDULER: End scheduler "s071" with entities [LocalPlayer, LocalPlayer], work=660*
149: 0x04BF [0x01] GOTO 0x04D1
150: 0x04C2 [0x52] END_LOAD_SCHEDULER: End scheduler "s067" with entities [LocalPlayer, LocalPlayer], work=660*

SUBROUTINE_04D1:
151: 0x04D1 [0x02] IF !(Work_Zone[9] == 5*) GOTO 0x04ED
152: 0x04D9 [0x45] LOAD_SCHEDULED_TASK: Load scheduler "s070" with entities [LocalPlayer, LocalPlayer], work=[660*, 0*]
153: 0x04EA [0x01] GOTO 0x051A
154: 0x04ED [0x02] IF !(Work_Zone[9] == 6*) GOTO 0x0509
155: 0x04F5 [0x45] LOAD_SCHEDULED_TASK: Load scheduler "s070" with entities [LocalPlayer, LocalPlayer], work=[660*, 0*]
156: 0x0506 [0x01] GOTO 0x051A
157: 0x0509 [0x45] LOAD_SCHEDULED_TASK: Load scheduler "s064" with entities [LocalPlayer, LocalPlayer], work=[660*, 0*]

SUBROUTINE_051A:
158: 0x051A [0x2B] Hostenn (ID: 17863426/0x01109302) [7903*]:
    → "Should ya fall in battle or run out of time, Dabnorrin will give ya another $3."
159: 0x0521 [0x23] WAIT_FOR_DIALOG_INTERACTION
160: 0x0522 [0x29] REQ_SET_WAIT(priority=0x08, entity_id=Hostenn (ID: 17863426/0x01109302), tag_num=0x04)
161: 0x0529 [0x2B] Hostenn (ID: 17863426/0x01109302) [7904*]:
    → "I've blabbed on for far too long. I'll let you get to conserving nature before I bore ya with any further details."
162: 0x0530 [0x23] WAIT_FOR_DIALOG_INTERACTION
163: 0x0531 [0x29] REQ_SET_WAIT(priority=0x08, entity_id=Hostenn (ID: 17863426/0x01109302), tag_num=0x05)
164: 0x0538 [0x02] IF !(Work_Zone[9] == 5*) GOTO 0x0552
165: 0x0540 [0x52] END_LOAD_SCHEDULER: End scheduler "s070" with entities [LocalPlayer, LocalPlayer], work=660*
166: 0x054F [0x01] GOTO 0x057B
167: 0x0552 [0x02] IF !(Work_Zone[9] == 6*) GOTO 0x056C
168: 0x055A [0x52] END_LOAD_SCHEDULER: End scheduler "s070" with entities [LocalPlayer, LocalPlayer], work=660*
169: 0x0569 [0x01] GOTO 0x057B
170: 0x056C [0x52] END_LOAD_SCHEDULER: End scheduler "s064" with entities [LocalPlayer, LocalPlayer], work=660*

SUBROUTINE_057B:
171: 0x057B [0x45] LOAD_SCHEDULED_TASK: Load scheduler "s068" with entities [LocalPlayer, LocalPlayer], work=[660*, 0*]
172: 0x058C [0x27] REQ_SET(priority=0x08, entity_id=Hostenn (ID: 17863426/0x01109302), tag_num=0x12)
173: 0x0593 [0x1C] WAIT(90* ticks)
174: 0x0596 [0x01] GOTO 0x0615
175: 0x0599 [0x02] IF !(Work_Zone[0] == 1*) GOTO 0x0615
176: 0x05A1 [0x03] Work_Zone[1] = 0*
177: 0x05A6 [0x02] IF !(Work_Zone[9] == 5*) GOTO 0x05C0
178: 0x05AE [0x52] END_LOAD_SCHEDULER: End scheduler "s070" with entities [LocalPlayer, LocalPlayer], work=660*
179: 0x05BD [0x01] GOTO 0x05E9
180: 0x05C0 [0x02] IF !(Work_Zone[9] == 6*) GOTO 0x05DA
181: 0x05C8 [0x52] END_LOAD_SCHEDULER: End scheduler "s070" with entities [LocalPlayer, LocalPlayer], work=660*
182: 0x05D7 [0x01] GOTO 0x05E9
183: 0x05DA [0x52] END_LOAD_SCHEDULER: End scheduler "s064" with entities [LocalPlayer, LocalPlayer], work=660*

SUBROUTINE_05E9:
184: 0x05E9 [0x45] LOAD_SCHEDULED_TASK: Load scheduler "s068" with entities [LocalPlayer, LocalPlayer], work=[660*, 0*]
185: 0x05FA [0x4E] SET_ENTITY_HIDE_FLAG: Show Dabnorrin (ID: 17863427/0x01109303)
186: 0x0600 [0x2B] Hostenn (ID: 17863426/0x01109302) [7894*]:
    → "No harm done... And don't worry about Sylvie--I'll let her down easy. Ya know how she can be."
187: 0x0607 [0x23] WAIT_FOR_DIALOG_INTERACTION
188: 0x0608 [0x27] REQ_SET(priority=0x08, entity_id=Hostenn (ID: 17863426/0x01109302), tag_num=0x12)
189: 0x060F [0x1C] WAIT(90* ticks)
190: 0x0612 [0x01] GOTO 0x0615

SUBROUTINE_0615:
191: 0x0615 [0x45] LOAD_SCHEDULED_TASK: Load scheduler "fdo1" with entities [LocalPlayer, LocalPlayer], work=[200*, 0*]
192: 0x0626 [0x55] WAIT_LOAD_SCHEDULER: Wait for scheduler "fdo1" with entities [LocalPlayer, LocalPlayer], work=200*
193: 0x0635 [0x52] END_LOAD_SCHEDULER: End scheduler "s068" with entities [LocalPlayer, LocalPlayer], work=660*
194: 0x0644 [0x2A] GET_REQ_LEVEL(level=8, entity_id=Hostenn (ID: 17863426/0x01109302))
195: 0x064A [0x4E] SET_ENTITY_HIDE_FLAG: Hide Hostenn (ID: 17863426/0x01109302)
196: 0x0650 [0x2F] Hostenn (ID: 17863426/0x01109302)->Render.Flags0 |= 0x80000 // Bit 19
197: 0x0656 [0x46] CAMERA_CONTROL: Restore default settings
198: 0x0658 [0x45] LOAD_SCHEDULED_TASK: Load scheduler "fdi1" with entities [LocalPlayer, LocalPlayer], work=[200*, 0*]
199: 0x0669 [0x20] SET_CLI_EVENT_UC_FLAG: Unlock player control
200: 0x066B [0x21] END_EVENT
201: 0x066C [0x00] END_REQSTACK()
```

### Event 26

#### Metadata

| Field        | Value      |
|--------------|------------|
| Entrypoint   | 0x066D     |
| Data Size    | 1290 bytes |
| Instructions | 170        |

```
      00 01 02 03 04 05 06 07  08 09 0A 0B 0C 0D 0E 0F
      -- -- -- -- -- -- -- --  -- -- -- -- -- -- -- --
0660:                                         42 46 01               BF.
0670: 45 00 80 F0 FF FF 7F F0  FF FF 7F 66 64 6F 31 01  E..........fdo1.
0680: 80 55 00 80 F0 FF FF 7F  F0 FF FF 7F 66 64 6F 31  .U..........fdo1
0690: 38 02 80 5D 01 80 00 80  29 08 F0 FF FF 7F 0D 29  8..]....)......)
06A0: 08 00 93 10 01 65 29 08  02 93 10 01 14 80 00 93  .....e).........
06B0: 10 01 80 02 93 10 01 92  01 00 93 10 01 92 01 02  ................
06C0: 93 10 01 29 08 F0 FF FF  7F 0A 27 08 00 93 10 01  ...)......'.....
06D0: 66 45 04 80 F0 FF FF 7F  F0 FF FF 7F 73 30 37 32  fE..........s072
06E0: 01 80 45 00 80 F0 FF FF  7F F0 FF FF 7F 66 64 69  ..E..........fdi
06F0: 31 01 80 55 00 80 F0 FF  FF 7F F0 FF FF 7F 66 64  1..U..........fd
0700: 69 31 27 08 F0 FF FF 7F  0E 1C 06 80 2B 00 93 10  i1'.........+...
0710: 01 21 80 23 5C 00 22 80  5C 01 22 80 9A 5D 23 80  .!.#\.".\."..]#.
0720: 12 80 23 52 04 80 F0 FF  FF 7F F0 FF FF 7F 73 30  ..#R..........s0
0730: 37 32 45 04 80 F0 FF FF  7F F0 FF FF 7F 73 30 38  72E..........s08
0740: 30 01 80 2A 08 00 93 10  01 29 08 00 93 10 01 01  0..*.....)......
0750: 2B 00 93 10 01 24 80 23  29 08 00 93 10 01 02 29  +....$.#)......)
0760: 08 00 93 10 01 03 2A 08  F0 FF FF 7F 27 08 02 93  ......*.....'...
0770: 10 01 15 79 00 02 93 10  01 00 93 10 01 1C 07 80  ...y............
0780: 52 04 80 F0 FF FF 7F F0  FF FF 7F 73 30 38 30 02  R..........s080.
0790: 09 10 07 80 00 AB 07 45  04 80 F0 FF FF 7F F0 FF  .......E........
07A0: FF 7F 73 30 39 30 01 80  01 D8 07 02 09 10 0C 80  ..s090..........
07B0: 00 C7 07 45 04 80 F0 FF  FF 7F F0 FF FF 7F 73 30  ...E..........s0
07C0: 39 30 01 80 01 D8 07 45  04 80 F0 FF FF 7F F0 FF  90.....E........
07D0: FF 7F 73 30 38 31 01 80  2B 02 93 10 01 25 80 1C  ..s081..+....%..
07E0: 26 80 4A F0 FF FF 7F 02  93 10 01 1C 27 80 79 00  &.J.........'.y.
07F0: 00 93 10 01 02 93 10 01  4B 00 93 10 01 28 80 6F  ........K....(.o
0800: 76 00 93 10 01 23 29 08  00 93 10 01 2C 4A 02 93  v....#).....,J..
0810: 10 01 F0 FF FF 7F 2B 02  93 10 01 29 80 23 6F 76  ......+....).#ov
0820: 02 93 10 01 29 08 00 93  10 01 2D 2A 08 02 93 10  ....).....-*....
0830: 01 02 09 10 07 80 00 4B  08 52 04 80 F0 FF FF 7F  .......K.R......
0840: F0 FF FF 7F 73 30 39 30  01 74 08 02 09 10 0C 80  ....s090.t......
0850: 00 65 08 52 04 80 F0 FF  FF 7F F0 FF FF 7F 73 30  .e.R..........s0
0860: 39 30 01 74 08 52 04 80  F0 FF FF 7F F0 FF FF 7F  90.t.R..........
0870: 73 30 38 31 45 04 80 F0  FF FF 7F F0 FF FF 7F 73  s081E..........s
0880: 30 38 32 01 80 29 08 00  93 10 01 2E 29 08 02 93  082..)......)...
0890: 10 01 06 2B 02 93 10 01  2A 80 23 2B 02 93 10 01  ...+....*.#+....
08A0: 2B 80 23 29 08 02 93 10  01 07 29 08 00 93 10 01  +.#)......).....
08B0: 2F 52 04 80 F0 FF FF 7F  F0 FF FF 7F 73 30 38 32  /R..........s082
08C0: 45 04 80 F0 FF FF 7F F0  FF FF 7F 73 30 38 33 01  E..........s083.
08D0: 80 4A 00 93 10 01 F0 FF  FF 7F 29 08 02 93 10 01  .J........).....
08E0: 08 2B 02 93 10 01 2C 80  23 29 08 02 93 10 01 09  .+....,.#)......
08F0: 2B 02 93 10 01 2D 80 23  2B 02 93 10 01 2E 80 23  +....-.#+......#
0900: 52 04 80 F0 FF FF 7F F0  FF FF 7F 73 30 38 33 45  R..........s083E
0910: 04 80 F0 FF FF 7F F0 FF  FF 7F 73 30 38 34 01 80  ..........s084..
0920: 2B 02 93 10 01 2F 80 23  52 04 80 F0 FF FF 7F F0  +..../.#R.......
0930: FF FF 7F 73 30 38 34 02  09 10 07 80 00 53 09 45  ...s084......S.E
0940: 04 80 F0 FF FF 7F F0 FF  FF 7F 73 30 39 31 01 80  ..........s091..
0950: 01 80 09 02 09 10 0C 80  00 6F 09 45 04 80 F0 FF  .........o.E....
0960: FF 7F F0 FF FF 7F 73 30  39 31 01 80 01 80 09 45  ......s091.....E
0970: 04 80 F0 FF FF 7F F0 FF  FF 7F 73 30 38 35 01 80  ..........s085..
0980: 2B 02 93 10 01 30 80 23  4B 02 93 10 01 01 80 02  +....0.#K.......
0990: 09 10 07 80 00 A9 09 52  04 80 F0 FF FF 7F F0 FF  .......R........
09A0: FF 7F 73 30 39 31 01 D2  09 02 09 10 0C 80 00 C3  ..s091..........
09B0: 09 52 04 80 F0 FF FF 7F  F0 FF FF 7F 73 30 39 31  .R..........s091
09C0: 01 D2 09 52 04 80 F0 FF  FF 7F F0 FF FF 7F 73 30  ...R..........s0
09D0: 38 35 6F 76 02 93 10 01  45 04 80 F0 FF FF 7F F0  85ov....E.......
09E0: FF FF 7F 73 30 38 36 01  80 29 08 00 93 10 01 2C  ...s086..).....,
09F0: 2B 00 93 10 01 31 80 1C  06 80 79 00 02 93 10 01  +....1....y.....
0A00: 00 93 10 01 23 29 08 00  93 10 01 2D 29 08 00 93  ....#).....-)...
0A10: 10 01 2E 29 08 00 93 10  01 2F 4B 00 93 10 01 32  ...)...../K....2
0A20: 80 79 00 00 93 10 01 02  93 10 01 2B 00 93 10 01  .y.........+....
0A30: 33 80 23 52 04 80 F0 FF  FF 7F F0 FF FF 7F 73 30  3.#R..........s0
0A40: 38 36 45 04 80 F0 FF FF  7F F0 FF FF 7F 73 30 38  86E..........s08
0A50: 38 01 80 27 08 02 93 10  01 0A 2B 02 93 10 01 34  8..'......+....4
0A60: 80 23 2A 08 02 93 10 01  52 04 80 F0 FF FF 7F F0  .#*.....R.......
0A70: FF FF 7F 73 30 38 38 45  04 80 F0 FF FF 7F F0 FF  ...s088E........
0A80: FF 7F 73 30 38 37 01 80  27 08 02 93 10 01 16 2B  ..s087..'......+
0A90: 02 93 10 01 35 80 23 79  00 00 93 10 01 F0 FF FF  ....5.#y........
0AA0: 7F 2A 08 02 93 10 01 27  08 02 93 10 01 17 4B 00  .*.....'......K.
0AB0: 93 10 01 36 80 6F 76 00  93 10 01 79 00 F0 FF FF  ...6.ov....y....
0AC0: 7F 00 93 10 01 27 08 00  93 10 01 3F 2B 00 93 10  .....'.....?+...
0AD0: 01 37 80 23 2A 08 00 93  10 01 52 04 80 F0 FF FF  .7.#*.....R.....
0AE0: 7F F0 FF FF 7F 73 30 38  37 45 04 80 F0 FF FF 7F  .....s087E......
0AF0: F0 FF FF 7F 73 30 38 39  01 80 4E 01 02 93 10 01  ....s089..N.....
0B00: 5D 01 80 00 80 27 08 00  93 10 01 67 1C 38 80 45  ]....'.....g.8.E
0B10: 00 80 F0 FF FF 7F F0 FF  FF 7F 66 64 6F 31 01 80  ..........fdo1..
0B20: 55 00 80 F0 FF FF 7F F0  FF FF 7F 66 64 6F 31 45  U..........fdo1E
0B30: 39 80 F8 FF FF 7F F8 FF  FF 7F 71 73 74 63 01 80  9.........qstc..
0B40: 52 04 80 F0 FF FF 7F F0  FF FF 7F 73 30 38 39 5C  R..........s089\
0B50: 00 08 80 5C 01 08 80 9A  5D 23 80 12 80 1C 3A 80  ...\....]#....:.
0B60: 46 00 45 00 80 F0 FF FF  7F F0 FF FF 7F 66 64 69  F.E..........fdi
0B70: 31 01 80 20 00 21 00                              1.. .!.         
```

#### Opcodes

```
  0: 0x066D [0x42] SET_CLI_EVENT_CANCEL_DATA()
  1: 0x066E [0x46] CAMERA_CONTROL: Disable user control
  2: 0x0670 [0x45] LOAD_SCHEDULED_TASK: Load scheduler "fdo1" with entities [LocalPlayer, LocalPlayer], work=[200*, 0*]
  3: 0x0681 [0x55] WAIT_LOAD_SCHEDULER: Wait for scheduler "fdo1" with entities [LocalPlayer, LocalPlayer], work=200*
  4: 0x0690 [0x38] SET_CLIENT_EVENT_MODE(mode=19*)
  5: 0x0693 [0x5D] SET_MUSIC_VOLUME(volume=0*, fade_time=200*)
  6: 0x0698 [0x29] REQ_SET_WAIT(priority=0x08, entity_id=LocalPlayer, tag_num=0x0D)
  7: 0x069F [0x29] REQ_SET_WAIT(priority=0x08, entity_id=Sylvie (ID: 17863424/0x01109300), tag_num=0x65)
  8: 0x06A6 [0x29] REQ_SET_WAIT(priority=0x08, entity_id=Hostenn (ID: 17863426/0x01109302), tag_num=0x14)
  9: 0x06AD [0x80] LOAD_WAIT(entity=Sylvie (ID: 17863424/0x01109300))
 10: 0x06B2 [0x80] LOAD_WAIT(entity=Hostenn (ID: 17863426/0x01109302))
 11: 0x06B7 [0x92] Sylvie (ID: 17863424/0x01109300)->Render.Flags3 ^= 0x01
 12: 0x06BD [0x92] Hostenn (ID: 17863426/0x01109302)->Render.Flags3 ^= 0x01
 13: 0x06C3 [0x29] REQ_SET_WAIT(priority=0x08, entity_id=LocalPlayer, tag_num=0x0A)
 14: 0x06CA [0x27] REQ_SET(priority=0x08, entity_id=Sylvie (ID: 17863424/0x01109300), tag_num=0x66)
 15: 0x06D1 [0x45] LOAD_SCHEDULED_TASK: Load scheduler "s072" with entities [LocalPlayer, LocalPlayer], work=[660*, 0*]
 16: 0x06E2 [0x45] LOAD_SCHEDULED_TASK: Load scheduler "fdi1" with entities [LocalPlayer, LocalPlayer], work=[200*, 0*]
 17: 0x06F3 [0x55] WAIT_LOAD_SCHEDULER: Wait for scheduler "fdi1" with entities [LocalPlayer, LocalPlayer], work=200*
 18: 0x0702 [0x27] REQ_SET(priority=0x08, entity_id=LocalPlayer, tag_num=0x0E)
 19: 0x0709 [0x1C] WAIT(30* ticks)
 20: 0x070C [0x2B] Sylvie (ID: 17863424/0x01109300) [7920*]:
    → "<Player>! You did it! You really, really did it! Excelloquacious!"
 21: 0x0713 [0x23] WAIT_FOR_DIALOG_INTERACTION
 22: 0x0714 [0x5C] MUSIC_CONTROL: Set Idle (Day) music to song 120*
 23: 0x0718 [0x5C] MUSIC_CONTROL: Set Idle (Night) music to song 120*
 24: 0x071C [0x9A] WAIT_MUSIC_SERVER()
 25: 0x071D [0x5D] SET_MUSIC_VOLUME(volume=127*, fade_time=1*)
 26: 0x0722 [0x23] WAIT_FOR_DIALOG_INTERACTION
 27: 0x0723 [0x52] END_LOAD_SCHEDULER: End scheduler "s072" with entities [LocalPlayer, LocalPlayer], work=660*
 28: 0x0732 [0x45] LOAD_SCHEDULED_TASK: Load scheduler "s080" with entities [LocalPlayer, LocalPlayer], work=[660*, 0*]
 29: 0x0743 [0x2A] GET_REQ_LEVEL(level=8, entity_id=Sylvie (ID: 17863424/0x01109300))
 30: 0x0749 [0x29] REQ_SET_WAIT(priority=0x08, entity_id=Sylvie (ID: 17863424/0x01109300), tag_num=0x01)
 31: 0x0750 [0x2B] Sylvie (ID: 17863424/0x01109300) [7921*]:
    → "But, Daddy, come on--ten minutes? Really? You were so tough on [him/her] that I felt my heart being ripped from my chest!"
 32: 0x0757 [0x23] WAIT_FOR_DIALOG_INTERACTION
 33: 0x0758 [0x29] REQ_SET_WAIT(priority=0x08, entity_id=Sylvie (ID: 17863424/0x01109300), tag_num=0x02)
 34: 0x075F [0x29] REQ_SET_WAIT(priority=0x08, entity_id=Sylvie (ID: 17863424/0x01109300), tag_num=0x03)
 35: 0x0766 [0x2A] GET_REQ_LEVEL(level=8, entity_id=LocalPlayer)
 36: 0x076C [0x27] REQ_SET(priority=0x08, entity_id=Hostenn (ID: 17863426/0x01109302), tag_num=0x15)
 37: 0x0773 [0x79] Hostenn (ID: 17863426/0x01109302) looks at Sylvie (ID: 17863424/0x01109300) (Basic look)
 38: 0x077D [0x1C] WAIT(5* ticks)
 39: 0x0780 [0x52] END_LOAD_SCHEDULER: End scheduler "s080" with entities [LocalPlayer, LocalPlayer], work=660*
 40: 0x078F [0x02] IF !(Work_Zone[9] == 5*) GOTO 0x07AB
 41: 0x0797 [0x45] LOAD_SCHEDULED_TASK: Load scheduler "s090" with entities [LocalPlayer, LocalPlayer], work=[660*, 0*]
 42: 0x07A8 [0x01] GOTO 0x07D8
 43: 0x07AB [0x02] IF !(Work_Zone[9] == 6*) GOTO 0x07C7
 44: 0x07B3 [0x45] LOAD_SCHEDULED_TASK: Load scheduler "s090" with entities [LocalPlayer, LocalPlayer], work=[660*, 0*]
 45: 0x07C4 [0x01] GOTO 0x07D8
 46: 0x07C7 [0x45] LOAD_SCHEDULED_TASK: Load scheduler "s081" with entities [LocalPlayer, LocalPlayer], work=[660*, 0*]

SUBROUTINE_07D8:
 47: 0x07D8 [0x2B] Hostenn (ID: 17863426/0x01109302) [7922*]:
    → "Sylvie, when ya told me how much potential this one had, I needed to devise something difficult so I could see the truth for myself."
 48: 0x07DF [0x1C] WAIT(40* ticks)
 49: 0x07E2 [0x4A] LocalPlayer looks at Hostenn (ID: 17863426/0x01109302)
 50: 0x07EB [0x1C] WAIT(10* ticks)
 51: 0x07EE [0x79] Sylvie (ID: 17863424/0x01109300) looks at Hostenn (ID: 17863426/0x01109302) (Basic look)
 52: 0x07F8 [0x4B] UPDATE_ENTITY_YAW(entity=Sylvie (ID: 17863424/0x01109300), yaw=9.9°*)
 53: 0x07FF [0x6F] WAIT_FRAME_DELAY: Yield until WaitTime reaches zero
 54: 0x0800 [0x76] CHECK_ENTITY_RENDER_FLAGS: Wait until Sylvie (ID: 17863424/0x01109300) Render.Flags0 and Render.Flags3 conditions are met
 55: 0x0805 [0x23] WAIT_FOR_DIALOG_INTERACTION
 56: 0x0806 [0x29] REQ_SET_WAIT(priority=0x08, entity_id=Sylvie (ID: 17863424/0x01109300), tag_num=0x2C)
 57: 0x080D [0x4A] Hostenn (ID: 17863426/0x01109302) looks at LocalPlayer
 58: 0x0816 [0x2B] Hostenn (ID: 17863426/0x01109302) [7923*]:
    → "Hmph. Outstanding work out there, <Player>. I didn't think ya'd have it in ya."
 59: 0x081D [0x23] WAIT_FOR_DIALOG_INTERACTION
 60: 0x081E [0x6F] WAIT_FRAME_DELAY: Yield until WaitTime reaches zero
 61: 0x081F [0x76] CHECK_ENTITY_RENDER_FLAGS: Wait until Hostenn (ID: 17863426/0x01109302) Render.Flags0 and Render.Flags3 conditions are met
 62: 0x0824 [0x29] REQ_SET_WAIT(priority=0x08, entity_id=Sylvie (ID: 17863424/0x01109300), tag_num=0x2D)
 63: 0x082B [0x2A] GET_REQ_LEVEL(level=8, entity_id=Hostenn (ID: 17863426/0x01109302))
 64: 0x0831 [0x02] IF !(Work_Zone[9] == 5*) GOTO 0x084B
 65: 0x0839 [0x52] END_LOAD_SCHEDULER: End scheduler "s090" with entities [LocalPlayer, LocalPlayer], work=660*
 66: 0x0848 [0x01] GOTO 0x0874
 67: 0x084B [0x02] IF !(Work_Zone[9] == 6*) GOTO 0x0865
 68: 0x0853 [0x52] END_LOAD_SCHEDULER: End scheduler "s090" with entities [LocalPlayer, LocalPlayer], work=660*
 69: 0x0862 [0x01] GOTO 0x0874
 70: 0x0865 [0x52] END_LOAD_SCHEDULER: End scheduler "s081" with entities [LocalPlayer, LocalPlayer], work=660*

SUBROUTINE_0874:
 71: 0x0874 [0x45] LOAD_SCHEDULED_TASK: Load scheduler "s082" with entities [LocalPlayer, LocalPlayer], work=[660*, 0*]
 72: 0x0885 [0x29] REQ_SET_WAIT(priority=0x08, entity_id=Sylvie (ID: 17863424/0x01109300), tag_num=0x2E)
 73: 0x088C [0x29] REQ_SET_WAIT(priority=0x08, entity_id=Hostenn (ID: 17863426/0x01109302), tag_num=0x06)
 74: 0x0893 [0x2B] Hostenn (ID: 17863426/0x01109302) [7924*]:
    → "Did ya feel the ebb and flow of nature's power in the heat of battle?"
 75: 0x089A [0x23] WAIT_FOR_DIALOG_INTERACTION
 76: 0x089B [0x2B] Hostenn (ID: 17863426/0x01109302) [7925*]:
    → "Humanity is but one aspect of nature who can help speed up this flow--but in the grand scheme of its designs, we're barely a footnote."
 77: 0x08A2 [0x23] WAIT_FOR_DIALOG_INTERACTION
 78: 0x08A3 [0x29] REQ_SET_WAIT(priority=0x08, entity_id=Hostenn (ID: 17863426/0x01109302), tag_num=0x07)
 79: 0x08AA [0x29] REQ_SET_WAIT(priority=0x08, entity_id=Sylvie (ID: 17863424/0x01109300), tag_num=0x2F)
 80: 0x08B1 [0x52] END_LOAD_SCHEDULER: End scheduler "s082" with entities [LocalPlayer, LocalPlayer], work=660*
 81: 0x08C0 [0x45] LOAD_SCHEDULED_TASK: Load scheduler "s083" with entities [LocalPlayer, LocalPlayer], work=[660*, 0*]
 82: 0x08D1 [0x4A] Sylvie (ID: 17863424/0x01109300) looks at LocalPlayer
 83: 0x08DA [0x29] REQ_SET_WAIT(priority=0x08, entity_id=Hostenn (ID: 17863426/0x01109302), tag_num=0x08)
 84: 0x08E1 [0x2B] Hostenn (ID: 17863426/0x01109302) [7926*]:
    → "I don't need to lecture ya about the scale and scope of nature's bounties and perils."
 85: 0x08E8 [0x23] WAIT_FOR_DIALOG_INTERACTION
 86: 0x08E9 [0x29] REQ_SET_WAIT(priority=0x08, entity_id=Hostenn (ID: 17863426/0x01109302), tag_num=0x09)
 87: 0x08F0 [0x2B] Hostenn (ID: 17863426/0x01109302) [7927*]:
    → "And further, we are a far cry from the likes of Sih Renaye. Understanding even the tiniest part of nature would take us countless years of study."
 88: 0x08F7 [0x23] WAIT_FOR_DIALOG_INTERACTION
 89: 0x08F8 [0x2B] Hostenn (ID: 17863426/0x01109302) [7928*]:
    → "That's why we start with the familiar--things we can learn swiftly but surely--as the first steps on our lifelong journey of discovery."
 90: 0x08FF [0x23] WAIT_FOR_DIALOG_INTERACTION
 91: 0x0900 [0x52] END_LOAD_SCHEDULER: End scheduler "s083" with entities [LocalPlayer, LocalPlayer], work=660*
 92: 0x090F [0x45] LOAD_SCHEDULED_TASK: Load scheduler "s084" with entities [LocalPlayer, LocalPlayer], work=[660*, 0*]
 93: 0x0920 [0x2B] Hostenn (ID: 17863426/0x01109302) [7929*]:
    → "Imagine, spending the time we have left on Vana'diel learning even the slightest bit about its mysteries..."
 94: 0x0927 [0x23] WAIT_FOR_DIALOG_INTERACTION
 95: 0x0928 [0x52] END_LOAD_SCHEDULER: End scheduler "s084" with entities [LocalPlayer, LocalPlayer], work=660*
 96: 0x0937 [0x02] IF !(Work_Zone[9] == 5*) GOTO 0x0953
 97: 0x093F [0x45] LOAD_SCHEDULED_TASK: Load scheduler "s091" with entities [LocalPlayer, LocalPlayer], work=[660*, 0*]
 98: 0x0950 [0x01] GOTO 0x0980
 99: 0x0953 [0x02] IF !(Work_Zone[9] == 6*) GOTO 0x096F
100: 0x095B [0x45] LOAD_SCHEDULED_TASK: Load scheduler "s091" with entities [LocalPlayer, LocalPlayer], work=[660*, 0*]
101: 0x096C [0x01] GOTO 0x0980
102: 0x096F [0x45] LOAD_SCHEDULED_TASK: Load scheduler "s085" with entities [LocalPlayer, LocalPlayer], work=[660*, 0*]

SUBROUTINE_0980:
103: 0x0980 [0x2B] Hostenn (ID: 17863426/0x01109302) [7930*]:
    → "...and when our time comes, we return to the soil, becoming part of the mystery ourselves."
104: 0x0987 [0x23] WAIT_FOR_DIALOG_INTERACTION
105: 0x0988 [0x4B] UPDATE_ENTITY_YAW(entity=Hostenn (ID: 17863426/0x01109302), yaw=0.0°*)
106: 0x098F [0x02] IF !(Work_Zone[9] == 5*) GOTO 0x09A9
107: 0x0997 [0x52] END_LOAD_SCHEDULER: End scheduler "s091" with entities [LocalPlayer, LocalPlayer], work=660*
108: 0x09A6 [0x01] GOTO 0x09D2
109: 0x09A9 [0x02] IF !(Work_Zone[9] == 6*) GOTO 0x09C3
110: 0x09B1 [0x52] END_LOAD_SCHEDULER: End scheduler "s091" with entities [LocalPlayer, LocalPlayer], work=660*
111: 0x09C0 [0x01] GOTO 0x09D2
112: 0x09C3 [0x52] END_LOAD_SCHEDULER: End scheduler "s085" with entities [LocalPlayer, LocalPlayer], work=660*

SUBROUTINE_09D2:
113: 0x09D2 [0x6F] WAIT_FRAME_DELAY: Yield until WaitTime reaches zero
114: 0x09D3 [0x76] CHECK_ENTITY_RENDER_FLAGS: Wait until Hostenn (ID: 17863426/0x01109302) Render.Flags0 and Render.Flags3 conditions are met
115: 0x09D8 [0x45] LOAD_SCHEDULED_TASK: Load scheduler "s086" with entities [LocalPlayer, LocalPlayer], work=[660*, 0*]
116: 0x09E9 [0x29] REQ_SET_WAIT(priority=0x08, entity_id=Sylvie (ID: 17863424/0x01109300), tag_num=0x2C)
117: 0x09F0 [0x2B] Sylvie (ID: 17863424/0x01109300) [7931*]:
    → ""Though colonization may bring some harm to the land, it maintains the balance between man and nature when respectfully done.""
118: 0x09F7 [0x1C] WAIT(30* ticks)
119: 0x09FA [0x79] Hostenn (ID: 17863426/0x01109302) looks at Sylvie (ID: 17863424/0x01109300) (Basic look)
120: 0x0A04 [0x23] WAIT_FOR_DIALOG_INTERACTION
121: 0x0A05 [0x29] REQ_SET_WAIT(priority=0x08, entity_id=Sylvie (ID: 17863424/0x01109300), tag_num=0x2D)
122: 0x0A0C [0x29] REQ_SET_WAIT(priority=0x08, entity_id=Sylvie (ID: 17863424/0x01109300), tag_num=0x2E)
123: 0x0A13 [0x29] REQ_SET_WAIT(priority=0x08, entity_id=Sylvie (ID: 17863424/0x01109300), tag_num=0x2F)
124: 0x0A1A [0x4B] UPDATE_ENTITY_YAW(entity=Sylvie (ID: 17863424/0x01109300), yaw=9.3°*)
125: 0x0A21 [0x79] Sylvie (ID: 17863424/0x01109300) looks at Hostenn (ID: 17863426/0x01109302) (Basic look)
126: 0x0A2B [0x2B] Sylvie (ID: 17863424/0x01109300) [7932*]:
    → "Isn't that what you always told me, Daddy?"
127: 0x0A32 [0x23] WAIT_FOR_DIALOG_INTERACTION
128: 0x0A33 [0x52] END_LOAD_SCHEDULER: End scheduler "s086" with entities [LocalPlayer, LocalPlayer], work=660*
129: 0x0A42 [0x45] LOAD_SCHEDULED_TASK: Load scheduler "s088" with entities [LocalPlayer, LocalPlayer], work=[660*, 0*]
130: 0x0A53 [0x27] REQ_SET(priority=0x08, entity_id=Hostenn (ID: 17863426/0x01109302), tag_num=0x0A)
131: 0x0A5A [0x2B] Hostenn (ID: 17863426/0x01109302) [7933*]:
    → "Sylvie, my sweet...how surprisingly lucid of ya. Maybe there's a bit of hope for ya yet."
132: 0x0A61 [0x23] WAIT_FOR_DIALOG_INTERACTION
133: 0x0A62 [0x2A] GET_REQ_LEVEL(level=8, entity_id=Hostenn (ID: 17863426/0x01109302))
134: 0x0A68 [0x52] END_LOAD_SCHEDULER: End scheduler "s088" with entities [LocalPlayer, LocalPlayer], work=660*
135: 0x0A77 [0x45] LOAD_SCHEDULED_TASK: Load scheduler "s087" with entities [LocalPlayer, LocalPlayer], work=[660*, 0*]
136: 0x0A88 [0x27] REQ_SET(priority=0x08, entity_id=Hostenn (ID: 17863426/0x01109302), tag_num=0x16)
137: 0x0A8F [0x2B] Hostenn (ID: 17863426/0x01109302) [7934*]:
    → "Well, <Player>, consider your training to be complete. Now it's time for me to get back to it."
138: 0x0A96 [0x23] WAIT_FOR_DIALOG_INTERACTION
139: 0x0A97 [0x79] Sylvie (ID: 17863424/0x01109300) looks at LocalPlayer (Basic look)
140: 0x0AA1 [0x2A] GET_REQ_LEVEL(level=8, entity_id=Hostenn (ID: 17863426/0x01109302))
141: 0x0AA7 [0x27] REQ_SET(priority=0x08, entity_id=Hostenn (ID: 17863426/0x01109302), tag_num=0x17)
142: 0x0AAE [0x4B] UPDATE_ENTITY_YAW(entity=Sylvie (ID: 17863424/0x01109300), yaw=5.6°*)
143: 0x0AB5 [0x6F] WAIT_FRAME_DELAY: Yield until WaitTime reaches zero
144: 0x0AB6 [0x76] CHECK_ENTITY_RENDER_FLAGS: Wait until Sylvie (ID: 17863424/0x01109300) Render.Flags0 and Render.Flags3 conditions are met
145: 0x0ABB [0x79] LocalPlayer looks at Sylvie (ID: 17863424/0x01109300) (Basic look)
146: 0x0AC5 [0x27] REQ_SET(priority=0x08, entity_id=Sylvie (ID: 17863424/0x01109300), tag_num=0x3F)
147: 0x0ACC [0x2B] Sylvie (ID: 17863424/0x01109300) [7935*]:
    → "You know, <Player>, if you ever want to learn more from my father, you just have to come tell me!"
148: 0x0AD3 [0x23] WAIT_FOR_DIALOG_INTERACTION
149: 0x0AD4 [0x2A] GET_REQ_LEVEL(level=8, entity_id=Sylvie (ID: 17863424/0x01109300))
150: 0x0ADA [0x52] END_LOAD_SCHEDULER: End scheduler "s087" with entities [LocalPlayer, LocalPlayer], work=660*
151: 0x0AE9 [0x45] LOAD_SCHEDULED_TASK: Load scheduler "s089" with entities [LocalPlayer, LocalPlayer], work=[660*, 0*]
152: 0x0AFA [0x4E] SET_ENTITY_HIDE_FLAG: Hide Hostenn (ID: 17863426/0x01109302)
153: 0x0B00 [0x5D] SET_MUSIC_VOLUME(volume=0*, fade_time=200*)
154: 0x0B05 [0x27] REQ_SET(priority=0x08, entity_id=Sylvie (ID: 17863424/0x01109300), tag_num=0x67)
155: 0x0B0C [0x1C] WAIT(110* ticks)
156: 0x0B0F [0x45] LOAD_SCHEDULED_TASK: Load scheduler "fdo1" with entities [LocalPlayer, LocalPlayer], work=[200*, 0*]
157: 0x0B20 [0x55] WAIT_LOAD_SCHEDULER: Wait for scheduler "fdo1" with entities [LocalPlayer, LocalPlayer], work=200*
158: 0x0B2F [0x45] LOAD_SCHEDULED_TASK: Load scheduler "qstc" with entities [EventEntity, EventEntity], work=[201*, 0*]
159: 0x0B40 [0x52] END_LOAD_SCHEDULER: End scheduler "s089" with entities [LocalPlayer, LocalPlayer], work=660*
160: 0x0B4F [0x5C] MUSIC_CONTROL: Set Idle (Day) music to song 60*
161: 0x0B53 [0x5C] MUSIC_CONTROL: Set Idle (Night) music to song 60*
162: 0x0B57 [0x9A] WAIT_MUSIC_SERVER()
163: 0x0B58 [0x5D] SET_MUSIC_VOLUME(volume=127*, fade_time=1*)
164: 0x0B5D [0x1C] WAIT(2* ticks)
165: 0x0B60 [0x46] CAMERA_CONTROL: Restore default settings
166: 0x0B62 [0x45] LOAD_SCHEDULED_TASK: Load scheduler "fdi1" with entities [LocalPlayer, LocalPlayer], work=[200*, 0*]
167: 0x0B73 [0x20] SET_CLI_EVENT_UC_FLAG: Unlock player control
168: 0x0B75 [0x21] END_EVENT
169: 0x0B76 [0x00] END_REQSTACK()
```

### Event 30

#### Metadata

| Field        | Value      |
|--------------|------------|
| Entrypoint   | 0x0B77     |
| Data Size    | 1529 bytes |
| Instructions | 188        |

```
      00 01 02 03 04 05 06 07  08 09 0A 0B 0C 0D 0E 0F
      -- -- -- -- -- -- -- --  -- -- -- -- -- -- -- --
0B70:                      42  46 01 45 00 80 F0 FF FF         BF.E.....
0B80: 7F F0 FF FF 7F 66 64 6F  31 01 80 55 00 80 F0 FF  .....fdo1..U....
0B90: FF 7F F0 FF FF 7F 66 64  6F 31 38 02 80 5D 01 80  ......fdo18..]..
0BA0: 3B 80 29 08 F0 FF FF 7F  0F 29 08 00 93 10 01 69  ;.)......).....i
0BB0: 29 08 02 93 10 01 19 29  08 08 93 10 01 02 80 00  )......)........
0BC0: 93 10 01 80 02 93 10 01  4E 01 02 93 10 01 92 01  ........N.......
0BD0: 02 93 10 01 92 01 00 93  10 01 29 08 F0 FF FF 7F  ..........).....
0BE0: 0A 4A F0 FF FF 7F 08 93  10 01 6F 76 F0 FF FF 7F  .J........ov....
0BF0: 29 08 F0 FF FF 7F 11 45  3C 80 F0 FF FF 7F F0 FF  )......E<.......
0C00: FF 7F 73 30 39 32 01 80  45 00 80 F0 FF FF 7F F0  ..s092..E.......
0C10: FF FF 7F 66 64 69 31 01  80 55 00 80 F0 FF FF 7F  ...fdi1..U......
0C20: F0 FF FF 7F 66 64 69 31  1C 3D 80 2B 00 93 10 01  ....fdi1.=.+....
0C30: 3E 80 1C 06 80 27 08 00  93 10 01 6A 79 00 F0 FF  >....'.....jy...
0C40: FF 7F 00 93 10 01 27 08  F0 FF FF 7F 12 1C 06 80  ......'.........
0C50: 52 3C 80 F0 FF FF 7F F0  FF FF 7F 73 30 39 32 45  R<.........s092E
0C60: 3C 80 F0 FF FF 7F F0 FF  FF 7F 73 30 39 33 01 80  <.........s093..
0C70: 2A 08 F0 FF FF 7F 4A F0  FF FF 7F 00 93 10 01 2A  *.....J........*
0C80: 08 00 93 10 01 52 3C 80  F0 FF FF 7F F0 FF FF 7F  .....R<.........
0C90: 73 30 39 33 45 3C 80 F0  FF FF 7F F0 FF FF 7F 73  s093E<.........s
0CA0: 33 32 33 01 80 23 1C 03  80 27 08 00 93 10 01 05  323..#...'......
0CB0: 2B 00 93 10 01 3F 80 23  79 00 00 93 10 01 08 93  +....?.#y.......
0CC0: 10 01 2A 08 00 93 10 01  79 00 F0 FF FF 7F 08 93  ..*.....y.......
0CD0: 10 01 4A 00 93 10 01 08  93 10 01 6F 76 00 93 10  ..J........ov...
0CE0: 01 29 08 00 93 10 01 28  52 3C 80 F0 FF FF 7F F0  .).....(R<......
0CF0: FF FF 7F 73 33 32 33 45  3C 80 F0 FF FF 7F F0 FF  ...s323E<.......
0D00: FF 7F 73 30 39 34 01 80  2B 00 93 10 01 40 80 23  ..s094..+....@.#
0D10: 2B 00 93 10 01 41 80 23  29 08 00 93 10 01 29 52  +....A.#).....)R
0D20: 3C 80 F0 FF FF 7F F0 FF  FF 7F 73 30 39 34 02 09  <.........s094..
0D30: 10 07 80 00 4A 0D 45 3C  80 F0 FF FF 7F F0 FF FF  ....J.E<........
0D40: 7F 73 31 30 36 01 80 01  77 0D 02 09 10 0C 80 00  .s106...w.......
0D50: 66 0D 45 3C 80 F0 FF FF  7F F0 FF FF 7F 73 31 30  f.E<.........s10
0D60: 36 01 80 01 77 0D 45 3C  80 F0 FF FF 7F F0 FF FF  6...w.E<........
0D70: 7F 73 30 39 35 01 80 79  00 F0 FF FF 7F 00 93 10  .s095..y........
0D80: 01 29 08 00 93 10 01 2A  29 08 00 93 10 01 2B 79  .).....*).....+y
0D90: 00 00 93 10 01 F0 FF FF  7F 4B 00 93 10 01 42 80  .........K....B.
0DA0: 6F 76 00 93 10 01 29 08  00 93 10 01 16 03 03 10  ov....).........
0DB0: 43 80 2B 00 93 10 01 44  80 23 29 08 00 93 10 01  C.+....D.#).....
0DC0: 17 02 09 10 07 80 00 DB  0D 52 3C 80 F0 FF FF 7F  .........R<.....
0DD0: F0 FF FF 7F 73 31 30 36  01 04 0E 02 09 10 0C 80  ....s106........
0DE0: 00 F5 0D 52 3C 80 F0 FF  FF 7F F0 FF FF 7F 73 31  ...R<.........s1
0DF0: 30 36 01 04 0E 52 3C 80  F0 FF FF 7F F0 FF FF 7F  06...R<.........
0E00: 73 30 39 35 27 08 00 93  10 01 6D 45 3C 80 F0 FF  s095'.....mE<...
0E10: FF 7F F0 FF FF 7F 73 30  39 39 01 80 2B 00 93 10  ......s099..+...
0E20: 01 45 80 1C 06 80 23 2A  08 00 93 10 01 27 08 00  .E....#*.....'..
0E30: 93 10 01 6B 1C 27 80 52  3C 80 F0 FF FF 7F F0 FF  ...k.'.R<.......
0E40: FF 7F 73 30 39 39 45 3C  80 F0 FF FF 7F F0 FF FF  ..s099E<........
0E50: 7F 73 31 30 33 01 80 1C  06 80 4B F0 FF FF 7F 46  .s103.....K....F
0E60: 80 45 00 80 F0 FF FF 7F  F0 FF FF 7F 66 64 6F 31  .E..........fdo1
0E70: 01 80 55 00 80 F0 FF FF  7F F0 FF FF 7F 66 64 6F  ..U..........fdo
0E80: 31 52 3C 80 F0 FF FF 7F  F0 FF FF 7F 73 31 30 33  1R<.........s103
0E90: 29 08 02 93 10 01 0C 4E  00 02 93 10 01 29 08 00  )......N.....)..
0EA0: 93 10 01 6C 29 08 00 93  10 01 34 29 08 00 93 10  ...l).....4)....
0EB0: 01 35 29 08 F0 FF FF 7F  10 29 08 05 93 10 01 09  .5)......)......
0EC0: 79 00 F0 FF FF 7F 02 93  10 01 79 00 00 93 10 01  y.........y.....
0ED0: 02 93 10 01 5C 00 47 80  5C 01 47 80 9A 5D 23 80  ....\.G.\.G..]#.
0EE0: 12 80 45 3C 80 F0 FF FF  7F F0 FF FF 7F 73 30 39  ..E<.........s09
0EF0: 36 01 80 45 00 80 F0 FF  FF 7F F0 FF FF 7F 66 64  6..E..........fd
0F00: 69 31 01 80 55 00 80 F0  FF FF 7F F0 FF FF 7F 66  i1..U..........f
0F10: 64 69 31 1C 06 80 2B 00  93 10 01 48 80 1C 08 80  di1...+....H....
0F20: 52 3C 80 F0 FF FF 7F F0  FF FF 7F 73 30 39 36 45  R<.........s096E
0F30: 3C 80 F0 FF FF 7F F0 FF  FF 7F 73 31 30 32 01 80  <.........s102..
0F40: 1C 1F 80 23 52 3C 80 F0  FF FF 7F F0 FF FF 7F 73  ...#R<.........s
0F50: 31 30 32 45 3C 80 F0 FF  FF 7F F0 FF FF 7F 73 31  102E<.........s1
0F60: 30 30 01 80 2B 02 93 10  01 49 80 23 2B 00 93 10  00..+....I.#+...
0F70: 01 4A 80 23 52 3C 80 F0  FF FF 7F F0 FF FF 7F 73  .J.#R<.........s
0F80: 31 30 30 02 09 10 07 80  00 9F 0F 45 3C 80 F0 FF  100........E<...
0F90: FF 7F F0 FF FF 7F 73 31  30 35 01 80 01 CC 0F 02  ......s105......
0FA0: 09 10 0C 80 00 BB 0F 45  3C 80 F0 FF FF 7F F0 FF  .......E<.......
0FB0: FF 7F 73 31 30 35 01 80  01 CC 0F 45 3C 80 F0 FF  ..s105.....E<...
0FC0: FF 7F F0 FF FF 7F 73 30  39 37 01 80 1C 27 80 4B  ......s097...'.K
0FD0: F0 FF FF 7F 4B 80 6F 76  F0 FF FF 7F 1C 08 80 27  ....K.ov.......'
0FE0: 08 05 93 10 01 0A 02 09  10 07 80 00 00 10 52 3C  ..............R<
0FF0: 80 F0 FF FF 7F F0 FF FF  7F 73 31 30 35 01 29 10  .........s105.).
1000: 02 09 10 0C 80 00 1A 10  52 3C 80 F0 FF FF 7F F0  ........R<......
1010: FF FF 7F 73 31 30 35 01  29 10 52 3C 80 F0 FF FF  ...s105.).R<....
1020: 7F F0 FF FF 7F 73 30 39  37 45 3C 80 F0 FF FF 7F  .....s097E<.....
1030: F0 FF FF 7F 73 33 33 36  01 80 1C 1F 80 52 3C 80  ....s336.....R<.
1040: F0 FF FF 7F F0 FF FF 7F  73 33 33 36 45 3C 80 F0  ........s336E<..
1050: FF FF 7F F0 FF FF 7F 73  31 30 31 01 80 1C 1F 80  .......s101.....
1060: 52 3C 80 F0 FF FF 7F F0  FF FF 7F 73 31 30 31 45  R<.........s101E
1070: 3C 80 F0 FF FF 7F F0 FF  FF 7F 73 30 39 38 01 80  <.........s098..
1080: 29 08 F0 FF FF 7F 13 29  08 00 93 10 01 36 2B 00  )......).....6+.
1090: 93 10 01 4C 80 23 29 08  00 93 10 01 37 4B F0 FF  ...L.#).....7K..
10A0: FF 7F 4D 80 79 00 F0 FF  FF 7F 00 93 10 01 1C 06  ..M.y...........
10B0: 80 52 3C 80 F0 FF FF 7F  F0 FF FF 7F 73 30 39 38  .R<.........s098
10C0: 45 3C 80 F0 FF FF 7F F0  FF FF 7F 73 33 32 34 01  E<.........s324.
10D0: 80 03 03 10 43 80 2B 00  93 10 01 4E 80 23 52 3C  ....C.+....N.#R<
10E0: 80 F0 FF FF 7F F0 FF FF  7F 73 33 32 34 45 3C 80  .........s324E<.
10F0: F0 FF FF 7F F0 FF FF 7F  73 31 30 34 01 80 2B 00  ........s104..+.
1100: 93 10 01 4F 80 23 5D 01  80 00 80 45 00 80 F0 FF  ...O.#]....E....
1110: FF 7F F0 FF FF 7F 66 64  6F 31 01 80 55 00 80 F0  ......fdo1..U...
1120: FF FF 7F F0 FF FF 7F 66  64 6F 31 52 3C 80 F0 FF  .......fdo1R<...
1130: FF 7F F0 FF FF 7F 73 31  30 34 29 08 08 93 10 01  ......s104).....
1140: 03 29 08 02 93 10 01 1A  5C 00 08 80 5C 01 08 80  .)......\...\...
1150: 9A 5D 23 80 12 80 1C 3A  80 46 00 45 00 80 F0 FF  .]#....:.F.E....
1160: FF 7F F0 FF FF 7F 66 64  69 31 01 80 20 00 21 00  ......fdi1.. .!.
```

#### Opcodes

```
  0: 0x0B77 [0x42] SET_CLI_EVENT_CANCEL_DATA()
  1: 0x0B78 [0x46] CAMERA_CONTROL: Disable user control
  2: 0x0B7A [0x45] LOAD_SCHEDULED_TASK: Load scheduler "fdo1" with entities [LocalPlayer, LocalPlayer], work=[200*, 0*]
  3: 0x0B8B [0x55] WAIT_LOAD_SCHEDULER: Wait for scheduler "fdo1" with entities [LocalPlayer, LocalPlayer], work=200*
  4: 0x0B9A [0x38] SET_CLIENT_EVENT_MODE(mode=19*)
  5: 0x0B9D [0x5D] SET_MUSIC_VOLUME(volume=0*, fade_time=100*)
  6: 0x0BA2 [0x29] REQ_SET_WAIT(priority=0x08, entity_id=LocalPlayer, tag_num=0x0F)
  7: 0x0BA9 [0x29] REQ_SET_WAIT(priority=0x08, entity_id=Sylvie (ID: 17863424/0x01109300), tag_num=0x69)
  8: 0x0BB0 [0x29] REQ_SET_WAIT(priority=0x08, entity_id=Hostenn (ID: 17863426/0x01109302), tag_num=0x19)
  9: 0x0BB7 [0x29] REQ_SET_WAIT(priority=0x08, entity_id=Ergon Locus ??? (ID: 17863432/0x01109308), tag_num=0x02)
 10: 0x0BBE [0x80] LOAD_WAIT(entity=Sylvie (ID: 17863424/0x01109300))
 11: 0x0BC3 [0x80] LOAD_WAIT(entity=Hostenn (ID: 17863426/0x01109302))
 12: 0x0BC8 [0x4E] SET_ENTITY_HIDE_FLAG: Hide Hostenn (ID: 17863426/0x01109302)
 13: 0x0BCE [0x92] Hostenn (ID: 17863426/0x01109302)->Render.Flags3 ^= 0x01
 14: 0x0BD4 [0x92] Sylvie (ID: 17863424/0x01109300)->Render.Flags3 ^= 0x01
 15: 0x0BDA [0x29] REQ_SET_WAIT(priority=0x08, entity_id=LocalPlayer, tag_num=0x0A)
 16: 0x0BE1 [0x4A] LocalPlayer looks at Ergon Locus ??? (ID: 17863432/0x01109308)
 17: 0x0BEA [0x6F] WAIT_FRAME_DELAY: Yield until WaitTime reaches zero
 18: 0x0BEB [0x76] CHECK_ENTITY_RENDER_FLAGS: Wait until LocalPlayer Render.Flags0 and Render.Flags3 conditions are met
 19: 0x0BF0 [0x29] REQ_SET_WAIT(priority=0x08, entity_id=LocalPlayer, tag_num=0x11)
 20: 0x0BF7 [0x45] LOAD_SCHEDULED_TASK: Load scheduler "s092" with entities [LocalPlayer, LocalPlayer], work=[663*, 0*]
 21: 0x0C08 [0x45] LOAD_SCHEDULED_TASK: Load scheduler "fdi1" with entities [LocalPlayer, LocalPlayer], work=[200*, 0*]
 22: 0x0C19 [0x55] WAIT_LOAD_SCHEDULER: Wait for scheduler "fdi1" with entities [LocalPlayer, LocalPlayer], work=200*
 23: 0x0C28 [0x1C] WAIT(80* ticks)
 24: 0x0C2B [0x2B] Sylvie (ID: 17863424/0x01109300) [7946*]:
    → "<Player>! It's you!"
 25: 0x0C32 [0x1C] WAIT(30* ticks)
 26: 0x0C35 [0x27] REQ_SET(priority=0x08, entity_id=Sylvie (ID: 17863424/0x01109300), tag_num=0x6A)
 27: 0x0C3C [0x79] LocalPlayer looks at Sylvie (ID: 17863424/0x01109300) (Basic look)
 28: 0x0C46 [0x27] REQ_SET(priority=0x08, entity_id=LocalPlayer, tag_num=0x12)
 29: 0x0C4D [0x1C] WAIT(30* ticks)
 30: 0x0C50 [0x52] END_LOAD_SCHEDULER: End scheduler "s092" with entities [LocalPlayer, LocalPlayer], work=663*
 31: 0x0C5F [0x45] LOAD_SCHEDULED_TASK: Load scheduler "s093" with entities [LocalPlayer, LocalPlayer], work=[663*, 0*]
 32: 0x0C70 [0x2A] GET_REQ_LEVEL(level=8, entity_id=LocalPlayer)
 33: 0x0C76 [0x4A] LocalPlayer looks at Sylvie (ID: 17863424/0x01109300)
 34: 0x0C7F [0x2A] GET_REQ_LEVEL(level=8, entity_id=Sylvie (ID: 17863424/0x01109300))
 35: 0x0C85 [0x52] END_LOAD_SCHEDULER: End scheduler "s093" with entities [LocalPlayer, LocalPlayer], work=663*
 36: 0x0C94 [0x45] LOAD_SCHEDULED_TASK: Load scheduler "s323" with entities [LocalPlayer, LocalPlayer], work=[663*, 0*]
 37: 0x0CA5 [0x23] WAIT_FOR_DIALOG_INTERACTION
 38: 0x0CA6 [0x1C] WAIT(20* ticks)
 39: 0x0CA9 [0x27] REQ_SET(priority=0x08, entity_id=Sylvie (ID: 17863424/0x01109300), tag_num=0x05)
 40: 0x0CB0 [0x2B] Sylvie (ID: 17863424/0x01109300) [7947*]:
    → "I heard the unbelievatastic story of the ergon locus...and this must be the spot, right?"
 41: 0x0CB7 [0x23] WAIT_FOR_DIALOG_INTERACTION
 42: 0x0CB8 [0x79] Sylvie (ID: 17863424/0x01109300) looks at Ergon Locus ??? (ID: 17863432/0x01109308) (Basic look)
 43: 0x0CC2 [0x2A] GET_REQ_LEVEL(level=8, entity_id=Sylvie (ID: 17863424/0x01109300))
 44: 0x0CC8 [0x79] LocalPlayer looks at Ergon Locus ??? (ID: 17863432/0x01109308) (Basic look)
 45: 0x0CD2 [0x4A] Sylvie (ID: 17863424/0x01109300) looks at Ergon Locus ??? (ID: 17863432/0x01109308)
 46: 0x0CDB [0x6F] WAIT_FRAME_DELAY: Yield until WaitTime reaches zero
 47: 0x0CDC [0x76] CHECK_ENTITY_RENDER_FLAGS: Wait until Sylvie (ID: 17863424/0x01109300) Render.Flags0 and Render.Flags3 conditions are met
 48: 0x0CE1 [0x29] REQ_SET_WAIT(priority=0x08, entity_id=Sylvie (ID: 17863424/0x01109300), tag_num=0x28)
 49: 0x0CE8 [0x52] END_LOAD_SCHEDULER: End scheduler "s323" with entities [LocalPlayer, LocalPlayer], work=663*
 50: 0x0CF7 [0x45] LOAD_SCHEDULED_TASK: Load scheduler "s094" with entities [LocalPlayer, LocalPlayer], work=[663*, 0*]
 51: 0x0D08 [0x2B] Sylvie (ID: 17863424/0x01109300) [7948*]:
    → "Hmm...the lifestream here seems out of whack. No wonder the monsters are going crazy."
 52: 0x0D0F [0x23] WAIT_FOR_DIALOG_INTERACTION
 53: 0x0D10 [0x2B] Sylvie (ID: 17863424/0x01109300) [7949*]:
    → "The rescue teams would have a much easier time if we could find some way to calm the waters."
 54: 0x0D17 [0x23] WAIT_FOR_DIALOG_INTERACTION
 55: 0x0D18 [0x29] REQ_SET_WAIT(priority=0x08, entity_id=Sylvie (ID: 17863424/0x01109300), tag_num=0x29)
 56: 0x0D1F [0x52] END_LOAD_SCHEDULER: End scheduler "s094" with entities [LocalPlayer, LocalPlayer], work=663*
 57: 0x0D2E [0x02] IF !(Work_Zone[9] == 5*) GOTO 0x0D4A
 58: 0x0D36 [0x45] LOAD_SCHEDULED_TASK: Load scheduler "s106" with entities [LocalPlayer, LocalPlayer], work=[663*, 0*]
 59: 0x0D47 [0x01] GOTO 0x0D77
 60: 0x0D4A [0x02] IF !(Work_Zone[9] == 6*) GOTO 0x0D66
 61: 0x0D52 [0x45] LOAD_SCHEDULED_TASK: Load scheduler "s106" with entities [LocalPlayer, LocalPlayer], work=[663*, 0*]
 62: 0x0D63 [0x01] GOTO 0x0D77
 63: 0x0D66 [0x45] LOAD_SCHEDULED_TASK: Load scheduler "s095" with entities [LocalPlayer, LocalPlayer], work=[663*, 0*]

SUBROUTINE_0D77:
 64: 0x0D77 [0x79] LocalPlayer looks at Sylvie (ID: 17863424/0x01109300) (Basic look)
 65: 0x0D81 [0x29] REQ_SET_WAIT(priority=0x08, entity_id=Sylvie (ID: 17863424/0x01109300), tag_num=0x2A)
 66: 0x0D88 [0x29] REQ_SET_WAIT(priority=0x08, entity_id=Sylvie (ID: 17863424/0x01109300), tag_num=0x2B)
 67: 0x0D8F [0x79] Sylvie (ID: 17863424/0x01109300) looks at LocalPlayer (Basic look)
 68: 0x0D99 [0x4B] UPDATE_ENTITY_YAW(entity=Sylvie (ID: 17863424/0x01109300), yaw=356.7°*)
 69: 0x0DA0 [0x6F] WAIT_FRAME_DELAY: Yield until WaitTime reaches zero
 70: 0x0DA1 [0x76] CHECK_ENTITY_RENDER_FLAGS: Wait until Sylvie (ID: 17863424/0x01109300) Render.Flags0 and Render.Flags3 conditions are met
 71: 0x0DA6 [0x29] REQ_SET_WAIT(priority=0x08, entity_id=Sylvie (ID: 17863424/0x01109300), tag_num=0x16)
 72: 0x0DAD [0x03] Work_Zone[3] = 2374*
 73: 0x0DB2 [0x2B] Sylvie (ID: 17863424/0x01109300) [7950*]:
    → "That's why I brought this $3 with me. Maybe it could..."
 74: 0x0DB9 [0x23] WAIT_FOR_DIALOG_INTERACTION
 75: 0x0DBA [0x29] REQ_SET_WAIT(priority=0x08, entity_id=Sylvie (ID: 17863424/0x01109300), tag_num=0x17)
 76: 0x0DC1 [0x02] IF !(Work_Zone[9] == 5*) GOTO 0x0DDB
 77: 0x0DC9 [0x52] END_LOAD_SCHEDULER: End scheduler "s106" with entities [LocalPlayer, LocalPlayer], work=663*
 78: 0x0DD8 [0x01] GOTO 0x0E04
 79: 0x0DDB [0x02] IF !(Work_Zone[9] == 6*) GOTO 0x0DF5
 80: 0x0DE3 [0x52] END_LOAD_SCHEDULER: End scheduler "s106" with entities [LocalPlayer, LocalPlayer], work=663*
 81: 0x0DF2 [0x01] GOTO 0x0E04
 82: 0x0DF5 [0x52] END_LOAD_SCHEDULER: End scheduler "s095" with entities [LocalPlayer, LocalPlayer], work=663*

SUBROUTINE_0E04:
 83: 0x0E04 [0x27] REQ_SET(priority=0x08, entity_id=Sylvie (ID: 17863424/0x01109300), tag_num=0x6D)
 84: 0x0E0B [0x45] LOAD_SCHEDULED_TASK: Load scheduler "s099" with entities [LocalPlayer, LocalPlayer], work=[663*, 0*]
 85: 0x0E1C [0x2B] Sylvie (ID: 17863424/0x01109300) [7951*]:
    → "Wait--something's wrong. Is that...? Daddy!? Daddy!!!"
 86: 0x0E23 [0x1C] WAIT(30* ticks)
 87: 0x0E26 [0x23] WAIT_FOR_DIALOG_INTERACTION
 88: 0x0E27 [0x2A] GET_REQ_LEVEL(level=8, entity_id=Sylvie (ID: 17863424/0x01109300))
 89: 0x0E2D [0x27] REQ_SET(priority=0x08, entity_id=Sylvie (ID: 17863424/0x01109300), tag_num=0x6B)
 90: 0x0E34 [0x1C] WAIT(10* ticks)
 91: 0x0E37 [0x52] END_LOAD_SCHEDULER: End scheduler "s099" with entities [LocalPlayer, LocalPlayer], work=663*
 92: 0x0E46 [0x45] LOAD_SCHEDULED_TASK: Load scheduler "s103" with entities [LocalPlayer, LocalPlayer], work=[663*, 0*]
 93: 0x0E57 [0x1C] WAIT(30* ticks)
 94: 0x0E5A [0x4B] UPDATE_ENTITY_YAW(entity=LocalPlayer, yaw=4.4°*)
 95: 0x0E61 [0x45] LOAD_SCHEDULED_TASK: Load scheduler "fdo1" with entities [LocalPlayer, LocalPlayer], work=[200*, 0*]
 96: 0x0E72 [0x55] WAIT_LOAD_SCHEDULER: Wait for scheduler "fdo1" with entities [LocalPlayer, LocalPlayer], work=200*
 97: 0x0E81 [0x52] END_LOAD_SCHEDULER: End scheduler "s103" with entities [LocalPlayer, LocalPlayer], work=663*
 98: 0x0E90 [0x29] REQ_SET_WAIT(priority=0x08, entity_id=Hostenn (ID: 17863426/0x01109302), tag_num=0x0C)
 99: 0x0E97 [0x4E] SET_ENTITY_HIDE_FLAG: Show Hostenn (ID: 17863426/0x01109302)
100: 0x0E9D [0x29] REQ_SET_WAIT(priority=0x08, entity_id=Sylvie (ID: 17863424/0x01109300), tag_num=0x6C)
101: 0x0EA4 [0x29] REQ_SET_WAIT(priority=0x08, entity_id=Sylvie (ID: 17863424/0x01109300), tag_num=0x34)
102: 0x0EAB [0x29] REQ_SET_WAIT(priority=0x08, entity_id=Sylvie (ID: 17863424/0x01109300), tag_num=0x35)
103: 0x0EB2 [0x29] REQ_SET_WAIT(priority=0x08, entity_id=LocalPlayer, tag_num=0x10)
104: 0x0EB9 [0x29] REQ_SET_WAIT(priority=0x08, entity_id=Monster2 (ID: 17863429/0x01109305), tag_num=0x09)
105: 0x0EC0 [0x79] LocalPlayer looks at Hostenn (ID: 17863426/0x01109302) (Basic look)
106: 0x0ECA [0x79] Sylvie (ID: 17863424/0x01109300) looks at Hostenn (ID: 17863426/0x01109302) (Basic look)
107: 0x0ED4 [0x5C] MUSIC_CONTROL: Set Idle (Day) music to song 161*
108: 0x0ED8 [0x5C] MUSIC_CONTROL: Set Idle (Night) music to song 161*
109: 0x0EDC [0x9A] WAIT_MUSIC_SERVER()
110: 0x0EDD [0x5D] SET_MUSIC_VOLUME(volume=127*, fade_time=1*)
111: 0x0EE2 [0x45] LOAD_SCHEDULED_TASK: Load scheduler "s096" with entities [LocalPlayer, LocalPlayer], work=[663*, 0*]
112: 0x0EF3 [0x45] LOAD_SCHEDULED_TASK: Load scheduler "fdi1" with entities [LocalPlayer, LocalPlayer], work=[200*, 0*]
113: 0x0F04 [0x55] WAIT_LOAD_SCHEDULER: Wait for scheduler "fdi1" with entities [LocalPlayer, LocalPlayer], work=200*
114: 0x0F13 [0x1C] WAIT(30* ticks)
115: 0x0F16 [0x2B] Sylvie (ID: 17863424/0x01109300) [7952*]:
    → "Daddy! Daddy, wake up!"
116: 0x0F1D [0x1C] WAIT(60* ticks)
117: 0x0F20 [0x52] END_LOAD_SCHEDULER: End scheduler "s096" with entities [LocalPlayer, LocalPlayer], work=663*
118: 0x0F2F [0x45] LOAD_SCHEDULED_TASK: Load scheduler "s102" with entities [LocalPlayer, LocalPlayer], work=[663*, 0*]
119: 0x0F40 [0x1C] WAIT(90* ticks)
120: 0x0F43 [0x23] WAIT_FOR_DIALOG_INTERACTION
121: 0x0F44 [0x52] END_LOAD_SCHEDULER: End scheduler "s102" with entities [LocalPlayer, LocalPlayer], work=663*
122: 0x0F53 [0x45] LOAD_SCHEDULED_TASK: Load scheduler "s100" with entities [LocalPlayer, LocalPlayer], work=[663*, 0*]
123: 0x0F64 [0x2B] Hostenn (ID: 17863426/0x01109302) [7953*]:
    → "Ohhh... My...head..."
124: 0x0F6B [0x23] WAIT_FOR_DIALOG_INTERACTION
125: 0x0F6C [0x2B] Sylvie (ID: 17863424/0x01109300) [7954*]:
    → "Daddy, you're alive! B-but your wounds! Oh me, oh my...wh-what do I do now?"
126: 0x0F73 [0x23] WAIT_FOR_DIALOG_INTERACTION
127: 0x0F74 [0x52] END_LOAD_SCHEDULER: End scheduler "s100" with entities [LocalPlayer, LocalPlayer], work=663*
128: 0x0F83 [0x02] IF !(Work_Zone[9] == 5*) GOTO 0x0F9F
129: 0x0F8B [0x45] LOAD_SCHEDULED_TASK: Load scheduler "s105" with entities [LocalPlayer, LocalPlayer], work=[663*, 0*]
130: 0x0F9C [0x01] GOTO 0x0FCC
131: 0x0F9F [0x02] IF !(Work_Zone[9] == 6*) GOTO 0x0FBB
132: 0x0FA7 [0x45] LOAD_SCHEDULED_TASK: Load scheduler "s105" with entities [LocalPlayer, LocalPlayer], work=[663*, 0*]
133: 0x0FB8 [0x01] GOTO 0x0FCC
134: 0x0FBB [0x45] LOAD_SCHEDULED_TASK: Load scheduler "s097" with entities [LocalPlayer, LocalPlayer], work=[663*, 0*]

SUBROUTINE_0FCC:
135: 0x0FCC [0x1C] WAIT(10* ticks)
136: 0x0FCF [0x4B] UPDATE_ENTITY_YAW(entity=LocalPlayer, yaw=11.7°*)
137: 0x0FD6 [0x6F] WAIT_FRAME_DELAY: Yield until WaitTime reaches zero
138: 0x0FD7 [0x76] CHECK_ENTITY_RENDER_FLAGS: Wait until LocalPlayer Render.Flags0 and Render.Flags3 conditions are met
139: 0x0FDC [0x1C] WAIT(60* ticks)
140: 0x0FDF [0x27] REQ_SET(priority=0x08, entity_id=Monster2 (ID: 17863429/0x01109305), tag_num=0x0A)
141: 0x0FE6 [0x02] IF !(Work_Zone[9] == 5*) GOTO 0x1000
142: 0x0FEE [0x52] END_LOAD_SCHEDULER: End scheduler "s105" with entities [LocalPlayer, LocalPlayer], work=663*
143: 0x0FFD [0x01] GOTO 0x1029
144: 0x1000 [0x02] IF !(Work_Zone[9] == 6*) GOTO 0x101A
145: 0x1008 [0x52] END_LOAD_SCHEDULER: End scheduler "s105" with entities [LocalPlayer, LocalPlayer], work=663*
146: 0x1017 [0x01] GOTO 0x1029
147: 0x101A [0x52] END_LOAD_SCHEDULER: End scheduler "s097" with entities [LocalPlayer, LocalPlayer], work=663*

SUBROUTINE_1029:
148: 0x1029 [0x45] LOAD_SCHEDULED_TASK: Load scheduler "s336" with entities [LocalPlayer, LocalPlayer], work=[663*, 0*]
149: 0x103A [0x1C] WAIT(90* ticks)
150: 0x103D [0x52] END_LOAD_SCHEDULER: End scheduler "s336" with entities [LocalPlayer, LocalPlayer], work=663*
151: 0x104C [0x45] LOAD_SCHEDULED_TASK: Load scheduler "s101" with entities [LocalPlayer, LocalPlayer], work=[663*, 0*]
152: 0x105D [0x1C] WAIT(90* ticks)
153: 0x1060 [0x52] END_LOAD_SCHEDULER: End scheduler "s101" with entities [LocalPlayer, LocalPlayer], work=663*
154: 0x106F [0x45] LOAD_SCHEDULED_TASK: Load scheduler "s098" with entities [LocalPlayer, LocalPlayer], work=[663*, 0*]
155: 0x1080 [0x29] REQ_SET_WAIT(priority=0x08, entity_id=LocalPlayer, tag_num=0x13)
156: 0x1087 [0x29] REQ_SET_WAIT(priority=0x08, entity_id=Sylvie (ID: 17863424/0x01109300), tag_num=0x36)
157: 0x108E [0x2B] Sylvie (ID: 17863424/0x01109300) [7955*]:
    → "Look out! We've got to keep Daddy safe!"
158: 0x1095 [0x23] WAIT_FOR_DIALOG_INTERACTION
159: 0x1096 [0x29] REQ_SET_WAIT(priority=0x08, entity_id=Sylvie (ID: 17863424/0x01109300), tag_num=0x37)
160: 0x109D [0x4B] UPDATE_ENTITY_YAW(entity=LocalPlayer, yaw=5.5°*)
161: 0x10A4 [0x79] LocalPlayer looks at Sylvie (ID: 17863424/0x01109300) (Basic look)
162: 0x10AE [0x1C] WAIT(30* ticks)
163: 0x10B1 [0x52] END_LOAD_SCHEDULER: End scheduler "s098" with entities [LocalPlayer, LocalPlayer], work=663*
164: 0x10C0 [0x45] LOAD_SCHEDULED_TASK: Load scheduler "s324" with entities [LocalPlayer, LocalPlayer], work=[663*, 0*]
165: 0x10D1 [0x03] Work_Zone[3] = 2374*
166: 0x10D6 [0x2B] Sylvie (ID: 17863424/0x01109300) [7956*]:
    → "The $3 I gave you--quick, use it on the ergon locus!"
167: 0x10DD [0x23] WAIT_FOR_DIALOG_INTERACTION
168: 0x10DE [0x52] END_LOAD_SCHEDULER: End scheduler "s324" with entities [LocalPlayer, LocalPlayer], work=663*
169: 0x10ED [0x45] LOAD_SCHEDULED_TASK: Load scheduler "s104" with entities [LocalPlayer, LocalPlayer], work=[663*, 0*]
170: 0x10FE [0x2B] Sylvie (ID: 17863424/0x01109300) [7957*]:
    → "It might weaken the monster a bit--hurry!"
171: 0x1105 [0x23] WAIT_FOR_DIALOG_INTERACTION
172: 0x1106 [0x5D] SET_MUSIC_VOLUME(volume=0*, fade_time=200*)
173: 0x110B [0x45] LOAD_SCHEDULED_TASK: Load scheduler "fdo1" with entities [LocalPlayer, LocalPlayer], work=[200*, 0*]
174: 0x111C [0x55] WAIT_LOAD_SCHEDULER: Wait for scheduler "fdo1" with entities [LocalPlayer, LocalPlayer], work=200*
175: 0x112B [0x52] END_LOAD_SCHEDULER: End scheduler "s104" with entities [LocalPlayer, LocalPlayer], work=663*
176: 0x113A [0x29] REQ_SET_WAIT(priority=0x08, entity_id=Ergon Locus ??? (ID: 17863432/0x01109308), tag_num=0x03)
177: 0x1141 [0x29] REQ_SET_WAIT(priority=0x08, entity_id=Hostenn (ID: 17863426/0x01109302), tag_num=0x1A)
178: 0x1148 [0x5C] MUSIC_CONTROL: Set Idle (Day) music to song 60*
179: 0x114C [0x5C] MUSIC_CONTROL: Set Idle (Night) music to song 60*
180: 0x1150 [0x9A] WAIT_MUSIC_SERVER()
181: 0x1151 [0x5D] SET_MUSIC_VOLUME(volume=127*, fade_time=1*)
182: 0x1156 [0x1C] WAIT(2* ticks)
183: 0x1159 [0x46] CAMERA_CONTROL: Restore default settings
184: 0x115B [0x45] LOAD_SCHEDULED_TASK: Load scheduler "fdi1" with entities [LocalPlayer, LocalPlayer], work=[200*, 0*]
185: 0x116C [0x20] SET_CLI_EVENT_UC_FLAG: Unlock player control
186: 0x116E [0x21] END_EVENT
187: 0x116F [0x00] END_REQSTACK()
```

### Event 31

#### Metadata

| Field        | Value      |
|--------------|------------|
| Entrypoint   | 0x1170     |
| Data Size    | 3001 bytes |
| Instructions | 365        |

```
      00 01 02 03 04 05 06 07  08 09 0A 0B 0C 0D 0E 0F
      -- -- -- -- -- -- -- --  -- -- -- -- -- -- -- --
1170: 42 46 01 45 00 80 F0 FF  FF 7F F0 FF FF 7F 66 64  BF.E..........fd
1180: 6F 31 01 80 55 00 80 F0  FF FF 7F F0 FF FF 7F 66  o1..U..........f
1190: 64 6F 31 38 02 80 5D 01  80 3B 80 29 08 FF 92 10  do18..]..;.)....
11A0: 01 01 29 08 F0 FF FF 7F  14 29 08 02 93 10 01 19  ..)......)......
11B0: 29 08 00 93 10 01 6C 29  08 01 93 10 01 31 29 08  ).....l).....1).
11C0: 04 93 10 01 02 29 08 06  93 10 01 02 29 08 07 93  .....)......)...
11D0: 10 01 02 80 00 93 10 01  80 02 93 10 01 80 01 93  ................
11E0: 10 01 80 04 93 10 01 80  06 93 10 01 80 07 93 10  ................
11F0: 01 80 05 93 10 01 92 01  02 93 10 01 92 01 00 93  ................
1200: 10 01 92 01 01 93 10 01  92 01 04 93 10 01 92 01  ................
1210: 06 93 10 01 92 01 07 93  10 01 92 01 05 93 10 01  ................
1220: 29 08 00 93 10 01 28 29  08 00 93 10 01 29 29 08  ).....().....)).
1230: 02 93 10 01 0D 29 08 F0  FF FF 7F 0A 4A F0 FF FF  .....)......J...
1240: 7F 08 93 10 01 6F 76 F0  FF FF 7F 5C 00 50 80 5C  .....ov....\.P.\
1250: 01 50 80 9A 5D 23 80 12  80 27 08 F0 FF FF 7F 15  .P..]#...'......
1260: 1C 27 80 27 08 06 93 10  01 03 27 08 07 93 10 01  .'.'......'.....
1270: 03 27 08 04 93 10 01 03  45 04 80 F0 FF FF 7F F0  .'......E.......
1280: FF FF 7F 73 31 30 37 01  80 45 00 80 F0 FF FF 7F  ...s107..E......
1290: F0 FF FF 7F 66 64 69 31  01 80 55 00 80 F0 FF FF  ....fdi1..U.....
12A0: 7F F0 FF FF 7F 66 64 69  31 1C 38 80 52 04 80 F0  .....fdi1.8.R...
12B0: FF FF 7F F0 FF FF 7F 73  31 30 37 45 04 80 F0 FF  .......s107E....
12C0: FF 7F F0 FF FF 7F 73 31  30 38 01 80 79 00 F0 FF  ......s108..y...
12D0: FF 7F 00 93 10 01 1C 51  80 52 04 80 F0 FF FF 7F  .......Q.R......
12E0: F0 FF FF 7F 73 31 30 38  45 04 80 F0 FF FF 7F F0  ....s108E.......
12F0: FF FF 7F 73 31 30 39 01  80 1C 52 80 2A 08 F0 FF  ...s109...R.*...
1300: FF 7F 4A F0 FF FF 7F 04  93 10 01 6F 76 F0 FF FF  ..J........ov...
1310: 7F 52 04 80 F0 FF FF 7F  F0 FF FF 7F 73 31 30 39  .R..........s109
1320: 45 04 80 F0 FF FF 7F F0  FF FF 7F 73 31 32 31 01  E..........s121.
1330: 80 4E 00 07 93 10 01 45  04 80 F8 FF FF 7F F8 FF  .N.....E........
1340: FF 7F 73 65 31 30 01 80  45 04 80 F8 FF FF 7F F8  ..se10..E.......
1350: FF FF 7F 73 65 31 31 01  80 45 04 80 F8 FF FF 7F  ...se11..E......
1360: F8 FF FF 7F 73 65 31 32  01 80 1C 53 80 27 08 01  ....se12...S.'..
1370: 93 10 01 32 1C 54 80 45  04 80 F8 FF FF 7F F8 FF  ...2.T.E........
1380: FF 7F 73 74 31 30 01 80  52 04 80 F0 FF FF 7F F0  ..st10..R.......
1390: FF FF 7F 73 31 32 31 45  04 80 F0 FF FF 7F F0 FF  ...s121E........
13A0: FF 7F 73 31 31 34 01 80  1C 03 80 52 04 80 F0 FF  ..s114.....R....
13B0: FF 7F F0 FF FF 7F 73 31  31 34 45 04 80 F0 FF FF  ......s114E.....
13C0: 7F F0 FF FF 7F 73 31 31  30 01 80 2B 01 93 10 01  .....s110..+....
13D0: 55 80 1C 06 80 79 00 F0  FF FF 7F 01 93 10 01 2A  U....y.........*
13E0: 08 01 93 10 01 23 4A 01  93 10 01 F0 FF FF 7F 6F  .....#J........o
13F0: 76 01 93 10 01 4A 01 93  10 01 04 93 10 01 6F 76  v....J........ov
1400: 01 93 10 01 27 08 01 93  10 01 2D 2B 01 93 10 01  ....'.....-+....
1410: 56 80 1C 06 80 52 04 80  F0 FF FF 7F F0 FF FF 7F  V....R..........
1420: 73 31 31 30 45 04 80 F0  FF FF 7F F0 FF FF 7F 73  s110E..........s
1430: 31 31 31 01 80 29 08 05  93 10 01 0C 2A 08 07 93  111..)......*...
1440: 10 01 2A 08 04 93 10 01  29 08 04 93 10 01 04 29  ..*.....)......)
1450: 08 07 93 10 01 04 27 08  05 93 10 01 0D 2A 08 01  ......'......*..
1460: 93 10 01 23 79 00 F0 FF  FF 7F 06 93 10 01 29 08  ...#y.........).
1470: F0 FF FF 7F 17 4B 01 93  10 01 57 80 6F 76 01 93  .....K....W.ov..
1480: 10 01 52 04 80 F0 FF FF  7F F0 FF FF 7F 73 31 31  ..R..........s11
1490: 31 02 09 10 07 80 00 AD  14 45 04 80 F0 FF FF 7F  1........E......
14A0: F0 FF FF 7F 73 31 32 36  01 80 01 DA 14 02 09 10  ....s126........
14B0: 0C 80 00 C9 14 45 04 80  F0 FF FF 7F F0 FF FF 7F  .....E..........
14C0: 73 31 32 36 01 80 01 DA  14 45 04 80 F0 FF FF 7F  s126.....E......
14D0: F0 FF FF 7F 73 31 32 33  01 80 29 08 01 93 10 01  ....s123..).....
14E0: 0D 2B 01 93 10 01 58 80  1C 06 80 79 00 F0 FF FF  .+....X....y....
14F0: 7F 05 93 10 01 79 00 01  93 10 01 F0 FF FF 7F 29  .....y.........)
1500: 08 F0 FF FF 7F 25 23 27  08 F0 FF FF 7F 18 1C 06  .....%#'........
1510: 80 02 09 10 07 80 00 2B  15 52 04 80 F0 FF FF 7F  .......+.R......
1520: F0 FF FF 7F 73 31 32 36  01 54 15 02 09 10 0C 80  ....s126.T......
1530: 00 45 15 52 04 80 F0 FF  FF 7F F0 FF FF 7F 73 31  .E.R..........s1
1540: 32 36 01 54 15 52 04 80  F0 FF FF 7F F0 FF FF 7F  26.T.R..........
1550: 73 31 32 33 45 04 80 F0  FF FF 7F F0 FF FF 7F 73  s123E..........s
1560: 31 31 33 01 80 79 00 F0  FF FF 7F 05 93 10 01 94  113..y..........
1570: 01 01 93 10 01 29 08 01  93 10 01 0F 2B 01 93 10  .....)......+...
1580: 01 59 80 23 29 08 01 93  10 01 10 2A 08 05 93 10  .Y.#)......*....
1590: 01 2A 08 F0 FF FF 7F C4  01 01 80 05 93 10 01 01  .*..............
15A0: 93 10 01 7B 01 93 10 01  1C 5A 80 52 04 80 F0 FF  ...{.....Z.R....
15B0: FF 7F F0 FF FF 7F 73 31  31 33 45 04 80 F0 FF FF  ......s113E.....
15C0: 7F F0 FF FF 7F 73 33 33  35 01 80 29 08 01 93 10  .....s335..)....
15D0: 01 33 29 0C 01 93 10 01  1D 4A F0 FF FF 7F 01 93  .3)......J......
15E0: 10 01 6F 76 F0 FF FF 7F  27 08 F0 FF FF 7F 25 4A  ..ov....'.....%J
15F0: 05 93 10 01 01 93 10 01  52 04 80 F0 FF FF 7F F0  ........R.......
1600: FF FF 7F 73 33 33 35 45  04 80 F0 FF FF 7F F0 FF  ...s335E........
1610: FF 7F 73 31 31 35 01 80  BA 01 93 10 01 5B 80 5C  ..s115.......[.\
1620: 80 5D 80 01 80 29 0B 01  93 10 01 1F 1C 1F 80 52  .]...).........R
1630: 04 80 F0 FF FF 7F F0 FF  FF 7F 73 31 31 35 02 09  ..........s115..
1640: 10 07 80 00 5A 16 45 04  80 F0 FF FF 7F F0 FF FF  ....Z.E.........
1650: 7F 73 33 34 39 01 80 01  A3 16 02 09 10 0C 80 00  .s349...........
1660: 76 16 45 04 80 F0 FF FF  7F F0 FF FF 7F 73 33 34  v.E..........s34
1670: 39 01 80 01 A3 16 02 09  10 54 80 00 92 16 45 04  9........T....E.
1680: 80 F0 FF FF 7F F0 FF FF  7F 73 33 35 35 01 80 01  .........s355...
1690: A3 16 45 04 80 F0 FF FF  7F F0 FF FF 7F 73 33 33  ..E..........s33
16A0: 34 01 80 BA 01 93 10 01  5B 80 5C 80 5D 80 5E 80  4.......[.\.].^.
16B0: 2A 08 F0 FF FF 7F 27 08  F0 FF FF 7F 19 1C 27 80  *.....'.......'.
16C0: 29 0A 01 93 10 01 21 1C  06 80 02 09 10 07 80 00  ).....!.........
16D0: E4 16 52 04 80 F0 FF FF  7F F0 FF FF 7F 73 33 34  ..R..........s34
16E0: 39 01 27 17 02 09 10 0C  80 00 FE 16 52 04 80 F0  9.'.........R...
16F0: FF FF 7F F0 FF FF 7F 73  33 34 39 01 27 17 02 09  .......s349.'...
1700: 10 54 80 00 18 17 52 04  80 F0 FF FF 7F F0 FF FF  .T....R.........
1710: 7F 73 33 35 35 01 27 17  52 04 80 F0 FF FF 7F F0  .s355.'.R.......
1720: FF FF 7F 73 33 33 34 45  04 80 F0 FF FF 7F F0 FF  ...s334E........
1730: FF 7F 73 33 32 35 01 80  27 08 04 93 10 01 05 27  ..s325..'......'
1740: 08 06 93 10 01 04 27 08  07 93 10 01 05 27 08 05  ......'......'..
1750: 93 10 01 0E 2B 01 93 10  01 5F 80 1C 1F 80 52 04  ....+...._....R.
1760: 80 F0 FF FF 7F F0 FF FF  7F 73 33 32 35 45 04 80  .........s325E..
1770: F0 FF FF 7F F0 FF FF 7F  73 33 32 36 01 80 23 2A  ........s326..#*
1780: 08 F0 FF FF 7F 29 08 01  93 10 01 23 1C 26 80 52  .....).....#.&.R
1790: 04 80 F0 FF FF 7F F0 FF  FF 7F 73 33 32 36 45 04  ..........s326E.
17A0: 80 F0 FF FF 7F F0 FF FF  7F 73 33 32 37 01 80 29  .........s327..)
17B0: 08 01 93 10 01 24 52 04  80 F0 FF FF 7F F0 FF FF  .....$R.........
17C0: 7F 73 33 32 37 45 04 80  F0 FF FF 7F F0 FF FF 7F  .s327E..........
17D0: 73 33 32 38 01 80 59 05  04 93 10 01 01 59 05 07  s328..Y......Y..
17E0: 93 10 01 01 59 05 06 93  10 01 01 59 05 05 93 10  ....Y......Y....
17F0: 01 01 45 04 80 06 93 10  01 06 93 10 01 73 65 31  ..E..........se1
1800: 35 01 80 45 04 80 06 93  10 01 06 93 10 01 73 65  5..E..........se
1810: 31 36 01 80 45 04 80 06  93 10 01 06 93 10 01 73  16..E..........s
1820: 65 31 37 01 80 45 04 80  06 93 10 01 06 93 10 01  e17..E..........
1830: 73 65 31 38 01 80 1C 00  80 45 04 80 06 93 10 01  se18.....E......
1840: 06 93 10 01 73 74 31 35  01 80 45 04 80 06 93 10  ....st15..E.....
1850: 01 06 93 10 01 73 74 31  38 01 80 52 04 80 F0 FF  .....st18..R....
1860: FF 7F F0 FF FF 7F 73 33  32 38 45 04 80 F0 FF FF  ......s328E.....
1870: 7F F0 FF FF 7F 73 33 32  39 01 80 4E 01 04 93 10  .....s329..N....
1880: 01 4E 01 05 93 10 01 4E  01 06 93 10 01 4E 01 07  .N.....N.....N..
1890: 93 10 01 29 08 01 93 10  01 25 2B 01 93 10 01 60  ...).....%+....`
18A0: 80 1C 1F 80 52 04 80 F0  FF FF 7F F0 FF FF 7F 73  ....R..........s
18B0: 33 32 39 45 04 80 F0 FF  FF 7F F0 FF FF 7F 73 33  329E..........s3
18C0: 33 30 01 80 29 08 01 93  10 01 26 23 52 04 80 F0  30..).....&#R...
18D0: FF FF 7F F0 FF FF 7F 73  33 33 30 45 04 80 F0 FF  .......s330E....
18E0: FF 7F F0 FF FF 7F 73 33  33 31 01 80 29 08 01 93  ......s331..)...
18F0: 10 01 27 1C 1F 80 52 04  80 F0 FF FF 7F F0 FF FF  ..'...R.........
1900: 7F 73 33 33 31 45 04 80  F0 FF FF 7F F0 FF FF 7F  .s331E..........
1910: 73 33 33 32 01 80 2B 01  93 10 01 61 80 2C 01 93  s332..+....a.,..
1920: 10 01 01 93 10 01 65 69  67 63 1C 1F 80 23 52 04  ......eigc...#R.
1930: 80 F0 FF FF 7F F0 FF FF  7F 73 33 33 32 45 04 80  .........s332E..
1940: F0 FF FF 7F F0 FF FF 7F  73 33 33 33 01 80 4E 00  ........s333..N.
1950: 07 93 10 01 4E 00 05 93  10 01 4E 00 04 93 10 01  ....N.....N.....
1960: 4E 00 06 93 10 01 2B 01  93 10 01 62 80 1C 03 80  N.....+....b....
1970: 45 39 80 F0 FF FF 7F F0  FF FF 7F 77 68 6F 31 01  E9.........who1.
1980: 80 23 29 08 01 93 10 01  28 55 39 80 F0 FF FF 7F  .#).....(U9.....
1990: F0 FF FF 7F 77 68 6F 31  5D 01 80 3B 80 52 04 80  ....who1]..;.R..
19A0: F0 FF FF 7F F0 FF FF 7F  73 33 33 33 4E 01 04 93  ........s333N...
19B0: 10 01 2F 01 04 93 10 01  4E 01 05 93 10 01 2F 01  ../.....N...../.
19C0: 05 93 10 01 4E 01 06 93  10 01 2F 01 06 93 10 01  ....N...../.....
19D0: 4E 01 07 93 10 01 2F 01  07 93 10 01 1C 53 80 45  N...../......S.E
19E0: 04 80 F8 FF FF 7F F8 FF  FF 7F 73 65 30 32 01 80  ..........se02..
19F0: 1C 3B 80 1D 63 80 23 1D  64 80 23 29 08 F0 FF FF  .;..c.#.d.#)....
1A00: 7F 16 29 08 01 93 10 01  33 29 08 00 93 10 01 70  ..).....3).....p
1A10: 29 08 01 93 10 01 21 29  08 01 93 10 01 22 45 04  ).....!)....."E.
1A20: 80 F0 FF FF 7F F0 FF FF  7F 73 31 31 36 01 80 45  .........s116..E
1A30: 39 80 F0 FF FF 7F F0 FF  FF 7F 77 68 69 31 01 80  9.........whi1..
1A40: 55 39 80 F0 FF FF 7F F0  FF FF 7F 77 68 69 31 1C  U9.........whi1.
1A50: 1F 80 52 04 80 F0 FF FF  7F F0 FF FF 7F 73 31 31  ..R..........s11
1A60: 36 45 04 80 F0 FF FF 7F  F0 FF FF 7F 73 31 32 35  6E..........s125
1A70: 01 80 2B 01 93 10 01 65  80 23 79 00 00 93 10 01  ..+....e.#y.....
1A80: 01 93 10 01 79 00 F0 FF  FF 7F 00 93 10 01 4B F0  ....y.........K.
1A90: FF FF 7F 66 80 1C 67 80  52 04 80 F0 FF FF 7F F0  ...f..g.R.......
1AA0: FF FF 7F 73 31 32 35 45  04 80 F0 FF FF 7F F0 FF  ...s125E........
1AB0: FF 7F 73 31 31 38 01 80  29 08 01 93 10 01 1B 6F  ..s118..)......o
1AC0: 76 F0 FF FF 7F 2B 00 93  10 01 68 80 27 08 F0 FF  v....+....h.'...
1AD0: FF 7F 1A 1C 3B 80 23 52  04 80 F0 FF FF 7F F0 FF  ....;.#R........
1AE0: FF 7F 73 31 31 38 45 04  80 F0 FF FF 7F F0 FF FF  ..s118E.........
1AF0: 7F 73 31 31 39 01 80 2B  00 93 10 01 69 80 29 08  .s119..+....i.).
1B00: 00 93 10 01 1C 29 08 01  93 10 01 34 23 29 08 01  .....).....4#)..
1B10: 93 10 01 29 1C 54 80 52  04 80 F0 FF FF 7F F0 FF  ...).T.R........
1B20: FF 7F 73 31 31 39 45 04  80 F0 FF FF 7F F0 FF FF  ..s119E.........
1B30: 7F 73 31 32 30 01 80 79  00 01 93 10 01 00 93 10  .s120..y........
1B40: 01 2B 00 93 10 01 6A 80  1C 6B 80 2A 08 F0 FF FF  .+....j..k.*....
1B50: 7F 52 04 80 F0 FF FF 7F  F0 FF FF 7F 73 31 32 30  .R..........s120
1B60: 45 04 80 F0 FF FF 7F F0  FF FF 7F 73 33 34 38 01  E..........s348.
1B70: 80 23 29 08 01 93 10 01  2A 29 08 00 93 10 01 1D  .#).....*)......
1B80: 29 08 01 93 10 01 01 1C  03 80 52 04 80 F0 FF FF  ).........R.....
1B90: 7F F0 FF FF 7F 73 33 34  38 45 04 80 F0 FF FF 7F  .....s348E......
1BA0: F0 FF FF 7F 73 31 32 30  01 80 79 00 01 93 10 01  ....s120..y.....
1BB0: 00 93 10 01 2B 01 93 10  01 6C 80 23 29 08 01 93  ....+....l.#)...
1BC0: 10 01 02 29 08 01 93 10  01 03 29 08 01 93 10 01  ...)......).....
1BD0: 04 27 08 01 93 10 01 2E  2B 01 93 10 01 6D 80 23  .'......+....m.#
1BE0: 2A 08 01 93 10 01 1C 03  80 52 04 80 F0 FF FF 7F  *........R......
1BF0: F0 FF FF 7F 73 31 32 30  02 09 10 07 80 00 14 1C  ....s120........
1C00: 45 04 80 F0 FF FF 7F F0  FF FF 7F 73 31 32 37 01  E..........s127.
1C10: 80 01 41 1C 02 09 10 0C  80 00 30 1C 45 04 80 F0  ..A.......0.E...
1C20: FF FF 7F F0 FF FF 7F 73  31 32 37 01 80 01 41 1C  .......s127...A.
1C30: 45 04 80 F0 FF FF 7F F0  FF FF 7F 73 31 32 34 01  E..........s124.
1C40: 80 4B 01 93 10 01 6E 80  6F 76 01 93 10 01 79 00  .K....n.ov....y.
1C50: 01 93 10 01 F0 FF FF 7F  29 08 01 93 10 01 01 2B  ........)......+
1C60: 01 93 10 01 6F 80 23 2B  01 93 10 01 70 80 23 29  ....o.#+....p.#)
1C70: 08 01 93 10 01 02 29 08  01 93 10 01 03 2B 01 93  ......)......+..
1C80: 10 01 71 80 23 29 08 01  93 10 01 04 5D 01 80 00  ..q.#)......]...
1C90: 80 45 00 80 F0 FF FF 7F  F0 FF FF 7F 66 64 6F 31  .E..........fdo1
1CA0: 01 80 55 00 80 F0 FF FF  7F F0 FF FF 7F 66 64 6F  ..U..........fdo
1CB0: 31 02 09 10 07 80 00 CB  1C 52 04 80 F0 FF FF 7F  1........R......
1CC0: F0 FF FF 7F 73 31 32 37  01 F4 1C 02 09 10 0C 80  ....s127........
1CD0: 00 E5 1C 52 04 80 F0 FF  FF 7F F0 FF FF 7F 73 31  ...R..........s1
1CE0: 32 37 01 F4 1C 52 04 80  F0 FF FF 7F F0 FF FF 7F  27...R..........
1CF0: 73 31 32 34 94 00 01 93  10 01 29 08 02 93 10 01  s124......).....
1D00: 1A 5C 00 08 80 5C 01 08  80 9A 5D 23 80 12 80 1C  .\...\....]#....
1D10: 3A 80 46 00 45 00 80 F0  FF FF 7F F0 FF FF 7F 66  :.F.E..........f
1D20: 64 69 31 01 80 20 00 21  00                       di1.. .!.       
```

#### Opcodes

```
  0: 0x1170 [0x42] SET_CLI_EVENT_CANCEL_DATA()
  1: 0x1171 [0x46] CAMERA_CONTROL: Disable user control
  2: 0x1173 [0x45] LOAD_SCHEDULED_TASK: Load scheduler "fdo1" with entities [LocalPlayer, LocalPlayer], work=[200*, 0*]
  3: 0x1184 [0x55] WAIT_LOAD_SCHEDULER: Wait for scheduler "fdo1" with entities [LocalPlayer, LocalPlayer], work=200*
  4: 0x1193 [0x38] SET_CLIENT_EVENT_MODE(mode=19*)
  5: 0x1196 [0x5D] SET_MUSIC_VOLUME(volume=0*, fade_time=100*)
  6: 0x119B [0x29] REQ_SET_WAIT(priority=0x08, entity_id=DIRECTOR by yaeko (ID: 17863423/0x011092FF), tag_num=0x01)
  7: 0x11A2 [0x29] REQ_SET_WAIT(priority=0x08, entity_id=LocalPlayer, tag_num=0x14)
  8: 0x11A9 [0x29] REQ_SET_WAIT(priority=0x08, entity_id=Hostenn (ID: 17863426/0x01109302), tag_num=0x19)
  9: 0x11B0 [0x29] REQ_SET_WAIT(priority=0x08, entity_id=Sylvie (ID: 17863424/0x01109300), tag_num=0x6C)
 10: 0x11B7 [0x29] REQ_SET_WAIT(priority=0x08, entity_id=Lhaiso Neftereh (ID: 17863425/0x01109301), tag_num=0x31)
 11: 0x11BE [0x29] REQ_SET_WAIT(priority=0x08, entity_id=Monster1 (ID: 17863428/0x01109304), tag_num=0x02)
 12: 0x11C5 [0x29] REQ_SET_WAIT(priority=0x08, entity_id=Monster3 (ID: 17863430/0x01109306), tag_num=0x02)
 13: 0x11CC [0x29] REQ_SET_WAIT(priority=0x08, entity_id=Monster4 (ID: 17863431/0x01109307), tag_num=0x02)
 14: 0x11D3 [0x80] LOAD_WAIT(entity=Sylvie (ID: 17863424/0x01109300))
 15: 0x11D8 [0x80] LOAD_WAIT(entity=Hostenn (ID: 17863426/0x01109302))
 16: 0x11DD [0x80] LOAD_WAIT(entity=Lhaiso Neftereh (ID: 17863425/0x01109301))
 17: 0x11E2 [0x80] LOAD_WAIT(entity=Monster1 (ID: 17863428/0x01109304))
 18: 0x11E7 [0x80] LOAD_WAIT(entity=Monster3 (ID: 17863430/0x01109306))
 19: 0x11EC [0x80] LOAD_WAIT(entity=Monster4 (ID: 17863431/0x01109307))
 20: 0x11F1 [0x80] LOAD_WAIT(entity=Monster2 (ID: 17863429/0x01109305))
 21: 0x11F6 [0x92] Hostenn (ID: 17863426/0x01109302)->Render.Flags3 ^= 0x01
 22: 0x11FC [0x92] Sylvie (ID: 17863424/0x01109300)->Render.Flags3 ^= 0x01
 23: 0x1202 [0x92] Lhaiso Neftereh (ID: 17863425/0x01109301)->Render.Flags3 ^= 0x01
 24: 0x1208 [0x92] Monster1 (ID: 17863428/0x01109304)->Render.Flags3 ^= 0x01
 25: 0x120E [0x92] Monster3 (ID: 17863430/0x01109306)->Render.Flags3 ^= 0x01
 26: 0x1214 [0x92] Monster4 (ID: 17863431/0x01109307)->Render.Flags3 ^= 0x01
 27: 0x121A [0x92] Monster2 (ID: 17863429/0x01109305)->Render.Flags3 ^= 0x01
 28: 0x1220 [0x29] REQ_SET_WAIT(priority=0x08, entity_id=Sylvie (ID: 17863424/0x01109300), tag_num=0x28)
 29: 0x1227 [0x29] REQ_SET_WAIT(priority=0x08, entity_id=Sylvie (ID: 17863424/0x01109300), tag_num=0x29)
 30: 0x122E [0x29] REQ_SET_WAIT(priority=0x08, entity_id=Hostenn (ID: 17863426/0x01109302), tag_num=0x0D)
 31: 0x1235 [0x29] REQ_SET_WAIT(priority=0x08, entity_id=LocalPlayer, tag_num=0x0A)
 32: 0x123C [0x4A] LocalPlayer looks at Ergon Locus ??? (ID: 17863432/0x01109308)
 33: 0x1245 [0x6F] WAIT_FRAME_DELAY: Yield until WaitTime reaches zero
 34: 0x1246 [0x76] CHECK_ENTITY_RENDER_FLAGS: Wait until LocalPlayer Render.Flags0 and Render.Flags3 conditions are met
 35: 0x124B [0x5C] MUSIC_CONTROL: Set Idle (Day) music to song 57*
 36: 0x124F [0x5C] MUSIC_CONTROL: Set Idle (Night) music to song 57*
 37: 0x1253 [0x9A] WAIT_MUSIC_SERVER()
 38: 0x1254 [0x5D] SET_MUSIC_VOLUME(volume=127*, fade_time=1*)
 39: 0x1259 [0x27] REQ_SET(priority=0x08, entity_id=LocalPlayer, tag_num=0x15)
 40: 0x1260 [0x1C] WAIT(10* ticks)
 41: 0x1263 [0x27] REQ_SET(priority=0x08, entity_id=Monster3 (ID: 17863430/0x01109306), tag_num=0x03)
 42: 0x126A [0x27] REQ_SET(priority=0x08, entity_id=Monster4 (ID: 17863431/0x01109307), tag_num=0x03)
 43: 0x1271 [0x27] REQ_SET(priority=0x08, entity_id=Monster1 (ID: 17863428/0x01109304), tag_num=0x03)
 44: 0x1278 [0x45] LOAD_SCHEDULED_TASK: Load scheduler "s107" with entities [LocalPlayer, LocalPlayer], work=[660*, 0*]
 45: 0x1289 [0x45] LOAD_SCHEDULED_TASK: Load scheduler "fdi1" with entities [LocalPlayer, LocalPlayer], work=[200*, 0*]
 46: 0x129A [0x55] WAIT_LOAD_SCHEDULER: Wait for scheduler "fdi1" with entities [LocalPlayer, LocalPlayer], work=200*
 47: 0x12A9 [0x1C] WAIT(110* ticks)
 48: 0x12AC [0x52] END_LOAD_SCHEDULER: End scheduler "s107" with entities [LocalPlayer, LocalPlayer], work=660*
 49: 0x12BB [0x45] LOAD_SCHEDULED_TASK: Load scheduler "s108" with entities [LocalPlayer, LocalPlayer], work=[660*, 0*]
 50: 0x12CC [0x79] LocalPlayer looks at Sylvie (ID: 17863424/0x01109300) (Basic look)
 51: 0x12D6 [0x1C] WAIT(130* ticks)
 52: 0x12D9 [0x52] END_LOAD_SCHEDULER: End scheduler "s108" with entities [LocalPlayer, LocalPlayer], work=660*
 53: 0x12E8 [0x45] LOAD_SCHEDULED_TASK: Load scheduler "s109" with entities [LocalPlayer, LocalPlayer], work=[660*, 0*]
 54: 0x12F9 [0x1C] WAIT(300* ticks)
 55: 0x12FC [0x2A] GET_REQ_LEVEL(level=8, entity_id=LocalPlayer)
 56: 0x1302 [0x4A] LocalPlayer looks at Monster1 (ID: 17863428/0x01109304)
 57: 0x130B [0x6F] WAIT_FRAME_DELAY: Yield until WaitTime reaches zero
 58: 0x130C [0x76] CHECK_ENTITY_RENDER_FLAGS: Wait until LocalPlayer Render.Flags0 and Render.Flags3 conditions are met
 59: 0x1311 [0x52] END_LOAD_SCHEDULER: End scheduler "s109" with entities [LocalPlayer, LocalPlayer], work=660*
 60: 0x1320 [0x45] LOAD_SCHEDULED_TASK: Load scheduler "s121" with entities [LocalPlayer, LocalPlayer], work=[660*, 0*]
 61: 0x1331 [0x4E] SET_ENTITY_HIDE_FLAG: Show Monster4 (ID: 17863431/0x01109307)
 62: 0x1337 [0x45] LOAD_SCHEDULED_TASK: Load scheduler "se10" with entities [EventEntity, EventEntity], work=[660*, 0*]
 63: 0x1348 [0x45] LOAD_SCHEDULED_TASK: Load scheduler "se11" with entities [EventEntity, EventEntity], work=[660*, 0*]
 64: 0x1359 [0x45] LOAD_SCHEDULED_TASK: Load scheduler "se12" with entities [EventEntity, EventEntity], work=[660*, 0*]
 65: 0x136A [0x1C] WAIT(150* ticks)
