# 17863429 - Monster2

## Common Data

| Field            | Value                           |
|------------------|---------------------------------|
| Zone             | Morimar Basalt Fields (ID: 265) |
| Block Size       | 440 bytes                       |
| Total Events     | 15                              |
| References Count | 37                              |

## List of Events

| Event ID                   | Entrypoint   |   Size |   Instructions |
|----------------------------|--------------|--------|----------------|
| [65535](#event-65535)      | 0x0000       |      1 |              1 |
| [2588](#event-2588)        | 0x0001       |      1 |              1 |
| [65535.1](#event-655351)   | 0x0002       |     18 |              4 |
| [65535.2](#event-655352)   | 0x0014       |     17 |              4 |
| [65535.3](#event-655353)   | 0x0025       |     14 |              4 |
| [65535.4](#event-655354)   | 0x0033       |     17 |              3 |
| [65535.5](#event-655355)   | 0x0044       |      4 |              2 |
| [65535.6](#event-655356)   | 0x0048       |     33 |              7 |
| [30](#event-30)            | 0x0069       |      1 |              1 |
| [65535.7](#event-655357)   | 0x006A       |     28 |              6 |
| [65535.8](#event-655358)   | 0x0086       |     14 |              4 |
| [31](#event-31)            | 0x0094       |      1 |              1 |
| [65535.9](#event-655359)   | 0x0095       |     22 |              5 |
| [65535.10](#event-6553510) | 0x00AB       |     21 |              7 |
| [65535.11](#event-6553511) | 0x00C0       |     21 |              7 |

## DAT References (imed_data)

|   Index | Hex Value   |   Dec Value |
|---------|-------------|-------------|
|       0 | 0xFFFF5B76  |  4294925174 |
|       1 | 0x2E181     |      188801 |
|       2 | 0x0128      |         296 |
|       3 | 0x0555      |        1365 |
|       4 | 0x000D      |          13 |
|       5 | 0xFFFF4D7A  |  4294921594 |
|       6 | 0x2C40E     |      181262 |
|       7 | 0x00B7      |         183 |
|       8 | 0x0000      |           0 |
|       9 | 0x0078      |         120 |
|      10 | 0x0E29      |        3625 |
|      11 | 0x0080      |         128 |
|      12 | 0x0001      |           1 |
|      13 | 0x0028      |          40 |
|      14 | 0xFFFF652F  |  4294927663 |
|      15 | 0x2E79F     |      190367 |
|      16 | 0x4CF0D     |      315149 |
|      17 | 0x61FBD     |      401341 |
|      18 | 0x002E      |          46 |
|      19 | 0x017E      |         382 |
|      20 | 0x46EA5     |      290469 |
|      21 | 0x624E9     |      402665 |
|      22 | 0x0141      |         321 |
|      23 | 0x001C      |          28 |
|      24 | 0x48563     |      296291 |
|      25 | 0x61DC3     |      400835 |
|      26 | 0x032E      |         814 |
|      27 | 0x4B2AB     |      307883 |
|      28 | 0x615BF     |      398783 |
|      29 | 0x0193      |         403 |
|      30 | 0x0FC8      |        4040 |
|      31 | 0x4CDDC     |      314844 |
|      32 | 0x611D5     |      397781 |
|      33 | 0x0038      |          56 |
|      34 | 0x4CE6F     |      314991 |
|      35 | 0x6194D     |      399693 |
|      36 | 0x002F      |          47 |

## Events

### Event 65535

#### Metadata

| Field        | Value   |
|--------------|---------|
| Entrypoint   | 0x0000  |
| Data Size    | 1 bytes |
| Instructions | 1       |

```
      00 01 02 03 04 05 06 07  08 09 0A 0B 0C 0D 0E 0F
      -- -- -- -- -- -- -- --  -- -- -- -- -- -- -- --
0000: 00                                                .               
```

#### Opcodes

```
  0: 0x0000 [0x00] END_REQSTACK()
```

### Event 2588

#### Metadata

| Field        | Value   |
|--------------|---------|
| Entrypoint   | 0x0001  |
| Data Size    | 1 bytes |
| Instructions | 1       |

```
      00 01 02 03 04 05 06 07  08 09 0A 0B 0C 0D 0E 0F
      -- -- -- -- -- -- -- --  -- -- -- -- -- -- -- --
0000:    00                                              .              
```

#### Opcodes

```
  0: 0x0001 [0x00] END_REQSTACK()
```

### Event 65535.1

#### Metadata

| Field        | Value    |
|--------------|----------|
| Entrypoint   | 0x0002   |
| Data Size    | 18 bytes |
| Instructions | 4        |

```
      00 01 02 03 04 05 06 07  08 09 0A 0B 0C 0D 0E 0F
      -- -- -- -- -- -- -- --  -- -- -- -- -- -- -- --
0000:       2F 00 F8 FF FF 7F  22 01 37 00 80 01 80 02    /.....".7.....
0010: 80 03 80 00                                       ....            
```

#### Opcodes

```
  0: 0x0002 [0x2F] EventEntity->Render.Flags0 &= ~0x80000 // Bit 19
  1: 0x0008 [0x22] ENTITY_HIDE_FLAG(enabled=0x01)
  2: 0x000A [0x37] UPDATE_EVENT_POSITION_AND_DIR: x=-42.122*, z=188.801*, y=0.296*, direction=120.0°*
  3: 0x0013 [0x00] END_REQSTACK()
```

### Event 65535.2

#### Metadata

| Field        | Value    |
|--------------|----------|
| Entrypoint   | 0x0014   |
| Data Size    | 17 bytes |
| Instructions | 4        |

```
      00 01 02 03 04 05 06 07  08 09 0A 0B 0C 0D 0E 0F
      -- -- -- -- -- -- -- --  -- -- -- -- -- -- -- --
0010:             37 00 80 01  80 02 80 03 80 22 00 80      7........"..
0020: F8 FF FF 7F 00                                    .....           
```

#### Opcodes

```
  0: 0x0014 [0x37] UPDATE_EVENT_POSITION_AND_DIR: x=-42.122*, z=188.801*, y=0.296*, direction=120.0°*
  1: 0x001D [0x22] ENTITY_HIDE_FLAG(enabled=0x00)
  2: 0x001F [0x80] LOAD_WAIT(entity=EventEntity)
  3: 0x0024 [0x00] END_REQSTACK()
```

### Event 65535.3

#### Metadata

| Field        | Value    |
|--------------|----------|
| Entrypoint   | 0x0025   |
| Data Size    | 14 bytes |
| Instructions | 4        |

```
      00 01 02 03 04 05 06 07  08 09 0A 0B 0C 0D 0E 0F
      -- -- -- -- -- -- -- --  -- -- -- -- -- -- -- --
0020:                32 04 80  1F 00 05 80 06 80 07 80       2..........
0030: 1F 01 00                                          ...             
```

#### Opcodes

```
  0: 0x0025 [0x32] ExtData[1]->MainSpeed = 13* * 0.1
  1: 0x0028 [0x1F] MOVE_ENTITY: EventEntity moves to X=-45.702*, Z=181.262*, Y=0.183*
  2: 0x0030 [0x1F] MOVE_ENTITY: Update entity position (mode=1)
  3: 0x0032 [0x00] END_REQSTACK()
```

### Event 65535.4

#### Metadata

| Field        | Value    |
|--------------|----------|
| Entrypoint   | 0x0033   |
| Data Size    | 17 bytes |
| Instructions | 3        |

```
      00 01 02 03 04 05 06 07  08 09 0A 0B 0C 0D 0E 0F
      -- -- -- -- -- -- -- --  -- -- -- -- -- -- -- --
0030:          6C F8 FF FF 7F  08 80 09 80 4B F8 FF FF     l........K...
0040: 7F 08 80 00                                       ....            
```

#### Opcodes

```
  0: 0x0033 [0x6C] FADE_ENTITY_COLOR(entity_id=EventEntity, end_alpha=0*, fade_time=120*)
  1: 0x003C [0x4B] UPDATE_ENTITY_YAW(entity=EventEntity, yaw=0.0°*)
  2: 0x0043 [0x00] END_REQSTACK()
```

### Event 65535.5

#### Metadata

| Field        | Value   |
|--------------|---------|
| Entrypoint   | 0x0044  |
| Data Size    | 4 bytes |
| Instructions | 2       |

```
      00 01 02 03 04 05 06 07  08 09 0A 0B 0C 0D 0E 0F
      -- -- -- -- -- -- -- --  -- -- -- -- -- -- -- --
0040:             39 0A 80 00                               9...        
```

#### Opcodes

```
  0: 0x0044 [0x39] SET_ENTITY_DIRECTION(direction=19.9°*)
  1: 0x0047 [0x00] END_REQSTACK()
```

### Event 65535.6

#### Metadata

| Field        | Value    |
|--------------|----------|
| Entrypoint   | 0x0048   |
| Data Size    | 33 bytes |
| Instructions | 7        |

```
      00 01 02 03 04 05 06 07  08 09 0A 0B 0C 0D 0E 0F
      -- -- -- -- -- -- -- --  -- -- -- -- -- -- -- --
0040:                          6C F8 FF FF 7F 0B 80 0C          l.......
0050: 80 32 0D 80 1F 00 0E 80  0F 80 02 80 1F 01 1F 00  .2..............
0060: 10 80 11 80 12 80 1F 01  00                       .........       
```

#### Opcodes

```
  0: 0x0048 [0x6C] FADE_ENTITY_COLOR(entity_id=EventEntity, end_alpha=128*, fade_time=1*)
  1: 0x0051 [0x32] ExtData[1]->MainSpeed = 40* * 0.1
  2: 0x0054 [0x1F] MOVE_ENTITY: EventEntity moves to X=-39.633*, Z=190.367*, Y=0.296*
  3: 0x005C [0x1F] MOVE_ENTITY: Update entity position (mode=1)
  4: 0x005E [0x1F] MOVE_ENTITY: EventEntity moves to X=315.149*, Z=401.341*, Y=0.046*
  5: 0x0066 [0x1F] MOVE_ENTITY: Update entity position (mode=1)
  6: 0x0068 [0x00] END_REQSTACK()
```

### Event 30

#### Metadata

| Field        | Value   |
|--------------|---------|
| Entrypoint   | 0x0069  |
| Data Size    | 1 bytes |
| Instructions | 1       |

```
      00 01 02 03 04 05 06 07  08 09 0A 0B 0C 0D 0E 0F
      -- -- -- -- -- -- -- --  -- -- -- -- -- -- -- --
0060:                             00                             .      
```

#### Opcodes

```
  0: 0x0069 [0x00] END_REQSTACK()
```

### Event 65535.7

#### Metadata

| Field        | Value    |
|--------------|----------|
| Entrypoint   | 0x006A   |
| Data Size    | 28 bytes |
| Instructions | 6        |

```
      00 01 02 03 04 05 06 07  08 09 0A 0B 0C 0D 0E 0F
      -- -- -- -- -- -- -- --  -- -- -- -- -- -- -- --
0060:                                2F 00 F8 FF FF 7F            /.....
0070: 92 01 F8 FF FF 7F B6 00  13 80 37 14 80 15 80 16  ..........7.....
0080: 80 17 80 22 00 00                                 ..."..          
```

#### Opcodes

```
  0: 0x006A [0x2F] EventEntity->Render.Flags0 &= ~0x80000 // Bit 19
  1: 0x0070 [0x92] EventEntity->Render.Flags3 ^= 0x01
  2: 0x0076 [0xB6] ENTITY_APPEARANCE_HANDLER(case=Hair style, value=382*)
  3: 0x007A [0x37] UPDATE_EVENT_POSITION_AND_DIR: x=290.469*, z=402.665*, y=0.321*, direction=2.5°*
  4: 0x0083 [0x22] ENTITY_HIDE_FLAG(enabled=0x00)
  5: 0x0085 [0x00] END_REQSTACK()
```

### Event 65535.8

#### Metadata

| Field        | Value    |
|--------------|----------|
| Entrypoint   | 0x0086   |
| Data Size    | 14 bytes |
| Instructions | 4        |

```
      00 01 02 03 04 05 06 07  08 09 0A 0B 0C 0D 0E 0F
      -- -- -- -- -- -- -- --  -- -- -- -- -- -- -- --
0080:                   32 04  80 1F 00 18 80 19 80 1A        2.........
0090: 80 1F 01 00                                       ....            
```

#### Opcodes

```
  0: 0x0086 [0x32] ExtData[1]->MainSpeed = 13* * 0.1
  1: 0x0089 [0x1F] MOVE_ENTITY: EventEntity moves to X=296.291*, Z=400.835*, Y=0.814*
  2: 0x0091 [0x1F] MOVE_ENTITY: Update entity position (mode=1)
  3: 0x0093 [0x00] END_REQSTACK()
```

### Event 31

#### Metadata

| Field        | Value   |
|--------------|---------|
| Entrypoint   | 0x0094  |
| Data Size    | 1 bytes |
| Instructions | 1       |

```
      00 01 02 03 04 05 06 07  08 09 0A 0B 0C 0D 0E 0F
      -- -- -- -- -- -- -- --  -- -- -- -- -- -- -- --
0090:             00                                        .           
```

#### Opcodes

```
  0: 0x0094 [0x00] END_REQSTACK()
```

### Event 65535.9

#### Metadata

| Field        | Value    |
|--------------|----------|
| Entrypoint   | 0x0095   |
| Data Size    | 22 bytes |
| Instructions | 5        |

```
      00 01 02 03 04 05 06 07  08 09 0A 0B 0C 0D 0E 0F
      -- -- -- -- -- -- -- --  -- -- -- -- -- -- -- --
0090:                2F 00 F8  FF FF 7F B6 00 13 80 37       /.........7
00A0: 1B 80 1C 80 1D 80 1E 80  22 00 00                 ........"..     
```

#### Opcodes

```
  0: 0x0095 [0x2F] EventEntity->Render.Flags0 &= ~0x80000 // Bit 19
  1: 0x009B [0xB6] ENTITY_APPEARANCE_HANDLER(case=Hair style, value=382*)
  2: 0x009F [0x37] UPDATE_EVENT_POSITION_AND_DIR: x=307.883*, z=398.783*, y=0.403*, direction=355.1°*
  3: 0x00A8 [0x22] ENTITY_HIDE_FLAG(enabled=0x00)
  4: 0x00AA [0x00] END_REQSTACK()
```

### Event 65535.10

#### Metadata

| Field        | Value    |
|--------------|----------|
| Entrypoint   | 0x00AB   |
| Data Size    | 21 bytes |
| Instructions | 7        |

```
      00 01 02 03 04 05 06 07  08 09 0A 0B 0C 0D 0E 0F
      -- -- -- -- -- -- -- --  -- -- -- -- -- -- -- --
00A0:                                   32 04 80 1F 00             2....
00B0: 1F 80 20 80 21 80 1F 01  1E 01 93 10 01 6F 70 00  .. .!........op.
```

#### Opcodes

```
  0: 0x00AB [0x32] ExtData[1]->MainSpeed = 13* * 0.1
  1: 0x00AE [0x1F] MOVE_ENTITY: EventEntity moves to X=314.844*, Z=397.781*, Y=0.056*
  2: 0x00B6 [0x1F] MOVE_ENTITY: Update entity position (mode=1)
  3: 0x00B8 [0x1E] EventEntity looks at Lhaiso Neftereh (ID: 17863425/0x01109301) and starts talking
  4: 0x00BD [0x6F] WAIT_FRAME_DELAY: Yield until WaitTime reaches zero
  5: 0x00BE [0x70] WAIT_ENTITY_RENDER_FLAG: Wait while EventEntity->Render.Flags3 bit 2 is set (cancel turn if not)
  6: 0x00BF [0x00] END_REQSTACK()
```

### Event 65535.11

#### Metadata

| Field        | Value    |
|--------------|----------|
| Entrypoint   | 0x00C0   |
| Data Size    | 21 bytes |
| Instructions | 7        |

```
      00 01 02 03 04 05 06 07  08 09 0A 0B 0C 0D 0E 0F
      -- -- -- -- -- -- -- --  -- -- -- -- -- -- -- --
00C0: 32 04 80 1F 00 22 80 23  80 24 80 1F 01 1E 01 93  2....".#.$......
00D0: 10 01 6F 70 00                                    ..op.           
```

#### Opcodes

```
  0: 0x00C0 [0x32] ExtData[1]->MainSpeed = 13* * 0.1
  1: 0x00C3 [0x1F] MOVE_ENTITY: EventEntity moves to X=314.991*, Z=399.693*, Y=0.047*
  2: 0x00CB [0x1F] MOVE_ENTITY: Update entity position (mode=1)
  3: 0x00CD [0x1E] EventEntity looks at Lhaiso Neftereh (ID: 17863425/0x01109301) and starts talking
  4: 0x00D2 [0x6F] WAIT_FRAME_DELAY: Yield until WaitTime reaches zero
  5: 0x00D3 [0x70] WAIT_ENTITY_RENDER_FLAG: Wait while EventEntity->Render.Flags3 bit 2 is set (cancel turn if not)
  6: 0x00D4 [0x00] END_REQSTACK()
```
