# 17863428 - Monster1

## Common Data

| Field            | Value                           |
|------------------|---------------------------------|
| Zone             | Morimar Basalt Fields (ID: 265) |
| Block Size       | 180 bytes                       |
| Total Events     | 6                               |
| References Count | 15                              |

## List of Events

| Event ID                 | Entrypoint   |   Size |   Instructions |
|--------------------------|--------------|--------|----------------|
| [65535](#event-65535)    | 0x0000       |      1 |              1 |
| [31](#event-31)          | 0x0001       |      1 |              1 |
| [65535.1](#event-655351) | 0x0002       |     18 |              4 |
| [65535.2](#event-655352) | 0x0014       |     27 |              7 |
| [65535.3](#event-655353) | 0x002F       |      1 |              1 |
| [65535.4](#event-655354) | 0x0030       |     30 |              8 |

## DAT References (imed_data)

|   Index | Hex Value   |   Dec Value |
|---------|-------------|-------------|
|       0 | 0x503A2     |      328610 |
|       1 | 0x6A0B0     |      434352 |
|       2 | 0x00ED      |         237 |
|       3 | 0x039E      |         926 |
|       4 | 0x000D      |          13 |
|       5 | 0x503EF     |      328687 |
|       6 | 0x651F2     |      414194 |
|       7 | 0x02BB      |         699 |
|       8 | 0x0460      |        1120 |
|       9 | 0x4E36A     |      320362 |
|      10 | 0x60C4E     |      396366 |
|      11 | 0x0000      |           0 |
|      12 | 0x09B0      |        2480 |
|      13 | 0x4DBB1     |      318385 |
|      14 | 0x61BAE     |      400302 |

## Events

### Event 65535

#### Metadata

| Field        | Value   |
|--------------|---------|
| Entrypoint   | 0x0000  |
| Data Size    | 1 bytes |
| Instructions | 1       |

```
      00 01 02 03 04 05 06 07  08 09 0A 0B 0C 0D 0E 0F
      -- -- -- -- -- -- -- --  -- -- -- -- -- -- -- --
0000: 00                                                .               
```

#### Opcodes

```
  0: 0x0000 [0x00] END_REQSTACK()
```

### Event 31

#### Metadata

| Field        | Value   |
|--------------|---------|
| Entrypoint   | 0x0001  |
| Data Size    | 1 bytes |
| Instructions | 1       |

```
      00 01 02 03 04 05 06 07  08 09 0A 0B 0C 0D 0E 0F
      -- -- -- -- -- -- -- --  -- -- -- -- -- -- -- --
0000:    00                                              .              
```

#### Opcodes

```
  0: 0x0001 [0x00] END_REQSTACK()
```

### Event 65535.1

#### Metadata

| Field        | Value    |
|--------------|----------|
| Entrypoint   | 0x0002   |
| Data Size    | 18 bytes |
| Instructions | 4        |

```
      00 01 02 03 04 05 06 07  08 09 0A 0B 0C 0D 0E 0F
      -- -- -- -- -- -- -- --  -- -- -- -- -- -- -- --
0000:       2F 00 F8 FF FF 7F  37 00 80 01 80 02 80 03    /.....7.......
0010: 80 22 00 00                                       ."..            
```

#### Opcodes

```
  0: 0x0002 [0x2F] EventEntity->Render.Flags0 &= ~0x80000 // Bit 19
  1: 0x0008 [0x37] UPDATE_EVENT_POSITION_AND_DIR: x=328.610*, z=434.352*, y=0.237*, direction=81.4°*
  2: 0x0011 [0x22] ENTITY_HIDE_FLAG(enabled=0x00)
  3: 0x0013 [0x00] END_REQSTACK()
```

### Event 65535.2

#### Metadata

| Field        | Value    |
|--------------|----------|
| Entrypoint   | 0x0014   |
| Data Size    | 27 bytes |
| Instructions | 7        |

```
      00 01 02 03 04 05 06 07  08 09 0A 0B 0C 0D 0E 0F
      -- -- -- -- -- -- -- --  -- -- -- -- -- -- -- --
0010:             32 04 80 1F  00 05 80 06 80 07 80 1F      2...........
0020: 01 4B F8 FF FF 7F 08 80  6F 76 F8 FF FF 7F 00     .K......ov..... 
```

#### Opcodes

```
  0: 0x0014 [0x32] ExtData[1]->MainSpeed = 13* * 0.1
  1: 0x0017 [0x1F] MOVE_ENTITY: EventEntity moves to X=328.687*, Z=414.194*, Y=0.699*
  2: 0x001F [0x1F] MOVE_ENTITY: Update entity position (mode=1)
  3: 0x0021 [0x4B] UPDATE_ENTITY_YAW(entity=EventEntity, yaw=6.2°*)
  4: 0x0028 [0x6F] WAIT_FRAME_DELAY: Yield until WaitTime reaches zero
  5: 0x0029 [0x76] CHECK_ENTITY_RENDER_FLAGS: Wait until EventEntity Render.Flags0 and Render.Flags3 conditions are met
  6: 0x002E [0x00] END_REQSTACK()
```

### Event 65535.3

#### Metadata

| Field        | Value   |
|--------------|---------|
| Entrypoint   | 0x002F  |
| Data Size    | 1 bytes |
| Instructions | 1       |

```
      00 01 02 03 04 05 06 07  08 09 0A 0B 0C 0D 0E 0F
      -- -- -- -- -- -- -- --  -- -- -- -- -- -- -- --
0020:                                               00                 .
```

#### Opcodes

```
  0: 0x002F [0x00] END_REQSTACK()
```

### Event 65535.4

#### Metadata

| Field        | Value    |
|--------------|----------|
| Entrypoint   | 0x0030   |
| Data Size    | 30 bytes |
| Instructions | 8        |

```
      00 01 02 03 04 05 06 07  08 09 0A 0B 0C 0D 0E 0F
      -- -- -- -- -- -- -- --  -- -- -- -- -- -- -- --
0030: 37 09 80 0A 80 0B 80 0C  80 32 04 80 1F 00 0D 80  7........2......
0040: 0E 80 0B 80 1F 01 1E 01  93 10 01 6F 70 00        ...........op.  
```

#### Opcodes

```
  0: 0x0030 [0x37] UPDATE_EVENT_POSITION_AND_DIR: x=320.362*, z=396.366*, y=0.000*, direction=218.0°*
  1: 0x0039 [0x32] ExtData[1]->MainSpeed = 13* * 0.1
  2: 0x003C [0x1F] MOVE_ENTITY: EventEntity moves to X=318.385*, Z=400.302*, Y=0.000*
  3: 0x0044 [0x1F] MOVE_ENTITY: Update entity position (mode=1)
  4: 0x0046 [0x1E] EventEntity looks at Lhaiso Neftereh (ID: 17863425/0x01109301) and starts talking
  5: 0x004B [0x6F] WAIT_FRAME_DELAY: Yield until WaitTime reaches zero
  6: 0x004C [0x70] WAIT_ENTITY_RENDER_FLAG: Wait while EventEntity->Render.Flags3 bit 2 is set (cancel turn if not)
  7: 0x004D [0x00] END_REQSTACK()
```
