# 0x7FFFFFF0 - Zone Events

## Common Data

| Field            | Value                           |
|------------------|---------------------------------|
| Zone             | Morimar Basalt Fields (ID: 265) |
| Block Size       | 1708 bytes                      |
| Total Events     | 40                              |
| References Count | 84                              |

## List of Events

| Event ID                   | Entrypoint   |   Size |   Instructions |
|----------------------------|--------------|--------|----------------|
| [65535](#event-65535)      | 0x0000       |      1 |              1 |
| [65534](#event-65534)      | 0x0001       |      1 |              1 |
| [65535.1](#event-655351)   | 0x0002       |     24 |              4 |
| [65535.2](#event-655352)   | 0x001A       |     24 |              4 |
| [65535.3](#event-655353)   | 0x0032       |     37 |              5 |
| [65535.4](#event-655354)   | 0x0057       |     37 |              5 |
| [65535.5](#event-655355)   | 0x007C       |     27 |              5 |
| [23](#event-23)            | 0x0097       |    109 |             15 |
| [65535.6](#event-655356)   | 0x0104       |      6 |              2 |
| [65535.7](#event-655357)   | 0x010A       |      6 |              2 |
| [65535.8](#event-655358)   | 0x0110       |      6 |              2 |
| [65535.9](#event-655359)   | 0x0116       |      6 |              2 |
| [65535.10](#event-6553510) | 0x011C       |     10 |              2 |
| [65535.11](#event-6553511) | 0x0126       |     10 |              2 |
| [65535.12](#event-6553512) | 0x0130       |     30 |              8 |
| [65535.13](#event-6553513) | 0x014E       |     10 |              2 |
| [65535.14](#event-6553514) | 0x0158       |     10 |              2 |
| [65535.15](#event-6553515) | 0x0162       |     27 |              3 |
| [65535.16](#event-6553516) | 0x017D       |     27 |              3 |
| [65535.17](#event-6553517) | 0x0198       |     14 |              4 |
| [65535.18](#event-6553518) | 0x01A6       |     10 |              2 |
| [65535.19](#event-6553519) | 0x01B0       |     14 |              4 |
| [65535.20](#event-6553520) | 0x01BE       |     10 |              2 |
| [65535.21](#event-6553521) | 0x01C8       |     10 |              2 |
| [65535.22](#event-6553522) | 0x01D2       |     14 |              4 |
| [65535.23](#event-6553523) | 0x01E0       |     14 |              4 |
| [65535.24](#event-6553524) | 0x01EE       |     21 |              7 |
| [65535.25](#event-6553525) | 0x0203       |     68 |             12 |
| [65535.26](#event-6553526) | 0x0247       |     42 |             11 |
| [65535.27](#event-6553527) | 0x0271       |     10 |              4 |
| [65535.28](#event-6553528) | 0x027B       |     10 |              4 |
| [65535.29](#event-6553529) | 0x0285       |    100 |             14 |
| [65535.30](#event-6553530) | 0x02E9       |     65 |             11 |
| [65535.31](#event-6553531) | 0x032A       |     74 |             13 |
| [65535.32](#event-6553532) | 0x0374       |     72 |             12 |
| [65535.33](#event-6553533) | 0x03BC       |     42 |              7 |
| [65535.34](#event-6553534) | 0x03E6       |      3 |              2 |
| [65535.35](#event-6553535) | 0x03E9       |     16 |              4 |
| [65535.36](#event-6553536) | 0x03F9       |     16 |              4 |
| [65535.37](#event-6553537) | 0x0409       |    163 |             37 |

## DAT References (imed_data)

|   Index | Hex Value   |   Dec Value |
|---------|-------------|-------------|
|       0 | 0x0001      |           1 |
|       1 | 0x0000      |           0 |
|       2 | 0x0014      |          20 |
|       3 | 0x00C8      |         200 |
|       4 | 0x0078      |         120 |
|       5 | 0x0002      |           2 |
|       6 | 0x56CF8     |      355576 |
|       7 | 0x7D77      |       32119 |
|       8 | 0xFFFFC163  |  4294951267 |
|       9 | 0x01AC      |         428 |
|      10 | 0x75F86     |      483206 |
|      11 | 0x42BFA     |      273402 |
|      12 | 0xFFFFC181  |  4294951297 |
|      13 | 0x0244      |         580 |
|      14 | 0xFFFFFA24  |  4294965796 |
|      15 | 0x003C      |          60 |
|      16 | 0x000D      |          13 |
|      17 | 0x75ADD     |      482013 |
|      18 | 0x43079     |      274553 |
|      19 | 0x4A1D3     |      303571 |
|      20 | 0x5F323     |      389923 |
|      21 | 0x0015      |          21 |
|      22 | 0x05A7      |        1447 |
|      23 | 0x522A4     |      336548 |
|      24 | 0x60530     |      394544 |
|      25 | 0xFFFFFF00  |  4294967040 |
|      26 | 0x0514      |        1300 |
|      27 | 0x0028      |          40 |
|      28 | 0x516DA     |      333530 |
|      29 | 0x601E1     |      393697 |
|      30 | 0x0003      |           3 |
|      31 | 0x4AF4B     |      307019 |
|      32 | 0x5F90B     |      391435 |
|      33 | 0x0F77      |        3959 |
|      34 | 0x515D0     |      333264 |
|      35 | 0x6009D     |      393373 |
|      36 | 0xFFFFFFF5  |  4294967285 |
|      37 | 0x4DEE9     |      319209 |
|      38 | 0x61A97     |      400023 |
|      39 | 0x0BC1      |        3009 |
|      40 | 0x50C19     |      330777 |
|      41 | 0x605B8     |      394680 |
|      42 | 0x0098      |         152 |
|      43 | 0x0BA4      |        2980 |
|      44 | 0x4FD74     |      327028 |
|      45 | 0x608E8     |      395496 |
|      46 | 0xFFFFFFF0  |  4294967280 |
|      47 | 0x4EB52     |      322386 |
|      48 | 0x60EA2     |      396962 |
|      49 | 0x4F837     |      325687 |
|      50 | 0x60E69     |      396905 |
|      51 | 0x0053      |          83 |
|      52 | 0xFFFF4144  |  4294918468 |
|      53 | 0x2A9BA     |      174522 |
|      54 | 0x05E8      |        1512 |
|      55 | 0x04A3      |        1187 |
|      56 | 0xFFFF38EE  |  4294916334 |
|      57 | 0x29EEF     |      171759 |
|      58 | 0x063E      |        1598 |
|      59 | 0x0918      |        2328 |
|      60 | 0x05AA      |        1450 |
|      61 | 0x07D0      |        2000 |
|      62 | 0x0400      |        1024 |
|      63 | 0xFFFF3BFB  |  4294917115 |
|      64 | 0x29EFE     |      171774 |
|      65 | 0x082F      |        2095 |
|      66 | 0x052C      |        1324 |
|      67 | 0x0012      |          18 |
|      68 | 0xFFFF408A  |  4294918282 |
|      69 | 0x2A1F7     |      172535 |
|      70 | 0x0646      |        1606 |
|      71 | 0xFFFF3C4B  |  4294917195 |
|      72 | 0x29E49     |      171593 |
|      73 | 0x0642      |        1602 |
|      74 | 0x0D58      |        3416 |
|      75 | 0x51E22     |      335394 |
|      76 | 0x60858     |      395352 |
|      77 | 0xFFFFFFDA  |  4294967258 |
|      78 | 0x0005      |           5 |
|      79 | 0x000A      |          10 |
|      80 | 0x0009      |           9 |
|      81 | 0x0046      |          70 |
|      82 | 0x008C      |         140 |
|      83 | 0x00D2      |         210 |

## Events

### Event 65535

#### Metadata

| Field        | Value   |
|--------------|---------|
| Entrypoint   | 0x0000  |
| Data Size    | 1 bytes |
| Instructions | 1       |

```
      00 01 02 03 04 05 06 07  08 09 0A 0B 0C 0D 0E 0F
      -- -- -- -- -- -- -- --  -- -- -- -- -- -- -- --
0000: 00                                                .               
```

#### Opcodes

```
  0: 0x0000 [0x00] END_REQSTACK()
```

### Event 65534

#### Metadata

| Field        | Value   |
|--------------|---------|
| Entrypoint   | 0x0001  |
| Data Size    | 1 bytes |
| Instructions | 1       |

```
      00 01 02 03 04 05 06 07  08 09 0A 0B 0C 0D 0E 0F
      -- -- -- -- -- -- -- --  -- -- -- -- -- -- -- --
0000:    00                                              .              
```

#### Opcodes

```
  0: 0x0001 [0x00] END_REQSTACK()
```

### Event 65535.1

#### Metadata

| Field        | Value    |
|--------------|----------|
| Entrypoint   | 0x0002   |
| Data Size    | 24 bytes |
| Instructions | 4        |

```
      00 01 02 03 04 05 06 07  08 09 0A 0B 0C 0D 0E 0F
      -- -- -- -- -- -- -- --  -- -- -- -- -- -- -- --
0000:       03 04 00 07 7F 1A  18 04 66 05 00 F8 FF FF    ........f.....
0010: 7F F8 FF FF 7F 74 6C 6B  30 00                    .....tlk0.      
```

#### Opcodes

```
  0: 0x0002 [0x03] ExtData[1]->WorkLocal[4] = Entity->Race
  1: 0x0007 [0x1A] CALL_SUBROUTINE(address=0x0418)
  2: 0x000A [0x66] LOAD_EXT_SCHEDULER_MAIN: Load scheduler "tlk0" with entities [EventEntity, EventEntity], work=ExtData[1]->WorkLocal[5]
  3: 0x0019 [0x00] END_REQSTACK()
```

### Event 65535.2

#### Metadata

| Field        | Value    |
|--------------|----------|
| Entrypoint   | 0x001A   |
| Data Size    | 24 bytes |
| Instructions | 4        |

```
      00 01 02 03 04 05 06 07  08 09 0A 0B 0C 0D 0E 0F
      -- -- -- -- -- -- -- --  -- -- -- -- -- -- -- --
0010:                                03 04 00 07 7F 1A            ......
0020: 18 04 66 05 00 F8 FF FF  7F F8 FF FF 7F 74 6C 6B  ..f..........tlk
0030: 31 00                                             1.              
```

#### Opcodes

```
  0: 0x001A [0x03] ExtData[1]->WorkLocal[4] = Entity->Race
  1: 0x001F [0x1A] CALL_SUBROUTINE(address=0x0418)
  2: 0x0022 [0x66] LOAD_EXT_SCHEDULER_MAIN: Load scheduler "tlk1" with entities [EventEntity, EventEntity], work=ExtData[1]->WorkLocal[5]
  3: 0x0031 [0x00] END_REQSTACK()
```

### Event 65535.3

#### Metadata

| Field        | Value    |
|--------------|----------|
| Entrypoint   | 0x0032   |
| Data Size    | 37 bytes |
| Instructions | 5        |

```
      00 01 02 03 04 05 06 07  08 09 0A 0B 0C 0D 0E 0F
      -- -- -- -- -- -- -- --  -- -- -- -- -- -- -- --
0030:       03 04 00 07 7F 1A  18 04 66 05 00 F8 FF FF    ........f.....
0040: 7F F8 FF FF 7F 73 68 61  30 53 F8 FF FF 7F F8 FF  .....sha0S......
0050: FF 7F 73 68 61 30 00                              ..sha0.         
```

#### Opcodes

```
  0: 0x0032 [0x03] ExtData[1]->WorkLocal[4] = Entity->Race
  1: 0x0037 [0x1A] CALL_SUBROUTINE(address=0x0418)
  2: 0x003A [0x66] LOAD_EXT_SCHEDULER_MAIN: Load scheduler "sha0" with entities [EventEntity, EventEntity], work=ExtData[1]->WorkLocal[5]
  3: 0x0049 [0x53] WAIT_SCHEDULER_TASK: Wait for scheduler "sha0" with entities [EventEntity, EventEntity]
  4: 0x0056 [0x00] END_REQSTACK()
```

### Event 65535.4

#### Metadata

| Field        | Value    |
|--------------|----------|
| Entrypoint   | 0x0057   |
| Data Size    | 37 bytes |
| Instructions | 5        |

```
      00 01 02 03 04 05 06 07  08 09 0A 0B 0C 0D 0E 0F
      -- -- -- -- -- -- -- --  -- -- -- -- -- -- -- --
0050:                      03  04 00 07 7F 1A 18 04 66         ........f
0060: 05 00 F8 FF FF 7F F8 FF  FF 7F 73 68 61 31 53 F8  ..........sha1S.
0070: FF FF 7F F8 FF FF 7F 73  68 61 31 00              .......sha1.    
```

#### Opcodes

```
  0: 0x0057 [0x03] ExtData[1]->WorkLocal[4] = Entity->Race
  1: 0x005C [0x1A] CALL_SUBROUTINE(address=0x0418)
  2: 0x005F [0x66] LOAD_EXT_SCHEDULER_MAIN: Load scheduler "sha1" with entities [EventEntity, EventEntity], work=ExtData[1]->WorkLocal[5]
  3: 0x006E [0x53] WAIT_SCHEDULER_TASK: Wait for scheduler "sha1" with entities [EventEntity, EventEntity]
  4: 0x007B [0x00] END_REQSTACK()
```

### Event 65535.5

#### Metadata

| Field        | Value    |
|--------------|----------|
| Entrypoint   | 0x007C   |
| Data Size    | 27 bytes |
| Instructions | 5        |

```
      00 01 02 03 04 05 06 07  08 09 0A 0B 0C 0D 0E 0F
      -- -- -- -- -- -- -- --  -- -- -- -- -- -- -- --
0070:                                      03 04 00 07              ....
0080: 7F 1A 3D 04 0B 05 00 66  05 00 F8 FF FF 7F F8 FF  ..=....f........
0090: FF 7F 70 61 73 30 00                              ..pas0.         
```

#### Opcodes

```
  0: 0x007C [0x03] ExtData[1]->WorkLocal[4] = Entity->Race
  1: 0x0081 [0x1A] CALL_SUBROUTINE(address=0x043D)
  2: 0x0084 [0x0B] ExtData[1]->WorkLocal[5]++
  3: 0x0087 [0x66] LOAD_EXT_SCHEDULER_MAIN: Load scheduler "pas0" with entities [EventEntity, EventEntity], work=ExtData[1]->WorkLocal[5]
  4: 0x0096 [0x00] END_REQSTACK()
```

### Event 23

#### Metadata

| Field        | Value     |
|--------------|-----------|
| Entrypoint   | 0x0097    |
| Data Size    | 109 bytes |
| Instructions | 15        |

```
      00 01 02 03 04 05 06 07  08 09 0A 0B 0C 0D 0E 0F
      -- -- -- -- -- -- -- --  -- -- -- -- -- -- -- --
0090:                      42  03 00 00 02 10 03 01 00         B........
00A0: 03 10 03 02 00 04 10 03  03 00 05 10 62 00 80 F0  ............b...
00B0: FF FF 7F F0 FF FF 7F 6D  61 69 6E 01 80 1C 02 80  .......main.....
00C0: 45 03 80 F0 FF FF 7F F0  FF FF 7F 66 64 6F 31 01  E..........fdo1.
00D0: 80 1C 04 80 47 00 00 00  02 00 01 00 03 00 47 01  ....G.........G.
00E0: 45 03 80 F0 FF FF 7F F0  FF FF 7F 66 64 69 31 01  E..........fdi1.
00F0: 80 62 05 80 F0 FF FF 7F  F0 FF FF 7F 6D 61 69 6E  .b..........main
0100: 01 80 21 00                                       ..!.            
```

#### Opcodes

```
  0: 0x0097 [0x42] SET_CLI_EVENT_CANCEL_DATA()
  1: 0x0098 [0x03] ExtData[1]->WorkLocal[0] = Work_Zone[2]
  2: 0x009D [0x03] ExtData[1]->WorkLocal[1] = Work_Zone[3]
  3: 0x00A2 [0x03] ExtData[1]->WorkLocal[2] = Work_Zone[4]
  4: 0x00A7 [0x03] ExtData[1]->WorkLocal[3] = Work_Zone[5]
  5: 0x00AC [0x62] LOAD_EVENT_SCHEDULER: Load scheduler "main" with entities [LocalPlayer, LocalPlayer], work=[1*, 0*]
  6: 0x00BD [0x1C] WAIT(20* ticks)
  7: 0x00C0 [0x45] LOAD_SCHEDULED_TASK: Load scheduler "fdo1" with entities [LocalPlayer, LocalPlayer], work=[200*, 0*]
  8: 0x00D1 [0x1C] WAIT(120* ticks)
  9: 0x00D4 [0x47] UPDATE_PLAYER_POS(ExtData[1]->WorkLocal[0], ExtData[1]->WorkLocal[2], ExtData[1]->WorkLocal[1], yaw=ExtData[1]->WorkLocal[3])
 10: 0x00DE [0x47] WAIT_PLAYER_POS_UPDATE
 11: 0x00E0 [0x45] LOAD_SCHEDULED_TASK: Load scheduler "fdi1" with entities [LocalPlayer, LocalPlayer], work=[200*, 0*]
 12: 0x00F1 [0x62] LOAD_EVENT_SCHEDULER: Load scheduler "main" with entities [LocalPlayer, LocalPlayer], work=[2*, 0*]
 13: 0x0102 [0x21] END_EVENT
 14: 0x0103 [0x00] END_REQSTACK()
```

### Event 65535.6

#### Metadata

| Field        | Value   |
|--------------|---------|
| Entrypoint   | 0x0104  |
| Data Size    | 6 bytes |
| Instructions | 2       |

```
      00 01 02 03 04 05 06 07  08 09 0A 0B 0C 0D 0E 0F
      -- -- -- -- -- -- -- --  -- -- -- -- -- -- -- --
0100:             03 02 10 0B  7F 00                        ......      
```

#### Opcodes

```
  0: 0x0104 [0x03] Work_Zone[2] = (Entity->Render.Flags01 >> 25) & 1
  1: 0x0109 [0x00] END_REQSTACK()
```

### Event 65535.7

#### Metadata

| Field        | Value   |
|--------------|---------|
| Entrypoint   | 0x010A  |
| Data Size    | 6 bytes |
| Instructions | 2       |

```
      00 01 02 03 04 05 06 07  08 09 0A 0B 0C 0D 0E 0F
      -- -- -- -- -- -- -- --  -- -- -- -- -- -- -- --
0100:                                03 02 10 07 7F 00            ......
```

#### Opcodes

```
  0: 0x010A [0x03] Work_Zone[2] = Entity->Race
  1: 0x010F [0x00] END_REQSTACK()
```

### Event 65535.8

#### Metadata

| Field        | Value   |
|--------------|---------|
| Entrypoint   | 0x0110  |
| Data Size    | 6 bytes |
| Instructions | 2       |

```
      00 01 02 03 04 05 06 07  08 09 0A 0B 0C 0D 0E 0F
      -- -- -- -- -- -- -- --  -- -- -- -- -- -- -- --
0110: 03 09 10 07 7F 00                                 ......          
```

#### Opcodes

```
  0: 0x0110 [0x03] Work_Zone[9] = Entity->Race
  1: 0x0115 [0x00] END_REQSTACK()
```

### Event 65535.9

#### Metadata

| Field        | Value   |
|--------------|---------|
| Entrypoint   | 0x0116  |
| Data Size    | 6 bytes |
| Instructions | 2       |

```
      00 01 02 03 04 05 06 07  08 09 0A 0B 0C 0D 0E 0F
      -- -- -- -- -- -- -- --  -- -- -- -- -- -- -- --
0110:                   03 02  10 06 7F 00                    ......    
```

#### Opcodes

```
  0: 0x0116 [0x03] Work_Zone[2] = Entity->JobId (if LocalPlayer)
  1: 0x011B [0x00] END_REQSTACK()
```

### Event 65535.10

#### Metadata

| Field        | Value    |
|--------------|----------|
| Entrypoint   | 0x011C   |
| Data Size    | 10 bytes |
| Instructions | 2        |

```
      00 01 02 03 04 05 06 07  08 09 0A 0B 0C 0D 0E 0F
      -- -- -- -- -- -- -- --  -- -- -- -- -- -- -- --
0110:                                      37 06 80 07              7...
0120: 80 08 80 09 80 00                                 ......          
```

#### Opcodes

```
  0: 0x011C [0x37] UPDATE_EVENT_POSITION_AND_DIR: x=355.576*, z=32.119*, y=-16.029*, direction=37.6°*
  1: 0x0125 [0x00] END_REQSTACK()
```

### Event 65535.11

#### Metadata

| Field        | Value    |
|--------------|----------|
| Entrypoint   | 0x0126   |
| Data Size    | 10 bytes |
| Instructions | 2        |

```
      00 01 02 03 04 05 06 07  08 09 0A 0B 0C 0D 0E 0F
      -- -- -- -- -- -- -- --  -- -- -- -- -- -- -- --
0120:                   37 0A  80 0B 80 0C 80 0D 80 00        7.........
```

#### Opcodes

```
  0: 0x0126 [0x37] UPDATE_EVENT_POSITION_AND_DIR: x=483.206*, z=273.402*, y=-15.999*, direction=51.0°*
  1: 0x012F [0x00] END_REQSTACK()
```

### Event 65535.12

#### Metadata

| Field        | Value    |
|--------------|----------|
| Entrypoint   | 0x0130   |
| Data Size    | 30 bytes |
| Instructions | 8        |

```
      00 01 02 03 04 05 06 07  08 09 0A 0B 0C 0D 0E 0F
      -- -- -- -- -- -- -- --  -- -- -- -- -- -- -- --
0130: 4B F0 FF FF 7F 0E 80 6F  76 F0 FF FF 7F 1C 0F 80  K......ov.......
0140: 32 10 80 1F 00 11 80 12  80 0C 80 1F 01 00        2.............  
```

#### Opcodes

```
  0: 0x0130 [0x4B] UPDATE_ENTITY_YAW(entity=LocalPlayer, yaw=351.8°*)
  1: 0x0137 [0x6F] WAIT_FRAME_DELAY: Yield until WaitTime reaches zero
  2: 0x0138 [0x76] CHECK_ENTITY_RENDER_FLAGS: Wait until LocalPlayer Render.Flags0 and Render.Flags3 conditions are met
  3: 0x013D [0x1C] WAIT(60* ticks)
  4: 0x0140 [0x32] ExtData[1]->MainSpeed = 13* * 0.1
  5: 0x0143 [0x1F] MOVE_ENTITY: EventEntity moves to X=482.013*, Z=274.553*, Y=-15.999*
  6: 0x014B [0x1F] MOVE_ENTITY: Update entity position (mode=1)
  7: 0x014D [0x00] END_REQSTACK()
```

### Event 65535.13

#### Metadata

| Field        | Value    |
|--------------|----------|
| Entrypoint   | 0x014E   |
| Data Size    | 10 bytes |
| Instructions | 2        |

```
      00 01 02 03 04 05 06 07  08 09 0A 0B 0C 0D 0E 0F
      -- -- -- -- -- -- -- --  -- -- -- -- -- -- -- --
0140:                                            37 13                7.
0150: 80 14 80 15 80 16 80 00                           ........        
```

#### Opcodes

```
  0: 0x014E [0x37] UPDATE_EVENT_POSITION_AND_DIR: x=303.571*, z=389.923*, y=0.021*, direction=127.2°*
  1: 0x0157 [0x00] END_REQSTACK()
```

### Event 65535.14

#### Metadata

| Field        | Value    |
|--------------|----------|
| Entrypoint   | 0x0158   |
| Data Size    | 10 bytes |
| Instructions | 2        |

```
      00 01 02 03 04 05 06 07  08 09 0A 0B 0C 0D 0E 0F
      -- -- -- -- -- -- -- --  -- -- -- -- -- -- -- --
0150:                          37 17 80 18 80 19 80 1A          7.......
0160: 80 00                                             ..              
```

#### Opcodes

```
  0: 0x0158 [0x37] UPDATE_EVENT_POSITION_AND_DIR: x=336.548*, z=394.544*, y=-0.256*, direction=114.3°*
  1: 0x0161 [0x00] END_REQSTACK()
```

### Event 65535.15

#### Metadata

| Field        | Value    |
|--------------|----------|
| Entrypoint   | 0x0162   |
| Data Size    | 27 bytes |
| Instructions | 3        |

```
      00 01 02 03 04 05 06 07  08 09 0A 0B 0C 0D 0E 0F
      -- -- -- -- -- -- -- --  -- -- -- -- -- -- -- --
0160:       2C F0 FF FF 7F F0  FF FF 7F 72 65 73 30 53    ,........res0S
0170: F8 FF FF 7F F8 FF FF 7F  72 65 73 30 00           ........res0.   
```

#### Opcodes

```
  0: 0x0162 [0x2C] CREATE_SCHEDULER_TASK: Create scheduler "res0" with entities [LocalPlayer, LocalPlayer]
  1: 0x016F [0x53] WAIT_SCHEDULER_TASK: Wait for scheduler "res0" with entities [EventEntity, EventEntity]
  2: 0x017C [0x00] END_REQSTACK()
```

### Event 65535.16

#### Metadata

| Field        | Value    |
|--------------|----------|
| Entrypoint   | 0x017D   |
| Data Size    | 27 bytes |
| Instructions | 3        |

```
      00 01 02 03 04 05 06 07  08 09 0A 0B 0C 0D 0E 0F
      -- -- -- -- -- -- -- --  -- -- -- -- -- -- -- --
0170:                                         2C F0 FF               ,..
0180: FF 7F F0 FF FF 7F 72 65  73 32 53 F8 FF FF 7F F8  ......res2S.....
0190: FF FF 7F 72 65 73 32 00                           ...res2.        
```

#### Opcodes

```
  0: 0x017D [0x2C] CREATE_SCHEDULER_TASK: Create scheduler "res2" with entities [LocalPlayer, LocalPlayer]
  1: 0x018A [0x53] WAIT_SCHEDULER_TASK: Wait for scheduler "res2" with entities [EventEntity, EventEntity]
  2: 0x0197 [0x00] END_REQSTACK()
```

### Event 65535.17

#### Metadata

| Field        | Value    |
|--------------|----------|
| Entrypoint   | 0x0198   |
| Data Size    | 14 bytes |
| Instructions | 4        |

```
      00 01 02 03 04 05 06 07  08 09 0A 0B 0C 0D 0E 0F
      -- -- -- -- -- -- -- --  -- -- -- -- -- -- -- --
0190:                          32 1B 80 1F 00 1C 80 1D          2.......
01A0: 80 1E 80 1F 01 00                                 ......          
```

#### Opcodes

```
  0: 0x0198 [0x32] ExtData[1]->MainSpeed = 40* * 0.1
  1: 0x019B [0x1F] MOVE_ENTITY: EventEntity moves to X=333.530*, Z=393.697*, Y=0.003*
  2: 0x01A3 [0x1F] MOVE_ENTITY: Update entity position (mode=1)
  3: 0x01A5 [0x00] END_REQSTACK()
```

### Event 65535.18

#### Metadata

| Field        | Value    |
|--------------|----------|
| Entrypoint   | 0x01A6   |
| Data Size    | 10 bytes |
| Instructions | 2        |

```
      00 01 02 03 04 05 06 07  08 09 0A 0B 0C 0D 0E 0F
      -- -- -- -- -- -- -- --  -- -- -- -- -- -- -- --
01A0:                   37 1F  80 20 80 01 80 21 80 00        7.. ...!..
```

#### Opcodes

```
  0: 0x01A6 [0x37] UPDATE_EVENT_POSITION_AND_DIR: x=307.019*, z=391.435*, y=0.000*, direction=347.9°*
  1: 0x01AF [0x00] END_REQSTACK()
```

### Event 65535.19

#### Metadata

| Field        | Value    |
|--------------|----------|
| Entrypoint   | 0x01B0   |
| Data Size    | 14 bytes |
| Instructions | 4        |

```
      00 01 02 03 04 05 06 07  08 09 0A 0B 0C 0D 0E 0F
      -- -- -- -- -- -- -- --  -- -- -- -- -- -- -- --
01B0: 32 1B 80 1F 00 22 80 23  80 24 80 1F 01 00        2....".#.$....  
```

#### Opcodes

```
  0: 0x01B0 [0x32] ExtData[1]->MainSpeed = 40* * 0.1
  1: 0x01B3 [0x1F] MOVE_ENTITY: EventEntity moves to X=333.264*, Z=393.373*, Y=-0.011*
  2: 0x01BB [0x1F] MOVE_ENTITY: Update entity position (mode=1)
  3: 0x01BD [0x00] END_REQSTACK()
```

### Event 65535.20

#### Metadata

| Field        | Value    |
|--------------|----------|
| Entrypoint   | 0x01BE   |
| Data Size    | 10 bytes |
| Instructions | 2        |

```
      00 01 02 03 04 05 06 07  08 09 0A 0B 0C 0D 0E 0F
      -- -- -- -- -- -- -- --  -- -- -- -- -- -- -- --
01B0:                                            37 25                7%
01C0: 80 26 80 01 80 27 80 00                           .&...'..        
```

#### Opcodes

```
  0: 0x01BE [0x37] UPDATE_EVENT_POSITION_AND_DIR: x=319.209*, z=400.023*, y=0.000*, direction=264.5°*
  1: 0x01C7 [0x00] END_REQSTACK()
```

### Event 65535.21

#### Metadata

| Field        | Value    |
|--------------|----------|
| Entrypoint   | 0x01C8   |
| Data Size    | 10 bytes |
| Instructions | 2        |

```
      00 01 02 03 04 05 06 07  08 09 0A 0B 0C 0D 0E 0F
      -- -- -- -- -- -- -- --  -- -- -- -- -- -- -- --
01C0:                          37 28 80 29 80 2A 80 2B          7(.).*.+
01D0: 80 00                                             ..              
```

#### Opcodes

```
  0: 0x01C8 [0x37] UPDATE_EVENT_POSITION_AND_DIR: x=330.777*, z=394.680*, y=0.152*, direction=261.9°*
  1: 0x01D1 [0x00] END_REQSTACK()
```

### Event 65535.22

#### Metadata

| Field        | Value    |
|--------------|----------|
| Entrypoint   | 0x01D2   |
| Data Size    | 14 bytes |
| Instructions | 4        |

```
      00 01 02 03 04 05 06 07  08 09 0A 0B 0C 0D 0E 0F
      -- -- -- -- -- -- -- --  -- -- -- -- -- -- -- --
01D0:       32 1B 80 1F 00 2C  80 2D 80 2E 80 1F 01 00    2....,.-......
```

#### Opcodes

```
  0: 0x01D2 [0x32] ExtData[1]->MainSpeed = 40* * 0.1
  1: 0x01D5 [0x1F] MOVE_ENTITY: EventEntity moves to X=327.028*, Z=395.496*, Y=-0.016*
  2: 0x01DD [0x1F] MOVE_ENTITY: Update entity position (mode=1)
  3: 0x01DF [0x00] END_REQSTACK()
```

### Event 65535.23

#### Metadata

| Field        | Value    |
|--------------|----------|
| Entrypoint   | 0x01E0   |
| Data Size    | 14 bytes |
| Instructions | 4        |

```
      00 01 02 03 04 05 06 07  08 09 0A 0B 0C 0D 0E 0F
      -- -- -- -- -- -- -- --  -- -- -- -- -- -- -- --
01E0: 32 1B 80 1F 00 2F 80 30  80 01 80 1F 01 00        2..../.0......  
```

#### Opcodes

```
  0: 0x01E0 [0x32] ExtData[1]->MainSpeed = 40* * 0.1
  1: 0x01E3 [0x1F] MOVE_ENTITY: EventEntity moves to X=322.386*, Z=396.962*, Y=0.000*
  2: 0x01EB [0x1F] MOVE_ENTITY: Update entity position (mode=1)
  3: 0x01ED [0x00] END_REQSTACK()
```

### Event 65535.24

#### Metadata

| Field        | Value    |
|--------------|----------|
| Entrypoint   | 0x01EE   |
| Data Size    | 21 bytes |
| Instructions | 7        |

```
      00 01 02 03 04 05 06 07  08 09 0A 0B 0C 0D 0E 0F
      -- -- -- -- -- -- -- --  -- -- -- -- -- -- -- --
01E0:                                            32 1B                2.
01F0: 80 1F 00 31 80 32 80 33  80 1F 01 1E 00 93 10 01  ...1.2.3........
0200: 6F 70 00                                          op.             
```

#### Opcodes

```
  0: 0x01EE [0x32] ExtData[1]->MainSpeed = 40* * 0.1
  1: 0x01F1 [0x1F] MOVE_ENTITY: EventEntity moves to X=325.687*, Z=396.905*, Y=0.083*
  2: 0x01F9 [0x1F] MOVE_ENTITY: Update entity position (mode=1)
  3: 0x01FB [0x1E] EventEntity looks at Sylvie (ID: 17863424/0x01109300) and starts talking
  4: 0x0200 [0x6F] WAIT_FRAME_DELAY: Yield until WaitTime reaches zero
  5: 0x0201 [0x70] WAIT_ENTITY_RENDER_FLAG: Wait while EventEntity->Render.Flags3 bit 2 is set (cancel turn if not)
  6: 0x0202 [0x00] END_REQSTACK()
```

### Event 65535.25

#### Metadata

| Field        | Value    |
|--------------|----------|
| Entrypoint   | 0x0203   |
| Data Size    | 68 bytes |
| Instructions | 12       |

```
      00 01 02 03 04 05 06 07  08 09 0A 0B 0C 0D 0E 0F
      -- -- -- -- -- -- -- --  -- -- -- -- -- -- -- --
0200:          37 34 80 35 80  36 80 37 80 32 10 80 1F     74.5.6.7.2...
0210: 00 38 80 39 80 3A 80 1F  01 4B F0 FF FF 7F 3B 80  .8.9.:...K....;.
0220: 6F 70 03 04 00 07 7F 1A  18 04 66 05 00 F8 FF FF  op........f.....
0230: 7F F8 FF FF 7F 73 68 61  30 53 F8 FF FF 7F F8 FF  .....sha0S......
0240: FF 7F 73 68 61 30 00                              ..sha0.         
```

#### Opcodes

```
  0: 0x0203 [0x37] UPDATE_EVENT_POSITION_AND_DIR: x=-48.828*, z=174.522*, y=1.512*, direction=104.3°*
  1: 0x020C [0x32] ExtData[1]->MainSpeed = 13* * 0.1
  2: 0x020F [0x1F] MOVE_ENTITY: EventEntity moves to X=-50.962*, Z=171.759*, Y=1.598*
  3: 0x0217 [0x1F] MOVE_ENTITY: Update entity position (mode=1)
  4: 0x0219 [0x4B] UPDATE_ENTITY_YAW(entity=LocalPlayer, yaw=12.8°*)
  5: 0x0220 [0x6F] WAIT_FRAME_DELAY: Yield until WaitTime reaches zero
  6: 0x0221 [0x70] WAIT_ENTITY_RENDER_FLAG: Wait while EventEntity->Render.Flags3 bit 2 is set (cancel turn if not)
  7: 0x0222 [0x03] ExtData[1]->WorkLocal[4] = Entity->Race
  8: 0x0227 [0x1A] CALL_SUBROUTINE(address=0x0418)
  9: 0x022A [0x66] LOAD_EXT_SCHEDULER_MAIN: Load scheduler "sha0" with entities [EventEntity, EventEntity], work=ExtData[1]->WorkLocal[5]
 10: 0x0239 [0x53] WAIT_SCHEDULER_TASK: Wait for scheduler "sha0" with entities [EventEntity, EventEntity]
 11: 0x0246 [0x00] END_REQSTACK()
```

### Event 65535.26

#### Metadata

| Field        | Value    |
|--------------|----------|
| Entrypoint   | 0x0247   |
| Data Size    | 42 bytes |
| Instructions | 11       |

```
      00 01 02 03 04 05 06 07  08 09 0A 0B 0C 0D 0E 0F
      -- -- -- -- -- -- -- --  -- -- -- -- -- -- -- --
0240:                      A5  01 33 01 37 34 80 35 80         ..3.74.5.
0250: 36 80 37 80 32 10 80 1F  00 38 80 39 80 3C 80 1F  6.7.2....8.9.<..
0260: 01 4B F0 FF FF 7F 3B 80  6F 76 F0 FF FF 7F A5 00  .K....;.ov......
0270: 00                                                .               
```

#### Opcodes

```
  0: 0x0247 [0xA5] EventEntity->Flags3.BallistaTeam |= 0x08  // Set bit 3 of BallistaTeam
  1: 0x0249 [0x33] EventEntity->Render.Flags0 |= 0x200000 // Bit 21 (flag=0x01)
  2: 0x024B [0x37] UPDATE_EVENT_POSITION_AND_DIR: x=-48.828*, z=174.522*, y=1.512*, direction=104.3°*
  3: 0x0254 [0x32] ExtData[1]->MainSpeed = 13* * 0.1
  4: 0x0257 [0x1F] MOVE_ENTITY: EventEntity moves to X=-50.962*, Z=171.759*, Y=1.450*
  5: 0x025F [0x1F] MOVE_ENTITY: Update entity position (mode=1)
  6: 0x0261 [0x4B] UPDATE_ENTITY_YAW(entity=LocalPlayer, yaw=12.8°*)
  7: 0x0268 [0x6F] WAIT_FRAME_DELAY: Yield until WaitTime reaches zero
  8: 0x0269 [0x76] CHECK_ENTITY_RENDER_FLAGS: Wait until LocalPlayer Render.Flags0 and Render.Flags3 conditions are met
  9: 0x026E [0xA5] EventEntity->Flags3.BallistaTeam &= ~0x08  // Clear bit 3 of BallistaTeam
 10: 0x0270 [0x00] END_REQSTACK()
```

### Event 65535.27

#### Metadata

| Field        | Value    |
|--------------|----------|
| Entrypoint   | 0x0271   |
| Data Size    | 10 bytes |
| Instructions | 4        |

```
      00 01 02 03 04 05 06 07  08 09 0A 0B 0C 0D 0E 0F
      -- -- -- -- -- -- -- --  -- -- -- -- -- -- -- --
0270:    4B F0 FF FF 7F 3D 80  6F 70 00                  K....=.op.     
```

#### Opcodes

```
  0: 0x0271 [0x4B] UPDATE_ENTITY_YAW(entity=LocalPlayer, yaw=11.0°*)
  1: 0x0278 [0x6F] WAIT_FRAME_DELAY: Yield until WaitTime reaches zero
  2: 0x0279 [0x70] WAIT_ENTITY_RENDER_FLAG: Wait while EventEntity->Render.Flags3 bit 2 is set (cancel turn if not)
  3: 0x027A [0x00] END_REQSTACK()
```

### Event 65535.28

#### Metadata

| Field        | Value    |
|--------------|----------|
| Entrypoint   | 0x027B   |
| Data Size    | 10 bytes |
| Instructions | 4        |

```
      00 01 02 03 04 05 06 07  08 09 0A 0B 0C 0D 0E 0F
      -- -- -- -- -- -- -- --  -- -- -- -- -- -- -- --
0270:                                   4B F0 FF FF 7F             K....
0280: 3E 80 6F 70 00                                    >.op.           
```

#### Opcodes

```
  0: 0x027B [0x4B] UPDATE_ENTITY_YAW(entity=LocalPlayer, yaw=5.6°*)
  1: 0x0282 [0x6F] WAIT_FRAME_DELAY: Yield until WaitTime reaches zero
  2: 0x0283 [0x70] WAIT_ENTITY_RENDER_FLAG: Wait while EventEntity->Render.Flags3 bit 2 is set (cancel turn if not)
  3: 0x0284 [0x00] END_REQSTACK()
```

### Event 65535.29

#### Metadata

| Field        | Value     |
|--------------|-----------|
| Entrypoint   | 0x0285    |
| Data Size    | 100 bytes |
| Instructions | 14        |

```
      00 01 02 03 04 05 06 07  08 09 0A 0B 0C 0D 0E 0F
      -- -- -- -- -- -- -- --  -- -- -- -- -- -- -- --
0280:                37 3F 80  40 80 41 80 42 80 03 04       7?.@.A.B...
0290: 00 07 7F 1A 18 04 66 05  00 F8 FF FF 7F F8 FF FF  ......f.........
02A0: 7F 73 68 61 31 53 F8 FF  FF 7F F8 FF FF 7F 73 68  .sha1S........sh
02B0: 61 31 6E F8 FF FF 7F 43  80 99 F8 FF FF 7F 1C 04  a1n....C........
02C0: 80 2C F0 FF FF 7F F0 FF  FF 7F 63 6F 72 70 53 F0  .,........corpS.
02D0: FF FF 7F F0 FF FF 7F 63  6F 72 70 33 01 37 44 80  .......corp3.7D.
02E0: 45 80 46 80 42 80 33 01  00                       E.F.B.3..       
```

#### Opcodes

```
  0: 0x0285 [0x37] UPDATE_EVENT_POSITION_AND_DIR: x=-50.181*, z=171.774*, y=2.095*, direction=116.4°*
  1: 0x028E [0x03] ExtData[1]->WorkLocal[4] = Entity->Race
  2: 0x0293 [0x1A] CALL_SUBROUTINE(address=0x0418)
  3: 0x0296 [0x66] LOAD_EXT_SCHEDULER_MAIN: Load scheduler "sha1" with entities [EventEntity, EventEntity], work=ExtData[1]->WorkLocal[5]
  4: 0x02A5 [0x53] WAIT_SCHEDULER_TASK: Wait for scheduler "sha1" with entities [EventEntity, EventEntity]
  5: 0x02B2 [0x6E] EventEntity uses emote 18*
  6: 0x02B9 [0x99] Wait for EventEntity animation to complete
  7: 0x02BE [0x1C] WAIT(120* ticks)
  8: 0x02C1 [0x2C] CREATE_SCHEDULER_TASK: Create scheduler "corp" with entities [LocalPlayer, LocalPlayer]
  9: 0x02CE [0x53] WAIT_SCHEDULER_TASK: Wait for scheduler "corp" with entities [LocalPlayer, LocalPlayer]
 10: 0x02DB [0x33] EventEntity->Render.Flags0 |= 0x200000 // Bit 21 (flag=0x01)
 11: 0x02DD [0x37] UPDATE_EVENT_POSITION_AND_DIR: x=-49.014*, z=172.535*, y=1.606*, direction=116.4°*
 12: 0x02E6 [0x33] EventEntity->Render.Flags0 |= 0x200000 // Bit 21 (flag=0x01)
 13: 0x02E8 [0x00] END_REQSTACK()
```

### Event 65535.30

#### Metadata

| Field        | Value    |
|--------------|----------|
| Entrypoint   | 0x02E9   |
| Data Size    | 65 bytes |
| Instructions | 11       |

```
      00 01 02 03 04 05 06 07  08 09 0A 0B 0C 0D 0E 0F
      -- -- -- -- -- -- -- --  -- -- -- -- -- -- -- --
02E0:                             33 01 37 3F 80 40 80           3.7?.@.
02F0: 1A 80 3E 80 33 01 03 04  00 07 7F 1A 18 04 66 05  ..>.3.........f.
0300: 00 F8 FF FF 7F F8 FF FF  7F 73 68 61 31 53 F8 FF  .........sha1S..
0310: FF 7F F8 FF FF 7F 73 68  61 31 6E F8 FF FF 7F 43  ......sha1n....C
0320: 80 99 F8 FF FF 7F 1C 04  80 00                    ..........      
```

#### Opcodes

```
  0: 0x02E9 [0x33] EventEntity->Render.Flags0 |= 0x200000 // Bit 21 (flag=0x01)
  1: 0x02EB [0x37] UPDATE_EVENT_POSITION_AND_DIR: x=-50.181*, z=171.774*, y=1.300*, direction=90.0°*
  2: 0x02F4 [0x33] EventEntity->Render.Flags0 |= 0x200000 // Bit 21 (flag=0x01)
  3: 0x02F6 [0x03] ExtData[1]->WorkLocal[4] = Entity->Race
  4: 0x02FB [0x1A] CALL_SUBROUTINE(address=0x0418)
  5: 0x02FE [0x66] LOAD_EXT_SCHEDULER_MAIN: Load scheduler "sha1" with entities [EventEntity, EventEntity], work=ExtData[1]->WorkLocal[5]
  6: 0x030D [0x53] WAIT_SCHEDULER_TASK: Wait for scheduler "sha1" with entities [EventEntity, EventEntity]
  7: 0x031A [0x6E] EventEntity uses emote 18*
  8: 0x0321 [0x99] Wait for EventEntity animation to complete
  9: 0x0326 [0x1C] WAIT(120* ticks)
 10: 0x0329 [0x00] END_REQSTACK()
```

### Event 65535.31

#### Metadata

| Field        | Value    |
|--------------|----------|
| Entrypoint   | 0x032A   |
| Data Size    | 74 bytes |
| Instructions | 13       |

```
      00 01 02 03 04 05 06 07  08 09 0A 0B 0C 0D 0E 0F
      -- -- -- -- -- -- -- --  -- -- -- -- -- -- -- --
0320:                                33 00 37 47 80 48            3.7G.H
0330: 80 49 80 4A 80 03 04 00  07 7F 1A 18 04 66 05 00  .I.J.........f..
0340: F8 FF FF 7F F8 FF FF 7F  73 68 61 31 53 F8 FF FF  ........sha1S...
0350: 7F F8 FF FF 7F 73 68 61  31 4A F0 FF FF 7F 05 93  .....sha1J......
0360: 10 01 6F 70 6E F8 FF FF  7F 15 80 99 F8 FF FF 7F  ..opn...........
0370: 1C 03 80 00                                       ....            
```

#### Opcodes

```
  0: 0x032A [0x33] EventEntity->Render.Flags0 &= ~ 0x200000 // Bit 21 (flag=0x00)
  1: 0x032C [0x37] UPDATE_EVENT_POSITION_AND_DIR: x=-50.101*, z=171.593*, y=1.602*, direction=300.2°*
  2: 0x0335 [0x03] ExtData[1]->WorkLocal[4] = Entity->Race
  3: 0x033A [0x1A] CALL_SUBROUTINE(address=0x0418)
  4: 0x033D [0x66] LOAD_EXT_SCHEDULER_MAIN: Load scheduler "sha1" with entities [EventEntity, EventEntity], work=ExtData[1]->WorkLocal[5]
  5: 0x034C [0x53] WAIT_SCHEDULER_TASK: Wait for scheduler "sha1" with entities [EventEntity, EventEntity]
  6: 0x0359 [0x4A] LocalPlayer looks at Monster2 (ID: 17863429/0x01109305)
  7: 0x0362 [0x6F] WAIT_FRAME_DELAY: Yield until WaitTime reaches zero
  8: 0x0363 [0x70] WAIT_ENTITY_RENDER_FLAG: Wait while EventEntity->Render.Flags3 bit 2 is set (cancel turn if not)
  9: 0x0364 [0x6E] EventEntity uses emote 21*
 10: 0x036B [0x99] Wait for EventEntity animation to complete
 11: 0x0370 [0x1C] WAIT(200* ticks)
 12: 0x0373 [0x00] END_REQSTACK()
```

### Event 65535.32

#### Metadata

| Field        | Value    |
|--------------|----------|
| Entrypoint   | 0x0374   |
| Data Size    | 72 bytes |
| Instructions | 12       |

```
      00 01 02 03 04 05 06 07  08 09 0A 0B 0C 0D 0E 0F
      -- -- -- -- -- -- -- --  -- -- -- -- -- -- -- --
0370:             37 3F 80 40  80 3C 80 3E 80 03 04 00      7?.@.<.>....
0380: 07 7F 1A 18 04 66 05 00  F8 FF FF 7F F8 FF FF 7F  .....f..........
0390: 73 68 61 31 53 F8 FF FF  7F F8 FF FF 7F 73 68 61  sha1S........sha
03A0: 31 4A F0 FF FF 7F 05 93  10 01 6F 70 6E F8 FF FF  1J........opn...
03B0: 7F 15 80 99 F8 FF FF 7F  1C 03 80 00              ............    
```

#### Opcodes

```
  0: 0x0374 [0x37] UPDATE_EVENT_POSITION_AND_DIR: x=-50.181*, z=171.774*, y=1.450*, direction=90.0°*
  1: 0x037D [0x03] ExtData[1]->WorkLocal[4] = Entity->Race
  2: 0x0382 [0x1A] CALL_SUBROUTINE(address=0x0418)
  3: 0x0385 [0x66] LOAD_EXT_SCHEDULER_MAIN: Load scheduler "sha1" with entities [EventEntity, EventEntity], work=ExtData[1]->WorkLocal[5]
  4: 0x0394 [0x53] WAIT_SCHEDULER_TASK: Wait for scheduler "sha1" with entities [EventEntity, EventEntity]
  5: 0x03A1 [0x4A] LocalPlayer looks at Monster2 (ID: 17863429/0x01109305)
  6: 0x03AA [0x6F] WAIT_FRAME_DELAY: Yield until WaitTime reaches zero
  7: 0x03AB [0x70] WAIT_ENTITY_RENDER_FLAG: Wait while EventEntity->Render.Flags3 bit 2 is set (cancel turn if not)
  8: 0x03AC [0x6E] EventEntity uses emote 21*
  9: 0x03B3 [0x99] Wait for EventEntity animation to complete
 10: 0x03B8 [0x1C] WAIT(200* ticks)
 11: 0x03BB [0x00] END_REQSTACK()
```

### Event 65535.33

#### Metadata

| Field        | Value    |
|--------------|----------|
| Entrypoint   | 0x03BC   |
| Data Size    | 42 bytes |
| Instructions | 7        |

```
      00 01 02 03 04 05 06 07  08 09 0A 0B 0C 0D 0E 0F
      -- -- -- -- -- -- -- --  -- -- -- -- -- -- -- --
03B0:                                      2C F0 FF FF              ,...
03C0: 7F F0 FF FF 7F 63 6F 72  70 53 F0 FF FF 7F F0 FF  .....corpS......
03D0: FF 7F 63 6F 72 70 33 01  37 44 80 45 80 3C 80 3E  ..corp3.7D.E.<.>
03E0: 80 33 01 A5 01 00                                 .3....          
```

#### Opcodes

```
  0: 0x03BC [0x2C] CREATE_SCHEDULER_TASK: Create scheduler "corp" with entities [LocalPlayer, LocalPlayer]
  1: 0x03C9 [0x53] WAIT_SCHEDULER_TASK: Wait for scheduler "corp" with entities [LocalPlayer, LocalPlayer]
  2: 0x03D6 [0x33] EventEntity->Render.Flags0 |= 0x200000 // Bit 21 (flag=0x01)
  3: 0x03D8 [0x37] UPDATE_EVENT_POSITION_AND_DIR: x=-49.014*, z=172.535*, y=1.450*, direction=90.0°*
  4: 0x03E1 [0x33] EventEntity->Render.Flags0 |= 0x200000 // Bit 21 (flag=0x01)
  5: 0x03E3 [0xA5] EventEntity->Flags3.BallistaTeam |= 0x08  // Set bit 3 of BallistaTeam
  6: 0x03E5 [0x00] END_REQSTACK()
```

### Event 65535.34

#### Metadata

| Field        | Value   |
|--------------|---------|
| Entrypoint   | 0x03E6  |
| Data Size    | 3 bytes |
| Instructions | 2       |

```
      00 01 02 03 04 05 06 07  08 09 0A 0B 0C 0D 0E 0F
      -- -- -- -- -- -- -- --  -- -- -- -- -- -- -- --
03E0:                   A5 00  00                             ...       
```

#### Opcodes

```
  0: 0x03E6 [0xA5] EventEntity->Flags3.BallistaTeam &= ~0x08  // Clear bit 3 of BallistaTeam
  1: 0x03E8 [0x00] END_REQSTACK()
```

### Event 65535.35

#### Metadata

| Field        | Value    |
|--------------|----------|
| Entrypoint   | 0x03E9   |
| Data Size    | 16 bytes |
| Instructions | 4        |

```
      00 01 02 03 04 05 06 07  08 09 0A 0B 0C 0D 0E 0F
      -- -- -- -- -- -- -- --  -- -- -- -- -- -- -- --
03E0:                             6E F8 FF FF 7F 15 80           n......
03F0: 99 F8 FF FF 7F 1C 04 80  00                       .........       
```

#### Opcodes

```
  0: 0x03E9 [0x6E] EventEntity uses emote 21*
  1: 0x03F0 [0x99] Wait for EventEntity animation to complete
  2: 0x03F5 [0x1C] WAIT(120* ticks)
  3: 0x03F8 [0x00] END_REQSTACK()
```

### Event 65535.36

#### Metadata

| Field        | Value    |
|--------------|----------|
| Entrypoint   | 0x03F9   |
| Data Size    | 16 bytes |
| Instructions | 4        |

```
      00 01 02 03 04 05 06 07  08 09 0A 0B 0C 0D 0E 0F
      -- -- -- -- -- -- -- --  -- -- -- -- -- -- -- --
03F0:                             6E F8 FF FF 7F 01 80           n......
0400: 99 F8 FF FF 7F 1C 04 80  00                       .........       
```

#### Opcodes

```
  0: 0x03F9 [0x6E] EventEntity uses emote 0*
  1: 0x0400 [0x99] Wait for EventEntity animation to complete
  2: 0x0405 [0x1C] WAIT(120* ticks)
  3: 0x0408 [0x00] END_REQSTACK()
```

### Event 65535.37

#### Metadata

| Field        | Value     |
|--------------|-----------|
| Entrypoint   | 0x0409    |
| Data Size    | 163 bytes |
| Instructions | 5         |

```
      00 01 02 03 04 05 06 07  08 09 0A 0B 0C 0D 0E 0F
      -- -- -- -- -- -- -- --  -- -- -- -- -- -- -- --
0400:                             32 1B 80 1F 00 4B 80           2....K.
0410: 4C 80 4D 80 1F 01 6F 00  03 05 00 04 00 02 05 00  L.M...o.........
0420: 4E 80 05 2D 04 08 05 00  00 80 01 32 04 08 05 00  N..-.......2....
0430: 05 80 14 05 00 4F 80 07  05 00 50 80 1B 03 05 00  .....O....P.....
0440: 04 00 02 05 00 4E 80 05  52 04 08 05 00 00 80 01  .....N..R.......
0450: 57 04 08 05 00 05 80 14  05 00 4F 80 07 05 00 51  W.........O....Q
0460: 80 1B 03 05 00 04 00 02  05 00 4E 80 05 77 04 08  ..........N..w..
0470: 05 00 00 80 01 7C 04 08  05 00 05 80 14 05 00 4F  .....|.........O
0480: 80 07 05 00 52 80 1B 03  05 00 04 00 02 05 00 4E  ....R..........N
0490: 80 05 9C 04 08 05 00 00  80 01 A1 04 08 05 00 05  ................
04A0: 80 14 05 00 4F 80 07 05  00 53 80 1B              ....O....S..    
```

#### Opcodes

```
  0: 0x0409 [0x32] ExtData[1]->MainSpeed = 40* * 0.1
  1: 0x040C [0x1F] MOVE_ENTITY: EventEntity moves to X=335.394*, Z=395.352*, Y=-0.038*
  2: 0x0414 [0x1F] MOVE_ENTITY: Update entity position (mode=1)
  3: 0x0416 [0x6F] WAIT_FRAME_DELAY: Yield until WaitTime reaches zero
  4: 0x0417 [0x00] END_REQSTACK()
```

#### Data or dead code:

```
# Dead code (unreachable instructions):
     0x0418 [0x03] ExtData[1]->WorkLocal[5] = ExtData[1]->WorkLocal[4]
     0x041D [0x02] IF !(ExtData[1]->WorkLocal[5] > 5*) GOTO 0x042D
     0x0425 [0x08] ExtData[1]->WorkLocal[5] -= 1*
     0x042A [0x01] GOTO 0x0432
     0x042D [0x08] ExtData[1]->WorkLocal[5] -= 2*
     0x0432 [0x14] ExtData[1]->WorkLocal[5] *= 10*
     0x0437 [0x07] ExtData[1]->WorkLocal[5] += 9*
     0x043C [0x1B] RETURN
     0x043D [0x03] ExtData[1]->WorkLocal[5] = ExtData[1]->WorkLocal[4]
     0x0442 [0x02] IF !(ExtData[1]->WorkLocal[5] > 5*) GOTO 0x0452
     0x044A [0x08] ExtData[1]->WorkLocal[5] -= 1*
     0x044F [0x01] GOTO 0x0457
     0x0452 [0x08] ExtData[1]->WorkLocal[5] -= 2*
     0x0457 [0x14] ExtData[1]->WorkLocal[5] *= 10*
     0x045C [0x07] ExtData[1]->WorkLocal[5] += 70*
     0x0461 [0x1B] RETURN
     0x0462 [0x03] ExtData[1]->WorkLocal[5] = ExtData[1]->WorkLocal[4]
     0x0467 [0x02] IF !(ExtData[1]->WorkLocal[5] > 5*) GOTO 0x0477
     0x046F [0x08] ExtData[1]->WorkLocal[5] -= 1*
     0x0474 [0x01] GOTO 0x047C
     0x0477 [0x08] ExtData[1]->WorkLocal[5] -= 2*
     0x047C [0x14] ExtData[1]->WorkLocal[5] *= 10*
     0x0481 [0x07] ExtData[1]->WorkLocal[5] += 140*
     0x0486 [0x1B] RETURN
     0x0487 [0x03] ExtData[1]->WorkLocal[5] = ExtData[1]->WorkLocal[4]
     0x048C [0x02] IF !(ExtData[1]->WorkLocal[5] > 5*) GOTO 0x049C
     0x0494 [0x08] ExtData[1]->WorkLocal[5] -= 1*
     0x0499 [0x01] GOTO 0x04A1
     0x049C [0x08] ExtData[1]->WorkLocal[5] -= 2*
     0x04A1 [0x14] ExtData[1]->WorkLocal[5] *= 10*
     0x04A6 [0x07] ExtData[1]->WorkLocal[5] += 210*
     0x04AB [0x1B] RETURN
```
