# 16818285

## Common Data

| Field            | Value                     |
|------------------|---------------------------|
| Zone             | The Shrouded Maw (ID: 10) |
| Block Size       | 196 bytes                 |
| Total Events     | 8                         |
| References Count | 12                        |

## List of Events

| Event ID                 | Entrypoint   |   Size |   Instructions |
|--------------------------|--------------|--------|----------------|
| [65535](#event-65535)    | 0x0000       |      1 |              1 |
| [65534](#event-65534)    | 0x0001       |      1 |              1 |
| [65535.1](#event-655351) | 0x0002       |     10 |              2 |
| [65535.2](#event-655352) | 0x000C       |     10 |              2 |
| [65535.3](#event-655353) | 0x0016       |     10 |              2 |
| [65535.4](#event-655354) | 0x0020       |     10 |              2 |
| [65535.5](#event-655355) | 0x002A       |     44 |              5 |
| [65535.6](#event-655356) | 0x0056       |     13 |              3 |

## DAT References (imed_data)

|   Index | Hex Value   |   Dec Value |
|---------|-------------|-------------|
|       0 | 0x0080      |         128 |
|       1 | 0x00F0      |         240 |
|       2 | 0x0000      |           0 |
|       3 | 0x005A      |          90 |
|       4 | 0x3C2EB     |      246507 |
|       5 | 0x55E24     |      351780 |
|       6 | 0xFFFFE0C1  |  4294959297 |
|       7 | 0x0826      |        2086 |
|       8 | 0x0013      |          19 |
|       9 | 0x0055      |          85 |
|      10 | 0x00B4      |         180 |
|      11 | 0x001E      |          30 |

## Events

### Event 65535

#### Metadata

| Field        | Value   |
|--------------|---------|
| Entrypoint   | 0x0000  |
| Data Size    | 1 bytes |
| Instructions | 1       |

```
      00 01 02 03 04 05 06 07  08 09 0A 0B 0C 0D 0E 0F
      -- -- -- -- -- -- -- --  -- -- -- -- -- -- -- --
0000: 00                                                .               
```

#### Opcodes

```
  0: 0x0000 [0x00] END_REQSTACK()
```

### Event 65534

#### Metadata

| Field        | Value   |
|--------------|---------|
| Entrypoint   | 0x0001  |
| Data Size    | 1 bytes |
| Instructions | 1       |

```
      00 01 02 03 04 05 06 07  08 09 0A 0B 0C 0D 0E 0F
      -- -- -- -- -- -- -- --  -- -- -- -- -- -- -- --
0000:    00                                              .              
```

#### Opcodes

```
  0: 0x0001 [0x00] END_REQSTACK()
```

### Event 65535.1

#### Metadata

| Field        | Value    |
|--------------|----------|
| Entrypoint   | 0x0002   |
| Data Size    | 10 bytes |
| Instructions | 2        |

```
      00 01 02 03 04 05 06 07  08 09 0A 0B 0C 0D 0E 0F
      -- -- -- -- -- -- -- --  -- -- -- -- -- -- -- --
0000:       6C 6F A0 00 01 00  80 01 80 00                lo........    
```

#### Opcodes

```
  0: 0x0002 [0x6C] FADE_ENTITY_COLOR(entity_id=Selh'teus (ID: 16818287/0x0100A06F), end_alpha=128*, fade_time=240*)
  1: 0x000B [0x00] END_REQSTACK()
```

### Event 65535.2

#### Metadata

| Field        | Value    |
|--------------|----------|
| Entrypoint   | 0x000C   |
| Data Size    | 10 bytes |
| Instructions | 2        |

```
      00 01 02 03 04 05 06 07  08 09 0A 0B 0C 0D 0E 0F
      -- -- -- -- -- -- -- --  -- -- -- -- -- -- -- --
0000:                                      6C 6F A0 00              lo..
0010: 01 02 80 01 80 00                                 ......          
```

#### Opcodes

```
  0: 0x000C [0x6C] FADE_ENTITY_COLOR(entity_id=Selh'teus (ID: 16818287/0x0100A06F), end_alpha=0*, fade_time=240*)
  1: 0x0015 [0x00] END_REQSTACK()
```

### Event 65535.3

#### Metadata

| Field        | Value    |
|--------------|----------|
| Entrypoint   | 0x0016   |
| Data Size    | 10 bytes |
| Instructions | 2        |

```
      00 01 02 03 04 05 06 07  08 09 0A 0B 0C 0D 0E 0F
      -- -- -- -- -- -- -- --  -- -- -- -- -- -- -- --
0010:                   6C 71  A0 00 01 00 80 03 80 00        lq........
```

#### Opcodes

```
  0: 0x0016 [0x6C] FADE_ENTITY_COLOR(entity_id=Diabolos (ID: 16818289/0x0100A071), end_alpha=128*, fade_time=90*)
  1: 0x001F [0x00] END_REQSTACK()
```

### Event 65535.4

#### Metadata

| Field        | Value    |
|--------------|----------|
| Entrypoint   | 0x0020   |
| Data Size    | 10 bytes |
| Instructions | 2        |

```
      00 01 02 03 04 05 06 07  08 09 0A 0B 0C 0D 0E 0F
      -- -- -- -- -- -- -- --  -- -- -- -- -- -- -- --
0020: 37 04 80 05 80 06 80 07  80 00                    7.........      
```

#### Opcodes

```
  0: 0x0020 [0x37] UPDATE_EVENT_POSITION_AND_DIR: x=246.507*, z=351.780*, y=-7.999*, direction=183.3°*
  1: 0x0029 [0x00] END_REQSTACK()
```

### Event 65535.5

#### Metadata

| Field        | Value    |
|--------------|----------|
| Entrypoint   | 0x002A   |
| Data Size    | 44 bytes |
| Instructions | 5        |

```
      00 01 02 03 04 05 06 07  08 09 0A 0B 0C 0D 0E 0F
      -- -- -- -- -- -- -- --  -- -- -- -- -- -- -- --
0020:                                AE 00 08 80 01 80            ......
0030: 9F 09 80 73 A0 00 01 73  A0 00 01 6D 61 69 6E 02  ...s...s...main.
0040: 80 1C 0A 80 9F 09 80 72  A0 00 01 72 A0 00 01 6D  .......r...r...m
0050: 61 69 6E 02 80 00                                 ain...          
```

#### Opcodes

```
  0: 0x002A [0xAE] MULTI_PURPOSE_ENTITY_HANDLER(case_type=0x00 - Weather, param1=19*, param2=240*)
  1: 0x0030 [0x9F] LOAD_SCHEDULED_TASK_ALT: Load scheduler "main" with entities [Diabolos (ID: 16818291/0x0100A073), Diabolos (ID: 16818291/0x0100A073)], work=[85*, 0*]
  2: 0x0041 [0x1C] WAIT(180* ticks)
  3: 0x0044 [0x9F] LOAD_SCHEDULED_TASK_ALT: Load scheduler "main" with entities [Diabolos (ID: 16818290/0x0100A072), Diabolos (ID: 16818290/0x0100A072)], work=[85*, 0*]
  4: 0x0055 [0x00] END_REQSTACK()
```

### Event 65535.6

#### Metadata

| Field        | Value    |
|--------------|----------|
| Entrypoint   | 0x0056   |
| Data Size    | 13 bytes |
| Instructions | 3        |

```
      00 01 02 03 04 05 06 07  08 09 0A 0B 0C 0D 0E 0F
      -- -- -- -- -- -- -- --  -- -- -- -- -- -- -- --
0050:                   1C 0B  80 4A F0 FF FF 7F 70 A0        ...J....p.
0060: 00 01 00                                          ...             
```

#### Opcodes

```
  0: 0x0056 [0x1C] WAIT(30* ticks)
  1: 0x0059 [0x4A] LocalPlayer looks at Tenzen (ID: 16818288/0x0100A070)
  2: 0x0062 [0x00] END_REQSTACK()
```
