# 0x7FFFFFF0 - Zone Events

## Common Data

| Field            | Value                     |
|------------------|---------------------------|
| Zone             | The Shrouded Maw (ID: 10) |
| Block Size       | 14580 bytes               |
| Total Events     | 15                        |
| References Count | 341                       |

## List of Events

| Event ID                 | Entrypoint   |   Size |   Instructions |
|--------------------------|--------------|--------|----------------|
| [65535](#event-65535)    | 0x0000       |      1 |              1 |
| [65534](#event-65534)    | 0x0001       |      1 |              1 |
| [32000](#event-32000)    | 0x0002       |   2307 |            445 |
| [32002](#event-32002)    | 0x0905       |    494 |             83 |
| [32001](#event-32001)    | 0x0AF3       |   1033 |            179 |
| [32003](#event-32003)    | 0x0EFC       |    435 |             77 |
| [32004](#event-32004)    | 0x10AF       |   8770 |           1030 |
| [65535.1](#event-655351) | 0x32F1       |     10 |              2 |
| [65535.2](#event-655352) | 0x32FB       |     15 |              5 |
| [65535.3](#event-655353) | 0x330A       |     15 |              5 |
| [65535.4](#event-655354) | 0x3319       |     10 |              2 |
| [65535.5](#event-655355) | 0x3323       |     10 |              2 |
| [65535.6](#event-655356) | 0x332D       |     10 |              2 |
| [65535.7](#event-655357) | 0x3337       |     15 |              3 |
| [65535.8](#event-655358) | 0x3346       |     14 |              4 |

## DAT References (imed_data)

|   Index | Hex Value   |   Dec Value |
|---------|-------------|-------------|
|       0 | 0x0000      |           0 |
|       1 | 0x000F      |          15 |
|       2 | 0x0010      |          16 |
|       3 | 0x001F      |          31 |
|       4 | 0xFFFFFFFF  |  4294967295 |
|       5 | 0x0001      |           1 |
|       6 | 0x1DB6      |        7606 |
|       7 | 0x1D0A      |        7434 |
|       8 | 0x0005      |           5 |
|       9 | 0x0002      |           2 |
|      10 | 0x0003      |           3 |
|      11 | 0x0004      |           4 |
|      12 | 0x1B9C      |        7068 |
|      13 | 0x00FF      |         255 |
|      14 | 0x00C8      |         200 |
|      15 | 0x0013      |          19 |
|      16 | 0x0008      |           8 |
|      17 | 0x0009      |           9 |
|      18 | 0x000B      |          11 |
|      19 | 0xFFFC5680  |  4294727296 |
|      20 | 0x35B60     |      220000 |
|      21 | 0xFFFFC277  |  4294951543 |
|      22 | 0x0C00      |        3072 |
|      23 | 0xFFFF15A0  |  4294907296 |
|      24 | 0x5EB6      |       24246 |
|      25 | 0x445C0     |      280000 |
|      26 | 0xFFFACFE0  |  4294627296 |
|      27 | 0xFAF6      |       64246 |
|      28 | 0x1BA7      |        7079 |
|      29 | 0x1BA8      |        7080 |
|      30 | 0x1BA9      |        7081 |
|      31 | 0x1BAA      |        7082 |
|      32 | 0x1BCE      |        7118 |
|      33 | 0x0006      |           6 |
|      34 | 0x0012      |          18 |
|      35 | 0x0007      |           7 |
|      36 | 0x000A      |          10 |
|      37 | 0x000C      |          12 |
|      38 | 0x000D      |          13 |
|      39 | 0x000E      |          14 |
|      40 | 0x0011      |          17 |
|      41 | 0x0014      |          20 |
|      42 | 0x0015      |          21 |
|      43 | 0x0016      |          22 |
|      44 | 0x0017      |          23 |
|      45 | 0x0018      |          24 |
|      46 | 0x0019      |          25 |
|      47 | 0x001A      |          26 |
|      48 | 0x001B      |          27 |
|      49 | 0x001C      |          28 |
|      50 | 0x001D      |          29 |
|      51 | 0x001E      |          30 |
|      52 | 0x1D03      |        7427 |
|      53 | 0x1D08      |        7432 |
|      54 | 0x1D07      |        7431 |
|      55 | 0x003C      |          60 |
|      56 | 0x1DB4      |        7604 |
|      57 | 0x1DB3      |        7603 |
|      58 | 0x0064      |         100 |
|      59 | 0x1CEF      |        7407 |
|      60 | 0x00DC      |         220 |
|      61 | 0x1B9F      |        7071 |
|      62 | 0x00C9      |         201 |
|      63 | 0x1DB7      |        7607 |
|      64 | 0x00B4      |         180 |
|      65 | 0xFFF6C42B  |  4294362155 |
|      66 | 0x752B9     |      479929 |
|      67 | 0xFFFFA767  |  4294944615 |
|      68 | 0x03E0      |         992 |
|      69 | 0xFFFBFE43  |  4294704707 |
|      70 | 0x5C401     |      377857 |
|      71 | 0xFFFDE79F  |  4294829983 |
|      72 | 0x0D92      |        3474 |
|      73 | 0x47AC      |       18348 |
|      74 | 0x76E1C     |      486940 |
|      75 | 0xFFFC93B2  |  4294742962 |
|      76 | 0x00C2      |         194 |
|      77 | 0x388A9     |      231593 |
|      78 | 0x57E9E     |      360094 |
|      79 | 0xFFFD59FC  |  4294793724 |
|      80 | 0x0726      |        1830 |
|      81 | 0x872C0     |      553664 |
|      82 | 0x7FEA3     |      523939 |
|      83 | 0xFFFF6AC3  |  4294929091 |
|      84 | 0x0A65      |        2661 |
|      85 | 0xFFFB6BEC  |  4294667244 |
|      86 | 0xFFFC3ACB  |  4294720203 |
|      87 | 0x0C0E      |        3086 |
|      88 | 0xFFF2A593  |  4294092179 |
|      89 | 0xFFFF548C  |  4294923404 |
|      90 | 0xFFFF442C  |  4294919212 |
|      91 | 0x0201      |         513 |
|      92 | 0xFFF478D5  |  4294211797 |
|      93 | 0x89AEB     |      563947 |
|      94 | 0xFFFE4A5D  |  4294855261 |
|      95 | 0x0DEF      |        3567 |
|      96 | 0x1E173     |      123251 |
|      97 | 0xB8221     |      754209 |
|      98 | 0xFFFD5FA4  |  4294795172 |
|      99 | 0x01B8      |         440 |
|     100 | 0xFFF81ECC  |  4294450892 |
|     101 | 0xFFF3BE05  |  4294163973 |
|     102 | 0x5E8E      |       24206 |
|     103 | 0x01B5      |         437 |
|     104 | 0x012C      |         300 |
|     105 | 0x0080      |         128 |
|     106 | 0xFFF690A7  |  4294348967 |
|     107 | 0xFFF62CE4  |  4294323428 |
|     108 | 0xFFFF9B33  |  4294941491 |
|     109 | 0x0EB1      |        3761 |
|     110 | 0xFFFAEE7D  |  4294635133 |
|     111 | 0xFFF941C6  |  4294525382 |
|     112 | 0xFFFE8CB1  |  4294872241 |
|     113 | 0x0EB0      |        3760 |
|     114 | 0xFFFFCF50  |  4294954832 |
|     115 | 0xFFF61B47  |  4294318919 |
|     116 | 0xFFFD07BB  |  4294772667 |
|     117 | 0x0EBA      |        3770 |
|     118 | 0x4EF35     |      323381 |
|     119 | 0xFFF93A6F  |  4294523503 |
|     120 | 0xFFFE5868  |  4294858856 |
|     121 | 0x0EA0      |        3744 |
|     122 | 0x92763     |      599907 |
|     123 | 0xFFF5AB97  |  4294290327 |
|     124 | 0xFFFFA837  |  4294944823 |
|     125 | 0x0EB3      |        3763 |
|     126 | 0xFFFC7D90  |  4294737296 |
|     127 | 0xFFFBA75C  |  4294682460 |
|     128 | 0x1F5B      |        8027 |
|     129 | 0x0400      |        1024 |
|     130 | 0x00A8      |         168 |
|     131 | 0x30D7B     |      200059 |
|     132 | 0xFFFFAA3A  |  4294945338 |
|     133 | 0xFFFFFF06  |  4294967046 |
|     134 | 0x0411      |        1041 |
|     135 | 0x00CA      |         202 |
|     136 | 0x837EC     |      538604 |
|     137 | 0x7A88C     |      501900 |
|     138 | 0xFFFFC98A  |  4294953354 |
|     139 | 0x0CBC      |        3260 |
|     140 | 0x00CB      |         203 |
|     141 | 0x870F5     |      553205 |
|     142 | 0x8FF41     |      589633 |
|     143 | 0xFFFFFFEB  |  4294967275 |
|     144 | 0x0587      |        1415 |
|     145 | 0x00D3      |         211 |
|     146 | 0x8AF88     |      569224 |
|     147 | 0x85E6E     |      548462 |
|     148 | 0x8FE5      |       36837 |
|     149 | 0x02A1      |         673 |
|     150 | 0x0024      |          36 |
|     151 | 0x1CF1      |        7409 |
|     152 | 0x1CF0      |        7408 |
|     153 | 0x1DB2      |        7602 |
|     154 | 0x1CF3      |        7411 |
|     155 | 0x1CF2      |        7410 |
|     156 | 0xFFFB6BCA  |  4294667210 |
|     157 | 0xFFFC0EBD  |  4294708925 |
|     158 | 0xFFFFF63D  |  4294964797 |
|     159 | 0x0098      |         152 |
|     160 | 0xFFFB6BF6  |  4294667254 |
|     161 | 0xFFFC0138  |  4294705464 |
|     162 | 0x0078      |         120 |
|     163 | 0xFFFC5664  |  4294727268 |
|     164 | 0x33322     |      209698 |
|     165 | 0xFFFFB8B7  |  4294949047 |
|     166 | 0x0C01      |        3073 |
|     167 | 0x4459B     |      279963 |
|     168 | 0x4F777     |      325495 |
|     169 | 0x1F3F      |        7999 |
|     170 | 0x0C11      |        3089 |
|     171 | 0x0054      |          84 |
|     172 | 0xFFFB6B4C  |  4294667084 |
|     173 | 0x35B92     |      220050 |
|     174 | 0xFFFF446F  |  4294919279 |
|     175 | 0x003E      |          62 |
|     176 | 0x003F      |          63 |
|     177 | 0x0266      |         614 |
|     178 | 0x3B867     |      243815 |
|     179 | 0x54FE9     |      348137 |
|     180 | 0xFFFFE0C1  |  4294959297 |
|     181 | 0x01AC      |         428 |
|     182 | 0x1DC7      |        7623 |
|     183 | 0x1DC8      |        7624 |
|     184 | 0x0028      |          40 |
|     185 | 0x3CCE9     |      249065 |
|     186 | 0x54BDD     |      347101 |
|     187 | 0x1DC9      |        7625 |
|     188 | 0x00D2      |         210 |
|     189 | 0x1DCA      |        7626 |
|     190 | 0x0048      |          72 |
|     191 | 0x026C      |         620 |
|     192 | 0x0159      |         345 |
|     193 | 0x01CB      |         459 |
|     194 | 0x005A      |          90 |
|     195 | 0x026D      |         621 |
|     196 | 0x1DCB      |        7627 |
|     197 | 0x007F      |         127 |
|     198 | 0x1DCC      |        7628 |
|     199 | 0x0272      |         626 |
|     200 | 0x1DCD      |        7629 |
|     201 | 0x002D      |          45 |
|     202 | 0x01FC      |         508 |
|     203 | 0x1DCE      |        7630 |
|     204 | 0x1DCF      |        7631 |
|     205 | 0x1DD0      |        7632 |
|     206 | 0x1E11      |        7697 |
|     207 | 0x1E12      |        7698 |
|     208 | 0x1E13      |        7699 |
|     209 | 0x1E14      |        7700 |
|     210 | 0x028B      |         651 |
|     211 | 0x1E15      |        7701 |
|     212 | 0x1E18      |        7704 |
|     213 | 0x1E19      |        7705 |
|     214 | 0x1E1A      |        7706 |
|     215 | 0x1E1B      |        7707 |
|     216 | 0x1E1C      |        7708 |
|     217 | 0x1E1D      |        7709 |
|     218 | 0x1E1E      |        7710 |
|     219 | 0x1E20      |        7712 |
|     220 | 0x01FD      |         509 |
|     221 | 0x1E21      |        7713 |
|     222 | 0x031E      |         798 |
|     223 | 0x1E22      |        7714 |
|     224 | 0x1E2A      |        7722 |
|     225 | 0x1E2B      |        7723 |
|     226 | 0x1E2C      |        7724 |
|     227 | 0x1E2D      |        7725 |
|     228 | 0x1E2E      |        7726 |
|     229 | 0x1E2F      |        7727 |
|     230 | 0x1E36      |        7734 |
|     231 | 0x1E37      |        7735 |
|     232 | 0x0269      |         617 |
|     233 | 0x0281      |         641 |
|     234 | 0x01FE      |         510 |
|     235 | 0x1DD1      |        7633 |
|     236 | 0x1DD2      |        7634 |
|     237 | 0x1DD3      |        7635 |
|     238 | 0x006C      |         108 |
|     239 | 0x1DD4      |        7636 |
|     240 | 0x1DD5      |        7637 |
|     241 | 0x1DD6      |        7638 |
|     242 | 0x1DD7      |        7639 |
|     243 | 0x1DD8      |        7640 |
|     244 | 0x1DD9      |        7641 |
|     245 | 0x1DDA      |        7642 |
|     246 | 0x1DDB      |        7643 |
|     247 | 0x1DDC      |        7644 |
|     248 | 0x1DDD      |        7645 |
|     249 | 0x1DDE      |        7646 |
|     250 | 0x1DDF      |        7647 |
|     251 | 0x1DE0      |        7648 |
|     252 | 0x1DE1      |        7649 |
|     253 | 0x1DE2      |        7650 |
|     254 | 0x1DE3      |        7651 |
|     255 | 0x1DE4      |        7652 |
|     256 | 0x01FF      |         511 |
|     257 | 0x1DE5      |        7653 |
|     258 | 0x1DE6      |        7654 |
|     259 | 0x1DE7      |        7655 |
|     260 | 0x1DE8      |        7656 |
|     261 | 0x1DE9      |        7657 |
|     262 | 0x1DEA      |        7658 |
|     263 | 0x1DEB      |        7659 |
|     264 | 0x01DB      |         475 |
|     265 | 0x1DEC      |        7660 |
|     266 | 0x1DED      |        7661 |
|     267 | 0x0273      |         627 |
|     268 | 0x1DEE      |        7662 |
|     269 | 0x1DEF      |        7663 |
|     270 | 0x1DF0      |        7664 |
|     271 | 0x1DF1      |        7665 |
|     272 | 0x01E2      |         482 |
|     273 | 0x1DF2      |        7666 |
|     274 | 0x1DF3      |        7667 |
|     275 | 0x01E1      |         481 |
|     276 | 0x1DF4      |        7668 |
|     277 | 0x028A      |         650 |
|     278 | 0x1DF5      |        7669 |
|     279 | 0x1DF6      |        7670 |
|     280 | 0x1DF7      |        7671 |
|     281 | 0x1DF8      |        7672 |
|     282 | 0x027F      |         639 |
|     283 | 0x007B      |         123 |
|     284 | 0x1DF9      |        7673 |
|     285 | 0x01A9      |         425 |
|     286 | 0x1DFA      |        7674 |
|     287 | 0x1DFB      |        7675 |
|     288 | 0x1DFC      |        7676 |
|     289 | 0x009A      |         154 |
|     290 | 0x0096      |         150 |
|     291 | 0x1E16      |        7702 |
|     292 | 0x1E17      |        7703 |
|     293 | 0x1E1F      |        7711 |
|     294 | 0x1E23      |        7715 |
|     295 | 0x1E24      |        7716 |
|     296 | 0x1E25      |        7717 |
|     297 | 0x1E26      |        7718 |
|     298 | 0x1E27      |        7719 |
|     299 | 0x1E28      |        7720 |
|     300 | 0x1E29      |        7721 |
|     301 | 0x1E30      |        7728 |
|     302 | 0x1E31      |        7729 |
|     303 | 0x1E32      |        7730 |
|     304 | 0x1E33      |        7731 |
|     305 | 0x1E34      |        7732 |
|     306 | 0x1E35      |        7733 |
|     307 | 0x1B9D      |        7069 |
|     308 | 0xFFFC5648  |  4294727240 |
|     309 | 0x33E01     |      212481 |
|     310 | 0x03F4      |        1012 |
|     311 | 0xFFFC567B  |  4294727291 |
|     312 | 0x33419     |      209945 |
|     313 | 0x0071      |         113 |
|     314 | 0x0074      |         116 |
|     315 | 0x0077      |         119 |
|     316 | 0x0087      |         135 |
|     317 | 0x00D7      |         215 |
|     318 | 0xFFFF14C2  |  4294907074 |
|     319 | 0xFFFF15A2  |  4294907298 |
|     320 | 0xFFFFE0B1  |  4294959281 |
|     321 | 0x35B33     |      219955 |
|     322 | 0xFFFACFD2  |  4294627282 |
|     323 | 0x7CF6      |       31990 |
|     324 | 0x393FB     |      234491 |
|     325 | 0x55128     |      348456 |
|     326 | 0xFFFFE0D1  |  4294959313 |
|     327 | 0x44A70     |      281200 |
|     328 | 0x4F324     |      324388 |
|     329 | 0x1F40      |        8000 |
|     330 | 0x0BA2      |        2978 |
|     331 | 0xFFFB675C  |  4294666076 |
|     332 | 0xFFFC7AAB  |  4294736555 |
|     333 | 0x02C6      |         710 |
|     334 | 0xFFFC82BF  |  4294738623 |
|     335 | 0xFFFBAC4A  |  4294683722 |
|     336 | 0x1F52      |        8018 |
|     337 | 0x0500      |        1280 |
|     338 | 0xFFFC8193  |  4294738323 |
|     339 | 0x4455E     |      279902 |
|     340 | 0x52EDD     |      339677 |

## String References

- **7068**: Enter the battlefield? [Enter./Decline.]
- **7069**: Leave the battlefield? [Run away./Stay.]
- **7071**: You cannot enter the battlefield at present. Please wait a little longer.
- **7079**: You are cleared to enter the battlefield, but you cannot while party members are engaged in combat.
- **7080**: You are cleared to enter the battlefield, but you cannot while party members are engaged in combat.
- **7081**: You are cleared to enter the battlefield, but you cannot while party members are engaged in combat.
- **7082**: You are cleared to enter the battlefield, but you cannot while party members are engaged in combat.
- **7118**: You do not meet the requirements to enter the battlefield. Access is denied.
- **7407**: Skip the event? [Yes./No.]
- **7408**: Battlefield clear time: $3 second[/s]!
- **7409**: Battlefield clear time: $3 minute[/s], $2 second[/s]!
- **7410**: The current battlefield clear time record is $3 second[/s].
- **7411**: The current battlefield clear time record is $3 minute[/s] $2 second[/s].
- **7427**: Only $3 [member/members] have clearance to enter the battlefield. This room has reached its maximum capacity.
- **7431**: That record is held by $5 adventurers, including %0!
- **7432**: That record is held by %0!
- **7434**: Select difficulty. [Very difficult. (Level: ???)/Difficult. (Level: ???)/Normal. (Level: $18)/Easy. (Level: $17)/Very Easy. (Level: $16)/Leave.]
- **7602**: You have broken the clear time record for "[Darkness Named/Test Your Mite/Waking Dreams/$26Waking Dreams]"!
- **7603**: The current battlefield clear time record for "[Darkness Named/Test Your Mite/Waking Dreams/$26Waking Dreams]" is $3 second[/s].
- **7604**: The current battlefield clear time record for "[Darkness Named/Test Your Mite/Waking Dreams/$26Waking Dreams]" is $3 minute[/s] $2 second[/s].
- **7606**: Which battlefield will you enter? [None./Darkness Named./Test Your Mite./Waking Dreams./$26Waking Dreams./././././././././././././././././././././././././././]
- **7607**: Level limit of 40. The experience point reward for this battlefield will be reduced for parties of seven or more members.
- **7667**: Is there still hope for mankind? [There's always hope!/Destiny is destiny...]

## Events

### Event 65535

#### Metadata

| Field        | Value   |
|--------------|---------|
| Entrypoint   | 0x0000  |
| Data Size    | 1 bytes |
| Instructions | 1       |

```
      00 01 02 03 04 05 06 07  08 09 0A 0B 0C 0D 0E 0F
      -- -- -- -- -- -- -- --  -- -- -- -- -- -- -- --
0000: 00                                                .               
```

#### Opcodes

```
  0: 0x0000 [0x00] END_REQSTACK()
```

### Event 65534

#### Metadata

| Field        | Value   |
|--------------|---------|
| Entrypoint   | 0x0001  |
| Data Size    | 1 bytes |
| Instructions | 1       |

```
      00 01 02 03 04 05 06 07  08 09 0A 0B 0C 0D 0E 0F
      -- -- -- -- -- -- -- --  -- -- -- -- -- -- -- --
0000:    00                                              .              
```

#### Opcodes

```
  0: 0x0001 [0x00] END_REQSTACK()
```

### Event 32000

#### Metadata

| Field        | Value      |
|--------------|------------|
| Entrypoint   | 0x0002     |
| Data Size    | 2307 bytes |
| Instructions | 312        |

```
      00 01 02 03 04 05 06 07  08 09 0A 0B 0C 0D 0E 0F
      -- -- -- -- -- -- -- --  -- -- -- -- -- -- -- --
0000:       20 01 79 00 F0 FF  FF 7F F0 FF FF 7F 03 02     .y...........
0010: 00 02 10 03 03 00 03 10  03 05 00 04 10 03 06 00  ................
0020: 05 10 03 0F 00 06 10 03  10 00 07 10 03 11 00 08  ................
0030: 10 41 00 80 01 80 09 10  07 00 41 02 80 03 80 09  .A........A.....
0040: 10 06 10 06 01 00 02 07  00 00 80 00 45 01 03 08  ............E...
0050: 00 04 80 0F 08 00 06 00  10 08 00 05 80 24 06 80  .............$..
0060: 00 80 08 00 25 02 00 10  00 80 00 73 00 01 D8 08  ....%......s....
0070: 01 45 01 03 03 00 00 10  0C 03 00 06 16 00 06 13  .E..............
0080: 00 3E 0F 00 03 00 21 01  06 0F 00 06 08 00 3E 11  .>....!.......>.
0090: 00 03 00 98 00 01 9F 00  3C 08 00 00 80 05 80 3E  ........<......>
00A0: 10 00 03 00 A9 00 01 B0  00 3C 08 00 05 80 05 80  .........<......
00B0: 1A B3 2F 24 07 80 08 80  08 00 25 02 00 10 00 80  ../$......%.....
00C0: 00 CB 00 03 0F 00 05 80  01 1E 01 02 00 10 05 80  ................
00D0: 00 DB 00 03 0F 00 09 80  01 1E 01 02 00 10 09 80  ................
00E0: 00 EB 00 03 0F 00 0A 80  01 1E 01 02 00 10 0A 80  ................
00F0: 00 FB 00 03 0F 00 0B 80  01 1E 01 02 00 10 0B 80  ................
0100: 00 0B 01 03 0F 00 08 80  01 1E 01 02 00 10 08 80  ................
0110: 00 19 01 01 D8 08 01 1E  01 03 0F 00 0A 80 01 45  ...............E
0120: 01 06 0F 00 1A F2 08 02  16 00 05 80 00 45 01 24  .............E.$
0130: 0C 80 05 80 00 80 25 02  00 10 05 80 00 45 01 01  ......%......E..
0140: D8 08 01 45 01 42 03 01  10 0D 80 43 00 43 01 06  ...E.B.....C.C..
0150: 01 10 45 0E 80 F0 FF FF  7F F0 FF FF 7F 66 64 6F  ..E..........fdo
0160: 31 00 80 55 0E 80 F0 FF  FF 7F F0 FF FF 7F 66 64  1..U..........fd
0170: 6F 31 3B F0 FF FF 7F 20  10 21 10 22 10 38 0F 80  o1;.... .!.".8..
0180: 02 07 00 05 80 00 9F 01  03 00 00 05 80 03 04 00  ................
0190: 03 00 03 02 00 00 80 03  1C 00 00 80 01 C4 05 03  ................
01A0: 00 00 05 80 02 00 00 0A  80 05 A1 08 02 00 80 05  ................
01B0: 80 00 B9 01 03 00 00 05  00 40 00 80 0A 80 01 10  .........@......
01C0: 00 00 40 0B 80 10 80 01  10 03 00 40 11 80 12 80  ..@........@....
01D0: 01 10 0F 00 06 02 10 06  03 10 06 04 10 1A 74 32  ..............t2
01E0: 02 03 00 05 80 00 45 02  02 00 00 05 80 80 07 02  ......E.........
01F0: 03 09 00 13 80 03 0A 00  14 80 03 0B 00 15 80 03  ................
0200: 0C 00 16 80 01 45 02 02  00 00 09 80 80 26 02 03  .....E.......&..
0210: 09 00 00 80 03 0A 00 17  80 03 0B 00 18 80 03 0C  ................
0220: 00 16 80 01 45 02 02 00  00 0A 80 80 45 02 03 09  ....E.......E...
0230: 00 19 80 03 0A 00 1A 80  03 0B 00 1B 80 03 0C 00  ................
0240: 16 80 01 45 02 47 00 09  00 0A 00 0B 00 0C 00 47  ...E.G.........G
0250: 01 03 04 00 03 10 03 02  00 04 10 03 1A 00 05 10  ................
0260: 03 0D 00 06 10 03 0E 00  07 10 03 1C 00 09 10 02  ................
0270: 02 10 05 80 80 7A 02 01  8E 08 02 02 10 0B 80 80  .....z..........
0280: C4 02 02 00 00 05 80 80  91 02 48 1C 80 23 01 BE  ..........H..#..
0290: 02 02 00 00 09 80 80 A0  02 48 1D 80 23 01 BE 02  .........H..#...
02A0: 02 00 00 0A 80 80 AF 02  48 1E 80 23 01 BE 02 02  ........H..#....
02B0: 00 00 0B 80 80 BE 02 48  1F 80 23 01 BE 02 01 A5  .......H..#.....
02C0: 08 01 8E 08 02 02 10 08  80 80 D6 02 48 20 80 23  ............H .#
02D0: 01 A5 08 01 8E 08 02 02  10 21 80 80 D8 04 02 04  .........!......
02E0: 00 00 80 80 EE 02 03 05  10 21 80 01 CE 04 02 04  .........!......
02F0: 00 05 80 80 FE 02 03 05  10 22 80 01 CE 04 02 04  ........."......
0300: 00 09 80 80 0E 03 03 05  10 21 80 01 CE 04 02 04  .........!......
0310: 00 0A 80 80 1E 03 03 05  10 21 80 01 CE 04 02 04  .........!......
0320: 00 0B 80 80 2E 03 03 05  10 00 80 01 CE 04 02 04  ................
0330: 00 08 80 80 3E 03 03 05  10 00 80 01 CE 04 02 04  ....>...........
0340: 00 21 80 80 4E 03 03 05  10 00 80 01 CE 04 02 04  .!..N...........
0350: 00 23 80 80 5E 03 03 05  10 00 80 01 CE 04 02 04  .#..^...........
0360: 00 10 80 80 6E 03 03 05  10 00 80 01 CE 04 02 04  ....n...........
0370: 00 11 80 80 7E 03 03 05  10 00 80 01 CE 04 02 04  ....~...........
0380: 00 24 80 80 8E 03 03 05  10 00 80 01 CE 04 02 04  .$..............
0390: 00 12 80 80 9E 03 03 05  10 00 80 01 CE 04 02 04  ................
03A0: 00 25 80 80 AE 03 03 05  10 00 80 01 CE 04 02 04  .%..............
03B0: 00 26 80 80 BE 03 03 05  10 00 80 01 CE 04 02 04  .&..............
03C0: 00 27 80 80 CE 03 03 05  10 00 80 01 CE 04 02 04  .'..............
03D0: 00 01 80 80 DE 03 03 05  10 00 80 01 CE 04 02 04  ................
03E0: 00 02 80 80 EE 03 03 05  10 00 80 01 CE 04 02 04  ................
03F0: 00 28 80 80 FE 03 03 05  10 00 80 01 CE 04 02 04  .(..............
0400: 00 22 80 80 0E 04 03 05  10 00 80 01 CE 04 02 04  ."..............
0410: 00 0F 80 80 1E 04 03 05  10 00 80 01 CE 04 02 04  ................
0420: 00 29 80 80 2E 04 03 05  10 00 80 01 CE 04 02 04  .)..............
0430: 00 2A 80 80 3E 04 03 05  10 00 80 01 CE 04 02 04  .*..>...........
0440: 00 2B 80 80 4E 04 03 05  10 00 80 01 CE 04 02 04  .+..N...........
0450: 00 2C 80 80 5E 04 03 05  10 00 80 01 CE 04 02 04  .,..^...........
0460: 00 2D 80 80 6E 04 03 05  10 00 80 01 CE 04 02 04  .-..n...........
0470: 00 2E 80 80 7E 04 03 05  10 00 80 01 CE 04 02 04  ....~...........
0480: 00 2F 80 80 8E 04 03 05  10 00 80 01 CE 04 02 04  ./..............
0490: 00 30 80 80 9E 04 03 05  10 00 80 01 CE 04 02 04  .0..............
04A0: 00 31 80 80 AE 04 03 05  10 00 80 01 CE 04 02 04  .1..............
04B0: 00 32 80 80 BE 04 03 05  10 00 80 01 CE 04 02 04  .2..............
04C0: 00 33 80 80 CE 04 03 05  10 00 80 01 CE 04 48 34  .3............H4
04D0: 80 23 01 A5 08 01 8E 08  02 02 10 0A 80 80 E6 04  .#..............
04E0: 01 9F 01 01 8E 08 02 02  10 09 80 80 8E 08 02 0D  ................
04F0: 00 00 80 01 7A 05 02 13  00 00 80 01 2E 05 03 05  ....z...........
0500: 10 1A 00 02 1A 00 00 80  02 0B 05 02 0D 00 05 80  ................
0510: 05 1A 05 48 35 80 23 01  2B 05 03 06 10 0D 00 0C  ...H5.#.+.......
0520: 06 10 03 07 10 0D 00 48  36 80 23 01 7A 05 03 05  .......H6.#.z...
0530: 10 1A 00 02 1A 00 00 80  02 5A 05 02 1A 00 37 80  .........Z....7.
0540: 04 56 05 3F 04 10 05 10  37 80 15 05 10 37 80 48  .V.?....7....7.H
0550: 38 80 23 01 5A 05 48 39  80 23 02 0D 00 05 80 05  8.#.Z.H9.#......
0560: 69 05 48 35 80 23 01 7A  05 03 06 10 0D 00 0C 06  i.H5.#.z........
0570: 10 03 07 10 0D 00 48 36  80 23 03 03 00 04 00 03  ......H6.#......
0580: 14 00 3A 80 07 14 00 03  00 02 02 00 14 00 00 99  ..:.............
0590: 05 03 02 00 05 80 01 9E  05 03 02 00 00 80 02 02  ................
05A0: 00 00 80 00 C4 05 02 0E  00 05 80 00 C4 05 24 3B  ..............$;
05B0: 80 05 80 00 80 25 02 00  10 00 80 00 C4 05 05 02  .....%..........
05C0: 00 01 C4 05 06 15 00 02  04 00 00 80 80 D7 05 03  ................
05D0: 15 00 00 80 01 BC 07 02  04 00 05 80 80 E7 05 03  ................
05E0: 15 00 00 80 01 BC 07 02  04 00 09 80 80 F7 05 03  ................
05F0: 15 00 00 80 01 BC 07 02  04 00 0A 80 80 07 06 03  ................
0600: 15 00 00 80 01 BC 07 02  04 00 0B 80 80 17 06 03  ................
0610: 15 00 00 80 01 BC 07 02  04 00 08 80 80 27 06 03  .............'..
0620: 15 00 00 80 01 BC 07 02  04 00 21 80 80 37 06 03  ..........!..7..
0630: 15 00 00 80 01 BC 07 02  04 00 23 80 80 47 06 03  ..........#..G..
0640: 15 00 00 80 01 BC 07 02  04 00 10 80 80 57 06 03  .............W..
0650: 15 00 00 80 01 BC 07 02  04 00 11 80 80 67 06 03  .............g..
0660: 15 00 00 80 01 BC 07 02  04 00 24 80 80 77 06 03  ..........$..w..
0670: 15 00 00 80 01 BC 07 02  04 00 12 80 80 87 06 03  ................
0680: 15 00 00 80 01 BC 07 02  04 00 25 80 80 97 06 03  ..........%.....
0690: 15 00 00 80 01 BC 07 02  04 00 26 80 80 A7 06 03  ..........&.....
06A0: 15 00 00 80 01 BC 07 02  04 00 27 80 80 B7 06 03  ..........'.....
06B0: 15 00 00 80 01 BC 07 02  04 00 01 80 80 C7 06 03  ................
06C0: 15 00 00 80 01 BC 07 02  04 00 02 80 80 D7 06 03  ................
06D0: 15 00 00 80 01 BC 07 02  04 00 28 80 80 E7 06 03  ..........(.....
06E0: 15 00 00 80 01 BC 07 02  04 00 22 80 80 F7 06 03  ..........".....
06F0: 15 00 00 80 01 BC 07 02  04 00 0F 80 80 07 07 03  ................
0700: 15 00 00 80 01 BC 07 02  04 00 29 80 80 17 07 03  ..........).....
0710: 15 00 00 80 01 BC 07 02  04 00 2A 80 80 27 07 03  ..........*..'..
0720: 15 00 00 80 01 BC 07 02  04 00 2B 80 80 37 07 03  ..........+..7..
0730: 15 00 00 80 01 BC 07 02  04 00 2C 80 80 47 07 03  ..........,..G..
0740: 15 00 00 80 01 BC 07 02  04 00 2D 80 80 57 07 03  ..........-..W..
0750: 15 00 00 80 01 BC 07 02  04 00 2E 80 80 67 07 03  .............g..
0760: 15 00 00 80 01 BC 07 02  04 00 2F 80 80 77 07 03  ........../..w..
0770: 15 00 00 80 01 BC 07 02  04 00 30 80 80 87 07 03  ..........0.....
0780: 15 00 00 80 01 BC 07 02  04 00 31 80 80 97 07 03  ..........1.....
0790: 15 00 00 80 01 BC 07 02  04 00 32 80 80 A7 07 03  ..........2.....
07A0: 15 00 00 80 01 BC 07 02  04 00 33 80 80 B7 07 03  ..........3.....
07B0: 15 00 00 80 01 BC 07 03  15 00 00 80 02 02 00 05  ................
07C0: 80 00 D7 07 5C 00 3C 80  5C 01 3C 80 5C 02 3C 80  ....\.<.\.<.\.<.
07D0: 5C 03 3C 80 01 EF 07 02  15 00 00 80 00 EF 07 5C  \.<............\
07E0: 00 3C 80 5C 01 3C 80 5C  02 3C 80 5C 03 3C 80 02  .<.\.<.\.<.\.<..
07F0: 00 00 05 80 80 07 08 2D  F8 FF FF 7F F8 FF FF 7F  .......-........
0800: 70 61 6E 33 01 37 08 02  00 00 09 80 80 1F 08 2D  pan3.7.........-
0810: F8 FF FF 7F F8 FF FF 7F  70 61 6E 31 01 37 08 02  ........pan1.7..
0820: 00 00 0A 80 80 37 08 2D  F8 FF FF 7F F8 FF FF 7F  .....7.-........
0830: 70 61 6E 32 01 37 08 02  02 00 00 80 00 45 08 1A  pan2.7.......E..
0840: C8 10 01 7E 08 6C F0 FF  FF 7F 00 80 05 80 62 09  ...~.l........b.
0850: 80 F0 FF FF 7F F0 FF FF  7F 6D 61 69 6E 00 80 45  .........main..E
0860: 0E 80 F0 FF FF 7F F0 FF  FF 7F 6F 76 6C 31 00 80  ..........ovl1..
0870: 46 02 12 00 02 12 00 00  80 00 7E 08 46 00 03 01  F.........~.F...
0880: 10 3A 80 07 01 10 03 00  01 A5 08 01 8E 08 0B 00  .:..............
0890: 00 02 00 80 05 80 00 9E  08 03 00 00 0B 80 01 A4  ................
08A0: 01 48 3D 80 23 45 3E 80  F0 FF FF 7F F0 FF FF 7F  .H=.#E>.........
08B0: 77 68 69 31 00 80 45 0E  80 F0 FF FF 7F F0 FF FF  whi1..E.........
08C0: 7F 62 6C 6F 66 00 80 45  0E 80 F0 FF FF 7F F0 FF  .blof..E........
08D0: FF 7F 66 64 69 30 00 80  02 07 00 05 80 00 F0 08  ..fdi0..........
08E0: 5C 00 00 80 5C 01 00 80  5C 02 3C 80 5C 03 3C 80  \...\...\.<.\.<.
08F0: 21 00 02 03 00 05 80 80  04 09 48 3F 80 23 05 16  !.........H?.#..
0900: 00 01 04 09 1B                                    .....           
```

#### Opcodes

```
  0: 0x0002 [0x20] SET_CLI_EVENT_UC_FLAG: Lock player control
  1: 0x0004 [0x79] LocalPlayer looks at LocalPlayer (Basic look)
  2: 0x000E [0x03] ExtData[1]->WorkLocal[2] = Work_Zone[2]
  3: 0x0013 [0x03] ExtData[1]->WorkLocal[3] = Work_Zone[3]
  4: 0x0018 [0x03] ExtData[1]->WorkLocal[5] = Work_Zone[4]
  5: 0x001D [0x03] ExtData[1]->WorkLocal[6] = Work_Zone[5]
  6: 0x0022 [0x03] ExtData[1]->WorkLocal[15] = Work_Zone[6]
  7: 0x0027 [0x03] ExtData[1]->WorkLocal[16] = Work_Zone[7]
  8: 0x002C [0x03] ExtData[1]->WorkLocal[17] = Work_Zone[8]
  9: 0x0031 [0x41] ExtData[1]->WorkLocal[7] = Work_Zone[9] (bits 0*-15*)
 10: 0x003A [0x41] Work_Zone[6] = Work_Zone[9] (bits 16*-31*)
 11: 0x0043 [0x06] ExtData[1]->WorkLocal[1] = 0
 12: 0x0046 [0x02] IF !(ExtData[1]->WorkLocal[7] == 0*) GOTO 0x0145
 13: 0x004E [0x03] ExtData[1]->WorkLocal[8] = 4294967295*
 14: 0x0053 [0x0F] ExtData[1]->WorkLocal[8] ^= ExtData[1]->WorkLocal[6]
 15: 0x0058 [0x10] ExtData[1]->WorkLocal[8] <<= 1*
 16: 0x005D [0x24] CREATE_DIALOG(message_id=7606*, default_option=0*, option_flags=ExtData[1]->WorkLocal[8])
    → "Which battlefield will you enter? [None./Darkness Named./Test Your Mite./Waking Dreams./$26Waking Dreams./././././././././././././././././././././././././././]"
 17: 0x0064 [0x25] WAIT_DIALOG_SELECT()
 18: 0x0065 [0x02] IF !(Work_Zone[0] == 0*) GOTO 0x0073
 19: 0x006D [0x01] GOTO 0x08D8

SUBROUTINE_009F:
 20: 0x009F [0x3E] IF !(ExtData[1]->WorkLocal[16] bit ExtData[1]->WorkLocal[3]) GOTO 0x00A9
 21: 0x00A6 [0x01] GOTO 0x00B0
 22: 0x00A9 [0x3C] SET_BIT_FLAG_CONDITIONAL(target_work_offset=ExtData[1]->WorkLocal[8], bit_index_work_offset=1*, condition_work_offset=1*)

SUBROUTINE_00B0:
 23: 0x00B0 [0x1A] CALL_SUBROUTINE(address=0x2FB3)
 24: 0x00B3 [0x24] CREATE_DIALOG(message_id=7434*, default_option=5*, option_flags=ExtData[1]->WorkLocal[8])
    → "Select difficulty. [Very difficult. (Level: ???)/Difficult. (Level: ???)/Normal. (Level: $18)/Easy. (Level: $17)/Very Easy. (Level: $16)/Leave.]"
 25: 0x00BA [0x25] WAIT_DIALOG_SELECT()
 26: 0x00BB [0x02] IF !(Work_Zone[0] == 0*) GOTO 0x00CB
 27: 0x00C3 [0x03] ExtData[1]->WorkLocal[15] = 1*
 28: 0x00C8 [0x01] GOTO 0x011E
 29: 0x00CB [0x02] IF !(Work_Zone[0] == 1*) GOTO 0x00DB
 30: 0x00D3 [0x03] ExtData[1]->WorkLocal[15] = 2*
 31: 0x00D8 [0x01] GOTO 0x011E
 32: 0x00DB [0x02] IF !(Work_Zone[0] == 2*) GOTO 0x00EB
 33: 0x00E3 [0x03] ExtData[1]->WorkLocal[15] = 3*
 34: 0x00E8 [0x01] GOTO 0x011E
 35: 0x00EB [0x02] IF !(Work_Zone[0] == 3*) GOTO 0x00FB
 36: 0x00F3 [0x03] ExtData[1]->WorkLocal[15] = 4*
 37: 0x00F8 [0x01] GOTO 0x011E
 38: 0x00FB [0x02] IF !(Work_Zone[0] == 4*) GOTO 0x010B
 39: 0x0103 [0x03] ExtData[1]->WorkLocal[15] = 5*
 40: 0x0108 [0x01] GOTO 0x011E
 41: 0x010B [0x02] IF !(Work_Zone[0] == 5*) GOTO 0x0119
 42: 0x0113 [0x01] GOTO 0x08D8

SUBROUTINE_011E:
 43: 0x011E [0x01] GOTO 0x0145
 44: 0x0121 [0x06] ExtData[1]->WorkLocal[15] = 0
 45: 0x0124 [0x1A] CALL_SUBROUTINE(address=0x08F2)
 46: 0x0127 [0x02] IF !(ExtData[1]->WorkLocal[22] == 1*) GOTO 0x0145
 47: 0x012F [0x24] CREATE_DIALOG(message_id=7068*, default_option=1*, option_flags=0*)
    → "Enter the battlefield? [Enter./Decline.]"
 48: 0x0136 [0x25] WAIT_DIALOG_SELECT()
 49: 0x0137 [0x02] IF !(Work_Zone[0] == 1*) GOTO 0x0145
 50: 0x013F [0x01] GOTO 0x08D8

SUBROUTINE_0145:
 51: 0x0145 [0x42] SET_CLI_EVENT_CANCEL_DATA()
 52: 0x0146 [0x03] Work_Zone[1] = 255*
 53: 0x014B [0x43] SEND_EVENT_UPDATE: Send pending tag to server (packet 0x005B)
 54: 0x014D [0x43] SEND_EVENT_UPDATE: Check pending flag (skip if not pending)
 55: 0x014F [0x06] Work_Zone[1] = 0
 56: 0x0152 [0x45] LOAD_SCHEDULED_TASK: Load scheduler "fdo1" with entities [LocalPlayer, LocalPlayer], work=[200*, 0*]
 57: 0x0163 [0x55] WAIT_LOAD_SCHEDULER: Wait for scheduler "fdo1" with entities [LocalPlayer, LocalPlayer], work=200*
 58: 0x0172 [0x3B] GET_ENTITY_POSITION(entity=LocalPlayer, x_destination=Work_Zone[32], y_destination=Work_Zone[33], z_destination=Work_Zone[34])
 59: 0x017D [0x38] SET_CLIENT_EVENT_MODE(mode=19*)
 60: 0x0180 [0x02] IF !(ExtData[1]->WorkLocal[7] == 1*) GOTO 0x019F
 61: 0x0188 [0x03] ExtData[1]->WorkLocal[0] = 1*
 62: 0x018D [0x03] ExtData[1]->WorkLocal[4] = ExtData[1]->WorkLocal[3]
 63: 0x0192 [0x03] ExtData[1]->WorkLocal[2] = 0*
 64: 0x0197 [0x03] ExtData[1]->WorkLocal[28] = 0*
 65: 0x019C [0x01] GOTO 0x05C4

SUBROUTINE_019F:
 66: 0x019F [0x03] ExtData[1]->WorkLocal[0] = 1*

SUBROUTINE_01A4:
 67: 0x01A4 [0x02] IF !(ExtData[1]->WorkLocal[0] > 3*) GOTO 0x08A1
 68: 0x01AC [0x02] IF !(0* == 1*) GOTO 0x01B9
 69: 0x01B4 [0x03] ExtData[1]->WorkLocal[0] = ExtData[1]->WorkLocal[5]
 70: 0x01B9 [0x40] SET_BIT_WORK_RANGE(start_bit=0*, end_bit=3*, target=Work_Zone[1], source=ExtData[1]->WorkLocal[0])
 71: 0x01C2 [0x40] SET_BIT_WORK_RANGE(start_bit=4*, end_bit=8*, target=Work_Zone[1], source=ExtData[1]->WorkLocal[3])
 72: 0x01CB [0x40] SET_BIT_WORK_RANGE(start_bit=9*, end_bit=11*, target=Work_Zone[1], source=ExtData[1]->WorkLocal[15])
 73: 0x01D4 [0x06] Work_Zone[2] = 0
 74: 0x01D7 [0x06] Work_Zone[3] = 0
 75: 0x01DA [0x06] Work_Zone[4] = 0
 76: 0x01DD [0x1A] CALL_SUBROUTINE(address=0x3274)
 77: 0x01E0 [0x02] IF !(ExtData[1]->WorkLocal[3] == 1*) GOTO 0x0245
 78: 0x01E8 [0x02] IF !(ExtData[1]->WorkLocal[0] == 1*) GOTO 0x0207
 79: 0x01F0 [0x03] ExtData[1]->WorkLocal[9] = 4294727296*
 80: 0x01F5 [0x03] ExtData[1]->WorkLocal[10] = 220000*
 81: 0x01FA [0x03] ExtData[1]->WorkLocal[11] = 4294951543*
 82: 0x01FF [0x03] ExtData[1]->WorkLocal[12] = 3072*
 83: 0x0204 [0x01] GOTO 0x0245
 84: 0x0207 [0x02] IF !(ExtData[1]->WorkLocal[0] == 2*) GOTO 0x0226
 85: 0x020F [0x03] ExtData[1]->WorkLocal[9] = 0*
 86: 0x0214 [0x03] ExtData[1]->WorkLocal[10] = 4294907296*
 87: 0x0219 [0x03] ExtData[1]->WorkLocal[11] = 24246*
 88: 0x021E [0x03] ExtData[1]->WorkLocal[12] = 3072*
 89: 0x0223 [0x01] GOTO 0x0245
 90: 0x0226 [0x02] IF !(ExtData[1]->WorkLocal[0] == 3*) GOTO 0x0245
 91: 0x022E [0x03] ExtData[1]->WorkLocal[9] = 280000*
 92: 0x0233 [0x03] ExtData[1]->WorkLocal[10] = 4294627296*
 93: 0x0238 [0x03] ExtData[1]->WorkLocal[11] = 64246*
 94: 0x023D [0x03] ExtData[1]->WorkLocal[12] = 3072*
 95: 0x0242 [0x01] GOTO 0x0245

SUBROUTINE_0245:
 96: 0x0245 [0x47] UPDATE_PLAYER_POS(ExtData[1]->WorkLocal[9], ExtData[1]->WorkLocal[10], ExtData[1]->WorkLocal[11], yaw=ExtData[1]->WorkLocal[12])
 97: 0x024F [0x47] WAIT_PLAYER_POS_UPDATE
 98: 0x0251 [0x03] ExtData[1]->WorkLocal[4] = Work_Zone[3]
 99: 0x0256 [0x03] ExtData[1]->WorkLocal[2] = Work_Zone[4]
100: 0x025B [0x03] ExtData[1]->WorkLocal[26] = Work_Zone[5]
101: 0x0260 [0x03] ExtData[1]->WorkLocal[13] = Work_Zone[6]
102: 0x0265 [0x03] ExtData[1]->WorkLocal[14] = Work_Zone[7]
103: 0x026A [0x03] ExtData[1]->WorkLocal[28] = Work_Zone[9]
104: 0x026F [0x02] IF !(Work_Zone[2] == 1*) GOTO 0x027A
105: 0x0277 [0x01] GOTO 0x088E
106: 0x027A [0x02] IF !(Work_Zone[2] == 4*) GOTO 0x02C4
107: 0x0282 [0x02] IF !(ExtData[1]->WorkLocal[0] == 1*) GOTO 0x0291
108: 0x028A [0x48] [System] [7079*]:
    → "You are cleared to enter the battlefield, but you cannot while party members are engaged in combat."
109: 0x028D [0x23] WAIT_FOR_DIALOG_INTERACTION
110: 0x028E [0x01] GOTO 0x02BE
111: 0x0291 [0x02] IF !(ExtData[1]->WorkLocal[0] == 2*) GOTO 0x02A0
112: 0x0299 [0x48] [System] [7080*]:
    → "You are cleared to enter the battlefield, but you cannot while party members are engaged in combat."
113: 0x029C [0x23] WAIT_FOR_DIALOG_INTERACTION
114: 0x029D [0x01] GOTO 0x02BE
115: 0x02A0 [0x02] IF !(ExtData[1]->WorkLocal[0] == 3*) GOTO 0x02AF
116: 0x02A8 [0x48] [System] [7081*]:
    → "You are cleared to enter the battlefield, but you cannot while party members are engaged in combat."
117: 0x02AB [0x23] WAIT_FOR_DIALOG_INTERACTION
118: 0x02AC [0x01] GOTO 0x02BE
119: 0x02AF [0x02] IF !(ExtData[1]->WorkLocal[0] == 4*) GOTO 0x02BE
120: 0x02B7 [0x48] [System] [7082*]:
    → "You are cleared to enter the battlefield, but you cannot while party members are engaged in combat."
121: 0x02BA [0x23] WAIT_FOR_DIALOG_INTERACTION
122: 0x02BB [0x01] GOTO 0x02BE

SUBROUTINE_02BE:
123: 0x02BE [0x01] GOTO 0x08A5

SUBROUTINE_04CE:
124: 0x04CE [0x48] [System] [7427*]:
    → "Only $3 [member/members] have clearance to enter the battlefield. This room has reached its maximum capacity."
125: 0x04D1 [0x23] WAIT_FOR_DIALOG_INTERACTION
126: 0x04D2 [0x01] GOTO 0x08A5

SUBROUTINE_052B:
127: 0x052B [0x01] GOTO 0x057A
128: 0x052E [0x03] Work_Zone[5] = ExtData[1]->WorkLocal[26]
129: 0x0533 [0x02] IF !(ExtData[1]->WorkLocal[26] <= 0*) GOTO 0x055A
130: 0x053B [0x02] IF !(ExtData[1]->WorkLocal[26] < 60*) GOTO 0x0556
131: 0x0543 [0x3F] Work_Zone[4] = Work_Zone[5] % 60*
132: 0x054A [0x15] Work_Zone[5] /= 60*
133: 0x054F [0x48] [System] [7604*]:
    → "The current battlefield clear time record for "[Darkness Named/Test Your Mite/Waking Dreams/$26Waking Dreams]" is $3 minute[/s] $2 second[/s]."
134: 0x0552 [0x23] WAIT_FOR_DIALOG_INTERACTION
135: 0x0553 [0x01] GOTO 0x055A
136: 0x0556 [0x48] [System] [7603*]:
    → "The current battlefield clear time record for "[Darkness Named/Test Your Mite/Waking Dreams/$26Waking Dreams]" is $3 second[/s]."
137: 0x0559 [0x23] WAIT_FOR_DIALOG_INTERACTION

SUBROUTINE_055A:
138: 0x055A [0x02] IF !(ExtData[1]->WorkLocal[13] > 1*) GOTO 0x0569
139: 0x0562 [0x48] [System] [7432*]:
    → "That record is held by %0!"
140: 0x0565 [0x23] WAIT_FOR_DIALOG_INTERACTION
141: 0x0566 [0x01] GOTO 0x057A
142: 0x0569 [0x03] Work_Zone[6] = ExtData[1]->WorkLocal[13]
143: 0x056E [0x0C] Work_Zone[6]--
144: 0x0571 [0x03] Work_Zone[7] = ExtData[1]->WorkLocal[13]
145: 0x0576 [0x48] [System] [7431*]:
    → "That record is held by $5 adventurers, including %0!"
146: 0x0579 [0x23] WAIT_FOR_DIALOG_INTERACTION

SUBROUTINE_057A:
147: 0x057A [0x03] ExtData[1]->WorkLocal[3] = ExtData[1]->WorkLocal[4]
148: 0x057F [0x03] ExtData[1]->WorkLocal[20] = 100*
149: 0x0584 [0x07] ExtData[1]->WorkLocal[20] += ExtData[1]->WorkLocal[3]
150: 0x0589 [0x02] IF !(ExtData[1]->WorkLocal[2] == ExtData[1]->WorkLocal[20]) GOTO 0x0599
151: 0x0591 [0x03] ExtData[1]->WorkLocal[2] = 1*
152: 0x0596 [0x01] GOTO 0x059E
153: 0x0599 [0x03] ExtData[1]->WorkLocal[2] = 0*

SUBROUTINE_059E:
154: 0x059E [0x02] IF !(ExtData[1]->WorkLocal[2] == 0*) GOTO 0x05C4
155: 0x05A6 [0x02] IF !(ExtData[1]->WorkLocal[14] == 1*) GOTO 0x05C4
156: 0x05AE [0x24] CREATE_DIALOG(message_id=7407*, default_option=1*, option_flags=0*)
    → "Skip the event? [Yes./No.]"
157: 0x05B5 [0x25] WAIT_DIALOG_SELECT()
158: 0x05B6 [0x02] IF !(Work_Zone[0] == 0*) GOTO 0x05C4
159: 0x05BE [0x05] ExtData[1]->WorkLocal[2] = 1
160: 0x05C1 [0x01] GOTO 0x05C4

SUBROUTINE_05C4:
161: 0x05C4 [0x06] ExtData[1]->WorkLocal[21] = 0
162: 0x05C7 [0x02] IF !(ExtData[1]->WorkLocal[4] == 0*) GOTO 0x05D7
163: 0x05CF [0x03] ExtData[1]->WorkLocal[21] = 0*
164: 0x05D4 [0x01] GOTO 0x07BC
165: 0x05D7 [0x02] IF !(ExtData[1]->WorkLocal[4] == 1*) GOTO 0x05E7
166: 0x05DF [0x03] ExtData[1]->WorkLocal[21] = 0*
167: 0x05E4 [0x01] GOTO 0x07BC
168: 0x05E7 [0x02] IF !(ExtData[1]->WorkLocal[4] == 2*) GOTO 0x05F7
169: 0x05EF [0x03] ExtData[1]->WorkLocal[21] = 0*
170: 0x05F4 [0x01] GOTO 0x07BC
171: 0x05F7 [0x02] IF !(ExtData[1]->WorkLocal[4] == 3*) GOTO 0x0607
172: 0x05FF [0x03] ExtData[1]->WorkLocal[21] = 0*
173: 0x0604 [0x01] GOTO 0x07BC
174: 0x0607 [0x02] IF !(ExtData[1]->WorkLocal[4] == 4*) GOTO 0x0617
175: 0x060F [0x03] ExtData[1]->WorkLocal[21] = 0*
176: 0x0614 [0x01] GOTO 0x07BC
177: 0x0617 [0x02] IF !(ExtData[1]->WorkLocal[4] == 5*) GOTO 0x0627
178: 0x061F [0x03] ExtData[1]->WorkLocal[21] = 0*
179: 0x0624 [0x01] GOTO 0x07BC
180: 0x0627 [0x02] IF !(ExtData[1]->WorkLocal[4] == 6*) GOTO 0x0637
181: 0x062F [0x03] ExtData[1]->WorkLocal[21] = 0*
182: 0x0634 [0x01] GOTO 0x07BC
183: 0x0637 [0x02] IF !(ExtData[1]->WorkLocal[4] == 7*) GOTO 0x0647
184: 0x063F [0x03] ExtData[1]->WorkLocal[21] = 0*
185: 0x0644 [0x01] GOTO 0x07BC
186: 0x0647 [0x02] IF !(ExtData[1]->WorkLocal[4] == 8*) GOTO 0x0657
187: 0x064F [0x03] ExtData[1]->WorkLocal[21] = 0*
188: 0x0654 [0x01] GOTO 0x07BC
189: 0x0657 [0x02] IF !(ExtData[1]->WorkLocal[4] == 9*) GOTO 0x0667
190: 0x065F [0x03] ExtData[1]->WorkLocal[21] = 0*
191: 0x0664 [0x01] GOTO 0x07BC
192: 0x0667 [0x02] IF !(ExtData[1]->WorkLocal[4] == 10*) GOTO 0x0677
193: 0x066F [0x03] ExtData[1]->WorkLocal[21] = 0*
194: 0x0674 [0x01] GOTO 0x07BC
195: 0x0677 [0x02] IF !(ExtData[1]->WorkLocal[4] == 11*) GOTO 0x0687
196: 0x067F [0x03] ExtData[1]->WorkLocal[21] = 0*
197: 0x0684 [0x01] GOTO 0x07BC
198: 0x0687 [0x02] IF !(ExtData[1]->WorkLocal[4] == 12*) GOTO 0x0697
199: 0x068F [0x03] ExtData[1]->WorkLocal[21] = 0*
200: 0x0694 [0x01] GOTO 0x07BC
201: 0x0697 [0x02] IF !(ExtData[1]->WorkLocal[4] == 13*) GOTO 0x06A7
202: 0x069F [0x03] ExtData[1]->WorkLocal[21] = 0*
203: 0x06A4 [0x01] GOTO 0x07BC
204: 0x06A7 [0x02] IF !(ExtData[1]->WorkLocal[4] == 14*) GOTO 0x06B7
205: 0x06AF [0x03] ExtData[1]->WorkLocal[21] = 0*
206: 0x06B4 [0x01] GOTO 0x07BC
207: 0x06B7 [0x02] IF !(ExtData[1]->WorkLocal[4] == 15*) GOTO 0x06C7
208: 0x06BF [0x03] ExtData[1]->WorkLocal[21] = 0*
209: 0x06C4 [0x01] GOTO 0x07BC
210: 0x06C7 [0x02] IF !(ExtData[1]->WorkLocal[4] == 16*) GOTO 0x06D7
211: 0x06CF [0x03] ExtData[1]->WorkLocal[21] = 0*
212: 0x06D4 [0x01] GOTO 0x07BC
213: 0x06D7 [0x02] IF !(ExtData[1]->WorkLocal[4] == 17*) GOTO 0x06E7
214: 0x06DF [0x03] ExtData[1]->WorkLocal[21] = 0*
215: 0x06E4 [0x01] GOTO 0x07BC
216: 0x06E7 [0x02] IF !(ExtData[1]->WorkLocal[4] == 18*) GOTO 0x06F7
217: 0x06EF [0x03] ExtData[1]->WorkLocal[21] = 0*
218: 0x06F4 [0x01] GOTO 0x07BC
219: 0x06F7 [0x02] IF !(ExtData[1]->WorkLocal[4] == 19*) GOTO 0x0707
220: 0x06FF [0x03] ExtData[1]->WorkLocal[21] = 0*
221: 0x0704 [0x01] GOTO 0x07BC
222: 0x0707 [0x02] IF !(ExtData[1]->WorkLocal[4] == 20*) GOTO 0x0717
223: 0x070F [0x03] ExtData[1]->WorkLocal[21] = 0*
224: 0x0714 [0x01] GOTO 0x07BC
225: 0x0717 [0x02] IF !(ExtData[1]->WorkLocal[4] == 21*) GOTO 0x0727
226: 0x071F [0x03] ExtData[1]->WorkLocal[21] = 0*
227: 0x0724 [0x01] GOTO 0x07BC
228: 0x0727 [0x02] IF !(ExtData[1]->WorkLocal[4] == 22*) GOTO 0x0737
229: 0x072F [0x03] ExtData[1]->WorkLocal[21] = 0*
230: 0x0734 [0x01] GOTO 0x07BC
231: 0x0737 [0x02] IF !(ExtData[1]->WorkLocal[4] == 23*) GOTO 0x0747
232: 0x073F [0x03] ExtData[1]->WorkLocal[21] = 0*
233: 0x0744 [0x01] GOTO 0x07BC
234: 0x0747 [0x02] IF !(ExtData[1]->WorkLocal[4] == 24*) GOTO 0x0757
235: 0x074F [0x03] ExtData[1]->WorkLocal[21] = 0*
236: 0x0754 [0x01] GOTO 0x07BC
237: 0x0757 [0x02] IF !(ExtData[1]->WorkLocal[4] == 25*) GOTO 0x0767
238: 0x075F [0x03] ExtData[1]->WorkLocal[21] = 0*
239: 0x0764 [0x01] GOTO 0x07BC
240: 0x0767 [0x02] IF !(ExtData[1]->WorkLocal[4] == 26*) GOTO 0x0777
241: 0x076F [0x03] ExtData[1]->WorkLocal[21] = 0*
242: 0x0774 [0x01] GOTO 0x07BC
243: 0x0777 [0x02] IF !(ExtData[1]->WorkLocal[4] == 27*) GOTO 0x0787
244: 0x077F [0x03] ExtData[1]->WorkLocal[21] = 0*
245: 0x0784 [0x01] GOTO 0x07BC
246: 0x0787 [0x02] IF !(ExtData[1]->WorkLocal[4] == 28*) GOTO 0x0797
247: 0x078F [0x03] ExtData[1]->WorkLocal[21] = 0*
248: 0x0794 [0x01] GOTO 0x07BC
249: 0x0797 [0x02] IF !(ExtData[1]->WorkLocal[4] == 29*) GOTO 0x07A7
250: 0x079F [0x03] ExtData[1]->WorkLocal[21] = 0*
251: 0x07A4 [0x01] GOTO 0x07BC
252: 0x07A7 [0x02] IF !(ExtData[1]->WorkLocal[4] == 30*) GOTO 0x07B7
253: 0x07AF [0x03] ExtData[1]->WorkLocal[21] = 0*
254: 0x07B4 [0x01] GOTO 0x07BC
255: 0x07B7 [0x03] ExtData[1]->WorkLocal[21] = 0*

SUBROUTINE_07BC:
256: 0x07BC [0x02] IF !(ExtData[1]->WorkLocal[2] == 1*) GOTO 0x07D7
257: 0x07C4 [0x5C] MUSIC_CONTROL: Set Idle (Day) music to song 220*
258: 0x07C8 [0x5C] MUSIC_CONTROL: Set Idle (Night) music to song 220*
259: 0x07CC [0x5C] MUSIC_CONTROL: Set Combat (Solo) music to song 220*
260: 0x07D0 [0x5C] MUSIC_CONTROL: Set Combat (Party) music to song 220*
261: 0x07D4 [0x01] GOTO 0x07EF
262: 0x07D7 [0x02] IF !(ExtData[1]->WorkLocal[21] == 0*) GOTO 0x07EF
263: 0x07DF [0x5C] MUSIC_CONTROL: Set Idle (Day) music to song 220*
264: 0x07E3 [0x5C] MUSIC_CONTROL: Set Idle (Night) music to song 220*
265: 0x07E7 [0x5C] MUSIC_CONTROL: Set Combat (Solo) music to song 220*
266: 0x07EB [0x5C] MUSIC_CONTROL: Set Combat (Party) music to song 220*

SUBROUTINE_07EF:
267: 0x07EF [0x02] IF !(ExtData[1]->WorkLocal[0] == 1*) GOTO 0x0807
268: 0x07F7 [0x2D] CREATE_ZONE_SCHEDULER_TASK: Create scheduler "pan3" with entities [EventEntity, EventEntity]
269: 0x0804 [0x01] GOTO 0x0837
270: 0x0807 [0x02] IF !(ExtData[1]->WorkLocal[0] == 2*) GOTO 0x081F
271: 0x080F [0x2D] CREATE_ZONE_SCHEDULER_TASK: Create scheduler "pan1" with entities [EventEntity, EventEntity]
272: 0x081C [0x01] GOTO 0x0837
273: 0x081F [0x02] IF !(ExtData[1]->WorkLocal[0] == 3*) GOTO 0x0837
274: 0x0827 [0x2D] CREATE_ZONE_SCHEDULER_TASK: Create scheduler "pan2" with entities [EventEntity, EventEntity]
275: 0x0834 [0x01] GOTO 0x0837

SUBROUTINE_0837:
276: 0x0837 [0x02] IF !(ExtData[1]->WorkLocal[2] == 0*) GOTO 0x0845
277: 0x083F [0x1A] CALL_SUBROUTINE(address=0x10C8)
278: 0x0842 [0x01] GOTO 0x087E
279: 0x0845 [0x6C] FADE_ENTITY_COLOR(entity_id=LocalPlayer, end_alpha=0*, fade_time=1*)
280: 0x084E [0x62] LOAD_EVENT_SCHEDULER: Load scheduler "main" with entities [LocalPlayer, LocalPlayer], work=[2*, 0*]
281: 0x085F [0x45] LOAD_SCHEDULED_TASK: Load scheduler "ovl1" with entities [LocalPlayer, LocalPlayer], work=[200*, 0*]
282: 0x0870 [0x46] CAMERA_CONTROL: Query status
283: 0x0872 [0x12] 0x0200 = rand()
284: 0x0875 [0x12] ExtData[1]->WorkLocal[0] = rand()
285: 0x0878 [0x80] LOAD_WAIT(entity=Unknown NPC (ID: 1174961664/0x46087E00))
286: 0x087D [0x00] END_REQSTACK()

SUBROUTINE_087E:
287: 0x087E [0x03] Work_Zone[1] = 100*
288: 0x0883 [0x07] Work_Zone[1] += ExtData[1]->WorkLocal[3]
289: 0x0888 [0x01] GOTO 0x08A5

SUBROUTINE_088E:
290: 0x088E [0x0B] ExtData[1]->WorkLocal[0]++
291: 0x0891 [0x02] IF !(0* == 1*) GOTO 0x089E
292: 0x0899 [0x03] ExtData[1]->WorkLocal[0] = 4*
293: 0x089E [0x01] GOTO 0x01A4
294: 0x08A1 [0x48] [System] [7071*]:
    → "You cannot enter the battlefield at present. Please wait a little longer."
295: 0x08A4 [0x23] WAIT_FOR_DIALOG_INTERACTION

SUBROUTINE_08A5:
296: 0x08A5 [0x45] LOAD_SCHEDULED_TASK: Load scheduler "whi1" with entities [LocalPlayer, LocalPlayer], work=[201*, 0*]
297: 0x08B6 [0x45] LOAD_SCHEDULED_TASK: Load scheduler "blof" with entities [LocalPlayer, LocalPlayer], work=[200*, 0*]
298: 0x08C7 [0x45] LOAD_SCHEDULED_TASK: Load scheduler "fdi0" with entities [LocalPlayer, LocalPlayer], work=[200*, 0*]

SUBROUTINE_08D8:
299: 0x08D8 [0x02] IF !(ExtData[1]->WorkLocal[7] == 1*) GOTO 0x08F0
300: 0x08E0 [0x5C] MUSIC_CONTROL: Set Idle (Day) music to song 0*
301: 0x08E4 [0x5C] MUSIC_CONTROL: Set Idle (Night) music to song 0*
302: 0x08E8 [0x5C] MUSIC_CONTROL: Set Combat (Solo) music to song 220*
303: 0x08EC [0x5C] MUSIC_CONTROL: Set Combat (Party) music to song 220*
304: 0x08F0 [0x21] END_EVENT
305: 0x08F1 [0x00] END_REQSTACK()

SUBROUTINE_08F2:
306: 0x08F2 [0x02] IF !(ExtData[1]->WorkLocal[3] == 1*) GOTO 0x0904
307: 0x08FA [0x48] [System] [7607*]:
    → "Level limit of 40. The experience point reward for this battlefield will be reduced for parties of seven or more members."
308: 0x08FD [0x23] WAIT_FOR_DIALOG_INTERACTION
309: 0x08FE [0x05] ExtData[1]->WorkLocal[22] = 1
310: 0x0901 [0x01] GOTO 0x0904

SUBROUTINE_0904:
311: 0x0904 [0x1B] RETURN
```

#### Data or dead code:

```
# Dead code (unreachable instructions):
     0x0070 [0x01] GOTO 0x0145
# Dead code (unreachable instructions):
     0x0116 [0x01] GOTO 0x011E
# Dead code (unreachable instructions):
     0x0142 [0x01] GOTO 0x0145
# Dead code (unreachable instructions):
     0x02C1 [0x01] GOTO 0x088E
     0x02D3 [0x01] GOTO 0x088E
# Dead code (unreachable instructions):
     0x04D5 [0x01] GOTO 0x088E
     0x04E3 [0x01] GOTO 0x088E
# Dead code (unreachable instructions):
     0x088B [0x01] GOTO 0x088E
```

### Event 32002

#### Metadata

| Field        | Value     |
|--------------|-----------|
| Entrypoint   | 0x0905    |
| Data Size    | 494 bytes |
| Instructions | 83        |

```
      00 01 02 03 04 05 06 07  08 09 0A 0B 0C 0D 0E 0F
      -- -- -- -- -- -- -- --  -- -- -- -- -- -- -- --
0900:                03 05 00  06 10 03 21 00 07 10 03       ......!....
0910: 20 00 08 10 20 01 42 3B  F0 FF FF 7F 20 10 21 10   ... .B;.... .!.
0920: 22 10 3A F0 FF FF 7F 23  10 45 0E 80 F0 FF FF 7F  ".:....#.E......
0930: F0 FF FF 7F 66 64 6F 31  00 80 55 0E 80 F0 FF FF  ....fdo1..U.....
0940: 7F F0 FF FF 7F 66 64 6F  31 02 00 80 05 80 00 B0  .....fdo1.......
0950: 09 02 05 00 05 80 80 68  09 47 00 00 80 00 80 00  .......h.G......
0960: 80 00 80 47 01 01 AD 09  02 05 00 09 80 80 7F 09  ...G............
0970: 47 00 00 80 00 80 00 80  00 80 47 01 01 AD 09 02  G.........G.....
0980: 05 00 0A 80 80 96 09 47  00 00 80 00 80 00 80 00  .......G........
0990: 80 47 01 01 AD 09 02 05  00 0B 80 80 AD 09 47 00  .G............G.
09A0: 00 80 00 80 00 80 00 80  47 01 01 AD 09 01 B9 0A  ........G.......
09B0: 02 20 00 40 80 80 3A 0A  02 21 00 00 80 80 CF 09  . .@..:..!......
09C0: 47 00 41 80 42 80 43 80  44 80 47 01 01 37 0A 02  G.A.B.C.D.G..7..
09D0: 21 00 05 80 80 E6 09 47  00 45 80 46 80 47 80 48  !......G.E.F.G.H
09E0: 80 47 01 01 37 0A 02 21  00 09 80 80 FD 09 47 00  .G..7..!......G.
09F0: 49 80 4A 80 4B 80 4C 80  47 01 01 37 0A 02 21 00  I.J.K.L.G..7..!.
0A00: 0A 80 80 14 0A 47 00 4D  80 4E 80 4F 80 50 80 47  .....G.M.N.O.P.G
0A10: 01 01 37 0A 02 21 00 0B  80 80 2B 0A 47 00 51 80  ..7..!....+.G.Q.
0A20: 52 80 53 80 54 80 47 01  01 37 0A 47 00 55 80 56  R.S.T.G..7.G.U.V
0A30: 80 00 80 57 80 47 01 01  B9 0A 02 20 00 21 80 80  ...W.G..... .!..
0A40: AD 0A 02 21 00 05 80 80  59 0A 47 00 58 80 59 80  ...!....Y.G.X.Y.
0A50: 5A 80 5B 80 47 01 01 AA  0A 02 21 00 09 80 80 70  Z.[.G.....!....p
0A60: 0A 47 00 5C 80 5D 80 5E  80 5F 80 47 01 01 AA 0A  .G.\.].^._.G....
0A70: 02 21 00 0A 80 80 87 0A  47 00 60 80 61 80 62 80  .!......G.`.a.b.
0A80: 63 80 47 01 01 AA 0A 02  21 00 0B 80 80 9E 0A 47  c.G.....!......G
0A90: 00 64 80 65 80 66 80 67  80 47 01 01 AA 0A 47 00  .d.e.f.g.G....G.
0AA0: 55 80 56 80 00 80 57 80  47 01 01 B9 0A 47 00 55  U.V...W.G....G.U
0AB0: 80 56 80 00 80 57 80 47  01 38 0F 80 1A 7F 2F 45  .V...W.G.8..../E
0AC0: 3E 80 F0 FF FF 7F F0 FF  FF 7F 77 68 69 31 00 80  >.........whi1..
0AD0: 45 0E 80 F0 FF FF 7F F0  FF FF 7F 62 6C 6F 66 00  E..........blof.
0AE0: 80 5C 00 00 80 5C 01 00  80 5C 02 3C 80 5C 03 3C  .\...\...\.<.\.<
0AF0: 80 21 00                                          .!.             
```

#### Opcodes

```
  0: 0x0905 [0x03] ExtData[1]->WorkLocal[5] = Work_Zone[6]
  1: 0x090A [0x03] ExtData[1]->WorkLocal[33] = Work_Zone[7]
  2: 0x090F [0x03] ExtData[1]->WorkLocal[32] = Work_Zone[8]
  3: 0x0914 [0x20] SET_CLI_EVENT_UC_FLAG: Lock player control
  4: 0x0916 [0x42] SET_CLI_EVENT_CANCEL_DATA()
  5: 0x0917 [0x3B] GET_ENTITY_POSITION(entity=LocalPlayer, x_destination=Work_Zone[32], y_destination=Work_Zone[33], z_destination=Work_Zone[34])
  6: 0x0922 [0x3A] CONVERT_YAW_TO_BYTE(entity=LocalPlayer, result_destination=Work_Zone[35])
  7: 0x0929 [0x45] LOAD_SCHEDULED_TASK: Load scheduler "fdo1" with entities [LocalPlayer, LocalPlayer], work=[200*, 0*]
  8: 0x093A [0x55] WAIT_LOAD_SCHEDULER: Wait for scheduler "fdo1" with entities [LocalPlayer, LocalPlayer], work=200*
  9: 0x0949 [0x02] IF !(0* == 1*) GOTO 0x09B0
 10: 0x0951 [0x02] IF !(ExtData[1]->WorkLocal[5] == 1*) GOTO 0x0968
 11: 0x0959 [0x47] UPDATE_PLAYER_POS(0.000*, 0.000*, 0.000*, yaw=0.0°*)
 12: 0x0963 [0x47] WAIT_PLAYER_POS_UPDATE
 13: 0x0965 [0x01] GOTO 0x09AD
 14: 0x0968 [0x02] IF !(ExtData[1]->WorkLocal[5] == 2*) GOTO 0x097F
 15: 0x0970 [0x47] UPDATE_PLAYER_POS(0.000*, 0.000*, 0.000*, yaw=0.0°*)
 16: 0x097A [0x47] WAIT_PLAYER_POS_UPDATE
 17: 0x097C [0x01] GOTO 0x09AD
 18: 0x097F [0x02] IF !(ExtData[1]->WorkLocal[5] == 3*) GOTO 0x0996
 19: 0x0987 [0x47] UPDATE_PLAYER_POS(0.000*, 0.000*, 0.000*, yaw=0.0°*)
 20: 0x0991 [0x47] WAIT_PLAYER_POS_UPDATE
 21: 0x0993 [0x01] GOTO 0x09AD
 22: 0x0996 [0x02] IF !(ExtData[1]->WorkLocal[5] == 4*) GOTO 0x09AD
 23: 0x099E [0x47] UPDATE_PLAYER_POS(0.000*, 0.000*, 0.000*, yaw=0.0°*)
 24: 0x09A8 [0x47] WAIT_PLAYER_POS_UPDATE
 25: 0x09AA [0x01] GOTO 0x09AD

SUBROUTINE_09AD:
 26: 0x09AD [0x01] GOTO 0x0AB9
 27: 0x09B0 [0x02] IF !(ExtData[1]->WorkLocal[32] == 180*) GOTO 0x0A3A
 28: 0x09B8 [0x02] IF !(ExtData[1]->WorkLocal[33] == 0*) GOTO 0x09CF
 29: 0x09C0 [0x47] UPDATE_PLAYER_POS(-605.141*, 479.929*, -22.681*, yaw=87.2°*)
 30: 0x09CA [0x47] WAIT_PLAYER_POS_UPDATE
 31: 0x09CC [0x01] GOTO 0x0A37
 32: 0x09CF [0x02] IF !(ExtData[1]->WorkLocal[33] == 1*) GOTO 0x09E6
 33: 0x09D7 [0x47] UPDATE_PLAYER_POS(-262.589*, 377.857*, -137.313*, yaw=305.3°*)
 34: 0x09E1 [0x47] WAIT_PLAYER_POS_UPDATE
 35: 0x09E3 [0x01] GOTO 0x0A37
 36: 0x09E6 [0x02] IF !(ExtData[1]->WorkLocal[33] == 2*) GOTO 0x09FD
 37: 0x09EE [0x47] UPDATE_PLAYER_POS(18.348*, 486.940*, -224.334*, yaw=17.1°*)
 38: 0x09F8 [0x47] WAIT_PLAYER_POS_UPDATE
 39: 0x09FA [0x01] GOTO 0x0A37
 40: 0x09FD [0x02] IF !(ExtData[1]->WorkLocal[33] == 3*) GOTO 0x0A14
 41: 0x0A05 [0x47] UPDATE_PLAYER_POS(231.593*, 360.094*, -173.572*, yaw=160.8°*)
 42: 0x0A0F [0x47] WAIT_PLAYER_POS_UPDATE
 43: 0x0A11 [0x01] GOTO 0x0A37
 44: 0x0A14 [0x02] IF !(ExtData[1]->WorkLocal[33] == 4*) GOTO 0x0A2B
 45: 0x0A1C [0x47] UPDATE_PLAYER_POS(553.664*, 523.939*, -38.205*, yaw=233.9°*)
 46: 0x0A26 [0x47] WAIT_PLAYER_POS_UPDATE
 47: 0x0A28 [0x01] GOTO 0x0A37
 48: 0x0A2B [0x47] UPDATE_PLAYER_POS(-300.052*, -247.093*, 0.000*, yaw=271.2°*)
 49: 0x0A35 [0x47] WAIT_PLAYER_POS_UPDATE

SUBROUTINE_0A37:
 50: 0x0A37 [0x01] GOTO 0x0AB9
 51: 0x0A3A [0x02] IF !(ExtData[1]->WorkLocal[32] == 6*) GOTO 0x0AAD
 52: 0x0A42 [0x02] IF !(ExtData[1]->WorkLocal[33] == 1*) GOTO 0x0A59
 53: 0x0A4A [0x47] UPDATE_PLAYER_POS(-875.117*, -43.892*, -48.084*, yaw=45.1°*)
 54: 0x0A54 [0x47] WAIT_PLAYER_POS_UPDATE
 55: 0x0A56 [0x01] GOTO 0x0AAA
 56: 0x0A59 [0x02] IF !(ExtData[1]->WorkLocal[33] == 2*) GOTO 0x0A70
 57: 0x0A61 [0x47] UPDATE_PLAYER_POS(-755.499*, 563.947*, -112.035*, yaw=313.5°*)
 58: 0x0A6B [0x47] WAIT_PLAYER_POS_UPDATE
 59: 0x0A6D [0x01] GOTO 0x0AAA
 60: 0x0A70 [0x02] IF !(ExtData[1]->WorkLocal[33] == 3*) GOTO 0x0A87
 61: 0x0A78 [0x47] UPDATE_PLAYER_POS(123.251*, 754.209*, -172.124*, yaw=38.7°*)
 62: 0x0A82 [0x47] WAIT_PLAYER_POS_UPDATE
 63: 0x0A84 [0x01] GOTO 0x0AAA
 64: 0x0A87 [0x02] IF !(ExtData[1]->WorkLocal[33] == 4*) GOTO 0x0A9E
 65: 0x0A8F [0x47] UPDATE_PLAYER_POS(-516.404*, -803.323*, 24.206*, yaw=38.4°*)
 66: 0x0A99 [0x47] WAIT_PLAYER_POS_UPDATE
 67: 0x0A9B [0x01] GOTO 0x0AAA
 68: 0x0A9E [0x47] UPDATE_PLAYER_POS(-300.052*, -247.093*, 0.000*, yaw=271.2°*)
 69: 0x0AA8 [0x47] WAIT_PLAYER_POS_UPDATE

SUBROUTINE_0AAA:
 70: 0x0AAA [0x01] GOTO 0x0AB9
 71: 0x0AAD [0x47] UPDATE_PLAYER_POS(-300.052*, -247.093*, 0.000*, yaw=271.2°*)
 72: 0x0AB7 [0x47] WAIT_PLAYER_POS_UPDATE

SUBROUTINE_0AB9:
 73: 0x0AB9 [0x38] SET_CLIENT_EVENT_MODE(mode=19*)
 74: 0x0ABC [0x1A] CALL_SUBROUTINE(address=0x2F7F)
 75: 0x0ABF [0x45] LOAD_SCHEDULED_TASK: Load scheduler "whi1" with entities [LocalPlayer, LocalPlayer], work=[201*, 0*]
 76: 0x0AD0 [0x45] LOAD_SCHEDULED_TASK: Load scheduler "blof" with entities [LocalPlayer, LocalPlayer], work=[200*, 0*]
 77: 0x0AE1 [0x5C] MUSIC_CONTROL: Set Idle (Day) music to song 0*
 78: 0x0AE5 [0x5C] MUSIC_CONTROL: Set Idle (Night) music to song 0*
 79: 0x0AE9 [0x5C] MUSIC_CONTROL: Set Combat (Solo) music to song 220*
 80: 0x0AED [0x5C] MUSIC_CONTROL: Set Combat (Party) music to song 220*
 81: 0x0AF1 [0x21] END_EVENT
 82: 0x0AF2 [0x00] END_REQSTACK()
```

### Event 32001

#### Metadata

| Field        | Value      |
|--------------|------------|
| Entrypoint   | 0x0AF3     |
| Data Size    | 1033 bytes |
| Instructions | 177        |

```
      00 01 02 03 04 05 06 07  08 09 0A 0B 0C 0D 0E 0F
      -- -- -- -- -- -- -- --  -- -- -- -- -- -- -- --
0AF0:          79 00 F0 FF FF  7F F0 FF FF 7F 03 21 00     y..........!.
0B00: 02 10 03 1A 00 03 10 03  1B 00 05 10 03 20 00 06  ............. ..
0B10: 10 03 19 00 07 10 03 17  00 08 10 02 17 00 0A 80  ................
0B20: 04 28 0B 03 17 00 00 80  03 1C 00 09 10 20 01 42  .(........... .B
0B30: 3B F0 FF FF 7F 20 10 21  10 22 10 3A F0 FF FF 7F  ;.... .!.".:....
0B40: 23 10 02 20 00 40 80 01  4D 0B 1C 68 80 45 3E 80  #.. .@..M..h.E>.
0B50: F0 FF FF 7F F0 FF FF 7F  77 68 69 31 00 80 45 0E  ........whi1..E.
0B60: 80 F0 FF FF 7F F0 FF FF  7F 62 6C 6F 66 00 80 45  .........blof..E
0B70: 0E 80 F0 FF FF 7F F0 FF  FF 7F 66 64 6F 31 00 80  ..........fdo1..
0B80: 55 0E 80 F0 FF FF 7F F0  FF FF 7F 66 64 6F 31 6C  U..........fdo1l
0B90: F0 FF FF 7F 69 80 05 80  06 01 10 02 17 00 00 80  ....i...........
0BA0: 03 A6 0B 01 F4 0C 02 20  00 40 80 80 30 0C 02 21  ....... .@..0..!
0BB0: 00 00 80 80 C5 0B 47 00  6A 80 6B 80 6C 80 6D 80  ......G.j.k.l.m.
0BC0: 47 01 01 2D 0C 02 21 00  05 80 80 DC 0B 47 00 6E  G..-..!......G.n
0BD0: 80 6F 80 70 80 71 80 47  01 01 2D 0C 02 21 00 09  .o.p.q.G..-..!..
0BE0: 80 80 F3 0B 47 00 72 80  73 80 74 80 75 80 47 01  ....G.r.s.t.u.G.
0BF0: 01 2D 0C 02 21 00 0A 80  80 0A 0C 47 00 76 80 77  .-..!......G.v.w
0C00: 80 78 80 79 80 47 01 01  2D 0C 02 21 00 0B 80 80  .x.y.G..-..!....
0C10: 21 0C 47 00 7A 80 7B 80  7C 80 7D 80 47 01 01 2D  !.G.z.{.|.}.G..-
0C20: 0C 47 00 7E 80 7F 80 80  80 81 80 47 01 01 F4 0C  .G.~.......G....
0C30: 02 20 00 82 80 80 5E 0C  02 19 00 00 80 80 4F 0C  . ....^.......O.
0C40: 47 00 7E 80 7F 80 80 80  81 80 47 01 01 5B 0C 47  G.~.......G..[.G
0C50: 00 83 80 84 80 85 80 86  80 47 01 01 F4 0C 02 20  .........G..... 
0C60: 00 87 80 80 8C 0C 02 19  00 0B 80 80 7D 0C 47 00  ............}.G.
0C70: 88 80 89 80 8A 80 8B 80  47 01 01 89 0C 47 00 7E  ........G....G.~
0C80: 80 7F 80 80 80 81 80 47  01 01 F4 0C 02 20 00 8C  .......G..... ..
0C90: 80 80 BA 0C 02 19 00 0B  80 80 AB 0C 47 00 8D 80  ............G...
0CA0: 8E 80 8F 80 90 80 47 01  01 B7 0C 47 00 7E 80 7F  ......G....G.~..
0CB0: 80 80 80 81 80 47 01 01  F4 0C 02 20 00 91 80 80  .....G..... ....
0CC0: E8 0C 02 19 00 0A 80 80  D9 0C 47 00 92 80 93 80  ..........G.....
0CD0: 94 80 95 80 47 01 01 E5  0C 47 00 7E 80 7F 80 80  ....G....G.~....
0CE0: 80 81 80 47 01 01 F4 0C  47 00 7E 80 7F 80 80 80  ...G....G.~.....
0CF0: 81 80 47 01 38 0F 80 02  17 00 09 80 00 02 0D 01  ..G.8...........
0D00: 1D 0D 02 17 00 05 80 00  CD 0D 1C 01 80 24 3B 80  .............$;.
0D10: 05 80 00 80 25 02 00 10  00 80 00 CD 0D 02 20 00  ....%......... .
0D20: 40 80 00 89 0D 02 21 00  00 80 80 37 0D 36 6A 80  @.....!....7.6j.
0D30: 6B 80 6C 80 01 86 0D 02  21 00 05 80 80 49 0D 36  k.l.....!....I.6
0D40: 6E 80 6F 80 70 80 01 86  0D 02 21 00 09 80 80 5B  n.o.p.....!....[
0D50: 0D 36 72 80 73 80 74 80  01 86 0D 02 21 00 0A 80  .6r.s.t.....!...
0D60: 80 6D 0D 36 76 80 77 80  78 80 01 86 0D 02 21 00  .m.6v.w.x.....!.
0D70: 0B 80 80 7F 0D 36 7A 80  7B 80 7C 80 01 86 0D 36  .....6z.{.|....6
0D80: 7E 80 7F 80 80 80 01 92  0D 37 7E 80 7F 80 80 80  ~........7~.....
0D90: 81 80 80 F0 FF FF 7F 62  09 80 F0 FF FF 7F F0 FF  .......b........
0DA0: FF 7F 6D 61 69 6E 00 80  45 0E 80 F0 FF FF 7F F0  ..main..E.......
0DB0: FF FF 7F 66 64 69 32 00  80 46 02 12 00 02 12 00  ...fdi2..F......
0DC0: 00 80 00 C7 0D 46 00 01  F4 0D 01 CD 0D 02 17 00  .....F..........
0DD0: 04 80 04 E6 0D 5C 00 3C  80 5C 01 3C 80 5C 02 3C  .....\.<.\.<.\.<
0DE0: 80 5C 03 3C 80 9A 1A 2A  1F 02 17 00 00 80 03 F4  .\.<...*........
0DF0: 0D 01 94 0E 02 20 00 96  80 80 FF 0D 01 FF 0D 02  ..... ..........
0E00: 20 00 28 80 80 0A 0E 01  94 0E 02 20 00 0F 80 80   .(........ ....
0E10: 15 0E 01 94 0E 02 20 00  2A 80 80 20 0E 01 94 0E  ...... .*.. ....
0E20: 02 20 00 2C 80 80 2B 0E  01 94 0E 03 05 10 1B 00  . .,..+.........
0E30: 02 05 10 00 80 02 94 0E  02 05 10 37 80 04 53 0E  ...........7..S.
0E40: 3F 04 10 05 10 37 80 15  05 10 37 80 48 97 80 23  ?....7....7.H..#
0E50: 01 57 0E 48 98 80 23 02  1B 00 1A 00 05 6B 0E 03  .W.H..#......k..
0E60: 07 10 19 00 48 99 80 23  01 94 0E 02 1A 00 37 80  ....H..#......7.
0E70: 04 8B 0E 03 05 10 1A 00  3F 04 10 05 10 37 80 15  ........?....7..
0E80: 05 10 37 80 48 9A 80 23  01 94 0E 03 05 10 1A 00  ..7.H..#........
0E90: 48 9B 80 23 02 18 00 00  80 00 AC 0E 5C 00 00 80  H..#........\...
0EA0: 5C 01 00 80 5C 02 3C 80  5C 03 3C 80 02 17 00 00  \...\.<.\.<.....
0EB0: 80 03 D5 0E 45 0E 80 F0  FF FF 7F F0 FF FF 7F 66  ....E..........f
0EC0: 64 69 32 00 80 5C 00 00  80 5C 01 00 80 5C 02 3C  di2..\...\...\.<
0ED0: 80 5C 03 3C 80 06 18 00  45 3E 80 F0 FF FF 7F F0  .\.<....E>......
0EE0: FF FF 7F 77 68 69 31 00  80 45 0E 80 F0 FF FF 7F  ...whi1..E......
0EF0: F0 FF FF 7F 62 6C 6F 66  00 80 21 00              ....blof..!.    
```

#### Opcodes

```
  0: 0x0AF3 [0x79] LocalPlayer looks at LocalPlayer (Basic look)
  1: 0x0AFD [0x03] ExtData[1]->WorkLocal[33] = Work_Zone[2]
  2: 0x0B02 [0x03] ExtData[1]->WorkLocal[26] = Work_Zone[3]
  3: 0x0B07 [0x03] ExtData[1]->WorkLocal[27] = Work_Zone[5]
  4: 0x0B0C [0x03] ExtData[1]->WorkLocal[32] = Work_Zone[6]
  5: 0x0B11 [0x03] ExtData[1]->WorkLocal[25] = Work_Zone[7]
  6: 0x0B16 [0x03] ExtData[1]->WorkLocal[23] = Work_Zone[8]
  7: 0x0B1B [0x02] IF !(ExtData[1]->WorkLocal[23] < 3*) GOTO 0x0B28
  8: 0x0B23 [0x03] ExtData[1]->WorkLocal[23] = 0*
  9: 0x0B28 [0x03] ExtData[1]->WorkLocal[28] = Work_Zone[9]
 10: 0x0B2D [0x20] SET_CLI_EVENT_UC_FLAG: Lock player control
 11: 0x0B2F [0x42] SET_CLI_EVENT_CANCEL_DATA()
 12: 0x0B30 [0x3B] GET_ENTITY_POSITION(entity=LocalPlayer, x_destination=Work_Zone[32], y_destination=Work_Zone[33], z_destination=Work_Zone[34])
 13: 0x0B3B [0x3A] CONVERT_YAW_TO_BYTE(entity=LocalPlayer, result_destination=Work_Zone[35])
 14: 0x0B42 [0x02] IF !(ExtData[1]->WorkLocal[32] == 180*) GOTO 0x0B4D
 15: 0x0B4A [0x1C] WAIT(300* ticks)
 16: 0x0B4D [0x45] LOAD_SCHEDULED_TASK: Load scheduler "whi1" with entities [LocalPlayer, LocalPlayer], work=[201*, 0*]
 17: 0x0B5E [0x45] LOAD_SCHEDULED_TASK: Load scheduler "blof" with entities [LocalPlayer, LocalPlayer], work=[200*, 0*]
 18: 0x0B6F [0x45] LOAD_SCHEDULED_TASK: Load scheduler "fdo1" with entities [LocalPlayer, LocalPlayer], work=[200*, 0*]
 19: 0x0B80 [0x55] WAIT_LOAD_SCHEDULER: Wait for scheduler "fdo1" with entities [LocalPlayer, LocalPlayer], work=200*
 20: 0x0B8F [0x6C] FADE_ENTITY_COLOR(entity_id=LocalPlayer, end_alpha=128*, fade_time=1*)
 21: 0x0B98 [0x06] Work_Zone[1] = 0
 22: 0x0B9B [0x02] IF !(ExtData[1]->WorkLocal[23] >= 0*) GOTO 0x0BA6
 23: 0x0BA3 [0x01] GOTO 0x0CF4
 24: 0x0BA6 [0x02] IF !(ExtData[1]->WorkLocal[32] == 180*) GOTO 0x0C30
 25: 0x0BAE [0x02] IF !(ExtData[1]->WorkLocal[33] == 0*) GOTO 0x0BC5
 26: 0x0BB6 [0x47] UPDATE_PLAYER_POS(-618.329*, -643.868*, -25.805*, yaw=330.5°*)
 27: 0x0BC0 [0x47] WAIT_PLAYER_POS_UPDATE
 28: 0x0BC2 [0x01] GOTO 0x0C2D
 29: 0x0BC5 [0x02] IF !(ExtData[1]->WorkLocal[33] == 1*) GOTO 0x0BDC
 30: 0x0BCD [0x47] UPDATE_PLAYER_POS(-332.163*, -441.914*, -95.055*, yaw=330.5°*)
 31: 0x0BD7 [0x47] WAIT_PLAYER_POS_UPDATE
 32: 0x0BD9 [0x01] GOTO 0x0C2D
 33: 0x0BDC [0x02] IF !(ExtData[1]->WorkLocal[33] == 2*) GOTO 0x0BF3
 34: 0x0BE4 [0x47] UPDATE_PLAYER_POS(-12.464*, -648.377*, -194.629*, yaw=331.3°*)
 35: 0x0BEE [0x47] WAIT_PLAYER_POS_UPDATE
 36: 0x0BF0 [0x01] GOTO 0x0C2D
 37: 0x0BF3 [0x02] IF !(ExtData[1]->WorkLocal[33] == 3*) GOTO 0x0C0A
 38: 0x0BFB [0x47] UPDATE_PLAYER_POS(323.381*, -443.793*, -108.440*, yaw=329.1°*)
 39: 0x0C05 [0x47] WAIT_PLAYER_POS_UPDATE
 40: 0x0C07 [0x01] GOTO 0x0C2D
 41: 0x0C0A [0x02] IF !(ExtData[1]->WorkLocal[33] == 4*) GOTO 0x0C21
 42: 0x0C12 [0x47] UPDATE_PLAYER_POS(599.907*, -676.969*, -22.473*, yaw=330.7°*)
 43: 0x0C1C [0x47] WAIT_PLAYER_POS_UPDATE
 44: 0x0C1E [0x01] GOTO 0x0C2D
 45: 0x0C21 [0x47] UPDATE_PLAYER_POS(-230.000*, -284.836*, 8.027*, yaw=90.0°*)
 46: 0x0C2B [0x47] WAIT_PLAYER_POS_UPDATE

SUBROUTINE_0C2D:
 47: 0x0C2D [0x01] GOTO 0x0CF4
 48: 0x0C30 [0x02] IF !(ExtData[1]->WorkLocal[32] == 168*) GOTO 0x0C5E
 49: 0x0C38 [0x02] IF !(ExtData[1]->WorkLocal[25] == 0*) GOTO 0x0C4F
 50: 0x0C40 [0x47] UPDATE_PLAYER_POS(-230.000*, -284.836*, 8.027*, yaw=90.0°*)
 51: 0x0C4A [0x47] WAIT_PLAYER_POS_UPDATE
 52: 0x0C4C [0x01] GOTO 0x0C5B
 53: 0x0C4F [0x47] UPDATE_PLAYER_POS(200.059*, -21.958*, -0.250*, yaw=91.5°*)
 54: 0x0C59 [0x47] WAIT_PLAYER_POS_UPDATE

SUBROUTINE_0C5B:
 55: 0x0C5B [0x01] GOTO 0x0CF4
 56: 0x0C5E [0x02] IF !(ExtData[1]->WorkLocal[32] == 202*) GOTO 0x0C8C
 57: 0x0C66 [0x02] IF !(ExtData[1]->WorkLocal[25] == 4*) GOTO 0x0C7D
 58: 0x0C6E [0x47] UPDATE_PLAYER_POS(538.604*, 501.900*, -13.942*, yaw=286.5°*)
 59: 0x0C78 [0x47] WAIT_PLAYER_POS_UPDATE
 60: 0x0C7A [0x01] GOTO 0x0C89
 61: 0x0C7D [0x47] UPDATE_PLAYER_POS(-230.000*, -284.836*, 8.027*, yaw=90.0°*)
 62: 0x0C87 [0x47] WAIT_PLAYER_POS_UPDATE

SUBROUTINE_0C89:
 63: 0x0C89 [0x01] GOTO 0x0CF4
 64: 0x0C8C [0x02] IF !(ExtData[1]->WorkLocal[32] == 203*) GOTO 0x0CBA
 65: 0x0C94 [0x02] IF !(ExtData[1]->WorkLocal[25] == 4*) GOTO 0x0CAB
 66: 0x0C9C [0x47] UPDATE_PLAYER_POS(553.205*, 589.633*, -0.021*, yaw=124.4°*)
 67: 0x0CA6 [0x47] WAIT_PLAYER_POS_UPDATE
 68: 0x0CA8 [0x01] GOTO 0x0CB7
 69: 0x0CAB [0x47] UPDATE_PLAYER_POS(-230.000*, -284.836*, 8.027*, yaw=90.0°*)
 70: 0x0CB5 [0x47] WAIT_PLAYER_POS_UPDATE

SUBROUTINE_0CB7:
 71: 0x0CB7 [0x01] GOTO 0x0CF4
 72: 0x0CBA [0x02] IF !(ExtData[1]->WorkLocal[32] == 211*) GOTO 0x0CE8
 73: 0x0CC2 [0x02] IF !(ExtData[1]->WorkLocal[25] == 3*) GOTO 0x0CD9
 74: 0x0CCA [0x47] UPDATE_PLAYER_POS(569.224*, 548.462*, 36.837*, yaw=59.1°*)
 75: 0x0CD4 [0x47] WAIT_PLAYER_POS_UPDATE
 76: 0x0CD6 [0x01] GOTO 0x0CE5
 77: 0x0CD9 [0x47] UPDATE_PLAYER_POS(-230.000*, -284.836*, 8.027*, yaw=90.0°*)
 78: 0x0CE3 [0x47] WAIT_PLAYER_POS_UPDATE

SUBROUTINE_0CE5:
 79: 0x0CE5 [0x01] GOTO 0x0CF4
 80: 0x0CE8 [0x47] UPDATE_PLAYER_POS(-230.000*, -284.836*, 8.027*, yaw=90.0°*)
 81: 0x0CF2 [0x47] WAIT_PLAYER_POS_UPDATE

SUBROUTINE_0CF4:
 82: 0x0CF4 [0x38] SET_CLIENT_EVENT_MODE(mode=19*)
 83: 0x0CF7 [0x02] IF !(ExtData[1]->WorkLocal[23] == 2*) GOTO 0x0D02
 84: 0x0CFF [0x01] GOTO 0x0D1D
 85: 0x0D02 [0x02] IF !(ExtData[1]->WorkLocal[23] == 1*) GOTO 0x0DCD
 86: 0x0D0A [0x1C] WAIT(15* ticks)
 87: 0x0D0D [0x24] CREATE_DIALOG(message_id=7407*, default_option=1*, option_flags=0*)
    → "Skip the event? [Yes./No.]"
 88: 0x0D14 [0x25] WAIT_DIALOG_SELECT()
 89: 0x0D15 [0x02] IF !(Work_Zone[0] == 0*) GOTO 0x0DCD

SUBROUTINE_0D1D:
 90: 0x0D1D [0x02] IF !(ExtData[1]->WorkLocal[32] == 180*) GOTO 0x0D89
 91: 0x0D25 [0x02] IF !(ExtData[1]->WorkLocal[33] == 0*) GOTO 0x0D37
 92: 0x0D2D [0x36] SET_ENTITY_EVENT_POSITION(pos_x=-618.329*, pos_z=-643.868*, pos_y=-25.805*)
 93: 0x0D34 [0x01] GOTO 0x0D86
 94: 0x0D37 [0x02] IF !(ExtData[1]->WorkLocal[33] == 1*) GOTO 0x0D49
 95: 0x0D3F [0x36] SET_ENTITY_EVENT_POSITION(pos_x=-332.163*, pos_z=-441.914*, pos_y=-95.055*)
 96: 0x0D46 [0x01] GOTO 0x0D86
 97: 0x0D49 [0x02] IF !(ExtData[1]->WorkLocal[33] == 2*) GOTO 0x0D5B
 98: 0x0D51 [0x36] SET_ENTITY_EVENT_POSITION(pos_x=-12.464*, pos_z=-648.377*, pos_y=-194.629*)
 99: 0x0D58 [0x01] GOTO 0x0D86
100: 0x0D5B [0x02] IF !(ExtData[1]->WorkLocal[33] == 3*) GOTO 0x0D6D
101: 0x0D63 [0x36] SET_ENTITY_EVENT_POSITION(pos_x=323.381*, pos_z=-443.793*, pos_y=-108.440*)
102: 0x0D6A [0x01] GOTO 0x0D86
103: 0x0D6D [0x02] IF !(ExtData[1]->WorkLocal[33] == 4*) GOTO 0x0D7F
104: 0x0D75 [0x36] SET_ENTITY_EVENT_POSITION(pos_x=599.907*, pos_z=-676.969*, pos_y=-22.473*)
105: 0x0D7C [0x01] GOTO 0x0D86
106: 0x0D7F [0x36] SET_ENTITY_EVENT_POSITION(pos_x=-230.000*, pos_z=-284.836*, pos_y=8.027*)

SUBROUTINE_0D86:
107: 0x0D86 [0x01] GOTO 0x0D92
108: 0x0D89 [0x37] UPDATE_EVENT_POSITION_AND_DIR: x=-230.000*, z=-284.836*, y=8.027*, direction=90.0°*

SUBROUTINE_0D92:
109: 0x0D92 [0x80] LOAD_WAIT(entity=LocalPlayer)
110: 0x0D97 [0x62] LOAD_EVENT_SCHEDULER: Load scheduler "main" with entities [LocalPlayer, LocalPlayer], work=[2*, 0*]
111: 0x0DA8 [0x45] LOAD_SCHEDULED_TASK: Load scheduler "fdi2" with entities [LocalPlayer, LocalPlayer], work=[200*, 0*]
112: 0x0DB9 [0x46] CAMERA_CONTROL: Query status
113: 0x0DBB [0x12] 0x0200 = rand()
114: 0x0DBE [0x12] ExtData[1]->WorkLocal[0] = rand()
115: 0x0DC1 [0x80] LOAD_WAIT(entity=Unknown NPC (ID: 1175308032/0x460DC700))
116: 0x0DC6 [0x00] END_REQSTACK()

SUBROUTINE_0DCD:
117: 0x0DCD [0x02] IF !(ExtData[1]->WorkLocal[23] < 4294967295*) GOTO 0x0DE6
118: 0x0DD5 [0x5C] MUSIC_CONTROL: Set Idle (Day) music to song 220*
119: 0x0DD9 [0x5C] MUSIC_CONTROL: Set Idle (Night) music to song 220*
120: 0x0DDD [0x5C] MUSIC_CONTROL: Set Combat (Solo) music to song 220*
121: 0x0DE1 [0x5C] MUSIC_CONTROL: Set Combat (Party) music to song 220*
122: 0x0DE5 [0x9A] WAIT_MUSIC_SERVER()
123: 0x0DE6 [0x1A] CALL_SUBROUTINE(address=0x1F2A)
124: 0x0DE9 [0x02] IF !(ExtData[1]->WorkLocal[23] >= 0*) GOTO 0x0DF4
125: 0x0DF1 [0x01] GOTO 0x0E94

SUBROUTINE_0DF4:
126: 0x0DF4 [0x02] IF !(ExtData[1]->WorkLocal[32] == 36*) GOTO 0x0DFF
127: 0x0DFC [0x01] GOTO 0x0DFF

SUBROUTINE_0DFF:
128: 0x0DFF [0x02] IF !(ExtData[1]->WorkLocal[32] == 17*) GOTO 0x0E0A
129: 0x0E07 [0x01] GOTO 0x0E94
130: 0x0E0A [0x02] IF !(ExtData[1]->WorkLocal[32] == 19*) GOTO 0x0E15
131: 0x0E12 [0x01] GOTO 0x0E94
132: 0x0E15 [0x02] IF !(ExtData[1]->WorkLocal[32] == 21*) GOTO 0x0E20
133: 0x0E1D [0x01] GOTO 0x0E94
134: 0x0E20 [0x02] IF !(ExtData[1]->WorkLocal[32] == 23*) GOTO 0x0E2B
135: 0x0E28 [0x01] GOTO 0x0E94
136: 0x0E2B [0x03] Work_Zone[5] = ExtData[1]->WorkLocal[27]
137: 0x0E30 [0x02] IF !(Work_Zone[5] <= 0*) GOTO 0x0E94
138: 0x0E38 [0x02] IF !(Work_Zone[5] < 60*) GOTO 0x0E53
139: 0x0E40 [0x3F] Work_Zone[4] = Work_Zone[5] % 60*
140: 0x0E47 [0x15] Work_Zone[5] /= 60*
141: 0x0E4C [0x48] [System] [7409*]:
    → "Battlefield clear time: $3 minute[/s], $2 second[/s]!"
142: 0x0E4F [0x23] WAIT_FOR_DIALOG_INTERACTION
143: 0x0E50 [0x01] GOTO 0x0E57
144: 0x0E53 [0x48] [System] [7408*]:
    → "Battlefield clear time: $3 second[/s]!"
145: 0x0E56 [0x23] WAIT_FOR_DIALOG_INTERACTION

SUBROUTINE_0E57:
146: 0x0E57 [0x02] IF !(ExtData[1]->WorkLocal[27] > ExtData[1]->WorkLocal[26]) GOTO 0x0E6B
147: 0x0E5F [0x03] Work_Zone[7] = ExtData[1]->WorkLocal[25]
148: 0x0E64 [0x48] [System] [7602*]:
    → "You have broken the clear time record for "[Darkness Named/Test Your Mite/Waking Dreams/$26Waking Dreams]"!"
149: 0x0E67 [0x23] WAIT_FOR_DIALOG_INTERACTION
150: 0x0E68 [0x01] GOTO 0x0E94
151: 0x0E6B [0x02] IF !(ExtData[1]->WorkLocal[26] < 60*) GOTO 0x0E8B
152: 0x0E73 [0x03] Work_Zone[5] = ExtData[1]->WorkLocal[26]
153: 0x0E78 [0x3F] Work_Zone[4] = Work_Zone[5] % 60*
154: 0x0E7F [0x15] Work_Zone[5] /= 60*
155: 0x0E84 [0x48] [System] [7411*]:
    → "The current battlefield clear time record is $3 minute[/s] $2 second[/s]."
156: 0x0E87 [0x23] WAIT_FOR_DIALOG_INTERACTION
157: 0x0E88 [0x01] GOTO 0x0E94
158: 0x0E8B [0x03] Work_Zone[5] = ExtData[1]->WorkLocal[26]
159: 0x0E90 [0x48] [System] [7410*]:
    → "The current battlefield clear time record is $3 second[/s]."
160: 0x0E93 [0x23] WAIT_FOR_DIALOG_INTERACTION

SUBROUTINE_0E94:
161: 0x0E94 [0x02] IF !(ExtData[1]->WorkLocal[24] == 0*) GOTO 0x0EAC
162: 0x0E9C [0x5C] MUSIC_CONTROL: Set Idle (Day) music to song 0*
163: 0x0EA0 [0x5C] MUSIC_CONTROL: Set Idle (Night) music to song 0*
164: 0x0EA4 [0x5C] MUSIC_CONTROL: Set Combat (Solo) music to song 220*
165: 0x0EA8 [0x5C] MUSIC_CONTROL: Set Combat (Party) music to song 220*
166: 0x0EAC [0x02] IF !(ExtData[1]->WorkLocal[23] >= 0*) GOTO 0x0ED5
167: 0x0EB4 [0x45] LOAD_SCHEDULED_TASK: Load scheduler "fdi2" with entities [LocalPlayer, LocalPlayer], work=[200*, 0*]
168: 0x0EC5 [0x5C] MUSIC_CONTROL: Set Idle (Day) music to song 0*
169: 0x0EC9 [0x5C] MUSIC_CONTROL: Set Idle (Night) music to song 0*
170: 0x0ECD [0x5C] MUSIC_CONTROL: Set Combat (Solo) music to song 220*
171: 0x0ED1 [0x5C] MUSIC_CONTROL: Set Combat (Party) music to song 220*
172: 0x0ED5 [0x06] ExtData[1]->WorkLocal[24] = 0
173: 0x0ED8 [0x45] LOAD_SCHEDULED_TASK: Load scheduler "whi1" with entities [LocalPlayer, LocalPlayer], work=[201*, 0*]
174: 0x0EE9 [0x45] LOAD_SCHEDULED_TASK: Load scheduler "blof" with entities [LocalPlayer, LocalPlayer], work=[200*, 0*]
175: 0x0EFA [0x21] END_EVENT
176: 0x0EFB [0x00] END_REQSTACK()
```

#### Data or dead code:

```
# Dead code (unreachable instructions):
     0x0DC7 [0x01] GOTO 0x0DF4
     0x0DCA [0x01] GOTO 0x0DCD
```

### Event 32003

#### Metadata

| Field        | Value     |
|--------------|-----------|
| Entrypoint   | 0x0EFC    |
| Data Size    | 435 bytes |
| Instructions | 77        |

```
      00 01 02 03 04 05 06 07  08 09 0A 0B 0C 0D 0E 0F
      -- -- -- -- -- -- -- --  -- -- -- -- -- -- -- --
0EF0:                                      06 1D 00 06              ....
0F00: 1E 00 03 21 00 06 10 03  20 00 07 10 03 1F 00 08  ...!.... .......
0F10: 10 06 01 10 1A B9 2E 02  1D 00 05 80 00 AD 10 42  ...............B
0F20: 03 01 10 09 80 43 00 43  01 03 01 10 0A 80 43 00  .....C.C......C.
0F30: 43 01 1A D0 2E 02 1E 00  05 80 00 AD 10 45 0E 80  C............E..
0F40: F0 FF FF 7F F0 FF FF 7F  66 64 6F 31 00 80 55 0E  ........fdo1..U.
0F50: 80 F0 FF FF 7F F0 FF FF  7F 66 64 6F 31 03 01 10  .........fdo1...
0F60: 0B 80 02 20 00 40 80 80  EC 0F 02 21 00 00 80 80  ... .@.....!....
0F70: 81 0F 47 00 41 80 42 80  43 80 44 80 47 01 01 E9  ..G.A.B.C.D.G...
0F80: 0F 02 21 00 05 80 80 98  0F 47 00 45 80 46 80 47  ..!......G.E.F.G
0F90: 80 48 80 47 01 01 E9 0F  02 21 00 09 80 80 AF 0F  .H.G.....!......
0FA0: 47 00 49 80 4A 80 4B 80  4C 80 47 01 01 E9 0F 02  G.I.J.K.L.G.....
0FB0: 21 00 0A 80 80 C6 0F 47  00 4D 80 4E 80 4F 80 50  !......G.M.N.O.P
0FC0: 80 47 01 01 E9 0F 02 21  00 0B 80 80 DD 0F 47 00  .G.....!......G.
0FD0: 51 80 52 80 53 80 54 80  47 01 01 E9 0F 47 00 55  Q.R.S.T.G....G.U
0FE0: 80 56 80 00 80 57 80 47  01 01 6B 10 02 20 00 21  .V...W.G..k.. .!
0FF0: 80 80 5F 10 02 1F 00 05  80 80 0B 10 47 00 58 80  .._.........G.X.
1000: 59 80 5A 80 5B 80 47 01  01 5C 10 02 1F 00 09 80  Y.Z.[.G..\......
1010: 80 22 10 47 00 5C 80 5D  80 5E 80 5F 80 47 01 01  .".G.\.].^._.G..
1020: 5C 10 02 1F 00 0A 80 80  39 10 47 00 60 80 61 80  \.......9.G.`.a.
1030: 62 80 63 80 47 01 01 5C  10 02 1F 00 0B 80 80 50  b.c.G..\.......P
1040: 10 47 00 64 80 65 80 66  80 67 80 47 01 01 5C 10  .G.d.e.f.g.G..\.
1050: 47 00 55 80 56 80 00 80  57 80 47 01 01 6B 10 47  G.U.V...W.G..k.G
1060: 00 55 80 56 80 00 80 57  80 47 01 38 0F 80 79 00  .U.V...W.G.8..y.
1070: F0 FF FF 7F F0 FF FF 7F  1A D4 2E 45 3E 80 F0 FF  ...........E>...
1080: FF 7F F0 FF FF 7F 77 68  69 31 00 80 45 0E 80 F0  ......whi1..E...
1090: FF FF 7F F0 FF FF 7F 62  6C 6F 66 00 80 5C 00 00  .......blof..\..
10A0: 80 5C 01 00 80 5C 02 3C  80 5C 03 3C 80 21 00     .\...\.<.\.<.!. 
```

#### Opcodes

```
  0: 0x0EFC [0x06] ExtData[1]->WorkLocal[29] = 0
  1: 0x0EFF [0x06] ExtData[1]->WorkLocal[30] = 0
  2: 0x0F02 [0x03] ExtData[1]->WorkLocal[33] = Work_Zone[6]
  3: 0x0F07 [0x03] ExtData[1]->WorkLocal[32] = Work_Zone[7]
  4: 0x0F0C [0x03] ExtData[1]->WorkLocal[31] = Work_Zone[8]
  5: 0x0F11 [0x06] Work_Zone[1] = 0
  6: 0x0F14 [0x1A] CALL_SUBROUTINE(address=0x2EB9)
  7: 0x0F17 [0x02] IF !(ExtData[1]->WorkLocal[29] == 1*) GOTO 0x10AD
  8: 0x0F1F [0x42] SET_CLI_EVENT_CANCEL_DATA()
  9: 0x0F20 [0x03] Work_Zone[1] = 2*
 10: 0x0F25 [0x43] SEND_EVENT_UPDATE: Send pending tag to server (packet 0x005B)
 11: 0x0F27 [0x43] SEND_EVENT_UPDATE: Check pending flag (skip if not pending)
 12: 0x0F29 [0x03] Work_Zone[1] = 3*
 13: 0x0F2E [0x43] SEND_EVENT_UPDATE: Send pending tag to server (packet 0x005B)
 14: 0x0F30 [0x43] SEND_EVENT_UPDATE: Check pending flag (skip if not pending)
 15: 0x0F32 [0x1A] CALL_SUBROUTINE(address=0x2ED0)
 16: 0x0F35 [0x02] IF !(ExtData[1]->WorkLocal[30] == 1*) GOTO 0x10AD
 17: 0x0F3D [0x45] LOAD_SCHEDULED_TASK: Load scheduler "fdo1" with entities [LocalPlayer, LocalPlayer], work=[200*, 0*]
 18: 0x0F4E [0x55] WAIT_LOAD_SCHEDULER: Wait for scheduler "fdo1" with entities [LocalPlayer, LocalPlayer], work=200*
 19: 0x0F5D [0x03] Work_Zone[1] = 4*
 20: 0x0F62 [0x02] IF !(ExtData[1]->WorkLocal[32] == 180*) GOTO 0x0FEC
 21: 0x0F6A [0x02] IF !(ExtData[1]->WorkLocal[33] == 0*) GOTO 0x0F81
 22: 0x0F72 [0x47] UPDATE_PLAYER_POS(-605.141*, 479.929*, -22.681*, yaw=87.2°*)
 23: 0x0F7C [0x47] WAIT_PLAYER_POS_UPDATE
 24: 0x0F7E [0x01] GOTO 0x0FE9
 25: 0x0F81 [0x02] IF !(ExtData[1]->WorkLocal[33] == 1*) GOTO 0x0F98
 26: 0x0F89 [0x47] UPDATE_PLAYER_POS(-262.589*, 377.857*, -137.313*, yaw=305.3°*)
 27: 0x0F93 [0x47] WAIT_PLAYER_POS_UPDATE
 28: 0x0F95 [0x01] GOTO 0x0FE9
 29: 0x0F98 [0x02] IF !(ExtData[1]->WorkLocal[33] == 2*) GOTO 0x0FAF
 30: 0x0FA0 [0x47] UPDATE_PLAYER_POS(18.348*, 486.940*, -224.334*, yaw=17.1°*)
 31: 0x0FAA [0x47] WAIT_PLAYER_POS_UPDATE
 32: 0x0FAC [0x01] GOTO 0x0FE9
 33: 0x0FAF [0x02] IF !(ExtData[1]->WorkLocal[33] == 3*) GOTO 0x0FC6
 34: 0x0FB7 [0x47] UPDATE_PLAYER_POS(231.593*, 360.094*, -173.572*, yaw=160.8°*)
 35: 0x0FC1 [0x47] WAIT_PLAYER_POS_UPDATE
 36: 0x0FC3 [0x01] GOTO 0x0FE9
 37: 0x0FC6 [0x02] IF !(ExtData[1]->WorkLocal[33] == 4*) GOTO 0x0FDD
 38: 0x0FCE [0x47] UPDATE_PLAYER_POS(553.664*, 523.939*, -38.205*, yaw=233.9°*)
 39: 0x0FD8 [0x47] WAIT_PLAYER_POS_UPDATE
 40: 0x0FDA [0x01] GOTO 0x0FE9
 41: 0x0FDD [0x47] UPDATE_PLAYER_POS(-300.052*, -247.093*, 0.000*, yaw=271.2°*)
 42: 0x0FE7 [0x47] WAIT_PLAYER_POS_UPDATE

SUBROUTINE_0FE9:
 43: 0x0FE9 [0x01] GOTO 0x106B
 44: 0x0FEC [0x02] IF !(ExtData[1]->WorkLocal[32] == 6*) GOTO 0x105F
 45: 0x0FF4 [0x02] IF !(ExtData[1]->WorkLocal[31] == 1*) GOTO 0x100B
 46: 0x0FFC [0x47] UPDATE_PLAYER_POS(-875.117*, -43.892*, -48.084*, yaw=45.1°*)
 47: 0x1006 [0x47] WAIT_PLAYER_POS_UPDATE
 48: 0x1008 [0x01] GOTO 0x105C
 49: 0x100B [0x02] IF !(ExtData[1]->WorkLocal[31] == 2*) GOTO 0x1022
 50: 0x1013 [0x47] UPDATE_PLAYER_POS(-755.499*, 563.947*, -112.035*, yaw=313.5°*)
 51: 0x101D [0x47] WAIT_PLAYER_POS_UPDATE
 52: 0x101F [0x01] GOTO 0x105C
 53: 0x1022 [0x02] IF !(ExtData[1]->WorkLocal[31] == 3*) GOTO 0x1039
 54: 0x102A [0x47] UPDATE_PLAYER_POS(123.251*, 754.209*, -172.124*, yaw=38.7°*)
 55: 0x1034 [0x47] WAIT_PLAYER_POS_UPDATE
 56: 0x1036 [0x01] GOTO 0x105C
 57: 0x1039 [0x02] IF !(ExtData[1]->WorkLocal[31] == 4*) GOTO 0x1050
 58: 0x1041 [0x47] UPDATE_PLAYER_POS(-516.404*, -803.323*, 24.206*, yaw=38.4°*)
 59: 0x104B [0x47] WAIT_PLAYER_POS_UPDATE
 60: 0x104D [0x01] GOTO 0x105C
 61: 0x1050 [0x47] UPDATE_PLAYER_POS(-300.052*, -247.093*, 0.000*, yaw=271.2°*)
 62: 0x105A [0x47] WAIT_PLAYER_POS_UPDATE

SUBROUTINE_105C:
 63: 0x105C [0x01] GOTO 0x106B
 64: 0x105F [0x47] UPDATE_PLAYER_POS(-300.052*, -247.093*, 0.000*, yaw=271.2°*)
 65: 0x1069 [0x47] WAIT_PLAYER_POS_UPDATE

SUBROUTINE_106B:
 66: 0x106B [0x38] SET_CLIENT_EVENT_MODE(mode=19*)
 67: 0x106E [0x79] LocalPlayer looks at LocalPlayer (Basic look)
 68: 0x1078 [0x1A] CALL_SUBROUTINE(address=0x2ED4)
 69: 0x107B [0x45] LOAD_SCHEDULED_TASK: Load scheduler "whi1" with entities [LocalPlayer, LocalPlayer], work=[201*, 0*]
 70: 0x108C [0x45] LOAD_SCHEDULED_TASK: Load scheduler "blof" with entities [LocalPlayer, LocalPlayer], work=[200*, 0*]
 71: 0x109D [0x5C] MUSIC_CONTROL: Set Idle (Day) music to song 0*
 72: 0x10A1 [0x5C] MUSIC_CONTROL: Set Idle (Night) music to song 0*
 73: 0x10A5 [0x5C] MUSIC_CONTROL: Set Combat (Solo) music to song 220*
 74: 0x10A9 [0x5C] MUSIC_CONTROL: Set Combat (Party) music to song 220*
 75: 0x10AD [0x21] END_EVENT
 76: 0x10AE [0x00] END_REQSTACK()
```

### Event 32004

#### Metadata

| Field        | Value      |
|--------------|------------|
| Entrypoint   | 0x10AF     |
| Data Size    | 8770 bytes |
| Instructions | 2          |

```
      00 01 02 03 04 05 06 07  08 09 0A 0B 0C 0D 0E 0F
      -- -- -- -- -- -- -- --  -- -- -- -- -- -- -- --
10A0:                                               21                 !
10B0: 00 24 0C 80 05 80 00 80  25 02 00 10 00 80 00 C7  .$......%.......
10C0: 10 05 01 00 01 C7 10 1B  1A 04 30 46 01 79 00 F0  ..........0F.y..
10D0: FF FF 7F F0 FF FF 7F 38  0F 80 37 9C 80 9D 80 9E  .......8..7.....
10E0: 80 81 80 45 9F 80 F0 FF  FF 7F F0 FF FF 7F 67 72  ...E..........gr
10F0: 32 73 00 80 45 0E 80 F0  FF FF 7F F0 FF FF 7F 66  2s..E..........f
1100: 64 69 32 00 80 32 26 80  1F 00 A0 80 A1 80 9E 80  di2..2&.........
1110: 1F 01 6F 6E F8 FF FF 7F  0A 80 99 F8 FF FF 7F 1C  ..on............
1120: 33 80 62 2F 80 F0 FF FF  7F F0 FF FF 7F 6D 61 69  3.b/.........mai
1130: 6E 00 80 1C A2 80 1A 88  30 1C 33 80 1A 04 30 1A  n.......0.3...0.
1140: 67 30 52 9F 80 F0 FF FF  7F F0 FF FF 7F 67 72 32  g0R..........gr2
1150: 73 02 03 00 00 80 80 5F  11 1A BF 12 01 90 12 02  s......_........
1160: 03 00 05 80 80 99 11 37  A3 80 A4 80 A5 80 A6 80  .......7........
1170: 45 9F 80 F0 FF FF 7F F0  FF FF 7F 67 72 32 61 00  E..........gr2a.
1180: 80 1A 20 31 55 9F 80 F0  FF FF 7F F0 FF FF 7F 67  .. 1U..........g
1190: 72 32 61 46 00 1B 01 90  12 02 03 00 09 80 80 90  r2aF............
11A0: 12 AB 09 27 10 71 A0 00  01 02 92 01 71 A0 00 01  ...'.q......q...
11B0: 37 A7 80 A8 80 A9 80 AA  80 29 10 71 A0 00 01 0D  7........).q....
11C0: 80 F0 FF FF 7F 80 71 A0  00 01 45 9F 80 F0 FF FF  ......q...E.....
11D0: 7F F0 FF FF 7F 64 71 30  30 00 80 1A 25 30 9F AB  .....dq00...%0..
11E0: 80 71 A0 00 01 71 A0 00  01 6D 61 69 6E 00 80 1C  .q...q...main...
11F0: A2 80 02 07 00 05 80 00  47 12 43 00 43 01 02 09  ........G.C.C...
1200: 10 05 80 80 0C 12 1A 8E  1A 01 44 12 02 09 10 09  ..........D.....
1210: 80 80 1A 12 1A 87 1B 01  44 12 02 09 10 0A 80 80  ........D.......
1220: 28 12 1A B0 1C 01 44 12  02 09 10 0B 80 80 36 12  (.....D.......6.
1230: 1A 88 1D 01 44 12 02 09  10 08 80 80 44 12 1A 98  ....D.......D...
1240: 1E 01 44 12 01 8D 12 02  1C 00 05 80 80 55 12 1A  ..D..........U..
1250: 8E 1A 01 8D 12 02 1C 00  09 80 80 63 12 1A 87 1B  ...........c....
1260: 01 8D 12 02 1C 00 0A 80  80 71 12 1A B0 1C 01 8D  .........q......
1270: 12 02 1C 00 0B 80 80 7F  12 1A 88 1D 01 8D 12 02  ................
1280: 1C 00 08 80 80 8D 12 1A  98 1E 01 8D 12 01 90 12  ................
1290: 37 AC 80 AD 80 AE 80 00  80 45 9F 80 F0 FF FF 7F  7........E......
12A0: F0 FF FF 7F 67 32 61 30  00 80 1A 20 31 55 9F 80  ....g2a0... 1U..
12B0: F0 FF FF 7F F0 FF FF 7F  67 32 61 30 46 00 1B AB  ........g2a0F...
12C0: 09 27 10 70 A0 00 01 04  27 10 6E A0 00 01 04 27  .'.p....'.n....'
12D0: 10 6F A0 00 01 02 27 10  71 A0 00 01 02 92 01 70  .o....'.q......p
12E0: A0 00 01 92 01 6E A0 00  01 92 01 6F A0 00 01 92  .....n.....o....
12F0: 01 71 A0 00 01 27 10 F0  FF FF 7F 07 27 10 70 A0  .q...'......'.p.
1300: 00 01 0D 27 10 6E A0 00  01 0C 27 10 6F A0 00 01  ...'.n....'.o...
1310: 0B 27 10 71 A0 00 01 0C  27 10 6D A0 00 01 05 9F  .'.q....'.m.....
1320: AF 80 F8 FF FF 7F F8 FF  FF 7F 00 FE FE FE 00 80  ................
1330: 9F B0 80 F8 FF FF 7F F8  FF FF 7F 00 FE FE FE 00  ................
1340: 80 5B B1 80 6E A0 00 01  6E A0 00 01 74 61 6F 30  .[..n...n...tao0
1350: 45 9F 80 F0 FF FF 7F F0  FF FF 7F 64 62 30 30 00  E..........db00.
1360: 80 45 0E 80 F0 FF FF 7F  F0 FF FF 7F 66 64 69 32  .E..........fdi2
1370: 00 80 27 10 70 A0 00 01  0E 1C 0A 80 32 26 80 1F  ..'.p.......2&..
1380: 00 B2 80 B3 80 B4 80 1F  01 2A 10 70 A0 00 01 45  .........*.p...E
1390: 9F 80 F0 FF FF 7F F0 FF  FF 7F 64 62 30 31 00 80  ..........db01..
13A0: 1C 01 80 45 9F 80 F0 FF  FF 7F F0 FF FF 7F 73 30  ...E..........s0
13B0: 30 33 00 80 5B B5 80 70  A0 00 01 70 A0 00 01 6B  03..[..p...p...k
13C0: 74 6E 30 1C 33 80 45 9F  80 F0 FF FF 7F F0 FF FF  tn0.3.E.........
13D0: 7F 6B 30 30 33 00 80 5B  B5 80 70 A0 00 01 70 A0  .k003..[..p...p.
13E0: 00 01 6B 74 6E 31 53 70  A0 00 01 70 A0 00 01 6B  ..ktn1Sp...p...k
13F0: 74 6E 31 45 9F 80 F0 FF  FF 7F F0 FF FF 7F 6B 30  tn1E..........k0
1400: 30 33 00 80 79 00 70 A0  00 01 6D A0 00 01 45 9F  03..y.p...m...E.
1410: 80 F0 FF FF 7F F0 FF FF  7F 64 62 30 32 00 80 2B  .........db02..+
1420: 70 A0 00 01 B6 80 23 7B  70 A0 00 01 2B 70 A0 00  p.....#{p...+p..
1430: 01 B7 80 23 52 9F 80 F0  FF FF 7F F0 FF FF 7F 64  ...#R..........d
1440: 62 30 32 45 9F 80 F0 FF  FF 7F F0 FF FF 7F 64 62  b02E..........db
1450: 30 33 00 80 27 10 70 A0  00 01 0F 1C 2D 80 32 B8  03..'.p.....-.2.
1460: 80 1F 00 B9 80 BA 80 B4  80 1F 01 2A 10 70 A0 00  ...........*.p..
1470: 01 55 9F 80 F0 FF FF 7F  F0 FF FF 7F 64 62 30 33  .U..........db03
1480: 45 9F 80 F0 FF FF 7F F0  FF FF 7F 64 62 30 35 00  E..........db05.
1490: 80 2B 70 A0 00 01 BB 80  23 55 9F 80 F0 FF FF 7F  .+p.....#U......
14A0: F0 FF FF 7F 64 62 30 35  45 9F 80 F0 FF FF 7F F0  ....db05E.......
14B0: FF FF 7F 64 62 30 36 00  80 1C 40 80 45 9F 80 F0  ...db06...@.E...
14C0: FF FF 7F F0 FF FF 7F 73  30 30 34 00 80 9F AF 80  .......s004.....
14D0: F8 FF FF 7F F8 FF FF 7F  73 74 72 30 00 80 55 9F  ........str0..U.
14E0: 80 F0 FF FF 7F F0 FF FF  7F 64 62 30 36 45 9F 80  .........db06E..
14F0: F0 FF FF 7F F0 FF FF 7F  64 62 30 37 00 80 27 10  ........db07..'.
1500: 6F A0 00 01 0C 1C BC 80  52 9F 80 F0 FF FF 7F F0  o.......R.......
1510: FF FF 7F 64 62 30 37 45  9F 80 F0 FF FF 7F F0 FF  ...db07E........
1520: FF 7F 64 62 30 38 00 80  2A 10 6F A0 00 01 2B 70  ..db08..*.o...+p
1530: A0 00 01 BD 80 23 1A 46  30 1C 37 80 52 9F 80 F0  .....#.F0.7.R...
1540: FF FF 7F F0 FF FF 7F 64  62 30 38 27 10 70 A0 00  .......db08'.p..
1550: 01 10 27 10 6F A0 00 01  0D 1C 01 80 94 01 70 A0  ..'.o.........p.
1560: 00 01 94 01 71 A0 00 01  5D BE 80 A2 80 45 9F 80  ....q...]....E..
1570: F0 FF FF 7F F0 FF FF 7F  64 62 30 39 00 80 45 0E  ........db09..E.
1580: 80 F0 FF FF 7F F0 FF FF  7F 66 64 69 32 00 80 1C  .........fdi2...
1590: 33 80 5B BF 80 6E A0 00  01 6E A0 00 01 6F 6B 69  3.[..n...n...oki
15A0: 30 1C 01 80 45 9F 80 F0  FF FF 7F F0 FF FF 7F 73  0...E..........s
15B0: 30 30 38 00 80 1C C0 80  52 9F 80 F0 FF FF 7F F0  008.....R.......
15C0: FF FF 7F 64 62 30 39 27  10 6F A0 00 01 0E 45 9F  ...db09'.o....E.
15D0: 80 F0 FF FF 7F F0 FF FF  7F 64 62 31 30 00 80 2A  .........db10..*
15E0: 10 6F A0 00 01 5B C1 80  6F A0 00 01 6F A0 00 01  .o...[..o...o...
15F0: 6B 31 30 30 1C C2 80 52  9F 80 F0 FF FF 7F F0 FF  k100...R........
1600: FF 7F 64 62 31 30 45 9F  80 F0 FF FF 7F F0 FF FF  ..db10E.........
1610: 7F 64 62 31 31 00 80 6C  6F A0 00 01 00 80 05 80  .db11..lo.......
1620: 5B C3 80 6E A0 00 01 6E  A0 00 01 6B 31 30 31 2B  [..n...n...k101+
1630: 6E A0 00 01 C4 80 23 53  6F A0 00 01 6F A0 00 01  n.....#So...o...
1640: 6B 31 30 30 27 10 6F A0  00 01 12 5B C1 80 6F A0  k100'.o....[..o.
1650: 00 01 6F A0 00 01 6B 31  6C 30 6C 6F A0 00 01 C5  ..o...k1l0lo....
1660: 80 05 80 52 9F 80 F0 FF  FF 7F F0 FF FF 7F 64 62  ...R..........db
1670: 31 31 45 9F 80 F0 FF FF  7F F0 FF FF 7F 64 62 31  11E..........db1
1680: 32 00 80 5B C1 80 6F A0  00 01 6F A0 00 01 6B 31  2..[..o...o...k1
1690: 30 31 1C 40 80 52 9F 80  F0 FF FF 7F F0 FF FF 7F  01.@.R..........
16A0: 64 62 31 32 45 9F 80 F0  FF FF 7F F0 FF FF 7F 64  db12E..........d
16B0: 62 31 33 00 80 5B C3 80  6E A0 00 01 6E A0 00 01  b13..[..n...n...
16C0: 6B 31 30 32 2B 6E A0 00  01 C6 80 23 5B C1 80 6F  k102+n.....#[..o
16D0: A0 00 01 6F A0 00 01 6B  31 30 32 1C A2 80 52 9F  ...o...k102...R.
16E0: 80 F0 FF FF 7F F0 FF FF  7F 64 62 31 33 45 9F 80  .........db13E..
16F0: F0 FF FF 7F F0 FF FF 7F  64 62 32 38 00 80 5B C1  ........db28..[.
1700: 80 6F A0 00 01 6F A0 00  01 6B 31 30 33 1C 37 80  .o...o...k103.7.
1710: 52 9F 80 F0 FF FF 7F F0  FF FF 7F 64 62 32 38 45  R..........db28E
1720: 9F 80 F0 FF FF 7F F0 FF  FF 7F 64 62 31 35 00 80  ..........db15..
1730: 1C 29 80 45 9F 80 F0 FF  FF 7F F0 FF FF 7F 73 30  .).E..........s0
1740: 30 36 00 80 9F B0 80 F8  FF FF 7F F8 FF FF 7F 73  06.............s
1750: 74 72 30 00 80 1C C2 80  45 9F 80 F0 FF FF 7F F0  tr0.....E.......
1760: FF FF 7F 6B 30 30 36 00  80 9F B0 80 F8 FF FF 7F  ...k006.........
1770: F8 FF FF 7F 6B 69 6C 6C  00 80 55 9F 80 F0 FF FF  ....kill..U.....
1780: 7F F0 FF FF 7F 64 62 31  35 5B C7 80 6E A0 00 01  .....db15[..n...
1790: 6E A0 00 01 6B 31 30 33  5B C1 80 6F A0 00 01 6F  n...k103[..o...o
17A0: A0 00 01 6B 31 30 34 45  9F 80 F0 FF FF 7F F0 FF  ...k104E........
17B0: FF 7F 64 62 31 36 00 80  1C 33 80 45 9F 80 F0 FF  ..db16...3.E....
17C0: FF 7F F0 FF FF 7F 73 30  36 31 00 80 1C A2 80 52  ......s061.....R
17D0: 9F 80 F0 FF FF 7F F0 FF  FF 7F 64 62 31 36 45 9F  ..........db16E.
17E0: 80 F0 FF FF 7F F0 FF FF  7F 64 62 31 37 00 80 45  .........db17..E
17F0: 9F 80 F0 FF FF 7F F0 FF  FF 7F 6B 30 36 31 00 80  ..........k061..
1800: 5B B5 80 70 A0 00 01 70  A0 00 01 74 6F 62 30 2B  [..p...p...tob0+
1810: 70 A0 00 01 C8 80 1C C9  80 45 9F 80 F0 FF FF 7F  p........E......
1820: F0 FF FF 7F 73 30 30 39  00 80 53 70 A0 00 01 70  ....s009..Sp...p
1830: A0 00 01 74 6F 62 30 52  9F 80 F0 FF FF 7F F0 FF  ...tob0R........
1840: FF 7F 64 62 31 37 27 10  6F A0 00 01 0F 27 10 70  ..db17'.o....'.p
1850: A0 00 01 11 5B B5 80 70  A0 00 01 70 A0 00 01 74  ....[..p...p...t
1860: 6F 62 31 1C 01 80 45 9F  80 F0 FF FF 7F F0 FF FF  ob1...E.........
1870: 7F 73 30 31 30 00 80 45  9F 80 F0 FF FF 7F F0 FF  .s010..E........
1880: FF 7F 64 62 31 39 00 80  1C 33 80 2D F8 FF FF 7F  ..db19...3.-....
1890: F8 FF FF 7F 73 31 63 79  55 9F 80 F0 FF FF 7F F0  ....s1cyU.......
18A0: FF FF 7F 64 62 31 39 45  9F 80 F0 FF FF 7F F0 FF  ...db19E........
18B0: FF 7F 64 62 32 30 00 80  1C 37 80 9F B0 80 F8 FF  ..db20...7......
18C0: FF 7F F8 FF FF 7F 73 74  72 30 00 80 55 9F 80 F0  ......str0..U...
18D0: FF FF 7F F0 FF FF 7F 64  62 32 30 45 9F 80 F0 FF  .......db20E....
18E0: FF 7F F0 FF FF 7F 64 62  32 31 00 80 5B C7 80 6E  ......db21..[..n
18F0: A0 00 01 6E A0 00 01 6B  31 30 34 55 9F 80 F0 FF  ...n...k104U....
1900: FF 7F F0 FF FF 7F 64 62  32 31 45 9F 80 F0 FF FF  ......db21E.....
1910: 7F F0 FF FF 7F 64 62 32  33 00 80 2D F8 FF FF 7F  .....db23..-....
1920: F8 FF FF 7F 70 6B 73 31  27 10 6D A0 00 01 04 5B  ....pks1'.m....[
1930: CA 80 71 A0 00 01 71 A0  00 01 70 6F 70 30 2D F8  ..q...q...pop0-.
1940: FF FF 7F F8 FF FF 7F 73  33 63 68 45 9F 80 F0 FF  .......s3chE....
1950: FF 7F F0 FF FF 7F 73 30  30 37 00 80 9F B0 80 F8  ......s007......
1960: FF FF 7F F8 FF FF 7F 6D  6A 30 30 00 80 1C 33 80  .......mj00...3.
1970: 9F B0 80 F8 FF FF 7F F8  FF FF 7F 6B 69 6C 6C 00  ...........kill.
1980: 80 2D F8 FF FF 7F F8 FF  FF 7F 73 32 64 65 77 25  .-........s2dew%
1990: 80 09 80 1C C9 80 52 9F  80 F0 FF FF 7F F0 FF FF  ......R.........
19A0: 7F 64 62 32 33 45 9F 80  F0 FF FF 7F F0 FF FF 7F  .db23E..........
19B0: 64 62 32 34 00 80 1C 37  80 2B 71 A0 00 01 CB 80  db24...7.+q.....
19C0: 23 55 9F 80 F0 FF FF 7F  F0 FF FF 7F 64 62 32 34  #U..........db24
19D0: 27 10 6F A0 00 01 10 45  9F 80 F0 FF FF 7F F0 FF  '.o....E........
19E0: FF 7F 64 62 32 35 00 80  1C 01 80 2D F8 FF FF 7F  ..db25.....-....
19F0: F8 FF FF 7F 70 6B 73 32  27 10 6D A0 00 01 03 1C  ....pks2'.m.....
1A00: A2 80 1A 88 30 1C C9 80  29 10 70 A0 00 01 12 80  ....0...).p.....
1A10: 70 A0 00 01 5B B5 80 70  A0 00 01 70 A0 00 01 74  p...[..p...p...t
1A20: 6F 62 32 52 9F 80 F0 FF  FF 7F F0 FF FF 7F 64 62  ob2R..........db
1A30: 32 35 45 9F 80 F0 FF FF  7F F0 FF FF 7F 64 62 32  25E..........db2
1A40: 36 00 80 1A 67 30 2B 70  A0 00 01 CC 80 23 2B 70  6...g0+p.....#+p
1A50: A0 00 01 CD 80 23 1A 46  30 1C 33 80 78 52 9F 80  .....#.F0.3.xR..
1A60: F0 FF FF 7F F0 FF FF 7F  64 62 32 36 2D F8 FF FF  ........db26-...
1A70: 7F F8 FF FF 7F 70 61 6E  65 2D F8 FF FF 7F F8 FF  .....pane-......
1A80: FF 7F 6D 6F 64 6F AB 0A  5D C5 80 A2 80 1B 2B 71  ..modo..].....+q
1A90: A0 00 01 CE 80 23 52 9F  80 F0 FF FF 7F F0 FF FF  .....#R.........
1AA0: 7F 64 71 30 30 45 9F 80  F0 FF FF 7F F0 FF FF 7F  .dq00E..........
1AB0: 64 71 30 31 00 80 2B 71  A0 00 01 CF 80 23 52 9F  dq01..+q.....#R.
1AC0: 80 F0 FF FF 7F F0 FF FF  7F 64 71 30 31 45 9F 80  .........dq01E..
1AD0: F0 FF FF 7F F0 FF FF 7F  64 71 30 32 00 80 2B 71  ........dq02..+q
1AE0: A0 00 01 D0 80 23 52 9F  80 F0 FF FF 7F F0 FF FF  .....#R.........
1AF0: 7F 64 71 30 32 45 9F 80  F0 FF FF 7F F0 FF FF 7F  .dq02E..........
1B00: 64 71 30 33 00 80 2B 71  A0 00 01 D1 80 23 5B D2  dq03..+q.....#[.
1B10: 80 71 A0 00 01 71 A0 00  01 64 61 30 30 2B 71 A0  .q...q...da00+q.
1B20: 00 01 D3 80 23 5B D2 80  71 A0 00 01 71 A0 00 01  ....#[..q...q...
1B30: 64 61 30 31 45 9F 80 F0  FF FF 7F F0 FF FF 7F 64  da01E..........d
1B40: 71 62 6C 00 80 1C 33 80  52 9F 80 F0 FF FF 7F F0  qbl...3.R.......
1B50: FF FF 7F 64 71 30 33 45  9F 80 F0 FF FF 7F F0 FF  ...dq03E........
1B60: FF 7F 64 71 30 34 00 80  1C 33 80 1A 88 30 1C 33  ..dq04...3...0.3
1B70: 80 52 9F 80 F0 FF FF 7F  F0 FF FF 7F 64 71 30 34  .R..........dq04
1B80: 1A 46 30 1A 67 30 1B 2B  71 A0 00 01 D4 80 23 52  .F0.g0.+q.....#R
1B90: 9F 80 F0 FF FF 7F F0 FF  FF 7F 64 71 30 30 45 9F  ..........dq00E.
1BA0: 80 F0 FF FF 7F F0 FF FF  7F 64 71 30 31 00 80 2B  .........dq01..+
1BB0: 71 A0 00 01 D5 80 23 52  9F 80 F0 FF FF 7F F0 FF  q.....#R........
1BC0: FF 7F 64 71 30 31 45 9F  80 F0 FF FF 7F F0 FF FF  ..dq01E.........
1BD0: 7F 64 71 30 32 00 80 2B  71 A0 00 01 D6 80 23 52  .dq02..+q.....#R
1BE0: 9F 80 F0 FF FF 7F F0 FF  FF 7F 64 71 30 32 45 9F  ..........dq02E.
1BF0: 80 F0 FF FF 7F F0 FF FF  7F 64 71 30 39 00 80 2B  .........dq09..+
1C00: 71 A0 00 01 D7 80 23 2B  71 A0 00 01 D8 80 23 52  q.....#+q.....#R
1C10: 9F 80 F0 FF FF 7F F0 FF  FF 7F 64 71 30 39 45 9F  ..........dq09E.
1C20: 80 F0 FF FF 7F F0 FF FF  7F 64 71 30 33 00 80 5B  .........dq03..[
1C30: D2 80 71 A0 00 01 71 A0  00 01 64 61 30 30 2B 71  ..q...q...da00+q
1C40: A0 00 01 D9 80 23 2B 71  A0 00 01 DA 80 23 5B D2  .....#+q.....#[.
1C50: 80 71 A0 00 01 71 A0 00  01 64 61 30 31 45 9F 80  .q...q...da01E..
1C60: F0 FF FF 7F F0 FF FF 7F  64 71 62 6C 00 80 1C 33  ........dqbl...3
1C70: 80 52 9F 80 F0 FF FF 7F  F0 FF FF 7F 64 71 30 33  .R..........dq03
1C80: 45 9F 80 F0 FF FF 7F F0  FF FF 7F 64 71 30 34 00  E..........dq04.
1C90: 80 1C 33 80 1A 88 30 1C  33 80 52 9F 80 F0 FF FF  ..3...0.3.R.....
1CA0: 7F F0 FF FF 7F 64 71 30  34 1A 46 30 1A 67 30 1B  .....dq04.F0.g0.
1CB0: 2B 71 A0 00 01 DB 80 23  52 9F 80 F0 FF FF 7F F0  +q.....#R.......
1CC0: FF FF 7F 64 71 30 30 45  9F 80 F0 FF FF 7F F0 FF  ...dq00E........
1CD0: FF 7F 64 71 30 31 00 80  5B DC 80 71 A0 00 01 71  ..dq01..[..q...q
1CE0: A0 00 01 61 6E 67 30 2B  71 A0 00 01 DD 80 23 52  ...ang0+q.....#R
1CF0: 9F 80 F0 FF FF 7F F0 FF  FF 7F 64 71 30 31 45 9F  ..........dq01E.
1D00: 80 F0 FF FF 7F F0 FF FF  7F 64 71 30 33 00 80 5B  .........dq03..[
1D10: DE 80 71 A0 00 01 71 A0  00 01 63 61 30 30 2B 71  ..q...q...ca00+q
1D20: A0 00 01 DF 80 23 5B DE  80 71 A0 00 01 71 A0 00  .....#[..q...q..
1D30: 01 73 68 30 30 45 9F 80  F0 FF FF 7F F0 FF FF 7F  .sh00E..........
1D40: 64 71 62 6C 00 80 1C 33  80 52 9F 80 F0 FF FF 7F  dqbl...3.R......
1D50: F0 FF FF 7F 64 71 30 33  45 9F 80 F0 FF FF 7F F0  ....dq03E.......
1D60: FF FF 7F 64 71 30 38 00  80 1C 33 80 1A 88 30 1C  ...dq08...3...0.
1D70: 33 80 52 9F 80 F0 FF FF  7F F0 FF FF 7F 64 71 30  3.R..........dq0
1D80: 38 1A 46 30 1A 67 30 1B  2B 71 A0 00 01 E0 80 23  8.F0.g0.+q.....#
1D90: 52 9F 80 F0 FF FF 7F F0  FF FF 7F 64 71 30 30 45  R..........dq00E
1DA0: 9F 80 F0 FF FF 7F F0 FF  FF 7F 64 71 30 31 00 80  ..........dq01..
1DB0: 2B 71 A0 00 01 E1 80 23  5B DC 80 71 A0 00 01 71  +q.....#[..q...q
1DC0: A0 00 01 6C 61 75 30 2B  71 A0 00 01 E2 80 23 52  ...lau0+q.....#R
1DD0: 9F 80 F0 FF FF 7F F0 FF  FF 7F 64 71 30 31 45 9F  ..........dq01E.
1DE0: 80 F0 FF FF 7F F0 FF FF  7F 64 71 31 34 00 80 2B  .........dq14..+
1DF0: 71 A0 00 01 E3 80 23 2B  71 A0 00 01 E4 80 23 52  q.....#+q.....#R
1E00: 9F 80 F0 FF FF 7F F0 FF  FF 7F 64 71 31 34 45 9F  ..........dq14E.
1E10: 80 F0 FF FF 7F F0 FF FF  7F 64 71 30 33 00 80 5B  .........dq03..[
1E20: DE 80 71 A0 00 01 71 A0  00 01 63 61 30 30 2B 71  ..q...q...ca00+q
1E30: A0 00 01 E5 80 23 5B DE  80 71 A0 00 01 71 A0 00  .....#[..q...q..
1E40: 01 73 68 30 30 45 9F 80  F0 FF FF 7F F0 FF FF 7F  .sh00E..........
1E50: 64 71 62 6C 00 80 1C 33  80 52 9F 80 F0 FF FF 7F  dqbl...3.R......
1E60: F0 FF FF 7F 64 71 30 33  45 9F 80 F0 FF FF 7F F0  ....dq03E.......
1E70: FF FF 7F 64 71 30 38 00  80 1C 33 80 1A 88 30 1C  ...dq08...3...0.
1E80: 33 80 52 9F 80 F0 FF FF  7F F0 FF FF 7F 64 71 30  3.R..........dq0
1E90: 38 1A 46 30 1A 67 30 1B  2B 71 A0 00 01 E6 80 23  8.F0.g0.+q.....#
1EA0: 52 9F 80 F0 FF FF 7F F0  FF FF 7F 64 71 30 30 45  R..........dq00E
1EB0: 9F 80 F0 FF FF 7F F0 FF  FF 7F 64 71 30 33 00 80  ..........dq03..
1EC0: 2B 71 A0 00 01 E7 80 23  5B D2 80 71 A0 00 01 71  +q.....#[..q...q
1ED0: A0 00 01 64 62 30 30 45  9F 80 F0 FF FF 7F F0 FF  ...db00E........
1EE0: FF 7F 64 71 62 6C 00 80  1C 37 80 52 9F 80 F0 FF  ..dqbl...7.R....
1EF0: FF 7F F0 FF FF 7F 64 71  30 33 45 9F 80 F0 FF FF  ......dq03E.....
1F00: 7F F0 FF FF 7F 64 71 30  38 00 80 1C 33 80 1A 88  .....dq08...3...
1F10: 30 1C 33 80 52 9F 80 F0  FF FF 7F F0 FF FF 7F 64  0.3.R..........d
1F20: 71 30 38 1A 46 30 1A 67  30 1B 02 19 00 00 80 80  q08.F0.g0.......
1F30: 38 1F 1A 92 20 01 63 20  02 19 00 09 80 80 63 20  8... .c ......c 
1F40: 42 1A 46 30 46 01 38 0F  80 AB 09 77 25 80 09 80  B.F0F.8....w%...
1F50: 27 10 71 A0 00 01 04 92  01 71 A0 00 01 5C 00 3C  '.q......q...\.<
1F60: 80 5C 01 3C 80 5C 02 3C  80 5C 03 3C 80 9A 37 A7  .\.<.\.<.\.<..7.
1F70: 80 A8 80 A9 80 AA 80 29  10 71 A0 00 01 0D 02 1C  .......).q......
1F80: 00 05 80 80 8C 1F 1A C7  2A 01 B6 1F 02 1C 00 09  ........*.......
1F90: 80 80 9A 1F 1A 7C 2B 01  B6 1F 02 1C 00 0A 80 80  .....|+.........
1FA0: A8 1F 1A EE 2B 01 B6 1F  02 1C 00 0B 80 80 B6 1F  ....+...........
1FB0: 1A 56 2D 01 B6 1F 62 2F  80 F0 FF FF 7F F0 FF FF  .V-...b/........
1FC0: 7F 6D 61 69 6E 00 80 1C  A2 80 1A 88 30 1C 33 80  .main.......0.3.
1FD0: 02 1C 00 05 80 80 EA 1F  52 9F 80 F0 FF FF 7F F0  ........R.......
1FE0: FF FF 7F 64 71 30 37 01  38 20 02 1C 00 09 80 80  ...dq07.8 ......
1FF0: 04 20 52 9F 80 F0 FF FF  7F F0 FF FF 7F 64 71 31  . R..........dq1
2000: 30 01 38 20 02 1C 00 0A  80 80 1E 20 52 9F 80 F0  0.8 ....... R...
2010: FF FF 7F F0 FF FF 7F 64  71 30 37 01 38 20 02 1C  .......dq07.8 ..
2020: 00 0B 80 80 38 20 52 9F  80 F0 FF FF 7F F0 FF FF  ....8 R.........
2030: 7F 64 71 30 37 01 38 20  78 1A 46 30 1A 67 30 45  .dq07.8 x.F0.g0E
2040: 9F 80 F0 FF FF 7F F0 FF  FF 7F 62 6C 6F 66 00 80  ..........blof..
2050: 2C F0 FF FF 7F F0 FF FF  7F 72 65 73 30 1C 01 80  ,........res0...
2060: 01 63 20 37 7E 80 7F 80  80 80 81 80 45 9F 80 F0  .c 7~.......E...
2070: FF FF 7F F0 FF FF 7F 67  72 32 77 00 80 1A 20 31  .......gr2w... 1
2080: 55 9F 80 F0 FF FF 7F F0  FF FF 7F 67 72 32 77 46  U..........gr2wF
2090: 00 1B 42 1A 46 30 46 01  38 0F 80 AB 09 77 25 80  ..B.F0F.8....w%.
20A0: 09 80 27 10 70 A0 00 01  04 27 10 6E A0 00 01 04  ..'.p....'.n....
20B0: 27 10 71 A0 00 01 04 27  10 72 A0 00 01 02 27 10  '.q....'.r....'.
20C0: 73 A0 00 01 02 27 10 74  A0 00 01 02 92 01 70 A0  s....'.t......p.
20D0: 00 01 92 01 6E A0 00 01  92 01 71 A0 00 01 92 01  ....n.....q.....
20E0: 72 A0 00 01 92 01 73 A0  00 01 5C 00 3C 80 5C 01  r.....s...\.<.\.
20F0: 3C 80 5C 02 3C 80 5C 03  3C 80 9A 27 10 F0 FF FF  <.\.<.\.<..'....
2100: 7F 0A 27 10 70 A0 00 01  13 27 10 6E A0 00 01 0D  ..'.p....'.n....
2110: 27 10 71 A0 00 01 0D 27  10 72 A0 00 01 0A 27 10  '.q....'.r....'.
2120: 73 A0 00 01 0A 27 10 74  A0 00 01 09 94 01 6E A0  s....'.t......n.
2130: 00 01 5B E8 80 6E A0 00  01 6E A0 00 01 63 34 31  ..[..n...n...c41
