# 17645900

## Common Data

| Field            | Value                   |
|------------------|-------------------------|
| Zone             | Gustav Tunnel (ID: 212) |
| Block Size       | 3116 bytes              |
| Total Events     | 3                       |
| References Count | 111                     |

## List of Events

| Event ID              | Entrypoint   |   Size |   Instructions |
|-----------------------|--------------|--------|----------------|
| [65535](#event-65535) | 0x0000       |      1 |              1 |
| [13](#event-13)       | 0x0001       |    639 |            102 |
| [14](#event-14)       | 0x0280       |   2001 |            306 |

## DAT References (imed_data)

|   Index | Hex Value   |   Dec Value |
|---------|-------------|-------------|
|       0 | 0x0013      |          19 |
|       1 | 0xFFFDE636  |  4294829622 |
|       2 | 0xFFFD2ADA  |  4294781658 |
|       3 | 0xFFFFD93C  |  4294957372 |
|       4 | 0x01BC      |         444 |
|       5 | 0xFFFDDDC8  |  4294827464 |
|       6 | 0xFFFD02D0  |  4294771408 |
|       7 | 0xFFFFD964  |  4294957412 |
|       8 | 0x049A      |        1178 |
|       9 | 0xFFFDD420  |  4294824992 |
|      10 | 0xFFFCFDF6  |  4294770166 |
|      11 | 0xFFFFD84B  |  4294957131 |
|      12 | 0x0CBF      |        3263 |
|      13 | 0xFFFDE08F  |  4294828175 |
|      14 | 0xFFFCFE57  |  4294770263 |
|      15 | 0xFFFFD844  |  4294957124 |
|      16 | 0x0C58      |        3160 |
|      17 | 0x001E      |          30 |
|      18 | 0x0001      |           1 |
|      19 | 0x0000      |           0 |
|      20 | 0x0002      |           2 |
|      21 | 0x003C      |          60 |
|      22 | 0x00C8      |         200 |
|      23 | 0x1CE0      |        7392 |
|      24 | 0x01DA      |         474 |
|      25 | 0x000A      |          10 |
|      26 | 0x0019      |          25 |
|      27 | 0x0400      |        1024 |
|      28 | 0x00AA      |         170 |
|      29 | 0x010E      |         270 |
|      30 | 0x1CE1      |        7393 |
|      31 | 0x0088      |         136 |
|      32 | 0x0078      |         120 |
|      33 | 0x0046      |          70 |
|      34 | 0x002F      |          47 |
|      35 | 0x1CE2      |        7394 |
|      36 | 0x087F      |        2175 |
|      37 | 0xFFFDE900  |  4294830336 |
|      38 | 0xFFFD3492  |  4294784146 |
|      39 | 0xFFFFD9F4  |  4294957556 |
|      40 | 0x0822      |        2082 |
|      41 | 0xFFFDDD97  |  4294827415 |
|      42 | 0xFFFD05A1  |  4294772129 |
|      43 | 0xFFFFD96E  |  4294957422 |
|      44 | 0xFFFDE54E  |  4294829390 |
|      45 | 0xFFFD38AC  |  4294785196 |
|      46 | 0xFFFDE4F3  |  4294829299 |
|      47 | 0xFFFD2736  |  4294780726 |
|      48 | 0xFFFFD8F0  |  4294957296 |
|      49 | 0xFFFDE225  |  4294828581 |
|      50 | 0xFFFD3399  |  4294783897 |
|      51 | 0x027A      |         634 |
|      52 | 0xFFFDEDD1  |  4294831569 |
|      53 | 0xFFFD45ED  |  4294788589 |
|      54 | 0x0654      |        1620 |
|      55 | 0xFFFDF56F  |  4294833519 |
|      56 | 0xFFFD4195  |  4294787477 |
|      57 | 0x0C21      |        3105 |
|      58 | 0x007B      |         123 |
|      59 | 0x0003      |           3 |
|      60 | 0x0004      |           4 |
|      61 | 0x0005      |           5 |
|      62 | 0xFFFDE41E  |  4294829086 |
|      63 | 0xFFFD2DA8  |  4294782376 |
|      64 | 0xFFFFD9C2  |  4294957506 |
|      65 | 0x06E4      |        1764 |
|      66 | 0x0006      |           6 |
|      67 | 0x0007      |           7 |
|      68 | 0x0008      |           8 |
|      69 | 0x0009      |           9 |
|      70 | 0x000B      |          11 |
|      71 | 0x1CE4      |        7396 |
|      72 | 0x0050      |          80 |
|      73 | 0x1CE3      |        7395 |
|      74 | 0x00F0      |         240 |
|      75 | 0x0014      |          20 |
|      76 | 0x0032      |          50 |
|      77 | 0x005A      |          90 |
|      78 | 0x1CE5      |        7397 |
|      79 | 0x1CE6      |        7398 |
|      80 | 0x000F      |          15 |
|      81 | 0xFFFDE420  |  4294829088 |
|      82 | 0xFFFD287B  |  4294781051 |
|      83 | 0xFFFFD984  |  4294957444 |
|      84 | 0x0D7A      |        3450 |
|      85 | 0xFFFDDDB0  |  4294827440 |
|      86 | 0xFFFD2AC6  |  4294781638 |
|      87 | 0xFFFFD97D  |  4294957437 |
|      88 | 0xFFFDE150  |  4294828368 |
|      89 | 0xFFFD26FF  |  4294780671 |
|      90 | 0xFFFFD8D6  |  4294957270 |
|      91 | 0x1CE7      |        7399 |
|      92 | 0x1CF2      |        7410 |
|      93 | 0x007F      |         127 |
|      94 | 0x1CE8      |        7400 |
|      95 | 0x1CE9      |        7401 |
|      96 | 0x1CEA      |        7402 |
|      97 | 0x1CEB      |        7403 |
|      98 | 0x1CEC      |        7404 |
|      99 | 0xFFFDEAEF  |  4294830831 |
|     100 | 0xFFFD3479  |  4294784121 |
|     101 | 0x0600      |        1536 |
|     102 | 0x1CED      |        7405 |
|     103 | 0x1CEE      |        7406 |
|     104 | 0x1CEF      |        7407 |
|     105 | 0x1CF0      |        7408 |
|     106 | 0x1CF1      |        7409 |
|     107 | 0x012C      |         300 |
|     108 | 0x002D      |          45 |
|     109 | 0x00C9      |         201 |
|     110 | 0x00D7      |         215 |

## String References

- **7392**: Hey! What do you think you're doing there!?
- **7396**: Hm? And you are...?
- **7410**: 

## Events

### Event 65535

#### Metadata

| Field        | Value   |
|--------------|---------|
| Entrypoint   | 0x0000  |
| Data Size    | 1 bytes |
| Instructions | 1       |

```
      00 01 02 03 04 05 06 07  08 09 0A 0B 0C 0D 0E 0F
      -- -- -- -- -- -- -- --  -- -- -- -- -- -- -- --
0000: 00                                                .               
```

#### Opcodes

```
  0: 0x0000 [0x00] END_REQSTACK()
```

### Event 13

#### Metadata

| Field        | Value     |
|--------------|-----------|
| Entrypoint   | 0x0001    |
| Data Size    | 639 bytes |
| Instructions | 98        |

```
      00 01 02 03 04 05 06 07  08 09 0A 0B 0C 0D 0E 0F
      -- -- -- -- -- -- -- --  -- -- -- -- -- -- -- --
0000:    42 1A 8B 09 46 01 38  00 80 29 10 F0 FF FF 7F   B...F.8..).....
0010: 02 29 10 50 41 0D 01 01  29 10 51 41 0D 01 01 29  .).PA...).QA...)
0020: 10 52 41 0D 01 01 BA F0  FF FF 7F 01 80 02 80 03  .RA.............
0030: 80 04 80 BA 50 41 0D 01  05 80 06 80 07 80 08 80  ....PA..........
0040: BA 51 41 0D 01 09 80 0A  80 0B 80 0C 80 BA 52 41  .QA...........RA
0050: 0D 01 0D 80 0E 80 0F 80  10 80 80 F0 FF FF 7F 80  ................
0060: 50 41 0D 01 80 51 41 0D  01 80 52 41 0D 01 1C 11  PA...QA...RA....
0070: 80 4A 50 41 0D 01 F0 FF  FF 7F 4A 51 41 0D 01 F0  .JPA......JQA...
0080: FF FF 7F 4A 52 41 0D 01  F0 FF FF 7F 6F 76 50 41  ...JRA......ovPA
0090: 0D 01 6F 76 51 41 0D 01  6F 76 52 41 0D 01 7B F0  ..ovQA..ovRA..{.
00A0: FF FF 7F 1C 11 80 03 00  00 12 80 02 00 00 12 80  ................
00B0: 05 D1 00 02 13 80 00 00  04 C9 00 02 00 00 14 80  ................
00C0: 80 C9 00 1A 6A 09 01 C9  00 07 00 00 12 80 01 AB  ....j...........
00D0: 00 03 00 00 12 80 02 00  00 12 80 05 F1 00 02 13  ................
00E0: 80 00 00 05 E9 00 1A 1C  01 07 00 00 12 80 01 D6  ................
00F0: 00 1A 8B 09 1A AC 09 1C  15 80 45 16 80 F0 FF FF  ..........E.....
0100: 7F F0 FF FF 7F 66 64 69  32 13 80 46 00 21 00 02  .....fdi2..F.!..
0110: 13 80 12 80 00 1B 01 48  17 80 23 1B 02 00 00 12  .......H..#.....
0120: 80 80 74 02 45 18 80 F0  FF FF 7F F0 FF FF 7F 37  ..t.E..........7
0130: 30 30 31 13 80 1A 6A 09  27 10 50 41 0D 01 03 1C  001...j.'.PA....
0140: 19 80 27 10 51 41 0D 01  03 1C 1A 80 27 10 52 41  ..'.QA......'.RA
0150: 0D 01 03 1C 11 80 2B 50  41 0D 01 17 80 1C 15 80  ......+PA.......
0160: 79 02 F0 FF FF 7F 13 80  1B 80 7B 50 41 0D 01 7B  y.........{PA..{
0170: 51 41 0D 01 7B 52 41 0D  01 5C 00 1C 80 5C 01 1C  QA..{RA..\...\..
0180: 80 9A 1C 1D 80 52 18 80  F0 FF FF 7F F0 FF FF 7F  .....R..........
0190: 37 30 30 31 45 18 80 F0  FF FF 7F F0 FF FF 7F 37  7001E..........7
01A0: 30 30 34 13 80 2A 10 52  41 0D 01 2B 52 41 0D 01  004..*.RA..+RA..
01B0: 1E 80 23 66 1F 80 51 41  0D 01 51 41 0D 01 67 61  ..#f..QA..QA..ga
01C0: 74 30 03 02 10 20 80 27  10 4D 41 0D 01 07 1C 21  t0... .'.MA....!
01D0: 80 52 18 80 F0 FF FF 7F  F0 FF FF 7F 37 30 30 34  .R..........7004
01E0: 45 18 80 F0 FF FF 7F F0  FF FF 7F 37 30 30 36 13  E..........7006.
01F0: 80 66 22 80 52 41 0D 01  52 41 0D 01 69 6E 30 30  .f".RA..RA..in00
0200: 2B 51 41 0D 01 23 80 2A  10 4D 41 0D 01 5B 24 80  +QA..#.*.MA..[$.
0210: 50 41 0D 01 50 41 0D 01  62 74 69 30 1C 11 80 52  PA..PA..bti0...R
0220: 18 80 F0 FF FF 7F F0 FF  FF 7F 37 30 30 36 45 18  ..........7006E.
0230: 80 F0 FF FF 7F F0 FF FF  7F 37 30 30 35 13 80 1C  .........7005...
0240: 15 80 1A 0F 0A 1C 11 80  5C 00 13 80 5C 01 13 80  ........\...\...
0250: 9A 52 18 80 F0 FF FF 7F  F0 FF FF 7F 37 30 30 35  .R..........7005
0260: 45 18 80 F0 FF FF 7F F0  FF FF 7F 30 62 6C 66 13  E..........0blf.
0270: 80 01 7F 02 02 00 00 14  80 80 7F 02 01 7F 02 1B  ................
```

#### Opcodes

```
  0: 0x0001 [0x42] SET_CLI_EVENT_CANCEL_DATA()
  1: 0x0002 [0x1A] CALL_SUBROUTINE(address=0x098B)
  2: 0x0005 [0x46] CAMERA_CONTROL: Disable user control
  3: 0x0007 [0x38] SET_CLIENT_EVENT_MODE(mode=19*)
  4: 0x000A [0x29] REQ_SET_WAIT(priority=0x10, entity_id=LocalPlayer, tag_num=0x02)
  5: 0x0011 [0x29] REQ_SET_WAIT(priority=0x10, entity_id=Renfred (ID: 17645904/0x010D4150), tag_num=0x01)
  6: 0x0018 [0x29] REQ_SET_WAIT(priority=0x10, entity_id=Gorattz (ID: 17645905/0x010D4151), tag_num=0x01)
  7: 0x001F [0x29] REQ_SET_WAIT(priority=0x10, entity_id=Bompupu (ID: 17645906/0x010D4152), tag_num=0x01)
  8: 0x0026 [0xBA] SET_ENTITY_POSITION(entity_id=LocalPlayer, pos_x=-137.674*, pos_z=-185.638*, pos_y=-9.924*, direction=39.0°*)
  9: 0x0033 [0xBA] SET_ENTITY_POSITION(entity_id=Renfred (ID: 17645904/0x010D4150), pos_x=-139.832*, pos_z=-195.888*, pos_y=-9.884*, direction=103.5°*)
 10: 0x0040 [0xBA] SET_ENTITY_POSITION(entity_id=Gorattz (ID: 17645905/0x010D4151), pos_x=-142.304*, pos_z=-197.130*, pos_y=-10.165*, direction=286.8°*)
 11: 0x004D [0xBA] SET_ENTITY_POSITION(entity_id=Bompupu (ID: 17645906/0x010D4152), pos_x=-139.121*, pos_z=-197.033*, pos_y=-10.172*, direction=277.7°*)
 12: 0x005A [0x80] LOAD_WAIT(entity=LocalPlayer)
 13: 0x005F [0x80] LOAD_WAIT(entity=Renfred (ID: 17645904/0x010D4150))
 14: 0x0064 [0x80] LOAD_WAIT(entity=Gorattz (ID: 17645905/0x010D4151))
 15: 0x0069 [0x80] LOAD_WAIT(entity=Bompupu (ID: 17645906/0x010D4152))
 16: 0x006E [0x1C] WAIT(30* ticks)
 17: 0x0071 [0x4A] Renfred (ID: 17645904/0x010D4150) looks at LocalPlayer
 18: 0x007A [0x4A] Gorattz (ID: 17645905/0x010D4151) looks at LocalPlayer
 19: 0x0083 [0x4A] Bompupu (ID: 17645906/0x010D4152) looks at LocalPlayer
 20: 0x008C [0x6F] WAIT_FRAME_DELAY: Yield until WaitTime reaches zero
 21: 0x008D [0x76] CHECK_ENTITY_RENDER_FLAGS: Wait until Renfred (ID: 17645904/0x010D4150) Render.Flags0 and Render.Flags3 conditions are met
 22: 0x0092 [0x6F] WAIT_FRAME_DELAY: Yield until WaitTime reaches zero
 23: 0x0093 [0x76] CHECK_ENTITY_RENDER_FLAGS: Wait until Gorattz (ID: 17645905/0x010D4151) Render.Flags0 and Render.Flags3 conditions are met
 24: 0x0098 [0x6F] WAIT_FRAME_DELAY: Yield until WaitTime reaches zero
 25: 0x0099 [0x76] CHECK_ENTITY_RENDER_FLAGS: Wait until Bompupu (ID: 17645906/0x010D4152) Render.Flags0 and Render.Flags3 conditions are met
 26: 0x009E [0x7B] LocalPlayer stops talking
 27: 0x00A3 [0x1C] WAIT(30* ticks)
 28: 0x00A6 [0x03] ExtData[1]->WorkLocal[0] = 1*
 29: 0x00AB [0x02] IF !(ExtData[1]->WorkLocal[0] > 1*) GOTO 0x00D1
 30: 0x00B3 [0x02] IF !(0* < ExtData[1]->WorkLocal[0]) GOTO 0x00C9
 31: 0x00BB [0x02] IF !(ExtData[1]->WorkLocal[0] == 2*) GOTO 0x00C9
 32: 0x00C3 [0x1A] CALL_SUBROUTINE(address=0x096A)
 33: 0x00C6 [0x01] GOTO 0x00C9

SUBROUTINE_00C9:
 34: 0x00C9 [0x07] ExtData[1]->WorkLocal[0] += 1*
 35: 0x00CE [0x01] GOTO 0x00AB
 36: 0x00D1 [0x03] ExtData[1]->WorkLocal[0] = 1*

SUBROUTINE_00D6:
 37: 0x00D6 [0x02] IF !(ExtData[1]->WorkLocal[0] > 1*) GOTO 0x00F1
 38: 0x00DE [0x02] IF !(0* > ExtData[1]->WorkLocal[0]) GOTO 0x00E9
 39: 0x00E6 [0x1A] CALL_SUBROUTINE(address=0x011C)
 40: 0x00E9 [0x07] ExtData[1]->WorkLocal[0] += 1*
 41: 0x00EE [0x01] GOTO 0x00D6
 42: 0x00F1 [0x1A] CALL_SUBROUTINE(address=0x098B)
 43: 0x00F4 [0x1A] CALL_SUBROUTINE(address=0x09AC)
 44: 0x00F7 [0x1C] WAIT(60* ticks)
 45: 0x00FA [0x45] LOAD_SCHEDULED_TASK: Load scheduler "fdi2" with entities [LocalPlayer, LocalPlayer], work=[200*, 0*]
 46: 0x010B [0x46] CAMERA_CONTROL: Restore default settings
 47: 0x010D [0x21] END_EVENT
 48: 0x010E [0x00] END_REQSTACK()

SUBROUTINE_011C:
 49: 0x011C [0x02] IF !(ExtData[1]->WorkLocal[0] == 1*) GOTO 0x0274
 50: 0x0124 [0x45] LOAD_SCHEDULED_TASK: Load scheduler "7001" with entities [LocalPlayer, LocalPlayer], work=[474*, 0*]
 51: 0x0135 [0x1A] CALL_SUBROUTINE(address=0x096A)
 52: 0x0138 [0x27] REQ_SET(priority=0x10, entity_id=Renfred (ID: 17645904/0x010D4150), tag_num=0x03)
 53: 0x013F [0x1C] WAIT(10* ticks)
 54: 0x0142 [0x27] REQ_SET(priority=0x10, entity_id=Gorattz (ID: 17645905/0x010D4151), tag_num=0x03)
 55: 0x0149 [0x1C] WAIT(25* ticks)
 56: 0x014C [0x27] REQ_SET(priority=0x10, entity_id=Bompupu (ID: 17645906/0x010D4152), tag_num=0x03)
 57: 0x0153 [0x1C] WAIT(30* ticks)
 58: 0x0156 [0x2B] Renfred (ID: 17645904/0x010D4150) [7392*]:
    → "Hey! What do you think you're doing there!?"
 59: 0x015D [0x1C] WAIT(60* ticks)
 60: 0x0160 [0x79] LocalPlayer looks at Unknown NPC (ID: 2149285907/0x801B8013) (Direct axis set)
 61: 0x016A [0x7B] Renfred (ID: 17645904/0x010D4150) stops talking
 62: 0x016F [0x7B] Gorattz (ID: 17645905/0x010D4151) stops talking
 63: 0x0174 [0x7B] Bompupu (ID: 17645906/0x010D4152) stops talking
 64: 0x0179 [0x5C] MUSIC_CONTROL: Set Idle (Day) music to song 170*
 65: 0x017D [0x5C] MUSIC_CONTROL: Set Idle (Night) music to song 170*
 66: 0x0181 [0x9A] WAIT_MUSIC_SERVER()
 67: 0x0182 [0x1C] WAIT(270* ticks)
 68: 0x0185 [0x52] END_LOAD_SCHEDULER: End scheduler "7001" with entities [LocalPlayer, LocalPlayer], work=474*
 69: 0x0194 [0x45] LOAD_SCHEDULED_TASK: Load scheduler "7004" with entities [LocalPlayer, LocalPlayer], work=[474*, 0*]
 70: 0x01A5 [0x2A] GET_REQ_LEVEL(level=16, entity_id=Bompupu (ID: 17645906/0x010D4152))
 71: 0x01AB [0x2B] Bompupu (ID: 17645906/0x010D4152) [7393*]:
    → "Hm? Looks to be justaru a greenhorn adventurer if you ask me."
 72: 0x01B2 [0x23] WAIT_FOR_DIALOG_INTERACTION
 73: 0x01B3 [0x66] LOAD_EXT_SCHEDULER_MAIN: Load scheduler "gat0" with entities [Gorattz (ID: 17645905/0x010D4151), Gorattz (ID: 17645905/0x010D4151)], work=136*
 74: 0x01C2 [0x03] Work_Zone[2] = 120*
 75: 0x01C7 [0x27] REQ_SET(priority=0x10, entity_id=??? (ID: 17645901/0x010D414D), tag_num=0x07)
 76: 0x01CE [0x1C] WAIT(70* ticks)
 77: 0x01D1 [0x52] END_LOAD_SCHEDULER: End scheduler "7004" with entities [LocalPlayer, LocalPlayer], work=474*
 78: 0x01E0 [0x45] LOAD_SCHEDULED_TASK: Load scheduler "7006" with entities [LocalPlayer, LocalPlayer], work=[474*, 0*]
 79: 0x01F1 [0x66] LOAD_EXT_SCHEDULER_MAIN: Load scheduler "in00" with entities [Bompupu (ID: 17645906/0x010D4152), Bompupu (ID: 17645906/0x010D4152)], work=47*
 80: 0x0200 [0x2B] Gorattz (ID: 17645905/0x010D4151) [7394*]:
    → "Don't be takin' this personal, kid. You jus' happened to be in the wrong place at the wrooong time. Heh heh heh..."
 81: 0x0207 [0x2A] GET_REQ_LEVEL(level=16, entity_id=??? (ID: 17645901/0x010D414D))
 82: 0x020D [0x5B] LOAD_EXT_SCHEDULER: Load scheduler "bti0" with entities [Renfred (ID: 17645904/0x010D4150), Renfred (ID: 17645904/0x010D4150)], work=2175*
 83: 0x021C [0x1C] WAIT(30* ticks)
 84: 0x021F [0x52] END_LOAD_SCHEDULER: End scheduler "7006" with entities [LocalPlayer, LocalPlayer], work=474*
 85: 0x022E [0x45] LOAD_SCHEDULED_TASK: Load scheduler "7005" with entities [LocalPlayer, LocalPlayer], work=[474*, 0*]
 86: 0x023F [0x1C] WAIT(60* ticks)
 87: 0x0242 [0x1A] CALL_SUBROUTINE(address=0x0A0F)
 88: 0x0245 [0x1C] WAIT(30* ticks)
 89: 0x0248 [0x5C] MUSIC_CONTROL: Set Idle (Day) music to song 0*
 90: 0x024C [0x5C] MUSIC_CONTROL: Set Idle (Night) music to song 0*
 91: 0x0250 [0x9A] WAIT_MUSIC_SERVER()
 92: 0x0251 [0x52] END_LOAD_SCHEDULER: End scheduler "7005" with entities [LocalPlayer, LocalPlayer], work=474*
 93: 0x0260 [0x45] LOAD_SCHEDULED_TASK: Load scheduler "0blf" with entities [LocalPlayer, LocalPlayer], work=[474*, 0*]
 94: 0x0271 [0x01] GOTO 0x027F
 95: 0x0274 [0x02] IF !(ExtData[1]->WorkLocal[0] == 2*) GOTO 0x027F
 96: 0x027C [0x01] GOTO 0x027F

SUBROUTINE_027F:
 97: 0x027F [0x1B] RETURN
```

#### Data or dead code:

```
# Dead code (unreachable instructions):
     0x010F [0x02] IF !(0* == 1*) GOTO 0x011B
     0x0117 [0x48] [System] [7392*]:
    → "Hey! What do you think you're doing there!?"
     0x011A [0x23] WAIT_FOR_DIALOG_INTERACTION
     0x011B [0x1B] RETURN
```

### Event 14

#### Metadata

| Field        | Value      |
|--------------|------------|
| Entrypoint   | 0x0280     |
| Data Size    | 2001 bytes |
| Instructions | 281        |

```
      00 01 02 03 04 05 06 07  08 09 0A 0B 0C 0D 0E 0F
      -- -- -- -- -- -- -- --  -- -- -- -- -- -- -- --
0280: 42 1A 8B 09 46 01 38 00  80 29 10 F0 FF FF 7F 02  B...F.8..)......
0290: 29 10 4F 41 0D 01 01 29  10 4D 41 0D 01 01 29 10  ).OA...).MA...).
02A0: 4E 41 0D 01 01 29 10 50  41 0D 01 01 29 10 51 41  NA...).PA...).QA
02B0: 0D 01 01 29 10 52 41 0D  01 01 29 10 4E 41 0D 01  ...).RA...).NA..
02C0: 02 29 10 4E 41 0D 01 07  BA F0 FF FF 7F 25 80 26  .).NA........%.&
02D0: 80 27 80 28 80 BA 4F 41  0D 01 29 80 2A 80 2B 80  .'.(..OA..).*.+.
02E0: 13 80 BA 4D 41 0D 01 2C  80 2D 80 27 80 28 80 BA  ...MA..,.-.'.(..
02F0: 4E 41 0D 01 2E 80 2F 80  30 80 13 80 BA 50 41 0D  NA..../.0....PA.
0300: 01 31 80 32 80 27 80 33  80 BA 51 41 0D 01 34 80  .1.2.'.3..QA..4.
0310: 35 80 27 80 36 80 BA 52  41 0D 01 37 80 38 80 27  5.'.6..RA..7.8.'
0320: 80 39 80 80 F0 FF FF 7F  80 4F 41 0D 01 80 4D 41  .9.......OA...MA
0330: 0D 01 80 4E 41 0D 01 80  50 41 0D 01 80 51 41 0D  ...NA...PA...QA.
0340: 01 80 52 41 0D 01 1C 15  80 7B F0 FF FF 7F 27 10  ..RA.....{....'.
0350: 4D 41 0D 01 06 27 10 4E  41 0D 01 04 27 10 50 41  MA...'.NA...'.PA
0360: 0D 01 05 27 10 51 41 0D  01 05 27 10 52 41 0D 01  ...'.QA...'.RA..
0370: 05 1C 15 80 5C 00 3A 80  5C 01 3A 80 9A 03 01 00  ....\.:.\.:.....
0380: 12 80 02 01 00 19 80 05  BA 04 02 13 80 01 00 04  ................
0390: B2 04 02 01 00 14 80 80  B1 03 1A 6A 09 79 00 F0  ...........j.y..
03A0: FF FF 7F 4F 41 0D 01 27  10 4F 41 0D 01 05 01 B2  ...OA..'.OA.....
03B0: 04 02 01 00 3B 80 80 E4  03 4A F0 FF FF 7F 4F 41  ....;....J....OA
03C0: 0D 01 6F 76 F0 FF FF 7F  79 00 4F 41 0D 01 F0 FF  ..ov....y.OA....
03D0: FF 7F 6F 76 4F 41 0D 01  4A 4F 41 0D 01 F0 FF FF  ..ovOA..JOA.....
03E0: 7F 01 B2 04 02 01 00 3C  80 80 F5 03 1A 0B 05 1A  .......<........
03F0: 8B 09 01 B2 04 02 01 00  3D 80 80 33 04 BA 4F 41  ........=..3..OA
0400: 0D 01 3E 80 3F 80 40 80  41 80 80 4F 41 0D 01 4A  ..>.?.@.A..OA..J
0410: 4F 41 0D 01 F0 FF FF 7F  4A F0 FF FF 7F 4F 41 0D  OA......J....OA.
0420: 01 6F 76 4F 41 0D 01 6F  76 F0 FF FF 7F 1A 6A 09  .ovOA..ov.....j.
0430: 01 B2 04 02 01 00 42 80  80 3E 04 01 B2 04 02 01  ......B..>......
0440: 00 43 80 80 57 04 27 10  4F 41 0D 01 06 29 10 4F  .C..W.'.OA...).O
0450: 41 0D 01 07 01 B2 04 02  01 00 44 80 80 70 04 29  A.........D..p.)
0460: 10 4F 41 0D 01 0A 29 10  4F 41 0D 01 0B 01 B2 04  .OA...).OA......
0470: 02 01 00 45 80 80 82 04  27 10 4F 41 0D 01 08 01  ...E....'.OA....
0480: B2 04 02 01 00 19 80 80  99 04 29 10 4F 41 0D 01  ..........).OA..
0490: 09 7B 4F 41 0D 01 01 B2  04 02 01 00 46 80 80 B2  .{OA........F...
04A0: 04 27 10 F0 FF FF 7F 04  29 10 4F 41 0D 01 0C 01  .'......).OA....
04B0: B2 04 07 01 00 12 80 01  82 03 03 01 00 12 80 02  ................
04C0: 01 00 19 80 05 DA 04 02  13 80 01 00 05 D2 04 1A  ................
04D0: 11 05 07 01 00 12 80 01  BF 04 1A 8B 09 1C 11 80  ................
04E0: 5C 00 13 80 5C 01 13 80  9A 46 00 45 16 80 F0 FF  \...\....F.E....
04F0: FF 7F F0 FF FF 7F 66 64  69 32 13 80 21 00 02 13  ......fdi2..!...
0500: 80 12 80 00 0A 05 48 47  80 23 1B 03 02 00 02 10  ......HG.#......
0510: 1B 02 01 00 12 80 80 64  05 45 18 80 F0 FF FF 7F  .......d.E......
0520: F0 FF FF 7F 38 30 30 31  13 80 27 10 4F 41 0D 01  ....8001..'.OA..
0530: 05 1A 6A 09 1C 48 80 2B  4D 41 0D 01 49 80 1C 4A  ..j..H.+MA..I..J
0540: 80 79 00 F0 FF FF 7F 4F  41 0D 01 27 10 4E 41 0D  .y.....OA..'.NA.
0550: 01 08 55 18 80 F0 FF FF  7F F0 FF FF 7F 38 30 30  ..U..........800
0560: 31 01 27 09 02 01 00 14  80 80 C8 05 45 18 80 F0  1.'.........E...
0570: FF FF 7F F0 FF FF 7F 38  30 30 32 13 80 1C 4B 80  .......8002...K.
0580: 59 01 F0 FF FF 7F 4C 80  4A F0 FF FF 7F 4F 41 0D  Y.....L.J....OA.
0590: 01 79 00 F0 FF FF 7F 4D  41 0D 01 6F 76 F0 FF FF  .y.....MA..ov...
05A0: 7F 79 00 F0 FF FF 7F 4F  41 0D 01 1C 4D 80 2B 4F  .y.....OA...M.+O
05B0: 41 0D 01 47 80 23 52 18  80 F0 FF FF 7F F0 FF FF  A..G.#R.........
05C0: 7F 38 30 30 32 01 27 09  02 01 00 3B 80 80 2A 06  .8002.'....;..*.
05D0: 27 10 4E 41 0D 01 03 27  10 4F 41 0D 01 03 45 18  '.NA...'.OA...E.
05E0: 80 F0 FF FF 7F F0 FF FF  7F 38 30 30 33 13 80 1A  .........8003...
05F0: 0B 05 02 02 00 13 80 00  05 06 2B 4F 41 0D 01 4E  ..........+OA..N
0600: 80 23 01 0D 06 2B 4F 41  0D 01 4F 80 23 5D 13 80  .#...+OA..O.#]..
0610: 20 80 1A 8B 09 1C 11 80  52 18 80 F0 FF FF 7F F0   .......R.......
0620: FF FF 7F 38 30 30 33 01  27 09 02 01 00 3C 80 80  ...8003.'....<..
0630: 6D 07 29 10 4E 41 0D 01  04 29 10 4F 41 0D 01 02  m.).NA...).OA...
0640: 29 10 50 41 0D 01 06 29  10 51 41 0D 01 06 29 10  ).PA...).QA...).
0650: 52 41 0D 01 06 1C 50 80  BA 4F 41 0D 01 3E 80 3F  RA....P..OA..>.?
0660: 80 40 80 41 80 BA 50 41  0D 01 51 80 52 80 53 80  .@.A..PA..Q.R.S.
0670: 54 80 BA 51 41 0D 01 55  80 56 80 57 80 54 80 BA  T..QA..U.V.W.T..
0680: 52 41 0D 01 58 80 59 80  5A 80 54 80 80 4F 41 0D  RA..X.Y.Z.T..OA.
0690: 01 80 50 41 0D 01 80 51  41 0D 01 80 52 41 0D 01  ..PA...QA...RA..
06A0: 1C 50 80 4A 4F 41 0D 01  F0 FF FF 7F 4A 50 41 0D  .P.JOA......JPA.
06B0: 01 F0 FF FF 7F 4A 51 41  0D 01 F0 FF FF 7F 4A 52  .....JQA......JR
06C0: 41 0D 01 F0 FF FF 7F 4A  F0 FF FF 7F 4F 41 0D 01  A......J....OA..
06D0: 6F 76 4F 41 0D 01 6F 76  50 41 0D 01 6F 76 51 41  ovOA..ovPA..ovQA
06E0: 0D 01 6F 76 52 41 0D 01  6F 76 F0 FF FF 7F 2B 4F  ..ovRA..ov....+O
06F0: 41 0D 01 5B 80 23 48 5C  80 23 5C 00 5D 80 5C 01  A..[.#H\.#\.].\.
0700: 5D 80 9A 7B 4F 41 0D 01  7B 50 41 0D 01 7B 51 41  ]..{OA..{PA..{QA
0710: 0D 01 7B 52 41 0D 01 1C  15 80 45 18 80 F0 FF FF  ..{RA.....E.....
0720: 7F F0 FF FF 7F 38 30 30  34 13 80 1A 6A 09 27 10  .....8004...j.'.
0730: F0 FF FF 7F 05 1C 48 80  27 10 F0 FF FF 7F 06 1C  ......H.'.......
0740: 11 80 52 18 80 F0 FF FF  7F F0 FF FF 7F 38 30 30  ..R..........800
0750: 34 45 18 80 F0 FF FF 7F  F0 FF FF 7F 38 31 30 34  4E..........8104
0760: 13 80 2B 4F 41 0D 01 5E  80 23 01 27 09 02 01 00  ..+OA..^.#.'....
0770: 3D 80 80 80 07 2B 4F 41  0D 01 5F 80 23 01 27 09  =....+OA.._.#.'.
0780: 02 01 00 42 80 80 CD 07  45 18 80 F0 FF FF 7F F0  ...B....E.......
0790: FF FF 7F 38 30 30 37 13  80 79 00 4F 41 0D 01 F0  ...8007..y.OA...
07A0: FF FF 7F 27 10 4F 41 0D  01 06 1C 11 80 2B 4F 41  ...'.OA......+OA
07B0: 0D 01 60 80 23 2A 10 4F  41 0D 01 29 10 4F 41 0D  ..`.#*.OA..).OA.
07C0: 01 07 2B 4F 41 0D 01 61  80 23 01 27 09 02 01 00  ..+OA..a.#.'....
07D0: 43 80 80 F9 07 1C 15 80  7B 4F 41 0D 01 29 10 4F  C.......{OA..).O
07E0: 41 0D 01 0A 2B 4F 41 0D  01 62 80 23 29 10 4F 41  A...+OA..b.#).OA
07F0: 0D 01 0B 1C 15 80 01 27  09 02 01 00 44 80 80 5F  .......'....D.._
0800: 08 52 18 80 F0 FF FF 7F  F0 FF FF 7F 38 30 30 37  .R..........8007
0810: 45 18 80 F0 FF FF 7F F0  FF FF 7F 38 30 30 38 13  E..........8008.
0820: 80 1C 4D 80 7B 4F 41 0D  01 27 10 4F 41 0D 01 08  ..M.{OA..'.OA...
0830: BA F0 FF FF 7F 63 80 64  80 27 80 65 80 2B 4F 41  .....c.d.'.e.+OA
0840: 0D 01 66 80 23 2B 4F 41  0D 01 67 80 23 52 18 80  ..f.#+OA..g.#R..
0850: F0 FF FF 7F F0 FF FF 7F  38 30 30 38 01 27 09 02  ........8008.'..
0860: 01 00 45 80 80 B1 08 45  18 80 F0 FF FF 7F F0 FF  ..E....E........
0870: FF 7F 38 30 30 39 13 80  2A 10 4F 41 0D 01 7B 4F  ..8009..*.OA..{O
0880: 41 0D 01 29 10 4F 41 0D  01 09 7B 4F 41 0D 01 2B  A..).OA...{OA..+
0890: 4F 41 0D 01 68 80 23 2B  4F 41 0D 01 69 80 23 52  OA..h.#+OA..i.#R
08A0: 18 80 F0 FF FF 7F F0 FF  FF 7F 38 30 30 39 01 27  ..........8009.'
08B0: 09 02 01 00 19 80 80 27  09 45 18 80 F0 FF FF 7F  .......'.E......
08C0: F0 FF FF 7F 38 30 30 61  13 80 2B 4F 41 0D 01 6A  ....800a..+OA..j
08D0: 80 23 5D 13 80 6B 80 1C  19 80 27 10 F0 FF FF 7F  .#]..k....'.....
08E0: 04 27 10 4F 41 0D 01 0C  7B 50 41 0D 01 1C 1A 80  .'.OA...{PA.....
08F0: 27 10 50 41 0D 01 07 7B  51 41 0D 01 1C 6C 80 27  '.PA...{QA...l.'
0900: 10 51 41 0D 01 07 7B 52  41 0D 01 1C 19 80 29 10  .QA...{RA.....).
0910: 52 41 0D 01 07 52 18 80  F0 FF FF 7F F0 FF FF 7F  RA...R..........
0920: 38 30 30 61 01 27 09 1B  45 16 80 F0 FF FF 7F F0  800a.'..E.......
0930: FF FF 7F 66 64 69 30 13  80 55 16 80 F0 FF FF 7F  ...fdi0..U......
0940: F0 FF FF 7F 66 64 69 30  1B 45 16 80 F0 FF FF 7F  ....fdi0.E......
0950: F0 FF FF 7F 66 64 6F 30  13 80 55 16 80 F0 FF FF  ....fdo0..U.....
0960: 7F F0 FF FF 7F 66 64 6F  30 1B 45 16 80 F0 FF FF  .....fdo0.E.....
0970: 7F F0 FF FF 7F 66 64 69  31 13 80 55 16 80 F0 FF  .....fdi1..U....
0980: FF 7F F0 FF FF 7F 66 64  69 31 1B 45 16 80 F0 FF  ......fdi1.E....
0990: FF 7F F0 FF FF 7F 66 64  6F 31 13 80 55 16 80 F0  ......fdo1..U...
09A0: FF FF 7F F0 FF FF 7F 66  64 6F 31 1B 45 6D 80 F0  .......fdo1.Em..
09B0: FF FF 7F F0 FF FF 7F 77  68 69 31 13 80 55 6D 80  .......whi1..Um.
09C0: F0 FF FF 7F F0 FF FF 7F  77 68 69 31 1B 45 6D 80  ........whi1.Em.
09D0: F0 FF FF 7F F0 FF FF 7F  77 68 6F 31 13 80 55 6D  ........who1..Um
09E0: 80 F0 FF FF 7F F0 FF FF  7F 77 68 6F 31 1B 45 6D  .........who1.Em
09F0: 80 F0 FF FF 7F F0 FF FF  7F 77 68 69 30 13 80 55  .........whi0..U
0A00: 6D 80 F0 FF FF 7F F0 FF  FF 7F 77 68 69 30 1B 45  m.........whi0.E
0A10: 6D 80 F0 FF FF 7F F0 FF  FF 7F 77 68 6F 30 13 80  m.........who0..
0A20: 55 6D 80 F0 FF FF 7F F0  FF FF 7F 77 68 6F 30 1B  Um.........who0.
0A30: 45 6E 80 F0 FF FF 7F F0  FF FF 7F 65 66 6F 6E 13  En.........efon.
0A40: 80 55 6E 80 F0 FF FF 7F  F0 FF FF 7F 65 66 6F 6E  .Un.........efon
0A50: 1B                                                .               
```

#### Opcodes

```
  0: 0x0280 [0x42] SET_CLI_EVENT_CANCEL_DATA()
  1: 0x0281 [0x1A] CALL_SUBROUTINE(address=0x098B)
  2: 0x0284 [0x46] CAMERA_CONTROL: Disable user control
  3: 0x0286 [0x38] SET_CLIENT_EVENT_MODE(mode=19*)
  4: 0x0289 [0x29] REQ_SET_WAIT(priority=0x10, entity_id=LocalPlayer, tag_num=0x02)
  5: 0x0290 [0x29] REQ_SET_WAIT(priority=0x10, entity_id=Aldo (ID: 17645903/0x010D414F), tag_num=0x01)
  6: 0x0297 [0x29] REQ_SET_WAIT(priority=0x10, entity_id=??? (ID: 17645901/0x010D414D), tag_num=0x01)
  7: 0x029E [0x29] REQ_SET_WAIT(priority=0x10, entity_id=Unnamed NPC (ID: 17645902/0x010D414E), tag_num=0x01)
  8: 0x02A5 [0x29] REQ_SET_WAIT(priority=0x10, entity_id=Renfred (ID: 17645904/0x010D4150), tag_num=0x01)
  9: 0x02AC [0x29] REQ_SET_WAIT(priority=0x10, entity_id=Gorattz (ID: 17645905/0x010D4151), tag_num=0x01)
 10: 0x02B3 [0x29] REQ_SET_WAIT(priority=0x10, entity_id=Bompupu (ID: 17645906/0x010D4152), tag_num=0x01)
 11: 0x02BA [0x29] REQ_SET_WAIT(priority=0x10, entity_id=Unnamed NPC (ID: 17645902/0x010D414E), tag_num=0x02)
 12: 0x02C1 [0x29] REQ_SET_WAIT(priority=0x10, entity_id=Unnamed NPC (ID: 17645902/0x010D414E), tag_num=0x07)
 13: 0x02C8 [0xBA] SET_ENTITY_POSITION(entity_id=LocalPlayer, pos_x=-136.960*, pos_z=-183.150*, pos_y=-9.740*, direction=183.0°*)
 14: 0x02D5 [0xBA] SET_ENTITY_POSITION(entity_id=Aldo (ID: 17645903/0x010D414F), pos_x=-139.881*, pos_z=-195.167*, pos_y=-9.874*, direction=0.0°*)
 15: 0x02E2 [0xBA] SET_ENTITY_POSITION(entity_id=??? (ID: 17645901/0x010D414D), pos_x=-137.906*, pos_z=-182.100*, pos_y=-9.740*, direction=183.0°*)
 16: 0x02EF [0xBA] SET_ENTITY_POSITION(entity_id=Unnamed NPC (ID: 17645902/0x010D414E), pos_x=-137.997*, pos_z=-186.570*, pos_y=-10.000*, direction=0.0°*)
 17: 0x02FC [0xBA] SET_ENTITY_POSITION(entity_id=Renfred (ID: 17645904/0x010D4150), pos_x=-138.715*, pos_z=-183.399*, pos_y=-9.740*, direction=55.7°*)
 18: 0x0309 [0xBA] SET_ENTITY_POSITION(entity_id=Gorattz (ID: 17645905/0x010D4151), pos_x=-135.727*, pos_z=-178.707*, pos_y=-9.740*, direction=142.4°*)
 19: 0x0316 [0xBA] SET_ENTITY_POSITION(entity_id=Bompupu (ID: 17645906/0x010D4152), pos_x=-133.777*, pos_z=-179.819*, pos_y=-9.740*, direction=272.9°*)
 20: 0x0323 [0x80] LOAD_WAIT(entity=LocalPlayer)
 21: 0x0328 [0x80] LOAD_WAIT(entity=Aldo (ID: 17645903/0x010D414F))
 22: 0x032D [0x80] LOAD_WAIT(entity=??? (ID: 17645901/0x010D414D))
 23: 0x0332 [0x80] LOAD_WAIT(entity=Unnamed NPC (ID: 17645902/0x010D414E))
 24: 0x0337 [0x80] LOAD_WAIT(entity=Renfred (ID: 17645904/0x010D4150))
 25: 0x033C [0x80] LOAD_WAIT(entity=Gorattz (ID: 17645905/0x010D4151))
 26: 0x0341 [0x80] LOAD_WAIT(entity=Bompupu (ID: 17645906/0x010D4152))
 27: 0x0346 [0x1C] WAIT(60* ticks)
 28: 0x0349 [0x7B] LocalPlayer stops talking
 29: 0x034E [0x27] REQ_SET(priority=0x10, entity_id=??? (ID: 17645901/0x010D414D), tag_num=0x06)
 30: 0x0355 [0x27] REQ_SET(priority=0x10, entity_id=Unnamed NPC (ID: 17645902/0x010D414E), tag_num=0x04)
 31: 0x035C [0x27] REQ_SET(priority=0x10, entity_id=Renfred (ID: 17645904/0x010D4150), tag_num=0x05)
 32: 0x0363 [0x27] REQ_SET(priority=0x10, entity_id=Gorattz (ID: 17645905/0x010D4151), tag_num=0x05)
 33: 0x036A [0x27] REQ_SET(priority=0x10, entity_id=Bompupu (ID: 17645906/0x010D4152), tag_num=0x05)
 34: 0x0371 [0x1C] WAIT(60* ticks)
 35: 0x0374 [0x5C] MUSIC_CONTROL: Set Idle (Day) music to song 123*
 36: 0x0378 [0x5C] MUSIC_CONTROL: Set Idle (Night) music to song 123*
 37: 0x037C [0x9A] WAIT_MUSIC_SERVER()
 38: 0x037D [0x03] ExtData[1]->WorkLocal[1] = 1*
 39: 0x0382 [0x02] IF !(ExtData[1]->WorkLocal[1] > 10*) GOTO 0x04BA
 40: 0x038A [0x02] IF !(0* < ExtData[1]->WorkLocal[1]) GOTO 0x04B2
 41: 0x0392 [0x02] IF !(ExtData[1]->WorkLocal[1] == 2*) GOTO 0x03B1
 42: 0x039A [0x1A] CALL_SUBROUTINE(address=0x096A)
 43: 0x039D [0x79] LocalPlayer looks at Aldo (ID: 17645903/0x010D414F) (Basic look)
 44: 0x03A7 [0x27] REQ_SET(priority=0x10, entity_id=Aldo (ID: 17645903/0x010D414F), tag_num=0x05)
 45: 0x03AE [0x01] GOTO 0x04B2
 46: 0x03B1 [0x02] IF !(ExtData[1]->WorkLocal[1] == 3*) GOTO 0x03E4
 47: 0x03B9 [0x4A] LocalPlayer looks at Aldo (ID: 17645903/0x010D414F)
 48: 0x03C2 [0x6F] WAIT_FRAME_DELAY: Yield until WaitTime reaches zero
 49: 0x03C3 [0x76] CHECK_ENTITY_RENDER_FLAGS: Wait until LocalPlayer Render.Flags0 and Render.Flags3 conditions are met
 50: 0x03C8 [0x79] Aldo (ID: 17645903/0x010D414F) looks at LocalPlayer (Basic look)
 51: 0x03D2 [0x6F] WAIT_FRAME_DELAY: Yield until WaitTime reaches zero
 52: 0x03D3 [0x76] CHECK_ENTITY_RENDER_FLAGS: Wait until Aldo (ID: 17645903/0x010D414F) Render.Flags0 and Render.Flags3 conditions are met
 53: 0x03D8 [0x4A] Aldo (ID: 17645903/0x010D414F) looks at LocalPlayer
 54: 0x03E1 [0x01] GOTO 0x04B2
 55: 0x03E4 [0x02] IF !(ExtData[1]->WorkLocal[1] == 4*) GOTO 0x03F5
 56: 0x03EC [0x1A] CALL_SUBROUTINE(address=0x050B)
 57: 0x03EF [0x1A] CALL_SUBROUTINE(address=0x098B)
 58: 0x03F2 [0x01] GOTO 0x04B2
 59: 0x03F5 [0x02] IF !(ExtData[1]->WorkLocal[1] == 5*) GOTO 0x0433
 60: 0x03FD [0xBA] SET_ENTITY_POSITION(entity_id=Aldo (ID: 17645903/0x010D414F), pos_x=-138.210*, pos_z=-184.920*, pos_y=-9.790*, direction=155.0°*)
 61: 0x040A [0x80] LOAD_WAIT(entity=Aldo (ID: 17645903/0x010D414F))
 62: 0x040F [0x4A] Aldo (ID: 17645903/0x010D414F) looks at LocalPlayer
 63: 0x0418 [0x4A] LocalPlayer looks at Aldo (ID: 17645903/0x010D414F)
 64: 0x0421 [0x6F] WAIT_FRAME_DELAY: Yield until WaitTime reaches zero
 65: 0x0422 [0x76] CHECK_ENTITY_RENDER_FLAGS: Wait until Aldo (ID: 17645903/0x010D414F) Render.Flags0 and Render.Flags3 conditions are met
 66: 0x0427 [0x6F] WAIT_FRAME_DELAY: Yield until WaitTime reaches zero
 67: 0x0428 [0x76] CHECK_ENTITY_RENDER_FLAGS: Wait until LocalPlayer Render.Flags0 and Render.Flags3 conditions are met
 68: 0x042D [0x1A] CALL_SUBROUTINE(address=0x096A)
 69: 0x0430 [0x01] GOTO 0x04B2
 70: 0x0433 [0x02] IF !(ExtData[1]->WorkLocal[1] == 6*) GOTO 0x043E
 71: 0x043B [0x01] GOTO 0x04B2
 72: 0x043E [0x02] IF !(ExtData[1]->WorkLocal[1] == 7*) GOTO 0x0457
 73: 0x0446 [0x27] REQ_SET(priority=0x10, entity_id=Aldo (ID: 17645903/0x010D414F), tag_num=0x06)
 74: 0x044D [0x29] REQ_SET_WAIT(priority=0x10, entity_id=Aldo (ID: 17645903/0x010D414F), tag_num=0x07)
 75: 0x0454 [0x01] GOTO 0x04B2
 76: 0x0457 [0x02] IF !(ExtData[1]->WorkLocal[1] == 8*) GOTO 0x0470
 77: 0x045F [0x29] REQ_SET_WAIT(priority=0x10, entity_id=Aldo (ID: 17645903/0x010D414F), tag_num=0x0A)
 78: 0x0466 [0x29] REQ_SET_WAIT(priority=0x10, entity_id=Aldo (ID: 17645903/0x010D414F), tag_num=0x0B)
 79: 0x046D [0x01] GOTO 0x04B2
 80: 0x0470 [0x02] IF !(ExtData[1]->WorkLocal[1] == 9*) GOTO 0x0482
 81: 0x0478 [0x27] REQ_SET(priority=0x10, entity_id=Aldo (ID: 17645903/0x010D414F), tag_num=0x08)
 82: 0x047F [0x01] GOTO 0x04B2
 83: 0x0482 [0x02] IF !(ExtData[1]->WorkLocal[1] == 10*) GOTO 0x0499
 84: 0x048A [0x29] REQ_SET_WAIT(priority=0x10, entity_id=Aldo (ID: 17645903/0x010D414F), tag_num=0x09)
 85: 0x0491 [0x7B] Aldo (ID: 17645903/0x010D414F) stops talking
 86: 0x0496 [0x01] GOTO 0x04B2
 87: 0x0499 [0x02] IF !(ExtData[1]->WorkLocal[1] == 11*) GOTO 0x04B2
 88: 0x04A1 [0x27] REQ_SET(priority=0x10, entity_id=LocalPlayer, tag_num=0x04)
 89: 0x04A8 [0x29] REQ_SET_WAIT(priority=0x10, entity_id=Aldo (ID: 17645903/0x010D414F), tag_num=0x0C)
 90: 0x04AF [0x01] GOTO 0x04B2

SUBROUTINE_04B2:
 91: 0x04B2 [0x07] ExtData[1]->WorkLocal[1] += 1*
 92: 0x04B7 [0x01] GOTO 0x0382
 93: 0x04BA [0x03] ExtData[1]->WorkLocal[1] = 1*

SUBROUTINE_04BF:
 94: 0x04BF [0x02] IF !(ExtData[1]->WorkLocal[1] > 10*) GOTO 0x04DA
 95: 0x04C7 [0x02] IF !(0* > ExtData[1]->WorkLocal[1]) GOTO 0x04D2
 96: 0x04CF [0x1A] CALL_SUBROUTINE(address=0x0511)
 97: 0x04D2 [0x07] ExtData[1]->WorkLocal[1] += 1*
 98: 0x04D7 [0x01] GOTO 0x04BF
 99: 0x04DA [0x1A] CALL_SUBROUTINE(address=0x098B)
100: 0x04DD [0x1C] WAIT(30* ticks)
101: 0x04E0 [0x5C] MUSIC_CONTROL: Set Idle (Day) music to song 0*
102: 0x04E4 [0x5C] MUSIC_CONTROL: Set Idle (Night) music to song 0*
103: 0x04E8 [0x9A] WAIT_MUSIC_SERVER()
104: 0x04E9 [0x46] CAMERA_CONTROL: Restore default settings
105: 0x04EB [0x45] LOAD_SCHEDULED_TASK: Load scheduler "fdi2" with entities [LocalPlayer, LocalPlayer], work=[200*, 0*]
106: 0x04FC [0x21] END_EVENT
107: 0x04FD [0x00] END_REQSTACK()

SUBROUTINE_050B:
108: 0x050B [0x03] ExtData[1]->WorkLocal[2] = Work_Zone[2]
109: 0x0510 [0x1B] RETURN

SUBROUTINE_0511:
110: 0x0511 [0x02] IF !(ExtData[1]->WorkLocal[1] == 1*) GOTO 0x0564
111: 0x0519 [0x45] LOAD_SCHEDULED_TASK: Load scheduler "8001" with entities [LocalPlayer, LocalPlayer], work=[474*, 0*]
112: 0x052A [0x27] REQ_SET(priority=0x10, entity_id=Aldo (ID: 17645903/0x010D414F), tag_num=0x05)
113: 0x0531 [0x1A] CALL_SUBROUTINE(address=0x096A)
114: 0x0534 [0x1C] WAIT(80* ticks)
115: 0x0537 [0x2B] ??? (ID: 17645901/0x010D414D) [7395*]:
    → "That Shantotto... How long does she expect me to wait in this dark, dank hole?"
116: 0x053E [0x1C] WAIT(240* ticks)
117: 0x0541 [0x79] LocalPlayer looks at Aldo (ID: 17645903/0x010D414F) (Basic look)
118: 0x054B [0x27] REQ_SET(priority=0x10, entity_id=Unnamed NPC (ID: 17645902/0x010D414E), tag_num=0x08)
119: 0x0552 [0x55] WAIT_LOAD_SCHEDULER: Wait for scheduler "8001" with entities [LocalPlayer, LocalPlayer], work=474*
120: 0x0561 [0x01] GOTO 0x0927
121: 0x0564 [0x02] IF !(ExtData[1]->WorkLocal[1] == 2*) GOTO 0x05C8
122: 0x056C [0x45] LOAD_SCHEDULED_TASK: Load scheduler "8002" with entities [LocalPlayer, LocalPlayer], work=[474*, 0*]
123: 0x057D [0x1C] WAIT(20* ticks)
124: 0x0580 [0x59] UPDATE_ENTITY_DATA: Set LocalPlayer turn speed = 50*
125: 0x0588 [0x4A] LocalPlayer looks at Aldo (ID: 17645903/0x010D414F)
126: 0x0591 [0x79] LocalPlayer looks at ??? (ID: 17645901/0x010D414D) (Basic look)
127: 0x059B [0x6F] WAIT_FRAME_DELAY: Yield until WaitTime reaches zero
128: 0x059C [0x76] CHECK_ENTITY_RENDER_FLAGS: Wait until LocalPlayer Render.Flags0 and Render.Flags3 conditions are met
129: 0x05A1 [0x79] LocalPlayer looks at Aldo (ID: 17645903/0x010D414F) (Basic look)
130: 0x05AB [0x1C] WAIT(90* ticks)
131: 0x05AE [0x2B] Aldo (ID: 17645903/0x010D414F) [7396*]:
    → "Hm? And you are...?"
132: 0x05B5 [0x23] WAIT_FOR_DIALOG_INTERACTION
133: 0x05B6 [0x52] END_LOAD_SCHEDULER: End scheduler "8002" with entities [LocalPlayer, LocalPlayer], work=474*
134: 0x05C5 [0x01] GOTO 0x0927
135: 0x05C8 [0x02] IF !(ExtData[1]->WorkLocal[1] == 3*) GOTO 0x062A
136: 0x05D0 [0x27] REQ_SET(priority=0x10, entity_id=Unnamed NPC (ID: 17645902/0x010D414E), tag_num=0x03)
137: 0x05D7 [0x27] REQ_SET(priority=0x10, entity_id=Aldo (ID: 17645903/0x010D414F), tag_num=0x03)
138: 0x05DE [0x45] LOAD_SCHEDULED_TASK: Load scheduler "8003" with entities [LocalPlayer, LocalPlayer], work=[474*, 0*]
139: 0x05EF [0x1A] CALL_SUBROUTINE(address=0x050B)
140: 0x05F2 [0x02] IF !(ExtData[1]->WorkLocal[2] == 0*) GOTO 0x0605
141: 0x05FA [0x2B] Aldo (ID: 17645903/0x010D414F) [7397*]:
    → "Well, if it isn't <Player>! What brings you here, my friend?"
142: 0x0601 [0x23] WAIT_FOR_DIALOG_INTERACTION
143: 0x0602 [0x01] GOTO 0x060D
144: 0x0605 [0x2B] Aldo (ID: 17645903/0x010D414F) [7398*]:
    → "An adventurer, if I'm not mistaken? What brings one of your kind to these peril-fraught caverns?"
145: 0x060C [0x23] WAIT_FOR_DIALOG_INTERACTION

SUBROUTINE_060D:
146: 0x060D [0x5D] SET_MUSIC_VOLUME(volume=0*, fade_time=120*)
147: 0x0612 [0x1A] CALL_SUBROUTINE(address=0x098B)
148: 0x0615 [0x1C] WAIT(30* ticks)
149: 0x0618 [0x52] END_LOAD_SCHEDULER: End scheduler "8003" with entities [LocalPlayer, LocalPlayer], work=474*
150: 0x0627 [0x01] GOTO 0x0927
151: 0x062A [0x02] IF !(ExtData[1]->WorkLocal[1] == 4*) GOTO 0x076D
152: 0x0632 [0x29] REQ_SET_WAIT(priority=0x10, entity_id=Unnamed NPC (ID: 17645902/0x010D414E), tag_num=0x04)
153: 0x0639 [0x29] REQ_SET_WAIT(priority=0x10, entity_id=Aldo (ID: 17645903/0x010D414F), tag_num=0x02)
154: 0x0640 [0x29] REQ_SET_WAIT(priority=0x10, entity_id=Renfred (ID: 17645904/0x010D4150), tag_num=0x06)
155: 0x0647 [0x29] REQ_SET_WAIT(priority=0x10, entity_id=Gorattz (ID: 17645905/0x010D4151), tag_num=0x06)
156: 0x064E [0x29] REQ_SET_WAIT(priority=0x10, entity_id=Bompupu (ID: 17645906/0x010D4152), tag_num=0x06)
157: 0x0655 [0x1C] WAIT(15* ticks)
158: 0x0658 [0xBA] SET_ENTITY_POSITION(entity_id=Aldo (ID: 17645903/0x010D414F), pos_x=-138.210*, pos_z=-184.920*, pos_y=-9.790*, direction=155.0°*)
159: 0x0665 [0xBA] SET_ENTITY_POSITION(entity_id=Renfred (ID: 17645904/0x010D4150), pos_x=-138.208*, pos_z=-186.245*, pos_y=-9.852*, direction=303.2°*)
160: 0x0672 [0xBA] SET_ENTITY_POSITION(entity_id=Gorattz (ID: 17645905/0x010D4151), pos_x=-139.856*, pos_z=-185.658*, pos_y=-9.859*, direction=303.2°*)
161: 0x067F [0xBA] SET_ENTITY_POSITION(entity_id=Bompupu (ID: 17645906/0x010D4152), pos_x=-138.928*, pos_z=-186.625*, pos_y=-10.026*, direction=303.2°*)
162: 0x068C [0x80] LOAD_WAIT(entity=Aldo (ID: 17645903/0x010D414F))
163: 0x0691 [0x80] LOAD_WAIT(entity=Renfred (ID: 17645904/0x010D4150))
164: 0x0696 [0x80] LOAD_WAIT(entity=Gorattz (ID: 17645905/0x010D4151))
165: 0x069B [0x80] LOAD_WAIT(entity=Bompupu (ID: 17645906/0x010D4152))
166: 0x06A0 [0x1C] WAIT(15* ticks)
167: 0x06A3 [0x4A] Aldo (ID: 17645903/0x010D414F) looks at LocalPlayer
168: 0x06AC [0x4A] Renfred (ID: 17645904/0x010D4150) looks at LocalPlayer
169: 0x06B5 [0x4A] Gorattz (ID: 17645905/0x010D4151) looks at LocalPlayer
170: 0x06BE [0x4A] Bompupu (ID: 17645906/0x010D4152) looks at LocalPlayer
171: 0x06C7 [0x4A] LocalPlayer looks at Aldo (ID: 17645903/0x010D414F)
172: 0x06D0 [0x6F] WAIT_FRAME_DELAY: Yield until WaitTime reaches zero
173: 0x06D1 [0x76] CHECK_ENTITY_RENDER_FLAGS: Wait until Aldo (ID: 17645903/0x010D414F) Render.Flags0 and Render.Flags3 conditions are met
174: 0x06D6 [0x6F] WAIT_FRAME_DELAY: Yield until WaitTime reaches zero
175: 0x06D7 [0x76] CHECK_ENTITY_RENDER_FLAGS: Wait until Renfred (ID: 17645904/0x010D4150) Render.Flags0 and Render.Flags3 conditions are met
176: 0x06DC [0x6F] WAIT_FRAME_DELAY: Yield until WaitTime reaches zero
177: 0x06DD [0x76] CHECK_ENTITY_RENDER_FLAGS: Wait until Gorattz (ID: 17645905/0x010D4151) Render.Flags0 and Render.Flags3 conditions are met
178: 0x06E2 [0x6F] WAIT_FRAME_DELAY: Yield until WaitTime reaches zero
179: 0x06E3 [0x76] CHECK_ENTITY_RENDER_FLAGS: Wait until Bompupu (ID: 17645906/0x010D4152) Render.Flags0 and Render.Flags3 conditions are met
180: 0x06E8 [0x6F] WAIT_FRAME_DELAY: Yield until WaitTime reaches zero
181: 0x06E9 [0x76] CHECK_ENTITY_RENDER_FLAGS: Wait until LocalPlayer Render.Flags0 and Render.Flags3 conditions are met
182: 0x06EE [0x2B] Aldo (ID: 17645903/0x010D414F) [7399*]:
    → "My word! Is all this your doing? Doubtless, though, my overzealous young recruits brought it upon themselves. Up, you lot! Up! Act with some dignity if you'd call yourselves Tenshodo agents!"
183: 0x06F5 [0x23] WAIT_FOR_DIALOG_INTERACTION
184: 0x06F6 [0x48] [System] [7410*]:
    → ""
185: 0x06F9 [0x23] WAIT_FOR_DIALOG_INTERACTION
186: 0x06FA [0x5C] MUSIC_CONTROL: Set Idle (Day) music to song 127*
187: 0x06FE [0x5C] MUSIC_CONTROL: Set Idle (Night) music to song 127*
188: 0x0702 [0x9A] WAIT_MUSIC_SERVER()
189: 0x0703 [0x7B] Aldo (ID: 17645903/0x010D414F) stops talking
190: 0x0708 [0x7B] Renfred (ID: 17645904/0x010D4150) stops talking
191: 0x070D [0x7B] Gorattz (ID: 17645905/0x010D4151) stops talking
192: 0x0712 [0x7B] Bompupu (ID: 17645906/0x010D4152) stops talking
193: 0x0717 [0x1C] WAIT(60* ticks)
194: 0x071A [0x45] LOAD_SCHEDULED_TASK: Load scheduler "8004" with entities [LocalPlayer, LocalPlayer], work=[474*, 0*]
195: 0x072B [0x1A] CALL_SUBROUTINE(address=0x096A)
196: 0x072E [0x27] REQ_SET(priority=0x10, entity_id=LocalPlayer, tag_num=0x05)
197: 0x0735 [0x1C] WAIT(80* ticks)
198: 0x0738 [0x27] REQ_SET(priority=0x10, entity_id=LocalPlayer, tag_num=0x06)
199: 0x073F [0x1C] WAIT(30* ticks)
200: 0x0742 [0x52] END_LOAD_SCHEDULER: End scheduler "8004" with entities [LocalPlayer, LocalPlayer], work=474*
201: 0x0751 [0x45] LOAD_SCHEDULED_TASK: Load scheduler "8104" with entities [LocalPlayer, LocalPlayer], work=[474*, 0*]
202: 0x0762 [0x2B] Aldo (ID: 17645903/0x010D414F) [7400*]:
    → "Is...is this true what you say? That Doctor Shantotto sent you here to assassinate me!?"
203: 0x0769 [0x23] WAIT_FOR_DIALOG_INTERACTION
204: 0x076A [0x01] GOTO 0x0927
205: 0x076D [0x02] IF !(ExtData[1]->WorkLocal[1] == 5*) GOTO 0x0780
206: 0x0775 [0x2B] Aldo (ID: 17645903/0x010D414F) [7401*]:
    → "And what's this talk of a...Shantotto Empire?"
207: 0x077C [0x23] WAIT_FOR_DIALOG_INTERACTION
208: 0x077D [0x01] GOTO 0x0927
209: 0x0780 [0x02] IF !(ExtData[1]->WorkLocal[1] == 6*) GOTO 0x07CD
210: 0x0788 [0x45] LOAD_SCHEDULED_TASK: Load scheduler "8007" with entities [LocalPlayer, LocalPlayer], work=[474*, 0*]
211: 0x0799 [0x79] Aldo (ID: 17645903/0x010D414F) looks at LocalPlayer (Basic look)
212: 0x07A3 [0x27] REQ_SET(priority=0x10, entity_id=Aldo (ID: 17645903/0x010D414F), tag_num=0x06)
213: 0x07AA [0x1C] WAIT(30* ticks)
214: 0x07AD [0x2B] Aldo (ID: 17645903/0x010D414F) [7402*]:
    → "Preposterous! What obnoxious manner of conspiracy is that mercurial wench scheming this time?"
215: 0x07B4 [0x23] WAIT_FOR_DIALOG_INTERACTION
216: 0x07B5 [0x2A] GET_REQ_LEVEL(level=16, entity_id=Aldo (ID: 17645903/0x010D414F))
217: 0x07BB [0x29] REQ_SET_WAIT(priority=0x10, entity_id=Aldo (ID: 17645903/0x010D414F), tag_num=0x07)
218: 0x07C2 [0x2B] Aldo (ID: 17645903/0x010D414F) [7403*]:
    → "Naturally, I have no desire to cross swords with you--especially not now that the circumstances for our meeting have come to light."
219: 0x07C9 [0x23] WAIT_FOR_DIALOG_INTERACTION
220: 0x07CA [0x01] GOTO 0x0927
221: 0x07CD [0x02] IF !(ExtData[1]->WorkLocal[1] == 7*) GOTO 0x07F9
222: 0x07D5 [0x1C] WAIT(60* ticks)
223: 0x07D8 [0x7B] Aldo (ID: 17645903/0x010D414F) stops talking
224: 0x07DD [0x29] REQ_SET_WAIT(priority=0x10, entity_id=Aldo (ID: 17645903/0x010D414F), tag_num=0x0A)
225: 0x07E4 [0x2B] Aldo (ID: 17645903/0x010D414F) [7404*]:
    → "Nor do I believe you had come here with the intent to take my life."
226: 0x07EB [0x23] WAIT_FOR_DIALOG_INTERACTION
227: 0x07EC [0x29] REQ_SET_WAIT(priority=0x10, entity_id=Aldo (ID: 17645903/0x010D414F), tag_num=0x0B)
228: 0x07F3 [0x1C] WAIT(60* ticks)
229: 0x07F6 [0x01] GOTO 0x0927
230: 0x07F9 [0x02] IF !(ExtData[1]->WorkLocal[1] == 8*) GOTO 0x085F
231: 0x0801 [0x52] END_LOAD_SCHEDULER: End scheduler "8007" with entities [LocalPlayer, LocalPlayer], work=474*
232: 0x0810 [0x45] LOAD_SCHEDULED_TASK: Load scheduler "8008" with entities [LocalPlayer, LocalPlayer], work=[474*, 0*]
233: 0x0821 [0x1C] WAIT(90* ticks)
234: 0x0824 [0x7B] Aldo (ID: 17645903/0x010D414F) stops talking
235: 0x0829 [0x27] REQ_SET(priority=0x10, entity_id=Aldo (ID: 17645903/0x010D414F), tag_num=0x08)
236: 0x0830 [0xBA] SET_ENTITY_POSITION(entity_id=LocalPlayer, pos_x=-136.465*, pos_z=-183.175*, pos_y=-9.740*, direction=135.0°*)
237: 0x083D [0x2B] Aldo (ID: 17645903/0x010D414F) [7405*]:
    → "The Shantotto Empire..."
238: 0x0844 [0x23] WAIT_FOR_DIALOG_INTERACTION
239: 0x0845 [0x2B] Aldo (ID: 17645903/0x010D414F) [7406*]:
    → "Much is still shrouded in mystery, to be sure, but whatever's brewing can't bode well for Vana'diel. We must get to the bottom of this before the people are made to suffer."
240: 0x084C [0x23] WAIT_FOR_DIALOG_INTERACTION
241: 0x084D [0x52] END_LOAD_SCHEDULER: End scheduler "8008" with entities [LocalPlayer, LocalPlayer], work=474*
242: 0x085C [0x01] GOTO 0x0927
243: 0x085F [0x02] IF !(ExtData[1]->WorkLocal[1] == 9*) GOTO 0x08B1
244: 0x0867 [0x45] LOAD_SCHEDULED_TASK: Load scheduler "8009" with entities [LocalPlayer, LocalPlayer], work=[474*, 0*]
245: 0x0878 [0x2A] GET_REQ_LEVEL(level=16, entity_id=Aldo (ID: 17645903/0x010D414F))
246: 0x087E [0x7B] Aldo (ID: 17645903/0x010D414F) stops talking
247: 0x0883 [0x29] REQ_SET_WAIT(priority=0x10, entity_id=Aldo (ID: 17645903/0x010D414F), tag_num=0x09)
248: 0x088A [0x7B] Aldo (ID: 17645903/0x010D414F) stops talking
249: 0x088F [0x2B] Aldo (ID: 17645903/0x010D414F) [7407*]:
    → "I will return to Jeuno and set my agents to digging up whatever information they can."
250: 0x0896 [0x23] WAIT_FOR_DIALOG_INTERACTION
251: 0x0897 [0x2B] Aldo (ID: 17645903/0x010D414F) [7408*]:
    → "Do what you must, and then seek me at the Tenshodo. We'll discuss the situation further then."
252: 0x089E [0x23] WAIT_FOR_DIALOG_INTERACTION
253: 0x089F [0x52] END_LOAD_SCHEDULER: End scheduler "8009" with entities [LocalPlayer, LocalPlayer], work=474*
254: 0x08AE [0x01] GOTO 0x0927
255: 0x08B1 [0x02] IF !(ExtData[1]->WorkLocal[1] == 10*) GOTO 0x0927
256: 0x08B9 [0x45] LOAD_SCHEDULED_TASK: Load scheduler "800a" with entities [LocalPlayer, LocalPlayer], work=[474*, 0*]
257: 0x08CA [0x2B] Aldo (ID: 17645903/0x010D414F) [7409*]:
    → "I'll be expecting you, <Player>."
258: 0x08D1 [0x23] WAIT_FOR_DIALOG_INTERACTION
259: 0x08D2 [0x5D] SET_MUSIC_VOLUME(volume=0*, fade_time=300*)
260: 0x08D7 [0x1C] WAIT(10* ticks)
261: 0x08DA [0x27] REQ_SET(priority=0x10, entity_id=LocalPlayer, tag_num=0x04)
262: 0x08E1 [0x27] REQ_SET(priority=0x10, entity_id=Aldo (ID: 17645903/0x010D414F), tag_num=0x0C)
263: 0x08E8 [0x7B] Renfred (ID: 17645904/0x010D4150) stops talking
264: 0x08ED [0x1C] WAIT(25* ticks)
265: 0x08F0 [0x27] REQ_SET(priority=0x10, entity_id=Renfred (ID: 17645904/0x010D4150), tag_num=0x07)
266: 0x08F7 [0x7B] Gorattz (ID: 17645905/0x010D4151) stops talking
267: 0x08FC [0x1C] WAIT(45* ticks)
268: 0x08FF [0x27] REQ_SET(priority=0x10, entity_id=Gorattz (ID: 17645905/0x010D4151), tag_num=0x07)
269: 0x0906 [0x7B] Bompupu (ID: 17645906/0x010D4152) stops talking
270: 0x090B [0x1C] WAIT(10* ticks)
271: 0x090E [0x29] REQ_SET_WAIT(priority=0x10, entity_id=Bompupu (ID: 17645906/0x010D4152), tag_num=0x07)
272: 0x0915 [0x52] END_LOAD_SCHEDULER: End scheduler "800a" with entities [LocalPlayer, LocalPlayer], work=474*
273: 0x0924 [0x01] GOTO 0x0927

SUBROUTINE_0927:
274: 0x0927 [0x1B] RETURN

SUBROUTINE_096A:
275: 0x096A [0x45] LOAD_SCHEDULED_TASK: Load scheduler "fdi1" with entities [LocalPlayer, LocalPlayer], work=[200*, 0*]
276: 0x097B [0x55] WAIT_LOAD_SCHEDULER: Wait for scheduler "fdi1" with entities [LocalPlayer, LocalPlayer], work=200*
277: 0x098A [0x1B] RETURN

SUBROUTINE_098B:
278: 0x098B [0x45] LOAD_SCHEDULED_TASK: Load scheduler "fdo1" with entities [LocalPlayer, LocalPlayer], work=[200*, 0*]
279: 0x099C [0x55] WAIT_LOAD_SCHEDULER: Wait for scheduler "fdo1" with entities [LocalPlayer, LocalPlayer], work=200*
280: 0x09AB [0x1B] RETURN
```

#### Data or dead code:

```
# Dead code (unreachable instructions):
     0x04FE [0x02] IF !(0* == 1*) GOTO 0x050A
     0x0506 [0x48] [System] [7396*]:
    → "Hm? And you are...?"
     0x0509 [0x23] WAIT_FOR_DIALOG_INTERACTION
     0x050A [0x1B] RETURN
# Dead code (unreachable instructions):
     0x0928 [0x45] LOAD_SCHEDULED_TASK: Load scheduler "fdi0" with entities [LocalPlayer, LocalPlayer], work=[200*, 0*]
     0x0939 [0x55] WAIT_LOAD_SCHEDULER: Wait for scheduler "fdi0" with entities [LocalPlayer, LocalPlayer], work=200*
     0x0948 [0x1B] RETURN
     0x0949 [0x45] LOAD_SCHEDULED_TASK: Load scheduler "fdo0" with entities [LocalPlayer, LocalPlayer], work=[200*, 0*]
     0x095A [0x55] WAIT_LOAD_SCHEDULER: Wait for scheduler "fdo0" with entities [LocalPlayer, LocalPlayer], work=200*
     0x0969 [0x1B] RETURN
# Dead code (unreachable instructions):
     0x09AC [0x45] LOAD_SCHEDULED_TASK: Load scheduler "whi1" with entities [LocalPlayer, LocalPlayer], work=[201*, 0*]
     0x09BD [0x55] WAIT_LOAD_SCHEDULER: Wait for scheduler "whi1" with entities [LocalPlayer, LocalPlayer], work=201*
     0x09CC [0x1B] RETURN
     0x09CD [0x45] LOAD_SCHEDULED_TASK: Load scheduler "who1" with entities [LocalPlayer, LocalPlayer], work=[201*, 0*]
     0x09DE [0x55] WAIT_LOAD_SCHEDULER: Wait for scheduler "who1" with entities [LocalPlayer, LocalPlayer], work=201*
     0x09ED [0x1B] RETURN
     0x09EE [0x45] LOAD_SCHEDULED_TASK: Load scheduler "whi0" with entities [LocalPlayer, LocalPlayer], work=[201*, 0*]
     0x09FF [0x55] WAIT_LOAD_SCHEDULER: Wait for scheduler "whi0" with entities [LocalPlayer, LocalPlayer], work=201*
     0x0A0E [0x1B] RETURN
     0x0A0F [0x45] LOAD_SCHEDULED_TASK: Load scheduler "who0" with entities [LocalPlayer, LocalPlayer], work=[201*, 0*]
     0x0A20 [0x55] WAIT_LOAD_SCHEDULER: Wait for scheduler "who0" with entities [LocalPlayer, LocalPlayer], work=201*
     0x0A2F [0x1B] RETURN
     0x0A30 [0x45] LOAD_SCHEDULED_TASK: Load scheduler "efon" with entities [LocalPlayer, LocalPlayer], work=[215*, 0*]
     0x0A41 [0x55] WAIT_LOAD_SCHEDULER: Wait for scheduler "efon" with entities [LocalPlayer, LocalPlayer], work=215*
     0x0A50 [0x1B] RETURN
```
