# Event 43

## Metadata

| Field           | Value    |
|-----------------|----------|
| Event Index     | 101/101  |
| Offset          | 0x0DFA   |
| Data Size       | 48 bytes |
| Calculated Size | 48 bytes |
| Instructions    | 12       |

```
      00 01 02 03 04 05 06 07  08 09 0A 0B 0C 0D 0E 0F
      -- -- -- -- -- -- -- --  -- -- -- -- -- -- -- --
0DF0:                                42 1E F0 FF FF 7F            B.....
0E00: 6F 70 66 02 80 F8 FF FF  7F F8 FF FF 7F 75 74 6C  opf..........utl
0E10: 30 1D B1 80 23 1D B2 80  23 66 02 80 F8 FF FF 7F  0...#...#f......
0E20: F8 FF FF 7F 75 74 6C 31  21 00                    ....utl1!.      
```

## Opcodes

```
  0: 0x0DFA [0x42] SET_CLI_EVENT_CANCEL_DATA()
  1: 0x0DFB [0x1E] EventEntity looks at LocalPlayer and starts talking
  2: 0x0E00 [0x6F] WAIT_FRAME_DELAY: Yield until WaitTime reaches zero
  3: 0x0E01 [0x70] WAIT_ENTITY_RENDER_FLAG: Wait while EventEntity->Render.Flags3 bit 2 is set (cancel turn if not)
  4: 0x0E02 [0x66] LOAD_EXT_SCHEDULER_MAIN(work_offset=11*, entity1=EventEntity, entity2=EventEntity, action="utl0")
  5: 0x0E11 [0x1D] PRINT_EVENT_MESSAGE(message_id=8115*)
    → "A-ah, you're here on behalf of the Library? Then perhaps I can be of assistance!\u007F1\u0000\u0007"
  6: 0x0E14 [0x23] WAIT_FOR_DIALOG_INTERACTION
  7: 0x0E15 [0x1D] PRINT_EVENT_MESSAGE(message_id=8116*)
    → "Wh-what do you mean? All information on Haverton is one hundred percent accurate and up-to-date. The Scouts' Coalition is under our wing, after all!\u007F1\u0000\u0007"
  8: 0x0E18 [0x23] WAIT_FOR_DIALOG_INTERACTION
  9: 0x0E19 [0x66] LOAD_EXT_SCHEDULER_MAIN(work_offset=11*, entity1=EventEntity, entity2=EventEntity, action="utl1")
 10: 0x0E28 [0x21] END_EVENT
 11: 0x0E29 [0x00] END_REQSTACK()
```
