# Event 5038

## Metadata

| Field           | Value    |
|-----------------|----------|
| Event Index     | 100/101  |
| Offset          | 0x0DC5   |
| Data Size       | 53 bytes |
| Calculated Size | 53 bytes |
| Instructions    | 11       |

```
      00 01 02 03 04 05 06 07  08 09 0A 0B 0C 0D 0E 0F
      -- -- -- -- -- -- -- --  -- -- -- -- -- -- -- --
0DC0:                4A F0 FF  FF 7F F8 FF FF 7F 6F 70       J........op
0DD0: 66 03 80 F8 FF FF 7F F8  FF FF 7F 64 6B 30 30 1C  f..........dk00.
0DE0: 13 80 1D B0 80 23 66 03  80 F8 FF FF 7F F8 FF FF  .....#f.........
0DF0: 7F 64 6B 30 31 1C 13 80  21 00                    .dk01...!.      
```

## Opcodes

```
  0: 0x0DC5 [0x4A] LocalPlayer looks at EventEntity
  1: 0x0DCE [0x6F] WAIT_FRAME_DELAY: Yield until WaitTime reaches zero
  2: 0x0DCF [0x70] WAIT_ENTITY_RENDER_FLAG: Wait while EventEntity->Render.Flags3 bit 2 is set (cancel turn if not)
  3: 0x0DD0 [0x66] LOAD_EXT_SCHEDULER_MAIN: Load scheduler "dk00" with entities [EventEntity, EventEntity], work=12*
  4: 0x0DDF [0x1C] WAIT(90* ticks)
  5: 0x0DE2 [0x1D] PRINT_EVENT_MESSAGE(message_id=10423*)
    → "Oh, Maester Svenja, how I yearn to be swept up in your toned-yet-lithe arms and lose myself in your deep, calming gaze...\u007F1\u0000\u0007"
  6: 0x0DE5 [0x23] WAIT_FOR_DIALOG_INTERACTION
  7: 0x0DE6 [0x66] LOAD_EXT_SCHEDULER_MAIN: Load scheduler "dk01" with entities [EventEntity, EventEntity], work=12*
  8: 0x0DF5 [0x1C] WAIT(90* ticks)
  9: 0x0DF8 [0x21] END_EVENT
 10: 0x0DF9 [0x00] END_REQSTACK()
```
