# Event 5046

## Metadata

| Field           | Value    |
|-----------------|----------|
| Event Index     | 99/101   |
| Offset          | 0x0D8B   |
| Data Size       | 58 bytes |
| Calculated Size | 58 bytes |
| Instructions    | 12       |

```
      00 01 02 03 04 05 06 07  08 09 0A 0B 0C 0D 0E 0F
      -- -- -- -- -- -- -- --  -- -- -- -- -- -- -- --
0D80:                                   4A F0 FF FF 7F             J....
0D90: F8 FF FF 7F 1E F0 FF FF  7F 6F 70 66 02 80 F8 FF  .........opf....
0DA0: FF 7F F8 FF FF 7F 75 74  6C 30 1C 04 80 1D AF 80  ......utl0......
0DB0: 23 66 02 80 F8 FF FF 7F  F8 FF FF 7F 75 74 6C 31  #f..........utl1
0DC0: 1C 10 80 21 00                                    ...!.           
```

## Opcodes

```
  0: 0x0D8B [0x4A] LocalPlayer looks at EventEntity
  1: 0x0D94 [0x1E] EventEntity looks at LocalPlayer and starts talking
  2: 0x0D99 [0x6F] WAIT_FRAME_DELAY: Yield until WaitTime reaches zero
  3: 0x0D9A [0x70] WAIT_ENTITY_RENDER_FLAG: Wait while EventEntity->Render.Flags3 bit 2 is set (cancel turn if not)
  4: 0x0D9B [0x66] LOAD_EXT_SCHEDULER_MAIN: Load scheduler "utl0" with entities [EventEntity, EventEntity], work=11*
  5: 0x0DAA [0x1C] WAIT(60* ticks)
  6: 0x0DAD [0x1D] PRINT_EVENT_MESSAGE(message_id=10424*)
    → "Oh, th-the Scouts' Coalition...?\u0007S-since we're experts at stealth, we can do wh-whatever we want wh-wherever we want! In dark alleys, in other p-people's homes...bweheheh!\u007F1\u0000\u0007"
  7: 0x0DB0 [0x23] WAIT_FOR_DIALOG_INTERACTION
  8: 0x0DB1 [0x66] LOAD_EXT_SCHEDULER_MAIN: Load scheduler "utl1" with entities [EventEntity, EventEntity], work=11*
  9: 0x0DC0 [0x1C] WAIT(30* ticks)
 10: 0x0DC3 [0x21] END_EVENT
 11: 0x0DC4 [0x00] END_REQSTACK()
```
