# Event 5110

## Metadata

| Field           | Value    |
|-----------------|----------|
| Event Index     | 95/101   |
| Offset          | 0x08A5   |
| Data Size       | 67 bytes |
| Calculated Size | 67 bytes |
| Instructions    | 11       |

```
      00 01 02 03 04 05 06 07  08 09 0A 0B 0C 0D 0E 0F
      -- -- -- -- -- -- -- --  -- -- -- -- -- -- -- --
08A0:                4A F0 FF  FF 7F C8 10 10 01 6F 76       J........ov
08B0: F0 FF FF 7F 66 02 80 F8  FF FF 7F F8 FF FF 7F 61  ....f..........a
08C0: 69 67 30 53 F8 FF FF 7F  F8 FF FF 7F 61 69 67 30  ig0S........aig0
08D0: 1D 67 80 23 66 02 80 F8  FF FF 7F F8 FF FF 7F 61  .g.#f..........a
08E0: 69 67 31 1C 10 80 21 00                           ig1...!.        
```

## Opcodes

```
  0: 0x08A5 [0x4A] LocalPlayer looks at Palomel (ID: 17830088/0x011010C8)
  1: 0x08AE [0x6F] WAIT_FRAME_DELAY: Yield until WaitTime reaches zero
  2: 0x08AF [0x76] CHECK_ENTITY_RENDER_FLAGS: Wait until LocalPlayer Render.Flags0 and Render.Flags3 conditions are met
  3: 0x08B4 [0x66] LOAD_EXT_SCHEDULER_MAIN: Load scheduler "aig0" with entities [EventEntity, EventEntity], work=11*
  4: 0x08C3 [0x53] WAIT_SCHEDULER_TASK: Wait for scheduler "aig0" with entities [EventEntity, EventEntity]
  5: 0x08D0 [0x1D] PRINT_EVENT_MESSAGE(message_id=11045*)
    → "Huh? Where is that thing?\u0007I know I had it with me a minute ago.\u007F1\u0000\u0007"
  6: 0x08D3 [0x23] WAIT_FOR_DIALOG_INTERACTION
  7: 0x08D4 [0x66] LOAD_EXT_SCHEDULER_MAIN: Load scheduler "aig1" with entities [EventEntity, EventEntity], work=11*
  8: 0x08E3 [0x1C] WAIT(30* ticks)
  9: 0x08E6 [0x21] END_EVENT
 10: 0x08E7 [0x00] END_REQSTACK()
```
