# Event 5226

## Metadata

| Field           | Value    |
|-----------------|----------|
| Event Index     | 87/101   |
| Offset          | 0x07A5   |
| Data Size       | 35 bytes |
| Calculated Size | 35 bytes |
| Instructions    | 13       |

```
      00 01 02 03 04 05 06 07  08 09 0A 0B 0C 0D 0E 0F
      -- -- -- -- -- -- -- --  -- -- -- -- -- -- -- --
07A0:                1E F0 FF  FF 7F 6F 70 4A F0 FF FF       .....opJ...
07B0: 7F F8 FF FF 7F 6F 76 F0  FF FF 7F 1D 5C 80 23 1D  .....ov.....\.#.
07C0: 5D 80 1C 5A 80 23 21 00                           ]..Z.#!.        
```

## Opcodes

```
  0: 0x07A5 [0x1E] EventEntity looks at LocalPlayer and starts talking
  1: 0x07AA [0x6F] WAIT_FRAME_DELAY: Yield until WaitTime reaches zero
  2: 0x07AB [0x70] WAIT_ENTITY_RENDER_FLAG: Wait while EventEntity->Render.Flags3 bit 2 is set (cancel turn if not)
  3: 0x07AC [0x4A] LocalPlayer looks at EventEntity
  4: 0x07B5 [0x6F] WAIT_FRAME_DELAY: Yield until WaitTime reaches zero
  5: 0x07B6 [0x76] CHECK_ENTITY_RENDER_FLAGS: Wait until LocalPlayer Render.Flags0 and Render.Flags3 conditions are met
  6: 0x07BB [0x1D] PRINT_EVENT_MESSAGE(message_id=11617*)
    → "S-sorry for my earlier outburst. I should be more thankful.\u007F1\u0000\u0007"
  7: 0x07BE [0x23] WAIT_FOR_DIALOG_INTERACTION
  8: 0x07BF [0x1D] PRINT_EVENT_MESSAGE(message_id=11618*)
    → "I'll be fine--I promise.\u007F1\u0000\u0007"
  9: 0x07C2 [0x1C] WAIT(45* ticks)
 10: 0x07C5 [0x23] WAIT_FOR_DIALOG_INTERACTION
 11: 0x07C6 [0x21] END_EVENT
 12: 0x07C7 [0x00] END_REQSTACK()
```
