# Event 65535

## Metadata

| Field           | Value    |
|-----------------|----------|
| Event Index     | 58/101   |
| Offset          | 0x03FC   |
| Data Size       | 58 bytes |
| Calculated Size | 58 bytes |
| Instructions    | 10       |

```
      00 01 02 03 04 05 06 07  08 09 0A 0B 0C 0D 0E 0F
      -- -- -- -- -- -- -- --  -- -- -- -- -- -- -- --
03F0:                                      32 05 80 1F              2...
0400: 00 16 80 17 80 08 80 1F  01 1E C3 10 10 01 6F 70  ..............op
0410: 66 02 80 F8 FF FF 7F F8  FF FF 7F 6E 74 6C 30 4A  f..........ntl0J
0420: F0 FF FF 7F F8 FF FF 7F  53 F8 FF FF 7F F8 FF FF  ........S.......
0430: 7F 6E 74 6C 30 00                                 .ntl0.          
```

## Opcodes

```
  0: 0x03FC [0x32] ExtData[1]->MainSpeed = 40* * 0.1
  1: 0x03FF [0x1F] MOVE_ENTITY: EventEntity moves to X=-40.663*, Z=-24.471*, Y=-0.148*
  2: 0x0407 [0x1F] MOVE_ENTITY: Update entity position (mode=1)
  3: 0x0409 [0x1E] EventEntity looks at Roskin (ID: 17830083/0x011010C3) and starts talking
  4: 0x040E [0x6F] WAIT_FRAME_DELAY: Yield until WaitTime reaches zero
  5: 0x040F [0x70] WAIT_ENTITY_RENDER_FLAG: Wait while EventEntity->Render.Flags3 bit 2 is set (cancel turn if not)
  6: 0x0410 [0x66] LOAD_EXT_SCHEDULER_MAIN: Load scheduler "ntl0" with entities [EventEntity, EventEntity], work=11*
  7: 0x041F [0x4A] LocalPlayer looks at EventEntity
  8: 0x0428 [0x53] WAIT_SCHEDULER_TASK: Wait for scheduler "ntl0" with entities [EventEntity, EventEntity]
  9: 0x0435 [0x00] END_REQSTACK()
```
