# 17437000 - Switchstix

## Common Data

| Field            | Value                          |
|------------------|--------------------------------|
| Zone             | Castle Zvahl Baileys (ID: 161) |
| Block Size       | 4504 bytes                     |
| Total Events     | 79                             |
| References Count | 193                            |

## List of Events

| Event ID              | Entrypoint   |   Size |   Instructions |
|-----------------------|--------------|--------|----------------|
| [65535](#event-65535) | 0x0000       |      1 |              1 |
| [10](#event-10)       | 0x0001       |     53 |             13 |
| [11](#event-11)       | 0x0036       |    251 |             76 |
| [12](#event-12)       | 0x0131       |    188 |             55 |
| [13](#event-13)       | 0x01ED       |    159 |             48 |
| [14](#event-14)       | 0x028C       |    117 |             28 |
| [15](#event-15)       | 0x0301       |     26 |              6 |
| [16](#event-16)       | 0x031B       |     91 |             18 |
| [17](#event-17)       | 0x0376       |    102 |             27 |
| [18](#event-18)       | 0x03DC       |     30 |              8 |
| [19](#event-19)       | 0x03FA       |    133 |             27 |
| [50](#event-50)       | 0x047F       |    159 |             46 |
| [51](#event-51)       | 0x051E       |     54 |             15 |
| [52](#event-52)       | 0x0554       |    130 |             29 |
| [20](#event-20)       | 0x05D6       |      5 |              3 |
| [21](#event-21)       | 0x05DB       |      5 |              3 |
| [22](#event-22)       | 0x05E0       |      5 |              3 |
| [23](#event-23)       | 0x05E5       |      5 |              3 |
| [24](#event-24)       | 0x05EA       |      5 |              3 |
| [25](#event-25)       | 0x05EF       |      5 |              3 |
| [26](#event-26)       | 0x05F4       |      5 |              3 |
| [27](#event-27)       | 0x05F9       |      5 |              3 |
| [28](#event-28)       | 0x05FE       |      5 |              3 |
| [29](#event-29)       | 0x0603       |      5 |              3 |
| [30](#event-30)       | 0x0608       |      5 |              3 |
| [31](#event-31)       | 0x060D       |      5 |              3 |
| [32](#event-32)       | 0x0612       |      5 |              3 |
| [33](#event-33)       | 0x0617       |      5 |              3 |
| [34](#event-34)       | 0x061C       |      5 |              3 |
| [83](#event-83)       | 0x0621       |      5 |              3 |
| [35](#event-35)       | 0x0626       |      5 |              3 |
| [36](#event-36)       | 0x062B       |      5 |              3 |
| [37](#event-37)       | 0x0630       |      5 |              3 |
| [38](#event-38)       | 0x0635       |      5 |              3 |
| [39](#event-39)       | 0x063A       |      5 |              3 |
| [40](#event-40)       | 0x063F       |      5 |              3 |
| [41](#event-41)       | 0x0644       |      5 |              3 |
| [42](#event-42)       | 0x0649       |      5 |              3 |
| [43](#event-43)       | 0x064E       |      5 |              3 |
| [44](#event-44)       | 0x0653       |      5 |              3 |
| [45](#event-45)       | 0x0658       |      5 |              3 |
| [46](#event-46)       | 0x065D       |      5 |              3 |
| [47](#event-47)       | 0x0662       |      5 |              3 |
| [48](#event-48)       | 0x0667       |      5 |              3 |
| [49](#event-49)       | 0x066C       |      5 |              3 |
| [84](#event-84)       | 0x0671       |      5 |              3 |
| [53](#event-53)       | 0x0676       |      5 |              3 |
| [54](#event-54)       | 0x067B       |      5 |              3 |
| [55](#event-55)       | 0x0680       |      5 |              3 |
| [56](#event-56)       | 0x0685       |      5 |              3 |
| [57](#event-57)       | 0x068A       |      5 |              3 |
| [58](#event-58)       | 0x068F       |      5 |              3 |
| [59](#event-59)       | 0x0694       |      5 |              3 |
| [60](#event-60)       | 0x0699       |      5 |              3 |
| [61](#event-61)       | 0x069E       |      5 |              3 |
| [62](#event-62)       | 0x06A3       |      5 |              3 |
| [63](#event-63)       | 0x06A8       |      5 |              3 |
| [64](#event-64)       | 0x06AD       |      5 |              3 |
| [65](#event-65)       | 0x06B2       |      5 |              3 |
| [66](#event-66)       | 0x06B7       |      5 |              3 |
| [67](#event-67)       | 0x06BC       |      5 |              3 |
| [85](#event-85)       | 0x06C1       |      5 |              3 |
| [68](#event-68)       | 0x06C6       |     73 |             19 |
| [69](#event-69)       | 0x070F       |     73 |             19 |
| [70](#event-70)       | 0x0758       |     73 |             19 |
| [71](#event-71)       | 0x07A1       |     73 |             19 |
| [72](#event-72)       | 0x07EA       |     73 |             19 |
| [73](#event-73)       | 0x0833       |     73 |             19 |
| [74](#event-74)       | 0x087C       |     73 |             19 |
| [75](#event-75)       | 0x08C5       |     73 |             19 |
| [76](#event-76)       | 0x090E       |     73 |             19 |
| [77](#event-77)       | 0x0957       |     73 |             19 |
| [78](#event-78)       | 0x09A0       |     73 |             19 |
| [79](#event-79)       | 0x09E9       |     81 |             21 |
| [80](#event-80)       | 0x0A3A       |     73 |             19 |
| [81](#event-81)       | 0x0A83       |     73 |             19 |
| [82](#event-82)       | 0x0ACC       |     73 |             19 |
| [86](#event-86)       | 0x0B15       |    117 |             31 |
| [87](#event-87)       | 0x0B8A       |    446 |             93 |

## DAT References (imed_data)

|   Index | Hex Value   |   Dec Value |
|---------|-------------|-------------|
|       0 | 0x00D7      |         215 |
|       1 | 0x1CAB      |        7339 |
|       2 | 0x1CAC      |        7340 |
|       3 | 0x1CAD      |        7341 |
|       4 | 0x1D5B      |        7515 |
|       5 | 0x0002      |           2 |
|       6 | 0x1CBD      |        7357 |
|       7 | 0x1CBE      |        7358 |
|       8 | 0x1CBF      |        7359 |
|       9 | 0x0003      |           3 |
|      10 | 0x1CFF      |        7423 |
|      11 | 0x1D00      |        7424 |
|      12 | 0x1D01      |        7425 |
|      13 | 0x0004      |           4 |
|      14 | 0x1CB2      |        7346 |
|      15 | 0x0001      |           1 |
|      16 | 0x1D5E      |        7518 |
|      17 | 0x1D5F      |        7519 |
|      18 | 0x0005      |           5 |
|      19 | 0x1D67      |        7527 |
|      20 | 0x1D68      |        7528 |
|      21 | 0x0006      |           6 |
|      22 | 0x1D72      |        7538 |
|      23 | 0x1D73      |        7539 |
|      24 | 0x1CB3      |        7347 |
|      25 | 0x1CC0      |        7360 |
|      26 | 0x1CC1      |        7361 |
|      27 | 0x1D02      |        7426 |
|      28 | 0x1D60      |        7520 |
|      29 | 0x1D61      |        7521 |
|      30 | 0x1D69      |        7529 |
|      31 | 0x1D74      |        7540 |
|      32 | 0x1CB4      |        7348 |
|      33 | 0x1CC2      |        7362 |
|      34 | 0x1D03      |        7427 |
|      35 | 0x1D62      |        7522 |
|      36 | 0x1D63      |        7523 |
|      37 | 0x1CB6      |        7350 |
|      38 | 0x1D6A      |        7530 |
|      39 | 0x3ADC      |       15068 |
|      40 | 0x1D75      |        7541 |
|      41 | 0x1CB5      |        7349 |
|      42 | 0x1D5C      |        7516 |
|      43 | 0x1D5D      |        7517 |
|      44 | 0x1CAE      |        7342 |
|      45 | 0x1CAF      |        7343 |
|      46 | 0x1CB0      |        7344 |
|      47 | 0x1CB1      |        7345 |
|      48 | 0x1CB7      |        7351 |
|      49 | 0x1D64      |        7524 |
|      50 | 0x1CB8      |        7352 |
|      51 | 0x0000      |           0 |
|      52 | 0x1D65      |        7525 |
|      53 | 0x1D66      |        7526 |
|      54 | 0x1CB9      |        7353 |
|      55 | 0x1CBA      |        7354 |
|      56 | 0x1CBB      |        7355 |
|      57 | 0x1CBC      |        7356 |
|      58 | 0x1CC3      |        7363 |
|      59 | 0x1CC4      |        7364 |
|      60 | 0x1D6B      |        7531 |
|      61 | 0x1CC5      |        7365 |
|      62 | 0x002D      |          45 |
|      63 | 0x1D6C      |        7532 |
|      64 | 0x1CC6      |        7366 |
|      65 | 0x1CF6      |        7414 |
|      66 | 0x1D6D      |        7533 |
|      67 | 0x1CF7      |        7415 |
|      68 | 0x1CF8      |        7416 |
|      69 | 0x1CF9      |        7417 |
|      70 | 0x1D6E      |        7534 |
|      71 | 0x1D6F      |        7535 |
|      72 | 0x1D70      |        7536 |
|      73 | 0x1CFA      |        7418 |
|      74 | 0x1CFB      |        7419 |
|      75 | 0x1CFC      |        7420 |
|      76 | 0x001E      |          30 |
|      77 | 0x1CFD      |        7421 |
|      78 | 0x1D71      |        7537 |
|      79 | 0x1CFE      |        7422 |
|      80 | 0x1D76      |        7542 |
|      81 | 0x1D77      |        7543 |
|      82 | 0x1D04      |        7428 |
|      83 | 0x1D05      |        7429 |
|      84 | 0x1D78      |        7544 |
|      85 | 0x1D06      |        7430 |
|      86 | 0x1D59      |        7513 |
|      87 | 0x1D79      |        7545 |
|      88 | 0x1D07      |        7431 |
|      89 | 0x1D0D      |        7437 |
|      90 | 0x1D0E      |        7438 |
|      91 | 0x1D0F      |        7439 |
|      92 | 0x1D10      |        7440 |
|      93 | 0x1D11      |        7441 |
|      94 | 0x1D12      |        7442 |
|      95 | 0x1D13      |        7443 |
|      96 | 0x1D14      |        7444 |
|      97 | 0x1D15      |        7445 |
|      98 | 0x1D16      |        7446 |
|      99 | 0x1D17      |        7447 |
|     100 | 0x1D18      |        7448 |
|     101 | 0x1D19      |        7449 |
|     102 | 0x1D1A      |        7450 |
|     103 | 0x1D1B      |        7451 |
|     104 | 0x1D1C      |        7452 |
|     105 | 0x1D1D      |        7453 |
|     106 | 0x1D1E      |        7454 |
|     107 | 0x1D1F      |        7455 |
|     108 | 0x1D20      |        7456 |
|     109 | 0x1D21      |        7457 |
|     110 | 0x1D22      |        7458 |
|     111 | 0x1D23      |        7459 |
|     112 | 0x1D24      |        7460 |
|     113 | 0x1D25      |        7461 |
|     114 | 0x1D26      |        7462 |
|     115 | 0x1D27      |        7463 |
|     116 | 0x1D28      |        7464 |
|     117 | 0x1D29      |        7465 |
|     118 | 0x1D2A      |        7466 |
|     119 | 0x1D2B      |        7467 |
|     120 | 0x1D2C      |        7468 |
|     121 | 0x1D2D      |        7469 |
|     122 | 0x1D2E      |        7470 |
|     123 | 0x1D2F      |        7471 |
|     124 | 0x1D30      |        7472 |
|     125 | 0x1D31      |        7473 |
|     126 | 0x1D32      |        7474 |
|     127 | 0x1D33      |        7475 |
|     128 | 0x1D34      |        7476 |
|     129 | 0x1D35      |        7477 |
|     130 | 0x1D36      |        7478 |
|     131 | 0x1D37      |        7479 |
|     132 | 0x1D38      |        7480 |
|     133 | 0x1D39      |        7481 |
|     134 | 0x1D3A      |        7482 |
|     135 | 0x1D3B      |        7483 |
|     136 | 0x1D3C      |        7484 |
|     137 | 0x1D3D      |        7485 |
|     138 | 0x1D3E      |        7486 |
|     139 | 0x1D3F      |        7487 |
|     140 | 0x1D40      |        7488 |
|     141 | 0x1D41      |        7489 |
|     142 | 0x1D42      |        7490 |
|     143 | 0x1D43      |        7491 |
|     144 | 0x1D44      |        7492 |
|     145 | 0x1D45      |        7493 |
|     146 | 0x1D46      |        7494 |
|     147 | 0x1D47      |        7495 |
|     148 | 0x1D48      |        7496 |
|     149 | 0x1D49      |        7497 |
|     150 | 0x1D4A      |        7498 |
|     151 | 0x1D4B      |        7499 |
|     152 | 0x1D4C      |        7500 |
|     153 | 0x1D4D      |        7501 |
|     154 | 0x1D4E      |        7502 |
|     155 | 0x1D4F      |        7503 |
|     156 | 0x1D50      |        7504 |
|     157 | 0x1D51      |        7505 |
|     158 | 0x1D52      |        7506 |
|     159 | 0x1D53      |        7507 |
|     160 | 0x1D54      |        7508 |
|     161 | 0x1D55      |        7509 |
|     162 | 0x1D56      |        7510 |
|     163 | 0x1D57      |        7511 |
|     164 | 0x1D58      |        7512 |
|     165 | 0x1D7B      |        7547 |
|     166 | 0x1D7C      |        7548 |
|     167 | 0x1D7D      |        7549 |
|     168 | 0x1D7E      |        7550 |
|     169 | 0x1D7F      |        7551 |
|     170 | 0x1D80      |        7552 |
|     171 | 0x1D09      |        7433 |
|     172 | 0x1D0A      |        7434 |
|     173 | 0x1D7A      |        7546 |
|     174 | 0x1D0C      |        7436 |
|     175 | 0x1D81      |        7553 |
|     176 | 0x1D82      |        7554 |
|     177 | 0x1D83      |        7555 |
|     178 | 0x00D8      |         216 |
|     179 | 0x1D84      |        7556 |
|     180 | 0x1D85      |        7557 |
|     181 | 0x1D86      |        7558 |
|     182 | 0x1D87      |        7559 |
|     183 | 0x1D88      |        7560 |
|     184 | 0x029A      |         666 |
|     185 | 0x1D89      |        7561 |
|     186 | 0x1D8A      |        7562 |
|     187 | 0x1CC8      |        7368 |
|     188 | 0x1CC9      |        7369 |
|     189 | 0x1CCA      |        7370 |
|     190 | 0x1CCB      |        7371 |
|     191 | 0x1D08      |        7432 |
|     192 | 0x1D0B      |        7435 |

## String References

- **7339**: You got guts to come to this neck of the woods. I can see you ain't no ordinary adventurer, but you ain't the best yet, neither. Don't get your feathers ruffled, I just tell it like it is.
- **7340**: Me, I'm a blacksmith, and a damn good one. My Goblin forgecraft can make the most worthless rusty piece of junk shine like new again. Looks like you take good care of your weapons, though.
- **7341**: You got nothing for me to work on, so this conversation is over. I got better things to do than sit here and waste time trading insults with smart-alecky adventurers. Bye-bye now.
- **7342**: Hold it right there, pal! Is that $0 you're carrying? The power hidden behind that worn appearance is making my old Gobbie ears twitch. Trust me, I'm a blacksmith. I don't kid around when it comes to weapons.
- **7343**: Hrmmm. It'd take a lotta work, but I could make that power shine through again. Okay, [adventure-boy/adventure-girl], you got something to write with?
- **7344**: To reforge the $0, I'm gonna need $1, $2, and $3. Yep, that's the bare minimum.
- **7345**: Bring along the $0 with those three items and I'll get to work for you. I've told you what I need, the rest is up to you.
- **7346**: You got me what I need? Lemme see here, $1, $2, and $3. Good work. Did I mention that I don't work for free? I'm gonna need a little something up front--don't trust you sneaky adventurer-types.
- **7347**: Oh, and I got no interest in gil. My fee for this job is $5 $0$4 . You people pay each other for stuff all the time, right? Well, this ain't no different. You pay my fee, your weapon gets fixed up.
- **7348**: Reforging the $0 is gonna cost you $2 $0$0 . You pay me and I start working. See you when you get back with my fee.
- **7349**: You brought me my $2 $0$0 ? Right, time to get to work. My forge is hot and ready to go.
- **7350**: The Goblin way of smithing is a little different from your fancy-schmancy "synthesis." I'm gonna need some time to get this job done. You kept me waiting for the materials I needed, now it's your turn to cool your heels for a while. Fair's fair, right?
- **7351**: You back already? I told you this was gonna take some time. You adventurer-types have really gotta learn some patience. Let me get back to work, will ya? Sheesh.
- **7352**: You can stop your bellyachin' now--I'm done with your $0. So what do you think? You ain't gonna see too many weapons of this quality, I can tell you. Be seeing you, [adventure-boy/adventure-girl].
- **7353**: Oh yeah, one more thing: the $0 I worked on can still be improved. I can make that power shine even brighter than before. Do I have your full attention, now? Naturally, it's gonna cost you.
- **7354**: The weapons you people use are really popular among the beastmen these days. I could make myself a small fortune with just a few of them.
- **7355**: The top sellers at the moment are $1, $2, and $3. There are others I could think of, but those three bring in the most cash. Don't forget to bring the $0 back with you, too.
- **7356**: Those three items cover the cost of materials for reforging the $0, but I'm still gonna ask you for a separate fee for my sweat and toil. To forge, or not to forge? The answer is in your hands.
- **7357**: Oho, you brought me what I asked for? $1, $2, and $3. My pockets are gonna be bulging when I unload this stuff, heh heh.
- **7358**: Now about that fee. As a craftsgoblin, it's embarrassin' to admit, but I don't think I can reforge the $0 for you. There's a blacksmith I know who can do the job, though. Damn expensive, but the best blacksmith I ever saw.
- **7359**: The fee, including my cut for the referral, comes out to $5 $0$4 . It's gonna be a fun time getting your grubby little adventurer hands on the loot, but the result will be worth it.
- **7360**: I don't have the skill to reforge the $0 you gave me, so I'm gonna take it to a blacksmith friend of mine. It'll be expensive, but the work is topnotch.
- **7361**: The fee, including my cut for the referral, comes out to $2 $0$0 . It's gonna be a fun time getting your grubby little adventurer hands on the loot, but the result will be worth it.
- **7362**: It's tough even for us Gobs to collect $1, and you've brought me $2 of them. Not bad for a clueless adventurer-type. Leave the $0 with me and the job will get done.
- **7363**: You really are impatient, ain't you! This is gonna take a hell of a lot longer than last time--that's how amazing the outcome is gonna be. Better find something else to occupy yourself with for a while.
- **7364**: This is gonna take so long, you'll forget you even asked me to do it in the first place. A really, really, really long time. Really long. But don't worry, I'm a true craftsgoblin, I won't go back on a deal. Just don't forget to come back, huh?
- **7365**: And here you go, the finished masterpiece. Really, really, really sorry to keep you waiting so long. Really sorry. But take a look. Feel this radiating power. I bet you're glad you didn't forget to come back, huh?
- **7366**: This reforging stuff just warms my old Gobbie heart. You find any more old weapons, be sure to bring them to me. You never know, they might have the same potential for enhancement you see here. See you around, [adventure-boy/adventure-girl].
- **7368**: Hold on, [adventure-boy/adventure-girl]. I remember you... That $0 you've got there. Didn't I already reforge one for you?
- **7369**: Don't tell me you want another... [I do!/No. Just forget it.]
- **7370**: Hmmm... Hmmm...... You know you can only carry one of those things, right?
- **7371**: Let me get this straight. You want another, even though you know you can only carry one... And you people say us Gobbies are weird. Well, you know the routine. Bring me back the items and I'll start forging.
- **7414**: Hey, you're the [guy/gal] with the $0, right? I got some good news for you.
- **7415**: Got a letter here from my blacksmith buddy, the guy who forged your $0. Wanted me to lay a proposition on you.
- **7416**: For years now, him and his mates have been digging tunnels right under this place we're standin' on. Even among us Goblins, they're considered a strange crew.
- **7417**: They're lookin' for a certain object that was buried here thousands of millions of years ago, or something like that. But don't worry your little head over whatever that may be.
- **7418**: Anywho, after poking around deep under the earth for so long, they've come across a few strange weapons used by Gob-knows-who, Gob-knows-when.
- **7419**: Now, this is the good part. The weapons those guys found happen to have the same sorta aura as the $0 you're toting around. Pretty intriguing stuff, wouldn't you say?
- **7420**: My buddy mentioned in his letter that he'd be willing to trade his discovery for your $0, as long as you throw $1 into the bargain.
- **7421**: Wait a sec...$1? Can't say I've ever heard of it myself. No description in the letter about it neither.
- **7422**: Hrmmm. Guess if you want to swap your $0 for what they dug up, you better start looking for $1. Okay, I've done my bit and told you what you gotta do. It's adventure-time again.
- **7423**: So this is $1? Huh. I been all over the place and seen lotsa bizzaro stuff, but this is the first time I've seen something like this. You sure you're not a Gob?
- **7424**: Righto, I'll take this stuff off your hands and we can get down to my favorite subject: extra fees. This one's really gonna cost you. Cha-ching! That'll be $5 $0$4 , please!
- **7425**: Collecting this sum is gonna be tough. Incredibly, unbelievably, ridiculously difficult. But I got faith in you, [adventure-boy/adventure-girl]!
- **7426**: Your fee this time around is $2 $0$0 .
- **7427**: My buddies are gonna hear about this--$2 $0$0 ! You shoulda been born a Gob! You can leave the $0 with me.
- **7428**: You ain't learned any patience on your travels, have you? And no, I'm not gonna tell some blabbermouth adventurer where my buddy hangs out. Look, I didn't cheat you last time, did I? Give a Gob a break and stop bothering me every five seconds!
- **7429**: Oh, and you should be happy. There's no reforging to do, so this won't take nearly half as long as last time. Don't get so involved in your little adventures that you forget all about it, though.
- **7430**: Good timing, your package has arrived. Definitely looks a lot like what you had in the first place... Hmmm. You're probably thinking this isn't worth the loot you had to part with, huh?
- **7431**: Cheer up, [adventure-boy/adventure-girl]. And don't forget to keep bringing me those ancient weapons. Who knows? They might be hiding some secret power that only a blacksmith like me can draw out. Here's what you came for.
- **7432**: You hear a voice from somewhere...
- **7433**: The voice has gone silent...
- **7434**: What's up, [adventure-boy/adventure-girl]? You get my attention, then you don't say anything. Are you feeling okay? You're acting kinda weird. I'm a blacksmith, not a doctor, you know.
- **7435**: Whachya got there? $4? I told you to bring me any old weapons you find, but try to make sure they're in one piece, huh?
- **7436**: Doesn't matter how great a blacksmith I am, there's not much I can do with just $4. Sometimes knowing when to give up takes more guts, as my old Gobbie granddaddy used to say.
- **7513**: Good timing, your package has arrived. The letter mentioned something about the weapons being really similar, but I can see a few differences myself. Hmmm. You're probably thinking this isn't worth the loot you had to part with, huh?
- **7515**: Did I mention I fix up armor and shields as well? You wanna impress your friends with an old relic that shines like new, you know who to ask!
- **7516**: Wait up, [adventurer-boy/adventurer-girl]! My Gobbie blacksmith instincts are telling me that your $0 is hiding some real potential.
- **7517**: Hrmmm. Hrmmm. It'll take a lotta work to put it back in shape, but this is the kinda thing I live for. Right, get your notebook ready.
- **7518**: I don't work for that gil you adventurer-types love to hoard. What I'm gonna need is $2 $0$0 . Better throw in $4 $0$3 . Oh, and don't forget $6 $0$5 .
- **7519**: That's my fee. You gotta problem with fair trade? You pay me, I fix up your stuff.
- **7520**: My fee for reforging your $0 is $2 $0$0 , $4 $0$3 , and $6 $0$5 .
- **7521**: You pay me and I start working. See you when you get back with my fee.
- **7522**: You got what I asked for? I count $2 $0$0 , $4 $0$3 , and $6 $0$5 . Looks like it's all here.
- **7523**: Right, time to get to work. My forge is hot and ready to go.
- **7524**: You can stop your bellyachin' now--I'm done with your $0. So what do you think? You ain't gonna see too many pieces of this quality, I can tell you. Be seeing you, [adventure-boy/adventure-girl].
- **7525**: Oh yeah, one more thing: the $0 I worked on can still be improved. I can make that power shine even brighter than before. Do I have your full attention, now? Naturally, it's gonna cost you.
- **7526**: The armor and shields you people use are really popular among the beastmen these days. I could make myself a small fortune with just a few pieces.
- **7527**: The fee, including my cut for the referral, comes out to $2 $0$0 . Plus $4 $0$3 . Oh, and while we're at it, $6 $0$5 .
- **7528**: It's gonna be a fun time getting your grubby little adventurer hands on the loot, but the result will be worth it.
- **7529**: The fee, including my cut for the referral, comes out to $2 $0$0 . Plus $4 $0$3 . Oh, and $6 $0$5 .
- **7530**: It's tough even for us Gobs to get our hands on this old currency. Not bad for a clueless adventurer-type. Leave the $0 with me and the job will get done.
- **7531**: And here you go, the finished masterpiece. Really, really, really sorry to keep you waiting so long. Really sorry. But take a look. Feel this radiating power. I bet you're glad you didn't forget to come back, huh?
- **7532**: This reforging stuff just warms my old Gobbie heart. You find any more old armor or shields, be sure to bring them to me. You never know, they might have the same potential for enhancement you see here. See you around, [adventure-boy/adventure-girl].
- **7533**: Got a letter here from my blacksmith buddy, the guy who forged your $0. Wanted me to lay a proposition on you.
- **7534**: Anywho, after poking around deep under the earth for so long, they've come across a few strange bits of armor used by Gob-knows-who, Gob-knows-when.
- **7535**: Now, this is the good part. The armor and shields those guys found happen to have the same sorta aura as the $0 you're toting around. Pretty intriguing stuff, wouldn't you say?
- **7536**: My buddy mentioned in his letter that he'd be willing to trade his own discovery for your $0, as long as you throw $1 into the bargain.
- **7537**: Hrmmm. Guess if you want to swap your $0 for what they dug up, you better start looking for $1. Okay, I've done my bit and told you what you gotta do. It's adventure-time again.
- **7538**: Righto, I'll take this stuff off your hands and we can get down to my favorite subject: extra fees. This one's really gonna cost you.
- **7539**: I'm gonna hit you up for $2 $0$0 , $4 $0$3 , and $6 $0$5 .
- **7540**: Your fee this time around is $2 $0$0 , $4 $0$3 , and $6 $0$5 .
- **7541**: My buddies are gonna hear about this. Look at all this loot! You shoulda been born a Gob! You can leave the $0 with me.
- **7542**: You ain't learned any patience on your travels, have you? And no, I'm not gonna tell some blabbermouth adventurer where my buddy hangs out. Look, I didn't cheat you last time, did I? Give a Gob a break and stop bothering me every five seconds!
- **7543**: Oh, and you should be happy. There's no reforging to do, so this won't take nearly half as long as last time. Don't get so involved in your little adventures that you forget all about it, though.
- **7544**: Good timing, your package has arrived. Definitely looks a lot like what you had in the first place... Hmmm. You're probably thinking this isn't worth the loot you had to part with, huh?
- **7545**: Cheer up, [adventure-boy/adventure-girl]. And don't forget to keep bringing me those ancient pieces of armor. Who knows? They might be hiding some secret power that only a blacksmith like me can draw out. Here's what you came for.
- **7546**: Whachya got there? $4? I told you to bring me any old armor or shields you find, but try to make sure they're in one piece, huh?
- **7553**: You pay the fee--we got a deal. I'll be here waiting for you, trying to keep my Gobbie toes warm.
- **7554**: What's that, [adventure-boy/adventure-girl]? You wanna cancel the order? Have you lost your little adventurer mind!?
- **7555**: I keeps what I takes, and you loses what you gives, you get it? No refunds, ifs, ands, or buts.
- **7556**: Do you really wanna cancel the reforging order?
- **7557**: Cancel the order? [Yes, I've made up my mind./Gob, no!]
- **7558**: Are you really sure? I make out like a Gob in a junkyard, and you lose everything.
- **7559**: Are you really, really, really sure?
- **7560**: Are you really sure? [Really!/Not really...]
- **7561**: Well, alrighty then... Consider your order canceled. Null and void! Never happened!
- **7562**: Just a piece of advice for you, [adventure-boy/adventure-girl]: next time you better be Gob-darn sure you know what you want. Come on back now, y'hear?

## Events

### Event 65535

#### Metadata

| Field        | Value   |
|--------------|---------|
| Entrypoint   | 0x0000  |
| Data Size    | 1 bytes |
| Instructions | 1       |

```
      00 01 02 03 04 05 06 07  08 09 0A 0B 0C 0D 0E 0F
      -- -- -- -- -- -- -- --  -- -- -- -- -- -- -- --
0000: 00                                                .               
```

#### Opcodes

```
  0: 0x0000 [0x00] END_REQSTACK()
```

### Event 10

#### Metadata

| Field        | Value    |
|--------------|----------|
| Entrypoint   | 0x0001   |
| Data Size    | 53 bytes |
| Instructions | 13       |

```
      00 01 02 03 04 05 06 07  08 09 0A 0B 0C 0D 0E 0F
      -- -- -- -- -- -- -- --  -- -- -- -- -- -- -- --
0000:    1E F0 FF FF 7F 5B 00  80 48 11 0A 01 48 11 0A   .....[..H...H..
0010: 01 74 6C 6B 30 1D 01 80  23 1D 02 80 23 1D 03 80  .tlk0...#...#...
0020: 23 5B 00 80 48 11 0A 01  48 11 0A 01 74 6C 6B 31  #[..H...H...tlk1
0030: 1D 04 80 23 21 00                                 ...#!.          
```

#### Opcodes

```
  0: 0x0001 [0x1E] EventEntity looks at LocalPlayer and starts talking
  1: 0x0006 [0x5B] LOAD_EXT_SCHEDULER: Load scheduler "tlk0" with entities [Switchstix (ID: 17437000/0x010A1148), Switchstix (ID: 17437000/0x010A1148)], work=215*
  2: 0x0015 [0x1D] PRINT_EVENT_MESSAGE(message_id=7339*)
    → "You got guts to come to this neck of the woods. I can see you ain't no ordinary adventurer, but you ain't the best yet, neither. Don't get your feathers ruffled, I just tell it like it is."
  3: 0x0018 [0x23] WAIT_FOR_DIALOG_INTERACTION
  4: 0x0019 [0x1D] PRINT_EVENT_MESSAGE(message_id=7340*)
    → "Me, I'm a blacksmith, and a damn good one. My Goblin forgecraft can make the most worthless rusty piece of junk shine like new again. Looks like you take good care of your weapons, though."
  5: 0x001C [0x23] WAIT_FOR_DIALOG_INTERACTION
  6: 0x001D [0x1D] PRINT_EVENT_MESSAGE(message_id=7341*)
    → "You got nothing for me to work on, so this conversation is over. I got better things to do than sit here and waste time trading insults with smart-alecky adventurers. Bye-bye now."
  7: 0x0020 [0x23] WAIT_FOR_DIALOG_INTERACTION
  8: 0x0021 [0x5B] LOAD_EXT_SCHEDULER: Load scheduler "tlk1" with entities [Switchstix (ID: 17437000/0x010A1148), Switchstix (ID: 17437000/0x010A1148)], work=215*
  9: 0x0030 [0x1D] PRINT_EVENT_MESSAGE(message_id=7515*)
    → "Did I mention I fix up armor and shields as well? You wanna impress your friends with an old relic that shines like new, you know who to ask!"
 10: 0x0033 [0x23] WAIT_FOR_DIALOG_INTERACTION
 11: 0x0034 [0x21] END_EVENT
 12: 0x0035 [0x00] END_REQSTACK()
```

### Event 11

#### Metadata

| Field        | Value     |
|--------------|-----------|
| Entrypoint   | 0x0036    |
| Data Size    | 251 bytes |
| Instructions | 76        |

```
      00 01 02 03 04 05 06 07  08 09 0A 0B 0C 0D 0E 0F
      -- -- -- -- -- -- -- --  -- -- -- -- -- -- -- --
0030:                   42 03  02 00 02 10 03 03 00 03        B.........
0040: 10 03 04 00 04 10 03 05  00 05 10 03 00 00 06 10  ................
0050: 03 01 00 07 10 03 06 00  09 10 03 02 10 02 00 03  ................
0060: 03 10 03 00 03 04 10 04  00 03 05 10 05 00 03 06  ................
0070: 10 00 00 03 07 10 01 00  03 09 10 06 00 1E F0 FF  ................
0080: FF 7F 5B 00 80 48 11 0A  01 48 11 0A 01 74 6C 6B  ..[..H...H...tlk
0090: 30 02 06 00 05 80 80 A8  00 1D 06 80 23 1D 07 80  0...........#...
00A0: 23 1D 08 80 23 01 2F 01  02 06 00 09 80 80 BF 00  #...#./.........
00B0: 1D 0A 80 23 1D 0B 80 23  1D 0C 80 23 01 2F 01 02  ...#...#...#./..
00C0: 06 00 0D 80 80 DF 00 1D  0E 80 23 03 01 10 0F 80  ..........#.....
00D0: 43 00 43 01 1D 10 80 23  1D 11 80 23 01 2F 01 02  C.C....#...#./..
00E0: 06 00 12 80 80 03 01 1D  06 80 23 1D 07 80 23 03  ..........#...#.
00F0: 01 10 05 80 43 00 43 01  1D 13 80 23 1D 14 80 23  ....C.C....#...#
0100: 01 2F 01 02 06 00 15 80  80 27 01 1D 0A 80 23 1D  ./.......'....#.
0110: 16 80 23 03 01 10 09 80  43 00 43 01 1D 17 80 23  ..#.....C.C....#
0120: 1D 0C 80 23 01 2F 01 1D  0E 80 23 1D 18 80 23 21  ...#./....#...#!
0130: 00                                                .               
```

#### Opcodes

```
  0: 0x0036 [0x42] SET_CLI_EVENT_CANCEL_DATA()
  1: 0x0037 [0x03] ExtData[1]->WorkLocal[2] = Work_Zone[2]
  2: 0x003C [0x03] ExtData[1]->WorkLocal[3] = Work_Zone[3]
  3: 0x0041 [0x03] ExtData[1]->WorkLocal[4] = Work_Zone[4]
  4: 0x0046 [0x03] ExtData[1]->WorkLocal[5] = Work_Zone[5]
  5: 0x004B [0x03] ExtData[1]->WorkLocal[0] = Work_Zone[6]
  6: 0x0050 [0x03] ExtData[1]->WorkLocal[1] = Work_Zone[7]
  7: 0x0055 [0x03] ExtData[1]->WorkLocal[6] = Work_Zone[9]
  8: 0x005A [0x03] Work_Zone[2] = ExtData[1]->WorkLocal[2]
  9: 0x005F [0x03] Work_Zone[3] = ExtData[1]->WorkLocal[3]
 10: 0x0064 [0x03] Work_Zone[4] = ExtData[1]->WorkLocal[4]
 11: 0x0069 [0x03] Work_Zone[5] = ExtData[1]->WorkLocal[5]
 12: 0x006E [0x03] Work_Zone[6] = ExtData[1]->WorkLocal[0]
 13: 0x0073 [0x03] Work_Zone[7] = ExtData[1]->WorkLocal[1]
 14: 0x0078 [0x03] Work_Zone[9] = ExtData[1]->WorkLocal[6]
 15: 0x007D [0x1E] EventEntity looks at LocalPlayer and starts talking
 16: 0x0082 [0x5B] LOAD_EXT_SCHEDULER: Load scheduler "tlk0" with entities [Switchstix (ID: 17437000/0x010A1148), Switchstix (ID: 17437000/0x010A1148)], work=215*
 17: 0x0091 [0x02] IF !(ExtData[1]->WorkLocal[6] == 2*) GOTO 0x00A8
 18: 0x0099 [0x1D] PRINT_EVENT_MESSAGE(message_id=7357*)
    → "Oho, you brought me what I asked for? $1, $2, and $3. My pockets are gonna be bulging when I unload this stuff, heh heh."
 19: 0x009C [0x23] WAIT_FOR_DIALOG_INTERACTION
 20: 0x009D [0x1D] PRINT_EVENT_MESSAGE(message_id=7358*)
    → "Now about that fee. As a craftsgoblin, it's embarrassin' to admit, but I don't think I can reforge the $0 for you. There's a blacksmith I know who can do the job, though. Damn expensive, but the best blacksmith I ever saw."
 21: 0x00A0 [0x23] WAIT_FOR_DIALOG_INTERACTION
 22: 0x00A1 [0x1D] PRINT_EVENT_MESSAGE(message_id=7359*)
    → "The fee, including my cut for the referral, comes out to $5 $0$4 . It's gonna be a fun time getting your grubby little adventurer hands on the loot, but the result will be worth it."
 23: 0x00A4 [0x23] WAIT_FOR_DIALOG_INTERACTION
 24: 0x00A5 [0x01] GOTO 0x012F
 25: 0x00A8 [0x02] IF !(ExtData[1]->WorkLocal[6] == 3*) GOTO 0x00BF
 26: 0x00B0 [0x1D] PRINT_EVENT_MESSAGE(message_id=7423*)
    → "So this is $1? Huh. I been all over the place and seen lotsa bizzaro stuff, but this is the first time I've seen something like this. You sure you're not a Gob?"
 27: 0x00B3 [0x23] WAIT_FOR_DIALOG_INTERACTION
 28: 0x00B4 [0x1D] PRINT_EVENT_MESSAGE(message_id=7424*)
    → "Righto, I'll take this stuff off your hands and we can get down to my favorite subject: extra fees. This one's really gonna cost you. Cha-ching! That'll be $5 $0$4 , please!"
 29: 0x00B7 [0x23] WAIT_FOR_DIALOG_INTERACTION
 30: 0x00B8 [0x1D] PRINT_EVENT_MESSAGE(message_id=7425*)
    → "Collecting this sum is gonna be tough. Incredibly, unbelievably, ridiculously difficult. But I got faith in you, [adventure-boy/adventure-girl]!"
 31: 0x00BB [0x23] WAIT_FOR_DIALOG_INTERACTION
 32: 0x00BC [0x01] GOTO 0x012F
 33: 0x00BF [0x02] IF !(ExtData[1]->WorkLocal[6] == 4*) GOTO 0x00DF
 34: 0x00C7 [0x1D] PRINT_EVENT_MESSAGE(message_id=7346*)
    → "You got me what I need? Lemme see here, $1, $2, and $3. Good work. Did I mention that I don't work for free? I'm gonna need a little something up front--don't trust you sneaky adventurer-types."
 35: 0x00CA [0x23] WAIT_FOR_DIALOG_INTERACTION
 36: 0x00CB [0x03] Work_Zone[1] = 1*
 37: 0x00D0 [0x43] SEND_EVENT_UPDATE: Send pending tag to server (packet 0x005B)
 38: 0x00D2 [0x43] SEND_EVENT_UPDATE: Check pending flag (skip if not pending)
 39: 0x00D4 [0x1D] PRINT_EVENT_MESSAGE(message_id=7518*)
    → "I don't work for that gil you adventurer-types love to hoard. What I'm gonna need is $2 $0$0 . Better throw in $4 $0$3 . Oh, and don't forget $6 $0$5 ."
 40: 0x00D7 [0x23] WAIT_FOR_DIALOG_INTERACTION
 41: 0x00D8 [0x1D] PRINT_EVENT_MESSAGE(message_id=7519*)
    → "That's my fee. You gotta problem with fair trade? You pay me, I fix up your stuff."
 42: 0x00DB [0x23] WAIT_FOR_DIALOG_INTERACTION
 43: 0x00DC [0x01] GOTO 0x012F
 44: 0x00DF [0x02] IF !(ExtData[1]->WorkLocal[6] == 5*) GOTO 0x0103
 45: 0x00E7 [0x1D] PRINT_EVENT_MESSAGE(message_id=7357*)
    → "Oho, you brought me what I asked for? $1, $2, and $3. My pockets are gonna be bulging when I unload this stuff, heh heh."
 46: 0x00EA [0x23] WAIT_FOR_DIALOG_INTERACTION
 47: 0x00EB [0x1D] PRINT_EVENT_MESSAGE(message_id=7358*)
    → "Now about that fee. As a craftsgoblin, it's embarrassin' to admit, but I don't think I can reforge the $0 for you. There's a blacksmith I know who can do the job, though. Damn expensive, but the best blacksmith I ever saw."
 48: 0x00EE [0x23] WAIT_FOR_DIALOG_INTERACTION
 49: 0x00EF [0x03] Work_Zone[1] = 2*
 50: 0x00F4 [0x43] SEND_EVENT_UPDATE: Send pending tag to server (packet 0x005B)
 51: 0x00F6 [0x43] SEND_EVENT_UPDATE: Check pending flag (skip if not pending)
 52: 0x00F8 [0x1D] PRINT_EVENT_MESSAGE(message_id=7527*)
    → "The fee, including my cut for the referral, comes out to $2 $0$0 . Plus $4 $0$3 . Oh, and while we're at it, $6 $0$5 ."
 53: 0x00FB [0x23] WAIT_FOR_DIALOG_INTERACTION
 54: 0x00FC [0x1D] PRINT_EVENT_MESSAGE(message_id=7528*)
    → "It's gonna be a fun time getting your grubby little adventurer hands on the loot, but the result will be worth it."
 55: 0x00FF [0x23] WAIT_FOR_DIALOG_INTERACTION
 56: 0x0100 [0x01] GOTO 0x012F
 57: 0x0103 [0x02] IF !(ExtData[1]->WorkLocal[6] == 6*) GOTO 0x0127
 58: 0x010B [0x1D] PRINT_EVENT_MESSAGE(message_id=7423*)
    → "So this is $1? Huh. I been all over the place and seen lotsa bizzaro stuff, but this is the first time I've seen something like this. You sure you're not a Gob?"
 59: 0x010E [0x23] WAIT_FOR_DIALOG_INTERACTION
 60: 0x010F [0x1D] PRINT_EVENT_MESSAGE(message_id=7538*)
    → "Righto, I'll take this stuff off your hands and we can get down to my favorite subject: extra fees. This one's really gonna cost you."
 61: 0x0112 [0x23] WAIT_FOR_DIALOG_INTERACTION
 62: 0x0113 [0x03] Work_Zone[1] = 3*
 63: 0x0118 [0x43] SEND_EVENT_UPDATE: Send pending tag to server (packet 0x005B)
 64: 0x011A [0x43] SEND_EVENT_UPDATE: Check pending flag (skip if not pending)
 65: 0x011C [0x1D] PRINT_EVENT_MESSAGE(message_id=7539*)
    → "I'm gonna hit you up for $2 $0$0 , $4 $0$3 , and $6 $0$5 ."
 66: 0x011F [0x23] WAIT_FOR_DIALOG_INTERACTION
 67: 0x0120 [0x1D] PRINT_EVENT_MESSAGE(message_id=7425*)
    → "Collecting this sum is gonna be tough. Incredibly, unbelievably, ridiculously difficult. But I got faith in you, [adventure-boy/adventure-girl]!"
 68: 0x0123 [0x23] WAIT_FOR_DIALOG_INTERACTION
 69: 0x0124 [0x01] GOTO 0x012F
 70: 0x0127 [0x1D] PRINT_EVENT_MESSAGE(message_id=7346*)
    → "You got me what I need? Lemme see here, $1, $2, and $3. Good work. Did I mention that I don't work for free? I'm gonna need a little something up front--don't trust you sneaky adventurer-types."
 71: 0x012A [0x23] WAIT_FOR_DIALOG_INTERACTION
 72: 0x012B [0x1D] PRINT_EVENT_MESSAGE(message_id=7347*)
    → "Oh, and I got no interest in gil. My fee for this job is $5 $0$4 . You people pay each other for stuff all the time, right? Well, this ain't no different. You pay my fee, your weapon gets fixed up."
 73: 0x012E [0x23] WAIT_FOR_DIALOG_INTERACTION

SUBROUTINE_012F:
 74: 0x012F [0x21] END_EVENT
 75: 0x0130 [0x00] END_REQSTACK()
```

### Event 12

#### Metadata

| Field        | Value     |
|--------------|-----------|
| Entrypoint   | 0x0131    |
| Data Size    | 188 bytes |
| Instructions | 55        |

```
      00 01 02 03 04 05 06 07  08 09 0A 0B 0C 0D 0E 0F
      -- -- -- -- -- -- -- --  -- -- -- -- -- -- -- --
0130:    42 03 02 00 02 10 03  00 00 03 10 03 01 00 04   B..............
0140: 10 03 06 00 09 10 03 02  10 02 00 03 03 10 00 00  ................
0150: 03 04 10 01 00 1E F0 FF  FF 7F 5B 00 80 48 11 0A  ..........[..H..
0160: 01 48 11 0A 01 74 6C 6B  30 02 06 00 05 80 80 7C  .H...tlk0......|
0170: 01 1D 19 80 23 1D 1A 80  23 01 EB 01 02 06 00 09  ....#...#.......
0180: 80 80 8F 01 1D 1B 80 23  1D 0C 80 23 01 EB 01 02  .......#...#....
0190: 06 00 0D 80 80 AB 01 03  01 10 0F 80 43 00 43 01  ............C.C.
01A0: 1D 1C 80 23 1D 1D 80 23  01 EB 01 02 06 00 12 80  ...#...#........
01B0: 80 CB 01 1D 19 80 23 03  01 10 05 80 43 00 43 01  ......#.....C.C.
01C0: 1D 1E 80 23 1D 14 80 23  01 EB 01 02 06 00 15 80  ...#...#........
01D0: 80 E7 01 03 01 10 09 80  43 00 43 01 1D 1F 80 23  ........C.C....#
01E0: 1D 0C 80 23 01 EB 01 1D  20 80 23 21 00           ...#.... .#!.   
```

#### Opcodes

```
  0: 0x0131 [0x42] SET_CLI_EVENT_CANCEL_DATA()
  1: 0x0132 [0x03] ExtData[1]->WorkLocal[2] = Work_Zone[2]
  2: 0x0137 [0x03] ExtData[1]->WorkLocal[0] = Work_Zone[3]
  3: 0x013C [0x03] ExtData[1]->WorkLocal[1] = Work_Zone[4]
  4: 0x0141 [0x03] ExtData[1]->WorkLocal[6] = Work_Zone[9]
  5: 0x0146 [0x03] Work_Zone[2] = ExtData[1]->WorkLocal[2]
  6: 0x014B [0x03] Work_Zone[3] = ExtData[1]->WorkLocal[0]
  7: 0x0150 [0x03] Work_Zone[4] = ExtData[1]->WorkLocal[1]
  8: 0x0155 [0x1E] EventEntity looks at LocalPlayer and starts talking
  9: 0x015A [0x5B] LOAD_EXT_SCHEDULER: Load scheduler "tlk0" with entities [Switchstix (ID: 17437000/0x010A1148), Switchstix (ID: 17437000/0x010A1148)], work=215*
 10: 0x0169 [0x02] IF !(ExtData[1]->WorkLocal[6] == 2*) GOTO 0x017C
 11: 0x0171 [0x1D] PRINT_EVENT_MESSAGE(message_id=7360*)
    → "I don't have the skill to reforge the $0 you gave me, so I'm gonna take it to a blacksmith friend of mine. It'll be expensive, but the work is topnotch."
 12: 0x0174 [0x23] WAIT_FOR_DIALOG_INTERACTION
 13: 0x0175 [0x1D] PRINT_EVENT_MESSAGE(message_id=7361*)
    → "The fee, including my cut for the referral, comes out to $2 $0$0 . It's gonna be a fun time getting your grubby little adventurer hands on the loot, but the result will be worth it."
 14: 0x0178 [0x23] WAIT_FOR_DIALOG_INTERACTION
 15: 0x0179 [0x01] GOTO 0x01EB
 16: 0x017C [0x02] IF !(ExtData[1]->WorkLocal[6] == 3*) GOTO 0x018F
 17: 0x0184 [0x1D] PRINT_EVENT_MESSAGE(message_id=7426*)
    → "Your fee this time around is $2 $0$0 ."
 18: 0x0187 [0x23] WAIT_FOR_DIALOG_INTERACTION
 19: 0x0188 [0x1D] PRINT_EVENT_MESSAGE(message_id=7425*)
    → "Collecting this sum is gonna be tough. Incredibly, unbelievably, ridiculously difficult. But I got faith in you, [adventure-boy/adventure-girl]!"
 20: 0x018B [0x23] WAIT_FOR_DIALOG_INTERACTION
 21: 0x018C [0x01] GOTO 0x01EB
 22: 0x018F [0x02] IF !(ExtData[1]->WorkLocal[6] == 4*) GOTO 0x01AB
 23: 0x0197 [0x03] Work_Zone[1] = 1*
 24: 0x019C [0x43] SEND_EVENT_UPDATE: Send pending tag to server (packet 0x005B)
 25: 0x019E [0x43] SEND_EVENT_UPDATE: Check pending flag (skip if not pending)
 26: 0x01A0 [0x1D] PRINT_EVENT_MESSAGE(message_id=7520*)
    → "My fee for reforging your $0 is $2 $0$0 , $4 $0$3 , and $6 $0$5 ."
 27: 0x01A3 [0x23] WAIT_FOR_DIALOG_INTERACTION
 28: 0x01A4 [0x1D] PRINT_EVENT_MESSAGE(message_id=7521*)
    → "You pay me and I start working. See you when you get back with my fee."
 29: 0x01A7 [0x23] WAIT_FOR_DIALOG_INTERACTION
 30: 0x01A8 [0x01] GOTO 0x01EB
 31: 0x01AB [0x02] IF !(ExtData[1]->WorkLocal[6] == 5*) GOTO 0x01CB
 32: 0x01B3 [0x1D] PRINT_EVENT_MESSAGE(message_id=7360*)
    → "I don't have the skill to reforge the $0 you gave me, so I'm gonna take it to a blacksmith friend of mine. It'll be expensive, but the work is topnotch."
 33: 0x01B6 [0x23] WAIT_FOR_DIALOG_INTERACTION
 34: 0x01B7 [0x03] Work_Zone[1] = 2*
 35: 0x01BC [0x43] SEND_EVENT_UPDATE: Send pending tag to server (packet 0x005B)
 36: 0x01BE [0x43] SEND_EVENT_UPDATE: Check pending flag (skip if not pending)
 37: 0x01C0 [0x1D] PRINT_EVENT_MESSAGE(message_id=7529*)
    → "The fee, including my cut for the referral, comes out to $2 $0$0 . Plus $4 $0$3 . Oh, and $6 $0$5 ."
 38: 0x01C3 [0x23] WAIT_FOR_DIALOG_INTERACTION
 39: 0x01C4 [0x1D] PRINT_EVENT_MESSAGE(message_id=7528*)
    → "It's gonna be a fun time getting your grubby little adventurer hands on the loot, but the result will be worth it."
 40: 0x01C7 [0x23] WAIT_FOR_DIALOG_INTERACTION
 41: 0x01C8 [0x01] GOTO 0x01EB
 42: 0x01CB [0x02] IF !(ExtData[1]->WorkLocal[6] == 6*) GOTO 0x01E7
 43: 0x01D3 [0x03] Work_Zone[1] = 3*
 44: 0x01D8 [0x43] SEND_EVENT_UPDATE: Send pending tag to server (packet 0x005B)
 45: 0x01DA [0x43] SEND_EVENT_UPDATE: Check pending flag (skip if not pending)
 46: 0x01DC [0x1D] PRINT_EVENT_MESSAGE(message_id=7540*)
    → "Your fee this time around is $2 $0$0 , $4 $0$3 , and $6 $0$5 ."
 47: 0x01DF [0x23] WAIT_FOR_DIALOG_INTERACTION
 48: 0x01E0 [0x1D] PRINT_EVENT_MESSAGE(message_id=7425*)
    → "Collecting this sum is gonna be tough. Incredibly, unbelievably, ridiculously difficult. But I got faith in you, [adventure-boy/adventure-girl]!"
 49: 0x01E3 [0x23] WAIT_FOR_DIALOG_INTERACTION
 50: 0x01E4 [0x01] GOTO 0x01EB
 51: 0x01E7 [0x1D] PRINT_EVENT_MESSAGE(message_id=7348*)
    → "Reforging the $0 is gonna cost you $2 $0$0 . You pay me and I start working. See you when you get back with my fee."
 52: 0x01EA [0x23] WAIT_FOR_DIALOG_INTERACTION

SUBROUTINE_01EB:
 53: 0x01EB [0x21] END_EVENT
 54: 0x01EC [0x00] END_REQSTACK()
```

### Event 13

#### Metadata

| Field        | Value     |
|--------------|-----------|
| Entrypoint   | 0x01ED    |
| Data Size    | 159 bytes |
| Instructions | 48        |

```
      00 01 02 03 04 05 06 07  08 09 0A 0B 0C 0D 0E 0F
      -- -- -- -- -- -- -- --  -- -- -- -- -- -- -- --
01E0:                                         42 03 06               B..
01F0: 00 09 10 1E F0 FF FF 7F  5B 00 80 48 11 0A 01 48  ........[..H...H
0200: 11 0A 01 74 6C 6B 30 02  06 00 05 80 80 16 02 1D  ...tlk0.........
0210: 21 80 23 01 8A 02 02 06  00 09 80 80 25 02 1D 22  !.#.........%.."
0220: 80 23 01 8A 02 02 06 00  0D 80 80 45 02 03 01 10  .#.........E....
0230: 0F 80 43 00 43 01 1D 23  80 23 1D 24 80 23 1D 25  ..C.C..#.#.$.#.%
0240: 80 23 01 8A 02 02 06 00  12 80 80 61 02 03 01 10  .#.........a....
0250: 05 80 43 00 43 01 1D 23  80 23 1D 26 80 23 01 8A  ..C.C..#.#.&.#..
0260: 02 02 06 00 15 80 80 82  02 03 01 10 09 80 43 00  ..............C.
0270: 43 01 1D 23 80 23 03 02  10 27 80 1D 28 80 23 01  C..#.#...'..(.#.
0280: 8A 02 1D 29 80 23 1D 25  80 23 21 00              ...).#.%.#!.    
```

#### Opcodes

```
  0: 0x01ED [0x42] SET_CLI_EVENT_CANCEL_DATA()
  1: 0x01EE [0x03] ExtData[1]->WorkLocal[6] = Work_Zone[9]
  2: 0x01F3 [0x1E] EventEntity looks at LocalPlayer and starts talking
  3: 0x01F8 [0x5B] LOAD_EXT_SCHEDULER: Load scheduler "tlk0" with entities [Switchstix (ID: 17437000/0x010A1148), Switchstix (ID: 17437000/0x010A1148)], work=215*
  4: 0x0207 [0x02] IF !(ExtData[1]->WorkLocal[6] == 2*) GOTO 0x0216
  5: 0x020F [0x1D] PRINT_EVENT_MESSAGE(message_id=7362*)
    → "It's tough even for us Gobs to collect $1, and you've brought me $2 of them. Not bad for a clueless adventurer-type. Leave the $0 with me and the job will get done."
  6: 0x0212 [0x23] WAIT_FOR_DIALOG_INTERACTION
  7: 0x0213 [0x01] GOTO 0x028A
  8: 0x0216 [0x02] IF !(ExtData[1]->WorkLocal[6] == 3*) GOTO 0x0225
  9: 0x021E [0x1D] PRINT_EVENT_MESSAGE(message_id=7427*)
    → "My buddies are gonna hear about this--$2 $0$0 ! You shoulda been born a Gob! You can leave the $0 with me."
 10: 0x0221 [0x23] WAIT_FOR_DIALOG_INTERACTION
 11: 0x0222 [0x01] GOTO 0x028A
 12: 0x0225 [0x02] IF !(ExtData[1]->WorkLocal[6] == 4*) GOTO 0x0245
 13: 0x022D [0x03] Work_Zone[1] = 1*
 14: 0x0232 [0x43] SEND_EVENT_UPDATE: Send pending tag to server (packet 0x005B)
 15: 0x0234 [0x43] SEND_EVENT_UPDATE: Check pending flag (skip if not pending)
 16: 0x0236 [0x1D] PRINT_EVENT_MESSAGE(message_id=7522*)
    → "You got what I asked for? I count $2 $0$0 , $4 $0$3 , and $6 $0$5 . Looks like it's all here."
 17: 0x0239 [0x23] WAIT_FOR_DIALOG_INTERACTION
 18: 0x023A [0x1D] PRINT_EVENT_MESSAGE(message_id=7523*)
    → "Right, time to get to work. My forge is hot and ready to go."
 19: 0x023D [0x23] WAIT_FOR_DIALOG_INTERACTION
 20: 0x023E [0x1D] PRINT_EVENT_MESSAGE(message_id=7350*)
    → "The Goblin way of smithing is a little different from your fancy-schmancy "synthesis." I'm gonna need some time to get this job done. You kept me waiting for the materials I needed, now it's your turn to cool your heels for a while. Fair's fair, right?"
 21: 0x0241 [0x23] WAIT_FOR_DIALOG_INTERACTION
 22: 0x0242 [0x01] GOTO 0x028A
 23: 0x0245 [0x02] IF !(ExtData[1]->WorkLocal[6] == 5*) GOTO 0x0261
 24: 0x024D [0x03] Work_Zone[1] = 2*
 25: 0x0252 [0x43] SEND_EVENT_UPDATE: Send pending tag to server (packet 0x005B)
 26: 0x0254 [0x43] SEND_EVENT_UPDATE: Check pending flag (skip if not pending)
 27: 0x0256 [0x1D] PRINT_EVENT_MESSAGE(message_id=7522*)
    → "You got what I asked for? I count $2 $0$0 , $4 $0$3 , and $6 $0$5 . Looks like it's all here."
 28: 0x0259 [0x23] WAIT_FOR_DIALOG_INTERACTION
 29: 0x025A [0x1D] PRINT_EVENT_MESSAGE(message_id=7530*)
    → "It's tough even for us Gobs to get our hands on this old currency. Not bad for a clueless adventurer-type. Leave the $0 with me and the job will get done."
 30: 0x025D [0x23] WAIT_FOR_DIALOG_INTERACTION
 31: 0x025E [0x01] GOTO 0x028A
 32: 0x0261 [0x02] IF !(ExtData[1]->WorkLocal[6] == 6*) GOTO 0x0282
 33: 0x0269 [0x03] Work_Zone[1] = 3*
 34: 0x026E [0x43] SEND_EVENT_UPDATE: Send pending tag to server (packet 0x005B)
 35: 0x0270 [0x43] SEND_EVENT_UPDATE: Check pending flag (skip if not pending)
 36: 0x0272 [0x1D] PRINT_EVENT_MESSAGE(message_id=7522*)
    → "You got what I asked for? I count $2 $0$0 , $4 $0$3 , and $6 $0$5 . Looks like it's all here."
 37: 0x0275 [0x23] WAIT_FOR_DIALOG_INTERACTION
 38: 0x0276 [0x03] Work_Zone[2] = 15068*
 39: 0x027B [0x1D] PRINT_EVENT_MESSAGE(message_id=7541*)
    → "My buddies are gonna hear about this. Look at all this loot! You shoulda been born a Gob! You can leave the $0 with me."
 40: 0x027E [0x23] WAIT_FOR_DIALOG_INTERACTION
 41: 0x027F [0x01] GOTO 0x028A
 42: 0x0282 [0x1D] PRINT_EVENT_MESSAGE(message_id=7349*)
    → "You brought me my $2 $0$0 ? Right, time to get to work. My forge is hot and ready to go."
 43: 0x0285 [0x23] WAIT_FOR_DIALOG_INTERACTION
 44: 0x0286 [0x1D] PRINT_EVENT_MESSAGE(message_id=7350*)
    → "The Goblin way of smithing is a little different from your fancy-schmancy "synthesis." I'm gonna need some time to get this job done. You kept me waiting for the materials I needed, now it's your turn to cool your heels for a while. Fair's fair, right?"
 45: 0x0289 [0x23] WAIT_FOR_DIALOG_INTERACTION

SUBROUTINE_028A:
 46: 0x028A [0x21] END_EVENT
 47: 0x028B [0x00] END_REQSTACK()
```

### Event 14

#### Metadata

| Field        | Value     |
|--------------|-----------|
| Entrypoint   | 0x028C    |
| Data Size    | 117 bytes |
| Instructions | 28        |

```
      00 01 02 03 04 05 06 07  08 09 0A 0B 0C 0D 0E 0F
      -- -- -- -- -- -- -- --  -- -- -- -- -- -- -- --
0280:                                      03 02 00 02              ....
0290: 10 03 03 00 03 10 03 04  00 04 10 03 05 00 05 10  ................
02A0: 03 06 00 09 10 03 02 10  02 00 03 03 10 03 00 03  ................
02B0: 04 10 04 00 03 05 10 05  00 1E F0 FF FF 7F 5B 00  ..............[.
02C0: 80 48 11 0A 01 48 11 0A  01 74 6C 6B 30 02 06 00  .H...H...tlk0...
02D0: 0D 80 80 E0 02 1D 2A 80  23 1D 2B 80 23 01 E8 02  ......*.#.+.#...
02E0: 1D 2C 80 23 1D 2D 80 23  5B 00 80 48 11 0A 01 48  .,.#.-.#[..H...H
02F0: 11 0A 01 74 6C 6B 31 1D  2E 80 23 1D 2F 80 23 21  ...tlk1...#./.#!
0300: 00                                                .               
```

#### Opcodes

```
  0: 0x028C [0x03] ExtData[1]->WorkLocal[2] = Work_Zone[2]
  1: 0x0291 [0x03] ExtData[1]->WorkLocal[3] = Work_Zone[3]
  2: 0x0296 [0x03] ExtData[1]->WorkLocal[4] = Work_Zone[4]
  3: 0x029B [0x03] ExtData[1]->WorkLocal[5] = Work_Zone[5]
  4: 0x02A0 [0x03] ExtData[1]->WorkLocal[6] = Work_Zone[9]
  5: 0x02A5 [0x03] Work_Zone[2] = ExtData[1]->WorkLocal[2]
  6: 0x02AA [0x03] Work_Zone[3] = ExtData[1]->WorkLocal[3]
  7: 0x02AF [0x03] Work_Zone[4] = ExtData[1]->WorkLocal[4]
  8: 0x02B4 [0x03] Work_Zone[5] = ExtData[1]->WorkLocal[5]
  9: 0x02B9 [0x1E] EventEntity looks at LocalPlayer and starts talking
 10: 0x02BE [0x5B] LOAD_EXT_SCHEDULER: Load scheduler "tlk0" with entities [Switchstix (ID: 17437000/0x010A1148), Switchstix (ID: 17437000/0x010A1148)], work=215*
 11: 0x02CD [0x02] IF !(ExtData[1]->WorkLocal[6] == 4*) GOTO 0x02E0
 12: 0x02D5 [0x1D] PRINT_EVENT_MESSAGE(message_id=7516*)
    → "Wait up, [adventurer-boy/adventurer-girl]! My Gobbie blacksmith instincts are telling me that your $0 is hiding some real potential."
 13: 0x02D8 [0x23] WAIT_FOR_DIALOG_INTERACTION
 14: 0x02D9 [0x1D] PRINT_EVENT_MESSAGE(message_id=7517*)
    → "Hrmmm. Hrmmm. It'll take a lotta work to put it back in shape, but this is the kinda thing I live for. Right, get your notebook ready."
 15: 0x02DC [0x23] WAIT_FOR_DIALOG_INTERACTION
 16: 0x02DD [0x01] GOTO 0x02E8
 17: 0x02E0 [0x1D] PRINT_EVENT_MESSAGE(message_id=7342*)
    → "Hold it right there, pal! Is that $0 you're carrying? The power hidden behind that worn appearance is making my old Gobbie ears twitch. Trust me, I'm a blacksmith. I don't kid around when it comes to weapons."
 18: 0x02E3 [0x23] WAIT_FOR_DIALOG_INTERACTION
 19: 0x02E4 [0x1D] PRINT_EVENT_MESSAGE(message_id=7343*)
    → "Hrmmm. It'd take a lotta work, but I could make that power shine through again. Okay, [adventure-boy/adventure-girl], you got something to write with?"
 20: 0x02E7 [0x23] WAIT_FOR_DIALOG_INTERACTION

SUBROUTINE_02E8:
 21: 0x02E8 [0x5B] LOAD_EXT_SCHEDULER: Load scheduler "tlk1" with entities [Switchstix (ID: 17437000/0x010A1148), Switchstix (ID: 17437000/0x010A1148)], work=215*
 22: 0x02F7 [0x1D] PRINT_EVENT_MESSAGE(message_id=7344*)
    → "To reforge the $0, I'm gonna need $1, $2, and $3. Yep, that's the bare minimum."
 23: 0x02FA [0x23] WAIT_FOR_DIALOG_INTERACTION
 24: 0x02FB [0x1D] PRINT_EVENT_MESSAGE(message_id=7345*)
    → "Bring along the $0 with those three items and I'll get to work for you. I've told you what I need, the rest is up to you."
 25: 0x02FE [0x23] WAIT_FOR_DIALOG_INTERACTION
 26: 0x02FF [0x21] END_EVENT
 27: 0x0300 [0x00] END_REQSTACK()
```

### Event 15

#### Metadata

| Field        | Value    |
|--------------|----------|
| Entrypoint   | 0x0301   |
| Data Size    | 26 bytes |
| Instructions | 6        |

```
      00 01 02 03 04 05 06 07  08 09 0A 0B 0C 0D 0E 0F
      -- -- -- -- -- -- -- --  -- -- -- -- -- -- -- --
0300:    1E F0 FF FF 7F 5B 00  80 48 11 0A 01 48 11 0A   .....[..H...H..
0310: 01 74 6C 6B 30 1D 30 80  23 21 00                 .tlk0.0.#!.     
```

#### Opcodes

```
  0: 0x0301 [0x1E] EventEntity looks at LocalPlayer and starts talking
  1: 0x0306 [0x5B] LOAD_EXT_SCHEDULER: Load scheduler "tlk0" with entities [Switchstix (ID: 17437000/0x010A1148), Switchstix (ID: 17437000/0x010A1148)], work=215*
  2: 0x0315 [0x1D] PRINT_EVENT_MESSAGE(message_id=7351*)
    → "You back already? I told you this was gonna take some time. You adventurer-types have really gotta learn some patience. Let me get back to work, will ya? Sheesh."
  3: 0x0318 [0x23] WAIT_FOR_DIALOG_INTERACTION
  4: 0x0319 [0x21] END_EVENT
  5: 0x031A [0x00] END_REQSTACK()
```

### Event 16

#### Metadata

| Field        | Value    |
|--------------|----------|
| Entrypoint   | 0x031B   |
| Data Size    | 91 bytes |
| Instructions | 18       |

```
      00 01 02 03 04 05 06 07  08 09 0A 0B 0C 0D 0E 0F
      -- -- -- -- -- -- -- --  -- -- -- -- -- -- -- --
0310:                                   42 03 02 00 02             B....
0320: 10 03 07 00 03 10 03 06  00 09 10 1E F0 FF FF 7F  ................
0330: 93 07 00 5B 00 80 48 11  0A 01 48 11 0A 01 74 6C  ...[..H...H...tl
0340: 6B 30 02 06 00 0D 80 80  51 03 1D 31 80 23 01 55  k0......Q..1.#.U
0350: 03 1D 32 80 23 93 33 80  5B 00 80 48 11 0A 01 48  ..2.#.3.[..H...H
0360: 11 0A 01 70 61 73 30 53  48 11 0A 01 48 11 0A 01  ...pas0SH...H...
0370: 70 61 73 30 21 00                                 pas0!.          
```

#### Opcodes

```
  0: 0x031B [0x42] SET_CLI_EVENT_CANCEL_DATA()
  1: 0x031C [0x03] ExtData[1]->WorkLocal[2] = Work_Zone[2]
  2: 0x0321 [0x03] ExtData[1]->WorkLocal[7] = Work_Zone[3]
  3: 0x0326 [0x03] ExtData[1]->WorkLocal[6] = Work_Zone[9]
  4: 0x032B [0x1E] EventEntity looks at LocalPlayer and starts talking
  5: 0x0330 [0x93] DISPLAY_ITEM_INFO(item_id=ExtData[1]->WorkLocal[7])
  6: 0x0333 [0x5B] LOAD_EXT_SCHEDULER: Load scheduler "tlk0" with entities [Switchstix (ID: 17437000/0x010A1148), Switchstix (ID: 17437000/0x010A1148)], work=215*
  7: 0x0342 [0x02] IF !(ExtData[1]->WorkLocal[6] == 4*) GOTO 0x0351
  8: 0x034A [0x1D] PRINT_EVENT_MESSAGE(message_id=7524*)
    → "You can stop your bellyachin' now--I'm done with your $0. So what do you think? You ain't gonna see too many pieces of this quality, I can tell you. Be seeing you, [adventure-boy/adventure-girl]."
  9: 0x034D [0x23] WAIT_FOR_DIALOG_INTERACTION
 10: 0x034E [0x01] GOTO 0x0355
 11: 0x0351 [0x1D] PRINT_EVENT_MESSAGE(message_id=7352*)
    → "You can stop your bellyachin' now--I'm done with your $0. So what do you think? You ain't gonna see too many weapons of this quality, I can tell you. Be seeing you, [adventure-boy/adventure-girl]."
 12: 0x0354 [0x23] WAIT_FOR_DIALOG_INTERACTION

SUBROUTINE_0355:
 13: 0x0355 [0x93] DISPLAY_ITEM_INFO(item_id=0*)
 14: 0x0358 [0x5B] LOAD_EXT_SCHEDULER: Load scheduler "pas0" with entities [Switchstix (ID: 17437000/0x010A1148), Switchstix (ID: 17437000/0x010A1148)], work=215*
 15: 0x0367 [0x53] WAIT_SCHEDULER_TASK: Wait for scheduler "pas0" with entities [Switchstix (ID: 17437000/0x010A1148), Switchstix (ID: 17437000/0x010A1148)]
 16: 0x0374 [0x21] END_EVENT
 17: 0x0375 [0x00] END_REQSTACK()
```

### Event 17

#### Metadata

| Field        | Value     |
|--------------|-----------|
| Entrypoint   | 0x0376    |
| Data Size    | 102 bytes |
| Instructions | 27        |

```
      00 01 02 03 04 05 06 07  08 09 0A 0B 0C 0D 0E 0F
      -- -- -- -- -- -- -- --  -- -- -- -- -- -- -- --
0370:                   1E F0  FF FF 7F 03 02 00 02 10        ..........
0380: 03 03 00 03 10 03 04 00  04 10 03 05 00 05 10 03  ................
0390: 06 00 09 10 03 02 10 02  00 03 03 10 03 00 03 04  ................
03A0: 10 04 00 03 05 10 05 00  5B 00 80 48 11 0A 01 48  ........[..H...H
03B0: 11 0A 01 74 6C 6B 30 02  06 00 12 80 80 CA 03 1D  ...tlk0.........
03C0: 34 80 23 1D 35 80 23 01  D2 03 1D 36 80 23 1D 37  4.#.5.#....6.#.7
03D0: 80 23 1D 38 80 23 1D 39  80 23 21 00              .#.8.#.9.#!.    
```

#### Opcodes

```
  0: 0x0376 [0x1E] EventEntity looks at LocalPlayer and starts talking
  1: 0x037B [0x03] ExtData[1]->WorkLocal[2] = Work_Zone[2]
  2: 0x0380 [0x03] ExtData[1]->WorkLocal[3] = Work_Zone[3]
  3: 0x0385 [0x03] ExtData[1]->WorkLocal[4] = Work_Zone[4]
  4: 0x038A [0x03] ExtData[1]->WorkLocal[5] = Work_Zone[5]
  5: 0x038F [0x03] ExtData[1]->WorkLocal[6] = Work_Zone[9]
  6: 0x0394 [0x03] Work_Zone[2] = ExtData[1]->WorkLocal[2]
  7: 0x0399 [0x03] Work_Zone[3] = ExtData[1]->WorkLocal[3]
  8: 0x039E [0x03] Work_Zone[4] = ExtData[1]->WorkLocal[4]
  9: 0x03A3 [0x03] Work_Zone[5] = ExtData[1]->WorkLocal[5]
 10: 0x03A8 [0x5B] LOAD_EXT_SCHEDULER: Load scheduler "tlk0" with entities [Switchstix (ID: 17437000/0x010A1148), Switchstix (ID: 17437000/0x010A1148)], work=215*
 11: 0x03B7 [0x02] IF !(ExtData[1]->WorkLocal[6] == 5*) GOTO 0x03CA
 12: 0x03BF [0x1D] PRINT_EVENT_MESSAGE(message_id=7525*)
    → "Oh yeah, one more thing: the $0 I worked on can still be improved. I can make that power shine even brighter than before. Do I have your full attention, now? Naturally, it's gonna cost you."
 13: 0x03C2 [0x23] WAIT_FOR_DIALOG_INTERACTION
 14: 0x03C3 [0x1D] PRINT_EVENT_MESSAGE(message_id=7526*)
    → "The armor and shields you people use are really popular among the beastmen these days. I could make myself a small fortune with just a few pieces."
 15: 0x03C6 [0x23] WAIT_FOR_DIALOG_INTERACTION
 16: 0x03C7 [0x01] GOTO 0x03D2
 17: 0x03CA [0x1D] PRINT_EVENT_MESSAGE(message_id=7353*)
    → "Oh yeah, one more thing: the $0 I worked on can still be improved. I can make that power shine even brighter than before. Do I have your full attention, now? Naturally, it's gonna cost you."
 18: 0x03CD [0x23] WAIT_FOR_DIALOG_INTERACTION
 19: 0x03CE [0x1D] PRINT_EVENT_MESSAGE(message_id=7354*)
    → "The weapons you people use are really popular among the beastmen these days. I could make myself a small fortune with just a few of them."
 20: 0x03D1 [0x23] WAIT_FOR_DIALOG_INTERACTION

SUBROUTINE_03D2:
 21: 0x03D2 [0x1D] PRINT_EVENT_MESSAGE(message_id=7355*)
    → "The top sellers at the moment are $1, $2, and $3. There are others I could think of, but those three bring in the most cash. Don't forget to bring the $0 back with you, too."
 22: 0x03D5 [0x23] WAIT_FOR_DIALOG_INTERACTION
 23: 0x03D6 [0x1D] PRINT_EVENT_MESSAGE(message_id=7356*)
    → "Those three items cover the cost of materials for reforging the $0, but I'm still gonna ask you for a separate fee for my sweat and toil. To forge, or not to forge? The answer is in your hands."
 24: 0x03D9 [0x23] WAIT_FOR_DIALOG_INTERACTION
 25: 0x03DA [0x21] END_EVENT
 26: 0x03DB [0x00] END_REQSTACK()
```

### Event 18

#### Metadata

| Field        | Value    |
|--------------|----------|
| Entrypoint   | 0x03DC   |
| Data Size    | 30 bytes |
| Instructions | 8        |

```
      00 01 02 03 04 05 06 07  08 09 0A 0B 0C 0D 0E 0F
      -- -- -- -- -- -- -- --  -- -- -- -- -- -- -- --
03D0:                                      1E F0 FF FF              ....
03E0: 7F 5B 00 80 48 11 0A 01  48 11 0A 01 74 6C 6B 31  .[..H...H...tlk1
03F0: 1D 3A 80 23 1D 3B 80 23  21 00                    .:.#.;.#!.      
```

#### Opcodes

```
  0: 0x03DC [0x1E] EventEntity looks at LocalPlayer and starts talking
  1: 0x03E1 [0x5B] LOAD_EXT_SCHEDULER: Load scheduler "tlk1" with entities [Switchstix (ID: 17437000/0x010A1148), Switchstix (ID: 17437000/0x010A1148)], work=215*
  2: 0x03F0 [0x1D] PRINT_EVENT_MESSAGE(message_id=7363*)
    → "You really are impatient, ain't you! This is gonna take a hell of a lot longer than last time--that's how amazing the outcome is gonna be. Better find something else to occupy yourself with for a while."
  3: 0x03F3 [0x23] WAIT_FOR_DIALOG_INTERACTION
  4: 0x03F4 [0x1D] PRINT_EVENT_MESSAGE(message_id=7364*)
    → "This is gonna take so long, you'll forget you even asked me to do it in the first place. A really, really, really long time. Really long. But don't worry, I'm a true craftsgoblin, I won't go back on a deal. Just don't forget to come back, huh?"
  5: 0x03F7 [0x23] WAIT_FOR_DIALOG_INTERACTION
  6: 0x03F8 [0x21] END_EVENT
  7: 0x03F9 [0x00] END_REQSTACK()
```

### Event 19

#### Metadata

| Field        | Value     |
|--------------|-----------|
| Entrypoint   | 0x03FA    |
| Data Size    | 133 bytes |
| Instructions | 27        |

```
      00 01 02 03 04 05 06 07  08 09 0A 0B 0C 0D 0E 0F
      -- -- -- -- -- -- -- --  -- -- -- -- -- -- -- --
03F0:                                42 03 02 00 02 10            B.....
0400: 03 07 00 03 10 03 06 00  09 10 1E F0 FF FF 7F 93  ................
0410: 07 00 5B 00 80 48 11 0A  01 48 11 0A 01 74 6C 6B  ..[..H...H...tlk
0420: 31 02 06 00 12 80 80 30  04 1D 3C 80 23 01 34 04  1......0..<.#.4.
0430: 1D 3D 80 23 5E 69 64 6C  30 1C 3E 80 93 33 80 5B  .=.#^idl0.>..3.[
0440: 00 80 48 11 0A 01 48 11  0A 01 74 6C 6B 30 02 06  ..H...H...tlk0..
0450: 00 12 80 80 5D 04 1D 3F  80 23 01 61 04 1D 40 80  ....]..?.#.a..@.
0460: 23 5B 00 80 48 11 0A 01  48 11 0A 01 70 61 73 30  #[..H...H...pas0
0470: 53 48 11 0A 01 48 11 0A  01 70 61 73 30 21 00     SH...H...pas0!. 
```

#### Opcodes

```
  0: 0x03FA [0x42] SET_CLI_EVENT_CANCEL_DATA()
  1: 0x03FB [0x03] ExtData[1]->WorkLocal[2] = Work_Zone[2]
  2: 0x0400 [0x03] ExtData[1]->WorkLocal[7] = Work_Zone[3]
  3: 0x0405 [0x03] ExtData[1]->WorkLocal[6] = Work_Zone[9]
  4: 0x040A [0x1E] EventEntity looks at LocalPlayer and starts talking
  5: 0x040F [0x93] DISPLAY_ITEM_INFO(item_id=ExtData[1]->WorkLocal[7])
  6: 0x0412 [0x5B] LOAD_EXT_SCHEDULER: Load scheduler "tlk1" with entities [Switchstix (ID: 17437000/0x010A1148), Switchstix (ID: 17437000/0x010A1148)], work=215*
  7: 0x0421 [0x02] IF !(ExtData[1]->WorkLocal[6] == 5*) GOTO 0x0430
  8: 0x0429 [0x1D] PRINT_EVENT_MESSAGE(message_id=7531*)
    → "And here you go, the finished masterpiece. Really, really, really sorry to keep you waiting so long. Really sorry. But take a look. Feel this radiating power. I bet you're glad you didn't forget to come back, huh?"
  9: 0x042C [0x23] WAIT_FOR_DIALOG_INTERACTION
 10: 0x042D [0x01] GOTO 0x0434
 11: 0x0430 [0x1D] PRINT_EVENT_MESSAGE(message_id=7365*)
    → "And here you go, the finished masterpiece. Really, really, really sorry to keep you waiting so long. Really sorry. But take a look. Feel this radiating power. I bet you're glad you didn't forget to come back, huh?"
 12: 0x0433 [0x23] WAIT_FOR_DIALOG_INTERACTION

SUBROUTINE_0434:
 13: 0x0434 [0x5E] EventEntity goes idle (kills current action) (animation: "idl0")
 14: 0x0439 [0x1C] WAIT(45* ticks)
 15: 0x043C [0x93] DISPLAY_ITEM_INFO(item_id=0*)
 16: 0x043F [0x5B] LOAD_EXT_SCHEDULER: Load scheduler "tlk0" with entities [Switchstix (ID: 17437000/0x010A1148), Switchstix (ID: 17437000/0x010A1148)], work=215*
 17: 0x044E [0x02] IF !(ExtData[1]->WorkLocal[6] == 5*) GOTO 0x045D
 18: 0x0456 [0x1D] PRINT_EVENT_MESSAGE(message_id=7532*)
    → "This reforging stuff just warms my old Gobbie heart. You find any more old armor or shields, be sure to bring them to me. You never know, they might have the same potential for enhancement you see here. See you around, [adventure-boy/adventure-girl]."
 19: 0x0459 [0x23] WAIT_FOR_DIALOG_INTERACTION
 20: 0x045A [0x01] GOTO 0x0461
 21: 0x045D [0x1D] PRINT_EVENT_MESSAGE(message_id=7366*)
    → "This reforging stuff just warms my old Gobbie heart. You find any more old weapons, be sure to bring them to me. You never know, they might have the same potential for enhancement you see here. See you around, [adventure-boy/adventure-girl]."
 22: 0x0460 [0x23] WAIT_FOR_DIALOG_INTERACTION

SUBROUTINE_0461:
 23: 0x0461 [0x5B] LOAD_EXT_SCHEDULER: Load scheduler "pas0" with entities [Switchstix (ID: 17437000/0x010A1148), Switchstix (ID: 17437000/0x010A1148)], work=215*
 24: 0x0470 [0x53] WAIT_SCHEDULER_TASK: Wait for scheduler "pas0" with entities [Switchstix (ID: 17437000/0x010A1148), Switchstix (ID: 17437000/0x010A1148)]
 25: 0x047D [0x21] END_EVENT
 26: 0x047E [0x00] END_REQSTACK()
```

### Event 50

#### Metadata

| Field        | Value     |
|--------------|-----------|
| Entrypoint   | 0x047F    |
| Data Size    | 159 bytes |
| Instructions | 46        |

```
      00 01 02 03 04 05 06 07  08 09 0A 0B 0C 0D 0E 0F
      -- -- -- -- -- -- -- --  -- -- -- -- -- -- -- --
0470:                                               1E                 .
0480: F0 FF FF 7F 03 02 00 02  10 03 03 00 03 10 03 06  ................
0490: 00 09 10 03 02 10 02 00  03 03 10 03 00 5B 00 80  .............[..
04A0: 48 11 0A 01 48 11 0A 01  74 6C 6B 30 1D 41 80 23  H...H...tlk0.A.#
04B0: 02 06 00 15 80 80 BF 04  1D 42 80 23 01 C3 04 1D  .........B.#....
04C0: 43 80 23 1D 44 80 23 1D  45 80 23 02 06 00 15 80  C.#.D.#.E.#.....
04D0: 80 E2 04 1D 46 80 23 1D  47 80 23 1D 48 80 23 01  ....F.#.G.#.H.#.
04E0: EE 04 1D 49 80 23 1D 4A  80 23 1D 4B 80 23 5E 69  ...I.#.J.#.K.#^i
04F0: 64 6C 30 1C 4C 80 1D 4D  80 23 5B 00 80 48 11 0A  dl0.L..M.#[..H..
0500: 01 48 11 0A 01 74 6C 6B  30 02 06 00 15 80 80 18  .H...tlk0.......
0510: 05 1D 4E 80 23 01 1C 05  1D 4F 80 23 21 00        ..N.#....O.#!.  
```

#### Opcodes

```
  0: 0x047F [0x1E] EventEntity looks at LocalPlayer and starts talking
  1: 0x0484 [0x03] ExtData[1]->WorkLocal[2] = Work_Zone[2]
  2: 0x0489 [0x03] ExtData[1]->WorkLocal[3] = Work_Zone[3]
  3: 0x048E [0x03] ExtData[1]->WorkLocal[6] = Work_Zone[9]
  4: 0x0493 [0x03] Work_Zone[2] = ExtData[1]->WorkLocal[2]
  5: 0x0498 [0x03] Work_Zone[3] = ExtData[1]->WorkLocal[3]
  6: 0x049D [0x5B] LOAD_EXT_SCHEDULER: Load scheduler "tlk0" with entities [Switchstix (ID: 17437000/0x010A1148), Switchstix (ID: 17437000/0x010A1148)], work=215*
  7: 0x04AC [0x1D] PRINT_EVENT_MESSAGE(message_id=7414*)
    → "Hey, you're the [guy/gal] with the $0, right? I got some good news for you."
  8: 0x04AF [0x23] WAIT_FOR_DIALOG_INTERACTION
  9: 0x04B0 [0x02] IF !(ExtData[1]->WorkLocal[6] == 6*) GOTO 0x04BF
 10: 0x04B8 [0x1D] PRINT_EVENT_MESSAGE(message_id=7533*)
    → "Got a letter here from my blacksmith buddy, the guy who forged your $0. Wanted me to lay a proposition on you."
 11: 0x04BB [0x23] WAIT_FOR_DIALOG_INTERACTION
 12: 0x04BC [0x01] GOTO 0x04C3
 13: 0x04BF [0x1D] PRINT_EVENT_MESSAGE(message_id=7415*)
    → "Got a letter here from my blacksmith buddy, the guy who forged your $0. Wanted me to lay a proposition on you."
 14: 0x04C2 [0x23] WAIT_FOR_DIALOG_INTERACTION

SUBROUTINE_04C3:
 15: 0x04C3 [0x1D] PRINT_EVENT_MESSAGE(message_id=7416*)
    → "For years now, him and his mates have been digging tunnels right under this place we're standin' on. Even among us Goblins, they're considered a strange crew."
 16: 0x04C6 [0x23] WAIT_FOR_DIALOG_INTERACTION
 17: 0x04C7 [0x1D] PRINT_EVENT_MESSAGE(message_id=7417*)
    → "They're lookin' for a certain object that was buried here thousands of millions of years ago, or something like that. But don't worry your little head over whatever that may be."
 18: 0x04CA [0x23] WAIT_FOR_DIALOG_INTERACTION
 19: 0x04CB [0x02] IF !(ExtData[1]->WorkLocal[6] == 6*) GOTO 0x04E2
 20: 0x04D3 [0x1D] PRINT_EVENT_MESSAGE(message_id=7534*)
    → "Anywho, after poking around deep under the earth for so long, they've come across a few strange bits of armor used by Gob-knows-who, Gob-knows-when."
 21: 0x04D6 [0x23] WAIT_FOR_DIALOG_INTERACTION
 22: 0x04D7 [0x1D] PRINT_EVENT_MESSAGE(message_id=7535*)
    → "Now, this is the good part. The armor and shields those guys found happen to have the same sorta aura as the $0 you're toting around. Pretty intriguing stuff, wouldn't you say?"
 23: 0x04DA [0x23] WAIT_FOR_DIALOG_INTERACTION
 24: 0x04DB [0x1D] PRINT_EVENT_MESSAGE(message_id=7536*)
    → "My buddy mentioned in his letter that he'd be willing to trade his own discovery for your $0, as long as you throw $1 into the bargain."
 25: 0x04DE [0x23] WAIT_FOR_DIALOG_INTERACTION
 26: 0x04DF [0x01] GOTO 0x04EE
 27: 0x04E2 [0x1D] PRINT_EVENT_MESSAGE(message_id=7418*)
    → "Anywho, after poking around deep under the earth for so long, they've come across a few strange weapons used by Gob-knows-who, Gob-knows-when."
 28: 0x04E5 [0x23] WAIT_FOR_DIALOG_INTERACTION
 29: 0x04E6 [0x1D] PRINT_EVENT_MESSAGE(message_id=7419*)
    → "Now, this is the good part. The weapons those guys found happen to have the same sorta aura as the $0 you're toting around. Pretty intriguing stuff, wouldn't you say?"
 30: 0x04E9 [0x23] WAIT_FOR_DIALOG_INTERACTION
 31: 0x04EA [0x1D] PRINT_EVENT_MESSAGE(message_id=7420*)
    → "My buddy mentioned in his letter that he'd be willing to trade his discovery for your $0, as long as you throw $1 into the bargain."
 32: 0x04ED [0x23] WAIT_FOR_DIALOG_INTERACTION

SUBROUTINE_04EE:
 33: 0x04EE [0x5E] EventEntity goes idle (kills current action) (animation: "idl0")
 34: 0x04F3 [0x1C] WAIT(30* ticks)
 35: 0x04F6 [0x1D] PRINT_EVENT_MESSAGE(message_id=7421*)
    → "Wait a sec...$1? Can't say I've ever heard of it myself. No description in the letter about it neither."
 36: 0x04F9 [0x23] WAIT_FOR_DIALOG_INTERACTION
 37: 0x04FA [0x5B] LOAD_EXT_SCHEDULER: Load scheduler "tlk0" with entities [Switchstix (ID: 17437000/0x010A1148), Switchstix (ID: 17437000/0x010A1148)], work=215*
 38: 0x0509 [0x02] IF !(ExtData[1]->WorkLocal[6] == 6*) GOTO 0x0518
 39: 0x0511 [0x1D] PRINT_EVENT_MESSAGE(message_id=7537*)
    → "Hrmmm. Guess if you want to swap your $0 for what they dug up, you better start looking for $1. Okay, I've done my bit and told you what you gotta do. It's adventure-time again."
 40: 0x0514 [0x23] WAIT_FOR_DIALOG_INTERACTION
 41: 0x0515 [0x01] GOTO 0x051C
 42: 0x0518 [0x1D] PRINT_EVENT_MESSAGE(message_id=7422*)
    → "Hrmmm. Guess if you want to swap your $0 for what they dug up, you better start looking for $1. Okay, I've done my bit and told you what you gotta do. It's adventure-time again."
 43: 0x051B [0x23] WAIT_FOR_DIALOG_INTERACTION

SUBROUTINE_051C:
 44: 0x051C [0x21] END_EVENT
 45: 0x051D [0x00] END_REQSTACK()
```

### Event 51

#### Metadata

| Field        | Value    |
|--------------|----------|
| Entrypoint   | 0x051E   |
| Data Size    | 54 bytes |
| Instructions | 15       |

```
      00 01 02 03 04 05 06 07  08 09 0A 0B 0C 0D 0E 0F
      -- -- -- -- -- -- -- --  -- -- -- -- -- -- -- --
0510:                                            03 06                ..
0520: 00 09 10 1E F0 FF FF 7F  5B 00 80 48 11 0A 01 48  ........[..H...H
0530: 11 0A 01 74 6C 6B 30 02  06 00 15 80 80 4A 05 1D  ...tlk0......J..
0540: 50 80 23 1D 51 80 23 01  52 05 1D 52 80 23 1D 53  P.#.Q.#.R..R.#.S
0550: 80 23 21 00                                       .#!.            
```

#### Opcodes

```
  0: 0x051E [0x03] ExtData[1]->WorkLocal[6] = Work_Zone[9]
  1: 0x0523 [0x1E] EventEntity looks at LocalPlayer and starts talking
  2: 0x0528 [0x5B] LOAD_EXT_SCHEDULER: Load scheduler "tlk0" with entities [Switchstix (ID: 17437000/0x010A1148), Switchstix (ID: 17437000/0x010A1148)], work=215*
  3: 0x0537 [0x02] IF !(ExtData[1]->WorkLocal[6] == 6*) GOTO 0x054A
  4: 0x053F [0x1D] PRINT_EVENT_MESSAGE(message_id=7542*)
    → "You ain't learned any patience on your travels, have you? And no, I'm not gonna tell some blabbermouth adventurer where my buddy hangs out. Look, I didn't cheat you last time, did I? Give a Gob a break and stop bothering me every five seconds!"
  5: 0x0542 [0x23] WAIT_FOR_DIALOG_INTERACTION
  6: 0x0543 [0x1D] PRINT_EVENT_MESSAGE(message_id=7543*)
    → "Oh, and you should be happy. There's no reforging to do, so this won't take nearly half as long as last time. Don't get so involved in your little adventures that you forget all about it, though."
  7: 0x0546 [0x23] WAIT_FOR_DIALOG_INTERACTION
  8: 0x0547 [0x01] GOTO 0x0552
  9: 0x054A [0x1D] PRINT_EVENT_MESSAGE(message_id=7428*)
    → "You ain't learned any patience on your travels, have you? And no, I'm not gonna tell some blabbermouth adventurer where my buddy hangs out. Look, I didn't cheat you last time, did I? Give a Gob a break and stop bothering me every five seconds!"
 10: 0x054D [0x23] WAIT_FOR_DIALOG_INTERACTION
 11: 0x054E [0x1D] PRINT_EVENT_MESSAGE(message_id=7429*)
    → "Oh, and you should be happy. There's no reforging to do, so this won't take nearly half as long as last time. Don't get so involved in your little adventures that you forget all about it, though."
 12: 0x0551 [0x23] WAIT_FOR_DIALOG_INTERACTION

SUBROUTINE_0552:
 13: 0x0552 [0x21] END_EVENT
 14: 0x0553 [0x00] END_REQSTACK()
```

### Event 52

#### Metadata

| Field        | Value     |
|--------------|-----------|
| Entrypoint   | 0x0554    |
| Data Size    | 130 bytes |
| Instructions | 29        |

```
      00 01 02 03 04 05 06 07  08 09 0A 0B 0C 0D 0E 0F
      -- -- -- -- -- -- -- --  -- -- -- -- -- -- -- --
0550:             42 03 02 00  02 10 03 07 00 03 10 03      B...........
0560: 09 00 04 10 03 06 00 09  10 1E F0 FF FF 7F 93 07  ................
0570: 00 02 06 00 15 80 80 80  05 1D 54 80 23 01 93 05  ..........T.#...
0580: 02 09 00 33 80 00 8F 05  1D 55 80 23 01 93 05 1D  ...3.....U.#....
0590: 56 80 23 93 33 80 5B 00  80 48 11 0A 01 48 11 0A  V.#.3.[..H...H..
05A0: 01 74 6C 6B 30 02 06 00  15 80 80 B4 05 1D 57 80  .tlk0.........W.
05B0: 23 01 B8 05 1D 58 80 23  5B 00 80 48 11 0A 01 48  #....X.#[..H...H
05C0: 11 0A 01 70 61 73 30 53  48 11 0A 01 48 11 0A 01  ...pas0SH...H...
05D0: 70 61 73 30 21 00                                 pas0!.          
```

#### Opcodes

```
  0: 0x0554 [0x42] SET_CLI_EVENT_CANCEL_DATA()
  1: 0x0555 [0x03] ExtData[1]->WorkLocal[2] = Work_Zone[2]
  2: 0x055A [0x03] ExtData[1]->WorkLocal[7] = Work_Zone[3]
  3: 0x055F [0x03] ExtData[1]->WorkLocal[9] = Work_Zone[4]
  4: 0x0564 [0x03] ExtData[1]->WorkLocal[6] = Work_Zone[9]
  5: 0x0569 [0x1E] EventEntity looks at LocalPlayer and starts talking
  6: 0x056E [0x93] DISPLAY_ITEM_INFO(item_id=ExtData[1]->WorkLocal[7])
  7: 0x0571 [0x02] IF !(ExtData[1]->WorkLocal[6] == 6*) GOTO 0x0580
  8: 0x0579 [0x1D] PRINT_EVENT_MESSAGE(message_id=7544*)
    → "Good timing, your package has arrived. Definitely looks a lot like what you had in the first place... Hmmm. You're probably thinking this isn't worth the loot you had to part with, huh?"
  9: 0x057C [0x23] WAIT_FOR_DIALOG_INTERACTION
 10: 0x057D [0x01] GOTO 0x0593
 11: 0x0580 [0x02] IF !(ExtData[1]->WorkLocal[9] == 0*) GOTO 0x058F
 12: 0x0588 [0x1D] PRINT_EVENT_MESSAGE(message_id=7430*)
    → "Good timing, your package has arrived. Definitely looks a lot like what you had in the first place... Hmmm. You're probably thinking this isn't worth the loot you had to part with, huh?"
 13: 0x058B [0x23] WAIT_FOR_DIALOG_INTERACTION
 14: 0x058C [0x01] GOTO 0x0593
 15: 0x058F [0x1D] PRINT_EVENT_MESSAGE(message_id=7513*)
    → "Good timing, your package has arrived. The letter mentioned something about the weapons being really similar, but I can see a few differences myself. Hmmm. You're probably thinking this isn't worth the loot you had to part with, huh?"
 16: 0x0592 [0x23] WAIT_FOR_DIALOG_INTERACTION

SUBROUTINE_0593:
 17: 0x0593 [0x93] DISPLAY_ITEM_INFO(item_id=0*)
 18: 0x0596 [0x5B] LOAD_EXT_SCHEDULER: Load scheduler "tlk0" with entities [Switchstix (ID: 17437000/0x010A1148), Switchstix (ID: 17437000/0x010A1148)], work=215*
 19: 0x05A5 [0x02] IF !(ExtData[1]->WorkLocal[6] == 6*) GOTO 0x05B4
 20: 0x05AD [0x1D] PRINT_EVENT_MESSAGE(message_id=7545*)
    → "Cheer up, [adventure-boy/adventure-girl]. And don't forget to keep bringing me those ancient pieces of armor. Who knows? They might be hiding some secret power that only a blacksmith like me can draw out. Here's what you came for."
 21: 0x05B0 [0x23] WAIT_FOR_DIALOG_INTERACTION
 22: 0x05B1 [0x01] GOTO 0x05B8
 23: 0x05B4 [0x1D] PRINT_EVENT_MESSAGE(message_id=7431*)
    → "Cheer up, [adventure-boy/adventure-girl]. And don't forget to keep bringing me those ancient weapons. Who knows? They might be hiding some secret power that only a blacksmith like me can draw out. Here's what you came for."
 24: 0x05B7 [0x23] WAIT_FOR_DIALOG_INTERACTION

SUBROUTINE_05B8:
 25: 0x05B8 [0x5B] LOAD_EXT_SCHEDULER: Load scheduler "pas0" with entities [Switchstix (ID: 17437000/0x010A1148), Switchstix (ID: 17437000/0x010A1148)], work=215*
 26: 0x05C7 [0x53] WAIT_SCHEDULER_TASK: Wait for scheduler "pas0" with entities [Switchstix (ID: 17437000/0x010A1148), Switchstix (ID: 17437000/0x010A1148)]
 27: 0x05D4 [0x21] END_EVENT
 28: 0x05D5 [0x00] END_REQSTACK()
```

### Event 20

#### Metadata

| Field        | Value   |
|--------------|---------|
| Entrypoint   | 0x05D6  |
| Data Size    | 5 bytes |
| Instructions | 3       |

```
      00 01 02 03 04 05 06 07  08 09 0A 0B 0C 0D 0E 0F
      -- -- -- -- -- -- -- --  -- -- -- -- -- -- -- --
05D0:                   1A 69  0C 21 00                       .i.!.     
```

#### Opcodes

```
  0: 0x05D6 [0x1A] CALL_SUBROUTINE(address=0x0C69)
  1: 0x05D9 [0x21] END_EVENT
  2: 0x05DA [0x00] END_REQSTACK()
```

### Event 21

#### Metadata

| Field        | Value   |
|--------------|---------|
| Entrypoint   | 0x05DB  |
| Data Size    | 5 bytes |
| Instructions | 3       |

```
      00 01 02 03 04 05 06 07  08 09 0A 0B 0C 0D 0E 0F
      -- -- -- -- -- -- -- --  -- -- -- -- -- -- -- --
05D0:                                   1A 69 0C 21 00             .i.!.
```

#### Opcodes

```
  0: 0x05DB [0x1A] CALL_SUBROUTINE(address=0x0C69)
  1: 0x05DE [0x21] END_EVENT
  2: 0x05DF [0x00] END_REQSTACK()
```

### Event 22

#### Metadata

| Field        | Value   |
|--------------|---------|
| Entrypoint   | 0x05E0  |
| Data Size    | 5 bytes |
| Instructions | 3       |

```
      00 01 02 03 04 05 06 07  08 09 0A 0B 0C 0D 0E 0F
      -- -- -- -- -- -- -- --  -- -- -- -- -- -- -- --
05E0: 1A 69 0C 21 00                                    .i.!.           
```

#### Opcodes

```
  0: 0x05E0 [0x1A] CALL_SUBROUTINE(address=0x0C69)
  1: 0x05E3 [0x21] END_EVENT
  2: 0x05E4 [0x00] END_REQSTACK()
```

### Event 23

#### Metadata

| Field        | Value   |
|--------------|---------|
| Entrypoint   | 0x05E5  |
| Data Size    | 5 bytes |
| Instructions | 3       |

```
      00 01 02 03 04 05 06 07  08 09 0A 0B 0C 0D 0E 0F
      -- -- -- -- -- -- -- --  -- -- -- -- -- -- -- --
05E0:                1A 69 0C  21 00                         .i.!.      
```

#### Opcodes

```
  0: 0x05E5 [0x1A] CALL_SUBROUTINE(address=0x0C69)
  1: 0x05E8 [0x21] END_EVENT
  2: 0x05E9 [0x00] END_REQSTACK()
```

### Event 24

#### Metadata

| Field        | Value   |
|--------------|---------|
| Entrypoint   | 0x05EA  |
| Data Size    | 5 bytes |
| Instructions | 3       |

```
      00 01 02 03 04 05 06 07  08 09 0A 0B 0C 0D 0E 0F
      -- -- -- -- -- -- -- --  -- -- -- -- -- -- -- --
05E0:                                1A 69 0C 21 00               .i.!. 
```

#### Opcodes

```
  0: 0x05EA [0x1A] CALL_SUBROUTINE(address=0x0C69)
  1: 0x05ED [0x21] END_EVENT
  2: 0x05EE [0x00] END_REQSTACK()
```

### Event 25

#### Metadata

| Field        | Value   |
|--------------|---------|
| Entrypoint   | 0x05EF  |
| Data Size    | 5 bytes |
| Instructions | 3       |

```
      00 01 02 03 04 05 06 07  08 09 0A 0B 0C 0D 0E 0F
      -- -- -- -- -- -- -- --  -- -- -- -- -- -- -- --
05E0:                                               1A                 .
05F0: 69 0C 21 00                                       i.!.            
```

#### Opcodes

```
  0: 0x05EF [0x1A] CALL_SUBROUTINE(address=0x0C69)
  1: 0x05F2 [0x21] END_EVENT
  2: 0x05F3 [0x00] END_REQSTACK()
```

### Event 26

#### Metadata

| Field        | Value   |
|--------------|---------|
| Entrypoint   | 0x05F4  |
| Data Size    | 5 bytes |
| Instructions | 3       |

```
      00 01 02 03 04 05 06 07  08 09 0A 0B 0C 0D 0E 0F
      -- -- -- -- -- -- -- --  -- -- -- -- -- -- -- --
05F0:             1A 69 0C 21  00                           .i.!.       
```

#### Opcodes

```
  0: 0x05F4 [0x1A] CALL_SUBROUTINE(address=0x0C69)
  1: 0x05F7 [0x21] END_EVENT
  2: 0x05F8 [0x00] END_REQSTACK()
```

### Event 27

#### Metadata

| Field        | Value   |
|--------------|---------|
| Entrypoint   | 0x05F9  |
| Data Size    | 5 bytes |
| Instructions | 3       |

```
      00 01 02 03 04 05 06 07  08 09 0A 0B 0C 0D 0E 0F
      -- -- -- -- -- -- -- --  -- -- -- -- -- -- -- --
05F0:                             1A 69 0C 21 00                 .i.!.  
```

#### Opcodes

```
  0: 0x05F9 [0x1A] CALL_SUBROUTINE(address=0x0C69)
  1: 0x05FC [0x21] END_EVENT
  2: 0x05FD [0x00] END_REQSTACK()
```

### Event 28

#### Metadata

| Field        | Value   |
|--------------|---------|
| Entrypoint   | 0x05FE  |
| Data Size    | 5 bytes |
| Instructions | 3       |

```
      00 01 02 03 04 05 06 07  08 09 0A 0B 0C 0D 0E 0F
      -- -- -- -- -- -- -- --  -- -- -- -- -- -- -- --
05F0:                                            1A 69                .i
0600: 0C 21 00                                          .!.             
```

#### Opcodes

```
  0: 0x05FE [0x1A] CALL_SUBROUTINE(address=0x0C69)
  1: 0x0601 [0x21] END_EVENT
  2: 0x0602 [0x00] END_REQSTACK()
```

### Event 29

#### Metadata

| Field        | Value   |
|--------------|---------|
| Entrypoint   | 0x0603  |
| Data Size    | 5 bytes |
| Instructions | 3       |

```
      00 01 02 03 04 05 06 07  08 09 0A 0B 0C 0D 0E 0F
      -- -- -- -- -- -- -- --  -- -- -- -- -- -- -- --
0600:          1A 69 0C 21 00                              .i.!.        
```

#### Opcodes

```
  0: 0x0603 [0x1A] CALL_SUBROUTINE(address=0x0C69)
  1: 0x0606 [0x21] END_EVENT
  2: 0x0607 [0x00] END_REQSTACK()
```

### Event 30

#### Metadata

| Field        | Value   |
|--------------|---------|
| Entrypoint   | 0x0608  |
| Data Size    | 5 bytes |
| Instructions | 3       |

```
      00 01 02 03 04 05 06 07  08 09 0A 0B 0C 0D 0E 0F
      -- -- -- -- -- -- -- --  -- -- -- -- -- -- -- --
0600:                          1A 69 0C 21 00                   .i.!.   
```

#### Opcodes

```
  0: 0x0608 [0x1A] CALL_SUBROUTINE(address=0x0C69)
  1: 0x060B [0x21] END_EVENT
  2: 0x060C [0x00] END_REQSTACK()
```

### Event 31

#### Metadata

| Field        | Value   |
|--------------|---------|
| Entrypoint   | 0x060D  |
| Data Size    | 5 bytes |
| Instructions | 3       |

```
      00 01 02 03 04 05 06 07  08 09 0A 0B 0C 0D 0E 0F
      -- -- -- -- -- -- -- --  -- -- -- -- -- -- -- --
0600:                                         1A 69 0C               .i.
0610: 21 00                                             !.              
```

#### Opcodes

```
  0: 0x060D [0x1A] CALL_SUBROUTINE(address=0x0C69)
  1: 0x0610 [0x21] END_EVENT
  2: 0x0611 [0x00] END_REQSTACK()
```

### Event 32

#### Metadata

| Field        | Value   |
|--------------|---------|
| Entrypoint   | 0x0612  |
| Data Size    | 5 bytes |
| Instructions | 3       |

```
      00 01 02 03 04 05 06 07  08 09 0A 0B 0C 0D 0E 0F
      -- -- -- -- -- -- -- --  -- -- -- -- -- -- -- --
0610:       1A 69 0C 21 00                                .i.!.         
```

#### Opcodes

```
  0: 0x0612 [0x1A] CALL_SUBROUTINE(address=0x0C69)
  1: 0x0615 [0x21] END_EVENT
  2: 0x0616 [0x00] END_REQSTACK()
```

### Event 33

#### Metadata

| Field        | Value   |
|--------------|---------|
| Entrypoint   | 0x0617  |
| Data Size    | 5 bytes |
| Instructions | 3       |

```
      00 01 02 03 04 05 06 07  08 09 0A 0B 0C 0D 0E 0F
      -- -- -- -- -- -- -- --  -- -- -- -- -- -- -- --
0610:                      1A  69 0C 21 00                     .i.!.    
```

#### Opcodes

```
  0: 0x0617 [0x1A] CALL_SUBROUTINE(address=0x0C69)
  1: 0x061A [0x21] END_EVENT
  2: 0x061B [0x00] END_REQSTACK()
```

### Event 34

#### Metadata

| Field        | Value   |
|--------------|---------|
| Entrypoint   | 0x061C  |
| Data Size    | 5 bytes |
| Instructions | 3       |

```
      00 01 02 03 04 05 06 07  08 09 0A 0B 0C 0D 0E 0F
      -- -- -- -- -- -- -- --  -- -- -- -- -- -- -- --
0610:                                      1A 69 0C 21              .i.!
0620: 00                                                .               
```

#### Opcodes

```
  0: 0x061C [0x1A] CALL_SUBROUTINE(address=0x0C69)
  1: 0x061F [0x21] END_EVENT
  2: 0x0620 [0x00] END_REQSTACK()
```

### Event 83

#### Metadata

| Field        | Value   |
|--------------|---------|
| Entrypoint   | 0x0621  |
| Data Size    | 5 bytes |
| Instructions | 3       |

```
      00 01 02 03 04 05 06 07  08 09 0A 0B 0C 0D 0E 0F
      -- -- -- -- -- -- -- --  -- -- -- -- -- -- -- --
0620:    1A 69 0C 21 00                                  .i.!.          
```

#### Opcodes

```
  0: 0x0621 [0x1A] CALL_SUBROUTINE(address=0x0C69)
  1: 0x0624 [0x21] END_EVENT
  2: 0x0625 [0x00] END_REQSTACK()
```

### Event 35

#### Metadata

| Field        | Value   |
|--------------|---------|
| Entrypoint   | 0x0626  |
| Data Size    | 5 bytes |
| Instructions | 3       |

```
      00 01 02 03 04 05 06 07  08 09 0A 0B 0C 0D 0E 0F
      -- -- -- -- -- -- -- --  -- -- -- -- -- -- -- --
0620:                   1A 69  0C 21 00                       .i.!.     
```

#### Opcodes

```
  0: 0x0626 [0x1A] CALL_SUBROUTINE(address=0x0C69)
  1: 0x0629 [0x21] END_EVENT
  2: 0x062A [0x00] END_REQSTACK()
```

### Event 36

#### Metadata

| Field        | Value   |
|--------------|---------|
| Entrypoint   | 0x062B  |
| Data Size    | 5 bytes |
| Instructions | 3       |

```
      00 01 02 03 04 05 06 07  08 09 0A 0B 0C 0D 0E 0F
      -- -- -- -- -- -- -- --  -- -- -- -- -- -- -- --
0620:                                   1A 69 0C 21 00             .i.!.
```

#### Opcodes

```
  0: 0x062B [0x1A] CALL_SUBROUTINE(address=0x0C69)
  1: 0x062E [0x21] END_EVENT
  2: 0x062F [0x00] END_REQSTACK()
```

### Event 37

#### Metadata

| Field        | Value   |
|--------------|---------|
| Entrypoint   | 0x0630  |
| Data Size    | 5 bytes |
| Instructions | 3       |

```
      00 01 02 03 04 05 06 07  08 09 0A 0B 0C 0D 0E 0F
      -- -- -- -- -- -- -- --  -- -- -- -- -- -- -- --
0630: 1A 69 0C 21 00                                    .i.!.           
```

#### Opcodes

```
  0: 0x0630 [0x1A] CALL_SUBROUTINE(address=0x0C69)
  1: 0x0633 [0x21] END_EVENT
  2: 0x0634 [0x00] END_REQSTACK()
```

### Event 38

#### Metadata

| Field        | Value   |
|--------------|---------|
| Entrypoint   | 0x0635  |
| Data Size    | 5 bytes |
| Instructions | 3       |

```
      00 01 02 03 04 05 06 07  08 09 0A 0B 0C 0D 0E 0F
      -- -- -- -- -- -- -- --  -- -- -- -- -- -- -- --
0630:                1A 69 0C  21 00                         .i.!.      
```

#### Opcodes

```
  0: 0x0635 [0x1A] CALL_SUBROUTINE(address=0x0C69)
  1: 0x0638 [0x21] END_EVENT
  2: 0x0639 [0x00] END_REQSTACK()
```

### Event 39

#### Metadata

| Field        | Value   |
|--------------|---------|
| Entrypoint   | 0x063A  |
| Data Size    | 5 bytes |
| Instructions | 3       |

```
      00 01 02 03 04 05 06 07  08 09 0A 0B 0C 0D 0E 0F
      -- -- -- -- -- -- -- --  -- -- -- -- -- -- -- --
0630:                                1A 69 0C 21 00               .i.!. 
```

#### Opcodes

```
  0: 0x063A [0x1A] CALL_SUBROUTINE(address=0x0C69)
  1: 0x063D [0x21] END_EVENT
  2: 0x063E [0x00] END_REQSTACK()
```

### Event 40

#### Metadata

| Field        | Value   |
|--------------|---------|
| Entrypoint   | 0x063F  |
| Data Size    | 5 bytes |
| Instructions | 3       |

```
      00 01 02 03 04 05 06 07  08 09 0A 0B 0C 0D 0E 0F
      -- -- -- -- -- -- -- --  -- -- -- -- -- -- -- --
0630:                                               1A                 .
0640: 69 0C 21 00                                       i.!.            
```

#### Opcodes

```
  0: 0x063F [0x1A] CALL_SUBROUTINE(address=0x0C69)
  1: 0x0642 [0x21] END_EVENT
  2: 0x0643 [0x00] END_REQSTACK()
```

### Event 41

#### Metadata

| Field        | Value   |
|--------------|---------|
| Entrypoint   | 0x0644  |
| Data Size    | 5 bytes |
| Instructions | 3       |

```
      00 01 02 03 04 05 06 07  08 09 0A 0B 0C 0D 0E 0F
      -- -- -- -- -- -- -- --  -- -- -- -- -- -- -- --
0640:             1A 69 0C 21  00                           .i.!.       
```

#### Opcodes

```
  0: 0x0644 [0x1A] CALL_SUBROUTINE(address=0x0C69)
  1: 0x0647 [0x21] END_EVENT
  2: 0x0648 [0x00] END_REQSTACK()
```

### Event 42

#### Metadata

| Field        | Value   |
|--------------|---------|
| Entrypoint   | 0x0649  |
| Data Size    | 5 bytes |
| Instructions | 3       |

```
      00 01 02 03 04 05 06 07  08 09 0A 0B 0C 0D 0E 0F
      -- -- -- -- -- -- -- --  -- -- -- -- -- -- -- --
0640:                             1A 69 0C 21 00                 .i.!.  
```

#### Opcodes

```
  0: 0x0649 [0x1A] CALL_SUBROUTINE(address=0x0C69)
  1: 0x064C [0x21] END_EVENT
  2: 0x064D [0x00] END_REQSTACK()
```

### Event 43

#### Metadata

| Field        | Value   |
|--------------|---------|
| Entrypoint   | 0x064E  |
| Data Size    | 5 bytes |
| Instructions | 3       |

```
      00 01 02 03 04 05 06 07  08 09 0A 0B 0C 0D 0E 0F
      -- -- -- -- -- -- -- --  -- -- -- -- -- -- -- --
0640:                                            1A 69                .i
0650: 0C 21 00                                          .!.             
```

#### Opcodes

```
  0: 0x064E [0x1A] CALL_SUBROUTINE(address=0x0C69)
  1: 0x0651 [0x21] END_EVENT
  2: 0x0652 [0x00] END_REQSTACK()
```

### Event 44

#### Metadata

| Field        | Value   |
|--------------|---------|
| Entrypoint   | 0x0653  |
| Data Size    | 5 bytes |
| Instructions | 3       |

```
      00 01 02 03 04 05 06 07  08 09 0A 0B 0C 0D 0E 0F
      -- -- -- -- -- -- -- --  -- -- -- -- -- -- -- --
0650:          1A 69 0C 21 00                              .i.!.        
```

#### Opcodes

```
  0: 0x0653 [0x1A] CALL_SUBROUTINE(address=0x0C69)
  1: 0x0656 [0x21] END_EVENT
  2: 0x0657 [0x00] END_REQSTACK()
```

### Event 45

#### Metadata

| Field        | Value   |
|--------------|---------|
| Entrypoint   | 0x0658  |
| Data Size    | 5 bytes |
| Instructions | 3       |

```
      00 01 02 03 04 05 06 07  08 09 0A 0B 0C 0D 0E 0F
      -- -- -- -- -- -- -- --  -- -- -- -- -- -- -- --
0650:                          1A 69 0C 21 00                   .i.!.   
```

#### Opcodes

```
  0: 0x0658 [0x1A] CALL_SUBROUTINE(address=0x0C69)
  1: 0x065B [0x21] END_EVENT
  2: 0x065C [0x00] END_REQSTACK()
```

### Event 46

#### Metadata

| Field        | Value   |
|--------------|---------|
| Entrypoint   | 0x065D  |
| Data Size    | 5 bytes |
| Instructions | 3       |

```
      00 01 02 03 04 05 06 07  08 09 0A 0B 0C 0D 0E 0F
      -- -- -- -- -- -- -- --  -- -- -- -- -- -- -- --
0650:                                         1A 69 0C               .i.
0660: 21 00                                             !.              
```

#### Opcodes

```
  0: 0x065D [0x1A] CALL_SUBROUTINE(address=0x0C69)
  1: 0x0660 [0x21] END_EVENT
  2: 0x0661 [0x00] END_REQSTACK()
```

### Event 47

#### Metadata

| Field        | Value   |
|--------------|---------|
| Entrypoint   | 0x0662  |
| Data Size    | 5 bytes |
| Instructions | 3       |

```
      00 01 02 03 04 05 06 07  08 09 0A 0B 0C 0D 0E 0F
      -- -- -- -- -- -- -- --  -- -- -- -- -- -- -- --
0660:       1A 69 0C 21 00                                .i.!.         
```

#### Opcodes

```
  0: 0x0662 [0x1A] CALL_SUBROUTINE(address=0x0C69)
  1: 0x0665 [0x21] END_EVENT
  2: 0x0666 [0x00] END_REQSTACK()
```

### Event 48

#### Metadata

| Field        | Value   |
|--------------|---------|
| Entrypoint   | 0x0667  |
| Data Size    | 5 bytes |
| Instructions | 3       |

```
      00 01 02 03 04 05 06 07  08 09 0A 0B 0C 0D 0E 0F
      -- -- -- -- -- -- -- --  -- -- -- -- -- -- -- --
0660:                      1A  69 0C 21 00                     .i.!.    
```

#### Opcodes

```
  0: 0x0667 [0x1A] CALL_SUBROUTINE(address=0x0C69)
  1: 0x066A [0x21] END_EVENT
  2: 0x066B [0x00] END_REQSTACK()
```

### Event 49

#### Metadata

| Field        | Value   |
|--------------|---------|
| Entrypoint   | 0x066C  |
| Data Size    | 5 bytes |
| Instructions | 3       |

```
      00 01 02 03 04 05 06 07  08 09 0A 0B 0C 0D 0E 0F
      -- -- -- -- -- -- -- --  -- -- -- -- -- -- -- --
0660:                                      1A 69 0C 21              .i.!
0670: 00                                                .               
```

#### Opcodes

```
  0: 0x066C [0x1A] CALL_SUBROUTINE(address=0x0C69)
  1: 0x066F [0x21] END_EVENT
  2: 0x0670 [0x00] END_REQSTACK()
```

### Event 84

#### Metadata

| Field        | Value   |
|--------------|---------|
| Entrypoint   | 0x0671  |
| Data Size    | 5 bytes |
| Instructions | 3       |

```
      00 01 02 03 04 05 06 07  08 09 0A 0B 0C 0D 0E 0F
      -- -- -- -- -- -- -- --  -- -- -- -- -- -- -- --
0670:    1A 69 0C 21 00                                  .i.!.          
```

#### Opcodes

```
  0: 0x0671 [0x1A] CALL_SUBROUTINE(address=0x0C69)
  1: 0x0674 [0x21] END_EVENT
  2: 0x0675 [0x00] END_REQSTACK()
```

### Event 53

#### Metadata

| Field        | Value   |
|--------------|---------|
| Entrypoint   | 0x0676  |
| Data Size    | 5 bytes |
| Instructions | 3       |

```
      00 01 02 03 04 05 06 07  08 09 0A 0B 0C 0D 0E 0F
      -- -- -- -- -- -- -- --  -- -- -- -- -- -- -- --
0670:                   1A 69  0C 21 00                       .i.!.     
```

#### Opcodes

```
  0: 0x0676 [0x1A] CALL_SUBROUTINE(address=0x0C69)
  1: 0x0679 [0x21] END_EVENT
  2: 0x067A [0x00] END_REQSTACK()
```

### Event 54

#### Metadata

| Field        | Value   |
|--------------|---------|
| Entrypoint   | 0x067B  |
| Data Size    | 5 bytes |
| Instructions | 3       |

```
      00 01 02 03 04 05 06 07  08 09 0A 0B 0C 0D 0E 0F
      -- -- -- -- -- -- -- --  -- -- -- -- -- -- -- --
0670:                                   1A 69 0C 21 00             .i.!.
```

#### Opcodes

```
  0: 0x067B [0x1A] CALL_SUBROUTINE(address=0x0C69)
  1: 0x067E [0x21] END_EVENT
  2: 0x067F [0x00] END_REQSTACK()
```

### Event 55

#### Metadata

| Field        | Value   |
|--------------|---------|
| Entrypoint   | 0x0680  |
| Data Size    | 5 bytes |
| Instructions | 3       |

```
      00 01 02 03 04 05 06 07  08 09 0A 0B 0C 0D 0E 0F
      -- -- -- -- -- -- -- --  -- -- -- -- -- -- -- --
0680: 1A 69 0C 21 00                                    .i.!.           
```

#### Opcodes

```
  0: 0x0680 [0x1A] CALL_SUBROUTINE(address=0x0C69)
  1: 0x0683 [0x21] END_EVENT
  2: 0x0684 [0x00] END_REQSTACK()
```

### Event 56

#### Metadata

| Field        | Value   |
|--------------|---------|
| Entrypoint   | 0x0685  |
| Data Size    | 5 bytes |
| Instructions | 3       |

```
      00 01 02 03 04 05 06 07  08 09 0A 0B 0C 0D 0E 0F
      -- -- -- -- -- -- -- --  -- -- -- -- -- -- -- --
0680:                1A 69 0C  21 00                         .i.!.      
```

#### Opcodes

```
  0: 0x0685 [0x1A] CALL_SUBROUTINE(address=0x0C69)
  1: 0x0688 [0x21] END_EVENT
  2: 0x0689 [0x00] END_REQSTACK()
```

### Event 57

#### Metadata

| Field        | Value   |
|--------------|---------|
| Entrypoint   | 0x068A  |
| Data Size    | 5 bytes |
| Instructions | 3       |

```
      00 01 02 03 04 05 06 07  08 09 0A 0B 0C 0D 0E 0F
      -- -- -- -- -- -- -- --  -- -- -- -- -- -- -- --
0680:                                1A 69 0C 21 00               .i.!. 
```

#### Opcodes

```
  0: 0x068A [0x1A] CALL_SUBROUTINE(address=0x0C69)
  1: 0x068D [0x21] END_EVENT
  2: 0x068E [0x00] END_REQSTACK()
```

### Event 58

#### Metadata

| Field        | Value   |
|--------------|---------|
| Entrypoint   | 0x068F  |
| Data Size    | 5 bytes |
| Instructions | 3       |

```
      00 01 02 03 04 05 06 07  08 09 0A 0B 0C 0D 0E 0F
      -- -- -- -- -- -- -- --  -- -- -- -- -- -- -- --
0680:                                               1A                 .
0690: 69 0C 21 00                                       i.!.            
```

#### Opcodes

```
  0: 0x068F [0x1A] CALL_SUBROUTINE(address=0x0C69)
  1: 0x0692 [0x21] END_EVENT
  2: 0x0693 [0x00] END_REQSTACK()
```

### Event 59

#### Metadata

| Field        | Value   |
|--------------|---------|
| Entrypoint   | 0x0694  |
| Data Size    | 5 bytes |
| Instructions | 3       |

```
      00 01 02 03 04 05 06 07  08 09 0A 0B 0C 0D 0E 0F
      -- -- -- -- -- -- -- --  -- -- -- -- -- -- -- --
0690:             1A 69 0C 21  00                           .i.!.       
```

#### Opcodes

```
  0: 0x0694 [0x1A] CALL_SUBROUTINE(address=0x0C69)
  1: 0x0697 [0x21] END_EVENT
  2: 0x0698 [0x00] END_REQSTACK()
```

### Event 60

#### Metadata

| Field        | Value   |
