# Event 120

## Metadata

| Field           | Value    |
|-----------------|----------|
| Event Index     | 3/3      |
| Offset          | 0x02AD   |
| Data Size       | 69 bytes |
| Calculated Size | 69 bytes |
| Instructions    | 7        |

```
      00 01 02 03 04 05 06 07  08 09 0A 0B 0C 0D 0E 0F
      -- -- -- -- -- -- -- --  -- -- -- -- -- -- -- --
02A0:                                         24 25 80               $%.
02B0: 01 80 01 80 25 02 00 10  01 80 00 C6 02 03 01 10  ....%...........
02C0: 01 80 21 01 F0 02 02 00  10 05 80 00 DB 02 03 01  ..!.............
02D0: 10 05 80 03 02 10 01 80  01 F0 02 02 00 10 06 80  ................
02E0: 00 F0 02 03 01 10 06 80  03 02 10 05 80 01 F0 02  ................
02F0: 21 00                                             !.              
```

## Opcodes

```
  0: 0x02AD [0x24] CREATE_DIALOG(message_id=8387*, default_option=0*, option_flags=0*)
    → "\u0002G\u00021\u0002)\u0002g\u000En\u0002_\u0002\\u00027\u0002)\u0001H\u0007\u000B\u0002b\u0002_\u0002i\u0007\u0003E\u0003B\u0003\u0013\u0003_\u0003X\u0002P\u0002P\u0007\u0003E\u0003B\u0003\u0013\u0003_\u0003X\u0002P\u0002Q\u007F1\u0000\u0007"
  1: 0x02B4 [0x25] WAIT_DIALOG_SELECT()
  2: 0x02B5 [0x02] IF !(Work_Zone[0] == 0*) GOTO 0x02C6
  3: 0x02BD [0x03] Work_Zone[1] = 0*
  4: 0x02C2 [0x21] END_EVENT

SUBROUTINE_02F0:
  5: 0x02F0 [0x21] END_EVENT
  6: 0x02F1 [0x00] END_REQSTACK()
```

## Data or dead code:

```
# Dead code (unreachable instructions):
     0x02C3 [0x01] GOTO 0x02F0
```