# Event 65535

## Metadata

| Field           | Value    |
|-----------------|----------|
| Event Index     | 7/8      |
| Offset          | 0x002A   |
| Data Size       | 44 bytes |
| Calculated Size | 44 bytes |
| Instructions    | 5        |

```
      00 01 02 03 04 05 06 07  08 09 0A 0B 0C 0D 0E 0F
      -- -- -- -- -- -- -- --  -- -- -- -- -- -- -- --
0020:                                AE 00 08 80 01 80            ......
0030: 9F 09 80 73 A0 00 01 73  A0 00 01 6D 61 69 6E 02  ...s...s...main.
0040: 80 1C 0A 80 9F 09 80 72  A0 00 01 72 A0 00 01 6D  .......r...r...m
0050: 61 69 6E 02 80 00                                 ain...          
```

## Opcodes

```
  0: 0x002A [0xAE] MULTI_PURPOSE_ENTITY_HANDLER(case_type=0x00 - Weather, param1=References[8], param2=References[1])
  1: 0x0030 [0x9F] LOAD_SCHEDULED_TASK_ALT: Load scheduler "main" with entities [Diabolos (ID: 16818291/0x0100A073), Diabolos (ID: 16818291/0x0100A073)], work=[85*, 0*]
  2: 0x0041 [0x1C] WAIT(180* ticks)
  3: 0x0044 [0x9F] LOAD_SCHEDULED_TASK_ALT: Load scheduler "main" with entities [Diabolos (ID: 16818290/0x0100A072), Diabolos (ID: 16818290/0x0100A072)], work=[85*, 0*]
  4: 0x0055 [0x00] END_REQSTACK()
```
