# Event 65535

## Metadata

| Field           | Value    |
|-----------------|----------|
| Event Index     | 45/46    |
| Offset          | 0x029F   |
| Data Size       | 40 bytes |
| Calculated Size | 40 bytes |
| Instructions    | 11       |

```
      00 01 02 03 04 05 06 07  08 09 0A 0B 0C 0D 0E 0F
      -- -- -- -- -- -- -- --  -- -- -- -- -- -- -- --
0290:                                               1C                 .
02A0: 37 80 32 01 80 1F 00 2F  80 30 80 14 80 1F 01 1F  7.2..../.0......
02B0: 00 31 80 32 80 33 80 1F  01 1F 00 34 80 35 80 36  .1.2.3.....4.5.6
02C0: 80 1F 01 6F 22 01 00                              ...o"..         
```

## Opcodes

```
  0: 0x029F [0x1C] WAIT(80* ticks)
  1: 0x02A2 [0x32] ExtData[1]->MainSpeed = 30* * 0.1
  2: 0x02A5 [0x1F] MOVE_ENTITY: EventEntity moves to X=-26.226*, Z=259.324*, Y=-13.000*
  3: 0x02AD [0x1F] MOVE_ENTITY: Update entity position (mode=1)
  4: 0x02AF [0x1F] MOVE_ENTITY: EventEntity moves to X=-27.401*, Z=255.879*, Y=-12.474*
  5: 0x02B7 [0x1F] MOVE_ENTITY: Update entity position (mode=1)
  6: 0x02B9 [0x1F] MOVE_ENTITY: EventEntity moves to X=-38.903*, Z=244.043*, Y=-12.499*
  7: 0x02C1 [0x1F] MOVE_ENTITY: Update entity position (mode=1)
  8: 0x02C3 [0x6F] WAIT_FRAME_DELAY: Yield until WaitTime reaches zero
  9: 0x02C4 [0x22] ENTITY_HIDE_FLAG(enabled=0x01)
 10: 0x02C6 [0x00] END_REQSTACK()
```
