# Event 65535

## Metadata

| Field           | Value    |
|-----------------|----------|
| Event Index     | 44/46    |
| Offset          | 0x027A   |
| Data Size       | 37 bytes |
| Calculated Size | 37 bytes |
| Instructions    | 10       |

```
      00 01 02 03 04 05 06 07  08 09 0A 0B 0C 0D 0E 0F
      -- -- -- -- -- -- -- --  -- -- -- -- -- -- -- --
0270:                                32 01 80 1F 00 2F            2..../
0280: 80 30 80 14 80 1F 01 1F  00 31 80 32 80 33 80 1F  .0.......1.2.3..
0290: 01 1F 00 34 80 35 80 36  80 1F 01 6F 22 01 00     ...4.5.6...o".. 
```

## Opcodes

```
  0: 0x027A [0x32] ExtData[1]->MainSpeed = 30* * 0.1
  1: 0x027D [0x1F] MOVE_ENTITY: EventEntity moves to X=-26.226*, Z=259.324*, Y=-13.000*
  2: 0x0285 [0x1F] MOVE_ENTITY: Update entity position (mode=1)
  3: 0x0287 [0x1F] MOVE_ENTITY: EventEntity moves to X=-27.401*, Z=255.879*, Y=-12.474*
  4: 0x028F [0x1F] MOVE_ENTITY: Update entity position (mode=1)
  5: 0x0291 [0x1F] MOVE_ENTITY: EventEntity moves to X=-38.903*, Z=244.043*, Y=-12.499*
  6: 0x0299 [0x1F] MOVE_ENTITY: Update entity position (mode=1)
  7: 0x029B [0x6F] WAIT_FRAME_DELAY: Yield until WaitTime reaches zero
  8: 0x029C [0x22] ENTITY_HIDE_FLAG(enabled=0x01)
  9: 0x029E [0x00] END_REQSTACK()
```
