# Event 65535

## Metadata

| Field           | Value    |
|-----------------|----------|
| Event Index     | 32/46    |
| Offset          | 0x01CE   |
| Data Size       | 44 bytes |
| Calculated Size | 44 bytes |
| Instructions    | 10       |

```
      00 01 02 03 04 05 06 07  08 09 0A 0B 0C 0D 0E 0F
      -- -- -- -- -- -- -- --  -- -- -- -- -- -- -- --
01C0:                                            29 08                ).
01D0: 18 F0 0E 01 03 1D 16 80  23 29 08 18 F0 0E 01 05  ........#)......
01E0: 29 08 18 F0 0E 01 06 29  08 18 F0 0E 01 01 1D 17  )......)........
01F0: 80 23 29 08 18 F0 0E 01  02 00                    .#).......      
```

## Opcodes

```
  0: 0x01CE [0x29] REQ_SET_WAIT(priority=0x08, entity_id=Nanaa Mihgo (ID: 17756184/0x010EF018), tag_num=0x03)
  1: 0x01D5 [0x1D] PRINT_EVENT_MESSAGE(message_id=7811*)
    → "Oh, you'd betterrr be carrreful then. Sounds like you'rrre making me out to be some kind of baddy, or something?\u007F1\u0000\u0007"
  2: 0x01D8 [0x23] WAIT_FOR_DIALOG_INTERACTION
  3: 0x01D9 [0x29] REQ_SET_WAIT(priority=0x08, entity_id=Nanaa Mihgo (ID: 17756184/0x010EF018), tag_num=0x05)
  4: 0x01E0 [0x29] REQ_SET_WAIT(priority=0x08, entity_id=Nanaa Mihgo (ID: 17756184/0x010EF018), tag_num=0x06)
  5: 0x01E7 [0x29] REQ_SET_WAIT(priority=0x08, entity_id=Nanaa Mihgo (ID: 17756184/0x010EF018), tag_num=0x01)
  6: 0x01EE [0x1D] PRINT_EVENT_MESSAGE(message_id=7812*)
    → "If you're out to stop baddies, then you should be chasing after the Minister of the Orastery, Ajido-Marujido, not me! He's the one to watch, you know?\u007F1\u0000\u0007"
  7: 0x01F1 [0x23] WAIT_FOR_DIALOG_INTERACTION
  8: 0x01F2 [0x29] REQ_SET_WAIT(priority=0x08, entity_id=Nanaa Mihgo (ID: 17756184/0x010EF018), tag_num=0x02)
  9: 0x01F9 [0x00] END_REQSTACK()
```
