# Event 266

## Metadata

| Field           | Value    |
|-----------------|----------|
| Event Index     | 3/8      |
| Offset          | 0x0041   |
| Data Size       | 29 bytes |
| Calculated Size | 29 bytes |
| Instructions    | 11       |

```
      00 01 02 03 04 05 06 07  08 09 0A 0B 0C 0D 0E 0F
      -- -- -- -- -- -- -- --  -- -- -- -- -- -- -- --
0040:    1E F0 FF FF 7F 1D 0B  80 23 1D 09 80 23 03 02   ........#...#..
0050: 10 03 80 03 03 10 05 80  1D 0A 80 23 21 00        ...........#!.  
```

## Opcodes

```
  0: 0x0041 [0x1E] EventEntity looks at LocalPlayer and starts talking
  1: 0x0046 [0x1D] PRINT_EVENT_MESSAGE(message_id=7990*)
    → "Ho there! How go your recon efforts?\u0007If you've got any soulprints for us, just hand them over.\u007F1\u0000\u0007"
  2: 0x0049 [0x23] WAIT_FOR_DIALOG_INTERACTION
  3: 0x004A [0x1D] PRINT_EVENT_MESSAGE(message_id=7988*)
    → "Mind you, it's not the rank and file we're investigating here.\u0007Only the most powerful foes concern us--those whose strength is impossible to judge with the naked eye.\u007F1\u0000\u0007"
  4: 0x004D [0x23] WAIT_FOR_DIALOG_INTERACTION
  5: 0x004E [0x03] Work_Zone[2] = 18679*
  6: 0x0053 [0x03] Work_Zone[3] = 18680*
  7: 0x0058 [0x1D] PRINT_EVENT_MESSAGE(message_id=7989*)
    → "If you're up to the task, you'll find a spare \u0001\u0005#\u0002\u0000\u0000\u0000 and \u0001\u0005%\u0002\u0001\u0000\u0000 in that casket over there.\u0007Be careful out there, and good hunting!\u007F1\u0000\u0007"
  8: 0x005B [0x23] WAIT_FOR_DIALOG_INTERACTION
  9: 0x005C [0x21] END_EVENT
 10: 0x005D [0x00] END_REQSTACK()
```
