# 17818249 - Wolfgang

## Common Data

| Field            | Value                        |
|------------------|------------------------------|
| Zone             | Abyssea - Grauberg (ID: 254) |
| Block Size       | 220 bytes                    |
| Total Events     | 3                            |
| References Count | 15                           |

## List of Events

| Event ID              | Entrypoint   |   Size |   Instructions |
|-----------------------|--------------|--------|----------------|
| [65535](#event-65535) | 0x0000       |      1 |              1 |
| [274](#event-274)     | 0x0001       |     33 |              9 |
| [267](#event-267)     | 0x0022       |     97 |             27 |

## DAT References (imed_data)

|   Index | Hex Value   |   Dec Value |
|---------|-------------|-------------|
|       0 | 0x001E      |          30 |
|       1 | 0x0000      |           0 |
|       2 | 0x202A      |        8234 |
|       3 | 0x202B      |        8235 |
|       4 | 0x0064      |         100 |
|       5 | 0x2032      |        8242 |
|       6 | 0x004B      |          75 |
|       7 | 0x2031      |        8241 |
|       8 | 0x0032      |          50 |
|       9 | 0x2030      |        8240 |
|      10 | 0x0019      |          25 |
|      11 | 0x202E      |        8238 |
|      12 | 0x202F      |        8239 |
|      13 | 0x202C      |        8236 |
|      14 | 0x202D      |        8237 |

## String References

- **8234**: We, the remnants of the Ducal Guard, consider it our mission to purge the area of Abyssean fiends.
- **8235**: Needless to say, this is an uphill struggle, and we can never have enough willing sword arms. Pray lend us yours, friend.
- **8236**: Curse those Abyssean fiends... Their strength is even greater than first anticipated.
- **8237**: They have forced us into the corner. Unless we can break their impetus, our cause is doomed. I implore you! Help us stay the enemy's vicious onslaught!
- **8238**: Our defenses stand firm against the enemy, yet we cannot content ourselves with this situation.
- **8239**: Victory can never belong to the besieged--no gust of wind will drop this sweet fruit into our palms. No, we must seize it of our own accord, even if it can be reached only from atop a mountain of slain Abyssean fiends.
- **8240**: We've managed to win a foothold in our fight against the Abyssean fiends. On no account must we relinquish this gain. We press onward!
- **8241**: We're well-positioned to deliver the killing blow. The enemy's turn to know fear is come!
- **8242**: Our efforts have finally borne fruit. So long as we remain vigilant, the Abyssean hordes will terrorize Grauberg no more.

## Events

### Event 65535

#### Metadata

| Field        | Value   |
|--------------|---------|
| Entrypoint   | 0x0000  |
| Data Size    | 1 bytes |
| Instructions | 1       |

```
      00 01 02 03 04 05 06 07  08 09 0A 0B 0C 0D 0E 0F
      -- -- -- -- -- -- -- --  -- -- -- -- -- -- -- --
0000: 00                                                .               
```

#### Opcodes

```
  0: 0x0000 [0x00] END_REQSTACK()
```

### Event 274

#### Metadata

| Field        | Value    |
|--------------|----------|
| Entrypoint   | 0x0001   |
| Data Size    | 33 bytes |
| Instructions | 9        |

```
      00 01 02 03 04 05 06 07  08 09 0A 0B 0C 0D 0E 0F
      -- -- -- -- -- -- -- --  -- -- -- -- -- -- -- --
0000:    1E F0 FF FF 7F 1C 00  80 66 01 80 F8 FF FF 7F   ........f......
0010: F8 FF FF 7F 74 6C 6B 30  1D 02 80 23 1D 03 80 23  ....tlk0...#...#
0020: 21 00                                             !.              
```

#### Opcodes

```
  0: 0x0001 [0x1E] EventEntity looks at LocalPlayer and starts talking
  1: 0x0006 [0x1C] WAIT(30* ticks)
  2: 0x0009 [0x66] LOAD_EXT_SCHEDULER_MAIN: Load scheduler "tlk0" with entities [EventEntity, EventEntity], work=0*
  3: 0x0018 [0x1D] PRINT_EVENT_MESSAGE(message_id=8234*)
    → "We, the remnants of the Ducal Guard, consider it our mission to purge the area of Abyssean fiends."
  4: 0x001B [0x23] WAIT_FOR_DIALOG_INTERACTION
  5: 0x001C [0x1D] PRINT_EVENT_MESSAGE(message_id=8235*)
    → "Needless to say, this is an uphill struggle, and we can never have enough willing sword arms. Pray lend us yours, friend."
  6: 0x001F [0x23] WAIT_FOR_DIALOG_INTERACTION
  7: 0x0020 [0x21] END_EVENT
  8: 0x0021 [0x00] END_REQSTACK()
```

### Event 267

#### Metadata

| Field        | Value    |
|--------------|----------|
| Entrypoint   | 0x0022   |
| Data Size    | 97 bytes |
| Instructions | 27       |

```
      00 01 02 03 04 05 06 07  08 09 0A 0B 0C 0D 0E 0F
      -- -- -- -- -- -- -- --  -- -- -- -- -- -- -- --
0020:       1E F0 FF FF 7F 1C  00 80 66 01 80 F8 FF FF    ........f.....
0030: 7F F8 FF FF 7F 74 6C 6B  31 02 02 10 04 80 00 48  .....tlk1......H
0040: 00 1D 05 80 23 01 81 00  02 02 10 06 80 04 57 00  ....#.........W.
0050: 1D 07 80 23 01 81 00 02  02 10 08 80 04 66 00 1D  ...#.........f..
0060: 09 80 23 01 81 00 02 02  10 0A 80 04 79 00 1D 0B  ..#.........y...
0070: 80 23 1D 0C 80 23 01 81  00 1D 0D 80 23 1D 0E 80  .#...#......#...
0080: 23 21 00                                          #!.             
```

#### Opcodes

```
  0: 0x0022 [0x1E] EventEntity looks at LocalPlayer and starts talking
  1: 0x0027 [0x1C] WAIT(30* ticks)
  2: 0x002A [0x66] LOAD_EXT_SCHEDULER_MAIN: Load scheduler "tlk1" with entities [EventEntity, EventEntity], work=0*
  3: 0x0039 [0x02] IF !(Work_Zone[2] == 100*) GOTO 0x0048
  4: 0x0041 [0x1D] PRINT_EVENT_MESSAGE(message_id=8242*)
    → "Our efforts have finally borne fruit. So long as we remain vigilant, the Abyssean hordes will terrorize Grauberg no more."
  5: 0x0044 [0x23] WAIT_FOR_DIALOG_INTERACTION
  6: 0x0045 [0x01] GOTO 0x0081
  7: 0x0048 [0x02] IF !(Work_Zone[2] < 75*) GOTO 0x0057
  8: 0x0050 [0x1D] PRINT_EVENT_MESSAGE(message_id=8241*)
    → "We're well-positioned to deliver the killing blow. The enemy's turn to know fear is come!"
  9: 0x0053 [0x23] WAIT_FOR_DIALOG_INTERACTION
 10: 0x0054 [0x01] GOTO 0x0081
 11: 0x0057 [0x02] IF !(Work_Zone[2] < 50*) GOTO 0x0066
 12: 0x005F [0x1D] PRINT_EVENT_MESSAGE(message_id=8240*)
    → "We've managed to win a foothold in our fight against the Abyssean fiends. On no account must we relinquish this gain. We press onward!"
 13: 0x0062 [0x23] WAIT_FOR_DIALOG_INTERACTION
 14: 0x0063 [0x01] GOTO 0x0081
 15: 0x0066 [0x02] IF !(Work_Zone[2] < 25*) GOTO 0x0079
 16: 0x006E [0x1D] PRINT_EVENT_MESSAGE(message_id=8238*)
    → "Our defenses stand firm against the enemy, yet we cannot content ourselves with this situation."
 17: 0x0071 [0x23] WAIT_FOR_DIALOG_INTERACTION
 18: 0x0072 [0x1D] PRINT_EVENT_MESSAGE(message_id=8239*)
    → "Victory can never belong to the besieged--no gust of wind will drop this sweet fruit into our palms. No, we must seize it of our own accord, even if it can be reached only from atop a mountain of slain Abyssean fiends."
 19: 0x0075 [0x23] WAIT_FOR_DIALOG_INTERACTION
 20: 0x0076 [0x01] GOTO 0x0081
 21: 0x0079 [0x1D] PRINT_EVENT_MESSAGE(message_id=8236*)
    → "Curse those Abyssean fiends... Their strength is even greater than first anticipated."
 22: 0x007C [0x23] WAIT_FOR_DIALOG_INTERACTION
 23: 0x007D [0x1D] PRINT_EVENT_MESSAGE(message_id=8237*)
    → "They have forced us into the corner. Unless we can break their impetus, our cause is doomed. I implore you! Help us stay the enemy's vicious onslaught!"
 24: 0x0080 [0x23] WAIT_FOR_DIALOG_INTERACTION

SUBROUTINE_0081:
 25: 0x0081 [0x21] END_EVENT
 26: 0x0082 [0x00] END_REQSTACK()
```
