# 17818229 - Eight of Clubs

## Common Data

| Field            | Value                        |
|------------------|------------------------------|
| Zone             | Abyssea - Grauberg (ID: 254) |
| Block Size       | 808 bytes                    |
| Total Events     | 10                           |
| References Count | 46                           |

## List of Events

| Event ID              | Entrypoint   |   Size |   Instructions |
|-----------------------|--------------|--------|----------------|
| [65535](#event-65535) | 0x0000       |      1 |              1 |
| [209](#event-209)     | 0x0001       |     29 |              7 |
| [210](#event-210)     | 0x001E       |     47 |             15 |
| [211](#event-211)     | 0x004D       |     29 |              7 |
| [212](#event-212)     | 0x006A       |     55 |             19 |
| [213](#event-213)     | 0x00A1       |     29 |              7 |
| [214](#event-214)     | 0x00BE       |    259 |             57 |
| [215](#event-215)     | 0x01C1       |     29 |              7 |
| [222](#event-222)     | 0x01DE       |     76 |             18 |
| [223](#event-223)     | 0x022A       |     14 |              6 |

## DAT References (imed_data)

|   Index | Hex Value   |   Dec Value |
|---------|-------------|-------------|
|       0 | 0x001E      |          30 |
|       1 | 0x00B5      |         181 |
|       2 | 0x1F23      |        7971 |
|       3 | 0x06AF      |        1711 |
|       4 | 0x1F24      |        7972 |
|       5 | 0x1F25      |        7973 |
|       6 | 0x1F26      |        7974 |
|       7 | 0x1F27      |        7975 |
|       8 | 0x1F28      |        7976 |
|       9 | 0x1F37      |        7991 |
|      10 | 0x1F38      |        7992 |
|      11 | 0x1F39      |        7993 |
|      12 | 0x1F3A      |        7994 |
|      13 | 0x1F3B      |        7995 |
|      14 | 0x1F3C      |        7996 |
|      15 | 0x1F3D      |        7997 |
|      16 | 0x1F3F      |        7999 |
|      17 | 0x1F40      |        8000 |
|      18 | 0x1F41      |        8001 |
|      19 | 0x1F42      |        8002 |
|      20 | 0x1F43      |        8003 |
|      21 | 0x1F44      |        8004 |
|      22 | 0x1F45      |        8005 |
|      23 | 0x005A      |          90 |
|      24 | 0x06B0      |        1712 |
|      25 | 0x1F46      |        8006 |
|      26 | 0x1F47      |        8007 |
|      27 | 0x1F48      |        8008 |
|      28 | 0x1F49      |        8009 |
|      29 | 0x1F4A      |        8010 |
|      30 | 0x1F4B      |        8011 |
|      31 | 0x1F4C      |        8012 |
|      32 | 0x1F4D      |        8013 |
|      33 | 0x1F4E      |        8014 |
|      34 | 0x1F4F      |        8015 |
|      35 | 0x1F50      |        8016 |
|      36 | 0x1F51      |        8017 |
|      37 | 0x1F52      |        8018 |
|      38 | 0x00C9      |         201 |
|      39 | 0x0000      |           0 |
|      40 | 0x1F67      |        8039 |
|      41 | 0x1F68      |        8040 |
|      42 | 0x1F69      |        8041 |
|      43 | 0x1F6A      |        8042 |
|      44 | 0x1F6B      |        8043 |
|      45 | 0x1F6C      |        8044 |

## String References

- **7971**: EiGht oF CLuBs$26Is eVer VigILanT.
- **7972**: You sEEk a sQUat$26PersON wHO weARs YeL-LoW$26And Has $6?
- **7973**: THen yoUR miSSion$26iS aCCom-PLishED. EiGhT oF CluBS Is$26sAId pERson. eIgHT of cLubs$6.
- **7974**: YoU wISh to$26Bor-ROW tHIs fRom$26eIGht Of CLubs?
- **7975**: EighT of cLUbS$26is HapPY to OBlige. But plEasE reMEMber$26tO reTURn iT.
- **7976**: plEasE reMEMber$26tO reTURn iT.
- **7991**: You hAVe$26BRoughT baCK$3$26fOr eiGhT of clUbS?
- **7992**: HmmM...$26 Mas-TER iS SLow$26to reTURn.
- **7993**: mAS-teR sTRuck$26eaST, bUt haS Not$26CoMe bAck.
- **7994**: ShouLD You heAD$26tHat WAy, CouLD You$26trY tO FInd MaS-Ter?
- **7995**: EiGHt OF cLuBS$26Is Com-maNDed To$26stANd viGiL heRe.
- **7996**: eIghT Of CLubs$26iS A gOOd cARdIan. GooD cArDians$26oBEy cOM-ManD.
- **7997**: mAS-teR sTRuck$26eaST, bUt haS Not$26CoMe bAck. ShouLD You heAD$26tHat WAy, CouLD You$26trY tO FInd MaS-Ter?
- **7999**: So maS-teR waS$26noT TheRe...
- **8000**: tHAnK yOu foR bRingING$26thiS inFOR-matION. pLeaSE aCCepT thIs$26foR yOUr trouBleS.
- **8001**: HmmM?$26 ThaT sTONe iS$26fAmiLIAr to mE.
- **8002**: ...!$26 CouLD iT be...$26fRoM mY $3?
- **8003**: No, tHaT iS HigHLy$26imPRobaBLe.
- **8004**: HoW couLD THe sToNe$26fRom EigHT oF cLUbs'$3 bE In$26anOTheR LocaTiON?
- **8005**: Eight of Clubs fearfully opens his $3.
- **8006**: ...And tries to set the $3 into the slot.
- **8007**: It's a perfect fit!
- **8008**: ...!!!$26
- **8009**: nOoOoOoOoO!$26MeMory AccEss...ResToRed!$26I rEMemBER... No!$26 SpARe Me tHE$26paINfuL meMoRies!$26mY CirCuitRY...oVerLoaDiNG!$26aH, tHe aGOnY!$26
- **8010**: ... iT Was a LoNg$26Time aGO.
- **8011**: Mas-Ter cOm-mANded$26EiGht oF CluBs To reMaiN hEre,$26aND deParTed On a JouRNeY$26wiTH ANotHer CaRdIan.
- **8012**: muCh TIme paSSeD,$26YEt mAS-TeR DiD noT reTUrn. EIght of cLUbs couLD$26sTanD And waIt NO moRe.
- **8013**: And SO eIghT of cLubS$26diSoBeyED CoM-Mand,$26aND LeFT To seARch$26foR Mas-Ter.
- **8014**: buT tHE SeaRCh$26eNded In tRAgedY. In tHe WiLdeRneSS,$26EiGht oF cLubs fOunD$26the EsCorT caRdiAN$26kEEninG in gRiEF OveR$26tHe Life-leSS boDy oF mAS-teR.
- **8015**: aND tHen THat$26pERson aPPeareD.
- **8016**: LiKe a bReaTH oF wiND$26SHe cAMe anD tOOk$26aWay ouR meMOrieS...$26Our pAIn...
- **8017**: OoOoOoh mY CirCuiTs.$26StArTing to sEE BluE.$26 MY HeaD--suCH thAT$26iT iS--fEELs rIPe$26To SpLit...
- **8018**: I aM soRRy,$26buT pLeASe LeAVe mE$26Be foR a WhiLe.
- **8039**: EIghT oF cLUbs hAs dONe$26MuCh tHinkIng sINce tHen.
- **8040**: eIGht of CLubs Is GraTefUL$26tO hAVe hIs mEmoRies Back.
- **8041**: aLL MeMoRies of mAsteR,$26be TheY hAppY oR SAd, Are tReaSUres$26to EighT of ClubS.
- **8042**: YoU saY ThAt tHe$26sTraNger wHo pAssEd bY$26ThAt dAY iS wOrriEd$26aBoUt EiGht Of CluBs?
- **8043**: PLeaSe teLL Her tHat eIGHt$26of cLUBs Is fAriNG wEll.
- **8044**: PLeaSe teLL the kINdLy$26sTranGer tHat eIGHt of$26cLUBs Is fAriNG wEll.

## Events

### Event 65535

#### Metadata

| Field        | Value   |
|--------------|---------|
| Entrypoint   | 0x0000  |
| Data Size    | 1 bytes |
| Instructions | 1       |

```
      00 01 02 03 04 05 06 07  08 09 0A 0B 0C 0D 0E 0F
      -- -- -- -- -- -- -- --  -- -- -- -- -- -- -- --
0000: 00                                                .               
```

#### Opcodes

```
  0: 0x0000 [0x00] END_REQSTACK()
```

### Event 209

#### Metadata

| Field        | Value    |
|--------------|----------|
| Entrypoint   | 0x0001   |
| Data Size    | 29 bytes |
| Instructions | 7        |

```
      00 01 02 03 04 05 06 07  08 09 0A 0B 0C 0D 0E 0F
      -- -- -- -- -- -- -- --  -- -- -- -- -- -- -- --
0000:    1E F0 FF FF 7F 1C 00  80 5B 01 80 F8 FF FF 7F   ........[......
0010: F8 FF FF 7F 74 6C 61 30  1D 02 80 23 21 00        ....tla0...#!.  
```

#### Opcodes

```
  0: 0x0001 [0x1E] EventEntity looks at LocalPlayer and starts talking
  1: 0x0006 [0x1C] WAIT(30* ticks)
  2: 0x0009 [0x5B] LOAD_EXT_SCHEDULER: Load scheduler "tla0" with entities [EventEntity, EventEntity], work=181*
  3: 0x0018 [0x1D] PRINT_EVENT_MESSAGE(message_id=7971*)
    → "EiGht oF CLuBs$26Is eVer VigILanT."
  4: 0x001B [0x23] WAIT_FOR_DIALOG_INTERACTION
  5: 0x001C [0x21] END_EVENT
  6: 0x001D [0x00] END_REQSTACK()
```

### Event 210

#### Metadata

| Field        | Value    |
|--------------|----------|
| Entrypoint   | 0x001E   |
| Data Size    | 47 bytes |
| Instructions | 15       |

```
      00 01 02 03 04 05 06 07  08 09 0A 0B 0C 0D 0E 0F
      -- -- -- -- -- -- -- --  -- -- -- -- -- -- -- --
0010:                                            42 1E                B.
0020: F0 FF FF 7F 1C 00 80 03  02 10 03 80 1D 04 80 23  ...............#
0030: 5B 01 80 F8 FF FF 7F F8  FF FF 7F 74 6C 61 30 1D  [..........tla0.
0040: 05 80 23 1D 06 80 23 1D  07 80 23 21 00           ..#...#...#!.   
```

#### Opcodes

```
  0: 0x001E [0x42] SET_CLI_EVENT_CANCEL_DATA()
  1: 0x001F [0x1E] EventEntity looks at LocalPlayer and starts talking
  2: 0x0024 [0x1C] WAIT(30* ticks)
  3: 0x0027 [0x03] Work_Zone[2] = 1711*
  4: 0x002C [0x1D] PRINT_EVENT_MESSAGE(message_id=7972*)
    → "You sEEk a sQUat$26PersON wHO weARs YeL-LoW$26And Has $6?"
  5: 0x002F [0x23] WAIT_FOR_DIALOG_INTERACTION
  6: 0x0030 [0x5B] LOAD_EXT_SCHEDULER: Load scheduler "tla0" with entities [EventEntity, EventEntity], work=181*
  7: 0x003F [0x1D] PRINT_EVENT_MESSAGE(message_id=7973*)
    → "THen yoUR miSSion$26iS aCCom-PLishED. EiGhT oF CluBS Is$26sAId pERson. eIgHT of cLubs$6."
  8: 0x0042 [0x23] WAIT_FOR_DIALOG_INTERACTION
  9: 0x0043 [0x1D] PRINT_EVENT_MESSAGE(message_id=7974*)
    → "YoU wISh to$26Bor-ROW tHIs fRom$26eIGht Of CLubs?"
 10: 0x0046 [0x23] WAIT_FOR_DIALOG_INTERACTION
 11: 0x0047 [0x1D] PRINT_EVENT_MESSAGE(message_id=7975*)
    → "EighT of cLUbS$26is HapPY to OBlige. But plEasE reMEMber$26tO reTURn iT."
 12: 0x004A [0x23] WAIT_FOR_DIALOG_INTERACTION
 13: 0x004B [0x21] END_EVENT
 14: 0x004C [0x00] END_REQSTACK()
```

### Event 211

#### Metadata

| Field        | Value    |
|--------------|----------|
| Entrypoint   | 0x004D   |
| Data Size    | 29 bytes |
| Instructions | 7        |

```
      00 01 02 03 04 05 06 07  08 09 0A 0B 0C 0D 0E 0F
      -- -- -- -- -- -- -- --  -- -- -- -- -- -- -- --
0040:                                         1E F0 FF               ...
0050: FF 7F 1C 00 80 5B 01 80  F8 FF FF 7F F8 FF FF 7F  .....[..........
0060: 74 6C 61 30 1D 08 80 23  21 00                    tla0...#!.      
```

#### Opcodes

```
  0: 0x004D [0x1E] EventEntity looks at LocalPlayer and starts talking
  1: 0x0052 [0x1C] WAIT(30* ticks)
  2: 0x0055 [0x5B] LOAD_EXT_SCHEDULER: Load scheduler "tla0" with entities [EventEntity, EventEntity], work=181*
  3: 0x0064 [0x1D] PRINT_EVENT_MESSAGE(message_id=7976*)
    → "plEasE reMEMber$26tO reTURn iT."
  4: 0x0067 [0x23] WAIT_FOR_DIALOG_INTERACTION
  5: 0x0068 [0x21] END_EVENT
  6: 0x0069 [0x00] END_REQSTACK()
```

### Event 212

#### Metadata

| Field        | Value    |
|--------------|----------|
| Entrypoint   | 0x006A   |
| Data Size    | 55 bytes |
| Instructions | 19       |

```
      00 01 02 03 04 05 06 07  08 09 0A 0B 0C 0D 0E 0F
      -- -- -- -- -- -- -- --  -- -- -- -- -- -- -- --
0060:                                42 1E F0 FF FF 7F            B.....
0070: 1C 00 80 5B 01 80 F8 FF  FF 7F F8 FF FF 7F 74 6C  ...[..........tl
0080: 61 30 03 02 10 03 80 1D  09 80 23 1D 0A 80 23 1D  a0........#...#.
0090: 0B 80 23 1D 0C 80 23 1D  0D 80 23 1D 0E 80 23 21  ..#...#...#...#!
00A0: 00                                                .               
```

#### Opcodes

```
  0: 0x006A [0x42] SET_CLI_EVENT_CANCEL_DATA()
  1: 0x006B [0x1E] EventEntity looks at LocalPlayer and starts talking
  2: 0x0070 [0x1C] WAIT(30* ticks)
  3: 0x0073 [0x5B] LOAD_EXT_SCHEDULER: Load scheduler "tla0" with entities [EventEntity, EventEntity], work=181*
  4: 0x0082 [0x03] Work_Zone[2] = 1711*
  5: 0x0087 [0x1D] PRINT_EVENT_MESSAGE(message_id=7991*)
    → "You hAVe$26BRoughT baCK$3$26fOr eiGhT of clUbS?"
  6: 0x008A [0x23] WAIT_FOR_DIALOG_INTERACTION
  7: 0x008B [0x1D] PRINT_EVENT_MESSAGE(message_id=7992*)
    → "HmmM...$26 Mas-TER iS SLow$26to reTURn."
  8: 0x008E [0x23] WAIT_FOR_DIALOG_INTERACTION
  9: 0x008F [0x1D] PRINT_EVENT_MESSAGE(message_id=7993*)
    → "mAS-teR sTRuck$26eaST, bUt haS Not$26CoMe bAck."
 10: 0x0092 [0x23] WAIT_FOR_DIALOG_INTERACTION
 11: 0x0093 [0x1D] PRINT_EVENT_MESSAGE(message_id=7994*)
    → "ShouLD You heAD$26tHat WAy, CouLD You$26trY tO FInd MaS-Ter?"
 12: 0x0096 [0x23] WAIT_FOR_DIALOG_INTERACTION
 13: 0x0097 [0x1D] PRINT_EVENT_MESSAGE(message_id=7995*)
    → "EiGHt OF cLuBS$26Is Com-maNDed To$26stANd viGiL heRe."
 14: 0x009A [0x23] WAIT_FOR_DIALOG_INTERACTION
 15: 0x009B [0x1D] PRINT_EVENT_MESSAGE(message_id=7996*)
    → "eIghT Of CLubs$26iS A gOOd cARdIan. GooD cArDians$26oBEy cOM-ManD."
 16: 0x009E [0x23] WAIT_FOR_DIALOG_INTERACTION
 17: 0x009F [0x21] END_EVENT
 18: 0x00A0 [0x00] END_REQSTACK()
```

### Event 213

#### Metadata

| Field        | Value    |
|--------------|----------|
| Entrypoint   | 0x00A1   |
| Data Size    | 29 bytes |
| Instructions | 7        |

```
      00 01 02 03 04 05 06 07  08 09 0A 0B 0C 0D 0E 0F
      -- -- -- -- -- -- -- --  -- -- -- -- -- -- -- --
00A0:    1E F0 FF FF 7F 1C 00  80 5B 01 80 F8 FF FF 7F   ........[......
00B0: F8 FF FF 7F 74 6C 61 30  1D 0F 80 23 21 00        ....tla0...#!.  
```

#### Opcodes

```
  0: 0x00A1 [0x1E] EventEntity looks at LocalPlayer and starts talking
  1: 0x00A6 [0x1C] WAIT(30* ticks)
  2: 0x00A9 [0x5B] LOAD_EXT_SCHEDULER: Load scheduler "tla0" with entities [EventEntity, EventEntity], work=181*
  3: 0x00B8 [0x1D] PRINT_EVENT_MESSAGE(message_id=7997*)
    → "mAS-teR sTRuck$26eaST, bUt haS Not$26CoMe bAck. ShouLD You heAD$26tHat WAy, CouLD You$26trY tO FInd MaS-Ter?"
  4: 0x00BB [0x23] WAIT_FOR_DIALOG_INTERACTION
  5: 0x00BC [0x21] END_EVENT
  6: 0x00BD [0x00] END_REQSTACK()
```

### Event 214

#### Metadata

| Field        | Value     |
|--------------|-----------|
| Entrypoint   | 0x00BE    |
| Data Size    | 259 bytes |
| Instructions | 57        |

```
      00 01 02 03 04 05 06 07  08 09 0A 0B 0C 0D 0E 0F
      -- -- -- -- -- -- -- --  -- -- -- -- -- -- -- --
00B0:                                            42 1E                B.
00C0: F0 FF FF 7F 1C 00 80 1D  10 80 23 5B 01 80 F8 FF  ..........#[....
00D0: FF 7F F8 FF FF 7F 74 6C  61 30 1D 11 80 23 5B 01  ......tla0...#[.
00E0: 80 F8 FF FF 7F F8 FF FF  7F 74 6C 61 31 1D 12 80  .........tla1...
00F0: 23 5B 01 80 F8 FF FF 7F  F8 FF FF 7F 74 6C 61 30  #[..........tla0
0100: 03 02 10 03 80 1D 13 80  23 1D 14 80 23 1D 15 80  ........#...#...
0110: 23 5B 01 80 F8 FF FF 7F  F8 FF FF 7F 74 6C 61 31  #[..........tla1
0120: 5B 01 80 F8 FF FF 7F F8  FF FF 7F 79 62 69 30 48  [..........ybi0H
0130: 16 80 1C 17 80 5B 01 80  F8 FF FF 7F F8 FF FF 7F  .....[..........
0140: 79 62 69 30 03 02 10 18  80 48 19 80 1C 17 80 48  ybi0.....H.....H
0150: 1A 80 1C 17 80 5B 01 80  F8 FF FF 7F F8 FF FF 7F  .....[..........
0160: 6B 61 61 30 1D 1B 80 23  1D 1C 80 23 1D 1D 80 23  kaa0...#...#...#
0170: 1D 1E 80 23 1D 1F 80 23  1D 20 80 23 1D 21 80 23  ...#...#. .#.!.#
0180: 1D 22 80 23 1D 23 80 23  5B 01 80 F8 FF FF 7F F8  .".#.#.#[.......
0190: FF FF 7F 6B 61 61 31 1D  24 80 23 5B 01 80 F8 FF  ...kaa1.$.#[....
01A0: FF 7F F8 FF FF 7F 74 6C  61 30 1D 25 80 23 45 26  ......tla0.%.#E&
01B0: 80 F0 FF FF 7F F0 FF FF  7F 71 73 74 63 27 80 21  .........qstc'.!
01C0: 00                                                .               
```

#### Opcodes

```
  0: 0x00BE [0x42] SET_CLI_EVENT_CANCEL_DATA()
  1: 0x00BF [0x1E] EventEntity looks at LocalPlayer and starts talking
  2: 0x00C4 [0x1C] WAIT(30* ticks)
  3: 0x00C7 [0x1D] PRINT_EVENT_MESSAGE(message_id=7999*)
    → "So maS-teR waS$26noT TheRe..."
  4: 0x00CA [0x23] WAIT_FOR_DIALOG_INTERACTION
  5: 0x00CB [0x5B] LOAD_EXT_SCHEDULER: Load scheduler "tla0" with entities [EventEntity, EventEntity], work=181*
  6: 0x00DA [0x1D] PRINT_EVENT_MESSAGE(message_id=8000*)
    → "tHAnK yOu foR bRingING$26thiS inFOR-matION. pLeaSE aCCepT thIs$26foR yOUr trouBleS."
  7: 0x00DD [0x23] WAIT_FOR_DIALOG_INTERACTION
  8: 0x00DE [0x5B] LOAD_EXT_SCHEDULER: Load scheduler "tla1" with entities [EventEntity, EventEntity], work=181*
  9: 0x00ED [0x1D] PRINT_EVENT_MESSAGE(message_id=8001*)
    → "HmmM?$26 ThaT sTONe iS$26fAmiLIAr to mE."
 10: 0x00F0 [0x23] WAIT_FOR_DIALOG_INTERACTION
 11: 0x00F1 [0x5B] LOAD_EXT_SCHEDULER: Load scheduler "tla0" with entities [EventEntity, EventEntity], work=181*
 12: 0x0100 [0x03] Work_Zone[2] = 1711*
 13: 0x0105 [0x1D] PRINT_EVENT_MESSAGE(message_id=8002*)
    → "...!$26 CouLD iT be...$26fRoM mY $3?"
 14: 0x0108 [0x23] WAIT_FOR_DIALOG_INTERACTION
 15: 0x0109 [0x1D] PRINT_EVENT_MESSAGE(message_id=8003*)
    → "No, tHaT iS HigHLy$26imPRobaBLe."
 16: 0x010C [0x23] WAIT_FOR_DIALOG_INTERACTION
 17: 0x010D [0x1D] PRINT_EVENT_MESSAGE(message_id=8004*)
    → "HoW couLD THe sToNe$26fRom EigHT oF cLUbs'$3 bE In$26anOTheR LocaTiON?"
 18: 0x0110 [0x23] WAIT_FOR_DIALOG_INTERACTION
 19: 0x0111 [0x5B] LOAD_EXT_SCHEDULER: Load scheduler "tla1" with entities [EventEntity, EventEntity], work=181*
 20: 0x0120 [0x5B] LOAD_EXT_SCHEDULER: Load scheduler "ybi0" with entities [EventEntity, EventEntity], work=181*
 21: 0x012F [0x48] [System] [8005*]:
    → "Eight of Clubs fearfully opens his $3."
 22: 0x0132 [0x1C] WAIT(90* ticks)
 23: 0x0135 [0x5B] LOAD_EXT_SCHEDULER: Load scheduler "ybi0" with entities [EventEntity, EventEntity], work=181*
 24: 0x0144 [0x03] Work_Zone[2] = 1712*
 25: 0x0149 [0x48] [System] [8006*]:
    → "...And tries to set the $3 into the slot."
 26: 0x014C [0x1C] WAIT(90* ticks)
 27: 0x014F [0x48] [System] [8007*]:
    → "It's a perfect fit!"
 28: 0x0152 [0x1C] WAIT(90* ticks)
 29: 0x0155 [0x5B] LOAD_EXT_SCHEDULER: Load scheduler "kaa0" with entities [EventEntity, EventEntity], work=181*
 30: 0x0164 [0x1D] PRINT_EVENT_MESSAGE(message_id=8008*)
    → "...!!!$26"
 31: 0x0167 [0x23] WAIT_FOR_DIALOG_INTERACTION
 32: 0x0168 [0x1D] PRINT_EVENT_MESSAGE(message_id=8009*)
    → "nOoOoOoOoO!$26MeMory AccEss...ResToRed!$26I rEMemBER... No!$26 SpARe Me tHE$26paINfuL meMoRies!$26mY CirCuitRY...oVerLoaDiNG!$26aH, tHe aGOnY!$26"
 33: 0x016B [0x23] WAIT_FOR_DIALOG_INTERACTION
 34: 0x016C [0x1D] PRINT_EVENT_MESSAGE(message_id=8010*)
    → "... iT Was a LoNg$26Time aGO."
 35: 0x016F [0x23] WAIT_FOR_DIALOG_INTERACTION
 36: 0x0170 [0x1D] PRINT_EVENT_MESSAGE(message_id=8011*)
    → "Mas-Ter cOm-mANded$26EiGht oF CluBs To reMaiN hEre,$26aND deParTed On a JouRNeY$26wiTH ANotHer CaRdIan."
 37: 0x0173 [0x23] WAIT_FOR_DIALOG_INTERACTION
 38: 0x0174 [0x1D] PRINT_EVENT_MESSAGE(message_id=8012*)
    → "muCh TIme paSSeD,$26YEt mAS-TeR DiD noT reTUrn. EIght of cLUbs couLD$26sTanD And waIt NO moRe."
 39: 0x0177 [0x23] WAIT_FOR_DIALOG_INTERACTION
 40: 0x0178 [0x1D] PRINT_EVENT_MESSAGE(message_id=8013*)
    → "And SO eIghT of cLubS$26diSoBeyED CoM-Mand,$26aND LeFT To seARch$26foR Mas-Ter."
 41: 0x017B [0x23] WAIT_FOR_DIALOG_INTERACTION
 42: 0x017C [0x1D] PRINT_EVENT_MESSAGE(message_id=8014*)
    → "buT tHE SeaRCh$26eNded In tRAgedY. In tHe WiLdeRneSS,$26EiGht oF cLubs fOunD$26the EsCorT caRdiAN$26kEEninG in gRiEF OveR$26tHe Life-leSS boDy oF mAS-teR."
 43: 0x017F [0x23] WAIT_FOR_DIALOG_INTERACTION
 44: 0x0180 [0x1D] PRINT_EVENT_MESSAGE(message_id=8015*)
    → "aND tHen THat$26pERson aPPeareD."
 45: 0x0183 [0x23] WAIT_FOR_DIALOG_INTERACTION
 46: 0x0184 [0x1D] PRINT_EVENT_MESSAGE(message_id=8016*)
    → "LiKe a bReaTH oF wiND$26SHe cAMe anD tOOk$26aWay ouR meMOrieS...$26Our pAIn..."
 47: 0x0187 [0x23] WAIT_FOR_DIALOG_INTERACTION
 48: 0x0188 [0x5B] LOAD_EXT_SCHEDULER: Load scheduler "kaa1" with entities [EventEntity, EventEntity], work=181*
 49: 0x0197 [0x1D] PRINT_EVENT_MESSAGE(message_id=8017*)
    → "OoOoOoh mY CirCuiTs.$26StArTing to sEE BluE.$26 MY HeaD--suCH thAT$26iT iS--fEELs rIPe$26To SpLit..."
 50: 0x019A [0x23] WAIT_FOR_DIALOG_INTERACTION
 51: 0x019B [0x5B] LOAD_EXT_SCHEDULER: Load scheduler "tla0" with entities [EventEntity, EventEntity], work=181*
 52: 0x01AA [0x1D] PRINT_EVENT_MESSAGE(message_id=8018*)
    → "I aM soRRy,$26buT pLeASe LeAVe mE$26Be foR a WhiLe."
 53: 0x01AD [0x23] WAIT_FOR_DIALOG_INTERACTION
 54: 0x01AE [0x45] LOAD_SCHEDULED_TASK: Load scheduler "qstc" with entities [LocalPlayer, LocalPlayer], work=[201*, 0*]
 55: 0x01BF [0x21] END_EVENT
 56: 0x01C0 [0x00] END_REQSTACK()
```

### Event 215

#### Metadata

| Field        | Value    |
|--------------|----------|
| Entrypoint   | 0x01C1   |
| Data Size    | 29 bytes |
| Instructions | 7        |

```
      00 01 02 03 04 05 06 07  08 09 0A 0B 0C 0D 0E 0F
      -- -- -- -- -- -- -- --  -- -- -- -- -- -- -- --
01C0:    1E F0 FF FF 7F 1C 00  80 5B 01 80 F8 FF FF 7F   ........[......
01D0: F8 FF FF 7F 74 6C 61 30  1D 25 80 23 21 00        ....tla0.%.#!.  
```

#### Opcodes

```
  0: 0x01C1 [0x1E] EventEntity looks at LocalPlayer and starts talking
  1: 0x01C6 [0x1C] WAIT(30* ticks)
  2: 0x01C9 [0x5B] LOAD_EXT_SCHEDULER: Load scheduler "tla0" with entities [EventEntity, EventEntity], work=181*
  3: 0x01D8 [0x1D] PRINT_EVENT_MESSAGE(message_id=8018*)
    → "I aM soRRy,$26buT pLeASe LeAVe mE$26Be foR a WhiLe."
  4: 0x01DB [0x23] WAIT_FOR_DIALOG_INTERACTION
  5: 0x01DC [0x21] END_EVENT
  6: 0x01DD [0x00] END_REQSTACK()
```

### Event 222

#### Metadata

| Field        | Value    |
|--------------|----------|
| Entrypoint   | 0x01DE   |
| Data Size    | 76 bytes |
| Instructions | 18       |

```
      00 01 02 03 04 05 06 07  08 09 0A 0B 0C 0D 0E 0F
      -- -- -- -- -- -- -- --  -- -- -- -- -- -- -- --
01D0:                                            42 1E                B.
01E0: F0 FF FF 7F 1C 00 80 5B  01 80 F8 FF FF 7F F8 FF  .......[........
01F0: FF 7F 74 6C 61 30 1D 28  80 23 1D 29 80 23 1D 2A  ..tla0.(.#.).#.*
0200: 80 23 5B 01 80 F8 FF FF  7F F8 FF FF 7F 74 6C 61  .#[..........tla
0210: 31 1D 2B 80 23 5B 01 80  F8 FF FF 7F F8 FF FF 7F  1.+.#[..........
0220: 74 6C 61 30 1D 2C 80 23  21 00                    tla0.,.#!.      
```

#### Opcodes

```
  0: 0x01DE [0x42] SET_CLI_EVENT_CANCEL_DATA()
  1: 0x01DF [0x1E] EventEntity looks at LocalPlayer and starts talking
  2: 0x01E4 [0x1C] WAIT(30* ticks)
  3: 0x01E7 [0x5B] LOAD_EXT_SCHEDULER: Load scheduler "tla0" with entities [EventEntity, EventEntity], work=181*
  4: 0x01F6 [0x1D] PRINT_EVENT_MESSAGE(message_id=8039*)
    → "EIghT oF cLUbs hAs dONe$26MuCh tHinkIng sINce tHen."
  5: 0x01F9 [0x23] WAIT_FOR_DIALOG_INTERACTION
  6: 0x01FA [0x1D] PRINT_EVENT_MESSAGE(message_id=8040*)
    → "eIGht of CLubs Is GraTefUL$26tO hAVe hIs mEmoRies Back."
  7: 0x01FD [0x23] WAIT_FOR_DIALOG_INTERACTION
  8: 0x01FE [0x1D] PRINT_EVENT_MESSAGE(message_id=8041*)
    → "aLL MeMoRies of mAsteR,$26be TheY hAppY oR SAd, Are tReaSUres$26to EighT of ClubS."
  9: 0x0201 [0x23] WAIT_FOR_DIALOG_INTERACTION
 10: 0x0202 [0x5B] LOAD_EXT_SCHEDULER: Load scheduler "tla1" with entities [EventEntity, EventEntity], work=181*
 11: 0x0211 [0x1D] PRINT_EVENT_MESSAGE(message_id=8042*)
    → "YoU saY ThAt tHe$26sTraNger wHo pAssEd bY$26ThAt dAY iS wOrriEd$26aBoUt EiGht Of CluBs?"
 12: 0x0214 [0x23] WAIT_FOR_DIALOG_INTERACTION
 13: 0x0215 [0x5B] LOAD_EXT_SCHEDULER: Load scheduler "tla0" with entities [EventEntity, EventEntity], work=181*
 14: 0x0224 [0x1D] PRINT_EVENT_MESSAGE(message_id=8043*)
    → "PLeaSe teLL Her tHat eIGHt$26of cLUBs Is fAriNG wEll."
 15: 0x0227 [0x23] WAIT_FOR_DIALOG_INTERACTION
 16: 0x0228 [0x21] END_EVENT
 17: 0x0229 [0x00] END_REQSTACK()
```

### Event 223

#### Metadata

| Field        | Value    |
|--------------|----------|
| Entrypoint   | 0x022A   |
| Data Size    | 14 bytes |
| Instructions | 6        |

```
      00 01 02 03 04 05 06 07  08 09 0A 0B 0C 0D 0E 0F
      -- -- -- -- -- -- -- --  -- -- -- -- -- -- -- --
0220:                                1E F0 FF FF 7F 1C            ......
0230: 00 80 1D 2D 80 23 21 00                           ...-.#!.        
```

#### Opcodes

```
  0: 0x022A [0x1E] EventEntity looks at LocalPlayer and starts talking
  1: 0x022F [0x1C] WAIT(30* ticks)
  2: 0x0232 [0x1D] PRINT_EVENT_MESSAGE(message_id=8044*)
    → "PLeaSe teLL the kINdLy$26sTranGer tHat eIGHt of$26cLUBs Is fAriNG wEll."
  3: 0x0235 [0x23] WAIT_FOR_DIALOG_INTERACTION
  4: 0x0236 [0x21] END_EVENT
  5: 0x0237 [0x00] END_REQSTACK()
```
