# 17818227 - Eight of Hearts

## Common Data

| Field            | Value                        |
|------------------|------------------------------|
| Zone             | Abyssea - Grauberg (ID: 254) |
| Block Size       | 740 bytes                    |
| Total Events     | 7                            |
| References Count | 28                           |

## List of Events

| Event ID              | Entrypoint   |   Size |   Instructions |
|-----------------------|--------------|--------|----------------|
| [65535](#event-65535) | 0x0000       |      1 |              1 |
| [202](#event-202)     | 0x0001       |     93 |             20 |
| [203](#event-203)     | 0x005E       |     38 |             10 |
| [204](#event-204)     | 0x0084       |    367 |             55 |
| [205](#event-205)     | 0x01F3       |     42 |              8 |
| [217](#event-217)     | 0x021D       |      1 |              1 |
| [218](#event-218)     | 0x021E       |     42 |              8 |

## DAT References (imed_data)

|   Index | Hex Value   |   Dec Value |
|---------|-------------|-------------|
|       0 | 0x0000      |           0 |
|       1 | 0x001E      |          30 |
|       2 | 0x00B6      |         182 |
|       3 | 0x1F1B      |        7963 |
|       4 | 0x0001      |           1 |
|       5 | 0x00B5      |         181 |
|       6 | 0x1F1C      |        7964 |
|       7 | 0x1F1D      |        7965 |
|       8 | 0x06AF      |        1711 |
|       9 | 0x1F1E      |        7966 |
|      10 | 0x1F1F      |        7967 |
|      11 | 0x1F20      |        7968 |
|      12 | 0x1F29      |        7977 |
|      13 | 0x1F2A      |        7978 |
|      14 | 0x1F2B      |        7979 |
|      15 | 0x1F2C      |        7980 |
|      16 | 0x1F2D      |        7981 |
|      17 | 0x0028      |          40 |
|      18 | 0x1F2E      |        7982 |
|      19 | 0x1F2F      |        7983 |
|      20 | 0x1F30      |        7984 |
|      21 | 0x1F31      |        7985 |
|      22 | 0x1F32      |        7986 |
|      23 | 0x1F33      |        7987 |
|      24 | 0x1F34      |        7988 |
|      25 | 0x00C9      |         201 |
|      26 | 0x1F35      |        7989 |
|      27 | 0x1F66      |        8038 |

## String References

- **7963**: BeiNG$26In ThE ComPaNY oF$26MiS-TreSS KOroRO makES me$26HAPpy BeYoND$26PEri-MeTERs.
- **7964**: But THeRe iS sOMeoNE$26wHo SomETimes Pa-TRoLs$26My HEad.
- **7965**: A NameLEss pERsoN$26SmaLL iN stAtuRE aND$26clothed in YeLLoW.
- **7966**: PoSSeSSing$6... thiS pERsoN's IdeNTity$26I caNNoT sEEm To deCiPHer.
- **7967**: A NameLEss pERsoN$26SmaLL iN stAtuRE aND$26clothed in YeLLoW, poSSeSSing$6...
- **7968**: thiS pERsoN's IdeNTity$26I caNNoT sEEm To deCiPHer.
- **7977**: ...$26 tHAt $3$26iS famiLiAR to ME!
- **7978**: WhO iS thE peRSoN$26to WHOm tHat be-LonGs?
- **7979**: A cArDian LikE Me,$26yOU Say?
- **7980**: A HighLY unEXpecTeD$26deVELopMeNT... The PersON wHo$26Pa-trOLs mY hEAd iS$26SupPoseD tO Be coMPoseD$26of FLesH anD bLooD.
- **7981**: RegARdLeSS, I shouLD$26LikE to mEEt$26tHis indi-VIDual. pLeAse teLL Me$26WheRE I shOuld GO!
- **7985**: bUT, MiS-TrEss,$26mY CuriOsiTy LeveLs eX-cEEd$26Ac-cePTable LimiTs!
- **7987**: YeS, Mis-TreSS.$26OF coURse, yOU ArE riGHT.
- **7989**: BeiNG$26In ThE ComPaNY oF$26MiS-TreSS KOroRO makES me$26HAPpy BeYoND$26PEri-MeTERs.
- **8038**: mIs-TreSS KoRoRo ComPLetes Me.$26 BeiNG wiTh$26MiS-TreSS KOroRO makES me$26HAPpy BeYoND$26PEri-MeTERs.

## Events

### Event 65535

#### Metadata

| Field        | Value   |
|--------------|---------|
| Entrypoint   | 0x0000  |
| Data Size    | 1 bytes |
| Instructions | 1       |

```
      00 01 02 03 04 05 06 07  08 09 0A 0B 0C 0D 0E 0F
      -- -- -- -- -- -- -- --  -- -- -- -- -- -- -- --
0000: 00                                                .               
```

#### Opcodes

```
  0: 0x0000 [0x00] END_REQSTACK()
```

### Event 202

#### Metadata

| Field        | Value    |
|--------------|----------|
| Entrypoint   | 0x0001   |
| Data Size    | 93 bytes |
| Instructions | 20       |

```
      00 01 02 03 04 05 06 07  08 09 0A 0B 0C 0D 0E 0F
      -- -- -- -- -- -- -- --  -- -- -- -- -- -- -- --
0000:    42 03 01 10 00 80 1E  F0 FF FF 7F 1C 01 80 5B   B.............[
0010: 02 80 F8 FF FF 7F F8 FF  FF 7F 6B 61 69 30 1D 03  ..........kai0..
0020: 80 23 02 02 10 04 80 00  5C 00 53 F8 FF FF 7F F8  .#......\.S.....
0030: FF FF 7F 6B 61 69 30 5B  05 80 F8 FF FF 7F F8 FF  ...kai0[........
0040: FF 7F 74 6C 61 30 1D 06  80 23 1D 07 80 23 03 02  ..tla0...#...#..
0050: 10 08 80 1D 09 80 23 03  01 10 04 80 21 00        ......#.....!.  
```

#### Opcodes

```
  0: 0x0001 [0x42] SET_CLI_EVENT_CANCEL_DATA()
  1: 0x0002 [0x03] Work_Zone[1] = 0*
  2: 0x0007 [0x1E] EventEntity looks at LocalPlayer and starts talking
  3: 0x000C [0x1C] WAIT(30* ticks)
  4: 0x000F [0x5B] LOAD_EXT_SCHEDULER: Load scheduler "kai0" with entities [EventEntity, EventEntity], work=182*
  5: 0x001E [0x1D] PRINT_EVENT_MESSAGE(message_id=7963*)
    → "BeiNG$26In ThE ComPaNY oF$26MiS-TreSS KOroRO makES me$26HAPpy BeYoND$26PEri-MeTERs."
  6: 0x0021 [0x23] WAIT_FOR_DIALOG_INTERACTION
  7: 0x0022 [0x02] IF !(Work_Zone[2] == 1*) GOTO 0x005C
  8: 0x002A [0x53] WAIT_SCHEDULER_TASK: Wait for scheduler "kai0" with entities [EventEntity, EventEntity]
  9: 0x0037 [0x5B] LOAD_EXT_SCHEDULER: Load scheduler "tla0" with entities [EventEntity, EventEntity], work=181*
 10: 0x0046 [0x1D] PRINT_EVENT_MESSAGE(message_id=7964*)
    → "But THeRe iS sOMeoNE$26wHo SomETimes Pa-TRoLs$26My HEad."
 11: 0x0049 [0x23] WAIT_FOR_DIALOG_INTERACTION
 12: 0x004A [0x1D] PRINT_EVENT_MESSAGE(message_id=7965*)
    → "A NameLEss pERsoN$26SmaLL iN stAtuRE aND$26clothed in YeLLoW."
 13: 0x004D [0x23] WAIT_FOR_DIALOG_INTERACTION
 14: 0x004E [0x03] Work_Zone[2] = 1711*
 15: 0x0053 [0x1D] PRINT_EVENT_MESSAGE(message_id=7966*)
    → "PoSSeSSing$6... thiS pERsoN's IdeNTity$26I caNNoT sEEm To deCiPHer."
 16: 0x0056 [0x23] WAIT_FOR_DIALOG_INTERACTION
 17: 0x0057 [0x03] Work_Zone[1] = 1*
 18: 0x005C [0x21] END_EVENT
 19: 0x005D [0x00] END_REQSTACK()
```

### Event 203

#### Metadata

| Field        | Value    |
|--------------|----------|
| Entrypoint   | 0x005E   |
| Data Size    | 38 bytes |
| Instructions | 10       |

```
      00 01 02 03 04 05 06 07  08 09 0A 0B 0C 0D 0E 0F
      -- -- -- -- -- -- -- --  -- -- -- -- -- -- -- --
0050:                                            1E F0                ..
0060: FF FF 7F 1C 01 80 5B 05  80 F8 FF FF 7F F8 FF FF  ......[.........
0070: 7F 74 6C 61 30 03 02 10  08 80 1D 0A 80 23 1D 0B  .tla0........#..
0080: 80 23 21 00                                       .#!.            
```

#### Opcodes

```
  0: 0x005E [0x1E] EventEntity looks at LocalPlayer and starts talking
  1: 0x0063 [0x1C] WAIT(30* ticks)
  2: 0x0066 [0x5B] LOAD_EXT_SCHEDULER: Load scheduler "tla0" with entities [EventEntity, EventEntity], work=181*
  3: 0x0075 [0x03] Work_Zone[2] = 1711*
  4: 0x007A [0x1D] PRINT_EVENT_MESSAGE(message_id=7967*)
    → "A NameLEss pERsoN$26SmaLL iN stAtuRE aND$26clothed in YeLLoW, poSSeSSing$6..."
  5: 0x007D [0x23] WAIT_FOR_DIALOG_INTERACTION
  6: 0x007E [0x1D] PRINT_EVENT_MESSAGE(message_id=7968*)
    → "thiS pERsoN's IdeNTity$26I caNNoT sEEm To deCiPHer."
  7: 0x0081 [0x23] WAIT_FOR_DIALOG_INTERACTION
  8: 0x0082 [0x21] END_EVENT
  9: 0x0083 [0x00] END_REQSTACK()
```

### Event 204

#### Metadata

| Field        | Value     |
|--------------|-----------|
| Entrypoint   | 0x0084    |
| Data Size    | 367 bytes |
| Instructions | 55        |

```
      00 01 02 03 04 05 06 07  08 09 0A 0B 0C 0D 0E 0F
      -- -- -- -- -- -- -- --  -- -- -- -- -- -- -- --
0080:             42 1E F0 FF  FF 7F 1C 01 80 5B 05 80      B........[..
0090: F8 FF FF 7F F8 FF FF 7F  74 6C 61 30 03 02 10 08  ........tla0....
00A0: 80 1D 0C 80 23 1D 0D 80  23 1D 0E 80 23 1D 0F 80  ....#...#...#...
00B0: 23 1D 10 80 23 5B 05 80  F8 FF FF 7F F8 FF FF 7F  #...#[..........
00C0: 74 6C 61 31 4A 74 E2 0F  01 73 E2 0F 01 1C 01 80  tla1Jt...s......
00D0: 66 11 80 74 E2 0F 01 74  E2 0F 01 74 6C 6B 30 2B  f..t...t...tlk0+
00E0: 74 E2 0F 01 12 80 23 66  11 80 74 E2 0F 01 74 E2  t.....#f..t...t.
00F0: 0F 01 74 6C 6B 31 4A 74  E2 0F 01 F0 FF FF 7F 1C  ..tlk1Jt........
0100: 01 80 66 11 80 74 E2 0F  01 74 E2 0F 01 74 6C 6B  ..f..t...t...tlk
0110: 30 2B 74 E2 0F 01 13 80  23 66 11 80 74 E2 0F 01  0+t.....#f..t...
0120: 74 E2 0F 01 74 6C 6B 31  4A 74 E2 0F 01 73 E2 0F  t...tlk1Jt...s..
0130: 01 1C 01 80 66 11 80 74  E2 0F 01 74 E2 0F 01 74  ....f..t...t...t
0140: 6C 6B 30 2B 74 E2 0F 01  14 80 23 66 11 80 74 E2  lk0+t.....#f..t.
0150: 0F 01 74 E2 0F 01 74 6C  6B 31 1E 74 E2 0F 01 1C  ..t...tlk1.t....
0160: 01 80 5B 05 80 F8 FF FF  7F F8 FF FF 7F 74 6C 61  ..[..........tla
0170: 30 1D 15 80 23 5B 05 80  F8 FF FF 7F F8 FF FF 7F  0...#[..........
0180: 74 6C 61 31 66 11 80 74  E2 0F 01 74 E2 0F 01 74  tla1f..t...t...t
0190: 6C 6B 30 2B 74 E2 0F 01  16 80 23 66 11 80 74 E2  lk0+t.....#f..t.
01A0: 0F 01 74 E2 0F 01 74 6C  6B 31 5B 05 80 F8 FF FF  ..t...tlk1[.....
01B0: 7F F8 FF FF 7F 74 6C 61  30 1D 17 80 23 4A 74 E2  .....tla0...#Jt.
01C0: 0F 01 F0 FF FF 7F 1C 01  80 66 11 80 74 E2 0F 01  .........f..t...
01D0: 74 E2 0F 01 70 61 73 30  2B 74 E2 0F 01 18 80 23  t...pas0+t.....#
01E0: 45 19 80 F0 FF FF 7F F0  FF FF 7F 71 73 74 63 00  E..........qstc.
01F0: 80 21 00                                          .!.             
```

#### Opcodes

```
  0: 0x0084 [0x42] SET_CLI_EVENT_CANCEL_DATA()
  1: 0x0085 [0x1E] EventEntity looks at LocalPlayer and starts talking
  2: 0x008A [0x1C] WAIT(30* ticks)
  3: 0x008D [0x5B] LOAD_EXT_SCHEDULER: Load scheduler "tla0" with entities [EventEntity, EventEntity], work=181*
  4: 0x009C [0x03] Work_Zone[2] = 1711*
  5: 0x00A1 [0x1D] PRINT_EVENT_MESSAGE(message_id=7977*)
    → "...$26 tHAt $3$26iS famiLiAR to ME!"
  6: 0x00A4 [0x23] WAIT_FOR_DIALOG_INTERACTION
  7: 0x00A5 [0x1D] PRINT_EVENT_MESSAGE(message_id=7978*)
    → "WhO iS thE peRSoN$26to WHOm tHat be-LonGs?"
  8: 0x00A8 [0x23] WAIT_FOR_DIALOG_INTERACTION
  9: 0x00A9 [0x1D] PRINT_EVENT_MESSAGE(message_id=7979*)
    → "A cArDian LikE Me,$26yOU Say?"
 10: 0x00AC [0x23] WAIT_FOR_DIALOG_INTERACTION
 11: 0x00AD [0x1D] PRINT_EVENT_MESSAGE(message_id=7980*)
    → "A HighLY unEXpecTeD$26deVELopMeNT... The PersON wHo$26Pa-trOLs mY hEAd iS$26SupPoseD tO Be coMPoseD$26of FLesH anD bLooD."
 12: 0x00B0 [0x23] WAIT_FOR_DIALOG_INTERACTION
 13: 0x00B1 [0x1D] PRINT_EVENT_MESSAGE(message_id=7981*)
    → "RegARdLeSS, I shouLD$26LikE to mEEt$26tHis indi-VIDual. pLeAse teLL Me$26WheRE I shOuld GO!"
 14: 0x00B4 [0x23] WAIT_FOR_DIALOG_INTERACTION
 15: 0x00B5 [0x5B] LOAD_EXT_SCHEDULER: Load scheduler "tla1" with entities [EventEntity, EventEntity], work=181*
 16: 0x00C4 [0x4A] Kororo (ID: 17818228/0x010FE274) looks at Eight of Hearts (ID: 17818227/0x010FE273)
 17: 0x00CD [0x1C] WAIT(30* ticks)
 18: 0x00D0 [0x66] LOAD_EXT_SCHEDULER_MAIN: Load scheduler "tlk0" with entities [Kororo (ID: 17818228/0x010FE274), Kororo (ID: 17818228/0x010FE274)], work=40*
 19: 0x00DF [0x2B] Kororo (ID: 17818228/0x010FE274) [7982*]:
    → "Eight of Hearts, get a hold of yourselfy!"
 20: 0x00E6 [0x23] WAIT_FOR_DIALOG_INTERACTION
 21: 0x00E7 [0x66] LOAD_EXT_SCHEDULER_MAIN: Load scheduler "tlk1" with entities [Kororo (ID: 17818228/0x010FE274), Kororo (ID: 17818228/0x010FE274)], work=40*
 22: 0x00F6 [0x4A] Kororo (ID: 17818228/0x010FE274) looks at LocalPlayer
 23: 0x00FF [0x1C] WAIT(30* ticks)
 24: 0x0102 [0x66] LOAD_EXT_SCHEDULER_MAIN: Load scheduler "tlk0" with entities [Kororo (ID: 17818228/0x010FE274), Kororo (ID: 17818228/0x010FE274)], work=40*
 25: 0x0111 [0x2B] Kororo (ID: 17818228/0x010FE274) [7983*]:
    → "And you, whoever you are! What were you thinking, bringing that accursedy thing here?"
 26: 0x0118 [0x23] WAIT_FOR_DIALOG_INTERACTION
 27: 0x0119 [0x66] LOAD_EXT_SCHEDULER_MAIN: Load scheduler "tlk1" with entities [Kororo (ID: 17818228/0x010FE274), Kororo (ID: 17818228/0x010FE274)], work=40*
 28: 0x0128 [0x4A] Kororo (ID: 17818228/0x010FE274) looks at Eight of Hearts (ID: 17818227/0x010FE273)
 29: 0x0131 [0x1C] WAIT(30* ticks)
 30: 0x0134 [0x66] LOAD_EXT_SCHEDULER_MAIN: Load scheduler "tlk0" with entities [Kororo (ID: 17818228/0x010FE274), Kororo (ID: 17818228/0x010FE274)], work=40*
 31: 0x0143 [0x2B] Kororo (ID: 17818228/0x010FE274) [7984*]:
    → "Eight of Hearts. You mustn't fraternize with this [man/woman] againy. This is for your own good, you understand?"
 32: 0x014A [0x23] WAIT_FOR_DIALOG_INTERACTION
 33: 0x014B [0x66] LOAD_EXT_SCHEDULER_MAIN: Load scheduler "tlk1" with entities [Kororo (ID: 17818228/0x010FE274), Kororo (ID: 17818228/0x010FE274)], work=40*
 34: 0x015A [0x1E] EventEntity looks at Kororo (ID: 17818228/0x010FE274) and starts talking
 35: 0x015F [0x1C] WAIT(30* ticks)
 36: 0x0162 [0x5B] LOAD_EXT_SCHEDULER: Load scheduler "tla0" with entities [EventEntity, EventEntity], work=181*
 37: 0x0171 [0x1D] PRINT_EVENT_MESSAGE(message_id=7985*)
    → "bUT, MiS-TrEss,$26mY CuriOsiTy LeveLs eX-cEEd$26Ac-cePTable LimiTs!"
 38: 0x0174 [0x23] WAIT_FOR_DIALOG_INTERACTION
 39: 0x0175 [0x5B] LOAD_EXT_SCHEDULER: Load scheduler "tla1" with entities [EventEntity, EventEntity], work=181*
 40: 0x0184 [0x66] LOAD_EXT_SCHEDULER_MAIN: Load scheduler "tlk0" with entities [Kororo (ID: 17818228/0x010FE274), Kororo (ID: 17818228/0x010FE274)], work=40*
 41: 0x0193 [0x2B] Kororo (ID: 17818228/0x010FE274) [7986*]:
    → "Listen to me. There're certainy things you're better off not knowing, and this is one of them!"
 42: 0x019A [0x23] WAIT_FOR_DIALOG_INTERACTION
 43: 0x019B [0x66] LOAD_EXT_SCHEDULER_MAIN: Load scheduler "tlk1" with entities [Kororo (ID: 17818228/0x010FE274), Kororo (ID: 17818228/0x010FE274)], work=40*
 44: 0x01AA [0x5B] LOAD_EXT_SCHEDULER: Load scheduler "tla0" with entities [EventEntity, EventEntity], work=181*
 45: 0x01B9 [0x1D] PRINT_EVENT_MESSAGE(message_id=7987*)
    → "YeS, Mis-TreSS.$26OF coURse, yOU ArE riGHT."
 46: 0x01BC [0x23] WAIT_FOR_DIALOG_INTERACTION
 47: 0x01BD [0x4A] Kororo (ID: 17818228/0x010FE274) looks at LocalPlayer
 48: 0x01C6 [0x1C] WAIT(30* ticks)
 49: 0x01C9 [0x66] LOAD_EXT_SCHEDULER_MAIN: Load scheduler "pas0" with entities [Kororo (ID: 17818228/0x010FE274), Kororo (ID: 17818228/0x010FE274)], work=40*
 50: 0x01D8 [0x2B] Kororo (ID: 17818228/0x010FE274) [7988*]:
    → "Look, stranger. I'll give you this, but you have to promise you won't bothery us anymore!"
 51: 0x01DF [0x23] WAIT_FOR_DIALOG_INTERACTION
 52: 0x01E0 [0x45] LOAD_SCHEDULED_TASK: Load scheduler "qstc" with entities [LocalPlayer, LocalPlayer], work=[201*, 0*]
 53: 0x01F1 [0x21] END_EVENT
 54: 0x01F2 [0x00] END_REQSTACK()
```

### Event 205

#### Metadata

| Field        | Value    |
|--------------|----------|
| Entrypoint   | 0x01F3   |
| Data Size    | 42 bytes |
| Instructions | 8        |

```
      00 01 02 03 04 05 06 07  08 09 0A 0B 0C 0D 0E 0F
      -- -- -- -- -- -- -- --  -- -- -- -- -- -- -- --
01F0:          1E F0 FF FF 7F  1C 01 80 5B 02 80 F8 FF     ........[....
0200: FF 7F F8 FF FF 7F 6B 61  69 30 1D 1A 80 23 53 F8  ......kai0...#S.
0210: FF FF 7F F8 FF FF 7F 6B  61 69 30 21 00           .......kai0!.   
```

#### Opcodes

```
  0: 0x01F3 [0x1E] EventEntity looks at LocalPlayer and starts talking
  1: 0x01F8 [0x1C] WAIT(30* ticks)
  2: 0x01FB [0x5B] LOAD_EXT_SCHEDULER: Load scheduler "kai0" with entities [EventEntity, EventEntity], work=182*
  3: 0x020A [0x1D] PRINT_EVENT_MESSAGE(message_id=7989*)
    → "BeiNG$26In ThE ComPaNY oF$26MiS-TreSS KOroRO makES me$26HAPpy BeYoND$26PEri-MeTERs."
  4: 0x020D [0x23] WAIT_FOR_DIALOG_INTERACTION
  5: 0x020E [0x53] WAIT_SCHEDULER_TASK: Wait for scheduler "kai0" with entities [EventEntity, EventEntity]
  6: 0x021B [0x21] END_EVENT
  7: 0x021C [0x00] END_REQSTACK()
```

### Event 217

#### Metadata

| Field        | Value   |
|--------------|---------|
| Entrypoint   | 0x021D  |
| Data Size    | 1 bytes |
| Instructions | 1       |

```
      00 01 02 03 04 05 06 07  08 09 0A 0B 0C 0D 0E 0F
      -- -- -- -- -- -- -- --  -- -- -- -- -- -- -- --
0210:                                         00                     .  
```

#### Opcodes

```
  0: 0x021D [0x00] END_REQSTACK()
```

### Event 218

#### Metadata

| Field        | Value    |
|--------------|----------|
| Entrypoint   | 0x021E   |
| Data Size    | 42 bytes |
| Instructions | 8        |

```
      00 01 02 03 04 05 06 07  08 09 0A 0B 0C 0D 0E 0F
      -- -- -- -- -- -- -- --  -- -- -- -- -- -- -- --
0210:                                            1E F0                ..
0220: FF FF 7F 1C 01 80 5B 02  80 F8 FF FF 7F F8 FF FF  ......[.........
0230: 7F 6B 61 69 30 1D 1B 80  23 53 F8 FF FF 7F F8 FF  .kai0...#S......
0240: FF 7F 6B 61 69 30 21 00                           ..kai0!.        
```

#### Opcodes

```
  0: 0x021E [0x1E] EventEntity looks at LocalPlayer and starts talking
  1: 0x0223 [0x1C] WAIT(30* ticks)
  2: 0x0226 [0x5B] LOAD_EXT_SCHEDULER: Load scheduler "kai0" with entities [EventEntity, EventEntity], work=182*
  3: 0x0235 [0x1D] PRINT_EVENT_MESSAGE(message_id=8038*)
    → "mIs-TreSS KoRoRo ComPLetes Me.$26 BeiNG wiTh$26MiS-TreSS KOroRO makES me$26HAPpy BeYoND$26PEri-MeTERs."
  4: 0x0238 [0x23] WAIT_FOR_DIALOG_INTERACTION
  5: 0x0239 [0x53] WAIT_SCHEDULER_TASK: Wait for scheduler "kai0" with entities [EventEntity, EventEntity]
  6: 0x0246 [0x21] END_EVENT
  7: 0x0247 [0x00] END_REQSTACK()
```
