# 17818253 - Zeid

## Common Data

| Field            | Value                        |
|------------------|------------------------------|
| Zone             | Abyssea - Grauberg (ID: 254) |
| Block Size       | 244 bytes                    |
| Total Events     | 3                            |
| References Count | 18                           |

## List of Events

| Event ID              | Entrypoint   |   Size |   Instructions |
|-----------------------|--------------|--------|----------------|
| [65535](#event-65535) | 0x0000       |      1 |              1 |
| [273](#event-273)     | 0x0001       |     41 |             13 |
| [265](#event-265)     | 0x002A       |    101 |             29 |

## DAT References (imed_data)

|   Index | Hex Value   |   Dec Value |
|---------|-------------|-------------|
|       0 | 0x001E      |          30 |
|       1 | 0x00F4      |         244 |
|       2 | 0x201C      |        8220 |
|       3 | 0x201D      |        8221 |
|       4 | 0x201E      |        8222 |
|       5 | 0x201F      |        8223 |
|       6 | 0x0064      |         100 |
|       7 | 0x2027      |        8231 |
|       8 | 0x004B      |          75 |
|       9 | 0x2025      |        8229 |
|      10 | 0x2026      |        8230 |
|      11 | 0x0032      |          50 |
|      12 | 0x2024      |        8228 |
|      13 | 0x0019      |          25 |
|      14 | 0x2022      |        8226 |
|      15 | 0x2023      |        8227 |
|      16 | 0x2020      |        8224 |
|      17 | 0x2021      |        8225 |

## String References

- **8220**: I'm in charge of the Resistance forces encamped here.
- **8221**: Just when we thought enduring peace was within reach, everything was torn from our grasp.
- **8222**: We don't know what manner of evil unleashed the cataclysm, but one thing is certain: never will we cease our struggle to survive.
- **8223**: Let us fight beside one another, you and I. Together, we can realize our shared dream of civilization restored.
- **8224**: We are in a wretched state. The Abyssean hordes wreak havoc on our forces without cease.
- **8225**: Our defense line cannot hold against their onslaught for much longer. We must take drastic action, and soon.
- **8226**: At present, our forces are keeping the Abyssean hordes at bay.
- **8227**: Nevertheless, we cannot afford to relax our vigil. We must redouble our efforts and take the battle to the enemy.
- **8228**: We've managed to turn the tables and force the Abyssean hordes onto their back foot...or whatever loathsome appendage they have. We must keep throwing our strength against them and consolidate this hard-won advantage.
- **8229**: Our unwavering offensive strikes fear into the hearts of the enemy.
- **8230**: It won't be long now before we hold this area completely under our sway. Let us ride this tide all the way to victory!
- **8231**: The Abyssean threat lies subdued under our heel. Our task now is to ensure that it remains that way for good.

## Events

### Event 65535

#### Metadata

| Field        | Value   |
|--------------|---------|
| Entrypoint   | 0x0000  |
| Data Size    | 1 bytes |
| Instructions | 1       |

```
      00 01 02 03 04 05 06 07  08 09 0A 0B 0C 0D 0E 0F
      -- -- -- -- -- -- -- --  -- -- -- -- -- -- -- --
0000: 00                                                .               
```

#### Opcodes

```
  0: 0x0000 [0x00] END_REQSTACK()
```

### Event 273

#### Metadata

| Field        | Value    |
|--------------|----------|
| Entrypoint   | 0x0001   |
| Data Size    | 41 bytes |
| Instructions | 13       |

```
      00 01 02 03 04 05 06 07  08 09 0A 0B 0C 0D 0E 0F
      -- -- -- -- -- -- -- --  -- -- -- -- -- -- -- --
0000:    1E F0 FF FF 7F 1C 00  80 5B 01 80 8D E2 0F 01   ........[......
0010: 8D E2 0F 01 74 6B 62 30  1D 02 80 23 1D 03 80 23  ....tkb0...#...#
0020: 1D 04 80 23 1D 05 80 23  21 00                    ...#...#!.      
```

#### Opcodes

```
  0: 0x0001 [0x1E] EventEntity looks at LocalPlayer and starts talking
  1: 0x0006 [0x1C] WAIT(30* ticks)
  2: 0x0009 [0x5B] LOAD_EXT_SCHEDULER: Load scheduler "tkb0" with entities [Zeid (ID: 17818253/0x010FE28D), Zeid (ID: 17818253/0x010FE28D)], work=244*
  3: 0x0018 [0x1D] PRINT_EVENT_MESSAGE(message_id=8220*)
    → "I'm in charge of the Resistance forces encamped here."
  4: 0x001B [0x23] WAIT_FOR_DIALOG_INTERACTION
  5: 0x001C [0x1D] PRINT_EVENT_MESSAGE(message_id=8221*)
    → "Just when we thought enduring peace was within reach, everything was torn from our grasp."
  6: 0x001F [0x23] WAIT_FOR_DIALOG_INTERACTION
  7: 0x0020 [0x1D] PRINT_EVENT_MESSAGE(message_id=8222*)
    → "We don't know what manner of evil unleashed the cataclysm, but one thing is certain: never will we cease our struggle to survive."
  8: 0x0023 [0x23] WAIT_FOR_DIALOG_INTERACTION
  9: 0x0024 [0x1D] PRINT_EVENT_MESSAGE(message_id=8223*)
    → "Let us fight beside one another, you and I. Together, we can realize our shared dream of civilization restored."
 10: 0x0027 [0x23] WAIT_FOR_DIALOG_INTERACTION
 11: 0x0028 [0x21] END_EVENT
 12: 0x0029 [0x00] END_REQSTACK()
```

### Event 265

#### Metadata

| Field        | Value     |
|--------------|-----------|
| Entrypoint   | 0x002A    |
| Data Size    | 101 bytes |
| Instructions | 29        |

```
      00 01 02 03 04 05 06 07  08 09 0A 0B 0C 0D 0E 0F
      -- -- -- -- -- -- -- --  -- -- -- -- -- -- -- --
0020:                                1E F0 FF FF 7F 1C            ......
0030: 00 80 5B 01 80 8D E2 0F  01 8D E2 0F 01 74 6B 62  ..[..........tkb
0040: 30 02 02 10 06 80 00 50  00 1D 07 80 23 01 8D 00  0......P....#...
0050: 02 02 10 08 80 04 63 00  1D 09 80 23 1D 0A 80 23  ......c....#...#
0060: 01 8D 00 02 02 10 0B 80  04 72 00 1D 0C 80 23 01  .........r....#.
0070: 8D 00 02 02 10 0D 80 04  85 00 1D 0E 80 23 1D 0F  .............#..
0080: 80 23 01 8D 00 1D 10 80  23 1D 11 80 23 21 00     .#......#...#!. 
```

#### Opcodes

```
  0: 0x002A [0x1E] EventEntity looks at LocalPlayer and starts talking
  1: 0x002F [0x1C] WAIT(30* ticks)
  2: 0x0032 [0x5B] LOAD_EXT_SCHEDULER: Load scheduler "tkb0" with entities [Zeid (ID: 17818253/0x010FE28D), Zeid (ID: 17818253/0x010FE28D)], work=244*
  3: 0x0041 [0x02] IF !(Work_Zone[2] == 100*) GOTO 0x0050
  4: 0x0049 [0x1D] PRINT_EVENT_MESSAGE(message_id=8231*)
    → "The Abyssean threat lies subdued under our heel. Our task now is to ensure that it remains that way for good."
  5: 0x004C [0x23] WAIT_FOR_DIALOG_INTERACTION
  6: 0x004D [0x01] GOTO 0x008D
  7: 0x0050 [0x02] IF !(Work_Zone[2] < 75*) GOTO 0x0063
  8: 0x0058 [0x1D] PRINT_EVENT_MESSAGE(message_id=8229*)
    → "Our unwavering offensive strikes fear into the hearts of the enemy."
  9: 0x005B [0x23] WAIT_FOR_DIALOG_INTERACTION
 10: 0x005C [0x1D] PRINT_EVENT_MESSAGE(message_id=8230*)
    → "It won't be long now before we hold this area completely under our sway. Let us ride this tide all the way to victory!"
 11: 0x005F [0x23] WAIT_FOR_DIALOG_INTERACTION
 12: 0x0060 [0x01] GOTO 0x008D
 13: 0x0063 [0x02] IF !(Work_Zone[2] < 50*) GOTO 0x0072
 14: 0x006B [0x1D] PRINT_EVENT_MESSAGE(message_id=8228*)
    → "We've managed to turn the tables and force the Abyssean hordes onto their back foot...or whatever loathsome appendage they have. We must keep throwing our strength against them and consolidate this hard-won advantage."
 15: 0x006E [0x23] WAIT_FOR_DIALOG_INTERACTION
 16: 0x006F [0x01] GOTO 0x008D
 17: 0x0072 [0x02] IF !(Work_Zone[2] < 25*) GOTO 0x0085
 18: 0x007A [0x1D] PRINT_EVENT_MESSAGE(message_id=8226*)
    → "At present, our forces are keeping the Abyssean hordes at bay."
 19: 0x007D [0x23] WAIT_FOR_DIALOG_INTERACTION
 20: 0x007E [0x1D] PRINT_EVENT_MESSAGE(message_id=8227*)
    → "Nevertheless, we cannot afford to relax our vigil. We must redouble our efforts and take the battle to the enemy."
 21: 0x0081 [0x23] WAIT_FOR_DIALOG_INTERACTION
 22: 0x0082 [0x01] GOTO 0x008D
 23: 0x0085 [0x1D] PRINT_EVENT_MESSAGE(message_id=8224*)
    → "We are in a wretched state. The Abyssean hordes wreak havoc on our forces without cease."
 24: 0x0088 [0x23] WAIT_FOR_DIALOG_INTERACTION
 25: 0x0089 [0x1D] PRINT_EVENT_MESSAGE(message_id=8225*)
    → "Our defense line cannot hold against their onslaught for much longer. We must take drastic action, and soon."
 26: 0x008C [0x23] WAIT_FOR_DIALOG_INTERACTION

SUBROUTINE_008D:
 27: 0x008D [0x21] END_EVENT
 28: 0x008E [0x00] END_REQSTACK()
```
