# 17818254 - Tancredi

## Common Data

| Field            | Value                        |
|------------------|------------------------------|
| Zone             | Abyssea - Grauberg (ID: 254) |
| Block Size       | 92 bytes                     |
| Total Events     | 2                            |
| References Count | 4                            |

## List of Events

| Event ID              | Entrypoint   |   Size |   Instructions |
|-----------------------|--------------|--------|----------------|
| [65535](#event-65535) | 0x0000       |      1 |              1 |
| [272](#event-272)     | 0x0001       |     48 |             10 |

## DAT References (imed_data)

|   Index | Hex Value   |   Dec Value |
|---------|-------------|-------------|
|       0 | 0x001E      |          30 |
|       1 | 0x0009      |           9 |
|       2 | 0x2028      |        8232 |
|       3 | 0x2029      |        8233 |

## String References

- **8232**: Commandant Zeid's inspiring leadership instills hope and courage in one and all.
- **8233**: The grisly scar he bears on his forehead...I wonder where he sustained it.

## Events

### Event 65535

#### Metadata

| Field        | Value   |
|--------------|---------|
| Entrypoint   | 0x0000  |
| Data Size    | 1 bytes |
| Instructions | 1       |

```
      00 01 02 03 04 05 06 07  08 09 0A 0B 0C 0D 0E 0F
      -- -- -- -- -- -- -- --  -- -- -- -- -- -- -- --
0000: 00                                                .               
```

#### Opcodes

```
  0: 0x0000 [0x00] END_REQSTACK()
```

### Event 272

#### Metadata

| Field        | Value    |
|--------------|----------|
| Entrypoint   | 0x0001   |
| Data Size    | 48 bytes |
| Instructions | 10       |

```
      00 01 02 03 04 05 06 07  08 09 0A 0B 0C 0D 0E 0F
      -- -- -- -- -- -- -- --  -- -- -- -- -- -- -- --
0000:    1E F0 FF FF 7F 1C 00  80 66 01 80 8E E2 0F 01   ........f......
0010: 8E E2 0F 01 74 6C 6B 30  1D 02 80 23 1D 03 80 23  ....tlk0...#...#
0020: 66 01 80 8E E2 0F 01 8E  E2 0F 01 74 6C 6B 31 21  f..........tlk1!
0030: 00                                                .               
```

#### Opcodes

```
  0: 0x0001 [0x1E] EventEntity looks at LocalPlayer and starts talking
  1: 0x0006 [0x1C] WAIT(30* ticks)
  2: 0x0009 [0x66] LOAD_EXT_SCHEDULER_MAIN: Load scheduler "tlk0" with entities [Tancredi (ID: 17818254/0x010FE28E), Tancredi (ID: 17818254/0x010FE28E)], work=9*
  3: 0x0018 [0x1D] PRINT_EVENT_MESSAGE(message_id=8232*)
    → "Commandant Zeid's inspiring leadership instills hope and courage in one and all."
  4: 0x001B [0x23] WAIT_FOR_DIALOG_INTERACTION
  5: 0x001C [0x1D] PRINT_EVENT_MESSAGE(message_id=8233*)
    → "The grisly scar he bears on his forehead...I wonder where he sustained it."
  6: 0x001F [0x23] WAIT_FOR_DIALOG_INTERACTION
  7: 0x0020 [0x66] LOAD_EXT_SCHEDULER_MAIN: Load scheduler "tlk1" with entities [Tancredi (ID: 17818254/0x010FE28E), Tancredi (ID: 17818254/0x010FE28E)], work=9*
  8: 0x002F [0x21] END_EVENT
  9: 0x0030 [0x00] END_REQSTACK()
```
