# 17818241 - Brugaire

## Common Data

| Field            | Value                        |
|------------------|------------------------------|
| Zone             | Abyssea - Grauberg (ID: 254) |
| Block Size       | 748 bytes                    |
| Total Events     | 7                            |
| References Count | 32                           |

## List of Events

| Event ID              | Entrypoint   |   Size |   Instructions |
|-----------------------|--------------|--------|----------------|
| [65535](#event-65535) | 0x0000       |      1 |              1 |
| [250](#event-250)     | 0x0001       |    256 |             53 |
| [251](#event-251)     | 0x0101       |     53 |             14 |
| [254](#event-254)     | 0x0136       |     43 |             11 |
| [252](#event-252)     | 0x0161       |    139 |             24 |
| [253](#event-253)     | 0x01EC       |     34 |              8 |
| [276](#event-276)     | 0x020E       |     48 |             10 |

## DAT References (imed_data)

|   Index | Hex Value   |   Dec Value |
|---------|-------------|-------------|
|       0 | 0x0000      |           0 |
|       1 | 0x001E      |          30 |
|       2 | 0x0014      |          20 |
|       3 | 0x1FCE      |        8142 |
|       4 | 0x1FCF      |        8143 |
|       5 | 0x1FD0      |        8144 |
|       6 | 0x1FD1      |        8145 |
|       7 | 0x1FD2      |        8146 |
|       8 | 0x1FD3      |        8147 |
|       9 | 0x0001      |           1 |
|      10 | 0x1FD5      |        8149 |
|      11 | 0x1FD4      |        8148 |
|      12 | 0x1545      |        5445 |
|      13 | 0x1FDE      |        8158 |
|      14 | 0x1FDF      |        8159 |
|      15 | 0x1FE1      |        8161 |
|      16 | 0x1FE2      |        8162 |
|      17 | 0x1FE0      |        8160 |
|      18 | 0x1FD6      |        8150 |
|      19 | 0x1FD7      |        8151 |
|      20 | 0x1FE3      |        8163 |
|      21 | 0x1FD8      |        8152 |
|      22 | 0x1FD9      |        8153 |
|      23 | 0x1FDA      |        8154 |
|      24 | 0x1FDB      |        8155 |
|      25 | 0x1FDC      |        8156 |
|      26 | 0x1FE4      |        8164 |
|      27 | 0x1FE5      |        8165 |
|      28 | 0x00C9      |         201 |
|      29 | 0x1FDD      |        8157 |
|      30 | 0x2065      |        8293 |
|      31 | 0x2066      |        8294 |

## String References

- **8142**: Ah, you there! Yes, you with the glimmer of determination in [his/her] eyes! I have a grave and urgent request, if you would listen to my tale.
- **8143**: Are you perchance familiar with the Teekesselchen, a dreadful fiend that terrorizes these parts? Resistance soldiers have tried to hunt it down, but thus far all attempts to slay the detestable beast have ended in miserable failure.
- **8144**: Yet not all hope is lost. I very recently procured an especially formulated draught through one of my contacts, you see.
- **8145**: The draught is claimed to have a weakening effect when used against the Teekesselchen. That's the theory, at least.
- **8146**: I have been meaning to have the draught tested in combat, but the Teekesselchen's notoriety is such that no volunteers have stepped forward. As it stands, we have what is believed to be a mighty weapon, but want for a wielder. Will you be that wielder?
- **8147**: Be the wielder? [You can count on me!/Sorry, not interested.]
- **8148**: Hmph. A fool I was to think that perhaps you had a spine. I will simply have to find someone else who does.
- **8149**: I knew your answer from the very first moment I laid eyes on you! My thanks, friend. I keenly await the valiant details of your success.
- **8150**: The Teekesselchen is often seen prowling the area northwest of here.
- **8151**: Your task is straightforward: defeat the beast with the aid of $0.
- **8152**: Misplaced the $0, you say?
- **8153**: I will give you this replacement, but know that the draught can only be procured at great personal cost to myself. I must ask you to practice more caution in the future.
- **8154**: Welcome back, friend! Your epochal victory over the Teekesselchen--in no small part due to the $0--has already reached my ears!
- **8155**: Now that the draught's effect has been proven beyond doubt, I will place a bulk order to sell to Wolfgang at a premium.
- **8156**: Your cooperation in this undertaking is highly appreciated. Take this as your deserved share for the role you played.
- **8157**: The $0 I sell to Wolfgang will no doubt earn me a tidy profit. The world as we knew it may have ended, but as the saying goes: the show must go on!
- **8158**: Well met, friend. Here for another $0, mayhap?
- **8159**: Do you require $0? [Yes, please!/No, thanks.]
- **8160**: No? Let me know should you change your mind. It's the least I can do for someone to whom I owe my good fortune.
- **8161**: You wish to go another round with the Teekesselchen? Hahaha! A more bloodthirsty warrior I have never known!
- **8162**: I shall gladly furnish you with $0. All I ask in return is that you report your success to me.
- **8163**: Good luck, friend. I keenly await the inspiring details of your victory.
- **8164**: The more times you put that foul beast in its place, the happier Wolfgang becomes. And a happy customer is a paying customer. This, my friend, is the golden rule of business.
- **8165**: Take this as a token of my gratitude. I look forward to your continued assistance in the future.
- **8293**: Hm? Who do you presume to be, pray?
- **8294**: I am a busy man, and would thank you to leave me in peace.

## Events

### Event 65535

#### Metadata

| Field        | Value   |
|--------------|---------|
| Entrypoint   | 0x0000  |
| Data Size    | 1 bytes |
| Instructions | 1       |

```
      00 01 02 03 04 05 06 07  08 09 0A 0B 0C 0D 0E 0F
      -- -- -- -- -- -- -- --  -- -- -- -- -- -- -- --
0000: 00                                                .               
```

#### Opcodes

```
  0: 0x0000 [0x00] END_REQSTACK()
```

### Event 250

#### Metadata

| Field        | Value     |
|--------------|-----------|
| Entrypoint   | 0x0001    |
| Data Size    | 256 bytes |
| Instructions | 53        |

```
      00 01 02 03 04 05 06 07  08 09 0A 0B 0C 0D 0E 0F
      -- -- -- -- -- -- -- --  -- -- -- -- -- -- -- --
0000:    42 03 01 10 00 80 1E  F0 FF FF 7F 1C 01 80 66   B.............f
0010: 02 80 F8 FF FF 7F F8 FF  FF 7F 74 6C 6B 30 02 02  ..........tlk0..
0020: 10 00 80 00 9A 00 1D 03  80 23 1D 04 80 23 1D 05  .........#...#..
0030: 80 23 1D 06 80 23 1D 07  80 23 66 02 80 F8 FF FF  .#...#...#f.....
0040: 7F F8 FF FF 7F 74 6C 6B  31 24 08 80 09 80 00 80  .....tlk1$......
0050: 25 02 00 10 00 80 00 74  00 66 02 80 F8 FF FF 7F  %......t.f......
0060: F8 FF FF 7F 74 6C 6B 30  1D 0A 80 23 03 01 10 09  ....tlk0...#....
0070: 80 01 97 00 02 00 10 09  80 00 97 00 66 02 80 F8  ............f...
0080: FF FF 7F F8 FF FF 7F 74  6C 6B 30 03 02 10 8B 7F  .......tlk0.....
0090: 1D 0B 80 23 01 97 00 01  FF 00 03 02 10 0C 80 1D  ...#............
00A0: 0D 80 23 66 02 80 F8 FF  FF 7F F8 FF FF 7F 74 6C  ..#f..........tl
00B0: 6B 31 24 0E 80 09 80 00  80 25 02 00 10 00 80 00  k1$......%......
00C0: E1 00 66 02 80 F8 FF FF  7F F8 FF FF 7F 74 6C 6B  ..f..........tlk
00D0: 30 1D 0F 80 23 1D 10 80  23 03 01 10 09 80 01 FF  0...#...#.......
00E0: 00 02 00 10 09 80 00 FF  00 66 02 80 F8 FF FF 7F  .........f......
00F0: F8 FF FF 7F 74 6C 6B 30  1D 11 80 23 01 FF 00 21  ....tlk0...#...!
0100: 00                                                .               
```

#### Opcodes

```
  0: 0x0001 [0x42] SET_CLI_EVENT_CANCEL_DATA()
  1: 0x0002 [0x03] Work_Zone[1] = 0*
  2: 0x0007 [0x1E] EventEntity looks at LocalPlayer and starts talking
  3: 0x000C [0x1C] WAIT(30* ticks)
  4: 0x000F [0x66] LOAD_EXT_SCHEDULER_MAIN: Load scheduler "tlk0" with entities [EventEntity, EventEntity], work=20*
  5: 0x001E [0x02] IF !(Work_Zone[2] == 0*) GOTO 0x009A
  6: 0x0026 [0x1D] PRINT_EVENT_MESSAGE(message_id=8142*)
    → "Ah, you there! Yes, you with the glimmer of determination in [his/her] eyes! I have a grave and urgent request, if you would listen to my tale."
  7: 0x0029 [0x23] WAIT_FOR_DIALOG_INTERACTION
  8: 0x002A [0x1D] PRINT_EVENT_MESSAGE(message_id=8143*)
    → "Are you perchance familiar with the Teekesselchen, a dreadful fiend that terrorizes these parts? Resistance soldiers have tried to hunt it down, but thus far all attempts to slay the detestable beast have ended in miserable failure."
  9: 0x002D [0x23] WAIT_FOR_DIALOG_INTERACTION
 10: 0x002E [0x1D] PRINT_EVENT_MESSAGE(message_id=8144*)
    → "Yet not all hope is lost. I very recently procured an especially formulated draught through one of my contacts, you see."
 11: 0x0031 [0x23] WAIT_FOR_DIALOG_INTERACTION
 12: 0x0032 [0x1D] PRINT_EVENT_MESSAGE(message_id=8145*)
    → "The draught is claimed to have a weakening effect when used against the Teekesselchen. That's the theory, at least."
 13: 0x0035 [0x23] WAIT_FOR_DIALOG_INTERACTION
 14: 0x0036 [0x1D] PRINT_EVENT_MESSAGE(message_id=8146*)
    → "I have been meaning to have the draught tested in combat, but the Teekesselchen's notoriety is such that no volunteers have stepped forward. As it stands, we have what is believed to be a mighty weapon, but want for a wielder. Will you be that wielder?"
 15: 0x0039 [0x23] WAIT_FOR_DIALOG_INTERACTION
 16: 0x003A [0x66] LOAD_EXT_SCHEDULER_MAIN: Load scheduler "tlk1" with entities [EventEntity, EventEntity], work=20*
 17: 0x0049 [0x24] CREATE_DIALOG(message_id=8147*, default_option=1*, option_flags=0*)
    → "Be the wielder? [You can count on me!/Sorry, not interested.]"
 18: 0x0050 [0x25] WAIT_DIALOG_SELECT()
 19: 0x0051 [0x02] IF !(Work_Zone[0] == 0*) GOTO 0x0074
 20: 0x0059 [0x66] LOAD_EXT_SCHEDULER_MAIN: Load scheduler "tlk0" with entities [EventEntity, EventEntity], work=20*
 21: 0x0068 [0x1D] PRINT_EVENT_MESSAGE(message_id=8149*)
    → "I knew your answer from the very first moment I laid eyes on you! My thanks, friend. I keenly await the valiant details of your success."
 22: 0x006B [0x23] WAIT_FOR_DIALOG_INTERACTION
 23: 0x006C [0x03] Work_Zone[1] = 1*
 24: 0x0071 [0x01] GOTO 0x0097
 25: 0x0074 [0x02] IF !(Work_Zone[0] == 1*) GOTO 0x0097
 26: 0x007C [0x66] LOAD_EXT_SCHEDULER_MAIN: Load scheduler "tlk0" with entities [EventEntity, EventEntity], work=20*
 27: 0x008B [0x03] Work_Zone[2] = (LocalPlayer->Render.Flags01 >> 25) & 1
 28: 0x0090 [0x1D] PRINT_EVENT_MESSAGE(message_id=8148*)
    → "Hmph. A fool I was to think that perhaps you had a spine. I will simply have to find someone else who does."
 29: 0x0093 [0x23] WAIT_FOR_DIALOG_INTERACTION
 30: 0x0094 [0x01] GOTO 0x0097

SUBROUTINE_0097:
 31: 0x0097 [0x01] GOTO 0x00FF
 32: 0x009A [0x03] Work_Zone[2] = 5445*
 33: 0x009F [0x1D] PRINT_EVENT_MESSAGE(message_id=8158*)
    → "Well met, friend. Here for another $0, mayhap?"
 34: 0x00A2 [0x23] WAIT_FOR_DIALOG_INTERACTION
 35: 0x00A3 [0x66] LOAD_EXT_SCHEDULER_MAIN: Load scheduler "tlk1" with entities [EventEntity, EventEntity], work=20*
 36: 0x00B2 [0x24] CREATE_DIALOG(message_id=8159*, default_option=1*, option_flags=0*)
    → "Do you require $0? [Yes, please!/No, thanks.]"
 37: 0x00B9 [0x25] WAIT_DIALOG_SELECT()
 38: 0x00BA [0x02] IF !(Work_Zone[0] == 0*) GOTO 0x00E1
 39: 0x00C2 [0x66] LOAD_EXT_SCHEDULER_MAIN: Load scheduler "tlk0" with entities [EventEntity, EventEntity], work=20*
 40: 0x00D1 [0x1D] PRINT_EVENT_MESSAGE(message_id=8161*)
    → "You wish to go another round with the Teekesselchen? Hahaha! A more bloodthirsty warrior I have never known!"
 41: 0x00D4 [0x23] WAIT_FOR_DIALOG_INTERACTION
 42: 0x00D5 [0x1D] PRINT_EVENT_MESSAGE(message_id=8162*)
    → "I shall gladly furnish you with $0. All I ask in return is that you report your success to me."
 43: 0x00D8 [0x23] WAIT_FOR_DIALOG_INTERACTION
 44: 0x00D9 [0x03] Work_Zone[1] = 1*
 45: 0x00DE [0x01] GOTO 0x00FF
 46: 0x00E1 [0x02] IF !(Work_Zone[0] == 1*) GOTO 0x00FF
 47: 0x00E9 [0x66] LOAD_EXT_SCHEDULER_MAIN: Load scheduler "tlk0" with entities [EventEntity, EventEntity], work=20*
 48: 0x00F8 [0x1D] PRINT_EVENT_MESSAGE(message_id=8160*)
    → "No? Let me know should you change your mind. It's the least I can do for someone to whom I owe my good fortune."
 49: 0x00FB [0x23] WAIT_FOR_DIALOG_INTERACTION
 50: 0x00FC [0x01] GOTO 0x00FF

SUBROUTINE_00FF:
 51: 0x00FF [0x21] END_EVENT
 52: 0x0100 [0x00] END_REQSTACK()
```

### Event 251

#### Metadata

| Field        | Value    |
|--------------|----------|
| Entrypoint   | 0x0101   |
| Data Size    | 53 bytes |
| Instructions | 14       |

```
      00 01 02 03 04 05 06 07  08 09 0A 0B 0C 0D 0E 0F
      -- -- -- -- -- -- -- --  -- -- -- -- -- -- -- --
0100:    1E F0 FF FF 7F 1C 01  80 66 02 80 F8 FF FF 7F   ........f......
0110: F8 FF FF 7F 74 6C 6B 30  1D 12 80 23 02 02 10 00  ....tlk0...#....
0120: 80 00 30 01 03 02 10 0C  80 1D 13 80 23 01 34 01  ..0.........#.4.
0130: 1D 14 80 23 21 00                                 ...#!.          
```

#### Opcodes

```
  0: 0x0101 [0x1E] EventEntity looks at LocalPlayer and starts talking
  1: 0x0106 [0x1C] WAIT(30* ticks)
  2: 0x0109 [0x66] LOAD_EXT_SCHEDULER_MAIN: Load scheduler "tlk0" with entities [EventEntity, EventEntity], work=20*
  3: 0x0118 [0x1D] PRINT_EVENT_MESSAGE(message_id=8150*)
    → "The Teekesselchen is often seen prowling the area northwest of here."
  4: 0x011B [0x23] WAIT_FOR_DIALOG_INTERACTION
  5: 0x011C [0x02] IF !(Work_Zone[2] == 0*) GOTO 0x0130
  6: 0x0124 [0x03] Work_Zone[2] = 5445*
  7: 0x0129 [0x1D] PRINT_EVENT_MESSAGE(message_id=8151*)
    → "Your task is straightforward: defeat the beast with the aid of $0."
  8: 0x012C [0x23] WAIT_FOR_DIALOG_INTERACTION
  9: 0x012D [0x01] GOTO 0x0134
 10: 0x0130 [0x1D] PRINT_EVENT_MESSAGE(message_id=8163*)
    → "Good luck, friend. I keenly await the inspiring details of your victory."
 11: 0x0133 [0x23] WAIT_FOR_DIALOG_INTERACTION

SUBROUTINE_0134:
 12: 0x0134 [0x21] END_EVENT
 13: 0x0135 [0x00] END_REQSTACK()
```

### Event 254

#### Metadata

| Field        | Value    |
|--------------|----------|
| Entrypoint   | 0x0136   |
| Data Size    | 43 bytes |
| Instructions | 11       |

```
      00 01 02 03 04 05 06 07  08 09 0A 0B 0C 0D 0E 0F
      -- -- -- -- -- -- -- --  -- -- -- -- -- -- -- --
0130:                   1E F0  FF FF 7F 1C 01 80 66 02        ........f.
0140: 80 F8 FF FF 7F F8 FF FF  7F 74 6C 6B 30 03 02 10  .........tlk0...
0150: 0C 80 1D 15 80 23 03 02  10 8B 7F 1D 16 80 23 21  .....#........#!
0160: 00                                                .               
```

#### Opcodes

```
  0: 0x0136 [0x1E] EventEntity looks at LocalPlayer and starts talking
  1: 0x013B [0x1C] WAIT(30* ticks)
  2: 0x013E [0x66] LOAD_EXT_SCHEDULER_MAIN: Load scheduler "tlk0" with entities [EventEntity, EventEntity], work=20*
  3: 0x014D [0x03] Work_Zone[2] = 5445*
  4: 0x0152 [0x1D] PRINT_EVENT_MESSAGE(message_id=8152*)
    → "Misplaced the $0, you say?"
  5: 0x0155 [0x23] WAIT_FOR_DIALOG_INTERACTION
  6: 0x0156 [0x03] Work_Zone[2] = (LocalPlayer->Render.Flags01 >> 25) & 1
  7: 0x015B [0x1D] PRINT_EVENT_MESSAGE(message_id=8153*)
    → "I will give you this replacement, but know that the draught can only be procured at great personal cost to myself. I must ask you to practice more caution in the future."
  8: 0x015E [0x23] WAIT_FOR_DIALOG_INTERACTION
  9: 0x015F [0x21] END_EVENT
 10: 0x0160 [0x00] END_REQSTACK()
```

### Event 252

#### Metadata

| Field        | Value     |
|--------------|-----------|
| Entrypoint   | 0x0161    |
| Data Size    | 139 bytes |
| Instructions | 24        |

```
      00 01 02 03 04 05 06 07  08 09 0A 0B 0C 0D 0E 0F
      -- -- -- -- -- -- -- --  -- -- -- -- -- -- -- --
0160:    42 1E F0 FF FF 7F 1C  01 80 66 02 80 F8 FF FF   B........f.....
0170: 7F F8 FF FF 7F 74 6C 6B  30 03 02 10 0C 80 1D 17  .....tlk0.......
0180: 80 23 02 02 10 00 80 00  B3 01 1D 18 80 23 66 02  .#...........#f.
0190: 80 F8 FF FF 7F F8 FF FF  7F 74 6C 6B 31 66 02 80  .........tlk1f..
01A0: F8 FF FF 7F F8 FF FF 7F  70 61 73 30 1D 19 80 23  ........pas0...#
01B0: 01 D9 01 1D 1A 80 23 66  02 80 F8 FF FF 7F F8 FF  ......#f........
01C0: FF 7F 74 6C 6B 31 66 02  80 F8 FF FF 7F F8 FF FF  ..tlk1f.........
01D0: 7F 70 61 73 30 1D 1B 80  23 45 1C 80 F0 FF FF 7F  .pas0...#E......
01E0: F0 FF FF 7F 71 73 74 63  00 80 21 00              ....qstc..!.    
```

#### Opcodes

```
  0: 0x0161 [0x42] SET_CLI_EVENT_CANCEL_DATA()
  1: 0x0162 [0x1E] EventEntity looks at LocalPlayer and starts talking
  2: 0x0167 [0x1C] WAIT(30* ticks)
  3: 0x016A [0x66] LOAD_EXT_SCHEDULER_MAIN: Load scheduler "tlk0" with entities [EventEntity, EventEntity], work=20*
  4: 0x0179 [0x03] Work_Zone[2] = 5445*
  5: 0x017E [0x1D] PRINT_EVENT_MESSAGE(message_id=8154*)
    → "Welcome back, friend! Your epochal victory over the Teekesselchen--in no small part due to the $0--has already reached my ears!"
  6: 0x0181 [0x23] WAIT_FOR_DIALOG_INTERACTION
  7: 0x0182 [0x02] IF !(Work_Zone[2] == 0*) GOTO 0x01B3
  8: 0x018A [0x1D] PRINT_EVENT_MESSAGE(message_id=8155*)
    → "Now that the draught's effect has been proven beyond doubt, I will place a bulk order to sell to Wolfgang at a premium."
  9: 0x018D [0x23] WAIT_FOR_DIALOG_INTERACTION
 10: 0x018E [0x66] LOAD_EXT_SCHEDULER_MAIN: Load scheduler "tlk1" with entities [EventEntity, EventEntity], work=20*
 11: 0x019D [0x66] LOAD_EXT_SCHEDULER_MAIN: Load scheduler "pas0" with entities [EventEntity, EventEntity], work=20*
 12: 0x01AC [0x1D] PRINT_EVENT_MESSAGE(message_id=8156*)
    → "Your cooperation in this undertaking is highly appreciated. Take this as your deserved share for the role you played."
 13: 0x01AF [0x23] WAIT_FOR_DIALOG_INTERACTION
 14: 0x01B0 [0x01] GOTO 0x01D9
 15: 0x01B3 [0x1D] PRINT_EVENT_MESSAGE(message_id=8164*)
    → "The more times you put that foul beast in its place, the happier Wolfgang becomes. And a happy customer is a paying customer. This, my friend, is the golden rule of business."
 16: 0x01B6 [0x23] WAIT_FOR_DIALOG_INTERACTION
 17: 0x01B7 [0x66] LOAD_EXT_SCHEDULER_MAIN: Load scheduler "tlk1" with entities [EventEntity, EventEntity], work=20*
 18: 0x01C6 [0x66] LOAD_EXT_SCHEDULER_MAIN: Load scheduler "pas0" with entities [EventEntity, EventEntity], work=20*
 19: 0x01D5 [0x1D] PRINT_EVENT_MESSAGE(message_id=8165*)
    → "Take this as a token of my gratitude. I look forward to your continued assistance in the future."
 20: 0x01D8 [0x23] WAIT_FOR_DIALOG_INTERACTION

SUBROUTINE_01D9:
 21: 0x01D9 [0x45] LOAD_SCHEDULED_TASK: Load scheduler "qstc" with entities [LocalPlayer, LocalPlayer], work=[201*, 0*]
 22: 0x01EA [0x21] END_EVENT
 23: 0x01EB [0x00] END_REQSTACK()
```

### Event 253

#### Metadata

| Field        | Value    |
|--------------|----------|
| Entrypoint   | 0x01EC   |
| Data Size    | 34 bytes |
| Instructions | 8        |

```
      00 01 02 03 04 05 06 07  08 09 0A 0B 0C 0D 0E 0F
      -- -- -- -- -- -- -- --  -- -- -- -- -- -- -- --
01E0:                                      1E F0 FF FF              ....
01F0: 7F 1C 01 80 66 02 80 F8  FF FF 7F F8 FF FF 7F 74  ....f..........t
0200: 6C 6B 30 03 02 10 0C 80  1D 1D 80 23 21 00        lk0........#!.  
```

#### Opcodes

```
  0: 0x01EC [0x1E] EventEntity looks at LocalPlayer and starts talking
  1: 0x01F1 [0x1C] WAIT(30* ticks)
  2: 0x01F4 [0x66] LOAD_EXT_SCHEDULER_MAIN: Load scheduler "tlk0" with entities [EventEntity, EventEntity], work=20*
  3: 0x0203 [0x03] Work_Zone[2] = 5445*
  4: 0x0208 [0x1D] PRINT_EVENT_MESSAGE(message_id=8157*)
    → "The $0 I sell to Wolfgang will no doubt earn me a tidy profit. The world as we knew it may have ended, but as the saying goes: the show must go on!"
  5: 0x020B [0x23] WAIT_FOR_DIALOG_INTERACTION
  6: 0x020C [0x21] END_EVENT
  7: 0x020D [0x00] END_REQSTACK()
```

### Event 276

#### Metadata

| Field        | Value    |
|--------------|----------|
| Entrypoint   | 0x020E   |
| Data Size    | 48 bytes |
| Instructions | 10       |

```
      00 01 02 03 04 05 06 07  08 09 0A 0B 0C 0D 0E 0F
      -- -- -- -- -- -- -- --  -- -- -- -- -- -- -- --
0200:                                            66 02                f.
0210: 80 F8 FF FF 7F F8 FF FF  7F 74 68 6B 31 1D 1E 80  .........thk1...
0220: 23 66 02 80 F8 FF FF 7F  F8 FF FF 7F 74 68 6B 32  #f..........thk2
0230: 1E F0 FF FF 7F 1C 01 80  1D 1F 80 23 21 00        ...........#!.  
```

#### Opcodes

```
  0: 0x020E [0x66] LOAD_EXT_SCHEDULER_MAIN: Load scheduler "thk1" with entities [EventEntity, EventEntity], work=20*
  1: 0x021D [0x1D] PRINT_EVENT_MESSAGE(message_id=8293*)
    → "Hm? Who do you presume to be, pray?"
  2: 0x0220 [0x23] WAIT_FOR_DIALOG_INTERACTION
  3: 0x0221 [0x66] LOAD_EXT_SCHEDULER_MAIN: Load scheduler "thk2" with entities [EventEntity, EventEntity], work=20*
  4: 0x0230 [0x1E] EventEntity looks at LocalPlayer and starts talking
  5: 0x0235 [0x1C] WAIT(30* ticks)
  6: 0x0238 [0x1D] PRINT_EVENT_MESSAGE(message_id=8294*)
    → "I am a busy man, and would thank you to leave me in peace."
  7: 0x023B [0x23] WAIT_FOR_DIALOG_INTERACTION
  8: 0x023C [0x21] END_EVENT
  9: 0x023D [0x00] END_REQSTACK()
```
