# 17818235 - Kuoh Rhel

## Common Data

| Field            | Value                        |
|------------------|------------------------------|
| Zone             | Abyssea - Grauberg (ID: 254) |
| Block Size       | 468 bytes                    |
| Total Events     | 6                            |
| References Count | 20                           |

## List of Events

| Event ID              | Entrypoint   |   Size |   Instructions |
|-----------------------|--------------|--------|----------------|
| [65535](#event-65535) | 0x0000       |      1 |              1 |
| [231](#event-231)     | 0x0001       |    246 |             51 |
| [232](#event-232)     | 0x00F7       |     29 |              7 |
| [233](#event-233)     | 0x0114       |      1 |              1 |
| [234](#event-234)     | 0x0115       |     29 |              7 |
| [236](#event-236)     | 0x0132       |     39 |              9 |

## DAT References (imed_data)

|   Index | Hex Value   |   Dec Value |
|---------|-------------|-------------|
|       0 | 0x0000      |           0 |
|       1 | 0x001E      |          30 |
|       2 | 0x0032      |          50 |
|       3 | 0x1F75      |        8053 |
|       4 | 0x1F76      |        8054 |
|       5 | 0x1F77      |        8055 |
|       6 | 0x1F78      |        8056 |
|       7 | 0x0001      |           1 |
|       8 | 0x1F79      |        8057 |
|       9 | 0x1F7A      |        8058 |
|      10 | 0x1F7B      |        8059 |
|      11 | 0x1F7C      |        8060 |
|      12 | 0x1F7D      |        8061 |
|      13 | 0x1F8F      |        8079 |
|      14 | 0x1F90      |        8080 |
|      15 | 0x1F91      |        8081 |
|      16 | 0x1F92      |        8082 |
|      17 | 0x1F85      |        8069 |
|      18 | 0x1115      |        4373 |
|      19 | 0x1F88      |        8072 |

## String References

- **8053**: Well, howdy there, pardnerrr. Pardon mah askin', but did you mosey on over here at Tosuka-Porika's request, by any chance?
- **8054**: Did Tosuka-Porika send you? [He sure did!/Tosu...who?]
- **8055**: Oh, dang! I'm sorry fer bein' late on the delivery!
- **8056**: I've been experrriencin'...uh, a pebble in mah boots--technical difficulties that've prevented business from runnin' as usual.
- **8057**: Not in Tosuka-Porika's employ? Well, that's a relief. I'm supposed to be makin' a delivery fer him, you see, but've been experrriencin'...uh, a pebble in mah boots--technical difficulties that've prevented business from rrrunnin' as usual.
- **8058**: Mah pack chocobo's been under the weather o' late, refusin' to eat anythin' I put in frrront o' it.
- **8059**: It's all this lone wrrrangler can do to get it to sip water. Needless to say, the creature ain't in no shape to be transporrrtin' freight fer lack o' nourishment.
- **8060**: This dang cataclysm's affected us all, but it mus' be especially harrrd fer the poor feller. I reckon it's got more'n its fair share o' strrress pent up beneath that fluffy plumage.
- **8061**: I've tried givin' it half-a-hunnerd diff'rent types o' feed, but it won't so much as sniff any o' 'em. I'm at mah wit's end, pardnerrr. If I can't find somethin' to its taste, and soon, there'll be nothin' left o' the crrreature but feathers and bones!
- **8069**: Now mah feathered friend and I can get back to the jolly ol' business o' transporrrtin' goods!
- **8072**: [Too late, dang it.../<Sigh>...] Well, there ain't no helpin' it now. We'll jus' have to keep feedin' it $1 till it starrrts gaggin' and squawkin' fer somethin' else.
- **8079**: Well, howdy there, pardnerrr! How's about assistin' in feedin' this here feathered frrriend o' mine?
- **8080**: Help feed the chocobo? [Certainly!/Not right now.]
- **8081**: Thanks a bundle o' top-quality hay, pardnerrr! I'm countin' on you!
- **8082**: That's a cryin' shame, pardnerrr. Looks like there'll be no deliveries made by this lone wranglerrr.

## Events

### Event 65535

#### Metadata

| Field        | Value   |
|--------------|---------|
| Entrypoint   | 0x0000  |
| Data Size    | 1 bytes |
| Instructions | 1       |

```
      00 01 02 03 04 05 06 07  08 09 0A 0B 0C 0D 0E 0F
      -- -- -- -- -- -- -- --  -- -- -- -- -- -- -- --
0000: 00                                                .               
```

#### Opcodes

```
  0: 0x0000 [0x00] END_REQSTACK()
```

### Event 231

#### Metadata

| Field        | Value     |
|--------------|-----------|
| Entrypoint   | 0x0001    |
| Data Size    | 246 bytes |
| Instructions | 51        |

```
      00 01 02 03 04 05 06 07  08 09 0A 0B 0C 0D 0E 0F
      -- -- -- -- -- -- -- --  -- -- -- -- -- -- -- --
0000:    42 03 01 10 00 80 1E  F0 FF FF 7F 1C 01 80 66   B.............f
0010: 02 80 F8 FF FF 7F F8 FF  FF 7F 74 6C 6B 30 02 02  ..........tlk0..
0020: 10 00 80 00 99 00 1D 03  80 23 66 02 80 F8 FF FF  .........#f.....
0030: 7F F8 FF FF 7F 74 6C 6B  32 24 04 80 00 80 00 80  .....tlk2$......
0040: 25 02 00 10 00 80 00 63  00 66 02 80 F8 FF FF 7F  %......c.f......
0050: F8 FF FF 7F 74 6C 6B 30  1D 05 80 23 1D 06 80 23  ....tlk0...#...#
0060: 01 81 00 02 00 10 07 80  00 81 00 66 02 80 F8 FF  ...........f....
0070: FF 7F F8 FF FF 7F 74 6C  6B 30 1D 08 80 23 01 81  ......tlk0...#..
0080: 00 1D 09 80 23 1D 0A 80  23 1D 0B 80 23 1D 0C 80  ....#...#...#...
0090: 23 03 01 10 07 80 01 F5  00 1D 0D 80 23 66 02 80  #...........#f..
00A0: F8 FF FF 7F F8 FF FF 7F  74 6C 6B 32 24 0E 80 07  ........tlk2$...
00B0: 80 00 80 25 02 00 10 00  80 00 D7 00 66 02 80 F8  ...%........f...
00C0: FF FF 7F F8 FF FF 7F 74  6C 6B 30 1D 0F 80 23 03  .......tlk0...#.
00D0: 01 10 07 80 01 F5 00 02  00 10 07 80 00 F5 00 66  ...............f
00E0: 02 80 F8 FF FF 7F F8 FF  FF 7F 74 68 6B 31 1D 10  ..........thk1..
00F0: 80 23 01 F5 00 21 00                              .#...!.         
```

#### Opcodes

```
  0: 0x0001 [0x42] SET_CLI_EVENT_CANCEL_DATA()
  1: 0x0002 [0x03] Work_Zone[1] = 0*
  2: 0x0007 [0x1E] EventEntity looks at LocalPlayer and starts talking
  3: 0x000C [0x1C] WAIT(30* ticks)
  4: 0x000F [0x66] LOAD_EXT_SCHEDULER_MAIN: Load scheduler "tlk0" with entities [EventEntity, EventEntity], work=50*
  5: 0x001E [0x02] IF !(Work_Zone[2] == 0*) GOTO 0x0099
  6: 0x0026 [0x1D] PRINT_EVENT_MESSAGE(message_id=8053*)
    → "Well, howdy there, pardnerrr. Pardon mah askin', but did you mosey on over here at Tosuka-Porika's request, by any chance?"
  7: 0x0029 [0x23] WAIT_FOR_DIALOG_INTERACTION
  8: 0x002A [0x66] LOAD_EXT_SCHEDULER_MAIN: Load scheduler "tlk2" with entities [EventEntity, EventEntity], work=50*
  9: 0x0039 [0x24] CREATE_DIALOG(message_id=8054*, default_option=0*, option_flags=0*)
    → "Did Tosuka-Porika send you? [He sure did!/Tosu...who?]"
 10: 0x0040 [0x25] WAIT_DIALOG_SELECT()
 11: 0x0041 [0x02] IF !(Work_Zone[0] == 0*) GOTO 0x0063
 12: 0x0049 [0x66] LOAD_EXT_SCHEDULER_MAIN: Load scheduler "tlk0" with entities [EventEntity, EventEntity], work=50*
 13: 0x0058 [0x1D] PRINT_EVENT_MESSAGE(message_id=8055*)
    → "Oh, dang! I'm sorry fer bein' late on the delivery!"
 14: 0x005B [0x23] WAIT_FOR_DIALOG_INTERACTION
 15: 0x005C [0x1D] PRINT_EVENT_MESSAGE(message_id=8056*)
    → "I've been experrriencin'...uh, a pebble in mah boots--technical difficulties that've prevented business from runnin' as usual."
 16: 0x005F [0x23] WAIT_FOR_DIALOG_INTERACTION
 17: 0x0060 [0x01] GOTO 0x0081
 18: 0x0063 [0x02] IF !(Work_Zone[0] == 1*) GOTO 0x0081
 19: 0x006B [0x66] LOAD_EXT_SCHEDULER_MAIN: Load scheduler "tlk0" with entities [EventEntity, EventEntity], work=50*
 20: 0x007A [0x1D] PRINT_EVENT_MESSAGE(message_id=8057*)
    → "Not in Tosuka-Porika's employ? Well, that's a relief. I'm supposed to be makin' a delivery fer him, you see, but've been experrriencin'...uh, a pebble in mah boots--technical difficulties that've prevented business from rrrunnin' as usual."
 21: 0x007D [0x23] WAIT_FOR_DIALOG_INTERACTION
 22: 0x007E [0x01] GOTO 0x0081

SUBROUTINE_0081:
 23: 0x0081 [0x1D] PRINT_EVENT_MESSAGE(message_id=8058*)
    → "Mah pack chocobo's been under the weather o' late, refusin' to eat anythin' I put in frrront o' it."
 24: 0x0084 [0x23] WAIT_FOR_DIALOG_INTERACTION
 25: 0x0085 [0x1D] PRINT_EVENT_MESSAGE(message_id=8059*)
    → "It's all this lone wrrrangler can do to get it to sip water. Needless to say, the creature ain't in no shape to be transporrrtin' freight fer lack o' nourishment."
 26: 0x0088 [0x23] WAIT_FOR_DIALOG_INTERACTION
 27: 0x0089 [0x1D] PRINT_EVENT_MESSAGE(message_id=8060*)
    → "This dang cataclysm's affected us all, but it mus' be especially harrrd fer the poor feller. I reckon it's got more'n its fair share o' strrress pent up beneath that fluffy plumage."
 28: 0x008C [0x23] WAIT_FOR_DIALOG_INTERACTION
 29: 0x008D [0x1D] PRINT_EVENT_MESSAGE(message_id=8061*)
    → "I've tried givin' it half-a-hunnerd diff'rent types o' feed, but it won't so much as sniff any o' 'em. I'm at mah wit's end, pardnerrr. If I can't find somethin' to its taste, and soon, there'll be nothin' left o' the crrreature but feathers and bones!"
 30: 0x0090 [0x23] WAIT_FOR_DIALOG_INTERACTION
 31: 0x0091 [0x03] Work_Zone[1] = 1*
 32: 0x0096 [0x01] GOTO 0x00F5
 33: 0x0099 [0x1D] PRINT_EVENT_MESSAGE(message_id=8079*)
    → "Well, howdy there, pardnerrr! How's about assistin' in feedin' this here feathered frrriend o' mine?"
 34: 0x009C [0x23] WAIT_FOR_DIALOG_INTERACTION
 35: 0x009D [0x66] LOAD_EXT_SCHEDULER_MAIN: Load scheduler "tlk2" with entities [EventEntity, EventEntity], work=50*
 36: 0x00AC [0x24] CREATE_DIALOG(message_id=8080*, default_option=1*, option_flags=0*)
    → "Help feed the chocobo? [Certainly!/Not right now.]"
 37: 0x00B3 [0x25] WAIT_DIALOG_SELECT()
 38: 0x00B4 [0x02] IF !(Work_Zone[0] == 0*) GOTO 0x00D7
 39: 0x00BC [0x66] LOAD_EXT_SCHEDULER_MAIN: Load scheduler "tlk0" with entities [EventEntity, EventEntity], work=50*
 40: 0x00CB [0x1D] PRINT_EVENT_MESSAGE(message_id=8081*)
    → "Thanks a bundle o' top-quality hay, pardnerrr! I'm countin' on you!"
 41: 0x00CE [0x23] WAIT_FOR_DIALOG_INTERACTION
 42: 0x00CF [0x03] Work_Zone[1] = 1*
 43: 0x00D4 [0x01] GOTO 0x00F5
 44: 0x00D7 [0x02] IF !(Work_Zone[0] == 1*) GOTO 0x00F5
 45: 0x00DF [0x66] LOAD_EXT_SCHEDULER_MAIN: Load scheduler "thk1" with entities [EventEntity, EventEntity], work=50*
 46: 0x00EE [0x1D] PRINT_EVENT_MESSAGE(message_id=8082*)
    → "That's a cryin' shame, pardnerrr. Looks like there'll be no deliveries made by this lone wranglerrr."
 47: 0x00F1 [0x23] WAIT_FOR_DIALOG_INTERACTION
 48: 0x00F2 [0x01] GOTO 0x00F5

SUBROUTINE_00F5:
 49: 0x00F5 [0x21] END_EVENT
 50: 0x00F6 [0x00] END_REQSTACK()
```

### Event 232

#### Metadata

| Field        | Value    |
|--------------|----------|
| Entrypoint   | 0x00F7   |
| Data Size    | 29 bytes |
| Instructions | 7        |

```
      00 01 02 03 04 05 06 07  08 09 0A 0B 0C 0D 0E 0F
      -- -- -- -- -- -- -- --  -- -- -- -- -- -- -- --
00F0:                      1E  F0 FF FF 7F 1C 01 80 66         ........f
0100: 02 80 F8 FF FF 7F F8 FF  FF 7F 74 6C 6B 30 1D 0C  ..........tlk0..
0110: 80 23 21 00                                       .#!.            
```

#### Opcodes

```
  0: 0x00F7 [0x1E] EventEntity looks at LocalPlayer and starts talking
  1: 0x00FC [0x1C] WAIT(30* ticks)
  2: 0x00FF [0x66] LOAD_EXT_SCHEDULER_MAIN: Load scheduler "tlk0" with entities [EventEntity, EventEntity], work=50*
  3: 0x010E [0x1D] PRINT_EVENT_MESSAGE(message_id=8061*)
    → "I've tried givin' it half-a-hunnerd diff'rent types o' feed, but it won't so much as sniff any o' 'em. I'm at mah wit's end, pardnerrr. If I can't find somethin' to its taste, and soon, there'll be nothin' left o' the crrreature but feathers and bones!"
  4: 0x0111 [0x23] WAIT_FOR_DIALOG_INTERACTION
  5: 0x0112 [0x21] END_EVENT
  6: 0x0113 [0x00] END_REQSTACK()
```

### Event 233

#### Metadata

| Field        | Value   |
|--------------|---------|
| Entrypoint   | 0x0114  |
| Data Size    | 1 bytes |
| Instructions | 1       |

```
      00 01 02 03 04 05 06 07  08 09 0A 0B 0C 0D 0E 0F
      -- -- -- -- -- -- -- --  -- -- -- -- -- -- -- --
0110:             00                                        .           
```

#### Opcodes

```
  0: 0x0114 [0x00] END_REQSTACK()
```

### Event 234

#### Metadata

| Field        | Value    |
|--------------|----------|
| Entrypoint   | 0x0115   |
| Data Size    | 29 bytes |
| Instructions | 7        |

```
      00 01 02 03 04 05 06 07  08 09 0A 0B 0C 0D 0E 0F
      -- -- -- -- -- -- -- --  -- -- -- -- -- -- -- --
0110:                1E F0 FF  FF 7F 1C 01 80 66 02 80       ........f..
0120: F8 FF FF 7F F8 FF FF 7F  74 6C 6B 30 1D 11 80 23  ........tlk0...#
0130: 21 00                                             !.              
```

#### Opcodes

```
  0: 0x0115 [0x1E] EventEntity looks at LocalPlayer and starts talking
  1: 0x011A [0x1C] WAIT(30* ticks)
  2: 0x011D [0x66] LOAD_EXT_SCHEDULER_MAIN: Load scheduler "tlk0" with entities [EventEntity, EventEntity], work=50*
  3: 0x012C [0x1D] PRINT_EVENT_MESSAGE(message_id=8069*)
    → "Now mah feathered friend and I can get back to the jolly ol' business o' transporrrtin' goods!"
  4: 0x012F [0x23] WAIT_FOR_DIALOG_INTERACTION
  5: 0x0130 [0x21] END_EVENT
  6: 0x0131 [0x00] END_REQSTACK()
```

### Event 236

#### Metadata

| Field        | Value    |
|--------------|----------|
| Entrypoint   | 0x0132   |
| Data Size    | 39 bytes |
| Instructions | 9        |

```
      00 01 02 03 04 05 06 07  08 09 0A 0B 0C 0D 0E 0F
      -- -- -- -- -- -- -- --  -- -- -- -- -- -- -- --
0130:       1E F0 FF FF 7F 1C  01 80 66 02 80 F8 FF FF    ........f.....
0140: 7F F8 FF FF 7F 74 6C 6B  30 03 02 10 07 80 03 03  .....tlk0.......
0150: 10 12 80 1D 13 80 23 21  00                       ......#!.       
```

#### Opcodes

```
  0: 0x0132 [0x1E] EventEntity looks at LocalPlayer and starts talking
  1: 0x0137 [0x1C] WAIT(30* ticks)
  2: 0x013A [0x66] LOAD_EXT_SCHEDULER_MAIN: Load scheduler "tlk0" with entities [EventEntity, EventEntity], work=50*
  3: 0x0149 [0x03] Work_Zone[2] = 1*
  4: 0x014E [0x03] Work_Zone[3] = 4373*
  5: 0x0153 [0x1D] PRINT_EVENT_MESSAGE(message_id=8072*)
    → "[Too late, dang it.../<Sigh>...] Well, there ain't no helpin' it now. We'll jus' have to keep feedin' it $1 till it starrrts gaggin' and squawkin' fer somethin' else."
  6: 0x0156 [0x23] WAIT_FOR_DIALOG_INTERACTION
  7: 0x0157 [0x21] END_EVENT
  8: 0x0158 [0x00] END_REQSTACK()
```
