# Event 65535

## Metadata

| Field           | Value    |
|-----------------|----------|
| Event Index     | 4/11     |
| Offset          | 0x0015   |
| Data Size       | 61 bytes |
| Calculated Size | 61 bytes |
| Instructions    | 9        |

```
      00 01 02 03 04 05 06 07  08 09 0A 0B 0C 0D 0E 0F
      -- -- -- -- -- -- -- --  -- -- -- -- -- -- -- --
0010:                1C 04 80  45 05 80 F0 FF FF 7F F0       ...E.......
0020: FF FF 7F 77 30 30 32 02  80 29 04 1E 70 0E 01 04  ...w002..)..p...
0030: 1C 06 80 4A 1E 70 0E 01  1D 70 0E 01 6F 76 1E 70  ...J.p...p..ov.p
0040: 0E 01 55 05 80 F0 FF FF  7F F0 FF FF 7F 77 30 30  ..U..........w00
0050: 32 00                                             2.              
```

## Opcodes

```
  0: 0x0015 [0x1C] WAIT(90* ticks)
  1: 0x0018 [0x45] LOAD_SCHEDULED_TASK: Load scheduler "w002" with entities [LocalPlayer, LocalPlayer], work=[210*, 0*]
  2: 0x0029 [0x29] REQ_SET_WAIT(priority=0x04, entity_id=Oiheaurese (ID: 17723422/0x010E701E), tag_num=0x04)
  3: 0x0030 [0x1C] WAIT(140* ticks)
  4: 0x0033 [0x4A] Oiheaurese (ID: 17723422/0x010E701E) looks at Rahal (ID: 17723421/0x010E701D)
  5: 0x003C [0x6F] WAIT_FRAME_DELAY: Yield until WaitTime reaches zero
  6: 0x003D [0x76] CHECK_ENTITY_RENDER_FLAGS: Wait until Oiheaurese (ID: 17723422/0x010E701E) Render.Flags0 and Render.Flags3 conditions are met
  7: 0x0042 [0x55] WAIT_LOAD_SCHEDULER: Wait for scheduler "w002" with entities [LocalPlayer, LocalPlayer], work=210*
  8: 0x0051 [0x00] END_REQSTACK()
```
