# Event 65535

## Metadata

| Field           | Value    |
|-----------------|----------|
| Event Index     | 8/8      |
| Offset          | 0x002C   |
| Data Size       | 50 bytes |
| Calculated Size | 50 bytes |
| Instructions    | 12       |

```
      00 01 02 03 04 05 06 07  08 09 0A 0B 0C 0D 0E 0F
      -- -- -- -- -- -- -- --  -- -- -- -- -- -- -- --
0020:                                      1C 04 80 4B              ...K
0030: BB B2 09 01 05 80 1C 06  80 32 07 80 1F 00 08 80  .........2......
0040: 09 80 03 80 1F 01 1C 06  80 4B BB B2 09 01 0A 80  .........K......
0050: 1C 0B 80 1F 00 0C 80 0D  80 03 80 1F 01 00        ..............  
```

## Opcodes

```
  0: 0x002C [0x1C] WAIT(350* ticks)
  1: 0x002F [0x4B] UPDATE_ENTITY_YAW(entity=Unnamed NPC (ID: 17412795/0x0109B2BB), yaw=13.73°*)
  2: 0x0036 [0x1C] WAIT(360* ticks)
  3: 0x0039 [0x32] ExtData[1]->MainSpeed = 15* * 0.1
  4: 0x003C [0x1F] MOVE_ENTITY: EventEntity moves to X=-350.614*, Z=-122.789*, Y=-51.999*
  5: 0x0044 [0x1F] MOVE_ENTITY: Update entity position (mode=1)
  6: 0x0046 [0x1C] WAIT(360* ticks)
  7: 0x0049 [0x4B] UPDATE_ENTITY_YAW(entity=Unnamed NPC (ID: 17412795/0x0109B2BB), yaw=8.24°*)
  8: 0x0050 [0x1C] WAIT(180* ticks)
  9: 0x0053 [0x1F] MOVE_ENTITY: EventEntity moves to X=-356.348*, Z=-128.560*, Y=-51.999*
 10: 0x005B [0x1F] MOVE_ENTITY: Update entity position (mode=1)
 11: 0x005D [0x00] END_REQSTACK()
```
