# Event 287

## Metadata

| Field           | Value    |
|-----------------|----------|
| Event Index     | 5/8      |
| Offset          | 0x0057   |
| Data Size       | 27 bytes |
| Calculated Size | 27 bytes |
| Instructions    | 11       |

```
      00 01 02 03 04 05 06 07  08 09 0A 0B 0C 0D 0E 0F
      -- -- -- -- -- -- -- --  -- -- -- -- -- -- -- --
0050:                      1E  F0 FF FF 7F 1C 01 80 1D         .........
0060: 09 80 23 03 02 10 06 80  1D 0A 80 23 1D 0B 80 23  ..#........#...#
0070: 21 00                                             !.              
```

## Opcodes

```
  0: 0x0057 [0x1E] EventEntity looks at LocalPlayer and starts talking
  1: 0x005C [0x1C] WAIT(20* ticks)
  2: 0x005F [0x1D] PRINT_EVENT_MESSAGE(message_id=8180*)
    → "The dragon's rightful home!?\u0007Wherever did you hear that from?\u007F1\u0000\u0007"
  3: 0x0062 [0x23] WAIT_FOR_DIALOG_INTERACTION
  4: 0x0063 [0x03] Work_Zone[2] = 1762*
  5: 0x0068 [0x1D] PRINT_EVENT_MESSAGE(message_id=8181*)
    → "The tales say that the \u0001\u00053\u0002\u0000\u0000\u0000 will hatch if laid to rest on Drogaroga's Spine in the Meriphataud Mountains.\u007F1\u0000\u0007"
  6: 0x006B [0x23] WAIT_FOR_DIALOG_INTERACTION
  7: 0x006C [0x1D] PRINT_EVENT_MESSAGE(message_id=8182*)
    → "But alas... Ever since the earthquakes disfigured the land, I fear that no road will take you there...\u007F1\u0000\u0007"
  8: 0x006F [0x23] WAIT_FOR_DIALOG_INTERACTION
  9: 0x0070 [0x21] END_EVENT
 10: 0x0071 [0x00] END_REQSTACK()
```
