# Event 61

## Metadata

| Field           | Value    |
|-----------------|----------|
| Event Index     | 3/5      |
| Offset          | 0x0107   |
| Data Size       | 56 bytes |
| Calculated Size | 56 bytes |
| Instructions    | 13       |

```
      00 01 02 03 04 05 06 07  08 09 0A 0B 0C 0D 0E 0F
      -- -- -- -- -- -- -- --  -- -- -- -- -- -- -- --
0100:                      20  01 42 1E F0 FF FF 7F 6F          .B.....o
0110: 70 5B 01 80 F8 FF FF 7F  F8 FF FF 7F 74 6C 6B 30  p[..........tlk0
0120: 1D 12 80 23 5E 69 64 6C  30 45 13 80 F0 FF FF 7F  ...#^idl0E......
0130: F0 FF FF 7F 71 73 74 63  00 80 1C 05 80 21 00     ....qstc.....!. 
```

## Opcodes

```
  0: 0x0107 [0x20] SET_CLI_EVENT_UC_FLAG: Lock player control
  1: 0x0109 [0x42] SET_CLI_EVENT_CANCEL_DATA()
  2: 0x010A [0x1E] EventEntity looks at LocalPlayer and starts talking
  3: 0x010F [0x6F] WAIT_FRAME_DELAY: Yield until WaitTime reaches zero
  4: 0x0110 [0x70] WAIT_ENTITY_RENDER_FLAG: Wait while EventEntity->Render.Flags3 bit 2 is set (cancel turn if not)
  5: 0x0111 [0x5B] LOAD_EXT_SCHEDULER: Load scheduler "tlk0" with entities [EventEntity, EventEntity], work=30*
  6: 0x0120 [0x1D] PRINT_EVENT_MESSAGE(message_id=10259*)
    → "Good job! I knew you could do it. But be on your guard.\u007F1\u0000\u0007"
  7: 0x0123 [0x23] WAIT_FOR_DIALOG_INTERACTION
  8: 0x0124 [0x5E] EventEntity goes idle (kills current action) (animation: "idl0")
  9: 0x0129 [0x45] LOAD_SCHEDULED_TASK: Load scheduler "qstc" with entities [LocalPlayer, LocalPlayer], work=[201*, 0*]
 10: 0x013A [0x1C] WAIT(60* ticks)
 11: 0x013D [0x21] END_EVENT
 12: 0x013E [0x00] END_REQSTACK()
```
