# Event 65535

## Metadata

| Field           | Value    |
|-----------------|----------|
| Event Index     | 6/6      |
| Offset          | 0x0026   |
| Data Size       | 43 bytes |
| Calculated Size | 43 bytes |
| Instructions    | 11       |

```
      00 01 02 03 04 05 06 07  08 09 0A 0B 0C 0D 0E 0F
      -- -- -- -- -- -- -- --  -- -- -- -- -- -- -- --
0020:                   39 07  80 1C 08 80 32 09 80 1F        9.....2...
0030: 00 0A 80 0B 80 05 80 1F  01 1F 00 0C 80 0D 80 05  ................
0040: 80 1F 01 1F 00 0E 80 0F  80 05 80 1F 01 39 10 80  .............9..
0050: 00                                                .               
```

## Opcodes

```
  0: 0x0026 [0x39] SET_ENTITY_DIRECTION(direction=23592957.2°*)
  1: 0x0029 [0x1C] WAIT(45* ticks)
  2: 0x002C [0x32] ExtData[1]->MainSpeed = 30* * 0.1
  3: 0x002F [0x1F] MOVE_ENTITY: EventEntity moves to X=24.200*, Z=-27.000*, Y=1.000*
  4: 0x0037 [0x1F] MOVE_ENTITY: Update entity position (mode=1)
  5: 0x0039 [0x1F] MOVE_ENTITY: EventEntity moves to X=26.920*, Z=-25.500*, Y=1.000*
  6: 0x0041 [0x1F] MOVE_ENTITY: Update entity position (mode=1)
  7: 0x0043 [0x1F] MOVE_ENTITY: EventEntity moves to X=29.700*, Z=-21.500*, Y=1.000*
  8: 0x004B [0x1F] MOVE_ENTITY: Update entity position (mode=1)
  9: 0x004D [0x39] SET_ENTITY_DIRECTION(direction=23592948.4°*)
 10: 0x0050 [0x00] END_REQSTACK()
```
