# Event 45

## Metadata

| Field           | Value    |
|-----------------|----------|
| Event Index     | 3/8      |
| Offset          | 0x0006   |
| Data Size       | 40 bytes |
| Calculated Size | 40 bytes |
| Instructions    | 11       |

```
      00 01 02 03 04 05 06 07  08 09 0A 0B 0C 0D 0E 0F
      -- -- -- -- -- -- -- --  -- -- -- -- -- -- -- --
0000:                   42 1E  F0 FF FF 7F 6F 70 29 0B        B.....op).
0010: F6 71 09 01 03 29 0B F6  71 09 01 04 29 0B F6 71  .q...)..q...)..q
0020: 09 01 05 29 0B F6 71 09  01 06 20 00 21 00        ...)..q... .!.  
```

## Opcodes

```
  0: 0x0006 [0x42] SET_CLI_EVENT_CANCEL_DATA()
  1: 0x0007 [0x1E] EventEntity looks at LocalPlayer and starts talking
  2: 0x000C [0x6F] WAIT_FRAME_DELAY: Yield until WaitTime reaches zero
  3: 0x000D [0x70] WAIT_ENTITY_RENDER_FLAG: Wait while EventEntity->Render.Flags3 bit 2 is set (cancel turn if not)
  4: 0x000E [0x29] REQ_SET_WAIT(priority=0x0B, entity_id=Kaa Toru the Just (ID: 17396214/0x010971F6), tag_num=0x03)
  5: 0x0015 [0x29] REQ_SET_WAIT(priority=0x0B, entity_id=Kaa Toru the Just (ID: 17396214/0x010971F6), tag_num=0x04)
  6: 0x001C [0x29] REQ_SET_WAIT(priority=0x0B, entity_id=Kaa Toru the Just (ID: 17396214/0x010971F6), tag_num=0x05)
  7: 0x0023 [0x29] REQ_SET_WAIT(priority=0x0B, entity_id=Kaa Toru the Just (ID: 17396214/0x010971F6), tag_num=0x06)
  8: 0x002A [0x20] SET_CLI_EVENT_UC_FLAG: Unlock player control
  9: 0x002C [0x21] END_EVENT
 10: 0x002D [0x00] END_REQSTACK()
```
