# Event 65535

## Metadata

| Field           | Value    |
|-----------------|----------|
| Event Index     | 9/14     |
| Offset          | 0x00C1   |
| Data Size       | 55 bytes |
| Calculated Size | 55 bytes |
| Instructions    | 7        |

```
      00 01 02 03 04 05 06 07  08 09 0A 0B 0C 0D 0E 0F
      -- -- -- -- -- -- -- --  -- -- -- -- -- -- -- --
00C0:    1C 06 80 5B 09 80 AB  23 05 01 AB 23 05 01 74   ...[...#...#..t
00D0: 6C 34 30 1C 0A 80 5B 0B  80 AD 23 05 01 AD 23 05  l40...[...#...#.
00E0: 01 74 6C 30 30 1C 0C 80  5B 0B 80 AD 23 05 01 AD  .tl00...[...#...
00F0: 23 05 01 74 6C 30 31 00                           #..tl01.        
```

## Opcodes

```
  0: 0x00C1 [0x1C] WAIT(30* ticks)
  1: 0x00C4 [0x5B] LOAD_EXT_SCHEDULER: Load scheduler "tl40" with entities [Cait Sith Seachd (ID: 17114027/0x010523AB), Cait Sith Seachd (ID: 17114027/0x010523AB)], work=1413*
  2: 0x00D3 [0x1C] WAIT(90* ticks)
  3: 0x00D6 [0x5B] LOAD_EXT_SCHEDULER: Load scheduler "tl00" with entities [Cait Sith Naoi (ID: 17114029/0x010523AD), Cait Sith Naoi (ID: 17114029/0x010523AD)], work=2473*
  4: 0x00E5 [0x1C] WAIT(45* ticks)
  5: 0x00E8 [0x5B] LOAD_EXT_SCHEDULER: Load scheduler "tl01" with entities [Cait Sith Naoi (ID: 17114029/0x010523AD), Cait Sith Naoi (ID: 17114029/0x010523AD)], work=2473*
  6: 0x00F7 [0x00] END_REQSTACK()
```
