# Event 65535

## Metadata

| Field           | Value    |
|-----------------|----------|
| Event Index     | 12/14    |
| Offset          | 0x01A2   |
| Data Size       | 65 bytes |
| Calculated Size | 65 bytes |
| Instructions    | 9        |

```
      00 01 02 03 04 05 06 07  08 09 0A 0B 0C 0D 0E 0F
      -- -- -- -- -- -- -- --  -- -- -- -- -- -- -- --
01A0:       81 00 A8 23 05 01  81 00 A7 23 05 01 81 00    ...#.....#....
01B0: AB 23 05 01 81 00 A6 23  05 01 1C 21 80 BB 22 80  .#.....#...!..".
01C0: A9 23 05 01 A9 23 05 01  73 74 30 32 03 80 1C 23  .#...#..st02...#
01D0: 80 BB 22 80 AA 23 05 01  AA 23 05 01 73 74 30 32  .."..#...#..st02
01E0: 03 80 00                                          ...             
```

## Opcodes

```
  0: 0x01A2 [0x81] SET_ENTITY_BLINKING(blink_flag=0x00, entity=Cait Sith Ceithir (ID: 17114024/0x010523A8))
  1: 0x01A8 [0x81] SET_ENTITY_BLINKING(blink_flag=0x00, entity=Cait Sith Tri (ID: 17114023/0x010523A7))
  2: 0x01AE [0x81] SET_ENTITY_BLINKING(blink_flag=0x00, entity=Cait Sith Seachd (ID: 17114027/0x010523AB))
  3: 0x01B4 [0x81] SET_ENTITY_BLINKING(blink_flag=0x00, entity=Cait Sith Dha (ID: 17114022/0x010523A6))
  4: 0x01BA [0x1C] WAIT(270* ticks)
  5: 0x01BD [0xBB] LOAD_EVENT_SCHEDULER_ALT: Load scheduler "st02" with entities [Cait Sith Coig (ID: 17114025/0x010523A9), Cait Sith Coig (ID: 17114025/0x010523A9)], work=[195*, 0*]
  6: 0x01CE [0x1C] WAIT(50* ticks)
  7: 0x01D1 [0xBB] LOAD_EVENT_SCHEDULER_ALT: Load scheduler "st02" with entities [Cait Sith Sia (ID: 17114026/0x010523AA), Cait Sith Sia (ID: 17114026/0x010523AA)], work=[195*, 0*]
  8: 0x01E2 [0x00] END_REQSTACK()
```
