# Event 65535

## Metadata

| Field           | Value    |
|-----------------|----------|
| Event Index     | 44/54    |
| Offset          | 0x027C   |
| Data Size       | 33 bytes |
| Calculated Size | 33 bytes |
| Instructions    | 7        |

```
      00 01 02 03 04 05 06 07  08 09 0A 0B 0C 0D 0E 0F
      -- -- -- -- -- -- -- --  -- -- -- -- -- -- -- --
0270:                                      37 13 80 14              7...
0280: 80 15 80 16 80 32 0E 80  1F 00 17 80 18 80 19 80  .....2..........
0290: 1F 01 1F 00 1A 80 1B 80  1C 80 1F 01 00           .............   
```

## Opcodes

```
  0: 0x027C [0x37] UPDATE_EVENT_POSITION_AND_DIR: x=-15.672*, z=-22.182*, y=-2.750*, direction=171.6°*
  1: 0x0285 [0x32] ExtData[1]->MainSpeed = 40* * 0.1
  2: 0x0288 [0x1F] MOVE_ENTITY: EventEntity moves to X=-23.507*, Z=-23.093*, Y=-2.749*
  3: 0x0290 [0x1F] MOVE_ENTITY: Update entity position (mode=1)
  4: 0x0292 [0x1F] MOVE_ENTITY: EventEntity moves to X=-30.383*, Z=-11.366*, Y=-2.500*
  5: 0x029A [0x1F] MOVE_ENTITY: Update entity position (mode=1)
  6: 0x029C [0x00] END_REQSTACK()
```
