# Event 65535

## Metadata

| Field           | Value    |
|-----------------|----------|
| Event Index     | 23/36    |
| Offset          | 0x01F2   |
| Data Size       | 54 bytes |
| Calculated Size | 54 bytes |
| Instructions    | 12       |

```
      00 01 02 03 04 05 06 07  08 09 0A 0B 0C 0D 0E 0F
      -- -- -- -- -- -- -- --  -- -- -- -- -- -- -- --
01F0:       32 2D 80 1F 00 3D  80 3E 80 3F 80 1F 01 1F    2-...=.>.?....
0200: 00 40 80 41 80 42 80 1F  01 1F 00 43 80 44 80 45  .@.A.B.....C.D.E
0210: 80 1F 01 1F 00 46 80 47  80 48 80 1F 01 1F 00 39  .....F.G.H.....9
0220: 80 3A 80 3B 80 1F 01 00                           .:.;....        
```

## Opcodes

```
  0: 0x01F2 [0x32] ExtData[1]->MainSpeed = 10* * 0.1
  1: 0x01F5 [0x1F] MOVE_ENTITY: EventEntity moves to X=-601.910*, Z=587.743*, Y=0.274*
  2: 0x01FD [0x1F] MOVE_ENTITY: Update entity position (mode=1)
  3: 0x01FF [0x1F] MOVE_ENTITY: EventEntity moves to X=-600.199*, Z=588.994*, Y=0.347*
  4: 0x0207 [0x1F] MOVE_ENTITY: Update entity position (mode=1)
  5: 0x0209 [0x1F] MOVE_ENTITY: EventEntity moves to X=-599.211*, Z=586.089*, Y=0.586*
  6: 0x0211 [0x1F] MOVE_ENTITY: Update entity position (mode=1)
  7: 0x0213 [0x1F] MOVE_ENTITY: EventEntity moves to X=-599.391*, Z=583.375*, Y=0.830*
  8: 0x021B [0x1F] MOVE_ENTITY: Update entity position (mode=1)
  9: 0x021D [0x1F] MOVE_ENTITY: EventEntity moves to X=-600.128*, Z=585.578*, Y=0.628*
 10: 0x0225 [0x1F] MOVE_ENTITY: Update entity position (mode=1)
 11: 0x0227 [0x00] END_REQSTACK()
```
