# Event 65535

## Metadata

| Field           | Value    |
|-----------------|----------|
| Event Index     | 28/36    |
| Offset          | 0x02F4   |
| Data Size       | 50 bytes |
| Calculated Size | 50 bytes |
| Instructions    | 12       |

```
      00 01 02 03 04 05 06 07  08 09 0A 0B 0C 0D 0E 0F
      -- -- -- -- -- -- -- --  -- -- -- -- -- -- -- --
02F0:             32 38 80 1F  00 5A 80 5B 80 5C 80 1F      28...Z.[.\..
0300: 01 1C 55 80 1F 00 56 80  57 80 58 80 1F 01 1C 55  ..U...V.W.X....U
0310: 80 1F 00 39 80 3A 80 3B  80 1F 01 4B 16 61 0E 01  ...9.:.;...K.a..
0320: 59 80 1C 55 80 00                                 Y..U..          
```

## Opcodes

```
  0: 0x02F4 [0x32] ExtData[1]->MainSpeed = 19* * 0.1
  1: 0x02F7 [0x1F] MOVE_ENTITY: EventEntity moves to X=-599.892*, Z=588.477*, Y=0.373*
  2: 0x02FF [0x1F] MOVE_ENTITY: Update entity position (mode=1)
  3: 0x0301 [0x1C] WAIT(60* ticks)
  4: 0x0304 [0x1F] MOVE_ENTITY: EventEntity moves to X=-602.144*, Z=586.825*, Y=0.376*
  5: 0x030C [0x1F] MOVE_ENTITY: Update entity position (mode=1)
  6: 0x030E [0x1C] WAIT(60* ticks)
  7: 0x0311 [0x1F] MOVE_ENTITY: EventEntity moves to X=-600.128*, Z=585.578*, Y=0.628*
  8: 0x0319 [0x1F] MOVE_ENTITY: Update entity position (mode=1)
  9: 0x031B [0x4B] UPDATE_ENTITY_YAW(entity=Unnamed NPC (ID: 17719574/0x010E6116), yaw=11.8°*)
 10: 0x0322 [0x1C] WAIT(60* ticks)
 11: 0x0325 [0x00] END_REQSTACK()
```
