# Event 65535

## Metadata

| Field           | Value    |
|-----------------|----------|
| Event Index     | 24/36    |
| Offset          | 0x0228   |
| Data Size       | 66 bytes |
| Calculated Size | 66 bytes |
| Instructions    | 16       |

```
      00 01 02 03 04 05 06 07  08 09 0A 0B 0C 0D 0E 0F
      -- -- -- -- -- -- -- --  -- -- -- -- -- -- -- --
0220:                          32 38 80 1F 00 3D 80 3E          28...=.>
0230: 80 3F 80 1F 01 1C 49 80  1F 00 40 80 41 80 42 80  .?....I...@.A.B.
0240: 1F 01 1C 49 80 1F 00 43  80 44 80 45 80 1F 01 1C  ...I...C.D.E....
0250: 49 80 1F 00 46 80 47 80  48 80 1F 01 1C 49 80 1F  I...F.G.H....I..
0260: 00 39 80 3A 80 3B 80 1F  01 00                    .9.:.;....      
```

## Opcodes

```
  0: 0x0228 [0x32] ExtData[1]->MainSpeed = 19* * 0.1
  1: 0x022B [0x1F] MOVE_ENTITY: EventEntity moves to X=-601.910*, Z=587.743*, Y=0.274*
  2: 0x0233 [0x1F] MOVE_ENTITY: Update entity position (mode=1)
  3: 0x0235 [0x1C] WAIT(30* ticks)
  4: 0x0238 [0x1F] MOVE_ENTITY: EventEntity moves to X=-600.199*, Z=588.994*, Y=0.347*
  5: 0x0240 [0x1F] MOVE_ENTITY: Update entity position (mode=1)
  6: 0x0242 [0x1C] WAIT(30* ticks)
  7: 0x0245 [0x1F] MOVE_ENTITY: EventEntity moves to X=-599.211*, Z=586.089*, Y=0.586*
  8: 0x024D [0x1F] MOVE_ENTITY: Update entity position (mode=1)
  9: 0x024F [0x1C] WAIT(30* ticks)
 10: 0x0252 [0x1F] MOVE_ENTITY: EventEntity moves to X=-599.391*, Z=583.375*, Y=0.830*
 11: 0x025A [0x1F] MOVE_ENTITY: Update entity position (mode=1)
 12: 0x025C [0x1C] WAIT(30* ticks)
 13: 0x025F [0x1F] MOVE_ENTITY: EventEntity moves to X=-600.128*, Z=585.578*, Y=0.628*
 14: 0x0267 [0x1F] MOVE_ENTITY: Update entity position (mode=1)
 15: 0x0269 [0x00] END_REQSTACK()
```
