# Event 65535

## Metadata

| Field           | Value    |
|-----------------|----------|
| Event Index     | 31/36    |
| Offset          | 0x0377   |
| Data Size       | 51 bytes |
| Calculated Size | 51 bytes |
| Instructions    | 11       |

```
      00 01 02 03 04 05 06 07  08 09 0A 0B 0C 0D 0E 0F
      -- -- -- -- -- -- -- --  -- -- -- -- -- -- -- --
0370:                      32  2D 80 1F 00 6D 80 6E 80         2-...m.n.
0380: 05 80 1F 01 1F 00 6F 80  70 80 71 80 1F 01 1F 00  ......o.p.q.....
0390: 72 80 73 80 74 80 1F 01  1E 13 61 0E 01 1C 49 80  r.s.t.....a...I.
03A0: 4A 13 61 0E 01 14 61 0E  01 00                    J.a...a...      
```

## Opcodes

```
  0: 0x0377 [0x32] ExtData[1]->MainSpeed = 10* * 0.1
  1: 0x037A [0x1F] MOVE_ENTITY: EventEntity moves to X=-604.257*, Z=586.573*, Y=0.057*
  2: 0x0382 [0x1F] MOVE_ENTITY: Update entity position (mode=1)
  3: 0x0384 [0x1F] MOVE_ENTITY: EventEntity moves to X=-603.318*, Z=588.527*, Y=0.196*
  4: 0x038C [0x1F] MOVE_ENTITY: Update entity position (mode=1)
  5: 0x038E [0x1F] MOVE_ENTITY: EventEntity moves to X=-601.495*, Z=586.040*, Y=0.496*
  6: 0x0396 [0x1F] MOVE_ENTITY: Update entity position (mode=1)
  7: 0x0398 [0x1E] EventEntity looks at Unnamed NPC (ID: 17719571/0x010E6113) and starts talking
  8: 0x039D [0x1C] WAIT(30* ticks)
  9: 0x03A0 [0x4A] Unnamed NPC (ID: 17719571/0x010E6113) looks at Unnamed NPC (ID: 17719572/0x010E6114)
 10: 0x03A9 [0x00] END_REQSTACK()
```
