# Event 65535

## Metadata

| Field           | Value    |
|-----------------|----------|
| Event Index     | 29/36    |
| Offset          | 0x0326   |
| Data Size       | 67 bytes |
| Calculated Size | 67 bytes |
| Instructions    | 15       |

```
      00 01 02 03 04 05 06 07  08 09 0A 0B 0C 0D 0E 0F
      -- -- -- -- -- -- -- --  -- -- -- -- -- -- -- --
0320:                   32 05  80 1F 00 5D 80 5E 80 5F        2....].^._
0330: 80 1F 01 4B 16 61 0E 01  60 80 1C 55 80 1F 00 61  ...K.a..`..U...a
0340: 80 62 80 63 80 1F 01 4B  16 61 0E 01 64 80 1C 65  .b.c...K.a..d..e
0350: 80 1F 00 66 80 67 80 68  80 1F 01 1C 49 80 4B 16  ...f.g.h....I.K.
0360: 61 0E 01 69 80 1C 55 80  00                       a..i..U..       
```

## Opcodes

```
  0: 0x0326 [0x32] ExtData[1]->MainSpeed = 57* * 0.1
  1: 0x0329 [0x1F] MOVE_ENTITY: EventEntity moves to X=-599.295*, Z=590.678*, Y=0.264*
  2: 0x0331 [0x1F] MOVE_ENTITY: Update entity position (mode=1)
  3: 0x0333 [0x4B] UPDATE_ENTITY_YAW(entity=Unnamed NPC (ID: 17719574/0x010E6116), yaw=5.27°*)
  4: 0x033A [0x1C] WAIT(60* ticks)
  5: 0x033D [0x1F] MOVE_ENTITY: EventEntity moves to X=-604.353*, Z=586.292*, Y=0.138*
  6: 0x0345 [0x1F] MOVE_ENTITY: Update entity position (mode=1)
  7: 0x0347 [0x4B] UPDATE_ENTITY_YAW(entity=Unnamed NPC (ID: 17719574/0x010E6116), yaw=0.20°*)
  8: 0x034E [0x1C] WAIT(240* ticks)
  9: 0x0351 [0x1F] MOVE_ENTITY: EventEntity moves to X=-600.328*, Z=582.410*, Y=0.802*
 10: 0x0359 [0x1F] MOVE_ENTITY: Update entity position (mode=1)
 11: 0x035B [0x1C] WAIT(30* ticks)
 12: 0x035E [0x4B] UPDATE_ENTITY_YAW(entity=Unnamed NPC (ID: 17719574/0x010E6116), yaw=16.63°*)
 13: 0x0365 [0x1C] WAIT(60* ticks)
 14: 0x0368 [0x00] END_REQSTACK()
```
