# Event 65535

## Metadata

| Field           | Value    |
|-----------------|----------|
| Event Index     | 34/36    |
| Offset          | 0x03EB   |
| Data Size       | 59 bytes |
| Calculated Size | 59 bytes |
| Instructions    | 13       |

```
      00 01 02 03 04 05 06 07  08 09 0A 0B 0C 0D 0E 0F
      -- -- -- -- -- -- -- --  -- -- -- -- -- -- -- --
03E0:                                   32 2D 80 1F 00             2-...
03F0: 75 80 76 80 77 80 1F 01  1F 00 78 80 79 80 7A 80  u.v.w.....x.y.z.
0400: 1F 01 1F 00 7B 80 7C 80  7D 80 1F 01 1F 00 7E 80  ....{.|.}.....~.
0410: 7F 80 80 80 1F 01 1F 00  81 80 82 80 83 80 1F 01  ................
0420: 1E 13 61 0E 01 00                                 ..a...          
```

## Opcodes

```
  0: 0x03EB [0x32] ExtData[1]->MainSpeed = 10* * 0.1
  1: 0x03EE [0x1F] MOVE_ENTITY: EventEntity moves to X=-601.361*, Z=584.507*, Y=0.542*
  2: 0x03F6 [0x1F] MOVE_ENTITY: Update entity position (mode=1)
  3: 0x03F8 [0x1F] MOVE_ENTITY: EventEntity moves to X=-600.414*, Z=583.859*, Y=0.704*
  4: 0x0400 [0x1F] MOVE_ENTITY: Update entity position (mode=1)
  5: 0x0402 [0x1F] MOVE_ENTITY: EventEntity moves to X=-599.376*, Z=585.276*, Y=0.668*
  6: 0x040A [0x1F] MOVE_ENTITY: Update entity position (mode=1)
  7: 0x040C [0x1F] MOVE_ENTITY: EventEntity moves to X=-598.992*, Z=587.260*, Y=0.468*
  8: 0x0414 [0x1F] MOVE_ENTITY: Update entity position (mode=1)
  9: 0x0416 [0x1F] MOVE_ENTITY: EventEntity moves to X=-599.942*, Z=587.474*, Y=0.447*
 10: 0x041E [0x1F] MOVE_ENTITY: Update entity position (mode=1)
 11: 0x0420 [0x1E] EventEntity looks at Unnamed NPC (ID: 17719571/0x010E6113) and starts talking
 12: 0x0425 [0x00] END_REQSTACK()
```
