# Event 65535

## Metadata

| Field           | Value    |
|-----------------|----------|
| Event Index     | 27/36    |
| Offset          | 0x02C2   |
| Data Size       | 50 bytes |
| Calculated Size | 50 bytes |
| Instructions    | 12       |

```
      00 01 02 03 04 05 06 07  08 09 0A 0B 0C 0D 0E 0F
      -- -- -- -- -- -- -- --  -- -- -- -- -- -- -- --
02C0:       32 2D 80 1F 00 52  80 53 80 54 80 1F 01 1C    2-...R.S.T....
02D0: 55 80 1F 00 56 80 57 80  58 80 1F 01 1C 55 80 1F  U...V.W.X....U..
02E0: 00 39 80 3A 80 3B 80 1F  01 4B 16 61 0E 01 59 80  .9.:.;...K.a..Y.
02F0: 1C 55 80 00                                       .U..            
```

## Opcodes

```
  0: 0x02C2 [0x32] ExtData[1]->MainSpeed = 10* * 0.1
  1: 0x02C5 [0x1F] MOVE_ENTITY: EventEntity moves to X=-600.221*, Z=588.558*, Y=0.369*
  2: 0x02CD [0x1F] MOVE_ENTITY: Update entity position (mode=1)
  3: 0x02CF [0x1C] WAIT(60* ticks)
  4: 0x02D2 [0x1F] MOVE_ENTITY: EventEntity moves to X=-602.144*, Z=586.825*, Y=0.376*
  5: 0x02DA [0x1F] MOVE_ENTITY: Update entity position (mode=1)
  6: 0x02DC [0x1C] WAIT(60* ticks)
  7: 0x02DF [0x1F] MOVE_ENTITY: EventEntity moves to X=-600.128*, Z=585.578*, Y=0.628*
  8: 0x02E7 [0x1F] MOVE_ENTITY: Update entity position (mode=1)
  9: 0x02E9 [0x4B] UPDATE_ENTITY_YAW(entity=Unnamed NPC (ID: 17719574/0x010E6116), yaw=11.8°*)
 10: 0x02F0 [0x1C] WAIT(60* ticks)
 11: 0x02F3 [0x00] END_REQSTACK()
```
