# 16999088 - Qutrub

## Common Data

| Field            | Value                  |
|------------------|------------------------|
| Zone             | Arrapago Reef (ID: 54) |
| Block Size       | 592 bytes              |
| Total Events     | 26                     |
| References Count | 11                     |

## List of Events

| Event ID                   | Entrypoint   |   Size |   Instructions |
|----------------------------|--------------|--------|----------------|
| [65535](#event-65535)      | 0x0000       |      1 |              1 |
| [65535.1](#event-655351)   | 0x0001       |     28 |              4 |
| [65535.2](#event-655352)   | 0x001D       |     14 |              2 |
| [65535.3](#event-655353)   | 0x002B       |     16 |              2 |
| [65535.4](#event-655354)   | 0x003B       |     26 |              4 |
| [65535.5](#event-655355)   | 0x0055       |     28 |              4 |
| [65535.6](#event-655356)   | 0x0071       |     14 |              2 |
| [65535.7](#event-655357)   | 0x007F       |     16 |              2 |
| [65535.8](#event-655358)   | 0x008F       |     26 |              4 |
| [65535.9](#event-655359)   | 0x00A9       |     28 |              4 |
| [65535.10](#event-6553510) | 0x00C5       |     26 |              4 |
| [65535.11](#event-6553511) | 0x00DF       |     16 |              2 |
| [65535.12](#event-6553512) | 0x00EF       |     14 |              2 |
| [65535.13](#event-6553513) | 0x00FD       |     16 |              2 |
| [65535.14](#event-6553514) | 0x010D       |     14 |              2 |
| [65535.15](#event-6553515) | 0x011B       |     16 |              2 |
| [65535.16](#event-6553516) | 0x012B       |     14 |              2 |
| [65535.17](#event-6553517) | 0x0139       |     16 |              2 |
| [65535.18](#event-6553518) | 0x0149       |     14 |              2 |
| [65535.19](#event-6553519) | 0x0157       |     16 |              2 |
| [65535.20](#event-6553520) | 0x0167       |     14 |              2 |
| [243](#event-243)          | 0x0175       |      7 |              2 |
| [244](#event-244)          | 0x017C       |      7 |              2 |
| [65535.21](#event-6553521) | 0x0183       |      7 |              3 |
| [65535.22](#event-6553522) | 0x018A       |      7 |              3 |
| [65535.23](#event-6553523) | 0x0191       |     24 |              6 |

## DAT References (imed_data)

|   Index | Hex Value   |   Dec Value |
|---------|-------------|-------------|
|       0 | 0x0331      |         817 |
|       1 | 0x033D      |         829 |
|       2 | 0x0001      |           1 |
|       3 | 0x0000      |           0 |
|       4 | 0x0028      |          40 |
|       5 | 0xFFF7376F  |  4294391663 |
|       6 | 0x4710E     |      291086 |
|       7 | 0xFFFFF182  |  4294963586 |
|       8 | 0xFFF74664  |  4294395492 |
|       9 | 0x479BD     |      293309 |
|      10 | 0xFFFFF169  |  4294963561 |

## Events

### Event 65535

#### Metadata

| Field        | Value   |
|--------------|---------|
| Entrypoint   | 0x0000  |
| Data Size    | 1 bytes |
| Instructions | 1       |

```
      00 01 02 03 04 05 06 07  08 09 0A 0B 0C 0D 0E 0F
      -- -- -- -- -- -- -- --  -- -- -- -- -- -- -- --
0000: 00                                                .               
```

#### Opcodes

```
  0: 0x0000 [0x00] END_REQSTACK()
```

### Event 65535.1

#### Metadata

| Field        | Value    |
|--------------|----------|
| Entrypoint   | 0x0001   |
| Data Size    | 28 bytes |
| Instructions | 4        |

```
      00 01 02 03 04 05 06 07  08 09 0A 0B 0C 0D 0E 0F
      -- -- -- -- -- -- -- --  -- -- -- -- -- -- -- --
0000:    81 00 F8 FF FF 7F 7C  00 F8 FF FF 7F 5B 00 80   ......|.....[..
0010: F8 FF FF 7F F8 FF FF 7F  74 6C 6B 30 00           ........tlk0.   
```

#### Opcodes

```
  0: 0x0001 [0x81] SET_ENTITY_BLINKING(blink_flag=0x00, entity=EventEntity)
  1: 0x0007 [0x7C] EventEntity->Render.Flags2 |= 0x00
  2: 0x000D [0x5B] LOAD_EXT_SCHEDULER: Load scheduler "tlk0" with entities [EventEntity, EventEntity], work=817*
  3: 0x001C [0x00] END_REQSTACK()
```

### Event 65535.2

#### Metadata

| Field        | Value    |
|--------------|----------|
| Entrypoint   | 0x001D   |
| Data Size    | 14 bytes |
| Instructions | 2        |

```
      00 01 02 03 04 05 06 07  08 09 0A 0B 0C 0D 0E 0F
      -- -- -- -- -- -- -- --  -- -- -- -- -- -- -- --
0010:                                         53 F8 FF               S..
0020: FF 7F F8 FF FF 7F 74 6C  6B 30 00                 ......tlk0.     
```

#### Opcodes

```
  0: 0x001D [0x53] WAIT_SCHEDULER_TASK: Wait for scheduler "tlk0" with entities [EventEntity, EventEntity]
  1: 0x002A [0x00] END_REQSTACK()
```

### Event 65535.3

#### Metadata

| Field        | Value    |
|--------------|----------|
| Entrypoint   | 0x002B   |
| Data Size    | 16 bytes |
| Instructions | 2        |

```
      00 01 02 03 04 05 06 07  08 09 0A 0B 0C 0D 0E 0F
      -- -- -- -- -- -- -- --  -- -- -- -- -- -- -- --
0020:                                   5B 00 80 F8 FF             [....
0030: FF 7F F8 FF FF 7F 74 6C  6B 31 00                 ......tlk1.     
```

#### Opcodes

```
  0: 0x002B [0x5B] LOAD_EXT_SCHEDULER: Load scheduler "tlk1" with entities [EventEntity, EventEntity], work=817*
  1: 0x003A [0x00] END_REQSTACK()
```

### Event 65535.4

#### Metadata

| Field        | Value    |
|--------------|----------|
| Entrypoint   | 0x003B   |
| Data Size    | 26 bytes |
| Instructions | 4        |

```
      00 01 02 03 04 05 06 07  08 09 0A 0B 0C 0D 0E 0F
      -- -- -- -- -- -- -- --  -- -- -- -- -- -- -- --
0030:                                   53 F8 FF FF 7F             S....
0040: F8 FF FF 7F 74 6C 6B 31  81 01 F8 FF FF 7F 7C 01  ....tlk1......|.
0050: F8 FF FF 7F 00                                    .....           
```

#### Opcodes

```
  0: 0x003B [0x53] WAIT_SCHEDULER_TASK: Wait for scheduler "tlk1" with entities [EventEntity, EventEntity]
  1: 0x0048 [0x81] SET_ENTITY_BLINKING(blink_flag=0x01, entity=EventEntity)
  2: 0x004E [0x7C] EventEntity->Render.Flags2 |= 0x01
  3: 0x0054 [0x00] END_REQSTACK()
```

### Event 65535.5

#### Metadata

| Field        | Value    |
|--------------|----------|
| Entrypoint   | 0x0055   |
| Data Size    | 28 bytes |
| Instructions | 4        |

```
      00 01 02 03 04 05 06 07  08 09 0A 0B 0C 0D 0E 0F
      -- -- -- -- -- -- -- --  -- -- -- -- -- -- -- --
0050:                81 00 F8  FF FF 7F 7C 00 F8 FF FF       ......|....
0060: 7F 5B 00 80 F8 FF FF 7F  F8 FF FF 7F 70 6E 74 30  .[..........pnt0
0070: 00                                                .               
```

#### Opcodes

```
  0: 0x0055 [0x81] SET_ENTITY_BLINKING(blink_flag=0x00, entity=EventEntity)
  1: 0x005B [0x7C] EventEntity->Render.Flags2 |= 0x00
  2: 0x0061 [0x5B] LOAD_EXT_SCHEDULER: Load scheduler "pnt0" with entities [EventEntity, EventEntity], work=817*
  3: 0x0070 [0x00] END_REQSTACK()
```

### Event 65535.6

#### Metadata

| Field        | Value    |
|--------------|----------|
| Entrypoint   | 0x0071   |
| Data Size    | 14 bytes |
| Instructions | 2        |

```
      00 01 02 03 04 05 06 07  08 09 0A 0B 0C 0D 0E 0F
      -- -- -- -- -- -- -- --  -- -- -- -- -- -- -- --
0070:    53 F8 FF FF 7F F8 FF  FF 7F 70 6E 74 30 00      S........pnt0. 
```

#### Opcodes

```
  0: 0x0071 [0x53] WAIT_SCHEDULER_TASK: Wait for scheduler "pnt0" with entities [EventEntity, EventEntity]
  1: 0x007E [0x00] END_REQSTACK()
```

### Event 65535.7

#### Metadata

| Field        | Value    |
|--------------|----------|
| Entrypoint   | 0x007F   |
| Data Size    | 16 bytes |
| Instructions | 2        |

```
      00 01 02 03 04 05 06 07  08 09 0A 0B 0C 0D 0E 0F
      -- -- -- -- -- -- -- --  -- -- -- -- -- -- -- --
0070:                                               5B                 [
0080: 00 80 F8 FF FF 7F F8 FF  FF 7F 70 6E 74 31 00     ..........pnt1. 
```

#### Opcodes

```
  0: 0x007F [0x5B] LOAD_EXT_SCHEDULER: Load scheduler "pnt1" with entities [EventEntity, EventEntity], work=817*
  1: 0x008E [0x00] END_REQSTACK()
```

### Event 65535.8

#### Metadata

| Field        | Value    |
|--------------|----------|
| Entrypoint   | 0x008F   |
| Data Size    | 26 bytes |
| Instructions | 4        |

```
      00 01 02 03 04 05 06 07  08 09 0A 0B 0C 0D 0E 0F
      -- -- -- -- -- -- -- --  -- -- -- -- -- -- -- --
0080:                                               53                 S
0090: F8 FF FF 7F F8 FF FF 7F  70 6E 74 31 81 01 F8 FF  ........pnt1....
00A0: FF 7F 7C 01 F8 FF FF 7F  00                       ..|......       
```

#### Opcodes

```
  0: 0x008F [0x53] WAIT_SCHEDULER_TASK: Wait for scheduler "pnt1" with entities [EventEntity, EventEntity]
  1: 0x009C [0x81] SET_ENTITY_BLINKING(blink_flag=0x01, entity=EventEntity)
  2: 0x00A2 [0x7C] EventEntity->Render.Flags2 |= 0x01
  3: 0x00A8 [0x00] END_REQSTACK()
```

### Event 65535.9

#### Metadata

| Field        | Value    |
|--------------|----------|
| Entrypoint   | 0x00A9   |
| Data Size    | 28 bytes |
| Instructions | 4        |

```
      00 01 02 03 04 05 06 07  08 09 0A 0B 0C 0D 0E 0F
      -- -- -- -- -- -- -- --  -- -- -- -- -- -- -- --
00A0:                             81 00 F8 FF FF 7F 7C           ......|
00B0: 00 F8 FF FF 7F 5B 00 80  F8 FF FF 7F F8 FF FF 7F  .....[..........
00C0: 68 70 79 30 00                                    hpy0.           
```

#### Opcodes

```
  0: 0x00A9 [0x81] SET_ENTITY_BLINKING(blink_flag=0x00, entity=EventEntity)
  1: 0x00AF [0x7C] EventEntity->Render.Flags2 |= 0x00
  2: 0x00B5 [0x5B] LOAD_EXT_SCHEDULER: Load scheduler "hpy0" with entities [EventEntity, EventEntity], work=817*
  3: 0x00C4 [0x00] END_REQSTACK()
```

### Event 65535.10

#### Metadata

| Field        | Value    |
|--------------|----------|
| Entrypoint   | 0x00C5   |
| Data Size    | 26 bytes |
| Instructions | 4        |

```
      00 01 02 03 04 05 06 07  08 09 0A 0B 0C 0D 0E 0F
      -- -- -- -- -- -- -- --  -- -- -- -- -- -- -- --
00C0:                53 F8 FF  FF 7F F8 FF FF 7F 68 70       S........hp
00D0: 79 30 81 01 F8 FF FF 7F  7C 01 F8 FF FF 7F 00     y0......|...... 
```

#### Opcodes

```
  0: 0x00C5 [0x53] WAIT_SCHEDULER_TASK: Wait for scheduler "hpy0" with entities [EventEntity, EventEntity]
  1: 0x00D2 [0x81] SET_ENTITY_BLINKING(blink_flag=0x01, entity=EventEntity)
  2: 0x00D8 [0x7C] EventEntity->Render.Flags2 |= 0x01
  3: 0x00DE [0x00] END_REQSTACK()
```

### Event 65535.11

#### Metadata

| Field        | Value    |
|--------------|----------|
| Entrypoint   | 0x00DF   |
| Data Size    | 16 bytes |
| Instructions | 2        |

```
      00 01 02 03 04 05 06 07  08 09 0A 0B 0C 0D 0E 0F
      -- -- -- -- -- -- -- --  -- -- -- -- -- -- -- --
00D0:                                               5B                 [
00E0: 01 80 F8 FF FF 7F F8 FF  FF 7F 77 61 72 30 00     ..........war0. 
```

#### Opcodes

```
  0: 0x00DF [0x5B] LOAD_EXT_SCHEDULER: Load scheduler "war0" with entities [EventEntity, EventEntity], work=829*
  1: 0x00EE [0x00] END_REQSTACK()
```

### Event 65535.12

#### Metadata

| Field        | Value    |
|--------------|----------|
| Entrypoint   | 0x00EF   |
| Data Size    | 14 bytes |
| Instructions | 2        |

```
      00 01 02 03 04 05 06 07  08 09 0A 0B 0C 0D 0E 0F
      -- -- -- -- -- -- -- --  -- -- -- -- -- -- -- --
00E0:                                               53                 S
00F0: F8 FF FF 7F F8 FF FF 7F  77 61 72 30 00           ........war0.   
```

#### Opcodes

```
  0: 0x00EF [0x53] WAIT_SCHEDULER_TASK: Wait for scheduler "war0" with entities [EventEntity, EventEntity]
  1: 0x00FC [0x00] END_REQSTACK()
```

### Event 65535.13

#### Metadata

| Field        | Value    |
|--------------|----------|
| Entrypoint   | 0x00FD   |
| Data Size    | 16 bytes |
| Instructions | 2        |

```
      00 01 02 03 04 05 06 07  08 09 0A 0B 0C 0D 0E 0F
      -- -- -- -- -- -- -- --  -- -- -- -- -- -- -- --
00F0:                                         5B 01 80               [..
0100: F8 FF FF 7F F8 FF FF 7F  77 61 72 31 00           ........war1.   
```

#### Opcodes

```
  0: 0x00FD [0x5B] LOAD_EXT_SCHEDULER: Load scheduler "war1" with entities [EventEntity, EventEntity], work=829*
  1: 0x010C [0x00] END_REQSTACK()
```

### Event 65535.14

#### Metadata

| Field        | Value    |
|--------------|----------|
| Entrypoint   | 0x010D   |
| Data Size    | 14 bytes |
| Instructions | 2        |

```
      00 01 02 03 04 05 06 07  08 09 0A 0B 0C 0D 0E 0F
      -- -- -- -- -- -- -- --  -- -- -- -- -- -- -- --
0100:                                         53 F8 FF               S..
0110: FF 7F F8 FF FF 7F 77 61  72 31 00                 ......war1.     
```

#### Opcodes

```
  0: 0x010D [0x53] WAIT_SCHEDULER_TASK: Wait for scheduler "war1" with entities [EventEntity, EventEntity]
  1: 0x011A [0x00] END_REQSTACK()
```

### Event 65535.15

#### Metadata

| Field        | Value    |
|--------------|----------|
| Entrypoint   | 0x011B   |
| Data Size    | 16 bytes |
| Instructions | 2        |

```
      00 01 02 03 04 05 06 07  08 09 0A 0B 0C 0D 0E 0F
      -- -- -- -- -- -- -- --  -- -- -- -- -- -- -- --
0110:                                   5B 01 80 F8 FF             [....
0120: FF 7F F8 FF FF 7F 6E 67  65 30 00                 ......nge0.     
```

#### Opcodes

```
  0: 0x011B [0x5B] LOAD_EXT_SCHEDULER: Load scheduler "nge0" with entities [EventEntity, EventEntity], work=829*
  1: 0x012A [0x00] END_REQSTACK()
```

### Event 65535.16

#### Metadata

| Field        | Value    |
|--------------|----------|
| Entrypoint   | 0x012B   |
| Data Size    | 14 bytes |
| Instructions | 2        |

```
      00 01 02 03 04 05 06 07  08 09 0A 0B 0C 0D 0E 0F
      -- -- -- -- -- -- -- --  -- -- -- -- -- -- -- --
0120:                                   53 F8 FF FF 7F             S....
0130: F8 FF FF 7F 6E 67 65 30  00                       ....nge0.       
```

#### Opcodes

```
  0: 0x012B [0x53] WAIT_SCHEDULER_TASK: Wait for scheduler "nge0" with entities [EventEntity, EventEntity]
  1: 0x0138 [0x00] END_REQSTACK()
```

### Event 65535.17

#### Metadata

| Field        | Value    |
|--------------|----------|
| Entrypoint   | 0x0139   |
| Data Size    | 16 bytes |
| Instructions | 2        |

```
      00 01 02 03 04 05 06 07  08 09 0A 0B 0C 0D 0E 0F
      -- -- -- -- -- -- -- --  -- -- -- -- -- -- -- --
0130:                             5B 01 80 F8 FF FF 7F           [......
0140: F8 FF FF 7F 6E 67 65 31  00                       ....nge1.       
```

#### Opcodes

```
  0: 0x0139 [0x5B] LOAD_EXT_SCHEDULER: Load scheduler "nge1" with entities [EventEntity, EventEntity], work=829*
  1: 0x0148 [0x00] END_REQSTACK()
```

### Event 65535.18

#### Metadata

| Field        | Value    |
|--------------|----------|
| Entrypoint   | 0x0149   |
| Data Size    | 14 bytes |
| Instructions | 2        |

```
      00 01 02 03 04 05 06 07  08 09 0A 0B 0C 0D 0E 0F
      -- -- -- -- -- -- -- --  -- -- -- -- -- -- -- --
0140:                             53 F8 FF FF 7F F8 FF           S......
0150: FF 7F 6E 67 65 31 00                              ..nge1.         
```

#### Opcodes

```
  0: 0x0149 [0x53] WAIT_SCHEDULER_TASK: Wait for scheduler "nge1" with entities [EventEntity, EventEntity]
  1: 0x0156 [0x00] END_REQSTACK()
```

### Event 65535.19

#### Metadata

| Field        | Value    |
|--------------|----------|
| Entrypoint   | 0x0157   |
| Data Size    | 16 bytes |
| Instructions | 2        |

```
      00 01 02 03 04 05 06 07  08 09 0A 0B 0C 0D 0E 0F
      -- -- -- -- -- -- -- --  -- -- -- -- -- -- -- --
0150:                      5B  01 80 F8 FF FF 7F F8 FF         [........
0160: FF 7F 6E 67 65 32 00                              ..nge2.         
```

#### Opcodes

```
  0: 0x0157 [0x5B] LOAD_EXT_SCHEDULER: Load scheduler "nge2" with entities [EventEntity, EventEntity], work=829*
  1: 0x0166 [0x00] END_REQSTACK()
```

### Event 65535.20

#### Metadata

| Field        | Value    |
|--------------|----------|
| Entrypoint   | 0x0167   |
| Data Size    | 14 bytes |
| Instructions | 2        |

```
      00 01 02 03 04 05 06 07  08 09 0A 0B 0C 0D 0E 0F
      -- -- -- -- -- -- -- --  -- -- -- -- -- -- -- --
0160:                      53  F8 FF FF 7F F8 FF FF 7F         S........
0170: 6E 67 65 32 00                                    nge2.           
```

#### Opcodes

```
  0: 0x0167 [0x53] WAIT_SCHEDULER_TASK: Wait for scheduler "nge2" with entities [EventEntity, EventEntity]
  1: 0x0174 [0x00] END_REQSTACK()
```

### Event 243

#### Metadata

| Field        | Value   |
|--------------|---------|
| Entrypoint   | 0x0175  |
| Data Size    | 7 bytes |
| Instructions | 2       |

```
      00 01 02 03 04 05 06 07  08 09 0A 0B 0C 0D 0E 0F
      -- -- -- -- -- -- -- --  -- -- -- -- -- -- -- --
0170:                92 01 F8  FF FF 7F 00                   .......    
```

#### Opcodes

```
  0: 0x0175 [0x92] EventEntity->Render.Flags3 ^= 0x01
  1: 0x017B [0x00] END_REQSTACK()
```

### Event 244

#### Metadata

| Field        | Value   |
|--------------|---------|
| Entrypoint   | 0x017C  |
| Data Size    | 7 bytes |
| Instructions | 2       |

```
      00 01 02 03 04 05 06 07  08 09 0A 0B 0C 0D 0E 0F
      -- -- -- -- -- -- -- --  -- -- -- -- -- -- -- --
0170:                                      92 01 F8 FF              ....
0180: FF 7F 00                                          ...             
```

#### Opcodes

```
  0: 0x017C [0x92] EventEntity->Render.Flags3 ^= 0x01
  1: 0x0182 [0x00] END_REQSTACK()
```

### Event 65535.21

#### Metadata

| Field        | Value   |
|--------------|---------|
| Entrypoint   | 0x0183  |
| Data Size    | 7 bytes |
| Instructions | 3       |

```
      00 01 02 03 04 05 06 07  08 09 0A 0B 0C 0D 0E 0F
      -- -- -- -- -- -- -- --  -- -- -- -- -- -- -- --
0180:          AB 03 AC 01 02  80 00                       .......      
```

#### Opcodes

```
  0: 0x0183 [0xAB] EventEntity->Render.Flags0 ^= 0x20000 // Toggle bit 17
  1: 0x0185 [0xAC] EventEntity->StatusEvent = 1*
  2: 0x0189 [0x00] END_REQSTACK()
```

### Event 65535.22

#### Metadata

| Field        | Value   |
|--------------|---------|
| Entrypoint   | 0x018A  |
| Data Size    | 7 bytes |
| Instructions | 3       |

```
      00 01 02 03 04 05 06 07  08 09 0A 0B 0C 0D 0E 0F
      -- -- -- -- -- -- -- --  -- -- -- -- -- -- -- --
0180:                                AC 01 03 80 AB 04            ......
0190: 00                                                .               
```

#### Opcodes

```
  0: 0x018A [0xAC] EventEntity->StatusEvent = 0*
  1: 0x018E [0xAB] EventEntity->Render.Flags0 |= 0x40000 // Set bit 18
  2: 0x0190 [0x00] END_REQSTACK()
```

### Event 65535.23

#### Metadata

| Field        | Value    |
|--------------|----------|
| Entrypoint   | 0x0191   |
| Data Size    | 24 bytes |
| Instructions | 6        |

```
      00 01 02 03 04 05 06 07  08 09 0A 0B 0C 0D 0E 0F
      -- -- -- -- -- -- -- --  -- -- -- -- -- -- -- --
0190:    32 04 80 1F 00 05 80  06 80 07 80 1F 01 1F 00   2..............
01A0: 08 80 09 80 0A 80 1F 01  00                       .........       
```

#### Opcodes

```
  0: 0x0191 [0x32] ExtData[1]->MainSpeed = 40* * 0.1
  1: 0x0194 [0x1F] MOVE_ENTITY: EventEntity moves to X=-575.633*, Z=291.086*, Y=-3.710*
  2: 0x019C [0x1F] MOVE_ENTITY: Update entity position (mode=1)
  3: 0x019E [0x1F] MOVE_ENTITY: EventEntity moves to X=-571.804*, Z=293.309*, Y=-3.735*
  4: 0x01A6 [0x1F] MOVE_ENTITY: Update entity position (mode=1)
  5: 0x01A8 [0x00] END_REQSTACK()
```
