# 16999014 - BLU02

## Common Data

| Field            | Value                  |
|------------------|------------------------|
| Zone             | Arrapago Reef (ID: 54) |
| Block Size       | 92 bytes               |
| Total Events     | 3                      |
| References Count | 8                      |

## List of Events

| Event ID                 | Entrypoint   |   Size |   Instructions |
|--------------------------|--------------|--------|----------------|
| [65535](#event-65535)    | 0x0000       |      1 |              1 |
| [233](#event-233)        | 0x0001       |      1 |              1 |
| [65535.1](#event-655351) | 0x0002       |     28 |              6 |

## DAT References (imed_data)

|   Index | Hex Value   |   Dec Value |
|---------|-------------|-------------|
|       0 | 0xFFFD0908  |  4294773000 |
|       1 | 0x15718     |       87832 |
|       2 | 0xFFFFDDFF  |  4294958591 |
|       3 | 0x04B4      |        1204 |
|       4 | 0x000D      |          13 |
|       5 | 0xFFFCFAA5  |  4294769317 |
|       6 | 0x1572C     |       87852 |
|       7 | 0xFFFFDED8  |  4294958808 |

## Events

### Event 65535

#### Metadata

| Field        | Value   |
|--------------|---------|
| Entrypoint   | 0x0000  |
| Data Size    | 1 bytes |
| Instructions | 1       |

```
      00 01 02 03 04 05 06 07  08 09 0A 0B 0C 0D 0E 0F
      -- -- -- -- -- -- -- --  -- -- -- -- -- -- -- --
0000: 00                                                .               
```

#### Opcodes

```
  0: 0x0000 [0x00] END_REQSTACK()
```

### Event 233

#### Metadata

| Field        | Value   |
|--------------|---------|
| Entrypoint   | 0x0001  |
| Data Size    | 1 bytes |
| Instructions | 1       |

```
      00 01 02 03 04 05 06 07  08 09 0A 0B 0C 0D 0E 0F
      -- -- -- -- -- -- -- --  -- -- -- -- -- -- -- --
0000:    00                                              .              
```

#### Opcodes

```
  0: 0x0001 [0x00] END_REQSTACK()
```

### Event 65535.1

#### Metadata

| Field        | Value    |
|--------------|----------|
| Entrypoint   | 0x0002   |
| Data Size    | 28 bytes |
| Instructions | 6        |

```
      00 01 02 03 04 05 06 07  08 09 0A 0B 0C 0D 0E 0F
      -- -- -- -- -- -- -- --  -- -- -- -- -- -- -- --
0000:       37 00 80 01 80 02  80 03 80 32 04 80 1F 00    7........2....
0010: 05 80 06 80 07 80 1F 01  1E 61 62 03 01 00        .........ab...  
```

#### Opcodes

```
  0: 0x0002 [0x37] UPDATE_EVENT_POSITION_AND_DIR: x=-194.296*, z=87.832*, y=-8.705*, direction=105.8°*
  1: 0x000B [0x32] ExtData[1]->MainSpeed = 13* * 0.1
  2: 0x000E [0x1F] MOVE_ENTITY: EventEntity moves to X=-197.979*, Z=87.852*, Y=-8.488*
  3: 0x0016 [0x1F] MOVE_ENTITY: Update entity position (mode=1)
  4: 0x0018 [0x1E] EventEntity looks at Qultada (ID: 16999009/0x01036261) and starts talking
  5: 0x001D [0x00] END_REQSTACK()
```
