# 16999035 - Flit

## Common Data

| Field            | Value                  |
|------------------|------------------------|
| Zone             | Arrapago Reef (ID: 54) |
| Block Size       | 244 bytes              |
| Total Events     | 9                      |
| References Count | 22                     |

## List of Events

| Event ID                 | Entrypoint   |   Size |   Instructions |
|--------------------------|--------------|--------|----------------|
| [65535](#event-65535)    | 0x0000       |      1 |              1 |
| [13](#event-13)          | 0x0001       |      1 |              1 |
| [65535.1](#event-655351) | 0x0002       |     14 |              4 |
| [65535.2](#event-655352) | 0x0010       |     17 |              4 |
| [65535.3](#event-655353) | 0x0021       |     24 |              7 |
| [15](#event-15)          | 0x0039       |      1 |              1 |
| [65535.4](#event-655354) | 0x003A       |     14 |              4 |
| [65535.5](#event-655355) | 0x0048       |     20 |              6 |
| [65535.6](#event-655356) | 0x005C       |     12 |              3 |

## DAT References (imed_data)

|   Index | Hex Value   |   Dec Value |
|---------|-------------|-------------|
|       0 | 0x000D      |          13 |
|       1 | 0xFFFFF8E3  |  4294965475 |
|       2 | 0xFFFF7F1C  |  4294934300 |
|       3 | 0xFFFFA813  |  4294944787 |
|       4 | 0xFFFFF3F1  |  4294964209 |
|       5 | 0x03EE      |        1006 |
|       6 | 0xFFFF8AD1  |  4294937297 |
|       7 | 0x0298      |         664 |
|       8 | 0xFFFFFA67  |  4294965863 |
|       9 | 0x1D00      |        7424 |
|      10 | 0xFFFF8EE7  |  4294938343 |
|      11 | 0x001E      |          30 |
|      12 | 0x0029      |          41 |
|      13 | 0xFFFF4FDD  |  4294922205 |
|      14 | 0xFFFF9E0A  |  4294942218 |
|      15 | 0xFFFFFF76  |  4294967158 |
|      16 | 0xFFFF1865  |  4294908005 |
|      17 | 0xFFFF996C  |  4294941036 |
|      18 | 0xFFFFF951  |  4294965585 |
|      19 | 0xFFFF9AE9  |  4294941417 |
|      20 | 0xFFFFBC6D  |  4294949997 |
|      21 | 0x06CC      |        1740 |

## Events

### Event 65535

#### Metadata

| Field        | Value   |
|--------------|---------|
| Entrypoint   | 0x0000  |
| Data Size    | 1 bytes |
| Instructions | 1       |

```
      00 01 02 03 04 05 06 07  08 09 0A 0B 0C 0D 0E 0F
      -- -- -- -- -- -- -- --  -- -- -- -- -- -- -- --
0000: 00                                                .               
```

#### Opcodes

```
  0: 0x0000 [0x00] END_REQSTACK()
```

### Event 13

#### Metadata

| Field        | Value   |
|--------------|---------|
| Entrypoint   | 0x0001  |
| Data Size    | 1 bytes |
| Instructions | 1       |

```
      00 01 02 03 04 05 06 07  08 09 0A 0B 0C 0D 0E 0F
      -- -- -- -- -- -- -- --  -- -- -- -- -- -- -- --
0000:    00                                              .              
```

#### Opcodes

```
  0: 0x0001 [0x00] END_REQSTACK()
```

### Event 65535.1

#### Metadata

| Field        | Value    |
|--------------|----------|
| Entrypoint   | 0x0002   |
| Data Size    | 14 bytes |
| Instructions | 4        |

```
      00 01 02 03 04 05 06 07  08 09 0A 0B 0C 0D 0E 0F
      -- -- -- -- -- -- -- --  -- -- -- -- -- -- -- --
0000:       32 00 80 1F 00 01  80 02 80 03 80 1F 01 00    2.............
```

#### Opcodes

```
  0: 0x0002 [0x32] ExtData[1]->MainSpeed = 13* * 0.1
  1: 0x0005 [0x1F] MOVE_ENTITY: EventEntity moves to X=-1.821*, Z=-32.996*, Y=-22.509*
  2: 0x000D [0x1F] MOVE_ENTITY: Update entity position (mode=1)
  3: 0x000F [0x00] END_REQSTACK()
```

### Event 65535.2

#### Metadata

| Field        | Value    |
|--------------|----------|
| Entrypoint   | 0x0010   |
| Data Size    | 17 bytes |
| Instructions | 4        |

```
      00 01 02 03 04 05 06 07  08 09 0A 0B 0C 0D 0E 0F
      -- -- -- -- -- -- -- --  -- -- -- -- -- -- -- --
0010: 33 01 37 04 80 05 80 06  80 07 80 80 F8 FF FF 7F  3.7.............
0020: 00                                                .               
```

#### Opcodes

```
  0: 0x0010 [0x33] EventEntity->Render.Flags0 |= 0x200000 // Bit 21 (flag=0x01)
  1: 0x0012 [0x37] UPDATE_EVENT_POSITION_AND_DIR: x=-3.087*, z=1.006*, y=-29.999*, direction=58.4°*
  2: 0x001B [0x80] LOAD_WAIT(entity=EventEntity)
  3: 0x0020 [0x00] END_REQSTACK()
```

### Event 65535.3

#### Metadata

| Field        | Value    |
|--------------|----------|
| Entrypoint   | 0x0021   |
| Data Size    | 24 bytes |
| Instructions | 7        |

```
      00 01 02 03 04 05 06 07  08 09 0A 0B 0C 0D 0E 0F
      -- -- -- -- -- -- -- --  -- -- -- -- -- -- -- --
0020:    33 01 32 00 80 1F 00  08 80 09 80 0A 80 1F 01   3.2............
0030: 1E 82 62 03 01 1C 0B 80  00                       ..b......       
```

#### Opcodes

```
  0: 0x0021 [0x33] EventEntity->Render.Flags0 |= 0x200000 // Bit 21 (flag=0x01)
  1: 0x0023 [0x32] ExtData[1]->MainSpeed = 13* * 0.1
  2: 0x0026 [0x1F] MOVE_ENTITY: EventEntity moves to X=-1.433*, Z=7.424*, Y=-28.953*
  3: 0x002E [0x1F] MOVE_ENTITY: Update entity position (mode=1)
  4: 0x0030 [0x1E] EventEntity looks at Luzaf (ID: 16999042/0x01036282) and starts talking
  5: 0x0035 [0x1C] WAIT(30* ticks)
  6: 0x0038 [0x00] END_REQSTACK()
```

### Event 15

#### Metadata

| Field        | Value   |
|--------------|---------|
| Entrypoint   | 0x0039  |
| Data Size    | 1 bytes |
| Instructions | 1       |

```
      00 01 02 03 04 05 06 07  08 09 0A 0B 0C 0D 0E 0F
      -- -- -- -- -- -- -- --  -- -- -- -- -- -- -- --
0030:                             00                             .      
```

#### Opcodes

```
  0: 0x0039 [0x00] END_REQSTACK()
```

### Event 65535.4

#### Metadata

| Field        | Value    |
|--------------|----------|
| Entrypoint   | 0x003A   |
| Data Size    | 14 bytes |
| Instructions | 4        |

```
      00 01 02 03 04 05 06 07  08 09 0A 0B 0C 0D 0E 0F
      -- -- -- -- -- -- -- --  -- -- -- -- -- -- -- --
0030:                                32 00 80 1F 00 0C            2.....
0040: 80 0D 80 0E 80 1F 01 00                           ........        
```

#### Opcodes

```
  0: 0x003A [0x32] ExtData[1]->MainSpeed = 13* * 0.1
  1: 0x003D [0x1F] MOVE_ENTITY: EventEntity moves to X=0.041*, Z=-45.091*, Y=-25.078*
  2: 0x0045 [0x1F] MOVE_ENTITY: Update entity position (mode=1)
  3: 0x0047 [0x00] END_REQSTACK()
```

### Event 65535.5

#### Metadata

| Field        | Value    |
|--------------|----------|
| Entrypoint   | 0x0048   |
| Data Size    | 20 bytes |
| Instructions | 6        |

```
      00 01 02 03 04 05 06 07  08 09 0A 0B 0C 0D 0E 0F
      -- -- -- -- -- -- -- --  -- -- -- -- -- -- -- --
0040:                          32 00 80 1F 00 0F 80 10          2.......
0050: 80 11 80 1F 01 6F 1E 82  62 03 01 00              .....o..b...    
```

#### Opcodes

```
  0: 0x0048 [0x32] ExtData[1]->MainSpeed = 13* * 0.1
  1: 0x004B [0x1F] MOVE_ENTITY: EventEntity moves to X=-0.138*, Z=-59.291*, Y=-26.260*
  2: 0x0053 [0x1F] MOVE_ENTITY: Update entity position (mode=1)
  3: 0x0055 [0x6F] WAIT_FRAME_DELAY: Yield until WaitTime reaches zero
  4: 0x0056 [0x1E] EventEntity looks at Luzaf (ID: 16999042/0x01036282) and starts talking
  5: 0x005B [0x00] END_REQSTACK()
```

### Event 65535.6

#### Metadata

| Field        | Value    |
|--------------|----------|
| Entrypoint   | 0x005C   |
| Data Size    | 12 bytes |
| Instructions | 3        |

```
      00 01 02 03 04 05 06 07  08 09 0A 0B 0C 0D 0E 0F
      -- -- -- -- -- -- -- --  -- -- -- -- -- -- -- --
0050:                                      33 01 37 12              3.7.
0060: 80 13 80 14 80 15 80 00                           ........        
```

#### Opcodes

```
  0: 0x005C [0x33] EventEntity->Render.Flags0 |= 0x200000 // Bit 21 (flag=0x01)
  1: 0x005E [0x37] UPDATE_EVENT_POSITION_AND_DIR: x=-1.711*, z=-25.879*, y=-17.299*, direction=152.9°*
  2: 0x0067 [0x00] END_REQSTACK()
```
