# 16999018

## Common Data

| Field            | Value                  |
|------------------|------------------------|
| Zone             | Arrapago Reef (ID: 54) |
| Block Size       | 296 bytes              |
| Total Events     | 8                      |
| References Count | 25                     |

## List of Events

| Event ID                 | Entrypoint   |   Size |   Instructions |
|--------------------------|--------------|--------|----------------|
| [65535](#event-65535)    | 0x0000       |      1 |              1 |
| [237](#event-237)        | 0x0001       |      1 |              1 |
| [240](#event-240)        | 0x0002       |      1 |              1 |
| [238](#event-238)        | 0x0003       |      1 |              1 |
| [65535.1](#event-655351) | 0x0004       |     45 |              8 |
| [65535.2](#event-655352) | 0x0031       |     45 |              8 |
| [65535.3](#event-655353) | 0x005E       |     12 |              3 |
| [65535.4](#event-655354) | 0x006A       |     41 |              5 |

## DAT References (imed_data)

|   Index | Hex Value   |   Dec Value |
|---------|-------------|-------------|
|       0 | 0x00C8      |         200 |
|       1 | 0xFFFFA6D5  |  4294944469 |
|       2 | 0x66DD      |       26333 |
|       3 | 0xFFFFD65E  |  4294956638 |
|       4 | 0x0082      |         130 |
|       5 | 0x00F5      |         245 |
|       6 | 0x0000      |           0 |
|       7 | 0x000D      |          13 |
|       8 | 0xFFFFA2DE  |  4294943454 |
|       9 | 0x7ACF      |       31439 |
|      10 | 0x0041      |          65 |
|      11 | 0xFFFFA743  |  4294944579 |
|      12 | 0x5BD5      |       23509 |
|      13 | 0xFFFFD676  |  4294956662 |
|      14 | 0x0990      |        2448 |
|      15 | 0xFFFF9D73  |  4294942067 |
|      16 | 0x6EDC      |       28380 |
|      17 | 0x0333      |         819 |
|      18 | 0x61E6      |       25062 |
|      19 | 0xFFFF7B30  |  4294933296 |
|      20 | 0x090D      |        2317 |
|      21 | 0x002D      |          45 |
|      22 | 0x00D6      |         214 |
|      23 | 0x001E      |          30 |
|      24 | 0x011C      |         284 |

## Events

### Event 65535

#### Metadata

| Field        | Value   |
|--------------|---------|
| Entrypoint   | 0x0000  |
| Data Size    | 1 bytes |
| Instructions | 1       |

```
      00 01 02 03 04 05 06 07  08 09 0A 0B 0C 0D 0E 0F
      -- -- -- -- -- -- -- --  -- -- -- -- -- -- -- --
0000: 00                                                .               
```

#### Opcodes

```
  0: 0x0000 [0x00] END_REQSTACK()
```

### Event 237

#### Metadata

| Field        | Value   |
|--------------|---------|
| Entrypoint   | 0x0001  |
| Data Size    | 1 bytes |
| Instructions | 1       |

```
      00 01 02 03 04 05 06 07  08 09 0A 0B 0C 0D 0E 0F
      -- -- -- -- -- -- -- --  -- -- -- -- -- -- -- --
0000:    00                                              .              
```

#### Opcodes

```
  0: 0x0001 [0x00] END_REQSTACK()
```

### Event 240

#### Metadata

| Field        | Value   |
|--------------|---------|
| Entrypoint   | 0x0002  |
| Data Size    | 1 bytes |
| Instructions | 1       |

```
      00 01 02 03 04 05 06 07  08 09 0A 0B 0C 0D 0E 0F
      -- -- -- -- -- -- -- --  -- -- -- -- -- -- -- --
0000:       00                                            .             
```

#### Opcodes

```
  0: 0x0002 [0x00] END_REQSTACK()
```

### Event 238

#### Metadata

| Field        | Value   |
|--------------|---------|
| Entrypoint   | 0x0003  |
| Data Size    | 1 bytes |
| Instructions | 1       |

```
      00 01 02 03 04 05 06 07  08 09 0A 0B 0C 0D 0E 0F
      -- -- -- -- -- -- -- --  -- -- -- -- -- -- -- --
0000:          00                                          .            
```

#### Opcodes

```
  0: 0x0003 [0x00] END_REQSTACK()
```

### Event 65535.1

#### Metadata

| Field        | Value    |
|--------------|----------|
| Entrypoint   | 0x0004   |
| Data Size    | 45 bytes |
| Instructions | 8        |

```
      00 01 02 03 04 05 06 07  08 09 0A 0B 0C 0D 0E 0F
      -- -- -- -- -- -- -- --  -- -- -- -- -- -- -- --
0000:             1C 00 80 33  01 37 01 80 02 80 03 80      ...3.7......
0010: 04 80 9F 05 80 6A 62 03  01 6A 62 03 01 73 74 72  .....jb..jb..str
0020: 30 06 80 32 07 80 1F 00  08 80 09 80 03 80 1F 01  0..2............
0030: 00                                                .               
```

#### Opcodes

```
  0: 0x0004 [0x1C] WAIT(200* ticks)
  1: 0x0007 [0x33] EventEntity->Render.Flags0 |= 0x200000 // Bit 21 (flag=0x01)
  2: 0x0009 [0x37] UPDATE_EVENT_POSITION_AND_DIR: x=-22.827*, z=26.333*, y=-10.658*, direction=11.4°*
  3: 0x0012 [0x9F] LOAD_SCHEDULED_TASK_ALT: Load scheduler "str0" with entities [Unnamed NPC (ID: 16999018/0x0103626A), Unnamed NPC (ID: 16999018/0x0103626A)], work=[245*, 0*]
  4: 0x0023 [0x32] ExtData[1]->MainSpeed = 13* * 0.1
  5: 0x0026 [0x1F] MOVE_ENTITY: EventEntity moves to X=-23.842*, Z=31.439*, Y=-10.658*
  6: 0x002E [0x1F] MOVE_ENTITY: Update entity position (mode=1)
  7: 0x0030 [0x00] END_REQSTACK()
```

### Event 65535.2

#### Metadata

| Field        | Value    |
|--------------|----------|
| Entrypoint   | 0x0031   |
| Data Size    | 45 bytes |
| Instructions | 8        |

```
      00 01 02 03 04 05 06 07  08 09 0A 0B 0C 0D 0E 0F
      -- -- -- -- -- -- -- --  -- -- -- -- -- -- -- --
0030:    1C 0A 80 33 01 37 0B  80 0C 80 0D 80 0E 80 9F   ...3.7.........
0040: 05 80 6A 62 03 01 6A 62  03 01 73 74 72 30 06 80  ..jb..jb..str0..
0050: 32 07 80 1F 00 0F 80 10  80 0D 80 1F 01 00        2.............  
```

#### Opcodes

```
  0: 0x0031 [0x1C] WAIT(65* ticks)
  1: 0x0034 [0x33] EventEntity->Render.Flags0 |= 0x200000 // Bit 21 (flag=0x01)
  2: 0x0036 [0x37] UPDATE_EVENT_POSITION_AND_DIR: x=-22.717*, z=23.509*, y=-10.634*, direction=215.1°*
  3: 0x003F [0x9F] LOAD_SCHEDULED_TASK_ALT: Load scheduler "str0" with entities [Unnamed NPC (ID: 16999018/0x0103626A), Unnamed NPC (ID: 16999018/0x0103626A)], work=[245*, 0*]
  4: 0x0050 [0x32] ExtData[1]->MainSpeed = 13* * 0.1
  5: 0x0053 [0x1F] MOVE_ENTITY: EventEntity moves to X=-25.229*, Z=28.380*, Y=-10.634*
  6: 0x005B [0x1F] MOVE_ENTITY: Update entity position (mode=1)
  7: 0x005D [0x00] END_REQSTACK()
```

### Event 65535.3

#### Metadata

| Field        | Value    |
|--------------|----------|
| Entrypoint   | 0x005E   |
| Data Size    | 12 bytes |
| Instructions | 3        |

```
      00 01 02 03 04 05 06 07  08 09 0A 0B 0C 0D 0E 0F
      -- -- -- -- -- -- -- --  -- -- -- -- -- -- -- --
0050:                                            33 01                3.
0060: 37 11 80 12 80 13 80 14  80 00                    7.........      
```

#### Opcodes

```
  0: 0x005E [0x33] EventEntity->Render.Flags0 |= 0x200000 // Bit 21 (flag=0x01)
  1: 0x0060 [0x37] UPDATE_EVENT_POSITION_AND_DIR: x=0.819*, z=25.062*, y=-34.000*, direction=203.6°*
  2: 0x0069 [0x00] END_REQSTACK()
```

### Event 65535.4

#### Metadata

| Field        | Value    |
|--------------|----------|
| Entrypoint   | 0x006A   |
| Data Size    | 41 bytes |
| Instructions | 5        |

```
      00 01 02 03 04 05 06 07  08 09 0A 0B 0C 0D 0E 0F
      -- -- -- -- -- -- -- --  -- -- -- -- -- -- -- --
0060:                                1C 15 80 9F 16 80            ......
0070: 6A 62 03 01 6A 62 03 01  73 74 72 30 06 80 1C 17  jb..jb..str0....
0080: 80 45 18 80 F0 FF FF 7F  F0 FF FF 7F 31 30 38 37  .E..........1087
0090: 06 80 00                                          ...             
```

#### Opcodes

```
  0: 0x006A [0x1C] WAIT(45* ticks)
  1: 0x006D [0x9F] LOAD_SCHEDULED_TASK_ALT: Load scheduler "str0" with entities [Unnamed NPC (ID: 16999018/0x0103626A), Unnamed NPC (ID: 16999018/0x0103626A)], work=[214*, 0*]
  2: 0x007E [0x1C] WAIT(30* ticks)
  3: 0x0081 [0x45] LOAD_SCHEDULED_TASK: Load scheduler "1087" with entities [LocalPlayer, LocalPlayer], work=[284*, 0*]
  4: 0x0092 [0x00] END_REQSTACK()
```
