# 16998971 - Iron Gate

## Common Data

| Field            | Value                  |
|------------------|------------------------|
| Zone             | Arrapago Reef (ID: 54) |
| Block Size       | 452 bytes              |
| Total Events     | 3                      |
| References Count | 12                     |

## List of Events

| Event ID              | Entrypoint   |   Size |   Instructions |
|-----------------------|--------------|--------|----------------|
| [65535](#event-65535) | 0x0000       |      1 |              1 |
| [206](#event-206)     | 0x0001       |    192 |             37 |
| [207](#event-207)     | 0x00C1       |    181 |             34 |

## DAT References (imed_data)

|   Index | Hex Value   |   Dec Value |
|---------|-------------|-------------|
|       0 | 0x0323      |         803 |
|       1 | 0x1D42      |        7490 |
|       2 | 0x0001      |           1 |
|       3 | 0x0000      |           0 |
|       4 | 0x1D48      |        7496 |
|       5 | 0x00B4      |         180 |
|       6 | 0x00C8      |         200 |
|       7 | 0x003C      |          60 |
|       8 | 0x0013      |          19 |
|       9 | 0x00D9      |         217 |
|      10 | 0x00F0      |         240 |
|      11 | 0x1CA5      |        7333 |

## String References

- **7333**: Leave through the gate? [Yes./No.]
- **7490**: Use the $3? [Yes./No.]
- **7496**: All of a sudden, the tiny Merrow begins to sing... "I have longed to sing for you...the fleeting nature of life..." The other side of the door grows silent, and then you hear a voice... "Enter, foolish ones who fear us not..."

## Events

### Event 65535

#### Metadata

| Field        | Value   |
|--------------|---------|
| Entrypoint   | 0x0000  |
| Data Size    | 1 bytes |
| Instructions | 1       |

```
      00 01 02 03 04 05 06 07  08 09 0A 0B 0C 0D 0E 0F
      -- -- -- -- -- -- -- --  -- -- -- -- -- -- -- --
0000: 00                                                .               
```

#### Opcodes

```
  0: 0x0000 [0x00] END_REQSTACK()
```

### Event 206

#### Metadata

| Field        | Value     |
|--------------|-----------|
| Entrypoint   | 0x0001    |
| Data Size    | 192 bytes |
| Instructions | 37        |

```
      00 01 02 03 04 05 06 07  08 09 0A 0B 0C 0D 0E 0F
      -- -- -- -- -- -- -- --  -- -- -- -- -- -- -- --
0000:    20 01 20 01 03 02 10  00 80 24 01 80 02 80 03    . ......$.....
0010: 80 25 02 00 10 03 80 00  AD 00 43 00 43 01 46 01  .%........C.C.F.
0020: 42 48 04 80 1C 05 80 45  06 80 F0 FF FF 7F F0 FF  BH.....E........
0030: FF 7F 66 64 6F 31 03 80  1C 07 80 38 08 80 45 09  ..fdo1.....8..E.
0040: 80 F0 FF FF 7F F0 FF FF  7F 7A 35 34 65 03 80 29  .........z54e..)
0050: 01 F0 FF FF 7F 0D 29 01  F0 FF FF 7F 0B 45 06 80  ......)......E..
0060: F0 FF FF 7F F0 FF FF 7F  66 64 69 31 03 80 1C 07  ........fdi1....
0070: 80 4C 1C 07 80 27 01 F0  FF FF 7F 0C 1C 05 80 45  .L...'.........E
0080: 06 80 F0 FF FF 7F F0 FF  FF 7F 66 64 6F 31 03 80  ..........fdo1..
0090: 1C 07 80 4D 46 00 1C 0A  80 45 06 80 F0 FF FF 7F  ...MF....E......
00A0: F0 FF FF 7F 66 64 69 31  03 80 01 BD 00 02 00 10  ....fdi1........
00B0: 02 80 00 BD 00 03 01 10  03 80 01 BD 00 20 00 21  ............. .!
00C0: 00                                                .               
```

#### Opcodes

```
  0: 0x0001 [0x20] SET_CLI_EVENT_UC_FLAG: Lock player control
  1: 0x0003 [0x20] SET_CLI_EVENT_UC_FLAG: Lock player control
  2: 0x0005 [0x03] Work_Zone[2] = 803*
  3: 0x000A [0x24] CREATE_DIALOG(message_id=7490*, default_option=1*, option_flags=0*)
    → "Use the $3? [Yes./No.]"
  4: 0x0011 [0x25] WAIT_DIALOG_SELECT()
  5: 0x0012 [0x02] IF !(Work_Zone[0] == 0*) GOTO 0x00AD
  6: 0x001A [0x43] SEND_EVENT_UPDATE: Send pending tag to server (packet 0x005B)
  7: 0x001C [0x43] SEND_EVENT_UPDATE: Check pending flag (skip if not pending)
  8: 0x001E [0x46] CAMERA_CONTROL: Disable user control
  9: 0x0020 [0x42] SET_CLI_EVENT_CANCEL_DATA()
 10: 0x0021 [0x48] [System] [7496*]:
    → "All of a sudden, the tiny Merrow begins to sing... "I have longed to sing for you...the fleeting nature of life..." The other side of the door grows silent, and then you hear a voice... "Enter, foolish ones who fear us not...""
 11: 0x0024 [0x1C] WAIT(180* ticks)
 12: 0x0027 [0x45] LOAD_SCHEDULED_TASK: Load scheduler "fdo1" with entities [LocalPlayer, LocalPlayer], work=[200*, 0*]
 13: 0x0038 [0x1C] WAIT(60* ticks)
 14: 0x003B [0x38] SET_CLIENT_EVENT_MODE(mode=19*)
 15: 0x003E [0x45] LOAD_SCHEDULED_TASK: Load scheduler "z54e" with entities [LocalPlayer, LocalPlayer], work=[217*, 0*]
 16: 0x004F [0x29] REQ_SET_WAIT(priority=0x01, entity_id=LocalPlayer, tag_num=0x0D)
 17: 0x0056 [0x29] REQ_SET_WAIT(priority=0x01, entity_id=LocalPlayer, tag_num=0x0B)
 18: 0x005D [0x45] LOAD_SCHEDULED_TASK: Load scheduler "fdi1" with entities [LocalPlayer, LocalPlayer], work=[200*, 0*]
 19: 0x006E [0x1C] WAIT(60* ticks)
 20: 0x0071 [0x4C] EventEntity->StatusEvent = 8 // Open door
 21: 0x0072 [0x1C] WAIT(60* ticks)
 22: 0x0075 [0x27] REQ_SET(priority=0x01, entity_id=LocalPlayer, tag_num=0x0C)
 23: 0x007C [0x1C] WAIT(180* ticks)
 24: 0x007F [0x45] LOAD_SCHEDULED_TASK: Load scheduler "fdo1" with entities [LocalPlayer, LocalPlayer], work=[200*, 0*]
 25: 0x0090 [0x1C] WAIT(60* ticks)
 26: 0x0093 [0x4D] EventEntity->StatusEvent = 9 // Close door
 27: 0x0094 [0x46] CAMERA_CONTROL: Restore default settings
 28: 0x0096 [0x1C] WAIT(240* ticks)
 29: 0x0099 [0x45] LOAD_SCHEDULED_TASK: Load scheduler "fdi1" with entities [LocalPlayer, LocalPlayer], work=[200*, 0*]
 30: 0x00AA [0x01] GOTO 0x00BD
 31: 0x00AD [0x02] IF !(Work_Zone[0] == 1*) GOTO 0x00BD
 32: 0x00B5 [0x03] Work_Zone[1] = 0*
 33: 0x00BA [0x01] GOTO 0x00BD

SUBROUTINE_00BD:
 34: 0x00BD [0x20] SET_CLI_EVENT_UC_FLAG: Unlock player control
 35: 0x00BF [0x21] END_EVENT
 36: 0x00C0 [0x00] END_REQSTACK()
```

### Event 207

#### Metadata

| Field        | Value     |
|--------------|-----------|
| Entrypoint   | 0x00C1    |
| Data Size    | 181 bytes |
| Instructions | 34        |

```
      00 01 02 03 04 05 06 07  08 09 0A 0B 0C 0D 0E 0F
      -- -- -- -- -- -- -- --  -- -- -- -- -- -- -- --
00C0:    20 01 20 01 24 0B 80  02 80 03 80 25 02 00 10    . .$......%...
00D0: 03 80 00 62 01 43 00 43  01 46 01 42 45 06 80 F0  ...b.C.C.F.BE...
00E0: FF FF 7F F0 FF FF 7F 66  64 6F 31 03 80 1C 07 80  .......fdo1.....
00F0: 38 08 80 45 09 80 F0 FF  FF 7F F0 FF FF 7F 7A 35  8..E..........z5
0100: 34 66 03 80 29 01 F0 FF  FF 7F 10 29 01 F0 FF FF  4f..)......)....
0110: 7F 0E 45 06 80 F0 FF FF  7F F0 FF FF 7F 66 64 69  ..E..........fdi
0120: 31 03 80 1C 07 80 4C 1C  07 80 27 01 F0 FF FF 7F  1.....L...'.....
0130: 0F 1C 05 80 45 06 80 F0  FF FF 7F F0 FF FF 7F 66  ....E..........f
0140: 64 6F 31 03 80 1C 07 80  4D 46 00 1C 0A 80 45 06  do1.....MF....E.
0150: 80 F0 FF FF 7F F0 FF FF  7F 66 64 69 31 03 80 01  .........fdi1...
0160: 72 01 02 00 10 02 80 00  72 01 03 01 10 03 80 01  r.......r.......
0170: 72 01 20 00 21 00                                 r. .!.          
```

#### Opcodes

```
  0: 0x00C1 [0x20] SET_CLI_EVENT_UC_FLAG: Lock player control
  1: 0x00C3 [0x20] SET_CLI_EVENT_UC_FLAG: Lock player control
  2: 0x00C5 [0x24] CREATE_DIALOG(message_id=7333*, default_option=1*, option_flags=0*)
    → "Leave through the gate? [Yes./No.]"
  3: 0x00CC [0x25] WAIT_DIALOG_SELECT()
  4: 0x00CD [0x02] IF !(Work_Zone[0] == 0*) GOTO 0x0162
  5: 0x00D5 [0x43] SEND_EVENT_UPDATE: Send pending tag to server (packet 0x005B)
  6: 0x00D7 [0x43] SEND_EVENT_UPDATE: Check pending flag (skip if not pending)
  7: 0x00D9 [0x46] CAMERA_CONTROL: Disable user control
  8: 0x00DB [0x42] SET_CLI_EVENT_CANCEL_DATA()
  9: 0x00DC [0x45] LOAD_SCHEDULED_TASK: Load scheduler "fdo1" with entities [LocalPlayer, LocalPlayer], work=[200*, 0*]
 10: 0x00ED [0x1C] WAIT(60* ticks)
 11: 0x00F0 [0x38] SET_CLIENT_EVENT_MODE(mode=19*)
 12: 0x00F3 [0x45] LOAD_SCHEDULED_TASK: Load scheduler "z54f" with entities [LocalPlayer, LocalPlayer], work=[217*, 0*]
 13: 0x0104 [0x29] REQ_SET_WAIT(priority=0x01, entity_id=LocalPlayer, tag_num=0x10)
 14: 0x010B [0x29] REQ_SET_WAIT(priority=0x01, entity_id=LocalPlayer, tag_num=0x0E)
 15: 0x0112 [0x45] LOAD_SCHEDULED_TASK: Load scheduler "fdi1" with entities [LocalPlayer, LocalPlayer], work=[200*, 0*]
 16: 0x0123 [0x1C] WAIT(60* ticks)
 17: 0x0126 [0x4C] EventEntity->StatusEvent = 8 // Open door
 18: 0x0127 [0x1C] WAIT(60* ticks)
 19: 0x012A [0x27] REQ_SET(priority=0x01, entity_id=LocalPlayer, tag_num=0x0F)
 20: 0x0131 [0x1C] WAIT(180* ticks)
 21: 0x0134 [0x45] LOAD_SCHEDULED_TASK: Load scheduler "fdo1" with entities [LocalPlayer, LocalPlayer], work=[200*, 0*]
 22: 0x0145 [0x1C] WAIT(60* ticks)
 23: 0x0148 [0x4D] EventEntity->StatusEvent = 9 // Close door
 24: 0x0149 [0x46] CAMERA_CONTROL: Restore default settings
 25: 0x014B [0x1C] WAIT(240* ticks)
 26: 0x014E [0x45] LOAD_SCHEDULED_TASK: Load scheduler "fdi1" with entities [LocalPlayer, LocalPlayer], work=[200*, 0*]
 27: 0x015F [0x01] GOTO 0x0172
 28: 0x0162 [0x02] IF !(Work_Zone[0] == 1*) GOTO 0x0172
 29: 0x016A [0x03] Work_Zone[1] = 0*
 30: 0x016F [0x01] GOTO 0x0172

SUBROUTINE_0172:
 31: 0x0172 [0x20] SET_CLI_EVENT_UC_FLAG: Unlock player control
 32: 0x0174 [0x21] END_EVENT
 33: 0x0175 [0x00] END_REQSTACK()
```
