# 16999021

## Common Data

| Field            | Value                  |
|------------------|------------------------|
| Zone             | Arrapago Reef (ID: 54) |
| Block Size       | 448 bytes              |
| Total Events     | 16                     |
| References Count | 12                     |

## List of Events

| Event ID                 | Entrypoint   |   Size |   Instructions |
|--------------------------|--------------|--------|----------------|
| [65535](#event-65535)    | 0x0000       |      1 |              1 |
| [8](#event-8)            | 0x0001       |      1 |              1 |
| [34](#event-34)          | 0x0002       |      1 |              1 |
| [35](#event-35)          | 0x0003       |      1 |              1 |
| [9](#event-9)            | 0x0004       |      1 |              1 |
| [65535.1](#event-655351) | 0x0005       |     38 |              4 |
| [65535.2](#event-655352) | 0x002B       |     10 |              2 |
| [65535.3](#event-655353) | 0x0035       |     10 |              2 |
| [65535.4](#event-655354) | 0x003F       |    157 |             17 |
| [65535.5](#event-655355) | 0x00DC       |     65 |              5 |
| [65535.6](#event-655356) | 0x011D       |     10 |              2 |
| [65535.7](#event-655357) | 0x0127       |     10 |              2 |
| [14](#event-14)          | 0x0131       |      1 |              1 |
| [65535.8](#event-655358) | 0x0132       |     10 |              2 |
| [15](#event-15)          | 0x013C       |      1 |              1 |
| [16](#event-16)          | 0x013D       |      1 |              1 |

## DAT References (imed_data)

|   Index | Hex Value   |   Dec Value |
|---------|-------------|-------------|
|       0 | 0x007F      |         127 |
|       1 | 0x0000      |           0 |
|       2 | 0x0014      |          20 |
|       3 | 0x0080      |         128 |
|       4 | 0x0078      |         120 |
|       5 | 0x00F0      |         240 |
|       6 | 0x000F      |          15 |
|       7 | 0x001E      |          30 |
|       8 | 0x000A      |          10 |
|       9 | 0x0005      |           5 |
|      10 | 0x0112      |         274 |
|      11 | 0x003C      |          60 |

## Events

### Event 65535

#### Metadata

| Field        | Value   |
|--------------|---------|
| Entrypoint   | 0x0000  |
| Data Size    | 1 bytes |
| Instructions | 1       |

```
      00 01 02 03 04 05 06 07  08 09 0A 0B 0C 0D 0E 0F
      -- -- -- -- -- -- -- --  -- -- -- -- -- -- -- --
0000: 00                                                .               
```

#### Opcodes

```
  0: 0x0000 [0x00] END_REQSTACK()
```

### Event 8

#### Metadata

| Field        | Value   |
|--------------|---------|
| Entrypoint   | 0x0001  |
| Data Size    | 1 bytes |
| Instructions | 1       |

```
      00 01 02 03 04 05 06 07  08 09 0A 0B 0C 0D 0E 0F
      -- -- -- -- -- -- -- --  -- -- -- -- -- -- -- --
0000:    00                                              .              
```

#### Opcodes

```
  0: 0x0001 [0x00] END_REQSTACK()
```

### Event 34

#### Metadata

| Field        | Value   |
|--------------|---------|
| Entrypoint   | 0x0002  |
| Data Size    | 1 bytes |
| Instructions | 1       |

```
      00 01 02 03 04 05 06 07  08 09 0A 0B 0C 0D 0E 0F
      -- -- -- -- -- -- -- --  -- -- -- -- -- -- -- --
0000:       00                                            .             
```

#### Opcodes

```
  0: 0x0002 [0x00] END_REQSTACK()
```

### Event 35

#### Metadata

| Field        | Value   |
|--------------|---------|
| Entrypoint   | 0x0003  |
| Data Size    | 1 bytes |
| Instructions | 1       |

```
      00 01 02 03 04 05 06 07  08 09 0A 0B 0C 0D 0E 0F
      -- -- -- -- -- -- -- --  -- -- -- -- -- -- -- --
0000:          00                                          .            
```

#### Opcodes

```
  0: 0x0003 [0x00] END_REQSTACK()
```

### Event 9

#### Metadata

| Field        | Value   |
|--------------|---------|
| Entrypoint   | 0x0004  |
| Data Size    | 1 bytes |
| Instructions | 1       |

```
      00 01 02 03 04 05 06 07  08 09 0A 0B 0C 0D 0E 0F
      -- -- -- -- -- -- -- --  -- -- -- -- -- -- -- --
0000:             00                                        .           
```

#### Opcodes

```
  0: 0x0004 [0x00] END_REQSTACK()
```

### Event 65535.1

#### Metadata

| Field        | Value    |
|--------------|----------|
| Entrypoint   | 0x0005   |
| Data Size    | 38 bytes |
| Instructions | 4        |

```
      00 01 02 03 04 05 06 07  08 09 0A 0B 0C 0D 0E 0F
      -- -- -- -- -- -- -- --  -- -- -- -- -- -- -- --
0000:                9F 00 80  F8 FF FF 7F F8 FF FF 7F       ...........
0010: 73 74 72 30 01 80 1C 02  80 9F 00 80 F8 FF FF 7F  str0............
0020: F8 FF FF 7F 6B 69 6C 6C  01 80 00                 ....kill...     
```

#### Opcodes

```
  0: 0x0005 [0x9F] LOAD_SCHEDULED_TASK_ALT: Load scheduler "str0" with entities [EventEntity, EventEntity], work=[127*, 0*]
  1: 0x0016 [0x1C] WAIT(20* ticks)
  2: 0x0019 [0x9F] LOAD_SCHEDULED_TASK_ALT: Load scheduler "kill" with entities [EventEntity, EventEntity], work=[127*, 0*]
  3: 0x002A [0x00] END_REQSTACK()
```

### Event 65535.2

#### Metadata

| Field        | Value    |
|--------------|----------|
| Entrypoint   | 0x002B   |
| Data Size    | 10 bytes |
| Instructions | 2        |

```
      00 01 02 03 04 05 06 07  08 09 0A 0B 0C 0D 0E 0F
      -- -- -- -- -- -- -- --  -- -- -- -- -- -- -- --
0020:                                   6C 73 62 03 01             lsb..
0030: 03 80 04 80 00                                    .....           
```

#### Opcodes

```
  0: 0x002B [0x6C] FADE_ENTITY_COLOR(entity_id=??? (ID: 16999027/0x01036273), end_alpha=128*, fade_time=120*)
  1: 0x0034 [0x00] END_REQSTACK()
```

### Event 65535.3

#### Metadata

| Field        | Value    |
|--------------|----------|
| Entrypoint   | 0x0035   |
| Data Size    | 10 bytes |
| Instructions | 2        |

```
      00 01 02 03 04 05 06 07  08 09 0A 0B 0C 0D 0E 0F
      -- -- -- -- -- -- -- --  -- -- -- -- -- -- -- --
0030:                6C 73 62  03 01 01 80 04 80 00          lsb....... 
```

#### Opcodes

```
  0: 0x0035 [0x6C] FADE_ENTITY_COLOR(entity_id=??? (ID: 16999027/0x01036273), end_alpha=0*, fade_time=120*)
  1: 0x003E [0x00] END_REQSTACK()
```

### Event 65535.4

#### Metadata

| Field        | Value     |
|--------------|-----------|
| Entrypoint   | 0x003F    |
| Data Size    | 157 bytes |
| Instructions | 17        |

```
      00 01 02 03 04 05 06 07  08 09 0A 0B 0C 0D 0E 0F
      -- -- -- -- -- -- -- --  -- -- -- -- -- -- -- --
0030:                                               27                 '
0040: 10 74 62 03 01 0A 9F 05  80 74 62 03 01 74 62 03  .tb......tb..tb.
0050: 01 6B 69 65 30 01 80 1C  06 80 27 10 75 62 03 01  .kie0.....'.ub..
0060: 0A 27 10 76 62 03 01 09  9F 05 80 75 62 03 01 75  .'.vb......ub..u
0070: 62 03 01 6B 69 65 30 01  80 9F 05 80 76 62 03 01  b..kie0.....vb..
0080: 76 62 03 01 6B 69 65 30  01 80 1C 07 80 27 10 77  vb..kie0.....'.w
0090: 62 03 01 0A 9F 05 80 77  62 03 01 77 62 03 01 6B  b......wb..wb..k
00A0: 69 65 30 01 80 1C 08 80  27 10 78 62 03 01 0A 9F  ie0.....'.xb....
00B0: 05 80 78 62 03 01 78 62  03 01 6B 69 65 30 01 80  ..xb..xb..kie0..
00C0: 1C 09 80 27 10 79 62 03  01 09 9F 05 80 79 62 03  ...'.yb......yb.
00D0: 01 79 62 03 01 6B 69 65  30 01 80 00              .yb..kie0...    
```

#### Opcodes

```
  0: 0x003F [0x27] REQ_SET(priority=0x10, entity_id=1 (ID: 16999028/0x01036274), tag_num=0x0A)
  1: 0x0046 [0x9F] LOAD_SCHEDULED_TASK_ALT: Load scheduler "kie0" with entities [1 (ID: 16999028/0x01036274), 1 (ID: 16999028/0x01036274)], work=[240*, 0*]
  2: 0x0057 [0x1C] WAIT(15* ticks)
  3: 0x005A [0x27] REQ_SET(priority=0x10, entity_id=2 (ID: 16999029/0x01036275), tag_num=0x0A)
  4: 0x0061 [0x27] REQ_SET(priority=0x10, entity_id=3 (ID: 16999030/0x01036276), tag_num=0x09)
  5: 0x0068 [0x9F] LOAD_SCHEDULED_TASK_ALT: Load scheduler "kie0" with entities [2 (ID: 16999029/0x01036275), 2 (ID: 16999029/0x01036275)], work=[240*, 0*]
  6: 0x0079 [0x9F] LOAD_SCHEDULED_TASK_ALT: Load scheduler "kie0" with entities [3 (ID: 16999030/0x01036276), 3 (ID: 16999030/0x01036276)], work=[240*, 0*]
  7: 0x008A [0x1C] WAIT(30* ticks)
  8: 0x008D [0x27] REQ_SET(priority=0x10, entity_id=4 (ID: 16999031/0x01036277), tag_num=0x0A)
  9: 0x0094 [0x9F] LOAD_SCHEDULED_TASK_ALT: Load scheduler "kie0" with entities [4 (ID: 16999031/0x01036277), 4 (ID: 16999031/0x01036277)], work=[240*, 0*]
 10: 0x00A5 [0x1C] WAIT(10* ticks)
 11: 0x00A8 [0x27] REQ_SET(priority=0x10, entity_id=5 (ID: 16999032/0x01036278), tag_num=0x0A)
 12: 0x00AF [0x9F] LOAD_SCHEDULED_TASK_ALT: Load scheduler "kie0" with entities [5 (ID: 16999032/0x01036278), 5 (ID: 16999032/0x01036278)], work=[240*, 0*]
 13: 0x00C0 [0x1C] WAIT(5* ticks)
 14: 0x00C3 [0x27] REQ_SET(priority=0x10, entity_id=6 (ID: 16999033/0x01036279), tag_num=0x09)
 15: 0x00CA [0x9F] LOAD_SCHEDULED_TASK_ALT: Load scheduler "kie0" with entities [6 (ID: 16999033/0x01036279), 6 (ID: 16999033/0x01036279)], work=[240*, 0*]
 16: 0x00DB [0x00] END_REQSTACK()
```

### Event 65535.5

#### Metadata

| Field        | Value    |
|--------------|----------|
| Entrypoint   | 0x00DC   |
| Data Size    | 65 bytes |
| Instructions | 5        |

```
      00 01 02 03 04 05 06 07  08 09 0A 0B 0C 0D 0E 0F
      -- -- -- -- -- -- -- --  -- -- -- -- -- -- -- --
00D0:                                      45 0A 80 F0              E...
00E0: FF FF 7F F0 FF FF 7F 67  64 30 33 01 80 55 0A 80  .......gd03..U..
00F0: F0 FF FF 7F F0 FF FF 7F  67 64 30 33 45 0A 80 F0  ........gd03E...
0100: FF FF 7F F0 FF FF 7F 67  64 30 34 01 80 55 0A 80  .......gd04..U..
0110: F0 FF FF 7F F0 FF FF 7F  67 64 30 34 00           ........gd04.   
```

#### Opcodes

```
  0: 0x00DC [0x45] LOAD_SCHEDULED_TASK: Load scheduler "gd03" with entities [LocalPlayer, LocalPlayer], work=[274*, 0*]
  1: 0x00ED [0x55] WAIT_LOAD_SCHEDULER: Wait for scheduler "gd03" with entities [LocalPlayer, LocalPlayer], work=274*
  2: 0x00FC [0x45] LOAD_SCHEDULED_TASK: Load scheduler "gd04" with entities [LocalPlayer, LocalPlayer], work=[274*, 0*]
  3: 0x010D [0x55] WAIT_LOAD_SCHEDULER: Wait for scheduler "gd04" with entities [LocalPlayer, LocalPlayer], work=274*
  4: 0x011C [0x00] END_REQSTACK()
```

### Event 65535.6

#### Metadata

| Field        | Value    |
|--------------|----------|
| Entrypoint   | 0x011D   |
| Data Size    | 10 bytes |
| Instructions | 2        |

```
      00 01 02 03 04 05 06 07  08 09 0A 0B 0C 0D 0E 0F
      -- -- -- -- -- -- -- --  -- -- -- -- -- -- -- --
0110:                                         6C 71 62               lqb
0120: 03 01 01 80 0B 80 00                              .......         
```

#### Opcodes

```
  0: 0x011D [0x6C] FADE_ENTITY_COLOR(entity_id=Fhu Madihmin (ID: 16999025/0x01036271), end_alpha=0*, fade_time=60*)
  1: 0x0126 [0x00] END_REQSTACK()
```

### Event 65535.7

#### Metadata

| Field        | Value    |
|--------------|----------|
| Entrypoint   | 0x0127   |
| Data Size    | 10 bytes |
| Instructions | 2        |

```
      00 01 02 03 04 05 06 07  08 09 0A 0B 0C 0D 0E 0F
      -- -- -- -- -- -- -- --  -- -- -- -- -- -- -- --
0120:                      6C  71 62 03 01 03 80 0B 80         lqb......
0130: 00                                                .               
```

#### Opcodes

```
  0: 0x0127 [0x6C] FADE_ENTITY_COLOR(entity_id=Fhu Madihmin (ID: 16999025/0x01036271), end_alpha=128*, fade_time=60*)
  1: 0x0130 [0x00] END_REQSTACK()
```

### Event 14

#### Metadata

| Field        | Value   |
|--------------|---------|
| Entrypoint   | 0x0131  |
| Data Size    | 1 bytes |
| Instructions | 1       |

```
      00 01 02 03 04 05 06 07  08 09 0A 0B 0C 0D 0E 0F
      -- -- -- -- -- -- -- --  -- -- -- -- -- -- -- --
0130:    00                                              .              
```

#### Opcodes

```
  0: 0x0131 [0x00] END_REQSTACK()
```

### Event 65535.8

#### Metadata

| Field        | Value    |
|--------------|----------|
| Entrypoint   | 0x0132   |
| Data Size    | 10 bytes |
| Instructions | 2        |

```
      00 01 02 03 04 05 06 07  08 09 0A 0B 0C 0D 0E 0F
      -- -- -- -- -- -- -- --  -- -- -- -- -- -- -- --
0130:       6C 7F 62 03 01 03  80 04 80 00                l.b.......    
```

#### Opcodes

```
  0: 0x0132 [0x6C] FADE_ENTITY_COLOR(entity_id=Amnaf (ID: 16999039/0x0103627F), end_alpha=128*, fade_time=120*)
  1: 0x013B [0x00] END_REQSTACK()
```

### Event 15

#### Metadata

| Field        | Value   |
|--------------|---------|
| Entrypoint   | 0x013C  |
| Data Size    | 1 bytes |
| Instructions | 1       |

```
      00 01 02 03 04 05 06 07  08 09 0A 0B 0C 0D 0E 0F
      -- -- -- -- -- -- -- --  -- -- -- -- -- -- -- --
0130:                                      00                       .   
```

#### Opcodes

```
  0: 0x013C [0x00] END_REQSTACK()
```

### Event 16

#### Metadata

| Field        | Value   |
|--------------|---------|
| Entrypoint   | 0x013D  |
| Data Size    | 1 bytes |
| Instructions | 1       |

```
      00 01 02 03 04 05 06 07  08 09 0A 0B 0C 0D 0E 0F
      -- -- -- -- -- -- -- --  -- -- -- -- -- -- -- --
0130:                                         00                     .  
```

#### Opcodes

```
  0: 0x013D [0x00] END_REQSTACK()
```
