# 16999054 - Cutter

## Common Data

| Field            | Value                  |
|------------------|------------------------|
| Zone             | Arrapago Reef (ID: 54) |
| Block Size       | 832 bytes              |
| Total Events     | 2                      |
| References Count | 31                     |

## List of Events

| Event ID              | Entrypoint   |   Size |   Instructions |
|-----------------------|--------------|--------|----------------|
| [65535](#event-65535) | 0x0000       |      1 |              1 |
| [221](#event-221)     | 0x0001       |    681 |            123 |

## DAT References (imed_data)

|   Index | Hex Value   |   Dec Value |
|---------|-------------|-------------|
|       0 | 0x40000000  |  1073741824 |
|       1 | 0x0006      |           6 |
|       2 | 0x0000      |           0 |
|       3 | 0x212B      |        8491 |
|       4 | 0x0001      |           1 |
|       5 | 0x0002      |           2 |
|       6 | 0x0003      |           3 |
|       7 | 0x212C      |        8492 |
|       8 | 0x0004      |           4 |
|       9 | 0x0012      |          18 |
|      10 | 0x0015      |          21 |
|      11 | 0x210F      |        8463 |
|      12 | 0x2110      |        8464 |
|      13 | 0x0007      |           7 |
|      14 | 0x031D      |         797 |
|      15 | 0x2122      |        8482 |
|      16 | 0x2111      |        8465 |
|      17 | 0x2113      |        8467 |
|      18 | 0x2114      |        8468 |
|      19 | 0x2115      |        8469 |
|      20 | 0x2116      |        8470 |
|      21 | 0x2117      |        8471 |
|      22 | 0x211E      |        8478 |
|      23 | 0x2118      |        8472 |
|      24 | 0x021C      |         540 |
|      25 | 0x00C9      |         201 |
|      26 | 0x003C      |          60 |
|      27 | 0x001E      |          30 |
|      28 | 0x00C8      |         200 |
|      29 | 0x0023      |          35 |
|      30 | 0x2119      |        8473 |

## String References

- **8463**: The suggested level for $0 is $3. Place a level restriction on the party?
- **8464**: Place a level restriction? [No./Level 70./Level 60./Level 50.]
- **8465**: Your party's level will be [unrestricted/restricted to 70/restricted to 60/restricted to 50] for "$0."
- **8467**: Accept this setting? [Yes./No.]
- **8468**: Only nearby party members with the same objective will accompany you to [Leujaoam Sanctum/the Mamool Ja Training Grounds/Lebros Cavern/Periqia/Ilrusi Atoll/Nyzul Isle/The Ashu Talif/Zhayolm Remnants/Arrapago Remnants/Bhaflau Remnants/Silver Sea Remnants].
- **8469**: Please confirm that all party members are cleared to enter [Leujaoam Sanctum/the Mamool Ja Training Grounds/Lebros Cavern/Periqia/Ilrusi Atoll/Nyzul Isle/The Ashu Talif/Zhayolm Remnants/Arrapago Remnants/Bhaflau Remnants/Silver Sea Remnants].
- **8470**: All party members with the appropriate clearance will now be transported to [Leujaoam Sanctum/the Mamool Ja Training Grounds/Lebros Cavern/Periqia/Ilrusi Atoll/Nyzul Isle/The Ashu Talif/Zhayolm Remnants/Arrapago Remnants/Bhaflau Remnants/Silver Sea Remnants]. Are you ready?
- **8471**: Are you ready? [Yes./No.]
- **8472**: Commencing transport to [Leujaoam Sanctum/the Mamool Ja Training Grounds/Lebros Cavern/Periqia/Ilrusi Atoll/Nyzul Isle/The Ashu Talif/Zhayolm Remnants/Arrapago Remnants/Bhaflau Remnants/Silver Sea Remnants]!
- **8473**: Entry into [Leujaoam Sanctum/the Mamool Ja Training Grounds/Lebros Cavern/Periqia/Ilrusi Atoll/Nyzul Isle/The Ashu Talif/Zhayolm Remnants/Arrapago Remnants/Bhaflau Remnants/Silver Sea Remnants] has been suspended.
- **8478**: Connecting to server. Please wait.
- **8482**: You are not in possession of $6. Unable to enter area.

## Events

### Event 65535

#### Metadata

| Field        | Value   |
|--------------|---------|
| Entrypoint   | 0x0000  |
| Data Size    | 1 bytes |
| Instructions | 1       |

```
      00 01 02 03 04 05 06 07  08 09 0A 0B 0C 0D 0E 0F
      -- -- -- -- -- -- -- --  -- -- -- -- -- -- -- --
0000: 00                                                .               
```

#### Opcodes

```
  0: 0x0000 [0x00] END_REQSTACK()
```

### Event 221

#### Metadata

| Field        | Value     |
|--------------|-----------|
| Entrypoint   | 0x0001    |
| Data Size    | 681 bytes |
| Instructions | 123       |

```
      00 01 02 03 04 05 06 07  08 09 0A 0B 0C 0D 0E 0F
      -- -- -- -- -- -- -- --  -- -- -- -- -- -- -- --
0000:    42 03 01 00 06 10 03  04 00 08 10 03 01 10 00   B..............
0010: 80 02 01 80 02 80 00 21  00 03 02 00 03 80 01 71  .......!.......q
0020: 00 02 01 80 04 80 00 31  00 03 02 00 03 80 01 71  .......1.......q
0030: 00 02 01 80 05 80 00 41  00 03 02 00 03 80 01 71  .......A.......q
0040: 00 02 01 80 06 80 00 51  00 03 02 00 07 80 01 71  .......Q.......q
0050: 00 02 01 80 08 80 00 61  00 03 02 00 03 80 01 71  .......a.......q
0060: 00 02 01 80 01 80 00 71  00 03 02 00 07 80 01 71  .......q.......q
0070: 00 24 02 00 04 80 03 10  25 02 00 10 02 80 80 84  .$......%.......
0080: 00 01 84 00 02 00 10 02  80 02 A8 02 03 01 10 02  ................
0090: 80 40 09 80 0A 80 01 10  00 10 03 01 17 00 10 02  .@..............
00A0: 01 17 04 80 00 0A 01 02  07 10 02 80 01 F8 00 48  ...............H
00B0: 0B 80 23 24 0C 80 02 80  02 80 25 02 00 10 02 80  ..#$......%.....
00C0: 00 C6 00 01 E7 00 02 00  10 04 80 00 D1 00 01 E7  ................
00D0: 00 02 00 10 05 80 00 DC  00 01 E7 00 02 00 10 06  ................
00E0: 80 00 E7 00 01 E7 00 40  02 80 0D 80 01 10 00 10  .......@........
00F0: 03 00 17 00 10 01 07 01  03 02 10 0E 80 48 0F 80  .............H..
0100: 03 01 10 00 80 21 00 01  0D 01 01 21 01 48 10 80  .....!.....!.H..
0110: 23 24 11 80 04 80 02 80  25 02 00 10 02 80 00 94  #$......%.......
0120: 02 48 12 80 23 48 13 80  23 48 14 80 23 24 15 80  .H..#H..#H..#$..
0130: 04 80 02 80 25 02 00 10  02 80 00 7D 02 48 16 80  ....%......}.H..
0140: A7 00 A7 01 00 00 03 01  10 02 80 40 02 80 06 80  ...........@....
0150: 01 10 00 00 02 00 00 08  80 00 7A 02 03 06 10 01  ..........z.....
0160: 00 48 17 80 02 01 80 02  80 00 6F 01 01 79 02 02  .H........o..y..
0170: 01 80 04 80 00 7A 01 01  79 02 02 01 80 05 80 00  .....z..y.......
0180: 85 01 01 79 02 02 01 80  06 80 00 90 01 01 79 02  ...y..........y.
0190: 02 01 80 08 80 00 F7 01  2D F8 FF FF 7F F8 FF FF  ........-.......
01A0: 7F 32 70 62 32 1C 18 80  29 01 F0 FF FF 7F 03 45  .2pb2...)......E
01B0: 19 80 F0 FF FF 7F F0 FF  FF 7F 77 68 6F 31 02 80  ..........who1..
01C0: 1C 1A 80 2D F8 FF FF 7F  F8 FF FF 7F 32 70 62 6B  ...-........2pbk
01D0: 1C 1B 80 2D F8 FF FF 7F  F8 FF FF 7F 32 70 62 31  ...-........2pb1
01E0: 1C 1B 80 45 19 80 F0 FF  FF 7F F0 FF FF 7F 77 68  ...E..........wh
01F0: 69 31 02 80 01 79 02 02  01 80 01 80 00 79 02 45  i1...y.......y.E
0200: 1C 80 F0 FF FF 7F F0 FF  FF 7F 66 64 6F 31 02 80  ..........fdo1..
0210: 55 1C 80 F0 FF FF 7F F0  FF FF 7F 66 64 6F 31 38  U..........fdo18
0220: 09 80 4E 01 F0 FF FF 7F  45 1D 80 F8 FF FF 7F F8  ..N.....E.......
0230: FF FF 7F 73 61 73 68 02  80 27 0A 51 62 03 01 03  ...sash..'.Qb...
0240: 27 0A 52 62 03 01 02 45  1C 80 F0 FF FF 7F F0 FF  '.Rb...E........
0250: FF 7F 66 64 69 31 02 80  55 1C 80 F0 FF FF 7F F0  ..fdi1..U.......
0260: FF FF 7F 66 64 69 31 55  1D 80 F8 FF FF 7F F8 FF  ...fdi1U........
0270: FF 7F 73 61 73 68 01 79  02 30 01 91 02 02 00 10  ..sash.y.0......
0280: 04 80 00 91 02 48 1E 80  23 03 01 10 00 80 01 91  .....H..#.......
0290: 02 01 A8 02 02 00 10 04  80 00 A8 02 48 1E 80 23  ............H..#
02A0: 03 01 10 00 80 01 A8 02  21 00                    ........!.      
```

#### Opcodes

```
  0: 0x0001 [0x42] SET_CLI_EVENT_CANCEL_DATA()
  1: 0x0002 [0x03] ExtData[1]->WorkLocal[1] = Work_Zone[6]
  2: 0x0007 [0x03] ExtData[1]->WorkLocal[4] = Work_Zone[8]
  3: 0x000C [0x03] Work_Zone[1] = 1073741824*
  4: 0x0011 [0x02] IF !(6* == 0*) GOTO 0x0021
  5: 0x0019 [0x03] ExtData[1]->WorkLocal[2] = 8491*
  6: 0x001E [0x01] GOTO 0x0071
  7: 0x0021 [0x02] IF !(6* == 1*) GOTO 0x0031
  8: 0x0029 [0x03] ExtData[1]->WorkLocal[2] = 8491*
  9: 0x002E [0x01] GOTO 0x0071
 10: 0x0031 [0x02] IF !(6* == 2*) GOTO 0x0041
 11: 0x0039 [0x03] ExtData[1]->WorkLocal[2] = 8491*
 12: 0x003E [0x01] GOTO 0x0071
 13: 0x0041 [0x02] IF !(6* == 3*) GOTO 0x0051
 14: 0x0049 [0x03] ExtData[1]->WorkLocal[2] = 8492*
 15: 0x004E [0x01] GOTO 0x0071
 16: 0x0051 [0x02] IF !(6* == 4*) GOTO 0x0061
 17: 0x0059 [0x03] ExtData[1]->WorkLocal[2] = 8491*
 18: 0x005E [0x01] GOTO 0x0071
 19: 0x0061 [0x02] IF !(6* == 6*) GOTO 0x0071
 20: 0x0069 [0x03] ExtData[1]->WorkLocal[2] = 8492*
 21: 0x006E [0x01] GOTO 0x0071

SUBROUTINE_0071:
 22: 0x0071 [0x24] CREATE_DIALOG(message_id=ExtData[1]->WorkLocal[2], default_option=1*, option_flags=Work_Zone[3])
 23: 0x0078 [0x25] WAIT_DIALOG_SELECT()
 24: 0x0079 [0x02] IF !(Work_Zone[0] == 0*) GOTO 0x0084
 25: 0x0081 [0x01] GOTO 0x0084

SUBROUTINE_0084:
 26: 0x0084 [0x02] IF !(Work_Zone[0] <= 0*) GOTO 0x02A8
 27: 0x008C [0x03] Work_Zone[1] = 0*
 28: 0x0091 [0x40] SET_BIT_WORK_RANGE(start_bit=18*, end_bit=21*, target=Work_Zone[1], source=Work_Zone[0])
 29: 0x009A [0x03] Work_Zone_1700[1] = Work_Zone[0]
 30: 0x009F [0x02] IF !(Work_Zone_1700[1] == 1*) GOTO 0x010A
 31: 0x00A7 [0x02] IF !(Work_Zone[7] == 0*) GOTO 0x00F8
 32: 0x00AF [0x48] [System] [8463*]:
    → "The suggested level for $0 is $3. Place a level restriction on the party?"
 33: 0x00B2 [0x23] WAIT_FOR_DIALOG_INTERACTION
 34: 0x00B3 [0x24] CREATE_DIALOG(message_id=8464*, default_option=0*, option_flags=0*)
    → "Place a level restriction? [No./Level 70./Level 60./Level 50.]"
 35: 0x00BA [0x25] WAIT_DIALOG_SELECT()
 36: 0x00BB [0x02] IF !(Work_Zone[0] == 0*) GOTO 0x00C6
 37: 0x00C3 [0x01] GOTO 0x00E7
 38: 0x00C6 [0x02] IF !(Work_Zone[0] == 1*) GOTO 0x00D1
 39: 0x00CE [0x01] GOTO 0x00E7
 40: 0x00D1 [0x02] IF !(Work_Zone[0] == 2*) GOTO 0x00DC
 41: 0x00D9 [0x01] GOTO 0x00E7
 42: 0x00DC [0x02] IF !(Work_Zone[0] == 3*) GOTO 0x00E7
 43: 0x00E4 [0x01] GOTO 0x00E7

SUBROUTINE_00E7:
 44: 0x00E7 [0x40] SET_BIT_WORK_RANGE(start_bit=0*, end_bit=7*, target=Work_Zone[1], source=Work_Zone[0])
 45: 0x00F0 [0x03] Work_Zone_1700[0] = Work_Zone[0]
 46: 0x00F5 [0x01] GOTO 0x0107
 47: 0x00F8 [0x03] Work_Zone[2] = 797*
 48: 0x00FD [0x48] [System] [8482*]:
    → "You are not in possession of $6. Unable to enter area."
 49: 0x0100 [0x03] Work_Zone[1] = 1073741824*
 50: 0x0105 [0x21] END_EVENT
 51: 0x0106 [0x00] END_REQSTACK()

SUBROUTINE_0107:
 52: 0x0107 [0x01] GOTO 0x010D
 53: 0x010A [0x01] GOTO 0x0121

SUBROUTINE_010D:
 54: 0x010D [0x48] [System] [8465*]:
    → "Your party's level will be [unrestricted/restricted to 70/restricted to 60/restricted to 50] for "$0.""
 55: 0x0110 [0x23] WAIT_FOR_DIALOG_INTERACTION
 56: 0x0111 [0x24] CREATE_DIALOG(message_id=8467*, default_option=1*, option_flags=0*)
    → "Accept this setting? [Yes./No.]"
 57: 0x0118 [0x25] WAIT_DIALOG_SELECT()
 58: 0x0119 [0x02] IF !(Work_Zone[0] == 0*) GOTO 0x0294

SUBROUTINE_0121:
 59: 0x0121 [0x48] [System] [8468*]:
    → "Only nearby party members with the same objective will accompany you to [Leujaoam Sanctum/the Mamool Ja Training Grounds/Lebros Cavern/Periqia/Ilrusi Atoll/Nyzul Isle/The Ashu Talif/Zhayolm Remnants/Arrapago Remnants/Bhaflau Remnants/Silver Sea Remnants]."
 60: 0x0124 [0x23] WAIT_FOR_DIALOG_INTERACTION
 61: 0x0125 [0x48] [System] [8469*]:
    → "Please confirm that all party members are cleared to enter [Leujaoam Sanctum/the Mamool Ja Training Grounds/Lebros Cavern/Periqia/Ilrusi Atoll/Nyzul Isle/The Ashu Talif/Zhayolm Remnants/Arrapago Remnants/Bhaflau Remnants/Silver Sea Remnants]."
 62: 0x0128 [0x23] WAIT_FOR_DIALOG_INTERACTION
 63: 0x0129 [0x48] [System] [8470*]:
    → "All party members with the appropriate clearance will now be transported to [Leujaoam Sanctum/the Mamool Ja Training Grounds/Lebros Cavern/Periqia/Ilrusi Atoll/Nyzul Isle/The Ashu Talif/Zhayolm Remnants/Arrapago Remnants/Bhaflau Remnants/Silver Sea Remnants]. Are you ready?"
 64: 0x012C [0x23] WAIT_FOR_DIALOG_INTERACTION
 65: 0x012D [0x24] CREATE_DIALOG(message_id=8471*, default_option=1*, option_flags=0*)
    → "Are you ready? [Yes./No.]"
 66: 0x0134 [0x25] WAIT_DIALOG_SELECT()
 67: 0x0135 [0x02] IF !(Work_Zone[0] == 0*) GOTO 0x027D
 68: 0x013D [0x48] [System] [8478*]:
    → "Connecting to server. Please wait."
 69: 0x0140 [0xA7] BATTLEFIELD_RESPONSE_WAIT: Wait for server response (Dynamis/MMM/Salvage), mode=0x00
 70: 0x0142 [0xA7] BATTLEFIELD_RESPONSE_WAIT: Wait for server response with parameter (Dynamis/MMM/Salvage), param=ExtData[1]->WorkLocal[0]
 71: 0x0146 [0x03] Work_Zone[1] = 0*
 72: 0x014B [0x40] SET_BIT_WORK_RANGE(start_bit=0*, end_bit=3*, target=Work_Zone[1], source=ExtData[1]->WorkLocal[0])
 73: 0x0154 [0x02] IF !(ExtData[1]->WorkLocal[0] == 4*) GOTO 0x027A
 74: 0x015C [0x03] Work_Zone[6] = ExtData[1]->WorkLocal[1]
 75: 0x0161 [0x48] [System] [8472*]:
    → "Commencing transport to [Leujaoam Sanctum/the Mamool Ja Training Grounds/Lebros Cavern/Periqia/Ilrusi Atoll/Nyzul Isle/The Ashu Talif/Zhayolm Remnants/Arrapago Remnants/Bhaflau Remnants/Silver Sea Remnants]!"
 76: 0x0164 [0x02] IF !(6* == 0*) GOTO 0x016F
 77: 0x016C [0x01] GOTO 0x0279
 78: 0x016F [0x02] IF !(6* == 1*) GOTO 0x017A
 79: 0x0177 [0x01] GOTO 0x0279
 80: 0x017A [0x02] IF !(6* == 2*) GOTO 0x0185
 81: 0x0182 [0x01] GOTO 0x0279
 82: 0x0185 [0x02] IF !(6* == 3*) GOTO 0x0190
 83: 0x018D [0x01] GOTO 0x0279
 84: 0x0190 [0x02] IF !(6* == 4*) GOTO 0x01F7
 85: 0x0198 [0x2D] CREATE_ZONE_SCHEDULER_TASK: Create scheduler "2pb2" with entities [EventEntity, EventEntity]
 86: 0x01A5 [0x1C] WAIT(540* ticks)
 87: 0x01A8 [0x29] REQ_SET_WAIT(priority=0x01, entity_id=LocalPlayer, tag_num=0x03)
 88: 0x01AF [0x45] LOAD_SCHEDULED_TASK: Load scheduler "who1" with entities [LocalPlayer, LocalPlayer], work=[201*, 0*]
 89: 0x01C0 [0x1C] WAIT(60* ticks)
 90: 0x01C3 [0x2D] CREATE_ZONE_SCHEDULER_TASK: Create scheduler "2pbk" with entities [EventEntity, EventEntity]
 91: 0x01D0 [0x1C] WAIT(30* ticks)
 92: 0x01D3 [0x2D] CREATE_ZONE_SCHEDULER_TASK: Create scheduler "2pb1" with entities [EventEntity, EventEntity]
 93: 0x01E0 [0x1C] WAIT(30* ticks)
 94: 0x01E3 [0x45] LOAD_SCHEDULED_TASK: Load scheduler "whi1" with entities [LocalPlayer, LocalPlayer], work=[201*, 0*]
 95: 0x01F4 [0x01] GOTO 0x0279
 96: 0x01F7 [0x02] IF !(6* == 6*) GOTO 0x0279
 97: 0x01FF [0x45] LOAD_SCHEDULED_TASK: Load scheduler "fdo1" with entities [LocalPlayer, LocalPlayer], work=[200*, 0*]
 98: 0x0210 [0x55] WAIT_LOAD_SCHEDULER: Wait for scheduler "fdo1" with entities [LocalPlayer, LocalPlayer], work=200*
 99: 0x021F [0x38] SET_CLIENT_EVENT_MODE(mode=18*)
100: 0x0222 [0x4E] SET_ENTITY_HIDE_FLAG: Hide LocalPlayer
101: 0x0228 [0x45] LOAD_SCHEDULED_TASK: Load scheduler "sash" with entities [EventEntity, EventEntity], work=[35*, 0*]
102: 0x0239 [0x27] REQ_SET(priority=0x0A, entity_id=door_1i1 (ID: 16998993/0x01036251), tag_num=0x03)
103: 0x0240 [0x27] REQ_SET(priority=0x0A, entity_id=ship (ID: 16998994/0x01036252), tag_num=0x02)
104: 0x0247 [0x45] LOAD_SCHEDULED_TASK: Load scheduler "fdi1" with entities [LocalPlayer, LocalPlayer], work=[200*, 0*]
105: 0x0258 [0x55] WAIT_LOAD_SCHEDULER: Wait for scheduler "fdi1" with entities [LocalPlayer, LocalPlayer], work=200*
106: 0x0267 [0x55] WAIT_LOAD_SCHEDULER: Wait for scheduler "sash" with entities [EventEntity, EventEntity], work=35*
107: 0x0276 [0x01] GOTO 0x0279

SUBROUTINE_0279:
108: 0x0279 [0x30] SET_UCOFF_CONTINUE_ZERO()
109: 0x027A [0x01] GOTO 0x0291
110: 0x027D [0x02] IF !(Work_Zone[0] == 1*) GOTO 0x0291
111: 0x0285 [0x48] [System] [8473*]:
    → "Entry into [Leujaoam Sanctum/the Mamool Ja Training Grounds/Lebros Cavern/Periqia/Ilrusi Atoll/Nyzul Isle/The Ashu Talif/Zhayolm Remnants/Arrapago Remnants/Bhaflau Remnants/Silver Sea Remnants] has been suspended."
112: 0x0288 [0x23] WAIT_FOR_DIALOG_INTERACTION
113: 0x0289 [0x03] Work_Zone[1] = 1073741824*
114: 0x028E [0x01] GOTO 0x0291

SUBROUTINE_0291:
115: 0x0291 [0x01] GOTO 0x02A8
116: 0x0294 [0x02] IF !(Work_Zone[0] == 1*) GOTO 0x02A8
117: 0x029C [0x48] [System] [8473*]:
    → "Entry into [Leujaoam Sanctum/the Mamool Ja Training Grounds/Lebros Cavern/Periqia/Ilrusi Atoll/Nyzul Isle/The Ashu Talif/Zhayolm Remnants/Arrapago Remnants/Bhaflau Remnants/Silver Sea Remnants] has been suspended."
118: 0x029F [0x23] WAIT_FOR_DIALOG_INTERACTION
119: 0x02A0 [0x03] Work_Zone[1] = 1073741824*
120: 0x02A5 [0x01] GOTO 0x02A8

SUBROUTINE_02A8:
121: 0x02A8 [0x21] END_EVENT
122: 0x02A9 [0x00] END_REQSTACK()
```
