# 16999011 - Imutira

## Common Data

| Field            | Value                  |
|------------------|------------------------|
| Zone             | Arrapago Reef (ID: 54) |
| Block Size       | 636 bytes              |
| Total Events     | 19                     |
| References Count | 48                     |

## List of Events

| Event ID                   | Entrypoint   |   Size |   Instructions |
|----------------------------|--------------|--------|----------------|
| [65535](#event-65535)      | 0x0000       |      1 |              1 |
| [233](#event-233)          | 0x0001       |      1 |              1 |
| [65535.1](#event-655351)   | 0x0002       |     15 |              3 |
| [65535.2](#event-655352)   | 0x0011       |     38 |              4 |
| [65535.3](#event-655353)   | 0x0037       |     29 |              3 |
| [237](#event-237)          | 0x0054       |      1 |              1 |
| [240](#event-240)          | 0x0055       |      1 |              1 |
| [238](#event-238)          | 0x0056       |      1 |              1 |
| [65535.4](#event-655354)   | 0x0057       |     12 |              3 |
| [65535.5](#event-655355)   | 0x0063       |     10 |              2 |
| [65535.6](#event-655356)   | 0x006D       |     38 |              4 |
| [65535.7](#event-655357)   | 0x0093       |     29 |              6 |
| [65535.8](#event-655358)   | 0x00B0       |     38 |              9 |
| [65535.9](#event-655359)   | 0x00D6       |     28 |              6 |
| [65535.10](#event-6553510) | 0x00F2       |     10 |              2 |
| [65535.11](#event-6553511) | 0x00FC       |     29 |              3 |
| [65535.12](#event-6553512) | 0x0119       |     29 |              3 |
| [65535.13](#event-6553513) | 0x0136       |     21 |              2 |
| [65535.14](#event-6553514) | 0x014B       |     21 |              2 |

## DAT References (imed_data)

|   Index | Hex Value   |   Dec Value |
|---------|-------------|-------------|
|       0 | 0xFFFCBFC3  |  4294754243 |
|       1 | 0x15A49     |       88649 |
|       2 | 0xFFFFD57C  |  4294956412 |
|       3 | 0x0FD4      |        4052 |
|       4 | 0x6D897     |      448663 |
|       5 | 0xEA9B      |       60059 |
|       6 | 0xFFFFD8F0  |  4294957296 |
|       7 | 0x0AE7      |        2791 |
|       8 | 0x000E      |          14 |
|       9 | 0x0B12      |        2834 |
|      10 | 0x6737      |       26423 |
|      11 | 0xFFFF7B31  |  4294933297 |
|      12 | 0x06F9      |        1785 |
|      13 | 0x0062      |          98 |
|      14 | 0x4A97      |       19095 |
|      15 | 0xFFFFAA10  |  4294945296 |
|      16 | 0x03E8      |        1000 |
|      17 | 0xFFFFBFC5  |  4294950853 |
|      18 | 0x5183      |       20867 |
|      19 | 0xFFFFAA11  |  4294945297 |
|      20 | 0x0110      |         272 |
|      21 | 0xFFFFE544  |  4294960452 |
|      22 | 0xABAD      |       43949 |
|      23 | 0xFFFF86E8  |  4294936296 |
|      24 | 0x03E5      |         997 |
|      25 | 0x0003      |           3 |
|      26 | 0xFFFFE155  |  4294959445 |
|      27 | 0x9418      |       37912 |
|      28 | 0xFFFF8A1A  |  4294937114 |
|      29 | 0x0028      |          40 |
|      30 | 0xFFFFE19D  |  4294959517 |
|      31 | 0x72DF      |       29407 |
|      32 | 0xFFFF9F14  |  4294942484 |
|      33 | 0xFFFFE345  |  4294959941 |
|      34 | 0x63EB      |       25579 |
|      35 | 0xFFFFA822  |  4294944802 |
|      36 | 0x0372      |         882 |
|      37 | 0x000D      |          13 |
|      38 | 0xFFFFE41A  |  4294960154 |
|      39 | 0x4EC3      |       20163 |
|      40 | 0xFFFFDD97  |  4294958487 |
|      41 | 0x4902      |       18690 |
|      42 | 0x0030      |          48 |
|      43 | 0x0002      |           2 |
|      44 | 0x0007      |           7 |
|      45 | 0x0000      |           0 |
|      46 | 0x0087      |         135 |
|      47 | 0x007D      |         125 |

## Events

### Event 65535

#### Metadata

| Field        | Value   |
|--------------|---------|
| Entrypoint   | 0x0000  |
| Data Size    | 1 bytes |
| Instructions | 1       |

```
      00 01 02 03 04 05 06 07  08 09 0A 0B 0C 0D 0E 0F
      -- -- -- -- -- -- -- --  -- -- -- -- -- -- -- --
0000: 00                                                .               
```

#### Opcodes

```
  0: 0x0000 [0x00] END_REQSTACK()
```

### Event 233

#### Metadata

| Field        | Value   |
|--------------|---------|
| Entrypoint   | 0x0001  |
| Data Size    | 1 bytes |
| Instructions | 1       |

```
      00 01 02 03 04 05 06 07  08 09 0A 0B 0C 0D 0E 0F
      -- -- -- -- -- -- -- --  -- -- -- -- -- -- -- --
0000:    00                                              .              
```

#### Opcodes

```
  0: 0x0001 [0x00] END_REQSTACK()
```

### Event 65535.1

#### Metadata

| Field        | Value    |
|--------------|----------|
| Entrypoint   | 0x0002   |
| Data Size    | 15 bytes |
| Instructions | 3        |

```
      00 01 02 03 04 05 06 07  08 09 0A 0B 0C 0D 0E 0F
      -- -- -- -- -- -- -- --  -- -- -- -- -- -- -- --
0000:       37 00 80 01 80 02  80 03 80 1E 61 62 03 01    7.........ab..
0010: 00                                                .               
```

#### Opcodes

```
  0: 0x0002 [0x37] UPDATE_EVENT_POSITION_AND_DIR: x=-213.053*, z=88.649*, y=-10.884*, direction=356.1°*
  1: 0x000B [0x1E] EventEntity looks at Qultada (ID: 16999009/0x01036261) and starts talking
  2: 0x0010 [0x00] END_REQSTACK()
```

### Event 65535.2

#### Metadata

| Field        | Value    |
|--------------|----------|
| Entrypoint   | 0x0011   |
| Data Size    | 38 bytes |
| Instructions | 4        |

```
      00 01 02 03 04 05 06 07  08 09 0A 0B 0C 0D 0E 0F
      -- -- -- -- -- -- -- --  -- -- -- -- -- -- -- --
0010:    37 04 80 05 80 06 80  07 80 66 08 80 63 62 03   7........f..cb.
0020: 01 63 62 03 01 63 72 30  30 53 63 62 03 01 63 62  .cb..cr00Scb..cb
0030: 03 01 63 72 30 30 00                              ..cr00.         
```

#### Opcodes

```
  0: 0x0011 [0x37] UPDATE_EVENT_POSITION_AND_DIR: x=448.663*, z=60.059*, y=-10.000*, direction=245.3°*
  1: 0x001A [0x66] LOAD_EXT_SCHEDULER_MAIN: Load scheduler "cr00" with entities [Imutira (ID: 16999011/0x01036263), Imutira (ID: 16999011/0x01036263)], work=14*
  2: 0x0029 [0x53] WAIT_SCHEDULER_TASK: Wait for scheduler "cr00" with entities [Imutira (ID: 16999011/0x01036263), Imutira (ID: 16999011/0x01036263)]
  3: 0x0036 [0x00] END_REQSTACK()
```

### Event 65535.3

#### Metadata

| Field        | Value    |
|--------------|----------|
| Entrypoint   | 0x0037   |
| Data Size    | 29 bytes |
| Instructions | 3        |

```
      00 01 02 03 04 05 06 07  08 09 0A 0B 0C 0D 0E 0F
      -- -- -- -- -- -- -- --  -- -- -- -- -- -- -- --
0030:                      66  08 80 63 62 03 01 63 62         f..cb..cb
0040: 03 01 63 72 30 31 53 63  62 03 01 63 62 03 01 63  ..cr01Scb..cb..c
0050: 72 30 31 00                                       r01.            
```

#### Opcodes

```
  0: 0x0037 [0x66] LOAD_EXT_SCHEDULER_MAIN: Load scheduler "cr01" with entities [Imutira (ID: 16999011/0x01036263), Imutira (ID: 16999011/0x01036263)], work=14*
  1: 0x0046 [0x53] WAIT_SCHEDULER_TASK: Wait for scheduler "cr01" with entities [Imutira (ID: 16999011/0x01036263), Imutira (ID: 16999011/0x01036263)]
  2: 0x0053 [0x00] END_REQSTACK()
```

### Event 237

#### Metadata

| Field        | Value   |
|--------------|---------|
| Entrypoint   | 0x0054  |
| Data Size    | 1 bytes |
| Instructions | 1       |

```
      00 01 02 03 04 05 06 07  08 09 0A 0B 0C 0D 0E 0F
      -- -- -- -- -- -- -- --  -- -- -- -- -- -- -- --
0050:             00                                        .           
```

#### Opcodes

```
  0: 0x0054 [0x00] END_REQSTACK()
```

### Event 240

#### Metadata

| Field        | Value   |
|--------------|---------|
| Entrypoint   | 0x0055  |
| Data Size    | 1 bytes |
| Instructions | 1       |

```
      00 01 02 03 04 05 06 07  08 09 0A 0B 0C 0D 0E 0F
      -- -- -- -- -- -- -- --  -- -- -- -- -- -- -- --
0050:                00                                      .          
```

#### Opcodes

```
  0: 0x0055 [0x00] END_REQSTACK()
```

### Event 238

#### Metadata

| Field        | Value   |
|--------------|---------|
| Entrypoint   | 0x0056  |
| Data Size    | 1 bytes |
| Instructions | 1       |

```
      00 01 02 03 04 05 06 07  08 09 0A 0B 0C 0D 0E 0F
      -- -- -- -- -- -- -- --  -- -- -- -- -- -- -- --
0050:                   00                                    .         
```

#### Opcodes

```
  0: 0x0056 [0x00] END_REQSTACK()
```

### Event 65535.4

#### Metadata

| Field        | Value    |
|--------------|----------|
| Entrypoint   | 0x0057   |
| Data Size    | 12 bytes |
| Instructions | 3        |

```
      00 01 02 03 04 05 06 07  08 09 0A 0B 0C 0D 0E 0F
      -- -- -- -- -- -- -- --  -- -- -- -- -- -- -- --
0050:                      33  01 37 09 80 0A 80 0B 80         3.7......
0060: 0C 80 00                                          ...             
```

#### Opcodes

```
  0: 0x0057 [0x33] EventEntity->Render.Flags0 |= 0x200000 // Bit 21 (flag=0x01)
  1: 0x0059 [0x37] UPDATE_EVENT_POSITION_AND_DIR: x=2.834*, z=26.423*, y=-33.999*, direction=156.9°*
  2: 0x0062 [0x00] END_REQSTACK()
```

### Event 65535.5

#### Metadata

| Field        | Value    |
|--------------|----------|
| Entrypoint   | 0x0063   |
| Data Size    | 10 bytes |
| Instructions | 2        |

```
      00 01 02 03 04 05 06 07  08 09 0A 0B 0C 0D 0E 0F
      -- -- -- -- -- -- -- --  -- -- -- -- -- -- -- --
0060:          37 0D 80 0E 80  0F 80 10 80 00              7.........   
```

#### Opcodes

```
  0: 0x0063 [0x37] UPDATE_EVENT_POSITION_AND_DIR: x=0.098*, z=19.095*, y=-22.000*, direction=87.9°*
  1: 0x006C [0x00] END_REQSTACK()
```

### Event 65535.6

#### Metadata

| Field        | Value    |
|--------------|----------|
| Entrypoint   | 0x006D   |
| Data Size    | 38 bytes |
| Instructions | 4        |

```
      00 01 02 03 04 05 06 07  08 09 0A 0B 0C 0D 0E 0F
      -- -- -- -- -- -- -- --  -- -- -- -- -- -- -- --
0060:                                         37 11 80               7..
0070: 12 80 13 80 14 80 66 08  80 63 62 03 01 63 62 03  ......f..cb..cb.
0080: 01 63 72 30 34 53 63 62  03 01 63 62 03 01 63 72  .cr04Scb..cb..cr
0090: 30 34 00                                          04.             
```

#### Opcodes

```
  0: 0x006D [0x37] UPDATE_EVENT_POSITION_AND_DIR: x=-16.443*, z=20.867*, y=-21.999*, direction=23.9°*
  1: 0x0076 [0x66] LOAD_EXT_SCHEDULER_MAIN: Load scheduler "cr04" with entities [Imutira (ID: 16999011/0x01036263), Imutira (ID: 16999011/0x01036263)], work=14*
  2: 0x0085 [0x53] WAIT_SCHEDULER_TASK: Wait for scheduler "cr04" with entities [Imutira (ID: 16999011/0x01036263), Imutira (ID: 16999011/0x01036263)]
  3: 0x0092 [0x00] END_REQSTACK()
```

### Event 65535.7

#### Metadata

| Field        | Value    |
|--------------|----------|
| Entrypoint   | 0x0093   |
| Data Size    | 29 bytes |
| Instructions | 6        |

```
      00 01 02 03 04 05 06 07  08 09 0A 0B 0C 0D 0E 0F
      -- -- -- -- -- -- -- --  -- -- -- -- -- -- -- --
0090:          33 00 37 15 80  16 80 17 80 18 80 1C 19     3.7..........
00A0: 80 37 1A 80 1B 80 1C 80  18 80 1E 61 62 03 01 00  .7.........ab...
```

#### Opcodes

```
  0: 0x0093 [0x33] EventEntity->Render.Flags0 &= ~ 0x200000 // Bit 21 (flag=0x00)
  1: 0x0095 [0x37] UPDATE_EVENT_POSITION_AND_DIR: x=-6.844*, z=43.949*, y=-31.000*, direction=87.6°*
  2: 0x009E [0x1C] WAIT(3* ticks)
  3: 0x00A1 [0x37] UPDATE_EVENT_POSITION_AND_DIR: x=-7.851*, z=37.912*, y=-30.182*, direction=87.6°*
  4: 0x00AA [0x1E] EventEntity looks at Qultada (ID: 16999009/0x01036261) and starts talking
  5: 0x00AF [0x00] END_REQSTACK()
```

### Event 65535.8

#### Metadata

| Field        | Value    |
|--------------|----------|
| Entrypoint   | 0x00B0   |
| Data Size    | 38 bytes |
| Instructions | 9        |

```
      00 01 02 03 04 05 06 07  08 09 0A 0B 0C 0D 0E 0F
      -- -- -- -- -- -- -- --  -- -- -- -- -- -- -- --
00B0: 33 00 1C 19 80 37 1A 80  1B 80 1C 80 18 80 1E 61  3....7.........a
00C0: 62 03 01 32 1D 80 5A 00  1E 80 1F 80 20 80 5A 01  b..2..Z..... .Z.
00D0: 1E 61 62 03 01 00                                 .ab...          
```

#### Opcodes

```
  0: 0x00B0 [0x33] EventEntity->Render.Flags0 &= ~ 0x200000 // Bit 21 (flag=0x00)
  1: 0x00B2 [0x1C] WAIT(3* ticks)
  2: 0x00B5 [0x37] UPDATE_EVENT_POSITION_AND_DIR: x=-7.851*, z=37.912*, y=-30.182*, direction=87.6°*
  3: 0x00BE [0x1E] EventEntity looks at Qultada (ID: 16999009/0x01036261) and starts talking
  4: 0x00C3 [0x32] ExtData[1]->MainSpeed = 40* * 0.1
  5: 0x00C6 [0x5A] UPDATE_EVENT_POSITION: Set EventEntity MovePosition to X=-7.779*, Z=29.407*, Y=-24.812*
  6: 0x00CE [0x5A] UPDATE_EVENT_POSITION: Move EventEntity incrementally towards MovePosition
  7: 0x00D0 [0x1E] EventEntity looks at Qultada (ID: 16999009/0x01036261) and starts talking
  8: 0x00D5 [0x00] END_REQSTACK()
```

### Event 65535.9

#### Metadata

| Field        | Value    |
|--------------|----------|
| Entrypoint   | 0x00D6   |
| Data Size    | 28 bytes |
| Instructions | 6        |

```
      00 01 02 03 04 05 06 07  08 09 0A 0B 0C 0D 0E 0F
      -- -- -- -- -- -- -- --  -- -- -- -- -- -- -- --
00D0:                   1E 61  62 03 01 37 21 80 22 80        .ab..7!.".
00E0: 23 80 24 80 32 25 80 1F  00 26 80 27 80 0F 80 1F  #.$.2%...&.'....
00F0: 01 00                                             ..              
```

#### Opcodes

```
  0: 0x00D6 [0x1E] EventEntity looks at Qultada (ID: 16999009/0x01036261) and starts talking
  1: 0x00DB [0x37] UPDATE_EVENT_POSITION_AND_DIR: x=-7.355*, z=25.579*, y=-22.494*, direction=77.5°*
  2: 0x00E4 [0x32] ExtData[1]->MainSpeed = 13* * 0.1
  3: 0x00E7 [0x1F] MOVE_ENTITY: EventEntity moves to X=-7.142*, Z=20.163*, Y=-22.000*
  4: 0x00EF [0x1F] MOVE_ENTITY: Update entity position (mode=1)
  5: 0x00F1 [0x00] END_REQSTACK()
```

### Event 65535.10

#### Metadata

| Field        | Value    |
|--------------|----------|
| Entrypoint   | 0x00F2   |
| Data Size    | 10 bytes |
| Instructions | 2        |

```
      00 01 02 03 04 05 06 07  08 09 0A 0B 0C 0D 0E 0F
      -- -- -- -- -- -- -- --  -- -- -- -- -- -- -- --
00F0:       37 28 80 29 80 0F  80 2A 80 00                7(.)...*..    
```

#### Opcodes

```
  0: 0x00F2 [0x37] UPDATE_EVENT_POSITION_AND_DIR: x=-8.809*, z=18.690*, y=-22.000*, direction=4.2°*
  1: 0x00FB [0x00] END_REQSTACK()
```

### Event 65535.11

#### Metadata

| Field        | Value    |
|--------------|----------|
| Entrypoint   | 0x00FC   |
| Data Size    | 29 bytes |
| Instructions | 3        |

```
      00 01 02 03 04 05 06 07  08 09 0A 0B 0C 0D 0E 0F
      -- -- -- -- -- -- -- --  -- -- -- -- -- -- -- --
00F0:                                      66 08 80 63              f..c
0100: 62 03 01 63 62 03 01 63  72 30 33 53 61 62 03 01  b..cb..cr03Sab..
0110: 61 62 03 01 63 72 30 38  00                       ab..cr08.       
```

#### Opcodes

```
  0: 0x00FC [0x66] LOAD_EXT_SCHEDULER_MAIN: Load scheduler "cr03" with entities [Imutira (ID: 16999011/0x01036263), Imutira (ID: 16999011/0x01036263)], work=14*
  1: 0x010B [0x53] WAIT_SCHEDULER_TASK: Wait for scheduler "cr08" with entities [Qultada (ID: 16999009/0x01036261), Qultada (ID: 16999009/0x01036261)]
  2: 0x0118 [0x00] END_REQSTACK()
```

### Event 65535.12

#### Metadata

| Field        | Value    |
|--------------|----------|
| Entrypoint   | 0x0119   |
| Data Size    | 29 bytes |
| Instructions | 3        |

```
      00 01 02 03 04 05 06 07  08 09 0A 0B 0C 0D 0E 0F
      -- -- -- -- -- -- -- --  -- -- -- -- -- -- -- --
0110:                             66 08 80 63 62 03 01           f..cb..
0120: 63 62 03 01 63 72 30 31  53 63 62 03 01 63 62 03  cb..cr01Scb..cb.
0130: 01 63 72 30 31 00                                 .cr01.          
```

#### Opcodes

```
  0: 0x0119 [0x66] LOAD_EXT_SCHEDULER_MAIN: Load scheduler "cr01" with entities [Imutira (ID: 16999011/0x01036263), Imutira (ID: 16999011/0x01036263)], work=14*
  1: 0x0128 [0x53] WAIT_SCHEDULER_TASK: Wait for scheduler "cr01" with entities [Imutira (ID: 16999011/0x01036263), Imutira (ID: 16999011/0x01036263)]
  2: 0x0135 [0x00] END_REQSTACK()
```

### Event 65535.13

#### Metadata

| Field        | Value    |
|--------------|----------|
| Entrypoint   | 0x0136   |
| Data Size    | 21 bytes |
| Instructions | 2        |

```
      00 01 02 03 04 05 06 07  08 09 0A 0B 0C 0D 0E 0F
      -- -- -- -- -- -- -- --  -- -- -- -- -- -- -- --
0130:                   B6 0B  2B 80 2C 80 2D 80 2E 80        ..+.,.-...
0140: 2E 80 2E 80 2E 80 2D 80  2D 80 00                 ......-.-..     
```

#### Opcodes

```
  0: 0x0136 [0xB6] ENTITY_APPEARANCE_HANDLER(case=Full entity look, race=2*, hair=7*, head=0*, body=135*, hands=135*, legs=135*, feet=135*, main=0*, sub=0*)
  1: 0x014A [0x00] END_REQSTACK()
```

### Event 65535.14

#### Metadata

| Field        | Value    |
|--------------|----------|
| Entrypoint   | 0x014B   |
| Data Size    | 21 bytes |
| Instructions | 2        |

```
      00 01 02 03 04 05 06 07  08 09 0A 0B 0C 0D 0E 0F
      -- -- -- -- -- -- -- --  -- -- -- -- -- -- -- --
0140:                                   B6 0B 2B 80 2C             ..+.,
0150: 80 2F 80 2E 80 2E 80 2E  80 2E 80 2D 80 2D 80 00  ./.........-.-..
```

#### Opcodes

```
  0: 0x014B [0xB6] ENTITY_APPEARANCE_HANDLER(case=Full entity look, race=2*, hair=7*, head=125*, body=135*, hands=135*, legs=135*, feet=135*, main=0*, sub=0*)
  1: 0x015F [0x00] END_REQSTACK()
```
