# 16999053

## Common Data

| Field            | Value                  |
|------------------|------------------------|
| Zone             | Arrapago Reef (ID: 54) |
| Block Size       | 104 bytes              |
| Total Events     | 3                      |
| References Count | 6                      |

## List of Events

| Event ID                 | Entrypoint   |   Size |   Instructions |
|--------------------------|--------------|--------|----------------|
| [65535](#event-65535)    | 0x0000       |      1 |              1 |
| [214](#event-214)        | 0x0001       |      1 |              1 |
| [65535.1](#event-655351) | 0x0002       |     48 |              7 |

## DAT References (imed_data)

|   Index | Hex Value   |   Dec Value |
|---------|-------------|-------------|
|       0 | 0x0000      |           0 |
|       1 | 0x6F9A8     |      457128 |
|       2 | 0xED7B      |       60795 |
|       3 | 0xFFFFDFC7  |  4294959047 |
|       4 | 0x004F      |          79 |
|       5 | 0x0352      |         850 |

## Events

### Event 65535

#### Metadata

| Field        | Value   |
|--------------|---------|
| Entrypoint   | 0x0000  |
| Data Size    | 1 bytes |
| Instructions | 1       |

```
      00 01 02 03 04 05 06 07  08 09 0A 0B 0C 0D 0E 0F
      -- -- -- -- -- -- -- --  -- -- -- -- -- -- -- --
0000: 00                                                .               
```

#### Opcodes

```
  0: 0x0000 [0x00] END_REQSTACK()
```

### Event 214

#### Metadata

| Field        | Value   |
|--------------|---------|
| Entrypoint   | 0x0001  |
| Data Size    | 1 bytes |
| Instructions | 1       |

```
      00 01 02 03 04 05 06 07  08 09 0A 0B 0C 0D 0E 0F
      -- -- -- -- -- -- -- --  -- -- -- -- -- -- -- --
0000:    00                                              .              
```

#### Opcodes

```
  0: 0x0001 [0x00] END_REQSTACK()
```

### Event 65535.1

#### Metadata

| Field        | Value    |
|--------------|----------|
| Entrypoint   | 0x0002   |
| Data Size    | 48 bytes |
| Instructions | 7        |

```
      00 01 02 03 04 05 06 07  08 09 0A 0B 0C 0D 0E 0F
      -- -- -- -- -- -- -- --  -- -- -- -- -- -- -- --
0000:       33 01 95 00 80 37  01 80 02 80 03 80 04 80    3....7........
0010: 80 F8 FF FF 7F 5B 05 80  8D 62 03 01 8D 62 03 01  .....[...b...b..
0020: 70 61 30 31 53 8D 62 03  01 8D 62 03 01 70 61 30  pa01S.b...b..pa0
0030: 31 00                                             1.              
```

#### Opcodes

```
  0: 0x0002 [0x33] EventEntity->Render.Flags0 |= 0x200000 // Bit 21 (flag=0x01)
  1: 0x0004 [0x95] SETUP_EVENT_NPC: Prepare NPC for event (Render.Flags3 = 0*)
  2: 0x0007 [0x37] UPDATE_EVENT_POSITION_AND_DIR: x=457.128*, z=60.795*, y=-8.249*, direction=6.9°*
  3: 0x0010 [0x80] LOAD_WAIT(entity=EventEntity)
  4: 0x0015 [0x5B] LOAD_EXT_SCHEDULER: Load scheduler "pa01" with entities [Unnamed NPC (ID: 16999053/0x0103628D), Unnamed NPC (ID: 16999053/0x0103628D)], work=850*
  5: 0x0024 [0x53] WAIT_SCHEDULER_TASK: Wait for scheduler "pa01" with entities [Unnamed NPC (ID: 16999053/0x0103628D), Unnamed NPC (ID: 16999053/0x0103628D)]
  6: 0x0031 [0x00] END_REQSTACK()
```
