# 16999012 - Yazquhl

## Common Data

| Field            | Value                  |
|------------------|------------------------|
| Zone             | Arrapago Reef (ID: 54) |
| Block Size       | 392 bytes              |
| Total Events     | 14                     |
| References Count | 33                     |

## List of Events

| Event ID                   | Entrypoint   |   Size |   Instructions |
|----------------------------|--------------|--------|----------------|
| [65535](#event-65535)      | 0x0000       |      1 |              1 |
| [233](#event-233)          | 0x0001       |      1 |              1 |
| [65535.1](#event-655351)   | 0x0002       |     10 |              2 |
| [237](#event-237)          | 0x000C       |      1 |              1 |
| [240](#event-240)          | 0x000D       |      1 |              1 |
| [65535.2](#event-655352)   | 0x000E       |     12 |              3 |
| [65535.3](#event-655353)   | 0x001A       |     33 |              8 |
| [65535.4](#event-655354)   | 0x003B       |     12 |              3 |
| [65535.5](#event-655355)   | 0x0047       |     30 |              7 |
| [65535.6](#event-655356)   | 0x0065       |     34 |              4 |
| [65535.7](#event-655357)   | 0x0087       |      4 |              2 |
| [65535.8](#event-655358)   | 0x008B       |     10 |              2 |
| [65535.9](#event-655359)   | 0x0095       |     10 |              2 |
| [65535.10](#event-6553510) | 0x009F       |     29 |              3 |

## DAT References (imed_data)

|   Index | Hex Value   |   Dec Value |
|---------|-------------|-------------|
|       0 | 0xFFFCC595  |  4294755733 |
|       1 | 0x15D86     |       89478 |
|       2 | 0xFFFFD63D  |  4294956605 |
|       3 | 0x00DF      |         223 |
|       4 | 0x049C      |        1180 |
|       5 | 0x645A      |       25690 |
|       6 | 0xFFFF7B31  |  4294933297 |
|       7 | 0x08BE      |        2238 |
|       8 | 0x0003      |           3 |
|       9 | 0xFFFFE4E1  |  4294960353 |
|      10 | 0x8870      |       34928 |
|      11 | 0xFFFF9148  |  4294938952 |
|      12 | 0x042F      |        1071 |
|      13 | 0x0028      |          40 |
|      14 | 0xFFFFE54F  |  4294960463 |
|      15 | 0x6E98      |       28312 |
|      16 | 0xFFFFA168  |  4294943080 |
|      17 | 0xFFFFE820  |  4294961184 |
|      18 | 0x5FF9      |       24569 |
|      19 | 0xFFFFAA10  |  4294945296 |
|      20 | 0x01F4      |         500 |
|      21 | 0x000D      |          13 |
|      22 | 0xFFFFE73D  |  4294960957 |
|      23 | 0x5105      |       20741 |
|      24 | 0xFFFFAA11  |  4294945297 |
|      25 | 0x035E      |         862 |
|      26 | 0x0FA0      |        4000 |
|      27 | 0xFFFFEA9A  |  4294961818 |
|      28 | 0x4ED5      |       20181 |
|      29 | 0x07D0      |        2000 |
|      30 | 0xFFFFEC44  |  4294962244 |
|      31 | 0x47EF      |       18415 |
|      32 | 0x034E      |         846 |

## Events

### Event 65535

#### Metadata

| Field        | Value   |
|--------------|---------|
| Entrypoint   | 0x0000  |
| Data Size    | 1 bytes |
| Instructions | 1       |

```
      00 01 02 03 04 05 06 07  08 09 0A 0B 0C 0D 0E 0F
      -- -- -- -- -- -- -- --  -- -- -- -- -- -- -- --
0000: 00                                                .               
```

#### Opcodes

```
  0: 0x0000 [0x00] END_REQSTACK()
```

### Event 233

#### Metadata

| Field        | Value   |
|--------------|---------|
| Entrypoint   | 0x0001  |
| Data Size    | 1 bytes |
| Instructions | 1       |

```
      00 01 02 03 04 05 06 07  08 09 0A 0B 0C 0D 0E 0F
      -- -- -- -- -- -- -- --  -- -- -- -- -- -- -- --
0000:    00                                              .              
```

#### Opcodes

```
  0: 0x0001 [0x00] END_REQSTACK()
```

### Event 65535.1

#### Metadata

| Field        | Value    |
|--------------|----------|
| Entrypoint   | 0x0002   |
| Data Size    | 10 bytes |
| Instructions | 2        |

```
      00 01 02 03 04 05 06 07  08 09 0A 0B 0C 0D 0E 0F
      -- -- -- -- -- -- -- --  -- -- -- -- -- -- -- --
0000:       37 00 80 01 80 02  80 03 80 00                7.........    
```

#### Opcodes

```
  0: 0x0002 [0x37] UPDATE_EVENT_POSITION_AND_DIR: x=-211.563*, z=89.478*, y=-10.691*, direction=19.6°*
  1: 0x000B [0x00] END_REQSTACK()
```

### Event 237

#### Metadata

| Field        | Value   |
|--------------|---------|
| Entrypoint   | 0x000C  |
| Data Size    | 1 bytes |
| Instructions | 1       |

```
      00 01 02 03 04 05 06 07  08 09 0A 0B 0C 0D 0E 0F
      -- -- -- -- -- -- -- --  -- -- -- -- -- -- -- --
0000:                                      00                       .   
```

#### Opcodes

```
  0: 0x000C [0x00] END_REQSTACK()
```

### Event 240

#### Metadata

| Field        | Value   |
|--------------|---------|
| Entrypoint   | 0x000D  |
| Data Size    | 1 bytes |
| Instructions | 1       |

```
      00 01 02 03 04 05 06 07  08 09 0A 0B 0C 0D 0E 0F
      -- -- -- -- -- -- -- --  -- -- -- -- -- -- -- --
0000:                                         00                     .  
```

#### Opcodes

```
  0: 0x000D [0x00] END_REQSTACK()
```

### Event 65535.2

#### Metadata

| Field        | Value    |
|--------------|----------|
| Entrypoint   | 0x000E   |
| Data Size    | 12 bytes |
| Instructions | 3        |

```
      00 01 02 03 04 05 06 07  08 09 0A 0B 0C 0D 0E 0F
      -- -- -- -- -- -- -- --  -- -- -- -- -- -- -- --
0000:                                            33 01                3.
0010: 37 04 80 05 80 06 80 07  80 00                    7.........      
```

#### Opcodes

```
  0: 0x000E [0x33] EventEntity->Render.Flags0 |= 0x200000 // Bit 21 (flag=0x01)
  1: 0x0010 [0x37] UPDATE_EVENT_POSITION_AND_DIR: x=1.180*, z=25.690*, y=-33.999*, direction=196.7°*
  2: 0x0019 [0x00] END_REQSTACK()
```

### Event 65535.3

#### Metadata

| Field        | Value    |
|--------------|----------|
| Entrypoint   | 0x001A   |
| Data Size    | 33 bytes |
| Instructions | 8        |

```
      00 01 02 03 04 05 06 07  08 09 0A 0B 0C 0D 0E 0F
      -- -- -- -- -- -- -- --  -- -- -- -- -- -- -- --
0010:                                33 00 1C 08 80 37            3....7
0020: 09 80 0A 80 0B 80 0C 80  1E 61 62 03 01 32 0D 80  .........ab..2..
0030: 5A 00 0E 80 0F 80 10 80  5A 01 00                 Z.......Z..     
```

#### Opcodes

```
  0: 0x001A [0x33] EventEntity->Render.Flags0 &= ~ 0x200000 // Bit 21 (flag=0x00)
  1: 0x001C [0x1C] WAIT(3* ticks)
  2: 0x001F [0x37] UPDATE_EVENT_POSITION_AND_DIR: x=-6.943*, z=34.928*, y=-28.344*, direction=94.1°*
  3: 0x0028 [0x1E] EventEntity looks at Qultada (ID: 16999009/0x01036261) and starts talking
  4: 0x002D [0x32] ExtData[1]->MainSpeed = 40* * 0.1
  5: 0x0030 [0x5A] UPDATE_EVENT_POSITION: Set EventEntity MovePosition to X=-6.833*, Z=28.312*, Y=-24.216*
  6: 0x0038 [0x5A] UPDATE_EVENT_POSITION: Move EventEntity incrementally towards MovePosition
  7: 0x003A [0x00] END_REQSTACK()
```

### Event 65535.4

#### Metadata

| Field        | Value    |
|--------------|----------|
| Entrypoint   | 0x003B   |
| Data Size    | 12 bytes |
| Instructions | 3        |

```
      00 01 02 03 04 05 06 07  08 09 0A 0B 0C 0D 0E 0F
      -- -- -- -- -- -- -- --  -- -- -- -- -- -- -- --
0030:                                   33 00 37 11 80             3.7..
0040: 12 80 13 80 14 80 00                              .......         
```

#### Opcodes

```
  0: 0x003B [0x33] EventEntity->Render.Flags0 &= ~ 0x200000 // Bit 21 (flag=0x00)
  1: 0x003D [0x37] UPDATE_EVENT_POSITION_AND_DIR: x=-6.112*, z=24.569*, y=-22.000*, direction=43.9°*
  2: 0x0046 [0x00] END_REQSTACK()
```

### Event 65535.5

#### Metadata

| Field        | Value    |
|--------------|----------|
| Entrypoint   | 0x0047   |
| Data Size    | 30 bytes |
| Instructions | 7        |

```
      00 01 02 03 04 05 06 07  08 09 0A 0B 0C 0D 0E 0F
      -- -- -- -- -- -- -- --  -- -- -- -- -- -- -- --
0040:                      33  00 1E 61 62 03 01 37 11         3..ab..7.
0050: 80 12 80 13 80 14 80 32  15 80 1F 00 16 80 17 80  .......2........
0060: 18 80 1F 01 00                                    .....           
```

#### Opcodes

```
  0: 0x0047 [0x33] EventEntity->Render.Flags0 &= ~ 0x200000 // Bit 21 (flag=0x00)
  1: 0x0049 [0x1E] EventEntity looks at Qultada (ID: 16999009/0x01036261) and starts talking
  2: 0x004E [0x37] UPDATE_EVENT_POSITION_AND_DIR: x=-6.112*, z=24.569*, y=-22.000*, direction=43.9°*
  3: 0x0057 [0x32] ExtData[1]->MainSpeed = 13* * 0.1
  4: 0x005A [0x1F] MOVE_ENTITY: EventEntity moves to X=-6.339*, Z=20.741*, Y=-21.999*
  5: 0x0062 [0x1F] MOVE_ENTITY: Update entity position (mode=1)
  6: 0x0064 [0x00] END_REQSTACK()
```

### Event 65535.6

#### Metadata

| Field        | Value    |
|--------------|----------|
| Entrypoint   | 0x0065   |
| Data Size    | 34 bytes |
| Instructions | 4        |

```
      00 01 02 03 04 05 06 07  08 09 0A 0B 0C 0D 0E 0F
      -- -- -- -- -- -- -- --  -- -- -- -- -- -- -- --
0060:                7B 64 62  03 01 5B 19 80 64 62 03       {db..[..db.
0070: 01 64 62 03 01 63 72 30  30 53 64 62 03 01 64 62  .db..cr00Sdb..db
0080: 03 01 63 72 30 30 00                              ..cr00.         
```

#### Opcodes

```
  0: 0x0065 [0x7B] Yazquhl (ID: 16999012/0x01036264) stops talking
  1: 0x006A [0x5B] LOAD_EXT_SCHEDULER: Load scheduler "cr00" with entities [Yazquhl (ID: 16999012/0x01036264), Yazquhl (ID: 16999012/0x01036264)], work=862*
  2: 0x0079 [0x53] WAIT_SCHEDULER_TASK: Wait for scheduler "cr00" with entities [Yazquhl (ID: 16999012/0x01036264), Yazquhl (ID: 16999012/0x01036264)]
  3: 0x0086 [0x00] END_REQSTACK()
```

### Event 65535.7

#### Metadata

| Field        | Value   |
|--------------|---------|
| Entrypoint   | 0x0087  |
| Data Size    | 4 bytes |
| Instructions | 2       |

```
      00 01 02 03 04 05 06 07  08 09 0A 0B 0C 0D 0E 0F
      -- -- -- -- -- -- -- --  -- -- -- -- -- -- -- --
0080:                      39  1A 80 00                        9...     
```

#### Opcodes

```
  0: 0x0087 [0x39] SET_ENTITY_DIRECTION(direction=22.0°*)
  1: 0x008A [0x00] END_REQSTACK()
```

### Event 65535.8

#### Metadata

| Field        | Value    |
|--------------|----------|
| Entrypoint   | 0x008B   |
| Data Size    | 10 bytes |
| Instructions | 2        |

```
      00 01 02 03 04 05 06 07  08 09 0A 0B 0C 0D 0E 0F
      -- -- -- -- -- -- -- --  -- -- -- -- -- -- -- --
0080:                                   37 1B 80 1C 80             7....
0090: 18 80 1D 80 00                                    .....           
```

#### Opcodes

```
  0: 0x008B [0x37] UPDATE_EVENT_POSITION_AND_DIR: x=-5.478*, z=20.181*, y=-21.999*, direction=175.8°*
  1: 0x0094 [0x00] END_REQSTACK()
```

### Event 65535.9

#### Metadata

| Field        | Value    |
|--------------|----------|
| Entrypoint   | 0x0095   |
| Data Size    | 10 bytes |
| Instructions | 2        |

```
      00 01 02 03 04 05 06 07  08 09 0A 0B 0C 0D 0E 0F
      -- -- -- -- -- -- -- --  -- -- -- -- -- -- -- --
0090:                37 1E 80  1F 80 18 80 1D 80 00          7......... 
```

#### Opcodes

```
  0: 0x0095 [0x37] UPDATE_EVENT_POSITION_AND_DIR: x=-5.052*, z=18.415*, y=-21.999*, direction=175.8°*
  1: 0x009E [0x00] END_REQSTACK()
```

### Event 65535.10

#### Metadata

| Field        | Value    |
|--------------|----------|
| Entrypoint   | 0x009F   |
| Data Size    | 29 bytes |
| Instructions | 3        |

```
      00 01 02 03 04 05 06 07  08 09 0A 0B 0C 0D 0E 0F
      -- -- -- -- -- -- -- --  -- -- -- -- -- -- -- --
0090:                                               5B                 [
00A0: 20 80 64 62 03 01 64 62  03 01 63 72 30 32 53 64   .db..db..cr02Sd
00B0: 62 03 01 64 62 03 01 63  72 30 32 00              b..db..cr02.    
```

#### Opcodes

```
  0: 0x009F [0x5B] LOAD_EXT_SCHEDULER: Load scheduler "cr02" with entities [Yazquhl (ID: 16999012/0x01036264), Yazquhl (ID: 16999012/0x01036264)], work=846*
  1: 0x00AE [0x53] WAIT_SCHEDULER_TASK: Wait for scheduler "cr02" with entities [Yazquhl (ID: 16999012/0x01036264), Yazquhl (ID: 16999012/0x01036264)]
  2: 0x00BB [0x00] END_REQSTACK()
```
