# 0x7FFFFFF0 - Zone Events

## Common Data

| Field            | Value                  |
|------------------|------------------------|
| Zone             | Arrapago Reef (ID: 54) |
| Block Size       | 29200 bytes            |
| Total Events     | 84                     |
| References Count | 710                    |

## List of Events

| Event ID                   | Entrypoint   |   Size |   Instructions |
|----------------------------|--------------|--------|----------------|
| [65535](#event-65535)      | 0x0000       |      1 |              1 |
| [65534](#event-65534)      | 0x0001       |      1 |              1 |
| [222](#event-222)          | 0x0002       |     46 |              8 |
| [90](#event-90)            | 0x0030       |     41 |              5 |
| [100](#event-100)          | 0x0059       |     10 |              2 |
| [101](#event-101)          | 0x0063       |     14 |              4 |
| [102](#event-102)          | 0x0071       |     13 |              3 |
| [103](#event-103)          | 0x007E       |     10 |              2 |
| [104](#event-104)          | 0x0088       |     14 |              4 |
| [105](#event-105)          | 0x0096       |     13 |              3 |
| [65535.1](#event-655351)   | 0x00A3       |     10 |              2 |
| [200](#event-200)          | 0x00AD       |     10 |              2 |
| [201](#event-201)          | 0x00B7       |     14 |              4 |
| [202](#event-202)          | 0x00C5       |     13 |              3 |
| [203](#event-203)          | 0x00D2       |     10 |              2 |
| [204](#event-204)          | 0x00DC       |     14 |              4 |
| [205](#event-205)          | 0x00EA       |     13 |              3 |
| [225](#event-225)          | 0x00F7       |     10 |              2 |
| [226](#event-226)          | 0x0101       |     14 |              4 |
| [227](#event-227)          | 0x010F       |     13 |              3 |
| [65535.2](#event-655352)   | 0x011C       |      6 |              2 |
| [65535.3](#event-655353)   | 0x0122       |      6 |              2 |
| [65535.4](#event-655354)   | 0x0128       |      7 |              3 |
| [65535.5](#event-655355)   | 0x012F       |      7 |              3 |
| [208](#event-208)          | 0x0136       |    719 |             85 |
| [209](#event-209)          | 0x0405       |      6 |              4 |
| [210](#event-210)          | 0x040B       |      6 |              4 |
| [32000](#event-32000)      | 0x0411       |   1769 |            333 |
| [32002](#event-32002)      | 0x0AFA       |    183 |             29 |
| [32001](#event-32001)      | 0x0BB1       |    515 |             84 |
| [32003](#event-32003)      | 0x0DB4       |    435 |             77 |
| [32004](#event-32004)      | 0x0F67       |    854 |            141 |
| [211](#event-211)          | 0x12BD       |   2644 |            358 |
| [65535.6](#event-655356)   | 0x1D11       |     14 |              4 |
| [65535.7](#event-655357)   | 0x1D1F       |     14 |              4 |
| [65535.8](#event-655358)   | 0x1D2D       |     22 |              4 |
| [65535.9](#event-655359)   | 0x1D43       |     10 |              2 |
| [65535.10](#event-6553510) | 0x1D4D       |     10 |              2 |
| [65535.11](#event-6553511) | 0x1D57       |     10 |              2 |
| [65535.12](#event-6553512) | 0x1D61       |     10 |              2 |
| [65535.13](#event-6553513) | 0x1D6B       |     10 |              2 |
| [65535.14](#event-6553514) | 0x1D75       |     10 |              2 |
| [65535.15](#event-6553515) | 0x1D7F       |     20 |              6 |
| [65535.16](#event-6553516) | 0x1D93       |     37 |              5 |
| [65535.17](#event-6553517) | 0x1DB8       |    185 |             37 |
| [212](#event-212)          | 0x1E71       |    651 |             85 |
| [213](#event-213)          | 0x20FC       |   1300 |            174 |
| [228](#event-228)          | 0x2610       |   2292 |            319 |
| [65535.18](#event-6553518) | 0x2F04       |     23 |              5 |
| [231](#event-231)          | 0x2F1B       |    513 |             77 |
| [65535.19](#event-6553519) | 0x311C       |     19 |              5 |
| [232](#event-232)          | 0x312F       |    800 |            119 |
| [233](#event-233)          | 0x344F       |   4747 |            655 |
| [65535.20](#event-6553520) | 0x46DA       |     26 |              6 |
| [65535.21](#event-6553521) | 0x46F4       |     36 |              8 |
| [234](#event-234)          | 0x4718       |    446 |             62 |
| [65535.22](#event-6553522) | 0x48D6       |     19 |              5 |
| [235](#event-235)          | 0x48E9       |    515 |             70 |
| [237](#event-237)          | 0x4AEC       |   1712 |            223 |
| [240](#event-240)          | 0x519C       |   2136 |            297 |
| [238](#event-238)          | 0x59F4       |   2536 |            342 |
| [65535.23](#event-6553523) | 0x63DC       |      6 |              2 |
| [65535.24](#event-6553524) | 0x63E2       |     24 |              4 |
| [65535.25](#event-6553525) | 0x63FA       |     24 |              4 |
| [65535.26](#event-6553526) | 0x6412       |     42 |              6 |
| [65535.27](#event-6553527) | 0x643C       |     27 |              5 |
| [65535.28](#event-6553528) | 0x6457       |     21 |              7 |
| [65535.29](#event-6553529) | 0x646C       |     32 |             10 |
| [65535.30](#event-6553530) | 0x648C       |     15 |              5 |
| [65535.31](#event-6553531) | 0x649B       |     22 |              8 |
| [65535.32](#event-6553532) | 0x64B1       |     15 |              5 |
| [65535.33](#event-6553533) | 0x64C0       |     15 |              5 |
| [65535.34](#event-6553534) | 0x64CF       |     15 |              5 |
| [65535.35](#event-6553535) | 0x64DE       |     15 |              5 |
| [65535.36](#event-6553536) | 0x64ED       |     15 |              5 |
| [65535.37](#event-6553537) | 0x64FC       |     15 |              5 |
| [65535.38](#event-6553538) | 0x650B       |     15 |              5 |
| [65535.39](#event-6553539) | 0x651A       |     15 |              5 |
| [65535.40](#event-6553540) | 0x6529       |     22 |              8 |
| [65535.41](#event-6553541) | 0x653F       |     15 |              5 |
| [65535.42](#event-6553542) | 0x654E       |     22 |              8 |
| [65535.43](#event-6553543) | 0x6564       |     15 |              5 |
| [65535.44](#event-6553544) | 0x6573       |     22 |              8 |
| [65535.45](#event-6553545) | 0x6589       |     15 |              5 |

## DAT References (imed_data)

|   Index | Hex Value   |   Dec Value |
|---------|-------------|-------------|
|       0 | 0x211F      |        8479 |
|       1 | 0x00C9      |         201 |
|       2 | 0x0000      |           0 |
|       3 | 0x008C      |         140 |
|       4 | 0x00C8      |         200 |
|       5 | 0x003C      |          60 |
|       6 | 0x141A      |        5146 |
|       7 | 0x8D99F     |      579999 |
|       8 | 0xFFFFE108  |  4294959368 |
|       9 | 0x1000      |        4096 |
|      10 | 0x000D      |          13 |
|      11 | 0x2974      |       10612 |
|      12 | 0x8D9B0     |      580016 |
|      13 | 0xFFFFE14C  |  4294959436 |
|      14 | 0x0800      |        2048 |
|      15 | 0x3EA4      |       16036 |
|      16 | 0x9951D     |      627997 |
|      17 | 0xFFFFE3AE  |  4294960046 |
|      18 | 0x222E0     |      140000 |
|      19 | 0x130AF     |       77999 |
|      20 | 0xFFFFE0AE  |  4294959278 |
|      21 | 0x0400      |        1024 |
|      22 | 0x11F7D     |       73597 |
|      23 | 0xFFFFE102  |  4294959362 |
|      24 | 0x0C00      |        3072 |
|      25 | 0xFFFF15BD  |  4294907325 |
|      26 | 0xFFFA7793  |  4294604691 |
|      27 | 0xFFFFE1A9  |  4294959529 |
|      28 | 0xFFFF1565  |  4294907237 |
|      29 | 0xFFFA92D4  |  4294611668 |
|      30 | 0xFFFFE1B5  |  4294959541 |
|      31 | 0x0001      |           1 |
|      32 | 0x1F56      |        8022 |
|      33 | 0x001B      |          27 |
|      34 | 0x00FD      |         253 |
|      35 | 0x1F57      |        8023 |
|      36 | 0x1F58      |        8024 |
|      37 | 0x1F59      |        8025 |
|      38 | 0x1F5A      |        8026 |
|      39 | 0x0078      |         120 |
|      40 | 0x00FE      |         254 |
|      41 | 0x1F5B      |        8027 |
|      42 | 0x0002      |           2 |
|      43 | 0x1F5C      |        8028 |
|      44 | 0x0003      |           3 |
|      45 | 0x1F5D      |        8029 |
|      46 | 0x1F5E      |        8030 |
|      47 | 0x1F5F      |        8031 |
|      48 | 0x000F      |          15 |
|      49 | 0x0010      |          16 |
|      50 | 0x001F      |          31 |
|      51 | 0xFFFFFFFF  |  4294967295 |
|      52 | 0x1F48      |        8008 |
|      53 | 0x1D7D      |        7549 |
|      54 | 0x00FF      |         255 |
|      55 | 0x0013      |          19 |
|      56 | 0x0004      |           4 |
|      57 | 0x0008      |           8 |
|      58 | 0xFFFF15A0  |  4294907296 |
|      59 | 0xFFFAB0A0  |  4294619296 |
|      60 | 0xFFFFE1BA  |  4294959546 |
|      61 | 0x1D88      |        7560 |
|      62 | 0x0005      |           5 |
|      63 | 0x1DAF      |        7599 |
|      64 | 0x0006      |           6 |
|      65 | 0x0007      |           7 |
|      66 | 0x0009      |           9 |
|      67 | 0x000A      |          10 |
|      68 | 0x000B      |          11 |
|      69 | 0x000C      |          12 |
|      70 | 0x000E      |          14 |
|      71 | 0x0011      |          17 |
|      72 | 0x0012      |          18 |
|      73 | 0x0014      |          20 |
|      74 | 0x0015      |          21 |
|      75 | 0x0016      |          22 |
|      76 | 0x0017      |          23 |
|      77 | 0x0018      |          24 |
|      78 | 0x0019      |          25 |
|      79 | 0x001A      |          26 |
|      80 | 0x001C      |          28 |
|      81 | 0x001D      |          29 |
|      82 | 0x001E      |          30 |
|      83 | 0x1EE4      |        7908 |
|      84 | 0x0064      |         100 |
|      85 | 0x1ED0      |        7888 |
|      86 | 0x008F      |         143 |
|      87 | 0x1D80      |        7552 |
|      88 | 0x0096      |         150 |
|      89 | 0xFFFA33A0  |  4294587296 |
|      90 | 0xFFFFE0C0  |  4294959296 |
|      91 | 0x03E7      |         999 |
|      92 | 0x00B4      |         180 |
|      93 | 0x012C      |         300 |
|      94 | 0x0080      |         128 |
|      95 | 0xFFF6C42B  |  4294362155 |
|      96 | 0x752B9     |      479929 |
|      97 | 0xFFFFA767  |  4294944615 |
|      98 | 0x03E0      |         992 |
|      99 | 0xFFFBFE43  |  4294704707 |
|     100 | 0x5C401     |      377857 |
|     101 | 0xFFFDE79F  |  4294829983 |
|     102 | 0x0D92      |        3474 |
|     103 | 0x47AC      |       18348 |
|     104 | 0x76E1C     |      486940 |
|     105 | 0xFFFC93B2  |  4294742962 |
|     106 | 0x00C2      |         194 |
|     107 | 0x388A9     |      231593 |
|     108 | 0x57E9E     |      360094 |
|     109 | 0xFFFD59FC  |  4294793724 |
|     110 | 0x0726      |        1830 |
|     111 | 0x872C0     |      553664 |
|     112 | 0x7FEA3     |      523939 |
|     113 | 0xFFFF6AC3  |  4294929091 |
|     114 | 0x0A65      |        2661 |
|     115 | 0xFFF2A593  |  4294092179 |
|     116 | 0xFFFF548C  |  4294923404 |
|     117 | 0xFFFF442C  |  4294919212 |
|     118 | 0x0201      |         513 |
|     119 | 0xFFF478D5  |  4294211797 |
|     120 | 0x89AEB     |      563947 |
|     121 | 0xFFFE4A5D  |  4294855261 |
|     122 | 0x0DEF      |        3567 |
|     123 | 0x1E173     |      123251 |
|     124 | 0xB8221     |      754209 |
|     125 | 0xFFFD5FA4  |  4294795172 |
|     126 | 0x01B8      |         440 |
|     127 | 0xFFF81ECC  |  4294450892 |
|     128 | 0xFFF3BE05  |  4294163973 |
|     129 | 0x5E8E      |       24206 |
|     130 | 0x01B5      |         437 |
|     131 | 0x00D9      |         217 |
|     132 | 0x1F4A      |        8010 |
|     133 | 0x005A      |          90 |
|     134 | 0x0323      |         803 |
|     135 | 0x0324      |         804 |
|     136 | 0x1F4B      |        8011 |
|     137 | 0x006C      |         108 |
|     138 | 0x0073      |         115 |
|     139 | 0x008B      |         139 |
|     140 | 0x1D7E      |        7550 |
|     141 | 0xFFFA9354  |  4294611796 |
|     142 | 0xFFFFDFF8  |  4294959096 |
|     143 | 0x0109      |         265 |
|     144 | 0x0190      |         400 |
|     145 | 0x6D8BA     |      448698 |
|     146 | 0x1D8FC     |      121084 |
|     147 | 0xFFFFE3DF  |  4294960095 |
|     148 | 0x0377      |         887 |
|     149 | 0x1F73      |        8051 |
|     150 | 0x1F74      |        8052 |
|     151 | 0x1F75      |        8053 |
|     152 | 0x1F76      |        8054 |
|     153 | 0x1F77      |        8055 |
|     154 | 0x1F78      |        8056 |
|     155 | 0x1F79      |        8057 |
|     156 | 0x1F7A      |        8058 |
|     157 | 0x1F7B      |        8059 |
|     158 | 0x1F7C      |        8060 |
|     159 | 0x1F7D      |        8061 |
|     160 | 0x1F7E      |        8062 |
|     161 | 0x00AC      |         172 |
|     162 | 0x1F80      |        8064 |
|     163 | 0x004D      |          77 |
|     164 | 0x1F82      |        8066 |
|     165 | 0x1F83      |        8067 |
|     166 | 0x1F84      |        8068 |
|     167 | 0x1F85      |        8069 |
|     168 | 0x002D      |          45 |
|     169 | 0x1F86      |        8070 |
|     170 | 0x1F87      |        8071 |
|     171 | 0x6CC4D     |      445517 |
|     172 | 0x1B7C3     |      112579 |
|     173 | 0xFFFFE4A8  |  4294960296 |
|     174 | 0x1F88      |        8072 |
|     175 | 0x0020      |          32 |
|     176 | 0x1F89      |        8073 |
|     177 | 0x1F8A      |        8074 |
|     178 | 0x1F8B      |        8075 |
|     179 | 0x6C8FD     |      444669 |
|     180 | 0x1B6D3     |      112339 |
|     181 | 0x0F68      |        3944 |
|     182 | 0x1F8C      |        8076 |
|     183 | 0x1F8D      |        8077 |
|     184 | 0x0045      |          69 |
|     185 | 0x1F8E      |        8078 |
|     186 | 0x1F8F      |        8079 |
|     187 | 0x1F90      |        8080 |
|     188 | 0x1F91      |        8081 |
|     189 | 0x1F92      |        8082 |
|     190 | 0x1F93      |        8083 |
|     191 | 0x6C5DF     |      443871 |
|     192 | 0x1B84B     |      112715 |
|     193 | 0x059F      |        1439 |
|     194 | 0x1F94      |        8084 |
|     195 | 0x1F95      |        8085 |
|     196 | 0x0063      |          99 |
|     197 | 0x1F96      |        8086 |
|     198 | 0x1F97      |        8087 |
|     199 | 0x1F98      |        8088 |
|     200 | 0x1F99      |        8089 |
|     201 | 0x1F9A      |        8090 |
|     202 | 0x1F9B      |        8091 |
|     203 | 0x1F9C      |        8092 |
|     204 | 0x1F9D      |        8093 |
|     205 | 0x1F9E      |        8094 |
|     206 | 0x1F9F      |        8095 |
|     207 | 0x1FA0      |        8096 |
|     208 | 0x1FA1      |        8097 |
|     209 | 0x1FA2      |        8098 |
|     210 | 0x6DA2C     |      449068 |
|     211 | 0x1B74E     |      112462 |
|     212 | 0x1FA3      |        8099 |
|     213 | 0x1FA4      |        8100 |
|     214 | 0x1FA5      |        8101 |
|     215 | 0x1FA6      |        8102 |
|     216 | 0x1FA7      |        8103 |
|     217 | 0x1FA8      |        8104 |
|     218 | 0x1FA9      |        8105 |
|     219 | 0x1FAA      |        8106 |
|     220 | 0x1FAB      |        8107 |
|     221 | 0x1FAC      |        8108 |
|     222 | 0x6DBDD     |      449501 |
|     223 | 0x1BCDB     |      113883 |
|     224 | 0x6D086     |      446598 |
|     225 | 0x1BAD0     |      113360 |
|     226 | 0x53DF      |       21471 |
|     227 | 0x8C835     |      575541 |
|     228 | 0xFFFFE154  |  4294959444 |
|     229 | 0x02E1      |         737 |
|     230 | 0xFFF8FF1D  |  4294508317 |
|     231 | 0xFFF9F3D3  |  4294570963 |
|     232 | 0xFFFFF830  |  4294965296 |
|     233 | 0x09DD      |        2525 |
|     234 | 0x00CF      |         207 |
|     235 | 0x4EC0      |       20160 |
|     236 | 0xFFFFAA11  |  4294945297 |
|     237 | 0x04D7      |        1239 |
|     238 | 0xFFF90935  |  4294510901 |
|     239 | 0xFFF9CD2C  |  4294561068 |
|     240 | 0xFFFFF448  |  4294964296 |
|     241 | 0x0734      |        1844 |
|     242 | 0xFFFFF5C0  |  4294964672 |
|     243 | 0x4859      |       18521 |
|     244 | 0x0156      |         342 |
|     245 | 0xFFF900CD  |  4294508749 |
|     246 | 0xFFF9D506  |  4294563078 |
|     247 | 0x0A53      |        2643 |
|     248 | 0xFFF903CD  |  4294509517 |
|     249 | 0xFFF9D356  |  4294562646 |
|     250 | 0x0046      |          70 |
|     251 | 0x00D2      |         210 |
|     252 | 0x49423     |      300067 |
|     253 | 0x28761     |      165729 |
|     254 | 0xFFFFEBA0  |  4294962080 |
|     255 | 0x0114      |         276 |
|     256 | 0x0316      |         790 |
|     257 | 0x010B      |         267 |
|     258 | 0x49F09     |      302857 |
|     259 | 0x28A7A     |      166522 |
|     260 | 0xFFFFEF88  |  4294963080 |
|     261 | 0x0027      |          39 |
|     262 | 0x20C3      |        8387 |
|     263 | 0x20C5      |        8389 |
|     264 | 0x20C4      |        8388 |
|     265 | 0x20C6      |        8390 |
|     266 | 0x20C7      |        8391 |
|     267 | 0x0050      |          80 |
|     268 | 0x20C8      |        8392 |
|     269 | 0x20C9      |        8393 |
|     270 | 0x20CA      |        8394 |
|     271 | 0x20CB      |        8395 |
|     272 | 0x4B065     |      307301 |
|     273 | 0x29414     |      168980 |
|     274 | 0xFFFFF199  |  4294963609 |
|     275 | 0x20CC      |        8396 |
|     276 | 0x20CD      |        8397 |
|     277 | 0x4B7EB     |      309227 |
|     278 | 0x290F5     |      168181 |
|     279 | 0xFFFFF214  |  4294963732 |
|     280 | 0x20CF      |        8399 |
|     281 | 0x20D0      |        8400 |
|     282 | 0x20D1      |        8401 |
|     283 | 0x20D2      |        8402 |
|     284 | 0x20D3      |        8403 |
|     285 | 0x0095      |         149 |
|     286 | 0x20D4      |        8404 |
|     287 | 0x20D5      |        8405 |
|     288 | 0x20D6      |        8406 |
|     289 | 0x20D7      |        8407 |
|     290 | 0x20D8      |        8408 |
|     291 | 0x20D9      |        8409 |
|     292 | 0x20DA      |        8410 |
|     293 | 0x20DB      |        8411 |
|     294 | 0x20DC      |        8412 |
|     295 | 0x20DD      |        8413 |
|     296 | 0x20DE      |        8414 |
|     297 | 0x20DF      |        8415 |
|     298 | 0x20E0      |        8416 |
|     299 | 0x20E1      |        8417 |
|     300 | 0x20E2      |        8418 |
|     301 | 0x20E3      |        8419 |
|     302 | 0x20E4      |        8420 |
|     303 | 0x20E5      |        8421 |
|     304 | 0x20E6      |        8422 |
|     305 | 0x20E7      |        8423 |
|     306 | 0x20EA      |        8426 |
|     307 | 0x20EB      |        8427 |
|     308 | 0x20EC      |        8428 |
|     309 | 0x0351      |         849 |
|     310 | 0x011B      |         283 |
|     311 | 0x1FAD      |        8109 |
|     312 | 0x1FAE      |        8110 |
|     313 | 0x1FAF      |        8111 |
|     314 | 0x1FB0      |        8112 |
|     315 | 0x1FB1      |        8113 |
|     316 | 0x0026      |          38 |
|     317 | 0x1FB2      |        8114 |
|     318 | 0x1FB3      |        8115 |
|     319 | 0x1FB4      |        8116 |
|     320 | 0x1FB5      |        8117 |
|     321 | 0x1FB6      |        8118 |
|     322 | 0x1FB7      |        8119 |
|     323 | 0x1FB8      |        8120 |
|     324 | 0x1FB9      |        8121 |
|     325 | 0x1FBA      |        8122 |
|     326 | 0x1FBB      |        8123 |
|     327 | 0x1FBC      |        8124 |
|     328 | 0x1FBD      |        8125 |
|     329 | 0x1FBE      |        8126 |
|     330 | 0x0024      |          36 |
|     331 | 0x1FBF      |        8127 |
|     332 | 0x1FC0      |        8128 |
|     333 | 0x1FC1      |        8129 |
|     334 | 0x1FC2      |        8130 |
|     335 | 0x6DF97     |      450455 |
|     336 | 0x1BAD3     |      113363 |
|     337 | 0x05FB      |        1531 |
|     338 | 0x1FC3      |        8131 |
|     339 | 0x1FC4      |        8132 |
|     340 | 0x1FC5      |        8133 |
|     341 | 0x1FC6      |        8134 |
|     342 | 0x1FC7      |        8135 |
|     343 | 0x1FC8      |        8136 |
|     344 | 0x1FC9      |        8137 |
|     345 | 0x1FCA      |        8138 |
|     346 | 0x1FCB      |        8139 |
|     347 | 0x1FCC      |        8140 |
|     348 | 0x1FCD      |        8141 |
|     349 | 0x1FCE      |        8142 |
|     350 | 0x1FCF      |        8143 |
|     351 | 0x1FD0      |        8144 |
|     352 | 0x1FD2      |        8146 |
|     353 | 0x1FD3      |        8147 |
|     354 | 0x1FD4      |        8148 |
|     355 | 0x1FD1      |        8145 |
|     356 | 0x1FD5      |        8149 |
|     357 | 0x0028      |          40 |
|     358 | 0x6CF40     |      446272 |
|     359 | 0x1BE7D     |      114301 |
|     360 | 0x1FD6      |        8150 |
|     361 | 0x1FD7      |        8151 |
|     362 | 0x1FD8      |        8152 |
|     363 | 0x1FD9      |        8153 |
|     364 | 0x1FDA      |        8154 |
|     365 | 0x6DEF3     |      450291 |
|     366 | 0x1DDD7     |      122327 |
|     367 | 0xFFFFE3C7  |  4294960071 |
|     368 | 0x02F1      |         753 |
|     369 | 0x6E10D     |      450829 |
|     370 | 0x1B662     |      112226 |
|     371 | 0xFFFFE4A9  |  4294960297 |
|     372 | 0x6DF0F     |      450319 |
|     373 | 0x1CF8F     |      118671 |
|     374 | 0xFFFFE3AB  |  4294960043 |
|     375 | 0x06CC      |        1740 |
|     376 | 0x1FDB      |        8155 |
|     377 | 0x1FDC      |        8156 |
|     378 | 0x1FDD      |        8157 |
|     379 | 0x1FDE      |        8158 |
|     380 | 0x1FDF      |        8159 |
|     381 | 0x1FE1      |        8161 |
|     382 | 0x1FE0      |        8160 |
|     383 | 0x1FE2      |        8162 |
|     384 | 0x1FE3      |        8163 |
|     385 | 0x1FE4      |        8164 |
|     386 | 0x1FE5      |        8165 |
|     387 | 0x6C6C7     |      444103 |
|     388 | 0x1B894     |      112788 |
|     389 | 0x6DC5C     |      449628 |
|     390 | 0x1D798     |      120728 |
|     391 | 0xFFFFE3F1  |  4294960113 |
|     392 | 0x06CA      |        1738 |
|     393 | 0x0925      |        2341 |
|     394 | 0x6D7B3     |      448435 |
|     395 | 0x1B521     |      111905 |
|     396 | 0x1FE6      |        8166 |
|     397 | 0x1FE7      |        8167 |
|     398 | 0x1FE8      |        8168 |
|     399 | 0x1FE9      |        8169 |
|     400 | 0x1FEA      |        8170 |
|     401 | 0x1FEB      |        8171 |
|     402 | 0x1FEC      |        8172 |
|     403 | 0x1FED      |        8173 |
|     404 | 0x1FEE      |        8174 |
|     405 | 0x1FEF      |        8175 |
|     406 | 0x1FF0      |        8176 |
|     407 | 0x1FF1      |        8177 |
|     408 | 0x1FF2      |        8178 |
|     409 | 0x1FF3      |        8179 |
|     410 | 0x1FF5      |        8181 |
|     411 | 0x1FF6      |        8182 |
|     412 | 0x1FF7      |        8183 |
|     413 | 0x1FF9      |        8185 |
|     414 | 0x6DB31     |      449329 |
|     415 | 0x1A905     |      108805 |
|     416 | 0x0056      |          86 |
|     417 | 0x1FFA      |        8186 |
|     418 | 0x1FFB      |        8187 |
|     419 | 0x011D      |         285 |
|     420 | 0x1FFC      |        8188 |
|     421 | 0x1FFD      |        8189 |
|     422 | 0x1FFE      |        8190 |
|     423 | 0x1FFF      |        8191 |
|     424 | 0x2000      |        8192 |
|     425 | 0x2001      |        8193 |
|     426 | 0x2002      |        8194 |
|     427 | 0x2003      |        8195 |
|     428 | 0x2004      |        8196 |
|     429 | 0x2005      |        8197 |
|     430 | 0x2006      |        8198 |
|     431 | 0x2008      |        8200 |
|     432 | 0x2007      |        8199 |
|     433 | 0x2009      |        8201 |
|     434 | 0x200A      |        8202 |
|     435 | 0x200B      |        8203 |
|     436 | 0x200C      |        8204 |
|     437 | 0x200D      |        8205 |
|     438 | 0x0033      |          51 |
|     439 | 0x200E      |        8206 |
|     440 | 0x200F      |        8207 |
|     441 | 0x2010      |        8208 |
|     442 | 0x2011      |        8209 |
|     443 | 0x2012      |        8210 |
|     444 | 0x2013      |        8211 |
|     445 | 0x2014      |        8212 |
|     446 | 0x2015      |        8213 |
|     447 | 0x2016      |        8214 |
|     448 | 0x2017      |        8215 |
|     449 | 0x2018      |        8216 |
|     450 | 0x2019      |        8217 |
|     451 | 0x06CB      |        1739 |
|     452 | 0x0036      |          54 |
|     453 | 0x201A      |        8218 |
|     454 | 0x201B      |        8219 |
|     455 | 0x201C      |        8220 |
|     456 | 0x00D7      |         215 |
|     457 | 0x009F      |         159 |
|     458 | 0x201D      |        8221 |
|     459 | 0x201E      |        8222 |
|     460 | 0x201F      |        8223 |
|     461 | 0x2020      |        8224 |
|     462 | 0x2021      |        8225 |
|     463 | 0x2022      |        8226 |
|     464 | 0x2023      |        8227 |
|     465 | 0x2024      |        8228 |
|     466 | 0x2025      |        8229 |
|     467 | 0x2026      |        8230 |
|     468 | 0x2027      |        8231 |
|     469 | 0x2028      |        8232 |
|     470 | 0x2029      |        8233 |
|     471 | 0x6D8B6     |      448694 |
|     472 | 0x1B48A     |      111754 |
|     473 | 0x03E9      |        1001 |
|     474 | 0x202A      |        8234 |
|     475 | 0x202B      |        8235 |
|     476 | 0x202C      |        8236 |
|     477 | 0x202D      |        8237 |
|     478 | 0x202E      |        8238 |
|     479 | 0x202F      |        8239 |
|     480 | 0x2030      |        8240 |
|     481 | 0x2031      |        8241 |
|     482 | 0x2032      |        8242 |
|     483 | 0x203E      |        8254 |
|     484 | 0x203F      |        8255 |
|     485 | 0x2040      |        8256 |
|     486 | 0x2041      |        8257 |
|     487 | 0x2033      |        8243 |
|     488 | 0x2034      |        8244 |
|     489 | 0x2035      |        8245 |
|     490 | 0x2036      |        8246 |
|     491 | 0x2037      |        8247 |
|     492 | 0x2038      |        8248 |
|     493 | 0x2039      |        8249 |
|     494 | 0x203A      |        8250 |
|     495 | 0x203B      |        8251 |
|     496 | 0x203C      |        8252 |
|     497 | 0x203D      |        8253 |
|     498 | 0x2042      |        8258 |
|     499 | 0x2043      |        8259 |
|     500 | 0x2044      |        8260 |
|     501 | 0x2045      |        8261 |
|     502 | 0x2046      |        8262 |
|     503 | 0x2047      |        8263 |
|     504 | 0x2048      |        8264 |
|     505 | 0x2049      |        8265 |
|     506 | 0x204A      |        8266 |
|     507 | 0x204B      |        8267 |
|     508 | 0x204C      |        8268 |
|     509 | 0x204D      |        8269 |
|     510 | 0x204E      |        8270 |
|     511 | 0x204F      |        8271 |
|     512 | 0x2050      |        8272 |
|     513 | 0x2051      |        8273 |
|     514 | 0x2052      |        8274 |
|     515 | 0x2053      |        8275 |
|     516 | 0x2054      |        8276 |
|     517 | 0x0021      |          33 |
|     518 | 0x2055      |        8277 |
|     519 | 0x2056      |        8278 |
|     520 | 0x2057      |        8279 |
|     521 | 0x2058      |        8280 |
|     522 | 0x2059      |        8281 |
|     523 | 0x205A      |        8282 |
|     524 | 0x205B      |        8283 |
|     525 | 0x205C      |        8284 |
|     526 | 0x205D      |        8285 |
|     527 | 0x205E      |        8286 |
|     528 | 0x72278     |      467576 |
|     529 | 0x111E5     |       70117 |
|     530 | 0x0E3C      |        3644 |
|     531 | 0x0042      |          66 |
|     532 | 0x091C      |        2332 |
|     533 | 0x20B4      |        8372 |
|     534 | 0x20B5      |        8373 |
|     535 | 0x20B6      |        8374 |
|     536 | 0x20B7      |        8375 |
|     537 | 0x20B8      |        8376 |
|     538 | 0x20B9      |        8377 |
|     539 | 0x7460D     |      476685 |
|     540 | 0x135C8     |       79304 |
|     541 | 0xFFFFD9EA  |  4294957546 |
|     542 | 0x0CBD      |        3261 |
|     543 | 0x20BA      |        8378 |
|     544 | 0x20BB      |        8379 |
|     545 | 0x20BC      |        8380 |
|     546 | 0x20BD      |        8381 |
|     547 | 0x20BE      |        8382 |
|     548 | 0x20BF      |        8383 |
|     549 | 0x20C0      |        8384 |
|     550 | 0x0360      |         864 |
|     551 | 0xFFFFEA9A  |  4294961818 |
|     552 | 0x4ED5      |       20181 |
|     553 | 0x07D0      |        2000 |
|     554 | 0x011C      |         284 |
|     555 | 0x205F      |        8287 |
|     556 | 0x2060      |        8288 |
|     557 | 0x2061      |        8289 |
|     558 | 0x2062      |        8290 |
|     559 | 0x2063      |        8291 |
|     560 | 0x2064      |        8292 |
|     561 | 0x2065      |        8293 |
|     562 | 0x2066      |        8294 |
|     563 | 0x2067      |        8295 |
|     564 | 0x2068      |        8296 |
|     565 | 0x2069      |        8297 |
|     566 | 0x206B      |        8299 |
|     567 | 0x206C      |        8300 |
|     568 | 0x206D      |        8301 |
|     569 | 0x206E      |        8302 |
|     570 | 0x206F      |        8303 |
|     571 | 0x2070      |        8304 |
|     572 | 0x0087      |         135 |
|     573 | 0x0032      |          50 |
|     574 | 0x2071      |        8305 |
|     575 | 0x00D6      |         214 |
|     576 | 0x0075      |         117 |
|     577 | 0x1788      |        6024 |
|     578 | 0x34E7      |       13543 |
|     579 | 0xFFFFAA10  |  4294945296 |
|     580 | 0x0960      |        2400 |
|     581 | 0x1DEB      |        7659 |
|     582 | 0x4254      |       16980 |
|     583 | 0x2072      |        8306 |
|     584 | 0x2073      |        8307 |
|     585 | 0x2074      |        8308 |
|     586 | 0x2075      |        8309 |
|     587 | 0x2076      |        8310 |
|     588 | 0x2077      |        8311 |
|     589 | 0x2078      |        8312 |
|     590 | 0x02B3      |         691 |
|     591 | 0x2079      |        8313 |
|     592 | 0x207A      |        8314 |
|     593 | 0x004B      |          75 |
|     594 | 0x207B      |        8315 |
|     595 | 0x207C      |        8316 |
|     596 | 0x207D      |        8317 |
|     597 | 0x207E      |        8318 |
|     598 | 0x207F      |        8319 |
|     599 | 0x2080      |        8320 |
|     600 | 0x034E      |         846 |
|     601 | 0x0091      |         145 |
|     602 | 0x00AA      |         170 |
|     603 | 0x1C28      |        7208 |
|     604 | 0x4435      |       17461 |
|     605 | 0x2081      |        8321 |
|     606 | 0x2082      |        8322 |
|     607 | 0x2083      |        8323 |
|     608 | 0x2084      |        8324 |
|     609 | 0x2085      |        8325 |
|     610 | 0x2086      |        8326 |
|     611 | 0x2087      |        8327 |
|     612 | 0x2088      |        8328 |
|     613 | 0x2089      |        8329 |
|     614 | 0x00DC      |         220 |
|     615 | 0x007F      |         127 |
|     616 | 0x0452      |        1106 |
|     617 | 0x37A0      |       14240 |
|     618 | 0x0C13      |        3091 |
|     619 | 0x208A      |        8330 |
|     620 | 0x208B      |        8331 |
|     621 | 0x208C      |        8332 |
|     622 | 0x208D      |        8333 |
|     623 | 0x208E      |        8334 |
|     624 | 0x208F      |        8335 |
|     625 | 0x2090      |        8336 |
|     626 | 0x2091      |        8337 |
|     627 | 0x2092      |        8338 |
|     628 | 0x2093      |        8339 |
|     629 | 0x2094      |        8340 |
|     630 | 0x2096      |        8342 |
|     631 | 0x2097      |        8343 |
|     632 | 0x2098      |        8344 |
|     633 | 0x2099      |        8345 |
|     634 | 0x209A      |        8346 |
|     635 | 0x209B      |        8347 |
|     636 | 0x00F6      |         246 |
|     637 | 0x007C      |         124 |
|     638 | 0x209C      |        8348 |
|     639 | 0x209D      |        8349 |
|     640 | 0x209E      |        8350 |
|     641 | 0x209F      |        8351 |
|     642 | 0x20A1      |        8353 |
|     643 | 0x20A0      |        8352 |
|     644 | 0x20A2      |        8354 |
|     645 | 0x20A3      |        8355 |
|     646 | 0x20A4      |        8356 |
|     647 | 0x20A5      |        8357 |
|     648 | 0x20A6      |        8358 |
|     649 | 0x20A7      |        8359 |
|     650 | 0x00FA      |         250 |
|     651 | 0x20A8      |        8360 |
|     652 | 0x20A9      |        8361 |
|     653 | 0x20AA      |        8362 |
|     654 | 0xFFFFFFE3  |  4294967267 |
|     655 | 0xFFFF183E  |  4294907966 |
|     656 | 0xFFFF996C  |  4294941036 |
|     657 | 0x045F      |        1119 |
|     658 | 0x015E      |         350 |
|     659 | 0x20AB      |        8363 |
|     660 | 0x20AC      |        8364 |
|     661 | 0x00B8      |         184 |
|     662 | 0x20AD      |        8365 |
|     663 | 0x20AE      |        8366 |
|     664 | 0x20AF      |        8367 |
|     665 | 0x20B0      |        8368 |
|     666 | 0x20B1      |        8369 |
|     667 | 0x20B2      |        8370 |
|     668 | 0x20B3      |        8371 |
|     669 | 0x02BC      |         700 |
|     670 | 0x6E6C6     |      452294 |
|     671 | 0x1A829     |      108585 |
|     672 | 0x7141C     |      463900 |
|     673 | 0x1A528     |      107816 |
|     674 | 0xFFFFD8F1  |  4294957297 |
|     675 | 0x7154F     |      464207 |
|     676 | 0x1AC7E     |      109694 |
|     677 | 0x70C91     |      461969 |
|     678 | 0x1AA0D     |      109069 |
|     679 | 0xFFF7929D  |  4294415005 |
|     680 | 0x46412     |      287762 |
|     681 | 0xFFFFEC70  |  4294962288 |
|     682 | 0xFFF74664  |  4294395492 |
|     683 | 0x479BD     |      293309 |
|     684 | 0xFFFFF169  |  4294963561 |
|     685 | 0xFFF71AC8  |  4294384328 |
|     686 | 0x4782A     |      292906 |
|     687 | 0xFFFFEE2A  |  4294962730 |
|     688 | 0xFFF7246A  |  4294386794 |
|     689 | 0x48469     |      296041 |
|     690 | 0xFFFFECD9  |  4294962393 |
|     691 | 0xFFF79460  |  4294415456 |
|     692 | 0x46457     |      287831 |
|     693 | 0xFFFFEC73  |  4294962291 |
|     694 | 0xFFF7303A  |  4294389818 |
|     695 | 0x47BD5     |      293845 |
|     696 | 0xFFFFEF35  |  4294962997 |
|     697 | 0xFFF7247A  |  4294386810 |
|     698 | 0x47CA1     |      294049 |
|     699 | 0xFFFFED74  |  4294962548 |
|     700 | 0xFFF710C0  |  4294381760 |
|     701 | 0x47824     |      292900 |
|     702 | 0xFFFFED03  |  4294962435 |
|     703 | 0x706D8     |      460504 |
|     704 | 0x1A87C     |      108668 |
|     705 | 0x716C9     |      464585 |
|     706 | 0x1A755     |      108373 |
|     707 | 0xFFF78879  |  4294412409 |
|     708 | 0x44C99     |      281753 |
|     709 | 0xFFFFED4F  |  4294962511 |

## String References

- **7549**: Enter the battlefield? [Enter./Decline.]
- **7550**: Leave the battlefield? [Run away./Stay.]
- **7552**: You cannot enter the battlefield at present. Please wait a little longer.
- **7560**: You are cleared to enter the battlefield, but you cannot while party members are engaged in combat.
- **7599**: You do not meet the requirements to enter the battlefield. Access is denied.
- **7888**: Skip the event? [Yes./No.]
- **7908**: Only $3 [member/members] have clearance to enter the battlefield. This room has reached its maximum capacity.
- **8008**: Which battlefield will you enter? [None./Lamia Reprisal.]
- **8010**: All of a sudden, the tiny Merrow and Lamia begin to sing... "Eternal love...awaits you...after the dream." The other side of the gate grows silent, and then you hear a voice... "Enter, repulsive ones who would peddle their souls..."
- **8011**: The $3 and $3 run away snickering as the flasks simultaneously crumble into dust...
- **8022**: Choose a picture to take.
- **8023**: First scene.
- **8024**: Second scene.
- **8025**: Third scene.
- **8026**: Which picture will you take? [Show me again./First scene./Second scene./Third scene.]
- **8027**: <Player> records the first scene.
- **8028**: <Player> records the second scene.
- **8029**: <Player> records the third scene.
- **8030**: <Player> takes in the surrounding scenery. ...The view is breathtaking.
- **8031**: <Player> thinks back on Balakaf's words. ...Perhaps this is not the best time to record a picture.
- **8092**: Do you want to become a corsair? [I do!/Not really.]
- **8119**: Take the pledge? [What pledge?/No thanks.]
- **8144**: Do you know any place like that? [The Maze of Shakhrami./Gusgen Mines./Ordelle's Caves.]
- **8159**: Give him Imutira's message? [Yes./No way.]
- **8367**: Take the pledge? [I swear./What was that last part?]
- **8479**: The order has been given to invade [the Leujaoam Sanctum/the Mamool Ja Training Grounds/Lebros Cavern/Periqia/the Ilrusi Atoll/Nyzul Isle/the Ashu Talif/Zhayolm Remnants/Arrapago Remnants/Bhaflau Remnants/Silver Sea Remnants]!

## Events

### Event 65535

#### Metadata

| Field        | Value   |
|--------------|---------|
| Entrypoint   | 0x0000  |
| Data Size    | 1 bytes |
| Instructions | 1       |

```
      00 01 02 03 04 05 06 07  08 09 0A 0B 0C 0D 0E 0F
      -- -- -- -- -- -- -- --  -- -- -- -- -- -- -- --
0000: 00                                                .               
```

#### Opcodes

```
  0: 0x0000 [0x00] END_REQSTACK()
```

### Event 65534

#### Metadata

| Field        | Value   |
|--------------|---------|
| Entrypoint   | 0x0001  |
| Data Size    | 1 bytes |
| Instructions | 1       |

```
      00 01 02 03 04 05 06 07  08 09 0A 0B 0C 0D 0E 0F
      -- -- -- -- -- -- -- --  -- -- -- -- -- -- -- --
0000:    00                                              .              
```

#### Opcodes

```
  0: 0x0001 [0x00] END_REQSTACK()
```

### Event 222

#### Metadata

| Field        | Value    |
|--------------|----------|
| Entrypoint   | 0x0002   |
| Data Size    | 46 bytes |
| Instructions | 8        |

```
      00 01 02 03 04 05 06 07  08 09 0A 0B 0C 0D 0E 0F
      -- -- -- -- -- -- -- --  -- -- -- -- -- -- -- --
0000:       42 48 00 80 9F 01  80 F8 FF FF 7F F8 FF FF    BH............
0010: 7F 6D 61 69 6E 02 80 1C  03 80 45 04 80 F0 FF FF  .main.....E.....
0020: 7F F0 FF FF 7F 66 64 6F  31 02 80 1C 05 80 21 00  .....fdo1.....!.
```

#### Opcodes

```
  0: 0x0002 [0x42] SET_CLI_EVENT_CANCEL_DATA()
  1: 0x0003 [0x48] [System] [8479*]:
    → "The order has been given to invade [the Leujaoam Sanctum/the Mamool Ja Training Grounds/Lebros Cavern/Periqia/the Ilrusi Atoll/Nyzul Isle/the Ashu Talif/Zhayolm Remnants/Arrapago Remnants/Bhaflau Remnants/Silver Sea Remnants]!"
  2: 0x0006 [0x9F] LOAD_SCHEDULED_TASK_ALT: Load scheduler "main" with entities [EventEntity, EventEntity], work=[201*, 0*]
  3: 0x0017 [0x1C] WAIT(140* ticks)
  4: 0x001A [0x45] LOAD_SCHEDULED_TASK: Load scheduler "fdo1" with entities [LocalPlayer, LocalPlayer], work=[200*, 0*]
  5: 0x002B [0x1C] WAIT(60* ticks)
  6: 0x002E [0x21] END_EVENT
  7: 0x002F [0x00] END_REQSTACK()
```

### Event 90

#### Metadata

| Field        | Value    |
|--------------|----------|
| Entrypoint   | 0x0030   |
| Data Size    | 41 bytes |
| Instructions | 5        |

```
      00 01 02 03 04 05 06 07  08 09 0A 0B 0C 0D 0E 0F
      -- -- -- -- -- -- -- --  -- -- -- -- -- -- -- --
0030: 9F 01 80 F8 FF FF 7F F8  FF FF 7F 6D 61 69 6E 02  ...........main.
0040: 80 1C 03 80 45 04 80 F0  FF FF 7F F0 FF FF 7F 66  ....E..........f
0050: 64 6F 31 02 80 1C 05 80  00                       do1......       
```

#### Opcodes

```
  0: 0x0030 [0x9F] LOAD_SCHEDULED_TASK_ALT: Load scheduler "main" with entities [EventEntity, EventEntity], work=[201*, 0*]
  1: 0x0041 [0x1C] WAIT(140* ticks)
  2: 0x0044 [0x45] LOAD_SCHEDULED_TASK: Load scheduler "fdo1" with entities [LocalPlayer, LocalPlayer], work=[200*, 0*]
  3: 0x0055 [0x1C] WAIT(60* ticks)
  4: 0x0058 [0x00] END_REQSTACK()
```

### Event 100

#### Metadata

| Field        | Value    |
|--------------|----------|
| Entrypoint   | 0x0059   |
| Data Size    | 10 bytes |
| Instructions | 2        |

```
      00 01 02 03 04 05 06 07  08 09 0A 0B 0C 0D 0E 0F
      -- -- -- -- -- -- -- --  -- -- -- -- -- -- -- --
0050:                             37 06 80 07 80 08 80           7......
0060: 09 80 00                                          ...             
```

#### Opcodes

```
  0: 0x0059 [0x37] UPDATE_EVENT_POSITION_AND_DIR: x=5.146*, z=579.999*, y=-7.928*, direction=360.0°*
  1: 0x0062 [0x00] END_REQSTACK()
```

### Event 101

#### Metadata

| Field        | Value    |
|--------------|----------|
| Entrypoint   | 0x0063   |
| Data Size    | 14 bytes |
| Instructions | 4        |

```
      00 01 02 03 04 05 06 07  08 09 0A 0B 0C 0D 0E 0F
      -- -- -- -- -- -- -- --  -- -- -- -- -- -- -- --
0060:          32 0A 80 1F 00  0B 80 0C 80 0D 80 1F 01     2............
0070: 00                                                .               
```

#### Opcodes

```
  0: 0x0063 [0x32] ExtData[1]->MainSpeed = 13* * 0.1
  1: 0x0066 [0x1F] MOVE_ENTITY: EventEntity moves to X=10.612*, Z=580.016*, Y=-7.860*
  2: 0x006E [0x1F] MOVE_ENTITY: Update entity position (mode=1)
  3: 0x0070 [0x00] END_REQSTACK()
```

### Event 102

#### Metadata

| Field        | Value    |
|--------------|----------|
| Entrypoint   | 0x0071   |
| Data Size    | 13 bytes |
| Instructions | 3        |

```
      00 01 02 03 04 05 06 07  08 09 0A 0B 0C 0D 0E 0F
      -- -- -- -- -- -- -- --  -- -- -- -- -- -- -- --
0070:    47 00 0B 80 0C 80 0D  80 09 80 47 01 00         G.........G..  
```

#### Opcodes

```
  0: 0x0071 [0x47] UPDATE_PLAYER_POS(10.612*, 580.016*, -7.860*, yaw=360.0°*)
  1: 0x007B [0x47] WAIT_PLAYER_POS_UPDATE
  2: 0x007D [0x00] END_REQSTACK()
```

### Event 103

#### Metadata

| Field        | Value    |
|--------------|----------|
| Entrypoint   | 0x007E   |
| Data Size    | 10 bytes |
| Instructions | 2        |

```
      00 01 02 03 04 05 06 07  08 09 0A 0B 0C 0D 0E 0F
      -- -- -- -- -- -- -- --  -- -- -- -- -- -- -- --
0070:                                            37 0B                7.
0080: 80 0C 80 0D 80 0E 80 00                           ........        
```

#### Opcodes

```
  0: 0x007E [0x37] UPDATE_EVENT_POSITION_AND_DIR: x=10.612*, z=580.016*, y=-7.860*, direction=180.0°*
  1: 0x0087 [0x00] END_REQSTACK()
```

### Event 104

#### Metadata

| Field        | Value    |
|--------------|----------|
| Entrypoint   | 0x0088   |
| Data Size    | 14 bytes |
| Instructions | 4        |

```
      00 01 02 03 04 05 06 07  08 09 0A 0B 0C 0D 0E 0F
      -- -- -- -- -- -- -- --  -- -- -- -- -- -- -- --
0080:                          32 0A 80 1F 00 06 80 07          2.......
0090: 80 08 80 1F 01 00                                 ......          
```

#### Opcodes

```
  0: 0x0088 [0x32] ExtData[1]->MainSpeed = 13* * 0.1
  1: 0x008B [0x1F] MOVE_ENTITY: EventEntity moves to X=5.146*, Z=579.999*, Y=-7.928*
  2: 0x0093 [0x1F] MOVE_ENTITY: Update entity position (mode=1)
  3: 0x0095 [0x00] END_REQSTACK()
```

### Event 105

#### Metadata

| Field        | Value    |
|--------------|----------|
| Entrypoint   | 0x0096   |
| Data Size    | 13 bytes |
| Instructions | 3        |

```
      00 01 02 03 04 05 06 07  08 09 0A 0B 0C 0D 0E 0F
      -- -- -- -- -- -- -- --  -- -- -- -- -- -- -- --
0090:                   47 00  06 80 07 80 08 80 0E 80        G.........
00A0: 47 01 00                                          G..             
```

#### Opcodes

```
  0: 0x0096 [0x47] UPDATE_PLAYER_POS(5.146*, 579.999*, -7.928*, yaw=180.0°*)
  1: 0x00A0 [0x47] WAIT_PLAYER_POS_UPDATE
  2: 0x00A2 [0x00] END_REQSTACK()
```

### Event 65535.1

#### Metadata

| Field        | Value    |
|--------------|----------|
| Entrypoint   | 0x00A3   |
| Data Size    | 10 bytes |
| Instructions | 2        |

```
      00 01 02 03 04 05 06 07  08 09 0A 0B 0C 0D 0E 0F
      -- -- -- -- -- -- -- --  -- -- -- -- -- -- -- --
00A0:          37 0F 80 10 80  11 80 09 80 00              7.........   
```

#### Opcodes

```
  0: 0x00A3 [0x37] UPDATE_EVENT_POSITION_AND_DIR: x=16.036*, z=627.997*, y=-7.250*, direction=360.0°*
  1: 0x00AC [0x00] END_REQSTACK()
```

### Event 200

#### Metadata

| Field        | Value    |
|--------------|----------|
| Entrypoint   | 0x00AD   |
| Data Size    | 10 bytes |
| Instructions | 2        |

```
      00 01 02 03 04 05 06 07  08 09 0A 0B 0C 0D 0E 0F
      -- -- -- -- -- -- -- --  -- -- -- -- -- -- -- --
00A0:                                         37 12 80               7..
00B0: 13 80 14 80 15 80 00                              .......         
```

#### Opcodes

```
  0: 0x00AD [0x37] UPDATE_EVENT_POSITION_AND_DIR: x=140.000*, z=77.999*, y=-8.018*, direction=90.0°*
  1: 0x00B6 [0x00] END_REQSTACK()
```

### Event 201

#### Metadata

| Field        | Value    |
|--------------|----------|
| Entrypoint   | 0x00B7   |
| Data Size    | 14 bytes |
| Instructions | 4        |

```
      00 01 02 03 04 05 06 07  08 09 0A 0B 0C 0D 0E 0F
      -- -- -- -- -- -- -- --  -- -- -- -- -- -- -- --
00B0:                      32  0A 80 1F 00 12 80 16 80         2........
00C0: 17 80 1F 01 00                                    .....           
```

#### Opcodes

```
  0: 0x00B7 [0x32] ExtData[1]->MainSpeed = 13* * 0.1
  1: 0x00BA [0x1F] MOVE_ENTITY: EventEntity moves to X=140.000*, Z=73.597*, Y=-7.934*
  2: 0x00C2 [0x1F] MOVE_ENTITY: Update entity position (mode=1)
  3: 0x00C4 [0x00] END_REQSTACK()
```

### Event 202

#### Metadata

| Field        | Value    |
|--------------|----------|
| Entrypoint   | 0x00C5   |
| Data Size    | 13 bytes |
| Instructions | 3        |

```
      00 01 02 03 04 05 06 07  08 09 0A 0B 0C 0D 0E 0F
      -- -- -- -- -- -- -- --  -- -- -- -- -- -- -- --
00C0:                47 00 12  80 16 80 17 80 15 80 47       G.........G
00D0: 01 00                                             ..              
```

#### Opcodes

```
  0: 0x00C5 [0x47] UPDATE_PLAYER_POS(140.000*, 73.597*, -7.934*, yaw=90.0°*)
  1: 0x00CF [0x47] WAIT_PLAYER_POS_UPDATE
  2: 0x00D1 [0x00] END_REQSTACK()
```

### Event 203

#### Metadata

| Field        | Value    |
|--------------|----------|
| Entrypoint   | 0x00D2   |
| Data Size    | 10 bytes |
| Instructions | 2        |

```
      00 01 02 03 04 05 06 07  08 09 0A 0B 0C 0D 0E 0F
      -- -- -- -- -- -- -- --  -- -- -- -- -- -- -- --
00D0:       37 12 80 16 80 17  80 18 80 00                7.........    
```

#### Opcodes

```
  0: 0x00D2 [0x37] UPDATE_EVENT_POSITION_AND_DIR: x=140.000*, z=73.597*, y=-7.934*, direction=270.0°*
  1: 0x00DB [0x00] END_REQSTACK()
```

### Event 204

#### Metadata

| Field        | Value    |
|--------------|----------|
| Entrypoint   | 0x00DC   |
| Data Size    | 14 bytes |
| Instructions | 4        |

```
      00 01 02 03 04 05 06 07  08 09 0A 0B 0C 0D 0E 0F
      -- -- -- -- -- -- -- --  -- -- -- -- -- -- -- --
00D0:                                      32 0A 80 1F              2...
00E0: 00 12 80 13 80 14 80 1F  01 00                    ..........      
```

#### Opcodes

```
  0: 0x00DC [0x32] ExtData[1]->MainSpeed = 13* * 0.1
  1: 0x00DF [0x1F] MOVE_ENTITY: EventEntity moves to X=140.000*, Z=77.999*, Y=-8.018*
  2: 0x00E7 [0x1F] MOVE_ENTITY: Update entity position (mode=1)
  3: 0x00E9 [0x00] END_REQSTACK()
```

### Event 205

#### Metadata

| Field        | Value    |
|--------------|----------|
| Entrypoint   | 0x00EA   |
| Data Size    | 13 bytes |
| Instructions | 3        |

```
      00 01 02 03 04 05 06 07  08 09 0A 0B 0C 0D 0E 0F
      -- -- -- -- -- -- -- --  -- -- -- -- -- -- -- --
00E0:                                47 00 12 80 13 80            G.....
00F0: 14 80 18 80 47 01 00                              ....G..         
```

#### Opcodes

```
  0: 0x00EA [0x47] UPDATE_PLAYER_POS(140.000*, 77.999*, -8.018*, yaw=270.0°*)
  1: 0x00F4 [0x47] WAIT_PLAYER_POS_UPDATE
  2: 0x00F6 [0x00] END_REQSTACK()
```

### Event 225

#### Metadata

| Field        | Value    |
|--------------|----------|
| Entrypoint   | 0x00F7   |
| Data Size    | 10 bytes |
| Instructions | 2        |

```
      00 01 02 03 04 05 06 07  08 09 0A 0B 0C 0D 0E 0F
      -- -- -- -- -- -- -- --  -- -- -- -- -- -- -- --
00F0:                      37  19 80 1A 80 1B 80 18 80         7........
0100: 00                                                .               
```

#### Opcodes

```
  0: 0x00F7 [0x37] UPDATE_EVENT_POSITION_AND_DIR: x=-59.971*, z=-362.605*, y=-7.767*, direction=270.0°*
  1: 0x0100 [0x00] END_REQSTACK()
```

### Event 226

#### Metadata

| Field        | Value    |
|--------------|----------|
| Entrypoint   | 0x0101   |
| Data Size    | 14 bytes |
| Instructions | 4        |

```
      00 01 02 03 04 05 06 07  08 09 0A 0B 0C 0D 0E 0F
      -- -- -- -- -- -- -- --  -- -- -- -- -- -- -- --
0100:    32 0A 80 1F 00 1C 80  1D 80 1E 80 1F 01 00      2............. 
```

#### Opcodes

```
  0: 0x0101 [0x32] ExtData[1]->MainSpeed = 13* * 0.1
  1: 0x0104 [0x1F] MOVE_ENTITY: EventEntity moves to X=-60.059*, Z=-355.628*, Y=-7.755*
  2: 0x010C [0x1F] MOVE_ENTITY: Update entity position (mode=1)
  3: 0x010E [0x00] END_REQSTACK()
```

### Event 227

#### Metadata

| Field        | Value    |
|--------------|----------|
| Entrypoint   | 0x010F   |
| Data Size    | 13 bytes |
| Instructions | 3        |

```
      00 01 02 03 04 05 06 07  08 09 0A 0B 0C 0D 0E 0F
      -- -- -- -- -- -- -- --  -- -- -- -- -- -- -- --
0100:                                               47                 G
0110: 00 1C 80 1D 80 1E 80 18  80 47 01 00              .........G..    
```

#### Opcodes

```
  0: 0x010F [0x47] UPDATE_PLAYER_POS(-60.059*, -355.628*, -7.755*, yaw=270.0°*)
  1: 0x0119 [0x47] WAIT_PLAYER_POS_UPDATE
  2: 0x011B [0x00] END_REQSTACK()
```

### Event 65535.2

#### Metadata

| Field        | Value   |
|--------------|---------|
| Entrypoint   | 0x011C  |
| Data Size    | 6 bytes |
| Instructions | 2       |

```
      00 01 02 03 04 05 06 07  08 09 0A 0B 0C 0D 0E 0F
      -- -- -- -- -- -- -- --  -- -- -- -- -- -- -- --
0110:                                      03 02 10 07              ....
0120: 7F 00                                             ..              
```

#### Opcodes

```
  0: 0x011C [0x03] Work_Zone[2] = Entity->Race
  1: 0x0121 [0x00] END_REQSTACK()
```

### Event 65535.3

#### Metadata

| Field        | Value   |
|--------------|---------|
| Entrypoint   | 0x0122  |
| Data Size    | 6 bytes |
| Instructions | 2       |

```
      00 01 02 03 04 05 06 07  08 09 0A 0B 0C 0D 0E 0F
      -- -- -- -- -- -- -- --  -- -- -- -- -- -- -- --
0120:       03 02 10 0B 7F 00                             ......        
```

#### Opcodes

```
  0: 0x0122 [0x03] Work_Zone[2] = (Entity->Render.Flags01 >> 25) & 1
  1: 0x0127 [0x00] END_REQSTACK()
```

### Event 65535.4

#### Metadata

| Field        | Value   |
|--------------|---------|
| Entrypoint   | 0x0128  |
| Data Size    | 7 bytes |
| Instructions | 3       |

```
      00 01 02 03 04 05 06 07  08 09 0A 0B 0C 0D 0E 0F
      -- -- -- -- -- -- -- --  -- -- -- -- -- -- -- --
0120:                          AB 03 AC 01 1F 80 00             ....... 
```

#### Opcodes

```
  0: 0x0128 [0xAB] EventEntity->Render.Flags0 ^= 0x20000 // Toggle bit 17
  1: 0x012A [0xAC] EventEntity->StatusEvent = 1*
  2: 0x012E [0x00] END_REQSTACK()
```

### Event 65535.5

#### Metadata

| Field        | Value   |
|--------------|---------|
| Entrypoint   | 0x012F  |
| Data Size    | 7 bytes |
| Instructions | 3       |

```
      00 01 02 03 04 05 06 07  08 09 0A 0B 0C 0D 0E 0F
      -- -- -- -- -- -- -- --  -- -- -- -- -- -- -- --
0120:                                               AC                 .
0130: 01 02 80 AB 04 00                                 ......          
```

#### Opcodes

```
  0: 0x012F [0xAC] EventEntity->StatusEvent = 0*
  1: 0x0133 [0xAB] EventEntity->Render.Flags0 |= 0x40000 // Set bit 18
  2: 0x0135 [0x00] END_REQSTACK()
```

### Event 208

#### Metadata

| Field        | Value     |
|--------------|-----------|
| Entrypoint   | 0x0136    |
| Data Size    | 719 bytes |
| Instructions | 85        |

```
      00 01 02 03 04 05 06 07  08 09 0A 0B 0C 0D 0E 0F
      -- -- -- -- -- -- -- --  -- -- -- -- -- -- -- --
0130:                   42 48  20 80 23 45 04 80 F8 FF        BH .#E....
0140: FF 7F F8 FF FF 7F 66 64  6F 31 02 80 55 04 80 F8  ......fdo1..U...
0150: FF FF 7F F8 FF FF 7F 66  64 6F 31 46 01 38 21 80  .......fdo1F.8!.
0160: 4E 01 F0 FF FF 7F 03 00  00 02 80 02 00 00 02 80  N...............
0170: 00 ED 03 45 22 80 F8 FF  FF 7F F8 FF FF 7F 73 30  ...E".........s0
0180: 36 39 02 80 1C 05 80 45  04 80 F8 FF FF 7F F8 FF  69.....E........
0190: FF 7F 66 64 69 31 02 80  1C 05 80 48 23 80 23 45  ..fdi1.....H#.#E
01A0: 04 80 F8 FF FF 7F F8 FF  FF 7F 66 64 6F 31 02 80  ..........fdo1..
01B0: 55 04 80 F8 FF FF 7F F8  FF FF 7F 66 64 6F 31 52  U..........fdo1R
01C0: 22 80 F8 FF FF 7F F8 FF  FF 7F 73 30 36 39 45 22  ".........s069E"
01D0: 80 F8 FF FF 7F F8 FF FF  7F 73 30 36 38 02 80 1C  .........s068...
01E0: 05 80 45 04 80 F8 FF FF  7F F8 FF FF 7F 66 64 69  ..E..........fdi
01F0: 31 02 80 1C 05 80 48 24  80 23 45 04 80 F8 FF FF  1.....H$.#E.....
0200: 7F F8 FF FF 7F 66 64 6F  31 02 80 55 04 80 F8 FF  .....fdo1..U....
0210: FF 7F F8 FF FF 7F 66 64  6F 31 52 22 80 F8 FF FF  ......fdo1R"....
0220: 7F F8 FF FF 7F 73 30 36  38 45 22 80 F8 FF FF 7F  .....s068E".....
0230: F8 FF FF 7F 73 30 37 30  02 80 1C 05 80 45 04 80  ....s070.....E..
0240: F8 FF FF 7F F8 FF FF 7F  66 64 69 31 02 80 1C 05  ........fdi1....
0250: 80 48 25 80 23 24 26 80  02 80 02 80 25 02 00 10  .H%.#$&.....%...
0260: 02 80 00 68 02 01 9D 03  02 00 10 1F 80 00 EB 02  ...h............
0270: 45 04 80 F8 FF FF 7F F8  FF FF 7F 66 64 6F 31 02  E..........fdo1.
0280: 80 55 04 80 F8 FF FF 7F  F8 FF FF 7F 66 64 6F 31  .U..........fdo1
0290: 52 22 80 F8 FF FF 7F F8  FF FF 7F 73 30 37 30 45  R".........s070E
02A0: 22 80 F8 FF FF 7F F8 FF  FF 7F 73 30 36 39 02 80  ".........s069..
02B0: 1C 05 80 45 04 80 F8 FF  FF 7F F8 FF FF 7F 66 64  ...E..........fd
02C0: 69 31 02 80 1C 27 80 45  28 80 F8 FF FF 7F F8 FF  i1...'.E(.......
02D0: FF 7F 73 30 34 37 02 80  1C 27 80 48 29 80 03 00  ..s047...'.H)...
02E0: 00 1F 80 03 01 10 1F 80  01 9D 03 02 00 10 2A 80  ..............*.
02F0: 00 6E 03 45 04 80 F8 FF  FF 7F F8 FF FF 7F 66 64  .n.E..........fd
0300: 6F 31 02 80 55 04 80 F8  FF FF 7F F8 FF FF 7F 66  o1..U..........f
0310: 64 6F 31 52 22 80 F8 FF  FF 7F F8 FF FF 7F 73 30  do1R".........s0
0320: 37 30 45 22 80 F8 FF FF  7F F8 FF FF 7F 73 30 36  70E".........s06
0330: 38 02 80 1C 05 80 45 04  80 F8 FF FF 7F F8 FF FF  8.....E.........
0340: 7F 66 64 69 31 02 80 1C  27 80 45 28 80 F8 FF FF  .fdi1...'.E(....
0350: 7F F8 FF FF 7F 73 30 34  37 02 80 1C 27 80 48 2B  .....s047...'.H+
0360: 80 03 00 00 1F 80 03 01  10 2A 80 01 9D 03 02 00  .........*......
0370: 10 2C 80 00 9D 03 1C 27  80 45 28 80 F8 FF FF 7F  .,.....'.E(.....
0380: F8 FF FF 7F 73 30 34 37  02 80 1C 27 80 48 2D 80  ....s047...'.H-.
0390: 03 00 00 1F 80 03 01 10  2C 80 01 9D 03 45 04 80  ........,....E..
03A0: F8 FF FF 7F F8 FF FF 7F  66 64 6F 31 02 80 55 04  ........fdo1..U.
03B0: 80 F8 FF FF 7F F8 FF FF  7F 66 64 6F 31 52 22 80  .........fdo1R".
03C0: F8 FF FF 7F F8 FF FF 7F  73 30 36 39 52 22 80 F8  ........s069R"..
03D0: FF FF 7F F8 FF FF 7F 73  30 36 38 52 22 80 F8 FF  .......s068R"...
03E0: FF 7F F8 FF FF 7F 73 30  37 30 01 6B 01 46 00 1C  ......s070.k.F..
03F0: 05 80 45 04 80 F8 FF FF  7F F8 FF FF 7F 66 64 69  ..E..........fdi
0400: 31 02 80 21 00                                    1..!.           
```

#### Opcodes

```
  0: 0x0136 [0x42] SET_CLI_EVENT_CANCEL_DATA()
  1: 0x0137 [0x48] [System] [8022*]:
    → "Choose a picture to take."
  2: 0x013A [0x23] WAIT_FOR_DIALOG_INTERACTION
  3: 0x013B [0x45] LOAD_SCHEDULED_TASK: Load scheduler "fdo1" with entities [EventEntity, EventEntity], work=[200*, 0*]
  4: 0x014C [0x55] WAIT_LOAD_SCHEDULER: Wait for scheduler "fdo1" with entities [EventEntity, EventEntity], work=200*
  5: 0x015B [0x46] CAMERA_CONTROL: Disable user control
  6: 0x015D [0x38] SET_CLIENT_EVENT_MODE(mode=27*)
  7: 0x0160 [0x4E] SET_ENTITY_HIDE_FLAG: Hide LocalPlayer
  8: 0x0166 [0x03] ExtData[1]->WorkLocal[0] = 0*
  9: 0x016B [0x02] IF !(ExtData[1]->WorkLocal[0] == 0*) GOTO 0x03ED
 10: 0x0173 [0x45] LOAD_SCHEDULED_TASK: Load scheduler "s069" with entities [EventEntity, EventEntity], work=[253*, 0*]
 11: 0x0184 [0x1C] WAIT(60* ticks)
 12: 0x0187 [0x45] LOAD_SCHEDULED_TASK: Load scheduler "fdi1" with entities [EventEntity, EventEntity], work=[200*, 0*]
 13: 0x0198 [0x1C] WAIT(60* ticks)
 14: 0x019B [0x48] [System] [8023*]:
    → "First scene."
 15: 0x019E [0x23] WAIT_FOR_DIALOG_INTERACTION
 16: 0x019F [0x45] LOAD_SCHEDULED_TASK: Load scheduler "fdo1" with entities [EventEntity, EventEntity], work=[200*, 0*]
 17: 0x01B0 [0x55] WAIT_LOAD_SCHEDULER: Wait for scheduler "fdo1" with entities [EventEntity, EventEntity], work=200*
 18: 0x01BF [0x52] END_LOAD_SCHEDULER: End scheduler "s069" with entities [EventEntity, EventEntity], work=253*
 19: 0x01CE [0x45] LOAD_SCHEDULED_TASK: Load scheduler "s068" with entities [EventEntity, EventEntity], work=[253*, 0*]
 20: 0x01DF [0x1C] WAIT(60* ticks)
 21: 0x01E2 [0x45] LOAD_SCHEDULED_TASK: Load scheduler "fdi1" with entities [EventEntity, EventEntity], work=[200*, 0*]
 22: 0x01F3 [0x1C] WAIT(60* ticks)
 23: 0x01F6 [0x48] [System] [8024*]:
    → "Second scene."
 24: 0x01F9 [0x23] WAIT_FOR_DIALOG_INTERACTION
 25: 0x01FA [0x45] LOAD_SCHEDULED_TASK: Load scheduler "fdo1" with entities [EventEntity, EventEntity], work=[200*, 0*]
 26: 0x020B [0x55] WAIT_LOAD_SCHEDULER: Wait for scheduler "fdo1" with entities [EventEntity, EventEntity], work=200*
 27: 0x021A [0x52] END_LOAD_SCHEDULER: End scheduler "s068" with entities [EventEntity, EventEntity], work=253*
 28: 0x0229 [0x45] LOAD_SCHEDULED_TASK: Load scheduler "s070" with entities [EventEntity, EventEntity], work=[253*, 0*]
 29: 0x023A [0x1C] WAIT(60* ticks)
 30: 0x023D [0x45] LOAD_SCHEDULED_TASK: Load scheduler "fdi1" with entities [EventEntity, EventEntity], work=[200*, 0*]
 31: 0x024E [0x1C] WAIT(60* ticks)
 32: 0x0251 [0x48] [System] [8025*]:
    → "Third scene."
 33: 0x0254 [0x23] WAIT_FOR_DIALOG_INTERACTION
 34: 0x0255 [0x24] CREATE_DIALOG(message_id=8026*, default_option=0*, option_flags=0*)
    → "Which picture will you take? [Show me again./First scene./Second scene./Third scene.]"
 35: 0x025C [0x25] WAIT_DIALOG_SELECT()
 36: 0x025D [0x02] IF !(Work_Zone[0] == 0*) GOTO 0x0268
 37: 0x0265 [0x01] GOTO 0x039D
 38: 0x0268 [0x02] IF !(Work_Zone[0] == 1*) GOTO 0x02EB
 39: 0x0270 [0x45] LOAD_SCHEDULED_TASK: Load scheduler "fdo1" with entities [EventEntity, EventEntity], work=[200*, 0*]
 40: 0x0281 [0x55] WAIT_LOAD_SCHEDULER: Wait for scheduler "fdo1" with entities [EventEntity, EventEntity], work=200*
 41: 0x0290 [0x52] END_LOAD_SCHEDULER: End scheduler "s070" with entities [EventEntity, EventEntity], work=253*
 42: 0x029F [0x45] LOAD_SCHEDULED_TASK: Load scheduler "s069" with entities [EventEntity, EventEntity], work=[253*, 0*]
 43: 0x02B0 [0x1C] WAIT(60* ticks)
 44: 0x02B3 [0x45] LOAD_SCHEDULED_TASK: Load scheduler "fdi1" with entities [EventEntity, EventEntity], work=[200*, 0*]
 45: 0x02C4 [0x1C] WAIT(120* ticks)
 46: 0x02C7 [0x45] LOAD_SCHEDULED_TASK: Load scheduler "s047" with entities [EventEntity, EventEntity], work=[254*, 0*]
 47: 0x02D8 [0x1C] WAIT(120* ticks)
 48: 0x02DB [0x48] [System] [8027*]:
    → "<Player> records the first scene."
 49: 0x02DE [0x03] ExtData[1]->WorkLocal[0] = 1*
 50: 0x02E3 [0x03] Work_Zone[1] = 1*
 51: 0x02E8 [0x01] GOTO 0x039D
 52: 0x02EB [0x02] IF !(Work_Zone[0] == 2*) GOTO 0x036E
 53: 0x02F3 [0x45] LOAD_SCHEDULED_TASK: Load scheduler "fdo1" with entities [EventEntity, EventEntity], work=[200*, 0*]
 54: 0x0304 [0x55] WAIT_LOAD_SCHEDULER: Wait for scheduler "fdo1" with entities [EventEntity, EventEntity], work=200*
 55: 0x0313 [0x52] END_LOAD_SCHEDULER: End scheduler "s070" with entities [EventEntity, EventEntity], work=253*
 56: 0x0322 [0x45] LOAD_SCHEDULED_TASK: Load scheduler "s068" with entities [EventEntity, EventEntity], work=[253*, 0*]
 57: 0x0333 [0x1C] WAIT(60* ticks)
 58: 0x0336 [0x45] LOAD_SCHEDULED_TASK: Load scheduler "fdi1" with entities [EventEntity, EventEntity], work=[200*, 0*]
 59: 0x0347 [0x1C] WAIT(120* ticks)
 60: 0x034A [0x45] LOAD_SCHEDULED_TASK: Load scheduler "s047" with entities [EventEntity, EventEntity], work=[254*, 0*]
 61: 0x035B [0x1C] WAIT(120* ticks)
 62: 0x035E [0x48] [System] [8028*]:
    → "<Player> records the second scene."
 63: 0x0361 [0x03] ExtData[1]->WorkLocal[0] = 1*
 64: 0x0366 [0x03] Work_Zone[1] = 2*
 65: 0x036B [0x01] GOTO 0x039D
 66: 0x036E [0x02] IF !(Work_Zone[0] == 3*) GOTO 0x039D
 67: 0x0376 [0x1C] WAIT(120* ticks)
 68: 0x0379 [0x45] LOAD_SCHEDULED_TASK: Load scheduler "s047" with entities [EventEntity, EventEntity], work=[254*, 0*]
 69: 0x038A [0x1C] WAIT(120* ticks)
 70: 0x038D [0x48] [System] [8029*]:
    → "<Player> records the third scene."
 71: 0x0390 [0x03] ExtData[1]->WorkLocal[0] = 1*
 72: 0x0395 [0x03] Work_Zone[1] = 3*
 73: 0x039A [0x01] GOTO 0x039D

SUBROUTINE_039D:
 74: 0x039D [0x45] LOAD_SCHEDULED_TASK: Load scheduler "fdo1" with entities [EventEntity, EventEntity], work=[200*, 0*]
 75: 0x03AE [0x55] WAIT_LOAD_SCHEDULER: Wait for scheduler "fdo1" with entities [EventEntity, EventEntity], work=200*
 76: 0x03BD [0x52] END_LOAD_SCHEDULER: End scheduler "s069" with entities [EventEntity, EventEntity], work=253*
 77: 0x03CC [0x52] END_LOAD_SCHEDULER: End scheduler "s068" with entities [EventEntity, EventEntity], work=253*
 78: 0x03DB [0x52] END_LOAD_SCHEDULER: End scheduler "s070" with entities [EventEntity, EventEntity], work=253*
 79: 0x03EA [0x01] GOTO 0x016B
 80: 0x03ED [0x46] CAMERA_CONTROL: Restore default settings
 81: 0x03EF [0x1C] WAIT(60* ticks)
 82: 0x03F2 [0x45] LOAD_SCHEDULED_TASK: Load scheduler "fdi1" with entities [EventEntity, EventEntity], work=[200*, 0*]
 83: 0x0403 [0x21] END_EVENT
 84: 0x0404 [0x00] END_REQSTACK()
```

### Event 209

#### Metadata

| Field        | Value   |
|--------------|---------|
| Entrypoint   | 0x0405  |
| Data Size    | 6 bytes |
| Instructions | 4       |

```
      00 01 02 03 04 05 06 07  08 09 0A 0B 0C 0D 0E 0F
      -- -- -- -- -- -- -- --  -- -- -- -- -- -- -- --
0400:                48 2E 80  23 21 00                      H..#!.     
```

#### Opcodes

```
  0: 0x0405 [0x48] [System] [8030*]:
    → "<Player> takes in the surrounding scenery. ...The view is breathtaking."
  1: 0x0408 [0x23] WAIT_FOR_DIALOG_INTERACTION
  2: 0x0409 [0x21] END_EVENT
  3: 0x040A [0x00] END_REQSTACK()
```

### Event 210

#### Metadata

| Field        | Value   |
|--------------|---------|
| Entrypoint   | 0x040B  |
| Data Size    | 6 bytes |
| Instructions | 4       |

```
      00 01 02 03 04 05 06 07  08 09 0A 0B 0C 0D 0E 0F
      -- -- -- -- -- -- -- --  -- -- -- -- -- -- -- --
0400:                                   48 2F 80 23 21             H/.#!
0410: 00                                                .               
```

#### Opcodes

```
  0: 0x040B [0x48] [System] [8031*]:
    → "<Player> thinks back on Balakaf's words. ...Perhaps this is not the best time to record a picture."
  1: 0x040E [0x23] WAIT_FOR_DIALOG_INTERACTION
  2: 0x040F [0x21] END_EVENT
  3: 0x0410 [0x00] END_REQSTACK()
```

### Event 32000

#### Metadata

| Field        | Value      |
|--------------|------------|
| Entrypoint   | 0x0411     |
| Data Size    | 1769 bytes |
| Instructions | 208        |

```
      00 01 02 03 04 05 06 07  08 09 0A 0B 0C 0D 0E 0F
      -- -- -- -- -- -- -- --  -- -- -- -- -- -- -- --
0410:    20 01 79 00 F0 FF FF  7F F0 FF FF 7F 03 03 00    .y............
0420: 02 10 03 04 00 03 10 03  06 00 04 10 03 07 00 05  ................
0430: 10 41 02 80 30 80 09 10  08 00 41 31 80 32 80 09  .A..0.....A1.2..
0440: 10 06 10 06 02 00 02 08  00 02 80 00 9F 04 03 09  ................
0450: 00 33 80 0F 09 00 07 00  10 09 00 1F 80 24 34 80  .3...........$4.
0460: 02 80 09 00 25 02 00 10  02 80 00 73 04 01 DF 0A  ....%......s....
0470: 01 9F 04 03 04 00 00 10  0C 04 00 06 13 00 1A F9  ................
0480: 0A 02 13 00 1F 80 00 9F  04 24 35 80 1F 80 02 80  .........$5.....
0490: 25 02 00 10 1F 80 00 9F  04 01 DF 0A 01 9F 04 42  %..............B
04A0: 03 01 10 36 80 43 00 43  01 06 01 10 45 04 80 F0  ...6.C.C....E...
04B0: FF FF 7F F0 FF FF 7F 66  64 6F 31 02 80 55 04 80  .......fdo1..U..
04C0: F0 FF FF 7F F0 FF FF 7F  66 64 6F 31 3B F0 FF FF  ........fdo1;...
04D0: 7F 20 10 21 10 22 10 38  37 80 02 08 00 1F 80 00  . .!.".87.......
04E0: F9 04 03 01 00 1F 80 03  05 00 04 00 03 03 00 02  ................
04F0: 80 03 19 00 02 80 01 13  08 03 01 00 1F 80 02 01  ................
0500: 00 1F 80 05 A8 0A 02 02  80 1F 80 00 13 05 03 01  ................
0510: 00 06 00 40 02 80 2C 80  01 10 01 00 40 38 80 39  ...@..,.....@8.9
0520: 80 01 10 04 00 06 02 10  06 03 10 06 04 10 02 01  ................
0530: 00 1F 80 80 4D 05 03 0A  00 3A 80 03 0B 00 3B 80  ....M....:....;.
0540: 03 0C 00 3C 80 03 0D 00  18 80 01 4D 05 47 00 0A  ...<.......M.G..
0550: 00 0B 00 0C 00 0D 00 47  01 03 05 00 03 10 03 03  .......G........
0560: 00 04 10 03 17 00 05 10  03 0E 00 06 10 03 0F 00  ................
0570: 07 10 03 19 00 09 10 02  02 10 1F 80 80 82 05 01  ................
0580: 95 0A 02 02 10 38 80 80  9F 05 02 01 00 1F 80 80  .....8..........
0590: 99 05 48 3D 80 23 01 99  05 01 AC 0A 01 95 0A 02  ..H=.#..........
05A0: 02 10 3E 80 80 B1 05 48  3F 80 23 01 AC 0A 01 95  ..>....H?.#.....
05B0: 0A 02 02 10 40 80 80 B3  07 02 05 00 02 80 80 C9  ....@...........
05C0: 05 03 05 10 40 80 01 A9  07 02 05 00 1F 80 80 D9  ....@...........
05D0: 05 03 05 10 02 80 01 A9  07 02 05 00 2A 80 80 E9  ............*...
05E0: 05 03 05 10 02 80 01 A9  07 02 05 00 2C 80 80 F9  ............,...
05F0: 05 03 05 10 02 80 01 A9  07 02 05 00 38 80 80 09  ............8...
0600: 06 03 05 10 02 80 01 A9  07 02 05 00 3E 80 80 19  ............>...
0610: 06 03 05 10 02 80 01 A9  07 02 05 00 40 80 80 29  ............@..)
0620: 06 03 05 10 02 80 01 A9  07 02 05 00 41 80 80 39  ............A..9
0630: 06 03 05 10 02 80 01 A9  07 02 05 00 39 80 80 49  ............9..I
0640: 06 03 05 10 02 80 01 A9  07 02 05 00 42 80 80 59  ............B..Y
0650: 06 03 05 10 02 80 01 A9  07 02 05 00 43 80 80 69  ............C..i
0660: 06 03 05 10 02 80 01 A9  07 02 05 00 44 80 80 79  ............D..y
0670: 06 03 05 10 02 80 01 A9  07 02 05 00 45 80 80 89  ............E...
0680: 06 03 05 10 02 80 01 A9  07 02 05 00 0A 80 80 99  ................
0690: 06 03 05 10 02 80 01 A9  07 02 05 00 46 80 80 A9  ............F...
06A0: 06 03 05 10 02 80 01 A9  07 02 05 00 30 80 80 B9  ............0...
06B0: 06 03 05 10 02 80 01 A9  07 02 05 00 31 80 80 C9  ............1...
06C0: 06 03 05 10 02 80 01 A9  07 02 05 00 47 80 80 D9  ............G...
06D0: 06 03 05 10 02 80 01 A9  07 02 05 00 48 80 80 E9  ............H...
06E0: 06 03 05 10 02 80 01 A9  07 02 05 00 37 80 80 F9  ............7...
06F0: 06 03 05 10 02 80 01 A9  07 02 05 00 49 80 80 09  ............I...
0700: 07 03 05 10 02 80 01 A9  07 02 05 00 4A 80 80 19  ............J...
0710: 07 03 05 10 02 80 01 A9  07 02 05 00 4B 80 80 29  ............K..)
0720: 07 03 05 10 02 80 01 A9  07 02 05 00 4C 80 80 39  ............L..9
0730: 07 03 05 10 02 80 01 A9  07 02 05 00 4D 80 80 49  ............M..I
0740: 07 03 05 10 02 80 01 A9  07 02 05 00 4E 80 80 59  ............N..Y
0750: 07 03 05 10 02 80 01 A9  07 02 05 00 4F 80 80 69  ............O..i
0760: 07 03 05 10 02 80 01 A9  07 02 05 00 21 80 80 79  ............!..y
0770: 07 03 05 10 02 80 01 A9  07 02 05 00 50 80 80 89  ............P...
0780: 07 03 05 10 02 80 01 A9  07 02 05 00 51 80 80 99  ............Q...
0790: 07 03 05 10 02 80 01 A9  07 02 05 00 52 80 80 A9  ............R...
07A0: 07 03 05 10 02 80 01 A9  07 48 53 80 23 01 AC 0A  .........HS.#...
07B0: 01 95 0A 02 02 10 2C 80  80 C1 07 01 F9 04 01 95  ......,.........
07C0: 0A 02 02 10 2A 80 80 95  0A 03 04 00 05 00 03 11  ....*...........
07D0: 00 54 80 07 11 00 04 00  02 03 00 11 00 00 E8 07  .T..............
07E0: 03 03 00 1F 80 01 ED 07  03 03 00 02 80 02 03 00  ................
07F0: 02 80 00 13 08 02 0F 00  1F 80 00 13 08 24 55 80  .............$U.
0800: 1F 80 02 80 25 02 00 10  02 80 00 13 08 05 03 00  ....%...........
0810: 01 13 08 06 12 00 02 05  00 02 80 80 26 08 03 12  ............&...
0820: 00 02 80 01 0B 0A 02 05  00 1F 80 80 36 08 03 12  ............6...
0830: 00 02 80 01 0B 0A 02 05  00 2A 80 80 46 08 03 12  .........*..F...
0840: 00 02 80 01 0B 0A 02 05  00 2C 80 80 56 08 03 12  .........,..V...
0850: 00 02 80 01 0B 0A 02 05  00 38 80 80 66 08 03 12  .........8..f...
0860: 00 02 80 01 0B 0A 02 05  00 3E 80 80 76 08 03 12  .........>..v...
0870: 00 02 80 01 0B 0A 02 05  00 40 80 80 86 08 03 12  .........@......
0880: 00 02 80 01 0B 0A 02 05  00 41 80 80 96 08 03 12  .........A......
0890: 00 02 80 01 0B 0A 02 05  00 39 80 80 A6 08 03 12  .........9......
08A0: 00 02 80 01 0B 0A 02 05  00 42 80 80 B6 08 03 12  .........B......
08B0: 00 02 80 01 0B 0A 02 05  00 43 80 80 C6 08 03 12  .........C......
08C0: 00 02 80 01 0B 0A 02 05  00 44 80 80 D6 08 03 12  .........D......
08D0: 00 02 80 01 0B 0A 02 05  00 45 80 80 E6 08 03 12  .........E......
08E0: 00 02 80 01 0B 0A 02 05  00 0A 80 80 F6 08 03 12  ................
08F0: 00 02 80 01 0B 0A 02 05  00 46 80 80 06 09 03 12  .........F......
0900: 00 02 80 01 0B 0A 02 05  00 30 80 80 16 09 03 12  .........0......
0910: 00 02 80 01 0B 0A 02 05  00 31 80 80 26 09 03 12  .........1..&...
0920: 00 02 80 01 0B 0A 02 05  00 47 80 80 36 09 03 12  .........G..6...
0930: 00 02 80 01 0B 0A 02 05  00 48 80 80 46 09 03 12  .........H..F...
0940: 00 02 80 01 0B 0A 02 05  00 37 80 80 56 09 03 12  .........7..V...
0950: 00 02 80 01 0B 0A 02 05  00 49 80 80 66 09 03 12  .........I..f...
0960: 00 02 80 01 0B 0A 02 05  00 4A 80 80 76 09 03 12  .........J..v...
0970: 00 02 80 01 0B 0A 02 05  00 4B 80 80 86 09 03 12  .........K......
0980: 00 02 80 01 0B 0A 02 05  00 4C 80 80 96 09 03 12  .........L......
0990: 00 02 80 01 0B 0A 02 05  00 4D 80 80 A6 09 03 12  .........M......
09A0: 00 02 80 01 0B 0A 02 05  00 4E 80 80 B6 09 03 12  .........N......
09B0: 00 02 80 01 0B 0A 02 05  00 4F 80 80 C6 09 03 12  .........O......
09C0: 00 02 80 01 0B 0A 02 05  00 21 80 80 D6 09 03 12  .........!......
09D0: 00 02 80 01 0B 0A 02 05  00 50 80 80 E6 09 03 12  .........P......
09E0: 00 02 80 01 0B 0A 02 05  00 51 80 80 F6 09 03 12  .........Q......
09F0: 00 02 80 01 0B 0A 02 05  00 52 80 80 06 0A 03 12  .........R......
0A00: 00 02 80 01 0B 0A 03 12  00 02 80 02 03 00 1F 80  ................
0A10: 00 26 0A 5C 00 56 80 5C  01 56 80 5C 02 56 80 5C  .&.\.V.\.V.\.V.\
0A20: 03 56 80 01 3E 0A 02 12  00 02 80 00 3E 0A 5C 00  .V..>.......>.\.
0A30: 56 80 5C 01 56 80 5C 02  56 80 5C 03 56 80 02 03  V.\.V.\.V.\.V...
0A40: 00 02 80 00 4C 0A 1A 80  0F 01 85 0A 6C F0 FF FF  ....L.......l...
0A50: 7F 02 80 1F 80 62 2A 80  F0 FF FF 7F F0 FF FF 7F  .....b*.........
0A60: 6D 61 69 6E 02 80 45 04  80 F0 FF FF 7F F0 FF FF  main..E.........
0A70: 7F 6F 76 6C 31 02 80 46  02 10 00 02 10 00 02 80  .ovl1..F........
0A80: 00 85 0A 46 00 03 01 10  54 80 07 01 10 04 00 01  ...F....T.......
0A90: AC 0A 01 95 0A 0B 01 00  02 02 80 1F 80 00 A5 0A  ................
0AA0: 03 01 00 2A 80 01 FE 04  48 57 80 23 45 01 80 F0  ...*....HW.#E...
0AB0: FF FF 7F F0 FF FF 7F 77  68 69 31 02 80 45 04 80  .......whi1..E..
0AC0: F0 FF FF 7F F0 FF FF 7F  62 6C 6F 66 02 80 45 04  ........blof..E.
0AD0: 80 F0 FF FF 7F F0 FF FF  7F 66 64 69 30 02 80 02  .........fdi0...
0AE0: 08 00 1F 80 00 F7 0A 5C  00 58 80 5C 01 58 80 5C  .......\.X.\.X.\
0AF0: 02 56 80 5C 03 56 80 21  00 1B                    .V.\.V.!..      
```

#### Opcodes

```
  0: 0x0411 [0x20] SET_CLI_EVENT_UC_FLAG: Lock player control
  1: 0x0413 [0x79] LocalPlayer looks at LocalPlayer (Basic look)
  2: 0x041D [0x03] ExtData[1]->WorkLocal[3] = Work_Zone[2]
  3: 0x0422 [0x03] ExtData[1]->WorkLocal[4] = Work_Zone[3]
  4: 0x0427 [0x03] ExtData[1]->WorkLocal[6] = Work_Zone[4]
  5: 0x042C [0x03] ExtData[1]->WorkLocal[7] = Work_Zone[5]
  6: 0x0431 [0x41] ExtData[1]->WorkLocal[8] = Work_Zone[9] (bits 0*-15*)
  7: 0x043A [0x41] Work_Zone[6] = Work_Zone[9] (bits 16*-31*)
  8: 0x0443 [0x06] ExtData[1]->WorkLocal[2] = 0
  9: 0x0446 [0x02] IF !(ExtData[1]->WorkLocal[8] == 0*) GOTO 0x049F
 10: 0x044E [0x03] ExtData[1]->WorkLocal[9] = 4294967295*
 11: 0x0453 [0x0F] ExtData[1]->WorkLocal[9] ^= ExtData[1]->WorkLocal[7]
 12: 0x0458 [0x10] ExtData[1]->WorkLocal[9] <<= 1*
 13: 0x045D [0x24] CREATE_DIALOG(message_id=8008*, default_option=0*, option_flags=ExtData[1]->WorkLocal[9])
    → "Which battlefield will you enter? [None./Lamia Reprisal.]"
 14: 0x0464 [0x25] WAIT_DIALOG_SELECT()
 15: 0x0465 [0x02] IF !(Work_Zone[0] == 0*) GOTO 0x0473
 16: 0x046D [0x01] GOTO 0x0ADF

SUBROUTINE_049F:
 17: 0x049F [0x42] SET_CLI_EVENT_CANCEL_DATA()
 18: 0x04A0 [0x03] Work_Zone[1] = 255*
 19: 0x04A5 [0x43] SEND_EVENT_UPDATE: Send pending tag to server (packet 0x005B)
 20: 0x04A7 [0x43] SEND_EVENT_UPDATE: Check pending flag (skip if not pending)
 21: 0x04A9 [0x06] Work_Zone[1] = 0
 22: 0x04AC [0x45] LOAD_SCHEDULED_TASK: Load scheduler "fdo1" with entities [LocalPlayer, LocalPlayer], work=[200*, 0*]
 23: 0x04BD [0x55] WAIT_LOAD_SCHEDULER: Wait for scheduler "fdo1" with entities [LocalPlayer, LocalPlayer], work=200*
 24: 0x04CC [0x3B] GET_ENTITY_POSITION(entity=LocalPlayer, x_destination=Work_Zone[32], y_destination=Work_Zone[33], z_destination=Work_Zone[34])
 25: 0x04D7 [0x38] SET_CLIENT_EVENT_MODE(mode=19*)
 26: 0x04DA [0x02] IF !(ExtData[1]->WorkLocal[8] == 1*) GOTO 0x04F9
 27: 0x04E2 [0x03] ExtData[1]->WorkLocal[1] = 1*
 28: 0x04E7 [0x03] ExtData[1]->WorkLocal[5] = ExtData[1]->WorkLocal[4]
 29: 0x04EC [0x03] ExtData[1]->WorkLocal[3] = 0*
 30: 0x04F1 [0x03] ExtData[1]->WorkLocal[25] = 0*
 31: 0x04F6 [0x01] GOTO 0x0813

SUBROUTINE_04F9:
 32: 0x04F9 [0x03] ExtData[1]->WorkLocal[1] = 1*

SUBROUTINE_04FE:
 33: 0x04FE [0x02] IF !(ExtData[1]->WorkLocal[1] > 1*) GOTO 0x0AA8
 34: 0x0506 [0x02] IF !(0* == 1*) GOTO 0x0513
 35: 0x050E [0x03] ExtData[1]->WorkLocal[1] = ExtData[1]->WorkLocal[6]
 36: 0x0513 [0x40] SET_BIT_WORK_RANGE(start_bit=0*, end_bit=3*, target=Work_Zone[1], source=ExtData[1]->WorkLocal[1])
 37: 0x051C [0x40] SET_BIT_WORK_RANGE(start_bit=4*, end_bit=8*, target=Work_Zone[1], source=ExtData[1]->WorkLocal[4])
 38: 0x0525 [0x06] Work_Zone[2] = 0
 39: 0x0528 [0x06] Work_Zone[3] = 0
 40: 0x052B [0x06] Work_Zone[4] = 0
 41: 0x052E [0x02] IF !(ExtData[1]->WorkLocal[1] == 1*) GOTO 0x054D
 42: 0x0536 [0x03] ExtData[1]->WorkLocal[10] = 4294907296*
 43: 0x053B [0x03] ExtData[1]->WorkLocal[11] = 4294619296*
 44: 0x0540 [0x03] ExtData[1]->WorkLocal[12] = 4294959546*
 45: 0x0545 [0x03] ExtData[1]->WorkLocal[13] = 3072*
 46: 0x054A [0x01] GOTO 0x054D

SUBROUTINE_054D:
 47: 0x054D [0x47] UPDATE_PLAYER_POS(ExtData[1]->WorkLocal[10], ExtData[1]->WorkLocal[11], ExtData[1]->WorkLocal[12], yaw=ExtData[1]->WorkLocal[13])
 48: 0x0557 [0x47] WAIT_PLAYER_POS_UPDATE
 49: 0x0559 [0x03] ExtData[1]->WorkLocal[5] = Work_Zone[3]
 50: 0x055E [0x03] ExtData[1]->WorkLocal[3] = Work_Zone[4]
 51: 0x0563 [0x03] ExtData[1]->WorkLocal[23] = Work_Zone[5]
 52: 0x0568 [0x03] ExtData[1]->WorkLocal[14] = Work_Zone[6]
 53: 0x056D [0x03] ExtData[1]->WorkLocal[15] = Work_Zone[7]
 54: 0x0572 [0x03] ExtData[1]->WorkLocal[25] = Work_Zone[9]
 55: 0x0577 [0x02] IF !(Work_Zone[2] == 1*) GOTO 0x0582
 56: 0x057F [0x01] GOTO 0x0A95
 57: 0x0582 [0x02] IF !(Work_Zone[2] == 4*) GOTO 0x059F
 58: 0x058A [0x02] IF !(ExtData[1]->WorkLocal[1] == 1*) GOTO 0x0599
 59: 0x0592 [0x48] [System] [7560*]:
    → "You are cleared to enter the battlefield, but you cannot while party members are engaged in combat."
 60: 0x0595 [0x23] WAIT_FOR_DIALOG_INTERACTION
 61: 0x0596 [0x01] GOTO 0x0599

SUBROUTINE_0599:
 62: 0x0599 [0x01] GOTO 0x0AAC

SUBROUTINE_07A9:
 63: 0x07A9 [0x48] [System] [7908*]:
    → "Only $3 [member/members] have clearance to enter the battlefield. This room has reached its maximum capacity."
 64: 0x07AC [0x23] WAIT_FOR_DIALOG_INTERACTION
 65: 0x07AD [0x01] GOTO 0x0AAC

SUBROUTINE_07ED:
 66: 0x07ED [0x02] IF !(ExtData[1]->WorkLocal[3] == 0*) GOTO 0x0813
 67: 0x07F5 [0x02] IF !(ExtData[1]->WorkLocal[15] == 1*) GOTO 0x0813
 68: 0x07FD [0x24] CREATE_DIALOG(message_id=7888*, default_option=1*, option_flags=0*)
    → "Skip the event? [Yes./No.]"
 69: 0x0804 [0x25] WAIT_DIALOG_SELECT()
 70: 0x0805 [0x02] IF !(Work_Zone[0] == 0*) GOTO 0x0813
 71: 0x080D [0x05] ExtData[1]->WorkLocal[3] = 1
 72: 0x0810 [0x01] GOTO 0x0813

SUBROUTINE_0813:
 73: 0x0813 [0x06] ExtData[1]->WorkLocal[18] = 0
 74: 0x0816 [0x02] IF !(ExtData[1]->WorkLocal[5] == 0*) GOTO 0x0826
 75: 0x081E [0x03] ExtData[1]->WorkLocal[18] = 0*
 76: 0x0823 [0x01] GOTO 0x0A0B
 77: 0x0826 [0x02] IF !(ExtData[1]->WorkLocal[5] == 1*) GOTO 0x0836
 78: 0x082E [0x03] ExtData[1]->WorkLocal[18] = 0*
 79: 0x0833 [0x01] GOTO 0x0A0B
 80: 0x0836 [0x02] IF !(ExtData[1]->WorkLocal[5] == 2*) GOTO 0x0846
 81: 0x083E [0x03] ExtData[1]->WorkLocal[18] = 0*
 82: 0x0843 [0x01] GOTO 0x0A0B
 83: 0x0846 [0x02] IF !(ExtData[1]->WorkLocal[5] == 3*) GOTO 0x0856
 84: 0x084E [0x03] ExtData[1]->WorkLocal[18] = 0*
 85: 0x0853 [0x01] GOTO 0x0A0B
 86: 0x0856 [0x02] IF !(ExtData[1]->WorkLocal[5] == 4*) GOTO 0x0866
 87: 0x085E [0x03] ExtData[1]->WorkLocal[18] = 0*
 88: 0x0863 [0x01] GOTO 0x0A0B
 89: 0x0866 [0x02] IF !(ExtData[1]->WorkLocal[5] == 5*) GOTO 0x0876
 90: 0x086E [0x03] ExtData[1]->WorkLocal[18] = 0*
 91: 0x0873 [0x01] GOTO 0x0A0B
 92: 0x0876 [0x02] IF !(ExtData[1]->WorkLocal[5] == 6*) GOTO 0x0886
 93: 0x087E [0x03] ExtData[1]->WorkLocal[18] = 0*
 94: 0x0883 [0x01] GOTO 0x0A0B
 95: 0x0886 [0x02] IF !(ExtData[1]->WorkLocal[5] == 7*) GOTO 0x0896
 96: 0x088E [0x03] ExtData[1]->WorkLocal[18] = 0*
 97: 0x0893 [0x01] GOTO 0x0A0B
 98: 0x0896 [0x02] IF !(ExtData[1]->WorkLocal[5] == 8*) GOTO 0x08A6
 99: 0x089E [0x03] ExtData[1]->WorkLocal[18] = 0*
100: 0x08A3 [0x01] GOTO 0x0A0B
101: 0x08A6 [0x02] IF !(ExtData[1]->WorkLocal[5] == 9*) GOTO 0x08B6
102: 0x08AE [0x03] ExtData[1]->WorkLocal[18] = 0*
103: 0x08B3 [0x01] GOTO 0x0A0B
104: 0x08B6 [0x02] IF !(ExtData[1]->WorkLocal[5] == 10*) GOTO 0x08C6
105: 0x08BE [0x03] ExtData[1]->WorkLocal[18] = 0*
106: 0x08C3 [0x01] GOTO 0x0A0B
107: 0x08C6 [0x02] IF !(ExtData[1]->WorkLocal[5] == 11*) GOTO 0x08D6
108: 0x08CE [0x03] ExtData[1]->WorkLocal[18] = 0*
109: 0x08D3 [0x01] GOTO 0x0A0B
110: 0x08D6 [0x02] IF !(ExtData[1]->WorkLocal[5] == 12*) GOTO 0x08E6
111: 0x08DE [0x03] ExtData[1]->WorkLocal[18] = 0*
112: 0x08E3 [0x01] GOTO 0x0A0B
113: 0x08E6 [0x02] IF !(ExtData[1]->WorkLocal[5] == 13*) GOTO 0x08F6
114: 0x08EE [0x03] ExtData[1]->WorkLocal[18] = 0*
115: 0x08F3 [0x01] GOTO 0x0A0B
116: 0x08F6 [0x02] IF !(ExtData[1]->WorkLocal[5] == 14*) GOTO 0x0906
117: 0x08FE [0x03] ExtData[1]->WorkLocal[18] = 0*
118: 0x0903 [0x01] GOTO 0x0A0B
119: 0x0906 [0x02] IF !(ExtData[1]->WorkLocal[5] == 15*) GOTO 0x0916
120: 0x090E [0x03] ExtData[1]->WorkLocal[18] = 0*
121: 0x0913 [0x01] GOTO 0x0A0B
122: 0x0916 [0x02] IF !(ExtData[1]->WorkLocal[5] == 16*) GOTO 0x0926
123: 0x091E [0x03] ExtData[1]->WorkLocal[18] = 0*
124: 0x0923 [0x01] GOTO 0x0A0B
125: 0x0926 [0x02] IF !(ExtData[1]->WorkLocal[5] == 17*) GOTO 0x0936
126: 0x092E [0x03] ExtData[1]->WorkLocal[18] = 0*
127: 0x0933 [0x01] GOTO 0x0A0B
128: 0x0936 [0x02] IF !(ExtData[1]->WorkLocal[5] == 18*) GOTO 0x0946
129: 0x093E [0x03] ExtData[1]->WorkLocal[18] = 0*
130: 0x0943 [0x01] GOTO 0x0A0B
131: 0x0946 [0x02] IF !(ExtData[1]->WorkLocal[5] == 19*) GOTO 0x0956
132: 0x094E [0x03] ExtData[1]->WorkLocal[18] = 0*
133: 0x0953 [0x01] GOTO 0x0A0B
134: 0x0956 [0x02] IF !(ExtData[1]->WorkLocal[5] == 20*) GOTO 0x0966
135: 0x095E [0x03] ExtData[1]->WorkLocal[18] = 0*
136: 0x0963 [0x01] GOTO 0x0A0B
137: 0x0966 [0x02] IF !(ExtData[1]->WorkLocal[5] == 21*) GOTO 0x0976
138: 0x096E [0x03] ExtData[1]->WorkLocal[18] = 0*
139: 0x0973 [0x01] GOTO 0x0A0B
140: 0x0976 [0x02] IF !(ExtData[1]->WorkLocal[5] == 22*) GOTO 0x0986
141: 0x097E [0x03] ExtData[1]->WorkLocal[18] = 0*
142: 0x0983 [0x01] GOTO 0x0A0B
143: 0x0986 [0x02] IF !(ExtData[1]->WorkLocal[5] == 23*) GOTO 0x0996
144: 0x098E [0x03] ExtData[1]->WorkLocal[18] = 0*
145: 0x0993 [0x01] GOTO 0x0A0B
146: 0x0996 [0x02] IF !(ExtData[1]->WorkLocal[5] == 24*) GOTO 0x09A6
147: 0x099E [0x03] ExtData[1]->WorkLocal[18] = 0*
148: 0x09A3 [0x01] GOTO 0x0A0B
149: 0x09A6 [0x02] IF !(ExtData[1]->WorkLocal[5] == 25*) GOTO 0x09B6
150: 0x09AE [0x03] ExtData[1]->WorkLocal[18] = 0*
151: 0x09B3 [0x01] GOTO 0x0A0B
152: 0x09B6 [0x02] IF !(ExtData[1]->WorkLocal[5] == 26*) GOTO 0x09C6
153: 0x09BE [0x03] ExtData[1]->WorkLocal[18] = 0*
154: 0x09C3 [0x01] GOTO 0x0A0B
155: 0x09C6 [0x02] IF !(ExtData[1]->WorkLocal[5] == 27*) GOTO 0x09D6
156: 0x09CE [0x03] ExtData[1]->WorkLocal[18] = 0*
157: 0x09D3 [0x01] GOTO 0x0A0B
158: 0x09D6 [0x02] IF !(ExtData[1]->WorkLocal[5] == 28*) GOTO 0x09E6
159: 0x09DE [0x03] ExtData[1]->WorkLocal[18] = 0*
160: 0x09E3 [0x01] GOTO 0x0A0B
161: 0x09E6 [0x02] IF !(ExtData[1]->WorkLocal[5] == 29*) GOTO 0x09F6
162: 0x09EE [0x03] ExtData[1]->WorkLocal[18] = 0*
163: 0x09F3 [0x01] GOTO 0x0A0B
164: 0x09F6 [0x02] IF !(ExtData[1]->WorkLocal[5] == 30*) GOTO 0x0A06
165: 0x09FE [0x03] ExtData[1]->WorkLocal[18] = 0*
166: 0x0A03 [0x01] GOTO 0x0A0B
167: 0x0A06 [0x03] ExtData[1]->WorkLocal[18] = 0*

SUBROUTINE_0A0B:
168: 0x0A0B [0x02] IF !(ExtData[1]->WorkLocal[3] == 1*) GOTO 0x0A26
169: 0x0A13 [0x5C] MUSIC_CONTROL: Set Idle (Day) music to song 143*
170: 0x0A17 [0x5C] MUSIC_CONTROL: Set Idle (Night) music to song 143*
171: 0x0A1B [0x5C] MUSIC_CONTROL: Set Combat (Solo) music to song 143*
172: 0x0A1F [0x5C] MUSIC_CONTROL: Set Combat (Party) music to song 143*
173: 0x0A23 [0x01] GOTO 0x0A3E
174: 0x0A26 [0x02] IF !(ExtData[1]->WorkLocal[18] == 0*) GOTO 0x0A3E
175: 0x0A2E [0x5C] MUSIC_CONTROL: Set Idle (Day) music to song 143*
176: 0x0A32 [0x5C] MUSIC_CONTROL: Set Idle (Night) music to song 143*
177: 0x0A36 [0x5C] MUSIC_CONTROL: Set Combat (Solo) music to song 143*
178: 0x0A3A [0x5C] MUSIC_CONTROL: Set Combat (Party) music to song 143*

SUBROUTINE_0A3E:
179: 0x0A3E [0x02] IF !(ExtData[1]->WorkLocal[3] == 0*) GOTO 0x0A4C
180: 0x0A46 [0x1A] CALL_SUBROUTINE(address=0x0F80)
181: 0x0A49 [0x01] GOTO 0x0A85
182: 0x0A4C [0x6C] FADE_ENTITY_COLOR(entity_id=LocalPlayer, end_alpha=0*, fade_time=1*)
183: 0x0A55 [0x62] LOAD_EVENT_SCHEDULER: Load scheduler "main" with entities [LocalPlayer, LocalPlayer], work=[2*, 0*]
184: 0x0A66 [0x45] LOAD_SCHEDULED_TASK: Load scheduler "ovl1" with entities [LocalPlayer, LocalPlayer], work=[200*, 0*]
185: 0x0A77 [0x46] CAMERA_CONTROL: Query status
186: 0x0A79 [0x10] 0x0200 <<= ExtData[1]->WorkLocal[16]
187: 0x0A7E [0x02] IF !(0x80 & 0x0A85) GOTO 0x0300
188: 0x0A86 [0x01] GOTO 0x5410
189: 0x0A89 [0x80] LOAD_WAIT(entity=Unknown NPC (ID: 68157703/0x04100107))
190: 0x0A8E [0x00] END_REQSTACK()

SUBROUTINE_0A95:
191: 0x0A95 [0x0B] ExtData[1]->WorkLocal[1]++
192: 0x0A98 [0x02] IF !(0* == 1*) GOTO 0x0AA5
193: 0x0AA0 [0x03] ExtData[1]->WorkLocal[1] = 2*
194: 0x0AA5 [0x01] GOTO 0x04FE
195: 0x0AA8 [0x48] [System] [7552*]:
    → "You cannot enter the battlefield at present. Please wait a little longer."
196: 0x0AAB [0x23] WAIT_FOR_DIALOG_INTERACTION

SUBROUTINE_0AAC:
197: 0x0AAC [0x45] LOAD_SCHEDULED_TASK: Load scheduler "whi1" with entities [LocalPlayer, LocalPlayer], work=[201*, 0*]
198: 0x0ABD [0x45] LOAD_SCHEDULED_TASK: Load scheduler "blof" with entities [LocalPlayer, LocalPlayer], work=[200*, 0*]
199: 0x0ACE [0x45] LOAD_SCHEDULED_TASK: Load scheduler "fdi0" with entities [LocalPlayer, LocalPlayer], work=[200*, 0*]

SUBROUTINE_0ADF:
200: 0x0ADF [0x02] IF !(ExtData[1]->WorkLocal[8] == 1*) GOTO 0x0AF7
201: 0x0AE7 [0x5C] MUSIC_CONTROL: Set Idle (Day) music to song 150*
202: 0x0AEB [0x5C] MUSIC_CONTROL: Set Idle (Night) music to song 150*
203: 0x0AEF [0x5C] MUSIC_CONTROL: Set Combat (Solo) music to song 143*
204: 0x0AF3 [0x5C] MUSIC_CONTROL: Set Combat (Party) music to song 143*
205: 0x0AF7 [0x21] END_EVENT
206: 0x0AF8 [0x00] END_REQSTACK()

SUBROUTINE_0AF9:
207: 0x0AF9 [0x1B] RETURN
```

#### Data or dead code:

```
# Dead code (unreachable instructions):
     0x0470 [0x01] GOTO 0x049F
     0x049C [0x01] GOTO 0x049F
# Dead code (unreachable instructions):
     0x059C [0x01] GOTO 0x0A95
     0x05AE [0x01] GOTO 0x0A95
# Dead code (unreachable instructions):
     0x07B0 [0x01] GOTO 0x0A95
     0x07BE [0x01] GOTO 0x0A95
# Dead code (unreachable instructions):
     0x0A8F [0x01] GOTO 0x0AAC
     0x0A92 [0x01] GOTO 0x0A95
```

### Event 32002

#### Metadata

| Field        | Value     |
|--------------|-----------|
| Entrypoint   | 0x0AFA    |
| Data Size    | 183 bytes |
| Instructions | 29        |

```
      00 01 02 03 04 05 06 07  08 09 0A 0B 0C 0D 0E 0F
      -- -- -- -- -- -- -- --  -- -- -- -- -- -- -- --
0AF0:                                03 06 00 06 10 03            ......
0B00: 1E 00 07 10 03 1D 00 08  10 20 01 42 3B F0 FF FF  ......... .B;...
0B10: 7F 20 10 21 10 22 10 3A  F0 FF FF 7F 23 10 45 04  . .!.".:....#.E.
0B20: 80 F0 FF FF 7F F0 FF FF  7F 66 64 6F 31 02 80 55  .........fdo1..U
0B30: 04 80 F0 FF FF 7F F0 FF  FF 7F 66 64 6F 31 02 02  ..........fdo1..
0B40: 80 1F 80 00 60 0B 02 06  00 1F 80 80 5D 0B 47 00  ....`.......].G.
0B50: 3A 80 59 80 5A 80 15 80  47 01 01 5D 0B 01 77 0B  :.Y.Z...G..]..w.
0B60: 02 1D 00 5B 80 80 6B 0B  01 77 0B 47 00 3A 80 59  ...[..k..w.G.:.Y
0B70: 80 5A 80 15 80 47 01 38  37 80 1A A5 11 45 01 80  .Z...G.87....E..
0B80: F0 FF FF 7F F0 FF FF 7F  77 68 69 31 02 80 45 04  ........whi1..E.
0B90: 80 F0 FF FF 7F F0 FF FF  7F 62 6C 6F 66 02 80 5C  .........blof..\
0BA0: 00 58 80 5C 01 58 80 5C  02 56 80 5C 03 56 80 21  .X.\.X.\.V.\.V.!
0BB0: 00                                                .               
```

#### Opcodes

```
  0: 0x0AFA [0x03] ExtData[1]->WorkLocal[6] = Work_Zone[6]
  1: 0x0AFF [0x03] ExtData[1]->WorkLocal[30] = Work_Zone[7]
  2: 0x0B04 [0x03] ExtData[1]->WorkLocal[29] = Work_Zone[8]
  3: 0x0B09 [0x20] SET_CLI_EVENT_UC_FLAG: Lock player control
  4: 0x0B0B [0x42] SET_CLI_EVENT_CANCEL_DATA()
  5: 0x0B0C [0x3B] GET_ENTITY_POSITION(entity=LocalPlayer, x_destination=Work_Zone[32], y_destination=Work_Zone[33], z_destination=Work_Zone[34])
  6: 0x0B17 [0x3A] CONVERT_YAW_TO_BYTE(entity=LocalPlayer, result_destination=Work_Zone[35])
  7: 0x0B1E [0x45] LOAD_SCHEDULED_TASK: Load scheduler "fdo1" with entities [LocalPlayer, LocalPlayer], work=[200*, 0*]
  8: 0x0B2F [0x55] WAIT_LOAD_SCHEDULER: Wait for scheduler "fdo1" with entities [LocalPlayer, LocalPlayer], work=200*
  9: 0x0B3E [0x02] IF !(0* == 1*) GOTO 0x0B60
 10: 0x0B46 [0x02] IF !(ExtData[1]->WorkLocal[6] == 1*) GOTO 0x0B5D
 11: 0x0B4E [0x47] UPDATE_PLAYER_POS(-60.000*, -380.000*, -8.000*, yaw=90.0°*)
 12: 0x0B58 [0x47] WAIT_PLAYER_POS_UPDATE
 13: 0x0B5A [0x01] GOTO 0x0B5D

SUBROUTINE_0B5D:
 14: 0x0B5D [0x01] GOTO 0x0B77
 15: 0x0B60 [0x02] IF !(ExtData[1]->WorkLocal[29] == 999*) GOTO 0x0B6B
 16: 0x0B68 [0x01] GOTO 0x0B77
 17: 0x0B6B [0x47] UPDATE_PLAYER_POS(-60.000*, -380.000*, -8.000*, yaw=90.0°*)
 18: 0x0B75 [0x47] WAIT_PLAYER_POS_UPDATE

SUBROUTINE_0B77:
 19: 0x0B77 [0x38] SET_CLIENT_EVENT_MODE(mode=19*)
 20: 0x0B7A [0x1A] CALL_SUBROUTINE(address=0x11A5)
 21: 0x0B7D [0x45] LOAD_SCHEDULED_TASK: Load scheduler "whi1" with entities [LocalPlayer, LocalPlayer], work=[201*, 0*]
 22: 0x0B8E [0x45] LOAD_SCHEDULED_TASK: Load scheduler "blof" with entities [LocalPlayer, LocalPlayer], work=[200*, 0*]
 23: 0x0B9F [0x5C] MUSIC_CONTROL: Set Idle (Day) music to song 150*
 24: 0x0BA3 [0x5C] MUSIC_CONTROL: Set Idle (Night) music to song 150*
 25: 0x0BA7 [0x5C] MUSIC_CONTROL: Set Combat (Solo) music to song 143*
 26: 0x0BAB [0x5C] MUSIC_CONTROL: Set Combat (Party) music to song 143*
 27: 0x0BAF [0x21] END_EVENT
 28: 0x0BB0 [0x00] END_REQSTACK()
```

### Event 32001

#### Metadata

| Field        | Value     |
|--------------|-----------|
| Entrypoint   | 0x0BB1    |
| Data Size    | 515 bytes |
| Instructions | 84        |

```
      00 01 02 03 04 05 06 07  08 09 0A 0B 0C 0D 0E 0F
      -- -- -- -- -- -- -- --  -- -- -- -- -- -- -- --
0BB0:    79 00 F0 FF FF 7F F0  FF FF 7F 03 1E 00 02 10   y..............
0BC0: 03 17 00 03 10 03 18 00  05 10 03 1D 00 06 10 03  ................
0BD0: 16 00 07 10 03 14 00 08  10 03 19 00 09 10 20 01  .............. .
0BE0: 42 3B F0 FF FF 7F 20 10  21 10 22 10 3A F0 FF FF  B;.... .!.".:...
0BF0: 7F 23 10 02 1D 00 5C 80  01 FE 0B 1C 5D 80 45 01  .#....\.....].E.
0C00: 80 F0 FF FF 7F F0 FF FF  7F 77 68 69 31 02 80 45  .........whi1..E
0C10: 04 80 F0 FF FF 7F F0 FF  FF 7F 62 6C 6F 66 02 80  ..........blof..
0C20: 45 04 80 F0 FF FF 7F F0  FF FF 7F 66 64 6F 31 02  E..........fdo1.
0C30: 80 55 04 80 F0 FF FF 7F  F0 FF FF 7F 66 64 6F 31  .U..........fdo1
0C40: 6C F0 FF FF 7F 5E 80 1F  80 06 01 10 02 14 00 02  l....^..........
0C50: 80 03 57 0C 01 6E 0C 02  1D 00 5B 80 80 62 0C 01  ..W..n....[..b..
0C60: 6E 0C 47 00 3A 80 59 80  5A 80 15 80 47 01 38 37  n.G.:.Y.Z...G.87
0C70: 80 02 14 00 1F 80 00 D0  0C 1C 30 80 24 55 80 1F  ..........0.$U..
0C80: 80 02 80 25 02 00 10 02  80 00 D0 0C 37 3A 80 59  ...%........7:.Y
0C90: 80 5A 80 15 80 80 F0 FF  FF 7F 62 2A 80 F0 FF FF  .Z........b*....
0CA0: 7F F0 FF FF 7F 6D 61 69  6E 02 80 45 04 80 F0 FF  .....main..E....
0CB0: FF 7F F0 FF FF 7F 66 64  69 32 02 80 46 02 10 00  ......fdi2..F...
0CC0: 02 10 00 02 80 00 CA 0C  46 00 01 F7 0C 01 D0 0C  ........F.......
0CD0: 02 14 00 33 80 04 E9 0C  5C 00 56 80 5C 01 56 80  ...3....\.V.\.V.
0CE0: 5C 02 56 80 5C 03 56 80  9A 1A 50 10 02 14 00 02  \.V.\.V...P.....
0CF0: 80 03 F7 0C 01 4C 0D 03  05 10 18 00 02 05 10 02  .....L..........
0D00: 80 02 4C 0D 02 05 10 05  80 04 1B 0D 3F 04 10 05  ..L.........?...
0D10: 10 05 80 15 05 10 05 80  01 1B 0D 02 18 00 17 00  ................
0D20: 05 2B 0D 03 07 10 16 00  01 4C 0D 02 17 00 05 80  .+.......L......
0D30: 04 47 0D 03 05 10 17 00  3F 04 10 05 10 05 80 15  .G......?.......
0D40: 05 10 05 80 01 4C 0D 03  05 10 17 00 02 15 00 02  .....L..........
0D50: 80 00 64 0D 5C 00 58 80  5C 01 58 80 5C 02 56 80  ..d.\.X.\.X.\.V.
0D60: 5C 03 56 80 02 14 00 02  80 03 8D 0D 45 04 80 F0  \.V.........E...
0D70: FF FF 7F F0 FF FF 7F 66  64 69 32 02 80 5C 00 58  .......fdi2..\.X
0D80: 80 5C 01 58 80 5C 02 56  80 5C 03 56 80 06 15 00  .\.X.\.V.\.V....
0D90: 45 01 80 F0 FF FF 7F F0  FF FF 7F 77 68 69 31 02  E..........whi1.
0DA0: 80 45 04 80 F0 FF FF 7F  F0 FF FF 7F 62 6C 6F 66  .E..........blof
0DB0: 02 80 21 00                                       ..!.            
```

#### Opcodes

```
  0: 0x0BB1 [0x79] LocalPlayer looks at LocalPlayer (Basic look)
  1: 0x0BBB [0x03] ExtData[1]->WorkLocal[30] = Work_Zone[2]
  2: 0x0BC0 [0x03] ExtData[1]->WorkLocal[23] = Work_Zone[3]
  3: 0x0BC5 [0x03] ExtData[1]->WorkLocal[24] = Work_Zone[5]
  4: 0x0BCA [0x03] ExtData[1]->WorkLocal[29] = Work_Zone[6]
  5: 0x0BCF [0x03] ExtData[1]->WorkLocal[22] = Work_Zone[7]
  6: 0x0BD4 [0x03] ExtData[1]->WorkLocal[20] = Work_Zone[8]
  7: 0x0BD9 [0x03] ExtData[1]->WorkLocal[25] = Work_Zone[9]
  8: 0x0BDE [0x20] SET_CLI_EVENT_UC_FLAG: Lock player control
  9: 0x0BE0 [0x42] SET_CLI_EVENT_CANCEL_DATA()
 10: 0x0BE1 [0x3B] GET_ENTITY_POSITION(entity=LocalPlayer, x_destination=Work_Zone[32], y_destination=Work_Zone[33], z_destination=Work_Zone[34])
 11: 0x0BEC [0x3A] CONVERT_YAW_TO_BYTE(entity=LocalPlayer, result_destination=Work_Zone[35])
 12: 0x0BF3 [0x02] IF !(ExtData[1]->WorkLocal[29] == 180*) GOTO 0x0BFE
 13: 0x0BFB [0x1C] WAIT(300* ticks)
 14: 0x0BFE [0x45] LOAD_SCHEDULED_TASK: Load scheduler "whi1" with entities [LocalPlayer, LocalPlayer], work=[201*, 0*]
 15: 0x0C0F [0x45] LOAD_SCHEDULED_TASK: Load scheduler "blof" with entities [LocalPlayer, LocalPlayer], work=[200*, 0*]
 16: 0x0C20 [0x45] LOAD_SCHEDULED_TASK: Load scheduler "fdo1" with entities [LocalPlayer, LocalPlayer], work=[200*, 0*]
 17: 0x0C31 [0x55] WAIT_LOAD_SCHEDULER: Wait for scheduler "fdo1" with entities [LocalPlayer, LocalPlayer], work=200*
 18: 0x0C40 [0x6C] FADE_ENTITY_COLOR(entity_id=LocalPlayer, end_alpha=128*, fade_time=1*)
 19: 0x0C49 [0x06] Work_Zone[1] = 0
 20: 0x0C4C [0x02] IF !(ExtData[1]->WorkLocal[20] >= 0*) GOTO 0x0C57
 21: 0x0C54 [0x01] GOTO 0x0C6E
 22: 0x0C57 [0x02] IF !(ExtData[1]->WorkLocal[29] == 999*) GOTO 0x0C62
 23: 0x0C5F [0x01] GOTO 0x0C6E
 24: 0x0C62 [0x47] UPDATE_PLAYER_POS(-60.000*, -380.000*, -8.000*, yaw=90.0°*)
 25: 0x0C6C [0x47] WAIT_PLAYER_POS_UPDATE

SUBROUTINE_0C6E:
 26: 0x0C6E [0x38] SET_CLIENT_EVENT_MODE(mode=19*)
 27: 0x0C71 [0x02] IF !(ExtData[1]->WorkLocal[20] == 1*) GOTO 0x0CD0
 28: 0x0C79 [0x1C] WAIT(15* ticks)
 29: 0x0C7C [0x24] CREATE_DIALOG(message_id=7888*, default_option=1*, option_flags=0*)
    → "Skip the event? [Yes./No.]"
 30: 0x0C83 [0x25] WAIT_DIALOG_SELECT()
 31: 0x0C84 [0x02] IF !(Work_Zone[0] == 0*) GOTO 0x0CD0
 32: 0x0C8C [0x37] UPDATE_EVENT_POSITION_AND_DIR: x=-60.000*, z=-380.000*, y=-8.000*, direction=90.0°*
 33: 0x0C95 [0x80] LOAD_WAIT(entity=LocalPlayer)
 34: 0x0C9A [0x62] LOAD_EVENT_SCHEDULER: Load scheduler "main" with entities [LocalPlayer, LocalPlayer], work=[2*, 0*]
 35: 0x0CAB [0x45] LOAD_SCHEDULED_TASK: Load scheduler "fdi2" with entities [LocalPlayer, LocalPlayer], work=[200*, 0*]
 36: 0x0CBC [0x46] CAMERA_CONTROL: Query status
 37: 0x0CBE [0x10] 0x0200 <<= ExtData[1]->WorkLocal[16]
 38: 0x0CC3 [0x02] IF !(0x80 & 0x0CCA) GOTO 0x0100
 39: 0x0CCB [0xF7] UNKNOWN_OPCODE_0xF7
 40: 0x0CCC [0x0C] 0xD001--
 41: 0x0CCF [0x0C] 0x1402--
 42: 0x0CD2 [0x00] END_REQSTACK()
 43: 0x0CD3 [0x33] EventEntity->Render.Flags0 ^= 0x200000 // Bit 21 (flag=0x80)
 44: 0x0CD5 [0x04] DEPRECATED_NOP(unused=0x0CE9)
 45: 0x0CD8 [0x5C] MUSIC_CONTROL: Set Idle (Day) music to song 143*
 46: 0x0CDC [0x5C] MUSIC_CONTROL: Set Idle (Night) music to song 143*
 47: 0x0CE0 [0x5C] MUSIC_CONTROL: Set Combat (Solo) music to song 143*
 48: 0x0CE4 [0x5C] MUSIC_CONTROL: Set Combat (Party) music to song 143*
 49: 0x0CE8 [0x9A] WAIT_MUSIC_SERVER()
 50: 0x0CE9 [0x1A] CALL_SUBROUTINE(address=0x1050)
 51: 0x0CEC [0x02] IF !(ExtData[1]->WorkLocal[20] >= 0*) GOTO 0x0CF7
 52: 0x0CF4 [0x01] GOTO 0x0D4C
 53: 0x0CF7 [0x03] Work_Zone[5] = ExtData[1]->WorkLocal[24]
 54: 0x0CFC [0x02] IF !(Work_Zone[5] <= 0*) GOTO 0x0D4C
 55: 0x0D04 [0x02] IF !(Work_Zone[5] < 60*) GOTO 0x0D1B
 56: 0x0D0C [0x3F] Work_Zone[4] = Work_Zone[5] % 60*
 57: 0x0D13 [0x15] Work_Zone[5] /= 60*
 58: 0x0D18 [0x01] GOTO 0x0D1B

SUBROUTINE_0D1B:
 59: 0x0D1B [0x02] IF !(ExtData[1]->WorkLocal[24] > ExtData[1]->WorkLocal[23]) GOTO 0x0D2B
 60: 0x0D23 [0x03] Work_Zone[7] = ExtData[1]->WorkLocal[22]
 61: 0x0D28 [0x01] GOTO 0x0D4C
 62: 0x0D2B [0x02] IF !(ExtData[1]->WorkLocal[23] < 60*) GOTO 0x0D47
 63: 0x0D33 [0x03] Work_Zone[5] = ExtData[1]->WorkLocal[23]
 64: 0x0D38 [0x3F] Work_Zone[4] = Work_Zone[5] % 60*
 65: 0x0D3F [0x15] Work_Zone[5] /= 60*
 66: 0x0D44 [0x01] GOTO 0x0D4C
 67: 0x0D47 [0x03] Work_Zone[5] = ExtData[1]->WorkLocal[23]

SUBROUTINE_0D4C:
 68: 0x0D4C [0x02] IF !(ExtData[1]->WorkLocal[21] == 0*) GOTO 0x0D64
 69: 0x0D54 [0x5C] MUSIC_CONTROL: Set Idle (Day) music to song 150*
 70: 0x0D58 [0x5C] MUSIC_CONTROL: Set Idle (Night) music to song 150*
 71: 0x0D5C [0x5C] MUSIC_CONTROL: Set Combat (Solo) music to song 143*
 72: 0x0D60 [0x5C] MUSIC_CONTROL: Set Combat (Party) music to song 143*
 73: 0x0D64 [0x02] IF !(ExtData[1]->WorkLocal[20] >= 0*) GOTO 0x0D8D
 74: 0x0D6C [0x45] LOAD_SCHEDULED_TASK: Load scheduler "fdi2" with entities [LocalPlayer, LocalPlayer], work=[200*, 0*]
 75: 0x0D7D [0x5C] MUSIC_CONTROL: Set Idle (Day) music to song 150*
 76: 0x0D81 [0x5C] MUSIC_CONTROL: Set Idle (Night) music to song 150*
 77: 0x0D85 [0x5C] MUSIC_CONTROL: Set Combat (Solo) music to song 143*
 78: 0x0D89 [0x5C] MUSIC_CONTROL: Set Combat (Party) music to song 143*
 79: 0x0D8D [0x06] ExtData[1]->WorkLocal[21] = 0
 80: 0x0D90 [0x45] LOAD_SCHEDULED_TASK: Load scheduler "whi1" with entities [LocalPlayer, LocalPlayer], work=[201*, 0*]
 81: 0x0DA1 [0x45] LOAD_SCHEDULED_TASK: Load scheduler "blof" with entities [LocalPlayer, LocalPlayer], work=[200*, 0*]
 82: 0x0DB2 [0x21] END_EVENT
 83: 0x0DB3 [0x00] END_REQSTACK()
```

### Event 32003

#### Metadata

| Field        | Value     |
|--------------|-----------|
| Entrypoint   | 0x0DB4    |
| Data Size    | 435 bytes |
| Instructions | 77        |

```
      00 01 02 03 04 05 06 07  08 09 0A 0B 0C 0D 0E 0F
      -- -- -- -- -- -- -- --  -- -- -- -- -- -- -- --
0DB0:             06 1A 00 06  1B 00 03 1E 00 06 10 03      ............
0DC0: 1D 00 07 10 03 1C 00 08  10 06 01 10 1A DA 10 02  ................
0DD0: 1A 00 1F 80 00 65 0F 42  03 01 10 2A 80 43 00 43  .....e.B...*.C.C
0DE0: 01 03 01 10 2C 80 43 00  43 01 1A F1 10 02 1B 00  ....,.C.C.......
0DF0: 1F 80 00 65 0F 45 04 80  F0 FF FF 7F F0 FF FF 7F  ...e.E..........
0E00: 66 64 6F 31 02 80 55 04  80 F0 FF FF 7F F0 FF FF  fdo1..U.........
0E10: 7F 66 64 6F 31 03 01 10  38 80 02 1D 00 5C 80 80  .fdo1...8....\..
0E20: A4 0E 02 1E 00 02 80 80  39 0E 47 00 5F 80 60 80  ........9.G._.`.
0E30: 61 80 62 80 47 01 01 A1  0E 02 1E 00 1F 80 80 50  a.b.G..........P
0E40: 0E 47 00 63 80 64 80 65  80 66 80 47 01 01 A1 0E  .G.c.d.e.f.G....
0E50: 02 1E 00 2A 80 80 67 0E  47 00 67 80 68 80 69 80  ...*..g.G.g.h.i.
0E60: 6A 80 47 01 01 A1 0E 02  1E 00 2C 80 80 7E 0E 47  j.G.......,..~.G
0E70: 00 6B 80 6C 80 6D 80 6E  80 47 01 01 A1 0E 02 1E  .k.l.m.n.G......
0E80: 00 38 80 80 95 0E 47 00  6F 80 70 80 71 80 72 80  .8....G.o.p.q.r.
0E90: 47 01 01 A1 0E 47 00 3A  80 59 80 5A 80 15 80 47  G....G.:.Y.Z...G
0EA0: 01 01 23 0F 02 1D 00 40  80 80 17 0F 02 1C 00 1F  ..#....@........
0EB0: 80 80 C3 0E 47 00 73 80  74 80 75 80 76 80 47 01  ....G.s.t.u.v.G.
0EC0: 01 14 0F 02 1C 00 2A 80  80 DA 0E 47 00 77 80 78  ......*....G.w.x
0ED0: 80 79 80 7A 80 47 01 01  14 0F 02 1C 00 2C 80 80  .y.z.G.......,..
0EE0: F1 0E 47 00 7B 80 7C 80  7D 80 7E 80 47 01 01 14  ..G.{.|.}.~.G...
0EF0: 0F 02 1C 00 38 80 80 08  0F 47 00 7F 80 80 80 81  ....8....G......
0F00: 80 82 80 47 01 01 14 0F  47 00 3A 80 59 80 5A 80  ...G....G.:.Y.Z.
0F10: 15 80 47 01 01 23 0F 47  00 3A 80 59 80 5A 80 15  ..G..#.G.:.Y.Z..
0F20: 80 47 01 38 37 80 79 00  F0 FF FF 7F F0 FF FF 7F  .G.87.y.........
0F30: 1A F5 10 45 01 80 F0 FF  FF 7F F0 FF FF 7F 77 68  ...E..........wh
0F40: 69 31 02 80 45 04 80 F0  FF FF 7F F0 FF FF 7F 62  i1..E..........b
0F50: 6C 6F 66 02 80 5C 00 58  80 5C 01 58 80 5C 02 56  lof..\.X.\.X.\.V
0F60: 80 5C 03 56 80 21 00                              .\.V.!.         
```

#### Opcodes

```
  0: 0x0DB4 [0x06] ExtData[1]->WorkLocal[26] = 0
  1: 0x0DB7 [0x06] ExtData[1]->WorkLocal[27] = 0
  2: 0x0DBA [0x03] ExtData[1]->WorkLocal[30] = Work_Zone[6]
  3: 0x0DBF [0x03] ExtData[1]->WorkLocal[29] = Work_Zone[7]
  4: 0x0DC4 [0x03] ExtData[1]->WorkLocal[28] = Work_Zone[8]
  5: 0x0DC9 [0x06] Work_Zone[1] = 0
  6: 0x0DCC [0x1A] CALL_SUBROUTINE(address=0x10DA)
  7: 0x0DCF [0x02] IF !(ExtData[1]->WorkLocal[26] == 1*) GOTO 0x0F65
  8: 0x0DD7 [0x42] SET_CLI_EVENT_CANCEL_DATA()
  9: 0x0DD8 [0x03] Work_Zone[1] = 2*
 10: 0x0DDD [0x43] SEND_EVENT_UPDATE: Send pending tag to server (packet 0x005B)
 11: 0x0DDF [0x43] SEND_EVENT_UPDATE: Check pending flag (skip if not pending)
 12: 0x0DE1 [0x03] Work_Zone[1] = 3*
 13: 0x0DE6 [0x43] SEND_EVENT_UPDATE: Send pending tag to server (packet 0x005B)
 14: 0x0DE8 [0x43] SEND_EVENT_UPDATE: Check pending flag (skip if not pending)
 15: 0x0DEA [0x1A] CALL_SUBROUTINE(address=0x10F1)
 16: 0x0DED [0x02] IF !(ExtData[1]->WorkLocal[27] == 1*) GOTO 0x0F65
 17: 0x0DF5 [0x45] LOAD_SCHEDULED_TASK: Load scheduler "fdo1" with entities [LocalPlayer, LocalPlayer], work=[200*, 0*]
 18: 0x0E06 [0x55] WAIT_LOAD_SCHEDULER: Wait for scheduler "fdo1" with entities [LocalPlayer, LocalPlayer], work=200*
 19: 0x0E15 [0x03] Work_Zone[1] = 4*
 20: 0x0E1A [0x02] IF !(ExtData[1]->WorkLocal[29] == 180*) GOTO 0x0EA4
