# Event 69

## Metadata

| Field           | Value    |
|-----------------|----------|
| Event Index     | 6/8      |
| Offset          | 0x0097   |
| Data Size       | 48 bytes |
| Calculated Size | 48 bytes |
| Instructions    | 12       |

```
      00 01 02 03 04 05 06 07  08 09 0A 0B 0C 0D 0E 0F
      -- -- -- -- -- -- -- --  -- -- -- -- -- -- -- --
0090:                      42  1E F0 FF FF 7F 6F 70 66         B.....opf
00A0: 02 80 F8 FF FF 7F F8 FF  FF 7F 74 77 62 30 1D 09  ..........twb0..
00B0: 80 23 1D 0A 80 23 66 02  80 F8 FF FF 7F F8 FF FF  .#...#f.........
00C0: 7F 74 77 62 31 21 00                              .twb1!.         
```

## Opcodes

```
  0: 0x0097 [0x42] SET_CLI_EVENT_CANCEL_DATA()
  1: 0x0098 [0x1E] EventEntity looks at LocalPlayer and starts talking
  2: 0x009D [0x6F] WAIT_FRAME_DELAY: Yield until WaitTime reaches zero
  3: 0x009E [0x70] WAIT_ENTITY_RENDER_FLAG: Wait while EventEntity->Render.Flags3 bit 2 is set (cancel turn if not)
  4: 0x009F [0x66] LOAD_EXT_SCHEDULER_MAIN: Load scheduler "twb0" with entities [EventEntity, EventEntity], work=9*
  5: 0x00AE [0x1D] PRINT_EVENT_MESSAGE(message_id=8139*)
    → "Mistress Svenja is unavailable at the moment...but you say you're here to do some research for the library?\u007F1\u0000\u0007"
  6: 0x00B1 [0x23] WAIT_FOR_DIALOG_INTERACTION
  7: 0x00B2 [0x1D] PRINT_EVENT_MESSAGE(message_id=8140*)
    → "Hmm...\u0007No, I see no problem with your records on the Order of Janniston. Carry on.\u007F1\u0000\u0007"
  8: 0x00B5 [0x23] WAIT_FOR_DIALOG_INTERACTION
  9: 0x00B6 [0x66] LOAD_EXT_SCHEDULER_MAIN: Load scheduler "twb1" with entities [EventEntity, EventEntity], work=9*
 10: 0x00C5 [0x21] END_EVENT
 11: 0x00C6 [0x00] END_REQSTACK()
```
