# Event 65535

## Metadata

| Field           | Value    |
|-----------------|----------|
| Event Index     | 33/66    |
| Offset          | 0x01CE   |
| Data Size       | 49 bytes |
| Calculated Size | 49 bytes |
| Instructions    | 9        |

```
      00 01 02 03 04 05 06 07  08 09 0A 0B 0C 0D 0E 0F
      -- -- -- -- -- -- -- --  -- -- -- -- -- -- -- --
01C0:                                            32 04                2.
01D0: 80 1F 00 05 80 06 80 07  80 1F 01 1E F0 FF FF 7F  ................
01E0: 6F 70 5B 00 80 F8 FF FF  7F F8 FF FF 7F 70 61 73  op[..........pas
01F0: 30 53 F8 FF FF 7F F8 FF  FF 7F 70 61 73 30 00     0S........pas0. 
```

## Opcodes

```
  0: 0x01CE [0x32] ExtData[1]->MainSpeed = 13* * 0.1
  1: 0x01D1 [0x1F] MOVE_ENTITY: EventEntity moves to X=27.592*, Z=34.610*, Y=0.000*
  2: 0x01D9 [0x1F] MOVE_ENTITY: Update entity position (mode=1)
  3: 0x01DB [0x1E] EventEntity looks at LocalPlayer and starts talking
  4: 0x01E0 [0x6F] WAIT_FRAME_DELAY: Yield until WaitTime reaches zero
  5: 0x01E1 [0x70] WAIT_ENTITY_RENDER_FLAG: Wait while EventEntity->Render.Flags3 bit 2 is set (cancel turn if not)
  6: 0x01E2 [0x5B] LOAD_EXT_SCHEDULER: Load scheduler "pas0" with entities [EventEntity, EventEntity], work=70*
  7: 0x01F1 [0x53] WAIT_SCHEDULER_TASK: Wait for scheduler "pas0" with entities [EventEntity, EventEntity]
  8: 0x01FE [0x00] END_REQSTACK()
```
