# Event 65535

## Metadata

| Field           | Value    |
|-----------------|----------|
| Event Index     | 12/14    |
| Offset          | 0x00B2   |
| Data Size       | 53 bytes |
| Calculated Size | 53 bytes |
| Instructions    | 11       |

```
      00 01 02 03 04 05 06 07  08 09 0A 0B 0C 0D 0E 0F
      -- -- -- -- -- -- -- --  -- -- -- -- -- -- -- --
00B0:       37 1E 80 1F 80 20  80 21 80 80 F8 FF FF 7F    7.... .!......
00C0: 32 0D 80 1F 00 22 80 23  80 24 80 1F 01 4B 30 21  2....".#.$...K0!
00D0: 03 01 25 80 1C 11 80 6E  30 21 03 01 00 80 99 30  ..%....n0!.....0
00E0: 21 03 01 1C 26 80 00                              !...&..         
```

## Opcodes

```
  0: 0x00B2 [0x37] UPDATE_EVENT_POSITION_AND_DIR: x=-183.147*, z=-826.464*, y=-5.910*, direction=91.8°*
  1: 0x00BB [0x80] LOAD_WAIT(entity=EventEntity)
  2: 0x00C0 [0x32] ExtData[1]->MainSpeed = 13* * 0.1
  3: 0x00C3 [0x1F] MOVE_ENTITY: EventEntity moves to X=-180.188*, Z=-831.578*, Y=-4.632*
  4: 0x00CB [0x1F] MOVE_ENTITY: Update entity position (mode=1)
  5: 0x00CD [0x4B] UPDATE_ENTITY_YAW(entity=Bashraf (ID: 16982320/0x01032130), yaw=4.9°*)
  6: 0x00D4 [0x1C] WAIT(30* ticks)
  7: 0x00D7 [0x6E] Bashraf (ID: 16982320/0x01032130) uses emote 0*
  8: 0x00DE [0x99] Wait for Bashraf (ID: 16982320/0x01032130) animation to complete
  9: 0x00E3 [0x1C] WAIT(90* ticks)
 10: 0x00E6 [0x00] END_REQSTACK()
```
