# Event 65535

## Metadata

| Field           | Value    |
|-----------------|----------|
| Event Index     | 12/15    |
| Offset          | 0x004A   |
| Data Size       | 58 bytes |
| Calculated Size | 58 bytes |
| Instructions    | 6        |

```
      00 01 02 03 04 05 06 07  08 09 0A 0B 0C 0D 0E 0F
      -- -- -- -- -- -- -- --  -- -- -- -- -- -- -- --
0040:                                CD 03 80 E9 E0 08            ......
0050: 01 E9 E0 08 01 73 30 30  34 00 80 1C 04 80 CD 03  .....s004.......
0060: 80 EA E0 08 01 EA E0 08  01 73 30 30 34 00 80 1C  .........s004...
0070: 05 80 CD 03 80 EB E0 08  01 EB E0 08 01 73 30 30  .............s00
0080: 34 00 80 00                                       4...            
```

## Opcodes

```
  0: 0x004A [0xCD] LOAD_SCHEDULED_TASK_ALT4(work_offset=62*, entity1=isi1 (ID: 17359081/0x0108E0E9), entity2=isi1 (ID: 17359081/0x0108E0E9), action="s004", work_offset2=0*)
  1: 0x005B [0x1C] WAIT(5* ticks)
  2: 0x005E [0xCD] LOAD_SCHEDULED_TASK_ALT4(work_offset=62*, entity1=isi2 (ID: 17359082/0x0108E0EA), entity2=isi2 (ID: 17359082/0x0108E0EA), action="s004", work_offset2=0*)
  3: 0x006F [0x1C] WAIT(10* ticks)
  4: 0x0072 [0xCD] LOAD_SCHEDULED_TASK_ALT4(work_offset=62*, entity1=isi3 (ID: 17359083/0x0108E0EB), entity2=isi3 (ID: 17359083/0x0108E0EB), action="s004", work_offset2=0*)
  5: 0x0083 [0x00] END_REQSTACK()
```
