# Event 65535

## Metadata

| Field           | Value    |
|-----------------|----------|
| Event Index     | 13/15    |
| Offset          | 0x0084   |
| Data Size       | 58 bytes |
| Calculated Size | 58 bytes |
| Instructions    | 6        |

```
      00 01 02 03 04 05 06 07  08 09 0A 0B 0C 0D 0E 0F
      -- -- -- -- -- -- -- --  -- -- -- -- -- -- -- --
0080:             CD 03 80 EC  E0 08 01 EC E0 08 01 73      ...........s
0090: 30 30 34 00 80 1C 05 80  CD 03 80 ED E0 08 01 ED  004.............
00A0: E0 08 01 73 30 30 34 00  80 1C 04 80 CD 03 80 EE  ...s004.........
00B0: E0 08 01 EE E0 08 01 73  30 30 34 00 80 00        .......s004...  
```

## Opcodes

```
  0: 0x0084 [0xCD] LOAD_SCHEDULED_TASK_ALT4(work_offset=62*, entity1=isi4 (ID: 17359084/0x0108E0EC), entity2=isi4 (ID: 17359084/0x0108E0EC), action="s004", work_offset2=0*)
  1: 0x0095 [0x1C] WAIT(10* ticks)
  2: 0x0098 [0xCD] LOAD_SCHEDULED_TASK_ALT4(work_offset=62*, entity1=isi5 (ID: 17359085/0x0108E0ED), entity2=isi5 (ID: 17359085/0x0108E0ED), action="s004", work_offset2=0*)
  3: 0x00A9 [0x1C] WAIT(5* ticks)
  4: 0x00AC [0xCD] LOAD_SCHEDULED_TASK_ALT4(work_offset=62*, entity1=isi6 (ID: 17359086/0x0108E0EE), entity2=isi6 (ID: 17359086/0x0108E0EE), action="s004", work_offset2=0*)
  5: 0x00BD [0x00] END_REQSTACK()
```
