# Event 65535

## Metadata

| Field           | Value    |
|-----------------|----------|
| Event Index     | 8/11     |
| Offset          | 0x0060   |
| Data Size       | 75 bytes |
| Calculated Size | 75 bytes |
| Instructions    | 11       |

```
      00 01 02 03 04 05 06 07  08 09 0A 0B 0C 0D 0E 0F
      -- -- -- -- -- -- -- --  -- -- -- -- -- -- -- --
0060: 6E F8 FF FF 7F 0B 80 99  F8 FF FF 7F 1C 0F 80 4A  n..............J
0070: 47 B2 08 01 F8 FF FF 7F  1C 04 80 4A F0 FF FF 7F  G..........J....
0080: F8 FF FF 7F 1C 04 80 45  10 80 F0 FF FF 7F F0 FF  .......E........
0090: FF 7F 71 30 30 35 09 80  1C 11 80 55 10 80 F0 FF  ..q005.....U....
00A0: FF 7F F0 FF FF 7F 71 30  30 35 00                 ......q005.     
```

## Opcodes

```
  0: 0x0060 [0x6E] EventEntity uses emote 13*
  1: 0x0067 [0x99] Wait for EventEntity animation to complete
  2: 0x006C [0x1C] WAIT(30* ticks)
  3: 0x006F [0x4A] Eideialc (ID: 17347143/0x0108B247) looks at EventEntity
  4: 0x0078 [0x1C] WAIT(10* ticks)
  5: 0x007B [0x4A] LocalPlayer looks at EventEntity
  6: 0x0084 [0x1C] WAIT(10* ticks)
  7: 0x0087 [0x45] LOAD_SCHEDULED_TASK: Load scheduler "q005" with entities [LocalPlayer, LocalPlayer], work=[39*, 0*]
  8: 0x0098 [0x1C] WAIT(130* ticks)
  9: 0x009B [0x55] WAIT_LOAD_SCHEDULER: Wait for scheduler "q005" with entities [LocalPlayer, LocalPlayer], work=39*
 10: 0x00AA [0x00] END_REQSTACK()
```
