# 17146615 - Klara

## Common Data

| Field            | Value                           |
|------------------|---------------------------------|
| Zone             | Pashhow Marshlands [S] (ID: 90) |
| Block Size       | 180 bytes                       |
| Total Events     | 4                               |
| References Count | 15                              |

## List of Events

| Event ID                 | Entrypoint   |   Size |   Instructions |
|--------------------------|--------------|--------|----------------|
| [65535](#event-65535)    | 0x0000       |      1 |              1 |
| [902](#event-902)        | 0x0001       |      1 |              1 |
| [65535.1](#event-655351) | 0x0002       |     14 |              4 |
| [65535.2](#event-655352) | 0x0010       |     69 |             11 |

## DAT References (imed_data)

|   Index | Hex Value   |   Dec Value |
|---------|-------------|-------------|
|       0 | 0x0028      |          40 |
|       1 | 0x3C7CC     |      247756 |
|       2 | 0x3F366     |      258918 |
|       3 | 0x0499      |        1177 |
|       4 | 0x4918C     |      299404 |
|       5 | 0x3F545     |      259397 |
|       6 | 0x02B3      |         691 |
|       7 | 0x4926E     |      299630 |
|       8 | 0x3F7C3     |      260035 |
|       9 | 0x48EE0     |      298720 |
|      10 | 0x3F82F     |      260143 |
|      11 | 0x000F      |          15 |
|      12 | 0x0545      |        1349 |
|      13 | 0x014D      |         333 |
|      14 | 0x0000      |           0 |

## Events

### Event 65535

#### Metadata

| Field        | Value   |
|--------------|---------|
| Entrypoint   | 0x0000  |
| Data Size    | 1 bytes |
| Instructions | 1       |

```
      00 01 02 03 04 05 06 07  08 09 0A 0B 0C 0D 0E 0F
      -- -- -- -- -- -- -- --  -- -- -- -- -- -- -- --
0000: 00                                                .               
```

#### Opcodes

```
  0: 0x0000 [0x00] END_REQSTACK()
```

### Event 902

#### Metadata

| Field        | Value   |
|--------------|---------|
| Entrypoint   | 0x0001  |
| Data Size    | 1 bytes |
| Instructions | 1       |

```
      00 01 02 03 04 05 06 07  08 09 0A 0B 0C 0D 0E 0F
      -- -- -- -- -- -- -- --  -- -- -- -- -- -- -- --
0000:    00                                              .              
```

#### Opcodes

```
  0: 0x0001 [0x00] END_REQSTACK()
```

### Event 65535.1

#### Metadata

| Field        | Value    |
|--------------|----------|
| Entrypoint   | 0x0002   |
| Data Size    | 14 bytes |
| Instructions | 4        |

```
      00 01 02 03 04 05 06 07  08 09 0A 0B 0C 0D 0E 0F
      -- -- -- -- -- -- -- --  -- -- -- -- -- -- -- --
0000:       32 00 80 1F 00 01  80 02 80 03 80 1F 01 00    2.............
```

#### Opcodes

```
  0: 0x0002 [0x32] ExtData[1]->MainSpeed = 40* * 0.1
  1: 0x0005 [0x1F] MOVE_ENTITY: EventEntity moves to X=247.756*, Z=258.918*, Y=1.177*
  2: 0x000D [0x1F] MOVE_ENTITY: Update entity position (mode=1)
  3: 0x000F [0x00] END_REQSTACK()
```

### Event 65535.2

#### Metadata

| Field        | Value    |
|--------------|----------|
| Entrypoint   | 0x0010   |
| Data Size    | 69 bytes |
| Instructions | 11       |

```
      00 01 02 03 04 05 06 07  08 09 0A 0B 0C 0D 0E 0F
      -- -- -- -- -- -- -- --  -- -- -- -- -- -- -- --
0010: 32 00 80 1F 00 04 80 05  80 06 80 1F 01 1F 00 07  2...............
0020: 80 08 80 06 80 1F 01 1F  00 09 80 0A 80 06 80 1F  ................
0030: 01 1C 0B 80 5B 0C 80 F7  A2 05 01 F7 A2 05 01 65  ....[..........e
0040: 76 61 30 45 0D 80 F8 FF  FF 7F F8 FF FF 7F 65 76  va0E..........ev
0050: 61 31 0E 80 00                                    a1...           
```

#### Opcodes

```
  0: 0x0010 [0x32] ExtData[1]->MainSpeed = 40* * 0.1
  1: 0x0013 [0x1F] MOVE_ENTITY: EventEntity moves to X=299.404*, Z=259.397*, Y=0.691*
  2: 0x001B [0x1F] MOVE_ENTITY: Update entity position (mode=1)
  3: 0x001D [0x1F] MOVE_ENTITY: EventEntity moves to X=299.630*, Z=260.035*, Y=0.691*
  4: 0x0025 [0x1F] MOVE_ENTITY: Update entity position (mode=1)
  5: 0x0027 [0x1F] MOVE_ENTITY: EventEntity moves to X=298.720*, Z=260.143*, Y=0.691*
  6: 0x002F [0x1F] MOVE_ENTITY: Update entity position (mode=1)
  7: 0x0031 [0x1C] WAIT(15* ticks)
  8: 0x0034 [0x5B] LOAD_EXT_SCHEDULER: Load scheduler "eva0" with entities [Klara (ID: 17146615/0x0105A2F7), Klara (ID: 17146615/0x0105A2F7)], work=1349*
  9: 0x0043 [0x45] LOAD_SCHEDULED_TASK: Load scheduler "eva1" with entities [EventEntity, EventEntity], work=[333*, 0*]
 10: 0x0054 [0x00] END_REQSTACK()
```
