# 17146659

## Common Data

| Field            | Value                           |
|------------------|---------------------------------|
| Zone             | Pashhow Marshlands [S] (ID: 90) |
| Block Size       | 12260 bytes                     |
| Total Events     | 6                               |
| References Count | 251                             |

## List of Events

| Event ID              | Entrypoint   |   Size |   Instructions |
|-----------------------|--------------|--------|----------------|
| [65535](#event-65535) | 0x0000       |      1 |              1 |
| [7](#event-7)         | 0x0001       |   1515 |            186 |
| [8](#event-8)         | 0x05EC       |   5856 |            703 |
| [9](#event-9)         | 0x1CCC       |    529 |             71 |
| [10](#event-10)       | 0x1EDD       |   1311 |            161 |
| [12](#event-12)       | 0x23FC       |   2002 |            242 |

## DAT References (imed_data)

|   Index | Hex Value   |   Dec Value |
|---------|-------------|-------------|
|       0 | 0x0000      |           0 |
|       1 | 0x0078      |         120 |
|       2 | 0x0013      |          19 |
|       3 | 0x535E7     |      341479 |
|       4 | 0xFFFD966A  |  4294809194 |
|       5 | 0x61A7      |       24999 |
|       6 | 0x0314      |         788 |
|       7 | 0x544F4     |      345332 |
|       8 | 0xFFFD8C15  |  4294806549 |
|       9 | 0x095E      |        2398 |
|      10 | 0x53ADD     |      342749 |
|      11 | 0xFFFD8943  |  4294805827 |
|      12 | 0x464F      |       17999 |
|      13 | 0x0F40      |        3904 |
|      14 | 0x0001      |           1 |
|      15 | 0x001E      |          30 |
|      16 | 0x0241      |         577 |
|      17 | 0x003C      |          60 |
|      18 | 0x22F7      |        8951 |
|      19 | 0x001D      |          29 |
|      20 | 0x002B      |          43 |
|      21 | 0x005A      |          90 |
|      22 | 0x0014      |          20 |
|      23 | 0x00B4      |         180 |
|      24 | 0x0002      |           2 |
|      25 | 0x22F8      |        8952 |
|      26 | 0x0020      |          32 |
|      27 | 0x0006      |           6 |
|      28 | 0x0007      |           7 |
|      29 | 0x0029      |          41 |
|      30 | 0x0586      |        1414 |
|      31 | 0x0005      |           5 |
|      32 | 0x22F9      |        8953 |
|      33 | 0x0582      |        1410 |
|      34 | 0x22FA      |        8954 |
|      35 | 0x012C      |         300 |
|      36 | 0x22FB      |        8955 |
|      37 | 0x09AB      |        2475 |
|      38 | 0x22FC      |        8956 |
|      39 | 0x22FD      |        8957 |
|      40 | 0x00F0      |         240 |
|      41 | 0x22FE      |        8958 |
|      42 | 0x09D7      |        2519 |
|      43 | 0x22FF      |        8959 |
|      44 | 0x2300      |        8960 |
|      45 | 0x2301      |        8961 |
|      46 | 0x2302      |        8962 |
|      47 | 0x0015      |          21 |
|      48 | 0x0025      |          37 |
|      49 | 0x00C3      |         195 |
|      50 | 0x0096      |         150 |
|      51 | 0x000F      |          15 |
|      52 | 0x0080      |         128 |
|      53 | 0x00C8      |         200 |
|      54 | 0x00B6      |         182 |
|      55 | 0x00FF      |         255 |
|      56 | 0xFFF43284  |  4294193796 |
|      57 | 0xFFF995DA  |  4294546906 |
|      58 | 0x1AD6      |        6870 |
|      59 | 0x0569      |        1385 |
|      60 | 0xFFF4375F  |  4294195039 |
|      61 | 0xFFF98F75  |  4294545269 |
|      62 | 0x16EE      |        5870 |
|      63 | 0x057B      |        1403 |
|      64 | 0xFFF41C26  |  4294188070 |
|      65 | 0xFFF973E5  |  4294538213 |
|      66 | 0x300C      |       12300 |
|      67 | 0x051E      |        1310 |
|      68 | 0x0584      |        1412 |
|      69 | 0x007B      |         123 |
|      70 | 0x002A      |          42 |
|      71 | 0x1EDE      |        7902 |
|      72 | 0x2303      |        8963 |
|      73 | 0x2304      |        8964 |
|      74 | 0x2305      |        8965 |
|      75 | 0x0003      |           3 |
|      76 | 0x0004      |           4 |
|      77 | 0x0008      |           8 |
|      78 | 0x2306      |        8966 |
|      79 | 0x2307      |        8967 |
|      80 | 0x0520      |        1312 |
|      81 | 0x2308      |        8968 |
|      82 | 0x2309      |        8969 |
|      83 | 0x0074      |         116 |
|      84 | 0x002D      |          45 |
|      85 | 0xFFF46C13  |  4294208531 |
|      86 | 0xFFF993B8  |  4294546360 |
|      87 | 0x018F      |         399 |
|      88 | 0x0940      |        2368 |
|      89 | 0xFFF46126  |  4294205734 |
|      90 | 0xFFF997D8  |  4294547416 |
|      91 | 0x07CB      |        1995 |
|      92 | 0x230A      |        8970 |
|      93 | 0x230B      |        8971 |
|      94 | 0x230C      |        8972 |
|      95 | 0x2310      |        8976 |
|      96 | 0x2311      |        8977 |
|      97 | 0x2312      |        8978 |
|      98 | 0x2313      |        8979 |
|      99 | 0x2314      |        8980 |
|     100 | 0x2315      |        8981 |
|     101 | 0x2316      |        8982 |
|     102 | 0x2317      |        8983 |
|     103 | 0x09D8      |        2520 |
|     104 | 0x2318      |        8984 |
|     105 | 0x010E      |         270 |
|     106 | 0x2319      |        8985 |
|     107 | 0x09DF      |        2527 |
|     108 | 0x231A      |        8986 |
|     109 | 0x230D      |        8973 |
|     110 | 0x230E      |        8974 |
|     111 | 0x230F      |        8975 |
|     112 | 0x231B      |        8987 |
|     113 | 0x231C      |        8988 |
|     114 | 0x231D      |        8989 |
|     115 | 0x0832      |        2098 |
|     116 | 0xFFF4770A  |  4294211338 |
|     117 | 0xFFF99744  |  4294547268 |
|     118 | 0x231E      |        8990 |
|     119 | 0x0EF5      |        3829 |
|     120 | 0xFFF48DF7  |  4294217207 |
|     121 | 0xFFF99753  |  4294547283 |
|     122 | 0x0800      |        2048 |
|     123 | 0x231F      |        8991 |
|     124 | 0x2320      |        8992 |
|     125 | 0x2321      |        8993 |
|     126 | 0x2322      |        8994 |
|     127 | 0x2323      |        8995 |
|     128 | 0x2324      |        8996 |
|     129 | 0x0079      |         121 |
|     130 | 0x0B2B      |        2859 |
|     131 | 0x2325      |        8997 |
|     132 | 0x0A52      |        2642 |
|     133 | 0x00A0      |         160 |
|     134 | 0x2326      |        8998 |
|     135 | 0x2327      |        8999 |
|     136 | 0x2328      |        9000 |
|     137 | 0x2329      |        9001 |
|     138 | 0x0018      |          24 |
|     139 | 0x232A      |        9002 |
|     140 | 0x232B      |        9003 |
|     141 | 0x232C      |        9004 |
|     142 | 0x0A57      |        2647 |
|     143 | 0x232D      |        9005 |
|     144 | 0x232E      |        9006 |
|     145 | 0x232F      |        9007 |
|     146 | 0x2330      |        9008 |
|     147 | 0x2331      |        9009 |
|     148 | 0x2332      |        9010 |
|     149 | 0x2333      |        9011 |
|     150 | 0x2334      |        9012 |
|     151 | 0x2335      |        9013 |
|     152 | 0x0A4C      |        2636 |
|     153 | 0x2336      |        9014 |
|     154 | 0x2337      |        9015 |
|     155 | 0x2338      |        9016 |
|     156 | 0x2339      |        9017 |
|     157 | 0x233B      |        9019 |
|     158 | 0x233A      |        9018 |
|     159 | 0x233C      |        9020 |
|     160 | 0x233E      |        9022 |
|     161 | 0x233F      |        9023 |
|     162 | 0x2340      |        9024 |
|     163 | 0x2341      |        9025 |
|     164 | 0x2342      |        9026 |
|     165 | 0x2343      |        9027 |
|     166 | 0x2344      |        9028 |
|     167 | 0x2345      |        9029 |
|     168 | 0x2346      |        9030 |
|     169 | 0x2347      |        9031 |
|     170 | 0x008C      |         140 |
|     171 | 0x2348      |        9032 |
|     172 | 0x2349      |        9033 |
|     173 | 0x234A      |        9034 |
|     174 | 0x234B      |        9035 |
|     175 | 0x234C      |        9036 |
|     176 | 0x234D      |        9037 |
|     177 | 0x017C      |         380 |
|     178 | 0x234E      |        9038 |
|     179 | 0x234F      |        9039 |
|     180 | 0x051F      |        1311 |
|     181 | 0x2350      |        9040 |
|     182 | 0x2351      |        9041 |
|     183 | 0x2352      |        9042 |
|     184 | 0x0AC3      |        2755 |
|     185 | 0x2353      |        9043 |
|     186 | 0x00DF      |         223 |
|     187 | 0x53411     |      341009 |
|     188 | 0xFFFD9E93  |  4294811283 |
|     189 | 0x0637      |        1591 |
|     190 | 0x52A41     |      338497 |
|     191 | 0xFFFD8768  |  4294805352 |
|     192 | 0x5759      |       22361 |
|     193 | 0x0E74      |        3700 |
|     194 | 0x2355      |        9045 |
|     195 | 0x007F      |         127 |
|     196 | 0xFFF465E1  |  4294206945 |
|     197 | 0xFFF997EA  |  4294547434 |
|     198 | 0x000C      |          12 |
|     199 | 0xFFF46E6C  |  4294209132 |
|     200 | 0xFFF993FF  |  4294546431 |
|     201 | 0x0FF8      |        4088 |
|     202 | 0xFFF47741  |  4294211393 |
|     203 | 0xFFF999E3  |  4294547939 |
|     204 | 0x07DF      |        2015 |
|     205 | 0x2356      |        9046 |
|     206 | 0x2357      |        9047 |
|     207 | 0x2358      |        9048 |
|     208 | 0x2359      |        9049 |
|     209 | 0x235A      |        9050 |
|     210 | 0x235B      |        9051 |
|     211 | 0x235C      |        9052 |
|     212 | 0x235D      |        9053 |
|     213 | 0x235E      |        9054 |
|     214 | 0x235F      |        9055 |
|     215 | 0x2360      |        9056 |
|     216 | 0x2361      |        9057 |
|     217 | 0x2362      |        9058 |
|     218 | 0x2363      |        9059 |
|     219 | 0x2364      |        9060 |
|     220 | 0x2365      |        9061 |
|     221 | 0x2366      |        9062 |
|     222 | 0x2367      |        9063 |
|     223 | 0x2368      |        9064 |
|     224 | 0x2369      |        9065 |
|     225 | 0x236A      |        9066 |
|     226 | 0x236B      |        9067 |
|     227 | 0xFFF4767F  |  4294211199 |
|     228 | 0xFFF98AC0  |  4294544064 |
|     229 | 0x0432      |        1074 |
|     230 | 0x0242      |         578 |
|     231 | 0x236F      |        9071 |
|     232 | 0x0A53      |        2643 |
|     233 | 0x2370      |        9072 |
|     234 | 0x2371      |        9073 |
|     235 | 0x2372      |        9074 |
|     236 | 0x2373      |        9075 |
|     237 | 0x2374      |        9076 |
|     238 | 0x2375      |        9077 |
|     239 | 0x2376      |        9078 |
|     240 | 0x2377      |        9079 |
|     241 | 0x2378      |        9080 |
|     242 | 0x2379      |        9081 |
|     243 | 0x237A      |        9082 |
|     244 | 0x237B      |        9083 |
|     245 | 0x237C      |        9084 |
|     246 | 0x237D      |        9085 |
|     247 | 0x237E      |        9086 |
|     248 | 0x237F      |        9087 |
|     249 | 0x00C9      |         201 |
|     250 | 0x00D7      |         215 |

## String References

- **7902**: @@
- **8952**: How will you respond? [What a...curious beast./Cait Sith...?]
- **8972**: What's the matter? [You seem...different somehow./Didn't you vanish?]
- **9017**: The Magian Mooglehood...? [For true./Never heard of 'em.]

## Events

### Event 65535

#### Metadata

| Field        | Value   |
|--------------|---------|
| Entrypoint   | 0x0000  |
| Data Size    | 1 bytes |
| Instructions | 1       |

```
      00 01 02 03 04 05 06 07  08 09 0A 0B 0C 0D 0E 0F
      -- -- -- -- -- -- -- --  -- -- -- -- -- -- -- --
0000: 00                                                .               
```

#### Opcodes

```
  0: 0x0000 [0x00] END_REQSTACK()
```

### Event 7

#### Metadata

| Field        | Value      |
|--------------|------------|
| Entrypoint   | 0x0001     |
| Data Size    | 1515 bytes |
| Instructions | 186        |

```
      00 01 02 03 04 05 06 07  08 09 0A 0B 0C 0D 0E 0F
      -- -- -- -- -- -- -- --  -- -- -- -- -- -- -- --
0000:    42 5D 00 80 01 80 1A  A0 29 03 01 00 02 10 03   B]......)......
0010: 00 00 09 10 46 01 38 02  80 27 10 24 A3 05 01 04  ....F.8..'.$....
0020: 92 01 24 A3 05 01 94 01  F0 FF FF 7F 94 01 24 A3  ..$...........$.
0030: 05 01 BA F0 FF FF 7F 03  80 04 80 05 80 06 80 BA  ................
0040: 24 A3 05 01 07 80 08 80  05 80 09 80 59 05 FF A2  $...........Y...
0050: 05 01 01 BA FF A2 05 01  0A 80 0B 80 0C 80 0D 80  ................
0060: 29 10 24 A3 05 01 0A 29  10 24 A3 05 01 0D 80 F0  ).$....).$......
0070: FF FF 7F 80 24 A3 05 01  6C 24 A3 05 01 00 80 0E  ....$...l$......
0080: 80 79 00 F0 FF FF 7F FF  A2 05 01 1C 0F 80 45 10  .y............E.
0090: 80 F0 FF FF 7F F0 FF FF  7F 76 31 30 30 00 80 1A  .........v100...
00A0: 7F 29 1C 11 80 29 10 F0  FF FF 7F 1D 2B 24 A3 05  .)...)......+$..
00B0: 01 12 80 23 52 10 80 F0  FF FF 7F F0 FF FF 7F 76  ...#R..........v
00C0: 31 30 30 45 10 80 F0 FF  FF 7F F0 FF FF 7F 76 31  100E..........v1
00D0: 30 31 00 80 7B F0 FF FF  7F 6E F0 FF FF 7F 13 80  01..{....n......
00E0: 99 F0 FF FF 7F 1C 01 80  52 10 80 F0 FF FF 7F F0  ........R.......
00F0: FF FF 7F 76 31 30 31 45  10 80 F0 FF FF 7F F0 FF  ...v101E........
0100: FF 7F 76 31 30 32 00 80  C5 14 80 24 A3 05 01 24  ..v102.....$...$
0110: A3 05 01 73 74 30 31 00  80 1C 15 80 C5 14 80 24  ...st01........$
0120: A3 05 01 24 A3 05 01 73  74 30 32 00 80 1C 11 80  ...$...st02.....
0130: 52 10 80 F0 FF FF 7F F0  FF FF 7F 76 31 30 32 45  R..........v102E
0140: 10 80 F0 FF FF 7F F0 FF  FF 7F 76 31 30 33 00 80  ..........v103..
0150: 1C 11 80 52 10 80 F0 FF  FF 7F F0 FF FF 7F 76 31  ...R..........v1
0160: 30 33 45 10 80 F0 FF FF  7F F0 FF FF 7F 76 31 30  03E..........v10
0170: 34 00 80 4A F0 FF FF 7F  24 A3 05 01 6F 76 F0 FF  4..J....$...ov..
0180: FF 7F 1C 11 80 C5 14 80  24 A3 05 01 24 A3 05 01  ........$...$...
0190: 73 74 30 33 00 80 1C 16  80 52 10 80 F0 FF FF 7F  st03.....R......
01A0: F0 FF FF 7F 76 31 30 34  45 10 80 F0 FF FF 7F F0  ....v104E.......
01B0: FF FF 7F 76 31 30 35 00  80 1C 17 80 52 10 80 F0  ...v105.....R...
01C0: FF FF 7F F0 FF FF 7F 76  31 30 35 45 10 80 F0 FF  .......v105E....
01D0: FF 7F F0 FF FF 7F 76 31  30 36 00 80 02 01 00 18  ......v106......
01E0: 80 04 EC 01 03 02 00 00  80 01 F1 01 03 02 00 18  ................
01F0: 80 24 19 80 00 80 02 00  25 02 00 10 00 80 00 26  .$......%......&
0200: 02 52 10 80 F0 FF FF 7F  F0 FF FF 7F 76 31 30 36  .R..........v106
0210: 27 10 FF A2 05 01 09 6E  F0 FF FF 7F 1A 80 99 F0  '......n........
0220: FF FF 7F 01 62 02 02 00  10 0E 80 00 62 02 52 10  ....b.......b.R.
0230: 80 F0 FF FF 7F F0 FF FF  7F 76 31 30 36 27 10 FF  .........v106'..
0240: A2 05 01 09 6E F0 FF FF  7F 1B 80 99 F0 FF FF 7F  ....n...........
0250: 1C 15 80 6E F0 FF FF 7F  1C 80 99 F0 FF FF 7F 01  ...n............
0260: 62 02 5C 00 1D 80 5C 01  1D 80 9A 5B 1E 80 24 A3  b.\...\....[..$.
0270: 05 01 24 A3 05 01 74 6C  62 30 03 02 10 01 80 27  ..$...tlb0.....'
0280: 10 FE A2 05 01 01 2A 10  FF A2 05 01 1C 1F 80 52  ......*........R
0290: 10 80 F0 FF FF 7F F0 FF  FF 7F 76 31 68 6D 52 10  ..........v1hmR.
02A0: 80 F0 FF FF 7F F0 FF FF  7F 76 31 68 66 52 10 80  .........v1hfR..
02B0: F0 FF FF 7F F0 FF FF 7F  76 31 65 6D 52 10 80 F0  ........v1emR...
02C0: FF FF 7F F0 FF FF 7F 76  31 65 66 52 10 80 F0 FF  .......v1efR....
02D0: FF 7F F0 FF FF 7F 76 31  74 72 52 10 80 F0 FF FF  ......v1trR.....
02E0: 7F F0 FF FF 7F 76 31 6D  74 52 10 80 F0 FF FF 7F  .....v1mtR......
02F0: F0 FF FF 7F 76 31 67 6C  45 10 80 F0 FF FF 7F F0  ....v1glE.......
0300: FF FF 7F 76 31 30 38 00  80 29 10 24 A3 05 01 0B  ...v108..).$....
0310: 2B 24 A3 05 01 20 80 23  2A 10 FE A2 05 01 81 00  +$... .#*.......
0320: 24 A3 05 01 5B 21 80 24  A3 05 01 24 A3 05 01 79  $...[!.$...$...y
0330: 6F 79 30 1C 0F 80 52 10  80 F0 FF FF 7F F0 FF FF  oy0...R.........
0340: 7F 76 31 30 38 45 10 80  F0 FF FF 7F F0 FF FF 7F  .v108E..........
0350: 76 31 30 37 00 80 2B 24  A3 05 01 22 80 1C 23 80  v107..+$..."..#.
0360: 52 10 80 F0 FF FF 7F F0  FF FF 7F 76 31 30 37 45  R..........v107E
0370: 10 80 F0 FF FF 7F F0 FF  FF 7F 76 31 30 39 00 80  ..........v109..
0380: 23 2B 24 A3 05 01 24 80  23 53 24 A3 05 01 24 A3  #+$...$.#S$...$.
0390: 05 01 79 6F 79 30 5B 25  80 24 A3 05 01 24 A3 05  ..yoy0[%.$...$..
03A0: 01 79 6F 79 31 03 02 10  01 80 27 10 FE A2 05 01  .yoy1.....'.....
03B0: 01 1C 0F 80 2B 24 A3 05  01 26 80 23 2A 10 FE A2  ....+$...&.#*...
03C0: 05 01 52 10 80 F0 FF FF  7F F0 FF FF 7F 76 31 30  ..R..........v10
03D0: 39 45 10 80 F0 FF FF 7F  F0 FF FF 7F 76 31 31 30  9E..........v110
03E0: 00 80 5B 25 80 24 A3 05  01 24 A3 05 01 79 6F 79  ..[%.$...$...yoy
03F0: 32 2B 24 A3 05 01 27 80  1C 28 80 23 7C 00 24 A3  2+$...'..(.#|.$.
0400: 05 01 2B 24 A3 05 01 29  80 23 7C 01 24 A3 05 01  ..+$...).#|.$...
0410: 52 10 80 F0 FF FF 7F F0  FF FF 7F 76 31 31 30 27  R..........v110'
0420: 10 FF A2 05 01 0A 1C 0F  80 5B 2A 80 24 A3 05 01  .........[*.$...
0430: 24 A3 05 01 34 33 30 35  1C 0F 80 52 10 80 F0 FF  $...4305...R....
0440: FF 7F F0 FF FF 7F 76 31  31 30 45 10 80 F0 FF FF  ......v110E.....
0450: 7F F0 FF FF 7F 76 31 31  31 00 80 29 10 24 A3 05  .....v111..).$..
0460: 01 0C 2B 24 A3 05 01 2B  80 23 2B 24 A3 05 01 2C  ..+$...+.#+$...,
0470: 80 23 52 10 80 F0 FF FF  7F F0 FF FF 7F 76 31 31  .#R..........v11
0480: 31 45 10 80 F0 FF FF 7F  F0 FF FF 7F 76 31 31 32  1E..........v112
0490: 00 80 1C 0F 80 2B 24 A3  05 01 2D 80 23 52 10 80  .....+$...-.#R..
04A0: F0 FF FF 7F F0 FF FF 7F  76 31 31 32 45 10 80 F0  ........v112E...
04B0: FF FF 7F F0 FF FF 7F 76  31 31 33 00 80 5B 2A 80  .......v113..[*.
04C0: 24 A3 05 01 24 A3 05 01  34 33 30 36 03 02 10 01  $...$...4306....
04D0: 80 27 10 FE A2 05 01 01  2B 24 A3 05 01 2E 80 1C  .'......+$......
04E0: 11 80 6E F0 FF FF 7F 2F  80 99 F0 FF FF 7F 23 2A  ..n..../......#*
04F0: 10 FE A2 05 01 52 10 80  F0 FF FF 7F F0 FF FF 7F  .....R..........
0500: 76 31 31 33 45 10 80 F0  FF FF 7F F0 FF FF 7F 76  v113E..........v
0510: 31 31 34 00 80 5D 00 80  23 80 CD 30 80 F0 FF FF  114..]..#..0....
0520: 7F F0 FF FF 7F 73 74 30  31 00 80 1C 0F 80 BB 31  .....st01......1
0530: 80 24 A3 05 01 24 A3 05  01 73 74 30 33 00 80 1C  .$...$...st03...
0540: 11 80 92 01 F0 FF FF 7F  1C 01 80 52 10 80 F8 FF  ...........R....
0550: FF 7F F8 FF FF 7F 76 31  31 34 45 10 80 F8 FF FF  ......v114E.....
0560: 7F F8 FF FF 7F 76 31 31  35 00 80 CD 30 80 F0 FF  .....v115...0...
0570: FF 7F F0 FF FF 7F 73 74  30 32 00 80 1C 0F 80 BB  ......st02......
0580: 31 80 24 A3 05 01 24 A3  05 01 73 74 30 32 00 80  1.$...$...st02..
0590: 1C 32 80 1A A0 29 1C 0F  80 52 10 80 F8 FF FF 7F  .2...)...R......
05A0: F8 FF FF 7F 76 31 31 35  45 10 80 F8 FF FF 7F F8  ....v115E.......
05B0: FF FF 7F 30 62 6C 66 00  80 1C 33 80 AB 11 00 80  ...0blf...3.....
05C0: 1C 0E 80 02 00 00 00 80  00 CE 05 30 21 00 6C F0  ...........0!.l.
05D0: FF FF 7F 34 80 0E 80 46  00 45 35 80 F0 FF FF 7F  ...4...F.E5.....
05E0: F0 FF FF 7F 66 64 69 32  00 80 21 00              ....fdi2..!.    
```

#### Opcodes

```
  0: 0x0001 [0x42] SET_CLI_EVENT_CANCEL_DATA()
  1: 0x0002 [0x5D] SET_MUSIC_VOLUME(volume=0*, fade_time=120*)
  2: 0x0007 [0x1A] CALL_SUBROUTINE(address=0x29A0)
  3: 0x000A [0x03] ExtData[1]->WorkLocal[1] = Work_Zone[2]
  4: 0x000F [0x03] ExtData[1]->WorkLocal[0] = Work_Zone[9]
  5: 0x0014 [0x46] CAMERA_CONTROL: Disable user control
  6: 0x0016 [0x38] SET_CLIENT_EVENT_MODE(mode=19*)
  7: 0x0019 [0x27] REQ_SET(priority=0x10, entity_id=Unnamed NPC (ID: 17146660/0x0105A324), tag_num=0x04)
  8: 0x0020 [0x92] Unnamed NPC (ID: 17146660/0x0105A324)->Render.Flags3 ^= 0x01
  9: 0x0026 [0x94] LocalPlayer->Render.Flags3 ^= 0x01
 10: 0x002C [0x94] Unnamed NPC (ID: 17146660/0x0105A324)->Render.Flags3 ^= 0x01
 11: 0x0032 [0xBA] SET_ENTITY_POSITION(entity_id=LocalPlayer, pos_x=341.479*, pos_z=-158.102*, pos_y=24.999*, direction=69.3°*)
 12: 0x003F [0xBA] SET_ENTITY_POSITION(entity_id=Unnamed NPC (ID: 17146660/0x0105A324), pos_x=345.332*, pos_z=-160.747*, pos_y=24.999*, direction=210.8°*)
 13: 0x004C [0x59] UPDATE_ENTITY_DATA: Unnamed NPC (ID: 17146623/0x0105A2FF)->Render.Flags0 |= 0x200000
 14: 0x0053 [0xBA] SET_ENTITY_POSITION(entity_id=Unnamed NPC (ID: 17146623/0x0105A2FF), pos_x=342.749*, pos_z=-161.469*, pos_y=17.999*, direction=343.1°*)
 15: 0x0060 [0x29] REQ_SET_WAIT(priority=0x10, entity_id=Unnamed NPC (ID: 17146660/0x0105A324), tag_num=0x0A)
 16: 0x0067 [0x29] REQ_SET_WAIT(priority=0x10, entity_id=Unnamed NPC (ID: 17146660/0x0105A324), tag_num=0x0D)
 17: 0x006E [0x80] LOAD_WAIT(entity=LocalPlayer)
 18: 0x0073 [0x80] LOAD_WAIT(entity=Unnamed NPC (ID: 17146660/0x0105A324))
 19: 0x0078 [0x6C] FADE_ENTITY_COLOR(entity_id=Unnamed NPC (ID: 17146660/0x0105A324), end_alpha=0*, fade_time=1*)
 20: 0x0081 [0x79] LocalPlayer looks at Unnamed NPC (ID: 17146623/0x0105A2FF) (Basic look)
 21: 0x008B [0x1C] WAIT(30* ticks)
 22: 0x008E [0x45] LOAD_SCHEDULED_TASK: Load scheduler "v100" with entities [LocalPlayer, LocalPlayer], work=[577*, 0*]
 23: 0x009F [0x1A] CALL_SUBROUTINE(address=0x297F)
 24: 0x00A2 [0x1C] WAIT(60* ticks)
 25: 0x00A5 [0x29] REQ_SET_WAIT(priority=0x10, entity_id=LocalPlayer, tag_num=0x1D)
 26: 0x00AC [0x2B] Unnamed NPC (ID: 17146660/0x0105A324) [8951*]:
    → "I've found you, <Player>! Picked you out of a pile of chocobo bedding!"
 27: 0x00B3 [0x23] WAIT_FOR_DIALOG_INTERACTION
 28: 0x00B4 [0x52] END_LOAD_SCHEDULER: End scheduler "v100" with entities [LocalPlayer, LocalPlayer], work=577*
 29: 0x00C3 [0x45] LOAD_SCHEDULED_TASK: Load scheduler "v101" with entities [LocalPlayer, LocalPlayer], work=[577*, 0*]
 30: 0x00D4 [0x7B] LocalPlayer stops talking
 31: 0x00D9 [0x6E] LocalPlayer uses emote 29*
 32: 0x00E0 [0x99] Wait for LocalPlayer animation to complete
 33: 0x00E5 [0x1C] WAIT(120* ticks)
 34: 0x00E8 [0x52] END_LOAD_SCHEDULER: End scheduler "v101" with entities [LocalPlayer, LocalPlayer], work=577*
 35: 0x00F7 [0x45] LOAD_SCHEDULED_TASK: Load scheduler "v102" with entities [LocalPlayer, LocalPlayer], work=[577*, 0*]
 36: 0x0108 [0xC5] LOAD_SCHEDULED_TASK_ALT3: Load scheduler 0x80003130 for entities [Unnamed NPC (ID: 17146660/0x0105A324), Unnamed NPC (ID: 17146660/0x0105A324)], work=43*, param=29811
 37: 0x0119 [0x1C] WAIT(90* ticks)
 38: 0x011C [0xC5] LOAD_SCHEDULED_TASK_ALT3: Load scheduler 0x80003230 for entities [Unnamed NPC (ID: 17146660/0x0105A324), Unnamed NPC (ID: 17146660/0x0105A324)], work=43*, param=29811
 39: 0x012D [0x1C] WAIT(60* ticks)
 40: 0x0130 [0x52] END_LOAD_SCHEDULER: End scheduler "v102" with entities [LocalPlayer, LocalPlayer], work=577*
 41: 0x013F [0x45] LOAD_SCHEDULED_TASK: Load scheduler "v103" with entities [LocalPlayer, LocalPlayer], work=[577*, 0*]
 42: 0x0150 [0x1C] WAIT(60* ticks)
 43: 0x0153 [0x52] END_LOAD_SCHEDULER: End scheduler "v103" with entities [LocalPlayer, LocalPlayer], work=577*
 44: 0x0162 [0x45] LOAD_SCHEDULED_TASK: Load scheduler "v104" with entities [LocalPlayer, LocalPlayer], work=[577*, 0*]
 45: 0x0173 [0x4A] LocalPlayer looks at Unnamed NPC (ID: 17146660/0x0105A324)
 46: 0x017C [0x6F] WAIT_FRAME_DELAY: Yield until WaitTime reaches zero
 47: 0x017D [0x76] CHECK_ENTITY_RENDER_FLAGS: Wait until LocalPlayer Render.Flags0 and Render.Flags3 conditions are met
 48: 0x0182 [0x1C] WAIT(60* ticks)
 49: 0x0185 [0xC5] LOAD_SCHEDULED_TASK_ALT3: Load scheduler 0x80003330 for entities [Unnamed NPC (ID: 17146660/0x0105A324), Unnamed NPC (ID: 17146660/0x0105A324)], work=43*, param=29811
 50: 0x0196 [0x1C] WAIT(20* ticks)
 51: 0x0199 [0x52] END_LOAD_SCHEDULER: End scheduler "v104" with entities [LocalPlayer, LocalPlayer], work=577*
 52: 0x01A8 [0x45] LOAD_SCHEDULED_TASK: Load scheduler "v105" with entities [LocalPlayer, LocalPlayer], work=[577*, 0*]
 53: 0x01B9 [0x1C] WAIT(180* ticks)
 54: 0x01BC [0x52] END_LOAD_SCHEDULER: End scheduler "v105" with entities [LocalPlayer, LocalPlayer], work=577*
 55: 0x01CB [0x45] LOAD_SCHEDULED_TASK: Load scheduler "v106" with entities [LocalPlayer, LocalPlayer], work=[577*, 0*]
 56: 0x01DC [0x02] IF !(ExtData[1]->WorkLocal[1] < 2*) GOTO 0x01EC
 57: 0x01E4 [0x03] ExtData[1]->WorkLocal[2] = 0*
 58: 0x01E9 [0x01] GOTO 0x01F1
 59: 0x01EC [0x03] ExtData[1]->WorkLocal[2] = 2*

SUBROUTINE_01F1:
 60: 0x01F1 [0x24] CREATE_DIALOG(message_id=8952*, default_option=0*, option_flags=ExtData[1]->WorkLocal[2])
    → "How will you respond? [What a...curious beast./Cait Sith...?]"
 61: 0x01F8 [0x25] WAIT_DIALOG_SELECT()
 62: 0x01F9 [0x02] IF !(Work_Zone[0] == 0*) GOTO 0x0226
 63: 0x0201 [0x52] END_LOAD_SCHEDULER: End scheduler "v106" with entities [LocalPlayer, LocalPlayer], work=577*
 64: 0x0210 [0x27] REQ_SET(priority=0x10, entity_id=Unnamed NPC (ID: 17146623/0x0105A2FF), tag_num=0x09)
 65: 0x0217 [0x6E] LocalPlayer uses emote 32*
 66: 0x021E [0x99] Wait for LocalPlayer animation to complete
 67: 0x0223 [0x01] GOTO 0x0262
 68: 0x0226 [0x02] IF !(Work_Zone[0] == 1*) GOTO 0x0262
 69: 0x022E [0x52] END_LOAD_SCHEDULER: End scheduler "v106" with entities [LocalPlayer, LocalPlayer], work=577*
 70: 0x023D [0x27] REQ_SET(priority=0x10, entity_id=Unnamed NPC (ID: 17146623/0x0105A2FF), tag_num=0x09)
 71: 0x0244 [0x6E] LocalPlayer uses emote 6*
 72: 0x024B [0x99] Wait for LocalPlayer animation to complete
 73: 0x0250 [0x1C] WAIT(90* ticks)
 74: 0x0253 [0x6E] LocalPlayer uses emote 7*
 75: 0x025A [0x99] Wait for LocalPlayer animation to complete
 76: 0x025F [0x01] GOTO 0x0262

SUBROUTINE_0262:
 77: 0x0262 [0x5C] MUSIC_CONTROL: Set Idle (Day) music to song 41*
 78: 0x0266 [0x5C] MUSIC_CONTROL: Set Idle (Night) music to song 41*
 79: 0x026A [0x9A] WAIT_MUSIC_SERVER()
 80: 0x026B [0x5B] LOAD_EXT_SCHEDULER: Load scheduler "tlb0" with entities [Unnamed NPC (ID: 17146660/0x0105A324), Unnamed NPC (ID: 17146660/0x0105A324)], work=1414*
 81: 0x027A [0x03] Work_Zone[2] = 120*
 82: 0x027F [0x27] REQ_SET(priority=0x10, entity_id=??? (ID: 17146622/0x0105A2FE), tag_num=0x01)
 83: 0x0286 [0x2A] GET_REQ_LEVEL(level=16, entity_id=Unnamed NPC (ID: 17146623/0x0105A2FF))
 84: 0x028C [0x1C] WAIT(5* ticks)
 85: 0x028F [0x52] END_LOAD_SCHEDULER: End scheduler "v1hm" with entities [LocalPlayer, LocalPlayer], work=577*
 86: 0x029E [0x52] END_LOAD_SCHEDULER: End scheduler "v1hf" with entities [LocalPlayer, LocalPlayer], work=577*
 87: 0x02AD [0x52] END_LOAD_SCHEDULER: End scheduler "v1em" with entities [LocalPlayer, LocalPlayer], work=577*
 88: 0x02BC [0x52] END_LOAD_SCHEDULER: End scheduler "v1ef" with entities [LocalPlayer, LocalPlayer], work=577*
 89: 0x02CB [0x52] END_LOAD_SCHEDULER: End scheduler "v1tr" with entities [LocalPlayer, LocalPlayer], work=577*
 90: 0x02DA [0x52] END_LOAD_SCHEDULER: End scheduler "v1mt" with entities [LocalPlayer, LocalPlayer], work=577*
 91: 0x02E9 [0x52] END_LOAD_SCHEDULER: End scheduler "v1gl" with entities [LocalPlayer, LocalPlayer], work=577*
 92: 0x02F8 [0x45] LOAD_SCHEDULED_TASK: Load scheduler "v108" with entities [LocalPlayer, LocalPlayer], work=[577*, 0*]
 93: 0x0309 [0x29] REQ_SET_WAIT(priority=0x10, entity_id=Unnamed NPC (ID: 17146660/0x0105A324), tag_num=0x0B)
 94: 0x0310 [0x2B] Unnamed NPC (ID: 17146660/0x0105A324) [8953*]:
    → "What!? Have you lost your wits, <Player>? Suffered any blows to the head?"
 95: 0x0317 [0x23] WAIT_FOR_DIALOG_INTERACTION
 96: 0x0318 [0x2A] GET_REQ_LEVEL(level=16, entity_id=??? (ID: 17146622/0x0105A2FE))
 97: 0x031E [0x81] SET_ENTITY_BLINKING(blink_flag=0x00, entity=Unnamed NPC (ID: 17146660/0x0105A324))
 98: 0x0324 [0x5B] LOAD_EXT_SCHEDULER: Load scheduler "yoy0" with entities [Unnamed NPC (ID: 17146660/0x0105A324), Unnamed NPC (ID: 17146660/0x0105A324)], work=1410*
 99: 0x0333 [0x1C] WAIT(30* ticks)
100: 0x0336 [0x52] END_LOAD_SCHEDULER: End scheduler "v108" with entities [LocalPlayer, LocalPlayer], work=577*
101: 0x0345 [0x45] LOAD_SCHEDULED_TASK: Load scheduler "v107" with entities [LocalPlayer, LocalPlayer], work=[577*, 0*]
102: 0x0356 [0x2B] Unnamed NPC (ID: 17146660/0x0105A324) [8954*]:
    → "That you could forget about me, after all we've been through together! Why, it's unforgivable! Not to be forgiven!"
103: 0x035D [0x1C] WAIT(300* ticks)
104: 0x0360 [0x52] END_LOAD_SCHEDULER: End scheduler "v107" with entities [LocalPlayer, LocalPlayer], work=577*
105: 0x036F [0x45] LOAD_SCHEDULED_TASK: Load scheduler "v109" with entities [LocalPlayer, LocalPlayer], work=[577*, 0*]
106: 0x0380 [0x23] WAIT_FOR_DIALOG_INTERACTION
107: 0x0381 [0x2B] Unnamed NPC (ID: 17146660/0x0105A324) [8955*]:
    → "Wait a moment... Could this be a result of the dimensional disturbance?"
108: 0x0388 [0x23] WAIT_FOR_DIALOG_INTERACTION
109: 0x0389 [0x53] WAIT_SCHEDULER_TASK: Wait for scheduler "yoy0" with entities [Unnamed NPC (ID: 17146660/0x0105A324), Unnamed NPC (ID: 17146660/0x0105A324)]
110: 0x0396 [0x5B] LOAD_EXT_SCHEDULER: Load scheduler "yoy1" with entities [Unnamed NPC (ID: 17146660/0x0105A324), Unnamed NPC (ID: 17146660/0x0105A324)], work=2475*
111: 0x03A5 [0x03] Work_Zone[2] = 120*
112: 0x03AA [0x27] REQ_SET(priority=0x10, entity_id=??? (ID: 17146622/0x0105A2FE), tag_num=0x01)
113: 0x03B1 [0x1C] WAIT(30* ticks)
114: 0x03B4 [0x2B] Unnamed NPC (ID: 17146660/0x0105A324) [8956*]:
    → "Oh, Goddess have mercy!"
115: 0x03BB [0x23] WAIT_FOR_DIALOG_INTERACTION
116: 0x03BC [0x2A] GET_REQ_LEVEL(level=16, entity_id=??? (ID: 17146622/0x0105A2FE))
117: 0x03C2 [0x52] END_LOAD_SCHEDULER: End scheduler "v109" with entities [LocalPlayer, LocalPlayer], work=577*
118: 0x03D1 [0x45] LOAD_SCHEDULED_TASK: Load scheduler "v110" with entities [LocalPlayer, LocalPlayer], work=[577*, 0*]
119: 0x03E2 [0x5B] LOAD_EXT_SCHEDULER: Load scheduler "yoy2" with entities [Unnamed NPC (ID: 17146660/0x0105A324), Unnamed NPC (ID: 17146660/0x0105A324)], work=2475*
120: 0x03F1 [0x2B] Unnamed NPC (ID: 17146660/0x0105A324) [8957*]:
    → "Have I merged with a plane where you know not of me? Where we are but strangers in the night?"
121: 0x03F8 [0x1C] WAIT(240* ticks)
122: 0x03FB [0x23] WAIT_FOR_DIALOG_INTERACTION
123: 0x03FC [0x7C] Unnamed NPC (ID: 17146660/0x0105A324)->Render.Flags2 |= 0x00
124: 0x0402 [0x2B] Unnamed NPC (ID: 17146660/0x0105A324) [8958*]:
    → "..."
125: 0x0409 [0x23] WAIT_FOR_DIALOG_INTERACTION
126: 0x040A [0x7C] Unnamed NPC (ID: 17146660/0x0105A324)->Render.Flags2 |= 0x01
127: 0x0410 [0x52] END_LOAD_SCHEDULER: End scheduler "v110" with entities [LocalPlayer, LocalPlayer], work=577*
128: 0x041F [0x27] REQ_SET(priority=0x10, entity_id=Unnamed NPC (ID: 17146623/0x0105A2FF), tag_num=0x0A)
129: 0x0426 [0x1C] WAIT(30* ticks)
130: 0x0429 [0x5B] LOAD_EXT_SCHEDULER: Load scheduler "4305" with entities [Unnamed NPC (ID: 17146660/0x0105A324), Unnamed NPC (ID: 17146660/0x0105A324)], work=2519*
131: 0x0438 [0x1C] WAIT(30* ticks)
132: 0x043B [0x52] END_LOAD_SCHEDULER: End scheduler "v110" with entities [LocalPlayer, LocalPlayer], work=577*
133: 0x044A [0x45] LOAD_SCHEDULED_TASK: Load scheduler "v111" with entities [LocalPlayer, LocalPlayer], work=[577*, 0*]
134: 0x045B [0x29] REQ_SET_WAIT(priority=0x10, entity_id=Unnamed NPC (ID: 17146660/0x0105A324), tag_num=0x0C)
135: 0x0462 [0x2B] Unnamed NPC (ID: 17146660/0x0105A324) [8959*]:
    → "No, you mustn't give up. Be strong, Cait Sith! Buck up your spirits!"
136: 0x0469 [0x23] WAIT_FOR_DIALOG_INTERACTION
137: 0x046A [0x2B] Unnamed NPC (ID: 17146660/0x0105A324) [8960*]:
    → "This is the <Player> you know! There is no doubt of that."
138: 0x0471 [0x23] WAIT_FOR_DIALOG_INTERACTION
139: 0x0472 [0x52] END_LOAD_SCHEDULER: End scheduler "v111" with entities [LocalPlayer, LocalPlayer], work=577*
140: 0x0481 [0x45] LOAD_SCHEDULED_TASK: Load scheduler "v112" with entities [LocalPlayer, LocalPlayer], work=[577*, 0*]
141: 0x0492 [0x1C] WAIT(30* ticks)
142: 0x0495 [0x2B] Unnamed NPC (ID: 17146660/0x0105A324) [8961*]:
    → "<Ahem>... Pardon me. We can discuss the details another day."
143: 0x049C [0x23] WAIT_FOR_DIALOG_INTERACTION
144: 0x049D [0x52] END_LOAD_SCHEDULER: End scheduler "v112" with entities [LocalPlayer, LocalPlayer], work=577*
145: 0x04AC [0x45] LOAD_SCHEDULED_TASK: Load scheduler "v113" with entities [LocalPlayer, LocalPlayer], work=[577*, 0*]
146: 0x04BD [0x5B] LOAD_EXT_SCHEDULER: Load scheduler "4306" with entities [Unnamed NPC (ID: 17146660/0x0105A324), Unnamed NPC (ID: 17146660/0x0105A324)], work=2519*
147: 0x04CC [0x03] Work_Zone[2] = 120*
148: 0x04D1 [0x27] REQ_SET(priority=0x10, entity_id=??? (ID: 17146622/0x0105A2FE), tag_num=0x01)
149: 0x04D8 [0x2B] Unnamed NPC (ID: 17146660/0x0105A324) [8962*]:
    → "What matters now is that I have urgent need of your services. So come along quickly, <Player>! No time to dally!"
150: 0x04DF [0x1C] WAIT(60* ticks)
151: 0x04E2 [0x6E] LocalPlayer uses emote 21*
152: 0x04E9 [0x99] Wait for LocalPlayer animation to complete
153: 0x04EE [0x23] WAIT_FOR_DIALOG_INTERACTION
154: 0x04EF [0x2A] GET_REQ_LEVEL(level=16, entity_id=??? (ID: 17146622/0x0105A2FE))
155: 0x04F5 [0x52] END_LOAD_SCHEDULER: End scheduler "v113" with entities [LocalPlayer, LocalPlayer], work=577*
156: 0x0504 [0x45] LOAD_SCHEDULED_TASK: Load scheduler "v114" with entities [LocalPlayer, LocalPlayer], work=[577*, 0*]
157: 0x0515 [0x5D] SET_MUSIC_VOLUME(volume=0*, fade_time=300*)
158: 0x051A [0xCD] LOAD_SCHEDULED_TASK_ALT4: Load scheduler "st01" with entities [LocalPlayer, LocalPlayer], work=[37*, 0*]
159: 0x052B [0x1C] WAIT(30* ticks)
160: 0x052E [0xBB] LOAD_EVENT_SCHEDULER_ALT: Load scheduler "st03" with entities [Unnamed NPC (ID: 17146660/0x0105A324), Unnamed NPC (ID: 17146660/0x0105A324)], work=[195*, 0*]
161: 0x053F [0x1C] WAIT(60* ticks)
162: 0x0542 [0x92] LocalPlayer->Render.Flags3 ^= 0x01
163: 0x0548 [0x1C] WAIT(120* ticks)
164: 0x054B [0x52] END_LOAD_SCHEDULER: End scheduler "v114" with entities [EventEntity, EventEntity], work=577*
165: 0x055A [0x45] LOAD_SCHEDULED_TASK: Load scheduler "v115" with entities [EventEntity, EventEntity], work=[577*, 0*]
166: 0x056B [0xCD] LOAD_SCHEDULED_TASK_ALT4: Load scheduler "st02" with entities [LocalPlayer, LocalPlayer], work=[37*, 0*]
167: 0x057C [0x1C] WAIT(30* ticks)
168: 0x057F [0xBB] LOAD_EVENT_SCHEDULER_ALT: Load scheduler "st02" with entities [Unnamed NPC (ID: 17146660/0x0105A324), Unnamed NPC (ID: 17146660/0x0105A324)], work=[195*, 0*]
169: 0x0590 [0x1C] WAIT(150* ticks)
170: 0x0593 [0x1A] CALL_SUBROUTINE(address=0x29A0)
171: 0x0596 [0x1C] WAIT(30* ticks)
172: 0x0599 [0x52] END_LOAD_SCHEDULER: End scheduler "v115" with entities [EventEntity, EventEntity], work=577*
173: 0x05A8 [0x45] LOAD_SCHEDULED_TASK: Load scheduler "0blf" with entities [EventEntity, EventEntity], work=[577*, 0*]
174: 0x05B9 [0x1C] WAIT(15* ticks)
175: 0x05BC [0xAB] EventEntity->DespawnValue = 0* // Set despawn value
176: 0x05C0 [0x1C] WAIT(1* ticks)
177: 0x05C3 [0x02] IF !(ExtData[1]->WorkLocal[0] == 0*) GOTO 0x05CE
178: 0x05CB [0x30] SET_UCOFF_CONTINUE_ZERO()
179: 0x05CC [0x21] END_EVENT
180: 0x05CD [0x00] END_REQSTACK()
181: 0x05CE [0x6C] FADE_ENTITY_COLOR(entity_id=LocalPlayer, end_alpha=128*, fade_time=1*)
182: 0x05D7 [0x46] CAMERA_CONTROL: Restore default settings
183: 0x05D9 [0x45] LOAD_SCHEDULED_TASK: Load scheduler "fdi2" with entities [LocalPlayer, LocalPlayer], work=[200*, 0*]
184: 0x05EA [0x21] END_EVENT
185: 0x05EB [0x00] END_REQSTACK()
```

### Event 8

#### Metadata

| Field        | Value      |
|--------------|------------|
| Entrypoint   | 0x05EC     |
| Data Size    | 5856 bytes |
| Instructions | 702        |

```
      00 01 02 03 04 05 06 07  08 09 0A 0B 0C 0D 0E 0F
      -- -- -- -- -- -- -- --  -- -- -- -- -- -- -- --
05E0:                                      42 5D 00 80              B]..
05F0: 01 80 1A A0 29 43 00 43  01 03 01 00 02 10 03 00  ....)C.C........
0600: 00 09 10 46 01 38 02 80  4E 00 F0 FF FF 7F 34 36  ...F.8..N.....46
0610: 80 77 37 80 02 80 1C 0F  80 AB 09 2D F0 FF FF 7F  .w7........-....
0620: F0 FF FF 7F 73 74 61 31  2D F0 FF FF 7F F0 FF FF  ....sta1-.......
0630: 7F 73 74 61 32 2D F0 FF  FF 7F F0 FF FF 7F 73 74  .sta2-........st
0640: 61 33 2D F0 FF FF 7F F0  FF FF 7F 73 74 61 34 4E  a3-........sta4N
0650: 00 FF A2 05 01 27 10 24  A3 05 01 04 27 10 25 A3  .....'.$....'.%.
0660: 05 01 02 92 00 F0 FF FF  7F 92 01 25 A3 05 01 92  ...........%....
0670: 01 24 A3 05 01 94 01 F0  FF FF 7F 94 01 24 A3 05  .$...........$..
0680: 01 94 01 25 A3 05 01 59  05 F0 FF FF 7F 01 BA F0  ...%...Y........
0690: FF FF 7F 38 80 39 80 3A  80 3B 80 59 05 24 A3 05  ...8.9.:.;.Y.$..
06A0: 01 01 BA 24 A3 05 01 3C  80 3D 80 3E 80 3F 80 59  ...$...<.=.>.?.Y
06B0: 05 FF A2 05 01 01 BA FF  A2 05 01 40 80 41 80 42  ...........@.A.B
06C0: 80 43 80 29 10 24 A3 05  01 0C 29 10 24 A3 05 01  .C.).$....).$...
06D0: 0D 29 10 25 A3 05 01 09  29 10 25 A3 05 01 0B 80  .).%....).%.....
06E0: F0 FF FF 7F 80 24 A3 05  01 80 25 A3 05 01 4A F0  .....$....%...J.
06F0: FF FF 7F FF A2 05 01 4A  24 A3 05 01 FF A2 05 01  .......J$.......
0700: 6F 76 24 A3 05 01 1C 0F  80 27 10 24 A3 05 01 0E  ov$......'.$....
0710: 6C 25 A3 05 01 00 80 0E  80 5B 44 80 24 A3 05 01  l%.......[D.$...
0720: 24 A3 05 01 75 64 65 6C  CD 45 80 FF A2 05 01 FF  $...udel.E......
0730: A2 05 01 73 30 30 30 00  80 29 10 F0 FF FF 7F 1E  ...s000..)......
0740: 5C 00 46 80 5C 01 46 80  9A 48 47 80 23 45 10 80  \.F.\.F..HG.#E..
0750: F8 FF FF 7F F8 FF FF 7F  76 31 32 30 00 80 1A 7F  ........v120....
0760: 29 1C 17 80 52 10 80 F8  FF FF 7F F8 FF FF 7F 76  )...R..........v
0770: 31 32 30 45 10 80 F8 FF  FF 7F F8 FF FF 7F 76 31  120E..........v1
0780: 32 31 00 80 1C 01 80 52  10 80 F8 FF FF 7F F8 FF  21.....R........
0790: FF 7F 76 31 32 31 45 10  80 F8 FF FF 7F F8 FF FF  ..v121E.........
07A0: 7F 76 31 32 32 00 80 1C  11 80 2B 24 A3 05 01 48  .v122.....+$...H
07B0: 80 23 52 10 80 F8 FF FF  7F F8 FF FF 7F 76 31 32  .#R..........v12
07C0: 32 45 10 80 F8 FF FF 7F  F8 FF FF 7F 76 31 32 33  2E..........v123
07D0: 00 80 1C 11 80 2B 24 A3  05 01 49 80 23 2B 24 A3  .....+$...I.#+$.
07E0: 05 01 4A 80 23 29 10 F0  FF FF 7F 1B 52 10 80 F8  ..J.#)......R...
07F0: FF FF 7F F8 FF FF 7F 76  31 32 33 02 02 10 0E 80  .......v123.....
0800: 80 17 08 45 10 80 F8 FF  FF 7F F8 FF FF 7F 76 31  ...E..........v1
0810: 32 35 00 80 01 DB 08 02  02 10 18 80 80 33 08 45  25...........3.E
0820: 10 80 F8 FF FF 7F F8 FF  FF 7F 76 31 32 35 00 80  ..........v125..
0830: 01 DB 08 02 02 10 4B 80  80 4F 08 45 10 80 F8 FF  ......K..O.E....
0840: FF 7F F8 FF FF 7F 76 31  32 34 00 80 01 DB 08 02  ......v124......
0850: 02 10 4C 80 80 6B 08 45  10 80 F8 FF FF 7F F8 FF  ..L..k.E........
0860: FF 7F 76 31 32 34 00 80  01 DB 08 02 02 10 1F 80  ..v124..........
0870: 80 87 08 45 10 80 F8 FF  FF 7F F8 FF FF 7F 76 31  ...E..........v1
0880: 32 36 00 80 01 DB 08 02  02 10 1B 80 80 A3 08 45  26.............E
0890: 10 80 F8 FF FF 7F F8 FF  FF 7F 76 31 32 36 00 80  ..........v126..
08A0: 01 DB 08 02 02 10 1C 80  80 BF 08 45 10 80 F8 FF  ...........E....
08B0: FF 7F F8 FF FF 7F 76 31  32 35 00 80 01 DB 08 02  ......v125......
08C0: 02 10 4D 80 80 DB 08 45  10 80 F8 FF FF 7F F8 FF  ..M....E........
08D0: FF 7F 76 31 32 34 00 80  01 DB 08 2B 24 A3 05 01  ..v124.....+$...
08E0: 4E 80 23 5B 44 80 24 A3  05 01 24 A3 05 01 75 64  N.#[D.$...$...ud
08F0: 65 31 53 24 A3 05 01 24  A3 05 01 75 64 65 31 52  e1S$...$...ude1R
0900: 10 80 F8 FF FF 7F F8 FF  FF 7F 76 31 32 34 52 10  ..........v124R.
0910: 80 F8 FF FF 7F F8 FF FF  7F 76 31 32 35 52 10 80  .........v125R..
0920: F8 FF FF 7F F8 FF FF 7F  76 31 32 36 45 10 80 F8  ........v126E...
0930: FF FF 7F F8 FF FF 7F 76  31 32 37 00 80 7A 00 24  .......v127..z.$
0940: A3 05 01 4A 24 A3 05 01  F0 FF FF 7F 6F 76 24 A3  ...J$.......ov$.
0950: 05 01 27 10 24 A3 05 01  0E 79 00 F0 FF FF 7F 24  ..'.$....y.....$
0960: A3 05 01 2B 24 A3 05 01  4F 80 23 5B 50 80 24 A3  ...+$...O.#[P.$.
0970: 05 01 24 A3 05 01 70 6E  74 30 1C 0F 80 2B 24 A3  ..$...pnt0...+$.
0980: 05 01 51 80 23 52 10 80  F8 FF FF 7F F8 FF FF 7F  ..Q.#R..........
0990: 76 31 32 37 45 10 80 F8  FF FF 7F F8 FF FF 7F 76  v127E..........v
09A0: 31 32 38 00 80 2B 24 A3  05 01 52 80 1C 0F 80 79  128..+$...R....y
09B0: 00 F0 FF FF 7F FF A2 05  01 1C 15 80 23 CD 53 80  ............#.S.
09C0: F0 FF FF 7F F0 FF FF 7F  69 6E 30 30 00 80 1C 54  ........in00...T
09D0: 80 CD 53 80 24 A3 05 01  24 A3 05 01 69 6E 30 30  ..S.$...$...in00
09E0: 00 80 1C 01 80 92 01 F0  FF FF 7F 7A 00 24 A3 05  ...........z.$..
09F0: 01 52 10 80 F8 FF FF 7F  F8 FF FF 7F 76 31 32 38  .R..........v128
0A00: 45 10 80 F8 FF FF 7F F8  FF FF 7F 76 31 32 39 00  E..........v129.
0A10: 80 1C 11 80 59 05 F0 FF  FF 7F 00 BA F0 FF FF 7F  ....Y...........
0A20: 55 80 56 80 57 80 58 80  59 05 24 A3 05 01 00 BA  U.V.W.X.Y.$.....
0A30: 24 A3 05 01 59 80 5A 80  57 80 5B 80 4A 24 A3 05  $...Y.Z.W.[.J$..
0A40: 01 FF A2 05 01 6B 69 64  6C 30 24 A3 05 01 1C 11  .....kidl0$.....
0A50: 80 52 10 80 F8 FF FF 7F  F8 FF FF 7F 76 31 32 39  .R..........v129
0A60: 45 10 80 F8 FF FF 7F F8  FF FF 7F 76 31 33 30 00  E..........v130.
0A70: 80 1C 33 80 CD 53 80 F0  FF FF 7F F0 FF FF 7F 6F  ..3..S.........o
0A80: 75 74 31 00 80 1C 54 80  CD 53 80 24 A3 05 01 24  ut1...T..S.$...$
0A90: A3 05 01 6F 75 74 31 00  80 1C 01 80 92 00 F0 FF  ...out1.........
0AA0: FF 7F 27 10 F0 FF FF 7F  1F 03 02 10 01 80 27 10  ..'...........'.
0AB0: FE A2 05 01 01 52 10 80  F8 FF FF 7F F8 FF FF 7F  .....R..........
0AC0: 76 31 33 30 45 10 80 F8  FF FF 7F F8 FF FF 7F 76  v130E..........v
0AD0: 31 33 31 00 80 2B 24 A3  05 01 5C 80 2A 10 FE A2  131..+$...\.*...
0AE0: 05 01 4A F0 FF FF 7F 24  A3 05 01 23 4A 24 A3 05  ..J....$...#J$..
0AF0: 01 F0 FF FF 7F 6F 76 24  A3 05 01 02 01 00 18 80  .....ov$........
0B00: 04 B4 0F 2B 24 A3 05 01  5D 80 23 02 01 00 4B 80  ...+$...].#...K.
0B10: 04 1B 0B 03 02 00 00 80  01 20 0B 03 02 00 18 80  ......... ......
0B20: 24 5E 80 00 80 02 00 25  02 00 10 00 80 00 FE 0E  $^.....%........
0B30: 29 10 F0 FF FF 7F 14 52  10 80 F8 FF FF 7F F8 FF  )......R........
0B40: FF 7F 76 31 33 31 52 10  80 F8 FF FF 7F F8 FF FF  ..v131R.........
0B50: 7F 76 31 33 36 45 10 80  F8 FF FF 7F F8 FF FF 7F  .v136E..........
0B60: 76 31 33 37 00 80 2B 24  A3 05 01 5F 80 23 5B 43  v137..+$..._.#[C
0B70: 80 24 A3 05 01 24 A3 05  01 74 68 6B 30 1C 11 80  .$...$...thk0...
0B80: 2B 24 A3 05 01 60 80 23  52 10 80 F8 FF FF 7F F8  +$...`.#R.......
0B90: FF FF 7F 76 31 33 37 45  10 80 F8 FF FF 7F F8 FF  ...v137E........
0BA0: FF 7F 76 31 33 38 00 80  2B 24 A3 05 01 61 80 23  ..v138..+$...a.#
0BB0: 5B 43 80 24 A3 05 01 24  A3 05 01 74 68 6B 31 1C  [C.$...$...thk1.
0BC0: 0F 80 2B 24 A3 05 01 62  80 52 10 80 F8 FF FF 7F  ..+$...b.R......
0BD0: F8 FF FF 7F 76 31 33 38  45 10 80 F8 FF FF 7F F8  ....v138E.......
0BE0: FF FF 7F 76 31 33 39 00  80 1C 01 80 23 53 24 A3  ...v139.....#S$.
0BF0: 05 01 24 A3 05 01 74 68  6B 31 52 10 80 F8 FF FF  ..$...thk1R.....
0C00: 7F F8 FF FF 7F 76 31 33  38 52 10 80 F8 FF FF 7F  .....v138R......
0C10: F8 FF FF 7F 76 31 33 39  45 10 80 F8 FF FF 7F F8  ....v139E.......
0C20: FF FF 7F 76 31 34 30 00  80 5B 50 80 24 A3 05 01  ...v140..[P.$...
0C30: 24 A3 05 01 70 6E 74 30  1C 0F 80 2B 24 A3 05 01  $...pnt0...+$...
0C40: 63 80 23 52 10 80 F8 FF  FF 7F F8 FF FF 7F 76 31  c.#R..........v1
0C50: 34 30 45 10 80 F8 FF FF  7F F8 FF FF 7F 76 31 34  40E..........v14
0C60: 31 00 80 2B 24 A3 05 01  64 80 23 5B 50 80 24 A3  1..+$...d.#[P.$.
0C70: 05 01 24 A3 05 01 70 6E  74 72 2B 24 A3 05 01 65  ..$...pntr+$...e
0C80: 80 23 52 10 80 F8 FF FF  7F F8 FF FF 7F 76 31 34  .#R..........v14
0C90: 31 45 10 80 F8 FF FF 7F  F8 FF FF 7F 76 31 34 32  1E..........v142
0CA0: 00 80 2B 24 A3 05 01 66  80 23 29 10 F0 FF FF 7F  ..+$...f.#).....
0CB0: 1B 52 10 80 F8 FF FF 7F  F8 FF FF 7F 76 31 34 32  .R..........v142
0CC0: 02 02 10 0E 80 80 DC 0C  45 10 80 F8 FF FF 7F F8  ........E.......
0CD0: FF FF 7F 76 31 34 33 00  80 01 A0 0D 02 02 10 18  ...v143.........
0CE0: 80 80 F8 0C 45 10 80 F8  FF FF 7F F8 FF FF 7F 76  ....E..........v
0CF0: 31 34 34 00 80 01 A0 0D  02 02 10 4B 80 80 14 0D  144........K....
0D00: 45 10 80 F8 FF FF 7F F8  FF FF 7F 76 31 34 35 00  E..........v145.
0D10: 80 01 A0 0D 02 02 10 4C  80 80 30 0D 45 10 80 F8  .......L..0.E...
0D20: FF FF 7F F8 FF FF 7F 76  31 34 36 00 80 01 A0 0D  .......v146.....
0D30: 02 02 10 1F 80 80 4C 0D  45 10 80 F8 FF FF 7F F8  ......L.E.......
0D40: FF FF 7F 76 31 34 37 00  80 01 A0 0D 02 02 10 1B  ...v147.........
0D50: 80 80 68 0D 45 10 80 F8  FF FF 7F F8 FF FF 7F 76  ..h.E..........v
0D60: 31 34 37 00 80 01 A0 0D  02 02 10 1C 80 80 84 0D  147.............
0D70: 45 10 80 F8 FF FF 7F F8  FF FF 7F 76 31 34 38 00  E..........v148.
0D80: 80 01 A0 0D 02 02 10 4D  80 80 A0 0D 45 10 80 F8  .......M....E...
0D90: FF FF 7F F8 FF FF 7F 76  31 34 39 00 80 01 A0 0D  .......v149.....
0DA0: 1C 0F 80 81 00 24 A3 05  01 5B 67 80 24 A3 05 01  .....$...[g.$...
0DB0: 24 A3 05 01 34 33 30 38  1C 15 80 52 10 80 F8 FF  $...4308...R....
0DC0: FF 7F F8 FF FF 7F 76 31  34 33 52 10 80 F8 FF FF  ......v143R.....
0DD0: 7F F8 FF FF 7F 76 31 34  34 52 10 80 F8 FF FF 7F  .....v144R......
0DE0: F8 FF FF 7F 76 31 34 35  52 10 80 F8 FF FF 7F F8  ....v145R.......
0DF0: FF FF 7F 76 31 34 36 52  10 80 F8 FF FF 7F F8 FF  ...v146R........
0E00: FF 7F 76 31 34 37 52 10  80 F8 FF FF 7F F8 FF FF  ..v147R.........
0E10: 7F 76 31 34 38 52 10 80  F8 FF FF 7F F8 FF FF 7F  .v148R..........
0E20: 76 31 34 39 45 10 80 F8  FF FF 7F F8 FF FF 7F 76  v149E..........v
0E30: 31 35 30 00 80 1C 0F 80  2B 24 A3 05 01 68 80 23  150.....+$...h.#
0E40: 52 10 80 F8 FF FF 7F F8  FF FF 7F 76 31 35 30 45  R..........v150E
0E50: 10 80 F8 FF FF 7F F8 FF  FF 7F 76 31 35 31 00 80  ..........v151..
0E60: 5B 67 80 24 A3 05 01 24  A3 05 01 34 33 30 39 1C  [g.$...$...4309.
0E70: 69 80 52 10 80 F8 FF FF  7F F8 FF FF 7F 76 31 35  i.R..........v15
0E80: 31 45 10 80 F8 FF FF 7F  F8 FF FF 7F 76 31 35 33  1E..........v153
0E90: 00 80 5B 67 80 24 A3 05  01 24 A3 05 01 34 33 31  ..[g.$...$...431
0EA0: 30 03 02 10 17 80 27 10  FE A2 05 01 01 1C 15 80  0.....'.........
0EB0: 2B 24 A3 05 01 6A 80 23  2A 10 FE A2 05 01 52 10  +$...j.#*.....R.
0EC0: 80 F8 FF FF 7F F8 FF FF  7F 76 31 35 33 45 10 80  .........v153E..
0ED0: F8 FF FF 7F F8 FF FF 7F  76 31 33 33 00 80 81 01  ........v133....
0EE0: 24 A3 05 01 5B 6B 80 24  A3 05 01 24 A3 05 01 6B  $...[k.$...$...k
0EF0: 61 6D 30 2B 24 A3 05 01  6C 80 23 01 B1 0F 02 00  am0+$...l.#.....
0F00: 10 0E 80 00 B1 0F 52 10  80 F8 FF FF 7F F8 FF FF  ......R.........
0F10: 7F 76 31 33 31 45 10 80  F8 FF FF 7F F8 FF FF 7F  .v131E..........
0F20: 76 31 33 34 00 80 29 10  F0 FF FF 7F 14 5B 21 80  v134..)......[!.
0F30: 24 A3 05 01 24 A3 05 01  68 69 67 30 2B 24 A3 05  $...$...hig0+$..
0F40: 01 6D 80 23 52 10 80 F8  FF FF 7F F8 FF FF 7F 76  .m.#R..........v
0F50: 31 33 34 45 10 80 F8 FF  FF 7F F8 FF FF 7F 76 31  134E..........v1
0F60: 33 35 00 80 2B 24 A3 05  01 6E 80 23 52 10 80 F8  35..+$...n.#R...
0F70: FF FF 7F F8 FF FF 7F 76  31 33 35 45 10 80 F8 FF  .......v135E....
0F80: FF 7F F8 FF FF 7F 76 31  33 36 00 80 5B 21 80 24  ......v136..[!.$
0F90: A3 05 01 24 A3 05 01 68  69 67 31 1C 0F 80 2B 24  ...$...hig1...+$
0FA0: A3 05 01 6F 80 23 03 01  00 18 80 01 0B 0B 01 B1  ...o.#..........
0FB0: 0F 01 54 10 2B 24 A3 05  01 70 80 23 52 10 80 F8  ..T.+$...p.#R...
0FC0: FF FF 7F F8 FF FF 7F 76  31 33 31 45 10 80 F8 FF  .......v131E....
0FD0: FF 7F F8 FF FF 7F 76 31  33 32 00 80 5B 43 80 24  ......v132..[C.$
0FE0: A3 05 01 24 A3 05 01 74  68 6B 30 1C 11 80 2B 24  ...$...thk0...+$
0FF0: A3 05 01 60 80 23 2B 24  A3 05 01 71 80 23 52 10  ...`.#+$...q.#R.
1000: 80 F8 FF FF 7F F8 FF FF  7F 76 31 33 32 45 10 80  .........v132E..
1010: F8 FF FF 7F F8 FF FF 7F  76 31 33 33 00 80 5B 43  ........v133..[C
1020: 80 24 A3 05 01 24 A3 05  01 74 68 6B 31 1C 0F 80  .$...$...thk1...
1030: 2B 24 A3 05 01 72 80 23  53 24 A3 05 01 24 A3 05  +$...r.#S$...$..
1040: 01 74 68 6B 31 5B 6B 80  24 A3 05 01 24 A3 05 01  .thk1[k.$...$...
1050: 6B 61 6D 30 1C 15 80 5D  00 80 0F 80 1A F3 2A 5B  kam0...]......*[
1060: 73 80 24 A3 05 01 24 A3  05 01 6E 79 61 6C 1C 33  s.$...$...nyal.3
1070: 80 5B 44 80 24 A3 05 01  24 A3 05 01 75 64 65 6C  .[D.$...$...udel
1080: BA 24 A3 05 01 74 80 75  80 57 80 00 80 1C 54 80  .$...t.u.W....T.
1090: 5B 73 80 24 A3 05 01 24  A3 05 01 6E 79 61 6B 7B  [s.$...$...nyak{
10A0: F0 FF FF 7F 2C F0 FF FF  7F F0 FF FF 7F 64 65 61  ....,........dea
10B0: 64 1C 0F 80 52 10 80 F8  FF FF 7F F8 FF FF 7F 76  d...R..........v
10C0: 31 33 33 45 10 80 F8 FF  FF 7F F8 FF FF 7F 76 31  133E..........v1
10D0: 36 30 00 80 1A C1 29 1C  11 80 2B 24 A3 05 01 76  60....)...+$...v
10E0: 80 23 1A A0 29 1C 0F 80  BA F0 FF FF 7F 55 80 56  .#..)........U.V
10F0: 80 57 80 77 80 BA 25 A3  05 01 78 80 79 80 57 80  .W.w..%...x.y.W.
1100: 7A 80 29 10 F0 FF FF 7F  19 6B 69 64 6C 30 24 A3  z.)......kidl0$.
1110: 05 01 4A 24 A3 05 01 F0  FF FF 7F 48 47 80 23 52  ..J$.......HG.#R
1120: 10 80 F8 FF FF 7F F8 FF  FF 7F 76 31 36 30 45 10  ..........v160E.
1130: 80 F8 FF FF 7F F8 FF FF  7F 76 31 36 31 00 80 1A  .........v161...
1140: 7F 29 1C 11 80 27 10 24  A3 05 01 0F 1C 0F 80 2B  .)...'.$.......+
1150: 24 A3 05 01 7B 80 23 52  10 80 F8 FF FF 7F F8 FF  $...{.#R........
1160: FF 7F 76 31 36 31 45 10  80 F8 FF FF 7F F8 FF FF  ..v161E.........
1170: 7F 76 31 36 32 00 80 27  10 F0 FF FF 7F 1A 2A 10  .v162..'......*.
1180: 24 A3 05 01 4A 24 A3 05  01 F0 FF FF 7F 2B 24 A3  $...J$.......+$.
1190: 05 01 7C 80 2A 10 F0 FF  FF 7F 4A F0 FF FF 7F 24  ..|.*.....J....$
11A0: A3 05 01 6F 76 F0 FF FF  7F 23 5B 43 80 24 A3 05  ...ov....#[C.$..
11B0: 01 24 A3 05 01 74 68 6B  30 1C 11 80 2B 24 A3 05  .$...thk0...+$..
11C0: 01 7D 80 23 52 10 80 F8  FF FF 7F F8 FF FF 7F 76  .}.#R..........v
11D0: 31 36 32 45 10 80 F8 FF  FF 7F F8 FF FF 7F 76 31  162E..........v1
11E0: 36 33 00 80 2B 24 A3 05  01 7E 80 23 5B 43 80 24  63..+$...~.#[C.$
11F0: A3 05 01 24 A3 05 01 74  68 6B 31 1C 0F 80 2B 24  ...$...thk1...+$
1200: A3 05 01 7F 80 23 52 10  80 F8 FF FF 7F F8 FF FF  .....#R.........
1210: 7F 76 31 36 33 45 10 80  F8 FF FF 7F F8 FF FF 7F  .v163E..........
1220: 76 31 36 34 00 80 2B 25  A3 05 01 80 80 1C 0F 80  v164..+%........
1230: BB 81 80 25 A3 05 01 25  A3 05 01 6D 61 69 6E 00  ...%...%...main.
1240: 80 1C 33 80 23 5B 82 80  24 A3 05 01 24 A3 05 01  ..3.#[..$...$...
1250: 66 72 69 30 2B 24 A3 05  01 83 80 1C 1F 80 4A F0  fri0+$........J.
1260: FF FF 7F 25 A3 05 01 23  5C 00 45 80 5C 01 45 80  ...%...#\.E.\.E.
1270: 9A 52 10 80 F8 FF FF 7F  F8 FF FF 7F 76 31 36 34  .R..........v164
1280: 45 10 80 F8 FF FF 7F F8  FF FF 7F 76 31 36 35 00  E..........v165.
1290: 80 5B 84 80 25 A3 05 01  25 A3 05 01 6F 6A 69 30  .[..%...%...oji0
12A0: 03 02 10 85 80 27 10 FE  A2 05 01 01 29 10 25 A3  .....'......).%.
12B0: 05 01 0A 2B 25 A3 05 01  86 80 1C 0F 80 6B 69 64  ...+%........kid
12C0: 6C 30 24 A3 05 01 4A 24  A3 05 01 25 A3 05 01 6F  l0$...J$...%...o
12D0: 76 24 A3 05 01 23 2A 10  FE A2 05 01 52 10 80 F8  v$...#*.....R...
12E0: FF FF 7F F8 FF FF 7F 76  31 36 35 45 10 80 F8 FF  .......v165E....
12F0: FF 7F F8 FF FF 7F 76 31  36 36 00 80 1C 33 80 27  ......v166...3.'
1300: 10 25 A3 05 01 0C 1C 0F  80 5B 6B 80 24 A3 05 01  .%.......[k.$...
1310: 24 A3 05 01 6B 61 6D 30  2B 25 A3 05 01 87 80 23  $...kam0+%.....#
1320: 52 10 80 F8 FF FF 7F F8  FF FF 7F 76 31 36 36 45  R..........v166E
1330: 10 80 F8 FF FF 7F F8 FF  FF 7F 76 31 36 37 00 80  ..........v167..
1340: 2B 25 A3 05 01 88 80 23  2A 10 25 A3 05 01 79 00  +%.....#*.%...y.
1350: 25 A3 05 01 F0 FF FF 7F  1C 0F 80 2B 25 A3 05 01  %..........+%...
1360: 89 80 1C 0F 80 6E F0 FF  FF 7F 8A 80 99 F0 FF FF  .....n..........
1370: 7F 1C 32 80 23 52 10 80  F8 FF FF 7F F8 FF FF 7F  ..2.#R..........
1380: 76 31 36 37 45 10 80 F8  FF FF 7F F8 FF FF 7F 76  v167E..........v
1390: 31 36 38 00 80 1C 0F 80  79 00 25 A3 05 01 24 A3  168.....y.%...$.
13A0: 05 01 1C 11 80 2B 25 A3  05 01 8B 80 23 5B 6B 80  .....+%.....#[k.
13B0: 24 A3 05 01 24 A3 05 01  6B 61 6D 31 1C 01 80 52  $...$...kam1...R
13C0: 10 80 F8 FF FF 7F F8 FF  FF 7F 76 31 36 38 45 10  ..........v168E.
13D0: 80 F8 FF FF 7F F8 FF FF  7F 76 31 36 39 00 80 1C  .........v169...
13E0: 11 80 2B 24 A3 05 01 8C  80 23 52 10 80 F8 FF FF  ..+$.....#R.....
13F0: 7F F8 FF FF 7F 76 31 36  39 45 10 80 F8 FF FF 7F  .....v169E......
1400: F8 FF FF 7F 76 31 37 30  00 80 2B 25 A3 05 01 8D  ....v170..+%....
1410: 80 23 7B 25 A3 05 01 5B  8E 80 25 A3 05 01 25 A3  .#{%...[..%...%.
1420: 05 01 74 68 62 30 03 02  10 01 80 27 10 FE A2 05  ..thb0.....'....
1430: 01 01 1C 11 80 2B 25 A3  05 01 8F 80 23 52 10 80  .....+%.....#R..
1440: F8 FF FF 7F F8 FF FF 7F  76 31 37 30 45 10 80 F8  ........v170E...
1450: FF FF 7F F8 FF FF 7F 76  31 37 31 00 80 79 00 F0  .......v171..y..
1460: FF FF 7F 24 A3 05 01 2B  24 A3 05 01 90 80 23 52  ...$...+$.....#R
1470: 10 80 F8 FF FF 7F F8 FF  FF 7F 76 31 37 31 45 10  ..........v171E.
1480: 80 F8 FF FF 7F F8 FF FF  7F 76 31 37 32 00 80 2B  .........v172..+
1490: 24 A3 05 01 91 80 23 2A  10 FE A2 05 01 52 10 80  $.....#*.....R..
14A0: F8 FF FF 7F F8 FF FF 7F  76 31 37 32 45 10 80 F8  ........v172E...
14B0: FF FF 7F F8 FF FF 7F 76  31 37 33 00 80 5B 8E 80  .......v173..[..
14C0: 25 A3 05 01 25 A3 05 01  74 68 62 31 79 00 25 A3  %...%...thb1y.%.
14D0: 05 01 24 A3 05 01 1C 0F  80 2B 25 A3 05 01 92 80  ..$......+%.....
14E0: 23 2B 24 A3 05 01 93 80  23 52 10 80 F8 FF FF 7F  #+$.....#R......
14F0: F8 FF FF 7F 76 31 37 33  45 10 80 F8 FF FF 7F F8  ....v173E.......
1500: FF FF 7F 76 31 37 34 00  80 79 00 F0 FF FF 7F 25  ...v174..y.....%
1510: A3 05 01 5B 84 80 25 A3  05 01 25 A3 05 01 6E 6F  ...[..%...%...no
1520: 30 30 1C 0F 80 2B 25 A3  05 01 94 80 23 53 25 A3  00...+%.....#S%.
1530: 05 01 25 A3 05 01 6E 6F  30 30 52 10 80 F8 FF FF  ..%...no00R.....
1540: 7F F8 FF FF 7F 76 31 37  34 45 10 80 F8 FF FF 7F  .....v174E......
1550: F8 FF FF 7F 76 31 37 35  00 80 5B 44 80 24 A3 05  ....v175..[D.$..
1560: 01 24 A3 05 01 75 64 65  30 2B 24 A3 05 01 95 80  .$...ude0+$.....
1570: 23 2B 25 A3 05 01 96 80  23 7B 25 A3 05 01 1C 0F  #+%.....#{%.....
1580: 80 52 10 80 F8 FF FF 7F  F8 FF FF 7F 76 31 37 35  .R..........v175
1590: 45 10 80 F8 FF FF 7F F8  FF FF 7F 76 31 37 36 00  E..........v176.
15A0: 80 1C 01 80 2B 25 A3 05  01 97 80 23 52 10 80 F8  ....+%.....#R...
15B0: FF FF 7F F8 FF FF 7F 76  31 37 36 45 10 80 F8 FF  .......v176E....
15C0: FF 7F F8 FF FF 7F 76 31  37 37 00 80 79 00 25 A3  ......v177..y.%.
15D0: 05 01 F0 FF FF 7F 1C 54  80 5B 98 80 25 A3 05 01  .......T.[..%...
15E0: 25 A3 05 01 74 6C 6B 30  2B 25 A3 05 01 99 80 23  %...tlk0+%.....#
15F0: 2B 25 A3 05 01 9A 80 23  52 10 80 F8 FF FF 7F F8  +%.....#R.......
1600: FF FF 7F 76 31 37 37 45  10 80 F8 FF FF 7F F8 FF  ...v177E........
1610: FF 7F 76 31 37 38 00 80  5B 98 80 25 A3 05 01 25  ..v178..[..%...%
1620: A3 05 01 73 74 64 30 6E  F0 FF FF 7F 1C 80 99 F0  ...std0n........
1630: FF FF 7F 1C 01 80 5B 98  80 25 A3 05 01 25 A3 05  ......[..%...%..
1640: 01 74 6C 6B 30 2B 25 A3  05 01 9B 80 23 5B 98 80  .tlk0+%.....#[..
1650: 25 A3 05 01 25 A3 05 01  73 74 64 30 24 9C 80 00  %...%...std0$...
1660: 80 00 80 25 02 00 10 00  80 00 C2 16 6E F0 FF FF  ...%........n...
1670: 7F 1C 80 99 F0 FF FF 7F  1C 01 80 52 10 80 F8 FF  ...........R....
1680: FF 7F F8 FF FF 7F 76 31  37 38 45 10 80 F8 FF FF  ......v178E.....
1690: 7F F8 FF FF 7F 76 31 37  39 00 80 5B 8E 80 25 A3  .....v179..[..%.
16A0: 05 01 25 A3 05 01 79 65  73 30 2B 25 A3 05 01 9D  ..%...yes0+%....
16B0: 80 23 53 25 A3 05 01 25  A3 05 01 79 65 73 30 01  .#S%...%...yes0.
16C0: 04 17 02 00 10 0E 80 00  04 17 6E F0 FF FF 7F 1A  ..........n.....
16D0: 80 99 F0 FF FF 7F 1C 01  80 52 10 80 F8 FF FF 7F  .........R......
16E0: F8 FF FF 7F 76 31 37 38  45 10 80 F8 FF FF 7F F8  ....v178E.......
16F0: FF FF 7F 76 31 37 39 00  80 2B 25 A3 05 01 9E 80  ...v179..+%.....
1700: 23 01 04 17 7B 25 A3 05  01 1C 0F 80 5B 8E 80 25  #...{%......[..%
1710: A3 05 01 25 A3 05 01 74  68 62 30 53 25 A3 05 01  ...%...thb0S%...
1720: 25 A3 05 01 74 68 62 30  2B 25 A3 05 01 9F 80 23  %...thb0+%.....#
1730: 52 10 80 F8 FF FF 7F F8  FF FF 7F 76 31 37 39 45  R..........v179E
1740: 10 80 F8 FF FF 7F F8 FF  FF 7F 76 31 38 31 00 80  ..........v181..
1750: 2B 24 A3 05 01 A0 80 23  52 10 80 F8 FF FF 7F F8  +$.....#R.......
1760: FF FF 7F 76 31 38 31 45  10 80 F8 FF FF 7F F8 FF  ...v181E........
1770: FF 7F 76 31 38 32 00 80  5B 8E 80 25 A3 05 01 25  ..v182..[..%...%
1780: A3 05 01 74 68 62 31 1C  54 80 79 00 25 A3 05 01  ...thb1.T.y.%...
1790: 24 A3 05 01 2B 25 A3 05  01 A1 80 23 7B 25 A3 05  $...+%.....#{%..
17A0: 01 2B 25 A3 05 01 A2 80  23 52 10 80 F8 FF FF 7F  .+%.....#R......
17B0: F8 FF FF 7F 76 31 38 32  45 10 80 F8 FF FF 7F F8  ....v182E.......
17C0: FF FF 7F 76 31 38 33 00  80 2B 25 A3 05 01 A3 80  ...v183..+%.....
17D0: 1C 17 80 23 52 10 80 F8  FF FF 7F F8 FF FF 7F 76  ...#R..........v
17E0: 31 38 33 45 10 80 F8 FF  FF 7F F8 FF FF 7F 76 31  183E..........v1
17F0: 38 34 00 80 2B 25 A3 05  01 A4 80 1C 17 80 23 52  84..+%........#R
1800: 10 80 F8 FF FF 7F F8 FF  FF 7F 76 31 38 34 45 10  ..........v184E.
1810: 80 F8 FF FF 7F F8 FF FF  7F 76 31 38 35 00 80 1C  .........v185...
1820: 11 80 5B 98 80 25 A3 05  01 25 A3 05 01 74 6C 6B  ..[..%...%...tlk
1830: 30 2B 25 A3 05 01 A5 80  23 52 10 80 F8 FF FF 7F  0+%.....#R......
1840: F8 FF FF 7F 76 31 38 35  45 10 80 F8 FF FF 7F F8  ....v185E.......
1850: FF FF 7F 76 31 38 36 00  80 2B 25 A3 05 01 A6 80  ...v186..+%.....
1860: 23 5B 98 80 25 A3 05 01  25 A3 05 01 73 74 64 30  #[..%...%...std0
1870: 1C 0F 80 2B 25 A3 05 01  A7 80 23 52 10 80 F8 FF  ...+%.....#R....
1880: FF 7F F8 FF FF 7F 76 31  38 36 45 10 80 F8 FF FF  ......v186E.....
1890: 7F F8 FF FF 7F 76 31 38  37 00 80 5D 00 80 01 80  .....v187..]....
18A0: 2B 24 A3 05 01 A8 80 23  52 10 80 F8 FF FF 7F F8  +$.....#R.......
18B0: FF FF 7F 76 31 38 37 45  10 80 F8 FF FF 7F F8 FF  ...v187E........
18C0: FF 7F 76 31 38 38 00 80  79 00 25 A3 05 01 24 A3  ..v188..y.%...$.
18D0: 05 01 5B 8E 80 25 A3 05  01 25 A3 05 01 79 65 73  ..[..%...%...yes
18E0: 30 2B 25 A3 05 01 A9 80  1C 0F 80 5B 44 80 24 A3  0+%........[D.$.
18F0: 05 01 24 A3 05 01 75 64  65 31 23 53 25 A3 05 01  ..$...ude1#S%...
1900: 25 A3 05 01 79 65 73 30  52 10 80 F8 FF FF 7F F8  %...yes0R.......
1910: FF FF 7F 76 31 38 38 45  10 80 F8 FF FF 7F F8 FF  ...v188E........
1920: FF 7F 76 31 38 39 00 80  79 00 25 A3 05 01 F0 FF  ..v189..y.%.....
1930: FF 7F 1C 0F 80 29 10 25  A3 05 01 0D 5C 00 AA 80  .....).%....\...
1940: 5C 01 AA 80 9A 52 10 80  F8 FF FF 7F F8 FF FF 7F  \....R..........
1950: 76 31 38 39 45 10 80 F8  FF FF 7F F8 FF FF 7F 76  v189E..........v
1960: 31 39 30 00 80 4A 24 A3  05 01 F0 FF FF 7F 5B 98  190..J$.......[.
1970: 80 25 A3 05 01 25 A3 05  01 68 61 70 30 2B 25 A3  .%...%...hap0+%.
1980: 05 01 AB 80 23 2B 25 A3  05 01 AC 80 23 52 10 80  ....#+%.....#R..
1990: F8 FF FF 7F F8 FF FF 7F  76 31 39 30 45 10 80 F8  ........v190E...
19A0: FF FF 7F F8 FF FF 7F 76  31 39 31 00 80 7B 25 A3  .......v191..{%.
19B0: 05 01 5B 98 80 25 A3 05  01 25 A3 05 01 73 74 64  ..[..%...%...std
19C0: 30 1C 54 80 2B 25 A3 05  01 AD 80 23 6F 76 24 A3  0.T.+%.....#ov$.
19D0: 05 01 52 10 80 F8 FF FF  7F F8 FF FF 7F 76 31 39  ..R..........v19
19E0: 31 45 10 80 F8 FF FF 7F  F8 FF FF 7F 76 31 39 32  1E..........v192
19F0: 00 80 79 00 F0 FF FF 7F  24 A3 05 01 2B 24 A3 05  ..y.....$...+$..
1A00: 01 AE 80 23 52 10 80 F8  FF FF 7F F8 FF FF 7F 76  ...#R..........v
1A10: 31 39 32 45 10 80 F8 FF  FF 7F F8 FF FF 7F 76 31  192E..........v1
1A20: 39 33 00 80 79 00 F0 FF  FF 7F 25 A3 05 01 5B 98  93..y.....%...[.
1A30: 80 25 A3 05 01 25 A3 05  01 74 6C 6B 30 2B 25 A3  .%...%...tlk0+%.
1A40: 05 01 AF 80 1C 0F 80 4A  24 A3 05 01 25 A3 05 01  .......J$...%...
1A50: 1C 11 80 23 2B 25 A3 05  01 B0 80 1C 0F 80 5B 98  ...#+%........[.
1A60: 80 25 A3 05 01 25 A3 05  01 73 74 64 30 79 00 25  .%...%...std0y.%
1A70: A3 05 01 24 A3 05 01 1C  11 80 23 52 10 80 F8 FF  ...$......#R....
1A80: FF 7F F8 FF FF 7F 76 31  39 33 45 10 80 F8 FF FF  ......v193E.....
1A90: 7F F8 FF FF 7F 76 31 39  34 00 80 5B 21 80 24 A3  .....v194..[!.$.
1AA0: 05 01 24 A3 05 01 68 69  67 72 03 02 10 B1 80 27  ..$...higr.....'
1AB0: 10 FE A2 05 01 01 1C 0F  80 2B 24 A3 05 01 B2 80  .........+$.....
1AC0: 23 5B 8E 80 25 A3 05 01  25 A3 05 01 79 65 73 30  #[..%...%...yes0
1AD0: 2B 25 A3 05 01 B3 80 23  53 25 A3 05 01 25 A3 05  +%.....#S%...%..
1AE0: 01 79 65 73 30 2A 10 FE  A2 05 01 52 10 80 F8 FF  .yes0*.....R....
1AF0: FF 7F F8 FF FF 7F 76 31  39 34 45 10 80 F8 FF FF  ......v194E.....
1B00: 7F F8 FF FF 7F 76 31 39  35 00 80 81 00 24 A3 05  .....v195....$..
1B10: 01 5B B4 80 24 A3 05 01  24 A3 05 01 66 63 30 30  .[..$...$...fc00
1B20: 1C 0F 80 2B 24 A3 05 01  B5 80 23 52 10 80 F8 FF  ...+$.....#R....
1B30: FF 7F F8 FF FF 7F 76 31  39 35 45 10 80 F8 FF FF  ......v195E.....
1B40: 7F F8 FF FF 7F 76 31 39  37 00 80 5B B4 80 24 A3  .....v197..[..$.
1B50: 05 01 24 A3 05 01 66 30  30 30 4A 24 A3 05 01 F0  ..$...f000J$....
1B60: FF FF 7F 6F 76 24 A3 05  01 79 00 25 A3 05 01 F0  ...ov$...y.%....
1B70: FF FF 7F 5B 43 80 24 A3  05 01 24 A3 05 01 74 6C  ...[C.$...$...tl
1B80: 6B 30 1C 0F 80 79 00 F0  FF FF 7F 24 A3 05 01 2B  k0...y.....$...+
1B90: 24 A3 05 01 B6 80 23 2B  24 A3 05 01 B7 80 23 5B  $.....#+$.....#[
1BA0: 43 80 24 A3 05 01 24 A3  05 01 74 6C 6B 31 1C 0F  C.$...$...tlk1..
1BB0: 80 5B B8 80 25 A3 05 01  25 A3 05 01 79 72 6F 30  .[..%...%...yro0
1BC0: 1C 0F 80 52 10 80 F8 FF  FF 7F F8 FF FF 7F 76 31  ...R..........v1
1BD0: 39 37 45 10 80 F8 FF FF  7F F8 FF FF 7F 76 31 39  97E..........v19
1BE0: 36 00 80 5D 00 80 23 80  2B 25 A3 05 01 B9 80 1C  6..]..#.+%......
1BF0: 01 80 CD 30 80 F0 FF FF  7F F0 FF FF 7F 73 74 30  ...0.........st0
1C00: 31 00 80 1C 0F 80 BB 31  80 24 A3 05 01 24 A3 05  1......1.$...$..
1C10: 01 73 74 30 33 00 80 1C  11 80 92 01 F0 FF FF 7F  .st03...........
1C20: 1C 01 80 CD 30 80 F0 FF  FF 7F F0 FF FF 7F 73 74  ....0.........st
1C30: 30 32 00 80 1C 0F 80 BB  31 80 24 A3 05 01 24 A3  02......1.$...$.
1C40: 05 01 73 74 30 32 00 80  1C 0F 80 BB BA 80 25 A3  ..st02........%.
1C50: 05 01 25 A3 05 01 69 6E  30 30 00 80 1C 01 80 1A  ..%...in00......
1C60: A0 29 23 CD 45 80 FF A2  05 01 FF A2 05 01 6B 6C  .)#.E.........kl
1C70: 61 6C 00 80 1C 0F 80 53  25 A3 05 01 25 A3 05 01  al.....S%...%...
1C80: 79 72 6F 30 52 10 80 F8  FF FF 7F F8 FF FF 7F 76  yro0R..........v
1C90: 31 39 36 45 10 80 F0 FF  FF 7F F0 FF FF 7F 30 62  196E..........0b
1CA0: 6C 66 00 80 1C 33 80 AB  11 00 80 1C 0E 80 35 15  lf...3........5.
1CB0: 80 78 1C 33 80 AB 0A 46  00 45 35 80 F0 FF FF 7F  .x.3...F.E5.....
1CC0: F0 FF FF 7F 66 64 69 32  00 80 21 00              ....fdi2..!.    
```

#### Opcodes

```
  0: 0x05EC [0x42] SET_CLI_EVENT_CANCEL_DATA()
  1: 0x05ED [0x5D] SET_MUSIC_VOLUME(volume=0*, fade_time=120*)
  2: 0x05F2 [0x1A] CALL_SUBROUTINE(address=0x29A0)
  3: 0x05F5 [0x43] SEND_EVENT_UPDATE: Send pending tag to server (packet 0x005B)
  4: 0x05F7 [0x43] SEND_EVENT_UPDATE: Check pending flag (skip if not pending)
  5: 0x05F9 [0x03] ExtData[1]->WorkLocal[1] = Work_Zone[2]
  6: 0x05FE [0x03] ExtData[1]->WorkLocal[0] = Work_Zone[9]
  7: 0x0603 [0x46] CAMERA_CONTROL: Disable user control
  8: 0x0605 [0x38] SET_CLIENT_EVENT_MODE(mode=19*)
  9: 0x0608 [0x4E] SET_ENTITY_HIDE_FLAG: Show LocalPlayer
 10: 0x060E [0x34] LOAD_UNLOAD_ZONE(zone_id=182*)
 11: 0x0611 [0x77] SET_EVENT_TIME_WEATHER(hour=255*, weather=19*)
 12: 0x0616 [0x1C] WAIT(30* ticks)
 13: 0x0619 [0xAB] EventEntity->UnknownFlag = 1 // Enable unknown flag
 14: 0x061B [0x2D] CREATE_ZONE_SCHEDULER_TASK: Create scheduler "sta1" with entities [LocalPlayer, LocalPlayer]
 15: 0x0628 [0x2D] CREATE_ZONE_SCHEDULER_TASK: Create scheduler "sta2" with entities [LocalPlayer, LocalPlayer]
 16: 0x0635 [0x2D] CREATE_ZONE_SCHEDULER_TASK: Create scheduler "sta3" with entities [LocalPlayer, LocalPlayer]
 17: 0x0642 [0x2D] CREATE_ZONE_SCHEDULER_TASK: Create scheduler "sta4" with entities [LocalPlayer, LocalPlayer]
 18: 0x064F [0x4E] SET_ENTITY_HIDE_FLAG: Show Unnamed NPC (ID: 17146623/0x0105A2FF)
 19: 0x0655 [0x27] REQ_SET(priority=0x10, entity_id=Unnamed NPC (ID: 17146660/0x0105A324), tag_num=0x04)
 20: 0x065C [0x27] REQ_SET(priority=0x10, entity_id=Unnamed NPC (ID: 17146661/0x0105A325), tag_num=0x02)
 21: 0x0663 [0x92] LocalPlayer->Render.Flags3 = Flags3  // No change (flag=0)
 22: 0x0669 [0x92] Unnamed NPC (ID: 17146661/0x0105A325)->Render.Flags3 ^= 0x01
 23: 0x066F [0x92] Unnamed NPC (ID: 17146660/0x0105A324)->Render.Flags3 ^= 0x01
 24: 0x0675 [0x94] LocalPlayer->Render.Flags3 ^= 0x01
 25: 0x067B [0x94] Unnamed NPC (ID: 17146660/0x0105A324)->Render.Flags3 ^= 0x01
 26: 0x0681 [0x94] Unnamed NPC (ID: 17146661/0x0105A325)->Render.Flags3 ^= 0x01
 27: 0x0687 [0x59] UPDATE_ENTITY_DATA: LocalPlayer->Render.Flags0 |= 0x200000
 28: 0x068E [0xBA] SET_ENTITY_POSITION(entity_id=LocalPlayer, pos_x=-773.500*, pos_z=-420.390*, pos_y=6.870*, direction=121.7°*)
 29: 0x069B [0x59] UPDATE_ENTITY_DATA: Unnamed NPC (ID: 17146660/0x0105A324)->Render.Flags0 |= 0x200000
 30: 0x06A2 [0xBA] SET_ENTITY_POSITION(entity_id=Unnamed NPC (ID: 17146660/0x0105A324), pos_x=-772.257*, pos_z=-422.027*, pos_y=5.870*, direction=123.3°*)
 31: 0x06AF [0x59] UPDATE_ENTITY_DATA: Unnamed NPC (ID: 17146623/0x0105A2FF)->Render.Flags0 |= 0x200000
 32: 0x06B6 [0xBA] SET_ENTITY_POSITION(entity_id=Unnamed NPC (ID: 17146623/0x0105A2FF), pos_x=-779.226*, pos_z=-429.083*, pos_y=12.300*, direction=115.1°*)
 33: 0x06C3 [0x29] REQ_SET_WAIT(priority=0x10, entity_id=Unnamed NPC (ID: 17146660/0x0105A324), tag_num=0x0C)
 34: 0x06CA [0x29] REQ_SET_WAIT(priority=0x10, entity_id=Unnamed NPC (ID: 17146660/0x0105A324), tag_num=0x0D)
 35: 0x06D1 [0x29] REQ_SET_WAIT(priority=0x10, entity_id=Unnamed NPC (ID: 17146661/0x0105A325), tag_num=0x09)
 36: 0x06D8 [0x29] REQ_SET_WAIT(priority=0x10, entity_id=Unnamed NPC (ID: 17146661/0x0105A325), tag_num=0x0B)
 37: 0x06DF [0x80] LOAD_WAIT(entity=LocalPlayer)
 38: 0x06E4 [0x80] LOAD_WAIT(entity=Unnamed NPC (ID: 17146660/0x0105A324))
 39: 0x06E9 [0x80] LOAD_WAIT(entity=Unnamed NPC (ID: 17146661/0x0105A325))
 40: 0x06EE [0x4A] LocalPlayer looks at Unnamed NPC (ID: 17146623/0x0105A2FF)
 41: 0x06F7 [0x4A] Unnamed NPC (ID: 17146660/0x0105A324) looks at Unnamed NPC (ID: 17146623/0x0105A2FF)
 42: 0x0700 [0x6F] WAIT_FRAME_DELAY: Yield until WaitTime reaches zero
 43: 0x0701 [0x76] CHECK_ENTITY_RENDER_FLAGS: Wait until Unnamed NPC (ID: 17146660/0x0105A324) Render.Flags0 and Render.Flags3 conditions are met
 44: 0x0706 [0x1C] WAIT(30* ticks)
 45: 0x0709 [0x27] REQ_SET(priority=0x10, entity_id=Unnamed NPC (ID: 17146660/0x0105A324), tag_num=0x0E)
 46: 0x0710 [0x6C] FADE_ENTITY_COLOR(entity_id=Unnamed NPC (ID: 17146661/0x0105A325), end_alpha=0*, fade_time=1*)
 47: 0x0719 [0x5B] LOAD_EXT_SCHEDULER: Load scheduler "udel" with entities [Unnamed NPC (ID: 17146660/0x0105A324), Unnamed NPC (ID: 17146660/0x0105A324)], work=1412*
 48: 0x0728 [0xCD] LOAD_SCHEDULED_TASK_ALT4: Load scheduler "s000" with entities [Unnamed NPC (ID: 17146623/0x0105A2FF), Unnamed NPC (ID: 17146623/0x0105A2FF)], work=[123*, 0*]
 49: 0x0739 [0x29] REQ_SET_WAIT(priority=0x10, entity_id=LocalPlayer, tag_num=0x1E)
 50: 0x0740 [0x5C] MUSIC_CONTROL: Set Idle (Day) music to song 42*
 51: 0x0744 [0x5C] MUSIC_CONTROL: Set Idle (Night) music to song 42*
 52: 0x0748 [0x9A] WAIT_MUSIC_SERVER()
 53: 0x0749 [0x48] [System] [7902*]:
    → "@@"
 54: 0x074C [0x23] WAIT_FOR_DIALOG_INTERACTION
 55: 0x074D [0x45] LOAD_SCHEDULED_TASK: Load scheduler "v120" with entities [EventEntity, EventEntity], work=[577*, 0*]
 56: 0x075E [0x1A] CALL_SUBROUTINE(address=0x297F)
 57: 0x0761 [0x1C] WAIT(180* ticks)
 58: 0x0764 [0x52] END_LOAD_SCHEDULER: End scheduler "v120" with entities [EventEntity, EventEntity], work=577*
 59: 0x0773 [0x45] LOAD_SCHEDULED_TASK: Load scheduler "v121" with entities [EventEntity, EventEntity], work=[577*, 0*]
 60: 0x0784 [0x1C] WAIT(120* ticks)
 61: 0x0787 [0x52] END_LOAD_SCHEDULER: End scheduler "v121" with entities [EventEntity, EventEntity], work=577*
 62: 0x0796 [0x45] LOAD_SCHEDULED_TASK: Load scheduler "v122" with entities [EventEntity, EventEntity], work=[577*, 0*]
 63: 0x07A7 [0x1C] WAIT(60* ticks)
 64: 0x07AA [0x2B] Unnamed NPC (ID: 17146660/0x0105A324) [8963*]:
    → "Do you see that?"
 65: 0x07B1 [0x23] WAIT_FOR_DIALOG_INTERACTION
 66: 0x07B2 [0x52] END_LOAD_SCHEDULER: End scheduler "v122" with entities [EventEntity, EventEntity], work=577*
 67: 0x07C1 [0x45] LOAD_SCHEDULED_TASK: Load scheduler "v123" with entities [EventEntity, EventEntity], work=[577*, 0*]
 68: 0x07D2 [0x1C] WAIT(60* ticks)
 69: 0x07D5 [0x2B] Unnamed NPC (ID: 17146660/0x0105A324) [8964*]:
    → "That is a dimensional disturbance. A rift in the fabric of space and time."
 70: 0x07DC [0x23] WAIT_FOR_DIALOG_INTERACTION
 71: 0x07DD [0x2B] Unnamed NPC (ID: 17146660/0x0105A324) [8965*]:
    → "Whither it leads, we do not know. Haven't even a clue."
 72: 0x07E4 [0x23] WAIT_FOR_DIALOG_INTERACTION
 73: 0x07E5 [0x29] REQ_SET_WAIT(priority=0x10, entity_id=LocalPlayer, tag_num=0x1B)
 74: 0x07EC [0x52] END_LOAD_SCHEDULER: End scheduler "v123" with entities [EventEntity, EventEntity], work=577*
 75: 0x07FB [0x02] IF !(Work_Zone[2] == 1*) GOTO 0x0817
 76: 0x0803 [0x45] LOAD_SCHEDULED_TASK: Load scheduler "v125" with entities [EventEntity, EventEntity], work=[577*, 0*]
 77: 0x0814 [0x01] GOTO 0x08DB
 78: 0x0817 [0x02] IF !(Work_Zone[2] == 2*) GOTO 0x0833
 79: 0x081F [0x45] LOAD_SCHEDULED_TASK: Load scheduler "v125" with entities [EventEntity, EventEntity], work=[577*, 0*]
 80: 0x0830 [0x01] GOTO 0x08DB
 81: 0x0833 [0x02] IF !(Work_Zone[2] == 3*) GOTO 0x084F
 82: 0x083B [0x45] LOAD_SCHEDULED_TASK: Load scheduler "v124" with entities [EventEntity, EventEntity], work=[577*, 0*]
 83: 0x084C [0x01] GOTO 0x08DB
 84: 0x084F [0x02] IF !(Work_Zone[2] == 4*) GOTO 0x086B
 85: 0x0857 [0x45] LOAD_SCHEDULED_TASK: Load scheduler "v124" with entities [EventEntity, EventEntity], work=[577*, 0*]
 86: 0x0868 [0x01] GOTO 0x08DB
 87: 0x086B [0x02] IF !(Work_Zone[2] == 5*) GOTO 0x0887
 88: 0x0873 [0x45] LOAD_SCHEDULED_TASK: Load scheduler "v126" with entities [EventEntity, EventEntity], work=[577*, 0*]
 89: 0x0884 [0x01] GOTO 0x08DB
 90: 0x0887 [0x02] IF !(Work_Zone[2] == 6*) GOTO 0x08A3
 91: 0x088F [0x45] LOAD_SCHEDULED_TASK: Load scheduler "v126" with entities [EventEntity, EventEntity], work=[577*, 0*]
 92: 0x08A0 [0x01] GOTO 0x08DB
 93: 0x08A3 [0x02] IF !(Work_Zone[2] == 7*) GOTO 0x08BF
 94: 0x08AB [0x45] LOAD_SCHEDULED_TASK: Load scheduler "v125" with entities [EventEntity, EventEntity], work=[577*, 0*]
 95: 0x08BC [0x01] GOTO 0x08DB
 96: 0x08BF [0x02] IF !(Work_Zone[2] == 8*) GOTO 0x08DB
 97: 0x08C7 [0x45] LOAD_SCHEDULED_TASK: Load scheduler "v124" with entities [EventEntity, EventEntity], work=[577*, 0*]
 98: 0x08D8 [0x01] GOTO 0x08DB

SUBROUTINE_08DB:
 99: 0x08DB [0x2B] Unnamed NPC (ID: 17146660/0x0105A324) [8966*]:
    → "I made an attempt to venture beyond, but to no avail. My every effort thwarted."
100: 0x08E2 [0x23] WAIT_FOR_DIALOG_INTERACTION
101: 0x08E3 [0x5B] LOAD_EXT_SCHEDULER: Load scheduler "ude1" with entities [Unnamed NPC (ID: 17146660/0x0105A324), Unnamed NPC (ID: 17146660/0x0105A324)], work=1412*
102: 0x08F2 [0x53] WAIT_SCHEDULER_TASK: Wait for scheduler "ude1" with entities [Unnamed NPC (ID: 17146660/0x0105A324), Unnamed NPC (ID: 17146660/0x0105A324)]
103: 0x08FF [0x52] END_LOAD_SCHEDULER: End scheduler "v124" with entities [EventEntity, EventEntity], work=577*
104: 0x090E [0x52] END_LOAD_SCHEDULER: End scheduler "v125" with entities [EventEntity, EventEntity], work=577*
105: 0x091D [0x52] END_LOAD_SCHEDULER: End scheduler "v126" with entities [EventEntity, EventEntity], work=577*
106: 0x092C [0x45] LOAD_SCHEDULED_TASK: Load scheduler "v127" with entities [EventEntity, EventEntity], work=[577*, 0*]
107: 0x093D [0x7A] VM_CONTROL: Reset VM for Unnamed NPC (ID: 17146660/0x0105A324)
108: 0x0943 [0x4A] Unnamed NPC (ID: 17146660/0x0105A324) looks at LocalPlayer
109: 0x094C [0x6F] WAIT_FRAME_DELAY: Yield until WaitTime reaches zero
110: 0x094D [0x76] CHECK_ENTITY_RENDER_FLAGS: Wait until Unnamed NPC (ID: 17146660/0x0105A324) Render.Flags0 and Render.Flags3 conditions are met
111: 0x0952 [0x27] REQ_SET(priority=0x10, entity_id=Unnamed NPC (ID: 17146660/0x0105A324), tag_num=0x0E)
112: 0x0959 [0x79] LocalPlayer looks at Unnamed NPC (ID: 17146660/0x0105A324) (Basic look)
113: 0x0963 [0x2B] Unnamed NPC (ID: 17146660/0x0105A324) [8967*]:
    → "On the other hand, I fear there are...things...capable of making the reverse trip with unsettling ease. Unwelcome visitors from a distant world."
114: 0x096A [0x23] WAIT_FOR_DIALOG_INTERACTION
115: 0x096B [0x5B] LOAD_EXT_SCHEDULER: Load scheduler "pnt0" with entities [Unnamed NPC (ID: 17146660/0x0105A324), Unnamed NPC (ID: 17146660/0x0105A324)], work=1312*
116: 0x097A [0x1C] WAIT(30* ticks)
117: 0x097D [0x2B] Unnamed NPC (ID: 17146660/0x0105A324) [8968*]:
    → "Mayhap you've heard rumor of "Voidwalkers." Might ring a bell."
118: 0x0984 [0x23] WAIT_FOR_DIALOG_INTERACTION
119: 0x0985 [0x52] END_LOAD_SCHEDULER: End scheduler "v127" with entities [EventEntity, EventEntity], work=577*
120: 0x0994 [0x45] LOAD_SCHEDULED_TASK: Load scheduler "v128" with entities [EventEntity, EventEntity], work=[577*, 0*]
121: 0x09A5 [0x2B] Unnamed NPC (ID: 17146660/0x0105A324) [8969*]:
    → "Savage fiends, they are, and even more ill of temper after their transdimensional journey."
122: 0x09AC [0x1C] WAIT(30* ticks)
123: 0x09AF [0x79] LocalPlayer looks at Unnamed NPC (ID: 17146623/0x0105A2FF) (Basic look)
124: 0x09B9 [0x1C] WAIT(90* ticks)
125: 0x09BC [0x23] WAIT_FOR_DIALOG_INTERACTION
126: 0x09BD [0xCD] LOAD_SCHEDULED_TASK_ALT4: Load scheduler "in00" with entities [LocalPlayer, LocalPlayer], work=[116*, 0*]
127: 0x09CE [0x1C] WAIT(45* ticks)
128: 0x09D1 [0xCD] LOAD_SCHEDULED_TASK_ALT4: Load scheduler "in00" with entities [Unnamed NPC (ID: 17146660/0x0105A324), Unnamed NPC (ID: 17146660/0x0105A324)], work=[116*, 0*]
129: 0x09E2 [0x1C] WAIT(120* ticks)
130: 0x09E5 [0x92] LocalPlayer->Render.Flags3 ^= 0x01
131: 0x09EB [0x7A] VM_CONTROL: Reset VM for Unnamed NPC (ID: 17146660/0x0105A324)
132: 0x09F1 [0x52] END_LOAD_SCHEDULER: End scheduler "v128" with entities [EventEntity, EventEntity], work=577*
133: 0x0A00 [0x45] LOAD_SCHEDULED_TASK: Load scheduler "v129" with entities [EventEntity, EventEntity], work=[577*, 0*]
134: 0x0A11 [0x1C] WAIT(60* ticks)
135: 0x0A14 [0x59] UPDATE_ENTITY_DATA: LocalPlayer->Render.Flags0 &= ~0x200000
136: 0x0A1B [0xBA] SET_ENTITY_POSITION(entity_id=LocalPlayer, pos_x=-758.765*, pos_z=-420.936*, pos_y=0.399*, direction=208.1°*)
137: 0x0A28 [0x59] UPDATE_ENTITY_DATA: Unnamed NPC (ID: 17146660/0x0105A324)->Render.Flags0 &= ~0x200000
138: 0x0A2F [0xBA] SET_ENTITY_POSITION(entity_id=Unnamed NPC (ID: 17146660/0x0105A324), pos_x=-761.562*, pos_z=-419.880*, pos_y=0.399*, direction=175.3°*)
139: 0x0A3C [0x4A] Unnamed NPC (ID: 17146660/0x0105A324) looks at Unnamed NPC (ID: 17146623/0x0105A2FF)
140: 0x0A45 [0x6B] STOP_AND_IDLE: Unnamed NPC (ID: 17146660/0x0105A324) stops current action and resets to idle (animation="idl0")
141: 0x0A4E [0x1C] WAIT(60* ticks)
142: 0x0A51 [0x52] END_LOAD_SCHEDULER: End scheduler "v129" with entities [EventEntity, EventEntity], work=577*
143: 0x0A60 [0x45] LOAD_SCHEDULED_TASK: Load scheduler "v130" with entities [EventEntity, EventEntity], work=[577*, 0*]
144: 0x0A71 [0x1C] WAIT(15* ticks)
145: 0x0A74 [0xCD] LOAD_SCHEDULED_TASK_ALT4: Load scheduler "out1" with entities [LocalPlayer, LocalPlayer], work=[116*, 0*]
146: 0x0A85 [0x1C] WAIT(45* ticks)
147: 0x0A88 [0xCD] LOAD_SCHEDULED_TASK_ALT4: Load scheduler "out1" with entities [Unnamed NPC (ID: 17146660/0x0105A324), Unnamed NPC (ID: 17146660/0x0105A324)], work=[116*, 0*]
148: 0x0A99 [0x1C] WAIT(120* ticks)
149: 0x0A9C [0x92] LocalPlayer->Render.Flags3 = Flags3  // No change (flag=0)
150: 0x0AA2 [0x27] REQ_SET(priority=0x10, entity_id=LocalPlayer, tag_num=0x1F)
151: 0x0AA9 [0x03] Work_Zone[2] = 120*
152: 0x0AAE [0x27] REQ_SET(priority=0x10, entity_id=??? (ID: 17146622/0x0105A2FE), tag_num=0x01)
153: 0x0AB5 [0x52] END_LOAD_SCHEDULER: End scheduler "v130" with entities [EventEntity, EventEntity], work=577*
154: 0x0AC4 [0x45] LOAD_SCHEDULED_TASK: Load scheduler "v131" with entities [EventEntity, EventEntity], work=[577*, 0*]
155: 0x0AD5 [0x2B] Unnamed NPC (ID: 17146660/0x0105A324) [8970*]:
    → "The brave people of this world resist their onslaught for now, but this will not hold forever. Only a matter of time."
156: 0x0ADC [0x2A] GET_REQ_LEVEL(level=16, entity_id=??? (ID: 17146622/0x0105A2FE))
157: 0x0AE2 [0x4A] LocalPlayer looks at Unnamed NPC (ID: 17146660/0x0105A324)
158: 0x0AEB [0x23] WAIT_FOR_DIALOG_INTERACTION
159: 0x0AEC [0x4A] Unnamed NPC (ID: 17146660/0x0105A324) looks at LocalPlayer
160: 0x0AF5 [0x6F] WAIT_FRAME_DELAY: Yield until WaitTime reaches zero
161: 0x0AF6 [0x76] CHECK_ENTITY_RENDER_FLAGS: Wait until Unnamed NPC (ID: 17146660/0x0105A324) Render.Flags0 and Render.Flags3 conditions are met
162: 0x0AFB [0x02] IF !(ExtData[1]->WorkLocal[1] < 2*) GOTO 0x0FB4
163: 0x0B03 [0x2B] Unnamed NPC (ID: 17146660/0x0105A324) [8971*]:
    → "...Yes? Is there a problem of sorts? Something concerning you?"
164: 0x0B0A [0x23] WAIT_FOR_DIALOG_INTERACTION

SUBROUTINE_0B0B:
165: 0x0B0B [0x02] IF !(ExtData[1]->WorkLocal[1] < 3*) GOTO 0x0B1B
166: 0x0B13 [0x03] ExtData[1]->WorkLocal[2] = 0*
167: 0x0B18 [0x01] GOTO 0x0B20
168: 0x0B1B [0x03] ExtData[1]->WorkLocal[2] = 2*

SUBROUTINE_0B20:
169: 0x0B20 [0x24] CREATE_DIALOG(message_id=8972*, default_option=0*, option_flags=ExtData[1]->WorkLocal[2])
    → "What's the matter? [You seem...different somehow./Didn't you vanish?]"
170: 0x0B27 [0x25] WAIT_DIALOG_SELECT()
171: 0x0B28 [0x02] IF !(Work_Zone[0] == 0*) GOTO 0x0EFE
172: 0x0B30 [0x29] REQ_SET_WAIT(priority=0x10, entity_id=LocalPlayer, tag_num=0x14)
173: 0x0B37 [0x52] END_LOAD_SCHEDULER: End scheduler "v131" with entities [EventEntity, EventEntity], work=577*
174: 0x0B46 [0x52] END_LOAD_SCHEDULER: End scheduler "v136" with entities [EventEntity, EventEntity], work=577*
175: 0x0B55 [0x45] LOAD_SCHEDULED_TASK: Load scheduler "v137" with entities [EventEntity, EventEntity], work=[577*, 0*]
176: 0x0B66 [0x2B] Unnamed NPC (ID: 17146660/0x0105A324) [8976*]:
    → "Different, you say?"
177: 0x0B6D [0x23] WAIT_FOR_DIALOG_INTERACTION
178: 0x0B6E [0x5B] LOAD_EXT_SCHEDULER: Load scheduler "thk0" with entities [Unnamed NPC (ID: 17146660/0x0105A324), Unnamed NPC (ID: 17146660/0x0105A324)], work=1310*
179: 0x0B7D [0x1C] WAIT(60* ticks)
180: 0x0B80 [0x2B] Unnamed NPC (ID: 17146660/0x0105A324) [8977*]:
    → "Dear me... It would seem that I've wandered into an entirely different plane of existence. Become a stray cait."
181: 0x0B87 [0x23] WAIT_FOR_DIALOG_INTERACTION
182: 0x0B88 [0x52] END_LOAD_SCHEDULER: End scheduler "v137" with entities [EventEntity, EventEntity], work=577*
183: 0x0B97 [0x45] LOAD_SCHEDULED_TASK: Load scheduler "v138" with entities [EventEntity, EventEntity], work=[577*, 0*]
184: 0x0BA8 [0x2B] Unnamed NPC (ID: 17146660/0x0105A324) [8978*]:
    → "I am Cait Sith, this is true, but not the Cait Sith you know. The Cait Sith you know is not me."
185: 0x0BAF [0x23] WAIT_FOR_DIALOG_INTERACTION
186: 0x0BB0 [0x5B] LOAD_EXT_SCHEDULER: Load scheduler "thk1" with entities [Unnamed NPC (ID: 17146660/0x0105A324), Unnamed NPC (ID: 17146660/0x0105A324)], work=1310*
187: 0x0BBF [0x1C] WAIT(30* ticks)
188: 0x0BC2 [0x2B] Unnamed NPC (ID: 17146660/0x0105A324) [8979*]:
    → "A curious state, yes, but such is the nature of dimensional flux."
189: 0x0BC9 [0x52] END_LOAD_SCHEDULER: End scheduler "v138" with entities [EventEntity, EventEntity], work=577*
190: 0x0BD8 [0x45] LOAD_SCHEDULED_TASK: Load scheduler "v139" with entities [EventEntity, EventEntity], work=[577*, 0*]
191: 0x0BE9 [0x1C] WAIT(120* ticks)
192: 0x0BEC [0x23] WAIT_FOR_DIALOG_INTERACTION
193: 0x0BED [0x53] WAIT_SCHEDULER_TASK: Wait for scheduler "thk1" with entities [Unnamed NPC (ID: 17146660/0x0105A324), Unnamed NPC (ID: 17146660/0x0105A324)]
194: 0x0BFA [0x52] END_LOAD_SCHEDULER: End scheduler "v138" with entities [EventEntity, EventEntity], work=577*
195: 0x0C09 [0x52] END_LOAD_SCHEDULER: End scheduler "v139" with entities [EventEntity, EventEntity], work=577*
196: 0x0C18 [0x45] LOAD_SCHEDULED_TASK: Load scheduler "v140" with entities [EventEntity, EventEntity], work=[577*, 0*]
197: 0x0C29 [0x5B] LOAD_EXT_SCHEDULER: Load scheduler "pnt0" with entities [Unnamed NPC (ID: 17146660/0x0105A324), Unnamed NPC (ID: 17146660/0x0105A324)], work=1312*
198: 0x0C38 [0x1C] WAIT(30* ticks)
199: 0x0C3B [0x2B] Unnamed NPC (ID: 17146660/0x0105A324) [8980*]:
    → "Parallel worlds--infinite possibilities that might have been, had things only happened differently. Taken another turn. From one such world do I hail."
200: 0x0C42 [0x23] WAIT_FOR_DIALOG_INTERACTION
201: 0x0C43 [0x52] END_LOAD_SCHEDULER: End scheduler "v140" with entities [EventEntity, EventEntity], work=577*
202: 0x0C52 [0x45] LOAD_SCHEDULED_TASK: Load scheduler "v141" with entities [EventEntity, EventEntity], work=[577*, 0*]
203: 0x0C63 [0x2B] Unnamed NPC (ID: 17146660/0x0105A324) [8981*]:
    → "Do you understand what I'm saying, <Player>? Able to follow? In other words, the Cait Sith you know continues to exist in your world, this world."
204: 0x0C6A [0x23] WAIT_FOR_DIALOG_INTERACTION
205: 0x0C6B [0x5B] LOAD_EXT_SCHEDULER: Load scheduler "pntr" with entities [Unnamed NPC (ID: 17146660/0x0105A324), Unnamed NPC (ID: 17146660/0x0105A324)], work=1312*
206: 0x0C7A [0x2B] Unnamed NPC (ID: 17146660/0x0105A324) [8982*]:
    → "I am myself, and no one else. Hence, there is nothing unusual about me."
207: 0x0C81 [0x23] WAIT_FOR_DIALOG_INTERACTION
208: 0x0C82 [0x52] END_LOAD_SCHEDULER: End scheduler "v141" with entities [EventEntity, EventEntity], work=577*
209: 0x0C91 [0x45] LOAD_SCHEDULED_TASK: Load scheduler "v142" with entities [EventEntity, EventEntity], work=[577*, 0*]
210: 0x0CA2 [0x2B] Unnamed NPC (ID: 17146660/0x0105A324) [8983*]:
    → "I've had my share of struggles with alternate futures, but this is an entirely different matter. A whole new can of sandworms."
211: 0x0CA9 [0x23] WAIT_FOR_DIALOG_INTERACTION
212: 0x0CAA [0x29] REQ_SET_WAIT(priority=0x10, entity_id=LocalPlayer, tag_num=0x1B)
213: 0x0CB1 [0x52] END_LOAD_SCHEDULER: End scheduler "v142" with entities [EventEntity, EventEntity], work=577*
214: 0x0CC0 [0x02] IF !(Work_Zone[2] == 1*) GOTO 0x0CDC
215: 0x0CC8 [0x45] LOAD_SCHEDULED_TASK: Load scheduler "v143" with entities [EventEntity, EventEntity], work=[577*, 0*]
216: 0x0CD9 [0x01] GOTO 0x0DA0
217: 0x0CDC [0x02] IF !(Work_Zone[2] == 2*) GOTO 0x0CF8
218: 0x0CE4 [0x45] LOAD_SCHEDULED_TASK: Load scheduler "v144" with entities [EventEntity, EventEntity], work=[577*, 0*]
219: 0x0CF5 [0x01] GOTO 0x0DA0
220: 0x0CF8 [0x02] IF !(Work_Zone[2] == 3*) GOTO 0x0D14
221: 0x0D00 [0x45] LOAD_SCHEDULED_TASK: Load scheduler "v145" with entities [EventEntity, EventEntity], work=[577*, 0*]
222: 0x0D11 [0x01] GOTO 0x0DA0
223: 0x0D14 [0x02] IF !(Work_Zone[2] == 4*) GOTO 0x0D30
224: 0x0D1C [0x45] LOAD_SCHEDULED_TASK: Load scheduler "v146" with entities [EventEntity, EventEntity], work=[577*, 0*]
225: 0x0D2D [0x01] GOTO 0x0DA0
226: 0x0D30 [0x02] IF !(Work_Zone[2] == 5*) GOTO 0x0D4C
227: 0x0D38 [0x45] LOAD_SCHEDULED_TASK: Load scheduler "v147" with entities [EventEntity, EventEntity], work=[577*, 0*]
228: 0x0D49 [0x01] GOTO 0x0DA0
229: 0x0D4C [0x02] IF !(Work_Zone[2] == 6*) GOTO 0x0D68
230: 0x0D54 [0x45] LOAD_SCHEDULED_TASK: Load scheduler "v147" with entities [EventEntity, EventEntity], work=[577*, 0*]
231: 0x0D65 [0x01] GOTO 0x0DA0
232: 0x0D68 [0x02] IF !(Work_Zone[2] == 7*) GOTO 0x0D84
233: 0x0D70 [0x45] LOAD_SCHEDULED_TASK: Load scheduler "v148" with entities [EventEntity, EventEntity], work=[577*, 0*]
234: 0x0D81 [0x01] GOTO 0x0DA0
235: 0x0D84 [0x02] IF !(Work_Zone[2] == 8*) GOTO 0x0DA0
236: 0x0D8C [0x45] LOAD_SCHEDULED_TASK: Load scheduler "v149" with entities [EventEntity, EventEntity], work=[577*, 0*]
237: 0x0D9D [0x01] GOTO 0x0DA0

SUBROUTINE_0DA0:
238: 0x0DA0 [0x1C] WAIT(30* ticks)
239: 0x0DA3 [0x81] SET_ENTITY_BLINKING(blink_flag=0x00, entity=Unnamed NPC (ID: 17146660/0x0105A324))
240: 0x0DA9 [0x5B] LOAD_EXT_SCHEDULER: Load scheduler "4308" with entities [Unnamed NPC (ID: 17146660/0x0105A324), Unnamed NPC (ID: 17146660/0x0105A324)], work=2520*
241: 0x0DB8 [0x1C] WAIT(90* ticks)
242: 0x0DBB [0x52] END_LOAD_SCHEDULER: End scheduler "v143" with entities [EventEntity, EventEntity], work=577*
243: 0x0DCA [0x52] END_LOAD_SCHEDULER: End scheduler "v144" with entities [EventEntity, EventEntity], work=577*
244: 0x0DD9 [0x52] END_LOAD_SCHEDULER: End scheduler "v145" with entities [EventEntity, EventEntity], work=577*
245: 0x0DE8 [0x52] END_LOAD_SCHEDULER: End scheduler "v146" with entities [EventEntity, EventEntity], work=577*
246: 0x0DF7 [0x52] END_LOAD_SCHEDULER: End scheduler "v147" with entities [EventEntity, EventEntity], work=577*
247: 0x0E06 [0x52] END_LOAD_SCHEDULER: End scheduler "v148" with entities [EventEntity, EventEntity], work=577*
248: 0x0E15 [0x52] END_LOAD_SCHEDULER: End scheduler "v149" with entities [EventEntity, EventEntity], work=577*
249: 0x0E24 [0x45] LOAD_SCHEDULED_TASK: Load scheduler "v150" with entities [EventEntity, EventEntity], work=[577*, 0*]
250: 0x0E35 [0x1C] WAIT(30* ticks)
251: 0x0E38 [0x2B] Unnamed NPC (ID: 17146660/0x0105A324) [8984*]:
    → "My head--and yours as well, no doubt--throbs just thinking about it. Severe brain pain."
252: 0x0E3F [0x23] WAIT_FOR_DIALOG_INTERACTION
253: 0x0E40 [0x52] END_LOAD_SCHEDULER: End scheduler "v150" with entities [EventEntity, EventEntity], work=577*
254: 0x0E4F [0x45] LOAD_SCHEDULED_TASK: Load scheduler "v151" with entities [EventEntity, EventEntity], work=[577*, 0*]
255: 0x0E60 [0x5B] LOAD_EXT_SCHEDULER: Load scheduler "4309" with entities [Unnamed NPC (ID: 17146660/0x0105A324), Unnamed NPC (ID: 17146660/0x0105A324)], work=2520*
256: 0x0E6F [0x1C] WAIT(270* ticks)
257: 0x0E72 [0x52] END_LOAD_SCHEDULER: End scheduler "v151" with entities [EventEntity, EventEntity], work=577*
258: 0x0E81 [0x45] LOAD_SCHEDULED_TASK: Load scheduler "v153" with entities [EventEntity, EventEntity], work=[577*, 0*]
259: 0x0E92 [0x5B] LOAD_EXT_SCHEDULER: Load scheduler "4310" with entities [Unnamed NPC (ID: 17146660/0x0105A324), Unnamed NPC (ID: 17146660/0x0105A324)], work=2520*
260: 0x0EA1 [0x03] Work_Zone[2] = 180*
261: 0x0EA6 [0x27] REQ_SET(priority=0x10, entity_id=??? (ID: 17146622/0x0105A2FE), tag_num=0x01)
262: 0x0EAD [0x1C] WAIT(90* ticks)
263: 0x0EB0 [0x2B] Unnamed NPC (ID: 17146660/0x0105A324) [8985*]:
    → "Oh dear, it nigh slipped my mind! I must take care not to reveal my identity to my alter ego from this world."
264: 0x0EB7 [0x23] WAIT_FOR_DIALOG_INTERACTION
265: 0x0EB8 [0x2A] GET_REQ_LEVEL(level=16, entity_id=??? (ID: 17146622/0x0105A2FE))
266: 0x0EBE [0x52] END_LOAD_SCHEDULER: End scheduler "v153" with entities [EventEntity, EventEntity], work=577*
267: 0x0ECD [0x45] LOAD_SCHEDULED_TASK: Load scheduler "v133" with entities [EventEntity, EventEntity], work=[577*, 0*]
268: 0x0EDE [0x81] SET_ENTITY_BLINKING(blink_flag=0x01, entity=Unnamed NPC (ID: 17146660/0x0105A324))
269: 0x0EE4 [0x5B] LOAD_EXT_SCHEDULER: Load scheduler "kam0" with entities [Unnamed NPC (ID: 17146660/0x0105A324), Unnamed NPC (ID: 17146660/0x0105A324)], work=2527*
270: 0x0EF3 [0x2B] Unnamed NPC (ID: 17146660/0x0105A324) [8986*]:
    → "If you'll excuse me for just a moment..."
271: 0x0EFA [0x23] WAIT_FOR_DIALOG_INTERACTION
272: 0x0EFB [0x01] GOTO 0x0FB1
273: 0x0EFE [0x02] IF !(Work_Zone[0] == 1*) GOTO 0x0FB1
274: 0x0F06 [0x52] END_LOAD_SCHEDULER: End scheduler "v131" with entities [EventEntity, EventEntity], work=577*
275: 0x0F15 [0x45] LOAD_SCHEDULED_TASK: Load scheduler "v134" with entities [EventEntity, EventEntity], work=[577*, 0*]
276: 0x0F26 [0x29] REQ_SET_WAIT(priority=0x10, entity_id=LocalPlayer, tag_num=0x14)
277: 0x0F2D [0x5B] LOAD_EXT_SCHEDULER: Load scheduler "hig0" with entities [Unnamed NPC (ID: 17146660/0x0105A324), Unnamed NPC (ID: 17146660/0x0105A324)], work=1410*
278: 0x0F3C [0x2B] Unnamed NPC (ID: 17146660/0x0105A324) [8973*]:
    → "That I did, for a time. But this new threat was simply too great to ignore. Could not stand idly by."
279: 0x0F43 [0x23] WAIT_FOR_DIALOG_INTERACTION
280: 0x0F44 [0x52] END_LOAD_SCHEDULER: End scheduler "v134" with entities [EventEntity, EventEntity], work=577*
281: 0x0F53 [0x45] LOAD_SCHEDULED_TASK: Load scheduler "v135" with entities [EventEntity, EventEntity], work=[577*, 0*]
282: 0x0F64 [0x2B] Unnamed NPC (ID: 17146660/0x0105A324) [8974*]:
    → "Such is the nature of Cait Sith. When I am needed by Altana's children, there I shall be."
283: 0x0F6B [0x23] WAIT_FOR_DIALOG_INTERACTION
284: 0x0F6C [0x52] END_LOAD_SCHEDULER: End scheduler "v135" with entities [EventEntity, EventEntity], work=577*
285: 0x0F7B [0x45] LOAD_SCHEDULED_TASK: Load scheduler "v136" with entities [EventEntity, EventEntity], work=[577*, 0*]
286: 0x0F8C [0x5B] LOAD_EXT_SCHEDULER: Load scheduler "hig1" with entities [Unnamed NPC (ID: 17146660/0x0105A324), Unnamed NPC (ID: 17146660/0x0105A324)], work=1410*
287: 0x0F9B [0x1C] WAIT(30* ticks)
288: 0x0F9E [0x2B] Unnamed NPC (ID: 17146660/0x0105A324) [8975*]:
    → "So I call upon you to take up arms for the Goddess once more. Spread forth your wings."
289: 0x0FA5 [0x23] WAIT_FOR_DIALOG_INTERACTION
290: 0x0FA6 [0x03] ExtData[1]->WorkLocal[1] = 2*
291: 0x0FAB [0x01] GOTO 0x0B0B

SUBROUTINE_0FB1:
292: 0x0FB1 [0x01] GOTO 0x1054
293: 0x0FB4 [0x2B] Unnamed NPC (ID: 17146660/0x0105A324) [8987*]:
    → "...It looks like we have a lot of catching up to do."
294: 0x0FBB [0x23] WAIT_FOR_DIALOG_INTERACTION
295: 0x0FBC [0x52] END_LOAD_SCHEDULER: End scheduler "v131" with entities [EventEntity, EventEntity], work=577*
296: 0x0FCB [0x45] LOAD_SCHEDULED_TASK: Load scheduler "v132" with entities [EventEntity, EventEntity], work=[577*, 0*]
297: 0x0FDC [0x5B] LOAD_EXT_SCHEDULER: Load scheduler "thk0" with entities [Unnamed NPC (ID: 17146660/0x0105A324), Unnamed NPC (ID: 17146660/0x0105A324)], work=1310*
298: 0x0FEB [0x1C] WAIT(60* ticks)
299: 0x0FEE [0x2B] Unnamed NPC (ID: 17146660/0x0105A324) [8977*]:
    → "Dear me... It would seem that I've wandered into an entirely different plane of existence. Become a stray cait."
300: 0x0FF5 [0x23] WAIT_FOR_DIALOG_INTERACTION
301: 0x0FF6 [0x2B] Unnamed NPC (ID: 17146660/0x0105A324) [8988*]:
    → "And it would seem that you and I have not yet made acquaintance in this world. A full introduction would be in order, but I fear we haven't the time. Matters far too urgent."
302: 0x0FFD [0x23] WAIT_FOR_DIALOG_INTERACTION
303: 0x0FFE [0x52] END_LOAD_SCHEDULER: End scheduler "v132" with entities [EventEntity, EventEntity], work=577*
304: 0x100D [0x45] LOAD_SCHEDULED_TASK: Load scheduler "v133" with entities [EventEntity, EventEntity], work=[577*, 0*]
305: 0x101E [0x5B] LOAD_EXT_SCHEDULER: Load scheduler "thk1" with entities [Unnamed NPC (ID: 17146660/0x0105A324), Unnamed NPC (ID: 17146660/0x0105A324)], work=1310*
306: 0x102D [0x1C] WAIT(30* ticks)
307: 0x1030 [0x2B] Unnamed NPC (ID: 17146660/0x0105A324) [8989*]:
    → "Besides, I am certain our paths will cross eventually. All in due time. Now, if you'll excuse me a moment..."
308: 0x1037 [0x23] WAIT_FOR_DIALOG_INTERACTION
309: 0x1038 [0x53] WAIT_SCHEDULER_TASK: Wait for scheduler "thk1" with entities [Unnamed NPC (ID: 17146660/0x0105A324), Unnamed NPC (ID: 17146660/0x0105A324)]
310: 0x1045 [0x5B] LOAD_EXT_SCHEDULER: Load scheduler "kam0" with entities [Unnamed NPC (ID: 17146660/0x0105A324), Unnamed NPC (ID: 17146660/0x0105A324)], work=2527*

SUBROUTINE_1054:
311: 0x1054 [0x1C] WAIT(90* ticks)
312: 0x1057 [0x5D] SET_MUSIC_VOLUME(volume=0*, fade_time=30*)
313: 0x105C [0x1A] CALL_SUBROUTINE(address=0x2AF3)
314: 0x105F [0x5B] LOAD_EXT_SCHEDULER: Load scheduler "nyal" with entities [Unnamed NPC (ID: 17146660/0x0105A324), Unnamed NPC (ID: 17146660/0x0105A324)], work=2098*
315: 0x106E [0x1C] WAIT(15* ticks)
316: 0x1071 [0x5B] LOAD_EXT_SCHEDULER: Load scheduler "udel" with entities [Unnamed NPC (ID: 17146660/0x0105A324), Unnamed NPC (ID: 17146660/0x0105A324)], work=1412*
317: 0x1080 [0xBA] SET_ENTITY_POSITION(entity_id=Unnamed NPC (ID: 17146660/0x0105A324), pos_x=-755.958*, pos_z=-420.028*, pos_y=0.399*, direction=0.0°*)
318: 0x108D [0x1C] WAIT(45* ticks)
319: 0x1090 [0x5B] LOAD_EXT_SCHEDULER: Load scheduler "nyak" with entities [Unnamed NPC (ID: 17146660/0x0105A324), Unnamed NPC (ID: 17146660/0x0105A324)], work=2098*
320: 0x109F [0x7B] LocalPlayer stops talking
321: 0x10A4 [0x2C] CREATE_SCHEDULER_TASK: Create scheduler "dead" with entities [LocalPlayer, LocalPlayer]
322: 0x10B1 [0x1C] WAIT(30* ticks)
323: 0x10B4 [0x52] END_LOAD_SCHEDULER: End scheduler "v133" with entities [EventEntity, EventEntity], work=577*
324: 0x10C3 [0x45] LOAD_SCHEDULED_TASK: Load scheduler "v160" with entities [EventEntity, EventEntity], work=[577*, 0*]
325: 0x10D4 [0x1A] CALL_SUBROUTINE(address=0x29C1)
326: 0x10D7 [0x1C] WAIT(60* ticks)
327: 0x10DA [0x2B] Unnamed NPC (ID: 17146660/0x0105A324) [8990*]:
    → "Yes, that should do the trick. Will serve nicely. Now, where were we?"
328: 0x10E1 [0x23] WAIT_FOR_DIALOG_INTERACTION
329: 0x10E2 [0x1A] CALL_SUBROUTINE(address=0x29A0)
330: 0x10E5 [0x1C] WAIT(30* ticks)
331: 0x10E8 [0xBA] SET_ENTITY_POSITION(entity_id=LocalPlayer, pos_x=-758.765*, pos_z=-420.936*, pos_y=0.399*, direction=336.5°*)
332: 0x10F5 [0xBA] SET_ENTITY_POSITION(entity_id=Unnamed NPC (ID: 17146661/0x0105A325), pos_x=-750.089*, pos_z=-420.013*, pos_y=0.399*, direction=180.0°*)
333: 0x1102 [0x29] REQ_SET_WAIT(priority=0x10, entity_id=LocalPlayer, tag_num=0x19)
334: 0x1109 [0x6B] STOP_AND_IDLE: Unnamed NPC (ID: 17146660/0x0105A324) stops current action and resets to idle (animation="idl0")
335: 0x1112 [0x4A] Unnamed NPC (ID: 17146660/0x0105A324) looks at LocalPlayer
336: 0x111B [0x48] [System] [7902*]:
    → "@@"
337: 0x111E [0x23] WAIT_FOR_DIALOG_INTERACTION
338: 0x111F [0x52] END_LOAD_SCHEDULER: End scheduler "v160" with entities [EventEntity, EventEntity], work=577*
339: 0x112E [0x45] LOAD_SCHEDULED_TASK: Load scheduler "v161" with entities [EventEntity, EventEntity], work=[577*, 0*]
340: 0x113F [0x1A] CALL_SUBROUTINE(address=0x297F)
341: 0x1142 [0x1C] WAIT(60* ticks)
342: 0x1145 [0x27] REQ_SET(priority=0x10, entity_id=Unnamed NPC (ID: 17146660/0x0105A324), tag_num=0x0F)
343: 0x114C [0x1C] WAIT(30* ticks)
344: 0x114F [0x2B] Unnamed NPC (ID: 17146660/0x0105A324) [8991*]:
    → "You have already slain a number of these Voidwalkers on your way here, am I correct?"
345: 0x1156 [0x23] WAIT_FOR_DIALOG_INTERACTION
346: 0x1157 [0x52] END_LOAD_SCHEDULER: End scheduler "v161" with entities [EventEntity, EventEntity], work=577*
347: 0x1166 [0x45] LOAD_SCHEDULED_TASK: Load scheduler "v162" with entities [EventEntity, EventEntity], work=[577*, 0*]
348: 0x1177 [0x27] REQ_SET(priority=0x10, entity_id=LocalPlayer, tag_num=0x1A)
349: 0x117E [0x2A] GET_REQ_LEVEL(level=16, entity_id=Unnamed NPC (ID: 17146660/0x0105A324))
350: 0x1184 [0x4A] Unnamed NPC (ID: 17146660/0x0105A324) looks at LocalPlayer
351: 0x118D [0x2B] Unnamed NPC (ID: 17146660/0x0105A324) [8992*]:
    → "Splendid! You must continue your efforts to quell this interdimensional menace. Make it your first priority."
352: 0x1194 [0x2A] GET_REQ_LEVEL(level=16, entity_id=LocalPlayer)
353: 0x119A [0x4A] LocalPlayer looks at Unnamed NPC (ID: 17146660/0x0105A324)
354: 0x11A3 [0x6F] WAIT_FRAME_DELAY: Yield until WaitTime reaches zero
355: 0x11A4 [0x76] CHECK_ENTITY_RENDER_FLAGS: Wait until LocalPlayer Render.Flags0 and Render.Flags3 conditions are met
356: 0x11A9 [0x23] WAIT_FOR_DIALOG_INTERACTION
357: 0x11AA [0x5B] LOAD_EXT_SCHEDULER: Load scheduler "thk0" with entities [Unnamed NPC (ID: 17146660/0x0105A324), Unnamed NPC (ID: 17146660/0x0105A324)], work=1310*
358: 0x11B9 [0x1C] WAIT(60* ticks)
359: 0x11BC [0x2B] Unnamed NPC (ID: 17146660/0x0105A324) [8993*]:
    → "The fiends have not yet overrun this world, but I fear for the worst if the threat is left unchecked."
360: 0x11C3 [0x23] WAIT_FOR_DIALOG_INTERACTION
361: 0x11C4 [0x52] END_LOAD_SCHEDULER: End scheduler "v162" with entities [EventEntity, EventEntity], work=577*
362: 0x11D3 [0x45] LOAD_SCHEDULED_TASK: Load scheduler "v163" with entities [EventEntity, EventEntity], work=[577*, 0*]
363: 0x11E4 [0x2B] Unnamed NPC (ID: 17146660/0x0105A324) [8994*]:
    → "You must take action while there is still time. Launch a preemptive strike."
364: 0x11EB [0x23] WAIT_FOR_DIALOG_INTERACTION
365: 0x11EC [0x5B] LOAD_EXT_SCHEDULER: Load scheduler "thk1" with entities [Unnamed NPC (ID: 17146660/0x0105A324), Unnamed NPC (ID: 17146660/0x0105A324)], work=1310*
366: 0x11FB [0x1C] WAIT(30* ticks)
367: 0x11FE [0x2B] Unnamed NPC (ID: 17146660/0x0105A324) [8995*]:
    → "In the meantime, I will continue to investigate the disturbance. Get to the bottom of this."
368: 0x1205 [0x23] WAIT_FOR_DIALOG_INTERACTION
369: 0x1206 [0x52] END_LOAD_SCHEDULER: End scheduler "v163" with entities [EventEntity, EventEntity], work=577*
370: 0x1215 [0x45] LOAD_SCHEDULED_TASK: Load scheduler "v164" with entities [EventEntity, EventEntity], work=[577*, 0*]
371: 0x1226 [0x2B] Unnamed NPC (ID: 17146661/0x0105A325) [8996*]:
    → "Kupohoho... Thou spin'st a stirring tale, my feline friend."
372: 0x122D [0x1C] WAIT(30* ticks)
373: 0x1230 [0xBB] LOAD_EVENT_SCHEDULER_ALT: Load scheduler "main" with entities [Unnamed NPC (ID: 17146661/0x0105A325), Unnamed NPC (ID: 17146661/0x0105A325)], work=[121*, 0*]
374: 0x1241 [0x1C] WAIT(15* ticks)
375: 0x1244 [0x23] WAIT_FOR_DIALOG_INTERACTION
376: 0x1245 [0x5B] LOAD_EXT_SCHEDULER: Load scheduler "fri0" with entities [Unnamed NPC (ID: 17146660/0x0105A324), Unnamed NPC (ID: 17146660/0x0105A324)], work=2859*
377: 0x1254 [0x2B] Unnamed NPC (ID: 17146660/0x0105A324) [8997*]:
    → "Who goes there!?"
378: 0x125B [0x1C] WAIT(5* ticks)
379: 0x125E [0x4A] LocalPlayer looks at Unnamed NPC (ID: 17146661/0x0105A325)
380: 0x1267 [0x23] WAIT_FOR_DIALOG_INTERACTION
381: 0x1268 [0x5C] MUSIC_CONTROL: Set Idle (Day) music to song 123*
382: 0x126C [0x5C] MUSIC_CONTROL: Set Idle (Night) music to song 123*
383: 0x1270 [0x9A] WAIT_MUSIC_SERVER()
384: 0x1271 [0x52] END_LOAD_SCHEDULER: End scheduler "v164" with entities [EventEntity, EventEntity], work=577*
385: 0x1280 [0x45] LOAD_SCHEDULED_TASK: Load scheduler "v165" with entities [EventEntity, EventEntity], work=[577*, 0*]
386: 0x1291 [0x5B] LOAD_EXT_SCHEDULER: Load scheduler "oji0" with entities [Unnamed NPC (ID: 17146661/0x0105A325), Unnamed NPC (ID: 17146661/0x0105A325)], work=2642*
387: 0x12A0 [0x03] Work_Zone[2] = 160*
388: 0x12A5 [0x27] REQ_SET(priority=0x10, entity_id=??? (ID: 17146622/0x0105A2FE), tag_num=0x01)
389: 0x12AC [0x29] REQ_SET_WAIT(priority=0x10, entity_id=Unnamed NPC (ID: 17146661/0x0105A325), tag_num=0x0A)
390: 0x12B3 [0x2B] Unnamed NPC (ID: 17146661/0x0105A325) [8998*]:
    → "Pray pardon my presumptuousness. I am Kupofried, a humble moogle beckoned hither by mine own curiosity as to the events of which thou speakest."
391: 0x12BA [0x1C] WAIT(30* ticks)
392: 0x12BD [0x6B] STOP_AND_IDLE: Unnamed NPC (ID: 17146660/0x0105A324) stops current action and resets to idle (animation="idl0")
393: 0x12C6 [0x4A] Unnamed NPC (ID: 17146660/0x0105A324) looks at Unnamed NPC (ID: 17146661/0x0105A325)
394: 0x12CF [0x6F] WAIT_FRAME_DELAY: Yield until WaitTime reaches zero
395: 0x12D0 [0x76] CHECK_ENTITY_RENDER_FLAGS: Wait until Unnamed NPC (ID: 17146660/0x0105A324) Render.Flags0 and Render.Flags3 conditions are met
396: 0x12D5 [0x23] WAIT_FOR_DIALOG_INTERACTION
397: 0x12D6 [0x2A] GET_REQ_LEVEL(level=16, entity_id=??? (ID: 17146622/0x0105A2FE))
398: 0x12DC [0x52] END_LOAD_SCHEDULER: End scheduler "v165" with entities [EventEntity, EventEntity], work=577*
399: 0x12EB [0x45] LOAD_SCHEDULED_TASK: Load scheduler "v166" with entities [EventEntity, EventEntity], work=[577*, 0*]
400: 0x12FC [0x1C] WAIT(15* ticks)
401: 0x12FF [0x27] REQ_SET(priority=0x10, entity_id=Unnamed NPC (ID: 17146661/0x0105A325), tag_num=0x0C)
402: 0x1306 [0x1C] WAIT(30* ticks)
403: 0x1309 [0x5B] LOAD_EXT_SCHEDULER: Load scheduler "kam0" with entities [Unnamed NPC (ID: 17146660/0x0105A324), Unnamed NPC (ID: 17146660/0x0105A324)], work=2527*
404: 0x1318 [0x2B] Unnamed NPC (ID: 17146661/0x0105A325) [8999*]:
    → "Yes, 'twould seem this phenomenon doth hold implications most dire. More dire, even, than that which hath manifested at the Walk of Echoes, kupo..."
