# 17146624

## Common Data

| Field            | Value                           |
|------------------|---------------------------------|
| Zone             | Pashhow Marshlands [S] (ID: 90) |
| Block Size       | 4092 bytes                      |
| Total Events     | 3                               |
| References Count | 89                              |

## List of Events

| Event ID              | Entrypoint   |   Size |   Instructions |
|-----------------------|--------------|--------|----------------|
| [65535](#event-65535) | 0x0000       |      1 |              1 |
| [2](#event-2)         | 0x0001       |   2853 |            351 |
| [5](#event-5)         | 0x0B26       |    853 |             95 |

## DAT References (imed_data)

|   Index | Hex Value   |   Dec Value |
|---------|-------------|-------------|
|       0 | 0x0013      |          19 |
|       1 | 0xFFF9036F  |  4294509423 |
|       2 | 0xFFFA6BFC  |  4294601724 |
|       3 | 0x61A7      |       24999 |
|       4 | 0x0D6A      |        3434 |
|       5 | 0xFFF8DC59  |  4294499417 |
|       6 | 0xFFFA6DD7  |  4294602199 |
|       7 | 0x53B9      |       21433 |
|       8 | 0x0D3C      |        3388 |
|       9 | 0x05B3      |        1459 |
|      10 | 0x0000      |           0 |
|      11 | 0x012C      |         300 |
|      12 | 0x000F      |          15 |
|      13 | 0x017D      |         381 |
|      14 | 0x001E      |          30 |
|      15 | 0x0003      |           3 |
|      16 | 0x002D      |          45 |
|      17 | 0x1EA9      |        7849 |
|      18 | 0x0014      |          20 |
|      19 | 0x1EAA      |        7850 |
|      20 | 0x0022      |          34 |
|      21 | 0x1EAB      |        7851 |
|      22 | 0xFFF90B97  |  4294511511 |
|      23 | 0xFFFA627E  |  4294599294 |
|      24 | 0x0A1F      |        2591 |
|      25 | 0xFFF904A6  |  4294509734 |
|      26 | 0xFFFA69D9  |  4294601177 |
|      27 | 0x0D53      |        3411 |
|      28 | 0x1EDE      |        7902 |
|      29 | 0x0091      |         145 |
|      30 | 0x003C      |          60 |
|      31 | 0x1EAC      |        7852 |
|      32 | 0x1EAD      |        7853 |
|      33 | 0x001A      |          26 |
|      34 | 0x0096      |         150 |
|      35 | 0x1EAE      |        7854 |
|      36 | 0x000A      |          10 |
|      37 | 0x1EAF      |        7855 |
|      38 | 0x0009      |           9 |
|      39 | 0x1EB0      |        7856 |
|      40 | 0x1EB1      |        7857 |
|      41 | 0x1EB2      |        7858 |
|      42 | 0x1EB3      |        7859 |
|      43 | 0x1EB4      |        7860 |
|      44 | 0x1EB5      |        7861 |
|      45 | 0x054B      |        1355 |
|      46 | 0x00B4      |         180 |
|      47 | 0x1EB6      |        7862 |
|      48 | 0x1EB7      |        7863 |
|      49 | 0xFFF8EB3D  |  4294503229 |
|      50 | 0xFFFA5F44  |  4294598468 |
|      51 | 0x5372      |       21362 |
|      52 | 0x09BC      |        2492 |
|      53 | 0x0078      |         120 |
|      54 | 0x1EB8      |        7864 |
|      55 | 0x1EB9      |        7865 |
|      56 | 0x1EBA      |        7866 |
|      57 | 0x0001      |           1 |
|      58 | 0x0002      |           2 |
|      59 | 0x0004      |           4 |
|      60 | 0x0005      |           5 |
|      61 | 0x0006      |           6 |
|      62 | 0x0007      |           7 |
|      63 | 0x0008      |           8 |
|      64 | 0x1EBB      |        7867 |
|      65 | 0x1EBC      |        7868 |
|      66 | 0x1EBD      |        7869 |
|      67 | 0x1EBE      |        7870 |
|      68 | 0x007F      |         127 |
|      69 | 0x00B1      |         177 |
|      70 | 0x01A4      |         420 |
|      71 | 0x017C      |         380 |
|      72 | 0x1EBF      |        7871 |
|      73 | 0x1EC0      |        7872 |
|      74 | 0x1EC1      |        7873 |
|      75 | 0x01CC      |         460 |
|      76 | 0x005A      |          90 |
|      77 | 0x1EC2      |        7874 |
|      78 | 0x1EC3      |        7875 |
|      79 | 0x1EC4      |        7876 |
|      80 | 0x1EC5      |        7877 |
|      81 | 0x1EC6      |        7878 |
|      82 | 0x1EC7      |        7879 |
|      83 | 0x1EC8      |        7880 |
|      84 | 0x00C8      |         200 |
|      85 | 0x0145      |         325 |
|      86 | 0x1EC9      |        7881 |
|      87 | 0x00C9      |         201 |
|      88 | 0x00D7      |         215 |

## String References

- **7881**: There is a sealed letter which appears to have been dropped...
- **7902**: @@

## Events

### Event 65535

#### Metadata

| Field        | Value   |
|--------------|---------|
| Entrypoint   | 0x0000  |
| Data Size    | 1 bytes |
| Instructions | 1       |

```
      00 01 02 03 04 05 06 07  08 09 0A 0B 0C 0D 0E 0F
      -- -- -- -- -- -- -- --  -- -- -- -- -- -- -- --
0000: 00                                                .               
```

#### Opcodes

```
  0: 0x0000 [0x00] END_REQSTACK()
```

### Event 2

#### Metadata

| Field        | Value      |
|--------------|------------|
| Entrypoint   | 0x0001     |
| Data Size    | 2853 bytes |
| Instructions | 351        |

```
      00 01 02 03 04 05 06 07  08 09 0A 0B 0C 0D 0E 0F
      -- -- -- -- -- -- -- --  -- -- -- -- -- -- -- --
0000:    42 03 00 00 09 10 1A  4D 0C 46 01 38 00 80 27   B......M.F.8..'
0010: 10 01 A3 05 01 04 27 10  02 A3 05 01 02 92 01 01  ......'.........
0020: A3 05 01 94 01 F0 FF FF  7F 94 01 01 A3 05 01 94  ................
0030: 01 03 A3 05 01 94 01 02  A3 05 01 BA F0 FF FF 7F  ................
0040: 01 80 02 80 03 80 04 80  BA 01 A3 05 01 05 80 06  ................
0050: 80 07 80 08 80 80 F0 FF  FF 7F 80 01 A3 05 01 80  ................
0060: 03 A3 05 01 80 02 A3 05  01 5B 09 80 02 A3 05 01  .........[......
0070: 02 A3 05 01 6C 61 74 79  5D 0A 80 0B 80 1C 0C 80  ....laty].......
0080: 45 0D 80 F0 FF FF 7F F0  FF FF 7F 61 64 30 30 0A  E..........ad00.
0090: 80 1A 2C 0C 1C 0E 80 62  0F 80 03 A3 05 01 03 A3  ..,....b........
00A0: 05 01 6D 61 69 6E 0A 80  1C 0C 80 4A F0 FF FF 7F  ..main.....J....
00B0: 03 A3 05 01 6F 76 F0 FF  FF 7F 29 10 F0 FF FF 7F  ....ov....).....
00C0: 19 1C 10 80 52 0D 80 F0  FF FF 7F F0 FF FF 7F 61  ....R..........a
00D0: 64 30 30 45 0D 80 F0 FF  FF 7F F0 FF FF 7F 61 64  d00E..........ad
00E0: 30 31 0A 80 2B FE A2 05  01 11 80 23 79 00 F0 FF  01..+......#y...
00F0: FF 7F 01 A3 05 01 29 10  F0 FF FF 7F 1A 4A F0 FF  ......)......J..
0100: FF 7F 01 A3 05 01 1C 0C  80 27 10 01 A3 05 01 0B  .........'......
0110: 52 0D 80 F0 FF FF 7F F0  FF FF 7F 61 64 30 31 45  R..........ad01E
0120: 0D 80 F0 FF FF 7F F0 FF  FF 7F 61 64 30 32 0A 80  ..........ad02..
0130: 1C 12 80 79 00 01 A3 05  01 F0 FF FF 7F 2B 01 A3  ...y.........+..
0140: 05 01 13 80 23 2A 10 01  A3 05 01 52 0D 80 F0 FF  ....#*.....R....
0150: FF 7F F0 FF FF 7F 61 64  30 32 45 0D 80 F0 FF FF  ......ad02E.....
0160: 7F F0 FF FF 7F 61 64 30  33 0A 80 6E F0 FF FF 7F  .....ad03..n....
0170: 14 80 99 F0 FF FF 7F 99  F0 FF FF 7F 2B 01 A3 05  ............+...
0180: 01 15 80 23 1A 4D 0C 1C  0E 80 BA F0 FF FF 7F 16  ...#.M..........
0190: 80 17 80 03 80 18 80 BA  01 A3 05 01 19 80 1A 80  ................
01A0: 03 80 1B 80 1C 0C 80 79  00 01 A3 05 01 03 A3 05  .......y........
01B0: 01 29 10 01 A3 05 01 09  48 1C 80 23 5C 00 1D 80  .)......H..#\...
01C0: 5C 01 1D 80 9A 52 0D 80  F0 FF FF 7F F0 FF FF 7F  \....R..........
01D0: 61 64 30 33 45 0D 80 F0  FF FF 7F F0 FF FF 7F 61  ad03E..........a
01E0: 64 30 34 0A 80 1A 2C 0C  1C 1E 80 7B 01 A3 05 01  d04...,....{....
01F0: 2B 01 A3 05 01 1F 80 23  27 10 01 A3 05 01 0A 1C  +......#'.......
0200: 0C 80 52 0D 80 F0 FF FF  7F F0 FF FF 7F 61 64 30  ..R..........ad0
0210: 34 45 0D 80 F0 FF FF 7F  F0 FF FF 7F 61 64 30 35  4E..........ad05
0220: 0A 80 1C 0E 80 2B 01 A3  05 01 20 80 23 2A 10 01  .....+.... .#*..
0230: A3 05 01 6E 01 A3 05 01  21 80 99 01 A3 05 01 03  ...n....!.......
0240: 02 10 22 80 27 10 FE A2  05 01 01 2B 01 A3 05 01  ..".'......+....
0250: 23 80 23 2A 10 FE A2 05  01 4A 01 A3 05 01 F0 FF  #.#*.....J......
0260: FF 7F 1C 24 80 52 0D 80  F0 FF FF 7F F0 FF FF 7F  ...$.R..........
0270: 61 64 30 35 45 0D 80 F0  FF FF 7F F0 FF FF 7F 61  ad05E..........a
0280: 64 30 36 0A 80 6F 76 01  A3 05 01 2B 01 A3 05 01  d06..ov....+....
0290: 25 80 23 66 26 80 01 A3  05 01 01 A3 05 01 74 77  %.#f&.........tw
02A0: 62 30 2B 01 A3 05 01 27  80 23 66 26 80 01 A3 05  b0+....'.#f&....
02B0: 01 01 A3 05 01 74 77 62  31 52 0D 80 F0 FF FF 7F  .....twb1R......
02C0: F0 FF FF 7F 61 64 30 36  45 0D 80 F0 FF FF 7F F0  ....ad06E.......
02D0: FF FF 7F 61 64 30 37 0A  80 2B 01 A3 05 01 28 80  ...ad07..+....(.
02E0: 23 29 10 F0 FF FF 7F 14  1C 0E 80 7B 01 A3 05 01  #).........{....
02F0: 52 0D 80 F0 FF FF 7F F0  FF FF 7F 61 64 30 37 45  R..........ad07E
0300: 0D 80 F0 FF FF 7F F0 FF  FF 7F 61 64 30 39 0A 80  ..........ad09..
0310: 66 26 80 01 A3 05 01 01  A3 05 01 74 68 6B 31 1C  f&.........thk1.
0320: 10 80 2B 01 A3 05 01 29  80 23 2B 01 A3 05 01 2A  ..+....).#+....*
0330: 80 23 66 26 80 01 A3 05  01 01 A3 05 01 74 68 6B  .#f&.........thk
0340: 32 1C 0C 80 52 0D 80 F0  FF FF 7F F0 FF FF 7F 61  2...R..........a
0350: 64 30 39 45 0D 80 F0 FF  FF 7F F0 FF FF 7F 61 64  d09E..........ad
0360: 30 38 0A 80 79 00 01 A3  05 01 F0 FF FF 7F 53 01  08..y.........S.
0370: A3 05 01 01 A3 05 01 74  68 6B 32 1C 0C 80 2B 01  .......thk2...+.
0380: A3 05 01 2B 80 23 29 10  F0 FF FF 7F 14 1C 0E 80  ...+.#).........
0390: 3B 01 A3 05 01 01 00 03  00 02 00 3A 01 A3 05 01  ;..........:....
03A0: 04 00 BA 02 A3 05 01 01  00 03 00 02 00 04 00 2B  ...............+
03B0: 01 A3 05 01 2C 80 23 7B  01 A3 05 01 6E F0 FF FF  ....,.#{....n...
03C0: 7F 0A 80 99 F0 FF FF 7F  5B 2D 80 01 A3 05 01 01  ........[-......
03D0: A3 05 01 6C 61 74 32 5B  09 80 02 A3 05 01 02 A3  ...lat2[........
03E0: 05 01 6C 61 74 32 03 02  10 2E 80 27 10 FE A2 05  ..lat2.....'....
03F0: 01 01 1C 0E 80 27 10 FF  A2 05 01 04 52 0D 80 F0  .....'......R...
0400: FF FF 7F F0 FF FF 7F 61  64 30 38 45 0D 80 F0 FF  .......ad08E....
0410: FF 7F F0 FF FF 7F 61 64  31 30 0A 80 53 01 A3 05  ......ad10..S...
0420: 01 01 A3 05 01 6C 61 74  32 2B 01 A3 05 01 2F 80  .....lat2+..../.
0430: 23 52 0D 80 F0 FF FF 7F  F0 FF FF 7F 61 64 31 30  #R..........ad10
0440: 45 0D 80 F0 FF FF 7F F0  FF FF 7F 61 64 31 31 0A  E..........ad11.
0450: 80 2B 01 A3 05 01 30 80  23 5D 0A 80 0B 80 1A 4D  .+....0.#].....M
0460: 0C 1C 0E 80 27 10 02 A3  05 01 02 29 10 F0 FF FF  ....'......)....
0470: 7F 18 BA 01 A3 05 01 31  80 32 80 33 80 34 80 1C  .......1.2.3.4..
0480: 0C 80 29 10 F0 FF FF 7F  15 5B 2D 80 01 A3 05 01  ..)......[-.....
0490: 01 A3 05 01 6C 61 74 33  1C 35 80 48 1C 80 23 AB  ....lat3.5.H..#.
04A0: 09 27 10 FF A2 05 01 06  52 0D 80 F0 FF FF 7F F0  .'......R.......
04B0: FF FF 7F 61 64 31 31 45  0D 80 F0 FF FF 7F F0 FF  ...ad11E........
04C0: FF 7F 61 64 31 32 0A 80  1A 2C 0C 1C 2E 80 52 0D  ..ad12...,....R.
04D0: 80 F0 FF FF 7F F0 FF FF  7F 61 64 31 32 45 0D 80  .........ad12E..
04E0: F0 FF FF 7F F0 FF FF 7F  61 64 31 33 0A 80 1C 1E  ........ad13....
04F0: 80 5B 2D 80 01 A3 05 01  01 A3 05 01 6C 61 74 34  .[-.........lat4
0500: 1C 1E 80 52 0D 80 F0 FF  FF 7F F0 FF FF 7F 61 64  ...R..........ad
0510: 31 33 45 0D 80 F0 FF FF  7F F0 FF FF 7F 61 64 31  13E..........ad1
0520: 34 0A 80 27 10 F0 FF FF  7F 17 2B 01 A3 05 01 36  4..'......+....6
0530: 80 23 53 01 A3 05 01 01  A3 05 01 6C 61 74 34 2B  .#S........lat4+
0540: 01 A3 05 01 37 80 23 2A  10 F0 FF FF 7F 4A 01 A3  ....7.#*.....J..
0550: 05 01 F0 FF FF 7F 52 0D  80 F0 FF FF 7F F0 FF FF  ......R.........
0560: 7F 61 64 31 34 45 0D 80  F0 FF FF 7F F0 FF FF 7F  .ad14E..........
0570: 61 64 31 35 0A 80 6F 76  01 A3 05 01 2B 01 A3 05  ad15..ov....+...
0580: 01 38 80 23 29 10 F0 FF  FF 7F 1B 02 02 10 39 80  .8.#).........9.
0590: 80 B6 05 52 0D 80 F0 FF  FF 7F F0 FF FF 7F 61 64  ...R..........ad
05A0: 31 35 45 0D 80 F0 FF FF  7F F0 FF FF 7F 64 68 6D  15E..........dhm
05B0: 30 0A 80 01 E3 06 02 02  10 3A 80 80 E1 05 52 0D  0........:....R.
05C0: 80 F0 FF FF 7F F0 FF FF  7F 61 64 31 35 45 0D 80  .........ad15E..
05D0: F0 FF FF 7F F0 FF FF 7F  64 68 66 30 0A 80 01 E3  ........dhf0....
05E0: 06 02 02 10 0F 80 80 0C  06 52 0D 80 F0 FF FF 7F  .........R......
05F0: F0 FF FF 7F 61 64 31 35  45 0D 80 F0 FF FF 7F F0  ....ad15E.......
0600: FF FF 7F 64 65 6D 30 0A  80 01 E3 06 02 02 10 3B  ...dem0........;
0610: 80 80 37 06 52 0D 80 F0  FF FF 7F F0 FF FF 7F 61  ..7.R..........a
0620: 64 31 35 45 0D 80 F0 FF  FF 7F F0 FF FF 7F 64 65  d15E..........de
0630: 66 30 0A 80 01 E3 06 02  02 10 3C 80 80 62 06 52  f0........<..b.R
0640: 0D 80 F0 FF FF 7F F0 FF  FF 7F 61 64 31 35 45 0D  ..........ad15E.
0650: 80 F0 FF FF 7F F0 FF FF  7F 64 74 72 30 0A 80 01  .........dtr0...
0660: E3 06 02 02 10 3D 80 80  8D 06 52 0D 80 F0 FF FF  .....=....R.....
0670: 7F F0 FF FF 7F 61 64 31  35 45 0D 80 F0 FF FF 7F  .....ad15E......
0680: F0 FF FF 7F 64 74 72 30  0A 80 01 E3 06 02 02 10  ....dtr0........
0690: 3E 80 80 B8 06 52 0D 80  F0 FF FF 7F F0 FF FF 7F  >....R..........
06A0: 61 64 31 35 45 0D 80 F0  FF FF 7F F0 FF FF 7F 64  ad15E..........d
06B0: 6D 74 30 0A 80 01 E3 06  02 02 10 3F 80 80 E3 06  mt0........?....
06C0: 52 0D 80 F0 FF FF 7F F0  FF FF 7F 61 64 31 35 45  R..........ad15E
06D0: 0D 80 F0 FF FF 7F F0 FF  FF 7F 64 67 6C 30 0A 80  ..........dgl0..
06E0: 01 E3 06 27 10 01 A3 05  01 0C 1C 10 80 6E F0 FF  ...'.........n..
06F0: FF 7F 3E 80 99 F0 FF FF  7F 99 F0 FF FF 7F 2A 10  ..>...........*.
0700: 01 A3 05 01 1C 1E 80 3B  01 A3 05 01 01 00 03 00  .......;........
0710: 02 00 3A 01 A3 05 01 04  00 BA 02 A3 05 01 01 00  ..:.............
0720: 03 00 02 00 04 00 27 10  FF A2 05 01 04 7B 01 A3  ......'......{..
0730: 05 01 5B 2D 80 01 A3 05  01 01 A3 05 01 6C 61 7A  ..[-.........laz
0740: 30 5B 09 80 02 A3 05 01  02 A3 05 01 6C 61 7A 30  0[..........laz0
0750: 1C 0E 80 52 0D 80 F0 FF  FF 7F F0 FF FF 7F 64 68  ...R..........dh
0760: 6D 30 52 0D 80 F0 FF FF  7F F0 FF FF 7F 64 68 66  m0R..........dhf
0770: 30 52 0D 80 F0 FF FF 7F  F0 FF FF 7F 64 65 6D 30  0R..........dem0
0780: 52 0D 80 F0 FF FF 7F F0  FF FF 7F 64 65 66 30 52  R..........def0R
0790: 0D 80 F0 FF FF 7F F0 FF  FF 7F 64 74 72 30 52 0D  ..........dtr0R.
07A0: 80 F0 FF FF 7F F0 FF FF  7F 64 6D 74 30 52 0D 80  .........dmt0R..
07B0: F0 FF FF 7F F0 FF FF 7F  64 67 6C 30 45 0D 80 F0  ........dgl0E...
07C0: FF FF 7F F0 FF FF 7F 61  64 31 36 0A 80 2B 01 A3  .......ad16..+..
07D0: 05 01 40 80 23 52 0D 80  F0 FF FF 7F F0 FF FF 7F  ..@.#R..........
07E0: 61 64 31 36 45 0D 80 F0  FF FF 7F F0 FF FF 7F 61  ad16E..........a
07F0: 64 31 37 0A 80 4E 01 F0  FF FF 7F 2B 01 A3 05 01  d17..N.....+....
0800: 41 80 23 52 0D 80 F0 FF  FF 7F F0 FF FF 7F 61 64  A.#R..........ad
0810: 31 37 45 0D 80 F0 FF FF  7F F0 FF FF 7F 61 64 31  17E..........ad1
0820: 38 0A 80 5B 2D 80 01 A3  05 01 01 A3 05 01 6C 61  8..[-.........la
0830: 74 31 5B 09 80 02 A3 05  01 02 A3 05 01 6C 61 74  t1[..........lat
0840: 31 1C 0E 80 2B 01 A3 05  01 42 80 23 53 01 A3 05  1...+....B.#S...
0850: 01 01 A3 05 01 6C 61 74  31 2B 01 A3 05 01 43 80  .....lat1+....C.
0860: 23 52 0D 80 F0 FF FF 7F  F0 FF FF 7F 61 64 31 38  #R..........ad18
0870: 45 0D 80 F0 FF FF 7F F0  FF FF 7F 61 64 31 39 0A  E..........ad19.
0880: 80 4E 00 F0 FF FF 7F 1C  2E 80 1A 4D 0C 1C 0E 80  .N.........M....
0890: 4E 01 02 A3 05 01 29 10  01 A3 05 01 0D 78 1C 39  N.....)......x.9
08A0: 80 AB 0A 1C 22 80 29 10  01 A3 05 01 0E 48 1C 80  ....".)......H..
08B0: 23 5C 00 44 80 5C 01 44  80 9A 52 0D 80 F0 FF FF  #\.D.\.D..R.....
08C0: 7F F0 FF FF 7F 61 64 31  39 45 0D 80 F0 FF FF 7F  .....ad19E......
08D0: F0 FF FF 7F 61 64 32 30  0A 80 1A 2C 0C 1C 22 80  ....ad20...,..".
08E0: BB 45 80 01 A3 05 01 01  A3 05 01 73 30 30 30 0A  .E.........s000.
08F0: 80 03 02 10 46 80 27 10  FE A2 05 01 01 1C 1E 80  ....F.'.........
0900: 52 0D 80 F0 FF FF 7F F0  FF FF 7F 61 64 32 30 45  R..........ad20E
0910: 0D 80 F0 FF FF 7F F0 FF  FF 7F 61 64 32 31 0A 80  ..........ad21..
0920: 1C 1E 80 45 47 80 01 A3  05 01 01 A3 05 01 73 68  ...EG.........sh
0930: 64 30 0A 80 1C 35 80 2B  FE A2 05 01 48 80 23 52  d0...5.+....H.#R
0940: 0D 80 F0 FF FF 7F F0 FF  FF 7F 61 64 32 31 45 0D  ..........ad21E.
0950: 80 F0 FF FF 7F F0 FF FF  7F 61 64 32 32 0A 80 2B  .........ad22..+
0960: 01 A3 05 01 49 80 23 2B  01 A3 05 01 4A 80 23 52  ....I.#+....J.#R
0970: 0D 80 F0 FF FF 7F F0 FF  FF 7F 61 64 32 32 45 0D  ..........ad22E.
0980: 80 F0 FF FF 7F F0 FF FF  7F 61 64 32 33 0A 80 BB  .........ad23...
0990: 45 80 01 A3 05 01 01 A3  05 01 73 30 30 31 0A 80  E.........s001..
09A0: 03 02 10 4B 80 27 10 FE  A2 05 01 01 1C 4C 80 45  ...K.'.......L.E
09B0: 47 80 01 A3 05 01 01 A3  05 01 73 68 64 31 0A 80  G.........shd1..
09C0: 2B 01 A3 05 01 4D 80 23  1C 35 80 2B FE A2 05 01  +....M.#.5.+....
09D0: 4E 80 23 52 0D 80 F0 FF  FF 7F F0 FF FF 7F 61 64  N.#R..........ad
09E0: 32 33 45 0D 80 F0 FF FF  7F F0 FF FF 7F 61 64 32  23E..........ad2
09F0: 34 0A 80 1C 0E 80 2B 01  A3 05 01 4F 80 23 2B FE  4.....+....O.#+.
0A00: A2 05 01 50 80 23 52 0D  80 F0 FF FF 7F F0 FF FF  ...P.#R.........
0A10: 7F 61 64 32 34 45 0D 80  F0 FF FF 7F F0 FF FF 7F  .ad24E..........
0A20: 61 64 32 35 0A 80 1C 1E  80 2B 01 A3 05 01 51 80  ad25.....+....Q.
0A30: 23 52 0D 80 F0 FF FF 7F  F0 FF FF 7F 61 64 32 35  #R..........ad25
0A40: 45 0D 80 F0 FF FF 7F F0  FF FF 7F 61 64 32 36 0A  E..........ad26.
0A50: 80 1C 1E 80 2B FE A2 05  01 52 80 23 5D 0A 80 0B  ....+....R.#]...
0A60: 80 BB 45 80 01 A3 05 01  01 A3 05 01 73 30 30 32  ..E.........s002
0A70: 0A 80 45 47 80 01 A3 05  01 01 A3 05 01 6B 68 64  ..EG.........khd
0A80: 30 0A 80 45 47 80 01 A3  05 01 01 A3 05 01 6B 68  0..EG.........kh
0A90: 64 31 0A 80 45 47 80 01  A3 05 01 01 A3 05 01 73  d1..EG.........s
0AA0: 68 64 32 0A 80 03 02 10  0B 80 27 10 FE A2 05 01  hd2.......'.....
0AB0: 01 1C 1E 80 52 0D 80 F0  FF FF 7F F0 FF FF 7F 61  ....R..........a
0AC0: 64 32 36 45 0D 80 F0 FF  FF 7F F0 FF FF 7F 61 64  d26E..........ad
0AD0: 32 37 0A 80 1C 1E 80 27  10 01 A3 05 01 0F 2B 01  27.....'......+.
0AE0: A3 05 01 53 80 2A 10 FE  A2 05 01 1A 4D 0C 1C 0E  ...S.*......M...
0AF0: 80 52 0D 80 F0 FF FF 7F  F0 FF FF 7F 61 64 32 37  .R..........ad27
0B00: 45 0D 80 F0 FF FF 7F F0  FF FF 7F 30 62 6C 66 0A  E..........0blf.
0B10: 80 46 00 45 54 80 F0 FF  FF 7F F0 FF FF 7F 66 64  .F.ET.........fd
0B20: 69 32 0A 80 21 00                                 i2..!.          
```

#### Opcodes

```
  0: 0x0001 [0x42] SET_CLI_EVENT_CANCEL_DATA()
  1: 0x0002 [0x03] ExtData[1]->WorkLocal[0] = Work_Zone[9]
  2: 0x0007 [0x1A] CALL_SUBROUTINE(address=0x0C4D)
  3: 0x000A [0x46] CAMERA_CONTROL: Disable user control
  4: 0x000C [0x38] SET_CLIENT_EVENT_MODE(mode=19*)
  5: 0x000F [0x27] REQ_SET(priority=0x10, entity_id=Schultz (ID: 17146625/0x0105A301), tag_num=0x04)
  6: 0x0016 [0x27] REQ_SET(priority=0x10, entity_id=Unnamed NPC (ID: 17146626/0x0105A302), tag_num=0x02)
  7: 0x001D [0x92] Schultz (ID: 17146625/0x0105A301)->Render.Flags3 ^= 0x01
  8: 0x0023 [0x94] LocalPlayer->Render.Flags3 ^= 0x01
  9: 0x0029 [0x94] Schultz (ID: 17146625/0x0105A301)->Render.Flags3 ^= 0x01
 10: 0x002F [0x94] Indescript Markings (ID: 17146627/0x0105A303)->Render.Flags3 ^= 0x01
 11: 0x0035 [0x94] Unnamed NPC (ID: 17146626/0x0105A302)->Render.Flags3 ^= 0x01
 12: 0x003B [0xBA] SET_ENTITY_POSITION(entity_id=LocalPlayer, pos_x=-457.873*, pos_z=-365.572*, pos_y=24.999*, direction=301.8°*)
 13: 0x0048 [0xBA] SET_ENTITY_POSITION(entity_id=Schultz (ID: 17146625/0x0105A301), pos_x=-467.879*, pos_z=-365.097*, pos_y=21.433*, direction=297.8°*)
 14: 0x0055 [0x80] LOAD_WAIT(entity=LocalPlayer)
 15: 0x005A [0x80] LOAD_WAIT(entity=Schultz (ID: 17146625/0x0105A301))
 16: 0x005F [0x80] LOAD_WAIT(entity=Indescript Markings (ID: 17146627/0x0105A303))
 17: 0x0064 [0x80] LOAD_WAIT(entity=Unnamed NPC (ID: 17146626/0x0105A302))
 18: 0x0069 [0x5B] LOAD_EXT_SCHEDULER: Load scheduler "laty" with entities [Unnamed NPC (ID: 17146626/0x0105A302), Unnamed NPC (ID: 17146626/0x0105A302)], work=1459*
 19: 0x0078 [0x5D] SET_MUSIC_VOLUME(volume=0*, fade_time=300*)
 20: 0x007D [0x1C] WAIT(15* ticks)
 21: 0x0080 [0x45] LOAD_SCHEDULED_TASK: Load scheduler "ad00" with entities [LocalPlayer, LocalPlayer], work=[381*, 0*]
 22: 0x0091 [0x1A] CALL_SUBROUTINE(address=0x0C2C)
 23: 0x0094 [0x1C] WAIT(30* ticks)
 24: 0x0097 [0x62] LOAD_EVENT_SCHEDULER: Load scheduler "main" with entities [Indescript Markings (ID: 17146627/0x0105A303), Indescript Markings (ID: 17146627/0x0105A303)], work=[3*, 0*]
 25: 0x00A8 [0x1C] WAIT(15* ticks)
 26: 0x00AB [0x4A] LocalPlayer looks at Indescript Markings (ID: 17146627/0x0105A303)
 27: 0x00B4 [0x6F] WAIT_FRAME_DELAY: Yield until WaitTime reaches zero
 28: 0x00B5 [0x76] CHECK_ENTITY_RENDER_FLAGS: Wait until LocalPlayer Render.Flags0 and Render.Flags3 conditions are met
 29: 0x00BA [0x29] REQ_SET_WAIT(priority=0x10, entity_id=LocalPlayer, tag_num=0x19)
 30: 0x00C1 [0x1C] WAIT(45* ticks)
 31: 0x00C4 [0x52] END_LOAD_SCHEDULER: End scheduler "ad00" with entities [LocalPlayer, LocalPlayer], work=381*
 32: 0x00D3 [0x45] LOAD_SCHEDULED_TASK: Load scheduler "ad01" with entities [LocalPlayer, LocalPlayer], work=[381*, 0*]
 33: 0x00E4 [0x2B] ??? (ID: 17146622/0x0105A2FE) [7849*]:
    → "Ah! You mustn't touch that!"
 34: 0x00EB [0x23] WAIT_FOR_DIALOG_INTERACTION
 35: 0x00EC [0x79] LocalPlayer looks at Schultz (ID: 17146625/0x0105A301) (Basic look)
 36: 0x00F6 [0x29] REQ_SET_WAIT(priority=0x10, entity_id=LocalPlayer, tag_num=0x1A)
 37: 0x00FD [0x4A] LocalPlayer looks at Schultz (ID: 17146625/0x0105A301)
 38: 0x0106 [0x1C] WAIT(15* ticks)
 39: 0x0109 [0x27] REQ_SET(priority=0x10, entity_id=Schultz (ID: 17146625/0x0105A301), tag_num=0x0B)
 40: 0x0110 [0x52] END_LOAD_SCHEDULER: End scheduler "ad01" with entities [LocalPlayer, LocalPlayer], work=381*
 41: 0x011F [0x45] LOAD_SCHEDULED_TASK: Load scheduler "ad02" with entities [LocalPlayer, LocalPlayer], work=[381*, 0*]
 42: 0x0130 [0x1C] WAIT(20* ticks)
 43: 0x0133 [0x79] Schultz (ID: 17146625/0x0105A301) looks at LocalPlayer (Basic look)
 44: 0x013D [0x2B] Schultz (ID: 17146625/0x0105A301) [7850*]:
    → "It is certainly not the most ideal of conditions, but I have aligned it such that it is invisible to prying eyes. And I'd like to keep it that way for now."
 45: 0x0144 [0x23] WAIT_FOR_DIALOG_INTERACTION
 46: 0x0145 [0x2A] GET_REQ_LEVEL(level=16, entity_id=Schultz (ID: 17146625/0x0105A301))
 47: 0x014B [0x52] END_LOAD_SCHEDULER: End scheduler "ad02" with entities [LocalPlayer, LocalPlayer], work=381*
 48: 0x015A [0x45] LOAD_SCHEDULED_TASK: Load scheduler "ad03" with entities [LocalPlayer, LocalPlayer], work=[381*, 0*]
 49: 0x016B [0x6E] LocalPlayer uses emote 34*
 50: 0x0172 [0x99] Wait for LocalPlayer animation to complete
 51: 0x0177 [0x99] Wait for LocalPlayer animation to complete
 52: 0x017C [0x2B] Schultz (ID: 17146625/0x0105A301) [7851*]:
    → "<Player>, if I'm not mistaken. Yes?"
 53: 0x0183 [0x23] WAIT_FOR_DIALOG_INTERACTION
 54: 0x0184 [0x1A] CALL_SUBROUTINE(address=0x0C4D)
 55: 0x0187 [0x1C] WAIT(30* ticks)
 56: 0x018A [0xBA] SET_ENTITY_POSITION(entity_id=LocalPlayer, pos_x=-455.785*, pos_z=-368.002*, pos_y=24.999*, direction=227.7°*)
 57: 0x0197 [0xBA] SET_ENTITY_POSITION(entity_id=Schultz (ID: 17146625/0x0105A301), pos_x=-457.562*, pos_z=-366.119*, pos_y=24.999*, direction=299.8°*)
 58: 0x01A4 [0x1C] WAIT(15* ticks)
 59: 0x01A7 [0x79] Schultz (ID: 17146625/0x0105A301) looks at Indescript Markings (ID: 17146627/0x0105A303) (Basic look)
 60: 0x01B1 [0x29] REQ_SET_WAIT(priority=0x10, entity_id=Schultz (ID: 17146625/0x0105A301), tag_num=0x09)
 61: 0x01B8 [0x48] [System] [7902*]:
    → "@@"
 62: 0x01BB [0x23] WAIT_FOR_DIALOG_INTERACTION
 63: 0x01BC [0x5C] MUSIC_CONTROL: Set Idle (Day) music to song 145*
 64: 0x01C0 [0x5C] MUSIC_CONTROL: Set Idle (Night) music to song 145*
 65: 0x01C4 [0x9A] WAIT_MUSIC_SERVER()
 66: 0x01C5 [0x52] END_LOAD_SCHEDULER: End scheduler "ad03" with entities [LocalPlayer, LocalPlayer], work=381*
 67: 0x01D4 [0x45] LOAD_SCHEDULED_TASK: Load scheduler "ad04" with entities [LocalPlayer, LocalPlayer], work=[381*, 0*]
 68: 0x01E5 [0x1A] CALL_SUBROUTINE(address=0x0C2C)
 69: 0x01E8 [0x1C] WAIT(60* ticks)
 70: 0x01EB [0x7B] Schultz (ID: 17146625/0x0105A301) stops talking
 71: 0x01F0 [0x2B] Schultz (ID: 17146625/0x0105A301) [7852*]:
    → "My reconnaissance endeavors here were completely anticipated by the enemy. And now I have been sealed here by some foreign sorcery, simply biding my time."
 72: 0x01F7 [0x23] WAIT_FOR_DIALOG_INTERACTION
 73: 0x01F8 [0x27] REQ_SET(priority=0x10, entity_id=Schultz (ID: 17146625/0x0105A301), tag_num=0x0A)
 74: 0x01FF [0x1C] WAIT(15* ticks)
 75: 0x0202 [0x52] END_LOAD_SCHEDULER: End scheduler "ad04" with entities [LocalPlayer, LocalPlayer], work=381*
 76: 0x0211 [0x45] LOAD_SCHEDULED_TASK: Load scheduler "ad05" with entities [LocalPlayer, LocalPlayer], work=[381*, 0*]
 77: 0x0222 [0x1C] WAIT(30* ticks)
 78: 0x0225 [0x2B] Schultz (ID: 17146625/0x0105A301) [7853*]:
    → "The Quadav apparently have military strategists of their own, and I am most humbled to admit that I have been bested by them. Quite an embarrassing predicament, truth be told."
 79: 0x022C [0x23] WAIT_FOR_DIALOG_INTERACTION
 80: 0x022D [0x2A] GET_REQ_LEVEL(level=16, entity_id=Schultz (ID: 17146625/0x0105A301))
 81: 0x0233 [0x6E] Schultz (ID: 17146625/0x0105A301) uses emote 26*
 82: 0x023A [0x99] Wait for Schultz (ID: 17146625/0x0105A301) animation to complete
 83: 0x023F [0x03] Work_Zone[2] = 150*
 84: 0x0244 [0x27] REQ_SET(priority=0x10, entity_id=??? (ID: 17146622/0x0105A2FE), tag_num=0x01)
 85: 0x024B [0x2B] Schultz (ID: 17146625/0x0105A301) [7854*]:
    → "And so here we are, locked in a textbook stalemate."
 86: 0x0252 [0x23] WAIT_FOR_DIALOG_INTERACTION
 87: 0x0253 [0x2A] GET_REQ_LEVEL(level=16, entity_id=??? (ID: 17146622/0x0105A2FE))
 88: 0x0259 [0x4A] Schultz (ID: 17146625/0x0105A301) looks at LocalPlayer
 89: 0x0262 [0x1C] WAIT(10* ticks)
 90: 0x0265 [0x52] END_LOAD_SCHEDULER: End scheduler "ad05" with entities [LocalPlayer, LocalPlayer], work=381*
 91: 0x0274 [0x45] LOAD_SCHEDULED_TASK: Load scheduler "ad06" with entities [LocalPlayer, LocalPlayer], work=[381*, 0*]
 92: 0x0285 [0x6F] WAIT_FRAME_DELAY: Yield until WaitTime reaches zero
 93: 0x0286 [0x76] CHECK_ENTITY_RENDER_FLAGS: Wait until Schultz (ID: 17146625/0x0105A301) Render.Flags0 and Render.Flags3 conditions are met
 94: 0x028B [0x2B] Schultz (ID: 17146625/0x0105A301) [7855*]:
    → "In a moment of weakness I lost my composure and sought recklessly to retreat, playing right into the enemy's hands. And since then I've been concealing myself here, waiting for things to change for the better."
 95: 0x0292 [0x23] WAIT_FOR_DIALOG_INTERACTION
 96: 0x0293 [0x66] LOAD_EXT_SCHEDULER_MAIN: Load scheduler "twb0" with entities [Schultz (ID: 17146625/0x0105A301), Schultz (ID: 17146625/0x0105A301)], work=9*
 97: 0x02A2 [0x2B] Schultz (ID: 17146625/0x0105A301) [7856*]:
    → "Still, I must admit, I am quite impressed by your ability to detect my "storm." And all the way out here, of all places!"
 98: 0x02A9 [0x23] WAIT_FOR_DIALOG_INTERACTION
 99: 0x02AA [0x66] LOAD_EXT_SCHEDULER_MAIN: Load scheduler "twb1" with entities [Schultz (ID: 17146625/0x0105A301), Schultz (ID: 17146625/0x0105A301)], work=9*
100: 0x02B9 [0x52] END_LOAD_SCHEDULER: End scheduler "ad06" with entities [LocalPlayer, LocalPlayer], work=381*
101: 0x02C8 [0x45] LOAD_SCHEDULED_TASK: Load scheduler "ad07" with entities [LocalPlayer, LocalPlayer], work=[381*, 0*]
102: 0x02D9 [0x2B] Schultz (ID: 17146625/0x0105A301) [7857*]:
    → "Tell me, how did you know where to find me?"
103: 0x02E0 [0x23] WAIT_FOR_DIALOG_INTERACTION
104: 0x02E1 [0x29] REQ_SET_WAIT(priority=0x10, entity_id=LocalPlayer, tag_num=0x14)
105: 0x02E8 [0x1C] WAIT(30* ticks)
106: 0x02EB [0x7B] Schultz (ID: 17146625/0x0105A301) stops talking
107: 0x02F0 [0x52] END_LOAD_SCHEDULER: End scheduler "ad07" with entities [LocalPlayer, LocalPlayer], work=381*
108: 0x02FF [0x45] LOAD_SCHEDULED_TASK: Load scheduler "ad09" with entities [LocalPlayer, LocalPlayer], work=[381*, 0*]
109: 0x0310 [0x66] LOAD_EXT_SCHEDULER_MAIN: Load scheduler "thk1" with entities [Schultz (ID: 17146625/0x0105A301), Schultz (ID: 17146625/0x0105A301)], work=9*
110: 0x031F [0x1C] WAIT(45* ticks)
111: 0x0322 [0x2B] Schultz (ID: 17146625/0x0105A301) [7858*]:
    → "Haha, of course, Nicolaus. I should have known. His powers of inference are as magnificent as ever, I see."
112: 0x0329 [0x23] WAIT_FOR_DIALOG_INTERACTION
113: 0x032A [0x2B] Schultz (ID: 17146625/0x0105A301) [7859*]:
    → "I assume that Erlene must be quite taken with worry as well. A most unbecoming course of conduct on my part... I do regret it."
114: 0x0331 [0x23] WAIT_FOR_DIALOG_INTERACTION
115: 0x0332 [0x66] LOAD_EXT_SCHEDULER_MAIN: Load scheduler "thk2" with entities [Schultz (ID: 17146625/0x0105A301), Schultz (ID: 17146625/0x0105A301)], work=9*
116: 0x0341 [0x1C] WAIT(15* ticks)
117: 0x0344 [0x52] END_LOAD_SCHEDULER: End scheduler "ad09" with entities [LocalPlayer, LocalPlayer], work=381*
118: 0x0353 [0x45] LOAD_SCHEDULED_TASK: Load scheduler "ad08" with entities [LocalPlayer, LocalPlayer], work=[381*, 0*]
119: 0x0364 [0x79] Schultz (ID: 17146625/0x0105A301) looks at LocalPlayer (Basic look)
120: 0x036E [0x53] WAIT_SCHEDULER_TASK: Wait for scheduler "thk2" with entities [Schultz (ID: 17146625/0x0105A301), Schultz (ID: 17146625/0x0105A301)]
121: 0x037B [0x1C] WAIT(15* ticks)
122: 0x037E [0x2B] Schultz (ID: 17146625/0x0105A301) [7860*]:
    → "And what is that you have with you there?"
123: 0x0385 [0x23] WAIT_FOR_DIALOG_INTERACTION
124: 0x0386 [0x29] REQ_SET_WAIT(priority=0x10, entity_id=LocalPlayer, tag_num=0x14)
125: 0x038D [0x1C] WAIT(30* ticks)
126: 0x0390 [0x3B] GET_ENTITY_POSITION(entity=Schultz (ID: 17146625/0x0105A301), x_destination=ExtData[1]->WorkLocal[1], y_destination=ExtData[1]->WorkLocal[3], z_destination=ExtData[1]->WorkLocal[2])
127: 0x039B [0x3A] CONVERT_YAW_TO_BYTE(entity=Schultz (ID: 17146625/0x0105A301), result_destination=ExtData[1]->WorkLocal[4])
128: 0x03A2 [0xBA] SET_ENTITY_POSITION(entity_id=Unnamed NPC (ID: 17146626/0x0105A302), pos_x=ExtData[1]->WorkLocal[1], pos_z=ExtData[1]->WorkLocal[3], pos_y=ExtData[1]->WorkLocal[2], direction=ExtData[1]->WorkLocal[4])
129: 0x03AF [0x2B] Schultz (ID: 17146625/0x0105A301) [7861*]:
    → "A letter from Ulbrecht? Most curious, indeed."
130: 0x03B6 [0x23] WAIT_FOR_DIALOG_INTERACTION
131: 0x03B7 [0x7B] Schultz (ID: 17146625/0x0105A301) stops talking
132: 0x03BC [0x6E] LocalPlayer uses emote 0*
133: 0x03C3 [0x99] Wait for LocalPlayer animation to complete
134: 0x03C8 [0x5B] LOAD_EXT_SCHEDULER: Load scheduler "lat2" with entities [Schultz (ID: 17146625/0x0105A301), Schultz (ID: 17146625/0x0105A301)], work=1355*
135: 0x03D7 [0x5B] LOAD_EXT_SCHEDULER: Load scheduler "lat2" with entities [Unnamed NPC (ID: 17146626/0x0105A302), Unnamed NPC (ID: 17146626/0x0105A302)], work=1459*
136: 0x03E6 [0x03] Work_Zone[2] = 180*
137: 0x03EB [0x27] REQ_SET(priority=0x10, entity_id=??? (ID: 17146622/0x0105A2FE), tag_num=0x01)
138: 0x03F2 [0x1C] WAIT(30* ticks)
139: 0x03F5 [0x27] REQ_SET(priority=0x10, entity_id=Unnamed NPC (ID: 17146623/0x0105A2FF), tag_num=0x04)
140: 0x03FC [0x52] END_LOAD_SCHEDULER: End scheduler "ad08" with entities [LocalPlayer, LocalPlayer], work=381*
141: 0x040B [0x45] LOAD_SCHEDULED_TASK: Load scheduler "ad10" with entities [LocalPlayer, LocalPlayer], work=[381*, 0*]
142: 0x041C [0x53] WAIT_SCHEDULER_TASK: Wait for scheduler "lat2" with entities [Schultz (ID: 17146625/0x0105A301), Schultz (ID: 17146625/0x0105A301)]
143: 0x0429 [0x2B] Schultz (ID: 17146625/0x0105A301) [7862*]:
    → "Hmmm, this would appear to be... Yes, I see he has placed a magical seal of confidentiality upon it. That's Ulbrecht for you."
144: 0x0430 [0x23] WAIT_FOR_DIALOG_INTERACTION
145: 0x0431 [0x52] END_LOAD_SCHEDULER: End scheduler "ad10" with entities [LocalPlayer, LocalPlayer], work=381*
146: 0x0440 [0x45] LOAD_SCHEDULED_TASK: Load scheduler "ad11" with entities [LocalPlayer, LocalPlayer], work=[381*, 0*]
147: 0x0451 [0x2B] Schultz (ID: 17146625/0x0105A301) [7863*]:
    → "A splendid example of the multifarious utility of magic, I must say. But goodness, you haven't come all this way to hear about that. So let us see what we have here, shall we?"
148: 0x0458 [0x23] WAIT_FOR_DIALOG_INTERACTION
149: 0x0459 [0x5D] SET_MUSIC_VOLUME(volume=0*, fade_time=300*)
150: 0x045E [0x1A] CALL_SUBROUTINE(address=0x0C4D)
151: 0x0461 [0x1C] WAIT(30* ticks)
152: 0x0464 [0x27] REQ_SET(priority=0x10, entity_id=Unnamed NPC (ID: 17146626/0x0105A302), tag_num=0x02)
153: 0x046B [0x29] REQ_SET_WAIT(priority=0x10, entity_id=LocalPlayer, tag_num=0x18)
154: 0x0472 [0xBA] SET_ENTITY_POSITION(entity_id=Schultz (ID: 17146625/0x0105A301), pos_x=-464.067*, pos_z=-368.828*, pos_y=21.362*, direction=219.0°*)
155: 0x047F [0x1C] WAIT(15* ticks)
156: 0x0482 [0x29] REQ_SET_WAIT(priority=0x10, entity_id=LocalPlayer, tag_num=0x15)
157: 0x0489 [0x5B] LOAD_EXT_SCHEDULER: Load scheduler "lat3" with entities [Schultz (ID: 17146625/0x0105A301), Schultz (ID: 17146625/0x0105A301)], work=1355*
158: 0x0498 [0x1C] WAIT(120* ticks)
159: 0x049B [0x48] [System] [7902*]:
    → "@@"
160: 0x049E [0x23] WAIT_FOR_DIALOG_INTERACTION
161: 0x049F [0xAB] EventEntity->UnknownFlag = 1 // Enable unknown flag
162: 0x04A1 [0x27] REQ_SET(priority=0x10, entity_id=Unnamed NPC (ID: 17146623/0x0105A2FF), tag_num=0x06)
163: 0x04A8 [0x52] END_LOAD_SCHEDULER: End scheduler "ad11" with entities [LocalPlayer, LocalPlayer], work=381*
164: 0x04B7 [0x45] LOAD_SCHEDULED_TASK: Load scheduler "ad12" with entities [LocalPlayer, LocalPlayer], work=[381*, 0*]
165: 0x04C8 [0x1A] CALL_SUBROUTINE(address=0x0C2C)
166: 0x04CB [0x1C] WAIT(180* ticks)
167: 0x04CE [0x52] END_LOAD_SCHEDULER: End scheduler "ad12" with entities [LocalPlayer, LocalPlayer], work=381*
168: 0x04DD [0x45] LOAD_SCHEDULED_TASK: Load scheduler "ad13" with entities [LocalPlayer, LocalPlayer], work=[381*, 0*]
169: 0x04EE [0x1C] WAIT(60* ticks)
170: 0x04F1 [0x5B] LOAD_EXT_SCHEDULER: Load scheduler "lat4" with entities [Schultz (ID: 17146625/0x0105A301), Schultz (ID: 17146625/0x0105A301)], work=1355*
171: 0x0500 [0x1C] WAIT(60* ticks)
172: 0x0503 [0x52] END_LOAD_SCHEDULER: End scheduler "ad13" with entities [LocalPlayer, LocalPlayer], work=381*
173: 0x0512 [0x45] LOAD_SCHEDULED_TASK: Load scheduler "ad14" with entities [LocalPlayer, LocalPlayer], work=[381*, 0*]
174: 0x0523 [0x27] REQ_SET(priority=0x10, entity_id=LocalPlayer, tag_num=0x17)
175: 0x052A [0x2B] Schultz (ID: 17146625/0x0105A301) [7864*]:
    → "Hmmm... He certainly makes a most vexing demand."
176: 0x0531 [0x23] WAIT_FOR_DIALOG_INTERACTION
177: 0x0532 [0x53] WAIT_SCHEDULER_TASK: Wait for scheduler "lat4" with entities [Schultz (ID: 17146625/0x0105A301), Schultz (ID: 17146625/0x0105A301)]
178: 0x053F [0x2B] Schultz (ID: 17146625/0x0105A301) [7865*]:
    → "I suppose it cannot be helped."
179: 0x0546 [0x23] WAIT_FOR_DIALOG_INTERACTION
180: 0x0547 [0x2A] GET_REQ_LEVEL(level=16, entity_id=LocalPlayer)
181: 0x054D [0x4A] Schultz (ID: 17146625/0x0105A301) looks at LocalPlayer
182: 0x0556 [0x52] END_LOAD_SCHEDULER: End scheduler "ad14" with entities [LocalPlayer, LocalPlayer], work=381*
183: 0x0565 [0x45] LOAD_SCHEDULED_TASK: Load scheduler "ad15" with entities [LocalPlayer, LocalPlayer], work=[381*, 0*]
184: 0x0576 [0x6F] WAIT_FRAME_DELAY: Yield until WaitTime reaches zero
185: 0x0577 [0x76] CHECK_ENTITY_RENDER_FLAGS: Wait until Schultz (ID: 17146625/0x0105A301) Render.Flags0 and Render.Flags3 conditions are met
186: 0x057C [0x2B] Schultz (ID: 17146625/0x0105A301) [7866*]:
    → "May I be so bold as to ask a favor of you, <Player>? Would you be so kind as to relay word of my safety to Erlene? And that her concern, while greatly appreciated, is not necessary."
187: 0x0583 [0x23] WAIT_FOR_DIALOG_INTERACTION
188: 0x0584 [0x29] REQ_SET_WAIT(priority=0x10, entity_id=LocalPlayer, tag_num=0x1B)
189: 0x058B [0x02] IF !(Work_Zone[2] == 1*) GOTO 0x05B6
190: 0x0593 [0x52] END_LOAD_SCHEDULER: End scheduler "ad15" with entities [LocalPlayer, LocalPlayer], work=381*
191: 0x05A2 [0x45] LOAD_SCHEDULED_TASK: Load scheduler "dhm0" with entities [LocalPlayer, LocalPlayer], work=[381*, 0*]
192: 0x05B3 [0x01] GOTO 0x06E3
193: 0x05B6 [0x02] IF !(Work_Zone[2] == 2*) GOTO 0x05E1
194: 0x05BE [0x52] END_LOAD_SCHEDULER: End scheduler "ad15" with entities [LocalPlayer, LocalPlayer], work=381*
195: 0x05CD [0x45] LOAD_SCHEDULED_TASK: Load scheduler "dhf0" with entities [LocalPlayer, LocalPlayer], work=[381*, 0*]
196: 0x05DE [0x01] GOTO 0x06E3
197: 0x05E1 [0x02] IF !(Work_Zone[2] == 3*) GOTO 0x060C
198: 0x05E9 [0x52] END_LOAD_SCHEDULER: End scheduler "ad15" with entities [LocalPlayer, LocalPlayer], work=381*
199: 0x05F8 [0x45] LOAD_SCHEDULED_TASK: Load scheduler "dem0" with entities [LocalPlayer, LocalPlayer], work=[381*, 0*]
200: 0x0609 [0x01] GOTO 0x06E3
201: 0x060C [0x02] IF !(Work_Zone[2] == 4*) GOTO 0x0637
202: 0x0614 [0x52] END_LOAD_SCHEDULER: End scheduler "ad15" with entities [LocalPlayer, LocalPlayer], work=381*
203: 0x0623 [0x45] LOAD_SCHEDULED_TASK: Load scheduler "def0" with entities [LocalPlayer, LocalPlayer], work=[381*, 0*]
204: 0x0634 [0x01] GOTO 0x06E3
205: 0x0637 [0x02] IF !(Work_Zone[2] == 5*) GOTO 0x0662
206: 0x063F [0x52] END_LOAD_SCHEDULER: End scheduler "ad15" with entities [LocalPlayer, LocalPlayer], work=381*
207: 0x064E [0x45] LOAD_SCHEDULED_TASK: Load scheduler "dtr0" with entities [LocalPlayer, LocalPlayer], work=[381*, 0*]
208: 0x065F [0x01] GOTO 0x06E3
209: 0x0662 [0x02] IF !(Work_Zone[2] == 6*) GOTO 0x068D
210: 0x066A [0x52] END_LOAD_SCHEDULER: End scheduler "ad15" with entities [LocalPlayer, LocalPlayer], work=381*
211: 0x0679 [0x45] LOAD_SCHEDULED_TASK: Load scheduler "dtr0" with entities [LocalPlayer, LocalPlayer], work=[381*, 0*]
212: 0x068A [0x01] GOTO 0x06E3
213: 0x068D [0x02] IF !(Work_Zone[2] == 7*) GOTO 0x06B8
214: 0x0695 [0x52] END_LOAD_SCHEDULER: End scheduler "ad15" with entities [LocalPlayer, LocalPlayer], work=381*
215: 0x06A4 [0x45] LOAD_SCHEDULED_TASK: Load scheduler "dmt0" with entities [LocalPlayer, LocalPlayer], work=[381*, 0*]
216: 0x06B5 [0x01] GOTO 0x06E3
217: 0x06B8 [0x02] IF !(Work_Zone[2] == 8*) GOTO 0x06E3
218: 0x06C0 [0x52] END_LOAD_SCHEDULER: End scheduler "ad15" with entities [LocalPlayer, LocalPlayer], work=381*
219: 0x06CF [0x45] LOAD_SCHEDULED_TASK: Load scheduler "dgl0" with entities [LocalPlayer, LocalPlayer], work=[381*, 0*]
220: 0x06E0 [0x01] GOTO 0x06E3

SUBROUTINE_06E3:
221: 0x06E3 [0x27] REQ_SET(priority=0x10, entity_id=Schultz (ID: 17146625/0x0105A301), tag_num=0x0C)
222: 0x06EA [0x1C] WAIT(45* ticks)
223: 0x06ED [0x6E] LocalPlayer uses emote 7*
224: 0x06F4 [0x99] Wait for LocalPlayer animation to complete
225: 0x06F9 [0x99] Wait for LocalPlayer animation to complete
226: 0x06FE [0x2A] GET_REQ_LEVEL(level=16, entity_id=Schultz (ID: 17146625/0x0105A301))
227: 0x0704 [0x1C] WAIT(60* ticks)
228: 0x0707 [0x3B] GET_ENTITY_POSITION(entity=Schultz (ID: 17146625/0x0105A301), x_destination=ExtData[1]->WorkLocal[1], y_destination=ExtData[1]->WorkLocal[3], z_destination=ExtData[1]->WorkLocal[2])
229: 0x0712 [0x3A] CONVERT_YAW_TO_BYTE(entity=Schultz (ID: 17146625/0x0105A301), result_destination=ExtData[1]->WorkLocal[4])
230: 0x0719 [0xBA] SET_ENTITY_POSITION(entity_id=Unnamed NPC (ID: 17146626/0x0105A302), pos_x=ExtData[1]->WorkLocal[1], pos_z=ExtData[1]->WorkLocal[3], pos_y=ExtData[1]->WorkLocal[2], direction=ExtData[1]->WorkLocal[4])
231: 0x0726 [0x27] REQ_SET(priority=0x10, entity_id=Unnamed NPC (ID: 17146623/0x0105A2FF), tag_num=0x04)
232: 0x072D [0x7B] Schultz (ID: 17146625/0x0105A301) stops talking
233: 0x0732 [0x5B] LOAD_EXT_SCHEDULER: Load scheduler "laz0" with entities [Schultz (ID: 17146625/0x0105A301), Schultz (ID: 17146625/0x0105A301)], work=1355*
234: 0x0741 [0x5B] LOAD_EXT_SCHEDULER: Load scheduler "laz0" with entities [Unnamed NPC (ID: 17146626/0x0105A302), Unnamed NPC (ID: 17146626/0x0105A302)], work=1459*
235: 0x0750 [0x1C] WAIT(30* ticks)
236: 0x0753 [0x52] END_LOAD_SCHEDULER: End scheduler "dhm0" with entities [LocalPlayer, LocalPlayer], work=381*
237: 0x0762 [0x52] END_LOAD_SCHEDULER: End scheduler "dhf0" with entities [LocalPlayer, LocalPlayer], work=381*
238: 0x0771 [0x52] END_LOAD_SCHEDULER: End scheduler "dem0" with entities [LocalPlayer, LocalPlayer], work=381*
239: 0x0780 [0x52] END_LOAD_SCHEDULER: End scheduler "def0" with entities [LocalPlayer, LocalPlayer], work=381*
240: 0x078F [0x52] END_LOAD_SCHEDULER: End scheduler "dtr0" with entities [LocalPlayer, LocalPlayer], work=381*
241: 0x079E [0x52] END_LOAD_SCHEDULER: End scheduler "dmt0" with entities [LocalPlayer, LocalPlayer], work=381*
242: 0x07AD [0x52] END_LOAD_SCHEDULER: End scheduler "dgl0" with entities [LocalPlayer, LocalPlayer], work=381*
243: 0x07BC [0x45] LOAD_SCHEDULED_TASK: Load scheduler "ad16" with entities [LocalPlayer, LocalPlayer], work=[381*, 0*]
244: 0x07CD [0x2B] Schultz (ID: 17146625/0x0105A301) [7867*]:
    → "And also, I would ask that you see that this message gets to Ulbrecht."
245: 0x07D4 [0x23] WAIT_FOR_DIALOG_INTERACTION
246: 0x07D5 [0x52] END_LOAD_SCHEDULER: End scheduler "ad16" with entities [LocalPlayer, LocalPlayer], work=381*
247: 0x07E4 [0x45] LOAD_SCHEDULED_TASK: Load scheduler "ad17" with entities [LocalPlayer, LocalPlayer], work=[381*, 0*]
248: 0x07F5 [0x4E] SET_ENTITY_HIDE_FLAG: Hide LocalPlayer
249: 0x07FB [0x2B] Schultz (ID: 17146625/0x0105A301) [7868*]:
    → "I thought something such as this might happen, so I've encoded my location within. Upon reading this, he will surely move to act on my behalf."
250: 0x0802 [0x23] WAIT_FOR_DIALOG_INTERACTION
251: 0x0803 [0x52] END_LOAD_SCHEDULER: End scheduler "ad17" with entities [LocalPlayer, LocalPlayer], work=381*
252: 0x0812 [0x45] LOAD_SCHEDULED_TASK: Load scheduler "ad18" with entities [LocalPlayer, LocalPlayer], work=[381*, 0*]
253: 0x0823 [0x5B] LOAD_EXT_SCHEDULER: Load scheduler "lat1" with entities [Schultz (ID: 17146625/0x0105A301), Schultz (ID: 17146625/0x0105A301)], work=1355*
254: 0x0832 [0x5B] LOAD_EXT_SCHEDULER: Load scheduler "lat1" with entities [Unnamed NPC (ID: 17146626/0x0105A302), Unnamed NPC (ID: 17146626/0x0105A302)], work=1459*
255: 0x0841 [0x1C] WAIT(30* ticks)
256: 0x0844 [0x2B] Schultz (ID: 17146625/0x0105A301) [7869*]:
    → "Oh, you needn't go worrying yourself about me. I assure you I shall be fine. Luckily, I had the foresight to bring these old war annals with me. I'll just remain here and read in peace while awaiting my rescue."
257: 0x084B [0x23] WAIT_FOR_DIALOG_INTERACTION
258: 0x084C [0x53] WAIT_SCHEDULER_TASK: Wait for scheduler "lat1" with entities [Schultz (ID: 17146625/0x0105A301), Schultz (ID: 17146625/0x0105A301)]
259: 0x0859 [0x2B] Schultz (ID: 17146625/0x0105A301) [7870*]:
    → "I bid you a safe journey, <Player>. May the Goddess watch over you."
260: 0x0860 [0x23] WAIT_FOR_DIALOG_INTERACTION
261: 0x0861 [0x52] END_LOAD_SCHEDULER: End scheduler "ad18" with entities [LocalPlayer, LocalPlayer], work=381*
262: 0x0870 [0x45] LOAD_SCHEDULED_TASK: Load scheduler "ad19" with entities [LocalPlayer, LocalPlayer], work=[381*, 0*]
263: 0x0881 [0x4E] SET_ENTITY_HIDE_FLAG: Show LocalPlayer
264: 0x0887 [0x1C] WAIT(180* ticks)
265: 0x088A [0x1A] CALL_SUBROUTINE(address=0x0C4D)
266: 0x088D [0x1C] WAIT(30* ticks)
267: 0x0890 [0x4E] SET_ENTITY_HIDE_FLAG: Hide Unnamed NPC (ID: 17146626/0x0105A302)
268: 0x0896 [0x29] REQ_SET_WAIT(priority=0x10, entity_id=Schultz (ID: 17146625/0x0105A301), tag_num=0x0D)
269: 0x089D [0x78] ENABLE_GAME_TIMER_RESET_WEATHER()
270: 0x089E [0x1C] WAIT(1* ticks)
271: 0x08A1 [0xAB] EventEntity->UnknownFlag = 0 // Disable unknown flag
272: 0x08A3 [0x1C] WAIT(150* ticks)
273: 0x08A6 [0x29] REQ_SET_WAIT(priority=0x10, entity_id=Schultz (ID: 17146625/0x0105A301), tag_num=0x0E)
274: 0x08AD [0x48] [System] [7902*]:
    → "@@"
275: 0x08B0 [0x23] WAIT_FOR_DIALOG_INTERACTION
276: 0x08B1 [0x5C] MUSIC_CONTROL: Set Idle (Day) music to song 127*
277: 0x08B5 [0x5C] MUSIC_CONTROL: Set Idle (Night) music to song 127*
278: 0x08B9 [0x9A] WAIT_MUSIC_SERVER()
279: 0x08BA [0x52] END_LOAD_SCHEDULER: End scheduler "ad19" with entities [LocalPlayer, LocalPlayer], work=381*
280: 0x08C9 [0x45] LOAD_SCHEDULED_TASK: Load scheduler "ad20" with entities [LocalPlayer, LocalPlayer], work=[381*, 0*]
281: 0x08DA [0x1A] CALL_SUBROUTINE(address=0x0C2C)
282: 0x08DD [0x1C] WAIT(150* ticks)
283: 0x08E0 [0xBB] LOAD_EVENT_SCHEDULER_ALT: Load scheduler "s000" with entities [Schultz (ID: 17146625/0x0105A301), Schultz (ID: 17146625/0x0105A301)], work=[177*, 0*]
284: 0x08F1 [0x03] Work_Zone[2] = 420*
285: 0x08F6 [0x27] REQ_SET(priority=0x10, entity_id=??? (ID: 17146622/0x0105A2FE), tag_num=0x01)
286: 0x08FD [0x1C] WAIT(60* ticks)
287: 0x0900 [0x52] END_LOAD_SCHEDULER: End scheduler "ad20" with entities [LocalPlayer, LocalPlayer], work=381*
288: 0x090F [0x45] LOAD_SCHEDULED_TASK: Load scheduler "ad21" with entities [LocalPlayer, LocalPlayer], work=[381*, 0*]
289: 0x0920 [0x1C] WAIT(60* ticks)
290: 0x0923 [0x45] LOAD_SCHEDULED_TASK: Load scheduler "shd0" with entities [Schultz (ID: 17146625/0x0105A301), Schultz (ID: 17146625/0x0105A301)], work=[380*, 0*]
291: 0x0934 [0x1C] WAIT(120* ticks)
292: 0x0937 [0x2B] ??? (ID: 17146622/0x0105A2FE) [7871*]:
    → "It appears you have been gotten the better of, old friend."
293: 0x093E [0x23] WAIT_FOR_DIALOG_INTERACTION
294: 0x093F [0x52] END_LOAD_SCHEDULER: End scheduler "ad21" with entities [LocalPlayer, LocalPlayer], work=381*
295: 0x094E [0x45] LOAD_SCHEDULED_TASK: Load scheduler "ad22" with entities [LocalPlayer, LocalPlayer], work=[381*, 0*]
296: 0x095F [0x2B] Schultz (ID: 17146625/0x0105A301) [7872*]:
    → "I predicted as much. He was always the most studious among my pupils. Though this turn of events certainly came sooner than I had ever anticipated."
297: 0x0966 [0x23] WAIT_FOR_DIALOG_INTERACTION
298: 0x0967 [0x2B] Schultz (ID: 17146625/0x0105A301) [7873*]:
    → "A brilliant show of strategy and execution. A performance worthy of full marks from any teacher."
299: 0x096E [0x23] WAIT_FOR_DIALOG_INTERACTION
300: 0x096F [0x52] END_LOAD_SCHEDULER: End scheduler "ad22" with entities [LocalPlayer, LocalPlayer], work=381*
301: 0x097E [0x45] LOAD_SCHEDULED_TASK: Load scheduler "ad23" with entities [LocalPlayer, LocalPlayer], work=[381*, 0*]
302: 0x098F [0xBB] LOAD_EVENT_SCHEDULER_ALT: Load scheduler "s001" with entities [Schultz (ID: 17146625/0x0105A301), Schultz (ID: 17146625/0x0105A301)], work=[177*, 0*]
303: 0x09A0 [0x03] Work_Zone[2] = 460*
304: 0x09A5 [0x27] REQ_SET(priority=0x10, entity_id=??? (ID: 17146622/0x0105A2FE), tag_num=0x01)
305: 0x09AC [0x1C] WAIT(90* ticks)
306: 0x09AF [0x45] LOAD_SCHEDULED_TASK: Load scheduler "shd1" with entities [Schultz (ID: 17146625/0x0105A301), Schultz (ID: 17146625/0x0105A301)], work=[380*, 0*]
307: 0x09C0 [0x2B] Schultz (ID: 17146625/0x0105A301) [7874*]:
    → "If anything troubles me, it is that he can, at times, excel too much... A sometimes fatal flaw."
308: 0x09C7 [0x23] WAIT_FOR_DIALOG_INTERACTION
309: 0x09C8 [0x1C] WAIT(120* ticks)
310: 0x09CB [0x2B] ??? (ID: 17146622/0x0105A2FE) [7875*]:
    → "When the pawns demand to be treated in the same manner as the king who commands them, his reign is compromised. Are you now finding your calculations to have been less than adequate?"
311: 0x09D2 [0x23] WAIT_FOR_DIALOG_INTERACTION
312: 0x09D3 [0x52] END_LOAD_SCHEDULER: End scheduler "ad23" with entities [LocalPlayer, LocalPlayer], work=381*
313: 0x09E2 [0x45] LOAD_SCHEDULED_TASK: Load scheduler "ad24" with entities [LocalPlayer, LocalPlayer], work=[381*, 0*]
314: 0x09F3 [0x1C] WAIT(30* ticks)
315: 0x09F6 [0x2B] Schultz (ID: 17146625/0x0105A301) [7876*]:
    → "Hmph. The moves have been made and the pieces are in motion. All that remains now is for the game to play itself out."
316: 0x09FD [0x23] WAIT_FOR_DIALOG_INTERACTION
317: 0x09FE [0x2B] ??? (ID: 17146622/0x0105A2FE) [7877*]:
    → "Ah, and therein lies the true fun."
318: 0x0A05 [0x23] WAIT_FOR_DIALOG_INTERACTION
319: 0x0A06 [0x52] END_LOAD_SCHEDULER: End scheduler "ad24" with entities [LocalPlayer, LocalPlayer], work=381*
320: 0x0A15 [0x45] LOAD_SCHEDULED_TASK: Load scheduler "ad25" with entities [LocalPlayer, LocalPlayer], work=[381*, 0*]
321: 0x0A26 [0x1C] WAIT(60* ticks)
322: 0x0A29 [0x2B] Schultz (ID: 17146625/0x0105A301) [7878*]:
    → "Still, he has ingeniously gone about setting the stage for quite a power struggle here. He learned a great deal by observing you, I gather."
323: 0x0A30 [0x23] WAIT_FOR_DIALOG_INTERACTION
324: 0x0A31 [0x52] END_LOAD_SCHEDULER: End scheduler "ad25" with entities [LocalPlayer, LocalPlayer], work=381*
325: 0x0A40 [0x45] LOAD_SCHEDULED_TASK: Load scheduler "ad26" with entities [LocalPlayer, LocalPlayer], work=[381*, 0*]
326: 0x0A51 [0x1C] WAIT(60* ticks)
327: 0x0A54 [0x2B] ??? (ID: 17146622/0x0105A2FE) [7879*]:
    → "What's this? Lavish praise at the hands of the great Professor Schultz? I'll not be taken in by such trickery. It doesn't suit you at all."
328: 0x0A5B [0x23] WAIT_FOR_DIALOG_INTERACTION
329: 0x0A5C [0x5D] SET_MUSIC_VOLUME(volume=0*, fade_time=300*)
330: 0x0A61 [0xBB] LOAD_EVENT_SCHEDULER_ALT: Load scheduler "s002" with entities [Schultz (ID: 17146625/0x0105A301), Schultz (ID: 17146625/0x0105A301)], work=[177*, 0*]
331: 0x0A72 [0x45] LOAD_SCHEDULED_TASK: Load scheduler "khd0" with entities [Schultz (ID: 17146625/0x0105A301), Schultz (ID: 17146625/0x0105A301)], work=[380*, 0*]
332: 0x0A83 [0x45] LOAD_SCHEDULED_TASK: Load scheduler "khd1" with entities [Schultz (ID: 17146625/0x0105A301), Schultz (ID: 17146625/0x0105A301)], work=[380*, 0*]
333: 0x0A94 [0x45] LOAD_SCHEDULED_TASK: Load scheduler "shd2" with entities [Schultz (ID: 17146625/0x0105A301), Schultz (ID: 17146625/0x0105A301)], work=[380*, 0*]
334: 0x0AA5 [0x03] Work_Zone[2] = 300*
335: 0x0AAA [0x27] REQ_SET(priority=0x10, entity_id=??? (ID: 17146622/0x0105A2FE), tag_num=0x01)
336: 0x0AB1 [0x1C] WAIT(60* ticks)
337: 0x0AB4 [0x52] END_LOAD_SCHEDULER: End scheduler "ad26" with entities [LocalPlayer, LocalPlayer], work=381*
338: 0x0AC3 [0x45] LOAD_SCHEDULED_TASK: Load scheduler "ad27" with entities [LocalPlayer, LocalPlayer], work=[381*, 0*]
339: 0x0AD4 [0x1C] WAIT(60* ticks)
340: 0x0AD7 [0x27] REQ_SET(priority=0x10, entity_id=Schultz (ID: 17146625/0x0105A301), tag_num=0x0F)
341: 0x0ADE [0x2B] Schultz (ID: 17146625/0x0105A301) [7880*]:
    → "Hehehe. Saw right through that, didn't you?"
342: 0x0AE5 [0x2A] GET_REQ_LEVEL(level=16, entity_id=??? (ID: 17146622/0x0105A2FE))
343: 0x0AEB [0x1A] CALL_SUBROUTINE(address=0x0C4D)
344: 0x0AEE [0x1C] WAIT(30* ticks)
345: 0x0AF1 [0x52] END_LOAD_SCHEDULER: End scheduler "ad27" with entities [LocalPlayer, LocalPlayer], work=381*
346: 0x0B00 [0x45] LOAD_SCHEDULED_TASK: Load scheduler "0blf" with entities [LocalPlayer, LocalPlayer], work=[381*, 0*]
347: 0x0B11 [0x46] CAMERA_CONTROL: Restore default settings
348: 0x0B13 [0x45] LOAD_SCHEDULED_TASK: Load scheduler "fdi2" with entities [LocalPlayer, LocalPlayer], work=[200*, 0*]
349: 0x0B24 [0x21] END_EVENT
350: 0x0B25 [0x00] END_REQSTACK()
```

### Event 5

#### Metadata

| Field        | Value     |
|--------------|-----------|
| Entrypoint   | 0x0B26    |
| Data Size    | 853 bytes |
| Instructions | 40        |

```
      00 01 02 03 04 05 06 07  08 09 0A 0B 0C 0D 0E 0F
      -- -- -- -- -- -- -- --  -- -- -- -- -- -- -- --
0B20:                   42 1A  4D 0C 46 01 38 00 80 4E        B.M.F.8..N
0B30: 00 FF A2 05 01 27 10 02  A3 05 01 04 94 01 F0 FF  .....'..........
0B40: FF 7F 94 01 FF A2 05 01  94 01 02 A3 05 01 BA F0  ................
0B50: FF FF 7F 01 80 02 80 03  80 04 80 29 10 FF A2 05  ...........)....
0B60: 01 03 29 10 02 A3 05 01  0A 80 F0 FF FF 7F 80 FF  ..).............
0B70: A2 05 01 80 02 A3 05 01  1C 0C 80 45 55 80 F0 FF  ...........EU...
0B80: FF 7F F0 FF FF 7F 61 66  33 30 0A 80 1A 2C 0C 1C  ......af30...,..
0B90: 1E 80 4A F0 FF FF 7F 02  A3 05 01 6F 76 F0 FF FF  ..J........ov...
0BA0: 7F 62 0F 80 FF A2 05 01  FF A2 05 01 6D 61 69 6E  .b..........main
0BB0: 0A 80 27 10 F0 FF FF 7F  19 48 56 80 23 1C 35 80  ..'......HV.#.5.
0BC0: 1A 4D 0C 1C 0E 80 52 47  80 F0 FF FF 7F F0 FF FF  .M....RG........
0BD0: 7F 00 FE FE FE 46 00 45  54 80 F0 FF FF 7F F0 FF  .....F.ET.......
0BE0: FF 7F 66 64 69 32 0A 80  21 00 45 54 80 F0 FF FF  ..fdi2..!.ET....
0BF0: 7F F0 FF FF 7F 66 64 69  30 0A 80 55 54 80 F0 FF  .....fdi0..UT...
0C00: FF 7F F0 FF FF 7F 66 64  69 30 1B 45 54 80 F0 FF  ......fdi0.ET...
0C10: FF 7F F0 FF FF 7F 66 64  6F 30 0A 80 55 54 80 F0  ......fdo0..UT..
0C20: FF FF 7F F0 FF FF 7F 66  64 6F 30 1B 45 54 80 F0  .......fdo0.ET..
0C30: FF FF 7F F0 FF FF 7F 66  64 69 31 0A 80 55 54 80  .......fdi1..UT.
0C40: F0 FF FF 7F F0 FF FF 7F  66 64 69 31 1B 45 54 80  ........fdi1.ET.
0C50: F0 FF FF 7F F0 FF FF 7F  66 64 6F 31 0A 80 55 54  ........fdo1..UT
0C60: 80 F0 FF FF 7F F0 FF FF  7F 66 64 6F 31 1B 45 57  .........fdo1.EW
0C70: 80 F0 FF FF 7F F0 FF FF  7F 77 68 69 31 0A 80 55  .........whi1..U
0C80: 57 80 F0 FF FF 7F F0 FF  FF 7F 77 68 69 31 1B 45  W.........whi1.E
0C90: 57 80 F0 FF FF 7F F0 FF  FF 7F 77 68 6F 31 0A 80  W.........who1..
0CA0: 55 57 80 F0 FF FF 7F F0  FF FF 7F 77 68 6F 31 1B  UW.........who1.
0CB0: 45 57 80 F0 FF FF 7F F0  FF FF 7F 77 68 6F 32 0A  EW.........who2.
0CC0: 80 55 57 80 F0 FF FF 7F  F0 FF FF 7F 77 68 6F 32  .UW.........who2
0CD0: 1B 45 57 80 F0 FF FF 7F  F0 FF FF 7F 77 68 6F 33  .EW.........who3
0CE0: 0A 80 55 57 80 F0 FF FF  7F F0 FF FF 7F 77 68 6F  ..UW.........who
0CF0: 33 1B 62 39 80 F0 FF FF  7F F0 FF FF 7F 6D 61 69  3.b9.........mai
0D00: 6E 0A 80 1C 10 80 45 54  80 F0 FF FF 7F F0 FF FF  n.....ET........
0D10: 7F 66 64 6F 31 0A 80 55  54 80 F0 FF FF 7F F0 FF  .fdo1..UT.......
0D20: FF 7F 66 64 6F 31 1B 45  54 80 F0 FF FF 7F F0 FF  ..fdo1.ET.......
0D30: FF 7F 66 64 69 31 0A 80  62 3A 80 F0 FF FF 7F F0  ..fdi1..b:......
0D40: FF FF 7F 6D 61 69 6E 0A  80 1C 0E 80 55 54 80 F0  ...main.....UT..
0D50: FF FF 7F F0 FF FF 7F 66  64 69 31 1B 45 54 80 F0  .......fdi1.ET..
0D60: FF FF 7F F0 FF FF 7F 62  6C 6F 6E 0A 80 45 57 80  .......blon..EW.
0D70: F0 FF FF 7F F0 FF FF 7F  62 6C 6F 6E 0A 80 1B 45  ........blon...E
0D80: 57 80 F0 FF FF 7F F0 FF  FF 7F 77 68 69 30 0A 80  W.........whi0..
0D90: 55 57 80 F0 FF FF 7F F0  FF FF 7F 77 68 69 30 1B  UW.........whi0.
0DA0: 45 57 80 F0 FF FF 7F F0  FF FF 7F 77 68 6F 30 0A  EW.........who0.
0DB0: 80 55 57 80 F0 FF FF 7F  F0 FF FF 7F 77 68 6F 30  .UW.........who0
0DC0: 1B 45 58 80 F0 FF FF 7F  F0 FF FF 7F 65 66 6F 6E  .EX.........efon
0DD0: 0A 80 55 58 80 F0 FF FF  7F F0 FF FF 7F 65 66 6F  ..UX.........efo
0DE0: 6E 1B 45 54 80 F0 FF FF  7F F0 FF FF 7F 66 64 69  n.ET.........fdi
0DF0: 73 0A 80 1B 45 54 80 F0  FF FF 7F F0 FF FF 7F 66  s...ET.........f
0E00: 64 6F 73 0A 80 55 54 80  F0 FF FF 7F F0 FF FF 7F  dos..UT.........
0E10: 66 64 6F 73 1B 45 54 80  F0 FF FF 7F F0 FF FF 7F  fdos.ET.........
0E20: 66 64 69 66 0A 80 1B 45  54 80 F0 FF FF 7F F0 FF  fdif...ET.......
0E30: FF 7F 66 64 6F 66 0A 80  55 54 80 F0 FF FF 7F F0  ..fdof..UT......
0E40: FF FF 7F 66 64 6F 66 1B  45 54 80 F0 FF FF 7F F0  ...fdof.ET......
0E50: FF FF 7F 66 64 69 70 0A  80 1B 45 54 80 F0 FF FF  ...fdip...ET....
0E60: 7F F0 FF FF 7F 66 64 6F  70 0A 80 55 54 80 F0 FF  .....fdop..UT...
0E70: FF 7F F0 FF FF 7F 66 64  6F 70 1B                 ......fdop.     
```

#### Opcodes

```
  0: 0x0B26 [0x42] SET_CLI_EVENT_CANCEL_DATA()
  1: 0x0B27 [0x1A] CALL_SUBROUTINE(address=0x0C4D)
  2: 0x0B2A [0x46] CAMERA_CONTROL: Disable user control
  3: 0x0B2C [0x38] SET_CLIENT_EVENT_MODE(mode=19*)
  4: 0x0B2F [0x4E] SET_ENTITY_HIDE_FLAG: Show Unnamed NPC (ID: 17146623/0x0105A2FF)
  5: 0x0B35 [0x27] REQ_SET(priority=0x10, entity_id=Unnamed NPC (ID: 17146626/0x0105A302), tag_num=0x04)
  6: 0x0B3C [0x94] LocalPlayer->Render.Flags3 ^= 0x01
  7: 0x0B42 [0x94] Unnamed NPC (ID: 17146623/0x0105A2FF)->Render.Flags3 ^= 0x01
  8: 0x0B48 [0x94] Unnamed NPC (ID: 17146626/0x0105A302)->Render.Flags3 ^= 0x01
  9: 0x0B4E [0xBA] SET_ENTITY_POSITION(entity_id=LocalPlayer, pos_x=-457.873*, pos_z=-365.572*, pos_y=24.999*, direction=301.8°*)
 10: 0x0B5B [0x29] REQ_SET_WAIT(priority=0x10, entity_id=Unnamed NPC (ID: 17146623/0x0105A2FF), tag_num=0x03)
 11: 0x0B62 [0x29] REQ_SET_WAIT(priority=0x10, entity_id=Unnamed NPC (ID: 17146626/0x0105A302), tag_num=0x0A)
 12: 0x0B69 [0x80] LOAD_WAIT(entity=LocalPlayer)
 13: 0x0B6E [0x80] LOAD_WAIT(entity=Unnamed NPC (ID: 17146623/0x0105A2FF))
 14: 0x0B73 [0x80] LOAD_WAIT(entity=Unnamed NPC (ID: 17146626/0x0105A302))
 15: 0x0B78 [0x1C] WAIT(15* ticks)
 16: 0x0B7B [0x45] LOAD_SCHEDULED_TASK: Load scheduler "af30" with entities [LocalPlayer, LocalPlayer], work=[325*, 0*]
 17: 0x0B8C [0x1A] CALL_SUBROUTINE(address=0x0C2C)
 18: 0x0B8F [0x1C] WAIT(60* ticks)
 19: 0x0B92 [0x4A] LocalPlayer looks at Unnamed NPC (ID: 17146626/0x0105A302)
 20: 0x0B9B [0x6F] WAIT_FRAME_DELAY: Yield until WaitTime reaches zero
 21: 0x0B9C [0x76] CHECK_ENTITY_RENDER_FLAGS: Wait until LocalPlayer Render.Flags0 and Render.Flags3 conditions are met
 22: 0x0BA1 [0x62] LOAD_EVENT_SCHEDULER: Load scheduler "main" with entities [Unnamed NPC (ID: 17146623/0x0105A2FF), Unnamed NPC (ID: 17146623/0x0105A2FF)], work=[3*, 0*]
 23: 0x0BB2 [0x27] REQ_SET(priority=0x10, entity_id=LocalPlayer, tag_num=0x19)
 24: 0x0BB9 [0x48] [System] [7881*]:
    → "There is a sealed letter which appears to have been dropped..."
 25: 0x0BBC [0x23] WAIT_FOR_DIALOG_INTERACTION
 26: 0x0BBD [0x1C] WAIT(120* ticks)
 27: 0x0BC0 [0x1A] CALL_SUBROUTINE(address=0x0C4D)
 28: 0x0BC3 [0x1C] WAIT(30* ticks)
 29: 0x0BC6 [0x52] END_LOAD_SCHEDULER: End scheduler 0xFEFEFE00 with entities [LocalPlayer, LocalPlayer], work=380*
 30: 0x0BD5 [0x46] CAMERA_CONTROL: Restore default settings
 31: 0x0BD7 [0x45] LOAD_SCHEDULED_TASK: Load scheduler "fdi2" with entities [LocalPlayer, LocalPlayer], work=[200*, 0*]
 32: 0x0BE8 [0x21] END_EVENT
 33: 0x0BE9 [0x00] END_REQSTACK()

SUBROUTINE_0C2C:
 34: 0x0C2C [0x45] LOAD_SCHEDULED_TASK: Load scheduler "fdi1" with entities [LocalPlayer, LocalPlayer], work=[200*, 0*]
 35: 0x0C3D [0x55] WAIT_LOAD_SCHEDULER: Wait for scheduler "fdi1" with entities [LocalPlayer, LocalPlayer], work=200*
 36: 0x0C4C [0x1B] RETURN

SUBROUTINE_0C4D:
 37: 0x0C4D [0x45] LOAD_SCHEDULED_TASK: Load scheduler "fdo1" with entities [LocalPlayer, LocalPlayer], work=[200*, 0*]
 38: 0x0C5E [0x55] WAIT_LOAD_SCHEDULER: Wait for scheduler "fdo1" with entities [LocalPlayer, LocalPlayer], work=200*
 39: 0x0C6D [0x1B] RETURN
```

#### Data or dead code:

```
# Dead code (unreachable instructions):
     0x0BEA [0x45] LOAD_SCHEDULED_TASK: Load scheduler "fdi0" with entities [LocalPlayer, LocalPlayer], work=[200*, 0*]
     0x0BFB [0x55] WAIT_LOAD_SCHEDULER: Wait for scheduler "fdi0" with entities [LocalPlayer, LocalPlayer], work=200*
     0x0C0A [0x1B] RETURN
     0x0C0B [0x45] LOAD_SCHEDULED_TASK: Load scheduler "fdo0" with entities [LocalPlayer, LocalPlayer], work=[200*, 0*]
     0x0C1C [0x55] WAIT_LOAD_SCHEDULER: Wait for scheduler "fdo0" with entities [LocalPlayer, LocalPlayer], work=200*
     0x0C2B [0x1B] RETURN
# Dead code (unreachable instructions):
     0x0C6E [0x45] LOAD_SCHEDULED_TASK: Load scheduler "whi1" with entities [LocalPlayer, LocalPlayer], work=[201*, 0*]
     0x0C7F [0x55] WAIT_LOAD_SCHEDULER: Wait for scheduler "whi1" with entities [LocalPlayer, LocalPlayer], work=201*
     0x0C8E [0x1B] RETURN
     0x0C8F [0x45] LOAD_SCHEDULED_TASK: Load scheduler "who1" with entities [LocalPlayer, LocalPlayer], work=[201*, 0*]
     0x0CA0 [0x55] WAIT_LOAD_SCHEDULER: Wait for scheduler "who1" with entities [LocalPlayer, LocalPlayer], work=201*
     0x0CAF [0x1B] RETURN
     0x0CB0 [0x45] LOAD_SCHEDULED_TASK: Load scheduler "who2" with entities [LocalPlayer, LocalPlayer], work=[201*, 0*]
     0x0CC1 [0x55] WAIT_LOAD_SCHEDULER: Wait for scheduler "who2" with entities [LocalPlayer, LocalPlayer], work=201*
     0x0CD0 [0x1B] RETURN
     0x0CD1 [0x45] LOAD_SCHEDULED_TASK: Load scheduler "who3" with entities [LocalPlayer, LocalPlayer], work=[201*, 0*]
     0x0CE2 [0x55] WAIT_LOAD_SCHEDULER: Wait for scheduler "who3" with entities [LocalPlayer, LocalPlayer], work=201*
     0x0CF1 [0x1B] RETURN
     0x0CF2 [0x62] LOAD_EVENT_SCHEDULER: Load scheduler "main" with entities [LocalPlayer, LocalPlayer], work=[1*, 0*]
     0x0D03 [0x1C] WAIT(45* ticks)
     0x0D06 [0x45] LOAD_SCHEDULED_TASK: Load scheduler "fdo1" with entities [LocalPlayer, LocalPlayer], work=[200*, 0*]
     0x0D17 [0x55] WAIT_LOAD_SCHEDULER: Wait for scheduler "fdo1" with entities [LocalPlayer, LocalPlayer], work=200*
     0x0D26 [0x1B] RETURN
     0x0D27 [0x45] LOAD_SCHEDULED_TASK: Load scheduler "fdi1" with entities [LocalPlayer, LocalPlayer], work=[200*, 0*]
     0x0D38 [0x62] LOAD_EVENT_SCHEDULER: Load scheduler "main" with entities [LocalPlayer, LocalPlayer], work=[2*, 0*]
     0x0D49 [0x1C] WAIT(30* ticks)
     0x0D4C [0x55] WAIT_LOAD_SCHEDULER: Wait for scheduler "fdi1" with entities [LocalPlayer, LocalPlayer], work=200*
     0x0D5B [0x1B] RETURN
     0x0D5C [0x45] LOAD_SCHEDULED_TASK: Load scheduler "blon" with entities [LocalPlayer, LocalPlayer], work=[200*, 0*]
     0x0D6D [0x45] LOAD_SCHEDULED_TASK: Load scheduler "blon" with entities [LocalPlayer, LocalPlayer], work=[201*, 0*]
     0x0D7E [0x1B] RETURN
     0x0D7F [0x45] LOAD_SCHEDULED_TASK: Load scheduler "whi0" with entities [LocalPlayer, LocalPlayer], work=[201*, 0*]
     0x0D90 [0x55] WAIT_LOAD_SCHEDULER: Wait for scheduler "whi0" with entities [LocalPlayer, LocalPlayer], work=201*
     0x0D9F [0x1B] RETURN
     0x0DA0 [0x45] LOAD_SCHEDULED_TASK: Load scheduler "who0" with entities [LocalPlayer, LocalPlayer], work=[201*, 0*]
     0x0DB1 [0x55] WAIT_LOAD_SCHEDULER: Wait for scheduler "who0" with entities [LocalPlayer, LocalPlayer], work=201*
     0x0DC0 [0x1B] RETURN
     0x0DC1 [0x45] LOAD_SCHEDULED_TASK: Load scheduler "efon" with entities [LocalPlayer, LocalPlayer], work=[215*, 0*]
     0x0DD2 [0x55] WAIT_LOAD_SCHEDULER: Wait for scheduler "efon" with entities [LocalPlayer, LocalPlayer], work=215*
     0x0DE1 [0x1B] RETURN
     0x0DE2 [0x45] LOAD_SCHEDULED_TASK: Load scheduler "fdis" with entities [LocalPlayer, LocalPlayer], work=[200*, 0*]
     0x0DF3 [0x1B] RETURN
     0x0DF4 [0x45] LOAD_SCHEDULED_TASK: Load scheduler "fdos" with entities [LocalPlayer, LocalPlayer], work=[200*, 0*]
     0x0E05 [0x55] WAIT_LOAD_SCHEDULER: Wait for scheduler "fdos" with entities [LocalPlayer, LocalPlayer], work=200*
     0x0E14 [0x1B] RETURN
     0x0E15 [0x45] LOAD_SCHEDULED_TASK: Load scheduler "fdif" with entities [LocalPlayer, LocalPlayer], work=[200*, 0*]
     0x0E26 [0x1B] RETURN
     0x0E27 [0x45] LOAD_SCHEDULED_TASK: Load scheduler "fdof" with entities [LocalPlayer, LocalPlayer], work=[200*, 0*]
     0x0E38 [0x55] WAIT_LOAD_SCHEDULER: Wait for scheduler "fdof" with entities [LocalPlayer, LocalPlayer], work=200*
     0x0E47 [0x1B] RETURN
     0x0E48 [0x45] LOAD_SCHEDULED_TASK: Load scheduler "fdip" with entities [LocalPlayer, LocalPlayer], work=[200*, 0*]
     0x0E59 [0x1B] RETURN
     0x0E5A [0x45] LOAD_SCHEDULED_TASK: Load scheduler "fdop" with entities [LocalPlayer, LocalPlayer], work=[200*, 0*]
     0x0E6B [0x55] WAIT_LOAD_SCHEDULER: Wait for scheduler "fdop" with entities [LocalPlayer, LocalPlayer], work=200*
     0x0E7A [0x1B] RETURN
```
