# 17146632

## Common Data

| Field            | Value                           |
|------------------|---------------------------------|
| Zone             | Pashhow Marshlands [S] (ID: 90) |
| Block Size       | 12172 bytes                     |
| Total Events     | 4                               |
| References Count | 412                             |

## List of Events

| Event ID              | Entrypoint   |   Size |   Instructions |
|-----------------------|--------------|--------|----------------|
| [65535](#event-65535) | 0x0000       |      1 |              1 |
| [105](#event-105)     | 0x0001       |   5849 |            672 |
| [106](#event-106)     | 0x16DA       |    224 |             32 |
| [107](#event-107)     | 0x17BA       |   4417 |            481 |

## DAT References (imed_data)

|   Index | Hex Value   |   Dec Value |
|---------|-------------|-------------|
|       0 | 0x0013      |          19 |
|       1 | 0xFFFD0406  |  4294771718 |
|       2 | 0x669B9     |      420281 |
|       3 | 0x6032      |       24626 |
|       4 | 0x06DC      |        1756 |
|       5 | 0xFFFC9DD4  |  4294745556 |
|       6 | 0x653F3     |      414707 |
|       7 | 0x5F4D      |       24397 |
|       8 | 0x0383      |         899 |
|       9 | 0xFFFC7C4C  |  4294736972 |
|      10 | 0x63AF6     |      408310 |
|      11 | 0x5F99      |       24473 |
|      12 | 0x0317      |         791 |
|      13 | 0xFFFC62AE  |  4294730414 |
|      14 | 0x62F66     |      405350 |
|      15 | 0x608C      |       24716 |
|      16 | 0x0A63      |        2659 |
|      17 | 0xFFFC5B83  |  4294728579 |
|      18 | 0x63D25     |      408869 |
|      19 | 0x6112      |       24850 |
|      20 | 0x0A88      |        2696 |
|      21 | 0xFFFC4BB1  |  4294724529 |
|      22 | 0x63D7F     |      408959 |
|      23 | 0x6113      |       24851 |
|      24 | 0x07D2      |        2002 |
|      25 | 0xFFFC4D61  |  4294724961 |
|      26 | 0x64AD9     |      412377 |
|      27 | 0x60FB      |       24827 |
|      28 | 0x0D23      |        3363 |
|      29 | 0xFFFC5AF5  |  4294728437 |
|      30 | 0x6555A     |      415066 |
|      31 | 0x607A      |       24698 |
|      32 | 0x0F05      |        3845 |
|      33 | 0xFFFC6DEA  |  4294733290 |
|      34 | 0x65AC0     |      416448 |
|      35 | 0x6036      |       24630 |
|      36 | 0x0F12      |        3858 |
|      37 | 0xFFFC7C74  |  4294737012 |
|      38 | 0x63491     |      406673 |
|      39 | 0x600B      |       24587 |
|      40 | 0x0B6A      |        2922 |
|      41 | 0xFFFC4FCD  |  4294725581 |
|      42 | 0x66263     |      418403 |
|      43 | 0x6048      |       24648 |
|      44 | 0x0622      |        1570 |
|      45 | 0xFFFC4128  |  4294721832 |
|      46 | 0x65280     |      414336 |
|      47 | 0x603E      |       24638 |
|      48 | 0x057E      |        1406 |
|      49 | 0xFFFC6ACF  |  4294732495 |
|      50 | 0x6265F     |      403039 |
|      51 | 0x6084      |       24708 |
|      52 | 0x0FA3      |        4003 |
|      53 | 0x0000      |           0 |
|      54 | 0x0BB8      |        3000 |
|      55 | 0x0196      |         406 |
|      56 | 0x00C8      |         200 |
|      57 | 0xFFFCF623  |  4294768163 |
|      58 | 0x66696     |      419478 |
|      59 | 0x0771      |        1905 |
|      60 | 0x003C      |          60 |
|      61 | 0x1EE2      |        7906 |
|      62 | 0x1EE3      |        7907 |
|      63 | 0xFFFCB81B  |  4294752283 |
|      64 | 0x655C0     |      415168 |
|      65 | 0x5F85      |       24453 |
|      66 | 0x0778      |        1912 |
|      67 | 0xFFFCAEE1  |  4294749921 |
|      68 | 0x65583     |      415107 |
|      69 | 0x5F3A      |       24378 |
|      70 | 0x0777      |        1911 |
|      71 | 0x1EE4      |        7908 |
|      72 | 0x0562      |        1378 |
|      73 | 0x059D      |        1437 |
|      74 | 0x1EE5      |        7909 |
|      75 | 0x0005      |           5 |
|      76 | 0xFFFCA3C2  |  4294747074 |
|      77 | 0x646D5     |      411349 |
|      78 | 0x5F4C      |       24396 |
|      79 | 0x0F16      |        3862 |
|      80 | 0xFFFCBA8B  |  4294752907 |
|      81 | 0x63A30     |      408112 |
|      82 | 0x60A3      |       24739 |
|      83 | 0x049C      |        1180 |
|      84 | 0xFFFCB29A  |  4294750874 |
|      85 | 0x64E4B     |      413259 |
|      86 | 0x5F67      |       24423 |
|      87 | 0x0D69      |        3433 |
|      88 | 0x1EE6      |        7910 |
|      89 | 0x04F8      |        1272 |
|      90 | 0x1EE7      |        7911 |
|      91 | 0xFFFCB6EE  |  4294751982 |
|      92 | 0x64C3C     |      412732 |
|      93 | 0x5FD7      |       24535 |
|      94 | 0x0C50      |        3152 |
|      95 | 0x1EE8      |        7912 |
|      96 | 0x1EE9      |        7913 |
|      97 | 0x1EEA      |        7914 |
|      98 | 0x0007      |           7 |
|      99 | 0x1EEB      |        7915 |
|     100 | 0x001D      |          29 |
|     101 | 0x1EF1      |        7921 |
|     102 | 0x0001      |           1 |
|     103 | 0x1EEE      |        7918 |
|     104 | 0x04F9      |        1273 |
|     105 | 0x1EEF      |        7919 |
|     106 | 0x1EF0      |        7920 |
|     107 | 0x0002      |           2 |
|     108 | 0x1EEC      |        7916 |
|     109 | 0x1EED      |        7917 |
|     110 | 0x0004      |           4 |
|     111 | 0xFFFC6BEB  |  4294732779 |
|     112 | 0x64AAB     |      412331 |
|     113 | 0x6066      |       24678 |
|     114 | 0x06AC      |        1708 |
|     115 | 0xFFFC6F3D  |  4294733629 |
|     116 | 0x63E8C     |      409228 |
|     117 | 0x602F      |       24623 |
|     118 | 0x0880      |        2176 |
|     119 | 0xFFFC67A4  |  4294731684 |
|     120 | 0x63FB4     |      409524 |
|     121 | 0x60EE      |       24814 |
|     122 | 0x0DB2      |        3506 |
|     123 | 0xFFFC638A  |  4294730634 |
|     124 | 0x6452B     |      410923 |
|     125 | 0x0F7E      |        3966 |
|     126 | 0xFFFC82DC  |  4294738652 |
|     127 | 0x61F44     |      401220 |
|     128 | 0x06F6      |        1782 |
|     129 | 0xFFFC7CFA  |  4294737146 |
|     130 | 0x61CE4     |      400612 |
|     131 | 0x0F0D      |        3853 |
|     132 | 0xFFFC5A8E  |  4294728334 |
|     133 | 0x60E53     |      396883 |
|     134 | 0x09B3      |        2483 |
|     135 | 0xFFFC54C6  |  4294726854 |
|     136 | 0x61242     |      397890 |
|     137 | 0x603D      |       24637 |
|     138 | 0x0218      |         536 |
|     139 | 0xFFFC4DBA  |  4294725050 |
|     140 | 0x61E2D     |      400941 |
|     141 | 0x0CB5      |        3253 |
|     142 | 0xFFFC5391  |  4294726545 |
|     143 | 0x62358     |      402264 |
|     144 | 0x603F      |       24639 |
|     145 | 0x0460      |        1120 |
|     146 | 0xFFFC48F2  |  4294723826 |
|     147 | 0x62046     |      401478 |
|     148 | 0x601D      |       24605 |
|     149 | 0x0255      |         597 |
|     150 | 0xFFFC626D  |  4294730349 |
|     151 | 0x60CCA     |      396490 |
|     152 | 0x0B0F      |        2831 |
|     153 | 0xFFFC656E  |  4294731118 |
|     154 | 0x619DB     |      399835 |
|     155 | 0x6040      |       24640 |
|     156 | 0x040E      |        1038 |
|     157 | 0x002C      |          44 |
|     158 | 0x1EF2      |        7922 |
|     159 | 0x1EF3      |        7923 |
|     160 | 0x1EF4      |        7924 |
|     161 | 0x1EF5      |        7925 |
|     162 | 0x1EF6      |        7926 |
|     163 | 0x1EF7      |        7927 |
|     164 | 0x1EF8      |        7928 |
|     165 | 0x1EF9      |        7929 |
|     166 | 0xFFFCA49C  |  4294747292 |
|     167 | 0x655E6     |      415206 |
|     168 | 0x5F4E      |       24398 |
|     169 | 0x0787      |        1927 |
|     170 | 0x0992      |        2450 |
|     171 | 0x0990      |        2448 |
|     172 | 0x1EFA      |        7930 |
|     173 | 0x000A      |          10 |
|     174 | 0xFFFC7611  |  4294735377 |
|     175 | 0x64936     |      411958 |
|     176 | 0x5F5B      |       24411 |
|     177 | 0x0F07      |        3847 |
|     178 | 0x1EFB      |        7931 |
|     179 | 0x1EFC      |        7932 |
|     180 | 0xFFFC89B2  |  4294740402 |
|     181 | 0x65725     |      415525 |
|     182 | 0x5EB7      |       24247 |
|     183 | 0x00EB      |         235 |
|     184 | 0xFFFC83DF  |  4294738911 |
|     185 | 0x64E4C     |      413260 |
|     186 | 0x5EB4      |       24244 |
|     187 | 0x0111      |         273 |
|     188 | 0xFFFC89AF  |  4294740399 |
|     189 | 0x64859     |      411737 |
|     190 | 0x5EE2      |       24290 |
|     191 | 0x00EA      |         234 |
|     192 | 0xFFFC9DC3  |  4294745539 |
|     193 | 0x64F5C     |      413532 |
|     194 | 0x0CAB      |        3243 |
|     195 | 0xFFFC9A82  |  4294744706 |
|     196 | 0x659B4     |      416180 |
|     197 | 0x5EA5      |       24229 |
|     198 | 0x0F81      |        3969 |
|     199 | 0xFFFC98AA  |  4294744234 |
|     200 | 0x652D1     |      414417 |
|     201 | 0x0E85      |        3717 |
|     202 | 0x1EFD      |        7933 |
|     203 | 0x1EFE      |        7934 |
|     204 | 0x0993      |        2451 |
|     205 | 0x0991      |        2449 |
|     206 | 0x1EFF      |        7935 |
|     207 | 0x1F00      |        7936 |
|     208 | 0x1F01      |        7937 |
|     209 | 0x000F      |          15 |
|     210 | 0xFFFCA272  |  4294746738 |
|     211 | 0x6586B     |      415851 |
|     212 | 0x5EFF      |       24319 |
|     213 | 0x02FB      |         763 |
|     214 | 0xFFFC98AC  |  4294744236 |
|     215 | 0x64CC4     |      412868 |
|     216 | 0x0F58      |        3928 |
|     217 | 0xFFFCA10F  |  4294746383 |
|     218 | 0x650C2     |      413890 |
|     219 | 0x034C      |         844 |
|     220 | 0xFFFCA6B7  |  4294747831 |
|     221 | 0x64EF2     |      413426 |
|     222 | 0x5F41      |       24385 |
|     223 | 0x073A      |        1850 |
|     224 | 0xFFFC949E  |  4294743198 |
|     225 | 0x63BD3     |      408531 |
|     226 | 0x5FCB      |       24523 |
|     227 | 0x0474      |        1140 |
|     228 | 0x0409      |        1033 |
|     229 | 0x1F02      |        7938 |
|     230 | 0xFFFC9D9B  |  4294745499 |
|     231 | 0x64582     |      411010 |
|     232 | 0x0C29      |        3113 |
|     233 | 0x001E      |          30 |
|     234 | 0x1F03      |        7939 |
|     235 | 0x0073      |         115 |
|     236 | 0x0015      |          21 |
|     237 | 0x1F04      |        7940 |
|     238 | 0xFFFC5AC1  |  4294728385 |
|     239 | 0x62037     |      401463 |
|     240 | 0x05B7      |        1463 |
|     241 | 0xFFFC5641  |  4294727233 |
|     242 | 0x61A9A     |      400026 |
|     243 | 0x6046      |       24646 |
|     244 | 0x06C5      |        1733 |
|     245 | 0xFFFC5847  |  4294727751 |
|     246 | 0x61BA4     |      400292 |
|     247 | 0xFFFC617C  |  4294730108 |
|     248 | 0x61B1A     |      400154 |
|     249 | 0x0786      |        1926 |
|     250 | 0xFFFC552D  |  4294726957 |
|     251 | 0x61DE6     |      400870 |
|     252 | 0x6044      |       24644 |
|     253 | 0x0080      |         128 |
|     254 | 0x098A      |        2442 |
|     255 | 0x0A5D      |        2653 |
|     256 | 0x0A5B      |        2651 |
|     257 | 0x007F      |         127 |
|     258 | 0x1F05      |        7941 |
|     259 | 0x1F06      |        7942 |
|     260 | 0x1F07      |        7943 |
|     261 | 0x0515      |        1301 |
|     262 | 0x1F08      |        7944 |
|     263 | 0x1F09      |        7945 |
|     264 | 0x004B      |          75 |
|     265 | 0x1F0A      |        7946 |
|     266 | 0x1F0B      |        7947 |
|     267 | 0x1F0C      |        7948 |
|     268 | 0x1F0D      |        7949 |
|     269 | 0x1F0E      |        7950 |
|     270 | 0x1F0F      |        7951 |
|     271 | 0x00F0      |         240 |
|     272 | 0x1F10      |        7952 |
|     273 | 0x0A5E      |        2654 |
|     274 | 0x1F11      |        7953 |
|     275 | 0x1F12      |        7954 |
|     276 | 0x1F13      |        7955 |
|     277 | 0x0A5C      |        2652 |
|     278 | 0x1F14      |        7956 |
|     279 | 0x1F15      |        7957 |
|     280 | 0x1F16      |        7958 |
|     281 | 0x1F17      |        7959 |
|     282 | 0x1F18      |        7960 |
|     283 | 0xFFFC6ADF  |  4294732511 |
|     284 | 0x63349     |      406345 |
|     285 | 0x60A7      |       24743 |
|     286 | 0x09EC      |        2540 |
|     287 | 0xFFFC6FD7  |  4294733783 |
|     288 | 0x62E9A     |      405146 |
|     289 | 0x60B9      |       24761 |
|     290 | 0x09C8      |        2504 |
|     291 | 0xFFFC4DA7  |  4294725031 |
|     292 | 0x617C6     |      399302 |
|     293 | 0x6037      |       24631 |
|     294 | 0x0FF5      |        4085 |
|     295 | 0xFFFC4FDD  |  4294725597 |
|     296 | 0x61E40     |      400960 |
|     297 | 0x6031      |       24625 |
|     298 | 0x0194      |         404 |
|     299 | 0xFFFC677D  |  4294731645 |
|     300 | 0x61A92     |      400018 |
|     301 | 0x604F      |       24655 |
|     302 | 0x09D6      |        2518 |
|     303 | 0x61E4B     |      400971 |
|     304 | 0x0224      |         548 |
|     305 | 0x0168      |         360 |
|     306 | 0x1F19      |        7961 |
|     307 | 0x1F1A      |        7962 |
|     308 | 0x1F1B      |        7963 |
|     309 | 0x1F1C      |        7964 |
|     310 | 0x1F1D      |        7965 |
|     311 | 0x1F1E      |        7966 |
|     312 | 0x1F1F      |        7967 |
|     313 | 0x1F20      |        7968 |
|     314 | 0x00C9      |         201 |
|     315 | 0x1F21      |        7969 |
|     316 | 0x1F22      |        7970 |
|     317 | 0x00FC      |         252 |
|     318 | 0xFFFC5D19  |  4294728985 |
|     319 | 0x6BD80     |      441728 |
|     320 | 0x61A7      |       24999 |
|     321 | 0x06E5      |        1765 |
|     322 | 0xFFFC93C3  |  4294742979 |
|     323 | 0x65F04     |      417540 |
|     324 | 0x5E42      |       24130 |
|     325 | 0x06E4      |        1764 |
|     326 | 0xFFFC6883  |  4294731907 |
|     327 | 0x637DE     |      407518 |
|     328 | 0x60E9      |       24809 |
|     329 | 0x06DB      |        1755 |
|     330 | 0xFFFC4E0F  |  4294725135 |
|     331 | 0x62CAD     |      404653 |
|     332 | 0x6068      |       24680 |
|     333 | 0xFFFC484C  |  4294723660 |
|     334 | 0x62914     |      403732 |
|     335 | 0x6039      |       24633 |
|     336 | 0xFFFC57D7  |  4294727639 |
|     337 | 0x646D0     |      411344 |
|     338 | 0xFFFC533F  |  4294726463 |
|     339 | 0x65EAB     |      417451 |
|     340 | 0x099A      |        2458 |
|     341 | 0xFFFC863E  |  4294739518 |
|     342 | 0x63D66     |      408934 |
|     343 | 0x5F2D      |       24365 |
|     344 | 0x0B61      |        2913 |
|     345 | 0x01B5      |         437 |
|     346 | 0x00B4      |         180 |
|     347 | 0x1F23      |        7971 |
|     348 | 0x1F24      |        7972 |
|     349 | 0x001A      |          26 |
|     350 | 0x1F25      |        7973 |
|     351 | 0x1F26      |        7974 |
|     352 | 0x1F27      |        7975 |
|     353 | 0x1F28      |        7976 |
|     354 | 0x1F29      |        7977 |
|     355 | 0x1F2A      |        7978 |
|     356 | 0xFFFC6CE6  |  4294733030 |
|     357 | 0x64D90     |      413072 |
|     358 | 0x603C      |       24636 |
|     359 | 0x03A2      |         930 |
|     360 | 0xFFFC66AF  |  4294731439 |
|     361 | 0x644A6     |      410790 |
|     362 | 0x60FF      |       24831 |
|     363 | 0x0078      |         120 |
|     364 | 0x1F2B      |        7979 |
|     365 | 0x1F2C      |        7980 |
|     366 | 0x0003      |           3 |
|     367 | 0x0006      |           6 |
|     368 | 0x0008      |           8 |
|     369 | 0x1F2D      |        7981 |
|     370 | 0xFFFC5F16  |  4294729494 |
|     371 | 0x63969     |      407913 |
|     372 | 0x610E      |       24846 |
|     373 | 0x1F2E      |        7982 |
|     374 | 0x1F2F      |        7983 |
|     375 | 0x05D2      |        1490 |
|     376 | 0x05A0      |        1440 |
|     377 | 0x1F30      |        7984 |
|     378 | 0x090B      |        2315 |
|     379 | 0x098D      |        2445 |
|     380 | 0x0118      |         280 |
|     381 | 0x00A0      |         160 |
|     382 | 0x1F31      |        7985 |
|     383 | 0x1F32      |        7986 |
|     384 | 0xFFFC88C8  |  4294740168 |
|     385 | 0x64DD8     |      413144 |
|     386 | 0x5EB1      |       24241 |
|     387 | 0x0050      |          80 |
|     388 | 0x0019      |          25 |
|     389 | 0x1F33      |        7987 |
|     390 | 0xFFFCE2F1  |  4294763249 |
|     391 | 0x67029     |      421929 |
|     392 | 0x605B      |       24667 |
|     393 | 0x0ED8      |        3800 |
|     394 | 0x1F34      |        7988 |
|     395 | 0x1F35      |        7989 |
|     396 | 0x1F36      |        7990 |
|     397 | 0x0096      |         150 |
|     398 | 0x00DC      |         220 |
|     399 | 0x1F37      |        7991 |
|     400 | 0x00DD      |         221 |
|     401 | 0x019F      |         415 |
|     402 | 0x1F38      |        7992 |
|     403 | 0x1F39      |        7993 |
|     404 | 0x1F3A      |        7994 |
|     405 | 0xFFFC5157  |  4294725975 |
|     406 | 0x6B2D8     |      439000 |
|     407 | 0x0064      |         100 |
|     408 | 0xFFFC5537  |  4294726967 |
|     409 | 0x632BC     |      406204 |
|     410 | 0x60B7      |       24759 |
|     411 | 0x1F3B      |        7995 |

## String References

- **7915**: Truth is... [I seek the Cardinal Stags./I seek the Swiftwing Griffins./I've gone and lost my way.]

## Events

### Event 65535

#### Metadata

| Field        | Value   |
|--------------|---------|
| Entrypoint   | 0x0000  |
| Data Size    | 1 bytes |
| Instructions | 1       |

```
      00 01 02 03 04 05 06 07  08 09 0A 0B 0C 0D 0E 0F
      -- -- -- -- -- -- -- --  -- -- -- -- -- -- -- --
0000: 00                                                .               
```

#### Opcodes

```
  0: 0x0000 [0x00] END_REQSTACK()
```

### Event 105

#### Metadata

| Field        | Value      |
|--------------|------------|
| Entrypoint   | 0x0001     |
| Data Size    | 5849 bytes |
| Instructions | 656        |

```
      00 01 02 03 04 05 06 07  08 09 0A 0B 0C 0D 0E 0F
      -- -- -- -- -- -- -- --  -- -- -- -- -- -- -- --
0000:    42 20 01 46 01 1A B9  28 38 00 80 4E 00 F0 FF   B .F...(8..N...
0010: FF 7F 4E 00 0A A3 05 01  4E 00 0C A3 05 01 4E 00  ..N.....N.....N.
0020: 0D A3 05 01 4E 00 0B A3  05 01 4E 00 0E A3 05 01  ....N.....N.....
0030: 4E 00 0F A3 05 01 4E 00  10 A3 05 01 4E 00 11 A3  N.....N.....N...
0040: 05 01 4E 00 12 A3 05 01  4E 00 13 A3 05 01 4E 00  ..N.....N.....N.
0050: 14 A3 05 01 4E 00 15 A3  05 01 4E 00 16 A3 05 01  ....N.....N.....
0060: 4E 00 17 A3 05 01 4E 00  18 A3 05 01 92 01 0A A3  N.....N.........
0070: 05 01 92 01 0C A3 05 01  92 01 0D A3 05 01 92 01  ................
0080: 0B A3 05 01 92 01 0E A3  05 01 92 01 0F A3 05 01  ................
0090: 92 01 10 A3 05 01 92 01  11 A3 05 01 92 01 12 A3  ................
00A0: 05 01 92 01 13 A3 05 01  92 01 14 A3 05 01 92 01  ................
00B0: 15 A3 05 01 92 01 16 A3  05 01 92 01 17 A3 05 01  ................
00C0: 92 01 18 A3 05 01 79 00  F0 FF FF 7F F0 FF FF 7F  ......y.........
00D0: 94 01 0A A3 05 01 94 01  0C A3 05 01 94 01 0D A3  ................
00E0: 05 01 94 01 0B A3 05 01  94 01 0E A3 05 01 94 01  ................
00F0: 0F A3 05 01 94 01 10 A3  05 01 94 01 11 A3 05 01  ................
0100: 94 01 12 A3 05 01 94 01  13 A3 05 01 94 01 14 A3  ................
0110: 05 01 94 01 15 A3 05 01  94 01 16 A3 05 01 94 01  ................
0120: 17 A3 05 01 94 01 18 A3  05 01 BA F0 FF FF 7F 01  ................
0130: 80 02 80 03 80 04 80 BA  0E A3 05 01 05 80 06 80  ................
0140: 07 80 08 80 BA 0A A3 05  01 09 80 0A 80 0B 80 0C  ................
0150: 80 BA 0B A3 05 01 0D 80  0E 80 0F 80 10 80 BA 0F  ................
0160: A3 05 01 11 80 12 80 13  80 14 80 BA 10 A3 05 01  ................
0170: 15 80 16 80 17 80 18 80  BA 11 A3 05 01 19 80 1A  ................
0180: 80 1B 80 1C 80 BA 12 A3  05 01 1D 80 1E 80 1F 80  ................
0190: 20 80 BA 13 A3 05 01 21  80 22 80 23 80 24 80 BA   ......!.".#.$..
01A0: 14 A3 05 01 25 80 26 80  27 80 28 80 BA 15 A3 05  ....%.&.'.(.....
01B0: 01 29 80 2A 80 2B 80 2C  80 BA 16 A3 05 01 2D 80  .).*.+.,......-.
01C0: 2E 80 2F 80 30 80 BA 17  A3 05 01 31 80 32 80 33  ../.0......1.2.3
01D0: 80 34 80 BA 18 A3 05 01  35 80 35 80 36 80 35 80  .4......5.5.6.5.
01E0: 80 0A A3 05 01 80 0C A3  05 01 80 0D A3 05 01 80  ................
01F0: 0B A3 05 01 80 0E A3 05  01 80 0F A3 05 01 80 10  ................
0200: A3 05 01 80 11 A3 05 01  80 12 A3 05 01 80 13 A3  ................
0210: 05 01 80 14 A3 05 01 80  15 A3 05 01 80 16 A3 05  ................
0220: 01 80 17 A3 05 01 80 18  A3 05 01 59 05 0C A3 05  ...........Y....
0230: 01 01 59 05 0D A3 05 01  01 45 37 80 F8 FF FF 7F  ..Y......E7.....
0240: F8 FF FF 7F 73 30 37 36  35 80 45 38 80 F8 FF FF  ....s0765.E8....
0250: 7F F8 FF FF 7F 66 64 69  32 35 80 03 25 10 39 80  .....fdi25..%.9.
0260: 03 27 10 3A 80 03 26 10  2B 80 03 28 10 3B 80 29  .'.:..&.+..(.;.)
0270: 0F F0 FF FF 7F 02 55 37  80 F8 FF FF 7F F8 FF FF  ......U7........
0280: 7F 73 30 37 36 45 37 80  F8 FF FF 7F F8 FF FF 7F  .s076E7.........
0290: 73 30 37 37 35 80 4A 0E  A3 05 01 F0 FF FF 7F 4A  s0775.J........J
02A0: F0 FF FF 7F 0E A3 05 01  7B F0 FF FF 7F 7B 0E A3  ........{....{..
02B0: 05 01 6F 76 0E A3 05 01  1C 3C 80 2B 0E A3 05 01  ..ov.....<.+....
02C0: 3D 80 23 52 37 80 F8 FF  FF 7F F8 FF FF 7F 73 30  =.#R7.........s0
02D0: 37 37 45 37 80 F8 FF FF  7F F8 FF FF 7F 73 30 37  77E7.........s07
02E0: 38 35 80 2B 0E A3 05 01  3E 80 23 52 37 80 F8 FF  85.+....>.#R7...
02F0: FF 7F F8 FF FF 7F 73 30  37 38 45 37 80 F8 FF FF  ......s078E7....
0300: 7F F8 FF FF 7F 73 30 37  39 35 80 4A 0A A3 05 01  .....s0795.J....
0310: F0 FF FF 7F 7B 0A A3 05  01 6F 76 0A A3 05 01 BA  ....{....ov.....
0320: F0 FF FF 7F 3F 80 40 80  41 80 42 80 BA 0E A3 05  ....?.@.A.B.....
0330: 01 43 80 44 80 45 80 46  80 4A F0 FF FF 7F 0E A3  .C.D.E.F.J......
0340: 05 01 4A 0E A3 05 01 F0  FF FF 7F 7B F0 FF FF 7F  ..J........{....
0350: 7B 0E A3 05 01 2B 0A A3  05 01 47 80 23 6F 76 F0  {....+....G.#ov.
0360: FF FF 7F 6F 76 0E A3 05  01 52 37 80 F8 FF FF 7F  ...ov....R7.....
0370: F8 FF FF 7F 73 30 37 39  45 37 80 F8 FF FF 7F F8  ....s079E7......
0380: FF FF 7F 73 30 38 30 35  80 55 37 80 F8 FF FF 7F  ...s0805.U7.....
0390: F8 FF FF 7F 73 30 38 30  45 37 80 F8 FF FF 7F F8  ....s080E7......
03A0: FF FF 7F 73 30 38 31 35  80 81 00 0A A3 05 01 7C  ...s0815.......|
03B0: 00 0A A3 05 01 4B F0 FF  FF 7F 48 80 5B 49 80 0A  .....K....H.[I..
03C0: A3 05 01 0A A3 05 01 62  69 6B 30 2B 0A A3 05 01  .......bik0+....
03D0: 4A 80 23 81 01 0A A3 05  01 7C 01 0A A3 05 01 6F  J.#......|.....o
03E0: 76 F0 FF FF 7F 52 37 80  F8 FF FF 7F F8 FF FF 7F  v....R7.........
03F0: 73 30 38 31 45 37 80 F8  FF FF 7F F8 FF FF 7F 73  s081E7.........s
0400: 30 38 32 35 80 1C 4B 80  BA 0A A3 05 01 4C 80 4D  0825..K......L.M
0410: 80 4E 80 4F 80 BA 0B A3  05 01 50 80 51 80 52 80  .N.O......P.Q.R.
0420: 53 80 03 25 10 54 80 03  27 10 55 80 03 26 10 56  S..%.T..'.U..&.V
0430: 80 03 28 10 57 80 29 0F  0A A3 05 01 01 4A 0A A3  ..(.W.)......J..
0440: 05 01 F0 FF FF 7F 7B 0A  A3 05 01 6F 76 0A A3 05  ......{....ov...
0450: 01 79 00 0E A3 05 01 0A  A3 05 01 2B 0E A3 05 01  .y.........+....
0460: 58 80 23 5B 59 80 0A A3  05 01 0A A3 05 01 74 6C  X.#[Y.........tl
0470: 73 30 2B 0A A3 05 01 5A  80 23 03 25 10 5B 80 03  s0+....Z.#.%.[..
0480: 27 10 5C 80 03 26 10 5D  80 03 28 10 5E 80 27 0F  '.\..&.]..(.^.'.
0490: 0B A3 05 01 02 5B 59 80  0A A3 05 01 0A A3 05 01  .....[Y.........
04A0: 74 6C 73 31 2B 0B A3 05  01 5F 80 23 2A 0F 0B A3  tls1+...._.#*...
04B0: 05 01 52 37 80 F8 FF FF  7F F8 FF FF 7F 73 30 38  ..R7.........s08
04C0: 32 45 37 80 F8 FF FF 7F  F8 FF FF 7F 73 30 38 34  2E7.........s084
04D0: 35 80 4A 0B A3 05 01 F0  FF FF 7F 4A F0 FF FF 7F  5.J........J....
04E0: 0B A3 05 01 7B 0B A3 05  01 7B F0 FF FF 7F 6F 76  ....{....{....ov
04F0: 0B A3 05 01 7B 0E A3 05  01 2B 0B A3 05 01 60 80  ....{....+....`.
0500: 23 2B 0B A3 05 01 61 80  23 52 37 80 F8 FF FF 7F  #+....a.#R7.....
0510: F8 FF FF 7F 73 30 38 34  6E F0 FF FF 7F 62 80 99  ....s084n....b..
0520: F0 FF FF 7F 45 37 80 F8  FF FF 7F F8 FF FF 7F 73  ....E7.........s
0530: 30 38 35 35 80 24 63 80  35 80 00 00 25 02 00 10  0855.$c.5...%...
0540: 35 80 00 A0 05 52 37 80  F8 FF FF 7F F8 FF FF 7F  5....R7.........
0550: 73 30 38 35 45 37 80 F8  FF FF 7F F8 FF FF 7F 73  s085E7.........s
0560: 30 38 36 35 80 66 64 80  0B A3 05 01 0B A3 05 01  0865.fd.........
0570: 74 6C 6B 30 2B 0B A3 05  01 65 80 23 66 64 80 0B  tlk0+....e.#fd..
0580: A3 05 01 0B A3 05 01 74  6C 6B 31 1A B9 28 52 37  .......tlk1..(R7
0590: 80 F8 FF FF 7F F8 FF FF  7F 73 30 38 36 01 12 07  .........s086...
05A0: 02 00 10 66 80 00 82 06  52 37 80 F8 FF FF 7F F8  ...f....R7......
05B0: FF FF 7F 73 30 38 35 45  37 80 F8 FF FF 7F F8 FF  ...s085E7.......
05C0: FF 7F 73 30 38 33 35 80  2B 0B A3 05 01 67 80 23  ..s0835.+....g.#
05D0: 52 37 80 F8 FF FF 7F F8  FF FF 7F 73 30 38 33 45  R7.........s083E
05E0: 37 80 F8 FF FF 7F F8 FF  FF 7F 73 30 38 37 35 80  7.........s0875.
05F0: 81 00 0A A3 05 01 5B 68  80 0A A3 05 01 0A A3 05  ......[h........
0600: 01 74 68 62 30 2B 0A A3  05 01 69 80 23 5B 68 80  .thb0+....i.#[h.
0610: 0A A3 05 01 0A A3 05 01  74 68 62 31 81 01 0A A3  ........thb1....
0620: 05 01 52 37 80 F8 FF FF  7F F8 FF FF 7F 73 30 38  ..R7.........s08
0630: 37 45 37 80 F8 FF FF 7F  F8 FF FF 7F 73 31 33 35  7E7.........s135
0640: 35 80 66 64 80 0E A3 05  01 0E A3 05 01 74 6C 6B  5.fd.........tlk
0650: 30 2B 0E A3 05 01 6A 80  23 66 64 80 0E A3 05 01  0+....j.#fd.....
0660: 0E A3 05 01 74 6C 6B 31  52 37 80 F8 FF FF 7F F8  ....tlk1R7......
0670: FF FF 7F 73 31 33 35 0E  00 00 6B 80 01 24 05 01  ...s135...k..$..
0680: 12 07 02 00 10 6B 80 00  12 07 52 37 80 F8 FF FF  .....k....R7....
0690: 7F F8 FF FF 7F 73 30 38  35 45 37 80 F8 FF FF 7F  .....s085E7.....
06A0: F8 FF FF 7F 73 30 38 38  35 80 66 64 80 0B A3 05  ....s0885.fd....
06B0: 01 0B A3 05 01 74 6C 6B  30 2B 0B A3 05 01 6C 80  .....tlk0+....l.
06C0: 23 66 64 80 0B A3 05 01  0B A3 05 01 74 6C 6B 31  #fd.........tlk1
06D0: 52 37 80 F8 FF FF 7F F8  FF FF 7F 73 30 38 38 45  R7.........s088E
06E0: 37 80 F8 FF FF 7F F8 FF  FF 7F 73 30 38 39 35 80  7.........s0895.
06F0: 2B 0A A3 05 01 6D 80 23  52 37 80 F8 FF FF 7F F8  +....m.#R7......
0700: FF FF 7F 73 30 38 39 0E  00 00 6E 80 01 24 05 01  ...s089...n..$..
0710: 12 07 BA F0 FF FF 7F 6F  80 70 80 71 80 72 80 BA  .......o.p.q.r..
0720: 0E A3 05 01 73 80 74 80  75 80 76 80 BA 0A A3 05  ....s.t.u.v.....
0730: 01 77 80 78 80 79 80 7A  80 BA 0B A3 05 01 7B 80  .w.x.y.z......{.
0740: 7C 80 17 80 7D 80 BA 0F  A3 05 01 7E 80 7F 80 17  |...}......~....
0750: 80 80 80 BA 10 A3 05 01  81 80 82 80 17 80 83 80  ................
0760: BA 11 A3 05 01 84 80 85  80 75 80 86 80 BA 14 A3  .........u......
0770: 05 01 87 80 88 80 89 80  8A 80 BA 12 A3 05 01 8B  ................
0780: 80 8C 80 75 80 8D 80 BA  13 A3 05 01 8E 80 8F 80  ...u............
0790: 90 80 91 80 BA 15 A3 05  01 92 80 93 80 94 80 95  ................
07A0: 80 BA 16 A3 05 01 96 80  97 80 03 80 98 80 BA 17  ................
07B0: A3 05 01 99 80 9A 80 9B  80 9C 80 4A F0 FF FF 7F  ...........J....
07C0: 0B A3 05 01 4A 0B A3 05  01 F0 FF FF 7F 4A 0E A3  ....J........J..
07D0: 05 01 0B A3 05 01 4A 0A  A3 05 01 F0 FF FF 7F 4A  ......J........J
07E0: 0F A3 05 01 10 A3 05 01  4A 10 A3 05 01 0F A3 05  ........J.......
07F0: 01 7B F0 FF FF 7F 7B 0B  A3 05 01 7B 0E A3 05 01  .{....{....{....
0800: 7B 0A A3 05 01 7B 0F A3  05 01 7B 10 A3 05 01 6F  {....{....{....o
0810: 76 F0 FF FF 7F 5C 00 9D  80 5C 01 9D 80 9A 45 38  v....\...\....E8
0820: 80 F8 FF FF 7F F8 FF FF  7F 66 64 69 32 35 80 45  .........fdi25.E
0830: 37 80 F8 FF FF 7F F8 FF  FF 7F 73 30 39 30 35 80  7.........s0905.
0840: 2B 0B A3 05 01 9E 80 23  2B 0E A3 05 01 9F 80 23  +......#+......#
0850: 79 00 0B A3 05 01 0E A3  05 01 2B 0B A3 05 01 A0  y.........+.....
0860: 80 23 52 37 80 F8 FF FF  7F F8 FF FF 7F 73 30 39  .#R7.........s09
0870: 30 45 37 80 F8 FF FF 7F  F8 FF FF 7F 73 30 39 31  0E7.........s091
0880: 35 80 4A 0E A3 05 01 0A  A3 05 01 7B 0E A3 05 01  5.J........{....
0890: 2B 0A A3 05 01 A1 80 23  6F 76 0E A3 05 01 52 37  +......#ov....R7
08A0: 80 F8 FF FF 7F F8 FF FF  7F 73 30 39 31 4A 0A A3  .........s091J..
08B0: 05 01 0E A3 05 01 45 37  80 F8 FF FF 7F F8 FF FF  ......E7........
08C0: 7F 73 30 39 32 35 80 66  64 80 0E A3 05 01 0E A3  .s0925.fd.......
08D0: 05 01 74 6C 6B 30 2B 0E  A3 05 01 A2 80 23 66 64  ..tlk0+......#fd
08E0: 80 0E A3 05 01 0E A3 05  01 74 6C 6B 31 52 37 80  .........tlk1R7.
08F0: F8 FF FF 7F F8 FF FF 7F  73 30 39 32 45 37 80 F8  ........s092E7..
0900: FF FF 7F F8 FF FF 7F 73  30 39 33 35 80 7B 0A A3  .......s0935.{..
0910: 05 01 6F 76 0A A3 05 01  5B 59 80 0A A3 05 01 0A  ..ov....[Y......
0920: A3 05 01 74 6C 73 30 2B  0A A3 05 01 A3 80 23 5B  ...tls0+......#[
0930: 59 80 0A A3 05 01 0A A3  05 01 74 6C 73 31 4A 0E  Y.........tls1J.
0940: A3 05 01 0B A3 05 01 52  37 80 F8 FF FF 7F F8 FF  .......R7.......
0950: FF 7F 73 30 39 33 45 37  80 F8 FF FF 7F F8 FF FF  ..s093E7........
0960: 7F 73 30 39 34 35 80 7B  0E A3 05 01 6F 76 0E A3  .s0945.{....ov..
0970: 05 01 2B 0B A3 05 01 A4  80 23 7B 0B A3 05 01 2B  ..+......#{....+
0980: 0B A3 05 01 A5 80 23 BA  0C A3 05 01 A6 80 A7 80  ......#.........
0990: A8 80 A9 80 BA 0D A3 05  01 A6 80 A7 80 A8 80 A9  ................
09A0: 80 5B AA 80 0D A3 05 01  0D A3 05 01 00 FE FE FE  .[..............
09B0: 5B AB 80 0C A3 05 01 0C  A3 05 01 00 FE FE FE 52  [..............R
09C0: 37 80 F8 FF FF 7F F8 FF  FF 7F 73 30 39 34 45 37  7.........s094E7
09D0: 80 F8 FF FF 7F F8 FF FF  7F 73 30 39 35 35 80 5C  .........s0955.\
09E0: 00 35 80 5C 01 35 80 9A  1C 3C 80 5B AA 80 0D A3  .5.\.5...<.[....
09F0: 05 01 0D A3 05 01 68 69  6E 6C 5B AB 80 0C A3 05  ......hinl[.....
0A00: 01 0C A3 05 01 68 69 6E  6C 2B 18 A3 05 01 AC 80  .....hinl+......
0A10: 23 4A F0 FF FF 7F 0C A3  05 01 7B F0 FF FF 7F 1C  #J........{.....
0A20: 3C 80 52 37 80 F8 FF FF  7F F8 FF FF 7F 73 30 39  <.R7.........s09
0A30: 35 45 37 80 F8 FF FF 7F  F8 FF FF 7F 73 30 39 36  5E7.........s096
0A40: 35 80 5B AA 80 0D A3 05  01 0D A3 05 01 68 69 6E  5.[..........hin
0A50: 30 5B AB 80 0C A3 05 01  0C A3 05 01 68 69 6E 30  0[..........hin0
0A60: 1C AD 80 4A 0B A3 05 01  0C A3 05 01 4A 0E A3 05  ...J........J...
0A70: 01 0C A3 05 01 7B 0B A3  05 01 7B 0E A3 05 01 55  .....{....{....U
0A80: 37 80 F8 FF FF 7F F8 FF  FF 7F 73 30 39 36 45 37  7.........s096E7
0A90: 80 F8 FF FF 7F F8 FF FF  7F 73 30 39 37 35 80 03  .........s0975..
0AA0: 25 10 AE 80 03 27 10 AF  80 03 26 10 B0 80 03 28  %....'....&....(
0AB0: 10 B1 80 29 0F 0A A3 05  01 01 5B 59 80 0A A3 05  ...)......[Y....
0AC0: 01 0A A3 05 01 74 6C 73  30 2B 0A A3 05 01 B2 80  .....tls0+......
0AD0: 23 5B 59 80 0A A3 05 01  0A A3 05 01 74 6C 73 31  #[Y.........tls1
0AE0: 52 37 80 F8 FF FF 7F F8  FF FF 7F 73 30 39 37 45  R7.........s097E
0AF0: 37 80 F8 FF FF 7F F8 FF  FF 7F 73 30 39 38 35 80  7.........s0985.
0B00: 5B AA 80 0D A3 05 01 0D  A3 05 01 68 69 6E 31 5B  [..........hin1[
0B10: AB 80 0C A3 05 01 0C A3  05 01 68 69 6E 31 2B 0C  ..........hin1+.
0B20: A3 05 01 B3 80 23 BA F0  FF FF 7F B4 80 B5 80 B6  .....#..........
0B30: 80 B7 80 BA 0B A3 05 01  B8 80 B9 80 BA 80 BB 80  ................
0B40: BA 0A A3 05 01 BC 80 BD  80 BE 80 BF 80 52 37 80  .............R7.
0B50: F8 FF FF 7F F8 FF FF 7F  73 30 39 38 45 37 80 F8  ........s098E7..
0B60: FF FF 7F F8 FF FF 7F 73  30 39 39 35 80 03 25 10  .......s0995..%.
0B70: C0 80 03 27 10 C1 80 03  26 10 A8 80 03 28 10 C2  ...'....&....(..
0B80: 80 27 0F 0A A3 05 01 01  1C 4B 80 03 25 10 C3 80  .'.......K..%...
0B90: 03 27 10 C4 80 03 26 10  C5 80 03 28 10 C6 80 27  .'....&....(...'
0BA0: 0F F0 FF FF 7F 01 1C 4B  80 03 25 10 C7 80 03 27  .......K..%....'
0BB0: 10 C8 80 03 26 10 A8 80  03 28 10 C9 80 27 0F 0B  ....&....(...'..
0BC0: A3 05 01 02 2A 0F 0A A3  05 01 4A 0A A3 05 01 0C  ....*.....J.....
0BD0: A3 05 01 7B 0A A3 05 01  2A 0F F0 FF FF 7F 4A F0  ...{....*.....J.
0BE0: FF FF 7F 0C A3 05 01 7B  F0 FF FF 7F 6F 76 F0 FF  .......{....ov..
0BF0: FF 7F 6F 76 0A A3 05 01  55 37 80 F8 FF FF 7F F8  ..ov....U7......
0C00: FF FF 7F 73 30 39 39 45  37 80 F8 FF FF 7F F8 FF  ...s099E7.......
0C10: FF 7F 73 31 30 30 35 80  2B 0A A3 05 01 CA 80 23  ..s1005.+......#
0C20: 81 00 0D A3 05 01 5B AA  80 0D A3 05 01 0D A3 05  ......[.........
0C30: 01 68 69 6E 32 5B AB 80  0C A3 05 01 0C A3 05 01  .hin2[..........
0C40: 68 69 6E 32 2B 0C A3 05  01 CB 80 23 53 0D A3 05  hin2+......#S...
0C50: 01 0D A3 05 01 68 69 6E  32 53 0C A3 05 01 0C A3  .....hin2S......
0C60: 05 01 68 69 6E 32 5B CC  80 0D A3 05 01 0D A3 05  ..hin2[.........
0C70: 01 68 69 6E 33 5B CD 80  0C A3 05 01 0C A3 05 01  .hin3[..........
0C80: 68 69 6E 33 2B 0D A3 05  01 CE 80 23 52 37 80 F8  hin3+......#R7..
0C90: FF FF 7F F8 FF FF 7F 73  31 30 30 45 37 80 F8 FF  .......s100E7...
0CA0: FF 7F F8 FF FF 7F 73 31  30 31 35 80 2B 0D A3 05  ......s1015.+...
0CB0: 01 CF 80 23 52 37 80 F8  FF FF 7F F8 FF FF 7F 73  ...#R7.........s
0CC0: 31 30 31 45 37 80 F8 FF  FF 7F F8 FF FF 7F 73 31  101E7.........s1
0CD0: 30 32 35 80 2B 0D A3 05  01 D0 80 23 55 37 80 F8  025.+......#U7..
0CE0: FF FF 7F F8 FF FF 7F 73  31 30 32 45 37 80 F8 FF  .......s102E7...
0CF0: FF 7F F8 FF FF 7F 73 31  30 33 35 80 1C D1 80 BA  ......s1035.....
0D00: F0 FF FF 7F D2 80 D3 80  D4 80 D5 80 BA 0A A3 05  ................
0D10: 01 D6 80 D7 80 A8 80 D8  80 BA 18 A3 05 01 D9 80  ................
0D20: DA 80 A8 80 DB 80 BA 0C  A3 05 01 DC 80 DD 80 DE  ................
0D30: 80 DF 80 BA 0D A3 05 01  DC 80 DD 80 DE 80 DF 80  ................
0D40: BA 0E A3 05 01 E0 80 E1  80 E2 80 E3 80 4B F0 FF  .............K..
0D50: FF 7F E4 80 4A 0A A3 05  01 0C A3 05 01 4A F0 FF  ....J........J..
0D60: FF 7F 18 A3 05 01 7B 0A  A3 05 01 55 37 80 F8 FF  ......{....U7...
0D70: FF 7F F8 FF FF 7F 73 31  30 33 2B 0B A3 05 01 E5  ......s103+.....
0D80: 80 23 03 25 10 E6 80 03  27 10 E7 80 03 26 10 A8  .#.%....'....&..
0D90: 80 03 28 10 E8 80 27 10  0E A3 05 01 02 1C E9 80  ..(...'.........
0DA0: 45 37 80 F8 FF FF 7F F8  FF FF 7F 73 31 31 31 35  E7.........s1115
0DB0: 80 1C 3C 80 2B 0E A3 05  01 EA 80 23 52 37 80 F8  ..<.+......#R7..
0DC0: FF FF 7F F8 FF FF 7F 73  31 31 31 45 37 80 F8 FF  .......s111E7...
0DD0: FF 7F F8 FF FF 7F 73 31  30 34 35 80 6C 0E A3 05  ......s1045.l...
0DE0: 01 35 80 66 80 C5 EB 80  0D A3 05 01 0D A3 05 01  .5.f............
0DF0: 73 30 30 30 35 80 5B CC  80 0D A3 05 01 0D A3 05  s0005.[.........
0E00: 01 68 69 6E 34 5B CD 80  0C A3 05 01 0C A3 05 01  .hin4[..........
0E10: 68 69 6E 34 55 37 80 F8  FF FF 7F F8 FF FF 7F 73  hin4U7.........s
0E20: 31 30 34 45 37 80 F8 FF  FF 7F F8 FF FF 7F 73 31  104E7.........s1
0E30: 30 35 35 80 5B 49 80 0A  A3 05 01 0A A3 05 01 62  055.[I.........b
0E40: 69 6B 30 55 37 80 F8 FF  FF 7F F8 FF FF 7F 73 31  ik0U7.........s1
0E50: 30 35 6E F0 FF FF 7F EC  80 99 F0 FF FF 7F 99 F0  05n.............
0E60: FF FF 7F 45 37 80 F8 FF  FF 7F F8 FF FF 7F 73 31  ...E7.........s1
0E70: 30 36 35 80 55 37 80 F8  FF FF 7F F8 FF FF 7F 73  065.U7.........s
0E80: 31 30 36 45 37 80 F8 FF  FF 7F F8 FF FF 7F 73 31  106E7.........s1
0E90: 30 37 35 80 2B 0C A3 05  01 ED 80 23 7B F0 FF FF  075.+......#{...
0EA0: 7F 1A B9 28 52 37 80 F8  FF FF 7F F8 FF FF 7F 73  ...(R7.........s
0EB0: 31 30 37 BA F0 FF FF 7F  EE 80 EF 80 2B 80 F0 80  107.........+...
0EC0: BA 0C A3 05 01 F1 80 F2  80 F3 80 F4 80 BA 0D A3  ................
0ED0: 05 01 F1 80 F2 80 F3 80  F4 80 BA 18 A3 05 01 F5  ................
0EE0: 80 F6 80 2B 80 F0 80 BA  0B A3 05 01 F7 80 F8 80  ...+............
0EF0: 2B 80 F9 80 BA 0A A3 05  01 FA 80 FB 80 FC 80 8A  +...............
0F00: 80 BA 0E A3 05 01 35 80  35 80 36 80 35 80 BA 0F  ......5.5.6.5...
0F10: A3 05 01 35 80 35 80 36  80 35 80 BA 10 A3 05 01  ...5.5.6.5......
0F20: 35 80 35 80 36 80 35 80  BA 11 A3 05 01 35 80 35  5.5.6.5......5.5
0F30: 80 36 80 35 80 BA 14 A3  05 01 35 80 35 80 36 80  .6.5......5.5.6.
0F40: 35 80 BA 12 A3 05 01 35  80 35 80 36 80 35 80 BA  5......5.5.6.5..
0F50: 13 A3 05 01 35 80 35 80  36 80 35 80 BA 15 A3 05  ....5.5.6.5.....
0F60: 01 35 80 35 80 36 80 35  80 BA 16 A3 05 01 35 80  .5.5.6.5......5.
0F70: 35 80 36 80 35 80 BA 17  A3 05 01 35 80 35 80 36  5.6.5......5.5.6
0F80: 80 35 80 4A F0 FF FF 7F  18 A3 05 01 4A 0B A3 05  .5.J........J...
0F90: 01 18 A3 05 01 6C 0E A3  05 01 FD 80 66 80 5B FE  .....l......f.[.
0FA0: 80 0A A3 05 01 0A A3 05  01 73 68 63 6C 5B FF 80  .........shcl[..
0FB0: 0D A3 05 01 0D A3 05 01  6D 6F 64 30 5B 00 81 0C  ........mod0[...
0FC0: A3 05 01 0C A3 05 01 6D  6F 64 30 81 00 0D A3 05  .......mod0.....
0FD0: 01 5C 00 01 81 5C 01 01  81 9A 45 38 80 F8 FF FF  .\...\....E8....
0FE0: 7F F8 FF FF 7F 66 64 69  32 35 80 45 37 80 F8 FF  .....fdi25.E7...
0FF0: FF 7F F8 FF FF 7F 73 31  30 38 35 80 5B FE 80 0A  ......s1085.[...
1000: A3 05 01 0A A3 05 01 73  68 63 30 2B 0A A3 05 01  .......shc0+....
1010: 02 81 23 52 37 80 F8 FF  FF 7F F8 FF FF 7F 73 31  ..#R7.........s1
1020: 30 38 45 37 80 F8 FF FF  7F F8 FF FF 7F 73 31 30  08E7.........s10
1030: 39 35 80 5B FF 80 0D A3  05 01 0D A3 05 01 6D 74  95.[..........mt
1040: 6C 30 2B 0D A3 05 01 03  81 23 2B 0D A3 05 01 04  l0+......#+.....
1050: 81 23 53 0A A3 05 01 0A  A3 05 01 73 68 63 30 5B  .#S........shc0[
1060: 05 81 0A A3 05 01 0A A3  05 01 73 68 61 31 2B 0A  ..........sha1+.
1070: A3 05 01 06 81 23 52 37  80 F8 FF FF 7F F8 FF FF  .....#R7........
1080: 7F 73 31 30 39 45 37 80  F8 FF FF 7F F8 FF FF 7F  .s109E7.........
1090: 73 31 31 30 35 80 2B 0D  A3 05 01 07 81 23 5B 05  s1105.+......#[.
10A0: 81 0A A3 05 01 0A A3 05  01 73 68 61 30 1C 08 81  .........sha0...
10B0: 5B FE 80 0A A3 05 01 0A  A3 05 01 73 68 62 30 1C  [..........shb0.
10C0: E9 80 5B FE 80 0A A3 05  01 0A A3 05 01 73 68 63  ..[..........shc
10D0: 30 2B 0A A3 05 01 09 81  23 52 37 80 F8 FF FF 7F  0+......#R7.....
10E0: F8 FF FF 7F 73 31 31 30  45 37 80 F8 FF FF 7F F8  ....s110E7......
10F0: FF FF 7F 73 31 31 35 35  80 2B 0D A3 05 01 0A 81  ...s1155.+......
1100: 23 52 37 80 F8 FF FF 7F  F8 FF FF 7F 73 31 31 35  #R7.........s115
1110: 45 37 80 F8 FF FF 7F F8  FF FF 7F 73 31 31 36 35  E7.........s1165
1120: 80 5B FE 80 0A A3 05 01  0A A3 05 01 73 68 63 31  .[..........shc1
1130: 2B 0A A3 05 01 0B 81 23  52 37 80 F8 FF FF 7F F8  +......#R7......
1140: FF FF 7F 73 31 31 36 45  37 80 F8 FF FF 7F F8 FF  ...s116E7.......
1150: FF 7F 73 31 31 37 35 80  5B FF 80 0D A3 05 01 0D  ..s1175.[.......
1160: A3 05 01 6D 74 6C 31 2B  0D A3 05 01 0C 81 23 52  ...mtl1+......#R
1170: 37 80 F8 FF FF 7F F8 FF  FF 7F 73 31 31 37 45 37  7.........s117E7
1180: 80 F8 FF FF 7F F8 FF FF  7F 73 31 31 38 35 80 2B  .........s1185.+
1190: 0C A3 05 01 0D 81 23 52  37 80 F8 FF FF 7F F8 FF  ......#R7.......
11A0: FF 7F 73 31 31 38 45 37  80 F8 FF FF 7F F8 FF FF  ..s118E7........
11B0: 7F 73 31 31 39 35 80 7C  00 0D A3 05 01 5B FF 80  .s1195.|.....[..
11C0: 0D A3 05 01 0D A3 05 01  6D 74 6C 32 2B 0D A3 05  ........mtl2+...
11D0: 01 0E 81 23 52 37 80 F8  FF FF 7F F8 FF FF 7F 73  ...#R7.........s
11E0: 31 31 39 5D 35 80 0F 81  45 37 80 F8 FF FF 7F F8  119]5...E7......
11F0: FF FF 7F 73 31 32 30 35  80 2B 0C A3 05 01 10 81  ...s1205.+......
1200: 23 52 37 80 F8 FF FF 7F  F8 FF FF 7F 73 31 32 30  #R7.........s120
1210: 45 37 80 F8 FF FF 7F F8  FF FF 7F 73 31 32 31 35  E7.........s1215
1220: 80 81 00 0A A3 05 01 5B  FE 80 0A A3 05 01 0A A3  .......[........
1230: 05 01 73 68 63 32 55 37  80 F8 FF FF 7F F8 FF FF  ..shc2U7........
1240: 7F 73 31 32 31 45 38 80  F8 FF FF 7F F8 FF FF 7F  .s121E8.........
1250: 66 64 69 32 35 80 45 37  80 F8 FF FF 7F F8 FF FF  fdi25.E7........
1260: 7F 73 31 32 32 35 80 5B  11 81 0D A3 05 01 0D A3  .s1225.[........
1270: 05 01 6D 6F 64 31 5B 00  81 0C A3 05 01 0C A3 05  ..mod1[.........
1280: 01 6D 6F 64 31 2B 0C A3  05 01 12 81 23 55 37 80  .mod1+......#U7.
1290: F8 FF FF 7F F8 FF FF 7F  73 31 32 32 45 37 80 F8  ........s122E7..
12A0: FF FF 7F F8 FF FF 7F 73  31 32 33 35 80 2B 0C A3  .......s1235.+..
12B0: 05 01 13 81 23 52 37 80  F8 FF FF 7F F8 FF FF 7F  ....#R7.........
12C0: 73 31 32 33 45 37 80 F8  FF FF 7F F8 FF FF 7F 73  s123E7.........s
12D0: 31 32 34 35 80 5B 11 81  0D A3 05 01 0D A3 05 01  1245.[..........
12E0: 6D 6F 64 32 5B 00 81 0C  A3 05 01 0C A3 05 01 6D  mod2[..........m
12F0: 6F 64 32 2B 0C A3 05 01  14 81 23 55 37 80 F8 FF  od2+......#U7...
1300: FF 7F F8 FF FF 7F 73 31  32 34 45 37 80 F8 FF FF  ......s124E7....
1310: 7F F8 FF FF 7F 73 31 32  35 35 80 55 37 80 F8 FF  .....s1255.U7...
1320: FF 7F F8 FF FF 7F 73 31  32 35 45 37 80 F8 FF FF  ......s125E7....
1330: 7F F8 FF FF 7F 73 31 32  36 35 80 5B 15 81 0C A3  .....s1265.[....
1340: 05 01 0C A3 05 01 6D 6F  64 33 2B 0C A3 05 01 16  ......mod3+.....
1350: 81 23 55 37 80 F8 FF FF  7F F8 FF FF 7F 73 31 32  .#U7.........s12
1360: 36 45 37 80 F8 FF FF 7F  F8 FF FF 7F 73 31 32 37  6E7.........s127
1370: 35 80 7C 00 0A A3 05 01  2B 0A A3 05 01 17 81 23  5.|.....+......#
1380: 7C 01 0A A3 05 01 55 37  80 F8 FF FF 7F F8 FF FF  |.....U7........
1390: 7F 73 31 32 37 45 37 80  F8 FF FF 7F F8 FF FF 7F  .s127E7.........
13A0: 73 31 32 38 35 80 1C 3C  80 55 37 80 F8 FF FF 7F  s1285..<.U7.....
13B0: F8 FF FF 7F 73 31 32 38  45 37 80 F8 FF FF 7F F8  ....s128E7......
13C0: FF FF 7F 73 31 33 31 35  80 5B 15 81 0C A3 05 01  ...s1315.[......
13D0: 0C A3 05 01 6D 6F 64 34  2B 0C A3 05 01 18 81 23  ....mod4+......#
13E0: 55 37 80 F8 FF FF 7F F8  FF FF 7F 73 31 33 31 45  U7.........s131E
13F0: 37 80 F8 FF FF 7F F8 FF  FF 7F 73 31 32 39 35 80  7.........s1295.
1400: 55 37 80 F8 FF FF 7F F8  FF FF 7F 73 31 32 39 2B  U7.........s129+
1410: 0C A3 05 01 19 81 23 45  37 80 F8 FF FF 7F F8 FF  ......#E7.......
1420: FF 7F 73 31 33 30 35 80  1C 3C 80 2B 0C A3 05 01  ..s1305..<.+....
1430: 1A 81 23 1A B9 28 55 37  80 F8 FF FF 7F F8 FF FF  ..#..(U7........
1440: 7F 73 31 33 30 6B 69 64  6C 30 0A A3 05 01 BA F0  .s130kidl0......
1450: FF FF 7F 1B 81 1C 81 1D  81 1E 81 BA 0A A3 05 01  ................
1460: 1F 81 20 81 21 81 22 81  BA 0F A3 05 01 23 81 24  .. .!."......#.$
1470: 81 25 81 26 81 BA 10 A3  05 01 27 81 28 81 29 81  .%.&......'.(.).
1480: 2A 81 BA 0B A3 05 01 2B  81 2C 81 2D 81 2E 81 BA  *......+.,.-....
1490: 0E A3 05 01 7B 80 2F 81  2B 80 30 81 4A 18 A3 05  ....{./.+.0.J...
14A0: 01 0A A3 05 01 4A 0A A3  05 01 18 A3 05 01 4A 0F  .....J........J.
14B0: A3 05 01 18 A3 05 01 4A  10 A3 05 01 18 A3 05 01  .......J........
14C0: 4A 0B A3 05 01 0E A3 05  01 4A 0E A3 05 01 0B A3  J........J......
14D0: 05 01 4A F0 FF FF 7F 0A  A3 05 01 7B 0A A3 05 01  ..J........{....
14E0: 7B F0 FF FF 7F 7B 0E A3  05 01 7B 0B A3 05 01 81  {....{....{.....
14F0: 01 0A A3 05 01 6F 76 F0  FF FF 7F 6F 76 0A A3 05  .....ov....ov...
1500: 01 5D 35 80 31 81 1C 31  81 5C 01 35 80 5C 02 35  .]5.1..1.\.5.\.5
1510: 80 45 37 80 F8 FF FF 7F  F8 FF FF 7F 73 31 33 32  .E7.........s132
1520: 35 80 45 38 80 F8 FF FF  7F F8 FF FF 7F 66 64 69  5.E8.........fdi
1530: 32 35 80 55 37 80 F8 FF  FF 7F F8 FF FF 7F 73 31  25.U7.........s1
1540: 33 32 4A 0A A3 05 01 F0  FF FF 7F 45 37 80 F8 FF  32J........E7...
1550: FF 7F F8 FF FF 7F 73 31  33 33 35 80 7B 0A A3 05  ......s1335.{...
1560: 01 6F 76 0A A3 05 01 5B  59 80 0A A3 05 01 0A A3  .ov....[Y.......
1570: 05 01 74 6C 61 30 2B 0A  A3 05 01 32 81 23 2B 0A  ..tla0+....2.#+.
1580: A3 05 01 33 81 23 5B 59  80 0A A3 05 01 0A A3 05  ...3.#[Y........
1590: 01 74 6C 61 31 52 37 80  F8 FF FF 7F F8 FF FF 7F  .tla1R7.........
15A0: 73 31 33 33 45 37 80 F8  FF FF 7F F8 FF FF 7F 73  s133E7.........s
15B0: 31 33 34 35 80 5B 59 80  0A A3 05 01 0A A3 05 01  1345.[Y.........
15C0: 74 6C 61 30 2B 0A A3 05  01 34 81 23 2B 0A A3 05  tla0+....4.#+...
15D0: 01 35 81 23 2B 0A A3 05  01 36 81 23 5B 59 80 0A  .5.#+....6.#[Y..
15E0: A3 05 01 0A A3 05 01 74  6C 61 31 4A 0A A3 05 01  .......tla1J....
15F0: 18 A3 05 01 7B 0A A3 05  01 52 37 80 F8 FF FF 7F  ....{....R7.....
1600: F8 FF FF 7F 73 31 33 34  45 37 80 F8 FF FF 7F F8  ....s134E7......
1610: FF FF 7F 73 31 33 36 35  80 2B 0A A3 05 01 37 81  ...s1365.+....7.
1620: 23 52 37 80 F8 FF FF 7F  F8 FF FF 7F 73 31 33 36  #R7.........s136
1630: 45 37 80 F8 FF FF 7F F8  FF FF 7F 73 31 33 37 35  E7.........s1375
1640: 80 7C 00 0A A3 05 01 2B  0A A3 05 01 38 81 23 7C  .|.....+....8.#|
1650: 01 0A A3 05 01 4A 0A A3  05 01 F0 FF FF 7F 7B 0A  .....J........{.
1660: A3 05 01 6F 76 0A A3 05  01 5B 59 80 0A A3 05 01  ...ov....[Y.....
1670: 0A A3 05 01 74 6C 61 30  2B 0A A3 05 01 39 81 23  ....tla0+....9.#
1680: 5B 59 80 0A A3 05 01 0A  A3 05 01 74 6C 61 31 1A  [Y.........tla1.
1690: B9 28 1C AD 80 52 37 80  F8 FF FF 7F F8 FF FF 7F  .(...R7.........
16A0: 73 31 33 37 78 1C D1 80  AB 09 1C D1 80 AB 11 35  s137x..........5
16B0: 80 1C 66 80 46 00 45 38  80 F8 FF FF 7F F8 FF FF  ..f.F.E8........
16C0: 7F 66 64 69 32 35 80 45  3A 81 F8 FF FF 7F F8 FF  .fdi25.E:.......
16D0: FF 7F 71 73 74 63 35 80  21 00                    ..qstc5.!.      
```

#### Opcodes

```
  0: 0x0001 [0x42] SET_CLI_EVENT_CANCEL_DATA()
  1: 0x0002 [0x20] SET_CLI_EVENT_UC_FLAG: Lock player control
  2: 0x0004 [0x46] CAMERA_CONTROL: Disable user control
  3: 0x0006 [0x1A] CALL_SUBROUTINE(address=0x28B9)
  4: 0x0009 [0x38] SET_CLIENT_EVENT_MODE(mode=19*)
  5: 0x000C [0x4E] SET_ENTITY_HIDE_FLAG: Show LocalPlayer
  6: 0x0012 [0x4E] SET_ENTITY_HIDE_FLAG: Show Excenmille (ID: 17146634/0x0105A30A)
  7: 0x0018 [0x4E] SET_ENTITY_HIDE_FLAG: Show Cyranuce (ID: 17146636/0x0105A30C)
  8: 0x001E [0x4E] SET_ENTITY_HIDE_FLAG: Show Machegue (ID: 17146637/0x0105A30D)
  9: 0x0024 [0x4E] SET_ENTITY_HIDE_FLAG: Show Alphonimile (ID: 17146635/0x0105A30B)
 10: 0x002A [0x4E] SET_ENTITY_HIDE_FLAG: Show Jayramus (ID: 17146638/0x0105A30E)
 11: 0x0030 [0x4E] SET_ENTITY_HIDE_FLAG: Show kisiA (ID: 17146639/0x0105A30F)
 12: 0x0036 [0x4E] SET_ENTITY_HIDE_FLAG: Show kisiB (ID: 17146640/0x0105A310)
 13: 0x003C [0x4E] SET_ENTITY_HIDE_FLAG: Show kisiC (ID: 17146641/0x0105A311)
 14: 0x0042 [0x4E] SET_ENTITY_HIDE_FLAG: Show kisiD (ID: 17146642/0x0105A312)
 15: 0x0048 [0x4E] SET_ENTITY_HIDE_FLAG: Show kisiE (ID: 17146643/0x0105A313)
 16: 0x004E [0x4E] SET_ENTITY_HIDE_FLAG: Show Unknown NPC (ID: 17146644/0x0105A314)
 17: 0x0054 [0x4E] SET_ENTITY_HIDE_FLAG: Show Unknown NPC (ID: 17146645/0x0105A315)
 18: 0x005A [0x4E] SET_ENTITY_HIDE_FLAG: Show Unknown NPC (ID: 17146646/0x0105A316)
 19: 0x0060 [0x4E] SET_ENTITY_HIDE_FLAG: Show Unknown NPC (ID: 17146647/0x0105A317)
 20: 0x0066 [0x4E] SET_ENTITY_HIDE_FLAG: Show ??? (ID: 17146648/0x0105A318)
 21: 0x006C [0x92] Excenmille (ID: 17146634/0x0105A30A)->Render.Flags3 ^= 0x01
 22: 0x0072 [0x92] Cyranuce (ID: 17146636/0x0105A30C)->Render.Flags3 ^= 0x01
 23: 0x0078 [0x92] Machegue (ID: 17146637/0x0105A30D)->Render.Flags3 ^= 0x01
 24: 0x007E [0x92] Alphonimile (ID: 17146635/0x0105A30B)->Render.Flags3 ^= 0x01
 25: 0x0084 [0x92] Jayramus (ID: 17146638/0x0105A30E)->Render.Flags3 ^= 0x01
 26: 0x008A [0x92] kisiA (ID: 17146639/0x0105A30F)->Render.Flags3 ^= 0x01
 27: 0x0090 [0x92] kisiB (ID: 17146640/0x0105A310)->Render.Flags3 ^= 0x01
 28: 0x0096 [0x92] kisiC (ID: 17146641/0x0105A311)->Render.Flags3 ^= 0x01
 29: 0x009C [0x92] kisiD (ID: 17146642/0x0105A312)->Render.Flags3 ^= 0x01
 30: 0x00A2 [0x92] kisiE (ID: 17146643/0x0105A313)->Render.Flags3 ^= 0x01
 31: 0x00A8 [0x92] Unknown NPC (ID: 17146644/0x0105A314)->Render.Flags3 ^= 0x01
 32: 0x00AE [0x92] Unknown NPC (ID: 17146645/0x0105A315)->Render.Flags3 ^= 0x01
 33: 0x00B4 [0x92] Unknown NPC (ID: 17146646/0x0105A316)->Render.Flags3 ^= 0x01
 34: 0x00BA [0x92] Unknown NPC (ID: 17146647/0x0105A317)->Render.Flags3 ^= 0x01
 35: 0x00C0 [0x92] ??? (ID: 17146648/0x0105A318)->Render.Flags3 ^= 0x01
 36: 0x00C6 [0x79] LocalPlayer looks at LocalPlayer (Basic look)
 37: 0x00D0 [0x94] Excenmille (ID: 17146634/0x0105A30A)->Render.Flags3 ^= 0x01
 38: 0x00D6 [0x94] Cyranuce (ID: 17146636/0x0105A30C)->Render.Flags3 ^= 0x01
 39: 0x00DC [0x94] Machegue (ID: 17146637/0x0105A30D)->Render.Flags3 ^= 0x01
 40: 0x00E2 [0x94] Alphonimile (ID: 17146635/0x0105A30B)->Render.Flags3 ^= 0x01
 41: 0x00E8 [0x94] Jayramus (ID: 17146638/0x0105A30E)->Render.Flags3 ^= 0x01
 42: 0x00EE [0x94] kisiA (ID: 17146639/0x0105A30F)->Render.Flags3 ^= 0x01
 43: 0x00F4 [0x94] kisiB (ID: 17146640/0x0105A310)->Render.Flags3 ^= 0x01
 44: 0x00FA [0x94] kisiC (ID: 17146641/0x0105A311)->Render.Flags3 ^= 0x01
 45: 0x0100 [0x94] kisiD (ID: 17146642/0x0105A312)->Render.Flags3 ^= 0x01
 46: 0x0106 [0x94] kisiE (ID: 17146643/0x0105A313)->Render.Flags3 ^= 0x01
 47: 0x010C [0x94] Unknown NPC (ID: 17146644/0x0105A314)->Render.Flags3 ^= 0x01
 48: 0x0112 [0x94] Unknown NPC (ID: 17146645/0x0105A315)->Render.Flags3 ^= 0x01
 49: 0x0118 [0x94] Unknown NPC (ID: 17146646/0x0105A316)->Render.Flags3 ^= 0x01
 50: 0x011E [0x94] Unknown NPC (ID: 17146647/0x0105A317)->Render.Flags3 ^= 0x01
 51: 0x0124 [0x94] ??? (ID: 17146648/0x0105A318)->Render.Flags3 ^= 0x01
 52: 0x012A [0xBA] SET_ENTITY_POSITION(entity_id=LocalPlayer, pos_x=-195.578*, pos_z=420.281*, pos_y=24.626*, direction=154.3°*)
 53: 0x0137 [0xBA] SET_ENTITY_POSITION(entity_id=Jayramus (ID: 17146638/0x0105A30E), pos_x=-221.740*, pos_z=414.707*, pos_y=24.397*, direction=79.0°*)
 54: 0x0144 [0xBA] SET_ENTITY_POSITION(entity_id=Excenmille (ID: 17146634/0x0105A30A), pos_x=-230.324*, pos_z=408.310*, pos_y=24.473*, direction=69.5°*)
 55: 0x0151 [0xBA] SET_ENTITY_POSITION(entity_id=Alphonimile (ID: 17146635/0x0105A30B), pos_x=-236.882*, pos_z=405.350*, pos_y=24.716*, direction=233.7°*)
 56: 0x015E [0xBA] SET_ENTITY_POSITION(entity_id=kisiA (ID: 17146639/0x0105A30F), pos_x=-238.717*, pos_z=408.869*, pos_y=24.850*, direction=236.9°*)
 57: 0x016B [0xBA] SET_ENTITY_POSITION(entity_id=kisiB (ID: 17146640/0x0105A310), pos_x=-242.767*, pos_z=408.959*, pos_y=24.851*, direction=176.0°*)
 58: 0x0178 [0xBA] SET_ENTITY_POSITION(entity_id=kisiC (ID: 17146641/0x0105A311), pos_x=-242.335*, pos_z=412.377*, pos_y=24.827*, direction=295.6°*)
 59: 0x0185 [0xBA] SET_ENTITY_POSITION(entity_id=kisiD (ID: 17146642/0x0105A312), pos_x=-238.859*, pos_z=415.066*, pos_y=24.698*, direction=337.9°*)
 60: 0x0192 [0xBA] SET_ENTITY_POSITION(entity_id=kisiE (ID: 17146643/0x0105A313), pos_x=-234.006*, pos_z=416.448*, pos_y=24.630*, direction=339.1°*)
 61: 0x019F [0xBA] SET_ENTITY_POSITION(entity_id=Unknown NPC (ID: 17146644/0x0105A314), pos_x=-230.284*, pos_z=406.673*, pos_y=24.587*, direction=256.8°*)
 62: 0x01AC [0xBA] SET_ENTITY_POSITION(entity_id=Unknown NPC (ID: 17146645/0x0105A315), pos_x=-241.715*, pos_z=418.403*, pos_y=24.648*, direction=138.0°*)
 63: 0x01B9 [0xBA] SET_ENTITY_POSITION(entity_id=Unknown NPC (ID: 17146646/0x0105A316), pos_x=-245.464*, pos_z=414.336*, pos_y=24.638*, direction=123.6°*)
 64: 0x01C6 [0xBA] SET_ENTITY_POSITION(entity_id=Unknown NPC (ID: 17146647/0x0105A317), pos_x=-234.801*, pos_z=403.039*, pos_y=24.708*, direction=351.8°*)
 65: 0x01D3 [0xBA] SET_ENTITY_POSITION(entity_id=??? (ID: 17146648/0x0105A318), pos_x=0.000*, pos_z=0.000*, pos_y=3.000*, direction=0.0°*)
 66: 0x01E0 [0x80] LOAD_WAIT(entity=Excenmille (ID: 17146634/0x0105A30A))
 67: 0x01E5 [0x80] LOAD_WAIT(entity=Cyranuce (ID: 17146636/0x0105A30C))
 68: 0x01EA [0x80] LOAD_WAIT(entity=Machegue (ID: 17146637/0x0105A30D))
 69: 0x01EF [0x80] LOAD_WAIT(entity=Alphonimile (ID: 17146635/0x0105A30B))
 70: 0x01F4 [0x80] LOAD_WAIT(entity=Jayramus (ID: 17146638/0x0105A30E))
 71: 0x01F9 [0x80] LOAD_WAIT(entity=kisiA (ID: 17146639/0x0105A30F))
 72: 0x01FE [0x80] LOAD_WAIT(entity=kisiB (ID: 17146640/0x0105A310))
 73: 0x0203 [0x80] LOAD_WAIT(entity=kisiC (ID: 17146641/0x0105A311))
 74: 0x0208 [0x80] LOAD_WAIT(entity=kisiD (ID: 17146642/0x0105A312))
 75: 0x020D [0x80] LOAD_WAIT(entity=kisiE (ID: 17146643/0x0105A313))
 76: 0x0212 [0x80] LOAD_WAIT(entity=Unknown NPC (ID: 17146644/0x0105A314))
 77: 0x0217 [0x80] LOAD_WAIT(entity=Unknown NPC (ID: 17146645/0x0105A315))
 78: 0x021C [0x80] LOAD_WAIT(entity=Unknown NPC (ID: 17146646/0x0105A316))
 79: 0x0221 [0x80] LOAD_WAIT(entity=Unknown NPC (ID: 17146647/0x0105A317))
 80: 0x0226 [0x80] LOAD_WAIT(entity=??? (ID: 17146648/0x0105A318))
 81: 0x022B [0x59] UPDATE_ENTITY_DATA: Cyranuce (ID: 17146636/0x0105A30C)->Render.Flags0 |= 0x200000
 82: 0x0232 [0x59] UPDATE_ENTITY_DATA: Machegue (ID: 17146637/0x0105A30D)->Render.Flags0 |= 0x200000
 83: 0x0239 [0x45] LOAD_SCHEDULED_TASK: Load scheduler "s076" with entities [EventEntity, EventEntity], work=[406*, 0*]
 84: 0x024A [0x45] LOAD_SCHEDULED_TASK: Load scheduler "fdi2" with entities [EventEntity, EventEntity], work=[200*, 0*]
 85: 0x025B [0x03] Work_Zone[37] = 4294768163*
 86: 0x0260 [0x03] Work_Zone[39] = 419478*
 87: 0x0265 [0x03] Work_Zone[38] = 24648*
 88: 0x026A [0x03] Work_Zone[40] = 1905*
 89: 0x026F [0x29] REQ_SET_WAIT(priority=0x0F, entity_id=LocalPlayer, tag_num=0x02)
 90: 0x0276 [0x55] WAIT_LOAD_SCHEDULER: Wait for scheduler "s076" with entities [EventEntity, EventEntity], work=406*
 91: 0x0285 [0x45] LOAD_SCHEDULED_TASK: Load scheduler "s077" with entities [EventEntity, EventEntity], work=[406*, 0*]
 92: 0x0296 [0x4A] Jayramus (ID: 17146638/0x0105A30E) looks at LocalPlayer
 93: 0x029F [0x4A] LocalPlayer looks at Jayramus (ID: 17146638/0x0105A30E)
 94: 0x02A8 [0x7B] LocalPlayer stops talking
 95: 0x02AD [0x7B] Jayramus (ID: 17146638/0x0105A30E) stops talking
 96: 0x02B2 [0x6F] WAIT_FRAME_DELAY: Yield until WaitTime reaches zero
 97: 0x02B3 [0x76] CHECK_ENTITY_RENDER_FLAGS: Wait until Jayramus (ID: 17146638/0x0105A30E) Render.Flags0 and Render.Flags3 conditions are met
 98: 0x02B8 [0x1C] WAIT(60* ticks)
 99: 0x02BB [0x2B] Jayramus (ID: 17146638/0x0105A30E) [7906*]:
    → "Hm? You there! Halt!"
100: 0x02C2 [0x23] WAIT_FOR_DIALOG_INTERACTION
101: 0x02C3 [0x52] END_LOAD_SCHEDULER: End scheduler "s077" with entities [EventEntity, EventEntity], work=406*
102: 0x02D2 [0x45] LOAD_SCHEDULED_TASK: Load scheduler "s078" with entities [EventEntity, EventEntity], work=[406*, 0*]
103: 0x02E3 [0x2B] Jayramus (ID: 17146638/0x0105A30E) [7907*]:
    → "State your name and business!"
104: 0x02EA [0x23] WAIT_FOR_DIALOG_INTERACTION
105: 0x02EB [0x52] END_LOAD_SCHEDULER: End scheduler "s078" with entities [EventEntity, EventEntity], work=406*
106: 0x02FA [0x45] LOAD_SCHEDULED_TASK: Load scheduler "s079" with entities [EventEntity, EventEntity], work=[406*, 0*]
107: 0x030B [0x4A] Excenmille (ID: 17146634/0x0105A30A) looks at LocalPlayer
108: 0x0314 [0x7B] Excenmille (ID: 17146634/0x0105A30A) stops talking
109: 0x0319 [0x6F] WAIT_FRAME_DELAY: Yield until WaitTime reaches zero
110: 0x031A [0x76] CHECK_ENTITY_RENDER_FLAGS: Wait until Excenmille (ID: 17146634/0x0105A30A) Render.Flags0 and Render.Flags3 conditions are met
111: 0x031F [0xBA] SET_ENTITY_POSITION(entity_id=LocalPlayer, pos_x=-215.013*, pos_z=415.168*, pos_y=24.453*, direction=168.0°*)
112: 0x032C [0xBA] SET_ENTITY_POSITION(entity_id=Jayramus (ID: 17146638/0x0105A30E), pos_x=-217.375*, pos_z=415.107*, pos_y=24.378*, direction=168.0°*)
113: 0x0339 [0x4A] LocalPlayer looks at Jayramus (ID: 17146638/0x0105A30E)
114: 0x0342 [0x4A] Jayramus (ID: 17146638/0x0105A30E) looks at LocalPlayer
115: 0x034B [0x7B] LocalPlayer stops talking
116: 0x0350 [0x7B] Jayramus (ID: 17146638/0x0105A30E) stops talking
117: 0x0355 [0x2B] Excenmille (ID: 17146634/0x0105A30A) [7908*]:
    → "Hm? Has someone come calling?"
118: 0x035C [0x23] WAIT_FOR_DIALOG_INTERACTION
119: 0x035D [0x6F] WAIT_FRAME_DELAY: Yield until WaitTime reaches zero
120: 0x035E [0x76] CHECK_ENTITY_RENDER_FLAGS: Wait until LocalPlayer Render.Flags0 and Render.Flags3 conditions are met
121: 0x0363 [0x6F] WAIT_FRAME_DELAY: Yield until WaitTime reaches zero
122: 0x0364 [0x76] CHECK_ENTITY_RENDER_FLAGS: Wait until Jayramus (ID: 17146638/0x0105A30E) Render.Flags0 and Render.Flags3 conditions are met
123: 0x0369 [0x52] END_LOAD_SCHEDULER: End scheduler "s079" with entities [EventEntity, EventEntity], work=406*
124: 0x0378 [0x45] LOAD_SCHEDULED_TASK: Load scheduler "s080" with entities [EventEntity, EventEntity], work=[406*, 0*]
125: 0x0389 [0x55] WAIT_LOAD_SCHEDULER: Wait for scheduler "s080" with entities [EventEntity, EventEntity], work=406*
126: 0x0398 [0x45] LOAD_SCHEDULED_TASK: Load scheduler "s081" with entities [EventEntity, EventEntity], work=[406*, 0*]
127: 0x03A9 [0x81] SET_ENTITY_BLINKING(blink_flag=0x00, entity=Excenmille (ID: 17146634/0x0105A30A))
128: 0x03AF [0x7C] Excenmille (ID: 17146634/0x0105A30A)->Render.Flags2 |= 0x00
129: 0x03B5 [0x4B] UPDATE_ENTITY_YAW(entity=LocalPlayer, yaw=7.6°*)
130: 0x03BC [0x5B] LOAD_EXT_SCHEDULER: Load scheduler "bik0" with entities [Excenmille (ID: 17146634/0x0105A30A), Excenmille (ID: 17146634/0x0105A30A)], work=1437*
131: 0x03CB [0x2B] Excenmille (ID: 17146634/0x0105A30A) [7909*]:
    → "...It couldn't be! <Player>? Is it truly you?"
132: 0x03D2 [0x23] WAIT_FOR_DIALOG_INTERACTION
133: 0x03D3 [0x81] SET_ENTITY_BLINKING(blink_flag=0x01, entity=Excenmille (ID: 17146634/0x0105A30A))
134: 0x03D9 [0x7C] Excenmille (ID: 17146634/0x0105A30A)->Render.Flags2 |= 0x01
135: 0x03DF [0x6F] WAIT_FRAME_DELAY: Yield until WaitTime reaches zero
136: 0x03E0 [0x76] CHECK_ENTITY_RENDER_FLAGS: Wait until LocalPlayer Render.Flags0 and Render.Flags3 conditions are met
137: 0x03E5 [0x52] END_LOAD_SCHEDULER: End scheduler "s081" with entities [EventEntity, EventEntity], work=406*
138: 0x03F4 [0x45] LOAD_SCHEDULED_TASK: Load scheduler "s082" with entities [EventEntity, EventEntity], work=[406*, 0*]
139: 0x0405 [0x1C] WAIT(5* ticks)
140: 0x0408 [0xBA] SET_ENTITY_POSITION(entity_id=Excenmille (ID: 17146634/0x0105A30A), pos_x=-220.222*, pos_z=411.349*, pos_y=24.396*, direction=339.4°*)
141: 0x0415 [0xBA] SET_ENTITY_POSITION(entity_id=Alphonimile (ID: 17146635/0x0105A30B), pos_x=-214.389*, pos_z=408.112*, pos_y=24.739*, direction=103.7°*)
142: 0x0422 [0x03] Work_Zone[37] = 4294750874*
143: 0x0427 [0x03] Work_Zone[39] = 413259*
144: 0x042C [0x03] Work_Zone[38] = 24423*
145: 0x0431 [0x03] Work_Zone[40] = 3433*
146: 0x0436 [0x29] REQ_SET_WAIT(priority=0x0F, entity_id=Excenmille (ID: 17146634/0x0105A30A), tag_num=0x01)
147: 0x043D [0x4A] Excenmille (ID: 17146634/0x0105A30A) looks at LocalPlayer
148: 0x0446 [0x7B] Excenmille (ID: 17146634/0x0105A30A) stops talking
149: 0x044B [0x6F] WAIT_FRAME_DELAY: Yield until WaitTime reaches zero
150: 0x044C [0x76] CHECK_ENTITY_RENDER_FLAGS: Wait until Excenmille (ID: 17146634/0x0105A30A) Render.Flags0 and Render.Flags3 conditions are met
151: 0x0451 [0x79] Jayramus (ID: 17146638/0x0105A30E) looks at Excenmille (ID: 17146634/0x0105A30A) (Basic look)
152: 0x045B [0x2B] Jayramus (ID: 17146638/0x0105A30E) [7910*]:
    → "This [man/woman] an acquaintance of yours, boy?"
153: 0x0462 [0x23] WAIT_FOR_DIALOG_INTERACTION
154: 0x0463 [0x5B] LOAD_EXT_SCHEDULER: Load scheduler "tls0" with entities [Excenmille (ID: 17146634/0x0105A30A), Excenmille (ID: 17146634/0x0105A30A)], work=1272*
155: 0x0472 [0x2B] Excenmille (ID: 17146634/0x0105A30A) [7911*]:
    → "But how--why--are you here!? And what of Rahal and the others!?"
156: 0x0479 [0x23] WAIT_FOR_DIALOG_INTERACTION
157: 0x047A [0x03] Work_Zone[37] = 4294751982*
158: 0x047F [0x03] Work_Zone[39] = 412732*
159: 0x0484 [0x03] Work_Zone[38] = 24535*
160: 0x0489 [0x03] Work_Zone[40] = 3152*
161: 0x048E [0x27] REQ_SET(priority=0x0F, entity_id=Alphonimile (ID: 17146635/0x0105A30B), tag_num=0x02)
162: 0x0495 [0x5B] LOAD_EXT_SCHEDULER: Load scheduler "tls1" with entities [Excenmille (ID: 17146634/0x0105A30A), Excenmille (ID: 17146634/0x0105A30A)], work=1272*
163: 0x04A4 [0x2B] Alphonimile (ID: 17146635/0x0105A30B) [7912*]:
    → "Master yourself, Excenmille."
164: 0x04AB [0x23] WAIT_FOR_DIALOG_INTERACTION
165: 0x04AC [0x2A] GET_REQ_LEVEL(level=15, entity_id=Alphonimile (ID: 17146635/0x0105A30B))
166: 0x04B2 [0x52] END_LOAD_SCHEDULER: End scheduler "s082" with entities [EventEntity, EventEntity], work=406*
167: 0x04C1 [0x45] LOAD_SCHEDULED_TASK: Load scheduler "s084" with entities [EventEntity, EventEntity], work=[406*, 0*]
168: 0x04D2 [0x4A] Alphonimile (ID: 17146635/0x0105A30B) looks at LocalPlayer
169: 0x04DB [0x4A] LocalPlayer looks at Alphonimile (ID: 17146635/0x0105A30B)
170: 0x04E4 [0x7B] Alphonimile (ID: 17146635/0x0105A30B) stops talking
171: 0x04E9 [0x7B] LocalPlayer stops talking
172: 0x04EE [0x6F] WAIT_FRAME_DELAY: Yield until WaitTime reaches zero
173: 0x04EF [0x76] CHECK_ENTITY_RENDER_FLAGS: Wait until Alphonimile (ID: 17146635/0x0105A30B) Render.Flags0 and Render.Flags3 conditions are met
174: 0x04F4 [0x7B] Jayramus (ID: 17146638/0x0105A30E) stops talking
175: 0x04F9 [0x2B] Alphonimile (ID: 17146635/0x0105A30B) [7913*]:
    → "Well met, <Player>. It has been a while."
176: 0x0500 [0x23] WAIT_FOR_DIALOG_INTERACTION
177: 0x0501 [0x2B] Alphonimile (ID: 17146635/0x0105A30B) [7914*]:
    → "I sense that you've not come all the way here for reasons of frivolity."
178: 0x0508 [0x23] WAIT_FOR_DIALOG_INTERACTION
179: 0x0509 [0x52] END_LOAD_SCHEDULER: End scheduler "s084" with entities [EventEntity, EventEntity], work=406*
180: 0x0518 [0x6E] LocalPlayer uses emote 7*
181: 0x051F [0x99] Wait for LocalPlayer animation to complete
182: 0x0524 [0x45] LOAD_SCHEDULED_TASK: Load scheduler "s085" with entities [EventEntity, EventEntity], work=[406*, 0*]
183: 0x0535 [0x24] CREATE_DIALOG(message_id=7915*, default_option=0*, option_flags=ExtData[1]->WorkLocal[0])
    → "Truth is... [I seek the Cardinal Stags./I seek the Swiftwing Griffins./I've gone and lost my way.]"
184: 0x053C [0x25] WAIT_DIALOG_SELECT()
185: 0x053D [0x02] IF !(Work_Zone[0] == 0*) GOTO 0x05A0
186: 0x0545 [0x52] END_LOAD_SCHEDULER: End scheduler "s085" with entities [EventEntity, EventEntity], work=406*
187: 0x0554 [0x45] LOAD_SCHEDULED_TASK: Load scheduler "s086" with entities [EventEntity, EventEntity], work=[406*, 0*]
188: 0x0565 [0x66] LOAD_EXT_SCHEDULER_MAIN: Load scheduler "tlk0" with entities [Alphonimile (ID: 17146635/0x0105A30B), Alphonimile (ID: 17146635/0x0105A30B)], work=29*
189: 0x0574 [0x2B] Alphonimile (ID: 17146635/0x0105A30B) [7921*]:
    → "That you knew where to seek my unit is most disconcerting. Not a single soul outside of this camp--not even those at headquarters--is supposed to have knowledge of the change in our itinerary."
190: 0x057B [0x23] WAIT_FOR_DIALOG_INTERACTION
191: 0x057C [0x66] LOAD_EXT_SCHEDULER_MAIN: Load scheduler "tlk1" with entities [Alphonimile (ID: 17146635/0x0105A30B), Alphonimile (ID: 17146635/0x0105A30B)], work=29*
192: 0x058B [0x1A] CALL_SUBROUTINE(address=0x28B9)
193: 0x058E [0x52] END_LOAD_SCHEDULER: End scheduler "s086" with entities [EventEntity, EventEntity], work=406*
194: 0x059D [0x01] GOTO 0x0712
195: 0x05A0 [0x02] IF !(Work_Zone[0] == 1*) GOTO 0x0682
196: 0x05A8 [0x52] END_LOAD_SCHEDULER: End scheduler "s085" with entities [EventEntity, EventEntity], work=406*
197: 0x05B7 [0x45] LOAD_SCHEDULED_TASK: Load scheduler "s083" with entities [EventEntity, EventEntity], work=[406*, 0*]
198: 0x05C8 [0x2B] Alphonimile (ID: 17146635/0x0105A30B) [7918*]:
    → "Knights of the...Swiftwing Griffin? Be they a newly formed unit?"
199: 0x05CF [0x23] WAIT_FOR_DIALOG_INTERACTION
200: 0x05D0 [0x52] END_LOAD_SCHEDULER: End scheduler "s083" with entities [EventEntity, EventEntity], work=406*
201: 0x05DF [0x45] LOAD_SCHEDULED_TASK: Load scheduler "s087" with entities [EventEntity, EventEntity], work=[406*, 0*]
202: 0x05F0 [0x81] SET_ENTITY_BLINKING(blink_flag=0x00, entity=Excenmille (ID: 17146634/0x0105A30A))
203: 0x05F6 [0x5B] LOAD_EXT_SCHEDULER: Load scheduler "thb0" with entities [Excenmille (ID: 17146634/0x0105A30A), Excenmille (ID: 17146634/0x0105A30A)], work=1273*
204: 0x0605 [0x2B] Excenmille (ID: 17146634/0x0105A30A) [7919*]:
    → "This is the handiwork of Rahal and the others, isn't it? I'm certain of it!"
205: 0x060C [0x23] WAIT_FOR_DIALOG_INTERACTION
206: 0x060D [0x5B] LOAD_EXT_SCHEDULER: Load scheduler "thb1" with entities [Excenmille (ID: 17146634/0x0105A30A), Excenmille (ID: 17146634/0x0105A30A)], work=1273*
207: 0x061C [0x81] SET_ENTITY_BLINKING(blink_flag=0x01, entity=Excenmille (ID: 17146634/0x0105A30A))
208: 0x0622 [0x52] END_LOAD_SCHEDULER: End scheduler "s087" with entities [EventEntity, EventEntity], work=406*
209: 0x0631 [0x45] LOAD_SCHEDULED_TASK: Load scheduler "s135" with entities [EventEntity, EventEntity], work=[406*, 0*]
210: 0x0642 [0x66] LOAD_EXT_SCHEDULER_MAIN: Load scheduler "tlk0" with entities [Jayramus (ID: 17146638/0x0105A30E), Jayramus (ID: 17146638/0x0105A30E)], work=29*
211: 0x0651 [0x2B] Jayramus (ID: 17146638/0x0105A30E) [7920*]:
    → "Whoever these so-called Swiftwing Griffins are, no one besides you has been seen wondering about these parts."
212: 0x0658 [0x23] WAIT_FOR_DIALOG_INTERACTION
213: 0x0659 [0x66] LOAD_EXT_SCHEDULER_MAIN: Load scheduler "tlk1" with entities [Jayramus (ID: 17146638/0x0105A30E), Jayramus (ID: 17146638/0x0105A30E)], work=29*
214: 0x0668 [0x52] END_LOAD_SCHEDULER: End scheduler "s135" with entities [EventEntity, EventEntity], work=406*
215: 0x0677 [0x0E] ExtData[1]->WorkLocal[0] |= 2*
216: 0x067C [0x01] GOTO 0x0524

SUBROUTINE_0712:
217: 0x0712 [0xBA] SET_ENTITY_POSITION(entity_id=LocalPlayer, pos_x=-234.517*, pos_z=412.331*, pos_y=24.678*, direction=150.1°*)
218: 0x071F [0xBA] SET_ENTITY_POSITION(entity_id=Jayramus (ID: 17146638/0x0105A30E), pos_x=-233.667*, pos_z=409.228*, pos_y=24.623*, direction=191.2°*)
219: 0x072C [0xBA] SET_ENTITY_POSITION(entity_id=Excenmille (ID: 17146634/0x0105A30A), pos_x=-235.612*, pos_z=409.524*, pos_y=24.814*, direction=308.1°*)
220: 0x0739 [0xBA] SET_ENTITY_POSITION(entity_id=Alphonimile (ID: 17146635/0x0105A30B), pos_x=-236.662*, pos_z=410.923*, pos_y=24.851*, direction=348.6°*)
221: 0x0746 [0xBA] SET_ENTITY_POSITION(entity_id=kisiA (ID: 17146639/0x0105A30F), pos_x=-228.644*, pos_z=401.220*, pos_y=24.851*, direction=156.6°*)
222: 0x0753 [0xBA] SET_ENTITY_POSITION(entity_id=kisiB (ID: 17146640/0x0105A310), pos_x=-230.150*, pos_z=400.612*, pos_y=24.851*, direction=338.6°*)
223: 0x0760 [0xBA] SET_ENTITY_POSITION(entity_id=kisiC (ID: 17146641/0x0105A311), pos_x=-238.962*, pos_z=396.883*, pos_y=24.623*, direction=218.2°*)
224: 0x076D [0xBA] SET_ENTITY_POSITION(entity_id=Unknown NPC (ID: 17146644/0x0105A314), pos_x=-240.442*, pos_z=397.890*, pos_y=24.637*, direction=47.1°*)
225: 0x077A [0xBA] SET_ENTITY_POSITION(entity_id=kisiD (ID: 17146642/0x0105A312), pos_x=-242.246*, pos_z=400.941*, pos_y=24.623*, direction=285.9°*)
226: 0x0787 [0xBA] SET_ENTITY_POSITION(entity_id=kisiE (ID: 17146643/0x0105A313), pos_x=-240.751*, pos_z=402.264*, pos_y=24.639*, direction=98.4°*)
227: 0x0794 [0xBA] SET_ENTITY_POSITION(entity_id=Unknown NPC (ID: 17146645/0x0105A315), pos_x=-243.470*, pos_z=401.478*, pos_y=24.605*, direction=52.5°*)
228: 0x07A1 [0xBA] SET_ENTITY_POSITION(entity_id=Unknown NPC (ID: 17146646/0x0105A316), pos_x=-236.947*, pos_z=396.490*, pos_y=24.626*, direction=248.8°*)
229: 0x07AE [0xBA] SET_ENTITY_POSITION(entity_id=Unknown NPC (ID: 17146647/0x0105A317), pos_x=-236.178*, pos_z=399.835*, pos_y=24.640*, direction=91.2°*)
230: 0x07BB [0x4A] LocalPlayer looks at Alphonimile (ID: 17146635/0x0105A30B)
231: 0x07C4 [0x4A] Alphonimile (ID: 17146635/0x0105A30B) looks at LocalPlayer
232: 0x07CD [0x4A] Jayramus (ID: 17146638/0x0105A30E) looks at Alphonimile (ID: 17146635/0x0105A30B)
233: 0x07D6 [0x4A] Excenmille (ID: 17146634/0x0105A30A) looks at LocalPlayer
234: 0x07DF [0x4A] kisiA (ID: 17146639/0x0105A30F) looks at kisiB (ID: 17146640/0x0105A310)
235: 0x07E8 [0x4A] kisiB (ID: 17146640/0x0105A310) looks at kisiA (ID: 17146639/0x0105A30F)
236: 0x07F1 [0x7B] LocalPlayer stops talking
237: 0x07F6 [0x7B] Alphonimile (ID: 17146635/0x0105A30B) stops talking
238: 0x07FB [0x7B] Jayramus (ID: 17146638/0x0105A30E) stops talking
239: 0x0800 [0x7B] Excenmille (ID: 17146634/0x0105A30A) stops talking
240: 0x0805 [0x7B] kisiA (ID: 17146639/0x0105A30F) stops talking
241: 0x080A [0x7B] kisiB (ID: 17146640/0x0105A310) stops talking
242: 0x080F [0x6F] WAIT_FRAME_DELAY: Yield until WaitTime reaches zero
243: 0x0810 [0x76] CHECK_ENTITY_RENDER_FLAGS: Wait until LocalPlayer Render.Flags0 and Render.Flags3 conditions are met
244: 0x0815 [0x5C] MUSIC_CONTROL: Set Idle (Day) music to song 44*
245: 0x0819 [0x5C] MUSIC_CONTROL: Set Idle (Night) music to song 44*
246: 0x081D [0x9A] WAIT_MUSIC_SERVER()
247: 0x081E [0x45] LOAD_SCHEDULED_TASK: Load scheduler "fdi2" with entities [EventEntity, EventEntity], work=[200*, 0*]
248: 0x082F [0x45] LOAD_SCHEDULED_TASK: Load scheduler "s090" with entities [EventEntity, EventEntity], work=[406*, 0*]
249: 0x0840 [0x2B] Alphonimile (ID: 17146635/0x0105A30B) [7922*]:
    → "Behemoths, you say!? Those accursed Orcs will stop at nothing to gain the upper hand..."
250: 0x0847 [0x23] WAIT_FOR_DIALOG_INTERACTION
251: 0x0848 [0x2B] Jayramus (ID: 17146638/0x0105A30E) [7923*]:
    → "Captain. How shall we respond to this threat?"
252: 0x084F [0x23] WAIT_FOR_DIALOG_INTERACTION
253: 0x0850 [0x79] Alphonimile (ID: 17146635/0x0105A30B) looks at Jayramus (ID: 17146638/0x0105A30E) (Basic look)
254: 0x085A [0x2B] Alphonimile (ID: 17146635/0x0105A30B) [7924*]:
    → "With our location known to the enemy, we are at a disadvantage. Our foremost priority is therefore to relocate. After which, we shall hunt down the behemoth of which <Player> speaks."
255: 0x0861 [0x23] WAIT_FOR_DIALOG_INTERACTION
256: 0x0862 [0x52] END_LOAD_SCHEDULER: End scheduler "s090" with entities [EventEntity, EventEntity], work=406*
257: 0x0871 [0x45] LOAD_SCHEDULED_TASK: Load scheduler "s091" with entities [EventEntity, EventEntity], work=[406*, 0*]
258: 0x0882 [0x4A] Jayramus (ID: 17146638/0x0105A30E) looks at Excenmille (ID: 17146634/0x0105A30A)
259: 0x088B [0x7B] Jayramus (ID: 17146638/0x0105A30E) stops talking
260: 0x0890 [0x2B] Excenmille (ID: 17146634/0x0105A30A) [7925*]:
    → "Before that, Captain, please send out a search party to find Rahal and the others! If we strike camp now, they won't ever find us!"
261: 0x0897 [0x23] WAIT_FOR_DIALOG_INTERACTION
262: 0x0898 [0x6F] WAIT_FRAME_DELAY: Yield until WaitTime reaches zero
263: 0x0899 [0x76] CHECK_ENTITY_RENDER_FLAGS: Wait until Jayramus (ID: 17146638/0x0105A30E) Render.Flags0 and Render.Flags3 conditions are met
264: 0x089E [0x52] END_LOAD_SCHEDULER: End scheduler "s091" with entities [EventEntity, EventEntity], work=406*
265: 0x08AD [0x4A] Excenmille (ID: 17146634/0x0105A30A) looks at Jayramus (ID: 17146638/0x0105A30E)
266: 0x08B6 [0x45] LOAD_SCHEDULED_TASK: Load scheduler "s092" with entities [EventEntity, EventEntity], work=[406*, 0*]
267: 0x08C7 [0x66] LOAD_EXT_SCHEDULER_MAIN: Load scheduler "tlk0" with entities [Jayramus (ID: 17146638/0x0105A30E), Jayramus (ID: 17146638/0x0105A30E)], work=29*
268: 0x08D6 [0x2B] Jayramus (ID: 17146638/0x0105A30E) [7926*]:
    → "Are you mad, boy? You would risk the annihilation of our entire unit for the sake of a couple of brats playing hide and seek?"
269: 0x08DD [0x23] WAIT_FOR_DIALOG_INTERACTION
270: 0x08DE [0x66] LOAD_EXT_SCHEDULER_MAIN: Load scheduler "tlk1" with entities [Jayramus (ID: 17146638/0x0105A30E), Jayramus (ID: 17146638/0x0105A30E)], work=29*
271: 0x08ED [0x52] END_LOAD_SCHEDULER: End scheduler "s092" with entities [EventEntity, EventEntity], work=406*
272: 0x08FC [0x45] LOAD_SCHEDULED_TASK: Load scheduler "s093" with entities [EventEntity, EventEntity], work=[406*, 0*]
273: 0x090D [0x7B] Excenmille (ID: 17146634/0x0105A30A) stops talking
274: 0x0912 [0x6F] WAIT_FRAME_DELAY: Yield until WaitTime reaches zero
275: 0x0913 [0x76] CHECK_ENTITY_RENDER_FLAGS: Wait until Excenmille (ID: 17146634/0x0105A30A) Render.Flags0 and Render.Flags3 conditions are met
276: 0x0918 [0x5B] LOAD_EXT_SCHEDULER: Load scheduler "tls0" with entities [Excenmille (ID: 17146634/0x0105A30A), Excenmille (ID: 17146634/0x0105A30A)], work=1272*
277: 0x0927 [0x2B] Excenmille (ID: 17146634/0x0105A30A) [7927*]:
    → "What!?"
278: 0x092E [0x23] WAIT_FOR_DIALOG_INTERACTION
279: 0x092F [0x5B] LOAD_EXT_SCHEDULER: Load scheduler "tls1" with entities [Excenmille (ID: 17146634/0x0105A30A), Excenmille (ID: 17146634/0x0105A30A)], work=1272*
280: 0x093E [0x4A] Jayramus (ID: 17146638/0x0105A30E) looks at Alphonimile (ID: 17146635/0x0105A30B)
281: 0x0947 [0x52] END_LOAD_SCHEDULER: End scheduler "s093" with entities [EventEntity, EventEntity], work=406*
282: 0x0956 [0x45] LOAD_SCHEDULED_TASK: Load scheduler "s094" with entities [EventEntity, EventEntity], work=[406*, 0*]
283: 0x0967 [0x7B] Jayramus (ID: 17146638/0x0105A30E) stops talking
284: 0x096C [0x6F] WAIT_FRAME_DELAY: Yield until WaitTime reaches zero
285: 0x096D [0x76] CHECK_ENTITY_RENDER_FLAGS: Wait until Jayramus (ID: 17146638/0x0105A30E) Render.Flags0 and Render.Flags3 conditions are met
286: 0x0972 [0x2B] Alphonimile (ID: 17146635/0x0105A30B) [7928*]:
    → "Excenmille, enough. It is as Jayramus says."
287: 0x0979 [0x23] WAIT_FOR_DIALOG_INTERACTION
288: 0x097A [0x7B] Alphonimile (ID: 17146635/0x0105A30B) stops talking
289: 0x097F [0x2B] Alphonimile (ID: 17146635/0x0105A30B) [7929*]:
    → "Besides, you worry needlessly. We need not search for your friends, for they are the ones who have found us. See for yourself!"
290: 0x0986 [0x23] WAIT_FOR_DIALOG_INTERACTION
291: 0x0987 [0xBA] SET_ENTITY_POSITION(entity_id=Cyranuce (ID: 17146636/0x0105A30C), pos_x=-220.004*, pos_z=415.206*, pos_y=24.398*, direction=169.4°*)
292: 0x0994 [0xBA] SET_ENTITY_POSITION(entity_id=Machegue (ID: 17146637/0x0105A30D), pos_x=-220.004*, pos_z=415.206*, pos_y=24.398*, direction=169.4°*)
293: 0x09A1 [0x5B] LOAD_EXT_SCHEDULER: Load scheduler 0xFEFEFE00 with entities [Machegue (ID: 17146637/0x0105A30D), Machegue (ID: 17146637/0x0105A30D)], work=2450*
294: 0x09B0 [0x5B] LOAD_EXT_SCHEDULER: Load scheduler 0xFEFEFE00 with entities [Cyranuce (ID: 17146636/0x0105A30C), Cyranuce (ID: 17146636/0x0105A30C)], work=2448*
295: 0x09BF [0x52] END_LOAD_SCHEDULER: End scheduler "s094" with entities [EventEntity, EventEntity], work=406*
296: 0x09CE [0x45] LOAD_SCHEDULED_TASK: Load scheduler "s095" with entities [EventEntity, EventEntity], work=[406*, 0*]
297: 0x09DF [0x5C] MUSIC_CONTROL: Set Idle (Day) music to song 0*
298: 0x09E3 [0x5C] MUSIC_CONTROL: Set Idle (Night) music to song 0*
299: 0x09E7 [0x9A] WAIT_MUSIC_SERVER()
300: 0x09E8 [0x1C] WAIT(60* ticks)
301: 0x09EB [0x5B] LOAD_EXT_SCHEDULER: Load scheduler "hinl" with entities [Machegue (ID: 17146637/0x0105A30D), Machegue (ID: 17146637/0x0105A30D)], work=2450*
302: 0x09FA [0x5B] LOAD_EXT_SCHEDULER: Load scheduler "hinl" with entities [Cyranuce (ID: 17146636/0x0105A30C), Cyranuce (ID: 17146636/0x0105A30C)], work=2448*
303: 0x0A09 [0x2B] ??? (ID: 17146648/0x0105A318) [7930*]:
    → "<Player>!"
304: 0x0A10 [0x23] WAIT_FOR_DIALOG_INTERACTION
305: 0x0A11 [0x4A] LocalPlayer looks at Cyranuce (ID: 17146636/0x0105A30C)
306: 0x0A1A [0x7B] LocalPlayer stops talking
307: 0x0A1F [0x1C] WAIT(60* ticks)
308: 0x0A22 [0x52] END_LOAD_SCHEDULER: End scheduler "s095" with entities [EventEntity, EventEntity], work=406*
309: 0x0A31 [0x45] LOAD_SCHEDULED_TASK: Load scheduler "s096" with entities [EventEntity, EventEntity], work=[406*, 0*]
310: 0x0A42 [0x5B] LOAD_EXT_SCHEDULER: Load scheduler "hin0" with entities [Machegue (ID: 17146637/0x0105A30D), Machegue (ID: 17146637/0x0105A30D)], work=2450*
311: 0x0A51 [0x5B] LOAD_EXT_SCHEDULER: Load scheduler "hin0" with entities [Cyranuce (ID: 17146636/0x0105A30C), Cyranuce (ID: 17146636/0x0105A30C)], work=2448*
312: 0x0A60 [0x1C] WAIT(10* ticks)
313: 0x0A63 [0x4A] Alphonimile (ID: 17146635/0x0105A30B) looks at Cyranuce (ID: 17146636/0x0105A30C)
314: 0x0A6C [0x4A] Jayramus (ID: 17146638/0x0105A30E) looks at Cyranuce (ID: 17146636/0x0105A30C)
315: 0x0A75 [0x7B] Alphonimile (ID: 17146635/0x0105A30B) stops talking
316: 0x0A7A [0x7B] Jayramus (ID: 17146638/0x0105A30E) stops talking
317: 0x0A7F [0x55] WAIT_LOAD_SCHEDULER: Wait for scheduler "s096" with entities [EventEntity, EventEntity], work=406*
318: 0x0A8E [0x45] LOAD_SCHEDULED_TASK: Load scheduler "s097" with entities [EventEntity, EventEntity], work=[406*, 0*]
319: 0x0A9F [0x03] Work_Zone[37] = 4294735377*
320: 0x0AA4 [0x03] Work_Zone[39] = 411958*
321: 0x0AA9 [0x03] Work_Zone[38] = 24411*
322: 0x0AAE [0x03] Work_Zone[40] = 3847*
323: 0x0AB3 [0x29] REQ_SET_WAIT(priority=0x0F, entity_id=Excenmille (ID: 17146634/0x0105A30A), tag_num=0x01)
324: 0x0ABA [0x5B] LOAD_EXT_SCHEDULER: Load scheduler "tls0" with entities [Excenmille (ID: 17146634/0x0105A30A), Excenmille (ID: 17146634/0x0105A30A)], work=1272*
325: 0x0AC9 [0x2B] Excenmille (ID: 17146634/0x0105A30A) [7931*]:
    → "Cyranuce! Machegue!"
326: 0x0AD0 [0x23] WAIT_FOR_DIALOG_INTERACTION
327: 0x0AD1 [0x5B] LOAD_EXT_SCHEDULER: Load scheduler "tls1" with entities [Excenmille (ID: 17146634/0x0105A30A), Excenmille (ID: 17146634/0x0105A30A)], work=1272*
328: 0x0AE0 [0x52] END_LOAD_SCHEDULER: End scheduler "s097" with entities [EventEntity, EventEntity], work=406*
329: 0x0AEF [0x45] LOAD_SCHEDULED_TASK: Load scheduler "s098" with entities [EventEntity, EventEntity], work=[406*, 0*]
330: 0x0B00 [0x5B] LOAD_EXT_SCHEDULER: Load scheduler "hin1" with entities [Machegue (ID: 17146637/0x0105A30D), Machegue (ID: 17146637/0x0105A30D)], work=2450*
331: 0x0B0F [0x5B] LOAD_EXT_SCHEDULER: Load scheduler "hin1" with entities [Cyranuce (ID: 17146636/0x0105A30C), Cyranuce (ID: 17146636/0x0105A30C)], work=2448*
332: 0x0B1E [0x2B] Cyranuce (ID: 17146636/0x0105A30C) [7932*]:
    → "Excenmille!"
333: 0x0B25 [0x23] WAIT_FOR_DIALOG_INTERACTION
334: 0x0B26 [0xBA] SET_ENTITY_POSITION(entity_id=LocalPlayer, pos_x=-226.894*, pos_z=415.525*, pos_y=24.247*, direction=20.7°*)
335: 0x0B33 [0xBA] SET_ENTITY_POSITION(entity_id=Alphonimile (ID: 17146635/0x0105A30B), pos_x=-228.385*, pos_z=413.260*, pos_y=24.244*, direction=24.0°*)
336: 0x0B40 [0xBA] SET_ENTITY_POSITION(entity_id=Excenmille (ID: 17146634/0x0105A30A), pos_x=-226.897*, pos_z=411.737*, pos_y=24.290*, direction=20.6°*)
337: 0x0B4D [0x52] END_LOAD_SCHEDULER: End scheduler "s098" with entities [EventEntity, EventEntity], work=406*
338: 0x0B5C [0x45] LOAD_SCHEDULED_TASK: Load scheduler "s099" with entities [EventEntity, EventEntity], work=[406*, 0*]
339: 0x0B6D [0x03] Work_Zone[37] = 4294745539*
340: 0x0B72 [0x03] Work_Zone[39] = 413532*
341: 0x0B77 [0x03] Work_Zone[38] = 24398*
342: 0x0B7C [0x03] Work_Zone[40] = 3243*
343: 0x0B81 [0x27] REQ_SET(priority=0x0F, entity_id=Excenmille (ID: 17146634/0x0105A30A), tag_num=0x01)
344: 0x0B88 [0x1C] WAIT(5* ticks)
345: 0x0B8B [0x03] Work_Zone[37] = 4294744706*
346: 0x0B90 [0x03] Work_Zone[39] = 416180*
347: 0x0B95 [0x03] Work_Zone[38] = 24229*
348: 0x0B9A [0x03] Work_Zone[40] = 3969*
349: 0x0B9F [0x27] REQ_SET(priority=0x0F, entity_id=LocalPlayer, tag_num=0x01)
350: 0x0BA6 [0x1C] WAIT(5* ticks)
351: 0x0BA9 [0x03] Work_Zone[37] = 4294744234*
352: 0x0BAE [0x03] Work_Zone[39] = 414417*
353: 0x0BB3 [0x03] Work_Zone[38] = 24398*
354: 0x0BB8 [0x03] Work_Zone[40] = 3717*
355: 0x0BBD [0x27] REQ_SET(priority=0x0F, entity_id=Alphonimile (ID: 17146635/0x0105A30B), tag_num=0x02)
356: 0x0BC4 [0x2A] GET_REQ_LEVEL(level=15, entity_id=Excenmille (ID: 17146634/0x0105A30A))
357: 0x0BCA [0x4A] Excenmille (ID: 17146634/0x0105A30A) looks at Cyranuce (ID: 17146636/0x0105A30C)
358: 0x0BD3 [0x7B] Excenmille (ID: 17146634/0x0105A30A) stops talking
359: 0x0BD8 [0x2A] GET_REQ_LEVEL(level=15, entity_id=LocalPlayer)
360: 0x0BDE [0x4A] LocalPlayer looks at Cyranuce (ID: 17146636/0x0105A30C)
361: 0x0BE7 [0x7B] LocalPlayer stops talking
362: 0x0BEC [0x6F] WAIT_FRAME_DELAY: Yield until WaitTime reaches zero
363: 0x0BED [0x76] CHECK_ENTITY_RENDER_FLAGS: Wait until LocalPlayer Render.Flags0 and Render.Flags3 conditions are met
364: 0x0BF2 [0x6F] WAIT_FRAME_DELAY: Yield until WaitTime reaches zero
365: 0x0BF3 [0x76] CHECK_ENTITY_RENDER_FLAGS: Wait until Excenmille (ID: 17146634/0x0105A30A) Render.Flags0 and Render.Flags3 conditions are met
366: 0x0BF8 [0x55] WAIT_LOAD_SCHEDULER: Wait for scheduler "s099" with entities [EventEntity, EventEntity], work=406*
367: 0x0C07 [0x45] LOAD_SCHEDULED_TASK: Load scheduler "s100" with entities [EventEntity, EventEntity], work=[406*, 0*]
368: 0x0C18 [0x2B] Excenmille (ID: 17146634/0x0105A30A) [7933*]:
    → "Machegue? You've been wounded?"
369: 0x0C1F [0x23] WAIT_FOR_DIALOG_INTERACTION
370: 0x0C20 [0x81] SET_ENTITY_BLINKING(blink_flag=0x00, entity=Machegue (ID: 17146637/0x0105A30D))
371: 0x0C26 [0x5B] LOAD_EXT_SCHEDULER: Load scheduler "hin2" with entities [Machegue (ID: 17146637/0x0105A30D), Machegue (ID: 17146637/0x0105A30D)], work=2450*
372: 0x0C35 [0x5B] LOAD_EXT_SCHEDULER: Load scheduler "hin2" with entities [Cyranuce (ID: 17146636/0x0105A30C), Cyranuce (ID: 17146636/0x0105A30C)], work=2448*
373: 0x0C44 [0x2B] Cyranuce (ID: 17146636/0x0105A30C) [7934*]:
    → "I found him slumped against a tree trunk on our way here. He needs immediate attention--"
374: 0x0C4B [0x23] WAIT_FOR_DIALOG_INTERACTION
375: 0x0C4C [0x53] WAIT_SCHEDULER_TASK: Wait for scheduler "hin2" with entities [Machegue (ID: 17146637/0x0105A30D), Machegue (ID: 17146637/0x0105A30D)]
376: 0x0C59 [0x53] WAIT_SCHEDULER_TASK: Wait for scheduler "hin2" with entities [Cyranuce (ID: 17146636/0x0105A30C), Cyranuce (ID: 17146636/0x0105A30C)]
377: 0x0C66 [0x5B] LOAD_EXT_SCHEDULER: Load scheduler "hin3" with entities [Machegue (ID: 17146637/0x0105A30D), Machegue (ID: 17146637/0x0105A30D)], work=2451*
378: 0x0C75 [0x5B] LOAD_EXT_SCHEDULER: Load scheduler "hin3" with entities [Cyranuce (ID: 17146636/0x0105A30C), Cyranuce (ID: 17146636/0x0105A30C)], work=2449*
379: 0x0C84 [0x2B] Machegue (ID: 17146637/0x0105A30D) [7935*]:
    → "W-wait, Cyranuce, we haven't time for that."
380: 0x0C8B [0x23] WAIT_FOR_DIALOG_INTERACTION
381: 0x0C8C [0x52] END_LOAD_SCHEDULER: End scheduler "s100" with entities [EventEntity, EventEntity], work=406*
382: 0x0C9B [0x45] LOAD_SCHEDULED_TASK: Load scheduler "s101" with entities [EventEntity, EventEntity], work=[406*, 0*]
383: 0x0CAC [0x2B] Machegue (ID: 17146637/0x0105A30D) [7936*]:
    → "Captain Alphonimile. I overheard a conversation between Orcish scouts, sir."
384: 0x0CB3 [0x23] WAIT_FOR_DIALOG_INTERACTION
385: 0x0CB4 [0x52] END_LOAD_SCHEDULER: End scheduler "s101" with entities [EventEntity, EventEntity], work=406*
386: 0x0CC3 [0x45] LOAD_SCHEDULED_TASK: Load scheduler "s102" with entities [EventEntity, EventEntity], work=[406*, 0*]
387: 0x0CD4 [0x2B] Machegue (ID: 17146637/0x0105A30D) [7937*]:
    → "The Orcs...they've altered their plans. They intend to take the behemoths not through the Pashhow Marshlands, but Jugner Forest."
388: 0x0CDB [0x23] WAIT_FOR_DIALOG_INTERACTION
389: 0x0CDC [0x55] WAIT_LOAD_SCHEDULER: Wait for scheduler "s102" with entities [EventEntity, EventEntity], work=406*
390: 0x0CEB [0x45] LOAD_SCHEDULED_TASK: Load scheduler "s103" with entities [EventEntity, EventEntity], work=[406*, 0*]
391: 0x0CFC [0x1C] WAIT(15* ticks)
392: 0x0CFF [0xBA] SET_ENTITY_POSITION(entity_id=LocalPlayer, pos_x=-220.558*, pos_z=415.851*, pos_y=24.319*, direction=67.1°*)
393: 0x0D0C [0xBA] SET_ENTITY_POSITION(entity_id=Excenmille (ID: 17146634/0x0105A30A), pos_x=-223.060*, pos_z=412.868*, pos_y=24.398*, direction=345.2°*)
394: 0x0D19 [0xBA] SET_ENTITY_POSITION(entity_id=??? (ID: 17146648/0x0105A318), pos_x=-220.913*, pos_z=413.890*, pos_y=24.398*, direction=74.2°*)
395: 0x0D26 [0xBA] SET_ENTITY_POSITION(entity_id=Cyranuce (ID: 17146636/0x0105A30C), pos_x=-219.465*, pos_z=413.426*, pos_y=24.385*, direction=162.6°*)
396: 0x0D33 [0xBA] SET_ENTITY_POSITION(entity_id=Machegue (ID: 17146637/0x0105A30D), pos_x=-219.465*, pos_z=413.426*, pos_y=24.385*, direction=162.6°*)
397: 0x0D40 [0xBA] SET_ENTITY_POSITION(entity_id=Jayramus (ID: 17146638/0x0105A30E), pos_x=-224.098*, pos_z=408.531*, pos_y=24.523*, direction=100.2°*)
398: 0x0D4D [0x4B] UPDATE_ENTITY_YAW(entity=LocalPlayer, yaw=5.7°*)
399: 0x0D54 [0x4A] Excenmille (ID: 17146634/0x0105A30A) looks at Cyranuce (ID: 17146636/0x0105A30C)
400: 0x0D5D [0x4A] LocalPlayer looks at ??? (ID: 17146648/0x0105A318)
401: 0x0D66 [0x7B] Excenmille (ID: 17146634/0x0105A30A) stops talking
402: 0x0D6B [0x55] WAIT_LOAD_SCHEDULER: Wait for scheduler "s103" with entities [EventEntity, EventEntity], work=406*
403: 0x0D7A [0x2B] Alphonimile (ID: 17146635/0x0105A30B) [7938*]:
    → "Jugner Forest!?"
404: 0x0D81 [0x23] WAIT_FOR_DIALOG_INTERACTION
405: 0x0D82 [0x03] Work_Zone[37] = 4294745499*
406: 0x0D87 [0x03] Work_Zone[39] = 411010*
407: 0x0D8C [0x03] Work_Zone[38] = 24398*
408: 0x0D91 [0x03] Work_Zone[40] = 3113*
409: 0x0D96 [0x27] REQ_SET(priority=0x10, entity_id=Jayramus (ID: 17146638/0x0105A30E), tag_num=0x02)
410: 0x0D9D [0x1C] WAIT(30* ticks)
411: 0x0DA0 [0x45] LOAD_SCHEDULED_TASK: Load scheduler "s111" with entities [EventEntity, EventEntity], work=[406*, 0*]
412: 0x0DB1 [0x1C] WAIT(60* ticks)
413: 0x0DB4 [0x2B] Jayramus (ID: 17146638/0x0105A30E) [7939*]:
    → "I see. The weight they place on delivering the behemoths to Tavnazia is such that they'd go to great pains to avoid an unprofitable confrontation with us."
414: 0x0DBB [0x23] WAIT_FOR_DIALOG_INTERACTION
415: 0x0DBC [0x52] END_LOAD_SCHEDULER: End scheduler "s111" with entities [EventEntity, EventEntity], work=406*
416: 0x0DCB [0x45] LOAD_SCHEDULED_TASK: Load scheduler "s104" with entities [EventEntity, EventEntity], work=[406*, 0*]
417: 0x0DDC [0x6C] FADE_ENTITY_COLOR(entity_id=Jayramus (ID: 17146638/0x0105A30E), end_alpha=0*, fade_time=1*)
418: 0x0DE5 [0xC5] LOAD_SCHEDULED_TASK_ALT3: Load scheduler 0x80353030 for entities [Machegue (ID: 17146637/0x0105A30D), Machegue (ID: 17146637/0x0105A30D)], work=115*, param=12403
419: 0x0DF6 [0x5B] LOAD_EXT_SCHEDULER: Load scheduler "hin4" with entities [Machegue (ID: 17146637/0x0105A30D), Machegue (ID: 17146637/0x0105A30D)], work=2451*
420: 0x0E05 [0x5B] LOAD_EXT_SCHEDULER: Load scheduler "hin4" with entities [Cyranuce (ID: 17146636/0x0105A30C), Cyranuce (ID: 17146636/0x0105A30C)], work=2449*
421: 0x0E14 [0x55] WAIT_LOAD_SCHEDULER: Wait for scheduler "s104" with entities [EventEntity, EventEntity], work=406*
422: 0x0E23 [0x45] LOAD_SCHEDULED_TASK: Load scheduler "s105" with entities [EventEntity, EventEntity], work=[406*, 0*]
423: 0x0E34 [0x5B] LOAD_EXT_SCHEDULER: Load scheduler "bik0" with entities [Excenmille (ID: 17146634/0x0105A30A), Excenmille (ID: 17146634/0x0105A30A)], work=1437*
424: 0x0E43 [0x55] WAIT_LOAD_SCHEDULER: Wait for scheduler "s105" with entities [EventEntity, EventEntity], work=406*
425: 0x0E52 [0x6E] LocalPlayer uses emote 21*
426: 0x0E59 [0x99] Wait for LocalPlayer animation to complete
427: 0x0E5E [0x99] Wait for LocalPlayer animation to complete
428: 0x0E63 [0x45] LOAD_SCHEDULED_TASK: Load scheduler "s106" with entities [EventEntity, EventEntity], work=[406*, 0*]
429: 0x0E74 [0x55] WAIT_LOAD_SCHEDULER: Wait for scheduler "s106" with entities [EventEntity, EventEntity], work=406*
430: 0x0E83 [0x45] LOAD_SCHEDULED_TASK: Load scheduler "s107" with entities [EventEntity, EventEntity], work=[406*, 0*]
431: 0x0E94 [0x2B] Cyranuce (ID: 17146636/0x0105A30C) [7940*]:
    → "Machegue! Be strong now!"
432: 0x0E9B [0x23] WAIT_FOR_DIALOG_INTERACTION
433: 0x0E9C [0x7B] LocalPlayer stops talking
434: 0x0EA1 [0x1A] CALL_SUBROUTINE(address=0x28B9)
435: 0x0EA4 [0x52] END_LOAD_SCHEDULER: End scheduler "s107" with entities [EventEntity, EventEntity], work=406*
436: 0x0EB3 [0xBA] SET_ENTITY_POSITION(entity_id=LocalPlayer, pos_x=-238.911*, pos_z=401.463*, pos_y=24.648*, direction=128.6°*)
437: 0x0EC0 [0xBA] SET_ENTITY_POSITION(entity_id=Cyranuce (ID: 17146636/0x0105A30C), pos_x=-240.063*, pos_z=400.026*, pos_y=24.646*, direction=152.3°*)
438: 0x0ECD [0xBA] SET_ENTITY_POSITION(entity_id=Machegue (ID: 17146637/0x0105A30D), pos_x=-240.063*, pos_z=400.026*, pos_y=24.646*, direction=152.3°*)
439: 0x0EDA [0xBA] SET_ENTITY_POSITION(entity_id=??? (ID: 17146648/0x0105A318), pos_x=-239.545*, pos_z=400.292*, pos_y=24.648*, direction=128.6°*)
440: 0x0EE7 [0xBA] SET_ENTITY_POSITION(entity_id=Alphonimile (ID: 17146635/0x0105A30B), pos_x=-237.188*, pos_z=400.154*, pos_y=24.648*, direction=169.3°*)
441: 0x0EF4 [0xBA] SET_ENTITY_POSITION(entity_id=Excenmille (ID: 17146634/0x0105A30A), pos_x=-240.339*, pos_z=400.870*, pos_y=24.644*, direction=47.1°*)
442: 0x0F01 [0xBA] SET_ENTITY_POSITION(entity_id=Jayramus (ID: 17146638/0x0105A30E), pos_x=0.000*, pos_z=0.000*, pos_y=3.000*, direction=0.0°*)
443: 0x0F0E [0xBA] SET_ENTITY_POSITION(entity_id=kisiA (ID: 17146639/0x0105A30F), pos_x=0.000*, pos_z=0.000*, pos_y=3.000*, direction=0.0°*)
444: 0x0F1B [0xBA] SET_ENTITY_POSITION(entity_id=kisiB (ID: 17146640/0x0105A310), pos_x=0.000*, pos_z=0.000*, pos_y=3.000*, direction=0.0°*)
445: 0x0F28 [0xBA] SET_ENTITY_POSITION(entity_id=kisiC (ID: 17146641/0x0105A311), pos_x=0.000*, pos_z=0.000*, pos_y=3.000*, direction=0.0°*)
446: 0x0F35 [0xBA] SET_ENTITY_POSITION(entity_id=Unknown NPC (ID: 17146644/0x0105A314), pos_x=0.000*, pos_z=0.000*, pos_y=3.000*, direction=0.0°*)
447: 0x0F42 [0xBA] SET_ENTITY_POSITION(entity_id=kisiD (ID: 17146642/0x0105A312), pos_x=0.000*, pos_z=0.000*, pos_y=3.000*, direction=0.0°*)
448: 0x0F4F [0xBA] SET_ENTITY_POSITION(entity_id=kisiE (ID: 17146643/0x0105A313), pos_x=0.000*, pos_z=0.000*, pos_y=3.000*, direction=0.0°*)
449: 0x0F5C [0xBA] SET_ENTITY_POSITION(entity_id=Unknown NPC (ID: 17146645/0x0105A315), pos_x=0.000*, pos_z=0.000*, pos_y=3.000*, direction=0.0°*)
450: 0x0F69 [0xBA] SET_ENTITY_POSITION(entity_id=Unknown NPC (ID: 17146646/0x0105A316), pos_x=0.000*, pos_z=0.000*, pos_y=3.000*, direction=0.0°*)
451: 0x0F76 [0xBA] SET_ENTITY_POSITION(entity_id=Unknown NPC (ID: 17146647/0x0105A317), pos_x=0.000*, pos_z=0.000*, pos_y=3.000*, direction=0.0°*)
452: 0x0F83 [0x4A] LocalPlayer looks at ??? (ID: 17146648/0x0105A318)
453: 0x0F8C [0x4A] Alphonimile (ID: 17146635/0x0105A30B) looks at ??? (ID: 17146648/0x0105A318)
454: 0x0F95 [0x6C] FADE_ENTITY_COLOR(entity_id=Jayramus (ID: 17146638/0x0105A30E), end_alpha=128*, fade_time=1*)
455: 0x0F9E [0x5B] LOAD_EXT_SCHEDULER: Load scheduler "shcl" with entities [Excenmille (ID: 17146634/0x0105A30A), Excenmille (ID: 17146634/0x0105A30A)], work=2442*
456: 0x0FAD [0x5B] LOAD_EXT_SCHEDULER: Load scheduler "mod0" with entities [Machegue (ID: 17146637/0x0105A30D), Machegue (ID: 17146637/0x0105A30D)], work=2653*
457: 0x0FBC [0x5B] LOAD_EXT_SCHEDULER: Load scheduler "mod0" with entities [Cyranuce (ID: 17146636/0x0105A30C), Cyranuce (ID: 17146636/0x0105A30C)], work=2651*
458: 0x0FCB [0x81] SET_ENTITY_BLINKING(blink_flag=0x00, entity=Machegue (ID: 17146637/0x0105A30D))
459: 0x0FD1 [0x5C] MUSIC_CONTROL: Set Idle (Day) music to song 127*
460: 0x0FD5 [0x5C] MUSIC_CONTROL: Set Idle (Night) music to song 127*
461: 0x0FD9 [0x9A] WAIT_MUSIC_SERVER()
462: 0x0FDA [0x45] LOAD_SCHEDULED_TASK: Load scheduler "fdi2" with entities [EventEntity, EventEntity], work=[200*, 0*]
463: 0x0FEB [0x45] LOAD_SCHEDULED_TASK: Load scheduler "s108" with entities [EventEntity, EventEntity], work=[406*, 0*]
464: 0x0FFC [0x5B] LOAD_EXT_SCHEDULER: Load scheduler "shc0" with entities [Excenmille (ID: 17146634/0x0105A30A), Excenmille (ID: 17146634/0x0105A30A)], work=2442*
465: 0x100B [0x2B] Excenmille (ID: 17146634/0x0105A30A) [7941*]:
    → "He's bleeding badly!"
466: 0x1012 [0x23] WAIT_FOR_DIALOG_INTERACTION
467: 0x1013 [0x52] END_LOAD_SCHEDULER: End scheduler "s108" with entities [EventEntity, EventEntity], work=406*
468: 0x1022 [0x45] LOAD_SCHEDULED_TASK: Load scheduler "s109" with entities [EventEntity, EventEntity], work=[406*, 0*]
469: 0x1033 [0x5B] LOAD_EXT_SCHEDULER: Load scheduler "mtl0" with entities [Machegue (ID: 17146637/0x0105A30D), Machegue (ID: 17146637/0x0105A30D)], work=2653*
470: 0x1042 [0x2B] Machegue (ID: 17146637/0x0105A30D) [7942*]:
    → "Haha...ha... I sort of bungled...and was discovered by the Orcs, you see."
471: 0x1049 [0x23] WAIT_FOR_DIALOG_INTERACTION
472: 0x104A [0x2B] Machegue (ID: 17146637/0x0105A30D) [7943*]:
    → "I fled like a madman...but wasn't quick enough... An arrow...struck..."
473: 0x1051 [0x23] WAIT_FOR_DIALOG_INTERACTION
474: 0x1052 [0x53] WAIT_SCHEDULER_TASK: Wait for scheduler "shc0" with entities [Excenmille (ID: 17146634/0x0105A30A), Excenmille (ID: 17146634/0x0105A30A)]
475: 0x105F [0x5B] LOAD_EXT_SCHEDULER: Load scheduler "sha1" with entities [Excenmille (ID: 17146634/0x0105A30A), Excenmille (ID: 17146634/0x0105A30A)], work=1301*
476: 0x106E [0x2B] Excenmille (ID: 17146634/0x0105A30A) [7944*]:
    → "Hush now, Machegue! I'm going to fetch you some water!"
477: 0x1075 [0x23] WAIT_FOR_DIALOG_INTERACTION
478: 0x1076 [0x52] END_LOAD_SCHEDULER: End scheduler "s109" with entities [EventEntity, EventEntity], work=406*
479: 0x1085 [0x45] LOAD_SCHEDULED_TASK: Load scheduler "s110" with entities [EventEntity, EventEntity], work=[406*, 0*]
480: 0x1096 [0x2B] Machegue (ID: 17146637/0x0105A30D) [7945*]:
    → "C-Captain...don't leave me!"
481: 0x109D [0x23] WAIT_FOR_DIALOG_INTERACTION
482: 0x109E [0x5B] LOAD_EXT_SCHEDULER: Load scheduler "sha0" with entities [Excenmille (ID: 17146634/0x0105A30A), Excenmille (ID: 17146634/0x0105A30A)], work=1301*
483: 0x10AD [0x1C] WAIT(75* ticks)
484: 0x10B0 [0x5B] LOAD_EXT_SCHEDULER: Load scheduler "shb0" with entities [Excenmille (ID: 17146634/0x0105A30A), Excenmille (ID: 17146634/0x0105A30A)], work=2442*
485: 0x10BF [0x1C] WAIT(30* ticks)
486: 0x10C2 [0x5B] LOAD_EXT_SCHEDULER: Load scheduler "shc0" with entities [Excenmille (ID: 17146634/0x0105A30A), Excenmille (ID: 17146634/0x0105A30A)], work=2442*
487: 0x10D1 [0x2B] Excenmille (ID: 17146634/0x0105A30A) [7946*]:
    → "What is it, Machegue?"
488: 0x10D8 [0x23] WAIT_FOR_DIALOG_INTERACTION
489: 0x10D9 [0x52] END_LOAD_SCHEDULER: End scheduler "s110" with entities [EventEntity, EventEntity], work=406*
490: 0x10E8 [0x45] LOAD_SCHEDULED_TASK: Load scheduler "s115" with entities [EventEntity, EventEntity], work=[406*, 0*]
491: 0x10F9 [0x2B] Machegue (ID: 17146637/0x0105A30D) [7947*]:
    → "I'm sorry...I didn't come to see you off on your expedition..."
492: 0x1100 [0x23] WAIT_FOR_DIALOG_INTERACTION
493: 0x1101 [0x52] END_LOAD_SCHEDULER: End scheduler "s115" with entities [EventEntity, EventEntity], work=406*
494: 0x1110 [0x45] LOAD_SCHEDULED_TASK: Load scheduler "s116" with entities [EventEntity, EventEntity], work=[406*, 0*]
495: 0x1121 [0x5B] LOAD_EXT_SCHEDULER: Load scheduler "shc1" with entities [Excenmille (ID: 17146634/0x0105A30A), Excenmille (ID: 17146634/0x0105A30A)], work=2442*
496: 0x1130 [0x2B] Excenmille (ID: 17146634/0x0105A30A) [7948*]:
    → "Oh, that? I paid it no mind, so you needn't worry, either."
497: 0x1137 [0x23] WAIT_FOR_DIALOG_INTERACTION
498: 0x1138 [0x52] END_LOAD_SCHEDULER: End scheduler "s116" with entities [EventEntity, EventEntity], work=406*
499: 0x1147 [0x45] LOAD_SCHEDULED_TASK: Load scheduler "s117" with entities [EventEntity, EventEntity], work=[406*, 0*]
500: 0x1158 [0x5B] LOAD_EXT_SCHEDULER: Load scheduler "mtl1" with entities [Machegue (ID: 17146637/0x0105A30D), Machegue (ID: 17146637/0x0105A30D)], work=2653*
501: 0x1167 [0x2B] Machegue (ID: 17146637/0x0105A30D) [7949*]:
    → "Did...did I do well?"
502: 0x116E [0x23] WAIT_FOR_DIALOG_INTERACTION
503: 0x116F [0x52] END_LOAD_SCHEDULER: End scheduler "s117" with entities [EventEntity, EventEntity], work=406*
504: 0x117E [0x45] LOAD_SCHEDULED_TASK: Load scheduler "s118" with entities [EventEntity, EventEntity], work=[406*, 0*]
505: 0x118F [0x2B] Cyranuce (ID: 17146636/0x0105A30C) [7950*]:
    → "You did more than well, Machegue. You've earned as much right to be called a knight as Sir Vailanice."
506: 0x1196 [0x23] WAIT_FOR_DIALOG_INTERACTION
507: 0x1197 [0x52] END_LOAD_SCHEDULER: End scheduler "s118" with entities [EventEntity, EventEntity], work=406*
508: 0x11A6 [0x45] LOAD_SCHEDULED_TASK: Load scheduler "s119" with entities [EventEntity, EventEntity], work=[406*, 0*]
509: 0x11B7 [0x7C] Machegue (ID: 17146637/0x0105A30D)->Render.Flags2 |= 0x00
510: 0x11BD [0x5B] LOAD_EXT_SCHEDULER: Load scheduler "mtl2" with entities [Machegue (ID: 17146637/0x0105A30D), Machegue (ID: 17146637/0x0105A30D)], work=2653*
511: 0x11CC [0x2B] Machegue (ID: 17146637/0x0105A30D) [7951*]:
    → "Hehehe... Thank you...Cyra..."
512: 0x11D3 [0x23] WAIT_FOR_DIALOG_INTERACTION
513: 0x11D4 [0x52] END_LOAD_SCHEDULER: End scheduler "s119" with entities [EventEntity, EventEntity], work=406*
514: 0x11E3 [0x5D] SET_MUSIC_VOLUME(volume=0*, fade_time=240*)
515: 0x11E8 [0x45] LOAD_SCHEDULED_TASK: Load scheduler "s120" with entities [EventEntity, EventEntity], work=[406*, 0*]
516: 0x11F9 [0x2B] Cyranuce (ID: 17146636/0x0105A30C) [7952*]:
    → "Machegue, how many times must I remind you to call me not--"
517: 0x1200 [0x23] WAIT_FOR_DIALOG_INTERACTION
518: 0x1201 [0x52] END_LOAD_SCHEDULER: End scheduler "s120" with entities [EventEntity, EventEntity], work=406*
519: 0x1210 [0x45] LOAD_SCHEDULED_TASK: Load scheduler "s121" with entities [EventEntity, EventEntity], work=[406*, 0*]
520: 0x1221 [0x81] SET_ENTITY_BLINKING(blink_flag=0x00, entity=Excenmille (ID: 17146634/0x0105A30A))
521: 0x1227 [0x5B] LOAD_EXT_SCHEDULER: Load scheduler "shc2" with entities [Excenmille (ID: 17146634/0x0105A30A), Excenmille (ID: 17146634/0x0105A30A)], work=2442*
522: 0x1236 [0x55] WAIT_LOAD_SCHEDULER: Wait for scheduler "s121" with entities [EventEntity, EventEntity], work=406*
523: 0x1245 [0x45] LOAD_SCHEDULED_TASK: Load scheduler "fdi2" with entities [EventEntity, EventEntity], work=[200*, 0*]
524: 0x1256 [0x45] LOAD_SCHEDULED_TASK: Load scheduler "s122" with entities [EventEntity, EventEntity], work=[406*, 0*]
525: 0x1267 [0x5B] LOAD_EXT_SCHEDULER: Load scheduler "mod1" with entities [Machegue (ID: 17146637/0x0105A30D), Machegue (ID: 17146637/0x0105A30D)], work=2654*
526: 0x1276 [0x5B] LOAD_EXT_SCHEDULER: Load scheduler "mod1" with entities [Cyranuce (ID: 17146636/0x0105A30C), Cyranuce (ID: 17146636/0x0105A30C)], work=2651*
527: 0x1285 [0x2B] Cyranuce (ID: 17146636/0x0105A30C) [7953*]:
    → "Machegue?"
528: 0x128C [0x23] WAIT_FOR_DIALOG_INTERACTION
529: 0x128D [0x55] WAIT_LOAD_SCHEDULER: Wait for scheduler "s122" with entities [EventEntity, EventEntity], work=406*
530: 0x129C [0x45] LOAD_SCHEDULED_TASK: Load scheduler "s123" with entities [EventEntity, EventEntity], work=[406*, 0*]
531: 0x12AD [0x2B] Cyranuce (ID: 17146636/0x0105A30C) [7954*]:
    → "No... This is just a bad dream, right? It has to be..."
532: 0x12B4 [0x23] WAIT_FOR_DIALOG_INTERACTION
533: 0x12B5 [0x52] END_LOAD_SCHEDULER: End scheduler "s123" with entities [EventEntity, EventEntity], work=406*
534: 0x12C4 [0x45] LOAD_SCHEDULED_TASK: Load scheduler "s124" with entities [EventEntity, EventEntity], work=[406*, 0*]
535: 0x12D5 [0x5B] LOAD_EXT_SCHEDULER: Load scheduler "mod2" with entities [Machegue (ID: 17146637/0x0105A30D), Machegue (ID: 17146637/0x0105A30D)], work=2654*
536: 0x12E4 [0x5B] LOAD_EXT_SCHEDULER: Load scheduler "mod2" with entities [Cyranuce (ID: 17146636/0x0105A30C), Cyranuce (ID: 17146636/0x0105A30C)], work=2651*
537: 0x12F3 [0x2B] Cyranuce (ID: 17146636/0x0105A30C) [7955*]:
    → "Machegue! Open your eyes! Open them now and call me "Cyranuce"!"
538: 0x12FA [0x23] WAIT_FOR_DIALOG_INTERACTION
539: 0x12FB [0x55] WAIT_LOAD_SCHEDULER: Wait for scheduler "s124" with entities [EventEntity, EventEntity], work=406*
540: 0x130A [0x45] LOAD_SCHEDULED_TASK: Load scheduler "s125" with entities [EventEntity, EventEntity], work=[406*, 0*]
541: 0x131B [0x55] WAIT_LOAD_SCHEDULER: Wait for scheduler "s125" with entities [EventEntity, EventEntity], work=406*
542: 0x132A [0x45] LOAD_SCHEDULED_TASK: Load scheduler "s126" with entities [EventEntity, EventEntity], work=[406*, 0*]
543: 0x133B [0x5B] LOAD_EXT_SCHEDULER: Load scheduler "mod3" with entities [Cyranuce (ID: 17146636/0x0105A30C), Cyranuce (ID: 17146636/0x0105A30C)], work=2652*
544: 0x134A [0x2B] Cyranuce (ID: 17146636/0x0105A30C) [7956*]:
    → "Excenmille! Captain Alphonimile! Please, help him! Help Machegue!"
545: 0x1351 [0x23] WAIT_FOR_DIALOG_INTERACTION
546: 0x1352 [0x55] WAIT_LOAD_SCHEDULER: Wait for scheduler "s126" with entities [EventEntity, EventEntity], work=406*
547: 0x1361 [0x45] LOAD_SCHEDULED_TASK: Load scheduler "s127" with entities [EventEntity, EventEntity], work=[406*, 0*]
