# 17146623

## Common Data

| Field            | Value                           |
|------------------|---------------------------------|
| Zone             | Pashhow Marshlands [S] (ID: 90) |
| Block Size       | 752 bytes                       |
| Total Events     | 14                              |
| References Count | 23                              |

## List of Events

| Event ID                 | Entrypoint   |   Size |   Instructions |
|--------------------------|--------------|--------|----------------|
| [65535](#event-65535)    | 0x0000       |      1 |              1 |
| [2](#event-2)            | 0x0001       |      1 |              1 |
| [5](#event-5)            | 0x0002       |      1 |              1 |
| [65535.1](#event-655351) | 0x0003       |     12 |              3 |
| [65535.2](#event-655352) | 0x000F       |     13 |              3 |
| [65535.3](#event-655353) | 0x001C       |     57 |              7 |
| [65535.4](#event-655354) | 0x0055       |      7 |              2 |
| [7](#event-7)            | 0x005C       |      1 |              1 |
| [8](#event-8)            | 0x005D       |      1 |              1 |
| [65535.5](#event-655355) | 0x005E       |    256 |             30 |
| [65535.6](#event-655356) | 0x015E       |    232 |             26 |
| [9](#event-9)            | 0x0246       |      1 |              1 |
| [10](#event-10)          | 0x0247       |      1 |              1 |
| [12](#event-12)          | 0x0248       |      1 |              1 |

## DAT References (imed_data)

|   Index | Hex Value   |   Dec Value |
|---------|-------------|-------------|
|       0 | 0xFFF9056A  |  4294509930 |
|       1 | 0xFFFA6FC1  |  4294602689 |
|       2 | 0x5FD4      |       24532 |
|       3 | 0x0E47      |        3655 |
|       4 | 0x001E      |          30 |
|       5 | 0x0080      |         128 |
|       6 | 0x0001      |           1 |
|       7 | 0x0510      |        1296 |
|       8 | 0x003C      |          60 |
|       9 | 0x0095      |         149 |
|      10 | 0x0000      |           0 |
|      11 | 0x0078      |         120 |
|      12 | 0x000E      |          14 |
|      13 | 0x00F0      |         240 |
|      14 | 0x0241      |         577 |
|      15 | 0x0002      |           2 |
|      16 | 0x0003      |           3 |
|      17 | 0x0004      |           4 |
|      18 | 0x0005      |           5 |
|      19 | 0x0006      |           6 |
|      20 | 0x0007      |           7 |
|      21 | 0x0008      |           8 |
|      22 | 0x00B4      |         180 |

## Events

### Event 65535

#### Metadata

| Field        | Value   |
|--------------|---------|
| Entrypoint   | 0x0000  |
| Data Size    | 1 bytes |
| Instructions | 1       |

```
      00 01 02 03 04 05 06 07  08 09 0A 0B 0C 0D 0E 0F
      -- -- -- -- -- -- -- --  -- -- -- -- -- -- -- --
0000: 00                                                .               
```

#### Opcodes

```
  0: 0x0000 [0x00] END_REQSTACK()
```

### Event 2

#### Metadata

| Field        | Value   |
|--------------|---------|
| Entrypoint   | 0x0001  |
| Data Size    | 1 bytes |
| Instructions | 1       |

```
      00 01 02 03 04 05 06 07  08 09 0A 0B 0C 0D 0E 0F
      -- -- -- -- -- -- -- --  -- -- -- -- -- -- -- --
0000:    00                                              .              
```

#### Opcodes

```
  0: 0x0001 [0x00] END_REQSTACK()
```

### Event 5

#### Metadata

| Field        | Value   |
|--------------|---------|
| Entrypoint   | 0x0002  |
| Data Size    | 1 bytes |
| Instructions | 1       |

```
      00 01 02 03 04 05 06 07  08 09 0A 0B 0C 0D 0E 0F
      -- -- -- -- -- -- -- --  -- -- -- -- -- -- -- --
0000:       00                                            .             
```

#### Opcodes

```
  0: 0x0002 [0x00] END_REQSTACK()
```

### Event 65535.1

#### Metadata

| Field        | Value    |
|--------------|----------|
| Entrypoint   | 0x0003   |
| Data Size    | 12 bytes |
| Instructions | 3        |

```
      00 01 02 03 04 05 06 07  08 09 0A 0B 0C 0D 0E 0F
      -- -- -- -- -- -- -- --  -- -- -- -- -- -- -- --
0000:          33 01 37 00 80  01 80 02 80 03 80 00        3.7......... 
```

#### Opcodes

```
  0: 0x0003 [0x33] EventEntity->Render.Flags0 |= 0x200000 // Bit 21 (flag=0x01)
  1: 0x0005 [0x37] UPDATE_EVENT_POSITION_AND_DIR: x=-457.366*, z=-364.607*, y=24.532*, direction=321.2°*
  2: 0x000E [0x00] END_REQSTACK()
```

### Event 65535.2

#### Metadata

| Field        | Value    |
|--------------|----------|
| Entrypoint   | 0x000F   |
| Data Size    | 13 bytes |
| Instructions | 3        |

```
      00 01 02 03 04 05 06 07  08 09 0A 0B 0C 0D 0E 0F
      -- -- -- -- -- -- -- --  -- -- -- -- -- -- -- --
0000:                                               1C                 .
0010: 04 80 6C 02 A3 05 01 05  80 06 80 00              ..l.........    
```

#### Opcodes

```
  0: 0x000F [0x1C] WAIT(30* ticks)
  1: 0x0012 [0x6C] FADE_ENTITY_COLOR(entity_id=Unnamed NPC (ID: 17146626/0x0105A302), end_alpha=128*, fade_time=1*)
  2: 0x001B [0x00] END_REQSTACK()
```

### Event 65535.3

#### Metadata

| Field        | Value    |
|--------------|----------|
| Entrypoint   | 0x001C   |
| Data Size    | 57 bytes |
| Instructions | 7        |

```
      00 01 02 03 04 05 06 07  08 09 0A 0B 0C 0D 0E 0F
      -- -- -- -- -- -- -- --  -- -- -- -- -- -- -- --
0010:                                      5B 07 80 01              [...
0020: A3 05 01 01 A3 05 01 62  6F 6B 30 1C 08 80 BB 09  .......bok0.....
0030: 80 01 A3 05 01 01 A3 05  01 6D 61 69 6E 0A 80 1C  .........main...
0040: 0B 80 5B 07 80 01 A3 05  01 01 A3 05 01 62 6F 6B  ..[..........bok
0050: 31 1C 0B 80 00                                    1....           
```

#### Opcodes

```
  0: 0x001C [0x5B] LOAD_EXT_SCHEDULER: Load scheduler "bok0" with entities [Schultz (ID: 17146625/0x0105A301), Schultz (ID: 17146625/0x0105A301)], work=1296*
  1: 0x002B [0x1C] WAIT(60* ticks)
  2: 0x002E [0xBB] LOAD_EVENT_SCHEDULER_ALT: Load scheduler "main" with entities [Schultz (ID: 17146625/0x0105A301), Schultz (ID: 17146625/0x0105A301)], work=[149*, 0*]
  3: 0x003F [0x1C] WAIT(120* ticks)
  4: 0x0042 [0x5B] LOAD_EXT_SCHEDULER: Load scheduler "bok1" with entities [Schultz (ID: 17146625/0x0105A301), Schultz (ID: 17146625/0x0105A301)], work=1296*
  5: 0x0051 [0x1C] WAIT(120* ticks)
  6: 0x0054 [0x00] END_REQSTACK()
```

### Event 65535.4

#### Metadata

| Field        | Value   |
|--------------|---------|
| Entrypoint   | 0x0055  |
| Data Size    | 7 bytes |
| Instructions | 2       |

```
      00 01 02 03 04 05 06 07  08 09 0A 0B 0C 0D 0E 0F
      -- -- -- -- -- -- -- --  -- -- -- -- -- -- -- --
0050:                AE 00 0C  80 0D 80 00                   .......    
```

#### Opcodes

```
  0: 0x0055 [0xAE] MULTI_PURPOSE_ENTITY_HANDLER(case_type=0x00 - Weather, param1=14*, param2=240*)
  1: 0x005B [0x00] END_REQSTACK()
```

### Event 7

#### Metadata

| Field        | Value   |
|--------------|---------|
| Entrypoint   | 0x005C  |
| Data Size    | 1 bytes |
| Instructions | 1       |

```
      00 01 02 03 04 05 06 07  08 09 0A 0B 0C 0D 0E 0F
      -- -- -- -- -- -- -- --  -- -- -- -- -- -- -- --
0050:                                      00                       .   
```

#### Opcodes

```
  0: 0x005C [0x00] END_REQSTACK()
```

### Event 8

#### Metadata

| Field        | Value   |
|--------------|---------|
| Entrypoint   | 0x005D  |
| Data Size    | 1 bytes |
| Instructions | 1       |

```
      00 01 02 03 04 05 06 07  08 09 0A 0B 0C 0D 0E 0F
      -- -- -- -- -- -- -- --  -- -- -- -- -- -- -- --
0050:                                         00                     .  
```

#### Opcodes

```
  0: 0x005D [0x00] END_REQSTACK()
```

### Event 65535.5

#### Metadata

| Field        | Value     |
|--------------|-----------|
| Entrypoint   | 0x005E    |
| Data Size    | 256 bytes |
| Instructions | 30        |

```
      00 01 02 03 04 05 06 07  08 09 0A 0B 0C 0D 0E 0F
      -- -- -- -- -- -- -- --  -- -- -- -- -- -- -- --
0050:                                            29 10                ).
0060: F0 FF FF 7F 1B 02 02 10  06 80 80 81 00 45 0E 80  .............E..
0070: F0 FF FF 7F F0 FF FF 7F  76 31 68 6D 0A 80 01 45  ........v1hm...E
0080: 01 02 02 10 0F 80 80 9D  00 45 0E 80 F0 FF FF 7F  .........E......
0090: F0 FF FF 7F 76 31 68 66  0A 80 01 45 01 02 02 10  ....v1hf...E....
00A0: 10 80 80 B9 00 45 0E 80  F0 FF FF 7F F0 FF FF 7F  .....E..........
00B0: 76 31 65 6D 0A 80 01 45  01 02 02 10 11 80 80 D5  v1em...E........
00C0: 00 45 0E 80 F0 FF FF 7F  F0 FF FF 7F 76 31 65 66  .E..........v1ef
00D0: 0A 80 01 45 01 02 02 10  12 80 80 F1 00 45 0E 80  ...E.........E..
00E0: F0 FF FF 7F F0 FF FF 7F  76 31 74 72 0A 80 01 45  ........v1tr...E
00F0: 01 02 02 10 13 80 80 0D  01 45 0E 80 F0 FF FF 7F  .........E......
0100: F0 FF FF 7F 76 31 74 72  0A 80 01 45 01 02 02 10  ....v1tr...E....
0110: 14 80 80 29 01 45 0E 80  F0 FF FF 7F F0 FF FF 7F  ...).E..........
0120: 76 31 6D 74 0A 80 01 45  01 02 02 10 15 80 80 45  v1mt...E.......E
0130: 01 45 0E 80 F0 FF FF 7F  F0 FF FF 7F 76 31 67 6C  .E..........v1gl
0140: 0A 80 01 45 01 1C 04 80  6B 69 64 6C 30 24 A3 05  ...E....kidl0$..
0150: 01 4A 24 A3 05 01 F0 FF  FF 7F 1C 16 80 00        .J$...........  
```

#### Opcodes

```
  0: 0x005E [0x29] REQ_SET_WAIT(priority=0x10, entity_id=LocalPlayer, tag_num=0x1B)
  1: 0x0065 [0x02] IF !(Work_Zone[2] == 1*) GOTO 0x0081
  2: 0x006D [0x45] LOAD_SCHEDULED_TASK: Load scheduler "v1hm" with entities [LocalPlayer, LocalPlayer], work=[577*, 0*]
  3: 0x007E [0x01] GOTO 0x0145
  4: 0x0081 [0x02] IF !(Work_Zone[2] == 2*) GOTO 0x009D
  5: 0x0089 [0x45] LOAD_SCHEDULED_TASK: Load scheduler "v1hf" with entities [LocalPlayer, LocalPlayer], work=[577*, 0*]
  6: 0x009A [0x01] GOTO 0x0145
  7: 0x009D [0x02] IF !(Work_Zone[2] == 3*) GOTO 0x00B9
  8: 0x00A5 [0x45] LOAD_SCHEDULED_TASK: Load scheduler "v1em" with entities [LocalPlayer, LocalPlayer], work=[577*, 0*]
  9: 0x00B6 [0x01] GOTO 0x0145
 10: 0x00B9 [0x02] IF !(Work_Zone[2] == 4*) GOTO 0x00D5
 11: 0x00C1 [0x45] LOAD_SCHEDULED_TASK: Load scheduler "v1ef" with entities [LocalPlayer, LocalPlayer], work=[577*, 0*]
 12: 0x00D2 [0x01] GOTO 0x0145
 13: 0x00D5 [0x02] IF !(Work_Zone[2] == 5*) GOTO 0x00F1
 14: 0x00DD [0x45] LOAD_SCHEDULED_TASK: Load scheduler "v1tr" with entities [LocalPlayer, LocalPlayer], work=[577*, 0*]
 15: 0x00EE [0x01] GOTO 0x0145
 16: 0x00F1 [0x02] IF !(Work_Zone[2] == 6*) GOTO 0x010D
 17: 0x00F9 [0x45] LOAD_SCHEDULED_TASK: Load scheduler "v1tr" with entities [LocalPlayer, LocalPlayer], work=[577*, 0*]
 18: 0x010A [0x01] GOTO 0x0145
 19: 0x010D [0x02] IF !(Work_Zone[2] == 7*) GOTO 0x0129
 20: 0x0115 [0x45] LOAD_SCHEDULED_TASK: Load scheduler "v1mt" with entities [LocalPlayer, LocalPlayer], work=[577*, 0*]
 21: 0x0126 [0x01] GOTO 0x0145
 22: 0x0129 [0x02] IF !(Work_Zone[2] == 8*) GOTO 0x0145
 23: 0x0131 [0x45] LOAD_SCHEDULED_TASK: Load scheduler "v1gl" with entities [LocalPlayer, LocalPlayer], work=[577*, 0*]
 24: 0x0142 [0x01] GOTO 0x0145

SUBROUTINE_0145:
 25: 0x0145 [0x1C] WAIT(30* ticks)
 26: 0x0148 [0x6B] STOP_AND_IDLE: Unnamed NPC (ID: 17146660/0x0105A324) stops current action and resets to idle (animation="idl0")
 27: 0x0151 [0x4A] Unnamed NPC (ID: 17146660/0x0105A324) looks at LocalPlayer
 28: 0x015A [0x1C] WAIT(180* ticks)
 29: 0x015D [0x00] END_REQSTACK()
```

### Event 65535.6

#### Metadata

| Field        | Value     |
|--------------|-----------|
| Entrypoint   | 0x015E    |
| Data Size    | 232 bytes |
| Instructions | 26        |

```
      00 01 02 03 04 05 06 07  08 09 0A 0B 0C 0D 0E 0F
      -- -- -- -- -- -- -- --  -- -- -- -- -- -- -- --
0150:                                            29 10                ).
0160: F0 FF FF 7F 1B 02 02 10  06 80 80 81 01 45 0E 80  .............E..
0170: F0 FF FF 7F F0 FF FF 7F  76 31 68 6D 0A 80 01 45  ........v1hm...E
0180: 02 02 02 10 0F 80 80 9D  01 45 0E 80 F0 FF FF 7F  .........E......
0190: F0 FF FF 7F 76 31 68 66  0A 80 01 45 02 02 02 10  ....v1hf...E....
01A0: 10 80 80 B9 01 45 0E 80  F0 FF FF 7F F0 FF FF 7F  .....E..........
01B0: 76 31 65 6D 0A 80 01 45  02 02 02 10 11 80 80 D5  v1em...E........
01C0: 01 45 0E 80 F0 FF FF 7F  F0 FF FF 7F 76 31 65 66  .E..........v1ef
01D0: 0A 80 01 45 02 02 02 10  12 80 80 F1 01 45 0E 80  ...E.........E..
01E0: F0 FF FF 7F F0 FF FF 7F  76 31 74 72 0A 80 01 45  ........v1tr...E
01F0: 02 02 02 10 13 80 80 0D  02 45 0E 80 F0 FF FF 7F  .........E......
0200: F0 FF FF 7F 76 31 74 72  0A 80 01 45 02 02 02 10  ....v1tr...E....
0210: 14 80 80 29 02 45 0E 80  F0 FF FF 7F F0 FF FF 7F  ...).E..........
0220: 76 31 6D 74 0A 80 01 45  02 02 02 10 15 80 80 45  v1mt...E.......E
0230: 02 45 0E 80 F0 FF FF 7F  F0 FF FF 7F 76 31 67 6C  .E..........v1gl
0240: 0A 80 01 45 02 00                                 ...E..          
```

#### Opcodes

```
  0: 0x015E [0x29] REQ_SET_WAIT(priority=0x10, entity_id=LocalPlayer, tag_num=0x1B)
  1: 0x0165 [0x02] IF !(Work_Zone[2] == 1*) GOTO 0x0181
  2: 0x016D [0x45] LOAD_SCHEDULED_TASK: Load scheduler "v1hm" with entities [LocalPlayer, LocalPlayer], work=[577*, 0*]
  3: 0x017E [0x01] GOTO 0x0245
  4: 0x0181 [0x02] IF !(Work_Zone[2] == 2*) GOTO 0x019D
  5: 0x0189 [0x45] LOAD_SCHEDULED_TASK: Load scheduler "v1hf" with entities [LocalPlayer, LocalPlayer], work=[577*, 0*]
  6: 0x019A [0x01] GOTO 0x0245
  7: 0x019D [0x02] IF !(Work_Zone[2] == 3*) GOTO 0x01B9
  8: 0x01A5 [0x45] LOAD_SCHEDULED_TASK: Load scheduler "v1em" with entities [LocalPlayer, LocalPlayer], work=[577*, 0*]
  9: 0x01B6 [0x01] GOTO 0x0245
 10: 0x01B9 [0x02] IF !(Work_Zone[2] == 4*) GOTO 0x01D5
 11: 0x01C1 [0x45] LOAD_SCHEDULED_TASK: Load scheduler "v1ef" with entities [LocalPlayer, LocalPlayer], work=[577*, 0*]
 12: 0x01D2 [0x01] GOTO 0x0245
 13: 0x01D5 [0x02] IF !(Work_Zone[2] == 5*) GOTO 0x01F1
 14: 0x01DD [0x45] LOAD_SCHEDULED_TASK: Load scheduler "v1tr" with entities [LocalPlayer, LocalPlayer], work=[577*, 0*]
 15: 0x01EE [0x01] GOTO 0x0245
 16: 0x01F1 [0x02] IF !(Work_Zone[2] == 6*) GOTO 0x020D
 17: 0x01F9 [0x45] LOAD_SCHEDULED_TASK: Load scheduler "v1tr" with entities [LocalPlayer, LocalPlayer], work=[577*, 0*]
 18: 0x020A [0x01] GOTO 0x0245
 19: 0x020D [0x02] IF !(Work_Zone[2] == 7*) GOTO 0x0229
 20: 0x0215 [0x45] LOAD_SCHEDULED_TASK: Load scheduler "v1mt" with entities [LocalPlayer, LocalPlayer], work=[577*, 0*]
 21: 0x0226 [0x01] GOTO 0x0245
 22: 0x0229 [0x02] IF !(Work_Zone[2] == 8*) GOTO 0x0245
 23: 0x0231 [0x45] LOAD_SCHEDULED_TASK: Load scheduler "v1gl" with entities [LocalPlayer, LocalPlayer], work=[577*, 0*]
 24: 0x0242 [0x01] GOTO 0x0245

SUBROUTINE_0245:
 25: 0x0245 [0x00] END_REQSTACK()
```

### Event 9

#### Metadata

| Field        | Value   |
|--------------|---------|
| Entrypoint   | 0x0246  |
| Data Size    | 1 bytes |
| Instructions | 1       |

```
      00 01 02 03 04 05 06 07  08 09 0A 0B 0C 0D 0E 0F
      -- -- -- -- -- -- -- --  -- -- -- -- -- -- -- --
0240:                   00                                    .         
```

#### Opcodes

```
  0: 0x0246 [0x00] END_REQSTACK()
```

### Event 10

#### Metadata

| Field        | Value   |
|--------------|---------|
| Entrypoint   | 0x0247  |
| Data Size    | 1 bytes |
| Instructions | 1       |

```
      00 01 02 03 04 05 06 07  08 09 0A 0B 0C 0D 0E 0F
      -- -- -- -- -- -- -- --  -- -- -- -- -- -- -- --
0240:                      00                                  .        
```

#### Opcodes

```
  0: 0x0247 [0x00] END_REQSTACK()
```

### Event 12

#### Metadata

| Field        | Value   |
|--------------|---------|
| Entrypoint   | 0x0248  |
| Data Size    | 1 bytes |
| Instructions | 1       |

```
      00 01 02 03 04 05 06 07  08 09 0A 0B 0C 0D 0E 0F
      -- -- -- -- -- -- -- --  -- -- -- -- -- -- -- --
0240:                          00                               .       
```

#### Opcodes

```
  0: 0x0248 [0x00] END_REQSTACK()
```
