# 17146625 - Schultz

## Common Data

| Field            | Value                           |
|------------------|---------------------------------|
| Zone             | Pashhow Marshlands [S] (ID: 90) |
| Block Size       | 580 bytes                       |
| Total Events     | 16                              |
| References Count | 22                              |

## List of Events

| Event ID                   | Entrypoint   |   Size |   Instructions |
|----------------------------|--------------|--------|----------------|
| [65535](#event-65535)      | 0x0000       |      1 |              1 |
| [65535.1](#event-655351)   | 0x0001       |      1 |              1 |
| [65535.2](#event-655352)   | 0x0002       |     18 |              4 |
| [65535.3](#event-655353)   | 0x0014       |     10 |              2 |
| [65535.4](#event-655354)   | 0x001E       |      9 |              3 |
| [65535.5](#event-655355)   | 0x0027       |      9 |              3 |
| [65535.6](#event-655356)   | 0x0030       |     10 |              2 |
| [65535.7](#event-655357)   | 0x003A       |     10 |              2 |
| [2](#event-2)              | 0x0044       |      1 |              1 |
| [65535.8](#event-655358)   | 0x0045       |     37 |              5 |
| [65535.9](#event-655359)   | 0x006A       |    185 |             37 |
| [65535.10](#event-6553510) | 0x0123       |     15 |              5 |
| [65535.11](#event-6553511) | 0x0132       |     20 |              6 |
| [65535.12](#event-6553512) | 0x0146       |     12 |              3 |
| [65535.13](#event-6553513) | 0x0152       |     37 |              5 |
| [65535.14](#event-6553514) | 0x0177       |     37 |              5 |

## DAT References (imed_data)

|   Index | Hex Value   |   Dec Value |
|---------|-------------|-------------|
|       0 | 0x0000      |           0 |
|       1 | 0x0001      |           1 |
|       2 | 0x0080      |         128 |
|       3 | 0x0005      |           5 |
|       4 | 0x0002      |           2 |
|       5 | 0x000A      |          10 |
|       6 | 0x0009      |           9 |
|       7 | 0x0046      |          70 |
|       8 | 0x008C      |         140 |
|       9 | 0x00D2      |         210 |
|      10 | 0x0023      |          35 |
|      11 | 0xFFF8EC1B  |  4294503451 |
|      12 | 0xFFFA6DA0  |  4294602144 |
|      13 | 0x53DE      |       21470 |
|      14 | 0x000D      |          13 |
|      15 | 0xFFF8F5DF  |  4294505951 |
|      16 | 0xFFFA5888  |  4294596744 |
|      17 | 0x5469      |       21609 |
|      18 | 0x16462     |       91234 |
|      19 | 0x33609     |      210441 |
|      20 | 0x565B      |       22107 |
|      21 | 0x0236      |         566 |

## Events

### Event 65535

#### Metadata

| Field        | Value   |
|--------------|---------|
| Entrypoint   | 0x0000  |
| Data Size    | 1 bytes |
| Instructions | 1       |

```
      00 01 02 03 04 05 06 07  08 09 0A 0B 0C 0D 0E 0F
      -- -- -- -- -- -- -- --  -- -- -- -- -- -- -- --
0000: 00                                                .               
```

#### Opcodes

```
  0: 0x0000 [0x00] END_REQSTACK()
```

### Event 65535.1

#### Metadata

| Field        | Value   |
|--------------|---------|
| Entrypoint   | 0x0001  |
| Data Size    | 1 bytes |
| Instructions | 1       |

```
      00 01 02 03 04 05 06 07  08 09 0A 0B 0C 0D 0E 0F
      -- -- -- -- -- -- -- --  -- -- -- -- -- -- -- --
0000:    00                                              .              
```

#### Opcodes

```
  0: 0x0001 [0x00] END_REQSTACK()
```

### Event 65535.2

#### Metadata

| Field        | Value    |
|--------------|----------|
| Entrypoint   | 0x0002   |
| Data Size    | 18 bytes |
| Instructions | 4        |

```
      00 01 02 03 04 05 06 07  08 09 0A 0B 0C 0D 0E 0F
      -- -- -- -- -- -- -- --  -- -- -- -- -- -- -- --
0000:       22 00 2F 00 F8 FF  FF 7F 6C F8 FF FF 7F 00    "./.....l.....
0010: 80 01 80 00                                       ....            
```

#### Opcodes

```
  0: 0x0002 [0x22] ENTITY_HIDE_FLAG(enabled=0x00)
  1: 0x0004 [0x2F] EventEntity->Render.Flags0 &= ~0x80000 // Bit 19
  2: 0x000A [0x6C] FADE_ENTITY_COLOR(entity_id=EventEntity, end_alpha=0*, fade_time=1*)
  3: 0x0013 [0x00] END_REQSTACK()
```

### Event 65535.3

#### Metadata

| Field        | Value    |
|--------------|----------|
| Entrypoint   | 0x0014   |
| Data Size    | 10 bytes |
| Instructions | 2        |

```
      00 01 02 03 04 05 06 07  08 09 0A 0B 0C 0D 0E 0F
      -- -- -- -- -- -- -- --  -- -- -- -- -- -- -- --
0010:             6C F8 FF FF  7F 02 80 01 80 00            l.........  
```

#### Opcodes

```
  0: 0x0014 [0x6C] FADE_ENTITY_COLOR(entity_id=EventEntity, end_alpha=128*, fade_time=1*)
  1: 0x001D [0x00] END_REQSTACK()
```

### Event 65535.4

#### Metadata

| Field        | Value   |
|--------------|---------|
| Entrypoint   | 0x001E  |
| Data Size    | 9 bytes |
| Instructions | 3       |

```
      00 01 02 03 04 05 06 07  08 09 0A 0B 0C 0D 0E 0F
      -- -- -- -- -- -- -- --  -- -- -- -- -- -- -- --
0010:                                            22 00                ".
0020: 2F 00 F8 FF FF 7F 00                              /......         
```

#### Opcodes

```
  0: 0x001E [0x22] ENTITY_HIDE_FLAG(enabled=0x00)
  1: 0x0020 [0x2F] EventEntity->Render.Flags0 &= ~0x80000 // Bit 19
  2: 0x0026 [0x00] END_REQSTACK()
```

### Event 65535.5

#### Metadata

| Field        | Value   |
|--------------|---------|
| Entrypoint   | 0x0027  |
| Data Size    | 9 bytes |
| Instructions | 3       |

```
      00 01 02 03 04 05 06 07  08 09 0A 0B 0C 0D 0E 0F
      -- -- -- -- -- -- -- --  -- -- -- -- -- -- -- --
0020:                      22  01 2F 01 F8 FF FF 7F 00         "./......
```

#### Opcodes

```
  0: 0x0027 [0x22] ENTITY_HIDE_FLAG(enabled=0x01)
  1: 0x0029 [0x2F] EventEntity->Render.Flags0 |= 0x80000 // Bit 19
  2: 0x002F [0x00] END_REQSTACK()
```

### Event 65535.6

#### Metadata

| Field        | Value    |
|--------------|----------|
| Entrypoint   | 0x0030   |
| Data Size    | 10 bytes |
| Instructions | 2        |

```
      00 01 02 03 04 05 06 07  08 09 0A 0B 0C 0D 0E 0F
      -- -- -- -- -- -- -- --  -- -- -- -- -- -- -- --
0030: 6C F8 FF FF 7F 00 80 01  80 00                    l.........      
```

#### Opcodes

```
  0: 0x0030 [0x6C] FADE_ENTITY_COLOR(entity_id=EventEntity, end_alpha=0*, fade_time=1*)
  1: 0x0039 [0x00] END_REQSTACK()
```

### Event 65535.7

#### Metadata

| Field        | Value    |
|--------------|----------|
| Entrypoint   | 0x003A   |
| Data Size    | 10 bytes |
| Instructions | 2        |

```
      00 01 02 03 04 05 06 07  08 09 0A 0B 0C 0D 0E 0F
      -- -- -- -- -- -- -- --  -- -- -- -- -- -- -- --
0030:                                6C F8 FF FF 7F 02            l.....
0040: 80 01 80 00                                       ....            
```

#### Opcodes

```
  0: 0x003A [0x6C] FADE_ENTITY_COLOR(entity_id=EventEntity, end_alpha=128*, fade_time=1*)
  1: 0x0043 [0x00] END_REQSTACK()
```

### Event 2

#### Metadata

| Field        | Value   |
|--------------|---------|
| Entrypoint   | 0x0044  |
| Data Size    | 1 bytes |
| Instructions | 1       |

```
      00 01 02 03 04 05 06 07  08 09 0A 0B 0C 0D 0E 0F
      -- -- -- -- -- -- -- --  -- -- -- -- -- -- -- --
0040:             00                                        .           
```

#### Opcodes

```
  0: 0x0044 [0x00] END_REQSTACK()
```

### Event 65535.8

#### Metadata

| Field        | Value    |
|--------------|----------|
| Entrypoint   | 0x0045   |
| Data Size    | 37 bytes |
| Instructions | 5        |

```
      00 01 02 03 04 05 06 07  08 09 0A 0B 0C 0D 0E 0F
      -- -- -- -- -- -- -- --  -- -- -- -- -- -- -- --
0040:                03 00 00  07 7F 1A 8F 00 66 01 00       ........f..
0050: F8 FF FF 7F F8 FF FF 7F  73 68 61 30 53 F8 FF FF  ........sha0S...
0060: 7F F8 FF FF 7F 73 68 61  30 00                    .....sha0.      
```

#### Opcodes

```
  0: 0x0045 [0x03] ExtData[1]->WorkLocal[0] = Entity->Race
  1: 0x004A [0x1A] CALL_SUBROUTINE(address=0x008F)
  2: 0x004D [0x66] LOAD_EXT_SCHEDULER_MAIN: Load scheduler "sha0" with entities [EventEntity, EventEntity], work=ExtData[1]->WorkLocal[1]
  3: 0x005C [0x53] WAIT_SCHEDULER_TASK: Wait for scheduler "sha0" with entities [EventEntity, EventEntity]
  4: 0x0069 [0x00] END_REQSTACK()
```

### Event 65535.9

#### Metadata

| Field        | Value     |
|--------------|-----------|
| Entrypoint   | 0x006A    |
| Data Size    | 185 bytes |
| Instructions | 13        |

```
      00 01 02 03 04 05 06 07  08 09 0A 0B 0C 0D 0E 0F
      -- -- -- -- -- -- -- --  -- -- -- -- -- -- -- --
0060:                                03 00 00 07 7F 1A            ......
0070: 8F 00 66 01 00 F8 FF FF  7F F8 FF FF 7F 73 68 61  ..f..........sha
0080: 31 53 F8 FF FF 7F F8 FF  FF 7F 73 68 61 31 00 03  1S........sha1..
0090: 01 00 00 00 02 01 00 03  80 05 A4 00 08 01 00 01  ................
00A0: 80 01 A9 00 08 01 00 04  80 14 01 00 05 80 07 01  ................
00B0: 00 06 80 1B 03 01 00 00  00 02 01 00 03 80 05 C9  ................
00C0: 00 08 01 00 01 80 01 CE  00 08 01 00 04 80 14 01  ................
00D0: 00 05 80 07 01 00 07 80  1B 03 01 00 00 00 02 01  ................
00E0: 00 03 80 05 EE 00 08 01  00 01 80 01 F3 00 08 01  ................
00F0: 00 04 80 14 01 00 05 80  07 01 00 08 80 1B 03 01  ................
0100: 00 00 00 02 01 00 03 80  05 13 01 08 01 00 01 80  ................
0110: 01 18 01 08 01 00 04 80  14 01 00 05 80 07 01 00  ................
0120: 09 80 1B                                          ...             
```

#### Opcodes

```
  0: 0x006A [0x03] ExtData[1]->WorkLocal[0] = Entity->Race
  1: 0x006F [0x1A] CALL_SUBROUTINE(address=0x008F)
  2: 0x0072 [0x66] LOAD_EXT_SCHEDULER_MAIN: Load scheduler "sha1" with entities [EventEntity, EventEntity], work=ExtData[1]->WorkLocal[1]
  3: 0x0081 [0x53] WAIT_SCHEDULER_TASK: Wait for scheduler "sha1" with entities [EventEntity, EventEntity]
  4: 0x008E [0x00] END_REQSTACK()

SUBROUTINE_008F:
  5: 0x008F [0x03] ExtData[1]->WorkLocal[1] = ExtData[1]->WorkLocal[0]
  6: 0x0094 [0x02] IF !(ExtData[1]->WorkLocal[1] > 5*) GOTO 0x00A4
  7: 0x009C [0x08] ExtData[1]->WorkLocal[1] -= 1*
  8: 0x00A1 [0x01] GOTO 0x00A9
  9: 0x00A4 [0x08] ExtData[1]->WorkLocal[1] -= 2*

SUBROUTINE_00A9:
 10: 0x00A9 [0x14] ExtData[1]->WorkLocal[1] *= 10*
 11: 0x00AE [0x07] ExtData[1]->WorkLocal[1] += 9*
 12: 0x00B3 [0x1B] RETURN
```

#### Data or dead code:

```
# Dead code (unreachable instructions):
     0x00B4 [0x03] ExtData[1]->WorkLocal[1] = ExtData[1]->WorkLocal[0]
     0x00B9 [0x02] IF !(ExtData[1]->WorkLocal[1] > 5*) GOTO 0x00C9
     0x00C1 [0x08] ExtData[1]->WorkLocal[1] -= 1*
     0x00C6 [0x01] GOTO 0x00CE
     0x00C9 [0x08] ExtData[1]->WorkLocal[1] -= 2*
     0x00CE [0x14] ExtData[1]->WorkLocal[1] *= 10*
     0x00D3 [0x07] ExtData[1]->WorkLocal[1] += 70*
     0x00D8 [0x1B] RETURN
     0x00D9 [0x03] ExtData[1]->WorkLocal[1] = ExtData[1]->WorkLocal[0]
     0x00DE [0x02] IF !(ExtData[1]->WorkLocal[1] > 5*) GOTO 0x00EE
     0x00E6 [0x08] ExtData[1]->WorkLocal[1] -= 1*
     0x00EB [0x01] GOTO 0x00F3
     0x00EE [0x08] ExtData[1]->WorkLocal[1] -= 2*
     0x00F3 [0x14] ExtData[1]->WorkLocal[1] *= 10*
     0x00F8 [0x07] ExtData[1]->WorkLocal[1] += 140*
     0x00FD [0x1B] RETURN
     0x00FE [0x03] ExtData[1]->WorkLocal[1] = ExtData[1]->WorkLocal[0]
     0x0103 [0x02] IF !(ExtData[1]->WorkLocal[1] > 5*) GOTO 0x0113
     0x010B [0x08] ExtData[1]->WorkLocal[1] -= 1*
     0x0110 [0x01] GOTO 0x0118
     0x0113 [0x08] ExtData[1]->WorkLocal[1] -= 2*
     0x0118 [0x14] ExtData[1]->WorkLocal[1] *= 10*
     0x011D [0x07] ExtData[1]->WorkLocal[1] += 210*
     0x0122 [0x1B] RETURN
```

### Event 65535.10

#### Metadata

| Field        | Value    |
|--------------|----------|
| Entrypoint   | 0x0123   |
| Data Size    | 15 bytes |
| Instructions | 5        |

```
      00 01 02 03 04 05 06 07  08 09 0A 0B 0C 0D 0E 0F
      -- -- -- -- -- -- -- --  -- -- -- -- -- -- -- --
0120:          32 0A 80 1F 00  0B 80 0C 80 0D 80 1F 01     2............
0130: 6F 00                                             o.              
```

#### Opcodes

```
  0: 0x0123 [0x32] ExtData[1]->MainSpeed = 35* * 0.1
  1: 0x0126 [0x1F] MOVE_ENTITY: EventEntity moves to X=-463.845*, Z=-365.152*, Y=21.470*
  2: 0x012E [0x1F] MOVE_ENTITY: Update entity position (mode=1)
  3: 0x0130 [0x6F] WAIT_FRAME_DELAY: Yield until WaitTime reaches zero
  4: 0x0131 [0x00] END_REQSTACK()
```

### Event 65535.11

#### Metadata

| Field        | Value    |
|--------------|----------|
| Entrypoint   | 0x0132   |
| Data Size    | 20 bytes |
| Instructions | 6        |

```
      00 01 02 03 04 05 06 07  08 09 0A 0B 0C 0D 0E 0F
      -- -- -- -- -- -- -- --  -- -- -- -- -- -- -- --
0130:       32 0E 80 1F 00 0F  80 10 80 11 80 1F 01 6F    2............o
0140: 1E F0 FF FF 7F 00                                 ......          
```

#### Opcodes

```
  0: 0x0132 [0x32] ExtData[1]->MainSpeed = 13* * 0.1
  1: 0x0135 [0x1F] MOVE_ENTITY: EventEntity moves to X=-461.345*, Z=-370.552*, Y=21.609*
  2: 0x013D [0x1F] MOVE_ENTITY: Update entity position (mode=1)
  3: 0x013F [0x6F] WAIT_FRAME_DELAY: Yield until WaitTime reaches zero
  4: 0x0140 [0x1E] EventEntity looks at LocalPlayer and starts talking
  5: 0x0145 [0x00] END_REQSTACK()
```

### Event 65535.12

#### Metadata

| Field        | Value    |
|--------------|----------|
| Entrypoint   | 0x0146   |
| Data Size    | 12 bytes |
| Instructions | 3        |

```
      00 01 02 03 04 05 06 07  08 09 0A 0B 0C 0D 0E 0F
      -- -- -- -- -- -- -- --  -- -- -- -- -- -- -- --
0140:                   33 01  37 12 80 13 80 14 80 15        3.7.......
0150: 80 00                                             ..              
```

#### Opcodes

```
  0: 0x0146 [0x33] EventEntity->Render.Flags0 |= 0x200000 // Bit 21 (flag=0x01)
  1: 0x0148 [0x37] UPDATE_EVENT_POSITION_AND_DIR: x=91.234*, z=210.441*, y=22.107*, direction=49.7°*
  2: 0x0151 [0x00] END_REQSTACK()
```

### Event 65535.13

#### Metadata

| Field        | Value    |
|--------------|----------|
| Entrypoint   | 0x0152   |
| Data Size    | 37 bytes |
| Instructions | 5        |

```
      00 01 02 03 04 05 06 07  08 09 0A 0B 0C 0D 0E 0F
      -- -- -- -- -- -- -- --  -- -- -- -- -- -- -- --
0150:       03 00 00 07 7F 1A  8F 00 66 01 00 F8 FF FF    ........f.....
0160: 7F F8 FF FF 7F 73 69 74  30 53 F8 FF FF 7F F8 FF  .....sit0S......
0170: FF 7F 73 69 74 30 00                              ..sit0.         
```

#### Opcodes

```
  0: 0x0152 [0x03] ExtData[1]->WorkLocal[0] = Entity->Race
  1: 0x0157 [0x1A] CALL_SUBROUTINE(address=0x008F)
  2: 0x015A [0x66] LOAD_EXT_SCHEDULER_MAIN: Load scheduler "sit0" with entities [EventEntity, EventEntity], work=ExtData[1]->WorkLocal[1]
  3: 0x0169 [0x53] WAIT_SCHEDULER_TASK: Wait for scheduler "sit0" with entities [EventEntity, EventEntity]
  4: 0x0176 [0x00] END_REQSTACK()
```

### Event 65535.14

#### Metadata

| Field        | Value    |
|--------------|----------|
| Entrypoint   | 0x0177   |
| Data Size    | 37 bytes |
| Instructions | 5        |

```
      00 01 02 03 04 05 06 07  08 09 0A 0B 0C 0D 0E 0F
      -- -- -- -- -- -- -- --  -- -- -- -- -- -- -- --
0170:                      03  00 00 07 7F 1A 8F 00 66         ........f
0180: 01 00 F8 FF FF 7F F8 FF  FF 7F 73 69 74 31 53 F8  ..........sit1S.
0190: FF FF 7F F8 FF FF 7F 73  69 74 31 00              .......sit1.    
```

#### Opcodes

```
  0: 0x0177 [0x03] ExtData[1]->WorkLocal[0] = Entity->Race
  1: 0x017C [0x1A] CALL_SUBROUTINE(address=0x008F)
  2: 0x017F [0x66] LOAD_EXT_SCHEDULER_MAIN: Load scheduler "sit1" with entities [EventEntity, EventEntity], work=ExtData[1]->WorkLocal[1]
  3: 0x018E [0x53] WAIT_SCHEDULER_TASK: Wait for scheduler "sit1" with entities [EventEntity, EventEntity]
  4: 0x019B [0x00] END_REQSTACK()
```
