# 0x7FFFFFF0 - Zone Events

## Common Data

| Field            | Value                           |
|------------------|---------------------------------|
| Zone             | Pashhow Marshlands [S] (ID: 90) |
| Block Size       | 8020 bytes                      |
| Total Events     | 34                              |
| References Count | 248                             |

## List of Events

| Event ID                   | Entrypoint   |   Size |   Instructions |
|----------------------------|--------------|--------|----------------|
| [65535](#event-65535)      | 0x0000       |      1 |              1 |
| [65535.1](#event-655351)   | 0x0001       |     35 |              9 |
| [65535.2](#event-655352)   | 0x0024       |     35 |              9 |
| [65534](#event-65534)      | 0x0047       |      1 |              1 |
| [4](#event-4)              | 0x0048       |    102 |             15 |
| [65535.3](#event-655353)   | 0x00AE       |     16 |              3 |
| [65535.4](#event-655354)   | 0x00BE       |     41 |              5 |
| [65535.5](#event-655355)   | 0x00E7       |     13 |              3 |
| [65535.6](#event-655356)   | 0x00F4       |     14 |              4 |
| [901](#event-901)          | 0x0102       |    834 |             97 |
| [903](#event-903)          | 0x0444       |   1578 |            195 |
| [65535.7](#event-655357)   | 0x0A6E       |     22 |              6 |
| [65535.8](#event-655358)   | 0x0A84       |      7 |              3 |
| [65535.9](#event-655359)   | 0x0A8B       |      7 |              3 |
| [902](#event-902)          | 0x0A92       |   2440 |            274 |
| [65535.10](#event-6553510) | 0x141A       |     24 |              4 |
| [65535.11](#event-6553511) | 0x1432       |     24 |              4 |
| [65535.12](#event-6553512) | 0x144A       |     38 |              5 |
| [65535.13](#event-6553513) | 0x1470       |     38 |              5 |
| [65535.14](#event-6553514) | 0x1496       |     38 |              5 |
| [65535.15](#event-6553515) | 0x14BC       |     45 |              7 |
| [65535.16](#event-6553516) | 0x14E9       |     37 |              5 |
| [65535.17](#event-6553517) | 0x150E       |     37 |              5 |
| [65535.18](#event-6553518) | 0x1533       |     42 |              6 |
| [65535.19](#event-6553519) | 0x155D       |     12 |              3 |
| [65535.20](#event-6553520) | 0x1569       |     37 |              5 |
| [65535.21](#event-6553521) | 0x158E       |    185 |             37 |
| [65535.22](#event-6553522) | 0x1647       |      6 |              2 |
| [65535.23](#event-6553523) | 0x164D       |      6 |              2 |
| [65535.24](#event-6553524) | 0x1653       |     15 |              5 |
| [65535.25](#event-6553525) | 0x1662       |     34 |              6 |
| [65535.26](#event-6553526) | 0x1684       |     34 |              6 |
| [65535.27](#event-6553527) | 0x16A6       |     15 |              5 |
| [264](#event-264)          | 0x16B5       |   1061 |            204 |

## DAT References (imed_data)

|   Index | Hex Value   |   Dec Value |
|---------|-------------|-------------|
|       0 | 0x0028      |          40 |
|       1 | 0x000D      |          13 |
|       2 | 0x1EDA      |        7898 |
|       3 | 0x00C8      |         200 |
|       4 | 0x0000      |           0 |
|       5 | 0x0001      |           1 |
|       6 | 0x005A      |          90 |
|       7 | 0x003C      |          60 |
|       8 | 0x00C9      |         201 |
|       9 | 0x66531     |      419121 |
|      10 | 0x6C4D      |       27725 |
|      11 | 0x62F2      |       25330 |
|      12 | 0x0E2E      |        3630 |
|      13 | 0x0094      |         148 |
|      14 | 0x00F0      |         240 |
|      15 | 0x83F56     |      540502 |
|      16 | 0xFFFAA6EF  |  4294616815 |
|      17 | 0x61A7      |       24999 |
|      18 | 0x0400      |        1024 |
|      19 | 0x83F5B     |      540507 |
|      20 | 0xFFFA955C  |  4294612316 |
|      21 | 0x0078      |         120 |
|      22 | 0x001B      |          27 |
|      23 | 0xFFFC8FBD  |  4294741949 |
|      24 | 0xFFF999A6  |  4294547878 |
|      25 | 0x0B9C      |        2972 |
|      26 | 0xFFFC8E96  |  4294741654 |
|      27 | 0xFFF99F1A  |  4294549274 |
|      28 | 0x0DA4      |        3492 |
|      29 | 0x00FA      |         250 |
|      30 | 0x014D      |         333 |
|      31 | 0x000F      |          15 |
|      32 | 0xFFFC73A8  |  4294734760 |
|      33 | 0xFFF9A989  |  4294551945 |
|      34 | 0x092A      |        2346 |
|      35 | 0xFFFC78CA  |  4294736074 |
|      36 | 0xFFF9A1D6  |  4294549974 |
|      37 | 0x0AE5      |        2789 |
|      38 | 0x001E      |          30 |
|      39 | 0xFFFC8F25  |  4294741797 |
|      40 | 0xFFF9AE71  |  4294553201 |
|      41 | 0x0B63      |        2915 |
|      42 | 0x1E7E      |        7806 |
|      43 | 0x00F4      |         244 |
|      44 | 0x1E7F      |        7807 |
|      45 | 0x1E80      |        7808 |
|      46 | 0x1E81      |        7809 |
|      47 | 0x1E82      |        7810 |
|      48 | 0x1E83      |        7811 |
|      49 | 0x1E84      |        7812 |
|      50 | 0x00CA      |         202 |
|      51 | 0x1E85      |        7813 |
|      52 | 0x1E86      |        7814 |
|      53 | 0x005D      |          93 |
|      54 | 0x0011      |          17 |
|      55 | 0x0002      |           2 |
|      56 | 0x48F9C     |      298908 |
|      57 | 0x3F948     |      260424 |
|      58 | 0x02B3      |         691 |
|      59 | 0x0809      |        2057 |
|      60 | 0x3A22D     |      238125 |
|      61 | 0x3FA85     |      260741 |
|      62 | 0x06D5      |        1749 |
|      63 | 0x0022      |          34 |
|      64 | 0x3ACD3     |      240851 |
|      65 | 0x3F454     |      259156 |
|      66 | 0x0EA3      |        3747 |
|      67 | 0x367B2     |      223154 |
|      68 | 0x3ED44     |      257348 |
|      69 | 0x041A      |        1050 |
|      70 | 0x36AEA     |      223978 |
|      71 | 0x3F2A7     |      258727 |
|      72 | 0x04D0      |        1232 |
|      73 | 0x373DA     |      226266 |
|      74 | 0x3F64F     |      259663 |
|      75 | 0x0331      |         817 |
|      76 | 0x0021      |          33 |
|      77 | 0x367FE     |      223230 |
|      78 | 0x3FCF2     |      261362 |
|      79 | 0x0460      |        1120 |
|      80 | 0x37A50     |      227920 |
|      81 | 0x42837     |      272439 |
|      82 | 0x034F      |         847 |
|      83 | 0x373F7     |      226295 |
|      84 | 0x44717     |      280343 |
|      85 | 0x0212      |         530 |
|      86 | 0x38886     |      231558 |
|      87 | 0x44A68     |      281192 |
|      88 | 0x03E7      |         999 |
|      89 | 0x3D2E3     |      250595 |
|      90 | 0x41AEC     |      269036 |
|      91 | 0xFFFFF10A  |  4294963466 |
|      92 | 0x3C1D0     |      246224 |
|      93 | 0x38D65     |      232805 |
|      94 | 0xFFFFFDA1  |  4294966689 |
|      95 | 0x0DB1      |        3505 |
|      96 | 0x04E8      |        1256 |
|      97 | 0x1E95      |        7829 |
|      98 | 0x1E96      |        7830 |
|      99 | 0x3D299     |      250521 |
|     100 | 0x3A5C4     |      239044 |
|     101 | 0x0015      |          21 |
|     102 | 0x0005      |           5 |
|     103 | 0x38891     |      231569 |
|     104 | 0x42522     |      271650 |
|     105 | 0x04B6      |        1206 |
|     106 | 0x3867E     |      231038 |
|     107 | 0x43B39     |      277305 |
|     108 | 0x0424      |        1060 |
|     109 | 0x3978B     |      235403 |
|     110 | 0x43BA3     |      277411 |
|     111 | 0x041E      |        1054 |
|     112 | 0x3D2C7     |      250567 |
|     113 | 0x40C41     |      265281 |
|     114 | 0x0205      |         517 |
|     115 | 0x3D6A5     |      251557 |
|     116 | 0x3C5F8     |      247288 |
|     117 | 0x03A6      |         934 |
|     118 | 0x00E3      |         227 |
|     119 | 0x1E97      |        7831 |
|     120 | 0x00B4      |         180 |
|     121 | 0x000A      |          10 |
|     122 | 0x3B5EB     |      243179 |
|     123 | 0x3F5D3     |      259539 |
|     124 | 0x066D      |        1645 |
|     125 | 0x3F455     |      259157 |
|     126 | 0x3F84E     |      260174 |
|     127 | 0x04CD      |        1229 |
|     128 | 0x0A14      |        2580 |
|     129 | 0x3F9BF     |      260543 |
|     130 | 0x3F58B     |      259467 |
|     131 | 0x04AC      |        1196 |
|     132 | 0x01E6      |         486 |
|     133 | 0x3C532     |      247090 |
|     134 | 0x3FF18     |      261912 |
|     135 | 0x04CC      |        1228 |
|     136 | 0x0803      |        2051 |
|     137 | 0x3E792     |      255890 |
|     138 | 0x3FE03     |      261635 |
|     139 | 0x04C1      |        1217 |
|     140 | 0x01E7      |         487 |
|     141 | 0x3E889     |      256137 |
|     142 | 0x3E86D     |      256109 |
|     143 | 0x0255      |         597 |
|     144 | 0x01E5      |         485 |
|     145 | 0x4039A     |      263066 |
|     146 | 0x3ED26     |      257318 |
|     147 | 0x01CA      |         458 |
|     148 | 0x400E4     |      262372 |
|     149 | 0x401B5     |      262581 |
|     150 | 0x00DC      |         220 |
|     151 | 0x3C7E9     |      247785 |
|     152 | 0x3F25C     |      258652 |
|     153 | 0x0497      |        1175 |
|     154 | 0x03D5      |         981 |
|     155 | 0x3AE60     |      241248 |
|     156 | 0x3F3F0     |      259056 |
|     157 | 0x0FF1      |        4081 |
|     158 | 0x39F7B     |      237435 |
|     159 | 0x3EDC8     |      257480 |
|     160 | 0x065F      |        1631 |
|     161 | 0x1E88      |        7816 |
|     162 | 0x0546      |        1350 |
|     163 | 0x001C      |          28 |
|     164 | 0x00A3      |         163 |
|     165 | 0x0544      |        1348 |
|     166 | 0x00F5      |         245 |
|     167 | 0x0082      |         130 |
|     168 | 0x40E59     |      265817 |
|     169 | 0x3FB95     |      261013 |
|     170 | 0x030E      |         782 |
|     171 | 0x1E89      |        7817 |
|     172 | 0x4786C     |      292972 |
|     173 | 0x3EC20     |      257056 |
|     174 | 0x00AA      |         170 |
|     175 | 0x0CE2      |        3298 |
|     176 | 0x1E8A      |        7818 |
|     177 | 0x481AA     |      295338 |
|     178 | 0x3FA6C     |      260716 |
|     179 | 0x0119      |         281 |
|     180 | 0x0E1B      |        3611 |
|     181 | 0x480AE     |      295086 |
|     182 | 0x3F45C     |      259164 |
|     183 | 0x48C25     |      298021 |
|     184 | 0x3EFA7     |      257959 |
|     185 | 0x021E      |         542 |
|     186 | 0x0545      |        1349 |
|     187 | 0x007F      |         127 |
|     188 | 0x1E8B      |        7819 |
|     189 | 0x1E8C      |        7820 |
|     190 | 0x1E8D      |        7821 |
|     191 | 0x0575      |        1397 |
|     192 | 0x1E8E      |        7822 |
|     193 | 0x1E8F      |        7823 |
|     194 | 0x1E90      |        7824 |
|     195 | 0x467E7     |      288743 |
|     196 | 0x3FB79     |      260985 |
|     197 | 0x009B      |         155 |
|     198 | 0x0FB5      |        4021 |
|     199 | 0x467D6     |      288726 |
|     200 | 0x3F4A0     |      259232 |
|     201 | 0x00B7      |         183 |
|     202 | 0x0FC2      |        4034 |
|     203 | 0x47A56     |      293462 |
|     204 | 0x3F3D2     |      259026 |
|     205 | 0x00EC      |         236 |
|     206 | 0x01E0      |         480 |
|     207 | 0x1E91      |        7825 |
|     208 | 0x1E92      |        7826 |
|     209 | 0x1E93      |        7827 |
|     210 | 0x1E94      |        7828 |
|     211 | 0x0008      |           8 |
|     212 | 0x0007      |           7 |
|     213 | 0x0091      |         145 |
|     214 | 0x004F      |          79 |
|     215 | 0x004C      |          76 |
|     216 | 0x0018      |          24 |
|     217 | 0x0020      |          32 |
|     218 | 0x0004      |           4 |
|     219 | 0x0030      |          48 |
|     220 | 0x0006      |           6 |
|     221 | 0x0040      |          64 |
|     222 | 0xFFF8FCF2  |  4294507762 |
|     223 | 0xFFFA54CF  |  4294595791 |
|     224 | 0x54BD      |       21693 |
|     225 | 0x0F66      |        3942 |
|     226 | 0x0009      |           9 |
|     227 | 0x0046      |          70 |
|     228 | 0x008C      |         140 |
|     229 | 0x00D2      |         210 |
|     230 | 0x000B      |          11 |
|     231 | 0x537F0     |      342000 |
|     232 | 0xFFFD92F4  |  4294808308 |
|     233 | 0xFFF45F0A  |  4294205194 |
|     234 | 0xFFF99751  |  4294547281 |
|     235 | 0x018F      |         399 |
|     236 | 0x0003      |           3 |
|     237 | 0x0013      |          19 |
|     238 | 0x0090      |         144 |
|     239 | 0x1D19      |        7449 |
|     240 | 0x1D1A      |        7450 |
|     241 | 0x1D1C      |        7452 |
|     242 | 0x1D1D      |        7453 |
|     243 | 0x1D1E      |        7454 |
|     244 | 0x1D1F      |        7455 |
|     245 | 0x0102      |         258 |
|     246 | 0x0202      |         514 |
|     247 | 0x0156      |         342 |

## String References

- **7898**: The order has been given by your party leader to enter [Everbloom Hollow/the Ruhotz Silvermines/Ghoyu's Reverie].

## Events

### Event 65535

#### Metadata

| Field        | Value   |
|--------------|---------|
| Entrypoint   | 0x0000  |
| Data Size    | 1 bytes |
| Instructions | 1       |

```
      00 01 02 03 04 05 06 07  08 09 0A 0B 0C 0D 0E 0F
      -- -- -- -- -- -- -- --  -- -- -- -- -- -- -- --
0000: 00                                                .               
```

#### Opcodes

```
  0: 0x0000 [0x00] END_REQSTACK()
```

### Event 65535.1

#### Metadata

| Field        | Value    |
|--------------|----------|
| Entrypoint   | 0x0001   |
| Data Size    | 35 bytes |
| Instructions | 9        |

```
      00 01 02 03 04 05 06 07  08 09 0A 0B 0C 0D 0E 0F
      -- -- -- -- -- -- -- --  -- -- -- -- -- -- -- --
0000:    03 00 00 25 10 03 02  00 27 10 03 01 00 26 10   ...%....'....&.
0010: 03 03 00 28 10 32 00 80  1F 00 00 00 02 00 01 00  ...(.2..........
0020: 1F 01 6F 00                                       ..o.            
```

#### Opcodes

```
  0: 0x0001 [0x03] ExtData[1]->WorkLocal[0] = Work_Zone[37]
  1: 0x0006 [0x03] ExtData[1]->WorkLocal[2] = Work_Zone[39]
  2: 0x000B [0x03] ExtData[1]->WorkLocal[1] = Work_Zone[38]
  3: 0x0010 [0x03] ExtData[1]->WorkLocal[3] = Work_Zone[40]
  4: 0x0015 [0x32] ExtData[1]->MainSpeed = 40* * 0.1
  5: 0x0018 [0x1F] MOVE_ENTITY: EventEntity moves to X=ExtData[1]->WorkLocal[0], Z=ExtData[1]->WorkLocal[2], Y=ExtData[1]->WorkLocal[1]
  6: 0x0020 [0x1F] MOVE_ENTITY: Update entity position (mode=1)
  7: 0x0022 [0x6F] WAIT_FRAME_DELAY: Yield until WaitTime reaches zero
  8: 0x0023 [0x00] END_REQSTACK()
```

### Event 65535.2

#### Metadata

| Field        | Value    |
|--------------|----------|
| Entrypoint   | 0x0024   |
| Data Size    | 35 bytes |
| Instructions | 9        |

```
      00 01 02 03 04 05 06 07  08 09 0A 0B 0C 0D 0E 0F
      -- -- -- -- -- -- -- --  -- -- -- -- -- -- -- --
0020:             03 00 00 25  10 03 02 00 27 10 03 01      ...%....'...
0030: 00 26 10 03 03 00 28 10  32 01 80 1F 00 00 00 02  .&....(.2.......
0040: 00 01 00 1F 01 6F 00                              .....o.         
```

#### Opcodes

```
  0: 0x0024 [0x03] ExtData[1]->WorkLocal[0] = Work_Zone[37]
  1: 0x0029 [0x03] ExtData[1]->WorkLocal[2] = Work_Zone[39]
  2: 0x002E [0x03] ExtData[1]->WorkLocal[1] = Work_Zone[38]
  3: 0x0033 [0x03] ExtData[1]->WorkLocal[3] = Work_Zone[40]
  4: 0x0038 [0x32] ExtData[1]->MainSpeed = 13* * 0.1
  5: 0x003B [0x1F] MOVE_ENTITY: EventEntity moves to X=ExtData[1]->WorkLocal[0], Z=ExtData[1]->WorkLocal[2], Y=ExtData[1]->WorkLocal[1]
  6: 0x0043 [0x1F] MOVE_ENTITY: Update entity position (mode=1)
  7: 0x0045 [0x6F] WAIT_FRAME_DELAY: Yield until WaitTime reaches zero
  8: 0x0046 [0x00] END_REQSTACK()
```

### Event 65534

#### Metadata

| Field        | Value   |
|--------------|---------|
| Entrypoint   | 0x0047  |
| Data Size    | 1 bytes |
| Instructions | 1       |

```
      00 01 02 03 04 05 06 07  08 09 0A 0B 0C 0D 0E 0F
      -- -- -- -- -- -- -- --  -- -- -- -- -- -- -- --
0040:                      00                                  .        
```

#### Opcodes

```
  0: 0x0047 [0x00] END_REQSTACK()
```

### Event 4

#### Metadata

| Field        | Value     |
|--------------|-----------|
| Entrypoint   | 0x0048    |
| Data Size    | 102 bytes |
| Instructions | 15        |

```
      00 01 02 03 04 05 06 07  08 09 0A 0B 0C 0D 0E 0F
      -- -- -- -- -- -- -- --  -- -- -- -- -- -- -- --
0040:                          42 48 02 80 45 03 80 F0          BH..E...
0050: FF FF 7F F0 FF FF 7F 66  64 6F 31 04 80 02 03 10  .......fdo1.....
0060: 04 80 00 79 00 62 05 80  F0 FF FF 7F F0 FF FF 7F  ...y.b..........
0070: 6D 61 69 6E 04 80 1C 06  80 1C 07 80 83 1E 17 AA  main............
0080: 1E 17 1E 17 1E 17 1E 17  1E 17 1F 17 1E 17 1E 17  ................
0090: 03 04 00 04 80 77 1F 17  04 00 78 45 08 80 F0 FF  .....w....xE....
00A0: FF 7F F0 FF FF 7F 77 68  69 31 04 80 21 00        ......whi1..!.  
```

#### Opcodes

```
  0: 0x0048 [0x42] SET_CLI_EVENT_CANCEL_DATA()
  1: 0x0049 [0x48] [System] [7898*]:
    → "The order has been given by your party leader to enter [Everbloom Hollow/the Ruhotz Silvermines/Ghoyu's Reverie]."
  2: 0x004C [0x45] LOAD_SCHEDULED_TASK: Load scheduler "fdo1" with entities [LocalPlayer, LocalPlayer], work=[200*, 0*]
  3: 0x005D [0x02] IF !(Work_Zone[3] == 0*) GOTO 0x0079
  4: 0x0065 [0x62] LOAD_EVENT_SCHEDULER: Load scheduler "main" with entities [LocalPlayer, LocalPlayer], work=[1*, 0*]
  5: 0x0076 [0x1C] WAIT(90* ticks)
  6: 0x0079 [0x1C] WAIT(60* ticks)
  7: 0x007C [0x83] Work_Zone_1700[30] = GetGameTime()
  8: 0x007F [0xAA] VANA_DIEL_TIMESTAMP_CONVERTER(timestamp=Work_Zone_1700[30], year=Work_Zone_1700[30], month=Work_Zone_1700[30], day=Work_Zone_1700[30], weekday=Work_Zone_1700[30], hour=Work_Zone_1700[31], minute=Work_Zone_1700[30], moon=Work_Zone_1700[30])
  9: 0x0090 [0x03] ExtData[1]->WorkLocal[4] = 0*
 10: 0x0095 [0x77] SET_EVENT_TIME_WEATHER(hour=Work_Zone_1700[31], weather=ExtData[1]->WorkLocal[4])
 11: 0x009A [0x78] ENABLE_GAME_TIMER_RESET_WEATHER()
 12: 0x009B [0x45] LOAD_SCHEDULED_TASK: Load scheduler "whi1" with entities [LocalPlayer, LocalPlayer], work=[201*, 0*]
 13: 0x00AC [0x21] END_EVENT
 14: 0x00AD [0x00] END_REQSTACK()
```

### Event 65535.3

#### Metadata

| Field        | Value    |
|--------------|----------|
| Entrypoint   | 0x00AE   |
| Data Size    | 16 bytes |
| Instructions | 3        |

```
      00 01 02 03 04 05 06 07  08 09 0A 0B 0C 0D 0E 0F
      -- -- -- -- -- -- -- --  -- -- -- -- -- -- -- --
00A0:                                            92 01                ..
00B0: F0 FF FF 7F 37 09 80 0A  80 0B 80 0C 80 00        ....7.........  
```

#### Opcodes

```
  0: 0x00AE [0x92] LocalPlayer->Render.Flags3 ^= 0x01
  1: 0x00B4 [0x37] UPDATE_EVENT_POSITION_AND_DIR: x=419.121*, z=27.725*, y=25.330*, direction=319.0°*
  2: 0x00BD [0x00] END_REQSTACK()
```

### Event 65535.4

#### Metadata

| Field        | Value    |
|--------------|----------|
| Entrypoint   | 0x00BE   |
| Data Size    | 41 bytes |
| Instructions | 5        |

```
      00 01 02 03 04 05 06 07  08 09 0A 0B 0C 0D 0E 0F
      -- -- -- -- -- -- -- --  -- -- -- -- -- -- -- --
00B0:                                            BB 0D                ..
00C0: 80 F0 FF FF 7F D0 A2 05  01 6D 61 69 6E 04 80 1C  .........main...
00D0: 0E 80 45 03 80 F0 FF FF  7F F0 FF FF 7F 66 64 6F  ..E..........fdo
00E0: 31 04 80 1C 07 80 00                              1......         
```

#### Opcodes

```
  0: 0x00BE [0xBB] LOAD_EVENT_SCHEDULER_ALT: Load scheduler "main" with entities [LocalPlayer, Cavernous Maw (ID: 17146576/0x0105A2D0)], work=[148*, 0*]
  1: 0x00CF [0x1C] WAIT(240* ticks)
  2: 0x00D2 [0x45] LOAD_SCHEDULED_TASK: Load scheduler "fdo1" with entities [LocalPlayer, LocalPlayer], work=[200*, 0*]
  3: 0x00E3 [0x1C] WAIT(60* ticks)
  4: 0x00E6 [0x00] END_REQSTACK()
```

### Event 65535.5

#### Metadata

| Field        | Value    |
|--------------|----------|
| Entrypoint   | 0x00E7   |
| Data Size    | 13 bytes |
| Instructions | 3        |

```
      00 01 02 03 04 05 06 07  08 09 0A 0B 0C 0D 0E 0F
      -- -- -- -- -- -- -- --  -- -- -- -- -- -- -- --
00E0:                      47  00 0F 80 10 80 11 80 12         G........
00F0: 80 47 01 00                                       .G..            
```

#### Opcodes

```
  0: 0x00E7 [0x47] UPDATE_PLAYER_POS(540.502*, -350.481*, 24.999*, yaw=90.0°*)
  1: 0x00F1 [0x47] WAIT_PLAYER_POS_UPDATE
  2: 0x00F3 [0x00] END_REQSTACK()
```

### Event 65535.6

#### Metadata

| Field        | Value    |
|--------------|----------|
| Entrypoint   | 0x00F4   |
| Data Size    | 14 bytes |
| Instructions | 4        |

```
      00 01 02 03 04 05 06 07  08 09 0A 0B 0C 0D 0E 0F
      -- -- -- -- -- -- -- --  -- -- -- -- -- -- -- --
00F0:             32 01 80 1F  00 13 80 14 80 11 80 1F      2...........
0100: 01 00                                             ..              
```

#### Opcodes

```
  0: 0x00F4 [0x32] ExtData[1]->MainSpeed = 13* * 0.1
  1: 0x00F7 [0x1F] MOVE_ENTITY: EventEntity moves to X=540.507*, Z=-354.980*, Y=24.999*
  2: 0x00FF [0x1F] MOVE_ENTITY: Update entity position (mode=1)
  3: 0x0101 [0x00] END_REQSTACK()
```

### Event 901

#### Metadata

| Field        | Value     |
|--------------|-----------|
| Entrypoint   | 0x0102    |
| Data Size    | 834 bytes |
| Instructions | 97        |

```
      00 01 02 03 04 05 06 07  08 09 0A 0B 0C 0D 0E 0F
      -- -- -- -- -- -- -- --  -- -- -- -- -- -- -- --
0100:       42 5D 04 80 15 80  45 03 80 F8 FF FF 7F F8    B]....E.......
0110: FF FF 7F 66 64 6F 31 04  80 55 03 80 F8 FF FF 7F  ...fdo1..U......
0120: F8 FF FF 7F 66 64 6F 31  46 01 38 16 80 4E 01 F0  ....fdo1F.8..N..
0130: FF FF 7F 2F 00 EA A2 05  01 2F 00 EB A2 05 01 92  .../...../......
0140: 01 EA A2 05 01 92 01 EB  A2 05 01 BA EA A2 05 01  ................
0150: 17 80 18 80 11 80 19 80  BA EB A2 05 01 1A 80 1B  ................
0160: 80 11 80 1C 80 5C 00 1D  80 5C 01 1D 80 9A 45 1E  .....\...\....E.
0170: 80 F8 FF FF 7F F8 FF FF  7F 73 31 30 36 04 80 1C  .........s106...
0180: 1F 80 45 03 80 F8 FF FF  7F F8 FF FF 7F 66 64 69  ..E..........fdi
0190: 31 04 80 4E 00 EA A2 05  01 4E 00 EB A2 05 01 80  1..N.....N......
01A0: EA A2 05 01 80 EB A2 05  01 27 05 EB A2 05 01 02  .........'......
01B0: 29 05 EA A2 05 01 02 2A  05 EB A2 05 01 BA EB A2  )......*........
01C0: 05 01 20 80 21 80 11 80  22 80 BA EA A2 05 01 23  .. .!..."......#
01D0: 80 24 80 11 80 25 80 80  EB A2 05 01 80 EA A2 05  .$...%..........
01E0: 01 27 05 EB A2 05 01 03  27 05 EA A2 05 01 03 1C  .'......'.......
01F0: 26 80 52 1E 80 F8 FF FF  7F F8 FF FF 7F 73 31 30  &.R..........s10
0200: 36 45 1E 80 F8 FF FF 7F  F8 FF FF 7F 73 31 30 37  6E..........s107
0210: 04 80 2A 05 EB A2 05 01  BA F0 FF FF 7F 27 80 28  ..*..........'.(
0220: 80 11 80 29 80 80 F0 FF  FF 7F 2B EB A2 05 01 2A  ...)......+....*
0230: 80 23 52 1E 80 F8 FF FF  7F F8 FF FF 7F 73 31 30  .#R..........s10
0240: 37 45 1E 80 F8 FF FF 7F  F8 FF FF 7F 73 31 30 38  7E..........s108
0250: 04 80 4A F0 FF FF 7F EB  A2 05 01 5B 2B 80 EA A2  ..J........[+...
0260: 05 01 EA A2 05 01 75 64  65 30 2B EA A2 05 01 2C  ......ude0+....,
0270: 80 23 5B 03 80 EB A2 05  01 EB A2 05 01 74 73 61  .#[..........tsa
0280: 30 2B EB A2 05 01 2D 80  23 5B 03 80 EB A2 05 01  0+....-.#[......
0290: EB A2 05 01 74 73 61 31  1C 26 80 52 1E 80 F8 FF  ....tsa1.&.R....
02A0: FF 7F F8 FF FF 7F 73 31  30 38 45 1E 80 F8 FF FF  ......s108E.....
02B0: 7F F8 FF FF 7F 73 31 30  39 04 80 5B 2B 80 EA A2  .....s109..[+...
02C0: 05 01 EA A2 05 01 75 64  65 31 2B EA A2 05 01 2E  ......ude1+.....
02D0: 80 23 2B EA A2 05 01 2F  80 23 53 EA A2 05 01 EA  .#+..../.#S.....
02E0: A2 05 01 75 64 65 31 52  1E 80 F8 FF FF 7F F8 FF  ...ude1R........
02F0: FF 7F 73 31 30 39 45 1E  80 F8 FF FF 7F F8 FF FF  ..s109E.........
0300: 7F 73 31 31 30 04 80 5B  03 80 EB A2 05 01 EB A2  .s110..[........
0310: 05 01 74 73 62 30 2B EB  A2 05 01 30 80 23 5B 03  ..tsb0+....0.#[.
0320: 80 EB A2 05 01 EB A2 05  01 74 6C 62 31 52 1E 80  .........tlb1R..
0330: F8 FF FF 7F F8 FF FF 7F  73 31 31 30 45 1E 80 F8  ........s110E...
0340: FF FF 7F F8 FF FF 7F 73  31 31 31 04 80 2B EA A2  .......s111..+..
0350: 05 01 31 80 23 5B 32 80  EB A2 05 01 EB A2 05 01  ..1.#[2.........
0360: 68 73 73 30 52 1E 80 F8  FF FF 7F F8 FF FF 7F 73  hss0R..........s
0370: 31 31 31 45 1E 80 F8 FF  FF 7F F8 FF FF 7F 73 31  111E..........s1
0380: 31 32 04 80 2B EB A2 05  01 33 80 23 5B 32 80 EB  12..+....3.#[2..
0390: A2 05 01 EB A2 05 01 68  67 73 31 45 1E 80 F8 FF  .......hgs1E....
03A0: FF 7F F8 FF FF 7F 70 75  69 30 04 80 29 05 EA A2  ......pui0..)...
03B0: 05 01 04 2B EA A2 05 01  34 80 23 52 1E 80 F8 FF  ...+....4.#R....
03C0: FF 7F F8 FF FF 7F 73 31  31 32 45 1E 80 F8 FF FF  ......s112E.....
03D0: 7F F8 FF FF 7F 73 31 31  33 04 80 27 05 EA A2 05  .....s113..'....
03E0: 01 05 1C 15 80 27 05 EB  A2 05 01 04 1C 07 80 5D  .....'.........]
03F0: 04 80 15 80 45 03 80 F8  FF FF 7F F8 FF FF 7F 66  ....E..........f
0400: 64 6F 31 04 80 55 03 80  F8 FF FF 7F F8 FF FF 7F  do1..U..........
0410: 66 64 6F 31 52 1E 80 F8  FF FF 7F F8 FF FF 7F 73  fdo1R..........s
0420: 31 31 33 5C 00 04 80 5C  01 04 80 9A 46 00 1C 07  113\...\....F...
0430: 80 45 03 80 F8 FF FF 7F  F8 FF FF 7F 66 64 69 31  .E..........fdi1
0440: 04 80 21 00                                       ..!.            
```

#### Opcodes

```
  0: 0x0102 [0x42] SET_CLI_EVENT_CANCEL_DATA()
  1: 0x0103 [0x5D] SET_MUSIC_VOLUME(volume=0*, fade_time=120*)
  2: 0x0108 [0x45] LOAD_SCHEDULED_TASK: Load scheduler "fdo1" with entities [EventEntity, EventEntity], work=[200*, 0*]
  3: 0x0119 [0x55] WAIT_LOAD_SCHEDULER: Wait for scheduler "fdo1" with entities [EventEntity, EventEntity], work=200*
  4: 0x0128 [0x46] CAMERA_CONTROL: Disable user control
  5: 0x012A [0x38] SET_CLIENT_EVENT_MODE(mode=27*)
  6: 0x012D [0x4E] SET_ENTITY_HIDE_FLAG: Hide LocalPlayer
  7: 0x0133 [0x2F] Zeid (ID: 17146602/0x0105A2EA)->Render.Flags0 &= ~0x80000 // Bit 19
  8: 0x0139 [0x2F] Volker (ID: 17146603/0x0105A2EB)->Render.Flags0 &= ~0x80000 // Bit 19
  9: 0x013F [0x92] Zeid (ID: 17146602/0x0105A2EA)->Render.Flags3 ^= 0x01
 10: 0x0145 [0x92] Volker (ID: 17146603/0x0105A2EB)->Render.Flags3 ^= 0x01
 11: 0x014B [0xBA] SET_ENTITY_POSITION(entity_id=Zeid (ID: 17146602/0x0105A2EA), pos_x=-225.347*, pos_z=-419.418*, pos_y=24.999*, direction=261.2°*)
 12: 0x0158 [0xBA] SET_ENTITY_POSITION(entity_id=Volker (ID: 17146603/0x0105A2EB), pos_x=-225.642*, pos_z=-418.022*, pos_y=24.999*, direction=306.9°*)
 13: 0x0165 [0x5C] MUSIC_CONTROL: Set Idle (Day) music to song 250*
 14: 0x0169 [0x5C] MUSIC_CONTROL: Set Idle (Night) music to song 250*
 15: 0x016D [0x9A] WAIT_MUSIC_SERVER()
 16: 0x016E [0x45] LOAD_SCHEDULED_TASK: Load scheduler "s106" with entities [EventEntity, EventEntity], work=[333*, 0*]
 17: 0x017F [0x1C] WAIT(15* ticks)
 18: 0x0182 [0x45] LOAD_SCHEDULED_TASK: Load scheduler "fdi1" with entities [EventEntity, EventEntity], work=[200*, 0*]
 19: 0x0193 [0x4E] SET_ENTITY_HIDE_FLAG: Show Zeid (ID: 17146602/0x0105A2EA)
 20: 0x0199 [0x4E] SET_ENTITY_HIDE_FLAG: Show Volker (ID: 17146603/0x0105A2EB)
 21: 0x019F [0x80] LOAD_WAIT(entity=Zeid (ID: 17146602/0x0105A2EA))
 22: 0x01A4 [0x80] LOAD_WAIT(entity=Volker (ID: 17146603/0x0105A2EB))
 23: 0x01A9 [0x27] REQ_SET(priority=0x05, entity_id=Volker (ID: 17146603/0x0105A2EB), tag_num=0x02)
 24: 0x01B0 [0x29] REQ_SET_WAIT(priority=0x05, entity_id=Zeid (ID: 17146602/0x0105A2EA), tag_num=0x02)
 25: 0x01B7 [0x2A] GET_REQ_LEVEL(level=5, entity_id=Volker (ID: 17146603/0x0105A2EB))
 26: 0x01BD [0xBA] SET_ENTITY_POSITION(entity_id=Volker (ID: 17146603/0x0105A2EB), pos_x=-232.536*, pos_z=-415.351*, pos_y=24.999*, direction=206.2°*)
 27: 0x01CA [0xBA] SET_ENTITY_POSITION(entity_id=Zeid (ID: 17146602/0x0105A2EA), pos_x=-231.222*, pos_z=-417.322*, pos_y=24.999*, direction=245.1°*)
 28: 0x01D7 [0x80] LOAD_WAIT(entity=Volker (ID: 17146603/0x0105A2EB))
 29: 0x01DC [0x80] LOAD_WAIT(entity=Zeid (ID: 17146602/0x0105A2EA))
 30: 0x01E1 [0x27] REQ_SET(priority=0x05, entity_id=Volker (ID: 17146603/0x0105A2EB), tag_num=0x03)
 31: 0x01E8 [0x27] REQ_SET(priority=0x05, entity_id=Zeid (ID: 17146602/0x0105A2EA), tag_num=0x03)
 32: 0x01EF [0x1C] WAIT(30* ticks)
 33: 0x01F2 [0x52] END_LOAD_SCHEDULER: End scheduler "s106" with entities [EventEntity, EventEntity], work=333*
 34: 0x0201 [0x45] LOAD_SCHEDULED_TASK: Load scheduler "s107" with entities [EventEntity, EventEntity], work=[333*, 0*]
 35: 0x0212 [0x2A] GET_REQ_LEVEL(level=5, entity_id=Volker (ID: 17146603/0x0105A2EB))
 36: 0x0218 [0xBA] SET_ENTITY_POSITION(entity_id=LocalPlayer, pos_x=-225.499*, pos_z=-414.095*, pos_y=24.999*, direction=256.2°*)
 37: 0x0225 [0x80] LOAD_WAIT(entity=LocalPlayer)
 38: 0x022A [0x2B] Volker (ID: 17146603/0x0105A2EB) [7806*]:
    → "Let's split up and find this Quadav mine shaft."
 39: 0x0231 [0x23] WAIT_FOR_DIALOG_INTERACTION
 40: 0x0232 [0x52] END_LOAD_SCHEDULER: End scheduler "s107" with entities [EventEntity, EventEntity], work=333*
 41: 0x0241 [0x45] LOAD_SCHEDULED_TASK: Load scheduler "s108" with entities [EventEntity, EventEntity], work=[333*, 0*]
 42: 0x0252 [0x4A] LocalPlayer looks at Volker (ID: 17146603/0x0105A2EB)
 43: 0x025B [0x5B] LOAD_EXT_SCHEDULER: Load scheduler "ude0" with entities [Zeid (ID: 17146602/0x0105A2EA), Zeid (ID: 17146602/0x0105A2EA)], work=244*
 44: 0x026A [0x2B] Zeid (ID: 17146602/0x0105A2EA) [7807*]:
    → "We don't know how many enemies we face. Dividing our forces may be unwise."
 45: 0x0271 [0x23] WAIT_FOR_DIALOG_INTERACTION
 46: 0x0272 [0x5B] LOAD_EXT_SCHEDULER: Load scheduler "tsa0" with entities [Volker (ID: 17146603/0x0105A2EB), Volker (ID: 17146603/0x0105A2EB)], work=200*
 47: 0x0281 [0x2B] Volker (ID: 17146603/0x0105A2EB) [7808*]:
    → "Have you lost your courage, Zeid!?"
 48: 0x0288 [0x23] WAIT_FOR_DIALOG_INTERACTION
 49: 0x0289 [0x5B] LOAD_EXT_SCHEDULER: Load scheduler "tsa1" with entities [Volker (ID: 17146603/0x0105A2EB), Volker (ID: 17146603/0x0105A2EB)], work=200*
 50: 0x0298 [0x1C] WAIT(30* ticks)
 51: 0x029B [0x52] END_LOAD_SCHEDULER: End scheduler "s108" with entities [EventEntity, EventEntity], work=333*
 52: 0x02AA [0x45] LOAD_SCHEDULED_TASK: Load scheduler "s109" with entities [EventEntity, EventEntity], work=[333*, 0*]
 53: 0x02BB [0x5B] LOAD_EXT_SCHEDULER: Load scheduler "ude1" with entities [Zeid (ID: 17146602/0x0105A2EA), Zeid (ID: 17146602/0x0105A2EA)], work=244*
 54: 0x02CA [0x2B] Zeid (ID: 17146602/0x0105A2EA) [7809*]:
    → "You miss my meaning. The squire spoke of a well-planned ambush."
 55: 0x02D1 [0x23] WAIT_FOR_DIALOG_INTERACTION
 56: 0x02D2 [0x2B] Zeid (ID: 17146602/0x0105A2EA) [7810*]:
    → "I'm suggesting that the Quadav scum may be prepared to deal with a rescue effort."
 57: 0x02D9 [0x23] WAIT_FOR_DIALOG_INTERACTION
 58: 0x02DA [0x53] WAIT_SCHEDULER_TASK: Wait for scheduler "ude1" with entities [Zeid (ID: 17146602/0x0105A2EA), Zeid (ID: 17146602/0x0105A2EA)]
 59: 0x02E7 [0x52] END_LOAD_SCHEDULER: End scheduler "s109" with entities [EventEntity, EventEntity], work=333*
 60: 0x02F6 [0x45] LOAD_SCHEDULED_TASK: Load scheduler "s110" with entities [EventEntity, EventEntity], work=[333*, 0*]
 61: 0x0307 [0x5B] LOAD_EXT_SCHEDULER: Load scheduler "tsb0" with entities [Volker (ID: 17146603/0x0105A2EB), Volker (ID: 17146603/0x0105A2EB)], work=200*
 62: 0x0316 [0x2B] Volker (ID: 17146603/0x0105A2EB) [7811*]:
    → "And if they are? We are Mythril Musketeers. They could have a hundred soldiers lying in wait, for all the good it would do them."
 63: 0x031D [0x23] WAIT_FOR_DIALOG_INTERACTION
 64: 0x031E [0x5B] LOAD_EXT_SCHEDULER: Load scheduler "tlb1" with entities [Volker (ID: 17146603/0x0105A2EB), Volker (ID: 17146603/0x0105A2EB)], work=200*
 65: 0x032D [0x52] END_LOAD_SCHEDULER: End scheduler "s110" with entities [EventEntity, EventEntity], work=333*
 66: 0x033C [0x45] LOAD_SCHEDULED_TASK: Load scheduler "s111" with entities [EventEntity, EventEntity], work=[333*, 0*]
 67: 0x034D [0x2B] Zeid (ID: 17146602/0x0105A2EA) [7812*]:
    → "Your pride will lead to your destruction, Volker."
 68: 0x0354 [0x23] WAIT_FOR_DIALOG_INTERACTION
 69: 0x0355 [0x5B] LOAD_EXT_SCHEDULER: Load scheduler "hss0" with entities [Volker (ID: 17146603/0x0105A2EB), Volker (ID: 17146603/0x0105A2EB)], work=202*
 70: 0x0364 [0x52] END_LOAD_SCHEDULER: End scheduler "s111" with entities [EventEntity, EventEntity], work=333*
 71: 0x0373 [0x45] LOAD_SCHEDULED_TASK: Load scheduler "s112" with entities [EventEntity, EventEntity], work=[333*, 0*]
 72: 0x0384 [0x2B] Volker (ID: 17146603/0x0105A2EB) [7813*]:
    → "You doubt my ability!?"
 73: 0x038B [0x23] WAIT_FOR_DIALOG_INTERACTION
 74: 0x038C [0x5B] LOAD_EXT_SCHEDULER: Load scheduler "hgs1" with entities [Volker (ID: 17146603/0x0105A2EB), Volker (ID: 17146603/0x0105A2EB)], work=202*
 75: 0x039B [0x45] LOAD_SCHEDULED_TASK: Load scheduler "pui0" with entities [EventEntity, EventEntity], work=[333*, 0*]
 76: 0x03AC [0x29] REQ_SET_WAIT(priority=0x05, entity_id=Zeid (ID: 17146602/0x0105A2EA), tag_num=0x04)
 77: 0x03B3 [0x2B] Zeid (ID: 17146602/0x0105A2EA) [7814*]:
    → "We waste precious time. I will search the far side of the marsh."
 78: 0x03BA [0x23] WAIT_FOR_DIALOG_INTERACTION
 79: 0x03BB [0x52] END_LOAD_SCHEDULER: End scheduler "s112" with entities [EventEntity, EventEntity], work=333*
 80: 0x03CA [0x45] LOAD_SCHEDULED_TASK: Load scheduler "s113" with entities [EventEntity, EventEntity], work=[333*, 0*]
 81: 0x03DB [0x27] REQ_SET(priority=0x05, entity_id=Zeid (ID: 17146602/0x0105A2EA), tag_num=0x05)
 82: 0x03E2 [0x1C] WAIT(120* ticks)
 83: 0x03E5 [0x27] REQ_SET(priority=0x05, entity_id=Volker (ID: 17146603/0x0105A2EB), tag_num=0x04)
 84: 0x03EC [0x1C] WAIT(60* ticks)
 85: 0x03EF [0x5D] SET_MUSIC_VOLUME(volume=0*, fade_time=120*)
 86: 0x03F4 [0x45] LOAD_SCHEDULED_TASK: Load scheduler "fdo1" with entities [EventEntity, EventEntity], work=[200*, 0*]
 87: 0x0405 [0x55] WAIT_LOAD_SCHEDULER: Wait for scheduler "fdo1" with entities [EventEntity, EventEntity], work=200*
 88: 0x0414 [0x52] END_LOAD_SCHEDULER: End scheduler "s113" with entities [EventEntity, EventEntity], work=333*
 89: 0x0423 [0x5C] MUSIC_CONTROL: Set Idle (Day) music to song 0*
 90: 0x0427 [0x5C] MUSIC_CONTROL: Set Idle (Night) music to song 0*
 91: 0x042B [0x9A] WAIT_MUSIC_SERVER()
 92: 0x042C [0x46] CAMERA_CONTROL: Restore default settings
 93: 0x042E [0x1C] WAIT(60* ticks)
 94: 0x0431 [0x45] LOAD_SCHEDULED_TASK: Load scheduler "fdi1" with entities [EventEntity, EventEntity], work=[200*, 0*]
 95: 0x0442 [0x21] END_EVENT
 96: 0x0443 [0x00] END_REQSTACK()
```

### Event 903

#### Metadata

| Field        | Value      |
|--------------|------------|
| Entrypoint   | 0x0444     |
| Data Size    | 1578 bytes |
| Instructions | 195        |

```
      00 01 02 03 04 05 06 07  08 09 0A 0B 0C 0D 0E 0F
      -- -- -- -- -- -- -- --  -- -- -- -- -- -- -- --
0440:             42 5D 04 80  15 80 45 03 80 F8 FF FF      B]....E.....
0450: 7F F8 FF FF 7F 66 64 6F  31 04 80 55 03 80 F8 FF  .....fdo1..U....
0460: FF 7F F8 FF FF 7F 66 64  6F 31 46 01 38 16 80 1C  ......fdo1F.8...
0470: 05 80 34 35 80 77 36 80  37 80 1C 05 80 2F 00 F8  ..45.w6.7..../..
0480: A2 05 01 4E 00 F8 A2 05  01 2F 00 EB A2 05 01 4E  ...N...../.....N
0490: 00 EB A2 05 01 2F 00 EE  A2 05 01 2F 00 EF A2 05  ...../...../....
04A0: 01 2F 00 F0 A2 05 01 2F  00 F1 A2 05 01 2F 00 F2  ./...../...../..
04B0: A2 05 01 2F 00 F3 A2 05  01 2F 00 F4 A2 05 01 2F  .../...../...../
04C0: 00 F5 A2 05 01 2F 00 F6  A2 05 01 92 01 F8 A2 05  ...../..........
04D0: 01 92 01 EB A2 05 01 BA  F8 A2 05 01 38 80 39 80  ............8.9.
04E0: 3A 80 3B 80 BA EB A2 05  01 3C 80 3D 80 3E 80 3F  :.;......<.=.>.?
04F0: 80 BA F0 FF FF 7F 40 80  41 80 3E 80 42 80 BA F2  ......@.A.>.B...
0500: A2 05 01 43 80 44 80 45  80 3F 80 BA F1 A2 05 01  ...C.D.E.?......
0510: 46 80 47 80 48 80 3F 80  BA EE A2 05 01 49 80 4A  F.G.H.?......I.J
0520: 80 4B 80 4C 80 BA EF A2  05 01 4D 80 4E 80 4F 80  .K.L......M.N.O.
0530: 3F 80 BA F0 A2 05 01 50  80 51 80 52 80 3F 80 BA  ?......P.Q.R.?..
0540: F3 A2 05 01 53 80 54 80  55 80 4C 80 BA F4 A2 05  ....S.T.U.L.....
0550: 01 56 80 57 80 58 80 3F  80 BA F5 A2 05 01 59 80  .V.W.X.?......Y.
0560: 5A 80 5B 80 42 80 BA F6  A2 05 01 5C 80 5D 80 5E  Z.[.B......\.].^
0570: 80 5F 80 80 F8 A2 05 01  80 EB A2 05 01 4E 01 F0  ._...........N..
0580: FF FF 7F 5C 00 1D 80 5C  01 1D 80 5C 02 1D 80 5C  ...\...\...\...\
0590: 03 1D 80 9A 5B 60 80 F8  A2 05 01 F8 A2 05 01 65  ....[`.........e
05A0: 76 61 30 27 05 EB A2 05  01 06 45 1E 80 F8 FF FF  va0'......E.....
05B0: 7F F8 FF FF 7F 73 31 35  35 04 80 1C 1F 80 45 03  .....s155.....E.
05C0: 80 F8 FF FF 7F F8 FF FF  7F 66 64 69 31 04 80 1C  .........fdi1...
05D0: 15 80 52 1E 80 F8 FF FF  7F F8 FF FF 7F 73 31 35  ..R..........s15
05E0: 35 45 1E 80 F8 FF FF 7F  F8 FF FF 7F 73 31 35 36  5E..........s156
05F0: 04 80 2A 05 EB A2 05 01  55 1E 80 F8 FF FF 7F F8  ..*.....U.......
0600: FF FF 7F 73 31 35 36 1C  26 80 45 1E 80 F8 FF FF  ...s156.&.E.....
0610: 7F F8 FF FF 7F 73 31 35  37 04 80 2B EB A2 05 01  .....s157..+....
0620: 61 80 23 4E 00 F0 FF FF  7F 80 F0 FF FF 7F 55 1E  a.#N..........U.
0630: 80 F8 FF FF 7F F8 FF FF  7F 73 31 35 37 45 1E 80  .........s157E..
0640: F8 FF FF 7F F8 FF FF 7F  73 31 35 38 04 80 29 05  ........s158..).
0650: F0 FF FF 7F 0B 4A EB A2  05 01 F0 FF FF 7F 2B EB  .....J........+.
0660: A2 05 01 62 80 23 4E 00  EE A2 05 01 4E 00 EF A2  ...b.#N.....N...
0670: 05 01 4E 00 F0 A2 05 01  4E 00 F1 A2 05 01 4E 00  ..N.....N.....N.
0680: F2 A2 05 01 4E 00 F3 A2  05 01 4E 00 F4 A2 05 01  ....N.....N.....
0690: 4E 00 F5 A2 05 01 4E 00  F6 A2 05 01 80 EE A2 05  N.....N.........
06A0: 01 80 EF A2 05 01 80 F0  A2 05 01 80 F1 A2 05 01  ................
06B0: 80 F2 A2 05 01 80 F3 A2  05 01 80 F4 A2 05 01 80  ................
06C0: F5 A2 05 01 80 F6 A2 05  01 4A F0 A2 05 01 F0 FF  .........J......
06D0: FF 7F 4A F3 A2 05 01 F0  FF FF 7F 4A F4 A2 05 01  ..J........J....
06E0: F0 FF FF 7F 4A F5 A2 05  01 F0 FF FF 7F 1C 07 80  ....J...........
06F0: 52 1E 80 F8 FF FF 7F F8  FF FF 7F 73 31 35 38 45  R..........s158E
0700: 1E 80 F8 FF FF 7F F8 FF  FF 7F 73 31 39 38 04 80  ..........s198..
0710: 4A EB A2 05 01 F5 A2 05  01 4A F0 FF FF 7F F5 A2  J........J......
0720: 05 01 1C 07 80 52 1E 80  F8 FF FF 7F F8 FF FF 7F  .....R..........
0730: 73 31 39 38 45 1E 80 F8  FF FF 7F F8 FF FF 7F 73  s198E..........s
0740: 31 39 39 04 80 BA F6 A2  05 01 63 80 64 80 58 80  199.......c.d.X.
0750: 3F 80 80 F6 A2 05 01 4A  F6 A2 05 01 F0 FF FF 7F  ?......J........
0760: 1C 07 80 52 1E 80 F8 FF  FF 7F F8 FF FF 7F 73 31  ...R..........s1
0770: 39 39 45 1E 80 F8 FF FF  7F F8 FF FF 7F 73 31 39  99E..........s19
0780: 37 04 80 6E F0 FF FF 7F  65 80 99 F0 FF FF 7F 1C  7..n....e.......
0790: 06 80 27 05 EE A2 05 01  02 1C 66 80 27 05 EF A2  ..'.......f.'...
07A0: 05 01 02 1C 66 80 27 05  F1 A2 05 01 02 1C 66 80  ....f.'.......f.
07B0: 27 05 F2 A2 05 01 02 1C  26 80 52 1E 80 F8 FF FF  '.......&.R.....
07C0: 7F F8 FF FF 7F 73 31 39  37 45 1E 80 F8 FF FF 7F  .....s197E......
07D0: F8 FF FF 7F 73 31 35 39  04 80 2A 05 EE A2 05 01  ....s159..*.....
07E0: 2A 05 EF A2 05 01 2A 05  F1 A2 05 01 2A 05 F2 A2  *.....*.....*...
07F0: 05 01 4A F0 FF FF 7F EE  A2 05 01 BA F0 A2 05 01  ..J.............
0800: 67 80 68 80 69 80 3F 80  BA F3 A2 05 01 6A 80 6B  g.h.i.?......j.k
0810: 80 6C 80 4C 80 BA F4 A2  05 01 6D 80 6E 80 6F 80  .l.L......m.n.o.
0820: 3F 80 BA F5 A2 05 01 70  80 71 80 72 80 3F 80 BA  ?......p.q.r.?..
0830: F6 A2 05 01 73 80 74 80  75 80 3F 80 80 F0 A2 05  ....s.t.u.?.....
0840: 01 80 F3 A2 05 01 80 F4  A2 05 01 80 F5 A2 05 01  ................
0850: 80 F6 A2 05 01 1C 26 80  5B 76 80 F2 A2 05 01 F2  ......&.[v......
0860: A2 05 01 65 76 62 30 52  1E 80 F8 FF FF 7F F8 FF  ...evb0R........
0870: FF 7F 73 31 35 39 45 1E  80 F8 FF FF 7F F8 FF FF  ..s159E.........
0880: 7F 73 31 36 31 04 80 1C  26 80 5B 76 80 F1 A2 05  .s161...&.[v....
0890: 01 F1 A2 05 01 65 76 62  30 53 F1 A2 05 01 F1 A2  .....evb0S......
08A0: 05 01 65 76 62 30 52 1E  80 F8 FF FF 7F F8 FF FF  ..evb0R.........
08B0: 7F 73 31 36 31 45 1E 80  F8 FF FF 7F F8 FF FF 7F  .s161E..........
08C0: 73 31 36 32 04 80 6B 69  64 6C 30 F1 A2 05 01 6B  s162..kidl0....k
08D0: 69 64 6C 30 F2 A2 05 01  5B 08 80 EB A2 05 01 EB  idl0....[.......
08E0: A2 05 01 6B 61 6D 73 2B  EB A2 05 01 77 80 23 27  ...kams+....w.#'
08F0: 05 F0 FF FF 7F 0C 53 EB  A2 05 01 EB A2 05 01 6B  ......S........k
0900: 61 6D 73 2A 05 F0 FF FF  7F 5B 76 80 EE A2 05 01  ams*.....[v.....
0910: EE A2 05 01 65 76 61 30  52 1E 80 F8 FF FF 7F F8  ....eva0R.......
0920: FF FF 7F 73 31 36 32 45  1E 80 F8 FF FF 7F F8 FF  ...s162E........
0930: FF 7F 73 31 36 30 04 80  45 1E 80 F8 FF FF 7F F8  ..s160..E.......
0940: FF FF 7F 65 76 61 30 04  80 1C 78 80 52 1E 80 F8  ...eva0...x.R...
0950: FF FF 7F F8 FF FF 7F 73  31 36 30 45 1E 80 F8 FF  .......s160E....
0960: FF 7F F8 FF FF 7F 73 31  36 33 04 80 1C 15 80 52  ......s163.....R
0970: 1E 80 F8 FF FF 7F F8 FF  FF 7F 73 31 36 33 45 1E  ..........s163E.
0980: 80 F8 FF FF 7F F8 FF FF  7F 73 32 30 30 04 80 27  .........s200..'
0990: 05 F2 A2 05 01 03 27 05  F3 A2 05 01 02 27 05 F4  ......'......'..
09A0: A2 05 01 02 27 05 F5 A2  05 01 02 27 05 F6 A2 05  ....'......'....
09B0: 01 02 27 05 EF A2 05 01  03 27 05 F0 A2 05 01 03  ..'......'......
09C0: 27 05 F1 A2 05 01 03 1C  07 80 5D 04 80 15 80 45  '.........]....E
09D0: 03 80 F8 FF FF 7F F8 FF  FF 7F 66 64 6F 30 04 80  ..........fdo0..
09E0: 55 03 80 F8 FF FF 7F F8  FF FF 7F 66 64 6F 30 52  U..........fdo0R
09F0: 1E 80 F8 FF FF 7F F8 FF  FF 7F 73 32 30 30 27 05  ..........s200'.
0A00: F0 FF FF 7F 0D 1C 05 80  5C 00 04 80 5C 01 04 80  ........\...\...
0A10: 5C 02 04 80 5C 03 04 80  9A 2A 05 F2 A2 05 01 2A  \...\....*.....*
0A20: 05 F3 A2 05 01 2A 05 F4  A2 05 01 2A 05 F5 A2 05  .....*.....*....
0A30: 01 2A 05 F6 A2 05 01 2A  05 EF A2 05 01 2A 05 F0  .*.....*.....*..
0A40: A2 05 01 2A 05 F1 A2 05  01 2A 05 F0 FF FF 7F 35  ...*.....*.....5
0A50: 06 80 78 1C 79 80 46 00  1C 07 80 45 03 80 F8 FF  ..x.y.F....E....
0A60: FF 7F F8 FF FF 7F 66 64  69 31 04 80 21 00        ......fdi1..!.  
```

#### Opcodes

```
  0: 0x0444 [0x42] SET_CLI_EVENT_CANCEL_DATA()
  1: 0x0445 [0x5D] SET_MUSIC_VOLUME(volume=0*, fade_time=120*)
  2: 0x044A [0x45] LOAD_SCHEDULED_TASK: Load scheduler "fdo1" with entities [EventEntity, EventEntity], work=[200*, 0*]
  3: 0x045B [0x55] WAIT_LOAD_SCHEDULER: Wait for scheduler "fdo1" with entities [EventEntity, EventEntity], work=200*
  4: 0x046A [0x46] CAMERA_CONTROL: Disable user control
  5: 0x046C [0x38] SET_CLIENT_EVENT_MODE(mode=27*)
  6: 0x046F [0x1C] WAIT(1* ticks)
  7: 0x0472 [0x34] LOAD_UNLOAD_ZONE(zone_id=93*)
  8: 0x0475 [0x77] SET_EVENT_TIME_WEATHER(hour=17*, weather=2*)
  9: 0x047A [0x1C] WAIT(1* ticks)
 10: 0x047D [0x2F] Elbiont N Dieuler (ID: 17146616/0x0105A2F8)->Render.Flags0 &= ~0x80000 // Bit 19
 11: 0x0483 [0x4E] SET_ENTITY_HIDE_FLAG: Show Elbiont N Dieuler (ID: 17146616/0x0105A2F8)
 12: 0x0489 [0x2F] Volker (ID: 17146603/0x0105A2EB)->Render.Flags0 &= ~0x80000 // Bit 19
 13: 0x048F [0x4E] SET_ENTITY_HIDE_FLAG: Show Volker (ID: 17146603/0x0105A2EB)
 14: 0x0495 [0x2F] Unnamed NPC (ID: 17146606/0x0105A2EE)->Render.Flags0 &= ~0x80000 // Bit 19
 15: 0x049B [0x2F] Unnamed NPC (ID: 17146607/0x0105A2EF)->Render.Flags0 &= ~0x80000 // Bit 19
 16: 0x04A1 [0x2F] Unnamed NPC (ID: 17146608/0x0105A2F0)->Render.Flags0 &= ~0x80000 // Bit 19
 17: 0x04A7 [0x2F] Unnamed NPC (ID: 17146609/0x0105A2F1)->Render.Flags0 &= ~0x80000 // Bit 19
 18: 0x04AD [0x2F] Unnamed NPC (ID: 17146610/0x0105A2F2)->Render.Flags0 &= ~0x80000 // Bit 19
 19: 0x04B3 [0x2F] Unnamed NPC (ID: 17146611/0x0105A2F3)->Render.Flags0 &= ~0x80000 // Bit 19
 20: 0x04B9 [0x2F] Unnamed NPC (ID: 17146612/0x0105A2F4)->Render.Flags0 &= ~0x80000 // Bit 19
 21: 0x04BF [0x2F] Unnamed NPC (ID: 17146613/0x0105A2F5)->Render.Flags0 &= ~0x80000 // Bit 19
 22: 0x04C5 [0x2F] Unnamed NPC (ID: 17146614/0x0105A2F6)->Render.Flags0 &= ~0x80000 // Bit 19
 23: 0x04CB [0x92] Elbiont N Dieuler (ID: 17146616/0x0105A2F8)->Render.Flags3 ^= 0x01
 24: 0x04D1 [0x92] Volker (ID: 17146603/0x0105A2EB)->Render.Flags3 ^= 0x01
 25: 0x04D7 [0xBA] SET_ENTITY_POSITION(entity_id=Elbiont N Dieuler (ID: 17146616/0x0105A2F8), pos_x=298.908*, pos_z=260.424*, pos_y=0.691*, direction=180.8°*)
 26: 0x04E4 [0xBA] SET_ENTITY_POSITION(entity_id=Volker (ID: 17146603/0x0105A2EB), pos_x=238.125*, pos_z=260.741*, pos_y=1.749*, direction=3.0°*)
 27: 0x04F1 [0xBA] SET_ENTITY_POSITION(entity_id=LocalPlayer, pos_x=240.851*, pos_z=259.156*, pos_y=1.749*, direction=329.3°*)
 28: 0x04FE [0xBA] SET_ENTITY_POSITION(entity_id=Unnamed NPC (ID: 17146610/0x0105A2F2), pos_x=223.154*, pos_z=257.348*, pos_y=1.050*, direction=3.0°*)
 29: 0x050B [0xBA] SET_ENTITY_POSITION(entity_id=Unnamed NPC (ID: 17146609/0x0105A2F1), pos_x=223.978*, pos_z=258.727*, pos_y=1.232*, direction=3.0°*)
 30: 0x0518 [0xBA] SET_ENTITY_POSITION(entity_id=Unnamed NPC (ID: 17146606/0x0105A2EE), pos_x=226.266*, pos_z=259.663*, pos_y=0.817*, direction=2.9°*)
 31: 0x0525 [0xBA] SET_ENTITY_POSITION(entity_id=Unnamed NPC (ID: 17146607/0x0105A2EF), pos_x=223.230*, pos_z=261.362*, pos_y=1.120*, direction=3.0°*)
 32: 0x0532 [0xBA] SET_ENTITY_POSITION(entity_id=Unnamed NPC (ID: 17146608/0x0105A2F0), pos_x=227.920*, pos_z=272.439*, pos_y=0.847*, direction=3.0°*)
 33: 0x053F [0xBA] SET_ENTITY_POSITION(entity_id=Unnamed NPC (ID: 17146611/0x0105A2F3), pos_x=226.295*, pos_z=280.343*, pos_y=0.530*, direction=2.9°*)
 34: 0x054C [0xBA] SET_ENTITY_POSITION(entity_id=Unnamed NPC (ID: 17146612/0x0105A2F4), pos_x=231.558*, pos_z=281.192*, pos_y=0.999*, direction=3.0°*)
 35: 0x0559 [0xBA] SET_ENTITY_POSITION(entity_id=Unnamed NPC (ID: 17146613/0x0105A2F5), pos_x=250.595*, pos_z=269.036*, pos_y=-3.830*, direction=329.3°*)
 36: 0x0566 [0xBA] SET_ENTITY_POSITION(entity_id=Unnamed NPC (ID: 17146614/0x0105A2F6), pos_x=246.224*, pos_z=232.805*, pos_y=-0.607*, direction=308.0°*)
 37: 0x0573 [0x80] LOAD_WAIT(entity=Elbiont N Dieuler (ID: 17146616/0x0105A2F8))
 38: 0x0578 [0x80] LOAD_WAIT(entity=Volker (ID: 17146603/0x0105A2EB))
 39: 0x057D [0x4E] SET_ENTITY_HIDE_FLAG: Hide LocalPlayer
 40: 0x0583 [0x5C] MUSIC_CONTROL: Set Idle (Day) music to song 250*
 41: 0x0587 [0x5C] MUSIC_CONTROL: Set Idle (Night) music to song 250*
 42: 0x058B [0x5C] MUSIC_CONTROL: Set Combat (Solo) music to song 250*
 43: 0x058F [0x5C] MUSIC_CONTROL: Set Combat (Party) music to song 250*
 44: 0x0593 [0x9A] WAIT_MUSIC_SERVER()
 45: 0x0594 [0x5B] LOAD_EXT_SCHEDULER: Load scheduler "eva0" with entities [Elbiont N Dieuler (ID: 17146616/0x0105A2F8), Elbiont N Dieuler (ID: 17146616/0x0105A2F8)], work=1256*
 46: 0x05A3 [0x27] REQ_SET(priority=0x05, entity_id=Volker (ID: 17146603/0x0105A2EB), tag_num=0x06)
 47: 0x05AA [0x45] LOAD_SCHEDULED_TASK: Load scheduler "s155" with entities [EventEntity, EventEntity], work=[333*, 0*]
 48: 0x05BB [0x1C] WAIT(15* ticks)
 49: 0x05BE [0x45] LOAD_SCHEDULED_TASK: Load scheduler "fdi1" with entities [EventEntity, EventEntity], work=[200*, 0*]
 50: 0x05CF [0x1C] WAIT(120* ticks)
 51: 0x05D2 [0x52] END_LOAD_SCHEDULER: End scheduler "s155" with entities [EventEntity, EventEntity], work=333*
 52: 0x05E1 [0x45] LOAD_SCHEDULED_TASK: Load scheduler "s156" with entities [EventEntity, EventEntity], work=[333*, 0*]
 53: 0x05F2 [0x2A] GET_REQ_LEVEL(level=5, entity_id=Volker (ID: 17146603/0x0105A2EB))
 54: 0x05F8 [0x55] WAIT_LOAD_SCHEDULER: Wait for scheduler "s156" with entities [EventEntity, EventEntity], work=333*
 55: 0x0607 [0x1C] WAIT(30* ticks)
 56: 0x060A [0x45] LOAD_SCHEDULED_TASK: Load scheduler "s157" with entities [EventEntity, EventEntity], work=[333*, 0*]
 57: 0x061B [0x2B] Volker (ID: 17146603/0x0105A2EB) [7829*]:
    → "Ambassador Dieuler!"
 58: 0x0622 [0x23] WAIT_FOR_DIALOG_INTERACTION
 59: 0x0623 [0x4E] SET_ENTITY_HIDE_FLAG: Show LocalPlayer
 60: 0x0629 [0x80] LOAD_WAIT(entity=LocalPlayer)
 61: 0x062E [0x55] WAIT_LOAD_SCHEDULER: Wait for scheduler "s157" with entities [EventEntity, EventEntity], work=333*
 62: 0x063D [0x45] LOAD_SCHEDULED_TASK: Load scheduler "s158" with entities [EventEntity, EventEntity], work=[333*, 0*]
 63: 0x064E [0x29] REQ_SET_WAIT(priority=0x05, entity_id=LocalPlayer, tag_num=0x0B)
 64: 0x0655 [0x4A] Volker (ID: 17146603/0x0105A2EB) looks at LocalPlayer
 65: 0x065E [0x2B] Volker (ID: 17146603/0x0105A2EB) [7830*]:
    → "Where did you come from...?"
 66: 0x0665 [0x23] WAIT_FOR_DIALOG_INTERACTION
 67: 0x0666 [0x4E] SET_ENTITY_HIDE_FLAG: Show Unnamed NPC (ID: 17146606/0x0105A2EE)
 68: 0x066C [0x4E] SET_ENTITY_HIDE_FLAG: Show Unnamed NPC (ID: 17146607/0x0105A2EF)
 69: 0x0672 [0x4E] SET_ENTITY_HIDE_FLAG: Show Unnamed NPC (ID: 17146608/0x0105A2F0)
 70: 0x0678 [0x4E] SET_ENTITY_HIDE_FLAG: Show Unnamed NPC (ID: 17146609/0x0105A2F1)
 71: 0x067E [0x4E] SET_ENTITY_HIDE_FLAG: Show Unnamed NPC (ID: 17146610/0x0105A2F2)
 72: 0x0684 [0x4E] SET_ENTITY_HIDE_FLAG: Show Unnamed NPC (ID: 17146611/0x0105A2F3)
 73: 0x068A [0x4E] SET_ENTITY_HIDE_FLAG: Show Unnamed NPC (ID: 17146612/0x0105A2F4)
 74: 0x0690 [0x4E] SET_ENTITY_HIDE_FLAG: Show Unnamed NPC (ID: 17146613/0x0105A2F5)
 75: 0x0696 [0x4E] SET_ENTITY_HIDE_FLAG: Show Unnamed NPC (ID: 17146614/0x0105A2F6)
 76: 0x069C [0x80] LOAD_WAIT(entity=Unnamed NPC (ID: 17146606/0x0105A2EE))
 77: 0x06A1 [0x80] LOAD_WAIT(entity=Unnamed NPC (ID: 17146607/0x0105A2EF))
 78: 0x06A6 [0x80] LOAD_WAIT(entity=Unnamed NPC (ID: 17146608/0x0105A2F0))
 79: 0x06AB [0x80] LOAD_WAIT(entity=Unnamed NPC (ID: 17146609/0x0105A2F1))
 80: 0x06B0 [0x80] LOAD_WAIT(entity=Unnamed NPC (ID: 17146610/0x0105A2F2))
 81: 0x06B5 [0x80] LOAD_WAIT(entity=Unnamed NPC (ID: 17146611/0x0105A2F3))
 82: 0x06BA [0x80] LOAD_WAIT(entity=Unnamed NPC (ID: 17146612/0x0105A2F4))
 83: 0x06BF [0x80] LOAD_WAIT(entity=Unnamed NPC (ID: 17146613/0x0105A2F5))
 84: 0x06C4 [0x80] LOAD_WAIT(entity=Unnamed NPC (ID: 17146614/0x0105A2F6))
 85: 0x06C9 [0x4A] Unnamed NPC (ID: 17146608/0x0105A2F0) looks at LocalPlayer
 86: 0x06D2 [0x4A] Unnamed NPC (ID: 17146611/0x0105A2F3) looks at LocalPlayer
 87: 0x06DB [0x4A] Unnamed NPC (ID: 17146612/0x0105A2F4) looks at LocalPlayer
 88: 0x06E4 [0x4A] Unnamed NPC (ID: 17146613/0x0105A2F5) looks at LocalPlayer
 89: 0x06ED [0x1C] WAIT(60* ticks)
 90: 0x06F0 [0x52] END_LOAD_SCHEDULER: End scheduler "s158" with entities [EventEntity, EventEntity], work=333*
 91: 0x06FF [0x45] LOAD_SCHEDULED_TASK: Load scheduler "s198" with entities [EventEntity, EventEntity], work=[333*, 0*]
 92: 0x0710 [0x4A] Volker (ID: 17146603/0x0105A2EB) looks at Unnamed NPC (ID: 17146613/0x0105A2F5)
 93: 0x0719 [0x4A] LocalPlayer looks at Unnamed NPC (ID: 17146613/0x0105A2F5)
 94: 0x0722 [0x1C] WAIT(60* ticks)
 95: 0x0725 [0x52] END_LOAD_SCHEDULER: End scheduler "s198" with entities [EventEntity, EventEntity], work=333*
 96: 0x0734 [0x45] LOAD_SCHEDULED_TASK: Load scheduler "s199" with entities [EventEntity, EventEntity], work=[333*, 0*]
 97: 0x0745 [0xBA] SET_ENTITY_POSITION(entity_id=Unnamed NPC (ID: 17146614/0x0105A2F6), pos_x=250.521*, pos_z=239.044*, pos_y=0.999*, direction=3.0°*)
 98: 0x0752 [0x80] LOAD_WAIT(entity=Unnamed NPC (ID: 17146614/0x0105A2F6))
 99: 0x0757 [0x4A] Unnamed NPC (ID: 17146614/0x0105A2F6) looks at LocalPlayer
100: 0x0760 [0x1C] WAIT(60* ticks)
101: 0x0763 [0x52] END_LOAD_SCHEDULER: End scheduler "s199" with entities [EventEntity, EventEntity], work=333*
102: 0x0772 [0x45] LOAD_SCHEDULED_TASK: Load scheduler "s197" with entities [EventEntity, EventEntity], work=[333*, 0*]
103: 0x0783 [0x6E] LocalPlayer uses emote 21*
104: 0x078A [0x99] Wait for LocalPlayer animation to complete
105: 0x078F [0x1C] WAIT(90* ticks)
106: 0x0792 [0x27] REQ_SET(priority=0x05, entity_id=Unnamed NPC (ID: 17146606/0x0105A2EE), tag_num=0x02)
107: 0x0799 [0x1C] WAIT(5* ticks)
108: 0x079C [0x27] REQ_SET(priority=0x05, entity_id=Unnamed NPC (ID: 17146607/0x0105A2EF), tag_num=0x02)
109: 0x07A3 [0x1C] WAIT(5* ticks)
110: 0x07A6 [0x27] REQ_SET(priority=0x05, entity_id=Unnamed NPC (ID: 17146609/0x0105A2F1), tag_num=0x02)
111: 0x07AD [0x1C] WAIT(5* ticks)
112: 0x07B0 [0x27] REQ_SET(priority=0x05, entity_id=Unnamed NPC (ID: 17146610/0x0105A2F2), tag_num=0x02)
113: 0x07B7 [0x1C] WAIT(30* ticks)
114: 0x07BA [0x52] END_LOAD_SCHEDULER: End scheduler "s197" with entities [EventEntity, EventEntity], work=333*
115: 0x07C9 [0x45] LOAD_SCHEDULED_TASK: Load scheduler "s159" with entities [EventEntity, EventEntity], work=[333*, 0*]
116: 0x07DA [0x2A] GET_REQ_LEVEL(level=5, entity_id=Unnamed NPC (ID: 17146606/0x0105A2EE))
117: 0x07E0 [0x2A] GET_REQ_LEVEL(level=5, entity_id=Unnamed NPC (ID: 17146607/0x0105A2EF))
118: 0x07E6 [0x2A] GET_REQ_LEVEL(level=5, entity_id=Unnamed NPC (ID: 17146609/0x0105A2F1))
119: 0x07EC [0x2A] GET_REQ_LEVEL(level=5, entity_id=Unnamed NPC (ID: 17146610/0x0105A2F2))
120: 0x07F2 [0x4A] LocalPlayer looks at Unnamed NPC (ID: 17146606/0x0105A2EE)
121: 0x07FB [0xBA] SET_ENTITY_POSITION(entity_id=Unnamed NPC (ID: 17146608/0x0105A2F0), pos_x=231.569*, pos_z=271.650*, pos_y=1.206*, direction=3.0°*)
122: 0x0808 [0xBA] SET_ENTITY_POSITION(entity_id=Unnamed NPC (ID: 17146611/0x0105A2F3), pos_x=231.038*, pos_z=277.305*, pos_y=1.060*, direction=2.9°*)
123: 0x0815 [0xBA] SET_ENTITY_POSITION(entity_id=Unnamed NPC (ID: 17146612/0x0105A2F4), pos_x=235.403*, pos_z=277.411*, pos_y=1.054*, direction=3.0°*)
124: 0x0822 [0xBA] SET_ENTITY_POSITION(entity_id=Unnamed NPC (ID: 17146613/0x0105A2F5), pos_x=250.567*, pos_z=265.281*, pos_y=0.517*, direction=3.0°*)
125: 0x082F [0xBA] SET_ENTITY_POSITION(entity_id=Unnamed NPC (ID: 17146614/0x0105A2F6), pos_x=251.557*, pos_z=247.288*, pos_y=0.934*, direction=3.0°*)
126: 0x083C [0x80] LOAD_WAIT(entity=Unnamed NPC (ID: 17146608/0x0105A2F0))
127: 0x0841 [0x80] LOAD_WAIT(entity=Unnamed NPC (ID: 17146611/0x0105A2F3))
128: 0x0846 [0x80] LOAD_WAIT(entity=Unnamed NPC (ID: 17146612/0x0105A2F4))
129: 0x084B [0x80] LOAD_WAIT(entity=Unnamed NPC (ID: 17146613/0x0105A2F5))
130: 0x0850 [0x80] LOAD_WAIT(entity=Unnamed NPC (ID: 17146614/0x0105A2F6))
131: 0x0855 [0x1C] WAIT(30* ticks)
132: 0x0858 [0x5B] LOAD_EXT_SCHEDULER: Load scheduler "evb0" with entities [Unnamed NPC (ID: 17146610/0x0105A2F2), Unnamed NPC (ID: 17146610/0x0105A2F2)], work=227*
133: 0x0867 [0x52] END_LOAD_SCHEDULER: End scheduler "s159" with entities [EventEntity, EventEntity], work=333*
134: 0x0876 [0x45] LOAD_SCHEDULED_TASK: Load scheduler "s161" with entities [EventEntity, EventEntity], work=[333*, 0*]
135: 0x0887 [0x1C] WAIT(30* ticks)
136: 0x088A [0x5B] LOAD_EXT_SCHEDULER: Load scheduler "evb0" with entities [Unnamed NPC (ID: 17146609/0x0105A2F1), Unnamed NPC (ID: 17146609/0x0105A2F1)], work=227*
137: 0x0899 [0x53] WAIT_SCHEDULER_TASK: Wait for scheduler "evb0" with entities [Unnamed NPC (ID: 17146609/0x0105A2F1), Unnamed NPC (ID: 17146609/0x0105A2F1)]
138: 0x08A6 [0x52] END_LOAD_SCHEDULER: End scheduler "s161" with entities [EventEntity, EventEntity], work=333*
139: 0x08B5 [0x45] LOAD_SCHEDULED_TASK: Load scheduler "s162" with entities [EventEntity, EventEntity], work=[333*, 0*]
140: 0x08C6 [0x6B] STOP_AND_IDLE: Unnamed NPC (ID: 17146609/0x0105A2F1) stops current action and resets to idle (animation="idl0")
141: 0x08CF [0x6B] STOP_AND_IDLE: Unnamed NPC (ID: 17146610/0x0105A2F2) stops current action and resets to idle (animation="idl0")
142: 0x08D8 [0x5B] LOAD_EXT_SCHEDULER: Load scheduler "kams" with entities [Volker (ID: 17146603/0x0105A2EB), Volker (ID: 17146603/0x0105A2EB)], work=201*
143: 0x08E7 [0x2B] Volker (ID: 17146603/0x0105A2EB) [7831*]:
    → "Explanations will have to wait. To arms!"
144: 0x08EE [0x23] WAIT_FOR_DIALOG_INTERACTION
145: 0x08EF [0x27] REQ_SET(priority=0x05, entity_id=LocalPlayer, tag_num=0x0C)
146: 0x08F6 [0x53] WAIT_SCHEDULER_TASK: Wait for scheduler "kams" with entities [Volker (ID: 17146603/0x0105A2EB), Volker (ID: 17146603/0x0105A2EB)]
147: 0x0903 [0x2A] GET_REQ_LEVEL(level=5, entity_id=LocalPlayer)
148: 0x0909 [0x5B] LOAD_EXT_SCHEDULER: Load scheduler "eva0" with entities [Unnamed NPC (ID: 17146606/0x0105A2EE), Unnamed NPC (ID: 17146606/0x0105A2EE)], work=227*
149: 0x0918 [0x52] END_LOAD_SCHEDULER: End scheduler "s162" with entities [EventEntity, EventEntity], work=333*
150: 0x0927 [0x45] LOAD_SCHEDULED_TASK: Load scheduler "s160" with entities [EventEntity, EventEntity], work=[333*, 0*]
151: 0x0938 [0x45] LOAD_SCHEDULED_TASK: Load scheduler "eva0" with entities [EventEntity, EventEntity], work=[333*, 0*]
152: 0x0949 [0x1C] WAIT(180* ticks)
153: 0x094C [0x52] END_LOAD_SCHEDULER: End scheduler "s160" with entities [EventEntity, EventEntity], work=333*
154: 0x095B [0x45] LOAD_SCHEDULED_TASK: Load scheduler "s163" with entities [EventEntity, EventEntity], work=[333*, 0*]
155: 0x096C [0x1C] WAIT(120* ticks)
156: 0x096F [0x52] END_LOAD_SCHEDULER: End scheduler "s163" with entities [EventEntity, EventEntity], work=333*
157: 0x097E [0x45] LOAD_SCHEDULED_TASK: Load scheduler "s200" with entities [EventEntity, EventEntity], work=[333*, 0*]
158: 0x098F [0x27] REQ_SET(priority=0x05, entity_id=Unnamed NPC (ID: 17146610/0x0105A2F2), tag_num=0x03)
159: 0x0996 [0x27] REQ_SET(priority=0x05, entity_id=Unnamed NPC (ID: 17146611/0x0105A2F3), tag_num=0x02)
160: 0x099D [0x27] REQ_SET(priority=0x05, entity_id=Unnamed NPC (ID: 17146612/0x0105A2F4), tag_num=0x02)
161: 0x09A4 [0x27] REQ_SET(priority=0x05, entity_id=Unnamed NPC (ID: 17146613/0x0105A2F5), tag_num=0x02)
162: 0x09AB [0x27] REQ_SET(priority=0x05, entity_id=Unnamed NPC (ID: 17146614/0x0105A2F6), tag_num=0x02)
163: 0x09B2 [0x27] REQ_SET(priority=0x05, entity_id=Unnamed NPC (ID: 17146607/0x0105A2EF), tag_num=0x03)
164: 0x09B9 [0x27] REQ_SET(priority=0x05, entity_id=Unnamed NPC (ID: 17146608/0x0105A2F0), tag_num=0x03)
165: 0x09C0 [0x27] REQ_SET(priority=0x05, entity_id=Unnamed NPC (ID: 17146609/0x0105A2F1), tag_num=0x03)
166: 0x09C7 [0x1C] WAIT(60* ticks)
167: 0x09CA [0x5D] SET_MUSIC_VOLUME(volume=0*, fade_time=120*)
168: 0x09CF [0x45] LOAD_SCHEDULED_TASK: Load scheduler "fdo0" with entities [EventEntity, EventEntity], work=[200*, 0*]
169: 0x09E0 [0x55] WAIT_LOAD_SCHEDULER: Wait for scheduler "fdo0" with entities [EventEntity, EventEntity], work=200*
170: 0x09EF [0x52] END_LOAD_SCHEDULER: End scheduler "s200" with entities [EventEntity, EventEntity], work=333*
171: 0x09FE [0x27] REQ_SET(priority=0x05, entity_id=LocalPlayer, tag_num=0x0D)
172: 0x0A05 [0x1C] WAIT(1* ticks)
173: 0x0A08 [0x5C] MUSIC_CONTROL: Set Idle (Day) music to song 0*
174: 0x0A0C [0x5C] MUSIC_CONTROL: Set Idle (Night) music to song 0*
175: 0x0A10 [0x5C] MUSIC_CONTROL: Set Combat (Solo) music to song 0*
176: 0x0A14 [0x5C] MUSIC_CONTROL: Set Combat (Party) music to song 0*
177: 0x0A18 [0x9A] WAIT_MUSIC_SERVER()
178: 0x0A19 [0x2A] GET_REQ_LEVEL(level=5, entity_id=Unnamed NPC (ID: 17146610/0x0105A2F2))
179: 0x0A1F [0x2A] GET_REQ_LEVEL(level=5, entity_id=Unnamed NPC (ID: 17146611/0x0105A2F3))
180: 0x0A25 [0x2A] GET_REQ_LEVEL(level=5, entity_id=Unnamed NPC (ID: 17146612/0x0105A2F4))
181: 0x0A2B [0x2A] GET_REQ_LEVEL(level=5, entity_id=Unnamed NPC (ID: 17146613/0x0105A2F5))
182: 0x0A31 [0x2A] GET_REQ_LEVEL(level=5, entity_id=Unnamed NPC (ID: 17146614/0x0105A2F6))
183: 0x0A37 [0x2A] GET_REQ_LEVEL(level=5, entity_id=Unnamed NPC (ID: 17146607/0x0105A2EF))
184: 0x0A3D [0x2A] GET_REQ_LEVEL(level=5, entity_id=Unnamed NPC (ID: 17146608/0x0105A2F0))
185: 0x0A43 [0x2A] GET_REQ_LEVEL(level=5, entity_id=Unnamed NPC (ID: 17146609/0x0105A2F1))
186: 0x0A49 [0x2A] GET_REQ_LEVEL(level=5, entity_id=LocalPlayer)
187: 0x0A4F [0x35] LOAD_ZONE_NO_CLOSE(zone_id=90*)
188: 0x0A52 [0x78] ENABLE_GAME_TIMER_RESET_WEATHER()
189: 0x0A53 [0x1C] WAIT(10* ticks)
190: 0x0A56 [0x46] CAMERA_CONTROL: Restore default settings
191: 0x0A58 [0x1C] WAIT(60* ticks)
192: 0x0A5B [0x45] LOAD_SCHEDULED_TASK: Load scheduler "fdi1" with entities [EventEntity, EventEntity], work=[200*, 0*]
193: 0x0A6C [0x21] END_EVENT
194: 0x0A6D [0x00] END_REQSTACK()
```

### Event 65535.7

#### Metadata

| Field        | Value    |
|--------------|----------|
| Entrypoint   | 0x0A6E   |
| Data Size    | 22 bytes |
| Instructions | 6        |

```
      00 01 02 03 04 05 06 07  08 09 0A 0B 0C 0D 0E 0F
      -- -- -- -- -- -- -- --  -- -- -- -- -- -- -- --
0A60:                                            32 00                2.
0A70: 80 1F 00 7A 80 7B 80 7C  80 1F 01 1E EB A2 05 01  ...z.{.|........
0A80: 1C 26 80 00                                       .&..            
```

#### Opcodes

```
  0: 0x0A6E [0x32] ExtData[1]->MainSpeed = 40* * 0.1
  1: 0x0A71 [0x1F] MOVE_ENTITY: EventEntity moves to X=243.179*, Z=259.539*, Y=1.645*
  2: 0x0A79 [0x1F] MOVE_ENTITY: Update entity position (mode=1)
  3: 0x0A7B [0x1E] EventEntity looks at Volker (ID: 17146603/0x0105A2EB) and starts talking
  4: 0x0A80 [0x1C] WAIT(30* ticks)
  5: 0x0A83 [0x00] END_REQSTACK()
```

### Event 65535.8

#### Metadata

| Field        | Value   |
|--------------|---------|
| Entrypoint   | 0x0A84  |
| Data Size    | 7 bytes |
| Instructions | 3       |

```
      00 01 02 03 04 05 06 07  08 09 0A 0B 0C 0D 0E 0F
      -- -- -- -- -- -- -- --  -- -- -- -- -- -- -- --
0A80:             AB 03 AC 01  05 80 00                     .......     
```

#### Opcodes

```
  0: 0x0A84 [0xAB] EventEntity->Render.Flags0 ^= 0x20000 // Toggle bit 17
  1: 0x0A86 [0xAC] EventEntity->StatusEvent = 1*
  2: 0x0A8A [0x00] END_REQSTACK()
```

### Event 65535.9

#### Metadata

| Field        | Value   |
|--------------|---------|
| Entrypoint   | 0x0A8B  |
| Data Size    | 7 bytes |
| Instructions | 3       |

```
      00 01 02 03 04 05 06 07  08 09 0A 0B 0C 0D 0E 0F
      -- -- -- -- -- -- -- --  -- -- -- -- -- -- -- --
0A80:                                   AC 01 04 80 AB             .....
0A90: 04 00                                             ..              
```

#### Opcodes

```
  0: 0x0A8B [0xAC] EventEntity->StatusEvent = 0*
  1: 0x0A8F [0xAB] EventEntity->Render.Flags0 |= 0x40000 // Set bit 18
  2: 0x0A91 [0x00] END_REQSTACK()
```

### Event 902

#### Metadata

| Field        | Value      |
|--------------|------------|
| Entrypoint   | 0x0A92     |
| Data Size    | 2440 bytes |
| Instructions | 274        |

```
      00 01 02 03 04 05 06 07  08 09 0A 0B 0C 0D 0E 0F
      -- -- -- -- -- -- -- --  -- -- -- -- -- -- -- --
0A90:       42 5D 04 80 15 80  45 03 80 F8 FF FF 7F F8    B]....E.......
0AA0: FF FF 7F 66 64 6F 31 04  80 55 03 80 F8 FF FF 7F  ...fdo1..U......
0AB0: F8 FF FF 7F 66 64 6F 31  46 01 38 16 80 1C 05 80  ....fdo1F.8.....
0AC0: 34 35 80 77 36 80 05 80  1C 05 80 2F 00 F8 A2 05  45.w6....../....
0AD0: 01 4E 00 F8 A2 05 01 2F  00 EB A2 05 01 4E 00 EB  .N...../.....N..
0AE0: A2 05 01 2F 00 EE A2 05  01 4E 00 EE A2 05 01 2F  .../.....N...../
0AF0: 00 EF A2 05 01 4E 00 EF  A2 05 01 2F 00 F0 A2 05  .....N...../....
0B00: 01 4E 00 F0 A2 05 01 2F  00 F1 A2 05 01 4E 00 F1  .N...../.....N..
0B10: A2 05 01 2F 00 F2 A2 05  01 4E 00 F2 A2 05 01 2F  .../.....N...../
0B20: 00 F3 A2 05 01 4E 00 F3  A2 05 01 2F 00 F7 A2 05  .....N...../....
0B30: 01 2F 00 EA A2 05 01 2F  00 EC A2 05 01 4E 00 EC  ./...../.....N..
0B40: A2 05 01 4E 00 F0 FF FF  7F 4E 00 F7 A2 05 01 92  ...N.....N......
0B50: 01 F8 A2 05 01 92 01 EB  A2 05 01 92 01 F7 A2 05  ................
0B60: 01 92 01 EA A2 05 01 BA  F8 A2 05 01 38 80 39 80  ............8.9.
0B70: 3A 80 3B 80 BA EB A2 05  01 7D 80 7E 80 7F 80 80  :.;......}.~....
0B80: 80 BA F0 FF FF 7F 81 80  82 80 83 80 84 80 BA EE  ................
0B90: A2 05 01 85 80 86 80 87  80 88 80 BA EF A2 05 01  ................
0BA0: 89 80 8A 80 8B 80 8C 80  BA F0 A2 05 01 8D 80 8E  ................
0BB0: 80 8F 80 90 80 BA F1 A2  05 01 91 80 92 80 93 80  ................
0BC0: 90 80 BA F2 A2 05 01 94  80 95 80 96 80 90 80 BA  ................
0BD0: F3 A2 05 01 97 80 98 80  99 80 9A 80 BA F7 A2 05  ................
0BE0: 01 9B 80 9C 80 3E 80 9D  80 BA EA A2 05 01 9E 80  .....>..........
0BF0: 9F 80 A0 80 9D 80 BA EC  A2 05 01 7D 80 7E 80 7F  ...........}.~..
0C00: 80 80 80 80 F7 A2 05 01  80 F8 A2 05 01 80 EB A2  ................
0C10: 05 01 80 F0 FF FF 7F 80  EC A2 05 01 80 EE A2 05  ................
0C20: 01 80 EF A2 05 01 80 F0  A2 05 01 80 F1 A2 05 01  ................
0C30: 80 F2 A2 05 01 80 F3 A2  05 01 94 01 F2 A2 05 01  ................
0C40: 94 01 EA A2 05 01 94 01  EB A2 05 01 5B 60 80 F8  ............[`..
0C50: A2 05 01 F8 A2 05 01 65  76 61 30 5B 08 80 EB A2  .......eva0[....
0C60: 05 01 EB A2 05 01 6B 61  6D 30 4A EF A2 05 01 EB  ......kam0J.....
0C70: A2 05 01 4A F0 A2 05 01  EB A2 05 01 4A F1 A2 05  ...J........J...
0C80: 01 EB A2 05 01 4A F2 A2  05 01 EB A2 05 01 53 EB  .....J........S.
0C90: A2 05 01 EB A2 05 01 6B  61 6D 30 5C 00 1D 80 5C  .......kam0\...\
0CA0: 01 1D 80 5C 02 1D 80 5C  03 1D 80 9A 27 05 F0 FF  ...\...\....'...
0CB0: FF 7F 0C 1C 15 80 45 1E  80 F8 FF FF 7F F8 FF FF  ......E.........
0CC0: 7F 73 31 36 35 04 80 1C  1F 80 45 03 80 F8 FF FF  .s165.....E.....
0CD0: 7F F8 FF FF 7F 66 64 69  31 04 80 55 03 80 F8 FF  .....fdi1..U....
0CE0: FF 7F F8 FF FF 7F 66 64  69 31 2B EB A2 05 01 A1  ......fdi1+.....
0CF0: 80 23 5B A2 80 F7 A2 05  01 F7 A2 05 01 6B 65 6E  .#[..........ken
0D00: 30 1C 66 80 52 1E 80 F8  FF FF 7F F8 FF FF 7F 73  0.f.R..........s
0D10: 31 36 35 45 1E 80 F8 FF  FF 7F F8 FF FF 7F 73 32  165E..........s2
0D20: 30 32 04 80 9F A3 80 F7  A2 05 01 F7 A2 05 01 6D  02.............m
0D30: 61 69 6E 04 80 1C 00 80  52 1E 80 F8 FF FF 7F F8  ain.....R.......
0D40: FF FF 7F 73 32 30 32 45  1E 80 F8 FF FF 7F F8 FF  ...s202E........
0D50: FF 7F 73 31 36 34 04 80  BB A4 80 EC A2 05 01 EC  ..s164..........
0D60: A2 05 01 73 30 30 31 04  80 55 1E 80 F8 FF FF 7F  ...s001..U......
0D70: F8 FF FF 7F 73 31 36 34  4E 00 EA A2 05 01 80 EA  ....s164N.......
0D80: A2 05 01 5B A5 80 F7 A2  05 01 F7 A2 05 01 66 69  ...[..........fi
0D90: 6E 30 5B A6 80 EA A2 05  01 EA A2 05 01 70 76 30  n0[..........pv0
0DA0: 30 1C 07 80 45 1E 80 F8  FF FF 7F F8 FF FF 7F 73  0...E..........s
0DB0: 31 39 30 04 80 45 1E 80  F8 FF FF 7F F8 FF FF 7F  190..E..........
0DC0: 77 61 7A 61 04 80 2C EF  A2 05 01 EF A2 05 01 64  waza..,........d
0DD0: 65 61 64 1C 1F 80 2C F0  A2 05 01 F0 A2 05 01 64  ead...,........d
0DE0: 65 61 64 1C 66 80 2C F1  A2 05 01 F1 A2 05 01 64  ead.f.,........d
0DF0: 65 61 64 2C F2 A2 05 01  F2 A2 05 01 64 65 61 64  ead,........dead
0E00: 1C A7 80 2C F3 A2 05 01  F3 A2 05 01 64 65 61 64  ...,........dead
0E10: 1C 26 80 2C EE A2 05 01  EE A2 05 01 64 65 61 64  .&.,........dead
0E20: 1C 07 80 BB A4 80 EC A2  05 01 EC A2 05 01 73 30  ..............s0
0E30: 30 32 04 80 52 1E 80 F8  FF FF 7F F8 FF FF 7F 73  02..R..........s
0E40: 31 39 30 45 1E 80 F8 FF  FF 7F F8 FF FF 7F 73 31  190E..........s1
0E50: 36 36 04 80 6B 69 64 6C  30 EB A2 05 01 BA EB A2  66..kidl0.......
0E60: 05 01 A8 80 A9 80 AA 80  88 80 80 EB A2 05 01 55  ...............U
0E70: 1E 80 F8 FF FF 7F F8 FF  FF 7F 73 31 36 36 1C 26  ..........s166.&
0E80: 80 45 1E 80 F8 FF FF 7F  F8 FF FF 7F 73 31 36 38  .E..........s168
0E90: 04 80 5B A5 80 F7 A2 05  01 F7 A2 05 01 66 69 6E  ..[..........fin
0EA0: 31 1C 78 80 52 1E 80 F8  FF FF 7F F8 FF FF 7F 73  1.x.R..........s
0EB0: 31 36 38 45 1E 80 F8 FF  FF 7F F8 FF FF 7F 73 31  168E..........s1
0EC0: 39 31 04 80 53 F7 A2 05  01 F7 A2 05 01 66 69 6E  91..S........fin
0ED0: 31 52 1E 80 F8 FF FF 7F  F8 FF FF 7F 73 31 39 31  1R..........s191
0EE0: 45 1E 80 F8 FF FF 7F F8  FF FF 7F 73 31 36 37 04  E..........s167.
0EF0: 80 2B EB A2 05 01 AB 80  23 BA F7 A2 05 01 AC 80  .+......#.......
0F00: AD 80 AE 80 AF 80 80 F7  A2 05 01 52 1E 80 F8 FF  ...........R....
0F10: FF 7F F8 FF FF 7F 73 31  36 37 45 1E 80 F8 FF FF  ......s167E.....
0F20: 7F F8 FF FF 7F 73 31 37  30 04 80 27 05 F7 A2 05  .....s170..'....
0F30: 01 03 2B F7 A2 05 01 B0  80 23 2A 05 F7 A2 05 01  ..+......#*.....
0F40: 52 1E 80 F8 FF FF 7F F8  FF FF 7F 73 31 37 30 45  R..........s170E
0F50: 1E 80 F8 FF FF 7F F8 FF  FF 7F 73 31 37 31 04 80  ..........s171..
0F60: 1C 78 80 5D 04 80 15 80  45 03 80 F8 FF FF 7F F8  .x.]....E.......
0F70: FF FF 7F 66 64 6F 31 04  80 55 03 80 F8 FF FF 7F  ...fdo1..U......
0F80: F8 FF FF 7F 66 64 6F 31  52 1E 80 F8 FF FF 7F F8  ....fdo1R.......
0F90: FF FF 7F 73 31 37 31 27  05 F0 FF FF 7F 0D 6B 69  ...s171'......ki
0FA0: 64 6C 30 EA A2 05 01 4E  01 EE A2 05 01 4E 01 EF  dl0....N.....N..
0FB0: A2 05 01 4E 01 F0 A2 05  01 4E 01 F1 A2 05 01 4E  ...N.....N.....N
0FC0: 01 F2 A2 05 01 BA F7 A2  05 01 38 80 39 80 3A 80  ..........8.9.:.
0FD0: 3B 80 BA EB A2 05 01 B1  80 B2 80 B3 80 B4 80 BA  ;...............
0FE0: EA A2 05 01 B5 80 B6 80  B3 80 B4 80 BA F0 FF FF  ................
0FF0: 7F B7 80 B8 80 B9 80 B4  80 80 F7 A2 05 01 80 EB  ................
1000: A2 05 01 80 EA A2 05 01  80 F0 FF FF 7F 5B BA 80  .............[..
1010: F7 A2 05 01 F7 A2 05 01  65 76 62 30 5B 60 80 F8  ........evb0[`..
1020: A2 05 01 F8 A2 05 01 65  76 62 30 4A EB A2 05 01  .......evb0J....
1030: F8 A2 05 01 4A EA A2 05  01 F8 A2 05 01 4A F0 FF  ....J........J..
1040: FF 7F F8 A2 05 01 81 00  F8 A2 05 01 5C 00 BB 80  ............\...
1050: 5C 01 BB 80 5C 02 BB 80  5C 03 BB 80 9A 45 1E 80  \...\...\....E..
1060: F8 FF FF 7F F8 FF FF 7F  73 31 37 32 04 80 1C 1F  ........s172....
1070: 80 45 03 80 F8 FF FF 7F  F8 FF FF 7F 66 64 69 31  .E..........fdi1
1080: 04 80 55 03 80 F8 FF FF  7F F8 FF FF 7F 66 64 69  ..U..........fdi
1090: 31 2B F8 A2 05 01 BC 80  23 52 1E 80 F8 FF FF 7F  1+......#R......
10A0: F8 FF FF 7F 73 31 37 32  45 1E 80 F8 FF FF 7F F8  ....s172E.......
10B0: FF FF 7F 73 31 37 33 04  80 2B F8 A2 05 01 BD 80  ...s173..+......
10C0: 23 5B 2B 80 EA A2 05 01  EA A2 05 01 75 64 73 30  #[+.........uds0
10D0: 52 1E 80 F8 FF FF 7F F8  FF FF 7F 73 31 37 33 45  R..........s173E
10E0: 1E 80 F8 FF FF 7F F8 FF  FF 7F 73 31 37 34 04 80  ..........s174..
10F0: 2B EA A2 05 01 BE 80 23  5B BF 80 EB A2 05 01 EB  +......#[.......
1100: A2 05 01 74 73 6B 31 2B  EB A2 05 01 C0 80 23 52  ...tsk1+......#R
1110: 1E 80 F8 FF FF 7F F8 FF  FF 7F 73 31 37 34 45 1E  ..........s174E.
1120: 80 F8 FF FF 7F F8 FF FF  7F 73 31 37 35 04 80 5B  .........s175..[
1130: 2B 80 EA A2 05 01 EA A2  05 01 75 64 73 31 5B BF  +.........uds1[.
1140: 80 EB A2 05 01 EB A2 05  01 74 68 6B 32 5B BA 80  .........thk2[..
1150: F7 A2 05 01 F7 A2 05 01  65 76 62 31 5B 60 80 F8  ........evb1[`..
1160: A2 05 01 F8 A2 05 01 65  76 62 31 2B F7 A2 05 01  .......evb1+....
1170: C1 80 23 53 F7 A2 05 01  F7 A2 05 01 65 76 62 31  ..#S........evb1
1180: 5B BA 80 F7 A2 05 01 F7  A2 05 01 65 76 62 32 5B  [..........evb2[
1190: 60 80 F8 A2 05 01 F8 A2  05 01 65 76 62 32 52 1E  `.........evb2R.
11A0: 80 F8 FF FF 7F F8 FF FF  7F 73 31 37 35 45 1E 80  .........s175E..
11B0: F8 FF FF 7F F8 FF FF 7F  73 31 37 36 04 80 2B F7  ........s176..+.
11C0: A2 05 01 C2 80 23 53 F7  A2 05 01 F7 A2 05 01 65  .....#S........e
11D0: 76 62 32 5D 04 80 15 80  45 03 80 F8 FF FF 7F F8  vb2]....E.......
11E0: FF FF 7F 66 64 6F 31 04  80 55 03 80 F8 FF FF 7F  ...fdo1..U......
11F0: F8 FF FF 7F 66 64 6F 31  52 1E 80 F8 FF FF 7F F8  ....fdo1R.......
1200: FF FF 7F 73 31 37 36 6B  69 64 6C 30 F8 A2 05 01  ...s176kidl0....
1210: 4E 01 F7 A2 05 01 4E 01  EB A2 05 01 4E 01 EA A2  N.....N.....N...
1220: 05 01 4E 01 F0 FF FF 7F  4E 01 F8 A2 05 01 2F 00  ..N.....N...../.
1230: FB A2 05 01 4E 00 FB A2  05 01 27 05 FB A2 05 01  ....N.....'.....
1240: 02 2F 00 F9 A2 05 01 2F  00 FA A2 05 01 4E 00 F9  ./...../.....N..
1250: A2 05 01 4E 00 FA A2 05  01 92 01 F9 A2 05 01 BA  ...N............
1260: F9 A2 05 01 C3 80 C4 80  C5 80 C6 80 BA FA A2 05  ................
1270: 01 C7 80 C8 80 C9 80 CA  80 BA FB A2 05 01 CB 80  ................
1280: CC 80 CD 80 C6 80 80 FA  A2 05 01 80 F9 A2 05 01  ................
1290: 5C 00 04 80 5C 01 04 80  9A 27 05 FA A2 05 01 02  \...\....'......
12A0: 27 05 F9 A2 05 01 02 1C  26 80 45 1E 80 F8 FF FF  '.......&.E.....
12B0: 7F F8 FF FF 7F 73 31 37  37 04 80 1C 1F 80 45 03  .....s177.....E.
12C0: 80 F8 FF FF 7F F8 FF FF  7F 66 64 69 31 04 80 55  .........fdi1..U
12D0: 03 80 F8 FF FF 7F F8 FF  FF 7F 66 64 69 31 2A 05  ..........fdi1*.
12E0: FA A2 05 01 52 1E 80 F8  FF FF 7F F8 FF FF 7F 73  ....R..........s
12F0: 31 37 37 45 1E 80 F8 FF  FF 7F F8 FF FF 7F 73 31  177E..........s1
1300: 37 38 04 80 9F AE 80 FA  A2 05 01 FB A2 05 01 73  78.............s
1310: 74 72 30 04 80 1C CE 80  52 1E 80 F8 FF FF 7F F8  tr0.....R.......
1320: FF FF 7F 73 31 37 38 45  1E 80 F8 FF FF 7F F8 FF  ...s178E........
1330: FF 7F 73 31 37 39 04 80  2B F9 A2 05 01 CF 80 23  ..s179..+......#
1340: 2B F9 A2 05 01 D0 80 23  52 1E 80 F8 FF FF 7F F8  +......#R.......
1350: FF FF 7F 73 31 37 39 45  1E 80 F8 FF FF 7F F8 FF  ...s179E........
1360: FF 7F 73 31 38 30 04 80  2B F9 A2 05 01 D1 80 23  ..s180..+......#
1370: 52 1E 80 F8 FF FF 7F F8  FF FF 7F 73 31 38 30 45  R..........s180E
1380: 1E 80 F8 FF FF 7F F8 FF  FF 7F 73 31 36 39 04 80  ..........s169..
1390: 2B F9 A2 05 01 D2 80 23  52 1E 80 F8 FF FF 7F F8  +......#R.......
13A0: FF FF 7F 73 31 36 39 45  1E 80 F8 FF FF 7F F8 FF  ...s169E........
13B0: FF 7F 73 32 30 31 04 80  1C 15 80 45 03 80 F8 FF  ..s201.....E....
13C0: FF 7F F8 FF FF 7F 66 64  6F 31 04 80 55 03 80 F8  ......fdo1..U...
13D0: FF FF 7F F8 FF FF 7F 66  64 6F 31 52 1E 80 F8 FF  .......fdo1R....
13E0: FF 7F F8 FF FF 7F 73 32  30 31 35 06 80 78 1C 05  ......s2015..x..
13F0: 80 5C 00 04 80 5C 01 04  80 5C 02 04 80 5C 03 04  .\...\...\...\..
1400: 80 9A 46 00 1C 07 80 45  03 80 F8 FF FF 7F F8 FF  ..F....E........
1410: FF 7F 66 64 69 31 04 80  21 00                    ..fdi1..!.      
```

#### Opcodes

```
  0: 0x0A92 [0x42] SET_CLI_EVENT_CANCEL_DATA()
  1: 0x0A93 [0x5D] SET_MUSIC_VOLUME(volume=0*, fade_time=120*)
  2: 0x0A98 [0x45] LOAD_SCHEDULED_TASK: Load scheduler "fdo1" with entities [EventEntity, EventEntity], work=[200*, 0*]
  3: 0x0AA9 [0x55] WAIT_LOAD_SCHEDULER: Wait for scheduler "fdo1" with entities [EventEntity, EventEntity], work=200*
  4: 0x0AB8 [0x46] CAMERA_CONTROL: Disable user control
  5: 0x0ABA [0x38] SET_CLIENT_EVENT_MODE(mode=27*)
  6: 0x0ABD [0x1C] WAIT(1* ticks)
  7: 0x0AC0 [0x34] LOAD_UNLOAD_ZONE(zone_id=93*)
  8: 0x0AC3 [0x77] SET_EVENT_TIME_WEATHER(hour=17*, weather=1*)
  9: 0x0AC8 [0x1C] WAIT(1* ticks)
 10: 0x0ACB [0x2F] Elbiont N Dieuler (ID: 17146616/0x0105A2F8)->Render.Flags0 &= ~0x80000 // Bit 19
 11: 0x0AD1 [0x4E] SET_ENTITY_HIDE_FLAG: Show Elbiont N Dieuler (ID: 17146616/0x0105A2F8)
 12: 0x0AD7 [0x2F] Volker (ID: 17146603/0x0105A2EB)->Render.Flags0 &= ~0x80000 // Bit 19
 13: 0x0ADD [0x4E] SET_ENTITY_HIDE_FLAG: Show Volker (ID: 17146603/0x0105A2EB)
 14: 0x0AE3 [0x2F] Unnamed NPC (ID: 17146606/0x0105A2EE)->Render.Flags0 &= ~0x80000 // Bit 19
 15: 0x0AE9 [0x4E] SET_ENTITY_HIDE_FLAG: Show Unnamed NPC (ID: 17146606/0x0105A2EE)
 16: 0x0AEF [0x2F] Unnamed NPC (ID: 17146607/0x0105A2EF)->Render.Flags0 &= ~0x80000 // Bit 19
 17: 0x0AF5 [0x4E] SET_ENTITY_HIDE_FLAG: Show Unnamed NPC (ID: 17146607/0x0105A2EF)
 18: 0x0AFB [0x2F] Unnamed NPC (ID: 17146608/0x0105A2F0)->Render.Flags0 &= ~0x80000 // Bit 19
 19: 0x0B01 [0x4E] SET_ENTITY_HIDE_FLAG: Show Unnamed NPC (ID: 17146608/0x0105A2F0)
 20: 0x0B07 [0x2F] Unnamed NPC (ID: 17146609/0x0105A2F1)->Render.Flags0 &= ~0x80000 // Bit 19
 21: 0x0B0D [0x4E] SET_ENTITY_HIDE_FLAG: Show Unnamed NPC (ID: 17146609/0x0105A2F1)
 22: 0x0B13 [0x2F] Unnamed NPC (ID: 17146610/0x0105A2F2)->Render.Flags0 &= ~0x80000 // Bit 19
 23: 0x0B19 [0x4E] SET_ENTITY_HIDE_FLAG: Show Unnamed NPC (ID: 17146610/0x0105A2F2)
 24: 0x0B1F [0x2F] Unnamed NPC (ID: 17146611/0x0105A2F3)->Render.Flags0 &= ~0x80000 // Bit 19
 25: 0x0B25 [0x4E] SET_ENTITY_HIDE_FLAG: Show Unnamed NPC (ID: 17146611/0x0105A2F3)
 26: 0x0B2B [0x2F] Klara (ID: 17146615/0x0105A2F7)->Render.Flags0 &= ~0x80000 // Bit 19
 27: 0x0B31 [0x2F] Zeid (ID: 17146602/0x0105A2EA)->Render.Flags0 &= ~0x80000 // Bit 19
 28: 0x0B37 [0x2F] Unnamed NPC (ID: 17146604/0x0105A2EC)->Render.Flags0 &= ~0x80000 // Bit 19
 29: 0x0B3D [0x4E] SET_ENTITY_HIDE_FLAG: Show Unnamed NPC (ID: 17146604/0x0105A2EC)
 30: 0x0B43 [0x4E] SET_ENTITY_HIDE_FLAG: Show LocalPlayer
 31: 0x0B49 [0x4E] SET_ENTITY_HIDE_FLAG: Show Klara (ID: 17146615/0x0105A2F7)
 32: 0x0B4F [0x92] Elbiont N Dieuler (ID: 17146616/0x0105A2F8)->Render.Flags3 ^= 0x01
 33: 0x0B55 [0x92] Volker (ID: 17146603/0x0105A2EB)->Render.Flags3 ^= 0x01
 34: 0x0B5B [0x92] Klara (ID: 17146615/0x0105A2F7)->Render.Flags3 ^= 0x01
 35: 0x0B61 [0x92] Zeid (ID: 17146602/0x0105A2EA)->Render.Flags3 ^= 0x01
 36: 0x0B67 [0xBA] SET_ENTITY_POSITION(entity_id=Elbiont N Dieuler (ID: 17146616/0x0105A2F8), pos_x=298.908*, pos_z=260.424*, pos_y=0.691*, direction=180.8°*)
 37: 0x0B74 [0xBA] SET_ENTITY_POSITION(entity_id=Volker (ID: 17146603/0x0105A2EB), pos_x=259.157*, pos_z=260.174*, pos_y=1.229*, direction=226.8°*)
 38: 0x0B81 [0xBA] SET_ENTITY_POSITION(entity_id=LocalPlayer, pos_x=260.543*, pos_z=259.467*, pos_y=1.196*, direction=42.7°*)
 39: 0x0B8E [0xBA] SET_ENTITY_POSITION(entity_id=Unnamed NPC (ID: 17146606/0x0105A2EE), pos_x=247.090*, pos_z=261.912*, pos_y=1.228*, direction=180.3°*)
 40: 0x0B9B [0xBA] SET_ENTITY_POSITION(entity_id=Unnamed NPC (ID: 17146607/0x0105A2EF), pos_x=255.890*, pos_z=261.635*, pos_y=1.217*, direction=42.8°*)
 41: 0x0BA8 [0xBA] SET_ENTITY_POSITION(entity_id=Unnamed NPC (ID: 17146608/0x0105A2F0), pos_x=256.137*, pos_z=256.109*, pos_y=0.597*, direction=42.6°*)
 42: 0x0BB5 [0xBA] SET_ENTITY_POSITION(entity_id=Unnamed NPC (ID: 17146609/0x0105A2F1), pos_x=263.066*, pos_z=257.318*, pos_y=0.458*, direction=42.6°*)
 43: 0x0BC2 [0xBA] SET_ENTITY_POSITION(entity_id=Unnamed NPC (ID: 17146610/0x0105A2F2), pos_x=262.372*, pos_z=262.581*, pos_y=0.220*, direction=42.6°*)
 44: 0x0BCF [0xBA] SET_ENTITY_POSITION(entity_id=Unnamed NPC (ID: 17146611/0x0105A2F3), pos_x=247.785*, pos_z=258.652*, pos_y=1.175*, direction=86.2°*)
 45: 0x0BDC [0xBA] SET_ENTITY_POSITION(entity_id=Klara (ID: 17146615/0x0105A2F7), pos_x=241.248*, pos_z=259.056*, pos_y=1.749*, direction=358.7°*)
 46: 0x0BE9 [0xBA] SET_ENTITY_POSITION(entity_id=Zeid (ID: 17146602/0x0105A2EA), pos_x=237.435*, pos_z=257.480*, pos_y=1.631*, direction=358.7°*)
 47: 0x0BF6 [0xBA] SET_ENTITY_POSITION(entity_id=Unnamed NPC (ID: 17146604/0x0105A2EC), pos_x=259.157*, pos_z=260.174*, pos_y=1.229*, direction=226.8°*)
 48: 0x0C03 [0x80] LOAD_WAIT(entity=Klara (ID: 17146615/0x0105A2F7))
 49: 0x0C08 [0x80] LOAD_WAIT(entity=Elbiont N Dieuler (ID: 17146616/0x0105A2F8))
 50: 0x0C0D [0x80] LOAD_WAIT(entity=Volker (ID: 17146603/0x0105A2EB))
 51: 0x0C12 [0x80] LOAD_WAIT(entity=LocalPlayer)
 52: 0x0C17 [0x80] LOAD_WAIT(entity=Unnamed NPC (ID: 17146604/0x0105A2EC))
 53: 0x0C1C [0x80] LOAD_WAIT(entity=Unnamed NPC (ID: 17146606/0x0105A2EE))
 54: 0x0C21 [0x80] LOAD_WAIT(entity=Unnamed NPC (ID: 17146607/0x0105A2EF))
 55: 0x0C26 [0x80] LOAD_WAIT(entity=Unnamed NPC (ID: 17146608/0x0105A2F0))
 56: 0x0C2B [0x80] LOAD_WAIT(entity=Unnamed NPC (ID: 17146609/0x0105A2F1))
 57: 0x0C30 [0x80] LOAD_WAIT(entity=Unnamed NPC (ID: 17146610/0x0105A2F2))
 58: 0x0C35 [0x80] LOAD_WAIT(entity=Unnamed NPC (ID: 17146611/0x0105A2F3))
 59: 0x0C3A [0x94] Unnamed NPC (ID: 17146610/0x0105A2F2)->Render.Flags3 ^= 0x01
 60: 0x0C40 [0x94] Zeid (ID: 17146602/0x0105A2EA)->Render.Flags3 ^= 0x01
 61: 0x0C46 [0x94] Volker (ID: 17146603/0x0105A2EB)->Render.Flags3 ^= 0x01
 62: 0x0C4C [0x5B] LOAD_EXT_SCHEDULER: Load scheduler "eva0" with entities [Elbiont N Dieuler (ID: 17146616/0x0105A2F8), Elbiont N Dieuler (ID: 17146616/0x0105A2F8)], work=1256*
 63: 0x0C5B [0x5B] LOAD_EXT_SCHEDULER: Load scheduler "kam0" with entities [Volker (ID: 17146603/0x0105A2EB), Volker (ID: 17146603/0x0105A2EB)], work=201*
 64: 0x0C6A [0x4A] Unnamed NPC (ID: 17146607/0x0105A2EF) looks at Volker (ID: 17146603/0x0105A2EB)
 65: 0x0C73 [0x4A] Unnamed NPC (ID: 17146608/0x0105A2F0) looks at Volker (ID: 17146603/0x0105A2EB)
 66: 0x0C7C [0x4A] Unnamed NPC (ID: 17146609/0x0105A2F1) looks at Volker (ID: 17146603/0x0105A2EB)
 67: 0x0C85 [0x4A] Unnamed NPC (ID: 17146610/0x0105A2F2) looks at Volker (ID: 17146603/0x0105A2EB)
 68: 0x0C8E [0x53] WAIT_SCHEDULER_TASK: Wait for scheduler "kam0" with entities [Volker (ID: 17146603/0x0105A2EB), Volker (ID: 17146603/0x0105A2EB)]
 69: 0x0C9B [0x5C] MUSIC_CONTROL: Set Idle (Day) music to song 250*
 70: 0x0C9F [0x5C] MUSIC_CONTROL: Set Idle (Night) music to song 250*
 71: 0x0CA3 [0x5C] MUSIC_CONTROL: Set Combat (Solo) music to song 250*
 72: 0x0CA7 [0x5C] MUSIC_CONTROL: Set Combat (Party) music to song 250*
 73: 0x0CAB [0x9A] WAIT_MUSIC_SERVER()
 74: 0x0CAC [0x27] REQ_SET(priority=0x05, entity_id=LocalPlayer, tag_num=0x0C)
 75: 0x0CB3 [0x1C] WAIT(120* ticks)
 76: 0x0CB6 [0x45] LOAD_SCHEDULED_TASK: Load scheduler "s165" with entities [EventEntity, EventEntity], work=[333*, 0*]
 77: 0x0CC7 [0x1C] WAIT(15* ticks)
 78: 0x0CCA [0x45] LOAD_SCHEDULED_TASK: Load scheduler "fdi1" with entities [EventEntity, EventEntity], work=[200*, 0*]
 79: 0x0CDB [0x55] WAIT_LOAD_SCHEDULER: Wait for scheduler "fdi1" with entities [EventEntity, EventEntity], work=200*
 80: 0x0CEA [0x2B] Volker (ID: 17146603/0x0105A2EB) [7816*]:
    → "There's no end to these turtlebacks! Maybe I should've listened to Zeid..."
 81: 0x0CF1 [0x23] WAIT_FOR_DIALOG_INTERACTION
 82: 0x0CF2 [0x5B] LOAD_EXT_SCHEDULER: Load scheduler "ken0" with entities [Klara (ID: 17146615/0x0105A2F7), Klara (ID: 17146615/0x0105A2F7)], work=1350*
 83: 0x0D01 [0x1C] WAIT(5* ticks)
 84: 0x0D04 [0x52] END_LOAD_SCHEDULER: End scheduler "s165" with entities [EventEntity, EventEntity], work=333*
 85: 0x0D13 [0x45] LOAD_SCHEDULED_TASK: Load scheduler "s202" with entities [EventEntity, EventEntity], work=[333*, 0*]
 86: 0x0D24 [0x9F] LOAD_SCHEDULED_TASK_ALT: Load scheduler "main" with entities [Klara (ID: 17146615/0x0105A2F7), Klara (ID: 17146615/0x0105A2F7)], work=[28*, 0*]
 87: 0x0D35 [0x1C] WAIT(40* ticks)
 88: 0x0D38 [0x52] END_LOAD_SCHEDULER: End scheduler "s202" with entities [EventEntity, EventEntity], work=333*
 89: 0x0D47 [0x45] LOAD_SCHEDULED_TASK: Load scheduler "s164" with entities [EventEntity, EventEntity], work=[333*, 0*]
 90: 0x0D58 [0xBB] LOAD_EVENT_SCHEDULER_ALT: Load scheduler "s001" with entities [Unnamed NPC (ID: 17146604/0x0105A2EC), Unnamed NPC (ID: 17146604/0x0105A2EC)], work=[163*, 0*]
 91: 0x0D69 [0x55] WAIT_LOAD_SCHEDULER: Wait for scheduler "s164" with entities [EventEntity, EventEntity], work=333*
 92: 0x0D78 [0x4E] SET_ENTITY_HIDE_FLAG: Show Zeid (ID: 17146602/0x0105A2EA)
 93: 0x0D7E [0x80] LOAD_WAIT(entity=Zeid (ID: 17146602/0x0105A2EA))
 94: 0x0D83 [0x5B] LOAD_EXT_SCHEDULER: Load scheduler "fin0" with entities [Klara (ID: 17146615/0x0105A2F7), Klara (ID: 17146615/0x0105A2F7)], work=1348*
 95: 0x0D92 [0x5B] LOAD_EXT_SCHEDULER: Load scheduler "pv00" with entities [Zeid (ID: 17146602/0x0105A2EA), Zeid (ID: 17146602/0x0105A2EA)], work=245*
 96: 0x0DA1 [0x1C] WAIT(60* ticks)
 97: 0x0DA4 [0x45] LOAD_SCHEDULED_TASK: Load scheduler "s190" with entities [EventEntity, EventEntity], work=[333*, 0*]
 98: 0x0DB5 [0x45] LOAD_SCHEDULED_TASK: Load scheduler "waza" with entities [EventEntity, EventEntity], work=[333*, 0*]
 99: 0x0DC6 [0x2C] CREATE_SCHEDULER_TASK: Create scheduler "dead" with entities [Unnamed NPC (ID: 17146607/0x0105A2EF), Unnamed NPC (ID: 17146607/0x0105A2EF)]
100: 0x0DD3 [0x1C] WAIT(15* ticks)
101: 0x0DD6 [0x2C] CREATE_SCHEDULER_TASK: Create scheduler "dead" with entities [Unnamed NPC (ID: 17146608/0x0105A2F0), Unnamed NPC (ID: 17146608/0x0105A2F0)]
102: 0x0DE3 [0x1C] WAIT(5* ticks)
103: 0x0DE6 [0x2C] CREATE_SCHEDULER_TASK: Create scheduler "dead" with entities [Unnamed NPC (ID: 17146609/0x0105A2F1), Unnamed NPC (ID: 17146609/0x0105A2F1)]
104: 0x0DF3 [0x2C] CREATE_SCHEDULER_TASK: Create scheduler "dead" with entities [Unnamed NPC (ID: 17146610/0x0105A2F2), Unnamed NPC (ID: 17146610/0x0105A2F2)]
105: 0x0E00 [0x1C] WAIT(130* ticks)
106: 0x0E03 [0x2C] CREATE_SCHEDULER_TASK: Create scheduler "dead" with entities [Unnamed NPC (ID: 17146611/0x0105A2F3), Unnamed NPC (ID: 17146611/0x0105A2F3)]
107: 0x0E10 [0x1C] WAIT(30* ticks)
108: 0x0E13 [0x2C] CREATE_SCHEDULER_TASK: Create scheduler "dead" with entities [Unnamed NPC (ID: 17146606/0x0105A2EE), Unnamed NPC (ID: 17146606/0x0105A2EE)]
109: 0x0E20 [0x1C] WAIT(60* ticks)
110: 0x0E23 [0xBB] LOAD_EVENT_SCHEDULER_ALT: Load scheduler "s002" with entities [Unnamed NPC (ID: 17146604/0x0105A2EC), Unnamed NPC (ID: 17146604/0x0105A2EC)], work=[163*, 0*]
111: 0x0E34 [0x52] END_LOAD_SCHEDULER: End scheduler "s190" with entities [EventEntity, EventEntity], work=333*
112: 0x0E43 [0x45] LOAD_SCHEDULED_TASK: Load scheduler "s166" with entities [EventEntity, EventEntity], work=[333*, 0*]
113: 0x0E54 [0x6B] STOP_AND_IDLE: Volker (ID: 17146603/0x0105A2EB) stops current action and resets to idle (animation="idl0")
114: 0x0E5D [0xBA] SET_ENTITY_POSITION(entity_id=Volker (ID: 17146603/0x0105A2EB), pos_x=265.817*, pos_z=261.013*, pos_y=0.782*, direction=180.3°*)
115: 0x0E6A [0x80] LOAD_WAIT(entity=Volker (ID: 17146603/0x0105A2EB))
116: 0x0E6F [0x55] WAIT_LOAD_SCHEDULER: Wait for scheduler "s166" with entities [EventEntity, EventEntity], work=333*
117: 0x0E7E [0x1C] WAIT(30* ticks)
118: 0x0E81 [0x45] LOAD_SCHEDULED_TASK: Load scheduler "s168" with entities [EventEntity, EventEntity], work=[333*, 0*]
119: 0x0E92 [0x5B] LOAD_EXT_SCHEDULER: Load scheduler "fin1" with entities [Klara (ID: 17146615/0x0105A2F7), Klara (ID: 17146615/0x0105A2F7)], work=1348*
120: 0x0EA1 [0x1C] WAIT(180* ticks)
121: 0x0EA4 [0x52] END_LOAD_SCHEDULER: End scheduler "s168" with entities [EventEntity, EventEntity], work=333*
122: 0x0EB3 [0x45] LOAD_SCHEDULED_TASK: Load scheduler "s191" with entities [EventEntity, EventEntity], work=[333*, 0*]
123: 0x0EC4 [0x53] WAIT_SCHEDULER_TASK: Wait for scheduler "fin1" with entities [Klara (ID: 17146615/0x0105A2F7), Klara (ID: 17146615/0x0105A2F7)]
124: 0x0ED1 [0x52] END_LOAD_SCHEDULER: End scheduler "s191" with entities [EventEntity, EventEntity], work=333*
125: 0x0EE0 [0x45] LOAD_SCHEDULED_TASK: Load scheduler "s167" with entities [EventEntity, EventEntity], work=[333*, 0*]
126: 0x0EF1 [0x2B] Volker (ID: 17146603/0x0105A2EB) [7817*]:
    → "Captain!"
127: 0x0EF8 [0x23] WAIT_FOR_DIALOG_INTERACTION
128: 0x0EF9 [0xBA] SET_ENTITY_POSITION(entity_id=Klara (ID: 17146615/0x0105A2F7), pos_x=292.972*, pos_z=257.056*, pos_y=0.170*, direction=289.9°*)
129: 0x0F06 [0x80] LOAD_WAIT(entity=Klara (ID: 17146615/0x0105A2F7))
130: 0x0F0B [0x52] END_LOAD_SCHEDULER: End scheduler "s167" with entities [EventEntity, EventEntity], work=333*
131: 0x0F1A [0x45] LOAD_SCHEDULED_TASK: Load scheduler "s170" with entities [EventEntity, EventEntity], work=[333*, 0*]
132: 0x0F2B [0x27] REQ_SET(priority=0x05, entity_id=Klara (ID: 17146615/0x0105A2F7), tag_num=0x03)
133: 0x0F32 [0x2B] Klara (ID: 17146615/0x0105A2F7) [7818*]:
    → "Ambassador Dieuler! I apologize for the delay in your rescue."
134: 0x0F39 [0x23] WAIT_FOR_DIALOG_INTERACTION
135: 0x0F3A [0x2A] GET_REQ_LEVEL(level=5, entity_id=Klara (ID: 17146615/0x0105A2F7))
136: 0x0F40 [0x52] END_LOAD_SCHEDULER: End scheduler "s170" with entities [EventEntity, EventEntity], work=333*
137: 0x0F4F [0x45] LOAD_SCHEDULED_TASK: Load scheduler "s171" with entities [EventEntity, EventEntity], work=[333*, 0*]
138: 0x0F60 [0x1C] WAIT(180* ticks)
139: 0x0F63 [0x5D] SET_MUSIC_VOLUME(volume=0*, fade_time=120*)
140: 0x0F68 [0x45] LOAD_SCHEDULED_TASK: Load scheduler "fdo1" with entities [EventEntity, EventEntity], work=[200*, 0*]
141: 0x0F79 [0x55] WAIT_LOAD_SCHEDULER: Wait for scheduler "fdo1" with entities [EventEntity, EventEntity], work=200*
142: 0x0F88 [0x52] END_LOAD_SCHEDULER: End scheduler "s171" with entities [EventEntity, EventEntity], work=333*
143: 0x0F97 [0x27] REQ_SET(priority=0x05, entity_id=LocalPlayer, tag_num=0x0D)
144: 0x0F9E [0x6B] STOP_AND_IDLE: Zeid (ID: 17146602/0x0105A2EA) stops current action and resets to idle (animation="idl0")
145: 0x0FA7 [0x4E] SET_ENTITY_HIDE_FLAG: Hide Unnamed NPC (ID: 17146606/0x0105A2EE)
146: 0x0FAD [0x4E] SET_ENTITY_HIDE_FLAG: Hide Unnamed NPC (ID: 17146607/0x0105A2EF)
147: 0x0FB3 [0x4E] SET_ENTITY_HIDE_FLAG: Hide Unnamed NPC (ID: 17146608/0x0105A2F0)
148: 0x0FB9 [0x4E] SET_ENTITY_HIDE_FLAG: Hide Unnamed NPC (ID: 17146609/0x0105A2F1)
149: 0x0FBF [0x4E] SET_ENTITY_HIDE_FLAG: Hide Unnamed NPC (ID: 17146610/0x0105A2F2)
150: 0x0FC5 [0xBA] SET_ENTITY_POSITION(entity_id=Klara (ID: 17146615/0x0105A2F7), pos_x=298.908*, pos_z=260.424*, pos_y=0.691*, direction=180.8°*)
151: 0x0FD2 [0xBA] SET_ENTITY_POSITION(entity_id=Volker (ID: 17146603/0x0105A2EB), pos_x=295.338*, pos_z=260.716*, pos_y=0.281*, direction=317.4°*)
152: 0x0FDF [0xBA] SET_ENTITY_POSITION(entity_id=Zeid (ID: 17146602/0x0105A2EA), pos_x=295.086*, pos_z=259.164*, pos_y=0.281*, direction=317.4°*)
153: 0x0FEC [0xBA] SET_ENTITY_POSITION(entity_id=LocalPlayer, pos_x=298.021*, pos_z=257.959*, pos_y=0.542*, direction=317.4°*)
154: 0x0FF9 [0x80] LOAD_WAIT(entity=Klara (ID: 17146615/0x0105A2F7))
155: 0x0FFE [0x80] LOAD_WAIT(entity=Volker (ID: 17146603/0x0105A2EB))
156: 0x1003 [0x80] LOAD_WAIT(entity=Zeid (ID: 17146602/0x0105A2EA))
157: 0x1008 [0x80] LOAD_WAIT(entity=LocalPlayer)
158: 0x100D [0x5B] LOAD_EXT_SCHEDULER: Load scheduler "evb0" with entities [Klara (ID: 17146615/0x0105A2F7), Klara (ID: 17146615/0x0105A2F7)], work=1349*
159: 0x101C [0x5B] LOAD_EXT_SCHEDULER: Load scheduler "evb0" with entities [Elbiont N Dieuler (ID: 17146616/0x0105A2F8), Elbiont N Dieuler (ID: 17146616/0x0105A2F8)], work=1256*
160: 0x102B [0x4A] Volker (ID: 17146603/0x0105A2EB) looks at Elbiont N Dieuler (ID: 17146616/0x0105A2F8)
161: 0x1034 [0x4A] Zeid (ID: 17146602/0x0105A2EA) looks at Elbiont N Dieuler (ID: 17146616/0x0105A2F8)
162: 0x103D [0x4A] LocalPlayer looks at Elbiont N Dieuler (ID: 17146616/0x0105A2F8)
163: 0x1046 [0x81] SET_ENTITY_BLINKING(blink_flag=0x00, entity=Elbiont N Dieuler (ID: 17146616/0x0105A2F8))
164: 0x104C [0x5C] MUSIC_CONTROL: Set Idle (Day) music to song 127*
165: 0x1050 [0x5C] MUSIC_CONTROL: Set Idle (Night) music to song 127*
166: 0x1054 [0x5C] MUSIC_CONTROL: Set Combat (Solo) music to song 127*
167: 0x1058 [0x5C] MUSIC_CONTROL: Set Combat (Party) music to song 127*
168: 0x105C [0x9A] WAIT_MUSIC_SERVER()
169: 0x105D [0x45] LOAD_SCHEDULED_TASK: Load scheduler "s172" with entities [EventEntity, EventEntity], work=[333*, 0*]
170: 0x106E [0x1C] WAIT(15* ticks)
171: 0x1071 [0x45] LOAD_SCHEDULED_TASK: Load scheduler "fdi1" with entities [EventEntity, EventEntity], work=[200*, 0*]
172: 0x1082 [0x55] WAIT_LOAD_SCHEDULER: Wait for scheduler "fdi1" with entities [EventEntity, EventEntity], work=200*
173: 0x1091 [0x2B] Elbiont N Dieuler (ID: 17146616/0x0105A2F8) [7819*]:
    → "If you fine soldiers had not appeared when you did, I imagine I would currently be enjoying the "hospitality" of Di'Dha's torturers."
174: 0x1098 [0x23] WAIT_FOR_DIALOG_INTERACTION
175: 0x1099 [0x52] END_LOAD_SCHEDULER: End scheduler "s172" with entities [EventEntity, EventEntity], work=333*
176: 0x10A8 [0x45] LOAD_SCHEDULED_TASK: Load scheduler "s173" with entities [EventEntity, EventEntity], work=[333*, 0*]
177: 0x10B9 [0x2B] Elbiont N Dieuler (ID: 17146616/0x0105A2F8) [7820*]:
    → "My escort was slaughtered to a man..."
178: 0x10C0 [0x23] WAIT_FOR_DIALOG_INTERACTION
179: 0x10C1 [0x5B] LOAD_EXT_SCHEDULER: Load scheduler "uds0" with entities [Zeid (ID: 17146602/0x0105A2EA), Zeid (ID: 17146602/0x0105A2EA)], work=244*
180: 0x10D0 [0x52] END_LOAD_SCHEDULER: End scheduler "s173" with entities [EventEntity, EventEntity], work=333*
181: 0x10DF [0x45] LOAD_SCHEDULED_TASK: Load scheduler "s174" with entities [EventEntity, EventEntity], work=[333*, 0*]
182: 0x10F0 [0x2B] Zeid (ID: 17146602/0x0105A2EA) [7821*]:
    → "Di'Dha Adamantfist. Younger brother of Za'Dha Adamantking, and commander of the Quadav elite..."
183: 0x10F7 [0x23] WAIT_FOR_DIALOG_INTERACTION
184: 0x10F8 [0x5B] LOAD_EXT_SCHEDULER: Load scheduler "tsk1" with entities [Volker (ID: 17146603/0x0105A2EB), Volker (ID: 17146603/0x0105A2EB)], work=1397*
185: 0x1107 [0x2B] Volker (ID: 17146603/0x0105A2EB) [7822*]:
    → "What were the minions of the Quadav monarch's brother doing in this mine shaft...?"
186: 0x110E [0x23] WAIT_FOR_DIALOG_INTERACTION
187: 0x110F [0x52] END_LOAD_SCHEDULER: End scheduler "s174" with entities [EventEntity, EventEntity], work=333*
188: 0x111E [0x45] LOAD_SCHEDULED_TASK: Load scheduler "s175" with entities [EventEntity, EventEntity], work=[333*, 0*]
189: 0x112F [0x5B] LOAD_EXT_SCHEDULER: Load scheduler "uds1" with entities [Zeid (ID: 17146602/0x0105A2EA), Zeid (ID: 17146602/0x0105A2EA)], work=244*
190: 0x113E [0x5B] LOAD_EXT_SCHEDULER: Load scheduler "thk2" with entities [Volker (ID: 17146603/0x0105A2EB), Volker (ID: 17146603/0x0105A2EB)], work=1397*
191: 0x114D [0x5B] LOAD_EXT_SCHEDULER: Load scheduler "evb1" with entities [Klara (ID: 17146615/0x0105A2F7), Klara (ID: 17146615/0x0105A2F7)], work=1349*
192: 0x115C [0x5B] LOAD_EXT_SCHEDULER: Load scheduler "evb1" with entities [Elbiont N Dieuler (ID: 17146616/0x0105A2F8), Elbiont N Dieuler (ID: 17146616/0x0105A2F8)], work=1256*
193: 0x116B [0x2B] Klara (ID: 17146615/0x0105A2F7) [7823*]:
    → "Now is not the time for questions with no answers. We must see the ambassador safely to Bastokan lands."
194: 0x1172 [0x23] WAIT_FOR_DIALOG_INTERACTION
195: 0x1173 [0x53] WAIT_SCHEDULER_TASK: Wait for scheduler "evb1" with entities [Klara (ID: 17146615/0x0105A2F7), Klara (ID: 17146615/0x0105A2F7)]
196: 0x1180 [0x5B] LOAD_EXT_SCHEDULER: Load scheduler "evb2" with entities [Klara (ID: 17146615/0x0105A2F7), Klara (ID: 17146615/0x0105A2F7)], work=1349*
197: 0x118F [0x5B] LOAD_EXT_SCHEDULER: Load scheduler "evb2" with entities [Elbiont N Dieuler (ID: 17146616/0x0105A2F8), Elbiont N Dieuler (ID: 17146616/0x0105A2F8)], work=1256*
198: 0x119E [0x52] END_LOAD_SCHEDULER: End scheduler "s175" with entities [EventEntity, EventEntity], work=333*
199: 0x11AD [0x45] LOAD_SCHEDULED_TASK: Load scheduler "s176" with entities [EventEntity, EventEntity], work=[333*, 0*]
200: 0x11BE [0x2B] Klara (ID: 17146615/0x0105A2F7) [7824*]:
    → "Stop by the Metalworks upon your return. I would speak further with you."
201: 0x11C5 [0x23] WAIT_FOR_DIALOG_INTERACTION
202: 0x11C6 [0x53] WAIT_SCHEDULER_TASK: Wait for scheduler "evb2" with entities [Klara (ID: 17146615/0x0105A2F7), Klara (ID: 17146615/0x0105A2F7)]
203: 0x11D3 [0x5D] SET_MUSIC_VOLUME(volume=0*, fade_time=120*)
204: 0x11D8 [0x45] LOAD_SCHEDULED_TASK: Load scheduler "fdo1" with entities [EventEntity, EventEntity], work=[200*, 0*]
205: 0x11E9 [0x55] WAIT_LOAD_SCHEDULER: Wait for scheduler "fdo1" with entities [EventEntity, EventEntity], work=200*
206: 0x11F8 [0x52] END_LOAD_SCHEDULER: End scheduler "s176" with entities [EventEntity, EventEntity], work=333*
207: 0x1207 [0x6B] STOP_AND_IDLE: Elbiont N Dieuler (ID: 17146616/0x0105A2F8) stops current action and resets to idle (animation="idl0")
208: 0x1210 [0x4E] SET_ENTITY_HIDE_FLAG: Hide Klara (ID: 17146615/0x0105A2F7)
209: 0x1216 [0x4E] SET_ENTITY_HIDE_FLAG: Hide Volker (ID: 17146603/0x0105A2EB)
210: 0x121C [0x4E] SET_ENTITY_HIDE_FLAG: Hide Zeid (ID: 17146602/0x0105A2EA)
211: 0x1222 [0x4E] SET_ENTITY_HIDE_FLAG: Hide LocalPlayer
212: 0x1228 [0x4E] SET_ENTITY_HIDE_FLAG: Hide Elbiont N Dieuler (ID: 17146616/0x0105A2F8)
213: 0x122E [0x2F] Unnamed NPC (ID: 17146619/0x0105A2FB)->Render.Flags0 &= ~0x80000 // Bit 19
214: 0x1234 [0x4E] SET_ENTITY_HIDE_FLAG: Show Unnamed NPC (ID: 17146619/0x0105A2FB)
215: 0x123A [0x27] REQ_SET(priority=0x05, entity_id=Unnamed NPC (ID: 17146619/0x0105A2FB), tag_num=0x02)
216: 0x1241 [0x2F] Marquis Amon (ID: 17146617/0x0105A2F9)->Render.Flags0 &= ~0x80000 // Bit 19
217: 0x1247 [0x2F] Unnamed NPC (ID: 17146618/0x0105A2FA)->Render.Flags0 &= ~0x80000 // Bit 19
218: 0x124D [0x4E] SET_ENTITY_HIDE_FLAG: Show Marquis Amon (ID: 17146617/0x0105A2F9)
219: 0x1253 [0x4E] SET_ENTITY_HIDE_FLAG: Show Unnamed NPC (ID: 17146618/0x0105A2FA)
220: 0x1259 [0x92] Marquis Amon (ID: 17146617/0x0105A2F9)->Render.Flags3 ^= 0x01
221: 0x125F [0xBA] SET_ENTITY_POSITION(entity_id=Marquis Amon (ID: 17146617/0x0105A2F9), pos_x=288.743*, pos_z=260.985*, pos_y=0.155*, direction=353.4°*)
222: 0x126C [0xBA] SET_ENTITY_POSITION(entity_id=Unnamed NPC (ID: 17146618/0x0105A2FA), pos_x=288.726*, pos_z=259.232*, pos_y=0.183*, direction=354.5°*)
223: 0x1279 [0xBA] SET_ENTITY_POSITION(entity_id=Unnamed NPC (ID: 17146619/0x0105A2FB), pos_x=293.462*, pos_z=259.026*, pos_y=0.236*, direction=353.4°*)
224: 0x1286 [0x80] LOAD_WAIT(entity=Unnamed NPC (ID: 17146618/0x0105A2FA))
225: 0x128B [0x80] LOAD_WAIT(entity=Marquis Amon (ID: 17146617/0x0105A2F9))
226: 0x1290 [0x5C] MUSIC_CONTROL: Set Idle (Day) music to song 0*
227: 0x1294 [0x5C] MUSIC_CONTROL: Set Idle (Night) music to song 0*
228: 0x1298 [0x9A] WAIT_MUSIC_SERVER()
229: 0x1299 [0x27] REQ_SET(priority=0x05, entity_id=Unnamed NPC (ID: 17146618/0x0105A2FA), tag_num=0x02)
230: 0x12A0 [0x27] REQ_SET(priority=0x05, entity_id=Marquis Amon (ID: 17146617/0x0105A2F9), tag_num=0x02)
231: 0x12A7 [0x1C] WAIT(30* ticks)
232: 0x12AA [0x45] LOAD_SCHEDULED_TASK: Load scheduler "s177" with entities [EventEntity, EventEntity], work=[333*, 0*]
233: 0x12BB [0x1C] WAIT(15* ticks)
234: 0x12BE [0x45] LOAD_SCHEDULED_TASK: Load scheduler "fdi1" with entities [EventEntity, EventEntity], work=[200*, 0*]
235: 0x12CF [0x55] WAIT_LOAD_SCHEDULER: Wait for scheduler "fdi1" with entities [EventEntity, EventEntity], work=200*
236: 0x12DE [0x2A] GET_REQ_LEVEL(level=5, entity_id=Unnamed NPC (ID: 17146618/0x0105A2FA))
237: 0x12E4 [0x52] END_LOAD_SCHEDULER: End scheduler "s177" with entities [EventEntity, EventEntity], work=333*
238: 0x12F3 [0x45] LOAD_SCHEDULED_TASK: Load scheduler "s178" with entities [EventEntity, EventEntity], work=[333*, 0*]
239: 0x1304 [0x9F] LOAD_SCHEDULED_TASK_ALT: Load scheduler "str0" with entities [Unnamed NPC (ID: 17146618/0x0105A2FA), Unnamed NPC (ID: 17146619/0x0105A2FB)], work=[170*, 0*]
240: 0x1315 [0x1C] WAIT(480* ticks)
241: 0x1318 [0x52] END_LOAD_SCHEDULER: End scheduler "s178" with entities [EventEntity, EventEntity], work=333*
242: 0x1327 [0x45] LOAD_SCHEDULED_TASK: Load scheduler "s179" with entities [EventEntity, EventEntity], work=[333*, 0*]
243: 0x1338 [0x2B] Marquis Amon (ID: 17146617/0x0105A2F9) [7825*]:
    → "So, he has escaped... A missed opportunity to infiltrate the security of the Republic..."
244: 0x133F [0x23] WAIT_FOR_DIALOG_INTERACTION
245: 0x1340 [0x2B] Marquis Amon (ID: 17146617/0x0105A2F9) [7826*]:
    → "No matter. My next plan already approaches fruition."
246: 0x1347 [0x23] WAIT_FOR_DIALOG_INTERACTION
247: 0x1348 [0x52] END_LOAD_SCHEDULER: End scheduler "s179" with entities [EventEntity, EventEntity], work=333*
248: 0x1357 [0x45] LOAD_SCHEDULED_TASK: Load scheduler "s180" with entities [EventEntity, EventEntity], work=[333*, 0*]
249: 0x1368 [0x2B] Marquis Amon (ID: 17146617/0x0105A2F9) [7827*]:
    → "We have the secrets gleaned from San d'Oria's own reconnaissance..."
250: 0x136F [0x23] WAIT_FOR_DIALOG_INTERACTION
251: 0x1370 [0x52] END_LOAD_SCHEDULER: End scheduler "s180" with entities [EventEntity, EventEntity], work=333*
252: 0x137F [0x45] LOAD_SCHEDULED_TASK: Load scheduler "s169" with entities [EventEntity, EventEntity], work=[333*, 0*]
253: 0x1390 [0x2B] Marquis Amon (ID: 17146617/0x0105A2F9) [7828*]:
    → "These fools of Altana have an alliance in name only. So many ways to bring it crumbling down..."
254: 0x1397 [0x23] WAIT_FOR_DIALOG_INTERACTION
255: 0x1398 [0x52] END_LOAD_SCHEDULER: End scheduler "s169" with entities [EventEntity, EventEntity], work=333*
256: 0x13A7 [0x45] LOAD_SCHEDULED_TASK: Load scheduler "s201" with entities [EventEntity, EventEntity], work=[333*, 0*]
257: 0x13B8 [0x1C] WAIT(120* ticks)
258: 0x13BB [0x45] LOAD_SCHEDULED_TASK: Load scheduler "fdo1" with entities [EventEntity, EventEntity], work=[200*, 0*]
259: 0x13CC [0x55] WAIT_LOAD_SCHEDULER: Wait for scheduler "fdo1" with entities [EventEntity, EventEntity], work=200*
260: 0x13DB [0x52] END_LOAD_SCHEDULER: End scheduler "s201" with entities [EventEntity, EventEntity], work=333*
261: 0x13EA [0x35] LOAD_ZONE_NO_CLOSE(zone_id=90*)
262: 0x13ED [0x78] ENABLE_GAME_TIMER_RESET_WEATHER()
263: 0x13EE [0x1C] WAIT(1* ticks)
