# Event 65535

## Metadata

| Field           | Value    |
|-----------------|----------|
| Event Index     | 81/136   |
| Offset          | 0x0605   |
| Data Size       | 38 bytes |
| Calculated Size | 38 bytes |
| Instructions    | 12       |

```
      00 01 02 03 04 05 06 07  08 09 0A 0B 0C 0D 0E 0F
      -- -- -- -- -- -- -- --  -- -- -- -- -- -- -- --
0600:                33 01 33  01 1C 1F 80 32 20 80 1F       3.3....2 ..
0610: 00 21 80 22 80 23 80 1F  01 1F 00 24 80 25 80 26  .!.".#.....$.%.&
0620: 80 1F 01 1E 51 80 11 01  6F 70 00                 ....Q...op.     
```

## Opcodes

```
  0: 0x0605 [0x33] EventEntity->Render.Flags0 |= 0x200000 // Bit 21 (flag=0x01)
  1: 0x0607 [0x33] EventEntity->Render.Flags0 |= 0x200000 // Bit 21 (flag=0x01)
  2: 0x0609 [0x1C] WAIT(60* ticks)
  3: 0x060C [0x32] ExtData[1]->MainSpeed = 40* * 0.1
  4: 0x060F [0x1F] MOVE_ENTITY: EventEntity moves to X=9.044*, Z=-12.054*, Y=-0.358*
  5: 0x0617 [0x1F] MOVE_ENTITY: Update entity position (mode=1)
  6: 0x0619 [0x1F] MOVE_ENTITY: EventEntity moves to X=8.010*, Z=-12.514*, Y=0.859*
  7: 0x0621 [0x1F] MOVE_ENTITY: Update entity position (mode=1)
  8: 0x0623 [0x1E] EventEntity looks at Unnamed NPC (ID: 17924177/0x01118051) and starts talking
  9: 0x0628 [0x6F] WAIT_FRAME_DELAY: Yield until WaitTime reaches zero
 10: 0x0629 [0x70] WAIT_ENTITY_RENDER_FLAG: Wait while EventEntity->Render.Flags3 bit 2 is set (cancel turn if not)
 11: 0x062A [0x00] END_REQSTACK()
```
