# Event 65535

## Metadata

| Field           | Value    |
|-----------------|----------|
| Event Index     | 47/196   |
| Offset          | 0x33F1   |
| Data Size       | 55 bytes |
| Calculated Size | 55 bytes |
| Instructions    | 5        |

```
      00 01 02 03 04 05 06 07  08 09 0A 0B 0C 0D 0E 0F
      -- -- -- -- -- -- -- --  -- -- -- -- -- -- -- --
33F0:    45 01 80 48 30 0F 01  48 30 0F 01 62 6C 6F 6E   E..H0..H0..blon
3400: 02 80 45 53 81 F0 FF FF  7F F0 FF FF 7F 62 6C 6F  ..ES.........blo
3410: 6E 02 80 1C 22 81 45 01  80 48 30 0F 01 48 30 0F  n...".E..H0..H0.
3420: 01 62 6C 6F 66 02 80 00                           .blof...        
```

## Opcodes

```
  0: 0x33F1 [0x45] LOAD_SCHEDULED_TASK: Load scheduler "blon" with entities [Star Sibyl (ID: 17772616/0x010F3048), Star Sibyl (ID: 17772616/0x010F3048)], work=[200*, 0*]
  1: 0x3402 [0x45] LOAD_SCHEDULED_TASK: Load scheduler "blon" with entities [LocalPlayer, LocalPlayer], work=[201*, 0*]
  2: 0x3413 [0x1C] WAIT(100* ticks)
  3: 0x3416 [0x45] LOAD_SCHEDULED_TASK: Load scheduler "blof" with entities [Star Sibyl (ID: 17772616/0x010F3048), Star Sibyl (ID: 17772616/0x010F3048)], work=[200*, 0*]
  4: 0x3427 [0x00] END_REQSTACK()
```
