# Event 65535

## Metadata

| Field           | Value    |
|-----------------|----------|
| Event Index     | 167/196  |
| Offset          | 0x47C5   |
| Data Size       | 90 bytes |
| Calculated Size | 90 bytes |
| Instructions    | 11       |

```
      00 01 02 03 04 05 06 07  08 09 0A 0B 0C 0D 0E 0F
      -- -- -- -- -- -- -- --  -- -- -- -- -- -- -- --
47C0:                13 16 00  F7 82 02 16 00 02 80 80       ...........
47D0: E6 47 45 13 82 F0 FF FF  7F F0 FF FF 7F 64 61 75  .GE..........dau
47E0: 30 02 80 01 1E 48 02 16  00 94 80 80 02 48 45 13  0....H.......HE.
47F0: 82 F0 FF FF 7F F0 FF FF  7F 64 61 75 31 02 80 01  .........dau1...
4800: 1E 48 02 16 00 F7 82 80  1E 48 45 13 82 F0 FF FF  .H.......HE.....
4810: 7F F0 FF FF 7F 64 61 75  32 02 80 01 1E 48 00     .....dau2....H. 
```

## Opcodes

```
  0: 0x47C5 [0x13] ExtData[1]->WorkLocal[22] = rand() % 2*
  1: 0x47CA [0x02] IF !(ExtData[1]->WorkLocal[22] == 0*) GOTO 0x47E6
  2: 0x47D2 [0x45] LOAD_SCHEDULED_TASK: Load scheduler "dau0" with entities [LocalPlayer, LocalPlayer], work=[551*, 0*]
  3: 0x47E3 [0x01] GOTO 0x481E

SUBROUTINE_47E6:
  4: 0x47E6 [0x02] IF !(ExtData[1]->WorkLocal[22] == 1*) GOTO 0x4802
  5: 0x47EE [0x45] LOAD_SCHEDULED_TASK: Load scheduler "dau1" with entities [LocalPlayer, LocalPlayer], work=[551*, 0*]
  6: 0x47FF [0x01] GOTO 0x481E

SUBROUTINE_4802:
  7: 0x4802 [0x02] IF !(ExtData[1]->WorkLocal[22] == 2*) GOTO 0x481E
  8: 0x480A [0x45] LOAD_SCHEDULED_TASK: Load scheduler "dau2" with entities [LocalPlayer, LocalPlayer], work=[551*, 0*]
  9: 0x481B [0x01] GOTO 0x481E

SUBROUTINE_481E:
 10: 0x481E [0x00] END_REQSTACK()
```
