# Event 65535

## Metadata

| Field           | Value    |
|-----------------|----------|
| Event Index     | 120/196  |
| Offset          | 0x3B1E   |
| Data Size       | 29 bytes |
| Calculated Size | 29 bytes |
| Instructions    | 8        |

```
      00 01 02 03 04 05 06 07  08 09 0A 0B 0C 0D 0E 0F
      -- -- -- -- -- -- -- --  -- -- -- -- -- -- -- --
3B10:                                            02 09                ..
3B20: 10 86 82 00 2C 3B 32 00  80 01 2F 3B 32 DD 80 1F  ....,;2.../;2...
3B30: 00 87 82 88 82 8B 80 1F  01 6F 00                 .........o.     
```

## Opcodes

```
  0: 0x3B1E [0x02] IF !(Work_Zone[9] == 8*) GOTO 0x3B2C
  1: 0x3B26 [0x32] ExtData[1]->MainSpeed = 13* * 0.1
  2: 0x3B29 [0x01] GOTO 0x3B2F

SUBROUTINE_3B2C:
  3: 0x3B2C [0x32] ExtData[1]->MainSpeed = 40* * 0.1
  4: 0x3B2F [0x1F] MOVE_ENTITY: EventEntity moves to X=-19.155*, Z=63.363*, Y=2.000*
  5: 0x3B37 [0x1F] MOVE_ENTITY: Update entity position (mode=1)
  6: 0x3B39 [0x6F] WAIT_FRAME_DELAY: Yield until WaitTime reaches zero
  7: 0x3B3A [0x00] END_REQSTACK()
```
