# Event 65535

## Metadata

| Field           | Value    |
|-----------------|----------|
| Event Index     | 196/196  |
| Offset          | 0x503C   |
| Data Size       | 45 bytes |
| Calculated Size | 45 bytes |
| Instructions    | 11       |

```
      00 01 02 03 04 05 06 07  08 09 0A 0B 0C 0D 0E 0F
      -- -- -- -- -- -- -- --  -- -- -- -- -- -- -- --
5030:                                      32 00 80 1F              2...
5040: 00 19 83 1A 83 18 83 1F  01 1F 00 1B 83 1C 83 18  ................
5050: 83 1F 01 1F 00 1D 83 1E  83 18 83 1F 01 1F 00 1F  ................
5060: 83 20 83 5C 82 1F 01 6F  00                       . .\...o.       
```

## Opcodes

```
  0: 0x503C [0x32] ExtData[1]->MainSpeed = 13* * 0.1
  1: 0x503F [0x1F] MOVE_ENTITY: EventEntity moves to X=4.829*, Z=118.108*, Y=3.099*
  2: 0x5047 [0x1F] MOVE_ENTITY: Update entity position (mode=1)
  3: 0x5049 [0x1F] MOVE_ENTITY: EventEntity moves to X=3.376*, Z=117.042*, Y=3.099*
  4: 0x5051 [0x1F] MOVE_ENTITY: Update entity position (mode=1)
  5: 0x5053 [0x1F] MOVE_ENTITY: EventEntity moves to X=2.460*, Z=115.001*, Y=3.099*
  6: 0x505B [0x1F] MOVE_ENTITY: Update entity position (mode=1)
  7: 0x505D [0x1F] MOVE_ENTITY: EventEntity moves to X=0.875*, Z=101.566*, Y=3.000*
  8: 0x5065 [0x1F] MOVE_ENTITY: Update entity position (mode=1)
  9: 0x5067 [0x6F] WAIT_FRAME_DELAY: Yield until WaitTime reaches zero
 10: 0x5068 [0x00] END_REQSTACK()
```
