# Event 65535

## Metadata

| Field           | Value    |
|-----------------|----------|
| Event Index     | 166/196  |
| Offset          | 0x476B   |
| Data Size       | 90 bytes |
| Calculated Size | 90 bytes |
| Instructions    | 11       |

```
      00 01 02 03 04 05 06 07  08 09 0A 0B 0C 0D 0E 0F
      -- -- -- -- -- -- -- --  -- -- -- -- -- -- -- --
4760:                                   13 15 00 F7 82             .....
4770: 02 15 00 02 80 80 8C 47  45 13 82 F0 FF FF 7F F0  .......GE.......
4780: FF FF 7F 6D 61 75 30 02  80 01 C4 47 02 15 00 94  ...mau0....G....
4790: 80 80 A8 47 45 13 82 F0  FF FF 7F F0 FF FF 7F 6D  ...GE..........m
47A0: 61 75 31 02 80 01 C4 47  02 15 00 F7 82 80 C4 47  au1....G.......G
47B0: 45 13 82 F0 FF FF 7F F0  FF FF 7F 6D 61 75 32 02  E..........mau2.
47C0: 80 01 C4 47 00                                    ...G.           
```

## Opcodes

```
  0: 0x476B [0x13] ExtData[1]->WorkLocal[21] = rand() % 2*
  1: 0x4770 [0x02] IF !(ExtData[1]->WorkLocal[21] == 0*) GOTO 0x478C
  2: 0x4778 [0x45] LOAD_SCHEDULED_TASK(work_offset1=551*, entity1=LocalPlayer, entity2=LocalPlayer, scheduler_id="mau0", work_offset2=0*)
  3: 0x4789 [0x01] GOTO 0x47C4

SUBROUTINE_478C:
  4: 0x478C [0x02] IF !(ExtData[1]->WorkLocal[21] == 1*) GOTO 0x47A8
  5: 0x4794 [0x45] LOAD_SCHEDULED_TASK(work_offset1=551*, entity1=LocalPlayer, entity2=LocalPlayer, scheduler_id="mau1", work_offset2=0*)
  6: 0x47A5 [0x01] GOTO 0x47C4

SUBROUTINE_47A8:
  7: 0x47A8 [0x02] IF !(ExtData[1]->WorkLocal[21] == 2*) GOTO 0x47C4
  8: 0x47B0 [0x45] LOAD_SCHEDULED_TASK(work_offset1=551*, entity1=LocalPlayer, entity2=LocalPlayer, scheduler_id="mau2", work_offset2=0*)
  9: 0x47C1 [0x01] GOTO 0x47C4

SUBROUTINE_47C4:
 10: 0x47C4 [0x00] END_REQSTACK()
```
