# Event 65535

## Metadata

| Field           | Value    |
|-----------------|----------|
| Event Index     | 60/196   |
| Offset          | 0x36DF   |
| Data Size       | 41 bytes |
| Calculated Size | 41 bytes |
| Instructions    | 11       |

```
      00 01 02 03 04 05 06 07  08 09 0A 0B 0C 0D 0E 0F
      -- -- -- -- -- -- -- --  -- -- -- -- -- -- -- --
36D0:                                               33                 3
36E0: 01 5A 00 02 80 BD 81 BE  81 5A 01 5A 00 02 80 C6  .Z.......Z.Z....
36F0: 81 C7 81 5A 01 33 00 1F  00 02 80 C8 81 B4 80 1F  ...Z.3..........
3700: 01 6F 1E 0B 30 0F 01 00                           .o..0...        
```

## Opcodes

```
  0: 0x36DF [0x33] EventEntity->Render.Flags0 |= 0x200000 // Bit 21 (flag=0x01)
  1: 0x36E1 [0x5A] UPDATE_EVENT_POSITION: Set EventEntity MovePosition to X=0.000*, Z=92.044*, Y=-6.996*
  2: 0x36E9 [0x5A] UPDATE_EVENT_POSITION: Move EventEntity incrementally towards MovePosition
  3: 0x36EB [0x5A] UPDATE_EVENT_POSITION: Set EventEntity MovePosition to X=0.000*, Z=87.293*, Y=-5.195*
  4: 0x36F3 [0x5A] UPDATE_EVENT_POSITION: Move EventEntity incrementally towards MovePosition
  5: 0x36F5 [0x33] EventEntity->Render.Flags0 &= ~ 0x200000 // Bit 21 (flag=0x00)
  6: 0x36F7 [0x1F] MOVE_ENTITY: EventEntity moves to X=0.000*, Z=86.500*, Y=-4.999*
  7: 0x36FF [0x1F] MOVE_ENTITY: Update entity position (mode=1)
  8: 0x3701 [0x6F] WAIT_FRAME_DELAY: Yield until WaitTime reaches zero
  9: 0x3702 [0x1E] EventEntity looks at Mawl'gofaur (ID: 17772555/0x010F300B) and starts talking
 10: 0x3707 [0x00] END_REQSTACK()
```
