# Event 65535

## Metadata

| Field           | Value    |
|-----------------|----------|
| Event Index     | 108/196  |
| Offset          | 0x3A74   |
| Data Size       | 50 bytes |
| Calculated Size | 50 bytes |
| Instructions    | 8        |

```
      00 01 02 03 04 05 06 07  08 09 0A 0B 0C 0D 0E 0F
      -- -- -- -- -- -- -- --  -- -- -- -- -- -- -- --
3A70:             02 09 10 D3  80 00 88 3A 37 67 82 68      .......:7g.h
3A80: 82 8B 80 69 82 01 A5 3A  02 09 10 6A 82 00 9C 3A  ...i...:...j...:
3A90: 37 67 82 68 82 8B 80 69  82 01 A5 3A 37 6B 82 6C  7g.h...i...:7k.l
3AA0: 82 8B 80 69 82 00                                 ...i..          
```

## Opcodes

```
  0: 0x3A74 [0x02] IF !(Work_Zone[9] == 5*) GOTO 0x3A88
  1: 0x3A7C [0x37] UPDATE_EVENT_POSITION_AND_DIR: x=-8.166*, z=65.427*, y=2.000*, direction=337.6°*
  2: 0x3A85 [0x01] GOTO 0x3AA5
  3: 0x3A88 [0x02] IF !(Work_Zone[9] == 6*) GOTO 0x3A9C
  4: 0x3A90 [0x37] UPDATE_EVENT_POSITION_AND_DIR: x=-8.166*, z=65.427*, y=2.000*, direction=337.6°*
  5: 0x3A99 [0x01] GOTO 0x3AA5
  6: 0x3A9C [0x37] UPDATE_EVENT_POSITION_AND_DIR: x=-7.600*, z=65.087*, y=2.000*, direction=337.6°*
  7: 0x3AA5 [0x00] END_REQSTACK()
```
