# 16834575 - FXTEST

## Common Data

| Field            | Value                         |
|------------------|-------------------------------|
| Zone             | Hall of Transference (ID: 14) |
| Block Size       | 2032 bytes                    |
| Total Events     | 2                             |
| References Count | 26                            |

## List of Events

| Event ID              | Entrypoint   |   Size |   Instructions |
|-----------------------|--------------|--------|----------------|
| [65535](#event-65535) | 0x0000       |      1 |              1 |
| [50](#event-50)       | 0x0001       |   1900 |            277 |

## DAT References (imed_data)

|   Index | Hex Value   |   Dec Value |
|---------|-------------|-------------|
|       0 | 0x1C51      |        7249 |
|       1 | 0x0000      |           0 |
|       2 | 0x00C8      |         200 |
|       3 | 0x003C      |          60 |
|       4 | 0x021D      |         541 |
|       5 | 0x0064      |         100 |
|       6 | 0x005E      |          94 |
|       7 | 0x000C      |          12 |
|       8 | 0x0001      |           1 |
|       9 | 0x1C54      |        7252 |
|      10 | 0x0010      |          16 |
|      11 | 0x1C55      |        7253 |
|      12 | 0x1C56      |        7254 |
|      13 | 0x1C53      |        7251 |
|      14 | 0x000E      |          14 |
|      15 | 0x0002      |           2 |
|      16 | 0x00C9      |         201 |
|      17 | 0x000A      |          10 |
|      18 | 0x0003      |           3 |
|      19 | 0x021C      |         540 |
|      20 | 0x1C52      |        7250 |
|      21 | 0x0004      |           4 |
|      22 | 0x0220      |         544 |
|      23 | 0x0005      |           5 |
|      24 | 0x0221      |         545 |
|      25 | 0x0013      |          19 |

## String References

- **7249**: $3N$3$3X$3^$3 [$20%.$3G$3t$3F$3N$3g$3e$3X$3g$0$P16Z/ [$3z$3$1E$3f$3 E$3$3A$P12J$m\`$P14-u\`$P12J$m/$3$3@$3Y$P12J$m\`$P14-u$4325972_$P12J$m\`$P14j%s/$3N$3$3X$3^$3 [$ [$6$10i3$P12i$K$4325924kL$m$20%.i4$P12i$Kj/$P10^$P10"$E%$$@L$Ti2$P12i$K$4653664i]
- **7250**: $3{$3^$3$2p$317F$31L$P12i$KI$P10i]\\7B
- **7251**: $3{$3^$3$2p$317F$3e$3X$3g$I%95\\7B
- **7252**: $3{$3^$3$2p$317F$3N$3$3X$3^$3 [*$P124$P14-u5\\7B/$5112652$3$3X$3^$3 [L$j$7M$26$P14-5\\7j]
- **7253**: $3{$3^$3$2p$317F$3N$3$3X$3^$3 [$P12J$m$P14-uIHh\\7B]
- **7254**: $3{$3^$3$2p$317F$3R$3$3\\$6226730$3E$3$25\\7B

## Events

### Event 65535

#### Metadata

| Field        | Value   |
|--------------|---------|
| Entrypoint   | 0x0000  |
| Data Size    | 1 bytes |
| Instructions | 1       |

```
      00 01 02 03 04 05 06 07  08 09 0A 0B 0C 0D 0E 0F
      -- -- -- -- -- -- -- --  -- -- -- -- -- -- -- --
0000: 00                                                .               
```

#### Opcodes

```
  0: 0x0000 [0x00] END_REQSTACK()
```

### Event 50

#### Metadata

| Field        | Value      |
|--------------|------------|
| Entrypoint   | 0x0001     |
| Data Size    | 1900 bytes |
| Instructions | 277        |

```
      00 01 02 03 04 05 06 07  08 09 0A 0B 0C 0D 0E 0F
      -- -- -- -- -- -- -- --  -- -- -- -- -- -- -- --
0000:    46 01 42 24 00 80 01  80 01 80 25 02 00 10 01   F.B$......%....
0010: 80 00 39 01 45 02 80 F0  FF FF 7F F0 FF FF 7F 66  ..9.E..........f
0020: 64 6F 31 01 80 1C 03 80  34 04 80 1C 05 80 45 06  do1.....4.....E.
0030: 80 F8 FF FF 7F F8 FF FF  7F 63 72 79 31 01 80 77  .........cry1..w
0040: 07 80 08 80 1C 03 80 2D  F8 FF FF 7F F8 FF FF 7F  .......-........
0050: 73 63 31 31 2D F8 FF FF  7F F8 FF FF 7F 73 63 32  sc11-........sc2
0060: 31 2D F8 FF FF 7F F8 FF  FF 7F 73 63 33 31 2D F8  1-........sc31-.
0070: FF FF 7F F8 FF FF 7F 73  63 34 31 45 02 80 F0 FF  .......sc41E....
0080: FF 7F F0 FF FF 7F 66 64  69 31 01 80 1D 09 80 23  ......fdi1.....#
0090: 2D F8 FF FF 7F F8 FF FF  7F 6B 61 6B 73 1C 03 80  -........kaks...
00A0: 77 07 80 0A 80 1D 0B 80  23 2D F8 FF FF 7F F8 FF  w.......#-......
00B0: FF 7F 6B 61 6B 69 1C 03  80 77 07 80 08 80 1D 0C  ..kaki...w......
00C0: 80 23 2D F8 FF FF 7F F8  FF FF 7F 6B 63 31 31 2D  .#-........kc11-
00D0: F8 FF FF 7F F8 FF FF 7F  6B 63 32 31 2D F8 FF FF  ........kc21-...
00E0: 7F F8 FF FF 7F 6B 63 33  31 2D F8 FF FF 7F F8 FF  .....kc31-......
00F0: FF 7F 6B 63 34 31 1D 0D  80 23 45 02 80 F0 FF FF  ..kc41...#E.....
0100: 7F F0 FF FF 7F 66 64 6F  31 01 80 1C 03 80 2D F8  .....fdo1.....-.
0110: FF FF 7F F8 FF FF 7F 6B  69 6C 6C 1C 03 80 35 0E  .......kill...5.
0120: 80 78 1C 05 80 45 02 80  F0 FF FF 7F F0 FF FF 7F  .x...E..........
0130: 66 64 69 31 01 80 01 67  07 02 00 10 08 80 00 5F  fdi1...g......._
0140: 02 45 02 80 F0 FF FF 7F  F0 FF FF 7F 66 64 6F 31  .E..........fdo1
0150: 01 80 1C 03 80 34 04 80  1C 05 80 45 06 80 F8 FF  .....4.....E....
0160: FF 7F F8 FF FF 7F 63 72  79 34 01 80 77 07 80 0A  ......cry4..w...
0170: 80 1C 03 80 2D F8 FF FF  7F F8 FF FF 7F 73 63 34  ....-........sc4
0180: 31 2D F8 FF FF 7F F8 FF  FF 7F 73 63 34 32 2D F8  1-........sc42-.
0190: FF FF 7F F8 FF FF 7F 73  63 34 33 2D F8 FF FF 7F  .......sc43-....
01A0: F8 FF FF 7F 73 63 34 34  45 02 80 F0 FF FF 7F F0  ....sc44E.......
01B0: FF FF 7F 66 64 69 31 01  80 1D 09 80 23 2D F8 FF  ...fdi1.....#-..
01C0: FF 7F F8 FF FF 7F 34 61  6B 73 1C 03 80 1D 0B 80  ......4aks......
01D0: 23 2D F8 FF FF 7F F8 FF  FF 7F 34 61 6B 69 1C 03  #-........4aki..
01E0: 80 1D 0C 80 23 2D F8 FF  FF 7F F8 FF FF 7F 63 34  ....#-........c4
01F0: 6B 69 1C 03 80 2D F8 FF  FF 7F F8 FF FF 7F 6B 63  ki...-........kc
0200: 34 32 2D F8 FF FF 7F F8  FF FF 7F 6B 63 34 33 2D  42-........kc43-
0210: F8 FF FF 7F F8 FF FF 7F  6B 63 34 34 1D 0D 80 23  ........kc44...#
0220: 45 02 80 F0 FF FF 7F F0  FF FF 7F 66 64 6F 31 01  E..........fdo1.
0230: 80 1C 03 80 2D F8 FF FF  7F F8 FF FF 7F 6B 69 6C  ....-........kil
0240: 34 1C 03 80 35 0E 80 78  1C 05 80 45 02 80 F0 FF  4...5..x...E....
0250: FF 7F F0 FF FF 7F 66 64  69 31 01 80 01 67 07 02  ......fdi1...g..
0260: 00 10 0F 80 00 41 04 45  02 80 F0 FF FF 7F F0 FF  .....A.E........
0270: FF 7F 66 64 6F 31 01 80  1C 03 80 34 04 80 1C 05  ..fdo1.....4....
0280: 80 45 06 80 F8 FF FF 7F  F8 FF FF 7F 63 72 79 35  .E..........cry5
0290: 01 80 1C 03 80 77 07 80  0A 80 2D F8 FF FF 7F F8  .....w....-.....
02A0: FF FF 7F 73 63 35 31 2D  F8 FF FF 7F F8 FF FF 7F  ...sc51-........
02B0: 73 63 35 32 2D F8 FF FF  7F F8 FF FF 7F 73 63 35  sc52-........sc5
02C0: 33 2D F8 FF FF 7F F8 FF  FF 7F 73 63 35 34 45 02  3-........sc54E.
02D0: 80 F0 FF FF 7F F0 FF FF  7F 66 64 69 31 01 80 1D  .........fdi1...
02E0: 0C 80 23 2D F8 FF FF 7F  F8 FF FF 7F 6B 63 35 31  ..#-........kc51
02F0: 2D F8 FF FF 7F F8 FF FF  7F 6B 63 35 32 2D F8 FF  -........kc52-..
0300: FF 7F F8 FF FF 7F 6B 63  35 33 2D F8 FF FF 7F F8  ......kc53-.....
0310: FF FF 7F 6B 63 35 34 1D  09 80 23 45 10 80 F0 FF  ...kc54...#E....
0320: FF 7F F0 FF FF 7F 77 68  6F 31 01 80 1C 03 80 77  ......who1.....w
0330: 07 80 11 80 1C 03 80 2D  F8 FF FF 7F F8 FF FF 7F  .......-........
0340: 6C 6F 70 36 1C 05 80 45  06 80 F8 FF FF 7F F8 FF  lop6...E........
0350: FF 7F 63 72 79 36 01 80  1C 03 80 2D F8 FF FF 7F  ..cry6.....-....
0360: F8 FF FF 7F 73 63 69 31  2D F8 FF FF 7F F8 FF FF  ....sci1-.......
0370: 7F 73 63 69 32 2D F8 FF  FF 7F F8 FF FF 7F 73 63  .sci2-........sc
0380: 69 33 2D F8 FF FF 7F F8  FF FF 7F 73 63 69 34 1C  i3-........sci4.
0390: 03 80 45 10 80 F0 FF FF  7F F0 FF FF 7F 77 68 69  ..E..........whi
03A0: 31 01 80 1D 0B 80 23 1C  03 80 2D F8 FF FF 7F F8  1.....#...-.....
03B0: FF FF 7F 6B 69 6C 36 1C  05 80 1D 0C 80 23 2D F8  ...kil6......#-.
03C0: FF FF 7F F8 FF FF 7F 6B  63 69 31 2D F8 FF FF 7F  .......kci1-....
03D0: F8 FF FF 7F 6B 63 69 32  2D F8 FF FF 7F F8 FF FF  ....kci2-.......
03E0: 7F 6B 63 69 33 2D F8 FF  FF 7F F8 FF FF 7F 6B 63  .kci3-........kc
03F0: 69 34 1D 0D 80 23 45 10  80 F0 FF FF 7F F0 FF FF  i4...#E.........
0400: 7F 77 68 6F 31 01 80 1C  03 80 77 07 80 0A 80 1C  .who1.....w.....
0410: 05 80 45 06 80 F8 FF FF  7F F8 FF FF 7F 63 72 79  ..E..........cry
0420: 35 01 80 1C 03 80 35 0E  80 78 1C 05 80 45 10 80  5.....5..x...E..
0430: F0 FF FF 7F F0 FF FF 7F  77 68 69 31 01 80 01 67  ........whi1...g
0440: 07 02 00 10 12 80 00 B8  05 45 02 80 F0 FF FF 7F  .........E......
0450: F0 FF FF 7F 66 64 6F 31  01 80 1C 03 80 34 13 80  ....fdo1.....4..
0460: 1C 05 80 45 06 80 F8 FF  FF 7F F8 FF FF 7F 7A 35  ...E..........z5
0470: 34 30 01 80 77 07 80 01  80 1C 03 80 45 02 80 F0  40..w.......E...
0480: FF FF 7F F0 FF FF 7F 66  64 69 31 01 80 1D 14 80  .......fdi1.....
0490: 23 77 07 80 0F 80 1D 14  80 23 2D F8 FF FF 7F F8  #w.......#-.....
04A0: FF FF 7F 30 31 6F 6E 1D  14 80 23 2D F8 FF FF 7F  ...01on...#-....
04B0: F8 FF FF 7F 30 32 6F 6E  1D 14 80 23 2D F8 FF FF  ....02on...#-...
04C0: 7F F8 FF FF 7F 30 33 6F  6E 1D 14 80 23 2D F8 FF  .....03on...#-..
04D0: FF 7F F8 FF FF 7F 30 34  6F 6E 1D 14 80 23 2D F8  ......04on...#-.
04E0: FF FF 7F F8 FF FF 7F 30  35 6F 6E 1D 14 80 23 2D  .......05on...#-
04F0: F8 FF FF 7F F8 FF FF 7F  31 6F 66 66 1D 14 80 23  ........1off...#
0500: 2D F8 FF FF 7F F8 FF FF  7F 32 6F 66 66 1D 14 80  -........2off...
0510: 23 2D F8 FF FF 7F F8 FF  FF 7F 33 6F 66 66 1D 14  #-........3off..
0520: 80 23 2D F8 FF FF 7F F8  FF FF 7F 34 6F 66 66 1D  .#-........4off.
0530: 14 80 23 2D F8 FF FF 7F  F8 FF FF 7F 35 6F 66 66  ..#-........5off
0540: 1D 14 80 23 77 07 80 0A  80 1D 14 80 23 2D F8 FF  ...#w.......#-..
0550: FF 7F F8 FF FF 7F 67 61  73 73 2D F8 FF FF 7F F8  ......gass-.....
0560: FF FF 7F 6D 61 69 6E 1D  14 80 23 2D F8 FF FF 7F  ...main...#-....
0570: F8 FF FF 7F 64 65 6C 32  2D F8 FF FF 7F F8 FF FF  ....del2-.......
0580: 7F 64 65 6C 31 1D 0D 80  23 45 02 80 F0 FF FF 7F  .del1...#E......
0590: F0 FF FF 7F 66 64 6F 31  01 80 1C 03 80 35 0E 80  ....fdo1.....5..
05A0: 78 1C 05 80 45 02 80 F0  FF FF 7F F0 FF FF 7F 66  x...E..........f
05B0: 64 69 31 01 80 01 67 07  02 00 10 15 80 00 70 06  di1...g.......p.
05C0: 45 02 80 F0 FF FF 7F F0  FF FF 7F 66 64 6F 31 01  E..........fdo1.
05D0: 80 1C 03 80 34 16 80 1C  05 80 45 06 80 F8 FF FF  ....4.....E.....
05E0: 7F F8 FF FF 7F 7A 35 34  34 01 80 77 07 80 01 80  .....z544..w....
05F0: 1C 03 80 45 02 80 F0 FF  FF 7F F0 FF FF 7F 66 64  ...E..........fd
0600: 69 31 01 80 1D 14 80 23  77 07 80 08 80 1D 14 80  i1.....#w.......
0610: 23 77 07 80 0F 80 1D 14  80 23 2D F8 FF FF 7F F8  #w.......#-.....
0620: FF FF 7F 73 74 61 74 1D  14 80 23 77 07 80 0A 80  ...stat...#w....
0630: 2D F8 FF FF 7F F8 FF FF  7F 6B 69 6C 6C 1D 0D 80  -........kill...
0640: 23 45 02 80 F0 FF FF 7F  F0 FF FF 7F 66 64 6F 31  #E..........fdo1
0650: 01 80 1C 03 80 35 0E 80  78 1C 05 80 45 02 80 F0  .....5..x...E...
0660: FF FF 7F F0 FF FF 7F 66  64 69 31 01 80 01 67 07  .......fdi1...g.
0670: 02 00 10 17 80 00 67 07  45 02 80 F0 FF FF 7F F0  ......g.E.......
0680: FF FF 7F 66 64 6F 31 01  80 1C 03 80 34 18 80 1C  ...fdo1.....4...
0690: 05 80 45 06 80 F8 FF FF  7F F8 FF FF 7F 7A 35 34  ..E..........z54
06A0: 34 01 80 77 07 80 08 80  2D F8 FF FF 7F F8 FF FF  4..w....-.......
06B0: 7F 6F 6E 30 30 2D F8 FF  FF 7F F8 FF FF 7F 70 61  .on00-........pa
06C0: 74 75 1C 03 80 45 02 80  F0 FF FF 7F F0 FF FF 7F  tu...E..........
06D0: 66 64 69 31 01 80 1D 14  80 23 2D F8 FF FF 7F F8  fdi1.....#-.....
06E0: FF FF 7F 6F 66 30 30 77  07 80 19 80 1D 14 80 23  ...of00w.......#
06F0: 2D F8 FF FF 7F F8 FF FF  7F 73 74 72 74 1D 14 80  -........strt...
0700: 23 2D F8 FF FF 7F F8 FF  FF 7F 6B 69 6C 6C 1D 14  #-........kill..
0710: 80 23 2D F8 FF FF 7F F8  FF FF 7F 6B 69 65 31 1D  .#-........kie1.
0720: 14 80 23 2D F8 FF FF 7F  F8 FF FF 7F 74 75 6B 31  ..#-........tuk1
0730: 1D 14 80 23 1D 0D 80 23  45 02 80 F0 FF FF 7F F0  ...#...#E.......
0740: FF FF 7F 66 64 6F 31 01  80 1C 03 80 35 0E 80 78  ...fdo1.....5..x
0750: 1C 05 80 45 02 80 F0 FF  FF 7F F0 FF FF 7F 66 64  ...E..........fd
0760: 69 31 01 80 01 67 07 46  00 20 00 21 00           i1...g.F. .!.   
```

#### Opcodes

```
  0: 0x0001 [0x46] CAMERA_CONTROL: Disable user control
  1: 0x0003 [0x42] SET_CLI_EVENT_CANCEL_DATA()
  2: 0x0004 [0x24] CREATE_DIALOG(message_id=7249*, default_option=0*, option_flags=0*)
    → "$3N$3$3X$3^$3 [$20%.$3G$3t$3F$3N$3g$3e$3X$3g$0$P16Z/ [$3z$3$1E$3f$3 E$3$3A$P12J$m`$P14-u`$P12J$m/$3$3@$3Y$P12J$m`$P14-u$4325972_$P12J$m`$P14j%s/$3N$3$3X$3^$3 [$ [$6$10i3$P12i$K$4325924kL$m$20%.i4$P12i$Kj/$P10^$P10"$E%$$@L$Ti2$P12i$K$4653664i]"
  3: 0x000B [0x25] WAIT_DIALOG_SELECT()
  4: 0x000C [0x02] IF !(Work_Zone[0] == 0*) GOTO 0x0139
  5: 0x0014 [0x45] LOAD_SCHEDULED_TASK: Load scheduler "fdo1" with entities [LocalPlayer, LocalPlayer], work=[200*, 0*]
  6: 0x0025 [0x1C] WAIT(60* ticks)
  7: 0x0028 [0x34] LOAD_UNLOAD_ZONE(zone_id=541*)
  8: 0x002B [0x1C] WAIT(100* ticks)
  9: 0x002E [0x45] LOAD_SCHEDULED_TASK: Load scheduler "cry1" with entities [EventEntity, EventEntity], work=[94*, 0*]
 10: 0x003F [0x77] SET_EVENT_TIME_WEATHER(hour=12*, weather=1*)
 11: 0x0044 [0x1C] WAIT(60* ticks)
 12: 0x0047 [0x2D] CREATE_ZONE_SCHEDULER_TASK: Create scheduler "sc11" with entities [EventEntity, EventEntity]
 13: 0x0054 [0x2D] CREATE_ZONE_SCHEDULER_TASK: Create scheduler "sc21" with entities [EventEntity, EventEntity]
 14: 0x0061 [0x2D] CREATE_ZONE_SCHEDULER_TASK: Create scheduler "sc31" with entities [EventEntity, EventEntity]
 15: 0x006E [0x2D] CREATE_ZONE_SCHEDULER_TASK: Create scheduler "sc41" with entities [EventEntity, EventEntity]
 16: 0x007B [0x45] LOAD_SCHEDULED_TASK: Load scheduler "fdi1" with entities [LocalPlayer, LocalPlayer], work=[200*, 0*]
 17: 0x008C [0x1D] PRINT_EVENT_MESSAGE(message_id=7252*)
    → "$3{$3^$3$2p$317F$3N$3$3X$3^$3 [*$P124$P14-u5\7B/$5112652$3$3X$3^$3 [L$j$7M$26$P14-5\7j]"
 18: 0x008F [0x23] WAIT_FOR_DIALOG_INTERACTION
 19: 0x0090 [0x2D] CREATE_ZONE_SCHEDULER_TASK: Create scheduler "kaks" with entities [EventEntity, EventEntity]
 20: 0x009D [0x1C] WAIT(60* ticks)
 21: 0x00A0 [0x77] SET_EVENT_TIME_WEATHER(hour=12*, weather=16*)
 22: 0x00A5 [0x1D] PRINT_EVENT_MESSAGE(message_id=7253*)
    → "$3{$3^$3$2p$317F$3N$3$3X$3^$3 [$P12J$m$P14-uIHh\7B]"
 23: 0x00A8 [0x23] WAIT_FOR_DIALOG_INTERACTION
 24: 0x00A9 [0x2D] CREATE_ZONE_SCHEDULER_TASK: Create scheduler "kaki" with entities [EventEntity, EventEntity]
 25: 0x00B6 [0x1C] WAIT(60* ticks)
 26: 0x00B9 [0x77] SET_EVENT_TIME_WEATHER(hour=12*, weather=1*)
 27: 0x00BE [0x1D] PRINT_EVENT_MESSAGE(message_id=7254*)
    → "$3{$3^$3$2p$317F$3R$3$3\$6226730$3E$3$25\7B"
 28: 0x00C1 [0x23] WAIT_FOR_DIALOG_INTERACTION
 29: 0x00C2 [0x2D] CREATE_ZONE_SCHEDULER_TASK: Create scheduler "kc11" with entities [EventEntity, EventEntity]
 30: 0x00CF [0x2D] CREATE_ZONE_SCHEDULER_TASK: Create scheduler "kc21" with entities [EventEntity, EventEntity]
 31: 0x00DC [0x2D] CREATE_ZONE_SCHEDULER_TASK: Create scheduler "kc31" with entities [EventEntity, EventEntity]
 32: 0x00E9 [0x2D] CREATE_ZONE_SCHEDULER_TASK: Create scheduler "kc41" with entities [EventEntity, EventEntity]
 33: 0x00F6 [0x1D] PRINT_EVENT_MESSAGE(message_id=7251*)
    → "$3{$3^$3$2p$317F$3e$3X$3g$I%95\7B"
 34: 0x00F9 [0x23] WAIT_FOR_DIALOG_INTERACTION
 35: 0x00FA [0x45] LOAD_SCHEDULED_TASK: Load scheduler "fdo1" with entities [LocalPlayer, LocalPlayer], work=[200*, 0*]
 36: 0x010B [0x1C] WAIT(60* ticks)
 37: 0x010E [0x2D] CREATE_ZONE_SCHEDULER_TASK: Create scheduler "kill" with entities [EventEntity, EventEntity]
 38: 0x011B [0x1C] WAIT(60* ticks)
 39: 0x011E [0x35] LOAD_ZONE_NO_CLOSE(zone_id=14*)
 40: 0x0121 [0x78] ENABLE_GAME_TIMER_RESET_WEATHER()
 41: 0x0122 [0x1C] WAIT(100* ticks)
 42: 0x0125 [0x45] LOAD_SCHEDULED_TASK: Load scheduler "fdi1" with entities [LocalPlayer, LocalPlayer], work=[200*, 0*]
 43: 0x0136 [0x01] GOTO 0x0767
 44: 0x0139 [0x02] IF !(Work_Zone[0] == 1*) GOTO 0x025F
 45: 0x0141 [0x45] LOAD_SCHEDULED_TASK: Load scheduler "fdo1" with entities [LocalPlayer, LocalPlayer], work=[200*, 0*]
 46: 0x0152 [0x1C] WAIT(60* ticks)
 47: 0x0155 [0x34] LOAD_UNLOAD_ZONE(zone_id=541*)
 48: 0x0158 [0x1C] WAIT(100* ticks)
 49: 0x015B [0x45] LOAD_SCHEDULED_TASK: Load scheduler "cry4" with entities [EventEntity, EventEntity], work=[94*, 0*]
 50: 0x016C [0x77] SET_EVENT_TIME_WEATHER(hour=12*, weather=16*)
 51: 0x0171 [0x1C] WAIT(60* ticks)
 52: 0x0174 [0x2D] CREATE_ZONE_SCHEDULER_TASK: Create scheduler "sc41" with entities [EventEntity, EventEntity]
 53: 0x0181 [0x2D] CREATE_ZONE_SCHEDULER_TASK: Create scheduler "sc42" with entities [EventEntity, EventEntity]
 54: 0x018E [0x2D] CREATE_ZONE_SCHEDULER_TASK: Create scheduler "sc43" with entities [EventEntity, EventEntity]
 55: 0x019B [0x2D] CREATE_ZONE_SCHEDULER_TASK: Create scheduler "sc44" with entities [EventEntity, EventEntity]
 56: 0x01A8 [0x45] LOAD_SCHEDULED_TASK: Load scheduler "fdi1" with entities [LocalPlayer, LocalPlayer], work=[200*, 0*]
 57: 0x01B9 [0x1D] PRINT_EVENT_MESSAGE(message_id=7252*)
    → "$3{$3^$3$2p$317F$3N$3$3X$3^$3 [*$P124$P14-u5\7B/$5112652$3$3X$3^$3 [L$j$7M$26$P14-5\7j]"
 58: 0x01BC [0x23] WAIT_FOR_DIALOG_INTERACTION
 59: 0x01BD [0x2D] CREATE_ZONE_SCHEDULER_TASK: Create scheduler "4aks" with entities [EventEntity, EventEntity]
 60: 0x01CA [0x1C] WAIT(60* ticks)
 61: 0x01CD [0x1D] PRINT_EVENT_MESSAGE(message_id=7253*)
    → "$3{$3^$3$2p$317F$3N$3$3X$3^$3 [$P12J$m$P14-uIHh\7B]"
 62: 0x01D0 [0x23] WAIT_FOR_DIALOG_INTERACTION
 63: 0x01D1 [0x2D] CREATE_ZONE_SCHEDULER_TASK: Create scheduler "4aki" with entities [EventEntity, EventEntity]
 64: 0x01DE [0x1C] WAIT(60* ticks)
 65: 0x01E1 [0x1D] PRINT_EVENT_MESSAGE(message_id=7254*)
    → "$3{$3^$3$2p$317F$3R$3$3\$6226730$3E$3$25\7B"
 66: 0x01E4 [0x23] WAIT_FOR_DIALOG_INTERACTION
 67: 0x01E5 [0x2D] CREATE_ZONE_SCHEDULER_TASK: Create scheduler "c4ki" with entities [EventEntity, EventEntity]
 68: 0x01F2 [0x1C] WAIT(60* ticks)
 69: 0x01F5 [0x2D] CREATE_ZONE_SCHEDULER_TASK: Create scheduler "kc42" with entities [EventEntity, EventEntity]
 70: 0x0202 [0x2D] CREATE_ZONE_SCHEDULER_TASK: Create scheduler "kc43" with entities [EventEntity, EventEntity]
 71: 0x020F [0x2D] CREATE_ZONE_SCHEDULER_TASK: Create scheduler "kc44" with entities [EventEntity, EventEntity]
 72: 0x021C [0x1D] PRINT_EVENT_MESSAGE(message_id=7251*)
    → "$3{$3^$3$2p$317F$3e$3X$3g$I%95\7B"
 73: 0x021F [0x23] WAIT_FOR_DIALOG_INTERACTION
 74: 0x0220 [0x45] LOAD_SCHEDULED_TASK: Load scheduler "fdo1" with entities [LocalPlayer, LocalPlayer], work=[200*, 0*]
 75: 0x0231 [0x1C] WAIT(60* ticks)
 76: 0x0234 [0x2D] CREATE_ZONE_SCHEDULER_TASK: Create scheduler "kil4" with entities [EventEntity, EventEntity]
 77: 0x0241 [0x1C] WAIT(60* ticks)
 78: 0x0244 [0x35] LOAD_ZONE_NO_CLOSE(zone_id=14*)
 79: 0x0247 [0x78] ENABLE_GAME_TIMER_RESET_WEATHER()
 80: 0x0248 [0x1C] WAIT(100* ticks)
 81: 0x024B [0x45] LOAD_SCHEDULED_TASK: Load scheduler "fdi1" with entities [LocalPlayer, LocalPlayer], work=[200*, 0*]
 82: 0x025C [0x01] GOTO 0x0767
 83: 0x025F [0x02] IF !(Work_Zone[0] == 2*) GOTO 0x0441
 84: 0x0267 [0x45] LOAD_SCHEDULED_TASK: Load scheduler "fdo1" with entities [LocalPlayer, LocalPlayer], work=[200*, 0*]
 85: 0x0278 [0x1C] WAIT(60* ticks)
 86: 0x027B [0x34] LOAD_UNLOAD_ZONE(zone_id=541*)
 87: 0x027E [0x1C] WAIT(100* ticks)
 88: 0x0281 [0x45] LOAD_SCHEDULED_TASK: Load scheduler "cry5" with entities [EventEntity, EventEntity], work=[94*, 0*]
 89: 0x0292 [0x1C] WAIT(60* ticks)
 90: 0x0295 [0x77] SET_EVENT_TIME_WEATHER(hour=12*, weather=16*)
 91: 0x029A [0x2D] CREATE_ZONE_SCHEDULER_TASK: Create scheduler "sc51" with entities [EventEntity, EventEntity]
 92: 0x02A7 [0x2D] CREATE_ZONE_SCHEDULER_TASK: Create scheduler "sc52" with entities [EventEntity, EventEntity]
 93: 0x02B4 [0x2D] CREATE_ZONE_SCHEDULER_TASK: Create scheduler "sc53" with entities [EventEntity, EventEntity]
 94: 0x02C1 [0x2D] CREATE_ZONE_SCHEDULER_TASK: Create scheduler "sc54" with entities [EventEntity, EventEntity]
 95: 0x02CE [0x45] LOAD_SCHEDULED_TASK: Load scheduler "fdi1" with entities [LocalPlayer, LocalPlayer], work=[200*, 0*]
 96: 0x02DF [0x1D] PRINT_EVENT_MESSAGE(message_id=7254*)
    → "$3{$3^$3$2p$317F$3R$3$3\$6226730$3E$3$25\7B"
 97: 0x02E2 [0x23] WAIT_FOR_DIALOG_INTERACTION
 98: 0x02E3 [0x2D] CREATE_ZONE_SCHEDULER_TASK: Create scheduler "kc51" with entities [EventEntity, EventEntity]
 99: 0x02F0 [0x2D] CREATE_ZONE_SCHEDULER_TASK: Create scheduler "kc52" with entities [EventEntity, EventEntity]
100: 0x02FD [0x2D] CREATE_ZONE_SCHEDULER_TASK: Create scheduler "kc53" with entities [EventEntity, EventEntity]
101: 0x030A [0x2D] CREATE_ZONE_SCHEDULER_TASK: Create scheduler "kc54" with entities [EventEntity, EventEntity]
102: 0x0317 [0x1D] PRINT_EVENT_MESSAGE(message_id=7252*)
    → "$3{$3^$3$2p$317F$3N$3$3X$3^$3 [*$P124$P14-u5\7B/$5112652$3$3X$3^$3 [L$j$7M$26$P14-5\7j]"
103: 0x031A [0x23] WAIT_FOR_DIALOG_INTERACTION
104: 0x031B [0x45] LOAD_SCHEDULED_TASK: Load scheduler "who1" with entities [LocalPlayer, LocalPlayer], work=[201*, 0*]
105: 0x032C [0x1C] WAIT(60* ticks)
106: 0x032F [0x77] SET_EVENT_TIME_WEATHER(hour=12*, weather=10*)
107: 0x0334 [0x1C] WAIT(60* ticks)
108: 0x0337 [0x2D] CREATE_ZONE_SCHEDULER_TASK: Create scheduler "lop6" with entities [EventEntity, EventEntity]
109: 0x0344 [0x1C] WAIT(100* ticks)
110: 0x0347 [0x45] LOAD_SCHEDULED_TASK: Load scheduler "cry6" with entities [EventEntity, EventEntity], work=[94*, 0*]
111: 0x0358 [0x1C] WAIT(60* ticks)
112: 0x035B [0x2D] CREATE_ZONE_SCHEDULER_TASK: Create scheduler "sci1" with entities [EventEntity, EventEntity]
113: 0x0368 [0x2D] CREATE_ZONE_SCHEDULER_TASK: Create scheduler "sci2" with entities [EventEntity, EventEntity]
114: 0x0375 [0x2D] CREATE_ZONE_SCHEDULER_TASK: Create scheduler "sci3" with entities [EventEntity, EventEntity]
115: 0x0382 [0x2D] CREATE_ZONE_SCHEDULER_TASK: Create scheduler "sci4" with entities [EventEntity, EventEntity]
116: 0x038F [0x1C] WAIT(60* ticks)
117: 0x0392 [0x45] LOAD_SCHEDULED_TASK: Load scheduler "whi1" with entities [LocalPlayer, LocalPlayer], work=[201*, 0*]
118: 0x03A3 [0x1D] PRINT_EVENT_MESSAGE(message_id=7253*)
    → "$3{$3^$3$2p$317F$3N$3$3X$3^$3 [$P12J$m$P14-uIHh\7B]"
119: 0x03A6 [0x23] WAIT_FOR_DIALOG_INTERACTION
120: 0x03A7 [0x1C] WAIT(60* ticks)
121: 0x03AA [0x2D] CREATE_ZONE_SCHEDULER_TASK: Create scheduler "kil6" with entities [EventEntity, EventEntity]
122: 0x03B7 [0x1C] WAIT(100* ticks)
123: 0x03BA [0x1D] PRINT_EVENT_MESSAGE(message_id=7254*)
    → "$3{$3^$3$2p$317F$3R$3$3\$6226730$3E$3$25\7B"
124: 0x03BD [0x23] WAIT_FOR_DIALOG_INTERACTION
125: 0x03BE [0x2D] CREATE_ZONE_SCHEDULER_TASK: Create scheduler "kci1" with entities [EventEntity, EventEntity]
126: 0x03CB [0x2D] CREATE_ZONE_SCHEDULER_TASK: Create scheduler "kci2" with entities [EventEntity, EventEntity]
127: 0x03D8 [0x2D] CREATE_ZONE_SCHEDULER_TASK: Create scheduler "kci3" with entities [EventEntity, EventEntity]
128: 0x03E5 [0x2D] CREATE_ZONE_SCHEDULER_TASK: Create scheduler "kci4" with entities [EventEntity, EventEntity]
129: 0x03F2 [0x1D] PRINT_EVENT_MESSAGE(message_id=7251*)
    → "$3{$3^$3$2p$317F$3e$3X$3g$I%95\7B"
130: 0x03F5 [0x23] WAIT_FOR_DIALOG_INTERACTION
131: 0x03F6 [0x45] LOAD_SCHEDULED_TASK: Load scheduler "who1" with entities [LocalPlayer, LocalPlayer], work=[201*, 0*]
132: 0x0407 [0x1C] WAIT(60* ticks)
133: 0x040A [0x77] SET_EVENT_TIME_WEATHER(hour=12*, weather=16*)
134: 0x040F [0x1C] WAIT(100* ticks)
135: 0x0412 [0x45] LOAD_SCHEDULED_TASK: Load scheduler "cry5" with entities [EventEntity, EventEntity], work=[94*, 0*]
136: 0x0423 [0x1C] WAIT(60* ticks)
137: 0x0426 [0x35] LOAD_ZONE_NO_CLOSE(zone_id=14*)
138: 0x0429 [0x78] ENABLE_GAME_TIMER_RESET_WEATHER()
139: 0x042A [0x1C] WAIT(100* ticks)
140: 0x042D [0x45] LOAD_SCHEDULED_TASK: Load scheduler "whi1" with entities [LocalPlayer, LocalPlayer], work=[201*, 0*]
141: 0x043E [0x01] GOTO 0x0767
142: 0x0441 [0x02] IF !(Work_Zone[0] == 3*) GOTO 0x05B8
143: 0x0449 [0x45] LOAD_SCHEDULED_TASK: Load scheduler "fdo1" with entities [LocalPlayer, LocalPlayer], work=[200*, 0*]
144: 0x045A [0x1C] WAIT(60* ticks)
145: 0x045D [0x34] LOAD_UNLOAD_ZONE(zone_id=540*)
146: 0x0460 [0x1C] WAIT(100* ticks)
147: 0x0463 [0x45] LOAD_SCHEDULED_TASK: Load scheduler "z540" with entities [EventEntity, EventEntity], work=[94*, 0*]
148: 0x0474 [0x77] SET_EVENT_TIME_WEATHER(hour=12*, weather=0*)
149: 0x0479 [0x1C] WAIT(60* ticks)
150: 0x047C [0x45] LOAD_SCHEDULED_TASK: Load scheduler "fdi1" with entities [LocalPlayer, LocalPlayer], work=[200*, 0*]
151: 0x048D [0x1D] PRINT_EVENT_MESSAGE(message_id=7250*)
    → "$3{$3^$3$2p$317F$31L$P12i$KI$P10i]\7B"
152: 0x0490 [0x23] WAIT_FOR_DIALOG_INTERACTION
153: 0x0491 [0x77] SET_EVENT_TIME_WEATHER(hour=12*, weather=2*)
154: 0x0496 [0x1D] PRINT_EVENT_MESSAGE(message_id=7250*)
    → "$3{$3^$3$2p$317F$31L$P12i$KI$P10i]\7B"
155: 0x0499 [0x23] WAIT_FOR_DIALOG_INTERACTION
156: 0x049A [0x2D] CREATE_ZONE_SCHEDULER_TASK: Create scheduler "01on" with entities [EventEntity, EventEntity]
157: 0x04A7 [0x1D] PRINT_EVENT_MESSAGE(message_id=7250*)
    → "$3{$3^$3$2p$317F$31L$P12i$KI$P10i]\7B"
158: 0x04AA [0x23] WAIT_FOR_DIALOG_INTERACTION
159: 0x04AB [0x2D] CREATE_ZONE_SCHEDULER_TASK: Create scheduler "02on" with entities [EventEntity, EventEntity]
160: 0x04B8 [0x1D] PRINT_EVENT_MESSAGE(message_id=7250*)
    → "$3{$3^$3$2p$317F$31L$P12i$KI$P10i]\7B"
161: 0x04BB [0x23] WAIT_FOR_DIALOG_INTERACTION
162: 0x04BC [0x2D] CREATE_ZONE_SCHEDULER_TASK: Create scheduler "03on" with entities [EventEntity, EventEntity]
163: 0x04C9 [0x1D] PRINT_EVENT_MESSAGE(message_id=7250*)
    → "$3{$3^$3$2p$317F$31L$P12i$KI$P10i]\7B"
164: 0x04CC [0x23] WAIT_FOR_DIALOG_INTERACTION
165: 0x04CD [0x2D] CREATE_ZONE_SCHEDULER_TASK: Create scheduler "04on" with entities [EventEntity, EventEntity]
166: 0x04DA [0x1D] PRINT_EVENT_MESSAGE(message_id=7250*)
    → "$3{$3^$3$2p$317F$31L$P12i$KI$P10i]\7B"
167: 0x04DD [0x23] WAIT_FOR_DIALOG_INTERACTION
168: 0x04DE [0x2D] CREATE_ZONE_SCHEDULER_TASK: Create scheduler "05on" with entities [EventEntity, EventEntity]
169: 0x04EB [0x1D] PRINT_EVENT_MESSAGE(message_id=7250*)
    → "$3{$3^$3$2p$317F$31L$P12i$KI$P10i]\7B"
170: 0x04EE [0x23] WAIT_FOR_DIALOG_INTERACTION
171: 0x04EF [0x2D] CREATE_ZONE_SCHEDULER_TASK: Create scheduler "1off" with entities [EventEntity, EventEntity]
172: 0x04FC [0x1D] PRINT_EVENT_MESSAGE(message_id=7250*)
    → "$3{$3^$3$2p$317F$31L$P12i$KI$P10i]\7B"
173: 0x04FF [0x23] WAIT_FOR_DIALOG_INTERACTION
174: 0x0500 [0x2D] CREATE_ZONE_SCHEDULER_TASK: Create scheduler "2off" with entities [EventEntity, EventEntity]
175: 0x050D [0x1D] PRINT_EVENT_MESSAGE(message_id=7250*)
    → "$3{$3^$3$2p$317F$31L$P12i$KI$P10i]\7B"
176: 0x0510 [0x23] WAIT_FOR_DIALOG_INTERACTION
177: 0x0511 [0x2D] CREATE_ZONE_SCHEDULER_TASK: Create scheduler "3off" with entities [EventEntity, EventEntity]
178: 0x051E [0x1D] PRINT_EVENT_MESSAGE(message_id=7250*)
    → "$3{$3^$3$2p$317F$31L$P12i$KI$P10i]\7B"
179: 0x0521 [0x23] WAIT_FOR_DIALOG_INTERACTION
180: 0x0522 [0x2D] CREATE_ZONE_SCHEDULER_TASK: Create scheduler "4off" with entities [EventEntity, EventEntity]
181: 0x052F [0x1D] PRINT_EVENT_MESSAGE(message_id=7250*)
    → "$3{$3^$3$2p$317F$31L$P12i$KI$P10i]\7B"
182: 0x0532 [0x23] WAIT_FOR_DIALOG_INTERACTION
183: 0x0533 [0x2D] CREATE_ZONE_SCHEDULER_TASK: Create scheduler "5off" with entities [EventEntity, EventEntity]
184: 0x0540 [0x1D] PRINT_EVENT_MESSAGE(message_id=7250*)
    → "$3{$3^$3$2p$317F$31L$P12i$KI$P10i]\7B"
185: 0x0543 [0x23] WAIT_FOR_DIALOG_INTERACTION
186: 0x0544 [0x77] SET_EVENT_TIME_WEATHER(hour=12*, weather=16*)
187: 0x0549 [0x1D] PRINT_EVENT_MESSAGE(message_id=7250*)
    → "$3{$3^$3$2p$317F$31L$P12i$KI$P10i]\7B"
188: 0x054C [0x23] WAIT_FOR_DIALOG_INTERACTION
189: 0x054D [0x2D] CREATE_ZONE_SCHEDULER_TASK: Create scheduler "gass" with entities [EventEntity, EventEntity]
190: 0x055A [0x2D] CREATE_ZONE_SCHEDULER_TASK: Create scheduler "main" with entities [EventEntity, EventEntity]
191: 0x0567 [0x1D] PRINT_EVENT_MESSAGE(message_id=7250*)
    → "$3{$3^$3$2p$317F$31L$P12i$KI$P10i]\7B"
192: 0x056A [0x23] WAIT_FOR_DIALOG_INTERACTION
193: 0x056B [0x2D] CREATE_ZONE_SCHEDULER_TASK: Create scheduler "del2" with entities [EventEntity, EventEntity]
194: 0x0578 [0x2D] CREATE_ZONE_SCHEDULER_TASK: Create scheduler "del1" with entities [EventEntity, EventEntity]
195: 0x0585 [0x1D] PRINT_EVENT_MESSAGE(message_id=7251*)
    → "$3{$3^$3$2p$317F$3e$3X$3g$I%95\7B"
196: 0x0588 [0x23] WAIT_FOR_DIALOG_INTERACTION
197: 0x0589 [0x45] LOAD_SCHEDULED_TASK: Load scheduler "fdo1" with entities [LocalPlayer, LocalPlayer], work=[200*, 0*]
198: 0x059A [0x1C] WAIT(60* ticks)
199: 0x059D [0x35] LOAD_ZONE_NO_CLOSE(zone_id=14*)
200: 0x05A0 [0x78] ENABLE_GAME_TIMER_RESET_WEATHER()
201: 0x05A1 [0x1C] WAIT(100* ticks)
202: 0x05A4 [0x45] LOAD_SCHEDULED_TASK: Load scheduler "fdi1" with entities [LocalPlayer, LocalPlayer], work=[200*, 0*]
203: 0x05B5 [0x01] GOTO 0x0767
204: 0x05B8 [0x02] IF !(Work_Zone[0] == 4*) GOTO 0x0670
205: 0x05C0 [0x45] LOAD_SCHEDULED_TASK: Load scheduler "fdo1" with entities [LocalPlayer, LocalPlayer], work=[200*, 0*]
206: 0x05D1 [0x1C] WAIT(60* ticks)
207: 0x05D4 [0x34] LOAD_UNLOAD_ZONE(zone_id=544*)
208: 0x05D7 [0x1C] WAIT(100* ticks)
209: 0x05DA [0x45] LOAD_SCHEDULED_TASK: Load scheduler "z544" with entities [EventEntity, EventEntity], work=[94*, 0*]
210: 0x05EB [0x77] SET_EVENT_TIME_WEATHER(hour=12*, weather=0*)
211: 0x05F0 [0x1C] WAIT(60* ticks)
212: 0x05F3 [0x45] LOAD_SCHEDULED_TASK: Load scheduler "fdi1" with entities [LocalPlayer, LocalPlayer], work=[200*, 0*]
213: 0x0604 [0x1D] PRINT_EVENT_MESSAGE(message_id=7250*)
    → "$3{$3^$3$2p$317F$31L$P12i$KI$P10i]\7B"
214: 0x0607 [0x23] WAIT_FOR_DIALOG_INTERACTION
215: 0x0608 [0x77] SET_EVENT_TIME_WEATHER(hour=12*, weather=1*)
216: 0x060D [0x1D] PRINT_EVENT_MESSAGE(message_id=7250*)
    → "$3{$3^$3$2p$317F$31L$P12i$KI$P10i]\7B"
217: 0x0610 [0x23] WAIT_FOR_DIALOG_INTERACTION
218: 0x0611 [0x77] SET_EVENT_TIME_WEATHER(hour=12*, weather=2*)
219: 0x0616 [0x1D] PRINT_EVENT_MESSAGE(message_id=7250*)
    → "$3{$3^$3$2p$317F$31L$P12i$KI$P10i]\7B"
220: 0x0619 [0x23] WAIT_FOR_DIALOG_INTERACTION
221: 0x061A [0x2D] CREATE_ZONE_SCHEDULER_TASK: Create scheduler "stat" with entities [EventEntity, EventEntity]
222: 0x0627 [0x1D] PRINT_EVENT_MESSAGE(message_id=7250*)
    → "$3{$3^$3$2p$317F$31L$P12i$KI$P10i]\7B"
223: 0x062A [0x23] WAIT_FOR_DIALOG_INTERACTION
224: 0x062B [0x77] SET_EVENT_TIME_WEATHER(hour=12*, weather=16*)
225: 0x0630 [0x2D] CREATE_ZONE_SCHEDULER_TASK: Create scheduler "kill" with entities [EventEntity, EventEntity]
226: 0x063D [0x1D] PRINT_EVENT_MESSAGE(message_id=7251*)
    → "$3{$3^$3$2p$317F$3e$3X$3g$I%95\7B"
227: 0x0640 [0x23] WAIT_FOR_DIALOG_INTERACTION
228: 0x0641 [0x45] LOAD_SCHEDULED_TASK: Load scheduler "fdo1" with entities [LocalPlayer, LocalPlayer], work=[200*, 0*]
229: 0x0652 [0x1C] WAIT(60* ticks)
230: 0x0655 [0x35] LOAD_ZONE_NO_CLOSE(zone_id=14*)
231: 0x0658 [0x78] ENABLE_GAME_TIMER_RESET_WEATHER()
232: 0x0659 [0x1C] WAIT(100* ticks)
233: 0x065C [0x45] LOAD_SCHEDULED_TASK: Load scheduler "fdi1" with entities [LocalPlayer, LocalPlayer], work=[200*, 0*]
234: 0x066D [0x01] GOTO 0x0767
235: 0x0670 [0x02] IF !(Work_Zone[0] == 5*) GOTO 0x0767
236: 0x0678 [0x45] LOAD_SCHEDULED_TASK: Load scheduler "fdo1" with entities [LocalPlayer, LocalPlayer], work=[200*, 0*]
237: 0x0689 [0x1C] WAIT(60* ticks)
238: 0x068C [0x34] LOAD_UNLOAD_ZONE(zone_id=545*)
239: 0x068F [0x1C] WAIT(100* ticks)
240: 0x0692 [0x45] LOAD_SCHEDULED_TASK: Load scheduler "z544" with entities [EventEntity, EventEntity], work=[94*, 0*]
241: 0x06A3 [0x77] SET_EVENT_TIME_WEATHER(hour=12*, weather=1*)
242: 0x06A8 [0x2D] CREATE_ZONE_SCHEDULER_TASK: Create scheduler "on00" with entities [EventEntity, EventEntity]
243: 0x06B5 [0x2D] CREATE_ZONE_SCHEDULER_TASK: Create scheduler "patu" with entities [EventEntity, EventEntity]
244: 0x06C2 [0x1C] WAIT(60* ticks)
245: 0x06C5 [0x45] LOAD_SCHEDULED_TASK: Load scheduler "fdi1" with entities [LocalPlayer, LocalPlayer], work=[200*, 0*]
246: 0x06D6 [0x1D] PRINT_EVENT_MESSAGE(message_id=7250*)
    → "$3{$3^$3$2p$317F$31L$P12i$KI$P10i]\7B"
247: 0x06D9 [0x23] WAIT_FOR_DIALOG_INTERACTION
248: 0x06DA [0x2D] CREATE_ZONE_SCHEDULER_TASK: Create scheduler "of00" with entities [EventEntity, EventEntity]
249: 0x06E7 [0x77] SET_EVENT_TIME_WEATHER(hour=12*, weather=19*)
250: 0x06EC [0x1D] PRINT_EVENT_MESSAGE(message_id=7250*)
    → "$3{$3^$3$2p$317F$31L$P12i$KI$P10i]\7B"
251: 0x06EF [0x23] WAIT_FOR_DIALOG_INTERACTION
252: 0x06F0 [0x2D] CREATE_ZONE_SCHEDULER_TASK: Create scheduler "strt" with entities [EventEntity, EventEntity]
253: 0x06FD [0x1D] PRINT_EVENT_MESSAGE(message_id=7250*)
    → "$3{$3^$3$2p$317F$31L$P12i$KI$P10i]\7B"
254: 0x0700 [0x23] WAIT_FOR_DIALOG_INTERACTION
255: 0x0701 [0x2D] CREATE_ZONE_SCHEDULER_TASK: Create scheduler "kill" with entities [EventEntity, EventEntity]
256: 0x070E [0x1D] PRINT_EVENT_MESSAGE(message_id=7250*)
    → "$3{$3^$3$2p$317F$31L$P12i$KI$P10i]\7B"
257: 0x0711 [0x23] WAIT_FOR_DIALOG_INTERACTION
258: 0x0712 [0x2D] CREATE_ZONE_SCHEDULER_TASK: Create scheduler "kie1" with entities [EventEntity, EventEntity]
259: 0x071F [0x1D] PRINT_EVENT_MESSAGE(message_id=7250*)
    → "$3{$3^$3$2p$317F$31L$P12i$KI$P10i]\7B"
260: 0x0722 [0x23] WAIT_FOR_DIALOG_INTERACTION
261: 0x0723 [0x2D] CREATE_ZONE_SCHEDULER_TASK: Create scheduler "tuk1" with entities [EventEntity, EventEntity]
262: 0x0730 [0x1D] PRINT_EVENT_MESSAGE(message_id=7250*)
    → "$3{$3^$3$2p$317F$31L$P12i$KI$P10i]\7B"
263: 0x0733 [0x23] WAIT_FOR_DIALOG_INTERACTION
264: 0x0734 [0x1D] PRINT_EVENT_MESSAGE(message_id=7251*)
    → "$3{$3^$3$2p$317F$3e$3X$3g$I%95\7B"
265: 0x0737 [0x23] WAIT_FOR_DIALOG_INTERACTION
266: 0x0738 [0x45] LOAD_SCHEDULED_TASK: Load scheduler "fdo1" with entities [LocalPlayer, LocalPlayer], work=[200*, 0*]
267: 0x0749 [0x1C] WAIT(60* ticks)
268: 0x074C [0x35] LOAD_ZONE_NO_CLOSE(zone_id=14*)
269: 0x074F [0x78] ENABLE_GAME_TIMER_RESET_WEATHER()
270: 0x0750 [0x1C] WAIT(100* ticks)
271: 0x0753 [0x45] LOAD_SCHEDULED_TASK: Load scheduler "fdi1" with entities [LocalPlayer, LocalPlayer], work=[200*, 0*]
272: 0x0764 [0x01] GOTO 0x0767

SUBROUTINE_0767:
273: 0x0767 [0x46] CAMERA_CONTROL: Restore default settings
274: 0x0769 [0x20] SET_CLI_EVENT_UC_FLAG: Unlock player control
275: 0x076B [0x21] END_EVENT
276: 0x076C [0x00] END_REQSTACK()
```
