# 16834577

## Common Data

| Field            | Value                         |
|------------------|-------------------------------|
| Zone             | Hall of Transference (ID: 14) |
| Block Size       | 212 bytes                     |
| Total Events     | 6                             |
| References Count | 13                            |

## List of Events

| Event ID                 | Entrypoint   |   Size |   Instructions |
|--------------------------|--------------|--------|----------------|
| [65535](#event-65535)    | 0x0000       |     13 |              3 |
| [155](#event-155)        | 0x000D       |     16 |              3 |
| [65535.1](#event-655351) | 0x001D       |     18 |              6 |
| [65535.2](#event-655352) | 0x002F       |     16 |              2 |
| [65535.3](#event-655353) | 0x003F       |     16 |              2 |
| [65535.4](#event-655354) | 0x004F       |     38 |              4 |

## DAT References (imed_data)

|   Index | Hex Value   |   Dec Value |
|---------|-------------|-------------|
|       0 | 0x445C0     |      280000 |
|       1 | 0xFFFF1954  |  4294908244 |
|       2 | 0xFFFEC505  |  4294886661 |
|       3 | 0x0BF7      |        3063 |
|       4 | 0x000D      |          13 |
|       5 | 0xFFFF2928  |  4294912296 |
|       6 | 0x000A      |          10 |
|       7 | 0x01CA      |         458 |
|       8 | 0x01C8      |         456 |
|       9 | 0x004F      |          79 |
|      10 | 0x0000      |           0 |
|      11 | 0x01C2      |         450 |
|      12 | 0x0049      |          73 |

## Events

### Event 65535

#### Metadata

| Field        | Value    |
|--------------|----------|
| Entrypoint   | 0x0000   |
| Data Size    | 13 bytes |
| Instructions | 3        |

```
      00 01 02 03 04 05 06 07  08 09 0A 0B 0C 0D 0E 0F
      -- -- -- -- -- -- -- --  -- -- -- -- -- -- -- --
0000: 92 01 F8 FF FF 7F 94 01  F8 FF FF 7F 00           .............   
```

#### Opcodes

```
  0: 0x0000 [0x92] EventEntity->Render.Flags3 ^= 0x01
  1: 0x0006 [0x94] EventEntity->Render.Flags3 ^= 0x01
  2: 0x000C [0x00] END_REQSTACK()
```

### Event 155

#### Metadata

| Field        | Value    |
|--------------|----------|
| Entrypoint   | 0x000D   |
| Data Size    | 16 bytes |
| Instructions | 3        |

```
      00 01 02 03 04 05 06 07  08 09 0A 0B 0C 0D 0E 0F
      -- -- -- -- -- -- -- --  -- -- -- -- -- -- -- --
0000:                                         94 01 F8               ...
0010: FF FF 7F 37 00 80 01 80  02 80 03 80 00           ...7.........   
```

#### Opcodes

```
  0: 0x000D [0x94] EventEntity->Render.Flags3 ^= 0x01
  1: 0x0013 [0x37] UPDATE_EVENT_POSITION_AND_DIR: x=280.000*, z=-59.052*, y=-80.635*, direction=269.2°*
  2: 0x001C [0x00] END_REQSTACK()
```

### Event 65535.1

#### Metadata

| Field        | Value    |
|--------------|----------|
| Entrypoint   | 0x001D   |
| Data Size    | 18 bytes |
| Instructions | 6        |

```
      00 01 02 03 04 05 06 07  08 09 0A 0B 0C 0D 0E 0F
      -- -- -- -- -- -- -- --  -- -- -- -- -- -- -- --
0010:                                         32 04 80               2..
0020: 1F 00 00 80 05 80 02 80  1F 01 6F 1C 06 80 00     ..........o.... 
```

#### Opcodes

```
  0: 0x001D [0x32] ExtData[1]->MainSpeed = 13* * 0.1
  1: 0x0020 [0x1F] MOVE_ENTITY: EventEntity moves to X=280.000*, Z=-55.000*, Y=-80.635*
  2: 0x0028 [0x1F] MOVE_ENTITY: Update entity position (mode=1)
  3: 0x002A [0x6F] WAIT_FRAME_DELAY: Yield until WaitTime reaches zero
  4: 0x002B [0x1C] WAIT(10* ticks)
  5: 0x002E [0x00] END_REQSTACK()
```

### Event 65535.2

#### Metadata

| Field        | Value    |
|--------------|----------|
| Entrypoint   | 0x002F   |
| Data Size    | 16 bytes |
| Instructions | 2        |

```
      00 01 02 03 04 05 06 07  08 09 0A 0B 0C 0D 0E 0F
      -- -- -- -- -- -- -- --  -- -- -- -- -- -- -- --
0020:                                               5B                 [
0030: 07 80 F8 FF FF 7F F8 FF  FF 7F 63 34 30 34 00     ..........c404. 
```

#### Opcodes

```
  0: 0x002F [0x5B] LOAD_EXT_SCHEDULER: Load scheduler "c404" with entities [EventEntity, EventEntity], work=458*
  1: 0x003E [0x00] END_REQSTACK()
```

### Event 65535.3

#### Metadata

| Field        | Value    |
|--------------|----------|
| Entrypoint   | 0x003F   |
| Data Size    | 16 bytes |
| Instructions | 2        |

```
      00 01 02 03 04 05 06 07  08 09 0A 0B 0C 0D 0E 0F
      -- -- -- -- -- -- -- --  -- -- -- -- -- -- -- --
0030:                                               5B                 [
0040: 08 80 F8 FF FF 7F F8 FF  FF 7F 64 77 6E 30 00     ..........dwn0. 
```

#### Opcodes

```
  0: 0x003F [0x5B] LOAD_EXT_SCHEDULER: Load scheduler "dwn0" with entities [EventEntity, EventEntity], work=456*
  1: 0x004E [0x00] END_REQSTACK()
```

### Event 65535.4

#### Metadata

| Field        | Value    |
|--------------|----------|
| Entrypoint   | 0x004F   |
| Data Size    | 38 bytes |
| Instructions | 4        |

```
      00 01 02 03 04 05 06 07  08 09 0A 0B 0C 0D 0E 0F
      -- -- -- -- -- -- -- --  -- -- -- -- -- -- -- --
0040:                                               9F                 .
0050: 09 80 11 E0 00 01 11 E0  00 01 73 74 72 30 0A 80  ..........str0..
0060: 1C 0B 80 45 0C 80 11 E0  00 01 11 E0 00 01 73 31  ...E..........s1
0070: 32 33 0A 80 00                                    23...           
```

#### Opcodes

```
  0: 0x004F [0x9F] LOAD_SCHEDULED_TASK_ALT: Load scheduler "str0" with entities [??? (ID: 16834577/0x0100E011), ??? (ID: 16834577/0x0100E011)], work=[79*, 0*]
  1: 0x0060 [0x1C] WAIT(450* ticks)
  2: 0x0063 [0x45] LOAD_SCHEDULED_TASK: Load scheduler "s123" with entities [??? (ID: 16834577/0x0100E011), ??? (ID: 16834577/0x0100E011)], work=[73*, 0*]
  3: 0x0074 [0x00] END_REQSTACK()
```
