# 16834576 - Wolfgang

## Common Data

| Field            | Value                         |
|------------------|-------------------------------|
| Zone             | Hall of Transference (ID: 14) |
| Block Size       | 296 bytes                     |
| Total Events     | 9                             |
| References Count | 10                            |

## List of Events

| Event ID                 | Entrypoint   |   Size |   Instructions |
|--------------------------|--------------|--------|----------------|
| [65535](#event-65535)    | 0x0000       |     13 |              3 |
| [155](#event-155)        | 0x000D       |     16 |              3 |
| [65535.1](#event-655351) | 0x001D       |     29 |              3 |
| [65535.2](#event-655352) | 0x003A       |     29 |              3 |
| [65535.3](#event-655353) | 0x0057       |     25 |              3 |
| [65535.4](#event-655354) | 0x0070       |     16 |              2 |
| [65535.5](#event-655355) | 0x0080       |     29 |              3 |
| [65535.6](#event-655356) | 0x009D       |     16 |              2 |
| [65535.7](#event-655357) | 0x00AD       |     29 |              3 |

## DAT References (imed_data)

|   Index | Hex Value   |   Dec Value |
|---------|-------------|-------------|
|       0 | 0x439A1     |      276897 |
|       1 | 0xFFFF4606  |  4294919686 |
|       2 | 0xFFFEC46A  |  4294886506 |
|       3 | 0x0CC0      |        3264 |
|       4 | 0x019A      |         410 |
|       5 | 0x442BB     |      279227 |
|       6 | 0xFFFF2F4B  |  4294913867 |
|       7 | 0xFFFEC505  |  4294886661 |
|       8 | 0x028C      |         652 |
|       9 | 0x0009      |           9 |

## Events

### Event 65535

#### Metadata

| Field        | Value    |
|--------------|----------|
| Entrypoint   | 0x0000   |
| Data Size    | 13 bytes |
| Instructions | 3        |

```
      00 01 02 03 04 05 06 07  08 09 0A 0B 0C 0D 0E 0F
      -- -- -- -- -- -- -- --  -- -- -- -- -- -- -- --
0000: 92 01 F8 FF FF 7F 94 01  F8 FF FF 7F 00           .............   
```

#### Opcodes

```
  0: 0x0000 [0x92] EventEntity->Render.Flags3 ^= 0x01
  1: 0x0006 [0x94] EventEntity->Render.Flags3 ^= 0x01
  2: 0x000C [0x00] END_REQSTACK()
```

### Event 155

#### Metadata

| Field        | Value    |
|--------------|----------|
| Entrypoint   | 0x000D   |
| Data Size    | 16 bytes |
| Instructions | 3        |

```
      00 01 02 03 04 05 06 07  08 09 0A 0B 0C 0D 0E 0F
      -- -- -- -- -- -- -- --  -- -- -- -- -- -- -- --
0000:                                         94 01 F8               ...
0010: FF FF 7F 37 00 80 01 80  02 80 03 80 00           ...7.........   
```

#### Opcodes

```
  0: 0x000D [0x94] EventEntity->Render.Flags3 ^= 0x01
  1: 0x0013 [0x37] UPDATE_EVENT_POSITION_AND_DIR: x=276.897*, z=-47.610*, y=-80.790*, direction=286.9°*
  2: 0x001C [0x00] END_REQSTACK()
```

### Event 65535.1

#### Metadata

| Field        | Value    |
|--------------|----------|
| Entrypoint   | 0x001D   |
| Data Size    | 29 bytes |
| Instructions | 3        |

```
      00 01 02 03 04 05 06 07  08 09 0A 0B 0C 0D 0E 0F
      -- -- -- -- -- -- -- --  -- -- -- -- -- -- -- --
0010:                                         5B 04 80               [..
0020: F8 FF FF 7F F8 FF FF 7F  61 74 6B 30 53 F8 FF FF  ........atk0S...
0030: 7F F8 FF FF 7F 61 74 6B  30 00                    .....atk0.      
```

#### Opcodes

```
  0: 0x001D [0x5B] LOAD_EXT_SCHEDULER: Load scheduler "atk0" with entities [EventEntity, EventEntity], work=410*
  1: 0x002C [0x53] WAIT_SCHEDULER_TASK: Wait for scheduler "atk0" with entities [EventEntity, EventEntity]
  2: 0x0039 [0x00] END_REQSTACK()
```

### Event 65535.2

#### Metadata

| Field        | Value    |
|--------------|----------|
| Entrypoint   | 0x003A   |
| Data Size    | 29 bytes |
| Instructions | 3        |

```
      00 01 02 03 04 05 06 07  08 09 0A 0B 0C 0D 0E 0F
      -- -- -- -- -- -- -- --  -- -- -- -- -- -- -- --
0030:                                5B 04 80 F8 FF FF            [.....
0040: 7F F8 FF FF 7F 61 74 6B  31 53 F8 FF FF 7F F8 FF  .....atk1S......
0050: FF 7F 61 74 6B 31 00                              ..atk1.         
```

#### Opcodes

```
  0: 0x003A [0x5B] LOAD_EXT_SCHEDULER: Load scheduler "atk1" with entities [EventEntity, EventEntity], work=410*
  1: 0x0049 [0x53] WAIT_SCHEDULER_TASK: Wait for scheduler "atk1" with entities [EventEntity, EventEntity]
  2: 0x0056 [0x00] END_REQSTACK()
```

### Event 65535.3

#### Metadata

| Field        | Value    |
|--------------|----------|
| Entrypoint   | 0x0057   |
| Data Size    | 25 bytes |
| Instructions | 3        |

```
      00 01 02 03 04 05 06 07  08 09 0A 0B 0C 0D 0E 0F
      -- -- -- -- -- -- -- --  -- -- -- -- -- -- -- --
0050:                      37  05 80 06 80 07 80 08 80         7........
0060: 5B 04 80 F8 FF FF 7F F8  FF FF 7F 6C 6B 30 30 00  [..........lk00.
```

#### Opcodes

```
  0: 0x0057 [0x37] UPDATE_EVENT_POSITION_AND_DIR: x=279.227*, z=-53.429*, y=-80.635*, direction=57.3°*
  1: 0x0060 [0x5B] LOAD_EXT_SCHEDULER: Load scheduler "lk00" with entities [EventEntity, EventEntity], work=410*
  2: 0x006F [0x00] END_REQSTACK()
```

### Event 65535.4

#### Metadata

| Field        | Value    |
|--------------|----------|
| Entrypoint   | 0x0070   |
| Data Size    | 16 bytes |
| Instructions | 2        |

```
      00 01 02 03 04 05 06 07  08 09 0A 0B 0C 0D 0E 0F
      -- -- -- -- -- -- -- --  -- -- -- -- -- -- -- --
0070: 66 09 80 F8 FF FF 7F F8  FF FF 7F 74 77 61 30 00  f..........twa0.
```

#### Opcodes

```
  0: 0x0070 [0x66] LOAD_EXT_SCHEDULER_MAIN: Load scheduler "twa0" with entities [EventEntity, EventEntity], work=9*
  1: 0x007F [0x00] END_REQSTACK()
```

### Event 65535.5

#### Metadata

| Field        | Value    |
|--------------|----------|
| Entrypoint   | 0x0080   |
| Data Size    | 29 bytes |
| Instructions | 3        |

```
      00 01 02 03 04 05 06 07  08 09 0A 0B 0C 0D 0E 0F
      -- -- -- -- -- -- -- --  -- -- -- -- -- -- -- --
0080: 66 09 80 F8 FF FF 7F F8  FF FF 7F 74 77 61 31 53  f..........twa1S
0090: F8 FF FF 7F F8 FF FF 7F  74 77 61 31 00           ........twa1.   
```

#### Opcodes

```
  0: 0x0080 [0x66] LOAD_EXT_SCHEDULER_MAIN: Load scheduler "twa1" with entities [EventEntity, EventEntity], work=9*
  1: 0x008F [0x53] WAIT_SCHEDULER_TASK: Wait for scheduler "twa1" with entities [EventEntity, EventEntity]
  2: 0x009C [0x00] END_REQSTACK()
```

### Event 65535.6

#### Metadata

| Field        | Value    |
|--------------|----------|
| Entrypoint   | 0x009D   |
| Data Size    | 16 bytes |
| Instructions | 2        |

```
      00 01 02 03 04 05 06 07  08 09 0A 0B 0C 0D 0E 0F
      -- -- -- -- -- -- -- --  -- -- -- -- -- -- -- --
0090:                                         5B 09 80               [..
00A0: F8 FF FF 7F F8 FF FF 7F  74 77 62 30 00           ........twb0.   
```

#### Opcodes

```
  0: 0x009D [0x5B] LOAD_EXT_SCHEDULER: Load scheduler "twb0" with entities [EventEntity, EventEntity], work=9*
  1: 0x00AC [0x00] END_REQSTACK()
```

### Event 65535.7

#### Metadata

| Field        | Value    |
|--------------|----------|
| Entrypoint   | 0x00AD   |
| Data Size    | 29 bytes |
| Instructions | 3        |

```
      00 01 02 03 04 05 06 07  08 09 0A 0B 0C 0D 0E 0F
      -- -- -- -- -- -- -- --  -- -- -- -- -- -- -- --
00A0:                                         5B 09 80               [..
00B0: F8 FF FF 7F F8 FF FF 7F  74 77 62 31 53 F8 FF FF  ........twb1S...
00C0: 7F F8 FF FF 7F 74 77 62  31 00                    .....twb1.      
```

#### Opcodes

```
  0: 0x00AD [0x5B] LOAD_EXT_SCHEDULER: Load scheduler "twb1" with entities [EventEntity, EventEntity], work=9*
  1: 0x00BC [0x53] WAIT_SCHEDULER_TASK: Wait for scheduler "twb1" with entities [EventEntity, EventEntity]
  2: 0x00C9 [0x00] END_REQSTACK()
```
