# 16834597

## Common Data

| Field            | Value                         |
|------------------|-------------------------------|
| Zone             | Hall of Transference (ID: 14) |
| Block Size       | 7484 bytes                    |
| Total Events     | 6                             |
| References Count | 218                           |

## List of Events

| Event ID              | Entrypoint   |   Size |   Instructions |
|-----------------------|--------------|--------|----------------|
| [65535](#event-65535) | 0x0000       |      1 |              1 |
| [6](#event-6)         | 0x0001       |     39 |              8 |
| [3](#event-3)         | 0x0028       |     23 |              5 |
| [2](#event-2)         | 0x003F       |   4076 |            473 |
| [5](#event-5)         | 0x102B       |      6 |              4 |
| [4](#event-4)         | 0x1031       |   2427 |            279 |

## DAT References (imed_data)

|   Index | Hex Value   |   Dec Value |
|---------|-------------|-------------|
|       0 | 0x00C8      |         200 |
|       1 | 0x0000      |           0 |
|       2 | 0x1B88      |        7048 |
|       3 | 0x0001      |           1 |
|       4 | 0x001B      |          27 |
|       5 | 0x021D      |         541 |
|       6 | 0x00FF      |         255 |
|       7 | 0xFFF9E184  |  4294566276 |
|       8 | 0x55CBE     |      351422 |
|       9 | 0xFFFFB565  |  4294948197 |
|      10 | 0x0C13      |        3091 |
|      11 | 0xFFF9E9A5  |  4294568357 |
|      12 | 0x55C83     |      351363 |
|      13 | 0x0C06      |        3078 |
|      14 | 0xFFF9E584  |  4294567300 |
|      15 | 0x53F0C     |      343820 |
|      16 | 0x0C19      |        3097 |
|      17 | 0xFFF9E580  |  4294567296 |
|      18 | 0x54F60     |      348000 |
|      19 | 0x02FF      |         767 |
|      20 | 0x000F      |          15 |
|      21 | 0x0078      |         120 |
|      22 | 0x0F19      |        3865 |
|      23 | 0x005A      |          90 |
|      24 | 0x001E      |          30 |
|      25 | 0x0D6E      |        3438 |
|      26 | 0x0296      |         662 |
|      27 | 0x0190      |         400 |
|      28 | 0x00C9      |         201 |
|      29 | 0x0D66      |        3430 |
|      30 | 0x434B2     |      275634 |
|      31 | 0xFFFE9588  |  4294874504 |
|      32 | 0xFFFEC311  |  4294886161 |
|      33 | 0x09FD      |        2557 |
|      34 | 0x411AC     |      266668 |
|      35 | 0xFFFED39D  |  4294890397 |
|      36 | 0xFFFED699  |  4294891161 |
|      37 | 0x0473      |        1139 |
|      38 | 0x3F9B5     |      260533 |
|      39 | 0xFFFECABD  |  4294888125 |
|      40 | 0x0152      |         338 |
|      41 | 0x40BD1     |      265169 |
|      42 | 0xFFFEB02F  |  4294881327 |
|      43 | 0xFFFECAE1  |  4294888161 |
|      44 | 0x0C31      |        3121 |
|      45 | 0x41D9C     |      269724 |
|      46 | 0xFFFEBB05  |  4294884101 |
|      47 | 0xFFFECEC9  |  4294889161 |
|      48 | 0x422D1     |      271057 |
|      49 | 0xFFFECEF8  |  4294889208 |
|      50 | 0x0583      |        1411 |
|      51 | 0x3F4DB     |      259291 |
|      52 | 0xFFFEB967  |  4294883687 |
|      53 | 0x0F63      |        3939 |
|      54 | 0x3ECDB     |      257243 |
|      55 | 0xFFFE81CE  |  4294869454 |
|      56 | 0x0D1C      |        3356 |
|      57 | 0x432FF     |      275199 |
|      58 | 0xFFFE9087  |  4294873223 |
|      59 | 0x09FE      |        2558 |
|      60 | 0x430EB     |      274667 |
|      61 | 0xFFFE9B47  |  4294875975 |
|      62 | 0xFFFEC11D  |  4294885661 |
|      63 | 0x01F4      |         500 |
|      64 | 0x0007      |           7 |
|      65 | 0x008D      |         141 |
|      66 | 0x01CC      |         460 |
|      67 | 0x004F      |          79 |
|      68 | 0x0F1A      |        3866 |
|      69 | 0x0015      |          21 |
|      70 | 0x1C97      |        7319 |
|      71 | 0x0085      |         133 |
|      72 | 0x001D      |          29 |
|      73 | 0x1C98      |        7320 |
|      74 | 0x0F17      |        3863 |
|      75 | 0x1C99      |        7321 |
|      76 | 0x003C      |          60 |
|      77 | 0xFFFEBF29  |  4294885161 |
|      78 | 0x0AB2      |        2738 |
|      79 | 0x1C9A      |        7322 |
|      80 | 0x1C9B      |        7323 |
|      81 | 0x1C9C      |        7324 |
|      82 | 0x1C9E      |        7326 |
|      83 | 0x1C9D      |        7325 |
|      84 | 0x1C9F      |        7327 |
|      85 | 0x1CA0      |        7328 |
|      86 | 0x1CA1      |        7329 |
|      87 | 0x0054      |          84 |
|      88 | 0x1CA2      |        7330 |
|      89 | 0x1CA3      |        7331 |
|      90 | 0x1CA4      |        7332 |
|      91 | 0x1CA5      |        7333 |
|      92 | 0x1CA6      |        7334 |
|      93 | 0x008B      |         139 |
|      94 | 0x1CA7      |        7335 |
|      95 | 0x1CA8      |        7336 |
|      96 | 0x1CA9      |        7337 |
|      97 | 0x1CAA      |        7338 |
|      98 | 0x0010      |          16 |
|      99 | 0x1CAB      |        7339 |
|     100 | 0x1CAC      |        7340 |
|     101 | 0x0E01      |        3585 |
|     102 | 0x000A      |          10 |
|     103 | 0x1CAD      |        7341 |
|     104 | 0x0064      |         100 |
|     105 | 0x0028      |          40 |
|     106 | 0x1CAE      |        7342 |
|     107 | 0x1CAF      |        7343 |
|     108 | 0x0DFC      |        3580 |
|     109 | 0x1CB0      |        7344 |
|     110 | 0x00B4      |         180 |
|     111 | 0x1CB1      |        7345 |
|     112 | 0x1CB2      |        7346 |
|     113 | 0x1CB3      |        7347 |
|     114 | 0x0DFB      |        3579 |
|     115 | 0x1CB4      |        7348 |
|     116 | 0x0259      |         601 |
|     117 | 0x1CB5      |        7349 |
|     118 | 0x1CB6      |        7350 |
|     119 | 0x1CB7      |        7351 |
|     120 | 0x1CB8      |        7352 |
|     121 | 0x1CB9      |        7353 |
|     122 | 0x1CBA      |        7354 |
|     123 | 0x1CBB      |        7355 |
|     124 | 0x1CBC      |        7356 |
|     125 | 0x1CBD      |        7357 |
|     126 | 0x1CBE      |        7358 |
|     127 | 0x0070      |         112 |
|     128 | 0x3E561     |      255329 |
|     129 | 0xFFFE7DA4  |  4294868388 |
|     130 | 0xFFFEDE69  |  4294893161 |
|     131 | 0x0C70      |        3184 |
|     132 | 0x0F38      |        3896 |
|     133 | 0x0096      |         150 |
|     134 | 0x0014      |          20 |
|     135 | 0x3FDB1     |      261553 |
|     136 | 0xFFFEA57A  |  4294878586 |
|     137 | 0x3F0DA     |      258266 |
|     138 | 0xFFFEC00E  |  4294885390 |
|     139 | 0x03FF      |        1023 |
|     140 | 0x1CBF      |        7359 |
|     141 | 0x1CC0      |        7360 |
|     142 | 0x1CC1      |        7361 |
|     143 | 0x1CC2      |        7362 |
|     144 | 0x0055      |          85 |
|     145 | 0x1CC3      |        7363 |
|     146 | 0x0274      |         628 |
|     147 | 0x1CC4      |        7364 |
|     148 | 0x0261      |         609 |
|     149 | 0x00D2      |         210 |
|     150 | 0x0DFD      |        3581 |
|     151 | 0x1CC5      |        7365 |
|     152 | 0x1CC6      |        7366 |
|     153 | 0x0E1C      |        3612 |
|     154 | 0x1CC7      |        7367 |
|     155 | 0x1CC8      |        7368 |
|     156 | 0x0046      |          70 |
|     157 | 0x1CC9      |        7369 |
|     158 | 0x1CCA      |        7370 |
|     159 | 0x0F16      |        3862 |
|     160 | 0x1CCB      |        7371 |
|     161 | 0x40CD8     |      265432 |
|     162 | 0xFFFEBA7E  |  4294883966 |
|     163 | 0x40739     |      263993 |
|     164 | 0xFFFEBB3E  |  4294884158 |
|     165 | 0xFFFEE639  |  4294895161 |
|     166 | 0x43A6C     |      277100 |
|     167 | 0xFFFE8018  |  4294869016 |
|     168 | 0xFFFEB90C  |  4294883596 |
|     169 | 0x0E1F      |        3615 |
|     170 | 0x1CCC      |        7372 |
|     171 | 0x000E      |          14 |
|     172 | 0xFFF9EAD6  |  4294568662 |
|     173 | 0x55074     |      348276 |
|     174 | 0x0B4D      |        2893 |
|     175 | 0xFFF9E601  |  4294567425 |
|     176 | 0x54CDB     |      347355 |
|     177 | 0x0B46      |        2886 |
|     178 | 0x00DB      |         219 |
|     179 | 0x027F      |         639 |
|     180 | 0x02FE      |         766 |
|     181 | 0x0041      |          65 |
|     182 | 0x1CCD      |        7373 |
|     183 | 0x0208      |         520 |
|     184 | 0x1CCE      |        7374 |
|     185 | 0x1CCF      |        7375 |
|     186 | 0x1CD0      |        7376 |
|     187 | 0x0005      |           5 |
|     188 | 0x0006      |           6 |
|     189 | 0x1CD1      |        7377 |
|     190 | 0x1CD2      |        7378 |
|     191 | 0x01A9      |         425 |
|     192 | 0x1CD3      |        7379 |
|     193 | 0x1CD4      |        7380 |
|     194 | 0x1CD5      |        7381 |
|     195 | 0x1CD6      |        7382 |
|     196 | 0x1CD7      |        7383 |
|     197 | 0x1CD8      |        7384 |
|     198 | 0x0002      |           2 |
|     199 | 0x1CD9      |        7385 |
|     200 | 0x1CDA      |        7386 |
|     201 | 0x1CDB      |        7387 |
|     202 | 0x0003      |           3 |
|     203 | 0x1CDC      |        7388 |
|     204 | 0x1CDD      |        7389 |
|     205 | 0x1CDE      |        7390 |
|     206 | 0x1CDF      |        7391 |
|     207 | 0x1CE0      |        7392 |
|     208 | 0x1CE1      |        7393 |
|     209 | 0x1CE2      |        7394 |
|     210 | 0x1CE3      |        7395 |
|     211 | 0x0020      |          32 |
|     212 | 0x1CE4      |        7396 |
|     213 | 0x1CE5      |        7397 |
|     214 | 0x1CE6      |        7398 |
|     215 | 0x1CE7      |        7399 |
|     216 | 0x1CE8      |        7400 |
|     217 | 0x1CE9      |        7401 |

## String References

- **7048**: You are unable to make further progress in Rhapsodies of Vana'diel due to an event occurring in the [Chains of Promathia/Treasures of Aht Urhgan/Wings of the Goddess/Seekers of Adoulin/Rise of the Zilart] missions.
- **7377**: What did you experience? [A story about Siren./I saw Selh'teus./A bunch of spirits./Balamor was laughing.]

## Events

### Event 65535

#### Metadata

| Field        | Value   |
|--------------|---------|
| Entrypoint   | 0x0000  |
| Data Size    | 1 bytes |
| Instructions | 1       |

```
      00 01 02 03 04 05 06 07  08 09 0A 0B 0C 0D 0E 0F
      -- -- -- -- -- -- -- --  -- -- -- -- -- -- -- --
0000: 00                                                .               
```

#### Opcodes

```
  0: 0x0000 [0x00] END_REQSTACK()
```

### Event 6

#### Metadata

| Field        | Value    |
|--------------|----------|
| Entrypoint   | 0x0001   |
| Data Size    | 39 bytes |
| Instructions | 8        |

```
      00 01 02 03 04 05 06 07  08 09 0A 0B 0C 0D 0E 0F
      -- -- -- -- -- -- -- --  -- -- -- -- -- -- -- --
0000:    42 4E 00 F0 FF FF 7F  80 F0 FF FF 7F 45 00 80   BN..........E..
0010: F8 FF FF 7F F8 FF FF 7F  66 64 69 31 01 80 03 03  ........fdi1....
0020: 10 01 80 48 02 80 21 00                           ...H..!.        
```

#### Opcodes

```
  0: 0x0001 [0x42] SET_CLI_EVENT_CANCEL_DATA()
  1: 0x0002 [0x4E] SET_ENTITY_HIDE_FLAG: Show LocalPlayer
  2: 0x0008 [0x80] LOAD_WAIT(entity=LocalPlayer)
  3: 0x000D [0x45] LOAD_SCHEDULED_TASK: Load scheduler "fdi1" with entities [EventEntity, EventEntity], work=[200*, 0*]
  4: 0x001E [0x03] Work_Zone[3] = 0*
  5: 0x0023 [0x48] [System] [7048*]:
    → "You are unable to make further progress in Rhapsodies of Vana'diel due to an event occurring in the [Chains of Promathia/Treasures of Aht Urhgan/Wings of the Goddess/Seekers of Adoulin/Rise of the Zilart] missions."
  6: 0x0026 [0x21] END_EVENT
  7: 0x0027 [0x00] END_REQSTACK()
```

### Event 3

#### Metadata

| Field        | Value    |
|--------------|----------|
| Entrypoint   | 0x0028   |
| Data Size    | 23 bytes |
| Instructions | 5        |

```
      00 01 02 03 04 05 06 07  08 09 0A 0B 0C 0D 0E 0F
      -- -- -- -- -- -- -- --  -- -- -- -- -- -- -- --
0020:                          42 1A 4E 00 45 00 80 F0          B.N.E...
0030: FF FF 7F F0 FF FF 7F 66  64 69 32 01 80 21 00     .......fdi2..!. 
```

#### Opcodes

```
  0: 0x0028 [0x42] SET_CLI_EVENT_CANCEL_DATA()
  1: 0x0029 [0x1A] CALL_SUBROUTINE(address=0x004E)
  2: 0x002C [0x45] LOAD_SCHEDULED_TASK: Load scheduler "fdi2" with entities [LocalPlayer, LocalPlayer], work=[200*, 0*]
  3: 0x003D [0x21] END_EVENT
  4: 0x003E [0x00] END_REQSTACK()
```

### Event 2

#### Metadata

| Field        | Value      |
|--------------|------------|
| Entrypoint   | 0x003F     |
| Data Size    | 4076 bytes |
| Instructions | 473        |

```
      00 01 02 03 04 05 06 07  08 09 0A 0B 0C 0D 0E 0F
      -- -- -- -- -- -- -- --  -- -- -- -- -- -- -- --
0030:                                               42                 B
0040: 03 01 10 03 80 43 00 43  01 1A 4E 00 21 00 03 00  .....C.C..N.!...
0050: 00 02 10 45 00 80 F0 FF  FF 7F F0 FF FF 7F 66 64  ...E..........fd
0060: 6F 31 01 80 55 00 80 F0  FF FF 7F F0 FF FF 7F 66  o1..U..........f
0070: 64 6F 31 46 01 38 04 80  34 05 80 77 06 80 03 80  do1F.8..4..w....
0080: 1C 03 80 2F 00 27 E0 00  01 2F 00 26 E0 00 01 2F  .../.'.../.&.../
0090: 00 30 E0 00 01 4E 00 27  E0 00 01 4E 00 26 E0 00  .0...N.'...N.&..
00A0: 01 4E 00 F0 FF FF 7F 4E  00 30 E0 00 01 92 01 27  .N.....N.0.....'
00B0: E0 00 01 92 01 26 E0 00  01 94 01 27 E0 00 01 94  .....&.....'....
00C0: 01 26 E0 00 01 94 01 F0  FF FF 7F 94 01 30 E0 00  .&...........0..
00D0: 01 BA 27 E0 00 01 07 80  08 80 09 80 0A 80 BA 26  ..'............&
00E0: E0 00 01 0B 80 0C 80 09  80 0D 80 BA F0 FF FF 7F  ................
00F0: 0E 80 0F 80 09 80 10 80  BA 30 E0 00 01 11 80 12  .........0......
0100: 80 09 80 10 80 80 27 E0  00 01 80 F0 FF FF 7F 80  ......'.........
0110: 26 E0 00 01 80 30 E0 00  01 45 13 80 F8 FF FF 7F  &....0...E......
0120: F8 FF FF 7F 73 31 30 34  01 80 1C 14 80 45 00 80  ....s104.....E..
0130: F0 FF FF 7F F0 FF FF 7F  66 64 69 31 01 80 27 05  ........fdi1..'.
0140: F0 FF FF 7F 1E 1C 15 80  81 00 26 E0 00 01 7C 00  ..........&...|.
0150: 26 E0 00 01 5B 16 80 26  E0 00 01 26 E0 00 01 68  &...[..&...&...h
0160: 69 7A 30 52 13 80 F8 FF  FF 7F F8 FF FF 7F 73 31  iz0R..........s1
0170: 30 34 45 13 80 F8 FF FF  7F F8 FF FF 7F 73 31 30  04E..........s10
0180: 35 01 80 45 00 80 26 E0  00 01 26 E0 00 01 30 64  5..E..&...&...0d
0190: 6B 6E 01 80 1C 17 80 2C  F0 FF FF 7F F0 FF FF 7F  kn.....,........
01A0: 64 65 61 64 1C 18 80 52  13 80 F8 FF FF 7F F8 FF  dead...R........
01B0: FF 7F 73 31 30 35 5F 03  19 80 30 E0 00 01 30 E0  ..s105_...0...0.
01C0: 00 01 6B 72 61 30 5B 1A  80 27 E0 00 01 27 E0 00  ..kra0[..'...'..
01D0: 01 73 68 61 30 92 01 F0  FF FF 7F 4E 01 F0 FF FF  .sha0......N....
01E0: 7F 1C 1B 80 45 1C 80 F0  FF FF 7F F0 FF FF 7F 77  ....E..........w
01F0: 68 6F 30 01 80 55 1C 80  F0 FF FF 7F F0 FF FF 7F  ho0..U..........
0200: 77 68 6F 30 52 13 80 F8  FF FF 7F F8 FF FF 7F 73  who0R..........s
0210: 31 30 35 5F 03 1D 80 30  E0 00 01 30 E0 00 01 63  105_...0...0...c
0220: 6D 6F 66 5F 02 30 E0 00  01 6B 69 64 6C 30 F0 FF  mof_.0...kidl0..
0230: FF 7F 6B 69 64 6C 30 26  E0 00 01 6B 69 64 6C 30  ..kidl0&...kidl0
0240: 27 E0 00 01 2F 00 28 E0  00 01 2F 00 29 E0 00 01  '.../.(.../.)...
0250: 2F 00 2D E0 00 01 2F 00  2A E0 00 01 2F 00 2C E0  /.-.../.*.../.,.
0260: 00 01 2F 00 2B E0 00 01  2F 00 2E E0 00 01 2F 00  ../.+.../...../.
0270: 2F E0 00 01 4E 00 2F E0  00 01 4E 00 28 E0 00 01  /...N./...N.(...
0280: 4E 00 29 E0 00 01 4E 00  2D E0 00 01 4E 00 2A E0  N.)...N.-...N.*.
0290: 00 01 4E 00 2B E0 00 01  4E 00 F0 FF FF 7F 92 01  ..N.+...N.......
02A0: 28 E0 00 01 92 01 29 E0  00 01 92 01 2D E0 00 01  (.....).....-...
02B0: 92 01 2A E0 00 01 92 01  2C E0 00 01 92 01 2B E0  ..*.....,.....+.
02C0: 00 01 92 01 2E E0 00 01  94 01 28 E0 00 01 94 01  ..........(.....
02D0: 29 E0 00 01 94 01 2D E0  00 01 94 01 2A E0 00 01  ).....-.....*...
02E0: 94 01 2C E0 00 01 94 01  2B E0 00 01 94 01 2E E0  ..,.....+.......
02F0: 00 01 94 01 2F E0 00 01  27 05 28 E0 00 01 03 27  ..../...'.(....'
0300: 05 29 E0 00 01 05 27 05  2D E0 00 01 03 27 05 2A  .)....'.-....'.*
0310: E0 00 01 03 27 05 2B E0  00 01 03 59 05 2F E0 00  ....'.+....Y./..
0320: 01 01 59 05 28 E0 00 01  01 59 05 29 E0 00 01 01  ..Y.(....Y.)....
0330: 59 05 2D E0 00 01 01 59  05 2A E0 00 01 01 59 05  Y.-....Y.*....Y.
0340: 26 E0 00 01 01 59 05 F0  FF FF 7F 01 59 05 2C E0  &....Y......Y.,.
0350: 00 01 01 59 05 2B E0 00  01 01 59 05 2E E0 00 01  ...Y.+....Y.....
0360: 01 27 05 27 E0 00 01 06  BA 2F E0 00 01 1E 80 1F  .'.'...../......
0370: 80 20 80 21 80 BA 28 E0  00 01 22 80 23 80 24 80  . .!..(...".#.$.
0380: 25 80 BA 29 E0 00 01 26  80 27 80 24 80 28 80 BA  %..)...&.'.$.(..
0390: 2D E0 00 01 29 80 2A 80  2B 80 2C 80 BA 2A E0 00  -...).*.+.,..*..
03A0: 01 2D 80 2E 80 2F 80 21  80 BA 2C E0 00 01 30 80  .-.../.!..,...0.
03B0: 31 80 2F 80 32 80 BA 2B  E0 00 01 33 80 34 80 24  1./.2..+...3.4.$
03C0: 80 35 80 BA 2E E0 00 01  36 80 37 80 24 80 38 80  .5......6.7.$.8.
03D0: BA 26 E0 00 01 39 80 3A  80 20 80 3B 80 BA F0 FF  .&...9.:. .;....
03E0: FF 7F 1E 80 1F 80 20 80  21 80 BA 27 E0 00 01 3C  ...... .!..'...<
03F0: 80 3D 80 3E 80 3F 80 80  F0 FF FF 7F 80 26 E0 00  .=.>.?.......&..
0400: 01 80 2F E0 00 01 1C 15  80 6E F0 FF FF 7F 40 80  ../......n....@.
0410: 99 F0 FF FF 7F 81 00 28  E0 00 01 7C 01 26 E0 00  .......(...|.&..
0420: 01 D0 41 80 28 E0 00 01  28 E0 00 01 73 30 30 31  ..A.(...(...s001
0430: 01 80 5B 42 80 28 E0 00  01 28 E0 00 01 63 34 6C  ..[B.(...(...c4l
0440: 35 4E 01 27 E0 00 01 1C  17 80 5C 00 43 80 5C 01  5N.'......\.C.\.
0450: 43 80 9A 45 13 80 F8 FF  FF 7F F8 FF FF 7F 73 31  C..E..........s1
0460: 30 36 01 80 1C 14 80 45  1C 80 F0 FF FF 7F F0 FF  06.....E........
0470: FF 7F 77 68 69 31 01 80  5B 44 80 26 E0 00 01 26  ..whi1..[D.&...&
0480: E0 00 01 77 61 70 6B 6E  F0 FF FF 7F 45 80 99 F0  ...wapkn....E...
0490: FF FF 7F 1C 15 80 52 13  80 F8 FF FF 7F F8 FF FF  ......R.........
04A0: 7F 73 31 30 36 45 13 80  F8 FF FF 7F F8 FF FF 7F  .s106E..........
04B0: 73 31 30 37 01 80 2B 26  E0 00 01 46 80 23 1C 15  s107..+&...F.#..
04C0: 80 23 52 13 80 F8 FF FF  7F F8 FF FF 7F 73 31 30  .#R..........s10
04D0: 37 45 13 80 F8 FF FF 7F  F8 FF FF 7F 73 31 30 38  7E..........s108
04E0: 01 80 D0 47 80 2F E0 00  01 2F E0 00 01 62 61 72  ...G./.../...bar
04F0: 30 01 80 1C 18 80 6E F0  FF FF 7F 48 80 99 F0 FF  0.....n....H....
0500: FF 7F 2B 26 E0 00 01 49  80 1C 17 80 5B 4A 80 26  ..+&...I....[J.&
0510: E0 00 01 26 E0 00 01 74  6C 63 30 52 13 80 F8 FF  ...&...tlc0R....
0520: FF 7F F8 FF FF 7F 73 31  30 38 45 13 80 F8 FF FF  ......s108E.....
0530: 7F F8 FF FF 7F 73 31 30  39 01 80 2B 26 E0 00 01  .....s109..+&...
0540: 4B 80 1C 15 80 52 13 80  F8 FF FF 7F F8 FF FF 7F  K....R..........
0550: 73 31 30 39 45 13 80 F8  FF FF 7F F8 FF FF 7F 73  s109E..........s
0560: 31 31 30 01 80 27 05 28  E0 00 01 04 1C 4C 80 6B  110..'.(.....L.k
0570: 69 64 6C 30 26 E0 00 01  4A 26 E0 00 01 28 E0 00  idl0&...J&...(..
0580: 01 4A F0 FF FF 7F 28 E0  00 01 BA 2F E0 00 01 1E  .J....(..../....
0590: 80 1F 80 4D 80 4E 80 1C  4C 80 45 00 80 F0 FF FF  ...M.N..L.E.....
05A0: 7F F0 FF FF 7F 6F 76 6C  31 01 80 52 13 80 F8 FF  .....ovl1..R....
05B0: FF 7F F8 FF FF 7F 73 31  31 30 45 13 80 F8 FF FF  ......s110E.....
05C0: 7F F8 FF FF 7F 73 31 31  31 01 80 2B 28 E0 00 01  .....s111..+(...
05D0: 4F 80 23 2B 28 E0 00 01  50 80 23 52 13 80 F8 FF  O.#+(...P.#R....
05E0: FF 7F F8 FF FF 7F 73 31  31 31 45 13 80 F8 FF FF  ......s111E.....
05F0: 7F F8 FF FF 7F 73 31 31  32 01 80 2B 28 E0 00 01  .....s112..+(...
0600: 51 80 23 81 01 28 E0 00  01 6B 69 64 6C 30 28 E0  Q.#..(...kidl0(.
0610: 00 01 52 13 80 F8 FF FF  7F F8 FF FF 7F 73 31 31  ..R..........s11
0620: 32 45 13 80 F8 FF FF 7F  F8 FF FF 7F 73 31 31 33  2E..........s113
0630: 01 80 D0 47 80 2F E0 00  01 2F E0 00 01 62 61 72  ...G./.../...bar
0640: 30 01 80 02 00 00 01 80  00 56 06 2B 28 E0 00 01  0........V.+(...
0650: 52 80 23 01 5E 06 2B 28  E0 00 01 53 80 23 2B 28  R.#.^.+(...S.#+(
0660: E0 00 01 54 80 23 52 13  80 F8 FF FF 7F F8 FF FF  ...T.#R.........
0670: 7F 73 31 31 33 45 13 80  F8 FF FF 7F F8 FF FF 7F  .s113E..........
0680: 73 31 31 34 01 80 2B 28  E0 00 01 55 80 23 2B 28  s114..+(...U.#+(
0690: E0 00 01 56 80 23 52 13  80 F8 FF FF 7F F8 FF FF  ...V.#R.........
06A0: 7F 73 31 31 34 45 13 80  F8 FF FF 7F F8 FF FF 7F  .s114E..........
06B0: 73 31 31 35 01 80 9F 57  80 29 E0 00 01 29 E0 00  s115...W.)...)..
06C0: 01 6D 61 69 6E 01 80 1C  15 80 79 00 28 E0 00 01  .main.....y.(...
06D0: 29 E0 00 01 2B 29 E0 00  01 58 80 23 2B 28 E0 00  )...+)...X.#+(..
06E0: 01 59 80 23 52 13 80 F8  FF FF 7F F8 FF FF 7F 73  .Y.#R..........s
06F0: 31 31 35 45 13 80 F8 FF  FF 7F F8 FF FF 7F 73 31  115E..........s1
0700: 31 36 01 80 2B 29 E0 00  01 5A 80 23 2B 29 E0 00  16..+)...Z.#+)..
0710: 01 5B 80 23 52 13 80 F8  FF FF 7F F8 FF FF 7F 73  .[.#R..........s
0720: 31 31 36 45 13 80 F8 FF  FF 7F F8 FF FF 7F 73 31  116E..........s1
0730: 31 37 01 80 2B 28 E0 00  01 5C 80 23 52 13 80 F8  17..+(...\.#R...
0740: FF FF 7F F8 FF FF 7F 73  31 31 37 45 13 80 F8 FF  .......s117E....
0750: FF 7F F8 FF FF 7F 73 31  34 35 01 80 D0 5D 80 2D  ......s145...].-
0760: E0 00 01 2D E0 00 01 77  61 70 31 01 80 1C 15 80  ...-...wap1.....
0770: 79 00 28 E0 00 01 2D E0  00 01 1C 15 80 52 13 80  y.(...-......R..
0780: F8 FF FF 7F F8 FF FF 7F  73 31 34 35 45 13 80 F8  ........s145E...
0790: FF FF 7F F8 FF FF 7F 73  31 31 38 01 80 2B 2D E0  .......s118..+-.
07A0: 00 01 5E 80 23 52 13 80  F8 FF FF 7F F8 FF FF 7F  ..^.#R..........
07B0: 73 31 31 38 45 13 80 F8  FF FF 7F F8 FF FF 7F 73  s118E..........s
07C0: 31 31 39 01 80 D0 5D 80  2D E0 00 01 2D E0 00 01  119...].-...-...
07D0: 74 61 6B 31 01 80 2B 2D  E0 00 01 5F 80 23 2B 29  tak1..+-..._.#+)
07E0: E0 00 01 60 80 23 2B 2D  E0 00 01 61 80 23 52 13  ...`.#+-...a.#R.
07F0: 80 F8 FF FF 7F F8 FF FF  7F 73 31 31 39 45 13 80  .........s119E..
0800: F8 FF FF 7F F8 FF FF 7F  73 31 32 30 01 80 27 05  ........s120..'.
0810: 2A E0 00 01 04 1C 4C 80  D0 62 80 2A E0 00 01 2A  *.....L..b.*...*
0820: E0 00 01 61 30 30 30 01  80 2B 2A E0 00 01 63 80  ...a000..+*...c.
0830: 23 2A 05 2A E0 00 01 52  13 80 F8 FF FF 7F F8 FF  #*.*...R........
0840: FF 7F 73 31 32 30 45 13  80 F8 FF FF 7F F8 FF FF  ..s120E.........
0850: 7F 73 31 32 31 01 80 2B  29 E0 00 01 64 80 23 4E  .s121..+)...d.#N
0860: 00 2C E0 00 01 5B 65 80  2C E0 00 01 2C E0 00 01  .,...[e.,...,...
0870: 6E 65 73 30 1C 66 80 52  13 80 F8 FF FF 7F F8 FF  nes0.f.R........
0880: FF 7F 73 31 32 31 45 13  80 F8 FF FF 7F F8 FF FF  ..s121E.........
0890: 7F 73 31 32 32 01 80 2B  2C E0 00 01 67 80 1C 68  .s122..+,...g..h
08A0: 80 4A 28 E0 00 01 2C E0  00 01 4A 29 E0 00 01 2C  .J(...,...J)...,
08B0: E0 00 01 1C 69 80 23 52  13 80 F8 FF FF 7F F8 FF  ....i.#R........
08C0: FF 7F 73 31 32 32 45 13  80 F8 FF FF 7F F8 FF FF  ..s122E.........
08D0: 7F 73 31 32 33 01 80 5B  65 80 2C E0 00 01 2C E0  .s123..[e.,...,.
08E0: 00 01 73 68 6B 33 2B 2C  E0 00 01 6A 80 1C 68 80  ..shk3+,...j..h.
08F0: 23 52 13 80 F8 FF FF 7F  F8 FF FF 7F 73 31 32 33  #R..........s123
0900: 45 13 80 F8 FF FF 7F F8  FF FF 7F 73 31 32 34 01  E..........s124.
0910: 80 2B 29 E0 00 01 6B 80  23 5B 6C 80 2C E0 00 01  .+)...k.#[l.,...
0920: 2C E0 00 01 79 61 72 30  2B 2C E0 00 01 6D 80 1C  ,...yar0+,...m..
0930: 6E 80 23 52 13 80 F8 FF  FF 7F F8 FF FF 7F 73 31  n.#R..........s1
0940: 32 34 45 13 80 F8 FF FF  7F F8 FF FF 7F 73 31 32  24E..........s12
0950: 35 01 80 2B 2A E0 00 01  6F 80 23 52 13 80 F8 FF  5..+*...o.#R....
0960: FF 7F F8 FF FF 7F 73 31  32 35 45 13 80 F8 FF FF  ......s125E.....
0970: 7F F8 FF FF 7F 73 31 32  36 01 80 4A 2C E0 00 01  .....s126..J,...
0980: 2A E0 00 01 2B 2C E0 00  01 70 80 1C 4C 80 2B 2C  *...+,...p..L.+,
0990: E0 00 01 71 80 23 5B 72  80 2C E0 00 01 2C E0 00  ...q.#[r.,...,..
09A0: 01 74 68 6B 30 52 13 80  F8 FF FF 7F F8 FF FF 7F  .thk0R..........
09B0: 73 31 32 36 45 13 80 F8  FF FF 7F F8 FF FF 7F 73  s126E..........s
09C0: 31 32 37 01 80 2B 2C E0  00 01 73 80 23 52 13 80  127..+,...s.#R..
09D0: F8 FF FF 7F F8 FF FF 7F  73 31 32 37 45 13 80 F8  ........s127E...
09E0: FF FF 7F F8 FF FF 7F 73  31 32 38 01 80 73 74 80  .......s128..st.
09F0: 2B E0 00 01 2B E0 00 01  1C 15 80 4A 28 E0 00 01  +...+......J(...
0A00: 2D E0 00 01 2B 2B E0 00  01 75 80 23 2B 2B E0 00  -...++...u.#++..
0A10: 01 76 80 23 2B 2B E0 00  01 77 80 23 2A 05 2B E0  .v.#++...w.#*.+.
0A20: 00 01 52 13 80 F8 FF FF  7F F8 FF FF 7F 73 31 32  ..R..........s12
0A30: 38 45 13 80 F8 FF FF 7F  F8 FF FF 7F 73 30 34 33  8E..........s043
0A40: 01 80 D0 5D 80 2D E0 00  01 2D E0 00 01 74 61 6B  ...].-...-...tak
0A50: 32 01 80 2B 2D E0 00 01  78 80 23 2B 2D E0 00 01  2..+-...x.#+-...
0A60: 79 80 23 52 13 80 F8 FF  FF 7F F8 FF FF 7F 73 30  y.#R..........s0
0A70: 34 33 45 13 80 F8 FF FF  7F F8 FF FF 7F 73 31 32  43E..........s12
0A80: 39 01 80 2B 28 E0 00 01  7A 80 23 5B 72 80 2C E0  9..+(...z.#[r.,.
0A90: 00 01 2C E0 00 01 74 68  6B 31 D0 5D 80 2D E0 00  ..,...thk1.].-..
0AA0: 01 2D E0 00 01 74 61 6B  32 01 80 2B 2D E0 00 01  .-...tak2..+-...
0AB0: 7B 80 23 2B 2D E0 00 01  7C 80 23 52 13 80 F8 FF  {.#+-...|.#R....
0AC0: FF 7F F8 FF FF 7F 73 31  32 39 45 13 80 F8 FF FF  ......s129E.....
0AD0: 7F F8 FF FF 7F 73 31 33  30 01 80 4E 00 27 E0 00  .....s130..N.'..
0AE0: 01 D0 5D 80 27 E0 00 01  27 E0 00 01 74 61 6B 32  ..].'...'...tak2
0AF0: 01 80 79 00 F0 FF FF 7F  27 E0 00 01 79 00 26 E0  ..y.....'...y.&.
0B00: 00 01 27 E0 00 01 6E F0  FF FF 7F 45 80 99 F0 FF  ..'...n....E....
0B10: FF 7F 2B 2D E0 00 01 7D  80 23 52 13 80 F8 FF FF  ..+-...}.#R.....
0B20: 7F F8 FF FF 7F 73 31 33  30 45 13 80 F8 FF FF 7F  .....s130E......
0B30: F8 FF FF 7F 73 31 33 31  01 80 4A 28 E0 00 01 F0  ....s131..J(....
0B40: FF FF 7F 79 00 F0 FF FF  7F 28 E0 00 01 7B 26 E0  ...y.....(...{&.
0B50: 00 01 1C 18 80 2B 28 E0  00 01 7E 80 23 D0 7F 80  .....+(...~.#...
0B60: 2F E0 00 01 2F E0 00 01  73 30 30 30 01 80 4E 00  /.../...s000..N.
0B70: 2E E0 00 01 BA 2F E0 00  01 80 80 81 80 82 80 83  ...../..........
0B80: 80 80 2E E0 00 01 80 2F  E0 00 01 1C 18 80 5B 84  ......./......[.
0B90: 80 2E E0 00 01 2E E0 00  01 77 6C 6B 30 1C 18 80  .........wlk0...
0BA0: 52 13 80 F8 FF FF 7F F8  FF FF 7F 73 31 33 31 45  R..........s131E
0BB0: 13 80 F8 FF FF 7F F8 FF  FF 7F 73 31 34 38 01 80  ..........s148..
0BC0: 1C 18 80 27 05 2F E0 00  01 03 1C 85 80 52 13 80  ...'./.......R..
0BD0: F8 FF FF 7F F8 FF FF 7F  73 31 34 38 45 13 80 F8  ........s148E...
0BE0: FF FF 7F F8 FF FF 7F 73  31 33 32 01 80 1C 86 80  .......s132.....
0BF0: 5B 84 80 2E E0 00 01 2E  E0 00 01 77 6C 6B 31 BA  [..........wlk1.
0C00: 2E E0 00 01 87 80 88 80  24 80 38 80 1C 69 80 4E  ........$.8..i.N
0C10: 01 27 E0 00 01 BA 2B E0  00 01 89 80 8A 80 24 80  .'....+.......$.
0C20: 8B 80 4A 28 E0 00 01 2E  E0 00 01 4A 2D E0 00 01  ..J(.......J-...
0C30: 2E E0 00 01 4A 2B E0 00  01 2E E0 00 01 4A 29 E0  ....J+.......J).
0C40: 00 01 2E E0 00 01 4A 2A  E0 00 01 2E E0 00 01 4A  ......J*.......J
0C50: 2C E0 00 01 2E E0 00 01  1C 17 80 52 13 80 F8 FF  ,..........R....
0C60: FF 7F F8 FF FF 7F 73 31  33 32 45 13 80 F8 FF FF  ......s132E.....
0C70: 7F F8 FF FF 7F 73 31 33  33 01 80 2B 28 E0 00 01  .....s133..+(...
0C80: 8C 80 1C 15 80 23 52 13  80 F8 FF FF 7F F8 FF FF  .....#R.........
0C90: 7F 73 31 33 33 45 13 80  F8 FF FF 7F F8 FF FF 7F  .s133E..........
0CA0: 73 31 33 34 01 80 2B 2E  E0 00 01 8D 80 23 52 13  s134..+......#R.
0CB0: 80 F8 FF FF 7F F8 FF FF  7F 73 31 33 34 45 13 80  .........s134E..
0CC0: F8 FF FF 7F F8 FF FF 7F  73 31 33 35 01 80 2B 2D  ........s135..+-
0CD0: E0 00 01 8E 80 23 D0 5D  80 2D E0 00 01 2D E0 00  .....#.].-...-..
0CE0: 01 74 73 70 31 01 80 D0  5D 80 2D E0 00 01 2D E0  .tsp1...].-...-.
0CF0: 00 01 77 61 70 32 01 80  1C 17 80 2B 29 E0 00 01  ..wap2.....+)...
0D00: 8F 80 23 9F 90 80 29 E0  00 01 29 E0 00 01 6D 61  ..#...)...)...ma
0D10: 69 6E 01 80 1C 6E 80 52  13 80 F8 FF FF 7F F8 FF  in...n.R........
0D20: FF 7F 73 31 33 35 45 13  80 F8 FF FF 7F F8 FF FF  ..s135E.........
0D30: 7F 73 31 33 36 01 80 2B  2A E0 00 01 91 80 23 73  .s136..+*.....#s
0D40: 92 80 2A E0 00 01 2A E0  00 01 1C 6E 80 52 13 80  ..*...*....n.R..
0D50: F8 FF FF 7F F8 FF FF 7F  73 31 33 36 45 13 80 F8  ........s136E...
0D60: FF FF 7F F8 FF FF 7F 73  31 33 37 01 80 2B 2B E0  .......s137..++.
0D70: 00 01 93 80 23 73 94 80  2B E0 00 01 2B E0 00 01  ....#s..+...+...
0D80: 4E 01 2A E0 00 01 1C 95  80 52 13 80 F8 FF FF 7F  N.*......R......
0D90: F8 FF FF 7F 73 31 33 37  45 13 80 F8 FF FF 7F F8  ....s137E.......
0DA0: FF FF 7F 73 31 33 38 01  80 5F 05 96 80 2C E0 00  ...s138.._...,..
0DB0: 01 2C E0 00 01 6C 61 68  30 00 80 2B 2C E0 00 01  .,...lah0..+,...
0DC0: 97 80 23 2B 2C E0 00 01  98 80 23 5F 07 2C E0 00  ..#+,.....#_.,..
0DD0: 01 2C E0 00 01 6C 61 68  30 52 13 80 F8 FF FF 7F  .,...lah0R......
0DE0: F8 FF FF 7F 73 31 33 38  45 13 80 F8 FF FF 7F F8  ....s138E.......
0DF0: FF FF 7F 73 31 33 39 01  80 5B 99 80 2C E0 00 01  ...s139..[..,...
0E00: 2C E0 00 01 6E 69 73 30  4A 28 E0 00 01 2C E0 00  ,...nis0J(...,..
0E10: 01 2B 2C E0 00 01 9A 80  1C 15 80 23 52 13 80 F8  .+,........#R...
0E20: FF FF 7F F8 FF FF 7F 73  31 33 39 45 13 80 F8 FF  .......s139E....
0E30: FF 7F F8 FF FF 7F 73 31  34 30 01 80 2B 28 E0 00  ......s140..+(..
0E40: 01 9B 80 23 52 13 80 F8  FF FF 7F F8 FF FF 7F 73  ...#R..........s
0E50: 31 34 30 45 13 80 F8 FF  FF 7F F8 FF FF 7F 73 31  140E..........s1
0E60: 34 31 01 80 5B 99 80 2C  E0 00 01 2C E0 00 01 6E  41..[..,...,...n
0E70: 69 73 31 1C 9C 80 4A 2C  E0 00 01 28 E0 00 01 7B  is1...J,...(...{
0E80: 2C E0 00 01 1C 18 80 5B  6C 80 2C E0 00 01 2C E0  ,......[l.,...,.
0E90: 00 01 79 61 72 30 2B 2C  E0 00 01 9D 80 7B 29 E0  ..yar0+,.....{).
0EA0: 00 01 1C 6E 80 23 52 13  80 F8 FF FF 7F F8 FF FF  ...n.#R.........
0EB0: 7F 73 31 34 31 45 13 80  F8 FF FF 7F F8 FF FF 7F  .s141E..........
0EC0: 73 31 34 32 01 80 29 05  29 E0 00 01 03 7C 00 28  s142..).)....|.(
0ED0: E0 00 01 2B 28 E0 00 01  9E 80 23 81 00 26 E0 00  ...+(.....#..&..
0EE0: 01 5B 9F 80 26 E0 00 01  26 E0 00 01 74 68 6B 30  .[..&...&...thk0
0EF0: 52 13 80 F8 FF FF 7F F8  FF FF 7F 73 31 34 32 45  R..........s142E
0F00: 13 80 F8 FF FF 7F F8 FF  FF 7F 73 31 34 33 01 80  ..........s143..
0F10: 2B 26 E0 00 01 A0 80 23  27 05 29 E0 00 01 06 BA  +&.....#'.).....
0F20: 2E E0 00 01 A1 80 A2 80  24 80 38 80 BA 2F E0 00  ........$.8../..
0F30: 01 A3 80 A4 80 A5 80 38  80 BA 29 E0 00 01 A6 80  .......8..).....
0F40: A7 80 A8 80 21 80 5B A9  80 29 E0 00 01 29 E0 00  ....!.[..)...)..
0F50: 01 70 61 74 30 1C 4C 80  52 13 80 F8 FF FF 7F F8  .pat0.L.R.......
0F60: FF FF 7F 73 31 34 33 45  13 80 F8 FF FF 7F F8 FF  ...s143E........
0F70: FF 7F 73 31 34 34 01 80  1C 15 80 2B 2C E0 00 01  ..s144.....+,...
0F80: AA 80 1C 17 80 5D 01 80  6E 80 45 1C 80 F0 FF FF  .....]..n.E.....
0F90: 7F F0 FF FF 7F 77 68 6F  30 01 80 55 1C 80 F0 FF  .....who0..U....
0FA0: FF 7F F0 FF FF 7F 77 68  6F 30 45 00 80 F0 FF FF  ......who0E.....
0FB0: 7F F0 FF FF 7F 66 64 6F  31 01 80 55 00 80 F0 FF  .....fdo1..U....
0FC0: FF 7F F0 FF FF 7F 66 64  6F 31 52 13 80 F8 FF FF  ......fdo1R.....
0FD0: 7F F8 FF FF 7F 73 74 65  73 D0 41 80 28 E0 00 01  .....stes.A.(...
0FE0: 28 E0 00 01 6B 6C 30 31  01 80 27 05 27 E0 00 01  (...kl01..'.'...
0FF0: 07 27 05 29 E0 00 01 04  35 AB 80 78 1C 03 80 45  .'.)....5..x...E
1000: 1C 80 F0 FF FF 7F F0 FF  FF 7F 77 68 69 30 01 80  ..........whi0..
1010: 55 1C 80 F0 FF FF 7F F0  FF FF 7F 77 68 69 30 5C  U..........whi0\
1020: 00 01 80 5C 01 01 80 9A  46 00 1B                 ...\....F..     
```

#### Opcodes

```
  0: 0x003F [0x42] SET_CLI_EVENT_CANCEL_DATA()
  1: 0x0040 [0x03] Work_Zone[1] = 1*
  2: 0x0045 [0x43] SEND_EVENT_UPDATE: Send pending tag to server (packet 0x005B)
  3: 0x0047 [0x43] SEND_EVENT_UPDATE: Check pending flag (skip if not pending)
  4: 0x0049 [0x1A] CALL_SUBROUTINE(address=0x004E)
  5: 0x004C [0x21] END_EVENT
  6: 0x004D [0x00] END_REQSTACK()

SUBROUTINE_004E:
  7: 0x004E [0x03] ExtData[1]->WorkLocal[0] = Work_Zone[2]
  8: 0x0053 [0x45] LOAD_SCHEDULED_TASK: Load scheduler "fdo1" with entities [LocalPlayer, LocalPlayer], work=[200*, 0*]
  9: 0x0064 [0x55] WAIT_LOAD_SCHEDULER: Wait for scheduler "fdo1" with entities [LocalPlayer, LocalPlayer], work=200*
 10: 0x0073 [0x46] CAMERA_CONTROL: Disable user control
 11: 0x0075 [0x38] SET_CLIENT_EVENT_MODE(mode=27*)
 12: 0x0078 [0x34] LOAD_UNLOAD_ZONE(zone_id=541*)
 13: 0x007B [0x77] SET_EVENT_TIME_WEATHER(hour=255*, weather=1*)
 14: 0x0080 [0x1C] WAIT(1* ticks)
 15: 0x0083 [0x2F] Tenzen (ID: 16834599/0x0100E027)->Render.Flags0 &= ~0x80000 // Bit 19
 16: 0x0089 [0x2F] Iroha (ID: 16834598/0x0100E026)->Render.Flags0 &= ~0x80000 // Bit 19
 17: 0x008F [0x2F] Unnamed NPC (ID: 16834608/0x0100E030)->Render.Flags0 &= ~0x80000 // Bit 19
 18: 0x0095 [0x4E] SET_ENTITY_HIDE_FLAG: Show Tenzen (ID: 16834599/0x0100E027)
 19: 0x009B [0x4E] SET_ENTITY_HIDE_FLAG: Show Iroha (ID: 16834598/0x0100E026)
 20: 0x00A1 [0x4E] SET_ENTITY_HIDE_FLAG: Show LocalPlayer
 21: 0x00A7 [0x4E] SET_ENTITY_HIDE_FLAG: Show Unnamed NPC (ID: 16834608/0x0100E030)
 22: 0x00AD [0x92] Tenzen (ID: 16834599/0x0100E027)->Render.Flags3 ^= 0x01
 23: 0x00B3 [0x92] Iroha (ID: 16834598/0x0100E026)->Render.Flags3 ^= 0x01
 24: 0x00B9 [0x94] Tenzen (ID: 16834599/0x0100E027)->Render.Flags3 ^= 0x01
 25: 0x00BF [0x94] Iroha (ID: 16834598/0x0100E026)->Render.Flags3 ^= 0x01
 26: 0x00C5 [0x94] LocalPlayer->Render.Flags3 ^= 0x01
 27: 0x00CB [0x94] Unnamed NPC (ID: 16834608/0x0100E030)->Render.Flags3 ^= 0x01
 28: 0x00D1 [0xBA] SET_ENTITY_POSITION(entity_id=Tenzen (ID: 16834599/0x0100E027), pos_x=-401.020*, pos_z=351.422*, pos_y=-19.099*, direction=271.7°*)
 29: 0x00DE [0xBA] SET_ENTITY_POSITION(entity_id=Iroha (ID: 16834598/0x0100E026), pos_x=-398.939*, pos_z=351.363*, pos_y=-19.099*, direction=270.5°*)
 30: 0x00EB [0xBA] SET_ENTITY_POSITION(entity_id=LocalPlayer, pos_x=-399.996*, pos_z=343.820*, pos_y=-19.099*, direction=272.2°*)
 31: 0x00F8 [0xBA] SET_ENTITY_POSITION(entity_id=Unnamed NPC (ID: 16834608/0x0100E030), pos_x=-400.000*, pos_z=348.000*, pos_y=-19.099*, direction=272.2°*)
 32: 0x0105 [0x80] LOAD_WAIT(entity=Tenzen (ID: 16834599/0x0100E027))
 33: 0x010A [0x80] LOAD_WAIT(entity=LocalPlayer)
 34: 0x010F [0x80] LOAD_WAIT(entity=Iroha (ID: 16834598/0x0100E026))
 35: 0x0114 [0x80] LOAD_WAIT(entity=Unnamed NPC (ID: 16834608/0x0100E030))
 36: 0x0119 [0x45] LOAD_SCHEDULED_TASK: Load scheduler "s104" with entities [EventEntity, EventEntity], work=[767*, 0*]
 37: 0x012A [0x1C] WAIT(15* ticks)
 38: 0x012D [0x45] LOAD_SCHEDULED_TASK: Load scheduler "fdi1" with entities [LocalPlayer, LocalPlayer], work=[200*, 0*]
 39: 0x013E [0x27] REQ_SET(priority=0x05, entity_id=LocalPlayer, tag_num=0x1E)
 40: 0x0145 [0x1C] WAIT(120* ticks)
 41: 0x0148 [0x81] SET_ENTITY_BLINKING(blink_flag=0x00, entity=Iroha (ID: 16834598/0x0100E026))
 42: 0x014E [0x7C] Iroha (ID: 16834598/0x0100E026)->Render.Flags2 |= 0x00
 43: 0x0154 [0x5B] LOAD_EXT_SCHEDULER: Load scheduler "hiz0" with entities [Iroha (ID: 16834598/0x0100E026), Iroha (ID: 16834598/0x0100E026)], work=3865*
 44: 0x0163 [0x52] END_LOAD_SCHEDULER: End scheduler "s104" with entities [EventEntity, EventEntity], work=767*
 45: 0x0172 [0x45] LOAD_SCHEDULED_TASK: Load scheduler "s105" with entities [EventEntity, EventEntity], work=[767*, 0*]
 46: 0x0183 [0x45] LOAD_SCHEDULED_TASK: Load scheduler "0dkn" with entities [Iroha (ID: 16834598/0x0100E026), Iroha (ID: 16834598/0x0100E026)], work=[200*, 0*]
 47: 0x0194 [0x1C] WAIT(90* ticks)
 48: 0x0197 [0x2C] CREATE_SCHEDULER_TASK: Create scheduler "dead" with entities [LocalPlayer, LocalPlayer]
 49: 0x01A4 [0x1C] WAIT(30* ticks)
 50: 0x01A7 [0x52] END_LOAD_SCHEDULER: End scheduler "s105" with entities [EventEntity, EventEntity], work=767*
 51: 0x01B6 [0x5F] MULTI_HANDLER_COMPLEX(mode=0x03 - Load ext scheduler (OpCode 0x5B mode 0), ref=3438*, entity1=Unnamed NPC (ID: 16834608/0x0100E030), entity2=Unnamed NPC (ID: 16834608/0x0100E030), string="kra0")
 52: 0x01C6 [0x5B] LOAD_EXT_SCHEDULER: Load scheduler "sha0" with entities [Tenzen (ID: 16834599/0x0100E027), Tenzen (ID: 16834599/0x0100E027)], work=662*
 53: 0x01D5 [0x92] LocalPlayer->Render.Flags3 ^= 0x01
 54: 0x01DB [0x4E] SET_ENTITY_HIDE_FLAG: Hide LocalPlayer
 55: 0x01E1 [0x1C] WAIT(400* ticks)
 56: 0x01E4 [0x45] LOAD_SCHEDULED_TASK: Load scheduler "who0" with entities [LocalPlayer, LocalPlayer], work=[201*, 0*]
 57: 0x01F5 [0x55] WAIT_LOAD_SCHEDULER: Wait for scheduler "who0" with entities [LocalPlayer, LocalPlayer], work=201*
 58: 0x0204 [0x52] END_LOAD_SCHEDULER: End scheduler "s105" with entities [EventEntity, EventEntity], work=767*
 59: 0x0213 [0x5F] MULTI_HANDLER_COMPLEX(mode=0x03 - Load ext scheduler (OpCode 0x5B mode 0), ref=3430*, entity1=Unnamed NPC (ID: 16834608/0x0100E030), entity2=Unnamed NPC (ID: 16834608/0x0100E030), string="cmof")
 60: 0x0223 [0x5F] MULTI_HANDLER_COMPLEX(mode=0x02 - Kill entity action (OpCode 0xC1))
 61: 0x0229 [0x6B] STOP_AND_IDLE: LocalPlayer stops current action and resets to idle (animation="idl0")
 62: 0x0232 [0x6B] STOP_AND_IDLE: Iroha (ID: 16834598/0x0100E026) stops current action and resets to idle (animation="idl0")
 63: 0x023B [0x6B] STOP_AND_IDLE: Tenzen (ID: 16834599/0x0100E027) stops current action and resets to idle (animation="idl0")
 64: 0x0244 [0x2F] Selh'teus (ID: 16834600/0x0100E028)->Render.Flags0 &= ~0x80000 // Bit 19
 65: 0x024A [0x2F] Diabolos (ID: 16834601/0x0100E029)->Render.Flags0 &= ~0x80000 // Bit 19
 66: 0x0250 [0x2F] Odin (ID: 16834605/0x0100E02D)->Render.Flags0 &= ~0x80000 // Bit 19
 67: 0x0256 [0x2F] Atomos (ID: 16834602/0x0100E02A)->Render.Flags0 &= ~0x80000 // Bit 19
 68: 0x025C [0x2F] Balamor (ID: 16834604/0x0100E02C)->Render.Flags0 &= ~0x80000 // Bit 19
 69: 0x0262 [0x2F] Fenrir (ID: 16834603/0x0100E02B)->Render.Flags0 &= ~0x80000 // Bit 19
 70: 0x0268 [0x2F] Volto Oscuro (ID: 16834606/0x0100E02E)->Render.Flags0 &= ~0x80000 // Bit 19
 71: 0x026E [0x2F] Unnamed NPC (ID: 16834607/0x0100E02F)->Render.Flags0 &= ~0x80000 // Bit 19
 72: 0x0274 [0x4E] SET_ENTITY_HIDE_FLAG: Show Unnamed NPC (ID: 16834607/0x0100E02F)
 73: 0x027A [0x4E] SET_ENTITY_HIDE_FLAG: Show Selh'teus (ID: 16834600/0x0100E028)
 74: 0x0280 [0x4E] SET_ENTITY_HIDE_FLAG: Show Diabolos (ID: 16834601/0x0100E029)
 75: 0x0286 [0x4E] SET_ENTITY_HIDE_FLAG: Show Odin (ID: 16834605/0x0100E02D)
 76: 0x028C [0x4E] SET_ENTITY_HIDE_FLAG: Show Atomos (ID: 16834602/0x0100E02A)
 77: 0x0292 [0x4E] SET_ENTITY_HIDE_FLAG: Show Fenrir (ID: 16834603/0x0100E02B)
 78: 0x0298 [0x4E] SET_ENTITY_HIDE_FLAG: Show LocalPlayer
 79: 0x029E [0x92] Selh'teus (ID: 16834600/0x0100E028)->Render.Flags3 ^= 0x01
 80: 0x02A4 [0x92] Diabolos (ID: 16834601/0x0100E029)->Render.Flags3 ^= 0x01
 81: 0x02AA [0x92] Odin (ID: 16834605/0x0100E02D)->Render.Flags3 ^= 0x01
 82: 0x02B0 [0x92] Atomos (ID: 16834602/0x0100E02A)->Render.Flags3 ^= 0x01
 83: 0x02B6 [0x92] Balamor (ID: 16834604/0x0100E02C)->Render.Flags3 ^= 0x01
 84: 0x02BC [0x92] Fenrir (ID: 16834603/0x0100E02B)->Render.Flags3 ^= 0x01
 85: 0x02C2 [0x92] Volto Oscuro (ID: 16834606/0x0100E02E)->Render.Flags3 ^= 0x01
 86: 0x02C8 [0x94] Selh'teus (ID: 16834600/0x0100E028)->Render.Flags3 ^= 0x01
 87: 0x02CE [0x94] Diabolos (ID: 16834601/0x0100E029)->Render.Flags3 ^= 0x01
 88: 0x02D4 [0x94] Odin (ID: 16834605/0x0100E02D)->Render.Flags3 ^= 0x01
 89: 0x02DA [0x94] Atomos (ID: 16834602/0x0100E02A)->Render.Flags3 ^= 0x01
 90: 0x02E0 [0x94] Balamor (ID: 16834604/0x0100E02C)->Render.Flags3 ^= 0x01
 91: 0x02E6 [0x94] Fenrir (ID: 16834603/0x0100E02B)->Render.Flags3 ^= 0x01
 92: 0x02EC [0x94] Volto Oscuro (ID: 16834606/0x0100E02E)->Render.Flags3 ^= 0x01
 93: 0x02F2 [0x94] Unnamed NPC (ID: 16834607/0x0100E02F)->Render.Flags3 ^= 0x01
 94: 0x02F8 [0x27] REQ_SET(priority=0x05, entity_id=Selh'teus (ID: 16834600/0x0100E028), tag_num=0x03)
 95: 0x02FF [0x27] REQ_SET(priority=0x05, entity_id=Diabolos (ID: 16834601/0x0100E029), tag_num=0x05)
 96: 0x0306 [0x27] REQ_SET(priority=0x05, entity_id=Odin (ID: 16834605/0x0100E02D), tag_num=0x03)
 97: 0x030D [0x27] REQ_SET(priority=0x05, entity_id=Atomos (ID: 16834602/0x0100E02A), tag_num=0x03)
 98: 0x0314 [0x27] REQ_SET(priority=0x05, entity_id=Fenrir (ID: 16834603/0x0100E02B), tag_num=0x03)
 99: 0x031B [0x59] UPDATE_ENTITY_DATA: Unnamed NPC (ID: 16834607/0x0100E02F)->Render.Flags0 |= 0x200000
100: 0x0322 [0x59] UPDATE_ENTITY_DATA: Selh'teus (ID: 16834600/0x0100E028)->Render.Flags0 |= 0x200000
101: 0x0329 [0x59] UPDATE_ENTITY_DATA: Diabolos (ID: 16834601/0x0100E029)->Render.Flags0 |= 0x200000
102: 0x0330 [0x59] UPDATE_ENTITY_DATA: Odin (ID: 16834605/0x0100E02D)->Render.Flags0 |= 0x200000
103: 0x0337 [0x59] UPDATE_ENTITY_DATA: Atomos (ID: 16834602/0x0100E02A)->Render.Flags0 |= 0x200000
104: 0x033E [0x59] UPDATE_ENTITY_DATA: Iroha (ID: 16834598/0x0100E026)->Render.Flags0 |= 0x200000
105: 0x0345 [0x59] UPDATE_ENTITY_DATA: LocalPlayer->Render.Flags0 |= 0x200000
106: 0x034C [0x59] UPDATE_ENTITY_DATA: Balamor (ID: 16834604/0x0100E02C)->Render.Flags0 |= 0x200000
107: 0x0353 [0x59] UPDATE_ENTITY_DATA: Fenrir (ID: 16834603/0x0100E02B)->Render.Flags0 |= 0x200000
108: 0x035A [0x59] UPDATE_ENTITY_DATA: Volto Oscuro (ID: 16834606/0x0100E02E)->Render.Flags0 |= 0x200000
109: 0x0361 [0x27] REQ_SET(priority=0x05, entity_id=Tenzen (ID: 16834599/0x0100E027), tag_num=0x06)
110: 0x0368 [0xBA] SET_ENTITY_POSITION(entity_id=Unnamed NPC (ID: 16834607/0x0100E02F), pos_x=275.634*, pos_z=-92.792*, pos_y=-81.135*, direction=224.7°*)
111: 0x0375 [0xBA] SET_ENTITY_POSITION(entity_id=Selh'teus (ID: 16834600/0x0100E028), pos_x=266.668*, pos_z=-76.899*, pos_y=-76.135*, direction=100.1°*)
112: 0x0382 [0xBA] SET_ENTITY_POSITION(entity_id=Diabolos (ID: 16834601/0x0100E029), pos_x=260.533*, pos_z=-79.171*, pos_y=-76.135*, direction=29.7°*)
113: 0x038F [0xBA] SET_ENTITY_POSITION(entity_id=Odin (ID: 16834605/0x0100E02D), pos_x=265.169*, pos_z=-85.969*, pos_y=-79.135*, direction=274.3°*)
114: 0x039C [0xBA] SET_ENTITY_POSITION(entity_id=Atomos (ID: 16834602/0x0100E02A), pos_x=269.724*, pos_z=-83.195*, pos_y=-78.135*, direction=224.7°*)
115: 0x03A9 [0xBA] SET_ENTITY_POSITION(entity_id=Balamor (ID: 16834604/0x0100E02C), pos_x=271.057*, pos_z=-78.088*, pos_y=-78.135*, direction=124.0°*)
116: 0x03B6 [0xBA] SET_ENTITY_POSITION(entity_id=Fenrir (ID: 16834603/0x0100E02B), pos_x=259.291*, pos_z=-83.609*, pos_y=-76.135*, direction=346.2°*)
117: 0x03C3 [0xBA] SET_ENTITY_POSITION(entity_id=Volto Oscuro (ID: 16834606/0x0100E02E), pos_x=257.243*, pos_z=-97.842*, pos_y=-76.135*, direction=295.0°*)
118: 0x03D0 [0xBA] SET_ENTITY_POSITION(entity_id=Iroha (ID: 16834598/0x0100E026), pos_x=275.199*, pos_z=-94.073*, pos_y=-81.135*, direction=224.8°*)
119: 0x03DD [0xBA] SET_ENTITY_POSITION(entity_id=LocalPlayer, pos_x=275.634*, pos_z=-92.792*, pos_y=-81.135*, direction=224.7°*)
120: 0x03EA [0xBA] SET_ENTITY_POSITION(entity_id=Tenzen (ID: 16834599/0x0100E027), pos_x=274.667*, pos_z=-91.321*, pos_y=-81.635*, direction=43.9°*)
121: 0x03F7 [0x80] LOAD_WAIT(entity=LocalPlayer)
122: 0x03FC [0x80] LOAD_WAIT(entity=Iroha (ID: 16834598/0x0100E026))
123: 0x0401 [0x80] LOAD_WAIT(entity=Unnamed NPC (ID: 16834607/0x0100E02F))
124: 0x0406 [0x1C] WAIT(120* ticks)
125: 0x0409 [0x6E] LocalPlayer uses emote 7*
126: 0x0410 [0x99] Wait for LocalPlayer animation to complete
127: 0x0415 [0x81] SET_ENTITY_BLINKING(blink_flag=0x00, entity=Selh'teus (ID: 16834600/0x0100E028))
128: 0x041B [0x7C] Iroha (ID: 16834598/0x0100E026)->Render.Flags2 |= 0x01
129: 0x0421 [0xD0] LOAD_SCHEDULED_TASK_ALT5: Load scheduler "s001" with entities [Selh'teus (ID: 16834600/0x0100E028), Selh'teus (ID: 16834600/0x0100E028)], work=[141*, 0*]
130: 0x0432 [0x5B] LOAD_EXT_SCHEDULER: Load scheduler "c4l5" with entities [Selh'teus (ID: 16834600/0x0100E028), Selh'teus (ID: 16834600/0x0100E028)], work=460*
131: 0x0441 [0x4E] SET_ENTITY_HIDE_FLAG: Hide Tenzen (ID: 16834599/0x0100E027)
132: 0x0447 [0x1C] WAIT(90* ticks)
133: 0x044A [0x5C] MUSIC_CONTROL: Set Idle (Day) music to song 79*
134: 0x044E [0x5C] MUSIC_CONTROL: Set Idle (Night) music to song 79*
135: 0x0452 [0x9A] WAIT_MUSIC_SERVER()
136: 0x0453 [0x45] LOAD_SCHEDULED_TASK: Load scheduler "s106" with entities [EventEntity, EventEntity], work=[767*, 0*]
137: 0x0464 [0x1C] WAIT(15* ticks)
138: 0x0467 [0x45] LOAD_SCHEDULED_TASK: Load scheduler "whi1" with entities [LocalPlayer, LocalPlayer], work=[201*, 0*]
139: 0x0478 [0x5B] LOAD_EXT_SCHEDULER: Load scheduler "wapk" with entities [Iroha (ID: 16834598/0x0100E026), Iroha (ID: 16834598/0x0100E026)], work=3866*
140: 0x0487 [0x6E] LocalPlayer uses emote 21*
141: 0x048E [0x99] Wait for LocalPlayer animation to complete
142: 0x0493 [0x1C] WAIT(120* ticks)
143: 0x0496 [0x52] END_LOAD_SCHEDULER: End scheduler "s106" with entities [EventEntity, EventEntity], work=767*
144: 0x04A5 [0x45] LOAD_SCHEDULED_TASK: Load scheduler "s107" with entities [EventEntity, EventEntity], work=[767*, 0*]
145: 0x04B6 [0x2B] Iroha (ID: 16834598/0x0100E026) [7319*]:
    → "Master, what is this place?"
146: 0x04BD [0x23] WAIT_FOR_DIALOG_INTERACTION
147: 0x04BE [0x1C] WAIT(120* ticks)
148: 0x04C1 [0x23] WAIT_FOR_DIALOG_INTERACTION
149: 0x04C2 [0x52] END_LOAD_SCHEDULER: End scheduler "s107" with entities [EventEntity, EventEntity], work=767*
150: 0x04D1 [0x45] LOAD_SCHEDULED_TASK: Load scheduler "s108" with entities [EventEntity, EventEntity], work=[767*, 0*]
151: 0x04E2 [0xD0] LOAD_SCHEDULED_TASK_ALT5: Load scheduler "bar0" with entities [Unnamed NPC (ID: 16834607/0x0100E02F), Unnamed NPC (ID: 16834607/0x0100E02F)], work=[133*, 0*]
152: 0x04F3 [0x1C] WAIT(30* ticks)
153: 0x04F6 [0x6E] LocalPlayer uses emote 29*
154: 0x04FD [0x99] Wait for LocalPlayer animation to complete
155: 0x0502 [0x2B] Iroha (ID: 16834598/0x0100E026) [7320*]:
    → "Over th--!"
156: 0x0509 [0x1C] WAIT(90* ticks)
157: 0x050C [0x5B] LOAD_EXT_SCHEDULER: Load scheduler "tlc0" with entities [Iroha (ID: 16834598/0x0100E026), Iroha (ID: 16834598/0x0100E026)], work=3863*
158: 0x051B [0x52] END_LOAD_SCHEDULER: End scheduler "s108" with entities [EventEntity, EventEntity], work=767*
159: 0x052A [0x45] LOAD_SCHEDULED_TASK: Load scheduler "s109" with entities [EventEntity, EventEntity], work=[767*, 0*]
160: 0x053B [0x2B] Iroha (ID: 16834598/0x0100E026) [7321*]:
    → "By the spirits..."
161: 0x0542 [0x1C] WAIT(120* ticks)
162: 0x0545 [0x52] END_LOAD_SCHEDULER: End scheduler "s109" with entities [EventEntity, EventEntity], work=767*
163: 0x0554 [0x45] LOAD_SCHEDULED_TASK: Load scheduler "s110" with entities [EventEntity, EventEntity], work=[767*, 0*]
164: 0x0565 [0x27] REQ_SET(priority=0x05, entity_id=Selh'teus (ID: 16834600/0x0100E028), tag_num=0x04)
165: 0x056C [0x1C] WAIT(60* ticks)
166: 0x056F [0x6B] STOP_AND_IDLE: Iroha (ID: 16834598/0x0100E026) stops current action and resets to idle (animation="idl0")
167: 0x0578 [0x4A] Iroha (ID: 16834598/0x0100E026) looks at Selh'teus (ID: 16834600/0x0100E028)
168: 0x0581 [0x4A] LocalPlayer looks at Selh'teus (ID: 16834600/0x0100E028)
169: 0x058A [0xBA] SET_ENTITY_POSITION(entity_id=Unnamed NPC (ID: 16834607/0x0100E02F), pos_x=275.634*, pos_z=-92.792*, pos_y=-82.135*, direction=240.6°*)
170: 0x0597 [0x1C] WAIT(60* ticks)
171: 0x059A [0x45] LOAD_SCHEDULED_TASK: Load scheduler "ovl1" with entities [LocalPlayer, LocalPlayer], work=[200*, 0*]
172: 0x05AB [0x52] END_LOAD_SCHEDULER: End scheduler "s110" with entities [EventEntity, EventEntity], work=767*
173: 0x05BA [0x45] LOAD_SCHEDULED_TASK: Load scheduler "s111" with entities [EventEntity, EventEntity], work=[767*, 0*]
174: 0x05CB [0x2B] Selh'teus (ID: 16834600/0x0100E028) [7322*]:
    → "The whispers of the Goddess come to me..."
175: 0x05D2 [0x23] WAIT_FOR_DIALOG_INTERACTION
176: 0x05D3 [0x2B] Selh'teus (ID: 16834600/0x0100E028) [7323*]:
    → "...No. It is something from far in the future."
177: 0x05DA [0x23] WAIT_FOR_DIALOG_INTERACTION
178: 0x05DB [0x52] END_LOAD_SCHEDULER: End scheduler "s111" with entities [EventEntity, EventEntity], work=767*
179: 0x05EA [0x45] LOAD_SCHEDULED_TASK: Load scheduler "s112" with entities [EventEntity, EventEntity], work=[767*, 0*]
180: 0x05FB [0x2B] Selh'teus (ID: 16834600/0x0100E028) [7324*]:
    → "<Player>...? Is that <Player>'s voice I hear?"
181: 0x0602 [0x23] WAIT_FOR_DIALOG_INTERACTION
182: 0x0603 [0x81] SET_ENTITY_BLINKING(blink_flag=0x01, entity=Selh'teus (ID: 16834600/0x0100E028))
183: 0x0609 [0x6B] STOP_AND_IDLE: Selh'teus (ID: 16834600/0x0100E028) stops current action and resets to idle (animation="idl0")
184: 0x0612 [0x52] END_LOAD_SCHEDULER: End scheduler "s112" with entities [EventEntity, EventEntity], work=767*
185: 0x0621 [0x45] LOAD_SCHEDULED_TASK: Load scheduler "s113" with entities [EventEntity, EventEntity], work=[767*, 0*]
186: 0x0632 [0xD0] LOAD_SCHEDULED_TASK_ALT5: Load scheduler "bar0" with entities [Unnamed NPC (ID: 16834607/0x0100E02F), Unnamed NPC (ID: 16834607/0x0100E02F)], work=[133*, 0*]
187: 0x0643 [0x02] IF !(ExtData[1]->WorkLocal[0] == 0*) GOTO 0x0656
188: 0x064B [0x2B] Selh'teus (ID: 16834600/0x0100E028) [7326*]:
    → "I am Selh'teus, a man destined to walk with you in a future already known to me."
189: 0x0652 [0x23] WAIT_FOR_DIALOG_INTERACTION
190: 0x0653 [0x01] GOTO 0x065E
191: 0x0656 [0x2B] Selh'teus (ID: 16834600/0x0100E028) [7325*]:
    → "I am Selh'teus, a man who was to remain in Al'Taieu."
192: 0x065D [0x23] WAIT_FOR_DIALOG_INTERACTION

SUBROUTINE_065E:
193: 0x065E [0x2B] Selh'teus (ID: 16834600/0x0100E028) [7327*]:
    → "Thus I must ask--are you a dream? A vision?"
194: 0x0665 [0x23] WAIT_FOR_DIALOG_INTERACTION
195: 0x0666 [0x52] END_LOAD_SCHEDULER: End scheduler "s113" with entities [EventEntity, EventEntity], work=767*
196: 0x0675 [0x45] LOAD_SCHEDULED_TASK: Load scheduler "s114" with entities [EventEntity, EventEntity], work=[767*, 0*]
197: 0x0686 [0x2B] Selh'teus (ID: 16834600/0x0100E028) [7328*]:
    → "The threads of time are becoming more tangled with each passing day."
198: 0x068D [0x23] WAIT_FOR_DIALOG_INTERACTION
199: 0x068E [0x2B] Selh'teus (ID: 16834600/0x0100E028) [7329*]:
    → "The future...is interfering with the past."
200: 0x0695 [0x23] WAIT_FOR_DIALOG_INTERACTION
201: 0x0696 [0x52] END_LOAD_SCHEDULER: End scheduler "s114" with entities [EventEntity, EventEntity], work=767*
202: 0x06A5 [0x45] LOAD_SCHEDULED_TASK: Load scheduler "s115" with entities [EventEntity, EventEntity], work=[767*, 0*]
203: 0x06B6 [0x9F] LOAD_SCHEDULED_TASK_ALT: Load scheduler "main" with entities [Diabolos (ID: 16834601/0x0100E029), Diabolos (ID: 16834601/0x0100E029)], work=[84*, 0*]
204: 0x06C7 [0x1C] WAIT(120* ticks)
205: 0x06CA [0x79] Selh'teus (ID: 16834600/0x0100E028) looks at Diabolos (ID: 16834601/0x0100E029) (Basic look)
206: 0x06D4 [0x2B] Diabolos (ID: 16834601/0x0100E029) [7330*]:
    → "Ah, would that time were the only victim. Nature...magic...spirit...all are converging into an increasingly inextricable knot."
207: 0x06DB [0x23] WAIT_FOR_DIALOG_INTERACTION
208: 0x06DC [0x2B] Selh'teus (ID: 16834600/0x0100E028) [7331*]:
    → "Diabolos, is this dream your doing?"
209: 0x06E3 [0x23] WAIT_FOR_DIALOG_INTERACTION
210: 0x06E4 [0x52] END_LOAD_SCHEDULER: End scheduler "s115" with entities [EventEntity, EventEntity], work=767*
211: 0x06F3 [0x45] LOAD_SCHEDULED_TASK: Load scheduler "s116" with entities [EventEntity, EventEntity], work=[767*, 0*]
212: 0x0704 [0x2B] Diabolos (ID: 16834601/0x0100E029) [7332*]:
    → "Nay. The catalyst is <Player>."
213: 0x070B [0x23] WAIT_FOR_DIALOG_INTERACTION
214: 0x070C [0x2B] Diabolos (ID: 16834601/0x0100E029) [7333*]:
    → "But lest you be mistaken, this is not the <Player> whom you know. It is one from a time beyond 884."
215: 0x0713 [0x23] WAIT_FOR_DIALOG_INTERACTION
216: 0x0714 [0x52] END_LOAD_SCHEDULER: End scheduler "s116" with entities [EventEntity, EventEntity], work=767*
217: 0x0723 [0x45] LOAD_SCHEDULED_TASK: Load scheduler "s117" with entities [EventEntity, EventEntity], work=[767*, 0*]
218: 0x0734 [0x2B] Selh'teus (ID: 16834600/0x0100E028) [7334*]:
    → "And as these threads begin to tangle, order is spiraling into chaos?"
219: 0x073B [0x23] WAIT_FOR_DIALOG_INTERACTION
220: 0x073C [0x52] END_LOAD_SCHEDULER: End scheduler "s117" with entities [EventEntity, EventEntity], work=767*
221: 0x074B [0x45] LOAD_SCHEDULED_TASK: Load scheduler "s145" with entities [EventEntity, EventEntity], work=[767*, 0*]
222: 0x075C [0xD0] LOAD_SCHEDULED_TASK_ALT5: Load scheduler "wap1" with entities [Odin (ID: 16834605/0x0100E02D), Odin (ID: 16834605/0x0100E02D)], work=[139*, 0*]
223: 0x076D [0x1C] WAIT(120* ticks)
224: 0x0770 [0x79] Selh'teus (ID: 16834600/0x0100E028) looks at Odin (ID: 16834605/0x0100E02D) (Basic look)
225: 0x077A [0x1C] WAIT(120* ticks)
226: 0x077D [0x52] END_LOAD_SCHEDULER: End scheduler "s145" with entities [EventEntity, EventEntity], work=767*
227: 0x078C [0x45] LOAD_SCHEDULED_TASK: Load scheduler "s118" with entities [EventEntity, EventEntity], work=[767*, 0*]
228: 0x079D [0x2B] Odin (ID: 16834605/0x0100E02D) [7335*]:
    → "He cometh from a future where the void hath enveloped all."
229: 0x07A4 [0x23] WAIT_FOR_DIALOG_INTERACTION
230: 0x07A5 [0x52] END_LOAD_SCHEDULER: End scheduler "s118" with entities [EventEntity, EventEntity], work=767*
231: 0x07B4 [0x45] LOAD_SCHEDULED_TASK: Load scheduler "s119" with entities [EventEntity, EventEntity], work=[767*, 0*]
232: 0x07C5 [0xD0] LOAD_SCHEDULED_TASK_ALT5: Load scheduler "tak1" with entities [Odin (ID: 16834605/0x0100E02D), Odin (ID: 16834605/0x0100E02D)], work=[139*, 0*]
233: 0x07D6 [0x2B] Odin (ID: 16834605/0x0100E02D) [7336*]:
    → "The lot of you know naught."
234: 0x07DD [0x23] WAIT_FOR_DIALOG_INTERACTION
235: 0x07DE [0x2B] Diabolos (ID: 16834601/0x0100E029) [7337*]:
    → "Unfathomable!"
236: 0x07E5 [0x23] WAIT_FOR_DIALOG_INTERACTION
237: 0x07E6 [0x2B] Odin (ID: 16834605/0x0100E02D) [7338*]:
    → "The void disrupteth the very nature of things. It is not merely causing things to cease to be, but rather cease to have ever been."
238: 0x07ED [0x23] WAIT_FOR_DIALOG_INTERACTION
239: 0x07EE [0x52] END_LOAD_SCHEDULER: End scheduler "s119" with entities [EventEntity, EventEntity], work=767*
240: 0x07FD [0x45] LOAD_SCHEDULED_TASK: Load scheduler "s120" with entities [EventEntity, EventEntity], work=[767*, 0*]
241: 0x080E [0x27] REQ_SET(priority=0x05, entity_id=Atomos (ID: 16834602/0x0100E02A), tag_num=0x04)
242: 0x0815 [0x1C] WAIT(60* ticks)
243: 0x0818 [0xD0] LOAD_SCHEDULED_TASK_ALT5: Load scheduler "a000" with entities [Atomos (ID: 16834602/0x0100E02A), Atomos (ID: 16834602/0x0100E02A)], work=[16*, 0*]
244: 0x0829 [0x2B] Atomos (ID: 16834602/0x0100E02A) [7339*]:
    → "The power...of the gods... Has started to..."
245: 0x0830 [0x23] WAIT_FOR_DIALOG_INTERACTION
246: 0x0831 [0x2A] GET_REQ_LEVEL(level=5, entity_id=Atomos (ID: 16834602/0x0100E02A))
247: 0x0837 [0x52] END_LOAD_SCHEDULER: End scheduler "s120" with entities [EventEntity, EventEntity], work=767*
248: 0x0846 [0x45] LOAD_SCHEDULED_TASK: Load scheduler "s121" with entities [EventEntity, EventEntity], work=[767*, 0*]
249: 0x0857 [0x2B] Diabolos (ID: 16834601/0x0100E029) [7340*]:
    → "Atomos, your ramblings remain as incoherent as ever. Is there no one who can understand him?"
250: 0x085E [0x23] WAIT_FOR_DIALOG_INTERACTION
251: 0x085F [0x4E] SET_ENTITY_HIDE_FLAG: Show Balamor (ID: 16834604/0x0100E02C)
252: 0x0865 [0x5B] LOAD_EXT_SCHEDULER: Load scheduler "nes0" with entities [Balamor (ID: 16834604/0x0100E02C), Balamor (ID: 16834604/0x0100E02C)], work=3585*
253: 0x0874 [0x1C] WAIT(10* ticks)
254: 0x0877 [0x52] END_LOAD_SCHEDULER: End scheduler "s121" with entities [EventEntity, EventEntity], work=767*
255: 0x0886 [0x45] LOAD_SCHEDULED_TASK: Load scheduler "s122" with entities [EventEntity, EventEntity], work=[767*, 0*]
256: 0x0897 [0x2B] Balamor (ID: 16834604/0x0100E02C) [7341*]:
    → ""Starting in the year 884, the power of the spirits and avatars of Vana'diel began to be absorbed by a mysterious force.""
257: 0x089E [0x1C] WAIT(100* ticks)
258: 0x08A1 [0x4A] Selh'teus (ID: 16834600/0x0100E028) looks at Balamor (ID: 16834604/0x0100E02C)
259: 0x08AA [0x4A] Diabolos (ID: 16834601/0x0100E029) looks at Balamor (ID: 16834604/0x0100E02C)
260: 0x08B3 [0x1C] WAIT(40* ticks)
261: 0x08B6 [0x23] WAIT_FOR_DIALOG_INTERACTION
262: 0x08B7 [0x52] END_LOAD_SCHEDULER: End scheduler "s122" with entities [EventEntity, EventEntity], work=767*
263: 0x08C6 [0x45] LOAD_SCHEDULED_TASK: Load scheduler "s123" with entities [EventEntity, EventEntity], work=[767*, 0*]
264: 0x08D7 [0x5B] LOAD_EXT_SCHEDULER: Load scheduler "shk3" with entities [Balamor (ID: 16834604/0x0100E02C), Balamor (ID: 16834604/0x0100E02C)], work=3585*
265: 0x08E6 [0x2B] Balamor (ID: 16834604/0x0100E02C) [7342*]:
    → "But where are my manners? Dear audience, before you stands none other than Balamor."
266: 0x08ED [0x1C] WAIT(100* ticks)
267: 0x08F0 [0x23] WAIT_FOR_DIALOG_INTERACTION
268: 0x08F1 [0x52] END_LOAD_SCHEDULER: End scheduler "s123" with entities [EventEntity, EventEntity], work=767*
269: 0x0900 [0x45] LOAD_SCHEDULED_TASK: Load scheduler "s124" with entities [EventEntity, EventEntity], work=[767*, 0*]
270: 0x0911 [0x2B] Diabolos (ID: 16834601/0x0100E029) [7343*]:
    → "I could think of no stranger stranger to be in our midst."
271: 0x0918 [0x23] WAIT_FOR_DIALOG_INTERACTION
272: 0x0919 [0x5B] LOAD_EXT_SCHEDULER: Load scheduler "yar0" with entities [Balamor (ID: 16834604/0x0100E02C), Balamor (ID: 16834604/0x0100E02C)], work=3580*
273: 0x0928 [0x2B] Balamor (ID: 16834604/0x0100E02C) [7344*]:
    → "Wherever there are forces of darkness, you can bet I'll be there!"
274: 0x092F [0x1C] WAIT(180* ticks)
275: 0x0932 [0x23] WAIT_FOR_DIALOG_INTERACTION
276: 0x0933 [0x52] END_LOAD_SCHEDULER: End scheduler "s124" with entities [EventEntity, EventEntity], work=767*
277: 0x0942 [0x45] LOAD_SCHEDULED_TASK: Load scheduler "s125" with entities [EventEntity, EventEntity], work=[767*, 0*]
278: 0x0953 [0x2B] Atomos (ID: 16834602/0x0100E02A) [7345*]:
    → "Braaaaaah... Light gathers...with one... Darkness gathers...with one..."
279: 0x095A [0x23] WAIT_FOR_DIALOG_INTERACTION
280: 0x095B [0x52] END_LOAD_SCHEDULER: End scheduler "s125" with entities [EventEntity, EventEntity], work=767*
281: 0x096A [0x45] LOAD_SCHEDULED_TASK: Load scheduler "s126" with entities [EventEntity, EventEntity], work=[767*, 0*]
282: 0x097B [0x4A] Balamor (ID: 16834604/0x0100E02C) looks at Atomos (ID: 16834602/0x0100E02A)
283: 0x0984 [0x2B] Balamor (ID: 16834604/0x0100E02C) [7346*]:
    → "Ah, that's my cue."
284: 0x098B [0x1C] WAIT(60* ticks)
285: 0x098E [0x2B] Balamor (ID: 16834604/0x0100E02C) [7347*]:
    → ""The powers of light are slowly gathering in one direction, while those of darkness head elsewhere.""
286: 0x0995 [0x23] WAIT_FOR_DIALOG_INTERACTION
287: 0x0996 [0x5B] LOAD_EXT_SCHEDULER: Load scheduler "thk0" with entities [Balamor (ID: 16834604/0x0100E02C), Balamor (ID: 16834604/0x0100E02C)], work=3579*
288: 0x09A5 [0x52] END_LOAD_SCHEDULER: End scheduler "s126" with entities [EventEntity, EventEntity], work=767*
289: 0x09B4 [0x45] LOAD_SCHEDULED_TASK: Load scheduler "s127" with entities [EventEntity, EventEntity], work=[767*, 0*]
290: 0x09C5 [0x2B] Balamor (ID: 16834604/0x0100E02C) [7348*]:
    → "Oh, how I do love a good riddle. Is this a sign of what is to come?"
291: 0x09CC [0x23] WAIT_FOR_DIALOG_INTERACTION
292: 0x09CD [0x52] END_LOAD_SCHEDULER: End scheduler "s127" with entities [EventEntity, EventEntity], work=767*
293: 0x09DC [0x45] LOAD_SCHEDULED_TASK: Load scheduler "s128" with entities [EventEntity, EventEntity], work=[767*, 0*]
294: 0x09ED [0x73] Fenrir (ID: 16834603/0x0100E02B) casts magic 601* on Fenrir (ID: 16834603/0x0100E02B)
295: 0x09F8 [0x1C] WAIT(120* ticks)
296: 0x09FB [0x4A] Selh'teus (ID: 16834600/0x0100E028) looks at Odin (ID: 16834605/0x0100E02D)
297: 0x0A04 [0x2B] Fenrir (ID: 16834603/0x0100E02B) [7349*]:
    → "<Player> desires to meet Altana..."
298: 0x0A0B [0x23] WAIT_FOR_DIALOG_INTERACTION
299: 0x0A0C [0x2B] Fenrir (ID: 16834603/0x0100E02B) [7350*]:
    → "Siren's communions...the moon reading..."
300: 0x0A13 [0x23] WAIT_FOR_DIALOG_INTERACTION
301: 0x0A14 [0x2B] Fenrir (ID: 16834603/0x0100E02B) [7351*]:
    → "But were the natural order of things to falter...all would come to naught."
302: 0x0A1B [0x23] WAIT_FOR_DIALOG_INTERACTION
303: 0x0A1C [0x2A] GET_REQ_LEVEL(level=5, entity_id=Fenrir (ID: 16834603/0x0100E02B))
304: 0x0A22 [0x52] END_LOAD_SCHEDULER: End scheduler "s128" with entities [EventEntity, EventEntity], work=767*
305: 0x0A31 [0x45] LOAD_SCHEDULED_TASK: Load scheduler "s043" with entities [EventEntity, EventEntity], work=[767*, 0*]
306: 0x0A42 [0xD0] LOAD_SCHEDULED_TASK_ALT5: Load scheduler "tak2" with entities [Odin (ID: 16834605/0x0100E02D), Odin (ID: 16834605/0x0100E02D)], work=[139*, 0*]
307: 0x0A53 [0x2B] Odin (ID: 16834605/0x0100E02D) [7352*]:
    → "Then the situation demandeth that we act swiftly and decisively."
308: 0x0A5A [0x23] WAIT_FOR_DIALOG_INTERACTION
309: 0x0A5B [0x2B] Odin (ID: 16834605/0x0100E02D) [7353*]:
    → "Siren doth intend to challenge the ambassador head-on."
310: 0x0A62 [0x23] WAIT_FOR_DIALOG_INTERACTION
311: 0x0A63 [0x52] END_LOAD_SCHEDULER: End scheduler "s043" with entities [EventEntity, EventEntity], work=767*
312: 0x0A72 [0x45] LOAD_SCHEDULED_TASK: Load scheduler "s129" with entities [EventEntity, EventEntity], work=[767*, 0*]
313: 0x0A83 [0x2B] Selh'teus (ID: 16834600/0x0100E028) [7354*]:
    → "Odin, are you certain?"
314: 0x0A8A [0x23] WAIT_FOR_DIALOG_INTERACTION
315: 0x0A8B [0x5B] LOAD_EXT_SCHEDULER: Load scheduler "thk1" with entities [Balamor (ID: 16834604/0x0100E02C), Balamor (ID: 16834604/0x0100E02C)], work=3579*
316: 0x0A9A [0xD0] LOAD_SCHEDULED_TASK_ALT5: Load scheduler "tak2" with entities [Odin (ID: 16834605/0x0100E02D), Odin (ID: 16834605/0x0100E02D)], work=[139*, 0*]
317: 0x0AAB [0x2B] Odin (ID: 16834605/0x0100E02D) [7355*]:
    → "Yet her victory is far from a foregone conclusion. His power doth stand on even footing with our own."
318: 0x0AB2 [0x23] WAIT_FOR_DIALOG_INTERACTION
319: 0x0AB3 [0x2B] Odin (ID: 16834605/0x0100E02D) [7356*]:
    → "Will Siren fall under his thrall? Or will she be utterly obliterated?"
320: 0x0ABA [0x23] WAIT_FOR_DIALOG_INTERACTION
321: 0x0ABB [0x52] END_LOAD_SCHEDULER: End scheduler "s129" with entities [EventEntity, EventEntity], work=767*
322: 0x0ACA [0x45] LOAD_SCHEDULED_TASK: Load scheduler "s130" with entities [EventEntity, EventEntity], work=[767*, 0*]
323: 0x0ADB [0x4E] SET_ENTITY_HIDE_FLAG: Show Tenzen (ID: 16834599/0x0100E027)
324: 0x0AE1 [0xD0] LOAD_SCHEDULED_TASK_ALT5: Load scheduler "tak2" with entities [Tenzen (ID: 16834599/0x0100E027), Tenzen (ID: 16834599/0x0100E027)], work=[139*, 0*]
325: 0x0AF2 [0x79] LocalPlayer looks at Tenzen (ID: 16834599/0x0100E027) (Basic look)
326: 0x0AFC [0x79] Iroha (ID: 16834598/0x0100E026) looks at Tenzen (ID: 16834599/0x0100E027) (Basic look)
327: 0x0B06 [0x6E] LocalPlayer uses emote 21*
328: 0x0B0D [0x99] Wait for LocalPlayer animation to complete
329: 0x0B12 [0x2B] Odin (ID: 16834605/0x0100E02D) [7357*]:
    → "In the end, the result doth not matter. <Player> will lose the protection of the Goddess."
330: 0x0B19 [0x23] WAIT_FOR_DIALOG_INTERACTION
331: 0x0B1A [0x52] END_LOAD_SCHEDULER: End scheduler "s130" with entities [EventEntity, EventEntity], work=767*
332: 0x0B29 [0x45] LOAD_SCHEDULED_TASK: Load scheduler "s131" with entities [EventEntity, EventEntity], work=[767*, 0*]
333: 0x0B3A [0x4A] Selh'teus (ID: 16834600/0x0100E028) looks at LocalPlayer
334: 0x0B43 [0x79] LocalPlayer looks at Selh'teus (ID: 16834600/0x0100E028) (Basic look)
335: 0x0B4D [0x7B] Iroha (ID: 16834598/0x0100E026) stops talking
336: 0x0B52 [0x1C] WAIT(30* ticks)
337: 0x0B55 [0x2B] Selh'teus (ID: 16834600/0x0100E028) [7358*]:
    → "And Al'Taieu's demise will be all but engraved in stone."
338: 0x0B5C [0x23] WAIT_FOR_DIALOG_INTERACTION
339: 0x0B5D [0xD0] LOAD_SCHEDULED_TASK_ALT5: Load scheduler "s000" with entities [Unnamed NPC (ID: 16834607/0x0100E02F), Unnamed NPC (ID: 16834607/0x0100E02F)], work=[112*, 0*]
340: 0x0B6E [0x4E] SET_ENTITY_HIDE_FLAG: Show Volto Oscuro (ID: 16834606/0x0100E02E)
341: 0x0B74 [0xBA] SET_ENTITY_POSITION(entity_id=Unnamed NPC (ID: 16834607/0x0100E02F), pos_x=255.329*, pos_z=-98.908*, pos_y=-74.135*, direction=279.8°*)
342: 0x0B81 [0x80] LOAD_WAIT(entity=Volto Oscuro (ID: 16834606/0x0100E02E))
343: 0x0B86 [0x80] LOAD_WAIT(entity=Unnamed NPC (ID: 16834607/0x0100E02F))
344: 0x0B8B [0x1C] WAIT(30* ticks)
345: 0x0B8E [0x5B] LOAD_EXT_SCHEDULER: Load scheduler "wlk0" with entities [Volto Oscuro (ID: 16834606/0x0100E02E), Volto Oscuro (ID: 16834606/0x0100E02E)], work=3896*
346: 0x0B9D [0x1C] WAIT(30* ticks)
347: 0x0BA0 [0x52] END_LOAD_SCHEDULER: End scheduler "s131" with entities [EventEntity, EventEntity], work=767*
348: 0x0BAF [0x45] LOAD_SCHEDULED_TASK: Load scheduler "s148" with entities [EventEntity, EventEntity], work=[767*, 0*]
349: 0x0BC0 [0x1C] WAIT(30* ticks)
350: 0x0BC3 [0x27] REQ_SET(priority=0x05, entity_id=Unnamed NPC (ID: 16834607/0x0100E02F), tag_num=0x03)
351: 0x0BCA [0x1C] WAIT(150* ticks)
352: 0x0BCD [0x52] END_LOAD_SCHEDULER: End scheduler "s148" with entities [EventEntity, EventEntity], work=767*
353: 0x0BDC [0x45] LOAD_SCHEDULED_TASK: Load scheduler "s132" with entities [EventEntity, EventEntity], work=[767*, 0*]
354: 0x0BED [0x1C] WAIT(20* ticks)
355: 0x0BF0 [0x5B] LOAD_EXT_SCHEDULER: Load scheduler "wlk1" with entities [Volto Oscuro (ID: 16834606/0x0100E02E), Volto Oscuro (ID: 16834606/0x0100E02E)], work=3896*
356: 0x0BFF [0xBA] SET_ENTITY_POSITION(entity_id=Volto Oscuro (ID: 16834606/0x0100E02E), pos_x=261.553*, pos_z=-88.710*, pos_y=-76.135*, direction=295.0°*)
357: 0x0C0C [0x1C] WAIT(40* ticks)
358: 0x0C0F [0x4E] SET_ENTITY_HIDE_FLAG: Hide Tenzen (ID: 16834599/0x0100E027)
359: 0x0C15 [0xBA] SET_ENTITY_POSITION(entity_id=Fenrir (ID: 16834603/0x0100E02B), pos_x=258.266*, pos_z=-81.906*, pos_y=-76.135*, direction=89.9°*)
360: 0x0C22 [0x4A] Selh'teus (ID: 16834600/0x0100E028) looks at Volto Oscuro (ID: 16834606/0x0100E02E)
361: 0x0C2B [0x4A] Odin (ID: 16834605/0x0100E02D) looks at Volto Oscuro (ID: 16834606/0x0100E02E)
362: 0x0C34 [0x4A] Fenrir (ID: 16834603/0x0100E02B) looks at Volto Oscuro (ID: 16834606/0x0100E02E)
363: 0x0C3D [0x4A] Diabolos (ID: 16834601/0x0100E029) looks at Volto Oscuro (ID: 16834606/0x0100E02E)
364: 0x0C46 [0x4A] Atomos (ID: 16834602/0x0100E02A) looks at Volto Oscuro (ID: 16834606/0x0100E02E)
365: 0x0C4F [0x4A] Balamor (ID: 16834604/0x0100E02C) looks at Volto Oscuro (ID: 16834606/0x0100E02E)
366: 0x0C58 [0x1C] WAIT(90* ticks)
367: 0x0C5B [0x52] END_LOAD_SCHEDULER: End scheduler "s132" with entities [EventEntity, EventEntity], work=767*
368: 0x0C6A [0x45] LOAD_SCHEDULED_TASK: Load scheduler "s133" with entities [EventEntity, EventEntity], work=[767*, 0*]
369: 0x0C7B [0x2B] Selh'teus (ID: 16834600/0x0100E028) [7359*]:
    → "What's that...?"
370: 0x0C82 [0x1C] WAIT(120* ticks)
371: 0x0C85 [0x23] WAIT_FOR_DIALOG_INTERACTION
372: 0x0C86 [0x52] END_LOAD_SCHEDULER: End scheduler "s133" with entities [EventEntity, EventEntity], work=767*
373: 0x0C95 [0x45] LOAD_SCHEDULED_TASK: Load scheduler "s134" with entities [EventEntity, EventEntity], work=[767*, 0*]
374: 0x0CA6 [0x2B] Volto Oscuro (ID: 16834606/0x0100E02E) [7360*]:
    → "Your gathering here together...makes my life much easier."
375: 0x0CAD [0x23] WAIT_FOR_DIALOG_INTERACTION
376: 0x0CAE [0x52] END_LOAD_SCHEDULER: End scheduler "s134" with entities [EventEntity, EventEntity], work=767*
377: 0x0CBD [0x45] LOAD_SCHEDULED_TASK: Load scheduler "s135" with entities [EventEntity, EventEntity], work=[767*, 0*]
378: 0x0CCE [0x2B] Odin (ID: 16834605/0x0100E02D) [7361*]:
    → "Thou art...thou art the ambassador!"
379: 0x0CD5 [0x23] WAIT_FOR_DIALOG_INTERACTION
380: 0x0CD6 [0xD0] LOAD_SCHEDULED_TASK_ALT5: Load scheduler "tsp1" with entities [Odin (ID: 16834605/0x0100E02D), Odin (ID: 16834605/0x0100E02D)], work=[139*, 0*]
381: 0x0CE7 [0xD0] LOAD_SCHEDULED_TASK_ALT5: Load scheduler "wap2" with entities [Odin (ID: 16834605/0x0100E02D), Odin (ID: 16834605/0x0100E02D)], work=[139*, 0*]
382: 0x0CF8 [0x1C] WAIT(90* ticks)
383: 0x0CFB [0x2B] Diabolos (ID: 16834601/0x0100E029) [7362*]:
    → "Then this dream is his!?"
384: 0x0D02 [0x23] WAIT_FOR_DIALOG_INTERACTION
385: 0x0D03 [0x9F] LOAD_SCHEDULED_TASK_ALT: Load scheduler "main" with entities [Diabolos (ID: 16834601/0x0100E029), Diabolos (ID: 16834601/0x0100E029)], work=[85*, 0*]
386: 0x0D14 [0x1C] WAIT(180* ticks)
387: 0x0D17 [0x52] END_LOAD_SCHEDULER: End scheduler "s135" with entities [EventEntity, EventEntity], work=767*
388: 0x0D26 [0x45] LOAD_SCHEDULED_TASK: Load scheduler "s136" with entities [EventEntity, EventEntity], work=[767*, 0*]
389: 0x0D37 [0x2B] Atomos (ID: 16834602/0x0100E02A) [7363*]:
    → "Such darkness...is fated to..."
390: 0x0D3E [0x23] WAIT_FOR_DIALOG_INTERACTION
391: 0x0D3F [0x73] Atomos (ID: 16834602/0x0100E02A) casts magic 628* on Atomos (ID: 16834602/0x0100E02A)
392: 0x0D4A [0x1C] WAIT(180* ticks)
393: 0x0D4D [0x52] END_LOAD_SCHEDULER: End scheduler "s136" with entities [EventEntity, EventEntity], work=767*
394: 0x0D5C [0x45] LOAD_SCHEDULED_TASK: Load scheduler "s137" with entities [EventEntity, EventEntity], work=[767*, 0*]
395: 0x0D6D [0x2B] Fenrir (ID: 16834603/0x0100E02B) [7364*]:
    → "Atomos, do you mean to say that his presence in this time is an unavoidable destiny?"
396: 0x0D74 [0x23] WAIT_FOR_DIALOG_INTERACTION
397: 0x0D75 [0x73] Fenrir (ID: 16834603/0x0100E02B) casts magic 609* on Fenrir (ID: 16834603/0x0100E02B)
398: 0x0D80 [0x4E] SET_ENTITY_HIDE_FLAG: Hide Atomos (ID: 16834602/0x0100E02A)
399: 0x0D86 [0x1C] WAIT(210* ticks)
400: 0x0D89 [0x52] END_LOAD_SCHEDULER: End scheduler "s137" with entities [EventEntity, EventEntity], work=767*
401: 0x0D98 [0x45] LOAD_SCHEDULED_TASK: Load scheduler "s138" with entities [EventEntity, EventEntity], work=[767*, 0*]
402: 0x0DA9 [0x5F] MULTI_HANDLER_COMPLEX(mode=0x05 - Load ext scheduler with flag (OpCode 0x5B mode 0, flag 1), ref=3581*, entity1=Balamor (ID: 16834604/0x0100E02C), entity2=Balamor (ID: 16834604/0x0100E02C), string="lah0", extra=200*)
403: 0x0DBB [0x2B] Balamor (ID: 16834604/0x0100E02C) [7365*]:
    → "Bwehehe! This is quite the fun game going on here!"
404: 0x0DC2 [0x23] WAIT_FOR_DIALOG_INTERACTION
405: 0x0DC3 [0x2B] Balamor (ID: 16834604/0x0100E02C) [7366*]:
    → "Did you see the looks on their faces? Ah, now I understand the mortal desire to pay good coin for such spectacles."
406: 0x0DCA [0x23] WAIT_FOR_DIALOG_INTERACTION
407: 0x0DCB [0x5F] MULTI_HANDLER_COMPLEX(mode=0x07 - Wait scheduler task (OpCode 0x53))
408: 0x0DD9 [0x52] END_LOAD_SCHEDULER: End scheduler "s138" with entities [EventEntity, EventEntity], work=767*
409: 0x0DE8 [0x45] LOAD_SCHEDULED_TASK: Load scheduler "s139" with entities [EventEntity, EventEntity], work=[767*, 0*]
410: 0x0DF9 [0x5B] LOAD_EXT_SCHEDULER: Load scheduler "nis0" with entities [Balamor (ID: 16834604/0x0100E02C), Balamor (ID: 16834604/0x0100E02C)], work=3612*
411: 0x0E08 [0x4A] Selh'teus (ID: 16834600/0x0100E028) looks at Balamor (ID: 16834604/0x0100E02C)
412: 0x0E11 [0x2B] Balamor (ID: 16834604/0x0100E02C) [7367*]:
    → "I wonder what our little friend has to say about all this!"
413: 0x0E18 [0x1C] WAIT(120* ticks)
414: 0x0E1B [0x23] WAIT_FOR_DIALOG_INTERACTION
415: 0x0E1C [0x52] END_LOAD_SCHEDULER: End scheduler "s139" with entities [EventEntity, EventEntity], work=767*
416: 0x0E2B [0x45] LOAD_SCHEDULED_TASK: Load scheduler "s140" with entities [EventEntity, EventEntity], work=[767*, 0*]
417: 0x0E3C [0x2B] Selh'teus (ID: 16834600/0x0100E028) [7368*]:
    → "You can't--! What if he does something terrible?"
418: 0x0E43 [0x23] WAIT_FOR_DIALOG_INTERACTION
419: 0x0E44 [0x52] END_LOAD_SCHEDULER: End scheduler "s140" with entities [EventEntity, EventEntity], work=767*
420: 0x0E53 [0x45] LOAD_SCHEDULED_TASK: Load scheduler "s141" with entities [EventEntity, EventEntity], work=[767*, 0*]
421: 0x0E64 [0x5B] LOAD_EXT_SCHEDULER: Load scheduler "nis1" with entities [Balamor (ID: 16834604/0x0100E02C), Balamor (ID: 16834604/0x0100E02C)], work=3612*
422: 0x0E73 [0x1C] WAIT(70* ticks)
423: 0x0E76 [0x4A] Balamor (ID: 16834604/0x0100E02C) looks at Selh'teus (ID: 16834600/0x0100E028)
424: 0x0E7F [0x7B] Balamor (ID: 16834604/0x0100E02C) stops talking
425: 0x0E84 [0x1C] WAIT(30* ticks)
426: 0x0E87 [0x5B] LOAD_EXT_SCHEDULER: Load scheduler "yar0" with entities [Balamor (ID: 16834604/0x0100E02C), Balamor (ID: 16834604/0x0100E02C)], work=3580*
427: 0x0E96 [0x2B] Balamor (ID: 16834604/0x0100E02C) [7369*]:
    → "Oh, Selh'teus. Selh'teus, Selh'teus, Selh'teus. Surely you know there's no danger in any of this?"
428: 0x0E9D [0x7B] Diabolos (ID: 16834601/0x0100E029) stops talking
429: 0x0EA2 [0x1C] WAIT(180* ticks)
430: 0x0EA5 [0x23] WAIT_FOR_DIALOG_INTERACTION
431: 0x0EA6 [0x52] END_LOAD_SCHEDULER: End scheduler "s141" with entities [EventEntity, EventEntity], work=767*
432: 0x0EB5 [0x45] LOAD_SCHEDULED_TASK: Load scheduler "s142" with entities [EventEntity, EventEntity], work=[767*, 0*]
433: 0x0EC6 [0x29] REQ_SET_WAIT(priority=0x05, entity_id=Diabolos (ID: 16834601/0x0100E029), tag_num=0x03)
434: 0x0ECD [0x7C] Selh'teus (ID: 16834600/0x0100E028)->Render.Flags2 |= 0x00
435: 0x0ED3 [0x2B] Selh'teus (ID: 16834600/0x0100E028) [7370*]:
    → "..."
436: 0x0EDA [0x23] WAIT_FOR_DIALOG_INTERACTION
437: 0x0EDB [0x81] SET_ENTITY_BLINKING(blink_flag=0x00, entity=Iroha (ID: 16834598/0x0100E026))
438: 0x0EE1 [0x5B] LOAD_EXT_SCHEDULER: Load scheduler "thk0" with entities [Iroha (ID: 16834598/0x0100E026), Iroha (ID: 16834598/0x0100E026)], work=3862*
439: 0x0EF0 [0x52] END_LOAD_SCHEDULER: End scheduler "s142" with entities [EventEntity, EventEntity], work=767*
440: 0x0EFF [0x45] LOAD_SCHEDULED_TASK: Load scheduler "s143" with entities [EventEntity, EventEntity], work=[767*, 0*]
441: 0x0F10 [0x2B] Iroha (ID: 16834598/0x0100E026) [7371*]:
    → "The ambassador...that mask..."
442: 0x0F17 [0x23] WAIT_FOR_DIALOG_INTERACTION
443: 0x0F18 [0x27] REQ_SET(priority=0x05, entity_id=Diabolos (ID: 16834601/0x0100E029), tag_num=0x06)
444: 0x0F1F [0xBA] SET_ENTITY_POSITION(entity_id=Volto Oscuro (ID: 16834606/0x0100E02E), pos_x=265.432*, pos_z=-83.330*, pos_y=-76.135*, direction=295.0°*)
445: 0x0F2C [0xBA] SET_ENTITY_POSITION(entity_id=Unnamed NPC (ID: 16834607/0x0100E02F), pos_x=263.993*, pos_z=-83.138*, pos_y=-72.135*, direction=295.0°*)
446: 0x0F39 [0xBA] SET_ENTITY_POSITION(entity_id=Diabolos (ID: 16834601/0x0100E029), pos_x=277.100*, pos_z=-98.280*, pos_y=-83.700*, direction=224.7°*)
447: 0x0F46 [0x5B] LOAD_EXT_SCHEDULER: Load scheduler "pat0" with entities [Diabolos (ID: 16834601/0x0100E029), Diabolos (ID: 16834601/0x0100E029)], work=3615*
448: 0x0F55 [0x1C] WAIT(60* ticks)
449: 0x0F58 [0x52] END_LOAD_SCHEDULER: End scheduler "s143" with entities [EventEntity, EventEntity], work=767*
450: 0x0F67 [0x45] LOAD_SCHEDULED_TASK: Load scheduler "s144" with entities [EventEntity, EventEntity], work=[767*, 0*]
451: 0x0F78 [0x1C] WAIT(120* ticks)
452: 0x0F7B [0x2B] Balamor (ID: 16834604/0x0100E02C) [7372*]:
    → "Until my next performance, friends!t"
453: 0x0F82 [0x1C] WAIT(90* ticks)
454: 0x0F85 [0x5D] SET_MUSIC_VOLUME(volume=0*, fade_time=180*)
455: 0x0F8A [0x45] LOAD_SCHEDULED_TASK: Load scheduler "who0" with entities [LocalPlayer, LocalPlayer], work=[201*, 0*]
456: 0x0F9B [0x55] WAIT_LOAD_SCHEDULER: Wait for scheduler "who0" with entities [LocalPlayer, LocalPlayer], work=201*
457: 0x0FAA [0x45] LOAD_SCHEDULED_TASK: Load scheduler "fdo1" with entities [LocalPlayer, LocalPlayer], work=[200*, 0*]
458: 0x0FBB [0x55] WAIT_LOAD_SCHEDULER: Wait for scheduler "fdo1" with entities [LocalPlayer, LocalPlayer], work=200*
459: 0x0FCA [0x52] END_LOAD_SCHEDULER: End scheduler "stes" with entities [EventEntity, EventEntity], work=767*
460: 0x0FD9 [0xD0] LOAD_SCHEDULED_TASK_ALT5: Load scheduler "kl01" with entities [Selh'teus (ID: 16834600/0x0100E028), Selh'teus (ID: 16834600/0x0100E028)], work=[141*, 0*]
461: 0x0FEA [0x27] REQ_SET(priority=0x05, entity_id=Tenzen (ID: 16834599/0x0100E027), tag_num=0x07)
462: 0x0FF1 [0x27] REQ_SET(priority=0x05, entity_id=Diabolos (ID: 16834601/0x0100E029), tag_num=0x04)
463: 0x0FF8 [0x35] LOAD_ZONE_NO_CLOSE(zone_id=14*)
464: 0x0FFB [0x78] ENABLE_GAME_TIMER_RESET_WEATHER()
465: 0x0FFC [0x1C] WAIT(1* ticks)
466: 0x0FFF [0x45] LOAD_SCHEDULED_TASK: Load scheduler "whi0" with entities [LocalPlayer, LocalPlayer], work=[201*, 0*]
467: 0x1010 [0x55] WAIT_LOAD_SCHEDULER: Wait for scheduler "whi0" with entities [LocalPlayer, LocalPlayer], work=201*
468: 0x101F [0x5C] MUSIC_CONTROL: Set Idle (Day) music to song 0*
469: 0x1023 [0x5C] MUSIC_CONTROL: Set Idle (Night) music to song 0*
470: 0x1027 [0x9A] WAIT_MUSIC_SERVER()
471: 0x1028 [0x46] CAMERA_CONTROL: Restore default settings
472: 0x102A [0x1B] RETURN
```

### Event 5

#### Metadata

| Field        | Value   |
|--------------|---------|
| Entrypoint   | 0x102B  |
| Data Size    | 6 bytes |
| Instructions | 4       |

```
      00 01 02 03 04 05 06 07  08 09 0A 0B 0C 0D 0E 0F
      -- -- -- -- -- -- -- --  -- -- -- -- -- -- -- --
1020:                                   42 1A 40 10 21             B.@.!
1030: 00                                                .               
```

#### Opcodes

```
  0: 0x102B [0x42] SET_CLI_EVENT_CANCEL_DATA()
  1: 0x102C [0x1A] CALL_SUBROUTINE(address=0x1040)
  2: 0x102F [0x21] END_EVENT
  3: 0x1030 [0x00] END_REQSTACK()
```

### Event 4

#### Metadata

| Field        | Value      |
|--------------|------------|
| Entrypoint   | 0x1031     |
| Data Size    | 2427 bytes |
| Instructions | 279        |

```
      00 01 02 03 04 05 06 07  08 09 0A 0B 0C 0D 0E 0F
      -- -- -- -- -- -- -- --  -- -- -- -- -- -- -- --
1030:    42 03 01 10 03 80 43  00 43 01 1A 40 10 21 00   B.....C.C..@.!.
1040: 03 00 00 02 10 03 01 00  03 10 45 00 80 F0 FF FF  ..........E.....
1050: 7F F0 FF FF 7F 66 64 6F  31 01 80 55 00 80 F0 FF  .....fdo1..U....
1060: FF 7F F0 FF FF 7F 66 64  6F 31 46 01 38 04 80 34  ......fdo1F.8..4
1070: 05 80 77 06 80 03 80 1C  03 80 2F 00 27 E0 00 01  ..w......./.'...
1080: 2F 00 26 E0 00 01 4E 00  27 E0 00 01 4E 00 26 E0  /.&...N.'...N.&.
1090: 00 01 4E 00 F0 FF FF 7F  92 01 27 E0 00 01 92 01  ..N.......'.....
10A0: 26 E0 00 01 94 01 27 E0  00 01 94 01 26 E0 00 01  &.....'.....&...
10B0: 94 01 F0 FF FF 7F 59 05  F0 FF FF 7F 01 BA 27 E0  ......Y.......'.
10C0: 00 01 07 80 08 80 09 80  0A 80 BA 26 E0 00 01 AC  ...........&....
10D0: 80 AD 80 09 80 AE 80 BA  F0 FF FF 7F AF 80 B0 80  ................
10E0: 09 80 B1 80 80 27 E0 00  01 80 26 E0 00 01 4A 26  .....'....&...J&
10F0: E0 00 01 F0 FF FF 7F 4A  27 E0 00 01 F0 FF FF 7F  .......J'.......
1100: 4A F0 FF FF 7F 27 E0 00  01 7B F0 FF FF 7F 7B 27  J....'...{....{'
1110: E0 00 01 1C 18 80 27 05  F0 FF FF 7F 20 9F B2 80  ......'..... ...
1120: F8 FF FF 7F F8 FF FF 7F  62 6C 30 30 01 80 5B B3  ........bl00..[.
1130: 80 27 E0 00 01 27 E0 00  01 74 61 6F 30 2C F0 FF  .'...'...tao0,..
1140: FF 7F F0 FF FF 7F 63 6F  72 70 5B 9F 80 26 E0 00  ......corp[..&..
1150: 01 26 E0 00 01 73 68 61  30 1C 17 80 5C 00 43 80  .&...sha0...\.C.
1160: 5C 01 43 80 9A 45 B4 80  F8 FF FF 7F F8 FF FF 7F  \.C..E..........
1170: 73 31 30 32 01 80 1C 14  80 45 00 80 F0 FF FF 7F  s102.....E......
1180: F0 FF FF 7F 66 64 69 31  01 80 9F B2 80 F8 FF FF  ....fdi1........
1190: 7F F8 FF FF 7F 6F 70 65  6E 01 80 1C B5 80 2B 26  .....open.....+&
11A0: E0 00 01 B6 80 1C 68 80  9F B2 80 F8 FF FF 7F F8  ......h.........
11B0: FF FF 7F 63 6C 6F 73 01  80 1C 15 80 45 00 80 F8  ...clos.....E...
11C0: FF FF 7F F8 FF FF 7F 66  64 6F 31 01 80 55 00 80  .......fdo1..U..
11D0: F8 FF FF 7F F8 FF FF 7F  66 64 6F 31 9F B2 80 F8  ........fdo1....
11E0: FF FF 7F F8 FF FF 7F 6B  69 6C 6C 01 80 45 00 80  .......kill..E..
11F0: F0 FF FF 7F F0 FF FF 7F  66 64 69 31 01 80 1C 15  ........fdi1....
1200: 80 52 B4 80 F8 FF FF 7F  F8 FF FF 7F 73 31 30 32  .R..........s102
1210: 45 B4 80 F8 FF FF 7F F8  FF FF 7F 73 31 30 33 01  E..........s103.
1220: 80 27 05 F0 FF FF 7F 21  1C 15 80 52 B4 80 F8 FF  .'.....!...R....
1230: FF 7F F8 FF FF 7F 73 31  30 33 45 B4 80 F8 FF FF  ......s103E.....
1240: 7F F8 FF FF 7F 73 31 30  34 01 80 5F 05 B3 80 27  .....s104.._...'
1250: E0 00 01 27 E0 00 01 6F  6B 69 30 B7 80 2B 27 E0  ...'...oki0..+'.
1260: 00 01 B8 80 1C 15 80 52  B4 80 F8 FF FF 7F F8 FF  .......R........
1270: FF 7F 73 31 30 34 45 B4  80 F8 FF FF 7F F8 FF FF  ..s104E.........
1280: 7F 73 31 30 35 01 80 1C  86 80 BA F0 FF FF 7F AF  .s105...........
1290: 80 B0 80 09 80 B1 80 27  05 F0 FF FF 7F 1C 6B 69  .......'......ki
12A0: 64 6C 30 26 E0 00 01 23  2B 27 E0 00 01 B9 80 23  dl0&...#+'.....#
12B0: 2A 05 F0 FF FF 7F 5F 07  27 E0 00 01 27 E0 00 01  *....._.'...'...
12C0: 6F 6B 69 30 52 B4 80 F8  FF FF 7F F8 FF FF 7F 73  oki0R..........s
12D0: 31 30 35 45 B4 80 F8 FF  FF 7F F8 FF FF 7F 73 31  105E..........s1
12E0: 30 36 01 80 27 05 F0 FF  FF 7F 1D 79 00 F0 FF FF  06..'......y....
12F0: 7F 27 E0 00 01 2B 27 E0  00 01 BA 80 23 2A 05 F0  .'...+'.....#*..
1300: FF FF 7F 52 B4 80 F8 FF  FF 7F F8 FF FF 7F 73 31  ...R..........s1
1310: 30 36 02 87 7F BB 80 80  2E 13 45 B4 80 F8 FF FF  06........E.....
1320: 7F F8 FF FF 7F 73 31 30  38 01 80 01 5B 13 02 87  .....s108...[...
1330: 7F BC 80 80 4A 13 45 B4  80 F8 FF FF 7F F8 FF FF  ....J.E.........
1340: 7F 73 31 30 38 01 80 01  5B 13 45 B4 80 F8 FF FF  .s108...[.E.....
1350: 7F F8 FF FF 7F 73 31 30  37 01 80 24 BD 80 01 80  .....s107..$....
1360: 01 80 25 02 00 10 01 80  00 7E 14 27 05 F0 FF FF  ..%......~.'....
1370: 7F 1A 1C 4C 80 45 00 80  F0 FF FF 7F F0 FF FF 7F  ...L.E..........
1380: 66 64 6F 31 01 80 55 00  80 F0 FF FF 7F F0 FF FF  fdo1..U.........
1390: 7F 66 64 6F 31 52 B4 80  F8 FF FF 7F F8 FF FF 7F  .fdo1R..........
13A0: 73 31 30 37 52 B4 80 F8  FF FF 7F F8 FF FF 7F 73  s107R..........s
13B0: 31 30 38 27 05 F0 FF FF  7F 1B 4A 26 E0 00 01 27  108'......J&...'
13C0: E0 00 01 1C 66 80 5B 1A  80 27 E0 00 01 27 E0 00  ....f.[..'...'..
13D0: 01 73 68 61 31 1C 18 80  45 B4 80 F8 FF FF 7F F8  .sha1...E.......
13E0: FF FF 7F 73 31 30 39 01  80 1C 14 80 45 00 80 F0  ...s109.....E...
13F0: FF FF 7F F0 FF FF 7F 66  64 69 31 01 80 2B 27 E0  .......fdi1..+'.
1400: 00 01 BE 80 23 52 B4 80  F8 FF FF 7F F8 FF FF 7F  ....#R..........
1410: 73 31 30 39 45 B4 80 F8  FF FF 7F F8 FF FF 7F 73  s109E..........s
1420: 31 31 30 01 80 5B BF 80  27 E0 00 01 27 E0 00 01  110..[..'...'...
1430: 74 6C 62 30 2B 27 E0 00  01 C0 80 23 2B 27 E0 00  tlb0+'.....#+'..
1440: 01 C1 80 23 2B 27 E0 00  01 C2 80 23 5B BF 80 27  ...#+'.....#[..'
1450: E0 00 01 27 E0 00 01 74  6C 62 31 52 B4 80 F8 FF  ...'...tlb1R....
1460: FF 7F F8 FF FF 7F 73 31  31 30 45 B4 80 F8 FF FF  ......s110E.....
1470: 7F F8 FF FF 7F 73 31 31  32 01 80 01 C1 17 02 00  .....s112.......
1480: 10 03 80 00 BC 15 27 05  F0 FF FF 7F 1A 1C 4C 80  ......'.......L.
1490: 45 00 80 F0 FF FF 7F F0  FF FF 7F 66 64 6F 31 01  E..........fdo1.
14A0: 80 55 00 80 F0 FF FF 7F  F0 FF FF 7F 66 64 6F 31  .U..........fdo1
14B0: 52 B4 80 F8 FF FF 7F F8  FF FF 7F 73 31 30 37 52  R..........s107R
14C0: B4 80 F8 FF FF 7F F8 FF  FF 7F 73 31 30 38 27 05  ..........s108'.
14D0: F0 FF FF 7F 1B 6B 69 64  6C 30 27 E0 00 01 4A 26  .....kidl0'...J&
14E0: E0 00 01 27 E0 00 01 1C  69 80 02 00 00 01 80 00  ...'....i.......
14F0: 85 15 45 B4 80 F8 FF FF  7F F8 FF FF 7F 73 31 31  ..E..........s11
1500: 30 01 80 1C 14 80 45 00  80 F0 FF FF 7F F0 FF FF  0.....E.........
1510: 7F 66 64 69 31 01 80 5B  BF 80 27 E0 00 01 27 E0  .fdi1..[..'...'.
1520: 00 01 74 68 6B 30 02 01  00 03 80 00 36 15 03 03  ..thk0......6...
1530: 10 01 80 01 3B 15 03 03  10 03 80 2B 27 E0 00 01  ....;......+'...
1540: C3 80 23 2B 27 E0 00 01  C4 80 23 2B 27 E0 00 01  ..#+'.....#+'...
1550: C5 80 23 5B BF 80 27 E0  00 01 27 E0 00 01 74 68  ..#[..'...'...th
1560: 6B 31 52 B4 80 F8 FF FF  7F F8 FF FF 7F 73 31 31  k1R..........s11
1570: 30 45 B4 80 F8 FF FF 7F  F8 FF FF 7F 73 31 31 32  0E..........s112
1580: 01 80 01 B9 15 5B BF 80  27 E0 00 01 27 E0 00 01  .....[..'...'...
1590: 74 68 6B 31 45 B4 80 F8  FF FF 7F F8 FF FF 7F 73  thk1E..........s
15A0: 31 31 32 01 80 1C 14 80  45 00 80 F0 FF FF 7F F0  112.....E.......
15B0: FF FF 7F 66 64 69 31 01  80 01 C1 17 02 00 10 C6  ...fdi1.........
15C0: 80 00 A6 16 27 05 F0 FF  FF 7F 1A 1C 4C 80 45 00  ....'.......L.E.
15D0: 80 F0 FF FF 7F F0 FF FF  7F 66 64 6F 31 01 80 55  .........fdo1..U
15E0: 00 80 F0 FF FF 7F F0 FF  FF 7F 66 64 6F 31 52 B4  ..........fdo1R.
15F0: 80 F8 FF FF 7F F8 FF FF  7F 73 31 30 37 52 B4 80  .........s107R..
1600: F8 FF FF 7F F8 FF FF 7F  73 31 30 38 27 05 F0 FF  ........s108'...
1610: FF 7F 1B 6B 69 64 6C 30  27 E0 00 01 4A 26 E0 00  ...kidl0'...J&..
1620: 01 27 E0 00 01 1C 69 80  45 B4 80 F8 FF FF 7F F8  .'....i.E.......
1630: FF FF 7F 73 31 31 30 01  80 1C 14 80 45 00 80 F0  ...s110.....E...
1640: FF FF 7F F0 FF FF 7F 66  64 69 31 01 80 5B BF 80  .......fdi1..[..
1650: 27 E0 00 01 27 E0 00 01  74 6C 62 30 2B 27 E0 00  '...'...tlb0+'..
1660: 01 C7 80 23 2B 27 E0 00  01 C8 80 23 2B 27 E0 00  ...#+'.....#+'..
1670: 01 C9 80 23 5B BF 80 27  E0 00 01 27 E0 00 01 74  ...#[..'...'...t
1680: 6C 62 31 52 B4 80 F8 FF  FF 7F F8 FF FF 7F 73 31  lb1R..........s1
1690: 31 30 45 B4 80 F8 FF FF  7F F8 FF FF 7F 73 31 31  10E..........s11
16A0: 32 01 80 01 C1 17 02 00  10 CA 80 00 C1 17 27 05  2.............'.
16B0: F0 FF FF 7F 1A 1C 4C 80  45 00 80 F0 FF FF 7F F0  ......L.E.......
16C0: FF FF 7F 66 64 6F 31 01  80 55 00 80 F0 FF FF 7F  ...fdo1..U......
16D0: F0 FF FF 7F 66 64 6F 31  52 B4 80 F8 FF FF 7F F8  ....fdo1R.......
16E0: FF FF 7F 73 31 30 37 52  B4 80 F8 FF FF 7F F8 FF  ...s107R........
16F0: FF 7F 73 31 30 38 27 05  F0 FF FF 7F 1B 4A 26 E0  ..s108'......J&.
1700: 00 01 27 E0 00 01 1C 66  80 5B 1A 80 27 E0 00 01  ..'....f.[..'...
1710: 27 E0 00 01 73 68 61 31  1C 18 80 45 B4 80 F8 FF  '...sha1...E....
1720: FF 7F F8 FF FF 7F 73 31  30 39 01 80 1C 14 80 45  ......s109.....E
1730: 00 80 F0 FF FF 7F F0 FF  FF 7F 66 64 69 31 01 80  ..........fdi1..
1740: 2B 27 E0 00 01 CB 80 23  52 B4 80 F8 FF FF 7F F8  +'.....#R.......
1750: FF FF 7F 73 31 30 39 45  B4 80 F8 FF FF 7F F8 FF  ...s109E........
1760: FF 7F 73 31 31 30 01 80  5B BF 80 27 E0 00 01 27  ..s110..[..'...'
1770: E0 00 01 74 68 6B 30 2B  27 E0 00 01 CC 80 23 2B  ...thk0+'.....#+
1780: 27 E0 00 01 CD 80 23 2B  27 E0 00 01 CE 80 23 5B  '.....#+'.....#[
1790: BF 80 27 E0 00 01 27 E0  00 01 74 68 6B 31 52 B4  ..'...'...thk1R.
17A0: 80 F8 FF FF 7F F8 FF FF  7F 73 31 31 30 45 B4 80  .........s110E..
17B0: F8 FF FF 7F F8 FF FF 7F  73 31 31 32 01 80 01 C1  ........s112....
17C0: 17 2B 27 E0 00 01 CF 80  23 2B 27 E0 00 01 D0 80  .+'.....#+'.....
17D0: 23 81 00 26 E0 00 01 5B  9F 80 26 E0 00 01 26 E0  #..&...[..&...&.
17E0: 00 01 74 68 6B 30 1C 66  80 52 B4 80 F8 FF FF 7F  ..thk0.f.R......
17F0: F8 FF FF 7F 73 31 31 32  45 B4 80 F8 FF FF 7F F8  ....s112E.......
1800: FF FF 7F 73 31 31 33 01  80 2B 26 E0 00 01 D1 80  ...s113..+&.....
1810: 23 52 B4 80 F8 FF FF 7F  F8 FF FF 7F 73 31 31 33  #R..........s113
1820: 45 B4 80 F8 FF FF 7F F8  FF FF 7F 73 31 31 34 01  E..........s114.
1830: 80 5B BF 80 27 E0 00 01  27 E0 00 01 74 6C 62 30  .[..'...'...tlb0
1840: 2B 27 E0 00 01 D2 80 23  5B BF 80 27 E0 00 01 27  +'.....#[..'...'
1850: E0 00 01 74 6C 62 31 6E  F0 FF FF 7F D3 80 99 F0  ...tlb1n........
1860: FF FF 7F 1C 17 80 52 B4  80 F8 FF FF 7F F8 FF FF  ......R.........
1870: 7F 73 31 31 34 45 B4 80  F8 FF FF 7F F8 FF FF 7F  .s114E..........
1880: 73 31 31 35 01 80 5B BF  80 27 E0 00 01 27 E0 00  s115..[..'...'..
1890: 01 74 68 6B 30 2B 27 E0  00 01 D4 80 23 2B 27 E0  .thk0+'.....#+'.
18A0: 00 01 D5 80 23 2B 27 E0  00 01 D6 80 23 5B BF 80  ....#+'.....#[..
18B0: 27 E0 00 01 27 E0 00 01  74 68 6B 31 52 B4 80 F8  '...'...thk1R...
18C0: FF FF 7F F8 FF FF 7F 73  31 31 35 45 B4 80 F8 FF  .......s115E....
18D0: FF 7F F8 FF FF 7F 73 31  31 36 01 80 2B 27 E0 00  ......s116..+'..
18E0: 01 D7 80 23 2B 27 E0 00  01 D8 80 23 52 B4 80 F8  ...#+'.....#R...
18F0: FF FF 7F F8 FF FF 7F 73  31 31 36 45 B4 80 F8 FF  .......s116E....
1900: FF 7F F8 FF FF 7F 73 31  31 37 01 80 27 05 27 E0  ......s117..'.'.
1910: 00 01 05 1C 17 80 4A F0  FF FF 7F 27 E0 00 01 1C  ......J....'....
1920: 4C 80 27 05 F0 FF FF 7F  1F 1C 15 80 5D 01 80 6E  L.'.........]..n
1930: 80 52 B4 80 F8 FF FF 7F  F8 FF FF 7F 73 31 31 37  .R..........s117
1940: 45 B4 80 F8 FF FF 7F F8  FF FF 7F 73 31 31 38 01  E..........s118.
1950: 80 2B 26 E0 00 01 D9 80  23 45 00 80 F0 FF FF 7F  .+&.....#E......
1960: F0 FF FF 7F 66 64 6F 31  01 80 55 00 80 F0 FF FF  ....fdo1..U.....
1970: 7F F0 FF FF 7F 66 64 6F  31 52 B4 80 F8 FF FF 7F  .....fdo1R......
1980: F8 FF FF 7F 73 31 31 38  35 AB 80 78 1C 03 80 5C  ....s1185..x...\
1990: 00 01 80 5C 01 01 80 9A  46 00 45 00 80 F0 FF FF  ...\....F.E.....
19A0: 7F F0 FF FF 7F 66 64 69  32 01 80 1B              .....fdi2...    
```

#### Opcodes

```
  0: 0x1031 [0x42] SET_CLI_EVENT_CANCEL_DATA()
  1: 0x1032 [0x03] Work_Zone[1] = 1*
  2: 0x1037 [0x43] SEND_EVENT_UPDATE: Send pending tag to server (packet 0x005B)
  3: 0x1039 [0x43] SEND_EVENT_UPDATE: Check pending flag (skip if not pending)
  4: 0x103B [0x1A] CALL_SUBROUTINE(address=0x1040)
  5: 0x103E [0x21] END_EVENT
  6: 0x103F [0x00] END_REQSTACK()

SUBROUTINE_1040:
  7: 0x1040 [0x03] ExtData[1]->WorkLocal[0] = Work_Zone[2]
  8: 0x1045 [0x03] ExtData[1]->WorkLocal[1] = Work_Zone[3]
  9: 0x104A [0x45] LOAD_SCHEDULED_TASK: Load scheduler "fdo1" with entities [LocalPlayer, LocalPlayer], work=[200*, 0*]
 10: 0x105B [0x55] WAIT_LOAD_SCHEDULER: Wait for scheduler "fdo1" with entities [LocalPlayer, LocalPlayer], work=200*
 11: 0x106A [0x46] CAMERA_CONTROL: Disable user control
 12: 0x106C [0x38] SET_CLIENT_EVENT_MODE(mode=27*)
 13: 0x106F [0x34] LOAD_UNLOAD_ZONE(zone_id=541*)
 14: 0x1072 [0x77] SET_EVENT_TIME_WEATHER(hour=255*, weather=1*)
 15: 0x1077 [0x1C] WAIT(1* ticks)
 16: 0x107A [0x2F] Tenzen (ID: 16834599/0x0100E027)->Render.Flags0 &= ~0x80000 // Bit 19
 17: 0x1080 [0x2F] Iroha (ID: 16834598/0x0100E026)->Render.Flags0 &= ~0x80000 // Bit 19
 18: 0x1086 [0x4E] SET_ENTITY_HIDE_FLAG: Show Tenzen (ID: 16834599/0x0100E027)
 19: 0x108C [0x4E] SET_ENTITY_HIDE_FLAG: Show Iroha (ID: 16834598/0x0100E026)
 20: 0x1092 [0x4E] SET_ENTITY_HIDE_FLAG: Show LocalPlayer
 21: 0x1098 [0x92] Tenzen (ID: 16834599/0x0100E027)->Render.Flags3 ^= 0x01
 22: 0x109E [0x92] Iroha (ID: 16834598/0x0100E026)->Render.Flags3 ^= 0x01
 23: 0x10A4 [0x94] Tenzen (ID: 16834599/0x0100E027)->Render.Flags3 ^= 0x01
 24: 0x10AA [0x94] Iroha (ID: 16834598/0x0100E026)->Render.Flags3 ^= 0x01
 25: 0x10B0 [0x94] LocalPlayer->Render.Flags3 ^= 0x01
 26: 0x10B6 [0x59] UPDATE_ENTITY_DATA: LocalPlayer->Render.Flags0 |= 0x200000
 27: 0x10BD [0xBA] SET_ENTITY_POSITION(entity_id=Tenzen (ID: 16834599/0x0100E027), pos_x=-401.020*, pos_z=351.422*, pos_y=-19.099*, direction=271.7°*)
 28: 0x10CA [0xBA] SET_ENTITY_POSITION(entity_id=Iroha (ID: 16834598/0x0100E026), pos_x=-398.634*, pos_z=348.276*, pos_y=-19.099*, direction=254.3°*)
 29: 0x10D7 [0xBA] SET_ENTITY_POSITION(entity_id=LocalPlayer, pos_x=-399.871*, pos_z=347.355*, pos_y=-19.099*, direction=253.6°*)
 30: 0x10E4 [0x80] LOAD_WAIT(entity=Tenzen (ID: 16834599/0x0100E027))
 31: 0x10E9 [0x80] LOAD_WAIT(entity=Iroha (ID: 16834598/0x0100E026))
 32: 0x10EE [0x4A] Iroha (ID: 16834598/0x0100E026) looks at LocalPlayer
 33: 0x10F7 [0x4A] Tenzen (ID: 16834599/0x0100E027) looks at LocalPlayer
 34: 0x1100 [0x4A] LocalPlayer looks at Tenzen (ID: 16834599/0x0100E027)
 35: 0x1109 [0x7B] LocalPlayer stops talking
 36: 0x110E [0x7B] Tenzen (ID: 16834599/0x0100E027) stops talking
 37: 0x1113 [0x1C] WAIT(30* ticks)
 38: 0x1116 [0x27] REQ_SET(priority=0x05, entity_id=LocalPlayer, tag_num=0x20)
 39: 0x111D [0x9F] LOAD_SCHEDULED_TASK_ALT: Load scheduler "bl00" with entities [EventEntity, EventEntity], work=[219*, 0*]
 40: 0x112E [0x5B] LOAD_EXT_SCHEDULER: Load scheduler "tao0" with entities [Tenzen (ID: 16834599/0x0100E027), Tenzen (ID: 16834599/0x0100E027)], work=639*
 41: 0x113D [0x2C] CREATE_SCHEDULER_TASK: Create scheduler "corp" with entities [LocalPlayer, LocalPlayer]
 42: 0x114A [0x5B] LOAD_EXT_SCHEDULER: Load scheduler "sha0" with entities [Iroha (ID: 16834598/0x0100E026), Iroha (ID: 16834598/0x0100E026)], work=3862*
 43: 0x1159 [0x1C] WAIT(90* ticks)
 44: 0x115C [0x5C] MUSIC_CONTROL: Set Idle (Day) music to song 79*
 45: 0x1160 [0x5C] MUSIC_CONTROL: Set Idle (Night) music to song 79*
 46: 0x1164 [0x9A] WAIT_MUSIC_SERVER()
 47: 0x1165 [0x45] LOAD_SCHEDULED_TASK: Load scheduler "s102" with entities [EventEntity, EventEntity], work=[766*, 0*]
 48: 0x1176 [0x1C] WAIT(15* ticks)
 49: 0x1179 [0x45] LOAD_SCHEDULED_TASK: Load scheduler "fdi1" with entities [LocalPlayer, LocalPlayer], work=[200*, 0*]
 50: 0x118A [0x9F] LOAD_SCHEDULED_TASK_ALT: Load scheduler "open" with entities [EventEntity, EventEntity], work=[219*, 0*]
 51: 0x119B [0x1C] WAIT(65* ticks)
 52: 0x119E [0x2B] Iroha (ID: 16834598/0x0100E026) [7373*]:
    → "Master!"
 53: 0x11A5 [0x1C] WAIT(100* ticks)
 54: 0x11A8 [0x9F] LOAD_SCHEDULED_TASK_ALT: Load scheduler "clos" with entities [EventEntity, EventEntity], work=[219*, 0*]
 55: 0x11B9 [0x1C] WAIT(120* ticks)
 56: 0x11BC [0x45] LOAD_SCHEDULED_TASK: Load scheduler "fdo1" with entities [EventEntity, EventEntity], work=[200*, 0*]
 57: 0x11CD [0x55] WAIT_LOAD_SCHEDULER: Wait for scheduler "fdo1" with entities [EventEntity, EventEntity], work=200*
 58: 0x11DC [0x9F] LOAD_SCHEDULED_TASK_ALT: Load scheduler "kill" with entities [EventEntity, EventEntity], work=[219*, 0*]
 59: 0x11ED [0x45] LOAD_SCHEDULED_TASK: Load scheduler "fdi1" with entities [LocalPlayer, LocalPlayer], work=[200*, 0*]
 60: 0x11FE [0x1C] WAIT(120* ticks)
 61: 0x1201 [0x52] END_LOAD_SCHEDULER: End scheduler "s102" with entities [EventEntity, EventEntity], work=766*
 62: 0x1210 [0x45] LOAD_SCHEDULED_TASK: Load scheduler "s103" with entities [EventEntity, EventEntity], work=[766*, 0*]
 63: 0x1221 [0x27] REQ_SET(priority=0x05, entity_id=LocalPlayer, tag_num=0x21)
 64: 0x1228 [0x1C] WAIT(120* ticks)
 65: 0x122B [0x52] END_LOAD_SCHEDULER: End scheduler "s103" with entities [EventEntity, EventEntity], work=766*
 66: 0x123A [0x45] LOAD_SCHEDULED_TASK: Load scheduler "s104" with entities [EventEntity, EventEntity], work=[766*, 0*]
 67: 0x124B [0x5F] MULTI_HANDLER_COMPLEX(mode=0x05 - Load ext scheduler with flag (OpCode 0x5B mode 0, flag 1), ref=639*, entity1=Tenzen (ID: 16834599/0x0100E027), entity2=Tenzen (ID: 16834599/0x0100E027), string="oki0", extra=520*)
 68: 0x125D [0x2B] Tenzen (ID: 16834599/0x0100E027) [7374*]:
    → "Urk... Never have I witnessed such a vivid vision..."
 69: 0x1264 [0x1C] WAIT(120* ticks)
 70: 0x1267 [0x52] END_LOAD_SCHEDULER: End scheduler "s104" with entities [EventEntity, EventEntity], work=766*
 71: 0x1276 [0x45] LOAD_SCHEDULED_TASK: Load scheduler "s105" with entities [EventEntity, EventEntity], work=[766*, 0*]
 72: 0x1287 [0x1C] WAIT(20* ticks)
 73: 0x128A [0xBA] SET_ENTITY_POSITION(entity_id=LocalPlayer, pos_x=-399.871*, pos_z=347.355*, pos_y=-19.099*, direction=253.6°*)
 74: 0x1297 [0x27] REQ_SET(priority=0x05, entity_id=LocalPlayer, tag_num=0x1C)
 75: 0x129E [0x6B] STOP_AND_IDLE: Iroha (ID: 16834598/0x0100E026) stops current action and resets to idle (animation="idl0")
 76: 0x12A7 [0x23] WAIT_FOR_DIALOG_INTERACTION
 77: 0x12A8 [0x2B] Tenzen (ID: 16834599/0x0100E027) [7375*]:
    → "There were rice balls everywhere, dividing and multiplying. All around me was a sea of compacted rice, ever growing and all-consuming..."
 78: 0x12AF [0x23] WAIT_FOR_DIALOG_INTERACTION
 79: 0x12B0 [0x2A] GET_REQ_LEVEL(level=5, entity_id=LocalPlayer)
 80: 0x12B6 [0x5F] MULTI_HANDLER_COMPLEX(mode=0x07 - Wait scheduler task (OpCode 0x53))
 81: 0x12C4 [0x52] END_LOAD_SCHEDULER: End scheduler "s105" with entities [EventEntity, EventEntity], work=766*
 82: 0x12D3 [0x45] LOAD_SCHEDULED_TASK: Load scheduler "s106" with entities [EventEntity, EventEntity], work=[766*, 0*]
 83: 0x12E4 [0x27] REQ_SET(priority=0x05, entity_id=LocalPlayer, tag_num=0x1D)
 84: 0x12EB [0x79] LocalPlayer looks at Tenzen (ID: 16834599/0x0100E027) (Basic look)
 85: 0x12F5 [0x2B] Tenzen (ID: 16834599/0x0100E027) [7376*]:
    → "[Lord/Lady] <Player>, what sort of experience did you have?"
 86: 0x12FC [0x23] WAIT_FOR_DIALOG_INTERACTION
 87: 0x12FD [0x2A] GET_REQ_LEVEL(level=5, entity_id=LocalPlayer)
 88: 0x1303 [0x52] END_LOAD_SCHEDULER: End scheduler "s106" with entities [EventEntity, EventEntity], work=766*
 89: 0x1312 [0x02] IF !(LocalPlayer->Race == 5*) GOTO 0x132E
 90: 0x131A [0x45] LOAD_SCHEDULED_TASK: Load scheduler "s108" with entities [EventEntity, EventEntity], work=[766*, 0*]
 91: 0x132B [0x01] GOTO 0x135B
 92: 0x132E [0x02] IF !(LocalPlayer->Race == 6*) GOTO 0x134A
 93: 0x1336 [0x45] LOAD_SCHEDULED_TASK: Load scheduler "s108" with entities [EventEntity, EventEntity], work=[766*, 0*]
 94: 0x1347 [0x01] GOTO 0x135B
 95: 0x134A [0x45] LOAD_SCHEDULED_TASK: Load scheduler "s107" with entities [EventEntity, EventEntity], work=[766*, 0*]

SUBROUTINE_135B:
 96: 0x135B [0x24] CREATE_DIALOG(message_id=7377*, default_option=0*, option_flags=0*)
    → "What did you experience? [A story about Siren./I saw Selh'teus./A bunch of spirits./Balamor was laughing.]"
 97: 0x1362 [0x25] WAIT_DIALOG_SELECT()
 98: 0x1363 [0x02] IF !(Work_Zone[0] == 0*) GOTO 0x147E
 99: 0x136B [0x27] REQ_SET(priority=0x05, entity_id=LocalPlayer, tag_num=0x1A)
100: 0x1372 [0x1C] WAIT(60* ticks)
101: 0x1375 [0x45] LOAD_SCHEDULED_TASK: Load scheduler "fdo1" with entities [LocalPlayer, LocalPlayer], work=[200*, 0*]
102: 0x1386 [0x55] WAIT_LOAD_SCHEDULER: Wait for scheduler "fdo1" with entities [LocalPlayer, LocalPlayer], work=200*
103: 0x1395 [0x52] END_LOAD_SCHEDULER: End scheduler "s107" with entities [EventEntity, EventEntity], work=766*
104: 0x13A4 [0x52] END_LOAD_SCHEDULER: End scheduler "s108" with entities [EventEntity, EventEntity], work=766*
105: 0x13B3 [0x27] REQ_SET(priority=0x05, entity_id=LocalPlayer, tag_num=0x1B)
106: 0x13BA [0x4A] Iroha (ID: 16834598/0x0100E026) looks at Tenzen (ID: 16834599/0x0100E027)
107: 0x13C3 [0x1C] WAIT(10* ticks)
108: 0x13C6 [0x5B] LOAD_EXT_SCHEDULER: Load scheduler "sha1" with entities [Tenzen (ID: 16834599/0x0100E027), Tenzen (ID: 16834599/0x0100E027)], work=662*
109: 0x13D5 [0x1C] WAIT(30* ticks)
110: 0x13D8 [0x45] LOAD_SCHEDULED_TASK: Load scheduler "s109" with entities [EventEntity, EventEntity], work=[766*, 0*]
111: 0x13E9 [0x1C] WAIT(15* ticks)
112: 0x13EC [0x45] LOAD_SCHEDULED_TASK: Load scheduler "fdi1" with entities [LocalPlayer, LocalPlayer], work=[200*, 0*]
113: 0x13FD [0x2B] Tenzen (ID: 16834599/0x0100E027) [7378*]:
    → "Siren? Siren being able to vanquish the ambassador?"
114: 0x1404 [0x23] WAIT_FOR_DIALOG_INTERACTION
115: 0x1405 [0x52] END_LOAD_SCHEDULER: End scheduler "s109" with entities [EventEntity, EventEntity], work=766*
116: 0x1414 [0x45] LOAD_SCHEDULED_TASK: Load scheduler "s110" with entities [EventEntity, EventEntity], work=[766*, 0*]
117: 0x1425 [0x5B] LOAD_EXT_SCHEDULER: Load scheduler "tlb0" with entities [Tenzen (ID: 16834599/0x0100E027), Tenzen (ID: 16834599/0x0100E027)], work=425*
118: 0x1434 [0x2B] Tenzen (ID: 16834599/0x0100E027) [7379*]:
    → "Never have I exchanged any words with Siren, but Phoenix often spoke to me about her, saying that she was an entity with dominion over nature."
119: 0x143B [0x23] WAIT_FOR_DIALOG_INTERACTION
120: 0x143C [0x2B] Tenzen (ID: 16834599/0x0100E027) [7380*]:
    → "Yet no matter how grand and vast the power of nature is, she was manipulated by the ambassador once. Who is to say it cannot happen again?"
121: 0x1443 [0x23] WAIT_FOR_DIALOG_INTERACTION
122: 0x1444 [0x2B] Tenzen (ID: 16834599/0x0100E027) [7381*]:
    → "And with all we have experienced, it is clear that the "ambassador" is not just one entity--there are three we have crossed paths with thus far. Who knows what the limit is?"
123: 0x144B [0x23] WAIT_FOR_DIALOG_INTERACTION
124: 0x144C [0x5B] LOAD_EXT_SCHEDULER: Load scheduler "tlb1" with entities [Tenzen (ID: 16834599/0x0100E027), Tenzen (ID: 16834599/0x0100E027)], work=425*
125: 0x145B [0x52] END_LOAD_SCHEDULER: End scheduler "s110" with entities [EventEntity, EventEntity], work=766*
