# 0x7FFFFFF0 - Zone Events

## Common Data

| Field            | Value                         |
|------------------|-------------------------------|
| Zone             | Hall of Transference (ID: 14) |
| Block Size       | 4472 bytes                    |
| Total Events     | 40                            |
| References Count | 109                           |

## List of Events

| Event ID                   | Entrypoint   |   Size |   Instructions |
|----------------------------|--------------|--------|----------------|
| [65535](#event-65535)      | 0x0000       |      1 |              1 |
| [65534](#event-65534)      | 0x0001       |      1 |              1 |
| [65535.1](#event-655351)   | 0x0002       |      6 |              2 |
| [65535.2](#event-655352)   | 0x0008       |      6 |              2 |
| [65535.3](#event-655353)   | 0x000E       |      6 |              2 |
| [65535.4](#event-655354)   | 0x0014       |      6 |              2 |
| [65535.5](#event-655355)   | 0x001A       |      6 |              2 |
| [65535.6](#event-655356)   | 0x0020       |     14 |              4 |
| [65535.7](#event-655357)   | 0x002E       |     24 |              6 |
| [70](#event-70)            | 0x0046       |     10 |              2 |
| [71](#event-71)            | 0x0050       |     10 |              2 |
| [100](#event-100)          | 0x005A       |     16 |              5 |
| [101](#event-101)          | 0x006A       |     16 |              5 |
| [102](#event-102)          | 0x007A       |     16 |              5 |
| [103](#event-103)          | 0x008A       |     53 |             15 |
| [104](#event-104)          | 0x00BF       |     53 |             15 |
| [105](#event-105)          | 0x00F4       |     53 |             15 |
| [161](#event-161)          | 0x0129       |     86 |             18 |
| [162](#event-162)          | 0x017F       |     45 |             15 |
| [169](#event-169)          | 0x01AC       |    159 |             27 |
| [170](#event-170)          | 0x024B       |    159 |             27 |
| [171](#event-171)          | 0x02EA       |    159 |             27 |
| [106](#event-106)          | 0x0389       |     41 |              5 |
| [107](#event-107)          | 0x03B2       |     38 |              4 |
| [108](#event-108)          | 0x03D8       |     50 |              8 |
| [155](#event-155)          | 0x040A       |   2275 |            272 |
| [65535.8](#event-655358)   | 0x0CED       |     24 |              4 |
| [65535.9](#event-655359)   | 0x0D05       |     24 |              4 |
| [65535.10](#event-6553510) | 0x0D1D       |     37 |              5 |
| [65535.11](#event-6553511) | 0x0D42       |    185 |             37 |
| [65535.12](#event-6553512) | 0x0DFB       |     14 |              4 |
| [65535.13](#event-6553513) | 0x0E09       |     14 |              4 |
| [65535.14](#event-6553514) | 0x0E17       |     10 |              2 |
| [65535.15](#event-6553515) | 0x0E21       |     10 |              2 |
| [65535.16](#event-6553516) | 0x0E2B       |     38 |              5 |
| [65535.17](#event-6553517) | 0x0E51       |     38 |              5 |
| [65535.18](#event-6553518) | 0x0E77       |     38 |              5 |
| [65535.19](#event-6553519) | 0x0E9D       |     37 |              5 |
| [65535.20](#event-6553520) | 0x0EC2       |     37 |              5 |
| [65535.21](#event-6553521) | 0x0EE7       |     42 |              6 |

## DAT References (imed_data)

|   Index | Hex Value   |   Dec Value |
|---------|-------------|-------------|
|       0 | 0x000D      |          13 |
|       1 | 0xFFFC46E0  |  4294723296 |
|       2 | 0x46C6C     |      289900 |
|       3 | 0xFFFFFA0A  |  4294965770 |
|       4 | 0xFFFC6628  |  4294731304 |
|       5 | 0x44647     |      280135 |
|       6 | 0xFFFFF079  |  4294963321 |
|       7 | 0x0003      |           3 |
|       8 | 0x0028      |          40 |
|       9 | 0xFFFC9962  |  4294744418 |
|      10 | 0x44446     |      279622 |
|      11 | 0xFFFFE6C5  |  4294960837 |
|      12 | 0xFFFC5A21  |  4294728225 |
|      13 | 0x46CD3     |      290003 |
|      14 | 0xFFFFF859  |  4294965337 |
|      15 | 0x0FEF      |        4079 |
|      16 | 0xFFFCAA3E  |  4294748734 |
|      17 | 0x4459E     |      279966 |
|      18 | 0x0FF9      |        4089 |
|      19 | 0xFFFBEDF7  |  4294700535 |
|      20 | 0x445FB     |      280059 |
|      21 | 0xFFFFFD85  |  4294966661 |
|      22 | 0x0FEC      |        4076 |
|      23 | 0xFFFBEC46  |  4294700102 |
|      24 | 0xFFFBBA2D  |  4294687277 |
|      25 | 0xFFFF6145  |  4294926661 |
|      26 | 0x0000      |           0 |
|      27 | 0x44602     |      280066 |
|      28 | 0xFFFEF9E8  |  4294900200 |
|      29 | 0xFFFEC505  |  4294886661 |
|      30 | 0x0C11      |        3089 |
|      31 | 0x1C5E      |        7262 |
|      32 | 0x0001      |           1 |
|      33 | 0x00B4      |         180 |
|      34 | 0x00C8      |         200 |
|      35 | 0x003C      |          60 |
|      36 | 0x1C66      |        7270 |
|      37 | 0x1C67      |        7271 |
|      38 | 0x01DE      |         478 |
|      39 | 0x1C68      |        7272 |
|      40 | 0x01FB      |         507 |
|      41 | 0x0078      |         120 |
|      42 | 0x00C9      |         201 |
|      43 | 0x001E      |          30 |
|      44 | 0x008C      |         140 |
|      45 | 0x0002      |           2 |
|      46 | 0x00AA      |         170 |
|      47 | 0x0013      |          19 |
|      48 | 0x445C0     |      280000 |
|      49 | 0xFFFF1954  |  4294908244 |
|      50 | 0x0BF7      |        3063 |
|      51 | 0x0049      |          73 |
|      52 | 0xFFFF32EC  |  4294914796 |
|      53 | 0x00E7      |         231 |
|      54 | 0x000A      |          10 |
|      55 | 0x0005      |           5 |
|      56 | 0x006C      |         108 |
|      57 | 0x1C69      |        7273 |
|      58 | 0x1C6A      |        7274 |
|      59 | 0x0014      |          20 |
|      60 | 0x0008      |           8 |
|      61 | 0x1C6B      |        7275 |
|      62 | 0x000F      |          15 |
|      63 | 0x1C6C      |        7276 |
|      64 | 0x1C6D      |        7277 |
|      65 | 0x1C6E      |        7278 |
|      66 | 0x0032      |          50 |
|      67 | 0x1C6F      |        7279 |
|      68 | 0x1C70      |        7280 |
|      69 | 0x005A      |          90 |
|      70 | 0x1C71      |        7281 |
|      71 | 0x0006      |           6 |
|      72 | 0x1C72      |        7282 |
|      73 | 0x1C73      |        7283 |
|      74 | 0x1C74      |        7284 |
|      75 | 0x449A8     |      281000 |
|      76 | 0xFFFF3368  |  4294914920 |
|      77 | 0x0384      |         900 |
|      78 | 0x1C75      |        7285 |
|      79 | 0x1C76      |        7286 |
|      80 | 0x1C77      |        7287 |
|      81 | 0x1C78      |        7288 |
|      82 | 0x1C79      |        7289 |
|      83 | 0x1C7A      |        7290 |
|      84 | 0x1C7B      |        7291 |
|      85 | 0x1C7C      |        7292 |
|      86 | 0x00D0      |         208 |
|      87 | 0x1C7D      |        7293 |
|      88 | 0x00DE      |         222 |
|      89 | 0x1C7E      |        7294 |
|      90 | 0x00A0      |         160 |
|      91 | 0x004F      |          79 |
|      92 | 0x012C      |         300 |
|      93 | 0x0009      |           9 |
|      94 | 0x0046      |          70 |
|      95 | 0x00D2      |         210 |
|      96 | 0xFFF9E538  |  4294567224 |
|      97 | 0x5502F     |      348207 |
|      98 | 0xFFFFB565  |  4294948197 |
|      99 | 0xFFF9E574  |  4294567284 |
|     100 | 0x51FB8     |      335800 |
|     101 | 0x0080      |         128 |
|     102 | 0x0007      |           7 |
|     103 | 0x0091      |         145 |
|     104 | 0x004C      |          76 |
|     105 | 0x0018      |          24 |
|     106 | 0x0020      |          32 |
|     107 | 0x0030      |          48 |
|     108 | 0x0040      |          64 |

## String References

- **7262**: Use the device? [Yes./No.]
- **7270**: You have no registered data.
- **7271**: Register your data in order to use the device.
- **7272**: The $0 shatters!

## Events

### Event 65535

#### Metadata

| Field        | Value   |
|--------------|---------|
| Entrypoint   | 0x0000  |
| Data Size    | 1 bytes |
| Instructions | 1       |

```
      00 01 02 03 04 05 06 07  08 09 0A 0B 0C 0D 0E 0F
      -- -- -- -- -- -- -- --  -- -- -- -- -- -- -- --
0000: 00                                                .               
```

#### Opcodes

```
  0: 0x0000 [0x00] END_REQSTACK()
```

### Event 65534

#### Metadata

| Field        | Value   |
|--------------|---------|
| Entrypoint   | 0x0001  |
| Data Size    | 1 bytes |
| Instructions | 1       |

```
      00 01 02 03 04 05 06 07  08 09 0A 0B 0C 0D 0E 0F
      -- -- -- -- -- -- -- --  -- -- -- -- -- -- -- --
0000:    00                                              .              
```

#### Opcodes

```
  0: 0x0001 [0x00] END_REQSTACK()
```

### Event 65535.1

#### Metadata

| Field        | Value   |
|--------------|---------|
| Entrypoint   | 0x0002  |
| Data Size    | 6 bytes |
| Instructions | 2       |

```
      00 01 02 03 04 05 06 07  08 09 0A 0B 0C 0D 0E 0F
      -- -- -- -- -- -- -- --  -- -- -- -- -- -- -- --
0000:       03 02 10 0B 7F 00                             ......        
```

#### Opcodes

```
  0: 0x0002 [0x03] Work_Zone[2] = (Entity->Render.Flags01 >> 25) & 1
  1: 0x0007 [0x00] END_REQSTACK()
```

### Event 65535.2

#### Metadata

| Field        | Value   |
|--------------|---------|
| Entrypoint   | 0x0008  |
| Data Size    | 6 bytes |
| Instructions | 2       |

```
      00 01 02 03 04 05 06 07  08 09 0A 0B 0C 0D 0E 0F
      -- -- -- -- -- -- -- --  -- -- -- -- -- -- -- --
0000:                          03 02 10 07 7F 00                ......  
```

#### Opcodes

```
  0: 0x0008 [0x03] Work_Zone[2] = Entity->Race
  1: 0x000D [0x00] END_REQSTACK()
```

### Event 65535.3

#### Metadata

| Field        | Value   |
|--------------|---------|
| Entrypoint   | 0x000E  |
| Data Size    | 6 bytes |
| Instructions | 2       |

```
      00 01 02 03 04 05 06 07  08 09 0A 0B 0C 0D 0E 0F
      -- -- -- -- -- -- -- --  -- -- -- -- -- -- -- --
0000:                                            03 09                ..
0010: 10 07 7F 00                                       ....            
```

#### Opcodes

```
  0: 0x000E [0x03] Work_Zone[9] = Entity->Race
  1: 0x0013 [0x00] END_REQSTACK()
```

### Event 65535.4

#### Metadata

| Field        | Value   |
|--------------|---------|
| Entrypoint   | 0x0014  |
| Data Size    | 6 bytes |
| Instructions | 2       |

```
      00 01 02 03 04 05 06 07  08 09 0A 0B 0C 0D 0E 0F
      -- -- -- -- -- -- -- --  -- -- -- -- -- -- -- --
0010:             03 02 10 06  7F 00                        ......      
```

#### Opcodes

```
  0: 0x0014 [0x03] Work_Zone[2] = Entity->JobId (if LocalPlayer)
  1: 0x0019 [0x00] END_REQSTACK()
```

### Event 65535.5

#### Metadata

| Field        | Value   |
|--------------|---------|
| Entrypoint   | 0x001A  |
| Data Size    | 6 bytes |
| Instructions | 2       |

```
      00 01 02 03 04 05 06 07  08 09 0A 0B 0C 0D 0E 0F
      -- -- -- -- -- -- -- --  -- -- -- -- -- -- -- --
0010:                                03 08 10 07 7F 00            ......
```

#### Opcodes

```
  0: 0x001A [0x03] Work_Zone[8] = Entity->Race
  1: 0x001F [0x00] END_REQSTACK()
```

### Event 65535.6

#### Metadata

| Field        | Value    |
|--------------|----------|
| Entrypoint   | 0x0020   |
| Data Size    | 14 bytes |
| Instructions | 4        |

```
      00 01 02 03 04 05 06 07  08 09 0A 0B 0C 0D 0E 0F
      -- -- -- -- -- -- -- --  -- -- -- -- -- -- -- --
0020: 32 00 80 1F 00 01 80 02  80 03 80 1F 01 00        2.............  
```

#### Opcodes

```
  0: 0x0020 [0x32] ExtData[1]->MainSpeed = 13* * 0.1
  1: 0x0023 [0x1F] MOVE_ENTITY: EventEntity moves to X=-244.000*, Z=289.900*, Y=-1.526*
  2: 0x002B [0x1F] MOVE_ENTITY: Update entity position (mode=1)
  3: 0x002D [0x00] END_REQSTACK()
```

### Event 65535.7

#### Metadata

| Field        | Value    |
|--------------|----------|
| Entrypoint   | 0x002E   |
| Data Size    | 24 bytes |
| Instructions | 6        |

```
      00 01 02 03 04 05 06 07  08 09 0A 0B 0C 0D 0E 0F
      -- -- -- -- -- -- -- --  -- -- -- -- -- -- -- --
0020:                                            37 04                7.
0030: 80 05 80 06 80 07 80 32  08 80 1F 00 09 80 0A 80  .......2........
0040: 0B 80 1F 01 6F 00                                 ....o.          
```

#### Opcodes

```
  0: 0x002E [0x37] UPDATE_EVENT_POSITION_AND_DIR: x=-235.992*, z=280.135*, y=-3.975*, direction=0.3°*
  1: 0x0037 [0x32] ExtData[1]->MainSpeed = 40* * 0.1
  2: 0x003A [0x1F] MOVE_ENTITY: EventEntity moves to X=-222.878*, Z=279.622*, Y=-6.459*
  3: 0x0042 [0x1F] MOVE_ENTITY: Update entity position (mode=1)
  4: 0x0044 [0x6F] WAIT_FRAME_DELAY: Yield until WaitTime reaches zero
  5: 0x0045 [0x00] END_REQSTACK()
```

### Event 70

#### Metadata

| Field        | Value    |
|--------------|----------|
| Entrypoint   | 0x0046   |
| Data Size    | 10 bytes |
| Instructions | 2        |

```
      00 01 02 03 04 05 06 07  08 09 0A 0B 0C 0D 0E 0F
      -- -- -- -- -- -- -- --  -- -- -- -- -- -- -- --
0040:                   37 0C  80 0D 80 0E 80 0F 80 00        7.........
```

#### Opcodes

```
  0: 0x0046 [0x37] UPDATE_EVENT_POSITION_AND_DIR: x=-239.071*, z=290.003*, y=-1.959*, direction=358.5°*
  1: 0x004F [0x00] END_REQSTACK()
```

### Event 71

#### Metadata

| Field        | Value    |
|--------------|----------|
| Entrypoint   | 0x0050   |
| Data Size    | 10 bytes |
| Instructions | 2        |

```
      00 01 02 03 04 05 06 07  08 09 0A 0B 0C 0D 0E 0F
      -- -- -- -- -- -- -- --  -- -- -- -- -- -- -- --
0050: 37 10 80 11 80 0B 80 12  80 00                    7.........      
```

#### Opcodes

```
  0: 0x0050 [0x37] UPDATE_EVENT_POSITION_AND_DIR: x=-218.562*, z=279.966*, y=-6.459*, direction=359.4°*
  1: 0x0059 [0x00] END_REQSTACK()
```

### Event 100

#### Metadata

| Field        | Value    |
|--------------|----------|
| Entrypoint   | 0x005A   |
| Data Size    | 16 bytes |
| Instructions | 5        |

```
      00 01 02 03 04 05 06 07  08 09 0A 0B 0C 0D 0E 0F
      -- -- -- -- -- -- -- --  -- -- -- -- -- -- -- --
0050:                                20 01 47 00 13 80             .G...
0060: 14 80 15 80 16 80 47 01  21 00                    ......G.!.      
```

#### Opcodes

```
  0: 0x005A [0x20] SET_CLI_EVENT_UC_FLAG: Lock player control
  1: 0x005C [0x47] UPDATE_PLAYER_POS(-266.761*, 280.059*, -0.635*, yaw=358.2°*)
  2: 0x0066 [0x47] WAIT_PLAYER_POS_UPDATE
  3: 0x0068 [0x21] END_EVENT
  4: 0x0069 [0x00] END_REQSTACK()
```

### Event 101

#### Metadata

| Field        | Value    |
|--------------|----------|
| Entrypoint   | 0x006A   |
| Data Size    | 16 bytes |
| Instructions | 5        |

```
      00 01 02 03 04 05 06 07  08 09 0A 0B 0C 0D 0E 0F
      -- -- -- -- -- -- -- --  -- -- -- -- -- -- -- --
0060:                                20 01 47 00 17 80             .G...
0070: 18 80 19 80 1A 80 47 01  21 00                    ......G.!.      
```

#### Opcodes

```
  0: 0x006A [0x20] SET_CLI_EVENT_UC_FLAG: Lock player control
  1: 0x006C [0x47] UPDATE_PLAYER_POS(-267.194*, -280.019*, -40.635*, yaw=0.0°*)
  2: 0x0076 [0x47] WAIT_PLAYER_POS_UPDATE
  3: 0x0078 [0x21] END_EVENT
  4: 0x0079 [0x00] END_REQSTACK()
```

### Event 102

#### Metadata

| Field        | Value    |
|--------------|----------|
| Entrypoint   | 0x007A   |
| Data Size    | 16 bytes |
| Instructions | 5        |

```
      00 01 02 03 04 05 06 07  08 09 0A 0B 0C 0D 0E 0F
      -- -- -- -- -- -- -- --  -- -- -- -- -- -- -- --
0070:                                20 01 47 00 1B 80             .G...
0080: 1C 80 1D 80 1E 80 47 01  21 00                    ......G.!.      
```

#### Opcodes

```
  0: 0x007A [0x20] SET_CLI_EVENT_UC_FLAG: Lock player control
  1: 0x007C [0x47] UPDATE_PLAYER_POS(280.066*, -67.096*, -80.635*, yaw=271.5°*)
  2: 0x0086 [0x47] WAIT_PLAYER_POS_UPDATE
  3: 0x0088 [0x21] END_EVENT
  4: 0x0089 [0x00] END_REQSTACK()
```

### Event 103

#### Metadata

| Field        | Value    |
|--------------|----------|
| Entrypoint   | 0x008A   |
| Data Size    | 53 bytes |
| Instructions | 15       |

```
      00 01 02 03 04 05 06 07  08 09 0A 0B 0C 0D 0E 0F
      -- -- -- -- -- -- -- --  -- -- -- -- -- -- -- --
0080:                                20 01 24 1F 80 20             .$.. 
0090: 80 1A 80 25 02 00 10 1A  80 00 B0 00 42 43 00 43  ...%........BC.C
00A0: 01 03 01 10 20 80 29 01  F0 FF FF 7F 16 01 BB 00  .... .).........
00B0: 02 00 10 20 80 00 BB 00  01 BB 00 20 00 21 00     ... ....... .!. 
```

#### Opcodes

```
  0: 0x008A [0x20] SET_CLI_EVENT_UC_FLAG: Lock player control
  1: 0x008C [0x24] CREATE_DIALOG(message_id=7262*, default_option=1*, option_flags=0*)
    → "Use the device? [Yes./No.]"
  2: 0x0093 [0x25] WAIT_DIALOG_SELECT()
  3: 0x0094 [0x02] IF !(Work_Zone[0] == 0*) GOTO 0x00B0
  4: 0x009C [0x42] SET_CLI_EVENT_CANCEL_DATA()
  5: 0x009D [0x43] SEND_EVENT_UPDATE: Send pending tag to server (packet 0x005B)
  6: 0x009F [0x43] SEND_EVENT_UPDATE: Check pending flag (skip if not pending)
  7: 0x00A1 [0x03] Work_Zone[1] = 1*
  8: 0x00A6 [0x29] REQ_SET_WAIT(priority=0x01, entity_id=LocalPlayer, tag_num=0x16)
  9: 0x00AD [0x01] GOTO 0x00BB
 10: 0x00B0 [0x02] IF !(Work_Zone[0] == 1*) GOTO 0x00BB
 11: 0x00B8 [0x01] GOTO 0x00BB

SUBROUTINE_00BB:
 12: 0x00BB [0x20] SET_CLI_EVENT_UC_FLAG: Unlock player control
 13: 0x00BD [0x21] END_EVENT
 14: 0x00BE [0x00] END_REQSTACK()
```

### Event 104

#### Metadata

| Field        | Value    |
|--------------|----------|
| Entrypoint   | 0x00BF   |
| Data Size    | 53 bytes |
| Instructions | 15       |

```
      00 01 02 03 04 05 06 07  08 09 0A 0B 0C 0D 0E 0F
      -- -- -- -- -- -- -- --  -- -- -- -- -- -- -- --
00B0:                                               20                  
00C0: 01 24 1F 80 20 80 1A 80  25 02 00 10 1A 80 00 E5  .$.. ...%.......
00D0: 00 42 43 00 43 01 03 01  10 20 80 29 01 F0 FF FF  .BC.C.... .)....
00E0: 7F 16 01 F0 00 02 00 10  20 80 00 F0 00 01 F0 00  ........ .......
00F0: 20 00 21 00                                        .!.            
```

#### Opcodes

```
  0: 0x00BF [0x20] SET_CLI_EVENT_UC_FLAG: Lock player control
  1: 0x00C1 [0x24] CREATE_DIALOG(message_id=7262*, default_option=1*, option_flags=0*)
    → "Use the device? [Yes./No.]"
  2: 0x00C8 [0x25] WAIT_DIALOG_SELECT()
  3: 0x00C9 [0x02] IF !(Work_Zone[0] == 0*) GOTO 0x00E5
  4: 0x00D1 [0x42] SET_CLI_EVENT_CANCEL_DATA()
  5: 0x00D2 [0x43] SEND_EVENT_UPDATE: Send pending tag to server (packet 0x005B)
  6: 0x00D4 [0x43] SEND_EVENT_UPDATE: Check pending flag (skip if not pending)
  7: 0x00D6 [0x03] Work_Zone[1] = 1*
  8: 0x00DB [0x29] REQ_SET_WAIT(priority=0x01, entity_id=LocalPlayer, tag_num=0x16)
  9: 0x00E2 [0x01] GOTO 0x00F0
 10: 0x00E5 [0x02] IF !(Work_Zone[0] == 1*) GOTO 0x00F0
 11: 0x00ED [0x01] GOTO 0x00F0

SUBROUTINE_00F0:
 12: 0x00F0 [0x20] SET_CLI_EVENT_UC_FLAG: Unlock player control
 13: 0x00F2 [0x21] END_EVENT
 14: 0x00F3 [0x00] END_REQSTACK()
```

### Event 105

#### Metadata

| Field        | Value    |
|--------------|----------|
| Entrypoint   | 0x00F4   |
| Data Size    | 53 bytes |
| Instructions | 15       |

```
      00 01 02 03 04 05 06 07  08 09 0A 0B 0C 0D 0E 0F
      -- -- -- -- -- -- -- --  -- -- -- -- -- -- -- --
00F0:             20 01 24 1F  80 20 80 1A 80 25 02 00       .$.. ...%..
0100: 10 1A 80 00 1A 01 42 43  00 43 01 03 01 10 20 80  ......BC.C.... .
0110: 29 01 F0 FF FF 7F 16 01  25 01 02 00 10 20 80 00  ).......%.... ..
0120: 25 01 01 25 01 20 00 21  00                       %..%. .!.       
```

#### Opcodes

```
  0: 0x00F4 [0x20] SET_CLI_EVENT_UC_FLAG: Lock player control
  1: 0x00F6 [0x24] CREATE_DIALOG(message_id=7262*, default_option=1*, option_flags=0*)
    → "Use the device? [Yes./No.]"
  2: 0x00FD [0x25] WAIT_DIALOG_SELECT()
  3: 0x00FE [0x02] IF !(Work_Zone[0] == 0*) GOTO 0x011A
  4: 0x0106 [0x42] SET_CLI_EVENT_CANCEL_DATA()
  5: 0x0107 [0x43] SEND_EVENT_UPDATE: Send pending tag to server (packet 0x005B)
  6: 0x0109 [0x43] SEND_EVENT_UPDATE: Check pending flag (skip if not pending)
  7: 0x010B [0x03] Work_Zone[1] = 1*
  8: 0x0110 [0x29] REQ_SET_WAIT(priority=0x01, entity_id=LocalPlayer, tag_num=0x16)
  9: 0x0117 [0x01] GOTO 0x0125
 10: 0x011A [0x02] IF !(Work_Zone[0] == 1*) GOTO 0x0125
 11: 0x0122 [0x01] GOTO 0x0125

SUBROUTINE_0125:
 12: 0x0125 [0x20] SET_CLI_EVENT_UC_FLAG: Unlock player control
 13: 0x0127 [0x21] END_EVENT
 14: 0x0128 [0x00] END_REQSTACK()
```

### Event 161

#### Metadata

| Field        | Value    |
|--------------|----------|
| Entrypoint   | 0x0129   |
| Data Size    | 86 bytes |
| Instructions | 18       |

```
      00 01 02 03 04 05 06 07  08 09 0A 0B 0C 0D 0E 0F
      -- -- -- -- -- -- -- --  -- -- -- -- -- -- -- --
0120:                             20 01 24 1F 80 20 80            .$.. .
0130: 1A 80 25 02 00 10 1A 80  00 70 01 42 43 00 43 01  ..%......p.BC.C.
0140: 62 20 80 F0 FF FF 7F F0  FF FF 7F 6D 61 69 6E 1A  b .........main.
0150: 80 1C 21 80 45 22 80 F0  FF FF 7F F0 FF FF 7F 66  ..!.E".........f
0160: 64 6F 31 1A 80 1C 23 80  03 01 10 20 80 01 7B 01  do1...#.... ..{.
0170: 02 00 10 20 80 00 7B 01  01 7B 01 20 00 21 00     ... ..{..{. .!. 
```

#### Opcodes

```
  0: 0x0129 [0x20] SET_CLI_EVENT_UC_FLAG: Lock player control
  1: 0x012B [0x24] CREATE_DIALOG(message_id=7262*, default_option=1*, option_flags=0*)
    → "Use the device? [Yes./No.]"
  2: 0x0132 [0x25] WAIT_DIALOG_SELECT()
  3: 0x0133 [0x02] IF !(Work_Zone[0] == 0*) GOTO 0x0170
  4: 0x013B [0x42] SET_CLI_EVENT_CANCEL_DATA()
  5: 0x013C [0x43] SEND_EVENT_UPDATE: Send pending tag to server (packet 0x005B)
  6: 0x013E [0x43] SEND_EVENT_UPDATE: Check pending flag (skip if not pending)
  7: 0x0140 [0x62] LOAD_EVENT_SCHEDULER: Load scheduler "main" with entities [LocalPlayer, LocalPlayer], work=[1*, 0*]
  8: 0x0151 [0x1C] WAIT(180* ticks)
  9: 0x0154 [0x45] LOAD_SCHEDULED_TASK: Load scheduler "fdo1" with entities [LocalPlayer, LocalPlayer], work=[200*, 0*]
 10: 0x0165 [0x1C] WAIT(60* ticks)
 11: 0x0168 [0x03] Work_Zone[1] = 1*
 12: 0x016D [0x01] GOTO 0x017B
 13: 0x0170 [0x02] IF !(Work_Zone[0] == 1*) GOTO 0x017B
 14: 0x0178 [0x01] GOTO 0x017B

SUBROUTINE_017B:
 15: 0x017B [0x20] SET_CLI_EVENT_UC_FLAG: Unlock player control
 16: 0x017D [0x21] END_EVENT
 17: 0x017E [0x00] END_REQSTACK()
```

### Event 162

#### Metadata

| Field        | Value    |
|--------------|----------|
| Entrypoint   | 0x017F   |
| Data Size    | 45 bytes |
| Instructions | 15       |

```
      00 01 02 03 04 05 06 07  08 09 0A 0B 0C 0D 0E 0F
      -- -- -- -- -- -- -- --  -- -- -- -- -- -- -- --
0170:                                               20                  
0180: 01 24 1F 80 20 80 1A 80  25 02 00 10 1A 80 00 9D  .$.. ...%.......
0190: 01 42 48 24 80 23 48 25  80 23 01 A8 01 02 00 10  .BH$.#H%.#......
01A0: 20 80 00 A8 01 01 A8 01  20 00 21 00               ....... .!.    
```

#### Opcodes

```
  0: 0x017F [0x20] SET_CLI_EVENT_UC_FLAG: Lock player control
  1: 0x0181 [0x24] CREATE_DIALOG(message_id=7262*, default_option=1*, option_flags=0*)
    → "Use the device? [Yes./No.]"
  2: 0x0188 [0x25] WAIT_DIALOG_SELECT()
  3: 0x0189 [0x02] IF !(Work_Zone[0] == 0*) GOTO 0x019D
  4: 0x0191 [0x42] SET_CLI_EVENT_CANCEL_DATA()
  5: 0x0192 [0x48] [System] [7270*]:
    → "You have no registered data."
  6: 0x0195 [0x23] WAIT_FOR_DIALOG_INTERACTION
  7: 0x0196 [0x48] [System] [7271*]:
    → "Register your data in order to use the device."
  8: 0x0199 [0x23] WAIT_FOR_DIALOG_INTERACTION
  9: 0x019A [0x01] GOTO 0x01A8
 10: 0x019D [0x02] IF !(Work_Zone[0] == 1*) GOTO 0x01A8
 11: 0x01A5 [0x01] GOTO 0x01A8

SUBROUTINE_01A8:
 12: 0x01A8 [0x20] SET_CLI_EVENT_UC_FLAG: Unlock player control
 13: 0x01AA [0x21] END_EVENT
 14: 0x01AB [0x00] END_REQSTACK()
```

### Event 169

#### Metadata

| Field        | Value     |
|--------------|-----------|
| Entrypoint   | 0x01AC    |
| Data Size    | 159 bytes |
| Instructions | 27        |

```
      00 01 02 03 04 05 06 07  08 09 0A 0B 0C 0D 0E 0F
      -- -- -- -- -- -- -- --  -- -- -- -- -- -- -- --
01A0:                                      20 01 24 1F               .$.
01B0: 80 20 80 1A 80 25 02 00  10 1A 80 00 3C 02 42 43  . ...%......<.BC
01C0: 00 43 01 03 02 10 26 80  48 27 80 73 28 80 F0 FF  .C....&.H'.s(...
01D0: FF 7F F0 FF FF 7F 03 01  10 20 80 43 00 43 01 62  ......... .C.C.b
01E0: 20 80 F0 FF FF 7F F0 FF  FF 7F 6D 61 69 6E 1A 80   .........main..
01F0: 1C 29 80 45 2A 80 F8 FF  FF 7F F8 FF FF 7F 77 68  .).E*.........wh
0200: 6F 31 1A 80 55 2A 80 F8  FF FF 7F F8 FF FF 7F 77  o1..U*.........w
0210: 68 6F 31 45 22 80 F8 FF  FF 7F F8 FF FF 7F 66 64  ho1E".........fd
0220: 6F 30 1A 80 1C 2B 80 30  45 2A 80 F8 FF FF 7F F8  o0...+.0E*......
0230: FF FF 7F 77 68 69 31 1A  80 01 47 02 02 00 10 20  ...whi1...G.... 
0240: 80 00 47 02 01 47 02 20  00 21 00                 ..G..G. .!.     
```

#### Opcodes

```
  0: 0x01AC [0x20] SET_CLI_EVENT_UC_FLAG: Lock player control
  1: 0x01AE [0x24] CREATE_DIALOG(message_id=7262*, default_option=1*, option_flags=0*)
    → "Use the device? [Yes./No.]"
  2: 0x01B5 [0x25] WAIT_DIALOG_SELECT()
  3: 0x01B6 [0x02] IF !(Work_Zone[0] == 0*) GOTO 0x023C
  4: 0x01BE [0x42] SET_CLI_EVENT_CANCEL_DATA()
  5: 0x01BF [0x43] SEND_EVENT_UPDATE: Send pending tag to server (packet 0x005B)
  6: 0x01C1 [0x43] SEND_EVENT_UPDATE: Check pending flag (skip if not pending)
  7: 0x01C3 [0x03] Work_Zone[2] = 478*
  8: 0x01C8 [0x48] [System] [7272*]:
    → "The $0 shatters!"
  9: 0x01CB [0x73] LocalPlayer casts magic 507* on LocalPlayer
 10: 0x01D6 [0x03] Work_Zone[1] = 1*
 11: 0x01DB [0x43] SEND_EVENT_UPDATE: Send pending tag to server (packet 0x005B)
 12: 0x01DD [0x43] SEND_EVENT_UPDATE: Check pending flag (skip if not pending)
 13: 0x01DF [0x62] LOAD_EVENT_SCHEDULER: Load scheduler "main" with entities [LocalPlayer, LocalPlayer], work=[1*, 0*]
 14: 0x01F0 [0x1C] WAIT(120* ticks)
 15: 0x01F3 [0x45] LOAD_SCHEDULED_TASK: Load scheduler "who1" with entities [EventEntity, EventEntity], work=[201*, 0*]
 16: 0x0204 [0x55] WAIT_LOAD_SCHEDULER: Wait for scheduler "who1" with entities [EventEntity, EventEntity], work=201*
 17: 0x0213 [0x45] LOAD_SCHEDULED_TASK: Load scheduler "fdo0" with entities [EventEntity, EventEntity], work=[200*, 0*]
 18: 0x0224 [0x1C] WAIT(30* ticks)
 19: 0x0227 [0x30] SET_UCOFF_CONTINUE_ZERO()
 20: 0x0228 [0x45] LOAD_SCHEDULED_TASK: Load scheduler "whi1" with entities [EventEntity, EventEntity], work=[201*, 0*]
 21: 0x0239 [0x01] GOTO 0x0247
 22: 0x023C [0x02] IF !(Work_Zone[0] == 1*) GOTO 0x0247
 23: 0x0244 [0x01] GOTO 0x0247

SUBROUTINE_0247:
 24: 0x0247 [0x20] SET_CLI_EVENT_UC_FLAG: Unlock player control
 25: 0x0249 [0x21] END_EVENT
 26: 0x024A [0x00] END_REQSTACK()
```

### Event 170

#### Metadata

| Field        | Value     |
|--------------|-----------|
| Entrypoint   | 0x024B    |
| Data Size    | 159 bytes |
| Instructions | 27        |

```
      00 01 02 03 04 05 06 07  08 09 0A 0B 0C 0D 0E 0F
      -- -- -- -- -- -- -- --  -- -- -- -- -- -- -- --
0240:                                   20 01 24 1F 80              .$..
0250: 20 80 1A 80 25 02 00 10  1A 80 00 DB 02 42 43 00   ...%........BC.
0260: 43 01 03 02 10 26 80 48  27 80 73 28 80 F0 FF FF  C....&.H'.s(....
0270: 7F F0 FF FF 7F 03 01 10  20 80 43 00 43 01 62 20  ........ .C.C.b 
0280: 80 F0 FF FF 7F F0 FF FF  7F 6D 61 69 6E 1A 80 1C  .........main...
0290: 29 80 45 2A 80 F8 FF FF  7F F8 FF FF 7F 77 68 6F  ).E*.........who
02A0: 31 1A 80 55 2A 80 F8 FF  FF 7F F8 FF FF 7F 77 68  1..U*.........wh
02B0: 6F 31 45 22 80 F8 FF FF  7F F8 FF FF 7F 66 64 6F  o1E".........fdo
02C0: 30 1A 80 1C 2B 80 30 45  2A 80 F8 FF FF 7F F8 FF  0...+.0E*.......
02D0: FF 7F 77 68 69 31 1A 80  01 E6 02 02 00 10 20 80  ..whi1........ .
02E0: 00 E6 02 01 E6 02 20 00  21 00                    ...... .!.      
```

#### Opcodes

```
  0: 0x024B [0x20] SET_CLI_EVENT_UC_FLAG: Lock player control
  1: 0x024D [0x24] CREATE_DIALOG(message_id=7262*, default_option=1*, option_flags=0*)
    → "Use the device? [Yes./No.]"
  2: 0x0254 [0x25] WAIT_DIALOG_SELECT()
  3: 0x0255 [0x02] IF !(Work_Zone[0] == 0*) GOTO 0x02DB
  4: 0x025D [0x42] SET_CLI_EVENT_CANCEL_DATA()
  5: 0x025E [0x43] SEND_EVENT_UPDATE: Send pending tag to server (packet 0x005B)
  6: 0x0260 [0x43] SEND_EVENT_UPDATE: Check pending flag (skip if not pending)
  7: 0x0262 [0x03] Work_Zone[2] = 478*
  8: 0x0267 [0x48] [System] [7272*]:
    → "The $0 shatters!"
  9: 0x026A [0x73] LocalPlayer casts magic 507* on LocalPlayer
 10: 0x0275 [0x03] Work_Zone[1] = 1*
 11: 0x027A [0x43] SEND_EVENT_UPDATE: Send pending tag to server (packet 0x005B)
 12: 0x027C [0x43] SEND_EVENT_UPDATE: Check pending flag (skip if not pending)
 13: 0x027E [0x62] LOAD_EVENT_SCHEDULER: Load scheduler "main" with entities [LocalPlayer, LocalPlayer], work=[1*, 0*]
 14: 0x028F [0x1C] WAIT(120* ticks)
 15: 0x0292 [0x45] LOAD_SCHEDULED_TASK: Load scheduler "who1" with entities [EventEntity, EventEntity], work=[201*, 0*]
 16: 0x02A3 [0x55] WAIT_LOAD_SCHEDULER: Wait for scheduler "who1" with entities [EventEntity, EventEntity], work=201*
 17: 0x02B2 [0x45] LOAD_SCHEDULED_TASK: Load scheduler "fdo0" with entities [EventEntity, EventEntity], work=[200*, 0*]
 18: 0x02C3 [0x1C] WAIT(30* ticks)
 19: 0x02C6 [0x30] SET_UCOFF_CONTINUE_ZERO()
 20: 0x02C7 [0x45] LOAD_SCHEDULED_TASK: Load scheduler "whi1" with entities [EventEntity, EventEntity], work=[201*, 0*]
 21: 0x02D8 [0x01] GOTO 0x02E6
 22: 0x02DB [0x02] IF !(Work_Zone[0] == 1*) GOTO 0x02E6
 23: 0x02E3 [0x01] GOTO 0x02E6

SUBROUTINE_02E6:
 24: 0x02E6 [0x20] SET_CLI_EVENT_UC_FLAG: Unlock player control
 25: 0x02E8 [0x21] END_EVENT
 26: 0x02E9 [0x00] END_REQSTACK()
```

### Event 171

#### Metadata

| Field        | Value     |
|--------------|-----------|
| Entrypoint   | 0x02EA    |
| Data Size    | 159 bytes |
| Instructions | 27        |

```
      00 01 02 03 04 05 06 07  08 09 0A 0B 0C 0D 0E 0F
      -- -- -- -- -- -- -- --  -- -- -- -- -- -- -- --
02E0:                                20 01 24 1F 80 20             .$.. 
02F0: 80 1A 80 25 02 00 10 1A  80 00 7A 03 42 43 00 43  ...%......z.BC.C
0300: 01 03 02 10 26 80 48 27  80 73 28 80 F0 FF FF 7F  ....&.H'.s(.....
0310: F0 FF FF 7F 03 01 10 20  80 43 00 43 01 62 20 80  ....... .C.C.b .
0320: F0 FF FF 7F F0 FF FF 7F  6D 61 69 6E 1A 80 1C 29  ........main...)
0330: 80 45 2A 80 F8 FF FF 7F  F8 FF FF 7F 77 68 6F 31  .E*.........who1
0340: 1A 80 55 2A 80 F8 FF FF  7F F8 FF FF 7F 77 68 6F  ..U*.........who
0350: 31 45 22 80 F8 FF FF 7F  F8 FF FF 7F 66 64 6F 30  1E".........fdo0
0360: 1A 80 1C 2B 80 30 45 2A  80 F8 FF FF 7F F8 FF FF  ...+.0E*........
0370: 7F 77 68 69 31 1A 80 01  85 03 02 00 10 20 80 00  .whi1........ ..
0380: 85 03 01 85 03 20 00 21  00                       ..... .!.       
```

#### Opcodes

```
  0: 0x02EA [0x20] SET_CLI_EVENT_UC_FLAG: Lock player control
  1: 0x02EC [0x24] CREATE_DIALOG(message_id=7262*, default_option=1*, option_flags=0*)
    → "Use the device? [Yes./No.]"
  2: 0x02F3 [0x25] WAIT_DIALOG_SELECT()
  3: 0x02F4 [0x02] IF !(Work_Zone[0] == 0*) GOTO 0x037A
  4: 0x02FC [0x42] SET_CLI_EVENT_CANCEL_DATA()
  5: 0x02FD [0x43] SEND_EVENT_UPDATE: Send pending tag to server (packet 0x005B)
  6: 0x02FF [0x43] SEND_EVENT_UPDATE: Check pending flag (skip if not pending)
  7: 0x0301 [0x03] Work_Zone[2] = 478*
  8: 0x0306 [0x48] [System] [7272*]:
    → "The $0 shatters!"
  9: 0x0309 [0x73] LocalPlayer casts magic 507* on LocalPlayer
 10: 0x0314 [0x03] Work_Zone[1] = 1*
 11: 0x0319 [0x43] SEND_EVENT_UPDATE: Send pending tag to server (packet 0x005B)
 12: 0x031B [0x43] SEND_EVENT_UPDATE: Check pending flag (skip if not pending)
 13: 0x031D [0x62] LOAD_EVENT_SCHEDULER: Load scheduler "main" with entities [LocalPlayer, LocalPlayer], work=[1*, 0*]
 14: 0x032E [0x1C] WAIT(120* ticks)
 15: 0x0331 [0x45] LOAD_SCHEDULED_TASK: Load scheduler "who1" with entities [EventEntity, EventEntity], work=[201*, 0*]
 16: 0x0342 [0x55] WAIT_LOAD_SCHEDULER: Wait for scheduler "who1" with entities [EventEntity, EventEntity], work=201*
 17: 0x0351 [0x45] LOAD_SCHEDULED_TASK: Load scheduler "fdo0" with entities [EventEntity, EventEntity], work=[200*, 0*]
 18: 0x0362 [0x1C] WAIT(30* ticks)
 19: 0x0365 [0x30] SET_UCOFF_CONTINUE_ZERO()
 20: 0x0366 [0x45] LOAD_SCHEDULED_TASK: Load scheduler "whi1" with entities [EventEntity, EventEntity], work=[201*, 0*]
 21: 0x0377 [0x01] GOTO 0x0385
 22: 0x037A [0x02] IF !(Work_Zone[0] == 1*) GOTO 0x0385
 23: 0x0382 [0x01] GOTO 0x0385

SUBROUTINE_0385:
 24: 0x0385 [0x20] SET_CLI_EVENT_UC_FLAG: Unlock player control
 25: 0x0387 [0x21] END_EVENT
 26: 0x0388 [0x00] END_REQSTACK()
```

### Event 106

#### Metadata

| Field        | Value    |
|--------------|----------|
| Entrypoint   | 0x0389   |
| Data Size    | 41 bytes |
| Instructions | 5        |

```
      00 01 02 03 04 05 06 07  08 09 0A 0B 0C 0D 0E 0F
      -- -- -- -- -- -- -- --  -- -- -- -- -- -- -- --
0380:                             62 20 80 F0 FF FF 7F           b .....
0390: F0 FF FF 7F 6D 61 69 6E  1A 80 1C 2C 80 45 22 80  ....main...,.E".
03A0: F0 FF FF 7F F0 FF FF 7F  66 64 6F 31 1A 80 1C 23  ........fdo1...#
03B0: 80 00                                             ..              
```

#### Opcodes

```
  0: 0x0389 [0x62] LOAD_EVENT_SCHEDULER: Load scheduler "main" with entities [LocalPlayer, LocalPlayer], work=[1*, 0*]
  1: 0x039A [0x1C] WAIT(140* ticks)
  2: 0x039D [0x45] LOAD_SCHEDULED_TASK: Load scheduler "fdo1" with entities [LocalPlayer, LocalPlayer], work=[200*, 0*]
  3: 0x03AE [0x1C] WAIT(60* ticks)
  4: 0x03B1 [0x00] END_REQSTACK()
```

### Event 107

#### Metadata

| Field        | Value    |
|--------------|----------|
| Entrypoint   | 0x03B2   |
| Data Size    | 38 bytes |
| Instructions | 4        |

```
      00 01 02 03 04 05 06 07  08 09 0A 0B 0C 0D 0E 0F
      -- -- -- -- -- -- -- --  -- -- -- -- -- -- -- --
03B0:       45 22 80 F0 FF FF  7F F0 FF FF 7F 66 64 69    E".........fdi
03C0: 31 1A 80 62 2D 80 F0 FF  FF 7F F0 FF FF 7F 6D 61  1..b-.........ma
03D0: 69 6E 1A 80 1C 2E 80 00                           in......        
```

#### Opcodes

```
  0: 0x03B2 [0x45] LOAD_SCHEDULED_TASK: Load scheduler "fdi1" with entities [LocalPlayer, LocalPlayer], work=[200*, 0*]
  1: 0x03C3 [0x62] LOAD_EVENT_SCHEDULER: Load scheduler "main" with entities [LocalPlayer, LocalPlayer], work=[2*, 0*]
  2: 0x03D4 [0x1C] WAIT(170* ticks)
  3: 0x03D7 [0x00] END_REQSTACK()
```

### Event 108

#### Metadata

| Field        | Value    |
|--------------|----------|
| Entrypoint   | 0x03D8   |
| Data Size    | 50 bytes |
| Instructions | 8        |

```
      00 01 02 03 04 05 06 07  08 09 0A 0B 0C 0D 0E 0F
      -- -- -- -- -- -- -- --  -- -- -- -- -- -- -- --
03D0:                          4E 00 F0 FF FF 7F 20 01          N..... .
03E0: 42 80 F0 FF FF 7F 45 22  80 F0 FF FF 7F F0 FF FF  B.....E"........
03F0: 7F 66 64 69 31 1A 80 62  2D 80 F0 FF FF 7F F0 FF  .fdi1..b-.......
0400: FF 7F 6D 61 69 6E 1A 80  21 00                    ..main..!.      
```

#### Opcodes

```
  0: 0x03D8 [0x4E] SET_ENTITY_HIDE_FLAG: Show LocalPlayer
  1: 0x03DE [0x20] SET_CLI_EVENT_UC_FLAG: Lock player control
  2: 0x03E0 [0x42] SET_CLI_EVENT_CANCEL_DATA()
  3: 0x03E1 [0x80] LOAD_WAIT(entity=LocalPlayer)
  4: 0x03E6 [0x45] LOAD_SCHEDULED_TASK: Load scheduler "fdi1" with entities [LocalPlayer, LocalPlayer], work=[200*, 0*]
  5: 0x03F7 [0x62] LOAD_EVENT_SCHEDULER: Load scheduler "main" with entities [LocalPlayer, LocalPlayer], work=[2*, 0*]
  6: 0x0408 [0x21] END_EVENT
  7: 0x0409 [0x00] END_REQSTACK()
```

### Event 155

#### Metadata

| Field        | Value      |
|--------------|------------|
| Entrypoint   | 0x040A     |
| Data Size    | 2275 bytes |
| Instructions | 272        |

```
      00 01 02 03 04 05 06 07  08 09 0A 0B 0C 0D 0E 0F
      -- -- -- -- -- -- -- --  -- -- -- -- -- -- -- --
0400:                                20 01 46 01 42 45             .F.BE
0410: 22 80 F0 FF FF 7F F0 FF  FF 7F 66 64 6F 31 1A 80  ".........fdo1..
0420: 55 22 80 F0 FF FF 7F F0  FF FF 7F 66 64 6F 31 43  U".........fdo1C
0430: 00 43 01 03 00 00 02 10  94 01 F0 FF FF 7F 38 2F  .C............8/
0440: 80 79 00 F0 FF FF 7F 12  E0 00 01 37 30 80 31 80  .y.........70.1.
0450: 1D 80 32 80 4E 00 F0 FF  FF 7F 97 1A 80 20 80 4E  ..2.N........ .N
0460: 00 13 E0 00 01 4E 00 14  E0 00 01 4E 00 10 E0 00  .....N.....N....
0470: 01 4E 00 12 E0 00 01 4A  10 E0 00 01 F0 FF FF 7F  .N.....J........
0480: 45 33 80 F0 FF FF 7F F0  FF FF 7F 7A 30 30 30 1A  E3.........z000.
0490: 80 55 33 80 F0 FF FF 7F  F0 FF FF 7F 7A 30 30 30  .U3.........z000
04A0: 45 22 80 F0 FF FF 7F F0  FF FF 7F 66 64 69 31 1A  E".........fdi1.
04B0: 80 45 33 80 F0 FF FF 7F  F0 FF FF 7F 7A 30 30 31  .E3.........z001
04C0: 1A 80 32 00 80 1F 00 30  80 34 80 1D 80 1F 01 5C  ..2....0.4.....\
04D0: 00 35 80 5C 01 35 80 55  33 80 F0 FF FF 7F F0 FF  .5.\.5.U3.......
04E0: FF 7F 7A 30 30 31 1C 36  80 81 00 12 E0 00 01 4A  ..z001.6.......J
04F0: 12 E0 00 01 F0 FF FF 7F  1C 37 80 45 22 80 12 E0  .........7.E"...
0500: 00 01 12 E0 00 01 62 6C  6F 6E 1A 80 45 33 80 F0  ......blon..E3..
0510: FF FF 7F F0 FF FF 7F 7A  30 30 32 1A 80 45 38 80  .......z002..E8.
0520: F0 FF FF 7F F0 FF FF 7F  62 61 73 68 1A 80 55 33  ........bash..U3
0530: 80 F0 FF FF 7F F0 FF FF  7F 7A 30 30 32 6F 76 12  .........z002ov.
0540: E0 00 01 1C 36 80 45 22  80 12 E0 00 01 12 E0 00  ....6.E"........
0550: 01 62 6C 6F 66 1A 80 1C  23 80 2B 12 E0 00 01 39  .blof...#.+....9
0560: 80 23 81 01 12 E0 00 01  45 33 80 F0 FF FF 7F F0  .#......E3......
0570: FF FF 7F 7A 30 30 33 1A  80 27 03 12 E0 00 01 02  ...z003..'......
0580: 2B 12 E0 00 01 3A 80 23  2A 03 12 E0 00 01 55 33  +....:.#*.....U3
0590: 80 F0 FF FF 7F F0 FF FF  7F 7A 30 30 33 27 03 12  .........z003'..
05A0: E0 00 01 03 1C 37 80 45  33 80 F0 FF FF 7F F0 FF  .....7.E3.......
05B0: FF 7F 7A 30 30 34 1A 80  55 33 80 F0 FF FF 7F F0  ..z004..U3......
05C0: FF FF 7F 7A 30 30 34 1C  3B 80 03 01 00 87 7F 1A  ...z004.;.......
05D0: 67 0D 66 02 00 F0 FF FF  7F F0 FF FF 7F 73 68 61  g.f..........sha
05E0: 30 1C 36 80 45 33 80 11  E0 00 01 11 E0 00 01 62  0.6.E3.........b
05F0: 69 6E 74 1A 80 02 07 7F  3C 80 80 20 06 45 33 80  int.....<.. .E3.
0600: F0 FF FF 7F F0 FF FF 7F  7A 30 30 62 1A 80 55 33  ........z00b..U3
0610: 80 F0 FF FF 7F F0 FF FF  7F 7A 30 30 62 01 40 06  .........z00b.@.
0620: 45 33 80 F0 FF FF 7F F0  FF FF 7F 7A 30 30 61 1A  E3.........z00a.
0630: 80 55 33 80 F0 FF FF 7F  F0 FF FF 7F 7A 30 30 61  .U3.........z00a
0640: 1C 23 80 2B 12 E0 00 01  3D 80 23 2A 03 12 E0 00  .#.+....=.#*....
0650: 01 4A 10 E0 00 01 12 E0  00 01 27 03 12 E0 00 01  .J........'.....
0660: 06 1C 3E 80 45 33 80 F0  FF FF 7F F0 FF FF 7F 7A  ..>.E3.........z
0670: 30 30 35 1A 80 1C 23 80  2B 12 E0 00 01 3F 80 23  005...#.+....?.#
0680: 55 33 80 F0 FF FF 7F F0  FF FF 7F 7A 30 30 35 27  U3.........z005'
0690: 03 10 E0 00 01 05 1C 36  80 03 02 10 0B 7F 2B 10  .......6......+.
06A0: E0 00 01 40 80 23 27 03  10 E0 00 01 06 2B 12 E0  ...@.#'......+..
06B0: 00 01 41 80 23 45 33 80  F0 FF FF 7F F0 FF FF 7F  ..A.#E3.........
06C0: 7A 30 30 36 1A 80 1C 42  80 2B 12 E0 00 01 43 80  z006...B.+....C.
06D0: 23 2B 12 E0 00 01 44 80  23 55 33 80 F0 FF FF 7F  #+....D.#U3.....
06E0: F0 FF FF 7F 7A 30 30 36  27 03 12 E0 00 01 07 1C  ....z006'.......
06F0: 36 80 45 33 80 F0 FF FF  7F F0 FF FF 7F 7A 30 30  6.E3.........z00
0700: 37 1A 80 1C 45 80 2B 12  E0 00 01 46 80 23 55 33  7...E.+....F.#U3
0710: 80 F0 FF FF 7F F0 FF FF  7F 7A 30 30 37 66 02 00  .........z007f..
0720: F0 FF FF 7F F0 FF FF 7F  73 68 61 31 53 F0 FF FF  ........sha1S...
0730: 7F F0 FF FF 7F 73 68 61  31 6E F0 FF FF 7F 47 80  .....sha1n....G.
0740: 99 F0 FF FF 7F 1C 45 80  45 33 80 F0 FF FF 7F F0  ......E.E3......
0750: FF FF 7F 7A 30 30 38 1A  80 55 33 80 F0 FF FF 7F  ...z008..U3.....
0760: F0 FF FF 7F 7A 30 30 38  27 03 10 E0 00 01 05 2B  ....z008'......+
0770: 10 E0 00 01 48 80 23 27  03 10 E0 00 01 06 27 03  ....H.#'......'.
0780: 12 E0 00 01 06 1C 3E 80  2B 12 E0 00 01 49 80 23  ......>.+....I.#
0790: 27 03 12 E0 00 01 07 45  33 80 F0 FF FF 7F F0 FF  '......E3.......
07A0: FF 7F 7A 30 30 39 1A 80  55 33 80 F0 FF FF 7F F0  ..z009..U3......
07B0: FF FF 7F 7A 30 30 39 4E  00 11 E0 00 01 79 00 12  ...z009N.....y..
07C0: E0 00 01 11 E0 00 01 2B  12 E0 00 01 4A 80 23 27  .......+....J.#'
07D0: 03 11 E0 00 01 02 45 33  80 F0 FF FF 7F F0 FF FF  ......E3........
07E0: 7F 79 30 30 30 1A 80 1C  23 80 4A F0 FF FF 7F 11  .y000...#.J.....
07F0: E0 00 01 55 33 80 F0 FF  FF 7F F0 FF FF 7F 79 30  ...U3.........y0
0800: 30 30 2A 03 11 E0 00 01  1C 2B 80 45 33 80 F0 FF  00*......+.E3...
0810: FF 7F F0 FF FF 7F 79 30  30 31 1A 80 55 33 80 F0  ......y001..U3..
0820: FF FF 7F F0 FF FF 7F 79  30 30 31 37 4B 80 4C 80  .......y0017K.L.
0830: 1D 80 4D 80 1C 45 80 45  22 80 11 E0 00 01 11 E0  ..M..E.E".......
0840: 00 01 6F 76 6C 31 1A 80  45 33 80 F0 FF FF 7F F0  ..ovl1..E3......
0850: FF FF 7F 79 30 30 32 1A  80 27 03 11 E0 00 01 03  ...y002..'......
0860: 79 00 11 E0 00 01 12 E0  00 01 1C 36 80 2B 12 E0  y..........6.+..
0870: 00 01 4E 80 23 2B 12 E0  00 01 4F 80 23 52 33 80  ..N.#+....O.#R3.
0880: F0 FF FF 7F F0 FF FF 7F  79 30 30 32 45 22 80 11  ........y002E"..
0890: E0 00 01 11 E0 00 01 6F  76 6C 31 1A 80 45 33 80  .......ovl1..E3.
08A0: F0 FF FF 7F F0 FF FF 7F  79 30 30 33 1A 80 1C 2B  ........y003...+
08B0: 80 2B 12 E0 00 01 50 80  23 1C 23 80 55 33 80 F0  .+....P.#.#.U3..
08C0: FF FF 7F F0 FF FF 7F 79  30 30 33 4A 10 E0 00 01  .......y003J....
08D0: 11 E0 00 01 81 00 11 E0  00 01 7C 00 11 E0 00 01  ..........|.....
08E0: 45 22 80 11 E0 00 01 11  E0 00 01 6F 76 6C 31 1A  E".........ovl1.
08F0: 80 45 33 80 F0 FF FF 7F  F0 FF FF 7F 79 30 31 30  .E3.........y010
0900: 1A 80 55 33 80 F0 FF FF  7F F0 FF FF 7F 79 30 31  ..U3.........y01
0910: 30 1C 23 80 2B 11 E0 00  01 51 80 23 1C 36 80 45  0.#.+....Q.#.6.E
0920: 33 80 F0 FF FF 7F F0 FF  FF 7F 79 30 30 34 1A 80  3.........y004..
0930: 55 33 80 F0 FF FF 7F F0  FF FF 7F 79 30 30 34 81  U3.........y004.
0940: 01 11 E0 00 01 1C 36 80  4A 12 E0 00 01 10 E0 00  ......6.J.......
0950: 01 6F 76 12 E0 00 01 2B  12 E0 00 01 52 80 23 7B  .ov....+....R.#{
0960: 12 E0 00 01 2B 12 E0 00  01 53 80 23 27 03 12 E0  ....+....S.#'...
0970: 00 01 04 1C 45 80 45 22  80 11 E0 00 01 11 E0 00  ....E.E"........
0980: 01 6F 76 6C 31 1A 80 45  33 80 F0 FF FF 7F F0 FF  .ovl1..E3.......
0990: FF 7F 79 30 30 36 1A 80  1C 23 80 27 03 10 E0 00  ..y006...#.'....
09A0: 01 02 1C 3B 80 45 33 80  11 E0 00 01 11 E0 00 01  ...;.E3.........
09B0: 73 30 38 37 1A 80 5D 1A  80 1A 80 55 33 80 F0 FF  s087..]....U3...
09C0: FF 7F F0 FF FF 7F 79 30  30 36 1C 42 80 45 33 80  ......y006.B.E3.
09D0: F0 FF FF 7F F0 FF FF 7F  79 30 30 37 1A 80 55 33  ........y007..U3
09E0: 80 F0 FF FF 7F F0 FF FF  7F 79 30 30 37 2B 12 E0  .........y007+..
09F0: 00 01 54 80 23 27 03 13  E0 00 01 02 1C 3E 80 2B  ..T.#'.......>.+
0A00: 13 E0 00 01 55 80 23 28  03 10 E0 00 01 03 1C 2D  ....U.#(.......-
0A10: 80 45 33 80 F0 FF FF 7F  F0 FF FF 7F 79 30 30 38  .E3.........y008
0A20: 1A 80 4E 01 12 E0 00 01  1C 3E 80 45 33 80 11 E0  ..N......>.E3...
0A30: 00 01 11 E0 00 01 73 30  38 38 1A 80 1C 08 80 45  ......s088.....E
0A40: 2A 80 F0 FF FF 7F F0 FF  FF 7F 77 68 6F 30 1A 80  *.........who0..
0A50: 55 33 80 F0 FF FF 7F F0  FF FF 7F 79 30 30 38 2A  U3.........y008*
0A60: 03 10 E0 00 01 55 2A 80  F0 FF FF 7F F0 FF FF 7F  .....U*.........
0A70: 77 68 6F 30 5D 1A 80 1A  80 4E 01 F0 FF FF 7F 4E  who0]....N.....N
0A80: 00 12 E0 00 01 7B 10 E0  00 01 7B 11 E0 00 01 27  .....{....{....'
0A90: 03 11 E0 00 01 04 27 03  10 E0 00 01 04 55 33 80  ......'......U3.
0AA0: F0 FF FF 7F F0 FF FF 7F  79 30 30 65 1C 23 80 45  ........y00e.#.E
0AB0: 56 80 11 E0 00 01 11 E0  00 01 73 65 30 31 1A 80  V.........se01..
0AC0: 1C 23 80 45 33 80 F0 FF  FF 7F F0 FF FF 7F 73 31  .#.E3.........s1
0AD0: 32 31 1A 80 45 33 80 F0  FF FF 7F F0 FF FF 7F 79  21..E3.........y
0AE0: 30 30 65 1A 80 1C 21 80  45 2A 80 F0 FF FF 7F F0  00e...!.E*......
0AF0: FF FF 7F 77 68 69 31 1A  80 55 2A 80 F0 FF FF 7F  ...whi1..U*.....
0B00: F0 FF FF 7F 77 68 69 31  1C 45 80 45 22 80 11 E0  ....whi1.E.E"...
0B10: 00 01 11 E0 00 01 6F 76  6C 31 1A 80 45 33 80 F0  ......ovl1..E3..
0B20: FF FF 7F F0 FF FF 7F 79  30 30 39 1A 80 55 33 80  .......y009..U3.
0B30: F0 FF FF 7F F0 FF FF 7F  79 30 30 39 45 33 80 F0  ........y009E3..
0B40: FF FF 7F F0 FF FF 7F 79  30 30 61 1A 80 55 33 80  .......y00a..U3.
0B50: F0 FF FF 7F F0 FF FF 7F  79 30 30 61 1C 3B 80 2B  ........y00a.;.+
0B60: 10 E0 00 01 57 80 23 1C  2B 80 27 03 11 E0 00 01  ....W.#.+.'.....
0B70: 05 1C 2B 80 5C 00 58 80  5C 01 58 80 45 33 80 F0  ..+.\.X.\.X.E3..
0B80: FF FF 7F F0 FF FF 7F 73  31 32 32 1A 80 45 22 80  .......s122..E".
0B90: 11 E0 00 01 11 E0 00 01  6F 76 6C 31 1A 80 45 33  ........ovl1..E3
0BA0: 80 F0 FF FF 7F F0 FF FF  7F 79 30 31 32 1A 80 55  .........y012..U
0BB0: 33 80 F0 FF FF 7F F0 FF  FF 7F 79 30 31 32 1C 23  3.........y012.#
0BC0: 80 27 03 12 E0 00 01 05  1C 36 80 45 33 80 F0 FF  .'.......6.E3...
0BD0: FF 7F F0 FF FF 7F 79 30  30 62 1A 80 55 33 80 F0  ......y00b..U3..
0BE0: FF FF 7F F0 FF FF 7F 79  30 30 62 4E 01 10 E0 00  .......y00bN....
0BF0: 01 2B 12 E0 00 01 59 80  23 2A 03 12 E0 00 01 1C  .+....Y.#*......
0C00: 3E 80 45 33 80 F0 FF FF  7F F0 FF FF 7F 79 30 30  >.E3.........y00
0C10: 63 1A 80 55 33 80 F0 FF  FF 7F F0 FF FF 7F 79 30  c..U3.........y0
0C20: 30 63 1C 5A 80 45 33 80  F0 FF FF 7F F0 FF FF 7F  0c.Z.E3.........
0C30: 79 30 31 31 1A 80 55 33  80 F0 FF FF 7F F0 FF FF  y011..U3........
0C40: 7F 79 30 31 31 1C 23 80  45 22 80 11 E0 00 01 11  .y011.#.E"......
0C50: E0 00 01 6F 76 6C 31 1A  80 45 33 80 F0 FF FF 7F  ...ovl1..E3.....
0C60: F0 FF FF 7F 79 30 30 64  1A 80 55 33 80 F0 FF FF  ....y00d..U3....
0C70: 7F F0 FF FF 7F 79 30 30  64 1C 23 80 45 22 80 F0  .....y00d.#.E"..
0C80: FF FF 7F F0 FF FF 7F 66  64 6F 32 1A 80 55 22 80  .......fdo2..U".
0C90: F0 FF FF 7F F0 FF FF 7F  66 64 6F 32 A3 5B 80 11  ........fdo2.[..
0CA0: E0 00 01 11 E0 00 01 73  74 72 30 45 33 80 11 E0  .......str0E3...
0CB0: 00 01 11 E0 00 01 73 31  32 6B 1A 80 46 00 02 00  ......s12k..F...
0CC0: 00 20 80 00 EA 0C 5D 1A  80 5C 80 1C 5C 80 5C 00  . ....]..\..\.\.
0CD0: 1A 80 5C 01 1A 80 45 22  80 F0 FF FF 7F F0 FF FF  ..\...E"........
0CE0: 7F 66 64 69 32 1A 80 01  EB 0C 30 21 00           .fdi2.....0!.   
```

#### Opcodes

```
  0: 0x040A [0x20] SET_CLI_EVENT_UC_FLAG: Lock player control
  1: 0x040C [0x46] CAMERA_CONTROL: Disable user control
  2: 0x040E [0x42] SET_CLI_EVENT_CANCEL_DATA()
  3: 0x040F [0x45] LOAD_SCHEDULED_TASK: Load scheduler "fdo1" with entities [LocalPlayer, LocalPlayer], work=[200*, 0*]
  4: 0x0420 [0x55] WAIT_LOAD_SCHEDULER: Wait for scheduler "fdo1" with entities [LocalPlayer, LocalPlayer], work=200*
  5: 0x042F [0x43] SEND_EVENT_UPDATE: Send pending tag to server (packet 0x005B)
  6: 0x0431 [0x43] SEND_EVENT_UPDATE: Check pending flag (skip if not pending)
  7: 0x0433 [0x03] ExtData[1]->WorkLocal[0] = Work_Zone[2]
  8: 0x0438 [0x94] LocalPlayer->Render.Flags3 ^= 0x01
  9: 0x043E [0x38] SET_CLIENT_EVENT_MODE(mode=19*)
 10: 0x0441 [0x79] LocalPlayer looks at Nag'molada (ID: 16834578/0x0100E012) (Basic look)
 11: 0x044B [0x37] UPDATE_EVENT_POSITION_AND_DIR: x=280.000*, z=-59.052*, y=-80.635*, direction=269.2°*
 12: 0x0454 [0x4E] SET_ENTITY_HIDE_FLAG: Show LocalPlayer
 13: 0x045A [0x97] SAVE_SET_WIND_VALUES(wind_base=0x801A, wind_width=0x8020)
 14: 0x045F [0x4E] SET_ENTITY_HIDE_FLAG: Show ??? (ID: 16834579/0x0100E013)
 15: 0x0465 [0x4E] SET_ENTITY_HIDE_FLAG: Show ??? (ID: 16834580/0x0100E014)
 16: 0x046B [0x4E] SET_ENTITY_HIDE_FLAG: Show Wolfgang (ID: 16834576/0x0100E010)
 17: 0x0471 [0x4E] SET_ENTITY_HIDE_FLAG: Show Nag'molada (ID: 16834578/0x0100E012)
 18: 0x0477 [0x4A] Wolfgang (ID: 16834576/0x0100E010) looks at LocalPlayer
 19: 0x0480 [0x45] LOAD_SCHEDULED_TASK: Load scheduler "z000" with entities [LocalPlayer, LocalPlayer], work=[73*, 0*]
 20: 0x0491 [0x55] WAIT_LOAD_SCHEDULER: Wait for scheduler "z000" with entities [LocalPlayer, LocalPlayer], work=73*
 21: 0x04A0 [0x45] LOAD_SCHEDULED_TASK: Load scheduler "fdi1" with entities [LocalPlayer, LocalPlayer], work=[200*, 0*]
 22: 0x04B1 [0x45] LOAD_SCHEDULED_TASK: Load scheduler "z001" with entities [LocalPlayer, LocalPlayer], work=[73*, 0*]
 23: 0x04C2 [0x32] ExtData[1]->MainSpeed = 13* * 0.1
 24: 0x04C5 [0x1F] MOVE_ENTITY: EventEntity moves to X=280.000*, Z=-52.500*, Y=-80.635*
 25: 0x04CD [0x1F] MOVE_ENTITY: Update entity position (mode=1)
 26: 0x04CF [0x5C] MUSIC_CONTROL: Set Idle (Day) music to song 231*
 27: 0x04D3 [0x5C] MUSIC_CONTROL: Set Idle (Night) music to song 231*
 28: 0x04D7 [0x55] WAIT_LOAD_SCHEDULER: Wait for scheduler "z001" with entities [LocalPlayer, LocalPlayer], work=73*
 29: 0x04E6 [0x1C] WAIT(10* ticks)
 30: 0x04E9 [0x81] SET_ENTITY_BLINKING(blink_flag=0x00, entity=Nag'molada (ID: 16834578/0x0100E012))
 31: 0x04EF [0x4A] Nag'molada (ID: 16834578/0x0100E012) looks at LocalPlayer
 32: 0x04F8 [0x1C] WAIT(5* ticks)
 33: 0x04FB [0x45] LOAD_SCHEDULED_TASK: Load scheduler "blon" with entities [Nag'molada (ID: 16834578/0x0100E012), Nag'molada (ID: 16834578/0x0100E012)], work=[200*, 0*]
 34: 0x050C [0x45] LOAD_SCHEDULED_TASK: Load scheduler "z002" with entities [LocalPlayer, LocalPlayer], work=[73*, 0*]
 35: 0x051D [0x45] LOAD_SCHEDULED_TASK: Load scheduler "bash" with entities [LocalPlayer, LocalPlayer], work=[108*, 0*]
 36: 0x052E [0x55] WAIT_LOAD_SCHEDULER: Wait for scheduler "z002" with entities [LocalPlayer, LocalPlayer], work=73*
 37: 0x053D [0x6F] WAIT_FRAME_DELAY: Yield until WaitTime reaches zero
 38: 0x053E [0x76] CHECK_ENTITY_RENDER_FLAGS: Wait until Nag'molada (ID: 16834578/0x0100E012) Render.Flags0 and Render.Flags3 conditions are met
 39: 0x0543 [0x1C] WAIT(10* ticks)
 40: 0x0546 [0x45] LOAD_SCHEDULED_TASK: Load scheduler "blof" with entities [Nag'molada (ID: 16834578/0x0100E012), Nag'molada (ID: 16834578/0x0100E012)], work=[200*, 0*]
 41: 0x0557 [0x1C] WAIT(60* ticks)
 42: 0x055A [0x2B] Nag'molada (ID: 16834578/0x0100E012) [7273*]:
    → "Hah, so you've finally arrived. I heard that you were poking your nose into matters at the second crag, so I naturally assumed that this would be the next place you'd visit."
 43: 0x0561 [0x23] WAIT_FOR_DIALOG_INTERACTION
 44: 0x0562 [0x81] SET_ENTITY_BLINKING(blink_flag=0x01, entity=Nag'molada (ID: 16834578/0x0100E012))
 45: 0x0568 [0x45] LOAD_SCHEDULED_TASK: Load scheduler "z003" with entities [LocalPlayer, LocalPlayer], work=[73*, 0*]
 46: 0x0579 [0x27] REQ_SET(priority=0x03, entity_id=Nag'molada (ID: 16834578/0x0100E012), tag_num=0x02)
 47: 0x0580 [0x2B] Nag'molada (ID: 16834578/0x0100E012) [7274*]:
    → "Hm? Alone, are we? Well, I see you are not as foolish as I thought. You may think you have the upper hand now, but I, too, have a few tricks up my sleeve."
 48: 0x0587 [0x23] WAIT_FOR_DIALOG_INTERACTION
 49: 0x0588 [0x2A] GET_REQ_LEVEL(level=3, entity_id=Nag'molada (ID: 16834578/0x0100E012))
 50: 0x058E [0x55] WAIT_LOAD_SCHEDULER: Wait for scheduler "z003" with entities [LocalPlayer, LocalPlayer], work=73*
 51: 0x059D [0x27] REQ_SET(priority=0x03, entity_id=Nag'molada (ID: 16834578/0x0100E012), tag_num=0x03)
 52: 0x05A4 [0x1C] WAIT(5* ticks)
 53: 0x05A7 [0x45] LOAD_SCHEDULED_TASK: Load scheduler "z004" with entities [LocalPlayer, LocalPlayer], work=[73*, 0*]
 54: 0x05B8 [0x55] WAIT_LOAD_SCHEDULER: Wait for scheduler "z004" with entities [LocalPlayer, LocalPlayer], work=73*
 55: 0x05C7 [0x1C] WAIT(20* ticks)
 56: 0x05CA [0x03] ExtData[1]->WorkLocal[1] = LocalPlayer->Race
 57: 0x05CF [0x1A] CALL_SUBROUTINE(address=0x0D67)
 58: 0x05D2 [0x66] LOAD_EXT_SCHEDULER_MAIN: Load scheduler "sha0" with entities [LocalPlayer, LocalPlayer], work=ExtData[1]->WorkLocal[2]
 59: 0x05E1 [0x1C] WAIT(10* ticks)
 60: 0x05E4 [0x45] LOAD_SCHEDULED_TASK: Load scheduler "bint" with entities [??? (ID: 16834577/0x0100E011), ??? (ID: 16834577/0x0100E011)], work=[73*, 0*]
 61: 0x05F5 [0x02] IF !(Entity->Race == 8*) GOTO 0x0620
 62: 0x05FD [0x45] LOAD_SCHEDULED_TASK: Load scheduler "z00b" with entities [LocalPlayer, LocalPlayer], work=[73*, 0*]
 63: 0x060E [0x55] WAIT_LOAD_SCHEDULER: Wait for scheduler "z00b" with entities [LocalPlayer, LocalPlayer], work=73*
 64: 0x061D [0x01] GOTO 0x0640
 65: 0x0620 [0x45] LOAD_SCHEDULED_TASK: Load scheduler "z00a" with entities [LocalPlayer, LocalPlayer], work=[73*, 0*]
 66: 0x0631 [0x55] WAIT_LOAD_SCHEDULER: Wait for scheduler "z00a" with entities [LocalPlayer, LocalPlayer], work=73*

SUBROUTINE_0640:
 67: 0x0640 [0x1C] WAIT(60* ticks)
 68: 0x0643 [0x2B] Nag'molada (ID: 16834578/0x0100E012) [7275*]:
    → "The only thing I care about is that boy. One less adventurer in my way would only be a benefit to me."
 69: 0x064A [0x23] WAIT_FOR_DIALOG_INTERACTION
 70: 0x064B [0x2A] GET_REQ_LEVEL(level=3, entity_id=Nag'molada (ID: 16834578/0x0100E012))
 71: 0x0651 [0x4A] Wolfgang (ID: 16834576/0x0100E010) looks at Nag'molada (ID: 16834578/0x0100E012)
 72: 0x065A [0x27] REQ_SET(priority=0x03, entity_id=Nag'molada (ID: 16834578/0x0100E012), tag_num=0x06)
 73: 0x0661 [0x1C] WAIT(15* ticks)
 74: 0x0664 [0x45] LOAD_SCHEDULED_TASK: Load scheduler "z005" with entities [LocalPlayer, LocalPlayer], work=[73*, 0*]
 75: 0x0675 [0x1C] WAIT(60* ticks)
 76: 0x0678 [0x2B] Nag'molada (ID: 16834578/0x0100E012) [7276*]:
    → "Wolfgang. Kill [him/her]."
 77: 0x067F [0x23] WAIT_FOR_DIALOG_INTERACTION
 78: 0x0680 [0x55] WAIT_LOAD_SCHEDULER: Wait for scheduler "z005" with entities [LocalPlayer, LocalPlayer], work=73*
 79: 0x068F [0x27] REQ_SET(priority=0x03, entity_id=Wolfgang (ID: 16834576/0x0100E010), tag_num=0x05)
 80: 0x0696 [0x1C] WAIT(10* ticks)
 81: 0x0699 [0x03] Work_Zone[2] = (Entity->Render.Flags01 >> 25) & 1
 82: 0x069E [0x2B] Wolfgang (ID: 16834576/0x0100E010) [7277*]:
    → "But sir... While [he/she] was seen with the boy, our research on [him/her] has turned up no evidence of any other connections. I do not feel that <Player>'s crimes warrant [his/her] death."
 83: 0x06A5 [0x23] WAIT_FOR_DIALOG_INTERACTION
 84: 0x06A6 [0x27] REQ_SET(priority=0x03, entity_id=Wolfgang (ID: 16834576/0x0100E010), tag_num=0x06)
 85: 0x06AD [0x2B] Nag'molada (ID: 16834578/0x0100E012) [7278*]:
    → "Wolfgang, you asked what the purpose behind this place was, and I'm certain I explained matters clearly."
 86: 0x06B4 [0x23] WAIT_FOR_DIALOG_INTERACTION
 87: 0x06B5 [0x45] LOAD_SCHEDULED_TASK: Load scheduler "z006" with entities [LocalPlayer, LocalPlayer], work=[73*, 0*]
 88: 0x06C6 [0x1C] WAIT(50* ticks)
 89: 0x06C9 [0x2B] Nag'molada (ID: 16834578/0x0100E012) [7279*]:
    → "It is a citadel, built to protect the mother of all life on Vana'diel--the crystal."
 90: 0x06D0 [0x23] WAIT_FOR_DIALOG_INTERACTION
 91: 0x06D1 [0x2B] Nag'molada (ID: 16834578/0x0100E012) [7280*]:
    → "Only we know that secret--and as the secret's keepers, we are eternally bound to this place as her protectors."
 92: 0x06D8 [0x23] WAIT_FOR_DIALOG_INTERACTION
 93: 0x06D9 [0x55] WAIT_LOAD_SCHEDULER: Wait for scheduler "z006" with entities [LocalPlayer, LocalPlayer], work=73*
 94: 0x06E8 [0x27] REQ_SET(priority=0x03, entity_id=Nag'molada (ID: 16834578/0x0100E012), tag_num=0x07)
 95: 0x06EF [0x1C] WAIT(10* ticks)
 96: 0x06F2 [0x45] LOAD_SCHEDULED_TASK: Load scheduler "z007" with entities [LocalPlayer, LocalPlayer], work=[73*, 0*]
 97: 0x0703 [0x1C] WAIT(90* ticks)
 98: 0x0706 [0x2B] Nag'molada (ID: 16834578/0x0100E012) [7281*]:
    → "However, darkness has already befallen the crystals within two of the crags. The boy was present at both, and it was <Player> who led him."
 99: 0x070D [0x23] WAIT_FOR_DIALOG_INTERACTION
100: 0x070E [0x55] WAIT_LOAD_SCHEDULER: Wait for scheduler "z007" with entities [LocalPlayer, LocalPlayer], work=73*
101: 0x071D [0x66] LOAD_EXT_SCHEDULER_MAIN: Load scheduler "sha1" with entities [LocalPlayer, LocalPlayer], work=ExtData[1]->WorkLocal[2]
102: 0x072C [0x53] WAIT_SCHEDULER_TASK: Wait for scheduler "sha1" with entities [LocalPlayer, LocalPlayer]
103: 0x0739 [0x6E] LocalPlayer uses emote 6*
104: 0x0740 [0x99] Wait for LocalPlayer animation to complete
105: 0x0745 [0x1C] WAIT(90* ticks)
106: 0x0748 [0x45] LOAD_SCHEDULED_TASK: Load scheduler "z008" with entities [LocalPlayer, LocalPlayer], work=[73*, 0*]
107: 0x0759 [0x55] WAIT_LOAD_SCHEDULER: Wait for scheduler "z008" with entities [LocalPlayer, LocalPlayer], work=73*
108: 0x0768 [0x27] REQ_SET(priority=0x03, entity_id=Wolfgang (ID: 16834576/0x0100E010), tag_num=0x05)
109: 0x076F [0x2B] Wolfgang (ID: 16834576/0x0100E010) [7282*]:
    → "B-but...what of proof?"
110: 0x0776 [0x23] WAIT_FOR_DIALOG_INTERACTION
111: 0x0777 [0x27] REQ_SET(priority=0x03, entity_id=Wolfgang (ID: 16834576/0x0100E010), tag_num=0x06)
112: 0x077E [0x27] REQ_SET(priority=0x03, entity_id=Nag'molada (ID: 16834578/0x0100E012), tag_num=0x06)
113: 0x0785 [0x1C] WAIT(15* ticks)
114: 0x0788 [0x2B] Nag'molada (ID: 16834578/0x0100E012) [7283*]:
    → "Proof? What more proof do we need? Where <Player> is, the boy is sure to follow."
115: 0x078F [0x23] WAIT_FOR_DIALOG_INTERACTION
116: 0x0790 [0x27] REQ_SET(priority=0x03, entity_id=Nag'molada (ID: 16834578/0x0100E012), tag_num=0x07)
117: 0x0797 [0x45] LOAD_SCHEDULED_TASK: Load scheduler "z009" with entities [LocalPlayer, LocalPlayer], work=[73*, 0*]
118: 0x07A8 [0x55] WAIT_LOAD_SCHEDULER: Wait for scheduler "z009" with entities [LocalPlayer, LocalPlayer], work=73*
119: 0x07B7 [0x4E] SET_ENTITY_HIDE_FLAG: Show ??? (ID: 16834577/0x0100E011)
120: 0x07BD [0x79] Nag'molada (ID: 16834578/0x0100E012) looks at ??? (ID: 16834577/0x0100E011) (Basic look)
121: 0x07C7 [0x2B] Nag'molada (ID: 16834578/0x0100E012) [7284*]:
    → "And here he is now."
122: 0x07CE [0x23] WAIT_FOR_DIALOG_INTERACTION
123: 0x07CF [0x27] REQ_SET(priority=0x03, entity_id=??? (ID: 16834577/0x0100E011), tag_num=0x02)
124: 0x07D6 [0x45] LOAD_SCHEDULED_TASK: Load scheduler "y000" with entities [LocalPlayer, LocalPlayer], work=[73*, 0*]
125: 0x07E7 [0x1C] WAIT(60* ticks)
126: 0x07EA [0x4A] LocalPlayer looks at ??? (ID: 16834577/0x0100E011)
127: 0x07F3 [0x55] WAIT_LOAD_SCHEDULER: Wait for scheduler "y000" with entities [LocalPlayer, LocalPlayer], work=73*
128: 0x0802 [0x2A] GET_REQ_LEVEL(level=3, entity_id=??? (ID: 16834577/0x0100E011))
129: 0x0808 [0x1C] WAIT(30* ticks)
130: 0x080B [0x45] LOAD_SCHEDULED_TASK: Load scheduler "y001" with entities [LocalPlayer, LocalPlayer], work=[73*, 0*]
131: 0x081C [0x55] WAIT_LOAD_SCHEDULER: Wait for scheduler "y001" with entities [LocalPlayer, LocalPlayer], work=73*
132: 0x082B [0x37] UPDATE_EVENT_POSITION_AND_DIR: x=281.000*, z=-52.376*, y=-80.635*, direction=79.1°*
133: 0x0834 [0x1C] WAIT(90* ticks)
134: 0x0837 [0x45] LOAD_SCHEDULED_TASK: Load scheduler "ovl1" with entities [??? (ID: 16834577/0x0100E011), ??? (ID: 16834577/0x0100E011)], work=[200*, 0*]
135: 0x0848 [0x45] LOAD_SCHEDULED_TASK: Load scheduler "y002" with entities [LocalPlayer, LocalPlayer], work=[73*, 0*]
136: 0x0859 [0x27] REQ_SET(priority=0x03, entity_id=??? (ID: 16834577/0x0100E011), tag_num=0x03)
137: 0x0860 [0x79] ??? (ID: 16834577/0x0100E011) looks at Nag'molada (ID: 16834578/0x0100E012) (Basic look)
138: 0x086A [0x1C] WAIT(10* ticks)
139: 0x086D [0x2B] Nag'molada (ID: 16834578/0x0100E012) [7285*]:
    → "You, boy without a name, you know the darkness of which I speak. The darkness that the Dawnmaidens have feared for thousands of years."
140: 0x0874 [0x23] WAIT_FOR_DIALOG_INTERACTION
141: 0x0875 [0x2B] Nag'molada (ID: 16834578/0x0100E012) [7286*]:
    → "The darkness that eats away at the very soul of Vana'diel. The darkness known as the "Emptiness.""
142: 0x087C [0x23] WAIT_FOR_DIALOG_INTERACTION
143: 0x087D [0x52] END_LOAD_SCHEDULER: End scheduler "y002" with entities [LocalPlayer, LocalPlayer], work=73*
144: 0x088C [0x45] LOAD_SCHEDULED_TASK: Load scheduler "ovl1" with entities [??? (ID: 16834577/0x0100E011), ??? (ID: 16834577/0x0100E011)], work=[200*, 0*]
145: 0x089D [0x45] LOAD_SCHEDULED_TASK: Load scheduler "y003" with entities [LocalPlayer, LocalPlayer], work=[73*, 0*]
146: 0x08AE [0x1C] WAIT(30* ticks)
147: 0x08B1 [0x2B] Nag'molada (ID: 16834578/0x0100E012) [7287*]:
    → "And you. You were born with the Emptiness. You brought it with you into our world. From where did you bring it?"
148: 0x08B8 [0x23] WAIT_FOR_DIALOG_INTERACTION
149: 0x08B9 [0x1C] WAIT(60* ticks)
150: 0x08BC [0x55] WAIT_LOAD_SCHEDULER: Wait for scheduler "y003" with entities [LocalPlayer, LocalPlayer], work=73*
151: 0x08CB [0x4A] Wolfgang (ID: 16834576/0x0100E010) looks at ??? (ID: 16834577/0x0100E011)
152: 0x08D4 [0x81] SET_ENTITY_BLINKING(blink_flag=0x00, entity=??? (ID: 16834577/0x0100E011))
153: 0x08DA [0x7C] ??? (ID: 16834577/0x0100E011)->Render.Flags2 |= 0x00
154: 0x08E0 [0x45] LOAD_SCHEDULED_TASK: Load scheduler "ovl1" with entities [??? (ID: 16834577/0x0100E011), ??? (ID: 16834577/0x0100E011)], work=[200*, 0*]
155: 0x08F1 [0x45] LOAD_SCHEDULED_TASK: Load scheduler "y010" with entities [LocalPlayer, LocalPlayer], work=[73*, 0*]
156: 0x0902 [0x55] WAIT_LOAD_SCHEDULER: Wait for scheduler "y010" with entities [LocalPlayer, LocalPlayer], work=73*
157: 0x0911 [0x1C] WAIT(60* ticks)
158: 0x0914 [0x2B] ??? (ID: 16834577/0x0100E011) [7288*]:
    → "..."
159: 0x091B [0x23] WAIT_FOR_DIALOG_INTERACTION
160: 0x091C [0x1C] WAIT(10* ticks)
161: 0x091F [0x45] LOAD_SCHEDULED_TASK: Load scheduler "y004" with entities [LocalPlayer, LocalPlayer], work=[73*, 0*]
162: 0x0930 [0x55] WAIT_LOAD_SCHEDULER: Wait for scheduler "y004" with entities [LocalPlayer, LocalPlayer], work=73*
163: 0x093F [0x81] SET_ENTITY_BLINKING(blink_flag=0x01, entity=??? (ID: 16834577/0x0100E011))
164: 0x0945 [0x1C] WAIT(10* ticks)
165: 0x0948 [0x4A] Nag'molada (ID: 16834578/0x0100E012) looks at Wolfgang (ID: 16834576/0x0100E010)
166: 0x0951 [0x6F] WAIT_FRAME_DELAY: Yield until WaitTime reaches zero
167: 0x0952 [0x76] CHECK_ENTITY_RENDER_FLAGS: Wait until Nag'molada (ID: 16834578/0x0100E012) Render.Flags0 and Render.Flags3 conditions are met
168: 0x0957 [0x2B] Nag'molada (ID: 16834578/0x0100E012) [7289*]:
    → "Not going to answer, are we? Wolfgang, do you need any more proof?"
169: 0x095E [0x23] WAIT_FOR_DIALOG_INTERACTION
170: 0x095F [0x7B] Nag'molada (ID: 16834578/0x0100E012) stops talking
171: 0x0964 [0x2B] Nag'molada (ID: 16834578/0x0100E012) [7290*]:
    → "Do not forget your duty as the captain of the Ducal Guard. Any more hesitation in your decision-making and you'll end up like your father..."
172: 0x096B [0x23] WAIT_FOR_DIALOG_INTERACTION
173: 0x096C [0x27] REQ_SET(priority=0x03, entity_id=Nag'molada (ID: 16834578/0x0100E012), tag_num=0x04)
174: 0x0973 [0x1C] WAIT(90* ticks)
175: 0x0976 [0x45] LOAD_SCHEDULED_TASK: Load scheduler "ovl1" with entities [??? (ID: 16834577/0x0100E011), ??? (ID: 16834577/0x0100E011)], work=[200*, 0*]
176: 0x0987 [0x45] LOAD_SCHEDULED_TASK: Load scheduler "y006" with entities [LocalPlayer, LocalPlayer], work=[73*, 0*]
177: 0x0998 [0x1C] WAIT(60* ticks)
178: 0x099B [0x27] REQ_SET(priority=0x03, entity_id=Wolfgang (ID: 16834576/0x0100E010), tag_num=0x02)
179: 0x09A2 [0x1C] WAIT(20* ticks)
180: 0x09A5 [0x45] LOAD_SCHEDULED_TASK: Load scheduler "s087" with entities [??? (ID: 16834577/0x0100E011), ??? (ID: 16834577/0x0100E011)], work=[73*, 0*]
181: 0x09B6 [0x5D] SET_MUSIC_VOLUME(volume=0*, fade_time=0*)
182: 0x09BB [0x55] WAIT_LOAD_SCHEDULER: Wait for scheduler "y006" with entities [LocalPlayer, LocalPlayer], work=73*
183: 0x09CA [0x1C] WAIT(50* ticks)
184: 0x09CD [0x45] LOAD_SCHEDULED_TASK: Load scheduler "y007" with entities [LocalPlayer, LocalPlayer], work=[73*, 0*]
185: 0x09DE [0x55] WAIT_LOAD_SCHEDULER: Wait for scheduler "y007" with entities [LocalPlayer, LocalPlayer], work=73*
186: 0x09ED [0x2B] Nag'molada (ID: 16834578/0x0100E012) [7291*]:
    → "You. Does the specimen need to be alive for us to collect sufficient data?"
187: 0x09F4 [0x23] WAIT_FOR_DIALOG_INTERACTION
188: 0x09F5 [0x27] REQ_SET(priority=0x03, entity_id=??? (ID: 16834579/0x0100E013), tag_num=0x02)
189: 0x09FC [0x1C] WAIT(15* ticks)
190: 0x09FF [0x2B] ??? (ID: 16834579/0x0100E013) [7292*]:
    → "Of course not, sir."
191: 0x0A06 [0x23] WAIT_FOR_DIALOG_INTERACTION
192: 0x0A07 [0x28] REQ_SET_WITH_CONDITIONS(priority=0x03, target_entity=Wolfgang (ID: 16834576/0x0100E010), tag_num=0x03)
193: 0x0A0E [0x1C] WAIT(2* ticks)
194: 0x0A11 [0x45] LOAD_SCHEDULED_TASK: Load scheduler "y008" with entities [LocalPlayer, LocalPlayer], work=[73*, 0*]
195: 0x0A22 [0x4E] SET_ENTITY_HIDE_FLAG: Hide Nag'molada (ID: 16834578/0x0100E012)
196: 0x0A28 [0x1C] WAIT(15* ticks)
197: 0x0A2B [0x45] LOAD_SCHEDULED_TASK: Load scheduler "s088" with entities [??? (ID: 16834577/0x0100E011), ??? (ID: 16834577/0x0100E011)], work=[73*, 0*]
198: 0x0A3C [0x1C] WAIT(40* ticks)
199: 0x0A3F [0x45] LOAD_SCHEDULED_TASK: Load scheduler "who0" with entities [LocalPlayer, LocalPlayer], work=[201*, 0*]
200: 0x0A50 [0x55] WAIT_LOAD_SCHEDULER: Wait for scheduler "y008" with entities [LocalPlayer, LocalPlayer], work=73*
201: 0x0A5F [0x2A] GET_REQ_LEVEL(level=3, entity_id=Wolfgang (ID: 16834576/0x0100E010))
202: 0x0A65 [0x55] WAIT_LOAD_SCHEDULER: Wait for scheduler "who0" with entities [LocalPlayer, LocalPlayer], work=201*
203: 0x0A74 [0x5D] SET_MUSIC_VOLUME(volume=0*, fade_time=0*)
204: 0x0A79 [0x4E] SET_ENTITY_HIDE_FLAG: Hide LocalPlayer
205: 0x0A7F [0x4E] SET_ENTITY_HIDE_FLAG: Show Nag'molada (ID: 16834578/0x0100E012)
206: 0x0A85 [0x7B] Wolfgang (ID: 16834576/0x0100E010) stops talking
207: 0x0A8A [0x7B] ??? (ID: 16834577/0x0100E011) stops talking
208: 0x0A8F [0x27] REQ_SET(priority=0x03, entity_id=??? (ID: 16834577/0x0100E011), tag_num=0x04)
209: 0x0A96 [0x27] REQ_SET(priority=0x03, entity_id=Wolfgang (ID: 16834576/0x0100E010), tag_num=0x04)
210: 0x0A9D [0x55] WAIT_LOAD_SCHEDULER: Wait for scheduler "y00e" with entities [LocalPlayer, LocalPlayer], work=73*
211: 0x0AAC [0x1C] WAIT(60* ticks)
212: 0x0AAF [0x45] LOAD_SCHEDULED_TASK: Load scheduler "se01" with entities [??? (ID: 16834577/0x0100E011), ??? (ID: 16834577/0x0100E011)], work=[208*, 0*]
213: 0x0AC0 [0x1C] WAIT(60* ticks)
214: 0x0AC3 [0x45] LOAD_SCHEDULED_TASK: Load scheduler "s121" with entities [LocalPlayer, LocalPlayer], work=[73*, 0*]
215: 0x0AD4 [0x45] LOAD_SCHEDULED_TASK: Load scheduler "y00e" with entities [LocalPlayer, LocalPlayer], work=[73*, 0*]
216: 0x0AE5 [0x1C] WAIT(180* ticks)
217: 0x0AE8 [0x45] LOAD_SCHEDULED_TASK: Load scheduler "whi1" with entities [LocalPlayer, LocalPlayer], work=[201*, 0*]
218: 0x0AF9 [0x55] WAIT_LOAD_SCHEDULER: Wait for scheduler "whi1" with entities [LocalPlayer, LocalPlayer], work=201*
219: 0x0B08 [0x1C] WAIT(90* ticks)
220: 0x0B0B [0x45] LOAD_SCHEDULED_TASK: Load scheduler "ovl1" with entities [??? (ID: 16834577/0x0100E011), ??? (ID: 16834577/0x0100E011)], work=[200*, 0*]
221: 0x0B1C [0x45] LOAD_SCHEDULED_TASK: Load scheduler "y009" with entities [LocalPlayer, LocalPlayer], work=[73*, 0*]
222: 0x0B2D [0x55] WAIT_LOAD_SCHEDULER: Wait for scheduler "y009" with entities [LocalPlayer, LocalPlayer], work=73*
223: 0x0B3C [0x45] LOAD_SCHEDULED_TASK: Load scheduler "y00a" with entities [LocalPlayer, LocalPlayer], work=[73*, 0*]
224: 0x0B4D [0x55] WAIT_LOAD_SCHEDULER: Wait for scheduler "y00a" with entities [LocalPlayer, LocalPlayer], work=73*
225: 0x0B5C [0x1C] WAIT(20* ticks)
226: 0x0B5F [0x2B] Wolfgang (ID: 16834576/0x0100E010) [7293*]:
    → "He... He didn't fight back? Why...?"
227: 0x0B66 [0x23] WAIT_FOR_DIALOG_INTERACTION
228: 0x0B67 [0x1C] WAIT(30* ticks)
229: 0x0B6A [0x27] REQ_SET(priority=0x03, entity_id=??? (ID: 16834577/0x0100E011), tag_num=0x05)
230: 0x0B71 [0x1C] WAIT(30* ticks)
231: 0x0B74 [0x5C] MUSIC_CONTROL: Set Idle (Day) music to song 222*
232: 0x0B78 [0x5C] MUSIC_CONTROL: Set Idle (Night) music to song 222*
233: 0x0B7C [0x45] LOAD_SCHEDULED_TASK: Load scheduler "s122" with entities [LocalPlayer, LocalPlayer], work=[73*, 0*]
234: 0x0B8D [0x45] LOAD_SCHEDULED_TASK: Load scheduler "ovl1" with entities [??? (ID: 16834577/0x0100E011), ??? (ID: 16834577/0x0100E011)], work=[200*, 0*]
235: 0x0B9E [0x45] LOAD_SCHEDULED_TASK: Load scheduler "y012" with entities [LocalPlayer, LocalPlayer], work=[73*, 0*]
236: 0x0BAF [0x55] WAIT_LOAD_SCHEDULER: Wait for scheduler "y012" with entities [LocalPlayer, LocalPlayer], work=73*
237: 0x0BBE [0x1C] WAIT(60* ticks)
238: 0x0BC1 [0x27] REQ_SET(priority=0x03, entity_id=Nag'molada (ID: 16834578/0x0100E012), tag_num=0x05)
239: 0x0BC8 [0x1C] WAIT(10* ticks)
240: 0x0BCB [0x45] LOAD_SCHEDULED_TASK: Load scheduler "y00b" with entities [LocalPlayer, LocalPlayer], work=[73*, 0*]
241: 0x0BDC [0x55] WAIT_LOAD_SCHEDULER: Wait for scheduler "y00b" with entities [LocalPlayer, LocalPlayer], work=73*
242: 0x0BEB [0x4E] SET_ENTITY_HIDE_FLAG: Hide Wolfgang (ID: 16834576/0x0100E010)
243: 0x0BF1 [0x2B] Nag'molada (ID: 16834578/0x0100E012) [7294*]:
    → "!?"
244: 0x0BF8 [0x23] WAIT_FOR_DIALOG_INTERACTION
245: 0x0BF9 [0x2A] GET_REQ_LEVEL(level=3, entity_id=Nag'molada (ID: 16834578/0x0100E012))
246: 0x0BFF [0x1C] WAIT(15* ticks)
247: 0x0C02 [0x45] LOAD_SCHEDULED_TASK: Load scheduler "y00c" with entities [LocalPlayer, LocalPlayer], work=[73*, 0*]
248: 0x0C13 [0x55] WAIT_LOAD_SCHEDULER: Wait for scheduler "y00c" with entities [LocalPlayer, LocalPlayer], work=73*
249: 0x0C22 [0x1C] WAIT(160* ticks)
250: 0x0C25 [0x45] LOAD_SCHEDULED_TASK: Load scheduler "y011" with entities [LocalPlayer, LocalPlayer], work=[73*, 0*]
251: 0x0C36 [0x55] WAIT_LOAD_SCHEDULER: Wait for scheduler "y011" with entities [LocalPlayer, LocalPlayer], work=73*
252: 0x0C45 [0x1C] WAIT(60* ticks)
253: 0x0C48 [0x45] LOAD_SCHEDULED_TASK: Load scheduler "ovl1" with entities [??? (ID: 16834577/0x0100E011), ??? (ID: 16834577/0x0100E011)], work=[200*, 0*]
254: 0x0C59 [0x45] LOAD_SCHEDULED_TASK: Load scheduler "y00d" with entities [LocalPlayer, LocalPlayer], work=[73*, 0*]
255: 0x0C6A [0x55] WAIT_LOAD_SCHEDULER: Wait for scheduler "y00d" with entities [LocalPlayer, LocalPlayer], work=73*
256: 0x0C79 [0x1C] WAIT(60* ticks)
257: 0x0C7C [0x45] LOAD_SCHEDULED_TASK: Load scheduler "fdo2" with entities [LocalPlayer, LocalPlayer], work=[200*, 0*]
258: 0x0C8D [0x55] WAIT_LOAD_SCHEDULER: Wait for scheduler "fdo2" with entities [LocalPlayer, LocalPlayer], work=200*
259: 0x0C9C [0xA3] END_LOAD_SCHEDULER_MAIN_ALT: End scheduler "str0" with entities [??? (ID: 16834577/0x0100E011), ??? (ID: 16834577/0x0100E011)], work=79*
260: 0x0CAB [0x45] LOAD_SCHEDULED_TASK: Load scheduler "s12k" with entities [??? (ID: 16834577/0x0100E011), ??? (ID: 16834577/0x0100E011)], work=[73*, 0*]
261: 0x0CBC [0x46] CAMERA_CONTROL: Restore default settings
262: 0x0CBE [0x02] IF !(ExtData[1]->WorkLocal[0] == 1*) GOTO 0x0CEA
263: 0x0CC6 [0x5D] SET_MUSIC_VOLUME(volume=0*, fade_time=300*)
264: 0x0CCB [0x1C] WAIT(300* ticks)
265: 0x0CCE [0x5C] MUSIC_CONTROL: Set Idle (Day) music to song 0*
266: 0x0CD2 [0x5C] MUSIC_CONTROL: Set Idle (Night) music to song 0*
267: 0x0CD6 [0x45] LOAD_SCHEDULED_TASK: Load scheduler "fdi2" with entities [LocalPlayer, LocalPlayer], work=[200*, 0*]
268: 0x0CE7 [0x01] GOTO 0x0CEB
269: 0x0CEA [0x30] SET_UCOFF_CONTINUE_ZERO()

SUBROUTINE_0CEB:
270: 0x0CEB [0x21] END_EVENT
271: 0x0CEC [0x00] END_REQSTACK()
```

### Event 65535.8

#### Metadata

| Field        | Value    |
|--------------|----------|
| Entrypoint   | 0x0CED   |
| Data Size    | 24 bytes |
| Instructions | 4        |

```
      00 01 02 03 04 05 06 07  08 09 0A 0B 0C 0D 0E 0F
      -- -- -- -- -- -- -- --  -- -- -- -- -- -- -- --
0CE0:                                         03 01 00               ...
0CF0: 07 7F 1A 67 0D 66 02 00  F8 FF FF 7F F8 FF FF 7F  ...g.f..........
0D00: 74 6C 6B 30 00                                    tlk0.           
```

#### Opcodes

```
  0: 0x0CED [0x03] ExtData[1]->WorkLocal[1] = Entity->Race
  1: 0x0CF2 [0x1A] CALL_SUBROUTINE(address=0x0D67)
  2: 0x0CF5 [0x66] LOAD_EXT_SCHEDULER_MAIN: Load scheduler "tlk0" with entities [EventEntity, EventEntity], work=ExtData[1]->WorkLocal[2]
  3: 0x0D04 [0x00] END_REQSTACK()
```

### Event 65535.9

#### Metadata

| Field        | Value    |
|--------------|----------|
| Entrypoint   | 0x0D05   |
| Data Size    | 24 bytes |
| Instructions | 4        |

```
      00 01 02 03 04 05 06 07  08 09 0A 0B 0C 0D 0E 0F
      -- -- -- -- -- -- -- --  -- -- -- -- -- -- -- --
0D00:                03 01 00  07 7F 1A 67 0D 66 02 00       ......g.f..
0D10: F8 FF FF 7F F8 FF FF 7F  74 6C 6B 31 00           ........tlk1.   
```

#### Opcodes

```
  0: 0x0D05 [0x03] ExtData[1]->WorkLocal[1] = Entity->Race
  1: 0x0D0A [0x1A] CALL_SUBROUTINE(address=0x0D67)
  2: 0x0D0D [0x66] LOAD_EXT_SCHEDULER_MAIN: Load scheduler "tlk1" with entities [EventEntity, EventEntity], work=ExtData[1]->WorkLocal[2]
  3: 0x0D1C [0x00] END_REQSTACK()
```

### Event 65535.10

#### Metadata

| Field        | Value    |
|--------------|----------|
| Entrypoint   | 0x0D1D   |
| Data Size    | 37 bytes |
| Instructions | 5        |

```
      00 01 02 03 04 05 06 07  08 09 0A 0B 0C 0D 0E 0F
      -- -- -- -- -- -- -- --  -- -- -- -- -- -- -- --
0D10:                                         03 01 00               ...
0D20: 07 7F 1A 67 0D 66 02 00  F8 FF FF 7F F8 FF FF 7F  ...g.f..........
0D30: 73 68 61 30 53 F8 FF FF  7F F8 FF FF 7F 73 68 61  sha0S........sha
0D40: 30 00                                             0.              
```

#### Opcodes

```
  0: 0x0D1D [0x03] ExtData[1]->WorkLocal[1] = Entity->Race
  1: 0x0D22 [0x1A] CALL_SUBROUTINE(address=0x0D67)
  2: 0x0D25 [0x66] LOAD_EXT_SCHEDULER_MAIN: Load scheduler "sha0" with entities [EventEntity, EventEntity], work=ExtData[1]->WorkLocal[2]
  3: 0x0D34 [0x53] WAIT_SCHEDULER_TASK: Wait for scheduler "sha0" with entities [EventEntity, EventEntity]
  4: 0x0D41 [0x00] END_REQSTACK()
```

### Event 65535.11

#### Metadata

| Field        | Value     |
|--------------|-----------|
| Entrypoint   | 0x0D42    |
| Data Size    | 185 bytes |
| Instructions | 13        |

```
      00 01 02 03 04 05 06 07  08 09 0A 0B 0C 0D 0E 0F
      -- -- -- -- -- -- -- --  -- -- -- -- -- -- -- --
0D40:       03 01 00 07 7F 1A  67 0D 66 02 00 F8 FF FF    ......g.f.....
0D50: 7F F8 FF FF 7F 73 68 61  31 53 F8 FF FF 7F F8 FF  .....sha1S......
0D60: FF 7F 73 68 61 31 00 03  02 00 01 00 02 02 00 37  ..sha1.........7
0D70: 80 05 7C 0D 08 02 00 20  80 01 81 0D 08 02 00 2D  ..|.... .......-
0D80: 80 14 02 00 36 80 07 02  00 5D 80 1B 03 02 00 01  ....6....]......
0D90: 00 02 02 00 37 80 05 A1  0D 08 02 00 20 80 01 A6  ....7....... ...
0DA0: 0D 08 02 00 2D 80 14 02  00 36 80 07 02 00 5E 80  ....-....6....^.
0DB0: 1B 03 02 00 01 00 02 02  00 37 80 05 C6 0D 08 02  .........7......
0DC0: 00 20 80 01 CB 0D 08 02  00 2D 80 14 02 00 36 80  . .......-....6.
0DD0: 07 02 00 2C 80 1B 03 02  00 01 00 02 02 00 37 80  ...,..........7.
0DE0: 05 EB 0D 08 02 00 20 80  01 F0 0D 08 02 00 2D 80  ...... .......-.
0DF0: 14 02 00 36 80 07 02 00  5F 80 1B                 ...6...._..     
```

#### Opcodes

```
  0: 0x0D42 [0x03] ExtData[1]->WorkLocal[1] = Entity->Race
  1: 0x0D47 [0x1A] CALL_SUBROUTINE(address=0x0D67)
  2: 0x0D4A [0x66] LOAD_EXT_SCHEDULER_MAIN: Load scheduler "sha1" with entities [EventEntity, EventEntity], work=ExtData[1]->WorkLocal[2]
  3: 0x0D59 [0x53] WAIT_SCHEDULER_TASK: Wait for scheduler "sha1" with entities [EventEntity, EventEntity]
  4: 0x0D66 [0x00] END_REQSTACK()

SUBROUTINE_0D67:
  5: 0x0D67 [0x03] ExtData[1]->WorkLocal[2] = ExtData[1]->WorkLocal[1]
  6: 0x0D6C [0x02] IF !(ExtData[1]->WorkLocal[2] > 5*) GOTO 0x0D7C
  7: 0x0D74 [0x08] ExtData[1]->WorkLocal[2] -= 1*
  8: 0x0D79 [0x01] GOTO 0x0D81
  9: 0x0D7C [0x08] ExtData[1]->WorkLocal[2] -= 2*

SUBROUTINE_0D81:
 10: 0x0D81 [0x14] ExtData[1]->WorkLocal[2] *= 10*
 11: 0x0D86 [0x07] ExtData[1]->WorkLocal[2] += 9*
 12: 0x0D8B [0x1B] RETURN
```

#### Data or dead code:

```
# Dead code (unreachable instructions):
     0x0D8C [0x03] ExtData[1]->WorkLocal[2] = ExtData[1]->WorkLocal[1]
     0x0D91 [0x02] IF !(ExtData[1]->WorkLocal[2] > 5*) GOTO 0x0DA1
     0x0D99 [0x08] ExtData[1]->WorkLocal[2] -= 1*
     0x0D9E [0x01] GOTO 0x0DA6
     0x0DA1 [0x08] ExtData[1]->WorkLocal[2] -= 2*
     0x0DA6 [0x14] ExtData[1]->WorkLocal[2] *= 10*
     0x0DAB [0x07] ExtData[1]->WorkLocal[2] += 70*
     0x0DB0 [0x1B] RETURN
     0x0DB1 [0x03] ExtData[1]->WorkLocal[2] = ExtData[1]->WorkLocal[1]
     0x0DB6 [0x02] IF !(ExtData[1]->WorkLocal[2] > 5*) GOTO 0x0DC6
     0x0DBE [0x08] ExtData[1]->WorkLocal[2] -= 1*
     0x0DC3 [0x01] GOTO 0x0DCB
     0x0DC6 [0x08] ExtData[1]->WorkLocal[2] -= 2*
     0x0DCB [0x14] ExtData[1]->WorkLocal[2] *= 10*
     0x0DD0 [0x07] ExtData[1]->WorkLocal[2] += 140*
     0x0DD5 [0x1B] RETURN
     0x0DD6 [0x03] ExtData[1]->WorkLocal[2] = ExtData[1]->WorkLocal[1]
     0x0DDB [0x02] IF !(ExtData[1]->WorkLocal[2] > 5*) GOTO 0x0DEB
     0x0DE3 [0x08] ExtData[1]->WorkLocal[2] -= 1*
     0x0DE8 [0x01] GOTO 0x0DF0
     0x0DEB [0x08] ExtData[1]->WorkLocal[2] -= 2*
     0x0DF0 [0x14] ExtData[1]->WorkLocal[2] *= 10*
     0x0DF5 [0x07] ExtData[1]->WorkLocal[2] += 210*
     0x0DFA [0x1B] RETURN
```

### Event 65535.12

#### Metadata

| Field        | Value    |
|--------------|----------|
| Entrypoint   | 0x0DFB   |
| Data Size    | 14 bytes |
| Instructions | 4        |

```
      00 01 02 03 04 05 06 07  08 09 0A 0B 0C 0D 0E 0F
      -- -- -- -- -- -- -- --  -- -- -- -- -- -- -- --
0DF0:                                   32 08 80 1F 00             2....
0E00: 60 80 61 80 62 80 1F 01  00                       `.a.b....       
```

#### Opcodes

```
  0: 0x0DFB [0x32] ExtData[1]->MainSpeed = 40* * 0.1
  1: 0x0DFE [0x1F] MOVE_ENTITY: EventEntity moves to X=-400.072*, Z=348.207*, Y=-19.099*
  2: 0x0E06 [0x1F] MOVE_ENTITY: Update entity position (mode=1)
  3: 0x0E08 [0x00] END_REQSTACK()
```

### Event 65535.13

#### Metadata

| Field        | Value    |
|--------------|----------|
| Entrypoint   | 0x0E09   |
| Data Size    | 14 bytes |
| Instructions | 4        |

```
      00 01 02 03 04 05 06 07  08 09 0A 0B 0C 0D 0E 0F
      -- -- -- -- -- -- -- --  -- -- -- -- -- -- -- --
0E00:                             32 00 80 1F 00 63 80           2....c.
0E10: 64 80 62 80 1F 01 00                              d.b....         
```

#### Opcodes

```
  0: 0x0E09 [0x32] ExtData[1]->MainSpeed = 13* * 0.1
  1: 0x0E0C [0x1F] MOVE_ENTITY: EventEntity moves to X=-400.012*, Z=335.800*, Y=-19.099*
  2: 0x0E14 [0x1F] MOVE_ENTITY: Update entity position (mode=1)
  3: 0x0E16 [0x00] END_REQSTACK()
```

### Event 65535.14

#### Metadata

| Field        | Value    |
|--------------|----------|
| Entrypoint   | 0x0E17   |
| Data Size    | 10 bytes |
| Instructions | 2        |

```
      00 01 02 03 04 05 06 07  08 09 0A 0B 0C 0D 0E 0F
      -- -- -- -- -- -- -- --  -- -- -- -- -- -- -- --
0E10:                      6C  F8 FF FF 7F 1A 80 20 80         l...... .
0E20: 00                                                .               
```

#### Opcodes

```
  0: 0x0E17 [0x6C] FADE_ENTITY_COLOR(entity_id=EventEntity, end_alpha=0*, fade_time=1*)
  1: 0x0E20 [0x00] END_REQSTACK()
```

### Event 65535.15

#### Metadata

| Field        | Value    |
|--------------|----------|
| Entrypoint   | 0x0E21   |
| Data Size    | 10 bytes |
| Instructions | 2        |

```
      00 01 02 03 04 05 06 07  08 09 0A 0B 0C 0D 0E 0F
      -- -- -- -- -- -- -- --  -- -- -- -- -- -- -- --
0E20:    6C F8 FF FF 7F 65 80  20 80 00                  l....e. ..     
```

#### Opcodes

```
  0: 0x0E21 [0x6C] FADE_ENTITY_COLOR(entity_id=EventEntity, end_alpha=128*, fade_time=1*)
  1: 0x0E2A [0x00] END_REQSTACK()
```

### Event 65535.16

#### Metadata

| Field        | Value    |
|--------------|----------|
| Entrypoint   | 0x0E2B   |
| Data Size    | 38 bytes |
| Instructions | 5        |

```
      00 01 02 03 04 05 06 07  08 09 0A 0B 0C 0D 0E 0F
      -- -- -- -- -- -- -- --  -- -- -- -- -- -- -- --
0E20:                                   22 00 2F 00 F8             "./..
0E30: FF FF 7F B6 0B 3C 80 66  80 67 80 5B 80 68 80 68  .....<.f.g.[.h.h
0E40: 80 68 80 2A 80 69 80 6C  F8 FF FF 7F 6A 80 20 80  .h.*.i.l....j. .
0E50: 00                                                .               
```

#### Opcodes

```
  0: 0x0E2B [0x22] ENTITY_HIDE_FLAG(enabled=0x00)
  1: 0x0E2D [0x2F] EventEntity->Render.Flags0 &= ~0x80000 // Bit 19
  2: 0x0E33 [0xB6] ENTITY_APPEARANCE_HANDLER(case=Full entity look, race=8*, hair=7*, head=145*, body=79*, hands=76*, legs=76*, feet=76*, main=201*, sub=24*)
  3: 0x0E47 [0x6C] FADE_ENTITY_COLOR(entity_id=EventEntity, end_alpha=32*, fade_time=1*)
  4: 0x0E50 [0x00] END_REQSTACK()
```

### Event 65535.17

#### Metadata

| Field        | Value    |
|--------------|----------|
| Entrypoint   | 0x0E51   |
| Data Size    | 38 bytes |
| Instructions | 5        |

```
      00 01 02 03 04 05 06 07  08 09 0A 0B 0C 0D 0E 0F
      -- -- -- -- -- -- -- --  -- -- -- -- -- -- -- --
0E50:    22 00 2F 00 F8 FF FF  7F B6 0B 66 80 66 80 67   "./.......f.f.g
0E60: 80 5B 80 68 80 68 80 68  80 2A 80 69 80 6C F8 FF  .[.h.h.h.*.i.l..
0E70: FF 7F 6B 80 20 80 00                              ..k. ..         
```

#### Opcodes

```
  0: 0x0E51 [0x22] ENTITY_HIDE_FLAG(enabled=0x00)
  1: 0x0E53 [0x2F] EventEntity->Render.Flags0 &= ~0x80000 // Bit 19
  2: 0x0E59 [0xB6] ENTITY_APPEARANCE_HANDLER(case=Full entity look, race=7*, hair=7*, head=145*, body=79*, hands=76*, legs=76*, feet=76*, main=201*, sub=24*)
  3: 0x0E6D [0x6C] FADE_ENTITY_COLOR(entity_id=EventEntity, end_alpha=48*, fade_time=1*)
  4: 0x0E76 [0x00] END_REQSTACK()
```

### Event 65535.18

#### Metadata

| Field        | Value    |
|--------------|----------|
| Entrypoint   | 0x0E77   |
| Data Size    | 38 bytes |
| Instructions | 5        |

```
      00 01 02 03 04 05 06 07  08 09 0A 0B 0C 0D 0E 0F
      -- -- -- -- -- -- -- --  -- -- -- -- -- -- -- --
0E70:                      22  00 2F 00 F8 FF FF 7F B6         "./......
0E80: 0B 37 80 66 80 67 80 5B  80 68 80 68 80 68 80 2A  .7.f.g.[.h.h.h.*
0E90: 80 69 80 6C F8 FF FF 7F  6C 80 20 80 00           .i.l....l. ..   
```

#### Opcodes

```
  0: 0x0E77 [0x22] ENTITY_HIDE_FLAG(enabled=0x00)
  1: 0x0E79 [0x2F] EventEntity->Render.Flags0 &= ~0x80000 // Bit 19
  2: 0x0E7F [0xB6] ENTITY_APPEARANCE_HANDLER(case=Full entity look, race=5*, hair=7*, head=145*, body=79*, hands=76*, legs=76*, feet=76*, main=201*, sub=24*)
  3: 0x0E93 [0x6C] FADE_ENTITY_COLOR(entity_id=EventEntity, end_alpha=64*, fade_time=1*)
  4: 0x0E9C [0x00] END_REQSTACK()
```

### Event 65535.19

#### Metadata

| Field        | Value    |
|--------------|----------|
| Entrypoint   | 0x0E9D   |
| Data Size    | 37 bytes |
| Instructions | 5        |

```
      00 01 02 03 04 05 06 07  08 09 0A 0B 0C 0D 0E 0F
      -- -- -- -- -- -- -- --  -- -- -- -- -- -- -- --
0E90:                                         03 01 00               ...
0EA0: 07 7F 1A 67 0D 66 02 00  F8 FF FF 7F F8 FF FF 7F  ...g.f..........
0EB0: 73 69 74 30 53 F8 FF FF  7F F8 FF FF 7F 73 69 74  sit0S........sit
0EC0: 30 00                                             0.              
```

#### Opcodes

```
  0: 0x0E9D [0x03] ExtData[1]->WorkLocal[1] = Entity->Race
  1: 0x0EA2 [0x1A] CALL_SUBROUTINE(address=0x0D67)
  2: 0x0EA5 [0x66] LOAD_EXT_SCHEDULER_MAIN: Load scheduler "sit0" with entities [EventEntity, EventEntity], work=ExtData[1]->WorkLocal[2]
  3: 0x0EB4 [0x53] WAIT_SCHEDULER_TASK: Wait for scheduler "sit0" with entities [EventEntity, EventEntity]
  4: 0x0EC1 [0x00] END_REQSTACK()
```

### Event 65535.20

#### Metadata

| Field        | Value    |
|--------------|----------|
| Entrypoint   | 0x0EC2   |
| Data Size    | 37 bytes |
| Instructions | 5        |

```
      00 01 02 03 04 05 06 07  08 09 0A 0B 0C 0D 0E 0F
      -- -- -- -- -- -- -- --  -- -- -- -- -- -- -- --
0EC0:       03 01 00 07 7F 1A  67 0D 66 02 00 F8 FF FF    ......g.f.....
0ED0: 7F F8 FF FF 7F 73 69 74  31 53 F8 FF FF 7F F8 FF  .....sit1S......
0EE0: FF 7F 73 69 74 31 00                              ..sit1.         
```

#### Opcodes

```
  0: 0x0EC2 [0x03] ExtData[1]->WorkLocal[1] = Entity->Race
  1: 0x0EC7 [0x1A] CALL_SUBROUTINE(address=0x0D67)
  2: 0x0ECA [0x66] LOAD_EXT_SCHEDULER_MAIN: Load scheduler "sit1" with entities [EventEntity, EventEntity], work=ExtData[1]->WorkLocal[2]
  3: 0x0ED9 [0x53] WAIT_SCHEDULER_TASK: Wait for scheduler "sit1" with entities [EventEntity, EventEntity]
  4: 0x0EE6 [0x00] END_REQSTACK()
```

### Event 65535.21

#### Metadata

| Field        | Value    |
|--------------|----------|
| Entrypoint   | 0x0EE7   |
| Data Size    | 42 bytes |
| Instructions | 6        |

```
      00 01 02 03 04 05 06 07  08 09 0A 0B 0C 0D 0E 0F
      -- -- -- -- -- -- -- --  -- -- -- -- -- -- -- --
0EE0:                      03  01 00 07 7F 1A 67 0D 66         ......g.f
0EF0: 02 00 F8 FF FF 7F F8 FF  FF 7F 74 6C 6B 30 1C 23  ..........tlk0.#
0F00: 80 66 02 00 F8 FF FF 7F  F8 FF FF 7F 74 6C 6B 31  .f..........tlk1
0F10: 00                                                .               
```

#### Opcodes

```
  0: 0x0EE7 [0x03] ExtData[1]->WorkLocal[1] = Entity->Race
  1: 0x0EEC [0x1A] CALL_SUBROUTINE(address=0x0D67)
  2: 0x0EEF [0x66] LOAD_EXT_SCHEDULER_MAIN: Load scheduler "tlk0" with entities [EventEntity, EventEntity], work=ExtData[1]->WorkLocal[2]
  3: 0x0EFE [0x1C] WAIT(60* ticks)
  4: 0x0F01 [0x66] LOAD_EXT_SCHEDULER_MAIN: Load scheduler "tlk1" with entities [EventEntity, EventEntity], work=ExtData[1]->WorkLocal[2]
  5: 0x0F10 [0x00] END_REQSTACK()
```
