# 16994382 - Ququroon

## Common Data

| Field            | Value            |
|------------------|------------------|
| Zone             | Nashmau (ID: 53) |
| Block Size       | 360 bytes        |
| Total Events     | 14               |
| References Count | 27               |

## List of Events

| Event ID                 | Entrypoint   |   Size |   Instructions |
|--------------------------|--------------|--------|----------------|
| [65535](#event-65535)    | 0x0000       |      1 |              1 |
| [241](#event-241)        | 0x0001       |      1 |              1 |
| [242](#event-242)        | 0x0002       |     66 |             15 |
| [243](#event-243)        | 0x0044       |      1 |              1 |
| [65535.1](#event-655351) | 0x0045       |     14 |              4 |
| [244](#event-244)        | 0x0053       |     29 |              7 |
| [309](#event-309)        | 0x0070       |      1 |              1 |
| [310](#event-310)        | 0x0071       |      1 |              1 |
| [311](#event-311)        | 0x0072       |      1 |              1 |
| [312](#event-312)        | 0x0073       |      1 |              1 |
| [65535.2](#event-655352) | 0x0074       |     15 |              5 |
| [65535.3](#event-655353) | 0x0083       |     15 |              5 |
| [65535.4](#event-655354) | 0x0092       |     15 |              5 |
| [315](#event-315)        | 0x00A1       |     19 |              9 |

## DAT References (imed_data)

|   Index | Hex Value   |   Dec Value |
|---------|-------------|-------------|
|       0 | 0x001E      |          30 |
|       1 | 0x0001      |           1 |
|       2 | 0x2976      |       10614 |
|       3 | 0x034B      |         843 |
|       4 | 0x154D      |        5453 |
|       5 | 0x154E      |        5454 |
|       6 | 0x154F      |        5455 |
|       7 | 0x1550      |        5456 |
|       8 | 0x1410      |        5136 |
|       9 | 0x297F      |       10623 |
|      10 | 0x000D      |          13 |
|      11 | 0xFFFFFF3B  |  4294967099 |
|      12 | 0x104F9     |       66809 |
|      13 | 0x0000      |           0 |
|      14 | 0x034A      |         842 |
|      15 | 0x2974      |       10612 |
|      16 | 0x0028      |          40 |
|      17 | 0x097A      |        2426 |
|      18 | 0x28C3      |       10435 |
|      19 | 0x0A6B      |        2667 |
|      20 | 0x15F4      |        5620 |
|      21 | 0x000B      |          11 |
|      22 | 0x0D70      |        3440 |
|      23 | 0xFFFF68C5  |  4294928581 |
|      24 | 0x2CEE      |       11502 |
|      25 | 0x2CEF      |       11503 |
|      26 | 0x2CF0      |       11504 |

## String References

- **10612**: Ququroon's dream is tooo open Ququroon restaurant.t
- **10614**: Ququroon has no foood... No goood for Ququroon.
- **10623**: Thank yooo! Thank yooo! Ququroon need $0, $1, $2, $3, and $4.t
- **11502**: Adventurer take sooon?
- **11503**: Must take sooon or stooo goes cold!
- **11504**: Tarooo family? They are with Kyokyoroon!

## Events

### Event 65535

#### Metadata

| Field        | Value   |
|--------------|---------|
| Entrypoint   | 0x0000  |
| Data Size    | 1 bytes |
| Instructions | 1       |

```
      00 01 02 03 04 05 06 07  08 09 0A 0B 0C 0D 0E 0F
      -- -- -- -- -- -- -- --  -- -- -- -- -- -- -- --
0000: 00                                                .               
```

#### Opcodes

```
  0: 0x0000 [0x00] END_REQSTACK()
```

### Event 241

#### Metadata

| Field        | Value   |
|--------------|---------|
| Entrypoint   | 0x0001  |
| Data Size    | 1 bytes |
| Instructions | 1       |

```
      00 01 02 03 04 05 06 07  08 09 0A 0B 0C 0D 0E 0F
      -- -- -- -- -- -- -- --  -- -- -- -- -- -- -- --
0000:    00                                              .              
```

#### Opcodes

```
  0: 0x0001 [0x00] END_REQSTACK()
```

### Event 242

#### Metadata

| Field        | Value    |
|--------------|----------|
| Entrypoint   | 0x0002   |
| Data Size    | 66 bytes |
| Instructions | 15       |

```
      00 01 02 03 04 05 06 07  08 09 0A 0B 0C 0D 0E 0F
      -- -- -- -- -- -- -- --  -- -- -- -- -- -- -- --
0000:       1E F0 FF FF 7F 1C  00 80 02 02 10 01 80 00    ..............
0010: 16 00 1D 02 80 23 5B 03  80 4E 50 03 01 4E 50 03  .....#[..NP..NP.
0020: 01 74 6C 62 30 03 02 10  04 80 03 03 10 05 80 03  .tlb0...........
0030: 04 10 06 80 03 05 10 07  80 03 06 10 08 80 1D 09  ................
0040: 80 23 21 00                                       .#!.            
```

#### Opcodes

```
  0: 0x0002 [0x1E] EventEntity looks at LocalPlayer and starts talking
  1: 0x0007 [0x1C] WAIT(30* ticks)
  2: 0x000A [0x02] IF !(Work_Zone[2] == 1*) GOTO 0x0016
  3: 0x0012 [0x1D] PRINT_EVENT_MESSAGE(message_id=10614*)
    → "Ququroon has no foood... No goood for Ququroon."
  4: 0x0015 [0x23] WAIT_FOR_DIALOG_INTERACTION
  5: 0x0016 [0x5B] LOAD_EXT_SCHEDULER: Load scheduler "tlb0" with entities [Ququroon (ID: 16994382/0x0103504E), Ququroon (ID: 16994382/0x0103504E)], work=843*
  6: 0x0025 [0x03] Work_Zone[2] = 5453*
  7: 0x002A [0x03] Work_Zone[3] = 5454*
  8: 0x002F [0x03] Work_Zone[4] = 5455*
  9: 0x0034 [0x03] Work_Zone[5] = 5456*
 10: 0x0039 [0x03] Work_Zone[6] = 5136*
 11: 0x003E [0x1D] PRINT_EVENT_MESSAGE(message_id=10623*)
    → "Thank yooo! Thank yooo! Ququroon need $0, $1, $2, $3, and $4.t"
 12: 0x0041 [0x23] WAIT_FOR_DIALOG_INTERACTION
 13: 0x0042 [0x21] END_EVENT
 14: 0x0043 [0x00] END_REQSTACK()
```

### Event 243

#### Metadata

| Field        | Value   |
|--------------|---------|
| Entrypoint   | 0x0044  |
| Data Size    | 1 bytes |
| Instructions | 1       |

```
      00 01 02 03 04 05 06 07  08 09 0A 0B 0C 0D 0E 0F
      -- -- -- -- -- -- -- --  -- -- -- -- -- -- -- --
0040:             00                                        .           
```

#### Opcodes

```
  0: 0x0044 [0x00] END_REQSTACK()
```

### Event 65535.1

#### Metadata

| Field        | Value    |
|--------------|----------|
| Entrypoint   | 0x0045   |
| Data Size    | 14 bytes |
| Instructions | 4        |

```
      00 01 02 03 04 05 06 07  08 09 0A 0B 0C 0D 0E 0F
      -- -- -- -- -- -- -- --  -- -- -- -- -- -- -- --
0040:                32 0A 80  1F 00 0B 80 0C 80 0D 80       2..........
0050: 1F 01 00                                          ...             
```

#### Opcodes

```
  0: 0x0045 [0x32] ExtData[1]->MainSpeed = 13* * 0.1
  1: 0x0048 [0x1F] MOVE_ENTITY: EventEntity moves to X=-0.197*, Z=66.809*, Y=0.000*
  2: 0x0050 [0x1F] MOVE_ENTITY: Update entity position (mode=1)
  3: 0x0052 [0x00] END_REQSTACK()
```

### Event 244

#### Metadata

| Field        | Value    |
|--------------|----------|
| Entrypoint   | 0x0053   |
| Data Size    | 29 bytes |
| Instructions | 7        |

```
      00 01 02 03 04 05 06 07  08 09 0A 0B 0C 0D 0E 0F
      -- -- -- -- -- -- -- --  -- -- -- -- -- -- -- --
0050:          1E F0 FF FF 7F  1C 00 80 5B 0E 80 4E 50     ........[..NP
0060: 03 01 4E 50 03 01 74 6C  6B 30 1D 0F 80 23 21 00  ..NP..tlk0...#!.
```

#### Opcodes

```
  0: 0x0053 [0x1E] EventEntity looks at LocalPlayer and starts talking
  1: 0x0058 [0x1C] WAIT(30* ticks)
  2: 0x005B [0x5B] LOAD_EXT_SCHEDULER: Load scheduler "tlk0" with entities [Ququroon (ID: 16994382/0x0103504E), Ququroon (ID: 16994382/0x0103504E)], work=842*
  3: 0x006A [0x1D] PRINT_EVENT_MESSAGE(message_id=10612*)
    → "Ququroon's dream is tooo open Ququroon restaurant.t"
  4: 0x006D [0x23] WAIT_FOR_DIALOG_INTERACTION
  5: 0x006E [0x21] END_EVENT
  6: 0x006F [0x00] END_REQSTACK()
```

### Event 309

#### Metadata

| Field        | Value   |
|--------------|---------|
| Entrypoint   | 0x0070  |
| Data Size    | 1 bytes |
| Instructions | 1       |

```
      00 01 02 03 04 05 06 07  08 09 0A 0B 0C 0D 0E 0F
      -- -- -- -- -- -- -- --  -- -- -- -- -- -- -- --
0070: 00                                                .               
```

#### Opcodes

```
  0: 0x0070 [0x00] END_REQSTACK()
```

### Event 310

#### Metadata

| Field        | Value   |
|--------------|---------|
| Entrypoint   | 0x0071  |
| Data Size    | 1 bytes |
| Instructions | 1       |

```
      00 01 02 03 04 05 06 07  08 09 0A 0B 0C 0D 0E 0F
      -- -- -- -- -- -- -- --  -- -- -- -- -- -- -- --
0070:    00                                              .              
```

#### Opcodes

```
  0: 0x0071 [0x00] END_REQSTACK()
```

### Event 311

#### Metadata

| Field        | Value   |
|--------------|---------|
| Entrypoint   | 0x0072  |
| Data Size    | 1 bytes |
| Instructions | 1       |

```
      00 01 02 03 04 05 06 07  08 09 0A 0B 0C 0D 0E 0F
      -- -- -- -- -- -- -- --  -- -- -- -- -- -- -- --
0070:       00                                            .             
```

#### Opcodes

```
  0: 0x0072 [0x00] END_REQSTACK()
```

### Event 312

#### Metadata

| Field        | Value   |
|--------------|---------|
| Entrypoint   | 0x0073  |
| Data Size    | 1 bytes |
| Instructions | 1       |

```
      00 01 02 03 04 05 06 07  08 09 0A 0B 0C 0D 0E 0F
      -- -- -- -- -- -- -- --  -- -- -- -- -- -- -- --
0070:          00                                          .            
```

#### Opcodes

```
  0: 0x0073 [0x00] END_REQSTACK()
```

### Event 65535.2

#### Metadata

| Field        | Value    |
|--------------|----------|
| Entrypoint   | 0x0074   |
| Data Size    | 15 bytes |
| Instructions | 5        |

```
      00 01 02 03 04 05 06 07  08 09 0A 0B 0C 0D 0E 0F
      -- -- -- -- -- -- -- --  -- -- -- -- -- -- -- --
0070:             32 10 80 1F  00 11 80 12 80 0D 80 1F      2...........
0080: 01 6F 00                                          .o.             
```

#### Opcodes

```
  0: 0x0074 [0x32] ExtData[1]->MainSpeed = 40* * 0.1
  1: 0x0077 [0x1F] MOVE_ENTITY: EventEntity moves to X=2.426*, Z=10.435*, Y=0.000*
  2: 0x007F [0x1F] MOVE_ENTITY: Update entity position (mode=1)
  3: 0x0081 [0x6F] WAIT_FRAME_DELAY: Yield until WaitTime reaches zero
  4: 0x0082 [0x00] END_REQSTACK()
```

### Event 65535.3

#### Metadata

| Field        | Value    |
|--------------|----------|
| Entrypoint   | 0x0083   |
| Data Size    | 15 bytes |
| Instructions | 5        |

```
      00 01 02 03 04 05 06 07  08 09 0A 0B 0C 0D 0E 0F
      -- -- -- -- -- -- -- --  -- -- -- -- -- -- -- --
0080:          32 0A 80 1F 00  13 80 14 80 0D 80 1F 01     2............
0090: 6F 00                                             o.              
```

#### Opcodes

```
  0: 0x0083 [0x32] ExtData[1]->MainSpeed = 13* * 0.1
  1: 0x0086 [0x1F] MOVE_ENTITY: EventEntity moves to X=2.667*, Z=5.620*, Y=0.000*
  2: 0x008E [0x1F] MOVE_ENTITY: Update entity position (mode=1)
  3: 0x0090 [0x6F] WAIT_FRAME_DELAY: Yield until WaitTime reaches zero
  4: 0x0091 [0x00] END_REQSTACK()
```

### Event 65535.4

#### Metadata

| Field        | Value    |
|--------------|----------|
| Entrypoint   | 0x0092   |
| Data Size    | 15 bytes |
| Instructions | 5        |

```
      00 01 02 03 04 05 06 07  08 09 0A 0B 0C 0D 0E 0F
      -- -- -- -- -- -- -- --  -- -- -- -- -- -- -- --
0090:       32 15 80 1F 00 16  80 17 80 0D 80 1F 01 6F    2............o
00A0: 00                                                .               
```

#### Opcodes

```
  0: 0x0092 [0x32] ExtData[1]->MainSpeed = 11* * 0.1
  1: 0x0095 [0x1F] MOVE_ENTITY: EventEntity moves to X=3.440*, Z=-38.715*, Y=0.000*
  2: 0x009D [0x1F] MOVE_ENTITY: Update entity position (mode=1)
  3: 0x009F [0x6F] WAIT_FRAME_DELAY: Yield until WaitTime reaches zero
  4: 0x00A0 [0x00] END_REQSTACK()
```

### Event 315

#### Metadata

| Field        | Value    |
|--------------|----------|
| Entrypoint   | 0x00A1   |
| Data Size    | 19 bytes |
| Instructions | 9        |

```
      00 01 02 03 04 05 06 07  08 09 0A 0B 0C 0D 0E 0F
      -- -- -- -- -- -- -- --  -- -- -- -- -- -- -- --
00A0:    1E F0 FF FF 7F 1D 18  80 23 1D 19 80 23 1D 1A   ........#...#..
00B0: 80 23 21 00                                       .#!.            
```

#### Opcodes

```
  0: 0x00A1 [0x1E] EventEntity looks at LocalPlayer and starts talking
  1: 0x00A6 [0x1D] PRINT_EVENT_MESSAGE(message_id=11502*)
    → "Adventurer take sooon?"
  2: 0x00A9 [0x23] WAIT_FOR_DIALOG_INTERACTION
  3: 0x00AA [0x1D] PRINT_EVENT_MESSAGE(message_id=11503*)
    → "Must take sooon or stooo goes cold!"
  4: 0x00AD [0x23] WAIT_FOR_DIALOG_INTERACTION
  5: 0x00AE [0x1D] PRINT_EVENT_MESSAGE(message_id=11504*)
    → "Tarooo family? They are with Kyokyoroon!"
  6: 0x00B1 [0x23] WAIT_FOR_DIALOG_INTERACTION
  7: 0x00B2 [0x21] END_EVENT
  8: 0x00B3 [0x00] END_REQSTACK()
```
