# 16994429

## Common Data

| Field            | Value            |
|------------------|------------------|
| Zone             | Nashmau (ID: 53) |
| Block Size       | 18580 bytes      |
| Total Events     | 6                |
| References Count | 439              |

## List of Events

| Event ID              | Entrypoint   |   Size |   Instructions |
|-----------------------|--------------|--------|----------------|
| [65535](#event-65535) | 0x0000       |      1 |              1 |
| [308](#event-308)     | 0x0001       |   5130 |            597 |
| [309](#event-309)     | 0x140B       |   1062 |            131 |
| [310](#event-310)     | 0x1831       |    666 |             84 |
| [311](#event-311)     | 0x1ACB       |   6190 |            761 |
| [312](#event-312)     | 0x32F9       |   3735 |            423 |

## DAT References (imed_data)

|   Index | Hex Value   |   Dec Value |
|---------|-------------|-------------|
|       0 | 0x0013      |          19 |
|       1 | 0x442F      |       17455 |
|       2 | 0xFFFF9664  |  4294940260 |
|       3 | 0x0000      |           0 |
|       4 | 0x0746      |        1862 |
|       5 | 0x386B      |       14443 |
|       6 | 0xFFFF9A37  |  4294941239 |
|       7 | 0x472D      |       18221 |
|       8 | 0xFFFF7AF2  |  4294933234 |
|       9 | 0x06D9      |        1753 |
|      10 | 0x0397      |         919 |
|      11 | 0x001E      |          30 |
|      12 | 0x0119      |         281 |
|      13 | 0x0022      |          34 |
|      14 | 0x0014      |          20 |
|      15 | 0x2C83      |       11395 |
|      16 | 0x000F      |          15 |
|      17 | 0x0015      |          21 |
|      18 | 0x0069      |         105 |
|      19 | 0x36FA      |       14074 |
|      20 | 0xFFFF9C93  |  4294941843 |
|      21 | 0x069F      |        1695 |
|      22 | 0x3CA7      |       15527 |
|      23 | 0xFFFF9F54  |  4294942548 |
|      24 | 0x0747      |        1863 |
|      25 | 0x034B      |         843 |
|      26 | 0x2C84      |       11396 |
|      27 | 0x2C85      |       11397 |
|      28 | 0x2C86      |       11398 |
|      29 | 0x034A      |         842 |
|      30 | 0x2C87      |       11399 |
|      31 | 0x2C88      |       11400 |
|      32 | 0x188D      |        6285 |
|      33 | 0xFFFF8B17  |  4294937367 |
|      34 | 0x1687      |        5767 |
|      35 | 0xFFFF8E64  |  4294938212 |
|      36 | 0x1865      |        6245 |
|      37 | 0xFFFF8BFD  |  4294937597 |
|      38 | 0x2C89      |       11401 |
|      39 | 0x0371      |         881 |
|      40 | 0x2C8A      |       11402 |
|      41 | 0x0078      |         120 |
|      42 | 0x2C8B      |       11403 |
|      43 | 0x003C      |          60 |
|      44 | 0x0031      |          49 |
|      45 | 0x2C8C      |       11404 |
|      46 | 0x2C8D      |       11405 |
|      47 | 0x2C8E      |       11406 |
|      48 | 0x2C8F      |       11407 |
|      49 | 0x2C90      |       11408 |
|      50 | 0x2C91      |       11409 |
|      51 | 0x0055      |          85 |
|      52 | 0x2C92      |       11410 |
|      53 | 0x2C93      |       11411 |
|      54 | 0x2C94      |       11412 |
|      55 | 0x2213      |        8723 |
|      56 | 0xFFFFA5B3  |  4294944179 |
|      57 | 0x2051      |        8273 |
|      58 | 0xFFFFA51D  |  4294944029 |
|      59 | 0x2C95      |       11413 |
|      60 | 0x3FDE      |       16350 |
|      61 | 0xFFFFA293  |  4294943379 |
|      62 | 0x06C0      |        1728 |
|      63 | 0x2C97      |       11415 |
|      64 | 0x2C98      |       11416 |
|      65 | 0x001D      |          29 |
|      66 | 0x2C99      |       11417 |
|      67 | 0x4658      |       18008 |
|      68 | 0xFFFF9756  |  4294940502 |
|      69 | 0x01F4      |         500 |
|      70 | 0x000E      |          14 |
|      71 | 0x2C9A      |       11418 |
|      72 | 0x002D      |          45 |
|      73 | 0x3F19      |       16153 |
|      74 | 0xFFFF9FF2  |  4294942706 |
|      75 | 0x2C9B      |       11419 |
|      76 | 0x2C9C      |       11420 |
|      77 | 0x2C9D      |       11421 |
|      78 | 0x2C9E      |       11422 |
|      79 | 0x0001      |           1 |
|      80 | 0x2C9F      |       11423 |
|      81 | 0x2CA0      |       11424 |
|      82 | 0x2CA1      |       11425 |
|      83 | 0x0018      |          24 |
|      84 | 0x2CA2      |       11426 |
|      85 | 0x2CA3      |       11427 |
|      86 | 0x0006      |           6 |
|      87 | 0x2CA4      |       11428 |
|      88 | 0x2CA5      |       11429 |
|      89 | 0x2CA6      |       11430 |
|      90 | 0x2CA7      |       11431 |
|      91 | 0x000B      |          11 |
|      92 | 0x2CA8      |       11432 |
|      93 | 0x2CA9      |       11433 |
|      94 | 0x2CAA      |       11434 |
|      95 | 0x2CAB      |       11435 |
|      96 | 0x2CAC      |       11436 |
|      97 | 0x2CAD      |       11437 |
|      98 | 0x2CAE      |       11438 |
|      99 | 0x2CAF      |       11439 |
|     100 | 0x2CB0      |       11440 |
|     101 | 0x2CB1      |       11441 |
|     102 | 0x2CB2      |       11442 |
|     103 | 0x2CB3      |       11443 |
|     104 | 0x0010      |          16 |
|     105 | 0x2CB4      |       11444 |
|     106 | 0x2CB5      |       11445 |
|     107 | 0x2CB6      |       11446 |
|     108 | 0x0019      |          25 |
|     109 | 0x2CB7      |       11447 |
|     110 | 0x2CB8      |       11448 |
|     111 | 0x0005      |           5 |
|     112 | 0x2CB9      |       11449 |
|     113 | 0x2CBA      |       11450 |
|     114 | 0x2CBB      |       11451 |
|     115 | 0x2CBC      |       11452 |
|     116 | 0x01DC      |         476 |
|     117 | 0x2CBD      |       11453 |
|     118 | 0x2CBE      |       11454 |
|     119 | 0x2CC0      |       11456 |
|     120 | 0x0024      |          36 |
|     121 | 0x2CC1      |       11457 |
|     122 | 0x2CC2      |       11458 |
|     123 | 0x2CC3      |       11459 |
|     124 | 0x00C8      |         200 |
|     125 | 0x07D0      |        2000 |
|     126 | 0x0A5A      |        2650 |
|     127 | 0xFFFF9BBE  |  4294941630 |
|     128 | 0x01FF      |         511 |
|     129 | 0x0ACD      |        2765 |
|     130 | 0xFFFF9812  |  4294940690 |
|     131 | 0x09F1      |        2545 |
|     132 | 0xFFFF9E90  |  4294942352 |
|     133 | 0x00D2      |         210 |
|     134 | 0x5423      |       21539 |
|     135 | 0xFFFF8568  |  4294935912 |
|     136 | 0x0BA6      |        2982 |
|     137 | 0x005A      |          90 |
|     138 | 0x2CC4      |       11460 |
|     139 | 0x2CC5      |       11461 |
|     140 | 0x2CC6      |       11462 |
|     141 | 0x2CC7      |       11463 |
|     142 | 0x2CC8      |       11464 |
|     143 | 0x2CC9      |       11465 |
|     144 | 0x2CCA      |       11466 |
|     145 | 0x2CCB      |       11467 |
|     146 | 0xFFFFFC85  |  4294966405 |
|     147 | 0xF96E      |       63854 |
|     148 | 0x09FD      |        2557 |
|     149 | 0x2CCD      |       11469 |
|     150 | 0x2CCE      |       11470 |
|     151 | 0x2CCF      |       11471 |
|     152 | 0x2CD0      |       11472 |
|     153 | 0x2CD1      |       11473 |
|     154 | 0x2CD2      |       11474 |
|     155 | 0x2CD3      |       11475 |
|     156 | 0x2CD4      |       11476 |
|     157 | 0x15DB      |        5595 |
|     158 | 0x2CD5      |       11477 |
|     159 | 0x2CD6      |       11478 |
|     160 | 0x2CD7      |       11479 |
|     161 | 0x2CD8      |       11480 |
|     162 | 0x2CD9      |       11481 |
|     163 | 0x2CDA      |       11482 |
|     164 | 0x2CDB      |       11483 |
|     165 | 0x2CDD      |       11485 |
|     166 | 0x2CDE      |       11486 |
|     167 | 0x2CDF      |       11487 |
|     168 | 0x2CE0      |       11488 |
|     169 | 0x2CE1      |       11489 |
|     170 | 0x154D      |        5453 |
|     171 | 0x154E      |        5454 |
|     172 | 0x154F      |        5455 |
|     173 | 0x1550      |        5456 |
|     174 | 0x1410      |        5136 |
|     175 | 0x2CE6      |       11494 |
|     176 | 0x2CE7      |       11495 |
|     177 | 0x2CE3      |       11491 |
|     178 | 0x2CE4      |       11492 |
|     179 | 0x2CE5      |       11493 |
|     180 | 0xFFFFFB6F  |  4294966127 |
|     181 | 0xFD9E      |       64926 |
|     182 | 0x0ACE      |        2766 |
|     183 | 0x2CE8      |       11496 |
|     184 | 0x2CE9      |       11497 |
|     185 | 0x2CEA      |       11498 |
|     186 | 0x2CEB      |       11499 |
|     187 | 0x00FF      |         255 |
|     188 | 0x0103      |         259 |
|     189 | 0x00B4      |         180 |
|     190 | 0x2CCC      |       11468 |
|     191 | 0x00AF      |         175 |
|     192 | 0x2CEC      |       11500 |
|     193 | 0x2CED      |       11501 |
|     194 | 0x2CEE      |       11502 |
|     195 | 0x2CEF      |       11503 |
|     196 | 0x2CF0      |       11504 |
|     197 | 0x2CF1      |       11505 |
|     198 | 0x2CF2      |       11506 |
|     199 | 0x4A14      |       18964 |
|     200 | 0x2E82      |       11906 |
|     201 | 0xFFFFE891  |  4294961297 |
|     202 | 0x00B3      |         179 |
|     203 | 0x373E      |       14142 |
|     204 | 0x3331      |       13105 |
|     205 | 0xFFFFE890  |  4294961296 |
|     206 | 0x0008      |           8 |
|     207 | 0xFFFFD01F  |  4294955039 |
|     208 | 0x7B92      |       31634 |
|     209 | 0x0876      |        2166 |
|     210 | 0xFFFFD407  |  4294956039 |
|     211 | 0x7964      |       31076 |
|     212 | 0x0556      |        1366 |
|     213 | 0xFFFFD3B8  |  4294955960 |
|     214 | 0x7F94      |       32660 |
|     215 | 0x0465      |        1125 |
|     216 | 0xFFFFE93F  |  4294961471 |
|     217 | 0x5B6A      |       23402 |
|     218 | 0x09B1      |        2481 |
|     219 | 0x2CF4      |       11508 |
|     220 | 0x2CF5      |       11509 |
|     221 | 0x2CF6      |       11510 |
|     222 | 0x2CF7      |       11511 |
|     223 | 0x2CF8      |       11512 |
|     224 | 0x2CF9      |       11513 |
|     225 | 0x2CFA      |       11514 |
|     226 | 0x2CFB      |       11515 |
|     227 | 0x2CFC      |       11516 |
|     228 | 0x2CFD      |       11517 |
|     229 | 0x2CFE      |       11518 |
|     230 | 0x2CFF      |       11519 |
|     231 | 0x2D00      |       11520 |
|     232 | 0x2D01      |       11521 |
|     233 | 0x2D02      |       11522 |
|     234 | 0x2D03      |       11523 |
|     235 | 0x2D04      |       11524 |
|     236 | 0x0007      |           7 |
|     237 | 0x0064      |         100 |
|     238 | 0x2D05      |       11525 |
|     239 | 0x2D06      |       11526 |
|     240 | 0x2D07      |       11527 |
|     241 | 0x2D08      |       11528 |
|     242 | 0x2D0A      |       11530 |
|     243 | 0x000A      |          10 |
|     244 | 0x0032      |          50 |
|     245 | 0xFFFFE647  |  4294960711 |
|     246 | 0x734E      |       29518 |
|     247 | 0x0D6B      |        3435 |
|     248 | 0xFFFFEBEF  |  4294962159 |
|     249 | 0x5CB1      |       23729 |
|     250 | 0xFFFFCDC9  |  4294954441 |
|     251 | 0x77FC      |       30716 |
|     252 | 0xFFFFD55E  |  4294956382 |
|     253 | 0x75A0      |       30112 |
|     254 | 0xFFFFD6AF  |  4294956719 |
|     255 | 0x78E1      |       30945 |
|     256 | 0xFFFFE908  |  4294961416 |
|     257 | 0x5BD1      |       23505 |
|     258 | 0xFFFFE8BA  |  4294961338 |
|     259 | 0x5842      |       22594 |
|     260 | 0xFFFFCA21  |  4294953505 |
|     261 | 0x79FB      |       31227 |
|     262 | 0xFFFFCFB5  |  4294954933 |
|     263 | 0x7B68      |       31592 |
|     264 | 0xFFFFCCD7  |  4294954199 |
|     265 | 0x73DD      |       29661 |
|     266 | 0x0050      |          80 |
|     267 | 0x2D0B      |       11531 |
|     268 | 0x2D0C      |       11532 |
|     269 | 0x2D0D      |       11533 |
|     270 | 0x0028      |          40 |
|     271 | 0x2D0E      |       11534 |
|     272 | 0x2D0F      |       11535 |
|     273 | 0x2D10      |       11536 |
|     274 | 0x2D11      |       11537 |
|     275 | 0x000D      |          13 |
|     276 | 0x2D12      |       11538 |
|     277 | 0x2D13      |       11539 |
|     278 | 0x2D14      |       11540 |
|     279 | 0x0096      |         150 |
|     280 | 0x2D15      |       11541 |
|     281 | 0x2D17      |       11543 |
|     282 | 0x2D18      |       11544 |
|     283 | 0x2D19      |       11545 |
|     284 | 0x0004      |           4 |
|     285 | 0x00BE      |         190 |
|     286 | 0x2D1A      |       11546 |
|     287 | 0x2D1B      |       11547 |
|     288 | 0x2D1C      |       11548 |
|     289 | 0x2D1D      |       11549 |
|     290 | 0x2D1E      |       11550 |
|     291 | 0x2D1F      |       11551 |
|     292 | 0x2D20      |       11552 |
|     293 | 0x2D21      |       11553 |
|     294 | 0x2D22      |       11554 |
|     295 | 0x2D23      |       11555 |
|     296 | 0x2D24      |       11556 |
|     297 | 0x2D25      |       11557 |
|     298 | 0x2D27      |       11559 |
|     299 | 0x2D28      |       11560 |
|     300 | 0x2D29      |       11561 |
|     301 | 0x2D2A      |       11562 |
|     302 | 0x2D2B      |       11563 |
|     303 | 0x2D2C      |       11564 |
|     304 | 0x2D2D      |       11565 |
|     305 | 0x2D2E      |       11566 |
|     306 | 0x2D2F      |       11567 |
|     307 | 0x2D30      |       11568 |
|     308 | 0x2D31      |       11569 |
|     309 | 0x2D32      |       11570 |
|     310 | 0x2D33      |       11571 |
|     311 | 0x2D34      |       11572 |
|     312 | 0x2D35      |       11573 |
|     313 | 0x2D36      |       11574 |
|     314 | 0x2D37      |       11575 |
|     315 | 0x2D38      |       11576 |
|     316 | 0x2D39      |       11577 |
|     317 | 0x2D3A      |       11578 |
|     318 | 0x2D3B      |       11579 |
|     319 | 0x2D3C      |       11580 |
|     320 | 0x0082      |         130 |
|     321 | 0x2D3D      |       11581 |
|     322 | 0x2D3E      |       11582 |
|     323 | 0x2D3F      |       11583 |
|     324 | 0x2D40      |       11584 |
|     325 | 0x2D41      |       11585 |
|     326 | 0x2D42      |       11586 |
|     327 | 0x2D43      |       11587 |
|     328 | 0xFFFFEAD5  |  4294961877 |
|     329 | 0x6378      |       25464 |
|     330 | 0x04ED      |        1261 |
|     331 | 0xFFFFEECE  |  4294962894 |
|     332 | 0x5AA0      |       23200 |
|     333 | 0x087C      |        2172 |
|     334 | 0xFFFFBB32  |  4294949682 |
|     335 | 0x35B6      |       13750 |
|     336 | 0xFFFFC770  |  4294952816 |
|     337 | 0x7DAD      |       32173 |
|     338 | 0xFFFFEA41  |  4294961729 |
|     339 | 0x5658      |       22104 |
|     340 | 0x03DE      |         990 |
|     341 | 0x2D4A      |       11594 |
|     342 | 0x2D4B      |       11595 |
|     343 | 0x2D4C      |       11596 |
|     344 | 0x2D4D      |       11597 |
|     345 | 0x2D4E      |       11598 |
|     346 | 0x2D4F      |       11599 |
|     347 | 0x2D50      |       11600 |
|     348 | 0x2D51      |       11601 |
|     349 | 0x2D52      |       11602 |
|     350 | 0x2D53      |       11603 |
|     351 | 0x2D54      |       11604 |
|     352 | 0x2D55      |       11605 |
|     353 | 0x2D56      |       11606 |
|     354 | 0x2D57      |       11607 |
|     355 | 0x2D58      |       11608 |
|     356 | 0x2D59      |       11609 |
|     357 | 0x2D5A      |       11610 |
|     358 | 0xFFFFF797  |  4294965143 |
|     359 | 0x4D71      |       19825 |
|     360 | 0xFFFFF3C9  |  4294964169 |
|     361 | 0x49E2      |       18914 |
|     362 | 0x0B23      |        2851 |
|     363 | 0xFFFF703F  |  4294930495 |
|     364 | 0x0A59      |        2649 |
|     365 | 0x14C2      |        5314 |
|     366 | 0xFFFF5B17  |  4294925079 |
|     367 | 0x0B1E      |        2846 |
|     368 | 0xFFFF5E2C  |  4294925868 |
|     369 | 0x0929      |        2345 |
|     370 | 0xFFFF5B7B  |  4294925179 |
|     371 | 0x0454      |        1108 |
|     372 | 0x08EF      |        2287 |
|     373 | 0xFFFF71DF  |  4294930911 |
|     374 | 0x0E44      |        3652 |
|     375 | 0xFFFF72A3  |  4294931107 |
|     376 | 0x18D8      |        6360 |
|     377 | 0xFFFF5971  |  4294924657 |
|     378 | 0x114A      |        4426 |
|     379 | 0xFFFF58EC  |  4294924524 |
|     380 | 0x0B2C      |        2860 |
|     381 | 0x1567      |        5479 |
|     382 | 0xFFFF5FFA  |  4294926330 |
|     383 | 0xFFFFF701  |  4294964993 |
|     384 | 0xFFFFE0F3  |  4294959347 |
|     385 | 0x00D0      |         208 |
|     386 | 0xFFFFF77D  |  4294965117 |
|     387 | 0x2D5B      |       11611 |
|     388 | 0x2D5C      |       11612 |
|     389 | 0x2D5D      |       11613 |
|     390 | 0x2D5E      |       11614 |
|     391 | 0x2D5F      |       11615 |
|     392 | 0x2D60      |       11616 |
|     393 | 0x2D61      |       11617 |
|     394 | 0x2D62      |       11618 |
|     395 | 0x2D63      |       11619 |
|     396 | 0x2D64      |       11620 |
|     397 | 0x2D65      |       11621 |
|     398 | 0x2D66      |       11622 |
|     399 | 0x2D67      |       11623 |
|     400 | 0x2D68      |       11624 |
|     401 | 0x0148      |         328 |
|     402 | 0xFFFF29B1  |  4294912433 |
|     403 | 0x043D      |        1085 |
|     404 | 0x045D      |        1117 |
|     405 | 0xFFFF2A27  |  4294912551 |
|     406 | 0xFFFFFE83  |  4294966915 |
|     407 | 0xFFFF2988  |  4294912392 |
|     408 | 0xFFFFFF3D  |  4294967101 |
|     409 | 0xFFFF5910  |  4294924560 |
|     410 | 0x022B      |         555 |
|     411 | 0xFFFFFC78  |  4294966392 |
|     412 | 0xFFFF5F4A  |  4294926154 |
|     413 | 0x0473      |        1139 |
|     414 | 0xFFFF44D1  |  4294919377 |
|     415 | 0xFFFFFF9B  |  4294967195 |
|     416 | 0xFFFF3ACD  |  4294916813 |
|     417 | 0x00CA      |         202 |
|     418 | 0xFFFF64E9  |  4294927593 |
|     419 | 0x2D69      |       11625 |
|     420 | 0x2D6A      |       11626 |
|     421 | 0x00F0      |         240 |
|     422 | 0x2D6B      |       11627 |
|     423 | 0x2D6C      |       11628 |
|     424 | 0x2D6D      |       11629 |
|     425 | 0x2D6E      |       11630 |
|     426 | 0x2D6F      |       11631 |
|     427 | 0x2D70      |       11632 |
|     428 | 0x2D71      |       11633 |
|     429 | 0x2D72      |       11634 |
|     430 | 0x2D73      |       11635 |
|     431 | 0x2D74      |       11636 |
|     432 | 0x2D75      |       11637 |
|     433 | 0x2D76      |       11638 |
|     434 | 0x2D77      |       11639 |
|     435 | 0x2D78      |       11640 |
|     436 | 0x00C9      |         201 |
|     437 | 0x0002      |           2 |
|     438 | 0x00D7      |         215 |

## String References

- **11421**: Well, is she cute? [Cuter than a button./Can't tell from this angle.]
- **11468**: 
- **11489**: Find foood for Ququroon? [Sure./Foood...?]

## Events

### Event 65535

#### Metadata

| Field        | Value   |
|--------------|---------|
| Entrypoint   | 0x0000  |
| Data Size    | 1 bytes |
| Instructions | 1       |

```
      00 01 02 03 04 05 06 07  08 09 0A 0B 0C 0D 0E 0F
      -- -- -- -- -- -- -- --  -- -- -- -- -- -- -- --
0000: 00                                                .               
```

#### Opcodes

```
  0: 0x0000 [0x00] END_REQSTACK()
```

### Event 308

#### Metadata

| Field        | Value      |
|--------------|------------|
| Entrypoint   | 0x0001     |
| Data Size    | 5130 bytes |
| Instructions | 597        |

```
      00 01 02 03 04 05 06 07  08 09 0A 0B 0C 0D 0E 0F
      -- -- -- -- -- -- -- --  -- -- -- -- -- -- -- --
0000:    42 1A 62 3F 46 01 38  00 80 79 00 F0 FF FF 7F   B.b?F.8..y.....
0010: F0 FF FF 7F 92 01 7E 50  03 01 92 01 80 50 03 01  ......~P.....P..
0020: 92 01 81 50 03 01 92 01  7F 50 03 01 92 01 48 50  ...P.....P....HP
0030: 03 01 92 01 21 50 03 01  92 01 22 50 03 01 4E 00  ....!P...."P..N.
0040: 80 50 03 01 4E 00 81 50  03 01 4E 00 7F 50 03 01  .P..N..P..N..P..
0050: 94 01 F0 FF FF 7F 94 01  7E 50 03 01 94 01 80 50  ........~P.....P
0060: 03 01 94 01 81 50 03 01  94 01 7F 50 03 01 BA F0  .....P.....P....
0070: FF FF 7F 01 80 02 80 03  80 04 80 BA 7E 50 03 01  ............~P..
0080: 05 80 06 80 03 80 04 80  BA 80 50 03 01 07 80 08  ..........P.....
0090: 80 03 80 09 80 BA 81 50  03 01 07 80 08 80 03 80  .......P........
00A0: 09 80 BA 7F 50 03 01 07  80 08 80 03 80 09 80 80  ....P...........
00B0: F0 FF FF 7F 80 7E 50 03  01 80 21 50 03 01 80 22  .....~P...!P..."
00C0: 50 03 01 80 80 50 03 01  80 81 50 03 01 80 7F 50  P....P....P....P
00D0: 03 01 5B 0A 80 7E 50 03  01 7E 50 03 01 00 FE FE  ..[..~P..~P.....
00E0: FE 1C 0B 80 45 0C 80 F0  FF FF 7F F0 FF FF 7F 73  ....E..........s
00F0: 31 34 37 03 80 1A 41 3F  27 10 F0 FF FF 7F 10 2A  147...A?'......*
0100: 10 F0 FF FF 7F 4A F0 FF  FF 7F 7E 50 03 01 6F 76  .....J....~P..ov
0110: F0 FF FF 7F 6E F0 FF FF  7F 0D 80 99 F0 FF FF 7F  ....n...........
0120: 99 F0 FF FF 7F 52 0C 80  F0 FF FF 7F F0 FF FF 7F  .....R..........
0130: 73 31 34 37 45 0C 80 F0  FF FF 7F F0 FF FF 7F 73  s147E..........s
0140: 31 30 31 03 80 4A 7E 50  03 01 F0 FF FF 7F 1C 0E  101..J~P........
0150: 80 2B 7E 50 03 01 0F 80  5B 0A 80 7E 50 03 01 7E  .+~P....[..~P..~
0160: 50 03 01 62 69 6B 30 1C  10 80 52 0C 80 F0 FF FF  P..bik0...R.....
0170: 7F F0 FF FF 7F 73 31 30  31 45 0C 80 F0 FF FF 7F  .....s101E......
0180: F0 FF FF 7F 73 31 34 39  03 80 6E F0 FF FF 7F 11  ....s149..n.....
0190: 80 99 F0 FF FF 7F 99 F0  FF FF 7F 1C 12 80 1A 62  ...............b
01A0: 3F 1C 0B 80 6B 69 64 6C  30 7E 50 03 01 BA 7E 50  ?...kidl0~P...~P
01B0: 03 01 13 80 14 80 03 80  15 80 BA F0 FF FF 7F 16  ................
01C0: 80 17 80 03 80 18 80 4A  7E 50 03 01 F0 FF FF 7F  .......J~P......
01D0: 4A F0 FF FF 7F 7E 50 03  01 1C 0B 80 52 0C 80 F0  J....~P.....R...
01E0: FF FF 7F F0 FF FF 7F 73  31 30 31 45 0C 80 F0 FF  .......s101E....
01F0: FF 7F F0 FF FF 7F 73 31  35 30 03 80 1A 41 3F 5B  ......s150...A?[
0200: 19 80 7E 50 03 01 7E 50  03 01 74 6C 62 30 2B 7E  ..~P..~P..tlb0+~
0210: 50 03 01 1A 80 23 2B 7E  50 03 01 1B 80 23 52 0C  P....#+~P....#R.
0220: 80 F0 FF FF 7F F0 FF FF  7F 73 31 35 30 45 0C 80  .........s150E..
0230: F0 FF FF 7F F0 FF FF 7F  73 31 30 34 03 80 2B 7E  ........s104..+~
0240: 50 03 01 1C 80 23 5B 19  80 7E 50 03 01 7E 50 03  P....#[..~P..~P.
0250: 01 74 6C 62 31 5B 1D 80  7E 50 03 01 7E 50 03 01  .tlb1[..~P..~P..
0260: 63 72 79 30 2B 7E 50 03  01 1E 80 23 1C 0B 80 52  cry0+~P....#...R
0270: 0C 80 F0 FF FF 7F F0 FF  FF 7F 73 31 30 34 45 0C  ..........s104E.
0280: 80 F0 FF FF 7F F0 FF FF  7F 73 31 30 35 03 80 5B  .........s105..[
0290: 1D 80 7E 50 03 01 7E 50  03 01 63 72 79 31 4A F0  ..~P..~P..cry1J.
02A0: FF FF 7F 7E 50 03 01 27  10 7E 50 03 01 02 2B 7E  ...~P..'.~P...+~
02B0: 50 03 01 1F 80 23 BA 80  50 03 01 20 80 21 80 03  P....#..P.. .!..
02C0: 80 04 80 BA 81 50 03 01  22 80 23 80 03 80 04 80  .....P..".#.....
02D0: BA 7F 50 03 01 24 80 25  80 03 80 18 80 52 0C 80  ..P..$.%.....R..
02E0: F0 FF FF 7F F0 FF FF 7F  73 31 30 35 45 0C 80 F0  ........s105E...
02F0: FF FF 7F F0 FF FF 7F 73  31 35 31 03 80 2A 10 7E  .......s151..*.~
0300: 50 03 01 4A 7E 50 03 01  F0 FF FF 7F 5B 19 80 7E  P..J~P......[..~
0310: 50 03 01 7E 50 03 01 74  6C 62 30 2B 7E 50 03 01  P..~P..tlb0+~P..
0320: 26 80 23 5B 19 80 7E 50  03 01 7E 50 03 01 74 6C  &.#[..~P..~P..tl
0330: 62 31 5B 27 80 7E 50 03  01 7E 50 03 01 77 68 74  b1['.~P..~P..wht
0340: 30 2B 7E 50 03 01 28 80  23 5B 27 80 7E 50 03 01  0+~P..(.#['.~P..
0350: 7E 50 03 01 77 68 74 31  52 0C 80 F0 FF FF 7F F0  ~P..wht1R.......
0360: FF FF 7F 73 31 35 31 45  0C 80 F0 FF FF 7F F0 FF  ...s151E........
0370: FF 7F 73 31 35 32 03 80  1C 29 80 4A 7E 50 03 01  ..s152...).J~P..
0380: 7F 50 03 01 1C 0B 80 5B  0A 80 7E 50 03 01 7E 50  .P.....[..~P..~P
0390: 03 01 62 69 6B 30 1C 10  80 2B 7E 50 03 01 2A 80  ..bik0...+~P..*.
03A0: 23 4A F0 FF FF 7F 7F 50  03 01 27 10 81 50 03 01  #J.....P..'..P..
03B0: 02 27 10 80 50 03 01 02  27 10 7F 50 03 01 02 1C  .'..P...'..P....
03C0: 2B 80 52 0C 80 F0 FF FF  7F F0 FF FF 7F 73 31 35  +.R..........s15
03D0: 32 45 0C 80 F0 FF FF 7F  F0 FF FF 7F 73 31 30 37  2E..........s107
03E0: 03 80 6B 69 64 6C 30 7E  50 03 01 4A 7E 50 03 01  ..kidl0~P..J~P..
03F0: 7F 50 03 01 2A 10 81 50  03 01 2A 10 7F 50 03 01  .P..*..P..*..P..
0400: 2A 10 80 50 03 01 4A 81  50 03 01 80 50 03 01 4A  *..P..J.P...P..J
0410: 80 50 03 01 81 50 03 01  4A 7F 50 03 01 81 50 03  .P...P..J.P...P.
0420: 01 66 2C 80 81 50 03 01  81 50 03 01 74 6C 6B 30  .f,..P...P..tlk0
0430: 2B 81 50 03 01 2D 80 23  66 2C 80 81 50 03 01 81  +.P..-.#f,..P...
0440: 50 03 01 74 6C 6B 31 1C  0E 80 52 0C 80 F0 FF FF  P..tlk1...R.....
0450: 7F F0 FF FF 7F 73 31 30  37 45 0C 80 F0 FF FF 7F  .....s107E......
0460: F0 FF FF 7F 73 31 35 33  03 80 66 2C 80 81 50 03  ....s153..f,..P.
0470: 01 81 50 03 01 74 6C 6B  30 2B 81 50 03 01 2E 80  ..P..tlk0+.P....
0480: 23 66 2C 80 81 50 03 01  81 50 03 01 74 6C 6B 31  #f,..P...P..tlk1
0490: 1C 0E 80 52 0C 80 F0 FF  FF 7F F0 FF FF 7F 73 31  ...R..........s1
04A0: 35 33 45 0C 80 F0 FF FF  7F F0 FF FF 7F 73 31 35  53E..........s15
04B0: 34 03 80 66 2C 80 80 50  03 01 80 50 03 01 74 6C  4..f,..P...P..tl
04C0: 6B 30 4A 7F 50 03 01 80  50 03 01 2B 80 50 03 01  k0J.P...P..+.P..
04D0: 2F 80 23 2B 80 50 03 01  30 80 23 66 2C 80 80 50  /.#+.P..0.#f,..P
04E0: 03 01 80 50 03 01 74 6C  6B 31 52 0C 80 F0 FF FF  ...P..tlk1R.....
04F0: 7F F0 FF FF 7F 73 31 35  34 45 0C 80 F0 FF FF 7F  .....s154E......
0500: F0 FF FF 7F 73 31 35 35  03 80 1C 0B 80 2B 80 50  ....s155.....+.P
0510: 03 01 31 80 23 2B 81 50  03 01 32 80 23 4A 7F 50  ..1.#+.P..2.#J.P
0520: 03 01 7E 50 03 01 6F 76  7F 50 03 01 5B 33 80 7F  ..~P..ov.P..[3..
0530: 50 03 01 7F 50 03 01 6A  6D 70 30 2B 7F 50 03 01  P...P..jmp0+.P..
0540: 34 80 23 52 0C 80 F0 FF  FF 7F F0 FF FF 7F 73 31  4.#R..........s1
0550: 35 35 45 0C 80 F0 FF FF  7F F0 FF FF 7F 73 31 35  55E..........s15
0560: 36 03 80 4A 81 50 03 01  7E 50 03 01 2B 81 50 03  6..J.P..~P..+.P.
0570: 01 35 80 23 4A 80 50 03  01 7E 50 03 01 2B 80 50  .5.#J.P..~P..+.P
0580: 03 01 36 80 23 52 0C 80  F0 FF FF 7F F0 FF FF 7F  ..6.#R..........
0590: 73 31 35 36 45 0C 80 F0  FF FF 7F F0 FF FF 7F 73  s156E..........s
05A0: 31 30 38 03 80 BA 80 50  03 01 37 80 38 80 03 80  108....P..7.8...
05B0: 09 80 BA 81 50 03 01 39  80 3A 80 03 80 09 80 BA  ....P..9.:......
05C0: 7F 50 03 01 39 80 3A 80  03 80 09 80 2B 7E 50 03  .P..9.:.....+~P.
05D0: 01 3B 80 23 27 10 7E 50  03 01 03 27 10 7F 50 03  .;.#'.~P...'..P.
05E0: 01 03 27 10 80 50 03 01  03 27 10 81 50 03 01 03  ..'..P...'..P...
05F0: 1A 62 3F 1C 0B 80 4E 01  7E 50 03 01 BA F0 FF FF  .b?...N.~P......
0600: 7F 3C 80 3D 80 03 80 3E  80 52 0C 80 F0 FF FF 7F  .<.=...>.R......
0610: F0 FF FF 7F 73 31 31 30  45 0C 80 F0 FF FF 7F F0  ....s110E.......
0620: FF FF 7F 73 31 31 31 03  80 1A 41 3F 4A F0 FF FF  ...s111...A?J...
0630: 7F 7F 50 03 01 2A 10 7F  50 03 01 2B 7F 50 03 01  ..P..*..P..+.P..
0640: 3F 80 23 52 0C 80 F0 FF  FF 7F F0 FF FF 7F 73 31  ?.#R..........s1
0650: 31 31 45 0C 80 F0 FF FF  7F F0 FF FF 7F 73 31 31  11E..........s11
0660: 32 03 80 7B 7F 50 03 01  5B 33 80 7F 50 03 01 7F  2..{.P..[3..P...
0670: 50 03 01 6B 6F 77 30 2B  7F 50 03 01 40 80 23 4A  P..kow0+.P..@.#J
0680: 80 50 03 01 7F 50 03 01  4A 81 50 03 01 7F 50 03  .P...P..J.P...P.
0690: 01 1C 0B 80 52 0C 80 F0  FF FF 7F F0 FF FF 7F 73  ....R..........s
06A0: 31 31 32 45 0C 80 F0 FF  FF 7F F0 FF FF 7F 73 31  112E..........s1
06B0: 35 37 03 80 6E 80 50 03  01 41 80 99 80 50 03 01  57..n.P..A...P..
06C0: 2B 80 50 03 01 42 80 23  BA 7F 50 03 01 43 80 44  +.P..B.#..P..C.D
06D0: 80 03 80 45 80 99 80 50  03 01 1C 0B 80 52 0C 80  ...E...P.....R..
06E0: F0 FF FF 7F F0 FF FF 7F  73 31 35 37 45 0C 80 F0  ........s157E...
06F0: FF FF 7F F0 FF FF 7F 73  31 35 38 03 80 6E 81 50  .......s158..n.P
0700: 03 01 46 80 99 81 50 03  01 2B 81 50 03 01 47 80  ..F...P..+.P..G.
0710: 23 99 81 50 03 01 1C 48  80 52 0C 80 F0 FF FF 7F  #..P...H.R......
0720: F0 FF FF 7F 73 31 35 38  45 0C 80 F0 FF FF 7F F0  ....s158E.......
0730: FF FF 7F 73 31 31 33 03  80 BA F0 FF FF 7F 49 80  ...s113.......I.
0740: 4A 80 03 80 3E 80 1A 41  3F 4A 81 50 03 01 F0 FF  J...>..A?J.P....
0750: FF 7F 4A F0 FF FF 7F 81  50 03 01 66 2C 80 81 50  ..J.....P..f,..P
0760: 03 01 81 50 03 01 74 6C  6B 30 2B 81 50 03 01 4B  ...P..tlk0+.P..K
0770: 80 23 66 2C 80 81 50 03  01 81 50 03 01 74 6C 6B  .#f,..P...P..tlk
0780: 31 4A 80 50 03 01 81 50  03 01 2B 80 50 03 01 4C  1J.P...P..+.P..L
0790: 80 23 52 0C 80 F0 FF FF  7F F0 FF FF 7F 73 31 31  .#R..........s11
07A0: 33 45 0C 80 F0 FF FF 7F  F0 FF FF 7F 73 31 31 32  3E..........s112
07B0: 03 80 24 4D 80 03 80 03  80 25 02 00 10 03 80 00  ..$M.....%......
07C0: 11 08 52 0C 80 F0 FF FF  7F F0 FF FF 7F 73 31 31  ..R..........s11
07D0: 32 45 0C 80 F0 FF FF 7F  F0 FF FF 7F 73 31 35 39  2E..........s159
07E0: 03 80 6B 69 64 6C 30 7F  50 03 01 27 10 81 50 03  ..kidl0.P..'..P.
07F0: 01 04 6E F0 FF FF 7F 11  80 99 F0 FF FF 7F 2B 81  ..n...........+.
0800: 50 03 01 4E 80 23 99 F0  FF FF 7F 1C 48 80 01 68  P..N.#......H..h
0810: 08 02 00 10 4F 80 00 68  08 52 0C 80 F0 FF FF 7F  ....O..h.R......
0820: F0 FF FF 7F 73 31 31 32  45 0C 80 F0 FF FF 7F F0  ....s112E.......
0830: FF FF 7F 73 31 35 39 03  80 6B 69 64 6C 30 7F 50  ...s159..kidl0.P
0840: 03 01 27 10 81 50 03 01  04 6E F0 FF FF 7F 11 80  ..'..P...n......
0850: 99 F0 FF FF 7F 2B 81 50  03 01 4E 80 23 99 F0 FF  .....+.P..N.#...
0860: FF 7F 1C 48 80 01 68 08  1C 10 80 52 0C 80 F0 FF  ...H..h....R....
0870: FF 7F F0 FF FF 7F 73 31  35 39 45 0C 80 F0 FF FF  ......s159E.....
0880: 7F F0 FF FF 7F 73 31 36  30 03 80 2B 81 50 03 01  .....s160..+.P..
0890: 50 80 23 52 0C 80 F0 FF  FF 7F F0 FF FF 7F 73 31  P.#R..........s1
08A0: 36 30 45 0C 80 F0 FF FF  7F F0 FF FF 7F 73 31 36  60E..........s16
08B0: 31 03 80 2B 81 50 03 01  51 80 23 52 0C 80 F0 FF  1..+.P..Q.#R....
08C0: FF 7F F0 FF FF 7F 73 31  36 31 45 0C 80 F0 FF FF  ......s161E.....
08D0: 7F F0 FF FF 7F 73 31 36  32 03 80 2B 81 50 03 01  .....s162..+.P..
08E0: 52 80 23 52 0C 80 F0 FF  FF 7F F0 FF FF 7F 73 31  R.#R..........s1
08F0: 36 32 45 0C 80 F0 FF FF  7F F0 FF FF 7F 73 31 36  62E..........s16
0900: 33 03 80 4A 81 50 03 01  7F 50 03 01 6F 76 81 50  3..J.P...P..ov.P
0910: 03 01 6E 81 50 03 01 53  80 99 81 50 03 01 2B 81  ..n.P..S...P..+.
0920: 50 03 01 54 80 23 99 81  50 03 01 27 10 81 50 03  P..T.#..P..'..P.
0930: 01 05 2B 81 50 03 01 55  80 23 52 0C 80 F0 FF FF  ..+.P..U.#R.....
0940: 7F F0 FF FF 7F 73 31 36  33 45 0C 80 F0 FF FF 7F  .....s163E......
0950: F0 FF FF 7F 73 31 36 34  03 80 4A 80 50 03 01 81  ....s164..J.P...
0960: 50 03 01 4A 81 50 03 01  80 50 03 01 6E 80 50 03  P..J.P...P..n.P.
0970: 01 56 80 99 80 50 03 01  2B 80 50 03 01 57 80 23  .V...P..+.P..W.#
0980: 99 80 50 03 01 52 0C 80  F0 FF FF 7F F0 FF FF 7F  ..P..R..........
0990: 73 31 36 34 45 0C 80 F0  FF FF 7F F0 FF FF 7F 73  s164E..........s
09A0: 31 36 36 03 80 66 2C 80  80 50 03 01 80 50 03 01  166..f,..P...P..
09B0: 74 68 6B 31 2B 80 50 03  01 58 80 23 52 0C 80 F0  thk1+.P..X.#R...
09C0: FF FF 7F F0 FF FF 7F 73  31 36 36 45 0C 80 F0 FF  .......s166E....
09D0: FF 7F F0 FF FF 7F 73 31  32 30 03 80 2B 80 50 03  ......s120..+.P.
09E0: 01 59 80 23 66 2C 80 80  50 03 01 80 50 03 01 74  .Y.#f,..P...P..t
09F0: 68 6B 32 53 80 50 03 01  80 50 03 01 74 68 6B 32  hk2S.P...P..thk2
0A00: 52 0C 80 F0 FF FF 7F F0  FF FF 7F 73 31 32 30 45  R..........s120E
0A10: 0C 80 F0 FF FF 7F F0 FF  FF 7F 73 31 36 35 03 80  ..........s165..
0A20: 4A 80 50 03 01 F0 FF FF  7F 4A F0 FF FF 7F 80 50  J.P......J.....P
0A30: 03 01 66 2C 80 80 50 03  01 80 50 03 01 74 6C 6B  ..f,..P...P..tlk
0A40: 30 2B 80 50 03 01 5A 80  23 66 2C 80 80 50 03 01  0+.P..Z.#f,..P..
0A50: 80 50 03 01 74 6C 6B 31  6E 81 50 03 01 5B 80 99  .P..tlk1n.P..[..
0A60: 81 50 03 01 2B 81 50 03  01 5C 80 23 99 81 50 03  .P..+.P..\.#..P.
0A70: 01 52 0C 80 F0 FF FF 7F  F0 FF FF 7F 73 31 36 35  .R..........s165
0A80: 45 0C 80 F0 FF FF 7F F0  FF FF 7F 73 31 32 30 03  E..........s120.
0A90: 80 6B 69 64 6C 30 7F 50  03 01 4A F0 FF FF 7F 81  .kidl0.P..J.....
0AA0: 50 03 01 4A 81 50 03 01  F0 FF FF 7F 6F 76 81 50  P..J.P......ov.P
0AB0: 03 01 6E 81 50 03 01 4F  80 99 81 50 03 01 27 0A  ..n.P..O...P..'.
0AC0: 81 50 03 01 0F 2B 81 50  03 01 5D 80 23 99 81 50  .P...+.P..].#..P
0AD0: 03 01 2A 0A 81 50 03 01  4A 81 50 03 01 80 50 03  ..*..P..J.P...P.
0AE0: 01 6F 76 81 50 03 01 66  2C 80 81 50 03 01 81 50  .ov.P..f,..P...P
0AF0: 03 01 74 6C 6B 30 2B 81  50 03 01 5E 80 23 66 2C  ..tlk0+.P..^.#f,
0B00: 80 81 50 03 01 81 50 03  01 74 6C 6B 31 53 81 50  ..P...P..tlk1S.P
0B10: 03 01 81 50 03 01 74 6C  6B 31 4A 81 50 03 01 7F  ...P..tlk1J.P...
0B20: 50 03 01 4A 7F 50 03 01  81 50 03 01 27 10 81 50  P..J.P...P..'..P
0B30: 03 01 06 27 10 81 50 03  01 07 4A 7F 50 03 01 F0  ...'..P...J.P...
0B40: FF FF 7F 27 10 7F 50 03  01 04 27 10 81 50 03 01  ...'..P...'..P..
0B50: 08 2A 10 81 50 03 01 1C  10 80 4A 81 50 03 01 F0  .*..P.....J.P...
0B60: FF FF 7F 2B 81 50 03 01  5F 80 23 52 0C 80 F0 FF  ...+.P.._.#R....
0B70: FF 7F F0 FF FF 7F 73 31  32 30 45 0C 80 F0 FF FF  ......s120E.....
0B80: 7F F0 FF FF 7F 73 31 32  31 03 80 4A F0 FF FF 7F  .....s121..J....
0B90: 80 50 03 01 4A 7F 50 03  01 80 50 03 01 66 2C 80  .P..J.P...P..f,.
0BA0: 80 50 03 01 80 50 03 01  74 6C 6B 30 2B 80 50 03  .P...P..tlk0+.P.
0BB0: 01 60 80 23 2B 80 50 03  01 61 80 23 66 2C 80 80  .`.#+.P..a.#f,..
0BC0: 50 03 01 80 50 03 01 74  6C 6B 31 52 0C 80 F0 FF  P...P..tlk1R....
0BD0: FF 7F F0 FF FF 7F 73 31  32 31 45 0C 80 F0 FF FF  ......s121E.....
0BE0: 7F F0 FF FF 7F 73 31 32  32 03 80 4A F0 FF FF 7F  .....s122..J....
0BF0: 81 50 03 01 4A 7F 50 03  01 81 50 03 01 6E 81 50  .P..J.P...P..n.P
0C00: 03 01 5B 80 99 81 50 03  01 27 0A 81 50 03 01 0F  ..[...P..'..P...
0C10: 2B 81 50 03 01 62 80 23  99 81 50 03 01 27 10 7F  +.P..b.#..P..'..
0C20: 50 03 01 05 66 2C 80 80  50 03 01 80 50 03 01 74  P...f,..P...P..t
0C30: 6C 6B 30 2B 80 50 03 01  63 80 23 66 2C 80 80 50  lk0+.P..c.#f,..P
0C40: 03 01 80 50 03 01 74 6C  6B 31 27 10 7F 50 03 01  ...P..tlk1'..P..
0C50: 06 2A 0A 81 50 03 01 6E  81 50 03 01 0E 80 99 81  .*..P..n.P......
0C60: 50 03 01 2B 81 50 03 01  64 80 23 52 0C 80 F0 FF  P..+.P..d.#R....
0C70: FF 7F F0 FF FF 7F 73 31  32 32 45 0C 80 F0 FF FF  ......s122E.....
0C80: 7F F0 FF FF 7F 73 31 31  35 03 80 27 10 81 50 03  .....s115..'..P.
0C90: 01 04 6E F0 FF FF 7F 11  80 99 F0 FF FF 7F 2B 81  ..n...........+.
0CA0: 50 03 01 65 80 23 99 F0  FF FF 7F 1C 48 80 52 0C  P..e.#......H.R.
0CB0: 80 F0 FF FF 7F F0 FF FF  7F 73 31 31 35 45 0C 80  .........s115E..
0CC0: F0 FF FF 7F F0 FF FF 7F  73 31 32 33 03 80 4A 7F  ........s123..J.
0CD0: 50 03 01 F0 FF FF 7F 1C  0B 80 5B 33 80 7F 50 03  P.........[3..P.
0CE0: 01 7F 50 03 01 6A 6D 70  30 2B 7F 50 03 01 66 80  ..P..jmp0+.P..f.
0CF0: 23 52 0C 80 F0 FF FF 7F  F0 FF FF 7F 73 31 32 33  #R..........s123
0D00: 45 0C 80 F0 FF FF 7F F0  FF FF 7F 73 31 32 34 03  E..........s124.
0D10: 80 4A 81 50 03 01 7F 50  03 01 27 10 81 50 03 01  .J.P...P..'..P..
0D20: 09 2A 10 81 50 03 01 1C  0B 80 4A 81 50 03 01 F0  .*..P.....J.P...
0D30: FF FF 7F 66 2C 80 81 50  03 01 81 50 03 01 74 6C  ...f,..P...P..tl
0D40: 6B 30 2B 81 50 03 01 67  80 23 66 2C 80 81 50 03  k0+.P..g.#f,..P.
0D50: 01 81 50 03 01 74 6C 6B  31 52 0C 80 F0 FF FF 7F  ..P..tlk1R......
0D60: F0 FF FF 7F 73 31 32 34  45 0C 80 F0 FF FF 7F F0  ....s124E.......
0D70: FF FF 7F 73 31 32 35 03  80 4A 80 50 03 01 7F 50  ...s125..J.P...P
0D80: 03 01 4A 7F 50 03 01 80  50 03 01 6E 80 50 03 01  ..J.P...P..n.P..
0D90: 68 80 99 80 50 03 01 2B  80 50 03 01 69 80 23 4A  h...P..+.P..i.#J
0DA0: 7F 50 03 01 F0 FF FF 7F  2B 7F 50 03 01 6A 80 23  .P......+.P..j.#
0DB0: 52 0C 80 F0 FF FF 7F F0  FF FF 7F 73 31 32 35 45  R..........s125E
0DC0: 0C 80 F0 FF FF 7F F0 FF  FF 7F 73 31 32 36 03 80  ..........s126..
0DD0: 27 10 81 50 03 01 0A 2A  10 81 50 03 01 2B 81 50  '..P...*..P..+.P
0DE0: 03 01 6B 80 23 52 0C 80  F0 FF FF 7F F0 FF FF 7F  ..k.#R..........
0DF0: 73 31 32 36 45 0C 80 F0  FF FF 7F F0 FF FF 7F 73  s126E..........s
0E00: 31 32 37 03 80 4A 81 50  03 01 F0 FF FF 7F 6F 76  127..J.P......ov
0E10: 81 50 03 01 6E 81 50 03  01 6C 80 99 81 50 03 01  .P..n.P..l...P..
0E20: 2B 81 50 03 01 6D 80 23  99 81 50 03 01 52 0C 80  +.P..m.#..P..R..
0E30: F0 FF FF 7F F0 FF FF 7F  73 31 32 37 45 0C 80 F0  ........s127E...
0E40: FF FF 7F F0 FF FF 7F 73  31 32 38 03 80 4A 81 50  .......s128..J.P
0E50: 03 01 80 50 03 01 6F 76  81 50 03 01 6E 81 50 03  ...P..ov.P..n.P.
0E60: 01 00 80 99 81 50 03 01  27 0A 81 50 03 01 0F 2B  .....P..'..P...+
0E70: 81 50 03 01 6E 80 23 99  81 50 03 01 2A 0A 81 50  .P..n.#..P..*..P
0E80: 03 01 6E 81 50 03 01 6F  80 99 81 50 03 01 2B 81  ..n.P..o...P..+.
0E90: 50 03 01 70 80 23 52 0C  80 F0 FF FF 7F F0 FF FF  P..p.#R.........
0EA0: 7F 73 31 32 38 45 0C 80  F0 FF FF 7F F0 FF FF 7F  .s128E..........
0EB0: 73 31 32 39 03 80 99 81  50 03 01 2B 7F 50 03 01  s129....P..+.P..
0EC0: 71 80 23 52 0C 80 F0 FF  FF 7F F0 FF FF 7F 73 31  q.#R..........s1
0ED0: 32 39 45 0C 80 F0 FF FF  7F F0 FF FF 7F 73 31 33  29E..........s13
0EE0: 30 03 80 27 10 7F 50 03  01 05 4A 80 50 03 01 81  0..'..P...J.P...
0EF0: 50 03 01 66 2C 80 80 50  03 01 80 50 03 01 74 6C  P..f,..P...P..tl
0F00: 6B 30 66 2C 80 81 50 03  01 81 50 03 01 74 68 6B  k0f,..P...P..thk
0F10: 31 2B 80 50 03 01 72 80  23 66 2C 80 80 50 03 01  1+.P..r.#f,..P..
0F20: 80 50 03 01 74 6C 6B 31  66 2C 80 81 50 03 01 81  .P..tlk1f,..P...
0F30: 50 03 01 74 68 6B 32 27  10 7F 50 03 01 06 66 2C  P..thk2'..P...f,
0F40: 80 81 50 03 01 81 50 03  01 74 6C 6B 30 2B 81 50  ..P...P..tlk0+.P
0F50: 03 01 73 80 23 66 2C 80  81 50 03 01 81 50 03 01  ..s.#f,..P...P..
0F60: 74 6C 6B 31 52 0C 80 F0  FF FF 7F F0 FF FF 7F 73  tlk1R..........s
0F70: 31 33 30 45 0C 80 F0 FF  FF 7F F0 FF FF 7F 73 31  130E..........s1
0F80: 33 31 03 80 4B 7F 50 03  01 74 80 66 2C 80 81 50  31..K.P..t.f,..P
0F90: 03 01 81 50 03 01 74 68  6B 31 2B 81 50 03 01 75  ...P..thk1+.P..u
0FA0: 80 23 66 2C 80 81 50 03  01 81 50 03 01 74 68 6B  .#f,..P...P..thk
0FB0: 32 52 0C 80 F0 FF FF 7F  F0 FF FF 7F 73 31 33 31  2R..........s131
0FC0: 45 0C 80 F0 FF FF 7F F0  FF FF 7F 73 31 33 33 03  E..........s133.
0FD0: 80 5B 33 80 7F 50 03 01  7F 50 03 01 6A 6D 70 30  .[3..P...P..jmp0
0FE0: 4A 81 50 03 01 7F 50 03  01 4A 80 50 03 01 7F 50  J.P...P..J.P...P
0FF0: 03 01 6E 81 50 03 01 11  80 99 81 50 03 01 6E 80  ..n.P......P..n.
1000: 50 03 01 11 80 99 80 50  03 01 2B 7F 50 03 01 76  P......P..+.P..v
1010: 80 23 52 0C 80 F0 FF FF  7F F0 FF FF 7F 73 31 33  .#R..........s13
1020: 33 45 0C 80 F0 FF FF 7F  F0 FF FF 7F 73 31 33 34  3E..........s134
1030: 03 80 6E 81 50 03 01 41  80 99 81 50 03 01 2B 81  ..n.P..A...P..+.
1040: 50 03 01 77 80 23 6E 81  50 03 01 78 80 99 81 50  P..w.#n.P..x...P
1050: 03 01 2B 81 50 03 01 79  80 23 99 81 50 03 01 52  ..+.P..y.#..P..R
1060: 0C 80 F0 FF FF 7F F0 FF  FF 7F 73 31 33 34 45 0C  ..........s134E.
1070: 80 F0 FF FF 7F F0 FF FF  7F 73 31 33 35 03 80 4A  .........s135..J
1080: 81 50 03 01 F0 FF FF 7F  27 10 7F 50 03 01 07 2B  .P......'..P...+
1090: 81 50 03 01 7A 80 23 52  0C 80 F0 FF FF 7F F0 FF  .P..z.#R........
10A0: FF 7F 73 31 33 35 45 0C  80 F0 FF FF 7F F0 FF FF  ..s135E.........
10B0: 7F 73 31 33 36 03 80 4A  80 50 03 01 F0 FF FF 7F  .s136..J.P......
10C0: 2B 80 50 03 01 7B 80 23  45 7C 80 F0 FF FF 7F F0  +.P..{.#E|......
10D0: FF FF 7F 66 64 6F 31 03  80 55 7C 80 F0 FF FF 7F  ...fdo1..U|.....
10E0: F0 FF FF 7F 66 64 6F 31  52 0C 80 F0 FF FF 7F F0  ....fdo1R.......
10F0: FF FF 7F 73 31 33 36 BA  F0 FF FF 7F 49 80 4A 80  ...s136.....I.J.
1100: 03 80 7D 80 BA 7F 50 03  01 7E 80 7F 80 03 80 80  ..}...P..~......
1110: 80 BA 80 50 03 01 81 80  82 80 03 80 80 80 BA 81  ...P............
1120: 50 03 01 83 80 84 80 03  80 80 80 1C 29 80 45 0C  P...........).E.
1130: 80 F0 FF FF 7F F0 FF FF  7F 73 31 33 37 03 80 45  .........s137..E
1140: 7C 80 F0 FF FF 7F F0 FF  FF 7F 66 64 69 31 03 80  |.........fdi1..
1150: 4A F0 FF FF 7F 7F 50 03  01 27 10 7F 50 03 01 08  J.....P..'..P...
1160: 27 10 80 50 03 01 04 27  10 81 50 03 01 0B 1C 85  '..P...'..P.....
1170: 80 4E 00 7E 50 03 01 BA  80 50 03 01 20 80 21 80  .N.~P....P.. .!.
1180: 03 80 04 80 BA 81 50 03  01 22 80 23 80 03 80 04  ......P..".#....
1190: 80 BA 7F 50 03 01 24 80  25 80 03 80 18 80 BA 7E  ...P..$.%......~
11A0: 50 03 01 86 80 87 80 03  80 88 80 52 0C 80 F0 FF  P..........R....
11B0: FF 7F F0 FF FF 7F 73 31  33 37 45 0C 80 F0 FF FF  ......s137E.....
11C0: 7F F0 FF FF 7F 73 31 33  38 03 80 1C 2B 80 29 10  .....s138...+.).
11D0: 7E 50 03 01 04 4A F0 FF  FF 7F 7E 50 03 01 1C 89  ~P...J....~P....
11E0: 80 4A 7E 50 03 01 F0 FF  FF 7F 5B 27 80 7E 50 03  .J~P......['.~P.
11F0: 01 7E 50 03 01 77 68 74  30 2B 7E 50 03 01 8A 80  .~P..wht0+~P....
1200: 23 5B 27 80 7E 50 03 01  7E 50 03 01 77 68 74 31  #['.~P..~P..wht1
1210: 52 0C 80 F0 FF FF 7F F0  FF FF 7F 73 31 33 38 45  R..........s138E
1220: 0C 80 F0 FF FF 7F F0 FF  FF 7F 73 31 33 39 03 80  ..........s139..
1230: 1C 29 80 27 10 7E 50 03  01 05 2A 10 7E 50 03 01  .).'.~P...*.~P..
1240: 1C 10 80 4A F0 FF FF 7F  7E 50 03 01 5B 19 80 7E  ...J....~P..[..~
1250: 50 03 01 7E 50 03 01 74  6C 62 30 2B 7E 50 03 01  P..~P..tlb0+~P..
1260: 8B 80 23 5B 19 80 7E 50  03 01 7E 50 03 01 74 6C  ..#[..~P..~P..tl
1270: 62 31 52 0C 80 F0 FF FF  7F F0 FF FF 7F 73 31 33  b1R..........s13
1280: 39 45 0C 80 F0 FF FF 7F  F0 FF FF 7F 73 31 34 30  9E..........s140
1290: 03 80 5B 1D 80 7E 50 03  01 7E 50 03 01 63 72 79  ..[..~P..~P..cry
12A0: 30 2B 7E 50 03 01 8C 80  23 5B 1D 80 7E 50 03 01  0+~P....#[..~P..
12B0: 7E 50 03 01 63 72 79 31  52 0C 80 F0 FF FF 7F F0  ~P..cry1R.......
12C0: FF FF 7F 73 31 34 30 45  0C 80 F0 FF FF 7F F0 FF  ...s140E........
12D0: FF 7F 73 31 34 32 03 80  4A 7E 50 03 01 F0 FF FF  ..s142..J~P.....
12E0: 7F 5B 19 80 7E 50 03 01  7E 50 03 01 61 6E 67 30  .[..~P..~P..ang0
12F0: 6E F0 FF FF 7F 11 80 99  F0 FF FF 7F 2B 7E 50 03  n...........+~P.
1300: 01 8D 80 23 52 0C 80 F0  FF FF 7F F0 FF FF 7F 73  ...#R..........s
1310: 31 34 32 45 0C 80 F0 FF  FF 7F F0 FF FF 7F 73 31  142E..........s1
1320: 34 33 03 80 5B 19 80 7E  50 03 01 7E 50 03 01 74  43..[..~P..~P..t
1330: 68 62 30 2B 7E 50 03 01  8E 80 23 5B 19 80 7E 50  hb0+~P....#[..~P
1340: 03 01 7E 50 03 01 74 68  62 31 5B 19 80 7E 50 03  ..~P..thb1[..~P.
1350: 01 7E 50 03 01 61 6E 67  30 2B 7E 50 03 01 8F 80  .~P..ang0+~P....
1360: 23 52 0C 80 F0 FF FF 7F  F0 FF FF 7F 73 31 34 33  #R..........s143
1370: 45 0C 80 F0 FF FF 7F F0  FF FF 7F 73 31 34 35 03  E..........s145.
1380: 80 5B 19 80 7E 50 03 01  7E 50 03 01 74 6C 62 30  .[..~P..~P..tlb0
1390: 2B 7E 50 03 01 90 80 23  5B 19 80 7E 50 03 01 7E  +~P....#[..~P..~
13A0: 50 03 01 74 6C 62 31 52  0C 80 F0 FF FF 7F F0 FF  P..tlb1R........
13B0: FF 7F 73 31 34 35 45 0C  80 F0 FF FF 7F F0 FF FF  ..s145E.........
13C0: 7F 73 31 34 34 03 80 5B  19 80 7E 50 03 01 7E 50  .s144..[..~P..~P
13D0: 03 01 74 68 62 30 2B 7E  50 03 01 91 80 23 1C 0E  ..thb0+~P....#..
13E0: 80 1A 62 3F 1C 0B 80 5B  19 80 7E 50 03 01 7E 50  ..b?...[..~P..~P
13F0: 03 01 74 68 62 31 46 00  45 7C 80 F0 FF FF 7F F0  ..thb1F.E|......
1400: FF FF 7F 66 64 69 32 03  80 21 00                 ...fdi2..!.     
```

#### Opcodes

```
  0: 0x0001 [0x42] SET_CLI_EVENT_CANCEL_DATA()
  1: 0x0002 [0x1A] CALL_SUBROUTINE(address=0x3F62)
  2: 0x0005 [0x46] CAMERA_CONTROL: Disable user control
  3: 0x0007 [0x38] SET_CLIENT_EVENT_MODE(mode=19*)
  4: 0x000A [0x79] LocalPlayer looks at LocalPlayer (Basic look)
  5: 0x0014 [0x92] Kakkaroon (ID: 16994430/0x0103507E)->Render.Flags3 ^= 0x01
  6: 0x001A [0x92] Eohoh (ID: 16994432/0x01035080)->Render.Flags3 ^= 0x01
  7: 0x0020 [0x92] Rutta-Watta (ID: 16994433/0x01035081)->Render.Flags3 ^= 0x01
  8: 0x0026 [0x92] Rapipi (ID: 16994431/0x0103507F)->Render.Flags3 ^= 0x01
  9: 0x002C [0x92] Pupuroon (ID: 16994376/0x01035048)->Render.Flags3 ^= 0x01
 10: 0x0032 [0x92] Unnamed NPC (ID: 16994337/0x01035021)->Render.Flags3 ^= 0x01
 11: 0x0038 [0x92] Unnamed NPC (ID: 16994338/0x01035022)->Render.Flags3 ^= 0x01
 12: 0x003E [0x4E] SET_ENTITY_HIDE_FLAG: Show Eohoh (ID: 16994432/0x01035080)
 13: 0x0044 [0x4E] SET_ENTITY_HIDE_FLAG: Show Rutta-Watta (ID: 16994433/0x01035081)
 14: 0x004A [0x4E] SET_ENTITY_HIDE_FLAG: Show Rapipi (ID: 16994431/0x0103507F)
 15: 0x0050 [0x94] LocalPlayer->Render.Flags3 ^= 0x01
 16: 0x0056 [0x94] Kakkaroon (ID: 16994430/0x0103507E)->Render.Flags3 ^= 0x01
 17: 0x005C [0x94] Eohoh (ID: 16994432/0x01035080)->Render.Flags3 ^= 0x01
 18: 0x0062 [0x94] Rutta-Watta (ID: 16994433/0x01035081)->Render.Flags3 ^= 0x01
 19: 0x0068 [0x94] Rapipi (ID: 16994431/0x0103507F)->Render.Flags3 ^= 0x01
 20: 0x006E [0xBA] SET_ENTITY_POSITION(entity_id=LocalPlayer, pos_x=17.455*, pos_z=-27.036*, pos_y=0.000*, direction=163.6°*)
 21: 0x007B [0xBA] SET_ENTITY_POSITION(entity_id=Kakkaroon (ID: 16994430/0x0103507E), pos_x=14.443*, pos_z=-26.057*, pos_y=0.000*, direction=163.6°*)
 22: 0x0088 [0xBA] SET_ENTITY_POSITION(entity_id=Eohoh (ID: 16994432/0x01035080), pos_x=18.221*, pos_z=-34.062*, pos_y=0.000*, direction=154.1°*)
 23: 0x0095 [0xBA] SET_ENTITY_POSITION(entity_id=Rutta-Watta (ID: 16994433/0x01035081), pos_x=18.221*, pos_z=-34.062*, pos_y=0.000*, direction=154.1°*)
 24: 0x00A2 [0xBA] SET_ENTITY_POSITION(entity_id=Rapipi (ID: 16994431/0x0103507F), pos_x=18.221*, pos_z=-34.062*, pos_y=0.000*, direction=154.1°*)
 25: 0x00AF [0x80] LOAD_WAIT(entity=LocalPlayer)
 26: 0x00B4 [0x80] LOAD_WAIT(entity=Kakkaroon (ID: 16994430/0x0103507E))
 27: 0x00B9 [0x80] LOAD_WAIT(entity=Unnamed NPC (ID: 16994337/0x01035021))
 28: 0x00BE [0x80] LOAD_WAIT(entity=Unnamed NPC (ID: 16994338/0x01035022))
 29: 0x00C3 [0x80] LOAD_WAIT(entity=Eohoh (ID: 16994432/0x01035080))
 30: 0x00C8 [0x80] LOAD_WAIT(entity=Rutta-Watta (ID: 16994433/0x01035081))
 31: 0x00CD [0x80] LOAD_WAIT(entity=Rapipi (ID: 16994431/0x0103507F))
 32: 0x00D2 [0x5B] LOAD_EXT_SCHEDULER: Load scheduler 0xFEFEFE00 with entities [Kakkaroon (ID: 16994430/0x0103507E), Kakkaroon (ID: 16994430/0x0103507E)], work=919*
 33: 0x00E1 [0x1C] WAIT(30* ticks)
 34: 0x00E4 [0x45] LOAD_SCHEDULED_TASK: Load scheduler "s147" with entities [LocalPlayer, LocalPlayer], work=[281*, 0*]
 35: 0x00F5 [0x1A] CALL_SUBROUTINE(address=0x3F41)
 36: 0x00F8 [0x27] REQ_SET(priority=0x10, entity_id=LocalPlayer, tag_num=0x10)
 37: 0x00FF [0x2A] GET_REQ_LEVEL(level=16, entity_id=LocalPlayer)
 38: 0x0105 [0x4A] LocalPlayer looks at Kakkaroon (ID: 16994430/0x0103507E)
 39: 0x010E [0x6F] WAIT_FRAME_DELAY: Yield until WaitTime reaches zero
 40: 0x010F [0x76] CHECK_ENTITY_RENDER_FLAGS: Wait until LocalPlayer Render.Flags0 and Render.Flags3 conditions are met
 41: 0x0114 [0x6E] LocalPlayer uses emote 34*
 42: 0x011B [0x99] Wait for LocalPlayer animation to complete
 43: 0x0120 [0x99] Wait for LocalPlayer animation to complete
 44: 0x0125 [0x52] END_LOAD_SCHEDULER: End scheduler "s147" with entities [LocalPlayer, LocalPlayer], work=281*
 45: 0x0134 [0x45] LOAD_SCHEDULED_TASK: Load scheduler "s101" with entities [LocalPlayer, LocalPlayer], work=[281*, 0*]
 46: 0x0145 [0x4A] Kakkaroon (ID: 16994430/0x0103507E) looks at LocalPlayer
 47: 0x014E [0x1C] WAIT(20* ticks)
 48: 0x0151 [0x2B] Kakkaroon (ID: 16994430/0x0103507E) [11395*]:
    → "!!!"
 49: 0x0158 [0x5B] LOAD_EXT_SCHEDULER: Load scheduler "bik0" with entities [Kakkaroon (ID: 16994430/0x0103507E), Kakkaroon (ID: 16994430/0x0103507E)], work=919*
 50: 0x0167 [0x1C] WAIT(15* ticks)
 51: 0x016A [0x52] END_LOAD_SCHEDULER: End scheduler "s101" with entities [LocalPlayer, LocalPlayer], work=281*
 52: 0x0179 [0x45] LOAD_SCHEDULED_TASK: Load scheduler "s149" with entities [LocalPlayer, LocalPlayer], work=[281*, 0*]
 53: 0x018A [0x6E] LocalPlayer uses emote 21*
 54: 0x0191 [0x99] Wait for LocalPlayer animation to complete
 55: 0x0196 [0x99] Wait for LocalPlayer animation to complete
 56: 0x019B [0x1C] WAIT(105* ticks)
 57: 0x019E [0x1A] CALL_SUBROUTINE(address=0x3F62)
 58: 0x01A1 [0x1C] WAIT(30* ticks)
 59: 0x01A4 [0x6B] STOP_AND_IDLE: Kakkaroon (ID: 16994430/0x0103507E) stops current action and resets to idle (animation="idl0")
 60: 0x01AD [0xBA] SET_ENTITY_POSITION(entity_id=Kakkaroon (ID: 16994430/0x0103507E), pos_x=14.074*, pos_z=-25.453*, pos_y=0.000*, direction=149.0°*)
 61: 0x01BA [0xBA] SET_ENTITY_POSITION(entity_id=LocalPlayer, pos_x=15.527*, pos_z=-24.748*, pos_y=0.000*, direction=163.7°*)
 62: 0x01C7 [0x4A] Kakkaroon (ID: 16994430/0x0103507E) looks at LocalPlayer
 63: 0x01D0 [0x4A] LocalPlayer looks at Kakkaroon (ID: 16994430/0x0103507E)
 64: 0x01D9 [0x1C] WAIT(30* ticks)
 65: 0x01DC [0x52] END_LOAD_SCHEDULER: End scheduler "s101" with entities [LocalPlayer, LocalPlayer], work=281*
 66: 0x01EB [0x45] LOAD_SCHEDULED_TASK: Load scheduler "s150" with entities [LocalPlayer, LocalPlayer], work=[281*, 0*]
 67: 0x01FC [0x1A] CALL_SUBROUTINE(address=0x3F41)
 68: 0x01FF [0x5B] LOAD_EXT_SCHEDULER: Load scheduler "tlb0" with entities [Kakkaroon (ID: 16994430/0x0103507E), Kakkaroon (ID: 16994430/0x0103507E)], work=843*
 69: 0x020E [0x2B] Kakkaroon (ID: 16994430/0x0103507E) [11396*]:
    → "No more scaring Kakka, no?"
 70: 0x0215 [0x23] WAIT_FOR_DIALOG_INTERACTION
 71: 0x0216 [0x2B] Kakkaroon (ID: 16994430/0x0103507E) [11397*]:
    → "Kakka had enough of eeevil scareee babeees of Tarooo!"
 72: 0x021D [0x23] WAIT_FOR_DIALOG_INTERACTION
 73: 0x021E [0x52] END_LOAD_SCHEDULER: End scheduler "s150" with entities [LocalPlayer, LocalPlayer], work=281*
 74: 0x022D [0x45] LOAD_SCHEDULED_TASK: Load scheduler "s104" with entities [LocalPlayer, LocalPlayer], work=[281*, 0*]
 75: 0x023E [0x2B] Kakkaroon (ID: 16994430/0x0103507E) [11398*]:
    → "Hey... Yooo no scareee babeee of Tarooo, no?"
 76: 0x0245 [0x23] WAIT_FOR_DIALOG_INTERACTION
 77: 0x0246 [0x5B] LOAD_EXT_SCHEDULER: Load scheduler "tlb1" with entities [Kakkaroon (ID: 16994430/0x0103507E), Kakkaroon (ID: 16994430/0x0103507E)], work=843*
 78: 0x0255 [0x5B] LOAD_EXT_SCHEDULER: Load scheduler "cry0" with entities [Kakkaroon (ID: 16994430/0x0103507E), Kakkaroon (ID: 16994430/0x0103507E)], work=842*
 79: 0x0264 [0x2B] Kakkaroon (ID: 16994430/0x0103507E) [11399*]:
    → "Scary babeee of Tarooo chase Kakka all over Nashmau. Kakka almost have attack of heart!"
 80: 0x026B [0x23] WAIT_FOR_DIALOG_INTERACTION
 81: 0x026C [0x1C] WAIT(30* ticks)
 82: 0x026F [0x52] END_LOAD_SCHEDULER: End scheduler "s104" with entities [LocalPlayer, LocalPlayer], work=281*
 83: 0x027E [0x45] LOAD_SCHEDULED_TASK: Load scheduler "s105" with entities [LocalPlayer, LocalPlayer], work=[281*, 0*]
 84: 0x028F [0x5B] LOAD_EXT_SCHEDULER: Load scheduler "cry1" with entities [Kakkaroon (ID: 16994430/0x0103507E), Kakkaroon (ID: 16994430/0x0103507E)], work=842*
 85: 0x029E [0x4A] LocalPlayer looks at Kakkaroon (ID: 16994430/0x0103507E)
 86: 0x02A7 [0x27] REQ_SET(priority=0x10, entity_id=Kakkaroon (ID: 16994430/0x0103507E), tag_num=0x02)
 87: 0x02AE [0x2B] Kakkaroon (ID: 16994430/0x0103507E) [11400*]:
    → "That's why Kakka hiding here behind concealing cart of carrying."
 88: 0x02B5 [0x23] WAIT_FOR_DIALOG_INTERACTION
 89: 0x02B6 [0xBA] SET_ENTITY_POSITION(entity_id=Eohoh (ID: 16994432/0x01035080), pos_x=6.285*, pos_z=-29.929*, pos_y=0.000*, direction=163.6°*)
 90: 0x02C3 [0xBA] SET_ENTITY_POSITION(entity_id=Rutta-Watta (ID: 16994433/0x01035081), pos_x=5.767*, pos_z=-29.084*, pos_y=0.000*, direction=163.6°*)
 91: 0x02D0 [0xBA] SET_ENTITY_POSITION(entity_id=Rapipi (ID: 16994431/0x0103507F), pos_x=6.245*, pos_z=-29.699*, pos_y=0.000*, direction=163.7°*)
 92: 0x02DD [0x52] END_LOAD_SCHEDULER: End scheduler "s105" with entities [LocalPlayer, LocalPlayer], work=281*
 93: 0x02EC [0x45] LOAD_SCHEDULED_TASK: Load scheduler "s151" with entities [LocalPlayer, LocalPlayer], work=[281*, 0*]
 94: 0x02FD [0x2A] GET_REQ_LEVEL(level=16, entity_id=Kakkaroon (ID: 16994430/0x0103507E))
 95: 0x0303 [0x4A] Kakkaroon (ID: 16994430/0x0103507E) looks at LocalPlayer
 96: 0x030C [0x5B] LOAD_EXT_SCHEDULER: Load scheduler "tlb0" with entities [Kakkaroon (ID: 16994430/0x0103507E), Kakkaroon (ID: 16994430/0x0103507E)], work=843*
 97: 0x031B [0x2B] Kakkaroon (ID: 16994430/0x0103507E) [11401*]:
    → "Safe from eeevil babeee of Tarooo, no?"
 98: 0x0322 [0x23] WAIT_FOR_DIALOG_INTERACTION
 99: 0x0323 [0x5B] LOAD_EXT_SCHEDULER: Load scheduler "tlb1" with entities [Kakkaroon (ID: 16994430/0x0103507E), Kakkaroon (ID: 16994430/0x0103507E)], work=843*
100: 0x0332 [0x5B] LOAD_EXT_SCHEDULER: Load scheduler "wht0" with entities [Kakkaroon (ID: 16994430/0x0103507E), Kakkaroon (ID: 16994430/0x0103507E)], work=881*
101: 0x0341 [0x2B] Kakkaroon (ID: 16994430/0x0103507E) [11402*]:
    → "No one ever find Kakka, never! No one except yooo, but yooo not eeevil babeee of Tarooo so everything ok, no?"
102: 0x0348 [0x23] WAIT_FOR_DIALOG_INTERACTION
103: 0x0349 [0x5B] LOAD_EXT_SCHEDULER: Load scheduler "wht1" with entities [Kakkaroon (ID: 16994430/0x0103507E), Kakkaroon (ID: 16994430/0x0103507E)], work=881*
104: 0x0358 [0x52] END_LOAD_SCHEDULER: End scheduler "s151" with entities [LocalPlayer, LocalPlayer], work=281*
105: 0x0367 [0x45] LOAD_SCHEDULED_TASK: Load scheduler "s152" with entities [LocalPlayer, LocalPlayer], work=[281*, 0*]
106: 0x0378 [0x1C] WAIT(120* ticks)
107: 0x037B [0x4A] Kakkaroon (ID: 16994430/0x0103507E) looks at Rapipi (ID: 16994431/0x0103507F)
108: 0x0384 [0x1C] WAIT(30* ticks)
109: 0x0387 [0x5B] LOAD_EXT_SCHEDULER: Load scheduler "bik0" with entities [Kakkaroon (ID: 16994430/0x0103507E), Kakkaroon (ID: 16994430/0x0103507E)], work=919*
110: 0x0396 [0x1C] WAIT(15* ticks)
111: 0x0399 [0x2B] Kakkaroon (ID: 16994430/0x0103507E) [11403*]:
    → "Mgwah!"
112: 0x03A0 [0x23] WAIT_FOR_DIALOG_INTERACTION
113: 0x03A1 [0x4A] LocalPlayer looks at Rapipi (ID: 16994431/0x0103507F)
114: 0x03AA [0x27] REQ_SET(priority=0x10, entity_id=Rutta-Watta (ID: 16994433/0x01035081), tag_num=0x02)
115: 0x03B1 [0x27] REQ_SET(priority=0x10, entity_id=Eohoh (ID: 16994432/0x01035080), tag_num=0x02)
116: 0x03B8 [0x27] REQ_SET(priority=0x10, entity_id=Rapipi (ID: 16994431/0x0103507F), tag_num=0x02)
117: 0x03BF [0x1C] WAIT(60* ticks)
118: 0x03C2 [0x52] END_LOAD_SCHEDULER: End scheduler "s152" with entities [LocalPlayer, LocalPlayer], work=281*
119: 0x03D1 [0x45] LOAD_SCHEDULED_TASK: Load scheduler "s107" with entities [LocalPlayer, LocalPlayer], work=[281*, 0*]
120: 0x03E2 [0x6B] STOP_AND_IDLE: Kakkaroon (ID: 16994430/0x0103507E) stops current action and resets to idle (animation="idl0")
121: 0x03EB [0x4A] Kakkaroon (ID: 16994430/0x0103507E) looks at Rapipi (ID: 16994431/0x0103507F)
122: 0x03F4 [0x2A] GET_REQ_LEVEL(level=16, entity_id=Rutta-Watta (ID: 16994433/0x01035081))
123: 0x03FA [0x2A] GET_REQ_LEVEL(level=16, entity_id=Rapipi (ID: 16994431/0x0103507F))
124: 0x0400 [0x2A] GET_REQ_LEVEL(level=16, entity_id=Eohoh (ID: 16994432/0x01035080))
125: 0x0406 [0x4A] Rutta-Watta (ID: 16994433/0x01035081) looks at Eohoh (ID: 16994432/0x01035080)
126: 0x040F [0x4A] Eohoh (ID: 16994432/0x01035080) looks at Rutta-Watta (ID: 16994433/0x01035081)
127: 0x0418 [0x4A] Rapipi (ID: 16994431/0x0103507F) looks at Rutta-Watta (ID: 16994433/0x01035081)
128: 0x0421 [0x66] LOAD_EXT_SCHEDULER_MAIN: Load scheduler "tlk0" with entities [Rutta-Watta (ID: 16994433/0x01035081), Rutta-Watta (ID: 16994433/0x01035081)], work=49*
129: 0x0430 [0x2B] Rutta-Watta (ID: 16994433/0x01035081) [11404*]:
    → "Daaarling! Have you ever seen such a quaint little villette?"
130: 0x0437 [0x23] WAIT_FOR_DIALOG_INTERACTION
131: 0x0438 [0x66] LOAD_EXT_SCHEDULER_MAIN: Load scheduler "tlk1" with entities [Rutta-Watta (ID: 16994433/0x01035081), Rutta-Watta (ID: 16994433/0x01035081)], work=49*
132: 0x0447 [0x1C] WAIT(20* ticks)
133: 0x044A [0x52] END_LOAD_SCHEDULER: End scheduler "s107" with entities [LocalPlayer, LocalPlayer], work=281*
134: 0x0459 [0x45] LOAD_SCHEDULED_TASK: Load scheduler "s153" with entities [LocalPlayer, LocalPlayer], work=[281*, 0*]
135: 0x046A [0x66] LOAD_EXT_SCHEDULER_MAIN: Load scheduler "tlk0" with entities [Rutta-Watta (ID: 16994433/0x01035081), Rutta-Watta (ID: 16994433/0x01035081)], work=49*
136: 0x0479 [0x2B] Rutta-Watta (ID: 16994433/0x01035081) [11405*]:
    → "Why, this place is just overfluctuating with Qiqirn!"
137: 0x0480 [0x23] WAIT_FOR_DIALOG_INTERACTION
138: 0x0481 [0x66] LOAD_EXT_SCHEDULER_MAIN: Load scheduler "tlk1" with entities [Rutta-Watta (ID: 16994433/0x01035081), Rutta-Watta (ID: 16994433/0x01035081)], work=49*
139: 0x0490 [0x1C] WAIT(20* ticks)
140: 0x0493 [0x52] END_LOAD_SCHEDULER: End scheduler "s153" with entities [LocalPlayer, LocalPlayer], work=281*
141: 0x04A2 [0x45] LOAD_SCHEDULED_TASK: Load scheduler "s154" with entities [LocalPlayer, LocalPlayer], work=[281*, 0*]
142: 0x04B3 [0x66] LOAD_EXT_SCHEDULER_MAIN: Load scheduler "tlk0" with entities [Eohoh (ID: 16994432/0x01035080), Eohoh (ID: 16994432/0x01035080)], work=49*
143: 0x04C2 [0x4A] Rapipi (ID: 16994431/0x0103507F) looks at Eohoh (ID: 16994432/0x01035080)
144: 0x04CB [0x2B] Eohoh (ID: 16994432/0x01035080) [11406*]:
    → "Wonderful!"
145: 0x04D2 [0x23] WAIT_FOR_DIALOG_INTERACTION
146: 0x04D3 [0x2B] Eohoh (ID: 16994432/0x01035080) [11407*]:
    → "Ever since last week, I've wanted to grab one of those cute, cuddly fluffmuffins and give it a big hug. And now..."
147: 0x04DA [0x23] WAIT_FOR_DIALOG_INTERACTION
148: 0x04DB [0x66] LOAD_EXT_SCHEDULER_MAIN: Load scheduler "tlk1" with entities [Eohoh (ID: 16994432/0x01035080), Eohoh (ID: 16994432/0x01035080)], work=49*
149: 0x04EA [0x52] END_LOAD_SCHEDULER: End scheduler "s154" with entities [LocalPlayer, LocalPlayer], work=281*
150: 0x04F9 [0x45] LOAD_SCHEDULED_TASK: Load scheduler "s155" with entities [LocalPlayer, LocalPlayer], work=[281*, 0*]
151: 0x050A [0x1C] WAIT(30* ticks)
152: 0x050D [0x2B] Eohoh (ID: 16994432/0x01035080) [11408*]:
    → "It's like we've died and gone to Nashmau!"
153: 0x0514 [0x23] WAIT_FOR_DIALOG_INTERACTION
154: 0x0515 [0x2B] Rutta-Watta (ID: 16994433/0x01035081) [11409*]:
    → "You can say that again, my dearestine!"
155: 0x051C [0x23] WAIT_FOR_DIALOG_INTERACTION
156: 0x051D [0x4A] Rapipi (ID: 16994431/0x0103507F) looks at Kakkaroon (ID: 16994430/0x0103507E)
157: 0x0526 [0x6F] WAIT_FRAME_DELAY: Yield until WaitTime reaches zero
158: 0x0527 [0x76] CHECK_ENTITY_RENDER_FLAGS: Wait until Rapipi (ID: 16994431/0x0103507F) Render.Flags0 and Render.Flags3 conditions are met
159: 0x052C [0x5B] LOAD_EXT_SCHEDULER: Load scheduler "jmp0" with entities [Rapipi (ID: 16994431/0x0103507F), Rapipi (ID: 16994431/0x0103507F)], work=85*
160: 0x053B [0x2B] Rapipi (ID: 16994431/0x0103507F) [11410*]:
    → "Ah! Kookywoon!"
161: 0x0542 [0x23] WAIT_FOR_DIALOG_INTERACTION
162: 0x0543 [0x52] END_LOAD_SCHEDULER: End scheduler "s155" with entities [LocalPlayer, LocalPlayer], work=281*
163: 0x0552 [0x45] LOAD_SCHEDULED_TASK: Load scheduler "s156" with entities [LocalPlayer, LocalPlayer], work=[281*, 0*]
164: 0x0563 [0x4A] Rutta-Watta (ID: 16994433/0x01035081) looks at Kakkaroon (ID: 16994430/0x0103507E)
165: 0x056C [0x2B] Rutta-Watta (ID: 16994433/0x01035081) [11411*]:
    → "Well, I'll be."
166: 0x0573 [0x23] WAIT_FOR_DIALOG_INTERACTION
167: 0x0574 [0x4A] Eohoh (ID: 16994432/0x01035080) looks at Kakkaroon (ID: 16994430/0x0103507E)
168: 0x057D [0x2B] Eohoh (ID: 16994432/0x01035080) [11412*]:
    → "What have we here?"
169: 0x0584 [0x23] WAIT_FOR_DIALOG_INTERACTION
170: 0x0585 [0x52] END_LOAD_SCHEDULER: End scheduler "s156" with entities [LocalPlayer, LocalPlayer], work=281*
171: 0x0594 [0x45] LOAD_SCHEDULED_TASK: Load scheduler "s108" with entities [LocalPlayer, LocalPlayer], work=[281*, 0*]
172: 0x05A5 [0xBA] SET_ENTITY_POSITION(entity_id=Eohoh (ID: 16994432/0x01035080), pos_x=8.723*, pos_z=-23.117*, pos_y=0.000*, direction=154.1°*)
173: 0x05B2 [0xBA] SET_ENTITY_POSITION(entity_id=Rutta-Watta (ID: 16994433/0x01035081), pos_x=8.273*, pos_z=-23.267*, pos_y=0.000*, direction=154.1°*)
174: 0x05BF [0xBA] SET_ENTITY_POSITION(entity_id=Rapipi (ID: 16994431/0x0103507F), pos_x=8.273*, pos_z=-23.267*, pos_y=0.000*, direction=154.1°*)
175: 0x05CC [0x2B] Kakkaroon (ID: 16994430/0x0103507E) [11413*]:
    → "Nooo! Eeevil babeee of Tarooo find Kakka!"
176: 0x05D3 [0x23] WAIT_FOR_DIALOG_INTERACTION
177: 0x05D4 [0x27] REQ_SET(priority=0x10, entity_id=Kakkaroon (ID: 16994430/0x0103507E), tag_num=0x03)
178: 0x05DB [0x27] REQ_SET(priority=0x10, entity_id=Rapipi (ID: 16994431/0x0103507F), tag_num=0x03)
179: 0x05E2 [0x27] REQ_SET(priority=0x10, entity_id=Eohoh (ID: 16994432/0x01035080), tag_num=0x03)
180: 0x05E9 [0x27] REQ_SET(priority=0x10, entity_id=Rutta-Watta (ID: 16994433/0x01035081), tag_num=0x03)
181: 0x05F0 [0x1A] CALL_SUBROUTINE(address=0x3F62)
182: 0x05F3 [0x1C] WAIT(30* ticks)
183: 0x05F6 [0x4E] SET_ENTITY_HIDE_FLAG: Hide Kakkaroon (ID: 16994430/0x0103507E)
184: 0x05FC [0xBA] SET_ENTITY_POSITION(entity_id=LocalPlayer, pos_x=16.350*, pos_z=-23.917*, pos_y=0.000*, direction=151.9°*)
185: 0x0609 [0x52] END_LOAD_SCHEDULER: End scheduler "s110" with entities [LocalPlayer, LocalPlayer], work=281*
186: 0x0618 [0x45] LOAD_SCHEDULED_TASK: Load scheduler "s111" with entities [LocalPlayer, LocalPlayer], work=[281*, 0*]
187: 0x0629 [0x1A] CALL_SUBROUTINE(address=0x3F41)
188: 0x062C [0x4A] LocalPlayer looks at Rapipi (ID: 16994431/0x0103507F)
189: 0x0635 [0x2A] GET_REQ_LEVEL(level=16, entity_id=Rapipi (ID: 16994431/0x0103507F))
190: 0x063B [0x2B] Rapipi (ID: 16994431/0x0103507F) [11415*]:
    → "Kookywoon wun away...<snuffle>...and go...bye-bye...<sniffle>"
191: 0x0642 [0x23] WAIT_FOR_DIALOG_INTERACTION
192: 0x0643 [0x52] END_LOAD_SCHEDULER: End scheduler "s111" with entities [LocalPlayer, LocalPlayer], work=281*
193: 0x0652 [0x45] LOAD_SCHEDULED_TASK: Load scheduler "s112" with entities [LocalPlayer, LocalPlayer], work=[281*, 0*]
194: 0x0663 [0x7B] Rapipi (ID: 16994431/0x0103507F) stops talking
195: 0x0668 [0x5B] LOAD_EXT_SCHEDULER: Load scheduler "kow0" with entities [Rapipi (ID: 16994431/0x0103507F), Rapipi (ID: 16994431/0x0103507F)], work=85*
196: 0x0677 [0x2B] Rapipi (ID: 16994431/0x0103507F) [11416*]:
    → "Waaaaaaaaahhh!"
197: 0x067E [0x23] WAIT_FOR_DIALOG_INTERACTION
198: 0x067F [0x4A] Eohoh (ID: 16994432/0x01035080) looks at Rapipi (ID: 16994431/0x0103507F)
199: 0x0688 [0x4A] Rutta-Watta (ID: 16994433/0x01035081) looks at Rapipi (ID: 16994431/0x0103507F)
200: 0x0691 [0x1C] WAIT(30* ticks)
201: 0x0694 [0x52] END_LOAD_SCHEDULER: End scheduler "s112" with entities [LocalPlayer, LocalPlayer], work=281*
202: 0x06A3 [0x45] LOAD_SCHEDULED_TASK: Load scheduler "s157" with entities [LocalPlayer, LocalPlayer], work=[281*, 0*]
203: 0x06B4 [0x6E] Eohoh (ID: 16994432/0x01035080) uses emote 29*
204: 0x06BB [0x99] Wait for Eohoh (ID: 16994432/0x01035080) animation to complete
205: 0x06C0 [0x2B] Eohoh (ID: 16994432/0x01035080) [11417*]:
    → "Look, honey, Rapipi's crying!"
206: 0x06C7 [0x23] WAIT_FOR_DIALOG_INTERACTION
207: 0x06C8 [0xBA] SET_ENTITY_POSITION(entity_id=Rapipi (ID: 16994431/0x0103507F), pos_x=18.008*, pos_z=-26.794*, pos_y=0.000*, direction=43.9°*)
208: 0x06D5 [0x99] Wait for Eohoh (ID: 16994432/0x01035080) animation to complete
209: 0x06DA [0x1C] WAIT(30* ticks)
210: 0x06DD [0x52] END_LOAD_SCHEDULER: End scheduler "s157" with entities [LocalPlayer, LocalPlayer], work=281*
211: 0x06EC [0x45] LOAD_SCHEDULED_TASK: Load scheduler "s158" with entities [LocalPlayer, LocalPlayer], work=[281*, 0*]
212: 0x06FD [0x6E] Rutta-Watta (ID: 16994433/0x01035081) uses emote 14*
213: 0x0704 [0x99] Wait for Rutta-Watta (ID: 16994433/0x01035081) animation to complete
214: 0x0709 [0x2B] Rutta-Watta (ID: 16994433/0x01035081) [11418*]:
    → "And aren't you sooo cute when you're upset? Yes you are! Yes you are!"
215: 0x0710 [0x23] WAIT_FOR_DIALOG_INTERACTION
216: 0x0711 [0x99] Wait for Rutta-Watta (ID: 16994433/0x01035081) animation to complete
217: 0x0716 [0x1C] WAIT(45* ticks)
218: 0x0719 [0x52] END_LOAD_SCHEDULER: End scheduler "s158" with entities [LocalPlayer, LocalPlayer], work=281*
219: 0x0728 [0x45] LOAD_SCHEDULED_TASK: Load scheduler "s113" with entities [LocalPlayer, LocalPlayer], work=[281*, 0*]
220: 0x0739 [0xBA] SET_ENTITY_POSITION(entity_id=LocalPlayer, pos_x=16.153*, pos_z=-24.590*, pos_y=0.000*, direction=151.9°*)
221: 0x0746 [0x1A] CALL_SUBROUTINE(address=0x3F41)
222: 0x0749 [0x4A] Rutta-Watta (ID: 16994433/0x01035081) looks at LocalPlayer
223: 0x0752 [0x4A] LocalPlayer looks at Rutta-Watta (ID: 16994433/0x01035081)
224: 0x075B [0x66] LOAD_EXT_SCHEDULER_MAIN: Load scheduler "tlk0" with entities [Rutta-Watta (ID: 16994433/0x01035081), Rutta-Watta (ID: 16994433/0x01035081)], work=49*
225: 0x076A [0x2B] Rutta-Watta (ID: 16994433/0x01035081) [11419*]:
    → "Well, don't just stand there like a lumberwielder. Tell me my daughter is cute when she cries. Come on."
226: 0x0771 [0x23] WAIT_FOR_DIALOG_INTERACTION
227: 0x0772 [0x66] LOAD_EXT_SCHEDULER_MAIN: Load scheduler "tlk1" with entities [Rutta-Watta (ID: 16994433/0x01035081), Rutta-Watta (ID: 16994433/0x01035081)], work=49*
228: 0x0781 [0x4A] Eohoh (ID: 16994432/0x01035080) looks at Rutta-Watta (ID: 16994433/0x01035081)
229: 0x078A [0x2B] Eohoh (ID: 16994432/0x01035080) [11420*]:
    → "Honeymuffin, are you talking to strangers again?"
230: 0x0791 [0x23] WAIT_FOR_DIALOG_INTERACTION
231: 0x0792 [0x52] END_LOAD_SCHEDULER: End scheduler "s113" with entities [LocalPlayer, LocalPlayer], work=281*
232: 0x07A1 [0x45] LOAD_SCHEDULED_TASK: Load scheduler "s112" with entities [LocalPlayer, LocalPlayer], work=[281*, 0*]
233: 0x07B2 [0x24] CREATE_DIALOG(message_id=11421*, default_option=0*, option_flags=0*)
    → "Well, is she cute? [Cuter than a button./Can't tell from this angle.]"
234: 0x07B9 [0x25] WAIT_DIALOG_SELECT()
235: 0x07BA [0x02] IF !(Work_Zone[0] == 0*) GOTO 0x0811
236: 0x07C2 [0x52] END_LOAD_SCHEDULER: End scheduler "s112" with entities [LocalPlayer, LocalPlayer], work=281*
237: 0x07D1 [0x45] LOAD_SCHEDULED_TASK: Load scheduler "s159" with entities [LocalPlayer, LocalPlayer], work=[281*, 0*]
238: 0x07E2 [0x6B] STOP_AND_IDLE: Rapipi (ID: 16994431/0x0103507F) stops current action and resets to idle (animation="idl0")
239: 0x07EB [0x27] REQ_SET(priority=0x10, entity_id=Rutta-Watta (ID: 16994433/0x01035081), tag_num=0x04)
240: 0x07F2 [0x6E] LocalPlayer uses emote 21*
241: 0x07F9 [0x99] Wait for LocalPlayer animation to complete
242: 0x07FE [0x2B] Rutta-Watta (ID: 16994433/0x01035081) [11422*]:
    → "Are you calling my Rapipi ugly!? I should have you tied up and tossed into a pit of saberteething tigers! How could you not just melt when you see her..."
243: 0x0805 [0x23] WAIT_FOR_DIALOG_INTERACTION
244: 0x0806 [0x99] Wait for LocalPlayer animation to complete
245: 0x080B [0x1C] WAIT(45* ticks)
246: 0x080E [0x01] GOTO 0x0868
247: 0x0811 [0x02] IF !(Work_Zone[0] == 1*) GOTO 0x0868
248: 0x0819 [0x52] END_LOAD_SCHEDULER: End scheduler "s112" with entities [LocalPlayer, LocalPlayer], work=281*
249: 0x0828 [0x45] LOAD_SCHEDULED_TASK: Load scheduler "s159" with entities [LocalPlayer, LocalPlayer], work=[281*, 0*]
250: 0x0839 [0x6B] STOP_AND_IDLE: Rapipi (ID: 16994431/0x0103507F) stops current action and resets to idle (animation="idl0")
251: 0x0842 [0x27] REQ_SET(priority=0x10, entity_id=Rutta-Watta (ID: 16994433/0x01035081), tag_num=0x04)
252: 0x0849 [0x6E] LocalPlayer uses emote 21*
253: 0x0850 [0x99] Wait for LocalPlayer animation to complete
254: 0x0855 [0x2B] Rutta-Watta (ID: 16994433/0x01035081) [11422*]:
    → "Are you calling my Rapipi ugly!? I should have you tied up and tossed into a pit of saberteething tigers! How could you not just melt when you see her..."
255: 0x085C [0x23] WAIT_FOR_DIALOG_INTERACTION
256: 0x085D [0x99] Wait for LocalPlayer animation to complete
257: 0x0862 [0x1C] WAIT(45* ticks)
258: 0x0865 [0x01] GOTO 0x0868

SUBROUTINE_0868:
259: 0x0868 [0x1C] WAIT(15* ticks)
260: 0x086B [0x52] END_LOAD_SCHEDULER: End scheduler "s159" with entities [LocalPlayer, LocalPlayer], work=281*
261: 0x087A [0x45] LOAD_SCHEDULED_TASK: Load scheduler "s160" with entities [LocalPlayer, LocalPlayer], work=[281*, 0*]
262: 0x088B [0x2B] Rutta-Watta (ID: 16994433/0x01035081) [11423*]:
    → "...roundocular eyes!"
263: 0x0892 [0x23] WAIT_FOR_DIALOG_INTERACTION
264: 0x0893 [0x52] END_LOAD_SCHEDULER: End scheduler "s160" with entities [LocalPlayer, LocalPlayer], work=281*
265: 0x08A2 [0x45] LOAD_SCHEDULED_TASK: Load scheduler "s161" with entities [LocalPlayer, LocalPlayer], work=[281*, 0*]
266: 0x08B3 [0x2B] Rutta-Watta (ID: 16994433/0x01035081) [11424*]:
    → "Her miniaturesque paws!"
267: 0x08BA [0x23] WAIT_FOR_DIALOG_INTERACTION
268: 0x08BB [0x52] END_LOAD_SCHEDULER: End scheduler "s161" with entities [LocalPlayer, LocalPlayer], work=281*
269: 0x08CA [0x45] LOAD_SCHEDULED_TASK: Load scheduler "s162" with entities [LocalPlayer, LocalPlayer], work=[281*, 0*]
270: 0x08DB [0x2B] Rutta-Watta (ID: 16994433/0x01035081) [11425*]:
    → "Her pretticular touche!"
271: 0x08E2 [0x23] WAIT_FOR_DIALOG_INTERACTION
272: 0x08E3 [0x52] END_LOAD_SCHEDULER: End scheduler "s162" with entities [LocalPlayer, LocalPlayer], work=281*
273: 0x08F2 [0x45] LOAD_SCHEDULED_TASK: Load scheduler "s163" with entities [LocalPlayer, LocalPlayer], work=[281*, 0*]
274: 0x0903 [0x4A] Rutta-Watta (ID: 16994433/0x01035081) looks at Rapipi (ID: 16994431/0x0103507F)
275: 0x090C [0x6F] WAIT_FRAME_DELAY: Yield until WaitTime reaches zero
276: 0x090D [0x76] CHECK_ENTITY_RENDER_FLAGS: Wait until Rutta-Watta (ID: 16994433/0x01035081) Render.Flags0 and Render.Flags3 conditions are met
277: 0x0912 [0x6E] Rutta-Watta (ID: 16994433/0x01035081) uses emote 24*
278: 0x0919 [0x99] Wait for Rutta-Watta (ID: 16994433/0x01035081) animation to complete
279: 0x091E [0x2B] Rutta-Watta (ID: 16994433/0x01035081) [11426*]:
    → "Hey! You'd better keep your eyes off her touche if you know what's good for you."
280: 0x0925 [0x23] WAIT_FOR_DIALOG_INTERACTION
281: 0x0926 [0x99] Wait for Rutta-Watta (ID: 16994433/0x01035081) animation to complete
282: 0x092B [0x27] REQ_SET(priority=0x10, entity_id=Rutta-Watta (ID: 16994433/0x01035081), tag_num=0x05)
283: 0x0932 [0x2B] Rutta-Watta (ID: 16994433/0x01035081) [11427*]:
    → "No, there's not a thing in this world that I wouldn't do for my expialafragilistic daughter. Even if it meant eating a Qiqirn's brain!"
284: 0x0939 [0x23] WAIT_FOR_DIALOG_INTERACTION
285: 0x093A [0x52] END_LOAD_SCHEDULER: End scheduler "s163" with entities [LocalPlayer, LocalPlayer], work=281*
286: 0x0949 [0x45] LOAD_SCHEDULED_TASK: Load scheduler "s164" with entities [LocalPlayer, LocalPlayer], work=[281*, 0*]
287: 0x095A [0x4A] Eohoh (ID: 16994432/0x01035080) looks at Rutta-Watta (ID: 16994433/0x01035081)
288: 0x0963 [0x4A] Rutta-Watta (ID: 16994433/0x01035081) looks at Eohoh (ID: 16994432/0x01035080)
289: 0x096C [0x6E] Eohoh (ID: 16994432/0x01035080) uses emote 6*
290: 0x0973 [0x99] Wait for Eohoh (ID: 16994432/0x01035080) animation to complete
291: 0x0978 [0x2B] Eohoh (ID: 16994432/0x01035080) [11428*]:
    → "You can't eat their brains, Muffinsickle, they have fleas."
292: 0x097F [0x23] WAIT_FOR_DIALOG_INTERACTION
293: 0x0980 [0x99] Wait for Eohoh (ID: 16994432/0x01035080) animation to complete
294: 0x0985 [0x52] END_LOAD_SCHEDULER: End scheduler "s164" with entities [LocalPlayer, LocalPlayer], work=281*
295: 0x0994 [0x45] LOAD_SCHEDULED_TASK: Load scheduler "s166" with entities [LocalPlayer, LocalPlayer], work=[281*, 0*]
296: 0x09A5 [0x66] LOAD_EXT_SCHEDULER_MAIN: Load scheduler "thk1" with entities [Eohoh (ID: 16994432/0x01035080), Eohoh (ID: 16994432/0x01035080)], work=49*
297: 0x09B4 [0x2B] Eohoh (ID: 16994432/0x01035080) [11429*]:
    → "Speaking of Qiqirn, where did Rapipi's little friend go anyway?"
298: 0x09BB [0x23] WAIT_FOR_DIALOG_INTERACTION
299: 0x09BC [0x52] END_LOAD_SCHEDULER: End scheduler "s166" with entities [LocalPlayer, LocalPlayer], work=281*
300: 0x09CB [0x45] LOAD_SCHEDULED_TASK: Load scheduler "s120" with entities [LocalPlayer, LocalPlayer], work=[281*, 0*]
301: 0x09DC [0x2B] Eohoh (ID: 16994432/0x01035080) [11430*]:
    → "Rapipi only wanted to play with him, not eat his brain or anything!"
302: 0x09E3 [0x23] WAIT_FOR_DIALOG_INTERACTION
303: 0x09E4 [0x66] LOAD_EXT_SCHEDULER_MAIN: Load scheduler "thk2" with entities [Eohoh (ID: 16994432/0x01035080), Eohoh (ID: 16994432/0x01035080)], work=49*
304: 0x09F3 [0x53] WAIT_SCHEDULER_TASK: Wait for scheduler "thk2" with entities [Eohoh (ID: 16994432/0x01035080), Eohoh (ID: 16994432/0x01035080)]
305: 0x0A00 [0x52] END_LOAD_SCHEDULER: End scheduler "s120" with entities [LocalPlayer, LocalPlayer], work=281*
306: 0x0A0F [0x45] LOAD_SCHEDULED_TASK: Load scheduler "s165" with entities [LocalPlayer, LocalPlayer], work=[281*, 0*]
307: 0x0A20 [0x4A] Eohoh (ID: 16994432/0x01035080) looks at LocalPlayer
308: 0x0A29 [0x4A] LocalPlayer looks at Eohoh (ID: 16994432/0x01035080)
309: 0x0A32 [0x66] LOAD_EXT_SCHEDULER_MAIN: Load scheduler "tlk0" with entities [Eohoh (ID: 16994432/0x01035080), Eohoh (ID: 16994432/0x01035080)], work=49*
310: 0x0A41 [0x2B] Eohoh (ID: 16994432/0x01035080) [11431*]:
    → "Oh, were you still there?"
311: 0x0A48 [0x23] WAIT_FOR_DIALOG_INTERACTION
312: 0x0A49 [0x66] LOAD_EXT_SCHEDULER_MAIN: Load scheduler "tlk1" with entities [Eohoh (ID: 16994432/0x01035080), Eohoh (ID: 16994432/0x01035080)], work=49*
313: 0x0A58 [0x6E] Rutta-Watta (ID: 16994433/0x01035081) uses emote 11*
314: 0x0A5F [0x99] Wait for Rutta-Watta (ID: 16994433/0x01035081) animation to complete
315: 0x0A64 [0x2B] Rutta-Watta (ID: 16994433/0x01035081) [11432*]:
    → "I guess we ought to introducicate ourselves. As you might have already realized, we're from out of town."
316: 0x0A6B [0x23] WAIT_FOR_DIALOG_INTERACTION
317: 0x0A6C [0x99] Wait for Rutta-Watta (ID: 16994433/0x01035081) animation to complete
318: 0x0A71 [0x52] END_LOAD_SCHEDULER: End scheduler "s165" with entities [LocalPlayer, LocalPlayer], work=281*
319: 0x0A80 [0x45] LOAD_SCHEDULED_TASK: Load scheduler "s120" with entities [LocalPlayer, LocalPlayer], work=[281*, 0*]
320: 0x0A91 [0x6B] STOP_AND_IDLE: Rapipi (ID: 16994431/0x0103507F) stops current action and resets to idle (animation="idl0")
321: 0x0A9A [0x4A] LocalPlayer looks at Rutta-Watta (ID: 16994433/0x01035081)
322: 0x0AA3 [0x4A] Rutta-Watta (ID: 16994433/0x01035081) looks at LocalPlayer
323: 0x0AAC [0x6F] WAIT_FRAME_DELAY: Yield until WaitTime reaches zero
324: 0x0AAD [0x76] CHECK_ENTITY_RENDER_FLAGS: Wait until Rutta-Watta (ID: 16994433/0x01035081) Render.Flags0 and Render.Flags3 conditions are met
325: 0x0AB2 [0x6E] Rutta-Watta (ID: 16994433/0x01035081) uses emote 1*
326: 0x0AB9 [0x99] Wait for Rutta-Watta (ID: 16994433/0x01035081) animation to complete
327: 0x0ABE [0x27] REQ_SET(priority=0x0A, entity_id=Rutta-Watta (ID: 16994433/0x01035081), tag_num=0x0F)
328: 0x0AC5 [0x2B] Rutta-Watta (ID: 16994433/0x01035081) [11433*]:
    → "My name is Rutta-Watta, father of Rapipi."
329: 0x0ACC [0x23] WAIT_FOR_DIALOG_INTERACTION
330: 0x0ACD [0x99] Wait for Rutta-Watta (ID: 16994433/0x01035081) animation to complete
331: 0x0AD2 [0x2A] GET_REQ_LEVEL(level=10, entity_id=Rutta-Watta (ID: 16994433/0x01035081))
332: 0x0AD8 [0x4A] Rutta-Watta (ID: 16994433/0x01035081) looks at Eohoh (ID: 16994432/0x01035080)
333: 0x0AE1 [0x6F] WAIT_FRAME_DELAY: Yield until WaitTime reaches zero
334: 0x0AE2 [0x76] CHECK_ENTITY_RENDER_FLAGS: Wait until Rutta-Watta (ID: 16994433/0x01035081) Render.Flags0 and Render.Flags3 conditions are met
335: 0x0AE7 [0x66] LOAD_EXT_SCHEDULER_MAIN: Load scheduler "tlk0" with entities [Rutta-Watta (ID: 16994433/0x01035081), Rutta-Watta (ID: 16994433/0x01035081)], work=49*
336: 0x0AF6 [0x2B] Rutta-Watta (ID: 16994433/0x01035081) [11434*]:
    → "And this is Eohoh, mother of Rapipi."
337: 0x0AFD [0x23] WAIT_FOR_DIALOG_INTERACTION
338: 0x0AFE [0x66] LOAD_EXT_SCHEDULER_MAIN: Load scheduler "tlk1" with entities [Rutta-Watta (ID: 16994433/0x01035081), Rutta-Watta (ID: 16994433/0x01035081)], work=49*
339: 0x0B0D [0x53] WAIT_SCHEDULER_TASK: Wait for scheduler "tlk1" with entities [Rutta-Watta (ID: 16994433/0x01035081), Rutta-Watta (ID: 16994433/0x01035081)]
340: 0x0B1A [0x4A] Rutta-Watta (ID: 16994433/0x01035081) looks at Rapipi (ID: 16994431/0x0103507F)
341: 0x0B23 [0x4A] Rapipi (ID: 16994431/0x0103507F) looks at Rutta-Watta (ID: 16994433/0x01035081)
342: 0x0B2C [0x27] REQ_SET(priority=0x10, entity_id=Rutta-Watta (ID: 16994433/0x01035081), tag_num=0x06)
343: 0x0B33 [0x27] REQ_SET(priority=0x10, entity_id=Rutta-Watta (ID: 16994433/0x01035081), tag_num=0x07)
344: 0x0B3A [0x4A] Rapipi (ID: 16994431/0x0103507F) looks at LocalPlayer
345: 0x0B43 [0x27] REQ_SET(priority=0x10, entity_id=Rapipi (ID: 16994431/0x0103507F), tag_num=0x04)
346: 0x0B4A [0x27] REQ_SET(priority=0x10, entity_id=Rutta-Watta (ID: 16994433/0x01035081), tag_num=0x08)
347: 0x0B51 [0x2A] GET_REQ_LEVEL(level=16, entity_id=Rutta-Watta (ID: 16994433/0x01035081))
348: 0x0B57 [0x1C] WAIT(15* ticks)
349: 0x0B5A [0x4A] Rutta-Watta (ID: 16994433/0x01035081) looks at LocalPlayer
350: 0x0B63 [0x2B] Rutta-Watta (ID: 16994433/0x01035081) [11435*]:
    → "And this is Rapipi, Rapipi of Rapipi."
351: 0x0B6A [0x23] WAIT_FOR_DIALOG_INTERACTION
352: 0x0B6B [0x52] END_LOAD_SCHEDULER: End scheduler "s120" with entities [LocalPlayer, LocalPlayer], work=281*
353: 0x0B7A [0x45] LOAD_SCHEDULED_TASK: Load scheduler "s121" with entities [LocalPlayer, LocalPlayer], work=[281*, 0*]
354: 0x0B8B [0x4A] LocalPlayer looks at Eohoh (ID: 16994432/0x01035080)
355: 0x0B94 [0x4A] Rapipi (ID: 16994431/0x0103507F) looks at Eohoh (ID: 16994432/0x01035080)
356: 0x0B9D [0x66] LOAD_EXT_SCHEDULER_MAIN: Load scheduler "tlk0" with entities [Eohoh (ID: 16994432/0x01035080), Eohoh (ID: 16994432/0x01035080)], work=49*
357: 0x0BAC [0x2B] Eohoh (ID: 16994432/0x01035080) [11436*]:
    → "The three of us came to this island in search of something warm and fuzzy!"
358: 0x0BB3 [0x23] WAIT_FOR_DIALOG_INTERACTION
359: 0x0BB4 [0x2B] Eohoh (ID: 16994432/0x01035080) [11437*]:
    → "You see, my husband and I love all things cute and cuddly, and we have spent the last five years roaming the globe in search of things that meet our strict standards."
360: 0x0BBB [0x23] WAIT_FOR_DIALOG_INTERACTION
361: 0x0BBC [0x66] LOAD_EXT_SCHEDULER_MAIN: Load scheduler "tlk1" with entities [Eohoh (ID: 16994432/0x01035080), Eohoh (ID: 16994432/0x01035080)], work=49*
362: 0x0BCB [0x52] END_LOAD_SCHEDULER: End scheduler "s121" with entities [LocalPlayer, LocalPlayer], work=281*
363: 0x0BDA [0x45] LOAD_SCHEDULED_TASK: Load scheduler "s122" with entities [LocalPlayer, LocalPlayer], work=[281*, 0*]
364: 0x0BEB [0x4A] LocalPlayer looks at Rutta-Watta (ID: 16994433/0x01035081)
365: 0x0BF4 [0x4A] Rapipi (ID: 16994431/0x0103507F) looks at Rutta-Watta (ID: 16994433/0x01035081)
366: 0x0BFD [0x6E] Rutta-Watta (ID: 16994433/0x01035081) uses emote 11*
367: 0x0C04 [0x99] Wait for Rutta-Watta (ID: 16994433/0x01035081) animation to complete
368: 0x0C09 [0x27] REQ_SET(priority=0x0A, entity_id=Rutta-Watta (ID: 16994433/0x01035081), tag_num=0x0F)
369: 0x0C10 [0x2B] Rutta-Watta (ID: 16994433/0x01035081) [11438*]:
    → "While in Mhaura, we heard a tale of fuzzular beastmen from an old man with a fish in his pocket. While he and his fish were not that cute, his tale was, and so we decided to come here to investigate."
370: 0x0C17 [0x23] WAIT_FOR_DIALOG_INTERACTION
371: 0x0C18 [0x99] Wait for Rutta-Watta (ID: 16994433/0x01035081) animation to complete
372: 0x0C1D [0x27] REQ_SET(priority=0x10, entity_id=Rapipi (ID: 16994431/0x0103507F), tag_num=0x05)
373: 0x0C24 [0x66] LOAD_EXT_SCHEDULER_MAIN: Load scheduler "tlk0" with entities [Eohoh (ID: 16994432/0x01035080), Eohoh (ID: 16994432/0x01035080)], work=49*
374: 0x0C33 [0x2B] Eohoh (ID: 16994432/0x01035080) [11439*]:
    → "And we couldn't leave our precious sugarcake Rapipi at home, could we?"
375: 0x0C3A [0x23] WAIT_FOR_DIALOG_INTERACTION
376: 0x0C3B [0x66] LOAD_EXT_SCHEDULER_MAIN: Load scheduler "tlk1" with entities [Eohoh (ID: 16994432/0x01035080), Eohoh (ID: 16994432/0x01035080)], work=49*
377: 0x0C4A [0x27] REQ_SET(priority=0x10, entity_id=Rapipi (ID: 16994431/0x0103507F), tag_num=0x06)
378: 0x0C51 [0x2A] GET_REQ_LEVEL(level=10, entity_id=Rutta-Watta (ID: 16994433/0x01035081))
379: 0x0C57 [0x6E] Rutta-Watta (ID: 16994433/0x01035081) uses emote 20*
380: 0x0C5E [0x99] Wait for Rutta-Watta (ID: 16994433/0x01035081) animation to complete
381: 0x0C63 [0x2B] Rutta-Watta (ID: 16994433/0x01035081) [11440*]:
    → "Why, that would just make this place all the less cute!"
382: 0x0C6A [0x23] WAIT_FOR_DIALOG_INTERACTION
383: 0x0C6B [0x52] END_LOAD_SCHEDULER: End scheduler "s122" with entities [LocalPlayer, LocalPlayer], work=281*
384: 0x0C7A [0x45] LOAD_SCHEDULED_TASK: Load scheduler "s115" with entities [LocalPlayer, LocalPlayer], work=[281*, 0*]
385: 0x0C8B [0x27] REQ_SET(priority=0x10, entity_id=Rutta-Watta (ID: 16994433/0x01035081), tag_num=0x04)
386: 0x0C92 [0x6E] LocalPlayer uses emote 21*
387: 0x0C99 [0x99] Wait for LocalPlayer animation to complete
388: 0x0C9E [0x2B] Rutta-Watta (ID: 16994433/0x01035081) [11441*]:
    → "And now that we're here..."
389: 0x0CA5 [0x23] WAIT_FOR_DIALOG_INTERACTION
390: 0x0CA6 [0x99] Wait for LocalPlayer animation to complete
391: 0x0CAB [0x1C] WAIT(45* ticks)
392: 0x0CAE [0x52] END_LOAD_SCHEDULER: End scheduler "s115" with entities [LocalPlayer, LocalPlayer], work=281*
393: 0x0CBD [0x45] LOAD_SCHEDULED_TASK: Load scheduler "s123" with entities [LocalPlayer, LocalPlayer], work=[281*, 0*]
394: 0x0CCE [0x4A] Rapipi (ID: 16994431/0x0103507F) looks at LocalPlayer
395: 0x0CD7 [0x1C] WAIT(30* ticks)
396: 0x0CDA [0x5B] LOAD_EXT_SCHEDULER: Load scheduler "jmp0" with entities [Rapipi (ID: 16994431/0x0103507F), Rapipi (ID: 16994431/0x0103507F)], work=85*
397: 0x0CE9 [0x2B] Rapipi (ID: 16994431/0x0103507F) [11442*]:
    → "Wapipi woves cute Kooky-wikis!"
398: 0x0CF0 [0x23] WAIT_FOR_DIALOG_INTERACTION
399: 0x0CF1 [0x52] END_LOAD_SCHEDULER: End scheduler "s123" with entities [LocalPlayer, LocalPlayer], work=281*
400: 0x0D00 [0x45] LOAD_SCHEDULED_TASK: Load scheduler "s124" with entities [LocalPlayer, LocalPlayer], work=[281*, 0*]
401: 0x0D11 [0x4A] Rutta-Watta (ID: 16994433/0x01035081) looks at Rapipi (ID: 16994431/0x0103507F)
402: 0x0D1A [0x27] REQ_SET(priority=0x10, entity_id=Rutta-Watta (ID: 16994433/0x01035081), tag_num=0x09)
403: 0x0D21 [0x2A] GET_REQ_LEVEL(level=16, entity_id=Rutta-Watta (ID: 16994433/0x01035081))
404: 0x0D27 [0x1C] WAIT(30* ticks)
405: 0x0D2A [0x4A] Rutta-Watta (ID: 16994433/0x01035081) looks at LocalPlayer
406: 0x0D33 [0x66] LOAD_EXT_SCHEDULER_MAIN: Load scheduler "tlk0" with entities [Rutta-Watta (ID: 16994433/0x01035081), Rutta-Watta (ID: 16994433/0x01035081)], work=49*
407: 0x0D42 [0x2B] Rutta-Watta (ID: 16994433/0x01035081) [11443*]:
    → "You see! Rapipi approves!"
408: 0x0D49 [0x23] WAIT_FOR_DIALOG_INTERACTION
409: 0x0D4A [0x66] LOAD_EXT_SCHEDULER_MAIN: Load scheduler "tlk1" with entities [Rutta-Watta (ID: 16994433/0x01035081), Rutta-Watta (ID: 16994433/0x01035081)], work=49*
410: 0x0D59 [0x52] END_LOAD_SCHEDULER: End scheduler "s124" with entities [LocalPlayer, LocalPlayer], work=281*
411: 0x0D68 [0x45] LOAD_SCHEDULED_TASK: Load scheduler "s125" with entities [LocalPlayer, LocalPlayer], work=[281*, 0*]
412: 0x0D79 [0x4A] Eohoh (ID: 16994432/0x01035080) looks at Rapipi (ID: 16994431/0x0103507F)
413: 0x0D82 [0x4A] Rapipi (ID: 16994431/0x0103507F) looks at Eohoh (ID: 16994432/0x01035080)
414: 0x0D8B [0x6E] Eohoh (ID: 16994432/0x01035080) uses emote 16*
415: 0x0D92 [0x99] Wait for Eohoh (ID: 16994432/0x01035080) animation to complete
416: 0x0D97 [0x2B] Eohoh (ID: 16994432/0x01035080) [11444*]:
    → "But Rapipi wants to make friends with the fuzzies, don't you, Sweetbiscuit?"
417: 0x0D9E [0x23] WAIT_FOR_DIALOG_INTERACTION
418: 0x0D9F [0x4A] Rapipi (ID: 16994431/0x0103507F) looks at LocalPlayer
419: 0x0DA8 [0x2B] Rapipi (ID: 16994431/0x0103507F) [11445*]:
    → "Kookywoon!"
420: 0x0DAF [0x23] WAIT_FOR_DIALOG_INTERACTION
421: 0x0DB0 [0x52] END_LOAD_SCHEDULER: End scheduler "s125" with entities [LocalPlayer, LocalPlayer], work=281*
422: 0x0DBF [0x45] LOAD_SCHEDULED_TASK: Load scheduler "s126" with entities [LocalPlayer, LocalPlayer], work=[281*, 0*]
423: 0x0DD0 [0x27] REQ_SET(priority=0x10, entity_id=Rutta-Watta (ID: 16994433/0x01035081), tag_num=0x0A)
424: 0x0DD7 [0x2A] GET_REQ_LEVEL(level=16, entity_id=Rutta-Watta (ID: 16994433/0x01035081))
425: 0x0DDD [0x2B] Rutta-Watta (ID: 16994433/0x01035081) [11446*]:
    → "Yes, Kookyroon. Where could that marvelous marsupioid be?"
426: 0x0DE4 [0x23] WAIT_FOR_DIALOG_INTERACTION
427: 0x0DE5 [0x52] END_LOAD_SCHEDULER: End scheduler "s126" with entities [LocalPlayer, LocalPlayer], work=281*
428: 0x0DF4 [0x45] LOAD_SCHEDULED_TASK: Load scheduler "s127" with entities [LocalPlayer, LocalPlayer], work=[281*, 0*]
429: 0x0E05 [0x4A] Rutta-Watta (ID: 16994433/0x01035081) looks at LocalPlayer
430: 0x0E0E [0x6F] WAIT_FRAME_DELAY: Yield until WaitTime reaches zero
431: 0x0E0F [0x76] CHECK_ENTITY_RENDER_FLAGS: Wait until Rutta-Watta (ID: 16994433/0x01035081) Render.Flags0 and Render.Flags3 conditions are met
432: 0x0E14 [0x6E] Rutta-Watta (ID: 16994433/0x01035081) uses emote 25*
433: 0x0E1B [0x99] Wait for Rutta-Watta (ID: 16994433/0x01035081) animation to complete
434: 0x0E20 [0x2B] Rutta-Watta (ID: 16994433/0x01035081) [11447*]:
    → "The nerve of that beast to run from my daughter! He should be gutted and stuffed!"
435: 0x0E27 [0x23] WAIT_FOR_DIALOG_INTERACTION
436: 0x0E28 [0x99] Wait for Rutta-Watta (ID: 16994433/0x01035081) animation to complete
437: 0x0E2D [0x52] END_LOAD_SCHEDULER: End scheduler "s127" with entities [LocalPlayer, LocalPlayer], work=281*
438: 0x0E3C [0x45] LOAD_SCHEDULED_TASK: Load scheduler "s128" with entities [LocalPlayer, LocalPlayer], work=[281*, 0*]
439: 0x0E4D [0x4A] Rutta-Watta (ID: 16994433/0x01035081) looks at Eohoh (ID: 16994432/0x01035080)
440: 0x0E56 [0x6F] WAIT_FRAME_DELAY: Yield until WaitTime reaches zero
441: 0x0E57 [0x76] CHECK_ENTITY_RENDER_FLAGS: Wait until Rutta-Watta (ID: 16994433/0x01035081) Render.Flags0 and Render.Flags3 conditions are met
442: 0x0E5C [0x6E] Rutta-Watta (ID: 16994433/0x01035081) uses emote 19*
443: 0x0E63 [0x99] Wait for Rutta-Watta (ID: 16994433/0x01035081) animation to complete
444: 0x0E68 [0x27] REQ_SET(priority=0x0A, entity_id=Rutta-Watta (ID: 16994433/0x01035081), tag_num=0x0F)
445: 0x0E6F [0x2B] Rutta-Watta (ID: 16994433/0x01035081) [11448*]:
    → "And then Rapipi could play with him every day now, couldn't you? Yes you could!"
446: 0x0E76 [0x23] WAIT_FOR_DIALOG_INTERACTION
447: 0x0E77 [0x99] Wait for Rutta-Watta (ID: 16994433/0x01035081) animation to complete
448: 0x0E7C [0x2A] GET_REQ_LEVEL(level=10, entity_id=Rutta-Watta (ID: 16994433/0x01035081))
449: 0x0E82 [0x6E] Rutta-Watta (ID: 16994433/0x01035081) uses emote 5*
450: 0x0E89 [0x99] Wait for Rutta-Watta (ID: 16994433/0x01035081) animation to complete
451: 0x0E8E [0x2B] Rutta-Watta (ID: 16994433/0x01035081) [11449*]:
    → "But nooo, the flea-infestified scruffmonger has completely disregarded my daughter's happiness!"
452: 0x0E95 [0x23] WAIT_FOR_DIALOG_INTERACTION
453: 0x0E96 [0x52] END_LOAD_SCHEDULER: End scheduler "s128" with entities [LocalPlayer, LocalPlayer], work=281*
454: 0x0EA5 [0x45] LOAD_SCHEDULED_TASK: Load scheduler "s129" with entities [LocalPlayer, LocalPlayer], work=[281*, 0*]
455: 0x0EB6 [0x99] Wait for Rutta-Watta (ID: 16994433/0x01035081) animation to complete
456: 0x0EBB [0x2B] Rapipi (ID: 16994431/0x0103507F) [11450*]:
    → "Daddy, I'm hungwy."
457: 0x0EC2 [0x23] WAIT_FOR_DIALOG_INTERACTION
458: 0x0EC3 [0x52] END_LOAD_SCHEDULER: End scheduler "s129" with entities [LocalPlayer, LocalPlayer], work=281*
459: 0x0ED2 [0x45] LOAD_SCHEDULED_TASK: Load scheduler "s130" with entities [LocalPlayer, LocalPlayer], work=[281*, 0*]
460: 0x0EE3 [0x27] REQ_SET(priority=0x10, entity_id=Rapipi (ID: 16994431/0x0103507F), tag_num=0x05)
461: 0x0EEA [0x4A] Eohoh (ID: 16994432/0x01035080) looks at Rutta-Watta (ID: 16994433/0x01035081)
462: 0x0EF3 [0x66] LOAD_EXT_SCHEDULER_MAIN: Load scheduler "tlk0" with entities [Eohoh (ID: 16994432/0x01035080), Eohoh (ID: 16994432/0x01035080)], work=49*
463: 0x0F02 [0x66] LOAD_EXT_SCHEDULER_MAIN: Load scheduler "thk1" with entities [Rutta-Watta (ID: 16994433/0x01035081), Rutta-Watta (ID: 16994433/0x01035081)], work=49*
464: 0x0F11 [0x2B] Eohoh (ID: 16994432/0x01035080) [11451*]:
    → "If only there were some kind of magic that would force Qiqirn to love our daughter, then we wouldn't be in this pickle!"
465: 0x0F18 [0x23] WAIT_FOR_DIALOG_INTERACTION
466: 0x0F19 [0x66] LOAD_EXT_SCHEDULER_MAIN: Load scheduler "tlk1" with entities [Eohoh (ID: 16994432/0x01035080), Eohoh (ID: 16994432/0x01035080)], work=49*
467: 0x0F28 [0x66] LOAD_EXT_SCHEDULER_MAIN: Load scheduler "thk2" with entities [Rutta-Watta (ID: 16994433/0x01035081), Rutta-Watta (ID: 16994433/0x01035081)], work=49*
468: 0x0F37 [0x27] REQ_SET(priority=0x10, entity_id=Rapipi (ID: 16994431/0x0103507F), tag_num=0x06)
469: 0x0F3E [0x66] LOAD_EXT_SCHEDULER_MAIN: Load scheduler "tlk0" with entities [Rutta-Watta (ID: 16994433/0x01035081), Rutta-Watta (ID: 16994433/0x01035081)], work=49*
470: 0x0F4D [0x2B] Rutta-Watta (ID: 16994433/0x01035081) [11452*]:
    → "And if not magic, at least some type of trick..."
471: 0x0F54 [0x23] WAIT_FOR_DIALOG_INTERACTION
472: 0x0F55 [0x66] LOAD_EXT_SCHEDULER_MAIN: Load scheduler "tlk1" with entities [Rutta-Watta (ID: 16994433/0x01035081), Rutta-Watta (ID: 16994433/0x01035081)], work=49*
473: 0x0F64 [0x52] END_LOAD_SCHEDULER: End scheduler "s130" with entities [LocalPlayer, LocalPlayer], work=281*
474: 0x0F73 [0x45] LOAD_SCHEDULED_TASK: Load scheduler "s131" with entities [LocalPlayer, LocalPlayer], work=[281*, 0*]
475: 0x0F84 [0x4B] UPDATE_ENTITY_YAW(entity=Rapipi (ID: 16994431/0x0103507F), yaw=2.6°*)
476: 0x0F8B [0x66] LOAD_EXT_SCHEDULER_MAIN: Load scheduler "thk1" with entities [Rutta-Watta (ID: 16994433/0x01035081), Rutta-Watta (ID: 16994433/0x01035081)], work=49*
477: 0x0F9A [0x2B] Rutta-Watta (ID: 16994433/0x01035081) [11453*]:
    → "Yes... Some type of fantastical trick that would lure the Qiqirn close enough so we could..."
478: 0x0FA1 [0x23] WAIT_FOR_DIALOG_INTERACTION
479: 0x0FA2 [0x66] LOAD_EXT_SCHEDULER_MAIN: Load scheduler "thk2" with entities [Rutta-Watta (ID: 16994433/0x01035081), Rutta-Watta (ID: 16994433/0x01035081)], work=49*
480: 0x0FB1 [0x52] END_LOAD_SCHEDULER: End scheduler "s131" with entities [LocalPlayer, LocalPlayer], work=281*
481: 0x0FC0 [0x45] LOAD_SCHEDULED_TASK: Load scheduler "s133" with entities [LocalPlayer, LocalPlayer], work=[281*, 0*]
482: 0x0FD1 [0x5B] LOAD_EXT_SCHEDULER: Load scheduler "jmp0" with entities [Rapipi (ID: 16994431/0x0103507F), Rapipi (ID: 16994431/0x0103507F)], work=85*
483: 0x0FE0 [0x4A] Rutta-Watta (ID: 16994433/0x01035081) looks at Rapipi (ID: 16994431/0x0103507F)
484: 0x0FE9 [0x4A] Eohoh (ID: 16994432/0x01035080) looks at Rapipi (ID: 16994431/0x0103507F)
485: 0x0FF2 [0x6E] Rutta-Watta (ID: 16994433/0x01035081) uses emote 21*
486: 0x0FF9 [0x99] Wait for Rutta-Watta (ID: 16994433/0x01035081) animation to complete
487: 0x0FFE [0x6E] Eohoh (ID: 16994432/0x01035080) uses emote 21*
488: 0x1005 [0x99] Wait for Eohoh (ID: 16994432/0x01035080) animation to complete
489: 0x100A [0x2B] Rapipi (ID: 16994431/0x0103507F) [11454*]:
    → "I'm hungwy! Hungwy! Hungwy! Hungwy!"
490: 0x1011 [0x23] WAIT_FOR_DIALOG_INTERACTION
491: 0x1012 [0x52] END_LOAD_SCHEDULER: End scheduler "s133" with entities [LocalPlayer, LocalPlayer], work=281*
492: 0x1021 [0x45] LOAD_SCHEDULED_TASK: Load scheduler "s134" with entities [LocalPlayer, LocalPlayer], work=[281*, 0*]
493: 0x1032 [0x6E] Rutta-Watta (ID: 16994433/0x01035081) uses emote 29*
494: 0x1039 [0x99] Wait for Rutta-Watta (ID: 16994433/0x01035081) animation to complete
495: 0x103E [0x2B] Rutta-Watta (ID: 16994433/0x01035081) [11456*]:
    → "Oh, I'm sorry, Rapipi!"
496: 0x1045 [0x23] WAIT_FOR_DIALOG_INTERACTION
497: 0x1046 [0x6E] Rutta-Watta (ID: 16994433/0x01035081) uses emote 36*
498: 0x104D [0x99] Wait for Rutta-Watta (ID: 16994433/0x01035081) animation to complete
499: 0x1052 [0x2B] Rutta-Watta (ID: 16994433/0x01035081) [11457*]:
    → "Let's go get some piping-hot Nashmau stew right now!"
500: 0x1059 [0x23] WAIT_FOR_DIALOG_INTERACTION
501: 0x105A [0x99] Wait for Rutta-Watta (ID: 16994433/0x01035081) animation to complete
502: 0x105F [0x52] END_LOAD_SCHEDULER: End scheduler "s134" with entities [LocalPlayer, LocalPlayer], work=281*
503: 0x106E [0x45] LOAD_SCHEDULED_TASK: Load scheduler "s135" with entities [LocalPlayer, LocalPlayer], work=[281*, 0*]
504: 0x107F [0x4A] Rutta-Watta (ID: 16994433/0x01035081) looks at LocalPlayer
505: 0x1088 [0x27] REQ_SET(priority=0x10, entity_id=Rapipi (ID: 16994431/0x0103507F), tag_num=0x07)
506: 0x108F [0x2B] Rutta-Watta (ID: 16994433/0x01035081) [11458*]:
    → "Good day, adventurist!"
507: 0x1096 [0x23] WAIT_FOR_DIALOG_INTERACTION
508: 0x1097 [0x52] END_LOAD_SCHEDULER: End scheduler "s135" with entities [LocalPlayer, LocalPlayer], work=281*
509: 0x10A6 [0x45] LOAD_SCHEDULED_TASK: Load scheduler "s136" with entities [LocalPlayer, LocalPlayer], work=[281*, 0*]
510: 0x10B7 [0x4A] Eohoh (ID: 16994432/0x01035080) looks at LocalPlayer
511: 0x10C0 [0x2B] Eohoh (ID: 16994432/0x01035080) [11459*]:
    → "Here's wishing you a wonderful trip. Wherever you may be going."
512: 0x10C7 [0x23] WAIT_FOR_DIALOG_INTERACTION
513: 0x10C8 [0x45] LOAD_SCHEDULED_TASK: Load scheduler "fdo1" with entities [LocalPlayer, LocalPlayer], work=[200*, 0*]
514: 0x10D9 [0x55] WAIT_LOAD_SCHEDULER: Wait for scheduler "fdo1" with entities [LocalPlayer, LocalPlayer], work=200*
515: 0x10E8 [0x52] END_LOAD_SCHEDULER: End scheduler "s136" with entities [LocalPlayer, LocalPlayer], work=281*
516: 0x10F7 [0xBA] SET_ENTITY_POSITION(entity_id=LocalPlayer, pos_x=16.153*, pos_z=-24.590*, pos_y=0.000*, direction=175.8°*)
517: 0x1104 [0xBA] SET_ENTITY_POSITION(entity_id=Rapipi (ID: 16994431/0x0103507F), pos_x=2.650*, pos_z=-25.666*, pos_y=0.000*, direction=44.9°*)
518: 0x1111 [0xBA] SET_ENTITY_POSITION(entity_id=Eohoh (ID: 16994432/0x01035080), pos_x=2.765*, pos_z=-26.606*, pos_y=0.000*, direction=44.9°*)
519: 0x111E [0xBA] SET_ENTITY_POSITION(entity_id=Rutta-Watta (ID: 16994433/0x01035081), pos_x=2.545*, pos_z=-24.944*, pos_y=0.000*, direction=44.9°*)
520: 0x112B [0x1C] WAIT(120* ticks)
521: 0x112E [0x45] LOAD_SCHEDULED_TASK: Load scheduler "s137" with entities [LocalPlayer, LocalPlayer], work=[281*, 0*]
522: 0x113F [0x45] LOAD_SCHEDULED_TASK: Load scheduler "fdi1" with entities [LocalPlayer, LocalPlayer], work=[200*, 0*]
523: 0x1150 [0x4A] LocalPlayer looks at Rapipi (ID: 16994431/0x0103507F)
524: 0x1159 [0x27] REQ_SET(priority=0x10, entity_id=Rapipi (ID: 16994431/0x0103507F), tag_num=0x08)
525: 0x1160 [0x27] REQ_SET(priority=0x10, entity_id=Eohoh (ID: 16994432/0x01035080), tag_num=0x04)
526: 0x1167 [0x27] REQ_SET(priority=0x10, entity_id=Rutta-Watta (ID: 16994433/0x01035081), tag_num=0x0B)
527: 0x116E [0x1C] WAIT(210* ticks)
528: 0x1171 [0x4E] SET_ENTITY_HIDE_FLAG: Show Kakkaroon (ID: 16994430/0x0103507E)
529: 0x1177 [0xBA] SET_ENTITY_POSITION(entity_id=Eohoh (ID: 16994432/0x01035080), pos_x=6.285*, pos_z=-29.929*, pos_y=0.000*, direction=163.6°*)
530: 0x1184 [0xBA] SET_ENTITY_POSITION(entity_id=Rutta-Watta (ID: 16994433/0x01035081), pos_x=5.767*, pos_z=-29.084*, pos_y=0.000*, direction=163.6°*)
531: 0x1191 [0xBA] SET_ENTITY_POSITION(entity_id=Rapipi (ID: 16994431/0x0103507F), pos_x=6.245*, pos_z=-29.699*, pos_y=0.000*, direction=163.7°*)
532: 0x119E [0xBA] SET_ENTITY_POSITION(entity_id=Kakkaroon (ID: 16994430/0x0103507E), pos_x=21.539*, pos_z=-31.384*, pos_y=0.000*, direction=262.1°*)
533: 0x11AB [0x52] END_LOAD_SCHEDULER: End scheduler "s137" with entities [LocalPlayer, LocalPlayer], work=281*
534: 0x11BA [0x45] LOAD_SCHEDULED_TASK: Load scheduler "s138" with entities [LocalPlayer, LocalPlayer], work=[281*, 0*]
535: 0x11CB [0x1C] WAIT(60* ticks)
536: 0x11CE [0x29] REQ_SET_WAIT(priority=0x10, entity_id=Kakkaroon (ID: 16994430/0x0103507E), tag_num=0x04)
537: 0x11D5 [0x4A] LocalPlayer looks at Kakkaroon (ID: 16994430/0x0103507E)
538: 0x11DE [0x1C] WAIT(90* ticks)
539: 0x11E1 [0x4A] Kakkaroon (ID: 16994430/0x0103507E) looks at LocalPlayer
540: 0x11EA [0x5B] LOAD_EXT_SCHEDULER: Load scheduler "wht0" with entities [Kakkaroon (ID: 16994430/0x0103507E), Kakkaroon (ID: 16994430/0x0103507E)], work=881*
541: 0x11F9 [0x2B] Kakkaroon (ID: 16994430/0x0103507E) [11460*]:
    → "Is safe, no? Eeevil babeee of Tarooo say gooodbye, no?"
542: 0x1200 [0x23] WAIT_FOR_DIALOG_INTERACTION
543: 0x1201 [0x5B] LOAD_EXT_SCHEDULER: Load scheduler "wht1" with entities [Kakkaroon (ID: 16994430/0x0103507E), Kakkaroon (ID: 16994430/0x0103507E)], work=881*
544: 0x1210 [0x52] END_LOAD_SCHEDULER: End scheduler "s138" with entities [LocalPlayer, LocalPlayer], work=281*
545: 0x121F [0x45] LOAD_SCHEDULED_TASK: Load scheduler "s139" with entities [LocalPlayer, LocalPlayer], work=[281*, 0*]
546: 0x1230 [0x1C] WAIT(120* ticks)
547: 0x1233 [0x27] REQ_SET(priority=0x10, entity_id=Kakkaroon (ID: 16994430/0x0103507E), tag_num=0x05)
548: 0x123A [0x2A] GET_REQ_LEVEL(level=16, entity_id=Kakkaroon (ID: 16994430/0x0103507E))
549: 0x1240 [0x1C] WAIT(15* ticks)
550: 0x1243 [0x4A] LocalPlayer looks at Kakkaroon (ID: 16994430/0x0103507E)
551: 0x124C [0x5B] LOAD_EXT_SCHEDULER: Load scheduler "tlb0" with entities [Kakkaroon (ID: 16994430/0x0103507E), Kakkaroon (ID: 16994430/0x0103507E)], work=843*
552: 0x125B [0x2B] Kakkaroon (ID: 16994430/0x0103507E) [11461*]:
    → "Kakka hate all things eeevil. Kakka hate all things babeee. Kakka hate all things Tarooo. Kakka hate all things eeevil babeee of Tarooo."
553: 0x1262 [0x23] WAIT_FOR_DIALOG_INTERACTION
554: 0x1263 [0x5B] LOAD_EXT_SCHEDULER: Load scheduler "tlb1" with entities [Kakkaroon (ID: 16994430/0x0103507E), Kakkaroon (ID: 16994430/0x0103507E)], work=843*
555: 0x1272 [0x52] END_LOAD_SCHEDULER: End scheduler "s139" with entities [LocalPlayer, LocalPlayer], work=281*
556: 0x1281 [0x45] LOAD_SCHEDULED_TASK: Load scheduler "s140" with entities [LocalPlayer, LocalPlayer], work=[281*, 0*]
557: 0x1292 [0x5B] LOAD_EXT_SCHEDULER: Load scheduler "cry0" with entities [Kakkaroon (ID: 16994430/0x0103507E), Kakkaroon (ID: 16994430/0x0103507E)], work=842*
558: 0x12A1 [0x2B] Kakkaroon (ID: 16994430/0x0103507E) [11462*]:
    → "Kakka 'fraid tooo come out from places of hiding."
559: 0x12A8 [0x23] WAIT_FOR_DIALOG_INTERACTION
560: 0x12A9 [0x5B] LOAD_EXT_SCHEDULER: Load scheduler "cry1" with entities [Kakkaroon (ID: 16994430/0x0103507E), Kakkaroon (ID: 16994430/0x0103507E)], work=842*
561: 0x12B8 [0x52] END_LOAD_SCHEDULER: End scheduler "s140" with entities [LocalPlayer, LocalPlayer], work=281*
562: 0x12C7 [0x45] LOAD_SCHEDULED_TASK: Load scheduler "s142" with entities [LocalPlayer, LocalPlayer], work=[281*, 0*]
563: 0x12D8 [0x4A] Kakkaroon (ID: 16994430/0x0103507E) looks at LocalPlayer
564: 0x12E1 [0x5B] LOAD_EXT_SCHEDULER: Load scheduler "ang0" with entities [Kakkaroon (ID: 16994430/0x0103507E), Kakkaroon (ID: 16994430/0x0103507E)], work=843*
565: 0x12F0 [0x6E] LocalPlayer uses emote 21*
566: 0x12F7 [0x99] Wait for LocalPlayer animation to complete
567: 0x12FC [0x2B] Kakkaroon (ID: 16994430/0x0103507E) [11463*]:
    → "Kakka want tooo beee with Nadeee. Nadeee understand heart of Kakka."
568: 0x1303 [0x23] WAIT_FOR_DIALOG_INTERACTION
569: 0x1304 [0x52] END_LOAD_SCHEDULER: End scheduler "s142" with entities [LocalPlayer, LocalPlayer], work=281*
570: 0x1313 [0x45] LOAD_SCHEDULED_TASK: Load scheduler "s143" with entities [LocalPlayer, LocalPlayer], work=[281*, 0*]
571: 0x1324 [0x5B] LOAD_EXT_SCHEDULER: Load scheduler "thb0" with entities [Kakkaroon (ID: 16994430/0x0103507E), Kakkaroon (ID: 16994430/0x0103507E)], work=843*
572: 0x1333 [0x2B] Kakkaroon (ID: 16994430/0x0103507E) [11464*]:
    → "But Kakka go sailing over sloshing seees. Pyopyo sad like Kakka..."
573: 0x133A [0x23] WAIT_FOR_DIALOG_INTERACTION
574: 0x133B [0x5B] LOAD_EXT_SCHEDULER: Load scheduler "thb1" with entities [Kakkaroon (ID: 16994430/0x0103507E), Kakkaroon (ID: 16994430/0x0103507E)], work=843*
575: 0x134A [0x5B] LOAD_EXT_SCHEDULER: Load scheduler "ang0" with entities [Kakkaroon (ID: 16994430/0x0103507E), Kakkaroon (ID: 16994430/0x0103507E)], work=843*
576: 0x1359 [0x2B] Kakkaroon (ID: 16994430/0x0103507E) [11465*]:
    → "Nadeee not Qiqirn, but Nadeee not Tarooo. Nadeee loves Kakka and Kakka loves Nadeee... Nadeee..."
577: 0x1360 [0x23] WAIT_FOR_DIALOG_INTERACTION
