# 16994387

## Common Data

| Field            | Value            |
|------------------|------------------|
| Zone             | Nashmau (ID: 53) |
| Block Size       | 308 bytes        |
| Total Events     | 10               |
| References Count | 5                |

## List of Events

| Event ID                 | Entrypoint   |   Size |   Instructions |
|--------------------------|--------------|--------|----------------|
| [65535](#event-65535)    | 0x0000       |      1 |              1 |
| [277](#event-277)        | 0x0001       |      9 |              3 |
| [281](#event-281)        | 0x000A       |      1 |              1 |
| [65535.1](#event-655351) | 0x000B       |    160 |             18 |
| [65535.2](#event-655352) | 0x00AB       |     10 |              2 |
| [65535.3](#event-655353) | 0x00B5       |     10 |              2 |
| [65535.4](#event-655354) | 0x00BF       |     10 |              2 |
| [65535.5](#event-655355) | 0x00C9       |     10 |              2 |
| [65535.6](#event-655356) | 0x00D3       |     10 |              2 |
| [65535.7](#event-655357) | 0x00DD       |     10 |              2 |

## DAT References (imed_data)

|   Index | Hex Value   |   Dec Value |
|---------|-------------|-------------|
|       0 | 0x00F0      |         240 |
|       1 | 0x0000      |           0 |
|       2 | 0x003C      |          60 |
|       3 | 0x0080      |         128 |
|       4 | 0x0078      |         120 |

## Events

### Event 65535

#### Metadata

| Field        | Value   |
|--------------|---------|
| Entrypoint   | 0x0000  |
| Data Size    | 1 bytes |
| Instructions | 1       |

```
      00 01 02 03 04 05 06 07  08 09 0A 0B 0C 0D 0E 0F
      -- -- -- -- -- -- -- --  -- -- -- -- -- -- -- --
0000: 00                                                .               
```

#### Opcodes

```
  0: 0x0000 [0x00] END_REQSTACK()
```

### Event 277

#### Metadata

| Field        | Value   |
|--------------|---------|
| Entrypoint   | 0x0001  |
| Data Size    | 9 bytes |
| Instructions | 3       |

```
      00 01 02 03 04 05 06 07  08 09 0A 0B 0C 0D 0E 0F
      -- -- -- -- -- -- -- --  -- -- -- -- -- -- -- --
0000:    2F 00 F8 FF FF 7F 22  00 00                     /....."..      
```

#### Opcodes

```
  0: 0x0001 [0x2F] EventEntity->Render.Flags0 &= ~0x80000 // Bit 19
  1: 0x0007 [0x22] ENTITY_HIDE_FLAG(enabled=0x00)
  2: 0x0009 [0x00] END_REQSTACK()
```

### Event 281

#### Metadata

| Field        | Value   |
|--------------|---------|
| Entrypoint   | 0x000A  |
| Data Size    | 1 bytes |
| Instructions | 1       |

```
      00 01 02 03 04 05 06 07  08 09 0A 0B 0C 0D 0E 0F
      -- -- -- -- -- -- -- --  -- -- -- -- -- -- -- --
0000:                                00                           .     
```

#### Opcodes

```
  0: 0x000A [0x00] END_REQSTACK()
```

### Event 65535.1

#### Metadata

| Field        | Value     |
|--------------|-----------|
| Entrypoint   | 0x000B    |
| Data Size    | 160 bytes |
| Instructions | 18        |

```
      00 01 02 03 04 05 06 07  08 09 0A 0B 0C 0D 0E 0F
      -- -- -- -- -- -- -- --  -- -- -- -- -- -- -- --
0000:                                   9F 00 80 57 50             ...WP
0010: 03 01 57 50 03 01 6D 61  69 6E 01 80 27 05 53 50  ..WP..main..'.SP
0020: 03 01 04 1C 02 80 9F 00  80 58 50 03 01 58 50 03  .........XP..XP.
0030: 01 6D 61 69 6E 01 80 27  05 53 50 03 01 05 1C 02  .main..'.SP.....
0040: 80 9F 00 80 59 50 03 01  59 50 03 01 6D 61 69 6E  ....YP..YP..main
0050: 01 80 27 05 53 50 03 01  06 1C 02 80 9F 00 80 5A  ..'.SP.........Z
0060: 50 03 01 5A 50 03 01 6D  61 69 6E 01 80 27 05 53  P..ZP..main..'.S
0070: 50 03 01 07 1C 02 80 9F  00 80 5B 50 03 01 5B 50  P.........[P..[P
0080: 03 01 6D 61 69 6E 01 80  27 05 53 50 03 01 08 1C  ..main..'.SP....
0090: 02 80 9F 00 80 5C 50 03  01 5C 50 03 01 6D 61 69  .....\P..\P..mai
00A0: 6E 01 80 27 05 53 50 03  01 09 00                 n..'.SP....     
```

#### Opcodes

```
  0: 0x000B [0x9F] LOAD_SCHEDULED_TASK_ALT: Load scheduler "main" with entities [Unnamed NPC (ID: 16994391/0x01035057), Unnamed NPC (ID: 16994391/0x01035057)], work=[240*, 0*]
  1: 0x001C [0x27] REQ_SET(priority=0x05, entity_id=Unnamed NPC (ID: 16994387/0x01035053), tag_num=0x04)
  2: 0x0023 [0x1C] WAIT(60* ticks)
  3: 0x0026 [0x9F] LOAD_SCHEDULED_TASK_ALT: Load scheduler "main" with entities [Unnamed NPC (ID: 16994392/0x01035058), Unnamed NPC (ID: 16994392/0x01035058)], work=[240*, 0*]
  4: 0x0037 [0x27] REQ_SET(priority=0x05, entity_id=Unnamed NPC (ID: 16994387/0x01035053), tag_num=0x05)
  5: 0x003E [0x1C] WAIT(60* ticks)
  6: 0x0041 [0x9F] LOAD_SCHEDULED_TASK_ALT: Load scheduler "main" with entities [Unnamed NPC (ID: 16994393/0x01035059), Unnamed NPC (ID: 16994393/0x01035059)], work=[240*, 0*]
  7: 0x0052 [0x27] REQ_SET(priority=0x05, entity_id=Unnamed NPC (ID: 16994387/0x01035053), tag_num=0x06)
  8: 0x0059 [0x1C] WAIT(60* ticks)
  9: 0x005C [0x9F] LOAD_SCHEDULED_TASK_ALT: Load scheduler "main" with entities [Unnamed NPC (ID: 16994394/0x0103505A), Unnamed NPC (ID: 16994394/0x0103505A)], work=[240*, 0*]
 10: 0x006D [0x27] REQ_SET(priority=0x05, entity_id=Unnamed NPC (ID: 16994387/0x01035053), tag_num=0x07)
 11: 0x0074 [0x1C] WAIT(60* ticks)
 12: 0x0077 [0x9F] LOAD_SCHEDULED_TASK_ALT: Load scheduler "main" with entities [Unnamed NPC (ID: 16994395/0x0103505B), Unnamed NPC (ID: 16994395/0x0103505B)], work=[240*, 0*]
 13: 0x0088 [0x27] REQ_SET(priority=0x05, entity_id=Unnamed NPC (ID: 16994387/0x01035053), tag_num=0x08)
 14: 0x008F [0x1C] WAIT(60* ticks)
 15: 0x0092 [0x9F] LOAD_SCHEDULED_TASK_ALT: Load scheduler "main" with entities [Unnamed NPC (ID: 16994396/0x0103505C), Unnamed NPC (ID: 16994396/0x0103505C)], work=[240*, 0*]
 16: 0x00A3 [0x27] REQ_SET(priority=0x05, entity_id=Unnamed NPC (ID: 16994387/0x01035053), tag_num=0x09)
 17: 0x00AA [0x00] END_REQSTACK()
```

### Event 65535.2

#### Metadata

| Field        | Value    |
|--------------|----------|
| Entrypoint   | 0x00AB   |
| Data Size    | 10 bytes |
| Instructions | 2        |

```
      00 01 02 03 04 05 06 07  08 09 0A 0B 0C 0D 0E 0F
      -- -- -- -- -- -- -- --  -- -- -- -- -- -- -- --
00A0:                                   6C 57 50 03 01             lWP..
00B0: 03 80 04 80 00                                    .....           
```

#### Opcodes

```
  0: 0x00AB [0x6C] FADE_ENTITY_COLOR(entity_id=Unnamed NPC (ID: 16994391/0x01035057), end_alpha=128*, fade_time=120*)
  1: 0x00B4 [0x00] END_REQSTACK()
```

### Event 65535.3

#### Metadata

| Field        | Value    |
|--------------|----------|
| Entrypoint   | 0x00B5   |
| Data Size    | 10 bytes |
| Instructions | 2        |

```
      00 01 02 03 04 05 06 07  08 09 0A 0B 0C 0D 0E 0F
      -- -- -- -- -- -- -- --  -- -- -- -- -- -- -- --
00B0:                6C 58 50  03 01 03 80 04 80 00          lXP....... 
```

#### Opcodes

```
  0: 0x00B5 [0x6C] FADE_ENTITY_COLOR(entity_id=Unnamed NPC (ID: 16994392/0x01035058), end_alpha=128*, fade_time=120*)
  1: 0x00BE [0x00] END_REQSTACK()
```

### Event 65535.4

#### Metadata

| Field        | Value    |
|--------------|----------|
| Entrypoint   | 0x00BF   |
| Data Size    | 10 bytes |
| Instructions | 2        |

```
      00 01 02 03 04 05 06 07  08 09 0A 0B 0C 0D 0E 0F
      -- -- -- -- -- -- -- --  -- -- -- -- -- -- -- --
00B0:                                               6C                 l
00C0: 59 50 03 01 03 80 04 80  00                       YP.......       
```

#### Opcodes

```
  0: 0x00BF [0x6C] FADE_ENTITY_COLOR(entity_id=Unnamed NPC (ID: 16994393/0x01035059), end_alpha=128*, fade_time=120*)
  1: 0x00C8 [0x00] END_REQSTACK()
```

### Event 65535.5

#### Metadata

| Field        | Value    |
|--------------|----------|
| Entrypoint   | 0x00C9   |
| Data Size    | 10 bytes |
| Instructions | 2        |

```
      00 01 02 03 04 05 06 07  08 09 0A 0B 0C 0D 0E 0F
      -- -- -- -- -- -- -- --  -- -- -- -- -- -- -- --
00C0:                             6C 5A 50 03 01 03 80           lZP....
00D0: 04 80 00                                          ...             
```

#### Opcodes

```
  0: 0x00C9 [0x6C] FADE_ENTITY_COLOR(entity_id=Unnamed NPC (ID: 16994394/0x0103505A), end_alpha=128*, fade_time=120*)
  1: 0x00D2 [0x00] END_REQSTACK()
```

### Event 65535.6

#### Metadata

| Field        | Value    |
|--------------|----------|
| Entrypoint   | 0x00D3   |
| Data Size    | 10 bytes |
| Instructions | 2        |

```
      00 01 02 03 04 05 06 07  08 09 0A 0B 0C 0D 0E 0F
      -- -- -- -- -- -- -- --  -- -- -- -- -- -- -- --
00D0:          6C 5B 50 03 01  03 80 04 80 00              l[P.......   
```

#### Opcodes

```
  0: 0x00D3 [0x6C] FADE_ENTITY_COLOR(entity_id=Unnamed NPC (ID: 16994395/0x0103505B), end_alpha=128*, fade_time=120*)
  1: 0x00DC [0x00] END_REQSTACK()
```

### Event 65535.7

#### Metadata

| Field        | Value    |
|--------------|----------|
| Entrypoint   | 0x00DD   |
| Data Size    | 10 bytes |
| Instructions | 2        |

```
      00 01 02 03 04 05 06 07  08 09 0A 0B 0C 0D 0E 0F
      -- -- -- -- -- -- -- --  -- -- -- -- -- -- -- --
00D0:                                         6C 5C 50               l\P
00E0: 03 01 03 80 04 80 00                              .......         
```

#### Opcodes

```
  0: 0x00DD [0x6C] FADE_ENTITY_COLOR(entity_id=Unnamed NPC (ID: 16994396/0x0103505C), end_alpha=128*, fade_time=120*)
  1: 0x00E6 [0x00] END_REQSTACK()
```
