# 16994413 - Yafahb

## Common Data

| Field            | Value            |
|------------------|------------------|
| Zone             | Nashmau (ID: 53) |
| Block Size       | 560 bytes        |
| Total Events     | 19               |
| References Count | 56               |

## List of Events

| Event ID                   | Entrypoint   |   Size |   Instructions |
|----------------------------|--------------|--------|----------------|
| [65535](#event-65535)      | 0x0000       |      1 |              1 |
| [290](#event-290)          | 0x0001       |      1 |              1 |
| [291](#event-291)          | 0x0002       |      1 |              1 |
| [65535.1](#event-655351)   | 0x0003       |     10 |              2 |
| [65535.2](#event-655352)   | 0x000D       |     19 |              5 |
| [65535.3](#event-655353)   | 0x0020       |     24 |              6 |
| [65535.4](#event-655354)   | 0x0038       |     23 |              5 |
| [65535.5](#event-655355)   | 0x004F       |     23 |              5 |
| [65535.6](#event-655356)   | 0x0066       |     23 |              5 |
| [65535.7](#event-655357)   | 0x007D       |     28 |              6 |
| [65535.8](#event-655358)   | 0x0099       |     10 |              2 |
| [65535.9](#event-655359)   | 0x00A3       |     10 |              2 |
| [65535.10](#event-6553510) | 0x00AD       |      4 |              2 |
| [65535.11](#event-6553511) | 0x00B1       |     10 |              2 |
| [65535.12](#event-6553512) | 0x00BB       |     14 |              4 |
| [65535.13](#event-6553513) | 0x00C9       |     10 |              2 |
| [65535.14](#event-6553514) | 0x00D3       |     10 |              2 |
| [65535.15](#event-6553515) | 0x00DD       |     10 |              2 |
| [65535.16](#event-6553516) | 0x00E7       |     10 |              2 |

## DAT References (imed_data)

|   Index | Hex Value   |   Dec Value |
|---------|-------------|-------------|
|       0 | 0x6E21      |       28193 |
|       1 | 0xECCB      |       60619 |
|       2 | 0xFFFFE891  |  4294961297 |
|       3 | 0x0374      |         884 |
|       4 | 0x000D      |          13 |
|       5 | 0x6CFB      |       27899 |
|       6 | 0xE4AA      |       58538 |
|       7 | 0x0028      |          40 |
|       8 | 0x68E3      |       26851 |
|       9 | 0xFE4A      |       65098 |
|      10 | 0xFFFFE890  |  4294961296 |
|      11 | 0x4F98      |       20376 |
|      12 | 0x102A2     |       66210 |
|      13 | 0xFFFFFBD2  |  4294966226 |
|      14 | 0xFFFF9CE1  |  4294941921 |
|      15 | 0x0000      |           0 |
|      16 | 0x04DD      |        1245 |
|      17 | 0xFFFFEF7E  |  4294963070 |
|      18 | 0xFFFF7A04  |  4294932996 |
|      19 | 0xFFFFEE73  |  4294962803 |
|      20 | 0xFFFF7CC7  |  4294933703 |
|      21 | 0x04B0      |        1200 |
|      22 | 0xFFFFE22F  |  4294959663 |
|      23 | 0xFFFF6F3B  |  4294930235 |
|      24 | 0x4A14      |       18964 |
|      25 | 0xFFFF5BC5  |  4294925253 |
|      26 | 0x044F      |        1103 |
|      27 | 0x4870      |       18544 |
|      28 | 0xFFFF5098  |  4294922392 |
|      29 | 0x3943      |       14659 |
|      30 | 0xFFFF3F9E  |  4294918046 |
|      31 | 0x0F02      |        3842 |
|      32 | 0x3712      |       14098 |
|      33 | 0xFFFF45B9  |  4294919609 |
|      34 | 0xFFFFEDBC  |  4294962620 |
|      35 | 0xFFFF6443  |  4294927427 |
|      36 | 0x07D0      |        2000 |
|      37 | 0xFFFFEEAD  |  4294962861 |
|      38 | 0xFFFF5EB8  |  4294926008 |
|      39 | 0x0196      |         406 |
|      40 | 0x005A      |          90 |
|      41 | 0x4C57      |       19543 |
|      42 | 0xFFFF1FAB  |  4294909867 |
|      43 | 0x0431      |        1073 |
|      44 | 0x4A36      |       18998 |
|      45 | 0xFFFF3CAF  |  4294917295 |
|      46 | 0x0B69      |        2921 |
|      47 | 0x10BA      |        4282 |
|      48 | 0xFFFF7237  |  4294930999 |
|      49 | 0x021C      |         540 |
|      50 | 0x0525      |        1317 |
|      51 | 0xFFFF502C  |  4294922284 |
|      52 | 0x0C17      |        3095 |
|      53 | 0x09CD      |        2509 |
|      54 | 0xFFFF1A0B  |  4294908427 |
|      55 | 0x0BFB      |        3067 |

## Events

### Event 65535

#### Metadata

| Field        | Value   |
|--------------|---------|
| Entrypoint   | 0x0000  |
| Data Size    | 1 bytes |
| Instructions | 1       |

```
      00 01 02 03 04 05 06 07  08 09 0A 0B 0C 0D 0E 0F
      -- -- -- -- -- -- -- --  -- -- -- -- -- -- -- --
0000: 00                                                .               
```

#### Opcodes

```
  0: 0x0000 [0x00] END_REQSTACK()
```

### Event 290

#### Metadata

| Field        | Value   |
|--------------|---------|
| Entrypoint   | 0x0001  |
| Data Size    | 1 bytes |
| Instructions | 1       |

```
      00 01 02 03 04 05 06 07  08 09 0A 0B 0C 0D 0E 0F
      -- -- -- -- -- -- -- --  -- -- -- -- -- -- -- --
0000:    00                                              .              
```

#### Opcodes

```
  0: 0x0001 [0x00] END_REQSTACK()
```

### Event 291

#### Metadata

| Field        | Value   |
|--------------|---------|
| Entrypoint   | 0x0002  |
| Data Size    | 1 bytes |
| Instructions | 1       |

```
      00 01 02 03 04 05 06 07  08 09 0A 0B 0C 0D 0E 0F
      -- -- -- -- -- -- -- --  -- -- -- -- -- -- -- --
0000:       00                                            .             
```

#### Opcodes

```
  0: 0x0002 [0x00] END_REQSTACK()
```

### Event 65535.1

#### Metadata

| Field        | Value    |
|--------------|----------|
| Entrypoint   | 0x0003   |
| Data Size    | 10 bytes |
| Instructions | 2        |

```
      00 01 02 03 04 05 06 07  08 09 0A 0B 0C 0D 0E 0F
      -- -- -- -- -- -- -- --  -- -- -- -- -- -- -- --
0000:          37 00 80 01 80  02 80 03 80 00              7.........   
```

#### Opcodes

```
  0: 0x0003 [0x37] UPDATE_EVENT_POSITION_AND_DIR: x=28.193*, z=60.619*, y=-5.999*, direction=77.7°*
  1: 0x000C [0x00] END_REQSTACK()
```

### Event 65535.2

#### Metadata

| Field        | Value    |
|--------------|----------|
| Entrypoint   | 0x000D   |
| Data Size    | 19 bytes |
| Instructions | 5        |

```
      00 01 02 03 04 05 06 07  08 09 0A 0B 0C 0D 0E 0F
      -- -- -- -- -- -- -- --  -- -- -- -- -- -- -- --
0000:                                         32 04 80               2..
0010: 1F 00 05 80 06 80 02 80  1F 01 1E F0 FF FF 7F 00  ................
```

#### Opcodes

```
  0: 0x000D [0x32] ExtData[1]->MainSpeed = 13* * 0.1
  1: 0x0010 [0x1F] MOVE_ENTITY: EventEntity moves to X=27.899*, Z=58.538*, Y=-5.999*
  2: 0x0018 [0x1F] MOVE_ENTITY: Update entity position (mode=1)
  3: 0x001A [0x1E] EventEntity looks at LocalPlayer and starts talking
  4: 0x001F [0x00] END_REQSTACK()
```

### Event 65535.3

#### Metadata

| Field        | Value    |
|--------------|----------|
| Entrypoint   | 0x0020   |
| Data Size    | 24 bytes |
| Instructions | 6        |

```
      00 01 02 03 04 05 06 07  08 09 0A 0B 0C 0D 0E 0F
      -- -- -- -- -- -- -- --  -- -- -- -- -- -- -- --
0020: 32 07 80 1F 00 08 80 09  80 0A 80 1F 01 1F 00 0B  2...............
0030: 80 0C 80 0A 80 1F 01 00                           ........        
```

#### Opcodes

```
  0: 0x0020 [0x32] ExtData[1]->MainSpeed = 40* * 0.1
  1: 0x0023 [0x1F] MOVE_ENTITY: EventEntity moves to X=26.851*, Z=65.098*, Y=-6.000*
  2: 0x002B [0x1F] MOVE_ENTITY: Update entity position (mode=1)
  3: 0x002D [0x1F] MOVE_ENTITY: EventEntity moves to X=20.376*, Z=66.210*, Y=-6.000*
  4: 0x0035 [0x1F] MOVE_ENTITY: Update entity position (mode=1)
  5: 0x0037 [0x00] END_REQSTACK()
```

### Event 65535.4

#### Metadata

| Field        | Value    |
|--------------|----------|
| Entrypoint   | 0x0038   |
| Data Size    | 23 bytes |
| Instructions | 5        |

```
      00 01 02 03 04 05 06 07  08 09 0A 0B 0C 0D 0E 0F
      -- -- -- -- -- -- -- --  -- -- -- -- -- -- -- --
0030:                          37 0D 80 0E 80 0F 80 10          7.......
0040: 80 32 04 80 1F 00 11 80  12 80 0F 80 1F 01 00     .2............. 
```

#### Opcodes

```
  0: 0x0038 [0x37] UPDATE_EVENT_POSITION_AND_DIR: x=-1.070*, z=-25.375*, y=0.000*, direction=109.4°*
  1: 0x0041 [0x32] ExtData[1]->MainSpeed = 13* * 0.1
  2: 0x0044 [0x1F] MOVE_ENTITY: EventEntity moves to X=-4.226*, Z=-34.300*, Y=0.000*
  3: 0x004C [0x1F] MOVE_ENTITY: Update entity position (mode=1)
  4: 0x004E [0x00] END_REQSTACK()
```

### Event 65535.5

#### Metadata

| Field        | Value    |
|--------------|----------|
| Entrypoint   | 0x004F   |
| Data Size    | 23 bytes |
| Instructions | 5        |

```
      00 01 02 03 04 05 06 07  08 09 0A 0B 0C 0D 0E 0F
      -- -- -- -- -- -- -- --  -- -- -- -- -- -- -- --
0040:                                               37                 7
0050: 13 80 14 80 0F 80 15 80  32 04 80 1F 00 16 80 17  ........2.......
0060: 80 0F 80 1F 01 00                                 ......          
```

#### Opcodes

```
  0: 0x004F [0x37] UPDATE_EVENT_POSITION_AND_DIR: x=-4.493*, z=-33.593*, y=0.000*, direction=105.5°*
  1: 0x0058 [0x32] ExtData[1]->MainSpeed = 13* * 0.1
  2: 0x005B [0x1F] MOVE_ENTITY: EventEntity moves to X=-7.633*, Z=-37.061*, Y=0.000*
  3: 0x0063 [0x1F] MOVE_ENTITY: Update entity position (mode=1)
  4: 0x0065 [0x00] END_REQSTACK()
```

### Event 65535.6

#### Metadata

| Field        | Value    |
|--------------|----------|
| Entrypoint   | 0x0066   |
| Data Size    | 23 bytes |
| Instructions | 5        |

```
      00 01 02 03 04 05 06 07  08 09 0A 0B 0C 0D 0E 0F
      -- -- -- -- -- -- -- --  -- -- -- -- -- -- -- --
0060:                   37 18  80 19 80 0F 80 1A 80 32        7........2
0070: 04 80 1F 00 1B 80 1C 80  0F 80 1F 01 00           .............   
```

#### Opcodes

```
  0: 0x0066 [0x37] UPDATE_EVENT_POSITION_AND_DIR: x=18.964*, z=-42.043*, y=0.000*, direction=96.9°*
  1: 0x006F [0x32] ExtData[1]->MainSpeed = 13* * 0.1
  2: 0x0072 [0x1F] MOVE_ENTITY: EventEntity moves to X=18.544*, Z=-44.904*, Y=0.000*
  3: 0x007A [0x1F] MOVE_ENTITY: Update entity position (mode=1)
  4: 0x007C [0x00] END_REQSTACK()
```

### Event 65535.7

#### Metadata

| Field        | Value    |
|--------------|----------|
| Entrypoint   | 0x007D   |
| Data Size    | 28 bytes |
| Instructions | 6        |

```
      00 01 02 03 04 05 06 07  08 09 0A 0B 0C 0D 0E 0F
      -- -- -- -- -- -- -- --  -- -- -- -- -- -- -- --
0070:                                         37 1D 80               7..
0080: 1E 80 0F 80 1F 80 32 07  80 1F 00 20 80 21 80 0F  ......2.... .!..
0090: 80 1F 01 1E 6F 50 03 01  00                       ....oP...       
```

#### Opcodes

```
  0: 0x007D [0x37] UPDATE_EVENT_POSITION_AND_DIR: x=14.659*, z=-49.250*, y=0.000*, direction=337.7°*
  1: 0x0086 [0x32] ExtData[1]->MainSpeed = 40* * 0.1
  2: 0x0089 [0x1F] MOVE_ENTITY: EventEntity moves to X=14.098*, Z=-47.687*, Y=0.000*
  3: 0x0091 [0x1F] MOVE_ENTITY: Update entity position (mode=1)
  4: 0x0093 [0x1E] EventEntity looks at Elisabeth (ID: 16994415/0x0103506F) and starts talking
  5: 0x0098 [0x00] END_REQSTACK()
```

### Event 65535.8

#### Metadata

| Field        | Value    |
|--------------|----------|
| Entrypoint   | 0x0099   |
| Data Size    | 10 bytes |
| Instructions | 2        |

```
      00 01 02 03 04 05 06 07  08 09 0A 0B 0C 0D 0E 0F
      -- -- -- -- -- -- -- --  -- -- -- -- -- -- -- --
0090:                             37 22 80 23 80 0F 80           7".#...
00A0: 24 80 00                                          $..             
```

#### Opcodes

```
  0: 0x0099 [0x37] UPDATE_EVENT_POSITION_AND_DIR: x=-4.676*, z=-39.869*, y=0.000*, direction=175.8°*
  1: 0x00A2 [0x00] END_REQSTACK()
```

### Event 65535.9

#### Metadata

| Field        | Value    |
|--------------|----------|
| Entrypoint   | 0x00A3   |
| Data Size    | 10 bytes |
| Instructions | 2        |

```
      00 01 02 03 04 05 06 07  08 09 0A 0B 0C 0D 0E 0F
      -- -- -- -- -- -- -- --  -- -- -- -- -- -- -- --
00A0:          37 25 80 26 80  0F 80 27 80 00              7%.&...'..   
```

#### Opcodes

```
  0: 0x00A3 [0x37] UPDATE_EVENT_POSITION_AND_DIR: x=-4.435*, z=-41.288*, y=0.000*, direction=35.7°*
  1: 0x00AC [0x00] END_REQSTACK()
```

### Event 65535.10

#### Metadata

| Field        | Value   |
|--------------|---------|
| Entrypoint   | 0x00AD  |
| Data Size    | 4 bytes |
| Instructions | 2       |

```
      00 01 02 03 04 05 06 07  08 09 0A 0B 0C 0D 0E 0F
      -- -- -- -- -- -- -- --  -- -- -- -- -- -- -- --
00A0:                                         1C 28 80               .(.
00B0: 00                                                .               
```

#### Opcodes

```
  0: 0x00AD [0x1C] WAIT(90* ticks)
  1: 0x00B0 [0x00] END_REQSTACK()
```

### Event 65535.11

#### Metadata

| Field        | Value    |
|--------------|----------|
| Entrypoint   | 0x00B1   |
| Data Size    | 10 bytes |
| Instructions | 2        |

```
      00 01 02 03 04 05 06 07  08 09 0A 0B 0C 0D 0E 0F
      -- -- -- -- -- -- -- --  -- -- -- -- -- -- -- --
00B0:    37 29 80 2A 80 0F 80  2B 80 00                  7).*...+..     
```

#### Opcodes

```
  0: 0x00B1 [0x37] UPDATE_EVENT_POSITION_AND_DIR: x=19.543*, z=-57.429*, y=0.000*, direction=94.3°*
  1: 0x00BA [0x00] END_REQSTACK()
```

### Event 65535.12

#### Metadata

| Field        | Value    |
|--------------|----------|
| Entrypoint   | 0x00BB   |
| Data Size    | 14 bytes |
| Instructions | 4        |

```
      00 01 02 03 04 05 06 07  08 09 0A 0B 0C 0D 0E 0F
      -- -- -- -- -- -- -- --  -- -- -- -- -- -- -- --
00B0:                                   32 04 80 1F 00             2....
00C0: 2C 80 2D 80 0F 80 1F 01  00                       ,.-......       
```

#### Opcodes

```
  0: 0x00BB [0x32] ExtData[1]->MainSpeed = 13* * 0.1
  1: 0x00BE [0x1F] MOVE_ENTITY: EventEntity moves to X=18.998*, Z=-50.001*, Y=0.000*
  2: 0x00C6 [0x1F] MOVE_ENTITY: Update entity position (mode=1)
  3: 0x00C8 [0x00] END_REQSTACK()
```

### Event 65535.13

#### Metadata

| Field        | Value    |
|--------------|----------|
| Entrypoint   | 0x00C9   |
| Data Size    | 10 bytes |
| Instructions | 2        |

```
      00 01 02 03 04 05 06 07  08 09 0A 0B 0C 0D 0E 0F
      -- -- -- -- -- -- -- --  -- -- -- -- -- -- -- --
00C0:                             37 1B 80 1C 80 0F 80           7......
00D0: 2E 80 00                                          ...             
```

#### Opcodes

```
  0: 0x00C9 [0x37] UPDATE_EVENT_POSITION_AND_DIR: x=18.544*, z=-44.904*, y=0.000*, direction=256.7°*
  1: 0x00D2 [0x00] END_REQSTACK()
```

### Event 65535.14

#### Metadata

| Field        | Value    |
|--------------|----------|
| Entrypoint   | 0x00D3   |
| Data Size    | 10 bytes |
| Instructions | 2        |

```
      00 01 02 03 04 05 06 07  08 09 0A 0B 0C 0D 0E 0F
      -- -- -- -- -- -- -- --  -- -- -- -- -- -- -- --
00D0:          37 2F 80 30 80  0F 80 31 80 00              7/.0...1..   
```

#### Opcodes

```
  0: 0x00D3 [0x37] UPDATE_EVENT_POSITION_AND_DIR: x=4.282*, z=-36.297*, y=0.000*, direction=47.5°*
  1: 0x00DC [0x00] END_REQSTACK()
```

### Event 65535.15

#### Metadata

| Field        | Value    |
|--------------|----------|
| Entrypoint   | 0x00DD   |
| Data Size    | 10 bytes |
| Instructions | 2        |

```
      00 01 02 03 04 05 06 07  08 09 0A 0B 0C 0D 0E 0F
      -- -- -- -- -- -- -- --  -- -- -- -- -- -- -- --
00D0:                                         37 32 80               72.
00E0: 33 80 0F 80 34 80 00                              3...4..         
```

#### Opcodes

```
  0: 0x00DD [0x37] UPDATE_EVENT_POSITION_AND_DIR: x=1.317*, z=-45.012*, y=0.000*, direction=272.0°*
  1: 0x00E6 [0x00] END_REQSTACK()
```

### Event 65535.16

#### Metadata

| Field        | Value    |
|--------------|----------|
| Entrypoint   | 0x00E7   |
| Data Size    | 10 bytes |
| Instructions | 2        |

```
      00 01 02 03 04 05 06 07  08 09 0A 0B 0C 0D 0E 0F
      -- -- -- -- -- -- -- --  -- -- -- -- -- -- -- --
00E0:                      37  35 80 36 80 0F 80 37 80         75.6...7.
00F0: 00                                                .               
```

#### Opcodes

```
  0: 0x00E7 [0x37] UPDATE_EVENT_POSITION_AND_DIR: x=2.509*, z=-58.869*, y=0.000*, direction=269.6°*
  1: 0x00F0 [0x00] END_REQSTACK()
```
