# 16994383 - Yadhiwa

## Common Data

| Field            | Value            |
|------------------|------------------|
| Zone             | Nashmau (ID: 53) |
| Block Size       | 192 bytes        |
| Total Events     | 5                |
| References Count | 13               |

## List of Events

| Event ID                 | Entrypoint   |   Size |   Instructions |
|--------------------------|--------------|--------|----------------|
| [65535](#event-65535)    | 0x0000       |      1 |              1 |
| [245](#event-245)        | 0x0001       |      1 |              1 |
| [65535.1](#event-655351) | 0x0002       |     23 |              5 |
| [65535.2](#event-655352) | 0x0019       |     52 |              6 |
| [65535.3](#event-655353) | 0x004D       |     27 |              7 |

## DAT References (imed_data)

|   Index | Hex Value   |   Dec Value |
|---------|-------------|-------------|
|       0 | 0x000D      |          13 |
|       1 | 0x38C5      |       14533 |
|       2 | 0xFFFF7D49  |  4294933833 |
|       3 | 0x0000      |           0 |
|       4 | 0x299A      |       10650 |
|       5 | 0x001F      |          31 |
|       6 | 0x00E4      |         228 |
|       7 | 0x299B      |       10651 |
|       8 | 0x0028      |          40 |
|       9 | 0x22F2      |        8946 |
|      10 | 0xFFFF93FC  |  4294939644 |
|      11 | 0xFFFFFFB2  |  4294967218 |
|      12 | 0xFFFFD339  |  4294955833 |

## String References

- **10650**: Yadhiwa readies Dice Roll.
- **10651**: Yadhiwa rolls a 999!

## Events

### Event 65535

#### Metadata

| Field        | Value   |
|--------------|---------|
| Entrypoint   | 0x0000  |
| Data Size    | 1 bytes |
| Instructions | 1       |

```
      00 01 02 03 04 05 06 07  08 09 0A 0B 0C 0D 0E 0F
      -- -- -- -- -- -- -- --  -- -- -- -- -- -- -- --
0000: 00                                                .               
```

#### Opcodes

```
  0: 0x0000 [0x00] END_REQSTACK()
```

### Event 245

#### Metadata

| Field        | Value   |
|--------------|---------|
| Entrypoint   | 0x0001  |
| Data Size    | 1 bytes |
| Instructions | 1       |

```
      00 01 02 03 04 05 06 07  08 09 0A 0B 0C 0D 0E 0F
      -- -- -- -- -- -- -- --  -- -- -- -- -- -- -- --
0000:    00                                              .              
```

#### Opcodes

```
  0: 0x0001 [0x00] END_REQSTACK()
```

### Event 65535.1

#### Metadata

| Field        | Value    |
|--------------|----------|
| Entrypoint   | 0x0002   |
| Data Size    | 23 bytes |
| Instructions | 5        |

```
      00 01 02 03 04 05 06 07  08 09 0A 0B 0C 0D 0E 0F
      -- -- -- -- -- -- -- --  -- -- -- -- -- -- -- --
0000:       4A 4F 50 03 01 F0  FF FF 7F 32 00 80 1F 00    JOP......2....
0010: 01 80 02 80 03 80 1F 01  00                       .........       
```

#### Opcodes

```
  0: 0x0002 [0x4A] Yadhiwa (ID: 16994383/0x0103504F) looks at LocalPlayer
  1: 0x000B [0x32] ExtData[1]->MainSpeed = 13* * 0.1
  2: 0x000E [0x1F] MOVE_ENTITY: EventEntity moves to X=14.533*, Z=-33.463*, Y=0.000*
  3: 0x0016 [0x1F] MOVE_ENTITY: Update entity position (mode=1)
  4: 0x0018 [0x00] END_REQSTACK()
```

### Event 65535.2

#### Metadata

| Field        | Value    |
|--------------|----------|
| Entrypoint   | 0x0019   |
| Data Size    | 52 bytes |
| Instructions | 6        |

```
      00 01 02 03 04 05 06 07  08 09 0A 0B 0C 0D 0E 0F
      -- -- -- -- -- -- -- --  -- -- -- -- -- -- -- --
0010:                             48 04 80 66 05 80 4F           H..f..O
0020: 50 03 01 4F 50 03 01 64  61 69 30 9F 06 80 4F 50  P..OP..dai0...OP
0030: 03 01 4F 50 03 01 6D 61  69 6E 03 80 53 4F 50 03  ..OP..main..SOP.
0040: 01 4F 50 03 01 64 61 69  30 48 07 80 00           .OP..dai0H...   
```

#### Opcodes

```
  0: 0x0019 [0x48] [System] [10650*]:
    → "Yadhiwa readies Dice Roll."
  1: 0x001C [0x66] LOAD_EXT_SCHEDULER_MAIN: Load scheduler "dai0" with entities [Yadhiwa (ID: 16994383/0x0103504F), Yadhiwa (ID: 16994383/0x0103504F)], work=31*
  2: 0x002B [0x9F] LOAD_SCHEDULED_TASK_ALT: Load scheduler "main" with entities [Yadhiwa (ID: 16994383/0x0103504F), Yadhiwa (ID: 16994383/0x0103504F)], work=[228*, 0*]
  3: 0x003C [0x53] WAIT_SCHEDULER_TASK: Wait for scheduler "dai0" with entities [Yadhiwa (ID: 16994383/0x0103504F), Yadhiwa (ID: 16994383/0x0103504F)]
  4: 0x0049 [0x48] [System] [10651*]:
    → "Yadhiwa rolls a 999!"
  5: 0x004C [0x00] END_REQSTACK()
```

### Event 65535.3

#### Metadata

| Field        | Value    |
|--------------|----------|
| Entrypoint   | 0x004D   |
| Data Size    | 27 bytes |
| Instructions | 7        |

```
      00 01 02 03 04 05 06 07  08 09 0A 0B 0C 0D 0E 0F
      -- -- -- -- -- -- -- --  -- -- -- -- -- -- -- --
0040:                                         32 08 80               2..
0050: 1F 00 09 80 0A 80 03 80  1F 01 32 08 80 1F 00 0B  ..........2.....
0060: 80 0C 80 03 80 1F 01 00                           ........        
```

#### Opcodes

```
  0: 0x004D [0x32] ExtData[1]->MainSpeed = 40* * 0.1
  1: 0x0050 [0x1F] MOVE_ENTITY: EventEntity moves to X=8.946*, Z=-27.652*, Y=0.000*
  2: 0x0058 [0x1F] MOVE_ENTITY: Update entity position (mode=1)
  3: 0x005A [0x32] ExtData[1]->MainSpeed = 40* * 0.1
  4: 0x005D [0x1F] MOVE_ENTITY: EventEntity moves to X=-0.078*, Z=-11.463*, Y=0.000*
  5: 0x0065 [0x1F] MOVE_ENTITY: Update entity position (mode=1)
  6: 0x0067 [0x00] END_REQSTACK()
```
