# 16994381 - Awaheen

## Common Data

| Field            | Value            |
|------------------|------------------|
| Zone             | Nashmau (ID: 53) |
| Block Size       | 104 bytes        |
| Total Events     | 2                |
| References Count | 8                |

## List of Events

| Event ID              | Entrypoint   |   Size |   Instructions |
|-----------------------|--------------|--------|----------------|
| [65535](#event-65535) | 0x0000       |      1 |              1 |
| [240](#event-240)     | 0x0001       |     45 |             17 |

## DAT References (imed_data)

|   Index | Hex Value   |   Dec Value |
|---------|-------------|-------------|
|       0 | 0x28FA      |       10490 |
|       1 | 0x0888      |        2184 |
|       2 | 0x0889      |        2185 |
|       3 | 0x088A      |        2186 |
|       4 | 0x088B      |        2187 |
|       5 | 0x28FB      |       10491 |
|       6 | 0x28FC      |       10492 |
|       7 | 0x28FD      |       10493 |

## String References

- **10490**: You wouldn't happen to have any Aht Urhgan currency, would ya? I'm such a nice guy that I'll exchange 'em so you can have even more!
- **10491**: I'll give ya five $0 for $1 or two $1 for $2.
- **10492**: And if ya happen to have $3, you can have five $2!
- **10493**: So how 'bout it? Never heard of a better deal in your life, eh? Remember, next time the urge hits, just give all your loot to me!

## Events

### Event 65535

#### Metadata

| Field        | Value   |
|--------------|---------|
| Entrypoint   | 0x0000  |
| Data Size    | 1 bytes |
| Instructions | 1       |

```
      00 01 02 03 04 05 06 07  08 09 0A 0B 0C 0D 0E 0F
      -- -- -- -- -- -- -- --  -- -- -- -- -- -- -- --
0000: 00                                                .               
```

#### Opcodes

```
  0: 0x0000 [0x00] END_REQSTACK()
```

### Event 240

#### Metadata

| Field        | Value    |
|--------------|----------|
| Entrypoint   | 0x0001   |
| Data Size    | 45 bytes |
| Instructions | 17       |

```
      00 01 02 03 04 05 06 07  08 09 0A 0B 0C 0D 0E 0F
      -- -- -- -- -- -- -- --  -- -- -- -- -- -- -- --
0000:    1E F0 FF FF 7F 6F 70  1D 00 80 23 03 02 10 01   .....op...#....
0010: 80 03 03 10 02 80 03 04  10 03 80 03 05 10 04 80  ................
0020: 1D 05 80 23 1D 06 80 23  1D 07 80 23 21 00        ...#...#...#!.  
```

#### Opcodes

```
  0: 0x0001 [0x1E] EventEntity looks at LocalPlayer and starts talking
  1: 0x0006 [0x6F] WAIT_FRAME_DELAY: Yield until WaitTime reaches zero
  2: 0x0007 [0x70] WAIT_ENTITY_RENDER_FLAG: Wait while EventEntity->Render.Flags3 bit 2 is set (cancel turn if not)
  3: 0x0008 [0x1D] PRINT_EVENT_MESSAGE(message_id=10490*)
    → "You wouldn't happen to have any Aht Urhgan currency, would ya? I'm such a nice guy that I'll exchange 'em so you can have even more!"
  4: 0x000B [0x23] WAIT_FOR_DIALOG_INTERACTION
  5: 0x000C [0x03] Work_Zone[2] = 2184*
  6: 0x0011 [0x03] Work_Zone[3] = 2185*
  7: 0x0016 [0x03] Work_Zone[4] = 2186*
  8: 0x001B [0x03] Work_Zone[5] = 2187*
  9: 0x0020 [0x1D] PRINT_EVENT_MESSAGE(message_id=10491*)
    → "I'll give ya five $0 for $1 or two $1 for $2."
 10: 0x0023 [0x23] WAIT_FOR_DIALOG_INTERACTION
 11: 0x0024 [0x1D] PRINT_EVENT_MESSAGE(message_id=10492*)
    → "And if ya happen to have $3, you can have five $2!"
 12: 0x0027 [0x23] WAIT_FOR_DIALOG_INTERACTION
 13: 0x0028 [0x1D] PRINT_EVENT_MESSAGE(message_id=10493*)
    → "So how 'bout it? Never heard of a better deal in your life, eh? Remember, next time the urge hits, just give all your loot to me!"
 14: 0x002B [0x23] WAIT_FOR_DIALOG_INTERACTION
 15: 0x002C [0x21] END_EVENT
 16: 0x002D [0x00] END_REQSTACK()
```
