# 16994356 - Nadeeha

## Common Data

| Field            | Value            |
|------------------|------------------|
| Zone             | Nashmau (ID: 53) |
| Block Size       | 108 bytes        |
| Total Events     | 2                |
| References Count | 6                |

## List of Events

| Event ID              | Entrypoint   |   Size |   Instructions |
|-----------------------|--------------|--------|----------------|
| [65535](#event-65535) | 0x0000       |      1 |              1 |
| [261](#event-261)     | 0x0001       |     56 |             14 |

## DAT References (imed_data)

|   Index | Hex Value   |   Dec Value |
|---------|-------------|-------------|
|       0 | 0x2931      |       10545 |
|       1 | 0x0008      |           8 |
|       2 | 0x2932      |       10546 |
|       3 | 0x2933      |       10547 |
|       4 | 0x001E      |          30 |
|       5 | 0x2934      |       10548 |

## String References

- **10545**: Nice to meeet yooo. I'm Nadeeha the mercenary. Whooo are--
- **10546**: Ack! You aren't a Qiqirn! Sorry, but it seems I've gotten into the habit of talking slowly...
- **10547**: This town is full of Qiqirn, so sooon you find yooorself speaking slowly, just like them.
- **10548**: Ack! Did I do it again? How embarrassing!

## Events

### Event 65535

#### Metadata

| Field        | Value   |
|--------------|---------|
| Entrypoint   | 0x0000  |
| Data Size    | 1 bytes |
| Instructions | 1       |

```
      00 01 02 03 04 05 06 07  08 09 0A 0B 0C 0D 0E 0F
      -- -- -- -- -- -- -- --  -- -- -- -- -- -- -- --
0000: 00                                                .               
```

#### Opcodes

```
  0: 0x0000 [0x00] END_REQSTACK()
```

### Event 261

#### Metadata

| Field        | Value    |
|--------------|----------|
| Entrypoint   | 0x0001   |
| Data Size    | 56 bytes |
| Instructions | 14       |

```
      00 01 02 03 04 05 06 07  08 09 0A 0B 0C 0D 0E 0F
      -- -- -- -- -- -- -- --  -- -- -- -- -- -- -- --
0000:    1E F0 FF FF 7F 1D 00  80 23 66 01 80 F8 FF FF   ........#f.....
0010: 7F F8 FF FF 7F 61 77 77  30 1D 02 80 23 1D 03 80  .....aww0...#...
0020: 23 66 01 80 F8 FF FF 7F  F8 FF FF 7F 61 77 77 30  #f..........aww0
0030: 1C 04 80 1D 05 80 23 21  00                       ......#!.       
```

#### Opcodes

```
  0: 0x0001 [0x1E] EventEntity looks at LocalPlayer and starts talking
  1: 0x0006 [0x1D] PRINT_EVENT_MESSAGE(message_id=10545*)
    → "Nice to meeet yooo. I'm Nadeeha the mercenary. Whooo are--"
  2: 0x0009 [0x23] WAIT_FOR_DIALOG_INTERACTION
  3: 0x000A [0x66] LOAD_EXT_SCHEDULER_MAIN: Load scheduler "aww0" with entities [EventEntity, EventEntity], work=8*
  4: 0x0019 [0x1D] PRINT_EVENT_MESSAGE(message_id=10546*)
    → "Ack! You aren't a Qiqirn! Sorry, but it seems I've gotten into the habit of talking slowly..."
  5: 0x001C [0x23] WAIT_FOR_DIALOG_INTERACTION
  6: 0x001D [0x1D] PRINT_EVENT_MESSAGE(message_id=10547*)
    → "This town is full of Qiqirn, so sooon you find yooorself speaking slowly, just like them."
  7: 0x0020 [0x23] WAIT_FOR_DIALOG_INTERACTION
  8: 0x0021 [0x66] LOAD_EXT_SCHEDULER_MAIN: Load scheduler "aww0" with entities [EventEntity, EventEntity], work=8*
  9: 0x0030 [0x1C] WAIT(30* ticks)
 10: 0x0033 [0x1D] PRINT_EVENT_MESSAGE(message_id=10548*)
    → "Ack! Did I do it again? How embarrassing!"
 11: 0x0036 [0x23] WAIT_FOR_DIALOG_INTERACTION
 12: 0x0037 [0x21] END_EVENT
 13: 0x0038 [0x00] END_REQSTACK()
```
