# 16994374 - Rararoon

## Common Data

| Field            | Value            |
|------------------|------------------|
| Zone             | Nashmau (ID: 53) |
| Block Size       | 76 bytes         |
| Total Events     | 2                |
| References Count | 2                |

## List of Events

| Event ID              | Entrypoint   |   Size |   Instructions |
|-----------------------|--------------|--------|----------------|
| [65535](#event-65535) | 0x0000       |      1 |              1 |
| [333](#event-333)     | 0x0001       |     41 |              7 |

## DAT References (imed_data)

|   Index | Hex Value   |   Dec Value |
|---------|-------------|-------------|
|       0 | 0x034A      |         842 |
|       1 | 0x2971      |       10609 |

## String References

- **10609**: Rararoon want do visit to Alzadaal! Must have many triiinkets!

## Events

### Event 65535

#### Metadata

| Field        | Value   |
|--------------|---------|
| Entrypoint   | 0x0000  |
| Data Size    | 1 bytes |
| Instructions | 1       |

```
      00 01 02 03 04 05 06 07  08 09 0A 0B 0C 0D 0E 0F
      -- -- -- -- -- -- -- --  -- -- -- -- -- -- -- --
0000: 00                                                .               
```

#### Opcodes

```
  0: 0x0000 [0x00] END_REQSTACK()
```

### Event 333

#### Metadata

| Field        | Value    |
|--------------|----------|
| Entrypoint   | 0x0001   |
| Data Size    | 41 bytes |
| Instructions | 7        |

```
      00 01 02 03 04 05 06 07  08 09 0A 0B 0C 0D 0E 0F
      -- -- -- -- -- -- -- --  -- -- -- -- -- -- -- --
0000:    1E F0 FF FF 7F 5B 00  80 F8 FF FF 7F F8 FF FF   .....[.........
0010: 7F 74 6C 6B 30 1D 01 80  23 5B 00 80 F8 FF FF 7F  .tlk0...#[......
0020: F8 FF FF 7F 74 6C 6B 31  21 00                    ....tlk1!.      
```

#### Opcodes

```
  0: 0x0001 [0x1E] EventEntity looks at LocalPlayer and starts talking
  1: 0x0006 [0x5B] LOAD_EXT_SCHEDULER: Load scheduler "tlk0" with entities [EventEntity, EventEntity], work=842*
  2: 0x0015 [0x1D] PRINT_EVENT_MESSAGE(message_id=10609*)
    → "Rararoon want do visit to Alzadaal! Must have many triiinkets!"
  3: 0x0018 [0x23] WAIT_FOR_DIALOG_INTERACTION
  4: 0x0019 [0x5B] LOAD_EXT_SCHEDULER: Load scheduler "tlk1" with entities [EventEntity, EventEntity], work=842*
  5: 0x0028 [0x21] END_EVENT
  6: 0x0029 [0x00] END_REQSTACK()
```
