# 16994359 - Leleroon

## Common Data

| Field            | Value            |
|------------------|------------------|
| Zone             | Nashmau (ID: 53) |
| Block Size       | 2032 bytes       |
| Total Events     | 14               |
| References Count | 59               |

## List of Events

| Event ID                 | Entrypoint   |   Size |   Instructions |
|--------------------------|--------------|--------|----------------|
| [65535](#event-65535)    | 0x0000       |      1 |              1 |
| [264](#event-264)        | 0x0001       |     52 |             12 |
| [282](#event-282)        | 0x0035       |    929 |            145 |
| [285](#event-285)        | 0x03D6       |     44 |              8 |
| [286](#event-286)        | 0x0402       |     44 |              8 |
| [287](#event-287)        | 0x042E       |     44 |              8 |
| [283](#event-283)        | 0x045A       |    508 |             69 |
| [292](#event-292)        | 0x0656       |     52 |             12 |
| [277](#event-277)        | 0x068A       |      7 |              2 |
| [294](#event-294)        | 0x0691       |     10 |              2 |
| [65535.1](#event-655351) | 0x069B       |     14 |              4 |
| [65535.2](#event-655352) | 0x06A9       |     14 |              4 |
| [311](#event-311)        | 0x06B7       |      1 |              1 |
| [312](#event-312)        | 0x06B8       |      1 |              1 |

## DAT References (imed_data)

|   Index | Hex Value   |   Dec Value |
|---------|-------------|-------------|
|       0 | 0x034B      |         843 |
|       1 | 0x293D      |       10557 |
|       2 | 0x293E      |       10558 |
|       3 | 0x293F      |       10559 |
|       4 | 0x001E      |          30 |
|       5 | 0x00C8      |         200 |
|       6 | 0x0000      |           0 |
|       7 | 0x001B      |          27 |
|       8 | 0x3A51      |       14929 |
|       9 | 0x3D45      |       15685 |
|      10 | 0x38BA      |       14522 |
|      11 | 0x011B      |         283 |
|      12 | 0x003C      |          60 |
|      13 | 0x034A      |         842 |
|      14 | 0x29B7      |       10679 |
|      15 | 0x29B8      |       10680 |
|      16 | 0x29B9      |       10681 |
|      17 | 0x29BA      |       10682 |
|      18 | 0x29BB      |       10683 |
|      19 | 0x29BC      |       10684 |
|      20 | 0x29BD      |       10685 |
|      21 | 0x29BE      |       10686 |
|      22 | 0x29BF      |       10687 |
|      23 | 0x29C0      |       10688 |
|      24 | 0x0371      |         881 |
|      25 | 0x29C1      |       10689 |
|      26 | 0x0001      |           1 |
|      27 | 0x29C6      |       10694 |
|      28 | 0x29C5      |       10693 |
|      29 | 0x29C9      |       10697 |
|      30 | 0x0002      |           2 |
|      31 | 0x29C7      |       10695 |
|      32 | 0x0003      |           3 |
|      33 | 0x29C8      |       10696 |
|      34 | 0x005A      |          90 |
|      35 | 0x0013      |          19 |
|      36 | 0x0925      |        2341 |
|      37 | 0x29CA      |       10698 |
|      38 | 0x29CB      |       10699 |
|      39 | 0x29CC      |       10700 |
|      40 | 0x29CD      |       10701 |
|      41 | 0x29CE      |       10702 |
|      42 | 0x29CF      |       10703 |
|      43 | 0x29D0      |       10704 |
|      44 | 0x29D1      |       10705 |
|      45 | 0x29D2      |       10706 |
|      46 | 0x29D3      |       10707 |
|      47 | 0x29D4      |       10708 |
|      48 | 0x29D5      |       10709 |
|      49 | 0x29D6      |       10710 |
|      50 | 0x3ABB      |       15035 |
|      51 | 0x1347F     |       78975 |
|      52 | 0xFFFFE891  |  4294961297 |
|      53 | 0x00A2      |         162 |
|      54 | 0x0028      |          40 |
|      55 | 0x46B1      |       18097 |
|      56 | 0x10CB6     |       68790 |
|      57 | 0x3B42      |       15170 |
|      58 | 0x12FE4     |       77796 |

## String References

- **10557**: Hee hee...Leleroon's treasooor.t Special dice! Special corsair dice! Yooo know how special? Only Seagull Phratrie have corsair dice!
- **10558**: Leleroon like corsair of looong looong ago. So Leleroon very happy to have dice!
- **10559**: Leleroon have want to become corsair like looong ago, you know? Can Leleroon become?
- **10679**: Leleroon have dream.t Want wear fancy corsair clothings! Have want to wear, but can dooo?
- **10680**: Yooo also have want for corsair clothings?
- **10681**: Hohooo...but only Seagoool captain have corsair clothings, yooo know?
- **10682**: And person whooo make clothings not here, tooo...
- **10683**: What to dooo...?
- **10684**: But yooo Seagoool crooo, no? Leleroon also Seagoool crooo, yes!
- **10685**: I introdoooce yooo to friend can make corsair clothings, okay? Listen to Leleroon?
- **10686**: Person who make are all Seagoool crooo. They make fancy clothings that Leleroon have want to wear!
- **10687**: What kind of clothings yooo want?
- **10688**: Which one yooo want? [None./$2./$3./$4.]
- **10689**: Oookay, bye bye now!
- **10693**: Yooo really, really have want? [Yes, I really, really want!/When you put it that way...]
- **10694**: Nation where Leleroon have friend.t Place with big, hoooge trees, lots and many, yooo know?
- **10695**: Nation where Leleroon have friend.t Place where muscle peoples take rocks from inside of mountains, yooo know?
- **10696**: Nation where Leleroon have friend.t Place with castle inside of fooorest, yooo know?
- **10697**: I give this yooo. Now yooo visit friend to make clothings, okay? Yooo will have so happiness.
- **10698**: Network, network.t Not Qiqirn network...no no nooo. This one own by only Seagoool crooo!
- **10699**: Oh, yooo Seagoool crooo! Leleroon hear from Zweeha lady, yooo know? About hydrooo cage.t Leleroon have want to see!
- **10700**: Oh...ohhh? What can be...?
- **10701**: This, this...what? How can be? Hooo?
- **10702**: Weird thing, yooo know?
- **10703**: It no smell like hydrooo cage... and no tick tock! This cage no good, no nooo.
- **10704**: Real one go tick tock tick tock! It make yooo know mountain and valley in sea, yooo know?
- **10705**: No no, this hydrooo cage nooo good. But yooo can "charge"? Yes...charge...somewhere shiny? Charge for tick tock!
- **10706**: Leleroon have goood place for yooo. Tree place! Jajooomie Woodland, yooo know? Leleroon only tell to Seagoool crooo!
- **10707**: When it charge, yooo go get, okay? Then everyone much happiness!
- **10708**: No goood, nooo hydrooo cage! Charge! Charge! At shiny place! Then tick tock, yooo know?
- **10709**: Leleroon think Jajooomie Woodland? Jajajooom! Only tell Jajajooomie to Seagoool crooo!
- **10710**: When charge done, yooo get, okay? Then Leleroon know everyone so happiness!

## Events

### Event 65535

#### Metadata

| Field        | Value   |
|--------------|---------|
| Entrypoint   | 0x0000  |
| Data Size    | 1 bytes |
| Instructions | 1       |

```
      00 01 02 03 04 05 06 07  08 09 0A 0B 0C 0D 0E 0F
      -- -- -- -- -- -- -- --  -- -- -- -- -- -- -- --
0000: 00                                                .               
```

#### Opcodes

```
  0: 0x0000 [0x00] END_REQSTACK()
```

### Event 264

#### Metadata

| Field        | Value    |
|--------------|----------|
| Entrypoint   | 0x0001   |
| Data Size    | 52 bytes |
| Instructions | 12       |

```
      00 01 02 03 04 05 06 07  08 09 0A 0B 0C 0D 0E 0F
      -- -- -- -- -- -- -- --  -- -- -- -- -- -- -- --
0000:    1E F0 FF FF 7F 5B 00  80 F8 FF FF 7F F8 FF FF   .....[.........
0010: 7F 74 6C 62 30 1D 01 80  23 1D 02 80 23 1D 03 80  .tlb0...#...#...
0020: 23 5B 00 80 F8 FF FF 7F  F8 FF FF 7F 74 6C 62 31  #[..........tlb1
0030: 1C 04 80 21 00                                    ...!.           
```

#### Opcodes

```
  0: 0x0001 [0x1E] EventEntity looks at LocalPlayer and starts talking
  1: 0x0006 [0x5B] LOAD_EXT_SCHEDULER: Load scheduler "tlb0" with entities [EventEntity, EventEntity], work=843*
  2: 0x0015 [0x1D] PRINT_EVENT_MESSAGE(message_id=10557*)
    → "Hee hee...Leleroon's treasooor.t Special dice! Special corsair dice! Yooo know how special? Only Seagull Phratrie have corsair dice!"
  3: 0x0018 [0x23] WAIT_FOR_DIALOG_INTERACTION
  4: 0x0019 [0x1D] PRINT_EVENT_MESSAGE(message_id=10558*)
    → "Leleroon like corsair of looong looong ago. So Leleroon very happy to have dice!"
  5: 0x001C [0x23] WAIT_FOR_DIALOG_INTERACTION
  6: 0x001D [0x1D] PRINT_EVENT_MESSAGE(message_id=10559*)
    → "Leleroon have want to become corsair like looong ago, you know? Can Leleroon become?"
  7: 0x0020 [0x23] WAIT_FOR_DIALOG_INTERACTION
  8: 0x0021 [0x5B] LOAD_EXT_SCHEDULER: Load scheduler "tlb1" with entities [EventEntity, EventEntity], work=843*
  9: 0x0030 [0x1C] WAIT(30* ticks)
 10: 0x0033 [0x21] END_EVENT
 11: 0x0034 [0x00] END_REQSTACK()
```

### Event 282

#### Metadata

| Field        | Value     |
|--------------|-----------|
| Entrypoint   | 0x0035    |
| Data Size    | 929 bytes |
| Instructions | 142       |

```
      00 01 02 03 04 05 06 07  08 09 0A 0B 0C 0D 0E 0F
      -- -- -- -- -- -- -- --  -- -- -- -- -- -- -- --
0030:                42 45 05  80 F8 FF FF 7F F8 FF FF       BE.........
0040: 7F 66 64 6F 31 06 80 55  05 80 F8 FF FF 7F F8 FF  .fdo1..U........
0050: FF 7F 66 64 6F 31 46 01  38 07 80 29 10 F0 FF FF  ..fdo1F.8..)....
0060: 7F 17 92 01 37 50 03 01  80 F0 FF FF 7F 03 04 10  ....7P..........
0070: 08 80 03 05 10 09 80 03  06 10 0A 80 1C 04 80 45  ...............E
0080: 0B 80 F8 FF FF 7F F8 FF  FF 7F 76 30 30 30 06 80  ..........v000..
0090: 1C 0C 80 45 05 80 F8 FF  FF 7F F8 FF FF 7F 66 64  ...E..........fd
00A0: 69 31 06 80 03 01 10 06  80 02 03 10 06 80 00 98  i1..............
00B0: 01 1C 04 80 5B 0D 80 F8  FF FF 7F F8 FF FF 7F 74  ....[..........t
00C0: 6C 6B 30 1D 0E 80 23 5B  0D 80 F8 FF FF 7F F8 FF  lk0...#[........
00D0: FF 7F 74 6C 6B 31 1C 04  80 52 0B 80 F8 FF FF 7F  ..tlk1...R......
00E0: F8 FF FF 7F 76 30 30 30  45 0B 80 F8 FF FF 7F F8  ....v000E.......
00F0: FF FF 7F 76 30 30 31 06  80 1C 04 80 29 10 F0 FF  ...v001.....)...
0100: FF 7F 16 5B 00 80 F8 FF  FF 7F F8 FF FF 7F 74 6C  ...[..........tl
0110: 62 30 1D 0F 80 23 1C 04  80 1D 10 80 23 1D 11 80  b0...#......#...
0120: 23 5B 00 80 F8 FF FF 7F  F8 FF FF 7F 74 6C 62 31  #[..........tlb1
0130: 1C 04 80 52 0B 80 F8 FF  FF 7F F8 FF FF 7F 76 30  ...R..........v0
0140: 30 31 45 0B 80 F8 FF FF  7F F8 FF FF 7F 76 30 30  01E..........v00
0150: 32 06 80 1C 0C 80 5B 0D  80 F8 FF FF 7F F8 FF FF  2.....[.........
0160: 7F 74 68 6B 30 1C 04 80  1D 12 80 23 1C 04 80 29  .thk0......#...)
0170: 10 F0 FF FF 7F 16 5B 0D  80 F8 FF FF 7F F8 FF FF  ......[.........
0180: 7F 74 68 6B 31 1D 13 80  23 52 0B 80 F8 FF FF 7F  .thk1...#R......
0190: F8 FF FF 7F 76 30 30 32  45 0B 80 F8 FF FF 7F F8  ....v002E.......
01A0: FF FF 7F 76 30 30 33 06  80 5B 0D 80 F8 FF FF 7F  ...v003..[......
01B0: F8 FF FF 7F 74 6C 6B 30  1D 14 80 23 1D 15 80 23  ....tlk0...#...#
01C0: 29 10 F0 FF FF 7F 16 1D  16 80 23 5B 0D 80 F8 FF  ).........#[....
01D0: FF 7F F8 FF FF 7F 74 6C  6B 31 1C 04 80 52 0B 80  ......tlk1...R..
01E0: F8 FF FF 7F F8 FF FF 7F  76 30 30 33 45 0B 80 F8  ........v003E...
01F0: FF FF 7F F8 FF FF 7F 76  30 30 34 06 80 03 00 00  .......v004.....
0200: 09 10 24 17 80 06 80 00  00 25 02 00 10 06 80 00  ..$......%......
0210: 30 02 03 01 10 06 80 1C  04 80 5B 18 80 F8 FF FF  0.........[.....
0220: 7F F8 FF FF 7F 77 68 74  30 1D 19 80 23 01 8C 03  .....wht0...#...
0230: 02 00 10 1A 80 00 A4 02  03 04 10 08 80 93 04 10  ................
0240: 5B 0D 80 F8 FF FF 7F F8  FF FF 7F 74 6C 6B 30 1D  [..........tlk0.
0250: 1B 80 23 5B 0D 80 F8 FF  FF 7F F8 FF FF 7F 74 6C  ..#[..........tl
0260: 6B 31 93 06 80 24 1C 80  06 80 06 80 25 02 00 10  k1...$......%...
0270: 06 80 00 93 02 03 01 10  1A 80 1C 04 80 5B 00 80  .............[..
0280: F8 FF FF 7F F8 FF FF 7F  68 61 70 30 1D 1D 80 23  ........hap0...#
0290: 01 A1 02 02 00 10 1A 80  00 A1 02 01 02 02 01 A1  ................
02A0: 02 01 8C 03 02 00 10 1E  80 00 18 03 03 05 10 09  ................
02B0: 80 93 05 10 5B 0D 80 F8  FF FF 7F F8 FF FF 7F 74  ....[..........t
02C0: 6C 6B 30 1D 1F 80 23 5B  0D 80 F8 FF FF 7F F8 FF  lk0...#[........
02D0: FF 7F 74 6C 6B 31 93 06  80 24 1C 80 06 80 06 80  ..tlk1...$......
02E0: 25 02 00 10 06 80 00 07  03 03 01 10 1E 80 1C 04  %...............
02F0: 80 5B 00 80 F8 FF FF 7F  F8 FF FF 7F 68 61 70 30  .[..........hap0
0300: 1D 1D 80 23 01 15 03 02  00 10 1A 80 00 15 03 01  ...#............
0310: 02 02 01 15 03 01 8C 03  02 00 10 20 80 00 8C 03  ........... ....
0320: 03 06 10 0A 80 93 06 10  5B 0D 80 F8 FF FF 7F F8  ........[.......
0330: FF FF 7F 74 6C 6B 30 1D  21 80 23 5B 0D 80 F8 FF  ...tlk0.!.#[....
0340: FF 7F F8 FF FF 7F 74 6C  6B 31 93 06 80 24 1C 80  ......tlk1...$..
0350: 06 80 06 80 25 02 00 10  06 80 00 7B 03 03 01 10  ....%......{....
0360: 20 80 1C 04 80 5B 00 80  F8 FF FF 7F F8 FF FF 7F   ....[..........
0370: 68 61 70 30 1D 1D 80 23  01 89 03 02 00 10 1A 80  hap0...#........
0380: 00 89 03 01 02 02 01 89  03 01 8C 03 1C 22 80 45  .............".E
0390: 05 80 F8 FF FF 7F F8 FF  FF 7F 66 64 6F 31 06 80  ..........fdo1..
03A0: 55 05 80 F8 FF FF 7F F8  FF FF 7F 66 64 6F 31 1C  U..........fdo1.
03B0: 04 80 52 0B 80 F0 FF FF  7F F0 FF FF 7F 76 30 30  ..R..........v00
03C0: 34 46 00 45 05 80 F8 FF  FF 7F F8 FF FF 7F 66 64  4F.E..........fd
03D0: 69 31 06 80 21 00                                 i1..!.          
```

#### Opcodes

```
  0: 0x0035 [0x42] SET_CLI_EVENT_CANCEL_DATA()
  1: 0x0036 [0x45] LOAD_SCHEDULED_TASK: Load scheduler "fdo1" with entities [EventEntity, EventEntity], work=[200*, 0*]
  2: 0x0047 [0x55] WAIT_LOAD_SCHEDULER: Wait for scheduler "fdo1" with entities [EventEntity, EventEntity], work=200*
  3: 0x0056 [0x46] CAMERA_CONTROL: Disable user control
  4: 0x0058 [0x38] SET_CLIENT_EVENT_MODE(mode=27*)
  5: 0x005B [0x29] REQ_SET_WAIT(priority=0x10, entity_id=LocalPlayer, tag_num=0x17)
  6: 0x0062 [0x92] Leleroon (ID: 16994359/0x01035037)->Render.Flags3 ^= 0x01
  7: 0x0068 [0x80] LOAD_WAIT(entity=LocalPlayer)
  8: 0x006D [0x03] Work_Zone[4] = 14929*
  9: 0x0072 [0x03] Work_Zone[5] = 15685*
 10: 0x0077 [0x03] Work_Zone[6] = 14522*
 11: 0x007C [0x1C] WAIT(30* ticks)
 12: 0x007F [0x45] LOAD_SCHEDULED_TASK: Load scheduler "v000" with entities [EventEntity, EventEntity], work=[283*, 0*]
 13: 0x0090 [0x1C] WAIT(60* ticks)
 14: 0x0093 [0x45] LOAD_SCHEDULED_TASK: Load scheduler "fdi1" with entities [EventEntity, EventEntity], work=[200*, 0*]
 15: 0x00A4 [0x03] Work_Zone[1] = 0*
 16: 0x00A9 [0x02] IF !(Work_Zone[3] == 0*) GOTO 0x0198
 17: 0x00B1 [0x1C] WAIT(30* ticks)
 18: 0x00B4 [0x5B] LOAD_EXT_SCHEDULER: Load scheduler "tlk0" with entities [EventEntity, EventEntity], work=842*
 19: 0x00C3 [0x1D] PRINT_EVENT_MESSAGE(message_id=10679*)
    → "Leleroon have dream.t Want wear fancy corsair clothings! Have want to wear, but can dooo?"
 20: 0x00C6 [0x23] WAIT_FOR_DIALOG_INTERACTION
 21: 0x00C7 [0x5B] LOAD_EXT_SCHEDULER: Load scheduler "tlk1" with entities [EventEntity, EventEntity], work=842*
 22: 0x00D6 [0x1C] WAIT(30* ticks)
 23: 0x00D9 [0x52] END_LOAD_SCHEDULER: End scheduler "v000" with entities [EventEntity, EventEntity], work=283*
 24: 0x00E8 [0x45] LOAD_SCHEDULED_TASK: Load scheduler "v001" with entities [EventEntity, EventEntity], work=[283*, 0*]
 25: 0x00F9 [0x1C] WAIT(30* ticks)
 26: 0x00FC [0x29] REQ_SET_WAIT(priority=0x10, entity_id=LocalPlayer, tag_num=0x16)
 27: 0x0103 [0x5B] LOAD_EXT_SCHEDULER: Load scheduler "tlb0" with entities [EventEntity, EventEntity], work=843*
 28: 0x0112 [0x1D] PRINT_EVENT_MESSAGE(message_id=10680*)
    → "Yooo also have want for corsair clothings?"
 29: 0x0115 [0x23] WAIT_FOR_DIALOG_INTERACTION
 30: 0x0116 [0x1C] WAIT(30* ticks)
 31: 0x0119 [0x1D] PRINT_EVENT_MESSAGE(message_id=10681*)
    → "Hohooo...but only Seagoool captain have corsair clothings, yooo know?"
 32: 0x011C [0x23] WAIT_FOR_DIALOG_INTERACTION
 33: 0x011D [0x1D] PRINT_EVENT_MESSAGE(message_id=10682*)
    → "And person whooo make clothings not here, tooo..."
 34: 0x0120 [0x23] WAIT_FOR_DIALOG_INTERACTION
 35: 0x0121 [0x5B] LOAD_EXT_SCHEDULER: Load scheduler "tlb1" with entities [EventEntity, EventEntity], work=843*
 36: 0x0130 [0x1C] WAIT(30* ticks)
 37: 0x0133 [0x52] END_LOAD_SCHEDULER: End scheduler "v001" with entities [EventEntity, EventEntity], work=283*
 38: 0x0142 [0x45] LOAD_SCHEDULED_TASK: Load scheduler "v002" with entities [EventEntity, EventEntity], work=[283*, 0*]
 39: 0x0153 [0x1C] WAIT(60* ticks)
 40: 0x0156 [0x5B] LOAD_EXT_SCHEDULER: Load scheduler "thk0" with entities [EventEntity, EventEntity], work=842*
 41: 0x0165 [0x1C] WAIT(30* ticks)
 42: 0x0168 [0x1D] PRINT_EVENT_MESSAGE(message_id=10683*)
    → "What to dooo...?"
 43: 0x016B [0x23] WAIT_FOR_DIALOG_INTERACTION
 44: 0x016C [0x1C] WAIT(30* ticks)
 45: 0x016F [0x29] REQ_SET_WAIT(priority=0x10, entity_id=LocalPlayer, tag_num=0x16)
 46: 0x0176 [0x5B] LOAD_EXT_SCHEDULER: Load scheduler "thk1" with entities [EventEntity, EventEntity], work=842*
 47: 0x0185 [0x1D] PRINT_EVENT_MESSAGE(message_id=10684*)
    → "But yooo Seagoool crooo, no? Leleroon also Seagoool crooo, yes!"
 48: 0x0188 [0x23] WAIT_FOR_DIALOG_INTERACTION
 49: 0x0189 [0x52] END_LOAD_SCHEDULER: End scheduler "v002" with entities [EventEntity, EventEntity], work=283*
 50: 0x0198 [0x45] LOAD_SCHEDULED_TASK: Load scheduler "v003" with entities [EventEntity, EventEntity], work=[283*, 0*]
 51: 0x01A9 [0x5B] LOAD_EXT_SCHEDULER: Load scheduler "tlk0" with entities [EventEntity, EventEntity], work=842*
 52: 0x01B8 [0x1D] PRINT_EVENT_MESSAGE(message_id=10685*)
    → "I introdoooce yooo to friend can make corsair clothings, okay? Listen to Leleroon?"
 53: 0x01BB [0x23] WAIT_FOR_DIALOG_INTERACTION
 54: 0x01BC [0x1D] PRINT_EVENT_MESSAGE(message_id=10686*)
    → "Person who make are all Seagoool crooo. They make fancy clothings that Leleroon have want to wear!"
 55: 0x01BF [0x23] WAIT_FOR_DIALOG_INTERACTION
 56: 0x01C0 [0x29] REQ_SET_WAIT(priority=0x10, entity_id=LocalPlayer, tag_num=0x16)
 57: 0x01C7 [0x1D] PRINT_EVENT_MESSAGE(message_id=10687*)
    → "What kind of clothings yooo want?"
 58: 0x01CA [0x23] WAIT_FOR_DIALOG_INTERACTION
 59: 0x01CB [0x5B] LOAD_EXT_SCHEDULER: Load scheduler "tlk1" with entities [EventEntity, EventEntity], work=842*
 60: 0x01DA [0x1C] WAIT(30* ticks)
 61: 0x01DD [0x52] END_LOAD_SCHEDULER: End scheduler "v003" with entities [EventEntity, EventEntity], work=283*
 62: 0x01EC [0x45] LOAD_SCHEDULED_TASK: Load scheduler "v004" with entities [EventEntity, EventEntity], work=[283*, 0*]
 63: 0x01FD [0x03] ExtData[1]->WorkLocal[0] = Work_Zone[9]
 64: 0x0202 [0x24] CREATE_DIALOG(message_id=10688*, default_option=0*, option_flags=ExtData[1]->WorkLocal[0])
    → "Which one yooo want? [None./$2./$3./$4.]"
 65: 0x0209 [0x25] WAIT_DIALOG_SELECT()
 66: 0x020A [0x02] IF !(Work_Zone[0] == 0*) GOTO 0x0230
 67: 0x0212 [0x03] Work_Zone[1] = 0*
 68: 0x0217 [0x1C] WAIT(30* ticks)
 69: 0x021A [0x5B] LOAD_EXT_SCHEDULER: Load scheduler "wht0" with entities [EventEntity, EventEntity], work=881*
 70: 0x0229 [0x1D] PRINT_EVENT_MESSAGE(message_id=10689*)
    → "Oookay, bye bye now!"
 71: 0x022C [0x23] WAIT_FOR_DIALOG_INTERACTION
 72: 0x022D [0x01] GOTO 0x038C
 73: 0x0230 [0x02] IF !(Work_Zone[0] == 1*) GOTO 0x02A4
 74: 0x0238 [0x03] Work_Zone[4] = 14929*
 75: 0x023D [0x93] DISPLAY_ITEM_INFO(item_id=Work_Zone[4])
 76: 0x0240 [0x5B] LOAD_EXT_SCHEDULER: Load scheduler "tlk0" with entities [EventEntity, EventEntity], work=842*
 77: 0x024F [0x1D] PRINT_EVENT_MESSAGE(message_id=10694*)
    → "Nation where Leleroon have friend.t Place with big, hoooge trees, lots and many, yooo know?"
 78: 0x0252 [0x23] WAIT_FOR_DIALOG_INTERACTION
 79: 0x0253 [0x5B] LOAD_EXT_SCHEDULER: Load scheduler "tlk1" with entities [EventEntity, EventEntity], work=842*
 80: 0x0262 [0x93] DISPLAY_ITEM_INFO(item_id=0*)
 81: 0x0265 [0x24] CREATE_DIALOG(message_id=10693*, default_option=0*, option_flags=0*)
    → "Yooo really, really have want? [Yes, I really, really want!/When you put it that way...]"
 82: 0x026C [0x25] WAIT_DIALOG_SELECT()
 83: 0x026D [0x02] IF !(Work_Zone[0] == 0*) GOTO 0x0293
 84: 0x0275 [0x03] Work_Zone[1] = 1*
 85: 0x027A [0x1C] WAIT(30* ticks)
 86: 0x027D [0x5B] LOAD_EXT_SCHEDULER: Load scheduler "hap0" with entities [EventEntity, EventEntity], work=843*
 87: 0x028C [0x1D] PRINT_EVENT_MESSAGE(message_id=10697*)
    → "I give this yooo. Now yooo visit friend to make clothings, okay? Yooo will have so happiness."
 88: 0x028F [0x23] WAIT_FOR_DIALOG_INTERACTION
 89: 0x0290 [0x01] GOTO 0x02A1
 90: 0x0293 [0x02] IF !(Work_Zone[0] == 1*) GOTO 0x02A1
 91: 0x029B [0x01] GOTO 0x0202

SUBROUTINE_02A1:
 92: 0x02A1 [0x01] GOTO 0x038C
 93: 0x02A4 [0x02] IF !(Work_Zone[0] == 2*) GOTO 0x0318
 94: 0x02AC [0x03] Work_Zone[5] = 15685*
 95: 0x02B1 [0x93] DISPLAY_ITEM_INFO(item_id=Work_Zone[5])
 96: 0x02B4 [0x5B] LOAD_EXT_SCHEDULER: Load scheduler "tlk0" with entities [EventEntity, EventEntity], work=842*
 97: 0x02C3 [0x1D] PRINT_EVENT_MESSAGE(message_id=10695*)
    → "Nation where Leleroon have friend.t Place where muscle peoples take rocks from inside of mountains, yooo know?"
 98: 0x02C6 [0x23] WAIT_FOR_DIALOG_INTERACTION
 99: 0x02C7 [0x5B] LOAD_EXT_SCHEDULER: Load scheduler "tlk1" with entities [EventEntity, EventEntity], work=842*
100: 0x02D6 [0x93] DISPLAY_ITEM_INFO(item_id=0*)
101: 0x02D9 [0x24] CREATE_DIALOG(message_id=10693*, default_option=0*, option_flags=0*)
    → "Yooo really, really have want? [Yes, I really, really want!/When you put it that way...]"
102: 0x02E0 [0x25] WAIT_DIALOG_SELECT()
103: 0x02E1 [0x02] IF !(Work_Zone[0] == 0*) GOTO 0x0307
104: 0x02E9 [0x03] Work_Zone[1] = 2*
105: 0x02EE [0x1C] WAIT(30* ticks)
106: 0x02F1 [0x5B] LOAD_EXT_SCHEDULER: Load scheduler "hap0" with entities [EventEntity, EventEntity], work=843*
107: 0x0300 [0x1D] PRINT_EVENT_MESSAGE(message_id=10697*)
    → "I give this yooo. Now yooo visit friend to make clothings, okay? Yooo will have so happiness."
108: 0x0303 [0x23] WAIT_FOR_DIALOG_INTERACTION
109: 0x0304 [0x01] GOTO 0x0315
110: 0x0307 [0x02] IF !(Work_Zone[0] == 1*) GOTO 0x0315
111: 0x030F [0x01] GOTO 0x0202

SUBROUTINE_0315:
112: 0x0315 [0x01] GOTO 0x038C
113: 0x0318 [0x02] IF !(Work_Zone[0] == 3*) GOTO 0x038C
114: 0x0320 [0x03] Work_Zone[6] = 14522*
115: 0x0325 [0x93] DISPLAY_ITEM_INFO(item_id=Work_Zone[6])
116: 0x0328 [0x5B] LOAD_EXT_SCHEDULER: Load scheduler "tlk0" with entities [EventEntity, EventEntity], work=842*
117: 0x0337 [0x1D] PRINT_EVENT_MESSAGE(message_id=10696*)
    → "Nation where Leleroon have friend.t Place with castle inside of fooorest, yooo know?"
118: 0x033A [0x23] WAIT_FOR_DIALOG_INTERACTION
119: 0x033B [0x5B] LOAD_EXT_SCHEDULER: Load scheduler "tlk1" with entities [EventEntity, EventEntity], work=842*
120: 0x034A [0x93] DISPLAY_ITEM_INFO(item_id=0*)
121: 0x034D [0x24] CREATE_DIALOG(message_id=10693*, default_option=0*, option_flags=0*)
    → "Yooo really, really have want? [Yes, I really, really want!/When you put it that way...]"
122: 0x0354 [0x25] WAIT_DIALOG_SELECT()
123: 0x0355 [0x02] IF !(Work_Zone[0] == 0*) GOTO 0x037B
124: 0x035D [0x03] Work_Zone[1] = 3*
125: 0x0362 [0x1C] WAIT(30* ticks)
126: 0x0365 [0x5B] LOAD_EXT_SCHEDULER: Load scheduler "hap0" with entities [EventEntity, EventEntity], work=843*
127: 0x0374 [0x1D] PRINT_EVENT_MESSAGE(message_id=10697*)
    → "I give this yooo. Now yooo visit friend to make clothings, okay? Yooo will have so happiness."
128: 0x0377 [0x23] WAIT_FOR_DIALOG_INTERACTION
129: 0x0378 [0x01] GOTO 0x0389
130: 0x037B [0x02] IF !(Work_Zone[0] == 1*) GOTO 0x0389
131: 0x0383 [0x01] GOTO 0x0202

SUBROUTINE_0389:
132: 0x0389 [0x01] GOTO 0x038C

SUBROUTINE_038C:
133: 0x038C [0x1C] WAIT(90* ticks)
134: 0x038F [0x45] LOAD_SCHEDULED_TASK: Load scheduler "fdo1" with entities [EventEntity, EventEntity], work=[200*, 0*]
135: 0x03A0 [0x55] WAIT_LOAD_SCHEDULER: Wait for scheduler "fdo1" with entities [EventEntity, EventEntity], work=200*
136: 0x03AF [0x1C] WAIT(30* ticks)
137: 0x03B2 [0x52] END_LOAD_SCHEDULER: End scheduler "v004" with entities [LocalPlayer, LocalPlayer], work=283*
138: 0x03C1 [0x46] CAMERA_CONTROL: Restore default settings
139: 0x03C3 [0x45] LOAD_SCHEDULED_TASK: Load scheduler "fdi1" with entities [EventEntity, EventEntity], work=[200*, 0*]
140: 0x03D4 [0x21] END_EVENT
141: 0x03D5 [0x00] END_REQSTACK()
```

#### Data or dead code:

```
# Dead code (unreachable instructions):
     0x029E [0x01] GOTO 0x02A1
# Dead code (unreachable instructions):
     0x0312 [0x01] GOTO 0x0315
# Dead code (unreachable instructions):
     0x0386 [0x01] GOTO 0x0389
```

### Event 285

#### Metadata

| Field        | Value    |
|--------------|----------|
| Entrypoint   | 0x03D6   |
| Data Size    | 44 bytes |
| Instructions | 8        |

```
      00 01 02 03 04 05 06 07  08 09 0A 0B 0C 0D 0E 0F
      -- -- -- -- -- -- -- --  -- -- -- -- -- -- -- --
03D0:                   1E F0  FF FF 7F 5B 00 80 F8 FF        .....[....
03E0: FF 7F F8 FF FF 7F 74 6C  62 30 1D 1B 80 23 5B 00  ......tlb0...#[.
03F0: 80 F8 FF FF 7F F8 FF FF  7F 74 6C 62 31 1C 04 80  .........tlb1...
0400: 21 00                                             !.              
```

#### Opcodes

```
  0: 0x03D6 [0x1E] EventEntity looks at LocalPlayer and starts talking
  1: 0x03DB [0x5B] LOAD_EXT_SCHEDULER: Load scheduler "tlb0" with entities [EventEntity, EventEntity], work=843*
  2: 0x03EA [0x1D] PRINT_EVENT_MESSAGE(message_id=10694*)
    → "Nation where Leleroon have friend.t Place with big, hoooge trees, lots and many, yooo know?"
  3: 0x03ED [0x23] WAIT_FOR_DIALOG_INTERACTION
  4: 0x03EE [0x5B] LOAD_EXT_SCHEDULER: Load scheduler "tlb1" with entities [EventEntity, EventEntity], work=843*
  5: 0x03FD [0x1C] WAIT(30* ticks)
  6: 0x0400 [0x21] END_EVENT
  7: 0x0401 [0x00] END_REQSTACK()
```

### Event 286

#### Metadata

| Field        | Value    |
|--------------|----------|
| Entrypoint   | 0x0402   |
| Data Size    | 44 bytes |
| Instructions | 8        |

```
      00 01 02 03 04 05 06 07  08 09 0A 0B 0C 0D 0E 0F
      -- -- -- -- -- -- -- --  -- -- -- -- -- -- -- --
0400:       1E F0 FF FF 7F 5B  00 80 F8 FF FF 7F F8 FF    .....[........
0410: FF 7F 74 6C 62 30 1D 1F  80 23 5B 00 80 F8 FF FF  ..tlb0...#[.....
0420: 7F F8 FF FF 7F 74 6C 62  31 1C 04 80 21 00        .....tlb1...!.  
```

#### Opcodes

```
  0: 0x0402 [0x1E] EventEntity looks at LocalPlayer and starts talking
  1: 0x0407 [0x5B] LOAD_EXT_SCHEDULER: Load scheduler "tlb0" with entities [EventEntity, EventEntity], work=843*
  2: 0x0416 [0x1D] PRINT_EVENT_MESSAGE(message_id=10695*)
    → "Nation where Leleroon have friend.t Place where muscle peoples take rocks from inside of mountains, yooo know?"
  3: 0x0419 [0x23] WAIT_FOR_DIALOG_INTERACTION
  4: 0x041A [0x5B] LOAD_EXT_SCHEDULER: Load scheduler "tlb1" with entities [EventEntity, EventEntity], work=843*
  5: 0x0429 [0x1C] WAIT(30* ticks)
  6: 0x042C [0x21] END_EVENT
  7: 0x042D [0x00] END_REQSTACK()
```

### Event 287

#### Metadata

| Field        | Value    |
|--------------|----------|
| Entrypoint   | 0x042E   |
| Data Size    | 44 bytes |
| Instructions | 8        |

```
      00 01 02 03 04 05 06 07  08 09 0A 0B 0C 0D 0E 0F
      -- -- -- -- -- -- -- --  -- -- -- -- -- -- -- --
0420:                                            1E F0                ..
0430: FF FF 7F 5B 00 80 F8 FF  FF 7F F8 FF FF 7F 74 6C  ...[..........tl
0440: 62 30 1D 21 80 23 5B 00  80 F8 FF FF 7F F8 FF FF  b0.!.#[.........
0450: 7F 74 6C 62 31 1C 04 80  21 00                    .tlb1...!.      
```

#### Opcodes

```
  0: 0x042E [0x1E] EventEntity looks at LocalPlayer and starts talking
  1: 0x0433 [0x5B] LOAD_EXT_SCHEDULER: Load scheduler "tlb0" with entities [EventEntity, EventEntity], work=843*
  2: 0x0442 [0x1D] PRINT_EVENT_MESSAGE(message_id=10696*)
    → "Nation where Leleroon have friend.t Place with castle inside of fooorest, yooo know?"
  3: 0x0445 [0x23] WAIT_FOR_DIALOG_INTERACTION
  4: 0x0446 [0x5B] LOAD_EXT_SCHEDULER: Load scheduler "tlb1" with entities [EventEntity, EventEntity], work=843*
  5: 0x0455 [0x1C] WAIT(30* ticks)
  6: 0x0458 [0x21] END_EVENT
  7: 0x0459 [0x00] END_REQSTACK()
```

### Event 283

#### Metadata

| Field        | Value     |
|--------------|-----------|
| Entrypoint   | 0x045A    |
| Data Size    | 508 bytes |
| Instructions | 69        |

```
      00 01 02 03 04 05 06 07  08 09 0A 0B 0C 0D 0E 0F
      -- -- -- -- -- -- -- --  -- -- -- -- -- -- -- --
0450:                                42 45 05 80 F8 FF            BE....
0460: FF 7F F8 FF FF 7F 66 64  6F 31 06 80 55 05 80 F8  ......fdo1..U...
0470: FF FF 7F F8 FF FF 7F 66  64 6F 31 46 01 38 23 80  .......fdo1F.8#.
0480: 29 10 F0 FF FF 7F 17 92  01 37 50 03 01 80 F0 FF  )........7P.....
0490: FF 7F 1C 04 80 03 02 10  24 80 45 0B 80 F8 FF FF  ........$.E.....
04A0: 7F F8 FF FF 7F 76 30 30  35 06 80 45 05 80 F8 FF  .....v005..E....
04B0: FF 7F F8 FF FF 7F 66 64  69 31 06 80 1C 0C 80 5B  ......fdi1.....[
04C0: 00 80 F8 FF FF 7F F8 FF  FF 7F 74 6C 62 30 1D 25  ..........tlb0.%
04D0: 80 23 1C 0C 80 5B 00 80  F8 FF FF 7F F8 FF FF 7F  .#...[..........
04E0: 74 6C 62 31 1C 04 80 52  0B 80 F8 FF FF 7F F8 FF  tlb1...R........
04F0: FF 7F 76 30 30 35 45 0B  80 F8 FF FF 7F F8 FF FF  ..v005E.........
0500: 7F 76 30 30 36 06 80 1C  0C 80 5B 00 80 F8 FF FF  .v006.....[.....
0510: 7F F8 FF FF 7F 68 61 70  30 1D 26 80 23 52 0B 80  .....hap0.&.#R..
0520: F8 FF FF 7F F8 FF FF 7F  76 30 30 36 45 0B 80 F8  ........v006E...
0530: FF FF 7F F8 FF FF 7F 76  30 30 37 06 80 1C 22 80  .......v007...".
0540: 5B 0D 80 F8 FF FF 7F F8  FF FF 7F 74 68 6B 30 1C  [..........thk0.
0550: 0C 80 1D 27 80 23 1D 28  80 23 1C 0C 80 52 0B 80  ...'.#.(.#...R..
0560: F8 FF FF 7F F8 FF FF 7F  76 30 30 37 45 0B 80 F8  ........v007E...
0570: FF FF 7F F8 FF FF 7F 76  30 30 38 06 80 1C 0C 80  .......v008.....
0580: 1D 29 80 23 1C 04 80 5B  0D 80 F8 FF FF 7F F8 FF  .).#...[........
0590: FF 7F 74 68 6B 31 1C 0C  80 1D 2A 80 23 5B 00 80  ..thk1....*.#[..
05A0: F8 FF FF 7F F8 FF FF 7F  74 6C 62 30 1D 2B 80 23  ........tlb0.+.#
05B0: 5B 00 80 F8 FF FF 7F F8  FF FF 7F 74 6C 62 31 1C  [..........tlb1.
05C0: 0C 80 52 0B 80 F8 FF FF  7F F8 FF FF 7F 76 30 30  ..R..........v00
05D0: 38 45 0B 80 F8 FF FF 7F  F8 FF FF 7F 76 30 30 39  8E..........v009
05E0: 06 80 5B 00 80 F8 FF FF  7F F8 FF FF 7F 74 6C 62  ..[..........tlb
05F0: 30 1D 2C 80 23 1D 2D 80  23 1D 2E 80 23 5B 00 80  0.,.#.-.#...#[..
0600: F8 FF FF 7F F8 FF FF 7F  74 6C 62 31 1C 0C 80 45  ........tlb1...E
0610: 05 80 F8 FF FF 7F F8 FF  FF 7F 66 64 6F 31 06 80  ..........fdo1..
0620: 55 05 80 F8 FF FF 7F F8  FF FF 7F 66 64 6F 31 1C  U..........fdo1.
0630: 04 80 52 0B 80 F0 FF FF  7F F0 FF FF 7F 76 30 30  ..R..........v00
0640: 39 46 00 45 05 80 F8 FF  FF 7F F8 FF FF 7F 66 64  9F.E..........fd
0650: 69 31 06 80 21 00                                 i1..!.          
```

#### Opcodes

```
  0: 0x045A [0x42] SET_CLI_EVENT_CANCEL_DATA()
  1: 0x045B [0x45] LOAD_SCHEDULED_TASK: Load scheduler "fdo1" with entities [EventEntity, EventEntity], work=[200*, 0*]
  2: 0x046C [0x55] WAIT_LOAD_SCHEDULER: Wait for scheduler "fdo1" with entities [EventEntity, EventEntity], work=200*
  3: 0x047B [0x46] CAMERA_CONTROL: Disable user control
  4: 0x047D [0x38] SET_CLIENT_EVENT_MODE(mode=19*)
  5: 0x0480 [0x29] REQ_SET_WAIT(priority=0x10, entity_id=LocalPlayer, tag_num=0x17)
  6: 0x0487 [0x92] Leleroon (ID: 16994359/0x01035037)->Render.Flags3 ^= 0x01
  7: 0x048D [0x80] LOAD_WAIT(entity=LocalPlayer)
  8: 0x0492 [0x1C] WAIT(30* ticks)
  9: 0x0495 [0x03] Work_Zone[2] = 2341*
 10: 0x049A [0x45] LOAD_SCHEDULED_TASK: Load scheduler "v005" with entities [EventEntity, EventEntity], work=[283*, 0*]
 11: 0x04AB [0x45] LOAD_SCHEDULED_TASK: Load scheduler "fdi1" with entities [EventEntity, EventEntity], work=[200*, 0*]
 12: 0x04BC [0x1C] WAIT(60* ticks)
 13: 0x04BF [0x5B] LOAD_EXT_SCHEDULER: Load scheduler "tlb0" with entities [EventEntity, EventEntity], work=843*
 14: 0x04CE [0x1D] PRINT_EVENT_MESSAGE(message_id=10698*)
    → "Network, network.t Not Qiqirn network...no no nooo. This one own by only Seagoool crooo!"
 15: 0x04D1 [0x23] WAIT_FOR_DIALOG_INTERACTION
 16: 0x04D2 [0x1C] WAIT(60* ticks)
 17: 0x04D5 [0x5B] LOAD_EXT_SCHEDULER: Load scheduler "tlb1" with entities [EventEntity, EventEntity], work=843*
 18: 0x04E4 [0x1C] WAIT(30* ticks)
 19: 0x04E7 [0x52] END_LOAD_SCHEDULER: End scheduler "v005" with entities [EventEntity, EventEntity], work=283*
 20: 0x04F6 [0x45] LOAD_SCHEDULED_TASK: Load scheduler "v006" with entities [EventEntity, EventEntity], work=[283*, 0*]
 21: 0x0507 [0x1C] WAIT(60* ticks)
 22: 0x050A [0x5B] LOAD_EXT_SCHEDULER: Load scheduler "hap0" with entities [EventEntity, EventEntity], work=843*
 23: 0x0519 [0x1D] PRINT_EVENT_MESSAGE(message_id=10699*)
    → "Oh, yooo Seagoool crooo! Leleroon hear from Zweeha lady, yooo know? About hydrooo cage.t Leleroon have want to see!"
 24: 0x051C [0x23] WAIT_FOR_DIALOG_INTERACTION
 25: 0x051D [0x52] END_LOAD_SCHEDULER: End scheduler "v006" with entities [EventEntity, EventEntity], work=283*
 26: 0x052C [0x45] LOAD_SCHEDULED_TASK: Load scheduler "v007" with entities [EventEntity, EventEntity], work=[283*, 0*]
 27: 0x053D [0x1C] WAIT(90* ticks)
 28: 0x0540 [0x5B] LOAD_EXT_SCHEDULER: Load scheduler "thk0" with entities [EventEntity, EventEntity], work=842*
 29: 0x054F [0x1C] WAIT(60* ticks)
 30: 0x0552 [0x1D] PRINT_EVENT_MESSAGE(message_id=10700*)
    → "Oh...ohhh? What can be...?"
 31: 0x0555 [0x23] WAIT_FOR_DIALOG_INTERACTION
 32: 0x0556 [0x1D] PRINT_EVENT_MESSAGE(message_id=10701*)
    → "This, this...what? How can be? Hooo?"
 33: 0x0559 [0x23] WAIT_FOR_DIALOG_INTERACTION
 34: 0x055A [0x1C] WAIT(60* ticks)
 35: 0x055D [0x52] END_LOAD_SCHEDULER: End scheduler "v007" with entities [EventEntity, EventEntity], work=283*
 36: 0x056C [0x45] LOAD_SCHEDULED_TASK: Load scheduler "v008" with entities [EventEntity, EventEntity], work=[283*, 0*]
 37: 0x057D [0x1C] WAIT(60* ticks)
 38: 0x0580 [0x1D] PRINT_EVENT_MESSAGE(message_id=10702*)
    → "Weird thing, yooo know?"
 39: 0x0583 [0x23] WAIT_FOR_DIALOG_INTERACTION
 40: 0x0584 [0x1C] WAIT(30* ticks)
 41: 0x0587 [0x5B] LOAD_EXT_SCHEDULER: Load scheduler "thk1" with entities [EventEntity, EventEntity], work=842*
 42: 0x0596 [0x1C] WAIT(60* ticks)
 43: 0x0599 [0x1D] PRINT_EVENT_MESSAGE(message_id=10703*)
    → "It no smell like hydrooo cage... and no tick tock! This cage no good, no nooo."
 44: 0x059C [0x23] WAIT_FOR_DIALOG_INTERACTION
 45: 0x059D [0x5B] LOAD_EXT_SCHEDULER: Load scheduler "tlb0" with entities [EventEntity, EventEntity], work=843*
 46: 0x05AC [0x1D] PRINT_EVENT_MESSAGE(message_id=10704*)
    → "Real one go tick tock tick tock! It make yooo know mountain and valley in sea, yooo know?"
 47: 0x05AF [0x23] WAIT_FOR_DIALOG_INTERACTION
 48: 0x05B0 [0x5B] LOAD_EXT_SCHEDULER: Load scheduler "tlb1" with entities [EventEntity, EventEntity], work=843*
 49: 0x05BF [0x1C] WAIT(60* ticks)
 50: 0x05C2 [0x52] END_LOAD_SCHEDULER: End scheduler "v008" with entities [EventEntity, EventEntity], work=283*
 51: 0x05D1 [0x45] LOAD_SCHEDULED_TASK: Load scheduler "v009" with entities [EventEntity, EventEntity], work=[283*, 0*]
 52: 0x05E2 [0x5B] LOAD_EXT_SCHEDULER: Load scheduler "tlb0" with entities [EventEntity, EventEntity], work=843*
 53: 0x05F1 [0x1D] PRINT_EVENT_MESSAGE(message_id=10705*)
    → "No no, this hydrooo cage nooo good. But yooo can "charge"? Yes...charge...somewhere shiny? Charge for tick tock!"
 54: 0x05F4 [0x23] WAIT_FOR_DIALOG_INTERACTION
 55: 0x05F5 [0x1D] PRINT_EVENT_MESSAGE(message_id=10706*)
    → "Leleroon have goood place for yooo. Tree place! Jajooomie Woodland, yooo know? Leleroon only tell to Seagoool crooo!"
 56: 0x05F8 [0x23] WAIT_FOR_DIALOG_INTERACTION
 57: 0x05F9 [0x1D] PRINT_EVENT_MESSAGE(message_id=10707*)
    → "When it charge, yooo go get, okay? Then everyone much happiness!"
 58: 0x05FC [0x23] WAIT_FOR_DIALOG_INTERACTION
 59: 0x05FD [0x5B] LOAD_EXT_SCHEDULER: Load scheduler "tlb1" with entities [EventEntity, EventEntity], work=843*
 60: 0x060C [0x1C] WAIT(60* ticks)
 61: 0x060F [0x45] LOAD_SCHEDULED_TASK: Load scheduler "fdo1" with entities [EventEntity, EventEntity], work=[200*, 0*]
 62: 0x0620 [0x55] WAIT_LOAD_SCHEDULER: Wait for scheduler "fdo1" with entities [EventEntity, EventEntity], work=200*
 63: 0x062F [0x1C] WAIT(30* ticks)
 64: 0x0632 [0x52] END_LOAD_SCHEDULER: End scheduler "v009" with entities [LocalPlayer, LocalPlayer], work=283*
 65: 0x0641 [0x46] CAMERA_CONTROL: Restore default settings
 66: 0x0643 [0x45] LOAD_SCHEDULED_TASK: Load scheduler "fdi1" with entities [EventEntity, EventEntity], work=[200*, 0*]
 67: 0x0654 [0x21] END_EVENT
 68: 0x0655 [0x00] END_REQSTACK()
```

### Event 292

#### Metadata

| Field        | Value    |
|--------------|----------|
| Entrypoint   | 0x0656   |
| Data Size    | 52 bytes |
| Instructions | 12       |

```
      00 01 02 03 04 05 06 07  08 09 0A 0B 0C 0D 0E 0F
      -- -- -- -- -- -- -- --  -- -- -- -- -- -- -- --
0650:                   1E F0  FF FF 7F 5B 00 80 F8 FF        .....[....
0660: FF 7F F8 FF FF 7F 74 6C  62 30 1D 2F 80 23 1D 30  ......tlb0./.#.0
0670: 80 23 1D 31 80 23 5B 00  80 F8 FF FF 7F F8 FF FF  .#.1.#[.........
0680: 7F 74 6C 62 31 1C 04 80  21 00                    .tlb1...!.      
```

#### Opcodes

```
  0: 0x0656 [0x1E] EventEntity looks at LocalPlayer and starts talking
  1: 0x065B [0x5B] LOAD_EXT_SCHEDULER: Load scheduler "tlb0" with entities [EventEntity, EventEntity], work=843*
  2: 0x066A [0x1D] PRINT_EVENT_MESSAGE(message_id=10708*)
    → "No goood, nooo hydrooo cage! Charge! Charge! At shiny place! Then tick tock, yooo know?"
  3: 0x066D [0x23] WAIT_FOR_DIALOG_INTERACTION
  4: 0x066E [0x1D] PRINT_EVENT_MESSAGE(message_id=10709*)
    → "Leleroon think Jajooomie Woodland? Jajajooom! Only tell Jajajooomie to Seagoool crooo!"
  5: 0x0671 [0x23] WAIT_FOR_DIALOG_INTERACTION
  6: 0x0672 [0x1D] PRINT_EVENT_MESSAGE(message_id=10710*)
    → "When charge done, yooo get, okay? Then Leleroon know everyone so happiness!"
  7: 0x0675 [0x23] WAIT_FOR_DIALOG_INTERACTION
  8: 0x0676 [0x5B] LOAD_EXT_SCHEDULER: Load scheduler "tlb1" with entities [EventEntity, EventEntity], work=843*
  9: 0x0685 [0x1C] WAIT(30* ticks)
 10: 0x0688 [0x21] END_EVENT
 11: 0x0689 [0x00] END_REQSTACK()
```

### Event 277

#### Metadata

| Field        | Value   |
|--------------|---------|
| Entrypoint   | 0x068A  |
| Data Size    | 7 bytes |
| Instructions | 2       |

```
      00 01 02 03 04 05 06 07  08 09 0A 0B 0C 0D 0E 0F
      -- -- -- -- -- -- -- --  -- -- -- -- -- -- -- --
0680:                                92 01 F8 FF FF 7F            ......
0690: 00                                                .               
```

#### Opcodes

```
  0: 0x068A [0x92] EventEntity->Render.Flags3 ^= 0x01
  1: 0x0690 [0x00] END_REQSTACK()
```

### Event 294

#### Metadata

| Field        | Value    |
|--------------|----------|
| Entrypoint   | 0x0691   |
| Data Size    | 10 bytes |
| Instructions | 2        |

```
      00 01 02 03 04 05 06 07  08 09 0A 0B 0C 0D 0E 0F
      -- -- -- -- -- -- -- --  -- -- -- -- -- -- -- --
0690:    37 32 80 33 80 34 80  35 80 00                  72.3.4.5..     
```

#### Opcodes

```
  0: 0x0691 [0x37] UPDATE_EVENT_POSITION_AND_DIR: x=15.035*, z=78.975*, y=-5.999*, direction=14.2°*
  1: 0x069A [0x00] END_REQSTACK()
```

### Event 65535.1

#### Metadata

| Field        | Value    |
|--------------|----------|
| Entrypoint   | 0x069B   |
| Data Size    | 14 bytes |
| Instructions | 4        |

```
      00 01 02 03 04 05 06 07  08 09 0A 0B 0C 0D 0E 0F
      -- -- -- -- -- -- -- --  -- -- -- -- -- -- -- --
0690:                                   32 36 80 1F 00             26...
06A0: 37 80 38 80 34 80 1F 01  00                       7.8.4....       
```

#### Opcodes

```
  0: 0x069B [0x32] ExtData[1]->MainSpeed = 40* * 0.1
  1: 0x069E [0x1F] MOVE_ENTITY: EventEntity moves to X=18.097*, Z=68.790*, Y=-5.999*
  2: 0x06A6 [0x1F] MOVE_ENTITY: Update entity position (mode=1)
  3: 0x06A8 [0x00] END_REQSTACK()
```

### Event 65535.2

#### Metadata

| Field        | Value    |
|--------------|----------|
| Entrypoint   | 0x06A9   |
| Data Size    | 14 bytes |
| Instructions | 4        |

```
      00 01 02 03 04 05 06 07  08 09 0A 0B 0C 0D 0E 0F
      -- -- -- -- -- -- -- --  -- -- -- -- -- -- -- --
06A0:                             32 36 80 1F 00 39 80           26...9.
06B0: 3A 80 34 80 1F 01 00                              :.4....         
```

#### Opcodes

```
  0: 0x06A9 [0x32] ExtData[1]->MainSpeed = 40* * 0.1
  1: 0x06AC [0x1F] MOVE_ENTITY: EventEntity moves to X=15.170*, Z=77.796*, Y=-5.999*
  2: 0x06B4 [0x1F] MOVE_ENTITY: Update entity position (mode=1)
  3: 0x06B6 [0x00] END_REQSTACK()
```

### Event 311

#### Metadata

| Field        | Value   |
|--------------|---------|
| Entrypoint   | 0x06B7  |
| Data Size    | 1 bytes |
| Instructions | 1       |

```
      00 01 02 03 04 05 06 07  08 09 0A 0B 0C 0D 0E 0F
      -- -- -- -- -- -- -- --  -- -- -- -- -- -- -- --
06B0:                      00                                  .        
```

#### Opcodes

```
  0: 0x06B7 [0x00] END_REQSTACK()
```

### Event 312

#### Metadata

| Field        | Value   |
|--------------|---------|
| Entrypoint   | 0x06B8  |
| Data Size    | 1 bytes |
| Instructions | 1       |

```
      00 01 02 03 04 05 06 07  08 09 0A 0B 0C 0D 0E 0F
      -- -- -- -- -- -- -- --  -- -- -- -- -- -- -- --
06B0:                          00                               .       
```

#### Opcodes

```
  0: 0x06B8 [0x00] END_REQSTACK()
```
