# 16994427 - Halshaob

## Common Data

| Field            | Value            |
|------------------|------------------|
| Zone             | Nashmau (ID: 53) |
| Block Size       | 1800 bytes       |
| Total Events     | 7                |
| References Count | 80               |

## List of Events

| Event ID                 | Entrypoint   |   Size |   Instructions |
|--------------------------|--------------|--------|----------------|
| [65535](#event-65535)    | 0x0000       |      1 |              1 |
| [299](#event-299)        | 0x0001       |     15 |              7 |
| [300](#event-300)        | 0x0010       |   1211 |            183 |
| [301](#event-301)        | 0x04CB       |    174 |             47 |
| [302](#event-302)        | 0x0579       |     20 |             10 |
| [65535.1](#event-655351) | 0x058D       |      4 |              2 |
| [65535.2](#event-655352) | 0x0591       |     11 |              3 |

## DAT References (imed_data)

|   Index | Hex Value   |   Dec Value |
|---------|-------------|-------------|
|       0 | 0x2BE0      |       11232 |
|       1 | 0x2BE1      |       11233 |
|       2 | 0x0023      |          35 |
|       3 | 0x0000      |           0 |
|       4 | 0x00C8      |         200 |
|       5 | 0x0013      |          19 |
|       6 | 0x6C2D      |       27693 |
|       7 | 0xFFFEBB6C  |  4294884204 |
|       8 | 0xFFFFE891  |  4294961297 |
|       9 | 0x030E      |         782 |
|      10 | 0x2BE2      |       11234 |
|      11 | 0x001E      |          30 |
|      12 | 0x2BE3      |       11235 |
|      13 | 0x2BE4      |       11236 |
|      14 | 0x0019      |          25 |
|      15 | 0x2BE5      |       11237 |
|      16 | 0x0009      |           9 |
|      17 | 0x2BE6      |       11238 |
|      18 | 0x2BE7      |       11239 |
|      19 | 0x2BE8      |       11240 |
|      20 | 0x07C0      |        1984 |
|      21 | 0x2BE9      |       11241 |
|      22 | 0x0064      |         100 |
|      23 | 0x001A      |          26 |
|      24 | 0x2BEA      |       11242 |
|      25 | 0x0568      |        1384 |
|      26 | 0x03E8      |        1000 |
|      27 | 0x0016      |          22 |
|      28 | 0x0096      |         150 |
|      29 | 0x2BEB      |       11243 |
|      30 | 0x2BEC      |       11244 |
|      31 | 0x2BED      |       11245 |
|      32 | 0x2BEE      |       11246 |
|      33 | 0x2BEF      |       11247 |
|      34 | 0x2BF0      |       11248 |
|      35 | 0x0078      |         120 |
|      36 | 0x2BF1      |       11249 |
|      37 | 0x000A      |          10 |
|      38 | 0x6EE7      |       28391 |
|      39 | 0xFFFEB741  |  4294883137 |
|      40 | 0x2BF2      |       11250 |
|      41 | 0x2BF3      |       11251 |
|      42 | 0x2BF4      |       11252 |
|      43 | 0x2BF5      |       11253 |
|      44 | 0x0001      |           1 |
|      45 | 0x2BF6      |       11254 |
|      46 | 0x2BF7      |       11255 |
|      47 | 0x2BF8      |       11256 |
|      48 | 0x2BFA      |       11258 |
|      49 | 0x2BFB      |       11259 |
|      50 | 0x2BFC      |       11260 |
|      51 | 0x2BFD      |       11261 |
|      52 | 0x2BFE      |       11262 |
|      53 | 0x2BFF      |       11263 |
|      54 | 0x2C00      |       11264 |
|      55 | 0x2C01      |       11265 |
|      56 | 0x0008      |           8 |
|      57 | 0x2C02      |       11266 |
|      58 | 0x2C10      |       11280 |
|      59 | 0x2C03      |       11267 |
|      60 | 0x2C04      |       11268 |
|      61 | 0x0888      |        2184 |
|      62 | 0x0003      |           3 |
|      63 | 0x2C05      |       11269 |
|      64 | 0x0002      |           2 |
|      65 | 0x0889      |        2185 |
|      66 | 0x2C06      |       11270 |
|      67 | 0x088A      |        2186 |
|      68 | 0x2C07      |       11271 |
|      69 | 0x2C0F      |       11279 |
|      70 | 0x2C08      |       11272 |
|      71 | 0x2C09      |       11273 |
|      72 | 0x2C0A      |       11274 |
|      73 | 0x2C0B      |       11275 |
|      74 | 0x2C0C      |       11276 |
|      75 | 0x2C0D      |       11277 |
|      76 | 0x0082      |         130 |
|      77 | 0x6F79      |       28537 |
|      78 | 0xFFFEB2FE  |  4294882046 |
|      79 | 0xFFFFE890  |  4294961296 |

## String References

- **11232**: <Sigh>. This assignment'll be the end o' me. Maybe I can grab a short nap over here...
- **11233**: Hey! What're you lookin' at!? You try rattin' me out for dereliction o' duty an' I'll tear yer arms outta their sockets!
- **11234**: This assignment'll be the end o' me. Maybe I can unload it onto some other unsuspectin'...
- **11235**: Whaddya want? Hm? Now where have I seen...?
- **11236**: Hey, aren't you that mercenary who investigated the ghost ship?
- **11237**: I oughta pound yer head into the wall for bringin' this awful assignment down on an honest soldier's head!
- **11238**: Huh? You got no idea what I'm talking about? Great Walahra's whiskers...
- **11239**: You have the honor o' speaking to General Halshaob, awe-inspirin' commander o' the Maelstrom Company.
- **11240**: The army is still buzzin' about the Empress givin' an audience to some simple mercenary grunt. They say you even got a special reward for yer meddlin'.
- **11241**: In any case, whatever you reported has the Empress all worked up about dead corsairs an' pirate ships.
- **11242**: So now they're investin' military resources into further investigation. Namely, me an' me troops.
- **11243**: Now do you get why I'm so eager to inflict bodily harm upon yer person?
- **11244**: (Hang on a bit... This might be a stroke o' luck...)
- **11245**: You see, we've been ordered to clear out those walkin' corsair corpses and search the bowels of that ghost ship.
- **11246**: If we find anythin' that might be used against the Empire, we're s'posed to destroy it.
- **11247**: All that's turned up so far is a pile o' gold and silver, and other bits and trinkets.
- **11248**: I guess they're afraid that somethin' else potentially...embarrassin'...is mixed in with all that treasure.
- **11249**: Hm? What's this now?
- **11250**: All this talk o' treasure finally get yer attention?
- **11251**: Got your attention? [Indeed you do./Not interested.]
- **11252**: Gwahahaha! What else would you expect from a mercenary!?
- **11253**: (Now to reel [him/her] in...)
- **11254**: Is that right...?
- **11255**: Salaheem's Sentinels treats you well enough, is that it?
- **11256**: Do I look like a clueless foreigner to you? Everyone around here knows Naja's reputation.
- **11258**: (This one's a tough nut to crack. Let's give 'em one more shot...)
- **11259**: If you're interested in our assignment, I'd be happy to cut you in on the action.
- **11260**: Sure, you'll be flyin' in the face o' danger, but no risk means no reward, right?
- **11261**: The thing is, I'll have to pull some strings so me superiors'll let a mercenary take the place o' the Maelstrom Company. That'll take greasin' some palms, if you know what I mean.
- **11262**: You do know what I mean, don't you? Mo-ney. That's right, the shiny stuff you keep in yer purse.
- **11263**: The amount'll depend on the type o' mission you decide to undertake.
- **11264**: I won't bore you with the details until you're absolutely sure.
- **11265**: I'll be here when you make up yer mind.
- **11266**: I knew you'd show up again. Let's get down to business.
- **11267**: Here's a list of missions I can let you in on.
- **11268**: Which do you ask about? [None./Scouting the Ashu Talif./Royal Painter Escort./Targeting the Captain.]
- **11269**: Scouting the Ashu Talif Objective: Defeat the Ashu Talif crew Recruitment: 1-6 mercenaries
- **11270**: Royal Painter Escort Objective: Escort the Royal Painter Recruitment: 1-6 mercenaries
- **11271**: Targeting the Captain Objective: Eliminate the captain Recruitment: 1-6 mercenaries
- **11272**: I'm gonna need $2 $0$0 fer that mission.
- **11273**: Anything else you wanna ask about?
- **11274**: If you wanna keep yer head on yer shoulders, you'll keep these transactions to yerself. On yer way.
- **11275**: Right, so I'm takin' yer $1 $0 in exchange fer lettin' you take on "$2."
- **11276**: Make yer way to the cutter docked on the west side of Dvucca Isle. I'll make arrangements for yer passage.
- **11277**: The honor o' the Maelstrom Company rests on yer shoulders. Don't make me hunt you down.
- **11279**: You're already on that mission, you melon-headed mercenary! Probably forget yer head if it weren't stuck to yer shoulders...
- **11280**: I don't have any other missions fer you right now. Anything else you want to ask about?

## Events

### Event 65535

#### Metadata

| Field        | Value   |
|--------------|---------|
| Entrypoint   | 0x0000  |
| Data Size    | 1 bytes |
| Instructions | 1       |

```
      00 01 02 03 04 05 06 07  08 09 0A 0B 0C 0D 0E 0F
      -- -- -- -- -- -- -- --  -- -- -- -- -- -- -- --
0000: 00                                                .               
```

#### Opcodes

```
  0: 0x0000 [0x00] END_REQSTACK()
```

### Event 299

#### Metadata

| Field        | Value    |
|--------------|----------|
| Entrypoint   | 0x0001   |
| Data Size    | 15 bytes |
| Instructions | 7        |

```
      00 01 02 03 04 05 06 07  08 09 0A 0B 0C 0D 0E 0F
      -- -- -- -- -- -- -- --  -- -- -- -- -- -- -- --
0000:    1D 00 80 23 1E F0 FF  FF 7F 1D 01 80 23 21 00   ...#........#!.
```

#### Opcodes

```
  0: 0x0001 [0x1D] PRINT_EVENT_MESSAGE(message_id=11232*)
    → "<Sigh>. This assignment'll be the end o' me. Maybe I can grab a short nap over here..."
  1: 0x0004 [0x23] WAIT_FOR_DIALOG_INTERACTION
  2: 0x0005 [0x1E] EventEntity looks at LocalPlayer and starts talking
  3: 0x000A [0x1D] PRINT_EVENT_MESSAGE(message_id=11233*)
    → "Hey! What're you lookin' at!? You try rattin' me out for dereliction o' duty an' I'll tear yer arms outta their sockets!"
  4: 0x000D [0x23] WAIT_FOR_DIALOG_INTERACTION
  5: 0x000E [0x21] END_EVENT
  6: 0x000F [0x00] END_REQSTACK()
```

### Event 300

#### Metadata

| Field        | Value      |
|--------------|------------|
| Entrypoint   | 0x0010     |
| Data Size    | 1211 bytes |
| Instructions | 183        |

```
      00 01 02 03 04 05 06 07  08 09 0A 0B 0C 0D 0E 0F
      -- -- -- -- -- -- -- --  -- -- -- -- -- -- -- --
0010: 42 45 02 80 F8 FF FF 7F  F8 FF FF 7F 74 65 73 74  BE..........test
0020: 03 80 45 04 80 F8 FF FF  7F F8 FF FF 7F 66 64 6F  ..E..........fdo
0030: 31 03 80 55 04 80 F8 FF  FF 7F F8 FF FF 7F 66 64  1..U..........fd
0040: 6F 31 46 01 38 05 80 92  01 F8 FF FF 7F BA F0 FF  o1F.8...........
0050: FF 7F 06 80 07 80 08 80  09 80 45 02 80 F8 FF FF  ..........E.....
0060: 7F F8 FF FF 7F 61 73 30  30 03 80 45 04 80 F8 FF  .....as00..E....
0070: FF 7F F8 FF FF 7F 66 64  69 31 03 80 55 04 80 F8  ......fdi1..U...
0080: FF FF 7F F8 FF FF 7F 66  64 69 31 1D 0A 80 23 1C  .......fdi1...#.
0090: 0B 80 59 02 04 80 79 00  7B 50 03 01 F0 FF FF 7F  ..Y...y.{P......
00A0: 1D 0C 80 23 1C 0B 80 52  02 80 F8 FF FF 7F F8 FF  ...#...R........
00B0: FF 7F 61 73 30 30 45 02  80 F8 FF FF 7F F8 FF FF  ..as00E.........
00C0: 7F 61 73 30 31 03 80 1E  F0 FF FF 7F 1D 0D 80 23  .as01..........#
00D0: 6E F8 FF FF 7F 0E 80 99  F8 FF FF 7F 27 0A 7B 50  n...........'.{P
00E0: 03 01 05 1D 0F 80 23 2A  0A 7B 50 03 01 66 10 80  ......#*.{P..f..
00F0: F8 FF FF 7F F8 FF FF 7F  74 77 61 30 1D 11 80 23  ........twa0...#
0100: 52 02 80 F8 FF FF 7F F8  FF FF 7F 61 73 30 31 45  R..........as01E
0110: 02 80 F8 FF FF 7F F8 FF  FF 7F 61 73 30 32 03 80  ..........as02..
0120: 1D 12 80 23 1D 13 80 23  66 10 80 F8 FF FF 7F F8  ...#...#f.......
0130: FF FF 7F 74 77 61 31 52  02 80 F8 FF FF 7F F8 FF  ...twa1R........
0140: FF 7F 61 73 30 32 45 02  80 F8 FF FF 7F F8 FF FF  ..as02E.........
0150: 7F 61 73 30 31 03 80 53  F8 FF FF 7F F8 FF FF 7F  .as01..S........
0160: 74 77 61 31 39 14 80 6F  70 1D 15 80 23 59 02 16  twa19..op...#Y..
0170: 80 7B F8 FF FF 7F 6F 70  6E F8 FF FF 7F 17 80 99  .{....opn.......
0180: F8 FF FF 7F 27 0A 7B 50  03 01 05 1D 18 80 23 2A  ....'.{P......#*
0190: 0A 7B 50 03 01 52 02 80  F8 FF FF 7F F8 FF FF 7F  .{P..R..........
01A0: 61 73 30 31 45 02 80 F8  FF FF 7F F8 FF FF 7F 61  as01E..........a
01B0: 73 30 33 03 80 39 19 80  1C 0B 80 59 02 04 80 79  s03..9.....Y...y
01C0: 02 F8 FF FF 7F 1A 80 03  80 6E F8 FF FF 7F 1B 80  .........n......
01D0: 99 F8 FF FF 7F 1C 1C 80  7B F8 FF FF 7F 1C 0B 80  ........{.......
01E0: 59 00 16 80 1E F0 FF FF  7F 1C 0B 80 1D 1D 80 23  Y..............#
01F0: 79 02 F8 FF FF 7F 03 80  03 80 39 14 80 6F 70 66  y.........9..opf
0200: 10 80 F8 FF FF 7F F8 FF  FF 7F 74 68 6B 31 7C 00  ..........thk1|.
0210: F8 FF FF 7F 1D 1E 80 23  7C 01 F8 FF FF 7F 45 02  .......#|.....E.
0220: 80 F8 FF FF 7F F8 FF FF  7F 61 73 30 34 03 80 66  .........as04..f
0230: 10 80 F8 FF FF 7F F8 FF  FF 7F 74 68 6B 32 53 F8  ..........thk2S.
0240: FF FF 7F F8 FF FF 7F 74  68 6B 32 79 00 7B 50 03  .......thk2y.{P.
0250: 01 F0 FF FF 7F 66 10 80  F8 FF FF 7F F8 FF FF 7F  .....f..........
0260: 74 77 61 30 1D 1F 80 23  1D 20 80 23 7B F8 FF FF  twa0...#. .#{...
0270: 7F 66 10 80 F8 FF FF 7F  F8 FF FF 7F 74 77 61 31  .f..........twa1
0280: 1D 21 80 23 1D 22 80 23  59 02 04 80 79 00 7B 50  .!.#.".#Y...y.{P
0290: 03 01 F0 FF FF 7F 1C 23  80 52 02 80 F8 FF FF 7F  .......#.R......
02A0: F8 FF FF 7F 61 73 30 34  45 02 80 F8 FF FF 7F F8  ....as04E.......
02B0: FF FF 7F 61 73 30 35 03  80 1E F0 FF FF 7F 1D 24  ...as05........$
02C0: 80 23 45 02 80 F8 FF FF  7F F8 FF FF 7F 61 73 30  .#E..........as0
02D0: 36 03 80 32 25 80 1F 00  26 80 27 80 08 80 1F 01  6..2%...&.'.....
02E0: 1D 28 80 23 24 29 80 03  80 03 80 25 02 00 10 03  .(.#$).....%....
02F0: 80 00 4B 03 52 02 80 F8  FF FF 7F F8 FF FF 7F 61  ..K.R..........a
0300: 73 30 36 45 02 80 F8 FF  FF 7F F8 FF FF 7F 61 73  s06E..........as
0310: 30 37 03 80 1D 2A 80 23  7C 00 F8 FF FF 7F 1D 2B  07...*.#|......+
0320: 80 23 7C 01 F8 FF FF 7F  52 02 80 F8 FF FF 7F F8  .#|.....R.......
0330: FF FF 7F 61 73 30 37 45  02 80 F8 FF FF 7F F8 FF  ...as07E........
0340: FF 7F 61 73 30 38 03 80  01 CB 03 02 00 10 2C 80  ..as08........,.
0350: 00 CB 03 52 02 80 F8 FF  FF 7F F8 FF FF 7F 61 73  ...R..........as
0360: 30 36 45 02 80 F8 FF FF  7F F8 FF FF 7F 61 73 30  06E..........as0
0370: 37 03 80 1D 2D 80 23 6E  F8 FF FF 7F 1B 80 99 F8  7...-.#n........
0380: FF FF 7F 27 0A 7B 50 03  01 05 1D 2E 80 23 1D 2F  ...'.{P......#./
0390: 80 23 52 02 80 F8 FF FF  7F F8 FF FF 7F 61 73 30  .#R..........as0
03A0: 37 45 02 80 F8 FF FF 7F  F8 FF FF 7F 61 73 30 38  7E..........as08
03B0: 03 80 7C 00 F8 FF FF 7F  1D 30 80 23 7C 01 F8 FF  ..|......0.#|...
03C0: FF 7F 2A 0A F8 FF FF 7F  01 CB 03 1D 31 80 23 6E  ..*.........1.#n
03D0: F8 FF FF 7F 1B 80 99 F8  FF FF 7F 27 0A 7B 50 03  ...........'.{P.
03E0: 01 05 1D 32 80 23 2A 0A  F8 FF FF 7F 1D 33 80 23  ...2.#*......3.#
03F0: 52 02 80 F8 FF FF 7F F8  FF FF 7F 61 73 30 38 45  R..........as08E
0400: 02 80 F8 FF FF 7F F8 FF  FF 7F 61 73 30 39 03 80  ..........as09..
0410: 1D 34 80 23 1D 35 80 23  52 02 80 F8 FF FF 7F F8  .4.#.5.#R.......
0420: FF FF 7F 61 73 30 39 45  02 80 F8 FF FF 7F F8 FF  ...as09E........
0430: FF 7F 61 73 31 30 03 80  66 10 80 F8 FF FF 7F F8  ..as10..f.......
0440: FF FF 7F 74 77 61 30 1D  36 80 23 66 10 80 F8 FF  ...twa0.6.#f....
0450: FF 7F F8 FF FF 7F 74 77  61 31 53 F8 FF FF 7F F8  ......twa1S.....
0460: FF FF 7F 74 77 61 31 27  0A 7B 50 03 01 06 1D 37  ...twa1'.{P....7
0470: 80 23 2A 0A 7B 50 03 01  6E F8 FF FF 7F 38 80 99  .#*.{P..n....8..
0480: F8 FF FF 7F 45 04 80 F8  FF FF 7F F8 FF FF 7F 66  ....E..........f
0490: 64 6F 31 03 80 55 04 80  F8 FF FF 7F F8 FF FF 7F  do1..U..........
04A0: 66 64 6F 31 52 02 80 F8  FF FF 7F F8 FF FF 7F 61  fdo1R..........a
04B0: 73 31 30 46 00 1C 0B 80  45 04 80 F8 FF FF 7F F8  s10F....E.......
04C0: FF FF 7F 66 64 69 31 03  80 21 00                 ...fdi1..!.     
```

#### Opcodes

```
  0: 0x0010 [0x42] SET_CLI_EVENT_CANCEL_DATA()
  1: 0x0011 [0x45] LOAD_SCHEDULED_TASK: Load scheduler "test" with entities [EventEntity, EventEntity], work=[35*, 0*]
  2: 0x0022 [0x45] LOAD_SCHEDULED_TASK: Load scheduler "fdo1" with entities [EventEntity, EventEntity], work=[200*, 0*]
  3: 0x0033 [0x55] WAIT_LOAD_SCHEDULER: Wait for scheduler "fdo1" with entities [EventEntity, EventEntity], work=200*
  4: 0x0042 [0x46] CAMERA_CONTROL: Disable user control
  5: 0x0044 [0x38] SET_CLIENT_EVENT_MODE(mode=19*)
  6: 0x0047 [0x92] EventEntity->Render.Flags3 ^= 0x01
  7: 0x004D [0xBA] SET_ENTITY_POSITION(entity_id=LocalPlayer, pos_x=27.693*, pos_z=-83.092*, pos_y=-5.999*, direction=68.7°*)
  8: 0x005A [0x45] LOAD_SCHEDULED_TASK: Load scheduler "as00" with entities [EventEntity, EventEntity], work=[35*, 0*]
  9: 0x006B [0x45] LOAD_SCHEDULED_TASK: Load scheduler "fdi1" with entities [EventEntity, EventEntity], work=[200*, 0*]
 10: 0x007C [0x55] WAIT_LOAD_SCHEDULER: Wait for scheduler "fdi1" with entities [EventEntity, EventEntity], work=200*
 11: 0x008B [0x1D] PRINT_EVENT_MESSAGE(message_id=11234*)
    → "This assignment'll be the end o' me. Maybe I can unload it onto some other unsuspectin'..."
 12: 0x008E [0x23] WAIT_FOR_DIALOG_INTERACTION
 13: 0x008F [0x1C] WAIT(30* ticks)
 14: 0x0092 [0x59] UPDATE_ENTITY_DATA: Set EventEntity target turn speed head = 200*
 15: 0x0096 [0x79] Halshaob (ID: 16994427/0x0103507B) looks at LocalPlayer (Basic look)
 16: 0x00A0 [0x1D] PRINT_EVENT_MESSAGE(message_id=11235*)
    → "Whaddya want? Hm? Now where have I seen...?"
 17: 0x00A3 [0x23] WAIT_FOR_DIALOG_INTERACTION
 18: 0x00A4 [0x1C] WAIT(30* ticks)
 19: 0x00A7 [0x52] END_LOAD_SCHEDULER: End scheduler "as00" with entities [EventEntity, EventEntity], work=35*
 20: 0x00B6 [0x45] LOAD_SCHEDULED_TASK: Load scheduler "as01" with entities [EventEntity, EventEntity], work=[35*, 0*]
 21: 0x00C7 [0x1E] EventEntity looks at LocalPlayer and starts talking
 22: 0x00CC [0x1D] PRINT_EVENT_MESSAGE(message_id=11236*)
    → "Hey, aren't you that mercenary who investigated the ghost ship?"
 23: 0x00CF [0x23] WAIT_FOR_DIALOG_INTERACTION
 24: 0x00D0 [0x6E] EventEntity uses emote 25*
 25: 0x00D7 [0x99] Wait for EventEntity animation to complete
 26: 0x00DC [0x27] REQ_SET(priority=0x0A, entity_id=Halshaob (ID: 16994427/0x0103507B), tag_num=0x05)
 27: 0x00E3 [0x1D] PRINT_EVENT_MESSAGE(message_id=11237*)
    → "I oughta pound yer head into the wall for bringin' this awful assignment down on an honest soldier's head!"
 28: 0x00E6 [0x23] WAIT_FOR_DIALOG_INTERACTION
 29: 0x00E7 [0x2A] GET_REQ_LEVEL(level=10, entity_id=Halshaob (ID: 16994427/0x0103507B))
 30: 0x00ED [0x66] LOAD_EXT_SCHEDULER_MAIN: Load scheduler "twa0" with entities [EventEntity, EventEntity], work=9*
 31: 0x00FC [0x1D] PRINT_EVENT_MESSAGE(message_id=11238*)
    → "Huh? You got no idea what I'm talking about? Great Walahra's whiskers..."
 32: 0x00FF [0x23] WAIT_FOR_DIALOG_INTERACTION
 33: 0x0100 [0x52] END_LOAD_SCHEDULER: End scheduler "as01" with entities [EventEntity, EventEntity], work=35*
 34: 0x010F [0x45] LOAD_SCHEDULED_TASK: Load scheduler "as02" with entities [EventEntity, EventEntity], work=[35*, 0*]
 35: 0x0120 [0x1D] PRINT_EVENT_MESSAGE(message_id=11239*)
    → "You have the honor o' speaking to General Halshaob, awe-inspirin' commander o' the Maelstrom Company."
 36: 0x0123 [0x23] WAIT_FOR_DIALOG_INTERACTION
 37: 0x0124 [0x1D] PRINT_EVENT_MESSAGE(message_id=11240*)
    → "The army is still buzzin' about the Empress givin' an audience to some simple mercenary grunt. They say you even got a special reward for yer meddlin'."
 38: 0x0127 [0x23] WAIT_FOR_DIALOG_INTERACTION
 39: 0x0128 [0x66] LOAD_EXT_SCHEDULER_MAIN: Load scheduler "twa1" with entities [EventEntity, EventEntity], work=9*
 40: 0x0137 [0x52] END_LOAD_SCHEDULER: End scheduler "as02" with entities [EventEntity, EventEntity], work=35*
 41: 0x0146 [0x45] LOAD_SCHEDULED_TASK: Load scheduler "as01" with entities [EventEntity, EventEntity], work=[35*, 0*]
 42: 0x0157 [0x53] WAIT_SCHEDULER_TASK: Wait for scheduler "twa1" with entities [EventEntity, EventEntity]
 43: 0x0164 [0x39] SET_ENTITY_DIRECTION(direction=10.9°*)
 44: 0x0167 [0x6F] WAIT_FRAME_DELAY: Yield until WaitTime reaches zero
 45: 0x0168 [0x70] WAIT_ENTITY_RENDER_FLAG: Wait while EventEntity->Render.Flags3 bit 2 is set (cancel turn if not)
 46: 0x0169 [0x1D] PRINT_EVENT_MESSAGE(message_id=11241*)
    → "In any case, whatever you reported has the Empress all worked up about dead corsairs an' pirate ships."
 47: 0x016C [0x23] WAIT_FOR_DIALOG_INTERACTION
 48: 0x016D [0x59] UPDATE_ENTITY_DATA: Set EventEntity target turn speed head = 100*
 49: 0x0171 [0x7B] EventEntity stops talking
 50: 0x0176 [0x6F] WAIT_FRAME_DELAY: Yield until WaitTime reaches zero
 51: 0x0177 [0x70] WAIT_ENTITY_RENDER_FLAG: Wait while EventEntity->Render.Flags3 bit 2 is set (cancel turn if not)
 52: 0x0178 [0x6E] EventEntity uses emote 26*
 53: 0x017F [0x99] Wait for EventEntity animation to complete
 54: 0x0184 [0x27] REQ_SET(priority=0x0A, entity_id=Halshaob (ID: 16994427/0x0103507B), tag_num=0x05)
 55: 0x018B [0x1D] PRINT_EVENT_MESSAGE(message_id=11242*)
    → "So now they're investin' military resources into further investigation. Namely, me an' me troops."
 56: 0x018E [0x23] WAIT_FOR_DIALOG_INTERACTION
 57: 0x018F [0x2A] GET_REQ_LEVEL(level=10, entity_id=Halshaob (ID: 16994427/0x0103507B))
 58: 0x0195 [0x52] END_LOAD_SCHEDULER: End scheduler "as01" with entities [EventEntity, EventEntity], work=35*
 59: 0x01A4 [0x45] LOAD_SCHEDULED_TASK: Load scheduler "as03" with entities [EventEntity, EventEntity], work=[35*, 0*]
 60: 0x01B5 [0x39] SET_ENTITY_DIRECTION(direction=7.6°*)
 61: 0x01B8 [0x1C] WAIT(30* ticks)
 62: 0x01BB [0x59] UPDATE_ENTITY_DATA: Set EventEntity target turn speed head = 200*
 63: 0x01BF [0x79] EventEntity looks at Unknown NPC (ID: 2147713050/0x8003801A) (Direct axis set)
 64: 0x01C9 [0x6E] EventEntity uses emote 22*
 65: 0x01D0 [0x99] Wait for EventEntity animation to complete
 66: 0x01D5 [0x1C] WAIT(150* ticks)
 67: 0x01D8 [0x7B] EventEntity stops talking
 68: 0x01DD [0x1C] WAIT(30* ticks)
 69: 0x01E0 [0x59] UPDATE_ENTITY_DATA: Set EventEntity target turn speed = 100*
 70: 0x01E4 [0x1E] EventEntity looks at LocalPlayer and starts talking
 71: 0x01E9 [0x1C] WAIT(30* ticks)
 72: 0x01EC [0x1D] PRINT_EVENT_MESSAGE(message_id=11243*)
    → "Now do you get why I'm so eager to inflict bodily harm upon yer person?"
 73: 0x01EF [0x23] WAIT_FOR_DIALOG_INTERACTION
 74: 0x01F0 [0x79] EventEntity looks at Unknown NPC (ID: 2147713027/0x80038003) (Direct axis set)
 75: 0x01FA [0x39] SET_ENTITY_DIRECTION(direction=10.9°*)
 76: 0x01FD [0x6F] WAIT_FRAME_DELAY: Yield until WaitTime reaches zero
 77: 0x01FE [0x70] WAIT_ENTITY_RENDER_FLAG: Wait while EventEntity->Render.Flags3 bit 2 is set (cancel turn if not)
 78: 0x01FF [0x66] LOAD_EXT_SCHEDULER_MAIN: Load scheduler "thk1" with entities [EventEntity, EventEntity], work=9*
 79: 0x020E [0x7C] EventEntity->Render.Flags2 |= 0x00
 80: 0x0214 [0x1D] PRINT_EVENT_MESSAGE(message_id=11244*)
    → "(Hang on a bit... This might be a stroke o' luck...)"
 81: 0x0217 [0x23] WAIT_FOR_DIALOG_INTERACTION
 82: 0x0218 [0x7C] EventEntity->Render.Flags2 |= 0x01
 83: 0x021E [0x45] LOAD_SCHEDULED_TASK: Load scheduler "as04" with entities [EventEntity, EventEntity], work=[35*, 0*]
 84: 0x022F [0x66] LOAD_EXT_SCHEDULER_MAIN: Load scheduler "thk2" with entities [EventEntity, EventEntity], work=9*
 85: 0x023E [0x53] WAIT_SCHEDULER_TASK: Wait for scheduler "thk2" with entities [EventEntity, EventEntity]
 86: 0x024B [0x79] Halshaob (ID: 16994427/0x0103507B) looks at LocalPlayer (Basic look)
 87: 0x0255 [0x66] LOAD_EXT_SCHEDULER_MAIN: Load scheduler "twa0" with entities [EventEntity, EventEntity], work=9*
 88: 0x0264 [0x1D] PRINT_EVENT_MESSAGE(message_id=11245*)
    → "You see, we've been ordered to clear out those walkin' corsair corpses and search the bowels of that ghost ship."
 89: 0x0267 [0x23] WAIT_FOR_DIALOG_INTERACTION
 90: 0x0268 [0x1D] PRINT_EVENT_MESSAGE(message_id=11246*)
    → "If we find anythin' that might be used against the Empire, we're s'posed to destroy it."
 91: 0x026B [0x23] WAIT_FOR_DIALOG_INTERACTION
 92: 0x026C [0x7B] EventEntity stops talking
 93: 0x0271 [0x66] LOAD_EXT_SCHEDULER_MAIN: Load scheduler "twa1" with entities [EventEntity, EventEntity], work=9*
 94: 0x0280 [0x1D] PRINT_EVENT_MESSAGE(message_id=11247*)
    → "All that's turned up so far is a pile o' gold and silver, and other bits and trinkets."
 95: 0x0283 [0x23] WAIT_FOR_DIALOG_INTERACTION
 96: 0x0284 [0x1D] PRINT_EVENT_MESSAGE(message_id=11248*)
    → "I guess they're afraid that somethin' else potentially...embarrassin'...is mixed in with all that treasure."
 97: 0x0287 [0x23] WAIT_FOR_DIALOG_INTERACTION
 98: 0x0288 [0x59] UPDATE_ENTITY_DATA: Set EventEntity target turn speed head = 200*
 99: 0x028C [0x79] Halshaob (ID: 16994427/0x0103507B) looks at LocalPlayer (Basic look)
100: 0x0296 [0x1C] WAIT(120* ticks)
101: 0x0299 [0x52] END_LOAD_SCHEDULER: End scheduler "as04" with entities [EventEntity, EventEntity], work=35*
102: 0x02A8 [0x45] LOAD_SCHEDULED_TASK: Load scheduler "as05" with entities [EventEntity, EventEntity], work=[35*, 0*]
103: 0x02B9 [0x1E] EventEntity looks at LocalPlayer and starts talking
104: 0x02BE [0x1D] PRINT_EVENT_MESSAGE(message_id=11249*)
    → "Hm? What's this now?"
105: 0x02C1 [0x23] WAIT_FOR_DIALOG_INTERACTION
106: 0x02C2 [0x45] LOAD_SCHEDULED_TASK: Load scheduler "as06" with entities [EventEntity, EventEntity], work=[35*, 0*]
107: 0x02D3 [0x32] ExtData[1]->MainSpeed = 10* * 0.1
108: 0x02D6 [0x1F] MOVE_ENTITY: EventEntity moves to X=28.391*, Z=-84.159*, Y=-5.999*
109: 0x02DE [0x1F] MOVE_ENTITY: Update entity position (mode=1)
110: 0x02E0 [0x1D] PRINT_EVENT_MESSAGE(message_id=11250*)
    → "All this talk o' treasure finally get yer attention?"
111: 0x02E3 [0x23] WAIT_FOR_DIALOG_INTERACTION
112: 0x02E4 [0x24] CREATE_DIALOG(message_id=11251*, default_option=0*, option_flags=0*)
    → "Got your attention? [Indeed you do./Not interested.]"
113: 0x02EB [0x25] WAIT_DIALOG_SELECT()
114: 0x02EC [0x02] IF !(Work_Zone[0] == 0*) GOTO 0x034B
115: 0x02F4 [0x52] END_LOAD_SCHEDULER: End scheduler "as06" with entities [EventEntity, EventEntity], work=35*
116: 0x0303 [0x45] LOAD_SCHEDULED_TASK: Load scheduler "as07" with entities [EventEntity, EventEntity], work=[35*, 0*]
117: 0x0314 [0x1D] PRINT_EVENT_MESSAGE(message_id=11252*)
    → "Gwahahaha! What else would you expect from a mercenary!?"
118: 0x0317 [0x23] WAIT_FOR_DIALOG_INTERACTION
119: 0x0318 [0x7C] EventEntity->Render.Flags2 |= 0x00
120: 0x031E [0x1D] PRINT_EVENT_MESSAGE(message_id=11253*)
    → "(Now to reel [him/her] in...)"
121: 0x0321 [0x23] WAIT_FOR_DIALOG_INTERACTION
122: 0x0322 [0x7C] EventEntity->Render.Flags2 |= 0x01
123: 0x0328 [0x52] END_LOAD_SCHEDULER: End scheduler "as07" with entities [EventEntity, EventEntity], work=35*
124: 0x0337 [0x45] LOAD_SCHEDULED_TASK: Load scheduler "as08" with entities [EventEntity, EventEntity], work=[35*, 0*]
125: 0x0348 [0x01] GOTO 0x03CB
126: 0x034B [0x02] IF !(Work_Zone[0] == 1*) GOTO 0x03CB
127: 0x0353 [0x52] END_LOAD_SCHEDULER: End scheduler "as06" with entities [EventEntity, EventEntity], work=35*
128: 0x0362 [0x45] LOAD_SCHEDULED_TASK: Load scheduler "as07" with entities [EventEntity, EventEntity], work=[35*, 0*]
129: 0x0373 [0x1D] PRINT_EVENT_MESSAGE(message_id=11254*)
    → "Is that right...?"
130: 0x0376 [0x23] WAIT_FOR_DIALOG_INTERACTION
131: 0x0377 [0x6E] EventEntity uses emote 22*
132: 0x037E [0x99] Wait for EventEntity animation to complete
133: 0x0383 [0x27] REQ_SET(priority=0x0A, entity_id=Halshaob (ID: 16994427/0x0103507B), tag_num=0x05)
134: 0x038A [0x1D] PRINT_EVENT_MESSAGE(message_id=11255*)
    → "Salaheem's Sentinels treats you well enough, is that it?"
135: 0x038D [0x23] WAIT_FOR_DIALOG_INTERACTION
136: 0x038E [0x1D] PRINT_EVENT_MESSAGE(message_id=11256*)
    → "Do I look like a clueless foreigner to you? Everyone around here knows Naja's reputation."
137: 0x0391 [0x23] WAIT_FOR_DIALOG_INTERACTION
138: 0x0392 [0x52] END_LOAD_SCHEDULER: End scheduler "as07" with entities [EventEntity, EventEntity], work=35*
139: 0x03A1 [0x45] LOAD_SCHEDULED_TASK: Load scheduler "as08" with entities [EventEntity, EventEntity], work=[35*, 0*]
140: 0x03B2 [0x7C] EventEntity->Render.Flags2 |= 0x00
141: 0x03B8 [0x1D] PRINT_EVENT_MESSAGE(message_id=11258*)
    → "(This one's a tough nut to crack. Let's give 'em one more shot...)"
142: 0x03BB [0x23] WAIT_FOR_DIALOG_INTERACTION
143: 0x03BC [0x7C] EventEntity->Render.Flags2 |= 0x01
144: 0x03C2 [0x2A] GET_REQ_LEVEL(level=10, entity_id=EventEntity)
145: 0x03C8 [0x01] GOTO 0x03CB

SUBROUTINE_03CB:
146: 0x03CB [0x1D] PRINT_EVENT_MESSAGE(message_id=11259*)
    → "If you're interested in our assignment, I'd be happy to cut you in on the action."
147: 0x03CE [0x23] WAIT_FOR_DIALOG_INTERACTION
148: 0x03CF [0x6E] EventEntity uses emote 22*
149: 0x03D6 [0x99] Wait for EventEntity animation to complete
150: 0x03DB [0x27] REQ_SET(priority=0x0A, entity_id=Halshaob (ID: 16994427/0x0103507B), tag_num=0x05)
151: 0x03E2 [0x1D] PRINT_EVENT_MESSAGE(message_id=11260*)
    → "Sure, you'll be flyin' in the face o' danger, but no risk means no reward, right?"
152: 0x03E5 [0x23] WAIT_FOR_DIALOG_INTERACTION
153: 0x03E6 [0x2A] GET_REQ_LEVEL(level=10, entity_id=EventEntity)
154: 0x03EC [0x1D] PRINT_EVENT_MESSAGE(message_id=11261*)
    → "The thing is, I'll have to pull some strings so me superiors'll let a mercenary take the place o' the Maelstrom Company. That'll take greasin' some palms, if you know what I mean."
155: 0x03EF [0x23] WAIT_FOR_DIALOG_INTERACTION
156: 0x03F0 [0x52] END_LOAD_SCHEDULER: End scheduler "as08" with entities [EventEntity, EventEntity], work=35*
157: 0x03FF [0x45] LOAD_SCHEDULED_TASK: Load scheduler "as09" with entities [EventEntity, EventEntity], work=[35*, 0*]
158: 0x0410 [0x1D] PRINT_EVENT_MESSAGE(message_id=11262*)
    → "You do know what I mean, don't you? Mo-ney. That's right, the shiny stuff you keep in yer purse."
159: 0x0413 [0x23] WAIT_FOR_DIALOG_INTERACTION
160: 0x0414 [0x1D] PRINT_EVENT_MESSAGE(message_id=11263*)
    → "The amount'll depend on the type o' mission you decide to undertake."
161: 0x0417 [0x23] WAIT_FOR_DIALOG_INTERACTION
162: 0x0418 [0x52] END_LOAD_SCHEDULER: End scheduler "as09" with entities [EventEntity, EventEntity], work=35*
163: 0x0427 [0x45] LOAD_SCHEDULED_TASK: Load scheduler "as10" with entities [EventEntity, EventEntity], work=[35*, 0*]
164: 0x0438 [0x66] LOAD_EXT_SCHEDULER_MAIN: Load scheduler "twa0" with entities [EventEntity, EventEntity], work=9*
165: 0x0447 [0x1D] PRINT_EVENT_MESSAGE(message_id=11264*)
    → "I won't bore you with the details until you're absolutely sure."
166: 0x044A [0x23] WAIT_FOR_DIALOG_INTERACTION
167: 0x044B [0x66] LOAD_EXT_SCHEDULER_MAIN: Load scheduler "twa1" with entities [EventEntity, EventEntity], work=9*
168: 0x045A [0x53] WAIT_SCHEDULER_TASK: Wait for scheduler "twa1" with entities [EventEntity, EventEntity]
169: 0x0467 [0x27] REQ_SET(priority=0x0A, entity_id=Halshaob (ID: 16994427/0x0103507B), tag_num=0x06)
170: 0x046E [0x1D] PRINT_EVENT_MESSAGE(message_id=11265*)
    → "I'll be here when you make up yer mind."
171: 0x0471 [0x23] WAIT_FOR_DIALOG_INTERACTION
172: 0x0472 [0x2A] GET_REQ_LEVEL(level=10, entity_id=Halshaob (ID: 16994427/0x0103507B))
173: 0x0478 [0x6E] EventEntity uses emote 8*
174: 0x047F [0x99] Wait for EventEntity animation to complete
175: 0x0484 [0x45] LOAD_SCHEDULED_TASK: Load scheduler "fdo1" with entities [EventEntity, EventEntity], work=[200*, 0*]
176: 0x0495 [0x55] WAIT_LOAD_SCHEDULER: Wait for scheduler "fdo1" with entities [EventEntity, EventEntity], work=200*
177: 0x04A4 [0x52] END_LOAD_SCHEDULER: End scheduler "as10" with entities [EventEntity, EventEntity], work=35*
178: 0x04B3 [0x46] CAMERA_CONTROL: Restore default settings
179: 0x04B5 [0x1C] WAIT(30* ticks)
180: 0x04B8 [0x45] LOAD_SCHEDULED_TASK: Load scheduler "fdi1" with entities [EventEntity, EventEntity], work=[200*, 0*]
181: 0x04C9 [0x21] END_EVENT
182: 0x04CA [0x00] END_REQSTACK()
```

### Event 301

#### Metadata

| Field        | Value     |
|--------------|-----------|
| Entrypoint   | 0x04CB    |
| Data Size    | 174 bytes |
| Instructions | 47        |

```
      00 01 02 03 04 05 06 07  08 09 0A 0B 0C 0D 0E 0F
      -- -- -- -- -- -- -- --  -- -- -- -- -- -- -- --
04C0:                                   1E F0 FF FF 7F             .....
04D0: 1D 39 80 23 02 06 10 2C  80 00 E3 04 1D 3A 80 23  .9.#...,.....:.#
04E0: 01 E7 04 1D 3B 80 23 03  00 10 2C 80 02 00 10 03  ....;.#...,.....
04F0: 80 02 73 05 24 3C 80 03  80 02 10 25 02 00 10 03  ..s.$<.....%....
0500: 80 00 07 05 01 52 05 02  00 10 2C 80 00 20 05 03  .....R....,.. ..
0510: 03 10 3D 80 03 04 10 3E  80 48 3F 80 23 01 52 05  ..=....>.H?.#.R.
0520: 02 00 10 40 80 00 39 05  03 03 10 41 80 03 04 10  ...@..9....A....
0530: 2C 80 48 42 80 23 01 52  05 02 00 10 3E 80 00 52  ,.HB.#.R....>..R
0540: 05 03 03 10 43 80 03 04  10 2C 80 48 44 80 23 01  ....C....,.HD.#.
0550: 52 05 02 00 10 03 80 02  70 05 3E 05 10 00 10 68  R.......p.>....h
0560: 05 1D 45 80 23 01 70 05  1D 46 80 23 1D 47 80 23  ..E.#.p..F.#.G.#
0570: 01 EC 04 1D 48 80 23 21  00                       ....H.#!.       
```

#### Opcodes

```
  0: 0x04CB [0x1E] EventEntity looks at LocalPlayer and starts talking
  1: 0x04D0 [0x1D] PRINT_EVENT_MESSAGE(message_id=11266*)
    → "I knew you'd show up again. Let's get down to business."
  2: 0x04D3 [0x23] WAIT_FOR_DIALOG_INTERACTION
  3: 0x04D4 [0x02] IF !(Work_Zone[6] == 1*) GOTO 0x04E3
  4: 0x04DC [0x1D] PRINT_EVENT_MESSAGE(message_id=11280*)
    → "I don't have any other missions fer you right now. Anything else you want to ask about?"
  5: 0x04DF [0x23] WAIT_FOR_DIALOG_INTERACTION
  6: 0x04E0 [0x01] GOTO 0x04E7
  7: 0x04E3 [0x1D] PRINT_EVENT_MESSAGE(message_id=11267*)
    → "Here's a list of missions I can let you in on."
  8: 0x04E6 [0x23] WAIT_FOR_DIALOG_INTERACTION

SUBROUTINE_04E7:
  9: 0x04E7 [0x03] Work_Zone[0] = 1*

SUBROUTINE_04EC:
 10: 0x04EC [0x02] IF !(Work_Zone[0] <= 0*) GOTO 0x0573
 11: 0x04F4 [0x24] CREATE_DIALOG(message_id=11268*, default_option=0*, option_flags=Work_Zone[2])
    → "Which do you ask about? [None./Scouting the Ashu Talif./Royal Painter Escort./Targeting the Captain.]"
 12: 0x04FB [0x25] WAIT_DIALOG_SELECT()
 13: 0x04FC [0x02] IF !(Work_Zone[0] == 0*) GOTO 0x0507
 14: 0x0504 [0x01] GOTO 0x0552
 15: 0x0507 [0x02] IF !(Work_Zone[0] == 1*) GOTO 0x0520
 16: 0x050F [0x03] Work_Zone[3] = 2184*
 17: 0x0514 [0x03] Work_Zone[4] = 3*
 18: 0x0519 [0x48] [System] [11269*]:
    → "Scouting the Ashu Talif Objective: Defeat the Ashu Talif crew Recruitment: 1-6 mercenaries"
 19: 0x051C [0x23] WAIT_FOR_DIALOG_INTERACTION
 20: 0x051D [0x01] GOTO 0x0552
 21: 0x0520 [0x02] IF !(Work_Zone[0] == 2*) GOTO 0x0539
 22: 0x0528 [0x03] Work_Zone[3] = 2185*
 23: 0x052D [0x03] Work_Zone[4] = 1*
 24: 0x0532 [0x48] [System] [11270*]:
    → "Royal Painter Escort Objective: Escort the Royal Painter Recruitment: 1-6 mercenaries"
 25: 0x0535 [0x23] WAIT_FOR_DIALOG_INTERACTION
 26: 0x0536 [0x01] GOTO 0x0552
 27: 0x0539 [0x02] IF !(Work_Zone[0] == 3*) GOTO 0x0552
 28: 0x0541 [0x03] Work_Zone[3] = 2186*
 29: 0x0546 [0x03] Work_Zone[4] = 1*
 30: 0x054B [0x48] [System] [11271*]:
    → "Targeting the Captain Objective: Eliminate the captain Recruitment: 1-6 mercenaries"
 31: 0x054E [0x23] WAIT_FOR_DIALOG_INTERACTION
 32: 0x054F [0x01] GOTO 0x0552

SUBROUTINE_0552:
 33: 0x0552 [0x02] IF !(Work_Zone[0] <= 0*) GOTO 0x0570
 34: 0x055A [0x3E] IF !(Work_Zone[5] bit Work_Zone[0]) GOTO 0x0568
 35: 0x0561 [0x1D] PRINT_EVENT_MESSAGE(message_id=11279*)
    → "You're already on that mission, you melon-headed mercenary! Probably forget yer head if it weren't stuck to yer shoulders..."
 36: 0x0564 [0x23] WAIT_FOR_DIALOG_INTERACTION
 37: 0x0565 [0x01] GOTO 0x0570
 38: 0x0568 [0x1D] PRINT_EVENT_MESSAGE(message_id=11272*)
    → "I'm gonna need $2 $0$0 fer that mission."
 39: 0x056B [0x23] WAIT_FOR_DIALOG_INTERACTION
 40: 0x056C [0x1D] PRINT_EVENT_MESSAGE(message_id=11273*)
    → "Anything else you wanna ask about?"
 41: 0x056F [0x23] WAIT_FOR_DIALOG_INTERACTION

SUBROUTINE_0570:
 42: 0x0570 [0x01] GOTO 0x04EC
 43: 0x0573 [0x1D] PRINT_EVENT_MESSAGE(message_id=11274*)
    → "If you wanna keep yer head on yer shoulders, you'll keep these transactions to yerself. On yer way."
 44: 0x0576 [0x23] WAIT_FOR_DIALOG_INTERACTION
 45: 0x0577 [0x21] END_EVENT
 46: 0x0578 [0x00] END_REQSTACK()
```

### Event 302

#### Metadata

| Field        | Value    |
|--------------|----------|
| Entrypoint   | 0x0579   |
| Data Size    | 20 bytes |
| Instructions | 10       |

```
      00 01 02 03 04 05 06 07  08 09 0A 0B 0C 0D 0E 0F
      -- -- -- -- -- -- -- --  -- -- -- -- -- -- -- --
0570:                             42 1E F0 FF FF 7F 1D           B......
0580: 49 80 23 1D 4A 80 23 1D  4B 80 23 21 00           I.#.J.#.K.#!.   
```

#### Opcodes

```
  0: 0x0579 [0x42] SET_CLI_EVENT_CANCEL_DATA()
  1: 0x057A [0x1E] EventEntity looks at LocalPlayer and starts talking
  2: 0x057F [0x1D] PRINT_EVENT_MESSAGE(message_id=11275*)
    → "Right, so I'm takin' yer $1 $0 in exchange fer lettin' you take on "$2.""
  3: 0x0582 [0x23] WAIT_FOR_DIALOG_INTERACTION
  4: 0x0583 [0x1D] PRINT_EVENT_MESSAGE(message_id=11276*)
    → "Make yer way to the cutter docked on the west side of Dvucca Isle. I'll make arrangements for yer passage."
  5: 0x0586 [0x23] WAIT_FOR_DIALOG_INTERACTION
  6: 0x0587 [0x1D] PRINT_EVENT_MESSAGE(message_id=11277*)
    → "The honor o' the Maelstrom Company rests on yer shoulders. Don't make me hunt you down."
  7: 0x058A [0x23] WAIT_FOR_DIALOG_INTERACTION
  8: 0x058B [0x21] END_EVENT
  9: 0x058C [0x00] END_REQSTACK()
```

### Event 65535.1

#### Metadata

| Field        | Value   |
|--------------|---------|
| Entrypoint   | 0x058D  |
| Data Size    | 4 bytes |
| Instructions | 2       |

```
      00 01 02 03 04 05 06 07  08 09 0A 0B 0C 0D 0E 0F
      -- -- -- -- -- -- -- --  -- -- -- -- -- -- -- --
0580:                                         1C 4C 80               .L.
0590: 00                                                .               
```

#### Opcodes

```
  0: 0x058D [0x1C] WAIT(130* ticks)
  1: 0x0590 [0x00] END_REQSTACK()
```

### Event 65535.2

#### Metadata

| Field        | Value    |
|--------------|----------|
| Entrypoint   | 0x0591   |
| Data Size    | 11 bytes |
| Instructions | 3        |

```
      00 01 02 03 04 05 06 07  08 09 0A 0B 0C 0D 0E 0F
      -- -- -- -- -- -- -- --  -- -- -- -- -- -- -- --
0590:    1F 00 4D 80 4E 80 4F  80 1F 01 00               ..M.N.O....    
```

#### Opcodes

```
  0: 0x0591 [0x1F] MOVE_ENTITY: EventEntity moves to X=28.537*, Z=-85.250*, Y=-6.000*
  1: 0x0599 [0x1F] MOVE_ENTITY: Update entity position (mode=1)
  2: 0x059B [0x00] END_REQSTACK()
```
