# 16994391

## Common Data

| Field            | Value            |
|------------------|------------------|
| Zone             | Nashmau (ID: 53) |
| Block Size       | 196 bytes        |
| Total Events     | 5                |
| References Count | 9                |

## List of Events

| Event ID                 | Entrypoint   |   Size |   Instructions |
|--------------------------|--------------|--------|----------------|
| [65535](#event-65535)    | 0x0000       |      1 |              1 |
| [281](#event-281)        | 0x0001       |      1 |              1 |
| [65535.1](#event-655351) | 0x0002       |     10 |              2 |
| [65535.2](#event-655352) | 0x000C       |     10 |              2 |
| [65535.3](#event-655353) | 0x0016       |    100 |             14 |

## DAT References (imed_data)

|   Index | Hex Value   |   Dec Value |
|---------|-------------|-------------|
|       0 | 0xFFFFF591  |  4294964625 |
|       1 | 0x396B      |       14699 |
|       2 | 0xFFFFAA11  |  4294945297 |
|       3 | 0x0D76      |        3446 |
|       4 | 0x0000      |           0 |
|       5 | 0x0078      |         120 |
|       6 | 0x0005      |           5 |
|       7 | 0x000A      |          10 |
|       8 | 0x0354      |         852 |

## Events

### Event 65535

#### Metadata

| Field        | Value   |
|--------------|---------|
| Entrypoint   | 0x0000  |
| Data Size    | 1 bytes |
| Instructions | 1       |

```
      00 01 02 03 04 05 06 07  08 09 0A 0B 0C 0D 0E 0F
      -- -- -- -- -- -- -- --  -- -- -- -- -- -- -- --
0000: 00                                                .               
```

#### Opcodes

```
  0: 0x0000 [0x00] END_REQSTACK()
```

### Event 281

#### Metadata

| Field        | Value   |
|--------------|---------|
| Entrypoint   | 0x0001  |
| Data Size    | 1 bytes |
| Instructions | 1       |

```
      00 01 02 03 04 05 06 07  08 09 0A 0B 0C 0D 0E 0F
      -- -- -- -- -- -- -- --  -- -- -- -- -- -- -- --
0000:    00                                              .              
```

#### Opcodes

```
  0: 0x0001 [0x00] END_REQSTACK()
```

### Event 65535.1

#### Metadata

| Field        | Value    |
|--------------|----------|
| Entrypoint   | 0x0002   |
| Data Size    | 10 bytes |
| Instructions | 2        |

```
      00 01 02 03 04 05 06 07  08 09 0A 0B 0C 0D 0E 0F
      -- -- -- -- -- -- -- --  -- -- -- -- -- -- -- --
0000:       37 00 80 01 80 02  80 03 80 00                7.........    
```

#### Opcodes

```
  0: 0x0002 [0x37] UPDATE_EVENT_POSITION_AND_DIR: x=-2.671*, z=14.699*, y=-21.999*, direction=302.9°*
  1: 0x000B [0x00] END_REQSTACK()
```

### Event 65535.2

#### Metadata

| Field        | Value    |
|--------------|----------|
| Entrypoint   | 0x000C   |
| Data Size    | 10 bytes |
| Instructions | 2        |

```
      00 01 02 03 04 05 06 07  08 09 0A 0B 0C 0D 0E 0F
      -- -- -- -- -- -- -- --  -- -- -- -- -- -- -- --
0000:                                      6C 57 50 03              lWP.
0010: 01 04 80 05 80 00                                 ......          
```

#### Opcodes

```
  0: 0x000C [0x6C] FADE_ENTITY_COLOR(entity_id=Unnamed NPC (ID: 16994391/0x01035057), end_alpha=0*, fade_time=120*)
  1: 0x0015 [0x00] END_REQSTACK()
```

### Event 65535.3

#### Metadata

| Field        | Value     |
|--------------|-----------|
| Entrypoint   | 0x0016    |
| Data Size    | 100 bytes |
| Instructions | 14        |

```
      00 01 02 03 04 05 06 07  08 09 0A 0B 0C 0D 0E 0F
      -- -- -- -- -- -- -- --  -- -- -- -- -- -- -- --
0010:                   4A 57  50 03 01 56 50 03 01 1C        JWP..VP...
0020: 06 80 4A 5B 50 03 01 56  50 03 01 1C 06 80 4A 58  ..J[P..VP.....JX
0030: 50 03 01 56 50 03 01 1C  07 80 4A 59 50 03 01 56  P..VP.....JYP..V
0040: 50 03 01 1C 07 80 4A 5A  50 03 01 56 50 03 01 5B  P.....JZP..VP..[
0050: 08 80 57 50 03 01 57 50  03 01 69 66 72 30 1C 06  ..WP..WP..ifr0..
0060: 80 4A 5C 50 03 01 56 50  03 01 5B 08 80 5B 50 03  .J\P..VP..[..[P.
0070: 01 5B 50 03 01 69 66 72  30 00                    .[P..ifr0.      
```

#### Opcodes

```
  0: 0x0016 [0x4A] Unnamed NPC (ID: 16994391/0x01035057) looks at Unnamed NPC (ID: 16994390/0x01035056)
  1: 0x001F [0x1C] WAIT(5* ticks)
  2: 0x0022 [0x4A] Unnamed NPC (ID: 16994395/0x0103505B) looks at Unnamed NPC (ID: 16994390/0x01035056)
  3: 0x002B [0x1C] WAIT(5* ticks)
  4: 0x002E [0x4A] Unnamed NPC (ID: 16994392/0x01035058) looks at Unnamed NPC (ID: 16994390/0x01035056)
  5: 0x0037 [0x1C] WAIT(10* ticks)
  6: 0x003A [0x4A] Unnamed NPC (ID: 16994393/0x01035059) looks at Unnamed NPC (ID: 16994390/0x01035056)
  7: 0x0043 [0x1C] WAIT(10* ticks)
  8: 0x0046 [0x4A] Unnamed NPC (ID: 16994394/0x0103505A) looks at Unnamed NPC (ID: 16994390/0x01035056)
  9: 0x004F [0x5B] LOAD_EXT_SCHEDULER: Load scheduler "ifr0" with entities [Unnamed NPC (ID: 16994391/0x01035057), Unnamed NPC (ID: 16994391/0x01035057)], work=852*
 10: 0x005E [0x1C] WAIT(5* ticks)
 11: 0x0061 [0x4A] Unnamed NPC (ID: 16994396/0x0103505C) looks at Unnamed NPC (ID: 16994390/0x01035056)
 12: 0x006A [0x5B] LOAD_EXT_SCHEDULER: Load scheduler "ifr0" with entities [Unnamed NPC (ID: 16994395/0x0103505B), Unnamed NPC (ID: 16994395/0x0103505B)], work=852*
 13: 0x0079 [0x00] END_REQSTACK()
```
