# 16994366 - Jojoroon

## Common Data

| Field            | Value            |
|------------------|------------------|
| Zone             | Nashmau (ID: 53) |
| Block Size       | 304 bytes        |
| Total Events     | 11               |
| References Count | 29               |

## List of Events

| Event ID                 | Entrypoint   |   Size |   Instructions |
|--------------------------|--------------|--------|----------------|
| [65535](#event-65535)    | 0x0000       |      1 |              1 |
| [271](#event-271)        | 0x0001       |     33 |              9 |
| [291](#event-291)        | 0x0022       |      1 |              1 |
| [65535.1](#event-655351) | 0x0023       |     10 |              2 |
| [65535.2](#event-655352) | 0x002D       |     14 |              4 |
| [65535.3](#event-655353) | 0x003B       |     10 |              2 |
| [65535.4](#event-655354) | 0x0045       |     10 |              2 |
| [65535.5](#event-655355) | 0x004F       |     14 |              4 |
| [65535.6](#event-655356) | 0x005D       |     10 |              2 |
| [65535.7](#event-655357) | 0x0067       |     10 |              2 |
| [65535.8](#event-655358) | 0x0071       |     15 |              3 |

## DAT References (imed_data)

|   Index | Hex Value   |   Dec Value |
|---------|-------------|-------------|
|       0 | 0x001E      |          30 |
|       1 | 0x034B      |         843 |
|       2 | 0x2957      |       10583 |
|       3 | 0x2958      |       10584 |
|       4 | 0x3955      |       14677 |
|       5 | 0xFFFF6226  |  4294926886 |
|       6 | 0x0000      |           0 |
|       7 | 0x0B58      |        2904 |
|       8 | 0x4083      |       16515 |
|       9 | 0xFFFF60AC  |  4294926508 |
|      10 | 0x0936      |        2358 |
|      11 | 0x2018      |        8216 |
|      12 | 0xFFFF5C01  |  4294925313 |
|      13 | 0x007A      |         122 |
|      14 | 0x2683      |        9859 |
|      15 | 0xFFFF4DD2  |  4294921682 |
|      16 | 0x0023      |          35 |
|      17 | 0x000D      |          13 |
|      18 | 0x2DEC      |       11756 |
|      19 | 0xFFFF51BE  |  4294922686 |
|      20 | 0xFFFFF886  |  4294965382 |
|      21 | 0xFFFF6BC0  |  4294929344 |
|      22 | 0x0F78      |        3960 |
|      23 | 0x08DD      |        2269 |
|      24 | 0xFFFF8F39  |  4294938425 |
|      25 | 0x05B9      |        1465 |
|      26 | 0x441B      |       17435 |
|      27 | 0xFFFF576F  |  4294924143 |
|      28 | 0x0BD1      |        3025 |

## String References

- **10583**: To east of here is maaarsh. Danger, scaaary, deeep marsh. Lots and many fogs! Poison too, yes? And bottomless?
- **10584**: Jojoroon wonder what under bottomless marsh?

## Events

### Event 65535

#### Metadata

| Field        | Value   |
|--------------|---------|
| Entrypoint   | 0x0000  |
| Data Size    | 1 bytes |
| Instructions | 1       |

```
      00 01 02 03 04 05 06 07  08 09 0A 0B 0C 0D 0E 0F
      -- -- -- -- -- -- -- --  -- -- -- -- -- -- -- --
0000: 00                                                .               
```

#### Opcodes

```
  0: 0x0000 [0x00] END_REQSTACK()
```

### Event 271

#### Metadata

| Field        | Value    |
|--------------|----------|
| Entrypoint   | 0x0001   |
| Data Size    | 33 bytes |
| Instructions | 9        |

```
      00 01 02 03 04 05 06 07  08 09 0A 0B 0C 0D 0E 0F
      -- -- -- -- -- -- -- --  -- -- -- -- -- -- -- --
0000:    1E F0 FF FF 7F 1C 00  80 5B 01 80 F8 FF FF 7F   ........[......
0010: F8 FF FF 7F 68 61 70 30  1D 02 80 23 1D 03 80 23  ....hap0...#...#
0020: 21 00                                             !.              
```

#### Opcodes

```
  0: 0x0001 [0x1E] EventEntity looks at LocalPlayer and starts talking
  1: 0x0006 [0x1C] WAIT(30* ticks)
  2: 0x0009 [0x5B] LOAD_EXT_SCHEDULER: Load scheduler "hap0" with entities [EventEntity, EventEntity], work=843*
  3: 0x0018 [0x1D] PRINT_EVENT_MESSAGE(message_id=10583*)
    → "To east of here is maaarsh. Danger, scaaary, deeep marsh. Lots and many fogs! Poison too, yes? And bottomless?"
  4: 0x001B [0x23] WAIT_FOR_DIALOG_INTERACTION
  5: 0x001C [0x1D] PRINT_EVENT_MESSAGE(message_id=10584*)
    → "Jojoroon wonder what under bottomless marsh?"
  6: 0x001F [0x23] WAIT_FOR_DIALOG_INTERACTION
  7: 0x0020 [0x21] END_EVENT
  8: 0x0021 [0x00] END_REQSTACK()
```

### Event 291

#### Metadata

| Field        | Value   |
|--------------|---------|
| Entrypoint   | 0x0022  |
| Data Size    | 1 bytes |
| Instructions | 1       |

```
      00 01 02 03 04 05 06 07  08 09 0A 0B 0C 0D 0E 0F
      -- -- -- -- -- -- -- --  -- -- -- -- -- -- -- --
0020:       00                                            .             
```

#### Opcodes

```
  0: 0x0022 [0x00] END_REQSTACK()
```

### Event 65535.1

#### Metadata

| Field        | Value    |
|--------------|----------|
| Entrypoint   | 0x0023   |
| Data Size    | 10 bytes |
| Instructions | 2        |

```
      00 01 02 03 04 05 06 07  08 09 0A 0B 0C 0D 0E 0F
      -- -- -- -- -- -- -- --  -- -- -- -- -- -- -- --
0020:          37 04 80 05 80  06 80 07 80 00              7.........   
```

#### Opcodes

```
  0: 0x0023 [0x37] UPDATE_EVENT_POSITION_AND_DIR: x=14.677*, z=-40.410*, y=0.000*, direction=255.2°*
  1: 0x002C [0x00] END_REQSTACK()
```

### Event 65535.2

#### Metadata

| Field        | Value    |
|--------------|----------|
| Entrypoint   | 0x002D   |
| Data Size    | 14 bytes |
| Instructions | 4        |

```
      00 01 02 03 04 05 06 07  08 09 0A 0B 0C 0D 0E 0F
      -- -- -- -- -- -- -- --  -- -- -- -- -- -- -- --
0020:                                         1F 00 08               ...
0030: 80 09 80 06 80 1F 01 39  0A 80 00                 .......9...     
```

#### Opcodes

```
  0: 0x002D [0x1F] MOVE_ENTITY: EventEntity moves to X=16.515*, Z=-40.788*, Y=0.000*
  1: 0x0035 [0x1F] MOVE_ENTITY: Update entity position (mode=1)
  2: 0x0037 [0x39] SET_ENTITY_DIRECTION(direction=13.0°*)
  3: 0x003A [0x00] END_REQSTACK()
```

### Event 65535.3

#### Metadata

| Field        | Value    |
|--------------|----------|
| Entrypoint   | 0x003B   |
| Data Size    | 10 bytes |
| Instructions | 2        |

```
      00 01 02 03 04 05 06 07  08 09 0A 0B 0C 0D 0E 0F
      -- -- -- -- -- -- -- --  -- -- -- -- -- -- -- --
0030:                                   37 0B 80 0C 80             7....
0040: 06 80 0D 80 00                                    .....           
```

#### Opcodes

```
  0: 0x003B [0x37] UPDATE_EVENT_POSITION_AND_DIR: x=8.216*, z=-41.983*, y=0.000*, direction=10.7°*
  1: 0x0044 [0x00] END_REQSTACK()
```

### Event 65535.4

#### Metadata

| Field        | Value    |
|--------------|----------|
| Entrypoint   | 0x0045   |
| Data Size    | 10 bytes |
| Instructions | 2        |

```
      00 01 02 03 04 05 06 07  08 09 0A 0B 0C 0D 0E 0F
      -- -- -- -- -- -- -- --  -- -- -- -- -- -- -- --
0040:                37 0E 80  0F 80 06 80 10 80 00          7......... 
```

#### Opcodes

```
  0: 0x0045 [0x37] UPDATE_EVENT_POSITION_AND_DIR: x=9.859*, z=-45.614*, y=0.000*, direction=3.1°*
  1: 0x004E [0x00] END_REQSTACK()
```

### Event 65535.5

#### Metadata

| Field        | Value    |
|--------------|----------|
| Entrypoint   | 0x004F   |
| Data Size    | 14 bytes |
| Instructions | 4        |

```
      00 01 02 03 04 05 06 07  08 09 0A 0B 0C 0D 0E 0F
      -- -- -- -- -- -- -- --  -- -- -- -- -- -- -- --
0040:                                               32                 2
0050: 11 80 1F 00 12 80 13 80  06 80 1F 01 00           .............   
```

#### Opcodes

```
  0: 0x004F [0x32] ExtData[1]->MainSpeed = 13* * 0.1
  1: 0x0052 [0x1F] MOVE_ENTITY: EventEntity moves to X=11.756*, Z=-44.610*, Y=0.000*
  2: 0x005A [0x1F] MOVE_ENTITY: Update entity position (mode=1)
  3: 0x005C [0x00] END_REQSTACK()
```

### Event 65535.6

#### Metadata

| Field        | Value    |
|--------------|----------|
| Entrypoint   | 0x005D   |
| Data Size    | 10 bytes |
| Instructions | 2        |

```
      00 01 02 03 04 05 06 07  08 09 0A 0B 0C 0D 0E 0F
      -- -- -- -- -- -- -- --  -- -- -- -- -- -- -- --
0050:                                         37 14 80               7..
0060: 15 80 06 80 16 80 00                              .......         
```

#### Opcodes

```
  0: 0x005D [0x37] UPDATE_EVENT_POSITION_AND_DIR: x=-1.914*, z=-37.952*, y=0.000*, direction=348.0°*
  1: 0x0066 [0x00] END_REQSTACK()
```

### Event 65535.7

#### Metadata

| Field        | Value    |
|--------------|----------|
| Entrypoint   | 0x0067   |
| Data Size    | 10 bytes |
| Instructions | 2        |

```
      00 01 02 03 04 05 06 07  08 09 0A 0B 0C 0D 0E 0F
      -- -- -- -- -- -- -- --  -- -- -- -- -- -- -- --
0060:                      37  17 80 18 80 06 80 19 80         7........
0070: 00                                                .               
```

#### Opcodes

```
  0: 0x0067 [0x37] UPDATE_EVENT_POSITION_AND_DIR: x=2.269*, z=-28.871*, y=0.000*, direction=128.8°*
  1: 0x0070 [0x00] END_REQSTACK()
```

### Event 65535.8

#### Metadata

| Field        | Value    |
|--------------|----------|
| Entrypoint   | 0x0071   |
| Data Size    | 15 bytes |
| Instructions | 3        |

```
      00 01 02 03 04 05 06 07  08 09 0A 0B 0C 0D 0E 0F
      -- -- -- -- -- -- -- --  -- -- -- -- -- -- -- --
0070:    37 1A 80 1B 80 06 80  1C 80 1E 6F 50 03 01 00   7.........oP...
```

#### Opcodes

```
  0: 0x0071 [0x37] UPDATE_EVENT_POSITION_AND_DIR: x=17.435*, z=-43.153*, y=0.000*, direction=265.9°*
  1: 0x007A [0x1E] EventEntity looks at Elisabeth (ID: 16994415/0x0103506F) and starts talking
  2: 0x007F [0x00] END_REQSTACK()
```
