# 16994357 - Mumuroon

## Common Data

| Field            | Value            |
|------------------|------------------|
| Zone             | Nashmau (ID: 53) |
| Block Size       | 200 bytes        |
| Total Events     | 6                |
| References Count | 15               |

## List of Events

| Event ID                 | Entrypoint   |   Size |   Instructions |
|--------------------------|--------------|--------|----------------|
| [65535](#event-65535)    | 0x0000       |      1 |              1 |
| [262](#event-262)        | 0x0001       |     46 |             14 |
| [305](#event-305)        | 0x002F       |      1 |              1 |
| [65535.1](#event-655351) | 0x0030       |     10 |              2 |
| [65535.2](#event-655352) | 0x003A       |     20 |              4 |
| [65535.3](#event-655353) | 0x004E       |     20 |              4 |

## DAT References (imed_data)

|   Index | Hex Value   |   Dec Value |
|---------|-------------|-------------|
|       0 | 0x2935      |       10549 |
|       1 | 0x2936      |       10550 |
|       2 | 0x00E2      |         226 |
|       3 | 0x0000      |           0 |
|       4 | 0x0078      |         120 |
|       5 | 0x2937      |       10551 |
|       6 | 0x003C      |          60 |
|       7 | 0x2938      |       10552 |
|       8 | 0xFFFFC8D3  |  4294953171 |
|       9 | 0xFFFF5F7A  |  4294926202 |
|      10 | 0x096F      |        2415 |
|      11 | 0xFFFFCC83  |  4294954115 |
|      12 | 0xFFFF5F18  |  4294926104 |
|      13 | 0xFFFFCC8E  |  4294954126 |
|      14 | 0xFFFF6CA8  |  4294929576 |

## String References

- **10549**: Mumuroon buuurning with energy! Feel power of strooong Qiqirn! Mumuroon no want lose to Goblin!
- **10550**: Why? Mumuroon don't knooow. Mumuroon just do!
- **10551**: Loook! Loook! Stronger than Goblin, no?
- **10552**: Goblin have good nose. But Mumuroon have good eyes.

## Events

### Event 65535

#### Metadata

| Field        | Value   |
|--------------|---------|
| Entrypoint   | 0x0000  |
| Data Size    | 1 bytes |
| Instructions | 1       |

```
      00 01 02 03 04 05 06 07  08 09 0A 0B 0C 0D 0E 0F
      -- -- -- -- -- -- -- --  -- -- -- -- -- -- -- --
0000: 00                                                .               
```

#### Opcodes

```
  0: 0x0000 [0x00] END_REQSTACK()
```

### Event 262

#### Metadata

| Field        | Value    |
|--------------|----------|
| Entrypoint   | 0x0001   |
| Data Size    | 46 bytes |
| Instructions | 14       |

```
      00 01 02 03 04 05 06 07  08 09 0A 0B 0C 0D 0E 0F
      -- -- -- -- -- -- -- --  -- -- -- -- -- -- -- --
0000:    1E F0 FF FF 7F 1D 00  80 23 1D 01 80 23 9F 02   ........#...#..
0010: 80 35 50 03 01 40 50 03  01 6D 61 69 6E 03 80 1C  .5P..@P..main...
0020: 04 80 1D 05 80 1C 06 80  23 1D 07 80 23 21 00     ........#...#!. 
```

#### Opcodes

```
  0: 0x0001 [0x1E] EventEntity looks at LocalPlayer and starts talking
  1: 0x0006 [0x1D] PRINT_EVENT_MESSAGE(message_id=10549*)
    → "Mumuroon buuurning with energy! Feel power of strooong Qiqirn! Mumuroon no want lose to Goblin!"
  2: 0x0009 [0x23] WAIT_FOR_DIALOG_INTERACTION
  3: 0x000A [0x1D] PRINT_EVENT_MESSAGE(message_id=10550*)
    → "Why? Mumuroon don't knooow. Mumuroon just do!"
  4: 0x000D [0x23] WAIT_FOR_DIALOG_INTERACTION
  5: 0x000E [0x9F] LOAD_SCHEDULED_TASK_ALT: Load scheduler "main" with entities [Mumuroon (ID: 16994357/0x01035035), Unnamed NPC (ID: 16994368/0x01035040)], work=[226*, 0*]
  6: 0x001F [0x1C] WAIT(120* ticks)
  7: 0x0022 [0x1D] PRINT_EVENT_MESSAGE(message_id=10551*)
    → "Loook! Loook! Stronger than Goblin, no?"
  8: 0x0025 [0x1C] WAIT(60* ticks)
  9: 0x0028 [0x23] WAIT_FOR_DIALOG_INTERACTION
 10: 0x0029 [0x1D] PRINT_EVENT_MESSAGE(message_id=10552*)
    → "Goblin have good nose. But Mumuroon have good eyes."
 11: 0x002C [0x23] WAIT_FOR_DIALOG_INTERACTION
 12: 0x002D [0x21] END_EVENT
 13: 0x002E [0x00] END_REQSTACK()
```

### Event 305

#### Metadata

| Field        | Value   |
|--------------|---------|
| Entrypoint   | 0x002F  |
| Data Size    | 1 bytes |
| Instructions | 1       |

```
      00 01 02 03 04 05 06 07  08 09 0A 0B 0C 0D 0E 0F
      -- -- -- -- -- -- -- --  -- -- -- -- -- -- -- --
0020:                                               00                 .
```

#### Opcodes

```
  0: 0x002F [0x00] END_REQSTACK()
```

### Event 65535.1

#### Metadata

| Field        | Value    |
|--------------|----------|
| Entrypoint   | 0x0030   |
| Data Size    | 10 bytes |
| Instructions | 2        |

```
      00 01 02 03 04 05 06 07  08 09 0A 0B 0C 0D 0E 0F
      -- -- -- -- -- -- -- --  -- -- -- -- -- -- -- --
0030: 37 08 80 09 80 03 80 0A  80 00                    7.........      
```

#### Opcodes

```
  0: 0x0030 [0x37] UPDATE_EVENT_POSITION_AND_DIR: x=-14.125*, z=-41.094*, y=0.000*, direction=212.2°*
  1: 0x0039 [0x00] END_REQSTACK()
```

### Event 65535.2

#### Metadata

| Field        | Value    |
|--------------|----------|
| Entrypoint   | 0x003A   |
| Data Size    | 20 bytes |
| Instructions | 4        |

```
      00 01 02 03 04 05 06 07  08 09 0A 0B 0C 0D 0E 0F
      -- -- -- -- -- -- -- --  -- -- -- -- -- -- -- --
0030:                                1F 00 0B 80 0C 80            ......
0040: 03 80 1F 01 4A 35 50 03  01 F0 FF FF 7F 00        ....J5P.......  
```

#### Opcodes

```
  0: 0x003A [0x1F] MOVE_ENTITY: EventEntity moves to X=-13.181*, Z=-41.192*, Y=0.000*
  1: 0x0042 [0x1F] MOVE_ENTITY: Update entity position (mode=1)
  2: 0x0044 [0x4A] Mumuroon (ID: 16994357/0x01035035) looks at LocalPlayer
  3: 0x004D [0x00] END_REQSTACK()
```

### Event 65535.3

#### Metadata

| Field        | Value    |
|--------------|----------|
| Entrypoint   | 0x004E   |
| Data Size    | 20 bytes |
| Instructions | 4        |

```
      00 01 02 03 04 05 06 07  08 09 0A 0B 0C 0D 0E 0F
      -- -- -- -- -- -- -- --  -- -- -- -- -- -- -- --
0040:                                            1F 00                ..
0050: 0D 80 0E 80 03 80 1F 01  4A 35 50 03 01 78 50 03  ........J5P..xP.
0060: 01 00                                             ..              
```

#### Opcodes

```
  0: 0x004E [0x1F] MOVE_ENTITY: EventEntity moves to X=-13.170*, Z=-37.720*, Y=0.000*
  1: 0x0056 [0x1F] MOVE_ENTITY: Update entity position (mode=1)
  2: 0x0058 [0x4A] Mumuroon (ID: 16994357/0x01035035) looks at Galiwao (ID: 16994424/0x01035078)
  3: 0x0061 [0x00] END_REQSTACK()
```
