# 16994418

## Common Data

| Field            | Value            |
|------------------|------------------|
| Zone             | Nashmau (ID: 53) |
| Block Size       | 8384 bytes       |
| Total Events     | 3                |
| References Count | 146              |

## List of Events

| Event ID              | Entrypoint   |   Size |   Instructions |
|-----------------------|--------------|--------|----------------|
| [65535](#event-65535) | 0x0000       |      1 |              1 |
| [293](#event-293)     | 0x0001       |   3073 |            391 |
| [294](#event-294)     | 0x0C02       |   4696 |            605 |

## DAT References (imed_data)

|   Index | Hex Value   |   Dec Value |
|---------|-------------|-------------|
|       0 | 0x0013      |          19 |
|       1 | 0x0117      |         279 |
|       2 | 0x0000      |           0 |
|       3 | 0x0078      |         120 |
|       4 | 0x0050      |          80 |
|       5 | 0x001E      |          30 |
|       6 | 0x2B6E      |       11118 |
|       7 | 0x0037      |          55 |
|       8 | 0x002D      |          45 |
|       9 | 0x2B6F      |       11119 |
|      10 | 0x0046      |          70 |
|      11 | 0x2B70      |       11120 |
|      12 | 0x2B71      |       11121 |
|      13 | 0x2B72      |       11122 |
|      14 | 0x0034      |          52 |
|      15 | 0x2B73      |       11123 |
|      16 | 0x2B74      |       11124 |
|      17 | 0x0008      |           8 |
|      18 | 0x2B75      |       11125 |
|      19 | 0x005A      |          90 |
|      20 | 0x2B76      |       11126 |
|      21 | 0x2B77      |       11127 |
|      22 | 0x0033      |          51 |
|      23 | 0x2B78      |       11128 |
|      24 | 0x2B79      |       11129 |
|      25 | 0x2B7A      |       11130 |
|      26 | 0x2B7B      |       11131 |
|      27 | 0x000F      |          15 |
|      28 | 0x0015      |          21 |
|      29 | 0x2B7C      |       11132 |
|      30 | 0x003C      |          60 |
|      31 | 0x00F0      |         240 |
|      32 | 0x00C8      |         200 |
|      33 | 0x012C      |         300 |
|      34 | 0x2B7D      |       11133 |
|      35 | 0x2B7E      |       11134 |
|      36 | 0x2B7F      |       11135 |
|      37 | 0x2B80      |       11136 |
|      38 | 0x2B81      |       11137 |
|      39 | 0x2B82      |       11138 |
|      40 | 0x00B4      |         180 |
|      41 | 0x007F      |         127 |
|      42 | 0x2B83      |       11139 |
|      43 | 0x0035      |          53 |
|      44 | 0x2B84      |       11140 |
|      45 | 0x2B85      |       11141 |
|      46 | 0x2B86      |       11142 |
|      47 | 0x2B87      |       11143 |
|      48 | 0x2B88      |       11144 |
|      49 | 0x2B89      |       11145 |
|      50 | 0x2B8A      |       11146 |
|      51 | 0x2B8B      |       11147 |
|      52 | 0x2B8C      |       11148 |
|      53 | 0x2B8D      |       11149 |
|      54 | 0x2B8E      |       11150 |
|      55 | 0x2B8F      |       11151 |
|      56 | 0x2B90      |       11152 |
|      57 | 0x2B91      |       11153 |
|      58 | 0x0001      |           1 |
|      59 | 0x2B92      |       11154 |
|      60 | 0x2B93      |       11155 |
|      61 | 0x2B94      |       11156 |
|      62 | 0x2B95      |       11157 |
|      63 | 0x2B96      |       11158 |
|      64 | 0x2B97      |       11159 |
|      65 | 0x2B98      |       11160 |
|      66 | 0x2B99      |       11161 |
|      67 | 0x2B9A      |       11162 |
|      68 | 0x2B9B      |       11163 |
|      69 | 0x2B9C      |       11164 |
|      70 | 0x2B9E      |       11166 |
|      71 | 0x2B9F      |       11167 |
|      72 | 0x2BA0      |       11168 |
|      73 | 0x2BA1      |       11169 |
|      74 | 0x2BA2      |       11170 |
|      75 | 0x2BA3      |       11171 |
|      76 | 0x0006      |           6 |
|      77 | 0x2BA4      |       11172 |
|      78 | 0x2BA5      |       11173 |
|      79 | 0x15D2      |        5586 |
|      80 | 0x2BA6      |       11174 |
|      81 | 0x2BA7      |       11175 |
|      82 | 0x2BA8      |       11176 |
|      83 | 0x2BA9      |       11177 |
|      84 | 0x2BAA      |       11178 |
|      85 | 0x0009      |           9 |
|      86 | 0x2BAB      |       11179 |
|      87 | 0x2BAC      |       11180 |
|      88 | 0x2BAD      |       11181 |
|      89 | 0x2BAE      |       11182 |
|      90 | 0x2BAF      |       11183 |
|      91 | 0x2BB0      |       11184 |
|      92 | 0x0007      |           7 |
|      93 | 0x2BB1      |       11185 |
|      94 | 0x2BB2      |       11186 |
|      95 | 0x2BB3      |       11187 |
|      96 | 0x35C5      |       13765 |
|      97 | 0x110DA     |       69850 |
|      98 | 0xFFFFE891  |  4294961297 |
|      99 | 0x0097      |         151 |
|     100 | 0x2BB4      |       11188 |
|     101 | 0x2BB5      |       11189 |
|     102 | 0x2BB6      |       11190 |
|     103 | 0x2BB7      |       11191 |
|     104 | 0x2BB8      |       11192 |
|     105 | 0x2BB9      |       11193 |
|     106 | 0x2BBA      |       11194 |
|     107 | 0x0003      |           3 |
|     108 | 0x2BBB      |       11195 |
|     109 | 0x2BBC      |       11196 |
|     110 | 0x2BBD      |       11197 |
|     111 | 0x2BBE      |       11198 |
|     112 | 0x034A      |         842 |
|     113 | 0x2BBF      |       11199 |
|     114 | 0x2BC0      |       11200 |
|     115 | 0x034B      |         843 |
|     116 | 0x2BC1      |       11201 |
|     117 | 0x0371      |         881 |
|     118 | 0x2BC2      |       11202 |
|     119 | 0x2BC3      |       11203 |
|     120 | 0x2BC4      |       11204 |
|     121 | 0x2BC5      |       11205 |
|     122 | 0x2BC6      |       11206 |
|     123 | 0x2BC7      |       11207 |
|     124 | 0x2BC8      |       11208 |
|     125 | 0x2BC9      |       11209 |
|     126 | 0x2BCA      |       11210 |
|     127 | 0x000B      |          11 |
|     128 | 0x2BCB      |       11211 |
|     129 | 0x2BCC      |       11212 |
|     130 | 0x2BCD      |       11213 |
|     131 | 0x2BCE      |       11214 |
|     132 | 0x2BCF      |       11215 |
|     133 | 0x2BD0      |       11216 |
|     134 | 0x2BD1      |       11217 |
|     135 | 0x2BD2      |       11218 |
|     136 | 0x2BD3      |       11219 |
|     137 | 0x2BD4      |       11220 |
|     138 | 0x2BD5      |       11221 |
|     139 | 0x2BD6      |       11222 |
|     140 | 0x2BD7      |       11223 |
|     141 | 0x2BD8      |       11224 |
|     142 | 0x2BD9      |       11225 |
|     143 | 0x0032      |          50 |
|     144 | 0x2BDA      |       11226 |
|     145 | 0x00C9      |         201 |

## String References

- **11153**: Search for her son? [Not much choice, is there?/What a pain...]

## Events

### Event 65535

#### Metadata

| Field        | Value   |
|--------------|---------|
| Entrypoint   | 0x0000  |
| Data Size    | 1 bytes |
| Instructions | 1       |

```
      00 01 02 03 04 05 06 07  08 09 0A 0B 0C 0D 0E 0F
      -- -- -- -- -- -- -- --  -- -- -- -- -- -- -- --
0000: 00                                                .               
```

#### Opcodes

```
  0: 0x0000 [0x00] END_REQSTACK()
```

### Event 293

#### Metadata

| Field        | Value      |
|--------------|------------|
| Entrypoint   | 0x0001     |
| Data Size    | 3073 bytes |
| Instructions | 390        |

```
      00 01 02 03 04 05 06 07  08 09 0A 0B 0C 0D 0E 0F
      -- -- -- -- -- -- -- --  -- -- -- -- -- -- -- --
0000:    42 1A A0 1D 46 01 38  00 80 4E 00 73 50 03 01   B...F.8..N.sP..
0010: 2F 00 73 50 03 01 29 0A  F0 FF FF 7F 24 92 01 73  /.sP..).....$..s
0020: 50 03 01 92 01 31 50 03  01 80 73 50 03 01 80 31  P....1P...sP...1
0030: 50 03 01 45 01 80 F8 FF  FF 7F F8 FF FF 7F 73 30  P..E..........s0
0040: 30 30 02 80 1C 03 80 1A  F4 1D 1C 04 80 4A 73 50  00...........JsP
0050: 03 01 F0 FF FF 7F 6F 76  73 50 03 01 1C 05 80 2B  ......ovsP.....+
0060: 73 50 03 01 06 80 23 1C  05 80 52 01 80 F8 FF FF  sP....#...R.....
0070: 7F F8 FF FF 7F 73 30 30  30 66 07 80 31 50 03 01  .....s000f..1P..
0080: 31 50 03 01 74 6C 6B 30  45 01 80 F8 FF FF 7F F8  1P..tlk0E.......
0090: FF FF 7F 73 30 30 31 02  80 4A 73 50 03 01 31 50  ...s001..JsP..1P
00A0: 03 01 1C 08 80 2B 31 50  03 01 09 80 23 1C 05 80  .....+1P....#...
00B0: 5B 0A 80 73 50 03 01 73  50 03 01 74 6C 6B 30 52  [..sP..sP..tlk0R
00C0: 01 80 F8 FF FF 7F F8 FF  FF 7F 73 30 30 31 45 01  ..........s001E.
00D0: 80 F8 FF FF 7F F8 FF FF  7F 73 30 30 32 02 80 66  .........s002..f
00E0: 07 80 31 50 03 01 31 50  03 01 74 6C 6B 31 1C 05  ..1P..1P..tlk1..
00F0: 80 2B 73 50 03 01 0B 80  23 2B 73 50 03 01 0C 80  .+sP....#+sP....
0100: 23 1C 05 80 52 01 80 F8  FF FF 7F F8 FF FF 7F 73  #...R..........s
0110: 30 30 32 45 01 80 F8 FF  FF 7F F8 FF FF 7F 73 30  002E..........s0
0120: 32 33 02 80 5B 0A 80 73  50 03 01 73 50 03 01 73  23..[..sP..sP..s
0130: 74 64 30 1C 08 80 2B 31  50 03 01 0D 80 23 1C 05  td0...+1P....#..
0140: 80 66 0E 80 31 50 03 01  31 50 03 01 64 69 73 30  .f..1P..1P..dis0
0150: 52 01 80 F8 FF FF 7F F8  FF FF 7F 73 30 32 33 45  R..........s023E
0160: 01 80 F8 FF FF 7F F8 FF  FF 7F 73 30 30 33 02 80  ..........s003..
0170: 1C 05 80 2B 31 50 03 01  0F 80 23 27 10 73 50 03  ...+1P....#'.sP.
0180: 01 02 1C 08 80 5B 0A 80  73 50 03 01 73 50 03 01  .....[..sP..sP..
0190: 74 6C 6B 30 2B 73 50 03  01 10 80 23 1C 05 80 66  tlk0+sP....#...f
01A0: 11 80 31 50 03 01 31 50  03 01 61 6E 67 30 2B 31  ..1P..1P..ang0+1
01B0: 50 03 01 12 80 23 1C 13  80 5B 0A 80 73 50 03 01  P....#...[..sP..
01C0: 73 50 03 01 73 74 64 30  52 01 80 F8 FF FF 7F F8  sP..std0R.......
01D0: FF FF 7F 73 30 30 33 45  01 80 F8 FF FF 7F F8 FF  ...s003E........
01E0: FF 7F 73 30 30 34 02 80  1C 05 80 66 0E 80 31 50  ..s004.....f..1P
01F0: 03 01 31 50 03 01 70 6F  69 31 2B 31 50 03 01 14  ..1P..poi1+1P...
0200: 80 23 1C 05 80 52 01 80  F8 FF FF 7F F8 FF FF 7F  .#...R..........
0210: 73 30 30 34 45 01 80 F8  FF FF 7F F8 FF FF 7F 73  s004E..........s
0220: 30 30 35 02 80 66 0E 80  31 50 03 01 31 50 03 01  005..f..1P..1P..
0230: 70 6F 69 32 5B 0A 80 73  50 03 01 73 50 03 01 74  poi2[..sP..sP..t
0240: 6C 62 30 1C 05 80 2B 73  50 03 01 15 80 23 1C 05  lb0...+sP....#..
0250: 80 52 01 80 F8 FF FF 7F  F8 FF FF 7F 73 30 30 35  .R..........s005
0260: 45 01 80 F8 FF FF 7F F8  FF FF 7F 73 30 30 36 02  E..........s006.
0270: 80 66 16 80 31 50 03 01  31 50 03 01 74 68 6B 30  .f..1P..1P..thk0
0280: 2B 31 50 03 01 17 80 23  1C 05 80 2B 31 50 03 01  +1P....#...+1P..
0290: 18 80 23 1C 05 80 52 01  80 F8 FF FF 7F F8 FF FF  ..#...R.........
02A0: 7F 73 30 30 36 45 01 80  F8 FF FF 7F F8 FF FF 7F  .s006E..........
02B0: 73 30 32 34 02 80 1C 05  80 2B 73 50 03 01 19 80  s024.....+sP....
02C0: 23 1C 08 80 5B 0A 80 73  50 03 01 73 50 03 01 74  #...[..sP..sP..t
02D0: 6C 62 31 52 01 80 F8 FF  FF 7F F8 FF FF 7F 73 30  lb1R..........s0
02E0: 32 34 45 01 80 F8 FF FF  7F F8 FF FF 7F 73 30 30  24E..........s00
02F0: 37 02 80 1C 05 80 5B 0A  80 73 50 03 01 73 50 03  7.....[..sP..sP.
0300: 01 74 6C 6B 30 66 11 80  31 50 03 01 31 50 03 01  .tlk0f..1P..1P..
0310: 61 77 77 30 27 11 73 50  03 01 03 2B 73 50 03 01  aww0'.sP...+sP..
0320: 1A 80 23 1C 05 80 27 0F  31 50 03 01 03 1C 1B 80  ..#...'.1P......
0330: 27 12 73 50 03 01 04 52  01 80 F8 FF FF 7F F8 FF  '.sP...R........
0340: FF 7F 73 30 30 37 45 01  80 F8 FF FF 7F F8 FF FF  ..s007E.........
0350: 7F 73 30 30 38 02 80 4A  F0 FF FF 7F 73 50 03 01  .s008..J....sP..
0360: 1C 05 80 6E F0 FF FF 7F  1C 80 99 F0 FF FF 7F 2B  ...n...........+
0370: 31 50 03 01 1D 80 23 1C  13 80 27 32 F0 FF FF 7F  1P....#...'2....
0380: 26 1C 1E 80 1A 8B 1D 52  01 80 F8 FF FF 7F F8 FF  &......R........
0390: FF 7F 73 30 30 38 2A 32  F0 FF FF 7F 29 32 31 50  ..s008*2....)21P
03A0: 03 01 04 29 32 73 50 03  01 05 29 32 F0 FF FF 7F  ...)2sP...)2....
03B0: 25 4A 31 50 03 01 F0 FF  FF 7F 4A F0 FF FF 7F 31  %J1P......J....1
03C0: 50 03 01 5B 0A 80 73 50  03 01 73 50 03 01 74 6C  P..[..sP..sP..tl
03D0: 6B 30 66 11 80 31 50 03  01 31 50 03 01 61 66 72  k0f..1P..1P..afr
03E0: 30 1C 1F 80 45 01 80 F8  FF FF 7F F8 FF FF 7F 73  0...E..........s
03F0: 30 36 32 02 80 45 20 80  F8 FF FF 7F F8 FF FF 7F  062..E .........
0400: 66 64 69 32 02 80 1C 21  80 52 01 80 F8 FF FF 7F  fdi2...!.R......
0410: F8 FF FF 7F 73 30 36 32  45 01 80 F8 FF FF 7F F8  ....s062E.......
0420: FF FF 7F 73 30 30 39 02  80 1C 1E 80 2B 31 50 03  ...s009.....+1P.
0430: 01 22 80 23 1C 05 80 66  11 80 31 50 03 01 31 50  .".#...f..1P..1P
0440: 03 01 61 66 72 31 2B 31  50 03 01 23 80 23 5B 0A  ..afr1+1P..#.#[.
0450: 80 73 50 03 01 73 50 03  01 73 74 64 30 1C 08 80  .sP..sP..std0...
0460: 4A 73 50 03 01 31 50 03  01 1C 05 80 4A 31 50 03  JsP..1P.....J1P.
0470: 01 73 50 03 01 1C 1B 80  4A F0 FF FF 7F 73 50 03  .sP.....J....sP.
0480: 01 2B 73 50 03 01 24 80  23 52 01 80 F8 FF FF 7F  .+sP..$.#R......
0490: F8 FF FF 7F 73 30 30 39  45 01 80 F8 FF FF 7F F8  ....s009E.......
04A0: FF FF 7F 73 30 31 30 02  80 5B 0A 80 73 50 03 01  ...s010..[..sP..
04B0: 73 50 03 01 74 6C 61 30  1C 05 80 2B 73 50 03 01  sP..tla0...+sP..
04C0: 25 80 23 1C 05 80 2B 73  50 03 01 26 80 23 5B 0A  %.#...+sP..&.#[.
04D0: 80 73 50 03 01 73 50 03  01 74 6C 61 31 1C 05 80  .sP..sP..tla1...
04E0: 52 01 80 F8 FF FF 7F F8  FF FF 7F 73 30 31 30 45  R..........s010E
04F0: 01 80 F8 FF FF 7F F8 FF  FF 7F 73 30 31 31 02 80  ..........s011..
0500: 27 16 73 50 03 01 06 2B  73 50 03 01 27 80 23 2A  '.sP...+sP..'.#*
0510: 16 73 50 03 01 1C 05 80  81 00 73 50 03 01 52 01  .sP.......sP..R.
0520: 80 F8 FF FF 7F F8 FF FF  7F 73 30 31 31 45 01 80  .........s011E..
0530: F8 FF FF 7F F8 FF FF 7F  73 31 38 34 02 80 5B 0A  ........s184..[.
0540: 80 73 50 03 01 73 50 03  01 6F 72 6F 30 1C 28 80  .sP..sP..oro0.(.
0550: 52 01 80 F8 FF FF 7F F8  FF FF 7F 73 31 38 34 45  R..........s184E
0560: 01 80 F8 FF FF 7F F8 FF  FF 7F 73 31 38 33 02 80  ..........s183..
0570: 9F 29 80 F8 FF FF 7F F8  FF FF 7F 73 74 72 30 02  .).........str0.
0580: 80 2B 73 50 03 01 2A 80  1C 1E 80 9F 29 80 F8 FF  .+sP..*.....)...
0590: FF 7F F8 FF FF 7F 6B 69  6C 6C 02 80 1C 1E 80 55  ......kill.....U
05A0: 01 80 F8 FF FF 7F F8 FF  FF 7F 73 31 38 33 27 17  ..........s183'.
05B0: 31 50 03 01 05 45 01 80  F8 FF FF 7F F8 FF FF 7F  1P...E..........
05C0: 73 30 31 32 02 80 1C 1E  80 4A 31 50 03 01 F0 FF  s012.....J1P....
05D0: FF 7F 1C 05 80 66 2B 80  31 50 03 01 31 50 03 01  .....f+.1P..1P..
05E0: 74 6C 62 31 4A F0 FF FF  7F 31 50 03 01 6F 76 F0  tlb1J....1P..ov.
05F0: FF FF 7F 2B 31 50 03 01  2C 80 23 1C 1E 80 52 01  ...+1P..,.#...R.
0600: 80 F8 FF FF 7F F8 FF FF  7F 73 30 31 32 45 01 80  .........s012E..
0610: F8 FF FF 7F F8 FF FF 7F  64 31 33 35 02 80 1C 05  ........d135....
0620: 80 81 01 73 50 03 01 5B  0A 80 73 50 03 01 73 50  ...sP..[..sP..sP
0630: 03 01 6F 72 6F 31 2B 31  50 03 01 2D 80 23 1C 05  ..oro1+1P..-.#..
0640: 80 66 2B 80 31 50 03 01  31 50 03 01 74 6C 62 32  .f+.1P..1P..tlb2
0650: 52 01 80 F8 FF FF 7F F8  FF FF 7F 64 31 33 35 45  R..........d135E
0660: 01 80 F8 FF FF 7F F8 FF  FF 7F 64 31 33 36 02 80  ..........d136..
0670: 1C 08 80 5B 0A 80 73 50  03 01 73 50 03 01 74 6C  ...[..sP..sP..tl
0680: 6B 30 1C 05 80 4A 31 50  03 01 73 50 03 01 1C 05  k0...J1P..sP....
0690: 80 4A F0 FF FF 7F 73 50  03 01 2B 73 50 03 01 2E  .J....sP..+sP...
06A0: 80 23 66 11 80 31 50 03  01 31 50 03 01 61 77 77  .#f..1P..1P..aww
06B0: 30 2B 31 50 03 01 2F 80  23 5B 0A 80 73 50 03 01  0+1P../.#[..sP..
06C0: 73 50 03 01 73 74 64 30  53 73 50 03 01 73 50 03  sP..std0SsP..sP.
06D0: 01 73 74 64 30 1C 05 80  52 01 80 F8 FF FF 7F F8  .std0...R.......
06E0: FF FF 7F 64 31 33 36 45  01 80 F8 FF FF 7F F8 FF  ...d136E........
06F0: FF 7F 73 30 31 33 02 80  1C 08 80 4A 73 50 03 01  ..s013.....JsP..
0700: F0 FF FF 7F 4A 31 50 03  01 F0 FF FF 7F 1C 1E 80  ....J1P.........
0710: 5B 0A 80 73 50 03 01 73  50 03 01 74 68 6B 31 1C  [..sP..sP..thk1.
0720: 1E 80 2B 73 50 03 01 30  80 23 1C 05 80 52 01 80  ..+sP..0.#...R..
0730: F8 FF FF 7F F8 FF FF 7F  73 30 31 33 45 01 80 F8  ........s013E...
0740: FF FF 7F F8 FF FF 7F 73  30 31 34 02 80 5B 0A 80  .......s014..[..
0750: 73 50 03 01 73 50 03 01  74 68 6B 32 1C 05 80 4A  sP..sP..thk2...J
0760: 73 50 03 01 31 50 03 01  1C 05 80 4A 31 50 03 01  sP..1P.....J1P..
0770: 73 50 03 01 1C 05 80 2B  73 50 03 01 31 80 23 66  sP.....+sP..1.#f
0780: 16 80 31 50 03 01 31 50  03 01 74 68 6B 31 1C 05  ..1P..1P..thk1..
0790: 80 2B 31 50 03 01 32 80  23 4A 73 50 03 01 F0 FF  .+1P..2.#JsP....
07A0: FF 7F 6F 76 73 50 03 01  66 16 80 31 50 03 01 31  ..ovsP..f..1P..1
07B0: 50 03 01 74 68 6B 32 52  01 80 F8 FF FF 7F F8 FF  P..thk2R........
07C0: FF 7F 73 30 31 34 45 01  80 F8 FF FF 7F F8 FF FF  ..s014E.........
07D0: 7F 73 30 31 35 02 80 27  18 73 50 03 01 07 6E F0  .s015..'.sP...n.
07E0: FF FF 7F 1C 80 99 F0 FF  FF 7F 1C 05 80 2B 73 50  .............+sP
07F0: 03 01 33 80 23 1C 05 80  5B 0A 80 73 50 03 01 73  ..3.#...[..sP..s
0800: 50 03 01 74 6C 63 30 1C  1E 80 52 01 80 F8 FF FF  P..tlc0...R.....
0810: 7F F8 FF FF 7F 73 30 31  35 45 01 80 F8 FF FF 7F  .....s015E......
0820: F8 FF FF 7F 73 30 31 36  02 80 1C 1E 80 2B 73 50  ....s016.....+sP
0830: 03 01 34 80 23 1C 05 80  2B 73 50 03 01 35 80 23  ..4.#...+sP..5.#
0840: 1C 05 80 52 01 80 F8 FF  FF 7F F8 FF FF 7F 73 30  ...R..........s0
0850: 31 36 45 01 80 F8 FF FF  7F F8 FF FF 7F 73 30 31  16E..........s01
0860: 37 02 80 1C 1E 80 4A 31  50 03 01 F0 FF FF 7F 1C  7.....J1P.......
0870: 05 80 4A F0 FF FF 7F 31  50 03 01 66 0E 80 31 50  ..J....1P..f..1P
0880: 03 01 31 50 03 01 64 69  73 30 1C 05 80 2B 31 50  ..1P..dis0...+1P
0890: 03 01 36 80 23 1C 05 80  2B 31 50 03 01 37 80 23  ..6.#...+1P..7.#
08A0: 53 31 50 03 01 31 50 03  01 64 69 73 30 52 01 80  S1P..1P..dis0R..
08B0: F8 FF FF 7F F8 FF FF 7F  73 30 31 37 45 01 80 F8  ........s017E...
08C0: FF FF 7F F8 FF FF 7F 64  31 33 37 02 80 1C 05 80  .......d137.....
08D0: 2B 31 50 03 01 38 80 23  52 01 80 F8 FF FF 7F F8  +1P..8.#R.......
08E0: FF FF 7F 64 31 33 37 45  01 80 F8 FF FF 7F F8 FF  ...d137E........
08F0: FF 7F 64 31 33 39 02 80  24 39 80 02 80 02 80 25  ..d139..$9.....%
0900: 02 00 10 3A 80 00 49 09  5B 0A 80 73 50 03 01 73  ...:..I.[..sP..s
0910: 50 03 01 74 6C 6B 30 4A  F0 FF FF 7F 73 50 03 01  P..tlk0J....sP..
0920: 2B 73 50 03 01 3B 80 23  4A F0 FF FF 7F 31 50 03  +sP..;.#J....1P.
0930: 01 5B 0A 80 73 50 03 01  73 50 03 01 73 74 64 30  .[..sP..sP..std0
0940: 1C 1E 80 01 F8 08 01 49  09 52 01 80 F8 FF FF 7F  .......I.R......
0950: F8 FF FF 7F 64 31 33 39  45 01 80 F8 FF FF 7F F8  ....d139E.......
0960: FF FF 7F 73 30 31 38 02  80 1C 05 80 5B 0A 80 73  ...s018.....[..s
0970: 50 03 01 73 50 03 01 74  6C 63 30 4A F0 FF FF 7F  P..sP..tlc0J....
0980: 73 50 03 01 1C 05 80 2B  73 50 03 01 3C 80 23 1C  sP.....+sP..<.#.
0990: 05 80 52 01 80 F8 FF FF  7F F8 FF FF 7F 73 30 31  ..R..........s01
09A0: 38 45 01 80 F8 FF FF 7F  F8 FF FF 7F 73 30 31 39  8E..........s019
09B0: 02 80 1C 05 80 66 2B 80  31 50 03 01 31 50 03 01  .....f+.1P..1P..
09C0: 74 6C 62 31 4A F0 FF FF  7F 31 50 03 01 1C 1E 80  tlb1J....1P.....
09D0: 5B 0A 80 73 50 03 01 73  50 03 01 74 6C 63 31 2B  [..sP..sP..tlc1+
09E0: 31 50 03 01 3D 80 23 79  00 73 50 03 01 31 50 03  1P..=.#y.sP..1P.
09F0: 01 1C 05 80 2B 31 50 03  01 3E 80 23 66 2B 80 31  ....+1P..>.#f+.1
0A00: 50 03 01 31 50 03 01 74  6C 62 32 4A 73 50 03 01  P..1P..tlb2JsP..
0A10: 31 50 03 01 1C 08 80 4A  31 50 03 01 73 50 03 01  1P.....J1P..sP..
0A20: 2B 73 50 03 01 3F 80 23  1C 05 80 52 01 80 F8 FF  +sP..?.#...R....
0A30: FF 7F F8 FF FF 7F 73 30  31 39 45 01 80 F8 FF FF  ......s019E.....
0A40: 7F F8 FF FF 7F 73 30 32  30 02 80 4A 31 50 03 01  .....s020..J1P..
0A50: F0 FF FF 7F 4A F0 FF FF  7F 31 50 03 01 1C 1E 80  ....J....1P.....
0A60: 7C 00 31 50 03 01 2B 31  50 03 01 40 80 23 2B 31  |.1P..+1P..@.#+1
0A70: 50 03 01 41 80 23 7C 01  31 50 03 01 1C 05 80 52  P..A.#|.1P.....R
0A80: 01 80 F8 FF FF 7F F8 FF  FF 7F 73 30 32 30 45 01  ..........s020E.
0A90: 80 F8 FF FF 7F F8 FF FF  7F 73 30 32 31 02 80 1C  .........s021...
0AA0: 1E 80 5B 0A 80 73 50 03  01 73 50 03 01 74 6C 6B  ..[..sP..sP..tlk
0AB0: 30 4A 31 50 03 01 73 50  03 01 1C 05 80 66 11 80  0J1P..sP.....f..
0AC0: 31 50 03 01 31 50 03 01  61 77 77 30 2B 73 50 03  1P..1P..aww0+sP.
0AD0: 01 2E 80 23 53 31 50 03  01 31 50 03 01 61 77 77  ...#S1P..1P..aww
0AE0: 30 66 11 80 31 50 03 01  31 50 03 01 61 66 72 30  0f..1P..1P..afr0
0AF0: 7C 00 31 50 03 01 2B 31  50 03 01 42 80 23 7C 01  |.1P..+1P..B.#|.
0B00: 31 50 03 01 1C 05 80 66  11 80 31 50 03 01 31 50  1P.....f..1P..1P
0B10: 03 01 61 66 72 31 5B 0A  80 73 50 03 01 73 50 03  ..afr1[..sP..sP.
0B20: 01 73 74 64 30 52 01 80  F8 FF FF 7F F8 FF FF 7F  .std0R..........
0B30: 73 30 32 31 45 01 80 F8  FF FF 7F F8 FF FF 7F 73  s021E..........s
0B40: 30 32 32 02 80 1C 1E 80  4A 73 50 03 01 F0 FF FF  022.....JsP.....
0B50: 7F 1C 05 80 5B 0A 80 73  50 03 01 73 50 03 01 74  ....[..sP..sP..t
0B60: 6C 6B 30 1C 05 80 4A F0  FF FF 7F 73 50 03 01 2B  lk0...J....sP..+
0B70: 73 50 03 01 43 80 23 5B  0A 80 73 50 03 01 73 50  sP..C.#[..sP..sP
0B80: 03 01 73 74 64 30 1C 05  80 2B 73 50 03 01 44 80  ..std0...+sP..D.
0B90: 23 1C 05 80 52 01 80 F8  FF FF 7F F8 FF FF 7F 73  #...R..........s
0BA0: 30 32 32 45 01 80 F8 FF  FF 7F F8 FF FF 7F 64 31  022E..........d1
0BB0: 33 38 02 80 4A 31 50 03  01 F0 FF FF 7F 1C 05 80  38..J1P.........
0BC0: 4A F0 FF FF 7F 31 50 03  01 2B 31 50 03 01 45 80  J....1P..+1P..E.
0BD0: 23 1C 05 80 66 0E 80 31  50 03 01 31 50 03 01 77  #...f..1P..1P..w
0BE0: 61 76 30 1C 1E 80 1A A0  1D 52 01 80 F8 FF FF 7F  av0......R......
0BF0: F8 FF FF 7F 64 31 33 38  1C 1E 80 1A F4 1D 46 00  ....d138......F.
0C00: 21 00                                             !.              
```

#### Opcodes

```
  0: 0x0001 [0x42] SET_CLI_EVENT_CANCEL_DATA()
  1: 0x0002 [0x1A] CALL_SUBROUTINE(address=0x1DA0)
  2: 0x0005 [0x46] CAMERA_CONTROL: Disable user control
  3: 0x0007 [0x38] SET_CLIENT_EVENT_MODE(mode=19*)
  4: 0x000A [0x4E] SET_ENTITY_HIDE_FLAG: Show Wadayra (ID: 16994419/0x01035073)
  5: 0x0010 [0x2F] Wadayra (ID: 16994419/0x01035073)->Render.Flags0 &= ~0x80000 // Bit 19
  6: 0x0016 [0x29] REQ_SET_WAIT(priority=0x0A, entity_id=LocalPlayer, tag_num=0x24)
  7: 0x001D [0x92] Wadayra (ID: 16994419/0x01035073)->Render.Flags3 ^= 0x01
  8: 0x0023 [0x92] Fhe Maksojha (ID: 16994353/0x01035031)->Render.Flags3 ^= 0x01
  9: 0x0029 [0x80] LOAD_WAIT(entity=Wadayra (ID: 16994419/0x01035073))
 10: 0x002E [0x80] LOAD_WAIT(entity=Fhe Maksojha (ID: 16994353/0x01035031))
 11: 0x0033 [0x45] LOAD_SCHEDULED_TASK: Load scheduler "s000" with entities [EventEntity, EventEntity], work=[279*, 0*]
 12: 0x0044 [0x1C] WAIT(120* ticks)
 13: 0x0047 [0x1A] CALL_SUBROUTINE(address=0x1DF4)
 14: 0x004A [0x1C] WAIT(80* ticks)
 15: 0x004D [0x4A] Wadayra (ID: 16994419/0x01035073) looks at LocalPlayer
 16: 0x0056 [0x6F] WAIT_FRAME_DELAY: Yield until WaitTime reaches zero
 17: 0x0057 [0x76] CHECK_ENTITY_RENDER_FLAGS: Wait until Wadayra (ID: 16994419/0x01035073) Render.Flags0 and Render.Flags3 conditions are met
 18: 0x005C [0x1C] WAIT(30* ticks)
 19: 0x005F [0x2B] Wadayra (ID: 16994419/0x01035073) [11118*]:
    → "What do you want? I'm busy. Save it for later!"
 20: 0x0066 [0x23] WAIT_FOR_DIALOG_INTERACTION
 21: 0x0067 [0x1C] WAIT(30* ticks)
 22: 0x006A [0x52] END_LOAD_SCHEDULER: End scheduler "s000" with entities [EventEntity, EventEntity], work=279*
 23: 0x0079 [0x66] LOAD_EXT_SCHEDULER_MAIN: Load scheduler "tlk0" with entities [Fhe Maksojha (ID: 16994353/0x01035031), Fhe Maksojha (ID: 16994353/0x01035031)], work=55*
 24: 0x0088 [0x45] LOAD_SCHEDULED_TASK: Load scheduler "s001" with entities [EventEntity, EventEntity], work=[279*, 0*]
 25: 0x0099 [0x4A] Wadayra (ID: 16994419/0x01035073) looks at Fhe Maksojha (ID: 16994353/0x01035031)
 26: 0x00A2 [0x1C] WAIT(45* ticks)
 27: 0x00A5 [0x2B] Fhe Maksojha (ID: 16994353/0x01035031) [11119*]:
    → "You might as well give up, lady, 'cause you're not getting thrrrough here, no matter how hard you try."
 28: 0x00AC [0x23] WAIT_FOR_DIALOG_INTERACTION
 29: 0x00AD [0x1C] WAIT(30* ticks)
 30: 0x00B0 [0x5B] LOAD_EXT_SCHEDULER: Load scheduler "tlk0" with entities [Wadayra (ID: 16994419/0x01035073), Wadayra (ID: 16994419/0x01035073)], work=70*
 31: 0x00BF [0x52] END_LOAD_SCHEDULER: End scheduler "s001" with entities [EventEntity, EventEntity], work=279*
 32: 0x00CE [0x45] LOAD_SCHEDULED_TASK: Load scheduler "s002" with entities [EventEntity, EventEntity], work=[279*, 0*]
 33: 0x00DF [0x66] LOAD_EXT_SCHEDULER_MAIN: Load scheduler "tlk1" with entities [Fhe Maksojha (ID: 16994353/0x01035031), Fhe Maksojha (ID: 16994353/0x01035031)], work=55*
 34: 0x00EE [0x1C] WAIT(30* ticks)
 35: 0x00F1 [0x2B] Wadayra (ID: 16994419/0x01035073) [11120*]:
    → "I've come all the way from Al Zahbi, and I'm not going home empty-handed!"
 36: 0x00F8 [0x23] WAIT_FOR_DIALOG_INTERACTION
 37: 0x00F9 [0x2B] Wadayra (ID: 16994419/0x01035073) [11121*]:
    → "So get out of the way and let me look for my son!"
 38: 0x0100 [0x23] WAIT_FOR_DIALOG_INTERACTION
 39: 0x0101 [0x1C] WAIT(30* ticks)
 40: 0x0104 [0x52] END_LOAD_SCHEDULER: End scheduler "s002" with entities [EventEntity, EventEntity], work=279*
 41: 0x0113 [0x45] LOAD_SCHEDULED_TASK: Load scheduler "s023" with entities [EventEntity, EventEntity], work=[279*, 0*]
 42: 0x0124 [0x5B] LOAD_EXT_SCHEDULER: Load scheduler "std0" with entities [Wadayra (ID: 16994419/0x01035073), Wadayra (ID: 16994419/0x01035073)], work=70*
 43: 0x0133 [0x1C] WAIT(45* ticks)
 44: 0x0136 [0x2B] Fhe Maksojha (ID: 16994353/0x01035031) [11122*]:
    → "How many times do I have to tell you no? The mire is teeming with vicious monsters!"
 45: 0x013D [0x23] WAIT_FOR_DIALOG_INTERACTION
 46: 0x013E [0x1C] WAIT(30* ticks)
 47: 0x0141 [0x66] LOAD_EXT_SCHEDULER_MAIN: Load scheduler "dis0" with entities [Fhe Maksojha (ID: 16994353/0x01035031), Fhe Maksojha (ID: 16994353/0x01035031)], work=52*
 48: 0x0150 [0x52] END_LOAD_SCHEDULER: End scheduler "s023" with entities [EventEntity, EventEntity], work=279*
 49: 0x015F [0x45] LOAD_SCHEDULED_TASK: Load scheduler "s003" with entities [EventEntity, EventEntity], work=[279*, 0*]
 50: 0x0170 [0x1C] WAIT(30* ticks)
 51: 0x0173 [0x2B] Fhe Maksojha (ID: 16994353/0x01035031) [11123*]:
    → "You'd be mincemeat before you managed two steps out of the gate!"
 52: 0x017A [0x23] WAIT_FOR_DIALOG_INTERACTION
 53: 0x017B [0x27] REQ_SET(priority=0x10, entity_id=Wadayra (ID: 16994419/0x01035073), tag_num=0x02)
 54: 0x0182 [0x1C] WAIT(45* ticks)
 55: 0x0185 [0x5B] LOAD_EXT_SCHEDULER: Load scheduler "tlk0" with entities [Wadayra (ID: 16994419/0x01035073), Wadayra (ID: 16994419/0x01035073)], work=70*
 56: 0x0194 [0x2B] Wadayra (ID: 16994419/0x01035073) [11124*]:
    → "I don't care about monsters! Just let me through!"
 57: 0x019B [0x23] WAIT_FOR_DIALOG_INTERACTION
 58: 0x019C [0x1C] WAIT(30* ticks)
 59: 0x019F [0x66] LOAD_EXT_SCHEDULER_MAIN: Load scheduler "ang0" with entities [Fhe Maksojha (ID: 16994353/0x01035031), Fhe Maksojha (ID: 16994353/0x01035031)], work=8*
 60: 0x01AE [0x2B] Fhe Maksojha (ID: 16994353/0x01035031) [11125*]:
    → "Maybe you don't care, but I do. I'm not going to sit by and let an old lady get attacked by monsters!"
 61: 0x01B5 [0x23] WAIT_FOR_DIALOG_INTERACTION
 62: 0x01B6 [0x1C] WAIT(90* ticks)
 63: 0x01B9 [0x5B] LOAD_EXT_SCHEDULER: Load scheduler "std0" with entities [Wadayra (ID: 16994419/0x01035073), Wadayra (ID: 16994419/0x01035073)], work=70*
 64: 0x01C8 [0x52] END_LOAD_SCHEDULER: End scheduler "s003" with entities [EventEntity, EventEntity], work=279*
 65: 0x01D7 [0x45] LOAD_SCHEDULED_TASK: Load scheduler "s004" with entities [EventEntity, EventEntity], work=[279*, 0*]
 66: 0x01E8 [0x1C] WAIT(30* ticks)
 67: 0x01EB [0x66] LOAD_EXT_SCHEDULER_MAIN: Load scheduler "poi1" with entities [Fhe Maksojha (ID: 16994353/0x01035031), Fhe Maksojha (ID: 16994353/0x01035031)], work=52*
 68: 0x01FA [0x2B] Fhe Maksojha (ID: 16994353/0x01035031) [11126*]:
    → "You might be safe here, but to the north there are fearsome beasts called Lamiae, who animate the corpses of their prey."
 69: 0x0201 [0x23] WAIT_FOR_DIALOG_INTERACTION
 70: 0x0202 [0x1C] WAIT(30* ticks)
 71: 0x0205 [0x52] END_LOAD_SCHEDULER: End scheduler "s004" with entities [EventEntity, EventEntity], work=279*
 72: 0x0214 [0x45] LOAD_SCHEDULED_TASK: Load scheduler "s005" with entities [EventEntity, EventEntity], work=[279*, 0*]
 73: 0x0225 [0x66] LOAD_EXT_SCHEDULER_MAIN: Load scheduler "poi2" with entities [Fhe Maksojha (ID: 16994353/0x01035031), Fhe Maksojha (ID: 16994353/0x01035031)], work=52*
 74: 0x0234 [0x5B] LOAD_EXT_SCHEDULER: Load scheduler "tlb0" with entities [Wadayra (ID: 16994419/0x01035073), Wadayra (ID: 16994419/0x01035073)], work=70*
 75: 0x0243 [0x1C] WAIT(30* ticks)
 76: 0x0246 [0x2B] Wadayra (ID: 16994419/0x01035073) [11127*]:
    → "L-Lamiae, you say? ...And they can control corpses!?"
 77: 0x024D [0x23] WAIT_FOR_DIALOG_INTERACTION
 78: 0x024E [0x1C] WAIT(30* ticks)
 79: 0x0251 [0x52] END_LOAD_SCHEDULER: End scheduler "s005" with entities [EventEntity, EventEntity], work=279*
 80: 0x0260 [0x45] LOAD_SCHEDULED_TASK: Load scheduler "s006" with entities [EventEntity, EventEntity], work=[279*, 0*]
 81: 0x0271 [0x66] LOAD_EXT_SCHEDULER_MAIN: Load scheduler "thk0" with entities [Fhe Maksojha (ID: 16994353/0x01035031), Fhe Maksojha (ID: 16994353/0x01035031)], work=51*
 82: 0x0280 [0x2B] Fhe Maksojha (ID: 16994353/0x01035031) [11128*]:
    → "That's rrright! And I don't want to see you turned into a monster, got it?"
 83: 0x0287 [0x23] WAIT_FOR_DIALOG_INTERACTION
 84: 0x0288 [0x1C] WAIT(30* ticks)
 85: 0x028B [0x2B] Fhe Maksojha (ID: 16994353/0x01035031) [11129*]:
    → "So stop begging me to let you out!"
 86: 0x0292 [0x23] WAIT_FOR_DIALOG_INTERACTION
 87: 0x0293 [0x1C] WAIT(30* ticks)
 88: 0x0296 [0x52] END_LOAD_SCHEDULER: End scheduler "s006" with entities [EventEntity, EventEntity], work=279*
 89: 0x02A5 [0x45] LOAD_SCHEDULED_TASK: Load scheduler "s024" with entities [EventEntity, EventEntity], work=[279*, 0*]
 90: 0x02B6 [0x1C] WAIT(30* ticks)
 91: 0x02B9 [0x2B] Wadayra (ID: 16994419/0x01035073) [11130*]:
    → "That...that..."
 92: 0x02C0 [0x23] WAIT_FOR_DIALOG_INTERACTION
 93: 0x02C1 [0x1C] WAIT(45* ticks)
 94: 0x02C4 [0x5B] LOAD_EXT_SCHEDULER: Load scheduler "tlb1" with entities [Wadayra (ID: 16994419/0x01035073), Wadayra (ID: 16994419/0x01035073)], work=70*
 95: 0x02D3 [0x52] END_LOAD_SCHEDULER: End scheduler "s024" with entities [EventEntity, EventEntity], work=279*
 96: 0x02E2 [0x45] LOAD_SCHEDULED_TASK: Load scheduler "s007" with entities [EventEntity, EventEntity], work=[279*, 0*]
 97: 0x02F3 [0x1C] WAIT(30* ticks)
 98: 0x02F6 [0x5B] LOAD_EXT_SCHEDULER: Load scheduler "tlk0" with entities [Wadayra (ID: 16994419/0x01035073), Wadayra (ID: 16994419/0x01035073)], work=70*
 99: 0x0305 [0x66] LOAD_EXT_SCHEDULER_MAIN: Load scheduler "aww0" with entities [Fhe Maksojha (ID: 16994353/0x01035031), Fhe Maksojha (ID: 16994353/0x01035031)], work=8*
100: 0x0314 [0x27] REQ_SET(priority=0x11, entity_id=Wadayra (ID: 16994419/0x01035073), tag_num=0x03)
101: 0x031B [0x2B] Wadayra (ID: 16994419/0x01035073) [11131*]:
    → "...Is all the more reason I need to go save my son, and pronto! Now move it!"
102: 0x0322 [0x23] WAIT_FOR_DIALOG_INTERACTION
103: 0x0323 [0x1C] WAIT(30* ticks)
104: 0x0326 [0x27] REQ_SET(priority=0x0F, entity_id=Fhe Maksojha (ID: 16994353/0x01035031), tag_num=0x03)
105: 0x032D [0x1C] WAIT(15* ticks)
106: 0x0330 [0x27] REQ_SET(priority=0x12, entity_id=Wadayra (ID: 16994419/0x01035073), tag_num=0x04)
107: 0x0337 [0x52] END_LOAD_SCHEDULER: End scheduler "s007" with entities [EventEntity, EventEntity], work=279*
108: 0x0346 [0x45] LOAD_SCHEDULED_TASK: Load scheduler "s008" with entities [EventEntity, EventEntity], work=[279*, 0*]
109: 0x0357 [0x4A] LocalPlayer looks at Wadayra (ID: 16994419/0x01035073)
110: 0x0360 [0x1C] WAIT(30* ticks)
111: 0x0363 [0x6E] LocalPlayer uses emote 21*
112: 0x036A [0x99] Wait for LocalPlayer animation to complete
113: 0x036F [0x2B] Fhe Maksojha (ID: 16994353/0x01035031) [11132*]:
    → "Yooow! Hey adventurer, come on! Don't just stand there... Stop her!"
114: 0x0376 [0x23] WAIT_FOR_DIALOG_INTERACTION
115: 0x0377 [0x1C] WAIT(90* ticks)
116: 0x037A [0x27] REQ_SET(priority=0x32, entity_id=LocalPlayer, tag_num=0x26)
117: 0x0381 [0x1C] WAIT(60* ticks)
118: 0x0384 [0x1A] CALL_SUBROUTINE(address=0x1D8B)
119: 0x0387 [0x52] END_LOAD_SCHEDULER: End scheduler "s008" with entities [EventEntity, EventEntity], work=279*
120: 0x0396 [0x2A] GET_REQ_LEVEL(level=50, entity_id=LocalPlayer)
121: 0x039C [0x29] REQ_SET_WAIT(priority=0x32, entity_id=Fhe Maksojha (ID: 16994353/0x01035031), tag_num=0x04)
122: 0x03A3 [0x29] REQ_SET_WAIT(priority=0x32, entity_id=Wadayra (ID: 16994419/0x01035073), tag_num=0x05)
123: 0x03AA [0x29] REQ_SET_WAIT(priority=0x32, entity_id=LocalPlayer, tag_num=0x25)
124: 0x03B1 [0x4A] Fhe Maksojha (ID: 16994353/0x01035031) looks at LocalPlayer
125: 0x03BA [0x4A] LocalPlayer looks at Fhe Maksojha (ID: 16994353/0x01035031)
126: 0x03C3 [0x5B] LOAD_EXT_SCHEDULER: Load scheduler "tlk0" with entities [Wadayra (ID: 16994419/0x01035073), Wadayra (ID: 16994419/0x01035073)], work=70*
127: 0x03D2 [0x66] LOAD_EXT_SCHEDULER_MAIN: Load scheduler "afr0" with entities [Fhe Maksojha (ID: 16994353/0x01035031), Fhe Maksojha (ID: 16994353/0x01035031)], work=8*
128: 0x03E1 [0x1C] WAIT(240* ticks)
129: 0x03E4 [0x45] LOAD_SCHEDULED_TASK: Load scheduler "s062" with entities [EventEntity, EventEntity], work=[279*, 0*]
130: 0x03F5 [0x45] LOAD_SCHEDULED_TASK: Load scheduler "fdi2" with entities [EventEntity, EventEntity], work=[200*, 0*]
131: 0x0406 [0x1C] WAIT(300* ticks)
132: 0x0409 [0x52] END_LOAD_SCHEDULER: End scheduler "s062" with entities [EventEntity, EventEntity], work=279*
133: 0x0418 [0x45] LOAD_SCHEDULED_TASK: Load scheduler "s009" with entities [EventEntity, EventEntity], work=[279*, 0*]
134: 0x0429 [0x1C] WAIT(60* ticks)
135: 0x042C [0x2B] Fhe Maksojha (ID: 16994353/0x01035031) [11133*]:
    → "Whew... Thanks for the help..."
136: 0x0433 [0x23] WAIT_FOR_DIALOG_INTERACTION
137: 0x0434 [0x1C] WAIT(30* ticks)
138: 0x0437 [0x66] LOAD_EXT_SCHEDULER_MAIN: Load scheduler "afr1" with entities [Fhe Maksojha (ID: 16994353/0x01035031), Fhe Maksojha (ID: 16994353/0x01035031)], work=8*
139: 0x0446 [0x2B] Fhe Maksojha (ID: 16994353/0x01035031) [11134*]:
    → "I thought she was going to pull my tail rrright off my body! I've never experrrienced such pain..."
140: 0x044D [0x23] WAIT_FOR_DIALOG_INTERACTION
141: 0x044E [0x5B] LOAD_EXT_SCHEDULER: Load scheduler "std0" with entities [Wadayra (ID: 16994419/0x01035073), Wadayra (ID: 16994419/0x01035073)], work=70*
142: 0x045D [0x1C] WAIT(45* ticks)
143: 0x0460 [0x4A] Wadayra (ID: 16994419/0x01035073) looks at Fhe Maksojha (ID: 16994353/0x01035031)
144: 0x0469 [0x1C] WAIT(30* ticks)
145: 0x046C [0x4A] Fhe Maksojha (ID: 16994353/0x01035031) looks at Wadayra (ID: 16994419/0x01035073)
146: 0x0475 [0x1C] WAIT(15* ticks)
147: 0x0478 [0x4A] LocalPlayer looks at Wadayra (ID: 16994419/0x01035073)
148: 0x0481 [0x2B] Wadayra (ID: 16994419/0x01035073) [11135*]:
    → "You haven't helped me any!"
149: 0x0488 [0x23] WAIT_FOR_DIALOG_INTERACTION
150: 0x0489 [0x52] END_LOAD_SCHEDULER: End scheduler "s009" with entities [EventEntity, EventEntity], work=279*
151: 0x0498 [0x45] LOAD_SCHEDULED_TASK: Load scheduler "s010" with entities [EventEntity, EventEntity], work=[279*, 0*]
152: 0x04A9 [0x5B] LOAD_EXT_SCHEDULER: Load scheduler "tla0" with entities [Wadayra (ID: 16994419/0x01035073), Wadayra (ID: 16994419/0x01035073)], work=70*
153: 0x04B8 [0x1C] WAIT(30* ticks)
154: 0x04BB [0x2B] Wadayra (ID: 16994419/0x01035073) [11136*]:
    → "And my son...my sweet, precious little son might be in grave danger as we speak! My poor baby..."
155: 0x04C2 [0x23] WAIT_FOR_DIALOG_INTERACTION
156: 0x04C3 [0x1C] WAIT(30* ticks)
157: 0x04C6 [0x2B] Wadayra (ID: 16994419/0x01035073) [11137*]:
    → "He needs me! He might be hungry right now, or crying alone out in the cold..."
158: 0x04CD [0x23] WAIT_FOR_DIALOG_INTERACTION
159: 0x04CE [0x5B] LOAD_EXT_SCHEDULER: Load scheduler "tla1" with entities [Wadayra (ID: 16994419/0x01035073), Wadayra (ID: 16994419/0x01035073)], work=70*
160: 0x04DD [0x1C] WAIT(30* ticks)
161: 0x04E0 [0x52] END_LOAD_SCHEDULER: End scheduler "s010" with entities [EventEntity, EventEntity], work=279*
162: 0x04EF [0x45] LOAD_SCHEDULED_TASK: Load scheduler "s011" with entities [EventEntity, EventEntity], work=[279*, 0*]
163: 0x0500 [0x27] REQ_SET(priority=0x16, entity_id=Wadayra (ID: 16994419/0x01035073), tag_num=0x06)
164: 0x0507 [0x2B] Wadayra (ID: 16994419/0x01035073) [11138*]:
    → "Ahgdeen! Oh, where are you, Ahgdeen!?"
165: 0x050E [0x23] WAIT_FOR_DIALOG_INTERACTION
166: 0x050F [0x2A] GET_REQ_LEVEL(level=22, entity_id=Wadayra (ID: 16994419/0x01035073))
167: 0x0515 [0x1C] WAIT(30* ticks)
168: 0x0518 [0x81] SET_ENTITY_BLINKING(blink_flag=0x00, entity=Wadayra (ID: 16994419/0x01035073))
169: 0x051E [0x52] END_LOAD_SCHEDULER: End scheduler "s011" with entities [EventEntity, EventEntity], work=279*
170: 0x052D [0x45] LOAD_SCHEDULED_TASK: Load scheduler "s184" with entities [EventEntity, EventEntity], work=[279*, 0*]
171: 0x053E [0x5B] LOAD_EXT_SCHEDULER: Load scheduler "oro0" with entities [Wadayra (ID: 16994419/0x01035073), Wadayra (ID: 16994419/0x01035073)], work=70*
172: 0x054D [0x1C] WAIT(180* ticks)
173: 0x0550 [0x52] END_LOAD_SCHEDULER: End scheduler "s184" with entities [EventEntity, EventEntity], work=279*
174: 0x055F [0x45] LOAD_SCHEDULED_TASK: Load scheduler "s183" with entities [EventEntity, EventEntity], work=[279*, 0*]
175: 0x0570 [0x9F] LOAD_SCHEDULED_TASK_ALT: Load scheduler "str0" with entities [EventEntity, EventEntity], work=[127*, 0*]
176: 0x0581 [0x2B] Wadayra (ID: 16994419/0x01035073) [11139*]:
    → "My poor, poor baby...!"
177: 0x0588 [0x1C] WAIT(60* ticks)
178: 0x058B [0x9F] LOAD_SCHEDULED_TASK_ALT: Load scheduler "kill" with entities [EventEntity, EventEntity], work=[127*, 0*]
179: 0x059C [0x1C] WAIT(60* ticks)
180: 0x059F [0x55] WAIT_LOAD_SCHEDULER: Wait for scheduler "s183" with entities [EventEntity, EventEntity], work=279*
181: 0x05AE [0x27] REQ_SET(priority=0x17, entity_id=Fhe Maksojha (ID: 16994353/0x01035031), tag_num=0x05)
182: 0x05B5 [0x45] LOAD_SCHEDULED_TASK: Load scheduler "s012" with entities [EventEntity, EventEntity], work=[279*, 0*]
183: 0x05C6 [0x1C] WAIT(60* ticks)
184: 0x05C9 [0x4A] Fhe Maksojha (ID: 16994353/0x01035031) looks at LocalPlayer
185: 0x05D2 [0x1C] WAIT(30* ticks)
186: 0x05D5 [0x66] LOAD_EXT_SCHEDULER_MAIN: Load scheduler "tlb1" with entities [Fhe Maksojha (ID: 16994353/0x01035031), Fhe Maksojha (ID: 16994353/0x01035031)], work=53*
187: 0x05E4 [0x4A] LocalPlayer looks at Fhe Maksojha (ID: 16994353/0x01035031)
188: 0x05ED [0x6F] WAIT_FRAME_DELAY: Yield until WaitTime reaches zero
189: 0x05EE [0x76] CHECK_ENTITY_RENDER_FLAGS: Wait until LocalPlayer Render.Flags0 and Render.Flags3 conditions are met
190: 0x05F3 [0x2B] Fhe Maksojha (ID: 16994353/0x01035031) [11140*]:
    → "(She came all the way here to find her runaway son...)"
191: 0x05FA [0x23] WAIT_FOR_DIALOG_INTERACTION
192: 0x05FB [0x1C] WAIT(60* ticks)
193: 0x05FE [0x52] END_LOAD_SCHEDULER: End scheduler "s012" with entities [EventEntity, EventEntity], work=279*
194: 0x060D [0x45] LOAD_SCHEDULED_TASK: Load scheduler "d135" with entities [EventEntity, EventEntity], work=[279*, 0*]
195: 0x061E [0x1C] WAIT(30* ticks)
196: 0x0621 [0x81] SET_ENTITY_BLINKING(blink_flag=0x01, entity=Wadayra (ID: 16994419/0x01035073))
197: 0x0627 [0x5B] LOAD_EXT_SCHEDULER: Load scheduler "oro1" with entities [Wadayra (ID: 16994419/0x01035073), Wadayra (ID: 16994419/0x01035073)], work=70*
198: 0x0636 [0x2B] Fhe Maksojha (ID: 16994353/0x01035031) [11141*]:
    → "(But you know...with a crazy, violent mom like this, who can blame the kid?)"
199: 0x063D [0x23] WAIT_FOR_DIALOG_INTERACTION
200: 0x063E [0x1C] WAIT(30* ticks)
201: 0x0641 [0x66] LOAD_EXT_SCHEDULER_MAIN: Load scheduler "tlb2" with entities [Fhe Maksojha (ID: 16994353/0x01035031), Fhe Maksojha (ID: 16994353/0x01035031)], work=53*
202: 0x0650 [0x52] END_LOAD_SCHEDULER: End scheduler "d135" with entities [EventEntity, EventEntity], work=279*
203: 0x065F [0x45] LOAD_SCHEDULED_TASK: Load scheduler "d136" with entities [EventEntity, EventEntity], work=[279*, 0*]
204: 0x0670 [0x1C] WAIT(45* ticks)
205: 0x0673 [0x5B] LOAD_EXT_SCHEDULER: Load scheduler "tlk0" with entities [Wadayra (ID: 16994419/0x01035073), Wadayra (ID: 16994419/0x01035073)], work=70*
206: 0x0682 [0x1C] WAIT(30* ticks)
207: 0x0685 [0x4A] Fhe Maksojha (ID: 16994353/0x01035031) looks at Wadayra (ID: 16994419/0x01035073)
208: 0x068E [0x1C] WAIT(30* ticks)
209: 0x0691 [0x4A] LocalPlayer looks at Wadayra (ID: 16994419/0x01035073)
210: 0x069A [0x2B] Wadayra (ID: 16994419/0x01035073) [11142*]:
    → "...I heard that."
211: 0x06A1 [0x23] WAIT_FOR_DIALOG_INTERACTION
212: 0x06A2 [0x66] LOAD_EXT_SCHEDULER_MAIN: Load scheduler "aww0" with entities [Fhe Maksojha (ID: 16994353/0x01035031), Fhe Maksojha (ID: 16994353/0x01035031)], work=8*
213: 0x06B1 [0x2B] Fhe Maksojha (ID: 16994353/0x01035031) [11143*]:
    → "Yikes!"
214: 0x06B8 [0x23] WAIT_FOR_DIALOG_INTERACTION
215: 0x06B9 [0x5B] LOAD_EXT_SCHEDULER: Load scheduler "std0" with entities [Wadayra (ID: 16994419/0x01035073), Wadayra (ID: 16994419/0x01035073)], work=70*
216: 0x06C8 [0x53] WAIT_SCHEDULER_TASK: Wait for scheduler "std0" with entities [Wadayra (ID: 16994419/0x01035073), Wadayra (ID: 16994419/0x01035073)]
217: 0x06D5 [0x1C] WAIT(30* ticks)
218: 0x06D8 [0x52] END_LOAD_SCHEDULER: End scheduler "d136" with entities [EventEntity, EventEntity], work=279*
219: 0x06E7 [0x45] LOAD_SCHEDULED_TASK: Load scheduler "s013" with entities [EventEntity, EventEntity], work=[279*, 0*]
220: 0x06F8 [0x1C] WAIT(45* ticks)
221: 0x06FB [0x4A] Wadayra (ID: 16994419/0x01035073) looks at LocalPlayer
222: 0x0704 [0x4A] Fhe Maksojha (ID: 16994353/0x01035031) looks at LocalPlayer
223: 0x070D [0x1C] WAIT(60* ticks)
224: 0x0710 [0x5B] LOAD_EXT_SCHEDULER: Load scheduler "thk1" with entities [Wadayra (ID: 16994419/0x01035073), Wadayra (ID: 16994419/0x01035073)], work=70*
225: 0x071F [0x1C] WAIT(60* ticks)
226: 0x0722 [0x2B] Wadayra (ID: 16994419/0x01035073) [11144*]:
    → "Aha! You're an adventurer from the West, aren't you?"
227: 0x0729 [0x23] WAIT_FOR_DIALOG_INTERACTION
228: 0x072A [0x1C] WAIT(30* ticks)
229: 0x072D [0x52] END_LOAD_SCHEDULER: End scheduler "s013" with entities [EventEntity, EventEntity], work=279*
230: 0x073C [0x45] LOAD_SCHEDULED_TASK: Load scheduler "s014" with entities [EventEntity, EventEntity], work=[279*, 0*]
231: 0x074D [0x5B] LOAD_EXT_SCHEDULER: Load scheduler "thk2" with entities [Wadayra (ID: 16994419/0x01035073), Wadayra (ID: 16994419/0x01035073)], work=70*
232: 0x075C [0x1C] WAIT(30* ticks)
233: 0x075F [0x4A] Wadayra (ID: 16994419/0x01035073) looks at Fhe Maksojha (ID: 16994353/0x01035031)
234: 0x0768 [0x1C] WAIT(30* ticks)
235: 0x076B [0x4A] Fhe Maksojha (ID: 16994353/0x01035031) looks at Wadayra (ID: 16994419/0x01035073)
236: 0x0774 [0x1C] WAIT(30* ticks)
237: 0x0777 [0x2B] Wadayra (ID: 16994419/0x01035073) [11145*]:
    → "You'd let this person outside, wouldn't you?"
238: 0x077E [0x23] WAIT_FOR_DIALOG_INTERACTION
239: 0x077F [0x66] LOAD_EXT_SCHEDULER_MAIN: Load scheduler "thk1" with entities [Fhe Maksojha (ID: 16994353/0x01035031), Fhe Maksojha (ID: 16994353/0x01035031)], work=51*
240: 0x078E [0x1C] WAIT(30* ticks)
241: 0x0791 [0x2B] Fhe Maksojha (ID: 16994353/0x01035031) [11146*]:
    → "Um...well, I suppose I would. Better than having you out there, anyway..."
242: 0x0798 [0x23] WAIT_FOR_DIALOG_INTERACTION
243: 0x0799 [0x4A] Wadayra (ID: 16994419/0x01035073) looks at LocalPlayer
244: 0x07A2 [0x6F] WAIT_FRAME_DELAY: Yield until WaitTime reaches zero
245: 0x07A3 [0x76] CHECK_ENTITY_RENDER_FLAGS: Wait until Wadayra (ID: 16994419/0x01035073) Render.Flags0 and Render.Flags3 conditions are met
246: 0x07A8 [0x66] LOAD_EXT_SCHEDULER_MAIN: Load scheduler "thk2" with entities [Fhe Maksojha (ID: 16994353/0x01035031), Fhe Maksojha (ID: 16994353/0x01035031)], work=51*
247: 0x07B7 [0x52] END_LOAD_SCHEDULER: End scheduler "s014" with entities [EventEntity, EventEntity], work=279*
248: 0x07C6 [0x45] LOAD_SCHEDULED_TASK: Load scheduler "s015" with entities [EventEntity, EventEntity], work=[279*, 0*]
249: 0x07D7 [0x27] REQ_SET(priority=0x18, entity_id=Wadayra (ID: 16994419/0x01035073), tag_num=0x07)
250: 0x07DE [0x6E] LocalPlayer uses emote 21*
251: 0x07E5 [0x99] Wait for LocalPlayer animation to complete
252: 0x07EA [0x1C] WAIT(30* ticks)
253: 0x07ED [0x2B] Wadayra (ID: 16994419/0x01035073) [11147*]:
    → "Oh please, [Mr./Ms.] Adventurer...please save my son! Please listen to a mother's desperate plea!"
254: 0x07F4 [0x23] WAIT_FOR_DIALOG_INTERACTION
255: 0x07F5 [0x1C] WAIT(30* ticks)
256: 0x07F8 [0x5B] LOAD_EXT_SCHEDULER: Load scheduler "tlc0" with entities [Wadayra (ID: 16994419/0x01035073), Wadayra (ID: 16994419/0x01035073)], work=70*
257: 0x0807 [0x1C] WAIT(60* ticks)
258: 0x080A [0x52] END_LOAD_SCHEDULER: End scheduler "s015" with entities [EventEntity, EventEntity], work=279*
259: 0x0819 [0x45] LOAD_SCHEDULED_TASK: Load scheduler "s016" with entities [EventEntity, EventEntity], work=[279*, 0*]
260: 0x082A [0x1C] WAIT(60* ticks)
261: 0x082D [0x2B] Wadayra (ID: 16994419/0x01035073) [11148*]:
    → "He's my only son, and the center of my life! Can you realize how strong a mother's feelings for her child are?"
262: 0x0834 [0x23] WAIT_FOR_DIALOG_INTERACTION
263: 0x0835 [0x1C] WAIT(30* ticks)
264: 0x0838 [0x2B] Wadayra (ID: 16994419/0x01035073) [11149*]:
    → "I will repay you! You have my word!"
265: 0x083F [0x23] WAIT_FOR_DIALOG_INTERACTION
266: 0x0840 [0x1C] WAIT(30* ticks)
267: 0x0843 [0x52] END_LOAD_SCHEDULER: End scheduler "s016" with entities [EventEntity, EventEntity], work=279*
268: 0x0852 [0x45] LOAD_SCHEDULED_TASK: Load scheduler "s017" with entities [EventEntity, EventEntity], work=[279*, 0*]
269: 0x0863 [0x1C] WAIT(60* ticks)
270: 0x0866 [0x4A] Fhe Maksojha (ID: 16994353/0x01035031) looks at LocalPlayer
271: 0x086F [0x1C] WAIT(30* ticks)
272: 0x0872 [0x4A] LocalPlayer looks at Fhe Maksojha (ID: 16994353/0x01035031)
273: 0x087B [0x66] LOAD_EXT_SCHEDULER_MAIN: Load scheduler "dis0" with entities [Fhe Maksojha (ID: 16994353/0x01035031), Fhe Maksojha (ID: 16994353/0x01035031)], work=52*
274: 0x088A [0x1C] WAIT(30* ticks)
275: 0x088D [0x2B] Fhe Maksojha (ID: 16994353/0x01035031) [11150*]:
    → "I know it's a rrreally selfish request..."
276: 0x0894 [0x23] WAIT_FOR_DIALOG_INTERACTION
277: 0x0895 [0x1C] WAIT(30* ticks)
278: 0x0898 [0x2B] Fhe Maksojha (ID: 16994353/0x01035031) [11151*]:
    → "But this old lady's wearing me out..."
279: 0x089F [0x23] WAIT_FOR_DIALOG_INTERACTION
280: 0x08A0 [0x53] WAIT_SCHEDULER_TASK: Wait for scheduler "dis0" with entities [Fhe Maksojha (ID: 16994353/0x01035031), Fhe Maksojha (ID: 16994353/0x01035031)]
281: 0x08AD [0x52] END_LOAD_SCHEDULER: End scheduler "s017" with entities [EventEntity, EventEntity], work=279*
282: 0x08BC [0x45] LOAD_SCHEDULED_TASK: Load scheduler "d137" with entities [EventEntity, EventEntity], work=[279*, 0*]
283: 0x08CD [0x1C] WAIT(30* ticks)
284: 0x08D0 [0x2B] Fhe Maksojha (ID: 16994353/0x01035031) [11152*]:
    → "Sorry for the trrrouble, but do you think you could search for her son?"
285: 0x08D7 [0x23] WAIT_FOR_DIALOG_INTERACTION
286: 0x08D8 [0x52] END_LOAD_SCHEDULER: End scheduler "d137" with entities [EventEntity, EventEntity], work=279*
287: 0x08E7 [0x45] LOAD_SCHEDULED_TASK: Load scheduler "d139" with entities [EventEntity, EventEntity], work=[279*, 0*]
288: 0x08F8 [0x24] CREATE_DIALOG(message_id=11153*, default_option=0*, option_flags=0*)
    → "Search for her son? [Not much choice, is there?/What a pain...]"
289: 0x08FF [0x25] WAIT_DIALOG_SELECT()
290: 0x0900 [0x02] IF !(Work_Zone[0] == 1*) GOTO 0x0949
291: 0x0908 [0x5B] LOAD_EXT_SCHEDULER: Load scheduler "tlk0" with entities [Wadayra (ID: 16994419/0x01035073), Wadayra (ID: 16994419/0x01035073)], work=70*
292: 0x0917 [0x4A] LocalPlayer looks at Wadayra (ID: 16994419/0x01035073)
293: 0x0920 [0x2B] Wadayra (ID: 16994419/0x01035073) [11154*]:
    → "After all you've heard, my son is still just a "pain" to you? You heartless beast!"
294: 0x0927 [0x23] WAIT_FOR_DIALOG_INTERACTION
295: 0x0928 [0x4A] LocalPlayer looks at Fhe Maksojha (ID: 16994353/0x01035031)
296: 0x0931 [0x5B] LOAD_EXT_SCHEDULER: Load scheduler "std0" with entities [Wadayra (ID: 16994419/0x01035073), Wadayra (ID: 16994419/0x01035073)], work=70*
297: 0x0940 [0x1C] WAIT(60* ticks)
298: 0x0943 [0x01] GOTO 0x08F8

SUBROUTINE_0949:
299: 0x0949 [0x52] END_LOAD_SCHEDULER: End scheduler "d139" with entities [EventEntity, EventEntity], work=279*
300: 0x0958 [0x45] LOAD_SCHEDULED_TASK: Load scheduler "s018" with entities [EventEntity, EventEntity], work=[279*, 0*]
301: 0x0969 [0x1C] WAIT(30* ticks)
302: 0x096C [0x5B] LOAD_EXT_SCHEDULER: Load scheduler "tlc0" with entities [Wadayra (ID: 16994419/0x01035073), Wadayra (ID: 16994419/0x01035073)], work=70*
303: 0x097B [0x4A] LocalPlayer looks at Wadayra (ID: 16994419/0x01035073)
304: 0x0984 [0x1C] WAIT(30* ticks)
305: 0x0987 [0x2B] Wadayra (ID: 16994419/0x01035073) [11155*]:
    → "Oh, thank you! Thank you!"
306: 0x098E [0x23] WAIT_FOR_DIALOG_INTERACTION
307: 0x098F [0x1C] WAIT(30* ticks)
308: 0x0992 [0x52] END_LOAD_SCHEDULER: End scheduler "s018" with entities [EventEntity, EventEntity], work=279*
309: 0x09A1 [0x45] LOAD_SCHEDULED_TASK: Load scheduler "s019" with entities [EventEntity, EventEntity], work=[279*, 0*]
310: 0x09B2 [0x1C] WAIT(30* ticks)
311: 0x09B5 [0x66] LOAD_EXT_SCHEDULER_MAIN: Load scheduler "tlb1" with entities [Fhe Maksojha (ID: 16994353/0x01035031), Fhe Maksojha (ID: 16994353/0x01035031)], work=53*
312: 0x09C4 [0x4A] LocalPlayer looks at Fhe Maksojha (ID: 16994353/0x01035031)
313: 0x09CD [0x1C] WAIT(60* ticks)
314: 0x09D0 [0x5B] LOAD_EXT_SCHEDULER: Load scheduler "tlc1" with entities [Wadayra (ID: 16994419/0x01035073), Wadayra (ID: 16994419/0x01035073)], work=70*
315: 0x09DF [0x2B] Fhe Maksojha (ID: 16994353/0x01035031) [11156*]:
    → "You might want to know that someone saw a guy by the Deadmist Marsh that looked like he could be that woman's son."
316: 0x09E6 [0x23] WAIT_FOR_DIALOG_INTERACTION
317: 0x09E7 [0x79] Wadayra (ID: 16994419/0x01035073) looks at Fhe Maksojha (ID: 16994353/0x01035031) (Basic look)
318: 0x09F1 [0x1C] WAIT(30* ticks)
319: 0x09F4 [0x2B] Fhe Maksojha (ID: 16994353/0x01035031) [11157*]:
    → "But they said he went rrrunning off to the north out in the Mire. I wonder where he could be now."
320: 0x09FB [0x23] WAIT_FOR_DIALOG_INTERACTION
321: 0x09FC [0x66] LOAD_EXT_SCHEDULER_MAIN: Load scheduler "tlb2" with entities [Fhe Maksojha (ID: 16994353/0x01035031), Fhe Maksojha (ID: 16994353/0x01035031)], work=53*
322: 0x0A0B [0x4A] Wadayra (ID: 16994419/0x01035073) looks at Fhe Maksojha (ID: 16994353/0x01035031)
323: 0x0A14 [0x1C] WAIT(45* ticks)
324: 0x0A17 [0x4A] Fhe Maksojha (ID: 16994353/0x01035031) looks at Wadayra (ID: 16994419/0x01035073)
325: 0x0A20 [0x2B] Wadayra (ID: 16994419/0x01035073) [11158*]:
    → "Why didn't you mention this earlier!?"
326: 0x0A27 [0x23] WAIT_FOR_DIALOG_INTERACTION
327: 0x0A28 [0x1C] WAIT(30* ticks)
328: 0x0A2B [0x52] END_LOAD_SCHEDULER: End scheduler "s019" with entities [EventEntity, EventEntity], work=279*
329: 0x0A3A [0x45] LOAD_SCHEDULED_TASK: Load scheduler "s020" with entities [EventEntity, EventEntity], work=[279*, 0*]
330: 0x0A4B [0x4A] Fhe Maksojha (ID: 16994353/0x01035031) looks at LocalPlayer
331: 0x0A54 [0x4A] LocalPlayer looks at Fhe Maksojha (ID: 16994353/0x01035031)
332: 0x0A5D [0x1C] WAIT(60* ticks)
333: 0x0A60 [0x7C] Fhe Maksojha (ID: 16994353/0x01035031)->Render.Flags2 |= 0x00
334: 0x0A66 [0x2B] Fhe Maksojha (ID: 16994353/0x01035031) [11159*]:
    → "(If I had told her earlier, she would have bowled me over to get to her son!)"
335: 0x0A6D [0x23] WAIT_FOR_DIALOG_INTERACTION
336: 0x0A6E [0x2B] Fhe Maksojha (ID: 16994353/0x01035031) [11160*]:
    → "(With a woman of her size, that must feel like being stampeded by a herd of marids...)"
337: 0x0A75 [0x23] WAIT_FOR_DIALOG_INTERACTION
338: 0x0A76 [0x7C] Fhe Maksojha (ID: 16994353/0x01035031)->Render.Flags2 |= 0x01
339: 0x0A7C [0x1C] WAIT(30* ticks)
340: 0x0A7F [0x52] END_LOAD_SCHEDULER: End scheduler "s020" with entities [EventEntity, EventEntity], work=279*
341: 0x0A8E [0x45] LOAD_SCHEDULED_TASK: Load scheduler "s021" with entities [EventEntity, EventEntity], work=[279*, 0*]
342: 0x0A9F [0x1C] WAIT(60* ticks)
343: 0x0AA2 [0x5B] LOAD_EXT_SCHEDULER: Load scheduler "tlk0" with entities [Wadayra (ID: 16994419/0x01035073), Wadayra (ID: 16994419/0x01035073)], work=70*
344: 0x0AB1 [0x4A] Fhe Maksojha (ID: 16994353/0x01035031) looks at Wadayra (ID: 16994419/0x01035073)
345: 0x0ABA [0x1C] WAIT(30* ticks)
346: 0x0ABD [0x66] LOAD_EXT_SCHEDULER_MAIN: Load scheduler "aww0" with entities [Fhe Maksojha (ID: 16994353/0x01035031), Fhe Maksojha (ID: 16994353/0x01035031)], work=8*
347: 0x0ACC [0x2B] Wadayra (ID: 16994419/0x01035073) [11142*]:
    → "...I heard that."
348: 0x0AD3 [0x23] WAIT_FOR_DIALOG_INTERACTION
349: 0x0AD4 [0x53] WAIT_SCHEDULER_TASK: Wait for scheduler "aww0" with entities [Fhe Maksojha (ID: 16994353/0x01035031), Fhe Maksojha (ID: 16994353/0x01035031)]
350: 0x0AE1 [0x66] LOAD_EXT_SCHEDULER_MAIN: Load scheduler "afr0" with entities [Fhe Maksojha (ID: 16994353/0x01035031), Fhe Maksojha (ID: 16994353/0x01035031)], work=8*
351: 0x0AF0 [0x7C] Fhe Maksojha (ID: 16994353/0x01035031)->Render.Flags2 |= 0x00
352: 0x0AF6 [0x2B] Fhe Maksojha (ID: 16994353/0x01035031) [11161*]:
    → "(Sh-she's got sharp ears!)"
353: 0x0AFD [0x23] WAIT_FOR_DIALOG_INTERACTION
354: 0x0AFE [0x7C] Fhe Maksojha (ID: 16994353/0x01035031)->Render.Flags2 |= 0x01
355: 0x0B04 [0x1C] WAIT(30* ticks)
356: 0x0B07 [0x66] LOAD_EXT_SCHEDULER_MAIN: Load scheduler "afr1" with entities [Fhe Maksojha (ID: 16994353/0x01035031), Fhe Maksojha (ID: 16994353/0x01035031)], work=8*
357: 0x0B16 [0x5B] LOAD_EXT_SCHEDULER: Load scheduler "std0" with entities [Wadayra (ID: 16994419/0x01035073), Wadayra (ID: 16994419/0x01035073)], work=70*
358: 0x0B25 [0x52] END_LOAD_SCHEDULER: End scheduler "s021" with entities [EventEntity, EventEntity], work=279*
359: 0x0B34 [0x45] LOAD_SCHEDULED_TASK: Load scheduler "s022" with entities [EventEntity, EventEntity], work=[279*, 0*]
360: 0x0B45 [0x1C] WAIT(60* ticks)
361: 0x0B48 [0x4A] Wadayra (ID: 16994419/0x01035073) looks at LocalPlayer
362: 0x0B51 [0x1C] WAIT(30* ticks)
363: 0x0B54 [0x5B] LOAD_EXT_SCHEDULER: Load scheduler "tlk0" with entities [Wadayra (ID: 16994419/0x01035073), Wadayra (ID: 16994419/0x01035073)], work=70*
364: 0x0B63 [0x1C] WAIT(30* ticks)
365: 0x0B66 [0x4A] LocalPlayer looks at Wadayra (ID: 16994419/0x01035073)
366: 0x0B6F [0x2B] Wadayra (ID: 16994419/0x01035073) [11162*]:
    → "In any case, I will be waiting here. Hurry up and find my son!"
367: 0x0B76 [0x23] WAIT_FOR_DIALOG_INTERACTION
368: 0x0B77 [0x5B] LOAD_EXT_SCHEDULER: Load scheduler "std0" with entities [Wadayra (ID: 16994419/0x01035073), Wadayra (ID: 16994419/0x01035073)], work=70*
369: 0x0B86 [0x1C] WAIT(30* ticks)
370: 0x0B89 [0x2B] Wadayra (ID: 16994419/0x01035073) [11163*]:
    → "Please!"
371: 0x0B90 [0x23] WAIT_FOR_DIALOG_INTERACTION
372: 0x0B91 [0x1C] WAIT(30* ticks)
373: 0x0B94 [0x52] END_LOAD_SCHEDULER: End scheduler "s022" with entities [EventEntity, EventEntity], work=279*
374: 0x0BA3 [0x45] LOAD_SCHEDULED_TASK: Load scheduler "d138" with entities [EventEntity, EventEntity], work=[279*, 0*]
375: 0x0BB4 [0x4A] Fhe Maksojha (ID: 16994353/0x01035031) looks at LocalPlayer
376: 0x0BBD [0x1C] WAIT(30* ticks)
377: 0x0BC0 [0x4A] LocalPlayer looks at Fhe Maksojha (ID: 16994353/0x01035031)
378: 0x0BC9 [0x2B] Fhe Maksojha (ID: 16994353/0x01035031) [11164*]:
    → "Well, this has turned into a fine mess, hasn't it? Take care on your journey, all rrright?"
379: 0x0BD0 [0x23] WAIT_FOR_DIALOG_INTERACTION
380: 0x0BD1 [0x1C] WAIT(30* ticks)
381: 0x0BD4 [0x66] LOAD_EXT_SCHEDULER_MAIN: Load scheduler "wav0" with entities [Fhe Maksojha (ID: 16994353/0x01035031), Fhe Maksojha (ID: 16994353/0x01035031)], work=52*
382: 0x0BE3 [0x1C] WAIT(60* ticks)
383: 0x0BE6 [0x1A] CALL_SUBROUTINE(address=0x1DA0)
384: 0x0BE9 [0x52] END_LOAD_SCHEDULER: End scheduler "d138" with entities [EventEntity, EventEntity], work=279*
385: 0x0BF8 [0x1C] WAIT(60* ticks)
386: 0x0BFB [0x1A] CALL_SUBROUTINE(address=0x1DF4)
387: 0x0BFE [0x46] CAMERA_CONTROL: Restore default settings
388: 0x0C00 [0x21] END_EVENT
389: 0x0C01 [0x00] END_REQSTACK()
```

#### Data or dead code:

```
# Dead code (unreachable instructions):
     0x0946 [0x01] GOTO 0x0949
```

### Event 294

#### Metadata

| Field        | Value      |
|--------------|------------|
| Entrypoint   | 0x0C02     |
| Data Size    | 4696 bytes |
| Instructions | 589        |

```
      00 01 02 03 04 05 06 07  08 09 0A 0B 0C 0D 0E 0F
      -- -- -- -- -- -- -- --  -- -- -- -- -- -- -- --
0C00:       42 4E 01 29 50 03  01 4E 01 3B 50 03 01 4E    BN.)P..N.;P..N
0C10: 01 3C 50 03 01 4E 01 37  50 03 01 4E 01 38 50 03  .<P..N.7P..N.8P.
0C20: 01 45 20 80 F0 FF FF 7F  F0 FF FF 7F 66 64 6F 31  .E .........fdo1
0C30: 02 80 55 20 80 F0 FF FF  7F F0 FF FF 7F 66 64 6F  ..U .........fdo
0C40: 31 46 01 38 00 80 4E 00  73 50 03 01 4E 00 76 50  1F.8..N.sP..N.vP
0C50: 03 01 4E 00 74 50 03 01  4E 00 75 50 03 01 2F 00  ..N.tP..N.uP../.
0C60: 73 50 03 01 2F 00 76 50  03 01 2F 00 74 50 03 01  sP../.vP../.tP..
0C70: 2F 00 75 50 03 01 29 0A  F0 FF FF 7F 27 29 32 76  /.uP..).....')2v
0C80: 50 03 01 01 92 01 73 50  03 01 92 01 31 50 03 01  P.....sP....1P..
0C90: 92 01 74 50 03 01 92 01  75 50 03 01 92 01 29 50  ..tP....uP....)P
0CA0: 03 01 92 01 3B 50 03 01  92 01 3C 50 03 01 92 01  ....;P....<P....
0CB0: 37 50 03 01 92 01 38 50  03 01 92 01 76 50 03 01  7P....8P....vP..
0CC0: 80 73 50 03 01 80 31 50  03 01 80 74 50 03 01 80  .sP...1P...tP...
0CD0: 75 50 03 01 80 76 50 03  01 6C 76 50 03 01 02 80  uP...vP..lvP....
0CE0: 3A 80 4A 31 50 03 01 F0  FF FF 7F 4A 73 50 03 01  :.J1P......JsP..
0CF0: F0 FF FF 7F 45 01 80 F8  FF FF 7F F8 FF FF 7F 73  ....E..........s
0D00: 30 36 35 02 80 1C 03 80  1A F4 1D 1C 1E 80 5B 0A  065...........[.
0D10: 80 73 50 03 01 73 50 03  01 74 6C 63 30 1C 05 80  .sP..sP..tlc0...
0D20: 2B 73 50 03 01 46 80 23  27 32 74 50 03 01 02 1C  +sP..F.#'2tP....
0D30: 05 80 27 32 75 50 03 01  02 52 01 80 F8 FF FF 7F  ..'2uP...R......
0D40: F8 FF FF 7F 73 30 36 35  45 01 80 F8 FF FF 7F F8  ....s065E.......
0D50: FF FF 7F 73 30 36 36 02  80 4E 01 F0 FF FF 7F 1C  ...s066..N......
0D60: 1E 80 2B 74 50 03 01 47  80 23 4A 75 50 03 01 73  ..+tP..G.#JuP..s
0D70: 50 03 01 4A 73 50 03 01  74 50 03 01 5B 0A 80 73  P..JsP..tP..[..s
0D80: 50 03 01 73 50 03 01 74  6C 63 31 1C 05 80 52 01  P..sP..tlc1...R.
0D90: 80 F8 FF FF 7F F8 FF FF  7F 73 30 36 36 45 01 80  .........s066E..
0DA0: F8 FF FF 7F F8 FF FF 7F  73 30 36 37 02 80 1C 05  ........s067....
0DB0: 80 5B 0A 80 73 50 03 01  73 50 03 01 74 6C 62 30  .[..sP..sP..tlb0
0DC0: 4A F0 FF FF 7F 74 50 03  01 1C 05 80 2B 73 50 03  J....tP.....+sP.
0DD0: 01 48 80 23 5B 0A 80 73  50 03 01 73 50 03 01 74  .H.#[..sP..sP..t
0DE0: 6C 62 31 1C 1E 80 27 32  73 50 03 01 09 1C 08 80  lb1...'2sP......
0DF0: 52 01 80 F8 FF FF 7F F8  FF FF 7F 73 30 36 37 45  R..........s067E
0E00: 01 80 F8 FF FF 7F F8 FF  FF 7F 73 30 36 38 02 80  ..........s068..
0E10: 4A 73 50 03 01 74 50 03  01 4A 31 50 03 01 74 50  JsP..tP..J1P..tP
0E20: 03 01 4E 00 F0 FF FF 7F  1C 1E 80 5B 0A 80 73 50  ..N........[..sP
0E30: 03 01 73 50 03 01 74 6C  63 30 2B 73 50 03 01 49  ..sP..tlc0+sP..I
0E40: 80 23 1C 05 80 66 11 80  31 50 03 01 31 50 03 01  .#...f..1P..1P..
0E50: 75 72 65 30 2B 31 50 03  01 4A 80 23 1C 1E 80 5B  ure0+1P..J.#...[
0E60: 0A 80 73 50 03 01 73 50  03 01 74 6C 63 31 52 01  ..sP..sP..tlc1R.
0E70: 80 F8 FF FF 7F F8 FF FF  7F 73 30 36 38 45 01 80  .........s068E..
0E80: F8 FF FF 7F F8 FF FF 7F  73 30 37 30 02 80 1C 05  ........s070....
0E90: 80 5B 0A 80 73 50 03 01  73 50 03 01 74 6C 61 30  .[..sP..sP..tla0
0EA0: 2B 73 50 03 01 4B 80 23  6E 74 50 03 01 4C 80 99  +sP..K.#ntP..L..
0EB0: 74 50 03 01 1C 1E 80 2B  74 50 03 01 4D 80 23 27  tP.....+tP..M.#'
0EC0: 32 F0 FF FF 7F 28 1C 1E  80 52 01 80 F8 FF FF 7F  2....(...R......
0ED0: F8 FF FF 7F 73 30 37 30  45 01 80 F8 FF FF 7F F8  ....s070E.......
0EE0: FF FF 7F 73 30 37 31 02  80 5B 0A 80 73 50 03 01  ...s071..[..sP..
0EF0: 73 50 03 01 74 6C 61 31  1C 05 80 5B 0A 80 73 50  sP..tla1...[..sP
0F00: 03 01 73 50 03 01 74 6C  6B 30 1C 05 80 2B 73 50  ..sP..tlk0...+sP
0F10: 03 01 4E 80 23 1C 05 80  03 02 10 4F 80 2B 73 50  ..N.#......O.+sP
0F20: 03 01 50 80 23 5B 0A 80  73 50 03 01 73 50 03 01  ..P.#[..sP..sP..
0F30: 73 74 64 30 1C 1E 80 27  32 73 50 03 01 0A 4A 31  std0...'2sP...J1
0F40: 50 03 01 73 50 03 01 4A  F0 FF FF 7F 73 50 03 01  P..sP..J....sP..
0F50: 1C 1B 80 52 01 80 F8 FF  FF 7F F8 FF FF 7F 73 30  ...R..........s0
0F60: 37 31 45 01 80 F8 FF FF  7F F8 FF FF 7F 73 30 37  71E..........s07
0F70: 32 02 80 27 32 31 50 03  01 07 4A 74 50 03 01 73  2..'21P...JtP..s
0F80: 50 03 01 1C 1E 80 29 32  74 50 03 01 03 2B 74 50  P.....)2tP...+tP
0F90: 03 01 51 80 23 52 01 80  F8 FF FF 7F F8 FF FF 7F  ..Q.#R..........
0FA0: 73 30 37 32 45 01 80 F8  FF FF 7F F8 FF FF 7F 73  s072E..........s
0FB0: 30 37 33 02 80 1C 05 80  2B 73 50 03 01 52 80 23  073.....+sP..R.#
0FC0: 1C 1E 80 2B 73 50 03 01  53 80 23 1C 1E 80 4A 74  ...+sP..S.#...Jt
0FD0: 50 03 01 73 50 03 01 2B  74 50 03 01 54 80 23 1C  P..sP..+tP..T.#.
0FE0: 0A 80 27 32 74 50 03 01  04 1C 1E 80 4A 73 50 03  ..'2tP......JsP.
0FF0: 01 74 50 03 01 4A 31 50  03 01 74 50 03 01 1C 05  .tP..J1P..tP....
1000: 80 27 32 75 50 03 01 03  4A F0 FF FF 7F 74 50 03  .'2uP...J....tP.
1010: 01 52 01 80 F8 FF FF 7F  F8 FF FF 7F 73 30 37 33  .R..........s073
1020: 45 01 80 F8 FF FF 7F F8  FF FF 7F 73 30 37 34 02  E..........s074.
1030: 80 1C 1E 80 66 55 80 74  50 03 01 74 50 03 01 74  ....fU.tP..tP..t
1040: 6C 6B 30 2B 74 50 03 01  56 80 23 1C 1E 80 66 55  lk0+tP..V.#...fU
1050: 80 74 50 03 01 74 50 03  01 74 6C 6B 31 1C 05 80  .tP..tP..tlk1...
1060: 52 01 80 F8 FF FF 7F F8  FF FF 7F 73 30 37 34 45  R..........s074E
1070: 01 80 F8 FF FF 7F F8 FF  FF 7F 73 30 37 35 02 80  ..........s075..
1080: 1C 05 80 4A 73 50 03 01  74 50 03 01 2B 73 50 03  ...JsP..tP..+sP.
1090: 01 57 80 23 4A 73 50 03  01 74 50 03 01 1C 1E 80  .W.#JsP..tP.....
10A0: 4A 75 50 03 01 73 50 03  01 52 01 80 F8 FF FF 7F  JuP..sP..R......
10B0: F8 FF FF 7F 73 30 37 35  45 01 80 F8 FF FF 7F F8  ....s075E.......
10C0: FF FF 7F 73 30 37 36 02  80 1C 1E 80 79 00 74 50  ...s076.....y.tP
10D0: 03 01 75 50 03 01 1C 05  80 2B 74 50 03 01 58 80  ..uP.....+tP..X.
10E0: 23 1C 05 80 79 00 74 50  03 01 75 50 03 01 1C 1E  #...y.tP..uP....
10F0: 80 52 01 80 F8 FF FF 7F  F8 FF FF 7F 73 30 37 36  .R..........s076
1100: 45 01 80 F8 FF FF 7F F8  FF FF 7F 73 30 37 37 02  E..........s077.
1110: 80 6E 75 50 03 01 3A 80  99 75 50 03 01 99 75 50  .nuP..:..uP...uP
1120: 03 01 1C 05 80 2B 75 50  03 01 59 80 23 1C 1E 80  .....+uP..Y.#...
1130: 66 11 80 31 50 03 01 31  50 03 01 75 72 65 30 2B  f..1P..1P..ure0+
1140: 31 50 03 01 5A 80 23 1C  13 80 52 01 80 F8 FF FF  1P..Z.#...R.....
1150: 7F F8 FF FF 7F 73 30 37  37 45 01 80 F8 FF FF 7F  .....s077E......
1160: F8 FF FF 7F 73 30 37 38  02 80 1C 05 80 7B 74 50  ....s078.....{tP
1170: 03 01 1C 1E 80 2B 74 50  03 01 5B 80 23 6E 74 50  .....+tP..[.#ntP
1180: 03 01 5C 80 99 74 50 03  01 1C 13 80 2B 74 50 03  ..\..tP.....+tP.
1190: 01 5D 80 23 4A 75 50 03  01 74 50 03 01 1C 05 80  .].#JuP..tP.....
11A0: 5B 0A 80 73 50 03 01 73  50 03 01 74 6C 61 30 52  [..sP..sP..tla0R
11B0: 01 80 F8 FF FF 7F F8 FF  FF 7F 73 30 37 38 4A 73  ..........s078Js
11C0: 50 03 01 74 50 03 01 45  01 80 F8 FF FF 7F F8 FF  P..tP..E........
11D0: FF 7F 73 30 37 39 02 80  1C 1E 80 52 01 80 F8 FF  ..s079.....R....
11E0: FF 7F F8 FF FF 7F 73 30  37 39 45 01 80 F8 FF FF  ......s079E.....
11F0: 7F F8 FF FF 7F 73 30 38  30 02 80 66 11 80 31 50  .....s080..f..1P
1200: 03 01 31 50 03 01 61 77  77 30 1C 1E 80 52 01 80  ..1P..aww0...R..
1210: F8 FF FF 7F F8 FF FF 7F  73 30 38 30 45 01 80 F8  ........s080E...
1220: FF FF 7F F8 FF FF 7F 73  30 38 31 02 80 1C 1E 80  .......s081.....
1230: 52 01 80 F8 FF FF 7F F8  FF FF 7F 73 30 38 31 45  R..........s081E
1240: 01 80 F8 FF FF 7F F8 FF  FF 7F 73 30 38 32 02 80  ..........s082..
1250: 1C 1F 80 52 01 80 F8 FF  FF 7F F8 FF FF 7F 73 30  ...R..........s0
1260: 38 32 45 01 80 F8 FF FF  7F F8 FF FF 7F 73 30 38  82E..........s08
1270: 33 02 80 1C 03 80 2B 73  50 03 01 5E 80 23 1C 1E  3.....+sP..^.#..
1280: 80 52 01 80 F8 FF FF 7F  F8 FF FF 7F 73 30 38 33  .R..........s083
1290: 45 01 80 F8 FF FF 7F F8  FF FF 7F 73 30 38 34 02  E..........s084.
12A0: 80 5B 0A 80 73 50 03 01  73 50 03 01 74 6C 61 31  .[..sP..sP..tla1
12B0: 1C 05 80 2B 73 50 03 01  5F 80 23 BA F0 FF FF 7F  ...+sP.._.#.....
12C0: 60 80 61 80 62 80 63 80  1C 08 80 52 01 80 F8 FF  `.a.b.c....R....
12D0: FF 7F F8 FF FF 7F 73 30  38 34 45 01 80 F8 FF FF  ......s084E.....
12E0: 7F F8 FF FF 7F 73 30 38  35 02 80 66 11 80 31 50  .....s085..f..1P
12F0: 03 01 31 50 03 01 61 77  77 30 27 32 73 50 03 01  ..1P..aww0'2sP..
1300: 0B 4A 75 50 03 01 73 50  03 01 4A 73 50 03 01 75  .JuP..sP..JsP..u
1310: 50 03 01 6E 75 50 03 01  1C 80 99 75 50 03 01 4A  P..nuP.....uP..J
1320: 74 50 03 01 73 50 03 01  2B 73 50 03 01 64 80 23  tP..sP..+sP..d.#
1330: 27 32 31 50 03 01 08 52  01 80 F8 FF FF 7F F8 FF  '21P...R........
1340: FF 7F 73 30 38 35 45 01  80 F8 FF FF 7F F8 FF FF  ..s085E.........
1350: 7F 73 30 38 36 02 80 1C  05 80 5B 0A 80 73 50 03  .s086.....[..sP.
1360: 01 73 50 03 01 74 6C 6B  30 2B 73 50 03 01 65 80  .sP..tlk0+sP..e.
1370: 23 6E 75 50 03 01 4C 80  99 75 50 03 01 2B 73 50  #nuP..L..uP..+sP
1380: 03 01 66 80 23 79 00 31  50 03 01 75 50 03 01 1C  ..f.#y.1P..uP...
1390: 1E 80 52 01 80 F8 FF FF  7F F8 FF FF 7F 73 30 38  ..R..........s08
13A0: 36 45 01 80 F8 FF FF 7F  F8 FF FF 7F 73 30 38 37  6E..........s087
13B0: 02 80 5B 0A 80 73 50 03  01 73 50 03 01 73 74 64  ..[..sP..sP..std
13C0: 30 6E 75 50 03 01 4C 80  99 75 50 03 01 2B 75 50  0nuP..L..uP..+uP
13D0: 03 01 67 80 23 7C 00 73  50 03 01 1C 1B 80 52 01  ..g.#|.sP.....R.
13E0: 80 F8 FF FF 7F F8 FF FF  7F 73 30 38 37 45 01 80  .........s087E..
13F0: F8 FF FF 7F F8 FF FF 7F  73 30 36 34 02 80 1C 1B  ........s064....
1400: 80 2B 73 50 03 01 68 80  23 7C 01 73 50 03 01 52  .+sP..h.#|.sP..R
1410: 01 80 F8 FF FF 7F F8 FF  FF 7F 73 30 36 34 45 01  ..........s064E.
1420: 80 F8 FF FF 7F F8 FF FF  7F 73 30 38 38 02 80 2B  .........s088..+
1430: 73 50 03 01 69 80 23 66  11 80 31 50 03 01 31 50  sP..i.#f..1P..1P
1440: 03 01 61 77 77 30 1C 1E  80 52 01 80 F8 FF FF 7F  ..aww0...R......
1450: F8 FF FF 7F 73 30 38 38  45 01 80 F8 FF FF 7F F8  ....s088E.......
1460: FF FF 7F 73 30 38 39 02  80 4A 31 50 03 01 73 50  ...s089..J1P..sP
1470: 03 01 1C 1B 80 66 0E 80  31 50 03 01 31 50 03 01  .....f..1P..1P..
1480: 70 6F 69 31 2B 31 50 03  01 6A 80 23 1C 05 80 66  poi1+1P..j.#...f
1490: 0E 80 31 50 03 01 31 50  03 01 70 6F 69 32 4A 74  ..1P..1P..poi2Jt
14A0: 50 03 01 73 50 03 01 1C  05 80 52 01 80 F8 FF FF  P..sP.....R.....
14B0: 7F F8 FF FF 7F 73 30 38  39 4E 00 29 50 03 01 4E  .....s089N.)P..N
14C0: 00 3B 50 03 01 80 29 50  03 01 45 01 80 F8 FF FF  .;P...)P..E.....
14D0: 7F F8 FF FF 7F 73 30 39  30 02 80 66 6B 80 74 50  .....s090..fk.tP
14E0: 03 01 74 50 03 01 73 64  6F 30 1C 05 80 2B 74 50  ..tP..sdo0...+tP
14F0: 03 01 6C 80 23 66 6B 80  74 50 03 01 74 50 03 01  ..l.#fk.tP..tP..
1500: 73 64 6F 31 4A 73 50 03  01 74 50 03 01 1C 05 80  sdo1JsP..tP.....
1510: 2B 73 50 03 01 6D 80 23  5B 0A 80 73 50 03 01 73  +sP..m.#[..sP..s
1520: 50 03 01 74 6C 6B 30 27  32 29 50 03 01 0A 2B 73  P..tlk0'2)P...+s
1530: 50 03 01 6E 80 23 1C 1E  80 52 01 80 F8 FF FF 7F  P..n.#...R......
1540: F8 FF FF 7F 73 30 39 30  45 01 80 F8 FF FF 7F F8  ....s090E.......
1550: FF FF 7F 73 30 39 31 02  80 4A 74 50 03 01 75 50  ...s091..JtP..uP
1560: 03 01 1C 05 80 2B 75 50  03 01 6F 80 23 2A 32 29  .....+uP..o.#*2)
1570: 50 03 01 5B 70 80 29 50  03 01 29 50 03 01 74 68  P..[p.)P..)P..th
1580: 6B 31 1C 05 80 2B 75 50  03 01 71 80 23 4A 29 50  k1...+uP..q.#J)P
1590: 03 01 75 50 03 01 1C 1E  80 2B 29 50 03 01 72 80  ..uP.....+)P..r.
15A0: 23 1C 05 80 52 01 80 F8  FF FF 7F F8 FF FF 7F 73  #...R..........s
15B0: 30 39 31 45 01 80 F8 FF  FF 7F F8 FF FF 7F 73 30  091E..........s0
15C0: 39 32 02 80 29 32 3B 50  03 01 0C 1C 1B 80 5B 73  92..)2;P......[s
15D0: 80 29 50 03 01 29 50 03  01 70 6E 74 30 2B 29 50  .)P..)P..pnt0+)P
15E0: 03 01 74 80 23 5B 73 80  29 50 03 01 29 50 03 01  ..t.#[s.)P..)P..
15F0: 70 6E 74 31 4A 75 50 03  01 29 50 03 01 1C 1B 80  pnt1JuP..)P.....
1600: 5B 0A 80 73 50 03 01 73  50 03 01 73 74 64 30 4A  [..sP..sP..std0J
1610: 73 50 03 01 29 50 03 01  4A 74 50 03 01 29 50 03  sP..)P..JtP..)P.
1620: 01 4A F0 FF FF 7F 29 50  03 01 1C 1B 80 4A 31 50  .J....)P.....J1P
1630: 03 01 29 50 03 01 1C 05  80 4A 3B 50 03 01 75 50  ..)P.....J;P..uP
1640: 03 01 1C 1E 80 52 01 80  F8 FF FF 7F F8 FF FF 7F  .....R..........
1650: 73 30 39 32 4E 01 3C 50  03 01 4E 01 37 50 03 01  s092N.<P..N.7P..
1660: 4E 01 38 50 03 01 45 01  80 F8 FF FF 7F F8 FF FF  N.8P..E.........
1670: 7F 73 30 39 33 02 80 1C  05 80 4A 75 50 03 01 3B  .s093.....JuP..;
1680: 50 03 01 1C 05 80 4A 73  50 03 01 3B 50 03 01 4A  P.....JsP..;P..J
1690: F0 FF FF 7F 3B 50 03 01  5B 75 80 3B 50 03 01 3B  ....;P..[u.;P..;
16A0: 50 03 01 77 68 74 30 4A  74 50 03 01 3B 50 03 01  P..wht0JtP..;P..
16B0: 2B 3B 50 03 01 76 80 23  4A 31 50 03 01 3B 50 03  +;P..v.#J1P..;P.
16C0: 01 1C 05 80 27 32 3C 50  03 01 05 27 32 37 50 03  ....'2<P...'27P.
16D0: 01 0A 27 32 38 50 03 01  03 5B 75 80 3B 50 03 01  ..'28P...[u.;P..
16E0: 3B 50 03 01 77 68 74 31  52 01 80 F8 FF FF 7F F8  ;P..wht1R.......
16F0: FF FF 7F 73 30 39 33 4E  00 3C 50 03 01 4E 00 37  ...s093N.<P..N.7
1700: 50 03 01 4E 00 38 50 03  01 45 01 80 F8 FF FF 7F  P..N.8P..E......
1710: F8 FF FF 7F 73 30 38 32  02 80 1C 1F 80 52 01 80  ....s082.....R..
1720: F8 FF FF 7F F8 FF FF 7F  73 30 38 32 45 01 80 F8  ........s082E...
1730: FF FF 7F F8 FF FF 7F 73  30 39 35 02 80 1C 05 80  .......s095.....
1740: 5B 75 80 29 50 03 01 29  50 03 01 61 6E 67 30 2B  [u.)P..)P..ang0+
1750: 29 50 03 01 77 80 23 1C  1E 80 27 32 3B 50 03 01  )P..w.#...'2;P..
1760: 0D 4A 3C 50 03 01 73 50  03 01 2B 3C 50 03 01 78  .J<P..sP..+<P..x
1770: 80 23 1C 05 80 2B 37 50  03 01 79 80 23 1C 05 80  .#...+7P..y.#...
1780: 27 32 37 50 03 01 0B 5B  75 80 38 50 03 01 38 50  '27P...[u.8P..8P
1790: 03 01 61 6E 67 30 2B 38  50 03 01 7A 80 23 27 32  ..ang0+8P..z.#'2
17A0: 38 50 03 01 04 1C 05 80  27 32 3C 50 03 01 06 1C  8P......'2<P....
17B0: 1B 80 27 32 29 50 03 01  0B 4A 74 50 03 01 73 50  ..'2)P...JtP..sP
17C0: 03 01 1C 13 80 52 01 80  F8 FF FF 7F F8 FF FF 7F  .....R..........
17D0: 73 30 39 35 4E 01 29 50  03 01 4E 01 3B 50 03 01  s095N.)P..N.;P..
17E0: 4E 01 3C 50 03 01 4E 01  37 50 03 01 4E 01 38 50  N.<P..N.7P..N.8P
17F0: 03 01 45 01 80 F8 FF FF  7F F8 FF FF 7F 73 30 39  ..E..........s09
1800: 36 02 80 1C 13 80 6E 74  50 03 01 4C 80 99 74 50  6.....ntP..L..tP
1810: 03 01 99 74 50 03 01 1C  05 80 4A 73 50 03 01 74  ...tP.....JsP..t
1820: 50 03 01 1C 05 80 2B 74  50 03 01 7B 80 23 4A 73  P.....+tP..{.#Js
1830: 50 03 01 74 50 03 01 1C  05 80 5B 0A 80 73 50 03  P..tP.....[..sP.
1840: 01 73 50 03 01 74 68 6B  31 1C 05 80 2B 73 50 03  .sP..thk1...+sP.
1850: 01 7C 80 23 1C 05 80 1C  05 80 52 01 80 F8 FF FF  .|.#......R.....
1860: 7F F8 FF FF 7F 73 30 39  36 45 01 80 F8 FF FF 7F  .....s096E......
1870: F8 FF FF 7F 73 30 39 37  02 80 5B 0A 80 73 50 03  ....s097..[..sP.
1880: 01 73 50 03 01 74 68 6B  32 1C 13 80 4A 31 50 03  .sP..thk2...J1P.
1890: 01 75 50 03 01 1C 05 80  66 11 80 31 50 03 01 31  .uP.....f..1P..1
18A0: 50 03 01 61 77 77 30 2B  31 50 03 01 7D 80 23 1C  P..aww0+1P..}.#.
18B0: 13 80 4A 73 50 03 01 75  50 03 01 4A 74 50 03 01  ..JsP..uP..JtP..
18C0: 75 50 03 01 4A F0 FF FF  7F 75 50 03 01 4A 75 50  uP..J....uP..JuP
18D0: 03 01 74 50 03 01 27 32  75 50 03 01 06 1C 1E 80  ..tP..'2uP......
18E0: 52 01 80 F8 FF FF 7F F8  FF FF 7F 73 30 39 37 45  R..........s097E
18F0: 01 80 F8 FF FF 7F F8 FF  FF 7F 73 30 39 38 02 80  ..........s098..
1900: 27 32 76 50 03 01 02 66  0E 80 31 50 03 01 31 50  '2vP...f..1P..1P
1910: 03 01 70 6F 69 32 1C 28  80 27 32 75 50 03 01 05  ..poi2.(.'2uP...
1920: 27 32 76 50 03 01 03 1C  13 80 7B 75 50 03 01 52  '2vP......{uP..R
1930: 01 80 F8 FF FF 7F F8 FF  FF 7F 73 30 39 38 45 01  ..........s098E.
1940: 80 F8 FF FF 7F F8 FF FF  7F 73 30 39 39 02 80 4A  .........s099..J
1950: 73 50 03 01 75 50 03 01  5B 0A 80 73 50 03 01 73  sP..uP..[..sP..s
1960: 50 03 01 74 6C 62 30 1C  05 80 27 32 F0 FF FF 7F  P..tlb0...'2....
1970: 29 2B 73 50 03 01 7E 80  23 4A 75 50 03 01 74 50  )+sP..~.#JuP..tP
1980: 03 01 6F 76 75 50 03 01  4A 75 50 03 01 73 50 03  ..ovuP..JuP..sP.
1990: 01 6F 76 75 50 03 01 4A  75 50 03 01 74 50 03 01  .ovuP..JuP..tP..
19A0: 1C 1E 80 52 01 80 F8 FF  FF 7F F8 FF FF 7F 73 30  ...R..........s0
19B0: 39 39 45 01 80 F8 FF FF  7F F8 FF FF 7F 73 31 30  99E..........s10
19C0: 30 02 80 1C 13 80 66 7F  80 75 50 03 01 75 50 03  0.....f..uP..uP.
19D0: 01 75 74 6C 30 1C 1E 80  2B 75 50 03 01 80 80 23  .utl0...+uP....#
19E0: 66 7F 80 75 50 03 01 75  50 03 01 75 74 6C 31 1C  f..uP..uP..utl1.
19F0: 03 80 52 01 80 F8 FF FF  7F F8 FF FF 7F 73 31 30  ..R..........s10
1A00: 30 45 01 80 F8 FF FF 7F  F8 FF FF 7F 73 31 30 31  0E..........s101
1A10: 02 80 1C 05 80 5B 0A 80  73 50 03 01 73 50 03 01  .....[..sP..sP..
1A20: 74 6C 62 31 27 32 75 50  03 01 04 1C 05 80 4A 74  tlb1'2uP......Jt
1A30: 50 03 01 75 50 03 01 4A  31 50 03 01 75 50 03 01  P..uP..J1P..uP..
1A40: 4A F0 FF FF 7F 75 50 03  01 2B 75 50 03 01 81 80  J....uP..+uP....
1A50: 23 1C 1E 80 52 01 80 F8  FF FF 7F F8 FF FF 7F 73  #...R..........s
1A60: 31 30 31 45 01 80 F8 FF  FF 7F F8 FF FF 7F 73 31  101E..........s1
1A70: 30 32 02 80 1C 13 80 2B  74 50 03 01 82 80 23 1C  02.....+tP....#.
1A80: 05 80 52 01 80 F8 FF FF  7F F8 FF FF 7F 73 31 30  ..R..........s10
1A90: 32 45 01 80 F8 FF FF 7F  F8 FF FF 7F 73 31 30 33  2E..........s103
1AA0: 02 80 1C 05 80 4A 31 50  03 01 73 50 03 01 1C 05  .....J1P..sP....
1AB0: 80 79 00 74 50 03 01 31  50 03 01 2B 31 50 03 01  .y.tP..1P..+1P..
1AC0: 83 80 23 1C 05 80 5B 0A  80 73 50 03 01 73 50 03  ..#...[..sP..sP.
1AD0: 01 74 6C 62 30 1C 1E 80  2B 73 50 03 01 84 80 23  .tlb0...+sP....#
1AE0: 52 01 80 F8 FF FF 7F F8  FF FF 7F 73 31 30 33 45  R..........s103E
1AF0: 01 80 F8 FF FF 7F F8 FF  FF 7F 73 31 30 34 02 80  ..........s104..
1B00: 7B 74 50 03 01 1C 05 80  6E 74 50 03 01 4C 80 99  {tP.....ntP..L..
1B10: 74 50 03 01 2B 74 50 03  01 85 80 23 1C 13 80 52  tP..+tP....#...R
1B20: 01 80 F8 FF FF 7F F8 FF  FF 7F 73 31 30 34 45 01  ..........s104E.
1B30: 80 F8 FF FF 7F F8 FF FF  7F 73 31 30 35 02 80 5B  .........s105..[
1B40: 0A 80 73 50 03 01 73 50  03 01 74 6C 62 31 1C 05  ..sP..sP..tlb1..
1B50: 80 4A 73 50 03 01 74 50  03 01 2B 73 50 03 01 86  .JsP..tP..+sP...
1B60: 80 23 1C 05 80 52 01 80  F8 FF FF 7F F8 FF FF 7F  .#...R..........
1B70: 73 31 30 35 45 01 80 F8  FF FF 7F F8 FF FF 7F 73  s105E..........s
1B80: 31 30 36 02 80 1C 13 80  2B 31 50 03 01 87 80 23  106.....+1P....#
1B90: 66 11 80 31 50 03 01 31  50 03 01 61 66 72 30 2B  f..1P..1P..afr0+
1BA0: 31 50 03 01 88 80 23 1C  1E 80 52 01 80 F8 FF FF  1P....#...R.....
1BB0: 7F F8 FF FF 7F 73 31 30  36 45 01 80 F8 FF FF 7F  .....s106E......
1BC0: F8 FF FF 7F 73 31 30 37  02 80 1C 05 80 66 11 80  ....s107.....f..
1BD0: 31 50 03 01 31 50 03 01  61 66 72 31 5B 0A 80 73  1P..1P..afr1[..s
1BE0: 50 03 01 73 50 03 01 74  6C 6B 30 2B 73 50 03 01  P..sP..tlk0+sP..
1BF0: 89 80 23 1C 05 80 4A 73  50 03 01 74 50 03 01 2B  ..#...JsP..tP..+
1C00: 73 50 03 01 8A 80 23 1C  1E 80 5B 0A 80 73 50 03  sP....#...[..sP.
1C10: 01 73 50 03 01 73 74 64  30 52 01 80 F8 FF FF 7F  .sP..std0R......
1C20: F8 FF FF 7F 73 31 30 37  45 01 80 F8 FF FF 7F F8  ....s107E.......
1C30: FF FF 7F 73 31 30 38 02  80 1C 13 80 2B 74 50 03  ...s108.....+tP.
1C40: 01 8B 80 23 1C 03 80 66  02 80 74 50 03 01 74 50  ...#...f..tP..tP
1C50: 03 01 74 6C 6B 30 52 01  80 F8 FF FF 7F F8 FF FF  ..tlk0R.........
1C60: 7F 73 31 30 38 45 01 80  F8 FF FF 7F F8 FF FF 7F  .s108E..........
1C70: 73 31 30 00 02 80 2B 74  50 03 01 8C 80 23 1C 1E  s10...+tP....#..
1C80: 80 66 02 80 74 50 03 01  74 50 03 01 74 65 6E 30  .f..tP..tP..ten0
1C90: 27 32 74 50 03 01 05 1C  05 80 52 01 80 F8 FF FF  '2tP......R.....
1CA0: 7F F8 FF FF 7F 73 31 30  39 45 01 80 F8 FF FF 7F  .....s109E......
1CB0: F8 FF FF 7F 73 31 31 30  02 80 4A 73 50 03 01 74  ....s110..JsP..t
1CC0: 50 03 01 4A 31 50 03 01  74 50 03 01 4A F0 FF FF  P..J1P..tP..J...
1CD0: 7F 74 50 03 01 1C 05 80  27 32 73 50 03 01 0C 1C  .tP.....'2sP....
1CE0: 05 80 27 32 31 50 03 01  09 2B 73 50 03 01 8D 80  ..'21P...+sP....
1CF0: 23 1C 1E 80 66 11 80 31  50 03 01 31 50 03 01 61  #...f..1P..1P..a
1D00: 6E 67 30 2B 31 50 03 01  8E 80 23 7B 73 50 03 01  ng0+1P....#{sP..
1D10: 27 32 73 50 03 01 0D 66  8F 80 31 50 03 01 31 50  '2sP...f..1P..1P
1D20: 03 01 74 6C 6B 32 1C 05  80 52 01 80 F8 FF FF 7F  ..tlk2...R......
1D30: F8 FF FF 7F 73 31 31 30  45 01 80 F8 FF FF 7F F8  ....s110E.......
1D40: FF FF 7F 73 31 31 31 02  80 4A F0 FF FF 7F 73 50  ...s111..J....sP
1D50: 03 01 5B 0A 80 73 50 03  01 73 50 03 01 74 6C 63  ..[..sP..sP..tlc
1D60: 30 1C 05 80 2B 73 50 03  01 90 80 23 1C 1E 80 1A  0...+sP....#....
1D70: A0 1D 52 01 80 F8 FF FF  7F F8 FF FF 7F 73 31 31  ..R..........s11
1D80: 00 1C 1E 80 1A F4 1D 46  00 21 00 45 20 80 F8 FF  .......F.!.E ...
1D90: FF 7F F8 FF FF 7F 66 64  6F 30 02 80 1C 05 80 1B  ......fdo0......
1DA0: 45 20 80 F8 FF FF 7F F8  FF FF 7F 66 64 6F 31 02  E .........fdo1.
1DB0: 80 55 20 80 F8 FF FF 7F  F8 FF FF 7F 66 64 6F 31  .U .........fdo1
1DC0: 1B 45 20 80 F8 FF FF 7F  F8 FF FF 7F 66 64 6F 32  .E .........fdo2
1DD0: 02 80 55 20 80 F8 FF FF  7F F8 FF FF 7F 66 64 6F  ..U .........fdo
1DE0: 32 1B 45 20 80 F8 FF FF  7F F8 FF FF 7F 66 64 69  2.E .........fdi
1DF0: 30 02 80 1B 45 20 80 F8  FF FF 7F F8 FF FF 7F 66  0...E .........f
1E00: 64 69 31 02 80 1B 45 20  80 F8 FF FF 7F F8 FF FF  di1...E ........
1E10: 7F 66 64 69 32 02 80 1B  45 91 80 F0 FF FF 7F F0  .fdi2...E.......
1E20: FF FF 7F 77 68 6F 31 02  80 55 91 80 F0 FF FF 7F  ...who1..U......
1E30: F0 FF FF 7F 77 68 6F 31  1B 45 91 80 F0 FF FF 7F  ....who1.E......
1E40: F0 FF FF 7F 77 68 69 31  02 80 55 91 80 F0 FF FF  ....whi1..U.....
1E50: 7F F0 FF FF 7F 77 68 69  31 1B                    .....whi1.      
```

#### Opcodes

```
  0: 0x0C02 [0x42] SET_CLI_EVENT_CANCEL_DATA()
  1: 0x0C03 [0x4E] SET_ENTITY_HIDE_FLAG: Hide Tsetseroon (ID: 16994345/0x01035029)
  2: 0x0C09 [0x4E] SET_ENTITY_HIDE_FLAG: Hide Sisiroon (ID: 16994363/0x0103503B)
  3: 0x0C0F [0x4E] SET_ENTITY_HIDE_FLAG: Hide Loloroon (ID: 16994364/0x0103503C)
  4: 0x0C15 [0x4E] SET_ENTITY_HIDE_FLAG: Hide Leleroon (ID: 16994359/0x01035037)
  5: 0x0C1B [0x4E] SET_ENTITY_HIDE_FLAG: Hide Yuyuroon (ID: 16994360/0x01035038)
  6: 0x0C21 [0x45] LOAD_SCHEDULED_TASK: Load scheduler "fdo1" with entities [LocalPlayer, LocalPlayer], work=[200*, 0*]
  7: 0x0C32 [0x55] WAIT_LOAD_SCHEDULER: Wait for scheduler "fdo1" with entities [LocalPlayer, LocalPlayer], work=200*
  8: 0x0C41 [0x46] CAMERA_CONTROL: Disable user control
  9: 0x0C43 [0x38] SET_CLIENT_EVENT_MODE(mode=19*)
 10: 0x0C46 [0x4E] SET_ENTITY_HIDE_FLAG: Show Wadayra (ID: 16994419/0x01035073)
 11: 0x0C4C [0x4E] SET_ENTITY_HIDE_FLAG: Show lamia (ID: 16994422/0x01035076)
 12: 0x0C52 [0x4E] SET_ENTITY_HIDE_FLAG: Show Ahgdeen (ID: 16994420/0x01035074)
 13: 0x0C58 [0x4E] SET_ENTITY_HIDE_FLAG: Show Basweema (ID: 16994421/0x01035075)
 14: 0x0C5E [0x2F] Wadayra (ID: 16994419/0x01035073)->Render.Flags0 &= ~0x80000 // Bit 19
 15: 0x0C64 [0x2F] lamia (ID: 16994422/0x01035076)->Render.Flags0 &= ~0x80000 // Bit 19
 16: 0x0C6A [0x2F] Ahgdeen (ID: 16994420/0x01035074)->Render.Flags0 &= ~0x80000 // Bit 19
 17: 0x0C70 [0x2F] Basweema (ID: 16994421/0x01035075)->Render.Flags0 &= ~0x80000 // Bit 19
 18: 0x0C76 [0x29] REQ_SET_WAIT(priority=0x0A, entity_id=LocalPlayer, tag_num=0x27)
 19: 0x0C7D [0x29] REQ_SET_WAIT(priority=0x32, entity_id=lamia (ID: 16994422/0x01035076), tag_num=0x01)
 20: 0x0C84 [0x92] Wadayra (ID: 16994419/0x01035073)->Render.Flags3 ^= 0x01
 21: 0x0C8A [0x92] Fhe Maksojha (ID: 16994353/0x01035031)->Render.Flags3 ^= 0x01
 22: 0x0C90 [0x92] Ahgdeen (ID: 16994420/0x01035074)->Render.Flags3 ^= 0x01
 23: 0x0C96 [0x92] Basweema (ID: 16994421/0x01035075)->Render.Flags3 ^= 0x01
 24: 0x0C9C [0x92] Tsetseroon (ID: 16994345/0x01035029)->Render.Flags3 ^= 0x01
 25: 0x0CA2 [0x92] Sisiroon (ID: 16994363/0x0103503B)->Render.Flags3 ^= 0x01
 26: 0x0CA8 [0x92] Loloroon (ID: 16994364/0x0103503C)->Render.Flags3 ^= 0x01
 27: 0x0CAE [0x92] Leleroon (ID: 16994359/0x01035037)->Render.Flags3 ^= 0x01
 28: 0x0CB4 [0x92] Yuyuroon (ID: 16994360/0x01035038)->Render.Flags3 ^= 0x01
 29: 0x0CBA [0x92] lamia (ID: 16994422/0x01035076)->Render.Flags3 ^= 0x01
 30: 0x0CC0 [0x80] LOAD_WAIT(entity=Wadayra (ID: 16994419/0x01035073))
 31: 0x0CC5 [0x80] LOAD_WAIT(entity=Fhe Maksojha (ID: 16994353/0x01035031))
 32: 0x0CCA [0x80] LOAD_WAIT(entity=Ahgdeen (ID: 16994420/0x01035074))
 33: 0x0CCF [0x80] LOAD_WAIT(entity=Basweema (ID: 16994421/0x01035075))
 34: 0x0CD4 [0x80] LOAD_WAIT(entity=lamia (ID: 16994422/0x01035076))
 35: 0x0CD9 [0x6C] FADE_ENTITY_COLOR(entity_id=lamia (ID: 16994422/0x01035076), end_alpha=0*, fade_time=1*)
 36: 0x0CE2 [0x4A] Fhe Maksojha (ID: 16994353/0x01035031) looks at LocalPlayer
 37: 0x0CEB [0x4A] Wadayra (ID: 16994419/0x01035073) looks at LocalPlayer
 38: 0x0CF4 [0x45] LOAD_SCHEDULED_TASK: Load scheduler "s065" with entities [EventEntity, EventEntity], work=[279*, 0*]
 39: 0x0D05 [0x1C] WAIT(120* ticks)
 40: 0x0D08 [0x1A] CALL_SUBROUTINE(address=0x1DF4)
 41: 0x0D0B [0x1C] WAIT(60* ticks)
 42: 0x0D0E [0x5B] LOAD_EXT_SCHEDULER: Load scheduler "tlc0" with entities [Wadayra (ID: 16994419/0x01035073), Wadayra (ID: 16994419/0x01035073)], work=70*
 43: 0x0D1D [0x1C] WAIT(30* ticks)
 44: 0x0D20 [0x2B] Wadayra (ID: 16994419/0x01035073) [11166*]:
    → "You're back! Did you find my son?"
 45: 0x0D27 [0x23] WAIT_FOR_DIALOG_INTERACTION
 46: 0x0D28 [0x27] REQ_SET(priority=0x32, entity_id=Ahgdeen (ID: 16994420/0x01035074), tag_num=0x02)
 47: 0x0D2F [0x1C] WAIT(30* ticks)
 48: 0x0D32 [0x27] REQ_SET(priority=0x32, entity_id=Basweema (ID: 16994421/0x01035075), tag_num=0x02)
 49: 0x0D39 [0x52] END_LOAD_SCHEDULER: End scheduler "s065" with entities [EventEntity, EventEntity], work=279*
 50: 0x0D48 [0x45] LOAD_SCHEDULED_TASK: Load scheduler "s066" with entities [EventEntity, EventEntity], work=[279*, 0*]
 51: 0x0D59 [0x4E] SET_ENTITY_HIDE_FLAG: Hide LocalPlayer
 52: 0x0D5F [0x1C] WAIT(60* ticks)
 53: 0x0D62 [0x2B] Ahgdeen (ID: 16994420/0x01035074) [11167*]:
    → "Mother..."
 54: 0x0D69 [0x23] WAIT_FOR_DIALOG_INTERACTION
 55: 0x0D6A [0x4A] Basweema (ID: 16994421/0x01035075) looks at Wadayra (ID: 16994419/0x01035073)
 56: 0x0D73 [0x4A] Wadayra (ID: 16994419/0x01035073) looks at Ahgdeen (ID: 16994420/0x01035074)
 57: 0x0D7C [0x5B] LOAD_EXT_SCHEDULER: Load scheduler "tlc1" with entities [Wadayra (ID: 16994419/0x01035073), Wadayra (ID: 16994419/0x01035073)], work=70*
 58: 0x0D8B [0x1C] WAIT(30* ticks)
 59: 0x0D8E [0x52] END_LOAD_SCHEDULER: End scheduler "s066" with entities [EventEntity, EventEntity], work=279*
 60: 0x0D9D [0x45] LOAD_SCHEDULED_TASK: Load scheduler "s067" with entities [EventEntity, EventEntity], work=[279*, 0*]
 61: 0x0DAE [0x1C] WAIT(30* ticks)
 62: 0x0DB1 [0x5B] LOAD_EXT_SCHEDULER: Load scheduler "tlb0" with entities [Wadayra (ID: 16994419/0x01035073), Wadayra (ID: 16994419/0x01035073)], work=70*
 63: 0x0DC0 [0x4A] LocalPlayer looks at Ahgdeen (ID: 16994420/0x01035074)
 64: 0x0DC9 [0x1C] WAIT(30* ticks)
 65: 0x0DCC [0x2B] Wadayra (ID: 16994419/0x01035073) [11168*]:
    → "Ahgdeen!!!"
 66: 0x0DD3 [0x23] WAIT_FOR_DIALOG_INTERACTION
 67: 0x0DD4 [0x5B] LOAD_EXT_SCHEDULER: Load scheduler "tlb1" with entities [Wadayra (ID: 16994419/0x01035073), Wadayra (ID: 16994419/0x01035073)], work=70*
 68: 0x0DE3 [0x1C] WAIT(60* ticks)
 69: 0x0DE6 [0x27] REQ_SET(priority=0x32, entity_id=Wadayra (ID: 16994419/0x01035073), tag_num=0x09)
 70: 0x0DED [0x1C] WAIT(45* ticks)
 71: 0x0DF0 [0x52] END_LOAD_SCHEDULER: End scheduler "s067" with entities [EventEntity, EventEntity], work=279*
 72: 0x0DFF [0x45] LOAD_SCHEDULED_TASK: Load scheduler "s068" with entities [EventEntity, EventEntity], work=[279*, 0*]
 73: 0x0E10 [0x4A] Wadayra (ID: 16994419/0x01035073) looks at Ahgdeen (ID: 16994420/0x01035074)
 74: 0x0E19 [0x4A] Fhe Maksojha (ID: 16994353/0x01035031) looks at Ahgdeen (ID: 16994420/0x01035074)
 75: 0x0E22 [0x4E] SET_ENTITY_HIDE_FLAG: Show LocalPlayer
 76: 0x0E28 [0x1C] WAIT(60* ticks)
 77: 0x0E2B [0x5B] LOAD_EXT_SCHEDULER: Load scheduler "tlc0" with entities [Wadayra (ID: 16994419/0x01035073), Wadayra (ID: 16994419/0x01035073)], work=70*
 78: 0x0E3A [0x2B] Wadayra (ID: 16994419/0x01035073) [11169*]:
    → "Foolish boy! There wasn't a day you weren't in my thoughts! Do you have any idea how worried I was?"
 79: 0x0E41 [0x23] WAIT_FOR_DIALOG_INTERACTION
 80: 0x0E42 [0x1C] WAIT(30* ticks)
 81: 0x0E45 [0x66] LOAD_EXT_SCHEDULER_MAIN: Load scheduler "ure0" with entities [Fhe Maksojha (ID: 16994353/0x01035031), Fhe Maksojha (ID: 16994353/0x01035031)], work=8*
 82: 0x0E54 [0x2B] Fhe Maksojha (ID: 16994353/0x01035031) [11170*]:
    → "Ah, a touching reunion at last..."
 83: 0x0E5B [0x23] WAIT_FOR_DIALOG_INTERACTION
 84: 0x0E5C [0x1C] WAIT(60* ticks)
 85: 0x0E5F [0x5B] LOAD_EXT_SCHEDULER: Load scheduler "tlc1" with entities [Wadayra (ID: 16994419/0x01035073), Wadayra (ID: 16994419/0x01035073)], work=70*
 86: 0x0E6E [0x52] END_LOAD_SCHEDULER: End scheduler "s068" with entities [EventEntity, EventEntity], work=279*
 87: 0x0E7D [0x45] LOAD_SCHEDULED_TASK: Load scheduler "s070" with entities [EventEntity, EventEntity], work=[279*, 0*]
 88: 0x0E8E [0x1C] WAIT(30* ticks)
 89: 0x0E91 [0x5B] LOAD_EXT_SCHEDULER: Load scheduler "tla0" with entities [Wadayra (ID: 16994419/0x01035073), Wadayra (ID: 16994419/0x01035073)], work=70*
 90: 0x0EA0 [0x2B] Wadayra (ID: 16994419/0x01035073) [11171*]:
    → "Look at you! All skin and bones...poor thing, you must have had a rough time without Mama to help you!"
 91: 0x0EA7 [0x23] WAIT_FOR_DIALOG_INTERACTION
 92: 0x0EA8 [0x6E] Ahgdeen (ID: 16994420/0x01035074) uses emote 6*
 93: 0x0EAF [0x99] Wait for Ahgdeen (ID: 16994420/0x01035074) animation to complete
 94: 0x0EB4 [0x1C] WAIT(60* ticks)
 95: 0x0EB7 [0x2B] Ahgdeen (ID: 16994420/0x01035074) [11172*]:
    → "Mom, th-that hurts..."
 96: 0x0EBE [0x23] WAIT_FOR_DIALOG_INTERACTION
 97: 0x0EBF [0x27] REQ_SET(priority=0x32, entity_id=LocalPlayer, tag_num=0x28)
 98: 0x0EC6 [0x1C] WAIT(60* ticks)
 99: 0x0EC9 [0x52] END_LOAD_SCHEDULER: End scheduler "s070" with entities [EventEntity, EventEntity], work=279*
100: 0x0ED8 [0x45] LOAD_SCHEDULED_TASK: Load scheduler "s071" with entities [EventEntity, EventEntity], work=[279*, 0*]
101: 0x0EE9 [0x5B] LOAD_EXT_SCHEDULER: Load scheduler "tla1" with entities [Wadayra (ID: 16994419/0x01035073), Wadayra (ID: 16994419/0x01035073)], work=70*
102: 0x0EF8 [0x1C] WAIT(30* ticks)
103: 0x0EFB [0x5B] LOAD_EXT_SCHEDULER: Load scheduler "tlk0" with entities [Wadayra (ID: 16994419/0x01035073), Wadayra (ID: 16994419/0x01035073)], work=70*
104: 0x0F0A [0x1C] WAIT(30* ticks)
105: 0x0F0D [0x2B] Wadayra (ID: 16994419/0x01035073) [11173*]:
    → "You're safe now, and there's nothing to fear. I'll never let you out of my sight again!"
106: 0x0F14 [0x23] WAIT_FOR_DIALOG_INTERACTION
107: 0x0F15 [0x1C] WAIT(30* ticks)
108: 0x0F18 [0x03] Work_Zone[2] = 5586*
109: 0x0F1D [0x2B] Wadayra (ID: 16994419/0x01035073) [11174*]:
    → "Now let's hurry home! I'll make you all the piping-hot $0 you could ever want!"
110: 0x0F24 [0x23] WAIT_FOR_DIALOG_INTERACTION
111: 0x0F25 [0x5B] LOAD_EXT_SCHEDULER: Load scheduler "std0" with entities [Wadayra (ID: 16994419/0x01035073), Wadayra (ID: 16994419/0x01035073)], work=70*
112: 0x0F34 [0x1C] WAIT(60* ticks)
113: 0x0F37 [0x27] REQ_SET(priority=0x32, entity_id=Wadayra (ID: 16994419/0x01035073), tag_num=0x0A)
114: 0x0F3E [0x4A] Fhe Maksojha (ID: 16994353/0x01035031) looks at Wadayra (ID: 16994419/0x01035073)
115: 0x0F47 [0x4A] LocalPlayer looks at Wadayra (ID: 16994419/0x01035073)
116: 0x0F50 [0x1C] WAIT(15* ticks)
117: 0x0F53 [0x52] END_LOAD_SCHEDULER: End scheduler "s071" with entities [EventEntity, EventEntity], work=279*
118: 0x0F62 [0x45] LOAD_SCHEDULED_TASK: Load scheduler "s072" with entities [EventEntity, EventEntity], work=[279*, 0*]
119: 0x0F73 [0x27] REQ_SET(priority=0x32, entity_id=Fhe Maksojha (ID: 16994353/0x01035031), tag_num=0x07)
120: 0x0F7A [0x4A] Ahgdeen (ID: 16994420/0x01035074) looks at Wadayra (ID: 16994419/0x01035073)
121: 0x0F83 [0x1C] WAIT(60* ticks)
122: 0x0F86 [0x29] REQ_SET_WAIT(priority=0x32, entity_id=Ahgdeen (ID: 16994420/0x01035074), tag_num=0x03)
123: 0x0F8D [0x2B] Ahgdeen (ID: 16994420/0x01035074) [11175*]:
    → "M-Mom... There's something..."
124: 0x0F94 [0x23] WAIT_FOR_DIALOG_INTERACTION
125: 0x0F95 [0x52] END_LOAD_SCHEDULER: End scheduler "s072" with entities [EventEntity, EventEntity], work=279*
126: 0x0FA4 [0x45] LOAD_SCHEDULED_TASK: Load scheduler "s073" with entities [EventEntity, EventEntity], work=[279*, 0*]
127: 0x0FB5 [0x1C] WAIT(30* ticks)
128: 0x0FB8 [0x2B] Wadayra (ID: 16994419/0x01035073) [11176*]:
    → "I'm sure you were just a bit confused. That's why you left home. Even you get tired sometimes, don't you?"
129: 0x0FBF [0x23] WAIT_FOR_DIALOG_INTERACTION
130: 0x0FC0 [0x1C] WAIT(60* ticks)
131: 0x0FC3 [0x2B] Wadayra (ID: 16994419/0x01035073) [11177*]:
    → "But from now on, you can just leave everything to your old mom here!"
132: 0x0FCA [0x23] WAIT_FOR_DIALOG_INTERACTION
133: 0x0FCB [0x1C] WAIT(60* ticks)
134: 0x0FCE [0x4A] Ahgdeen (ID: 16994420/0x01035074) looks at Wadayra (ID: 16994419/0x01035073)
135: 0x0FD7 [0x2B] Ahgdeen (ID: 16994420/0x01035074) [11178*]:
    → "Mother!"
136: 0x0FDE [0x23] WAIT_FOR_DIALOG_INTERACTION
137: 0x0FDF [0x1C] WAIT(70* ticks)
138: 0x0FE2 [0x27] REQ_SET(priority=0x32, entity_id=Ahgdeen (ID: 16994420/0x01035074), tag_num=0x04)
139: 0x0FE9 [0x1C] WAIT(60* ticks)
140: 0x0FEC [0x4A] Wadayra (ID: 16994419/0x01035073) looks at Ahgdeen (ID: 16994420/0x01035074)
141: 0x0FF5 [0x4A] Fhe Maksojha (ID: 16994353/0x01035031) looks at Ahgdeen (ID: 16994420/0x01035074)
142: 0x0FFE [0x1C] WAIT(30* ticks)
143: 0x1001 [0x27] REQ_SET(priority=0x32, entity_id=Basweema (ID: 16994421/0x01035075), tag_num=0x03)
144: 0x1008 [0x4A] LocalPlayer looks at Ahgdeen (ID: 16994420/0x01035074)
145: 0x1011 [0x52] END_LOAD_SCHEDULER: End scheduler "s073" with entities [EventEntity, EventEntity], work=279*
146: 0x1020 [0x45] LOAD_SCHEDULED_TASK: Load scheduler "s074" with entities [EventEntity, EventEntity], work=[279*, 0*]
147: 0x1031 [0x1C] WAIT(60* ticks)
148: 0x1034 [0x66] LOAD_EXT_SCHEDULER_MAIN: Load scheduler "tlk0" with entities [Ahgdeen (ID: 16994420/0x01035074), Ahgdeen (ID: 16994420/0x01035074)], work=9*
149: 0x1043 [0x2B] Ahgdeen (ID: 16994420/0x01035074) [11179*]:
    → "I...I can't go back home with you."
150: 0x104A [0x23] WAIT_FOR_DIALOG_INTERACTION
151: 0x104B [0x1C] WAIT(60* ticks)
152: 0x104E [0x66] LOAD_EXT_SCHEDULER_MAIN: Load scheduler "tlk1" with entities [Ahgdeen (ID: 16994420/0x01035074), Ahgdeen (ID: 16994420/0x01035074)], work=9*
153: 0x105D [0x1C] WAIT(30* ticks)
154: 0x1060 [0x52] END_LOAD_SCHEDULER: End scheduler "s074" with entities [EventEntity, EventEntity], work=279*
155: 0x106F [0x45] LOAD_SCHEDULED_TASK: Load scheduler "s075" with entities [EventEntity, EventEntity], work=[279*, 0*]
156: 0x1080 [0x1C] WAIT(30* ticks)
157: 0x1083 [0x4A] Wadayra (ID: 16994419/0x01035073) looks at Ahgdeen (ID: 16994420/0x01035074)
158: 0x108C [0x2B] Wadayra (ID: 16994419/0x01035073) [11180*]:
    → "Ahgdeen? What are you saying?"
159: 0x1093 [0x23] WAIT_FOR_DIALOG_INTERACTION
160: 0x1094 [0x4A] Wadayra (ID: 16994419/0x01035073) looks at Ahgdeen (ID: 16994420/0x01035074)
161: 0x109D [0x1C] WAIT(60* ticks)
162: 0x10A0 [0x4A] Basweema (ID: 16994421/0x01035075) looks at Wadayra (ID: 16994419/0x01035073)
163: 0x10A9 [0x52] END_LOAD_SCHEDULER: End scheduler "s075" with entities [EventEntity, EventEntity], work=279*
164: 0x10B8 [0x45] LOAD_SCHEDULED_TASK: Load scheduler "s076" with entities [EventEntity, EventEntity], work=[279*, 0*]
165: 0x10C9 [0x1C] WAIT(60* ticks)
166: 0x10CC [0x79] Ahgdeen (ID: 16994420/0x01035074) looks at Basweema (ID: 16994421/0x01035075) (Basic look)
167: 0x10D6 [0x1C] WAIT(30* ticks)
168: 0x10D9 [0x2B] Ahgdeen (ID: 16994420/0x01035074) [11181*]:
    → "Let me introduce...my girlfriend."
169: 0x10E0 [0x23] WAIT_FOR_DIALOG_INTERACTION
170: 0x10E1 [0x1C] WAIT(30* ticks)
171: 0x10E4 [0x79] Ahgdeen (ID: 16994420/0x01035074) looks at Basweema (ID: 16994421/0x01035075) (Basic look)
172: 0x10EE [0x1C] WAIT(60* ticks)
173: 0x10F1 [0x52] END_LOAD_SCHEDULER: End scheduler "s076" with entities [EventEntity, EventEntity], work=279*
174: 0x1100 [0x45] LOAD_SCHEDULED_TASK: Load scheduler "s077" with entities [EventEntity, EventEntity], work=[279*, 0*]
175: 0x1111 [0x6E] Basweema (ID: 16994421/0x01035075) uses emote 1*
176: 0x1118 [0x99] Wait for Basweema (ID: 16994421/0x01035075) animation to complete
177: 0x111D [0x99] Wait for Basweema (ID: 16994421/0x01035075) animation to complete
178: 0x1122 [0x1C] WAIT(30* ticks)
179: 0x1125 [0x2B] Basweema (ID: 16994421/0x01035075) [11182*]:
    → "A pleasure to make your acquaintance. My name is Basweema."
180: 0x112C [0x23] WAIT_FOR_DIALOG_INTERACTION
181: 0x112D [0x1C] WAIT(60* ticks)
182: 0x1130 [0x66] LOAD_EXT_SCHEDULER_MAIN: Load scheduler "ure0" with entities [Fhe Maksojha (ID: 16994353/0x01035031), Fhe Maksojha (ID: 16994353/0x01035031)], work=8*
183: 0x113F [0x2B] Fhe Maksojha (ID: 16994353/0x01035031) [11183*]:
    → "Yow! She's a babe!"
184: 0x1146 [0x23] WAIT_FOR_DIALOG_INTERACTION
185: 0x1147 [0x1C] WAIT(90* ticks)
186: 0x114A [0x52] END_LOAD_SCHEDULER: End scheduler "s077" with entities [EventEntity, EventEntity], work=279*
187: 0x1159 [0x45] LOAD_SCHEDULED_TASK: Load scheduler "s078" with entities [EventEntity, EventEntity], work=[279*, 0*]
188: 0x116A [0x1C] WAIT(30* ticks)
189: 0x116D [0x7B] Ahgdeen (ID: 16994420/0x01035074) stops talking
190: 0x1172 [0x1C] WAIT(60* ticks)
191: 0x1175 [0x2B] Ahgdeen (ID: 16994420/0x01035074) [11184*]:
    → "Sorry, Mother, but I have decided to live here with Basweema."
192: 0x117C [0x23] WAIT_FOR_DIALOG_INTERACTION
193: 0x117D [0x6E] Ahgdeen (ID: 16994420/0x01035074) uses emote 7*
194: 0x1184 [0x99] Wait for Ahgdeen (ID: 16994420/0x01035074) animation to complete
195: 0x1189 [0x1C] WAIT(90* ticks)
196: 0x118C [0x2B] Ahgdeen (ID: 16994420/0x01035074) [11185*]:
    → "I am going to marry her."
197: 0x1193 [0x23] WAIT_FOR_DIALOG_INTERACTION
198: 0x1194 [0x4A] Basweema (ID: 16994421/0x01035075) looks at Ahgdeen (ID: 16994420/0x01035074)
199: 0x119D [0x1C] WAIT(30* ticks)
200: 0x11A0 [0x5B] LOAD_EXT_SCHEDULER: Load scheduler "tla0" with entities [Wadayra (ID: 16994419/0x01035073), Wadayra (ID: 16994419/0x01035073)], work=70*
201: 0x11AF [0x52] END_LOAD_SCHEDULER: End scheduler "s078" with entities [EventEntity, EventEntity], work=279*
202: 0x11BE [0x4A] Wadayra (ID: 16994419/0x01035073) looks at Ahgdeen (ID: 16994420/0x01035074)
203: 0x11C7 [0x45] LOAD_SCHEDULED_TASK: Load scheduler "s079" with entities [EventEntity, EventEntity], work=[279*, 0*]
204: 0x11D8 [0x1C] WAIT(60* ticks)
205: 0x11DB [0x52] END_LOAD_SCHEDULER: End scheduler "s079" with entities [EventEntity, EventEntity], work=279*
206: 0x11EA [0x45] LOAD_SCHEDULED_TASK: Load scheduler "s080" with entities [EventEntity, EventEntity], work=[279*, 0*]
207: 0x11FB [0x66] LOAD_EXT_SCHEDULER_MAIN: Load scheduler "aww0" with entities [Fhe Maksojha (ID: 16994353/0x01035031), Fhe Maksojha (ID: 16994353/0x01035031)], work=8*
208: 0x120A [0x1C] WAIT(60* ticks)
209: 0x120D [0x52] END_LOAD_SCHEDULER: End scheduler "s080" with entities [EventEntity, EventEntity], work=279*
210: 0x121C [0x45] LOAD_SCHEDULED_TASK: Load scheduler "s081" with entities [EventEntity, EventEntity], work=[279*, 0*]
211: 0x122D [0x1C] WAIT(60* ticks)
212: 0x1230 [0x52] END_LOAD_SCHEDULER: End scheduler "s081" with entities [EventEntity, EventEntity], work=279*
213: 0x123F [0x45] LOAD_SCHEDULED_TASK: Load scheduler "s082" with entities [EventEntity, EventEntity], work=[279*, 0*]
214: 0x1250 [0x1C] WAIT(240* ticks)
215: 0x1253 [0x52] END_LOAD_SCHEDULER: End scheduler "s082" with entities [EventEntity, EventEntity], work=279*
216: 0x1262 [0x45] LOAD_SCHEDULED_TASK: Load scheduler "s083" with entities [EventEntity, EventEntity], work=[279*, 0*]
217: 0x1273 [0x1C] WAIT(120* ticks)
218: 0x1276 [0x2B] Wadayra (ID: 16994419/0x01035073) [11186*]:
    → "...Is that so?"
219: 0x127D [0x23] WAIT_FOR_DIALOG_INTERACTION
220: 0x127E [0x1C] WAIT(60* ticks)
221: 0x1281 [0x52] END_LOAD_SCHEDULER: End scheduler "s083" with entities [EventEntity, EventEntity], work=279*
222: 0x1290 [0x45] LOAD_SCHEDULED_TASK: Load scheduler "s084" with entities [EventEntity, EventEntity], work=[279*, 0*]
223: 0x12A1 [0x5B] LOAD_EXT_SCHEDULER: Load scheduler "tla1" with entities [Wadayra (ID: 16994419/0x01035073), Wadayra (ID: 16994419/0x01035073)], work=70*
224: 0x12B0 [0x1C] WAIT(30* ticks)
225: 0x12B3 [0x2B] Wadayra (ID: 16994419/0x01035073) [11187*]:
    → "She's pulled the wool over your eyes, hasn't she?"
226: 0x12BA [0x23] WAIT_FOR_DIALOG_INTERACTION
227: 0x12BB [0xBA] SET_ENTITY_POSITION(entity_id=LocalPlayer, pos_x=13.765*, pos_z=69.850*, pos_y=-5.999*, direction=13.3°*)
228: 0x12C8 [0x1C] WAIT(45* ticks)
229: 0x12CB [0x52] END_LOAD_SCHEDULER: End scheduler "s084" with entities [EventEntity, EventEntity], work=279*
230: 0x12DA [0x45] LOAD_SCHEDULED_TASK: Load scheduler "s085" with entities [EventEntity, EventEntity], work=[279*, 0*]
231: 0x12EB [0x66] LOAD_EXT_SCHEDULER_MAIN: Load scheduler "aww0" with entities [Fhe Maksojha (ID: 16994353/0x01035031), Fhe Maksojha (ID: 16994353/0x01035031)], work=8*
232: 0x12FA [0x27] REQ_SET(priority=0x32, entity_id=Wadayra (ID: 16994419/0x01035073), tag_num=0x0B)
233: 0x1301 [0x4A] Basweema (ID: 16994421/0x01035075) looks at Wadayra (ID: 16994419/0x01035073)
234: 0x130A [0x4A] Wadayra (ID: 16994419/0x01035073) looks at Basweema (ID: 16994421/0x01035075)
235: 0x1313 [0x6E] Basweema (ID: 16994421/0x01035075) uses emote 21*
236: 0x131A [0x99] Wait for Basweema (ID: 16994421/0x01035075) animation to complete
237: 0x131F [0x4A] Ahgdeen (ID: 16994420/0x01035074) looks at Wadayra (ID: 16994419/0x01035073)
238: 0x1328 [0x2B] Wadayra (ID: 16994419/0x01035073) [11188*]:
    → "What did you do to him, you vixen!? Give my son back to me!"
239: 0x132F [0x23] WAIT_FOR_DIALOG_INTERACTION
240: 0x1330 [0x27] REQ_SET(priority=0x32, entity_id=Fhe Maksojha (ID: 16994353/0x01035031), tag_num=0x08)
241: 0x1337 [0x52] END_LOAD_SCHEDULER: End scheduler "s085" with entities [EventEntity, EventEntity], work=279*
242: 0x1346 [0x45] LOAD_SCHEDULED_TASK: Load scheduler "s086" with entities [EventEntity, EventEntity], work=[279*, 0*]
243: 0x1357 [0x1C] WAIT(30* ticks)
244: 0x135A [0x5B] LOAD_EXT_SCHEDULER: Load scheduler "tlk0" with entities [Wadayra (ID: 16994419/0x01035073), Wadayra (ID: 16994419/0x01035073)], work=70*
245: 0x1369 [0x2B] Wadayra (ID: 16994419/0x01035073) [11189*]:
    → "Just how many men have you tripped up playing the coy maiden?"
246: 0x1370 [0x23] WAIT_FOR_DIALOG_INTERACTION
247: 0x1371 [0x6E] Basweema (ID: 16994421/0x01035075) uses emote 6*
248: 0x1378 [0x99] Wait for Basweema (ID: 16994421/0x01035075) animation to complete
249: 0x137D [0x2B] Wadayra (ID: 16994419/0x01035073) [11190*]:
    → "You might be able to fool my son, but you can't fool me!"
250: 0x1384 [0x23] WAIT_FOR_DIALOG_INTERACTION
251: 0x1385 [0x79] Fhe Maksojha (ID: 16994353/0x01035031) looks at Basweema (ID: 16994421/0x01035075) (Basic look)
252: 0x138F [0x1C] WAIT(60* ticks)
253: 0x1392 [0x52] END_LOAD_SCHEDULER: End scheduler "s086" with entities [EventEntity, EventEntity], work=279*
254: 0x13A1 [0x45] LOAD_SCHEDULED_TASK: Load scheduler "s087" with entities [EventEntity, EventEntity], work=[279*, 0*]
