# 16994388

## Common Data

| Field            | Value            |
|------------------|------------------|
| Zone             | Nashmau (ID: 53) |
| Block Size       | 12128 bytes      |
| Total Events     | 12               |
| References Count | 231              |

## List of Events

| Event ID              | Entrypoint   |   Size |   Instructions |
|-----------------------|--------------|--------|----------------|
| [65535](#event-65535) | 0x0000       |      1 |              1 |
| [16](#event-16)       | 0x0001       |    691 |             89 |
| [18](#event-18)       | 0x02B4       |    492 |             68 |
| [20](#event-20)       | 0x04A0       |    529 |             69 |
| [277](#event-277)     | 0x06B1       |   1133 |            154 |
| [279](#event-279)     | 0x0B1E       |    595 |             86 |
| [281](#event-281)     | 0x0D71       |   2944 |            367 |
| [23](#event-23)       | 0x18F1       |   1352 |            200 |
| [27](#event-27)       | 0x1E39       |   2000 |            222 |
| [33](#event-33)       | 0x2609       |    570 |             64 |
| [35](#event-35)       | 0x2843       |      9 |              5 |
| [36](#event-36)       | 0x284C       |    824 |            101 |

## DAT References (imed_data)

|   Index | Hex Value   |   Dec Value |
|---------|-------------|-------------|
|       0 | 0x0013      |          19 |
|       1 | 0x001E      |          30 |
|       2 | 0x0103      |         259 |
|       3 | 0x0000      |           0 |
|       4 | 0x000F      |          15 |
|       5 | 0x034B      |         843 |
|       6 | 0x2915      |       10517 |
|       7 | 0x2916      |       10518 |
|       8 | 0x2917      |       10519 |
|       9 | 0x2918      |       10520 |
|      10 | 0x2919      |       10521 |
|      11 | 0x291A      |       10522 |
|      12 | 0x291B      |       10523 |
|      13 | 0x034A      |         842 |
|      14 | 0x291C      |       10524 |
|      15 | 0x115B      |        4443 |
|      16 | 0x0281      |         641 |
|      17 | 0x291D      |       10525 |
|      18 | 0x00C8      |         200 |
|      19 | 0x291E      |       10526 |
|      20 | 0x291F      |       10527 |
|      21 | 0x003C      |          60 |
|      22 | 0x00B4      |         180 |
|      23 | 0x2920      |       10528 |
|      24 | 0x2921      |       10529 |
|      25 | 0x2922      |       10530 |
|      26 | 0x002D      |          45 |
|      27 | 0x2923      |       10531 |
|      28 | 0x00A3      |         163 |
|      29 | 0x2926      |       10534 |
|      30 | 0x0001      |           1 |
|      31 | 0x2927      |       10535 |
|      32 | 0x2928      |       10536 |
|      33 | 0x2929      |       10537 |
|      34 | 0x0078      |         120 |
|      35 | 0x00AF      |         175 |
|      36 | 0x00C9      |         201 |
|      37 | 0x00B5      |         181 |
|      38 | 0x29E1      |       10721 |
|      39 | 0x29E2      |       10722 |
|      40 | 0x0371      |         881 |
|      41 | 0x29E3      |       10723 |
|      42 | 0x29E4      |       10724 |
|      43 | 0x00E2      |         226 |
|      44 | 0x00F0      |         240 |
|      45 | 0x0016      |          22 |
|      46 | 0x29E5      |       10725 |
|      47 | 0x29E6      |       10726 |
|      48 | 0x29E7      |       10727 |
|      49 | 0x29E8      |       10728 |
|      50 | 0x29E9      |       10729 |
|      51 | 0x032D      |         813 |
|      52 | 0x29EA      |       10730 |
|      53 | 0x29EB      |       10731 |
|      54 | 0x29EC      |       10732 |
|      55 | 0x29ED      |       10733 |
|      56 | 0x0903      |        2307 |
|      57 | 0x29EE      |       10734 |
|      58 | 0x29EF      |       10735 |
|      59 | 0x29F0      |       10736 |
|      60 | 0x29F1      |       10737 |
|      61 | 0x29F2      |       10738 |
|      62 | 0x29F3      |       10739 |
|      63 | 0x005A      |          90 |
|      64 | 0x29F4      |       10740 |
|      65 | 0x29F5      |       10741 |
|      66 | 0x00EF      |         239 |
|      67 | 0x0096      |         150 |
|      68 | 0x29F6      |       10742 |
|      69 | 0x29F7      |       10743 |
|      70 | 0x00FE      |         254 |
|      71 | 0x00C6      |         198 |
|      72 | 0x0357      |         855 |
|      73 | 0x29FA      |       10746 |
|      74 | 0x0FF9      |        4089 |
|      75 | 0x29FB      |       10747 |
|      76 | 0x0318      |         792 |
|      77 | 0x29FC      |       10748 |
|      78 | 0x29FD      |       10749 |
|      79 | 0x0386      |         902 |
|      80 | 0x29FE      |       10750 |
|      81 | 0x29FF      |       10751 |
|      82 | 0x2A00      |       10752 |
|      83 | 0x2A01      |       10753 |
|      84 | 0x2A02      |       10754 |
|      85 | 0x2A03      |       10755 |
|      86 | 0x2A04      |       10756 |
|      87 | 0x2A05      |       10757 |
|      88 | 0x2A06      |       10758 |
|      89 | 0x2A07      |       10759 |
|      90 | 0x0009      |           9 |
|      91 | 0x00B8      |         184 |
|      92 | 0x2A08      |       10760 |
|      93 | 0x012C      |         300 |
|      94 | 0x2A09      |       10761 |
|      95 | 0x2A0A      |       10762 |
|      96 | 0x00ED      |         237 |
|      97 | 0x2A0B      |       10763 |
|      98 | 0x2A0C      |       10764 |
|      99 | 0x0354      |         852 |
|     100 | 0x0035      |          53 |
|     101 | 0x0005      |           5 |
|     102 | 0x2A0D      |       10765 |
|     103 | 0x0BF6      |        3062 |
|     104 | 0x2A0E      |       10766 |
|     105 | 0x2A0F      |       10767 |
|     106 | 0x2A10      |       10768 |
|     107 | 0x2A11      |       10769 |
|     108 | 0x2A12      |       10770 |
|     109 | 0x2A13      |       10771 |
|     110 | 0x2A14      |       10772 |
|     111 | 0x00C5      |         197 |
|     112 | 0x0168      |         360 |
|     113 | 0x0358      |         856 |
|     114 | 0x0397      |         919 |
|     115 | 0x000A      |          10 |
|     116 | 0x2A15      |       10773 |
|     117 | 0x2A16      |       10774 |
|     118 | 0x2A17      |       10775 |
|     119 | 0x2A18      |       10776 |
|     120 | 0x2A19      |       10777 |
|     121 | 0x2A1A      |       10778 |
|     122 | 0x2A1B      |       10779 |
|     123 | 0x00A4      |         164 |
|     124 | 0x0183      |         387 |
|     125 | 0x3315      |       13077 |
|     126 | 0xFFFFE5F5  |  4294960629 |
|     127 | 0x0C2E      |        3118 |
|     128 | 0x013D      |         317 |
|     129 | 0x0027      |          39 |
|     130 | 0x2D80      |       11648 |
|     131 | 0x2D82      |       11650 |
|     132 | 0x2D83      |       11651 |
|     133 | 0x00B9      |         185 |
|     134 | 0x2D84      |       11652 |
|     135 | 0x2D85      |       11653 |
|     136 | 0x004F      |          79 |
|     137 | 0x0006      |           6 |
|     138 | 0x0003      |           3 |
|     139 | 0x2D86      |       11654 |
|     140 | 0x2D87      |       11655 |
|     141 | 0x2D88      |       11656 |
|     142 | 0x2D89      |       11657 |
|     143 | 0x004E      |          78 |
|     144 | 0x0002      |           2 |
|     145 | 0x2D8A      |       11658 |
|     146 | 0x2D8B      |       11659 |
|     147 | 0x2D8C      |       11660 |
|     148 | 0x2D8D      |       11661 |
|     149 | 0x03E7      |         999 |
|     150 | 0x2D8E      |       11662 |
|     151 | 0x2D8F      |       11663 |
|     152 | 0x2D90      |       11664 |
|     153 | 0x2D91      |       11665 |
|     154 | 0x2D92      |       11666 |
|     155 | 0x2D93      |       11667 |
|     156 | 0x1525      |        5413 |
|     157 | 0x2D94      |       11668 |
|     158 | 0x2D95      |       11669 |
|     159 | 0x0014      |          20 |
|     160 | 0x2D96      |       11670 |
|     161 | 0x2D97      |       11671 |
|     162 | 0x2D98      |       11672 |
|     163 | 0x2D99      |       11673 |
|     164 | 0x0020      |          32 |
|     165 | 0x2D9A      |       11674 |
|     166 | 0x2D9B      |       11675 |
|     167 | 0x2D9C      |       11676 |
|     168 | 0x2D9D      |       11677 |
|     169 | 0x2D9E      |       11678 |
|     170 | 0x2D9F      |       11679 |
|     171 | 0x2DA0      |       11680 |
|     172 | 0xFFFFFC32  |  4294966322 |
|     173 | 0x258A      |        9610 |
|     174 | 0x0A46      |        2630 |
|     175 | 0x013F      |         319 |
|     176 | 0x2DD2      |       11730 |
|     177 | 0x2DD3      |       11731 |
|     178 | 0x2DD4      |       11732 |
|     179 | 0x2DD5      |       11733 |
|     180 | 0x2DD6      |       11734 |
|     181 | 0x2DD7      |       11735 |
|     182 | 0x2DD8      |       11736 |
|     183 | 0x0010      |          16 |
|     184 | 0x2DD9      |       11737 |
|     185 | 0x7530      |       30000 |
|     186 | 0x2DDB      |       11739 |
|     187 | 0x2DDC      |       11740 |
|     188 | 0x2DDD      |       11741 |
|     189 | 0x2DDE      |       11742 |
|     190 | 0x2DDF      |       11743 |
|     191 | 0x0011      |          17 |
|     192 | 0x2DE2      |       11746 |
|     193 | 0x2DE3      |       11747 |
|     194 | 0x2DE4      |       11748 |
|     195 | 0x2DE5      |       11749 |
|     196 | 0x0012      |          18 |
|     197 | 0x2DE7      |       11751 |
|     198 | 0x0063      |          99 |
|     199 | 0x2E11      |       11793 |
|     200 | 0x2DE8      |       11752 |
|     201 | 0x2DE9      |       11753 |
|     202 | 0x2DEA      |       11754 |
|     203 | 0x2DEB      |       11755 |
|     204 | 0x2DEC      |       11756 |
|     205 | 0x2E0A      |       11786 |
|     206 | 0x2E0B      |       11787 |
|     207 | 0x2E0C      |       11788 |
|     208 | 0x2E0D      |       11789 |
|     209 | 0x0018      |          24 |
|     210 | 0x001F      |          31 |
|     211 | 0x2DFF      |       11775 |
|     212 | 0x2E00      |       11776 |
|     213 | 0x2E01      |       11777 |
|     214 | 0x2E02      |       11778 |
|     215 | 0x2E03      |       11779 |
|     216 | 0x2E04      |       11780 |
|     217 | 0x2E18      |       11800 |
|     218 | 0x09BF      |        2495 |
|     219 | 0x09BE      |        2494 |
|     220 | 0x09BD      |        2493 |
|     221 | 0x09BC      |        2492 |
|     222 | 0x09BB      |        2491 |
|     223 | 0x2E13      |       11795 |
|     224 | 0x40000000  |  1073741824 |
|     225 | 0x2E14      |       11796 |
|     226 | 0x2E15      |       11797 |
|     227 | 0x2E16      |       11798 |
|     228 | 0x2E17      |       11799 |
|     229 | 0x0004      |           4 |
|     230 | 0x00D7      |         215 |

## String References

- **10724**: Pyopyoroon peers intently at <Player>!
- **11648**: Kilusha glares at you.
- **11737**: What will you ask about? [Alexandrite gems[./ (done).]/Wyrmseeker of Areuhat[./ (done).]/Assault memoires[./ (done).]/Holy relics[./ (done).]/No explanations required.]
- **11793**: You receive five bound volumes containing blank pages.
- **11795**: What are these "assault memoires"? [Quit./How to use the memoires./Recording $1./Recording $2./Recording $3./Recording $4./Recording $5.]
- **11796**: Trade the blank memoire to the Rune of Release which appears following successful completion of an Assault mission. This will result in the relevant data being recorded to the pages within.
- **11797**: Completion of a memoire requires a player to clear all Assault missions spanning ranks Private Second Class to First Lieutenant in all relevant areas excepting Nyzul Isle, for which no memoire exists.
- **11798**: Loss or disposal of a memoire will result in the loss of any recorded data without the possibility of recovery. Please exercise caution in this respect.
- **11799**: In the event of a lost memoire, the option to acquire a new one will appear on this menu NPC menu.
- **11800**: This quest cannot be accepted while in possession of an outdated memoire. You will be required to dispose of the old memoire before taking on the quest.

## Events

### Event 65535

#### Metadata

| Field        | Value   |
|--------------|---------|
| Entrypoint   | 0x0000  |
| Data Size    | 1 bytes |
| Instructions | 1       |

```
      00 01 02 03 04 05 06 07  08 09 0A 0B 0C 0D 0E 0F
      -- -- -- -- -- -- -- --  -- -- -- -- -- -- -- --
0000: 00                                                .               
```

#### Opcodes

```
  0: 0x0000 [0x00] END_REQSTACK()
```

### Event 16

#### Metadata

| Field        | Value     |
|--------------|-----------|
| Entrypoint   | 0x0001    |
| Data Size    | 691 bytes |
| Instructions | 89        |

```
      00 01 02 03 04 05 06 07  08 09 0A 0B 0C 0D 0E 0F
      -- -- -- -- -- -- -- --  -- -- -- -- -- -- -- --
0000:    42 1A 56 29 46 01 38  00 80 79 00 F0 FF FF 7F   B.V)F.8..y.....
0010: F0 FF FF 7F 92 01 28 50  03 01 92 01 29 50 03 01  ......(P....)P..
0020: 94 01 F0 FF FF 7F 94 01  28 50 03 01 94 01 29 50  ........(P....)P
0030: 03 01 29 10 F0 FF FF 7F  0E 80 F0 FF FF 7F 80 28  ..)............(
0040: 50 03 01 80 29 50 03 01  4A F0 FF FF 7F 29 50 03  P...)P..J....)P.
0050: 01 4A 29 50 03 01 F0 FF  FF 7F 1C 01 80 45 02 80  .J)P.........E..
0060: F0 FF FF 7F F0 FF FF 7F  74 72 30 30 03 80 1C 04  ........tr00....
0070: 80 1A 35 29 81 00 29 50  03 01 7C 00 29 50 03 01  ..5)..)P..|.)P..
0080: 5B 05 80 29 50 03 01 29  50 03 01 74 6C 62 30 2B  [..)P..)P..tlb0+
0090: 29 50 03 01 06 80 23 52  02 80 F0 FF FF 7F F0 FF  )P....#R........
00A0: FF 7F 74 72 30 30 45 02  80 F0 FF FF 7F F0 FF FF  ..tr00E.........
00B0: 7F 74 72 30 31 03 80 2B  29 50 03 01 07 80 23 5B  .tr01..+)P....#[
00C0: 05 80 29 50 03 01 29 50  03 01 74 6C 62 31 81 01  ..)P..)P..tlb1..
00D0: 29 50 03 01 7C 01 29 50  03 01 52 02 80 F0 FF FF  )P..|.)P..R.....
00E0: 7F F0 FF FF 7F 74 72 30  31 45 02 80 F0 FF FF 7F  .....tr01E......
00F0: F0 FF FF 7F 74 72 30 32  03 80 2B 29 50 03 01 08  ....tr02..+)P...
0100: 80 23 2B 29 50 03 01 09  80 23 52 02 80 F0 FF FF  .#+)P....#R.....
0110: 7F F0 FF FF 7F 74 72 30  32 45 02 80 F0 FF FF 7F  .....tr02E......
0120: F0 FF FF 7F 74 72 30 33  03 80 7B 29 50 03 01 81  ....tr03..{)P...
0130: 00 29 50 03 01 7C 00 29  50 03 01 5B 05 80 29 50  .)P..|.)P..[..)P
0140: 03 01 29 50 03 01 74 68  62 30 2B 29 50 03 01 0A  ..)P..thb0+)P...
0150: 80 23 52 02 80 F0 FF FF  7F F0 FF FF 7F 74 72 30  .#R..........tr0
0160: 33 45 02 80 F0 FF FF 7F  F0 FF FF 7F 74 72 30 34  3E..........tr04
0170: 03 80 2B 29 50 03 01 0B  80 23 52 02 80 F0 FF FF  ..+)P....#R.....
0180: 7F F0 FF FF 7F 74 72 30  34 45 02 80 F0 FF FF 7F  .....tr04E......
0190: F0 FF FF 7F 74 72 30 35  03 80 5B 05 80 29 50 03  ....tr05..[..)P.
01A0: 01 29 50 03 01 74 68 62  31 81 01 29 50 03 01 7C  .)P..thb1..)P..|
01B0: 01 29 50 03 01 2B 29 50  03 01 0C 80 23 53 29 50  .)P..+)P....#S)P
01C0: 03 01 29 50 03 01 74 68  62 31 79 00 29 50 03 01  ..)P..thb1y.)P..
01D0: F0 FF FF 7F 81 00 29 50  03 01 7C 00 29 50 03 01  ......)P..|.)P..
01E0: 5B 0D 80 29 50 03 01 29  50 03 01 74 6C 6B 30 2B  [..)P..)P..tlk0+
01F0: 29 50 03 01 0E 80 23 5B  0D 80 29 50 03 01 29 50  )P....#[..)P..)P
0200: 03 01 74 6C 6B 31 81 01  29 50 03 01 7C 01 29 50  ..tlk1..)P..|.)P
0210: 03 01 53 29 50 03 01 29  50 03 01 74 6C 6B 31 79  ..S)P..)P..tlk1y
0220: 00 28 50 03 01 29 50 03  01 1C 01 80 52 02 80 F0  .(P..)P.....R...
0230: FF FF 7F F0 FF FF 7F 74  72 30 35 45 02 80 F0 FF  .......tr05E....
0240: FF 7F F0 FF FF 7F 74 72  30 36 03 80 7B 29 50 03  ......tr06..{)P.
0250: 01 5B 0D 80 29 50 03 01  29 50 03 01 74 68 6B 30  .[..)P..)P..thk0
0260: 81 00 29 50 03 01 7C 00  29 50 03 01 03 02 10 0F  ..)P..|.)P......
0270: 80 03 03 10 10 80 2B 29  50 03 01 11 80 23 1A 56  ......+)P....#.V
0280: 29 1C 01 80 81 01 29 50  03 01 7C 01 29 50 03 01  ).....)P..|.)P..
0290: 52 02 80 F0 FF FF 7F F0  FF FF 7F 74 72 30 36 46  R..........tr06F
02A0: 00 45 12 80 F0 FF FF 7F  F0 FF FF 7F 66 64 69 32  .E..........fdi2
02B0: 03 80 21 00                                       ..!.            
```

#### Opcodes

```
  0: 0x0001 [0x42] SET_CLI_EVENT_CANCEL_DATA()
  1: 0x0002 [0x1A] CALL_SUBROUTINE(address=0x2956)
  2: 0x0005 [0x46] CAMERA_CONTROL: Disable user control
  3: 0x0007 [0x38] SET_CLIENT_EVENT_MODE(mode=19*)
  4: 0x000A [0x79] LocalPlayer looks at LocalPlayer (Basic look)
  5: 0x0014 [0x92] Yoyoroon (ID: 16994344/0x01035028)->Render.Flags3 ^= 0x01
  6: 0x001A [0x92] Tsetseroon (ID: 16994345/0x01035029)->Render.Flags3 ^= 0x01
  7: 0x0020 [0x94] LocalPlayer->Render.Flags3 ^= 0x01
  8: 0x0026 [0x94] Yoyoroon (ID: 16994344/0x01035028)->Render.Flags3 ^= 0x01
  9: 0x002C [0x94] Tsetseroon (ID: 16994345/0x01035029)->Render.Flags3 ^= 0x01
 10: 0x0032 [0x29] REQ_SET_WAIT(priority=0x10, entity_id=LocalPlayer, tag_num=0x0E)
 11: 0x0039 [0x80] LOAD_WAIT(entity=LocalPlayer)
 12: 0x003E [0x80] LOAD_WAIT(entity=Yoyoroon (ID: 16994344/0x01035028))
 13: 0x0043 [0x80] LOAD_WAIT(entity=Tsetseroon (ID: 16994345/0x01035029))
 14: 0x0048 [0x4A] LocalPlayer looks at Tsetseroon (ID: 16994345/0x01035029)
 15: 0x0051 [0x4A] Tsetseroon (ID: 16994345/0x01035029) looks at LocalPlayer
 16: 0x005A [0x1C] WAIT(30* ticks)
 17: 0x005D [0x45] LOAD_SCHEDULED_TASK: Load scheduler "tr00" with entities [LocalPlayer, LocalPlayer], work=[259*, 0*]
 18: 0x006E [0x1C] WAIT(15* ticks)
 19: 0x0071 [0x1A] CALL_SUBROUTINE(address=0x2935)
 20: 0x0074 [0x81] SET_ENTITY_BLINKING(blink_flag=0x00, entity=Tsetseroon (ID: 16994345/0x01035029))
 21: 0x007A [0x7C] Tsetseroon (ID: 16994345/0x01035029)->Render.Flags2 |= 0x00
 22: 0x0080 [0x5B] LOAD_EXT_SCHEDULER: Load scheduler "tlb0" with entities [Tsetseroon (ID: 16994345/0x01035029), Tsetseroon (ID: 16994345/0x01035029)], work=843*
 23: 0x008F [0x2B] Tsetseroon (ID: 16994345/0x01035029) [10517*]:
    → "This aroooma...coood it be? Tsetseroon smell Wawaroon?"
 24: 0x0096 [0x23] WAIT_FOR_DIALOG_INTERACTION
 25: 0x0097 [0x52] END_LOAD_SCHEDULER: End scheduler "tr00" with entities [LocalPlayer, LocalPlayer], work=259*
 26: 0x00A6 [0x45] LOAD_SCHEDULED_TASK: Load scheduler "tr01" with entities [LocalPlayer, LocalPlayer], work=[259*, 0*]
 27: 0x00B7 [0x2B] Tsetseroon (ID: 16994345/0x01035029) [10518*]:
    → "Looong looong ago, Tsetseroon loooved to explore roooins with Wawaroon, yes? We loook to steal treasooor! It secret, okay?"
 28: 0x00BE [0x23] WAIT_FOR_DIALOG_INTERACTION
 29: 0x00BF [0x5B] LOAD_EXT_SCHEDULER: Load scheduler "tlb1" with entities [Tsetseroon (ID: 16994345/0x01035029), Tsetseroon (ID: 16994345/0x01035029)], work=843*
 30: 0x00CE [0x81] SET_ENTITY_BLINKING(blink_flag=0x01, entity=Tsetseroon (ID: 16994345/0x01035029))
 31: 0x00D4 [0x7C] Tsetseroon (ID: 16994345/0x01035029)->Render.Flags2 |= 0x01
 32: 0x00DA [0x52] END_LOAD_SCHEDULER: End scheduler "tr01" with entities [LocalPlayer, LocalPlayer], work=259*
 33: 0x00E9 [0x45] LOAD_SCHEDULED_TASK: Load scheduler "tr02" with entities [LocalPlayer, LocalPlayer], work=[259*, 0*]
 34: 0x00FA [0x2B] Tsetseroon (ID: 16994345/0x01035029) [10519*]:
    → "But now, Tsetseroon is clean! Sooo clean! Loook! Clean, yes?"
 35: 0x0101 [0x23] WAIT_FOR_DIALOG_INTERACTION
 36: 0x0102 [0x2B] Tsetseroon (ID: 16994345/0x01035029) [10520*]:
    → "Wawaroon and Tsetseroon were team! Goood team, Wawaroon and Tsetseroon!"
 37: 0x0109 [0x23] WAIT_FOR_DIALOG_INTERACTION
 38: 0x010A [0x52] END_LOAD_SCHEDULER: End scheduler "tr02" with entities [LocalPlayer, LocalPlayer], work=259*
 39: 0x0119 [0x45] LOAD_SCHEDULED_TASK: Load scheduler "tr03" with entities [LocalPlayer, LocalPlayer], work=[259*, 0*]
 40: 0x012A [0x7B] Tsetseroon (ID: 16994345/0x01035029) stops talking
 41: 0x012F [0x81] SET_ENTITY_BLINKING(blink_flag=0x00, entity=Tsetseroon (ID: 16994345/0x01035029))
 42: 0x0135 [0x7C] Tsetseroon (ID: 16994345/0x01035029)->Render.Flags2 |= 0x00
 43: 0x013B [0x5B] LOAD_EXT_SCHEDULER: Load scheduler "thb0" with entities [Tsetseroon (ID: 16994345/0x01035029), Tsetseroon (ID: 16994345/0x01035029)], work=843*
 44: 0x014A [0x2B] Tsetseroon (ID: 16994345/0x01035029) [10521*]:
    → "But Wawaroon loook for treasooor all by self. Tsetseroon looonely, yes?"
 45: 0x0151 [0x23] WAIT_FOR_DIALOG_INTERACTION
 46: 0x0152 [0x52] END_LOAD_SCHEDULER: End scheduler "tr03" with entities [LocalPlayer, LocalPlayer], work=259*
 47: 0x0161 [0x45] LOAD_SCHEDULED_TASK: Load scheduler "tr04" with entities [LocalPlayer, LocalPlayer], work=[259*, 0*]
 48: 0x0172 [0x2B] Tsetseroon (ID: 16994345/0x01035029) [10522*]:
    → "Now, roooins filled with mercenaries, yes? Dangerous, very dangerous? Scary, tooo."
 49: 0x0179 [0x23] WAIT_FOR_DIALOG_INTERACTION
 50: 0x017A [0x52] END_LOAD_SCHEDULER: End scheduler "tr04" with entities [LocalPlayer, LocalPlayer], work=259*
 51: 0x0189 [0x45] LOAD_SCHEDULED_TASK: Load scheduler "tr05" with entities [LocalPlayer, LocalPlayer], work=[259*, 0*]
 52: 0x019A [0x5B] LOAD_EXT_SCHEDULER: Load scheduler "thb1" with entities [Tsetseroon (ID: 16994345/0x01035029), Tsetseroon (ID: 16994345/0x01035029)], work=843*
 53: 0x01A9 [0x81] SET_ENTITY_BLINKING(blink_flag=0x01, entity=Tsetseroon (ID: 16994345/0x01035029))
 54: 0x01AF [0x7C] Tsetseroon (ID: 16994345/0x01035029)->Render.Flags2 |= 0x01
 55: 0x01B5 [0x2B] Tsetseroon (ID: 16994345/0x01035029) [10523*]:
    → "Sooo Tsetseroon want stop Wawaroon. How can dooo?"
 56: 0x01BC [0x23] WAIT_FOR_DIALOG_INTERACTION
 57: 0x01BD [0x53] WAIT_SCHEDULER_TASK: Wait for scheduler "thb1" with entities [Tsetseroon (ID: 16994345/0x01035029), Tsetseroon (ID: 16994345/0x01035029)]
 58: 0x01CA [0x79] Tsetseroon (ID: 16994345/0x01035029) looks at LocalPlayer (Basic look)
 59: 0x01D4 [0x81] SET_ENTITY_BLINKING(blink_flag=0x00, entity=Tsetseroon (ID: 16994345/0x01035029))
 60: 0x01DA [0x7C] Tsetseroon (ID: 16994345/0x01035029)->Render.Flags2 |= 0x00
 61: 0x01E0 [0x5B] LOAD_EXT_SCHEDULER: Load scheduler "tlk0" with entities [Tsetseroon (ID: 16994345/0x01035029), Tsetseroon (ID: 16994345/0x01035029)], work=842*
 62: 0x01EF [0x2B] Tsetseroon (ID: 16994345/0x01035029) [10524*]:
    → "Tsetseroon block his "Treasooor Huntooor" with special stooo!"
 63: 0x01F6 [0x23] WAIT_FOR_DIALOG_INTERACTION
 64: 0x01F7 [0x5B] LOAD_EXT_SCHEDULER: Load scheduler "tlk1" with entities [Tsetseroon (ID: 16994345/0x01035029), Tsetseroon (ID: 16994345/0x01035029)], work=842*
 65: 0x0206 [0x81] SET_ENTITY_BLINKING(blink_flag=0x01, entity=Tsetseroon (ID: 16994345/0x01035029))
 66: 0x020C [0x7C] Tsetseroon (ID: 16994345/0x01035029)->Render.Flags2 |= 0x01
 67: 0x0212 [0x53] WAIT_SCHEDULER_TASK: Wait for scheduler "tlk1" with entities [Tsetseroon (ID: 16994345/0x01035029), Tsetseroon (ID: 16994345/0x01035029)]
 68: 0x021F [0x79] Yoyoroon (ID: 16994344/0x01035028) looks at Tsetseroon (ID: 16994345/0x01035029) (Basic look)
 69: 0x0229 [0x1C] WAIT(30* ticks)
 70: 0x022C [0x52] END_LOAD_SCHEDULER: End scheduler "tr05" with entities [LocalPlayer, LocalPlayer], work=259*
 71: 0x023B [0x45] LOAD_SCHEDULED_TASK: Load scheduler "tr06" with entities [LocalPlayer, LocalPlayer], work=[259*, 0*]
 72: 0x024C [0x7B] Tsetseroon (ID: 16994345/0x01035029) stops talking
 73: 0x0251 [0x5B] LOAD_EXT_SCHEDULER: Load scheduler "thk0" with entities [Tsetseroon (ID: 16994345/0x01035029), Tsetseroon (ID: 16994345/0x01035029)], work=842*
 74: 0x0260 [0x81] SET_ENTITY_BLINKING(blink_flag=0x00, entity=Tsetseroon (ID: 16994345/0x01035029))
 75: 0x0266 [0x7C] Tsetseroon (ID: 16994345/0x01035029)->Render.Flags2 |= 0x00
 76: 0x026C [0x03] Work_Zone[2] = 4443*
 77: 0x0271 [0x03] Work_Zone[3] = 641*
 78: 0x0276 [0x2B] Tsetseroon (ID: 16994345/0x01035029) [10525*]:
    → "But Tsetseroon need $0 and $1 tooo make it, yes?"
 79: 0x027D [0x23] WAIT_FOR_DIALOG_INTERACTION
 80: 0x027E [0x1A] CALL_SUBROUTINE(address=0x2956)
 81: 0x0281 [0x1C] WAIT(30* ticks)
 82: 0x0284 [0x81] SET_ENTITY_BLINKING(blink_flag=0x01, entity=Tsetseroon (ID: 16994345/0x01035029))
 83: 0x028A [0x7C] Tsetseroon (ID: 16994345/0x01035029)->Render.Flags2 |= 0x01
 84: 0x0290 [0x52] END_LOAD_SCHEDULER: End scheduler "tr06" with entities [LocalPlayer, LocalPlayer], work=259*
 85: 0x029F [0x46] CAMERA_CONTROL: Restore default settings
 86: 0x02A1 [0x45] LOAD_SCHEDULED_TASK: Load scheduler "fdi2" with entities [LocalPlayer, LocalPlayer], work=[200*, 0*]
 87: 0x02B2 [0x21] END_EVENT
 88: 0x02B3 [0x00] END_REQSTACK()
```

### Event 18

#### Metadata

| Field        | Value     |
|--------------|-----------|
| Entrypoint   | 0x02B4    |
| Data Size    | 492 bytes |
| Instructions | 68        |

```
      00 01 02 03 04 05 06 07  08 09 0A 0B 0C 0D 0E 0F
      -- -- -- -- -- -- -- --  -- -- -- -- -- -- -- --
02B0:             42 1A 56 29  46 01 38 00 80 79 00 F0      B.V)F.8..y..
02C0: FF FF 7F F0 FF FF 7F 92  01 28 50 03 01 92 01 29  .........(P....)
02D0: 50 03 01 94 01 F0 FF FF  7F 94 01 28 50 03 01 94  P..........(P...
02E0: 01 29 50 03 01 29 10 F0  FF FF 7F 0E 80 F0 FF FF  .)P..)..........
02F0: 7F 80 28 50 03 01 80 29  50 03 01 4A F0 FF FF 7F  ..(P...)P..J....
0300: 29 50 03 01 4A 29 50 03  01 F0 FF FF 7F 1C 01 80  )P..J)P.........
0310: 45 02 80 F0 FF FF 7F F0  FF FF 7F 74 72 30 30 03  E..........tr00.
0320: 80 1C 04 80 1A 35 29 81  00 29 50 03 01 7C 00 29  .....5)..)P..|.)
0330: 50 03 01 5B 05 80 29 50  03 01 29 50 03 01 74 6C  P..[..)P..)P..tl
0340: 62 30 03 02 10 0F 80 03  03 10 10 80 2B 29 50 03  b0..........+)P.
0350: 01 13 80 23 5B 05 80 29  50 03 01 29 50 03 01 74  ...#[..)P..)P..t
0360: 6C 62 31 81 01 29 50 03  01 7C 01 29 50 03 01 2B  lb1..)P..|.)P..+
0370: 29 50 03 01 14 80 23 1A  56 29 1C 15 80 45 02 80  )P....#.V)...E..
0380: 29 50 03 01 29 50 03 01  64 6B 64 6B 03 80 1C 16  )P..)P..dkdk....
0390: 80 52 02 80 F0 FF FF 7F  F0 FF FF 7F 74 72 30 30  .R..........tr00
03A0: 45 02 80 F0 FF FF 7F F0  FF FF 7F 74 72 31 30 03  E..........tr10.
03B0: 80 1A 35 29 2B 29 50 03  01 17 80 23 52 02 80 F0  ..5)+)P....#R...
03C0: FF FF 7F F0 FF FF 7F 74  72 31 30 45 02 80 F0 FF  .......tr10E....
03D0: FF 7F F0 FF FF 7F 74 72  31 31 03 80 81 00 29 50  ......tr11....)P
03E0: 03 01 7C 00 29 50 03 01  5B 0D 80 29 50 03 01 29  ..|.)P..[..)P..)
03F0: 50 03 01 74 6C 6B 30 2B  29 50 03 01 18 80 23 2B  P..tlk0+)P....#+
0400: 29 50 03 01 19 80 23 5B  0D 80 29 50 03 01 29 50  )P....#[..)P..)P
0410: 03 01 74 6C 6B 31 53 29  50 03 01 29 50 03 01 74  ..tlk1S)P..)P..t
0420: 6C 6B 31 52 02 80 F0 FF  FF 7F F0 FF FF 7F 74 72  lk1R..........tr
0430: 31 31 45 02 80 F0 FF FF  7F F0 FF FF 7F 74 72 31  11E..........tr1
0440: 32 03 80 5B 0D 80 29 50  03 01 29 50 03 01 70 61  2..[..)P..)P..pa
0450: 73 30 1C 1A 80 2B 29 50  03 01 1B 80 23 53 29 50  s0...+)P....#S)P
0460: 03 01 29 50 03 01 70 61  73 30 1A 56 29 1C 01 80  ..)P..pas0.V)...
0470: 81 01 29 50 03 01 7C 01  29 50 03 01 52 02 80 F0  ..)P..|.)P..R...
0480: FF FF 7F F0 FF FF 7F 74  72 31 32 46 00 45 12 80  .......tr12F.E..
0490: F0 FF FF 7F F0 FF FF 7F  66 64 69 32 03 80 21 00  ........fdi2..!.
```

#### Opcodes

```
  0: 0x02B4 [0x42] SET_CLI_EVENT_CANCEL_DATA()
  1: 0x02B5 [0x1A] CALL_SUBROUTINE(address=0x2956)
  2: 0x02B8 [0x46] CAMERA_CONTROL: Disable user control
  3: 0x02BA [0x38] SET_CLIENT_EVENT_MODE(mode=19*)
  4: 0x02BD [0x79] LocalPlayer looks at LocalPlayer (Basic look)
  5: 0x02C7 [0x92] Yoyoroon (ID: 16994344/0x01035028)->Render.Flags3 ^= 0x01
  6: 0x02CD [0x92] Tsetseroon (ID: 16994345/0x01035029)->Render.Flags3 ^= 0x01
  7: 0x02D3 [0x94] LocalPlayer->Render.Flags3 ^= 0x01
  8: 0x02D9 [0x94] Yoyoroon (ID: 16994344/0x01035028)->Render.Flags3 ^= 0x01
  9: 0x02DF [0x94] Tsetseroon (ID: 16994345/0x01035029)->Render.Flags3 ^= 0x01
 10: 0x02E5 [0x29] REQ_SET_WAIT(priority=0x10, entity_id=LocalPlayer, tag_num=0x0E)
 11: 0x02EC [0x80] LOAD_WAIT(entity=LocalPlayer)
 12: 0x02F1 [0x80] LOAD_WAIT(entity=Yoyoroon (ID: 16994344/0x01035028))
 13: 0x02F6 [0x80] LOAD_WAIT(entity=Tsetseroon (ID: 16994345/0x01035029))
 14: 0x02FB [0x4A] LocalPlayer looks at Tsetseroon (ID: 16994345/0x01035029)
 15: 0x0304 [0x4A] Tsetseroon (ID: 16994345/0x01035029) looks at LocalPlayer
 16: 0x030D [0x1C] WAIT(30* ticks)
 17: 0x0310 [0x45] LOAD_SCHEDULED_TASK: Load scheduler "tr00" with entities [LocalPlayer, LocalPlayer], work=[259*, 0*]
 18: 0x0321 [0x1C] WAIT(15* ticks)
 19: 0x0324 [0x1A] CALL_SUBROUTINE(address=0x2935)
 20: 0x0327 [0x81] SET_ENTITY_BLINKING(blink_flag=0x00, entity=Tsetseroon (ID: 16994345/0x01035029))
 21: 0x032D [0x7C] Tsetseroon (ID: 16994345/0x01035029)->Render.Flags2 |= 0x00
 22: 0x0333 [0x5B] LOAD_EXT_SCHEDULER: Load scheduler "tlb0" with entities [Tsetseroon (ID: 16994345/0x01035029), Tsetseroon (ID: 16994345/0x01035029)], work=843*
 23: 0x0342 [0x03] Work_Zone[2] = 4443*
 24: 0x0347 [0x03] Work_Zone[3] = 641*
 25: 0x034C [0x2B] Tsetseroon (ID: 16994345/0x01035029) [10526*]:
    → "Hooo hooo! Yooo brought $0 and $1? Now Tsetseroon can make stooo!"
 26: 0x0353 [0x23] WAIT_FOR_DIALOG_INTERACTION
 27: 0x0354 [0x5B] LOAD_EXT_SCHEDULER: Load scheduler "tlb1" with entities [Tsetseroon (ID: 16994345/0x01035029), Tsetseroon (ID: 16994345/0x01035029)], work=843*
 28: 0x0363 [0x81] SET_ENTITY_BLINKING(blink_flag=0x01, entity=Tsetseroon (ID: 16994345/0x01035029))
 29: 0x0369 [0x7C] Tsetseroon (ID: 16994345/0x01035029)->Render.Flags2 |= 0x01
 30: 0x036F [0x2B] Tsetseroon (ID: 16994345/0x01035029) [10527*]:
    → "Hooold on, okay?"
 31: 0x0376 [0x23] WAIT_FOR_DIALOG_INTERACTION
 32: 0x0377 [0x1A] CALL_SUBROUTINE(address=0x2956)
 33: 0x037A [0x1C] WAIT(60* ticks)
 34: 0x037D [0x45] LOAD_SCHEDULED_TASK: Load scheduler "dkdk" with entities [Tsetseroon (ID: 16994345/0x01035029), Tsetseroon (ID: 16994345/0x01035029)], work=[259*, 0*]
 35: 0x038E [0x1C] WAIT(180* ticks)
 36: 0x0391 [0x52] END_LOAD_SCHEDULER: End scheduler "tr00" with entities [LocalPlayer, LocalPlayer], work=259*
 37: 0x03A0 [0x45] LOAD_SCHEDULED_TASK: Load scheduler "tr10" with entities [LocalPlayer, LocalPlayer], work=[259*, 0*]
 38: 0x03B1 [0x1A] CALL_SUBROUTINE(address=0x2935)
 39: 0x03B4 [0x2B] Tsetseroon (ID: 16994345/0x01035029) [10528*]:
    → "It's done! Am throoo! Tsetseroon's special stooo! One bite, and Wawaroon can't use Treasooor Huntooor..."
 40: 0x03BB [0x23] WAIT_FOR_DIALOG_INTERACTION
 41: 0x03BC [0x52] END_LOAD_SCHEDULER: End scheduler "tr10" with entities [LocalPlayer, LocalPlayer], work=259*
 42: 0x03CB [0x45] LOAD_SCHEDULED_TASK: Load scheduler "tr11" with entities [LocalPlayer, LocalPlayer], work=[259*, 0*]
 43: 0x03DC [0x81] SET_ENTITY_BLINKING(blink_flag=0x00, entity=Tsetseroon (ID: 16994345/0x01035029))
 44: 0x03E2 [0x7C] Tsetseroon (ID: 16994345/0x01035029)->Render.Flags2 |= 0x00
 45: 0x03E8 [0x5B] LOAD_EXT_SCHEDULER: Load scheduler "tlk0" with entities [Tsetseroon (ID: 16994345/0x01035029), Tsetseroon (ID: 16994345/0x01035029)], work=842*
 46: 0x03F7 [0x2B] Tsetseroon (ID: 16994345/0x01035029) [10529*]:
    → "Wawaroon alsooo become clean? Nice? Byoootiful?"
 47: 0x03FE [0x23] WAIT_FOR_DIALOG_INTERACTION
 48: 0x03FF [0x2B] Tsetseroon (ID: 16994345/0x01035029) [10530*]:
    → "Yooo bring Tsetseroon's stooo to place that smell like Wawaroon?"
 49: 0x0406 [0x23] WAIT_FOR_DIALOG_INTERACTION
 50: 0x0407 [0x5B] LOAD_EXT_SCHEDULER: Load scheduler "tlk1" with entities [Tsetseroon (ID: 16994345/0x01035029), Tsetseroon (ID: 16994345/0x01035029)], work=842*
 51: 0x0416 [0x53] WAIT_SCHEDULER_TASK: Wait for scheduler "tlk1" with entities [Tsetseroon (ID: 16994345/0x01035029), Tsetseroon (ID: 16994345/0x01035029)]
 52: 0x0423 [0x52] END_LOAD_SCHEDULER: End scheduler "tr11" with entities [LocalPlayer, LocalPlayer], work=259*
 53: 0x0432 [0x45] LOAD_SCHEDULED_TASK: Load scheduler "tr12" with entities [LocalPlayer, LocalPlayer], work=[259*, 0*]
 54: 0x0443 [0x5B] LOAD_EXT_SCHEDULER: Load scheduler "pas0" with entities [Tsetseroon (ID: 16994345/0x01035029), Tsetseroon (ID: 16994345/0x01035029)], work=842*
 55: 0x0452 [0x1C] WAIT(45* ticks)
 56: 0x0455 [0x2B] Tsetseroon (ID: 16994345/0x01035029) [10531*]:
    → "If yooo wooodn't mind? Thank yooo! Thank yooo!"
 57: 0x045C [0x23] WAIT_FOR_DIALOG_INTERACTION
 58: 0x045D [0x53] WAIT_SCHEDULER_TASK: Wait for scheduler "pas0" with entities [Tsetseroon (ID: 16994345/0x01035029), Tsetseroon (ID: 16994345/0x01035029)]
 59: 0x046A [0x1A] CALL_SUBROUTINE(address=0x2956)
 60: 0x046D [0x1C] WAIT(30* ticks)
 61: 0x0470 [0x81] SET_ENTITY_BLINKING(blink_flag=0x01, entity=Tsetseroon (ID: 16994345/0x01035029))
 62: 0x0476 [0x7C] Tsetseroon (ID: 16994345/0x01035029)->Render.Flags2 |= 0x01
 63: 0x047C [0x52] END_LOAD_SCHEDULER: End scheduler "tr12" with entities [LocalPlayer, LocalPlayer], work=259*
 64: 0x048B [0x46] CAMERA_CONTROL: Restore default settings
 65: 0x048D [0x45] LOAD_SCHEDULED_TASK: Load scheduler "fdi2" with entities [LocalPlayer, LocalPlayer], work=[200*, 0*]
 66: 0x049E [0x21] END_EVENT
 67: 0x049F [0x00] END_REQSTACK()
```

### Event 20

#### Metadata

| Field        | Value     |
|--------------|-----------|
| Entrypoint   | 0x04A0    |
| Data Size    | 529 bytes |
| Instructions | 69        |

```
      00 01 02 03 04 05 06 07  08 09 0A 0B 0C 0D 0E 0F
      -- -- -- -- -- -- -- --  -- -- -- -- -- -- -- --
04A0: 42 1A 56 29 46 01 38 00  80 79 00 F0 FF FF 7F F0  B.V)F.8..y......
04B0: FF FF 7F 92 01 28 50 03  01 92 01 29 50 03 01 94  .....(P....)P...
04C0: 01 F0 FF FF 7F 94 01 28  50 03 01 94 01 29 50 03  .......(P....)P.
04D0: 01 29 10 F0 FF FF 7F 0E  80 F0 FF FF 7F 80 28 50  .)............(P
04E0: 03 01 80 29 50 03 01 4A  F0 FF FF 7F 29 50 03 01  ...)P..J....)P..
04F0: 4A 29 50 03 01 F0 FF FF  7F 5C 00 1C 80 5C 01 1C  J)P......\...\..
0500: 80 9A 1C 01 80 45 02 80  F0 FF FF 7F F0 FF FF 7F  .....E..........
0510: 74 72 31 35 03 80 1C 04  80 1A 35 29 27 10 29 50  tr15......5)'.)P
0520: 03 01 08 2B 29 50 03 01  1D 80 23 5B 05 80 29 50  ...+)P....#[..)P
0530: 03 01 29 50 03 01 74 6C  62 31 52 02 80 F0 FF FF  ..)P..tlb1R.....
0540: 7F F0 FF FF 7F 74 72 31  35 45 02 80 F0 FF FF 7F  .....tr15E......
0550: F0 FF FF 7F 74 72 31 36  03 80 79 00 28 50 03 01  ....tr16..y.(P..
0560: 29 50 03 01 03 01 10 1E  80 43 00 43 01 02 02 10  )P.......C.C....
0570: 1E 80 00 17 06 2B 29 50  03 01 1F 80 23 53 29 50  .....+)P....#S)P
0580: 03 01 29 50 03 01 74 6C  62 31 52 02 80 F0 FF FF  ..)P..tlb1R.....
0590: 7F F0 FF FF 7F 74 72 31  36 45 02 80 F0 FF FF 7F  .....tr16E......
05A0: F0 FF FF 7F 74 72 31 37  03 80 5B 0D 80 29 50 03  ....tr17..[..)P.
05B0: 01 29 50 03 01 74 68 6B  30 2B 29 50 03 01 20 80  .)P..thk0+)P.. .
05C0: 23 5B 0D 80 29 50 03 01  29 50 03 01 74 68 6B 31  #[..)P..)P..thk1
05D0: 53 29 50 03 01 29 50 03  01 74 68 6B 31 5B 0D 80  S)P..)P..thk1[..
05E0: 29 50 03 01 29 50 03 01  70 61 73 30 2B 29 50 03  )P..)P..pas0+)P.
05F0: 01 21 80 23 45 02 80 F0  FF FF 7F F0 FF FF 7F 61  .!.#E..........a
0600: 74 67 30 03 80 52 02 80  F0 FF FF 7F F0 FF FF 7F  tg0..R..........
0610: 74 72 31 37 01 4A 06 53  29 50 03 01 29 50 03 01  tr17.J.S)P..)P..
0620: 74 6C 62 31 5B 0D 80 29  50 03 01 29 50 03 01 70  tlb1[..)P..)P..p
0630: 61 73 30 2B 29 50 03 01  1F 80 23 52 02 80 F0 FF  as0+)P....#R....
0640: FF 7F F0 FF FF 7F 74 72  31 36 5D 03 80 22 80 45  ......tr16]..".E
0650: 02 80 F0 FF FF 7F F0 FF  FF 7F 74 72 31 32 03 80  ..........tr12..
0660: 53 29 50 03 01 29 50 03  01 70 61 73 30 1A 56 29  S)P..)P..pas0.V)
0670: 1C 01 80 52 02 80 F0 FF  FF 7F F0 FF FF 7F 74 72  ...R..........tr
0680: 31 32 5C 00 23 80 5C 01  23 80 9A 46 00 45 24 80  12\.#.\.#..F.E$.
0690: F8 FF FF 7F F8 FF FF 7F  71 73 74 63 03 80 45 12  ........qstc..E.
06A0: 80 F0 FF FF 7F F0 FF FF  7F 66 64 69 32 03 80 21  .........fdi2..!
06B0: 00                                                .               
```

#### Opcodes

```
  0: 0x04A0 [0x42] SET_CLI_EVENT_CANCEL_DATA()
  1: 0x04A1 [0x1A] CALL_SUBROUTINE(address=0x2956)
  2: 0x04A4 [0x46] CAMERA_CONTROL: Disable user control
  3: 0x04A6 [0x38] SET_CLIENT_EVENT_MODE(mode=19*)
  4: 0x04A9 [0x79] LocalPlayer looks at LocalPlayer (Basic look)
  5: 0x04B3 [0x92] Yoyoroon (ID: 16994344/0x01035028)->Render.Flags3 ^= 0x01
  6: 0x04B9 [0x92] Tsetseroon (ID: 16994345/0x01035029)->Render.Flags3 ^= 0x01
  7: 0x04BF [0x94] LocalPlayer->Render.Flags3 ^= 0x01
  8: 0x04C5 [0x94] Yoyoroon (ID: 16994344/0x01035028)->Render.Flags3 ^= 0x01
  9: 0x04CB [0x94] Tsetseroon (ID: 16994345/0x01035029)->Render.Flags3 ^= 0x01
 10: 0x04D1 [0x29] REQ_SET_WAIT(priority=0x10, entity_id=LocalPlayer, tag_num=0x0E)
 11: 0x04D8 [0x80] LOAD_WAIT(entity=LocalPlayer)
 12: 0x04DD [0x80] LOAD_WAIT(entity=Yoyoroon (ID: 16994344/0x01035028))
 13: 0x04E2 [0x80] LOAD_WAIT(entity=Tsetseroon (ID: 16994345/0x01035029))
 14: 0x04E7 [0x4A] LocalPlayer looks at Tsetseroon (ID: 16994345/0x01035029)
 15: 0x04F0 [0x4A] Tsetseroon (ID: 16994345/0x01035029) looks at LocalPlayer
 16: 0x04F9 [0x5C] MUSIC_CONTROL: Set Idle (Day) music to song 163*
 17: 0x04FD [0x5C] MUSIC_CONTROL: Set Idle (Night) music to song 163*
 18: 0x0501 [0x9A] WAIT_MUSIC_SERVER()
 19: 0x0502 [0x1C] WAIT(30* ticks)
 20: 0x0505 [0x45] LOAD_SCHEDULED_TASK: Load scheduler "tr15" with entities [LocalPlayer, LocalPlayer], work=[259*, 0*]
 21: 0x0516 [0x1C] WAIT(15* ticks)
 22: 0x0519 [0x1A] CALL_SUBROUTINE(address=0x2935)
 23: 0x051C [0x27] REQ_SET(priority=0x10, entity_id=Tsetseroon (ID: 16994345/0x01035029), tag_num=0x08)
 24: 0x0523 [0x2B] Tsetseroon (ID: 16994345/0x01035029) [10534*]:
    → "Ooo...ooo...? Yooo did it! Goood! Soooper! Tsetseroon sooo happy! Maybe Tsetseroon cry?"
 25: 0x052A [0x23] WAIT_FOR_DIALOG_INTERACTION
 26: 0x052B [0x5B] LOAD_EXT_SCHEDULER: Load scheduler "tlb1" with entities [Tsetseroon (ID: 16994345/0x01035029), Tsetseroon (ID: 16994345/0x01035029)], work=843*
 27: 0x053A [0x52] END_LOAD_SCHEDULER: End scheduler "tr15" with entities [LocalPlayer, LocalPlayer], work=259*
 28: 0x0549 [0x45] LOAD_SCHEDULED_TASK: Load scheduler "tr16" with entities [LocalPlayer, LocalPlayer], work=[259*, 0*]
 29: 0x055A [0x79] Yoyoroon (ID: 16994344/0x01035028) looks at Tsetseroon (ID: 16994345/0x01035029) (Basic look)
 30: 0x0564 [0x03] Work_Zone[1] = 1*
 31: 0x0569 [0x43] SEND_EVENT_UPDATE: Send pending tag to server (packet 0x005B)
 32: 0x056B [0x43] SEND_EVENT_UPDATE: Check pending flag (skip if not pending)
 33: 0x056D [0x02] IF !(Work_Zone[2] == 1*) GOTO 0x0617
 34: 0x0575 [0x2B] Tsetseroon (ID: 16994345/0x01035029) [10535*]:
    → "Thankooo! Here gift for yooo! Tsetseroon nooo need. Tsetseroon clean nooow. Now yooo nooo get lost, yes?"
 35: 0x057C [0x23] WAIT_FOR_DIALOG_INTERACTION
 36: 0x057D [0x53] WAIT_SCHEDULER_TASK: Wait for scheduler "tlb1" with entities [Tsetseroon (ID: 16994345/0x01035029), Tsetseroon (ID: 16994345/0x01035029)]
 37: 0x058A [0x52] END_LOAD_SCHEDULER: End scheduler "tr16" with entities [LocalPlayer, LocalPlayer], work=259*
 38: 0x0599 [0x45] LOAD_SCHEDULED_TASK: Load scheduler "tr17" with entities [LocalPlayer, LocalPlayer], work=[259*, 0*]
 39: 0x05AA [0x5B] LOAD_EXT_SCHEDULER: Load scheduler "thk0" with entities [Tsetseroon (ID: 16994345/0x01035029), Tsetseroon (ID: 16994345/0x01035029)], work=842*
 40: 0x05B9 [0x2B] Tsetseroon (ID: 16994345/0x01035029) [10536*]:
    → "Hoo hoo... Why yooo have that already? Hm? Hm? Hm?"
 41: 0x05C0 [0x23] WAIT_FOR_DIALOG_INTERACTION
 42: 0x05C1 [0x5B] LOAD_EXT_SCHEDULER: Load scheduler "thk1" with entities [Tsetseroon (ID: 16994345/0x01035029), Tsetseroon (ID: 16994345/0x01035029)], work=842*
 43: 0x05D0 [0x53] WAIT_SCHEDULER_TASK: Wait for scheduler "thk1" with entities [Tsetseroon (ID: 16994345/0x01035029), Tsetseroon (ID: 16994345/0x01035029)]
 44: 0x05DD [0x5B] LOAD_EXT_SCHEDULER: Load scheduler "pas0" with entities [Tsetseroon (ID: 16994345/0x01035029), Tsetseroon (ID: 16994345/0x01035029)], work=842*
 45: 0x05EC [0x2B] Tsetseroon (ID: 16994345/0x01035029) [10537*]:
    → "Hmmm... Well, yooo can have this. Clink clink, yooo like? Everyone like clink clink? Nice sound, yes? Tsetseroon also like!"
 46: 0x05F3 [0x23] WAIT_FOR_DIALOG_INTERACTION
 47: 0x05F4 [0x45] LOAD_SCHEDULED_TASK: Load scheduler "atg0" with entities [LocalPlayer, LocalPlayer], work=[259*, 0*]
 48: 0x0605 [0x52] END_LOAD_SCHEDULER: End scheduler "tr17" with entities [LocalPlayer, LocalPlayer], work=259*
 49: 0x0614 [0x01] GOTO 0x064A
 50: 0x0617 [0x53] WAIT_SCHEDULER_TASK: Wait for scheduler "tlb1" with entities [Tsetseroon (ID: 16994345/0x01035029), Tsetseroon (ID: 16994345/0x01035029)]
 51: 0x0624 [0x5B] LOAD_EXT_SCHEDULER: Load scheduler "pas0" with entities [Tsetseroon (ID: 16994345/0x01035029), Tsetseroon (ID: 16994345/0x01035029)], work=842*
 52: 0x0633 [0x2B] Tsetseroon (ID: 16994345/0x01035029) [10535*]:
    → "Thankooo! Here gift for yooo! Tsetseroon nooo need. Tsetseroon clean nooow. Now yooo nooo get lost, yes?"
 53: 0x063A [0x23] WAIT_FOR_DIALOG_INTERACTION
 54: 0x063B [0x52] END_LOAD_SCHEDULER: End scheduler "tr16" with entities [LocalPlayer, LocalPlayer], work=259*

SUBROUTINE_064A:
 55: 0x064A [0x5D] SET_MUSIC_VOLUME(volume=0*, fade_time=120*)
 56: 0x064F [0x45] LOAD_SCHEDULED_TASK: Load scheduler "tr12" with entities [LocalPlayer, LocalPlayer], work=[259*, 0*]
 57: 0x0660 [0x53] WAIT_SCHEDULER_TASK: Wait for scheduler "pas0" with entities [Tsetseroon (ID: 16994345/0x01035029), Tsetseroon (ID: 16994345/0x01035029)]
 58: 0x066D [0x1A] CALL_SUBROUTINE(address=0x2956)
 59: 0x0670 [0x1C] WAIT(30* ticks)
 60: 0x0673 [0x52] END_LOAD_SCHEDULER: End scheduler "tr12" with entities [LocalPlayer, LocalPlayer], work=259*
 61: 0x0682 [0x5C] MUSIC_CONTROL: Set Idle (Day) music to song 175*
 62: 0x0686 [0x5C] MUSIC_CONTROL: Set Idle (Night) music to song 175*
 63: 0x068A [0x9A] WAIT_MUSIC_SERVER()
 64: 0x068B [0x46] CAMERA_CONTROL: Restore default settings
 65: 0x068D [0x45] LOAD_SCHEDULED_TASK: Load scheduler "qstc" with entities [EventEntity, EventEntity], work=[201*, 0*]
 66: 0x069E [0x45] LOAD_SCHEDULED_TASK: Load scheduler "fdi2" with entities [LocalPlayer, LocalPlayer], work=[200*, 0*]
 67: 0x06AF [0x21] END_EVENT
 68: 0x06B0 [0x00] END_REQSTACK()
```

### Event 277

#### Metadata

| Field        | Value      |
|--------------|------------|
| Entrypoint   | 0x06B1     |
| Data Size    | 1133 bytes |
| Instructions | 154        |

```
      00 01 02 03 04 05 06 07  08 09 0A 0B 0C 0D 0E 0F
      -- -- -- -- -- -- -- --  -- -- -- -- -- -- -- --
06B0:    42 1A 56 29 46 01 38  00 80 79 00 F0 FF FF 7F   B.V)F.8..y.....
06C0: F0 FF FF 7F 92 01 44 50  03 01 92 01 53 50 03 01  ......DP....SP..
06D0: 94 01 F0 FF FF 7F 94 01  44 50 03 01 94 01 53 50  ........DP....SP
06E0: 03 01 29 10 F0 FF FF 7F  0D 80 F0 FF FF 7F 80 44  ..)............D
06F0: 50 03 01 80 53 50 03 01  4A 44 50 03 01 F0 FF FF  P...SP..JDP.....
0700: 7F 6F 70 4A F0 FF FF 7F  44 50 03 01 6F 70 1C 01  .opJ....DP..op..
0710: 80 45 25 80 F8 FF FF 7F  F8 FF FF 7F 73 30 38 30  .E%.........s080
0720: 03 80 1C 04 80 1A 35 29  1C 01 80 5B 05 80 44 50  ......5)...[..DP
0730: 03 01 44 50 03 01 74 6C  62 30 1C 01 80 2B 44 50  ..DP..tlb0...+DP
0740: 03 01 26 80 23 1C 01 80  5B 05 80 44 50 03 01 44  ..&.#...[..DP..D
0750: 50 03 01 74 6C 62 31 1C  22 80 45 12 80 F8 FF FF  P..tlb1.".E.....
0760: 7F F8 FF FF 7F 6F 76 6C  31 03 80 52 25 80 F8 FF  .....ovl1..R%...
0770: FF 7F F8 FF FF 7F 73 30  38 30 45 25 80 F8 FF FF  ......s080E%....
0780: 7F F8 FF FF 7F 73 30 38  31 03 80 1C 01 80 5B 05  .....s081.....[.
0790: 80 44 50 03 01 44 50 03  01 61 6E 67 30 1C 22 80  .DP..DP..ang0.".
07A0: 2B 44 50 03 01 27 80 23  7B 44 50 03 01 1C 15 80  +DP..'.#{DP.....
07B0: 5B 28 80 44 50 03 01 44  50 03 01 75 72 61 30 2B  [(.DP..DP..ura0+
07C0: 44 50 03 01 29 80 23 1C  01 80 5B 28 80 44 50 03  DP..).#...[(.DP.
07D0: 01 44 50 03 01 75 72 61  31 1C 01 80 45 12 80 F8  .DP..ura1...E...
07E0: FF FF 7F F8 FF FF 7F 6F  76 6C 32 03 80 52 25 80  .......ovl2..R%.
07F0: F8 FF FF 7F F8 FF FF 7F  73 30 38 31 45 25 80 F8  ........s081E%..
0800: FF FF 7F F8 FF FF 7F 73  30 38 32 03 80 1C 15 80  .......s082.....
0810: 48 2A 80 9F 2B 80 44 50  03 01 53 50 03 01 6D 61  H*..+.DP..SP..ma
0820: 69 6E 03 80 1C 2C 80 52  25 80 F8 FF FF 7F F8 FF  in...,.R%.......
0830: FF 7F 73 30 38 32 45 25  80 F8 FF FF 7F F8 FF FF  ..s082E%........
0840: 7F 73 30 38 33 03 80 6E  F0 FF FF 7F 2D 80 99 F0  .s083..n....-...
0850: FF FF 7F 1C 22 80 2B 44  50 03 01 2E 80 23 1C 15  ....".+DP....#..
0860: 80 5B 05 80 44 50 03 01  44 50 03 01 61 6E 67 30  .[..DP..DP..ang0
0870: 2B 44 50 03 01 2F 80 23  1C 15 80 45 12 80 F8 FF  +DP../.#...E....
0880: FF 7F F8 FF FF 7F 6F 76  6C 32 03 80 52 25 80 F8  ......ovl2..R%..
0890: FF FF 7F F8 FF FF 7F 73  30 38 33 45 25 80 F8 FF  .......s083E%...
08A0: FF 7F F8 FF FF 7F 73 30  38 34 03 80 1C 15 80 27  ......s084.....'
08B0: 0A 44 50 03 01 04 2B 44  50 03 01 30 80 23 2A 0A  .DP...+DP..0.#*.
08C0: 44 50 03 01 1C 01 80 4A  44 50 03 01 F0 FF FF 7F  DP.....JDP......
08D0: 6F 70 1C 01 80 5B 05 80  44 50 03 01 44 50 03 01  op...[..DP..DP..
08E0: 61 6E 67 30 1C 15 80 2B  44 50 03 01 27 80 23 1C  ang0...+DP..'.#.
08F0: 15 80 45 12 80 F8 FF FF  7F F8 FF FF 7F 6F 76 6C  ..E..........ovl
0900: 31 03 80 52 25 80 F8 FF  FF 7F F8 FF FF 7F 73 30  1..R%.........s0
0910: 38 34 45 25 80 F8 FF FF  7F F8 FF FF 7F 73 30 38  84E%.........s08
0920: 35 03 80 1C 15 80 5B 05  80 44 50 03 01 44 50 03  5.....[..DP..DP.
0930: 01 70 6E 74 30 1C 15 80  2B 44 50 03 01 31 80 23  .pnt0...+DP..1.#
0940: 5B 05 80 44 50 03 01 44  50 03 01 70 6E 74 31 1C  [..DP..DP..pnt1.
0950: 15 80 45 12 80 F8 FF FF  7F F8 FF FF 7F 6F 76 6C  ..E..........ovl
0960: 32 03 80 52 25 80 F8 FF  FF 7F F8 FF FF 7F 73 30  2..R%.........s0
0970: 38 35 45 25 80 F8 FF FF  7F F8 FF FF 7F 73 30 38  85E%.........s08
0980: 36 03 80 1C 16 80 27 0A  3C 50 03 01 03 1C 22 80  6.....'.<P....".
0990: 27 0F 30 50 03 01 03 2B  44 50 03 01 32 80 23 1C  '.0P...+DP..2.#.
09A0: 22 80 45 12 80 F8 FF FF  7F F8 FF FF 7F 6F 76 6C  ".E..........ovl
09B0: 32 03 80 52 25 80 F8 FF  FF 7F F8 FF FF 7F 73 30  2..R%.........s0
09C0: 38 36 45 25 80 F8 FF FF  7F F8 FF FF 7F 73 30 38  86E%.........s08
09D0: 37 03 80 7B 44 50 03 01  1C 15 80 5B 28 80 44 50  7..{DP.....[(.DP
09E0: 03 01 44 50 03 01 75 72  61 30 1C 22 80 03 02 10  ..DP..ura0."....
09F0: 33 80 2B 44 50 03 01 34  80 23 5B 28 80 44 50 03  3.+DP..4.#[(.DP.
0A00: 01 44 50 03 01 75 72 61  31 1C 15 80 2B 44 50 03  .DP..ura1...+DP.
0A10: 01 35 80 23 5B 0D 80 44  50 03 01 44 50 03 01 70  .5.#[..DP..DP..p
0A20: 61 73 30 1C 15 80 52 25  80 F8 FF FF 7F F8 FF FF  as0...R%........
0A30: 7F 73 30 38 37 45 25 80  F8 FF FF 7F F8 FF FF 7F  .s087E%.........
0A40: 73 30 38 38 03 80 1C 15  80 2B 44 50 03 01 36 80  s088.....+DP..6.
0A50: 23 5B 28 80 44 50 03 01  44 50 03 01 63 72 79 30  #[(.DP..DP..cry0
0A60: 2B 44 50 03 01 37 80 23  27 0A 44 50 03 01 05 52  +DP..7.#'.DP...R
0A70: 25 80 F8 FF FF 7F F8 FF  FF 7F 73 30 38 38 45 25  %.........s088E%
0A80: 80 F8 FF FF 7F F8 FF FF  7F 73 30 38 39 03 80 29  .........s089..)
0A90: 0A 44 50 03 01 05 5B 28  80 44 50 03 01 44 50 03  .DP...[(.DP..DP.
0AA0: 01 77 68 74 30 03 02 10  33 80 03 03 10 38 80 2B  .wht0...3....8.+
0AB0: 44 50 03 01 39 80 23 03  02 10 33 80 5B 28 80 44  DP..9.#...3.[(.D
0AC0: 50 03 01 44 50 03 01 77  68 74 31 2B 44 50 03 01  P..DP..wht1+DP..
0AD0: 3A 80 23 03 02 10 33 80  03 03 10 38 80 5B 0D 80  :.#...3....8.[..
0AE0: 44 50 03 01 44 50 03 01  68 61 70 30 2B 44 50 03  DP..DP..hap0+DP.
0AF0: 01 3B 80 23 1A 56 29 1C  01 80 52 25 80 F8 FF FF  .;.#.V)...R%....
0B00: 7F F8 FF FF 7F 73 30 38  39 46 00 45 12 80 F0 FF  .....s089F.E....
0B10: FF 7F F0 FF FF 7F 66 64  69 32 03 80 21 00        ......fdi2..!.  
```

#### Opcodes

```
  0: 0x06B1 [0x42] SET_CLI_EVENT_CANCEL_DATA()
  1: 0x06B2 [0x1A] CALL_SUBROUTINE(address=0x2956)
  2: 0x06B5 [0x46] CAMERA_CONTROL: Disable user control
  3: 0x06B7 [0x38] SET_CLIENT_EVENT_MODE(mode=19*)
  4: 0x06BA [0x79] LocalPlayer looks at LocalPlayer (Basic look)
  5: 0x06C4 [0x92] Pyopyoroon (ID: 16994372/0x01035044)->Render.Flags3 ^= 0x01
  6: 0x06CA [0x92] Unnamed NPC (ID: 16994387/0x01035053)->Render.Flags3 ^= 0x01
  7: 0x06D0 [0x94] LocalPlayer->Render.Flags3 ^= 0x01
  8: 0x06D6 [0x94] Pyopyoroon (ID: 16994372/0x01035044)->Render.Flags3 ^= 0x01
  9: 0x06DC [0x94] Unnamed NPC (ID: 16994387/0x01035053)->Render.Flags3 ^= 0x01
 10: 0x06E2 [0x29] REQ_SET_WAIT(priority=0x10, entity_id=LocalPlayer, tag_num=0x0D)
 11: 0x06E9 [0x80] LOAD_WAIT(entity=LocalPlayer)
 12: 0x06EE [0x80] LOAD_WAIT(entity=Pyopyoroon (ID: 16994372/0x01035044))
 13: 0x06F3 [0x80] LOAD_WAIT(entity=Unnamed NPC (ID: 16994387/0x01035053))
 14: 0x06F8 [0x4A] Pyopyoroon (ID: 16994372/0x01035044) looks at LocalPlayer
 15: 0x0701 [0x6F] WAIT_FRAME_DELAY: Yield until WaitTime reaches zero
 16: 0x0702 [0x70] WAIT_ENTITY_RENDER_FLAG: Wait while EventEntity->Render.Flags3 bit 2 is set (cancel turn if not)
 17: 0x0703 [0x4A] LocalPlayer looks at Pyopyoroon (ID: 16994372/0x01035044)
 18: 0x070C [0x6F] WAIT_FRAME_DELAY: Yield until WaitTime reaches zero
 19: 0x070D [0x70] WAIT_ENTITY_RENDER_FLAG: Wait while EventEntity->Render.Flags3 bit 2 is set (cancel turn if not)
 20: 0x070E [0x1C] WAIT(30* ticks)
 21: 0x0711 [0x45] LOAD_SCHEDULED_TASK: Load scheduler "s080" with entities [EventEntity, EventEntity], work=[181*, 0*]
 22: 0x0722 [0x1C] WAIT(15* ticks)
 23: 0x0725 [0x1A] CALL_SUBROUTINE(address=0x2935)
 24: 0x0728 [0x1C] WAIT(30* ticks)
 25: 0x072B [0x5B] LOAD_EXT_SCHEDULER: Load scheduler "tlb0" with entities [Pyopyoroon (ID: 16994372/0x01035044), Pyopyoroon (ID: 16994372/0x01035044)], work=843*
 26: 0x073A [0x1C] WAIT(30* ticks)
 27: 0x073D [0x2B] Pyopyoroon (ID: 16994372/0x01035044) [10721*]:
    → "Are yooo loooking for ghooosts?"
 28: 0x0744 [0x23] WAIT_FOR_DIALOG_INTERACTION
 29: 0x0745 [0x1C] WAIT(30* ticks)
 30: 0x0748 [0x5B] LOAD_EXT_SCHEDULER: Load scheduler "tlb1" with entities [Pyopyoroon (ID: 16994372/0x01035044), Pyopyoroon (ID: 16994372/0x01035044)], work=843*
 31: 0x0757 [0x1C] WAIT(120* ticks)
 32: 0x075A [0x45] LOAD_SCHEDULED_TASK: Load scheduler "ovl1" with entities [EventEntity, EventEntity], work=[200*, 0*]
 33: 0x076B [0x52] END_LOAD_SCHEDULER: End scheduler "s080" with entities [EventEntity, EventEntity], work=181*
 34: 0x077A [0x45] LOAD_SCHEDULED_TASK: Load scheduler "s081" with entities [EventEntity, EventEntity], work=[181*, 0*]
 35: 0x078B [0x1C] WAIT(30* ticks)
 36: 0x078E [0x5B] LOAD_EXT_SCHEDULER: Load scheduler "ang0" with entities [Pyopyoroon (ID: 16994372/0x01035044), Pyopyoroon (ID: 16994372/0x01035044)], work=843*
 37: 0x079D [0x1C] WAIT(120* ticks)
 38: 0x07A0 [0x2B] Pyopyoroon (ID: 16994372/0x01035044) [10722*]:
    → "Brrr. Brrr."
 39: 0x07A7 [0x23] WAIT_FOR_DIALOG_INTERACTION
 40: 0x07A8 [0x7B] Pyopyoroon (ID: 16994372/0x01035044) stops talking
 41: 0x07AD [0x1C] WAIT(60* ticks)
 42: 0x07B0 [0x5B] LOAD_EXT_SCHEDULER: Load scheduler "ura0" with entities [Pyopyoroon (ID: 16994372/0x01035044), Pyopyoroon (ID: 16994372/0x01035044)], work=881*
 43: 0x07BF [0x2B] Pyopyoroon (ID: 16994372/0x01035044) [10723*]:
    → "Pyopyoroon love ghooosts. Maybe yooo are ghooost!"
 44: 0x07C6 [0x23] WAIT_FOR_DIALOG_INTERACTION
 45: 0x07C7 [0x1C] WAIT(30* ticks)
 46: 0x07CA [0x5B] LOAD_EXT_SCHEDULER: Load scheduler "ura1" with entities [Pyopyoroon (ID: 16994372/0x01035044), Pyopyoroon (ID: 16994372/0x01035044)], work=881*
 47: 0x07D9 [0x1C] WAIT(30* ticks)
 48: 0x07DC [0x45] LOAD_SCHEDULED_TASK: Load scheduler "ovl2" with entities [EventEntity, EventEntity], work=[200*, 0*]
 49: 0x07ED [0x52] END_LOAD_SCHEDULER: End scheduler "s081" with entities [EventEntity, EventEntity], work=181*
 50: 0x07FC [0x45] LOAD_SCHEDULED_TASK: Load scheduler "s082" with entities [EventEntity, EventEntity], work=[181*, 0*]
 51: 0x080D [0x1C] WAIT(60* ticks)
 52: 0x0810 [0x48] [System] [10724*]:
    → "Pyopyoroon peers intently at <Player>!"
 53: 0x0813 [0x9F] LOAD_SCHEDULED_TASK_ALT: Load scheduler "main" with entities [Pyopyoroon (ID: 16994372/0x01035044), Unnamed NPC (ID: 16994387/0x01035053)], work=[226*, 0*]
 54: 0x0824 [0x1C] WAIT(240* ticks)
 55: 0x0827 [0x52] END_LOAD_SCHEDULER: End scheduler "s082" with entities [EventEntity, EventEntity], work=181*
 56: 0x0836 [0x45] LOAD_SCHEDULED_TASK: Load scheduler "s083" with entities [EventEntity, EventEntity], work=[181*, 0*]
 57: 0x0847 [0x6E] LocalPlayer uses emote 22*
 58: 0x084E [0x99] Wait for LocalPlayer animation to complete
 59: 0x0853 [0x1C] WAIT(120* ticks)
 60: 0x0856 [0x2B] Pyopyoroon (ID: 16994372/0x01035044) [10725*]:
    → "Nooo, yooo are no ghooost!"
 61: 0x085D [0x23] WAIT_FOR_DIALOG_INTERACTION
 62: 0x085E [0x1C] WAIT(60* ticks)
 63: 0x0861 [0x5B] LOAD_EXT_SCHEDULER: Load scheduler "ang0" with entities [Pyopyoroon (ID: 16994372/0x01035044), Pyopyoroon (ID: 16994372/0x01035044)], work=843*
 64: 0x0870 [0x2B] Pyopyoroon (ID: 16994372/0x01035044) [10726*]:
    → "Pyopyoroon is sad. Pyopyo-pyorooon."
 65: 0x0877 [0x23] WAIT_FOR_DIALOG_INTERACTION
 66: 0x0878 [0x1C] WAIT(60* ticks)
 67: 0x087B [0x45] LOAD_SCHEDULED_TASK: Load scheduler "ovl2" with entities [EventEntity, EventEntity], work=[200*, 0*]
 68: 0x088C [0x52] END_LOAD_SCHEDULER: End scheduler "s083" with entities [EventEntity, EventEntity], work=181*
 69: 0x089B [0x45] LOAD_SCHEDULED_TASK: Load scheduler "s084" with entities [EventEntity, EventEntity], work=[181*, 0*]
 70: 0x08AC [0x1C] WAIT(60* ticks)
 71: 0x08AF [0x27] REQ_SET(priority=0x0A, entity_id=Pyopyoroon (ID: 16994372/0x01035044), tag_num=0x04)
 72: 0x08B6 [0x2B] Pyopyoroon (ID: 16994372/0x01035044) [10727*]:
    → "Hm? Maybe! Maybe yooo are ghooost hunter tooo?"
 73: 0x08BD [0x23] WAIT_FOR_DIALOG_INTERACTION
 74: 0x08BE [0x2A] GET_REQ_LEVEL(level=10, entity_id=Pyopyoroon (ID: 16994372/0x01035044))
 75: 0x08C4 [0x1C] WAIT(30* ticks)
 76: 0x08C7 [0x4A] Pyopyoroon (ID: 16994372/0x01035044) looks at LocalPlayer
 77: 0x08D0 [0x6F] WAIT_FRAME_DELAY: Yield until WaitTime reaches zero
 78: 0x08D1 [0x70] WAIT_ENTITY_RENDER_FLAG: Wait while EventEntity->Render.Flags3 bit 2 is set (cancel turn if not)
 79: 0x08D2 [0x1C] WAIT(30* ticks)
 80: 0x08D5 [0x5B] LOAD_EXT_SCHEDULER: Load scheduler "ang0" with entities [Pyopyoroon (ID: 16994372/0x01035044), Pyopyoroon (ID: 16994372/0x01035044)], work=843*
 81: 0x08E4 [0x1C] WAIT(60* ticks)
 82: 0x08E7 [0x2B] Pyopyoroon (ID: 16994372/0x01035044) [10722*]:
    → "Brrr. Brrr."
 83: 0x08EE [0x23] WAIT_FOR_DIALOG_INTERACTION
 84: 0x08EF [0x1C] WAIT(60* ticks)
 85: 0x08F2 [0x45] LOAD_SCHEDULED_TASK: Load scheduler "ovl1" with entities [EventEntity, EventEntity], work=[200*, 0*]
 86: 0x0903 [0x52] END_LOAD_SCHEDULER: End scheduler "s084" with entities [EventEntity, EventEntity], work=181*
 87: 0x0912 [0x45] LOAD_SCHEDULED_TASK: Load scheduler "s085" with entities [EventEntity, EventEntity], work=[181*, 0*]
 88: 0x0923 [0x1C] WAIT(60* ticks)
 89: 0x0926 [0x5B] LOAD_EXT_SCHEDULER: Load scheduler "pnt0" with entities [Pyopyoroon (ID: 16994372/0x01035044), Pyopyoroon (ID: 16994372/0x01035044)], work=843*
 90: 0x0935 [0x1C] WAIT(60* ticks)
 91: 0x0938 [0x2B] Pyopyoroon (ID: 16994372/0x01035044) [10728*]:
    → "Yooo are friend to Pyopyoroon! Pyopyoroon teach you secret."
 92: 0x093F [0x23] WAIT_FOR_DIALOG_INTERACTION
 93: 0x0940 [0x5B] LOAD_EXT_SCHEDULER: Load scheduler "pnt1" with entities [Pyopyoroon (ID: 16994372/0x01035044), Pyopyoroon (ID: 16994372/0x01035044)], work=843*
 94: 0x094F [0x1C] WAIT(60* ticks)
 95: 0x0952 [0x45] LOAD_SCHEDULED_TASK: Load scheduler "ovl2" with entities [EventEntity, EventEntity], work=[200*, 0*]
 96: 0x0963 [0x52] END_LOAD_SCHEDULER: End scheduler "s085" with entities [EventEntity, EventEntity], work=181*
 97: 0x0972 [0x45] LOAD_SCHEDULED_TASK: Load scheduler "s086" with entities [EventEntity, EventEntity], work=[181*, 0*]
 98: 0x0983 [0x1C] WAIT(180* ticks)
 99: 0x0986 [0x27] REQ_SET(priority=0x0A, entity_id=Loloroon (ID: 16994364/0x0103503C), tag_num=0x03)
100: 0x098D [0x1C] WAIT(120* ticks)
101: 0x0990 [0x27] REQ_SET(priority=0x0F, entity_id=Wafeeyah (ID: 16994352/0x01035030), tag_num=0x03)
102: 0x0997 [0x2B] Pyopyoroon (ID: 16994372/0x01035044) [10729*]:
    → "Yooo go west of here! Many rooocks and stooones, yes! Yooo find plenty of ghooosts!"
103: 0x099E [0x23] WAIT_FOR_DIALOG_INTERACTION
104: 0x099F [0x1C] WAIT(120* ticks)
105: 0x09A2 [0x45] LOAD_SCHEDULED_TASK: Load scheduler "ovl2" with entities [EventEntity, EventEntity], work=[200*, 0*]
106: 0x09B3 [0x52] END_LOAD_SCHEDULER: End scheduler "s086" with entities [EventEntity, EventEntity], work=181*
107: 0x09C2 [0x45] LOAD_SCHEDULED_TASK: Load scheduler "s087" with entities [EventEntity, EventEntity], work=[181*, 0*]
108: 0x09D3 [0x7B] Pyopyoroon (ID: 16994372/0x01035044) stops talking
109: 0x09D8 [0x1C] WAIT(60* ticks)
110: 0x09DB [0x5B] LOAD_EXT_SCHEDULER: Load scheduler "ura0" with entities [Pyopyoroon (ID: 16994372/0x01035044), Pyopyoroon (ID: 16994372/0x01035044)], work=881*
111: 0x09EA [0x1C] WAIT(120* ticks)
112: 0x09ED [0x03] Work_Zone[2] = 813*
113: 0x09F2 [0x2B] Pyopyoroon (ID: 16994372/0x01035044) [10730*]:
    → "But there is special ghooost. Ghooost like $3! Did yooo know?"
114: 0x09F9 [0x23] WAIT_FOR_DIALOG_INTERACTION
115: 0x09FA [0x5B] LOAD_EXT_SCHEDULER: Load scheduler "ura1" with entities [Pyopyoroon (ID: 16994372/0x01035044), Pyopyoroon (ID: 16994372/0x01035044)], work=881*
116: 0x0A09 [0x1C] WAIT(60* ticks)
117: 0x0A0C [0x2B] Pyopyoroon (ID: 16994372/0x01035044) [10731*]:
    → "Yooo take this!"
118: 0x0A13 [0x23] WAIT_FOR_DIALOG_INTERACTION
119: 0x0A14 [0x5B] LOAD_EXT_SCHEDULER: Load scheduler "pas0" with entities [Pyopyoroon (ID: 16994372/0x01035044), Pyopyoroon (ID: 16994372/0x01035044)], work=842*
120: 0x0A23 [0x1C] WAIT(60* ticks)
121: 0x0A26 [0x52] END_LOAD_SCHEDULER: End scheduler "s087" with entities [EventEntity, EventEntity], work=181*
122: 0x0A35 [0x45] LOAD_SCHEDULED_TASK: Load scheduler "s088" with entities [EventEntity, EventEntity], work=[181*, 0*]
123: 0x0A46 [0x1C] WAIT(60* ticks)
124: 0x0A49 [0x2B] Pyopyoroon (ID: 16994372/0x01035044) [10732*]:
    → "..."
125: 0x0A50 [0x23] WAIT_FOR_DIALOG_INTERACTION
126: 0x0A51 [0x5B] LOAD_EXT_SCHEDULER: Load scheduler "cry0" with entities [Pyopyoroon (ID: 16994372/0x01035044), Pyopyoroon (ID: 16994372/0x01035044)], work=881*
127: 0x0A60 [0x2B] Pyopyoroon (ID: 16994372/0x01035044) [10733*]:
    → "Nothing in pooockets...!"
128: 0x0A67 [0x23] WAIT_FOR_DIALOG_INTERACTION
129: 0x0A68 [0x27] REQ_SET(priority=0x0A, entity_id=Pyopyoroon (ID: 16994372/0x01035044), tag_num=0x05)
130: 0x0A6F [0x52] END_LOAD_SCHEDULER: End scheduler "s088" with entities [EventEntity, EventEntity], work=181*
131: 0x0A7E [0x45] LOAD_SCHEDULED_TASK: Load scheduler "s089" with entities [EventEntity, EventEntity], work=[181*, 0*]
132: 0x0A8F [0x29] REQ_SET_WAIT(priority=0x0A, entity_id=Pyopyoroon (ID: 16994372/0x01035044), tag_num=0x05)
133: 0x0A96 [0x5B] LOAD_EXT_SCHEDULER: Load scheduler "wht0" with entities [Pyopyoroon (ID: 16994372/0x01035044), Pyopyoroon (ID: 16994372/0x01035044)], work=881*
134: 0x0AA5 [0x03] Work_Zone[2] = 813*
135: 0x0AAA [0x03] Work_Zone[3] = 2307*
136: 0x0AAF [0x2B] Pyopyoroon (ID: 16994372/0x01035044) [10734*]:
    → "Nooo proooblem! Yooo find $1 for $3?"
137: 0x0AB6 [0x23] WAIT_FOR_DIALOG_INTERACTION
138: 0x0AB7 [0x03] Work_Zone[2] = 813*
139: 0x0ABC [0x5B] LOAD_EXT_SCHEDULER: Load scheduler "wht1" with entities [Pyopyoroon (ID: 16994372/0x01035044), Pyopyoroon (ID: 16994372/0x01035044)], work=881*
140: 0x0ACB [0x2B] Pyopyoroon (ID: 16994372/0x01035044) [10735*]:
    → "Big, red, many-many wavy-wavy arm creature has $1! Yooo go to Wajaom or Bhaflau!"
141: 0x0AD2 [0x23] WAIT_FOR_DIALOG_INTERACTION
142: 0x0AD3 [0x03] Work_Zone[2] = 813*
143: 0x0AD8 [0x03] Work_Zone[3] = 2307*
144: 0x0ADD [0x5B] LOAD_EXT_SCHEDULER: Load scheduler "hap0" with entities [Pyopyoroon (ID: 16994372/0x01035044), Pyopyoroon (ID: 16994372/0x01035044)], work=842*
145: 0x0AEC [0x2B] Pyopyoroon (ID: 16994372/0x01035044) [10736*]:
    → "If Pyopyoroon has $1, Pyopyoroon make yooo $3!"
146: 0x0AF3 [0x23] WAIT_FOR_DIALOG_INTERACTION
147: 0x0AF4 [0x1A] CALL_SUBROUTINE(address=0x2956)
148: 0x0AF7 [0x1C] WAIT(30* ticks)
149: 0x0AFA [0x52] END_LOAD_SCHEDULER: End scheduler "s089" with entities [EventEntity, EventEntity], work=181*
150: 0x0B09 [0x46] CAMERA_CONTROL: Restore default settings
151: 0x0B0B [0x45] LOAD_SCHEDULED_TASK: Load scheduler "fdi2" with entities [LocalPlayer, LocalPlayer], work=[200*, 0*]
152: 0x0B1C [0x21] END_EVENT
153: 0x0B1D [0x00] END_REQSTACK()
```

### Event 279

#### Metadata

| Field        | Value     |
|--------------|-----------|
| Entrypoint   | 0x0B1E    |
| Data Size    | 595 bytes |
| Instructions | 86        |

```
      00 01 02 03 04 05 06 07  08 09 0A 0B 0C 0D 0E 0F
      -- -- -- -- -- -- -- --  -- -- -- -- -- -- -- --
0B10:                                            42 1A                B.
0B20: 56 29 46 01 38 00 80 79  00 F0 FF FF 7F F0 FF FF  V)F.8..y........
0B30: 7F 92 01 44 50 03 01 94  01 F0 FF FF 7F 94 01 44  ...DP..........D
0B40: 50 03 01 29 10 F0 FF FF  7F 0D 80 F0 FF FF 7F 80  P..)............
0B50: 44 50 03 01 45 25 80 F8  FF FF 7F F8 FF FF 7F 73  DP..E%.........s
0B60: 30 39 30 03 80 1C 04 80  1A 35 29 1C 15 80 4A F0  090......5)...J.
0B70: FF FF 7F 44 50 03 01 6F  70 2B 44 50 03 01 3C 80  ...DP..op+DP..<.
0B80: 23 1C 15 80 45 12 80 F8  FF FF 7F F8 FF FF 7F 6F  #...E..........o
0B90: 76 6C 32 03 80 52 25 80  F8 FF FF 7F F8 FF FF 7F  vl2..R%.........
0BA0: 73 30 39 30 45 25 80 F8  FF FF 7F F8 FF FF 7F 73  s090E%.........s
0BB0: 30 39 31 03 80 1C 15 80  4A 44 50 03 01 F0 FF FF  091.....JDP.....
0BC0: 7F 6F 70 79 00 44 50 03  01 F0 FF FF 7F 1C 01 80  .opy.DP.........
0BD0: 5B 05 80 44 50 03 01 44  50 03 01 68 61 70 30 03  [..DP..DP..hap0.
0BE0: 03 10 38 80 2B 44 50 03  01 3D 80 23 1C 15 80 52  ..8.+DP..=.#...R
0BF0: 25 80 F8 FF FF 7F F8 FF  FF 7F 73 30 39 31 45 25  %.........s091E%
0C00: 80 F8 FF FF 7F F8 FF FF  7F 73 30 39 32 03 80 5B  .........s092..[
0C10: 05 80 44 50 03 01 44 50  03 01 61 6E 67 30 1C 15  ..DP..DP..ang0..
0C20: 80 2B 44 50 03 01 27 80  23 5B 28 80 44 50 03 01  .+DP..'.#[(.DP..
0C30: 44 50 03 01 77 68 74 30  03 02 10 33 80 2B 44 50  DP..wht0...3.+DP
0C40: 03 01 3E 80 23 1A 56 29  52 25 80 F8 FF FF 7F F8  ..>.#.V)R%......
0C50: FF FF 7F 73 30 39 32 5B  28 80 44 50 03 01 44 50  ...s092[(.DP..DP
0C60: 03 01 77 68 74 31 1C 3F  80 5C 00 03 80 5C 01 03  ..wht1.?.\...\..
0C70: 80 45 02 80 44 50 03 01  F0 FF FF 7F 64 6B 64 6B  .E..DP......dkdk
0C80: 03 80 1C 16 80 5D 03 80  03 80 5C 00 23 80 5C 01  .....]....\.#.\.
0C90: 23 80 45 25 80 F8 FF FF  7F F8 FF FF 7F 73 30 39  #.E%.........s09
0CA0: 33 03 80 1A 35 29 5B 05  80 44 50 03 01 44 50 03  3...5)[..DP..DP.
0CB0: 01 68 61 70 30 1C 15 80  2B 44 50 03 01 40 80 23  .hap0...+DP..@.#
0CC0: 5B 0D 80 44 50 03 01 44  50 03 01 70 61 73 30 2B  [..DP..DP..pas0+
0CD0: 44 50 03 01 41 80 23 1C  2C 80 9F 42 80 F0 FF FF  DP..A.#.,..B....
0CE0: 7F F0 FF FF 7F 6D 61 69  6E 03 80 1C 43 80 45 12  .....main...C.E.
0CF0: 80 F8 FF FF 7F F8 FF FF  7F 6F 76 6C 32 03 80 52  .........ovl2..R
0D00: 25 80 F8 FF FF 7F F8 FF  FF 7F 73 30 39 33 45 25  %.........s093E%
0D10: 80 F8 FF FF 7F F8 FF FF  7F 73 30 39 34 03 80 1C  .........s094...
0D20: 15 80 2B 44 50 03 01 44  80 23 5B 0D 80 44 50 03  ..+DP..D.#[..DP.
0D30: 01 44 50 03 01 70 6E 74  30 1C 15 80 2B 44 50 03  .DP..pnt0...+DP.
0D40: 01 45 80 23 1C 15 80 1A  56 29 1C 01 80 52 25 80  .E.#....V)...R%.
0D50: F8 FF FF 7F F8 FF FF 7F  73 30 39 34 46 00 45 12  ........s094F.E.
0D60: 80 F0 FF FF 7F F0 FF FF  7F 66 64 69 32 03 80 21  .........fdi2..!
0D70: 00                                                .               
```

#### Opcodes

```
  0: 0x0B1E [0x42] SET_CLI_EVENT_CANCEL_DATA()
  1: 0x0B1F [0x1A] CALL_SUBROUTINE(address=0x2956)
  2: 0x0B22 [0x46] CAMERA_CONTROL: Disable user control
  3: 0x0B24 [0x38] SET_CLIENT_EVENT_MODE(mode=19*)
  4: 0x0B27 [0x79] LocalPlayer looks at LocalPlayer (Basic look)
  5: 0x0B31 [0x92] Pyopyoroon (ID: 16994372/0x01035044)->Render.Flags3 ^= 0x01
  6: 0x0B37 [0x94] LocalPlayer->Render.Flags3 ^= 0x01
  7: 0x0B3D [0x94] Pyopyoroon (ID: 16994372/0x01035044)->Render.Flags3 ^= 0x01
  8: 0x0B43 [0x29] REQ_SET_WAIT(priority=0x10, entity_id=LocalPlayer, tag_num=0x0D)
  9: 0x0B4A [0x80] LOAD_WAIT(entity=LocalPlayer)
 10: 0x0B4F [0x80] LOAD_WAIT(entity=Pyopyoroon (ID: 16994372/0x01035044))
 11: 0x0B54 [0x45] LOAD_SCHEDULED_TASK: Load scheduler "s090" with entities [EventEntity, EventEntity], work=[181*, 0*]
 12: 0x0B65 [0x1C] WAIT(15* ticks)
 13: 0x0B68 [0x1A] CALL_SUBROUTINE(address=0x2935)
 14: 0x0B6B [0x1C] WAIT(60* ticks)
 15: 0x0B6E [0x4A] LocalPlayer looks at Pyopyoroon (ID: 16994372/0x01035044)
 16: 0x0B77 [0x6F] WAIT_FRAME_DELAY: Yield until WaitTime reaches zero
 17: 0x0B78 [0x70] WAIT_ENTITY_RENDER_FLAG: Wait while EventEntity->Render.Flags3 bit 2 is set (cancel turn if not)
 18: 0x0B79 [0x2B] Pyopyoroon (ID: 16994372/0x01035044) [10737*]:
    → "Pyopyo-pyorooon!"
 19: 0x0B80 [0x23] WAIT_FOR_DIALOG_INTERACTION
 20: 0x0B81 [0x1C] WAIT(60* ticks)
 21: 0x0B84 [0x45] LOAD_SCHEDULED_TASK: Load scheduler "ovl2" with entities [EventEntity, EventEntity], work=[200*, 0*]
 22: 0x0B95 [0x52] END_LOAD_SCHEDULER: End scheduler "s090" with entities [EventEntity, EventEntity], work=181*
 23: 0x0BA4 [0x45] LOAD_SCHEDULED_TASK: Load scheduler "s091" with entities [EventEntity, EventEntity], work=[181*, 0*]
 24: 0x0BB5 [0x1C] WAIT(60* ticks)
 25: 0x0BB8 [0x4A] Pyopyoroon (ID: 16994372/0x01035044) looks at LocalPlayer
 26: 0x0BC1 [0x6F] WAIT_FRAME_DELAY: Yield until WaitTime reaches zero
 27: 0x0BC2 [0x70] WAIT_ENTITY_RENDER_FLAG: Wait while EventEntity->Render.Flags3 bit 2 is set (cancel turn if not)
 28: 0x0BC3 [0x79] Pyopyoroon (ID: 16994372/0x01035044) looks at LocalPlayer (Basic look)
 29: 0x0BCD [0x1C] WAIT(30* ticks)
 30: 0x0BD0 [0x5B] LOAD_EXT_SCHEDULER: Load scheduler "hap0" with entities [Pyopyoroon (ID: 16994372/0x01035044), Pyopyoroon (ID: 16994372/0x01035044)], work=843*
 31: 0x0BDF [0x03] Work_Zone[3] = 2307*
 32: 0x0BE4 [0x2B] Pyopyoroon (ID: 16994372/0x01035044) [10738*]:
    → "Yooo brought $1! Nose of Pyopyoroon can tell!"
 33: 0x0BEB [0x23] WAIT_FOR_DIALOG_INTERACTION
 34: 0x0BEC [0x1C] WAIT(60* ticks)
 35: 0x0BEF [0x52] END_LOAD_SCHEDULER: End scheduler "s091" with entities [EventEntity, EventEntity], work=181*
 36: 0x0BFE [0x45] LOAD_SCHEDULED_TASK: Load scheduler "s092" with entities [EventEntity, EventEntity], work=[181*, 0*]
 37: 0x0C0F [0x5B] LOAD_EXT_SCHEDULER: Load scheduler "ang0" with entities [Pyopyoroon (ID: 16994372/0x01035044), Pyopyoroon (ID: 16994372/0x01035044)], work=843*
 38: 0x0C1E [0x1C] WAIT(60* ticks)
 39: 0x0C21 [0x2B] Pyopyoroon (ID: 16994372/0x01035044) [10722*]:
    → "Brrr. Brrr."
 40: 0x0C28 [0x23] WAIT_FOR_DIALOG_INTERACTION
 41: 0x0C29 [0x5B] LOAD_EXT_SCHEDULER: Load scheduler "wht0" with entities [Pyopyoroon (ID: 16994372/0x01035044), Pyopyoroon (ID: 16994372/0x01035044)], work=881*
 42: 0x0C38 [0x03] Work_Zone[2] = 813*
 43: 0x0C3D [0x2B] Pyopyoroon (ID: 16994372/0x01035044) [10739*]:
    → "Pyopyoroon make yooo $3! Yooo see spoooky ghooost!"
 44: 0x0C44 [0x23] WAIT_FOR_DIALOG_INTERACTION
 45: 0x0C45 [0x1A] CALL_SUBROUTINE(address=0x2956)
 46: 0x0C48 [0x52] END_LOAD_SCHEDULER: End scheduler "s092" with entities [EventEntity, EventEntity], work=181*
 47: 0x0C57 [0x5B] LOAD_EXT_SCHEDULER: Load scheduler "wht1" with entities [Pyopyoroon (ID: 16994372/0x01035044), Pyopyoroon (ID: 16994372/0x01035044)], work=881*
 48: 0x0C66 [0x1C] WAIT(90* ticks)
 49: 0x0C69 [0x5C] MUSIC_CONTROL: Set Idle (Day) music to song 0*
 50: 0x0C6D [0x5C] MUSIC_CONTROL: Set Idle (Night) music to song 0*
 51: 0x0C71 [0x45] LOAD_SCHEDULED_TASK: Load scheduler "dkdk" with entities [Pyopyoroon (ID: 16994372/0x01035044), LocalPlayer], work=[259*, 0*]
 52: 0x0C82 [0x1C] WAIT(180* ticks)
 53: 0x0C85 [0x5D] SET_MUSIC_VOLUME(volume=0*, fade_time=0*)
 54: 0x0C8A [0x5C] MUSIC_CONTROL: Set Idle (Day) music to song 175*
 55: 0x0C8E [0x5C] MUSIC_CONTROL: Set Idle (Night) music to song 175*
 56: 0x0C92 [0x45] LOAD_SCHEDULED_TASK: Load scheduler "s093" with entities [EventEntity, EventEntity], work=[181*, 0*]
 57: 0x0CA3 [0x1A] CALL_SUBROUTINE(address=0x2935)
 58: 0x0CA6 [0x5B] LOAD_EXT_SCHEDULER: Load scheduler "hap0" with entities [Pyopyoroon (ID: 16994372/0x01035044), Pyopyoroon (ID: 16994372/0x01035044)], work=843*
 59: 0x0CB5 [0x1C] WAIT(60* ticks)
 60: 0x0CB8 [0x2B] Pyopyoroon (ID: 16994372/0x01035044) [10740*]:
    → "Pyopyoroon is master perfooom maker! Make smelly smell into sweeet smell!"
 61: 0x0CBF [0x23] WAIT_FOR_DIALOG_INTERACTION
 62: 0x0CC0 [0x5B] LOAD_EXT_SCHEDULER: Load scheduler "pas0" with entities [Pyopyoroon (ID: 16994372/0x01035044), Pyopyoroon (ID: 16994372/0x01035044)], work=842*
 63: 0x0CCF [0x2B] Pyopyoroon (ID: 16994372/0x01035044) [10741*]:
    → "Yooo take!"
 64: 0x0CD6 [0x23] WAIT_FOR_DIALOG_INTERACTION
 65: 0x0CD7 [0x1C] WAIT(240* ticks)
 66: 0x0CDA [0x9F] LOAD_SCHEDULED_TASK_ALT: Load scheduler "main" with entities [LocalPlayer, LocalPlayer], work=[239*, 0*]
 67: 0x0CEB [0x1C] WAIT(150* ticks)
 68: 0x0CEE [0x45] LOAD_SCHEDULED_TASK: Load scheduler "ovl2" with entities [EventEntity, EventEntity], work=[200*, 0*]
 69: 0x0CFF [0x52] END_LOAD_SCHEDULER: End scheduler "s093" with entities [EventEntity, EventEntity], work=181*
 70: 0x0D0E [0x45] LOAD_SCHEDULED_TASK: Load scheduler "s094" with entities [EventEntity, EventEntity], work=[181*, 0*]
 71: 0x0D1F [0x1C] WAIT(60* ticks)
 72: 0x0D22 [0x2B] Pyopyoroon (ID: 16994372/0x01035044) [10742*]:
    → "Ooold smell is hard smell to make. But ghooost will smell, maybe cry?"
 73: 0x0D29 [0x23] WAIT_FOR_DIALOG_INTERACTION
 74: 0x0D2A [0x5B] LOAD_EXT_SCHEDULER: Load scheduler "pnt0" with entities [Pyopyoroon (ID: 16994372/0x01035044), Pyopyoroon (ID: 16994372/0x01035044)], work=842*
 75: 0x0D39 [0x1C] WAIT(60* ticks)
 76: 0x0D3C [0x2B] Pyopyoroon (ID: 16994372/0x01035044) [10743*]:
    → "Yooo go west! Many rooocks, many stooones! Yooo find ghooost!"
 77: 0x0D43 [0x23] WAIT_FOR_DIALOG_INTERACTION
 78: 0x0D44 [0x1C] WAIT(60* ticks)
 79: 0x0D47 [0x1A] CALL_SUBROUTINE(address=0x2956)
 80: 0x0D4A [0x1C] WAIT(30* ticks)
 81: 0x0D4D [0x52] END_LOAD_SCHEDULER: End scheduler "s094" with entities [EventEntity, EventEntity], work=181*
 82: 0x0D5C [0x46] CAMERA_CONTROL: Restore default settings
 83: 0x0D5E [0x45] LOAD_SCHEDULED_TASK: Load scheduler "fdi2" with entities [LocalPlayer, LocalPlayer], work=[200*, 0*]
 84: 0x0D6F [0x21] END_EVENT
 85: 0x0D70 [0x00] END_REQSTACK()
```

### Event 281

#### Metadata

| Field        | Value      |
|--------------|------------|
| Entrypoint   | 0x0D71     |
| Data Size    | 2944 bytes |
| Instructions | 367        |

```
      00 01 02 03 04 05 06 07  08 09 0A 0B 0C 0D 0E 0F
      -- -- -- -- -- -- -- --  -- -- -- -- -- -- -- --
0D70:    42 02 09 10 03 80 00  7F 0D 5D 03 80 22 80 1A   B........].."..
0D80: 56 29 46 01 38 00 80 79  00 F0 FF FF 7F F0 FF FF  V)F.8..y........
0D90: 7F 4E 00 F0 FF FF 7F 92  01 55 50 03 01 92 01 44  .N.......UP....D
0DA0: 50 03 01 92 01 33 50 03  01 92 01 32 50 03 01 92  P....3P....2P...
0DB0: 01 39 50 03 01 92 01 50  50 03 01 92 01 13 50 03  .9P....PP.....P.
0DC0: 01 94 01 F0 FF FF 7F 94  01 55 50 03 01 94 01 44  .........UP....D
0DD0: 50 03 01 29 10 F0 FF FF  7F 0F 80 F0 FF FF 7F 1C  P..)............
0DE0: 04 80 2C F0 FF FF 7F F0  FF FF 7F 63 6F 72 70 4A  ..,........corpJ
0DF0: 33 50 03 01 F0 FF FF 7F  4E 00 55 50 03 01 29 10  3P......N.UP..).
0E00: 55 50 03 01 09 80 55 50  03 01 1C 15 80 5B 46 80  UP....UP.....[F.
0E10: 55 50 03 01 55 50 03 01  73 68 61 30 1C 01 80 29  UP..UP..sha0...)
0E20: 10 39 50 03 01 03 80 39  50 03 01 4A 39 50 03 01  .9P....9P..J9P..
0E30: 55 50 03 01 4A 32 50 03  01 55 50 03 01 29 10 44  UP..J2P..UP..).D
0E40: 50 03 01 0A 80 44 50 03  01 4A 44 50 03 01 55 50  P....DP..JDP..UP
0E50: 03 01 02 09 10 03 80 00  63 0E 5C 00 23 80 5C 01  ........c.\.#.\.
0E60: 23 80 9A 45 47 80 F8 FF  FF 7F F8 FF FF 7F 73 31  #..EG.........s1
0E70: 34 34 03 80 1C 04 80 1A  35 29 1C 15 80 5B 48 80  44......5)...[H.
0E80: 55 50 03 01 55 50 03 01  68 6F 30 30 2B 55 50 03  UP..UP..ho00+UP.
0E90: 01 49 80 23 5B 46 80 55  50 03 01 55 50 03 01 73  .I.#[F.UP..UP..s
0EA0: 68 61 31 1C 22 80 52 47  80 F8 FF FF 7F F8 FF FF  ha1.".RG........
0EB0: 7F 73 31 34 34 45 47 80  F8 FF FF 7F F8 FF FF 7F  .s144EG.........
0EC0: 73 31 34 35 03 80 4B 55  50 03 01 4A 80 2B 55 50  s145..KUP..J.+UP
0ED0: 03 01 4B 80 23 5B 4C 80  55 50 03 01 55 50 03 01  ..K.#[L.UP..UP..
0EE0: 74 6C 6B 30 2B 55 50 03  01 4D 80 23 1A 56 29 52  tlk0+UP..M.#.V)R
0EF0: 47 80 F8 FF FF 7F F8 FF  FF 7F 73 31 34 35 29 05  G.........s145).
0F00: F0 FF FF 7F 1B 45 47 80  F8 FF FF 7F F8 FF FF 7F  .....EG.........
0F10: 73 31 34 36 03 80 1C 04  80 1A 35 29 27 05 F0 FF  s146......5)'...
0F20: FF 7F 1C 1C 01 80 5B 4C  80 55 50 03 01 55 50 03  ......[L.UP..UP.
0F30: 01 74 6C 6B 31 1C 01 80  4A F0 FF FF 7F 55 50 03  .tlk1...J....UP.
0F40: 01 5B 05 80 44 50 03 01  44 50 03 01 61 6E 67 30  .[..DP..DP..ang0
0F50: 2B 44 50 03 01 4E 80 23  1C 01 80 52 47 80 F8 FF  +DP..N.#...RG...
0F60: FF 7F F8 FF FF 7F 73 31  34 36 45 47 80 F8 FF FF  ......s146EG....
0F70: 7F F8 FF FF 7F 73 31 34  37 03 80 4B 55 50 03 01  .....s147..KUP..
0F80: 4F 80 29 10 F0 FF FF 7F  16 1C 01 80 53 44 50 03  O.).........SDP.
0F90: 01 44 50 03 01 70 6E 74  30 5B 05 80 44 50 03 01  .DP..pnt0[..DP..
0FA0: 44 50 03 01 70 6E 74 30  2B 44 50 03 01 50 80 23  DP..pnt0+DP..P.#
0FB0: 5B 05 80 44 50 03 01 44  50 03 01 70 6E 74 31 2B  [..DP..DP..pnt1+
0FC0: 44 50 03 01 51 80 23 1C  01 80 52 47 80 F8 FF FF  DP..Q.#...RG....
0FD0: 7F F8 FF FF 7F 73 31 34  37 45 47 80 F8 FF FF 7F  .....s147EG.....
0FE0: F8 FF FF 7F 73 31 34 38  03 80 1C 15 80 2B 55 50  ....s148.....+UP
0FF0: 03 01 52 80 23 52 47 80  F8 FF FF 7F F8 FF FF 7F  ..R.#RG.........
1000: 73 31 34 38 45 47 80 F8  FF FF 7F F8 FF FF 7F 73  s148EG.........s
1010: 31 34 39 03 80 5B 46 80  55 50 03 01 55 50 03 01  149..[F.UP..UP..
1020: 74 68 6B 30 2B 55 50 03  01 53 80 23 1C 01 80 5B  thk0+UP..S.#...[
1030: 46 80 55 50 03 01 55 50  03 01 74 68 6B 31 1C 3F  F.UP..UP..thk1.?
1040: 80 4B 55 50 03 01 4A 80  2B 55 50 03 01 54 80 23  .KUP..J.+UP..T.#
1050: 52 47 80 F8 FF FF 7F F8  FF FF 7F 73 31 34 39 45  RG.........s149E
1060: 47 80 F8 FF FF 7F F8 FF  FF 7F 73 31 35 30 03 80  G.........s150..
1070: 5B 4C 80 55 50 03 01 55  50 03 01 74 6C 6B 30 2B  [L.UP..UP..tlk0+
1080: 55 50 03 01 55 80 23 5B  4C 80 55 50 03 01 55 50  UP..U.#[L.UP..UP
1090: 03 01 74 6C 6B 31 1C 01  80 2B 55 50 03 01 56 80  ..tlk1...+UP..V.
10A0: 23 52 47 80 F8 FF FF 7F  F8 FF FF 7F 73 31 35 30  #RG.........s150
10B0: 45 47 80 F8 FF FF 7F F8  FF FF 7F 73 31 35 31 03  EG.........s151.
10C0: 80 5B 46 80 55 50 03 01  55 50 03 01 74 68 6B 30  .[F.UP..UP..thk0
10D0: 2B 55 50 03 01 57 80 23  5B 46 80 55 50 03 01 55  +UP..W.#[F.UP..U
10E0: 50 03 01 74 68 6B 31 2B  55 50 03 01 58 80 23 5B  P..thk1+UP..X.#[
10F0: 4C 80 55 50 03 01 55 50  03 01 74 6C 6B 30 2B 55  L.UP..UP..tlk0+U
1100: 50 03 01 59 80 23 5D 03  80 22 80 1A 56 29 52 47  P..Y.#].."..V)RG
1110: 80 F8 FF FF 7F F8 FF FF  7F 73 31 35 31 5B 4C 80  .........s151[L.
1120: 55 50 03 01 55 50 03 01  74 6C 6B 31 1C 1E 80 34  UP..UP..tlk1...4
1130: 15 80 77 5A 80 1E 80 1C  1E 80 2F 00 56 50 03 01  ..wZ....../.VP..
1140: 4E 00 56 50 03 01 29 05  56 50 03 01 02 80 56 50  N.VP..).VP....VP
1150: 03 01 2F 00 57 50 03 01  4E 00 57 50 03 01 29 05  ../.WP..N.WP..).
1160: 57 50 03 01 02 80 57 50  03 01 2F 00 58 50 03 01  WP....WP../.XP..
1170: 4E 00 58 50 03 01 29 05  58 50 03 01 02 80 58 50  N.XP..).XP....XP
1180: 03 01 2F 00 59 50 03 01  4E 00 59 50 03 01 29 05  ../.YP..N.YP..).
1190: 59 50 03 01 02 80 59 50  03 01 2F 00 5A 50 03 01  YP....YP../.ZP..
11A0: 4E 00 5A 50 03 01 29 05  5A 50 03 01 02 80 5A 50  N.ZP..).ZP....ZP
11B0: 03 01 2F 00 5B 50 03 01  4E 00 5B 50 03 01 29 05  ../.[P..N.[P..).
11C0: 5B 50 03 01 02 80 5B 50  03 01 2F 00 5C 50 03 01  [P....[P../.\P..
11D0: 4E 00 5C 50 03 01 29 05  5C 50 03 01 02 80 5C 50  N.\P..).\P....\P
11E0: 03 01 4A 56 50 03 01 57  50 03 01 1C 01 80 79 00  ..JVP..WP.....y.
11F0: 56 50 03 01 5B 50 03 01  29 05 56 50 03 01 03 29  VP..[P..).VP...)
1200: 05 57 50 03 01 03 29 05  58 50 03 01 03 29 05 59  .WP...).XP...).Y
1210: 50 03 01 03 29 05 5A 50  03 01 03 29 05 5B 50 03  P...).ZP...).[P.
1220: 01 03 29 05 5C 50 03 01  03 5C 00 5B 80 5C 01 5B  ..).\P...\.[.\.[
1230: 80 9A 45 47 80 F8 FF FF  7F F8 FF FF 7F 73 31 35  ..EG.........s15
1240: 32 03 80 1C 04 80 1A 35  29 1C 15 80 2B 55 50 03  2......5)...+UP.
1250: 01 5C 80 23 1C 5D 80 52  47 80 F8 FF FF 7F F8 FF  .\.#.].RG.......
1260: FF 7F 73 31 35 32 45 47  80 F8 FF FF 7F F8 FF FF  ..s152EG........
1270: 7F 73 31 35 33 03 80 27  05 53 50 03 01 03 2B 55  .s153..'.SP...+U
1280: 50 03 01 5E 80 23 2A 05  53 50 03 01 52 47 80 F8  P..^.#*.SP..RG..
1290: FF FF 7F F8 FF FF 7F 73  31 35 33 45 47 80 F8 FF  .......s153EG...
12A0: FF 7F F8 FF FF 7F 73 31  35 34 03 80 27 05 57 50  ......s154..'.WP
12B0: 03 01 04 2B 55 50 03 01  5F 80 23 2A 05 57 50 03  ...+UP.._.#*.WP.
12C0: 01 52 47 80 F8 FF FF 7F  F8 FF FF 7F 73 31 35 34  .RG.........s154
12D0: 45 47 80 F8 FF FF 7F F8  FF FF 7F 73 31 35 35 03  EG.........s155.
12E0: 80 9F 60 80 56 50 03 01  56 50 03 01 73 74 72 30  ..`.VP..VP..str0
12F0: 03 80 27 05 56 50 03 01  04 1C 15 80 9F 60 80 56  ..'.VP.......`.V
1300: 50 03 01 56 50 03 01 73  74 6F 70 03 80 2B 55 50  P..VP..stop..+UP
1310: 03 01 61 80 23 2B 55 50  03 01 62 80 23 2A 05 56  ..a.#+UP..b.#*.V
1320: 50 03 01 5D 03 80 22 80  1A 56 29 52 47 80 F8 FF  P..].."..V)RG...
1330: FF 7F F8 FF FF 7F 73 31  35 35 5B 63 80 57 50 03  ......s155[c.WP.
1340: 01 57 50 03 01 69 66 72  31 5B 63 80 5B 50 03 01  .WP..ifr1[c.[P..
1350: 5B 50 03 01 69 66 72 31  9F 2C 80 57 50 03 01 57  [P..ifr1.,.WP..W
1360: 50 03 01 6B 69 65 30 03  80 9F 2C 80 58 50 03 01  P..kie0...,.XP..
1370: 58 50 03 01 6B 69 65 30  03 80 9F 2C 80 59 50 03  XP..kie0...,.YP.
1380: 01 59 50 03 01 6B 69 65  30 03 80 9F 2C 80 5A 50  .YP..kie0...,.ZP
1390: 03 01 5A 50 03 01 6B 69  65 30 03 80 9F 2C 80 5B  ..ZP..kie0...,.[
13A0: 50 03 01 5B 50 03 01 6B  69 65 30 03 80 9F 2C 80  P..[P..kie0...,.
13B0: 5C 50 03 01 5C 50 03 01  6B 69 65 30 03 80 4E 01  \P..\P..kie0..N.
13C0: 56 50 03 01 2F 01 56 50  03 01 4E 01 57 50 03 01  VP../.VP..N.WP..
13D0: 2F 01 57 50 03 01 4E 01  58 50 03 01 2F 01 58 50  /.WP..N.XP../.XP
13E0: 03 01 4E 01 59 50 03 01  2F 01 59 50 03 01 4E 01  ..N.YP../.YP..N.
13F0: 5A 50 03 01 2F 01 5A 50  03 01 4E 01 5B 50 03 01  ZP../.ZP..N.[P..
1400: 2F 01 5B 50 03 01 4E 01  5C 50 03 01 2F 01 5C 50  /.[P..N.\P../.\P
1410: 03 01 35 64 80 78 1C 1E  80 22 00 BB 65 80 32 50  ..5d.x..."..e.2P
1420: 03 01 32 50 03 01 00 FE  FE FE 03 80 BB 65 80 33  ..2P.........e.3
1430: 50 03 01 33 50 03 01 00  FE FE FE 03 80 BB 65 80  P..3P.........e.
1440: 44 50 03 01 44 50 03 01  00 FE FE FE 03 80 29 05  DP..DP........).
1450: 33 50 03 01 03 29 05 32  50 03 01 0A 29 05 44 50  3P...).2P...).DP
1460: 03 01 0B 80 33 50 03 01  80 32 50 03 01 80 44 50  ....3P...2P...DP
1470: 03 01 4A 33 50 03 01 55  50 03 01 4A 32 50 03 01  ..J3P..UP..J2P..
1480: 55 50 03 01 4A 44 50 03  01 55 50 03 01 1C 01 80  UP..JDP..UP.....
1490: BB 65 80 32 50 03 01 32  50 03 01 6D 61 69 6E 03  .e.2P..2P..main.
14A0: 80 80 55 50 03 01 80 F0  FF FF 7F 4A F0 FF FF 7F  ..UP.......J....
14B0: 55 50 03 01 5C 00 23 80  5C 01 23 80 9A 45 47 80  UP..\.#.\.#..EG.
14C0: F8 FF FF 7F F8 FF FF 7F  73 31 35 36 03 80 1C 04  ........s156....
14D0: 80 1A 35 29 1C 15 80 2B  55 50 03 01 66 80 23 BB  ..5)...+UP..f.#.
14E0: 65 80 33 50 03 01 33 50  03 01 6D 61 69 6E 03 80  e.3P..3P..main..
14F0: 1C 15 80 BB 65 80 44 50  03 01 44 50 03 01 6D 61  ....e.DP..DP..ma
1500: 69 6E 03 80 52 47 80 F8  FF FF 7F F8 FF FF 7F 73  in..RG.........s
1510: 31 35 36 45 47 80 F8 FF  FF 7F F8 FF FF 7F 73 31  156EG.........s1
1520: 35 37 03 80 4B 55 50 03  01 67 80 2B 55 50 03 01  57..KUP..g.+UP..
1530: 68 80 23 52 47 80 F8 FF  FF 7F F8 FF FF 7F 73 31  h.#RG.........s1
1540: 35 37 45 47 80 F8 FF FF  7F F8 FF FF 7F 73 31 35  57EG.........s15
1550: 38 03 80 4B 55 50 03 01  4A 80 1C 01 80 2B 55 50  8..KUP..J....+UP
1560: 03 01 69 80 23 2B 55 50  03 01 6A 80 23 52 47 80  ..i.#+UP..j.#RG.
1570: F8 FF FF 7F F8 FF FF 7F  73 31 35 38 45 47 80 F8  ........s158EG..
1580: FF FF 7F F8 FF FF 7F 73  31 35 39 03 80 5B 4C 80  .......s159..[L.
1590: 55 50 03 01 55 50 03 01  74 6C 6B 30 2B 55 50 03  UP..UP..tlk0+UP.
15A0: 01 6B 80 23 2B 55 50 03  01 6C 80 23 5B 4C 80 55  .k.#+UP..l.#[L.U
15B0: 50 03 01 55 50 03 01 74  6C 6B 31 2B 55 50 03 01  P..UP..tlk1+UP..
15C0: 6D 80 23 BB 65 80 33 50  03 01 33 50 03 01 6B 69  m.#.e.3P..3P..ki
15D0: 6C 6C 03 80 52 47 80 F8  FF FF 7F F8 FF FF 7F 73  ll..RG.........s
15E0: 31 35 39 45 47 80 F8 FF  FF 7F F8 FF FF 7F 73 31  159EG.........s1
15F0: 36 30 03 80 1C 15 80 2B  55 50 03 01 6E 80 23 1C  60.....+UP..n.#.
1600: 15 80 52 47 80 F8 FF FF  7F F8 FF FF 7F 73 31 36  ..RG.........s16
1610: 30 45 6F 80 F8 FF FF 7F  F8 FF FF 7F 73 32 31 30  0Eo.........s210
1620: 03 80 BB 65 80 33 50 03  01 33 50 03 01 6D 61 69  ...e.3P..3P..mai
1630: 6E 03 80 1C 70 80 BB 65  80 33 50 03 01 33 50 03  n...p..e.3P..3P.
1640: 01 6B 69 6C 6C 03 80 52  6F 80 F8 FF FF 7F F8 FF  .kill..Ro.......
1650: FF 7F 73 32 31 30 45 6F  80 F8 FF FF 7F F8 FF FF  ..s210Eo........
1660: 7F 73 32 30 39 03 80 BB  65 80 32 50 03 01 32 50  .s209...e.2P..2P
1670: 03 01 6B 69 6C 6C 03 80  BB 65 80 44 50 03 01 44  ..kill...e.DP..D
1680: 50 03 01 6B 69 6C 6C 03  80 4B 55 50 03 01 67 80  P..kill..KUP..g.
1690: 1C 01 80 5B 71 80 55 50  03 01 55 50 03 01 6B 69  ...[q.UP..UP..ki
16A0: 65 30 1C 3F 80 52 6F 80  F8 FF FF 7F F8 FF FF 7F  e0.?.Ro.........
16B0: 73 32 30 39 45 47 80 F8  FF FF 7F F8 FF FF 7F 73  s209EG.........s
16C0: 31 36 32 03 80 5B 72 80  32 50 03 01 32 50 03 01  162..[r.2P..2P..
16D0: 62 69 6B 30 1C 01 80 5B  72 80 44 50 03 01 44 50  bik0...[r.DP..DP
16E0: 03 01 62 69 6B 30 1C 01  80 5B 72 80 33 50 03 01  ..bik0...[r.3P..
16F0: 33 50 03 01 62 69 6B 30  1C 15 80 52 47 80 F8 FF  3P..bik0...RG...
1700: FF 7F F8 FF FF 7F 73 31  36 32 45 47 80 F8 FF FF  ......s162EG....
1710: 7F F8 FF FF 7F 73 31 36  31 03 80 27 03 44 50 03  .....s161..'.DP.
1720: 01 0C 1C 01 80 27 03 32  50 03 01 0B 1C 73 80 29  .....'.2P....s.)
1730: 03 33 50 03 01 04 5B 71  80 55 50 03 01 55 50 03  .3P...[q.UP..UP.
1740: 01 6B 69 65 31 2A 05 44  50 03 01 4E 01 44 50 03  .kie1*.DP..N.DP.
1750: 01 4E 01 32 50 03 01 4E  01 33 50 03 01 52 47 80  .N.2P..N.3P..RG.
1760: F8 FF FF 7F F8 FF FF 7F  73 31 36 31 45 47 80 F8  ........s161EG..
1770: FF FF 7F F8 FF FF 7F 73  31 36 33 03 80 4B 55 50  .......s163..KUP
1780: 03 01 4A 80 2B 55 50 03  01 74 80 23 52 47 80 F8  ..J.+UP..t.#RG..
1790: FF FF 7F F8 FF FF 7F 73  31 36 33 45 47 80 F8 FF  .......s163EG...
17A0: FF 7F F8 FF FF 7F 73 31  36 34 03 80 5B 4C 80 55  ......s164..[L.U
17B0: 50 03 01 55 50 03 01 74  6C 6B 30 2B 55 50 03 01  P..UP..tlk0+UP..
17C0: 75 80 23 5B 4C 80 55 50  03 01 55 50 03 01 74 6C  u.#[L.UP..UP..tl
17D0: 6B 31 2B 55 50 03 01 76  80 23 5B 48 80 55 50 03  k1+UP..v.#[H.UP.
17E0: 01 55 50 03 01 67 61 70  30 2B 55 50 03 01 77 80  .UP..gap0+UP..w.
17F0: 23 52 47 80 F8 FF FF 7F  F8 FF FF 7F 73 31 36 34  #RG.........s164
1800: 45 47 80 F8 FF FF 7F F8  FF FF 7F 73 31 36 35 03  EG.........s165.
1810: 80 27 05 55 50 03 01 0A  2B 55 50 03 01 78 80 23  .'.UP...+UP..x.#
1820: 2A 05 55 50 03 01 4A 55  50 03 01 F0 FF FF 7F 2B  *.UP..JUP......+
1830: 55 50 03 01 79 80 23 52  47 80 F8 FF FF 7F F8 FF  UP..y.#RG.......
1840: FF 7F 73 31 36 35 45 47  80 F8 FF FF 7F F8 FF FF  ..s165EG........
1850: 7F 73 31 36 37 03 80 5B  46 80 55 50 03 01 55 50  .s167..[F.UP..UP
1860: 03 01 73 68 61 30 2B 55  50 03 01 7A 80 23 1C 3F  ..sha0+UP..z.#.?
1870: 80 52 47 80 F8 FF FF 7F  F8 FF FF 7F 73 31 36 37  .RG.........s167
1880: 45 47 80 F8 FF FF 7F F8  FF FF 7F 73 31 36 36 03  EG.........s166.
1890: 80 27 10 55 50 03 01 0B  9F 7B 80 55 50 03 01 55  .'.UP....{.UP..U
18A0: 50 03 01 6D 61 69 6E 03  80 2A 05 55 50 03 01 1C  P..main..*.UP...
18B0: 15 80 1A 56 29 1C 01 80  52 47 80 F8 FF FF 7F F8  ...V)...RG......
18C0: FF FF 7F 73 31 36 36 5B  46 80 55 50 03 01 55 50  ...s166[F.UP..UP
18D0: 03 01 73 68 61 31 4E 01  55 50 03 01 46 00 45 12  ..sha1N.UP..F.E.
18E0: 80 F0 FF FF 7F F0 FF FF  7F 66 64 69 32 03 80 21  .........fdi2..!
18F0: 00                                                .               
```

#### Opcodes

```
  0: 0x0D71 [0x42] SET_CLI_EVENT_CANCEL_DATA()
  1: 0x0D72 [0x02] IF !(Work_Zone[9] == 0*) GOTO 0x0D7F
  2: 0x0D7A [0x5D] SET_MUSIC_VOLUME(volume=0*, fade_time=120*)
  3: 0x0D7F [0x1A] CALL_SUBROUTINE(address=0x2956)
  4: 0x0D82 [0x46] CAMERA_CONTROL: Disable user control
  5: 0x0D84 [0x38] SET_CLIENT_EVENT_MODE(mode=19*)
  6: 0x0D87 [0x79] LocalPlayer looks at LocalPlayer (Basic look)
  7: 0x0D91 [0x4E] SET_ENTITY_HIDE_FLAG: Show LocalPlayer
  8: 0x0D97 [0x92] Gessho (ID: 16994389/0x01035055)->Render.Flags3 ^= 0x01
  9: 0x0D9D [0x92] Pyopyoroon (ID: 16994372/0x01035044)->Render.Flags3 ^= 0x01
 10: 0x0DA3 [0x92] Zazaroon (ID: 16994355/0x01035033)->Render.Flags3 ^= 0x01
 11: 0x0DA9 [0x92] Buburoon (ID: 16994354/0x01035032)->Render.Flags3 ^= 0x01
 12: 0x0DAF [0x92] Chuchuroon (ID: 16994361/0x01035039)->Render.Flags3 ^= 0x01
 13: 0x0DB5 [0x92] Totoroon (ID: 16994384/0x01035050)->Render.Flags3 ^= 0x01
 14: 0x0DBB [0x92] Belligerent Sheep (ID: 16994323/0x01035013)->Render.Flags3 ^= 0x01
 15: 0x0DC1 [0x94] LocalPlayer->Render.Flags3 ^= 0x01
 16: 0x0DC7 [0x94] Gessho (ID: 16994389/0x01035055)->Render.Flags3 ^= 0x01
 17: 0x0DCD [0x94] Pyopyoroon (ID: 16994372/0x01035044)->Render.Flags3 ^= 0x01
 18: 0x0DD3 [0x29] REQ_SET_WAIT(priority=0x10, entity_id=LocalPlayer, tag_num=0x0F)
 19: 0x0DDA [0x80] LOAD_WAIT(entity=LocalPlayer)
 20: 0x0DDF [0x1C] WAIT(15* ticks)
 21: 0x0DE2 [0x2C] CREATE_SCHEDULER_TASK: Create scheduler "corp" with entities [LocalPlayer, LocalPlayer]
 22: 0x0DEF [0x4A] Zazaroon (ID: 16994355/0x01035033) looks at LocalPlayer
 23: 0x0DF8 [0x4E] SET_ENTITY_HIDE_FLAG: Show Gessho (ID: 16994389/0x01035055)
 24: 0x0DFE [0x29] REQ_SET_WAIT(priority=0x10, entity_id=Gessho (ID: 16994389/0x01035055), tag_num=0x09)
 25: 0x0E05 [0x80] LOAD_WAIT(entity=Gessho (ID: 16994389/0x01035055))
 26: 0x0E0A [0x1C] WAIT(60* ticks)
 27: 0x0E0D [0x5B] LOAD_EXT_SCHEDULER: Load scheduler "sha0" with entities [Gessho (ID: 16994389/0x01035055), Gessho (ID: 16994389/0x01035055)], work=254*
 28: 0x0E1C [0x1C] WAIT(30* ticks)
 29: 0x0E1F [0x29] REQ_SET_WAIT(priority=0x10, entity_id=Chuchuroon (ID: 16994361/0x01035039), tag_num=0x03)
 30: 0x0E26 [0x80] LOAD_WAIT(entity=Chuchuroon (ID: 16994361/0x01035039))
 31: 0x0E2B [0x4A] Chuchuroon (ID: 16994361/0x01035039) looks at Gessho (ID: 16994389/0x01035055)
 32: 0x0E34 [0x4A] Buburoon (ID: 16994354/0x01035032) looks at Gessho (ID: 16994389/0x01035055)
 33: 0x0E3D [0x29] REQ_SET_WAIT(priority=0x10, entity_id=Pyopyoroon (ID: 16994372/0x01035044), tag_num=0x0A)
 34: 0x0E44 [0x80] LOAD_WAIT(entity=Pyopyoroon (ID: 16994372/0x01035044))
 35: 0x0E49 [0x4A] Pyopyoroon (ID: 16994372/0x01035044) looks at Gessho (ID: 16994389/0x01035055)
 36: 0x0E52 [0x02] IF !(Work_Zone[9] == 0*) GOTO 0x0E63
 37: 0x0E5A [0x5C] MUSIC_CONTROL: Set Idle (Day) music to song 175*
 38: 0x0E5E [0x5C] MUSIC_CONTROL: Set Idle (Night) music to song 175*
 39: 0x0E62 [0x9A] WAIT_MUSIC_SERVER()
 40: 0x0E63 [0x45] LOAD_SCHEDULED_TASK: Load scheduler "s144" with entities [EventEntity, EventEntity], work=[198*, 0*]
 41: 0x0E74 [0x1C] WAIT(15* ticks)
 42: 0x0E77 [0x1A] CALL_SUBROUTINE(address=0x2935)
 43: 0x0E7A [0x1C] WAIT(60* ticks)
 44: 0x0E7D [0x5B] LOAD_EXT_SCHEDULER: Load scheduler "ho00" with entities [Gessho (ID: 16994389/0x01035055), Gessho (ID: 16994389/0x01035055)], work=855*
 45: 0x0E8C [0x2B] Gessho (ID: 16994389/0x01035055) [10746*]:
    → "Nashmau...?"
 46: 0x0E93 [0x23] WAIT_FOR_DIALOG_INTERACTION
 47: 0x0E94 [0x5B] LOAD_EXT_SCHEDULER: Load scheduler "sha1" with entities [Gessho (ID: 16994389/0x01035055), Gessho (ID: 16994389/0x01035055)], work=254*
 48: 0x0EA3 [0x1C] WAIT(120* ticks)
 49: 0x0EA6 [0x52] END_LOAD_SCHEDULER: End scheduler "s144" with entities [EventEntity, EventEntity], work=198*
 50: 0x0EB5 [0x45] LOAD_SCHEDULED_TASK: Load scheduler "s145" with entities [EventEntity, EventEntity], work=[198*, 0*]
 51: 0x0EC6 [0x4B] UPDATE_ENTITY_YAW(entity=Gessho (ID: 16994389/0x01035055), yaw=22.5°*)
 52: 0x0ECD [0x2B] Gessho (ID: 16994389/0x01035055) [10747*]:
    → "!!!"
 53: 0x0ED4 [0x23] WAIT_FOR_DIALOG_INTERACTION
 54: 0x0ED5 [0x5B] LOAD_EXT_SCHEDULER: Load scheduler "tlk0" with entities [Gessho (ID: 16994389/0x01035055), Gessho (ID: 16994389/0x01035055)], work=792*
 55: 0x0EE4 [0x2B] Gessho (ID: 16994389/0x01035055) [10748*]:
    → "<Player>!"
 56: 0x0EEB [0x23] WAIT_FOR_DIALOG_INTERACTION
 57: 0x0EEC [0x1A] CALL_SUBROUTINE(address=0x2956)
 58: 0x0EEF [0x52] END_LOAD_SCHEDULER: End scheduler "s145" with entities [EventEntity, EventEntity], work=198*
 59: 0x0EFE [0x29] REQ_SET_WAIT(priority=0x05, entity_id=LocalPlayer, tag_num=0x1B)
 60: 0x0F05 [0x45] LOAD_SCHEDULED_TASK: Load scheduler "s146" with entities [EventEntity, EventEntity], work=[198*, 0*]
 61: 0x0F16 [0x1C] WAIT(15* ticks)
 62: 0x0F19 [0x1A] CALL_SUBROUTINE(address=0x2935)
 63: 0x0F1C [0x27] REQ_SET(priority=0x05, entity_id=LocalPlayer, tag_num=0x1C)
 64: 0x0F23 [0x1C] WAIT(30* ticks)
 65: 0x0F26 [0x5B] LOAD_EXT_SCHEDULER: Load scheduler "tlk1" with entities [Gessho (ID: 16994389/0x01035055), Gessho (ID: 16994389/0x01035055)], work=792*
 66: 0x0F35 [0x1C] WAIT(30* ticks)
 67: 0x0F38 [0x4A] LocalPlayer looks at Gessho (ID: 16994389/0x01035055)
 68: 0x0F41 [0x5B] LOAD_EXT_SCHEDULER: Load scheduler "ang0" with entities [Pyopyoroon (ID: 16994372/0x01035044), Pyopyoroon (ID: 16994372/0x01035044)], work=843*
 69: 0x0F50 [0x2B] Pyopyoroon (ID: 16994372/0x01035044) [10749*]:
    → "Pyopyo-pyorooon!"
 70: 0x0F57 [0x23] WAIT_FOR_DIALOG_INTERACTION
 71: 0x0F58 [0x1C] WAIT(30* ticks)
 72: 0x0F5B [0x52] END_LOAD_SCHEDULER: End scheduler "s146" with entities [EventEntity, EventEntity], work=198*
 73: 0x0F6A [0x45] LOAD_SCHEDULED_TASK: Load scheduler "s147" with entities [EventEntity, EventEntity], work=[198*, 0*]
 74: 0x0F7B [0x4B] UPDATE_ENTITY_YAW(entity=Gessho (ID: 16994389/0x01035055), yaw=5.0°*)
 75: 0x0F82 [0x29] REQ_SET_WAIT(priority=0x10, entity_id=LocalPlayer, tag_num=0x16)
 76: 0x0F89 [0x1C] WAIT(30* ticks)
 77: 0x0F8C [0x53] WAIT_SCHEDULER_TASK: Wait for scheduler "pnt0" with entities [Pyopyoroon (ID: 16994372/0x01035044), Pyopyoroon (ID: 16994372/0x01035044)]
 78: 0x0F99 [0x5B] LOAD_EXT_SCHEDULER: Load scheduler "pnt0" with entities [Pyopyoroon (ID: 16994372/0x01035044), Pyopyoroon (ID: 16994372/0x01035044)], work=843*
 79: 0x0FA8 [0x2B] Pyopyoroon (ID: 16994372/0x01035044) [10750*]:
    → "It's the ghooost hunter!"
 80: 0x0FAF [0x23] WAIT_FOR_DIALOG_INTERACTION
 81: 0x0FB0 [0x5B] LOAD_EXT_SCHEDULER: Load scheduler "pnt1" with entities [Pyopyoroon (ID: 16994372/0x01035044), Pyopyoroon (ID: 16994372/0x01035044)], work=843*
 82: 0x0FBF [0x2B] Pyopyoroon (ID: 16994372/0x01035044) [10751*]:
    → "Yooo jump from ghooost ship! Pyopyoroon not believing eyes!"
 83: 0x0FC6 [0x23] WAIT_FOR_DIALOG_INTERACTION
 84: 0x0FC7 [0x1C] WAIT(30* ticks)
 85: 0x0FCA [0x52] END_LOAD_SCHEDULER: End scheduler "s147" with entities [EventEntity, EventEntity], work=198*
 86: 0x0FD9 [0x45] LOAD_SCHEDULED_TASK: Load scheduler "s148" with entities [EventEntity, EventEntity], work=[198*, 0*]
 87: 0x0FEA [0x1C] WAIT(60* ticks)
 88: 0x0FED [0x2B] Gessho (ID: 16994389/0x01035055) [10752*]:
    → "Our efforts seem in vain. The Ashu Talif and her crew still haunts these seas..."
 89: 0x0FF4 [0x23] WAIT_FOR_DIALOG_INTERACTION
 90: 0x0FF5 [0x52] END_LOAD_SCHEDULER: End scheduler "s148" with entities [EventEntity, EventEntity], work=198*
 91: 0x1004 [0x45] LOAD_SCHEDULED_TASK: Load scheduler "s149" with entities [EventEntity, EventEntity], work=[198*, 0*]
 92: 0x1015 [0x5B] LOAD_EXT_SCHEDULER: Load scheduler "thk0" with entities [Gessho (ID: 16994389/0x01035055), Gessho (ID: 16994389/0x01035055)], work=254*
 93: 0x1024 [0x2B] Gessho (ID: 16994389/0x01035055) [10753*]:
    → "That captain... The strange aura he conceals..."
 94: 0x102B [0x23] WAIT_FOR_DIALOG_INTERACTION
 95: 0x102C [0x1C] WAIT(30* ticks)
 96: 0x102F [0x5B] LOAD_EXT_SCHEDULER: Load scheduler "thk1" with entities [Gessho (ID: 16994389/0x01035055), Gessho (ID: 16994389/0x01035055)], work=254*
 97: 0x103E [0x1C] WAIT(90* ticks)
 98: 0x1041 [0x4B] UPDATE_ENTITY_YAW(entity=Gessho (ID: 16994389/0x01035055), yaw=22.5°*)
 99: 0x1048 [0x2B] Gessho (ID: 16994389/0x01035055) [10754*]:
    → "No, I am most likely thinking too much."
100: 0x104F [0x23] WAIT_FOR_DIALOG_INTERACTION
101: 0x1050 [0x52] END_LOAD_SCHEDULER: End scheduler "s149" with entities [EventEntity, EventEntity], work=198*
102: 0x105F [0x45] LOAD_SCHEDULED_TASK: Load scheduler "s150" with entities [EventEntity, EventEntity], work=[198*, 0*]
103: 0x1070 [0x5B] LOAD_EXT_SCHEDULER: Load scheduler "tlk0" with entities [Gessho (ID: 16994389/0x01035055), Gessho (ID: 16994389/0x01035055)], work=792*
104: 0x107F [0x2B] Gessho (ID: 16994389/0x01035055) [10755*]:
    → "And I have yet to report to you the information I have discovered about that vessel."
105: 0x1086 [0x23] WAIT_FOR_DIALOG_INTERACTION
106: 0x1087 [0x5B] LOAD_EXT_SCHEDULER: Load scheduler "tlk1" with entities [Gessho (ID: 16994389/0x01035055), Gessho (ID: 16994389/0x01035055)], work=792*
107: 0x1096 [0x1C] WAIT(30* ticks)
108: 0x1099 [0x2B] Gessho (ID: 16994389/0x01035055) [10756*]:
    → "If the rumors are true, the ship we boarded is known as the "Black Coffin.""
109: 0x10A0 [0x23] WAIT_FOR_DIALOG_INTERACTION
110: 0x10A1 [0x52] END_LOAD_SCHEDULER: End scheduler "s150" with entities [EventEntity, EventEntity], work=198*
111: 0x10B0 [0x45] LOAD_SCHEDULED_TASK: Load scheduler "s151" with entities [EventEntity, EventEntity], work=[198*, 0*]
112: 0x10C1 [0x5B] LOAD_EXT_SCHEDULER: Load scheduler "thk0" with entities [Gessho (ID: 16994389/0x01035055), Gessho (ID: 16994389/0x01035055)], work=254*
113: 0x10D0 [0x2B] Gessho (ID: 16994389/0x01035055) [10757*]:
    → "However, according to the history books, the Black Coffin was meant to have sunk almost two hundred years ago..."
114: 0x10D7 [0x23] WAIT_FOR_DIALOG_INTERACTION
115: 0x10D8 [0x5B] LOAD_EXT_SCHEDULER: Load scheduler "thk1" with entities [Gessho (ID: 16994389/0x01035055), Gessho (ID: 16994389/0x01035055)], work=254*
116: 0x10E7 [0x2B] Gessho (ID: 16994389/0x01035055) [10758*]:
    → "At the time, she was crewed by the rebels of Ephramad."
117: 0x10EE [0x23] WAIT_FOR_DIALOG_INTERACTION
118: 0x10EF [0x5B] LOAD_EXT_SCHEDULER: Load scheduler "tlk0" with entities [Gessho (ID: 16994389/0x01035055), Gessho (ID: 16994389/0x01035055)], work=792*
119: 0x10FE [0x2B] Gessho (ID: 16994389/0x01035055) [10759*]:
    → "Also known as "corsairs.""
120: 0x1105 [0x23] WAIT_FOR_DIALOG_INTERACTION
121: 0x1106 [0x5D] SET_MUSIC_VOLUME(volume=0*, fade_time=120*)
122: 0x110B [0x1A] CALL_SUBROUTINE(address=0x2956)
123: 0x110E [0x52] END_LOAD_SCHEDULER: End scheduler "s151" with entities [EventEntity, EventEntity], work=198*
124: 0x111D [0x5B] LOAD_EXT_SCHEDULER: Load scheduler "tlk1" with entities [Gessho (ID: 16994389/0x01035055), Gessho (ID: 16994389/0x01035055)], work=792*
125: 0x112C [0x1C] WAIT(1* ticks)
126: 0x112F [0x34] LOAD_UNLOAD_ZONE(zone_id=60*)
127: 0x1132 [0x77] SET_EVENT_TIME_WEATHER(hour=9*, weather=1*)
128: 0x1137 [0x1C] WAIT(1* ticks)
129: 0x113A [0x2F] Unnamed NPC (ID: 16994390/0x01035056)->Render.Flags0 &= ~0x80000 // Bit 19
130: 0x1140 [0x4E] SET_ENTITY_HIDE_FLAG: Show Unnamed NPC (ID: 16994390/0x01035056)
131: 0x1146 [0x29] REQ_SET_WAIT(priority=0x05, entity_id=Unnamed NPC (ID: 16994390/0x01035056), tag_num=0x02)
132: 0x114D [0x80] LOAD_WAIT(entity=Unnamed NPC (ID: 16994390/0x01035056))
133: 0x1152 [0x2F] Unnamed NPC (ID: 16994391/0x01035057)->Render.Flags0 &= ~0x80000 // Bit 19
134: 0x1158 [0x4E] SET_ENTITY_HIDE_FLAG: Show Unnamed NPC (ID: 16994391/0x01035057)
135: 0x115E [0x29] REQ_SET_WAIT(priority=0x05, entity_id=Unnamed NPC (ID: 16994391/0x01035057), tag_num=0x02)
136: 0x1165 [0x80] LOAD_WAIT(entity=Unnamed NPC (ID: 16994391/0x01035057))
137: 0x116A [0x2F] Unnamed NPC (ID: 16994392/0x01035058)->Render.Flags0 &= ~0x80000 // Bit 19
138: 0x1170 [0x4E] SET_ENTITY_HIDE_FLAG: Show Unnamed NPC (ID: 16994392/0x01035058)
139: 0x1176 [0x29] REQ_SET_WAIT(priority=0x05, entity_id=Unnamed NPC (ID: 16994392/0x01035058), tag_num=0x02)
140: 0x117D [0x80] LOAD_WAIT(entity=Unnamed NPC (ID: 16994392/0x01035058))
141: 0x1182 [0x2F] Unnamed NPC (ID: 16994393/0x01035059)->Render.Flags0 &= ~0x80000 // Bit 19
142: 0x1188 [0x4E] SET_ENTITY_HIDE_FLAG: Show Unnamed NPC (ID: 16994393/0x01035059)
143: 0x118E [0x29] REQ_SET_WAIT(priority=0x05, entity_id=Unnamed NPC (ID: 16994393/0x01035059), tag_num=0x02)
144: 0x1195 [0x80] LOAD_WAIT(entity=Unnamed NPC (ID: 16994393/0x01035059))
145: 0x119A [0x2F] Unnamed NPC (ID: 16994394/0x0103505A)->Render.Flags0 &= ~0x80000 // Bit 19
146: 0x11A0 [0x4E] SET_ENTITY_HIDE_FLAG: Show Unnamed NPC (ID: 16994394/0x0103505A)
147: 0x11A6 [0x29] REQ_SET_WAIT(priority=0x05, entity_id=Unnamed NPC (ID: 16994394/0x0103505A), tag_num=0x02)
148: 0x11AD [0x80] LOAD_WAIT(entity=Unnamed NPC (ID: 16994394/0x0103505A))
149: 0x11B2 [0x2F] Unnamed NPC (ID: 16994395/0x0103505B)->Render.Flags0 &= ~0x80000 // Bit 19
150: 0x11B8 [0x4E] SET_ENTITY_HIDE_FLAG: Show Unnamed NPC (ID: 16994395/0x0103505B)
151: 0x11BE [0x29] REQ_SET_WAIT(priority=0x05, entity_id=Unnamed NPC (ID: 16994395/0x0103505B), tag_num=0x02)
152: 0x11C5 [0x80] LOAD_WAIT(entity=Unnamed NPC (ID: 16994395/0x0103505B))
153: 0x11CA [0x2F] Unnamed NPC (ID: 16994396/0x0103505C)->Render.Flags0 &= ~0x80000 // Bit 19
154: 0x11D0 [0x4E] SET_ENTITY_HIDE_FLAG: Show Unnamed NPC (ID: 16994396/0x0103505C)
155: 0x11D6 [0x29] REQ_SET_WAIT(priority=0x05, entity_id=Unnamed NPC (ID: 16994396/0x0103505C), tag_num=0x02)
156: 0x11DD [0x80] LOAD_WAIT(entity=Unnamed NPC (ID: 16994396/0x0103505C))
157: 0x11E2 [0x4A] Unnamed NPC (ID: 16994390/0x01035056) looks at Unnamed NPC (ID: 16994391/0x01035057)
158: 0x11EB [0x1C] WAIT(30* ticks)
159: 0x11EE [0x79] Unnamed NPC (ID: 16994390/0x01035056) looks at Unnamed NPC (ID: 16994395/0x0103505B) (Basic look)
160: 0x11F8 [0x29] REQ_SET_WAIT(priority=0x05, entity_id=Unnamed NPC (ID: 16994390/0x01035056), tag_num=0x03)
161: 0x11FF [0x29] REQ_SET_WAIT(priority=0x05, entity_id=Unnamed NPC (ID: 16994391/0x01035057), tag_num=0x03)
162: 0x1206 [0x29] REQ_SET_WAIT(priority=0x05, entity_id=Unnamed NPC (ID: 16994392/0x01035058), tag_num=0x03)
163: 0x120D [0x29] REQ_SET_WAIT(priority=0x05, entity_id=Unnamed NPC (ID: 16994393/0x01035059), tag_num=0x03)
164: 0x1214 [0x29] REQ_SET_WAIT(priority=0x05, entity_id=Unnamed NPC (ID: 16994394/0x0103505A), tag_num=0x03)
165: 0x121B [0x29] REQ_SET_WAIT(priority=0x05, entity_id=Unnamed NPC (ID: 16994395/0x0103505B), tag_num=0x03)
166: 0x1222 [0x29] REQ_SET_WAIT(priority=0x05, entity_id=Unnamed NPC (ID: 16994396/0x0103505C), tag_num=0x03)
167: 0x1229 [0x5C] MUSIC_CONTROL: Set Idle (Day) music to song 184*
168: 0x122D [0x5C] MUSIC_CONTROL: Set Idle (Night) music to song 184*
169: 0x1231 [0x9A] WAIT_MUSIC_SERVER()
170: 0x1232 [0x45] LOAD_SCHEDULED_TASK: Load scheduler "s152" with entities [EventEntity, EventEntity], work=[198*, 0*]
171: 0x1243 [0x1C] WAIT(15* ticks)
172: 0x1246 [0x1A] CALL_SUBROUTINE(address=0x2935)
173: 0x1249 [0x1C] WAIT(60* ticks)
174: 0x124C [0x2B] Gessho (ID: 16994389/0x01035055) [10760*]:
    → "This word basically means "pirate." But the corsairs were far more than simple brigands."
175: 0x1253 [0x23] WAIT_FOR_DIALOG_INTERACTION
176: 0x1254 [0x1C] WAIT(300* ticks)
177: 0x1257 [0x52] END_LOAD_SCHEDULER: End scheduler "s152" with entities [EventEntity, EventEntity], work=198*
178: 0x1266 [0x45] LOAD_SCHEDULED_TASK: Load scheduler "s153" with entities [EventEntity, EventEntity], work=[198*, 0*]
179: 0x1277 [0x27] REQ_SET(priority=0x05, entity_id=Unnamed NPC (ID: 16994387/0x01035053), tag_num=0x03)
180: 0x127E [0x2B] Gessho (ID: 16994389/0x01035055) [10761*]:
    → "They were the heroes of a lost kingdom, clashing valiantly against the vast might of the Empire in a bid to reclaim their nation."
181: 0x1285 [0x23] WAIT_FOR_DIALOG_INTERACTION
182: 0x1286 [0x2A] GET_REQ_LEVEL(level=5, entity_id=Unnamed NPC (ID: 16994387/0x01035053))
183: 0x128C [0x52] END_LOAD_SCHEDULER: End scheduler "s153" with entities [EventEntity, EventEntity], work=198*
184: 0x129B [0x45] LOAD_SCHEDULED_TASK: Load scheduler "s154" with entities [EventEntity, EventEntity], work=[198*, 0*]
