# 16994405 - Yoyoroon

## Common Data

| Field            | Value            |
|------------------|------------------|
| Zone             | Nashmau (ID: 53) |
| Block Size       | 864 bytes        |
| Total Events     | 30               |
| References Count | 48               |

## List of Events

| Event ID                   | Entrypoint   |   Size |   Instructions |
|----------------------------|--------------|--------|----------------|
| [65535](#event-65535)      | 0x0000       |      1 |              1 |
| [65535.1](#event-655351)   | 0x0001       |      1 |              1 |
| [65535.2](#event-655352)   | 0x0002       |     18 |              4 |
| [65535.3](#event-655353)   | 0x0014       |     10 |              2 |
| [65535.4](#event-655354)   | 0x001E       |      9 |              3 |
| [65535.5](#event-655355)   | 0x0027       |      9 |              3 |
| [65535.6](#event-655356)   | 0x0030       |     10 |              2 |
| [65535.7](#event-655357)   | 0x003A       |     10 |              2 |
| [318](#event-318)          | 0x0044       |      1 |              1 |
| [319](#event-319)          | 0x0045       |      1 |              1 |
| [320](#event-320)          | 0x0046       |      1 |              1 |
| [321](#event-321)          | 0x0047       |      1 |              1 |
| [322](#event-322)          | 0x0048       |      1 |              1 |
| [323](#event-323)          | 0x0049       |      1 |              1 |
| [326](#event-326)          | 0x004A       |      1 |              1 |
| [327](#event-327)          | 0x004B       |      1 |              1 |
| [324](#event-324)          | 0x004C       |      1 |              1 |
| [65535.8](#event-655358)   | 0x004D       |     28 |              8 |
| [65535.9](#event-655359)   | 0x0069       |     15 |              5 |
| [65535.10](#event-6553510) | 0x0078       |     48 |             10 |
| [65535.11](#event-6553511) | 0x00A8       |     39 |              9 |
| [65535.12](#event-6553512) | 0x00CF       |     32 |              8 |
| [65535.13](#event-6553513) | 0x00EF       |     67 |             11 |
| [65535.14](#event-6553514) | 0x0132       |     38 |              8 |
| [65535.15](#event-6553515) | 0x0158       |     66 |              7 |
| [65535.16](#event-6553516) | 0x019A       |     15 |              5 |
| [65535.17](#event-6553517) | 0x01A9       |     26 |              8 |
| [65535.18](#event-6553518) | 0x01C3       |     56 |             14 |
| [65535.19](#event-6553519) | 0x01FB       |     15 |              5 |
| [65535.20](#event-6553520) | 0x020A       |     14 |              4 |

## DAT References (imed_data)

|   Index | Hex Value   |   Dec Value |
|---------|-------------|-------------|
|       0 | 0x0000      |           0 |
|       1 | 0x0001      |           1 |
|       2 | 0x0080      |         128 |
|       3 | 0x000D      |          13 |
|       4 | 0xFFFFC42A  |  4294951978 |
|       5 | 0x11819     |       71705 |
|       6 | 0xFFFFE890  |  4294961296 |
|       7 | 0x0E10      |        3600 |
|       8 | 0x000E      |          14 |
|       9 | 0xFFFFC8E2  |  4294953186 |
|      10 | 0x10DBC     |       69052 |
|      11 | 0x034B      |         843 |
|      12 | 0x00A0      |         160 |
|      13 | 0x0028      |          40 |
|      14 | 0xFFFFCA38  |  4294953528 |
|      15 | 0x10848     |       67656 |
|      16 | 0xFFFFC846  |  4294953030 |
|      17 | 0x101BD     |       65981 |
|      18 | 0x001E      |          30 |
|      19 | 0x0FA0      |        4000 |
|      20 | 0xFFFFF3C6  |  4294964166 |
|      21 | 0x106B9     |       67257 |
|      22 | 0xFFFFE5F5  |  4294960629 |
|      23 | 0xFFFFCA44  |  4294953540 |
|      24 | 0x10496     |       66710 |
|      25 | 0x0027      |          39 |
|      26 | 0xFFFFEB4C  |  4294961996 |
|      27 | 0x108E0     |       67808 |
|      28 | 0x034A      |         842 |
|      29 | 0x000B      |          11 |
|      30 | 0xFFFFC07C  |  4294951036 |
|      31 | 0x10CB2     |       68786 |
|      32 | 0xFFFFE891  |  4294961297 |
|      33 | 0xFFFFC336  |  4294951734 |
|      34 | 0x10C5E     |       68702 |
|      35 | 0x002C      |          44 |
|      36 | 0xFFFFC881  |  4294953089 |
|      37 | 0x118A3     |       71843 |
|      38 | 0xFFFFCB04  |  4294953732 |
|      39 | 0x10ADD     |       68317 |
|      40 | 0xFFFFE146  |  4294959430 |
|      41 | 0x109BF     |       68031 |
|      42 | 0xFFFFE2BB  |  4294959803 |
|      43 | 0x10F1D     |       69405 |
|      44 | 0xFFFFC8EF  |  4294953199 |
|      45 | 0x109FE     |       68094 |
|      46 | 0xFFFFC939  |  4294953273 |
|      47 | 0x119E0     |       72160 |

## Events

### Event 65535

#### Metadata

| Field        | Value   |
|--------------|---------|
| Entrypoint   | 0x0000  |
| Data Size    | 1 bytes |
| Instructions | 1       |

```
      00 01 02 03 04 05 06 07  08 09 0A 0B 0C 0D 0E 0F
      -- -- -- -- -- -- -- --  -- -- -- -- -- -- -- --
0000: 00                                                .               
```

#### Opcodes

```
  0: 0x0000 [0x00] END_REQSTACK()
```

### Event 65535.1

#### Metadata

| Field        | Value   |
|--------------|---------|
| Entrypoint   | 0x0001  |
| Data Size    | 1 bytes |
| Instructions | 1       |

```
      00 01 02 03 04 05 06 07  08 09 0A 0B 0C 0D 0E 0F
      -- -- -- -- -- -- -- --  -- -- -- -- -- -- -- --
0000:    00                                              .              
```

#### Opcodes

```
  0: 0x0001 [0x00] END_REQSTACK()
```

### Event 65535.2

#### Metadata

| Field        | Value    |
|--------------|----------|
| Entrypoint   | 0x0002   |
| Data Size    | 18 bytes |
| Instructions | 4        |

```
      00 01 02 03 04 05 06 07  08 09 0A 0B 0C 0D 0E 0F
      -- -- -- -- -- -- -- --  -- -- -- -- -- -- -- --
0000:       22 00 2F 00 F8 FF  FF 7F 6C F8 FF FF 7F 00    "./.....l.....
0010: 80 01 80 00                                       ....            
```

#### Opcodes

```
  0: 0x0002 [0x22] ENTITY_HIDE_FLAG(enabled=0x00)
  1: 0x0004 [0x2F] EventEntity->Render.Flags0 &= ~0x80000 // Bit 19
  2: 0x000A [0x6C] FADE_ENTITY_COLOR(entity_id=EventEntity, end_alpha=0*, fade_time=1*)
  3: 0x0013 [0x00] END_REQSTACK()
```

### Event 65535.3

#### Metadata

| Field        | Value    |
|--------------|----------|
| Entrypoint   | 0x0014   |
| Data Size    | 10 bytes |
| Instructions | 2        |

```
      00 01 02 03 04 05 06 07  08 09 0A 0B 0C 0D 0E 0F
      -- -- -- -- -- -- -- --  -- -- -- -- -- -- -- --
0010:             6C F8 FF FF  7F 02 80 01 80 00            l.........  
```

#### Opcodes

```
  0: 0x0014 [0x6C] FADE_ENTITY_COLOR(entity_id=EventEntity, end_alpha=128*, fade_time=1*)
  1: 0x001D [0x00] END_REQSTACK()
```

### Event 65535.4

#### Metadata

| Field        | Value   |
|--------------|---------|
| Entrypoint   | 0x001E  |
| Data Size    | 9 bytes |
| Instructions | 3       |

```
      00 01 02 03 04 05 06 07  08 09 0A 0B 0C 0D 0E 0F
      -- -- -- -- -- -- -- --  -- -- -- -- -- -- -- --
0010:                                            22 00                ".
0020: 2F 00 F8 FF FF 7F 00                              /......         
```

#### Opcodes

```
  0: 0x001E [0x22] ENTITY_HIDE_FLAG(enabled=0x00)
  1: 0x0020 [0x2F] EventEntity->Render.Flags0 &= ~0x80000 // Bit 19
  2: 0x0026 [0x00] END_REQSTACK()
```

### Event 65535.5

#### Metadata

| Field        | Value   |
|--------------|---------|
| Entrypoint   | 0x0027  |
| Data Size    | 9 bytes |
| Instructions | 3       |

```
      00 01 02 03 04 05 06 07  08 09 0A 0B 0C 0D 0E 0F
      -- -- -- -- -- -- -- --  -- -- -- -- -- -- -- --
0020:                      22  01 2F 01 F8 FF FF 7F 00         "./......
```

#### Opcodes

```
  0: 0x0027 [0x22] ENTITY_HIDE_FLAG(enabled=0x01)
  1: 0x0029 [0x2F] EventEntity->Render.Flags0 |= 0x80000 // Bit 19
  2: 0x002F [0x00] END_REQSTACK()
```

### Event 65535.6

#### Metadata

| Field        | Value    |
|--------------|----------|
| Entrypoint   | 0x0030   |
| Data Size    | 10 bytes |
| Instructions | 2        |

```
      00 01 02 03 04 05 06 07  08 09 0A 0B 0C 0D 0E 0F
      -- -- -- -- -- -- -- --  -- -- -- -- -- -- -- --
0030: 6C F8 FF FF 7F 00 80 01  80 00                    l.........      
```

#### Opcodes

```
  0: 0x0030 [0x6C] FADE_ENTITY_COLOR(entity_id=EventEntity, end_alpha=0*, fade_time=1*)
  1: 0x0039 [0x00] END_REQSTACK()
```

### Event 65535.7

#### Metadata

| Field        | Value    |
|--------------|----------|
| Entrypoint   | 0x003A   |
| Data Size    | 10 bytes |
| Instructions | 2        |

```
      00 01 02 03 04 05 06 07  08 09 0A 0B 0C 0D 0E 0F
      -- -- -- -- -- -- -- --  -- -- -- -- -- -- -- --
0030:                                6C F8 FF FF 7F 02            l.....
0040: 80 01 80 00                                       ....            
```

#### Opcodes

```
  0: 0x003A [0x6C] FADE_ENTITY_COLOR(entity_id=EventEntity, end_alpha=128*, fade_time=1*)
  1: 0x0043 [0x00] END_REQSTACK()
```

### Event 318

#### Metadata

| Field        | Value   |
|--------------|---------|
| Entrypoint   | 0x0044  |
| Data Size    | 1 bytes |
| Instructions | 1       |

```
      00 01 02 03 04 05 06 07  08 09 0A 0B 0C 0D 0E 0F
      -- -- -- -- -- -- -- --  -- -- -- -- -- -- -- --
0040:             00                                        .           
```

#### Opcodes

```
  0: 0x0044 [0x00] END_REQSTACK()
```

### Event 319

#### Metadata

| Field        | Value   |
|--------------|---------|
| Entrypoint   | 0x0045  |
| Data Size    | 1 bytes |
| Instructions | 1       |

```
      00 01 02 03 04 05 06 07  08 09 0A 0B 0C 0D 0E 0F
      -- -- -- -- -- -- -- --  -- -- -- -- -- -- -- --
0040:                00                                      .          
```

#### Opcodes

```
  0: 0x0045 [0x00] END_REQSTACK()
```

### Event 320

#### Metadata

| Field        | Value   |
|--------------|---------|
| Entrypoint   | 0x0046  |
| Data Size    | 1 bytes |
| Instructions | 1       |

```
      00 01 02 03 04 05 06 07  08 09 0A 0B 0C 0D 0E 0F
      -- -- -- -- -- -- -- --  -- -- -- -- -- -- -- --
0040:                   00                                    .         
```

#### Opcodes

```
  0: 0x0046 [0x00] END_REQSTACK()
```

### Event 321

#### Metadata

| Field        | Value   |
|--------------|---------|
| Entrypoint   | 0x0047  |
| Data Size    | 1 bytes |
| Instructions | 1       |

```
      00 01 02 03 04 05 06 07  08 09 0A 0B 0C 0D 0E 0F
      -- -- -- -- -- -- -- --  -- -- -- -- -- -- -- --
0040:                      00                                  .        
```

#### Opcodes

```
  0: 0x0047 [0x00] END_REQSTACK()
```

### Event 322

#### Metadata

| Field        | Value   |
|--------------|---------|
| Entrypoint   | 0x0048  |
| Data Size    | 1 bytes |
| Instructions | 1       |

```
      00 01 02 03 04 05 06 07  08 09 0A 0B 0C 0D 0E 0F
      -- -- -- -- -- -- -- --  -- -- -- -- -- -- -- --
0040:                          00                               .       
```

#### Opcodes

```
  0: 0x0048 [0x00] END_REQSTACK()
```

### Event 323

#### Metadata

| Field        | Value   |
|--------------|---------|
| Entrypoint   | 0x0049  |
| Data Size    | 1 bytes |
| Instructions | 1       |

```
      00 01 02 03 04 05 06 07  08 09 0A 0B 0C 0D 0E 0F
      -- -- -- -- -- -- -- --  -- -- -- -- -- -- -- --
0040:                             00                             .      
```

#### Opcodes

```
  0: 0x0049 [0x00] END_REQSTACK()
```

### Event 326

#### Metadata

| Field        | Value   |
|--------------|---------|
| Entrypoint   | 0x004A  |
| Data Size    | 1 bytes |
| Instructions | 1       |

```
      00 01 02 03 04 05 06 07  08 09 0A 0B 0C 0D 0E 0F
      -- -- -- -- -- -- -- --  -- -- -- -- -- -- -- --
0040:                                00                           .     
```

#### Opcodes

```
  0: 0x004A [0x00] END_REQSTACK()
```

### Event 327

#### Metadata

| Field        | Value   |
|--------------|---------|
| Entrypoint   | 0x004B  |
| Data Size    | 1 bytes |
| Instructions | 1       |

```
      00 01 02 03 04 05 06 07  08 09 0A 0B 0C 0D 0E 0F
      -- -- -- -- -- -- -- --  -- -- -- -- -- -- -- --
0040:                                   00                         .    
```

#### Opcodes

```
  0: 0x004B [0x00] END_REQSTACK()
```

### Event 324

#### Metadata

| Field        | Value   |
|--------------|---------|
| Entrypoint   | 0x004C  |
| Data Size    | 1 bytes |
| Instructions | 1       |

```
      00 01 02 03 04 05 06 07  08 09 0A 0B 0C 0D 0E 0F
      -- -- -- -- -- -- -- --  -- -- -- -- -- -- -- --
0040:                                      00                       .   
```

#### Opcodes

```
  0: 0x004C [0x00] END_REQSTACK()
```

### Event 65535.8

#### Metadata

| Field        | Value    |
|--------------|----------|
| Entrypoint   | 0x004D   |
| Data Size    | 28 bytes |
| Instructions | 8        |

```
      00 01 02 03 04 05 06 07  08 09 0A 0B 0C 0D 0E 0F
      -- -- -- -- -- -- -- --  -- -- -- -- -- -- -- --
0040:                                         32 03 80               2..
0050: 1F 00 04 80 05 80 06 80  1F 01 6F 4B F8 FF FF 7F  ..........oK....
0060: 07 80 6F 76 F8 FF FF 7F  00                       ..ov.....       
```

#### Opcodes

```
  0: 0x004D [0x32] ExtData[1]->MainSpeed = 13* * 0.1
  1: 0x0050 [0x1F] MOVE_ENTITY: EventEntity moves to X=-15.318*, Z=71.705*, Y=-6.000*
  2: 0x0058 [0x1F] MOVE_ENTITY: Update entity position (mode=1)
  3: 0x005A [0x6F] WAIT_FRAME_DELAY: Yield until WaitTime reaches zero
  4: 0x005B [0x4B] UPDATE_ENTITY_YAW(entity=EventEntity, yaw=19.8°*)
  5: 0x0062 [0x6F] WAIT_FRAME_DELAY: Yield until WaitTime reaches zero
  6: 0x0063 [0x76] CHECK_ENTITY_RENDER_FLAGS: Wait until EventEntity Render.Flags0 and Render.Flags3 conditions are met
  7: 0x0068 [0x00] END_REQSTACK()
```

### Event 65535.9

#### Metadata

| Field        | Value    |
|--------------|----------|
| Entrypoint   | 0x0069   |
| Data Size    | 15 bytes |
| Instructions | 5        |

```
      00 01 02 03 04 05 06 07  08 09 0A 0B 0C 0D 0E 0F
      -- -- -- -- -- -- -- --  -- -- -- -- -- -- -- --
0060:                             32 03 80 1F 00 04 80           2......
0070: 05 80 06 80 1F 01 6F 00                           ......o.        
```

#### Opcodes

```
  0: 0x0069 [0x32] ExtData[1]->MainSpeed = 13* * 0.1
  1: 0x006C [0x1F] MOVE_ENTITY: EventEntity moves to X=-15.318*, Z=71.705*, Y=-6.000*
  2: 0x0074 [0x1F] MOVE_ENTITY: Update entity position (mode=1)
  3: 0x0076 [0x6F] WAIT_FRAME_DELAY: Yield until WaitTime reaches zero
  4: 0x0077 [0x00] END_REQSTACK()
```

### Event 65535.10

#### Metadata

| Field        | Value    |
|--------------|----------|
| Entrypoint   | 0x0078   |
| Data Size    | 48 bytes |
| Instructions | 10       |

```
      00 01 02 03 04 05 06 07  08 09 0A 0B 0C 0D 0E 0F
      -- -- -- -- -- -- -- --  -- -- -- -- -- -- -- --
0070:                          32 08 80 1F 00 09 80 0A          2.......
0080: 80 06 80 1F 01 6F 4A F8  FF FF 7F F0 FF FF 7F 6F  .....oJ........o
0090: 76 F8 FF FF 7F 5B 0B 80  65 50 03 01 65 50 03 01  v....[..eP..eP..
00A0: 68 61 70 30 1C 0C 80 00                           hap0....        
```

#### Opcodes

```
  0: 0x0078 [0x32] ExtData[1]->MainSpeed = 14* * 0.1
  1: 0x007B [0x1F] MOVE_ENTITY: EventEntity moves to X=-14.110*, Z=69.052*, Y=-6.000*
  2: 0x0083 [0x1F] MOVE_ENTITY: Update entity position (mode=1)
  3: 0x0085 [0x6F] WAIT_FRAME_DELAY: Yield until WaitTime reaches zero
  4: 0x0086 [0x4A] EventEntity looks at LocalPlayer
  5: 0x008F [0x6F] WAIT_FRAME_DELAY: Yield until WaitTime reaches zero
  6: 0x0090 [0x76] CHECK_ENTITY_RENDER_FLAGS: Wait until EventEntity Render.Flags0 and Render.Flags3 conditions are met
  7: 0x0095 [0x5B] LOAD_EXT_SCHEDULER: Load scheduler "hap0" with entities [Yoyoroon (ID: 16994405/0x01035065), Yoyoroon (ID: 16994405/0x01035065)], work=843*
  8: 0x00A4 [0x1C] WAIT(160* ticks)
  9: 0x00A7 [0x00] END_REQSTACK()
```

### Event 65535.11

#### Metadata

| Field        | Value    |
|--------------|----------|
| Entrypoint   | 0x00A8   |
| Data Size    | 39 bytes |
| Instructions | 9        |

```
      00 01 02 03 04 05 06 07  08 09 0A 0B 0C 0D 0E 0F
      -- -- -- -- -- -- -- --  -- -- -- -- -- -- -- --
00A0:                          32 0D 80 1F 00 0E 80 0F          2.......
00B0: 80 06 80 1F 01 1F 00 10  80 11 80 06 80 1F 01 4A  ...............J
00C0: F8 FF FF 7F F0 FF FF 7F  6F 76 65 50 03 01 00     ........oveP... 
```

#### Opcodes

```
  0: 0x00A8 [0x32] ExtData[1]->MainSpeed = 40* * 0.1
  1: 0x00AB [0x1F] MOVE_ENTITY: EventEntity moves to X=-13.768*, Z=67.656*, Y=-6.000*
  2: 0x00B3 [0x1F] MOVE_ENTITY: Update entity position (mode=1)
  3: 0x00B5 [0x1F] MOVE_ENTITY: EventEntity moves to X=-14.266*, Z=65.981*, Y=-6.000*
  4: 0x00BD [0x1F] MOVE_ENTITY: Update entity position (mode=1)
  5: 0x00BF [0x4A] EventEntity looks at LocalPlayer
  6: 0x00C8 [0x6F] WAIT_FRAME_DELAY: Yield until WaitTime reaches zero
  7: 0x00C9 [0x76] CHECK_ENTITY_RENDER_FLAGS: Wait until Yoyoroon (ID: 16994405/0x01035065) Render.Flags0 and Render.Flags3 conditions are met
  8: 0x00CE [0x00] END_REQSTACK()
```

### Event 65535.12

#### Metadata

| Field        | Value    |
|--------------|----------|
| Entrypoint   | 0x00CF   |
| Data Size    | 32 bytes |
| Instructions | 8        |

```
      00 01 02 03 04 05 06 07  08 09 0A 0B 0C 0D 0E 0F
      -- -- -- -- -- -- -- --  -- -- -- -- -- -- -- --
00C0:                                               7B                 {
00D0: 65 50 03 01 1C 12 80 4B  65 50 03 01 13 80 6F 76  eP.....KeP....ov
00E0: 65 50 03 01 1F 00 14 80  15 80 16 80 1F 01 00     eP............. 
```

#### Opcodes

```
  0: 0x00CF [0x7B] Yoyoroon (ID: 16994405/0x01035065) stops talking
  1: 0x00D4 [0x1C] WAIT(30* ticks)
  2: 0x00D7 [0x4B] UPDATE_ENTITY_YAW(entity=Yoyoroon (ID: 16994405/0x01035065), yaw=22.0°*)
  3: 0x00DE [0x6F] WAIT_FRAME_DELAY: Yield until WaitTime reaches zero
  4: 0x00DF [0x76] CHECK_ENTITY_RENDER_FLAGS: Wait until Yoyoroon (ID: 16994405/0x01035065) Render.Flags0 and Render.Flags3 conditions are met
  5: 0x00E4 [0x1F] MOVE_ENTITY: EventEntity moves to X=-3.130*, Z=67.257*, Y=-6.667*
  6: 0x00EC [0x1F] MOVE_ENTITY: Update entity position (mode=1)
  7: 0x00EE [0x00] END_REQSTACK()
```

### Event 65535.13

#### Metadata

| Field        | Value    |
|--------------|----------|
| Entrypoint   | 0x00EF   |
| Data Size    | 67 bytes |
| Instructions | 11       |

```
      00 01 02 03 04 05 06 07  08 09 0A 0B 0C 0D 0E 0F
      -- -- -- -- -- -- -- --  -- -- -- -- -- -- -- --
00E0:                                               32                 2
00F0: 0D 80 1F 00 0E 80 0F 80  06 80 1F 01 1F 00 17 80  ................
0100: 18 80 06 80 1F 01 4A F8  FF FF 7F F0 FF FF 7F 6F  ......J........o
0110: 76 65 50 03 01 5B 0B 80  65 50 03 01 65 50 03 01  veP..[..eP..eP..
0120: 68 61 70 30 53 65 50 03  01 65 50 03 01 68 61 70  hap0SeP..eP..hap
0130: 30 00                                             0.              
```

#### Opcodes

```
  0: 0x00EF [0x32] ExtData[1]->MainSpeed = 40* * 0.1
  1: 0x00F2 [0x1F] MOVE_ENTITY: EventEntity moves to X=-13.768*, Z=67.656*, Y=-6.000*
  2: 0x00FA [0x1F] MOVE_ENTITY: Update entity position (mode=1)
  3: 0x00FC [0x1F] MOVE_ENTITY: EventEntity moves to X=-13.756*, Z=66.710*, Y=-6.000*
  4: 0x0104 [0x1F] MOVE_ENTITY: Update entity position (mode=1)
  5: 0x0106 [0x4A] EventEntity looks at LocalPlayer
  6: 0x010F [0x6F] WAIT_FRAME_DELAY: Yield until WaitTime reaches zero
  7: 0x0110 [0x76] CHECK_ENTITY_RENDER_FLAGS: Wait until Yoyoroon (ID: 16994405/0x01035065) Render.Flags0 and Render.Flags3 conditions are met
  8: 0x0115 [0x5B] LOAD_EXT_SCHEDULER: Load scheduler "hap0" with entities [Yoyoroon (ID: 16994405/0x01035065), Yoyoroon (ID: 16994405/0x01035065)], work=843*
  9: 0x0124 [0x53] WAIT_SCHEDULER_TASK: Wait for scheduler "hap0" with entities [Yoyoroon (ID: 16994405/0x01035065), Yoyoroon (ID: 16994405/0x01035065)]
 10: 0x0131 [0x00] END_REQSTACK()
```

### Event 65535.14

#### Metadata

| Field        | Value    |
|--------------|----------|
| Entrypoint   | 0x0132   |
| Data Size    | 38 bytes |
| Instructions | 8        |

```
      00 01 02 03 04 05 06 07  08 09 0A 0B 0C 0D 0E 0F
      -- -- -- -- -- -- -- --  -- -- -- -- -- -- -- --
0130:       4A F8 FF FF 7F 66  50 03 01 6F 76 F8 FF FF    J....fP..ov...
0140: 7F 32 19 80 1F 00 1A 80  1B 80 06 80 1F 01 4A F8  .2............J.
0150: FF FF 7F 66 50 03 01 00                           ...fP...        
```

#### Opcodes

```
  0: 0x0132 [0x4A] EventEntity looks at Tsetseroon (ID: 16994406/0x01035066)
  1: 0x013B [0x6F] WAIT_FRAME_DELAY: Yield until WaitTime reaches zero
  2: 0x013C [0x76] CHECK_ENTITY_RENDER_FLAGS: Wait until EventEntity Render.Flags0 and Render.Flags3 conditions are met
  3: 0x0141 [0x32] ExtData[1]->MainSpeed = 39* * 0.1
  4: 0x0144 [0x1F] MOVE_ENTITY: EventEntity moves to X=-5.300*, Z=67.808*, Y=-6.000*
  5: 0x014C [0x1F] MOVE_ENTITY: Update entity position (mode=1)
  6: 0x014E [0x4A] EventEntity looks at Tsetseroon (ID: 16994406/0x01035066)
  7: 0x0157 [0x00] END_REQSTACK()
```

### Event 65535.15

#### Metadata

| Field        | Value    |
|--------------|----------|
| Entrypoint   | 0x0158   |
| Data Size    | 66 bytes |
| Instructions | 7        |

```
      00 01 02 03 04 05 06 07  08 09 0A 0B 0C 0D 0E 0F
      -- -- -- -- -- -- -- --  -- -- -- -- -- -- -- --
0150:                          1C 12 80 5B 0B 80 65 50          ...[..eP
0160: 03 01 65 50 03 01 68 61  70 30 79 00 66 50 03 01  ..eP..hap0y.fP..
0170: 65 50 03 01 53 65 50 03  01 65 50 03 01 68 61 70  eP..SeP..eP..hap
0180: 30 4A 65 50 03 01 66 50  03 01 5B 1C 80 65 50 03  0JeP..fP..[..eP.
0190: 01 65 50 03 01 74 6C 6B  30 00                    .eP..tlk0.      
```

#### Opcodes

```
  0: 0x0158 [0x1C] WAIT(30* ticks)
  1: 0x015B [0x5B] LOAD_EXT_SCHEDULER: Load scheduler "hap0" with entities [Yoyoroon (ID: 16994405/0x01035065), Yoyoroon (ID: 16994405/0x01035065)], work=843*
  2: 0x016A [0x79] Tsetseroon (ID: 16994406/0x01035066) looks at Yoyoroon (ID: 16994405/0x01035065) (Basic look)
  3: 0x0174 [0x53] WAIT_SCHEDULER_TASK: Wait for scheduler "hap0" with entities [Yoyoroon (ID: 16994405/0x01035065), Yoyoroon (ID: 16994405/0x01035065)]
  4: 0x0181 [0x4A] Yoyoroon (ID: 16994405/0x01035065) looks at Tsetseroon (ID: 16994406/0x01035066)
  5: 0x018A [0x5B] LOAD_EXT_SCHEDULER: Load scheduler "tlk0" with entities [Yoyoroon (ID: 16994405/0x01035065), Yoyoroon (ID: 16994405/0x01035065)], work=842*
  6: 0x0199 [0x00] END_REQSTACK()
```

### Event 65535.16

#### Metadata

| Field        | Value    |
|--------------|----------|
| Entrypoint   | 0x019A   |
| Data Size    | 15 bytes |
| Instructions | 5        |

```
      00 01 02 03 04 05 06 07  08 09 0A 0B 0C 0D 0E 0F
      -- -- -- -- -- -- -- --  -- -- -- -- -- -- -- --
0190:                                32 1D 80 1F 00 1E            2.....
01A0: 80 1F 80 20 80 1F 01 6F  00                       ... ...o.       
```

#### Opcodes

```
  0: 0x019A [0x32] ExtData[1]->MainSpeed = 11* * 0.1
  1: 0x019D [0x1F] MOVE_ENTITY: EventEntity moves to X=-16.260*, Z=68.786*, Y=-5.999*
  2: 0x01A5 [0x1F] MOVE_ENTITY: Update entity position (mode=1)
  3: 0x01A7 [0x6F] WAIT_FRAME_DELAY: Yield until WaitTime reaches zero
  4: 0x01A8 [0x00] END_REQSTACK()
```

### Event 65535.17

#### Metadata

| Field        | Value    |
|--------------|----------|
| Entrypoint   | 0x01A9   |
| Data Size    | 26 bytes |
| Instructions | 8        |

```
      00 01 02 03 04 05 06 07  08 09 0A 0B 0C 0D 0E 0F
      -- -- -- -- -- -- -- --  -- -- -- -- -- -- -- --
01A0:                             32 1D 80 1F 00 21 80           2....!.
01B0: 22 80 20 80 1F 01 6F 1E  F0 FF FF 7F 6F 76 65 50  ". ...o.....oveP
01C0: 03 01 00                                          ...             
```

#### Opcodes

```
  0: 0x01A9 [0x32] ExtData[1]->MainSpeed = 11* * 0.1
  1: 0x01AC [0x1F] MOVE_ENTITY: EventEntity moves to X=-15.562*, Z=68.702*, Y=-5.999*
  2: 0x01B4 [0x1F] MOVE_ENTITY: Update entity position (mode=1)
  3: 0x01B6 [0x6F] WAIT_FRAME_DELAY: Yield until WaitTime reaches zero
  4: 0x01B7 [0x1E] EventEntity looks at LocalPlayer and starts talking
  5: 0x01BC [0x6F] WAIT_FRAME_DELAY: Yield until WaitTime reaches zero
  6: 0x01BD [0x76] CHECK_ENTITY_RENDER_FLAGS: Wait until Yoyoroon (ID: 16994405/0x01035065) Render.Flags0 and Render.Flags3 conditions are met
  7: 0x01C2 [0x00] END_REQSTACK()
```

### Event 65535.18

#### Metadata

| Field        | Value    |
|--------------|----------|
| Entrypoint   | 0x01C3   |
| Data Size    | 56 bytes |
| Instructions | 14       |

```
      00 01 02 03 04 05 06 07  08 09 0A 0B 0C 0D 0E 0F
      -- -- -- -- -- -- -- --  -- -- -- -- -- -- -- --
01C0:          32 23 80 1F 00  24 80 25 80 20 80 1F 01     2#...$.%. ...
01D0: 1F 00 26 80 27 80 20 80  1F 01 1F 00 28 80 29 80  ..&.'. .....(.).
01E0: 20 80 1F 01 1F 00 2A 80  2B 80 20 80 1F 01 6F 1E   .....*.+. ...o.
01F0: F0 FF FF 7F 6F 76 F8 FF  FF 7F 00                 ....ov.....     
```

#### Opcodes

```
  0: 0x01C3 [0x32] ExtData[1]->MainSpeed = 44* * 0.1
  1: 0x01C6 [0x1F] MOVE_ENTITY: EventEntity moves to X=-14.207*, Z=71.843*, Y=-5.999*
  2: 0x01CE [0x1F] MOVE_ENTITY: Update entity position (mode=1)
  3: 0x01D0 [0x1F] MOVE_ENTITY: EventEntity moves to X=-13.564*, Z=68.317*, Y=-5.999*
  4: 0x01D8 [0x1F] MOVE_ENTITY: Update entity position (mode=1)
  5: 0x01DA [0x1F] MOVE_ENTITY: EventEntity moves to X=-7.866*, Z=68.031*, Y=-5.999*
  6: 0x01E2 [0x1F] MOVE_ENTITY: Update entity position (mode=1)
  7: 0x01E4 [0x1F] MOVE_ENTITY: EventEntity moves to X=-7.493*, Z=69.405*, Y=-5.999*
  8: 0x01EC [0x1F] MOVE_ENTITY: Update entity position (mode=1)
  9: 0x01EE [0x6F] WAIT_FRAME_DELAY: Yield until WaitTime reaches zero
 10: 0x01EF [0x1E] EventEntity looks at LocalPlayer and starts talking
 11: 0x01F4 [0x6F] WAIT_FRAME_DELAY: Yield until WaitTime reaches zero
 12: 0x01F5 [0x76] CHECK_ENTITY_RENDER_FLAGS: Wait until EventEntity Render.Flags0 and Render.Flags3 conditions are met
 13: 0x01FA [0x00] END_REQSTACK()
```

### Event 65535.19

#### Metadata

| Field        | Value    |
|--------------|----------|
| Entrypoint   | 0x01FB   |
| Data Size    | 15 bytes |
| Instructions | 5        |

```
      00 01 02 03 04 05 06 07  08 09 0A 0B 0C 0D 0E 0F
      -- -- -- -- -- -- -- --  -- -- -- -- -- -- -- --
01F0:                                   32 03 80 1F 00             2....
0200: 2C 80 2D 80 20 80 1F 01  6F 00                    ,.-. ...o.      
```

#### Opcodes

```
  0: 0x01FB [0x32] ExtData[1]->MainSpeed = 13* * 0.1
  1: 0x01FE [0x1F] MOVE_ENTITY: EventEntity moves to X=-14.097*, Z=68.094*, Y=-5.999*
  2: 0x0206 [0x1F] MOVE_ENTITY: Update entity position (mode=1)
  3: 0x0208 [0x6F] WAIT_FRAME_DELAY: Yield until WaitTime reaches zero
  4: 0x0209 [0x00] END_REQSTACK()
```

### Event 65535.20

#### Metadata

| Field        | Value    |
|--------------|----------|
| Entrypoint   | 0x020A   |
| Data Size    | 14 bytes |
| Instructions | 4        |

```
      00 01 02 03 04 05 06 07  08 09 0A 0B 0C 0D 0E 0F
      -- -- -- -- -- -- -- --  -- -- -- -- -- -- -- --
0200:                                32 03 80 1F 00 2E            2.....
0210: 80 2F 80 20 80 1F 01 00                           ./. ....        
```

#### Opcodes

```
  0: 0x020A [0x32] ExtData[1]->MainSpeed = 13* * 0.1
  1: 0x020D [0x1F] MOVE_ENTITY: EventEntity moves to X=-14.023*, Z=72.160*, Y=-5.999*
  2: 0x0215 [0x1F] MOVE_ENTITY: Update entity position (mode=1)
  3: 0x0217 [0x00] END_REQSTACK()
```
