# 16994410 - Nabihwah

## Common Data

| Field            | Value            |
|------------------|------------------|
| Zone             | Nashmau (ID: 53) |
| Block Size       | 7652 bytes       |
| Total Events     | 3                |
| References Count | 168              |

## List of Events

| Event ID              | Entrypoint   |   Size |   Instructions |
|-----------------------|--------------|--------|----------------|
| [65535](#event-65535) | 0x0000       |      1 |              1 |
| [253](#event-253)     | 0x0001       |   4387 |            912 |
| [254](#event-254)     | 0x1124       |   2562 |            680 |

## DAT References (imed_data)

|   Index | Hex Value   |   Dec Value |
|---------|-------------|-------------|
|       0 | 0x001E      |          30 |
|       1 | 0x0000      |           0 |
|       2 | 0x2A1C      |       10780 |
|       3 | 0x2A20      |       10784 |
|       4 | 0x001F      |          31 |
|       5 | 0x0064      |         100 |
|       6 | 0x2A22      |       10786 |
|       7 | 0x2A23      |       10787 |
|       8 | 0x0004      |           4 |
|       9 | 0x0007      |           7 |
|      10 | 0x0001      |           1 |
|      11 | 0x2A25      |       10789 |
|      12 | 0x0002      |           2 |
|      13 | 0x0003      |           3 |
|      14 | 0x2A21      |       10785 |
|      15 | 0x01F1      |         497 |
|      16 | 0x0104      |         260 |
|      17 | 0x2A27      |       10791 |
|      18 | 0x2A29      |       10793 |
|      19 | 0x000B      |          11 |
|      20 | 0x1056      |        4182 |
|      21 | 0x1055      |        4181 |
|      22 | 0x08B6      |        2230 |
|      23 | 0x08B7      |        2231 |
|      24 | 0x08B8      |        2232 |
|      25 | 0x08B9      |        2233 |
|      26 | 0x4A4D      |       19021 |
|      27 | 0x4A4E      |       19022 |
|      28 | 0x4A4F      |       19023 |
|      29 | 0x000A      |          10 |
|      30 | 0x4E20      |       20000 |
|      31 | 0x0CEB      |        3307 |
|      32 | 0x0CEC      |        3308 |
|      33 | 0x0CED      |        3309 |
|      34 | 0x0CEF      |        3311 |
|      35 | 0x1909      |        6409 |
|      36 | 0x2783      |       10115 |
|      37 | 0x1388      |        5000 |
|      38 | 0xC350      |       50000 |
|      39 | 0x07D0      |        2000 |
|      40 | 0xFFFFFFFF  |  4294967295 |
|      41 | 0x0005      |           5 |
|      42 | 0x0006      |           6 |
|      43 | 0x0008      |           8 |
|      44 | 0x0009      |           9 |
|      45 | 0x2A3E      |       10814 |
|      46 | 0x2A2B      |       10795 |
|      47 | 0x40000000  |  1073741824 |
|      48 | 0x0746      |        1862 |
|      49 | 0x0747      |        1863 |
|      50 | 0x0748      |        1864 |
|      51 | 0x03E8      |        1000 |
|      52 | 0x2A2F      |       10799 |
|      53 | 0x4901      |       18689 |
|      54 | 0x4902      |       18690 |
|      55 | 0x4903      |       18691 |
|      56 | 0x2A3B      |       10811 |
|      57 | 0x4904      |       18692 |
|      58 | 0x4905      |       18693 |
|      59 | 0x4906      |       18694 |
|      60 | 0x3DC2      |       15810 |
|      61 | 0x0FA0      |        4000 |
|      62 | 0x2A3C      |       10812 |
|      63 | 0x3D52      |       15698 |
|      64 | 0x3CC8      |       15560 |
|      65 | 0x3F28      |       16168 |
|      66 | 0x1F40      |        8000 |
|      67 | 0x490F      |       18703 |
|      68 | 0x4936      |       18742 |
|      69 | 0x453B      |       17723 |
|      70 | 0x3E80      |       16000 |
|      71 | 0x3D06      |       15622 |
|      72 | 0x3DAE      |       15790 |
|      73 | 0x3E6D      |       15981 |
|      74 | 0x5DC0      |       24000 |
|      75 | 0x3D07      |       15623 |
|      76 | 0x3E6E      |       15982 |
|      77 | 0x3E6F      |       15983 |
|      78 | 0x7D00      |       32000 |
|      79 | 0x454D      |       17741 |
|      80 | 0x49FF      |       18943 |
|      81 | 0x49A2      |       18850 |
|      82 | 0x491D      |       18717 |
|      83 | 0x9C40      |       40000 |
|      84 | 0x40DA      |       16602 |
|      85 | 0x47F9      |       18425 |
|      86 | 0x483B      |       18491 |
|      87 | 0x489C      |       18588 |
|      88 | 0x491E      |       18718 |
|      89 | 0x2A3D      |       10813 |
|      90 | 0x3F8F      |       16271 |
|      91 | 0x3E28      |       15912 |
|      92 | 0x3F66      |       16230 |
|      93 | 0xDAC0      |       56000 |
|      94 | 0x2A28      |       10792 |
|      95 | 0x2A2A      |       10794 |
|      96 | 0x1A29      |        6697 |
|      97 | 0x1A2A      |        6698 |
|      98 | 0x1A2B      |        6699 |
|      99 | 0x0014      |          20 |
|     100 | 0x000F      |          15 |
|     101 | 0x2A3F      |       10815 |
|     102 | 0x5423      |       21539 |
|     103 | 0x5457      |       21591 |
|     104 | 0x548F      |       21647 |
|     105 | 0x5490      |       21648 |
|     106 | 0x54E3      |       21731 |
|     107 | 0x551C      |       21788 |
|     108 | 0x5551      |       21841 |
|     109 | 0x5584      |       21892 |
|     110 | 0x55AF      |       21935 |
|     111 | 0x55E6      |       21990 |
|     112 | 0x55E8      |       21992 |
|     113 | 0x5696      |       22166 |
|     114 | 0x5697      |       22167 |
|     115 | 0x56B2      |       22194 |
|     116 | 0x2A40      |       10816 |
|     117 | 0x000C      |          12 |
|     118 | 0x000D      |          13 |
|     119 | 0x2A41      |       10817 |
|     120 | 0x2A43      |       10819 |
|     121 | 0x2A44      |       10820 |
|     122 | 0x2A45      |       10821 |
|     123 | 0x2A46      |       10822 |
|     124 | 0x2A47      |       10823 |
|     125 | 0x2A48      |       10824 |
|     126 | 0x2A49      |       10825 |
|     127 | 0x2A4A      |       10826 |
|     128 | 0x2A4B      |       10827 |
|     129 | 0x2A42      |       10818 |
|     130 | 0x2A4C      |       10828 |
|     131 | 0x2A4D      |       10829 |
|     132 | 0x2A4E      |       10830 |
|     133 | 0x2A4F      |       10831 |
|     134 | 0x2A50      |       10832 |
|     135 | 0x2A51      |       10833 |
|     136 | 0x2A52      |       10834 |
|     137 | 0x2A53      |       10835 |
|     138 | 0x2A54      |       10836 |
|     139 | 0x2A55      |       10837 |
|     140 | 0x2A56      |       10838 |
|     141 | 0x2A57      |       10839 |
|     142 | 0x2A58      |       10840 |
|     143 | 0x2A59      |       10841 |
|     144 | 0x2A5A      |       10842 |
|     145 | 0x2A5B      |       10843 |
|     146 | 0x2A5C      |       10844 |
|     147 | 0x2A5D      |       10845 |
|     148 | 0x2A5E      |       10846 |
|     149 | 0x2A5F      |       10847 |
|     150 | 0x2A60      |       10848 |
|     151 | 0x2A61      |       10849 |
|     152 | 0x2A1D      |       10781 |
|     153 | 0x0013      |          19 |
|     154 | 0x2A37      |       10807 |
|     155 | 0x2A39      |       10809 |
|     156 | 0x2A32      |       10802 |
|     157 | 0x2A2D      |       10797 |
|     158 | 0x2A2C      |       10796 |
|     159 | 0x2A34      |       10804 |
|     160 | 0x2A3A      |       10810 |
|     161 | 0x2A35      |       10805 |
|     162 | 0x2A36      |       10806 |
|     163 | 0x2A31      |       10801 |
|     164 | 0xBB80      |       48000 |
|     165 | 0x2A38      |       10808 |
|     166 | 0x2A33      |       10803 |
|     167 | 0x0BB8      |        3000 |

## String References

- **10780**: I'm %, a soldier of the great Empire of Aht Urhgan. Pray tell, why have you come all the way to this forsaken land?
- **10781**: Don't waste my time, adventurer.
- **10784**: What is your business? [I want to receive Sanction./I want to spend my credits./I want to spend my accolades./I have some questions.../Nothing, sorry to bother you.]
- **10785**: I will bestow upon you the Empire's Sanction. Good luck.
- **10786**: The Astral Candescence is now in Al Zahbi, so you will receive an experience bonus from battles. You can also select one of the following bonuses in exchange for a slight decrease in your Imperial Standing.
- **10787**: Choose a bonus for $8 [credit/credits]? [Not now./Regen./Refresh./Increased meal duration.]
- **10789**: You do not have enough Imperial Standing credits to receive the bonus.
- **10791**: You currently possess $0 [Imperial Standing credit/Imperial Standing credits]. Would you like to use them to purchase items?
- **10792**: You currently possess $0 [Imperial Standing accolade/Imperial Standing Accolades]. Would you like to use them to purchase items?
- **10793**: Which item do you wish to purchase? [Common items (All ranks)./1000-pt. items (Private 2nd Class)."000-pt. items (Private 1st Class)./4000-pt. items (Superior Private)./8000-pt. items (Lance Corporal)./16000-pt. items (Corporal)."4000-pt. items (Sergeant)."2000-pt. items (Sergeant Major)./40000-pt. items (Chief Sergeant)./48000-pt. items (Second Lieutenant)./56000-pt. items (First Lieutenant)./Cancel.]
- **10794**: Which item do you wish to purchase? [Common items (All ranks)."000-pt. items (First Lieutenant.)/Cancel.]
- **10795**: There are currently no items available for that rank.
- **10796**: Your Imperial Standing is too low to purchase the $3.
- **10797**: Are you sure you want to purchase the $3?
- **10799**: Which item do you wish to purchase? [$3 ($20 credits)./$3 ($20 credits)./$3 ($20 credits)./Return.]
- **10801**: Your rank is too low to purchase the $8.
- **10802**: Your Imperial Standing is too low to purchase the $8.
- **10803**: Your Imperial Standing is too low to purchase the $8.
- **10804**: You cannot equip the $8. Do you still wish to proceed?
- **10805**: Your level is too low to equip the $8. Do you still wish to proceed?
- **10806**: You seem to be able to equip the $8. Do you wish to proceed?
- **10807**: Are you sure you want to purchase the $8?
- **10808**: Are you sure you want to purchase the $8?
- **10809**: Proceed? [Yes, purchase item./Cancel purchase.]
- **10810**: Proceed? [Yes, even though I can't equip it./Cancel purchase.]
- **10811**: Which item do you wish to purchase? [$9./$10./$11./Back.]
- **10812**: Which item do you wish to purchase? [$9./$10./$11./$12./Back.]
- **10813**: Which item do you wish to purchase? [$9./$10./$11./$12./$13./Back.]
- **10814**: Which item do you wish to purchase? [$9 ($20 credits)./$10 ($21 credits)./$11 ($22 credits)./$12 ($23 credits)./$13 ($24 credits)./$14 ($25 credits)./$15 ($26 credits)./$16 ($27 credits)./$17 ($28 credits)./Next page./Previous page./Back.]
- **10815**: Which item do you wish to purchase? [$9 ($20 accolades)./$10 ($21 accolades)./$11 ($22 accolades)./Back.]
- **10816**: Which item do you wish to purchase? [$9./$10./$11./$12./$13./$14./$15./$16./$17./$18./$19./$20./$21./$22./Back.]
- **10817**: What do you wish to know about? [Nothing./Sanction./Imperial Standing./Besieged.]
- **10818**: What about Besieged? [Never mind./Besieged basics./"Serpent Generals."/Astral Candescence in Al Zahbi./Astral Candescence with beastmen./Empire's current state of defense.]
- **10819**: "Sanction" is a magic spell that we use to observe and assess mercenaries' actions.
- **10820**: Defeating enemies while you have Sanction cast on you will raise your Imperial Standing. Also, the stronger the monsters you fight, the higher your Imperial Standing will become.
- **10821**: When fighting in a beastman stronghold that has taken the Astral Candescence, your Imperial Standing will rise by a significant amount as thanks for your participation in the recovery effort.
- **10822**: Sanction is also necessary in order to receive crystals from the enemies you defeat.
- **10823**: But you must take caution. Stepping too far out of the Empire's boundaries will cause Sanction to wear off.
- **10824**: You can raise your Imperial Standing by defeating enemies while you have Sanction cast on you.
- **10825**: Saving a captured prisoner in a beastman stronghold and submitting archaic mirrors to Imperial guards will also result in an increased Imperial Standing.
- **10826**: You can view your Imperial Standing by selecting "Besieged" under "Region Info."
- **10827**: You can also speak to me at any time to exchange your Imperial Standing credits for items.
- **10828**: "Besieged" occurs when the beastman armies breach the walls of Al Zahbi.
- **10829**: Everyone in town who is capable of wielding a weapon is called to action to defend Al Zahbi alongside the Imperial Army.
- **10830**: The beastmen's main purpose is to enter the Hall of Binding and wrest the "Astral Candescence" from the Empire's control.
- **10831**: You need not know what the Astral Candescence is.
- **10832**: All you must know is that it is your duty to protect the five Serpent Generals who hold the keys to the Hall of Binding, and to drive the beastman hordes from the Imperial capital.
- **10833**: The Empire's safety and its future rest on your capable shoulders! Rest assured that you will be rewarded for your efforts.
- **10834**: The Empire's defense is entrusted to five generals.
- **10835**: Each possesses a name corresponding to the symbols of the Empire--the serpents of flame, water, stone, gales, and sky.
- **10836**: Furthermore, the mirrors used to open the Hall of Binding are divided among their possession. Thus, the generals' fates determine the tide of battle.
- **10837**: If all five generals should fall in battle, the Hall of Binding will open, and the beastmen will be able to seize the Astral Candescence.
- **10838**: It is your responsibility to prevent such a disaster from happening. We are depending on you!
- **10839**: When the Astral Candescence is safely resting on its plinth in the Hall of Binding, it emanates waves that bestow special bonuses to Sanction.
- **10840**: The first bonus is a slight boost to the amount of experience points received from battles. You will receive this effect simply by having Sanction cast on you.
- **10841**: There are several other bonus effects, but you must sacrifice some of your Imperial Standing credits in order to receive them.
- **10842**: Keep in mind that the bonuses become more powerful with the number of times the Imperial capital is successfully defended.
- **10843**: Sanction's strength will reset if the beastmen succeed in invading the Hall of Binding, though.
- **10844**: The waves emanating from the Astral Candescence in Al Zahbi bring a multitude of blessings to all of us. You must not let it fall into the hands of the beastmen!
- **10845**: If the beastmen manage to take the Astral Candescence, its recovery will become our top priority. Find the coveted item on a plinth in one of the beastman strongholds and seize it back for the Empire!
- **10846**: We aren't quite sure what the beastmen are scheming to do with such power, but we do know that the Astral Candescence's waves can increase the beastmen's strength.
- **10847**: As if that weren't enough, we have recent reports that the beastmen have set "archaic mirrors" in their strongholds to magnify the power of the waves.
- **10848**: If you should come across any archaic mirrors, take them immediately and trade them to an Imperial guard.
- **10849**: Al Zahbi has been successively victorious in $4 [battle/battles] to defend the capital, bringing the Imperial defense to a value of $5. The Imperial capital has seen $6 [victory/victories] overall, and the Astral Candescence has been seized by the beastmen a total of $7 [time/times].

## Events

### Event 65535

#### Metadata

| Field        | Value   |
|--------------|---------|
| Entrypoint   | 0x0000  |
| Data Size    | 1 bytes |
| Instructions | 1       |

```
      00 01 02 03 04 05 06 07  08 09 0A 0B 0C 0D 0E 0F
      -- -- -- -- -- -- -- --  -- -- -- -- -- -- -- --
0000: 00                                                .               
```

#### Opcodes

```
  0: 0x0000 [0x00] END_REQSTACK()
```

### Event 253

#### Metadata

| Field        | Value      |
|--------------|------------|
| Entrypoint   | 0x0001     |
| Data Size    | 4387 bytes |
| Instructions | 817        |

```
      00 01 02 03 04 05 06 07  08 09 0A 0B 0C 0D 0E 0F
      -- -- -- -- -- -- -- --  -- -- -- -- -- -- -- --
0000:    03 06 00 02 10 03 07  00 05 10 41 00 80 00 80   ..........A....
0010: 03 10 05 00 03 01 10 01  80 1E F0 FF FF 7F 1D 02  ................
0020: 80 23 24 03 80 01 80 01  80 25 02 00 10 01 80 00  .#$......%......
0030: F6 00 3E 03 10 04 80 CE  00 03 00 17 05 80 1D 06  ..>.............
0040: 80 23 24 07 80 01 80 01  80 25 02 00 10 01 80 00  .#$......%......
0050: 5F 00 42 40 08 80 09 80  01 10 01 80 01 CB 00 02  _.B@............
0060: 00 10 0A 80 00 83 00 42  02 02 10 05 80 03 77 00  .......B......w.
0070: 1D 0B 80 23 01 80 00 40  08 80 09 80 01 10 0A 80  ...#...@........
0080: 01 CB 00 02 00 10 0C 80  00 A7 00 42 02 02 10 05  ...........B....
0090: 80 03 9B 00 1D 0B 80 23  01 A4 00 40 08 80 09 80  .......#...@....
00A0: 01 10 0C 80 01 CB 00 02  00 10 0D 80 00 CB 00 42  ...............B
00B0: 02 02 10 05 80 03 BF 00  1D 0B 80 23 01 C8 00 40  ...........#...@
00C0: 08 80 09 80 01 10 0D 80  01 CB 00 01 E5 00 42 1D  ..............B.
00D0: 0E 80 23 40 01 80 0D 80  01 10 01 80 40 08 80 09  ..#@........@...
00E0: 80 01 10 01 80 73 0F 80  F8 FF FF 7F F0 FF FF 7F  .....s..........
00F0: 1C 10 80 01 22 11 02 00  10 0A 80 00 13 0D 03 02  ...."...........
0100: 10 06 00 1D 11 80 23 40  01 80 0D 80 01 10 0A 80  ......#@........
0110: 03 02 00 01 80 24 12 80  01 80 01 80 25 02 00 10  .....$......%...
0120: 01 80 00 49 06 40 08 80  13 80 01 10 01 80 06 01  ...I.@..........
0130: 00 02 02 00 01 80 00 96  01 03 01 17 14 80 03 02  ................
0140: 17 15 80 03 03 17 16 80  03 04 17 17 80 03 05 17  ................
0150: 18 80 03 06 17 19 80 03  07 17 1A 80 03 08 17 1B  ................
0160: 80 03 09 17 1C 80 03 0C  17 09 80 03 0D 17 1D 80  ................
0170: 03 0E 17 05 80 03 0F 17  05 80 03 10 17 05 80 03  ................
0180: 11 17 05 80 03 12 17 1E  80 03 13 17 1E 80 03 14  ................
0190: 17 1E 80 01 FB 01 02 02  00 0A 80 00 FB 01 03 01  ................
01A0: 17 1F 80 03 02 17 20 80  03 03 17 21 80 03 04 17  ...... ....!....
01B0: 01 80 03 05 17 22 80 03  06 17 23 80 03 07 17 01  ....."....#.....
01C0: 80 03 08 17 01 80 03 09  17 24 80 03 0C 17 25 80  .........$....%.
01D0: 03 0D 17 25 80 03 0E 17  25 80 03 0F 17 25 80 03  ...%....%....%..
01E0: 10 17 25 80 03 11 17 26  80 03 12 17 25 80 03 13  ..%....&....%...
01F0: 17 25 80 03 14 17 27 80  01 FB 01 02 05 00 01 80  .%....'.........
0200: 00 10 02 02 02 00 0A 80  00 10 02 03 09 17 01 80  ................
0210: 03 04 00 28 80 02 01 17  01 80 01 24 02 3D 04 00  ...(.......$.=..
0220: 01 80 0A 80 02 02 17 01  80 01 33 02 3D 04 00 0A  ..........3.=...
0230: 80 0A 80 02 03 17 01 80  01 42 02 3D 04 00 0C 80  .........B.=....
0240: 0A 80 02 04 17 01 80 01  51 02 3D 04 00 0D 80 0A  ........Q.=.....
0250: 80 02 05 17 01 80 01 60  02 3D 04 00 08 80 0A 80  .......`.=......
0260: 02 06 17 01 80 01 6F 02  3D 04 00 29 80 0A 80 02  ......o.=..)....
0270: 07 17 01 80 01 7E 02 3D  04 00 2A 80 0A 80 02 08  .....~.=..*.....
0280: 17 01 80 01 8D 02 3D 04  00 09 80 0A 80 02 09 17  ......=.........
0290: 01 80 01 9C 02 3D 04 00  2B 80 0A 80 02 02 00 01  .....=..+.......
02A0: 80 00 AE 02 3D 04 00 2C  80 0A 80 01 C7 02 02 02  ....=..,........
02B0: 00 0A 80 00 C0 02 3D 04  00 1D 80 0A 80 01 C7 02  ......=.........
02C0: 3D 04 00 1D 80 0A 80 3D  04 00 13 80 0A 80 02 02  =......=........
02D0: 00 01 80 00 4C 04 24 2D  80 01 80 04 00 25 02 00  ....L.$-.....%..
02E0: 10 01 80 00 01 03 03 00  17 01 17 03 00 00 09 80  ................
02F0: 1A 33 11 02 01 00 01 80  01 FE 02 01 2E 01 01 49  .3.............I
0300: 04 02 00 10 0A 80 00 24  03 03 00 17 02 17 03 00  .......$........
0310: 00 1D 80 1A 33 11 02 01  00 01 80 01 21 03 01 2E  ....3.......!...
0320: 01 01 49 04 02 00 10 0C  80 00 47 03 03 00 17 03  ..I.......G.....
0330: 17 03 00 00 05 80 1A 33  11 02 01 00 01 80 01 44  .......3.......D
0340: 03 01 2E 01 01 49 04 02  00 10 0D 80 00 6A 03 03  .....I.......j..
0350: 00 17 04 17 03 00 00 05  80 1A 33 11 02 01 00 01  ..........3.....
0360: 80 01 67 03 01 2E 01 01  49 04 02 00 10 08 80 00  ..g.....I.......
0370: 8D 03 03 00 17 05 17 03  00 00 05 80 1A 33 11 02  .............3..
0380: 01 00 01 80 01 8A 03 01  2E 01 01 49 04 02 00 10  ...........I....
0390: 29 80 00 B0 03 03 00 17  06 17 03 00 00 05 80 1A  )...............
03A0: 33 11 02 01 00 01 80 01  AD 03 01 2E 01 01 49 04  3.............I.
03B0: 02 00 10 2A 80 00 D3 03  03 00 17 07 17 03 00 00  ...*............
03C0: 1E 80 1A 33 11 02 01 00  01 80 01 D0 03 01 2E 01  ...3............
03D0: 01 49 04 02 00 10 09 80  00 F6 03 03 00 17 08 17  .I..............
03E0: 03 00 00 1E 80 1A 33 11  02 01 00 01 80 01 F3 03  ......3.........
03F0: 01 2E 01 01 49 04 02 00  10 2B 80 00 19 04 03 00  ....I....+......
0400: 17 09 17 03 00 00 1E 80  1A 33 11 02 01 00 01 80  .........3......
0410: 01 16 04 01 2E 01 01 49  04 02 00 10 2C 80 00 2A  .......I....,..*
0420: 04 0B 02 00 01 2E 01 01  49 04 02 00 10 1D 80 00  ........I.......
0430: 3B 04 0C 02 00 01 2E 01  01 49 04 02 00 10 13 80  ;........I......
0440: 00 49 04 01 10 01 01 49  04 01 46 06 24 2D 80 01  .I.....I..F.$-..
0450: 80 04 00 25 02 00 10 01  80 00 86 04 03 00 17 01  ...%............
0460: 17 03 00 00 0C 17 03 03  00 02 00 14 03 00 2C 80  ..............,.
0470: 07 00 10 03 00 1A 33 11  02 01 00 01 80 01 83 04  ......3.........
0480: 01 2E 01 01 46 06 02 00  10 0A 80 00 B8 04 03 00  ....F...........
0490: 17 02 17 03 00 00 0D 17  03 03 00 02 00 14 03 00  ................
04A0: 2C 80 07 00 10 03 00 1A  33 11 02 01 00 01 80 01  ,.......3.......
04B0: B5 04 01 2E 01 01 46 06  02 00 10 0C 80 00 EA 04  ......F.........
04C0: 03 00 17 03 17 03 00 00  0E 17 03 03 00 02 00 14  ................
04D0: 03 00 2C 80 07 00 10 03  00 1A 33 11 02 01 00 01  ..,.......3.....
04E0: 80 01 E7 04 01 2E 01 01  46 06 02 00 10 0D 80 00  ........F.......
04F0: 1C 05 03 00 17 04 17 03  00 00 0F 17 03 03 00 02  ................
0500: 00 14 03 00 2C 80 07 00  10 03 00 1A 33 11 02 01  ....,.......3...
0510: 00 01 80 01 19 05 01 2E  01 01 46 06 02 00 10 08  ..........F.....
0520: 80 00 4E 05 03 00 17 05  17 03 00 00 10 17 03 03  ..N.............
0530: 00 02 00 14 03 00 2C 80  07 00 10 03 00 1A 33 11  ......,.......3.
0540: 02 01 00 01 80 01 4B 05  01 2E 01 01 46 06 02 00  ......K.....F...
0550: 10 29 80 00 80 05 03 00  17 06 17 03 00 00 11 17  .)..............
0560: 03 03 00 02 00 14 03 00  2C 80 07 00 10 03 00 1A  ........,.......
0570: 33 11 02 01 00 01 80 01  7D 05 01 2E 01 01 46 06  3.......}.....F.
0580: 02 00 10 2A 80 00 B2 05  03 00 17 07 17 03 00 00  ...*............
0590: 12 17 03 03 00 02 00 14  03 00 2C 80 07 00 10 03  ..........,.....
05A0: 00 1A 33 11 02 01 00 01  80 01 AF 05 01 2E 01 01  ..3.............
05B0: 46 06 02 00 10 09 80 00  E4 05 03 00 17 08 17 03  F...............
05C0: 00 00 13 17 03 03 00 02  00 14 03 00 2C 80 07 00  ............,...
05D0: 10 03 00 1A 33 11 02 01  00 01 80 01 E1 05 01 2E  ....3...........
05E0: 01 01 46 06 02 00 10 2B  80 00 16 06 03 00 17 09  ..F....+........
05F0: 17 03 00 00 14 17 03 03  00 02 00 14 03 00 2C 80  ..............,.
0600: 07 00 10 03 00 1A 33 11  02 01 00 01 80 01 13 06  ......3.........
0610: 01 2E 01 01 46 06 02 00  10 2C 80 00 27 06 0B 02  ....F....,..'...
0620: 00 01 2E 01 01 46 06 02  00 10 1D 80 00 38 06 0C  .....F.......8..
0630: 02 00 01 2E 01 01 46 06  02 00 10 13 80 00 46 06  ......F.......F.
0640: 01 10 01 01 46 06 01 10  0D 02 00 10 0A 80 00 01  ....F...........
0650: 07 41 01 80 00 80 03 10  00 00 02 00 00 09 80 00  .A..............
0660: 6E 06 1D 2E 80 23 03 01  10 2F 80 01 FE 06 40 08  n....#.../....@.
0670: 80 09 80 01 10 0A 80 06  01 00 03 01 17 30 80 03  .............0..
0680: 02 17 31 80 03 03 17 32  80 03 0C 17 33 80 24 34  ..1....2....3.$4
0690: 80 01 80 00 00 25 02 00  10 01 80 00 B4 06 03 00  .....%..........
06A0: 17 01 17 1A 81 11 02 01  00 01 80 01 B1 06 01 77  ...............w
06B0: 06 01 FE 06 02 00 10 0A  80 00 D2 06 03 00 17 02  ................
06C0: 17 1A 81 11 02 01 00 01  80 01 CF 06 01 77 06 01  .............w..
06D0: FE 06 02 00 10 0C 80 00  F0 06 03 00 17 03 17 1A  ................
06E0: 81 11 02 01 00 01 80 01  ED 06 01 77 06 01 FE 06  ...........w....
06F0: 02 00 10 0D 80 00 FE 06  01 10 01 01 FE 06 01 10  ................
0700: 0D 02 00 10 0C 80 00 9C  07 40 08 80 09 80 01 10  .........@......
0710: 0C 80 06 01 00 03 01 17  35 80 03 02 17 36 80 03  ........5....6..
0720: 03 17 37 80 03 0C 17 27  80 24 38 80 01 80 01 80  ..7....'.$8.....
0730: 25 02 00 10 01 80 00 4F  07 03 00 17 01 17 1A C3  %......O........
0740: 11 02 01 00 01 80 01 4C  07 01 12 07 01 99 07 02  .......L........
0750: 00 10 0A 80 00 6D 07 03  00 17 02 17 1A C3 11 02  .....m..........
0760: 01 00 01 80 01 6A 07 01  12 07 01 99 07 02 00 10  .....j..........
0770: 0C 80 00 8B 07 03 00 17  03 17 1A C3 11 02 01 00  ................
0780: 01 80 01 88 07 01 12 07  01 99 07 02 00 10 0D 80  ................
0790: 00 99 07 01 10 01 01 99  07 01 10 0D 02 00 10 0D  ................
07A0: 80 00 5A 08 40 08 80 09  80 01 10 0D 80 06 01 00  ..Z.@...........
07B0: 03 01 17 39 80 03 02 17  3A 80 03 03 17 3B 80 03  ...9....:....;..
07C0: 04 17 3C 80 03 0C 17 3D  80 24 3E 80 01 80 01 80  ..<....=.$>.....
07D0: 25 02 00 10 01 80 00 EF  07 03 00 17 01 17 1A A6  %...............
07E0: 12 02 01 00 01 80 01 EC  07 01 AD 07 01 57 08 02  .............W..
07F0: 00 10 0A 80 00 0D 08 03  00 17 02 17 1A A6 12 02  ................
0800: 01 00 01 80 01 0A 08 01  AD 07 01 57 08 02 00 10  ...........W....
0810: 0C 80 00 2B 08 03 00 17  03 17 1A A6 12 02 01 00  ...+............
0820: 01 80 01 28 08 01 AD 07  01 57 08 02 00 10 0D 80  ...(.....W......
0830: 00 49 08 03 00 17 04 17  1A A6 12 02 01 00 01 80  .I..............
0840: 01 46 08 01 AD 07 01 57  08 02 00 10 08 80 00 57  .F.....W.......W
0850: 08 01 10 01 01 57 08 01  10 0D 02 00 10 08 80 00  .....W..........
0860: F5 08 40 08 80 09 80 01  10 08 80 06 01 00 03 01  ..@.............
0870: 17 3F 80 03 02 17 40 80  03 03 17 41 80 03 0C 17  .?....@....A....
0880: 42 80 24 38 80 01 80 01  80 25 02 00 10 01 80 00  B.$8.....%......
0890: A8 08 03 00 17 01 17 1A  C0 13 02 01 00 01 80 01  ................
08A0: A5 08 01 6B 08 01 F2 08  02 00 10 0A 80 00 C6 08  ...k............
08B0: 03 00 17 02 17 1A C0 13  02 01 00 01 80 01 C3 08  ................
08C0: 01 6B 08 01 F2 08 02 00  10 0C 80 00 E4 08 03 00  .k..............
08D0: 17 03 17 1A C0 13 02 01  00 01 80 01 E1 08 01 6B  ...............k
08E0: 08 01 F2 08 02 00 10 0D  80 00 F2 08 01 10 01 01  ................
08F0: F2 08 01 10 0D 02 00 10  29 80 00 90 09 40 08 80  ........)....@..
0900: 09 80 01 10 29 80 06 01  00 03 01 17 43 80 03 02  ....).......C...
0910: 17 44 80 03 03 17 45 80  03 0C 17 46 80 24 38 80  .D....E....F.$8.
0920: 01 80 01 80 25 02 00 10  01 80 00 43 09 03 00 17  ....%......C....
0930: 01 17 1A A3 14 02 01 00  01 80 01 40 09 01 06 09  ...........@....
0940: 01 8D 09 02 00 10 0A 80  00 61 09 03 00 17 02 17  .........a......
0950: 1A A3 14 02 01 00 01 80  01 5E 09 01 06 09 01 8D  .........^......
0960: 09 02 00 10 0C 80 00 7F  09 03 00 17 03 17 1A A3  ................
0970: 14 02 01 00 01 80 01 7C  09 01 06 09 01 8D 09 02  .......|........
0980: 00 10 0D 80 00 8D 09 01  10 01 01 8D 09 01 10 0D  ................
0990: 02 00 10 2A 80 00 2B 0A  40 08 80 09 80 01 10 2A  ...*..+.@......*
09A0: 80 06 01 00 03 01 17 47  80 03 02 17 48 80 03 03  .......G....H...
09B0: 17 49 80 03 0C 17 4A 80  24 38 80 01 80 01 80 25  .I....J.$8.....%
09C0: 02 00 10 01 80 00 DE 09  03 00 17 01 17 1A 86 15  ................
09D0: 02 01 00 01 80 01 DB 09  01 A1 09 01 28 0A 02 00  ............(...
09E0: 10 0A 80 00 FC 09 03 00  17 02 17 1A 86 15 02 01  ................
09F0: 00 01 80 01 F9 09 01 A1  09 01 28 0A 02 00 10 0C  ..........(.....
0A00: 80 00 1A 0A 03 00 17 03  17 1A 86 15 02 01 00 01  ................
0A10: 80 01 17 0A 01 A1 09 01  28 0A 02 00 10 0D 80 00  ........(.......
0A20: 28 0A 01 10 01 01 28 0A  01 10 0D 02 00 10 09 80  (.....(.........
0A30: 00 C6 0A 40 08 80 09 80  01 10 09 80 06 01 00 03  ...@............
0A40: 01 17 4B 80 03 02 17 4C  80 03 03 17 4D 80 03 0C  ..K....L....M...
0A50: 17 4E 80 24 38 80 01 80  01 80 25 02 00 10 01 80  .N.$8.....%.....
0A60: 00 79 0A 03 00 17 01 17  1A 69 16 02 01 00 01 80  .y.......i......
0A70: 01 76 0A 01 3C 0A 01 C3  0A 02 00 10 0A 80 00 97  .v..<...........
0A80: 0A 03 00 17 02 17 1A 69  16 02 01 00 01 80 01 94  .......i........
0A90: 0A 01 3C 0A 01 C3 0A 02  00 10 0C 80 00 B5 0A 03  ..<.............
0AA0: 00 17 03 17 1A 69 16 02  01 00 01 80 01 B2 0A 01  .....i..........
0AB0: 3C 0A 01 C3 0A 02 00 10  0D 80 00 C3 0A 01 10 01  <...............
0AC0: 01 C3 0A 01 10 0D 02 00  10 2B 80 00 84 0B 40 08  .........+....@.
0AD0: 80 09 80 01 10 2B 80 06  01 00 03 01 17 4F 80 03  .....+.......O..
0AE0: 02 17 50 80 03 03 17 51  80 03 04 17 52 80 03 0C  ..P....Q....R...
0AF0: 17 53 80 24 3E 80 01 80  01 80 25 02 00 10 01 80  .S.$>.....%.....
0B00: 00 19 0B 03 00 17 01 17  1A 4C 17 02 01 00 01 80  .........L......
0B10: 01 16 0B 01 D7 0A 01 81  0B 02 00 10 0A 80 00 37  ...............7
0B20: 0B 03 00 17 02 17 1A 4C  17 02 01 00 01 80 01 34  .......L.......4
0B30: 0B 01 D7 0A 01 81 0B 02  00 10 0C 80 00 55 0B 03  .............U..
0B40: 00 17 03 17 1A 4C 17 02  01 00 01 80 01 52 0B 01  .....L.......R..
0B50: D7 0A 01 81 0B 02 00 10  0D 80 00 73 0B 03 00 17  ...........s....
0B60: 04 17 1A 4C 17 02 01 00  01 80 01 70 0B 01 D7 0A  ...L.......p....
0B70: 01 81 0B 02 00 10 08 80  00 81 0B 01 10 01 01 81  ................
0B80: 0B 01 10 0D 02 00 10 2C  80 00 65 0C 40 08 80 09  .......,..e.@...
0B90: 80 01 10 2C 80 06 01 00  03 01 17 54 80 03 02 17  ...,.......T....
0BA0: 55 80 03 03 17 56 80 03  04 17 57 80 03 05 17 58  U....V....W....X
0BB0: 80 03 0C 17 53 80 24 59  80 01 80 01 80 25 02 00  ....S.$Y.....%..
0BC0: 10 01 80 00 DC 0B 03 00  17 01 17 1A 2F 18 02 01  ............/...
0BD0: 00 01 80 01 D9 0B 01 95  0B 01 62 0C 02 00 10 0A  ..........b.....
0BE0: 80 00 FA 0B 03 00 17 02  17 1A 2F 18 02 01 00 01  ........../.....
0BF0: 80 01 F7 0B 01 95 0B 01  62 0C 02 00 10 0C 80 00  ........b.......
0C00: 18 0C 03 00 17 03 17 1A  2F 18 02 01 00 01 80 01  ......../.......
0C10: 15 0C 01 95 0B 01 62 0C  02 00 10 0D 80 00 36 0C  ......b.......6.
0C20: 03 00 17 04 17 1A 2F 18  02 01 00 01 80 01 33 0C  ....../.......3.
0C30: 01 95 0B 01 62 0C 02 00  10 08 80 00 54 0C 03 00  ....b.......T...
0C40: 17 05 17 1A 2F 18 02 01  00 01 80 01 51 0C 01 95  ..../.......Q...
0C50: 0B 01 62 0C 02 00 10 29  80 00 62 0C 01 10 01 01  ..b....)..b.....
0C60: 62 0C 01 10 0D 02 00 10  1D 80 00 00 0D 40 08 80  b............@..
0C70: 09 80 01 10 1D 80 06 01  00 03 01 17 5A 80 03 02  ............Z...
0C80: 17 5B 80 03 03 17 5C 80  03 0C 17 5D 80 24 38 80  .[....\....].$8.
0C90: 01 80 01 80 25 02 00 10  01 80 00 B3 0C 03 00 17  ....%...........
0CA0: 01 17 1A 12 19 02 01 00  01 80 01 B0 0C 01 76 0C  ..............v.
0CB0: 01 FD 0C 02 00 10 0A 80  00 D1 0C 03 00 17 02 17  ................
0CC0: 1A 12 19 02 01 00 01 80  01 CE 0C 01 76 0C 01 FD  ............v...
0CD0: 0C 02 00 10 0C 80 00 EF  0C 03 00 17 03 17 1A 12  ................
0CE0: 19 02 01 00 01 80 01 EC  0C 01 76 0C 01 FD 0C 02  ..........v.....
0CF0: 00 10 0D 80 00 FD 0C 01  10 01 01 FD 0C 01 10 0D  ................
0D00: 02 00 10 13 80 00 10 0D  03 01 10 2F 80 01 10 0D  .........../....
0D10: 01 22 11 02 00 10 0C 80  00 FC 0F 03 02 10 07 00  ."..............
0D20: 1D 5E 80 23 40 01 80 0D  80 01 10 0C 80 24 5F 80  .^.#@........$_.
0D30: 01 80 01 80 25 02 00 10  01 80 00 E3 0D 40 08 80  ....%........@..
0D40: 09 80 01 10 01 80 03 02  10 07 00 06 01 00 03 01  ................
0D50: 17 60 80 03 02 17 61 80  03 03 17 62 80 03 0C 17  .`....a....b....
0D60: 63 80 03 0D 17 1D 80 03  0E 17 64 80 24 65 80 01  c.........d.$e..
0D70: 80 01 80 25 02 00 10 01  80 00 97 0D 03 00 17 01  ...%............
0D80: 17 03 00 00 0C 17 1A F5  19 02 01 00 01 80 01 94  ................
0D90: 0D 01 46 0D 01 E0 0D 02  00 10 0A 80 00 BA 0D 03  ..F.............
0DA0: 00 17 02 17 03 00 00 0D  17 1A F5 19 02 01 00 01  ................
0DB0: 80 01 B7 0D 01 46 0D 01  E0 0D 02 00 10 0C 80 00  .....F..........
0DC0: DD 0D 03 00 17 03 17 03  00 00 0E 17 1A F5 19 02  ................
0DD0: 01 00 01 80 01 DA 0D 01  46 0D 01 E0 0D 01 2D 0D  ........F.....-.
0DE0: 01 F9 0F 02 00 10 0A 80  00 F4 0F 40 08 80 09 80  ...........@....
0DF0: 01 10 0A 80 06 01 00 03  02 10 07 00 03 01 17 66  ...............f
0E00: 80 03 02 17 67 80 03 03  17 68 80 03 04 17 69 80  ....g....h....i.
0E10: 03 05 17 6A 80 03 06 17  6B 80 03 07 17 6C 80 03  ...j....k....l..
0E20: 08 17 6D 80 03 09 17 6E  80 03 0A 17 6F 80 03 0B  ..m....n....o...
0E30: 17 70 80 03 0C 17 71 80  03 0D 17 72 80 03 0E 17  .p....q....r....
0E40: 73 80 24 74 80 01 80 01  80 25 02 00 10 01 80 00  s.$t.....%......
0E50: 68 0E 03 00 17 01 17 1A  43 1A 02 01 00 01 80 01  h.......C.......
0E60: 65 0E 01 F4 0D 01 F1 0F  02 00 10 0A 80 00 86 0E  e...............
0E70: 03 00 17 02 17 1A 43 1A  02 01 00 01 80 01 83 0E  ......C.........
0E80: 01 F4 0D 01 F1 0F 02 00  10 0C 80 00 A4 0E 03 00  ................
0E90: 17 03 17 1A 43 1A 02 01  00 01 80 01 A1 0E 01 F4  ....C...........
0EA0: 0D 01 F1 0F 02 00 10 0D  80 00 C2 0E 03 00 17 04  ................
0EB0: 17 1A 43 1A 02 01 00 01  80 01 BF 0E 01 F4 0D 01  ..C.............
0EC0: F1 0F 02 00 10 08 80 00  E0 0E 03 00 17 05 17 1A  ................
0ED0: 43 1A 02 01 00 01 80 01  DD 0E 01 F4 0D 01 F1 0F  C...............
0EE0: 02 00 10 29 80 00 FE 0E  03 00 17 06 17 1A 43 1A  ...)..........C.
0EF0: 02 01 00 01 80 01 FB 0E  01 F4 0D 01 F1 0F 02 00  ................
0F00: 10 2A 80 00 1C 0F 03 00  17 07 17 1A 43 1A 02 01  .*..........C...
0F10: 00 01 80 01 19 0F 01 F4  0D 01 F1 0F 02 00 10 09  ................
0F20: 80 00 3A 0F 03 00 17 08  17 1A 43 1A 02 01 00 01  ..:.......C.....
0F30: 80 01 37 0F 01 F4 0D 01  F1 0F 02 00 10 2B 80 00  ..7..........+..
0F40: 58 0F 03 00 17 09 17 1A  43 1A 02 01 00 01 80 01  X.......C.......
0F50: 55 0F 01 F4 0D 01 F1 0F  02 00 10 2C 80 00 76 0F  U..........,..v.
0F60: 03 00 17 0A 17 1A 43 1A  02 01 00 01 80 01 73 0F  ......C.......s.
0F70: 01 F4 0D 01 F1 0F 02 00  10 1D 80 00 94 0F 03 00  ................
0F80: 17 0B 17 1A 43 1A 02 01  00 01 80 01 91 0F 01 F4  ....C...........
0F90: 0D 01 F1 0F 02 00 10 13  80 00 B2 0F 03 00 17 0C  ................
0FA0: 17 1A 43 1A 02 01 00 01  80 01 AF 0F 01 F4 0D 01  ..C.............
0FB0: F1 0F 02 00 10 75 80 00  D0 0F 03 00 17 0D 17 1A  .....u..........
0FC0: 43 1A 02 01 00 01 80 01  CD 0F 01 F4 0D 01 F1 0F  C...............
0FD0: 02 00 10 76 80 00 EE 0F  03 00 17 0E 17 1A 43 1A  ...v..........C.
0FE0: 02 01 00 01 80 01 EB 0F  01 F4 0D 01 F1 0F 01 2D  ...............-
0FF0: 0D 01 F9 0F 03 01 10 2F  80 01 22 11 02 00 10 0D  ......./..".....
1000: 80 00 12 11 24 77 80 01  80 01 80 25 02 00 10 01  ....$w.....%....
1010: 80 00 17 10 01 0A 11 02  00 10 0A 80 00 39 10 1D  .............9..
1020: 78 80 23 1D 79 80 23 1D  7A 80 23 1D 7B 80 23 1D  x.#.y.#.z.#.{.#.
1030: 7C 80 23 01 04 10 01 0A  11 02 00 10 0C 80 00 57  |.#............W
1040: 10 1D 7D 80 23 1D 7E 80  23 1D 7F 80 23 1D 80 80  ..}.#.~.#...#...
1050: 23 01 04 10 01 0A 11 02  00 10 0D 80 00 0A 11 24  #..............$
1060: 81 80 01 80 01 80 25 02  00 10 01 80 00 75 10 01  ......%......u..
1070: 04 10 01 04 11 02 00 10  0A 80 00 98 10 1D 82 80  ................
1080: 23 1D 83 80 23 1D 84 80  23 1D 85 80 23 1D 86 80  #...#...#...#...
1090: 23 1D 87 80 23 01 04 11  02 00 10 0C 80 00 B7 10  #...#...........
10A0: 1D 88 80 23 1D 89 80 23  1D 8A 80 23 1D 8B 80 23  ...#...#...#...#
10B0: 1D 8C 80 23 01 04 11 02  00 10 0D 80 00 DA 10 1D  ...#............
10C0: 8D 80 23 1D 8E 80 23 1D  8F 80 23 1D 90 80 23 1D  ..#...#...#...#.
10D0: 91 80 23 1D 92 80 23 01  04 11 02 00 10 08 80 00  ..#...#.........
10E0: F5 10 1D 93 80 23 1D 94  80 23 1D 95 80 23 1D 96  .....#...#...#..
10F0: 80 23 01 04 11 02 00 10  29 80 00 04 11 1D 97 80  .#......).......
1100: 23 01 04 11 01 5F 10 01  0A 11 03 01 10 2F 80 01  #...._......./..
1110: 22 11 02 00 10 08 80 00  22 11 03 01 10 2F 80 01  "......."..../..
1120: 22 11 21 00                                       ".!.            
```

#### Opcodes

```
  0: 0x0001 [0x03] ExtData[1]->WorkLocal[6] = Work_Zone[2]
  1: 0x0006 [0x03] ExtData[1]->WorkLocal[7] = Work_Zone[5]
  2: 0x000B [0x41] ExtData[1]->WorkLocal[5] = Work_Zone[3] (bits 30*-30*)
  3: 0x0014 [0x03] Work_Zone[1] = 0*
  4: 0x0019 [0x1E] EventEntity looks at LocalPlayer and starts talking
  5: 0x001E [0x1D] PRINT_EVENT_MESSAGE(message_id=10780*)
    → "I'm %, a soldier of the great Empire of Aht Urhgan. Pray tell, why have you come all the way to this forsaken land?"
  6: 0x0021 [0x23] WAIT_FOR_DIALOG_INTERACTION
  7: 0x0022 [0x24] CREATE_DIALOG(message_id=10784*, default_option=0*, option_flags=0*)
    → "What is your business? [I want to receive Sanction./I want to spend my credits./I want to spend my accolades./I have some questions.../Nothing, sorry to bother you.]"
  8: 0x0029 [0x25] WAIT_DIALOG_SELECT()
  9: 0x002A [0x02] IF !(Work_Zone[0] == 0*) GOTO 0x00F6
 10: 0x0032 [0x3E] IF !(Work_Zone[3] bit 31*) GOTO 0x00CE
 11: 0x0039 [0x03] Work_Zone_1700[0] = 100*
 12: 0x003E [0x1D] PRINT_EVENT_MESSAGE(message_id=10786*)
    → "The Astral Candescence is now in Al Zahbi, so you will receive an experience bonus from battles. You can also select one of the following bonuses in exchange for a slight decrease in your Imperial Standing."
 13: 0x0041 [0x23] WAIT_FOR_DIALOG_INTERACTION
 14: 0x0042 [0x24] CREATE_DIALOG(message_id=10787*, default_option=0*, option_flags=0*)
    → "Choose a bonus for $8 [credit/credits]? [Not now./Regen./Refresh./Increased meal duration.]"
 15: 0x0049 [0x25] WAIT_DIALOG_SELECT()
 16: 0x004A [0x02] IF !(Work_Zone[0] == 0*) GOTO 0x005F
 17: 0x0052 [0x42] SET_CLI_EVENT_CANCEL_DATA()
 18: 0x0053 [0x40] SET_BIT_WORK_RANGE(start_bit=4*, end_bit=7*, target=Work_Zone[1], source=0*)
 19: 0x005C [0x01] GOTO 0x00CB
 20: 0x005F [0x02] IF !(Work_Zone[0] == 1*) GOTO 0x0083
 21: 0x0067 [0x42] SET_CLI_EVENT_CANCEL_DATA()
 22: 0x0068 [0x02] IF !(Work_Zone[2] >= 100*) GOTO 0x0077
 23: 0x0070 [0x1D] PRINT_EVENT_MESSAGE(message_id=10789*)
    → "You do not have enough Imperial Standing credits to receive the bonus."
 24: 0x0073 [0x23] WAIT_FOR_DIALOG_INTERACTION
 25: 0x0074 [0x01] GOTO 0x0080
 26: 0x0077 [0x40] SET_BIT_WORK_RANGE(start_bit=4*, end_bit=7*, target=Work_Zone[1], source=1*)

SUBROUTINE_0080:
 27: 0x0080 [0x01] GOTO 0x00CB
 28: 0x0083 [0x02] IF !(Work_Zone[0] == 2*) GOTO 0x00A7
 29: 0x008B [0x42] SET_CLI_EVENT_CANCEL_DATA()
 30: 0x008C [0x02] IF !(Work_Zone[2] >= 100*) GOTO 0x009B
 31: 0x0094 [0x1D] PRINT_EVENT_MESSAGE(message_id=10789*)
    → "You do not have enough Imperial Standing credits to receive the bonus."
 32: 0x0097 [0x23] WAIT_FOR_DIALOG_INTERACTION
 33: 0x0098 [0x01] GOTO 0x00A4
 34: 0x009B [0x40] SET_BIT_WORK_RANGE(start_bit=4*, end_bit=7*, target=Work_Zone[1], source=2*)

SUBROUTINE_00A4:
 35: 0x00A4 [0x01] GOTO 0x00CB
 36: 0x00A7 [0x02] IF !(Work_Zone[0] == 3*) GOTO 0x00CB
 37: 0x00AF [0x42] SET_CLI_EVENT_CANCEL_DATA()
 38: 0x00B0 [0x02] IF !(Work_Zone[2] >= 100*) GOTO 0x00BF
 39: 0x00B8 [0x1D] PRINT_EVENT_MESSAGE(message_id=10789*)
    → "You do not have enough Imperial Standing credits to receive the bonus."
 40: 0x00BB [0x23] WAIT_FOR_DIALOG_INTERACTION
 41: 0x00BC [0x01] GOTO 0x00C8
 42: 0x00BF [0x40] SET_BIT_WORK_RANGE(start_bit=4*, end_bit=7*, target=Work_Zone[1], source=3*)

SUBROUTINE_00C8:
 43: 0x00C8 [0x01] GOTO 0x00CB

SUBROUTINE_00CB:
 44: 0x00CB [0x01] GOTO 0x00E5
 45: 0x00CE [0x42] SET_CLI_EVENT_CANCEL_DATA()
 46: 0x00CF [0x1D] PRINT_EVENT_MESSAGE(message_id=10785*)
    → "I will bestow upon you the Empire's Sanction. Good luck."
 47: 0x00D2 [0x23] WAIT_FOR_DIALOG_INTERACTION
 48: 0x00D3 [0x40] SET_BIT_WORK_RANGE(start_bit=0*, end_bit=3*, target=Work_Zone[1], source=0*)
 49: 0x00DC [0x40] SET_BIT_WORK_RANGE(start_bit=4*, end_bit=7*, target=Work_Zone[1], source=0*)

SUBROUTINE_00E5:
 50: 0x00E5 [0x73] EventEntity casts magic 497* on LocalPlayer
 51: 0x00F0 [0x1C] WAIT(260* ticks)
 52: 0x00F3 [0x01] GOTO 0x1122
 53: 0x00F6 [0x02] IF !(Work_Zone[0] == 1*) GOTO 0x0D13
 54: 0x00FE [0x03] Work_Zone[2] = ExtData[1]->WorkLocal[6]
 55: 0x0103 [0x1D] PRINT_EVENT_MESSAGE(message_id=10791*)
    → "You currently possess $0 [Imperial Standing credit/Imperial Standing credits]. Would you like to use them to purchase items?"
 56: 0x0106 [0x23] WAIT_FOR_DIALOG_INTERACTION
 57: 0x0107 [0x40] SET_BIT_WORK_RANGE(start_bit=0*, end_bit=3*, target=Work_Zone[1], source=1*)

SUBROUTINE_0110:
 58: 0x0110 [0x03] ExtData[1]->WorkLocal[2] = 0*
 59: 0x0115 [0x24] CREATE_DIALOG(message_id=10793*, default_option=0*, option_flags=0*)
    → "Which item do you wish to purchase? [Common items (All ranks)./1000-pt. items (Private 2nd Class)."000-pt. items (Private 1st Class)./4000-pt. items (Superior Private)./8000-pt. items (Lance Corporal)./16000-pt. items (Corporal)."4000-pt. items (Sergeant)."2000-pt. items (Sergeant Major)./40000-pt. items (Chief Sergeant)./48000-pt. items (Second Lieutenant)./56000-pt. items (First Lieutenant)./Cancel.]"
 60: 0x011C [0x25] WAIT_DIALOG_SELECT()
 61: 0x011D [0x02] IF !(Work_Zone[0] == 0*) GOTO 0x0649
 62: 0x0125 [0x40] SET_BIT_WORK_RANGE(start_bit=4*, end_bit=11*, target=Work_Zone[1], source=0*)

SUBROUTINE_012E:
 63: 0x012E [0x06] ExtData[1]->WorkLocal[1] = 0
 64: 0x0131 [0x02] IF !(ExtData[1]->WorkLocal[2] == 0*) GOTO 0x0196
 65: 0x0139 [0x03] Work_Zone_1700[1] = 4182*
 66: 0x013E [0x03] Work_Zone_1700[2] = 4181*
 67: 0x0143 [0x03] Work_Zone_1700[3] = 2230*
 68: 0x0148 [0x03] Work_Zone_1700[4] = 2231*
 69: 0x014D [0x03] Work_Zone_1700[5] = 2232*
 70: 0x0152 [0x03] Work_Zone_1700[6] = 2233*
 71: 0x0157 [0x03] Work_Zone_1700[7] = 19021*
 72: 0x015C [0x03] Work_Zone_1700[8] = 19022*
 73: 0x0161 [0x03] Work_Zone_1700[9] = 19023*
 74: 0x0166 [0x03] Work_Zone_1700[12] = 7*
 75: 0x016B [0x03] Work_Zone_1700[13] = 10*
 76: 0x0170 [0x03] Work_Zone_1700[14] = 100*
 77: 0x0175 [0x03] Work_Zone_1700[15] = 100*
 78: 0x017A [0x03] Work_Zone_1700[16] = 100*
 79: 0x017F [0x03] Work_Zone_1700[17] = 100*
 80: 0x0184 [0x03] Work_Zone_1700[18] = 20000*
 81: 0x0189 [0x03] Work_Zone_1700[19] = 20000*
 82: 0x018E [0x03] Work_Zone_1700[20] = 20000*
 83: 0x0193 [0x01] GOTO 0x01FB
 84: 0x0196 [0x02] IF !(ExtData[1]->WorkLocal[2] == 1*) GOTO 0x01FB
 85: 0x019E [0x03] Work_Zone_1700[1] = 3307*
 86: 0x01A3 [0x03] Work_Zone_1700[2] = 3308*
 87: 0x01A8 [0x03] Work_Zone_1700[3] = 3309*
 88: 0x01AD [0x03] Work_Zone_1700[4] = 0*
 89: 0x01B2 [0x03] Work_Zone_1700[5] = 3311*
 90: 0x01B7 [0x03] Work_Zone_1700[6] = 6409*
 91: 0x01BC [0x03] Work_Zone_1700[7] = 0*
 92: 0x01C1 [0x03] Work_Zone_1700[8] = 0*
 93: 0x01C6 [0x03] Work_Zone_1700[9] = 10115*
 94: 0x01CB [0x03] Work_Zone_1700[12] = 5000*
 95: 0x01D0 [0x03] Work_Zone_1700[13] = 5000*
 96: 0x01D5 [0x03] Work_Zone_1700[14] = 5000*
 97: 0x01DA [0x03] Work_Zone_1700[15] = 5000*
 98: 0x01DF [0x03] Work_Zone_1700[16] = 5000*
 99: 0x01E4 [0x03] Work_Zone_1700[17] = 50000*
100: 0x01E9 [0x03] Work_Zone_1700[18] = 5000*
101: 0x01EE [0x03] Work_Zone_1700[19] = 5000*
102: 0x01F3 [0x03] Work_Zone_1700[20] = 2000*
103: 0x01F8 [0x01] GOTO 0x01FB

SUBROUTINE_01FB:
104: 0x01FB [0x02] IF !(ExtData[1]->WorkLocal[5] == 0*) GOTO 0x0210
105: 0x0203 [0x02] IF !(ExtData[1]->WorkLocal[2] == 1*) GOTO 0x0210
106: 0x020B [0x03] Work_Zone_1700[9] = 0*
107: 0x0210 [0x03] ExtData[1]->WorkLocal[4] = 4294967295*
108: 0x0215 [0x02] IF !(Work_Zone_1700[1] == 0*) GOTO 0x0224
109: 0x021D [0x3D] CLEAR_BIT_FLAG_CONDITIONAL(target_work_offset=ExtData[1]->WorkLocal[4], bit_index_work_offset=0*, condition_work_offset=1*)
110: 0x0224 [0x02] IF !(Work_Zone_1700[2] == 0*) GOTO 0x0233
111: 0x022C [0x3D] CLEAR_BIT_FLAG_CONDITIONAL(target_work_offset=ExtData[1]->WorkLocal[4], bit_index_work_offset=1*, condition_work_offset=1*)
112: 0x0233 [0x02] IF !(Work_Zone_1700[3] == 0*) GOTO 0x0242
113: 0x023B [0x3D] CLEAR_BIT_FLAG_CONDITIONAL(target_work_offset=ExtData[1]->WorkLocal[4], bit_index_work_offset=2*, condition_work_offset=1*)
114: 0x0242 [0x02] IF !(Work_Zone_1700[4] == 0*) GOTO 0x0251
115: 0x024A [0x3D] CLEAR_BIT_FLAG_CONDITIONAL(target_work_offset=ExtData[1]->WorkLocal[4], bit_index_work_offset=3*, condition_work_offset=1*)
116: 0x0251 [0x02] IF !(Work_Zone_1700[5] == 0*) GOTO 0x0260
117: 0x0259 [0x3D] CLEAR_BIT_FLAG_CONDITIONAL(target_work_offset=ExtData[1]->WorkLocal[4], bit_index_work_offset=4*, condition_work_offset=1*)
118: 0x0260 [0x02] IF !(Work_Zone_1700[6] == 0*) GOTO 0x026F
119: 0x0268 [0x3D] CLEAR_BIT_FLAG_CONDITIONAL(target_work_offset=ExtData[1]->WorkLocal[4], bit_index_work_offset=5*, condition_work_offset=1*)
120: 0x026F [0x02] IF !(Work_Zone_1700[7] == 0*) GOTO 0x027E
121: 0x0277 [0x3D] CLEAR_BIT_FLAG_CONDITIONAL(target_work_offset=ExtData[1]->WorkLocal[4], bit_index_work_offset=6*, condition_work_offset=1*)
122: 0x027E [0x02] IF !(Work_Zone_1700[8] == 0*) GOTO 0x028D
123: 0x0286 [0x3D] CLEAR_BIT_FLAG_CONDITIONAL(target_work_offset=ExtData[1]->WorkLocal[4], bit_index_work_offset=7*, condition_work_offset=1*)
124: 0x028D [0x02] IF !(Work_Zone_1700[9] == 0*) GOTO 0x029C
125: 0x0295 [0x3D] CLEAR_BIT_FLAG_CONDITIONAL(target_work_offset=ExtData[1]->WorkLocal[4], bit_index_work_offset=8*, condition_work_offset=1*)
126: 0x029C [0x02] IF !(ExtData[1]->WorkLocal[2] == 0*) GOTO 0x02AE
127: 0x02A4 [0x3D] CLEAR_BIT_FLAG_CONDITIONAL(target_work_offset=ExtData[1]->WorkLocal[4], bit_index_work_offset=9*, condition_work_offset=1*)
128: 0x02AB [0x01] GOTO 0x02C7
129: 0x02AE [0x02] IF !(ExtData[1]->WorkLocal[2] == 1*) GOTO 0x02C0
130: 0x02B6 [0x3D] CLEAR_BIT_FLAG_CONDITIONAL(target_work_offset=ExtData[1]->WorkLocal[4], bit_index_work_offset=10*, condition_work_offset=1*)
131: 0x02BD [0x01] GOTO 0x02C7
132: 0x02C0 [0x3D] CLEAR_BIT_FLAG_CONDITIONAL(target_work_offset=ExtData[1]->WorkLocal[4], bit_index_work_offset=10*, condition_work_offset=1*)

SUBROUTINE_02C7:
133: 0x02C7 [0x3D] CLEAR_BIT_FLAG_CONDITIONAL(target_work_offset=ExtData[1]->WorkLocal[4], bit_index_work_offset=11*, condition_work_offset=1*)
134: 0x02CE [0x02] IF !(ExtData[1]->WorkLocal[2] == 0*) GOTO 0x044C
135: 0x02D6 [0x24] CREATE_DIALOG(message_id=10814*, default_option=0*, option_flags=ExtData[1]->WorkLocal[4])
    → "Which item do you wish to purchase? [$9 ($20 credits)./$10 ($21 credits)./$11 ($22 credits)./$12 ($23 credits)./$13 ($24 credits)./$14 ($25 credits)./$15 ($26 credits)./$16 ($27 credits)./$17 ($28 credits)./Next page./Previous page./Back.]"
136: 0x02DD [0x25] WAIT_DIALOG_SELECT()
137: 0x02DE [0x02] IF !(Work_Zone[0] == 0*) GOTO 0x0301
138: 0x02E6 [0x03] Work_Zone_1700[0] = Work_Zone_1700[1]
139: 0x02EB [0x03] ExtData[1]->WorkLocal[0] = 7*
140: 0x02F0 [0x1A] CALL_SUBROUTINE(address=0x1133)
141: 0x02F3 [0x02] IF !(ExtData[1]->WorkLocal[1] == 0*) GOTO 0x02FE
142: 0x02FB [0x01] GOTO 0x012E
143: 0x02FE [0x01] GOTO 0x0449
144: 0x0301 [0x02] IF !(Work_Zone[0] == 1*) GOTO 0x0324
145: 0x0309 [0x03] Work_Zone_1700[0] = Work_Zone_1700[2]
146: 0x030E [0x03] ExtData[1]->WorkLocal[0] = 10*
147: 0x0313 [0x1A] CALL_SUBROUTINE(address=0x1133)
148: 0x0316 [0x02] IF !(ExtData[1]->WorkLocal[1] == 0*) GOTO 0x0321
149: 0x031E [0x01] GOTO 0x012E
150: 0x0321 [0x01] GOTO 0x0449
151: 0x0324 [0x02] IF !(Work_Zone[0] == 2*) GOTO 0x0347
152: 0x032C [0x03] Work_Zone_1700[0] = Work_Zone_1700[3]
153: 0x0331 [0x03] ExtData[1]->WorkLocal[0] = 100*
154: 0x0336 [0x1A] CALL_SUBROUTINE(address=0x1133)
155: 0x0339 [0x02] IF !(ExtData[1]->WorkLocal[1] == 0*) GOTO 0x0344
156: 0x0341 [0x01] GOTO 0x012E
157: 0x0344 [0x01] GOTO 0x0449
158: 0x0347 [0x02] IF !(Work_Zone[0] == 3*) GOTO 0x036A
159: 0x034F [0x03] Work_Zone_1700[0] = Work_Zone_1700[4]
160: 0x0354 [0x03] ExtData[1]->WorkLocal[0] = 100*
161: 0x0359 [0x1A] CALL_SUBROUTINE(address=0x1133)
162: 0x035C [0x02] IF !(ExtData[1]->WorkLocal[1] == 0*) GOTO 0x0367
163: 0x0364 [0x01] GOTO 0x012E
164: 0x0367 [0x01] GOTO 0x0449
165: 0x036A [0x02] IF !(Work_Zone[0] == 4*) GOTO 0x038D
166: 0x0372 [0x03] Work_Zone_1700[0] = Work_Zone_1700[5]
167: 0x0377 [0x03] ExtData[1]->WorkLocal[0] = 100*
168: 0x037C [0x1A] CALL_SUBROUTINE(address=0x1133)
169: 0x037F [0x02] IF !(ExtData[1]->WorkLocal[1] == 0*) GOTO 0x038A
170: 0x0387 [0x01] GOTO 0x012E
171: 0x038A [0x01] GOTO 0x0449
172: 0x038D [0x02] IF !(Work_Zone[0] == 5*) GOTO 0x03B0
173: 0x0395 [0x03] Work_Zone_1700[0] = Work_Zone_1700[6]
174: 0x039A [0x03] ExtData[1]->WorkLocal[0] = 100*
175: 0x039F [0x1A] CALL_SUBROUTINE(address=0x1133)
176: 0x03A2 [0x02] IF !(ExtData[1]->WorkLocal[1] == 0*) GOTO 0x03AD
177: 0x03AA [0x01] GOTO 0x012E
178: 0x03AD [0x01] GOTO 0x0449
179: 0x03B0 [0x02] IF !(Work_Zone[0] == 6*) GOTO 0x03D3
180: 0x03B8 [0x03] Work_Zone_1700[0] = Work_Zone_1700[7]
181: 0x03BD [0x03] ExtData[1]->WorkLocal[0] = 20000*
182: 0x03C2 [0x1A] CALL_SUBROUTINE(address=0x1133)
183: 0x03C5 [0x02] IF !(ExtData[1]->WorkLocal[1] == 0*) GOTO 0x03D0
184: 0x03CD [0x01] GOTO 0x012E
185: 0x03D0 [0x01] GOTO 0x0449
186: 0x03D3 [0x02] IF !(Work_Zone[0] == 7*) GOTO 0x03F6
187: 0x03DB [0x03] Work_Zone_1700[0] = Work_Zone_1700[8]
188: 0x03E0 [0x03] ExtData[1]->WorkLocal[0] = 20000*
189: 0x03E5 [0x1A] CALL_SUBROUTINE(address=0x1133)
190: 0x03E8 [0x02] IF !(ExtData[1]->WorkLocal[1] == 0*) GOTO 0x03F3
191: 0x03F0 [0x01] GOTO 0x012E
192: 0x03F3 [0x01] GOTO 0x0449
193: 0x03F6 [0x02] IF !(Work_Zone[0] == 8*) GOTO 0x0419
194: 0x03FE [0x03] Work_Zone_1700[0] = Work_Zone_1700[9]
195: 0x0403 [0x03] ExtData[1]->WorkLocal[0] = 20000*
196: 0x0408 [0x1A] CALL_SUBROUTINE(address=0x1133)
197: 0x040B [0x02] IF !(ExtData[1]->WorkLocal[1] == 0*) GOTO 0x0416
198: 0x0413 [0x01] GOTO 0x012E
199: 0x0416 [0x01] GOTO 0x0449
200: 0x0419 [0x02] IF !(Work_Zone[0] == 9*) GOTO 0x042A
201: 0x0421 [0x0B] ExtData[1]->WorkLocal[2]++
202: 0x0424 [0x01] GOTO 0x012E

SUBROUTINE_0449:
203: 0x0449 [0x01] GOTO 0x0646
204: 0x044C [0x24] CREATE_DIALOG(message_id=10814*, default_option=0*, option_flags=ExtData[1]->WorkLocal[4])
    → "Which item do you wish to purchase? [$9 ($20 credits)./$10 ($21 credits)./$11 ($22 credits)./$12 ($23 credits)./$13 ($24 credits)./$14 ($25 credits)./$15 ($26 credits)./$16 ($27 credits)./$17 ($28 credits)./Next page./Previous page./Back.]"
205: 0x0453 [0x25] WAIT_DIALOG_SELECT()
206: 0x0454 [0x02] IF !(Work_Zone[0] == 0*) GOTO 0x0486
207: 0x045C [0x03] Work_Zone_1700[0] = Work_Zone_1700[1]
208: 0x0461 [0x03] ExtData[1]->WorkLocal[0] = Work_Zone_1700[12]
209: 0x0466 [0x03] ExtData[1]->WorkLocal[3] = ExtData[1]->WorkLocal[2]
210: 0x046B [0x14] ExtData[1]->WorkLocal[3] *= 9*
211: 0x0470 [0x07] Work_Zone[0] += ExtData[1]->WorkLocal[3]
212: 0x0475 [0x1A] CALL_SUBROUTINE(address=0x1133)
213: 0x0478 [0x02] IF !(ExtData[1]->WorkLocal[1] == 0*) GOTO 0x0483
214: 0x0480 [0x01] GOTO 0x012E
215: 0x0483 [0x01] GOTO 0x0646
216: 0x0486 [0x02] IF !(Work_Zone[0] == 1*) GOTO 0x04B8
217: 0x048E [0x03] Work_Zone_1700[0] = Work_Zone_1700[2]
218: 0x0493 [0x03] ExtData[1]->WorkLocal[0] = Work_Zone_1700[13]
219: 0x0498 [0x03] ExtData[1]->WorkLocal[3] = ExtData[1]->WorkLocal[2]
220: 0x049D [0x14] ExtData[1]->WorkLocal[3] *= 9*
221: 0x04A2 [0x07] Work_Zone[0] += ExtData[1]->WorkLocal[3]
222: 0x04A7 [0x1A] CALL_SUBROUTINE(address=0x1133)
223: 0x04AA [0x02] IF !(ExtData[1]->WorkLocal[1] == 0*) GOTO 0x04B5
224: 0x04B2 [0x01] GOTO 0x012E
225: 0x04B5 [0x01] GOTO 0x0646
226: 0x04B8 [0x02] IF !(Work_Zone[0] == 2*) GOTO 0x04EA
227: 0x04C0 [0x03] Work_Zone_1700[0] = Work_Zone_1700[3]
228: 0x04C5 [0x03] ExtData[1]->WorkLocal[0] = Work_Zone_1700[14]
229: 0x04CA [0x03] ExtData[1]->WorkLocal[3] = ExtData[1]->WorkLocal[2]
230: 0x04CF [0x14] ExtData[1]->WorkLocal[3] *= 9*
231: 0x04D4 [0x07] Work_Zone[0] += ExtData[1]->WorkLocal[3]
232: 0x04D9 [0x1A] CALL_SUBROUTINE(address=0x1133)
233: 0x04DC [0x02] IF !(ExtData[1]->WorkLocal[1] == 0*) GOTO 0x04E7
234: 0x04E4 [0x01] GOTO 0x012E
235: 0x04E7 [0x01] GOTO 0x0646
236: 0x04EA [0x02] IF !(Work_Zone[0] == 3*) GOTO 0x051C
237: 0x04F2 [0x03] Work_Zone_1700[0] = Work_Zone_1700[4]
238: 0x04F7 [0x03] ExtData[1]->WorkLocal[0] = Work_Zone_1700[15]
239: 0x04FC [0x03] ExtData[1]->WorkLocal[3] = ExtData[1]->WorkLocal[2]
240: 0x0501 [0x14] ExtData[1]->WorkLocal[3] *= 9*
241: 0x0506 [0x07] Work_Zone[0] += ExtData[1]->WorkLocal[3]
242: 0x050B [0x1A] CALL_SUBROUTINE(address=0x1133)
243: 0x050E [0x02] IF !(ExtData[1]->WorkLocal[1] == 0*) GOTO 0x0519
244: 0x0516 [0x01] GOTO 0x012E
245: 0x0519 [0x01] GOTO 0x0646
246: 0x051C [0x02] IF !(Work_Zone[0] == 4*) GOTO 0x054E
247: 0x0524 [0x03] Work_Zone_1700[0] = Work_Zone_1700[5]
248: 0x0529 [0x03] ExtData[1]->WorkLocal[0] = Work_Zone_1700[16]
249: 0x052E [0x03] ExtData[1]->WorkLocal[3] = ExtData[1]->WorkLocal[2]
250: 0x0533 [0x14] ExtData[1]->WorkLocal[3] *= 9*
251: 0x0538 [0x07] Work_Zone[0] += ExtData[1]->WorkLocal[3]
252: 0x053D [0x1A] CALL_SUBROUTINE(address=0x1133)
253: 0x0540 [0x02] IF !(ExtData[1]->WorkLocal[1] == 0*) GOTO 0x054B
254: 0x0548 [0x01] GOTO 0x012E
255: 0x054B [0x01] GOTO 0x0646
256: 0x054E [0x02] IF !(Work_Zone[0] == 5*) GOTO 0x0580
257: 0x0556 [0x03] Work_Zone_1700[0] = Work_Zone_1700[6]
258: 0x055B [0x03] ExtData[1]->WorkLocal[0] = Work_Zone_1700[17]
259: 0x0560 [0x03] ExtData[1]->WorkLocal[3] = ExtData[1]->WorkLocal[2]
260: 0x0565 [0x14] ExtData[1]->WorkLocal[3] *= 9*
261: 0x056A [0x07] Work_Zone[0] += ExtData[1]->WorkLocal[3]
262: 0x056F [0x1A] CALL_SUBROUTINE(address=0x1133)
263: 0x0572 [0x02] IF !(ExtData[1]->WorkLocal[1] == 0*) GOTO 0x057D
264: 0x057A [0x01] GOTO 0x012E
265: 0x057D [0x01] GOTO 0x0646
266: 0x0580 [0x02] IF !(Work_Zone[0] == 6*) GOTO 0x05B2
267: 0x0588 [0x03] Work_Zone_1700[0] = Work_Zone_1700[7]
268: 0x058D [0x03] ExtData[1]->WorkLocal[0] = Work_Zone_1700[18]
269: 0x0592 [0x03] ExtData[1]->WorkLocal[3] = ExtData[1]->WorkLocal[2]
270: 0x0597 [0x14] ExtData[1]->WorkLocal[3] *= 9*
271: 0x059C [0x07] Work_Zone[0] += ExtData[1]->WorkLocal[3]
272: 0x05A1 [0x1A] CALL_SUBROUTINE(address=0x1133)
273: 0x05A4 [0x02] IF !(ExtData[1]->WorkLocal[1] == 0*) GOTO 0x05AF
274: 0x05AC [0x01] GOTO 0x012E
275: 0x05AF [0x01] GOTO 0x0646
276: 0x05B2 [0x02] IF !(Work_Zone[0] == 7*) GOTO 0x05E4
277: 0x05BA [0x03] Work_Zone_1700[0] = Work_Zone_1700[8]
278: 0x05BF [0x03] ExtData[1]->WorkLocal[0] = Work_Zone_1700[19]
279: 0x05C4 [0x03] ExtData[1]->WorkLocal[3] = ExtData[1]->WorkLocal[2]
280: 0x05C9 [0x14] ExtData[1]->WorkLocal[3] *= 9*
281: 0x05CE [0x07] Work_Zone[0] += ExtData[1]->WorkLocal[3]
282: 0x05D3 [0x1A] CALL_SUBROUTINE(address=0x1133)
283: 0x05D6 [0x02] IF !(ExtData[1]->WorkLocal[1] == 0*) GOTO 0x05E1
284: 0x05DE [0x01] GOTO 0x012E
285: 0x05E1 [0x01] GOTO 0x0646
286: 0x05E4 [0x02] IF !(Work_Zone[0] == 8*) GOTO 0x0616
287: 0x05EC [0x03] Work_Zone_1700[0] = Work_Zone_1700[9]
288: 0x05F1 [0x03] ExtData[1]->WorkLocal[0] = Work_Zone_1700[20]
289: 0x05F6 [0x03] ExtData[1]->WorkLocal[3] = ExtData[1]->WorkLocal[2]
290: 0x05FB [0x14] ExtData[1]->WorkLocal[3] *= 9*
291: 0x0600 [0x07] Work_Zone[0] += ExtData[1]->WorkLocal[3]
292: 0x0605 [0x1A] CALL_SUBROUTINE(address=0x1133)
293: 0x0608 [0x02] IF !(ExtData[1]->WorkLocal[1] == 0*) GOTO 0x0613
294: 0x0610 [0x01] GOTO 0x012E
295: 0x0613 [0x01] GOTO 0x0646
296: 0x0616 [0x02] IF !(Work_Zone[0] == 9*) GOTO 0x0627
297: 0x061E [0x0B] ExtData[1]->WorkLocal[2]++
298: 0x0621 [0x01] GOTO 0x012E

SUBROUTINE_0646:
299: 0x0646 [0x01] GOTO 0x0D10
300: 0x0649 [0x02] IF !(Work_Zone[0] == 1*) GOTO 0x0701
301: 0x0651 [0x41] ExtData[1]->WorkLocal[0] = Work_Zone[3] (bits 0*-30*)
302: 0x065A [0x02] IF !(ExtData[1]->WorkLocal[0] == 7*) GOTO 0x066E
303: 0x0662 [0x1D] PRINT_EVENT_MESSAGE(message_id=10795*)
    → "There are currently no items available for that rank."
304: 0x0665 [0x23] WAIT_FOR_DIALOG_INTERACTION
305: 0x0666 [0x03] Work_Zone[1] = 1073741824*
306: 0x066B [0x01] GOTO 0x06FE
307: 0x066E [0x40] SET_BIT_WORK_RANGE(start_bit=4*, end_bit=7*, target=Work_Zone[1], source=1*)

SUBROUTINE_0677:
308: 0x0677 [0x06] ExtData[1]->WorkLocal[1] = 0
309: 0x067A [0x03] Work_Zone_1700[1] = 1862*
310: 0x067F [0x03] Work_Zone_1700[2] = 1863*
311: 0x0684 [0x03] Work_Zone_1700[3] = 1864*
312: 0x0689 [0x03] Work_Zone_1700[12] = 1000*
313: 0x068E [0x24] CREATE_DIALOG(message_id=10799*, default_option=0*, option_flags=ExtData[1]->WorkLocal[0])
    → "Which item do you wish to purchase? [$3 ($20 credits)./$3 ($20 credits)./$3 ($20 credits)./Return.]"
314: 0x0695 [0x25] WAIT_DIALOG_SELECT()
315: 0x0696 [0x02] IF !(Work_Zone[0] == 0*) GOTO 0x06B4
316: 0x069E [0x03] Work_Zone_1700[0] = Work_Zone_1700[1]
317: 0x06A3 [0x1A] CALL_SUBROUTINE(address=0x1181)
318: 0x06A6 [0x02] IF !(ExtData[1]->WorkLocal[1] == 0*) GOTO 0x06B1
319: 0x06AE [0x01] GOTO 0x0677
320: 0x06B1 [0x01] GOTO 0x06FE
321: 0x06B4 [0x02] IF !(Work_Zone[0] == 1*) GOTO 0x06D2
322: 0x06BC [0x03] Work_Zone_1700[0] = Work_Zone_1700[2]
323: 0x06C1 [0x1A] CALL_SUBROUTINE(address=0x1181)
324: 0x06C4 [0x02] IF !(ExtData[1]->WorkLocal[1] == 0*) GOTO 0x06CF
325: 0x06CC [0x01] GOTO 0x0677
326: 0x06CF [0x01] GOTO 0x06FE
327: 0x06D2 [0x02] IF !(Work_Zone[0] == 2*) GOTO 0x06F0
328: 0x06DA [0x03] Work_Zone_1700[0] = Work_Zone_1700[3]
329: 0x06DF [0x1A] CALL_SUBROUTINE(address=0x1181)
330: 0x06E2 [0x02] IF !(ExtData[1]->WorkLocal[1] == 0*) GOTO 0x06ED
331: 0x06EA [0x01] GOTO 0x0677
332: 0x06ED [0x01] GOTO 0x06FE
333: 0x06F0 [0x02] IF !(Work_Zone[0] == 3*) GOTO 0x06FE
334: 0x06F8 [0x01] GOTO 0x0110

SUBROUTINE_06FE:
335: 0x06FE [0x01] GOTO 0x0D10
336: 0x0701 [0x02] IF !(Work_Zone[0] == 2*) GOTO 0x079C
337: 0x0709 [0x40] SET_BIT_WORK_RANGE(start_bit=4*, end_bit=7*, target=Work_Zone[1], source=2*)

SUBROUTINE_0712:
338: 0x0712 [0x06] ExtData[1]->WorkLocal[1] = 0
339: 0x0715 [0x03] Work_Zone_1700[1] = 18689*
340: 0x071A [0x03] Work_Zone_1700[2] = 18690*
341: 0x071F [0x03] Work_Zone_1700[3] = 18691*
342: 0x0724 [0x03] Work_Zone_1700[12] = 2000*
343: 0x0729 [0x24] CREATE_DIALOG(message_id=10811*, default_option=0*, option_flags=0*)
    → "Which item do you wish to purchase? [$9./$10./$11./Back.]"
344: 0x0730 [0x25] WAIT_DIALOG_SELECT()
345: 0x0731 [0x02] IF !(Work_Zone[0] == 0*) GOTO 0x074F
346: 0x0739 [0x03] Work_Zone_1700[0] = Work_Zone_1700[1]
347: 0x073E [0x1A] CALL_SUBROUTINE(address=0x11C3)
348: 0x0741 [0x02] IF !(ExtData[1]->WorkLocal[1] == 0*) GOTO 0x074C
349: 0x0749 [0x01] GOTO 0x0712
350: 0x074C [0x01] GOTO 0x0799
351: 0x074F [0x02] IF !(Work_Zone[0] == 1*) GOTO 0x076D
352: 0x0757 [0x03] Work_Zone_1700[0] = Work_Zone_1700[2]
353: 0x075C [0x1A] CALL_SUBROUTINE(address=0x11C3)
354: 0x075F [0x02] IF !(ExtData[1]->WorkLocal[1] == 0*) GOTO 0x076A
355: 0x0767 [0x01] GOTO 0x0712
356: 0x076A [0x01] GOTO 0x0799
357: 0x076D [0x02] IF !(Work_Zone[0] == 2*) GOTO 0x078B
358: 0x0775 [0x03] Work_Zone_1700[0] = Work_Zone_1700[3]
359: 0x077A [0x1A] CALL_SUBROUTINE(address=0x11C3)
360: 0x077D [0x02] IF !(ExtData[1]->WorkLocal[1] == 0*) GOTO 0x0788
361: 0x0785 [0x01] GOTO 0x0712
362: 0x0788 [0x01] GOTO 0x0799
363: 0x078B [0x02] IF !(Work_Zone[0] == 3*) GOTO 0x0799
364: 0x0793 [0x01] GOTO 0x0110

SUBROUTINE_0799:
365: 0x0799 [0x01] GOTO 0x0D10
366: 0x079C [0x02] IF !(Work_Zone[0] == 3*) GOTO 0x085A
367: 0x07A4 [0x40] SET_BIT_WORK_RANGE(start_bit=4*, end_bit=7*, target=Work_Zone[1], source=3*)

SUBROUTINE_07AD:
368: 0x07AD [0x06] ExtData[1]->WorkLocal[1] = 0
369: 0x07B0 [0x03] Work_Zone_1700[1] = 18692*
370: 0x07B5 [0x03] Work_Zone_1700[2] = 18693*
371: 0x07BA [0x03] Work_Zone_1700[3] = 18694*
372: 0x07BF [0x03] Work_Zone_1700[4] = 15810*
373: 0x07C4 [0x03] Work_Zone_1700[12] = 4000*
374: 0x07C9 [0x24] CREATE_DIALOG(message_id=10812*, default_option=0*, option_flags=0*)
    → "Which item do you wish to purchase? [$9./$10./$11./$12./Back.]"
375: 0x07D0 [0x25] WAIT_DIALOG_SELECT()
376: 0x07D1 [0x02] IF !(Work_Zone[0] == 0*) GOTO 0x07EF
377: 0x07D9 [0x03] Work_Zone_1700[0] = Work_Zone_1700[1]
378: 0x07DE [0x1A] CALL_SUBROUTINE(address=0x12A6)
379: 0x07E1 [0x02] IF !(ExtData[1]->WorkLocal[1] == 0*) GOTO 0x07EC
380: 0x07E9 [0x01] GOTO 0x07AD
381: 0x07EC [0x01] GOTO 0x0857
382: 0x07EF [0x02] IF !(Work_Zone[0] == 1*) GOTO 0x080D
383: 0x07F7 [0x03] Work_Zone_1700[0] = Work_Zone_1700[2]
384: 0x07FC [0x1A] CALL_SUBROUTINE(address=0x12A6)
385: 0x07FF [0x02] IF !(ExtData[1]->WorkLocal[1] == 0*) GOTO 0x080A
386: 0x0807 [0x01] GOTO 0x07AD
387: 0x080A [0x01] GOTO 0x0857
388: 0x080D [0x02] IF !(Work_Zone[0] == 2*) GOTO 0x082B
389: 0x0815 [0x03] Work_Zone_1700[0] = Work_Zone_1700[3]
390: 0x081A [0x1A] CALL_SUBROUTINE(address=0x12A6)
391: 0x081D [0x02] IF !(ExtData[1]->WorkLocal[1] == 0*) GOTO 0x0828
392: 0x0825 [0x01] GOTO 0x07AD
393: 0x0828 [0x01] GOTO 0x0857
394: 0x082B [0x02] IF !(Work_Zone[0] == 3*) GOTO 0x0849
395: 0x0833 [0x03] Work_Zone_1700[0] = Work_Zone_1700[4]
396: 0x0838 [0x1A] CALL_SUBROUTINE(address=0x12A6)
397: 0x083B [0x02] IF !(ExtData[1]->WorkLocal[1] == 0*) GOTO 0x0846
398: 0x0843 [0x01] GOTO 0x07AD
399: 0x0846 [0x01] GOTO 0x0857
400: 0x0849 [0x02] IF !(Work_Zone[0] == 4*) GOTO 0x0857
401: 0x0851 [0x01] GOTO 0x0110

SUBROUTINE_0857:
402: 0x0857 [0x01] GOTO 0x0D10
403: 0x085A [0x02] IF !(Work_Zone[0] == 4*) GOTO 0x08F5
404: 0x0862 [0x40] SET_BIT_WORK_RANGE(start_bit=4*, end_bit=7*, target=Work_Zone[1], source=4*)

SUBROUTINE_086B:
405: 0x086B [0x06] ExtData[1]->WorkLocal[1] = 0
406: 0x086E [0x03] Work_Zone_1700[1] = 15698*
407: 0x0873 [0x03] Work_Zone_1700[2] = 15560*
408: 0x0878 [0x03] Work_Zone_1700[3] = 16168*
409: 0x087D [0x03] Work_Zone_1700[12] = 8000*
410: 0x0882 [0x24] CREATE_DIALOG(message_id=10811*, default_option=0*, option_flags=0*)
    → "Which item do you wish to purchase? [$9./$10./$11./Back.]"
411: 0x0889 [0x25] WAIT_DIALOG_SELECT()
412: 0x088A [0x02] IF !(Work_Zone[0] == 0*) GOTO 0x08A8
413: 0x0892 [0x03] Work_Zone_1700[0] = Work_Zone_1700[1]
414: 0x0897 [0x1A] CALL_SUBROUTINE(address=0x13C0)
415: 0x089A [0x02] IF !(ExtData[1]->WorkLocal[1] == 0*) GOTO 0x08A5
416: 0x08A2 [0x01] GOTO 0x086B
417: 0x08A5 [0x01] GOTO 0x08F2
418: 0x08A8 [0x02] IF !(Work_Zone[0] == 1*) GOTO 0x08C6
419: 0x08B0 [0x03] Work_Zone_1700[0] = Work_Zone_1700[2]
420: 0x08B5 [0x1A] CALL_SUBROUTINE(address=0x13C0)
421: 0x08B8 [0x02] IF !(ExtData[1]->WorkLocal[1] == 0*) GOTO 0x08C3
422: 0x08C0 [0x01] GOTO 0x086B
423: 0x08C3 [0x01] GOTO 0x08F2
424: 0x08C6 [0x02] IF !(Work_Zone[0] == 2*) GOTO 0x08E4
425: 0x08CE [0x03] Work_Zone_1700[0] = Work_Zone_1700[3]
426: 0x08D3 [0x1A] CALL_SUBROUTINE(address=0x13C0)
427: 0x08D6 [0x02] IF !(ExtData[1]->WorkLocal[1] == 0*) GOTO 0x08E1
428: 0x08DE [0x01] GOTO 0x086B
429: 0x08E1 [0x01] GOTO 0x08F2
430: 0x08E4 [0x02] IF !(Work_Zone[0] == 3*) GOTO 0x08F2
431: 0x08EC [0x01] GOTO 0x0110

SUBROUTINE_08F2:
432: 0x08F2 [0x01] GOTO 0x0D10
433: 0x08F5 [0x02] IF !(Work_Zone[0] == 5*) GOTO 0x0990
434: 0x08FD [0x40] SET_BIT_WORK_RANGE(start_bit=4*, end_bit=7*, target=Work_Zone[1], source=5*)

SUBROUTINE_0906:
435: 0x0906 [0x06] ExtData[1]->WorkLocal[1] = 0
436: 0x0909 [0x03] Work_Zone_1700[1] = 18703*
437: 0x090E [0x03] Work_Zone_1700[2] = 18742*
438: 0x0913 [0x03] Work_Zone_1700[3] = 17723*
439: 0x0918 [0x03] Work_Zone_1700[12] = 16000*
440: 0x091D [0x24] CREATE_DIALOG(message_id=10811*, default_option=0*, option_flags=0*)
    → "Which item do you wish to purchase? [$9./$10./$11./Back.]"
441: 0x0924 [0x25] WAIT_DIALOG_SELECT()
442: 0x0925 [0x02] IF !(Work_Zone[0] == 0*) GOTO 0x0943
443: 0x092D [0x03] Work_Zone_1700[0] = Work_Zone_1700[1]
444: 0x0932 [0x1A] CALL_SUBROUTINE(address=0x14A3)
445: 0x0935 [0x02] IF !(ExtData[1]->WorkLocal[1] == 0*) GOTO 0x0940
446: 0x093D [0x01] GOTO 0x0906
447: 0x0940 [0x01] GOTO 0x098D
448: 0x0943 [0x02] IF !(Work_Zone[0] == 1*) GOTO 0x0961
449: 0x094B [0x03] Work_Zone_1700[0] = Work_Zone_1700[2]
450: 0x0950 [0x1A] CALL_SUBROUTINE(address=0x14A3)
451: 0x0953 [0x02] IF !(ExtData[1]->WorkLocal[1] == 0*) GOTO 0x095E
452: 0x095B [0x01] GOTO 0x0906
453: 0x095E [0x01] GOTO 0x098D
454: 0x0961 [0x02] IF !(Work_Zone[0] == 2*) GOTO 0x097F
455: 0x0969 [0x03] Work_Zone_1700[0] = Work_Zone_1700[3]
456: 0x096E [0x1A] CALL_SUBROUTINE(address=0x14A3)
457: 0x0971 [0x02] IF !(ExtData[1]->WorkLocal[1] == 0*) GOTO 0x097C
458: 0x0979 [0x01] GOTO 0x0906
459: 0x097C [0x01] GOTO 0x098D
460: 0x097F [0x02] IF !(Work_Zone[0] == 3*) GOTO 0x098D
461: 0x0987 [0x01] GOTO 0x0110

SUBROUTINE_098D:
462: 0x098D [0x01] GOTO 0x0D10
463: 0x0990 [0x02] IF !(Work_Zone[0] == 6*) GOTO 0x0A2B
464: 0x0998 [0x40] SET_BIT_WORK_RANGE(start_bit=4*, end_bit=7*, target=Work_Zone[1], source=6*)

SUBROUTINE_09A1:
465: 0x09A1 [0x06] ExtData[1]->WorkLocal[1] = 0
466: 0x09A4 [0x03] Work_Zone_1700[1] = 15622*
467: 0x09A9 [0x03] Work_Zone_1700[2] = 15790*
468: 0x09AE [0x03] Work_Zone_1700[3] = 15981*
469: 0x09B3 [0x03] Work_Zone_1700[12] = 24000*
470: 0x09B8 [0x24] CREATE_DIALOG(message_id=10811*, default_option=0*, option_flags=0*)
    → "Which item do you wish to purchase? [$9./$10./$11./Back.]"
471: 0x09BF [0x25] WAIT_DIALOG_SELECT()
472: 0x09C0 [0x02] IF !(Work_Zone[0] == 0*) GOTO 0x09DE
473: 0x09C8 [0x03] Work_Zone_1700[0] = Work_Zone_1700[1]
474: 0x09CD [0x1A] CALL_SUBROUTINE(address=0x1586)
475: 0x09D0 [0x02] IF !(ExtData[1]->WorkLocal[1] == 0*) GOTO 0x09DB
476: 0x09D8 [0x01] GOTO 0x09A1
477: 0x09DB [0x01] GOTO 0x0A28
478: 0x09DE [0x02] IF !(Work_Zone[0] == 1*) GOTO 0x09FC
479: 0x09E6 [0x03] Work_Zone_1700[0] = Work_Zone_1700[2]
480: 0x09EB [0x1A] CALL_SUBROUTINE(address=0x1586)
481: 0x09EE [0x02] IF !(ExtData[1]->WorkLocal[1] == 0*) GOTO 0x09F9
482: 0x09F6 [0x01] GOTO 0x09A1
483: 0x09F9 [0x01] GOTO 0x0A28
484: 0x09FC [0x02] IF !(Work_Zone[0] == 2*) GOTO 0x0A1A
485: 0x0A04 [0x03] Work_Zone_1700[0] = Work_Zone_1700[3]
486: 0x0A09 [0x1A] CALL_SUBROUTINE(address=0x1586)
487: 0x0A0C [0x02] IF !(ExtData[1]->WorkLocal[1] == 0*) GOTO 0x0A17
488: 0x0A14 [0x01] GOTO 0x09A1
489: 0x0A17 [0x01] GOTO 0x0A28
490: 0x0A1A [0x02] IF !(Work_Zone[0] == 3*) GOTO 0x0A28
491: 0x0A22 [0x01] GOTO 0x0110

SUBROUTINE_0A28:
492: 0x0A28 [0x01] GOTO 0x0D10
493: 0x0A2B [0x02] IF !(Work_Zone[0] == 7*) GOTO 0x0AC6
494: 0x0A33 [0x40] SET_BIT_WORK_RANGE(start_bit=4*, end_bit=7*, target=Work_Zone[1], source=7*)

SUBROUTINE_0A3C:
495: 0x0A3C [0x06] ExtData[1]->WorkLocal[1] = 0
496: 0x0A3F [0x03] Work_Zone_1700[1] = 15623*
497: 0x0A44 [0x03] Work_Zone_1700[2] = 15982*
498: 0x0A49 [0x03] Work_Zone_1700[3] = 15983*
499: 0x0A4E [0x03] Work_Zone_1700[12] = 32000*
500: 0x0A53 [0x24] CREATE_DIALOG(message_id=10811*, default_option=0*, option_flags=0*)
    → "Which item do you wish to purchase? [$9./$10./$11./Back.]"
501: 0x0A5A [0x25] WAIT_DIALOG_SELECT()
502: 0x0A5B [0x02] IF !(Work_Zone[0] == 0*) GOTO 0x0A79
503: 0x0A63 [0x03] Work_Zone_1700[0] = Work_Zone_1700[1]
504: 0x0A68 [0x1A] CALL_SUBROUTINE(address=0x1669)
505: 0x0A6B [0x02] IF !(ExtData[1]->WorkLocal[1] == 0*) GOTO 0x0A76
506: 0x0A73 [0x01] GOTO 0x0A3C
507: 0x0A76 [0x01] GOTO 0x0AC3
508: 0x0A79 [0x02] IF !(Work_Zone[0] == 1*) GOTO 0x0A97
509: 0x0A81 [0x03] Work_Zone_1700[0] = Work_Zone_1700[2]
510: 0x0A86 [0x1A] CALL_SUBROUTINE(address=0x1669)
511: 0x0A89 [0x02] IF !(ExtData[1]->WorkLocal[1] == 0*) GOTO 0x0A94
512: 0x0A91 [0x01] GOTO 0x0A3C
513: 0x0A94 [0x01] GOTO 0x0AC3
514: 0x0A97 [0x02] IF !(Work_Zone[0] == 2*) GOTO 0x0AB5
515: 0x0A9F [0x03] Work_Zone_1700[0] = Work_Zone_1700[3]
516: 0x0AA4 [0x1A] CALL_SUBROUTINE(address=0x1669)
517: 0x0AA7 [0x02] IF !(ExtData[1]->WorkLocal[1] == 0*) GOTO 0x0AB2
518: 0x0AAF [0x01] GOTO 0x0A3C
519: 0x0AB2 [0x01] GOTO 0x0AC3
520: 0x0AB5 [0x02] IF !(Work_Zone[0] == 3*) GOTO 0x0AC3
521: 0x0ABD [0x01] GOTO 0x0110

SUBROUTINE_0AC3:
522: 0x0AC3 [0x01] GOTO 0x0D10
523: 0x0AC6 [0x02] IF !(Work_Zone[0] == 8*) GOTO 0x0B84
524: 0x0ACE [0x40] SET_BIT_WORK_RANGE(start_bit=4*, end_bit=7*, target=Work_Zone[1], source=8*)

SUBROUTINE_0AD7:
525: 0x0AD7 [0x06] ExtData[1]->WorkLocal[1] = 0
526: 0x0ADA [0x03] Work_Zone_1700[1] = 17741*
527: 0x0ADF [0x03] Work_Zone_1700[2] = 18943*
528: 0x0AE4 [0x03] Work_Zone_1700[3] = 18850*
529: 0x0AE9 [0x03] Work_Zone_1700[4] = 18717*
530: 0x0AEE [0x03] Work_Zone_1700[12] = 40000*
531: 0x0AF3 [0x24] CREATE_DIALOG(message_id=10812*, default_option=0*, option_flags=0*)
    → "Which item do you wish to purchase? [$9./$10./$11./$12./Back.]"
532: 0x0AFA [0x25] WAIT_DIALOG_SELECT()
533: 0x0AFB [0x02] IF !(Work_Zone[0] == 0*) GOTO 0x0B19
534: 0x0B03 [0x03] Work_Zone_1700[0] = Work_Zone_1700[1]
535: 0x0B08 [0x1A] CALL_SUBROUTINE(address=0x174C)
536: 0x0B0B [0x02] IF !(ExtData[1]->WorkLocal[1] == 0*) GOTO 0x0B16
537: 0x0B13 [0x01] GOTO 0x0AD7
538: 0x0B16 [0x01] GOTO 0x0B81
539: 0x0B19 [0x02] IF !(Work_Zone[0] == 1*) GOTO 0x0B37
540: 0x0B21 [0x03] Work_Zone_1700[0] = Work_Zone_1700[2]
541: 0x0B26 [0x1A] CALL_SUBROUTINE(address=0x174C)
542: 0x0B29 [0x02] IF !(ExtData[1]->WorkLocal[1] == 0*) GOTO 0x0B34
543: 0x0B31 [0x01] GOTO 0x0AD7
544: 0x0B34 [0x01] GOTO 0x0B81
545: 0x0B37 [0x02] IF !(Work_Zone[0] == 2*) GOTO 0x0B55
546: 0x0B3F [0x03] Work_Zone_1700[0] = Work_Zone_1700[3]
547: 0x0B44 [0x1A] CALL_SUBROUTINE(address=0x174C)
548: 0x0B47 [0x02] IF !(ExtData[1]->WorkLocal[1] == 0*) GOTO 0x0B52
549: 0x0B4F [0x01] GOTO 0x0AD7
550: 0x0B52 [0x01] GOTO 0x0B81
551: 0x0B55 [0x02] IF !(Work_Zone[0] == 3*) GOTO 0x0B73
552: 0x0B5D [0x03] Work_Zone_1700[0] = Work_Zone_1700[4]
553: 0x0B62 [0x1A] CALL_SUBROUTINE(address=0x174C)
554: 0x0B65 [0x02] IF !(ExtData[1]->WorkLocal[1] == 0*) GOTO 0x0B70
555: 0x0B6D [0x01] GOTO 0x0AD7
556: 0x0B70 [0x01] GOTO 0x0B81
557: 0x0B73 [0x02] IF !(Work_Zone[0] == 4*) GOTO 0x0B81
558: 0x0B7B [0x01] GOTO 0x0110

SUBROUTINE_0B81:
559: 0x0B81 [0x01] GOTO 0x0D10
560: 0x0B84 [0x02] IF !(Work_Zone[0] == 9*) GOTO 0x0C65
561: 0x0B8C [0x40] SET_BIT_WORK_RANGE(start_bit=4*, end_bit=7*, target=Work_Zone[1], source=9*)

SUBROUTINE_0B95:
562: 0x0B95 [0x06] ExtData[1]->WorkLocal[1] = 0
563: 0x0B98 [0x03] Work_Zone_1700[1] = 16602*
564: 0x0B9D [0x03] Work_Zone_1700[2] = 18425*
565: 0x0BA2 [0x03] Work_Zone_1700[3] = 18491*
566: 0x0BA7 [0x03] Work_Zone_1700[4] = 18588*
567: 0x0BAC [0x03] Work_Zone_1700[5] = 18718*
568: 0x0BB1 [0x03] Work_Zone_1700[12] = 40000*
569: 0x0BB6 [0x24] CREATE_DIALOG(message_id=10813*, default_option=0*, option_flags=0*)
    → "Which item do you wish to purchase? [$9./$10./$11./$12./$13./Back.]"
570: 0x0BBD [0x25] WAIT_DIALOG_SELECT()
571: 0x0BBE [0x02] IF !(Work_Zone[0] == 0*) GOTO 0x0BDC
572: 0x0BC6 [0x03] Work_Zone_1700[0] = Work_Zone_1700[1]
573: 0x0BCB [0x1A] CALL_SUBROUTINE(address=0x182F)
574: 0x0BCE [0x02] IF !(ExtData[1]->WorkLocal[1] == 0*) GOTO 0x0BD9
575: 0x0BD6 [0x01] GOTO 0x0B95
576: 0x0BD9 [0x01] GOTO 0x0C62
577: 0x0BDC [0x02] IF !(Work_Zone[0] == 1*) GOTO 0x0BFA
578: 0x0BE4 [0x03] Work_Zone_1700[0] = Work_Zone_1700[2]
579: 0x0BE9 [0x1A] CALL_SUBROUTINE(address=0x182F)
580: 0x0BEC [0x02] IF !(ExtData[1]->WorkLocal[1] == 0*) GOTO 0x0BF7
581: 0x0BF4 [0x01] GOTO 0x0B95
582: 0x0BF7 [0x01] GOTO 0x0C62
583: 0x0BFA [0x02] IF !(Work_Zone[0] == 2*) GOTO 0x0C18
584: 0x0C02 [0x03] Work_Zone_1700[0] = Work_Zone_1700[3]
585: 0x0C07 [0x1A] CALL_SUBROUTINE(address=0x182F)
586: 0x0C0A [0x02] IF !(ExtData[1]->WorkLocal[1] == 0*) GOTO 0x0C15
587: 0x0C12 [0x01] GOTO 0x0B95
588: 0x0C15 [0x01] GOTO 0x0C62
589: 0x0C18 [0x02] IF !(Work_Zone[0] == 3*) GOTO 0x0C36
590: 0x0C20 [0x03] Work_Zone_1700[0] = Work_Zone_1700[4]
591: 0x0C25 [0x1A] CALL_SUBROUTINE(address=0x182F)
592: 0x0C28 [0x02] IF !(ExtData[1]->WorkLocal[1] == 0*) GOTO 0x0C33
593: 0x0C30 [0x01] GOTO 0x0B95
594: 0x0C33 [0x01] GOTO 0x0C62
595: 0x0C36 [0x02] IF !(Work_Zone[0] == 4*) GOTO 0x0C54
596: 0x0C3E [0x03] Work_Zone_1700[0] = Work_Zone_1700[5]
597: 0x0C43 [0x1A] CALL_SUBROUTINE(address=0x182F)
598: 0x0C46 [0x02] IF !(ExtData[1]->WorkLocal[1] == 0*) GOTO 0x0C51
599: 0x0C4E [0x01] GOTO 0x0B95
600: 0x0C51 [0x01] GOTO 0x0C62
601: 0x0C54 [0x02] IF !(Work_Zone[0] == 5*) GOTO 0x0C62
602: 0x0C5C [0x01] GOTO 0x0110

SUBROUTINE_0C62:
603: 0x0C62 [0x01] GOTO 0x0D10
604: 0x0C65 [0x02] IF !(Work_Zone[0] == 10*) GOTO 0x0D00
605: 0x0C6D [0x40] SET_BIT_WORK_RANGE(start_bit=4*, end_bit=7*, target=Work_Zone[1], source=10*)

SUBROUTINE_0C76:
606: 0x0C76 [0x06] ExtData[1]->WorkLocal[1] = 0
607: 0x0C79 [0x03] Work_Zone_1700[1] = 16271*
608: 0x0C7E [0x03] Work_Zone_1700[2] = 15912*
609: 0x0C83 [0x03] Work_Zone_1700[3] = 16230*
610: 0x0C88 [0x03] Work_Zone_1700[12] = 56000*
611: 0x0C8D [0x24] CREATE_DIALOG(message_id=10811*, default_option=0*, option_flags=0*)
    → "Which item do you wish to purchase? [$9./$10./$11./Back.]"
612: 0x0C94 [0x25] WAIT_DIALOG_SELECT()
613: 0x0C95 [0x02] IF !(Work_Zone[0] == 0*) GOTO 0x0CB3
614: 0x0C9D [0x03] Work_Zone_1700[0] = Work_Zone_1700[1]
615: 0x0CA2 [0x1A] CALL_SUBROUTINE(address=0x1912)
616: 0x0CA5 [0x02] IF !(ExtData[1]->WorkLocal[1] == 0*) GOTO 0x0CB0
617: 0x0CAD [0x01] GOTO 0x0C76
618: 0x0CB0 [0x01] GOTO 0x0CFD
619: 0x0CB3 [0x02] IF !(Work_Zone[0] == 1*) GOTO 0x0CD1
620: 0x0CBB [0x03] Work_Zone_1700[0] = Work_Zone_1700[2]
621: 0x0CC0 [0x1A] CALL_SUBROUTINE(address=0x1912)
622: 0x0CC3 [0x02] IF !(ExtData[1]->WorkLocal[1] == 0*) GOTO 0x0CCE
623: 0x0CCB [0x01] GOTO 0x0C76
624: 0x0CCE [0x01] GOTO 0x0CFD
625: 0x0CD1 [0x02] IF !(Work_Zone[0] == 2*) GOTO 0x0CEF
626: 0x0CD9 [0x03] Work_Zone_1700[0] = Work_Zone_1700[3]
627: 0x0CDE [0x1A] CALL_SUBROUTINE(address=0x1912)
628: 0x0CE1 [0x02] IF !(ExtData[1]->WorkLocal[1] == 0*) GOTO 0x0CEC
629: 0x0CE9 [0x01] GOTO 0x0C76
630: 0x0CEC [0x01] GOTO 0x0CFD
631: 0x0CEF [0x02] IF !(Work_Zone[0] == 3*) GOTO 0x0CFD
632: 0x0CF7 [0x01] GOTO 0x0110

SUBROUTINE_0CFD:
633: 0x0CFD [0x01] GOTO 0x0D10
634: 0x0D00 [0x02] IF !(Work_Zone[0] == 11*) GOTO 0x0D10
635: 0x0D08 [0x03] Work_Zone[1] = 1073741824*
636: 0x0D0D [0x01] GOTO 0x0D10

SUBROUTINE_0D10:
637: 0x0D10 [0x01] GOTO 0x1122
638: 0x0D13 [0x02] IF !(Work_Zone[0] == 2*) GOTO 0x0FFC
639: 0x0D1B [0x03] Work_Zone[2] = ExtData[1]->WorkLocal[7]
640: 0x0D20 [0x1D] PRINT_EVENT_MESSAGE(message_id=10792*)
    → "You currently possess $0 [Imperial Standing accolade/Imperial Standing Accolades]. Would you like to use them to purchase items?"
641: 0x0D23 [0x23] WAIT_FOR_DIALOG_INTERACTION
642: 0x0D24 [0x40] SET_BIT_WORK_RANGE(start_bit=0*, end_bit=3*, target=Work_Zone[1], source=2*)

SUBROUTINE_0D2D:
643: 0x0D2D [0x24] CREATE_DIALOG(message_id=10794*, default_option=0*, option_flags=0*)
    → "Which item do you wish to purchase? [Common items (All ranks)."000-pt. items (First Lieutenant.)/Cancel.]"
644: 0x0D34 [0x25] WAIT_DIALOG_SELECT()
645: 0x0D35 [0x02] IF !(Work_Zone[0] == 0*) GOTO 0x0DE3
646: 0x0D3D [0x40] SET_BIT_WORK_RANGE(start_bit=4*, end_bit=7*, target=Work_Zone[1], source=0*)

SUBROUTINE_0D46:
647: 0x0D46 [0x03] Work_Zone[2] = ExtData[1]->WorkLocal[7]
648: 0x0D4B [0x06] ExtData[1]->WorkLocal[1] = 0
649: 0x0D4E [0x03] Work_Zone_1700[1] = 6697*
650: 0x0D53 [0x03] Work_Zone_1700[2] = 6698*
651: 0x0D58 [0x03] Work_Zone_1700[3] = 6699*
652: 0x0D5D [0x03] Work_Zone_1700[12] = 20*
653: 0x0D62 [0x03] Work_Zone_1700[13] = 10*
654: 0x0D67 [0x03] Work_Zone_1700[14] = 15*
655: 0x0D6C [0x24] CREATE_DIALOG(message_id=10815*, default_option=0*, option_flags=0*)
    → "Which item do you wish to purchase? [$9 ($20 accolades)./$10 ($21 accolades)./$11 ($22 accolades)./Back.]"
656: 0x0D73 [0x25] WAIT_DIALOG_SELECT()
657: 0x0D74 [0x02] IF !(Work_Zone[0] == 0*) GOTO 0x0D97
658: 0x0D7C [0x03] Work_Zone_1700[0] = Work_Zone_1700[1]
659: 0x0D81 [0x03] ExtData[1]->WorkLocal[0] = Work_Zone_1700[12]
660: 0x0D86 [0x1A] CALL_SUBROUTINE(address=0x19F5)
661: 0x0D89 [0x02] IF !(ExtData[1]->WorkLocal[1] == 0*) GOTO 0x0D94
662: 0x0D91 [0x01] GOTO 0x0D46
663: 0x0D94 [0x01] GOTO 0x0DE0
664: 0x0D97 [0x02] IF !(Work_Zone[0] == 1*) GOTO 0x0DBA
665: 0x0D9F [0x03] Work_Zone_1700[0] = Work_Zone_1700[2]
666: 0x0DA4 [0x03] ExtData[1]->WorkLocal[0] = Work_Zone_1700[13]
667: 0x0DA9 [0x1A] CALL_SUBROUTINE(address=0x19F5)
668: 0x0DAC [0x02] IF !(ExtData[1]->WorkLocal[1] == 0*) GOTO 0x0DB7
669: 0x0DB4 [0x01] GOTO 0x0D46
670: 0x0DB7 [0x01] GOTO 0x0DE0
671: 0x0DBA [0x02] IF !(Work_Zone[0] == 2*) GOTO 0x0DDD
672: 0x0DC2 [0x03] Work_Zone_1700[0] = Work_Zone_1700[3]
673: 0x0DC7 [0x03] ExtData[1]->WorkLocal[0] = Work_Zone_1700[14]
674: 0x0DCC [0x1A] CALL_SUBROUTINE(address=0x19F5)
675: 0x0DCF [0x02] IF !(ExtData[1]->WorkLocal[1] == 0*) GOTO 0x0DDA
676: 0x0DD7 [0x01] GOTO 0x0D46
677: 0x0DDA [0x01] GOTO 0x0DE0
678: 0x0DDD [0x01] GOTO 0x0D2D

SUBROUTINE_0DE0:
679: 0x0DE0 [0x01] GOTO 0x0FF9
680: 0x0DE3 [0x02] IF !(Work_Zone[0] == 1*) GOTO 0x0FF4
681: 0x0DEB [0x40] SET_BIT_WORK_RANGE(start_bit=4*, end_bit=7*, target=Work_Zone[1], source=1*)

SUBROUTINE_0DF4:
682: 0x0DF4 [0x06] ExtData[1]->WorkLocal[1] = 0
683: 0x0DF7 [0x03] Work_Zone[2] = ExtData[1]->WorkLocal[7]
684: 0x0DFC [0x03] Work_Zone_1700[1] = 21539*
685: 0x0E01 [0x03] Work_Zone_1700[2] = 21591*
686: 0x0E06 [0x03] Work_Zone_1700[3] = 21647*
687: 0x0E0B [0x03] Work_Zone_1700[4] = 21648*
688: 0x0E10 [0x03] Work_Zone_1700[5] = 21731*
689: 0x0E15 [0x03] Work_Zone_1700[6] = 21788*
690: 0x0E1A [0x03] Work_Zone_1700[7] = 21841*
691: 0x0E1F [0x03] Work_Zone_1700[8] = 21892*
692: 0x0E24 [0x03] Work_Zone_1700[9] = 21935*
693: 0x0E29 [0x03] Work_Zone_1700[10] = 21990*
694: 0x0E2E [0x03] Work_Zone_1700[11] = 21992*
695: 0x0E33 [0x03] Work_Zone_1700[12] = 22166*
696: 0x0E38 [0x03] Work_Zone_1700[13] = 22167*
697: 0x0E3D [0x03] Work_Zone_1700[14] = 22194*
698: 0x0E42 [0x24] CREATE_DIALOG(message_id=10816*, default_option=0*, option_flags=0*)
    → "Which item do you wish to purchase? [$9./$10./$11./$12./$13./$14./$15./$16./$17./$18./$19./$20./$21./$22./Back.]"
699: 0x0E49 [0x25] WAIT_DIALOG_SELECT()
700: 0x0E4A [0x02] IF !(Work_Zone[0] == 0*) GOTO 0x0E68
701: 0x0E52 [0x03] Work_Zone_1700[0] = Work_Zone_1700[1]
702: 0x0E57 [0x1A] CALL_SUBROUTINE(address=0x1A43)
703: 0x0E5A [0x02] IF !(ExtData[1]->WorkLocal[1] == 0*) GOTO 0x0E65
704: 0x0E62 [0x01] GOTO 0x0DF4
705: 0x0E65 [0x01] GOTO 0x0FF1
706: 0x0E68 [0x02] IF !(Work_Zone[0] == 1*) GOTO 0x0E86
707: 0x0E70 [0x03] Work_Zone_1700[0] = Work_Zone_1700[2]
708: 0x0E75 [0x1A] CALL_SUBROUTINE(address=0x1A43)
709: 0x0E78 [0x02] IF !(ExtData[1]->WorkLocal[1] == 0*) GOTO 0x0E83
710: 0x0E80 [0x01] GOTO 0x0DF4
711: 0x0E83 [0x01] GOTO 0x0FF1
712: 0x0E86 [0x02] IF !(Work_Zone[0] == 2*) GOTO 0x0EA4
713: 0x0E8E [0x03] Work_Zone_1700[0] = Work_Zone_1700[3]
714: 0x0E93 [0x1A] CALL_SUBROUTINE(address=0x1A43)
715: 0x0E96 [0x02] IF !(ExtData[1]->WorkLocal[1] == 0*) GOTO 0x0EA1
716: 0x0E9E [0x01] GOTO 0x0DF4
717: 0x0EA1 [0x01] GOTO 0x0FF1
718: 0x0EA4 [0x02] IF !(Work_Zone[0] == 3*) GOTO 0x0EC2
719: 0x0EAC [0x03] Work_Zone_1700[0] = Work_Zone_1700[4]
720: 0x0EB1 [0x1A] CALL_SUBROUTINE(address=0x1A43)
721: 0x0EB4 [0x02] IF !(ExtData[1]->WorkLocal[1] == 0*) GOTO 0x0EBF
722: 0x0EBC [0x01] GOTO 0x0DF4
723: 0x0EBF [0x01] GOTO 0x0FF1
724: 0x0EC2 [0x02] IF !(Work_Zone[0] == 4*) GOTO 0x0EE0
725: 0x0ECA [0x03] Work_Zone_1700[0] = Work_Zone_1700[5]
726: 0x0ECF [0x1A] CALL_SUBROUTINE(address=0x1A43)
727: 0x0ED2 [0x02] IF !(ExtData[1]->WorkLocal[1] == 0*) GOTO 0x0EDD
728: 0x0EDA [0x01] GOTO 0x0DF4
729: 0x0EDD [0x01] GOTO 0x0FF1
730: 0x0EE0 [0x02] IF !(Work_Zone[0] == 5*) GOTO 0x0EFE
731: 0x0EE8 [0x03] Work_Zone_1700[0] = Work_Zone_1700[6]
732: 0x0EED [0x1A] CALL_SUBROUTINE(address=0x1A43)
733: 0x0EF0 [0x02] IF !(ExtData[1]->WorkLocal[1] == 0*) GOTO 0x0EFB
734: 0x0EF8 [0x01] GOTO 0x0DF4
735: 0x0EFB [0x01] GOTO 0x0FF1
736: 0x0EFE [0x02] IF !(Work_Zone[0] == 6*) GOTO 0x0F1C
737: 0x0F06 [0x03] Work_Zone_1700[0] = Work_Zone_1700[7]
738: 0x0F0B [0x1A] CALL_SUBROUTINE(address=0x1A43)
739: 0x0F0E [0x02] IF !(ExtData[1]->WorkLocal[1] == 0*) GOTO 0x0F19
740: 0x0F16 [0x01] GOTO 0x0DF4
741: 0x0F19 [0x01] GOTO 0x0FF1
742: 0x0F1C [0x02] IF !(Work_Zone[0] == 7*) GOTO 0x0F3A
743: 0x0F24 [0x03] Work_Zone_1700[0] = Work_Zone_1700[8]
744: 0x0F29 [0x1A] CALL_SUBROUTINE(address=0x1A43)
745: 0x0F2C [0x02] IF !(ExtData[1]->WorkLocal[1] == 0*) GOTO 0x0F37
746: 0x0F34 [0x01] GOTO 0x0DF4
747: 0x0F37 [0x01] GOTO 0x0FF1
748: 0x0F3A [0x02] IF !(Work_Zone[0] == 8*) GOTO 0x0F58
749: 0x0F42 [0x03] Work_Zone_1700[0] = Work_Zone_1700[9]
750: 0x0F47 [0x1A] CALL_SUBROUTINE(address=0x1A43)
751: 0x0F4A [0x02] IF !(ExtData[1]->WorkLocal[1] == 0*) GOTO 0x0F55
752: 0x0F52 [0x01] GOTO 0x0DF4
753: 0x0F55 [0x01] GOTO 0x0FF1
754: 0x0F58 [0x02] IF !(Work_Zone[0] == 9*) GOTO 0x0F76
755: 0x0F60 [0x03] Work_Zone_1700[0] = Work_Zone_1700[10]
756: 0x0F65 [0x1A] CALL_SUBROUTINE(address=0x1A43)
757: 0x0F68 [0x02] IF !(ExtData[1]->WorkLocal[1] == 0*) GOTO 0x0F73
758: 0x0F70 [0x01] GOTO 0x0DF4
759: 0x0F73 [0x01] GOTO 0x0FF1
760: 0x0F76 [0x02] IF !(Work_Zone[0] == 10*) GOTO 0x0F94
761: 0x0F7E [0x03] Work_Zone_1700[0] = Work_Zone_1700[11]
762: 0x0F83 [0x1A] CALL_SUBROUTINE(address=0x1A43)
763: 0x0F86 [0x02] IF !(ExtData[1]->WorkLocal[1] == 0*) GOTO 0x0F91
764: 0x0F8E [0x01] GOTO 0x0DF4
765: 0x0F91 [0x01] GOTO 0x0FF1
766: 0x0F94 [0x02] IF !(Work_Zone[0] == 11*) GOTO 0x0FB2
767: 0x0F9C [0x03] Work_Zone_1700[0] = Work_Zone_1700[12]
768: 0x0FA1 [0x1A] CALL_SUBROUTINE(address=0x1A43)
769: 0x0FA4 [0x02] IF !(ExtData[1]->WorkLocal[1] == 0*) GOTO 0x0FAF
770: 0x0FAC [0x01] GOTO 0x0DF4
771: 0x0FAF [0x01] GOTO 0x0FF1
772: 0x0FB2 [0x02] IF !(Work_Zone[0] == 12*) GOTO 0x0FD0
773: 0x0FBA [0x03] Work_Zone_1700[0] = Work_Zone_1700[13]
774: 0x0FBF [0x1A] CALL_SUBROUTINE(address=0x1A43)
775: 0x0FC2 [0x02] IF !(ExtData[1]->WorkLocal[1] == 0*) GOTO 0x0FCD
776: 0x0FCA [0x01] GOTO 0x0DF4
777: 0x0FCD [0x01] GOTO 0x0FF1
778: 0x0FD0 [0x02] IF !(Work_Zone[0] == 13*) GOTO 0x0FEE
779: 0x0FD8 [0x03] Work_Zone_1700[0] = Work_Zone_1700[14]
780: 0x0FDD [0x1A] CALL_SUBROUTINE(address=0x1A43)
781: 0x0FE0 [0x02] IF !(ExtData[1]->WorkLocal[1] == 0*) GOTO 0x0FEB
782: 0x0FE8 [0x01] GOTO 0x0DF4
783: 0x0FEB [0x01] GOTO 0x0FF1
784: 0x0FEE [0x01] GOTO 0x0D2D

SUBROUTINE_0FF1:
785: 0x0FF1 [0x01] GOTO 0x0FF9
786: 0x0FF4 [0x03] Work_Zone[1] = 1073741824*

SUBROUTINE_0FF9:
787: 0x0FF9 [0x01] GOTO 0x1122
788: 0x0FFC [0x02] IF !(Work_Zone[0] == 3*) GOTO 0x1112

SUBROUTINE_1004:
789: 0x1004 [0x24] CREATE_DIALOG(message_id=10817*, default_option=0*, option_flags=0*)
    → "What do you wish to know about? [Nothing./Sanction./Imperial Standing./Besieged.]"
790: 0x100B [0x25] WAIT_DIALOG_SELECT()
791: 0x100C [0x02] IF !(Work_Zone[0] == 0*) GOTO 0x1017
792: 0x1014 [0x01] GOTO 0x110A
793: 0x1017 [0x02] IF !(Work_Zone[0] == 1*) GOTO 0x1039
794: 0x101F [0x1D] PRINT_EVENT_MESSAGE(message_id=10819*)
    → ""Sanction" is a magic spell that we use to observe and assess mercenaries' actions."
795: 0x1022 [0x23] WAIT_FOR_DIALOG_INTERACTION
796: 0x1023 [0x1D] PRINT_EVENT_MESSAGE(message_id=10820*)
    → "Defeating enemies while you have Sanction cast on you will raise your Imperial Standing. Also, the stronger the monsters you fight, the higher your Imperial Standing will become."
797: 0x1026 [0x23] WAIT_FOR_DIALOG_INTERACTION
798: 0x1027 [0x1D] PRINT_EVENT_MESSAGE(message_id=10821*)
    → "When fighting in a beastman stronghold that has taken the Astral Candescence, your Imperial Standing will rise by a significant amount as thanks for your participation in the recovery effort."
799: 0x102A [0x23] WAIT_FOR_DIALOG_INTERACTION
800: 0x102B [0x1D] PRINT_EVENT_MESSAGE(message_id=10822*)
    → "Sanction is also necessary in order to receive crystals from the enemies you defeat."
801: 0x102E [0x23] WAIT_FOR_DIALOG_INTERACTION
802: 0x102F [0x1D] PRINT_EVENT_MESSAGE(message_id=10823*)
    → "But you must take caution. Stepping too far out of the Empire's boundaries will cause Sanction to wear off."
803: 0x1032 [0x23] WAIT_FOR_DIALOG_INTERACTION
804: 0x1033 [0x01] GOTO 0x1004

SUBROUTINE_105F:
805: 0x105F [0x24] CREATE_DIALOG(message_id=10818*, default_option=0*, option_flags=0*)
    → "What about Besieged? [Never mind./Besieged basics./"Serpent Generals."/Astral Candescence in Al Zahbi./Astral Candescence with beastmen./Empire's current state of defense.]"
806: 0x1066 [0x25] WAIT_DIALOG_SELECT()
807: 0x1067 [0x02] IF !(Work_Zone[0] == 0*) GOTO 0x1075
808: 0x106F [0x01] GOTO 0x1004

SUBROUTINE_1104:
809: 0x1104 [0x01] GOTO 0x105F

SUBROUTINE_110A:
810: 0x110A [0x03] Work_Zone[1] = 1073741824*
811: 0x110F [0x01] GOTO 0x1122
812: 0x1112 [0x02] IF !(Work_Zone[0] == 4*) GOTO 0x1122
813: 0x111A [0x03] Work_Zone[1] = 1073741824*
814: 0x111F [0x01] GOTO 0x1122

SUBROUTINE_1122:
815: 0x1122 [0x21] END_EVENT
816: 0x1123 [0x00] END_REQSTACK()
```

#### Data or dead code:

```
# Dead code (unreachable instructions):
     0x0427 [0x01] GOTO 0x0449
     0x0438 [0x01] GOTO 0x0449
     0x0446 [0x01] GOTO 0x0449
# Dead code (unreachable instructions):
     0x0624 [0x01] GOTO 0x0646
     0x0635 [0x01] GOTO 0x0646
     0x0643 [0x01] GOTO 0x0646
# Dead code (unreachable instructions):
     0x06FB [0x01] GOTO 0x06FE
# Dead code (unreachable instructions):
     0x0796 [0x01] GOTO 0x0799
# Dead code (unreachable instructions):
     0x0854 [0x01] GOTO 0x0857
# Dead code (unreachable instructions):
     0x08EF [0x01] GOTO 0x08F2
# Dead code (unreachable instructions):
     0x098A [0x01] GOTO 0x098D
# Dead code (unreachable instructions):
     0x0A25 [0x01] GOTO 0x0A28
# Dead code (unreachable instructions):
     0x0AC0 [0x01] GOTO 0x0AC3
# Dead code (unreachable instructions):
     0x0B7E [0x01] GOTO 0x0B81
# Dead code (unreachable instructions):
     0x0C5F [0x01] GOTO 0x0C62
# Dead code (unreachable instructions):
     0x0CFA [0x01] GOTO 0x0CFD
# Dead code (unreachable instructions):
     0x1036 [0x01] GOTO 0x110A
     0x1054 [0x01] GOTO 0x110A
# Dead code (unreachable instructions):
     0x1072 [0x01] GOTO 0x1104
# Dead code (unreachable instructions):
     0x1107 [0x01] GOTO 0x110A
```

### Event 254

#### Metadata

| Field        | Value      |
|--------------|------------|
| Entrypoint   | 0x1124     |
| Data Size    | 2562 bytes |
| Instructions | 7          |

```
      00 01 02 03 04 05 06 07  08 09 0A 0B 0C 0D 0E 0F
      -- -- -- -- -- -- -- --  -- -- -- -- -- -- -- --
1120:             1E F0 FF FF  7F 1D 02 80 23 1D 98 80      ........#...
1130: 23 21 00 02 02 10 00 00  04 73 11 40 75 80 99 80  #!.......s.@u...
1140: 01 10 00 10 93 00 17 1D  9A 80 23 93 01 80 24 9B  ..........#...$.
1150: 80 0A 80 01 80 25 02 00  10 01 80 00 62 11 42 01  .....%......b.B.
1160: 70 11 02 00 10 0A 80 00  70 11 05 01 00 01 70 11  p.......p.....p.
1170: 01 80 11 93 00 17 1D 9C  80 23 93 01 80 05 01 00  .........#......
1180: 1B 02 02 10 33 80 04 BB  11 40 2B 80 13 80 01 10  ....3....@+.....
1190: 00 10 1D 9D 80 23 24 9B  80 0A 80 01 80 25 02 00  .....#$......%..
11A0: 10 01 80 00 AA 11 42 01  B8 11 02 00 10 0A 80 00  ......B.........
11B0: B8 11 05 01 00 01 B8 11  01 C2 11 1D 9E 80 23 05  ..............#.
11C0: 01 00 1B 02 04 10 0C 80  04 98 12 02 02 10 27 80  ..............'.
11D0: 04 88 12 40 2B 80 13 80  01 10 00 10 43 00 43 01  ...@+.......C.C.
11E0: 02 05 10 01 80 80 17 12  93 00 17 1D 9F 80 23 93  ..............#.
11F0: 01 80 24 A0 80 0A 80 01  80 25 02 00 10 01 80 00  ..$......%......
1200: 06 12 42 01 14 12 02 00  10 0A 80 00 14 12 05 01  ..B.............
1210: 00 01 14 12 01 85 12 02  05 10 0A 80 80 4E 12 93  .............N..
1220: 00 17 1D A1 80 23 93 01  80 24 A0 80 0A 80 01 80  .....#...$......
1230: 25 02 00 10 01 80 00 3D  12 42 01 4B 12 02 00 10  %......=.B.K....
1240: 0A 80 00 4B 12 05 01 00  01 4B 12 01 85 12 02 05  ...K.....K......
1250: 10 0C 80 80 85 12 93 00  17 1D A2 80 23 93 01 80  ............#...
1260: 24 9B 80 0A 80 01 80 25  02 00 10 01 80 00 74 12  $......%......t.
1270: 42 01 82 12 02 00 10 0A  80 00 82 12 05 01 00 01  B...............
1280: 82 12 01 85 12 01 95 12  93 00 17 1D 9C 80 23 93  ..............#.
1290: 01 80 05 01 00 01 A5 12  93 00 17 1D A3 80 23 93  ..............#.
12A0: 01 80 05 01 00 1B 02 04  10 0D 80 04 B2 13 02 02  ................
12B0: 10 3D 80 04 A2 13 40 2B  80 13 80 01 10 00 10 43  .=....@+.......C
12C0: 00 43 01 02 05 10 01 80  80 FA 12 93 00 17 1D 9F  .C..............
12D0: 80 23 93 01 80 24 A0 80  0A 80 01 80 25 02 00 10  .#...$......%...
12E0: 01 80 00 E9 12 42 01 F7  12 02 00 10 0A 80 00 F7  .....B..........
12F0: 12 05 01 00 01 F7 12 01  9F 13 02 05 10 0A 80 80  ................
1300: 31 13 93 00 17 1D A1 80  23 93 01 80 24 A0 80 0A  1.......#...$...
1310: 80 01 80 25 02 00 10 01  80 00 20 13 42 01 2E 13  ...%...... .B...
1320: 02 00 10 0A 80 00 2E 13  05 01 00 01 2E 13 01 9F  ................
1330: 13 02 05 10 0C 80 80 68  13 93 00 17 1D A2 80 23  .......h.......#
1340: 93 01 80 24 9B 80 0A 80  01 80 25 02 00 10 01 80  ...$......%.....
1350: 00 57 13 42 01 65 13 02  00 10 0A 80 00 65 13 05  .W.B.e.......e..
1360: 01 00 01 65 13 01 9F 13  02 05 10 0D 80 80 9F 13  ...e............
1370: 93 00 17 1D A2 80 23 93  01 80 24 9B 80 0A 80 01  ......#...$.....
1380: 80 25 02 00 10 01 80 00  8E 13 42 01 9C 13 02 00  .%........B.....
1390: 10 0A 80 00 9C 13 05 01  00 01 9C 13 01 9F 13 01  ................
13A0: AF 13 93 00 17 1D 9C 80  23 93 01 80 05 01 00 01  ........#.......
13B0: BF 13 93 00 17 1D A3 80  23 93 01 80 05 01 00 1B  ........#.......
13C0: 02 04 10 08 80 04 95 14  02 02 10 42 80 04 85 14  ...........B....
13D0: 40 2B 80 13 80 01 10 00  10 43 00 43 01 02 05 10  @+.......C.C....
13E0: 01 80 80 14 14 93 00 17  1D 9F 80 23 93 01 80 24  ...........#...$
13F0: A0 80 0A 80 01 80 25 02  00 10 01 80 00 03 14 42  ......%........B
1400: 01 11 14 02 00 10 0A 80  00 11 14 05 01 00 01 11  ................
1410: 14 01 82 14 02 05 10 0A  80 80 4B 14 93 00 17 1D  ..........K.....
1420: A1 80 23 93 01 80 24 A0  80 0A 80 01 80 25 02 00  ..#...$......%..
1430: 10 01 80 00 3A 14 42 01  48 14 02 00 10 0A 80 00  ....:.B.H.......
1440: 48 14 05 01 00 01 48 14  01 82 14 02 05 10 0C 80  H.....H.........
1450: 80 82 14 93 00 17 1D A2  80 23 93 01 80 24 9B 80  .........#...$..
1460: 0A 80 01 80 25 02 00 10  01 80 00 71 14 42 01 7F  ....%......q.B..
1470: 14 02 00 10 0A 80 00 7F  14 05 01 00 01 7F 14 01  ................
1480: 82 14 01 92 14 93 00 17  1D 9C 80 23 93 01 80 05  ...........#....
1490: 01 00 01 A2 14 93 00 17  1D A3 80 23 93 01 80 05  ...........#....
14A0: 01 00 1B 02 04 10 29 80  04 78 15 02 02 10 46 80  ......)..x....F.
14B0: 04 68 15 40 2B 80 13 80  01 10 00 10 43 00 43 01  .h.@+.......C.C.
14C0: 02 05 10 01 80 80 F7 14  93 00 17 1D 9F 80 23 93  ..............#.
14D0: 01 80 24 A0 80 0A 80 01  80 25 02 00 10 01 80 00  ..$......%......
14E0: E6 14 42 01 F4 14 02 00  10 0A 80 00 F4 14 05 01  ..B.............
14F0: 00 01 F4 14 01 65 15 02  05 10 0A 80 80 2E 15 93  .....e..........
1500: 00 17 1D A1 80 23 93 01  80 24 A0 80 0A 80 01 80  .....#...$......
1510: 25 02 00 10 01 80 00 1D  15 42 01 2B 15 02 00 10  %........B.+....
1520: 0A 80 00 2B 15 05 01 00  01 2B 15 01 65 15 02 05  ...+.....+..e...
1530: 10 0C 80 80 65 15 93 00  17 1D A2 80 23 93 01 80  ....e.......#...
1540: 24 9B 80 0A 80 01 80 25  02 00 10 01 80 00 54 15  $......%......T.
1550: 42 01 62 15 02 00 10 0A  80 00 62 15 05 01 00 01  B.b.......b.....
1560: 62 15 01 65 15 01 75 15  93 00 17 1D 9C 80 23 93  b..e..u.......#.
1570: 01 80 05 01 00 01 85 15  93 00 17 1D A3 80 23 93  ..............#.
1580: 01 80 05 01 00 1B 02 04  10 2A 80 04 5B 16 02 02  .........*..[...
1590: 10 4A 80 04 4B 16 40 2B  80 13 80 01 10 00 10 43  .J..K.@+.......C
15A0: 00 43 01 02 05 10 01 80  80 DA 15 93 00 17 1D 9F  .C..............
15B0: 80 23 93 01 80 24 A0 80  0A 80 01 80 25 02 00 10  .#...$......%...
15C0: 01 80 00 C9 15 42 01 D7  15 02 00 10 0A 80 00 D7  .....B..........
15D0: 15 05 01 00 01 D7 15 01  48 16 02 05 10 0A 80 80  ........H.......
15E0: 11 16 93 00 17 1D A1 80  23 93 01 80 24 A0 80 0A  ........#...$...
15F0: 80 01 80 25 02 00 10 01  80 00 00 16 42 01 0E 16  ...%........B...
1600: 02 00 10 0A 80 00 0E 16  05 01 00 01 0E 16 01 48  ...............H
1610: 16 02 05 10 0C 80 80 48  16 93 00 17 1D A2 80 23  .......H.......#
1620: 93 01 80 24 9B 80 0A 80  01 80 25 02 00 10 01 80  ...$......%.....
1630: 00 37 16 42 01 45 16 02  00 10 0A 80 00 45 16 05  .7.B.E.......E..
1640: 01 00 01 45 16 01 48 16  01 58 16 93 00 17 1D 9C  ...E..H..X......
1650: 80 23 93 01 80 05 01 00  01 68 16 93 00 17 1D A3  .#.......h......
1660: 80 23 93 01 80 05 01 00  1B 02 04 10 09 80 04 3E  .#.............>
1670: 17 02 02 10 4E 80 04 2E  17 40 2B 80 13 80 01 10  ....N....@+.....
1680: 00 10 43 00 43 01 02 05  10 01 80 80 BD 16 93 00  ..C.C...........
1690: 17 1D 9F 80 23 93 01 80  24 A0 80 0A 80 01 80 25  ....#...$......%
16A0: 02 00 10 01 80 00 AC 16  42 01 BA 16 02 00 10 0A  ........B.......
16B0: 80 00 BA 16 05 01 00 01  BA 16 01 2B 17 02 05 10  ...........+....
16C0: 0A 80 80 F4 16 93 00 17  1D A1 80 23 93 01 80 24  ...........#...$
16D0: A0 80 0A 80 01 80 25 02  00 10 01 80 00 E3 16 42  ......%........B
16E0: 01 F1 16 02 00 10 0A 80  00 F1 16 05 01 00 01 F1  ................
16F0: 16 01 2B 17 02 05 10 0C  80 80 2B 17 93 00 17 1D  ..+.......+.....
1700: A2 80 23 93 01 80 24 9B  80 0A 80 01 80 25 02 00  ..#...$......%..
1710: 10 01 80 00 1A 17 42 01  28 17 02 00 10 0A 80 00  ......B.(.......
1720: 28 17 05 01 00 01 28 17  01 2B 17 01 3B 17 93 00  (.....(..+..;...
1730: 17 1D 9C 80 23 93 01 80  05 01 00 01 4B 17 93 00  ....#.......K...
1740: 17 1D A3 80 23 93 01 80  05 01 00 1B 02 04 10 2B  ....#..........+
1750: 80 04 21 18 02 02 10 53  80 04 11 18 40 2B 80 13  ..!....S....@+..
1760: 80 01 10 00 10 43 00 43  01 02 05 10 01 80 80 A0  .....C.C........
1770: 17 93 00 17 1D 9F 80 23  93 01 80 24 A0 80 0A 80  .......#...$....
1780: 01 80 25 02 00 10 01 80  00 8F 17 42 01 9D 17 02  ..%........B....
1790: 00 10 0A 80 00 9D 17 05  01 00 01 9D 17 01 0E 18  ................
17A0: 02 05 10 0A 80 80 D7 17  93 00 17 1D A1 80 23 93  ..............#.
17B0: 01 80 24 A0 80 0A 80 01  80 25 02 00 10 01 80 00  ..$......%......
17C0: C6 17 42 01 D4 17 02 00  10 0A 80 00 D4 17 05 01  ..B.............
17D0: 00 01 D4 17 01 0E 18 02  05 10 0C 80 80 0E 18 93  ................
17E0: 00 17 1D A2 80 23 93 01  80 24 9B 80 0A 80 01 80  .....#...$......
17F0: 25 02 00 10 01 80 00 FD  17 42 01 0B 18 02 00 10  %........B......
1800: 0A 80 00 0B 18 05 01 00  01 0B 18 01 0E 18 01 1E  ................
1810: 18 93 00 17 1D 9C 80 23  93 01 80 05 01 00 01 2E  .......#........
1820: 18 93 00 17 1D A3 80 23  93 01 80 05 01 00 1B 02  .......#........
1830: 04 10 2C 80 04 04 19 02  02 10 A4 80 04 F4 18 40  ..,............@
1840: 2B 80 13 80 01 10 00 10  43 00 43 01 02 05 10 01  +.......C.C.....
1850: 80 80 83 18 93 00 17 1D  9F 80 23 93 01 80 24 A0  ..........#...$.
1860: 80 0A 80 01 80 25 02 00  10 01 80 00 72 18 42 01  .....%......r.B.
1870: 80 18 02 00 10 0A 80 00  80 18 05 01 00 01 80 18  ................
1880: 01 F1 18 02 05 10 0A 80  80 BA 18 93 00 17 1D A1  ................
1890: 80 23 93 01 80 24 A0 80  0A 80 01 80 25 02 00 10  .#...$......%...
18A0: 01 80 00 A9 18 42 01 B7  18 02 00 10 0A 80 00 B7  .....B..........
18B0: 18 05 01 00 01 B7 18 01  F1 18 02 05 10 0C 80 80  ................
18C0: F1 18 93 00 17 1D A2 80  23 93 01 80 24 9B 80 0A  ........#...$...
18D0: 80 01 80 25 02 00 10 01  80 00 E0 18 42 01 EE 18  ...%........B...
18E0: 02 00 10 0A 80 00 EE 18  05 01 00 01 EE 18 01 F1  ................
18F0: 18 01 01 19 93 00 17 1D  9C 80 23 93 01 80 05 01  ..........#.....
1900: 00 01 11 19 93 00 17 1D  A3 80 23 93 01 80 05 01  ..........#.....
1910: 00 1B 02 04 10 1D 80 04  E7 19 02 02 10 5D 80 04  .............]..
1920: D7 19 40 2B 80 13 80 01  10 00 10 43 00 43 01 02  ..@+.......C.C..
1930: 05 10 01 80 80 66 19 93  00 17 1D 9F 80 23 93 01  .....f.......#..
1940: 80 24 A0 80 0A 80 01 80  25 02 00 10 01 80 00 55  .$......%......U
1950: 19 42 01 63 19 02 00 10  0A 80 00 63 19 05 01 00  .B.c.......c....
1960: 01 63 19 01 D4 19 02 05  10 0A 80 80 9D 19 93 00  .c..............
1970: 17 1D A1 80 23 93 01 80  24 A0 80 0A 80 01 80 25  ....#...$......%
1980: 02 00 10 01 80 00 8C 19  42 01 9A 19 02 00 10 0A  ........B.......
1990: 80 00 9A 19 05 01 00 01  9A 19 01 D4 19 02 05 10  ................
19A0: 0C 80 80 D4 19 93 00 17  1D A2 80 23 93 01 80 24  ...........#...$
19B0: 9B 80 0A 80 01 80 25 02  00 10 01 80 00 C3 19 42  ......%........B
19C0: 01 D1 19 02 00 10 0A 80  00 D1 19 05 01 00 01 D1  ................
19D0: 19 01 D4 19 01 E4 19 93  00 17 1D 9C 80 23 93 01  .............#..
19E0: 80 05 01 00 01 F4 19 93  00 17 1D A3 80 23 93 01  .............#..
19F0: 80 05 01 00 1B 02 02 10  00 00 04 35 1A 40 75 80  ...........5.@u.
1A00: 99 80 01 10 00 10 93 00  17 1D A5 80 23 93 01 80  ............#...
1A10: 24 9B 80 0A 80 01 80 25  02 00 10 01 80 00 24 1A  $......%......$.
1A20: 42 01 32 1A 02 00 10 0A  80 00 32 1A 05 01 00 01  B.2.......2.....
1A30: 32 1A 01 42 1A 93 00 17  1D A6 80 23 93 01 80 05  2..B.......#....
1A40: 01 00 1B 02 04 10 1D 80  04 18 1B 02 02 10 A7 80  ................
1A50: 04 08 1B 40 2B 80 13 80  01 10 00 10 43 00 43 01  ...@+.......C.C.
1A60: 02 05 10 01 80 80 97 1A  93 00 17 1D 9F 80 23 93  ..............#.
1A70: 01 80 24 A0 80 0A 80 01  80 25 02 00 10 01 80 00  ..$......%......
1A80: 86 1A 42 01 94 1A 02 00  10 0A 80 00 94 1A 05 01  ..B.............
1A90: 00 01 94 1A 01 05 1B 02  05 10 0A 80 80 CE 1A 93  ................
1AA0: 00 17 1D A1 80 23 93 01  80 24 A0 80 0A 80 01 80  .....#...$......
1AB0: 25 02 00 10 01 80 00 BD  1A 42 01 CB 1A 02 00 10  %........B......
1AC0: 0A 80 00 CB 1A 05 01 00  01 CB 1A 01 05 1B 02 05  ................
1AD0: 10 0C 80 80 05 1B 93 00  17 1D A2 80 23 93 01 80  ............#...
1AE0: 24 9B 80 0A 80 01 80 25  02 00 10 01 80 00 F4 1A  $......%........
1AF0: 42 01 02 1B 02 00 10 0A  80 00 02 1B 05 01 00 01  B...............
1B00: 02 1B 01 05 1B 01 15 1B  93 00 17 1D A6 80 23 93  ..............#.
1B10: 01 80 05 01 00 01 25 1B  93 00 17 1D A3 80 23 93  ......%.......#.
1B20: 01 80 05 01 00 1B                                 ......          
```

#### Opcodes

```
  0: 0x1124 [0x1E] EventEntity looks at LocalPlayer and starts talking
  1: 0x1129 [0x1D] PRINT_EVENT_MESSAGE(message_id=10780*)
    → "I'm %, a soldier of the great Empire of Aht Urhgan. Pray tell, why have you come all the way to this forsaken land?"
  2: 0x112C [0x23] WAIT_FOR_DIALOG_INTERACTION
  3: 0x112D [0x1D] PRINT_EVENT_MESSAGE(message_id=10781*)
    → "Don't waste my time, adventurer."
  4: 0x1130 [0x23] WAIT_FOR_DIALOG_INTERACTION
  5: 0x1131 [0x21] END_EVENT
  6: 0x1132 [0x00] END_REQSTACK()
```

#### Data or dead code:

```
# Dead code (unreachable instructions):
     0x1133 [0x02] IF !(Work_Zone[2] < ExtData[1]->WorkLocal[0]) GOTO 0x1173
     0x113B [0x40] SET_BIT_WORK_RANGE(start_bit=12*, end_bit=19*, target=Work_Zone[1], source=Work_Zone[0])
     0x1144 [0x93] DISPLAY_ITEM_INFO(item_id=Work_Zone_1700[0])
     0x1147 [0x1D] PRINT_EVENT_MESSAGE(message_id=10807*)
    → "Are you sure you want to purchase the $8?"
     0x114A [0x23] WAIT_FOR_DIALOG_INTERACTION
     0x114B [0x93] DISPLAY_ITEM_INFO(item_id=0*)
     0x114E [0x24] CREATE_DIALOG(message_id=10809*, default_option=1*, option_flags=0*)
    → "Proceed? [Yes, purchase item./Cancel purchase.]"
     0x1155 [0x25] WAIT_DIALOG_SELECT()
     0x1156 [0x02] IF !(Work_Zone[0] == 0*) GOTO 0x1162
     0x115E [0x42] SET_CLI_EVENT_CANCEL_DATA()
     0x115F [0x01] GOTO 0x1170
     0x1162 [0x02] IF !(Work_Zone[0] == 1*) GOTO 0x1170
     0x116A [0x05] ExtData[1]->WorkLocal[1] = 1
     0x116D [0x01] GOTO 0x1170
     0x1170 [0x01] GOTO 0x1180
     0x1173 [0x93] DISPLAY_ITEM_INFO(item_id=Work_Zone_1700[0])
     0x1176 [0x1D] PRINT_EVENT_MESSAGE(message_id=10802*)
    → "Your Imperial Standing is too low to purchase the $8."
     0x1179 [0x23] WAIT_FOR_DIALOG_INTERACTION
     0x117A [0x93] DISPLAY_ITEM_INFO(item_id=0*)
     0x117D [0x05] ExtData[1]->WorkLocal[1] = 1
     0x1180 [0x1B] RETURN
     0x1181 [0x02] IF !(Work_Zone[2] < 1000*) GOTO 0x11BB
     0x1189 [0x40] SET_BIT_WORK_RANGE(start_bit=8*, end_bit=11*, target=Work_Zone[1], source=Work_Zone[0])
     0x1192 [0x1D] PRINT_EVENT_MESSAGE(message_id=10797*)
    → "Are you sure you want to purchase the $3?"
     0x1195 [0x23] WAIT_FOR_DIALOG_INTERACTION
     0x1196 [0x24] CREATE_DIALOG(message_id=10809*, default_option=1*, option_flags=0*)
    → "Proceed? [Yes, purchase item./Cancel purchase.]"
     0x119D [0x25] WAIT_DIALOG_SELECT()
     0x119E [0x02] IF !(Work_Zone[0] == 0*) GOTO 0x11AA
