# 16994423

## Common Data

| Field            | Value            |
|------------------|------------------|
| Zone             | Nashmau (ID: 53) |
| Block Size       | 2920 bytes       |
| Total Events     | 2                |
| References Count | 55               |

## List of Events

| Event ID              | Entrypoint   |   Size |   Instructions |
|-----------------------|--------------|--------|----------------|
| [65535](#event-65535) | 0x0000       |      1 |              1 |
| [305](#event-305)     | 0x0001       |   2673 |            307 |

## DAT References (imed_data)

|   Index | Hex Value   |   Dec Value |
|---------|-------------|-------------|
|       0 | 0x00C8      |         200 |
|       1 | 0x0000      |           0 |
|       2 | 0x0013      |          19 |
|       3 | 0x0125      |         293 |
|       4 | 0x000C      |          12 |
|       5 | 0x2C48      |       11336 |
|       6 | 0x00F0      |         240 |
|       7 | 0x2C4A      |       11338 |
|       8 | 0x034B      |         843 |
|       9 | 0x2C4B      |       11339 |
|      10 | 0x001D      |          29 |
|      11 | 0x001E      |          30 |
|      12 | 0x0008      |           8 |
|      13 | 0x2C4C      |       11340 |
|      14 | 0x0020      |          32 |
|      15 | 0x2C4D      |       11341 |
|      16 | 0x0355      |         853 |
|      17 | 0x2C67      |       11367 |
|      18 | 0x2C4E      |       11342 |
|      19 | 0x0078      |         120 |
|      20 | 0x0045      |          69 |
|      21 | 0x2C4F      |       11343 |
|      22 | 0x0007      |           7 |
|      23 | 0x2C50      |       11344 |
|      24 | 0x2C51      |       11345 |
|      25 | 0x0028      |          40 |
|      26 | 0x2C52      |       11346 |
|      27 | 0x2C53      |       11347 |
|      28 | 0x2C54      |       11348 |
|      29 | 0x00DC      |         220 |
|      30 | 0x2C55      |       11349 |
|      31 | 0x2C56      |       11350 |
|      32 | 0x2C57      |       11351 |
|      33 | 0x2C58      |       11352 |
|      34 | 0x2C59      |       11353 |
|      35 | 0x2C5A      |       11354 |
|      36 | 0x2C5B      |       11355 |
|      37 | 0x2C5C      |       11356 |
|      38 | 0x2C5D      |       11357 |
|      39 | 0x2C5E      |       11358 |
|      40 | 0x2C5F      |       11359 |
|      41 | 0x2C60      |       11360 |
|      42 | 0x2C61      |       11361 |
|      43 | 0x2C62      |       11362 |
|      44 | 0x00B4      |         180 |
|      45 | 0x0371      |         881 |
|      46 | 0x2C63      |       11363 |
|      47 | 0x0019      |          25 |
|      48 | 0x0032      |          50 |
|      49 | 0x003C      |          60 |
|      50 | 0x000A      |          10 |
|      51 | 0x2C64      |       11364 |
|      52 | 0x2C65      |       11365 |
|      53 | 0x2C66      |       11366 |
|      54 | 0x00C9      |         201 |

## String References

- **11367**: <Player> hands Galiwao the $3.

## Events

### Event 65535

#### Metadata

| Field        | Value   |
|--------------|---------|
| Entrypoint   | 0x0000  |
| Data Size    | 1 bytes |
| Instructions | 1       |

```
      00 01 02 03 04 05 06 07  08 09 0A 0B 0C 0D 0E 0F
      -- -- -- -- -- -- -- --  -- -- -- -- -- -- -- --
0000: 00                                                .               
```

#### Opcodes

```
  0: 0x0000 [0x00] END_REQSTACK()
```

### Event 305

#### Metadata

| Field        | Value      |
|--------------|------------|
| Entrypoint   | 0x0001     |
| Data Size    | 2673 bytes |
| Instructions | 307        |

```
      00 01 02 03 04 05 06 07  08 09 0A 0B 0C 0D 0E 0F
      -- -- -- -- -- -- -- --  -- -- -- -- -- -- -- --
0000:    42 45 00 80 F8 FF FF  7F F8 FF FF 7F 66 64 6F   BE..........fdo
0010: 31 01 80 55 00 80 F8 FF  FF 7F F8 FF FF 7F 66 64  1..U..........fd
0020: 6F 31 46 01 38 02 80 80  78 50 03 01 80 79 50 03  o1F.8...xP...yP.
0030: 01 80 7A 50 03 01 80 3D  50 03 01 80 36 50 03 01  ..zP...=P...6P..
0040: 80 35 50 03 01 4E 00 F0  FF FF 7F 4E 00 78 50 03  .5P..N.....N.xP.
0050: 01 4E 00 79 50 03 01 4E  00 7A 50 03 01 4E 00 3D  .N.yP..N.zP..N.=
0060: 50 03 01 4E 00 36 50 03  01 4E 00 35 50 03 01 92  P..N.6P..N.5P...
0070: 01 78 50 03 01 92 01 79  50 03 01 92 01 7A 50 03  .xP....yP....zP.
0080: 01 92 01 3D 50 03 01 92  01 36 50 03 01 92 01 35  ...=P....6P....5
0090: 50 03 01 29 0A F0 FF FF  7F 2A 29 0A 78 50 03 01  P..).....*).xP..
00A0: 02 29 0A 7A 50 03 01 02  29 0A 79 50 03 01 02 29  .).zP...).yP...)
00B0: 0A 36 50 03 01 03 29 0A  35 50 03 01 03 29 0A 3D  .6P...).5P...).=
00C0: 50 03 01 04 4A 79 50 03  01 35 50 03 01 4A 7A 50  P...JyP..5P..JzP
00D0: 03 01 3D 50 03 01 4A 78  50 03 01 36 50 03 01 4A  ..=P..JxP..6P..J
00E0: 35 50 03 01 79 50 03 01  4A 3D 50 03 01 7A 50 03  5P..yP..J=P..zP.
00F0: 01 4A 36 50 03 01 78 50  03 01 4A F0 FF FF 7F 79  .J6P..xP..J....y
0100: 50 03 01 45 00 80 F8 FF  FF 7F F8 FF FF 7F 66 64  P..E..........fd
0110: 69 31 01 80 45 03 80 F8  FF FF 7F F8 FF FF 7F 73  i1..E..........s
0120: 30 38 39 01 80 6E 7A 50  03 01 04 80 99 7A 50 03  089..nzP.....zP.
0130: 01 2B 7A 50 03 01 05 80  1C 06 80 52 03 80 F8 FF  .+zP.......R....
0140: FF 7F F8 FF FF 7F 73 30  38 39 45 03 80 F8 FF FF  ......s089E.....
0150: 7F F8 FF FF 7F 73 30 39  30 01 80 79 00 7A 50 03  .....s090..y.zP.
0160: 01 3D 50 03 01 2B 7A 50  03 01 07 80 23 52 03 80  .=P..+zP....#R..
0170: F8 FF FF 7F F8 FF FF 7F  73 30 39 30 45 03 80 F8  ........s090E...
0180: FF FF 7F F8 FF FF 7F 73  30 39 31 01 80 5B 08 80  .......s091..[..
0190: 3D 50 03 01 3D 50 03 01  74 6C 62 30 2B 3D 50 03  =P..=P..tlb0+=P.
01A0: 01 09 80 23 5B 08 80 3D  50 03 01 3D 50 03 01 74  ...#[..=P..=P..t
01B0: 6C 62 31 52 03 80 F8 FF  FF 7F F8 FF FF 7F 73 30  lb1R..........s0
01C0: 39 31 45 03 80 F8 FF FF  7F F8 FF FF 7F 73 30 39  91E..........s09
01D0: 32 01 80 5B 08 80 3D 50  03 01 3D 50 03 01 74 6C  2..[..=P..=P..tl
01E0: 62 30 5B 08 80 35 50 03  01 35 50 03 01 74 6C 62  b0[..5P..5P..tlb
01F0: 30 5B 08 80 36 50 03 01  36 50 03 01 74 6C 62 30  0[..6P..6P..tlb0
0200: 6E 78 50 03 01 0A 80 99  78 50 03 01 1C 0B 80 6E  nxP.....xP.....n
0210: 7A 50 03 01 0A 80 99 7A  50 03 01 1C 0B 80 6E 79  zP.....zP.....ny
0220: 50 03 01 0A 80 99 79 50  03 01 1C 00 80 52 03 80  P.....yP.....R..
0230: F8 FF FF 7F F8 FF FF 7F  73 30 39 32 45 03 80 F8  ........s092E...
0240: FF FF 7F F8 FF FF 7F 73  30 39 33 01 80 4A 79 50  .......s093..JyP
0250: 03 01 F0 FF FF 7F 1C 0B  80 6E 79 50 03 01 0C 80  .........nyP....
0260: 99 79 50 03 01 2B 79 50  03 01 0D 80 23 27 32 3D  .yP..+yP....#'2=
0270: 50 03 01 05 27 32 35 50  03 01 04 27 32 36 50 03  P...'25P...'26P.
0280: 01 04 5B 08 80 3D 50 03  01 3D 50 03 01 74 6C 62  ..[..=P..=P..tlb
0290: 31 5B 08 80 35 50 03 01  35 50 03 01 74 6C 62 31  1[..5P..5P..tlb1
02A0: 5B 08 80 36 50 03 01 36  50 03 01 74 6C 62 31 27  [..6P..6P..tlb1'
02B0: 32 F0 FF FF 7F 2B 52 03  80 F8 FF FF 7F F8 FF FF  2....+R.........
02C0: 7F 73 30 39 33 45 03 80  F8 FF FF 7F F8 FF FF 7F  .s093E..........
02D0: 73 30 39 34 01 80 4A 7A  50 03 01 F0 FF FF 7F 4A  s094..JzP......J
02E0: 79 50 03 01 F0 FF FF 7F  4A 78 50 03 01 F0 FF FF  yP......JxP.....
02F0: 7F 1C 06 80 52 03 80 F8  FF FF 7F F8 FF FF 7F 73  ....R..........s
0300: 30 39 34 45 03 80 F8 FF  FF 7F F8 FF FF 7F 73 30  094E..........s0
0310: 39 35 01 80 6E 78 50 03  01 0E 80 99 78 50 03 01  95..nxP.....xP..
0320: 2B 78 50 03 01 0F 80 23  52 03 80 F8 FF FF 7F F8  +xP....#R.......
0330: FF FF 7F 73 30 39 35 45  03 80 F8 FF FF 7F F8 FF  ...s095E........
0340: FF 7F 73 30 39 39 01 80  03 02 10 10 80 48 11 80  ..s099.......H..
0350: 23 2B 78 50 03 01 12 80  23 4A 3D 50 03 01 7A 50  #+xP....#J=P..zP
0360: 03 01 4A 35 50 03 01 79  50 03 01 4A 36 50 03 01  ..J5P..yP..J6P..
0370: 78 50 03 01 52 03 80 F8  FF FF 7F F8 FF FF 7F 73  xP..R..........s
0380: 30 39 39 45 00 80 F8 FF  FF 7F F8 FF FF 7F 66 64  099E..........fd
0390: 6F 31 01 80 55 00 80 F8  FF FF 7F F8 FF FF 7F 66  o1..U..........f
03A0: 64 6F 31 4A F0 FF FF 7F  7A 50 03 01 1C 13 80 45  do1J....zP.....E
03B0: 00 80 F8 FF FF 7F F8 FF  FF 7F 66 64 69 31 01 80  ..........fdi1..
03C0: 45 03 80 F8 FF FF 7F F8  FF FF 7F 73 30 39 36 01  E..........s096.
03D0: 80 66 14 80 7A 50 03 01  7A 50 03 01 74 6C 6B 30  .f..zP..zP..tlk0
03E0: 2B 7A 50 03 01 15 80 23  66 14 80 7A 50 03 01 7A  +zP....#f..zP..z
03F0: 50 03 01 74 6C 6B 31 52  03 80 F8 FF FF 7F F8 FF  P..tlk1R........
0400: FF 7F 73 30 39 36 45 03  80 F8 FF FF 7F F8 FF FF  ..s096E.........
0410: 7F 73 30 39 37 01 80 6E  F0 FF FF 7F 16 80 99 F0  .s097..n........
0420: FF FF 7F 1C 13 80 52 03  80 F8 FF FF 7F F8 FF FF  ......R.........
0430: 7F 73 30 39 37 45 03 80  F8 FF FF 7F F8 FF FF 7F  .s097E..........
0440: 73 31 30 30 01 80 6E 78  50 03 01 16 80 99 78 50  s100..nxP.....xP
0450: 03 01 2B 78 50 03 01 17  80 23 52 03 80 F8 FF FF  ..+xP....#R.....
0460: 7F F8 FF FF 7F 73 31 30  30 45 03 80 F8 FF FF 7F  .....s100E......
0470: F8 FF FF 7F 73 30 39 38  01 80 2B 78 50 03 01 18  ....s098..+xP...
0480: 80 23 52 03 80 F8 FF FF  7F F8 FF FF 7F 73 30 39  .#R..........s09
0490: 38 45 03 80 F8 FF FF 7F  F8 FF FF 7F 73 31 30 31  8E..........s101
04A0: 01 80 4A 79 50 03 01 78  50 03 01 4A 78 50 03 01  ..JyP..xP..JxP..
04B0: 79 50 03 01 1C 19 80 66  14 80 79 50 03 01 79 50  yP.....f..yP..yP
04C0: 03 01 74 6C 6B 30 2B 79  50 03 01 1A 80 23 66 14  ..tlk0+yP....#f.
04D0: 80 79 50 03 01 79 50 03  01 74 6C 6B 31 52 03 80  .yP..yP..tlk1R..
04E0: F8 FF FF 7F F8 FF FF 7F  73 31 30 31 45 03 80 F8  ........s101E...
04F0: FF FF 7F F8 FF FF 7F 73  31 30 32 01 80 4A 7A 50  .......s102..JzP
0500: 03 01 79 50 03 01 1C 0B  80 2B 7A 50 03 01 1B 80  ..yP.....+zP....
0510: 23 52 03 80 F8 FF FF 7F  F8 FF FF 7F 73 31 30 32  #R..........s102
0520: 45 03 80 F8 FF FF 7F F8  FF FF 7F 73 31 30 33 01  E..........s103.
0530: 80 4A 7A 50 03 01 78 50  03 01 1C 0B 80 2B 7A 50  .JzP..xP.....+zP
0540: 03 01 1C 80 23 52 03 80  F8 FF FF 7F F8 FF FF 7F  ....#R..........
0550: 73 31 30 33 45 03 80 F8  FF FF 7F F8 FF FF 7F 73  s103E..........s
0560: 31 30 34 01 80 4A 78 50  03 01 F0 FF FF 7F 1C 0B  104..JxP........
0570: 80 6E 78 50 03 01 0E 80  99 78 50 03 01 1C 1D 80  .nxP.....xP.....
0580: 2B 78 50 03 01 1E 80 23  52 03 80 F8 FF FF 7F F8  +xP....#R.......
0590: FF FF 7F 73 31 30 34 45  03 80 F8 FF FF 7F F8 FF  ...s104E........
05A0: FF 7F 73 31 30 35 01 80  4A 7A 50 03 01 78 50 03  ..s105..JzP..xP.
05B0: 01 4A 79 50 03 01 78 50  03 01 1C 0B 80 66 14 80  .JyP..xP.....f..
05C0: 78 50 03 01 78 50 03 01  74 6C 6B 30 2B 78 50 03  xP..xP..tlk0+xP.
05D0: 01 1F 80 23 66 14 80 78  50 03 01 78 50 03 01 74  ...#f..xP..xP..t
05E0: 6C 6B 31 52 03 80 F8 FF  FF 7F F8 FF FF 7F 73 31  lk1R..........s1
05F0: 30 35 45 03 80 F8 FF FF  7F F8 FF FF 7F 73 31 30  05E..........s10
0600: 37 01 80 2B 78 50 03 01  20 80 23 2B 78 50 03 01  7..+xP.. .#+xP..
0610: 21 80 23 52 03 80 F8 FF  FF 7F F8 FF FF 7F 73 31  !.#R..........s1
0620: 30 37 45 03 80 F8 FF FF  7F F8 FF FF 7F 73 31 30  07E..........s10
0630: 38 01 80 79 00 78 50 03  01 7A 50 03 01 2B 78 50  8..y.xP..zP..+xP
0640: 03 01 22 80 23 4A 7A 50  03 01 F0 FF FF 7F 1C 0B  ..".#JzP........
0650: 80 6E 7A 50 03 01 0E 80  99 7A 50 03 01 2B 7A 50  .nzP.....zP..+zP
0660: 03 01 23 80 23 52 03 80  F8 FF FF 7F F8 FF FF 7F  ..#.#R..........
0670: 73 31 30 38 45 03 80 F8  FF FF 7F F8 FF FF 7F 73  s108E..........s
0680: 31 31 30 01 80 4A 78 50  03 01 7A 50 03 01 2B 78  110..JxP..zP..+x
0690: 50 03 01 24 80 23 52 03  80 F8 FF FF 7F F8 FF FF  P..$.#R.........
06A0: 7F 73 31 31 30 45 03 80  F8 FF FF 7F F8 FF FF 7F  .s110E..........
06B0: 73 31 31 31 01 80 4A 79  50 03 01 78 50 03 01 4A  s111..JyP..xP..J
06C0: 78 50 03 01 79 50 03 01  66 14 80 79 50 03 01 79  xP..yP..f..yP..y
06D0: 50 03 01 74 6C 6B 30 2B  79 50 03 01 25 80 23 66  P..tlk0+yP..%.#f
06E0: 14 80 79 50 03 01 79 50  03 01 74 6C 6B 31 52 03  ..yP..yP..tlk1R.
06F0: 80 F8 FF FF 7F F8 FF FF  7F 73 31 31 31 45 03 80  .........s111E..
0700: F8 FF FF 7F F8 FF FF 7F  73 31 31 32 01 80 6E 78  ........s112..nx
0710: 50 03 01 16 80 99 78 50  03 01 1C 13 80 4A 78 50  P.....xP.....JxP
0720: 03 01 F0 FF FF 7F 79 00  78 50 03 01 7A 50 03 01  ......y.xP..zP..
0730: 1C 0B 80 66 14 80 78 50  03 01 78 50 03 01 74 6C  ...f..xP..xP..tl
0740: 6B 30 2B 78 50 03 01 26  80 23 2B 78 50 03 01 27  k0+xP..&.#+xP..'
0750: 80 23 52 03 80 F8 FF FF  7F F8 FF FF 7F 73 31 31  .#R..........s11
0760: 32 45 03 80 F8 FF FF 7F  F8 FF FF 7F 73 31 31 35  2E..........s115
0770: 01 80 2B 78 50 03 01 28  80 23 66 14 80 78 50 03  ..+xP..(.#f..xP.
0780: 01 78 50 03 01 74 6C 6B  31 6E 79 50 03 01 16 80  .xP..tlk1nyP....
0790: 99 79 50 03 01 2B 79 50  03 01 29 80 23 52 03 80  .yP..+yP..).#R..
07A0: F8 FF FF 7F F8 FF FF 7F  73 31 31 35 45 03 80 F8  ........s115E...
07B0: FF FF 7F F8 FF FF 7F 73  31 31 36 01 80 6E 7A 50  .......s116..nzP
07C0: 03 01 16 80 99 7A 50 03  01 2B 7A 50 03 01 2A 80  .....zP..+zP..*.
07D0: 1C 13 80 52 03 80 F8 FF  FF 7F F8 FF FF 7F 73 31  ...R..........s1
07E0: 31 36 45 03 80 F8 FF FF  7F F8 FF FF 7F 73 31 31  16E..........s11
07F0: 37 01 80 6E 7A 50 03 01  04 80 99 7A 50 03 01 2B  7..nzP.....zP..+
0800: 7A 50 03 01 2B 80 1C 2C  80 5B 08 80 3D 50 03 01  zP..+..,.[..=P..
0810: 3D 50 03 01 74 6C 62 30  5B 2D 80 35 50 03 01 35  =P..tlb0[-.5P..5
0820: 50 03 01 75 72 61 30 5B  2D 80 36 50 03 01 36 50  P..ura0[-.6P..6P
0830: 03 01 6C 73 74 30 52 03  80 F8 FF FF 7F F8 FF FF  ..lst0R.........
0840: 7F 73 31 31 37 45 03 80  F8 FF FF 7F F8 FF FF 7F  .s117E..........
0850: 73 31 31 38 01 80 6E 78  50 03 01 04 80 99 78 50  s118..nxP.....xP
0860: 03 01 4A 7A 50 03 01 78  50 03 01 2B 78 50 03 01  ..JzP..xP..+xP..
0870: 2E 80 23 6E 79 50 03 01  0A 80 99 79 50 03 01 6E  ..#nyP.....yP..n
0880: 7A 50 03 01 2F 80 99 7A  50 03 01 1C 2C 80 52 03  zP../..zP...,.R.
0890: 80 F8 FF FF 7F F8 FF FF  7F 73 31 31 38 45 03 80  .........s118E..
08A0: F8 FF FF 7F F8 FF FF 7F  73 31 31 39 01 80 6E 78  ........s119..nx
08B0: 50 03 01 04 80 99 78 50  03 01 6E 79 50 03 01 0A  P.....xP..nyP...
08C0: 80 99 79 50 03 01 6E 7A  50 03 01 2F 80 99 7A 50  ..yP..nzP../..zP
08D0: 03 01 1C 2C 80 27 32 7A  50 03 01 03 1C 0B 80 27  ...,.'2zP......'
08E0: 32 79 50 03 01 03 4A 78  50 03 01 F0 FF FF 7F 1C  2yP...JxP.......
08F0: 30 80 27 32 78 50 03 01  03 1C 31 80 27 32 36 50  0.'2xP....1.'26P
0900: 03 01 05 1C 32 80 27 32  35 50 03 01 05 1C 32 80  ....2.'25P....2.
0910: 29 32 3D 50 03 01 06 4E  01 7A 50 03 01 4E 01 79  )2=P...N.zP..N.y
0920: 50 03 01 52 03 80 F8 FF  FF 7F F8 FF FF 7F 73 31  P..R..........s1
0930: 31 39 45 03 80 F8 FF FF  7F F8 FF FF 7F 73 31 32  19E..........s12
0940: 30 01 80 4A F0 FF FF 7F  78 50 03 01 2B 78 50 03  0..J....xP..+xP.
0950: 01 33 80 23 52 03 80 F8  FF FF 7F F8 FF FF 7F 73  .3.#R..........s
0960: 31 32 30 45 03 80 F8 FF  FF 7F F8 FF FF 7F 73 31  120E..........s1
0970: 32 31 01 80 29 32 78 50  03 01 04 4A 3D 50 03 01  21..)2xP...J=P..
0980: 78 50 03 01 1C 32 80 4A  36 50 03 01 78 50 03 01  xP...2.J6P..xP..
0990: 1C 32 80 4A 35 50 03 01  78 50 03 01 1C 0B 80 5B  .2.J5P..xP.....[
09A0: 08 80 3D 50 03 01 3D 50  03 01 74 6C 62 30 5B 08  ..=P..=P..tlb0[.
09B0: 80 35 50 03 01 35 50 03  01 74 6C 62 30 5B 08 80  .5P..5P..tlb0[..
09C0: 36 50 03 01 36 50 03 01  74 6C 62 30 66 14 80 78  6P..6P..tlb0f..x
09D0: 50 03 01 78 50 03 01 74  6C 6B 30 2B 78 50 03 01  P..xP..tlk0+xP..
09E0: 34 80 23 66 14 80 78 50  03 01 78 50 03 01 74 6C  4.#f..xP..xP..tl
09F0: 6B 31 52 03 80 F8 FF FF  7F F8 FF FF 7F 73 31 32  k1R..........s12
0A00: 31 45 03 80 F8 FF FF 7F  F8 FF FF 7F 73 31 32 32  1E..........s122
0A10: 01 80 2B 78 50 03 01 35  80 23 52 03 80 F8 FF FF  ..+xP..5.#R.....
0A20: 7F F8 FF FF 7F 73 31 32  32 45 00 80 F8 FF FF 7F  .....s122E......
0A30: F8 FF FF 7F 66 64 6F 31  01 80 55 00 80 F8 FF FF  ....fdo1..U.....
0A40: 7F F8 FF FF 7F 66 64 6F  31 1C 0B 80 45 36 80 F8  .....fdo1...E6..
0A50: FF FF 7F F8 FF FF 7F 71  73 74 63 01 80 46 00 45  .......qstc..F.E
0A60: 00 80 F8 FF FF 7F F8 FF  FF 7F 66 64 69 32 01 80  ..........fdi2..
0A70: 21 00                                             !.              
```

#### Opcodes

```
  0: 0x0001 [0x42] SET_CLI_EVENT_CANCEL_DATA()
  1: 0x0002 [0x45] LOAD_SCHEDULED_TASK: Load scheduler "fdo1" with entities [EventEntity, EventEntity], work=[200*, 0*]
  2: 0x0013 [0x55] WAIT_LOAD_SCHEDULER: Wait for scheduler "fdo1" with entities [EventEntity, EventEntity], work=200*
  3: 0x0022 [0x46] CAMERA_CONTROL: Disable user control
  4: 0x0024 [0x38] SET_CLIENT_EVENT_MODE(mode=19*)
  5: 0x0027 [0x80] LOAD_WAIT(entity=Galiwao (ID: 16994424/0x01035078))
  6: 0x002C [0x80] LOAD_WAIT(entity=Kobdyu (ID: 16994425/0x01035079))
  7: 0x0031 [0x80] LOAD_WAIT(entity=Deminza (ID: 16994426/0x0103507A))
  8: 0x0036 [0x80] LOAD_WAIT(entity=Tataroon (ID: 16994365/0x0103503D))
  9: 0x003B [0x80] LOAD_WAIT(entity=Kyokyoroon (ID: 16994358/0x01035036))
 10: 0x0040 [0x80] LOAD_WAIT(entity=Mumuroon (ID: 16994357/0x01035035))
 11: 0x0045 [0x4E] SET_ENTITY_HIDE_FLAG: Show LocalPlayer
 12: 0x004B [0x4E] SET_ENTITY_HIDE_FLAG: Show Galiwao (ID: 16994424/0x01035078)
 13: 0x0051 [0x4E] SET_ENTITY_HIDE_FLAG: Show Kobdyu (ID: 16994425/0x01035079)
 14: 0x0057 [0x4E] SET_ENTITY_HIDE_FLAG: Show Deminza (ID: 16994426/0x0103507A)
 15: 0x005D [0x4E] SET_ENTITY_HIDE_FLAG: Show Tataroon (ID: 16994365/0x0103503D)
 16: 0x0063 [0x4E] SET_ENTITY_HIDE_FLAG: Show Kyokyoroon (ID: 16994358/0x01035036)
 17: 0x0069 [0x4E] SET_ENTITY_HIDE_FLAG: Show Mumuroon (ID: 16994357/0x01035035)
 18: 0x006F [0x92] Galiwao (ID: 16994424/0x01035078)->Render.Flags3 ^= 0x01
 19: 0x0075 [0x92] Kobdyu (ID: 16994425/0x01035079)->Render.Flags3 ^= 0x01
 20: 0x007B [0x92] Deminza (ID: 16994426/0x0103507A)->Render.Flags3 ^= 0x01
 21: 0x0081 [0x92] Tataroon (ID: 16994365/0x0103503D)->Render.Flags3 ^= 0x01
 22: 0x0087 [0x92] Kyokyoroon (ID: 16994358/0x01035036)->Render.Flags3 ^= 0x01
 23: 0x008D [0x92] Mumuroon (ID: 16994357/0x01035035)->Render.Flags3 ^= 0x01
 24: 0x0093 [0x29] REQ_SET_WAIT(priority=0x0A, entity_id=LocalPlayer, tag_num=0x2A)
 25: 0x009A [0x29] REQ_SET_WAIT(priority=0x0A, entity_id=Galiwao (ID: 16994424/0x01035078), tag_num=0x02)
 26: 0x00A1 [0x29] REQ_SET_WAIT(priority=0x0A, entity_id=Deminza (ID: 16994426/0x0103507A), tag_num=0x02)
 27: 0x00A8 [0x29] REQ_SET_WAIT(priority=0x0A, entity_id=Kobdyu (ID: 16994425/0x01035079), tag_num=0x02)
 28: 0x00AF [0x29] REQ_SET_WAIT(priority=0x0A, entity_id=Kyokyoroon (ID: 16994358/0x01035036), tag_num=0x03)
 29: 0x00B6 [0x29] REQ_SET_WAIT(priority=0x0A, entity_id=Mumuroon (ID: 16994357/0x01035035), tag_num=0x03)
 30: 0x00BD [0x29] REQ_SET_WAIT(priority=0x0A, entity_id=Tataroon (ID: 16994365/0x0103503D), tag_num=0x04)
 31: 0x00C4 [0x4A] Kobdyu (ID: 16994425/0x01035079) looks at Mumuroon (ID: 16994357/0x01035035)
 32: 0x00CD [0x4A] Deminza (ID: 16994426/0x0103507A) looks at Tataroon (ID: 16994365/0x0103503D)
 33: 0x00D6 [0x4A] Galiwao (ID: 16994424/0x01035078) looks at Kyokyoroon (ID: 16994358/0x01035036)
 34: 0x00DF [0x4A] Mumuroon (ID: 16994357/0x01035035) looks at Kobdyu (ID: 16994425/0x01035079)
 35: 0x00E8 [0x4A] Tataroon (ID: 16994365/0x0103503D) looks at Deminza (ID: 16994426/0x0103507A)
 36: 0x00F1 [0x4A] Kyokyoroon (ID: 16994358/0x01035036) looks at Galiwao (ID: 16994424/0x01035078)
 37: 0x00FA [0x4A] LocalPlayer looks at Kobdyu (ID: 16994425/0x01035079)
 38: 0x0103 [0x45] LOAD_SCHEDULED_TASK: Load scheduler "fdi1" with entities [EventEntity, EventEntity], work=[200*, 0*]
 39: 0x0114 [0x45] LOAD_SCHEDULED_TASK: Load scheduler "s089" with entities [EventEntity, EventEntity], work=[293*, 0*]
 40: 0x0125 [0x6E] Deminza (ID: 16994426/0x0103507A) uses emote 12*
 41: 0x012C [0x99] Wait for Deminza (ID: 16994426/0x0103507A) animation to complete
 42: 0x0131 [0x2B] Deminza (ID: 16994426/0x0103507A) [11336*]:
    → "Boss! Where are you!"
 43: 0x0138 [0x1C] WAIT(240* ticks)
 44: 0x013B [0x52] END_LOAD_SCHEDULER: End scheduler "s089" with entities [EventEntity, EventEntity], work=293*
 45: 0x014A [0x45] LOAD_SCHEDULED_TASK: Load scheduler "s090" with entities [EventEntity, EventEntity], work=[293*, 0*]
 46: 0x015B [0x79] Deminza (ID: 16994426/0x0103507A) looks at Tataroon (ID: 16994365/0x0103503D) (Basic look)
 47: 0x0165 [0x2B] Deminza (ID: 16994426/0x0103507A) [11338*]:
    → "Hey! Get away from me!"
 48: 0x016C [0x23] WAIT_FOR_DIALOG_INTERACTION
 49: 0x016D [0x52] END_LOAD_SCHEDULER: End scheduler "s090" with entities [EventEntity, EventEntity], work=293*
 50: 0x017C [0x45] LOAD_SCHEDULED_TASK: Load scheduler "s091" with entities [EventEntity, EventEntity], work=[293*, 0*]
 51: 0x018D [0x5B] LOAD_EXT_SCHEDULER: Load scheduler "tlb0" with entities [Tataroon (ID: 16994365/0x0103503D), Tataroon (ID: 16994365/0x0103503D)], work=843*
 52: 0x019C [0x2B] Tataroon (ID: 16994365/0x0103503D) [11339*]:
    → "Galka-man sooo hyoooge! Hyoooge and booolgy!"
 53: 0x01A3 [0x23] WAIT_FOR_DIALOG_INTERACTION
 54: 0x01A4 [0x5B] LOAD_EXT_SCHEDULER: Load scheduler "tlb1" with entities [Tataroon (ID: 16994365/0x0103503D), Tataroon (ID: 16994365/0x0103503D)], work=843*
 55: 0x01B3 [0x52] END_LOAD_SCHEDULER: End scheduler "s091" with entities [EventEntity, EventEntity], work=293*
 56: 0x01C2 [0x45] LOAD_SCHEDULED_TASK: Load scheduler "s092" with entities [EventEntity, EventEntity], work=[293*, 0*]
 57: 0x01D3 [0x5B] LOAD_EXT_SCHEDULER: Load scheduler "tlb0" with entities [Tataroon (ID: 16994365/0x0103503D), Tataroon (ID: 16994365/0x0103503D)], work=843*
 58: 0x01E2 [0x5B] LOAD_EXT_SCHEDULER: Load scheduler "tlb0" with entities [Mumuroon (ID: 16994357/0x01035035), Mumuroon (ID: 16994357/0x01035035)], work=843*
 59: 0x01F1 [0x5B] LOAD_EXT_SCHEDULER: Load scheduler "tlb0" with entities [Kyokyoroon (ID: 16994358/0x01035036), Kyokyoroon (ID: 16994358/0x01035036)], work=843*
 60: 0x0200 [0x6E] Galiwao (ID: 16994424/0x01035078) uses emote 29*
 61: 0x0207 [0x99] Wait for Galiwao (ID: 16994424/0x01035078) animation to complete
 62: 0x020C [0x1C] WAIT(30* ticks)
 63: 0x020F [0x6E] Deminza (ID: 16994426/0x0103507A) uses emote 29*
 64: 0x0216 [0x99] Wait for Deminza (ID: 16994426/0x0103507A) animation to complete
 65: 0x021B [0x1C] WAIT(30* ticks)
 66: 0x021E [0x6E] Kobdyu (ID: 16994425/0x01035079) uses emote 29*
 67: 0x0225 [0x99] Wait for Kobdyu (ID: 16994425/0x01035079) animation to complete
 68: 0x022A [0x1C] WAIT(200* ticks)
 69: 0x022D [0x52] END_LOAD_SCHEDULER: End scheduler "s092" with entities [EventEntity, EventEntity], work=293*
 70: 0x023C [0x45] LOAD_SCHEDULED_TASK: Load scheduler "s093" with entities [EventEntity, EventEntity], work=[293*, 0*]
 71: 0x024D [0x4A] Kobdyu (ID: 16994425/0x01035079) looks at LocalPlayer
 72: 0x0256 [0x1C] WAIT(30* ticks)
 73: 0x0259 [0x6E] Kobdyu (ID: 16994425/0x01035079) uses emote 8*
 74: 0x0260 [0x99] Wait for Kobdyu (ID: 16994425/0x01035079) animation to complete
 75: 0x0265 [0x2B] Kobdyu (ID: 16994425/0x01035079) [11340*]:
    → "Adventurer!"
 76: 0x026C [0x23] WAIT_FOR_DIALOG_INTERACTION
 77: 0x026D [0x27] REQ_SET(priority=0x32, entity_id=Tataroon (ID: 16994365/0x0103503D), tag_num=0x05)
 78: 0x0274 [0x27] REQ_SET(priority=0x32, entity_id=Mumuroon (ID: 16994357/0x01035035), tag_num=0x04)
 79: 0x027B [0x27] REQ_SET(priority=0x32, entity_id=Kyokyoroon (ID: 16994358/0x01035036), tag_num=0x04)
 80: 0x0282 [0x5B] LOAD_EXT_SCHEDULER: Load scheduler "tlb1" with entities [Tataroon (ID: 16994365/0x0103503D), Tataroon (ID: 16994365/0x0103503D)], work=843*
 81: 0x0291 [0x5B] LOAD_EXT_SCHEDULER: Load scheduler "tlb1" with entities [Mumuroon (ID: 16994357/0x01035035), Mumuroon (ID: 16994357/0x01035035)], work=843*
 82: 0x02A0 [0x5B] LOAD_EXT_SCHEDULER: Load scheduler "tlb1" with entities [Kyokyoroon (ID: 16994358/0x01035036), Kyokyoroon (ID: 16994358/0x01035036)], work=843*
 83: 0x02AF [0x27] REQ_SET(priority=0x32, entity_id=LocalPlayer, tag_num=0x2B)
 84: 0x02B6 [0x52] END_LOAD_SCHEDULER: End scheduler "s093" with entities [EventEntity, EventEntity], work=293*
 85: 0x02C5 [0x45] LOAD_SCHEDULED_TASK: Load scheduler "s094" with entities [EventEntity, EventEntity], work=[293*, 0*]
 86: 0x02D6 [0x4A] Deminza (ID: 16994426/0x0103507A) looks at LocalPlayer
 87: 0x02DF [0x4A] Kobdyu (ID: 16994425/0x01035079) looks at LocalPlayer
 88: 0x02E8 [0x4A] Galiwao (ID: 16994424/0x01035078) looks at LocalPlayer
 89: 0x02F1 [0x1C] WAIT(240* ticks)
 90: 0x02F4 [0x52] END_LOAD_SCHEDULER: End scheduler "s094" with entities [EventEntity, EventEntity], work=293*
 91: 0x0303 [0x45] LOAD_SCHEDULED_TASK: Load scheduler "s095" with entities [EventEntity, EventEntity], work=[293*, 0*]
 92: 0x0314 [0x6E] Galiwao (ID: 16994424/0x01035078) uses emote 32*
 93: 0x031B [0x99] Wait for Galiwao (ID: 16994424/0x01035078) animation to complete
 94: 0x0320 [0x2B] Galiwao (ID: 16994424/0x01035078) [11341*]:
    → "Phew... These Qiqirn are creepy."
 95: 0x0327 [0x23] WAIT_FOR_DIALOG_INTERACTION
 96: 0x0328 [0x52] END_LOAD_SCHEDULER: End scheduler "s095" with entities [EventEntity, EventEntity], work=293*
 97: 0x0337 [0x45] LOAD_SCHEDULED_TASK: Load scheduler "s099" with entities [EventEntity, EventEntity], work=[293*, 0*]
 98: 0x0348 [0x03] Work_Zone[2] = 853*
 99: 0x034D [0x48] [System] [11367*]:
    → "<Player> hands Galiwao the $3."
100: 0x0350 [0x23] WAIT_FOR_DIALOG_INTERACTION
101: 0x0351 [0x2B] Galiwao (ID: 16994424/0x01035078) [11342*]:
    → "A letter? For me?"
102: 0x0358 [0x23] WAIT_FOR_DIALOG_INTERACTION
103: 0x0359 [0x4A] Tataroon (ID: 16994365/0x0103503D) looks at Deminza (ID: 16994426/0x0103507A)
104: 0x0362 [0x4A] Mumuroon (ID: 16994357/0x01035035) looks at Kobdyu (ID: 16994425/0x01035079)
105: 0x036B [0x4A] Kyokyoroon (ID: 16994358/0x01035036) looks at Galiwao (ID: 16994424/0x01035078)
106: 0x0374 [0x52] END_LOAD_SCHEDULER: End scheduler "s099" with entities [EventEntity, EventEntity], work=293*
107: 0x0383 [0x45] LOAD_SCHEDULED_TASK: Load scheduler "fdo1" with entities [EventEntity, EventEntity], work=[200*, 0*]
108: 0x0394 [0x55] WAIT_LOAD_SCHEDULER: Wait for scheduler "fdo1" with entities [EventEntity, EventEntity], work=200*
109: 0x03A3 [0x4A] LocalPlayer looks at Deminza (ID: 16994426/0x0103507A)
110: 0x03AC [0x1C] WAIT(120* ticks)
111: 0x03AF [0x45] LOAD_SCHEDULED_TASK: Load scheduler "fdi1" with entities [EventEntity, EventEntity], work=[200*, 0*]
112: 0x03C0 [0x45] LOAD_SCHEDULED_TASK: Load scheduler "s096" with entities [EventEntity, EventEntity], work=[293*, 0*]
113: 0x03D1 [0x66] LOAD_EXT_SCHEDULER_MAIN: Load scheduler "tlk0" with entities [Deminza (ID: 16994426/0x0103507A), Deminza (ID: 16994426/0x0103507A)], work=69*
114: 0x03E0 [0x2B] Deminza (ID: 16994426/0x0103507A) [11343*]:
    → "This...this is a note from..."
115: 0x03E7 [0x23] WAIT_FOR_DIALOG_INTERACTION
116: 0x03E8 [0x66] LOAD_EXT_SCHEDULER_MAIN: Load scheduler "tlk1" with entities [Deminza (ID: 16994426/0x0103507A), Deminza (ID: 16994426/0x0103507A)], work=69*
117: 0x03F7 [0x52] END_LOAD_SCHEDULER: End scheduler "s096" with entities [EventEntity, EventEntity], work=293*
118: 0x0406 [0x45] LOAD_SCHEDULED_TASK: Load scheduler "s097" with entities [EventEntity, EventEntity], work=[293*, 0*]
119: 0x0417 [0x6E] LocalPlayer uses emote 7*
120: 0x041E [0x99] Wait for LocalPlayer animation to complete
121: 0x0423 [0x1C] WAIT(120* ticks)
122: 0x0426 [0x52] END_LOAD_SCHEDULER: End scheduler "s097" with entities [EventEntity, EventEntity], work=293*
123: 0x0435 [0x45] LOAD_SCHEDULED_TASK: Load scheduler "s100" with entities [EventEntity, EventEntity], work=[293*, 0*]
124: 0x0446 [0x6E] Galiwao (ID: 16994424/0x01035078) uses emote 7*
125: 0x044D [0x99] Wait for Galiwao (ID: 16994424/0x01035078) animation to complete
126: 0x0452 [0x2B] Galiwao (ID: 16994424/0x01035078) [11344*]:
    → "I knew it... That girl is with him..."
127: 0x0459 [0x23] WAIT_FOR_DIALOG_INTERACTION
128: 0x045A [0x52] END_LOAD_SCHEDULER: End scheduler "s100" with entities [EventEntity, EventEntity], work=293*
129: 0x0469 [0x45] LOAD_SCHEDULED_TASK: Load scheduler "s098" with entities [EventEntity, EventEntity], work=[293*, 0*]
130: 0x047A [0x2B] Galiwao (ID: 16994424/0x01035078) [11345*]:
    → "Off on an adventure...!?"
131: 0x0481 [0x23] WAIT_FOR_DIALOG_INTERACTION
132: 0x0482 [0x52] END_LOAD_SCHEDULER: End scheduler "s098" with entities [EventEntity, EventEntity], work=293*
133: 0x0491 [0x45] LOAD_SCHEDULED_TASK: Load scheduler "s101" with entities [EventEntity, EventEntity], work=[293*, 0*]
134: 0x04A2 [0x4A] Kobdyu (ID: 16994425/0x01035079) looks at Galiwao (ID: 16994424/0x01035078)
135: 0x04AB [0x4A] Galiwao (ID: 16994424/0x01035078) looks at Kobdyu (ID: 16994425/0x01035079)
136: 0x04B4 [0x1C] WAIT(40* ticks)
137: 0x04B7 [0x66] LOAD_EXT_SCHEDULER_MAIN: Load scheduler "tlk0" with entities [Kobdyu (ID: 16994425/0x01035079), Kobdyu (ID: 16994425/0x01035079)], work=69*
138: 0x04C6 [0x2B] Kobdyu (ID: 16994425/0x01035079) [11346*]:
    → "I suppose he has been eating well lately, and his health has been remarkably stable..."
139: 0x04CD [0x23] WAIT_FOR_DIALOG_INTERACTION
140: 0x04CE [0x66] LOAD_EXT_SCHEDULER_MAIN: Load scheduler "tlk1" with entities [Kobdyu (ID: 16994425/0x01035079), Kobdyu (ID: 16994425/0x01035079)], work=69*
141: 0x04DD [0x52] END_LOAD_SCHEDULER: End scheduler "s101" with entities [EventEntity, EventEntity], work=293*
142: 0x04EC [0x45] LOAD_SCHEDULED_TASK: Load scheduler "s102" with entities [EventEntity, EventEntity], work=[293*, 0*]
143: 0x04FD [0x4A] Deminza (ID: 16994426/0x0103507A) looks at Kobdyu (ID: 16994425/0x01035079)
144: 0x0506 [0x1C] WAIT(30* ticks)
145: 0x0509 [0x2B] Deminza (ID: 16994426/0x0103507A) [11347*]:
    → "But we can't let the boss go wandering around the wilds at his age!"
146: 0x0510 [0x23] WAIT_FOR_DIALOG_INTERACTION
147: 0x0511 [0x52] END_LOAD_SCHEDULER: End scheduler "s102" with entities [EventEntity, EventEntity], work=293*
148: 0x0520 [0x45] LOAD_SCHEDULED_TASK: Load scheduler "s103" with entities [EventEntity, EventEntity], work=[293*, 0*]
149: 0x0531 [0x4A] Deminza (ID: 16994426/0x0103507A) looks at Galiwao (ID: 16994424/0x01035078)
150: 0x053A [0x1C] WAIT(30* ticks)
151: 0x053D [0x2B] Deminza (ID: 16994426/0x0103507A) [11348*]:
    → "I'm gonna go bring him back...!"
152: 0x0544 [0x23] WAIT_FOR_DIALOG_INTERACTION
153: 0x0545 [0x52] END_LOAD_SCHEDULER: End scheduler "s103" with entities [EventEntity, EventEntity], work=293*
154: 0x0554 [0x45] LOAD_SCHEDULED_TASK: Load scheduler "s104" with entities [EventEntity, EventEntity], work=[293*, 0*]
155: 0x0565 [0x4A] Galiwao (ID: 16994424/0x01035078) looks at LocalPlayer
156: 0x056E [0x1C] WAIT(30* ticks)
157: 0x0571 [0x6E] Galiwao (ID: 16994424/0x01035078) uses emote 32*
158: 0x0578 [0x99] Wait for Galiwao (ID: 16994424/0x01035078) animation to complete
159: 0x057D [0x1C] WAIT(220* ticks)
160: 0x0580 [0x2B] Galiwao (ID: 16994424/0x01035078) [11349*]:
    → "Wait..."
161: 0x0587 [0x23] WAIT_FOR_DIALOG_INTERACTION
162: 0x0588 [0x52] END_LOAD_SCHEDULER: End scheduler "s104" with entities [EventEntity, EventEntity], work=293*
163: 0x0597 [0x45] LOAD_SCHEDULED_TASK: Load scheduler "s105" with entities [EventEntity, EventEntity], work=[293*, 0*]
164: 0x05A8 [0x4A] Deminza (ID: 16994426/0x0103507A) looks at Galiwao (ID: 16994424/0x01035078)
165: 0x05B1 [0x4A] Kobdyu (ID: 16994425/0x01035079) looks at Galiwao (ID: 16994424/0x01035078)
166: 0x05BA [0x1C] WAIT(30* ticks)
167: 0x05BD [0x66] LOAD_EXT_SCHEDULER_MAIN: Load scheduler "tlk0" with entities [Galiwao (ID: 16994424/0x01035078), Galiwao (ID: 16994424/0x01035078)], work=69*
168: 0x05CC [0x2B] Galiwao (ID: 16994424/0x01035078) [11350*]:
    → "Do you remember when we were adventurers, free to roam the world as we pleased?"
169: 0x05D3 [0x23] WAIT_FOR_DIALOG_INTERACTION
170: 0x05D4 [0x66] LOAD_EXT_SCHEDULER_MAIN: Load scheduler "tlk1" with entities [Galiwao (ID: 16994424/0x01035078), Galiwao (ID: 16994424/0x01035078)], work=69*
171: 0x05E3 [0x52] END_LOAD_SCHEDULER: End scheduler "s105" with entities [EventEntity, EventEntity], work=293*
172: 0x05F2 [0x45] LOAD_SCHEDULED_TASK: Load scheduler "s107" with entities [EventEntity, EventEntity], work=[293*, 0*]
173: 0x0603 [0x2B] Galiwao (ID: 16994424/0x01035078) [11351*]:
    → "Sure, there were times when we went hungry, and times when we got hurt."
174: 0x060A [0x23] WAIT_FOR_DIALOG_INTERACTION
175: 0x060B [0x2B] Galiwao (ID: 16994424/0x01035078) [11352*]:
    → "But I wouldn't trade those memories for anything."
176: 0x0612 [0x23] WAIT_FOR_DIALOG_INTERACTION
177: 0x0613 [0x52] END_LOAD_SCHEDULER: End scheduler "s107" with entities [EventEntity, EventEntity], work=293*
178: 0x0622 [0x45] LOAD_SCHEDULED_TASK: Load scheduler "s108" with entities [EventEntity, EventEntity], work=[293*, 0*]
179: 0x0633 [0x79] Galiwao (ID: 16994424/0x01035078) looks at Deminza (ID: 16994426/0x0103507A) (Basic look)
180: 0x063D [0x2B] Galiwao (ID: 16994424/0x01035078) [11353*]:
    → "If this is what our master wants, then we should stand behind his decision."
181: 0x0644 [0x23] WAIT_FOR_DIALOG_INTERACTION
182: 0x0645 [0x4A] Deminza (ID: 16994426/0x0103507A) looks at LocalPlayer
183: 0x064E [0x1C] WAIT(30* ticks)
184: 0x0651 [0x6E] Deminza (ID: 16994426/0x0103507A) uses emote 32*
185: 0x0658 [0x99] Wait for Deminza (ID: 16994426/0x0103507A) animation to complete
186: 0x065D [0x2B] Deminza (ID: 16994426/0x0103507A) [11354*]:
    → "But..."
187: 0x0664 [0x23] WAIT_FOR_DIALOG_INTERACTION
188: 0x0665 [0x52] END_LOAD_SCHEDULER: End scheduler "s108" with entities [EventEntity, EventEntity], work=293*
189: 0x0674 [0x45] LOAD_SCHEDULED_TASK: Load scheduler "s110" with entities [EventEntity, EventEntity], work=[293*, 0*]
190: 0x0685 [0x4A] Galiwao (ID: 16994424/0x01035078) looks at Deminza (ID: 16994426/0x0103507A)
191: 0x068E [0x2B] Galiwao (ID: 16994424/0x01035078) [11355*]:
    → "He'll be just fine if Faihal is with him. We all know how strong she is."
192: 0x0695 [0x23] WAIT_FOR_DIALOG_INTERACTION
193: 0x0696 [0x52] END_LOAD_SCHEDULER: End scheduler "s110" with entities [EventEntity, EventEntity], work=293*
194: 0x06A5 [0x45] LOAD_SCHEDULED_TASK: Load scheduler "s111" with entities [EventEntity, EventEntity], work=[293*, 0*]
195: 0x06B6 [0x4A] Kobdyu (ID: 16994425/0x01035079) looks at Galiwao (ID: 16994424/0x01035078)
196: 0x06BF [0x4A] Galiwao (ID: 16994424/0x01035078) looks at Kobdyu (ID: 16994425/0x01035079)
197: 0x06C8 [0x66] LOAD_EXT_SCHEDULER_MAIN: Load scheduler "tlk0" with entities [Kobdyu (ID: 16994425/0x01035079), Kobdyu (ID: 16994425/0x01035079)], work=69*
198: 0x06D7 [0x2B] Kobdyu (ID: 16994425/0x01035079) [11356*]:
    → "Yes, almost unnaturally so..."
199: 0x06DE [0x23] WAIT_FOR_DIALOG_INTERACTION
200: 0x06DF [0x66] LOAD_EXT_SCHEDULER_MAIN: Load scheduler "tlk1" with entities [Kobdyu (ID: 16994425/0x01035079), Kobdyu (ID: 16994425/0x01035079)], work=69*
201: 0x06EE [0x52] END_LOAD_SCHEDULER: End scheduler "s111" with entities [EventEntity, EventEntity], work=293*
202: 0x06FD [0x45] LOAD_SCHEDULED_TASK: Load scheduler "s112" with entities [EventEntity, EventEntity], work=[293*, 0*]
203: 0x070E [0x6E] Galiwao (ID: 16994424/0x01035078) uses emote 7*
204: 0x0715 [0x99] Wait for Galiwao (ID: 16994424/0x01035078) animation to complete
205: 0x071A [0x1C] WAIT(120* ticks)
206: 0x071D [0x4A] Galiwao (ID: 16994424/0x01035078) looks at LocalPlayer
207: 0x0726 [0x79] Galiwao (ID: 16994424/0x01035078) looks at Deminza (ID: 16994426/0x0103507A) (Basic look)
208: 0x0730 [0x1C] WAIT(30* ticks)
209: 0x0733 [0x66] LOAD_EXT_SCHEDULER_MAIN: Load scheduler "tlk0" with entities [Galiwao (ID: 16994424/0x01035078), Galiwao (ID: 16994424/0x01035078)], work=69*
210: 0x0742 [0x2B] Galiwao (ID: 16994424/0x01035078) [11357*]:
    → "It's time we returned to the mansion."
211: 0x0749 [0x23] WAIT_FOR_DIALOG_INTERACTION
212: 0x074A [0x2B] Galiwao (ID: 16994424/0x01035078) [11358*]:
    → "We have a duty to protect our master's estate."
213: 0x0751 [0x23] WAIT_FOR_DIALOG_INTERACTION
214: 0x0752 [0x52] END_LOAD_SCHEDULER: End scheduler "s112" with entities [EventEntity, EventEntity], work=293*
215: 0x0761 [0x45] LOAD_SCHEDULED_TASK: Load scheduler "s115" with entities [EventEntity, EventEntity], work=[293*, 0*]
216: 0x0772 [0x2B] Galiwao (ID: 16994424/0x01035078) [11359*]:
    → "That way, he'll always have a home to come back to."
217: 0x0779 [0x23] WAIT_FOR_DIALOG_INTERACTION
218: 0x077A [0x66] LOAD_EXT_SCHEDULER_MAIN: Load scheduler "tlk1" with entities [Galiwao (ID: 16994424/0x01035078), Galiwao (ID: 16994424/0x01035078)], work=69*
219: 0x0789 [0x6E] Kobdyu (ID: 16994425/0x01035079) uses emote 7*
220: 0x0790 [0x99] Wait for Kobdyu (ID: 16994425/0x01035079) animation to complete
221: 0x0795 [0x2B] Kobdyu (ID: 16994425/0x01035079) [11360*]:
    → "You're right!"
222: 0x079C [0x23] WAIT_FOR_DIALOG_INTERACTION
223: 0x079D [0x52] END_LOAD_SCHEDULER: End scheduler "s115" with entities [EventEntity, EventEntity], work=293*
224: 0x07AC [0x45] LOAD_SCHEDULED_TASK: Load scheduler "s116" with entities [EventEntity, EventEntity], work=[293*, 0*]
225: 0x07BD [0x6E] Deminza (ID: 16994426/0x0103507A) uses emote 7*
226: 0x07C4 [0x99] Wait for Deminza (ID: 16994426/0x0103507A) animation to complete
227: 0x07C9 [0x2B] Deminza (ID: 16994426/0x0103507A) [11361*]:
    → "I..."
228: 0x07D0 [0x1C] WAIT(120* ticks)
229: 0x07D3 [0x52] END_LOAD_SCHEDULER: End scheduler "s116" with entities [EventEntity, EventEntity], work=293*
230: 0x07E2 [0x45] LOAD_SCHEDULED_TASK: Load scheduler "s117" with entities [EventEntity, EventEntity], work=[293*, 0*]
231: 0x07F3 [0x6E] Deminza (ID: 16994426/0x0103507A) uses emote 12*
232: 0x07FA [0x99] Wait for Deminza (ID: 16994426/0x0103507A) animation to complete
233: 0x07FF [0x2B] Deminza (ID: 16994426/0x0103507A) [11362*]:
    → "I know he'll be back someday!"
234: 0x0806 [0x1C] WAIT(180* ticks)
235: 0x0809 [0x5B] LOAD_EXT_SCHEDULER: Load scheduler "tlb0" with entities [Tataroon (ID: 16994365/0x0103503D), Tataroon (ID: 16994365/0x0103503D)], work=843*
236: 0x0818 [0x5B] LOAD_EXT_SCHEDULER: Load scheduler "ura0" with entities [Mumuroon (ID: 16994357/0x01035035), Mumuroon (ID: 16994357/0x01035035)], work=881*
237: 0x0827 [0x5B] LOAD_EXT_SCHEDULER: Load scheduler "lst0" with entities [Kyokyoroon (ID: 16994358/0x01035036), Kyokyoroon (ID: 16994358/0x01035036)], work=881*
238: 0x0836 [0x52] END_LOAD_SCHEDULER: End scheduler "s117" with entities [EventEntity, EventEntity], work=293*
239: 0x0845 [0x45] LOAD_SCHEDULED_TASK: Load scheduler "s118" with entities [EventEntity, EventEntity], work=[293*, 0*]
240: 0x0856 [0x6E] Galiwao (ID: 16994424/0x01035078) uses emote 12*
241: 0x085D [0x99] Wait for Galiwao (ID: 16994424/0x01035078) animation to complete
242: 0x0862 [0x4A] Deminza (ID: 16994426/0x0103507A) looks at Galiwao (ID: 16994424/0x01035078)
243: 0x086B [0x2B] Galiwao (ID: 16994424/0x01035078) [11363*]:
    → "Let us return to Al Zahbi. We have a mansion to guard!"
244: 0x0872 [0x23] WAIT_FOR_DIALOG_INTERACTION
245: 0x0873 [0x6E] Kobdyu (ID: 16994425/0x01035079) uses emote 29*
246: 0x087A [0x99] Wait for Kobdyu (ID: 16994425/0x01035079) animation to complete
247: 0x087F [0x6E] Deminza (ID: 16994426/0x0103507A) uses emote 25*
248: 0x0886 [0x99] Wait for Deminza (ID: 16994426/0x0103507A) animation to complete
249: 0x088B [0x1C] WAIT(180* ticks)
250: 0x088E [0x52] END_LOAD_SCHEDULER: End scheduler "s118" with entities [EventEntity, EventEntity], work=293*
251: 0x089D [0x45] LOAD_SCHEDULED_TASK: Load scheduler "s119" with entities [EventEntity, EventEntity], work=[293*, 0*]
252: 0x08AE [0x6E] Galiwao (ID: 16994424/0x01035078) uses emote 12*
253: 0x08B5 [0x99] Wait for Galiwao (ID: 16994424/0x01035078) animation to complete
254: 0x08BA [0x6E] Kobdyu (ID: 16994425/0x01035079) uses emote 29*
255: 0x08C1 [0x99] Wait for Kobdyu (ID: 16994425/0x01035079) animation to complete
256: 0x08C6 [0x6E] Deminza (ID: 16994426/0x0103507A) uses emote 25*
257: 0x08CD [0x99] Wait for Deminza (ID: 16994426/0x0103507A) animation to complete
258: 0x08D2 [0x1C] WAIT(180* ticks)
259: 0x08D5 [0x27] REQ_SET(priority=0x32, entity_id=Deminza (ID: 16994426/0x0103507A), tag_num=0x03)
260: 0x08DC [0x1C] WAIT(30* ticks)
261: 0x08DF [0x27] REQ_SET(priority=0x32, entity_id=Kobdyu (ID: 16994425/0x01035079), tag_num=0x03)
262: 0x08E6 [0x4A] Galiwao (ID: 16994424/0x01035078) looks at LocalPlayer
263: 0x08EF [0x1C] WAIT(50* ticks)
264: 0x08F2 [0x27] REQ_SET(priority=0x32, entity_id=Galiwao (ID: 16994424/0x01035078), tag_num=0x03)
265: 0x08F9 [0x1C] WAIT(60* ticks)
266: 0x08FC [0x27] REQ_SET(priority=0x32, entity_id=Kyokyoroon (ID: 16994358/0x01035036), tag_num=0x05)
267: 0x0903 [0x1C] WAIT(10* ticks)
268: 0x0906 [0x27] REQ_SET(priority=0x32, entity_id=Mumuroon (ID: 16994357/0x01035035), tag_num=0x05)
269: 0x090D [0x1C] WAIT(10* ticks)
270: 0x0910 [0x29] REQ_SET_WAIT(priority=0x32, entity_id=Tataroon (ID: 16994365/0x0103503D), tag_num=0x06)
271: 0x0917 [0x4E] SET_ENTITY_HIDE_FLAG: Hide Deminza (ID: 16994426/0x0103507A)
272: 0x091D [0x4E] SET_ENTITY_HIDE_FLAG: Hide Kobdyu (ID: 16994425/0x01035079)
273: 0x0923 [0x52] END_LOAD_SCHEDULER: End scheduler "s119" with entities [EventEntity, EventEntity], work=293*
274: 0x0932 [0x45] LOAD_SCHEDULED_TASK: Load scheduler "s120" with entities [EventEntity, EventEntity], work=[293*, 0*]
275: 0x0943 [0x4A] LocalPlayer looks at Galiwao (ID: 16994424/0x01035078)
276: 0x094C [0x2B] Galiwao (ID: 16994424/0x01035078) [11364*]:
    → "Oh, I almost forgot."
277: 0x0953 [0x23] WAIT_FOR_DIALOG_INTERACTION
278: 0x0954 [0x52] END_LOAD_SCHEDULER: End scheduler "s120" with entities [EventEntity, EventEntity], work=293*
279: 0x0963 [0x45] LOAD_SCHEDULED_TASK: Load scheduler "s121" with entities [EventEntity, EventEntity], work=[293*, 0*]
280: 0x0974 [0x29] REQ_SET_WAIT(priority=0x32, entity_id=Galiwao (ID: 16994424/0x01035078), tag_num=0x04)
281: 0x097B [0x4A] Tataroon (ID: 16994365/0x0103503D) looks at Galiwao (ID: 16994424/0x01035078)
282: 0x0984 [0x1C] WAIT(10* ticks)
283: 0x0987 [0x4A] Kyokyoroon (ID: 16994358/0x01035036) looks at Galiwao (ID: 16994424/0x01035078)
284: 0x0990 [0x1C] WAIT(10* ticks)
285: 0x0993 [0x4A] Mumuroon (ID: 16994357/0x01035035) looks at Galiwao (ID: 16994424/0x01035078)
286: 0x099C [0x1C] WAIT(30* ticks)
287: 0x099F [0x5B] LOAD_EXT_SCHEDULER: Load scheduler "tlb0" with entities [Tataroon (ID: 16994365/0x0103503D), Tataroon (ID: 16994365/0x0103503D)], work=843*
288: 0x09AE [0x5B] LOAD_EXT_SCHEDULER: Load scheduler "tlb0" with entities [Mumuroon (ID: 16994357/0x01035035), Mumuroon (ID: 16994357/0x01035035)], work=843*
289: 0x09BD [0x5B] LOAD_EXT_SCHEDULER: Load scheduler "tlb0" with entities [Kyokyoroon (ID: 16994358/0x01035036), Kyokyoroon (ID: 16994358/0x01035036)], work=843*
290: 0x09CC [0x66] LOAD_EXT_SCHEDULER_MAIN: Load scheduler "tlk0" with entities [Galiwao (ID: 16994424/0x01035078), Galiwao (ID: 16994424/0x01035078)], work=69*
291: 0x09DB [0x2B] Galiwao (ID: 16994424/0x01035078) [11365*]:
    → "There was something else here besides the letter."
292: 0x09E2 [0x23] WAIT_FOR_DIALOG_INTERACTION
293: 0x09E3 [0x66] LOAD_EXT_SCHEDULER_MAIN: Load scheduler "tlk1" with entities [Galiwao (ID: 16994424/0x01035078), Galiwao (ID: 16994424/0x01035078)], work=69*
294: 0x09F2 [0x52] END_LOAD_SCHEDULER: End scheduler "s121" with entities [EventEntity, EventEntity], work=293*
295: 0x0A01 [0x45] LOAD_SCHEDULED_TASK: Load scheduler "s122" with entities [EventEntity, EventEntity], work=[293*, 0*]
296: 0x0A12 [0x2B] Galiwao (ID: 16994424/0x01035078) [11366*]:
    → "Thank you for helping our master realize his dreams."
297: 0x0A19 [0x23] WAIT_FOR_DIALOG_INTERACTION
298: 0x0A1A [0x52] END_LOAD_SCHEDULER: End scheduler "s122" with entities [EventEntity, EventEntity], work=293*
299: 0x0A29 [0x45] LOAD_SCHEDULED_TASK: Load scheduler "fdo1" with entities [EventEntity, EventEntity], work=[200*, 0*]
300: 0x0A3A [0x55] WAIT_LOAD_SCHEDULER: Wait for scheduler "fdo1" with entities [EventEntity, EventEntity], work=200*
301: 0x0A49 [0x1C] WAIT(30* ticks)
302: 0x0A4C [0x45] LOAD_SCHEDULED_TASK: Load scheduler "qstc" with entities [EventEntity, EventEntity], work=[201*, 0*]
303: 0x0A5D [0x46] CAMERA_CONTROL: Restore default settings
304: 0x0A5F [0x45] LOAD_SCHEDULED_TASK: Load scheduler "fdi2" with entities [EventEntity, EventEntity], work=[200*, 0*]
305: 0x0A70 [0x21] END_EVENT
306: 0x0A71 [0x00] END_REQSTACK()
```
