# 16994402

## Common Data

| Field            | Value            |
|------------------|------------------|
| Zone             | Nashmau (ID: 53) |
| Block Size       | 18560 bytes      |
| Total Events     | 11               |
| References Count | 187              |

## List of Events

| Event ID              | Entrypoint   |   Size |   Instructions |
|-----------------------|--------------|--------|----------------|
| [65535](#event-65535) | 0x0000       |      1 |              1 |
| [318](#event-318)     | 0x0001       |   4722 |            509 |
| [321](#event-321)     | 0x1273       |   2339 |            268 |
| [324](#event-324)     | 0x1B96       |   1389 |            149 |
| [319](#event-319)     | 0x2103       |    465 |             67 |
| [322](#event-322)     | 0x22D4       |    260 |             40 |
| [326](#event-326)     | 0x23D8       |    486 |             73 |
| [327](#event-327)     | 0x25BE       |   4674 |            508 |
| [320](#event-320)     | 0x3800       |    889 |            101 |
| [323](#event-323)     | 0x3B79       |    446 |             60 |
| [342](#event-342)     | 0x3D37       |   2079 |            247 |

## DAT References (imed_data)

|   Index | Hex Value   |   Dec Value |
|---------|-------------|-------------|
|       0 | 0x0013      |          19 |
|       1 | 0x0001      |           1 |
|       2 | 0xFFFFBD45  |  4294950213 |
|       3 | 0x109E0     |       68064 |
|       4 | 0xFFFFE890  |  4294961296 |
|       5 | 0x0B68      |        2920 |
|       6 | 0xFFFFBD75  |  4294950261 |
|       7 | 0x117AE     |       71598 |
|       8 | 0x0400      |        1024 |
|       9 | 0xFFFFEA87  |  4294961799 |
|      10 | 0x102CC     |       66252 |
|      11 | 0xFFFFE891  |  4294961297 |
|      12 | 0x0018      |          24 |
|      13 | 0xFFFFC9DE  |  4294953438 |
|      14 | 0x119A9     |       72105 |
|      15 | 0x03F2      |        1010 |
|      16 | 0x0005      |           5 |
|      17 | 0x0206      |         518 |
|      18 | 0x0000      |           0 |
|      19 | 0x0006      |           6 |
|      20 | 0x034A      |         842 |
|      21 | 0x2E24      |       11812 |
|      22 | 0x0007      |           7 |
|      23 | 0x0064      |         100 |
|      24 | 0x001E      |          30 |
|      25 | 0x000A      |          10 |
|      26 | 0x034B      |         843 |
|      27 | 0x0028      |          40 |
|      28 | 0x2E28      |       11816 |
|      29 | 0x002D      |          45 |
|      30 | 0xFFFFC806  |  4294952966 |
|      31 | 0x11372     |       70514 |
|      32 | 0x0B54      |        2900 |
|      33 | 0x2E29      |       11817 |
|      34 | 0x0002      |           2 |
|      35 | 0x0003      |           3 |
|      36 | 0x0004      |           4 |
|      37 | 0x0008      |           8 |
|      38 | 0x04E1      |        1249 |
|      39 | 0x2E2A      |       11818 |
|      40 | 0x2E2B      |       11819 |
|      41 | 0x0078      |         120 |
|      42 | 0x2E2C      |       11820 |
|      43 | 0x2E2D      |       11821 |
|      44 | 0x0014      |          20 |
|      45 | 0x2E2E      |       11822 |
|      46 | 0x2E2F      |       11823 |
|      47 | 0x2E30      |       11824 |
|      48 | 0x2E31      |       11825 |
|      49 | 0x2E32      |       11826 |
|      50 | 0x003C      |          60 |
|      51 | 0x0009      |           9 |
|      52 | 0x2E33      |       11827 |
|      53 | 0x0B2D      |        2861 |
|      54 | 0x2E34      |       11828 |
|      55 | 0x2E35      |       11829 |
|      56 | 0xFFFFEB4C  |  4294961996 |
|      57 | 0x108E0     |       67808 |
|      58 | 0x2E36      |       11830 |
|      59 | 0x2E37      |       11831 |
|      60 | 0xFFFFBECA  |  4294950602 |
|      61 | 0x105F6     |       67062 |
|      62 | 0x0E10      |        3600 |
|      63 | 0x0046      |          70 |
|      64 | 0x0371      |         881 |
|      65 | 0x008C      |         140 |
|      66 | 0x2E38      |       11832 |
|      67 | 0x2E39      |       11833 |
|      68 | 0x2E3A      |       11834 |
|      69 | 0x00B4      |         180 |
|      70 | 0x00C8      |         200 |
|      71 | 0x2E25      |       11813 |
|      72 | 0x005A      |          90 |
|      73 | 0x2E26      |       11814 |
|      74 | 0x0050      |          80 |
|      75 | 0x2E27      |       11815 |
|      76 | 0x00A0      |         160 |
|      77 | 0x0063      |          99 |
|      78 | 0x2E5C      |       11868 |
|      79 | 0x0397      |         919 |
|      80 | 0x0016      |          22 |
|      81 | 0x2E5D      |       11869 |
|      82 | 0xFFFFDBC3  |  4294958019 |
|      83 | 0x109DA     |       68058 |
|      84 | 0x0808      |        2056 |
|      85 | 0x2E5E      |       11870 |
|      86 | 0x2E5F      |       11871 |
|      87 | 0x2E61      |       11873 |
|      88 | 0x2E60      |       11872 |
|      89 | 0xFFFFBAE0  |  4294949600 |
|      90 | 0x10A23     |       68131 |
|      91 | 0x0F05      |        3845 |
|      92 | 0xFFFFC760  |  4294952800 |
|      93 | 0x10DFA     |       69114 |
|      94 | 0xFFFFC658  |  4294952536 |
|      95 | 0x10988     |       67976 |
|      96 | 0x07D0      |        2000 |
|      97 | 0x2E62      |       11874 |
|      98 | 0x2E63      |       11875 |
|      99 | 0xFFFFB874  |  4294948980 |
|     100 | 0x1094E     |       67918 |
|     101 | 0x0EE9      |        3817 |
|     102 | 0x0032      |          50 |
|     103 | 0x06C8      |        1736 |
|     104 | 0x00E2      |         226 |
|     105 | 0x2E64      |       11876 |
|     106 | 0x0015      |          21 |
|     107 | 0x001A      |          26 |
|     108 | 0x2E65      |       11877 |
|     109 | 0x2E66      |       11878 |
|     110 | 0x2E67      |       11879 |
|     111 | 0x2E41      |       11841 |
|     112 | 0x2E43      |       11843 |
|     113 | 0x15C9      |        5577 |
|     114 | 0x2E42      |       11842 |
|     115 | 0x15C4      |        5572 |
|     116 | 0x2E44      |       11844 |
|     117 | 0x2E45      |       11845 |
|     118 | 0x2E46      |       11846 |
|     119 | 0x2E47      |       11847 |
|     120 | 0x2E48      |       11848 |
|     121 | 0xFFFFFE62  |  4294966882 |
|     122 | 0x102E9     |       66281 |
|     123 | 0xFFFFE5F5  |  4294960629 |
|     124 | 0x3E98      |       16024 |
|     125 | 0x1066C     |       67180 |
|     126 | 0x3BB7      |       15287 |
|     127 | 0x10AEF     |       68335 |
|     128 | 0x2E56      |       11862 |
|     129 | 0x2E49      |       11849 |
|     130 | 0x2E51      |       11857 |
|     131 | 0x0082      |         130 |
|     132 | 0x2E52      |       11858 |
|     133 | 0x2E53      |       11859 |
|     134 | 0x2E54      |       11860 |
|     135 | 0x2E55      |       11861 |
|     136 | 0xFFFFC42A  |  4294951978 |
|     137 | 0x11819     |       71705 |
|     138 | 0x0FA0      |        4000 |
|     139 | 0x2E4A      |       11850 |
|     140 | 0x2E4B      |       11851 |
|     141 | 0x000F      |          15 |
|     142 | 0x2E4C      |       11852 |
|     143 | 0x2E4D      |       11853 |
|     144 | 0x2E4E      |       11854 |
|     145 | 0x2E4F      |       11855 |
|     146 | 0x2E50      |       11856 |
|     147 | 0xFFFFF6A3  |  4294964899 |
|     148 | 0x106B4     |       67252 |
|     149 | 0xFFFFF85D  |  4294965341 |
|     150 | 0x10A35     |       68149 |
|     151 | 0x2E68      |       11880 |
|     152 | 0x2E69      |       11881 |
|     153 | 0x2E57      |       11863 |
|     154 | 0x2E58      |       11864 |
|     155 | 0x2E59      |       11865 |
|     156 | 0x2E5A      |       11866 |
|     157 | 0x2E5B      |       11867 |
|     158 | 0x012C      |         300 |
|     159 | 0x0093      |         147 |
|     160 | 0x00B9      |         185 |
|     161 | 0x007F      |         127 |
|     162 | 0x35E9      |       13801 |
|     163 | 0xE3B6      |       58294 |
|     164 | 0x0DE2      |        3554 |
|     165 | 0x413F      |       16703 |
|     166 | 0xEB73      |       60275 |
|     167 | 0x0616      |        1558 |
|     168 | 0x0024      |          36 |
|     169 | 0x03AE      |         942 |
|     170 | 0x2ED1      |       11985 |
|     171 | 0x2ED2      |       11986 |
|     172 | 0x2ED3      |       11987 |
|     173 | 0x2ED4      |       11988 |
|     174 | 0x2ED5      |       11989 |
|     175 | 0x0BF1      |        3057 |
|     176 | 0x2ED6      |       11990 |
|     177 | 0x2ED7      |       11991 |
|     178 | 0x2ED8      |       11992 |
|     179 | 0x2ED9      |       11993 |
|     180 | 0x2EDA      |       11994 |
|     181 | 0x2EDB      |       11995 |
|     182 | 0x2EDC      |       11996 |
|     183 | 0x2EDD      |       11997 |
|     184 | 0x00AF      |         175 |
|     185 | 0x00C9      |         201 |
|     186 | 0x00D7      |         215 |

## String References

- **11862**: Give a treat to Yoyoroon? [$1./$2./Both.]
- **11876**: Yoyoroon gazes pleadingly at <Player>, his tummy rumbling...

## Events

### Event 65535

#### Metadata

| Field        | Value   |
|--------------|---------|
| Entrypoint   | 0x0000  |
| Data Size    | 1 bytes |
| Instructions | 1       |

```
      00 01 02 03 04 05 06 07  08 09 0A 0B 0C 0D 0E 0F
      -- -- -- -- -- -- -- --  -- -- -- -- -- -- -- --
0000: 00                                                .               
```

#### Opcodes

```
  0: 0x0000 [0x00] END_REQSTACK()
```

### Event 318

#### Metadata

| Field        | Value      |
|--------------|------------|
| Entrypoint   | 0x0001     |
| Data Size    | 4722 bytes |
| Instructions | 508        |

```
      00 01 02 03 04 05 06 07  08 09 0A 0B 0C 0D 0E 0F
      -- -- -- -- -- -- -- --  -- -- -- -- -- -- -- --
0000:    42 1A 28 43 46 01 03  00 00 06 10 38 00 80 1C   B.(CF......8...
0010: 01 80 4E 00 F0 FF FF 7F  2F 00 63 50 03 01 79 00  ..N...../.cP..y.
0020: F0 FF FF 7F F0 FF FF 7F  27 10 65 50 03 01 04 27  ........'.eP...'
0030: 10 66 50 03 01 04 27 10  64 50 03 01 04 BA F0 FF  .fP...'.dP......
0040: FF 7F 02 80 03 80 04 80  05 80 BA 65 50 03 01 06  ...........eP...
0050: 80 07 80 04 80 08 80 BA  66 50 03 01 09 80 0A 80  ........fP......
0060: 0B 80 0C 80 BA 64 50 03  01 0D 80 0E 80 04 80 0F  .....dP.........
0070: 80 92 01 65 50 03 01 92  01 66 50 03 01 92 01 64  ...eP....fP....d
0080: 50 03 01 92 01 63 50 03  01 94 01 F0 FF FF 7F 94  P....cP.........
0090: 01 65 50 03 01 94 01 66  50 03 01 94 01 64 50 03  .eP....fP....dP.
00A0: 01 94 01 63 50 03 01 80  65 50 03 01 80 66 50 03  ...cP...eP...fP.
00B0: 01 80 64 50 03 01 29 10  F0 FF FF 7F 15 1C 01 80  ..dP..).........
00C0: 03 01 00 02 10 1C 10 80  27 10 64 50 03 01 10 27  ........'.dP...'
00D0: 10 66 50 03 01 10 4A F0  FF FF 7F 65 50 03 01 02  .fP...J....eP...
00E0: 01 00 10 80 80 FB 00 45  11 80 F0 FF FF 7F F0 FF  .......E........
00F0: FF 7F 79 74 30 31 12 80  01 28 01 02 01 00 13 80  ..yt01...(......
0100: 80 17 01 45 11 80 F0 FF  FF 7F F0 FF FF 7F 79 74  ...E..........yt
0110: 30 31 12 80 01 28 01 45  11 80 F0 FF FF 7F F0 FF  01...(.E........
0120: FF 7F 79 30 30 31 12 80  1A 07 43 81 00 65 50 03  ..y001....C..eP.
0130: 01 7C 00 65 50 03 01 5B  14 80 65 50 03 01 65 50  .|.eP..[..eP..eP
0140: 03 01 74 6C 6B 30 2B 65  50 03 01 15 80 23 6E F0  ..tlk0+eP....#n.
0150: FF FF 7F 16 80 99 F0 FF  FF 7F 5B 14 80 65 50 03  ..........[..eP.
0160: 01 65 50 03 01 74 6C 6B  31 1C 17 80 02 00 00 01  .eP..tlk1.......
0170: 80 80 7A 01 01 D1 10 01  7A 01 27 10 65 50 03 01  ..z.....z.'.eP..
0180: 11 1C 18 80 02 01 00 10  80 80 AF 01 52 11 80 F0  ............R...
0190: FF FF 7F F0 FF FF 7F 79  74 30 31 45 11 80 F0 FF  .......yt01E....
01A0: FF 7F F0 FF FF 7F 79 74  30 32 12 80 01 FA 01 02  ......yt02......
01B0: 01 00 13 80 80 DA 01 52  11 80 F0 FF FF 7F F0 FF  .......R........
01C0: FF 7F 79 74 30 31 45 11  80 F0 FF FF 7F F0 FF FF  ..yt01E.........
01D0: 7F 79 74 30 32 12 80 01  FA 01 52 11 80 F0 FF FF  .yt02.....R.....
01E0: 7F F0 FF FF 7F 79 30 30  31 45 11 80 F0 FF FF 7F  .....y001E......
01F0: F0 FF FF 7F 79 30 30 32  12 80 1C 19 80 4A F0 FF  ....y002.....J..
0200: FF 7F 65 50 03 01 2A 10  65 50 03 01 5B 1A 80 65  ..eP..*.eP..[..e
0210: 50 03 01 65 50 03 01 74  6C 62 30 1C 1B 80 2B 65  P..eP..tlb0...+e
0220: 50 03 01 1C 80 23 5B 1A  80 65 50 03 01 65 50 03  P....#[..eP..eP.
0230: 01 74 6C 62 31 1A 28 43  1C 18 80 52 11 80 F0 FF  .tlb1.(C...R....
0240: FF 7F F0 FF FF 7F 79 74  30 32 52 11 80 F0 FF FF  ......yt02R.....
0250: 7F F0 FF FF 7F 79 30 30  32 7B F0 FF FF 7F 27 10  .....y002{....'.
0260: 64 50 03 01 11 1C 19 80  79 00 64 50 03 01 F0 FF  dP......y.dP....
0270: FF 7F 27 10 64 50 03 01  12 1C 19 80 4A 65 50 03  ..'.dP......JeP.
0280: 01 64 50 03 01 45 11 80  F0 FF FF 7F F0 FF FF 7F  .dP..E..........
0290: 79 30 30 33 12 80 1A 07  43 4A F0 FF FF 7F 64 50  y003....CJ....dP
02A0: 03 01 1C 18 80 4A 65 50  03 01 64 50 03 01 1C 18  .....JeP..dP....
02B0: 80 4A F0 FF FF 7F 64 50  03 01 1C 1D 80 4A 65 50  .J....dP.....JeP
02C0: 03 01 64 50 03 01 1C 19  80 52 11 80 F0 FF FF 7F  ..dP.....R......
02D0: F0 FF FF 7F 79 30 30 33  45 11 80 F0 FF FF 7F F0  ....y003E.......
02E0: FF FF 7F 79 30 30 34 12  80 1C 19 80 BA 65 50 03  ...y004......eP.
02F0: 01 1E 80 1F 80 0B 80 20  80 2A 10 64 50 03 01 2B  ....... .*.dP..+
0300: 64 50 03 01 21 80 4A F0  FF FF 7F 64 50 03 01 4A  dP..!.J....dP..J
0310: 65 50 03 01 64 50 03 01  4A 66 50 03 01 64 50 03  eP..dP..JfP..dP.
0320: 01 6F 76 F0 FF FF 7F 23  02 01 00 01 80 80 53 03  .ov....#......S.
0330: 52 11 80 F0 FF FF 7F F0  FF FF 7F 79 30 30 34 45  R..........y004E
0340: 11 80 F0 FF FF 7F F0 FF  FF 7F 79 30 30 35 12 80  ..........y005..
0350: 01 80 04 02 01 00 22 80  80 7E 03 52 11 80 F0 FF  ......"..~.R....
0360: FF 7F F0 FF FF 7F 79 30  30 34 45 11 80 F0 FF FF  ......y004E.....
0370: 7F F0 FF FF 7F 79 6D 30  35 12 80 01 80 04 02 01  .....ym05.......
0380: 00 23 80 80 A9 03 52 11  80 F0 FF FF 7F F0 FF FF  .#....R.........
0390: 7F 79 30 30 34 45 11 80  F0 FF FF 7F F0 FF FF 7F  .y004E..........
03A0: 79 67 30 35 12 80 01 80  04 02 01 00 24 80 80 D4  yg05........$...
03B0: 03 52 11 80 F0 FF FF 7F  F0 FF FF 7F 79 30 30 34  .R..........y004
03C0: 45 11 80 F0 FF FF 7F F0  FF FF 7F 79 30 30 35 12  E..........y005.
03D0: 80 01 80 04 02 01 00 10  80 80 FF 03 52 11 80 F0  ............R...
03E0: FF FF 7F F0 FF FF 7F 79  30 30 34 45 11 80 F0 FF  .......y004E....
03F0: FF 7F F0 FF FF 7F 79 74  30 35 12 80 01 80 04 02  ......yt05......
0400: 01 00 13 80 80 2A 04 52  11 80 F0 FF FF 7F F0 FF  .....*.R........
0410: FF 7F 79 30 30 34 45 11  80 F0 FF FF 7F F0 FF FF  ..y004E.........
0420: 7F 79 74 30 35 12 80 01  80 04 02 01 00 16 80 80  .yt05...........
0430: 55 04 52 11 80 F0 FF FF  7F F0 FF FF 7F 79 30 30  U.R..........y00
0440: 34 45 11 80 F0 FF FF 7F  F0 FF FF 7F 79 6D 30 35  4E..........ym05
0450: 12 80 01 80 04 02 01 00  25 80 80 80 04 52 11 80  ........%....R..
0460: F0 FF FF 7F F0 FF FF 7F  79 30 30 34 45 11 80 F0  ........y004E...
0470: FF FF 7F F0 FF FF 7F 79  67 30 35 12 80 01 80 04  .......yg05.....
0480: 29 10 F0 FF FF 7F 2C 1C  18 80 66 12 80 64 50 03  ).....,...f..dP.
0490: 01 64 50 03 01 74 68 6B  31 03 02 10 26 80 1C 18  .dP..thk1...&...
04A0: 80 2B 64 50 03 01 27 80  23 66 12 80 64 50 03 01  .+dP..'.#f..dP..
04B0: 64 50 03 01 74 68 6B 32  1C 18 80 02 01 00 01 80  dP..thk2........
04C0: 80 E6 04 52 11 80 F0 FF  FF 7F F0 FF FF 7F 79 30  ...R..........y0
04D0: 30 35 45 11 80 F0 FF FF  7F F0 FF FF 7F 79 30 30  05E..........y00
04E0: 36 12 80 01 13 06 02 01  00 22 80 80 11 05 52 11  6........"....R.
04F0: 80 F0 FF FF 7F F0 FF FF  7F 79 6D 30 35 45 11 80  .........ym05E..
0500: F0 FF FF 7F F0 FF FF 7F  79 6D 30 36 12 80 01 13  ........ym06....
0510: 06 02 01 00 23 80 80 3C  05 52 11 80 F0 FF FF 7F  ....#..<.R......
0520: F0 FF FF 7F 79 67 30 35  45 11 80 F0 FF FF 7F F0  ....yg05E.......
0530: FF FF 7F 79 67 30 36 12  80 01 13 06 02 01 00 24  ...yg06........$
0540: 80 80 67 05 52 11 80 F0  FF FF 7F F0 FF FF 7F 79  ..g.R..........y
0550: 30 30 35 45 11 80 F0 FF  FF 7F F0 FF FF 7F 79 30  005E..........y0
0560: 30 36 12 80 01 13 06 02  01 00 10 80 80 92 05 52  06.............R
0570: 11 80 F0 FF FF 7F F0 FF  FF 7F 79 74 30 35 45 11  ..........yt05E.
0580: 80 F0 FF FF 7F F0 FF FF  7F 79 74 30 36 12 80 01  .........yt06...
0590: 13 06 02 01 00 13 80 80  BD 05 52 11 80 F0 FF FF  ..........R.....
05A0: 7F F0 FF FF 7F 79 74 30  35 45 11 80 F0 FF FF 7F  .....yt05E......
05B0: F0 FF FF 7F 79 74 30 36  12 80 01 13 06 02 01 00  ....yt06........
05C0: 16 80 80 E8 05 52 11 80  F0 FF FF 7F F0 FF FF 7F  .....R..........
05D0: 79 6D 30 35 45 11 80 F0  FF FF 7F F0 FF FF 7F 79  ym05E..........y
05E0: 6D 30 36 12 80 01 13 06  02 01 00 25 80 80 13 06  m06........%....
05F0: 52 11 80 F0 FF FF 7F F0  FF FF 7F 79 67 30 35 45  R..........yg05E
0600: 11 80 F0 FF FF 7F F0 FF  FF 7F 79 67 30 36 12 80  ..........yg06..
0610: 01 13 06 1C 18 80 2B 64  50 03 01 28 80 1C 29 80  ......+dP..(..).
0620: 23 52 11 80 F0 FF FF 7F  F0 FF FF 7F 79 30 30 36  #R..........y006
0630: 52 11 80 F0 FF FF 7F F0  FF FF 7F 79 74 30 36 52  R..........yt06R
0640: 11 80 F0 FF FF 7F F0 FF  FF 7F 79 67 30 36 52 11  ..........yg06R.
0650: 80 F0 FF FF 7F F0 FF FF  7F 79 6D 30 36 45 11 80  .........ym06E..
0660: F0 FF FF 7F F0 FF FF 7F  79 30 30 37 12 80 5B 14  ........y007..[.
0670: 80 65 50 03 01 65 50 03  01 74 6C 6B 30 2B 65 50  .eP..eP..tlk0+eP
0680: 03 01 2A 80 1C 18 80 4A  64 50 03 01 65 50 03 01  ..*....JdP..eP..
0690: 23 2B 65 50 03 01 2B 80  23 5B 14 80 65 50 03 01  #+eP..+.#[..eP..
06A0: 65 50 03 01 74 6C 6B 31  1C 2C 80 27 10 65 50 03  eP..tlk1.,.'.eP.
06B0: 01 13 02 01 00 01 80 80  DD 06 52 11 80 F0 FF FF  ..........R.....
06C0: 7F F0 FF FF 7F 79 30 30  37 45 11 80 F0 FF FF 7F  .....y007E......
06D0: F0 FF FF 7F 79 30 30 38  12 80 01 0A 08 02 01 00  ....y008........
06E0: 22 80 80 08 07 52 11 80  F0 FF FF 7F F0 FF FF 7F  "....R..........
06F0: 79 30 30 37 45 11 80 F0  FF FF 7F F0 FF FF 7F 79  y007E..........y
0700: 6D 30 38 12 80 01 0A 08  02 01 00 23 80 80 33 07  m08........#..3.
0710: 52 11 80 F0 FF FF 7F F0  FF FF 7F 79 30 30 37 45  R..........y007E
0720: 11 80 F0 FF FF 7F F0 FF  FF 7F 79 67 30 38 12 80  ..........yg08..
0730: 01 0A 08 02 01 00 24 80  80 5E 07 52 11 80 F0 FF  ......$..^.R....
0740: FF 7F F0 FF FF 7F 79 30  30 37 45 11 80 F0 FF FF  ......y007E.....
0750: 7F F0 FF FF 7F 79 67 30  38 12 80 01 0A 08 02 01  .....yg08.......
0760: 00 10 80 80 89 07 52 11  80 F0 FF FF 7F F0 FF FF  ......R.........
0770: 7F 79 30 30 37 45 11 80  F0 FF FF 7F F0 FF FF 7F  .y007E..........
0780: 79 74 30 38 12 80 01 0A  08 02 01 00 13 80 80 B4  yt08............
0790: 07 52 11 80 F0 FF FF 7F  F0 FF FF 7F 79 30 30 37  .R..........y007
07A0: 45 11 80 F0 FF FF 7F F0  FF FF 7F 79 74 30 38 12  E..........yt08.
07B0: 80 01 0A 08 02 01 00 16  80 80 DF 07 52 11 80 F0  ............R...
07C0: FF FF 7F F0 FF FF 7F 79  30 30 37 45 11 80 F0 FF  .......y007E....
07D0: FF 7F F0 FF FF 7F 79 6D  30 38 12 80 01 0A 08 02  ......ym08......
07E0: 01 00 25 80 80 0A 08 52  11 80 F0 FF FF 7F F0 FF  ..%....R........
07F0: FF 7F 79 30 30 37 45 11  80 F0 FF FF 7F F0 FF FF  ..y007E.........
0800: 7F 79 67 30 38 12 80 01  0A 08 4A 64 50 03 01 F0  .yg08.....JdP...
0810: FF FF 7F 6F 76 64 50 03  01 6E 64 50 03 01 13 80  ...ovdP..ndP....
0820: 99 64 50 03 01 2B 64 50  03 01 2D 80 23 2A 10 65  .dP..+dP..-.#*.e
0830: 50 03 01 52 11 80 F0 FF  FF 7F F0 FF FF 7F 79 30  P..R..........y0
0840: 30 38 52 11 80 F0 FF FF  7F F0 FF FF 7F 79 74 30  08R..........yt0
0850: 38 52 11 80 F0 FF FF 7F  F0 FF FF 7F 79 6D 30 38  8R..........ym08
0860: 52 11 80 F0 FF FF 7F F0  FF FF 7F 79 67 30 38 45  R..........yg08E
0870: 11 80 F0 FF FF 7F F0 FF  FF 7F 79 30 30 39 12 80  ..........y009..
0880: 66 12 80 64 50 03 01 64  50 03 01 74 6C 6B 30 2B  f..dP..dP..tlk0+
0890: 64 50 03 01 2E 80 23 27  10 65 50 03 01 14 02 01  dP....#'.eP.....
08A0: 00 01 80 80 DA 08 52 11  80 F0 FF FF 7F F0 FF FF  ......R.........
08B0: 7F 79 30 30 39 45 11 80  F0 FF FF 7F F0 FF FF 7F  .y009E..........
08C0: 6F 76 34 30 12 80 45 11  80 F0 FF FF 7F F0 FF FF  ov40..E.........
08D0: 7F 79 30 31 30 12 80 01  7E 0A 02 01 00 22 80 80  .y010...~...."..
08E0: 16 09 52 11 80 F0 FF FF  7F F0 FF FF 7F 79 30 30  ..R..........y00
08F0: 39 45 11 80 F0 FF FF 7F  F0 FF FF 7F 6F 76 34 30  9E..........ov40
0900: 12 80 45 11 80 F0 FF FF  7F F0 FF FF 7F 79 30 31  ..E..........y01
0910: 30 12 80 01 7E 0A 02 01  00 23 80 80 52 09 52 11  0...~....#..R.R.
0920: 80 F0 FF FF 7F F0 FF FF  7F 79 30 30 39 45 11 80  .........y009E..
0930: F0 FF FF 7F F0 FF FF 7F  6F 76 34 30 12 80 45 11  ........ov40..E.
0940: 80 F0 FF FF 7F F0 FF FF  7F 79 67 31 30 12 80 01  .........yg10...
0950: 7E 0A 02 01 00 24 80 80  8E 09 52 11 80 F0 FF FF  ~....$....R.....
0960: 7F F0 FF FF 7F 79 30 30  39 45 11 80 F0 FF FF 7F  .....y009E......
0970: F0 FF FF 7F 6F 76 34 30  12 80 45 11 80 F0 FF FF  ....ov40..E.....
0980: 7F F0 FF FF 7F 79 30 31  30 12 80 01 7E 0A 02 01  .....y010...~...
0990: 00 10 80 80 CA 09 52 11  80 F0 FF FF 7F F0 FF FF  ......R.........
09A0: 7F 79 30 30 39 45 11 80  F0 FF FF 7F F0 FF FF 7F  .y009E..........
09B0: 6F 76 34 30 12 80 45 11  80 F0 FF FF 7F F0 FF FF  ov40..E.........
09C0: 7F 79 74 31 30 12 80 01  7E 0A 02 01 00 13 80 80  .yt10...~.......
09D0: 06 0A 52 11 80 F0 FF FF  7F F0 FF FF 7F 79 30 30  ..R..........y00
09E0: 39 45 11 80 F0 FF FF 7F  F0 FF FF 7F 6F 76 34 30  9E..........ov40
09F0: 12 80 45 11 80 F0 FF FF  7F F0 FF FF 7F 79 74 31  ..E..........yt1
0A00: 30 12 80 01 7E 0A 02 01  00 16 80 80 42 0A 52 11  0...~.......B.R.
0A10: 80 F0 FF FF 7F F0 FF FF  7F 79 30 30 39 45 11 80  .........y009E..
0A20: F0 FF FF 7F F0 FF FF 7F  6F 76 34 30 12 80 45 11  ........ov40..E.
0A30: 80 F0 FF FF 7F F0 FF FF  7F 79 30 31 30 12 80 01  .........y010...
0A40: 7E 0A 02 01 00 25 80 80  7E 0A 52 11 80 F0 FF FF  ~....%..~.R.....
0A50: 7F F0 FF FF 7F 79 30 30  39 45 11 80 F0 FF FF 7F  .....y009E......
0A60: F0 FF FF 7F 6F 76 34 30  12 80 45 11 80 F0 FF FF  ....ov40..E.....
0A70: 7F F0 FF FF 7F 79 67 31  30 12 80 01 7E 0A 2B 64  .....yg10...~.+d
0A80: 50 03 01 2F 80 23 2A 10  65 50 03 01 4A 65 50 03  P../.#*.eP..JeP.
0A90: 01 64 50 03 01 2B 64 50  03 01 30 80 23 6F 76 65  .dP..+dP..0.#ove
0AA0: 50 03 01 27 10 65 50 03  01 15 7B 64 50 03 01 2B  P..'.eP...{dP..+
0AB0: 64 50 03 01 31 80 23 66  12 80 64 50 03 01 64 50  dP..1.#f..dP..dP
0AC0: 03 01 74 65 6E 30 1C 32  80 52 11 80 F0 FF FF 7F  ..ten0.2.R......
0AD0: F0 FF FF 7F 79 30 31 30  52 11 80 F0 FF FF 7F F0  ....y010R.......
0AE0: FF FF 7F 79 67 31 30 52  11 80 F0 FF FF 7F F0 FF  ...yg10R........
0AF0: FF 7F 79 74 31 30 45 11  80 F0 FF FF 7F F0 FF FF  ..yt10E.........
0B00: 7F 6F 76 34 30 12 80 45  11 80 F0 FF FF 7F F0 FF  .ov40..E........
0B10: FF 7F 79 30 31 31 12 80  1C 32 80 66 33 80 64 50  ..y011...2.f3.dP
0B20: 03 01 64 50 03 01 74 68  6B 31 1C 32 80 7C 00 64  ..dP..thk1.2.|.d
0B30: 50 03 01 2B 64 50 03 01  34 80 23 7C 01 64 50 03  P..+dP..4.#|.dP.
0B40: 01 66 33 80 64 50 03 01  64 50 03 01 74 68 6B 32  .f3.dP..dP..thk2
0B50: 1C 1B 80 02 01 00 01 80  80 7E 0B 52 11 80 F0 FF  .........~.R....
0B60: FF 7F F0 FF FF 7F 79 30  31 31 45 11 80 F0 FF FF  ......y011E.....
0B70: 7F F0 FF FF 7F 79 30 31  32 12 80 01 AB 0C 02 01  .....y012.......
0B80: 00 22 80 80 A9 0B 52 11  80 F0 FF FF 7F F0 FF FF  ."....R.........
0B90: 7F 79 30 31 31 45 11 80  F0 FF FF 7F F0 FF FF 7F  .y011E..........
0BA0: 79 6D 31 32 12 80 01 AB  0C 02 01 00 23 80 80 D4  ym12........#...
0BB0: 0B 52 11 80 F0 FF FF 7F  F0 FF FF 7F 79 30 31 31  .R..........y011
0BC0: 45 11 80 F0 FF FF 7F F0  FF FF 7F 79 30 31 32 12  E..........y012.
0BD0: 80 01 AB 0C 02 01 00 24  80 80 FF 0B 52 11 80 F0  .......$....R...
0BE0: FF FF 7F F0 FF FF 7F 79  30 31 31 45 11 80 F0 FF  .......y011E....
0BF0: FF 7F F0 FF FF 7F 79 30  31 32 12 80 01 AB 0C 02  ......y012......
0C00: 01 00 10 80 80 2A 0C 52  11 80 F0 FF FF 7F F0 FF  .....*.R........
0C10: FF 7F 79 30 31 31 45 11  80 F0 FF FF 7F F0 FF FF  ..y011E.........
0C20: 7F 79 74 31 32 12 80 01  AB 0C 02 01 00 13 80 80  .yt12...........
0C30: 55 0C 52 11 80 F0 FF FF  7F F0 FF FF 7F 79 30 31  U.R..........y01
0C40: 31 45 11 80 F0 FF FF 7F  F0 FF FF 7F 79 74 31 32  1E..........yt12
0C50: 12 80 01 AB 0C 02 01 00  16 80 80 80 0C 52 11 80  .............R..
0C60: F0 FF FF 7F F0 FF FF 7F  79 30 31 31 45 11 80 F0  ........y011E...
0C70: FF FF 7F F0 FF FF 7F 79  6D 31 32 12 80 01 AB 0C  .......ym12.....
0C80: 02 01 00 25 80 80 AB 0C  52 11 80 F0 FF FF 7F F0  ...%....R.......
0C90: FF FF 7F 79 30 31 31 45  11 80 F0 FF FF 7F F0 FF  ...y011E........
0CA0: FF 7F 79 30 31 32 12 80  01 AB 0C 1C 1B 80 27 10  ..y012........'.
0CB0: 66 50 03 01 11 66 33 80  64 50 03 01 64 50 03 01  fP...f3.dP..dP..
0CC0: 74 6C 6B 30 1C 18 80 03  03 10 35 80 2B 64 50 03  tlk0......5.+dP.
0CD0: 01 36 80 23 2B 64 50 03  01 37 80 23 66 33 80 64  .6.#+dP..7.#f3.d
0CE0: 50 03 01 64 50 03 01 74  6C 6B 31 29 10 F0 FF FF  P..dP..tlk1)....
0CF0: 7F 2C 2A 10 65 50 03 01  BA 65 50 03 01 38 80 39  .,*.eP...eP..8.9
0D00: 80 04 80 0C 80 BA 66 50  03 01 09 80 0A 80 0B 80  ......fP........
0D10: 0C 80 4A 65 50 03 01 66  50 03 01 4A 66 50 03 01  ..JeP..fP..JfP..
0D20: 65 50 03 01 5B 14 80 65  50 03 01 65 50 03 01 74  eP..[..eP..eP..t
0D30: 6C 6B 30 1C 2C 80 6E 64  50 03 01 13 80 99 64 50  lk0.,.ndP.....dP
0D40: 03 01 2B 64 50 03 01 3A  80 23 52 11 80 F0 FF FF  ..+dP..:.#R.....
0D50: 7F F0 FF FF 7F 79 30 31  32 52 11 80 F0 FF FF 7F  .....y012R......
0D60: F0 FF FF 7F 79 74 31 32  52 11 80 F0 FF FF 7F F0  ....yt12R.......
0D70: FF FF 7F 79 6D 31 32 45  11 80 F0 FF FF 7F F0 FF  ...ym12E........
0D80: FF 7F 79 30 31 33 12 80  2B 64 50 03 01 3B 80 7B  ..y013..+dP..;.{
0D90: F0 FF FF 7F 1C 2C 80 BA  F0 FF FF 7F 3C 80 3D 80  .....,......<.=.
0DA0: 0B 80 3E 80 1C 19 80 23  59 01 64 50 03 01 3F 80  ..>....#Y.dP..?.
0DB0: 4A 64 50 03 01 65 50 03  01 52 11 80 F0 FF FF 7F  JdP..eP..R......
0DC0: F0 FF FF 7F 79 30 31 33  45 11 80 F0 FF FF 7F F0  ....y013E.......
0DD0: FF FF 7F 6F 76 33 30 12  80 45 11 80 F0 FF FF 7F  ...ov30..E......
0DE0: F0 FF FF 7F 79 30 31 34  12 80 5B 40 80 66 50 03  ....y014..[@.fP.
0DF0: 01 66 50 03 01 77 68 74  30 1C 18 80 4A F0 FF FF  .fP..wht0...J...
0E00: 7F 66 50 03 01 6F 76 64  50 03 01 1C 41 80 02 01  .fP..ovdP...A...
0E10: 00 01 80 80 4A 0E 52 11  80 F0 FF FF 7F F0 FF FF  ....J.R.........
0E20: 7F 79 30 31 34 45 11 80  F0 FF FF 7F F0 FF FF 7F  .y014E..........
0E30: 6F 76 33 30 12 80 45 11  80 F0 FF FF 7F F0 FF FF  ov30..E.........
0E40: 7F 79 30 31 35 12 80 01  EE 0F 02 01 00 22 80 80  .y015........"..
0E50: 86 0E 52 11 80 F0 FF FF  7F F0 FF FF 7F 79 30 31  ..R..........y01
0E60: 34 45 11 80 F0 FF FF 7F  F0 FF FF 7F 6F 76 33 30  4E..........ov30
0E70: 12 80 45 11 80 F0 FF FF  7F F0 FF FF 7F 79 74 31  ..E..........yt1
0E80: 35 12 80 01 EE 0F 02 01  00 23 80 80 C2 0E 52 11  5........#....R.
0E90: 80 F0 FF FF 7F F0 FF FF  7F 79 30 31 34 45 11 80  .........y014E..
0EA0: F0 FF FF 7F F0 FF FF 7F  6F 76 33 30 12 80 45 11  ........ov30..E.
0EB0: 80 F0 FF FF 7F F0 FF FF  7F 79 30 31 35 12 80 01  .........y015...
0EC0: EE 0F 02 01 00 24 80 80  FE 0E 52 11 80 F0 FF FF  .....$....R.....
0ED0: 7F F0 FF FF 7F 79 30 31  34 45 11 80 F0 FF FF 7F  .....y014E......
0EE0: F0 FF FF 7F 6F 76 33 30  12 80 45 11 80 F0 FF FF  ....ov30..E.....
0EF0: 7F F0 FF FF 7F 79 30 31  35 12 80 01 EE 0F 02 01  .....y015.......
0F00: 00 10 80 80 3A 0F 52 11  80 F0 FF FF 7F F0 FF FF  ....:.R.........
0F10: 7F 79 30 31 34 45 11 80  F0 FF FF 7F F0 FF FF 7F  .y014E..........
0F20: 6F 76 33 30 12 80 45 11  80 F0 FF FF 7F F0 FF FF  ov30..E.........
0F30: 7F 79 74 31 35 12 80 01  EE 0F 02 01 00 13 80 80  .yt15...........
0F40: 76 0F 52 11 80 F0 FF FF  7F F0 FF FF 7F 79 30 31  v.R..........y01
0F50: 34 45 11 80 F0 FF FF 7F  F0 FF FF 7F 6F 76 33 30  4E..........ov30
0F60: 12 80 45 11 80 F0 FF FF  7F F0 FF FF 7F 79 74 31  ..E..........yt1
0F70: 35 12 80 01 EE 0F 02 01  00 16 80 80 B2 0F 52 11  5.............R.
0F80: 80 F0 FF FF 7F F0 FF FF  7F 79 30 31 34 45 11 80  .........y014E..
0F90: F0 FF FF 7F F0 FF FF 7F  6F 76 33 30 12 80 45 11  ........ov30..E.
0FA0: 80 F0 FF FF 7F F0 FF FF  7F 79 74 31 35 12 80 01  .........yt15...
0FB0: EE 0F 02 01 00 25 80 80  EE 0F 52 11 80 F0 FF FF  .....%....R.....
0FC0: 7F F0 FF FF 7F 79 30 31  34 45 11 80 F0 FF FF 7F  .....y014E......
0FD0: F0 FF FF 7F 6F 76 33 30  12 80 45 11 80 F0 FF FF  ....ov30..E.....
0FE0: 7F F0 FF FF 7F 79 30 31  35 12 80 01 EE 0F 1C 18  .....y015.......
0FF0: 80 4A 64 50 03 01 F0 FF  FF 7F 1C 18 80 4A F0 FF  .JdP.........J..
1000: FF 7F 64 50 03 01 1C 18  80 66 33 80 64 50 03 01  ..dP.....f3.dP..
1010: 64 50 03 01 74 6C 6B 30  2B 64 50 03 01 42 80 23  dP..tlk0+dP..B.#
1020: 2B 64 50 03 01 43 80 23  66 33 80 64 50 03 01 64  +dP..C.#f3.dP..d
1030: 50 03 01 74 6C 6B 31 1C  18 80 52 11 80 F0 FF FF  P..tlk1...R.....
1040: 7F F0 FF FF 7F 79 30 31  35 52 11 80 F0 FF FF 7F  .....y015R......
1050: F0 FF FF 7F 79 74 31 35  45 11 80 F0 FF FF 7F F0  ....yt15E.......
1060: FF FF 7F 6F 76 34 30 12  80 45 11 80 F0 FF FF 7F  ...ov40..E......
1070: F0 FF FF 7F 79 30 31 36  12 80 1C 19 80 2B 64 50  ....y016.....+dP
1080: 03 01 44 80 6E 64 50 03  01 01 80 99 64 50 03 01  ..D.ndP.....dP..
1090: 1C 45 80 1A 28 43 1C 18  80 52 11 80 F0 FF FF 7F  .E..(C...R......
10A0: F0 FF FF 7F 79 30 31 36  45 11 80 F0 FF FF 7F F0  ....y016E.......
10B0: FF FF 7F 30 62 6C 72 12  80 1C 10 80 46 00 45 46  ...0blr.....F.EF
10C0: 80 F0 FF FF 7F F0 FF FF  7F 66 64 69 32 12 80 21  .........fdi2..!
10D0: 00 52 11 80 F0 FF FF 7F  F0 FF FF 7F 79 30 30 31  .R..........y001
10E0: 45 11 80 F0 FF FF 7F F0  FF FF 7F 78 30 30 30 12  E..........x000.
10F0: 80 5B 1A 80 65 50 03 01  65 50 03 01 70 6E 74 30  .[..eP..eP..pnt0
1100: 1C 2C 80 2B 65 50 03 01  47 80 1C 48 80 5B 1A 80  .,.+eP..G..H.[..
1110: 65 50 03 01 65 50 03 01  70 6E 74 31 1C 32 80 23  eP..eP..pnt1.2.#
1120: 02 01 00 10 80 80 4B 11  52 11 80 F0 FF FF 7F F0  ......K.R.......
1130: FF FF 7F 78 30 30 30 45  11 80 F0 FF FF 7F F0 FF  ...x000E........
1140: FF 7F 78 74 30 31 12 80  01 C1 11 02 01 00 13 80  ..xt01..........
1150: 80 76 11 52 11 80 F0 FF  FF 7F F0 FF FF 7F 78 30  .v.R..........x0
1160: 30 30 45 11 80 F0 FF FF  7F F0 FF FF 7F 78 74 30  00E..........xt0
1170: 31 12 80 01 C1 11 02 01  00 25 80 80 A1 11 52 11  1........%....R.
1180: 80 F0 FF FF 7F F0 FF FF  7F 78 30 30 33 45 11 80  .........x003E..
1190: F0 FF FF 7F F0 FF FF 7F  78 67 30 31 12 80 01 C1  ........xg01....
11A0: 11 52 11 80 F0 FF FF 7F  F0 FF FF 7F 78 30 30 30  .R..........x000
11B0: 45 11 80 F0 FF FF 7F F0  FF FF 7F 78 30 30 31 12  E..........x001.
11C0: 80 5B 14 80 65 50 03 01  65 50 03 01 63 72 79 30  .[..eP..eP..cry0
11D0: 2B 65 50 03 01 49 80 1C  4A 80 23 5B 14 80 65 50  +eP..I..J.#[..eP
11E0: 03 01 65 50 03 01 63 72  79 31 1C 1B 80 5B 1A 80  ..eP..cry1...[..
11F0: 65 50 03 01 65 50 03 01  61 6E 67 30 2B 65 50 03  eP..eP..ang0+eP.
1200: 01 4B 80 1C 4C 80 23 1A  28 43 1C 18 80 52 11 80  .K..L.#.(C...R..
1210: F0 FF FF 7F F0 FF FF 7F  78 30 30 31 52 11 80 F0  ........x001R...
1220: FF FF 7F F0 FF FF 7F 78  67 30 31 52 11 80 F0 FF  .......xg01R....
1230: FF 7F F0 FF FF 7F 78 74  30 31 45 11 80 F0 FF FF  ......xt01E.....
1240: 7F F0 FF FF 7F 30 62 6C  72 12 80 1C 10 80 46 00  .....0blr.....F.
1250: 45 46 80 F0 FF FF 7F F0  FF FF 7F 66 64 69 32 12  EF.........fdi2.
1260: 80 02 00 00 01 80 80 71  12 03 01 10 4D 80 01 71  .......q....M..q
1270: 12 21 00                                          .!.             
```

#### Opcodes

```
  0: 0x0001 [0x42] SET_CLI_EVENT_CANCEL_DATA()
  1: 0x0002 [0x1A] CALL_SUBROUTINE(address=0x4328)
  2: 0x0005 [0x46] CAMERA_CONTROL: Disable user control
  3: 0x0007 [0x03] ExtData[1]->WorkLocal[0] = Work_Zone[6]
  4: 0x000C [0x38] SET_CLIENT_EVENT_MODE(mode=19*)
  5: 0x000F [0x1C] WAIT(1* ticks)
  6: 0x0012 [0x4E] SET_ENTITY_HIDE_FLAG: Show LocalPlayer
  7: 0x0018 [0x2F] ??? (ID: 16994403/0x01035063)->Render.Flags0 &= ~0x80000 // Bit 19
  8: 0x001E [0x79] LocalPlayer looks at LocalPlayer (Basic look)
  9: 0x0028 [0x27] REQ_SET(priority=0x10, entity_id=Yoyoroon (ID: 16994405/0x01035065), tag_num=0x04)
 10: 0x002F [0x27] REQ_SET(priority=0x10, entity_id=Tsetseroon (ID: 16994406/0x01035066), tag_num=0x04)
 11: 0x0036 [0x27] REQ_SET(priority=0x10, entity_id=Jayahan (ID: 16994404/0x01035064), tag_num=0x04)
 12: 0x003D [0xBA] SET_ENTITY_POSITION(entity_id=LocalPlayer, pos_x=-17.083*, pos_z=68.064*, pos_y=-6.000*, direction=256.6°*)
 13: 0x004A [0xBA] SET_ENTITY_POSITION(entity_id=Yoyoroon (ID: 16994405/0x01035065), pos_x=-17.035*, pos_z=71.598*, pos_y=-6.000*, direction=90.0°*)
 14: 0x0057 [0xBA] SET_ENTITY_POSITION(entity_id=Tsetseroon (ID: 16994406/0x01035066), pos_x=-5.497*, pos_z=66.252*, pos_y=-5.999*, direction=2.1°*)
 15: 0x0064 [0xBA] SET_ENTITY_POSITION(entity_id=Jayahan (ID: 16994404/0x01035064), pos_x=-13.858*, pos_z=72.105*, pos_y=-6.000*, direction=88.8°*)
 16: 0x0071 [0x92] Yoyoroon (ID: 16994405/0x01035065)->Render.Flags3 ^= 0x01
 17: 0x0077 [0x92] Tsetseroon (ID: 16994406/0x01035066)->Render.Flags3 ^= 0x01
 18: 0x007D [0x92] Jayahan (ID: 16994404/0x01035064)->Render.Flags3 ^= 0x01
 19: 0x0083 [0x92] ??? (ID: 16994403/0x01035063)->Render.Flags3 ^= 0x01
 20: 0x0089 [0x94] LocalPlayer->Render.Flags3 ^= 0x01
 21: 0x008F [0x94] Yoyoroon (ID: 16994405/0x01035065)->Render.Flags3 ^= 0x01
 22: 0x0095 [0x94] Tsetseroon (ID: 16994406/0x01035066)->Render.Flags3 ^= 0x01
 23: 0x009B [0x94] Jayahan (ID: 16994404/0x01035064)->Render.Flags3 ^= 0x01
 24: 0x00A1 [0x94] ??? (ID: 16994403/0x01035063)->Render.Flags3 ^= 0x01
 25: 0x00A7 [0x80] LOAD_WAIT(entity=Yoyoroon (ID: 16994405/0x01035065))
 26: 0x00AC [0x80] LOAD_WAIT(entity=Tsetseroon (ID: 16994406/0x01035066))
 27: 0x00B1 [0x80] LOAD_WAIT(entity=Jayahan (ID: 16994404/0x01035064))
 28: 0x00B6 [0x29] REQ_SET_WAIT(priority=0x10, entity_id=LocalPlayer, tag_num=0x15)
 29: 0x00BD [0x1C] WAIT(1* ticks)
 30: 0x00C0 [0x03] ExtData[1]->WorkLocal[1] = Work_Zone[2]
 31: 0x00C5 [0x1C] WAIT(5* ticks)
 32: 0x00C8 [0x27] REQ_SET(priority=0x10, entity_id=Jayahan (ID: 16994404/0x01035064), tag_num=0x10)
 33: 0x00CF [0x27] REQ_SET(priority=0x10, entity_id=Tsetseroon (ID: 16994406/0x01035066), tag_num=0x10)
 34: 0x00D6 [0x4A] LocalPlayer looks at Yoyoroon (ID: 16994405/0x01035065)
 35: 0x00DF [0x02] IF !(ExtData[1]->WorkLocal[1] == 5*) GOTO 0x00FB
 36: 0x00E7 [0x45] LOAD_SCHEDULED_TASK: Load scheduler "yt01" with entities [LocalPlayer, LocalPlayer], work=[518*, 0*]
 37: 0x00F8 [0x01] GOTO 0x0128
 38: 0x00FB [0x02] IF !(ExtData[1]->WorkLocal[1] == 6*) GOTO 0x0117
 39: 0x0103 [0x45] LOAD_SCHEDULED_TASK: Load scheduler "yt01" with entities [LocalPlayer, LocalPlayer], work=[518*, 0*]
 40: 0x0114 [0x01] GOTO 0x0128
 41: 0x0117 [0x45] LOAD_SCHEDULED_TASK: Load scheduler "y001" with entities [LocalPlayer, LocalPlayer], work=[518*, 0*]

SUBROUTINE_0128:
 42: 0x0128 [0x1A] CALL_SUBROUTINE(address=0x4307)
 43: 0x012B [0x81] SET_ENTITY_BLINKING(blink_flag=0x00, entity=Yoyoroon (ID: 16994405/0x01035065))
 44: 0x0131 [0x7C] Yoyoroon (ID: 16994405/0x01035065)->Render.Flags2 |= 0x00
 45: 0x0137 [0x5B] LOAD_EXT_SCHEDULER: Load scheduler "tlk0" with entities [Yoyoroon (ID: 16994405/0x01035065), Yoyoroon (ID: 16994405/0x01035065)], work=842*
 46: 0x0146 [0x2B] Yoyoroon (ID: 16994405/0x01035065) [11812*]:
    → "Whooo yooo? Yooo have business with the boooss, yooo dooo?"
 47: 0x014D [0x23] WAIT_FOR_DIALOG_INTERACTION
 48: 0x014E [0x6E] LocalPlayer uses emote 7*
 49: 0x0155 [0x99] Wait for LocalPlayer animation to complete
 50: 0x015A [0x5B] LOAD_EXT_SCHEDULER: Load scheduler "tlk1" with entities [Yoyoroon (ID: 16994405/0x01035065), Yoyoroon (ID: 16994405/0x01035065)], work=842*
 51: 0x0169 [0x1C] WAIT(100* ticks)
 52: 0x016C [0x02] IF !(ExtData[1]->WorkLocal[0] == 1*) GOTO 0x017A
 53: 0x0174 [0x01] GOTO 0x10D1

SUBROUTINE_017A:
 54: 0x017A [0x27] REQ_SET(priority=0x10, entity_id=Yoyoroon (ID: 16994405/0x01035065), tag_num=0x11)
 55: 0x0181 [0x1C] WAIT(30* ticks)
 56: 0x0184 [0x02] IF !(ExtData[1]->WorkLocal[1] == 5*) GOTO 0x01AF
 57: 0x018C [0x52] END_LOAD_SCHEDULER: End scheduler "yt01" with entities [LocalPlayer, LocalPlayer], work=518*
 58: 0x019B [0x45] LOAD_SCHEDULED_TASK: Load scheduler "yt02" with entities [LocalPlayer, LocalPlayer], work=[518*, 0*]
 59: 0x01AC [0x01] GOTO 0x01FA
 60: 0x01AF [0x02] IF !(ExtData[1]->WorkLocal[1] == 6*) GOTO 0x01DA
 61: 0x01B7 [0x52] END_LOAD_SCHEDULER: End scheduler "yt01" with entities [LocalPlayer, LocalPlayer], work=518*
 62: 0x01C6 [0x45] LOAD_SCHEDULED_TASK: Load scheduler "yt02" with entities [LocalPlayer, LocalPlayer], work=[518*, 0*]
 63: 0x01D7 [0x01] GOTO 0x01FA
 64: 0x01DA [0x52] END_LOAD_SCHEDULER: End scheduler "y001" with entities [LocalPlayer, LocalPlayer], work=518*
 65: 0x01E9 [0x45] LOAD_SCHEDULED_TASK: Load scheduler "y002" with entities [LocalPlayer, LocalPlayer], work=[518*, 0*]

SUBROUTINE_01FA:
 66: 0x01FA [0x1C] WAIT(10* ticks)
 67: 0x01FD [0x4A] LocalPlayer looks at Yoyoroon (ID: 16994405/0x01035065)
 68: 0x0206 [0x2A] GET_REQ_LEVEL(level=16, entity_id=Yoyoroon (ID: 16994405/0x01035065))
 69: 0x020C [0x5B] LOAD_EXT_SCHEDULER: Load scheduler "tlb0" with entities [Yoyoroon (ID: 16994405/0x01035065), Yoyoroon (ID: 16994405/0x01035065)], work=843*
 70: 0x021B [0x1C] WAIT(40* ticks)
 71: 0x021E [0x2B] Yoyoroon (ID: 16994405/0x01035065) [11816*]:
    → "Boooss, boooss! Yoyoroon bring yooo goood custooomer! Yoyoroon goood wooorker, nooo?"
 72: 0x0225 [0x23] WAIT_FOR_DIALOG_INTERACTION
 73: 0x0226 [0x5B] LOAD_EXT_SCHEDULER: Load scheduler "tlb1" with entities [Yoyoroon (ID: 16994405/0x01035065), Yoyoroon (ID: 16994405/0x01035065)], work=843*
 74: 0x0235 [0x1A] CALL_SUBROUTINE(address=0x4328)
 75: 0x0238 [0x1C] WAIT(30* ticks)
 76: 0x023B [0x52] END_LOAD_SCHEDULER: End scheduler "yt02" with entities [LocalPlayer, LocalPlayer], work=518*
 77: 0x024A [0x52] END_LOAD_SCHEDULER: End scheduler "y002" with entities [LocalPlayer, LocalPlayer], work=518*
 78: 0x0259 [0x7B] LocalPlayer stops talking
 79: 0x025E [0x27] REQ_SET(priority=0x10, entity_id=Jayahan (ID: 16994404/0x01035064), tag_num=0x11)
 80: 0x0265 [0x1C] WAIT(10* ticks)
 81: 0x0268 [0x79] Jayahan (ID: 16994404/0x01035064) looks at LocalPlayer (Basic look)
 82: 0x0272 [0x27] REQ_SET(priority=0x10, entity_id=Jayahan (ID: 16994404/0x01035064), tag_num=0x12)
 83: 0x0279 [0x1C] WAIT(10* ticks)
 84: 0x027C [0x4A] Yoyoroon (ID: 16994405/0x01035065) looks at Jayahan (ID: 16994404/0x01035064)
 85: 0x0285 [0x45] LOAD_SCHEDULED_TASK: Load scheduler "y003" with entities [LocalPlayer, LocalPlayer], work=[518*, 0*]
 86: 0x0296 [0x1A] CALL_SUBROUTINE(address=0x4307)
 87: 0x0299 [0x4A] LocalPlayer looks at Jayahan (ID: 16994404/0x01035064)
 88: 0x02A2 [0x1C] WAIT(30* ticks)
 89: 0x02A5 [0x4A] Yoyoroon (ID: 16994405/0x01035065) looks at Jayahan (ID: 16994404/0x01035064)
 90: 0x02AE [0x1C] WAIT(30* ticks)
 91: 0x02B1 [0x4A] LocalPlayer looks at Jayahan (ID: 16994404/0x01035064)
 92: 0x02BA [0x1C] WAIT(45* ticks)
 93: 0x02BD [0x4A] Yoyoroon (ID: 16994405/0x01035065) looks at Jayahan (ID: 16994404/0x01035064)
 94: 0x02C6 [0x1C] WAIT(10* ticks)
 95: 0x02C9 [0x52] END_LOAD_SCHEDULER: End scheduler "y003" with entities [LocalPlayer, LocalPlayer], work=518*
 96: 0x02D8 [0x45] LOAD_SCHEDULED_TASK: Load scheduler "y004" with entities [LocalPlayer, LocalPlayer], work=[518*, 0*]
 97: 0x02E9 [0x1C] WAIT(10* ticks)
 98: 0x02EC [0xBA] SET_ENTITY_POSITION(entity_id=Yoyoroon (ID: 16994405/0x01035065), pos_x=-14.330*, pos_z=70.514*, pos_y=-5.999*, direction=254.9°*)
 99: 0x02F9 [0x2A] GET_REQ_LEVEL(level=16, entity_id=Jayahan (ID: 16994404/0x01035064))
100: 0x02FF [0x2B] Jayahan (ID: 16994404/0x01035064) [11817*]:
    → "Yes? I'm a busy man. Make it quick."
101: 0x0306 [0x4A] LocalPlayer looks at Jayahan (ID: 16994404/0x01035064)
102: 0x030F [0x4A] Yoyoroon (ID: 16994405/0x01035065) looks at Jayahan (ID: 16994404/0x01035064)
103: 0x0318 [0x4A] Tsetseroon (ID: 16994406/0x01035066) looks at Jayahan (ID: 16994404/0x01035064)
104: 0x0321 [0x6F] WAIT_FRAME_DELAY: Yield until WaitTime reaches zero
105: 0x0322 [0x76] CHECK_ENTITY_RENDER_FLAGS: Wait until LocalPlayer Render.Flags0 and Render.Flags3 conditions are met
106: 0x0327 [0x23] WAIT_FOR_DIALOG_INTERACTION
107: 0x0328 [0x02] IF !(ExtData[1]->WorkLocal[1] == 1*) GOTO 0x0353
108: 0x0330 [0x52] END_LOAD_SCHEDULER: End scheduler "y004" with entities [LocalPlayer, LocalPlayer], work=518*
109: 0x033F [0x45] LOAD_SCHEDULED_TASK: Load scheduler "y005" with entities [LocalPlayer, LocalPlayer], work=[518*, 0*]
110: 0x0350 [0x01] GOTO 0x0480
111: 0x0353 [0x02] IF !(ExtData[1]->WorkLocal[1] == 2*) GOTO 0x037E
112: 0x035B [0x52] END_LOAD_SCHEDULER: End scheduler "y004" with entities [LocalPlayer, LocalPlayer], work=518*
113: 0x036A [0x45] LOAD_SCHEDULED_TASK: Load scheduler "ym05" with entities [LocalPlayer, LocalPlayer], work=[518*, 0*]
114: 0x037B [0x01] GOTO 0x0480
115: 0x037E [0x02] IF !(ExtData[1]->WorkLocal[1] == 3*) GOTO 0x03A9
116: 0x0386 [0x52] END_LOAD_SCHEDULER: End scheduler "y004" with entities [LocalPlayer, LocalPlayer], work=518*
117: 0x0395 [0x45] LOAD_SCHEDULED_TASK: Load scheduler "yg05" with entities [LocalPlayer, LocalPlayer], work=[518*, 0*]
118: 0x03A6 [0x01] GOTO 0x0480
119: 0x03A9 [0x02] IF !(ExtData[1]->WorkLocal[1] == 4*) GOTO 0x03D4
120: 0x03B1 [0x52] END_LOAD_SCHEDULER: End scheduler "y004" with entities [LocalPlayer, LocalPlayer], work=518*
121: 0x03C0 [0x45] LOAD_SCHEDULED_TASK: Load scheduler "y005" with entities [LocalPlayer, LocalPlayer], work=[518*, 0*]
122: 0x03D1 [0x01] GOTO 0x0480
123: 0x03D4 [0x02] IF !(ExtData[1]->WorkLocal[1] == 5*) GOTO 0x03FF
124: 0x03DC [0x52] END_LOAD_SCHEDULER: End scheduler "y004" with entities [LocalPlayer, LocalPlayer], work=518*
125: 0x03EB [0x45] LOAD_SCHEDULED_TASK: Load scheduler "yt05" with entities [LocalPlayer, LocalPlayer], work=[518*, 0*]
126: 0x03FC [0x01] GOTO 0x0480
127: 0x03FF [0x02] IF !(ExtData[1]->WorkLocal[1] == 6*) GOTO 0x042A
128: 0x0407 [0x52] END_LOAD_SCHEDULER: End scheduler "y004" with entities [LocalPlayer, LocalPlayer], work=518*
129: 0x0416 [0x45] LOAD_SCHEDULED_TASK: Load scheduler "yt05" with entities [LocalPlayer, LocalPlayer], work=[518*, 0*]
130: 0x0427 [0x01] GOTO 0x0480
131: 0x042A [0x02] IF !(ExtData[1]->WorkLocal[1] == 7*) GOTO 0x0455
132: 0x0432 [0x52] END_LOAD_SCHEDULER: End scheduler "y004" with entities [LocalPlayer, LocalPlayer], work=518*
133: 0x0441 [0x45] LOAD_SCHEDULED_TASK: Load scheduler "ym05" with entities [LocalPlayer, LocalPlayer], work=[518*, 0*]
134: 0x0452 [0x01] GOTO 0x0480
135: 0x0455 [0x02] IF !(ExtData[1]->WorkLocal[1] == 8*) GOTO 0x0480
136: 0x045D [0x52] END_LOAD_SCHEDULER: End scheduler "y004" with entities [LocalPlayer, LocalPlayer], work=518*
137: 0x046C [0x45] LOAD_SCHEDULED_TASK: Load scheduler "yg05" with entities [LocalPlayer, LocalPlayer], work=[518*, 0*]
138: 0x047D [0x01] GOTO 0x0480

SUBROUTINE_0480:
139: 0x0480 [0x29] REQ_SET_WAIT(priority=0x10, entity_id=LocalPlayer, tag_num=0x2C)
140: 0x0487 [0x1C] WAIT(30* ticks)
141: 0x048A [0x66] LOAD_EXT_SCHEDULER_MAIN: Load scheduler "thk1" with entities [Jayahan (ID: 16994404/0x01035064), Jayahan (ID: 16994404/0x01035064)], work=0*
142: 0x0499 [0x03] Work_Zone[2] = 1249*
143: 0x049E [0x1C] WAIT(30* ticks)
144: 0x04A1 [0x2B] Jayahan (ID: 16994404/0x01035064) [11818*]:
    → "6...?"
145: 0x04A8 [0x23] WAIT_FOR_DIALOG_INTERACTION
146: 0x04A9 [0x66] LOAD_EXT_SCHEDULER_MAIN: Load scheduler "thk2" with entities [Jayahan (ID: 16994404/0x01035064), Jayahan (ID: 16994404/0x01035064)], work=0*
147: 0x04B8 [0x1C] WAIT(30* ticks)
148: 0x04BB [0x02] IF !(ExtData[1]->WorkLocal[1] == 1*) GOTO 0x04E6
149: 0x04C3 [0x52] END_LOAD_SCHEDULER: End scheduler "y005" with entities [LocalPlayer, LocalPlayer], work=518*
150: 0x04D2 [0x45] LOAD_SCHEDULED_TASK: Load scheduler "y006" with entities [LocalPlayer, LocalPlayer], work=[518*, 0*]
151: 0x04E3 [0x01] GOTO 0x0613
152: 0x04E6 [0x02] IF !(ExtData[1]->WorkLocal[1] == 2*) GOTO 0x0511
153: 0x04EE [0x52] END_LOAD_SCHEDULER: End scheduler "ym05" with entities [LocalPlayer, LocalPlayer], work=518*
154: 0x04FD [0x45] LOAD_SCHEDULED_TASK: Load scheduler "ym06" with entities [LocalPlayer, LocalPlayer], work=[518*, 0*]
155: 0x050E [0x01] GOTO 0x0613
156: 0x0511 [0x02] IF !(ExtData[1]->WorkLocal[1] == 3*) GOTO 0x053C
157: 0x0519 [0x52] END_LOAD_SCHEDULER: End scheduler "yg05" with entities [LocalPlayer, LocalPlayer], work=518*
158: 0x0528 [0x45] LOAD_SCHEDULED_TASK: Load scheduler "yg06" with entities [LocalPlayer, LocalPlayer], work=[518*, 0*]
159: 0x0539 [0x01] GOTO 0x0613
160: 0x053C [0x02] IF !(ExtData[1]->WorkLocal[1] == 4*) GOTO 0x0567
161: 0x0544 [0x52] END_LOAD_SCHEDULER: End scheduler "y005" with entities [LocalPlayer, LocalPlayer], work=518*
162: 0x0553 [0x45] LOAD_SCHEDULED_TASK: Load scheduler "y006" with entities [LocalPlayer, LocalPlayer], work=[518*, 0*]
163: 0x0564 [0x01] GOTO 0x0613
164: 0x0567 [0x02] IF !(ExtData[1]->WorkLocal[1] == 5*) GOTO 0x0592
165: 0x056F [0x52] END_LOAD_SCHEDULER: End scheduler "yt05" with entities [LocalPlayer, LocalPlayer], work=518*
166: 0x057E [0x45] LOAD_SCHEDULED_TASK: Load scheduler "yt06" with entities [LocalPlayer, LocalPlayer], work=[518*, 0*]
167: 0x058F [0x01] GOTO 0x0613
168: 0x0592 [0x02] IF !(ExtData[1]->WorkLocal[1] == 6*) GOTO 0x05BD
169: 0x059A [0x52] END_LOAD_SCHEDULER: End scheduler "yt05" with entities [LocalPlayer, LocalPlayer], work=518*
170: 0x05A9 [0x45] LOAD_SCHEDULED_TASK: Load scheduler "yt06" with entities [LocalPlayer, LocalPlayer], work=[518*, 0*]
171: 0x05BA [0x01] GOTO 0x0613
172: 0x05BD [0x02] IF !(ExtData[1]->WorkLocal[1] == 7*) GOTO 0x05E8
173: 0x05C5 [0x52] END_LOAD_SCHEDULER: End scheduler "ym05" with entities [LocalPlayer, LocalPlayer], work=518*
174: 0x05D4 [0x45] LOAD_SCHEDULED_TASK: Load scheduler "ym06" with entities [LocalPlayer, LocalPlayer], work=[518*, 0*]
175: 0x05E5 [0x01] GOTO 0x0613
176: 0x05E8 [0x02] IF !(ExtData[1]->WorkLocal[1] == 8*) GOTO 0x0613
177: 0x05F0 [0x52] END_LOAD_SCHEDULER: End scheduler "yg05" with entities [LocalPlayer, LocalPlayer], work=518*
178: 0x05FF [0x45] LOAD_SCHEDULED_TASK: Load scheduler "yg06" with entities [LocalPlayer, LocalPlayer], work=[518*, 0*]
179: 0x0610 [0x01] GOTO 0x0613

SUBROUTINE_0613:
180: 0x0613 [0x1C] WAIT(30* ticks)
181: 0x0616 [0x2B] Jayahan (ID: 16994404/0x01035064) [11819*]:
    → "I'm afraid I haven't the slightest idea what you're talking about. Now if you'll excuse me--"
182: 0x061D [0x1C] WAIT(120* ticks)
183: 0x0620 [0x23] WAIT_FOR_DIALOG_INTERACTION
184: 0x0621 [0x52] END_LOAD_SCHEDULER: End scheduler "y006" with entities [LocalPlayer, LocalPlayer], work=518*
185: 0x0630 [0x52] END_LOAD_SCHEDULER: End scheduler "yt06" with entities [LocalPlayer, LocalPlayer], work=518*
186: 0x063F [0x52] END_LOAD_SCHEDULER: End scheduler "yg06" with entities [LocalPlayer, LocalPlayer], work=518*
187: 0x064E [0x52] END_LOAD_SCHEDULER: End scheduler "ym06" with entities [LocalPlayer, LocalPlayer], work=518*
188: 0x065D [0x45] LOAD_SCHEDULED_TASK: Load scheduler "y007" with entities [LocalPlayer, LocalPlayer], work=[518*, 0*]
189: 0x066E [0x5B] LOAD_EXT_SCHEDULER: Load scheduler "tlk0" with entities [Yoyoroon (ID: 16994405/0x01035065), Yoyoroon (ID: 16994405/0x01035065)], work=842*
190: 0x067D [0x2B] Yoyoroon (ID: 16994405/0x01035065) [11820*]:
    → "But boooss, [he/she] goood custooomer, yes? [He/She] nooo work for blooo wizaroons."
191: 0x0684 [0x1C] WAIT(30* ticks)
192: 0x0687 [0x4A] Jayahan (ID: 16994404/0x01035064) looks at Yoyoroon (ID: 16994405/0x01035065)
193: 0x0690 [0x23] WAIT_FOR_DIALOG_INTERACTION
194: 0x0691 [0x2B] Yoyoroon (ID: 16994405/0x01035065) [11821*]:
    → "Yoyoroon's nooose never lies...well, almooost never. Yooo trust Yoyoroon, nooo? Then yooo trust [him/her]."
195: 0x0698 [0x23] WAIT_FOR_DIALOG_INTERACTION
196: 0x0699 [0x5B] LOAD_EXT_SCHEDULER: Load scheduler "tlk1" with entities [Yoyoroon (ID: 16994405/0x01035065), Yoyoroon (ID: 16994405/0x01035065)], work=842*
197: 0x06A8 [0x1C] WAIT(20* ticks)
198: 0x06AB [0x27] REQ_SET(priority=0x10, entity_id=Yoyoroon (ID: 16994405/0x01035065), tag_num=0x13)
199: 0x06B2 [0x02] IF !(ExtData[1]->WorkLocal[1] == 1*) GOTO 0x06DD
200: 0x06BA [0x52] END_LOAD_SCHEDULER: End scheduler "y007" with entities [LocalPlayer, LocalPlayer], work=518*
201: 0x06C9 [0x45] LOAD_SCHEDULED_TASK: Load scheduler "y008" with entities [LocalPlayer, LocalPlayer], work=[518*, 0*]
202: 0x06DA [0x01] GOTO 0x080A
203: 0x06DD [0x02] IF !(ExtData[1]->WorkLocal[1] == 2*) GOTO 0x0708
204: 0x06E5 [0x52] END_LOAD_SCHEDULER: End scheduler "y007" with entities [LocalPlayer, LocalPlayer], work=518*
205: 0x06F4 [0x45] LOAD_SCHEDULED_TASK: Load scheduler "ym08" with entities [LocalPlayer, LocalPlayer], work=[518*, 0*]
206: 0x0705 [0x01] GOTO 0x080A
207: 0x0708 [0x02] IF !(ExtData[1]->WorkLocal[1] == 3*) GOTO 0x0733
208: 0x0710 [0x52] END_LOAD_SCHEDULER: End scheduler "y007" with entities [LocalPlayer, LocalPlayer], work=518*
209: 0x071F [0x45] LOAD_SCHEDULED_TASK: Load scheduler "yg08" with entities [LocalPlayer, LocalPlayer], work=[518*, 0*]
210: 0x0730 [0x01] GOTO 0x080A
211: 0x0733 [0x02] IF !(ExtData[1]->WorkLocal[1] == 4*) GOTO 0x075E
212: 0x073B [0x52] END_LOAD_SCHEDULER: End scheduler "y007" with entities [LocalPlayer, LocalPlayer], work=518*
213: 0x074A [0x45] LOAD_SCHEDULED_TASK: Load scheduler "yg08" with entities [LocalPlayer, LocalPlayer], work=[518*, 0*]
214: 0x075B [0x01] GOTO 0x080A
215: 0x075E [0x02] IF !(ExtData[1]->WorkLocal[1] == 5*) GOTO 0x0789
216: 0x0766 [0x52] END_LOAD_SCHEDULER: End scheduler "y007" with entities [LocalPlayer, LocalPlayer], work=518*
217: 0x0775 [0x45] LOAD_SCHEDULED_TASK: Load scheduler "yt08" with entities [LocalPlayer, LocalPlayer], work=[518*, 0*]
218: 0x0786 [0x01] GOTO 0x080A
219: 0x0789 [0x02] IF !(ExtData[1]->WorkLocal[1] == 6*) GOTO 0x07B4
220: 0x0791 [0x52] END_LOAD_SCHEDULER: End scheduler "y007" with entities [LocalPlayer, LocalPlayer], work=518*
221: 0x07A0 [0x45] LOAD_SCHEDULED_TASK: Load scheduler "yt08" with entities [LocalPlayer, LocalPlayer], work=[518*, 0*]
222: 0x07B1 [0x01] GOTO 0x080A
223: 0x07B4 [0x02] IF !(ExtData[1]->WorkLocal[1] == 7*) GOTO 0x07DF
224: 0x07BC [0x52] END_LOAD_SCHEDULER: End scheduler "y007" with entities [LocalPlayer, LocalPlayer], work=518*
225: 0x07CB [0x45] LOAD_SCHEDULED_TASK: Load scheduler "ym08" with entities [LocalPlayer, LocalPlayer], work=[518*, 0*]
226: 0x07DC [0x01] GOTO 0x080A
227: 0x07DF [0x02] IF !(ExtData[1]->WorkLocal[1] == 8*) GOTO 0x080A
228: 0x07E7 [0x52] END_LOAD_SCHEDULER: End scheduler "y007" with entities [LocalPlayer, LocalPlayer], work=518*
229: 0x07F6 [0x45] LOAD_SCHEDULED_TASK: Load scheduler "yg08" with entities [LocalPlayer, LocalPlayer], work=[518*, 0*]
230: 0x0807 [0x01] GOTO 0x080A

SUBROUTINE_080A:
231: 0x080A [0x4A] Jayahan (ID: 16994404/0x01035064) looks at LocalPlayer
232: 0x0813 [0x6F] WAIT_FRAME_DELAY: Yield until WaitTime reaches zero
233: 0x0814 [0x76] CHECK_ENTITY_RENDER_FLAGS: Wait until Jayahan (ID: 16994404/0x01035064) Render.Flags0 and Render.Flags3 conditions are met
234: 0x0819 [0x6E] Jayahan (ID: 16994404/0x01035064) uses emote 6*
235: 0x0820 [0x99] Wait for Jayahan (ID: 16994404/0x01035064) animation to complete
236: 0x0825 [0x2B] Jayahan (ID: 16994404/0x01035064) [11822*]:
    → "I see. Forgive my ill manners. One in my line of work can never exercise enough caution."
237: 0x082C [0x23] WAIT_FOR_DIALOG_INTERACTION
238: 0x082D [0x2A] GET_REQ_LEVEL(level=16, entity_id=Yoyoroon (ID: 16994405/0x01035065))
239: 0x0833 [0x52] END_LOAD_SCHEDULER: End scheduler "y008" with entities [LocalPlayer, LocalPlayer], work=518*
240: 0x0842 [0x52] END_LOAD_SCHEDULER: End scheduler "yt08" with entities [LocalPlayer, LocalPlayer], work=518*
241: 0x0851 [0x52] END_LOAD_SCHEDULER: End scheduler "ym08" with entities [LocalPlayer, LocalPlayer], work=518*
242: 0x0860 [0x52] END_LOAD_SCHEDULER: End scheduler "yg08" with entities [LocalPlayer, LocalPlayer], work=518*
243: 0x086F [0x45] LOAD_SCHEDULED_TASK: Load scheduler "y009" with entities [LocalPlayer, LocalPlayer], work=[518*, 0*]
244: 0x0880 [0x66] LOAD_EXT_SCHEDULER_MAIN: Load scheduler "tlk0" with entities [Jayahan (ID: 16994404/0x01035064), Jayahan (ID: 16994404/0x01035064)], work=0*
245: 0x088F [0x2B] Jayahan (ID: 16994404/0x01035064) [11823*]:
    → "As for this $3 you seek, I fear I've not laid eyes on one for some time."
246: 0x0896 [0x23] WAIT_FOR_DIALOG_INTERACTION
247: 0x0897 [0x27] REQ_SET(priority=0x10, entity_id=Yoyoroon (ID: 16994405/0x01035065), tag_num=0x14)
248: 0x089E [0x02] IF !(ExtData[1]->WorkLocal[1] == 1*) GOTO 0x08DA
249: 0x08A6 [0x52] END_LOAD_SCHEDULER: End scheduler "y009" with entities [LocalPlayer, LocalPlayer], work=518*
250: 0x08B5 [0x45] LOAD_SCHEDULED_TASK: Load scheduler "ov40" with entities [LocalPlayer, LocalPlayer], work=[518*, 0*]
251: 0x08C6 [0x45] LOAD_SCHEDULED_TASK: Load scheduler "y010" with entities [LocalPlayer, LocalPlayer], work=[518*, 0*]
252: 0x08D7 [0x01] GOTO 0x0A7E
253: 0x08DA [0x02] IF !(ExtData[1]->WorkLocal[1] == 2*) GOTO 0x0916
254: 0x08E2 [0x52] END_LOAD_SCHEDULER: End scheduler "y009" with entities [LocalPlayer, LocalPlayer], work=518*
255: 0x08F1 [0x45] LOAD_SCHEDULED_TASK: Load scheduler "ov40" with entities [LocalPlayer, LocalPlayer], work=[518*, 0*]
256: 0x0902 [0x45] LOAD_SCHEDULED_TASK: Load scheduler "y010" with entities [LocalPlayer, LocalPlayer], work=[518*, 0*]
257: 0x0913 [0x01] GOTO 0x0A7E
258: 0x0916 [0x02] IF !(ExtData[1]->WorkLocal[1] == 3*) GOTO 0x0952
259: 0x091E [0x52] END_LOAD_SCHEDULER: End scheduler "y009" with entities [LocalPlayer, LocalPlayer], work=518*
260: 0x092D [0x45] LOAD_SCHEDULED_TASK: Load scheduler "ov40" with entities [LocalPlayer, LocalPlayer], work=[518*, 0*]
261: 0x093E [0x45] LOAD_SCHEDULED_TASK: Load scheduler "yg10" with entities [LocalPlayer, LocalPlayer], work=[518*, 0*]
262: 0x094F [0x01] GOTO 0x0A7E
263: 0x0952 [0x02] IF !(ExtData[1]->WorkLocal[1] == 4*) GOTO 0x098E
264: 0x095A [0x52] END_LOAD_SCHEDULER: End scheduler "y009" with entities [LocalPlayer, LocalPlayer], work=518*
265: 0x0969 [0x45] LOAD_SCHEDULED_TASK: Load scheduler "ov40" with entities [LocalPlayer, LocalPlayer], work=[518*, 0*]
266: 0x097A [0x45] LOAD_SCHEDULED_TASK: Load scheduler "y010" with entities [LocalPlayer, LocalPlayer], work=[518*, 0*]
267: 0x098B [0x01] GOTO 0x0A7E
268: 0x098E [0x02] IF !(ExtData[1]->WorkLocal[1] == 5*) GOTO 0x09CA
269: 0x0996 [0x52] END_LOAD_SCHEDULER: End scheduler "y009" with entities [LocalPlayer, LocalPlayer], work=518*
270: 0x09A5 [0x45] LOAD_SCHEDULED_TASK: Load scheduler "ov40" with entities [LocalPlayer, LocalPlayer], work=[518*, 0*]
271: 0x09B6 [0x45] LOAD_SCHEDULED_TASK: Load scheduler "yt10" with entities [LocalPlayer, LocalPlayer], work=[518*, 0*]
272: 0x09C7 [0x01] GOTO 0x0A7E
273: 0x09CA [0x02] IF !(ExtData[1]->WorkLocal[1] == 6*) GOTO 0x0A06
274: 0x09D2 [0x52] END_LOAD_SCHEDULER: End scheduler "y009" with entities [LocalPlayer, LocalPlayer], work=518*
275: 0x09E1 [0x45] LOAD_SCHEDULED_TASK: Load scheduler "ov40" with entities [LocalPlayer, LocalPlayer], work=[518*, 0*]
276: 0x09F2 [0x45] LOAD_SCHEDULED_TASK: Load scheduler "yt10" with entities [LocalPlayer, LocalPlayer], work=[518*, 0*]
277: 0x0A03 [0x01] GOTO 0x0A7E
278: 0x0A06 [0x02] IF !(ExtData[1]->WorkLocal[1] == 7*) GOTO 0x0A42
279: 0x0A0E [0x52] END_LOAD_SCHEDULER: End scheduler "y009" with entities [LocalPlayer, LocalPlayer], work=518*
280: 0x0A1D [0x45] LOAD_SCHEDULED_TASK: Load scheduler "ov40" with entities [LocalPlayer, LocalPlayer], work=[518*, 0*]
281: 0x0A2E [0x45] LOAD_SCHEDULED_TASK: Load scheduler "y010" with entities [LocalPlayer, LocalPlayer], work=[518*, 0*]
282: 0x0A3F [0x01] GOTO 0x0A7E
283: 0x0A42 [0x02] IF !(ExtData[1]->WorkLocal[1] == 8*) GOTO 0x0A7E
284: 0x0A4A [0x52] END_LOAD_SCHEDULER: End scheduler "y009" with entities [LocalPlayer, LocalPlayer], work=518*
285: 0x0A59 [0x45] LOAD_SCHEDULED_TASK: Load scheduler "ov40" with entities [LocalPlayer, LocalPlayer], work=[518*, 0*]
286: 0x0A6A [0x45] LOAD_SCHEDULED_TASK: Load scheduler "yg10" with entities [LocalPlayer, LocalPlayer], work=[518*, 0*]
287: 0x0A7B [0x01] GOTO 0x0A7E

SUBROUTINE_0A7E:
288: 0x0A7E [0x2B] Jayahan (ID: 16994404/0x01035064) [11824*]:
    → "According to our ancestral records, they were a common sight in Ephramad's heyday, a sort of good luck charm gifted to Kingdom soldiers before they departed for the battlefield."
289: 0x0A85 [0x23] WAIT_FOR_DIALOG_INTERACTION
290: 0x0A86 [0x2A] GET_REQ_LEVEL(level=16, entity_id=Yoyoroon (ID: 16994405/0x01035065))
291: 0x0A8C [0x4A] Yoyoroon (ID: 16994405/0x01035065) looks at Jayahan (ID: 16994404/0x01035064)
292: 0x0A95 [0x2B] Jayahan (ID: 16994404/0x01035064) [11825*]:
    → "Little good it did most of them, of course. Why, those left behind by their fallen bearers still sleep in Arrapago, no doubt, untouched save by the elements for all these years."
293: 0x0A9C [0x23] WAIT_FOR_DIALOG_INTERACTION
294: 0x0A9D [0x6F] WAIT_FRAME_DELAY: Yield until WaitTime reaches zero
295: 0x0A9E [0x76] CHECK_ENTITY_RENDER_FLAGS: Wait until Yoyoroon (ID: 16994405/0x01035065) Render.Flags0 and Render.Flags3 conditions are met
296: 0x0AA3 [0x27] REQ_SET(priority=0x10, entity_id=Yoyoroon (ID: 16994405/0x01035065), tag_num=0x15)
297: 0x0AAA [0x7B] Jayahan (ID: 16994404/0x01035064) stops talking
298: 0x0AAF [0x2B] Jayahan (ID: 16994404/0x01035064) [11826*]:
    → "A thorough search of the area would likely turn one up, I'd wager. Of course, the telltale emblems would scarce be recognizable..."
299: 0x0AB6 [0x23] WAIT_FOR_DIALOG_INTERACTION
300: 0x0AB7 [0x66] LOAD_EXT_SCHEDULER_MAIN: Load scheduler "ten0" with entities [Jayahan (ID: 16994404/0x01035064), Jayahan (ID: 16994404/0x01035064)], work=0*
301: 0x0AC6 [0x1C] WAIT(60* ticks)
302: 0x0AC9 [0x52] END_LOAD_SCHEDULER: End scheduler "y010" with entities [LocalPlayer, LocalPlayer], work=518*
303: 0x0AD8 [0x52] END_LOAD_SCHEDULER: End scheduler "yg10" with entities [LocalPlayer, LocalPlayer], work=518*
304: 0x0AE7 [0x52] END_LOAD_SCHEDULER: End scheduler "yt10" with entities [LocalPlayer, LocalPlayer], work=518*
305: 0x0AF6 [0x45] LOAD_SCHEDULED_TASK: Load scheduler "ov40" with entities [LocalPlayer, LocalPlayer], work=[518*, 0*]
306: 0x0B07 [0x45] LOAD_SCHEDULED_TASK: Load scheduler "y011" with entities [LocalPlayer, LocalPlayer], work=[518*, 0*]
307: 0x0B18 [0x1C] WAIT(60* ticks)
308: 0x0B1B [0x66] LOAD_EXT_SCHEDULER_MAIN: Load scheduler "thk1" with entities [Jayahan (ID: 16994404/0x01035064), Jayahan (ID: 16994404/0x01035064)], work=9*
309: 0x0B2A [0x1C] WAIT(60* ticks)
310: 0x0B2D [0x7C] Jayahan (ID: 16994404/0x01035064)->Render.Flags2 |= 0x00
311: 0x0B33 [0x2B] Jayahan (ID: 16994404/0x01035064) [11827*]:
    → "..."
312: 0x0B3A [0x23] WAIT_FOR_DIALOG_INTERACTION
313: 0x0B3B [0x7C] Jayahan (ID: 16994404/0x01035064)->Render.Flags2 |= 0x01
314: 0x0B41 [0x66] LOAD_EXT_SCHEDULER_MAIN: Load scheduler "thk2" with entities [Jayahan (ID: 16994404/0x01035064), Jayahan (ID: 16994404/0x01035064)], work=9*
315: 0x0B50 [0x1C] WAIT(40* ticks)
316: 0x0B53 [0x02] IF !(ExtData[1]->WorkLocal[1] == 1*) GOTO 0x0B7E
317: 0x0B5B [0x52] END_LOAD_SCHEDULER: End scheduler "y011" with entities [LocalPlayer, LocalPlayer], work=518*
318: 0x0B6A [0x45] LOAD_SCHEDULED_TASK: Load scheduler "y012" with entities [LocalPlayer, LocalPlayer], work=[518*, 0*]
319: 0x0B7B [0x01] GOTO 0x0CAB
320: 0x0B7E [0x02] IF !(ExtData[1]->WorkLocal[1] == 2*) GOTO 0x0BA9
321: 0x0B86 [0x52] END_LOAD_SCHEDULER: End scheduler "y011" with entities [LocalPlayer, LocalPlayer], work=518*
322: 0x0B95 [0x45] LOAD_SCHEDULED_TASK: Load scheduler "ym12" with entities [LocalPlayer, LocalPlayer], work=[518*, 0*]
323: 0x0BA6 [0x01] GOTO 0x0CAB
324: 0x0BA9 [0x02] IF !(ExtData[1]->WorkLocal[1] == 3*) GOTO 0x0BD4
325: 0x0BB1 [0x52] END_LOAD_SCHEDULER: End scheduler "y011" with entities [LocalPlayer, LocalPlayer], work=518*
326: 0x0BC0 [0x45] LOAD_SCHEDULED_TASK: Load scheduler "y012" with entities [LocalPlayer, LocalPlayer], work=[518*, 0*]
327: 0x0BD1 [0x01] GOTO 0x0CAB
328: 0x0BD4 [0x02] IF !(ExtData[1]->WorkLocal[1] == 4*) GOTO 0x0BFF
329: 0x0BDC [0x52] END_LOAD_SCHEDULER: End scheduler "y011" with entities [LocalPlayer, LocalPlayer], work=518*
330: 0x0BEB [0x45] LOAD_SCHEDULED_TASK: Load scheduler "y012" with entities [LocalPlayer, LocalPlayer], work=[518*, 0*]
331: 0x0BFC [0x01] GOTO 0x0CAB
332: 0x0BFF [0x02] IF !(ExtData[1]->WorkLocal[1] == 5*) GOTO 0x0C2A
333: 0x0C07 [0x52] END_LOAD_SCHEDULER: End scheduler "y011" with entities [LocalPlayer, LocalPlayer], work=518*
334: 0x0C16 [0x45] LOAD_SCHEDULED_TASK: Load scheduler "yt12" with entities [LocalPlayer, LocalPlayer], work=[518*, 0*]
335: 0x0C27 [0x01] GOTO 0x0CAB
336: 0x0C2A [0x02] IF !(ExtData[1]->WorkLocal[1] == 6*) GOTO 0x0C55
337: 0x0C32 [0x52] END_LOAD_SCHEDULER: End scheduler "y011" with entities [LocalPlayer, LocalPlayer], work=518*
338: 0x0C41 [0x45] LOAD_SCHEDULED_TASK: Load scheduler "yt12" with entities [LocalPlayer, LocalPlayer], work=[518*, 0*]
339: 0x0C52 [0x01] GOTO 0x0CAB
340: 0x0C55 [0x02] IF !(ExtData[1]->WorkLocal[1] == 7*) GOTO 0x0C80
341: 0x0C5D [0x52] END_LOAD_SCHEDULER: End scheduler "y011" with entities [LocalPlayer, LocalPlayer], work=518*
342: 0x0C6C [0x45] LOAD_SCHEDULED_TASK: Load scheduler "ym12" with entities [LocalPlayer, LocalPlayer], work=[518*, 0*]
343: 0x0C7D [0x01] GOTO 0x0CAB
344: 0x0C80 [0x02] IF !(ExtData[1]->WorkLocal[1] == 8*) GOTO 0x0CAB
345: 0x0C88 [0x52] END_LOAD_SCHEDULER: End scheduler "y011" with entities [LocalPlayer, LocalPlayer], work=518*
346: 0x0C97 [0x45] LOAD_SCHEDULED_TASK: Load scheduler "y012" with entities [LocalPlayer, LocalPlayer], work=[518*, 0*]
347: 0x0CA8 [0x01] GOTO 0x0CAB

SUBROUTINE_0CAB:
348: 0x0CAB [0x1C] WAIT(40* ticks)
349: 0x0CAE [0x27] REQ_SET(priority=0x10, entity_id=Tsetseroon (ID: 16994406/0x01035066), tag_num=0x11)
350: 0x0CB5 [0x66] LOAD_EXT_SCHEDULER_MAIN: Load scheduler "tlk0" with entities [Jayahan (ID: 16994404/0x01035064), Jayahan (ID: 16994404/0x01035064)], work=9*
351: 0x0CC4 [0x1C] WAIT(30* ticks)
352: 0x0CC7 [0x03] Work_Zone[3] = 2861*
353: 0x0CCC [0x2B] Jayahan (ID: 16994404/0x01035064) [11828*]:
    → "Though it gives me pause, I have learned to trust my partner's nose. If you acquire such a $1, you may entrust its restoration to me."
354: 0x0CD3 [0x23] WAIT_FOR_DIALOG_INTERACTION
355: 0x0CD4 [0x2B] Jayahan (ID: 16994404/0x01035064) [11829*]:
    → "Mind you, some may be so badly deteriorated as to make even the attempt impossible."
356: 0x0CDB [0x23] WAIT_FOR_DIALOG_INTERACTION
357: 0x0CDC [0x66] LOAD_EXT_SCHEDULER_MAIN: Load scheduler "tlk1" with entities [Jayahan (ID: 16994404/0x01035064), Jayahan (ID: 16994404/0x01035064)], work=9*
358: 0x0CEB [0x29] REQ_SET_WAIT(priority=0x10, entity_id=LocalPlayer, tag_num=0x2C)
359: 0x0CF2 [0x2A] GET_REQ_LEVEL(level=16, entity_id=Yoyoroon (ID: 16994405/0x01035065))
360: 0x0CF8 [0xBA] SET_ENTITY_POSITION(entity_id=Yoyoroon (ID: 16994405/0x01035065), pos_x=-5.300*, pos_z=67.808*, pos_y=-6.000*, direction=2.1°*)
361: 0x0D05 [0xBA] SET_ENTITY_POSITION(entity_id=Tsetseroon (ID: 16994406/0x01035066), pos_x=-5.497*, pos_z=66.252*, pos_y=-5.999*, direction=2.1°*)
362: 0x0D12 [0x4A] Yoyoroon (ID: 16994405/0x01035065) looks at Tsetseroon (ID: 16994406/0x01035066)
363: 0x0D1B [0x4A] Tsetseroon (ID: 16994406/0x01035066) looks at Yoyoroon (ID: 16994405/0x01035065)
364: 0x0D24 [0x5B] LOAD_EXT_SCHEDULER: Load scheduler "tlk0" with entities [Yoyoroon (ID: 16994405/0x01035065), Yoyoroon (ID: 16994405/0x01035065)], work=842*
365: 0x0D33 [0x1C] WAIT(20* ticks)
366: 0x0D36 [0x6E] Jayahan (ID: 16994404/0x01035064) uses emote 6*
367: 0x0D3D [0x99] Wait for Jayahan (ID: 16994404/0x01035064) animation to complete
368: 0x0D42 [0x2B] Jayahan (ID: 16994404/0x01035064) [11830*]:
    → "I ask for no fee. The chance to restore a piece of our history--even a simple trinket--to its former glory... This is payment enough for me."
369: 0x0D49 [0x23] WAIT_FOR_DIALOG_INTERACTION
370: 0x0D4A [0x52] END_LOAD_SCHEDULER: End scheduler "y012" with entities [LocalPlayer, LocalPlayer], work=518*
371: 0x0D59 [0x52] END_LOAD_SCHEDULER: End scheduler "yt12" with entities [LocalPlayer, LocalPlayer], work=518*
372: 0x0D68 [0x52] END_LOAD_SCHEDULER: End scheduler "ym12" with entities [LocalPlayer, LocalPlayer], work=518*
373: 0x0D77 [0x45] LOAD_SCHEDULED_TASK: Load scheduler "y013" with entities [LocalPlayer, LocalPlayer], work=[518*, 0*]
374: 0x0D88 [0x2B] Jayahan (ID: 16994404/0x01035064) [11831*]:
    → "Ah, but perhaps..."
375: 0x0D8F [0x7B] LocalPlayer stops talking
376: 0x0D94 [0x1C] WAIT(20* ticks)
377: 0x0D97 [0xBA] SET_ENTITY_POSITION(entity_id=LocalPlayer, pos_x=-16.694*, pos_z=67.062*, pos_y=-5.999*, direction=316.4°*)
378: 0x0DA4 [0x1C] WAIT(10* ticks)
379: 0x0DA7 [0x23] WAIT_FOR_DIALOG_INTERACTION
380: 0x0DA8 [0x59] UPDATE_ENTITY_DATA: Set Jayahan (ID: 16994404/0x01035064) turn speed = 70*
381: 0x0DB0 [0x4A] Jayahan (ID: 16994404/0x01035064) looks at Yoyoroon (ID: 16994405/0x01035065)
382: 0x0DB9 [0x52] END_LOAD_SCHEDULER: End scheduler "y013" with entities [LocalPlayer, LocalPlayer], work=518*
383: 0x0DC8 [0x45] LOAD_SCHEDULED_TASK: Load scheduler "ov30" with entities [LocalPlayer, LocalPlayer], work=[518*, 0*]
384: 0x0DD9 [0x45] LOAD_SCHEDULED_TASK: Load scheduler "y014" with entities [LocalPlayer, LocalPlayer], work=[518*, 0*]
385: 0x0DEA [0x5B] LOAD_EXT_SCHEDULER: Load scheduler "wht0" with entities [Tsetseroon (ID: 16994406/0x01035066), Tsetseroon (ID: 16994406/0x01035066)], work=881*
386: 0x0DF9 [0x1C] WAIT(30* ticks)
387: 0x0DFC [0x4A] LocalPlayer looks at Tsetseroon (ID: 16994406/0x01035066)
388: 0x0E05 [0x6F] WAIT_FRAME_DELAY: Yield until WaitTime reaches zero
389: 0x0E06 [0x76] CHECK_ENTITY_RENDER_FLAGS: Wait until Jayahan (ID: 16994404/0x01035064) Render.Flags0 and Render.Flags3 conditions are met
390: 0x0E0B [0x1C] WAIT(140* ticks)
391: 0x0E0E [0x02] IF !(ExtData[1]->WorkLocal[1] == 1*) GOTO 0x0E4A
392: 0x0E16 [0x52] END_LOAD_SCHEDULER: End scheduler "y014" with entities [LocalPlayer, LocalPlayer], work=518*
393: 0x0E25 [0x45] LOAD_SCHEDULED_TASK: Load scheduler "ov30" with entities [LocalPlayer, LocalPlayer], work=[518*, 0*]
394: 0x0E36 [0x45] LOAD_SCHEDULED_TASK: Load scheduler "y015" with entities [LocalPlayer, LocalPlayer], work=[518*, 0*]
395: 0x0E47 [0x01] GOTO 0x0FEE
396: 0x0E4A [0x02] IF !(ExtData[1]->WorkLocal[1] == 2*) GOTO 0x0E86
397: 0x0E52 [0x52] END_LOAD_SCHEDULER: End scheduler "y014" with entities [LocalPlayer, LocalPlayer], work=518*
398: 0x0E61 [0x45] LOAD_SCHEDULED_TASK: Load scheduler "ov30" with entities [LocalPlayer, LocalPlayer], work=[518*, 0*]
399: 0x0E72 [0x45] LOAD_SCHEDULED_TASK: Load scheduler "yt15" with entities [LocalPlayer, LocalPlayer], work=[518*, 0*]
400: 0x0E83 [0x01] GOTO 0x0FEE
401: 0x0E86 [0x02] IF !(ExtData[1]->WorkLocal[1] == 3*) GOTO 0x0EC2
402: 0x0E8E [0x52] END_LOAD_SCHEDULER: End scheduler "y014" with entities [LocalPlayer, LocalPlayer], work=518*
403: 0x0E9D [0x45] LOAD_SCHEDULED_TASK: Load scheduler "ov30" with entities [LocalPlayer, LocalPlayer], work=[518*, 0*]
404: 0x0EAE [0x45] LOAD_SCHEDULED_TASK: Load scheduler "y015" with entities [LocalPlayer, LocalPlayer], work=[518*, 0*]
405: 0x0EBF [0x01] GOTO 0x0FEE
406: 0x0EC2 [0x02] IF !(ExtData[1]->WorkLocal[1] == 4*) GOTO 0x0EFE
407: 0x0ECA [0x52] END_LOAD_SCHEDULER: End scheduler "y014" with entities [LocalPlayer, LocalPlayer], work=518*
408: 0x0ED9 [0x45] LOAD_SCHEDULED_TASK: Load scheduler "ov30" with entities [LocalPlayer, LocalPlayer], work=[518*, 0*]
409: 0x0EEA [0x45] LOAD_SCHEDULED_TASK: Load scheduler "y015" with entities [LocalPlayer, LocalPlayer], work=[518*, 0*]
410: 0x0EFB [0x01] GOTO 0x0FEE
411: 0x0EFE [0x02] IF !(ExtData[1]->WorkLocal[1] == 5*) GOTO 0x0F3A
412: 0x0F06 [0x52] END_LOAD_SCHEDULER: End scheduler "y014" with entities [LocalPlayer, LocalPlayer], work=518*
413: 0x0F15 [0x45] LOAD_SCHEDULED_TASK: Load scheduler "ov30" with entities [LocalPlayer, LocalPlayer], work=[518*, 0*]
414: 0x0F26 [0x45] LOAD_SCHEDULED_TASK: Load scheduler "yt15" with entities [LocalPlayer, LocalPlayer], work=[518*, 0*]
415: 0x0F37 [0x01] GOTO 0x0FEE
416: 0x0F3A [0x02] IF !(ExtData[1]->WorkLocal[1] == 6*) GOTO 0x0F76
417: 0x0F42 [0x52] END_LOAD_SCHEDULER: End scheduler "y014" with entities [LocalPlayer, LocalPlayer], work=518*
418: 0x0F51 [0x45] LOAD_SCHEDULED_TASK: Load scheduler "ov30" with entities [LocalPlayer, LocalPlayer], work=[518*, 0*]
419: 0x0F62 [0x45] LOAD_SCHEDULED_TASK: Load scheduler "yt15" with entities [LocalPlayer, LocalPlayer], work=[518*, 0*]
420: 0x0F73 [0x01] GOTO 0x0FEE
421: 0x0F76 [0x02] IF !(ExtData[1]->WorkLocal[1] == 7*) GOTO 0x0FB2
422: 0x0F7E [0x52] END_LOAD_SCHEDULER: End scheduler "y014" with entities [LocalPlayer, LocalPlayer], work=518*
423: 0x0F8D [0x45] LOAD_SCHEDULED_TASK: Load scheduler "ov30" with entities [LocalPlayer, LocalPlayer], work=[518*, 0*]
424: 0x0F9E [0x45] LOAD_SCHEDULED_TASK: Load scheduler "yt15" with entities [LocalPlayer, LocalPlayer], work=[518*, 0*]
425: 0x0FAF [0x01] GOTO 0x0FEE
426: 0x0FB2 [0x02] IF !(ExtData[1]->WorkLocal[1] == 8*) GOTO 0x0FEE
427: 0x0FBA [0x52] END_LOAD_SCHEDULER: End scheduler "y014" with entities [LocalPlayer, LocalPlayer], work=518*
428: 0x0FC9 [0x45] LOAD_SCHEDULED_TASK: Load scheduler "ov30" with entities [LocalPlayer, LocalPlayer], work=[518*, 0*]
429: 0x0FDA [0x45] LOAD_SCHEDULED_TASK: Load scheduler "y015" with entities [LocalPlayer, LocalPlayer], work=[518*, 0*]
430: 0x0FEB [0x01] GOTO 0x0FEE

SUBROUTINE_0FEE:
431: 0x0FEE [0x1C] WAIT(30* ticks)
432: 0x0FF1 [0x4A] Jayahan (ID: 16994404/0x01035064) looks at LocalPlayer
433: 0x0FFA [0x1C] WAIT(30* ticks)
434: 0x0FFD [0x4A] LocalPlayer looks at Jayahan (ID: 16994404/0x01035064)
435: 0x1006 [0x1C] WAIT(30* ticks)
436: 0x1009 [0x66] LOAD_EXT_SCHEDULER_MAIN: Load scheduler "tlk0" with entities [Jayahan (ID: 16994404/0x01035064), Jayahan (ID: 16994404/0x01035064)], work=9*
437: 0x1018 [0x2B] Jayahan (ID: 16994404/0x01035064) [11832*]:
    → "Yoyoroon has a fondness for sweets, you see. Back in my traveling days, I would bring him delicacies from across the land, but these days my work affords me little opportunity to leave the shop."
438: 0x101F [0x23] WAIT_FOR_DIALOG_INTERACTION
439: 0x1020 [0x2B] Jayahan (ID: 16994404/0x01035064) [11833*]:
    → "Along with the talisman, perhaps you could bring him a treat from his favorite teahouse in Al Zahbi? It'd be sure to put a smile on his face and a spring in his step."
440: 0x1027 [0x23] WAIT_FOR_DIALOG_INTERACTION
441: 0x1028 [0x66] LOAD_EXT_SCHEDULER_MAIN: Load scheduler "tlk1" with entities [Jayahan (ID: 16994404/0x01035064), Jayahan (ID: 16994404/0x01035064)], work=9*
442: 0x1037 [0x1C] WAIT(30* ticks)
443: 0x103A [0x52] END_LOAD_SCHEDULER: End scheduler "y015" with entities [LocalPlayer, LocalPlayer], work=518*
444: 0x1049 [0x52] END_LOAD_SCHEDULER: End scheduler "yt15" with entities [LocalPlayer, LocalPlayer], work=518*
445: 0x1058 [0x45] LOAD_SCHEDULED_TASK: Load scheduler "ov40" with entities [LocalPlayer, LocalPlayer], work=[518*, 0*]
446: 0x1069 [0x45] LOAD_SCHEDULED_TASK: Load scheduler "y016" with entities [LocalPlayer, LocalPlayer], work=[518*, 0*]
447: 0x107A [0x1C] WAIT(10* ticks)
448: 0x107D [0x2B] Jayahan (ID: 16994404/0x01035064) [11834*]:
    → "Thank you, friend. Be safe in your travels."
449: 0x1084 [0x6E] Jayahan (ID: 16994404/0x01035064) uses emote 1*
450: 0x108B [0x99] Wait for Jayahan (ID: 16994404/0x01035064) animation to complete
451: 0x1090 [0x1C] WAIT(180* ticks)
452: 0x1093 [0x1A] CALL_SUBROUTINE(address=0x4328)
453: 0x1096 [0x1C] WAIT(30* ticks)
454: 0x1099 [0x52] END_LOAD_SCHEDULER: End scheduler "y016" with entities [LocalPlayer, LocalPlayer], work=518*
455: 0x10A8 [0x45] LOAD_SCHEDULED_TASK: Load scheduler "0blr" with entities [LocalPlayer, LocalPlayer], work=[518*, 0*]
456: 0x10B9 [0x1C] WAIT(5* ticks)
457: 0x10BC [0x46] CAMERA_CONTROL: Restore default settings
458: 0x10BE [0x45] LOAD_SCHEDULED_TASK: Load scheduler "fdi2" with entities [LocalPlayer, LocalPlayer], work=[200*, 0*]
459: 0x10CF [0x21] END_EVENT
460: 0x10D0 [0x00] END_REQSTACK()

SUBROUTINE_10D1:
461: 0x10D1 [0x52] END_LOAD_SCHEDULER: End scheduler "y001" with entities [LocalPlayer, LocalPlayer], work=518*
462: 0x10E0 [0x45] LOAD_SCHEDULED_TASK: Load scheduler "x000" with entities [LocalPlayer, LocalPlayer], work=[518*, 0*]
463: 0x10F1 [0x5B] LOAD_EXT_SCHEDULER: Load scheduler "pnt0" with entities [Yoyoroon (ID: 16994405/0x01035065), Yoyoroon (ID: 16994405/0x01035065)], work=843*
464: 0x1100 [0x1C] WAIT(20* ticks)
465: 0x1103 [0x2B] Yoyoroon (ID: 16994405/0x01035065) [11813*]:
    → "Wait a minooote... Yooo a blooo wizaroon, aren't yooo!?"
466: 0x110A [0x1C] WAIT(90* ticks)
467: 0x110D [0x5B] LOAD_EXT_SCHEDULER: Load scheduler "pnt1" with entities [Yoyoroon (ID: 16994405/0x01035065), Yoyoroon (ID: 16994405/0x01035065)], work=843*
468: 0x111C [0x1C] WAIT(60* ticks)
469: 0x111F [0x23] WAIT_FOR_DIALOG_INTERACTION
470: 0x1120 [0x02] IF !(ExtData[1]->WorkLocal[1] == 5*) GOTO 0x114B
471: 0x1128 [0x52] END_LOAD_SCHEDULER: End scheduler "x000" with entities [LocalPlayer, LocalPlayer], work=518*
472: 0x1137 [0x45] LOAD_SCHEDULED_TASK: Load scheduler "xt01" with entities [LocalPlayer, LocalPlayer], work=[518*, 0*]
473: 0x1148 [0x01] GOTO 0x11C1
474: 0x114B [0x02] IF !(ExtData[1]->WorkLocal[1] == 6*) GOTO 0x1176
475: 0x1153 [0x52] END_LOAD_SCHEDULER: End scheduler "x000" with entities [LocalPlayer, LocalPlayer], work=518*
476: 0x1162 [0x45] LOAD_SCHEDULED_TASK: Load scheduler "xt01" with entities [LocalPlayer, LocalPlayer], work=[518*, 0*]
477: 0x1173 [0x01] GOTO 0x11C1
478: 0x1176 [0x02] IF !(ExtData[1]->WorkLocal[1] == 8*) GOTO 0x11A1
479: 0x117E [0x52] END_LOAD_SCHEDULER: End scheduler "x003" with entities [LocalPlayer, LocalPlayer], work=518*
480: 0x118D [0x45] LOAD_SCHEDULED_TASK: Load scheduler "xg01" with entities [LocalPlayer, LocalPlayer], work=[518*, 0*]
481: 0x119E [0x01] GOTO 0x11C1
482: 0x11A1 [0x52] END_LOAD_SCHEDULER: End scheduler "x000" with entities [LocalPlayer, LocalPlayer], work=518*
483: 0x11B0 [0x45] LOAD_SCHEDULED_TASK: Load scheduler "x001" with entities [LocalPlayer, LocalPlayer], work=[518*, 0*]

SUBROUTINE_11C1:
484: 0x11C1 [0x5B] LOAD_EXT_SCHEDULER: Load scheduler "cry0" with entities [Yoyoroon (ID: 16994405/0x01035065), Yoyoroon (ID: 16994405/0x01035065)], work=842*
485: 0x11D0 [0x2B] Yoyoroon (ID: 16994405/0x01035065) [11814*]:
    → "Blooo wizaroon always roood to boooss. Even roooder tooo pooor Yoyoroon..."
486: 0x11D7 [0x1C] WAIT(80* ticks)
487: 0x11DA [0x23] WAIT_FOR_DIALOG_INTERACTION
488: 0x11DB [0x5B] LOAD_EXT_SCHEDULER: Load scheduler "cry1" with entities [Yoyoroon (ID: 16994405/0x01035065), Yoyoroon (ID: 16994405/0x01035065)], work=842*
489: 0x11EA [0x1C] WAIT(40* ticks)
490: 0x11ED [0x5B] LOAD_EXT_SCHEDULER: Load scheduler "ang0" with entities [Yoyoroon (ID: 16994405/0x01035065), Yoyoroon (ID: 16994405/0x01035065)], work=843*
491: 0x11FC [0x2B] Yoyoroon (ID: 16994405/0x01035065) [11815*]:
    → "Boooss busy with busy business. Blooo wizaroon gooo bye-bye nooow! Solongaroonroon!"
492: 0x1203 [0x1C] WAIT(160* ticks)
493: 0x1206 [0x23] WAIT_FOR_DIALOG_INTERACTION
494: 0x1207 [0x1A] CALL_SUBROUTINE(address=0x4328)
495: 0x120A [0x1C] WAIT(30* ticks)
496: 0x120D [0x52] END_LOAD_SCHEDULER: End scheduler "x001" with entities [LocalPlayer, LocalPlayer], work=518*
497: 0x121C [0x52] END_LOAD_SCHEDULER: End scheduler "xg01" with entities [LocalPlayer, LocalPlayer], work=518*
498: 0x122B [0x52] END_LOAD_SCHEDULER: End scheduler "xt01" with entities [LocalPlayer, LocalPlayer], work=518*
499: 0x123A [0x45] LOAD_SCHEDULED_TASK: Load scheduler "0blr" with entities [LocalPlayer, LocalPlayer], work=[518*, 0*]
500: 0x124B [0x1C] WAIT(5* ticks)
501: 0x124E [0x46] CAMERA_CONTROL: Restore default settings
502: 0x1250 [0x45] LOAD_SCHEDULED_TASK: Load scheduler "fdi2" with entities [LocalPlayer, LocalPlayer], work=[200*, 0*]
503: 0x1261 [0x02] IF !(ExtData[1]->WorkLocal[0] == 1*) GOTO 0x1271
504: 0x1269 [0x03] Work_Zone[1] = 99*
505: 0x126E [0x01] GOTO 0x1271

SUBROUTINE_1271:
506: 0x1271 [0x21] END_EVENT
507: 0x1272 [0x00] END_REQSTACK()
```

#### Data or dead code:

```
# Dead code (unreachable instructions):
     0x0177 [0x01] GOTO 0x017A
```

### Event 321

#### Metadata

| Field        | Value      |
|--------------|------------|
| Entrypoint   | 0x1273     |
| Data Size    | 2339 bytes |
| Instructions | 267        |

```
      00 01 02 03 04 05 06 07  08 09 0A 0B 0C 0D 0E 0F
      -- -- -- -- -- -- -- --  -- -- -- -- -- -- -- --
1270:          42 1A 28 43 46  01 38 00 80 1C 01 80 4E     B.(CF.8.....N
1280: 00 F0 FF FF 7F 2F 00 63  50 03 01 4E 00 63 50 03  ...../.cP..N.cP.
1290: 01 79 00 F0 FF FF 7F F0  FF FF 7F 27 10 65 50 03  .y.........'.eP.
12A0: 01 04 27 10 66 50 03 01  04 27 10 64 50 03 01 04  ..'.fP...'.dP...
12B0: BA F0 FF FF 7F 02 80 03  80 04 80 05 80 BA 65 50  ..............eP
12C0: 03 01 06 80 07 80 04 80  08 80 BA 66 50 03 01 09  ...........fP...
12D0: 80 0A 80 0B 80 0C 80 BA  64 50 03 01 0D 80 0E 80  ........dP......
12E0: 04 80 0F 80 BA 63 50 03  01 12 80 12 80 12 80 12  .....cP.........
12F0: 80 92 01 65 50 03 01 92  01 66 50 03 01 92 01 64  ...eP....fP....d
1300: 50 03 01 92 01 63 50 03  01 94 01 F0 FF FF 7F 94  P....cP.........
1310: 01 65 50 03 01 94 01 66  50 03 01 94 01 64 50 03  .eP....fP....dP.
1320: 01 94 01 63 50 03 01 80  65 50 03 01 80 66 50 03  ...cP...eP...fP.
1330: 01 80 64 50 03 01 03 00  00 06 10 29 10 F0 FF FF  ..dP.......)....
1340: 7F 15 03 01 00 02 10 1C  10 80 27 10 64 50 03 01  ..........'.dP..
1350: 10 27 10 66 50 03 01 10  4A F0 FF FF 7F 65 50 03  .'.fP...J....eP.
1360: 01 02 00 00 01 80 80 A3  15 45 11 80 F0 FF FF 7F  .........E......
1370: F0 FF FF 7F 78 30 30 30  12 80 1A 07 43 2B 65 50  ....x000....C+eP
1380: 03 01 4E 80 1C 1B 80 23  52 11 80 F0 FF FF 7F F0  ..N....#R.......
1390: FF FF 7F 78 30 30 30 45  11 80 F0 FF FF 7F F0 FF  ...x000E........
13A0: FF 7F 67 30 30 30 12 80  27 10 65 50 03 01 1B 1C  ..g000..'.eP....
13B0: 18 80 4A F0 FF FF 7F 65  50 03 01 1C 32 80 4A F0  ..J....eP...2.J.
13C0: FF FF 7F 65 50 03 01 1C  2C 80 52 11 80 F0 FF FF  ...eP...,.R.....
13D0: 7F F0 FF FF 7F 67 30 30  30 45 11 80 F0 FF FF 7F  .....g000E......
13E0: F0 FF FF 7F 67 30 30 31  12 80 2A 10 65 50 03 01  ....g001..*.eP..
13F0: 5B 4F 80 65 50 03 01 65  50 03 01 73 68 61 30 53  [O.eP..eP..sha0S
1400: 65 50 03 01 65 50 03 01  73 68 61 30 1C 18 80 52  eP..eP..sha0...R
1410: 11 80 F0 FF FF 7F F0 FF  FF 7F 67 30 30 31 45 11  ..........g001E.
1420: 80 F0 FF FF 7F F0 FF FF  7F 67 30 30 32 12 80 1C  .........g002...
1430: 1B 80 6E F0 FF FF 7F 50  80 99 F0 FF FF 7F 1C 45  ..n....P.......E
1440: 80 52 11 80 F0 FF FF 7F  F0 FF FF 7F 67 30 30 32  .R..........g002
1450: 45 11 80 F0 FF FF 7F F0  FF FF 7F 67 30 30 33 12  E..........g003.
1460: 80 1C 32 80 5B 4F 80 65  50 03 01 65 50 03 01 73  ..2.[O.eP..eP..s
1470: 68 61 31 53 65 50 03 01  65 50 03 01 73 68 61 31  ha1SeP..eP..sha1
1480: 52 11 80 F0 FF FF 7F F0  FF FF 7F 67 30 30 33 45  R..........g003E
1490: 11 80 F0 FF FF 7F F0 FF  FF 7F 6F 76 34 30 12 80  ..........ov40..
14A0: 45 11 80 F0 FF FF 7F F0  FF FF 7F 67 30 30 34 12  E..........g004.
14B0: 80 1C 1B 80 2B 65 50 03  01 51 80 1C 32 80 23 52  ....+eP..Q..2.#R
14C0: 11 80 F0 FF FF 7F F0 FF  FF 7F 67 30 30 34 45 11  ..........g004E.
14D0: 80 F0 FF FF 7F F0 FF FF  7F 67 30 30 35 12 80 1C  .........g005...
14E0: 01 80 BA 65 50 03 01 52  80 53 80 0B 80 54 80 27  ...eP..R.S...T.'
14F0: 10 65 50 03 01 1C 1C 2C  80 4A F0 FF FF 7F 65 50  .eP....,.J....eP
1500: 03 01 2B 65 50 03 01 55  80 23 2A 10 65 50 03 01  ..+eP..U.#*.eP..
1510: 5B 1A 80 65 50 03 01 65  50 03 01 61 6E 67 30 2B  [..eP..eP..ang0+
1520: 65 50 03 01 56 80 23 53  65 50 03 01 65 50 03 01  eP..V.#SeP..eP..
1530: 61 6E 67 30 52 11 80 F0  FF FF 7F F0 FF FF 7F 67  ang0R..........g
1540: 30 30 35 45 11 80 F0 FF  FF 7F F0 FF FF 7F 67 30  005E..........g0
1550: 30 36 12 80 5B 1A 80 65  50 03 01 65 50 03 01 70  06..[..eP..eP..p
1560: 6E 74 30 1C 1B 80 2B 65  50 03 01 57 80 23 5B 1A  nt0...+eP..W.#[.
1570: 80 65 50 03 01 65 50 03  01 70 6E 74 31 6E F0 FF  .eP..eP..pnt1n..
1580: FF 7F 16 80 99 F0 FF FF  7F 53 65 50 03 01 65 50  .........SeP..eP
1590: 03 01 70 6E 74 31 27 10  65 50 03 01 1D 1C 18 80  ..pnt1'.eP......
15A0: 01 70 16 02 01 00 10 80  80 BF 15 45 11 80 F0 FF  .p.........E....
15B0: FF 7F F0 FF FF 7F 79 74  30 31 12 80 01 EC 15 02  ......yt01......
15C0: 01 00 13 80 80 DB 15 45  11 80 F0 FF FF 7F F0 FF  .......E........
15D0: FF 7F 79 74 30 31 12 80  01 EC 15 45 11 80 F0 FF  ..yt01.....E....
15E0: FF 7F F0 FF FF 7F 79 30  30 31 12 80 1A 07 43 81  ......y001....C.
15F0: 00 65 50 03 01 7C 00 65  50 03 01 5B 14 80 65 50  .eP..|.eP..[..eP
1600: 03 01 65 50 03 01 74 6C  6B 30 2B 65 50 03 01 58  ..eP..tlk0+eP..X
1610: 80 23 6E F0 FF FF 7F 16  80 99 F0 FF FF 7F 5B 14  .#n...........[.
1620: 80 65 50 03 01 65 50 03  01 74 6C 6B 31 1C 17 80  .eP..eP..tlk1...
1630: 5B 1A 80 65 50 03 01 65  50 03 01 70 6E 74 30 1C  [..eP..eP..pnt0.
1640: 1B 80 2B 65 50 03 01 57  80 23 5B 1A 80 65 50 03  ..+eP..W.#[..eP.
1650: 01 65 50 03 01 70 6E 74  31 53 65 50 03 01 65 50  .eP..pnt1SeP..eP
1660: 03 01 70 6E 74 31 27 10  65 50 03 01 12 1C 18 80  ..pnt1'.eP......
1670: 1A 28 43 52 11 80 F0 FF  FF 7F F0 FF FF 7F 79 74  .(CR..........yt
1680: 30 31 52 11 80 F0 FF FF  7F F0 FF FF 7F 79 30 30  01R..........y00
1690: 31 52 11 80 F0 FF FF 7F  F0 FF FF 7F 67 30 30 36  1R..........g006
16A0: 7A 00 65 50 03 01 1C 18  80 29 10 64 50 03 01 11  z.eP.....).dP...
16B0: BA F0 FF FF 7F 59 80 5A  80 0B 80 5B 80 BA 65 50  .....Y.Z...[..eP
16C0: 03 01 5C 80 5D 80 0B 80  08 80 BA 64 50 03 01 5E  ..\.]......dP..^
16D0: 80 5F 80 0B 80 60 80 1C  01 80 4A 64 50 03 01 F0  ._...`....JdP...
16E0: FF FF 7F 4A F0 FF FF 7F  64 50 03 01 4A 65 50 03  ...J....dP..JeP.
16F0: 01 F0 FF FF 7F 7B 65 50  03 01 1C 41 80 45 11 80  .....{eP...A.E..
1700: F0 FF FF 7F F0 FF FF 7F  74 30 30 30 12 80 1A 07  ........t000....
1710: 43 66 33 80 64 50 03 01  64 50 03 01 74 6C 6B 30  Cf3.dP..dP..tlk0
1720: 03 02 10 26 80 2B 64 50  03 01 61 80 23 66 33 80  ...&.+dP..a.#f3.
1730: 64 50 03 01 64 50 03 01  74 6C 6B 31 1C 4A 80 52  dP..dP..tlk1.J.R
1740: 11 80 F0 FF FF 7F F0 FF  FF 7F 74 30 30 30 45 11  ..........t000E.
1750: 80 F0 FF FF 7F F0 FF FF  7F 74 30 30 31 12 80 1C  .........t001...
1760: 1B 80 03 03 10 35 80 2B  64 50 03 01 62 80 23 52  .....5.+dP..b.#R
1770: 11 80 F0 FF FF 7F F0 FF  FF 7F 74 30 30 31 45 11  ..........t001E.
1780: 80 F0 FF FF 7F F0 FF FF  7F 74 30 30 32 12 80 27  .........t002..'
1790: 10 65 50 03 01 19 1C 10  80 BA F0 FF FF 7F 63 80  .eP...........c.
17A0: 64 80 0B 80 65 80 1C 66  80 59 01 64 50 03 01 66  d...e..f.Y.dP..f
17B0: 80 4A 64 50 03 01 65 50  03 01 6F 76 64 50 03 01  .JdP..eP..ovdP..
17C0: 1C 1B 80 52 11 80 F0 FF  FF 7F F0 FF FF 7F 74 30  ...R..........t0
17D0: 30 32 45 11 80 F0 FF FF  7F F0 FF FF 7F 74 30 30  02E..........t00
17E0: 33 12 80 2A 10 65 50 03  01 4B 65 50 03 01 67 80  3..*.eP..KeP..g.
17F0: 6F 76 65 50 03 01 4A 64  50 03 01 65 50 03 01 4A  oveP..JdP..eP..J
1800: F0 FF FF 7F 65 50 03 01  1C 32 80 9F 68 80 65 50  ....eP...2..h.eP
1810: 03 01 63 50 03 01 6D 61  69 6E 12 80 48 69 80 1C  ..cP..main..Hi..
1820: 45 80 02 01 00 10 80 80  5E 18 52 11 80 F0 FF FF  E.......^.R.....
1830: 7F F0 FF FF 7F 74 30 30  33 45 11 80 F0 FF FF 7F  .....t003E......
1840: F0 FF FF 7F 6F 76 34 30  12 80 45 11 80 F0 FF FF  ....ov40..E.....
1850: 7F F0 FF FF 7F 74 74 30  34 12 80 01 07 19 02 01  .....tt04.......
1860: 00 13 80 80 9A 18 52 11  80 F0 FF FF 7F F0 FF FF  ......R.........
1870: 7F 74 30 30 33 45 11 80  F0 FF FF 7F F0 FF FF 7F  .t003E..........
1880: 6F 76 34 30 12 80 45 11  80 F0 FF FF 7F F0 FF FF  ov40..E.........
1890: 7F 74 74 30 34 12 80 01  07 19 02 01 00 25 80 80  .tt04........%..
18A0: D6 18 52 11 80 F0 FF FF  7F F0 FF FF 7F 74 30 30  ..R..........t00
18B0: 33 45 11 80 F0 FF FF 7F  F0 FF FF 7F 6F 76 34 30  3E..........ov40
18C0: 12 80 45 11 80 F0 FF FF  7F F0 FF FF 7F 74 67 30  ..E..........tg0
18D0: 34 12 80 01 07 19 52 11  80 F0 FF FF 7F F0 FF FF  4.....R.........
18E0: 7F 74 30 30 33 45 11 80  F0 FF FF 7F F0 FF FF 7F  .t003E..........
18F0: 6F 76 34 30 12 80 45 11  80 F0 FF FF 7F F0 FF FF  ov40..E.........
1900: 7F 74 30 30 34 12 80 1C  66 80 6E F0 FF FF 7F 6A  .t004...f.n....j
1910: 80 99 F0 FF FF 7F A2 68  80 65 50 03 01 63 50 03  .......h.eP..cP.
1920: 01 6D 61 69 6E 79 00 65  50 03 01 F0 FF FF 7F 1C  .mainy.eP.......
1930: 45 80 52 11 80 F0 FF FF  7F F0 FF FF 7F 74 30 30  E.R..........t00
1940: 34 52 11 80 F0 FF FF 7F  F0 FF FF 7F 74 74 30 34  4R..........tt04
1950: 52 11 80 F0 FF FF 7F F0  FF FF 7F 74 67 30 34 45  R..........tg04E
1960: 11 80 F0 FF FF 7F F0 FF  FF 7F 74 30 30 35 12 80  ..........t005..
1970: 6E 64 50 03 01 6B 80 99  64 50 03 01 1C 46 80 02  ndP..k..dP...F..
1980: 01 00 10 80 80 BB 19 52  11 80 F0 FF FF 7F F0 FF  .......R........
1990: FF 7F 74 30 30 35 45 11  80 F0 FF FF 7F F0 FF FF  ..t005E.........
19A0: 7F 6F 76 34 30 12 80 45  11 80 F0 FF FF 7F F0 FF  .ov40..E........
19B0: FF 7F 74 74 30 36 12 80  01 28 1A 02 01 00 13 80  ..tt06...(......
19C0: 80 F7 19 52 11 80 F0 FF  FF 7F F0 FF FF 7F 74 30  ...R..........t0
19D0: 30 35 45 11 80 F0 FF FF  7F F0 FF FF 7F 6F 76 34  05E..........ov4
19E0: 30 12 80 45 11 80 F0 FF  FF 7F F0 FF FF 7F 74 74  0..E..........tt
19F0: 30 36 12 80 01 28 1A 52  11 80 F0 FF FF 7F F0 FF  06...(.R........
1A00: FF 7F 74 30 30 35 45 11  80 F0 FF FF 7F F0 FF FF  ..t005E.........
1A10: 7F 6F 76 34 30 12 80 45  11 80 F0 FF FF 7F F0 FF  .ov40..E........
1A20: FF 7F 74 30 30 36 12 80  4A 64 50 03 01 F0 FF FF  ..t006..JdP.....
1A30: 7F 6F 76 64 50 03 01 66  33 80 64 50 03 01 64 50  .ovdP..f3.dP..dP
1A40: 03 01 74 6C 6B 30 27 10  65 50 03 01 1A 1C 1B 80  ..tlk0'.eP......
1A50: 2B 64 50 03 01 6C 80 1C  32 80 4A F0 FF FF 7F 64  +dP..l..2.J....d
1A60: 50 03 01 23 66 33 80 64  50 03 01 64 50 03 01 74  P..#f3.dP..dP..t
1A70: 6C 6B 31 1C 1B 80 2A 10  65 50 03 01 52 11 80 F0  lk1...*.eP..R...
1A80: FF FF 7F F0 FF FF 7F 74  30 30 36 52 11 80 F0 FF  .......t006R....
1A90: FF 7F F0 FF FF 7F 74 74  30 36 45 11 80 F0 FF FF  ......tt06E.....
1AA0: 7F F0 FF FF 7F 6F 76 34  30 12 80 45 11 80 F0 FF  .....ov40..E....
1AB0: FF 7F F0 FF FF 7F 74 30  30 38 12 80 7C 01 65 50  ......t008..|.eP
1AC0: 03 01 5B 1A 80 65 50 03  01 65 50 03 01 70 6E 74  ..[..eP..eP..pnt
1AD0: 30 1C 1B 80 2B 65 50 03  01 6D 80 1C 4A 80 5B 1A  0...+eP..m..J.[.
1AE0: 80 65 50 03 01 65 50 03  01 70 6E 74 31 23 52 11  .eP..eP..pnt1#R.
1AF0: 80 F0 FF FF 7F F0 FF FF  7F 74 30 30 38 45 11 80  .........t008E..
1B00: F0 FF FF 7F F0 FF FF 7F  6F 76 34 30 12 80 45 11  ........ov40..E.
1B10: 80 F0 FF FF 7F F0 FF FF  7F 74 30 30 37 12 80 1C  .........t007...
1B20: 19 80 2B 64 50 03 01 6E  80 6E 64 50 03 01 01 80  ..+dP..n.ndP....
1B30: 99 64 50 03 01 1C 3F 80  53 65 50 03 01 65 50 03  .dP...?.SeP..eP.
1B40: 01 70 6E 74 31 5B 1A 80  65 50 03 01 65 50 03 01  .pnt1[..eP..eP..
1B50: 68 61 70 30 1C 29 80 1A  28 43 1C 18 80 52 11 80  hap0.)..(C...R..
1B60: F0 FF FF 7F F0 FF FF 7F  74 30 30 37 45 11 80 F0  ........t007E...
1B70: FF FF 7F F0 FF FF 7F 30  62 6C 72 12 80 1C 10 80  .......0blr.....
1B80: 46 00 45 46 80 F0 FF FF  7F F0 FF FF 7F 66 64 69  F.EF.........fdi
1B90: 32 12 80 21 00 00                                 2..!..          
```

#### Opcodes

```
  0: 0x1273 [0x42] SET_CLI_EVENT_CANCEL_DATA()
  1: 0x1274 [0x1A] CALL_SUBROUTINE(address=0x4328)
  2: 0x1277 [0x46] CAMERA_CONTROL: Disable user control
  3: 0x1279 [0x38] SET_CLIENT_EVENT_MODE(mode=19*)
  4: 0x127C [0x1C] WAIT(1* ticks)
  5: 0x127F [0x4E] SET_ENTITY_HIDE_FLAG: Show LocalPlayer
  6: 0x1285 [0x2F] ??? (ID: 16994403/0x01035063)->Render.Flags0 &= ~0x80000 // Bit 19
  7: 0x128B [0x4E] SET_ENTITY_HIDE_FLAG: Show ??? (ID: 16994403/0x01035063)
  8: 0x1291 [0x79] LocalPlayer looks at LocalPlayer (Basic look)
  9: 0x129B [0x27] REQ_SET(priority=0x10, entity_id=Yoyoroon (ID: 16994405/0x01035065), tag_num=0x04)
 10: 0x12A2 [0x27] REQ_SET(priority=0x10, entity_id=Tsetseroon (ID: 16994406/0x01035066), tag_num=0x04)
 11: 0x12A9 [0x27] REQ_SET(priority=0x10, entity_id=Jayahan (ID: 16994404/0x01035064), tag_num=0x04)
 12: 0x12B0 [0xBA] SET_ENTITY_POSITION(entity_id=LocalPlayer, pos_x=-17.083*, pos_z=68.064*, pos_y=-6.000*, direction=256.6°*)
 13: 0x12BD [0xBA] SET_ENTITY_POSITION(entity_id=Yoyoroon (ID: 16994405/0x01035065), pos_x=-17.035*, pos_z=71.598*, pos_y=-6.000*, direction=90.0°*)
 14: 0x12CA [0xBA] SET_ENTITY_POSITION(entity_id=Tsetseroon (ID: 16994406/0x01035066), pos_x=-5.497*, pos_z=66.252*, pos_y=-5.999*, direction=2.1°*)
 15: 0x12D7 [0xBA] SET_ENTITY_POSITION(entity_id=Jayahan (ID: 16994404/0x01035064), pos_x=-13.858*, pos_z=72.105*, pos_y=-6.000*, direction=88.8°*)
 16: 0x12E4 [0xBA] SET_ENTITY_POSITION(entity_id=??? (ID: 16994403/0x01035063), pos_x=0.000*, pos_z=0.000*, pos_y=0.000*, direction=0.0°*)
 17: 0x12F1 [0x92] Yoyoroon (ID: 16994405/0x01035065)->Render.Flags3 ^= 0x01
 18: 0x12F7 [0x92] Tsetseroon (ID: 16994406/0x01035066)->Render.Flags3 ^= 0x01
 19: 0x12FD [0x92] Jayahan (ID: 16994404/0x01035064)->Render.Flags3 ^= 0x01
 20: 0x1303 [0x92] ??? (ID: 16994403/0x01035063)->Render.Flags3 ^= 0x01
 21: 0x1309 [0x94] LocalPlayer->Render.Flags3 ^= 0x01
 22: 0x130F [0x94] Yoyoroon (ID: 16994405/0x01035065)->Render.Flags3 ^= 0x01
 23: 0x1315 [0x94] Tsetseroon (ID: 16994406/0x01035066)->Render.Flags3 ^= 0x01
 24: 0x131B [0x94] Jayahan (ID: 16994404/0x01035064)->Render.Flags3 ^= 0x01
 25: 0x1321 [0x94] ??? (ID: 16994403/0x01035063)->Render.Flags3 ^= 0x01
 26: 0x1327 [0x80] LOAD_WAIT(entity=Yoyoroon (ID: 16994405/0x01035065))
 27: 0x132C [0x80] LOAD_WAIT(entity=Tsetseroon (ID: 16994406/0x01035066))
 28: 0x1331 [0x80] LOAD_WAIT(entity=Jayahan (ID: 16994404/0x01035064))
 29: 0x1336 [0x03] ExtData[1]->WorkLocal[0] = Work_Zone[6]
 30: 0x133B [0x29] REQ_SET_WAIT(priority=0x10, entity_id=LocalPlayer, tag_num=0x15)
 31: 0x1342 [0x03] ExtData[1]->WorkLocal[1] = Work_Zone[2]
 32: 0x1347 [0x1C] WAIT(5* ticks)
 33: 0x134A [0x27] REQ_SET(priority=0x10, entity_id=Jayahan (ID: 16994404/0x01035064), tag_num=0x10)
 34: 0x1351 [0x27] REQ_SET(priority=0x10, entity_id=Tsetseroon (ID: 16994406/0x01035066), tag_num=0x10)
 35: 0x1358 [0x4A] LocalPlayer looks at Yoyoroon (ID: 16994405/0x01035065)
 36: 0x1361 [0x02] IF !(ExtData[1]->WorkLocal[0] == 1*) GOTO 0x15A3
 37: 0x1369 [0x45] LOAD_SCHEDULED_TASK: Load scheduler "x000" with entities [LocalPlayer, LocalPlayer], work=[518*, 0*]
 38: 0x137A [0x1A] CALL_SUBROUTINE(address=0x4307)
 39: 0x137D [0x2B] Yoyoroon (ID: 16994405/0x01035065) [11868*]:
    → "Gadzoookaroooooons!"
 40: 0x1384 [0x1C] WAIT(40* ticks)
 41: 0x1387 [0x23] WAIT_FOR_DIALOG_INTERACTION
 42: 0x1388 [0x52] END_LOAD_SCHEDULER: End scheduler "x000" with entities [LocalPlayer, LocalPlayer], work=518*
 43: 0x1397 [0x45] LOAD_SCHEDULED_TASK: Load scheduler "g000" with entities [LocalPlayer, LocalPlayer], work=[518*, 0*]
 44: 0x13A8 [0x27] REQ_SET(priority=0x10, entity_id=Yoyoroon (ID: 16994405/0x01035065), tag_num=0x1B)
 45: 0x13AF [0x1C] WAIT(30* ticks)
 46: 0x13B2 [0x4A] LocalPlayer looks at Yoyoroon (ID: 16994405/0x01035065)
 47: 0x13BB [0x1C] WAIT(60* ticks)
 48: 0x13BE [0x4A] LocalPlayer looks at Yoyoroon (ID: 16994405/0x01035065)
 49: 0x13C7 [0x1C] WAIT(20* ticks)
 50: 0x13CA [0x52] END_LOAD_SCHEDULER: End scheduler "g000" with entities [LocalPlayer, LocalPlayer], work=518*
 51: 0x13D9 [0x45] LOAD_SCHEDULED_TASK: Load scheduler "g001" with entities [LocalPlayer, LocalPlayer], work=[518*, 0*]
 52: 0x13EA [0x2A] GET_REQ_LEVEL(level=16, entity_id=Yoyoroon (ID: 16994405/0x01035065))
 53: 0x13F0 [0x5B] LOAD_EXT_SCHEDULER: Load scheduler "sha0" with entities [Yoyoroon (ID: 16994405/0x01035065), Yoyoroon (ID: 16994405/0x01035065)], work=919*
 54: 0x13FF [0x53] WAIT_SCHEDULER_TASK: Wait for scheduler "sha0" with entities [Yoyoroon (ID: 16994405/0x01035065), Yoyoroon (ID: 16994405/0x01035065)]
 55: 0x140C [0x1C] WAIT(30* ticks)
 56: 0x140F [0x52] END_LOAD_SCHEDULER: End scheduler "g001" with entities [LocalPlayer, LocalPlayer], work=518*
 57: 0x141E [0x45] LOAD_SCHEDULED_TASK: Load scheduler "g002" with entities [LocalPlayer, LocalPlayer], work=[518*, 0*]
 58: 0x142F [0x1C] WAIT(40* ticks)
 59: 0x1432 [0x6E] LocalPlayer uses emote 22*
 60: 0x1439 [0x99] Wait for LocalPlayer animation to complete
 61: 0x143E [0x1C] WAIT(180* ticks)
 62: 0x1441 [0x52] END_LOAD_SCHEDULER: End scheduler "g002" with entities [LocalPlayer, LocalPlayer], work=518*
 63: 0x1450 [0x45] LOAD_SCHEDULED_TASK: Load scheduler "g003" with entities [LocalPlayer, LocalPlayer], work=[518*, 0*]
 64: 0x1461 [0x1C] WAIT(60* ticks)
 65: 0x1464 [0x5B] LOAD_EXT_SCHEDULER: Load scheduler "sha1" with entities [Yoyoroon (ID: 16994405/0x01035065), Yoyoroon (ID: 16994405/0x01035065)], work=919*
 66: 0x1473 [0x53] WAIT_SCHEDULER_TASK: Wait for scheduler "sha1" with entities [Yoyoroon (ID: 16994405/0x01035065), Yoyoroon (ID: 16994405/0x01035065)]
 67: 0x1480 [0x52] END_LOAD_SCHEDULER: End scheduler "g003" with entities [LocalPlayer, LocalPlayer], work=518*
 68: 0x148F [0x45] LOAD_SCHEDULED_TASK: Load scheduler "ov40" with entities [LocalPlayer, LocalPlayer], work=[518*, 0*]
 69: 0x14A0 [0x45] LOAD_SCHEDULED_TASK: Load scheduler "g004" with entities [LocalPlayer, LocalPlayer], work=[518*, 0*]
 70: 0x14B1 [0x1C] WAIT(40* ticks)
 71: 0x14B4 [0x2B] Yoyoroon (ID: 16994405/0x01035065) [11869*]:
    → "Oh...it just yooo."
 72: 0x14BB [0x1C] WAIT(60* ticks)
 73: 0x14BE [0x23] WAIT_FOR_DIALOG_INTERACTION
 74: 0x14BF [0x52] END_LOAD_SCHEDULER: End scheduler "g004" with entities [LocalPlayer, LocalPlayer], work=518*
 75: 0x14CE [0x45] LOAD_SCHEDULED_TASK: Load scheduler "g005" with entities [LocalPlayer, LocalPlayer], work=[518*, 0*]
 76: 0x14DF [0x1C] WAIT(1* ticks)
 77: 0x14E2 [0xBA] SET_ENTITY_POSITION(entity_id=Yoyoroon (ID: 16994405/0x01035065), pos_x=-9.277*, pos_z=68.058*, pos_y=-5.999*, direction=180.7°*)
 78: 0x14EF [0x27] REQ_SET(priority=0x10, entity_id=Yoyoroon (ID: 16994405/0x01035065), tag_num=0x1C)
 79: 0x14F6 [0x1C] WAIT(20* ticks)
 80: 0x14F9 [0x4A] LocalPlayer looks at Yoyoroon (ID: 16994405/0x01035065)
 81: 0x1502 [0x2B] Yoyoroon (ID: 16994405/0x01035065) [11870*]:
    → "I see blooo wizarooon and think no-no-nooo...this bye-bye for pooor Yoyoroon!"
 82: 0x1509 [0x23] WAIT_FOR_DIALOG_INTERACTION
 83: 0x150A [0x2A] GET_REQ_LEVEL(level=16, entity_id=Yoyoroon (ID: 16994405/0x01035065))
 84: 0x1510 [0x5B] LOAD_EXT_SCHEDULER: Load scheduler "ang0" with entities [Yoyoroon (ID: 16994405/0x01035065), Yoyoroon (ID: 16994405/0x01035065)], work=843*
 85: 0x151F [0x2B] Yoyoroon (ID: 16994405/0x01035065) [11871*]:
    → "Yooo promise no more scary-scary for Yoyoroon, yooo dooo?"
 86: 0x1526 [0x23] WAIT_FOR_DIALOG_INTERACTION
 87: 0x1527 [0x53] WAIT_SCHEDULER_TASK: Wait for scheduler "ang0" with entities [Yoyoroon (ID: 16994405/0x01035065), Yoyoroon (ID: 16994405/0x01035065)]
 88: 0x1534 [0x52] END_LOAD_SCHEDULER: End scheduler "g005" with entities [LocalPlayer, LocalPlayer], work=518*
 89: 0x1543 [0x45] LOAD_SCHEDULED_TASK: Load scheduler "g006" with entities [LocalPlayer, LocalPlayer], work=[518*, 0*]
 90: 0x1554 [0x5B] LOAD_EXT_SCHEDULER: Load scheduler "pnt0" with entities [Yoyoroon (ID: 16994405/0x01035065), Yoyoroon (ID: 16994405/0x01035065)], work=843*
 91: 0x1563 [0x1C] WAIT(40* ticks)
 92: 0x1566 [0x2B] Yoyoroon (ID: 16994405/0x01035065) [11873*]:
    → "Boss! Yoyoroon bring good customer back! Yooo happy with Yoyoroon, no?"
 93: 0x156D [0x23] WAIT_FOR_DIALOG_INTERACTION
 94: 0x156E [0x5B] LOAD_EXT_SCHEDULER: Load scheduler "pnt1" with entities [Yoyoroon (ID: 16994405/0x01035065), Yoyoroon (ID: 16994405/0x01035065)], work=843*
 95: 0x157D [0x6E] LocalPlayer uses emote 7*
 96: 0x1584 [0x99] Wait for LocalPlayer animation to complete
 97: 0x1589 [0x53] WAIT_SCHEDULER_TASK: Wait for scheduler "pnt1" with entities [Yoyoroon (ID: 16994405/0x01035065), Yoyoroon (ID: 16994405/0x01035065)]
 98: 0x1596 [0x27] REQ_SET(priority=0x10, entity_id=Yoyoroon (ID: 16994405/0x01035065), tag_num=0x1D)
 99: 0x159D [0x1C] WAIT(30* ticks)
100: 0x15A0 [0x01] GOTO 0x1670
101: 0x15A3 [0x02] IF !(ExtData[1]->WorkLocal[1] == 5*) GOTO 0x15BF
102: 0x15AB [0x45] LOAD_SCHEDULED_TASK: Load scheduler "yt01" with entities [LocalPlayer, LocalPlayer], work=[518*, 0*]
103: 0x15BC [0x01] GOTO 0x15EC
104: 0x15BF [0x02] IF !(ExtData[1]->WorkLocal[1] == 6*) GOTO 0x15DB
105: 0x15C7 [0x45] LOAD_SCHEDULED_TASK: Load scheduler "yt01" with entities [LocalPlayer, LocalPlayer], work=[518*, 0*]
106: 0x15D8 [0x01] GOTO 0x15EC
107: 0x15DB [0x45] LOAD_SCHEDULED_TASK: Load scheduler "y001" with entities [LocalPlayer, LocalPlayer], work=[518*, 0*]

SUBROUTINE_15EC:
108: 0x15EC [0x1A] CALL_SUBROUTINE(address=0x4307)
109: 0x15EF [0x81] SET_ENTITY_BLINKING(blink_flag=0x00, entity=Yoyoroon (ID: 16994405/0x01035065))
110: 0x15F5 [0x7C] Yoyoroon (ID: 16994405/0x01035065)->Render.Flags2 |= 0x00
111: 0x15FB [0x5B] LOAD_EXT_SCHEDULER: Load scheduler "tlk0" with entities [Yoyoroon (ID: 16994405/0x01035065), Yoyoroon (ID: 16994405/0x01035065)], work=842*
112: 0x160A [0x2B] Yoyoroon (ID: 16994405/0x01035065) [11872*]:
    → "Yooo come back to visit Yoyoroon? Yooo have business with boss, yooo dooo?"
113: 0x1611 [0x23] WAIT_FOR_DIALOG_INTERACTION
114: 0x1612 [0x6E] LocalPlayer uses emote 7*
115: 0x1619 [0x99] Wait for LocalPlayer animation to complete
116: 0x161E [0x5B] LOAD_EXT_SCHEDULER: Load scheduler "tlk1" with entities [Yoyoroon (ID: 16994405/0x01035065), Yoyoroon (ID: 16994405/0x01035065)], work=842*
117: 0x162D [0x1C] WAIT(100* ticks)
118: 0x1630 [0x5B] LOAD_EXT_SCHEDULER: Load scheduler "pnt0" with entities [Yoyoroon (ID: 16994405/0x01035065), Yoyoroon (ID: 16994405/0x01035065)], work=843*
119: 0x163F [0x1C] WAIT(40* ticks)
120: 0x1642 [0x2B] Yoyoroon (ID: 16994405/0x01035065) [11873*]:
    → "Boss! Yoyoroon bring good customer back! Yooo happy with Yoyoroon, no?"
121: 0x1649 [0x23] WAIT_FOR_DIALOG_INTERACTION
122: 0x164A [0x5B] LOAD_EXT_SCHEDULER: Load scheduler "pnt1" with entities [Yoyoroon (ID: 16994405/0x01035065), Yoyoroon (ID: 16994405/0x01035065)], work=843*
123: 0x1659 [0x53] WAIT_SCHEDULER_TASK: Wait for scheduler "pnt1" with entities [Yoyoroon (ID: 16994405/0x01035065), Yoyoroon (ID: 16994405/0x01035065)]
124: 0x1666 [0x27] REQ_SET(priority=0x10, entity_id=Yoyoroon (ID: 16994405/0x01035065), tag_num=0x12)
125: 0x166D [0x1C] WAIT(30* ticks)

SUBROUTINE_1670:
126: 0x1670 [0x1A] CALL_SUBROUTINE(address=0x4328)
127: 0x1673 [0x52] END_LOAD_SCHEDULER: End scheduler "yt01" with entities [LocalPlayer, LocalPlayer], work=518*
128: 0x1682 [0x52] END_LOAD_SCHEDULER: End scheduler "y001" with entities [LocalPlayer, LocalPlayer], work=518*
129: 0x1691 [0x52] END_LOAD_SCHEDULER: End scheduler "g006" with entities [LocalPlayer, LocalPlayer], work=518*
130: 0x16A0 [0x7A] VM_CONTROL: Reset VM for Yoyoroon (ID: 16994405/0x01035065)
131: 0x16A6 [0x1C] WAIT(30* ticks)
132: 0x16A9 [0x29] REQ_SET_WAIT(priority=0x10, entity_id=Jayahan (ID: 16994404/0x01035064), tag_num=0x11)
133: 0x16B0 [0xBA] SET_ENTITY_POSITION(entity_id=LocalPlayer, pos_x=-17.696*, pos_z=68.131*, pos_y=-5.999*, direction=337.9°*)
134: 0x16BD [0xBA] SET_ENTITY_POSITION(entity_id=Yoyoroon (ID: 16994405/0x01035065), pos_x=-14.496*, pos_z=69.114*, pos_y=-5.999*, direction=90.0°*)
135: 0x16CA [0xBA] SET_ENTITY_POSITION(entity_id=Jayahan (ID: 16994404/0x01035064), pos_x=-14.760*, pos_z=67.976*, pos_y=-5.999*, direction=175.8°*)
136: 0x16D7 [0x1C] WAIT(1* ticks)
137: 0x16DA [0x4A] Jayahan (ID: 16994404/0x01035064) looks at LocalPlayer
138: 0x16E3 [0x4A] LocalPlayer looks at Jayahan (ID: 16994404/0x01035064)
139: 0x16EC [0x4A] Yoyoroon (ID: 16994405/0x01035065) looks at LocalPlayer
140: 0x16F5 [0x7B] Yoyoroon (ID: 16994405/0x01035065) stops talking
141: 0x16FA [0x1C] WAIT(140* ticks)
142: 0x16FD [0x45] LOAD_SCHEDULED_TASK: Load scheduler "t000" with entities [LocalPlayer, LocalPlayer], work=[518*, 0*]
143: 0x170E [0x1A] CALL_SUBROUTINE(address=0x4307)
144: 0x1711 [0x66] LOAD_EXT_SCHEDULER_MAIN: Load scheduler "tlk0" with entities [Jayahan (ID: 16994404/0x01035064), Jayahan (ID: 16994404/0x01035064)], work=9*
145: 0x1720 [0x03] Work_Zone[2] = 1249*
146: 0x1725 [0x2B] Jayahan (ID: 16994404/0x01035064) [11874*]:
    → "...I see. So you'll be wanting another $3, won't you? Leave it to me."
