# 16994343 - Viviroon

## Common Data

| Field            | Value            |
|------------------|------------------|
| Zone             | Nashmau (ID: 53) |
| Block Size       | 100 bytes        |
| Total Events     | 2                |
| References Count | 5                |

## List of Events

| Event ID              | Entrypoint   |   Size |   Instructions |
|-----------------------|--------------|--------|----------------|
| [65535](#event-65535) | 0x0000       |      1 |              1 |
| [2](#event-2)         | 0x0001       |     54 |             14 |

## DAT References (imed_data)

|   Index | Hex Value   |   Dec Value |
|---------|-------------|-------------|
|       0 | 0x034B      |         843 |
|       1 | 0x2905      |       10501 |
|       2 | 0x2906      |       10502 |
|       3 | 0x2907      |       10503 |
|       4 | 0x001E      |          30 |

## String References

- **10501**: Viviroon give adventooorers big welcome. Yooo know why?
- **10502**: Viviroon like "clink clink" veeery much. Adventooorers make clink clink sound, yes? The more clink, the more Viviroon like adventooorer!
- **10503**: Want lots of clink clink cliiinky adventooorers to come Nashmau, yes!

## Events

### Event 65535

#### Metadata

| Field        | Value   |
|--------------|---------|
| Entrypoint   | 0x0000  |
| Data Size    | 1 bytes |
| Instructions | 1       |

```
      00 01 02 03 04 05 06 07  08 09 0A 0B 0C 0D 0E 0F
      -- -- -- -- -- -- -- --  -- -- -- -- -- -- -- --
0000: 00                                                .               
```

#### Opcodes

```
  0: 0x0000 [0x00] END_REQSTACK()
```

### Event 2

#### Metadata

| Field        | Value    |
|--------------|----------|
| Entrypoint   | 0x0001   |
| Data Size    | 54 bytes |
| Instructions | 14       |

```
      00 01 02 03 04 05 06 07  08 09 0A 0B 0C 0D 0E 0F
      -- -- -- -- -- -- -- --  -- -- -- -- -- -- -- --
0000:    1E F0 FF FF 7F 6F 70  5B 00 80 F8 FF FF 7F F8   .....op[.......
0010: FF FF 7F 74 6C 62 30 1D  01 80 23 1D 02 80 23 1D  ...tlb0...#...#.
0020: 03 80 23 5B 00 80 F8 FF  FF 7F F8 FF FF 7F 74 6C  ..#[..........tl
0030: 62 31 1C 04 80 21 00                              b1...!.         
```

#### Opcodes

```
  0: 0x0001 [0x1E] EventEntity looks at LocalPlayer and starts talking
  1: 0x0006 [0x6F] WAIT_FRAME_DELAY: Yield until WaitTime reaches zero
  2: 0x0007 [0x70] WAIT_ENTITY_RENDER_FLAG: Wait while EventEntity->Render.Flags3 bit 2 is set (cancel turn if not)
  3: 0x0008 [0x5B] LOAD_EXT_SCHEDULER: Load scheduler "tlb0" with entities [EventEntity, EventEntity], work=843*
  4: 0x0017 [0x1D] PRINT_EVENT_MESSAGE(message_id=10501*)
    → "Viviroon give adventooorers big welcome. Yooo know why?"
  5: 0x001A [0x23] WAIT_FOR_DIALOG_INTERACTION
  6: 0x001B [0x1D] PRINT_EVENT_MESSAGE(message_id=10502*)
    → "Viviroon like "clink clink" veeery much. Adventooorers make clink clink sound, yes? The more clink, the more Viviroon like adventooorer!"
  7: 0x001E [0x23] WAIT_FOR_DIALOG_INTERACTION
  8: 0x001F [0x1D] PRINT_EVENT_MESSAGE(message_id=10503*)
    → "Want lots of clink clink cliiinky adventooorers to come Nashmau, yes!"
  9: 0x0022 [0x23] WAIT_FOR_DIALOG_INTERACTION
 10: 0x0023 [0x5B] LOAD_EXT_SCHEDULER: Load scheduler "tlb1" with entities [EventEntity, EventEntity], work=843*
 11: 0x0032 [0x1C] WAIT(30* ticks)
 12: 0x0035 [0x21] END_EVENT
 13: 0x0036 [0x00] END_REQSTACK()
```
