# 16994363 - Sisiroon

## Common Data

| Field            | Value            |
|------------------|------------------|
| Zone             | Nashmau (ID: 53) |
| Block Size       | 648 bytes        |
| Total Events     | 17               |
| References Count | 50               |

## List of Events

| Event ID                   | Entrypoint   |   Size |   Instructions |
|----------------------------|--------------|--------|----------------|
| [65535](#event-65535)      | 0x0000       |      1 |              1 |
| [268](#event-268)          | 0x0001       |    183 |             35 |
| [291](#event-291)          | 0x00B8       |      1 |              1 |
| [65535.1](#event-655351)   | 0x00B9       |     10 |              2 |
| [65535.2](#event-655352)   | 0x00C3       |     10 |              2 |
| [65535.3](#event-655353)   | 0x00CD       |     10 |              2 |
| [65535.4](#event-655354)   | 0x00D7       |     14 |              4 |
| [65535.5](#event-655355)   | 0x00E5       |     14 |              4 |
| [65535.6](#event-655356)   | 0x00F3       |     10 |              2 |
| [65535.7](#event-655357)   | 0x00FD       |     10 |              2 |
| [65535.8](#event-655358)   | 0x0107       |     15 |              3 |
| [294](#event-294)          | 0x0116       |     10 |              2 |
| [65535.9](#event-655359)   | 0x0120       |     15 |              5 |
| [65535.10](#event-6553510) | 0x012F       |     14 |              4 |
| [312](#event-312)          | 0x013D       |      1 |              1 |
| [65535.11](#event-6553511) | 0x013E       |     23 |              5 |
| [65535.12](#event-6553512) | 0x0155       |     23 |              5 |

## DAT References (imed_data)

|   Index | Hex Value   |   Dec Value |
|---------|-------------|-------------|
|       0 | 0x001E      |          30 |
|       1 | 0x0003      |           3 |
|       2 | 0x0000      |           0 |
|       3 | 0x034A      |         842 |
|       4 | 0x294A      |       10570 |
|       5 | 0x0078      |         120 |
|       6 | 0x0001      |           1 |
|       7 | 0x034B      |         843 |
|       8 | 0x294B      |       10571 |
|       9 | 0x0002      |           2 |
|      10 | 0x294C      |       10572 |
|      11 | 0x294D      |       10573 |
|      12 | 0x294E      |       10574 |
|      13 | 0x294F      |       10575 |
|      14 | 0x2950      |       10576 |
|      15 | 0x3120      |       12576 |
|      16 | 0xFFFF6B6B  |  4294929259 |
|      17 | 0x0A5C      |        2652 |
|      18 | 0x283E      |       10302 |
|      19 | 0xFFFF6B96  |  4294929302 |
|      20 | 0x0206      |         518 |
|      21 | 0x2113      |        8467 |
|      22 | 0xFFFF5870  |  4294924400 |
|      23 | 0x0106      |         262 |
|      24 | 0x000D      |          13 |
|      25 | 0x2B7A      |       11130 |
|      26 | 0xFFFF56CF  |  4294923983 |
|      27 | 0x2657      |        9815 |
|      28 | 0xFFFF5454  |  4294923348 |
|      29 | 0x0E79      |        3705 |
|      30 | 0xFFFFFDC0  |  4294966720 |
|      31 | 0xFFFF7F47  |  4294934343 |
|      32 | 0x01A2      |         418 |
|      33 | 0xFFFFF581  |  4294964609 |
|      34 | 0xFFFF8D00  |  4294937856 |
|      35 | 0x014B      |         331 |
|      36 | 0x3FCD      |       16333 |
|      37 | 0xFFFF56F2  |  4294924018 |
|      38 | 0x0B73      |        2931 |
|      39 | 0x10BD      |        4285 |
|      40 | 0xFEC2      |       65218 |
|      41 | 0xFFFFE890  |  4294961296 |
|      42 | 0x00A2      |         162 |
|      43 | 0x357E      |       13694 |
|      44 | 0x10023     |       65571 |
|      45 | 0x0028      |          40 |
|      46 | 0xFFFFFD92  |  4294966674 |
|      47 | 0xFFFFE545  |  4294960453 |
|      48 | 0x0C75      |        3189 |
|      49 | 0xFFFF7F77  |  4294934391 |

## String References

- **10570**: Qiqirn network, it everywhere! Qiqirn yooo seen, and even Qiqirn yooo no seen, maybe they know aaall about yooo, you know?
- **10571**: The secret of Qiqirn network is liiinkshell. Everyone use it. Everyone friends!
- **10572**: Sisiroon have Qiqirn network seeecret linkshell! Sisiroon found at Arrapago Reeef.
- **10573**: Yooo want join tooo?
- **10574**: Too bad! No peeeople allowed join seeecret Qiqirn linkshell!
- **10575**: Only one person. Sisiroon only allowed ooone person join. But that person special.
- **10576**: So yooo can't join. Sooorry!

## Events

### Event 65535

#### Metadata

| Field        | Value   |
|--------------|---------|
| Entrypoint   | 0x0000  |
| Data Size    | 1 bytes |
| Instructions | 1       |

```
      00 01 02 03 04 05 06 07  08 09 0A 0B 0C 0D 0E 0F
      -- -- -- -- -- -- -- --  -- -- -- -- -- -- -- --
0000: 00                                                .               
```

#### Opcodes

```
  0: 0x0000 [0x00] END_REQSTACK()
```

### Event 268

#### Metadata

| Field        | Value     |
|--------------|-----------|
| Entrypoint   | 0x0001    |
| Data Size    | 183 bytes |
| Instructions | 35        |

```
      00 01 02 03 04 05 06 07  08 09 0A 0B 0C 0D 0E 0F
      -- -- -- -- -- -- -- --  -- -- -- -- -- -- -- --
0000:    1E F0 FF FF 7F 1C 00  80 13 00 00 01 80 02 00   ...............
0010: 00 02 80 80 3E 00 5B 03  80 F8 FF FF 7F F8 FF FF  ....>.[.........
0020: 7F 74 68 6B 30 1D 04 80  23 5B 03 80 F8 FF FF 7F  .thk0...#[......
0030: F8 FF FF 7F 74 68 6B 31  1C 05 80 01 B6 00 02 00  ....thk1........
0040: 00 06 80 80 5C 00 5B 07  80 F8 FF FF 7F F8 FF FF  ....\.[.........
0050: 7F 68 61 70 30 1D 08 80  23 01 B6 00 02 00 00 09  .hap0...#.......
0060: 80 80 7A 00 5B 07 80 F8  FF FF 7F F8 FF FF 7F 68  ..z.[..........h
0070: 61 70 30 1D 0A 80 23 01  B6 00 02 00 00 01 80 80  ap0...#.........
0080: B6 00 1D 0B 80 23 5B 07  80 F8 FF FF 7F F8 FF FF  .....#[.........
0090: 7F 74 6C 62 30 1C 00 80  1D 0C 80 23 1D 0D 80 23  .tlb0......#...#
00A0: 5B 07 80 F8 FF FF 7F F8  FF FF 7F 74 6C 62 31 1D  [..........tlb1.
00B0: 0E 80 23 01 B6 00 21 00                           ..#...!.        
```

#### Opcodes

```
  0: 0x0001 [0x1E] EventEntity looks at LocalPlayer and starts talking
  1: 0x0006 [0x1C] WAIT(30* ticks)
  2: 0x0009 [0x13] ExtData[1]->WorkLocal[0] = rand() % 3*
  3: 0x000E [0x02] IF !(ExtData[1]->WorkLocal[0] == 0*) GOTO 0x003E
  4: 0x0016 [0x5B] LOAD_EXT_SCHEDULER: Load scheduler "thk0" with entities [EventEntity, EventEntity], work=842*
  5: 0x0025 [0x1D] PRINT_EVENT_MESSAGE(message_id=10570*)
    → "Qiqirn network, it everywhere! Qiqirn yooo seen, and even Qiqirn yooo no seen, maybe they know aaall about yooo, you know?"
  6: 0x0028 [0x23] WAIT_FOR_DIALOG_INTERACTION
  7: 0x0029 [0x5B] LOAD_EXT_SCHEDULER: Load scheduler "thk1" with entities [EventEntity, EventEntity], work=842*
  8: 0x0038 [0x1C] WAIT(120* ticks)
  9: 0x003B [0x01] GOTO 0x00B6
 10: 0x003E [0x02] IF !(ExtData[1]->WorkLocal[0] == 1*) GOTO 0x005C
 11: 0x0046 [0x5B] LOAD_EXT_SCHEDULER: Load scheduler "hap0" with entities [EventEntity, EventEntity], work=843*
 12: 0x0055 [0x1D] PRINT_EVENT_MESSAGE(message_id=10571*)
    → "The secret of Qiqirn network is liiinkshell. Everyone use it. Everyone friends!"
 13: 0x0058 [0x23] WAIT_FOR_DIALOG_INTERACTION
 14: 0x0059 [0x01] GOTO 0x00B6
 15: 0x005C [0x02] IF !(ExtData[1]->WorkLocal[0] == 2*) GOTO 0x007A
 16: 0x0064 [0x5B] LOAD_EXT_SCHEDULER: Load scheduler "hap0" with entities [EventEntity, EventEntity], work=843*
 17: 0x0073 [0x1D] PRINT_EVENT_MESSAGE(message_id=10572*)
    → "Sisiroon have Qiqirn network seeecret linkshell! Sisiroon found at Arrapago Reeef."
 18: 0x0076 [0x23] WAIT_FOR_DIALOG_INTERACTION
 19: 0x0077 [0x01] GOTO 0x00B6
 20: 0x007A [0x02] IF !(ExtData[1]->WorkLocal[0] == 3*) GOTO 0x00B6
 21: 0x0082 [0x1D] PRINT_EVENT_MESSAGE(message_id=10573*)
    → "Yooo want join tooo?"
 22: 0x0085 [0x23] WAIT_FOR_DIALOG_INTERACTION
 23: 0x0086 [0x5B] LOAD_EXT_SCHEDULER: Load scheduler "tlb0" with entities [EventEntity, EventEntity], work=843*
 24: 0x0095 [0x1C] WAIT(30* ticks)
 25: 0x0098 [0x1D] PRINT_EVENT_MESSAGE(message_id=10574*)
    → "Too bad! No peeeople allowed join seeecret Qiqirn linkshell!"
 26: 0x009B [0x23] WAIT_FOR_DIALOG_INTERACTION
 27: 0x009C [0x1D] PRINT_EVENT_MESSAGE(message_id=10575*)
    → "Only one person. Sisiroon only allowed ooone person join. But that person special."
 28: 0x009F [0x23] WAIT_FOR_DIALOG_INTERACTION
 29: 0x00A0 [0x5B] LOAD_EXT_SCHEDULER: Load scheduler "tlb1" with entities [EventEntity, EventEntity], work=843*
 30: 0x00AF [0x1D] PRINT_EVENT_MESSAGE(message_id=10576*)
    → "So yooo can't join. Sooorry!"
 31: 0x00B2 [0x23] WAIT_FOR_DIALOG_INTERACTION
 32: 0x00B3 [0x01] GOTO 0x00B6

SUBROUTINE_00B6:
 33: 0x00B6 [0x21] END_EVENT
 34: 0x00B7 [0x00] END_REQSTACK()
```

### Event 291

#### Metadata

| Field        | Value   |
|--------------|---------|
| Entrypoint   | 0x00B8  |
| Data Size    | 1 bytes |
| Instructions | 1       |

```
      00 01 02 03 04 05 06 07  08 09 0A 0B 0C 0D 0E 0F
      -- -- -- -- -- -- -- --  -- -- -- -- -- -- -- --
00B0:                          00                               .       
```

#### Opcodes

```
  0: 0x00B8 [0x00] END_REQSTACK()
```

### Event 65535.1

#### Metadata

| Field        | Value    |
|--------------|----------|
| Entrypoint   | 0x00B9   |
| Data Size    | 10 bytes |
| Instructions | 2        |

```
      00 01 02 03 04 05 06 07  08 09 0A 0B 0C 0D 0E 0F
      -- -- -- -- -- -- -- --  -- -- -- -- -- -- -- --
00B0:                             37 0F 80 10 80 02 80           7......
00C0: 11 80 00                                          ...             
```

#### Opcodes

```
  0: 0x00B9 [0x37] UPDATE_EVENT_POSITION_AND_DIR: x=12.576*, z=-38.037*, y=0.000*, direction=233.1°*
  1: 0x00C2 [0x00] END_REQSTACK()
```

### Event 65535.2

#### Metadata

| Field        | Value    |
|--------------|----------|
| Entrypoint   | 0x00C3   |
| Data Size    | 10 bytes |
| Instructions | 2        |

```
      00 01 02 03 04 05 06 07  08 09 0A 0B 0C 0D 0E 0F
      -- -- -- -- -- -- -- --  -- -- -- -- -- -- -- --
00C0:          37 12 80 13 80  02 80 14 80 00              7.........   
```

#### Opcodes

```
  0: 0x00C3 [0x37] UPDATE_EVENT_POSITION_AND_DIR: x=10.302*, z=-37.994*, y=0.000*, direction=45.5°*
  1: 0x00CC [0x00] END_REQSTACK()
```

### Event 65535.3

#### Metadata

| Field        | Value    |
|--------------|----------|
| Entrypoint   | 0x00CD   |
| Data Size    | 10 bytes |
| Instructions | 2        |

```
      00 01 02 03 04 05 06 07  08 09 0A 0B 0C 0D 0E 0F
      -- -- -- -- -- -- -- --  -- -- -- -- -- -- -- --
00C0:                                         37 15 80               7..
00D0: 16 80 02 80 17 80 00                              .......         
```

#### Opcodes

```
  0: 0x00CD [0x37] UPDATE_EVENT_POSITION_AND_DIR: x=8.467*, z=-42.896*, y=0.000*, direction=23.0°*
  1: 0x00D6 [0x00] END_REQSTACK()
```

### Event 65535.4

#### Metadata

| Field        | Value    |
|--------------|----------|
| Entrypoint   | 0x00D7   |
| Data Size    | 14 bytes |
| Instructions | 4        |

```
      00 01 02 03 04 05 06 07  08 09 0A 0B 0C 0D 0E 0F
      -- -- -- -- -- -- -- --  -- -- -- -- -- -- -- --
00D0:                      32  18 80 1F 00 19 80 1A 80         2........
00E0: 02 80 1F 01 00                                    .....           
```

#### Opcodes

```
  0: 0x00D7 [0x32] ExtData[1]->MainSpeed = 13* * 0.1
  1: 0x00DA [0x1F] MOVE_ENTITY: EventEntity moves to X=11.130*, Z=-43.313*, Y=0.000*
  2: 0x00E2 [0x1F] MOVE_ENTITY: Update entity position (mode=1)
  3: 0x00E4 [0x00] END_REQSTACK()
```

### Event 65535.5

#### Metadata

| Field        | Value    |
|--------------|----------|
| Entrypoint   | 0x00E5   |
| Data Size    | 14 bytes |
| Instructions | 4        |

```
      00 01 02 03 04 05 06 07  08 09 0A 0B 0C 0D 0E 0F
      -- -- -- -- -- -- -- --  -- -- -- -- -- -- -- --
00E0:                1F 00 1B  80 1C 80 02 80 1F 01 39       ..........9
00F0: 1D 80 00                                          ...             
```

#### Opcodes

```
  0: 0x00E5 [0x1F] MOVE_ENTITY: EventEntity moves to X=9.815*, Z=-43.948*, Y=0.000*
  1: 0x00ED [0x1F] MOVE_ENTITY: Update entity position (mode=1)
  2: 0x00EF [0x39] SET_ENTITY_DIRECTION(direction=20.4°*)
  3: 0x00F2 [0x00] END_REQSTACK()
```

### Event 65535.6

#### Metadata

| Field        | Value    |
|--------------|----------|
| Entrypoint   | 0x00F3   |
| Data Size    | 10 bytes |
| Instructions | 2        |

```
      00 01 02 03 04 05 06 07  08 09 0A 0B 0C 0D 0E 0F
      -- -- -- -- -- -- -- --  -- -- -- -- -- -- -- --
00F0:          37 1E 80 1F 80  02 80 20 80 00              7...... ..   
```

#### Opcodes

```
  0: 0x00F3 [0x37] UPDATE_EVENT_POSITION_AND_DIR: x=-0.576*, z=-32.953*, y=0.000*, direction=36.7°*
  1: 0x00FC [0x00] END_REQSTACK()
```

### Event 65535.7

#### Metadata

| Field        | Value    |
|--------------|----------|
| Entrypoint   | 0x00FD   |
| Data Size    | 10 bytes |
| Instructions | 2        |

```
      00 01 02 03 04 05 06 07  08 09 0A 0B 0C 0D 0E 0F
      -- -- -- -- -- -- -- --  -- -- -- -- -- -- -- --
00F0:                                         37 21 80               7!.
0100: 22 80 02 80 23 80 00                              "...#..         
```

#### Opcodes

```
  0: 0x00FD [0x37] UPDATE_EVENT_POSITION_AND_DIR: x=-2.687*, z=-29.440*, y=0.000*, direction=29.1°*
  1: 0x0106 [0x00] END_REQSTACK()
```

### Event 65535.8

#### Metadata

| Field        | Value    |
|--------------|----------|
| Entrypoint   | 0x0107   |
| Data Size    | 15 bytes |
| Instructions | 3        |

```
      00 01 02 03 04 05 06 07  08 09 0A 0B 0C 0D 0E 0F
      -- -- -- -- -- -- -- --  -- -- -- -- -- -- -- --
0100:                      37  24 80 25 80 02 80 26 80         7$.%...&.
0110: 1E 6F 50 03 01 00                                 .oP...          
```

#### Opcodes

```
  0: 0x0107 [0x37] UPDATE_EVENT_POSITION_AND_DIR: x=16.333*, z=-43.278*, y=0.000*, direction=257.6°*
  1: 0x0110 [0x1E] EventEntity looks at Elisabeth (ID: 16994415/0x0103506F) and starts talking
  2: 0x0115 [0x00] END_REQSTACK()
```

### Event 294

#### Metadata

| Field        | Value    |
|--------------|----------|
| Entrypoint   | 0x0116   |
| Data Size    | 10 bytes |
| Instructions | 2        |

```
      00 01 02 03 04 05 06 07  08 09 0A 0B 0C 0D 0E 0F
      -- -- -- -- -- -- -- --  -- -- -- -- -- -- -- --
0110:                   37 27  80 28 80 29 80 2A 80 00        7'.(.).*..
```

#### Opcodes

```
  0: 0x0116 [0x37] UPDATE_EVENT_POSITION_AND_DIR: x=4.285*, z=65.218*, y=-6.000*, direction=14.2°*
  1: 0x011F [0x00] END_REQSTACK()
```

### Event 65535.9

#### Metadata

| Field        | Value    |
|--------------|----------|
| Entrypoint   | 0x0120   |
| Data Size    | 15 bytes |
| Instructions | 5        |

```
      00 01 02 03 04 05 06 07  08 09 0A 0B 0C 0D 0E 0F
      -- -- -- -- -- -- -- --  -- -- -- -- -- -- -- --
0120: 32 18 80 1F 00 2B 80 2C  80 29 80 1F 01 6F 00     2....+.,.)...o. 
```

#### Opcodes

```
  0: 0x0120 [0x32] ExtData[1]->MainSpeed = 13* * 0.1
  1: 0x0123 [0x1F] MOVE_ENTITY: EventEntity moves to X=13.694*, Z=65.571*, Y=-6.000*
  2: 0x012B [0x1F] MOVE_ENTITY: Update entity position (mode=1)
  3: 0x012D [0x6F] WAIT_FRAME_DELAY: Yield until WaitTime reaches zero
  4: 0x012E [0x00] END_REQSTACK()
```

### Event 65535.10

#### Metadata

| Field        | Value    |
|--------------|----------|
| Entrypoint   | 0x012F   |
| Data Size    | 14 bytes |
| Instructions | 4        |

```
      00 01 02 03 04 05 06 07  08 09 0A 0B 0C 0D 0E 0F
      -- -- -- -- -- -- -- --  -- -- -- -- -- -- -- --
0120:                                               32                 2
0130: 2D 80 1F 00 27 80 28 80  29 80 1F 01 00           -...'.(.)....   
```

#### Opcodes

```
  0: 0x012F [0x32] ExtData[1]->MainSpeed = 40* * 0.1
  1: 0x0132 [0x1F] MOVE_ENTITY: EventEntity moves to X=4.285*, Z=65.218*, Y=-6.000*
  2: 0x013A [0x1F] MOVE_ENTITY: Update entity position (mode=1)
  3: 0x013C [0x00] END_REQSTACK()
```

### Event 312

#### Metadata

| Field        | Value   |
|--------------|---------|
| Entrypoint   | 0x013D  |
| Data Size    | 1 bytes |
| Instructions | 1       |

```
      00 01 02 03 04 05 06 07  08 09 0A 0B 0C 0D 0E 0F
      -- -- -- -- -- -- -- --  -- -- -- -- -- -- -- --
0130:                                         00                     .  
```

#### Opcodes

```
  0: 0x013D [0x00] END_REQSTACK()
```

### Event 65535.11

#### Metadata

| Field        | Value    |
|--------------|----------|
| Entrypoint   | 0x013E   |
| Data Size    | 23 bytes |
| Instructions | 5        |

```
      00 01 02 03 04 05 06 07  08 09 0A 0B 0C 0D 0E 0F
      -- -- -- -- -- -- -- --  -- -- -- -- -- -- -- --
0130:                                            32 18                2.
0140: 80 1F 00 2E 80 2F 80 02  80 1F 01 4A 3B 50 03 01  ...../.....J;P..
0150: 7E 50 03 01 00                                    ~P...           
```

#### Opcodes

```
  0: 0x013E [0x32] ExtData[1]->MainSpeed = 13* * 0.1
  1: 0x0141 [0x1F] MOVE_ENTITY: EventEntity moves to X=-0.622*, Z=-6.843*, Y=0.000*
  2: 0x0149 [0x1F] MOVE_ENTITY: Update entity position (mode=1)
  3: 0x014B [0x4A] Sisiroon (ID: 16994363/0x0103503B) looks at Kakkaroon (ID: 16994430/0x0103507E)
  4: 0x0154 [0x00] END_REQSTACK()
```

### Event 65535.12

#### Metadata

| Field        | Value    |
|--------------|----------|
| Entrypoint   | 0x0155   |
| Data Size    | 23 bytes |
| Instructions | 5        |

```
      00 01 02 03 04 05 06 07  08 09 0A 0B 0C 0D 0E 0F
      -- -- -- -- -- -- -- --  -- -- -- -- -- -- -- --
0150:                32 2D 80  1F 00 30 80 31 80 02 80       2-...0.1...
0160: 1F 01 4A 3B 50 03 01 7E  50 03 01 00              ..J;P..~P...    
```

#### Opcodes

```
  0: 0x0155 [0x32] ExtData[1]->MainSpeed = 40* * 0.1
  1: 0x0158 [0x1F] MOVE_ENTITY: EventEntity moves to X=3.189*, Z=-32.905*, Y=0.000*
  2: 0x0160 [0x1F] MOVE_ENTITY: Update entity position (mode=1)
  3: 0x0162 [0x4A] Sisiroon (ID: 16994363/0x0103503B) looks at Kakkaroon (ID: 16994430/0x0103507E)
  4: 0x016B [0x00] END_REQSTACK()
```
