# 16994365 - Tataroon

## Common Data

| Field            | Value            |
|------------------|------------------|
| Zone             | Nashmau (ID: 53) |
| Block Size       | 244 bytes        |
| Total Events     | 7                |
| References Count | 14               |

## List of Events

| Event ID                 | Entrypoint   |   Size |   Instructions |
|--------------------------|--------------|--------|----------------|
| [65535](#event-65535)    | 0x0000       |      1 |              1 |
| [270](#event-270)        | 0x0001       |     88 |             16 |
| [303](#event-303)        | 0x0059       |      1 |              1 |
| [305](#event-305)        | 0x005A       |      1 |              1 |
| [65535.1](#event-655351) | 0x005B       |     10 |              2 |
| [65535.2](#event-655352) | 0x0065       |     20 |              4 |
| [65535.3](#event-655353) | 0x0079       |     20 |              4 |

## DAT References (imed_data)

|   Index | Hex Value   |   Dec Value |
|---------|-------------|-------------|
|       0 | 0x001E      |          30 |
|       1 | 0x034A      |         842 |
|       2 | 0x2954      |       10580 |
|       3 | 0x2955      |       10581 |
|       4 | 0x2956      |       10582 |
|       5 | 0x005A      |          90 |
|       6 | 0xFFFFBC1B  |  4294949915 |
|       7 | 0xFFFF686F  |  4294928495 |
|       8 | 0x0000      |           0 |
|       9 | 0x096F      |        2415 |
|      10 | 0xFFFFBA81  |  4294949505 |
|      11 | 0xFFFF6CC6  |  4294929606 |
|      12 | 0xFFFFC071  |  4294951025 |
|      13 | 0xFFFF788C  |  4294932620 |

## String References

- **10580**: Al Ziiibi is capital of Aht Urhgun, yes? There many Qiqirn in Al Ziiibi, but they all croool. Tataroon bet they smell bad, tooo.
- **10581**: But Tataroon friends all want go to capital. They say it different than Nashmau. They say it greeeat.
- **10582**: Maybe Tataroon friends become rotten Qiqirn, too?

## Events

### Event 65535

#### Metadata

| Field        | Value   |
|--------------|---------|
| Entrypoint   | 0x0000  |
| Data Size    | 1 bytes |
| Instructions | 1       |

```
      00 01 02 03 04 05 06 07  08 09 0A 0B 0C 0D 0E 0F
      -- -- -- -- -- -- -- --  -- -- -- -- -- -- -- --
0000: 00                                                .               
```

#### Opcodes

```
  0: 0x0000 [0x00] END_REQSTACK()
```

### Event 270

#### Metadata

| Field        | Value    |
|--------------|----------|
| Entrypoint   | 0x0001   |
| Data Size    | 88 bytes |
| Instructions | 16       |

```
      00 01 02 03 04 05 06 07  08 09 0A 0B 0C 0D 0E 0F
      -- -- -- -- -- -- -- --  -- -- -- -- -- -- -- --
0000:    1E F0 FF FF 7F 1C 00  80 5B 01 80 F8 FF FF 7F   ........[......
0010: F8 FF FF 7F 74 6C 6B 30  1D 02 80 23 5B 01 80 F8  ....tlk0...#[...
0020: FF FF 7F F8 FF FF 7F 74  6C 6B 31 1D 03 80 23 5B  .......tlk1...#[
0030: 01 80 F8 FF FF 7F F8 FF  FF 7F 74 68 6B 30 1D 04  ..........thk0..
0040: 80 1C 05 80 23 5B 01 80  F8 FF FF 7F F8 FF FF 7F  ....#[..........
0050: 74 68 6B 31 1C 00 80 21  00                       thk1...!.       
```

#### Opcodes

```
  0: 0x0001 [0x1E] EventEntity looks at LocalPlayer and starts talking
  1: 0x0006 [0x1C] WAIT(30* ticks)
  2: 0x0009 [0x5B] LOAD_EXT_SCHEDULER: Load scheduler "tlk0" with entities [EventEntity, EventEntity], work=842*
  3: 0x0018 [0x1D] PRINT_EVENT_MESSAGE(message_id=10580*)
    → "Al Ziiibi is capital of Aht Urhgun, yes? There many Qiqirn in Al Ziiibi, but they all croool. Tataroon bet they smell bad, tooo."
  4: 0x001B [0x23] WAIT_FOR_DIALOG_INTERACTION
  5: 0x001C [0x5B] LOAD_EXT_SCHEDULER: Load scheduler "tlk1" with entities [EventEntity, EventEntity], work=842*
  6: 0x002B [0x1D] PRINT_EVENT_MESSAGE(message_id=10581*)
    → "But Tataroon friends all want go to capital. They say it different than Nashmau. They say it greeeat."
  7: 0x002E [0x23] WAIT_FOR_DIALOG_INTERACTION
  8: 0x002F [0x5B] LOAD_EXT_SCHEDULER: Load scheduler "thk0" with entities [EventEntity, EventEntity], work=842*
  9: 0x003E [0x1D] PRINT_EVENT_MESSAGE(message_id=10582*)
    → "Maybe Tataroon friends become rotten Qiqirn, too?"
 10: 0x0041 [0x1C] WAIT(90* ticks)
 11: 0x0044 [0x23] WAIT_FOR_DIALOG_INTERACTION
 12: 0x0045 [0x5B] LOAD_EXT_SCHEDULER: Load scheduler "thk1" with entities [EventEntity, EventEntity], work=842*
 13: 0x0054 [0x1C] WAIT(30* ticks)
 14: 0x0057 [0x21] END_EVENT
 15: 0x0058 [0x00] END_REQSTACK()
```

### Event 303

#### Metadata

| Field        | Value   |
|--------------|---------|
| Entrypoint   | 0x0059  |
| Data Size    | 1 bytes |
| Instructions | 1       |

```
      00 01 02 03 04 05 06 07  08 09 0A 0B 0C 0D 0E 0F
      -- -- -- -- -- -- -- --  -- -- -- -- -- -- -- --
0050:                             00                             .      
```

#### Opcodes

```
  0: 0x0059 [0x00] END_REQSTACK()
```

### Event 305

#### Metadata

| Field        | Value   |
|--------------|---------|
| Entrypoint   | 0x005A  |
| Data Size    | 1 bytes |
| Instructions | 1       |

```
      00 01 02 03 04 05 06 07  08 09 0A 0B 0C 0D 0E 0F
      -- -- -- -- -- -- -- --  -- -- -- -- -- -- -- --
0050:                                00                           .     
```

#### Opcodes

```
  0: 0x005A [0x00] END_REQSTACK()
```

### Event 65535.1

#### Metadata

| Field        | Value    |
|--------------|----------|
| Entrypoint   | 0x005B   |
| Data Size    | 10 bytes |
| Instructions | 2        |

```
      00 01 02 03 04 05 06 07  08 09 0A 0B 0C 0D 0E 0F
      -- -- -- -- -- -- -- --  -- -- -- -- -- -- -- --
0050:                                   37 06 80 07 80             7....
0060: 08 80 09 80 00                                    .....           
```

#### Opcodes

```
  0: 0x005B [0x37] UPDATE_EVENT_POSITION_AND_DIR: x=-17.381*, z=-38.801*, y=0.000*, direction=212.2°*
  1: 0x0064 [0x00] END_REQSTACK()
```

### Event 65535.2

#### Metadata

| Field        | Value    |
|--------------|----------|
| Entrypoint   | 0x0065   |
| Data Size    | 20 bytes |
| Instructions | 4        |

```
      00 01 02 03 04 05 06 07  08 09 0A 0B 0C 0D 0E 0F
      -- -- -- -- -- -- -- --  -- -- -- -- -- -- -- --
0060:                1F 00 0A  80 0B 80 08 80 1F 01 4A       ..........J
0070: 3D 50 03 01 F0 FF FF 7F  00                       =P.......       
```

#### Opcodes

```
  0: 0x0065 [0x1F] MOVE_ENTITY: EventEntity moves to X=-17.791*, Z=-37.690*, Y=0.000*
  1: 0x006D [0x1F] MOVE_ENTITY: Update entity position (mode=1)
  2: 0x006F [0x4A] Tataroon (ID: 16994365/0x0103503D) looks at LocalPlayer
  3: 0x0078 [0x00] END_REQSTACK()
```

### Event 65535.3

#### Metadata

| Field        | Value    |
|--------------|----------|
| Entrypoint   | 0x0079   |
| Data Size    | 20 bytes |
| Instructions | 4        |

```
      00 01 02 03 04 05 06 07  08 09 0A 0B 0C 0D 0E 0F
      -- -- -- -- -- -- -- --  -- -- -- -- -- -- -- --
0070:                             1F 00 0C 80 0D 80 08           .......
0080: 80 1F 01 4A 3D 50 03 01  78 50 03 01 00           ...J=P..xP...   
```

#### Opcodes

```
  0: 0x0079 [0x1F] MOVE_ENTITY: EventEntity moves to X=-16.271*, Z=-34.676*, Y=0.000*
  1: 0x0081 [0x1F] MOVE_ENTITY: Update entity position (mode=1)
  2: 0x0083 [0x4A] Tataroon (ID: 16994365/0x0103503D) looks at Galiwao (ID: 16994424/0x01035078)
  3: 0x008C [0x00] END_REQSTACK()
```
