# 16994354 - Buburoon

## Common Data

| Field            | Value            |
|------------------|------------------|
| Zone             | Nashmau (ID: 53) |
| Block Size       | 380 bytes        |
| Total Events     | 12               |
| References Count | 33               |

## List of Events

| Event ID                 | Entrypoint   |   Size |   Instructions |
|--------------------------|--------------|--------|----------------|
| [65535](#event-65535)    | 0x0000       |      1 |              1 |
| [259](#event-259)        | 0x0001       |     91 |             17 |
| [291](#event-291)        | 0x005C       |      1 |              1 |
| [65535.1](#event-655351) | 0x005D       |     10 |              2 |
| [65535.2](#event-655352) | 0x0067       |     10 |              2 |
| [65535.3](#event-655353) | 0x0071       |     10 |              2 |
| [65535.4](#event-655354) | 0x007B       |     14 |              4 |
| [65535.5](#event-655355) | 0x0089       |     10 |              2 |
| [65535.6](#event-655356) | 0x0093       |     10 |              2 |
| [281](#event-281)        | 0x009D       |      1 |              1 |
| [65535.7](#event-655357) | 0x009E       |     10 |              2 |
| [65535.8](#event-655358) | 0x00A8       |     14 |              4 |

## DAT References (imed_data)

|   Index | Hex Value   |   Dec Value |
|---------|-------------|-------------|
|       0 | 0x034B      |         843 |
|       1 | 0x001E      |          30 |
|       2 | 0x292B      |       10539 |
|       3 | 0x005A      |          90 |
|       4 | 0x003C      |          60 |
|       5 | 0x292C      |       10540 |
|       6 | 0x292D      |       10541 |
|       7 | 0x3B83      |       15235 |
|       8 | 0xFFFF68A9  |  4294928553 |
|       9 | 0x0000      |           0 |
|      10 | 0x0537      |        1335 |
|      11 | 0x465D      |       18013 |
|      12 | 0xFFFF765F  |  4294932063 |
|      13 | 0x051A      |        1306 |
|      14 | 0x3C4C      |       15436 |
|      15 | 0xFFFF5F5B  |  4294926171 |
|      16 | 0x06E3      |        1763 |
|      17 | 0x000D      |          13 |
|      18 | 0x343B      |       13371 |
|      19 | 0xFFFF5880  |  4294924416 |
|      20 | 0x221F      |        8735 |
|      21 | 0xFFFF8300  |  4294935296 |
|      22 | 0x0501      |        1281 |
|      23 | 0xFFFFFE14  |  4294966804 |
|      24 | 0xFFFF7781  |  4294932353 |
|      25 | 0x0C3A      |        3130 |
|      26 | 0xFFFFC0F5  |  4294951157 |
|      27 | 0xFFFF0E93  |  4294905491 |
|      28 | 0x07CF      |        1999 |
|      29 | 0x0822      |        2082 |
|      30 | 0x0028      |          40 |
|      31 | 0xFFFFA452  |  4294943826 |
|      32 | 0xFFFF22A9  |  4294910633 |

## String References

- **10539**: On ocean, faaar faaar away, you can see ghost ship! Buburoon scaaared! Buburoon excited!
- **10540**: Want to know name of scaaary ship?
- **10541**: It caaalled the "Ashu Talif." That how the people saaay it. They say it once was beaaauty ship, very beauty. But that was long ago. Now ship for ghosteses.

## Events

### Event 65535

#### Metadata

| Field        | Value   |
|--------------|---------|
| Entrypoint   | 0x0000  |
| Data Size    | 1 bytes |
| Instructions | 1       |

```
      00 01 02 03 04 05 06 07  08 09 0A 0B 0C 0D 0E 0F
      -- -- -- -- -- -- -- --  -- -- -- -- -- -- -- --
0000: 00                                                .               
```

#### Opcodes

```
  0: 0x0000 [0x00] END_REQSTACK()
```

### Event 259

#### Metadata

| Field        | Value    |
|--------------|----------|
| Entrypoint   | 0x0001   |
| Data Size    | 91 bytes |
| Instructions | 17       |

```
      00 01 02 03 04 05 06 07  08 09 0A 0B 0C 0D 0E 0F
      -- -- -- -- -- -- -- --  -- -- -- -- -- -- -- --
0000:    5B 00 80 F8 FF FF 7F  F8 FF FF 7F 70 6E 74 30   [..........pnt0
0010: 1C 01 80 1D 02 80 23 5B  00 80 F8 FF FF 7F F8 FF  ......#[........
0020: FF 7F 70 6E 74 31 1C 03  80 1E F0 FF FF 7F 1C 04  ..pnt1..........
0030: 80 5B 00 80 F8 FF FF 7F  F8 FF FF 7F 74 6C 62 30  .[..........tlb0
0040: 1D 05 80 23 1D 06 80 23  5B 00 80 F8 FF FF 7F F8  ...#...#[.......
0050: FF FF 7F 74 6C 62 31 1C  01 80 21 00              ...tlb1...!.    
```

#### Opcodes

```
  0: 0x0001 [0x5B] LOAD_EXT_SCHEDULER: Load scheduler "pnt0" with entities [EventEntity, EventEntity], work=843*
  1: 0x0010 [0x1C] WAIT(30* ticks)
  2: 0x0013 [0x1D] PRINT_EVENT_MESSAGE(message_id=10539*)
    → "On ocean, faaar faaar away, you can see ghost ship! Buburoon scaaared! Buburoon excited!"
  3: 0x0016 [0x23] WAIT_FOR_DIALOG_INTERACTION
  4: 0x0017 [0x5B] LOAD_EXT_SCHEDULER: Load scheduler "pnt1" with entities [EventEntity, EventEntity], work=843*
  5: 0x0026 [0x1C] WAIT(90* ticks)
  6: 0x0029 [0x1E] EventEntity looks at LocalPlayer and starts talking
  7: 0x002E [0x1C] WAIT(60* ticks)
  8: 0x0031 [0x5B] LOAD_EXT_SCHEDULER: Load scheduler "tlb0" with entities [EventEntity, EventEntity], work=843*
  9: 0x0040 [0x1D] PRINT_EVENT_MESSAGE(message_id=10540*)
    → "Want to know name of scaaary ship?"
 10: 0x0043 [0x23] WAIT_FOR_DIALOG_INTERACTION
 11: 0x0044 [0x1D] PRINT_EVENT_MESSAGE(message_id=10541*)
    → "It caaalled the "Ashu Talif." That how the people saaay it. They say it once was beaaauty ship, very beauty. But that was long ago. Now ship for ghosteses."
 12: 0x0047 [0x23] WAIT_FOR_DIALOG_INTERACTION
 13: 0x0048 [0x5B] LOAD_EXT_SCHEDULER: Load scheduler "tlb1" with entities [EventEntity, EventEntity], work=843*
 14: 0x0057 [0x1C] WAIT(30* ticks)
 15: 0x005A [0x21] END_EVENT
 16: 0x005B [0x00] END_REQSTACK()
```

### Event 291

#### Metadata

| Field        | Value   |
|--------------|---------|
| Entrypoint   | 0x005C  |
| Data Size    | 1 bytes |
| Instructions | 1       |

```
      00 01 02 03 04 05 06 07  08 09 0A 0B 0C 0D 0E 0F
      -- -- -- -- -- -- -- --  -- -- -- -- -- -- -- --
0050:                                      00                       .   
```

#### Opcodes

```
  0: 0x005C [0x00] END_REQSTACK()
```

### Event 65535.1

#### Metadata

| Field        | Value    |
|--------------|----------|
| Entrypoint   | 0x005D   |
| Data Size    | 10 bytes |
| Instructions | 2        |

```
      00 01 02 03 04 05 06 07  08 09 0A 0B 0C 0D 0E 0F
      -- -- -- -- -- -- -- --  -- -- -- -- -- -- -- --
0050:                                         37 07 80               7..
0060: 08 80 09 80 0A 80 00                              .......         
```

#### Opcodes

```
  0: 0x005D [0x37] UPDATE_EVENT_POSITION_AND_DIR: x=15.235*, z=-38.743*, y=0.000*, direction=117.3°*
  1: 0x0066 [0x00] END_REQSTACK()
```

### Event 65535.2

#### Metadata

| Field        | Value    |
|--------------|----------|
| Entrypoint   | 0x0067   |
| Data Size    | 10 bytes |
| Instructions | 2        |

```
      00 01 02 03 04 05 06 07  08 09 0A 0B 0C 0D 0E 0F
      -- -- -- -- -- -- -- --  -- -- -- -- -- -- -- --
0060:                      37  0B 80 0C 80 09 80 0D 80         7........
0070: 00                                                .               
```

#### Opcodes

```
  0: 0x0067 [0x37] UPDATE_EVENT_POSITION_AND_DIR: x=18.013*, z=-35.233*, y=0.000*, direction=114.8°*
  1: 0x0070 [0x00] END_REQSTACK()
```

### Event 65535.3

#### Metadata

| Field        | Value    |
|--------------|----------|
| Entrypoint   | 0x0071   |
| Data Size    | 10 bytes |
| Instructions | 2        |

```
      00 01 02 03 04 05 06 07  08 09 0A 0B 0C 0D 0E 0F
      -- -- -- -- -- -- -- --  -- -- -- -- -- -- -- --
0070:    37 0E 80 0F 80 09 80  10 80 00                  7.........     
```

#### Opcodes

```
  0: 0x0071 [0x37] UPDATE_EVENT_POSITION_AND_DIR: x=15.436*, z=-41.125*, y=0.000*, direction=154.9°*
  1: 0x007A [0x00] END_REQSTACK()
```

### Event 65535.4

#### Metadata

| Field        | Value    |
|--------------|----------|
| Entrypoint   | 0x007B   |
| Data Size    | 14 bytes |
| Instructions | 4        |

```
      00 01 02 03 04 05 06 07  08 09 0A 0B 0C 0D 0E 0F
      -- -- -- -- -- -- -- --  -- -- -- -- -- -- -- --
0070:                                   32 11 80 1F 00             2....
0080: 12 80 13 80 09 80 1F 01  00                       .........       
```

#### Opcodes

```
  0: 0x007B [0x32] ExtData[1]->MainSpeed = 13* * 0.1
  1: 0x007E [0x1F] MOVE_ENTITY: EventEntity moves to X=13.371*, Z=-42.880*, Y=0.000*
  2: 0x0086 [0x1F] MOVE_ENTITY: Update entity position (mode=1)
  3: 0x0088 [0x00] END_REQSTACK()
```

### Event 65535.5

#### Metadata

| Field        | Value    |
|--------------|----------|
| Entrypoint   | 0x0089   |
| Data Size    | 10 bytes |
| Instructions | 2        |

```
      00 01 02 03 04 05 06 07  08 09 0A 0B 0C 0D 0E 0F
      -- -- -- -- -- -- -- --  -- -- -- -- -- -- -- --
0080:                             37 14 80 15 80 09 80           7......
0090: 16 80 00                                          ...             
```

#### Opcodes

```
  0: 0x0089 [0x37] UPDATE_EVENT_POSITION_AND_DIR: x=8.735*, z=-32.000*, y=0.000*, direction=112.6°*
  1: 0x0092 [0x00] END_REQSTACK()
```

### Event 65535.6

#### Metadata

| Field        | Value    |
|--------------|----------|
| Entrypoint   | 0x0093   |
| Data Size    | 10 bytes |
| Instructions | 2        |

```
      00 01 02 03 04 05 06 07  08 09 0A 0B 0C 0D 0E 0F
      -- -- -- -- -- -- -- --  -- -- -- -- -- -- -- --
0090:          37 17 80 18 80  09 80 19 80 00              7.........   
```

#### Opcodes

```
  0: 0x0093 [0x37] UPDATE_EVENT_POSITION_AND_DIR: x=-0.492*, z=-34.943*, y=0.000*, direction=275.1°*
  1: 0x009C [0x00] END_REQSTACK()
```

### Event 281

#### Metadata

| Field        | Value   |
|--------------|---------|
| Entrypoint   | 0x009D  |
| Data Size    | 1 bytes |
| Instructions | 1       |

```
      00 01 02 03 04 05 06 07  08 09 0A 0B 0C 0D 0E 0F
      -- -- -- -- -- -- -- --  -- -- -- -- -- -- -- --
0090:                                         00                     .  
```

#### Opcodes

```
  0: 0x009D [0x00] END_REQSTACK()
```

### Event 65535.7

#### Metadata

| Field        | Value    |
|--------------|----------|
| Entrypoint   | 0x009E   |
| Data Size    | 10 bytes |
| Instructions | 2        |

```
      00 01 02 03 04 05 06 07  08 09 0A 0B 0C 0D 0E 0F
      -- -- -- -- -- -- -- --  -- -- -- -- -- -- -- --
0090:                                            37 1A                7.
00A0: 80 1B 80 1C 80 1D 80 00                           ........        
```

#### Opcodes

```
  0: 0x009E [0x37] UPDATE_EVENT_POSITION_AND_DIR: x=-16.139*, z=-61.805*, y=1.999*, direction=183.0°*
  1: 0x00A7 [0x00] END_REQSTACK()
```

### Event 65535.8

#### Metadata

| Field        | Value    |
|--------------|----------|
| Entrypoint   | 0x00A8   |
| Data Size    | 14 bytes |
| Instructions | 4        |

```
      00 01 02 03 04 05 06 07  08 09 0A 0B 0C 0D 0E 0F
      -- -- -- -- -- -- -- --  -- -- -- -- -- -- -- --
00A0:                          32 1E 80 1F 00 1F 80 20          2...... 
00B0: 80 1C 80 1F 01 00                                 ......          
```

#### Opcodes

```
  0: 0x00A8 [0x32] ExtData[1]->MainSpeed = 40* * 0.1
  1: 0x00AB [0x1F] MOVE_ENTITY: EventEntity moves to X=-23.470*, Z=-56.663*, Y=1.999*
  2: 0x00B3 [0x1F] MOVE_ENTITY: Update entity position (mode=1)
  3: 0x00B5 [0x00] END_REQSTACK()
```
