# 16994342 - Jijiroon

## Common Data

| Field            | Value            |
|------------------|------------------|
| Zone             | Nashmau (ID: 53) |
| Block Size       | 384 bytes        |
| Total Events     | 6                |
| References Count | 15               |

## List of Events

| Event ID              | Entrypoint   |   Size |   Instructions |
|-----------------------|--------------|--------|----------------|
| [65535](#event-65535) | 0x0000       |      1 |              1 |
| [1](#event-1)         | 0x0001       |    276 |             48 |
| [245](#event-245)     | 0x0115       |      1 |              1 |
| [303](#event-303)     | 0x0116       |      1 |              1 |
| [311](#event-311)     | 0x0117       |      1 |              1 |
| [312](#event-312)     | 0x0118       |      1 |              1 |

## DAT References (imed_data)

|   Index | Hex Value   |   Dec Value |
|---------|-------------|-------------|
|       0 | 0x0005      |           5 |
|       1 | 0x0000      |           0 |
|       2 | 0x034A      |         842 |
|       3 | 0x28FF      |       10495 |
|       4 | 0x001E      |          30 |
|       5 | 0x0001      |           1 |
|       6 | 0x034B      |         843 |
|       7 | 0x2900      |       10496 |
|       8 | 0x0002      |           2 |
|       9 | 0x2901      |       10497 |
|      10 | 0x0003      |           3 |
|      11 | 0x2902      |       10498 |
|      12 | 0x0004      |           4 |
|      13 | 0x2903      |       10499 |
|      14 | 0x2904      |       10500 |

## String References

- **10495**: Jeuno has maaany, maaany goods at auction, yes? Jijiroon want to go Jeuno someday...
- **10496**: Is Jeuno reaaally bigger than Nashmau? Bigger than two Nashmaus?
- **10497**: Lots of peoples are in Jeuno? Will peoples be friends with Jijiroon?
- **10498**: Jeuno is on top of bridge, yes? So it must be smaaaller than Jijiroon is thinking, yes?
- **10499**: Jeuno has boat that fly in the aaair? Jijiroon also dream about flyiiing, up, up, flying through the aaair.
- **10500**: Jijiroon saaaw boat flying throoo air over Wawaaam Wooodland, and--whoosh!--out flew adventooorer! That loook fun.

## Events

### Event 65535

#### Metadata

| Field        | Value   |
|--------------|---------|
| Entrypoint   | 0x0000  |
| Data Size    | 1 bytes |
| Instructions | 1       |

```
      00 01 02 03 04 05 06 07  08 09 0A 0B 0C 0D 0E 0F
      -- -- -- -- -- -- -- --  -- -- -- -- -- -- -- --
0000: 00                                                .               
```

#### Opcodes

```
  0: 0x0000 [0x00] END_REQSTACK()
```

### Event 1

#### Metadata

| Field        | Value     |
|--------------|-----------|
| Entrypoint   | 0x0001    |
| Data Size    | 276 bytes |
| Instructions | 46        |

```
      00 01 02 03 04 05 06 07  08 09 0A 0B 0C 0D 0E 0F
      -- -- -- -- -- -- -- --  -- -- -- -- -- -- -- --
0000:    1E F0 FF FF 7F 6F 70  13 00 00 00 80 02 00 00   .....op........
0010: 01 80 80 3D 00 5B 02 80  F8 FF FF 7F F8 FF FF 7F  ...=.[..........
0020: 74 68 6B 30 1D 03 80 23  5B 02 80 F8 FF FF 7F F8  thk0...#[.......
0030: FF FF 7F 74 68 6B 31 1C  04 80 01 12 01 02 00 00  ...thk1.........
0040: 05 80 80 5B 00 5B 06 80  F8 FF FF 7F F8 FF FF 7F  ...[.[..........
0050: 68 61 70 30 1D 07 80 23  01 12 01 02 00 00 08 80  hap0...#........
0060: 80 79 00 5B 06 80 F8 FF  FF 7F F8 FF FF 7F 68 61  .y.[..........ha
0070: 70 30 1D 09 80 23 01 12  01 02 00 00 0A 80 80 AC  p0...#..........
0080: 00 5B 06 80 F8 FF FF 7F  F8 FF FF 7F 74 6C 62 30  .[..........tlb0
0090: 1C 04 80 1D 0B 80 23 5B  06 80 F8 FF FF 7F F8 FF  ......#[........
00A0: FF 7F 74 6C 62 31 1C 04  80 01 12 01 02 00 00 0C  ..tlb1..........
00B0: 80 80 DF 00 5B 06 80 F8  FF FF 7F F8 FF FF 7F 74  ....[..........t
00C0: 68 62 30 1C 04 80 1D 0D  80 23 5B 06 80 F8 FF FF  hb0......#[.....
00D0: 7F F8 FF FF 7F 74 68 62  31 1C 04 80 01 12 01 02  .....thb1.......
00E0: 00 00 00 80 80 12 01 5B  06 80 F8 FF FF 7F F8 FF  .......[........
00F0: FF 7F 74 6C 62 30 1C 04  80 1D 0E 80 23 5B 06 80  ..tlb0......#[..
0100: F8 FF FF 7F F8 FF FF 7F  74 6C 62 31 1C 04 80 01  ........tlb1....
0110: 12 01 21 21 00                                    ..!!.           
```

#### Opcodes

```
  0: 0x0001 [0x1E] EventEntity looks at LocalPlayer and starts talking
  1: 0x0006 [0x6F] WAIT_FRAME_DELAY: Yield until WaitTime reaches zero
  2: 0x0007 [0x70] WAIT_ENTITY_RENDER_FLAG: Wait while EventEntity->Render.Flags3 bit 2 is set (cancel turn if not)
  3: 0x0008 [0x13] ExtData[1]->WorkLocal[0] = rand() % 5*
  4: 0x000D [0x02] IF !(ExtData[1]->WorkLocal[0] == 0*) GOTO 0x003D
  5: 0x0015 [0x5B] LOAD_EXT_SCHEDULER: Load scheduler "thk0" with entities [EventEntity, EventEntity], work=842*
  6: 0x0024 [0x1D] PRINT_EVENT_MESSAGE(message_id=10495*)
    → "Jeuno has maaany, maaany goods at auction, yes? Jijiroon want to go Jeuno someday..."
  7: 0x0027 [0x23] WAIT_FOR_DIALOG_INTERACTION
  8: 0x0028 [0x5B] LOAD_EXT_SCHEDULER: Load scheduler "thk1" with entities [EventEntity, EventEntity], work=842*
  9: 0x0037 [0x1C] WAIT(30* ticks)
 10: 0x003A [0x01] GOTO 0x0112
 11: 0x003D [0x02] IF !(ExtData[1]->WorkLocal[0] == 1*) GOTO 0x005B
 12: 0x0045 [0x5B] LOAD_EXT_SCHEDULER: Load scheduler "hap0" with entities [EventEntity, EventEntity], work=843*
 13: 0x0054 [0x1D] PRINT_EVENT_MESSAGE(message_id=10496*)
    → "Is Jeuno reaaally bigger than Nashmau? Bigger than two Nashmaus?"
 14: 0x0057 [0x23] WAIT_FOR_DIALOG_INTERACTION
 15: 0x0058 [0x01] GOTO 0x0112
 16: 0x005B [0x02] IF !(ExtData[1]->WorkLocal[0] == 2*) GOTO 0x0079
 17: 0x0063 [0x5B] LOAD_EXT_SCHEDULER: Load scheduler "hap0" with entities [EventEntity, EventEntity], work=843*
 18: 0x0072 [0x1D] PRINT_EVENT_MESSAGE(message_id=10497*)
    → "Lots of peoples are in Jeuno? Will peoples be friends with Jijiroon?"
 19: 0x0075 [0x23] WAIT_FOR_DIALOG_INTERACTION
 20: 0x0076 [0x01] GOTO 0x0112
 21: 0x0079 [0x02] IF !(ExtData[1]->WorkLocal[0] == 3*) GOTO 0x00AC
 22: 0x0081 [0x5B] LOAD_EXT_SCHEDULER: Load scheduler "tlb0" with entities [EventEntity, EventEntity], work=843*
 23: 0x0090 [0x1C] WAIT(30* ticks)
 24: 0x0093 [0x1D] PRINT_EVENT_MESSAGE(message_id=10498*)
    → "Jeuno is on top of bridge, yes? So it must be smaaaller than Jijiroon is thinking, yes?"
 25: 0x0096 [0x23] WAIT_FOR_DIALOG_INTERACTION
 26: 0x0097 [0x5B] LOAD_EXT_SCHEDULER: Load scheduler "tlb1" with entities [EventEntity, EventEntity], work=843*
 27: 0x00A6 [0x1C] WAIT(30* ticks)
 28: 0x00A9 [0x01] GOTO 0x0112
 29: 0x00AC [0x02] IF !(ExtData[1]->WorkLocal[0] == 4*) GOTO 0x00DF
 30: 0x00B4 [0x5B] LOAD_EXT_SCHEDULER: Load scheduler "thb0" with entities [EventEntity, EventEntity], work=843*
 31: 0x00C3 [0x1C] WAIT(30* ticks)
 32: 0x00C6 [0x1D] PRINT_EVENT_MESSAGE(message_id=10499*)
    → "Jeuno has boat that fly in the aaair? Jijiroon also dream about flyiiing, up, up, flying through the aaair."
 33: 0x00C9 [0x23] WAIT_FOR_DIALOG_INTERACTION
 34: 0x00CA [0x5B] LOAD_EXT_SCHEDULER: Load scheduler "thb1" with entities [EventEntity, EventEntity], work=843*
 35: 0x00D9 [0x1C] WAIT(30* ticks)
 36: 0x00DC [0x01] GOTO 0x0112
 37: 0x00DF [0x02] IF !(ExtData[1]->WorkLocal[0] == 5*) GOTO 0x0112
 38: 0x00E7 [0x5B] LOAD_EXT_SCHEDULER: Load scheduler "tlb0" with entities [EventEntity, EventEntity], work=843*
 39: 0x00F6 [0x1C] WAIT(30* ticks)
 40: 0x00F9 [0x1D] PRINT_EVENT_MESSAGE(message_id=10500*)
    → "Jijiroon saaaw boat flying throoo air over Wawaaam Wooodland, and--whoosh!--out flew adventooorer! That loook fun."
 41: 0x00FC [0x23] WAIT_FOR_DIALOG_INTERACTION
 42: 0x00FD [0x5B] LOAD_EXT_SCHEDULER: Load scheduler "tlb1" with entities [EventEntity, EventEntity], work=843*
 43: 0x010C [0x1C] WAIT(30* ticks)
 44: 0x010F [0x01] GOTO 0x0112

SUBROUTINE_0112:
 45: 0x0112 [0x21] END_EVENT
```

#### Data or dead code:

```
# Dead code (unreachable instructions):
     0x0113 [0x21] END_EVENT
     0x0114 [0x00] END_REQSTACK()
```

### Event 245

#### Metadata

| Field        | Value   |
|--------------|---------|
| Entrypoint   | 0x0115  |
| Data Size    | 1 bytes |
| Instructions | 1       |

```
      00 01 02 03 04 05 06 07  08 09 0A 0B 0C 0D 0E 0F
      -- -- -- -- -- -- -- --  -- -- -- -- -- -- -- --
0110:                00                                      .          
```

#### Opcodes

```
  0: 0x0115 [0x00] END_REQSTACK()
```

### Event 303

#### Metadata

| Field        | Value   |
|--------------|---------|
| Entrypoint   | 0x0116  |
| Data Size    | 1 bytes |
| Instructions | 1       |

```
      00 01 02 03 04 05 06 07  08 09 0A 0B 0C 0D 0E 0F
      -- -- -- -- -- -- -- --  -- -- -- -- -- -- -- --
0110:                   00                                    .         
```

#### Opcodes

```
  0: 0x0116 [0x00] END_REQSTACK()
```

### Event 311

#### Metadata

| Field        | Value   |
|--------------|---------|
| Entrypoint   | 0x0117  |
| Data Size    | 1 bytes |
| Instructions | 1       |

```
      00 01 02 03 04 05 06 07  08 09 0A 0B 0C 0D 0E 0F
      -- -- -- -- -- -- -- --  -- -- -- -- -- -- -- --
0110:                      00                                  .        
```

#### Opcodes

```
  0: 0x0117 [0x00] END_REQSTACK()
```

### Event 312

#### Metadata

| Field        | Value   |
|--------------|---------|
| Entrypoint   | 0x0118  |
| Data Size    | 1 bytes |
| Instructions | 1       |

```
      00 01 02 03 04 05 06 07  08 09 0A 0B 0C 0D 0E 0F
      -- -- -- -- -- -- -- --  -- -- -- -- -- -- -- --
0110:                          00                               .       
```

#### Opcodes

```
  0: 0x0118 [0x00] END_REQSTACK()
```
