# 16994398 - Paparoon

## Common Data

| Field            | Value            |
|------------------|------------------|
| Zone             | Nashmau (ID: 53) |
| Block Size       | 4088 bytes       |
| Total Events     | 15               |
| References Count | 76               |

## List of Events

| Event ID              | Entrypoint   |   Size |   Instructions |
|-----------------------|--------------|--------|----------------|
| [65535](#event-65535) | 0x0000       |      1 |              1 |
| [26](#event-26)       | 0x0001       |     16 |              6 |
| [27](#event-27)       | 0x0011       |      1 |              1 |
| [28](#event-28)       | 0x0012       |    446 |             71 |
| [29](#event-29)       | 0x01D0       |    351 |             66 |
| [30](#event-30)       | 0x032F       |     90 |             14 |
| [31](#event-31)       | 0x0389       |    218 |             40 |
| [334](#event-334)     | 0x0463       |    489 |             99 |
| [335](#event-335)     | 0x064C       |    489 |             99 |
| [336](#event-336)     | 0x0835       |    489 |             99 |
| [337](#event-337)     | 0x0A1E       |    489 |             99 |
| [338](#event-338)     | 0x0C07       |    489 |             99 |
| [32](#event-32)       | 0x0DF0       |     39 |              9 |
| [33](#event-33)       | 0x0E17       |      1 |              1 |
| [34](#event-34)       | 0x0E18       |     98 |             16 |

## DAT References (imed_data)

|   Index | Hex Value   |   Dec Value |
|---------|-------------|-------------|
|       0 | 0x2E05      |       11781 |
|       1 | 0x2DDA      |       11738 |
|       2 | 0x0000      |           0 |
|       3 | 0x0001      |           1 |
|       4 | 0x0002      |           2 |
|       5 | 0x0003      |           3 |
|       6 | 0x2DD9      |       11737 |
|       7 | 0x034B      |         843 |
|       8 | 0x7530      |       30000 |
|       9 | 0x2DE0      |       11744 |
|      10 | 0x2DE1      |       11745 |
|      11 | 0x034A      |         842 |
|      12 | 0x2DE6      |       11750 |
|      13 | 0x2DE5      |       11749 |
|      14 | 0x0371      |         881 |
|      15 | 0x2DED      |       11757 |
|      16 | 0x2DEE      |       11758 |
|      17 | 0x0004      |           4 |
|      18 | 0x2E0E      |       11790 |
|      19 | 0x2E0D      |       11789 |
|      20 | 0x0008      |           8 |
|      21 | 0x2DEF      |       11759 |
|      22 | 0x2DEC      |       11756 |
|      23 | 0x2DF0      |       11760 |
|      24 | 0x2DF1      |       11761 |
|      25 | 0x0063      |          99 |
|      26 | 0x2DF2      |       11762 |
|      27 | 0x2DF3      |       11763 |
|      28 | 0x2E21      |       11809 |
|      29 | 0x2E22      |       11810 |
|      30 | 0x2E23      |       11811 |
|      31 | 0x0D73      |        3443 |
|      32 | 0x09B8      |        2488 |
|      33 | 0x2E24      |       11812 |
|      34 | 0x0078      |         120 |
|      35 | 0x2E25      |       11813 |
|      36 | 0x2E26      |       11814 |
|      37 | 0x2DF4      |       11764 |
|      38 | 0x2DF5      |       11765 |
|      39 | 0x2DF6      |       11766 |
|      40 | 0x2DFC      |       11772 |
|      41 | 0x2DFB      |       11771 |
|      42 | 0x2DFA      |       11770 |
|      43 | 0x2DF9      |       11769 |
|      44 | 0x0005      |           5 |
|      45 | 0x2DF7      |       11767 |
|      46 | 0x001F      |          31 |
|      47 | 0x2DFD      |       11773 |
|      48 | 0x2DFE      |       11774 |
|      49 | 0x2DF8      |       11768 |
|      50 | 0x2E1B      |       11803 |
|      51 | 0x03FE      |        1022 |
|      52 | 0x03FD      |        1021 |
|      53 | 0x03FB      |        1019 |
|      54 | 0x03F7      |        1015 |
|      55 | 0x03EF      |        1007 |
|      56 | 0x03DF      |         991 |
|      57 | 0x03BF      |         959 |
|      58 | 0x0006      |           6 |
|      59 | 0x037F      |         895 |
|      60 | 0x0007      |           7 |
|      61 | 0x02FF      |         767 |
|      62 | 0x01FF      |         511 |
|      63 | 0x0009      |           9 |
|      64 | 0x2E1C      |       11804 |
|      65 | 0x2E14      |       11796 |
|      66 | 0x2E1D      |       11805 |
|      67 | 0x2E1E      |       11806 |
|      68 | 0x2E1F      |       11807 |
|      69 | 0x2E20      |       11808 |
|      70 | 0x2E0F      |       11791 |
|      71 | 0x2E10      |       11792 |
|      72 | 0x2E06      |       11782 |
|      73 | 0x2E07      |       11783 |
|      74 | 0x2E08      |       11784 |
|      75 | 0x2E09      |       11785 |

## String References

- **11737**: What will you ask about? [Alexandrite gems[./ (done).]/Wyrmseeker of Areuhat[./ (done).]/Assault memoires[./ (done).]/Holy relics[./ (done).]/No explanations required.]
- **11796**: Trade the blank memoire to the Rune of Release which appears following successful completion of an Assault mission. This will result in the relevant data being recorded to the pages within.
- **11803**: Your $5 is not yet complete. The following assault mission(s) must still be finished successfully:
- **11804**: [Leujaoam Cleansing/Orichalcum Survey/Escort Professor Clavauert/Shanarha Grass Conservation/Counting Sheep/Supplies Recovery/Azure Experiments/Imperial Code/Red Versus Blue/Bloody Rondo][ and.../.]
- **11805**: [Imperial Agent Rescue/Preemptive Strike/Sagelord Elimination/Breaking Morale/The Double Agent/Imperial Treasure Retrieval/Blitzkrieg/Marids in the Mist/Azure Ailments/The Susanoo Shuffle][ and.../.]
- **11806**: [Excavation Duty/Lebros Supplies/Troll Fugitives/Evade and Escape/Siegemaster Assassination/Apkallu Breeding/Wamoura Farm Raid/Egg Conservation/Operation: Black Pearl/Better than One][ and.../.]
- **11807**: [Seagull Grounded/Requiem/Saving Private Ryaaf/Shooting Down the Baron/Building Bridges/Stop the Bloodshed/Defuse the Threat/Operation Snake Eyes/Wake the Puppet/The Price Is Right][ and.../.]
- **11808**: [Golden Salvage/Lamia No.13/Extermination/Demolition Duty/Searat Salvation/Apkallu Seizure/Lost and Found/Deserter/Desperately Seeking Cephalopods/Bellerophon's Bliss][ and.../.]
- **11812**: If you trade the $0 to Paparoon, all $1 you have entrusted to him thus far will be lost.
- **11813**: Trade the $0? [Yes./No.]
- **11814**: Are you certain? [Yes, make the trade./No, do not trade.]

## Events

### Event 65535

#### Metadata

| Field        | Value   |
|--------------|---------|
| Entrypoint   | 0x0000  |
| Data Size    | 1 bytes |
| Instructions | 1       |

```
      00 01 02 03 04 05 06 07  08 09 0A 0B 0C 0D 0E 0F
      -- -- -- -- -- -- -- --  -- -- -- -- -- -- -- --
0000: 00                                                .               
```

#### Opcodes

```
  0: 0x0000 [0x00] END_REQSTACK()
```

### Event 26

#### Metadata

| Field        | Value    |
|--------------|----------|
| Entrypoint   | 0x0001   |
| Data Size    | 16 bytes |
| Instructions | 6        |

```
      00 01 02 03 04 05 06 07  08 09 0A 0B 0C 0D 0E 0F
      -- -- -- -- -- -- -- --  -- -- -- -- -- -- -- --
0000:    42 1E F0 FF FF 7F 2B  5E 50 03 01 00 80 23 21   B.....+^P....#!
0010: 00                                                .               
```

#### Opcodes

```
  0: 0x0001 [0x42] SET_CLI_EVENT_CANCEL_DATA()
  1: 0x0002 [0x1E] EventEntity looks at LocalPlayer and starts talking
  2: 0x0007 [0x2B] Paparoon (ID: 16994398/0x0103505E) [11781*]:
    → "I's the Paparoon! Imperial army honorary officer, yes? I maybe most famous Qiqirn ever!"
  3: 0x000E [0x23] WAIT_FOR_DIALOG_INTERACTION
  4: 0x000F [0x21] END_EVENT
  5: 0x0010 [0x00] END_REQSTACK()
```

### Event 27

#### Metadata

| Field        | Value   |
|--------------|---------|
| Entrypoint   | 0x0011  |
| Data Size    | 1 bytes |
| Instructions | 1       |

```
      00 01 02 03 04 05 06 07  08 09 0A 0B 0C 0D 0E 0F
      -- -- -- -- -- -- -- --  -- -- -- -- -- -- -- --
0010:    00                                              .              
```

#### Opcodes

```
  0: 0x0011 [0x00] END_REQSTACK()
```

### Event 28

#### Metadata

| Field        | Value     |
|--------------|-----------|
| Entrypoint   | 0x0012    |
| Data Size    | 446 bytes |
| Instructions | 70        |

```
      00 01 02 03 04 05 06 07  08 09 0A 0B 0C 0D 0E 0F
      -- -- -- -- -- -- -- --  -- -- -- -- -- -- -- --
0010:       03 00 00 05 10 1E  F0 FF FF 7F 2B 5E 50 03    ..........+^P.
0020: 01 01 80 23 03 03 00 02  80 03 05 10 02 80 03 06  ...#............
0030: 10 02 80 03 07 10 02 80  03 08 10 02 80 3E 00 00  .............>..
0040: 02 80 49 00 03 05 10 03  80 3E 00 00 03 80 55 00  ..I......>....U.
0050: 03 06 10 03 80 3E 00 00  04 80 61 00 03 07 10 03  .....>....a.....
0060: 80 3E 00 00 05 80 6D 00  03 08 10 03 80 24 06 80  .>....m......$..
0070: 02 80 03 00 25 02 00 10  02 80 00 B8 00 5B 07 80  ....%........[..
0080: 5E 50 03 01 5E 50 03 01  74 6C 62 30 03 02 10 08  ^P..^P..tlb0....
0090: 80 2B 5E 50 03 01 09 80  23 5B 07 80 5E 50 03 01  .+^P....#[..^P..
00A0: 5E 50 03 01 74 6C 62 31  2B 5E 50 03 01 0A 80 23  ^P..tlb1+^P....#
00B0: 0E 03 00 03 80 01 C8 01  02 00 10 03 80 00 F6 00  ................
00C0: 5B 0B 80 5E 50 03 01 5E  50 03 01 74 6C 6B 30 2B  [..^P..^P..tlk0+
00D0: 5E 50 03 01 0C 80 23 5B  0B 80 5E 50 03 01 5E 50  ^P....#[..^P..^P
00E0: 03 01 74 6C 6B 31 2B 5E  50 03 01 0D 80 23 0E 03  ..tlk1+^P....#..
00F0: 00 04 80 01 C8 01 02 00  10 04 80 00 34 01 5B 0E  ............4.[.
0100: 80 5E 50 03 01 5E 50 03  01 77 68 74 30 2B 5E 50  .^P..^P..wht0+^P
0110: 03 01 0F 80 23 5B 0E 80  5E 50 03 01 5E 50 03 01  ....#[..^P..^P..
0120: 77 68 74 31 2B 5E 50 03  01 10 80 23 0E 03 00 11  wht1+^P....#....
0130: 80 01 C8 01 02 00 10 05  80 00 72 01 5B 07 80 5E  ..........r.[..^
0140: 50 03 01 5E 50 03 01 68  61 70 30 2B 5E 50 03 01  P..^P..hap0+^P..
0150: 12 80 23 5B 07 80 5E 50  03 01 5E 50 03 01 68 61  ..#[..^P..^P..ha
0160: 70 31 2B 5E 50 03 01 13  80 23 0E 03 00 14 80 01  p1+^P....#......
0170: C8 01 02 00 10 11 80 00  C8 01 5B 0B 80 5E 50 03  ..........[..^P.
0180: 01 5E 50 03 01 61 6E 67  30 2B 5E 50 03 01 15 80  .^P..ang0+^P....
0190: 23 53 5E 50 03 01 5E 50  03 01 61 6E 67 30 5B 0B  #S^P..^P..ang0[.
01A0: 80 5E 50 03 01 5E 50 03  01 63 72 79 30 53 5E 50  .^P..^P..cry0S^P
01B0: 03 01 5E 50 03 01 63 72  79 30 2B 5E 50 03 01 16  ..^P..cry0+^P...
01C0: 80 23 01 CE 01 01 C8 01  1C 03 80 01 29 00 21 00  .#..........).!.
```

#### Opcodes

```
  0: 0x0012 [0x03] ExtData[1]->WorkLocal[0] = Work_Zone[5]
  1: 0x0017 [0x1E] EventEntity looks at LocalPlayer and starts talking
  2: 0x001C [0x2B] Paparoon (ID: 16994398/0x0103505E) [11738*]:
    → "Hm? Yooo still need to hear some informations? Paparoon's got the goods. Nice, shiny informations!"
  3: 0x0023 [0x23] WAIT_FOR_DIALOG_INTERACTION
  4: 0x0024 [0x03] ExtData[1]->WorkLocal[3] = 0*
  5: 0x0029 [0x03] Work_Zone[5] = 0*
  6: 0x002E [0x03] Work_Zone[6] = 0*
  7: 0x0033 [0x03] Work_Zone[7] = 0*
  8: 0x0038 [0x03] Work_Zone[8] = 0*
  9: 0x003D [0x3E] IF !(ExtData[1]->WorkLocal[0] bit 0*) GOTO 0x0049
 10: 0x0044 [0x03] Work_Zone[5] = 1*
 11: 0x0049 [0x3E] IF !(ExtData[1]->WorkLocal[0] bit 1*) GOTO 0x0055
 12: 0x0050 [0x03] Work_Zone[6] = 1*
 13: 0x0055 [0x3E] IF !(ExtData[1]->WorkLocal[0] bit 2*) GOTO 0x0061
 14: 0x005C [0x03] Work_Zone[7] = 1*
 15: 0x0061 [0x3E] IF !(ExtData[1]->WorkLocal[0] bit 3*) GOTO 0x006D
 16: 0x0068 [0x03] Work_Zone[8] = 1*
 17: 0x006D [0x24] CREATE_DIALOG(message_id=11737*, default_option=0*, option_flags=ExtData[1]->WorkLocal[3])
    → "What will you ask about? [Alexandrite gems[./ (done).]/Wyrmseeker of Areuhat[./ (done).]/Assault memoires[./ (done).]/Holy relics[./ (done).]/No explanations required.]"
 18: 0x0074 [0x25] WAIT_DIALOG_SELECT()
 19: 0x0075 [0x02] IF !(Work_Zone[0] == 0*) GOTO 0x00B8
 20: 0x007D [0x5B] LOAD_EXT_SCHEDULER: Load scheduler "tlb0" with entities [Paparoon (ID: 16994398/0x0103505E), Paparoon (ID: 16994398/0x0103505E)], work=843*
 21: 0x008C [0x03] Work_Zone[2] = 30000*
 22: 0x0091 [0x2B] Paparoon (ID: 16994398/0x0103505E) [11744*]:
    → "Yooo want to go loooking for the alexandrites. They all sooo shiny. Bring me bunch of em, yes? We needs $0, yes?"
 23: 0x0098 [0x23] WAIT_FOR_DIALOG_INTERACTION
 24: 0x0099 [0x5B] LOAD_EXT_SCHEDULER: Load scheduler "tlb1" with entities [Paparoon (ID: 16994398/0x0103505E), Paparoon (ID: 16994398/0x0103505E)], work=843*
 25: 0x00A8 [0x2B] Paparoon (ID: 16994398/0x0103505E) [11745*]:
    → "Make shooore yooo's bring them right back to Paparoon here when you gets them."
 26: 0x00AF [0x23] WAIT_FOR_DIALOG_INTERACTION
 27: 0x00B0 [0x0E] ExtData[1]->WorkLocal[3] |= 1*
 28: 0x00B5 [0x01] GOTO 0x01C8
 29: 0x00B8 [0x02] IF !(Work_Zone[0] == 1*) GOTO 0x00F6
 30: 0x00C0 [0x5B] LOAD_EXT_SCHEDULER: Load scheduler "tlk0" with entities [Paparoon (ID: 16994398/0x0103505E), Paparoon (ID: 16994398/0x0103505E)], work=842*
 31: 0x00CF [0x2B] Paparoon (ID: 16994398/0x0103505E) [11750*]:
    → "Yooo's gonna find da pretty picture boook? Paparoon likes pictures! You find book with story about Areuhat and some wyrms and yooo bring back here, yes?"
 32: 0x00D6 [0x23] WAIT_FOR_DIALOG_INTERACTION
 33: 0x00D7 [0x5B] LOAD_EXT_SCHEDULER: Load scheduler "tlk1" with entities [Paparoon (ID: 16994398/0x0103505E), Paparoon (ID: 16994398/0x0103505E)], work=842*
 34: 0x00E6 [0x2B] Paparoon (ID: 16994398/0x0103505E) [11749*]:
    → "But if yooo's see da pretty picture boook, bring it back to me, yes? Paparoon will take care of things."
 35: 0x00ED [0x23] WAIT_FOR_DIALOG_INTERACTION
 36: 0x00EE [0x0E] ExtData[1]->WorkLocal[3] |= 2*
 37: 0x00F3 [0x01] GOTO 0x01C8
 38: 0x00F6 [0x02] IF !(Work_Zone[0] == 2*) GOTO 0x0134
 39: 0x00FE [0x5B] LOAD_EXT_SCHEDULER: Load scheduler "wht0" with entities [Paparoon (ID: 16994398/0x0103505E), Paparoon (ID: 16994398/0x0103505E)], work=881*
 40: 0x010D [0x2B] Paparoon (ID: 16994398/0x0103505E) [11757*]:
    → "Yooo go and take some assault memooos and then bring them back to me, yes? Nice, special titles. Nice, special memooos."
 41: 0x0114 [0x23] WAIT_FOR_DIALOG_INTERACTION
 42: 0x0115 [0x5B] LOAD_EXT_SCHEDULER: Load scheduler "wht1" with entities [Paparoon (ID: 16994398/0x0103505E), Paparoon (ID: 16994398/0x0103505E)], work=881*
 43: 0x0124 [0x2B] Paparoon (ID: 16994398/0x0103505E) [11758*]:
    → "Yooo take nice, special memooos and bring them back to Paparoon. I be here."
 44: 0x012B [0x23] WAIT_FOR_DIALOG_INTERACTION
 45: 0x012C [0x0E] ExtData[1]->WorkLocal[3] |= 4*
 46: 0x0131 [0x01] GOTO 0x01C8
 47: 0x0134 [0x02] IF !(Work_Zone[0] == 3*) GOTO 0x0172
 48: 0x013C [0x5B] LOAD_EXT_SCHEDULER: Load scheduler "hap0" with entities [Paparoon (ID: 16994398/0x0103505E), Paparoon (ID: 16994398/0x0103505E)], work=843*
 49: 0x014B [0x2B] Paparoon (ID: 16994398/0x0103505E) [11790*]:
    → "Yooo gotta gooo out and find Balrahn's eyepatch. Empress make special request for it. Paparoon thinks it might be verrry important."
 50: 0x0152 [0x23] WAIT_FOR_DIALOG_INTERACTION
 51: 0x0153 [0x5B] LOAD_EXT_SCHEDULER: Load scheduler "hap1" with entities [Paparoon (ID: 16994398/0x0103505E), Paparoon (ID: 16994398/0x0103505E)], work=843*
 52: 0x0162 [0x2B] Paparoon (ID: 16994398/0x0103505E) [11789*]:
    → "But if yooo's can find dat eyepatch, yooo's bring back here to Paparoon, yes? Maybe make Empress verrry happy."
 53: 0x0169 [0x23] WAIT_FOR_DIALOG_INTERACTION
 54: 0x016A [0x0E] ExtData[1]->WorkLocal[3] |= 8*
 55: 0x016F [0x01] GOTO 0x01C8
 56: 0x0172 [0x02] IF !(Work_Zone[0] == 4*) GOTO 0x01C8
 57: 0x017A [0x5B] LOAD_EXT_SCHEDULER: Load scheduler "ang0" with entities [Paparoon (ID: 16994398/0x0103505E), Paparoon (ID: 16994398/0x0103505E)], work=842*
 58: 0x0189 [0x2B] Paparoon (ID: 16994398/0x0103505E) [11759*]:
    → "Yooo don't want to hear no nice, shiny informations? Then why are yooo's talking to Paparoon in first place!?"
 59: 0x0190 [0x23] WAIT_FOR_DIALOG_INTERACTION
 60: 0x0191 [0x53] WAIT_SCHEDULER_TASK: Wait for scheduler "ang0" with entities [Paparoon (ID: 16994398/0x0103505E), Paparoon (ID: 16994398/0x0103505E)]
 61: 0x019E [0x5B] LOAD_EXT_SCHEDULER: Load scheduler "cry0" with entities [Paparoon (ID: 16994398/0x0103505E), Paparoon (ID: 16994398/0x0103505E)], work=842*
 62: 0x01AD [0x53] WAIT_SCHEDULER_TASK: Wait for scheduler "cry0" with entities [Paparoon (ID: 16994398/0x0103505E), Paparoon (ID: 16994398/0x0103505E)]
 63: 0x01BA [0x2B] Paparoon (ID: 16994398/0x0103505E) [11756*]:
    → "Yooo make some more rooom and come back, yes?"
 64: 0x01C1 [0x23] WAIT_FOR_DIALOG_INTERACTION
 65: 0x01C2 [0x01] GOTO 0x01CE

SUBROUTINE_01C8:
 66: 0x01C8 [0x1C] WAIT(1* ticks)
 67: 0x01CB [0x01] GOTO 0x0029

SUBROUTINE_01CE:
 68: 0x01CE [0x21] END_EVENT
 69: 0x01CF [0x00] END_REQSTACK()
```

#### Data or dead code:

```
# Dead code (unreachable instructions):
     0x01C5 [0x01] GOTO 0x01C8
```

### Event 29

#### Metadata

| Field        | Value     |
|--------------|-----------|
| Entrypoint   | 0x01D0    |
| Data Size    | 351 bytes |
| Instructions | 64        |

```
      00 01 02 03 04 05 06 07  08 09 0A 0B 0C 0D 0E 0F
      -- -- -- -- -- -- -- --  -- -- -- -- -- -- -- --
01D0: 42 1E F0 FF FF 7F 02 09  10 02 80 80 20 02 5B 07  B........... .[.
01E0: 80 5E 50 03 01 5E 50 03  01 74 6C 62 30 2B 5E 50  .^P..^P..tlb0+^P
01F0: 03 01 17 80 23 2B 5E 50  03 01 18 80 23 03 01 10  ....#+^P....#...
0200: 19 80 43 00 43 01 5B 07  80 5E 50 03 01 5E 50 03  ..C.C.[..^P..^P.
0210: 01 74 6C 62 31 2B 5E 50  03 01 1A 80 23 01 2D 03  .tlb1+^P....#.-.
0220: 02 09 10 03 80 80 4A 02  5B 07 80 5E 50 03 01 5E  ......J.[..^P..^
0230: 50 03 01 68 61 70 30 2B  5E 50 03 01 17 80 23 2B  P..hap0+^P....#+
0240: 5E 50 03 01 1B 80 23 01  2D 03 02 09 10 04 80 80  ^P....#.-.......
0250: 2D 03 5B 07 80 5E 50 03  01 5E 50 03 01 74 6C 62  -.[..^P..^P..tlb
0260: 30 2B 5E 50 03 01 1C 80  23 5B 07 80 5E 50 03 01  0+^P....#[..^P..
0270: 5E 50 03 01 74 6C 62 31  2B 5E 50 03 01 1D 80 23  ^P..tlb1+^P....#
0280: 2B 5E 50 03 01 1E 80 23  03 02 10 1F 80 03 03 10  +^P....#........
0290: 20 80 48 21 80 1C 22 80  24 23 80 03 80 02 80 25   .H!..".$#.....%
02A0: 02 00 10 03 80 00 D3 02  03 01 10 19 80 43 00 43  .............C.C
02B0: 01 5B 07 80 5E 50 03 01  5E 50 03 01 74 6C 62 31  .[..^P..^P..tlb1
02C0: 2B 5E 50 03 01 1A 80 23  03 01 10 03 80 01 2D 03  +^P....#......-.
02D0: 01 D3 02 24 24 80 03 80  02 80 25 02 00 10 03 80  ...$$.....%.....
02E0: 00 0E 03 03 01 10 19 80  43 00 43 01 5B 07 80 5E  ........C.C.[..^
02F0: 50 03 01 5E 50 03 01 74  6C 62 31 2B 5E 50 03 01  P..^P..tlb1+^P..
0300: 1A 80 23 03 01 10 03 80  01 2D 03 01 0E 03 5B 07  ..#......-....[.
0310: 80 5E 50 03 01 5E 50 03  01 68 61 70 30 2B 5E 50  .^P..^P..hap0+^P
0320: 03 01 1B 80 23 03 01 10  02 80 01 2D 03 21 00     ....#......-.!. 
```

#### Opcodes

```
  0: 0x01D0 [0x42] SET_CLI_EVENT_CANCEL_DATA()
  1: 0x01D1 [0x1E] EventEntity looks at LocalPlayer and starts talking
  2: 0x01D6 [0x02] IF !(Work_Zone[9] == 0*) GOTO 0x0220
  3: 0x01DE [0x5B] LOAD_EXT_SCHEDULER: Load scheduler "tlb0" with entities [Paparoon (ID: 16994398/0x0103505E), Paparoon (ID: 16994398/0x0103505E)], work=843*
  4: 0x01ED [0x2B] Paparoon (ID: 16994398/0x0103505E) [11760*]:
    → "Woooooo, loook at these shinies! Oooh, this does Paparoon good. Yooo awful good at finding the shinies!"
  5: 0x01F4 [0x23] WAIT_FOR_DIALOG_INTERACTION
  6: 0x01F5 [0x2B] Paparoon (ID: 16994398/0x0103505E) [11761*]:
    → "Empress gonna be verrry happy to see all these shinies! Shiny alexandrite be just what Empress asking for!"
  7: 0x01FC [0x23] WAIT_FOR_DIALOG_INTERACTION
  8: 0x01FD [0x03] Work_Zone[1] = 99*
  9: 0x0202 [0x43] SEND_EVENT_UPDATE: Send pending tag to server (packet 0x005B)
 10: 0x0204 [0x43] SEND_EVENT_UPDATE: Check pending flag (skip if not pending)
 11: 0x0206 [0x5B] LOAD_EXT_SCHEDULER: Load scheduler "tlb1" with entities [Paparoon (ID: 16994398/0x0103505E), Paparoon (ID: 16994398/0x0103505E)], work=843*
 12: 0x0215 [0x2B] Paparoon (ID: 16994398/0x0103505E) [11762*]:
    → "Yooo find Paparoon $0 more shinies, yes? I be here!"
 13: 0x021C [0x23] WAIT_FOR_DIALOG_INTERACTION
 14: 0x021D [0x01] GOTO 0x032D
 15: 0x0220 [0x02] IF !(Work_Zone[9] == 1*) GOTO 0x024A
 16: 0x0228 [0x5B] LOAD_EXT_SCHEDULER: Load scheduler "hap0" with entities [Paparoon (ID: 16994398/0x0103505E), Paparoon (ID: 16994398/0x0103505E)], work=843*
 17: 0x0237 [0x2B] Paparoon (ID: 16994398/0x0103505E) [11760*]:
    → "Woooooo, loook at these shinies! Oooh, this does Paparoon good. Yooo awful good at finding the shinies!"
 18: 0x023E [0x23] WAIT_FOR_DIALOG_INTERACTION
 19: 0x023F [0x2B] Paparoon (ID: 16994398/0x0103505E) [11763*]:
    → "Yooo found all the shinies the Empress need! How yooo dooo dat?"
 20: 0x0246 [0x23] WAIT_FOR_DIALOG_INTERACTION
 21: 0x0247 [0x01] GOTO 0x032D
 22: 0x024A [0x02] IF !(Work_Zone[9] == 2*) GOTO 0x032D
 23: 0x0252 [0x5B] LOAD_EXT_SCHEDULER: Load scheduler "tlb0" with entities [Paparoon (ID: 16994398/0x0103505E), Paparoon (ID: 16994398/0x0103505E)], work=843*
 24: 0x0261 [0x2B] Paparoon (ID: 16994398/0x0103505E) [11809*]:
    → "Woooooo! Where you find this soooper shiny sparkly? Paparoon never see nooothing shinier! Oh, thank yooo from the bottom of my heartaroooooon!"
 25: 0x0268 [0x23] WAIT_FOR_DIALOG_INTERACTION
 26: 0x0269 [0x5B] LOAD_EXT_SCHEDULER: Load scheduler "tlb1" with entities [Paparoon (ID: 16994398/0x0103505E), Paparoon (ID: 16994398/0x0103505E)], work=843*
 27: 0x0278 [0x2B] Paparoon (ID: 16994398/0x0103505E) [11810*]:
    → "But, but, but! Paparoon is running out of rooom. You want Paparoon hooold this, Paparoon have to let other shinies gooo."
 28: 0x027F [0x23] WAIT_FOR_DIALOG_INTERACTION
 29: 0x0280 [0x2B] Paparoon (ID: 16994398/0x0103505E) [11811*]:
    → "Yooo okay to say bye-bye to shiny-shinies?"
 30: 0x0287 [0x23] WAIT_FOR_DIALOG_INTERACTION
 31: 0x0288 [0x03] Work_Zone[2] = 3443*
 32: 0x028D [0x03] Work_Zone[3] = 2488*
 33: 0x0292 [0x48] [System] [11812*]:
    → "If you trade the $0 to Paparoon, all $1 you have entrusted to him thus far will be lost."
 34: 0x0295 [0x1C] WAIT(120* ticks)
 35: 0x0298 [0x24] CREATE_DIALOG(message_id=11813*, default_option=1*, option_flags=0*)
    → "Trade the $0? [Yes./No.]"
 36: 0x029F [0x25] WAIT_DIALOG_SELECT()
 37: 0x02A0 [0x02] IF !(Work_Zone[0] == 1*) GOTO 0x02D3
 38: 0x02A8 [0x03] Work_Zone[1] = 99*
 39: 0x02AD [0x43] SEND_EVENT_UPDATE: Send pending tag to server (packet 0x005B)
 40: 0x02AF [0x43] SEND_EVENT_UPDATE: Check pending flag (skip if not pending)
 41: 0x02B1 [0x5B] LOAD_EXT_SCHEDULER: Load scheduler "tlb1" with entities [Paparoon (ID: 16994398/0x0103505E), Paparoon (ID: 16994398/0x0103505E)], work=843*
 42: 0x02C0 [0x2B] Paparoon (ID: 16994398/0x0103505E) [11762*]:
    → "Yooo find Paparoon $0 more shinies, yes? I be here!"
 43: 0x02C7 [0x23] WAIT_FOR_DIALOG_INTERACTION
 44: 0x02C8 [0x03] Work_Zone[1] = 1*
 45: 0x02CD [0x01] GOTO 0x032D

SUBROUTINE_02D3:
 46: 0x02D3 [0x24] CREATE_DIALOG(message_id=11814*, default_option=1*, option_flags=0*)
    → "Are you certain? [Yes, make the trade./No, do not trade.]"
 47: 0x02DA [0x25] WAIT_DIALOG_SELECT()
 48: 0x02DB [0x02] IF !(Work_Zone[0] == 1*) GOTO 0x030E
 49: 0x02E3 [0x03] Work_Zone[1] = 99*
 50: 0x02E8 [0x43] SEND_EVENT_UPDATE: Send pending tag to server (packet 0x005B)
 51: 0x02EA [0x43] SEND_EVENT_UPDATE: Check pending flag (skip if not pending)
 52: 0x02EC [0x5B] LOAD_EXT_SCHEDULER: Load scheduler "tlb1" with entities [Paparoon (ID: 16994398/0x0103505E), Paparoon (ID: 16994398/0x0103505E)], work=843*
 53: 0x02FB [0x2B] Paparoon (ID: 16994398/0x0103505E) [11762*]:
    → "Yooo find Paparoon $0 more shinies, yes? I be here!"
 54: 0x0302 [0x23] WAIT_FOR_DIALOG_INTERACTION
 55: 0x0303 [0x03] Work_Zone[1] = 1*
 56: 0x0308 [0x01] GOTO 0x032D

SUBROUTINE_030E:
 57: 0x030E [0x5B] LOAD_EXT_SCHEDULER: Load scheduler "hap0" with entities [Paparoon (ID: 16994398/0x0103505E), Paparoon (ID: 16994398/0x0103505E)], work=843*
 58: 0x031D [0x2B] Paparoon (ID: 16994398/0x0103505E) [11763*]:
    → "Yooo found all the shinies the Empress need! How yooo dooo dat?"
 59: 0x0324 [0x23] WAIT_FOR_DIALOG_INTERACTION
 60: 0x0325 [0x03] Work_Zone[1] = 0*
 61: 0x032A [0x01] GOTO 0x032D

SUBROUTINE_032D:
 62: 0x032D [0x21] END_EVENT
 63: 0x032E [0x00] END_REQSTACK()
```

#### Data or dead code:

```
# Dead code (unreachable instructions):
     0x02D0 [0x01] GOTO 0x02D3
# Dead code (unreachable instructions):
     0x030B [0x01] GOTO 0x030E
```

### Event 30

#### Metadata

| Field        | Value    |
|--------------|----------|
| Entrypoint   | 0x032F   |
| Data Size    | 90 bytes |
| Instructions | 14       |

```
      00 01 02 03 04 05 06 07  08 09 0A 0B 0C 0D 0E 0F
      -- -- -- -- -- -- -- --  -- -- -- -- -- -- -- --
0320:                                               42                 B
0330: 1E F0 FF FF 7F 5B 07 80  5E 50 03 01 5E 50 03 01  .....[..^P..^P..
0340: 68 61 70 30 2B 5E 50 03  01 25 80 23 2B 5E 50 03  hap0+^P..%.#+^P.
0350: 01 26 80 23 5B 07 80 5E  50 03 01 5E 50 03 01 74  .&.#[..^P..^P..t
0360: 68 62 30 53 5E 50 03 01  5E 50 03 01 74 68 62 30  hb0S^P..^P..thb0
0370: 2B 5E 50 03 01 27 80 23  5B 07 80 5E 50 03 01 5E  +^P..'.#[..^P..^
0380: 50 03 01 74 68 62 31 21  00                       P..thb1!.       
```

#### Opcodes

```
  0: 0x032F [0x42] SET_CLI_EVENT_CANCEL_DATA()
  1: 0x0330 [0x1E] EventEntity looks at LocalPlayer and starts talking
  2: 0x0335 [0x5B] LOAD_EXT_SCHEDULER: Load scheduler "hap0" with entities [Paparoon (ID: 16994398/0x0103505E), Paparoon (ID: 16994398/0x0103505E)], work=843*
  3: 0x0344 [0x2B] Paparoon (ID: 16994398/0x0103505E) [11764*]:
    → "Ooo! This definitely be da nice, pretty story Empress talks about, yes? Look at all these nice, pretty pictures inside. Looks like such a pretty story!"
  4: 0x034B [0x23] WAIT_FOR_DIALOG_INTERACTION
  5: 0x034C [0x2B] Paparoon (ID: 16994398/0x0103505E) [11765*]:
    → "How yooo find the Areuhat I dunno, but goood job! Empress going to be sooo happy. Such a nice, pretty storybook."
  6: 0x0353 [0x23] WAIT_FOR_DIALOG_INTERACTION
  7: 0x0354 [0x5B] LOAD_EXT_SCHEDULER: Load scheduler "thb0" with entities [Paparoon (ID: 16994398/0x0103505E), Paparoon (ID: 16994398/0x0103505E)], work=843*
  8: 0x0363 [0x53] WAIT_SCHEDULER_TASK: Wait for scheduler "thb0" with entities [Paparoon (ID: 16994398/0x0103505E), Paparoon (ID: 16994398/0x0103505E)]
  9: 0x0370 [0x2B] Paparoon (ID: 16994398/0x0103505E) [11766*]:
    → "Me hears it's a rooomantic story, but Paparoon not tooo bright. I doesn't know how to read sooo well, but I shooore do like pictures!"
 10: 0x0377 [0x23] WAIT_FOR_DIALOG_INTERACTION
 11: 0x0378 [0x5B] LOAD_EXT_SCHEDULER: Load scheduler "thb1" with entities [Paparoon (ID: 16994398/0x0103505E), Paparoon (ID: 16994398/0x0103505E)], work=843*
 12: 0x0387 [0x21] END_EVENT
 13: 0x0388 [0x00] END_REQSTACK()
```

### Event 31

#### Metadata

| Field        | Value     |
|--------------|-----------|
| Entrypoint   | 0x0389    |
| Data Size    | 218 bytes |
| Instructions | 40        |

```
      00 01 02 03 04 05 06 07  08 09 0A 0B 0C 0D 0E 0F
      -- -- -- -- -- -- -- --  -- -- -- -- -- -- -- --
0380:                             42 1E F0 FF FF 7F 5B           B.....[
0390: 0E 80 5E 50 03 01 5E 50  03 01 77 68 74 30 53 5E  ..^P..^P..wht0S^
03A0: 50 03 01 5E 50 03 01 77  68 74 30 02 02 10 03 80  P..^P..wht0.....
03B0: 80 BE 03 2B 5E 50 03 01  28 80 23 01 0A 04 02 02  ...+^P..(.#.....
03C0: 10 04 80 80 D1 03 2B 5E  50 03 01 29 80 23 01 0A  ......+^P..).#..
03D0: 04 02 02 10 05 80 80 E4  03 2B 5E 50 03 01 2A 80  .........+^P..*.
03E0: 23 01 0A 04 02 02 10 11  80 80 F7 03 2B 5E 50 03  #...........+^P.
03F0: 01 2B 80 23 01 0A 04 02  02 10 2C 80 80 0A 04 2B  .+.#......,....+
0400: 5E 50 03 01 2D 80 23 01  0A 04 5B 0E 80 5E 50 03  ^P..-.#...[..^P.
0410: 01 5E 50 03 01 77 68 74  31 53 5E 50 03 01 5E 50  .^P..wht1S^P..^P
0420: 03 01 77 68 74 31 03 01  10 19 80 43 00 43 01 02  ..wht1.....C.C..
0430: 02 10 2E 80 00 59 04 5B  07 80 5E 50 03 01 5E 50  .....Y.[..^P..^P
0440: 03 01 68 61 70 30 2B 5E  50 03 01 2F 80 23 2B 5E  ..hap0+^P../.#+^
0450: 50 03 01 30 80 23 01 61  04 2B 5E 50 03 01 31 80  P..0.#.a.+^P..1.
0460: 23 21 00                                          #!.             
```

#### Opcodes

```
  0: 0x0389 [0x42] SET_CLI_EVENT_CANCEL_DATA()
  1: 0x038A [0x1E] EventEntity looks at LocalPlayer and starts talking
  2: 0x038F [0x5B] LOAD_EXT_SCHEDULER: Load scheduler "wht0" with entities [Paparoon (ID: 16994398/0x0103505E), Paparoon (ID: 16994398/0x0103505E)], work=881*
  3: 0x039E [0x53] WAIT_SCHEDULER_TASK: Wait for scheduler "wht0" with entities [Paparoon (ID: 16994398/0x0103505E), Paparoon (ID: 16994398/0x0103505E)]
  4: 0x03AB [0x02] IF !(Work_Zone[2] == 1*) GOTO 0x03BE
  5: 0x03B3 [0x2B] Paparoon (ID: 16994398/0x0103505E) [11772*]:
    → "Look at this nice, special memooo. Paparoon not tooo bright, but thinks this means yooo's did good job somewhere in Ilrooosi. Me hold onto this for now, yes?"
  6: 0x03BA [0x23] WAIT_FOR_DIALOG_INTERACTION
  7: 0x03BB [0x01] GOTO 0x040A
  8: 0x03BE [0x02] IF !(Work_Zone[2] == 2*) GOTO 0x03D1
  9: 0x03C6 [0x2B] Paparoon (ID: 16994398/0x0103505E) [11771*]:
    → "Look at this nice, special memooo. Paparoon not tooo bright, but thinks this means yooo's did good job somewhere in Periqia. Me hold onto this for now, yes?"
 10: 0x03CD [0x23] WAIT_FOR_DIALOG_INTERACTION
 11: 0x03CE [0x01] GOTO 0x040A
 12: 0x03D1 [0x02] IF !(Work_Zone[2] == 3*) GOTO 0x03E4
 13: 0x03D9 [0x2B] Paparoon (ID: 16994398/0x0103505E) [11770*]:
    → "Look at this nice, special memooo. Paparoon not tooo bright, but thinks this means yooo's did good job somewhere in Lebros. Me hold onto this for now, yes?"
 14: 0x03E0 [0x23] WAIT_FOR_DIALOG_INTERACTION
 15: 0x03E1 [0x01] GOTO 0x040A
 16: 0x03E4 [0x02] IF !(Work_Zone[2] == 4*) GOTO 0x03F7
 17: 0x03EC [0x2B] Paparoon (ID: 16994398/0x0103505E) [11769*]:
    → "Look at this nice, special memooo. Paparoon not tooo bright, but thinks this means yooo's did good job somewhere in Mamoool Ja. Me hold onto this for now, yes?"
 18: 0x03F3 [0x23] WAIT_FOR_DIALOG_INTERACTION
 19: 0x03F4 [0x01] GOTO 0x040A
 20: 0x03F7 [0x02] IF !(Work_Zone[2] == 5*) GOTO 0x040A
 21: 0x03FF [0x2B] Paparoon (ID: 16994398/0x0103505E) [11767*]:
    → "Look at this nice, special memooo. Paparoon not tooo bright, but thinks this means yooo's did good job somewhere in Leujaoam. Me hold onto this for now, yes?"
 22: 0x0406 [0x23] WAIT_FOR_DIALOG_INTERACTION
 23: 0x0407 [0x01] GOTO 0x040A

SUBROUTINE_040A:
 24: 0x040A [0x5B] LOAD_EXT_SCHEDULER: Load scheduler "wht1" with entities [Paparoon (ID: 16994398/0x0103505E), Paparoon (ID: 16994398/0x0103505E)], work=881*
 25: 0x0419 [0x53] WAIT_SCHEDULER_TASK: Wait for scheduler "wht1" with entities [Paparoon (ID: 16994398/0x0103505E), Paparoon (ID: 16994398/0x0103505E)]
 26: 0x0426 [0x03] Work_Zone[1] = 99*
 27: 0x042B [0x43] SEND_EVENT_UPDATE: Send pending tag to server (packet 0x005B)
 28: 0x042D [0x43] SEND_EVENT_UPDATE: Check pending flag (skip if not pending)
 29: 0x042F [0x02] IF !(Work_Zone[2] == 31*) GOTO 0x0459
 30: 0x0437 [0x5B] LOAD_EXT_SCHEDULER: Load scheduler "hap0" with entities [Paparoon (ID: 16994398/0x0103505E), Paparoon (ID: 16994398/0x0103505E)], work=843*
 31: 0x0446 [0x2B] Paparoon (ID: 16994398/0x0103505E) [11773*]:
    → "Oooh! Where yooo's get all these special memooos!? Paparoon never seen such specials before!"
 32: 0x044D [0x23] WAIT_FOR_DIALOG_INTERACTION
 33: 0x044E [0x2B] Paparoon (ID: 16994398/0x0103505E) [11774*]:
    → "Yooo dooo such a goood job here! Such special memooos! And five specials! Just like Empress say!"
 34: 0x0455 [0x23] WAIT_FOR_DIALOG_INTERACTION
 35: 0x0456 [0x01] GOTO 0x0461
 36: 0x0459 [0x2B] Paparoon (ID: 16994398/0x0103505E) [11768*]:
    → "Empress be verrry interested in this, me thinks. Such a nice, special memooo!"
 37: 0x0460 [0x23] WAIT_FOR_DIALOG_INTERACTION

SUBROUTINE_0461:
 38: 0x0461 [0x21] END_EVENT
 39: 0x0462 [0x00] END_REQSTACK()
```

### Event 334

#### Metadata

| Field        | Value     |
|--------------|-----------|
| Entrypoint   | 0x0463    |
| Data Size    | 489 bytes |
| Instructions | 99        |

```
      00 01 02 03 04 05 06 07  08 09 0A 0B 0C 0D 0E 0F
      -- -- -- -- -- -- -- --  -- -- -- -- -- -- -- --
0460:          03 01 00 03 10  03 04 10 02 80 03 02 00     .............
0470: 04 10 48 32 80 23 02 02  00 02 80 00 4A 06 02 01  ..H2.#......J...
0480: 00 33 80 00 93 04 03 04  10 03 80 03 03 10 02 80  .3..............
0490: 01 4D 05 02 01 00 34 80  00 A8 04 03 04 10 03 80  .M....4.........
04A0: 03 03 10 03 80 01 4D 05  02 01 00 35 80 00 BD 04  ......M....5....
04B0: 03 04 10 03 80 03 03 10  04 80 01 4D 05 02 01 00  ...........M....
04C0: 36 80 00 D2 04 03 04 10  03 80 03 03 10 05 80 01  6...............
04D0: 4D 05 02 01 00 37 80 00  E7 04 03 04 10 03 80 03  M....7..........
04E0: 03 10 11 80 01 4D 05 02  01 00 38 80 00 FC 04 03  .....M....8.....
04F0: 04 10 03 80 03 03 10 2C  80 01 4D 05 02 01 00 39  .......,..M....9
0500: 80 00 11 05 03 04 10 03  80 03 03 10 3A 80 01 4D  ............:..M
0510: 05 02 01 00 3B 80 00 26  05 03 04 10 03 80 03 03  ....;..&........
0520: 10 3C 80 01 4D 05 02 01  00 3D 80 00 3B 05 03 04  .<..M....=..;...
0530: 10 03 80 03 03 10 14 80  01 4D 05 02 01 00 3E 80  .........M....>.
0540: 00 4D 05 03 04 10 03 80  03 03 10 3F 80 02 04 10  .M.........?....
0550: 03 80 00 64 05 48 40 80  23 03 02 00 03 80 48 41  ...d.H@.#.....HA
0560: 80 23 21 00 3E 01 00 02  80 34 06 3E 01 00 03 80  .#!.>....4.>....
0570: 25 06 3E 01 00 04 80 16  06 3E 01 00 05 80 07 06  %.>......>......
0580: 3E 01 00 11 80 F8 05 3E  01 00 2C 80 E9 05 3E 01  >......>..,...>.
0590: 00 3A 80 DA 05 3E 01 00  3C 80 CB 05 3E 01 00 14  .:...>..<...>...
05A0: 80 BC 05 3E 01 00 3F 80  AD 05 01 B9 05 03 03 10  ...>..?.........
05B0: 3F 80 3C 01 00 3F 80 03  80 01 C8 05 03 03 10 14  ?.<..?..........
05C0: 80 3C 01 00 14 80 03 80  01 D7 05 03 03 10 3C 80  .<............<.
05D0: 3C 01 00 3C 80 03 80 01  E6 05 03 03 10 3A 80 3C  <..<.........:.<
05E0: 01 00 3A 80 03 80 01 F5  05 03 03 10 2C 80 3C 01  ..:.........,.<.
05F0: 00 2C 80 03 80 01 04 06  03 03 10 11 80 3C 01 00  .,...........<..
0600: 11 80 03 80 01 13 06 03  03 10 05 80 3C 01 00 05  ............<...
0610: 80 03 80 01 22 06 03 03  10 04 80 3C 01 00 04 80  ...."......<....
0620: 03 80 01 31 06 03 03 10  03 80 3C 01 00 03 80 03  ...1......<.....
0630: 80 01 40 06 03 03 10 02  80 3C 01 00 02 80 03 80  ..@......<......
0640: 48 40 80 23 1C 03 80 01  76 04 21 00              H@.#....v.!.    
```

#### Opcodes

```
  0: 0x0463 [0x03] ExtData[1]->WorkLocal[1] = Work_Zone[3]
  1: 0x0468 [0x03] Work_Zone[4] = 0*
  2: 0x046D [0x03] ExtData[1]->WorkLocal[2] = Work_Zone[4]
  3: 0x0472 [0x48] [System] [11803*]:
    → "Your $5 is not yet complete. The following assault mission(s) must still be finished successfully:"
  4: 0x0475 [0x23] WAIT_FOR_DIALOG_INTERACTION
  5: 0x0476 [0x02] IF !(ExtData[1]->WorkLocal[2] == 0*) GOTO 0x064A
  6: 0x047E [0x02] IF !(ExtData[1]->WorkLocal[1] == 1022*) GOTO 0x0493
  7: 0x0486 [0x03] Work_Zone[4] = 1*
  8: 0x048B [0x03] Work_Zone[3] = 0*
  9: 0x0490 [0x01] GOTO 0x054D
 10: 0x0493 [0x02] IF !(ExtData[1]->WorkLocal[1] == 1021*) GOTO 0x04A8
 11: 0x049B [0x03] Work_Zone[4] = 1*
 12: 0x04A0 [0x03] Work_Zone[3] = 1*
 13: 0x04A5 [0x01] GOTO 0x054D
 14: 0x04A8 [0x02] IF !(ExtData[1]->WorkLocal[1] == 1019*) GOTO 0x04BD
 15: 0x04B0 [0x03] Work_Zone[4] = 1*
 16: 0x04B5 [0x03] Work_Zone[3] = 2*
 17: 0x04BA [0x01] GOTO 0x054D
 18: 0x04BD [0x02] IF !(ExtData[1]->WorkLocal[1] == 1015*) GOTO 0x04D2
 19: 0x04C5 [0x03] Work_Zone[4] = 1*
 20: 0x04CA [0x03] Work_Zone[3] = 3*
 21: 0x04CF [0x01] GOTO 0x054D
 22: 0x04D2 [0x02] IF !(ExtData[1]->WorkLocal[1] == 1007*) GOTO 0x04E7
 23: 0x04DA [0x03] Work_Zone[4] = 1*
 24: 0x04DF [0x03] Work_Zone[3] = 4*
 25: 0x04E4 [0x01] GOTO 0x054D
 26: 0x04E7 [0x02] IF !(ExtData[1]->WorkLocal[1] == 991*) GOTO 0x04FC
 27: 0x04EF [0x03] Work_Zone[4] = 1*
 28: 0x04F4 [0x03] Work_Zone[3] = 5*
 29: 0x04F9 [0x01] GOTO 0x054D
 30: 0x04FC [0x02] IF !(ExtData[1]->WorkLocal[1] == 959*) GOTO 0x0511
 31: 0x0504 [0x03] Work_Zone[4] = 1*
 32: 0x0509 [0x03] Work_Zone[3] = 6*
 33: 0x050E [0x01] GOTO 0x054D
 34: 0x0511 [0x02] IF !(ExtData[1]->WorkLocal[1] == 895*) GOTO 0x0526
 35: 0x0519 [0x03] Work_Zone[4] = 1*
 36: 0x051E [0x03] Work_Zone[3] = 7*
 37: 0x0523 [0x01] GOTO 0x054D
 38: 0x0526 [0x02] IF !(ExtData[1]->WorkLocal[1] == 767*) GOTO 0x053B
 39: 0x052E [0x03] Work_Zone[4] = 1*
 40: 0x0533 [0x03] Work_Zone[3] = 8*
 41: 0x0538 [0x01] GOTO 0x054D
 42: 0x053B [0x02] IF !(ExtData[1]->WorkLocal[1] == 511*) GOTO 0x054D
 43: 0x0543 [0x03] Work_Zone[4] = 1*
 44: 0x0548 [0x03] Work_Zone[3] = 9*

SUBROUTINE_054D:
 45: 0x054D [0x02] IF !(Work_Zone[4] == 1*) GOTO 0x0564
 46: 0x0555 [0x48] [System] [11804*]:
    → "[Leujaoam Cleansing/Orichalcum Survey/Escort Professor Clavauert/Shanarha Grass Conservation/Counting Sheep/Supplies Recovery/Azure Experiments/Imperial Code/Red Versus Blue/Bloody Rondo][ and.../.]"
 47: 0x0558 [0x23] WAIT_FOR_DIALOG_INTERACTION
 48: 0x0559 [0x03] ExtData[1]->WorkLocal[2] = 1*
 49: 0x055E [0x48] [System] [11796*]:
    → "Trade the blank memoire to the Rune of Release which appears following successful completion of an Assault mission. This will result in the relevant data being recorded to the pages within."
 50: 0x0561 [0x23] WAIT_FOR_DIALOG_INTERACTION
 51: 0x0562 [0x21] END_EVENT
 52: 0x0563 [0x00] END_REQSTACK()
 53: 0x0564 [0x3E] IF !(ExtData[1]->WorkLocal[1] bit 0*) GOTO 0x0634
 54: 0x056B [0x3E] IF !(ExtData[1]->WorkLocal[1] bit 1*) GOTO 0x0625
 55: 0x0572 [0x3E] IF !(ExtData[1]->WorkLocal[1] bit 2*) GOTO 0x0616
 56: 0x0579 [0x3E] IF !(ExtData[1]->WorkLocal[1] bit 3*) GOTO 0x0607
 57: 0x0580 [0x3E] IF !(ExtData[1]->WorkLocal[1] bit 4*) GOTO 0x05F8
 58: 0x0587 [0x3E] IF !(ExtData[1]->WorkLocal[1] bit 5*) GOTO 0x05E9
 59: 0x058E [0x3E] IF !(ExtData[1]->WorkLocal[1] bit 6*) GOTO 0x05DA
 60: 0x0595 [0x3E] IF !(ExtData[1]->WorkLocal[1] bit 7*) GOTO 0x05CB
 61: 0x059C [0x3E] IF !(ExtData[1]->WorkLocal[1] bit 8*) GOTO 0x05BC
 62: 0x05A3 [0x3E] IF !(ExtData[1]->WorkLocal[1] bit 9*) GOTO 0x05AD
 63: 0x05AA [0x01] GOTO 0x05B9
 64: 0x05AD [0x03] Work_Zone[3] = 9*
 65: 0x05B2 [0x3C] SET_BIT_FLAG_CONDITIONAL(target_work_offset=ExtData[1]->WorkLocal[1], bit_index_work_offset=9*, condition_work_offset=1*)

SUBROUTINE_05B9:
 66: 0x05B9 [0x01] GOTO 0x05C8
 67: 0x05BC [0x03] Work_Zone[3] = 8*
 68: 0x05C1 [0x3C] SET_BIT_FLAG_CONDITIONAL(target_work_offset=ExtData[1]->WorkLocal[1], bit_index_work_offset=8*, condition_work_offset=1*)

SUBROUTINE_05C8:
 69: 0x05C8 [0x01] GOTO 0x05D7
 70: 0x05CB [0x03] Work_Zone[3] = 7*
 71: 0x05D0 [0x3C] SET_BIT_FLAG_CONDITIONAL(target_work_offset=ExtData[1]->WorkLocal[1], bit_index_work_offset=7*, condition_work_offset=1*)

SUBROUTINE_05D7:
 72: 0x05D7 [0x01] GOTO 0x05E6
 73: 0x05DA [0x03] Work_Zone[3] = 6*
 74: 0x05DF [0x3C] SET_BIT_FLAG_CONDITIONAL(target_work_offset=ExtData[1]->WorkLocal[1], bit_index_work_offset=6*, condition_work_offset=1*)

SUBROUTINE_05E6:
 75: 0x05E6 [0x01] GOTO 0x05F5
 76: 0x05E9 [0x03] Work_Zone[3] = 5*
 77: 0x05EE [0x3C] SET_BIT_FLAG_CONDITIONAL(target_work_offset=ExtData[1]->WorkLocal[1], bit_index_work_offset=5*, condition_work_offset=1*)

SUBROUTINE_05F5:
 78: 0x05F5 [0x01] GOTO 0x0604
 79: 0x05F8 [0x03] Work_Zone[3] = 4*
 80: 0x05FD [0x3C] SET_BIT_FLAG_CONDITIONAL(target_work_offset=ExtData[1]->WorkLocal[1], bit_index_work_offset=4*, condition_work_offset=1*)

SUBROUTINE_0604:
 81: 0x0604 [0x01] GOTO 0x0613
 82: 0x0607 [0x03] Work_Zone[3] = 3*
 83: 0x060C [0x3C] SET_BIT_FLAG_CONDITIONAL(target_work_offset=ExtData[1]->WorkLocal[1], bit_index_work_offset=3*, condition_work_offset=1*)

SUBROUTINE_0613:
 84: 0x0613 [0x01] GOTO 0x0622
 85: 0x0616 [0x03] Work_Zone[3] = 2*
 86: 0x061B [0x3C] SET_BIT_FLAG_CONDITIONAL(target_work_offset=ExtData[1]->WorkLocal[1], bit_index_work_offset=2*, condition_work_offset=1*)

SUBROUTINE_0622:
 87: 0x0622 [0x01] GOTO 0x0631
 88: 0x0625 [0x03] Work_Zone[3] = 1*
 89: 0x062A [0x3C] SET_BIT_FLAG_CONDITIONAL(target_work_offset=ExtData[1]->WorkLocal[1], bit_index_work_offset=1*, condition_work_offset=1*)

SUBROUTINE_0631:
 90: 0x0631 [0x01] GOTO 0x0640
 91: 0x0634 [0x03] Work_Zone[3] = 0*
 92: 0x0639 [0x3C] SET_BIT_FLAG_CONDITIONAL(target_work_offset=ExtData[1]->WorkLocal[1], bit_index_work_offset=0*, condition_work_offset=1*)

SUBROUTINE_0640:
 93: 0x0640 [0x48] [System] [11804*]:
    → "[Leujaoam Cleansing/Orichalcum Survey/Escort Professor Clavauert/Shanarha Grass Conservation/Counting Sheep/Supplies Recovery/Azure Experiments/Imperial Code/Red Versus Blue/Bloody Rondo][ and.../.]"
 94: 0x0643 [0x23] WAIT_FOR_DIALOG_INTERACTION
 95: 0x0644 [0x1C] WAIT(1* ticks)
 96: 0x0647 [0x01] GOTO 0x0476
 97: 0x064A [0x21] END_EVENT
 98: 0x064B [0x00] END_REQSTACK()
```

### Event 335

#### Metadata

| Field        | Value     |
|--------------|-----------|
| Entrypoint   | 0x064C    |
| Data Size    | 489 bytes |
| Instructions | 99        |

```
      00 01 02 03 04 05 06 07  08 09 0A 0B 0C 0D 0E 0F
      -- -- -- -- -- -- -- --  -- -- -- -- -- -- -- --
0640:                                      03 01 00 03              ....
0650: 10 03 04 10 02 80 03 02  00 04 10 48 32 80 23 02  ...........H2.#.
0660: 02 00 02 80 00 33 08 02  01 00 33 80 00 7C 06 03  .....3....3..|..
0670: 04 10 03 80 03 03 10 02  80 01 36 07 02 01 00 34  ..........6....4
0680: 80 00 91 06 03 04 10 03  80 03 03 10 03 80 01 36  ...............6
0690: 07 02 01 00 35 80 00 A6  06 03 04 10 03 80 03 03  ....5...........
06A0: 10 04 80 01 36 07 02 01  00 36 80 00 BB 06 03 04  ....6....6......
06B0: 10 03 80 03 03 10 05 80  01 36 07 02 01 00 37 80  .........6....7.
06C0: 00 D0 06 03 04 10 03 80  03 03 10 11 80 01 36 07  ..............6.
06D0: 02 01 00 38 80 00 E5 06  03 04 10 03 80 03 03 10  ...8............
06E0: 2C 80 01 36 07 02 01 00  39 80 00 FA 06 03 04 10  ,..6....9.......
06F0: 03 80 03 03 10 3A 80 01  36 07 02 01 00 3B 80 00  .....:..6....;..
0700: 0F 07 03 04 10 03 80 03  03 10 3C 80 01 36 07 02  ..........<..6..
0710: 01 00 3D 80 00 24 07 03  04 10 03 80 03 03 10 14  ..=..$..........
0720: 80 01 36 07 02 01 00 3E  80 00 36 07 03 04 10 03  ..6....>..6.....
0730: 80 03 03 10 3F 80 02 04  10 03 80 00 4D 07 48 42  ....?.......M.HB
0740: 80 23 03 02 00 03 80 48  41 80 23 21 00 3E 01 00  .#.....HA.#!.>..
0750: 02 80 1D 08 3E 01 00 03  80 0E 08 3E 01 00 04 80  ....>......>....
0760: FF 07 3E 01 00 05 80 F0  07 3E 01 00 11 80 E1 07  ..>......>......
0770: 3E 01 00 2C 80 D2 07 3E  01 00 3A 80 C3 07 3E 01  >..,...>..:...>.
0780: 00 3C 80 B4 07 3E 01 00  14 80 A5 07 3E 01 00 3F  .<...>......>..?
0790: 80 96 07 01 A2 07 03 03  10 3F 80 3C 01 00 3F 80  .........?.<..?.
07A0: 03 80 01 B1 07 03 03 10  14 80 3C 01 00 14 80 03  ..........<.....
07B0: 80 01 C0 07 03 03 10 3C  80 3C 01 00 3C 80 03 80  .......<.<..<...
07C0: 01 CF 07 03 03 10 3A 80  3C 01 00 3A 80 03 80 01  ......:.<..:....
07D0: DE 07 03 03 10 2C 80 3C  01 00 2C 80 03 80 01 ED  .....,.<..,.....
07E0: 07 03 03 10 11 80 3C 01  00 11 80 03 80 01 FC 07  ......<.........
07F0: 03 03 10 05 80 3C 01 00  05 80 03 80 01 0B 08 03  .....<..........
0800: 03 10 04 80 3C 01 00 04  80 03 80 01 1A 08 03 03  ....<...........
0810: 10 03 80 3C 01 00 03 80  03 80 01 29 08 03 03 10  ...<.......)....
0820: 02 80 3C 01 00 02 80 03  80 48 42 80 23 1C 03 80  ..<......HB.#...
0830: 01 5F 06 21 00                                    ._.!.           
```

#### Opcodes

```
  0: 0x064C [0x03] ExtData[1]->WorkLocal[1] = Work_Zone[3]
  1: 0x0651 [0x03] Work_Zone[4] = 0*
  2: 0x0656 [0x03] ExtData[1]->WorkLocal[2] = Work_Zone[4]
  3: 0x065B [0x48] [System] [11803*]:
    → "Your $5 is not yet complete. The following assault mission(s) must still be finished successfully:"
  4: 0x065E [0x23] WAIT_FOR_DIALOG_INTERACTION
  5: 0x065F [0x02] IF !(ExtData[1]->WorkLocal[2] == 0*) GOTO 0x0833
  6: 0x0667 [0x02] IF !(ExtData[1]->WorkLocal[1] == 1022*) GOTO 0x067C
  7: 0x066F [0x03] Work_Zone[4] = 1*
  8: 0x0674 [0x03] Work_Zone[3] = 0*
  9: 0x0679 [0x01] GOTO 0x0736
 10: 0x067C [0x02] IF !(ExtData[1]->WorkLocal[1] == 1021*) GOTO 0x0691
 11: 0x0684 [0x03] Work_Zone[4] = 1*
 12: 0x0689 [0x03] Work_Zone[3] = 1*
 13: 0x068E [0x01] GOTO 0x0736
 14: 0x0691 [0x02] IF !(ExtData[1]->WorkLocal[1] == 1019*) GOTO 0x06A6
 15: 0x0699 [0x03] Work_Zone[4] = 1*
 16: 0x069E [0x03] Work_Zone[3] = 2*
 17: 0x06A3 [0x01] GOTO 0x0736
 18: 0x06A6 [0x02] IF !(ExtData[1]->WorkLocal[1] == 1015*) GOTO 0x06BB
 19: 0x06AE [0x03] Work_Zone[4] = 1*
 20: 0x06B3 [0x03] Work_Zone[3] = 3*
 21: 0x06B8 [0x01] GOTO 0x0736
 22: 0x06BB [0x02] IF !(ExtData[1]->WorkLocal[1] == 1007*) GOTO 0x06D0
 23: 0x06C3 [0x03] Work_Zone[4] = 1*
 24: 0x06C8 [0x03] Work_Zone[3] = 4*
 25: 0x06CD [0x01] GOTO 0x0736
 26: 0x06D0 [0x02] IF !(ExtData[1]->WorkLocal[1] == 991*) GOTO 0x06E5
 27: 0x06D8 [0x03] Work_Zone[4] = 1*
 28: 0x06DD [0x03] Work_Zone[3] = 5*
 29: 0x06E2 [0x01] GOTO 0x0736
 30: 0x06E5 [0x02] IF !(ExtData[1]->WorkLocal[1] == 959*) GOTO 0x06FA
 31: 0x06ED [0x03] Work_Zone[4] = 1*
 32: 0x06F2 [0x03] Work_Zone[3] = 6*
 33: 0x06F7 [0x01] GOTO 0x0736
 34: 0x06FA [0x02] IF !(ExtData[1]->WorkLocal[1] == 895*) GOTO 0x070F
 35: 0x0702 [0x03] Work_Zone[4] = 1*
 36: 0x0707 [0x03] Work_Zone[3] = 7*
 37: 0x070C [0x01] GOTO 0x0736
 38: 0x070F [0x02] IF !(ExtData[1]->WorkLocal[1] == 767*) GOTO 0x0724
 39: 0x0717 [0x03] Work_Zone[4] = 1*
 40: 0x071C [0x03] Work_Zone[3] = 8*
 41: 0x0721 [0x01] GOTO 0x0736
 42: 0x0724 [0x02] IF !(ExtData[1]->WorkLocal[1] == 511*) GOTO 0x0736
 43: 0x072C [0x03] Work_Zone[4] = 1*
 44: 0x0731 [0x03] Work_Zone[3] = 9*

SUBROUTINE_0736:
 45: 0x0736 [0x02] IF !(Work_Zone[4] == 1*) GOTO 0x074D
 46: 0x073E [0x48] [System] [11805*]:
    → "[Imperial Agent Rescue/Preemptive Strike/Sagelord Elimination/Breaking Morale/The Double Agent/Imperial Treasure Retrieval/Blitzkrieg/Marids in the Mist/Azure Ailments/The Susanoo Shuffle][ and.../.]"
 47: 0x0741 [0x23] WAIT_FOR_DIALOG_INTERACTION
 48: 0x0742 [0x03] ExtData[1]->WorkLocal[2] = 1*
 49: 0x0747 [0x48] [System] [11796*]:
    → "Trade the blank memoire to the Rune of Release which appears following successful completion of an Assault mission. This will result in the relevant data being recorded to the pages within."
 50: 0x074A [0x23] WAIT_FOR_DIALOG_INTERACTION
 51: 0x074B [0x21] END_EVENT
 52: 0x074C [0x00] END_REQSTACK()
 53: 0x074D [0x3E] IF !(ExtData[1]->WorkLocal[1] bit 0*) GOTO 0x081D
 54: 0x0754 [0x3E] IF !(ExtData[1]->WorkLocal[1] bit 1*) GOTO 0x080E
 55: 0x075B [0x3E] IF !(ExtData[1]->WorkLocal[1] bit 2*) GOTO 0x07FF
 56: 0x0762 [0x3E] IF !(ExtData[1]->WorkLocal[1] bit 3*) GOTO 0x07F0
 57: 0x0769 [0x3E] IF !(ExtData[1]->WorkLocal[1] bit 4*) GOTO 0x07E1
 58: 0x0770 [0x3E] IF !(ExtData[1]->WorkLocal[1] bit 5*) GOTO 0x07D2
 59: 0x0777 [0x3E] IF !(ExtData[1]->WorkLocal[1] bit 6*) GOTO 0x07C3
 60: 0x077E [0x3E] IF !(ExtData[1]->WorkLocal[1] bit 7*) GOTO 0x07B4
 61: 0x0785 [0x3E] IF !(ExtData[1]->WorkLocal[1] bit 8*) GOTO 0x07A5
 62: 0x078C [0x3E] IF !(ExtData[1]->WorkLocal[1] bit 9*) GOTO 0x0796
 63: 0x0793 [0x01] GOTO 0x07A2
 64: 0x0796 [0x03] Work_Zone[3] = 9*
 65: 0x079B [0x3C] SET_BIT_FLAG_CONDITIONAL(target_work_offset=ExtData[1]->WorkLocal[1], bit_index_work_offset=9*, condition_work_offset=1*)

SUBROUTINE_07A2:
 66: 0x07A2 [0x01] GOTO 0x07B1
 67: 0x07A5 [0x03] Work_Zone[3] = 8*
 68: 0x07AA [0x3C] SET_BIT_FLAG_CONDITIONAL(target_work_offset=ExtData[1]->WorkLocal[1], bit_index_work_offset=8*, condition_work_offset=1*)

SUBROUTINE_07B1:
 69: 0x07B1 [0x01] GOTO 0x07C0
 70: 0x07B4 [0x03] Work_Zone[3] = 7*
 71: 0x07B9 [0x3C] SET_BIT_FLAG_CONDITIONAL(target_work_offset=ExtData[1]->WorkLocal[1], bit_index_work_offset=7*, condition_work_offset=1*)

SUBROUTINE_07C0:
 72: 0x07C0 [0x01] GOTO 0x07CF
 73: 0x07C3 [0x03] Work_Zone[3] = 6*
 74: 0x07C8 [0x3C] SET_BIT_FLAG_CONDITIONAL(target_work_offset=ExtData[1]->WorkLocal[1], bit_index_work_offset=6*, condition_work_offset=1*)

SUBROUTINE_07CF:
 75: 0x07CF [0x01] GOTO 0x07DE
 76: 0x07D2 [0x03] Work_Zone[3] = 5*
 77: 0x07D7 [0x3C] SET_BIT_FLAG_CONDITIONAL(target_work_offset=ExtData[1]->WorkLocal[1], bit_index_work_offset=5*, condition_work_offset=1*)

SUBROUTINE_07DE:
 78: 0x07DE [0x01] GOTO 0x07ED
 79: 0x07E1 [0x03] Work_Zone[3] = 4*
 80: 0x07E6 [0x3C] SET_BIT_FLAG_CONDITIONAL(target_work_offset=ExtData[1]->WorkLocal[1], bit_index_work_offset=4*, condition_work_offset=1*)

SUBROUTINE_07ED:
 81: 0x07ED [0x01] GOTO 0x07FC
 82: 0x07F0 [0x03] Work_Zone[3] = 3*
 83: 0x07F5 [0x3C] SET_BIT_FLAG_CONDITIONAL(target_work_offset=ExtData[1]->WorkLocal[1], bit_index_work_offset=3*, condition_work_offset=1*)

SUBROUTINE_07FC:
 84: 0x07FC [0x01] GOTO 0x080B
 85: 0x07FF [0x03] Work_Zone[3] = 2*
 86: 0x0804 [0x3C] SET_BIT_FLAG_CONDITIONAL(target_work_offset=ExtData[1]->WorkLocal[1], bit_index_work_offset=2*, condition_work_offset=1*)

SUBROUTINE_080B:
 87: 0x080B [0x01] GOTO 0x081A
 88: 0x080E [0x03] Work_Zone[3] = 1*
 89: 0x0813 [0x3C] SET_BIT_FLAG_CONDITIONAL(target_work_offset=ExtData[1]->WorkLocal[1], bit_index_work_offset=1*, condition_work_offset=1*)

SUBROUTINE_081A:
 90: 0x081A [0x01] GOTO 0x0829
 91: 0x081D [0x03] Work_Zone[3] = 0*
 92: 0x0822 [0x3C] SET_BIT_FLAG_CONDITIONAL(target_work_offset=ExtData[1]->WorkLocal[1], bit_index_work_offset=0*, condition_work_offset=1*)

SUBROUTINE_0829:
 93: 0x0829 [0x48] [System] [11805*]:
    → "[Imperial Agent Rescue/Preemptive Strike/Sagelord Elimination/Breaking Morale/The Double Agent/Imperial Treasure Retrieval/Blitzkrieg/Marids in the Mist/Azure Ailments/The Susanoo Shuffle][ and.../.]"
 94: 0x082C [0x23] WAIT_FOR_DIALOG_INTERACTION
 95: 0x082D [0x1C] WAIT(1* ticks)
 96: 0x0830 [0x01] GOTO 0x065F
 97: 0x0833 [0x21] END_EVENT
 98: 0x0834 [0x00] END_REQSTACK()
```

### Event 336

#### Metadata

| Field        | Value     |
|--------------|-----------|
| Entrypoint   | 0x0835    |
| Data Size    | 489 bytes |
| Instructions | 99        |

```
      00 01 02 03 04 05 06 07  08 09 0A 0B 0C 0D 0E 0F
      -- -- -- -- -- -- -- --  -- -- -- -- -- -- -- --
0830:                03 01 00  03 10 03 04 10 02 80 03       ...........
0840: 02 00 04 10 48 32 80 23  02 02 00 02 80 00 1C 0A  ....H2.#........
0850: 02 01 00 33 80 00 65 08  03 04 10 03 80 03 03 10  ...3..e.........
0860: 02 80 01 1F 09 02 01 00  34 80 00 7A 08 03 04 10  ........4..z....
0870: 03 80 03 03 10 03 80 01  1F 09 02 01 00 35 80 00  .............5..
0880: 8F 08 03 04 10 03 80 03  03 10 04 80 01 1F 09 02  ................
0890: 01 00 36 80 00 A4 08 03  04 10 03 80 03 03 10 05  ..6.............
08A0: 80 01 1F 09 02 01 00 37  80 00 B9 08 03 04 10 03  .......7........
08B0: 80 03 03 10 11 80 01 1F  09 02 01 00 38 80 00 CE  ............8...
08C0: 08 03 04 10 03 80 03 03  10 2C 80 01 1F 09 02 01  .........,......
08D0: 00 39 80 00 E3 08 03 04  10 03 80 03 03 10 3A 80  .9............:.
08E0: 01 1F 09 02 01 00 3B 80  00 F8 08 03 04 10 03 80  ......;.........
08F0: 03 03 10 3C 80 01 1F 09  02 01 00 3D 80 00 0D 09  ...<.......=....
0900: 03 04 10 03 80 03 03 10  14 80 01 1F 09 02 01 00  ................
0910: 3E 80 00 1F 09 03 04 10  03 80 03 03 10 3F 80 02  >............?..
0920: 04 10 03 80 00 36 09 48  43 80 23 03 02 00 03 80  .....6.HC.#.....
0930: 48 41 80 23 21 00 3E 01  00 02 80 06 0A 3E 01 00  HA.#!.>......>..
0940: 03 80 F7 09 3E 01 00 04  80 E8 09 3E 01 00 05 80  ....>......>....
0950: D9 09 3E 01 00 11 80 CA  09 3E 01 00 2C 80 BB 09  ..>......>..,...
0960: 3E 01 00 3A 80 AC 09 3E  01 00 3C 80 9D 09 3E 01  >..:...>..<...>.
0970: 00 14 80 8E 09 3E 01 00  3F 80 7F 09 01 8B 09 03  .....>..?.......
0980: 03 10 3F 80 3C 01 00 3F  80 03 80 01 9A 09 03 03  ..?.<..?........
0990: 10 14 80 3C 01 00 14 80  03 80 01 A9 09 03 03 10  ...<............
09A0: 3C 80 3C 01 00 3C 80 03  80 01 B8 09 03 03 10 3A  <.<..<.........:
09B0: 80 3C 01 00 3A 80 03 80  01 C7 09 03 03 10 2C 80  .<..:.........,.
09C0: 3C 01 00 2C 80 03 80 01  D6 09 03 03 10 11 80 3C  <..,...........<
09D0: 01 00 11 80 03 80 01 E5  09 03 03 10 05 80 3C 01  ..............<.
09E0: 00 05 80 03 80 01 F4 09  03 03 10 04 80 3C 01 00  .............<..
09F0: 04 80 03 80 01 03 0A 03  03 10 03 80 3C 01 00 03  ............<...
0A00: 80 03 80 01 12 0A 03 03  10 02 80 3C 01 00 02 80  ...........<....
0A10: 03 80 48 43 80 23 1C 03  80 01 48 08 21 00        ..HC.#....H.!.  
```

#### Opcodes

```
  0: 0x0835 [0x03] ExtData[1]->WorkLocal[1] = Work_Zone[3]
  1: 0x083A [0x03] Work_Zone[4] = 0*
  2: 0x083F [0x03] ExtData[1]->WorkLocal[2] = Work_Zone[4]
  3: 0x0844 [0x48] [System] [11803*]:
    → "Your $5 is not yet complete. The following assault mission(s) must still be finished successfully:"
  4: 0x0847 [0x23] WAIT_FOR_DIALOG_INTERACTION
  5: 0x0848 [0x02] IF !(ExtData[1]->WorkLocal[2] == 0*) GOTO 0x0A1C
  6: 0x0850 [0x02] IF !(ExtData[1]->WorkLocal[1] == 1022*) GOTO 0x0865
  7: 0x0858 [0x03] Work_Zone[4] = 1*
  8: 0x085D [0x03] Work_Zone[3] = 0*
  9: 0x0862 [0x01] GOTO 0x091F
 10: 0x0865 [0x02] IF !(ExtData[1]->WorkLocal[1] == 1021*) GOTO 0x087A
 11: 0x086D [0x03] Work_Zone[4] = 1*
 12: 0x0872 [0x03] Work_Zone[3] = 1*
 13: 0x0877 [0x01] GOTO 0x091F
 14: 0x087A [0x02] IF !(ExtData[1]->WorkLocal[1] == 1019*) GOTO 0x088F
 15: 0x0882 [0x03] Work_Zone[4] = 1*
 16: 0x0887 [0x03] Work_Zone[3] = 2*
 17: 0x088C [0x01] GOTO 0x091F
 18: 0x088F [0x02] IF !(ExtData[1]->WorkLocal[1] == 1015*) GOTO 0x08A4
 19: 0x0897 [0x03] Work_Zone[4] = 1*
 20: 0x089C [0x03] Work_Zone[3] = 3*
 21: 0x08A1 [0x01] GOTO 0x091F
 22: 0x08A4 [0x02] IF !(ExtData[1]->WorkLocal[1] == 1007*) GOTO 0x08B9
 23: 0x08AC [0x03] Work_Zone[4] = 1*
 24: 0x08B1 [0x03] Work_Zone[3] = 4*
 25: 0x08B6 [0x01] GOTO 0x091F
 26: 0x08B9 [0x02] IF !(ExtData[1]->WorkLocal[1] == 991*) GOTO 0x08CE
 27: 0x08C1 [0x03] Work_Zone[4] = 1*
 28: 0x08C6 [0x03] Work_Zone[3] = 5*
 29: 0x08CB [0x01] GOTO 0x091F
 30: 0x08CE [0x02] IF !(ExtData[1]->WorkLocal[1] == 959*) GOTO 0x08E3
 31: 0x08D6 [0x03] Work_Zone[4] = 1*
 32: 0x08DB [0x03] Work_Zone[3] = 6*
 33: 0x08E0 [0x01] GOTO 0x091F
 34: 0x08E3 [0x02] IF !(ExtData[1]->WorkLocal[1] == 895*) GOTO 0x08F8
 35: 0x08EB [0x03] Work_Zone[4] = 1*
 36: 0x08F0 [0x03] Work_Zone[3] = 7*
 37: 0x08F5 [0x01] GOTO 0x091F
 38: 0x08F8 [0x02] IF !(ExtData[1]->WorkLocal[1] == 767*) GOTO 0x090D
 39: 0x0900 [0x03] Work_Zone[4] = 1*
 40: 0x0905 [0x03] Work_Zone[3] = 8*
 41: 0x090A [0x01] GOTO 0x091F
 42: 0x090D [0x02] IF !(ExtData[1]->WorkLocal[1] == 511*) GOTO 0x091F
 43: 0x0915 [0x03] Work_Zone[4] = 1*
 44: 0x091A [0x03] Work_Zone[3] = 9*

SUBROUTINE_091F:
 45: 0x091F [0x02] IF !(Work_Zone[4] == 1*) GOTO 0x0936
 46: 0x0927 [0x48] [System] [11806*]:
    → "[Excavation Duty/Lebros Supplies/Troll Fugitives/Evade and Escape/Siegemaster Assassination/Apkallu Breeding/Wamoura Farm Raid/Egg Conservation/Operation: Black Pearl/Better than One][ and.../.]"
 47: 0x092A [0x23] WAIT_FOR_DIALOG_INTERACTION
 48: 0x092B [0x03] ExtData[1]->WorkLocal[2] = 1*
 49: 0x0930 [0x48] [System] [11796*]:
    → "Trade the blank memoire to the Rune of Release which appears following successful completion of an Assault mission. This will result in the relevant data being recorded to the pages within."
 50: 0x0933 [0x23] WAIT_FOR_DIALOG_INTERACTION
 51: 0x0934 [0x21] END_EVENT
 52: 0x0935 [0x00] END_REQSTACK()
 53: 0x0936 [0x3E] IF !(ExtData[1]->WorkLocal[1] bit 0*) GOTO 0x0A06
 54: 0x093D [0x3E] IF !(ExtData[1]->WorkLocal[1] bit 1*) GOTO 0x09F7
 55: 0x0944 [0x3E] IF !(ExtData[1]->WorkLocal[1] bit 2*) GOTO 0x09E8
 56: 0x094B [0x3E] IF !(ExtData[1]->WorkLocal[1] bit 3*) GOTO 0x09D9
 57: 0x0952 [0x3E] IF !(ExtData[1]->WorkLocal[1] bit 4*) GOTO 0x09CA
 58: 0x0959 [0x3E] IF !(ExtData[1]->WorkLocal[1] bit 5*) GOTO 0x09BB
 59: 0x0960 [0x3E] IF !(ExtData[1]->WorkLocal[1] bit 6*) GOTO 0x09AC
 60: 0x0967 [0x3E] IF !(ExtData[1]->WorkLocal[1] bit 7*) GOTO 0x099D
 61: 0x096E [0x3E] IF !(ExtData[1]->WorkLocal[1] bit 8*) GOTO 0x098E
 62: 0x0975 [0x3E] IF !(ExtData[1]->WorkLocal[1] bit 9*) GOTO 0x097F
 63: 0x097C [0x01] GOTO 0x098B
 64: 0x097F [0x03] Work_Zone[3] = 9*
 65: 0x0984 [0x3C] SET_BIT_FLAG_CONDITIONAL(target_work_offset=ExtData[1]->WorkLocal[1], bit_index_work_offset=9*, condition_work_offset=1*)

SUBROUTINE_098B:
 66: 0x098B [0x01] GOTO 0x099A
 67: 0x098E [0x03] Work_Zone[3] = 8*
 68: 0x0993 [0x3C] SET_BIT_FLAG_CONDITIONAL(target_work_offset=ExtData[1]->WorkLocal[1], bit_index_work_offset=8*, condition_work_offset=1*)

SUBROUTINE_099A:
 69: 0x099A [0x01] GOTO 0x09A9
 70: 0x099D [0x03] Work_Zone[3] = 7*
 71: 0x09A2 [0x3C] SET_BIT_FLAG_CONDITIONAL(target_work_offset=ExtData[1]->WorkLocal[1], bit_index_work_offset=7*, condition_work_offset=1*)

SUBROUTINE_09A9:
 72: 0x09A9 [0x01] GOTO 0x09B8
 73: 0x09AC [0x03] Work_Zone[3] = 6*
 74: 0x09B1 [0x3C] SET_BIT_FLAG_CONDITIONAL(target_work_offset=ExtData[1]->WorkLocal[1], bit_index_work_offset=6*, condition_work_offset=1*)

SUBROUTINE_09B8:
 75: 0x09B8 [0x01] GOTO 0x09C7
 76: 0x09BB [0x03] Work_Zone[3] = 5*
 77: 0x09C0 [0x3C] SET_BIT_FLAG_CONDITIONAL(target_work_offset=ExtData[1]->WorkLocal[1], bit_index_work_offset=5*, condition_work_offset=1*)

SUBROUTINE_09C7:
 78: 0x09C7 [0x01] GOTO 0x09D6
 79: 0x09CA [0x03] Work_Zone[3] = 4*
 80: 0x09CF [0x3C] SET_BIT_FLAG_CONDITIONAL(target_work_offset=ExtData[1]->WorkLocal[1], bit_index_work_offset=4*, condition_work_offset=1*)

SUBROUTINE_09D6:
 81: 0x09D6 [0x01] GOTO 0x09E5
 82: 0x09D9 [0x03] Work_Zone[3] = 3*
 83: 0x09DE [0x3C] SET_BIT_FLAG_CONDITIONAL(target_work_offset=ExtData[1]->WorkLocal[1], bit_index_work_offset=3*, condition_work_offset=1*)

SUBROUTINE_09E5:
 84: 0x09E5 [0x01] GOTO 0x09F4
 85: 0x09E8 [0x03] Work_Zone[3] = 2*
 86: 0x09ED [0x3C] SET_BIT_FLAG_CONDITIONAL(target_work_offset=ExtData[1]->WorkLocal[1], bit_index_work_offset=2*, condition_work_offset=1*)

SUBROUTINE_09F4:
 87: 0x09F4 [0x01] GOTO 0x0A03
 88: 0x09F7 [0x03] Work_Zone[3] = 1*
 89: 0x09FC [0x3C] SET_BIT_FLAG_CONDITIONAL(target_work_offset=ExtData[1]->WorkLocal[1], bit_index_work_offset=1*, condition_work_offset=1*)

SUBROUTINE_0A03:
 90: 0x0A03 [0x01] GOTO 0x0A12
 91: 0x0A06 [0x03] Work_Zone[3] = 0*
 92: 0x0A0B [0x3C] SET_BIT_FLAG_CONDITIONAL(target_work_offset=ExtData[1]->WorkLocal[1], bit_index_work_offset=0*, condition_work_offset=1*)

SUBROUTINE_0A12:
 93: 0x0A12 [0x48] [System] [11806*]:
    → "[Excavation Duty/Lebros Supplies/Troll Fugitives/Evade and Escape/Siegemaster Assassination/Apkallu Breeding/Wamoura Farm Raid/Egg Conservation/Operation: Black Pearl/Better than One][ and.../.]"
 94: 0x0A15 [0x23] WAIT_FOR_DIALOG_INTERACTION
 95: 0x0A16 [0x1C] WAIT(1* ticks)
 96: 0x0A19 [0x01] GOTO 0x0848
 97: 0x0A1C [0x21] END_EVENT
 98: 0x0A1D [0x00] END_REQSTACK()
```

### Event 337

#### Metadata

| Field        | Value     |
|--------------|-----------|
| Entrypoint   | 0x0A1E    |
| Data Size    | 489 bytes |
| Instructions | 99        |

```
      00 01 02 03 04 05 06 07  08 09 0A 0B 0C 0D 0E 0F
      -- -- -- -- -- -- -- --  -- -- -- -- -- -- -- --
0A10:                                            03 01                ..
0A20: 00 03 10 03 04 10 02 80  03 02 00 04 10 48 32 80  .............H2.
0A30: 23 02 02 00 02 80 00 05  0C 02 01 00 33 80 00 4E  #...........3..N
0A40: 0A 03 04 10 03 80 03 03  10 02 80 01 08 0B 02 01  ................
0A50: 00 34 80 00 63 0A 03 04  10 03 80 03 03 10 03 80  .4..c...........
0A60: 01 08 0B 02 01 00 35 80  00 78 0A 03 04 10 03 80  ......5..x......
0A70: 03 03 10 04 80 01 08 0B  02 01 00 36 80 00 8D 0A  ...........6....
0A80: 03 04 10 03 80 03 03 10  05 80 01 08 0B 02 01 00  ................
0A90: 37 80 00 A2 0A 03 04 10  03 80 03 03 10 11 80 01  7...............
0AA0: 08 0B 02 01 00 38 80 00  B7 0A 03 04 10 03 80 03  .....8..........
0AB0: 03 10 2C 80 01 08 0B 02  01 00 39 80 00 CC 0A 03  ..,.......9.....
0AC0: 04 10 03 80 03 03 10 3A  80 01 08 0B 02 01 00 3B  .......:.......;
0AD0: 80 00 E1 0A 03 04 10 03  80 03 03 10 3C 80 01 08  ............<...
0AE0: 0B 02 01 00 3D 80 00 F6  0A 03 04 10 03 80 03 03  ....=...........
0AF0: 10 14 80 01 08 0B 02 01  00 3E 80 00 08 0B 03 04  .........>......
0B00: 10 03 80 03 03 10 3F 80  02 04 10 03 80 00 1F 0B  ......?.........
0B10: 48 44 80 23 03 02 00 03  80 48 41 80 23 21 00 3E  HD.#.....HA.#!.>
0B20: 01 00 02 80 EF 0B 3E 01  00 03 80 E0 0B 3E 01 00  ......>......>..
0B30: 04 80 D1 0B 3E 01 00 05  80 C2 0B 3E 01 00 11 80  ....>......>....
0B40: B3 0B 3E 01 00 2C 80 A4  0B 3E 01 00 3A 80 95 0B  ..>..,...>..:...
0B50: 3E 01 00 3C 80 86 0B 3E  01 00 14 80 77 0B 3E 01  >..<...>....w.>.
0B60: 00 3F 80 68 0B 01 74 0B  03 03 10 3F 80 3C 01 00  .?.h..t....?.<..
0B70: 3F 80 03 80 01 83 0B 03  03 10 14 80 3C 01 00 14  ?...........<...
0B80: 80 03 80 01 92 0B 03 03  10 3C 80 3C 01 00 3C 80  .........<.<..<.
0B90: 03 80 01 A1 0B 03 03 10  3A 80 3C 01 00 3A 80 03  ........:.<..:..
0BA0: 80 01 B0 0B 03 03 10 2C  80 3C 01 00 2C 80 03 80  .......,.<..,...
0BB0: 01 BF 0B 03 03 10 11 80  3C 01 00 11 80 03 80 01  ........<.......
0BC0: CE 0B 03 03 10 05 80 3C  01 00 05 80 03 80 01 DD  .......<........
0BD0: 0B 03 03 10 04 80 3C 01  00 04 80 03 80 01 EC 0B  ......<.........
0BE0: 03 03 10 03 80 3C 01 00  03 80 03 80 01 FB 0B 03  .....<..........
0BF0: 03 10 02 80 3C 01 00 02  80 03 80 48 44 80 23 1C  ....<......HD.#.
0C00: 03 80 01 31 0A 21 00                              ...1.!.         
```

#### Opcodes

```
  0: 0x0A1E [0x03] ExtData[1]->WorkLocal[1] = Work_Zone[3]
  1: 0x0A23 [0x03] Work_Zone[4] = 0*
  2: 0x0A28 [0x03] ExtData[1]->WorkLocal[2] = Work_Zone[4]
  3: 0x0A2D [0x48] [System] [11803*]:
    → "Your $5 is not yet complete. The following assault mission(s) must still be finished successfully:"
  4: 0x0A30 [0x23] WAIT_FOR_DIALOG_INTERACTION
  5: 0x0A31 [0x02] IF !(ExtData[1]->WorkLocal[2] == 0*) GOTO 0x0C05
  6: 0x0A39 [0x02] IF !(ExtData[1]->WorkLocal[1] == 1022*) GOTO 0x0A4E
  7: 0x0A41 [0x03] Work_Zone[4] = 1*
  8: 0x0A46 [0x03] Work_Zone[3] = 0*
  9: 0x0A4B [0x01] GOTO 0x0B08
 10: 0x0A4E [0x02] IF !(ExtData[1]->WorkLocal[1] == 1021*) GOTO 0x0A63
 11: 0x0A56 [0x03] Work_Zone[4] = 1*
 12: 0x0A5B [0x03] Work_Zone[3] = 1*
 13: 0x0A60 [0x01] GOTO 0x0B08
 14: 0x0A63 [0x02] IF !(ExtData[1]->WorkLocal[1] == 1019*) GOTO 0x0A78
 15: 0x0A6B [0x03] Work_Zone[4] = 1*
 16: 0x0A70 [0x03] Work_Zone[3] = 2*
 17: 0x0A75 [0x01] GOTO 0x0B08
 18: 0x0A78 [0x02] IF !(ExtData[1]->WorkLocal[1] == 1015*) GOTO 0x0A8D
 19: 0x0A80 [0x03] Work_Zone[4] = 1*
 20: 0x0A85 [0x03] Work_Zone[3] = 3*
 21: 0x0A8A [0x01] GOTO 0x0B08
 22: 0x0A8D [0x02] IF !(ExtData[1]->WorkLocal[1] == 1007*) GOTO 0x0AA2
 23: 0x0A95 [0x03] Work_Zone[4] = 1*
 24: 0x0A9A [0x03] Work_Zone[3] = 4*
 25: 0x0A9F [0x01] GOTO 0x0B08
 26: 0x0AA2 [0x02] IF !(ExtData[1]->WorkLocal[1] == 991*) GOTO 0x0AB7
 27: 0x0AAA [0x03] Work_Zone[4] = 1*
 28: 0x0AAF [0x03] Work_Zone[3] = 5*
 29: 0x0AB4 [0x01] GOTO 0x0B08
 30: 0x0AB7 [0x02] IF !(ExtData[1]->WorkLocal[1] == 959*) GOTO 0x0ACC
 31: 0x0ABF [0x03] Work_Zone[4] = 1*
 32: 0x0AC4 [0x03] Work_Zone[3] = 6*
 33: 0x0AC9 [0x01] GOTO 0x0B08
 34: 0x0ACC [0x02] IF !(ExtData[1]->WorkLocal[1] == 895*) GOTO 0x0AE1
 35: 0x0AD4 [0x03] Work_Zone[4] = 1*
 36: 0x0AD9 [0x03] Work_Zone[3] = 7*
 37: 0x0ADE [0x01] GOTO 0x0B08
 38: 0x0AE1 [0x02] IF !(ExtData[1]->WorkLocal[1] == 767*) GOTO 0x0AF6
 39: 0x0AE9 [0x03] Work_Zone[4] = 1*
 40: 0x0AEE [0x03] Work_Zone[3] = 8*
 41: 0x0AF3 [0x01] GOTO 0x0B08
 42: 0x0AF6 [0x02] IF !(ExtData[1]->WorkLocal[1] == 511*) GOTO 0x0B08
 43: 0x0AFE [0x03] Work_Zone[4] = 1*
 44: 0x0B03 [0x03] Work_Zone[3] = 9*

SUBROUTINE_0B08:
 45: 0x0B08 [0x02] IF !(Work_Zone[4] == 1*) GOTO 0x0B1F
 46: 0x0B10 [0x48] [System] [11807*]:
    → "[Seagull Grounded/Requiem/Saving Private Ryaaf/Shooting Down the Baron/Building Bridges/Stop the Bloodshed/Defuse the Threat/Operation Snake Eyes/Wake the Puppet/The Price Is Right][ and.../.]"
 47: 0x0B13 [0x23] WAIT_FOR_DIALOG_INTERACTION
 48: 0x0B14 [0x03] ExtData[1]->WorkLocal[2] = 1*
 49: 0x0B19 [0x48] [System] [11796*]:
    → "Trade the blank memoire to the Rune of Release which appears following successful completion of an Assault mission. This will result in the relevant data being recorded to the pages within."
 50: 0x0B1C [0x23] WAIT_FOR_DIALOG_INTERACTION
 51: 0x0B1D [0x21] END_EVENT
 52: 0x0B1E [0x00] END_REQSTACK()
 53: 0x0B1F [0x3E] IF !(ExtData[1]->WorkLocal[1] bit 0*) GOTO 0x0BEF
 54: 0x0B26 [0x3E] IF !(ExtData[1]->WorkLocal[1] bit 1*) GOTO 0x0BE0
 55: 0x0B2D [0x3E] IF !(ExtData[1]->WorkLocal[1] bit 2*) GOTO 0x0BD1
 56: 0x0B34 [0x3E] IF !(ExtData[1]->WorkLocal[1] bit 3*) GOTO 0x0BC2
 57: 0x0B3B [0x3E] IF !(ExtData[1]->WorkLocal[1] bit 4*) GOTO 0x0BB3
 58: 0x0B42 [0x3E] IF !(ExtData[1]->WorkLocal[1] bit 5*) GOTO 0x0BA4
 59: 0x0B49 [0x3E] IF !(ExtData[1]->WorkLocal[1] bit 6*) GOTO 0x0B95
 60: 0x0B50 [0x3E] IF !(ExtData[1]->WorkLocal[1] bit 7*) GOTO 0x0B86
 61: 0x0B57 [0x3E] IF !(ExtData[1]->WorkLocal[1] bit 8*) GOTO 0x0B77
 62: 0x0B5E [0x3E] IF !(ExtData[1]->WorkLocal[1] bit 9*) GOTO 0x0B68
 63: 0x0B65 [0x01] GOTO 0x0B74
 64: 0x0B68 [0x03] Work_Zone[3] = 9*
 65: 0x0B6D [0x3C] SET_BIT_FLAG_CONDITIONAL(target_work_offset=ExtData[1]->WorkLocal[1], bit_index_work_offset=9*, condition_work_offset=1*)

SUBROUTINE_0B74:
 66: 0x0B74 [0x01] GOTO 0x0B83
 67: 0x0B77 [0x03] Work_Zone[3] = 8*
 68: 0x0B7C [0x3C] SET_BIT_FLAG_CONDITIONAL(target_work_offset=ExtData[1]->WorkLocal[1], bit_index_work_offset=8*, condition_work_offset=1*)

SUBROUTINE_0B83:
 69: 0x0B83 [0x01] GOTO 0x0B92
 70: 0x0B86 [0x03] Work_Zone[3] = 7*
 71: 0x0B8B [0x3C] SET_BIT_FLAG_CONDITIONAL(target_work_offset=ExtData[1]->WorkLocal[1], bit_index_work_offset=7*, condition_work_offset=1*)

SUBROUTINE_0B92:
 72: 0x0B92 [0x01] GOTO 0x0BA1
 73: 0x0B95 [0x03] Work_Zone[3] = 6*
 74: 0x0B9A [0x3C] SET_BIT_FLAG_CONDITIONAL(target_work_offset=ExtData[1]->WorkLocal[1], bit_index_work_offset=6*, condition_work_offset=1*)

SUBROUTINE_0BA1:
 75: 0x0BA1 [0x01] GOTO 0x0BB0
 76: 0x0BA4 [0x03] Work_Zone[3] = 5*
 77: 0x0BA9 [0x3C] SET_BIT_FLAG_CONDITIONAL(target_work_offset=ExtData[1]->WorkLocal[1], bit_index_work_offset=5*, condition_work_offset=1*)

SUBROUTINE_0BB0:
 78: 0x0BB0 [0x01] GOTO 0x0BBF
 79: 0x0BB3 [0x03] Work_Zone[3] = 4*
 80: 0x0BB8 [0x3C] SET_BIT_FLAG_CONDITIONAL(target_work_offset=ExtData[1]->WorkLocal[1], bit_index_work_offset=4*, condition_work_offset=1*)

SUBROUTINE_0BBF:
 81: 0x0BBF [0x01] GOTO 0x0BCE
 82: 0x0BC2 [0x03] Work_Zone[3] = 3*
 83: 0x0BC7 [0x3C] SET_BIT_FLAG_CONDITIONAL(target_work_offset=ExtData[1]->WorkLocal[1], bit_index_work_offset=3*, condition_work_offset=1*)

SUBROUTINE_0BCE:
 84: 0x0BCE [0x01] GOTO 0x0BDD
 85: 0x0BD1 [0x03] Work_Zone[3] = 2*
 86: 0x0BD6 [0x3C] SET_BIT_FLAG_CONDITIONAL(target_work_offset=ExtData[1]->WorkLocal[1], bit_index_work_offset=2*, condition_work_offset=1*)

SUBROUTINE_0BDD:
 87: 0x0BDD [0x01] GOTO 0x0BEC
 88: 0x0BE0 [0x03] Work_Zone[3] = 1*
 89: 0x0BE5 [0x3C] SET_BIT_FLAG_CONDITIONAL(target_work_offset=ExtData[1]->WorkLocal[1], bit_index_work_offset=1*, condition_work_offset=1*)

SUBROUTINE_0BEC:
 90: 0x0BEC [0x01] GOTO 0x0BFB
 91: 0x0BEF [0x03] Work_Zone[3] = 0*
 92: 0x0BF4 [0x3C] SET_BIT_FLAG_CONDITIONAL(target_work_offset=ExtData[1]->WorkLocal[1], bit_index_work_offset=0*, condition_work_offset=1*)

SUBROUTINE_0BFB:
 93: 0x0BFB [0x48] [System] [11807*]:
    → "[Seagull Grounded/Requiem/Saving Private Ryaaf/Shooting Down the Baron/Building Bridges/Stop the Bloodshed/Defuse the Threat/Operation Snake Eyes/Wake the Puppet/The Price Is Right][ and.../.]"
 94: 0x0BFE [0x23] WAIT_FOR_DIALOG_INTERACTION
 95: 0x0BFF [0x1C] WAIT(1* ticks)
 96: 0x0C02 [0x01] GOTO 0x0A31
 97: 0x0C05 [0x21] END_EVENT
 98: 0x0C06 [0x00] END_REQSTACK()
```

### Event 338

#### Metadata

| Field        | Value     |
|--------------|-----------|
| Entrypoint   | 0x0C07    |
| Data Size    | 489 bytes |
| Instructions | 99        |

```
      00 01 02 03 04 05 06 07  08 09 0A 0B 0C 0D 0E 0F
      -- -- -- -- -- -- -- --  -- -- -- -- -- -- -- --
0C00:                      03  01 00 03 10 03 04 10 02         .........
0C10: 80 03 02 00 04 10 48 32  80 23 02 02 00 02 80 00  ......H2.#......
0C20: EE 0D 02 01 00 33 80 00  37 0C 03 04 10 03 80 03  .....3..7.......
0C30: 03 10 02 80 01 F1 0C 02  01 00 34 80 00 4C 0C 03  ..........4..L..
0C40: 04 10 03 80 03 03 10 03  80 01 F1 0C 02 01 00 35  ...............5
0C50: 80 00 61 0C 03 04 10 03  80 03 03 10 04 80 01 F1  ..a.............
0C60: 0C 02 01 00 36 80 00 76  0C 03 04 10 03 80 03 03  ....6..v........
0C70: 10 05 80 01 F1 0C 02 01  00 37 80 00 8B 0C 03 04  .........7......
0C80: 10 03 80 03 03 10 11 80  01 F1 0C 02 01 00 38 80  ..............8.
0C90: 00 A0 0C 03 04 10 03 80  03 03 10 2C 80 01 F1 0C  ...........,....
0CA0: 02 01 00 39 80 00 B5 0C  03 04 10 03 80 03 03 10  ...9............
0CB0: 3A 80 01 F1 0C 02 01 00  3B 80 00 CA 0C 03 04 10  :.......;.......
0CC0: 03 80 03 03 10 3C 80 01  F1 0C 02 01 00 3D 80 00  .....<.......=..
0CD0: DF 0C 03 04 10 03 80 03  03 10 14 80 01 F1 0C 02  ................
0CE0: 01 00 3E 80 00 F1 0C 03  04 10 03 80 03 03 10 3F  ..>............?
0CF0: 80 02 04 10 03 80 00 08  0D 48 45 80 23 03 02 00  .........HE.#...
0D00: 03 80 48 41 80 23 21 00  3E 01 00 02 80 D8 0D 3E  ..HA.#!.>......>
0D10: 01 00 03 80 C9 0D 3E 01  00 04 80 BA 0D 3E 01 00  ......>......>..
0D20: 05 80 AB 0D 3E 01 00 11  80 9C 0D 3E 01 00 2C 80  ....>......>..,.
0D30: 8D 0D 3E 01 00 3A 80 7E  0D 3E 01 00 3C 80 6F 0D  ..>..:.~.>..<.o.
0D40: 3E 01 00 14 80 60 0D 3E  01 00 3F 80 51 0D 01 5D  >....`.>..?.Q..]
0D50: 0D 03 03 10 3F 80 3C 01  00 3F 80 03 80 01 6C 0D  ....?.<..?....l.
0D60: 03 03 10 14 80 3C 01 00  14 80 03 80 01 7B 0D 03  .....<.......{..
0D70: 03 10 3C 80 3C 01 00 3C  80 03 80 01 8A 0D 03 03  ..<.<..<........
0D80: 10 3A 80 3C 01 00 3A 80  03 80 01 99 0D 03 03 10  .:.<..:.........
0D90: 2C 80 3C 01 00 2C 80 03  80 01 A8 0D 03 03 10 11  ,.<..,..........
0DA0: 80 3C 01 00 11 80 03 80  01 B7 0D 03 03 10 05 80  .<..............
0DB0: 3C 01 00 05 80 03 80 01  C6 0D 03 03 10 04 80 3C  <..............<
0DC0: 01 00 04 80 03 80 01 D5  0D 03 03 10 03 80 3C 01  ..............<.
0DD0: 00 03 80 03 80 01 E4 0D  03 03 10 02 80 3C 01 00  .............<..
0DE0: 02 80 03 80 48 45 80 23  1C 03 80 01 1A 0C 21 00  ....HE.#......!.
```

#### Opcodes

```
  0: 0x0C07 [0x03] ExtData[1]->WorkLocal[1] = Work_Zone[3]
  1: 0x0C0C [0x03] Work_Zone[4] = 0*
  2: 0x0C11 [0x03] ExtData[1]->WorkLocal[2] = Work_Zone[4]
  3: 0x0C16 [0x48] [System] [11803*]:
    → "Your $5 is not yet complete. The following assault mission(s) must still be finished successfully:"
  4: 0x0C19 [0x23] WAIT_FOR_DIALOG_INTERACTION
  5: 0x0C1A [0x02] IF !(ExtData[1]->WorkLocal[2] == 0*) GOTO 0x0DEE
  6: 0x0C22 [0x02] IF !(ExtData[1]->WorkLocal[1] == 1022*) GOTO 0x0C37
  7: 0x0C2A [0x03] Work_Zone[4] = 1*
  8: 0x0C2F [0x03] Work_Zone[3] = 0*
  9: 0x0C34 [0x01] GOTO 0x0CF1
 10: 0x0C37 [0x02] IF !(ExtData[1]->WorkLocal[1] == 1021*) GOTO 0x0C4C
 11: 0x0C3F [0x03] Work_Zone[4] = 1*
 12: 0x0C44 [0x03] Work_Zone[3] = 1*
 13: 0x0C49 [0x01] GOTO 0x0CF1
 14: 0x0C4C [0x02] IF !(ExtData[1]->WorkLocal[1] == 1019*) GOTO 0x0C61
 15: 0x0C54 [0x03] Work_Zone[4] = 1*
 16: 0x0C59 [0x03] Work_Zone[3] = 2*
 17: 0x0C5E [0x01] GOTO 0x0CF1
 18: 0x0C61 [0x02] IF !(ExtData[1]->WorkLocal[1] == 1015*) GOTO 0x0C76
 19: 0x0C69 [0x03] Work_Zone[4] = 1*
 20: 0x0C6E [0x03] Work_Zone[3] = 3*
 21: 0x0C73 [0x01] GOTO 0x0CF1
 22: 0x0C76 [0x02] IF !(ExtData[1]->WorkLocal[1] == 1007*) GOTO 0x0C8B
 23: 0x0C7E [0x03] Work_Zone[4] = 1*
 24: 0x0C83 [0x03] Work_Zone[3] = 4*
 25: 0x0C88 [0x01] GOTO 0x0CF1
 26: 0x0C8B [0x02] IF !(ExtData[1]->WorkLocal[1] == 991*) GOTO 0x0CA0
 27: 0x0C93 [0x03] Work_Zone[4] = 1*
 28: 0x0C98 [0x03] Work_Zone[3] = 5*
 29: 0x0C9D [0x01] GOTO 0x0CF1
 30: 0x0CA0 [0x02] IF !(ExtData[1]->WorkLocal[1] == 959*) GOTO 0x0CB5
 31: 0x0CA8 [0x03] Work_Zone[4] = 1*
 32: 0x0CAD [0x03] Work_Zone[3] = 6*
 33: 0x0CB2 [0x01] GOTO 0x0CF1
 34: 0x0CB5 [0x02] IF !(ExtData[1]->WorkLocal[1] == 895*) GOTO 0x0CCA
 35: 0x0CBD [0x03] Work_Zone[4] = 1*
 36: 0x0CC2 [0x03] Work_Zone[3] = 7*
 37: 0x0CC7 [0x01] GOTO 0x0CF1
 38: 0x0CCA [0x02] IF !(ExtData[1]->WorkLocal[1] == 767*) GOTO 0x0CDF
 39: 0x0CD2 [0x03] Work_Zone[4] = 1*
 40: 0x0CD7 [0x03] Work_Zone[3] = 8*
 41: 0x0CDC [0x01] GOTO 0x0CF1
 42: 0x0CDF [0x02] IF !(ExtData[1]->WorkLocal[1] == 511*) GOTO 0x0CF1
 43: 0x0CE7 [0x03] Work_Zone[4] = 1*
 44: 0x0CEC [0x03] Work_Zone[3] = 9*

SUBROUTINE_0CF1:
 45: 0x0CF1 [0x02] IF !(Work_Zone[4] == 1*) GOTO 0x0D08
 46: 0x0CF9 [0x48] [System] [11808*]:
    → "[Golden Salvage/Lamia No.13/Extermination/Demolition Duty/Searat Salvation/Apkallu Seizure/Lost and Found/Deserter/Desperately Seeking Cephalopods/Bellerophon's Bliss][ and.../.]"
 47: 0x0CFC [0x23] WAIT_FOR_DIALOG_INTERACTION
 48: 0x0CFD [0x03] ExtData[1]->WorkLocal[2] = 1*
 49: 0x0D02 [0x48] [System] [11796*]:
    → "Trade the blank memoire to the Rune of Release which appears following successful completion of an Assault mission. This will result in the relevant data being recorded to the pages within."
 50: 0x0D05 [0x23] WAIT_FOR_DIALOG_INTERACTION
 51: 0x0D06 [0x21] END_EVENT
 52: 0x0D07 [0x00] END_REQSTACK()
 53: 0x0D08 [0x3E] IF !(ExtData[1]->WorkLocal[1] bit 0*) GOTO 0x0DD8
 54: 0x0D0F [0x3E] IF !(ExtData[1]->WorkLocal[1] bit 1*) GOTO 0x0DC9
 55: 0x0D16 [0x3E] IF !(ExtData[1]->WorkLocal[1] bit 2*) GOTO 0x0DBA
 56: 0x0D1D [0x3E] IF !(ExtData[1]->WorkLocal[1] bit 3*) GOTO 0x0DAB
 57: 0x0D24 [0x3E] IF !(ExtData[1]->WorkLocal[1] bit 4*) GOTO 0x0D9C
 58: 0x0D2B [0x3E] IF !(ExtData[1]->WorkLocal[1] bit 5*) GOTO 0x0D8D
 59: 0x0D32 [0x3E] IF !(ExtData[1]->WorkLocal[1] bit 6*) GOTO 0x0D7E
 60: 0x0D39 [0x3E] IF !(ExtData[1]->WorkLocal[1] bit 7*) GOTO 0x0D6F
 61: 0x0D40 [0x3E] IF !(ExtData[1]->WorkLocal[1] bit 8*) GOTO 0x0D60
 62: 0x0D47 [0x3E] IF !(ExtData[1]->WorkLocal[1] bit 9*) GOTO 0x0D51
 63: 0x0D4E [0x01] GOTO 0x0D5D
 64: 0x0D51 [0x03] Work_Zone[3] = 9*
 65: 0x0D56 [0x3C] SET_BIT_FLAG_CONDITIONAL(target_work_offset=ExtData[1]->WorkLocal[1], bit_index_work_offset=9*, condition_work_offset=1*)

SUBROUTINE_0D5D:
 66: 0x0D5D [0x01] GOTO 0x0D6C
 67: 0x0D60 [0x03] Work_Zone[3] = 8*
 68: 0x0D65 [0x3C] SET_BIT_FLAG_CONDITIONAL(target_work_offset=ExtData[1]->WorkLocal[1], bit_index_work_offset=8*, condition_work_offset=1*)

SUBROUTINE_0D6C:
 69: 0x0D6C [0x01] GOTO 0x0D7B
 70: 0x0D6F [0x03] Work_Zone[3] = 7*
 71: 0x0D74 [0x3C] SET_BIT_FLAG_CONDITIONAL(target_work_offset=ExtData[1]->WorkLocal[1], bit_index_work_offset=7*, condition_work_offset=1*)

SUBROUTINE_0D7B:
 72: 0x0D7B [0x01] GOTO 0x0D8A
 73: 0x0D7E [0x03] Work_Zone[3] = 6*
 74: 0x0D83 [0x3C] SET_BIT_FLAG_CONDITIONAL(target_work_offset=ExtData[1]->WorkLocal[1], bit_index_work_offset=6*, condition_work_offset=1*)

SUBROUTINE_0D8A:
 75: 0x0D8A [0x01] GOTO 0x0D99
 76: 0x0D8D [0x03] Work_Zone[3] = 5*
 77: 0x0D92 [0x3C] SET_BIT_FLAG_CONDITIONAL(target_work_offset=ExtData[1]->WorkLocal[1], bit_index_work_offset=5*, condition_work_offset=1*)

SUBROUTINE_0D99:
 78: 0x0D99 [0x01] GOTO 0x0DA8
 79: 0x0D9C [0x03] Work_Zone[3] = 4*
 80: 0x0DA1 [0x3C] SET_BIT_FLAG_CONDITIONAL(target_work_offset=ExtData[1]->WorkLocal[1], bit_index_work_offset=4*, condition_work_offset=1*)

SUBROUTINE_0DA8:
 81: 0x0DA8 [0x01] GOTO 0x0DB7
 82: 0x0DAB [0x03] Work_Zone[3] = 3*
 83: 0x0DB0 [0x3C] SET_BIT_FLAG_CONDITIONAL(target_work_offset=ExtData[1]->WorkLocal[1], bit_index_work_offset=3*, condition_work_offset=1*)

SUBROUTINE_0DB7:
 84: 0x0DB7 [0x01] GOTO 0x0DC6
 85: 0x0DBA [0x03] Work_Zone[3] = 2*
 86: 0x0DBF [0x3C] SET_BIT_FLAG_CONDITIONAL(target_work_offset=ExtData[1]->WorkLocal[1], bit_index_work_offset=2*, condition_work_offset=1*)

SUBROUTINE_0DC6:
 87: 0x0DC6 [0x01] GOTO 0x0DD5
 88: 0x0DC9 [0x03] Work_Zone[3] = 1*
 89: 0x0DCE [0x3C] SET_BIT_FLAG_CONDITIONAL(target_work_offset=ExtData[1]->WorkLocal[1], bit_index_work_offset=1*, condition_work_offset=1*)

SUBROUTINE_0DD5:
 90: 0x0DD5 [0x01] GOTO 0x0DE4
 91: 0x0DD8 [0x03] Work_Zone[3] = 0*
 92: 0x0DDD [0x3C] SET_BIT_FLAG_CONDITIONAL(target_work_offset=ExtData[1]->WorkLocal[1], bit_index_work_offset=0*, condition_work_offset=1*)

SUBROUTINE_0DE4:
 93: 0x0DE4 [0x48] [System] [11808*]:
    → "[Golden Salvage/Lamia No.13/Extermination/Demolition Duty/Searat Salvation/Apkallu Seizure/Lost and Found/Deserter/Desperately Seeking Cephalopods/Bellerophon's Bliss][ and.../.]"
 94: 0x0DE7 [0x23] WAIT_FOR_DIALOG_INTERACTION
 95: 0x0DE8 [0x1C] WAIT(1* ticks)
 96: 0x0DEB [0x01] GOTO 0x0C1A
 97: 0x0DEE [0x21] END_EVENT
 98: 0x0DEF [0x00] END_REQSTACK()
```

### Event 32

#### Metadata

| Field        | Value    |
|--------------|----------|
| Entrypoint   | 0x0DF0   |
| Data Size    | 39 bytes |
| Instructions | 9        |

```
      00 01 02 03 04 05 06 07  08 09 0A 0B 0C 0D 0E 0F
      -- -- -- -- -- -- -- --  -- -- -- -- -- -- -- --
0DF0: 42 1E F0 FF FF 7F 5B 07  80 5E 50 03 01 5E 50 03  B.....[..^P..^P.
0E00: 01 68 61 70 30 2B 5E 50  03 01 46 80 23 2B 5E 50  .hap0+^P..F.#+^P
0E10: 03 01 47 80 23 21 00                              ..G.#!.         
```

#### Opcodes

```
  0: 0x0DF0 [0x42] SET_CLI_EVENT_CANCEL_DATA()
  1: 0x0DF1 [0x1E] EventEntity looks at LocalPlayer and starts talking
  2: 0x0DF6 [0x5B] LOAD_EXT_SCHEDULER: Load scheduler "hap0" with entities [Paparoon (ID: 16994398/0x0103505E), Paparoon (ID: 16994398/0x0103505E)], work=843*
  3: 0x0E05 [0x2B] Paparoon (ID: 16994398/0x0103505E) [11791*]:
    → "Oooh! Yooo really something, Paparoon thinks. Where yooo find this eyepatch!? This is Balrahn's eyepatch, yes!?"
  4: 0x0E0C [0x23] WAIT_FOR_DIALOG_INTERACTION
  5: 0x0E0D [0x2B] Paparoon (ID: 16994398/0x0103505E) [11792*]:
    → "Yooo sooo nice to trouble yoooself with finding it. Paparoon verrry grateful to you. Thank yooo, thank yooo!"
  6: 0x0E14 [0x23] WAIT_FOR_DIALOG_INTERACTION
  7: 0x0E15 [0x21] END_EVENT
  8: 0x0E16 [0x00] END_REQSTACK()
```

### Event 33

#### Metadata

| Field        | Value   |
|--------------|---------|
| Entrypoint   | 0x0E17  |
| Data Size    | 1 bytes |
| Instructions | 1       |

```
      00 01 02 03 04 05 06 07  08 09 0A 0B 0C 0D 0E 0F
      -- -- -- -- -- -- -- --  -- -- -- -- -- -- -- --
0E10:                      00                                  .        
```

#### Opcodes

```
  0: 0x0E17 [0x00] END_REQSTACK()
```

### Event 34

#### Metadata

| Field        | Value    |
|--------------|----------|
| Entrypoint   | 0x0E18   |
| Data Size    | 98 bytes |
| Instructions | 16       |

```
      00 01 02 03 04 05 06 07  08 09 0A 0B 0C 0D 0E 0F
      -- -- -- -- -- -- -- --  -- -- -- -- -- -- -- --
0E10:                          42 1E F0 FF FF 7F 2B 5E          B.....+^
0E20: 50 03 01 48 80 23 5B 07  80 5E 50 03 01 5E 50 03  P..H.#[..^P..^P.
0E30: 01 70 6E 74 30 2B 5E 50  03 01 49 80 23 5B 07 80  .pnt0+^P..I.#[..
0E40: 5E 50 03 01 5E 50 03 01  70 6E 74 31 2B 5E 50 03  ^P..^P..pnt1+^P.
0E50: 01 4A 80 23 53 5E 50 03  01 5E 50 03 01 70 6E 74  .J.#S^P..^P..pnt
0E60: 31 5B 07 80 5E 50 03 01  5E 50 03 01 61 6E 67 30  1[..^P..^P..ang0
0E70: 2B 5E 50 03 01 4B 80 23  21 00                    +^P..K.#!.      
```

#### Opcodes

```
  0: 0x0E18 [0x42] SET_CLI_EVENT_CANCEL_DATA()
  1: 0x0E19 [0x1E] EventEntity looks at LocalPlayer and starts talking
  2: 0x0E1E [0x2B] Paparoon (ID: 16994398/0x0103505E) [11782*]:
    → "Oooh! Yooo dat <Player> person! Paparoon remembers the yooo!"
  3: 0x0E25 [0x23] WAIT_FOR_DIALOG_INTERACTION
  4: 0x0E26 [0x5B] LOAD_EXT_SCHEDULER: Load scheduler "pnt0" with entities [Paparoon (ID: 16994398/0x0103505E), Paparoon (ID: 16994398/0x0103505E)], work=843*
  5: 0x0E35 [0x2B] Paparoon (ID: 16994398/0x0103505E) [11783*]:
    → "How yooo's been? Life is good to yooo, yes? Me tell secret. When Paparoon feel bluuue, me just remembers Empress. Always brings smile to this face, yes?"
  6: 0x0E3C [0x23] WAIT_FOR_DIALOG_INTERACTION
  7: 0x0E3D [0x5B] LOAD_EXT_SCHEDULER: Load scheduler "pnt1" with entities [Paparoon (ID: 16994398/0x0103505E), Paparoon (ID: 16994398/0x0103505E)], work=843*
  8: 0x0E4C [0x2B] Paparoon (ID: 16994398/0x0103505E) [11784*]:
    → "Empress always sooo nice and shiny! Always inspire Paparoon! Maybe she can be nice and shiny inspire for <Player> tooo, yes?"
  9: 0x0E53 [0x23] WAIT_FOR_DIALOG_INTERACTION
 10: 0x0E54 [0x53] WAIT_SCHEDULER_TASK: Wait for scheduler "pnt1" with entities [Paparoon (ID: 16994398/0x0103505E), Paparoon (ID: 16994398/0x0103505E)]
 11: 0x0E61 [0x5B] LOAD_EXT_SCHEDULER: Load scheduler "ang0" with entities [Paparoon (ID: 16994398/0x0103505E), Paparoon (ID: 16994398/0x0103505E)], work=843*
 12: 0x0E70 [0x2B] Paparoon (ID: 16994398/0x0103505E) [11785*]:
    → "Paparoon respect Empress sooo much!"
 13: 0x0E77 [0x23] WAIT_FOR_DIALOG_INTERACTION
 14: 0x0E78 [0x21] END_EVENT
 15: 0x0E79 [0x00] END_REQSTACK()
```
