# 16994431 - Rapipi

## Common Data

| Field            | Value            |
|------------------|------------------|
| Zone             | Nashmau (ID: 53) |
| Block Size       | 364 bytes        |
| Total Events     | 18               |
| References Count | 24               |

## List of Events

| Event ID                   | Entrypoint   |   Size |   Instructions |
|----------------------------|--------------|--------|----------------|
| [65535](#event-65535)      | 0x0000       |      1 |              1 |
| [308](#event-308)          | 0x0001       |      1 |              1 |
| [65535.1](#event-655351)   | 0x0002       |     15 |              5 |
| [65535.2](#event-655352)   | 0x0011       |     15 |              5 |
| [65535.3](#event-655353)   | 0x0020       |     15 |              5 |
| [65535.4](#event-655354)   | 0x002F       |      9 |              3 |
| [65535.5](#event-655355)   | 0x0038       |      9 |              3 |
| [65535.6](#event-655356)   | 0x0041       |      9 |              3 |
| [65535.7](#event-655357)   | 0x004A       |     15 |              5 |
| [311](#event-311)          | 0x0059       |      1 |              1 |
| [312](#event-312)          | 0x005A       |      1 |              1 |
| [65535.8](#event-655358)   | 0x005B       |      9 |              3 |
| [65535.9](#event-655359)   | 0x0064       |      9 |              3 |
| [65535.10](#event-6553510) | 0x006D       |      9 |              3 |
| [65535.11](#event-6553511) | 0x0076       |     15 |              5 |
| [65535.12](#event-6553512) | 0x0085       |     15 |              5 |
| [65535.13](#event-6553513) | 0x0094       |     15 |              5 |
| [65535.14](#event-6553514) | 0x00A3       |     15 |              5 |

## DAT References (imed_data)

|   Index | Hex Value   |   Dec Value |
|---------|-------------|-------------|
|       0 | 0x0015      |          21 |
|       1 | 0x1966      |        6502 |
|       2 | 0xFFFFA0A7  |  4294942887 |
|       3 | 0x0000      |           0 |
|       4 | 0x0019      |          25 |
|       5 | 0x4658      |       18008 |
|       6 | 0xFFFF97C9  |  4294940617 |
|       7 | 0x0009      |           9 |
|       8 | 0x42C4      |       17092 |
|       9 | 0xFFFF9973  |  4294941043 |
|      10 | 0x001E      |          30 |
|      11 | 0x000B      |          11 |
|      12 | 0xFFFFD5A9  |  4294956457 |
|      13 | 0xFFFF99D0  |  4294941136 |
|      14 | 0xFFFFD2ED  |  4294955757 |
|      15 | 0x723E      |       29246 |
|      16 | 0xFFFFD7D3  |  4294957011 |
|      17 | 0x6DC6      |       28102 |
|      18 | 0x0047      |          71 |
|      19 | 0xFFFFE7CF  |  4294961103 |
|      20 | 0x5ED1      |       24273 |
|      21 | 0x000D      |          13 |
|      22 | 0x0299      |         665 |
|      23 | 0xFFFF05F3  |  4294903283 |

## Events

### Event 65535

#### Metadata

| Field        | Value   |
|--------------|---------|
| Entrypoint   | 0x0000  |
| Data Size    | 1 bytes |
| Instructions | 1       |

```
      00 01 02 03 04 05 06 07  08 09 0A 0B 0C 0D 0E 0F
      -- -- -- -- -- -- -- --  -- -- -- -- -- -- -- --
0000: 00                                                .               
```

#### Opcodes

```
  0: 0x0000 [0x00] END_REQSTACK()
```

### Event 308

#### Metadata

| Field        | Value   |
|--------------|---------|
| Entrypoint   | 0x0001  |
| Data Size    | 1 bytes |
| Instructions | 1       |

```
      00 01 02 03 04 05 06 07  08 09 0A 0B 0C 0D 0E 0F
      -- -- -- -- -- -- -- --  -- -- -- -- -- -- -- --
0000:    00                                              .              
```

#### Opcodes

```
  0: 0x0001 [0x00] END_REQSTACK()
```

### Event 65535.1

#### Metadata

| Field        | Value    |
|--------------|----------|
| Entrypoint   | 0x0002   |
| Data Size    | 15 bytes |
| Instructions | 5        |

```
      00 01 02 03 04 05 06 07  08 09 0A 0B 0C 0D 0E 0F
      -- -- -- -- -- -- -- --  -- -- -- -- -- -- -- --
0000:       32 00 80 1F 00 01  80 02 80 03 80 1F 01 6F    2............o
0010: 00                                                .               
```

#### Opcodes

```
  0: 0x0002 [0x32] ExtData[1]->MainSpeed = 21* * 0.1
  1: 0x0005 [0x1F] MOVE_ENTITY: EventEntity moves to X=6.502*, Z=-24.409*, Y=0.000*
  2: 0x000D [0x1F] MOVE_ENTITY: Update entity position (mode=1)
  3: 0x000F [0x6F] WAIT_FRAME_DELAY: Yield until WaitTime reaches zero
  4: 0x0010 [0x00] END_REQSTACK()
```

### Event 65535.2

#### Metadata

| Field        | Value    |
|--------------|----------|
| Entrypoint   | 0x0011   |
| Data Size    | 15 bytes |
| Instructions | 5        |

```
      00 01 02 03 04 05 06 07  08 09 0A 0B 0C 0D 0E 0F
      -- -- -- -- -- -- -- --  -- -- -- -- -- -- -- --
0010:    32 04 80 1F 00 05 80  06 80 03 80 1F 01 6F 00   2............o.
```

#### Opcodes

```
  0: 0x0011 [0x32] ExtData[1]->MainSpeed = 25* * 0.1
  1: 0x0014 [0x1F] MOVE_ENTITY: EventEntity moves to X=18.008*, Z=-26.679*, Y=0.000*
  2: 0x001C [0x1F] MOVE_ENTITY: Update entity position (mode=1)
  3: 0x001E [0x6F] WAIT_FRAME_DELAY: Yield until WaitTime reaches zero
  4: 0x001F [0x00] END_REQSTACK()
```

### Event 65535.3

#### Metadata

| Field        | Value    |
|--------------|----------|
| Entrypoint   | 0x0020   |
| Data Size    | 15 bytes |
| Instructions | 5        |

```
      00 01 02 03 04 05 06 07  08 09 0A 0B 0C 0D 0E 0F
      -- -- -- -- -- -- -- --  -- -- -- -- -- -- -- --
0020: 32 07 80 1F 00 08 80 09  80 03 80 1F 01 6F 00     2............o. 
```

#### Opcodes

```
  0: 0x0020 [0x32] ExtData[1]->MainSpeed = 9* * 0.1
  1: 0x0023 [0x1F] MOVE_ENTITY: EventEntity moves to X=17.092*, Z=-26.253*, Y=0.000*
  2: 0x002B [0x1F] MOVE_ENTITY: Update entity position (mode=1)
  3: 0x002D [0x6F] WAIT_FRAME_DELAY: Yield until WaitTime reaches zero
  4: 0x002E [0x00] END_REQSTACK()
```

### Event 65535.4

#### Metadata

| Field        | Value   |
|--------------|---------|
| Entrypoint   | 0x002F  |
| Data Size    | 9 bytes |
| Instructions | 3       |

```
      00 01 02 03 04 05 06 07  08 09 0A 0B 0C 0D 0E 0F
      -- -- -- -- -- -- -- --  -- -- -- -- -- -- -- --
0020:                                               1C                 .
0030: 0A 80 1E 80 50 03 01 00                           ....P...        
```

#### Opcodes

```
  0: 0x002F [0x1C] WAIT(30* ticks)
  1: 0x0032 [0x1E] EventEntity looks at Eohoh (ID: 16994432/0x01035080) and starts talking
  2: 0x0037 [0x00] END_REQSTACK()
```

### Event 65535.5

#### Metadata

| Field        | Value   |
|--------------|---------|
| Entrypoint   | 0x0038  |
| Data Size    | 9 bytes |
| Instructions | 3       |

```
      00 01 02 03 04 05 06 07  08 09 0A 0B 0C 0D 0E 0F
      -- -- -- -- -- -- -- --  -- -- -- -- -- -- -- --
0030:                          1C 0A 80 1E 81 50 03 01          .....P..
0040: 00                                                .               
```

#### Opcodes

```
  0: 0x0038 [0x1C] WAIT(30* ticks)
  1: 0x003B [0x1E] EventEntity looks at Rutta-Watta (ID: 16994433/0x01035081) and starts talking
  2: 0x0040 [0x00] END_REQSTACK()
```

### Event 65535.6

#### Metadata

| Field        | Value   |
|--------------|---------|
| Entrypoint   | 0x0041  |
| Data Size    | 9 bytes |
| Instructions | 3       |

```
      00 01 02 03 04 05 06 07  08 09 0A 0B 0C 0D 0E 0F
      -- -- -- -- -- -- -- --  -- -- -- -- -- -- -- --
0040:    1C 0A 80 1E F0 FF FF  7F 00                     .........      
```

#### Opcodes

```
  0: 0x0041 [0x1C] WAIT(30* ticks)
  1: 0x0044 [0x1E] EventEntity looks at LocalPlayer and starts talking
  2: 0x0049 [0x00] END_REQSTACK()
```

### Event 65535.7

#### Metadata

| Field        | Value    |
|--------------|----------|
| Entrypoint   | 0x004A   |
| Data Size    | 15 bytes |
| Instructions | 5        |

```
      00 01 02 03 04 05 06 07  08 09 0A 0B 0C 0D 0E 0F
      -- -- -- -- -- -- -- --  -- -- -- -- -- -- -- --
0040:                                32 0B 80 1F 00 0C            2.....
0050: 80 0D 80 03 80 1F 01 6F  00                       .......o.       
```

#### Opcodes

```
  0: 0x004A [0x32] ExtData[1]->MainSpeed = 11* * 0.1
  1: 0x004D [0x1F] MOVE_ENTITY: EventEntity moves to X=-10.839*, Z=-26.160*, Y=0.000*
  2: 0x0055 [0x1F] MOVE_ENTITY: Update entity position (mode=1)
  3: 0x0057 [0x6F] WAIT_FRAME_DELAY: Yield until WaitTime reaches zero
  4: 0x0058 [0x00] END_REQSTACK()
```

### Event 311

#### Metadata

| Field        | Value   |
|--------------|---------|
| Entrypoint   | 0x0059  |
| Data Size    | 1 bytes |
| Instructions | 1       |

```
      00 01 02 03 04 05 06 07  08 09 0A 0B 0C 0D 0E 0F
      -- -- -- -- -- -- -- --  -- -- -- -- -- -- -- --
0050:                             00                             .      
```

#### Opcodes

```
  0: 0x0059 [0x00] END_REQSTACK()
```

### Event 312

#### Metadata

| Field        | Value   |
|--------------|---------|
| Entrypoint   | 0x005A  |
| Data Size    | 1 bytes |
| Instructions | 1       |

```
      00 01 02 03 04 05 06 07  08 09 0A 0B 0C 0D 0E 0F
      -- -- -- -- -- -- -- --  -- -- -- -- -- -- -- --
0050:                                00                           .     
```

#### Opcodes

```
  0: 0x005A [0x00] END_REQSTACK()
```

### Event 65535.8

#### Metadata

| Field        | Value   |
|--------------|---------|
| Entrypoint   | 0x005B  |
| Data Size    | 9 bytes |
| Instructions | 3       |

```
      00 01 02 03 04 05 06 07  08 09 0A 0B 0C 0D 0E 0F
      -- -- -- -- -- -- -- --  -- -- -- -- -- -- -- --
0050:                                   1C 0A 80 1E 37             ....7
0060: 50 03 01 00                                       P...            
```

#### Opcodes

```
  0: 0x005B [0x1C] WAIT(30* ticks)
  1: 0x005E [0x1E] EventEntity looks at Leleroon (ID: 16994359/0x01035037) and starts talking
  2: 0x0063 [0x00] END_REQSTACK()
```

### Event 65535.9

#### Metadata

| Field        | Value   |
|--------------|---------|
| Entrypoint   | 0x0064  |
| Data Size    | 9 bytes |
| Instructions | 3       |

```
      00 01 02 03 04 05 06 07  08 09 0A 0B 0C 0D 0E 0F
      -- -- -- -- -- -- -- --  -- -- -- -- -- -- -- --
0060:             1C 0A 80 1E  42 50 03 01 00               ....BP...   
```

#### Opcodes

```
  0: 0x0064 [0x1C] WAIT(30* ticks)
  1: 0x0067 [0x1E] EventEntity looks at Tsutsuroon (ID: 16994370/0x01035042) and starts talking
  2: 0x006C [0x00] END_REQSTACK()
```

### Event 65535.10

#### Metadata

| Field        | Value   |
|--------------|---------|
| Entrypoint   | 0x006D  |
| Data Size    | 9 bytes |
| Instructions | 3       |

```
      00 01 02 03 04 05 06 07  08 09 0A 0B 0C 0D 0E 0F
      -- -- -- -- -- -- -- --  -- -- -- -- -- -- -- --
0060:                                         1C 0A 80               ...
0070: 1E 25 50 03 01 00                                 .%P...          
```

#### Opcodes

```
  0: 0x006D [0x1C] WAIT(30* ticks)
  1: 0x0070 [0x1E] EventEntity looks at Jajaroon (ID: 16994341/0x01035025) and starts talking
  2: 0x0075 [0x00] END_REQSTACK()
```

### Event 65535.11

#### Metadata

| Field        | Value    |
|--------------|----------|
| Entrypoint   | 0x0076   |
| Data Size    | 15 bytes |
| Instructions | 5        |

```
      00 01 02 03 04 05 06 07  08 09 0A 0B 0C 0D 0E 0F
      -- -- -- -- -- -- -- --  -- -- -- -- -- -- -- --
0070:                   32 07  80 1F 00 0E 80 0F 80 03        2.........
0080: 80 1F 01 6F 00                                    ...o.           
```

#### Opcodes

```
  0: 0x0076 [0x32] ExtData[1]->MainSpeed = 9* * 0.1
  1: 0x0079 [0x1F] MOVE_ENTITY: EventEntity moves to X=-11.539*, Z=29.246*, Y=0.000*
  2: 0x0081 [0x1F] MOVE_ENTITY: Update entity position (mode=1)
  3: 0x0083 [0x6F] WAIT_FRAME_DELAY: Yield until WaitTime reaches zero
  4: 0x0084 [0x00] END_REQSTACK()
```

### Event 65535.12

#### Metadata

| Field        | Value    |
|--------------|----------|
| Entrypoint   | 0x0085   |
| Data Size    | 15 bytes |
| Instructions | 5        |

```
      00 01 02 03 04 05 06 07  08 09 0A 0B 0C 0D 0E 0F
      -- -- -- -- -- -- -- --  -- -- -- -- -- -- -- --
0080:                32 04 80  1F 00 10 80 11 80 03 80       2..........
0090: 1F 01 6F 00                                       ..o.            
```

#### Opcodes

```
  0: 0x0085 [0x32] ExtData[1]->MainSpeed = 25* * 0.1
  1: 0x0088 [0x1F] MOVE_ENTITY: EventEntity moves to X=-10.285*, Z=28.102*, Y=0.000*
  2: 0x0090 [0x1F] MOVE_ENTITY: Update entity position (mode=1)
  3: 0x0092 [0x6F] WAIT_FRAME_DELAY: Yield until WaitTime reaches zero
  4: 0x0093 [0x00] END_REQSTACK()
```

### Event 65535.13

#### Metadata

| Field        | Value    |
|--------------|----------|
| Entrypoint   | 0x0094   |
| Data Size    | 15 bytes |
| Instructions | 5        |

```
      00 01 02 03 04 05 06 07  08 09 0A 0B 0C 0D 0E 0F
      -- -- -- -- -- -- -- --  -- -- -- -- -- -- -- --
0090:             32 12 80 1F  00 13 80 14 80 03 80 1F      2...........
00A0: 01 6F 00                                          .o.             
```

#### Opcodes

```
  0: 0x0094 [0x32] ExtData[1]->MainSpeed = 71* * 0.1
  1: 0x0097 [0x1F] MOVE_ENTITY: EventEntity moves to X=-6.193*, Z=24.273*, Y=0.000*
  2: 0x009F [0x1F] MOVE_ENTITY: Update entity position (mode=1)
  3: 0x00A1 [0x6F] WAIT_FRAME_DELAY: Yield until WaitTime reaches zero
  4: 0x00A2 [0x00] END_REQSTACK()
```

### Event 65535.14

#### Metadata

| Field        | Value    |
|--------------|----------|
| Entrypoint   | 0x00A3   |
| Data Size    | 15 bytes |
| Instructions | 5        |

```
      00 01 02 03 04 05 06 07  08 09 0A 0B 0C 0D 0E 0F
      -- -- -- -- -- -- -- --  -- -- -- -- -- -- -- --
00A0:          32 15 80 1F 00  16 80 17 80 03 80 1F 01     2............
00B0: 6F 00                                             o.              
```

#### Opcodes

```
  0: 0x00A3 [0x32] ExtData[1]->MainSpeed = 13* * 0.1
  1: 0x00A6 [0x1F] MOVE_ENTITY: EventEntity moves to X=0.665*, Z=-64.013*, Y=0.000*
  2: 0x00AE [0x1F] MOVE_ENTITY: Update entity position (mode=1)
  3: 0x00B0 [0x6F] WAIT_FRAME_DELAY: Yield until WaitTime reaches zero
  4: 0x00B1 [0x00] END_REQSTACK()
```
