# 0x7FFFFFF0 - Zone Events

## Common Data

| Field            | Value            |
|------------------|------------------|
| Zone             | Nashmau (ID: 53) |
| Block Size       | 19124 bytes      |
| Total Events     | 47               |
| References Count | 462              |

## List of Events

| Event ID                   | Entrypoint   |   Size |   Instructions |
|----------------------------|--------------|--------|----------------|
| [65535](#event-65535)      | 0x0000       |      1 |              1 |
| [65534](#event-65534)      | 0x0001       |      1 |              1 |
| [200](#event-200)          | 0x0002       |    219 |             22 |
| [202](#event-202)          | 0x00DD       |     87 |             13 |
| [201](#event-201)          | 0x0134       |     58 |              9 |
| [65535.1](#event-655351)   | 0x016E       |     87 |             18 |
| [65535.2](#event-655352)   | 0x01C5       |     87 |             18 |
| [241](#event-241)          | 0x021C       |    698 |             85 |
| [243](#event-243)          | 0x04D6       |   1133 |            144 |
| [245](#event-245)          | 0x0943       |    917 |            118 |
| [246](#event-246)          | 0x0CD8       |    541 |             64 |
| [247](#event-247)          | 0x0EF5       |    293 |             34 |
| [249](#event-249)          | 0x101A       |    272 |             31 |
| [65535.3](#event-655353)   | 0x112A       |     10 |              2 |
| [65535.4](#event-655354)   | 0x1134       |     10 |              2 |
| [65535.5](#event-655355)   | 0x113E       |     10 |              2 |
| [65535.6](#event-655356)   | 0x1148       |     24 |              6 |
| [65535.7](#event-655357)   | 0x1160       |     24 |              6 |
| [65535.8](#event-655358)   | 0x1178       |     24 |              6 |
| [65535.9](#event-655359)   | 0x1190       |     24 |              6 |
| [65535.10](#event-6553510) | 0x11A8       |     24 |              6 |
| [65535.11](#event-6553511) | 0x11C0       |      6 |              2 |
| [65535.12](#event-6553512) | 0x11C6       |      6 |              2 |
| [65535.13](#event-6553513) | 0x11CC       |     10 |              2 |
| [289](#event-289)          | 0x11D6       |    279 |             34 |
| [290](#event-290)          | 0x12ED       |   5310 |            709 |
| [291](#event-291)          | 0x27AB       |   6370 |            815 |
| [65535.14](#event-6553514) | 0x408D       |     37 |              5 |
| [65535.15](#event-6553515) | 0x40B2       |     37 |              5 |
| [65535.16](#event-6553516) | 0x40D7       |     14 |              4 |
| [65535.17](#event-6553517) | 0x40E5       |     15 |              5 |
| [65535.18](#event-6553518) | 0x40F4       |     42 |              6 |
| [65535.19](#event-6553519) | 0x411E       |      6 |              2 |
| [65535.20](#event-6553520) | 0x4124       |     41 |             10 |
| [65535.21](#event-6553521) | 0x414D       |    157 |             35 |
| [293](#event-293)          | 0x41EA       |      1 |              1 |
| [65535.22](#event-6553522) | 0x41EB       |     10 |              2 |
| [65535.23](#event-6553523) | 0x41F5       |     10 |              2 |
| [65535.24](#event-6553524) | 0x41FF       |     14 |              4 |
| [65535.25](#event-6553525) | 0x420D       |     10 |              2 |
| [65535.26](#event-6553526) | 0x4217       |     14 |              4 |
| [65535.27](#event-6553527) | 0x4225       |     14 |              4 |
| [65535.28](#event-6553528) | 0x4233       |     10 |              2 |
| [65535.29](#event-6553529) | 0x423D       |     23 |              5 |
| [65535.30](#event-6553530) | 0x4254       |     42 |              6 |
| [65535.31](#event-6553531) | 0x427E       |     24 |              4 |
| [65535.32](#event-6553532) | 0x4296       |     24 |              4 |

## DAT References (imed_data)

|   Index | Hex Value   |   Dec Value |
|---------|-------------|-------------|
|       0 | 0x00C8      |         200 |
|       1 | 0x0000      |           0 |
|       2 | 0x2EDF      |       11999 |
|       3 | 0xFFFE72F3  |  4294865651 |
|       4 | 0x07CF      |        1999 |
|       5 | 0x0C2A      |        3114 |
|       6 | 0x00C7      |         199 |
|       7 | 0x02BC      |         700 |
|       8 | 0x000D      |          13 |
|       9 | 0x0960      |        2400 |
|      10 | 0x015F      |         351 |
|      11 | 0xFFFF0AFA  |  4294904570 |
|      12 | 0xFFFEF565  |  4294899045 |
|      13 | 0x43C6      |       17350 |
|      14 | 0x4E3B      |       20027 |
|      15 | 0xFFFF2009  |  4294909961 |
|      16 | 0xFFFF34A4  |  4294915236 |
|      17 | 0x001B      |          27 |
|      18 | 0xFFFFFCBB  |  4294966459 |
|      19 | 0xFBBA      |       64442 |
|      20 | 0x0A3F      |        2623 |
|      21 | 0x0001      |           1 |
|      22 | 0x00FF      |         255 |
|      23 | 0x003C      |          60 |
|      24 | 0x2973      |       10611 |
|      25 | 0x034A      |         842 |
|      26 | 0x2974      |       10612 |
|      27 | 0x2975      |       10613 |
|      28 | 0x2976      |       10614 |
|      29 | 0x2977      |       10615 |
|      30 | 0x2978      |       10616 |
|      31 | 0x297E      |       10622 |
|      32 | 0x034B      |         843 |
|      33 | 0x2979      |       10617 |
|      34 | 0x297A      |       10618 |
|      35 | 0x154D      |        5453 |
|      36 | 0x154E      |        5454 |
|      37 | 0x154F      |        5455 |
|      38 | 0x1550      |        5456 |
|      39 | 0x1410      |        5136 |
|      40 | 0x297B      |       10619 |
|      41 | 0x297C      |       10620 |
|      42 | 0x297D      |       10621 |
|      43 | 0x2990      |       10640 |
|      44 | 0x000A      |          10 |
|      45 | 0x0032      |          50 |
|      46 | 0x0002      |           2 |
|      47 | 0x0003      |           3 |
|      48 | 0x2980      |       10624 |
|      49 | 0x2981      |       10625 |
|      50 | 0x2982      |       10626 |
|      51 | 0x0078      |         120 |
|      52 | 0x005A      |          90 |
|      53 | 0x0103      |         259 |
|      54 | 0x00B4      |         180 |
|      55 | 0x0063      |          99 |
|      56 | 0x00AF      |         175 |
|      57 | 0x2983      |       10627 |
|      58 | 0x15DB      |        5595 |
|      59 | 0x2984      |       10628 |
|      60 | 0x2985      |       10629 |
|      61 | 0x2986      |       10630 |
|      62 | 0x2987      |       10631 |
|      63 | 0x2988      |       10632 |
|      64 | 0x2989      |       10633 |
|      65 | 0x298A      |       10634 |
|      66 | 0x298B      |       10635 |
|      67 | 0x298C      |       10636 |
|      68 | 0x298D      |       10637 |
|      69 | 0x298E      |       10638 |
|      70 | 0x298F      |       10639 |
|      71 | 0x00C9      |         201 |
|      72 | 0x0013      |          19 |
|      73 | 0x3A5E      |       14942 |
|      74 | 0xFFFF7708  |  4294932232 |
|      75 | 0x0CD2      |        3282 |
|      76 | 0x001E      |          30 |
|      77 | 0x010B      |         267 |
|      78 | 0x2991      |       10641 |
|      79 | 0x2992      |       10642 |
|      80 | 0x2993      |       10643 |
|      81 | 0x2994      |       10644 |
|      82 | 0x2995      |       10645 |
|      83 | 0x0027      |          39 |
|      84 | 0x2996      |       10646 |
|      85 | 0x2997      |       10647 |
|      86 | 0x2998      |       10648 |
|      87 | 0x2999      |       10649 |
|      88 | 0x299C      |       10652 |
|      89 | 0x001F      |          31 |
|      90 | 0x299D      |       10653 |
|      91 | 0x299E      |       10654 |
|      92 | 0x299F      |       10655 |
|      93 | 0x43F4      |       17396 |
|      94 | 0x29A0      |       10656 |
|      95 | 0x29A1      |       10657 |
|      96 | 0x0109      |         265 |
|      97 | 0xFFFFCB6F  |  4294953839 |
|      98 | 0xFFFF9419  |  4294939673 |
|      99 | 0x0D3B      |        3387 |
|     100 | 0x29A2      |       10658 |
|     101 | 0x29A3      |       10659 |
|     102 | 0x29A4      |       10660 |
|     103 | 0x29A5      |       10661 |
|     104 | 0x29A6      |       10662 |
|     105 | 0x29A7      |       10663 |
|     106 | 0x29A8      |       10664 |
|     107 | 0x29A9      |       10665 |
|     108 | 0x29AA      |       10666 |
|     109 | 0x29AB      |       10667 |
|     110 | 0x29AC      |       10668 |
|     111 | 0x29AD      |       10669 |
|     112 | 0x29AF      |       10671 |
|     113 | 0x29B0      |       10672 |
|     114 | 0x29B1      |       10673 |
|     115 | 0x29B3      |       10675 |
|     116 | 0x29B4      |       10676 |
|     117 | 0x4E85      |       20101 |
|     118 | 0x588A      |       22666 |
|     119 | 0x0E6D      |        3693 |
|     120 | 0xFFFFC9C4  |  4294953412 |
|     121 | 0x10792     |       67474 |
|     122 | 0xFFFFE890  |  4294961296 |
|     123 | 0x0D75      |        3445 |
|     124 | 0xFFFFCF8A  |  4294954890 |
|     125 | 0xFFFF0B68  |  4294904680 |
|     126 | 0x0C7B      |        3195 |
|     127 | 0x3EAE      |       16046 |
|     128 | 0xFFFF9904  |  4294940932 |
|     129 | 0x000B      |          11 |
|     130 | 0x3E03      |       15875 |
|     131 | 0x329B      |       12955 |
|     132 | 0xFFFFDC39  |  4294958137 |
|     133 | 0x7606      |       30214 |
|     134 | 0xFFFFD261  |  4294955617 |
|     135 | 0x7768      |       30568 |
|     136 | 0x09AC      |        2476 |
|     137 | 0xFFFF67C4  |  4294928324 |
|     138 | 0xFFFFD04A  |  4294955082 |
|     139 | 0x5D03      |       23811 |
|     140 | 0x0911      |        2321 |
|     141 | 0x7084      |       28804 |
|     142 | 0xE0FB      |       57595 |
|     143 | 0xFFFFE891  |  4294961297 |
|     144 | 0x03FB      |        1019 |
|     145 | 0x0023      |          35 |
|     146 | 0x2A84      |       10884 |
|     147 | 0x2A85      |       10885 |
|     148 | 0x2A86      |       10886 |
|     149 | 0x2A87      |       10887 |
|     150 | 0x2A88      |       10888 |
|     151 | 0x6E74      |       28276 |
|     152 | 0xD1BA      |       53690 |
|     153 | 0x0DCD      |        3533 |
|     154 | 0x011E      |         286 |
|     155 | 0x2A89      |       10889 |
|     156 | 0x2A8A      |       10890 |
|     157 | 0x2A8B      |       10891 |
|     158 | 0x0096      |         150 |
|     159 | 0x002D      |          45 |
|     160 | 0x2A8C      |       10892 |
|     161 | 0x2A8D      |       10893 |
|     162 | 0x2A8E      |       10894 |
|     163 | 0x2A8F      |       10895 |
|     164 | 0x0009      |           9 |
|     165 | 0x2A90      |       10896 |
|     166 | 0x2A91      |       10897 |
|     167 | 0x2A92      |       10898 |
|     168 | 0x0243      |         579 |
|     169 | 0xFFFFAA4F  |  4294945359 |
|     170 | 0x0563      |        1379 |
|     171 | 0xFFFFFC5E  |  4294966366 |
|     172 | 0xFFFF950A  |  4294939914 |
|     173 | 0x2A93      |       10899 |
|     174 | 0x2A94      |       10900 |
|     175 | 0x2A95      |       10901 |
|     176 | 0x2A96      |       10902 |
|     177 | 0x2A97      |       10903 |
|     178 | 0x2A98      |       10904 |
|     179 | 0x2A99      |       10905 |
|     180 | 0x2A9A      |       10906 |
|     181 | 0xFFFFEEE0  |  4294962912 |
|     182 | 0xFFFF6ACC  |  4294929100 |
|     183 | 0x04B0      |        1200 |
|     184 | 0xFFFFE791  |  4294961041 |
|     185 | 0xFFFF6A7D  |  4294929021 |
|     186 | 0x2A9B      |       10907 |
|     187 | 0x2A9C      |       10908 |
|     188 | 0x0024      |          36 |
|     189 | 0x2A9D      |       10909 |
|     190 | 0x2A9E      |       10910 |
|     191 | 0x0015      |          21 |
|     192 | 0x2A9F      |       10911 |
|     193 | 0x2AA0      |       10912 |
|     194 | 0x2AA1      |       10913 |
|     195 | 0x2AA2      |       10914 |
|     196 | 0x0019      |          25 |
|     197 | 0x2AA3      |       10915 |
|     198 | 0x2AA4      |       10916 |
|     199 | 0x2AA5      |       10917 |
|     200 | 0x2AA6      |       10918 |
|     201 | 0x2AA7      |       10919 |
|     202 | 0x0031      |          49 |
|     203 | 0x2AA8      |       10920 |
|     204 | 0x2AA9      |       10921 |
|     205 | 0x0018      |          24 |
|     206 | 0x2AAA      |       10922 |
|     207 | 0x2AAB      |       10923 |
|     208 | 0x0014      |          20 |
|     209 | 0x2AAC      |       10924 |
|     210 | 0x2AAD      |       10925 |
|     211 | 0x0006      |           6 |
|     212 | 0x2AAE      |       10926 |
|     213 | 0x2AAF      |       10927 |
|     214 | 0x2AB0      |       10928 |
|     215 | 0x0792      |        1938 |
|     216 | 0x2AB1      |       10929 |
|     217 | 0x2AB2      |       10930 |
|     218 | 0x2AB3      |       10931 |
|     219 | 0x2AB4      |       10932 |
|     220 | 0x2AB5      |       10933 |
|     221 | 0x2AB6      |       10934 |
|     222 | 0x2AB7      |       10935 |
|     223 | 0x2AB8      |       10936 |
|     224 | 0x001D      |          29 |
|     225 | 0x2AB9      |       10937 |
|     226 | 0x2ABA      |       10938 |
|     227 | 0x2ABB      |       10939 |
|     228 | 0x2ABD      |       10941 |
|     229 | 0x2ABC      |       10940 |
|     230 | 0x2AC5      |       10949 |
|     231 | 0x2AC6      |       10950 |
|     232 | 0x2AC7      |       10951 |
|     233 | 0x2AC8      |       10952 |
|     234 | 0x2AC9      |       10953 |
|     235 | 0x2ACA      |       10954 |
|     236 | 0x2ACB      |       10955 |
|     237 | 0x2ACC      |       10956 |
|     238 | 0x02D3      |         723 |
|     239 | 0x2ACD      |       10957 |
|     240 | 0x2ACE      |       10958 |
|     241 | 0x2ACF      |       10959 |
|     242 | 0x2AD0      |       10960 |
|     243 | 0x2AD1      |       10961 |
|     244 | 0x2AD2      |       10962 |
|     245 | 0x2AD3      |       10963 |
|     246 | 0x2AD4      |       10964 |
|     247 | 0x0353      |         851 |
|     248 | 0x2AD5      |       10965 |
|     249 | 0x2AD6      |       10966 |
|     250 | 0x0BB8      |        3000 |
|     251 | 0x2AD7      |       10967 |
|     252 | 0x2AD8      |       10968 |
|     253 | 0x2AD9      |       10969 |
|     254 | 0x2ADA      |       10970 |
|     255 | 0x2ADB      |       10971 |
|     256 | 0x2ADC      |       10972 |
|     257 | 0x2ADD      |       10973 |
|     258 | 0x2ADE      |       10974 |
|     259 | 0x2ADF      |       10975 |
|     260 | 0x2AE0      |       10976 |
|     261 | 0x2AE1      |       10977 |
|     262 | 0x2AE2      |       10978 |
|     263 | 0x2AE3      |       10979 |
|     264 | 0x2AE4      |       10980 |
|     265 | 0x2AE5      |       10981 |
|     266 | 0x2AE6      |       10982 |
|     267 | 0x2AE7      |       10983 |
|     268 | 0x2AE8      |       10984 |
|     269 | 0x2AE9      |       10985 |
|     270 | 0x2AEA      |       10986 |
|     271 | 0x2AEB      |       10987 |
|     272 | 0x2AEC      |       10988 |
|     273 | 0x2AED      |       10989 |
|     274 | 0x2AEE      |       10990 |
|     275 | 0x2AEF      |       10991 |
|     276 | 0x2AF0      |       10992 |
|     277 | 0x2AF1      |       10993 |
|     278 | 0x2AF2      |       10994 |
|     279 | 0x2AF3      |       10995 |
|     280 | 0x2AF4      |       10996 |
|     281 | 0x2AF5      |       10997 |
|     282 | 0x2ABF      |       10943 |
|     283 | 0x2AC0      |       10944 |
|     284 | 0x2AC1      |       10945 |
|     285 | 0x2AC2      |       10946 |
|     286 | 0x2AC3      |       10947 |
|     287 | 0x2AC4      |       10948 |
|     288 | 0xFFFFE58A  |  4294960522 |
|     289 | 0xFFFF7126  |  4294930726 |
|     290 | 0x09C7      |        2503 |
|     291 | 0x2AF6      |       10998 |
|     292 | 0x2AF7      |       10999 |
|     293 | 0x00A3      |         163 |
|     294 | 0x44BC      |       17596 |
|     295 | 0xFFFF128C  |  4294906508 |
|     296 | 0x07CA      |        1994 |
|     297 | 0x2AF8      |       11000 |
|     298 | 0x2AF9      |       11001 |
|     299 | 0x2AFA      |       11002 |
|     300 | 0x2AFB      |       11003 |
|     301 | 0x2AFC      |       11004 |
|     302 | 0x2AFD      |       11005 |
|     303 | 0x00B8      |         184 |
|     304 | 0x4359      |       17241 |
|     305 | 0xFFFF3E4F  |  4294917711 |
|     306 | 0x0B58      |        2904 |
|     307 | 0x2AFE      |       11006 |
|     308 | 0x2AFF      |       11007 |
|     309 | 0x2B00      |       11008 |
|     310 | 0x2B01      |       11009 |
|     311 | 0x2B02      |       11010 |
|     312 | 0x2B03      |       11011 |
|     313 | 0x0A60      |        2656 |
|     314 | 0x2B04      |       11012 |
|     315 | 0x2B05      |       11013 |
|     316 | 0x2B06      |       11014 |
|     317 | 0x2B07      |       11015 |
|     318 | 0x2B08      |       11016 |
|     319 | 0x2B09      |       11017 |
|     320 | 0x2B0A      |       11018 |
|     321 | 0x2B0B      |       11019 |
|     322 | 0x2B0C      |       11020 |
|     323 | 0x2B0D      |       11021 |
|     324 | 0x2B0E      |       11022 |
|     325 | 0x2B0F      |       11023 |
|     326 | 0x2B10      |       11024 |
|     327 | 0x2B11      |       11025 |
|     328 | 0x2B12      |       11026 |
|     329 | 0x2B13      |       11027 |
|     330 | 0x2B14      |       11028 |
|     331 | 0x2B15      |       11029 |
|     332 | 0x2B16      |       11030 |
|     333 | 0x2B17      |       11031 |
|     334 | 0x2B18      |       11032 |
|     335 | 0x2B19      |       11033 |
|     336 | 0x2B1A      |       11034 |
|     337 | 0x2B1B      |       11035 |
|     338 | 0x2B1C      |       11036 |
|     339 | 0x0008      |           8 |
|     340 | 0x2B1D      |       11037 |
|     341 | 0x2B1E      |       11038 |
|     342 | 0x2B1F      |       11039 |
|     343 | 0x2B20      |       11040 |
|     344 | 0x2B21      |       11041 |
|     345 | 0x2B22      |       11042 |
|     346 | 0x2B23      |       11043 |
|     347 | 0x2B24      |       11044 |
|     348 | 0x2B25      |       11045 |
|     349 | 0x2B26      |       11046 |
|     350 | 0x2B27      |       11047 |
|     351 | 0x2B28      |       11048 |
|     352 | 0x2B29      |       11049 |
|     353 | 0x2B2A      |       11050 |
|     354 | 0x2B2B      |       11051 |
|     355 | 0x2B2C      |       11052 |
|     356 | 0x0016      |          22 |
|     357 | 0x2B2D      |       11053 |
|     358 | 0x2B2E      |       11054 |
|     359 | 0x2B2F      |       11055 |
|     360 | 0x2B30      |       11056 |
|     361 | 0x2B31      |       11057 |
|     362 | 0x2B32      |       11058 |
|     363 | 0x2B33      |       11059 |
|     364 | 0x007C      |         124 |
|     365 | 0x2B34      |       11060 |
|     366 | 0x2B35      |       11061 |
|     367 | 0x2B36      |       11062 |
|     368 | 0x2B37      |       11063 |
|     369 | 0x2B38      |       11064 |
|     370 | 0x2B39      |       11065 |
|     371 | 0x2B3A      |       11066 |
|     372 | 0x2B3B      |       11067 |
|     373 | 0x2B3C      |       11068 |
|     374 | 0x2B3D      |       11069 |
|     375 | 0x2B3E      |       11070 |
|     376 | 0x2B3F      |       11071 |
|     377 | 0x14F3      |        5363 |
|     378 | 0xFFFF745B  |  4294931547 |
|     379 | 0x0687      |        1671 |
|     380 | 0x10BA      |        4282 |
|     381 | 0xFFFF723F  |  4294931007 |
|     382 | 0x2B41      |       11073 |
|     383 | 0x2B42      |       11074 |
|     384 | 0x2B43      |       11075 |
|     385 | 0x161B      |        5659 |
|     386 | 0xFFFF739A  |  4294931354 |
|     387 | 0x0615      |        1557 |
|     388 | 0x2B44      |       11076 |
|     389 | 0x2B45      |       11077 |
|     390 | 0x2B46      |       11078 |
|     391 | 0x2B47      |       11079 |
|     392 | 0x2B48      |       11080 |
|     393 | 0x2B49      |       11081 |
|     394 | 0x2B4A      |       11082 |
|     395 | 0x2B4B      |       11083 |
|     396 | 0x2B4C      |       11084 |
|     397 | 0x2B4D      |       11085 |
|     398 | 0x2B4E      |       11086 |
|     399 | 0x2B4F      |       11087 |
|     400 | 0x2B50      |       11088 |
|     401 | 0x000C      |          12 |
|     402 | 0x2B51      |       11089 |
|     403 | 0x000F      |          15 |
|     404 | 0xFFFFFD97  |  4294966679 |
|     405 | 0xFFFF502C  |  4294922284 |
|     406 | 0x0C17      |        3095 |
|     407 | 0x0352      |         850 |
|     408 | 0x03FA      |        1018 |
|     409 | 0x03E7      |         999 |
|     410 | 0x2B52      |       11090 |
|     411 | 0x2B53      |       11091 |
|     412 | 0x2B54      |       11092 |
|     413 | 0x2B55      |       11093 |
|     414 | 0x2B56      |       11094 |
|     415 | 0x2B57      |       11095 |
|     416 | 0x2B58      |       11096 |
|     417 | 0x2B59      |       11097 |
|     418 | 0x2B5A      |       11098 |
|     419 | 0x2B5B      |       11099 |
|     420 | 0x2B5C      |       11100 |
|     421 | 0x2B5D      |       11101 |
|     422 | 0x2B5E      |       11102 |
|     423 | 0x2B5F      |       11103 |
|     424 | 0x2B60      |       11104 |
|     425 | 0x2B61      |       11105 |
|     426 | 0x2B62      |       11106 |
|     427 | 0x2B63      |       11107 |
|     428 | 0x2B64      |       11108 |
|     429 | 0x2B65      |       11109 |
|     430 | 0x0069      |         105 |
|     431 | 0x2B66      |       11110 |
|     432 | 0x2B67      |       11111 |
|     433 | 0x2B68      |       11112 |
|     434 | 0x2B69      |       11113 |
|     435 | 0x4282      |       17026 |
|     436 | 0xFFFF45DA  |  4294919642 |
|     437 | 0x4316      |       17174 |
|     438 | 0x3198      |       12696 |
|     439 | 0x0E10      |        3600 |
|     440 | 0x0005      |           5 |
|     441 | 0x0046      |          70 |
|     442 | 0x008C      |         140 |
|     443 | 0x00D2      |         210 |
|     444 | 0x4498      |       17560 |
|     445 | 0x10C22     |       68642 |
|     446 | 0x0D6E      |        3438 |
|     447 | 0x352E      |       13614 |
|     448 | 0x1158F     |       71055 |
|     449 | 0x0F17      |        3863 |
|     450 | 0x0028      |          40 |
|     451 | 0x3EEE      |       16110 |
|     452 | 0x13648     |       79432 |
|     453 | 0x36FF      |       14079 |
|     454 | 0x10955     |       67925 |
|     455 | 0x3FF8      |       16376 |
|     456 | 0x10712     |       67346 |
|     457 | 0xFFFFC8E8  |  4294953192 |
|     458 | 0xFFFF7685  |  4294932101 |
|     459 | 0x096E      |        2414 |
|     460 | 0xFFFFC7F6  |  4294952950 |
|     461 | 0xFFFF6971  |  4294928753 |

## String References

- **10618**: Find "foood" for Ququroon? [Sure./Foood...?]
- **10640**: Which will you watch? [Goood foood?/Croood foood?]
- **10645**: What will you do? [Roll the dice!/Pay up.]
- **10648**: What will you wager? [Courage./Passion./Innocence.]
- **10893**: Do you need anything? [Ask about the automaton./Ask how to get around Nashmau./Shall we go out for tea?]
- **10908**: Your order? [Chai./Coffee./I'll pass, thanks.]
- **10939**: The cup of chai on the right is giving off a suspicious vapor. The cup of chai on the left is giving off a suspicious odor.
- **10940**: The cup of chai on the right is giving off a suspicious odor. The cup of chai on the left is giving off a suspicious vapor.
- **10941**: Which one will it be? [The right cup./The left cup.]
- **11074**: What do you wanna tell me? [Why Iruki is a great puppetmaster./A puppetmaster's greatest possession./Elisabeth's secret to success.]
- **11093**: How was it? [Highly entertaining./Your words were too kind./I liked the scene with the Mithra.]

## Events

### Event 65535

#### Metadata

| Field        | Value   |
|--------------|---------|
| Entrypoint   | 0x0000  |
| Data Size    | 1 bytes |
| Instructions | 1       |

```
      00 01 02 03 04 05 06 07  08 09 0A 0B 0C 0D 0E 0F
      -- -- -- -- -- -- -- --  -- -- -- -- -- -- -- --
0000: 00                                                .               
```

#### Opcodes

```
  0: 0x0000 [0x00] END_REQSTACK()
```

### Event 65534

#### Metadata

| Field        | Value   |
|--------------|---------|
| Entrypoint   | 0x0001  |
| Data Size    | 1 bytes |
| Instructions | 1       |

```
      00 01 02 03 04 05 06 07  08 09 0A 0B 0C 0D 0E 0F
      -- -- -- -- -- -- -- --  -- -- -- -- -- -- -- --
0000:    00                                              .              
```

#### Opcodes

```
  0: 0x0001 [0x00] END_REQSTACK()
```

### Event 200

#### Metadata

| Field        | Value     |
|--------------|-----------|
| Entrypoint   | 0x0002    |
| Data Size    | 219 bytes |
| Instructions | 22        |

```
      00 01 02 03 04 05 06 07  08 09 0A 0B 0C 0D 0E 0F
      -- -- -- -- -- -- -- --  -- -- -- -- -- -- -- --
0000:       20 01 42 45 00 80  F0 FF FF 7F F0 FF FF 7F     .BE..........
0010: 66 64 6F 30 01 80 46 01  22 01 47 00 02 80 03 80  fdo0..F.".G.....
0020: 04 80 05 80 47 01 55 00  80 F0 FF FF 7F F0 FF FF  ....G.U.........
0030: 7F 66 64 6F 30 45 06 80  F0 FF FF 7F F0 FF FF 7F  .fdo0E..........
0040: 73 30 36 32 01 80 45 00  80 F0 FF FF 7F F0 FF FF  s062..E.........
0050: 7F 66 64 69 30 01 80 55  06 80 F0 FF FF 7F F0 FF  .fdi0..U........
0060: FF 7F 73 30 36 32 45 06  80 F0 FF FF 7F F0 FF FF  ..s062E.........
0070: 7F 73 30 36 39 01 80 1C  07 80 45 00 80 F0 FF FF  .s069.....E.....
0080: 7F F0 FF FF 7F 6F 76 6C  31 01 80 52 06 80 F0 FF  .....ovl1..R....
0090: FF 7F F0 FF FF 7F 73 30  36 39 45 06 80 F0 FF FF  ......s069E.....
00A0: 7F F0 FF FF 7F 73 30 36  33 01 80 55 06 80 F0 FF  .....s063..U....
00B0: FF 7F F0 FF FF 7F 73 30  36 33 45 00 80 F0 FF FF  ......s063E.....
00C0: 7F F0 FF FF 7F 66 64 6F  32 01 80 55 00 80 F0 FF  .....fdo2..U....
00D0: FF 7F F0 FF FF 7F 66 64  6F 32 30 21 00           ......fdo20!.   
```

#### Opcodes

```
  0: 0x0002 [0x20] SET_CLI_EVENT_UC_FLAG: Lock player control
  1: 0x0004 [0x42] SET_CLI_EVENT_CANCEL_DATA()
  2: 0x0005 [0x45] LOAD_SCHEDULED_TASK: Load scheduler "fdo0" with entities [LocalPlayer, LocalPlayer], work=[200*, 0*]
  3: 0x0016 [0x46] CAMERA_CONTROL: Disable user control
  4: 0x0018 [0x22] ENTITY_HIDE_FLAG(enabled=0x01)
  5: 0x001A [0x47] UPDATE_PLAYER_POS(11.999*, -101.645*, 1.999*, yaw=273.7°*)
  6: 0x0024 [0x47] WAIT_PLAYER_POS_UPDATE
  7: 0x0026 [0x55] WAIT_LOAD_SCHEDULER: Wait for scheduler "fdo0" with entities [LocalPlayer, LocalPlayer], work=200*
  8: 0x0035 [0x45] LOAD_SCHEDULED_TASK: Load scheduler "s062" with entities [LocalPlayer, LocalPlayer], work=[199*, 0*]
  9: 0x0046 [0x45] LOAD_SCHEDULED_TASK: Load scheduler "fdi0" with entities [LocalPlayer, LocalPlayer], work=[200*, 0*]
 10: 0x0057 [0x55] WAIT_LOAD_SCHEDULER: Wait for scheduler "s062" with entities [LocalPlayer, LocalPlayer], work=199*
 11: 0x0066 [0x45] LOAD_SCHEDULED_TASK: Load scheduler "s069" with entities [LocalPlayer, LocalPlayer], work=[199*, 0*]
 12: 0x0077 [0x1C] WAIT(700* ticks)
 13: 0x007A [0x45] LOAD_SCHEDULED_TASK: Load scheduler "ovl1" with entities [LocalPlayer, LocalPlayer], work=[200*, 0*]
 14: 0x008B [0x52] END_LOAD_SCHEDULER: End scheduler "s069" with entities [LocalPlayer, LocalPlayer], work=199*
 15: 0x009A [0x45] LOAD_SCHEDULED_TASK: Load scheduler "s063" with entities [LocalPlayer, LocalPlayer], work=[199*, 0*]
 16: 0x00AB [0x55] WAIT_LOAD_SCHEDULER: Wait for scheduler "s063" with entities [LocalPlayer, LocalPlayer], work=199*
 17: 0x00BA [0x45] LOAD_SCHEDULED_TASK: Load scheduler "fdo2" with entities [LocalPlayer, LocalPlayer], work=[200*, 0*]
 18: 0x00CB [0x55] WAIT_LOAD_SCHEDULER: Wait for scheduler "fdo2" with entities [LocalPlayer, LocalPlayer], work=200*
 19: 0x00DA [0x30] SET_UCOFF_CONTINUE_ZERO()
 20: 0x00DB [0x21] END_EVENT
 21: 0x00DC [0x00] END_REQSTACK()
```

### Event 202

#### Metadata

| Field        | Value    |
|--------------|----------|
| Entrypoint   | 0x00DD   |
| Data Size    | 87 bytes |
| Instructions | 13       |

```
      00 01 02 03 04 05 06 07  08 09 0A 0B 0C 0D 0E 0F
      -- -- -- -- -- -- -- --  -- -- -- -- -- -- -- --
00D0:                                         20 01 42                .B
00E0: 45 00 80 F0 FF FF 7F F0  FF FF 7F 66 64 6F 30 01  E..........fdo0.
00F0: 80 46 01 22 01 47 00 02  80 03 80 04 80 05 80 47  .F.".G.........G
0100: 01 55 00 80 F0 FF FF 7F  F0 FF FF 7F 66 64 6F 30  .U..........fdo0
0110: 46 00 45 00 80 F0 FF FF  7F F0 FF FF 7F 66 64 69  F.E..........fdi
0120: 30 01 80 55 00 80 F0 FF  FF 7F F0 FF FF 7F 66 64  0..U..........fd
0130: 69 30 21 00                                       i0!.            
```

#### Opcodes

```
  0: 0x00DD [0x20] SET_CLI_EVENT_UC_FLAG: Lock player control
  1: 0x00DF [0x42] SET_CLI_EVENT_CANCEL_DATA()
  2: 0x00E0 [0x45] LOAD_SCHEDULED_TASK: Load scheduler "fdo0" with entities [LocalPlayer, LocalPlayer], work=[200*, 0*]
  3: 0x00F1 [0x46] CAMERA_CONTROL: Disable user control
  4: 0x00F3 [0x22] ENTITY_HIDE_FLAG(enabled=0x01)
  5: 0x00F5 [0x47] UPDATE_PLAYER_POS(11.999*, -101.645*, 1.999*, yaw=273.7°*)
  6: 0x00FF [0x47] WAIT_PLAYER_POS_UPDATE
  7: 0x0101 [0x55] WAIT_LOAD_SCHEDULER: Wait for scheduler "fdo0" with entities [LocalPlayer, LocalPlayer], work=200*
  8: 0x0110 [0x46] CAMERA_CONTROL: Restore default settings
  9: 0x0112 [0x45] LOAD_SCHEDULED_TASK: Load scheduler "fdi0" with entities [LocalPlayer, LocalPlayer], work=[200*, 0*]
 10: 0x0123 [0x55] WAIT_LOAD_SCHEDULER: Wait for scheduler "fdi0" with entities [LocalPlayer, LocalPlayer], work=200*
 11: 0x0132 [0x21] END_EVENT
 12: 0x0133 [0x00] END_REQSTACK()
```

### Event 201

#### Metadata

| Field        | Value    |
|--------------|----------|
| Entrypoint   | 0x0134   |
| Data Size    | 58 bytes |
| Instructions | 9        |

```
      00 01 02 03 04 05 06 07  08 09 0A 0B 0C 0D 0E 0F
      -- -- -- -- -- -- -- --  -- -- -- -- -- -- -- --
0130:             20 01 42 45  00 80 F0 FF FF 7F F0 FF       .BE........
0140: FF 7F 66 64 69 32 01 80  46 01 45 06 80 F0 FF FF  ..fdi2..F.E.....
0150: 7F F0 FF FF 7F 73 30 36  34 01 80 55 06 80 F0 FF  .....s064..U....
0160: FF 7F F0 FF FF 7F 73 30  36 34 46 00 21 00        ......s064F.!.  
```

#### Opcodes

```
  0: 0x0134 [0x20] SET_CLI_EVENT_UC_FLAG: Lock player control
  1: 0x0136 [0x42] SET_CLI_EVENT_CANCEL_DATA()
  2: 0x0137 [0x45] LOAD_SCHEDULED_TASK: Load scheduler "fdi2" with entities [LocalPlayer, LocalPlayer], work=[200*, 0*]
  3: 0x0148 [0x46] CAMERA_CONTROL: Disable user control
  4: 0x014A [0x45] LOAD_SCHEDULED_TASK: Load scheduler "s064" with entities [LocalPlayer, LocalPlayer], work=[199*, 0*]
  5: 0x015B [0x55] WAIT_LOAD_SCHEDULER: Wait for scheduler "s064" with entities [LocalPlayer, LocalPlayer], work=199*
  6: 0x016A [0x46] CAMERA_CONTROL: Restore default settings
  7: 0x016C [0x21] END_EVENT
  8: 0x016D [0x00] END_REQSTACK()
```

### Event 65535.1

#### Metadata

| Field        | Value    |
|--------------|----------|
| Entrypoint   | 0x016E   |
| Data Size    | 87 bytes |
| Instructions | 18       |

```
      00 01 02 03 04 05 06 07  08 09 0A 0B 0C 0D 0E 0F
      -- -- -- -- -- -- -- --  -- -- -- -- -- -- -- --
0160:                                            33 01                3.
0170: 32 08 80 29 80 18 50 03  01 02 29 80 13 50 03 01  2..)..P...)..P..
0180: 04 02 80 7F 09 80 02 93  01 1F 00 0A 80 82 7F 81  ................
0190: 7F 1F 01 1F 00 0A 80 0B  80 01 80 1F 01 1F 00 0A  ................
01A0: 80 0C 80 01 80 1F 01 6F  33 00 47 00 0A 80 0C 80  .......o3.G.....
01B0: 01 80 03 7F 47 01 29 80  13 50 03 01 05 29 80 18  ....G.)..P...)..
01C0: 50 03 01 03 00                                    P....           
```

#### Opcodes

```
  0: 0x016E [0x33] EventEntity->Render.Flags0 |= 0x200000 // Bit 21 (flag=0x01)
  1: 0x0170 [0x32] ExtData[1]->MainSpeed = 13* * 0.1
  2: 0x0173 [0x29] REQ_SET_WAIT(priority=0x80, entity_id=Door_1h0 (ID: 16994328/0x01035018), tag_num=0x02)
  3: 0x017A [0x29] REQ_SET_WAIT(priority=0x80, entity_id=Belligerent Sheep (ID: 16994323/0x01035013), tag_num=0x04)
  4: 0x0181 [0x02] IF !(LocalPlayer->LocalPosition.LocalX * 1000.0 <= 2400*) GOTO 0x0193
  5: 0x0189 [0x1F] MOVE_ENTITY: EventEntity moves to X=0.351*, Z=LocalPlayer->LocalPosition.LocalY * 1000.0, Y=LocalPlayer->LocalPosition.LocalZ * 1000.0
  6: 0x0191 [0x1F] MOVE_ENTITY: Update entity position (mode=1)
  7: 0x0193 [0x1F] MOVE_ENTITY: EventEntity moves to X=0.351*, Z=-62.726*, Y=0.000*
  8: 0x019B [0x1F] MOVE_ENTITY: Update entity position (mode=1)
  9: 0x019D [0x1F] MOVE_ENTITY: EventEntity moves to X=0.351*, Z=-68.251*, Y=0.000*
 10: 0x01A5 [0x1F] MOVE_ENTITY: Update entity position (mode=1)
 11: 0x01A7 [0x6F] WAIT_FRAME_DELAY: Yield until WaitTime reaches zero
 12: 0x01A8 [0x33] EventEntity->Render.Flags0 &= ~ 0x200000 // Bit 21 (flag=0x00)
 13: 0x01AA [0x47] UPDATE_PLAYER_POS(0.351*, -68.251*, 0.000*, yaw=enDirCli(ExtData[1]->EventDir[1]) * 4096.0 * 0.15915963)
 14: 0x01B4 [0x47] WAIT_PLAYER_POS_UPDATE
 15: 0x01B6 [0x29] REQ_SET_WAIT(priority=0x80, entity_id=Belligerent Sheep (ID: 16994323/0x01035013), tag_num=0x05)
 16: 0x01BD [0x29] REQ_SET_WAIT(priority=0x80, entity_id=Door_1h0 (ID: 16994328/0x01035018), tag_num=0x03)
 17: 0x01C4 [0x00] END_REQSTACK()
```

### Event 65535.2

#### Metadata

| Field        | Value    |
|--------------|----------|
| Entrypoint   | 0x01C5   |
| Data Size    | 87 bytes |
| Instructions | 18       |

```
      00 01 02 03 04 05 06 07  08 09 0A 0B 0C 0D 0E 0F
      -- -- -- -- -- -- -- --  -- -- -- -- -- -- -- --
01C0:                33 01 32  08 80 29 80 19 50 03 01       3.2..)..P..
01D0: 02 29 80 12 50 03 01 04  02 80 7F 0D 80 03 EA 01  .)..P...........
01E0: 1F 00 0E 80 82 7F 81 7F  1F 01 1F 00 0E 80 0F 80  ................
01F0: 01 80 1F 01 1F 00 0E 80  10 80 01 80 1F 01 6F 33  ..............o3
0200: 00 47 00 0E 80 10 80 01  80 03 7F 47 01 29 80 12  .G.........G.)..
0210: 50 03 01 05 29 80 19 50  03 01 03 00              P...)..P....    
```

#### Opcodes

```
  0: 0x01C5 [0x33] EventEntity->Render.Flags0 |= 0x200000 // Bit 21 (flag=0x01)
  1: 0x01C7 [0x32] ExtData[1]->MainSpeed = 13* * 0.1
  2: 0x01CA [0x29] REQ_SET_WAIT(priority=0x80, entity_id=Door_1h1 (ID: 16994329/0x01035019), tag_num=0x02)
  3: 0x01D1 [0x29] REQ_SET_WAIT(priority=0x80, entity_id=Bellowing Scout (ID: 16994322/0x01035012), tag_num=0x04)
  4: 0x01D8 [0x02] IF !(LocalPlayer->LocalPosition.LocalX * 1000.0 >= 17350*) GOTO 0x01EA
  5: 0x01E0 [0x1F] MOVE_ENTITY: EventEntity moves to X=20.027*, Z=LocalPlayer->LocalPosition.LocalY * 1000.0, Y=LocalPlayer->LocalPosition.LocalZ * 1000.0
  6: 0x01E8 [0x1F] MOVE_ENTITY: Update entity position (mode=1)
  7: 0x01EA [0x1F] MOVE_ENTITY: EventEntity moves to X=20.027*, Z=-57.335*, Y=0.000*
  8: 0x01F2 [0x1F] MOVE_ENTITY: Update entity position (mode=1)
  9: 0x01F4 [0x1F] MOVE_ENTITY: EventEntity moves to X=20.027*, Z=-52.060*, Y=0.000*
 10: 0x01FC [0x1F] MOVE_ENTITY: Update entity position (mode=1)
 11: 0x01FE [0x6F] WAIT_FRAME_DELAY: Yield until WaitTime reaches zero
 12: 0x01FF [0x33] EventEntity->Render.Flags0 &= ~ 0x200000 // Bit 21 (flag=0x00)
 13: 0x0201 [0x47] UPDATE_PLAYER_POS(20.027*, -52.060*, 0.000*, yaw=enDirCli(ExtData[1]->EventDir[1]) * 4096.0 * 0.15915963)
 14: 0x020B [0x47] WAIT_PLAYER_POS_UPDATE
 15: 0x020D [0x29] REQ_SET_WAIT(priority=0x80, entity_id=Bellowing Scout (ID: 16994322/0x01035012), tag_num=0x05)
 16: 0x0214 [0x29] REQ_SET_WAIT(priority=0x80, entity_id=Door_1h1 (ID: 16994329/0x01035019), tag_num=0x03)
 17: 0x021B [0x00] END_REQSTACK()
```

### Event 241

#### Metadata

| Field        | Value     |
|--------------|-----------|
| Entrypoint   | 0x021C    |
| Data Size    | 698 bytes |
| Instructions | 85        |

```
      00 01 02 03 04 05 06 07  08 09 0A 0B 0C 0D 0E 0F
      -- -- -- -- -- -- -- --  -- -- -- -- -- -- -- --
0210:                                      42 45 00 80              BE..
0220: F8 FF FF 7F F8 FF FF 7F  66 64 6F 31 01 80 55 00  ........fdo1..U.
0230: 80 F8 FF FF 7F F8 FF FF  7F 66 64 6F 31 46 01 38  .........fdo1F.8
0240: 11 80 92 01 4E 50 03 01  37 12 80 13 80 01 80 14  ....NP..7.......
0250: 80 80 F8 FF FF 7F 80 4E  50 03 01 4A F0 FF FF 7F  .......NP..J....
0260: 4E 50 03 01 4A 4E 50 03  01 F0 FF FF 7F 02 09 10  NP..JNP.........
0270: 15 80 00 78 02 01 3E 03  45 16 80 F8 FF FF 7F F8  ...x..>.E.......
0280: FF FF 7F 73 30 31 30 01  80 1C 17 80 45 00 80 F8  ...s010.....E...
0290: FF FF 7F F8 FF FF 7F 66  64 69 31 01 80 1C 17 80  .......fdi1.....
02A0: 2B 4E 50 03 01 18 80 23  5B 19 80 4E 50 03 01 4E  +NP....#[..NP..N
02B0: 50 03 01 74 6C 6B 30 2B  4E 50 03 01 1A 80 23 2B  P..tlk0+NP....#+
02C0: 4E 50 03 01 1B 80 23 5B  19 80 4E 50 03 01 4E 50  NP....#[..NP..NP
02D0: 03 01 74 6C 6B 31 52 16  80 F8 FF FF 7F F8 FF FF  ..tlk1R.........
02E0: 7F 73 30 31 30 45 16 80  F8 FF FF 7F F8 FF FF 7F  .s010E..........
02F0: 73 30 31 31 01 80 1C 17  80 5B 19 80 4E 50 03 01  s011.....[..NP..
0300: 4E 50 03 01 74 68 6B 30  2B 4E 50 03 01 1C 80 23  NP..thk0+NP....#
0310: 2B 4E 50 03 01 1D 80 23  5B 19 80 4E 50 03 01 4E  +NP....#[..NP..N
0320: 50 03 01 74 68 6B 31 2B  4E 50 03 01 1E 80 23 52  P..thk1+NP....#R
0330: 16 80 F8 FF FF 7F F8 FF  FF 7F 73 30 31 31 45 16  ..........s011E.
0340: 80 F8 FF FF 7F F8 FF FF  7F 73 30 31 32 01 80 02  .........s012...
0350: 09 10 15 80 00 97 03 1C  17 80 45 00 80 F8 FF FF  ..........E.....
0360: 7F F8 FF FF 7F 66 64 69  31 01 80 1C 17 80 5B 19  .....fdi1.....[.
0370: 80 4E 50 03 01 4E 50 03  01 74 6C 6B 30 2B 4E 50  .NP..NP..tlk0+NP
0380: 03 01 1F 80 23 5B 19 80  4E 50 03 01 4E 50 03 01  ....#[..NP..NP..
0390: 74 6C 6B 31 01 BD 03 5B  20 80 4E 50 03 01 4E 50  tlk1...[ .NP..NP
03A0: 03 01 74 6C 62 30 2B 4E  50 03 01 21 80 23 5B 20  ..tlb0+NP..!.#[ 
03B0: 80 4E 50 03 01 4E 50 03  01 74 6C 62 31 24 22 80  .NP..NP..tlb1$".
03C0: 01 80 01 80 25 02 00 10  01 80 00 25 04 52 16 80  ....%......%.R..
03D0: F8 FF FF 7F F8 FF FF 7F  73 30 31 32 45 16 80 F8  ........s012E...
03E0: FF FF 7F F8 FF FF 7F 73  30 31 33 01 80 5B 20 80  .......s013..[ .
03F0: 4E 50 03 01 4E 50 03 01  74 6C 62 30 03 02 10 23  NP..NP..tlb0...#
0400: 80 03 03 10 24 80 03 04  10 25 80 03 05 10 26 80  ....$....%....&.
0410: 03 06 10 27 80 2B 4E 50  03 01 28 80 23 03 01 10  ...'.+NP..(.#...
0420: 15 80 01 8F 04 02 00 10  15 80 00 8F 04 52 16 80  .............R..
0430: F8 FF FF 7F F8 FF FF 7F  73 30 31 32 45 16 80 F8  ........s012E...
0440: FF FF 7F F8 FF FF 7F 73  30 31 34 01 80 2B 4E 50  .......s014..+NP
0450: 03 01 29 80 23 52 16 80  F8 FF FF 7F F8 FF FF 7F  ..).#R..........
0460: 73 30 31 34 45 16 80 F8  FF FF 7F F8 FF FF 7F 73  s014E..........s
0470: 30 31 33 01 80 5B 19 80  4E 50 03 01 4E 50 03 01  013..[..NP..NP..
0480: 74 6C 6B 30 2B 4E 50 03  01 2A 80 23 01 8F 04 45  tlk0+NP..*.#...E
0490: 00 80 F8 FF FF 7F F8 FF  FF 7F 66 64 6F 31 01 80  ..........fdo1..
04A0: 55 00 80 F8 FF FF 7F F8  FF FF 7F 66 64 6F 31 52  U..........fdo1R
04B0: 16 80 F8 FF FF 7F F8 FF  FF 7F 73 30 31 33 46 00  ..........s013F.
04C0: 1C 17 80 45 00 80 F8 FF  FF 7F F8 FF FF 7F 66 64  ...E..........fd
04D0: 69 31 01 80 21 00                                 i1..!.          
```

#### Opcodes

```
  0: 0x021C [0x42] SET_CLI_EVENT_CANCEL_DATA()
  1: 0x021D [0x45] LOAD_SCHEDULED_TASK: Load scheduler "fdo1" with entities [EventEntity, EventEntity], work=[200*, 0*]
  2: 0x022E [0x55] WAIT_LOAD_SCHEDULER: Wait for scheduler "fdo1" with entities [EventEntity, EventEntity], work=200*
  3: 0x023D [0x46] CAMERA_CONTROL: Disable user control
  4: 0x023F [0x38] SET_CLIENT_EVENT_MODE(mode=27*)
  5: 0x0242 [0x92] Ququroon (ID: 16994382/0x0103504E)->Render.Flags3 ^= 0x01
  6: 0x0248 [0x37] UPDATE_EVENT_POSITION_AND_DIR: x=-0.837*, z=64.442*, y=0.000*, direction=230.5°*
  7: 0x0251 [0x80] LOAD_WAIT(entity=EventEntity)
  8: 0x0256 [0x80] LOAD_WAIT(entity=Ququroon (ID: 16994382/0x0103504E))
  9: 0x025B [0x4A] LocalPlayer looks at Ququroon (ID: 16994382/0x0103504E)
 10: 0x0264 [0x4A] Ququroon (ID: 16994382/0x0103504E) looks at LocalPlayer
 11: 0x026D [0x02] IF !(Work_Zone[9] == 1*) GOTO 0x0278
 12: 0x0275 [0x01] GOTO 0x033E
 13: 0x0278 [0x45] LOAD_SCHEDULED_TASK: Load scheduler "s010" with entities [EventEntity, EventEntity], work=[255*, 0*]
 14: 0x0289 [0x1C] WAIT(60* ticks)
 15: 0x028C [0x45] LOAD_SCHEDULED_TASK: Load scheduler "fdi1" with entities [EventEntity, EventEntity], work=[200*, 0*]
 16: 0x029D [0x1C] WAIT(60* ticks)
 17: 0x02A0 [0x2B] Ququroon (ID: 16994382/0x0103504E) [10611*]:
    → "Ququroon coooking.t Goood foood? Yooo try?"
 18: 0x02A7 [0x23] WAIT_FOR_DIALOG_INTERACTION
 19: 0x02A8 [0x5B] LOAD_EXT_SCHEDULER: Load scheduler "tlk0" with entities [Ququroon (ID: 16994382/0x0103504E), Ququroon (ID: 16994382/0x0103504E)], work=842*
 20: 0x02B7 [0x2B] Ququroon (ID: 16994382/0x0103504E) [10612*]:
    → "Ququroon's dream is tooo open Ququroon restaurant.t"
 21: 0x02BE [0x23] WAIT_FOR_DIALOG_INTERACTION
 22: 0x02BF [0x2B] Ququroon (ID: 16994382/0x0103504E) [10613*]:
    → "Ququroon studies tooo be great chef.t"
 23: 0x02C6 [0x23] WAIT_FOR_DIALOG_INTERACTION
 24: 0x02C7 [0x5B] LOAD_EXT_SCHEDULER: Load scheduler "tlk1" with entities [Ququroon (ID: 16994382/0x0103504E), Ququroon (ID: 16994382/0x0103504E)], work=842*
 25: 0x02D6 [0x52] END_LOAD_SCHEDULER: End scheduler "s010" with entities [EventEntity, EventEntity], work=255*
 26: 0x02E5 [0x45] LOAD_SCHEDULED_TASK: Load scheduler "s011" with entities [EventEntity, EventEntity], work=[255*, 0*]
 27: 0x02F6 [0x1C] WAIT(60* ticks)
 28: 0x02F9 [0x5B] LOAD_EXT_SCHEDULER: Load scheduler "thk0" with entities [Ququroon (ID: 16994382/0x0103504E), Ququroon (ID: 16994382/0x0103504E)], work=842*
 29: 0x0308 [0x2B] Ququroon (ID: 16994382/0x0103504E) [10614*]:
    → "Ququroon has no foood... No goood for Ququroon."
 30: 0x030F [0x23] WAIT_FOR_DIALOG_INTERACTION
 31: 0x0310 [0x2B] Ququroon (ID: 16994382/0x0103504E) [10615*]:
    → "It's hard tooo find goood foood..."
 32: 0x0317 [0x23] WAIT_FOR_DIALOG_INTERACTION
 33: 0x0318 [0x5B] LOAD_EXT_SCHEDULER: Load scheduler "thk1" with entities [Ququroon (ID: 16994382/0x0103504E), Ququroon (ID: 16994382/0x0103504E)], work=842*
 34: 0x0327 [0x2B] Ququroon (ID: 16994382/0x0103504E) [10616*]:
    → "Yooo are adventurer, yes? Yooo find goood foood?"
 35: 0x032E [0x23] WAIT_FOR_DIALOG_INTERACTION
 36: 0x032F [0x52] END_LOAD_SCHEDULER: End scheduler "s011" with entities [EventEntity, EventEntity], work=255*

SUBROUTINE_033E:
 37: 0x033E [0x45] LOAD_SCHEDULED_TASK: Load scheduler "s012" with entities [EventEntity, EventEntity], work=[255*, 0*]
 38: 0x034F [0x02] IF !(Work_Zone[9] == 1*) GOTO 0x0397
 39: 0x0357 [0x1C] WAIT(60* ticks)
 40: 0x035A [0x45] LOAD_SCHEDULED_TASK: Load scheduler "fdi1" with entities [EventEntity, EventEntity], work=[200*, 0*]
 41: 0x036B [0x1C] WAIT(60* ticks)
 42: 0x036E [0x5B] LOAD_EXT_SCHEDULER: Load scheduler "tlk0" with entities [Ququroon (ID: 16994382/0x0103504E), Ququroon (ID: 16994382/0x0103504E)], work=842*
 43: 0x037D [0x2B] Ququroon (ID: 16994382/0x0103504E) [10622*]:
    → "Will adventurer help Ququroon's dream come trooo?"
 44: 0x0384 [0x23] WAIT_FOR_DIALOG_INTERACTION
 45: 0x0385 [0x5B] LOAD_EXT_SCHEDULER: Load scheduler "tlk1" with entities [Ququroon (ID: 16994382/0x0103504E), Ququroon (ID: 16994382/0x0103504E)], work=842*
 46: 0x0394 [0x01] GOTO 0x03BD
 47: 0x0397 [0x5B] LOAD_EXT_SCHEDULER: Load scheduler "tlb0" with entities [Ququroon (ID: 16994382/0x0103504E), Ququroon (ID: 16994382/0x0103504E)], work=843*
 48: 0x03A6 [0x2B] Ququroon (ID: 16994382/0x0103504E) [10617*]:
    → "Yooo find goood foood for Ququroon, yooo eat Ququroon coooking?"
 49: 0x03AD [0x23] WAIT_FOR_DIALOG_INTERACTION
 50: 0x03AE [0x5B] LOAD_EXT_SCHEDULER: Load scheduler "tlb1" with entities [Ququroon (ID: 16994382/0x0103504E), Ququroon (ID: 16994382/0x0103504E)], work=843*

SUBROUTINE_03BD:
 51: 0x03BD [0x24] CREATE_DIALOG(message_id=10618*, default_option=0*, option_flags=0*)
    → "Find "foood" for Ququroon? [Sure./Foood...?]"
 52: 0x03C4 [0x25] WAIT_DIALOG_SELECT()
 53: 0x03C5 [0x02] IF !(Work_Zone[0] == 0*) GOTO 0x0425
 54: 0x03CD [0x52] END_LOAD_SCHEDULER: End scheduler "s012" with entities [EventEntity, EventEntity], work=255*
 55: 0x03DC [0x45] LOAD_SCHEDULED_TASK: Load scheduler "s013" with entities [EventEntity, EventEntity], work=[255*, 0*]
 56: 0x03ED [0x5B] LOAD_EXT_SCHEDULER: Load scheduler "tlb0" with entities [Ququroon (ID: 16994382/0x0103504E), Ququroon (ID: 16994382/0x0103504E)], work=843*
 57: 0x03FC [0x03] Work_Zone[2] = 5453*
 58: 0x0401 [0x03] Work_Zone[3] = 5454*
 59: 0x0406 [0x03] Work_Zone[4] = 5455*
 60: 0x040B [0x03] Work_Zone[5] = 5456*
 61: 0x0410 [0x03] Work_Zone[6] = 5136*
 62: 0x0415 [0x2B] Ququroon (ID: 16994382/0x0103504E) [10619*]:
    → "Thank yooo! Thank yooo! Ququroon need $0, $1, $2, $3, and $4.t"
 63: 0x041C [0x23] WAIT_FOR_DIALOG_INTERACTION
 64: 0x041D [0x03] Work_Zone[1] = 1*
 65: 0x0422 [0x01] GOTO 0x048F
 66: 0x0425 [0x02] IF !(Work_Zone[0] == 1*) GOTO 0x048F
 67: 0x042D [0x52] END_LOAD_SCHEDULER: End scheduler "s012" with entities [EventEntity, EventEntity], work=255*
 68: 0x043C [0x45] LOAD_SCHEDULED_TASK: Load scheduler "s014" with entities [EventEntity, EventEntity], work=[255*, 0*]
 69: 0x044D [0x2B] Ququroon (ID: 16994382/0x0103504E) [10620*]:
    → "Yooo don't care about Ququroon's dream? No...?"
 70: 0x0454 [0x23] WAIT_FOR_DIALOG_INTERACTION
 71: 0x0455 [0x52] END_LOAD_SCHEDULER: End scheduler "s014" with entities [EventEntity, EventEntity], work=255*
 72: 0x0464 [0x45] LOAD_SCHEDULED_TASK: Load scheduler "s013" with entities [EventEntity, EventEntity], work=[255*, 0*]
 73: 0x0475 [0x5B] LOAD_EXT_SCHEDULER: Load scheduler "tlk0" with entities [Ququroon (ID: 16994382/0x0103504E), Ququroon (ID: 16994382/0x0103504E)], work=842*
 74: 0x0484 [0x2B] Ququroon (ID: 16994382/0x0103504E) [10621*]:
    → "Adventurer is croool and mean, yes?"
 75: 0x048B [0x23] WAIT_FOR_DIALOG_INTERACTION
 76: 0x048C [0x01] GOTO 0x048F

SUBROUTINE_048F:
 77: 0x048F [0x45] LOAD_SCHEDULED_TASK: Load scheduler "fdo1" with entities [EventEntity, EventEntity], work=[200*, 0*]
 78: 0x04A0 [0x55] WAIT_LOAD_SCHEDULER: Wait for scheduler "fdo1" with entities [EventEntity, EventEntity], work=200*
 79: 0x04AF [0x52] END_LOAD_SCHEDULER: End scheduler "s013" with entities [EventEntity, EventEntity], work=255*
 80: 0x04BE [0x46] CAMERA_CONTROL: Restore default settings
 81: 0x04C0 [0x1C] WAIT(60* ticks)
 82: 0x04C3 [0x45] LOAD_SCHEDULED_TASK: Load scheduler "fdi1" with entities [EventEntity, EventEntity], work=[200*, 0*]
 83: 0x04D4 [0x21] END_EVENT
 84: 0x04D5 [0x00] END_REQSTACK()
```

### Event 243

#### Metadata

| Field        | Value      |
|--------------|------------|
| Entrypoint   | 0x04D6     |
| Data Size    | 1133 bytes |
| Instructions | 144        |

```
      00 01 02 03 04 05 06 07  08 09 0A 0B 0C 0D 0E 0F
      -- -- -- -- -- -- -- --  -- -- -- -- -- -- -- --
04D0:                   42 02  09 10 01 80 80 E7 04 03        B.........
04E0: 00 00 01 80 01 3A 05 02  09 10 15 80 80 1A 05 24  .....:.........$
04F0: 2B 80 01 80 01 80 25 02  00 10 01 80 00 07 05 03  +.....%.........
0500: 00 00 2C 80 01 17 05 02  00 10 15 80 00 17 05 03  ..,.............
0510: 00 00 2D 80 01 17 05 01  3A 05 02 09 10 2E 80 80  ..-.....:.......
0520: 2A 05 03 00 00 2C 80 01  3A 05 02 09 10 2F 80 80  *....,..:..../..
0530: 3A 05 03 00 00 2D 80 01  3A 05 45 00 80 F8 FF FF  :....-..:.E.....
0540: 7F F8 FF FF 7F 66 64 6F  31 01 80 55 00 80 F8 FF  .....fdo1..U....
0550: FF 7F F8 FF FF 7F 66 64  6F 31 46 01 38 11 80 92  ......fdo1F.8...
0560: 01 4E 50 03 01 37 12 80  13 80 01 80 14 80 80 F8  .NP..7..........
0570: FF FF 7F 80 4E 50 03 01  4A F0 FF FF 7F 4E 50 03  ....NP..J....NP.
0580: 01 4A 4E 50 03 01 F0 FF  FF 7F 45 16 80 F8 FF FF  .JNP......E.....
0590: 7F F8 FF FF 7F 73 30 31  35 01 80 1C 17 80 45 00  .....s015.....E.
05A0: 80 F8 FF FF 7F F8 FF FF  7F 66 64 69 31 01 80 1C  .........fdi1...
05B0: 17 80 5B 20 80 4E 50 03  01 4E 50 03 01 74 6C 62  ..[ .NP..NP..tlb
05C0: 30 2B 4E 50 03 01 30 80  23 5B 20 80 4E 50 03 01  0+NP..0.#[ .NP..
05D0: 4E 50 03 01 74 6C 62 31  52 16 80 F8 FF FF 7F F8  NP..tlb1R.......
05E0: FF FF 7F 73 30 31 35 45  16 80 F8 FF FF 7F F8 FF  ...s015E........
05F0: FF 7F 73 30 31 36 01 80  2B 4E 50 03 01 18 80 23  ..s016..+NP....#
0600: 5B 19 80 4E 50 03 01 4E  50 03 01 74 6C 6B 30 2B  [..NP..NP..tlk0+
0610: 4E 50 03 01 31 80 23 5B  19 80 4E 50 03 01 4E 50  NP..1.#[..NP..NP
0620: 03 01 74 6C 6B 31 2B 4E  50 03 01 32 80 23 5D 01  ..tlk1+NP..2.#].
0630: 80 33 80 45 00 80 F8 FF  FF 7F F8 FF FF 7F 66 64  .3.E..........fd
0640: 6F 31 01 80 55 00 80 F8  FF FF 7F F8 FF FF 7F 66  o1..U..........f
0650: 64 6F 31 52 16 80 F8 FF  FF 7F F8 FF FF 7F 73 30  do1R..........s0
0660: 31 36 1C 34 80 5C 00 01  80 5C 01 01 80 45 35 80  16.4.\...\...E5.
0670: 4E 50 03 01 F0 FF FF 7F  64 6B 64 6B 01 80 1C 36  NP......dkdk...6
0680: 80 5D 01 80 01 80 45 16  80 F8 FF FF 7F F8 FF FF  .]....E.........
0690: 7F 73 30 31 37 01 80 1C  17 80 45 00 80 F8 FF FF  .s017.....E.....
06A0: 7F F8 FF FF 7F 66 64 69  31 01 80 02 09 10 01 80  .....fdi1.......
06B0: 00 B8 06 13 00 00 37 80  02 00 00 2D 80 03 56 08  ......7....-..V.
06C0: 03 01 10 15 80 43 00 43  01 45 16 80 F8 FF FF 7F  .....C.C.E......
06D0: F8 FF FF 7F 73 30 39 34  01 80 1C 17 80 5B 20 80  ....s094.....[ .
06E0: 4E 50 03 01 4E 50 03 01  74 6C 62 30 5C 00 38 80  NP..NP..tlb0\.8.
06F0: 5C 01 38 80 2B 4E 50 03  01 39 80 23 5B 20 80 4E  \.8.+NP..9.#[ .N
0700: 50 03 01 4E 50 03 01 74  6C 62 31 03 02 10 3A 80  P..NP..tlb1...:.
0710: 2B 4E 50 03 01 3B 80 23  52 16 80 F8 FF FF 7F F8  +NP..;.#R.......
0720: FF FF 7F 73 30 31 37 45  16 80 F8 FF FF 7F F8 FF  ...s017E........
0730: FF 7F 73 30 31 38 01 80  5B 19 80 4E 50 03 01 4E  ..s018..[..NP..N
0740: 50 03 01 70 61 73 30 2B  4E 50 03 01 3C 80 23 2B  P..pas0+NP..<.#+
0750: 4E 50 03 01 3D 80 23 52  16 80 F8 FF FF 7F F8 FF  NP..=.#R........
0760: FF 7F 73 30 31 38 45 16  80 F8 FF FF 7F F8 FF FF  ..s018E.........
0770: 7F 73 30 31 39 01 80 5B  19 80 4E 50 03 01 4E 50  .s019..[..NP..NP
0780: 03 01 74 6C 6B 30 2B 4E  50 03 01 3E 80 23 5B 19  ..tlk0+NP..>.#[.
0790: 80 4E 50 03 01 4E 50 03  01 74 6C 6B 31 2B 4E 50  .NP..NP..tlk1+NP
07A0: 03 01 3F 80 23 52 16 80  F8 FF FF 7F F8 FF FF 7F  ..?.#R..........
07B0: 73 30 31 39 45 16 80 F8  FF FF 7F F8 FF FF 7F 73  s019E..........s
07C0: 30 32 30 01 80 27 05 4E  50 03 01 04 2B 4E 50 03  020..'.NP...+NP.
07D0: 01 40 80 23 2A 05 4E 50  03 01 1E 4E 50 03 01 5B  .@.#*.NP...NP..[
07E0: 19 80 4E 50 03 01 4E 50  03 01 74 68 6B 30 2B 4E  ..NP..NP..thk0+N
07F0: 50 03 01 41 80 23 1C 17  80 5B 19 80 4E 50 03 01  P..A.#...[..NP..
0800: 4E 50 03 01 74 68 6B 31  52 16 80 F8 FF FF 7F F8  NP..thk1R.......
0810: FF FF 7F 73 30 32 30 45  16 80 F8 FF FF 7F F8 FF  ...s020E........
0820: FF 7F 73 30 32 31 01 80  1C 17 80 4A 4E 50 03 01  ..s021.....JNP..
0830: F0 FF FF 7F 2B 4E 50 03  01 42 80 23 5B 20 80 4E  ....+NP..B.#[ .N
0840: 50 03 01 4E 50 03 01 74  6C 62 30 2B 4E 50 03 01  P..NP..tlb0+NP..
0850: 43 80 23 01 DC 08 02 00  00 2D 80 04 DC 08 03 01  C.#......-......
0860: 10 2E 80 43 00 43 01 45  16 80 F8 FF FF 7F F8 FF  ...C.C.E........
0870: FF 7F 73 30 39 35 01 80  1C 17 80 5B 19 80 4E 50  ..s095.....[..NP
0880: 03 01 4E 50 03 01 74 68  6B 30 5C 00 38 80 5C 01  ..NP..thk0\.8.\.
0890: 38 80 2B 4E 50 03 01 44  80 23 2B 4E 50 03 01 45  8.+NP..D.#+NP..E
08A0: 80 23 52 16 80 F8 FF FF  7F F8 FF FF 7F 73 30 31  .#R..........s01
08B0: 37 45 16 80 F8 FF FF 7F  F8 FF FF 7F 73 30 39 37  7E..........s097
08C0: 01 80 1C 33 80 5B 19 80  4E 50 03 01 4E 50 03 01  ...3.[..NP..NP..
08D0: 74 68 6B 31 2B 4E 50 03  01 46 80 23 45 00 80 F8  thk1+NP..F.#E...
08E0: FF FF 7F F8 FF FF 7F 66  64 6F 31 01 80 55 00 80  .......fdo1..U..
08F0: F8 FF FF 7F F8 FF FF 7F  66 64 6F 31 52 16 80 F8  ........fdo1R...
0900: FF FF 7F F8 FF FF 7F 73  30 32 31 52 16 80 F8 FF  .......s021R....
0910: FF 7F F8 FF FF 7F 73 30  39 37 45 47 80 F0 FF FF  ......s097EG....
0920: 7F F0 FF FF 7F 71 73 74  63 01 80 46 00 1C 17 80  .....qstc..F....
0930: 45 00 80 F8 FF FF 7F F8  FF FF 7F 66 64 69 31 01  E..........fdi1.
0940: 80 21 00                                          .!.             
```

#### Opcodes

```
  0: 0x04D6 [0x42] SET_CLI_EVENT_CANCEL_DATA()
  1: 0x04D7 [0x02] IF !(Work_Zone[9] == 0*) GOTO 0x04E7
  2: 0x04DF [0x03] ExtData[1]->WorkLocal[0] = 0*
  3: 0x04E4 [0x01] GOTO 0x053A
  4: 0x04E7 [0x02] IF !(Work_Zone[9] == 1*) GOTO 0x051A
  5: 0x04EF [0x24] CREATE_DIALOG(message_id=10640*, default_option=0*, option_flags=0*)
    → "Which will you watch? [Goood foood?/Croood foood?]"
  6: 0x04F6 [0x25] WAIT_DIALOG_SELECT()
  7: 0x04F7 [0x02] IF !(Work_Zone[0] == 0*) GOTO 0x0507
  8: 0x04FF [0x03] ExtData[1]->WorkLocal[0] = 10*
  9: 0x0504 [0x01] GOTO 0x0517
 10: 0x0507 [0x02] IF !(Work_Zone[0] == 1*) GOTO 0x0517
 11: 0x050F [0x03] ExtData[1]->WorkLocal[0] = 50*
 12: 0x0514 [0x01] GOTO 0x0517

SUBROUTINE_0517:
 13: 0x0517 [0x01] GOTO 0x053A
 14: 0x051A [0x02] IF !(Work_Zone[9] == 2*) GOTO 0x052A
 15: 0x0522 [0x03] ExtData[1]->WorkLocal[0] = 10*
 16: 0x0527 [0x01] GOTO 0x053A
 17: 0x052A [0x02] IF !(Work_Zone[9] == 3*) GOTO 0x053A
 18: 0x0532 [0x03] ExtData[1]->WorkLocal[0] = 50*
 19: 0x0537 [0x01] GOTO 0x053A

SUBROUTINE_053A:
 20: 0x053A [0x45] LOAD_SCHEDULED_TASK: Load scheduler "fdo1" with entities [EventEntity, EventEntity], work=[200*, 0*]
 21: 0x054B [0x55] WAIT_LOAD_SCHEDULER: Wait for scheduler "fdo1" with entities [EventEntity, EventEntity], work=200*
 22: 0x055A [0x46] CAMERA_CONTROL: Disable user control
 23: 0x055C [0x38] SET_CLIENT_EVENT_MODE(mode=27*)
 24: 0x055F [0x92] Ququroon (ID: 16994382/0x0103504E)->Render.Flags3 ^= 0x01
 25: 0x0565 [0x37] UPDATE_EVENT_POSITION_AND_DIR: x=-0.837*, z=64.442*, y=0.000*, direction=230.5°*
 26: 0x056E [0x80] LOAD_WAIT(entity=EventEntity)
 27: 0x0573 [0x80] LOAD_WAIT(entity=Ququroon (ID: 16994382/0x0103504E))
 28: 0x0578 [0x4A] LocalPlayer looks at Ququroon (ID: 16994382/0x0103504E)
 29: 0x0581 [0x4A] Ququroon (ID: 16994382/0x0103504E) looks at LocalPlayer
 30: 0x058A [0x45] LOAD_SCHEDULED_TASK: Load scheduler "s015" with entities [EventEntity, EventEntity], work=[255*, 0*]
 31: 0x059B [0x1C] WAIT(60* ticks)
 32: 0x059E [0x45] LOAD_SCHEDULED_TASK: Load scheduler "fdi1" with entities [EventEntity, EventEntity], work=[200*, 0*]
 33: 0x05AF [0x1C] WAIT(60* ticks)
 34: 0x05B2 [0x5B] LOAD_EXT_SCHEDULER: Load scheduler "tlb0" with entities [Ququroon (ID: 16994382/0x0103504E), Ququroon (ID: 16994382/0x0103504E)], work=843*
 35: 0x05C1 [0x2B] Ququroon (ID: 16994382/0x0103504E) [10624*]:
    → "Thank yooo for the foood.t"
 36: 0x05C8 [0x23] WAIT_FOR_DIALOG_INTERACTION
 37: 0x05C9 [0x5B] LOAD_EXT_SCHEDULER: Load scheduler "tlb1" with entities [Ququroon (ID: 16994382/0x0103504E), Ququroon (ID: 16994382/0x0103504E)], work=843*
 38: 0x05D8 [0x52] END_LOAD_SCHEDULER: End scheduler "s015" with entities [EventEntity, EventEntity], work=255*
 39: 0x05E7 [0x45] LOAD_SCHEDULED_TASK: Load scheduler "s016" with entities [EventEntity, EventEntity], work=[255*, 0*]
 40: 0x05F8 [0x2B] Ququroon (ID: 16994382/0x0103504E) [10611*]:
    → "Ququroon coooking.t Goood foood? Yooo try?"
 41: 0x05FF [0x23] WAIT_FOR_DIALOG_INTERACTION
 42: 0x0600 [0x5B] LOAD_EXT_SCHEDULER: Load scheduler "tlk0" with entities [Ququroon (ID: 16994382/0x0103504E), Ququroon (ID: 16994382/0x0103504E)], work=842*
 43: 0x060F [0x2B] Ququroon (ID: 16994382/0x0103504E) [10625*]:
    → "Yooo try Ququroon coooking?"
 44: 0x0616 [0x23] WAIT_FOR_DIALOG_INTERACTION
 45: 0x0617 [0x5B] LOAD_EXT_SCHEDULER: Load scheduler "tlk1" with entities [Ququroon (ID: 16994382/0x0103504E), Ququroon (ID: 16994382/0x0103504E)], work=842*
 46: 0x0626 [0x2B] Ququroon (ID: 16994382/0x0103504E) [10626*]:
    → "Stand back? Ququroon coooking is sooon tooo begin.t"
 47: 0x062D [0x23] WAIT_FOR_DIALOG_INTERACTION
 48: 0x062E [0x5D] SET_MUSIC_VOLUME(volume=0*, fade_time=120*)
 49: 0x0633 [0x45] LOAD_SCHEDULED_TASK: Load scheduler "fdo1" with entities [EventEntity, EventEntity], work=[200*, 0*]
 50: 0x0644 [0x55] WAIT_LOAD_SCHEDULER: Wait for scheduler "fdo1" with entities [EventEntity, EventEntity], work=200*
 51: 0x0653 [0x52] END_LOAD_SCHEDULER: End scheduler "s016" with entities [EventEntity, EventEntity], work=255*
 52: 0x0662 [0x1C] WAIT(90* ticks)
 53: 0x0665 [0x5C] MUSIC_CONTROL: Set Idle (Day) music to song 0*
 54: 0x0669 [0x5C] MUSIC_CONTROL: Set Idle (Night) music to song 0*
 55: 0x066D [0x45] LOAD_SCHEDULED_TASK: Load scheduler "dkdk" with entities [Ququroon (ID: 16994382/0x0103504E), LocalPlayer], work=[259*, 0*]
 56: 0x067E [0x1C] WAIT(180* ticks)
 57: 0x0681 [0x5D] SET_MUSIC_VOLUME(volume=0*, fade_time=0*)
 58: 0x0686 [0x45] LOAD_SCHEDULED_TASK: Load scheduler "s017" with entities [EventEntity, EventEntity], work=[255*, 0*]
 59: 0x0697 [0x1C] WAIT(60* ticks)
 60: 0x069A [0x45] LOAD_SCHEDULED_TASK: Load scheduler "fdi1" with entities [EventEntity, EventEntity], work=[200*, 0*]
 61: 0x06AB [0x02] IF !(Work_Zone[9] == 0*) GOTO 0x06B8
 62: 0x06B3 [0x13] ExtData[1]->WorkLocal[0] = rand() % 99*
 63: 0x06B8 [0x02] IF !(ExtData[1]->WorkLocal[0] >= 50*) GOTO 0x0856
 64: 0x06C0 [0x03] Work_Zone[1] = 1*
 65: 0x06C5 [0x43] SEND_EVENT_UPDATE: Send pending tag to server (packet 0x005B)
 66: 0x06C7 [0x43] SEND_EVENT_UPDATE: Check pending flag (skip if not pending)
 67: 0x06C9 [0x45] LOAD_SCHEDULED_TASK: Load scheduler "s094" with entities [EventEntity, EventEntity], work=[255*, 0*]
 68: 0x06DA [0x1C] WAIT(60* ticks)
 69: 0x06DD [0x5B] LOAD_EXT_SCHEDULER: Load scheduler "tlb0" with entities [Ququroon (ID: 16994382/0x0103504E), Ququroon (ID: 16994382/0x0103504E)], work=843*
 70: 0x06EC [0x5C] MUSIC_CONTROL: Set Idle (Day) music to song 175*
 71: 0x06F0 [0x5C] MUSIC_CONTROL: Set Idle (Night) music to song 175*
 72: 0x06F4 [0x2B] Ququroon (ID: 16994382/0x0103504E) [10627*]:
    → "Ququroon coooking is goood.t"
 73: 0x06FB [0x23] WAIT_FOR_DIALOG_INTERACTION
 74: 0x06FC [0x5B] LOAD_EXT_SCHEDULER: Load scheduler "tlb1" with entities [Ququroon (ID: 16994382/0x0103504E), Ququroon (ID: 16994382/0x0103504E)], work=843*
 75: 0x070B [0x03] Work_Zone[2] = 5595*
 76: 0x0710 [0x2B] Ququroon (ID: 16994382/0x0103504E) [10628*]:
    → "Ququroon has made $0.t"
 77: 0x0717 [0x23] WAIT_FOR_DIALOG_INTERACTION
 78: 0x0718 [0x52] END_LOAD_SCHEDULER: End scheduler "s017" with entities [EventEntity, EventEntity], work=255*
 79: 0x0727 [0x45] LOAD_SCHEDULED_TASK: Load scheduler "s018" with entities [EventEntity, EventEntity], work=[255*, 0*]
 80: 0x0738 [0x5B] LOAD_EXT_SCHEDULER: Load scheduler "pas0" with entities [Ququroon (ID: 16994382/0x0103504E), Ququroon (ID: 16994382/0x0103504E)], work=842*
 81: 0x0747 [0x2B] Ququroon (ID: 16994382/0x0103504E) [10629*]:
    → "Adventurer eat sooon?"
 82: 0x074E [0x23] WAIT_FOR_DIALOG_INTERACTION
 83: 0x074F [0x2B] Ququroon (ID: 16994382/0x0103504E) [10630*]:
    → "Foood delicious, trust Ququroon.t"
 84: 0x0756 [0x23] WAIT_FOR_DIALOG_INTERACTION
 85: 0x0757 [0x52] END_LOAD_SCHEDULER: End scheduler "s018" with entities [EventEntity, EventEntity], work=255*
 86: 0x0766 [0x45] LOAD_SCHEDULED_TASK: Load scheduler "s019" with entities [EventEntity, EventEntity], work=[255*, 0*]
 87: 0x0777 [0x5B] LOAD_EXT_SCHEDULER: Load scheduler "tlk0" with entities [Ququroon (ID: 16994382/0x0103504E), Ququroon (ID: 16994382/0x0103504E)], work=842*
 88: 0x0786 [0x2B] Ququroon (ID: 16994382/0x0103504E) [10631*]:
    → "Ququroon's dream is to open Ququroon restaurant.t"
 89: 0x078D [0x23] WAIT_FOR_DIALOG_INTERACTION
 90: 0x078E [0x5B] LOAD_EXT_SCHEDULER: Load scheduler "tlk1" with entities [Ququroon (ID: 16994382/0x0103504E), Ququroon (ID: 16994382/0x0103504E)], work=842*
 91: 0x079D [0x2B] Ququroon (ID: 16994382/0x0103504E) [10632*]:
    → "Ququroon's dream is close, yes?"
 92: 0x07A4 [0x23] WAIT_FOR_DIALOG_INTERACTION
 93: 0x07A5 [0x52] END_LOAD_SCHEDULER: End scheduler "s019" with entities [EventEntity, EventEntity], work=255*
 94: 0x07B4 [0x45] LOAD_SCHEDULED_TASK: Load scheduler "s020" with entities [EventEntity, EventEntity], work=[255*, 0*]
 95: 0x07C5 [0x27] REQ_SET(priority=0x05, entity_id=Ququroon (ID: 16994382/0x0103504E), tag_num=0x04)
 96: 0x07CC [0x2B] Ququroon (ID: 16994382/0x0103504E) [10633*]:
    → "Ququroon will open a restaurant.t Maybe open 3...or 4...or 5...or 6..."
 97: 0x07D3 [0x23] WAIT_FOR_DIALOG_INTERACTION
 98: 0x07D4 [0x2A] GET_REQ_LEVEL(level=5, entity_id=Ququroon (ID: 16994382/0x0103504E))
 99: 0x07DA [0x1E] EventEntity looks at Ququroon (ID: 16994382/0x0103504E) and starts talking
100: 0x07DF [0x5B] LOAD_EXT_SCHEDULER: Load scheduler "thk0" with entities [Ququroon (ID: 16994382/0x0103504E), Ququroon (ID: 16994382/0x0103504E)], work=842*
101: 0x07EE [0x2B] Ququroon (ID: 16994382/0x0103504E) [10634*]:
    → "...or more?"
102: 0x07F5 [0x23] WAIT_FOR_DIALOG_INTERACTION
103: 0x07F6 [0x1C] WAIT(60* ticks)
104: 0x07F9 [0x5B] LOAD_EXT_SCHEDULER: Load scheduler "thk1" with entities [Ququroon (ID: 16994382/0x0103504E), Ququroon (ID: 16994382/0x0103504E)], work=842*
105: 0x0808 [0x52] END_LOAD_SCHEDULER: End scheduler "s020" with entities [EventEntity, EventEntity], work=255*
106: 0x0817 [0x45] LOAD_SCHEDULED_TASK: Load scheduler "s021" with entities [EventEntity, EventEntity], work=[255*, 0*]
107: 0x0828 [0x1C] WAIT(60* ticks)
108: 0x082B [0x4A] Ququroon (ID: 16994382/0x0103504E) looks at LocalPlayer
109: 0x0834 [0x2B] Ququroon (ID: 16994382/0x0103504E) [10635*]:
    → "Ququroon's dream is close, yes?"
110: 0x083B [0x23] WAIT_FOR_DIALOG_INTERACTION
111: 0x083C [0x5B] LOAD_EXT_SCHEDULER: Load scheduler "tlb0" with entities [Ququroon (ID: 16994382/0x0103504E), Ququroon (ID: 16994382/0x0103504E)], work=843*
112: 0x084B [0x2B] Ququroon (ID: 16994382/0x0103504E) [10636*]:
    → "Everyone will love Ququroon coooking?"
113: 0x0852 [0x23] WAIT_FOR_DIALOG_INTERACTION
114: 0x0853 [0x01] GOTO 0x08DC
115: 0x0856 [0x02] IF !(ExtData[1]->WorkLocal[0] < 50*) GOTO 0x08DC
116: 0x085E [0x03] Work_Zone[1] = 2*
117: 0x0863 [0x43] SEND_EVENT_UPDATE: Send pending tag to server (packet 0x005B)
118: 0x0865 [0x43] SEND_EVENT_UPDATE: Check pending flag (skip if not pending)
119: 0x0867 [0x45] LOAD_SCHEDULED_TASK: Load scheduler "s095" with entities [EventEntity, EventEntity], work=[255*, 0*]
120: 0x0878 [0x1C] WAIT(60* ticks)
121: 0x087B [0x5B] LOAD_EXT_SCHEDULER: Load scheduler "thk0" with entities [Ququroon (ID: 16994382/0x0103504E), Ququroon (ID: 16994382/0x0103504E)], work=842*
122: 0x088A [0x5C] MUSIC_CONTROL: Set Idle (Day) music to song 175*
123: 0x088E [0x5C] MUSIC_CONTROL: Set Idle (Night) music to song 175*
124: 0x0892 [0x2B] Ququroon (ID: 16994382/0x0103504E) [10637*]:
    → "Oh no... Ququroon has made croood foood?"
125: 0x0899 [0x23] WAIT_FOR_DIALOG_INTERACTION
126: 0x089A [0x2B] Ququroon (ID: 16994382/0x0103504E) [10638*]:
    → "Today is a bad vooodooo day? Poor Ququroon?"
127: 0x08A1 [0x23] WAIT_FOR_DIALOG_INTERACTION
128: 0x08A2 [0x52] END_LOAD_SCHEDULER: End scheduler "s017" with entities [EventEntity, EventEntity], work=255*
129: 0x08B1 [0x45] LOAD_SCHEDULED_TASK: Load scheduler "s097" with entities [EventEntity, EventEntity], work=[255*, 0*]
130: 0x08C2 [0x1C] WAIT(120* ticks)
131: 0x08C5 [0x5B] LOAD_EXT_SCHEDULER: Load scheduler "thk1" with entities [Ququroon (ID: 16994382/0x0103504E), Ququroon (ID: 16994382/0x0103504E)], work=842*
132: 0x08D4 [0x2B] Ququroon (ID: 16994382/0x0103504E) [10639*]:
    → "Ququroon is sorry? Ququroon coooking is croood, yes?"
133: 0x08DB [0x23] WAIT_FOR_DIALOG_INTERACTION

SUBROUTINE_08DC:
134: 0x08DC [0x45] LOAD_SCHEDULED_TASK: Load scheduler "fdo1" with entities [EventEntity, EventEntity], work=[200*, 0*]
135: 0x08ED [0x55] WAIT_LOAD_SCHEDULER: Wait for scheduler "fdo1" with entities [EventEntity, EventEntity], work=200*
136: 0x08FC [0x52] END_LOAD_SCHEDULER: End scheduler "s021" with entities [EventEntity, EventEntity], work=255*
137: 0x090B [0x52] END_LOAD_SCHEDULER: End scheduler "s097" with entities [EventEntity, EventEntity], work=255*
138: 0x091A [0x45] LOAD_SCHEDULED_TASK: Load scheduler "qstc" with entities [LocalPlayer, LocalPlayer], work=[201*, 0*]
139: 0x092B [0x46] CAMERA_CONTROL: Restore default settings
140: 0x092D [0x1C] WAIT(60* ticks)
141: 0x0930 [0x45] LOAD_SCHEDULED_TASK: Load scheduler "fdi1" with entities [EventEntity, EventEntity], work=[200*, 0*]
142: 0x0941 [0x21] END_EVENT
143: 0x0942 [0x00] END_REQSTACK()
```

### Event 245

#### Metadata

| Field        | Value     |
|--------------|-----------|
| Entrypoint   | 0x0943    |
| Data Size    | 917 bytes |
| Instructions | 117       |

```
      00 01 02 03 04 05 06 07  08 09 0A 0B 0C 0D 0E 0F
      -- -- -- -- -- -- -- --  -- -- -- -- -- -- -- --
0940:          42 45 00 80 F8  FF FF 7F F8 FF FF 7F 66     BE..........f
0950: 64 6F 31 01 80 55 00 80  F8 FF FF 7F F8 FF FF 7F  do1..U..........
0960: 66 64 6F 31 46 01 38 48  80 37 49 80 4A 80 01 80  fdo1F.8H.7I.J...
0970: 4B 80 92 01 26 50 03 01  92 01 4F 50 03 01 2F 00  K...&P....OP../.
0980: 4F 50 03 01 4E 00 4F 50  03 01 80 F0 FF FF 7F 80  OP..N.OP........
0990: 4F 50 03 01 1C 4C 80 4A  F0 FF FF 7F 4F 50 03 01  OP...L.J....OP..
09A0: 45 4D 80 F8 FF FF 7F F8  FF FF 7F 73 30 31 31 01  EM.........s011.
09B0: 80 1C 17 80 45 00 80 F8  FF FF 7F F8 FF FF 7F 66  ....E..........f
09C0: 64 69 31 01 80 1C 34 80  5B 19 80 26 50 03 01 26  di1...4.[..&P..&
09D0: 50 03 01 74 6C 6B 30 2B  26 50 03 01 4E 80 23 5B  P..tlk0+&P..N.#[
09E0: 19 80 26 50 03 01 26 50  03 01 74 6C 6B 31 52 4D  ..&P..&P..tlk1RM
09F0: 80 F8 FF FF 7F F8 FF FF  7F 73 30 31 31 45 4D 80  .........s011EM.
0A00: F8 FF FF 7F F8 FF FF 7F  73 30 31 32 01 80 5B 19  ........s012..[.
0A10: 80 26 50 03 01 26 50 03  01 74 68 6B 30 27 10 4F  .&P..&P..thk0'.O
0A20: 50 03 01 02 1C 17 80 5B  19 80 26 50 03 01 26 50  P......[..&P..&P
0A30: 03 01 74 68 6B 31 2B 4F  50 03 01 4F 80 23 1C 17  ..thk1+OP..O.#..
0A40: 80 4A 26 50 03 01 4F 50  03 01 2B 4F 50 03 01 50  .J&P..OP..+OP..P
0A50: 80 23 52 4D 80 F8 FF FF  7F F8 FF FF 7F 73 30 31  .#RM.........s01
0A60: 32 45 4D 80 F8 FF FF 7F  F8 FF FF 7F 73 30 31 33  2EM.........s013
0A70: 01 80 2B 4F 50 03 01 51  80 23 1C 17 80 24 52 80  ..+OP..Q.#...$R.
0A80: 01 80 01 80 25 02 00 10  15 80 00 BC 0A 66 53 80  ....%........fS.
0A90: 4F 50 03 01 4F 50 03 01  74 6C 6B 30 2B 4F 50 03  OP..OP..tlk0+OP.
0AA0: 01 54 80 23 66 53 80 4F  50 03 01 4F 50 03 01 74  .T.#fS.OP..OP..t
0AB0: 6C 6B 31 1C 4C 80 01 7D  0A 01 BC 0A 52 4D 80 F8  lk1.L..}....RM..
0AC0: FF FF 7F F8 FF FF 7F 73  30 31 33 45 4D 80 F8 FF  .......s013EM...
0AD0: FF 7F F8 FF FF 7F 73 30  31 34 01 80 1C 17 80 5B  ......s014.....[
0AE0: 20 80 26 50 03 01 26 50  03 01 68 61 70 30 2B 4F   .&P..&P..hap0+O
0AF0: 50 03 01 55 80 23 24 56  80 01 80 01 80 25 02 00  P..U.#$V.....%..
0B00: 10 01 80 00 13 0B 03 01  10 15 80 03 02 10 15 80  ................
0B10: 01 3D 0B 02 00 10 15 80  00 28 0B 03 01 10 2E 80  .=.......(......
0B20: 03 02 10 2E 80 01 3D 0B  02 00 10 2E 80 00 3D 0B  ......=.......=.
0B30: 03 01 10 2F 80 03 02 10  2F 80 01 3D 0B 52 4D 80  .../..../..=.RM.
0B40: F8 FF FF 7F F8 FF FF 7F  73 30 31 34 45 4D 80 F8  ........s014EM..
0B50: FF FF 7F F8 FF FF 7F 73  30 31 35 01 80 1C 17 80  .......s015.....
0B60: 2B 4F 50 03 01 57 80 29  10 4F 50 03 01 03 2B 4F  +OP..W.).OP...+O
0B70: 50 03 01 58 80 23 66 59  80 4F 50 03 01 4F 50 03  P..X.#fY.OP..OP.
0B80: 01 64 61 69 31 53 4F 50  03 01 4F 50 03 01 64 61  .dai1SOP..OP..da
0B90: 69 31 1C 4C 80 52 4D 80  F8 FF FF 7F F8 FF FF 7F  i1.L.RM.........
0BA0: 73 30 31 35 45 4D 80 F8  FF FF 7F F8 FF FF 7F 73  s015EM.........s
0BB0: 30 31 36 01 80 1C 33 80  2B 4F 50 03 01 5A 80 23  016...3.+OP..Z.#
0BC0: 2B 4F 50 03 01 5B 80 23  1C 34 80 27 10 4F 50 03  +OP..[.#.4.'.OP.
0BD0: 01 04 1C 00 80 45 00 80  F8 FF FF 7F F8 FF FF 7F  .....E..........
0BE0: 6F 76 6C 32 01 80 52 4D  80 F8 FF FF 7F F8 FF FF  ovl2..RM........
0BF0: 7F 73 30 31 36 4E 01 4F  50 03 01 45 4D 80 F8 FF  .s016N.OP..EM...
0C00: FF 7F F8 FF FF 7F 73 30  31 37 01 80 1C 34 80 4A  ......s017...4.J
0C10: 26 50 03 01 F0 FF FF 7F  4A F0 FF FF 7F 26 50 03  &P......J....&P.
0C20: 01 5B 20 80 26 50 03 01  26 50 03 01 74 6C 62 30  .[ .&P..&P..tlb0
0C30: 2B 26 50 03 01 5C 80 23  03 02 10 5D 80 2B 26 50  +&P..\.#...].+&P
0C40: 03 01 5E 80 23 5B 20 80  26 50 03 01 26 50 03 01  ..^.#[ .&P..&P..
0C50: 74 6C 62 31 52 4D 80 F8  FF FF 7F F8 FF FF 7F 73  tlb1RM.........s
0C60: 30 31 37 45 4D 80 F8 FF  FF 7F F8 FF FF 7F 73 30  017EM.........s0
0C70: 31 38 01 80 1C 17 80 5B  20 80 26 50 03 01 26 50  18.....[ .&P..&P
0C80: 03 01 74 6C 62 30 2B 26  50 03 01 5F 80 23 1C 34  ..tlb0+&P.._.#.4
0C90: 80 45 00 80 F8 FF FF 7F  F8 FF FF 7F 66 64 6F 31  .E..........fdo1
0CA0: 01 80 55 00 80 F8 FF FF  7F F8 FF FF 7F 66 64 6F  ..U..........fdo
0CB0: 31 1C 4C 80 52 60 80 F0  FF FF 7F F0 FF FF 7F 73  1.L.R`.........s
0CC0: 30 31 38 46 00 45 00 80  F8 FF FF 7F F8 FF FF 7F  018F.E..........
0CD0: 66 64 69 31 01 80 21 00                           fdi1..!.        
```

#### Opcodes

```
  0: 0x0943 [0x42] SET_CLI_EVENT_CANCEL_DATA()
  1: 0x0944 [0x45] LOAD_SCHEDULED_TASK: Load scheduler "fdo1" with entities [EventEntity, EventEntity], work=[200*, 0*]
  2: 0x0955 [0x55] WAIT_LOAD_SCHEDULER: Wait for scheduler "fdo1" with entities [EventEntity, EventEntity], work=200*
  3: 0x0964 [0x46] CAMERA_CONTROL: Disable user control
  4: 0x0966 [0x38] SET_CLIENT_EVENT_MODE(mode=19*)
  5: 0x0969 [0x37] UPDATE_EVENT_POSITION_AND_DIR: x=14.942*, z=-35.064*, y=0.000*, direction=288.4°*
  6: 0x0972 [0x92] Jijiroon (ID: 16994342/0x01035026)->Render.Flags3 ^= 0x01
  7: 0x0978 [0x92] Yadhiwa (ID: 16994383/0x0103504F)->Render.Flags3 ^= 0x01
  8: 0x097E [0x2F] Yadhiwa (ID: 16994383/0x0103504F)->Render.Flags0 &= ~0x80000 // Bit 19
  9: 0x0984 [0x4E] SET_ENTITY_HIDE_FLAG: Show Yadhiwa (ID: 16994383/0x0103504F)
 10: 0x098A [0x80] LOAD_WAIT(entity=LocalPlayer)
 11: 0x098F [0x80] LOAD_WAIT(entity=Yadhiwa (ID: 16994383/0x0103504F))
 12: 0x0994 [0x1C] WAIT(30* ticks)
 13: 0x0997 [0x4A] LocalPlayer looks at Yadhiwa (ID: 16994383/0x0103504F)
 14: 0x09A0 [0x45] LOAD_SCHEDULED_TASK: Load scheduler "s011" with entities [EventEntity, EventEntity], work=[267*, 0*]
 15: 0x09B1 [0x1C] WAIT(60* ticks)
 16: 0x09B4 [0x45] LOAD_SCHEDULED_TASK: Load scheduler "fdi1" with entities [EventEntity, EventEntity], work=[200*, 0*]
 17: 0x09C5 [0x1C] WAIT(90* ticks)
 18: 0x09C8 [0x5B] LOAD_EXT_SCHEDULER: Load scheduler "tlk0" with entities [Jijiroon (ID: 16994342/0x01035026), Jijiroon (ID: 16994342/0x01035026)], work=842*
 19: 0x09D7 [0x2B] Jijiroon (ID: 16994342/0x01035026) [10641*]:
    → "Yooo loook for dice-roooller Yadhiwa?"
 20: 0x09DE [0x23] WAIT_FOR_DIALOG_INTERACTION
 21: 0x09DF [0x5B] LOAD_EXT_SCHEDULER: Load scheduler "tlk1" with entities [Jijiroon (ID: 16994342/0x01035026), Jijiroon (ID: 16994342/0x01035026)], work=842*
 22: 0x09EE [0x52] END_LOAD_SCHEDULER: End scheduler "s011" with entities [EventEntity, EventEntity], work=267*
 23: 0x09FD [0x45] LOAD_SCHEDULED_TASK: Load scheduler "s012" with entities [EventEntity, EventEntity], work=[267*, 0*]
 24: 0x0A0E [0x5B] LOAD_EXT_SCHEDULER: Load scheduler "thk0" with entities [Jijiroon (ID: 16994342/0x01035026), Jijiroon (ID: 16994342/0x01035026)], work=842*
 25: 0x0A1D [0x27] REQ_SET(priority=0x10, entity_id=Yadhiwa (ID: 16994383/0x0103504F), tag_num=0x02)
 26: 0x0A24 [0x1C] WAIT(60* ticks)
 27: 0x0A27 [0x5B] LOAD_EXT_SCHEDULER: Load scheduler "thk1" with entities [Jijiroon (ID: 16994342/0x01035026), Jijiroon (ID: 16994342/0x01035026)], work=842*
 28: 0x0A36 [0x2B] Yadhiwa (ID: 16994383/0x0103504F) [10642*]:
    → "You again!? Don't you ever give up?"
 29: 0x0A3D [0x23] WAIT_FOR_DIALOG_INTERACTION
 30: 0x0A3E [0x1C] WAIT(60* ticks)
 31: 0x0A41 [0x4A] Jijiroon (ID: 16994342/0x01035026) looks at Yadhiwa (ID: 16994383/0x0103504F)
 32: 0x0A4A [0x2B] Yadhiwa (ID: 16994383/0x0103504F) [10643*]:
    → "You just lost to me! Don't you ever learn?"
 33: 0x0A51 [0x23] WAIT_FOR_DIALOG_INTERACTION
 34: 0x0A52 [0x52] END_LOAD_SCHEDULER: End scheduler "s012" with entities [EventEntity, EventEntity], work=267*
 35: 0x0A61 [0x45] LOAD_SCHEDULED_TASK: Load scheduler "s013" with entities [EventEntity, EventEntity], work=[267*, 0*]
 36: 0x0A72 [0x2B] Yadhiwa (ID: 16994383/0x0103504F) [10644*]:
    → "Or are you going to fork up ten million gil?"
 37: 0x0A79 [0x23] WAIT_FOR_DIALOG_INTERACTION
 38: 0x0A7A [0x1C] WAIT(60* ticks)
 39: 0x0A7D [0x24] CREATE_DIALOG(message_id=10645*, default_option=0*, option_flags=0*)
    → "What will you do? [Roll the dice!/Pay up.]"
 40: 0x0A84 [0x25] WAIT_DIALOG_SELECT()
 41: 0x0A85 [0x02] IF !(Work_Zone[0] == 1*) GOTO 0x0ABC
 42: 0x0A8D [0x66] LOAD_EXT_SCHEDULER_MAIN: Load scheduler "tlk0" with entities [Yadhiwa (ID: 16994383/0x0103504F), Yadhiwa (ID: 16994383/0x0103504F)], work=39*
 43: 0x0A9C [0x2B] Yadhiwa (ID: 16994383/0x0103504F) [10646*]:
    → "Don't you get it? This is a battle to see who comes out on top! You don't want your [/love/dreams/hope] back?"
 44: 0x0AA3 [0x23] WAIT_FOR_DIALOG_INTERACTION
 45: 0x0AA4 [0x66] LOAD_EXT_SCHEDULER_MAIN: Load scheduler "tlk1" with entities [Yadhiwa (ID: 16994383/0x0103504F), Yadhiwa (ID: 16994383/0x0103504F)], work=39*
 46: 0x0AB3 [0x1C] WAIT(30* ticks)
 47: 0x0AB6 [0x01] GOTO 0x0A7D

SUBROUTINE_0ABC:
 48: 0x0ABC [0x52] END_LOAD_SCHEDULER: End scheduler "s013" with entities [EventEntity, EventEntity], work=267*
 49: 0x0ACB [0x45] LOAD_SCHEDULED_TASK: Load scheduler "s014" with entities [EventEntity, EventEntity], work=[267*, 0*]
 50: 0x0ADC [0x1C] WAIT(60* ticks)
 51: 0x0ADF [0x5B] LOAD_EXT_SCHEDULER: Load scheduler "hap0" with entities [Jijiroon (ID: 16994342/0x01035026), Jijiroon (ID: 16994342/0x01035026)], work=843*
 52: 0x0AEE [0x2B] Yadhiwa (ID: 16994383/0x0103504F) [10647*]:
    → "Now you're talking! Okay now, the rules haven't changed. Odds, I win. Evens, you win, okay?"
 53: 0x0AF5 [0x23] WAIT_FOR_DIALOG_INTERACTION
 54: 0x0AF6 [0x24] CREATE_DIALOG(message_id=10648*, default_option=0*, option_flags=0*)
    → "What will you wager? [Courage./Passion./Innocence.]"
 55: 0x0AFD [0x25] WAIT_DIALOG_SELECT()
 56: 0x0AFE [0x02] IF !(Work_Zone[0] == 0*) GOTO 0x0B13
 57: 0x0B06 [0x03] Work_Zone[1] = 1*
 58: 0x0B0B [0x03] Work_Zone[2] = 1*
 59: 0x0B10 [0x01] GOTO 0x0B3D
 60: 0x0B13 [0x02] IF !(Work_Zone[0] == 1*) GOTO 0x0B28
 61: 0x0B1B [0x03] Work_Zone[1] = 2*
 62: 0x0B20 [0x03] Work_Zone[2] = 2*
 63: 0x0B25 [0x01] GOTO 0x0B3D
 64: 0x0B28 [0x02] IF !(Work_Zone[0] == 2*) GOTO 0x0B3D
 65: 0x0B30 [0x03] Work_Zone[1] = 3*
 66: 0x0B35 [0x03] Work_Zone[2] = 3*
 67: 0x0B3A [0x01] GOTO 0x0B3D

SUBROUTINE_0B3D:
 68: 0x0B3D [0x52] END_LOAD_SCHEDULER: End scheduler "s014" with entities [EventEntity, EventEntity], work=267*
 69: 0x0B4C [0x45] LOAD_SCHEDULED_TASK: Load scheduler "s015" with entities [EventEntity, EventEntity], work=[267*, 0*]
 70: 0x0B5D [0x1C] WAIT(60* ticks)
 71: 0x0B60 [0x2B] Yadhiwa (ID: 16994383/0x0103504F) [10649*]:
    → "Here we go!"
 72: 0x0B67 [0x29] REQ_SET_WAIT(priority=0x10, entity_id=Yadhiwa (ID: 16994383/0x0103504F), tag_num=0x03)
 73: 0x0B6E [0x2B] Yadhiwa (ID: 16994383/0x0103504F) [10652*]:
    → "Oh, it's odd again! I win!"
 74: 0x0B75 [0x23] WAIT_FOR_DIALOG_INTERACTION
 75: 0x0B76 [0x66] LOAD_EXT_SCHEDULER_MAIN: Load scheduler "dai1" with entities [Yadhiwa (ID: 16994383/0x0103504F), Yadhiwa (ID: 16994383/0x0103504F)], work=31*
 76: 0x0B85 [0x53] WAIT_SCHEDULER_TASK: Wait for scheduler "dai1" with entities [Yadhiwa (ID: 16994383/0x0103504F), Yadhiwa (ID: 16994383/0x0103504F)]
 77: 0x0B92 [0x1C] WAIT(30* ticks)
 78: 0x0B95 [0x52] END_LOAD_SCHEDULER: End scheduler "s015" with entities [EventEntity, EventEntity], work=267*
 79: 0x0BA4 [0x45] LOAD_SCHEDULED_TASK: Load scheduler "s016" with entities [EventEntity, EventEntity], work=[267*, 0*]
 80: 0x0BB5 [0x1C] WAIT(120* ticks)
 81: 0x0BB8 [0x2B] Yadhiwa (ID: 16994383/0x0103504F) [10653*]:
    → "Your [/courage/passion/innocence] is mine!"
 82: 0x0BBF [0x23] WAIT_FOR_DIALOG_INTERACTION
 83: 0x0BC0 [0x2B] Yadhiwa (ID: 16994383/0x0103504F) [10654*]:
    → "So long!"
 84: 0x0BC7 [0x23] WAIT_FOR_DIALOG_INTERACTION
 85: 0x0BC8 [0x1C] WAIT(90* ticks)
 86: 0x0BCB [0x27] REQ_SET(priority=0x10, entity_id=Yadhiwa (ID: 16994383/0x0103504F), tag_num=0x04)
 87: 0x0BD2 [0x1C] WAIT(200* ticks)
 88: 0x0BD5 [0x45] LOAD_SCHEDULED_TASK: Load scheduler "ovl2" with entities [EventEntity, EventEntity], work=[200*, 0*]
 89: 0x0BE6 [0x52] END_LOAD_SCHEDULER: End scheduler "s016" with entities [EventEntity, EventEntity], work=267*
 90: 0x0BF5 [0x4E] SET_ENTITY_HIDE_FLAG: Hide Yadhiwa (ID: 16994383/0x0103504F)
 91: 0x0BFB [0x45] LOAD_SCHEDULED_TASK: Load scheduler "s017" with entities [EventEntity, EventEntity], work=[267*, 0*]
 92: 0x0C0C [0x1C] WAIT(90* ticks)
 93: 0x0C0F [0x4A] Jijiroon (ID: 16994342/0x01035026) looks at LocalPlayer
 94: 0x0C18 [0x4A] LocalPlayer looks at Jijiroon (ID: 16994342/0x01035026)
 95: 0x0C21 [0x5B] LOAD_EXT_SCHEDULER: Load scheduler "tlb0" with entities [Jijiroon (ID: 16994342/0x01035026), Jijiroon (ID: 16994342/0x01035026)], work=843*
 96: 0x0C30 [0x2B] Jijiroon (ID: 16994342/0x01035026) [10655*]:
    → "No goood for yooo. That girl is so roood."
 97: 0x0C37 [0x23] WAIT_FOR_DIALOG_INTERACTION
 98: 0x0C38 [0x03] Work_Zone[2] = 17396*
 99: 0x0C3D [0x2B] Jijiroon (ID: 16994342/0x01035026) [10656*]:
    → "Yadhiwa of Al Zhabi, the charm of a wooorm and the face of a ghoool. Nice poem, yooo think? I prodoooced it just now."
100: 0x0C44 [0x23] WAIT_FOR_DIALOG_INTERACTION
101: 0x0C45 [0x5B] LOAD_EXT_SCHEDULER: Load scheduler "tlb1" with entities [Jijiroon (ID: 16994342/0x01035026), Jijiroon (ID: 16994342/0x01035026)], work=843*
102: 0x0C54 [0x52] END_LOAD_SCHEDULER: End scheduler "s017" with entities [EventEntity, EventEntity], work=267*
103: 0x0C63 [0x45] LOAD_SCHEDULED_TASK: Load scheduler "s018" with entities [EventEntity, EventEntity], work=[267*, 0*]
104: 0x0C74 [0x1C] WAIT(60* ticks)
105: 0x0C77 [0x5B] LOAD_EXT_SCHEDULER: Load scheduler "tlb0" with entities [Jijiroon (ID: 16994342/0x01035026), Jijiroon (ID: 16994342/0x01035026)], work=843*
106: 0x0C86 [0x2B] Jijiroon (ID: 16994342/0x01035026) [10657*]:
    → "Yadhiwa run to place called "Arooopigo," yes? Yooo want hooorry and catch her?"
107: 0x0C8D [0x23] WAIT_FOR_DIALOG_INTERACTION
108: 0x0C8E [0x1C] WAIT(90* ticks)
109: 0x0C91 [0x45] LOAD_SCHEDULED_TASK: Load scheduler "fdo1" with entities [EventEntity, EventEntity], work=[200*, 0*]
110: 0x0CA2 [0x55] WAIT_LOAD_SCHEDULER: Wait for scheduler "fdo1" with entities [EventEntity, EventEntity], work=200*
111: 0x0CB1 [0x1C] WAIT(30* ticks)
112: 0x0CB4 [0x52] END_LOAD_SCHEDULER: End scheduler "s018" with entities [LocalPlayer, LocalPlayer], work=265*
113: 0x0CC3 [0x46] CAMERA_CONTROL: Restore default settings
114: 0x0CC5 [0x45] LOAD_SCHEDULED_TASK: Load scheduler "fdi1" with entities [EventEntity, EventEntity], work=[200*, 0*]
115: 0x0CD6 [0x21] END_EVENT
116: 0x0CD7 [0x00] END_REQSTACK()
```

#### Data or dead code:

```
# Dead code (unreachable instructions):
     0x0AB9 [0x01] GOTO 0x0ABC
```

### Event 246

#### Metadata

| Field        | Value     |
|--------------|-----------|
| Entrypoint   | 0x0CD8    |
| Data Size    | 541 bytes |
| Instructions | 64        |

```
      00 01 02 03 04 05 06 07  08 09 0A 0B 0C 0D 0E 0F
      -- -- -- -- -- -- -- --  -- -- -- -- -- -- -- --
0CD0:                          42 45 00 80 F8 FF FF 7F          BE......
0CE0: F8 FF FF 7F 66 64 6F 31  01 80 55 00 80 F8 FF FF  ....fdo1..U.....
0CF0: 7F F8 FF FF 7F 66 64 6F  31 46 01 38 48 80 37 61  .....fdo1F.8H.7a
0D00: 80 62 80 01 80 63 80 80  F8 FF FF 7F 80 50 50 03  .b...c.......PP.
0D10: 01 4A 50 50 03 01 F0 FF  FF 7F 4A F0 FF FF 7F 50  .JPP......J....P
0D20: 50 03 01 92 01 50 50 03  01 45 16 80 F8 FF FF 7F  P....PP..E......
0D30: F8 FF FF 7F 73 30 34 34  01 80 1C 17 80 45 00 80  ....s044.....E..
0D40: F8 FF FF 7F F8 FF FF 7F  66 64 69 31 01 80 1C 17  ........fdi1....
0D50: 80 2B 50 50 03 01 64 80  23 2B 50 50 03 01 65 80  .+PP..d.#+PP..e.
0D60: 23 52 16 80 F8 FF FF 7F  F8 FF FF 7F 73 30 34 34  #R..........s044
0D70: 45 16 80 F8 FF FF 7F F8  FF FF 7F 73 30 34 35 01  E..........s045.
0D80: 80 5B 20 80 50 50 03 01  50 50 03 01 74 6C 62 30  .[ .PP..PP..tlb0
0D90: 2B 50 50 03 01 66 80 23  2B 50 50 03 01 67 80 23  +PP..f.#+PP..g.#
0DA0: 2B 50 50 03 01 68 80 23  2B 50 50 03 01 69 80 23  +PP..h.#+PP..i.#
0DB0: 5B 20 80 50 50 03 01 50  50 03 01 74 6C 62 31 52  [ .PP..PP..tlb1R
0DC0: 16 80 F8 FF FF 7F F8 FF  FF 7F 73 30 34 35 45 16  ..........s045E.
0DD0: 80 F8 FF FF 7F F8 FF FF  7F 73 30 34 36 01 80 2B  .........s046..+
0DE0: 50 50 03 01 6A 80 23 5B  19 80 50 50 03 01 50 50  PP..j.#[..PP..PP
0DF0: 03 01 74 68 6B 30 2B 50  50 03 01 6B 80 23 52 16  ..thk0+PP..k.#R.
0E00: 80 F8 FF FF 7F F8 FF FF  7F 73 30 34 36 45 16 80  .........s046E..
0E10: F8 FF FF 7F F8 FF FF 7F  73 30 34 37 01 80 5B 19  ........s047..[.
0E20: 80 50 50 03 01 50 50 03  01 74 68 6B 31 2B 50 50  .PP..PP..thk1+PP
0E30: 03 01 6C 80 23 52 16 80  F8 FF FF 7F F8 FF FF 7F  ..l.#R..........
0E40: 73 30 34 37 45 16 80 F8  FF FF 7F F8 FF FF 7F 73  s047E..........s
0E50: 30 34 38 01 80 5B 19 80  50 50 03 01 50 50 03 01  048..[..PP..PP..
0E60: 74 6C 6B 30 2B 50 50 03  01 6D 80 23 2B 50 50 03  tlk0+PP..m.#+PP.
0E70: 01 6E 80 23 5B 19 80 50  50 03 01 50 50 03 01 74  .n.#[..PP..PP..t
0E80: 6C 6B 31 1C 17 80 52 16  80 F8 FF FF 7F F8 FF FF  lk1...R.........
0E90: 7F 73 30 34 38 45 16 80  F8 FF FF 7F F8 FF FF 7F  .s048E..........
0EA0: 73 30 34 39 01 80 2B 50  50 03 01 6F 80 23 45 00  s049..+PP..o.#E.
0EB0: 80 F8 FF FF 7F F8 FF FF  7F 66 64 6F 31 01 80 55  .........fdo1..U
0EC0: 00 80 F8 FF FF 7F F8 FF  FF 7F 66 64 6F 31 52 16  ..........fdo1R.
0ED0: 80 F8 FF FF 7F F8 FF FF  7F 73 30 34 39 46 00 1C  .........s049F..
0EE0: 17 80 45 00 80 F8 FF FF  7F F8 FF FF 7F 66 64 69  ..E..........fdi
0EF0: 31 01 80 21 00                                    1..!.           
```

#### Opcodes

```
  0: 0x0CD8 [0x42] SET_CLI_EVENT_CANCEL_DATA()
  1: 0x0CD9 [0x45] LOAD_SCHEDULED_TASK: Load scheduler "fdo1" with entities [EventEntity, EventEntity], work=[200*, 0*]
  2: 0x0CEA [0x55] WAIT_LOAD_SCHEDULER: Wait for scheduler "fdo1" with entities [EventEntity, EventEntity], work=200*
  3: 0x0CF9 [0x46] CAMERA_CONTROL: Disable user control
  4: 0x0CFB [0x38] SET_CLIENT_EVENT_MODE(mode=19*)
  5: 0x0CFE [0x37] UPDATE_EVENT_POSITION_AND_DIR: x=-13.457*, z=-27.623*, y=0.000*, direction=297.7°*
  6: 0x0D07 [0x80] LOAD_WAIT(entity=EventEntity)
  7: 0x0D0C [0x80] LOAD_WAIT(entity=Totoroon (ID: 16994384/0x01035050))
  8: 0x0D11 [0x4A] Totoroon (ID: 16994384/0x01035050) looks at LocalPlayer
  9: 0x0D1A [0x4A] LocalPlayer looks at Totoroon (ID: 16994384/0x01035050)
 10: 0x0D23 [0x92] Totoroon (ID: 16994384/0x01035050)->Render.Flags3 ^= 0x01
 11: 0x0D29 [0x45] LOAD_SCHEDULED_TASK: Load scheduler "s044" with entities [EventEntity, EventEntity], work=[255*, 0*]
 12: 0x0D3A [0x1C] WAIT(60* ticks)
 13: 0x0D3D [0x45] LOAD_SCHEDULED_TASK: Load scheduler "fdi1" with entities [EventEntity, EventEntity], work=[200*, 0*]
 14: 0x0D4E [0x1C] WAIT(60* ticks)
 15: 0x0D51 [0x2B] Totoroon (ID: 16994384/0x01035050) [10658*]:
    → "Hoohoohoo...?"
 16: 0x0D58 [0x23] WAIT_FOR_DIALOG_INTERACTION
 17: 0x0D59 [0x2B] Totoroon (ID: 16994384/0x01035050) [10659*]:
    → "Hoohoohooo!"
 18: 0x0D60 [0x23] WAIT_FOR_DIALOG_INTERACTION
 19: 0x0D61 [0x52] END_LOAD_SCHEDULER: End scheduler "s044" with entities [EventEntity, EventEntity], work=255*
 20: 0x0D70 [0x45] LOAD_SCHEDULED_TASK: Load scheduler "s045" with entities [EventEntity, EventEntity], work=[255*, 0*]
 21: 0x0D81 [0x5B] LOAD_EXT_SCHEDULER: Load scheduler "tlb0" with entities [Totoroon (ID: 16994384/0x01035050), Totoroon (ID: 16994384/0x01035050)], work=843*
 22: 0x0D90 [0x2B] Totoroon (ID: 16994384/0x01035050) [10660*]:
    → "Soooper...?"
 23: 0x0D97 [0x23] WAIT_FOR_DIALOG_INTERACTION
 24: 0x0D98 [0x2B] Totoroon (ID: 16994384/0x01035050) [10661*]:
    → "Doooper...?"
 25: 0x0D9F [0x23] WAIT_FOR_DIALOG_INTERACTION
 26: 0x0DA0 [0x2B] Totoroon (ID: 16994384/0x01035050) [10662*]:
    → "Totoroon find soooper-doooper treasooor?"
 27: 0x0DA7 [0x23] WAIT_FOR_DIALOG_INTERACTION
 28: 0x0DA8 [0x2B] Totoroon (ID: 16994384/0x01035050) [10663*]:
    → "A soooperb find!"
 29: 0x0DAF [0x23] WAIT_FOR_DIALOG_INTERACTION
 30: 0x0DB0 [0x5B] LOAD_EXT_SCHEDULER: Load scheduler "tlb1" with entities [Totoroon (ID: 16994384/0x01035050), Totoroon (ID: 16994384/0x01035050)], work=843*
 31: 0x0DBF [0x52] END_LOAD_SCHEDULER: End scheduler "s045" with entities [EventEntity, EventEntity], work=255*
 32: 0x0DCE [0x45] LOAD_SCHEDULED_TASK: Load scheduler "s046" with entities [EventEntity, EventEntity], work=[255*, 0*]
 33: 0x0DDF [0x2B] Totoroon (ID: 16994384/0x01035050) [10664*]:
    → "Yooo want to know, don't yooo?"
 34: 0x0DE6 [0x23] WAIT_FOR_DIALOG_INTERACTION
 35: 0x0DE7 [0x5B] LOAD_EXT_SCHEDULER: Load scheduler "thk0" with entities [Totoroon (ID: 16994384/0x01035050), Totoroon (ID: 16994384/0x01035050)], work=842*
 36: 0x0DF6 [0x2B] Totoroon (ID: 16994384/0x01035050) [10665*]:
    → "Ohooo, it's trooo! What should Totoroon dooo?"
 37: 0x0DFD [0x23] WAIT_FOR_DIALOG_INTERACTION
 38: 0x0DFE [0x52] END_LOAD_SCHEDULER: End scheduler "s046" with entities [EventEntity, EventEntity], work=255*
 39: 0x0E0D [0x45] LOAD_SCHEDULED_TASK: Load scheduler "s047" with entities [EventEntity, EventEntity], work=[255*, 0*]
 40: 0x0E1E [0x5B] LOAD_EXT_SCHEDULER: Load scheduler "thk1" with entities [Totoroon (ID: 16994384/0x01035050), Totoroon (ID: 16994384/0x01035050)], work=842*
 41: 0x0E2D [0x2B] Totoroon (ID: 16994384/0x01035050) [10666*]:
    → "Ah! Totoroon have byoootiful idea!"
 42: 0x0E34 [0x23] WAIT_FOR_DIALOG_INTERACTION
 43: 0x0E35 [0x52] END_LOAD_SCHEDULER: End scheduler "s047" with entities [EventEntity, EventEntity], work=255*
 44: 0x0E44 [0x45] LOAD_SCHEDULED_TASK: Load scheduler "s048" with entities [EventEntity, EventEntity], work=[255*, 0*]
 45: 0x0E55 [0x5B] LOAD_EXT_SCHEDULER: Load scheduler "tlk0" with entities [Totoroon (ID: 16994384/0x01035050), Totoroon (ID: 16994384/0x01035050)], work=842*
 46: 0x0E64 [0x2B] Totoroon (ID: 16994384/0x01035050) [10667*]:
    → "Yooo, listen me? Totoroon want shooogary things."
 47: 0x0E6B [0x23] WAIT_FOR_DIALOG_INTERACTION
 48: 0x0E6C [0x2B] Totoroon (ID: 16994384/0x01035050) [10668*]:
    → "Sweets, with shooogary taste, yooo know? If yooo bring, Totoroon give yooo hint."
 49: 0x0E73 [0x23] WAIT_FOR_DIALOG_INTERACTION
 50: 0x0E74 [0x5B] LOAD_EXT_SCHEDULER: Load scheduler "tlk1" with entities [Totoroon (ID: 16994384/0x01035050), Totoroon (ID: 16994384/0x01035050)], work=842*
 51: 0x0E83 [0x1C] WAIT(60* ticks)
 52: 0x0E86 [0x52] END_LOAD_SCHEDULER: End scheduler "s048" with entities [EventEntity, EventEntity], work=255*
 53: 0x0E95 [0x45] LOAD_SCHEDULED_TASK: Load scheduler "s049" with entities [EventEntity, EventEntity], work=[255*, 0*]
 54: 0x0EA6 [0x2B] Totoroon (ID: 16994384/0x01035050) [10669*]:
    → "Hoohoohooo..."
 55: 0x0EAD [0x23] WAIT_FOR_DIALOG_INTERACTION
 56: 0x0EAE [0x45] LOAD_SCHEDULED_TASK: Load scheduler "fdo1" with entities [EventEntity, EventEntity], work=[200*, 0*]
 57: 0x0EBF [0x55] WAIT_LOAD_SCHEDULER: Wait for scheduler "fdo1" with entities [EventEntity, EventEntity], work=200*
 58: 0x0ECE [0x52] END_LOAD_SCHEDULER: End scheduler "s049" with entities [EventEntity, EventEntity], work=255*
 59: 0x0EDD [0x46] CAMERA_CONTROL: Restore default settings
 60: 0x0EDF [0x1C] WAIT(60* ticks)
 61: 0x0EE2 [0x45] LOAD_SCHEDULED_TASK: Load scheduler "fdi1" with entities [EventEntity, EventEntity], work=[200*, 0*]
 62: 0x0EF3 [0x21] END_EVENT
 63: 0x0EF4 [0x00] END_REQSTACK()
```

### Event 247

#### Metadata

| Field        | Value     |
|--------------|-----------|
| Entrypoint   | 0x0EF5    |
| Data Size    | 293 bytes |
| Instructions | 34        |

```
      00 01 02 03 04 05 06 07  08 09 0A 0B 0C 0D 0E 0F
      -- -- -- -- -- -- -- --  -- -- -- -- -- -- -- --
0EF0:                42 45 00  80 F8 FF FF 7F F8 FF FF       BE.........
0F00: 7F 66 64 6F 31 01 80 55  00 80 F8 FF FF 7F F8 FF  .fdo1..U........
0F10: FF 7F 66 64 6F 31 46 01  38 11 80 37 61 80 62 80  ..fdo1F.8..7a.b.
0F20: 01 80 63 80 80 F8 FF FF  7F 80 50 50 03 01 4A 50  ..c.......PP..JP
0F30: 50 03 01 F0 FF FF 7F 4A  F0 FF FF 7F 50 50 03 01  P......J....PP..
0F40: 92 01 50 50 03 01 45 16  80 F8 FF FF 7F F8 FF FF  ..PP..E.........
0F50: 7F 73 30 35 30 01 80 1C  17 80 45 00 80 F8 FF FF  .s050.....E.....
0F60: 7F F8 FF FF 7F 66 64 69  31 01 80 1C 17 80 5B 19  .....fdi1.....[.
0F70: 80 50 50 03 01 50 50 03  01 74 6C 6B 30 2B 50 50  .PP..PP..tlk0+PP
0F80: 03 01 70 80 23 52 16 80  F8 FF FF 7F F8 FF FF 7F  ..p.#R..........
0F90: 73 30 35 30 45 16 80 F8  FF FF 7F F8 FF FF 7F 73  s050E..........s
0FA0: 30 35 31 01 80 5B 19 80  50 50 03 01 50 50 03 01  051..[..PP..PP..
0FB0: 74 6C 6B 31 2B 50 50 03  01 71 80 23 5B 19 80 50  tlk1+PP..q.#[..P
0FC0: 50 03 01 50 50 03 01 74  68 6B 30 2B 50 50 03 01  P..PP..thk0+PP..
0FD0: 72 80 23 45 00 80 F8 FF  FF 7F F8 FF FF 7F 66 64  r.#E..........fd
0FE0: 6F 31 01 80 55 00 80 F8  FF FF 7F F8 FF FF 7F 66  o1..U..........f
0FF0: 64 6F 31 52 16 80 F0 FF  FF 7F F0 FF FF 7F 73 30  do1R..........s0
1000: 35 31 46 00 1C 17 80 45  00 80 F8 FF FF 7F F8 FF  51F....E........
1010: FF 7F 66 64 69 31 01 80  21 00                    ..fdi1..!.      
```

#### Opcodes

```
  0: 0x0EF5 [0x42] SET_CLI_EVENT_CANCEL_DATA()
  1: 0x0EF6 [0x45] LOAD_SCHEDULED_TASK: Load scheduler "fdo1" with entities [EventEntity, EventEntity], work=[200*, 0*]
  2: 0x0F07 [0x55] WAIT_LOAD_SCHEDULER: Wait for scheduler "fdo1" with entities [EventEntity, EventEntity], work=200*
  3: 0x0F16 [0x46] CAMERA_CONTROL: Disable user control
  4: 0x0F18 [0x38] SET_CLIENT_EVENT_MODE(mode=27*)
  5: 0x0F1B [0x37] UPDATE_EVENT_POSITION_AND_DIR: x=-13.457*, z=-27.623*, y=0.000*, direction=297.7°*
  6: 0x0F24 [0x80] LOAD_WAIT(entity=EventEntity)
  7: 0x0F29 [0x80] LOAD_WAIT(entity=Totoroon (ID: 16994384/0x01035050))
  8: 0x0F2E [0x4A] Totoroon (ID: 16994384/0x01035050) looks at LocalPlayer
  9: 0x0F37 [0x4A] LocalPlayer looks at Totoroon (ID: 16994384/0x01035050)
 10: 0x0F40 [0x92] Totoroon (ID: 16994384/0x01035050)->Render.Flags3 ^= 0x01
 11: 0x0F46 [0x45] LOAD_SCHEDULED_TASK: Load scheduler "s050" with entities [EventEntity, EventEntity], work=[255*, 0*]
 12: 0x0F57 [0x1C] WAIT(60* ticks)
 13: 0x0F5A [0x45] LOAD_SCHEDULED_TASK: Load scheduler "fdi1" with entities [EventEntity, EventEntity], work=[200*, 0*]
 14: 0x0F6B [0x1C] WAIT(60* ticks)
 15: 0x0F6E [0x5B] LOAD_EXT_SCHEDULER: Load scheduler "tlk0" with entities [Totoroon (ID: 16994384/0x01035050), Totoroon (ID: 16994384/0x01035050)], work=842*
 16: 0x0F7D [0x2B] Totoroon (ID: 16994384/0x01035050) [10671*]:
    → "Ooo...$0! Now Totoroon in goood moood!"
 17: 0x0F84 [0x23] WAIT_FOR_DIALOG_INTERACTION
 18: 0x0F85 [0x52] END_LOAD_SCHEDULER: End scheduler "s050" with entities [EventEntity, EventEntity], work=255*
 19: 0x0F94 [0x45] LOAD_SCHEDULED_TASK: Load scheduler "s051" with entities [EventEntity, EventEntity], work=[255*, 0*]
 20: 0x0FA5 [0x5B] LOAD_EXT_SCHEDULER: Load scheduler "tlk1" with entities [Totoroon (ID: 16994384/0x01035050), Totoroon (ID: 16994384/0x01035050)], work=842*
 21: 0x0FB4 [0x2B] Totoroon (ID: 16994384/0x01035050) [10672*]:
    → "Go tooo [Wajooom Wooodlands/Bhaflooo Thickets/Tadaaarva Mire/Mount Zhayooolm]. Oookay?"
 22: 0x0FBB [0x23] WAIT_FOR_DIALOG_INTERACTION
 23: 0x0FBC [0x5B] LOAD_EXT_SCHEDULER: Load scheduler "thk0" with entities [Totoroon (ID: 16994384/0x01035050), Totoroon (ID: 16994384/0x01035050)], work=842*
 24: 0x0FCB [0x2B] Totoroon (ID: 16994384/0x01035050) [10673*]:
    → "But maybe somebody there first? Sooorry."
 25: 0x0FD2 [0x23] WAIT_FOR_DIALOG_INTERACTION
 26: 0x0FD3 [0x45] LOAD_SCHEDULED_TASK: Load scheduler "fdo1" with entities [EventEntity, EventEntity], work=[200*, 0*]
 27: 0x0FE4 [0x55] WAIT_LOAD_SCHEDULER: Wait for scheduler "fdo1" with entities [EventEntity, EventEntity], work=200*
 28: 0x0FF3 [0x52] END_LOAD_SCHEDULER: End scheduler "s051" with entities [LocalPlayer, LocalPlayer], work=255*
 29: 0x1002 [0x46] CAMERA_CONTROL: Restore default settings
 30: 0x1004 [0x1C] WAIT(60* ticks)
 31: 0x1007 [0x45] LOAD_SCHEDULED_TASK: Load scheduler "fdi1" with entities [EventEntity, EventEntity], work=[200*, 0*]
 32: 0x1018 [0x21] END_EVENT
 33: 0x1019 [0x00] END_REQSTACK()
```

### Event 249

#### Metadata

| Field        | Value     |
|--------------|-----------|
| Entrypoint   | 0x101A    |
| Data Size    | 272 bytes |
| Instructions | 31        |

```
      00 01 02 03 04 05 06 07  08 09 0A 0B 0C 0D 0E 0F
      -- -- -- -- -- -- -- --  -- -- -- -- -- -- -- --
1010:                                42 45 00 80 F8 FF            BE....
1020: FF 7F F8 FF FF 7F 66 64  6F 31 01 80 55 00 80 F8  ......fdo1..U...
1030: FF FF 7F F8 FF FF 7F 66  64 6F 31 46 01 38 11 80  .......fdo1F.8..
1040: 37 61 80 62 80 01 80 63  80 80 F8 FF FF 7F 80 50  7a.b...c.......P
1050: 50 03 01 4A 50 50 03 01  F0 FF FF 7F 4A F0 FF FF  P..JPP......J...
1060: 7F 50 50 03 01 92 01 50  50 03 01 45 16 80 F8 FF  .PP....PP..E....
1070: FF 7F F8 FF FF 7F 73 30  35 32 01 80 1C 17 80 45  ......s052.....E
1080: 00 80 F8 FF FF 7F F8 FF  FF 7F 66 64 69 31 01 80  ..........fdi1..
1090: 1C 17 80 2B 50 50 03 01  73 80 23 52 16 80 F8 FF  ...+PP..s.#R....
10A0: FF 7F F8 FF FF 7F 73 30  35 32 45 16 80 F8 FF FF  ......s052E.....
10B0: 7F F8 FF FF 7F 73 30 35  33 01 80 5B 19 80 50 50  .....s053..[..PP
10C0: 03 01 50 50 03 01 74 6C  6B 30 2B 50 50 03 01 74  ..PP..tlk0+PP..t
10D0: 80 23 45 00 80 F8 FF FF  7F F8 FF FF 7F 66 64 6F  .#E..........fdo
10E0: 31 01 80 55 00 80 F8 FF  FF 7F F8 FF FF 7F 66 64  1..U..........fd
10F0: 6F 31 52 16 80 F0 FF FF  7F F0 FF FF 7F 73 30 35  o1R..........s05
1100: 33 45 47 80 F0 FF FF 7F  F0 FF FF 7F 71 73 74 63  3EG.........qstc
1110: 01 80 46 00 1C 17 80 45  00 80 F8 FF FF 7F F8 FF  ..F....E........
1120: FF 7F 66 64 69 31 01 80  21 00                    ..fdi1..!.      
```

#### Opcodes

```
  0: 0x101A [0x42] SET_CLI_EVENT_CANCEL_DATA()
  1: 0x101B [0x45] LOAD_SCHEDULED_TASK: Load scheduler "fdo1" with entities [EventEntity, EventEntity], work=[200*, 0*]
  2: 0x102C [0x55] WAIT_LOAD_SCHEDULER: Wait for scheduler "fdo1" with entities [EventEntity, EventEntity], work=200*
  3: 0x103B [0x46] CAMERA_CONTROL: Disable user control
  4: 0x103D [0x38] SET_CLIENT_EVENT_MODE(mode=27*)
  5: 0x1040 [0x37] UPDATE_EVENT_POSITION_AND_DIR: x=-13.457*, z=-27.623*, y=0.000*, direction=297.7°*
  6: 0x1049 [0x80] LOAD_WAIT(entity=EventEntity)
  7: 0x104E [0x80] LOAD_WAIT(entity=Totoroon (ID: 16994384/0x01035050))
  8: 0x1053 [0x4A] Totoroon (ID: 16994384/0x01035050) looks at LocalPlayer
  9: 0x105C [0x4A] LocalPlayer looks at Totoroon (ID: 16994384/0x01035050)
 10: 0x1065 [0x92] Totoroon (ID: 16994384/0x01035050)->Render.Flags3 ^= 0x01
 11: 0x106B [0x45] LOAD_SCHEDULED_TASK: Load scheduler "s052" with entities [EventEntity, EventEntity], work=[255*, 0*]
 12: 0x107C [0x1C] WAIT(60* ticks)
 13: 0x107F [0x45] LOAD_SCHEDULED_TASK: Load scheduler "fdi1" with entities [EventEntity, EventEntity], work=[200*, 0*]
 14: 0x1090 [0x1C] WAIT(60* ticks)
 15: 0x1093 [0x2B] Totoroon (ID: 16994384/0x01035050) [10675*]:
    → "Yooo found something goood? Hoohoo..."
 16: 0x109A [0x23] WAIT_FOR_DIALOG_INTERACTION
 17: 0x109B [0x52] END_LOAD_SCHEDULER: End scheduler "s052" with entities [EventEntity, EventEntity], work=255*
 18: 0x10AA [0x45] LOAD_SCHEDULED_TASK: Load scheduler "s053" with entities [EventEntity, EventEntity], work=[255*, 0*]
 19: 0x10BB [0x5B] LOAD_EXT_SCHEDULER: Load scheduler "tlk0" with entities [Totoroon (ID: 16994384/0x01035050), Totoroon (ID: 16994384/0x01035050)], work=842*
 20: 0x10CA [0x2B] Totoroon (ID: 16994384/0x01035050) [10676*]:
    → "Mooore sweets, mooore hints! Totoroon want to try all sorts of shoogary things!"
 21: 0x10D1 [0x23] WAIT_FOR_DIALOG_INTERACTION
 22: 0x10D2 [0x45] LOAD_SCHEDULED_TASK: Load scheduler "fdo1" with entities [EventEntity, EventEntity], work=[200*, 0*]
 23: 0x10E3 [0x55] WAIT_LOAD_SCHEDULER: Wait for scheduler "fdo1" with entities [EventEntity, EventEntity], work=200*
 24: 0x10F2 [0x52] END_LOAD_SCHEDULER: End scheduler "s053" with entities [LocalPlayer, LocalPlayer], work=255*
 25: 0x1101 [0x45] LOAD_SCHEDULED_TASK: Load scheduler "qstc" with entities [LocalPlayer, LocalPlayer], work=[201*, 0*]
 26: 0x1112 [0x46] CAMERA_CONTROL: Restore default settings
 27: 0x1114 [0x1C] WAIT(60* ticks)
 28: 0x1117 [0x45] LOAD_SCHEDULED_TASK: Load scheduler "fdi1" with entities [EventEntity, EventEntity], work=[200*, 0*]
 29: 0x1128 [0x21] END_EVENT
 30: 0x1129 [0x00] END_REQSTACK()
```

### Event 65535.3

#### Metadata

| Field        | Value    |
|--------------|----------|
| Entrypoint   | 0x112A   |
| Data Size    | 10 bytes |
| Instructions | 2        |

```
      00 01 02 03 04 05 06 07  08 09 0A 0B 0C 0D 0E 0F
      -- -- -- -- -- -- -- --  -- -- -- -- -- -- -- --
1120:                                37 75 80 76 80 01            7u.v..
1130: 80 77 80 00                                       .w..            
```

#### Opcodes

```
  0: 0x112A [0x37] UPDATE_EVENT_POSITION_AND_DIR: x=20.101*, z=22.666*, y=0.000*, direction=324.6°*
  1: 0x1133 [0x00] END_REQSTACK()
```

### Event 65535.4

#### Metadata

| Field        | Value    |
|--------------|----------|
| Entrypoint   | 0x1134   |
| Data Size    | 10 bytes |
| Instructions | 2        |

```
      00 01 02 03 04 05 06 07  08 09 0A 0B 0C 0D 0E 0F
      -- -- -- -- -- -- -- --  -- -- -- -- -- -- -- --
1130:             37 78 80 79  80 7A 80 7B 80 00            7x.y.z.{..  
```

#### Opcodes

```
  0: 0x1134 [0x37] UPDATE_EVENT_POSITION_AND_DIR: x=-13.884*, z=67.474*, y=-6.000*, direction=302.8°*
  1: 0x113D [0x00] END_REQSTACK()
```

### Event 65535.5

#### Metadata

| Field        | Value    |
|--------------|----------|
| Entrypoint   | 0x113E   |
| Data Size    | 10 bytes |
| Instructions | 2        |

```
      00 01 02 03 04 05 06 07  08 09 0A 0B 0C 0D 0E 0F
      -- -- -- -- -- -- -- --  -- -- -- -- -- -- -- --
1130:                                            37 7C                7|
1140: 80 7D 80 04 80 7E 80 00                           .}...~..        
```

#### Opcodes

```
  0: 0x113E [0x37] UPDATE_EVENT_POSITION_AND_DIR: x=-12.406*, z=-62.616*, y=1.999*, direction=280.8°*
  1: 0x1147 [0x00] END_REQSTACK()
```

### Event 65535.6

#### Metadata

| Field        | Value    |
|--------------|----------|
| Entrypoint   | 0x1148   |
| Data Size    | 24 bytes |
| Instructions | 5        |

```
      00 01 02 03 04 05 06 07  08 09 0A 0B 0C 0D 0E 0F
      -- -- -- -- -- -- -- --  -- -- -- -- -- -- -- --
1140:                          32 08 80 1F 00 7F 80 80          2.......
1150: 80 01 80 1F 01 6F 00 4A  F0 FF FF 7F 7E 50 03 01  .....o.J....~P..
```

#### Opcodes

```
  0: 0x1148 [0x32] ExtData[1]->MainSpeed = 13* * 0.1
  1: 0x114B [0x1F] MOVE_ENTITY: EventEntity moves to X=16.046*, Z=-26.364*, Y=0.000*
  2: 0x1153 [0x1F] MOVE_ENTITY: Update entity position (mode=1)
  3: 0x1155 [0x6F] WAIT_FRAME_DELAY: Yield until WaitTime reaches zero
  4: 0x1156 [0x00] END_REQSTACK()
```

#### Data or dead code:

```
# Dead code (unreachable instructions):
     0x1157 [0x4A] LocalPlayer looks at Kakkaroon (ID: 16994430/0x0103507E)
```

### Event 65535.7

#### Metadata

| Field        | Value    |
|--------------|----------|
| Entrypoint   | 0x1160   |
| Data Size    | 24 bytes |
| Instructions | 5        |

```
      00 01 02 03 04 05 06 07  08 09 0A 0B 0C 0D 0E 0F
      -- -- -- -- -- -- -- --  -- -- -- -- -- -- -- --
1160: 32 81 80 1F 00 82 80 83  80 7A 80 1F 01 6F 00 4A  2........z...o.J
1170: F0 FF FF 7F 36 50 03 01                           ....6P..        
```

#### Opcodes

```
  0: 0x1160 [0x32] ExtData[1]->MainSpeed = 11* * 0.1
  1: 0x1163 [0x1F] MOVE_ENTITY: EventEntity moves to X=15.875*, Z=12.955*, Y=-6.000*
  2: 0x116B [0x1F] MOVE_ENTITY: Update entity position (mode=1)
  3: 0x116D [0x6F] WAIT_FRAME_DELAY: Yield until WaitTime reaches zero
  4: 0x116E [0x00] END_REQSTACK()
```

#### Data or dead code:

```
# Dead code (unreachable instructions):
     0x116F [0x4A] LocalPlayer looks at Kyokyoroon (ID: 16994358/0x01035036)
```

### Event 65535.8

#### Metadata

| Field        | Value    |
|--------------|----------|
| Entrypoint   | 0x1178   |
| Data Size    | 24 bytes |
| Instructions | 5        |

```
      00 01 02 03 04 05 06 07  08 09 0A 0B 0C 0D 0E 0F
      -- -- -- -- -- -- -- --  -- -- -- -- -- -- -- --
