# Event 65535

## Metadata

| Field           | Value    |
|-----------------|----------|
| Event Index     | 11/17    |
| Offset          | 0x00AB   |
| Data Size       | 72 bytes |
| Calculated Size | 72 bytes |
| Instructions    | 8        |

```
      00 01 02 03 04 05 06 07  08 09 0A 0B 0C 0D 0E 0F
      -- -- -- -- -- -- -- --  -- -- -- -- -- -- -- --
00A0:                                   B4 00 04 00 4B             ....K
00B0: 6F 72 75 2D 4D 6F 72 75  00 00 00 00 00 00 00 B5  oru-Moru........
00C0: 00 04 00 22 00 92 01 F8  FF FF 7F 94 01 F8 FF FF  ..."............
00D0: 7F B6 0B 10 80 11 80 01  80 0B 80 0B 80 0B 80 12  ................
00E0: 80 01 80 01 80 BA F8 FF  FF 7F 13 80 14 80 15 80  ................
00F0: 00 80 00                                          ...             
```

## Opcodes

```
  0: 0x00AB [0xB4] UI_WINDOW_STRING_HANDLER(case=0x00 - Copy string from opcode, work_offset=ExtData[1]->WorkLocal[4], string="Koru-Moru")
  1: 0x00BF [0xB5] SET_EVENT_ENTITY_NAME: Change EventEntity name to ExtData[1]->WorkLocal[4]
  2: 0x00C3 [0x22] ENTITY_HIDE_FLAG(enabled=0x00)
  3: 0x00C5 [0x92] EventEntity->Render.Flags3 ^= 0x01
  4: 0x00CB [0x94] EventEntity->Render.Flags3 ^= 0x01
  5: 0x00D1 [0xB6] ENTITY_APPEARANCE_HANDLER(case=Full entity look, race=5*, hair=10*, head=0*, body=23*, hands=23*, legs=23*, feet=11*, main=0*, sub=0*)
  6: 0x00E5 [0xBA] SET_ENTITY_POSITION(entity_id=EventEntity, pos_x=-121.688*, pos_z=122.427*, pos_y=-5.500*, direction=11.2°*)
  7: 0x00F2 [0x00] END_REQSTACK()
```
