# Event 65535

## Metadata

| Field           | Value    |
|-----------------|----------|
| Event Index     | 44/45    |
| Offset          | 0x0273   |
| Data Size       | 47 bytes |
| Calculated Size | 47 bytes |
| Instructions    | 9        |

```
      00 01 02 03 04 05 06 07  08 09 0A 0B 0C 0D 0E 0F
      -- -- -- -- -- -- -- --  -- -- -- -- -- -- -- --
0270:          37 3C 80 3D 80  3E 80 3F 80 1E 5F 21 03     7<.=.>.?.._!.
0280: 01 32 20 80 1F 00 40 80  41 80 3E 80 1F 01 6F 1C  .2 ...@.A.>...o.
0290: 14 80 66 35 80 C6 20 03  01 C6 20 03 01 61 6F 30  ..f5.. ... ..ao0
02A0: 30 00                                             0.              
```

## Opcodes

```
  0: 0x0273 [0x37] UPDATE_EVENT_POSITION_AND_DIR: x=-6.013*, z=94.430*, y=1.999*, direction=228.2°*
  1: 0x027C [0x1E] EventEntity looks at Rughadjeen (ID: 16982367/0x0103215F) and starts talking
  2: 0x0281 [0x32] ExtData[1]->MainSpeed = 11* * 0.1
  3: 0x0284 [0x1F] MOVE_ENTITY: EventEntity moves to X=-15.006*, Z=99.229*, Y=1.999*
  4: 0x028C [0x1F] MOVE_ENTITY: Update entity position (mode=1)
  5: 0x028E [0x6F] WAIT_FRAME_DELAY: Yield until WaitTime reaches zero
  6: 0x028F [0x1C] WAIT(5* ticks)
  7: 0x0292 [0x66] LOAD_EXT_SCHEDULER_MAIN(work_offset=19*, entity1=Amnaf (ID: 16982214/0x010320C6), entity2=Amnaf (ID: 16982214/0x010320C6), action="ao00")
  8: 0x02A1 [0x00] END_REQSTACK()
```
