# Event 104

## Metadata

| Field           | Value    |
|-----------------|----------|
| Event Index     | 6/18     |
| Offset          | 0x0160   |
| Data Size       | 36 bytes |
| Calculated Size | 36 bytes |
| Instructions    | 11       |

```
      00 01 02 03 04 05 06 07  08 09 0A 0B 0C 0D 0E 0F
      -- -- -- -- -- -- -- --  -- -- -- -- -- -- -- --
0160: 42 20 01 1E F0 FF FF 7F  6F 70 5B 00 80 F8 FF FF  B ......op[.....
0170: 7F F8 FF FF 7F 74 6C 6B  30 1D 14 80 23 03 01 10  .....tlk0...#...
0180: 0D 80 21 00                                       ..!.            
```

## Opcodes

```
  0: 0x0160 [0x42] SET_CLI_EVENT_CANCEL_DATA()
  1: 0x0161 [0x20] SET_CLI_EVENT_UC_FLAG: Lock player control
  2: 0x0163 [0x1E] EventEntity looks at LocalPlayer and starts talking
  3: 0x0168 [0x6F] WAIT_FRAME_DELAY: Yield until WaitTime reaches zero
  4: 0x0169 [0x70] WAIT_ENTITY_RENDER_FLAG: Wait while EventEntity->Render.Flags3 bit 2 is set (cancel turn if not)
  5: 0x016A [0x5B] LOAD_EXT_SCHEDULER(work_offset=65*, entity1=EventEntity, entity2=EventEntity, action="tlk0")
  6: 0x0179 [0x1D] PRINT_EVENT_MESSAGE(message_id=6928*)
    → "Where are those ingredients? I cannot start without them!\u007F1\u0000\u0007"
  7: 0x017C [0x23] WAIT_FOR_DIALOG_INTERACTION
  8: 0x017D [0x03] Work_Zone[1] = 100*
  9: 0x0182 [0x21] END_EVENT
 10: 0x0183 [0x00] END_REQSTACK()
```
