# Event 65535

## Metadata

| Field           | Value    |
|-----------------|----------|
| Event Index     | 9/19     |
| Offset          | 0x00A5   |
| Data Size       | 56 bytes |
| Calculated Size | 56 bytes |
| Instructions    | 12       |

```
      00 01 02 03 04 05 06 07  08 09 0A 0B 0C 0D 0E 0F
      -- -- -- -- -- -- -- --  -- -- -- -- -- -- -- --
00A0:                1C 1F 80  6B 69 64 6C 30 F8 FF FF       ...kidl0...
00B0: 7F 32 20 80 1F 00 21 80  22 80 23 80 1F 01 1F 00  .2 ...!.".#.....
00C0: 24 80 25 80 26 80 1F 01  1F 00 27 80 28 80 29 80  $.%.&.....'.(.).
00D0: 1F 01 1F 00 2A 80 2B 80  23 80 1F 01 00           ....*.+.#....   
```

## Opcodes

```
  0: 0x00A5 [0x1C] WAIT(250* ticks)
  1: 0x00A8 [0x6B] STOP_AND_IDLE: EventEntity stops current action and resets to idle (animation="idl0")
  2: 0x00B1 [0x32] ExtData[1]->MainSpeed = 42* * 0.1
  3: 0x00B4 [0x1F] MOVE_ENTITY: EventEntity moves to X=-310.651*, Z=-13.593*, Y=-48.000*
  4: 0x00BC [0x1F] MOVE_ENTITY: Update entity position (mode=1)
  5: 0x00BE [0x1F] MOVE_ENTITY: EventEntity moves to X=-302.312*, Z=-16.244*, Y=-48.784*
  6: 0x00C6 [0x1F] MOVE_ENTITY: Update entity position (mode=1)
  7: 0x00C8 [0x1F] MOVE_ENTITY: EventEntity moves to X=-299.446*, Z=-22.418*, Y=-49.113*
  8: 0x00D0 [0x1F] MOVE_ENTITY: Update entity position (mode=1)
  9: 0x00D2 [0x1F] MOVE_ENTITY: EventEntity moves to X=-297.907*, Z=-51.845*, Y=-48.000*
 10: 0x00DA [0x1F] MOVE_ENTITY: Update entity position (mode=1)
 11: 0x00DC [0x00] END_REQSTACK()
```
