# Event 165

## Metadata

| Field           | Value    |
|-----------------|----------|
| Event Index     | 15/20    |
| Offset          | 0x00D7   |
| Data Size       | 29 bytes |
| Calculated Size | 29 bytes |
| Instructions    | 7        |

```
      00 01 02 03 04 05 06 07  08 09 0A 0B 0C 0D 0E 0F
      -- -- -- -- -- -- -- --  -- -- -- -- -- -- -- --
00D0:                      1E  F0 FF FF 7F 1C 00 80 66         ........f
00E0: 01 80 D1 71 05 01 D1 71  05 01 74 6C 6B 30 1D 0A  ...q...q..tlk0..
00F0: 80 23 21 00                                       .#!.            
```

## Opcodes

```
  0: 0x00D7 [0x1E] EventEntity looks at LocalPlayer and starts talking
  1: 0x00DC [0x1C] WAIT(30* ticks)
  2: 0x00DF [0x66] LOAD_EXT_SCHEDULER_MAIN: Load scheduler "tlk0" with entities [Engelhart (ID: 17134033/0x010571D1), Engelhart (ID: 17134033/0x010571D1)], work=0*
  3: 0x00EE [0x1D] PRINT_EVENT_MESSAGE(message_id=12004*)
    → "With the senator gone, I doubt I'll have any more tasks for you.\u0007Thank you for your competent, albeit brief, service.\u007F1\u0000\u0007"
  4: 0x00F1 [0x23] WAIT_FOR_DIALOG_INTERACTION
  5: 0x00F2 [0x21] END_EVENT
  6: 0x00F3 [0x00] END_REQSTACK()
```
