# Event 18

## Metadata

| Field           | Value    |
|-----------------|----------|
| Event Index     | 16/20    |
| Offset          | 0x00F4   |
| Data Size       | 33 bytes |
| Calculated Size | 33 bytes |
| Instructions    | 9        |

```
      00 01 02 03 04 05 06 07  08 09 0A 0B 0C 0D 0E 0F
      -- -- -- -- -- -- -- --  -- -- -- -- -- -- -- --
00F0:             1E F0 FF FF  7F 1C 00 80 66 01 80 D1      ........f...
0100: 71 05 01 D1 71 05 01 74  6C 6B 30 1D 0B 80 23 1D  q...q..tlk0...#.
0110: 0C 80 23 21 00                                    ..#!.           
```

## Opcodes

```
  0: 0x00F4 [0x1E] EventEntity looks at LocalPlayer and starts talking
  1: 0x00F9 [0x1C] WAIT(30* ticks)
  2: 0x00FC [0x66] LOAD_EXT_SCHEDULER_MAIN: Load scheduler "tlk0" with entities [Engelhart (ID: 17134033/0x010571D1), Engelhart (ID: 17134033/0x010571D1)], work=0*
  3: 0x010B [0x1D] PRINT_EVENT_MESSAGE(message_id=12522*)
    → "The president has released a statement regarding Senator Werner's assassination.\u007F1\u0000\u0007"
  4: 0x010E [0x23] WAIT_FOR_DIALOG_INTERACTION
  5: 0x010F [0x1D] PRINT_EVENT_MESSAGE(message_id=12523*)
    → "It contained a message to the assassin: \u00072You will not elude the grip of the Mythril Musketeers!\u00073\u007F1\u0000\u0007"
  6: 0x0112 [0x23] WAIT_FOR_DIALOG_INTERACTION
  7: 0x0113 [0x21] END_EVENT
  8: 0x0114 [0x00] END_REQSTACK()
```
