# Event 65535

## Metadata

| Field           | Value    |
|-----------------|----------|
| Event Index     | 18/20    |
| Offset          | 0x0116   |
| Data Size       | 52 bytes |
| Calculated Size | 52 bytes |
| Instructions    | 12       |

```
      00 01 02 03 04 05 06 07  08 09 0A 0B 0C 0D 0E 0F
      -- -- -- -- -- -- -- --  -- -- -- -- -- -- -- --
0110:                   32 0D  80 1F 00 0E 80 0F 80 10        2.........
0120: 80 1F 01 1F 00 11 80 12  80 10 80 1F 01 1F 00 13  ................
0130: 80 14 80 10 80 1F 01 1F  00 15 80 16 80 10 80 1F  ................
0140: 01 1E 43 72 05 01 1C 00  80 00                    ..Cr......      
```

## Opcodes

```
  0: 0x0116 [0x32] ExtData[1]->MainSpeed = 40* * 0.1
  1: 0x0119 [0x1F] MOVE_ENTITY: EventEntity moves to X=-60.577*, Z=-130.536*, Y=-4.000*
  2: 0x0121 [0x1F] MOVE_ENTITY: Update entity position (mode=1)
  3: 0x0123 [0x1F] MOVE_ENTITY: EventEntity moves to X=-60.228*, Z=-132.716*, Y=-4.000*
  4: 0x012B [0x1F] MOVE_ENTITY: Update entity position (mode=1)
  5: 0x012D [0x1F] MOVE_ENTITY: EventEntity moves to X=-60.603*, Z=-135.788*, Y=-4.000*
  6: 0x0135 [0x1F] MOVE_ENTITY: Update entity position (mode=1)
  7: 0x0137 [0x1F] MOVE_ENTITY: EventEntity moves to X=-62.083*, Z=-137.304*, Y=-4.000*
  8: 0x013F [0x1F] MOVE_ENTITY: Update entity position (mode=1)
  9: 0x0141 [0x1E] EventEntity looks at Ernestine (ID: 17134147/0x01057243) and starts talking
 10: 0x0146 [0x1C] WAIT(30* ticks)
 11: 0x0149 [0x00] END_REQSTACK()
```
