# Event 65535

## Metadata

| Field           | Value    |
|-----------------|----------|
| Event Index     | 5/5      |
| Offset          | 0x0037   |
| Data Size       | 42 bytes |
| Calculated Size | 42 bytes |
| Instructions    | 10       |

```
      00 01 02 03 04 05 06 07  08 09 0A 0B 0C 0D 0E 0F
      -- -- -- -- -- -- -- --  -- -- -- -- -- -- -- --
0030:                      5B  09 80 0E 02 05 01 0E 02         [........
0040: 05 01 73 65 30 30 32 00  80 1F 00 0A 80 0B 80 03  ..se002.........
0050: 80 1F 01 6F 1E 18 02 05  01 7B 19 02 05 01 6F 70  ...o.....{....op
0060: 00                                                .               
```

## Opcodes

```
  0: 0x0037 [0x5B] LOAD_EXT_SCHEDULER(work_offset=1362*, entity1=Altennia (ID: 17105422/0x0105020E), entity2=Altennia (ID: 17105422/0x0105020E), action="se00")
  1: 0x0046 [0x32] ExtData[1]->MainSpeed = 40* * 0.1
  2: 0x0049 [0x1F] MOVE_ENTITY: EventEntity moves to X=-0.020*, Z=44.935*, Y=-1.999*
  3: 0x0051 [0x1F] MOVE_ENTITY: Update entity position (mode=1)
  4: 0x0053 [0x6F] WAIT_FRAME_DELAY: Yield until WaitTime reaches zero
  5: 0x0054 [0x1E] EventEntity looks at Halver M Borel (ID: 17105432/0x01050218) and starts talking
  6: 0x0059 [0x7B] Estavoille (ID: 17105433/0x01050219) stops talking
  7: 0x005E [0x6F] WAIT_FRAME_DELAY: Yield until WaitTime reaches zero
  8: 0x005F [0x70] WAIT_ENTITY_RENDER_FLAG: Wait while EventEntity->Render.Flags3 bit 2 is set (cancel turn if not)
  9: 0x0060 [0x00] END_REQSTACK()
```
