# Event 516

## Metadata

| Field           | Value    |
|-----------------|----------|
| Event Index     | 3/3      |
| Offset          | 0x0056   |
| Data Size       | 40 bytes |
| Calculated Size | 40 bytes |
| Instructions    | 12       |

```
      00 01 02 03 04 05 06 07  08 09 0A 0B 0C 0D 0E 0F
      -- -- -- -- -- -- -- --  -- -- -- -- -- -- -- --
0050:                   20 01  24 00 80 01 80 02 80 25         .$......%
0060: 02 00 10 02 80 00 6F 00  48 0A 80 23 01 7A 00 02  ......o.H..#.z..
0070: 00 10 01 80 00 7A 00 01  7A 00 20 00 21 00        .....z..z. .!.  
```

## Opcodes

```
  0: 0x0056 [0x20] SET_CLI_EVENT_UC_FLAG: Lock player control
  1: 0x0058 [0x24] CREATE_DIALOG(message_id=7326*, default_option=1*, option_flags=0*)
    → "Sprinkle some salt on the tablet?\u0007\u000BYes.\u0007No.\u007F1\u0000\u0007"
  2: 0x005F [0x25] WAIT_DIALOG_SELECT()
  3: 0x0060 [0x02] IF !(Work_Zone[0] == 0*) GOTO 0x006F
  4: 0x0068 [0x48] [System] [7328*]:
    → "The salt grains patter against the stone tablet and scatter all over the ground. You could have sworn hearing the tinkling sound of a bell...\u007F1\u0000\u0007"
  5: 0x006B [0x23] WAIT_FOR_DIALOG_INTERACTION
  6: 0x006C [0x01] GOTO 0x007A
  7: 0x006F [0x02] IF !(Work_Zone[0] == 1*) GOTO 0x007A
  8: 0x0077 [0x01] GOTO 0x007A

SUBROUTINE_007A:
  9: 0x007A [0x20] SET_CLI_EVENT_UC_FLAG: Unlock player control
 10: 0x007C [0x21] END_EVENT
 11: 0x007D [0x00] END_REQSTACK()
```
