# Event 130

## Metadata

| Field           | Value    |
|-----------------|----------|
| Event Index     | 23/111   |
| Offset          | 0x0238   |
| Data Size       | 39 bytes |
| Calculated Size | 39 bytes |
| Instructions    | 11       |

```
      00 01 02 03 04 05 06 07  08 09 0A 0B 0C 0D 0E 0F
      -- -- -- -- -- -- -- --  -- -- -- -- -- -- -- --
0230:                          03 09 10 8B 7F 1E F0 FF          ........
0240: FF 7F 1D 4A 80 23 5B 01  80 04 A0 0E 01 04 A0 0E  ...J.#[.........
0250: 01 70 61 73 30 1D 4B 80  23 1D 4C 80 23 21 00     .pas0.K.#.L.#!. 
```

## Opcodes

```
  0: 0x0238 [0x03] Work_Zone[9] = (LocalPlayer->Render.Flags01 >> 25) & 1
  1: 0x023D [0x1E] EventEntity looks at LocalPlayer and starts talking
  2: 0x0242 [0x1D] PRINT_EVENT_MESSAGE(message_id=10950*)
    → "Hey, \u000C\u0007[miss/mister], you met Zeid, didn't you? You know, the dark knight?\u007F1\u0000\u0007"
  3: 0x0245 [0x23] WAIT_FOR_DIALOG_INTERACTION
  4: 0x0246 [0x5B] LOAD_EXT_SCHEDULER(work_offset=155*, entity1=Gumbah (ID: 17735684/0x010EA004), entity2=Gumbah (ID: 17735684/0x010EA004), action="pas0")
  5: 0x0255 [0x1D] PRINT_EVENT_MESSAGE(message_id=10951*)
    → "He wrote you a letter. I think he meant for Werei to give it to you, but since I got it, I had to open it to find out who it was for. Sorry.\u007F1\u0000\u0007"
  6: 0x0258 [0x23] WAIT_FOR_DIALOG_INTERACTION
  7: 0x0259 [0x1D] PRINT_EVENT_MESSAGE(message_id=10952*)
    → "I think he says he's waiting in a mine somewhere.\u0007Are you training to become a dark knight, too? Wow, it must be really hard.\u007F1\u0000\u0007"
  8: 0x025C [0x23] WAIT_FOR_DIALOG_INTERACTION
  9: 0x025D [0x21] END_EVENT
 10: 0x025E [0x00] END_REQSTACK()
```
