# Event 65535

## Metadata

| Field           | Value    |
|-----------------|----------|
| Event Index     | 5/111    |
| Offset          | 0x0041   |
| Data Size       | 49 bytes |
| Calculated Size | 49 bytes |
| Instructions    | 11       |

```
      00 01 02 03 04 05 06 07  08 09 0A 0B 0C 0D 0E 0F
      -- -- -- -- -- -- -- --  -- -- -- -- -- -- -- --
0040:    32 0B 80 1F 00 0C 80  0D 80 05 80 1F 01 1F 00   2..............
0050: 0E 80 0F 80 05 80 1F 01  1F 00 10 80 11 80 05 80  ................
0060: 1F 01 1F 00 12 80 13 80  05 80 1F 01 1E 03 A0 0E  ................
0070: 01 00                                             ..              
```

## Opcodes

```
  0: 0x0041 [0x32] ExtData[1]->MainSpeed = 11* * 0.1
  1: 0x0044 [0x1F] MOVE_ENTITY: EventEntity moves to X=-46.977*, Z=24.917*, Y=0.000*
  2: 0x004C [0x1F] MOVE_ENTITY: Update entity position (mode=1)
  3: 0x004E [0x1F] MOVE_ENTITY: EventEntity moves to X=-47.030*, Z=24.222*, Y=0.000*
  4: 0x0056 [0x1F] MOVE_ENTITY: Update entity position (mode=1)
  5: 0x0058 [0x1F] MOVE_ENTITY: EventEntity moves to X=-46.630*, Z=23.689*, Y=0.000*
  6: 0x0060 [0x1F] MOVE_ENTITY: Update entity position (mode=1)
  7: 0x0062 [0x1F] MOVE_ENTITY: EventEntity moves to X=-46.162*, Z=23.537*, Y=0.000*
  8: 0x006A [0x1F] MOVE_ENTITY: Update entity position (mode=1)
  9: 0x006C [0x1E] EventEntity looks at Deidogg (ID: 17735683/0x010EA003) and starts talking
 10: 0x0071 [0x00] END_REQSTACK()
```
