# Event 65535

## Metadata

| Field           | Value    |
|-----------------|----------|
| Event Index     | 19/111   |
| Offset          | 0x01BD   |
| Data Size       | 59 bytes |
| Calculated Size | 59 bytes |
| Instructions    | 8        |

```
      00 01 02 03 04 05 06 07  08 09 0A 0B 0C 0D 0E 0F
      -- -- -- -- -- -- -- --  -- -- -- -- -- -- -- --
01B0:                                         5B 01 80               [..
01C0: 04 A0 0E 01 04 A0 0E 01  74 6C 62 31 53 04 A0 0E  ........tlb1S...
01D0: 01 04 A0 0E 01 74 6C 62  31 5B 01 80 04 A0 0E 01  .....tlb1[......
01E0: 04 A0 0E 01 77 61 76 30  32 07 80 1F 00 28 80 30  ....wav02....(.0
01F0: 80 2A 80 1F 01 22 01 00                           .*..."..        
```

## Opcodes

```
  0: 0x01BD [0x5B] LOAD_EXT_SCHEDULER(work_offset=155*, entity1=Gumbah (ID: 17735684/0x010EA004), entity2=Gumbah (ID: 17735684/0x010EA004), action="tlb1")
  1: 0x01CC [0x53] WAIT_SCHEDULER_TASK(entity1=Gumbah (ID: 17735684/0x010EA004), entity2=Gumbah (ID: 17735684/0x010EA004), action_id="tlb1")
  2: 0x01D9 [0x5B] LOAD_EXT_SCHEDULER(work_offset=155*, entity1=Gumbah (ID: 17735684/0x010EA004), entity2=Gumbah (ID: 17735684/0x010EA004), action="wav0")
  3: 0x01E8 [0x32] ExtData[1]->MainSpeed = 33* * 0.1
  4: 0x01EB [0x1F] MOVE_ENTITY: EventEntity moves to X=5.244*, Z=4.002*, Y=6.999*
  5: 0x01F3 [0x1F] MOVE_ENTITY: Update entity position (mode=1)
  6: 0x01F5 [0x22] ENTITY_HIDE_FLAG(enabled=0x01)
  7: 0x01F7 [0x00] END_REQSTACK()
```
