# Event 65535

## Metadata

| Field           | Value    |
|-----------------|----------|
| Event Index     | 22/111   |
| Offset          | 0x0203   |
| Data Size       | 53 bytes |
| Calculated Size | 53 bytes |
| Instructions    | 11       |

```
      00 01 02 03 04 05 06 07  08 09 0A 0B 0C 0D 0E 0F
      -- -- -- -- -- -- -- --  -- -- -- -- -- -- -- --
0200:          79 00 F8 FF FF  7F 3D A0 0E 01 1C 44 80     y.....=....D.
0210: 32 07 80 1F 00 45 80 46  80 47 80 1F 01 1C 44 80  2....E.F.G....D.
0220: 32 0B 80 79 00 F8 FF FF  7F 27 A0 0E 01 1F 00 48  2..y.....'.....H
0230: 80 49 80 47 80 1F 01 00                           .I.G....        
```

## Opcodes

```
  0: 0x0203 [0x79] EventEntity looks at Volker (ID: 17735741/0x010EA03D) (Basic look)
  1: 0x020D [0x1C] WAIT(60* ticks)
  2: 0x0210 [0x32] ExtData[1]->MainSpeed = 33* * 0.1
  3: 0x0213 [0x1F] MOVE_ENTITY: EventEntity moves to X=53.025*, Z=-34.000*, Y=-0.059*
  4: 0x021B [0x1F] MOVE_ENTITY: Update entity position (mode=1)
  5: 0x021D [0x1C] WAIT(60* ticks)
  6: 0x0220 [0x32] ExtData[1]->MainSpeed = 11* * 0.1
  7: 0x0223 [0x79] EventEntity looks at Werei (ID: 17735719/0x010EA027) (Basic look)
  8: 0x022D [0x1F] MOVE_ENTITY: EventEntity moves to X=51.135*, Z=-35.200*, Y=-0.059*
  9: 0x0235 [0x1F] MOVE_ENTITY: Update entity position (mode=1)
 10: 0x0237 [0x00] END_REQSTACK()
```
