# Event 65535

## Metadata

| Field           | Value    |
|-----------------|----------|
| Event Index     | 15/111   |
| Offset          | 0x0116   |
| Data Size       | 74 bytes |
| Calculated Size | 74 bytes |
| Instructions    | 11       |

```
      00 01 02 03 04 05 06 07  08 09 0A 0B 0C 0D 0E 0F
      -- -- -- -- -- -- -- --  -- -- -- -- -- -- -- --
0110:                   53 04  A0 0E 01 04 A0 0E 01 74        S........t
0120: 6C 61 31 5B 01 80 04 A0  0E 01 04 A0 0E 01 77 61  la1[..........wa
0130: 76 30 53 04 A0 0E 01 04  A0 0E 01 77 61 76 30 1F  v0S........wav0.
0140: 00 2C 80 2D 80 2A 80 1F  01 1F 00 28 80 30 80 2A  .,.-.*.....(.0.*
0150: 80 1F 01 1F 00 31 80 32  80 2A 80 1F 01 22 01 00  .....1.2.*..."..
```

## Opcodes

```
  0: 0x0116 [0x53] WAIT_SCHEDULER_TASK: Wait for scheduler "tla1" with entities [Gumbah (ID: 17735684/0x010EA004), Gumbah (ID: 17735684/0x010EA004)]
  1: 0x0123 [0x5B] LOAD_EXT_SCHEDULER: Load scheduler "wav0" with entities [Gumbah (ID: 17735684/0x010EA004), Gumbah (ID: 17735684/0x010EA004)], work=155*
  2: 0x0132 [0x53] WAIT_SCHEDULER_TASK: Wait for scheduler "wav0" with entities [Gumbah (ID: 17735684/0x010EA004), Gumbah (ID: 17735684/0x010EA004)]
  3: 0x013F [0x1F] MOVE_ENTITY: EventEntity moves to X=4.784*, Z=6.826*, Y=6.999*
  4: 0x0147 [0x1F] MOVE_ENTITY: Update entity position (mode=1)
  5: 0x0149 [0x1F] MOVE_ENTITY: EventEntity moves to X=5.244*, Z=4.002*, Y=6.999*
  6: 0x0151 [0x1F] MOVE_ENTITY: Update entity position (mode=1)
  7: 0x0153 [0x1F] MOVE_ENTITY: EventEntity moves to X=38.949*, Z=-5.816*, Y=6.999*
  8: 0x015B [0x1F] MOVE_ENTITY: Update entity position (mode=1)
  9: 0x015D [0x22] ENTITY_HIDE_FLAG(enabled=0x01)
 10: 0x015F [0x00] END_REQSTACK()
```
