# 0x7FFFFFF0 - Zone Events

## Common Data

| Field            | Value                          |
|------------------|--------------------------------|
| Zone             | La'Loff Amphitheater (ID: 180) |
| Block Size       | 9208 bytes                     |
| Total Events     | 11                             |
| References Count | 202                            |

## List of Events

| Event ID              | Entrypoint   |   Size |   Instructions |
|-----------------------|--------------|--------|----------------|
| [65535](#event-65535) | 0x0000       |      1 |              1 |
| [65534](#event-65534) | 0x0001       |      1 |              1 |
| [32000](#event-32000) | 0x0002       |   2116 |            412 |
| [32002](#event-32002) | 0x0846       |    494 |             83 |
| [32001](#event-32001) | 0x0A34       |   1129 |            197 |
| [32003](#event-32003) | 0x0E9D       |   4548 |            604 |
| [10](#event-10)       | 0x2061       |      5 |              3 |
| [11](#event-11)       | 0x2066       |      5 |              3 |
| [12](#event-12)       | 0x206B       |      5 |              3 |
| [13](#event-13)       | 0x2070       |      5 |              3 |
| [14](#event-14)       | 0x2075       |     31 |             10 |

## DAT References (imed_data)

|   Index | Hex Value   |   Dec Value |
|---------|-------------|-------------|
|       0 | 0x0000      |           0 |
|       1 | 0x000F      |          15 |
|       2 | 0x0010      |          16 |
|       3 | 0x001F      |          31 |
|       4 | 0xFFFFFFFF  |  4294967295 |
|       5 | 0x0001      |           1 |
|       6 | 0x1DB5      |        7605 |
|       7 | 0x1DA8      |        7592 |
|       8 | 0x0005      |           5 |
|       9 | 0x0002      |           2 |
|      10 | 0x0003      |           3 |
|      11 | 0x0004      |           4 |
|      12 | 0x1C3B      |        7227 |
|      13 | 0x00FF      |         255 |
|      14 | 0x00C8      |         200 |
|      15 | 0x0013      |          19 |
|      16 | 0x0008      |           8 |
|      17 | 0x0009      |           9 |
|      18 | 0x000B      |          11 |
|      19 | 0x1C46      |        7238 |
|      20 | 0x1C47      |        7239 |
|      21 | 0x1C48      |        7240 |
|      22 | 0x1C49      |        7241 |
|      23 | 0x1C6D      |        7277 |
|      24 | 0x0006      |           6 |
|      25 | 0x0012      |          18 |
|      26 | 0x0007      |           7 |
|      27 | 0x000A      |          10 |
|      28 | 0x000C      |          12 |
|      29 | 0x000D      |          13 |
|      30 | 0x000E      |          14 |
|      31 | 0x0011      |          17 |
|      32 | 0x0014      |          20 |
|      33 | 0x0015      |          21 |
|      34 | 0x0016      |          22 |
|      35 | 0x0017      |          23 |
|      36 | 0x0018      |          24 |
|      37 | 0x0019      |          25 |
|      38 | 0x001A      |          26 |
|      39 | 0x001B      |          27 |
|      40 | 0x001C      |          28 |
|      41 | 0x001D      |          29 |
|      42 | 0x001E      |          30 |
|      43 | 0x1DA2      |        7586 |
|      44 | 0x1DA7      |        7591 |
|      45 | 0x1DA6      |        7590 |
|      46 | 0x003C      |          60 |
|      47 | 0x1DB3      |        7603 |
|      48 | 0x1DB2      |        7602 |
|      49 | 0x0064      |         100 |
|      50 | 0x1D8E      |        7566 |
|      51 | 0x00C4      |         196 |
|      52 | 0x1C3E      |        7230 |
|      53 | 0x00C9      |         201 |
|      54 | 0xFFFAEFFC  |  4294635516 |
|      55 | 0xFFFB712C  |  4294668588 |
|      56 | 0x00DC      |         220 |
|      57 | 0x0150      |         336 |
|      58 | 0x00B4      |         180 |
|      59 | 0xFFF6C42B  |  4294362155 |
|      60 | 0x752B9     |      479929 |
|      61 | 0xFFFFA767  |  4294944615 |
|      62 | 0x03E0      |         992 |
|      63 | 0xFFFBFE43  |  4294704707 |
|      64 | 0x5C401     |      377857 |
|      65 | 0xFFFDE79F  |  4294829983 |
|      66 | 0x0D92      |        3474 |
|      67 | 0x47AC      |       18348 |
|      68 | 0x76E1C     |      486940 |
|      69 | 0xFFFC93B2  |  4294742962 |
|      70 | 0x00C2      |         194 |
|      71 | 0x388A9     |      231593 |
|      72 | 0x57E9E     |      360094 |
|      73 | 0xFFFD59FC  |  4294793724 |
|      74 | 0x0726      |        1830 |
|      75 | 0x872C0     |      553664 |
|      76 | 0x7FEA3     |      523939 |
|      77 | 0xFFFF6AC3  |  4294929091 |
|      78 | 0x0A65      |        2661 |
|      79 | 0xFFF2A593  |  4294092179 |
|      80 | 0xFFFF548C  |  4294923404 |
|      81 | 0xFFFF442C  |  4294919212 |
|      82 | 0x0201      |         513 |
|      83 | 0xFFF478D5  |  4294211797 |
|      84 | 0x89AEB     |      563947 |
|      85 | 0xFFFE4A5D  |  4294855261 |
|      86 | 0x0DEF      |        3567 |
|      87 | 0x1E173     |      123251 |
|      88 | 0xB8221     |      754209 |
|      89 | 0xFFFD5FA4  |  4294795172 |
|      90 | 0x01B8      |         440 |
|      91 | 0xFFF81ECC  |  4294450892 |
|      92 | 0xFFF3BE05  |  4294163973 |
|      93 | 0x5E8E      |       24206 |
|      94 | 0x01B5      |         437 |
|      95 | 0x012C      |         300 |
|      96 | 0x0080      |         128 |
|      97 | 0xFFF690A7  |  4294348967 |
|      98 | 0xFFF62CE4  |  4294323428 |
|      99 | 0xFFFF9B33  |  4294941491 |
|     100 | 0x0EB1      |        3761 |
|     101 | 0xFFFAEE7D  |  4294635133 |
|     102 | 0xFFF941C6  |  4294525382 |
|     103 | 0xFFFE8CB1  |  4294872241 |
|     104 | 0x0EB0      |        3760 |
|     105 | 0xFFFFCF50  |  4294954832 |
|     106 | 0xFFF61B47  |  4294318919 |
|     107 | 0xFFFD07BB  |  4294772667 |
|     108 | 0x0EBA      |        3770 |
|     109 | 0x4EF35     |      323381 |
|     110 | 0xFFF93A6F  |  4294523503 |
|     111 | 0xFFFE5868  |  4294858856 |
|     112 | 0x0EA0      |        3744 |
|     113 | 0x92763     |      599907 |
|     114 | 0xFFF5AB97  |  4294290327 |
|     115 | 0xFFFFA837  |  4294944823 |
|     116 | 0x0EB3      |        3763 |
|     117 | 0xFFF68EF5  |  4294348533 |
|     118 | 0xFFF62BAE  |  4294323118 |
|     119 | 0x0EA8      |        3752 |
|     120 | 0x00A8      |         168 |
|     121 | 0x30D7B     |      200059 |
|     122 | 0xFFFFAA3A  |  4294945338 |
|     123 | 0xFFFFFF06  |  4294967046 |
|     124 | 0x0411      |        1041 |
|     125 | 0x00CA      |         202 |
|     126 | 0x837EC     |      538604 |
|     127 | 0x7A88C     |      501900 |
|     128 | 0xFFFFC98A  |  4294953354 |
|     129 | 0x0CBC      |        3260 |
|     130 | 0x00CB      |         203 |
|     131 | 0x870F5     |      553205 |
|     132 | 0x8FF41     |      589633 |
|     133 | 0xFFFFFFEB  |  4294967275 |
|     134 | 0x0587      |        1415 |
|     135 | 0x00D3      |         211 |
|     136 | 0x8AF88     |      569224 |
|     137 | 0x85E6E     |      548462 |
|     138 | 0x8FE5      |       36837 |
|     139 | 0x02A1      |         673 |
|     140 | 0x0024      |          36 |
|     141 | 0x1D90      |        7568 |
|     142 | 0x1D8F      |        7567 |
|     143 | 0x1DB1      |        7601 |
|     144 | 0x1D92      |        7570 |
|     145 | 0x1D91      |        7569 |
|     146 | 0xFFF6C442  |  4294362178 |
|     147 | 0x75704     |      481028 |
|     148 | 0x0C00      |        3072 |
|     149 | 0x00E9      |         233 |
|     150 | 0xFFF6C45B  |  4294362203 |
|     151 | 0x7632F     |      484143 |
|     152 | 0x0410      |        1040 |
|     153 | 0x1FB4      |        8116 |
|     154 | 0xFFFE587B  |  4294858875 |
|     155 | 0xFFFF7DCE  |  4294933966 |
|     156 | 0x0D61      |        3425 |
|     157 | 0x1DB7      |        7607 |
|     158 | 0x002D      |          45 |
|     159 | 0x1DB9      |        7609 |
|     160 | 0x1DBA      |        7610 |
|     161 | 0x1DB8      |        7608 |
|     162 | 0x1DBB      |        7611 |
|     163 | 0x1DDB      |        7643 |
|     164 | 0x1DDD      |        7645 |
|     165 | 0x1DDE      |        7646 |
|     166 | 0x1DDC      |        7644 |
|     167 | 0x1DDF      |        7647 |
|     168 | 0xFFFFD2C9  |  4294955721 |
|     169 | 0x2D39      |       11577 |
|     170 | 0xFFFFB6E4  |  4294948580 |
|     171 | 0x09F9      |        2553 |
|     172 | 0x1426      |        5158 |
|     173 | 0x6127      |       24871 |
|     174 | 0xFFFFAF49  |  4294946633 |
|     175 | 0x0E8D      |        3725 |
|     176 | 0x2419      |        9241 |
|     177 | 0x6B31      |       27441 |
|     178 | 0x005A      |          90 |
|     179 | 0x0884      |        2180 |
|     180 | 0x1C3C      |        7228 |
|     181 | 0x2311      |        8977 |
|     182 | 0xFFFE5ECC  |  4294860492 |
|     183 | 0x0594      |        1428 |
|     184 | 0x2039      |        8249 |
|     185 | 0xFFFE59A6  |  4294859174 |
|     186 | 0x0D4B      |        3403 |
|     187 | 0x0071      |         113 |
|     188 | 0x0074      |         116 |
|     189 | 0x0077      |         119 |
|     190 | 0x007B      |         123 |
|     191 | 0x0087      |         135 |
|     192 | 0x00D7      |         215 |
|     193 | 0xFFF7C04C  |  4294426700 |
|     194 | 0xFFFEFE16  |  4294901270 |
|     195 | 0xFFFC1300  |  4294710016 |
|     196 | 0x0D66      |        3430 |
|     197 | 0x79EB8     |      499384 |
|     198 | 0xFFFF56C6  |  4294923974 |
|     199 | 0xFFFAEE08  |  4294635016 |
|     200 | 0x0D60      |        3424 |
|     201 | 0x1DB6      |        7606 |

## String References

- **7227**: Enter the battlefield? [Enter./Decline.]
- **7228**: Leave the battlefield? [Run away./Stay.]
- **7230**: You cannot enter the battlefield at present. Please wait a little longer.
- **7238**: You are cleared to enter the battlefield, but you cannot while party members are engaged in combat.
- **7239**: You are cleared to enter the battlefield, but you cannot while party members are engaged in combat.
- **7240**: You are cleared to enter the battlefield, but you cannot while party members are engaged in combat.
- **7241**: You are cleared to enter the battlefield, but you cannot while party members are engaged in combat.
- **7277**: You do not meet the requirements to enter the battlefield. Access is denied.
- **7566**: Skip the event? [Yes./No.]
- **7567**: Battlefield clear time: $3 second[/s]!
- **7568**: Battlefield clear time: $3 minute[/s], $2 second[/s]!
- **7569**: The current battlefield clear time record is $3 second[/s].
- **7570**: The current battlefield clear time record is $3 minute[/s] $2 second[/s].
- **7586**: Only $3 [member/members] have clearance to enter the battlefield. This room has reached its maximum capacity.
- **7590**: That record is held by $5 adventurers, including %0!
- **7591**: That record is held by %0!
- **7592**: Select difficulty. [Very difficult. (Level: ???)/Difficult. (Level: ???)/Normal. (Level: $18)/Easy. (Level: $17)/Very Easy. (Level: $16)/Leave.]
- **7601**: You have broken the clear time record for "[Ark Angels (1)/Ark Angels (2)/Ark Angels (3)/Ark Angels (4)/Ark Angels (5)/Divine Might/$26Ark Angels (1)/$26Ark Angels (2)/$26Ark Angels (3)/$26Ark Angels (4)/$26Ark Angels (5)/$26Divine Might]"!
- **7602**: The current battlefield clear time record for "[Ark Angels (1)/Ark Angels (2)/Ark Angels (3)/Ark Angels (4)/Ark Angels (5)/Divine Might/$26Ark Angels (1)/$26Ark Angels (2)/$26Ark Angels (3)/$26Ark Angels (4)/$26Ark Angels (5)/$26Divine Might]" is $3 second[/s].
- **7603**: The current battlefield clear time record for "[Ark Angels (1)/Ark Angels (2)/Ark Angels (3)/Ark Angels (4)/Ark Angels (5)/Divine Might/$26Ark Angels (1)/$26Ark Angels (2)/$26Ark Angels (3)/$26Ark Angels (4)/$26Ark Angels (5)/$26Divine Might]" is $3 minute[/s] $2 second[/s].
- **7605**: Which battlefield will you enter? [None./Ark Angels (1)./Ark Angels (2)./Ark Angels (3)./Ark Angels (4)./Ark Angels (5)./Divine Might./$26Ark Angels (1)./$26Ark Angels (2)./$26Ark Angels (3)./$26Ark Angels (4)./$26Ark Angels (5)./$26Divine Might./././././././././././././././././././]
- **7606**: Use the portal? [Yes./No.]

## Events

### Event 65535

#### Metadata

| Field        | Value   |
|--------------|---------|
| Entrypoint   | 0x0000  |
| Data Size    | 1 bytes |
| Instructions | 1       |

```
      00 01 02 03 04 05 06 07  08 09 0A 0B 0C 0D 0E 0F
      -- -- -- -- -- -- -- --  -- -- -- -- -- -- -- --
0000: 00                                                .               
```

#### Opcodes

```
  0: 0x0000 [0x00] END_REQSTACK()
```

### Event 65534

#### Metadata

| Field        | Value   |
|--------------|---------|
| Entrypoint   | 0x0001  |
| Data Size    | 1 bytes |
| Instructions | 1       |

```
      00 01 02 03 04 05 06 07  08 09 0A 0B 0C 0D 0E 0F
      -- -- -- -- -- -- -- --  -- -- -- -- -- -- -- --
0000:    00                                              .              
```

#### Opcodes

```
  0: 0x0001 [0x00] END_REQSTACK()
```

### Event 32000

#### Metadata

| Field        | Value      |
|--------------|------------|
| Entrypoint   | 0x0002     |
| Data Size    | 2116 bytes |
| Instructions | 279        |

```
      00 01 02 03 04 05 06 07  08 09 0A 0B 0C 0D 0E 0F
      -- -- -- -- -- -- -- --  -- -- -- -- -- -- -- --
0000:       20 01 79 00 F0 FF  FF 7F F0 FF FF 7F 03 02     .y...........
0010: 00 02 10 03 03 00 03 10  03 05 00 04 10 03 06 00  ................
0020: 05 10 03 0F 00 06 10 03  10 00 07 10 03 11 00 08  ................
0030: 10 41 00 80 01 80 09 10  07 00 41 02 80 03 80 09  .A........A.....
0040: 10 06 10 06 01 00 02 07  00 00 80 00 45 01 03 08  ............E...
0050: 00 04 80 0F 08 00 06 00  10 08 00 05 80 24 06 80  .............$..
0060: 00 80 08 00 25 02 00 10  00 80 00 73 00 01 2B 08  ....%......s..+.
0070: 01 45 01 03 03 00 00 10  0C 03 00 06 16 00 06 13  .E..............
0080: 00 3E 0F 00 03 00 21 01  06 0F 00 06 08 00 3E 11  .>....!.......>.
0090: 00 03 00 98 00 01 9F 00  3C 08 00 00 80 05 80 3E  ........<......>
00A0: 10 00 03 00 A9 00 01 B0  00 3C 08 00 05 80 05 80  .........<......
00B0: 1A 6F 1C 24 07 80 08 80  08 00 25 02 00 10 00 80  .o.$......%.....
00C0: 00 CB 00 03 0F 00 05 80  01 1E 01 02 00 10 05 80  ................
00D0: 00 DB 00 03 0F 00 09 80  01 1E 01 02 00 10 09 80  ................
00E0: 00 EB 00 03 0F 00 0A 80  01 1E 01 02 00 10 0A 80  ................
00F0: 00 FB 00 03 0F 00 0B 80  01 1E 01 02 00 10 0B 80  ................
0100: 00 0B 01 03 0F 00 08 80  01 1E 01 02 00 10 08 80  ................
0110: 00 19 01 01 2B 08 01 1E  01 03 0F 00 0A 80 01 45  ....+..........E
0120: 01 06 0F 00 1A 45 08 02  16 00 05 80 00 45 01 24  .....E.......E.$
0130: 0C 80 05 80 00 80 25 02  00 10 05 80 00 45 01 01  ......%......E..
0140: 2B 08 01 45 01 42 03 01  10 0D 80 43 00 43 01 06  +..E.B.....C.C..
0150: 01 10 45 0E 80 F0 FF FF  7F F0 FF FF 7F 66 64 6F  ..E..........fdo
0160: 31 00 80 55 0E 80 F0 FF  FF 7F F0 FF FF 7F 66 64  1..U..........fd
0170: 6F 31 3B F0 FF FF 7F 20  10 21 10 22 10 38 0F 80  o1;.... .!.".8..
0180: 02 07 00 05 80 00 9F 01  03 00 00 05 80 03 04 00  ................
0190: 03 00 03 02 00 00 80 03  1C 00 00 80 01 5F 05 03  ............._..
01A0: 00 00 05 80 02 00 00 0A  80 05 F4 07 02 00 80 05  ................
01B0: 80 00 B9 01 03 00 00 05  00 40 00 80 0A 80 01 10  .........@......
01C0: 00 00 40 0B 80 10 80 01  10 03 00 40 11 80 12 80  ..@........@....
01D0: 01 10 0F 00 06 02 10 06  03 10 06 04 10 1A E4 1F  ................
01E0: 47 00 09 00 0A 00 0B 00  0C 00 47 01 03 04 00 03  G.........G.....
01F0: 10 03 02 00 04 10 03 1A  00 05 10 03 0D 00 06 10  ................
0200: 03 0E 00 07 10 03 1C 00  09 10 02 02 10 05 80 80  ................
0210: 15 02 01 E1 07 02 02 10  0B 80 80 5F 02 02 00 00  ..........._....
0220: 05 80 80 2C 02 48 13 80  23 01 59 02 02 00 00 09  ...,.H..#.Y.....
0230: 80 80 3B 02 48 14 80 23  01 59 02 02 00 00 0A 80  ..;.H..#.Y......
0240: 80 4A 02 48 15 80 23 01  59 02 02 00 00 0B 80 80  .J.H..#.Y.......
0250: 59 02 48 16 80 23 01 59  02 01 F8 07 01 E1 07 02  Y.H..#.Y........
0260: 02 10 08 80 80 71 02 48  17 80 23 01 F8 07 01 E1  .....q.H..#.....
0270: 07 02 02 10 18 80 80 73  04 02 04 00 00 80 80 89  .......s........
0280: 02 03 05 10 18 80 01 69  04 02 04 00 05 80 80 99  .......i........
0290: 02 03 05 10 18 80 01 69  04 02 04 00 09 80 80 A9  .......i........
02A0: 02 03 05 10 18 80 01 69  04 02 04 00 0A 80 80 B9  .......i........
02B0: 02 03 05 10 18 80 01 69  04 02 04 00 0B 80 80 C9  .......i........
02C0: 02 03 05 10 18 80 01 69  04 02 04 00 08 80 80 D9  .......i........
02D0: 02 03 05 10 19 80 01 69  04 02 04 00 18 80 80 E9  .......i........
02E0: 02 03 05 10 18 80 01 69  04 02 04 00 1A 80 80 F9  .......i........
02F0: 02 03 05 10 18 80 01 69  04 02 04 00 10 80 80 09  .......i........
0300: 03 03 05 10 18 80 01 69  04 02 04 00 11 80 80 19  .......i........
0310: 03 03 05 10 18 80 01 69  04 02 04 00 1B 80 80 29  .......i.......)
0320: 03 03 05 10 18 80 01 69  04 02 04 00 12 80 80 39  .......i.......9
0330: 03 03 05 10 19 80 01 69  04 02 04 00 1C 80 80 49  .......i.......I
0340: 03 03 05 10 18 80 01 69  04 02 04 00 1D 80 80 59  .......i.......Y
0350: 03 03 05 10 18 80 01 69  04 02 04 00 1E 80 80 69  .......i.......i
0360: 03 03 05 10 18 80 01 69  04 02 04 00 01 80 80 79  .......i.......y
0370: 03 03 05 10 18 80 01 69  04 02 04 00 02 80 80 89  .......i........
0380: 03 03 05 10 00 80 01 69  04 02 04 00 1F 80 80 99  .......i........
0390: 03 03 05 10 00 80 01 69  04 02 04 00 19 80 80 A9  .......i........
03A0: 03 03 05 10 00 80 01 69  04 02 04 00 0F 80 80 B9  .......i........
03B0: 03 03 05 10 00 80 01 69  04 02 04 00 20 80 80 C9  .......i.... ...
03C0: 03 03 05 10 00 80 01 69  04 02 04 00 21 80 80 D9  .......i....!...
03D0: 03 03 05 10 00 80 01 69  04 02 04 00 22 80 80 E9  .......i...."...
03E0: 03 03 05 10 00 80 01 69  04 02 04 00 23 80 80 F9  .......i....#...
03F0: 03 03 05 10 00 80 01 69  04 02 04 00 24 80 80 09  .......i....$...
0400: 04 03 05 10 00 80 01 69  04 02 04 00 25 80 80 19  .......i....%...
0410: 04 03 05 10 00 80 01 69  04 02 04 00 26 80 80 29  .......i....&..)
0420: 04 03 05 10 00 80 01 69  04 02 04 00 27 80 80 39  .......i....'..9
0430: 04 03 05 10 00 80 01 69  04 02 04 00 28 80 80 49  .......i....(..I
0440: 04 03 05 10 00 80 01 69  04 02 04 00 29 80 80 59  .......i....)..Y
0450: 04 03 05 10 00 80 01 69  04 02 04 00 2A 80 80 69  .......i....*..i
0460: 04 03 05 10 00 80 01 69  04 48 2B 80 23 01 F8 07  .......i.H+.#...
0470: 01 E1 07 02 02 10 0A 80  80 81 04 01 9F 01 01 E1  ................
0480: 07 02 02 10 09 80 80 E1  07 02 0D 00 00 80 01 15  ................
0490: 05 02 13 00 00 80 01 C9  04 03 05 10 1A 00 02 1A  ................
04A0: 00 00 80 02 A6 04 02 0D  00 05 80 05 B5 04 48 2C  ..............H,
04B0: 80 23 01 C6 04 03 06 10  0D 00 0C 06 10 03 07 10  .#..............
04C0: 0D 00 48 2D 80 23 01 15  05 03 05 10 1A 00 02 1A  ..H-.#..........
04D0: 00 00 80 02 F5 04 02 1A  00 2E 80 04 F1 04 3F 04  ..............?.
04E0: 10 05 10 2E 80 15 05 10  2E 80 48 2F 80 23 01 F5  ..........H/.#..
04F0: 04 48 30 80 23 02 0D 00  05 80 05 04 05 48 2C 80  .H0.#........H,.
0500: 23 01 15 05 03 06 10 0D  00 0C 06 10 03 07 10 0D  #...............
0510: 00 48 2D 80 23 03 03 00  04 00 03 14 00 31 80 07  .H-.#........1..
0520: 14 00 03 00 02 02 00 14  00 00 34 05 03 02 00 05  ..........4.....
0530: 80 01 39 05 03 02 00 00  80 02 02 00 00 80 00 5F  ..9............_
0540: 05 02 0E 00 05 80 00 5F  05 24 32 80 05 80 00 80  ......._.$2.....
0550: 25 02 00 10 00 80 00 5F  05 05 02 00 01 5F 05 06  %......_....._..
0560: 15 00 02 04 00 00 80 80  72 05 03 15 00 00 80 01  ........r.......
0570: 57 07 02 04 00 05 80 80  82 05 03 15 00 00 80 01  W...............
0580: 57 07 02 04 00 09 80 80  92 05 03 15 00 00 80 01  W...............
0590: 57 07 02 04 00 0A 80 80  A2 05 03 15 00 00 80 01  W...............
05A0: 57 07 02 04 00 0B 80 80  B2 05 03 15 00 00 80 01  W...............
05B0: 57 07 02 04 00 08 80 80  C2 05 03 15 00 00 80 01  W...............
05C0: 57 07 02 04 00 18 80 80  D2 05 03 15 00 00 80 01  W...............
05D0: 57 07 02 04 00 1A 80 80  E2 05 03 15 00 00 80 01  W...............
05E0: 57 07 02 04 00 10 80 80  F2 05 03 15 00 00 80 01  W...............
05F0: 57 07 02 04 00 11 80 80  02 06 03 15 00 00 80 01  W...............
0600: 57 07 02 04 00 1B 80 80  12 06 03 15 00 00 80 01  W...............
0610: 57 07 02 04 00 12 80 80  22 06 03 15 00 00 80 01  W.......".......
0620: 57 07 02 04 00 1C 80 80  32 06 03 15 00 00 80 01  W.......2.......
0630: 57 07 02 04 00 1D 80 80  42 06 03 15 00 00 80 01  W.......B.......
0640: 57 07 02 04 00 1E 80 80  52 06 03 15 00 00 80 01  W.......R.......
0650: 57 07 02 04 00 01 80 80  62 06 03 15 00 00 80 01  W.......b.......
0660: 57 07 02 04 00 02 80 80  72 06 03 15 00 00 80 01  W.......r.......
0670: 57 07 02 04 00 1F 80 80  82 06 03 15 00 00 80 01  W...............
0680: 57 07 02 04 00 19 80 80  92 06 03 15 00 00 80 01  W...............
0690: 57 07 02 04 00 0F 80 80  A2 06 03 15 00 00 80 01  W...............
06A0: 57 07 02 04 00 20 80 80  B2 06 03 15 00 00 80 01  W.... ..........
06B0: 57 07 02 04 00 21 80 80  C2 06 03 15 00 00 80 01  W....!..........
06C0: 57 07 02 04 00 22 80 80  D2 06 03 15 00 00 80 01  W...."..........
06D0: 57 07 02 04 00 23 80 80  E2 06 03 15 00 00 80 01  W....#..........
06E0: 57 07 02 04 00 24 80 80  F2 06 03 15 00 00 80 01  W....$..........
06F0: 57 07 02 04 00 25 80 80  02 07 03 15 00 00 80 01  W....%..........
0700: 57 07 02 04 00 26 80 80  12 07 03 15 00 00 80 01  W....&..........
0710: 57 07 02 04 00 27 80 80  22 07 03 15 00 00 80 01  W....'..".......
0720: 57 07 02 04 00 28 80 80  32 07 03 15 00 00 80 01  W....(..2.......
0730: 57 07 02 04 00 29 80 80  42 07 03 15 00 00 80 01  W....)..B.......
0740: 57 07 02 04 00 2A 80 80  52 07 03 15 00 00 80 01  W....*..R.......
0750: 57 07 03 15 00 00 80 02  02 00 05 80 00 72 07 5C  W............r.\
0760: 00 33 80 5C 01 33 80 5C  02 33 80 5C 03 33 80 01  .3.\.3.\.3.\.3..
0770: 8A 07 02 15 00 00 80 00  8A 07 5C 00 33 80 5C 01  ..........\.3.\.
0780: 33 80 5C 02 33 80 5C 03  33 80 02 02 00 00 80 00  3.\.3.\.3.......
0790: 98 07 1A 67 10 01 D1 07  6C F0 FF FF 7F 00 80 05  ...g....l.......
07A0: 80 62 09 80 F0 FF FF 7F  F0 FF FF 7F 6D 61 69 6E  .b..........main
07B0: 00 80 45 0E 80 F0 FF FF  7F F0 FF FF 7F 6F 76 6C  ..E..........ovl
07C0: 31 00 80 46 02 12 00 02  12 00 00 80 00 D1 07 46  1..F...........F
07D0: 00 03 01 10 31 80 07 01  10 03 00 01 F8 07 01 E1  ....1...........
07E0: 07 0B 00 00 02 00 80 05  80 00 F1 07 03 00 00 0B  ................
07F0: 80 01 A4 01 48 34 80 23  45 35 80 F0 FF FF 7F F0  ....H4.#E5......
0800: FF FF 7F 77 68 69 31 00  80 45 0E 80 F0 FF FF 7F  ...whi1..E......
0810: F0 FF FF 7F 62 6C 6F 66  00 80 45 0E 80 F0 FF FF  ....blof..E.....
0820: 7F F0 FF FF 7F 66 64 69  30 00 80 02 07 00 05 80  .....fdi0.......
0830: 00 43 08 5C 00 00 80 5C  01 00 80 5C 02 33 80 5C  .C.\...\...\.3.\
0840: 03 33 80 21 00 1B                                 .3.!..          
```

#### Opcodes

```
  0: 0x0002 [0x20] SET_CLI_EVENT_UC_FLAG: Lock player control
  1: 0x0004 [0x79] LocalPlayer looks at LocalPlayer (Basic look)
  2: 0x000E [0x03] ExtData[1]->WorkLocal[2] = Work_Zone[2]
  3: 0x0013 [0x03] ExtData[1]->WorkLocal[3] = Work_Zone[3]
  4: 0x0018 [0x03] ExtData[1]->WorkLocal[5] = Work_Zone[4]
  5: 0x001D [0x03] ExtData[1]->WorkLocal[6] = Work_Zone[5]
  6: 0x0022 [0x03] ExtData[1]->WorkLocal[15] = Work_Zone[6]
  7: 0x0027 [0x03] ExtData[1]->WorkLocal[16] = Work_Zone[7]
  8: 0x002C [0x03] ExtData[1]->WorkLocal[17] = Work_Zone[8]
  9: 0x0031 [0x41] ExtData[1]->WorkLocal[7] = Work_Zone[9] (bits 0*-15*)
 10: 0x003A [0x41] Work_Zone[6] = Work_Zone[9] (bits 16*-31*)
 11: 0x0043 [0x06] ExtData[1]->WorkLocal[1] = 0
 12: 0x0046 [0x02] IF !(ExtData[1]->WorkLocal[7] == 0*) GOTO 0x0145
 13: 0x004E [0x03] ExtData[1]->WorkLocal[8] = 4294967295*
 14: 0x0053 [0x0F] ExtData[1]->WorkLocal[8] ^= ExtData[1]->WorkLocal[6]
 15: 0x0058 [0x10] ExtData[1]->WorkLocal[8] <<= 1*
 16: 0x005D [0x24] CREATE_DIALOG(message_id=7605*, default_option=0*, option_flags=ExtData[1]->WorkLocal[8])
    → "Which battlefield will you enter? [None./Ark Angels (1)./Ark Angels (2)./Ark Angels (3)./Ark Angels (4)./Ark Angels (5)./Divine Might./$26Ark Angels (1)./$26Ark Angels (2)./$26Ark Angels (3)./$26Ark Angels (4)./$26Ark Angels (5)./$26Divine Might./././././././././././././././././././]"
 17: 0x0064 [0x25] WAIT_DIALOG_SELECT()
 18: 0x0065 [0x02] IF !(Work_Zone[0] == 0*) GOTO 0x0073
 19: 0x006D [0x01] GOTO 0x082B

SUBROUTINE_009F:
 20: 0x009F [0x3E] IF !(ExtData[1]->WorkLocal[16] bit ExtData[1]->WorkLocal[3]) GOTO 0x00A9
 21: 0x00A6 [0x01] GOTO 0x00B0
 22: 0x00A9 [0x3C] SET_BIT_FLAG_CONDITIONAL(target_work_offset=ExtData[1]->WorkLocal[8], bit_index_work_offset=1*, condition_work_offset=1*)

SUBROUTINE_00B0:
 23: 0x00B0 [0x1A] CALL_SUBROUTINE(address=0x1C6F)
 24: 0x00B3 [0x24] CREATE_DIALOG(message_id=7592*, default_option=5*, option_flags=ExtData[1]->WorkLocal[8])
    → "Select difficulty. [Very difficult. (Level: ???)/Difficult. (Level: ???)/Normal. (Level: $18)/Easy. (Level: $17)/Very Easy. (Level: $16)/Leave.]"
 25: 0x00BA [0x25] WAIT_DIALOG_SELECT()
 26: 0x00BB [0x02] IF !(Work_Zone[0] == 0*) GOTO 0x00CB
 27: 0x00C3 [0x03] ExtData[1]->WorkLocal[15] = 1*
 28: 0x00C8 [0x01] GOTO 0x011E
 29: 0x00CB [0x02] IF !(Work_Zone[0] == 1*) GOTO 0x00DB
 30: 0x00D3 [0x03] ExtData[1]->WorkLocal[15] = 2*
 31: 0x00D8 [0x01] GOTO 0x011E
 32: 0x00DB [0x02] IF !(Work_Zone[0] == 2*) GOTO 0x00EB
 33: 0x00E3 [0x03] ExtData[1]->WorkLocal[15] = 3*
 34: 0x00E8 [0x01] GOTO 0x011E
 35: 0x00EB [0x02] IF !(Work_Zone[0] == 3*) GOTO 0x00FB
 36: 0x00F3 [0x03] ExtData[1]->WorkLocal[15] = 4*
 37: 0x00F8 [0x01] GOTO 0x011E
 38: 0x00FB [0x02] IF !(Work_Zone[0] == 4*) GOTO 0x010B
 39: 0x0103 [0x03] ExtData[1]->WorkLocal[15] = 5*
 40: 0x0108 [0x01] GOTO 0x011E
 41: 0x010B [0x02] IF !(Work_Zone[0] == 5*) GOTO 0x0119
 42: 0x0113 [0x01] GOTO 0x082B

SUBROUTINE_011E:
 43: 0x011E [0x01] GOTO 0x0145
 44: 0x0121 [0x06] ExtData[1]->WorkLocal[15] = 0
 45: 0x0124 [0x1A] CALL_SUBROUTINE(address=0x0845)
 46: 0x0127 [0x02] IF !(ExtData[1]->WorkLocal[22] == 1*) GOTO 0x0145
 47: 0x012F [0x24] CREATE_DIALOG(message_id=7227*, default_option=1*, option_flags=0*)
    → "Enter the battlefield? [Enter./Decline.]"
 48: 0x0136 [0x25] WAIT_DIALOG_SELECT()
 49: 0x0137 [0x02] IF !(Work_Zone[0] == 1*) GOTO 0x0145
 50: 0x013F [0x01] GOTO 0x082B

SUBROUTINE_0145:
 51: 0x0145 [0x42] SET_CLI_EVENT_CANCEL_DATA()
 52: 0x0146 [0x03] Work_Zone[1] = 255*
 53: 0x014B [0x43] SEND_EVENT_UPDATE: Send pending tag to server (packet 0x005B)
 54: 0x014D [0x43] SEND_EVENT_UPDATE: Check pending flag (skip if not pending)
 55: 0x014F [0x06] Work_Zone[1] = 0
 56: 0x0152 [0x45] LOAD_SCHEDULED_TASK: Load scheduler "fdo1" with entities [LocalPlayer, LocalPlayer], work=[200*, 0*]
 57: 0x0163 [0x55] WAIT_LOAD_SCHEDULER: Wait for scheduler "fdo1" with entities [LocalPlayer, LocalPlayer], work=200*
 58: 0x0172 [0x3B] GET_ENTITY_POSITION(entity=LocalPlayer, x_destination=Work_Zone[32], y_destination=Work_Zone[33], z_destination=Work_Zone[34])
 59: 0x017D [0x38] SET_CLIENT_EVENT_MODE(mode=19*)
 60: 0x0180 [0x02] IF !(ExtData[1]->WorkLocal[7] == 1*) GOTO 0x019F
 61: 0x0188 [0x03] ExtData[1]->WorkLocal[0] = 1*
 62: 0x018D [0x03] ExtData[1]->WorkLocal[4] = ExtData[1]->WorkLocal[3]
 63: 0x0192 [0x03] ExtData[1]->WorkLocal[2] = 0*
 64: 0x0197 [0x03] ExtData[1]->WorkLocal[28] = 0*
 65: 0x019C [0x01] GOTO 0x055F

SUBROUTINE_019F:
 66: 0x019F [0x03] ExtData[1]->WorkLocal[0] = 1*

SUBROUTINE_01A4:
 67: 0x01A4 [0x02] IF !(ExtData[1]->WorkLocal[0] > 3*) GOTO 0x07F4
 68: 0x01AC [0x02] IF !(0* == 1*) GOTO 0x01B9
 69: 0x01B4 [0x03] ExtData[1]->WorkLocal[0] = ExtData[1]->WorkLocal[5]
 70: 0x01B9 [0x40] SET_BIT_WORK_RANGE(start_bit=0*, end_bit=3*, target=Work_Zone[1], source=ExtData[1]->WorkLocal[0])
 71: 0x01C2 [0x40] SET_BIT_WORK_RANGE(start_bit=4*, end_bit=8*, target=Work_Zone[1], source=ExtData[1]->WorkLocal[3])
 72: 0x01CB [0x40] SET_BIT_WORK_RANGE(start_bit=9*, end_bit=11*, target=Work_Zone[1], source=ExtData[1]->WorkLocal[15])
 73: 0x01D4 [0x06] Work_Zone[2] = 0
 74: 0x01D7 [0x06] Work_Zone[3] = 0
 75: 0x01DA [0x06] Work_Zone[4] = 0
 76: 0x01DD [0x1A] CALL_SUBROUTINE(address=0x1FE4)
 77: 0x01E0 [0x47] UPDATE_PLAYER_POS(ExtData[1]->WorkLocal[9], ExtData[1]->WorkLocal[10], ExtData[1]->WorkLocal[11], yaw=ExtData[1]->WorkLocal[12])
 78: 0x01EA [0x47] WAIT_PLAYER_POS_UPDATE
 79: 0x01EC [0x03] ExtData[1]->WorkLocal[4] = Work_Zone[3]
 80: 0x01F1 [0x03] ExtData[1]->WorkLocal[2] = Work_Zone[4]
 81: 0x01F6 [0x03] ExtData[1]->WorkLocal[26] = Work_Zone[5]
 82: 0x01FB [0x03] ExtData[1]->WorkLocal[13] = Work_Zone[6]
 83: 0x0200 [0x03] ExtData[1]->WorkLocal[14] = Work_Zone[7]
 84: 0x0205 [0x03] ExtData[1]->WorkLocal[28] = Work_Zone[9]
 85: 0x020A [0x02] IF !(Work_Zone[2] == 1*) GOTO 0x0215
 86: 0x0212 [0x01] GOTO 0x07E1
 87: 0x0215 [0x02] IF !(Work_Zone[2] == 4*) GOTO 0x025F
 88: 0x021D [0x02] IF !(ExtData[1]->WorkLocal[0] == 1*) GOTO 0x022C
 89: 0x0225 [0x48] [System] [7238*]:
    → "You are cleared to enter the battlefield, but you cannot while party members are engaged in combat."
 90: 0x0228 [0x23] WAIT_FOR_DIALOG_INTERACTION
 91: 0x0229 [0x01] GOTO 0x0259
 92: 0x022C [0x02] IF !(ExtData[1]->WorkLocal[0] == 2*) GOTO 0x023B
 93: 0x0234 [0x48] [System] [7239*]:
    → "You are cleared to enter the battlefield, but you cannot while party members are engaged in combat."
 94: 0x0237 [0x23] WAIT_FOR_DIALOG_INTERACTION
 95: 0x0238 [0x01] GOTO 0x0259
 96: 0x023B [0x02] IF !(ExtData[1]->WorkLocal[0] == 3*) GOTO 0x024A
 97: 0x0243 [0x48] [System] [7240*]:
    → "You are cleared to enter the battlefield, but you cannot while party members are engaged in combat."
 98: 0x0246 [0x23] WAIT_FOR_DIALOG_INTERACTION
 99: 0x0247 [0x01] GOTO 0x0259
100: 0x024A [0x02] IF !(ExtData[1]->WorkLocal[0] == 4*) GOTO 0x0259
101: 0x0252 [0x48] [System] [7241*]:
    → "You are cleared to enter the battlefield, but you cannot while party members are engaged in combat."
102: 0x0255 [0x23] WAIT_FOR_DIALOG_INTERACTION
103: 0x0256 [0x01] GOTO 0x0259

SUBROUTINE_0259:
104: 0x0259 [0x01] GOTO 0x07F8

SUBROUTINE_0469:
105: 0x0469 [0x48] [System] [7586*]:
    → "Only $3 [member/members] have clearance to enter the battlefield. This room has reached its maximum capacity."
106: 0x046C [0x23] WAIT_FOR_DIALOG_INTERACTION
107: 0x046D [0x01] GOTO 0x07F8

SUBROUTINE_04C6:
108: 0x04C6 [0x01] GOTO 0x0515
109: 0x04C9 [0x03] Work_Zone[5] = ExtData[1]->WorkLocal[26]
110: 0x04CE [0x02] IF !(ExtData[1]->WorkLocal[26] <= 0*) GOTO 0x04F5
111: 0x04D6 [0x02] IF !(ExtData[1]->WorkLocal[26] < 60*) GOTO 0x04F1
112: 0x04DE [0x3F] Work_Zone[4] = Work_Zone[5] % 60*
113: 0x04E5 [0x15] Work_Zone[5] /= 60*
114: 0x04EA [0x48] [System] [7603*]:
    → "The current battlefield clear time record for "[Ark Angels (1)/Ark Angels (2)/Ark Angels (3)/Ark Angels (4)/Ark Angels (5)/Divine Might/$26Ark Angels (1)/$26Ark Angels (2)/$26Ark Angels (3)/$26Ark Angels (4)/$26Ark Angels (5)/$26Divine Might]" is $3 minute[/s] $2 second[/s]."
115: 0x04ED [0x23] WAIT_FOR_DIALOG_INTERACTION
116: 0x04EE [0x01] GOTO 0x04F5
117: 0x04F1 [0x48] [System] [7602*]:
    → "The current battlefield clear time record for "[Ark Angels (1)/Ark Angels (2)/Ark Angels (3)/Ark Angels (4)/Ark Angels (5)/Divine Might/$26Ark Angels (1)/$26Ark Angels (2)/$26Ark Angels (3)/$26Ark Angels (4)/$26Ark Angels (5)/$26Divine Might]" is $3 second[/s]."
118: 0x04F4 [0x23] WAIT_FOR_DIALOG_INTERACTION

SUBROUTINE_04F5:
119: 0x04F5 [0x02] IF !(ExtData[1]->WorkLocal[13] > 1*) GOTO 0x0504
120: 0x04FD [0x48] [System] [7591*]:
    → "That record is held by %0!"
121: 0x0500 [0x23] WAIT_FOR_DIALOG_INTERACTION
122: 0x0501 [0x01] GOTO 0x0515
123: 0x0504 [0x03] Work_Zone[6] = ExtData[1]->WorkLocal[13]
124: 0x0509 [0x0C] Work_Zone[6]--
125: 0x050C [0x03] Work_Zone[7] = ExtData[1]->WorkLocal[13]
126: 0x0511 [0x48] [System] [7590*]:
    → "That record is held by $5 adventurers, including %0!"
127: 0x0514 [0x23] WAIT_FOR_DIALOG_INTERACTION

SUBROUTINE_0515:
128: 0x0515 [0x03] ExtData[1]->WorkLocal[3] = ExtData[1]->WorkLocal[4]
129: 0x051A [0x03] ExtData[1]->WorkLocal[20] = 100*
130: 0x051F [0x07] ExtData[1]->WorkLocal[20] += ExtData[1]->WorkLocal[3]
131: 0x0524 [0x02] IF !(ExtData[1]->WorkLocal[2] == ExtData[1]->WorkLocal[20]) GOTO 0x0534
132: 0x052C [0x03] ExtData[1]->WorkLocal[2] = 1*
133: 0x0531 [0x01] GOTO 0x0539
134: 0x0534 [0x03] ExtData[1]->WorkLocal[2] = 0*

SUBROUTINE_0539:
135: 0x0539 [0x02] IF !(ExtData[1]->WorkLocal[2] == 0*) GOTO 0x055F
136: 0x0541 [0x02] IF !(ExtData[1]->WorkLocal[14] == 1*) GOTO 0x055F
137: 0x0549 [0x24] CREATE_DIALOG(message_id=7566*, default_option=1*, option_flags=0*)
    → "Skip the event? [Yes./No.]"
138: 0x0550 [0x25] WAIT_DIALOG_SELECT()
139: 0x0551 [0x02] IF !(Work_Zone[0] == 0*) GOTO 0x055F
140: 0x0559 [0x05] ExtData[1]->WorkLocal[2] = 1
141: 0x055C [0x01] GOTO 0x055F

SUBROUTINE_055F:
142: 0x055F [0x06] ExtData[1]->WorkLocal[21] = 0
143: 0x0562 [0x02] IF !(ExtData[1]->WorkLocal[4] == 0*) GOTO 0x0572
144: 0x056A [0x03] ExtData[1]->WorkLocal[21] = 0*
145: 0x056F [0x01] GOTO 0x0757
146: 0x0572 [0x02] IF !(ExtData[1]->WorkLocal[4] == 1*) GOTO 0x0582
147: 0x057A [0x03] ExtData[1]->WorkLocal[21] = 0*
148: 0x057F [0x01] GOTO 0x0757
149: 0x0582 [0x02] IF !(ExtData[1]->WorkLocal[4] == 2*) GOTO 0x0592
150: 0x058A [0x03] ExtData[1]->WorkLocal[21] = 0*
151: 0x058F [0x01] GOTO 0x0757
152: 0x0592 [0x02] IF !(ExtData[1]->WorkLocal[4] == 3*) GOTO 0x05A2
153: 0x059A [0x03] ExtData[1]->WorkLocal[21] = 0*
154: 0x059F [0x01] GOTO 0x0757
155: 0x05A2 [0x02] IF !(ExtData[1]->WorkLocal[4] == 4*) GOTO 0x05B2
156: 0x05AA [0x03] ExtData[1]->WorkLocal[21] = 0*
157: 0x05AF [0x01] GOTO 0x0757
158: 0x05B2 [0x02] IF !(ExtData[1]->WorkLocal[4] == 5*) GOTO 0x05C2
159: 0x05BA [0x03] ExtData[1]->WorkLocal[21] = 0*
160: 0x05BF [0x01] GOTO 0x0757
161: 0x05C2 [0x02] IF !(ExtData[1]->WorkLocal[4] == 6*) GOTO 0x05D2
162: 0x05CA [0x03] ExtData[1]->WorkLocal[21] = 0*
163: 0x05CF [0x01] GOTO 0x0757
164: 0x05D2 [0x02] IF !(ExtData[1]->WorkLocal[4] == 7*) GOTO 0x05E2
165: 0x05DA [0x03] ExtData[1]->WorkLocal[21] = 0*
166: 0x05DF [0x01] GOTO 0x0757
167: 0x05E2 [0x02] IF !(ExtData[1]->WorkLocal[4] == 8*) GOTO 0x05F2
168: 0x05EA [0x03] ExtData[1]->WorkLocal[21] = 0*
169: 0x05EF [0x01] GOTO 0x0757
170: 0x05F2 [0x02] IF !(ExtData[1]->WorkLocal[4] == 9*) GOTO 0x0602
171: 0x05FA [0x03] ExtData[1]->WorkLocal[21] = 0*
172: 0x05FF [0x01] GOTO 0x0757
173: 0x0602 [0x02] IF !(ExtData[1]->WorkLocal[4] == 10*) GOTO 0x0612
174: 0x060A [0x03] ExtData[1]->WorkLocal[21] = 0*
175: 0x060F [0x01] GOTO 0x0757
176: 0x0612 [0x02] IF !(ExtData[1]->WorkLocal[4] == 11*) GOTO 0x0622
177: 0x061A [0x03] ExtData[1]->WorkLocal[21] = 0*
178: 0x061F [0x01] GOTO 0x0757
179: 0x0622 [0x02] IF !(ExtData[1]->WorkLocal[4] == 12*) GOTO 0x0632
180: 0x062A [0x03] ExtData[1]->WorkLocal[21] = 0*
181: 0x062F [0x01] GOTO 0x0757
182: 0x0632 [0x02] IF !(ExtData[1]->WorkLocal[4] == 13*) GOTO 0x0642
183: 0x063A [0x03] ExtData[1]->WorkLocal[21] = 0*
184: 0x063F [0x01] GOTO 0x0757
185: 0x0642 [0x02] IF !(ExtData[1]->WorkLocal[4] == 14*) GOTO 0x0652
186: 0x064A [0x03] ExtData[1]->WorkLocal[21] = 0*
187: 0x064F [0x01] GOTO 0x0757
188: 0x0652 [0x02] IF !(ExtData[1]->WorkLocal[4] == 15*) GOTO 0x0662
189: 0x065A [0x03] ExtData[1]->WorkLocal[21] = 0*
190: 0x065F [0x01] GOTO 0x0757
191: 0x0662 [0x02] IF !(ExtData[1]->WorkLocal[4] == 16*) GOTO 0x0672
192: 0x066A [0x03] ExtData[1]->WorkLocal[21] = 0*
193: 0x066F [0x01] GOTO 0x0757
194: 0x0672 [0x02] IF !(ExtData[1]->WorkLocal[4] == 17*) GOTO 0x0682
195: 0x067A [0x03] ExtData[1]->WorkLocal[21] = 0*
196: 0x067F [0x01] GOTO 0x0757
197: 0x0682 [0x02] IF !(ExtData[1]->WorkLocal[4] == 18*) GOTO 0x0692
198: 0x068A [0x03] ExtData[1]->WorkLocal[21] = 0*
199: 0x068F [0x01] GOTO 0x0757
200: 0x0692 [0x02] IF !(ExtData[1]->WorkLocal[4] == 19*) GOTO 0x06A2
201: 0x069A [0x03] ExtData[1]->WorkLocal[21] = 0*
202: 0x069F [0x01] GOTO 0x0757
203: 0x06A2 [0x02] IF !(ExtData[1]->WorkLocal[4] == 20*) GOTO 0x06B2
204: 0x06AA [0x03] ExtData[1]->WorkLocal[21] = 0*
205: 0x06AF [0x01] GOTO 0x0757
206: 0x06B2 [0x02] IF !(ExtData[1]->WorkLocal[4] == 21*) GOTO 0x06C2
207: 0x06BA [0x03] ExtData[1]->WorkLocal[21] = 0*
208: 0x06BF [0x01] GOTO 0x0757
209: 0x06C2 [0x02] IF !(ExtData[1]->WorkLocal[4] == 22*) GOTO 0x06D2
210: 0x06CA [0x03] ExtData[1]->WorkLocal[21] = 0*
211: 0x06CF [0x01] GOTO 0x0757
212: 0x06D2 [0x02] IF !(ExtData[1]->WorkLocal[4] == 23*) GOTO 0x06E2
213: 0x06DA [0x03] ExtData[1]->WorkLocal[21] = 0*
214: 0x06DF [0x01] GOTO 0x0757
215: 0x06E2 [0x02] IF !(ExtData[1]->WorkLocal[4] == 24*) GOTO 0x06F2
216: 0x06EA [0x03] ExtData[1]->WorkLocal[21] = 0*
217: 0x06EF [0x01] GOTO 0x0757
218: 0x06F2 [0x02] IF !(ExtData[1]->WorkLocal[4] == 25*) GOTO 0x0702
219: 0x06FA [0x03] ExtData[1]->WorkLocal[21] = 0*
220: 0x06FF [0x01] GOTO 0x0757
221: 0x0702 [0x02] IF !(ExtData[1]->WorkLocal[4] == 26*) GOTO 0x0712
222: 0x070A [0x03] ExtData[1]->WorkLocal[21] = 0*
223: 0x070F [0x01] GOTO 0x0757
224: 0x0712 [0x02] IF !(ExtData[1]->WorkLocal[4] == 27*) GOTO 0x0722
225: 0x071A [0x03] ExtData[1]->WorkLocal[21] = 0*
226: 0x071F [0x01] GOTO 0x0757
227: 0x0722 [0x02] IF !(ExtData[1]->WorkLocal[4] == 28*) GOTO 0x0732
228: 0x072A [0x03] ExtData[1]->WorkLocal[21] = 0*
229: 0x072F [0x01] GOTO 0x0757
230: 0x0732 [0x02] IF !(ExtData[1]->WorkLocal[4] == 29*) GOTO 0x0742
231: 0x073A [0x03] ExtData[1]->WorkLocal[21] = 0*
232: 0x073F [0x01] GOTO 0x0757
233: 0x0742 [0x02] IF !(ExtData[1]->WorkLocal[4] == 30*) GOTO 0x0752
234: 0x074A [0x03] ExtData[1]->WorkLocal[21] = 0*
235: 0x074F [0x01] GOTO 0x0757
236: 0x0752 [0x03] ExtData[1]->WorkLocal[21] = 0*

SUBROUTINE_0757:
237: 0x0757 [0x02] IF !(ExtData[1]->WorkLocal[2] == 1*) GOTO 0x0772
238: 0x075F [0x5C] MUSIC_CONTROL: Set Idle (Day) music to song 196*
239: 0x0763 [0x5C] MUSIC_CONTROL: Set Idle (Night) music to song 196*
240: 0x0767 [0x5C] MUSIC_CONTROL: Set Combat (Solo) music to song 196*
241: 0x076B [0x5C] MUSIC_CONTROL: Set Combat (Party) music to song 196*
242: 0x076F [0x01] GOTO 0x078A
243: 0x0772 [0x02] IF !(ExtData[1]->WorkLocal[21] == 0*) GOTO 0x078A
244: 0x077A [0x5C] MUSIC_CONTROL: Set Idle (Day) music to song 196*
245: 0x077E [0x5C] MUSIC_CONTROL: Set Idle (Night) music to song 196*
246: 0x0782 [0x5C] MUSIC_CONTROL: Set Combat (Solo) music to song 196*
247: 0x0786 [0x5C] MUSIC_CONTROL: Set Combat (Party) music to song 196*

SUBROUTINE_078A:
248: 0x078A [0x02] IF !(ExtData[1]->WorkLocal[2] == 0*) GOTO 0x0798
249: 0x0792 [0x1A] CALL_SUBROUTINE(address=0x1067)
250: 0x0795 [0x01] GOTO 0x07D1
251: 0x0798 [0x6C] FADE_ENTITY_COLOR(entity_id=LocalPlayer, end_alpha=0*, fade_time=1*)
252: 0x07A1 [0x62] LOAD_EVENT_SCHEDULER: Load scheduler "main" with entities [LocalPlayer, LocalPlayer], work=[2*, 0*]
253: 0x07B2 [0x45] LOAD_SCHEDULED_TASK: Load scheduler "ovl1" with entities [LocalPlayer, LocalPlayer], work=[200*, 0*]
254: 0x07C3 [0x46] CAMERA_CONTROL: Query status
255: 0x07C5 [0x12] 0x0200 = rand()
256: 0x07C8 [0x12] ExtData[1]->WorkLocal[0] = rand()
257: 0x07CB [0x80] LOAD_WAIT(entity=Unknown NPC (ID: 1174917376/0x4607D100))
258: 0x07D0 [0x00] END_REQSTACK()

SUBROUTINE_07D1:
259: 0x07D1 [0x03] Work_Zone[1] = 100*
260: 0x07D6 [0x07] Work_Zone[1] += ExtData[1]->WorkLocal[3]
261: 0x07DB [0x01] GOTO 0x07F8

SUBROUTINE_07E1:
262: 0x07E1 [0x0B] ExtData[1]->WorkLocal[0]++
263: 0x07E4 [0x02] IF !(0* == 1*) GOTO 0x07F1
264: 0x07EC [0x03] ExtData[1]->WorkLocal[0] = 4*
265: 0x07F1 [0x01] GOTO 0x01A4
266: 0x07F4 [0x48] [System] [7230*]:
    → "You cannot enter the battlefield at present. Please wait a little longer."
267: 0x07F7 [0x23] WAIT_FOR_DIALOG_INTERACTION

SUBROUTINE_07F8:
268: 0x07F8 [0x45] LOAD_SCHEDULED_TASK: Load scheduler "whi1" with entities [LocalPlayer, LocalPlayer], work=[201*, 0*]
269: 0x0809 [0x45] LOAD_SCHEDULED_TASK: Load scheduler "blof" with entities [LocalPlayer, LocalPlayer], work=[200*, 0*]
270: 0x081A [0x45] LOAD_SCHEDULED_TASK: Load scheduler "fdi0" with entities [LocalPlayer, LocalPlayer], work=[200*, 0*]

SUBROUTINE_082B:
271: 0x082B [0x02] IF !(ExtData[1]->WorkLocal[7] == 1*) GOTO 0x0843
272: 0x0833 [0x5C] MUSIC_CONTROL: Set Idle (Day) music to song 0*
273: 0x0837 [0x5C] MUSIC_CONTROL: Set Idle (Night) music to song 0*
274: 0x083B [0x5C] MUSIC_CONTROL: Set Combat (Solo) music to song 196*
275: 0x083F [0x5C] MUSIC_CONTROL: Set Combat (Party) music to song 196*
276: 0x0843 [0x21] END_EVENT
277: 0x0844 [0x00] END_REQSTACK()

SUBROUTINE_0845:
278: 0x0845 [0x1B] RETURN
```

#### Data or dead code:

```
# Dead code (unreachable instructions):
     0x0070 [0x01] GOTO 0x0145
# Dead code (unreachable instructions):
     0x0116 [0x01] GOTO 0x011E
# Dead code (unreachable instructions):
     0x0142 [0x01] GOTO 0x0145
# Dead code (unreachable instructions):
     0x025C [0x01] GOTO 0x07E1
     0x026E [0x01] GOTO 0x07E1
# Dead code (unreachable instructions):
     0x0470 [0x01] GOTO 0x07E1
     0x047E [0x01] GOTO 0x07E1
# Dead code (unreachable instructions):
     0x07DE [0x01] GOTO 0x07E1
```

### Event 32002

#### Metadata

| Field        | Value     |
|--------------|-----------|
| Entrypoint   | 0x0846    |
| Data Size    | 494 bytes |
| Instructions | 83        |

```
      00 01 02 03 04 05 06 07  08 09 0A 0B 0C 0D 0E 0F
      -- -- -- -- -- -- -- --  -- -- -- -- -- -- -- --
0840:                   03 05  00 06 10 03 21 00 07 10        ......!...
0850: 03 20 00 08 10 20 01 42  3B F0 FF FF 7F 20 10 21  . ... .B;.... .!
0860: 10 22 10 3A F0 FF FF 7F  23 10 45 0E 80 F0 FF FF  .".:....#.E.....
0870: 7F F0 FF FF 7F 66 64 6F  31 00 80 55 0E 80 F0 FF  .....fdo1..U....
0880: FF 7F F0 FF FF 7F 66 64  6F 31 02 00 80 05 80 00  ......fdo1......
0890: F1 08 02 05 00 05 80 80  A9 08 47 00 36 80 37 80  ..........G.6.7.
08A0: 38 80 39 80 47 01 01 EE  08 02 05 00 09 80 80 C0  8.9.G...........
08B0: 08 47 00 36 80 37 80 38  80 39 80 47 01 01 EE 08  .G.6.7.8.9.G....
08C0: 02 05 00 0A 80 80 D7 08  47 00 36 80 37 80 38 80  ........G.6.7.8.
08D0: 39 80 47 01 01 EE 08 02  05 00 0B 80 80 EE 08 47  9.G............G
08E0: 00 36 80 37 80 38 80 39  80 47 01 01 EE 08 01 FA  .6.7.8.9.G......
08F0: 09 02 20 00 3A 80 80 7B  09 02 21 00 00 80 80 10  .. .:..{..!.....
0900: 09 47 00 3B 80 3C 80 3D  80 3E 80 47 01 01 78 09  .G.;.<.=.>.G..x.
0910: 02 21 00 05 80 80 27 09  47 00 3F 80 40 80 41 80  .!....'.G.?.@.A.
0920: 42 80 47 01 01 78 09 02  21 00 09 80 80 3E 09 47  B.G..x..!....>.G
0930: 00 43 80 44 80 45 80 46  80 47 01 01 78 09 02 21  .C.D.E.F.G..x..!
0940: 00 0A 80 80 55 09 47 00  47 80 48 80 49 80 4A 80  ....U.G.G.H.I.J.
0950: 47 01 01 78 09 02 21 00  0B 80 80 6C 09 47 00 4B  G..x..!....l.G.K
0960: 80 4C 80 4D 80 4E 80 47  01 01 78 09 47 00 3B 80  .L.M.N.G..x.G.;.
0970: 3C 80 3D 80 3E 80 47 01  01 FA 09 02 20 00 18 80  <.=.>.G..... ...
0980: 80 EE 09 02 21 00 05 80  80 9A 09 47 00 4F 80 50  ....!......G.O.P
0990: 80 51 80 52 80 47 01 01  EB 09 02 21 00 09 80 80  .Q.R.G.....!....
09A0: B1 09 47 00 53 80 54 80  55 80 56 80 47 01 01 EB  ..G.S.T.U.V.G...
09B0: 09 02 21 00 0A 80 80 C8  09 47 00 57 80 58 80 59  ..!......G.W.X.Y
09C0: 80 5A 80 47 01 01 EB 09  02 21 00 0B 80 80 DF 09  .Z.G.....!......
09D0: 47 00 5B 80 5C 80 5D 80  5E 80 47 01 01 EB 09 47  G.[.\.].^.G....G
09E0: 00 3B 80 3C 80 3D 80 3E  80 47 01 01 FA 09 47 00  .;.<.=.>.G....G.
09F0: 3B 80 3C 80 3D 80 3E 80  47 01 38 0F 80 1A 3B 1C  ;.<.=.>.G.8...;.
0A00: 45 35 80 F0 FF FF 7F F0  FF FF 7F 77 68 69 31 00  E5.........whi1.
0A10: 80 45 0E 80 F0 FF FF 7F  F0 FF FF 7F 62 6C 6F 66  .E..........blof
0A20: 00 80 5C 00 00 80 5C 01  00 80 5C 02 33 80 5C 03  ..\...\...\.3.\.
0A30: 33 80 21 00                                       3.!.            
```

#### Opcodes

```
  0: 0x0846 [0x03] ExtData[1]->WorkLocal[5] = Work_Zone[6]
  1: 0x084B [0x03] ExtData[1]->WorkLocal[33] = Work_Zone[7]
  2: 0x0850 [0x03] ExtData[1]->WorkLocal[32] = Work_Zone[8]
  3: 0x0855 [0x20] SET_CLI_EVENT_UC_FLAG: Lock player control
  4: 0x0857 [0x42] SET_CLI_EVENT_CANCEL_DATA()
  5: 0x0858 [0x3B] GET_ENTITY_POSITION(entity=LocalPlayer, x_destination=Work_Zone[32], y_destination=Work_Zone[33], z_destination=Work_Zone[34])
  6: 0x0863 [0x3A] CONVERT_YAW_TO_BYTE(entity=LocalPlayer, result_destination=Work_Zone[35])
  7: 0x086A [0x45] LOAD_SCHEDULED_TASK: Load scheduler "fdo1" with entities [LocalPlayer, LocalPlayer], work=[200*, 0*]
  8: 0x087B [0x55] WAIT_LOAD_SCHEDULER: Wait for scheduler "fdo1" with entities [LocalPlayer, LocalPlayer], work=200*
  9: 0x088A [0x02] IF !(0* == 1*) GOTO 0x08F1
 10: 0x0892 [0x02] IF !(ExtData[1]->WorkLocal[5] == 1*) GOTO 0x08A9
 11: 0x089A [0x47] UPDATE_PLAYER_POS(-331.780*, -298.708*, 0.220*, yaw=29.5°*)
 12: 0x08A4 [0x47] WAIT_PLAYER_POS_UPDATE
 13: 0x08A6 [0x01] GOTO 0x08EE
 14: 0x08A9 [0x02] IF !(ExtData[1]->WorkLocal[5] == 2*) GOTO 0x08C0
 15: 0x08B1 [0x47] UPDATE_PLAYER_POS(-331.780*, -298.708*, 0.220*, yaw=29.5°*)
 16: 0x08BB [0x47] WAIT_PLAYER_POS_UPDATE
 17: 0x08BD [0x01] GOTO 0x08EE
 18: 0x08C0 [0x02] IF !(ExtData[1]->WorkLocal[5] == 3*) GOTO 0x08D7
 19: 0x08C8 [0x47] UPDATE_PLAYER_POS(-331.780*, -298.708*, 0.220*, yaw=29.5°*)
 20: 0x08D2 [0x47] WAIT_PLAYER_POS_UPDATE
 21: 0x08D4 [0x01] GOTO 0x08EE
 22: 0x08D7 [0x02] IF !(ExtData[1]->WorkLocal[5] == 4*) GOTO 0x08EE
 23: 0x08DF [0x47] UPDATE_PLAYER_POS(-331.780*, -298.708*, 0.220*, yaw=29.5°*)
 24: 0x08E9 [0x47] WAIT_PLAYER_POS_UPDATE
 25: 0x08EB [0x01] GOTO 0x08EE

SUBROUTINE_08EE:
 26: 0x08EE [0x01] GOTO 0x09FA
 27: 0x08F1 [0x02] IF !(ExtData[1]->WorkLocal[32] == 180*) GOTO 0x097B
 28: 0x08F9 [0x02] IF !(ExtData[1]->WorkLocal[33] == 0*) GOTO 0x0910
 29: 0x0901 [0x47] UPDATE_PLAYER_POS(-605.141*, 479.929*, -22.681*, yaw=87.2°*)
 30: 0x090B [0x47] WAIT_PLAYER_POS_UPDATE
 31: 0x090D [0x01] GOTO 0x0978
 32: 0x0910 [0x02] IF !(ExtData[1]->WorkLocal[33] == 1*) GOTO 0x0927
 33: 0x0918 [0x47] UPDATE_PLAYER_POS(-262.589*, 377.857*, -137.313*, yaw=305.3°*)
 34: 0x0922 [0x47] WAIT_PLAYER_POS_UPDATE
 35: 0x0924 [0x01] GOTO 0x0978
 36: 0x0927 [0x02] IF !(ExtData[1]->WorkLocal[33] == 2*) GOTO 0x093E
 37: 0x092F [0x47] UPDATE_PLAYER_POS(18.348*, 486.940*, -224.334*, yaw=17.1°*)
 38: 0x0939 [0x47] WAIT_PLAYER_POS_UPDATE
 39: 0x093B [0x01] GOTO 0x0978
 40: 0x093E [0x02] IF !(ExtData[1]->WorkLocal[33] == 3*) GOTO 0x0955
 41: 0x0946 [0x47] UPDATE_PLAYER_POS(231.593*, 360.094*, -173.572*, yaw=160.8°*)
 42: 0x0950 [0x47] WAIT_PLAYER_POS_UPDATE
 43: 0x0952 [0x01] GOTO 0x0978
 44: 0x0955 [0x02] IF !(ExtData[1]->WorkLocal[33] == 4*) GOTO 0x096C
 45: 0x095D [0x47] UPDATE_PLAYER_POS(553.664*, 523.939*, -38.205*, yaw=233.9°*)
 46: 0x0967 [0x47] WAIT_PLAYER_POS_UPDATE
 47: 0x0969 [0x01] GOTO 0x0978
 48: 0x096C [0x47] UPDATE_PLAYER_POS(-605.141*, 479.929*, -22.681*, yaw=87.2°*)
 49: 0x0976 [0x47] WAIT_PLAYER_POS_UPDATE

SUBROUTINE_0978:
 50: 0x0978 [0x01] GOTO 0x09FA
 51: 0x097B [0x02] IF !(ExtData[1]->WorkLocal[32] == 6*) GOTO 0x09EE
 52: 0x0983 [0x02] IF !(ExtData[1]->WorkLocal[33] == 1*) GOTO 0x099A
 53: 0x098B [0x47] UPDATE_PLAYER_POS(-875.117*, -43.892*, -48.084*, yaw=45.1°*)
 54: 0x0995 [0x47] WAIT_PLAYER_POS_UPDATE
 55: 0x0997 [0x01] GOTO 0x09EB
 56: 0x099A [0x02] IF !(ExtData[1]->WorkLocal[33] == 2*) GOTO 0x09B1
 57: 0x09A2 [0x47] UPDATE_PLAYER_POS(-755.499*, 563.947*, -112.035*, yaw=313.5°*)
 58: 0x09AC [0x47] WAIT_PLAYER_POS_UPDATE
 59: 0x09AE [0x01] GOTO 0x09EB
 60: 0x09B1 [0x02] IF !(ExtData[1]->WorkLocal[33] == 3*) GOTO 0x09C8
 61: 0x09B9 [0x47] UPDATE_PLAYER_POS(123.251*, 754.209*, -172.124*, yaw=38.7°*)
 62: 0x09C3 [0x47] WAIT_PLAYER_POS_UPDATE
 63: 0x09C5 [0x01] GOTO 0x09EB
 64: 0x09C8 [0x02] IF !(ExtData[1]->WorkLocal[33] == 4*) GOTO 0x09DF
 65: 0x09D0 [0x47] UPDATE_PLAYER_POS(-516.404*, -803.323*, 24.206*, yaw=38.4°*)
 66: 0x09DA [0x47] WAIT_PLAYER_POS_UPDATE
 67: 0x09DC [0x01] GOTO 0x09EB
 68: 0x09DF [0x47] UPDATE_PLAYER_POS(-605.141*, 479.929*, -22.681*, yaw=87.2°*)
 69: 0x09E9 [0x47] WAIT_PLAYER_POS_UPDATE

SUBROUTINE_09EB:
 70: 0x09EB [0x01] GOTO 0x09FA
 71: 0x09EE [0x47] UPDATE_PLAYER_POS(-605.141*, 479.929*, -22.681*, yaw=87.2°*)
 72: 0x09F8 [0x47] WAIT_PLAYER_POS_UPDATE

SUBROUTINE_09FA:
 73: 0x09FA [0x38] SET_CLIENT_EVENT_MODE(mode=19*)
 74: 0x09FD [0x1A] CALL_SUBROUTINE(address=0x1C3B)
 75: 0x0A00 [0x45] LOAD_SCHEDULED_TASK: Load scheduler "whi1" with entities [LocalPlayer, LocalPlayer], work=[201*, 0*]
 76: 0x0A11 [0x45] LOAD_SCHEDULED_TASK: Load scheduler "blof" with entities [LocalPlayer, LocalPlayer], work=[200*, 0*]
 77: 0x0A22 [0x5C] MUSIC_CONTROL: Set Idle (Day) music to song 0*
 78: 0x0A26 [0x5C] MUSIC_CONTROL: Set Idle (Night) music to song 0*
 79: 0x0A2A [0x5C] MUSIC_CONTROL: Set Combat (Solo) music to song 196*
 80: 0x0A2E [0x5C] MUSIC_CONTROL: Set Combat (Party) music to song 196*
 81: 0x0A32 [0x21] END_EVENT
 82: 0x0A33 [0x00] END_REQSTACK()
```

### Event 32001

#### Metadata

| Field        | Value      |
|--------------|------------|
| Entrypoint   | 0x0A34     |
| Data Size    | 1129 bytes |
| Instructions | 195        |

```
      00 01 02 03 04 05 06 07  08 09 0A 0B 0C 0D 0E 0F
      -- -- -- -- -- -- -- --  -- -- -- -- -- -- -- --
0A30:             79 00 F0 FF  FF 7F F0 FF FF 7F 03 21      y..........!
0A40: 00 02 10 03 1A 00 03 10  03 1B 00 05 10 03 20 00  .............. .
0A50: 06 10 03 19 00 07 10 03  17 00 08 10 02 17 00 0A  ................
0A60: 80 04 69 0A 03 17 00 00  80 02 19 00 18 80 80 79  ..i............y
0A70: 0A 03 17 00 09 80 01 C9  0A 02 19 00 1A 80 80 89  ................
0A80: 0A 03 17 00 09 80 01 C9  0A 02 19 00 10 80 80 99  ................
0A90: 0A 03 17 00 09 80 01 C9  0A 02 19 00 11 80 80 A9  ................
0AA0: 0A 03 17 00 09 80 01 C9  0A 02 19 00 1B 80 80 B9  ................
0AB0: 0A 03 17 00 09 80 01 C9  0A 02 19 00 12 80 80 C9  ................
0AC0: 0A 03 17 00 09 80 01 C9  0A 03 1C 00 09 10 20 01  .............. .
0AD0: 42 3B F0 FF FF 7F 20 10  21 10 22 10 3A F0 FF FF  B;.... .!.".:...
0AE0: 7F 23 10 02 20 00 3A 80  01 EE 0A 1C 5F 80 45 35  .#.. .:....._.E5
0AF0: 80 F0 FF FF 7F F0 FF FF  7F 77 68 69 31 00 80 45  .........whi1..E
0B00: 0E 80 F0 FF FF 7F F0 FF  FF 7F 62 6C 6F 66 00 80  ..........blof..
0B10: 45 0E 80 F0 FF FF 7F F0  FF FF 7F 66 64 6F 31 00  E..........fdo1.
0B20: 80 55 0E 80 F0 FF FF 7F  F0 FF FF 7F 66 64 6F 31  .U..........fdo1
0B30: 6C F0 FF FF 7F 60 80 05  80 06 01 10 02 17 00 00  l....`..........
0B40: 80 03 47 0B 01 95 0C 02  20 00 3A 80 80 D1 0B 02  ..G..... .:.....
0B50: 21 00 00 80 80 66 0B 47  00 61 80 62 80 63 80 64  !....f.G.a.b.c.d
0B60: 80 47 01 01 CE 0B 02 21  00 05 80 80 7D 0B 47 00  .G.....!....}.G.
0B70: 65 80 66 80 67 80 68 80  47 01 01 CE 0B 02 21 00  e.f.g.h.G.....!.
0B80: 09 80 80 94 0B 47 00 69  80 6A 80 6B 80 6C 80 47  .....G.i.j.k.l.G
0B90: 01 01 CE 0B 02 21 00 0A  80 80 AB 0B 47 00 6D 80  .....!......G.m.
0BA0: 6E 80 6F 80 70 80 47 01  01 CE 0B 02 21 00 0B 80  n.o.p.G.....!...
0BB0: 80 C2 0B 47 00 71 80 72  80 73 80 74 80 47 01 01  ...G.q.r.s.t.G..
0BC0: CE 0B 47 00 75 80 76 80  63 80 77 80 47 01 01 95  ..G.u.v.c.w.G...
0BD0: 0C 02 20 00 78 80 80 FF  0B 02 19 00 00 80 80 F0  .. .x...........
0BE0: 0B 47 00 75 80 76 80 63  80 77 80 47 01 01 FC 0B  .G.u.v.c.w.G....
0BF0: 47 00 79 80 7A 80 7B 80  7C 80 47 01 01 95 0C 02  G.y.z.{.|.G.....
0C00: 20 00 7D 80 80 2D 0C 02  19 00 0B 80 80 1E 0C 47   .}..-.........G
0C10: 00 7E 80 7F 80 80 80 81  80 47 01 01 2A 0C 47 00  .~.......G..*.G.
0C20: 75 80 76 80 63 80 77 80  47 01 01 95 0C 02 20 00  u.v.c.w.G..... .
0C30: 82 80 80 5B 0C 02 19 00  0B 80 80 4C 0C 47 00 83  ...[.......L.G..
0C40: 80 84 80 85 80 86 80 47  01 01 58 0C 47 00 75 80  .......G..X.G.u.
0C50: 76 80 63 80 77 80 47 01  01 95 0C 02 20 00 87 80  v.c.w.G..... ...
0C60: 80 89 0C 02 19 00 0A 80  80 7A 0C 47 00 88 80 89  .........z.G....
0C70: 80 8A 80 8B 80 47 01 01  86 0C 47 00 75 80 76 80  .....G....G.u.v.
0C80: 63 80 77 80 47 01 01 95  0C 47 00 75 80 76 80 63  c.w.G....G.u.v.c
0C90: 80 77 80 47 01 38 0F 80  02 17 00 09 80 00 A3 0C  .w.G.8..........
0CA0: 01 BE 0C 02 17 00 05 80  00 6E 0D 1C 01 80 24 32  .........n....$2
0CB0: 80 05 80 00 80 25 02 00  10 00 80 00 6E 0D 02 20  .....%......n.. 
0CC0: 00 3A 80 00 2A 0D 02 21  00 00 80 80 D8 0C 36 61  .:..*..!......6a
0CD0: 80 62 80 63 80 01 27 0D  02 21 00 05 80 80 EA 0C  .b.c..'..!......
0CE0: 36 65 80 66 80 67 80 01  27 0D 02 21 00 09 80 80  6e.f.g..'..!....
0CF0: FC 0C 36 69 80 6A 80 6B  80 01 27 0D 02 21 00 0A  ..6i.j.k..'..!..
0D00: 80 80 0E 0D 36 6D 80 6E  80 6F 80 01 27 0D 02 21  ....6m.n.o..'..!
0D10: 00 0B 80 80 20 0D 36 71  80 72 80 73 80 01 27 0D  .... .6q.r.s..'.
0D20: 36 75 80 76 80 63 80 01  33 0D 37 75 80 76 80 63  6u.v.c..3.7u.v.c
0D30: 80 77 80 80 F0 FF FF 7F  62 09 80 F0 FF FF 7F F0  .w......b.......
0D40: FF FF 7F 6D 61 69 6E 00  80 45 0E 80 F0 FF FF 7F  ...main..E......
0D50: F0 FF FF 7F 66 64 69 32  00 80 46 02 12 00 02 12  ....fdi2..F.....
0D60: 00 00 80 00 68 0D 46 00  01 95 0D 01 6E 0D 02 17  ....h.F.....n...
0D70: 00 04 80 04 87 0D 5C 00  33 80 5C 01 33 80 5C 02  ......\.3.\.3.\.
0D80: 33 80 5C 03 33 80 9A 1A  4F 16 02 17 00 00 80 03  3.\.3...O.......
0D90: 95 0D 01 35 0E 02 20 00  8C 80 80 A0 0D 01 A0 0D  ...5.. .........
0DA0: 02 20 00 1F 80 80 AB 0D  01 35 0E 02 20 00 0F 80  . .......5.. ...
0DB0: 80 B6 0D 01 35 0E 02 20  00 21 80 80 C1 0D 01 35  ....5.. .!.....5
0DC0: 0E 02 20 00 23 80 80 CC  0D 01 35 0E 03 05 10 1B  .. .#.....5.....
0DD0: 00 02 05 10 00 80 02 35  0E 02 05 10 2E 80 04 F4  .......5........
0DE0: 0D 3F 04 10 05 10 2E 80  15 05 10 2E 80 48 8D 80  .?...........H..
0DF0: 23 01 F8 0D 48 8E 80 23  02 1B 00 1A 00 05 0C 0E  #...H..#........
0E00: 03 07 10 19 00 48 8F 80  23 01 35 0E 02 1A 00 2E  .....H..#.5.....
0E10: 80 04 2C 0E 03 05 10 1A  00 3F 04 10 05 10 2E 80  ..,......?......
0E20: 15 05 10 2E 80 48 90 80  23 01 35 0E 03 05 10 1A  .....H..#.5.....
0E30: 00 48 91 80 23 02 18 00  00 80 00 4D 0E 5C 00 00  .H..#......M.\..
0E40: 80 5C 01 00 80 5C 02 33  80 5C 03 33 80 02 17 00  .\...\.3.\.3....
0E50: 00 80 03 76 0E 45 0E 80  F0 FF FF 7F F0 FF FF 7F  ...v.E..........
0E60: 66 64 69 32 00 80 5C 00  00 80 5C 01 00 80 5C 02  fdi2..\...\...\.
0E70: 33 80 5C 03 33 80 06 18  00 45 35 80 F0 FF FF 7F  3.\.3....E5.....
0E80: F0 FF FF 7F 77 68 69 31  00 80 45 0E 80 F0 FF FF  ....whi1..E.....
0E90: 7F F0 FF FF 7F 62 6C 6F  66 00 80 21 00           .....blof..!.   
```

#### Opcodes

```
  0: 0x0A34 [0x79] LocalPlayer looks at LocalPlayer (Basic look)
  1: 0x0A3E [0x03] ExtData[1]->WorkLocal[33] = Work_Zone[2]
  2: 0x0A43 [0x03] ExtData[1]->WorkLocal[26] = Work_Zone[3]
  3: 0x0A48 [0x03] ExtData[1]->WorkLocal[27] = Work_Zone[5]
  4: 0x0A4D [0x03] ExtData[1]->WorkLocal[32] = Work_Zone[6]
  5: 0x0A52 [0x03] ExtData[1]->WorkLocal[25] = Work_Zone[7]
  6: 0x0A57 [0x03] ExtData[1]->WorkLocal[23] = Work_Zone[8]
  7: 0x0A5C [0x02] IF !(ExtData[1]->WorkLocal[23] < 3*) GOTO 0x0A69
  8: 0x0A64 [0x03] ExtData[1]->WorkLocal[23] = 0*
  9: 0x0A69 [0x02] IF !(ExtData[1]->WorkLocal[25] == 6*) GOTO 0x0A79
 10: 0x0A71 [0x03] ExtData[1]->WorkLocal[23] = 2*
 11: 0x0A76 [0x01] GOTO 0x0AC9
 12: 0x0A79 [0x02] IF !(ExtData[1]->WorkLocal[25] == 7*) GOTO 0x0A89
 13: 0x0A81 [0x03] ExtData[1]->WorkLocal[23] = 2*
 14: 0x0A86 [0x01] GOTO 0x0AC9
 15: 0x0A89 [0x02] IF !(ExtData[1]->WorkLocal[25] == 8*) GOTO 0x0A99
 16: 0x0A91 [0x03] ExtData[1]->WorkLocal[23] = 2*
 17: 0x0A96 [0x01] GOTO 0x0AC9
 18: 0x0A99 [0x02] IF !(ExtData[1]->WorkLocal[25] == 9*) GOTO 0x0AA9
 19: 0x0AA1 [0x03] ExtData[1]->WorkLocal[23] = 2*
 20: 0x0AA6 [0x01] GOTO 0x0AC9
 21: 0x0AA9 [0x02] IF !(ExtData[1]->WorkLocal[25] == 10*) GOTO 0x0AB9
 22: 0x0AB1 [0x03] ExtData[1]->WorkLocal[23] = 2*
 23: 0x0AB6 [0x01] GOTO 0x0AC9
 24: 0x0AB9 [0x02] IF !(ExtData[1]->WorkLocal[25] == 11*) GOTO 0x0AC9
 25: 0x0AC1 [0x03] ExtData[1]->WorkLocal[23] = 2*
 26: 0x0AC6 [0x01] GOTO 0x0AC9

SUBROUTINE_0AC9:
 27: 0x0AC9 [0x03] ExtData[1]->WorkLocal[28] = Work_Zone[9]
 28: 0x0ACE [0x20] SET_CLI_EVENT_UC_FLAG: Lock player control
 29: 0x0AD0 [0x42] SET_CLI_EVENT_CANCEL_DATA()
 30: 0x0AD1 [0x3B] GET_ENTITY_POSITION(entity=LocalPlayer, x_destination=Work_Zone[32], y_destination=Work_Zone[33], z_destination=Work_Zone[34])
 31: 0x0ADC [0x3A] CONVERT_YAW_TO_BYTE(entity=LocalPlayer, result_destination=Work_Zone[35])
 32: 0x0AE3 [0x02] IF !(ExtData[1]->WorkLocal[32] == 180*) GOTO 0x0AEE
 33: 0x0AEB [0x1C] WAIT(300* ticks)
 34: 0x0AEE [0x45] LOAD_SCHEDULED_TASK: Load scheduler "whi1" with entities [LocalPlayer, LocalPlayer], work=[201*, 0*]
 35: 0x0AFF [0x45] LOAD_SCHEDULED_TASK: Load scheduler "blof" with entities [LocalPlayer, LocalPlayer], work=[200*, 0*]
 36: 0x0B10 [0x45] LOAD_SCHEDULED_TASK: Load scheduler "fdo1" with entities [LocalPlayer, LocalPlayer], work=[200*, 0*]
 37: 0x0B21 [0x55] WAIT_LOAD_SCHEDULER: Wait for scheduler "fdo1" with entities [LocalPlayer, LocalPlayer], work=200*
 38: 0x0B30 [0x6C] FADE_ENTITY_COLOR(entity_id=LocalPlayer, end_alpha=128*, fade_time=1*)
 39: 0x0B39 [0x06] Work_Zone[1] = 0
 40: 0x0B3C [0x02] IF !(ExtData[1]->WorkLocal[23] >= 0*) GOTO 0x0B47
 41: 0x0B44 [0x01] GOTO 0x0C95
 42: 0x0B47 [0x02] IF !(ExtData[1]->WorkLocal[32] == 180*) GOTO 0x0BD1
 43: 0x0B4F [0x02] IF !(ExtData[1]->WorkLocal[33] == 0*) GOTO 0x0B66
 44: 0x0B57 [0x47] UPDATE_PLAYER_POS(-618.329*, -643.868*, -25.805*, yaw=330.5°*)
 45: 0x0B61 [0x47] WAIT_PLAYER_POS_UPDATE
 46: 0x0B63 [0x01] GOTO 0x0BCE
 47: 0x0B66 [0x02] IF !(ExtData[1]->WorkLocal[33] == 1*) GOTO 0x0B7D
 48: 0x0B6E [0x47] UPDATE_PLAYER_POS(-332.163*, -441.914*, -95.055*, yaw=330.5°*)
 49: 0x0B78 [0x47] WAIT_PLAYER_POS_UPDATE
 50: 0x0B7A [0x01] GOTO 0x0BCE
 51: 0x0B7D [0x02] IF !(ExtData[1]->WorkLocal[33] == 2*) GOTO 0x0B94
 52: 0x0B85 [0x47] UPDATE_PLAYER_POS(-12.464*, -648.377*, -194.629*, yaw=331.3°*)
 53: 0x0B8F [0x47] WAIT_PLAYER_POS_UPDATE
 54: 0x0B91 [0x01] GOTO 0x0BCE
 55: 0x0B94 [0x02] IF !(ExtData[1]->WorkLocal[33] == 3*) GOTO 0x0BAB
 56: 0x0B9C [0x47] UPDATE_PLAYER_POS(323.381*, -443.793*, -108.440*, yaw=329.1°*)
 57: 0x0BA6 [0x47] WAIT_PLAYER_POS_UPDATE
 58: 0x0BA8 [0x01] GOTO 0x0BCE
 59: 0x0BAB [0x02] IF !(ExtData[1]->WorkLocal[33] == 4*) GOTO 0x0BC2
 60: 0x0BB3 [0x47] UPDATE_PLAYER_POS(599.907*, -676.969*, -22.473*, yaw=330.7°*)
 61: 0x0BBD [0x47] WAIT_PLAYER_POS_UPDATE
 62: 0x0BBF [0x01] GOTO 0x0BCE
 63: 0x0BC2 [0x47] UPDATE_PLAYER_POS(-618.763*, -644.178*, -25.805*, yaw=329.8°*)
 64: 0x0BCC [0x47] WAIT_PLAYER_POS_UPDATE

SUBROUTINE_0BCE:
 65: 0x0BCE [0x01] GOTO 0x0C95
 66: 0x0BD1 [0x02] IF !(ExtData[1]->WorkLocal[32] == 168*) GOTO 0x0BFF
 67: 0x0BD9 [0x02] IF !(ExtData[1]->WorkLocal[25] == 0*) GOTO 0x0BF0
 68: 0x0BE1 [0x47] UPDATE_PLAYER_POS(-618.763*, -644.178*, -25.805*, yaw=329.8°*)
 69: 0x0BEB [0x47] WAIT_PLAYER_POS_UPDATE
 70: 0x0BED [0x01] GOTO 0x0BFC
 71: 0x0BF0 [0x47] UPDATE_PLAYER_POS(200.059*, -21.958*, -0.250*, yaw=91.5°*)
 72: 0x0BFA [0x47] WAIT_PLAYER_POS_UPDATE

SUBROUTINE_0BFC:
 73: 0x0BFC [0x01] GOTO 0x0C95
 74: 0x0BFF [0x02] IF !(ExtData[1]->WorkLocal[32] == 202*) GOTO 0x0C2D
 75: 0x0C07 [0x02] IF !(ExtData[1]->WorkLocal[25] == 4*) GOTO 0x0C1E
 76: 0x0C0F [0x47] UPDATE_PLAYER_POS(538.604*, 501.900*, -13.942*, yaw=286.5°*)
 77: 0x0C19 [0x47] WAIT_PLAYER_POS_UPDATE
 78: 0x0C1B [0x01] GOTO 0x0C2A
 79: 0x0C1E [0x47] UPDATE_PLAYER_POS(-618.763*, -644.178*, -25.805*, yaw=329.8°*)
 80: 0x0C28 [0x47] WAIT_PLAYER_POS_UPDATE

SUBROUTINE_0C2A:
 81: 0x0C2A [0x01] GOTO 0x0C95
 82: 0x0C2D [0x02] IF !(ExtData[1]->WorkLocal[32] == 203*) GOTO 0x0C5B
 83: 0x0C35 [0x02] IF !(ExtData[1]->WorkLocal[25] == 4*) GOTO 0x0C4C
 84: 0x0C3D [0x47] UPDATE_PLAYER_POS(553.205*, 589.633*, -0.021*, yaw=124.4°*)
 85: 0x0C47 [0x47] WAIT_PLAYER_POS_UPDATE
 86: 0x0C49 [0x01] GOTO 0x0C58
 87: 0x0C4C [0x47] UPDATE_PLAYER_POS(-618.763*, -644.178*, -25.805*, yaw=329.8°*)
 88: 0x0C56 [0x47] WAIT_PLAYER_POS_UPDATE

SUBROUTINE_0C58:
 89: 0x0C58 [0x01] GOTO 0x0C95
 90: 0x0C5B [0x02] IF !(ExtData[1]->WorkLocal[32] == 211*) GOTO 0x0C89
 91: 0x0C63 [0x02] IF !(ExtData[1]->WorkLocal[25] == 3*) GOTO 0x0C7A
 92: 0x0C6B [0x47] UPDATE_PLAYER_POS(569.224*, 548.462*, 36.837*, yaw=59.1°*)
 93: 0x0C75 [0x47] WAIT_PLAYER_POS_UPDATE
 94: 0x0C77 [0x01] GOTO 0x0C86
 95: 0x0C7A [0x47] UPDATE_PLAYER_POS(-618.763*, -644.178*, -25.805*, yaw=329.8°*)
 96: 0x0C84 [0x47] WAIT_PLAYER_POS_UPDATE

SUBROUTINE_0C86:
 97: 0x0C86 [0x01] GOTO 0x0C95
 98: 0x0C89 [0x47] UPDATE_PLAYER_POS(-618.763*, -644.178*, -25.805*, yaw=329.8°*)
 99: 0x0C93 [0x47] WAIT_PLAYER_POS_UPDATE

SUBROUTINE_0C95:
100: 0x0C95 [0x38] SET_CLIENT_EVENT_MODE(mode=19*)
101: 0x0C98 [0x02] IF !(ExtData[1]->WorkLocal[23] == 2*) GOTO 0x0CA3
102: 0x0CA0 [0x01] GOTO 0x0CBE
103: 0x0CA3 [0x02] IF !(ExtData[1]->WorkLocal[23] == 1*) GOTO 0x0D6E
104: 0x0CAB [0x1C] WAIT(15* ticks)
105: 0x0CAE [0x24] CREATE_DIALOG(message_id=7566*, default_option=1*, option_flags=0*)
    → "Skip the event? [Yes./No.]"
106: 0x0CB5 [0x25] WAIT_DIALOG_SELECT()
107: 0x0CB6 [0x02] IF !(Work_Zone[0] == 0*) GOTO 0x0D6E

SUBROUTINE_0CBE:
108: 0x0CBE [0x02] IF !(ExtData[1]->WorkLocal[32] == 180*) GOTO 0x0D2A
109: 0x0CC6 [0x02] IF !(ExtData[1]->WorkLocal[33] == 0*) GOTO 0x0CD8
110: 0x0CCE [0x36] SET_ENTITY_EVENT_POSITION(pos_x=-618.329*, pos_z=-643.868*, pos_y=-25.805*)
111: 0x0CD5 [0x01] GOTO 0x0D27
112: 0x0CD8 [0x02] IF !(ExtData[1]->WorkLocal[33] == 1*) GOTO 0x0CEA
113: 0x0CE0 [0x36] SET_ENTITY_EVENT_POSITION(pos_x=-332.163*, pos_z=-441.914*, pos_y=-95.055*)
114: 0x0CE7 [0x01] GOTO 0x0D27
115: 0x0CEA [0x02] IF !(ExtData[1]->WorkLocal[33] == 2*) GOTO 0x0CFC
116: 0x0CF2 [0x36] SET_ENTITY_EVENT_POSITION(pos_x=-12.464*, pos_z=-648.377*, pos_y=-194.629*)
117: 0x0CF9 [0x01] GOTO 0x0D27
118: 0x0CFC [0x02] IF !(ExtData[1]->WorkLocal[33] == 3*) GOTO 0x0D0E
119: 0x0D04 [0x36] SET_ENTITY_EVENT_POSITION(pos_x=323.381*, pos_z=-443.793*, pos_y=-108.440*)
120: 0x0D0B [0x01] GOTO 0x0D27
121: 0x0D0E [0x02] IF !(ExtData[1]->WorkLocal[33] == 4*) GOTO 0x0D20
122: 0x0D16 [0x36] SET_ENTITY_EVENT_POSITION(pos_x=599.907*, pos_z=-676.969*, pos_y=-22.473*)
123: 0x0D1D [0x01] GOTO 0x0D27
124: 0x0D20 [0x36] SET_ENTITY_EVENT_POSITION(pos_x=-618.763*, pos_z=-644.178*, pos_y=-25.805*)

SUBROUTINE_0D27:
125: 0x0D27 [0x01] GOTO 0x0D33
126: 0x0D2A [0x37] UPDATE_EVENT_POSITION_AND_DIR: x=-618.763*, z=-644.178*, y=-25.805*, direction=329.8°*

SUBROUTINE_0D33:
127: 0x0D33 [0x80] LOAD_WAIT(entity=LocalPlayer)
128: 0x0D38 [0x62] LOAD_EVENT_SCHEDULER: Load scheduler "main" with entities [LocalPlayer, LocalPlayer], work=[2*, 0*]
129: 0x0D49 [0x45] LOAD_SCHEDULED_TASK: Load scheduler "fdi2" with entities [LocalPlayer, LocalPlayer], work=[200*, 0*]
130: 0x0D5A [0x46] CAMERA_CONTROL: Query status
131: 0x0D5C [0x12] 0x0200 = rand()
132: 0x0D5F [0x12] ExtData[1]->WorkLocal[0] = rand()
133: 0x0D62 [0x80] LOAD_WAIT(entity=Unknown NPC (ID: 1175283712/0x460D6800))
134: 0x0D67 [0x00] END_REQSTACK()

SUBROUTINE_0D6E:
135: 0x0D6E [0x02] IF !(ExtData[1]->WorkLocal[23] < 4294967295*) GOTO 0x0D87
136: 0x0D76 [0x5C] MUSIC_CONTROL: Set Idle (Day) music to song 196*
137: 0x0D7A [0x5C] MUSIC_CONTROL: Set Idle (Night) music to song 196*
138: 0x0D7E [0x5C] MUSIC_CONTROL: Set Combat (Solo) music to song 196*
139: 0x0D82 [0x5C] MUSIC_CONTROL: Set Combat (Party) music to song 196*
140: 0x0D86 [0x9A] WAIT_MUSIC_SERVER()
141: 0x0D87 [0x1A] CALL_SUBROUTINE(address=0x164F)
142: 0x0D8A [0x02] IF !(ExtData[1]->WorkLocal[23] >= 0*) GOTO 0x0D95
143: 0x0D92 [0x01] GOTO 0x0E35

SUBROUTINE_0D95:
144: 0x0D95 [0x02] IF !(ExtData[1]->WorkLocal[32] == 36*) GOTO 0x0DA0
145: 0x0D9D [0x01] GOTO 0x0DA0

SUBROUTINE_0DA0:
146: 0x0DA0 [0x02] IF !(ExtData[1]->WorkLocal[32] == 17*) GOTO 0x0DAB
147: 0x0DA8 [0x01] GOTO 0x0E35
148: 0x0DAB [0x02] IF !(ExtData[1]->WorkLocal[32] == 19*) GOTO 0x0DB6
149: 0x0DB3 [0x01] GOTO 0x0E35
150: 0x0DB6 [0x02] IF !(ExtData[1]->WorkLocal[32] == 21*) GOTO 0x0DC1
151: 0x0DBE [0x01] GOTO 0x0E35
152: 0x0DC1 [0x02] IF !(ExtData[1]->WorkLocal[32] == 23*) GOTO 0x0DCC
153: 0x0DC9 [0x01] GOTO 0x0E35
154: 0x0DCC [0x03] Work_Zone[5] = ExtData[1]->WorkLocal[27]
155: 0x0DD1 [0x02] IF !(Work_Zone[5] <= 0*) GOTO 0x0E35
156: 0x0DD9 [0x02] IF !(Work_Zone[5] < 60*) GOTO 0x0DF4
157: 0x0DE1 [0x3F] Work_Zone[4] = Work_Zone[5] % 60*
158: 0x0DE8 [0x15] Work_Zone[5] /= 60*
159: 0x0DED [0x48] [System] [7568*]:
    → "Battlefield clear time: $3 minute[/s], $2 second[/s]!"
160: 0x0DF0 [0x23] WAIT_FOR_DIALOG_INTERACTION
161: 0x0DF1 [0x01] GOTO 0x0DF8
162: 0x0DF4 [0x48] [System] [7567*]:
    → "Battlefield clear time: $3 second[/s]!"
163: 0x0DF7 [0x23] WAIT_FOR_DIALOG_INTERACTION

SUBROUTINE_0DF8:
164: 0x0DF8 [0x02] IF !(ExtData[1]->WorkLocal[27] > ExtData[1]->WorkLocal[26]) GOTO 0x0E0C
165: 0x0E00 [0x03] Work_Zone[7] = ExtData[1]->WorkLocal[25]
166: 0x0E05 [0x48] [System] [7601*]:
    → "You have broken the clear time record for "[Ark Angels (1)/Ark Angels (2)/Ark Angels (3)/Ark Angels (4)/Ark Angels (5)/Divine Might/$26Ark Angels (1)/$26Ark Angels (2)/$26Ark Angels (3)/$26Ark Angels (4)/$26Ark Angels (5)/$26Divine Might]"!"
167: 0x0E08 [0x23] WAIT_FOR_DIALOG_INTERACTION
168: 0x0E09 [0x01] GOTO 0x0E35
169: 0x0E0C [0x02] IF !(ExtData[1]->WorkLocal[26] < 60*) GOTO 0x0E2C
170: 0x0E14 [0x03] Work_Zone[5] = ExtData[1]->WorkLocal[26]
171: 0x0E19 [0x3F] Work_Zone[4] = Work_Zone[5] % 60*
172: 0x0E20 [0x15] Work_Zone[5] /= 60*
173: 0x0E25 [0x48] [System] [7570*]:
    → "The current battlefield clear time record is $3 minute[/s] $2 second[/s]."
174: 0x0E28 [0x23] WAIT_FOR_DIALOG_INTERACTION
175: 0x0E29 [0x01] GOTO 0x0E35
176: 0x0E2C [0x03] Work_Zone[5] = ExtData[1]->WorkLocal[26]
177: 0x0E31 [0x48] [System] [7569*]:
    → "The current battlefield clear time record is $3 second[/s]."
178: 0x0E34 [0x23] WAIT_FOR_DIALOG_INTERACTION

SUBROUTINE_0E35:
179: 0x0E35 [0x02] IF !(ExtData[1]->WorkLocal[24] == 0*) GOTO 0x0E4D
180: 0x0E3D [0x5C] MUSIC_CONTROL: Set Idle (Day) music to song 0*
181: 0x0E41 [0x5C] MUSIC_CONTROL: Set Idle (Night) music to song 0*
182: 0x0E45 [0x5C] MUSIC_CONTROL: Set Combat (Solo) music to song 196*
183: 0x0E49 [0x5C] MUSIC_CONTROL: Set Combat (Party) music to song 196*
184: 0x0E4D [0x02] IF !(ExtData[1]->WorkLocal[23] >= 0*) GOTO 0x0E76
185: 0x0E55 [0x45] LOAD_SCHEDULED_TASK: Load scheduler "fdi2" with entities [LocalPlayer, LocalPlayer], work=[200*, 0*]
186: 0x0E66 [0x5C] MUSIC_CONTROL: Set Idle (Day) music to song 0*
187: 0x0E6A [0x5C] MUSIC_CONTROL: Set Idle (Night) music to song 0*
188: 0x0E6E [0x5C] MUSIC_CONTROL: Set Combat (Solo) music to song 196*
189: 0x0E72 [0x5C] MUSIC_CONTROL: Set Combat (Party) music to song 196*
190: 0x0E76 [0x06] ExtData[1]->WorkLocal[24] = 0
191: 0x0E79 [0x45] LOAD_SCHEDULED_TASK: Load scheduler "whi1" with entities [LocalPlayer, LocalPlayer], work=[201*, 0*]
192: 0x0E8A [0x45] LOAD_SCHEDULED_TASK: Load scheduler "blof" with entities [LocalPlayer, LocalPlayer], work=[200*, 0*]
193: 0x0E9B [0x21] END_EVENT
194: 0x0E9C [0x00] END_REQSTACK()
```

#### Data or dead code:

```
# Dead code (unreachable instructions):
     0x0D68 [0x01] GOTO 0x0D95
     0x0D6B [0x01] GOTO 0x0D6E
```

### Event 32003

#### Metadata

| Field        | Value      |
|--------------|------------|
| Entrypoint   | 0x0E9D     |
| Data Size    | 4548 bytes |
| Instructions | 118        |

```
      00 01 02 03 04 05 06 07  08 09 0A 0B 0C 0D 0E 0F
      -- -- -- -- -- -- -- --  -- -- -- -- -- -- -- --
0E90:                                         06 1D 00               ...
0EA0: 06 1E 00 03 21 00 06 10  03 20 00 07 10 03 1F 00  ....!.... ......
0EB0: 08 10 06 01 10 1A 94 1B  02 1D 00 05 80 00 4E 10  ..............N.
0EC0: 42 03 01 10 09 80 43 00  43 01 03 01 10 0A 80 43  B.....C.C......C
0ED0: 00 43 01 1A AB 1B 02 1E  00 05 80 00 4E 10 45 0E  .C..........N.E.
0EE0: 80 F0 FF FF 7F F0 FF FF  7F 66 64 6F 31 00 80 55  .........fdo1..U
0EF0: 0E 80 F0 FF FF 7F F0 FF  FF 7F 66 64 6F 31 03 01  ..........fdo1..
0F00: 10 0B 80 02 20 00 3A 80  80 8D 0F 02 21 00 00 80  .... .:.....!...
0F10: 80 22 0F 47 00 3B 80 3C  80 3D 80 3E 80 47 01 01  .".G.;.<.=.>.G..
0F20: 8A 0F 02 21 00 05 80 80  39 0F 47 00 3F 80 40 80  ...!....9.G.?.@.
0F30: 41 80 42 80 47 01 01 8A  0F 02 21 00 09 80 80 50  A.B.G.....!....P
0F40: 0F 47 00 43 80 44 80 45  80 46 80 47 01 01 8A 0F  .G.C.D.E.F.G....
0F50: 02 21 00 0A 80 80 67 0F  47 00 47 80 48 80 49 80  .!....g.G.G.H.I.
0F60: 4A 80 47 01 01 8A 0F 02  21 00 0B 80 80 7E 0F 47  J.G.....!....~.G
0F70: 00 4B 80 4C 80 4D 80 4E  80 47 01 01 8A 0F 47 00  .K.L.M.N.G....G.
0F80: 3B 80 3C 80 3D 80 3E 80  47 01 01 0C 10 02 20 00  ;.<.=.>.G..... .
0F90: 18 80 80 00 10 02 1F 00  05 80 80 AC 0F 47 00 4F  .............G.O
0FA0: 80 50 80 51 80 52 80 47  01 01 FD 0F 02 1F 00 09  .P.Q.R.G........
0FB0: 80 80 C3 0F 47 00 53 80  54 80 55 80 56 80 47 01  ....G.S.T.U.V.G.
0FC0: 01 FD 0F 02 1F 00 0A 80  80 DA 0F 47 00 57 80 58  ...........G.W.X
0FD0: 80 59 80 5A 80 47 01 01  FD 0F 02 1F 00 0B 80 80  .Y.Z.G..........
0FE0: F1 0F 47 00 5B 80 5C 80  5D 80 5E 80 47 01 01 FD  ..G.[.\.].^.G...
0FF0: 0F 47 00 3B 80 3C 80 3D  80 3E 80 47 01 01 0C 10  .G.;.<.=.>.G....
1000: 47 00 3B 80 3C 80 3D 80  3E 80 47 01 38 0F 80 79  G.;.<.=.>.G.8..y
1010: 00 F0 FF FF 7F F0 FF FF  7F 1A AF 1B 45 35 80 F0  ............E5..
1020: FF FF 7F F0 FF FF 7F 77  68 69 31 00 80 45 0E 80  .......whi1..E..
1030: F0 FF FF 7F F0 FF FF 7F  62 6C 6F 66 00 80 5C 00  ........blof..\.
1040: 00 80 5C 01 00 80 5C 02  33 80 5C 03 33 80 21 00  ..\...\.3.\.3.!.
1050: 24 0C 80 05 80 00 80 25  02 00 10 00 80 00 66 10  $......%......f.
1060: 05 01 00 01 66 10 1B 1A  74 1D 46 01 79 00 F0 FF  ....f...t.F.y...
1070: FF 7F F0 FF FF 7F 37 92  80 93 80 3D 80 94 80 45  ......7....=...E
1080: 95 80 F0 FF FF 7F F0 FF  FF 7F 6B 6E 73 30 00 80  ..........kns0..
1090: 45 0E 80 F0 FF FF 7F F0  FF FF 7F 66 64 69 32 00  E..........fdi2.
10A0: 80 32 1D 80 1F 00 96 80  97 80 3D 80 1F 01 6F 4B  .2........=...oK
10B0: F0 FF FF 7F 98 80 1A 5B  1E 1A 74 1D 52 95 80 F0  .......[..t.R...
10C0: FF FF 7F F0 FF FF 7F 6B  6E 73 30 02 03 00 00 80  .......kns0.....
10D0: 80 D9 10 1A A2 11 01 73  11 02 03 00 05 80 80 E7  .......s........
10E0: 10 1A 0E 12 01 73 11 02  03 00 09 80 80 F5 10 1A  .....s..........
10F0: 7A 12 01 73 11 02 03 00  0A 80 80 03 11 1A DF 12  z..s............
1100: 01 73 11 02 03 00 0B 80  80 11 11 1A 44 13 01 73  .s..........D..s
1110: 11 02 03 00 08 80 80 1F  11 1A A9 13 01 73 11 02  .............s..
1120: 03 00 18 80 80 2D 11 1A  A2 11 01 73 11 02 03 00  .....-.....s....
1130: 1A 80 80 3B 11 1A 0E 12  01 73 11 02 03 00 10 80  ...;.....s......
1140: 80 49 11 1A 7A 12 01 73  11 02 03 00 11 80 80 57  .I..z..s.......W
1150: 11 1A DF 12 01 73 11 02  03 00 1B 80 80 65 11 1A  .....s.......e..
1160: 44 13 01 73 11 02 03 00  12 80 80 73 11 1A A9 13  D..s.......s....
1170: 01 73 11 37 99 80 9A 80  9B 80 9C 80 45 95 80 F0  .s.7........E...
1180: FF FF 7F F0 FF FF 7F 6B  6E 73 31 00 80 1A 90 1E  .......kns1.....
1190: 55 95 80 F0 FF FF 7F F0  FF FF 7F 6B 6E 73 31 46  U..........kns1F
11A0: 00 1B 29 10 43 41 0B 01  02 27 10 43 41 0B 01 03  ..).CA...'.CA...
11B0: 29 10 43 41 0B 01 0A 7C  00 43 41 0B 01 2B 43 41  ).CA...|.CA..+CA
11C0: 0B 01 9D 80 23 9F 0A 80  43 41 0B 01 43 41 0B 01  ....#...CA..CA..
11D0: 6D 61 69 6E 00 80 1C 9E  80 45 95 80 F0 FF FF 7F  main.....E......
11E0: F0 FF FF 7F 68 6D 30 31  00 80 45 0E 80 F0 FF FF  ....hm01..E.....
11F0: 7F F0 FF FF 7F 66 64 69  32 00 80 55 95 80 F0 FF  .....fdi2..U....
1200: FF 7F F0 FF FF 7F 68 6D  30 31 1A B6 1D 1B 29 10  ......hm01....).
1210: 45 41 0B 01 02 27 10 45  41 0B 01 03 29 10 45 41  EA...'.EA...).EA
1220: 0B 01 0A 7C 00 45 41 0B  01 2B 45 41 0B 01 9F 80  ...|.EA..+EA....
1230: 23 9F 0B 80 45 41 0B 01  45 41 0B 01 6D 61 69 6E  #...EA..EA..main
1240: 00 80 1C 2A 80 45 95 80  F0 FF FF 7F F0 FF FF 7F  ...*.E..........
1250: 74 72 30 31 00 80 45 0E  80 F0 FF FF 7F F0 FF FF  tr01..E.........
1260: 7F 66 64 69 32 00 80 55  95 80 F0 FF FF 7F F0 FF  .fdi2..U........
1270: FF 7F 74 72 30 31 1A B6  1D 1B 29 10 46 41 0B 01  ..tr01....).FA..
1280: 04 29 10 46 41 0B 01 0A  7C 00 46 41 0B 01 2B 46  .).FA...|.FA..+F
1290: 41 0B 01 A0 80 23 9F 08  80 46 41 0B 01 46 41 0B  A....#...FA..FA.
12A0: 01 6D 61 69 6E 00 80 1C  01 80 45 95 80 F0 FF FF  .main.....E.....
12B0: 7F F0 FF FF 7F 6D 74 30  31 00 80 45 0E 80 F0 FF  .....mt01..E....
12C0: FF 7F F0 FF FF 7F 66 64  69 32 00 80 55 95 80 F0  ......fdi2..U...
12D0: FF FF 7F F0 FF FF 7F 6D  74 30 31 1A B6 1D 1B 29  .......mt01....)
12E0: 10 44 41 0B 01 04 29 10  44 41 0B 01 0A 7C 00 44  .DA...).DA...|.D
12F0: 41 0B 01 2B 44 41 0B 01  A1 80 23 9F 09 80 44 41  A..+DA....#...DA
1300: 0B 01 44 41 0B 01 6D 61  69 6E 00 80 1C 0A 80 45  ..DA..main.....E
1310: 95 80 F0 FF FF 7F F0 FF  FF 7F 65 6C 30 31 00 80  ..........el01..
1320: 45 0E 80 F0 FF FF 7F F0  FF FF 7F 66 64 69 32 00  E..........fdi2.
1330: 80 55 95 80 F0 FF FF 7F  F0 FF FF 7F 65 6C 30 31  .U..........el01
1340: 1A B6 1D 1B 29 10 47 41  0B 01 04 29 10 47 41 0B  ....).GA...).GA.
1350: 01 0A 7C 00 47 41 0B 01  2B 47 41 0B 01 A2 80 23  ..|.GA..+GA....#
1360: 9F 05 80 47 41 0B 01 47  41 0B 01 6D 61 69 6E 00  ...GA..GA..main.
1370: 80 1C 0A 80 45 95 80 F0  FF FF 7F F0 FF FF 7F 67  ....E..........g
1380: 6C 30 31 00 80 45 0E 80  F0 FF FF 7F F0 FF FF 7F  l01..E..........
1390: 66 64 69 32 00 80 55 95  80 F0 FF FF 7F F0 FF FF  fdi2..U.........
13A0: 7F 67 6C 30 31 1A B6 1D  1B 29 10 43 41 0B 01 02  .gl01....).CA...
13B0: 27 10 43 41 0B 01 03 29  10 43 41 0B 01 0A 7C 00  '.CA...).CA...|.
13C0: 43 41 0B 01 2B 43 41 0B  01 A3 80 9F 0A 80 43 41  CA..+CA.......CA
13D0: 0B 01 43 41 0B 01 6D 61  69 6E 00 80 1C 9E 80 45  ..CA..main.....E
13E0: 95 80 F0 FF FF 7F F0 FF  FF 7F 68 6D 30 31 00 80  ..........hm01..
13F0: 45 0E 80 F0 FF FF 7F F0  FF FF 7F 66 64 69 32 00  E..........fdi2.
1400: 80 55 95 80 F0 FF FF 7F  F0 FF FF 7F 68 6D 30 31  .U..........hm01
1410: 1A 74 1D 6C 43 41 0B 01  00 80 05 80 29 10 45 41  .t.lCA......).EA
1420: 0B 01 02 27 10 45 41 0B  01 03 29 10 45 41 0B 01  ...'.EA...).EA..
1430: 0A 7C 00 45 41 0B 01 2B  45 41 0B 01 A4 80 9F 0B  .|.EA..+EA......
1440: 80 45 41 0B 01 45 41 0B  01 6D 61 69 6E 00 80 1C  .EA..EA..main...
1450: 2A 80 45 95 80 F0 FF FF  7F F0 FF FF 7F 74 72 30  *.E..........tr0
1460: 31 00 80 45 0E 80 F0 FF  FF 7F F0 FF FF 7F 66 64  1..E..........fd
1470: 69 32 00 80 55 95 80 F0  FF FF 7F F0 FF FF 7F 74  i2..U..........t
1480: 72 30 31 1A 74 1D 6C 45  41 0B 01 00 80 05 80 29  r01.t.lEA......)
1490: 10 46 41 0B 01 04 29 10  46 41 0B 01 0A 7C 00 46  .FA...).FA...|.F
14A0: 41 0B 01 2B 46 41 0B 01  A5 80 9F 08 80 46 41 0B  A..+FA.......FA.
14B0: 01 46 41 0B 01 6D 61 69  6E 00 80 1C 01 80 45 95  .FA..main.....E.
14C0: 80 F0 FF FF 7F F0 FF FF  7F 6D 74 30 31 00 80 45  .........mt01..E
14D0: 0E 80 F0 FF FF 7F F0 FF  FF 7F 66 64 69 32 00 80  ..........fdi2..
14E0: 55 95 80 F0 FF FF 7F F0  FF FF 7F 6D 74 30 31 1A  U..........mt01.
14F0: 74 1D 6C 46 41 0B 01 00  80 05 80 29 10 44 41 0B  t.lFA......).DA.
1500: 01 04 29 10 44 41 0B 01  0A 7C 00 44 41 0B 01 2B  ..).DA...|.DA..+
1510: 44 41 0B 01 A6 80 9F 09  80 44 41 0B 01 44 41 0B  DA.......DA..DA.
1520: 01 6D 61 69 6E 00 80 1C  0A 80 45 95 80 F0 FF FF  .main.....E.....
1530: 7F F0 FF FF 7F 65 6C 30  31 00 80 45 0E 80 F0 FF  .....el01..E....
1540: FF 7F F0 FF FF 7F 66 64  69 32 00 80 55 95 80 F0  ......fdi2..U...
1550: FF FF 7F F0 FF FF 7F 65  6C 30 31 1A 74 1D 6C 44  .......el01.t.lD
1560: 41 0B 01 00 80 05 80 29  10 47 41 0B 01 04 29 10  A......).GA...).
1570: 47 41 0B 01 0A 7C 00 47  41 0B 01 2B 47 41 0B 01  GA...|.GA..+GA..
1580: A7 80 9F 05 80 47 41 0B  01 47 41 0B 01 6D 61 69  .....GA..GA..mai
1590: 6E 00 80 1C 0A 80 45 95  80 F0 FF FF 7F F0 FF FF  n.....E.........
15A0: 7F 67 6C 30 31 00 80 45  0E 80 F0 FF FF 7F F0 FF  .gl01..E........
15B0: FF 7F 66 64 69 32 00 80  55 95 80 F0 FF FF 7F F0  ..fdi2..U.......
15C0: FF FF 7F 67 6C 30 31 1A  74 1D 6C 43 41 0B 01 60  ...gl01.t.lCA..`
15D0: 80 05 80 6C 45 41 0B 01  60 80 05 80 6C 46 41 0B  ...lEA..`...lFA.
15E0: 01 60 80 05 80 6C 44 41  0B 01 60 80 05 80 29 10  .`...lDA..`...).
15F0: 43 41 0B 01 0B 29 10 45  41 0B 01 0B 29 10 46 41  CA...).EA...).FA
1600: 0B 01 0B 29 10 44 41 0B  01 0B 29 10 47 41 0B 01  ...).DA...).GA..
1610: 0B 45 95 80 F0 FF FF 7F  F0 FF FF 7F 6B 6E 61 6C  .E..........knal
1620: 00 80 45 0E 80 F0 FF FF  7F F0 FF FF 7F 66 64 69  ..E..........fdi
1630: 32 00 80 55 95 80 F0 FF  FF 7F F0 FF FF 7F 6B 6E  2..U..........kn
1640: 61 6C 1A F8 1D 1C 9E 80  1A 74 1D 1A D7 1D 1B 1A  al.......t......
1650: 74 1D 46 01 02 19 00 00  80 80 62 16 1A BC 16 01  t.F.......b.....
1660: A8 16 02 19 00 05 80 80  70 16 1A 10 17 01 A8 16  ........p.......
1670: 02 19 00 09 80 80 7E 16  1A 64 17 01 A8 16 02 19  ......~..d......
1680: 00 0A 80 80 8C 16 1A C6  17 01 A8 16 02 19 00 0B  ................
1690: 80 80 9A 16 1A 1A 18 01  A8 16 02 19 00 08 80 80  ................
16A0: A8 16 1A 6E 18 01 A8 16  45 0E 80 F0 FF FF 7F F0  ...n....E.......
16B0: FF FF 7F 66 64 69 32 00  80 46 00 1B 37 A8 80 A9  ...fdi2..F..7...
16C0: 80 AA 80 AB 80 29 10 43  41 0B 01 04 29 10 43 41  .....).CA...).CA
16D0: 0B 01 0A 80 43 41 0B 01  1A A6 1A 9F 10 80 43 41  ....CA........CA
16E0: 0B 01 43 41 0B 01 6D 61  69 6E 00 80 45 95 80 F0  ..CA..main..E...
16F0: FF FF 7F F0 FF FF 7F 68  6D 64 31 00 80 55 95 80  .......hmd1..U..
1700: F0 FF FF 7F F0 FF FF 7F  68 6D 64 31 1A E9 1A 1B  ........hmd1....
1710: 37 A8 80 A9 80 AA 80 AB  80 29 10 45 41 0B 01 04  7........).EA...
1720: 29 10 45 41 0B 01 0A 80  45 41 0B 01 1A A6 1A 9F  ).EA....EA......
1730: 11 80 45 41 0B 01 45 41  0B 01 6D 61 69 6E 00 80  ..EA..EA..main..
1740: 45 95 80 F0 FF FF 7F F0  FF FF 7F 74 72 64 31 00  E..........trd1.
1750: 80 55 95 80 F0 FF FF 7F  F0 FF FF 7F 74 72 64 31  .U..........trd1
1760: 1A E9 1A 1B 37 A8 80 A9  80 AA 80 AB 80 29 10 46  ....7........).F
1770: 41 0B 01 04 29 10 46 41  0B 01 0A 80 46 41 0B 01  A...).FA....FA..
1780: 45 0E 80 F0 FF FF 7F F0  FF FF 7F 66 64 69 32 00  E..........fdi2.
1790: 80 9F 1B 80 46 41 0B 01  46 41 0B 01 6D 61 69 6E  ....FA..FA..main
17A0: 00 80 45 95 80 F0 FF FF  7F F0 FF FF 7F 6D 74 64  ..E..........mtd
17B0: 31 00 80 55 95 80 F0 FF  FF 7F F0 FF FF 7F 6D 74  1..U..........mt
17C0: 64 31 1A E9 1A 1B 37 A8  80 A9 80 AA 80 AB 80 29  d1....7........)
17D0: 10 44 41 0B 01 04 29 10  44 41 0B 01 0A 80 44 41  .DA...).DA....DA
17E0: 0B 01 1A A6 1A 9F 1A 80  44 41 0B 01 44 41 0B 01  ........DA..DA..
17F0: 6D 61 69 6E 00 80 45 95  80 F0 FF FF 7F F0 FF FF  main..E.........
1800: 7F 65 6C 64 31 00 80 55  95 80 F0 FF FF 7F F0 FF  .eld1..U........
1810: FF 7F 65 6C 64 31 1A E9  1A 1B 37 A8 80 A9 80 AA  ..eld1....7.....
1820: 80 AB 80 29 10 47 41 0B  01 04 29 10 47 41 0B 01  ...).GA...).GA..
1830: 0A 80 47 41 0B 01 1A A6  1A 9F 18 80 47 41 0B 01  ..GA........GA..
1840: 47 41 0B 01 6D 61 69 6E  00 80 45 95 80 F0 FF FF  GA..main..E.....
1850: 7F F0 FF FF 7F 67 6C 64  31 00 80 55 95 80 F0 FF  .....gld1..U....
1860: FF 7F F0 FF FF 7F 67 6C  64 31 1A E9 1A 1B 37 A8  ......gld1....7.
1870: 80 A9 80 AA 80 AB 80 29  10 43 41 0B 01 04 29 10  .......).CA...).
1880: 43 41 0B 01 0A 80 43 41  0B 01 45 0E 80 F0 FF FF  CA....CA..E.....
1890: 7F F0 FF FF 7F 66 64 69  32 00 80 9F 10 80 43 41  .....fdi2.....CA
18A0: 0B 01 43 41 0B 01 6D 61  69 6E 00 80 45 95 80 F0  ..CA..main..E...
18B0: FF FF 7F F0 FF FF 7F 68  6D 64 31 00 80 55 95 80  .......hmd1..U..
18C0: F0 FF FF 7F F0 FF FF 7F  68 6D 64 31 1A 74 1D 29  ........hmd1.t.)
18D0: 10 43 41 0B 01 05 29 10  45 41 0B 01 04 29 10 45  .CA...).EA...).E
18E0: 41 0B 01 0A 80 45 41 0B  01 45 0E 80 F0 FF FF 7F  A....EA..E......
18F0: F0 FF FF 7F 66 64 69 32  00 80 9F 11 80 45 41 0B  ....fdi2.....EA.
1900: 01 45 41 0B 01 6D 61 69  6E 00 80 45 95 80 F0 FF  .EA..main..E....
1910: FF 7F F0 FF FF 7F 74 72  64 31 00 80 55 95 80 F0  ......trd1..U...
1920: FF FF 7F F0 FF FF 7F 74  72 64 31 1A 74 1D 29 10  .......trd1.t.).
1930: 45 41 0B 01 05 29 10 46  41 0B 01 04 29 10 46 41  EA...).FA...).FA
1940: 0B 01 0A 45 0E 80 F0 FF  FF 7F F0 FF FF 7F 66 64  ...E..........fd
1950: 69 32 00 80 9F 1B 80 46  41 0B 01 46 41 0B 01 6D  i2.....FA..FA..m
1960: 61 69 6E 00 80 45 95 80  F0 FF FF 7F F0 FF FF 7F  ain..E..........
1970: 6D 74 64 31 00 80 55 95  80 F0 FF FF 7F F0 FF FF  mtd1..U.........
1980: 7F 6D 74 64 31 1A 74 1D  29 10 46 41 0B 01 05 29  .mtd1.t.).FA...)
1990: 10 44 41 0B 01 04 29 10  44 41 0B 01 0A 80 44 41  .DA...).DA....DA
19A0: 0B 01 45 0E 80 F0 FF FF  7F F0 FF FF 7F 66 64 69  ..E..........fdi
19B0: 32 00 80 9F 1A 80 44 41  0B 01 44 41 0B 01 6D 61  2.....DA..DA..ma
19C0: 69 6E 00 80 45 95 80 F0  FF FF 7F F0 FF FF 7F 65  in..E..........e
19D0: 6C 64 31 00 80 55 95 80  F0 FF FF 7F F0 FF FF 7F  ld1..U..........
19E0: 65 6C 64 31 1A 74 1D 29  10 44 41 0B 01 05 29 10  eld1.t.).DA...).
19F0: 47 41 0B 01 04 29 10 47  41 0B 01 0A 80 47 41 0B  GA...).GA....GA.
1A00: 01 45 0E 80 F0 FF FF 7F  F0 FF FF 7F 66 64 69 32  .E..........fdi2
1A10: 00 80 9F 18 80 47 41 0B  01 47 41 0B 01 6D 61 69  .....GA..GA..mai
1A20: 6E 00 80 45 95 80 F0 FF  FF 7F F0 FF FF 7F 67 6C  n..E..........gl
1A30: 64 31 00 80 55 95 80 F0  FF FF 7F F0 FF FF 7F 67  d1..U..........g
1A40: 6C 64 31 1A B6 1D 27 10  48 41 0B 01 03 1C 2A 80  ld1...'.HA....*.
1A50: 37 AC 80 AD 80 AE 80 AF  80 45 95 80 F0 FF FF 7F  7........E......
1A60: F0 FF FF 7F 64 72 65 31  00 80 45 0E 80 F0 FF FF  ....dre1..E.....
1A70: 7F F0 FF FF 7F 66 64 69  32 00 80 32 1D 80 1F 00  .....fdi2..2....
1A80: B0 80 B1 80 AE 80 1F 01  6F 27 10 48 41 0B 01 04  ........o'.HA...
1A90: 1C 2A 80 1A B6 1D 52 95  80 F0 FF FF 7F F0 FF FF  .*....R.........
1AA0: 7F 64 72 65 31 1B 45 95  80 F0 FF FF 7F F0 FF FF  .dre1.E.........
1AB0: 7F 6B 6E 64 31 00 80 45  0E 80 F0 FF FF 7F F0 FF  .knd1..E........
1AC0: FF 7F 66 64 69 32 00 80  55 95 80 F0 FF FF 7F F0  ..fdi2..U.......
1AD0: FF FF 7F 6B 6E 64 31 45  0E 80 F0 FF FF 7F F0 FF  ...knd1E........
1AE0: FF 7F 6F 76 6C 31 00 80  1B 1A 74 1D 1C 01 80 45  ..ovl1....t....E
1AF0: 95 80 F0 FF FF 7F F0 FF  FF 7F 64 72 65 32 00 80  ..........dre2..
1B00: 1A 53 1D 1C 2A 80 27 10  48 41 0B 01 03 4A F8 FF  .S..*.'.HA...J..
1B10: FF 7F 48 41 0B 01 1C B2  80 1A B6 1D 1C 01 80 52  ..HA...........R
1B20: 95 80 F0 FF FF 7F F0 FF  FF 7F 64 72 65 32 37 AC  ..........dre27.
1B30: 80 AD 80 AE 80 AF 80 1C  05 80 45 95 80 F0 FF FF  ..........E.....
1B40: 7F F0 FF FF 7F 64 72 65  31 00 80 45 0E 80 F0 FF  .....dre1..E....
1B50: FF 7F F0 FF FF 7F 66 64  69 32 00 80 32 1D 80 1F  ......fdi2..2...
1B60: 00 B0 80 B1 80 AE 80 1F  01 6F 27 10 48 41 0B 01  .........o'.HA..
1B70: 04 1C 2A 80 4B F8 FF FF  7F B3 80 6F 76 F8 FF FF  ..*.K......ov...
1B80: 7F 1A B6 1D 52 95 80 F0  FF FF 7F F0 FF FF 7F 64  ....R..........d
1B90: 72 65 31 1B 24 B4 80 05  80 00 80 25 02 00 10 00  re1.$......%....
1BA0: 80 00 AA 1B 05 1D 00 01  AA 1B 1B 05 1E 00 1B 1A  ................
1BB0: 74 1D 46 01 37 B5 80 B6  80 9B 80 B7 80 45 95 80  t.F.7........E..
1BC0: F0 FF FF 7F F0 FF FF 7F  6B 6E 65 30 00 80 45 0E  ........kne0..E.
1BD0: 80 F0 FF FF 7F F0 FF FF  7F 66 64 69 32 00 80 32  .........fdi2..2
1BE0: 1D 80 1F 00 B8 80 B9 80  9B 80 1F 01 6F 4B F8 FF  ............oK..
1BF0: FF 7F BA 80 6F 76 F8 FF  FF 7F 1A 5B 1E 52 95 80  ....ov.....[.R..
1C00: F0 FF FF 7F F0 FF FF 7F  6B 6E 65 30 37 3B 80 3C  ........kne07;.<
1C10: 80 3D 80 3E 80 45 95 80  F0 FF FF 7F F0 FF FF 7F  .=.>.E..........
1C20: 6B 6E 65 31 00 80 1A 90  1E 55 95 80 F0 FF FF 7F  kne1.....U......
1C30: F0 FF FF 7F 6B 6E 65 31  46 00 1B 1A 74 1D 46 01  ....kne1F...t.F.
1C40: 37 3B 80 3C 80 3D 80 3E  80 45 95 80 F0 FF FF 7F  7;.<.=.>.E......
1C50: F0 FF FF 7F 6B 6E 65 31  00 80 1A 90 1E 55 95 80  ....kne1.....U..
1C60: F0 FF FF 7F F0 FF FF 7F  6B 6E 65 31 46 00 1B 02  ........kne1F...
1C70: 03 00 00 80 80 7A 1C 01  52 1D 02 03 00 18 80 80  .....z..R.......
1C80: 9E 1C 03 08 17 BB 80 03  09 17 BC 80 03 0A 17 BD  ................
1C90: 80 03 0B 17 BE 80 03 0C  17 BF 80 01 52 1D 02 03  ............R...
1CA0: 00 1A 80 80 C2 1C 03 08  17 BB 80 03 09 17 BC 80  ................
1CB0: 03 0A 17 BD 80 03 0B 17  BE 80 03 0C 17 BF 80 01  ................
1CC0: 52 1D 02 03 00 10 80 80  E6 1C 03 08 17 BB 80 03  R...............
1CD0: 09 17 BC 80 03 0A 17 BD  80 03 0B 17 BE 80 03 0C  ................
1CE0: 17 BF 80 01 52 1D 02 03  00 11 80 80 0A 1D 03 08  ....R...........
1CF0: 17 BB 80 03 09 17 BC 80  03 0A 17 BD 80 03 0B 17  ................
1D00: BE 80 03 0C 17 BF 80 01  52 1D 02 03 00 1B 80 80  ........R.......
1D10: 2E 1D 03 08 17 BB 80 03  09 17 BC 80 03 0A 17 BD  ................
1D20: 80 03 0B 17 BE 80 03 0C  17 BF 80 01 52 1D 02 03  ............R...
1D30: 00 12 80 80 52 1D 03 08  17 BB 80 03 09 17 BC 80  ....R...........
1D40: 03 0A 17 BD 80 03 0B 17  BE 80 03 0C 17 BF 80 01  ................
1D50: 52 1D 1B 45 0E 80 F0 FF  FF 7F F0 FF FF 7F 66 64  R..E..........fd
1D60: 69 30 00 80 55 0E 80 F0  FF FF 7F F0 FF FF 7F 66  i0..U..........f
1D70: 64 69 30 1B 45 0E 80 F0  FF FF 7F F0 FF FF 7F 66  di0.E..........f
1D80: 64 6F 30 00 80 55 0E 80  F0 FF FF 7F F0 FF FF 7F  do0..U..........
1D90: 66 64 6F 30 1B 45 0E 80  F0 FF FF 7F F0 FF FF 7F  fdo0.E..........
1DA0: 66 64 69 31 00 80 55 0E  80 F0 FF FF 7F F0 FF FF  fdi1..U.........
1DB0: 7F 66 64 69 31 1B 45 0E  80 F0 FF FF 7F F0 FF FF  .fdi1.E.........
1DC0: 7F 66 64 6F 31 00 80 55  0E 80 F0 FF FF 7F F0 FF  .fdo1..U........
1DD0: FF 7F 66 64 6F 31 1B 45  35 80 F0 FF FF 7F F0 FF  ..fdo1.E5.......
1DE0: FF 7F 77 68 69 31 00 80  55 35 80 F0 FF FF 7F F0  ..whi1..U5......
1DF0: FF FF 7F 77 68 69 31 1B  45 35 80 F0 FF FF 7F F0  ...whi1.E5......
1E00: FF FF 7F 77 68 6F 31 00  80 55 35 80 F0 FF FF 7F  ...who1..U5.....
1E10: F0 FF FF 7F 77 68 6F 31  1B 45 35 80 F0 FF FF 7F  ....who1.E5.....
1E20: F0 FF FF 7F 77 68 6F 32  00 80 55 35 80 F0 FF FF  ....who2..U5....
1E30: 7F F0 FF FF 7F 77 68 6F  32 1B 45 35 80 F0 FF FF  .....who2.E5....
1E40: 7F F0 FF FF 7F 77 68 6F  33 00 80 55 35 80 F0 FF  .....who3..U5...
1E50: FF 7F F0 FF FF 7F 77 68  6F 33 1B 62 05 80 F0 FF  ......who3.b....
1E60: FF 7F F0 FF FF 7F 6D 61  69 6E 00 80 1C 9E 80 45  ......main.....E
1E70: 0E 80 F0 FF FF 7F F0 FF  FF 7F 66 64 6F 31 00 80  ..........fdo1..
1E80: 55 0E 80 F0 FF FF 7F F0  FF FF 7F 66 64 6F 31 1B  U..........fdo1.
1E90: 45 0E 80 F0 FF FF 7F F0  FF FF 7F 66 64 69 31 00  E..........fdi1.
1EA0: 80 62 09 80 F0 FF FF 7F  F0 FF FF 7F 6D 61 69 6E  .b..........main
1EB0: 00 80 1C 2A 80 55 0E 80  F0 FF FF 7F F0 FF FF 7F  ...*.U..........
1EC0: 66 64 69 31 1B 45 0E 80  F0 FF FF 7F F0 FF FF 7F  fdi1.E..........
1ED0: 62 6C 6F 6E 00 80 45 35  80 F0 FF FF 7F F0 FF FF  blon..E5........
1EE0: 7F 62 6C 6F 6E 00 80 1B  45 35 80 F0 FF FF 7F F0  .blon...E5......
1EF0: FF FF 7F 77 68 69 30 00  80 55 35 80 F0 FF FF 7F  ...whi0..U5.....
1F00: F0 FF FF 7F 77 68 69 30  1B 45 35 80 F0 FF FF 7F  ....whi0.E5.....
1F10: F0 FF FF 7F 77 68 6F 30  00 80 55 35 80 F0 FF FF  ....who0..U5....
1F20: 7F F0 FF FF 7F 77 68 6F  30 1B 45 C0 80 F0 FF FF  .....who0.E.....
1F30: 7F F0 FF FF 7F 65 66 6F  6E 00 80 55 C0 80 F0 FF  .....efon..U....
1F40: FF 7F F0 FF FF 7F 65 66  6F 6E 1B 45 0E 80 F0 FF  ......efon.E....
1F50: FF 7F F0 FF FF 7F 66 64  69 73 00 80 1B 45 0E 80  ......fdis...E..
1F60: F0 FF FF 7F F0 FF FF 7F  66 64 6F 73 00 80 55 0E  ........fdos..U.
1F70: 80 F0 FF FF 7F F0 FF FF  7F 66 64 6F 73 1B 45 0E  .........fdos.E.
1F80: 80 F0 FF FF 7F F0 FF FF  7F 66 64 69 66 00 80 1B  .........fdif...
1F90: 45 0E 80 F0 FF FF 7F F0  FF FF 7F 66 64 6F 66 00  E..........fdof.
1FA0: 80 55 0E 80 F0 FF FF 7F  F0 FF FF 7F 66 64 6F 66  .U..........fdof
1FB0: 1B 45 0E 80 F0 FF FF 7F  F0 FF FF 7F 66 64 69 70  .E..........fdip
1FC0: 00 80 1B 45 0E 80 F0 FF  FF 7F F0 FF FF 7F 66 64  ...E..........fd
1FD0: 6F 70 00 80 55 0E 80 F0  FF FF 7F F0 FF FF 7F 66  op..U..........f
1FE0: 64 6F 70 1B 02 00 00 05  80 80 03 20 03 09 00 99  dop........ ....
1FF0: 80 03 0A 00 9A 80 03 0B  00 9B 80 03 0C 00 9C 80  ................
2000: 01 60 20 02 00 00 09 80  80 22 20 03 09 00 C1 80  .` ......" .....
2010: 03 0A 00 C2 80 03 0B 00  C3 80 03 0C 00 C4 80 01  ................
2020: 60 20 02 00 00 0A 80 80  41 20 03 09 00 C5 80 03  ` ......A ......
2030: 0A 00 C6 80 03 0B 00 C7  80 03 0C 00 C8 80 01 60  ...............`
2040: 20 02 00 00 0B 80 80 60  20 03 09 00 00 80 03 0A   ......` .......
2050: 00 00 80 03 0B 00 00 80  03 0C 00 00 80 01 60 20  ..............` 
2060: 1B                                                .               
```

#### Opcodes

```
  0: 0x0E9D [0x06] ExtData[1]->WorkLocal[29] = 0
  1: 0x0EA0 [0x06] ExtData[1]->WorkLocal[30] = 0
  2: 0x0EA3 [0x03] ExtData[1]->WorkLocal[33] = Work_Zone[6]
  3: 0x0EA8 [0x03] ExtData[1]->WorkLocal[32] = Work_Zone[7]
  4: 0x0EAD [0x03] ExtData[1]->WorkLocal[31] = Work_Zone[8]
  5: 0x0EB2 [0x06] Work_Zone[1] = 0
  6: 0x0EB5 [0x1A] CALL_SUBROUTINE(address=0x1B94)
  7: 0x0EB8 [0x02] IF !(ExtData[1]->WorkLocal[29] == 1*) GOTO 0x104E
  8: 0x0EC0 [0x42] SET_CLI_EVENT_CANCEL_DATA()
  9: 0x0EC1 [0x03] Work_Zone[1] = 2*
 10: 0x0EC6 [0x43] SEND_EVENT_UPDATE: Send pending tag to server (packet 0x005B)
 11: 0x0EC8 [0x43] SEND_EVENT_UPDATE: Check pending flag (skip if not pending)
 12: 0x0ECA [0x03] Work_Zone[1] = 3*
 13: 0x0ECF [0x43] SEND_EVENT_UPDATE: Send pending tag to server (packet 0x005B)
 14: 0x0ED1 [0x43] SEND_EVENT_UPDATE: Check pending flag (skip if not pending)
 15: 0x0ED3 [0x1A] CALL_SUBROUTINE(address=0x1BAB)
 16: 0x0ED6 [0x02] IF !(ExtData[1]->WorkLocal[30] == 1*) GOTO 0x104E
 17: 0x0EDE [0x45] LOAD_SCHEDULED_TASK: Load scheduler "fdo1" with entities [LocalPlayer, LocalPlayer], work=[200*, 0*]
 18: 0x0EEF [0x55] WAIT_LOAD_SCHEDULER: Wait for scheduler "fdo1" with entities [LocalPlayer, LocalPlayer], work=200*
 19: 0x0EFE [0x03] Work_Zone[1] = 4*
 20: 0x0F03 [0x02] IF !(ExtData[1]->WorkLocal[32] == 180*) GOTO 0x0F8D
 21: 0x0F0B [0x02] IF !(ExtData[1]->WorkLocal[33] == 0*) GOTO 0x0F22
 22: 0x0F13 [0x47] UPDATE_PLAYER_POS(-605.141*, 479.929*, -22.681*, yaw=87.2°*)
 23: 0x0F1D [0x47] WAIT_PLAYER_POS_UPDATE
 24: 0x0F1F [0x01] GOTO 0x0F8A
 25: 0x0F22 [0x02] IF !(ExtData[1]->WorkLocal[33] == 1*) GOTO 0x0F39
 26: 0x0F2A [0x47] UPDATE_PLAYER_POS(-262.589*, 377.857*, -137.313*, yaw=305.3°*)
 27: 0x0F34 [0x47] WAIT_PLAYER_POS_UPDATE
 28: 0x0F36 [0x01] GOTO 0x0F8A
 29: 0x0F39 [0x02] IF !(ExtData[1]->WorkLocal[33] == 2*) GOTO 0x0F50
 30: 0x0F41 [0x47] UPDATE_PLAYER_POS(18.348*, 486.940*, -224.334*, yaw=17.1°*)
 31: 0x0F4B [0x47] WAIT_PLAYER_POS_UPDATE
 32: 0x0F4D [0x01] GOTO 0x0F8A
 33: 0x0F50 [0x02] IF !(ExtData[1]->WorkLocal[33] == 3*) GOTO 0x0F67
 34: 0x0F58 [0x47] UPDATE_PLAYER_POS(231.593*, 360.094*, -173.572*, yaw=160.8°*)
 35: 0x0F62 [0x47] WAIT_PLAYER_POS_UPDATE
 36: 0x0F64 [0x01] GOTO 0x0F8A
 37: 0x0F67 [0x02] IF !(ExtData[1]->WorkLocal[33] == 4*) GOTO 0x0F7E
 38: 0x0F6F [0x47] UPDATE_PLAYER_POS(553.664*, 523.939*, -38.205*, yaw=233.9°*)
 39: 0x0F79 [0x47] WAIT_PLAYER_POS_UPDATE
 40: 0x0F7B [0x01] GOTO 0x0F8A
 41: 0x0F7E [0x47] UPDATE_PLAYER_POS(-605.141*, 479.929*, -22.681*, yaw=87.2°*)
 42: 0x0F88 [0x47] WAIT_PLAYER_POS_UPDATE

SUBROUTINE_0F8A:
 43: 0x0F8A [0x01] GOTO 0x100C
 44: 0x0F8D [0x02] IF !(ExtData[1]->WorkLocal[32] == 6*) GOTO 0x1000
 45: 0x0F95 [0x02] IF !(ExtData[1]->WorkLocal[31] == 1*) GOTO 0x0FAC
 46: 0x0F9D [0x47] UPDATE_PLAYER_POS(-875.117*, -43.892*, -48.084*, yaw=45.1°*)
 47: 0x0FA7 [0x47] WAIT_PLAYER_POS_UPDATE
 48: 0x0FA9 [0x01] GOTO 0x0FFD
 49: 0x0FAC [0x02] IF !(ExtData[1]->WorkLocal[31] == 2*) GOTO 0x0FC3
 50: 0x0FB4 [0x47] UPDATE_PLAYER_POS(-755.499*, 563.947*, -112.035*, yaw=313.5°*)
 51: 0x0FBE [0x47] WAIT_PLAYER_POS_UPDATE
 52: 0x0FC0 [0x01] GOTO 0x0FFD
 53: 0x0FC3 [0x02] IF !(ExtData[1]->WorkLocal[31] == 3*) GOTO 0x0FDA
 54: 0x0FCB [0x47] UPDATE_PLAYER_POS(123.251*, 754.209*, -172.124*, yaw=38.7°*)
 55: 0x0FD5 [0x47] WAIT_PLAYER_POS_UPDATE
 56: 0x0FD7 [0x01] GOTO 0x0FFD
 57: 0x0FDA [0x02] IF !(ExtData[1]->WorkLocal[31] == 4*) GOTO 0x0FF1
 58: 0x0FE2 [0x47] UPDATE_PLAYER_POS(-516.404*, -803.323*, 24.206*, yaw=38.4°*)
 59: 0x0FEC [0x47] WAIT_PLAYER_POS_UPDATE
 60: 0x0FEE [0x01] GOTO 0x0FFD
 61: 0x0FF1 [0x47] UPDATE_PLAYER_POS(-605.141*, 479.929*, -22.681*, yaw=87.2°*)
 62: 0x0FFB [0x47] WAIT_PLAYER_POS_UPDATE

SUBROUTINE_0FFD:
 63: 0x0FFD [0x01] GOTO 0x100C
 64: 0x1000 [0x47] UPDATE_PLAYER_POS(-605.141*, 479.929*, -22.681*, yaw=87.2°*)
 65: 0x100A [0x47] WAIT_PLAYER_POS_UPDATE

SUBROUTINE_100C:
 66: 0x100C [0x38] SET_CLIENT_EVENT_MODE(mode=19*)
 67: 0x100F [0x79] LocalPlayer looks at LocalPlayer (Basic look)
 68: 0x1019 [0x1A] CALL_SUBROUTINE(address=0x1BAF)
 69: 0x101C [0x45] LOAD_SCHEDULED_TASK: Load scheduler "whi1" with entities [LocalPlayer, LocalPlayer], work=[201*, 0*]
 70: 0x102D [0x45] LOAD_SCHEDULED_TASK: Load scheduler "blof" with entities [LocalPlayer, LocalPlayer], work=[200*, 0*]
 71: 0x103E [0x5C] MUSIC_CONTROL: Set Idle (Day) music to song 0*
 72: 0x1042 [0x5C] MUSIC_CONTROL: Set Idle (Night) music to song 0*
 73: 0x1046 [0x5C] MUSIC_CONTROL: Set Combat (Solo) music to song 196*
 74: 0x104A [0x5C] MUSIC_CONTROL: Set Combat (Party) music to song 196*
 75: 0x104E [0x21] END_EVENT
 76: 0x104F [0x00] END_REQSTACK()

SUBROUTINE_1B94:
 77: 0x1B94 [0x24] CREATE_DIALOG(message_id=7228*, default_option=1*, option_flags=0*)
    → "Leave the battlefield? [Run away./Stay.]"
 78: 0x1B9B [0x25] WAIT_DIALOG_SELECT()
 79: 0x1B9C [0x02] IF !(Work_Zone[0] == 0*) GOTO 0x1BAA
 80: 0x1BA4 [0x05] ExtData[1]->WorkLocal[29] = 1
 81: 0x1BA7 [0x01] GOTO 0x1BAA

SUBROUTINE_1BAA:
 82: 0x1BAA [0x1B] RETURN

SUBROUTINE_1BAB:
 83: 0x1BAB [0x05] ExtData[1]->WorkLocal[30] = 1
 84: 0x1BAE [0x1B] RETURN

SUBROUTINE_1BAF:
 85: 0x1BAF [0x1A] CALL_SUBROUTINE(address=0x1D74)
 86: 0x1BB2 [0x46] CAMERA_CONTROL: Disable user control
 87: 0x1BB4 [0x37] UPDATE_EVENT_POSITION_AND_DIR: x=8.977*, z=-106.804*, y=-33.330*, direction=125.5°*
 88: 0x1BBD [0x45] LOAD_SCHEDULED_TASK: Load scheduler "kne0" with entities [LocalPlayer, LocalPlayer], work=[233*, 0*]
 89: 0x1BCE [0x45] LOAD_SCHEDULED_TASK: Load scheduler "fdi2" with entities [LocalPlayer, LocalPlayer], work=[200*, 0*]
 90: 0x1BDF [0x32] ExtData[1]->MainSpeed = 13* * 0.1
 91: 0x1BE2 [0x1F] MOVE_ENTITY: EventEntity moves to X=8.249*, Z=-108.122*, Y=-33.330*
 92: 0x1BEA [0x1F] MOVE_ENTITY: Update entity position (mode=1)
 93: 0x1BEC [0x6F] WAIT_FRAME_DELAY: Yield until WaitTime reaches zero
 94: 0x1BED [0x4B] UPDATE_ENTITY_YAW(entity=EventEntity, yaw=18.7°*)
 95: 0x1BF4 [0x6F] WAIT_FRAME_DELAY: Yield until WaitTime reaches zero
 96: 0x1BF5 [0x76] CHECK_ENTITY_RENDER_FLAGS: Wait until EventEntity Render.Flags0 and Render.Flags3 conditions are met
 97: 0x1BFA [0x1A] CALL_SUBROUTINE(address=0x1E5B)
 98: 0x1BFD [0x52] END_LOAD_SCHEDULER: End scheduler "kne0" with entities [LocalPlayer, LocalPlayer], work=233*
 99: 0x1C0C [0x37] UPDATE_EVENT_POSITION_AND_DIR: x=-605.141*, z=479.929*, y=-22.681*, direction=87.2°*
100: 0x1C15 [0x45] LOAD_SCHEDULED_TASK: Load scheduler "kne1" with entities [LocalPlayer, LocalPlayer], work=[233*, 0*]
101: 0x1C26 [0x1A] CALL_SUBROUTINE(address=0x1E90)
102: 0x1C29 [0x55] WAIT_LOAD_SCHEDULER: Wait for scheduler "kne1" with entities [LocalPlayer, LocalPlayer], work=233*
103: 0x1C38 [0x46] CAMERA_CONTROL: Restore default settings
104: 0x1C3A [0x1B] RETURN

SUBROUTINE_1D74:
105: 0x1D74 [0x45] LOAD_SCHEDULED_TASK: Load scheduler "fdo0" with entities [LocalPlayer, LocalPlayer], work=[200*, 0*]
106: 0x1D85 [0x55] WAIT_LOAD_SCHEDULER: Wait for scheduler "fdo0" with entities [LocalPlayer, LocalPlayer], work=200*
107: 0x1D94 [0x1B] RETURN

SUBROUTINE_1E5B:
108: 0x1E5B [0x62] LOAD_EVENT_SCHEDULER: Load scheduler "main" with entities [LocalPlayer, LocalPlayer], work=[1*, 0*]
109: 0x1E6C [0x1C] WAIT(45* ticks)
110: 0x1E6F [0x45] LOAD_SCHEDULED_TASK: Load scheduler "fdo1" with entities [LocalPlayer, LocalPlayer], work=[200*, 0*]
111: 0x1E80 [0x55] WAIT_LOAD_SCHEDULER: Wait for scheduler "fdo1" with entities [LocalPlayer, LocalPlayer], work=200*
112: 0x1E8F [0x1B] RETURN

SUBROUTINE_1E90:
113: 0x1E90 [0x45] LOAD_SCHEDULED_TASK: Load scheduler "fdi1" with entities [LocalPlayer, LocalPlayer], work=[200*, 0*]
114: 0x1EA1 [0x62] LOAD_EVENT_SCHEDULER: Load scheduler "main" with entities [LocalPlayer, LocalPlayer], work=[2*, 0*]
115: 0x1EB2 [0x1C] WAIT(30* ticks)
116: 0x1EB5 [0x55] WAIT_LOAD_SCHEDULER: Wait for scheduler "fdi1" with entities [LocalPlayer, LocalPlayer], work=200*
117: 0x1EC4 [0x1B] RETURN
```

#### Data or dead code:

```
# Dead code (unreachable instructions):
     0x1050 [0x24] CREATE_DIALOG(message_id=7227*, default_option=1*, option_flags=0*)
    → "Enter the battlefield? [Enter./Decline.]"
     0x1057 [0x25] WAIT_DIALOG_SELECT()
     0x1058 [0x02] IF !(Work_Zone[0] == 0*) GOTO 0x1066
     0x1060 [0x05] ExtData[1]->WorkLocal[1] = 1
     0x1063 [0x01] GOTO 0x1066
     0x1066 [0x1B] RETURN
     0x1067 [0x1A] CALL_SUBROUTINE(address=0x1D74)
     0x106A [0x46] CAMERA_CONTROL: Disable user control
     0x106C [0x79] LocalPlayer looks at LocalPlayer (Basic look)
     0x1076 [0x37] UPDATE_EVENT_POSITION_AND_DIR: x=-605.118*, z=481.028*, y=-22.681*, direction=270.0°*
     0x107F [0x45] LOAD_SCHEDULED_TASK: Load scheduler "kns0" with entities [LocalPlayer, LocalPlayer], work=[233*, 0*]
     0x1090 [0x45] LOAD_SCHEDULED_TASK: Load scheduler "fdi2" with entities [LocalPlayer, LocalPlayer], work=[200*, 0*]
     0x10A1 [0x32] ExtData[1]->MainSpeed = 13* * 0.1
     0x10A4 [0x1F] MOVE_ENTITY: EventEntity moves to X=-605.093*, Z=484.143*, Y=-22.681*
     0x10AC [0x1F] MOVE_ENTITY: Update entity position (mode=1)
     0x10AE [0x6F] WAIT_FRAME_DELAY: Yield until WaitTime reaches zero
     0x10AF [0x4B] UPDATE_ENTITY_YAW(entity=LocalPlayer, yaw=5.7°*)
     0x10B6 [0x1A] CALL_SUBROUTINE(address=0x1E5B)
     0x10B9 [0x1A] CALL_SUBROUTINE(address=0x1D74)
     0x10BC [0x52] END_LOAD_SCHEDULER: End scheduler "kns0" with entities [LocalPlayer, LocalPlayer], work=233*
     0x10CB [0x02] IF !(ExtData[1]->WorkLocal[3] == 0*) GOTO 0x10D9
     0x10D3 [0x1A] CALL_SUBROUTINE(address=0x11A2)
     0x10D6 [0x01] GOTO 0x1173
     0x10D9 [0x02] IF !(ExtData[1]->WorkLocal[3] == 1*) GOTO 0x10E7
     0x10E1 [0x1A] CALL_SUBROUTINE(address=0x120E)
     0x10E4 [0x01] GOTO 0x1173
     0x10E7 [0x02] IF !(ExtData[1]->WorkLocal[3] == 2*) GOTO 0x10F5
     0x10EF [0x1A] CALL_SUBROUTINE(address=0x127A)
     0x10F2 [0x01] GOTO 0x1173
     0x10F5 [0x02] IF !(ExtData[1]->WorkLocal[3] == 3*) GOTO 0x1103
     0x10FD [0x1A] CALL_SUBROUTINE(address=0x12DF)
     0x1100 [0x01] GOTO 0x1173
     0x1103 [0x02] IF !(ExtData[1]->WorkLocal[3] == 4*) GOTO 0x1111
     0x110B [0x1A] CALL_SUBROUTINE(address=0x1344)
     0x110E [0x01] GOTO 0x1173
     0x1111 [0x02] IF !(ExtData[1]->WorkLocal[3] == 5*) GOTO 0x111F
     0x1119 [0x1A] CALL_SUBROUTINE(address=0x13A9)
     0x111C [0x01] GOTO 0x1173
     0x111F [0x02] IF !(ExtData[1]->WorkLocal[3] == 6*) GOTO 0x112D
     0x1127 [0x1A] CALL_SUBROUTINE(address=0x11A2)
     0x112A [0x01] GOTO 0x1173
     0x112D [0x02] IF !(ExtData[1]->WorkLocal[3] == 7*) GOTO 0x113B
     0x1135 [0x1A] CALL_SUBROUTINE(address=0x120E)
     0x1138 [0x01] GOTO 0x1173
     0x113B [0x02] IF !(ExtData[1]->WorkLocal[3] == 8*) GOTO 0x1149
     0x1143 [0x1A] CALL_SUBROUTINE(address=0x127A)
     0x1146 [0x01] GOTO 0x1173
     0x1149 [0x02] IF !(ExtData[1]->WorkLocal[3] == 9*) GOTO 0x1157
     0x1151 [0x1A] CALL_SUBROUTINE(address=0x12DF)
     0x1154 [0x01] GOTO 0x1173
     0x1157 [0x02] IF !(ExtData[1]->WorkLocal[3] == 10*) GOTO 0x1165
     0x115F [0x1A] CALL_SUBROUTINE(address=0x1344)
     0x1162 [0x01] GOTO 0x1173
     0x1165 [0x02] IF !(ExtData[1]->WorkLocal[3] == 11*) GOTO 0x1173
     0x116D [0x1A] CALL_SUBROUTINE(address=0x13A9)
     0x1170 [0x01] GOTO 0x1173
     0x1173 [0x37] UPDATE_EVENT_POSITION_AND_DIR: x=8.116*, z=-108.421*, y=-33.330*, direction=301.0°*
     0x117C [0x45] LOAD_SCHEDULED_TASK: Load scheduler "kns1" with entities [LocalPlayer, LocalPlayer], work=[233*, 0*]
     0x118D [0x1A] CALL_SUBROUTINE(address=0x1E90)
     0x1190 [0x55] WAIT_LOAD_SCHEDULER: Wait for scheduler "kns1" with entities [LocalPlayer, LocalPlayer], work=233*
     0x119F [0x46] CAMERA_CONTROL: Restore default settings
     0x11A1 [0x1B] RETURN
     0x11A2 [0x29] REQ_SET_WAIT(priority=0x10, entity_id=Ark Angel HM (ID: 17514819/0x010B4143), tag_num=0x02)
     0x11A9 [0x27] REQ_SET(priority=0x10, entity_id=Ark Angel HM (ID: 17514819/0x010B4143), tag_num=0x03)
     0x11B0 [0x29] REQ_SET_WAIT(priority=0x10, entity_id=Ark Angel HM (ID: 17514819/0x010B4143), tag_num=0x0A)
