# Event 65535

## Metadata

| Field           | Value    |
|-----------------|----------|
| Event Index     | 51/58    |
| Offset          | 0x02E5   |
| Data Size       | 55 bytes |
| Calculated Size | 55 bytes |
| Instructions    | 7        |

```
      00 01 02 03 04 05 06 07  08 09 0A 0B 0C 0D 0E 0F
      -- -- -- -- -- -- -- --  -- -- -- -- -- -- -- --
02E0:                29 08 56  91 01 01 1B 1C 11 80 45       ).V.......E
02F0: 12 80 F8 FF FF 7F F8 FF  FF 7F 73 65 32 37 13 80  ..........se27..
0300: 9F 14 80 56 91 01 01 56  91 01 01 70 73 74 30 13  ...V...V...pst0.
0310: 80 29 08 56 91 01 01 1C  1C 11 80 00              .).V........    
```

## Opcodes

```
  0: 0x02E5 [0x29] REQ_SET_WAIT(priority=0x08, entity_id=Esha'ntarl (ID: 16879958/0x01019156), tag_num=0x1B)
  1: 0x02EC [0x1C] WAIT(60* ticks)
  2: 0x02EF [0x45] LOAD_SCHEDULED_TASK: Load scheduler "se27" with entities [EventEntity, EventEntity], work=[129*, 0*]
  3: 0x0300 [0x9F] LOAD_SCHEDULED_TASK_ALT: Load scheduler "pst0" with entities [Esha'ntarl (ID: 16879958/0x01019156), Esha'ntarl (ID: 16879958/0x01019156)], work=[91*, 0*]
  4: 0x0311 [0x29] REQ_SET_WAIT(priority=0x08, entity_id=Esha'ntarl (ID: 16879958/0x01019156), tag_num=0x1C)
  5: 0x0318 [0x1C] WAIT(60* ticks)
  6: 0x031B [0x00] END_REQSTACK()
```
