# Event 65535

## Metadata

| Field           | Value    |
|-----------------|----------|
| Event Index     | 113/116  |
| Offset          | 0x02CC   |
| Data Size       | 68 bytes |
| Calculated Size | 68 bytes |
| Instructions    | 6        |

```
      00 01 02 03 04 05 06 07  08 09 0A 0B 0C 0D 0E 0F
      -- -- -- -- -- -- -- --  -- -- -- -- -- -- -- --
02C0:                                      45 10 80 F0              E...
02D0: FF FF 7F F0 FF FF 7F 34  61 32 35 00 80 1C 11 80  .......4a25.....
02E0: 52 10 80 F0 FF FF 7F F0  FF FF 7F 34 61 32 35 45  R..........4a25E
02F0: 10 80 F0 FF FF 7F F0 FF  FF 7F 34 61 32 36 00 80  ..........4a26..
0300: 55 10 80 F0 FF FF 7F F0  FF FF 7F 34 61 32 36 00  U..........4a26.
```

## Opcodes

```
  0: 0x02CC [0x45] LOAD_SCHEDULED_TASK: Load scheduler "4a25" with entities [LocalPlayer, LocalPlayer], work=[275*, 0*]
  1: 0x02DD [0x1C] WAIT(210* ticks)
  2: 0x02E0 [0x52] END_LOAD_SCHEDULER: End scheduler "4a25" with entities [LocalPlayer, LocalPlayer], work=275*
  3: 0x02EF [0x45] LOAD_SCHEDULED_TASK: Load scheduler "4a26" with entities [LocalPlayer, LocalPlayer], work=[275*, 0*]
  4: 0x0300 [0x55] WAIT_LOAD_SCHEDULER: Wait for scheduler "4a26" with entities [LocalPlayer, LocalPlayer], work=275*
  5: 0x030F [0x00] END_REQSTACK()
```
