# Event 65535

## Metadata

| Field           | Value    |
|-----------------|----------|
| Event Index     | 104/116  |
| Offset          | 0x01F1   |
| Data Size       | 68 bytes |
| Calculated Size | 68 bytes |
| Instructions    | 6        |

```
      00 01 02 03 04 05 06 07  08 09 0A 0B 0C 0D 0E 0F
      -- -- -- -- -- -- -- --  -- -- -- -- -- -- -- --
01F0:    45 0B 80 F0 FF FF 7F  F0 FF FF 7F 6F 64 30 31   E..........od01
0200: 00 80 1C 0C 80 52 0B 80  F0 FF FF 7F F0 FF FF 7F  .....R..........
0210: 6F 64 30 31 45 0B 80 F0  FF FF 7F F0 FF FF 7F 6F  od01E..........o
0220: 64 30 32 00 80 55 0B 80  F0 FF FF 7F F0 FF FF 7F  d02..U..........
0230: 6F 64 30 32 00                                    od02.           
```

## Opcodes

```
  0: 0x01F1 [0x45] LOAD_SCHEDULED_TASK(work_offset1=272*, entity1=LocalPlayer, entity2=LocalPlayer, scheduler_id="od01", work_offset2=0*)
  1: 0x0202 [0x1C] WAIT(300* ticks)
  2: 0x0205 [0x52] END_LOAD_SCHEDULER: End scheduler "od01" with entities [LocalPlayer, LocalPlayer], work=272*
  3: 0x0214 [0x45] LOAD_SCHEDULED_TASK(work_offset1=272*, entity1=LocalPlayer, entity2=LocalPlayer, scheduler_id="od02", work_offset2=0*)
  4: 0x0225 [0x55] WAIT_LOAD_SCHEDULER(work_offset=272*, entity1=LocalPlayer, entity2=LocalPlayer, scheduler_id="od02")
  5: 0x0234 [0x00] END_REQSTACK()
```
