# Event 65535

## Metadata

| Field           | Value    |
|-----------------|----------|
| Event Index     | 94/116   |
| Offset          | 0x00DB   |
| Data Size       | 70 bytes |
| Calculated Size | 70 bytes |
| Instructions    | 7        |

```
      00 01 02 03 04 05 06 07  08 09 0A 0B 0C 0D 0E 0F
      -- -- -- -- -- -- -- --  -- -- -- -- -- -- -- --
00D0:                                   1C 06 80 52 05             ...R.
00E0: 80 F0 FF FF 7F F0 FF FF  7F 64 62 30 32 45 05 80  .........db02E..
00F0: F0 FF FF 7F F0 FF FF 7F  64 62 30 33 00 80 53 16  ........db03..S.
0100: 21 03 01 16 21 03 01 61  6F 30 30 66 07 80 16 21  !...!..ao00f...!
0110: 03 01 16 21 03 01 61 6F  30 31 81 00 16 21 03 01  ...!..ao01...!..
0120: 00                                                .               
```

## Opcodes

```
  0: 0x00DB [0x1C] WAIT(60* ticks)
  1: 0x00DE [0x52] END_LOAD_SCHEDULER: End scheduler "db02" with entities [LocalPlayer, LocalPlayer], work=258*
  2: 0x00ED [0x45] LOAD_SCHEDULED_TASK: Load scheduler "db03" with entities [LocalPlayer, LocalPlayer], work=[258*, 0*]
  3: 0x00FE [0x53] WAIT_SCHEDULER_TASK: Wait for scheduler "ao00" with entities [??? (ID: 16982294/0x01032116), ??? (ID: 16982294/0x01032116)]
  4: 0x010B [0x66] LOAD_EXT_SCHEDULER_MAIN: Load scheduler "ao01" with entities [??? (ID: 16982294/0x01032116), ??? (ID: 16982294/0x01032116)], work=4*
  5: 0x011A [0x81] SET_ENTITY_BLINKING(blink_flag=0x00, entity=??? (ID: 16982294/0x01032116))
  6: 0x0120 [0x00] END_REQSTACK()
```
