# Event 65535

## Metadata

| Field           | Value    |
|-----------------|----------|
| Event Index     | 9/22     |
| Offset          | 0x09B3   |
| Data Size       | 67 bytes |
| Calculated Size | 67 bytes |
| Instructions    | 9        |

```
      00 01 02 03 04 05 06 07  08 09 0A 0B 0C 0D 0E 0F
      -- -- -- -- -- -- -- --  -- -- -- -- -- -- -- --
09B0:          4A 1D 20 0F 01  F0 FF FF 7F 7B 1D 20 0F     J. ......{. .
09C0: 01 6F 76 1D 20 0F 01 29  0B 1D 20 0F 01 3D 45 07  .ov. ..).. ..=E.
09D0: 80 F8 FF FF 7F F8 FF FF  7F 73 30 31 39 02 80 29  .........s019..)
09E0: 0B 1D 20 0F 01 3E 52 07  80 F8 FF FF 7F F8 FF FF  .. ..>R.........
09F0: 7F 73 30 31 39 00                                 .s019.          
```

## Opcodes

```
  0: 0x09B3 [0x4A] Star Sibyl (ID: 17768477/0x010F201D) looks at LocalPlayer
  1: 0x09BC [0x7B] Star Sibyl (ID: 17768477/0x010F201D) stops talking
  2: 0x09C1 [0x6F] WAIT_FRAME_DELAY: Yield until WaitTime reaches zero
  3: 0x09C2 [0x76] CHECK_ENTITY_RENDER_FLAGS: Wait until Star Sibyl (ID: 17768477/0x010F201D) Render.Flags0 and Render.Flags3 conditions are met
  4: 0x09C7 [0x29] REQ_SET_WAIT(priority=0x0B, entity_id=Star Sibyl (ID: 17768477/0x010F201D), tag_num=0x3D)
  5: 0x09CE [0x45] LOAD_SCHEDULED_TASK: Load scheduler "s019" with entities [EventEntity, EventEntity], work=[142*, 0*]
  6: 0x09DF [0x29] REQ_SET_WAIT(priority=0x0B, entity_id=Star Sibyl (ID: 17768477/0x010F201D), tag_num=0x3E)
  7: 0x09E6 [0x52] END_LOAD_SCHEDULER: End scheduler "s019" with entities [EventEntity, EventEntity], work=142*
  8: 0x09F5 [0x00] END_REQSTACK()
```
