# Event 65535

## Metadata

| Field           | Value    |
|-----------------|----------|
| Event Index     | 5/14     |
| Offset          | 0x005F   |
| Data Size       | 54 bytes |
| Calculated Size | 54 bytes |
| Instructions    | 12       |

```
      00 01 02 03 04 05 06 07  08 09 0A 0B 0C 0D 0E 0F
      -- -- -- -- -- -- -- --  -- -- -- -- -- -- -- --
0050:                                               32                 2
0060: 16 80 1F 00 17 80 18 80  0F 80 1F 01 1F 00 19 80  ................
0070: 1A 80 0F 80 1F 01 1F 00  1B 80 1C 80 0F 80 1F 01  ................
0080: 1F 00 1D 80 1E 80 0F 80  1F 01 1F 00 1F 80 20 80  .............. .
0090: 0F 80 1F 01 00                                    .....           
```

## Opcodes

```
  0: 0x005F [0x32] ExtData[1]->MainSpeed = 80* * 0.1
  1: 0x0062 [0x1F] MOVE_ENTITY: EventEntity moves to X=-292.520*, Z=-13.074*, Y=-47.999*
  2: 0x006A [0x1F] MOVE_ENTITY: Update entity position (mode=1)
  3: 0x006C [0x1F] MOVE_ENTITY: EventEntity moves to X=-294.259*, Z=-11.623*, Y=-47.999*
  4: 0x0074 [0x1F] MOVE_ENTITY: Update entity position (mode=1)
  5: 0x0076 [0x1F] MOVE_ENTITY: EventEntity moves to X=-294.725*, Z=-7.673*, Y=-47.999*
  6: 0x007E [0x1F] MOVE_ENTITY: Update entity position (mode=1)
  7: 0x0080 [0x1F] MOVE_ENTITY: EventEntity moves to X=-298.746*, Z=5.768*, Y=-47.999*
  8: 0x0088 [0x1F] MOVE_ENTITY: Update entity position (mode=1)
  9: 0x008A [0x1F] MOVE_ENTITY: EventEntity moves to X=-297.394*, Z=9.983*, Y=-47.999*
 10: 0x0092 [0x1F] MOVE_ENTITY: Update entity position (mode=1)
 11: 0x0094 [0x00] END_REQSTACK()
```
