# Event 65535

## Metadata

| Field           | Value    |
|-----------------|----------|
| Event Index     | 8/17     |
| Offset          | 0x008A   |
| Data Size       | 36 bytes |
| Calculated Size | 36 bytes |
| Instructions    | 9        |

```
      00 01 02 03 04 05 06 07  08 09 0A 0B 0C 0D 0E 0F
      -- -- -- -- -- -- -- --  -- -- -- -- -- -- -- --
0080:                                32 07 80 1F 00 1B            2.....
0090: 80 1C 80 13 80 1F 01 1F  00 1D 80 1E 80 13 80 1F  ................
00A0: 01 1F 00 1F 80 20 80 13  80 1F 01 22 01 00        ..... ....."..  
```

## Opcodes

```
  0: 0x008A [0x32] ExtData[1]->MainSpeed = 54* * 0.1
  1: 0x008D [0x1F] MOVE_ENTITY: EventEntity moves to X=-23.800*, Z=-0.400*, Y=-9.999*
  2: 0x0095 [0x1F] MOVE_ENTITY: Update entity position (mode=1)
  3: 0x0097 [0x1F] MOVE_ENTITY: EventEntity moves to X=-36.915*, Z=-1.701*, Y=-9.999*
  4: 0x009F [0x1F] MOVE_ENTITY: Update entity position (mode=1)
  5: 0x00A1 [0x1F] MOVE_ENTITY: EventEntity moves to X=-40.846*, Z=-5.749*, Y=-9.999*
  6: 0x00A9 [0x1F] MOVE_ENTITY: Update entity position (mode=1)
  7: 0x00AB [0x22] ENTITY_HIDE_FLAG(enabled=0x01)
  8: 0x00AD [0x00] END_REQSTACK()
```
