# 17686586 - Provenance Crystal

## Common Data

| Field            | Value                |
|------------------|----------------------|
| Zone             | Provenance (ID: 222) |
| Block Size       | 3100 bytes           |
| Total Events     | 3                    |
| References Count | 102                  |

## List of Events

| Event ID              | Entrypoint   |   Size |   Instructions |
|-----------------------|--------------|--------|----------------|
| [65535](#event-65535) | 0x0000       |      1 |              1 |
| [0](#event-0)         | 0x0001       |   1403 |            228 |
| [21](#event-21)       | 0x057C       |   1259 |            165 |

## DAT References (imed_data)

|   Index | Hex Value   |   Dec Value |
|---------|-------------|-------------|
|       0 | 0x0000      |           0 |
|       1 | 0x0001      |           1 |
|       2 | 0x0006      |           6 |
|       3 | 0x0007      |           7 |
|       4 | 0x0009      |           9 |
|       5 | 0xFFFFFFFF  |  4294967295 |
|       6 | 0x1CB9      |        7353 |
|       7 | 0x40000000  |  1073741824 |
|       8 | 0x070D      |        1805 |
|       9 | 0x1CBE      |        7358 |
|      10 | 0x0002      |           2 |
|      11 | 0x0003      |           3 |
|      12 | 0x0004      |           4 |
|      13 | 0x0005      |           5 |
|      14 | 0x1D52      |        7506 |
|      15 | 0x1CAB      |        7339 |
|      16 | 0x00FF      |         255 |
|      17 | 0x0008      |           8 |
|      18 | 0x000B      |          11 |
|      19 | 0x000C      |          12 |
|      20 | 0x000F      |          15 |
|      21 | 0x0010      |          16 |
|      22 | 0x0017      |          23 |
|      23 | 0x0018      |          24 |
|      24 | 0x001F      |          31 |
|      25 | 0x1CA1      |        7329 |
|      26 | 0x0FFF      |        4095 |
|      27 | 0x1CA9      |        7337 |
|      28 | 0x1CA8      |        7336 |
|      29 | 0x1CA0      |        7328 |
|      30 | 0x007C      |         124 |
|      31 | 0x00B4      |         180 |
|      32 | 0x00C8      |         200 |
|      33 | 0x003C      |          60 |
|      34 | 0x1CA7      |        7335 |
|      35 | 0x0014      |          20 |
|      36 | 0x007D      |         125 |
|      37 | 0x0078      |         120 |
|      38 | 0x00C9      |         201 |
|      39 | 0x0038      |          56 |
|      40 | 0x0012      |          18 |
|      41 | 0x0037      |          55 |
|      42 | 0xFFFBCDC8  |  4294692296 |
|      43 | 0xFFFD8F00  |  4294807296 |
|      44 | 0x27100     |      160000 |
|      45 | 0x2F9B8     |      195000 |
|      46 | 0xA4CB8     |      675000 |
|      47 | 0x9C400     |      640000 |
|      48 | 0xFFF72660  |  4294387296 |
|      49 | 0x4E20      |       20000 |
|      50 | 0x83D60     |      540000 |
|      51 | 0xFFFFB20B  |  4294947339 |
|      52 | 0xFFFFFFFC  |  4294967292 |
|      53 | 0x3E80      |       16000 |
|      54 | 0x7D00      |       32000 |
|      55 | 0x9C6E      |       40046 |
|      56 | 0x4F41      |       20289 |
|      57 | 0xFFFC8560  |  4294739296 |
|      58 | 0xFFFE5A20  |  4294859296 |
|      59 | 0x2EE0      |       12000 |
|      60 | 0xFFFC5680  |  4294727296 |
|      61 | 0xFFF59FC0  |  4294287296 |
|      62 | 0xFFFCF2C0  |  4294767296 |
|      63 | 0xFFF58C38  |  4294282296 |
|      64 | 0xFFF578B0  |  4294277296 |
|      65 | 0x7DBB8     |      515000 |
|      66 | 0x0F3C      |        3900 |
|      67 | 0x0600      |        1536 |
|      68 | 0x0200      |         512 |
|      69 | 0x0400      |        1024 |
|      70 | 0x0C00      |        3072 |
|      71 | 0x021C      |         540 |
|      72 | 0x1E06      |        7686 |
|      73 | 0x0028      |          40 |
|      74 | 0x1CB6      |        7350 |
|      75 | 0x1CB7      |        7351 |
|      76 | 0x1FFF      |        8191 |
|      77 | 0x0013      |          19 |
|      78 | 0xFFF72ED6  |  4294389462 |
|      79 | 0x80046     |      524358 |
|      80 | 0xFFFC8561  |  4294739297 |
|      81 | 0x0C9B      |        3227 |
|      82 | 0xFFF73D2C  |  4294393132 |
|      83 | 0x82FC0     |      536512 |
|      84 | 0x0497      |        1175 |
|      85 | 0x0242      |         578 |
|      86 | 0xFFF72CA8  |  4294388904 |
|      87 | 0x81509     |      529673 |
|      88 | 0x0E20      |        3616 |
|      89 | 0xFFF7563B  |  4294399547 |
|      90 | 0x83EE0     |      540384 |
|      91 | 0x061B      |        1563 |
|      92 | 0x0258      |         600 |
|      93 | 0x012C      |         300 |
|      94 | 0x001E      |          30 |
|      95 | 0xFFF63A0C  |  4294326796 |
|      96 | 0xFFF7EF8C  |  4294438796 |
|      97 | 0xFFFFB276  |  4294947446 |
|      98 | 0xFFFF      |       65535 |
|      99 | 0x005A      |          90 |
|     100 | 0x002D      |          45 |
|     101 | 0x00D7      |         215 |

## String References

- **7328**: You cannot enter the battlefield at present. Please wait a little longer.
- **7329**: You are cleared to enter the battlefield, but you cannot while party members are engaged in combat.
- **7335**: Skip the event? [Yes./No.]
- **7336**: Only $3 [member/members] have clearance to enter the battlefield. This room has reached its maximum capacity.
- **7337**: You do not meet the requirements to enter the battlefield. Access is denied.
- **7339**: Enter the battlefield? [Enter./Decline.]
- **7350**: Relinquish your claim to the battle spoils? [Yes./On second thought...]
- **7351**: Items will be lost. Are you certain? [Yes, relinquish./No, retain.]
- **7353**: Which battlefield will you enter? [None./Beguiling Radiance./Seductive Radiance./Maddening Radiance./Provenance Watcher.]
- **7358**: Enter the battlefield? [Enter using $5./Enter./Decline.]
- **7506**: How many $5 will you use? [None./One./Two./Three./Four./Five.]
- **7686**: You have not claimed all of your battle rewards.

## Events

### Event 65535

#### Metadata

| Field        | Value   |
|--------------|---------|
| Entrypoint   | 0x0000  |
| Data Size    | 1 bytes |
| Instructions | 1       |

```
      00 01 02 03 04 05 06 07  08 09 0A 0B 0C 0D 0E 0F
      -- -- -- -- -- -- -- --  -- -- -- -- -- -- -- --
0000: 00                                                .               
```

#### Opcodes

```
  0: 0x0000 [0x00] END_REQSTACK()
```

### Event 0

#### Metadata

| Field        | Value      |
|--------------|------------|
| Entrypoint   | 0x0001     |
| Data Size    | 1403 bytes |
| Instructions | 179        |

```
      00 01 02 03 04 05 06 07  08 09 0A 0B 0C 0D 0E 0F
      -- -- -- -- -- -- -- --  -- -- -- -- -- -- -- --
0000:    03 17 00 00 80 03 16  00 00 80 02 02 10 00 80   ...............
0010: 80 20 00 03 03 00 01 80  03 04 00 02 80 01 35 00  . ............5.
0020: 02 02 10 01 80 80 35 00  03 03 00 03 80 03 04 00  ......5.........
0030: 04 80 01 35 00 03 00 00  05 10 03 11 00 07 10 03  ...5............
0040: 01 00 05 80 0F 01 00 00  00 3D 01 00 00 80 01 80  .........=......
0050: 24 06 80 00 80 01 00 25  02 00 10 00 80 00 6A 00  $......%......j.
0060: 03 01 10 07 80 21 00 01  6A 00 03 19 00 06 10 03  .....!..j.......
0070: 02 00 00 10 03 1A 00 03  10 02 19 00 00 80 01 86  ................
0080: 00 03 1A 00 00 80 02 1A  00 00 80 01 E0 01 03 02  ................
0090: 10 08 80 03 17 00 01 80  02 17 00 00 80 02 DD 01  ................
00A0: 24 09 80 0A 80 00 80 25  02 00 10 00 80 00 B7 01  $......%........
00B0: 03 18 00 00 80 02 1A 00  00 80 80 C0 00 01 3D 01  ..............=.
00C0: 02 1A 00 01 80 80 E7 00  3C 18 00 0A 80 01 80 3C  ........<......<
00D0: 18 00 0B 80 01 80 3C 18  00 0C 80 01 80 3C 18 00  ......<......<..
00E0: 0D 80 01 80 01 3D 01 02  1A 00 0A 80 80 07 01 3C  .....=.........<
00F0: 18 00 0B 80 01 80 3C 18  00 0C 80 01 80 3C 18 00  ......<......<..
0100: 0D 80 01 80 01 3D 01 02  1A 00 0B 80 80 20 01 3C  .....=....... .<
0110: 18 00 0C 80 01 80 3C 18  00 0D 80 01 80 01 3D 01  ......<.......=.
0120: 02 1A 00 0C 80 80 32 01  3C 18 00 0D 80 01 80 01  ......2.<.......
0130: 3D 01 02 1A 00 0D 80 80  3D 01 01 3D 01 03 02 10  =.......=..=....
0140: 08 80 24 0E 80 00 80 18  00 25 02 00 10 00 80 00  ..$......%......
0150: 55 01 01 B4 01 02 00 10  01 80 00 68 01 06 17 00  U..........h....
0160: 03 16 00 01 80 01 B4 01  02 00 10 0A 80 00 7B 01  ..............{.
0170: 06 17 00 03 16 00 0A 80  01 B4 01 02 00 10 0B 80  ................
0180: 00 8E 01 06 17 00 03 16  00 0B 80 01 B4 01 02 00  ................
0190: 10 0C 80 00 A1 01 06 17  00 03 16 00 0C 80 01 B4  ................
01A0: 01 02 00 10 0D 80 00 B4  01 06 17 00 03 16 00 0D  ................
01B0: 80 01 B4 01 01 DA 01 02  00 10 01 80 00 C5 01 06  ................
01C0: 17 00 01 DA 01 02 00 10  0A 80 00 DA 01 06 17 00  ................
01D0: 03 01 10 07 80 21 00 01  DA 01 01 98 00 01 FA 01  .....!..........
01E0: 24 0F 80 01 80 00 80 25  02 00 10 01 80 00 FA 01  $......%........
01F0: 03 01 10 07 80 21 00 01  FA 01 42 03 01 10 10 80  .....!....B.....
0200: 43 00 43 01 06 01 10 06  02 10 06 03 10 06 04 10  C.C.............
0210: 40 00 80 03 80 01 10 02  00 40 11 80 12 80 01 10  @........@......
0220: 03 00 40 13 80 14 80 01  10 04 00 40 15 80 16 80  ..@........@....
0230: 01 10 01 80 40 17 80 18  80 01 10 16 00 43 00 43  ....@........C.C
0240: 01 03 13 00 02 10 03 0A  00 03 10 03 0B 00 04 10  ................
0250: 03 14 00 05 10 03 11 00  07 10 02 13 00 01 80 80  ................
0260: 65 02 01 FE 03 02 13 00  0A 80 80 7B 02 48 19 80  e..........{.H..
0270: 23 03 01 10 1A 80 21 00  01 FE 03 02 13 00 0B 80  #.....!.........
0280: 80 91 02 48 1B 80 23 03  01 10 1A 80 21 00 01 FE  ...H..#.....!...
0290: 03 02 13 00 0C 80 80 AF  02 9D 00 7C 04 05 10 02  ...........|....
02A0: 00 48 1C 80 23 03 01 10  1A 80 21 00 01 FE 03 02  .H..#.....!.....
02B0: 13 00 0D 80 80 C5 02 48  1D 80 23 03 01 10 1A 80  .......H..#.....
02C0: 21 00 01 FE 03 02 13 00  02 80 80 FE 03 06 01 10  !...............
02D0: CD 1E 80 F0 FF FF 7F F0  FF FF 7F 6D 61 69 6E 00  ...........main.
02E0: 80 1C 1F 80 45 20 80 F0  FF FF 7F F0 FF FF 7F 66  ....E .........f
02F0: 64 6F 31 00 80 1C 21 80  40 15 80 16 80 01 10 0A  do1...!.@.......
0300: 80 9D 00 FC 04 06 00 14  00 9D 00 1C 05 07 00 14  ................
0310: 00 9D 00 3C 05 08 00 14  00 9D 00 5C 05 09 00 14  ...<.......\....
0320: 00 47 00 06 00 08 00 07  00 09 00 47 01 06 12 00  .G.........G....
0330: 03 02 00 0A 00 02 0B 00  00 80 02 43 03 05 12 00  ...........C....
0340: 01 46 03 06 12 00 02 0B  00 00 80 00 6C 03 02 11  .F..........l...
0350: 00 01 80 00 6C 03 24 22  80 01 80 00 80 25 02 00  ....l.$".....%..
0360: 10 00 80 00 6C 03 05 12  00 01 6C 03 02 12 00 00  ....l.....l.....
0370: 80 02 87 03 03 10 00 01  80 9D 00 9C 04 10 00 0A  ................
0380: 00 1A 3A 04 01 97 03 03  10 00 01 80 9D 00 9C 04  ..:.............
0390: 10 00 0A 00 1A 3A 04 02  12 00 00 80 00 A5 03 1A  .....:..........
03A0: CF 05 01 BC 03 6C F0 FF  FF 7F 00 80 01 80 46 02  .....l........F.
03B0: 15 00 02 15 00 00 80 00  BC 03 46 00 1C 23 80 45  ..........F..#.E
03C0: 20 80 F0 FF FF 7F F0 FF  FF 7F 66 64 69 31 00 80   .........fdi1..
03D0: 1C 21 80 CD 24 80 F0 FF  FF 7F F0 FF FF 7F 6D 61  .!..$.........ma
03E0: 69 6E 00 80 1C 25 80 40  00 80 14 80 01 10 16 80  in...%.@........
03F0: 40 15 80 18 80 01 10 14  00 21 00 01 FE 03 48 1D  @........!....H.
0400: 80 23 45 26 80 F0 FF FF  7F F0 FF FF 7F 77 68 69  .#E&.........whi
0410: 31 00 80 45 20 80 F0 FF  FF 7F F0 FF FF 7F 62 6C  1..E .........bl
0420: 6F 66 00 80 45 20 80 F0  FF FF 7F F0 FF FF 7F 66  of..E .........f
0430: 64 69 30 00 80 1A 6B 04  21 00 9D 00 BC 04 0C 00  di0...k.!.......
0440: 10 00 9D 00 CC 04 0D 00  10 00 9D 00 DC 04 0E 00  ................
0450: 10 00 9D 00 EC 04 0F 00  10 00 5C 00 0C 00 5C 01  ..........\...\.
0460: 0D 00 5C 02 0E 00 5C 03  0F 00 1B 5C 00 27 80 5C  ..\...\....\.'.\
0470: 01 27 80 5C 02 27 80 5C  03 27 80 1B 00 80 28 80  .'.\.'.\.'....(.
0480: 28 80 28 80 28 80 28 80  28 80 28 80 28 80 28 80  (.(.(.(.(.(.(.(.
0490: 28 80 28 80 28 80 28 80  28 80 28 80 00 80 00 80  (.(.(.(.(.(.....
04A0: 00 80 00 80 01 80 00 80  00 80 00 80 00 80 00 80  ................
04B0: 00 80 00 80 00 80 00 80  00 80 00 80 27 80 29 80  ............'.).
04C0: 24 80 24 80 00 80 00 80  00 80 00 80 27 80 29 80  $.$.........'.).
04D0: 24 80 24 80 00 80 00 80  00 80 00 80 27 80 29 80  $.$.........'.).
04E0: 24 80 24 80 00 80 00 80  00 80 00 80 27 80 29 80  $.$.........'.).
04F0: 24 80 24 80 00 80 00 80  00 80 00 80 00 80 2A 80  $.$...........*.
0500: 2B 80 2C 80 2D 80 2E 80  2F 80 30 80 31 80 32 80  +.,.-.../.0.1.2.
0510: 00 80 00 80 00 80 00 80  00 80 00 80 00 80 33 80  ..............3.
0520: 34 80 35 80 36 80 37 80  38 80 39 80 3A 80 3B 80  4.5.6.7.8.9.:.;.
0530: 00 80 00 80 00 80 00 80  00 80 00 80 00 80 3C 80  ..............<.
0540: 3D 80 3E 80 3F 80 3C 80  40 80 41 80 41 80 41 80  =.>.?.<.@.A.A.A.
0550: 00 80 00 80 00 80 00 80  00 80 00 80 00 80 42 80  ..............B.
0560: 43 80 44 80 45 80 46 80  47 80 46 80 46 80 46 80  C.D.E.F.G.F.F.F.
0570: 00 80 00 80 00 80 00 80  00 80 00 80              ............    
```

#### Opcodes

```
  0: 0x0001 [0x03] ExtData[1]->WorkLocal[23] = 0*
  1: 0x0006 [0x03] ExtData[1]->WorkLocal[22] = 0*
  2: 0x000B [0x02] IF !(Work_Zone[2] == 0*) GOTO 0x0020
  3: 0x0013 [0x03] ExtData[1]->WorkLocal[3] = 1*
  4: 0x0018 [0x03] ExtData[1]->WorkLocal[4] = 6*
  5: 0x001D [0x01] GOTO 0x0035
  6: 0x0020 [0x02] IF !(Work_Zone[2] == 1*) GOTO 0x0035
  7: 0x0028 [0x03] ExtData[1]->WorkLocal[3] = 7*
  8: 0x002D [0x03] ExtData[1]->WorkLocal[4] = 9*
  9: 0x0032 [0x01] GOTO 0x0035

SUBROUTINE_0035:
 10: 0x0035 [0x03] ExtData[1]->WorkLocal[0] = Work_Zone[5]
 11: 0x003A [0x03] ExtData[1]->WorkLocal[17] = Work_Zone[7]
 12: 0x003F [0x03] ExtData[1]->WorkLocal[1] = 4294967295*
 13: 0x0044 [0x0F] ExtData[1]->WorkLocal[1] ^= ExtData[1]->WorkLocal[0]
 14: 0x0049 [0x3D] CLEAR_BIT_FLAG_CONDITIONAL(target_work_offset=ExtData[1]->WorkLocal[1], bit_index_work_offset=0*, condition_work_offset=1*)
 15: 0x0050 [0x24] CREATE_DIALOG(message_id=7353*, default_option=0*, option_flags=ExtData[1]->WorkLocal[1])
    → "Which battlefield will you enter? [None./Beguiling Radiance./Seductive Radiance./Maddening Radiance./Provenance Watcher.]"
 16: 0x0057 [0x25] WAIT_DIALOG_SELECT()
 17: 0x0058 [0x02] IF !(Work_Zone[0] == 0*) GOTO 0x006A
 18: 0x0060 [0x03] Work_Zone[1] = 1073741824*
 19: 0x0065 [0x21] END_EVENT
 20: 0x0066 [0x00] END_REQSTACK()

SUBROUTINE_006A:
 21: 0x006A [0x03] ExtData[1]->WorkLocal[25] = Work_Zone[6]
 22: 0x006F [0x03] ExtData[1]->WorkLocal[2] = Work_Zone[0]
 23: 0x0074 [0x03] ExtData[1]->WorkLocal[26] = Work_Zone[3]
 24: 0x0079 [0x02] IF !(ExtData[1]->WorkLocal[25] == 0*) GOTO 0x0086
 25: 0x0081 [0x03] ExtData[1]->WorkLocal[26] = 0*
 26: 0x0086 [0x02] IF !(ExtData[1]->WorkLocal[26] == 0*) GOTO 0x01E0
 27: 0x008E [0x03] Work_Zone[2] = 1805*
 28: 0x0093 [0x03] ExtData[1]->WorkLocal[23] = 1*

SUBROUTINE_0098:
 29: 0x0098 [0x02] IF !(ExtData[1]->WorkLocal[23] <= 0*) GOTO 0x01DD
 30: 0x00A0 [0x24] CREATE_DIALOG(message_id=7358*, default_option=2*, option_flags=0*)
    → "Enter the battlefield? [Enter using $5./Enter./Decline.]"
 31: 0x00A7 [0x25] WAIT_DIALOG_SELECT()
 32: 0x00A8 [0x02] IF !(Work_Zone[0] == 0*) GOTO 0x01B7
 33: 0x00B0 [0x03] ExtData[1]->WorkLocal[24] = 0*
 34: 0x00B5 [0x02] IF !(ExtData[1]->WorkLocal[26] == 0*) GOTO 0x00C0
 35: 0x00BD [0x01] GOTO 0x013D
 36: 0x00C0 [0x02] IF !(ExtData[1]->WorkLocal[26] == 1*) GOTO 0x00E7
 37: 0x00C8 [0x3C] SET_BIT_FLAG_CONDITIONAL(target_work_offset=ExtData[1]->WorkLocal[24], bit_index_work_offset=2*, condition_work_offset=1*)
 38: 0x00CF [0x3C] SET_BIT_FLAG_CONDITIONAL(target_work_offset=ExtData[1]->WorkLocal[24], bit_index_work_offset=3*, condition_work_offset=1*)
 39: 0x00D6 [0x3C] SET_BIT_FLAG_CONDITIONAL(target_work_offset=ExtData[1]->WorkLocal[24], bit_index_work_offset=4*, condition_work_offset=1*)
 40: 0x00DD [0x3C] SET_BIT_FLAG_CONDITIONAL(target_work_offset=ExtData[1]->WorkLocal[24], bit_index_work_offset=5*, condition_work_offset=1*)
 41: 0x00E4 [0x01] GOTO 0x013D
 42: 0x00E7 [0x02] IF !(ExtData[1]->WorkLocal[26] == 2*) GOTO 0x0107
 43: 0x00EF [0x3C] SET_BIT_FLAG_CONDITIONAL(target_work_offset=ExtData[1]->WorkLocal[24], bit_index_work_offset=3*, condition_work_offset=1*)
 44: 0x00F6 [0x3C] SET_BIT_FLAG_CONDITIONAL(target_work_offset=ExtData[1]->WorkLocal[24], bit_index_work_offset=4*, condition_work_offset=1*)
 45: 0x00FD [0x3C] SET_BIT_FLAG_CONDITIONAL(target_work_offset=ExtData[1]->WorkLocal[24], bit_index_work_offset=5*, condition_work_offset=1*)
 46: 0x0104 [0x01] GOTO 0x013D
 47: 0x0107 [0x02] IF !(ExtData[1]->WorkLocal[26] == 3*) GOTO 0x0120
 48: 0x010F [0x3C] SET_BIT_FLAG_CONDITIONAL(target_work_offset=ExtData[1]->WorkLocal[24], bit_index_work_offset=4*, condition_work_offset=1*)
 49: 0x0116 [0x3C] SET_BIT_FLAG_CONDITIONAL(target_work_offset=ExtData[1]->WorkLocal[24], bit_index_work_offset=5*, condition_work_offset=1*)
 50: 0x011D [0x01] GOTO 0x013D
 51: 0x0120 [0x02] IF !(ExtData[1]->WorkLocal[26] == 4*) GOTO 0x0132
 52: 0x0128 [0x3C] SET_BIT_FLAG_CONDITIONAL(target_work_offset=ExtData[1]->WorkLocal[24], bit_index_work_offset=5*, condition_work_offset=1*)
 53: 0x012F [0x01] GOTO 0x013D
 54: 0x0132 [0x02] IF !(ExtData[1]->WorkLocal[26] == 5*) GOTO 0x013D
 55: 0x013A [0x01] GOTO 0x013D

SUBROUTINE_013D:
 56: 0x013D [0x03] Work_Zone[2] = 1805*
 57: 0x0142 [0x24] CREATE_DIALOG(message_id=7506*, default_option=0*, option_flags=ExtData[1]->WorkLocal[24])
    → "How many $5 will you use? [None./One./Two./Three./Four./Five.]"
 58: 0x0149 [0x25] WAIT_DIALOG_SELECT()
 59: 0x014A [0x02] IF !(Work_Zone[0] == 0*) GOTO 0x0155
 60: 0x0152 [0x01] GOTO 0x01B4
 61: 0x0155 [0x02] IF !(Work_Zone[0] == 1*) GOTO 0x0168
 62: 0x015D [0x06] ExtData[1]->WorkLocal[23] = 0
 63: 0x0160 [0x03] ExtData[1]->WorkLocal[22] = 1*
 64: 0x0165 [0x01] GOTO 0x01B4
 65: 0x0168 [0x02] IF !(Work_Zone[0] == 2*) GOTO 0x017B
 66: 0x0170 [0x06] ExtData[1]->WorkLocal[23] = 0
 67: 0x0173 [0x03] ExtData[1]->WorkLocal[22] = 2*
 68: 0x0178 [0x01] GOTO 0x01B4
 69: 0x017B [0x02] IF !(Work_Zone[0] == 3*) GOTO 0x018E
 70: 0x0183 [0x06] ExtData[1]->WorkLocal[23] = 0
 71: 0x0186 [0x03] ExtData[1]->WorkLocal[22] = 3*
 72: 0x018B [0x01] GOTO 0x01B4
 73: 0x018E [0x02] IF !(Work_Zone[0] == 4*) GOTO 0x01A1
 74: 0x0196 [0x06] ExtData[1]->WorkLocal[23] = 0
 75: 0x0199 [0x03] ExtData[1]->WorkLocal[22] = 4*
 76: 0x019E [0x01] GOTO 0x01B4
 77: 0x01A1 [0x02] IF !(Work_Zone[0] == 5*) GOTO 0x01B4
 78: 0x01A9 [0x06] ExtData[1]->WorkLocal[23] = 0
 79: 0x01AC [0x03] ExtData[1]->WorkLocal[22] = 5*
 80: 0x01B1 [0x01] GOTO 0x01B4

SUBROUTINE_01B4:
 81: 0x01B4 [0x01] GOTO 0x01DA
 82: 0x01B7 [0x02] IF !(Work_Zone[0] == 1*) GOTO 0x01C5
 83: 0x01BF [0x06] ExtData[1]->WorkLocal[23] = 0
 84: 0x01C2 [0x01] GOTO 0x01DA
 85: 0x01C5 [0x02] IF !(Work_Zone[0] == 2*) GOTO 0x01DA
 86: 0x01CD [0x06] ExtData[1]->WorkLocal[23] = 0
 87: 0x01D0 [0x03] Work_Zone[1] = 1073741824*
 88: 0x01D5 [0x21] END_EVENT
 89: 0x01D6 [0x00] END_REQSTACK()

SUBROUTINE_01DA:
 90: 0x01DA [0x01] GOTO 0x0098
 91: 0x01DD [0x01] GOTO 0x01FA
 92: 0x01E0 [0x24] CREATE_DIALOG(message_id=7339*, default_option=1*, option_flags=0*)
    → "Enter the battlefield? [Enter./Decline.]"
 93: 0x01E7 [0x25] WAIT_DIALOG_SELECT()
 94: 0x01E8 [0x02] IF !(Work_Zone[0] == 1*) GOTO 0x01FA
 95: 0x01F0 [0x03] Work_Zone[1] = 1073741824*
 96: 0x01F5 [0x21] END_EVENT
 97: 0x01F6 [0x00] END_REQSTACK()

SUBROUTINE_01FA:
 98: 0x01FA [0x42] SET_CLI_EVENT_CANCEL_DATA()
 99: 0x01FB [0x03] Work_Zone[1] = 255*
100: 0x0200 [0x43] SEND_EVENT_UPDATE: Send pending tag to server (packet 0x005B)
101: 0x0202 [0x43] SEND_EVENT_UPDATE: Check pending flag (skip if not pending)
102: 0x0204 [0x06] Work_Zone[1] = 0
103: 0x0207 [0x06] Work_Zone[2] = 0
104: 0x020A [0x06] Work_Zone[3] = 0
105: 0x020D [0x06] Work_Zone[4] = 0
106: 0x0210 [0x40] SET_BIT_WORK_RANGE(start_bit=0*, end_bit=7*, target=Work_Zone[1], source=ExtData[1]->WorkLocal[2])
107: 0x0219 [0x40] SET_BIT_WORK_RANGE(start_bit=8*, end_bit=11*, target=Work_Zone[1], source=ExtData[1]->WorkLocal[3])
108: 0x0222 [0x40] SET_BIT_WORK_RANGE(start_bit=12*, end_bit=15*, target=Work_Zone[1], source=ExtData[1]->WorkLocal[4])
109: 0x022B [0x40] SET_BIT_WORK_RANGE(start_bit=16*, end_bit=23*, target=Work_Zone[1], source=1*)
110: 0x0234 [0x40] SET_BIT_WORK_RANGE(start_bit=24*, end_bit=31*, target=Work_Zone[1], source=ExtData[1]->WorkLocal[22])
111: 0x023D [0x43] SEND_EVENT_UPDATE: Send pending tag to server (packet 0x005B)
112: 0x023F [0x43] SEND_EVENT_UPDATE: Check pending flag (skip if not pending)
113: 0x0241 [0x03] ExtData[1]->WorkLocal[19] = Work_Zone[2]
114: 0x0246 [0x03] ExtData[1]->WorkLocal[10] = Work_Zone[3]
115: 0x024B [0x03] ExtData[1]->WorkLocal[11] = Work_Zone[4]
116: 0x0250 [0x03] ExtData[1]->WorkLocal[20] = Work_Zone[5]
117: 0x0255 [0x03] ExtData[1]->WorkLocal[17] = Work_Zone[7]
118: 0x025A [0x02] IF !(ExtData[1]->WorkLocal[19] == 1*) GOTO 0x0265
119: 0x0262 [0x01] GOTO 0x03FE
120: 0x0265 [0x02] IF !(ExtData[1]->WorkLocal[19] == 2*) GOTO 0x027B
121: 0x026D [0x48] [System] [7329*]:
    → "You are cleared to enter the battlefield, but you cannot while party members are engaged in combat."
122: 0x0270 [0x23] WAIT_FOR_DIALOG_INTERACTION
123: 0x0271 [0x03] Work_Zone[1] = 4095*
124: 0x0276 [0x21] END_EVENT
125: 0x0277 [0x00] END_REQSTACK()

SUBROUTINE_0346:
126: 0x0346 [0x02] IF !(ExtData[1]->WorkLocal[11] == 0*) GOTO 0x036C
127: 0x034E [0x02] IF !(ExtData[1]->WorkLocal[17] == 1*) GOTO 0x036C
128: 0x0356 [0x24] CREATE_DIALOG(message_id=7335*, default_option=1*, option_flags=0*)
    → "Skip the event? [Yes./No.]"
129: 0x035D [0x25] WAIT_DIALOG_SELECT()
130: 0x035E [0x02] IF !(Work_Zone[0] == 0*) GOTO 0x036C
131: 0x0366 [0x05] ExtData[1]->WorkLocal[18] = 1
132: 0x0369 [0x01] GOTO 0x036C

SUBROUTINE_036C:
133: 0x036C [0x02] IF !(ExtData[1]->WorkLocal[18] <= 0*) GOTO 0x0387
134: 0x0374 [0x03] ExtData[1]->WorkLocal[16] = 1*
135: 0x0379 [0x9D] ExtData[1]->WorkLocal[16] = 0x049C[ExtData[1]->WorkLocal[10]] // Read WORD
136: 0x0381 [0x1A] CALL_SUBROUTINE(address=0x043A)
137: 0x0384 [0x01] GOTO 0x0397
138: 0x0387 [0x03] ExtData[1]->WorkLocal[16] = 1*
139: 0x038C [0x9D] ExtData[1]->WorkLocal[16] = 0x049C[ExtData[1]->WorkLocal[10]] // Read WORD
140: 0x0394 [0x1A] CALL_SUBROUTINE(address=0x043A)

SUBROUTINE_0397:
141: 0x0397 [0x02] IF !(ExtData[1]->WorkLocal[18] == 0*) GOTO 0x03A5
142: 0x039F [0x1A] CALL_SUBROUTINE(address=0x05CF)
143: 0x03A2 [0x01] GOTO 0x03BC
144: 0x03A5 [0x6C] FADE_ENTITY_COLOR(entity_id=LocalPlayer, end_alpha=0*, fade_time=1*)
145: 0x03AE [0x46] CAMERA_CONTROL: Query status
146: 0x03B0 [0x15] 0x0200 /= ExtData[1]->WorkLocal[21]
147: 0x03B5 [0x00] END_REQSTACK()

SUBROUTINE_03BC:
148: 0x03BC [0x1C] WAIT(20* ticks)
149: 0x03BF [0x45] LOAD_SCHEDULED_TASK: Load scheduler "fdi1" with entities [LocalPlayer, LocalPlayer], work=[200*, 0*]
150: 0x03D0 [0x1C] WAIT(60* ticks)
151: 0x03D3 [0xCD] LOAD_SCHEDULED_TASK_ALT4: Load scheduler "main" with entities [LocalPlayer, LocalPlayer], work=[125*, 0*]
152: 0x03E4 [0x1C] WAIT(120* ticks)
153: 0x03E7 [0x40] SET_BIT_WORK_RANGE(start_bit=0*, end_bit=15*, target=Work_Zone[1], source=23*)
154: 0x03F0 [0x40] SET_BIT_WORK_RANGE(start_bit=16*, end_bit=31*, target=Work_Zone[1], source=ExtData[1]->WorkLocal[20])
155: 0x03F9 [0x21] END_EVENT
156: 0x03FA [0x00] END_REQSTACK()

SUBROUTINE_03FE:
157: 0x03FE [0x48] [System] [7328*]:
    → "You cannot enter the battlefield at present. Please wait a little longer."
158: 0x0401 [0x23] WAIT_FOR_DIALOG_INTERACTION
159: 0x0402 [0x45] LOAD_SCHEDULED_TASK: Load scheduler "whi1" with entities [LocalPlayer, LocalPlayer], work=[201*, 0*]
160: 0x0413 [0x45] LOAD_SCHEDULED_TASK: Load scheduler "blof" with entities [LocalPlayer, LocalPlayer], work=[200*, 0*]
161: 0x0424 [0x45] LOAD_SCHEDULED_TASK: Load scheduler "fdi0" with entities [LocalPlayer, LocalPlayer], work=[200*, 0*]
162: 0x0435 [0x1A] CALL_SUBROUTINE(address=0x046B)
163: 0x0438 [0x21] END_EVENT
164: 0x0439 [0x00] END_REQSTACK()

SUBROUTINE_043A:
165: 0x043A [0x9D] ExtData[1]->WorkLocal[12] = 0x04BC[ExtData[1]->WorkLocal[16]] // Read WORD
166: 0x0442 [0x9D] ExtData[1]->WorkLocal[13] = 0x04CC[ExtData[1]->WorkLocal[16]] // Read WORD
167: 0x044A [0x9D] ExtData[1]->WorkLocal[14] = 0x04DC[ExtData[1]->WorkLocal[16]] // Read WORD
168: 0x0452 [0x9D] ExtData[1]->WorkLocal[15] = 0x04EC[ExtData[1]->WorkLocal[16]] // Read WORD
169: 0x045A [0x5C] MUSIC_CONTROL: Set Idle (Day) music to song ExtData[1]->WorkLocal[12]
170: 0x045E [0x5C] MUSIC_CONTROL: Set Idle (Night) music to song ExtData[1]->WorkLocal[13]
171: 0x0462 [0x5C] MUSIC_CONTROL: Set Combat (Solo) music to song ExtData[1]->WorkLocal[14]
172: 0x0466 [0x5C] MUSIC_CONTROL: Set Combat (Party) music to song ExtData[1]->WorkLocal[15]
173: 0x046A [0x1B] RETURN

SUBROUTINE_046B:
174: 0x046B [0x5C] MUSIC_CONTROL: Set Idle (Day) music to song 56*
175: 0x046F [0x5C] MUSIC_CONTROL: Set Idle (Night) music to song 56*
176: 0x0473 [0x5C] MUSIC_CONTROL: Set Combat (Solo) music to song 56*
177: 0x0477 [0x5C] MUSIC_CONTROL: Set Combat (Party) music to song 56*
178: 0x047B [0x1B] RETURN
```

#### Data or dead code:

```
# Data Section: 0x047C (256 bytes)
     0x047C: 00 80 28 80 28 80 28 80 28 80 28 80 28 80 28 80
     0x048C: 28 80 28 80 28 80 28 80 28 80 28 80 28 80 28 80
     0x049C: 00 80 00 80 00 80 00 80 01 80 00 80 00 80 00 80
     0x04AC: 00 80 00 80 00 80 00 80 00 80 00 80 00 80 00 80
     0x04BC: 27 80 29 80 24 80 24 80 00 80 00 80 00 80 00 80
     0x04CC: 27 80 29 80 24 80 24 80 00 80 00 80 00 80 00 80
     0x04DC: 27 80 29 80 24 80 24 80 00 80 00 80 00 80 00 80
     0x04EC: 27 80 29 80 24 80 24 80 00 80 00 80 00 80 00 80
     0x04FC: 00 80 2A 80 2B 80 2C 80 2D 80 2E 80 2F 80 30 80
     0x050C: 31 80 32 80 00 80 00 80 00 80 00 80 00 80 00 80
     0x051C: 00 80 33 80 34 80 35 80 36 80 37 80 38 80 39 80
     0x052C: 3A 80 3B 80 00 80 00 80 00 80 00 80 00 80 00 80
     0x053C: 00 80 3C 80 3D 80 3E 80 3F 80 3C 80 40 80 41 80
     0x054C: 41 80 41 80 00 80 00 80 00 80 00 80 00 80 00 80
     0x055C: 00 80 42 80 43 80 44 80 45 80 46 80 47 80 46 80
     0x056C: 46 80 46 80 00 80 00 80 00 80 00 80 00 80 00 80
# Dead code (unreachable instructions):
     0x0067 [0x01] GOTO 0x006A
# Dead code (unreachable instructions):
     0x01D7 [0x01] GOTO 0x01DA
# Dead code (unreachable instructions):
     0x01F7 [0x01] GOTO 0x01FA
# Dead code (unreachable instructions):
     0x0278 [0x01] GOTO 0x03FE
     0x028E [0x01] GOTO 0x03FE
     0x02AC [0x01] GOTO 0x03FE
     0x02C2 [0x01] GOTO 0x03FE
# Dead code (unreachable instructions):
     0x03B6 [0x80] LOAD_WAIT(entity=Unknown NPC (ID: 1174649856/0x4603BC00))
     0x03BB [0x00] END_REQSTACK()
# Dead code (unreachable instructions):
     0x03FB [0x01] GOTO 0x03FE
```

### Event 21

#### Metadata

| Field        | Value      |
|--------------|------------|
| Entrypoint   | 0x057C     |
| Data Size    | 1259 bytes |
| Instructions | 19         |

```
      00 01 02 03 04 05 06 07  08 09 0A 0B 0C 0D 0E 0F
      -- -- -- -- -- -- -- --  -- -- -- -- -- -- -- --
0570:                                      48 48 80 1C              HH..
0580: 49 80 24 4A 80 01 80 00  80 25 02 00 10 00 80 00  I.$J.....%......
0590: BD 05 24 4B 80 01 80 00  80 25 02 00 10 00 80 00  ..$K.....%......
05A0: AA 05 03 01 10 4C 80 01  BA 05 02 00 10 01 80 00  .....L..........
05B0: BA 05 03 01 10 07 80 01  BA 05 01 CD 05 02 00 10  ................
05C0: 01 80 00 CD 05 03 01 10  07 80 01 CD 05 21 00 1B  .............!..
05D0: 46 01 38 4D 80 27 10 61  E0 0D 01 04 92 00 F0 FF  F.8M.'.a........
05E0: FF 7F 92 01 61 E0 0D 01  94 01 F0 FF FF 7F 94 01  ....a...........
05F0: 61 E0 0D 01 02 1B 00 00  80 02 73 06 BA F0 FF FF  a.........s.....
0600: 7F 4E 80 4F 80 50 80 51  80 BA 61 E0 0D 01 52 80  .N.O.P.Q..a...R.
0610: 53 80 50 80 54 80 29 10  61 E0 0D 01 0C 80 F0 FF  S.P.T.).a.......
0620: FF 7F 80 61 E0 0D 01 1C  21 80 2C 61 E0 0D 01 61  ...a....!.,a...a
0630: E0 0D 01 69 64 73 32 5C  00 29 80 5C 01 29 80 5C  ...ids2\.).\.).\
0640: 02 29 80 5C 03 29 80 9A  27 10 F0 FF FF 7F 06 45  .).\.)..'......E
0650: 55 80 F0 FF FF 7F F0 FF  FF 7F 63 64 76 32 00 80  U.........cdv2..
0660: 1A 18 08 2C 61 E0 0D 01  61 E0 0D 01 64 65 31 30  ...,a...a...de10
0670: 01 EA 06 BA F0 FF FF 7F  56 80 57 80 50 80 58 80  ........V.W.P.X.
0680: BA 61 E0 0D 01 59 80 5A  80 50 80 5B 80 29 10 61  .a...Y.Z.P.[.).a
0690: E0 0D 01 0C 80 F0 FF FF  7F 80 61 E0 0D 01 1C 21  ..........a....!
06A0: 80 2C 61 E0 0D 01 61 E0  0D 01 69 64 73 31 5C 00  .,a...a...ids1\.
06B0: 29 80 5C 01 29 80 5C 02  29 80 5C 03 29 80 9A 27  ).\.).\.).\.)..'
06C0: 10 F0 FF FF 7F 06 45 55  80 F0 FF FF 7F F0 FF FF  ......EU........
06D0: 7F 63 64 76 31 00 80 1A  18 08 1C 21 80 2C 61 E0  .cdv1......!.,a.
06E0: 0D 01 61 E0 0D 01 64 65  30 30 1C 5C 80 5D 00 80  ..a...de00.\.]..
06F0: 5D 80 1C 5D 80 27 10 F0  FF FF 7F 07 1C 5D 80 CD  ]..].'.......]..
0700: 1E 80 F8 FF FF 7F F8 FF  FF 7F 6D 61 69 6E 00 80  ..........main..
0710: 1C 21 80 92 01 F0 FF FF  7F 1C 25 80 1A 39 08 1C  .!........%..9..
0720: 5E 80 29 10 61 E0 0D 01  0D 80 61 E0 0D 01 52 55  ^.).a.....a...RU
0730: 80 F0 FF FF 7F F0 FF FF  7F 63 64 76 31 52 55 80  .........cdv1RU.
0740: F0 FF FF 7F F0 FF FF 7F  63 64 76 32 45 55 80 F0  ........cdv2EU..
0750: FF FF 7F F0 FF FF 7F 30  62 6C 66 00 80 1C 14 80  .......0blf.....
0760: AB 11 00 80 1C 01 80 5C  00 27 80 5C 01 27 80 5C  .......\.'.\.'.\
0770: 02 27 80 5C 03 27 80 9A  03 01 10 10 80 43 00 43  .'.\.'.......C.C
0780: 01 1C 21 80 BA F0 FF FF  7F 5F 80 60 80 61 80 46  ..!......_.`.a.F
0790: 80 03 01 10 62 80 43 00  43 01 1C 5E 80 46 00 45  ....b.C.C..^.F.E
07A0: 20 80 F0 FF FF 7F F0 FF  FF 7F 66 64 69 32 00 80   .........fdi2..
07B0: 1C 21 80 CD 24 80 F8 FF  FF 7F F8 FF FF 7F 6D 61  .!..$.........ma
07C0: 69 6E 00 80 1C 5E 80 92  00 F0 FF FF 7F 1C 63 80  in...^........c.
07D0: 03 01 10 01 80 1B 45 20  80 F0 FF FF 7F F0 FF FF  ......E ........
07E0: 7F 66 64 69 30 00 80 55  20 80 F0 FF FF 7F F0 FF  .fdi0..U .......
07F0: FF 7F 66 64 69 30 1B 45  20 80 F0 FF FF 7F F0 FF  ..fdi0.E .......
0800: FF 7F 66 64 6F 30 00 80  55 20 80 F0 FF FF 7F F0  ..fdo0..U ......
0810: FF FF 7F 66 64 6F 30 1B  45 20 80 F0 FF FF 7F F0  ...fdo0.E ......
0820: FF FF 7F 66 64 69 31 00  80 55 20 80 F0 FF FF 7F  ...fdi1..U .....
0830: F0 FF FF 7F 66 64 69 31  1B 45 20 80 F0 FF FF 7F  ....fdi1.E .....
0840: F0 FF FF 7F 66 64 6F 31  00 80 55 20 80 F0 FF FF  ....fdo1..U ....
0850: 7F F0 FF FF 7F 66 64 6F  31 1B 45 26 80 F0 FF FF  .....fdo1.E&....
0860: 7F F0 FF FF 7F 77 68 69  31 00 80 55 26 80 F0 FF  .....whi1..U&...
0870: FF 7F F0 FF FF 7F 77 68  69 31 1B 45 26 80 F0 FF  ......whi1.E&...
0880: FF 7F F0 FF FF 7F 77 68  6F 31 00 80 55 26 80 F0  ......who1..U&..
0890: FF FF 7F F0 FF FF 7F 77  68 6F 31 1B 45 26 80 F0  .......who1.E&..
08A0: FF FF 7F F0 FF FF 7F 77  68 6F 32 00 80 55 26 80  .......who2..U&.
08B0: F0 FF FF 7F F0 FF FF 7F  77 68 6F 32 1B 45 26 80  ........who2.E&.
08C0: F0 FF FF 7F F0 FF FF 7F  77 68 6F 33 00 80 55 26  ........who3..U&
08D0: 80 F0 FF FF 7F F0 FF FF  7F 77 68 6F 33 1B 62 01  .........who3.b.
08E0: 80 F0 FF FF 7F F0 FF FF  7F 6D 61 69 6E 00 80 1C  .........main...
08F0: 64 80 45 20 80 F0 FF FF  7F F0 FF FF 7F 66 64 6F  d.E .........fdo
0900: 31 00 80 55 20 80 F0 FF  FF 7F F0 FF FF 7F 66 64  1..U .........fd
0910: 6F 31 1B 45 20 80 F0 FF  FF 7F F0 FF FF 7F 66 64  o1.E .........fd
0920: 69 31 00 80 62 0A 80 F0  FF FF 7F F0 FF FF 7F 6D  i1..b..........m
0930: 61 69 6E 00 80 1C 5E 80  55 20 80 F0 FF FF 7F F0  ain...^.U ......
0940: FF FF 7F 66 64 69 31 1B  45 20 80 F0 FF FF 7F F0  ...fdi1.E ......
0950: FF FF 7F 62 6C 6F 6E 00  80 45 26 80 F0 FF FF 7F  ...blon..E&.....
0960: F0 FF FF 7F 62 6C 6F 6E  00 80 1B 45 26 80 F0 FF  ....blon...E&...
0970: FF 7F F0 FF FF 7F 77 68  69 30 00 80 55 26 80 F0  ......whi0..U&..
0980: FF FF 7F F0 FF FF 7F 77  68 69 30 1B 45 26 80 F0  .......whi0.E&..
0990: FF FF 7F F0 FF FF 7F 77  68 6F 30 00 80 55 26 80  .......who0..U&.
09A0: F0 FF FF 7F F0 FF FF 7F  77 68 6F 30 1B 45 65 80  ........who0.Ee.
09B0: F0 FF FF 7F F0 FF FF 7F  65 66 6F 6E 00 80 55 65  ........efon..Ue
09C0: 80 F0 FF FF 7F F0 FF FF  7F 65 66 6F 6E 1B 45 20  .........efon.E 
09D0: 80 F0 FF FF 7F F0 FF FF  7F 66 64 69 73 00 80 1B  .........fdis...
09E0: 45 20 80 F0 FF FF 7F F0  FF FF 7F 66 64 6F 73 00  E .........fdos.
09F0: 80 55 20 80 F0 FF FF 7F  F0 FF FF 7F 66 64 6F 73  .U .........fdos
0A00: 1B 45 20 80 F0 FF FF 7F  F0 FF FF 7F 66 64 69 66  .E .........fdif
0A10: 00 80 1B 45 20 80 F0 FF  FF 7F F0 FF FF 7F 66 64  ...E .........fd
0A20: 6F 66 00 80 55 20 80 F0  FF FF 7F F0 FF FF 7F 66  of..U .........f
0A30: 64 6F 66 1B 45 20 80 F0  FF FF 7F F0 FF FF 7F 66  dof.E .........f
0A40: 64 69 70 00 80 1B 45 20  80 F0 FF FF 7F F0 FF FF  dip...E ........
0A50: 7F 66 64 6F 70 00 80 55  20 80 F0 FF FF 7F F0 FF  .fdop..U .......
0A60: FF 7F 66 64 6F 70 1B                              ..fdop.         
```

#### Opcodes

```
  0: 0x057C [0x48] [System] [7686*]:
    → "You have not claimed all of your battle rewards."
  1: 0x057F [0x1C] WAIT(40* ticks)
  2: 0x0582 [0x24] CREATE_DIALOG(message_id=7350*, default_option=1*, option_flags=0*)
    → "Relinquish your claim to the battle spoils? [Yes./On second thought...]"
  3: 0x0589 [0x25] WAIT_DIALOG_SELECT()
  4: 0x058A [0x02] IF !(Work_Zone[0] == 0*) GOTO 0x05BD
  5: 0x0592 [0x24] CREATE_DIALOG(message_id=7351*, default_option=1*, option_flags=0*)
    → "Items will be lost. Are you certain? [Yes, relinquish./No, retain.]"
  6: 0x0599 [0x25] WAIT_DIALOG_SELECT()
  7: 0x059A [0x02] IF !(Work_Zone[0] == 0*) GOTO 0x05AA
  8: 0x05A2 [0x03] Work_Zone[1] = 8191*
  9: 0x05A7 [0x01] GOTO 0x05BA
 10: 0x05AA [0x02] IF !(Work_Zone[0] == 1*) GOTO 0x05BA
 11: 0x05B2 [0x03] Work_Zone[1] = 1073741824*
 12: 0x05B7 [0x01] GOTO 0x05BA

SUBROUTINE_05BA:
 13: 0x05BA [0x01] GOTO 0x05CD
 14: 0x05BD [0x02] IF !(Work_Zone[0] == 1*) GOTO 0x05CD
 15: 0x05C5 [0x03] Work_Zone[1] = 1073741824*
 16: 0x05CA [0x01] GOTO 0x05CD

SUBROUTINE_05CD:
 17: 0x05CD [0x21] END_EVENT
 18: 0x05CE [0x00] END_REQSTACK()
```

#### Data or dead code:

```
# Dead code (unreachable instructions):
     0x05CF [0x1B] RETURN
     0x05D0 [0x46] CAMERA_CONTROL: Disable user control
     0x05D2 [0x38] SET_CLIENT_EVENT_MODE(mode=19*)
     0x05D5 [0x27] REQ_SET(priority=0x10, entity_id=Unnamed NPC (ID: 17686625/0x010DE061), tag_num=0x04)
     0x05DC [0x92] LocalPlayer->Render.Flags3 = Flags3  // No change (flag=0)
     0x05E2 [0x92] Unnamed NPC (ID: 17686625/0x010DE061)->Render.Flags3 ^= 0x01
     0x05E8 [0x94] LocalPlayer->Render.Flags3 ^= 0x01
     0x05EE [0x94] Unnamed NPC (ID: 17686625/0x010DE061)->Render.Flags3 ^= 0x01
     0x05F4 [0x02] IF !(ExtData[1]->WorkLocal[27] <= 0*) GOTO 0x0673
     0x05FC [0xBA] SET_ENTITY_POSITION(entity_id=LocalPlayer, pos_x=-577.834*, pos_z=524.358*, pos_y=-227.999*, direction=283.6°*)
     0x0609 [0xBA] SET_ENTITY_POSITION(entity_id=Unnamed NPC (ID: 17686625/0x010DE061), pos_x=-574.164*, pos_z=536.512*, pos_y=-227.999*, direction=103.3°*)
     0x0616 [0x29] REQ_SET_WAIT(priority=0x10, entity_id=Unnamed NPC (ID: 17686625/0x010DE061), tag_num=0x0C)
     0x061D [0x80] LOAD_WAIT(entity=LocalPlayer)
     0x0622 [0x80] LOAD_WAIT(entity=Unnamed NPC (ID: 17686625/0x010DE061))
     0x0627 [0x1C] WAIT(60* ticks)
     0x062A [0x2C] CREATE_SCHEDULER_TASK: Create scheduler "ids2" with entities [Unnamed NPC (ID: 17686625/0x010DE061), Unnamed NPC (ID: 17686625/0x010DE061)]
     0x0637 [0x5C] MUSIC_CONTROL: Set Idle (Day) music to song 55*
     0x063B [0x5C] MUSIC_CONTROL: Set Idle (Night) music to song 55*
     0x063F [0x5C] MUSIC_CONTROL: Set Combat (Solo) music to song 55*
     0x0643 [0x5C] MUSIC_CONTROL: Set Combat (Party) music to song 55*
     0x0647 [0x9A] WAIT_MUSIC_SERVER()
     0x0648 [0x27] REQ_SET(priority=0x10, entity_id=LocalPlayer, tag_num=0x06)
     0x064F [0x45] LOAD_SCHEDULED_TASK: Load scheduler "cdv2" with entities [LocalPlayer, LocalPlayer], work=[578*, 0*]
     0x0660 [0x1A] CALL_SUBROUTINE(address=0x0818)
     0x0663 [0x2C] CREATE_SCHEDULER_TASK: Create scheduler "de10" with entities [Unnamed NPC (ID: 17686625/0x010DE061), Unnamed NPC (ID: 17686625/0x010DE061)]
     0x0670 [0x01] GOTO 0x06EA
     0x0673 [0xBA] SET_ENTITY_POSITION(entity_id=LocalPlayer, pos_x=-578.392*, pos_z=529.673*, pos_y=-227.999*, direction=317.8°*)
     0x0680 [0xBA] SET_ENTITY_POSITION(entity_id=Unnamed NPC (ID: 17686625/0x010DE061), pos_x=-567.749*, pos_z=540.384*, pos_y=-227.999*, direction=137.4°*)
     0x068D [0x29] REQ_SET_WAIT(priority=0x10, entity_id=Unnamed NPC (ID: 17686625/0x010DE061), tag_num=0x0C)
     0x0694 [0x80] LOAD_WAIT(entity=LocalPlayer)
     0x0699 [0x80] LOAD_WAIT(entity=Unnamed NPC (ID: 17686625/0x010DE061))
     0x069E [0x1C] WAIT(60* ticks)
     0x06A1 [0x2C] CREATE_SCHEDULER_TASK: Create scheduler "ids1" with entities [Unnamed NPC (ID: 17686625/0x010DE061), Unnamed NPC (ID: 17686625/0x010DE061)]
     0x06AE [0x5C] MUSIC_CONTROL: Set Idle (Day) music to song 55*
     0x06B2 [0x5C] MUSIC_CONTROL: Set Idle (Night) music to song 55*
     0x06B6 [0x5C] MUSIC_CONTROL: Set Combat (Solo) music to song 55*
     0x06BA [0x5C] MUSIC_CONTROL: Set Combat (Party) music to song 55*
     0x06BE [0x9A] WAIT_MUSIC_SERVER()
     0x06BF [0x27] REQ_SET(priority=0x10, entity_id=LocalPlayer, tag_num=0x06)
     0x06C6 [0x45] LOAD_SCHEDULED_TASK: Load scheduler "cdv1" with entities [LocalPlayer, LocalPlayer], work=[578*, 0*]
     0x06D7 [0x1A] CALL_SUBROUTINE(address=0x0818)
     0x06DA [0x1C] WAIT(60* ticks)
     0x06DD [0x2C] CREATE_SCHEDULER_TASK: Create scheduler "de00" with entities [Unnamed NPC (ID: 17686625/0x010DE061), Unnamed NPC (ID: 17686625/0x010DE061)]
     0x06EA [0x1C] WAIT(600* ticks)
     0x06ED [0x5D] SET_MUSIC_VOLUME(volume=0*, fade_time=300*)
     0x06F2 [0x1C] WAIT(300* ticks)
     0x06F5 [0x27] REQ_SET(priority=0x10, entity_id=LocalPlayer, tag_num=0x07)
     0x06FC [0x1C] WAIT(300* ticks)
     0x06FF [0xCD] LOAD_SCHEDULED_TASK_ALT4: Load scheduler "main" with entities [EventEntity, EventEntity], work=[124*, 0*]
     0x0710 [0x1C] WAIT(60* ticks)
     0x0713 [0x92] LocalPlayer->Render.Flags3 ^= 0x01
     0x0719 [0x1C] WAIT(120* ticks)
     0x071C [0x1A] CALL_SUBROUTINE(address=0x0839)
     0x071F [0x1C] WAIT(30* ticks)
     0x0722 [0x29] REQ_SET_WAIT(priority=0x10, entity_id=Unnamed NPC (ID: 17686625/0x010DE061), tag_num=0x0D)
     0x0729 [0x80] LOAD_WAIT(entity=Unnamed NPC (ID: 17686625/0x010DE061))
     0x072E [0x52] END_LOAD_SCHEDULER: End scheduler "cdv1" with entities [LocalPlayer, LocalPlayer], work=578*
     0x073D [0x52] END_LOAD_SCHEDULER: End scheduler "cdv2" with entities [LocalPlayer, LocalPlayer], work=578*
     0x074C [0x45] LOAD_SCHEDULED_TASK: Load scheduler "0blf" with entities [LocalPlayer, LocalPlayer], work=[578*, 0*]
     0x075D [0x1C] WAIT(15* ticks)
     0x0760 [0xAB] EventEntity->DespawnValue = 0* // Set despawn value
     0x0764 [0x1C] WAIT(1* ticks)
     0x0767 [0x5C] MUSIC_CONTROL: Set Idle (Day) music to song 56*
     0x076B [0x5C] MUSIC_CONTROL: Set Idle (Night) music to song 56*
     0x076F [0x5C] MUSIC_CONTROL: Set Combat (Solo) music to song 56*
     0x0773 [0x5C] MUSIC_CONTROL: Set Combat (Party) music to song 56*
     0x0777 [0x9A] WAIT_MUSIC_SERVER()
     0x0778 [0x03] Work_Zone[1] = 255*
     0x077D [0x43] SEND_EVENT_UPDATE: Send pending tag to server (packet 0x005B)
     0x077F [0x43] SEND_EVENT_UPDATE: Check pending flag (skip if not pending)
     0x0781 [0x1C] WAIT(60* ticks)
     0x0784 [0xBA] SET_ENTITY_POSITION(entity_id=LocalPlayer, pos_x=-640.500*, pos_z=-528.500*, pos_y=-19.850*, direction=270.0°*)
     0x0791 [0x03] Work_Zone[1] = 65535*
     0x0796 [0x43] SEND_EVENT_UPDATE: Send pending tag to server (packet 0x005B)
     0x0798 [0x43] SEND_EVENT_UPDATE: Check pending flag (skip if not pending)
     0x079A [0x1C] WAIT(30* ticks)
     0x079D [0x46] CAMERA_CONTROL: Restore default settings
     0x079F [0x45] LOAD_SCHEDULED_TASK: Load scheduler "fdi2" with entities [LocalPlayer, LocalPlayer], work=[200*, 0*]
     0x07B0 [0x1C] WAIT(60* ticks)
     0x07B3 [0xCD] LOAD_SCHEDULED_TASK_ALT4: Load scheduler "main" with entities [EventEntity, EventEntity], work=[125*, 0*]
     0x07C4 [0x1C] WAIT(30* ticks)
     0x07C7 [0x92] LocalPlayer->Render.Flags3 = Flags3  // No change (flag=0)
     0x07CD [0x1C] WAIT(90* ticks)
     0x07D0 [0x03] Work_Zone[1] = 1*
     0x07D5 [0x1B] RETURN
     0x07D6 [0x45] LOAD_SCHEDULED_TASK: Load scheduler "fdi0" with entities [LocalPlayer, LocalPlayer], work=[200*, 0*]
     0x07E7 [0x55] WAIT_LOAD_SCHEDULER: Wait for scheduler "fdi0" with entities [LocalPlayer, LocalPlayer], work=200*
     0x07F6 [0x1B] RETURN
     0x07F7 [0x45] LOAD_SCHEDULED_TASK: Load scheduler "fdo0" with entities [LocalPlayer, LocalPlayer], work=[200*, 0*]
     0x0808 [0x55] WAIT_LOAD_SCHEDULER: Wait for scheduler "fdo0" with entities [LocalPlayer, LocalPlayer], work=200*
     0x0817 [0x1B] RETURN
     0x0818 [0x45] LOAD_SCHEDULED_TASK: Load scheduler "fdi1" with entities [LocalPlayer, LocalPlayer], work=[200*, 0*]
     0x0829 [0x55] WAIT_LOAD_SCHEDULER: Wait for scheduler "fdi1" with entities [LocalPlayer, LocalPlayer], work=200*
     0x0838 [0x1B] RETURN
     0x0839 [0x45] LOAD_SCHEDULED_TASK: Load scheduler "fdo1" with entities [LocalPlayer, LocalPlayer], work=[200*, 0*]
     0x084A [0x55] WAIT_LOAD_SCHEDULER: Wait for scheduler "fdo1" with entities [LocalPlayer, LocalPlayer], work=200*
     0x0859 [0x1B] RETURN
     0x085A [0x45] LOAD_SCHEDULED_TASK: Load scheduler "whi1" with entities [LocalPlayer, LocalPlayer], work=[201*, 0*]
     0x086B [0x55] WAIT_LOAD_SCHEDULER: Wait for scheduler "whi1" with entities [LocalPlayer, LocalPlayer], work=201*
     0x087A [0x1B] RETURN
     0x087B [0x45] LOAD_SCHEDULED_TASK: Load scheduler "who1" with entities [LocalPlayer, LocalPlayer], work=[201*, 0*]
     0x088C [0x55] WAIT_LOAD_SCHEDULER: Wait for scheduler "who1" with entities [LocalPlayer, LocalPlayer], work=201*
     0x089B [0x1B] RETURN
     0x089C [0x45] LOAD_SCHEDULED_TASK: Load scheduler "who2" with entities [LocalPlayer, LocalPlayer], work=[201*, 0*]
     0x08AD [0x55] WAIT_LOAD_SCHEDULER: Wait for scheduler "who2" with entities [LocalPlayer, LocalPlayer], work=201*
     0x08BC [0x1B] RETURN
     0x08BD [0x45] LOAD_SCHEDULED_TASK: Load scheduler "who3" with entities [LocalPlayer, LocalPlayer], work=[201*, 0*]
     0x08CE [0x55] WAIT_LOAD_SCHEDULER: Wait for scheduler "who3" with entities [LocalPlayer, LocalPlayer], work=201*
     0x08DD [0x1B] RETURN
     0x08DE [0x62] LOAD_EVENT_SCHEDULER: Load scheduler "main" with entities [LocalPlayer, LocalPlayer], work=[1*, 0*]
     0x08EF [0x1C] WAIT(45* ticks)
     0x08F2 [0x45] LOAD_SCHEDULED_TASK: Load scheduler "fdo1" with entities [LocalPlayer, LocalPlayer], work=[200*, 0*]
     0x0903 [0x55] WAIT_LOAD_SCHEDULER: Wait for scheduler "fdo1" with entities [LocalPlayer, LocalPlayer], work=200*
     0x0912 [0x1B] RETURN
     0x0913 [0x45] LOAD_SCHEDULED_TASK: Load scheduler "fdi1" with entities [LocalPlayer, LocalPlayer], work=[200*, 0*]
     0x0924 [0x62] LOAD_EVENT_SCHEDULER: Load scheduler "main" with entities [LocalPlayer, LocalPlayer], work=[2*, 0*]
     0x0935 [0x1C] WAIT(30* ticks)
     0x0938 [0x55] WAIT_LOAD_SCHEDULER: Wait for scheduler "fdi1" with entities [LocalPlayer, LocalPlayer], work=200*
     0x0947 [0x1B] RETURN
     0x0948 [0x45] LOAD_SCHEDULED_TASK: Load scheduler "blon" with entities [LocalPlayer, LocalPlayer], work=[200*, 0*]
     0x0959 [0x45] LOAD_SCHEDULED_TASK: Load scheduler "blon" with entities [LocalPlayer, LocalPlayer], work=[201*, 0*]
     0x096A [0x1B] RETURN
     0x096B [0x45] LOAD_SCHEDULED_TASK: Load scheduler "whi0" with entities [LocalPlayer, LocalPlayer], work=[201*, 0*]
     0x097C [0x55] WAIT_LOAD_SCHEDULER: Wait for scheduler "whi0" with entities [LocalPlayer, LocalPlayer], work=201*
     0x098B [0x1B] RETURN
     0x098C [0x45] LOAD_SCHEDULED_TASK: Load scheduler "who0" with entities [LocalPlayer, LocalPlayer], work=[201*, 0*]
     0x099D [0x55] WAIT_LOAD_SCHEDULER: Wait for scheduler "who0" with entities [LocalPlayer, LocalPlayer], work=201*
     0x09AC [0x1B] RETURN
     0x09AD [0x45] LOAD_SCHEDULED_TASK: Load scheduler "efon" with entities [LocalPlayer, LocalPlayer], work=[215*, 0*]
     0x09BE [0x55] WAIT_LOAD_SCHEDULER: Wait for scheduler "efon" with entities [LocalPlayer, LocalPlayer], work=215*
     0x09CD [0x1B] RETURN
     0x09CE [0x45] LOAD_SCHEDULED_TASK: Load scheduler "fdis" with entities [LocalPlayer, LocalPlayer], work=[200*, 0*]
     0x09DF [0x1B] RETURN
     0x09E0 [0x45] LOAD_SCHEDULED_TASK: Load scheduler "fdos" with entities [LocalPlayer, LocalPlayer], work=[200*, 0*]
     0x09F1 [0x55] WAIT_LOAD_SCHEDULER: Wait for scheduler "fdos" with entities [LocalPlayer, LocalPlayer], work=200*
     0x0A00 [0x1B] RETURN
     0x0A01 [0x45] LOAD_SCHEDULED_TASK: Load scheduler "fdif" with entities [LocalPlayer, LocalPlayer], work=[200*, 0*]
     0x0A12 [0x1B] RETURN
     0x0A13 [0x45] LOAD_SCHEDULED_TASK: Load scheduler "fdof" with entities [LocalPlayer, LocalPlayer], work=[200*, 0*]
     0x0A24 [0x55] WAIT_LOAD_SCHEDULER: Wait for scheduler "fdof" with entities [LocalPlayer, LocalPlayer], work=200*
     0x0A33 [0x1B] RETURN
     0x0A34 [0x45] LOAD_SCHEDULED_TASK: Load scheduler "fdip" with entities [LocalPlayer, LocalPlayer], work=[200*, 0*]
     0x0A45 [0x1B] RETURN
     0x0A46 [0x45] LOAD_SCHEDULED_TASK: Load scheduler "fdop" with entities [LocalPlayer, LocalPlayer], work=[200*, 0*]
     0x0A57 [0x55] WAIT_LOAD_SCHEDULER: Wait for scheduler "fdop" with entities [LocalPlayer, LocalPlayer], work=200*
     0x0A66 [0x1B] RETURN
```
