# 17686624

## Common Data

| Field            | Value                |
|------------------|----------------------|
| Zone             | Provenance (ID: 222) |
| Block Size       | 13348 bytes          |
| Total Events     | 9                    |
| References Count | 261                  |

## List of Events

| Event ID              | Entrypoint   |   Size |   Instructions |
|-----------------------|--------------|--------|----------------|
| [65535](#event-65535) | 0x0000       |      1 |              1 |
| [101](#event-101)     | 0x0001       |   4704 |            551 |
| [102](#event-102)     | 0x1261       |   1076 |            143 |
| [103](#event-103)     | 0x1695       |   1205 |            151 |
| [104](#event-104)     | 0x1B4A       |   1375 |            164 |
| [106](#event-106)     | 0x20A9       |   2132 |            262 |
| [105](#event-105)     | 0x28FD       |    542 |             75 |
| [107](#event-107)     | 0x2B1B       |    278 |             49 |
| [108](#event-108)     | 0x2C31       |    939 |            110 |

## DAT References (imed_data)

|   Index | Hex Value   |   Dec Value |
|---------|-------------|-------------|
|       0 | 0x0000      |           0 |
|       1 | 0x0078      |         120 |
|       2 | 0x0013      |          19 |
|       3 | 0xFFF636AD  |  4294325933 |
|       4 | 0xFFF7FCC9  |  4294442185 |
|       5 | 0xFFFFB217  |  4294947351 |
|       6 | 0x0DD2      |        3538 |
|       7 | 0xFFF64324  |  4294329124 |
|       8 | 0xFFF80142  |  4294443330 |
|       9 | 0xFFFFB263  |  4294947427 |
|      10 | 0x05F4      |        1524 |
|      11 | 0xFFF64348  |  4294329160 |
|      12 | 0xFFF7FC24  |  4294442020 |
|      13 | 0xFFFFB0B4  |  4294946996 |
|      14 | 0x0673      |        1651 |
|      15 | 0xFFF63614  |  4294325780 |
|      16 | 0xFFF80759  |  4294444889 |
|      17 | 0xFFFFB1E1  |  4294947297 |
|      18 | 0x03DB      |         987 |
|      19 | 0xFFF6313E  |  4294324542 |
|      20 | 0xFFF80596  |  4294444438 |
|      21 | 0xFFFFAFEC  |  4294946796 |
|      22 | 0x0446      |        1094 |
|      23 | 0xFFF62BD2  |  4294323154 |
|      24 | 0xFFF7FED1  |  4294442705 |
|      25 | 0xFFFFB17C  |  4294947196 |
|      26 | 0x0F8A      |        3978 |
|      27 | 0xFFF62BCF  |  4294323151 |
|      28 | 0xFFF7FA0D  |  4294441485 |
|      29 | 0xFFFFB23A  |  4294947386 |
|      30 | 0x0F0F      |        3855 |
|      31 | 0xFFF63C03  |  4294327299 |
|      32 | 0xFFF7F5A2  |  4294440354 |
|      33 | 0x09D2      |        2514 |
|      34 | 0xFFF6382A  |  4294326314 |
|      35 | 0xFFF7F09B  |  4294439067 |
|      36 | 0x0AF5      |        2805 |
|      37 | 0xFFF6304E  |  4294324302 |
|      38 | 0xFFF7F32B  |  4294439723 |
|      39 | 0xFFFFB291  |  4294947473 |
|      40 | 0x0DCF      |        3535 |
|      41 | 0xFFF63D9B  |  4294327707 |
|      42 | 0xFFF8073C  |  4294444860 |
|      43 | 0xFFFFB1E0  |  4294947296 |
|      44 | 0x05A8      |        1448 |
|      45 | 0x001E      |          30 |
|      46 | 0x0585      |        1413 |
|      47 | 0x005A      |          90 |
|      48 | 0x1D69      |        7529 |
|      49 | 0x1D6A      |        7530 |
|      50 | 0x00DB      |         219 |
|      51 | 0x003C      |          60 |
|      52 | 0x022D      |         557 |
|      53 | 0x00C8      |         200 |
|      54 | 0x00A5      |         165 |
|      55 | 0x0064      |         100 |
|      56 | 0x0029      |          41 |
|      57 | 0x0584      |        1412 |
|      58 | 0x1D6B      |        7531 |
|      59 | 0x1D6C      |        7532 |
|      60 | 0x09D9      |        2521 |
|      61 | 0x1D6D      |        7533 |
|      62 | 0x1D6E      |        7534 |
|      63 | 0x1D6F      |        7535 |
|      64 | 0x0B29      |        2857 |
|      65 | 0x1D70      |        7536 |
|      66 | 0x1D71      |        7537 |
|      67 | 0x1D72      |        7538 |
|      68 | 0x1D73      |        7539 |
|      69 | 0x1D74      |        7540 |
|      70 | 0x1D75      |        7541 |
|      71 | 0x1D76      |        7542 |
|      72 | 0x0038      |          56 |
|      73 | 0x0008      |           8 |
|      74 | 0x000F      |          15 |
|      75 | 0x0007      |           7 |
|      76 | 0x1D77      |        7543 |
|      77 | 0x1D78      |        7544 |
|      78 | 0x1D79      |        7545 |
|      79 | 0x1D7A      |        7546 |
|      80 | 0x1D7B      |        7547 |
|      81 | 0x1D7C      |        7548 |
|      82 | 0x1D7D      |        7549 |
|      83 | 0x051E      |        1310 |
|      84 | 0x1D7E      |        7550 |
|      85 | 0x1D7F      |        7551 |
|      86 | 0x0016      |          22 |
|      87 | 0x1D80      |        7552 |
|      88 | 0x1D81      |        7553 |
|      89 | 0x1D82      |        7554 |
|      90 | 0x1D83      |        7555 |
|      91 | 0x1D84      |        7556 |
|      92 | 0x1D85      |        7557 |
|      93 | 0x1D86      |        7558 |
|      94 | 0x1D87      |        7559 |
|      95 | 0x1D88      |        7560 |
|      96 | 0x0520      |        1312 |
|      97 | 0x1D89      |        7561 |
|      98 | 0x0001      |           1 |
|      99 | 0x1D8A      |        7562 |
|     100 | 0x1D8B      |        7563 |
|     101 | 0x1D8C      |        7564 |
|     102 | 0x1D8D      |        7565 |
|     103 | 0x0D7E      |        3454 |
|     104 | 0x1D8E      |        7566 |
|     105 | 0x0586      |        1414 |
|     106 | 0x1D8F      |        7567 |
|     107 | 0x0002      |           2 |
|     108 | 0x1D90      |        7568 |
|     109 | 0x1D91      |        7569 |
|     110 | 0x1D92      |        7570 |
|     111 | 0x1D93      |        7571 |
|     112 | 0x1D94      |        7572 |
|     113 | 0x1D95      |        7573 |
|     114 | 0x1D96      |        7574 |
|     115 | 0x0582      |        1410 |
|     116 | 0x1D97      |        7575 |
|     117 | 0x1D98      |        7576 |
|     118 | 0x1D99      |        7577 |
|     119 | 0x1D9A      |        7578 |
|     120 | 0x1D9B      |        7579 |
|     121 | 0x1D9C      |        7580 |
|     122 | 0x00B3      |         179 |
|     123 | 0x1D9D      |        7581 |
|     124 | 0x1D9E      |        7582 |
|     125 | 0x1D9F      |        7583 |
|     126 | 0x1DA0      |        7584 |
|     127 | 0x0004      |           4 |
|     128 | 0x0003      |           3 |
|     129 | 0x1DA1      |        7585 |
|     130 | 0x1DA2      |        7586 |
|     131 | 0x1DA3      |        7587 |
|     132 | 0x1DA4      |        7588 |
|     133 | 0x1DA5      |        7589 |
|     134 | 0x1DA6      |        7590 |
|     135 | 0x1DA7      |        7591 |
|     136 | 0x1DA8      |        7592 |
|     137 | 0x1DA9      |        7593 |
|     138 | 0x0ACD      |        2765 |
|     139 | 0x1DAA      |        7594 |
|     140 | 0x1DAB      |        7595 |
|     141 | 0x1DAC      |        7596 |
|     142 | 0x1DAD      |        7597 |
|     143 | 0x00A7      |         167 |
|     144 | 0x0810      |        2064 |
|     145 | 0x1DAE      |        7598 |
|     146 | 0x1DAF      |        7599 |
|     147 | 0x1DB0      |        7600 |
|     148 | 0x1DB1      |        7601 |
|     149 | 0x1DB2      |        7602 |
|     150 | 0x0050      |          80 |
|     151 | 0x0028      |          40 |
|     152 | 0x1DB3      |        7603 |
|     153 | 0x1DB4      |        7604 |
|     154 | 0x1DB5      |        7605 |
|     155 | 0x1DB6      |        7606 |
|     156 | 0x1DB7      |        7607 |
|     157 | 0x0096      |         150 |
|     158 | 0x1DB8      |        7608 |
|     159 | 0x1DB9      |        7609 |
|     160 | 0x1DBA      |        7610 |
|     161 | 0x1DBB      |        7611 |
|     162 | 0x1DBC      |        7612 |
|     163 | 0x1DBD      |        7613 |
|     164 | 0x1DBE      |        7614 |
|     165 | 0x1DBF      |        7615 |
|     166 | 0x1DC0      |        7616 |
|     167 | 0x1DC1      |        7617 |
|     168 | 0x1DC2      |        7618 |
|     169 | 0x1DC3      |        7619 |
|     170 | 0xFFF637AA  |  4294326186 |
|     171 | 0xFFF80311  |  4294443793 |
|     172 | 0xFFF63BA3  |  4294327203 |
|     173 | 0xFFF7FF7F  |  4294442879 |
|     174 | 0xFFF63B98  |  4294327192 |
|     175 | 0xFFF8038B  |  4294443915 |
|     176 | 0x00AE      |         174 |
|     177 | 0x1DC4      |        7620 |
|     178 | 0x1DC5      |        7621 |
|     179 | 0x1DC6      |        7622 |
|     180 | 0x1DC7      |        7623 |
|     181 | 0x1DC8      |        7624 |
|     182 | 0x1DC9      |        7625 |
|     183 | 0x1DCA      |        7626 |
|     184 | 0x1DCB      |        7627 |
|     185 | 0x1DCC      |        7628 |
|     186 | 0xFFF74645  |  4294395461 |
|     187 | 0x8255E     |      533854 |
|     188 | 0xFFFC8560  |  4294739296 |
|     189 | 0x0F83      |        3971 |
|     190 | 0xFFF73829  |  4294391849 |
|     191 | 0x81A81     |      531073 |
|     192 | 0x0DEF      |        3567 |
|     193 | 0x1DCD      |        7629 |
|     194 | 0x1DCE      |        7630 |
|     195 | 0x1DCF      |        7631 |
|     196 | 0x1DD0      |        7632 |
|     197 | 0x1DD1      |        7633 |
|     198 | 0x1DD2      |        7634 |
|     199 | 0x1DD3      |        7635 |
|     200 | 0x1DD4      |        7636 |
|     201 | 0x1DD5      |        7637 |
|     202 | 0x1DD6      |        7638 |
|     203 | 0x1DD7      |        7639 |
|     204 | 0x1DD8      |        7640 |
|     205 | 0x1DD9      |        7641 |
|     206 | 0x1DDA      |        7642 |
|     207 | 0x1DDB      |        7643 |
|     208 | 0x1DDC      |        7644 |
|     209 | 0x1DDD      |        7645 |
|     210 | 0x00B4      |         180 |
|     211 | 0x1DDE      |        7646 |
|     212 | 0x1DDF      |        7647 |
|     213 | 0x007C      |         124 |
|     214 | 0x1D56      |        7510 |
|     215 | 0x007D      |         125 |
|     216 | 0x1DE0      |        7648 |
|     217 | 0x1DE1      |        7649 |
|     218 | 0x1DE2      |        7650 |
|     219 | 0x1DE3      |        7651 |
|     220 | 0x1DE4      |        7652 |
|     221 | 0x1DE5      |        7653 |
|     222 | 0x1DE6      |        7654 |
|     223 | 0x1DE7      |        7655 |
|     224 | 0x1DE8      |        7656 |
|     225 | 0x1DE9      |        7657 |
|     226 | 0x1DEA      |        7658 |
|     227 | 0x1DEB      |        7659 |
|     228 | 0x1DEC      |        7660 |
|     229 | 0x1DED      |        7661 |
|     230 | 0xFFF72A66  |  4294388326 |
|     231 | 0x7C668     |      509544 |
|     232 | 0xFFFC8561  |  4294739297 |
|     233 | 0x0D59      |        3417 |
|     234 | 0xFFF758A5  |  4294400165 |
|     235 | 0x8150E     |      529678 |
|     236 | 0x0559      |        1369 |
|     237 | 0x0037      |          55 |
|     238 | 0x0242      |         578 |
|     239 | 0x00F0      |         240 |
|     240 | 0x0014      |          20 |
|     241 | 0x00D2      |         210 |
|     242 | 0x012C      |         300 |
|     243 | 0x007F      |         127 |
|     244 | 0x0140      |         320 |
|     245 | 0xFFF72CA8  |  4294388904 |
|     246 | 0x81509     |      529673 |
|     247 | 0x0E20      |        3616 |
|     248 | 0xFFF7563B  |  4294399547 |
|     249 | 0x83EE0     |      540384 |
|     250 | 0x061B      |        1563 |
|     251 | 0x0258      |         600 |
|     252 | 0xFFF72ED6  |  4294389462 |
|     253 | 0x80046     |      524358 |
|     254 | 0x0C9B      |        3227 |
|     255 | 0xFFF73D2C  |  4294393132 |
|     256 | 0x82FC0     |      536512 |
|     257 | 0x0497      |        1175 |
|     258 | 0x00C9      |         201 |
|     259 | 0x002D      |          45 |
|     260 | 0x00D7      |         215 |

## String References

- **7510**: @@
- **7543**: What shall you ask? [There are...ten of you?/Have you shrunk?/Where in Vana'diel am I?/I need ask nothing.]

## Events

### Event 65535

#### Metadata

| Field        | Value   |
|--------------|---------|
| Entrypoint   | 0x0000  |
| Data Size    | 1 bytes |
| Instructions | 1       |

```
      00 01 02 03 04 05 06 07  08 09 0A 0B 0C 0D 0E 0F
      -- -- -- -- -- -- -- --  -- -- -- -- -- -- -- --
0000: 00                                                .               
```

#### Opcodes

```
  0: 0x0000 [0x00] END_REQSTACK()
```

### Event 101

#### Metadata

| Field        | Value      |
|--------------|------------|
| Entrypoint   | 0x0001     |
| Data Size    | 4704 bytes |
| Instructions | 356        |

```
      00 01 02 03 04 05 06 07  08 09 0A 0B 0C 0D 0E 0F
      -- -- -- -- -- -- -- --  -- -- -- -- -- -- -- --
0000:    42 1A AE 2D 43 00 43  01 03 01 00 02 10 46 01   B..-C.C......F.
0010: 5D 00 80 01 80 38 02 80  4E 00 F0 FF FF 7F 27 10  ]....8..N.....'.
0020: 64 E0 0D 01 04 27 10 65  E0 0D 01 04 27 10 66 E0  d....'.e....'.f.
0030: 0D 01 04 27 10 67 E0 0D  01 04 27 10 68 E0 0D 01  ...'.g....'.h...
0040: 04 27 10 69 E0 0D 01 04  27 10 6A E0 0D 01 04 27  .'.i....'.j....'
0050: 10 6B E0 0D 01 04 27 10  63 E0 0D 01 04 27 10 6C  .k....'.c....'.l
0060: E0 0D 01 04 92 01 64 E0  0D 01 92 01 65 E0 0D 01  ......d.....e...
0070: 92 01 66 E0 0D 01 92 01  67 E0 0D 01 92 01 68 E0  ..f.....g.....h.
0080: 0D 01 92 01 69 E0 0D 01  92 01 6A E0 0D 01 92 01  ....i.....j.....
0090: 6B E0 0D 01 92 01 63 E0  0D 01 92 01 6C E0 0D 01  k.....c.....l...
00A0: 94 01 F0 FF FF 7F 94 01  64 E0 0D 01 94 01 65 E0  ........d.....e.
00B0: 0D 01 94 01 66 E0 0D 01  94 01 67 E0 0D 01 94 01  ....f.....g.....
00C0: 68 E0 0D 01 94 01 69 E0  0D 01 94 01 6A E0 0D 01  h.....i.....j...
00D0: 94 01 6B E0 0D 01 94 01  63 E0 0D 01 94 01 6C E0  ..k.....c.....l.
00E0: 0D 01 59 05 66 E0 0D 01  01 59 05 6A E0 0D 01 01  ..Y.f....Y.j....
00F0: 59 05 6B E0 0D 01 01 59  05 64 E0 0D 01 01 59 05  Y.k....Y.d....Y.
0100: 65 E0 0D 01 01 BA F0 FF  FF 7F 03 80 04 80 05 80  e...............
0110: 06 80 BA 68 E0 0D 01 07  80 08 80 09 80 0A 80 BA  ...h............
0120: 66 E0 0D 01 0B 80 0C 80  0D 80 0E 80 BA 67 E0 0D  f............g..
0130: 01 0F 80 10 80 11 80 12  80 BA 6A E0 0D 01 13 80  ..........j.....
0140: 14 80 15 80 16 80 BA 6B  E0 0D 01 17 80 18 80 19  .......k........
0150: 80 1A 80 BA 69 E0 0D 01  1B 80 1C 80 1D 80 1E 80  ....i...........
0160: BA 64 E0 0D 01 1F 80 20  80 15 80 21 80 BA 65 E0  .d..... ...!..e.
0170: 0D 01 22 80 23 80 15 80  24 80 BA 6C E0 0D 01 25  ..".#...$..l...%
0180: 80 26 80 27 80 28 80 BA  63 E0 0D 01 29 80 2A 80  .&.'.(..c...).*.
0190: 2B 80 2C 80 29 10 64 E0  0D 01 0D 29 10 65 E0 0D  +.,.).d....).e..
01A0: 01 14 29 10 66 E0 0D 01  0D 29 10 68 E0 0D 01 0D  ..).f....).h....
01B0: 29 10 69 E0 0D 01 0D 29  10 6A E0 0D 01 14 29 10  ).i....).j....).
01C0: 6B E0 0D 01 0D 29 10 63  E0 0D 01 0D 29 10 6C E0  k....).c....).l.
01D0: 0D 01 0D 80 F0 FF FF 7F  80 64 E0 0D 01 80 65 E0  .........d....e.
01E0: 0D 01 80 66 E0 0D 01 80  67 E0 0D 01 80 68 E0 0D  ...f....g....h..
01F0: 01 80 69 E0 0D 01 80 6A  E0 0D 01 80 6B E0 0D 01  ..i....j....k...
0200: 80 63 E0 0D 01 80 6C E0  0D 01 4A F0 FF FF 7F 63  .c....l...J....c
0210: E0 0D 01 4A 63 E0 0D 01  F0 FF FF 7F 4A 64 E0 0D  ...Jc.......Jd..
0220: 01 F0 FF FF 7F 4A 65 E0  0D 01 F0 FF FF 7F 4A 66  .....Je.......Jf
0230: E0 0D 01 F0 FF FF 7F 4A  67 E0 0D 01 F0 FF FF 7F  .......Jg.......
0240: 4A 68 E0 0D 01 F0 FF FF  7F 4A 69 E0 0D 01 6B E0  Jh.......Ji...k.
0250: 0D 01 4A 6A E0 0D 01 F0  FF FF 7F 4A 6B E0 0D 01  ..Jj.......Jk...
0260: F0 FF FF 7F 4A 6C E0 0D  01 F0 FF FF 7F 1C 2D 80  ....Jl........-.
0270: 27 05 66 E0 0D 01 10 27  05 6A E0 0D 01 10 27 05  '.f....'.j....'.
0280: 65 E0 0D 01 10 27 05 F0  FF FF 7F 04 5B 2E 80 66  e....'......[..f
0290: E0 0D 01 66 E0 0D 01 63  6F 6E 33 5B 2E 80 6A E0  ...f...con3[..j.
02A0: 0D 01 6A E0 0D 01 63 6F  6E 34 5B 2E 80 6B E0 0D  ..j...con4[..k..
02B0: 01 6B E0 0D 01 63 6F 6E  37 5B 2E 80 64 E0 0D 01  .k...con7[..d...
02C0: 64 E0 0D 01 63 6F 6E 35  5B 2E 80 65 E0 0D 01 65  d...con5[..e...e
02D0: E0 0D 01 63 6F 6E 32 1C  2F 80 2B 63 E0 0D 01 30  ...con2./.+c...0
02E0: 80 23 2B 63 E0 0D 01 31  80 23 9F 32 80 F8 FF FF  .#+c...1.#.2....
02F0: 7F F8 FF FF 7F 62 6C 30  30 00 80 1C 33 80 45 34  .....bl00...3.E4
0300: 80 F0 FF FF 7F F0 FF FF  7F 73 31 31 35 00 80 45  .........s115..E
0310: 35 80 F8 FF FF 7F F8 FF  FF 7F 66 64 69 31 00 80  5.........fdi1..
0320: 55 35 80 F8 FF FF 7F F8  FF FF 7F 66 64 69 31 9F  U5.........fdi1.
0330: 32 80 F8 FF FF 7F F8 FF  FF 7F 6F 70 65 6E 00 80  2.........open..
0340: 1C 36 80 9F 32 80 F8 FF  FF 7F F8 FF FF 7F 63 6C  .6..2.........cl
0350: 6F 73 00 80 1C 01 80 45  35 80 F8 FF FF 7F F8 FF  os.....E5.......
0360: FF 7F 66 64 6F 31 00 80  55 35 80 F8 FF FF 7F F8  ..fdo1..U5......
0370: FF FF 7F 66 64 6F 31 52  34 80 F0 FF FF 7F F0 FF  ...fdo1R4.......
0380: FF 7F 73 31 31 35 9F 32  80 F8 FF FF 7F F8 FF FF  ..s115.2........
0390: 7F 6B 69 6C 6C 00 80 1C  2D 80 9F 32 80 F8 FF FF  .kill...-..2....
03A0: 7F F8 FF FF 7F 62 6C 30  30 00 80 1C 33 80 45 34  .....bl00...3.E4
03B0: 80 F0 FF FF 7F F0 FF FF  7F 73 31 31 35 00 80 45  .........s115..E
03C0: 35 80 F8 FF FF 7F F8 FF  FF 7F 66 64 69 31 00 80  5.........fdi1..
03D0: 55 35 80 F8 FF FF 7F F8  FF FF 7F 66 64 69 31 9F  U5.........fdi1.
03E0: 32 80 F8 FF FF 7F F8 FF  FF 7F 6F 70 65 6E 00 80  2.........open..
03F0: 1C 36 80 9F 32 80 F8 FF  FF 7F F8 FF FF 7F 63 6C  .6..2.........cl
0400: 6F 73 00 80 1C 01 80 45  35 80 F8 FF FF 7F F8 FF  os.....E5.......
0410: FF 7F 66 64 6F 31 00 80  55 35 80 F8 FF FF 7F F8  ..fdo1..U5......
0420: FF FF 7F 66 64 6F 31 52  34 80 F0 FF FF 7F F0 FF  ...fdo1R4.......
0430: FF 7F 73 31 31 35 9F 32  80 F8 FF FF 7F F8 FF FF  ..s115.2........
0440: 7F 6B 69 6C 6C 00 80 1C  2D 80 45 34 80 F0 FF FF  .kill...-.E4....
0450: 7F F0 FF FF 7F 73 30 39  32 00 80 1A 8D 2D 1C 37  .....s092....-.7
0460: 80 52 34 80 F0 FF FF 7F  F0 FF FF 7F 73 30 39 32  .R4.........s092
0470: 45 34 80 F0 FF FF 7F F0  FF FF 7F 73 30 39 33 00  E4.........s093.
0480: 80 1C 01 80 5C 00 38 80  5C 01 38 80 9A 52 34 80  ....\.8.\.8..R4.
0490: F0 FF FF 7F F0 FF FF 7F  73 30 39 33 45 34 80 F0  ........s093E4..
04A0: FF FF 7F F0 FF FF 7F 73  30 39 34 00 80 5B 39 80  .......s094..[9.
04B0: 68 E0 0D 01 68 E0 0D 01  75 64 65 30 2B 68 E0 0D  h...h...ude0+h..
04C0: 01 3A 80 23 2B 66 E0 0D  01 3B 80 23 52 34 80 F0  .:.#+f...;.#R4..
04D0: FF FF 7F F0 FF FF 7F 73  30 39 34 45 34 80 F0 FF  .......s094E4...
04E0: FF 7F F0 FF FF 7F 73 30  39 35 00 80 5B 3C 80 67  ......s095..[<.g
04F0: E0 0D 01 67 E0 0D 01 79  72 65 30 27 05 F0 FF FF  ...g...yre0'....
0500: 7F 14 2B 66 E0 0D 01 3D  80 23 2B 66 E0 0D 01 3E  ..+f...=.#+f...>
0510: 80 23 52 34 80 F0 FF FF  7F F0 FF FF 7F 73 30 39  .#R4.........s09
0520: 35 45 34 80 F0 FF FF 7F  F0 FF FF 7F 73 30 39 36  5E4.........s096
0530: 00 80 29 10 F0 FF FF 7F  03 2B 6B E0 0D 01 3F 80  ..)......+k...?.
0540: 23 7C 00 69 E0 0D 01 81  00 69 E0 0D 01 5B 40 80  #|.i.....i...[@.
0550: 69 E0 0D 01 69 E0 0D 01  63 72 79 30 2B 69 E0 0D  i...i...cry0+i..
0560: 01 41 80 23 52 34 80 F0  FF FF 7F F0 FF FF 7F 73  .A.#R4.........s
0570: 30 39 36 45 34 80 F0 FF  FF 7F F0 FF FF 7F 73 30  096E4.........s0
0580: 39 37 00 80 7C 01 69 E0  0D 01 81 01 69 E0 0D 01  97..|.i.....i...
0590: 2B 64 E0 0D 01 42 80 23  2B 64 E0 0D 01 43 80 23  +d...B.#+d...C.#
05A0: 52 34 80 F0 FF FF 7F F0  FF FF 7F 73 30 39 37 45  R4.........s097E
05B0: 34 80 F0 FF FF 7F F0 FF  FF 7F 73 30 39 38 00 80  4.........s098..
05C0: 5B 39 80 6C E0 0D 01 6C  E0 0D 01 75 64 65 30 2B  [9.l...l...ude0+
05D0: 6C E0 0D 01 44 80 23 2B  6C E0 0D 01 45 80 23 55  l...D.#+l...E.#U
05E0: 34 80 F0 FF FF 7F F0 FF  FF 7F 73 30 39 38 45 34  4.........s098E4
05F0: 80 F0 FF FF 7F F0 FF FF  7F 73 30 39 39 00 80 5B  .........s099..[
0600: 39 80 63 E0 0D 01 63 E0  0D 01 75 64 65 30 6B 69  9.c...c...ude0ki
0610: 64 6C 30 68 E0 0D 01 6B  69 64 6C 30 69 E0 0D 01  dl0h...kidl0i...
0620: 6B 69 64 6C 30 6C E0 0D  01 6B 69 64 6C 30 67 E0  kidl0l...kidl0g.
0630: 0D 01 79 00 F0 FF FF 7F  63 E0 0D 01 4A 69 E0 0D  ..y.....c...Ji..
0640: 01 F0 FF FF 7F 27 05 63  E0 0D 01 14 2A 05 63 E0  .....'.c....*.c.
0650: 0D 01 5D 00 80 33 80 2B  63 E0 0D 01 46 80 23 2B  ..]..3.+c...F.#+
0660: 63 E0 0D 01 47 80 23 5C  00 48 80 5C 01 48 80 9A  c...G.#\.H.\.H..
0670: 52 34 80 F0 FF FF 7F F0  FF FF 7F 73 30 39 39 45  R4.........s099E
0680: 34 80 F0 FF FF 7F F0 FF  FF 7F 73 31 30 30 00 80  4.........s100..
0690: 03 02 00 49 80 02 02 00  4A 80 00 A2 06 03 02 00  ...I....J.......
06A0: 4B 80 24 4C 80 00 80 02  00 25 02 00 10 00 80 00  K.$L.....%......
06B0: D7 09 52 34 80 F0 FF FF  7F F0 FF FF 7F 73 31 30  ..R4.........s10
06C0: 30 45 34 80 F0 FF FF 7F  F0 FF FF 7F 73 31 30 31  0E4.........s101
06D0: 00 80 4A 64 E0 0D 01 63  E0 0D 01 2B 63 E0 0D 01  ..Jd...c...+c...
06E0: 4D 80 23 2B 63 E0 0D 01  4E 80 23 2B 63 E0 0D 01  M.#+c...N.#+c...
06F0: 4F 80 23 52 34 80 F0 FF  FF 7F F0 FF FF 7F 73 31  O.#R4.........s1
0700: 30 31 45 34 80 F0 FF FF  7F F0 FF FF 7F 73 31 30  01E4.........s10
0710: 32 00 80 27 05 64 E0 0D  01 14 2A 05 64 E0 0D 01  2..'.d....*.d...
0720: 2B 64 E0 0D 01 50 80 23  27 05 68 E0 0D 01 14 2A  +d...P.#'.h....*
0730: 05 68 E0 0D 01 52 34 80  F0 FF FF 7F F0 FF FF 7F  .h...R4.........
0740: 73 31 30 32 45 34 80 F0  FF FF 7F F0 FF FF 7F 73  s102E4.........s
0750: 31 30 33 00 80 27 05 68  E0 0D 01 11 2B 68 E0 0D  103..'.h....+h..
0760: 01 51 80 23 2A 05 68 E0  0D 01 4A 63 E0 0D 01 68  .Q.#*.h...Jc...h
0770: E0 0D 01 2B 63 E0 0D 01  52 80 23 5B 3C 80 68 E0  ...+c...R.#[<.h.
0780: 0D 01 68 E0 0D 01 79 72  65 31 52 34 80 F0 FF FF  ..h...yre1R4....
0790: 7F F0 FF FF 7F 73 31 30  33 45 34 80 F0 FF FF 7F  .....s103E4.....
07A0: F0 FF FF 7F 73 31 30 34  00 80 4A 63 E0 0D 01 F0  ....s104..Jc....
07B0: FF FF 7F 4A 67 E0 0D 01  63 E0 0D 01 1C 2D 80 4A  ...Jg...c....-.J
07C0: 68 E0 0D 01 F0 FF FF 7F  5B 53 80 63 E0 0D 01 63  h.......[S.c...c
07D0: E0 0D 01 74 6C 6B 30 2B  63 E0 0D 01 54 80 23 2B  ...tlk0+c...T.#+
07E0: 63 E0 0D 01 55 80 23 5B  53 80 63 E0 0D 01 63 E0  c...U.#[S.c...c.
07F0: 0D 01 74 6C 6B 31 52 34  80 F0 FF FF 7F F0 FF FF  ..tlk1R4........
0800: 7F 73 31 30 34 45 34 80  F0 FF FF 7F F0 FF FF 7F  .s104E4.........
0810: 73 31 30 35 00 80 6E F0  FF FF 7F 56 80 99 F0 FF  s105..n....V....
0820: FF 7F 1C 33 80 2B 63 E0  0D 01 57 80 23 5B 39 80  ...3.+c...W.#[9.
0830: 63 E0 0D 01 63 E0 0D 01  75 64 65 30 2B 63 E0 0D  c...c...ude0+c..
0840: 01 58 80 23 27 05 67 E0  0D 01 14 2A 05 67 E0 0D  .X.#'.g....*.g..
0850: 01 52 34 80 F0 FF FF 7F  F0 FF FF 7F 73 31 30 35  .R4.........s105
0860: 45 34 80 F0 FF FF 7F F0  FF FF 7F 73 31 30 36 00  E4.........s106.
0870: 80 5B 3C 80 67 E0 0D 01  67 E0 0D 01 79 72 65 30  .[<.g...g...yre0
0880: 2B 67 E0 0D 01 59 80 23  4A 63 E0 0D 01 67 E0 0D  +g...Y.#Jc...g..
0890: 01 2B 63 E0 0D 01 5A 80  23 5B 3C 80 67 E0 0D 01  .+c...Z.#[<.g...
08A0: 67 E0 0D 01 79 72 65 31  52 34 80 F0 FF FF 7F F0  g...yre1R4......
08B0: FF FF 7F 73 31 30 36 45  34 80 F0 FF FF 7F F0 FF  ...s106E4.......
08C0: FF 7F 73 31 30 37 00 80  4A 63 E0 0D 01 F0 FF FF  ..s107..Jc......
08D0: 7F 1C 2D 80 4A 67 E0 0D  01 F0 FF FF 7F 2B 63 E0  ..-.Jg.......+c.
08E0: 0D 01 5B 80 23 5B 39 80  63 E0 0D 01 63 E0 0D 01  ..[.#[9.c...c...
08F0: 75 64 65 30 2B 63 E0 0D  01 5C 80 23 52 34 80 F0  ude0+c...\.#R4..
0900: FF FF 7F F0 FF FF 7F 73  31 30 37 45 34 80 F0 FF  .......s107E4...
0910: FF 7F F0 FF FF 7F 73 31  30 38 00 80 2B 63 E0 0D  ......s108..+c..
0920: 01 5D 80 23 2B 63 E0 0D  01 5E 80 23 52 34 80 F0  .].#+c...^.#R4..
0930: FF FF 7F F0 FF FF 7F 73  31 30 38 45 34 80 F0 FF  .......s108E4...
0940: FF 7F F0 FF FF 7F 73 31  30 39 00 80 2B 6A E0 0D  ......s109..+j..
0950: 01 5F 80 23 7C 00 69 E0  0D 01 81 00 69 E0 0D 01  ._.#|.i.....i...
0960: 52 34 80 F0 FF FF 7F F0  FF FF 7F 73 31 30 39 45  R4.........s109E
0970: 34 80 F0 FF FF 7F F0 FF  FF 7F 73 31 31 30 00 80  4.........s110..
0980: 5B 60 80 69 E0 0D 01 69  E0 0D 01 68 6F 74 30 2B  [`.i...i...hot0+
0990: 63 E0 0D 01 61 80 23 0E  02 00 62 80 52 34 80 F0  c...a.#...b.R4..
09A0: FF FF 7F F0 FF FF 7F 73  31 31 30 45 34 80 F0 FF  .......s110E4...
09B0: FF 7F F0 FF FF 7F 73 31  30 30 00 80 7C 01 69 E0  ......s100..|.i.
09C0: 0D 01 81 01 69 E0 0D 01  6B 69 64 6C 30 69 E0 0D  ....i...kidl0i..
09D0: 01 01 95 06 01 B4 10 02  00 10 62 80 00 76 0B 52  ..........b..v.R
09E0: 34 80 F0 FF FF 7F F0 FF  FF 7F 73 31 30 30 45 34  4.........s100E4
09F0: 80 F0 FF FF 7F F0 FF FF  7F 73 31 31 31 00 80 2B  .........s111..+
0A00: 63 E0 0D 01 63 80 23 5B  39 80 63 E0 0D 01 63 E0  c...c.#[9.c...c.
0A10: 0D 01 75 64 65 31 2B 63  E0 0D 01 64 80 23 52 34  ..ude1+c...d.#R4
0A20: 80 F0 FF FF 7F F0 FF FF  7F 73 31 31 31 45 34 80  .........s111E4.
0A30: F0 FF FF 7F F0 FF FF 7F  73 31 31 32 00 80 5B 3C  ........s112..[<
0A40: 80 63 E0 0D 01 63 E0 0D  01 79 72 65 30 2B 63 E0  .c...c...yre0+c.
0A50: 0D 01 65 80 23 2B 63 E0  0D 01 66 80 23 52 34 80  ..e.#+c...f.#R4.
0A60: F0 FF FF 7F F0 FF FF 7F  73 31 31 32 45 34 80 F0  ........s112E4..
0A70: FF FF 7F F0 FF FF 7F 73  31 31 33 00 80 5B 3C 80  .......s113..[<.
0A80: 67 E0 0D 01 67 E0 0D 01  79 72 65 31 4B 63 E0 0D  g...g...yre1Kc..
0A90: 01 67 80 4A 68 E0 0D 01  63 E0 0D 01 1C 2D 80 7C  .g.Jh...c....-.|
0AA0: 01 63 E0 0D 01 81 01 63  E0 0D 01 5B 40 80 63 E0  .c.....c...[@.c.
0AB0: 0D 01 63 E0 0D 01 63 72  79 30 2B 63 E0 0D 01 68  ..c...cry0+c...h
0AC0: 80 23 27 05 68 E0 0D 01  14 2A 05 68 E0 0D 01 52  .#'.h....*.h...R
0AD0: 34 80 F0 FF FF 7F F0 FF  FF 7F 73 31 31 33 45 34  4.........s113E4
0AE0: 80 F0 FF FF 7F F0 FF FF  7F 73 31 31 34 00 80 5B  .........s114..[
0AF0: 69 80 68 E0 0D 01 68 E0  0D 01 74 6C 62 30 2B 68  i.h...h...tlb0+h
0B00: E0 0D 01 6A 80 23 5B 69  80 68 E0 0D 01 68 E0 0D  ...j.#[i.h...h..
0B10: 01 74 6C 62 31 0E 02 00  6B 80 52 34 80 F0 FF FF  .tlb1...k.R4....
0B20: 7F F0 FF FF 7F 73 31 31  34 45 34 80 F0 FF FF 7F  .....s114E4.....
0B30: F0 FF FF 7F 73 31 30 30  00 80 5B 40 80 63 E0 0D  ....s100..[@.c..
0B40: 01 63 E0 0D 01 63 72 79  31 1C 4A 80 4A 68 E0 0D  .c...cry1.J.Jh..
0B50: 01 F0 FF FF 7F 4A 63 E0  0D 01 F0 FF FF 7F 1C 2D  .....Jc........-
0B60: 80 5B 39 80 63 E0 0D 01  63 E0 0D 01 75 64 65 30  .[9.c...c...ude0
0B70: 01 95 06 01 B4 10 02 00  10 6B 80 00 FA 0D 52 34  .........k....R4
0B80: 80 F0 FF FF 7F F0 FF FF  7F 73 31 30 30 45 34 80  .........s100E4.
0B90: F0 FF FF 7F F0 FF FF 7F  73 31 31 36 00 80 2B 63  ........s116..+c
0BA0: E0 0D 01 6C 80 23 2B 63  E0 0D 01 6D 80 23 52 34  ...l.#+c...m.#R4
0BB0: 80 F0 FF FF 7F F0 FF FF  7F 73 31 31 36 45 34 80  .........s116E4.
0BC0: F0 FF FF 7F F0 FF FF 7F  73 31 31 37 00 80 2B 63  ........s117..+c
0BD0: E0 0D 01 6E 80 23 2B 63  E0 0D 01 6F 80 23 2B 63  ...n.#+c...o.#+c
0BE0: E0 0D 01 70 80 23 52 34  80 F0 FF FF 7F F0 FF FF  ...p.#R4........
0BF0: 7F 73 31 31 37 45 34 80  F0 FF FF 7F F0 FF FF 7F  .s117E4.........
0C00: 73 31 31 38 00 80 2B 63  E0 0D 01 71 80 23 2B 63  s118..+c...q.#+c
0C10: E0 0D 01 72 80 23 55 34  80 F0 FF FF 7F F0 FF FF  ...r.#U4........
0C20: 7F 73 31 31 38 45 34 80  F0 FF FF 7F F0 FF FF 7F  .s118E4.........
0C30: 73 31 31 39 00 80 5B 73  80 68 E0 0D 01 68 E0 0D  s119..[s.h...h..
0C40: 01 68 69 67 30 2B 63 E0  0D 01 74 80 23 2B 63 E0  .hig0+c...t.#+c.
0C50: 0D 01 75 80 23 5B 73 80  68 E0 0D 01 68 E0 0D 01  ..u.#[s.h...h...
0C60: 68 69 67 31 52 34 80 F0  FF FF 7F F0 FF FF 7F 73  hig1R4.........s
0C70: 31 31 39 45 34 80 F0 FF  FF 7F F0 FF FF 7F 73 31  119E4.........s1
0C80: 32 30 00 80 2B 63 E0 0D  01 76 80 23 2B 63 E0 0D  20..+c...v.#+c..
0C90: 01 77 80 23 52 34 80 F0  FF FF 7F F0 FF FF 7F 73  .w.#R4.........s
0CA0: 31 32 30 45 34 80 F0 FF  FF 7F F0 FF FF 7F 73 31  120E4.........s1
0CB0: 32 31 00 80 5B 60 80 69  E0 0D 01 69 E0 0D 01 70  21..[`.i...i...p
0CC0: 6E 74 30 27 05 69 E0 0D  01 14 2A 05 69 E0 0D 01  nt0'.i....*.i...
0CD0: 2B 69 E0 0D 01 78 80 23  5B 60 80 69 E0 0D 01 69  +i...x.#[`.i...i
0CE0: E0 0D 01 70 6E 74 31 52  34 80 F0 FF FF 7F F0 FF  ...pnt1R4.......
0CF0: FF 7F 73 31 32 31 45 34  80 F0 FF FF 7F F0 FF FF  ..s121E4........
0D00: 7F 73 31 32 32 00 80 2B  63 E0 0D 01 79 80 23 55  .s122..+c...y.#U
0D10: 34 80 F0 FF FF 7F F0 FF  FF 7F 73 31 32 32 45 34  4.........s122E4
0D20: 80 F0 FF FF 7F F0 FF FF  7F 73 31 32 33 00 80 4B  .........s123..K
0D30: 63 E0 0D 01 7A 80 2B 63  E0 0D 01 7B 80 23 52 34  c...z.+c...{.#R4
0D40: 80 F0 FF FF 7F F0 FF FF  7F 73 31 32 33 45 34 80  .........s123E4.
0D50: F0 FF FF 7F F0 FF FF 7F  73 31 32 34 00 80 2B 63  ........s124..+c
0D60: E0 0D 01 7C 80 23 52 34  80 F0 FF FF 7F F0 FF FF  ...|.#R4........
0D70: 7F 73 31 32 34 45 34 80  F0 FF FF 7F F0 FF FF 7F  .s124E4.........
0D80: 73 31 32 35 00 80 4A 63  E0 0D 01 F0 FF FF 7F 1C  s125..Jc........
0D90: 2D 80 5B 3C 80 63 E0 0D  01 63 E0 0D 01 79 72 65  -.[<.c...c...yre
0DA0: 30 2B 63 E0 0D 01 7D 80  23 5B 3C 80 63 E0 0D 01  0+c...}.#[<.c...
0DB0: 63 E0 0D 01 79 72 65 31  2B 63 E0 0D 01 7E 80 23  c...yre1+c...~.#
0DC0: 0E 02 00 7F 80 52 34 80  F0 FF FF 7F F0 FF FF 7F  .....R4.........
0DD0: 73 31 32 35 45 34 80 F0  FF FF 7F F0 FF FF 7F 73  s125E4.........s
0DE0: 31 30 30 00 80 5B 39 80  63 E0 0D 01 63 E0 0D 01  100..[9.c...c...
0DF0: 75 64 65 30 01 95 06 01  B4 10 02 00 10 80 80 00  ude0............
0E00: B4 10 52 34 80 F0 FF FF  7F F0 FF FF 7F 73 31 30  ..R4.........s10
0E10: 30 45 34 80 F0 FF FF 7F  F0 FF FF 7F 73 31 32 36  0E4.........s126
0E20: 00 80 27 05 68 E0 0D 01  14 2A 05 68 E0 0D 01 2B  ..'.h....*.h...+
0E30: 68 E0 0D 01 81 80 23 52  34 80 F0 FF FF 7F F0 FF  h.....#R4.......
0E40: FF 7F 73 31 32 36 45 34  80 F0 FF FF 7F F0 FF FF  ..s126E4........
0E50: 7F 73 31 32 37 00 80 4A  69 E0 0D 01 6C E0 0D 01  .s127..Ji...l...
0E60: 27 05 6C E0 0D 01 14 2A  05 6C E0 0D 01 2B 6C E0  '.l....*.l...+l.
0E70: 0D 01 82 80 23 52 34 80  F0 FF FF 7F F0 FF FF 7F  ....#R4.........
0E80: 73 31 32 37 45 34 80 F0  FF FF 7F F0 FF FF 7F 73  s127E4.........s
0E90: 31 32 38 00 80 5B 53 80  69 E0 0D 01 69 E0 0D 01  128..[S.i...i...
0EA0: 74 6C 6B 30 27 05 69 E0  0D 01 14 2A 05 69 E0 0D  tlk0'.i....*.i..
0EB0: 01 2B 69 E0 0D 01 83 80  23 27 05 64 E0 0D 01 14  .+i.....#'.d....
0EC0: 2A 05 64 E0 0D 01 5B 53  80 69 E0 0D 01 69 E0 0D  *.d...[S.i...i..
0ED0: 01 74 6C 6B 31 52 34 80  F0 FF FF 7F F0 FF FF 7F  .tlk1R4.........
0EE0: 73 31 32 38 45 34 80 F0  FF FF 7F F0 FF FF 7F 73  s128E4.........s
0EF0: 31 32 39 00 80 2B 64 E0  0D 01 84 80 23 2B 65 E0  129..+d.....#+e.
0F00: 0D 01 85 80 23 52 34 80  F0 FF FF 7F F0 FF FF 7F  ....#R4.........
0F10: 73 31 32 39 45 34 80 F0  FF FF 7F F0 FF FF 7F 73  s129E4.........s
0F20: 31 33 30 00 80 2B 63 E0  0D 01 86 80 23 2B 63 E0  130..+c.....#+c.
0F30: 0D 01 87 80 23 52 34 80  F0 FF FF 7F F0 FF FF 7F  ....#R4.........
0F40: 73 31 33 30 45 34 80 F0  FF FF 7F F0 FF FF 7F 73  s130E4.........s
0F50: 31 33 31 00 80 2B 63 E0  0D 01 88 80 23 2B 63 E0  131..+c.....#+c.
0F60: 0D 01 89 80 23 52 34 80  F0 FF FF 7F F0 FF FF 7F  ....#R4.........
0F70: 73 31 33 31 45 34 80 F0  FF FF 7F F0 FF FF 7F 73  s131E4.........s
0F80: 31 33 32 00 80 4B 63 E0  0D 01 8A 80 2B 63 E0 0D  132..Kc.....+c..
0F90: 01 8B 80 23 52 34 80 F0  FF FF 7F F0 FF FF 7F 73  ...#R4.........s
0FA0: 31 33 32 45 34 80 F0 FF  FF 7F F0 FF FF 7F 73 31  132E4.........s1
0FB0: 33 33 00 80 4A 63 E0 0D  01 F0 FF FF 7F 1C 2D 80  33..Jc........-.
0FC0: 5B 39 80 63 E0 0D 01 63  E0 0D 01 75 64 65 30 2B  [9.c...c...ude0+
0FD0: 63 E0 0D 01 8C 80 23 5B  39 80 63 E0 0D 01 63 E0  c.....#[9.c...c.
0FE0: 0D 01 75 64 65 31 2B 63  E0 0D 01 8D 80 23 52 34  ..ude1+c.....#R4
0FF0: 80 F0 FF FF 7F F0 FF FF  7F 73 31 33 33 45 34 80  .........s133E4.
1000: F0 FF FF 7F F0 FF FF 7F  73 31 33 34 00 80 5B 39  ........s134..[9
1010: 80 63 E0 0D 01 63 E0 0D  01 74 6C 61 30 2B 63 E0  .c...c...tla0+c.
1020: 0D 01 8E 80 23 5B 39 80  63 E0 0D 01 63 E0 0D 01  ....#[9.c...c...
1030: 74 6C 61 31 C5 8F 80 F0  FF FF 7F F0 FF FF 7F 73  tla1...........s
1040: 30 30 30 00 80 03 02 10  90 80 2B 63 E0 0D 01 91  000.......+c....
1050: 80 23 2B 63 E0 0D 01 92  80 23 52 34 80 F0 FF FF  .#+c.....#R4....
1060: 7F F0 FF FF 7F 73 31 33  34 45 34 80 F0 FF FF 7F  .....s134E4.....
1070: F0 FF FF 7F 73 31 33 35  00 80 5B 39 80 63 E0 0D  ....s135..[9.c..
1080: 01 63 E0 0D 01 75 64 65  30 C5 8F 80 F0 FF FF 7F  .c...ude0.......
1090: F0 FF FF 7F 73 74 30 30  00 80 2B 63 E0 0D 01 93  ....st00..+c....
10A0: 80 23 52 34 80 F0 FF FF  7F F0 FF FF 7F 73 31 33  .#R4.........s13
10B0: 35 01 B4 10 03 01 10 00  80 02 01 00 62 80 00 FA  5...........b...
10C0: 11 45 34 80 F0 FF FF 7F  F0 FF FF 7F 73 31 33 37  .E4.........s137
10D0: 00 80 5B 39 80 63 E0 0D  01 63 E0 0D 01 75 64 65  ..[9.c...c...ude
10E0: 31 1C 4A 80 27 05 63 E0  0D 01 12 2B 63 E0 0D 01  1.J.'.c....+c...
10F0: 94 80 23 2B 63 E0 0D 01  95 80 23 2A 05 63 E0 0D  ..#+c.....#*.c..
1100: 01 27 05 F0 FF FF 7F 0C  1C 96 80 27 05 F0 FF FF  .'.........'....
1110: 7F 0D 1C 97 80 52 34 80  F0 FF FF 7F F0 FF FF 7F  .....R4.........
1120: 73 31 33 37 45 34 80 F0  FF FF 7F F0 FF FF 7F 73  s137E4.........s
1130: 31 33 38 00 80 2B 63 E0  0D 01 98 80 23 52 34 80  138..+c.....#R4.
1140: F0 FF FF 7F F0 FF FF 7F  73 31 33 38 45 34 80 F0  ........s138E4..
1150: FF FF 7F F0 FF FF 7F 73  31 33 39 00 80 27 05 F0  .......s139..'..
1160: FF FF 7F 13 1C 33 80 5B  53 80 63 E0 0D 01 63 E0  .....3.[S.c...c.
1170: 0D 01 74 68 6B 30 2B 63  E0 0D 01 99 80 23 1C 33  ..thk0+c.....#.3
1180: 80 2B 63 E0 0D 01 9A 80  23 52 34 80 F0 FF FF 7F  .+c.....#R4.....
1190: F0 FF FF 7F 73 31 33 39  45 34 80 F0 FF FF 7F F0  ....s139E4......
11A0: FF FF 7F 73 31 34 30 00  80 5B 53 80 63 E0 0D 01  ...s140..[S.c...
11B0: 63 E0 0D 01 74 68 6B 31  2B 63 E0 0D 01 9B 80 23  c...thk1+c.....#
11C0: 5B 53 80 63 E0 0D 01 63  E0 0D 01 74 6C 6B 30 2B  [S.c...c...tlk0+
11D0: 63 E0 0D 01 9C 80 23 5B  53 80 63 E0 0D 01 63 E0  c.....#[S.c...c.
11E0: 0D 01 74 6C 6B 31 52 34  80 F0 FF FF 7F F0 FF FF  ..tlk1R4........
11F0: 7F 73 31 34 30 03 01 10  62 80 45 34 80 F0 FF FF  .s140...b.E4....
1200: 7F F0 FF FF 7F 73 31 33  36 00 80 6E F0 FF FF 7F  .....s136..n....
1210: 02 80 99 F0 FF FF 7F 1C  9D 80 1A AE 2D 1C 2D 80  ............-.-.
1220: 52 34 80 F0 FF FF 7F F0  FF FF 7F 73 31 33 36 C5  R4.........s136.
1230: 8F 80 F0 FF FF 7F F0 FF  FF 7F 73 74 30 30 00 80  ..........st00..
1240: 1C 4A 80 AB 11 00 80 1C  62 80 AB 0A 46 00 45 35  .J......b...F.E5
1250: 80 F0 FF FF 7F F0 FF FF  7F 66 64 69 32 00 80 21  .........fdi2..!
1260: 00                                                .               
```

#### Opcodes

```
  0: 0x0001 [0x42] SET_CLI_EVENT_CANCEL_DATA()
  1: 0x0002 [0x1A] CALL_SUBROUTINE(address=0x2DAE)
  2: 0x0005 [0x43] SEND_EVENT_UPDATE: Send pending tag to server (packet 0x005B)
  3: 0x0007 [0x43] SEND_EVENT_UPDATE: Check pending flag (skip if not pending)
  4: 0x0009 [0x03] ExtData[1]->WorkLocal[1] = Work_Zone[2]
  5: 0x000E [0x46] CAMERA_CONTROL: Disable user control
  6: 0x0010 [0x5D] SET_MUSIC_VOLUME(volume=0*, fade_time=120*)
  7: 0x0015 [0x38] SET_CLIENT_EVENT_MODE(mode=19*)
  8: 0x0018 [0x4E] SET_ENTITY_HIDE_FLAG: Show LocalPlayer
  9: 0x001E [0x27] REQ_SET(priority=0x10, entity_id=Unnamed NPC (ID: 17686628/0x010DE064), tag_num=0x04)
 10: 0x0025 [0x27] REQ_SET(priority=0x10, entity_id=Unnamed NPC (ID: 17686629/0x010DE065), tag_num=0x04)
 11: 0x002C [0x27] REQ_SET(priority=0x10, entity_id=Unnamed NPC (ID: 17686630/0x010DE066), tag_num=0x04)
 12: 0x0033 [0x27] REQ_SET(priority=0x10, entity_id=Cait Sith Ceithir (ID: 17686631/0x010DE067), tag_num=0x04)
 13: 0x003A [0x27] REQ_SET(priority=0x10, entity_id=Unnamed NPC (ID: 17686632/0x010DE068), tag_num=0x04)
 14: 0x0041 [0x27] REQ_SET(priority=0x10, entity_id=Unnamed NPC (ID: 17686633/0x010DE069), tag_num=0x04)
 15: 0x0048 [0x27] REQ_SET(priority=0x10, entity_id=Cait Sith Seachd (ID: 17686634/0x010DE06A), tag_num=0x04)
 16: 0x004F [0x27] REQ_SET(priority=0x10, entity_id=Unnamed NPC (ID: 17686635/0x010DE06B), tag_num=0x04)
 17: 0x0056 [0x27] REQ_SET(priority=0x10, entity_id=Unnamed NPC (ID: 17686627/0x010DE063), tag_num=0x04)
 18: 0x005D [0x27] REQ_SET(priority=0x10, entity_id=Unnamed NPC (ID: 17686636/0x010DE06C), tag_num=0x04)
 19: 0x0064 [0x92] Unnamed NPC (ID: 17686628/0x010DE064)->Render.Flags3 ^= 0x01
 20: 0x006A [0x92] Unnamed NPC (ID: 17686629/0x010DE065)->Render.Flags3 ^= 0x01
 21: 0x0070 [0x92] Unnamed NPC (ID: 17686630/0x010DE066)->Render.Flags3 ^= 0x01
 22: 0x0076 [0x92] Cait Sith Ceithir (ID: 17686631/0x010DE067)->Render.Flags3 ^= 0x01
 23: 0x007C [0x92] Unnamed NPC (ID: 17686632/0x010DE068)->Render.Flags3 ^= 0x01
 24: 0x0082 [0x92] Unnamed NPC (ID: 17686633/0x010DE069)->Render.Flags3 ^= 0x01
 25: 0x0088 [0x92] Cait Sith Seachd (ID: 17686634/0x010DE06A)->Render.Flags3 ^= 0x01
 26: 0x008E [0x92] Unnamed NPC (ID: 17686635/0x010DE06B)->Render.Flags3 ^= 0x01
 27: 0x0094 [0x92] Unnamed NPC (ID: 17686627/0x010DE063)->Render.Flags3 ^= 0x01
 28: 0x009A [0x92] Unnamed NPC (ID: 17686636/0x010DE06C)->Render.Flags3 ^= 0x01
 29: 0x00A0 [0x94] LocalPlayer->Render.Flags3 ^= 0x01
 30: 0x00A6 [0x94] Unnamed NPC (ID: 17686628/0x010DE064)->Render.Flags3 ^= 0x01
 31: 0x00AC [0x94] Unnamed NPC (ID: 17686629/0x010DE065)->Render.Flags3 ^= 0x01
 32: 0x00B2 [0x94] Unnamed NPC (ID: 17686630/0x010DE066)->Render.Flags3 ^= 0x01
 33: 0x00B8 [0x94] Cait Sith Ceithir (ID: 17686631/0x010DE067)->Render.Flags3 ^= 0x01
 34: 0x00BE [0x94] Unnamed NPC (ID: 17686632/0x010DE068)->Render.Flags3 ^= 0x01
 35: 0x00C4 [0x94] Unnamed NPC (ID: 17686633/0x010DE069)->Render.Flags3 ^= 0x01
 36: 0x00CA [0x94] Cait Sith Seachd (ID: 17686634/0x010DE06A)->Render.Flags3 ^= 0x01
 37: 0x00D0 [0x94] Unnamed NPC (ID: 17686635/0x010DE06B)->Render.Flags3 ^= 0x01
 38: 0x00D6 [0x94] Unnamed NPC (ID: 17686627/0x010DE063)->Render.Flags3 ^= 0x01
 39: 0x00DC [0x94] Unnamed NPC (ID: 17686636/0x010DE06C)->Render.Flags3 ^= 0x01
 40: 0x00E2 [0x59] UPDATE_ENTITY_DATA: Unnamed NPC (ID: 17686630/0x010DE066)->Render.Flags0 |= 0x200000
 41: 0x00E9 [0x59] UPDATE_ENTITY_DATA: Cait Sith Seachd (ID: 17686634/0x010DE06A)->Render.Flags0 |= 0x200000
 42: 0x00F0 [0x59] UPDATE_ENTITY_DATA: Unnamed NPC (ID: 17686635/0x010DE06B)->Render.Flags0 |= 0x200000
 43: 0x00F7 [0x59] UPDATE_ENTITY_DATA: Unnamed NPC (ID: 17686628/0x010DE064)->Render.Flags0 |= 0x200000
 44: 0x00FE [0x59] UPDATE_ENTITY_DATA: Unnamed NPC (ID: 17686629/0x010DE065)->Render.Flags0 |= 0x200000
 45: 0x0105 [0xBA] SET_ENTITY_POSITION(entity_id=LocalPlayer, pos_x=-641.363*, pos_z=-525.111*, pos_y=-19.945*, direction=310.9°*)
 46: 0x0112 [0xBA] SET_ENTITY_POSITION(entity_id=Unnamed NPC (ID: 17686632/0x010DE068), pos_x=-638.172*, pos_z=-523.966*, pos_y=-19.869*, direction=133.9°*)
 47: 0x011F [0xBA] SET_ENTITY_POSITION(entity_id=Unnamed NPC (ID: 17686630/0x010DE066), pos_x=-638.136*, pos_z=-525.276*, pos_y=-20.300*, direction=145.1°*)
 48: 0x012C [0xBA] SET_ENTITY_POSITION(entity_id=Cait Sith Ceithir (ID: 17686631/0x010DE067), pos_x=-641.516*, pos_z=-522.407*, pos_y=-19.999*, direction=86.7°*)
 49: 0x0139 [0xBA] SET_ENTITY_POSITION(entity_id=Cait Sith Seachd (ID: 17686634/0x010DE06A), pos_x=-642.754*, pos_z=-522.858*, pos_y=-20.500*, direction=96.1°*)
 50: 0x0146 [0xBA] SET_ENTITY_POSITION(entity_id=Unnamed NPC (ID: 17686635/0x010DE06B), pos_x=-644.142*, pos_z=-524.591*, pos_y=-20.100*, direction=349.6°*)
 51: 0x0153 [0xBA] SET_ENTITY_POSITION(entity_id=Unnamed NPC (ID: 17686633/0x010DE069), pos_x=-644.145*, pos_z=-525.811*, pos_y=-19.910*, direction=338.8°*)
 52: 0x0160 [0xBA] SET_ENTITY_POSITION(entity_id=Unnamed NPC (ID: 17686628/0x010DE064), pos_x=-639.997*, pos_z=-526.942*, pos_y=-20.500*, direction=221.0°*)
 53: 0x016D [0xBA] SET_ENTITY_POSITION(entity_id=Unnamed NPC (ID: 17686629/0x010DE065), pos_x=-640.982*, pos_z=-528.229*, pos_y=-20.500*, direction=246.5°*)
 54: 0x017A [0xBA] SET_ENTITY_POSITION(entity_id=Unnamed NPC (ID: 17686636/0x010DE06C), pos_x=-642.994*, pos_z=-527.573*, pos_y=-19.823*, direction=310.7°*)
 55: 0x0187 [0xBA] SET_ENTITY_POSITION(entity_id=Unnamed NPC (ID: 17686627/0x010DE063), pos_x=-639.589*, pos_z=-522.436*, pos_y=-20.000*, direction=127.3°*)
 56: 0x0194 [0x29] REQ_SET_WAIT(priority=0x10, entity_id=Unnamed NPC (ID: 17686628/0x010DE064), tag_num=0x0D)
 57: 0x019B [0x29] REQ_SET_WAIT(priority=0x10, entity_id=Unnamed NPC (ID: 17686629/0x010DE065), tag_num=0x14)
 58: 0x01A2 [0x29] REQ_SET_WAIT(priority=0x10, entity_id=Unnamed NPC (ID: 17686630/0x010DE066), tag_num=0x0D)
 59: 0x01A9 [0x29] REQ_SET_WAIT(priority=0x10, entity_id=Unnamed NPC (ID: 17686632/0x010DE068), tag_num=0x0D)
 60: 0x01B0 [0x29] REQ_SET_WAIT(priority=0x10, entity_id=Unnamed NPC (ID: 17686633/0x010DE069), tag_num=0x0D)
 61: 0x01B7 [0x29] REQ_SET_WAIT(priority=0x10, entity_id=Cait Sith Seachd (ID: 17686634/0x010DE06A), tag_num=0x14)
 62: 0x01BE [0x29] REQ_SET_WAIT(priority=0x10, entity_id=Unnamed NPC (ID: 17686635/0x010DE06B), tag_num=0x0D)
 63: 0x01C5 [0x29] REQ_SET_WAIT(priority=0x10, entity_id=Unnamed NPC (ID: 17686627/0x010DE063), tag_num=0x0D)
 64: 0x01CC [0x29] REQ_SET_WAIT(priority=0x10, entity_id=Unnamed NPC (ID: 17686636/0x010DE06C), tag_num=0x0D)
 65: 0x01D3 [0x80] LOAD_WAIT(entity=LocalPlayer)
 66: 0x01D8 [0x80] LOAD_WAIT(entity=Unnamed NPC (ID: 17686628/0x010DE064))
 67: 0x01DD [0x80] LOAD_WAIT(entity=Unnamed NPC (ID: 17686629/0x010DE065))
 68: 0x01E2 [0x80] LOAD_WAIT(entity=Unnamed NPC (ID: 17686630/0x010DE066))
 69: 0x01E7 [0x80] LOAD_WAIT(entity=Cait Sith Ceithir (ID: 17686631/0x010DE067))
 70: 0x01EC [0x80] LOAD_WAIT(entity=Unnamed NPC (ID: 17686632/0x010DE068))
 71: 0x01F1 [0x80] LOAD_WAIT(entity=Unnamed NPC (ID: 17686633/0x010DE069))
 72: 0x01F6 [0x80] LOAD_WAIT(entity=Cait Sith Seachd (ID: 17686634/0x010DE06A))
 73: 0x01FB [0x80] LOAD_WAIT(entity=Unnamed NPC (ID: 17686635/0x010DE06B))
 74: 0x0200 [0x80] LOAD_WAIT(entity=Unnamed NPC (ID: 17686627/0x010DE063))
 75: 0x0205 [0x80] LOAD_WAIT(entity=Unnamed NPC (ID: 17686636/0x010DE06C))
 76: 0x020A [0x4A] LocalPlayer looks at Unnamed NPC (ID: 17686627/0x010DE063)
 77: 0x0213 [0x4A] Unnamed NPC (ID: 17686627/0x010DE063) looks at LocalPlayer
 78: 0x021C [0x4A] Unnamed NPC (ID: 17686628/0x010DE064) looks at LocalPlayer
 79: 0x0225 [0x4A] Unnamed NPC (ID: 17686629/0x010DE065) looks at LocalPlayer
 80: 0x022E [0x4A] Unnamed NPC (ID: 17686630/0x010DE066) looks at LocalPlayer
 81: 0x0237 [0x4A] Cait Sith Ceithir (ID: 17686631/0x010DE067) looks at LocalPlayer
 82: 0x0240 [0x4A] Unnamed NPC (ID: 17686632/0x010DE068) looks at LocalPlayer
 83: 0x0249 [0x4A] Unnamed NPC (ID: 17686633/0x010DE069) looks at Unnamed NPC (ID: 17686635/0x010DE06B)
 84: 0x0252 [0x4A] Cait Sith Seachd (ID: 17686634/0x010DE06A) looks at LocalPlayer
 85: 0x025B [0x4A] Unnamed NPC (ID: 17686635/0x010DE06B) looks at LocalPlayer
 86: 0x0264 [0x4A] Unnamed NPC (ID: 17686636/0x010DE06C) looks at LocalPlayer
 87: 0x026D [0x1C] WAIT(30* ticks)
 88: 0x0270 [0x27] REQ_SET(priority=0x05, entity_id=Unnamed NPC (ID: 17686630/0x010DE066), tag_num=0x10)
 89: 0x0277 [0x27] REQ_SET(priority=0x05, entity_id=Cait Sith Seachd (ID: 17686634/0x010DE06A), tag_num=0x10)
 90: 0x027E [0x27] REQ_SET(priority=0x05, entity_id=Unnamed NPC (ID: 17686629/0x010DE065), tag_num=0x10)
 91: 0x0285 [0x27] REQ_SET(priority=0x05, entity_id=LocalPlayer, tag_num=0x04)
 92: 0x028C [0x5B] LOAD_EXT_SCHEDULER: Load scheduler "con3" with entities [Unnamed NPC (ID: 17686630/0x010DE066), Unnamed NPC (ID: 17686630/0x010DE066)], work=1413*
 93: 0x029B [0x5B] LOAD_EXT_SCHEDULER: Load scheduler "con4" with entities [Cait Sith Seachd (ID: 17686634/0x010DE06A), Cait Sith Seachd (ID: 17686634/0x010DE06A)], work=1413*
 94: 0x02AA [0x5B] LOAD_EXT_SCHEDULER: Load scheduler "con7" with entities [Unnamed NPC (ID: 17686635/0x010DE06B), Unnamed NPC (ID: 17686635/0x010DE06B)], work=1413*
 95: 0x02B9 [0x5B] LOAD_EXT_SCHEDULER: Load scheduler "con5" with entities [Unnamed NPC (ID: 17686628/0x010DE064), Unnamed NPC (ID: 17686628/0x010DE064)], work=1413*
 96: 0x02C8 [0x5B] LOAD_EXT_SCHEDULER: Load scheduler "con2" with entities [Unnamed NPC (ID: 17686629/0x010DE065), Unnamed NPC (ID: 17686629/0x010DE065)], work=1413*
 97: 0x02D7 [0x1C] WAIT(90* ticks)
 98: 0x02DA [0x2B] Unnamed NPC (ID: 17686627/0x010DE063) [7529*]:
    → "[He/She] made it through without being ground to kibble! Avoided a ghastly death!"
 99: 0x02E1 [0x23] WAIT_FOR_DIALOG_INTERACTION
100: 0x02E2 [0x2B] Unnamed NPC (ID: 17686627/0x010DE063) [7530*]:
    → "Could [he/she] be? [He/She] must be! <Player>!"
101: 0x02E9 [0x23] WAIT_FOR_DIALOG_INTERACTION
102: 0x02EA [0x9F] LOAD_SCHEDULED_TASK_ALT: Load scheduler "bl00" with entities [EventEntity, EventEntity], work=[219*, 0*]
103: 0x02FB [0x1C] WAIT(60* ticks)
104: 0x02FE [0x45] LOAD_SCHEDULED_TASK: Load scheduler "s115" with entities [LocalPlayer, LocalPlayer], work=[557*, 0*]
105: 0x030F [0x45] LOAD_SCHEDULED_TASK: Load scheduler "fdi1" with entities [EventEntity, EventEntity], work=[200*, 0*]
106: 0x0320 [0x55] WAIT_LOAD_SCHEDULER: Wait for scheduler "fdi1" with entities [EventEntity, EventEntity], work=200*
107: 0x032F [0x9F] LOAD_SCHEDULED_TASK_ALT: Load scheduler "open" with entities [EventEntity, EventEntity], work=[219*, 0*]
108: 0x0340 [0x1C] WAIT(165* ticks)
109: 0x0343 [0x9F] LOAD_SCHEDULED_TASK_ALT: Load scheduler "clos" with entities [EventEntity, EventEntity], work=[219*, 0*]
110: 0x0354 [0x1C] WAIT(120* ticks)
111: 0x0357 [0x45] LOAD_SCHEDULED_TASK: Load scheduler "fdo1" with entities [EventEntity, EventEntity], work=[200*, 0*]
112: 0x0368 [0x55] WAIT_LOAD_SCHEDULER: Wait for scheduler "fdo1" with entities [EventEntity, EventEntity], work=200*
113: 0x0377 [0x52] END_LOAD_SCHEDULER: End scheduler "s115" with entities [LocalPlayer, LocalPlayer], work=557*
114: 0x0386 [0x9F] LOAD_SCHEDULED_TASK_ALT: Load scheduler "kill" with entities [EventEntity, EventEntity], work=[219*, 0*]
115: 0x0397 [0x1C] WAIT(30* ticks)
116: 0x039A [0x9F] LOAD_SCHEDULED_TASK_ALT: Load scheduler "bl00" with entities [EventEntity, EventEntity], work=[219*, 0*]
117: 0x03AB [0x1C] WAIT(60* ticks)
118: 0x03AE [0x45] LOAD_SCHEDULED_TASK: Load scheduler "s115" with entities [LocalPlayer, LocalPlayer], work=[557*, 0*]
119: 0x03BF [0x45] LOAD_SCHEDULED_TASK: Load scheduler "fdi1" with entities [EventEntity, EventEntity], work=[200*, 0*]
120: 0x03D0 [0x55] WAIT_LOAD_SCHEDULER: Wait for scheduler "fdi1" with entities [EventEntity, EventEntity], work=200*
121: 0x03DF [0x9F] LOAD_SCHEDULED_TASK_ALT: Load scheduler "open" with entities [EventEntity, EventEntity], work=[219*, 0*]
122: 0x03F0 [0x1C] WAIT(165* ticks)
123: 0x03F3 [0x9F] LOAD_SCHEDULED_TASK_ALT: Load scheduler "clos" with entities [EventEntity, EventEntity], work=[219*, 0*]
124: 0x0404 [0x1C] WAIT(120* ticks)
125: 0x0407 [0x45] LOAD_SCHEDULED_TASK: Load scheduler "fdo1" with entities [EventEntity, EventEntity], work=[200*, 0*]
126: 0x0418 [0x55] WAIT_LOAD_SCHEDULER: Wait for scheduler "fdo1" with entities [EventEntity, EventEntity], work=200*
127: 0x0427 [0x52] END_LOAD_SCHEDULER: End scheduler "s115" with entities [LocalPlayer, LocalPlayer], work=557*
128: 0x0436 [0x9F] LOAD_SCHEDULED_TASK_ALT: Load scheduler "kill" with entities [EventEntity, EventEntity], work=[219*, 0*]
129: 0x0447 [0x1C] WAIT(30* ticks)
130: 0x044A [0x45] LOAD_SCHEDULED_TASK: Load scheduler "s092" with entities [LocalPlayer, LocalPlayer], work=[557*, 0*]
131: 0x045B [0x1A] CALL_SUBROUTINE(address=0x2D8D)
132: 0x045E [0x1C] WAIT(100* ticks)
133: 0x0461 [0x52] END_LOAD_SCHEDULER: End scheduler "s092" with entities [LocalPlayer, LocalPlayer], work=557*
134: 0x0470 [0x45] LOAD_SCHEDULED_TASK: Load scheduler "s093" with entities [LocalPlayer, LocalPlayer], work=[557*, 0*]
135: 0x0481 [0x1C] WAIT(120* ticks)
136: 0x0484 [0x5C] MUSIC_CONTROL: Set Idle (Day) music to song 41*
137: 0x0488 [0x5C] MUSIC_CONTROL: Set Idle (Night) music to song 41*
138: 0x048C [0x9A] WAIT_MUSIC_SERVER()
139: 0x048D [0x52] END_LOAD_SCHEDULER: End scheduler "s093" with entities [LocalPlayer, LocalPlayer], work=557*
140: 0x049C [0x45] LOAD_SCHEDULED_TASK: Load scheduler "s094" with entities [LocalPlayer, LocalPlayer], work=[557*, 0*]
141: 0x04AD [0x5B] LOAD_EXT_SCHEDULER: Load scheduler "ude0" with entities [Unnamed NPC (ID: 17686632/0x010DE068), Unnamed NPC (ID: 17686632/0x010DE068)], work=1412*
142: 0x04BC [0x2B] Unnamed NPC (ID: 17686632/0x010DE068) [7531*]:
    → "You have arisen from unconsciousness, I see. Awake at last!"
143: 0x04C3 [0x23] WAIT_FOR_DIALOG_INTERACTION
144: 0x04C4 [0x2B] Unnamed NPC (ID: 17686630/0x010DE066) [7532*]:
    → "G-g-good morning? No, "Good afternoon"...?"
145: 0x04CB [0x23] WAIT_FOR_DIALOG_INTERACTION
146: 0x04CC [0x52] END_LOAD_SCHEDULER: End scheduler "s094" with entities [LocalPlayer, LocalPlayer], work=557*
147: 0x04DB [0x45] LOAD_SCHEDULED_TASK: Load scheduler "s095" with entities [LocalPlayer, LocalPlayer], work=[557*, 0*]
148: 0x04EC [0x5B] LOAD_EXT_SCHEDULER: Load scheduler "yre0" with entities [Cait Sith Ceithir (ID: 17686631/0x010DE067), Cait Sith Ceithir (ID: 17686631/0x010DE067)], work=2521*
149: 0x04FB [0x27] REQ_SET(priority=0x05, entity_id=LocalPlayer, tag_num=0x14)
150: 0x0502 [0x2B] Unnamed NPC (ID: 17686630/0x010DE066) [7533*]:
    → "Nyahahaha! Our Champion of the Dawn seems more like the Champion of the Doze today. Sleeping on the job."
151: 0x0509 [0x23] WAIT_FOR_DIALOG_INTERACTION
152: 0x050A [0x2B] Unnamed NPC (ID: 17686630/0x010DE066) [7534*]:
    → "Do you recall our visages? Recognize our faces?"
153: 0x0511 [0x23] WAIT_FOR_DIALOG_INTERACTION
154: 0x0512 [0x52] END_LOAD_SCHEDULER: End scheduler "s095" with entities [LocalPlayer, LocalPlayer], work=557*
155: 0x0521 [0x45] LOAD_SCHEDULED_TASK: Load scheduler "s096" with entities [LocalPlayer, LocalPlayer], work=[557*, 0*]
156: 0x0532 [0x29] REQ_SET_WAIT(priority=0x10, entity_id=LocalPlayer, tag_num=0x03)
157: 0x0539 [0x2B] Unnamed NPC (ID: 17686635/0x010DE06B) [7535*]:
    → "I doubt [he/she] does. Like Naoi said, [he/she] comes from another point in time. A different breed of cait. I would be more surprised if [he/she] did."
158: 0x0540 [0x23] WAIT_FOR_DIALOG_INTERACTION
159: 0x0541 [0x7C] Unnamed NPC (ID: 17686633/0x010DE069)->Render.Flags2 |= 0x00
160: 0x0547 [0x81] SET_ENTITY_BLINKING(blink_flag=0x00, entity=Unnamed NPC (ID: 17686633/0x010DE069))
161: 0x054D [0x5B] LOAD_EXT_SCHEDULER: Load scheduler "cry0" with entities [Unnamed NPC (ID: 17686633/0x010DE069), Unnamed NPC (ID: 17686633/0x010DE069)], work=2857*
162: 0x055C [0x2B] Unnamed NPC (ID: 17686633/0x010DE069) [7536*]:
    → "The callousness of it all... I'm thrown into paroxysms of sorrow. Bouts of bleakness. How could anyone be so cruel!?"
163: 0x0563 [0x23] WAIT_FOR_DIALOG_INTERACTION
164: 0x0564 [0x52] END_LOAD_SCHEDULER: End scheduler "s096" with entities [LocalPlayer, LocalPlayer], work=557*
165: 0x0573 [0x45] LOAD_SCHEDULED_TASK: Load scheduler "s097" with entities [LocalPlayer, LocalPlayer], work=[557*, 0*]
166: 0x0584 [0x7C] Unnamed NPC (ID: 17686633/0x010DE069)->Render.Flags2 |= 0x01
167: 0x058A [0x81] SET_ENTITY_BLINKING(blink_flag=0x01, entity=Unnamed NPC (ID: 17686633/0x010DE069))
168: 0x0590 [0x2B] Unnamed NPC (ID: 17686628/0x010DE064) [7537*]:
    → "Presence or absence of memory is not the issue at hand. The point in question. Rather, we must devote our full attention to normalizing this interdimensional aberration."
169: 0x0597 [0x23] WAIT_FOR_DIALOG_INTERACTION
170: 0x0598 [0x2B] Unnamed NPC (ID: 17686628/0x010DE064) [7538*]:
    → "My sentiments exactly. Even if the cait dragged [his/her] forgetful hide in from somewhen else, we all want the realm back to normal. Great minds think alike."
171: 0x059F [0x23] WAIT_FOR_DIALOG_INTERACTION
172: 0x05A0 [0x52] END_LOAD_SCHEDULER: End scheduler "s097" with entities [LocalPlayer, LocalPlayer], work=557*
173: 0x05AF [0x45] LOAD_SCHEDULED_TASK: Load scheduler "s098" with entities [LocalPlayer, LocalPlayer], work=[557*, 0*]
174: 0x05C0 [0x5B] LOAD_EXT_SCHEDULER: Load scheduler "ude0" with entities [Unnamed NPC (ID: 17686636/0x010DE06C), Unnamed NPC (ID: 17686636/0x010DE06C)], work=1412*
175: 0x05CF [0x2B] Unnamed NPC (ID: 17686636/0x010DE06C) [7539*]:
    → "Our minds may indeed be great, Dha, but Aon is only stating the obvious. Without this champion's help, we cannot even begin to wish for success. Achievement eludes us."
176: 0x05D6 [0x23] WAIT_FOR_DIALOG_INTERACTION
177: 0x05D7 [0x2B] Unnamed NPC (ID: 17686636/0x010DE06C) [7540*]:
    → "Naoi, you hold the firmest grasp on our predicament. Would you care to enlighten this adventurer as well? Apprise this person?"
178: 0x05DE [0x23] WAIT_FOR_DIALOG_INTERACTION
179: 0x05DF [0x55] WAIT_LOAD_SCHEDULER: Wait for scheduler "s098" with entities [LocalPlayer, LocalPlayer], work=557*
180: 0x05EE [0x45] LOAD_SCHEDULED_TASK: Load scheduler "s099" with entities [LocalPlayer, LocalPlayer], work=[557*, 0*]
181: 0x05FF [0x5B] LOAD_EXT_SCHEDULER: Load scheduler "ude0" with entities [Unnamed NPC (ID: 17686627/0x010DE063), Unnamed NPC (ID: 17686627/0x010DE063)], work=1412*
182: 0x060E [0x6B] STOP_AND_IDLE: Unnamed NPC (ID: 17686632/0x010DE068) stops current action and resets to idle (animation="idl0")
183: 0x0617 [0x6B] STOP_AND_IDLE: Unnamed NPC (ID: 17686633/0x010DE069) stops current action and resets to idle (animation="idl0")
184: 0x0620 [0x6B] STOP_AND_IDLE: Unnamed NPC (ID: 17686636/0x010DE06C) stops current action and resets to idle (animation="idl0")
185: 0x0629 [0x6B] STOP_AND_IDLE: Cait Sith Ceithir (ID: 17686631/0x010DE067) stops current action and resets to idle (animation="idl0")
186: 0x0632 [0x79] LocalPlayer looks at Unnamed NPC (ID: 17686627/0x010DE063) (Basic look)
187: 0x063C [0x4A] Unnamed NPC (ID: 17686633/0x010DE069) looks at LocalPlayer
188: 0x0645 [0x27] REQ_SET(priority=0x05, entity_id=Unnamed NPC (ID: 17686627/0x010DE063), tag_num=0x14)
189: 0x064C [0x2A] GET_REQ_LEVEL(level=5, entity_id=Unnamed NPC (ID: 17686627/0x010DE063))
190: 0x0652 [0x5D] SET_MUSIC_VOLUME(volume=0*, fade_time=60*)
191: 0x0657 [0x2B] Unnamed NPC (ID: 17686627/0x010DE063) [7541*]:
    → "I suppose. [He/She] does seem awfully perplexed. Mightily muddled."
192: 0x065E [0x23] WAIT_FOR_DIALOG_INTERACTION
193: 0x065F [0x2B] Unnamed NPC (ID: 17686627/0x010DE063) [7542*]:
    → "Keep in mind I know not all--only what I know. Now, where shall we begin?"
194: 0x0666 [0x23] WAIT_FOR_DIALOG_INTERACTION
195: 0x0667 [0x5C] MUSIC_CONTROL: Set Idle (Day) music to song 56*
196: 0x066B [0x5C] MUSIC_CONTROL: Set Idle (Night) music to song 56*
197: 0x066F [0x9A] WAIT_MUSIC_SERVER()
198: 0x0670 [0x52] END_LOAD_SCHEDULER: End scheduler "s099" with entities [LocalPlayer, LocalPlayer], work=557*
199: 0x067F [0x45] LOAD_SCHEDULED_TASK: Load scheduler "s100" with entities [LocalPlayer, LocalPlayer], work=[557*, 0*]
200: 0x0690 [0x03] ExtData[1]->WorkLocal[2] = 8*
201: 0x0695 [0x02] IF !(ExtData[1]->WorkLocal[2] == 15*) GOTO 0x06A2
202: 0x069D [0x03] ExtData[1]->WorkLocal[2] = 7*
203: 0x06A2 [0x24] CREATE_DIALOG(message_id=7543*, default_option=0*, option_flags=ExtData[1]->WorkLocal[2])
    → "What shall you ask? [There are...ten of you?/Have you shrunk?/Where in Vana'diel am I?/I need ask nothing.]"
204: 0x06A9 [0x25] WAIT_DIALOG_SELECT()
205: 0x06AA [0x02] IF !(Work_Zone[0] == 0*) GOTO 0x09D7
206: 0x06B2 [0x52] END_LOAD_SCHEDULER: End scheduler "s100" with entities [LocalPlayer, LocalPlayer], work=557*
207: 0x06C1 [0x45] LOAD_SCHEDULED_TASK: Load scheduler "s101" with entities [LocalPlayer, LocalPlayer], work=[557*, 0*]
208: 0x06D2 [0x4A] Unnamed NPC (ID: 17686628/0x010DE064) looks at Unnamed NPC (ID: 17686627/0x010DE063)
209: 0x06DB [0x2B] Unnamed NPC (ID: 17686627/0x010DE063) [7544*]:
    → "An astute observation, indeed. Sagacity manifest."
210: 0x06E2 [0x23] WAIT_FOR_DIALOG_INTERACTION
211: 0x06E3 [0x2B] Unnamed NPC (ID: 17686627/0x010DE063) [7545*]:
    → "While we now number in the double digits, originally we were one. A single soul."
212: 0x06EA [0x23] WAIT_FOR_DIALOG_INTERACTION
213: 0x06EB [0x2B] Unnamed NPC (ID: 17686627/0x010DE063) [7546*]:
    → "Were we complete, you question? Whole, you ask?"
214: 0x06F2 [0x23] WAIT_FOR_DIALOG_INTERACTION
215: 0x06F3 [0x52] END_LOAD_SCHEDULER: End scheduler "s101" with entities [LocalPlayer, LocalPlayer], work=557*
216: 0x0702 [0x45] LOAD_SCHEDULED_TASK: Load scheduler "s102" with entities [LocalPlayer, LocalPlayer], work=[557*, 0*]
217: 0x0713 [0x27] REQ_SET(priority=0x05, entity_id=Unnamed NPC (ID: 17686628/0x010DE064), tag_num=0x14)
218: 0x071A [0x2A] GET_REQ_LEVEL(level=5, entity_id=Unnamed NPC (ID: 17686628/0x010DE064))
219: 0x0720 [0x2B] Unnamed NPC (ID: 17686628/0x010DE064) [7547*]:
    → "Hardly. Such expressions are of no more use than a cait's idle mewings. Naught but noise."
220: 0x0727 [0x23] WAIT_FOR_DIALOG_INTERACTION
221: 0x0728 [0x27] REQ_SET(priority=0x05, entity_id=Unnamed NPC (ID: 17686632/0x010DE068), tag_num=0x14)
222: 0x072F [0x2A] GET_REQ_LEVEL(level=5, entity_id=Unnamed NPC (ID: 17686632/0x010DE068))
223: 0x0735 [0x52] END_LOAD_SCHEDULER: End scheduler "s102" with entities [LocalPlayer, LocalPlayer], work=557*
224: 0x0744 [0x45] LOAD_SCHEDULED_TASK: Load scheduler "s103" with entities [LocalPlayer, LocalPlayer], work=[557*, 0*]
225: 0x0755 [0x27] REQ_SET(priority=0x05, entity_id=Unnamed NPC (ID: 17686632/0x010DE068), tag_num=0x11)
226: 0x075C [0x2B] Unnamed NPC (ID: 17686632/0x010DE068) [7548*]:
    → "Never a truer word has been spoken, Aon! I had already passed on at the time! Scratched my last post! How could anyone call that "complete"!?"
227: 0x0763 [0x23] WAIT_FOR_DIALOG_INTERACTION
228: 0x0764 [0x2A] GET_REQ_LEVEL(level=5, entity_id=Unnamed NPC (ID: 17686632/0x010DE068))
229: 0x076A [0x4A] Unnamed NPC (ID: 17686627/0x010DE063) looks at Unnamed NPC (ID: 17686632/0x010DE068)
230: 0x0773 [0x2B] Unnamed NPC (ID: 17686627/0x010DE063) [7549*]:
    → "You speak not only with passion, but reason as well. Prudence and force."
231: 0x077A [0x23] WAIT_FOR_DIALOG_INTERACTION
232: 0x077B [0x5B] LOAD_EXT_SCHEDULER: Load scheduler "yre1" with entities [Unnamed NPC (ID: 17686632/0x010DE068), Unnamed NPC (ID: 17686632/0x010DE068)], work=2521*
233: 0x078A [0x52] END_LOAD_SCHEDULER: End scheduler "s103" with entities [LocalPlayer, LocalPlayer], work=557*
234: 0x0799 [0x45] LOAD_SCHEDULED_TASK: Load scheduler "s104" with entities [LocalPlayer, LocalPlayer], work=[557*, 0*]
235: 0x07AA [0x4A] Unnamed NPC (ID: 17686627/0x010DE063) looks at LocalPlayer
236: 0x07B3 [0x4A] Cait Sith Ceithir (ID: 17686631/0x010DE067) looks at Unnamed NPC (ID: 17686627/0x010DE063)
237: 0x07BC [0x1C] WAIT(30* ticks)
238: 0x07BF [0x4A] Unnamed NPC (ID: 17686632/0x010DE068) looks at LocalPlayer
239: 0x07C8 [0x5B] LOAD_EXT_SCHEDULER: Load scheduler "tlk0" with entities [Unnamed NPC (ID: 17686627/0x010DE063), Unnamed NPC (ID: 17686627/0x010DE063)], work=1310*
240: 0x07D7 [0x2B] Unnamed NPC (ID: 17686627/0x010DE063) [7550*]:
    → "...<Cough> We ran the gamut of emotions from grief to joy. Played all the parts. We laughed, we cried, we witnessed our brethren die."
241: 0x07DE [0x23] WAIT_FOR_DIALOG_INTERACTION
242: 0x07DF [0x2B] Unnamed NPC (ID: 17686627/0x010DE063) [7551*]:
    → "In summation, it was a trying time for us. The pinnacle of drama."
243: 0x07E6 [0x23] WAIT_FOR_DIALOG_INTERACTION
244: 0x07E7 [0x5B] LOAD_EXT_SCHEDULER: Load scheduler "tlk1" with entities [Unnamed NPC (ID: 17686627/0x010DE063), Unnamed NPC (ID: 17686627/0x010DE063)], work=1310*
245: 0x07F6 [0x52] END_LOAD_SCHEDULER: End scheduler "s104" with entities [LocalPlayer, LocalPlayer], work=557*
246: 0x0805 [0x45] LOAD_SCHEDULED_TASK: Load scheduler "s105" with entities [LocalPlayer, LocalPlayer], work=[557*, 0*]
247: 0x0816 [0x6E] LocalPlayer uses emote 22*
248: 0x081D [0x99] Wait for LocalPlayer animation to complete
249: 0x0822 [0x1C] WAIT(60* ticks)
250: 0x0825 [0x2B] Unnamed NPC (ID: 17686627/0x010DE063) [7552*]:
    → "Did my explanation not shed enough light on the matter? Paint a full picture?"
251: 0x082C [0x23] WAIT_FOR_DIALOG_INTERACTION
252: 0x082D [0x5B] LOAD_EXT_SCHEDULER: Load scheduler "ude0" with entities [Unnamed NPC (ID: 17686627/0x010DE063), Unnamed NPC (ID: 17686627/0x010DE063)], work=1412*
253: 0x083C [0x2B] Unnamed NPC (ID: 17686627/0x010DE063) [7553*]:
    → "Oh well, it matters not. There is no need to lick each strand of fur into place. Obsess over particulars. We have more important issues to address."
254: 0x0843 [0x23] WAIT_FOR_DIALOG_INTERACTION
255: 0x0844 [0x27] REQ_SET(priority=0x05, entity_id=Cait Sith Ceithir (ID: 17686631/0x010DE067), tag_num=0x14)
256: 0x084B [0x2A] GET_REQ_LEVEL(level=5, entity_id=Cait Sith Ceithir (ID: 17686631/0x010DE067))
257: 0x0851 [0x52] END_LOAD_SCHEDULER: End scheduler "s105" with entities [LocalPlayer, LocalPlayer], work=557*
258: 0x0860 [0x45] LOAD_SCHEDULED_TASK: Load scheduler "s106" with entities [LocalPlayer, LocalPlayer], work=[557*, 0*]
259: 0x0871 [0x5B] LOAD_EXT_SCHEDULER: Load scheduler "yre0" with entities [Cait Sith Ceithir (ID: 17686631/0x010DE067), Cait Sith Ceithir (ID: 17686631/0x010DE067)], work=2521*
260: 0x0880 [0x2B] Cait Sith Ceithir (ID: 17686631/0x010DE067) [7554*]:
    → "Nyahahaha! Looks like you went astray with your description there, Naoi! Flopped and floundered!"
261: 0x0887 [0x23] WAIT_FOR_DIALOG_INTERACTION
262: 0x0888 [0x4A] Unnamed NPC (ID: 17686627/0x010DE063) looks at Cait Sith Ceithir (ID: 17686631/0x010DE067)
263: 0x0891 [0x2B] Unnamed NPC (ID: 17686627/0x010DE063) [7555*]:
    → "Silence! May a cait take your tongue!"
264: 0x0898 [0x23] WAIT_FOR_DIALOG_INTERACTION
265: 0x0899 [0x5B] LOAD_EXT_SCHEDULER: Load scheduler "yre1" with entities [Cait Sith Ceithir (ID: 17686631/0x010DE067), Cait Sith Ceithir (ID: 17686631/0x010DE067)], work=2521*
266: 0x08A8 [0x52] END_LOAD_SCHEDULER: End scheduler "s106" with entities [LocalPlayer, LocalPlayer], work=557*
267: 0x08B7 [0x45] LOAD_SCHEDULED_TASK: Load scheduler "s107" with entities [LocalPlayer, LocalPlayer], work=[557*, 0*]
268: 0x08C8 [0x4A] Unnamed NPC (ID: 17686627/0x010DE063) looks at LocalPlayer
269: 0x08D1 [0x1C] WAIT(30* ticks)
270: 0x08D4 [0x4A] Cait Sith Ceithir (ID: 17686631/0x010DE067) looks at LocalPlayer
271: 0x08DD [0x2B] Unnamed NPC (ID: 17686627/0x010DE063) [7556*]:
    → "...<Ahem> Moving on."
272: 0x08E4 [0x23] WAIT_FOR_DIALOG_INTERACTION
273: 0x08E5 [0x5B] LOAD_EXT_SCHEDULER: Load scheduler "ude0" with entities [Unnamed NPC (ID: 17686627/0x010DE063), Unnamed NPC (ID: 17686627/0x010DE063)], work=1412*
274: 0x08F4 [0x2B] Unnamed NPC (ID: 17686627/0x010DE063) [7557*]:
    → "I trust that magniloquent moogle favored you with facts on the details of our disappearance? Well, that journey is the reason behind our sudden split. Sweet emancipation."
275: 0x08FB [0x23] WAIT_FOR_DIALOG_INTERACTION
276: 0x08FC [0x52] END_LOAD_SCHEDULER: End scheduler "s107" with entities [LocalPlayer, LocalPlayer], work=557*
277: 0x090B [0x45] LOAD_SCHEDULED_TASK: Load scheduler "s108" with entities [LocalPlayer, LocalPlayer], work=[557*, 0*]
278: 0x091C [0x2B] Unnamed NPC (ID: 17686627/0x010DE063) [7558*]:
    → "If three is company, ten is trauma. At any rate, we should never even have been able to assume our current form. Shocking revelation."
279: 0x0923 [0x23] WAIT_FOR_DIALOG_INTERACTION
280: 0x0924 [0x2B] Unnamed NPC (ID: 17686627/0x010DE063) [7559*]:
    → "Once we coalesced at the spiritual level, it should have been impossible to separate us. Together forever."
281: 0x092B [0x23] WAIT_FOR_DIALOG_INTERACTION
282: 0x092C [0x52] END_LOAD_SCHEDULER: End scheduler "s108" with entities [LocalPlayer, LocalPlayer], work=557*
283: 0x093B [0x45] LOAD_SCHEDULED_TASK: Load scheduler "s109" with entities [LocalPlayer, LocalPlayer], work=[557*, 0*]
284: 0x094C [0x2B] Cait Sith Seachd (ID: 17686634/0x010DE06A) [7560*]:
    → "Separation could very well have meant death for us, and we were ready to accept our fate. A plea and a paw."
285: 0x0953 [0x23] WAIT_FOR_DIALOG_INTERACTION
286: 0x0954 [0x7C] Unnamed NPC (ID: 17686633/0x010DE069)->Render.Flags2 |= 0x00
287: 0x095A [0x81] SET_ENTITY_BLINKING(blink_flag=0x00, entity=Unnamed NPC (ID: 17686633/0x010DE069))
288: 0x0960 [0x52] END_LOAD_SCHEDULER: End scheduler "s109" with entities [LocalPlayer, LocalPlayer], work=557*
289: 0x096F [0x45] LOAD_SCHEDULED_TASK: Load scheduler "s110" with entities [LocalPlayer, LocalPlayer], work=[557*, 0*]
290: 0x0980 [0x5B] LOAD_EXT_SCHEDULER: Load scheduler "hot0" with entities [Unnamed NPC (ID: 17686633/0x010DE069), Unnamed NPC (ID: 17686633/0x010DE069)], work=1312*
291: 0x098F [0x2B] Unnamed NPC (ID: 17686627/0x010DE063) [7561*]:
    → "Yet here we are, in the fur...our original bodies reclaimed. Even those of us who perished have been revived. A fairy-tale ending?"
292: 0x0996 [0x23] WAIT_FOR_DIALOG_INTERACTION
293: 0x0997 [0x0E] ExtData[1]->WorkLocal[2] |= 1*
294: 0x099C [0x52] END_LOAD_SCHEDULER: End scheduler "s110" with entities [LocalPlayer, LocalPlayer], work=557*
295: 0x09AB [0x45] LOAD_SCHEDULED_TASK: Load scheduler "s100" with entities [LocalPlayer, LocalPlayer], work=[557*, 0*]
296: 0x09BC [0x7C] Unnamed NPC (ID: 17686633/0x010DE069)->Render.Flags2 |= 0x01
297: 0x09C2 [0x81] SET_ENTITY_BLINKING(blink_flag=0x01, entity=Unnamed NPC (ID: 17686633/0x010DE069))
298: 0x09C8 [0x6B] STOP_AND_IDLE: Unnamed NPC (ID: 17686633/0x010DE069) stops current action and resets to idle (animation="idl0")
299: 0x09D1 [0x01] GOTO 0x0695

SUBROUTINE_10B4:
300: 0x10B4 [0x03] Work_Zone[1] = 0*
301: 0x10B9 [0x02] IF !(ExtData[1]->WorkLocal[1] == 1*) GOTO 0x11FA
302: 0x10C1 [0x45] LOAD_SCHEDULED_TASK: Load scheduler "s137" with entities [LocalPlayer, LocalPlayer], work=[557*, 0*]
303: 0x10D2 [0x5B] LOAD_EXT_SCHEDULER: Load scheduler "ude1" with entities [Unnamed NPC (ID: 17686627/0x010DE063), Unnamed NPC (ID: 17686627/0x010DE063)], work=1412*
304: 0x10E1 [0x1C] WAIT(15* ticks)
305: 0x10E4 [0x27] REQ_SET(priority=0x05, entity_id=Unnamed NPC (ID: 17686627/0x010DE063), tag_num=0x12)
306: 0x10EB [0x2B] Unnamed NPC (ID: 17686627/0x010DE063) [7601*]:
    → "Mreowr? Whoa, whoa, whoa. Leave not so soon. May I see that stone of yours?"
307: 0x10F2 [0x23] WAIT_FOR_DIALOG_INTERACTION
308: 0x10F3 [0x2B] Unnamed NPC (ID: 17686627/0x010DE063) [7602*]:
    → "Yes, that crystal with the ghostly white glow. Cadaverous pallor."
309: 0x10FA [0x23] WAIT_FOR_DIALOG_INTERACTION
310: 0x10FB [0x2A] GET_REQ_LEVEL(level=5, entity_id=Unnamed NPC (ID: 17686627/0x010DE063))
311: 0x1101 [0x27] REQ_SET(priority=0x05, entity_id=LocalPlayer, tag_num=0x0C)
312: 0x1108 [0x1C] WAIT(80* ticks)
313: 0x110B [0x27] REQ_SET(priority=0x05, entity_id=LocalPlayer, tag_num=0x0D)
314: 0x1112 [0x1C] WAIT(40* ticks)
315: 0x1115 [0x52] END_LOAD_SCHEDULER: End scheduler "s137" with entities [LocalPlayer, LocalPlayer], work=557*
316: 0x1124 [0x45] LOAD_SCHEDULED_TASK: Load scheduler "s138" with entities [LocalPlayer, LocalPlayer], work=[557*, 0*]
317: 0x1135 [0x2B] Unnamed NPC (ID: 17686627/0x010DE063) [7603*]:
    → "Nothing remotely similar has ever crossed my eyes. This crystal appears to harbor some uncanny power from a bygone era. Primitive puissance."
318: 0x113C [0x23] WAIT_FOR_DIALOG_INTERACTION
319: 0x113D [0x52] END_LOAD_SCHEDULER: End scheduler "s138" with entities [LocalPlayer, LocalPlayer], work=557*
320: 0x114C [0x45] LOAD_SCHEDULED_TASK: Load scheduler "s139" with entities [LocalPlayer, LocalPlayer], work=[557*, 0*]
321: 0x115D [0x27] REQ_SET(priority=0x05, entity_id=LocalPlayer, tag_num=0x13)
322: 0x1164 [0x1C] WAIT(60* ticks)
323: 0x1167 [0x5B] LOAD_EXT_SCHEDULER: Load scheduler "thk0" with entities [Unnamed NPC (ID: 17686627/0x010DE063), Unnamed NPC (ID: 17686627/0x010DE063)], work=1310*
324: 0x1176 [0x2B] Unnamed NPC (ID: 17686627/0x010DE063) [7604*]:
    → "So this is plunder gained from a Voidwalker battle? Interdimensional fisticuffs?"
325: 0x117D [0x23] WAIT_FOR_DIALOG_INTERACTION
326: 0x117E [0x1C] WAIT(60* ticks)
327: 0x1181 [0x2B] Unnamed NPC (ID: 17686627/0x010DE063) [7605*]:
    → "The way it resonates with these surroundings... This is no normal hunk of rock. No common tabby cait."
328: 0x1188 [0x23] WAIT_FOR_DIALOG_INTERACTION
329: 0x1189 [0x52] END_LOAD_SCHEDULER: End scheduler "s139" with entities [LocalPlayer, LocalPlayer], work=557*
330: 0x1198 [0x45] LOAD_SCHEDULED_TASK: Load scheduler "s140" with entities [LocalPlayer, LocalPlayer], work=[557*, 0*]
331: 0x11A9 [0x5B] LOAD_EXT_SCHEDULER: Load scheduler "thk1" with entities [Unnamed NPC (ID: 17686627/0x010DE063), Unnamed NPC (ID: 17686627/0x010DE063)], work=1310*
332: 0x11B8 [0x2B] Unnamed NPC (ID: 17686627/0x010DE063) [7606*]:
    → "I suppose returning it to you would do no harm. Whatever you do, you must not relinquish it. Let it slip through your paws."
333: 0x11BF [0x23] WAIT_FOR_DIALOG_INTERACTION
334: 0x11C0 [0x5B] LOAD_EXT_SCHEDULER: Load scheduler "tlk0" with entities [Unnamed NPC (ID: 17686627/0x010DE063), Unnamed NPC (ID: 17686627/0x010DE063)], work=1310*
335: 0x11CF [0x2B] Unnamed NPC (ID: 17686627/0x010DE063) [7607*]:
    → "Something this peculiar must surely have a use--we need only find out what that is. In the meantime, maybe it will serve as a lucky charm in your travels. Invite felicity."
336: 0x11D6 [0x23] WAIT_FOR_DIALOG_INTERACTION
337: 0x11D7 [0x5B] LOAD_EXT_SCHEDULER: Load scheduler "tlk1" with entities [Unnamed NPC (ID: 17686627/0x010DE063), Unnamed NPC (ID: 17686627/0x010DE063)], work=1310*
338: 0x11E6 [0x52] END_LOAD_SCHEDULER: End scheduler "s140" with entities [LocalPlayer, LocalPlayer], work=557*
339: 0x11F5 [0x03] Work_Zone[1] = 1*
340: 0x11FA [0x45] LOAD_SCHEDULED_TASK: Load scheduler "s136" with entities [LocalPlayer, LocalPlayer], work=[557*, 0*]
341: 0x120B [0x6E] LocalPlayer uses emote 19*
342: 0x1212 [0x99] Wait for LocalPlayer animation to complete
343: 0x1217 [0x1C] WAIT(150* ticks)
344: 0x121A [0x1A] CALL_SUBROUTINE(address=0x2DAE)
345: 0x121D [0x1C] WAIT(30* ticks)
346: 0x1220 [0x52] END_LOAD_SCHEDULER: End scheduler "s136" with entities [LocalPlayer, LocalPlayer], work=557*
347: 0x122F [0xC5] LOAD_SCHEDULED_TASK_ALT3: Load scheduler 0x80003030 for entities [LocalPlayer, LocalPlayer], work=167*, param=29811
348: 0x1240 [0x1C] WAIT(15* ticks)
349: 0x1243 [0xAB] EventEntity->DespawnValue = 0* // Set despawn value
350: 0x1247 [0x1C] WAIT(1* ticks)
351: 0x124A [0xAB] EventEntity->UnknownFlag = 0 // Disable unknown flag
352: 0x124C [0x46] CAMERA_CONTROL: Restore default settings
353: 0x124E [0x45] LOAD_SCHEDULED_TASK: Load scheduler "fdi2" with entities [LocalPlayer, LocalPlayer], work=[200*, 0*]
354: 0x125F [0x21] END_EVENT
355: 0x1260 [0x00] END_REQSTACK()
```

#### Data or dead code:

```
# Dead code (unreachable instructions):
     0x09D4 [0x01] GOTO 0x10B4
     0x0B73 [0x01] GOTO 0x10B4
     0x0DF7 [0x01] GOTO 0x10B4
```

### Event 102

#### Metadata

| Field        | Value      |
|--------------|------------|
| Entrypoint   | 0x1261     |
| Data Size    | 1076 bytes |
| Instructions | 143        |

```
      00 01 02 03 04 05 06 07  08 09 0A 0B 0C 0D 0E 0F
      -- -- -- -- -- -- -- --  -- -- -- -- -- -- -- --
1260:    42 1A AE 2D 46 01 38  02 80 4E 00 F0 FF FF 7F   B..-F.8..N.....
1270: 27 10 64 E0 0D 01 04 27  10 65 E0 0D 01 04 27 10  '.d....'.e....'.
1280: 66 E0 0D 01 04 27 10 67  E0 0D 01 04 27 10 68 E0  f....'.g....'.h.
1290: 0D 01 04 27 10 69 E0 0D  01 04 27 10 6A E0 0D 01  ...'.i....'.j...
12A0: 04 27 10 6B E0 0D 01 04  27 10 63 E0 0D 01 04 27  .'.k....'.c....'
12B0: 10 6C E0 0D 01 04 92 01  64 E0 0D 01 92 01 65 E0  .l......d.....e.
12C0: 0D 01 92 01 66 E0 0D 01  92 01 67 E0 0D 01 92 01  ....f.....g.....
12D0: 68 E0 0D 01 92 01 69 E0  0D 01 92 01 6A E0 0D 01  h.....i.....j...
12E0: 92 01 6B E0 0D 01 92 01  63 E0 0D 01 92 01 6C E0  ..k.....c.....l.
12F0: 0D 01 94 01 F0 FF FF 7F  94 01 64 E0 0D 01 94 01  ..........d.....
1300: 65 E0 0D 01 94 01 66 E0  0D 01 94 01 67 E0 0D 01  e.....f.....g...
1310: 94 01 68 E0 0D 01 94 01  69 E0 0D 01 94 01 6A E0  ..h.....i.....j.
1320: 0D 01 94 01 6B E0 0D 01  94 01 63 E0 0D 01 94 01  ....k.....c.....
1330: 6C E0 0D 01 59 05 66 E0  0D 01 01 59 05 6A E0 0D  l...Y.f....Y.j..
1340: 01 01 59 05 6B E0 0D 01  01 59 05 64 E0 0D 01 01  ..Y.k....Y.d....
1350: 59 05 65 E0 0D 01 01 BA  F0 FF FF 7F 03 80 04 80  Y.e.............
1360: 05 80 06 80 BA 68 E0 0D  01 07 80 08 80 09 80 0A  .....h..........
1370: 80 BA 66 E0 0D 01 0B 80  0C 80 0D 80 0E 80 BA 67  ..f............g
1380: E0 0D 01 0F 80 10 80 11  80 12 80 BA 6A E0 0D 01  ............j...
1390: 13 80 14 80 15 80 16 80  BA 6B E0 0D 01 17 80 18  .........k......
13A0: 80 19 80 1A 80 BA 69 E0  0D 01 1B 80 1C 80 1D 80  ......i.........
13B0: 1E 80 BA 64 E0 0D 01 1F  80 20 80 15 80 21 80 BA  ...d..... ...!..
13C0: 65 E0 0D 01 22 80 23 80  15 80 24 80 BA 6C E0 0D  e...".#...$..l..
13D0: 01 25 80 26 80 27 80 28  80 BA 63 E0 0D 01 29 80  .%.&.'.(..c...).
13E0: 2A 80 2B 80 2C 80 29 10  64 E0 0D 01 14 29 10 65  *.+.,.).d....).e
13F0: E0 0D 01 14 29 10 66 E0  0D 01 14 29 10 67 E0 0D  ....).f....).g..
1400: 01 14 29 10 68 E0 0D 01  14 29 10 69 E0 0D 01 14  ..).h....).i....
1410: 29 10 6A E0 0D 01 14 29  10 6B E0 0D 01 14 29 10  ).j....).k....).
1420: 63 E0 0D 01 14 29 10 6C  E0 0D 01 14 80 F0 FF FF  c....).l........
1430: 7F 80 64 E0 0D 01 80 65  E0 0D 01 80 66 E0 0D 01  ..d....e....f...
1440: 80 67 E0 0D 01 80 68 E0  0D 01 80 69 E0 0D 01 80  .g....h....i....
1450: 6A E0 0D 01 80 6B E0 0D  01 80 63 E0 0D 01 80 6C  j....k....c....l
1460: E0 0D 01 4A F0 FF FF 7F  63 E0 0D 01 4A 63 E0 0D  ...J....c...Jc..
1470: 01 F0 FF FF 7F 4A 64 E0  0D 01 F0 FF FF 7F 4A 65  .....Jd.......Je
1480: E0 0D 01 F0 FF FF 7F 4A  66 E0 0D 01 F0 FF FF 7F  .......Jf.......
1490: 4A 67 E0 0D 01 F0 FF FF  7F 4A 68 E0 0D 01 F0 FF  Jg.......Jh.....
14A0: FF 7F 4A 69 E0 0D 01 F0  FF FF 7F 4A 6A E0 0D 01  ..Ji.......Jj...
14B0: F0 FF FF 7F 4A 6B E0 0D  01 F0 FF FF 7F 4A 6C E0  ....Jk.......Jl.
14C0: 0D 01 F0 FF FF 7F 1C 2D  80 27 05 66 E0 0D 01 10  .......-.'.f....
14D0: 27 05 6A E0 0D 01 10 27  05 65 E0 0D 01 10 5B 2E  '.j....'.e....[.
14E0: 80 66 E0 0D 01 66 E0 0D  01 63 6F 6E 33 5B 2E 80  .f...f...con3[..
14F0: 6A E0 0D 01 6A E0 0D 01  63 6F 6E 34 5B 2E 80 6B  j...j...con4[..k
1500: E0 0D 01 6B E0 0D 01 63  6F 6E 37 5B 2E 80 64 E0  ...k...con7[..d.
1510: 0D 01 64 E0 0D 01 63 6F  6E 35 5B 2E 80 65 E0 0D  ..d...con5[..e..
1520: 01 65 E0 0D 01 63 6F 6E  32 45 34 80 F0 FF FF 7F  .e...con2E4.....
1530: F0 FF FF 7F 73 31 33 37  00 80 27 05 63 E0 0D 01  ....s137..'.c...
1540: 12 1A 8D 2D 2B 63 E0 0D  01 94 80 23 2B 63 E0 0D  ...-+c.....#+c..
1550: 01 95 80 23 2A 05 63 E0  0D 01 27 05 F0 FF FF 7F  ...#*.c...'.....
1560: 0C 1C 96 80 27 05 F0 FF  FF 7F 0D 1C 97 80 52 34  ....'.........R4
1570: 80 F0 FF FF 7F F0 FF FF  7F 73 31 33 37 45 34 80  .........s137E4.
1580: F0 FF FF 7F F0 FF FF 7F  73 31 33 38 00 80 2B 63  ........s138..+c
1590: E0 0D 01 98 80 23 52 34  80 F0 FF FF 7F F0 FF FF  .....#R4........
15A0: 7F 73 31 33 38 45 34 80  F0 FF FF 7F F0 FF FF 7F  .s138E4.........
15B0: 73 31 33 39 00 80 27 05  F0 FF FF 7F 13 1C 33 80  s139..'.......3.
15C0: 5B 53 80 63 E0 0D 01 63  E0 0D 01 74 68 6B 30 2B  [S.c...c...thk0+
15D0: 63 E0 0D 01 99 80 23 1C  33 80 2B 63 E0 0D 01 9A  c.....#.3.+c....
15E0: 80 23 52 34 80 F0 FF FF  7F F0 FF FF 7F 73 31 33  .#R4.........s13
15F0: 39 45 34 80 F0 FF FF 7F  F0 FF FF 7F 73 31 34 30  9E4.........s140
1600: 00 80 5B 53 80 63 E0 0D  01 63 E0 0D 01 74 68 6B  ..[S.c...c...thk
1610: 31 2B 63 E0 0D 01 9B 80  23 5B 53 80 63 E0 0D 01  1+c.....#[S.c...
1620: 63 E0 0D 01 74 6C 6B 30  2B 63 E0 0D 01 9C 80 23  c...tlk0+c.....#
1630: 5B 53 80 63 E0 0D 01 63  E0 0D 01 74 6C 6B 31 52  [S.c...c...tlk1R
1640: 34 80 F0 FF FF 7F F0 FF  FF 7F 73 31 34 30 45 34  4.........s140E4
1650: 80 F0 FF FF 7F F0 FF FF  7F 73 31 33 36 00 80 6E  .........s136..n
1660: F0 FF FF 7F 02 80 99 F0  FF FF 7F 1C 9D 80 1A AE  ................
1670: 2D 1C 2D 80 1C 4A 80 AB  11 00 80 1C 62 80 AB 0A  -.-..J......b...
1680: 46 00 45 35 80 F0 FF FF  7F F0 FF FF 7F 66 64 69  F.E5.........fdi
1690: 32 00 80 21 00                                    2..!.           
```

#### Opcodes

```
  0: 0x1261 [0x42] SET_CLI_EVENT_CANCEL_DATA()
  1: 0x1262 [0x1A] CALL_SUBROUTINE(address=0x2DAE)
  2: 0x1265 [0x46] CAMERA_CONTROL: Disable user control
  3: 0x1267 [0x38] SET_CLIENT_EVENT_MODE(mode=19*)
  4: 0x126A [0x4E] SET_ENTITY_HIDE_FLAG: Show LocalPlayer
  5: 0x1270 [0x27] REQ_SET(priority=0x10, entity_id=Unnamed NPC (ID: 17686628/0x010DE064), tag_num=0x04)
  6: 0x1277 [0x27] REQ_SET(priority=0x10, entity_id=Unnamed NPC (ID: 17686629/0x010DE065), tag_num=0x04)
  7: 0x127E [0x27] REQ_SET(priority=0x10, entity_id=Unnamed NPC (ID: 17686630/0x010DE066), tag_num=0x04)
  8: 0x1285 [0x27] REQ_SET(priority=0x10, entity_id=Cait Sith Ceithir (ID: 17686631/0x010DE067), tag_num=0x04)
  9: 0x128C [0x27] REQ_SET(priority=0x10, entity_id=Unnamed NPC (ID: 17686632/0x010DE068), tag_num=0x04)
 10: 0x1293 [0x27] REQ_SET(priority=0x10, entity_id=Unnamed NPC (ID: 17686633/0x010DE069), tag_num=0x04)
 11: 0x129A [0x27] REQ_SET(priority=0x10, entity_id=Cait Sith Seachd (ID: 17686634/0x010DE06A), tag_num=0x04)
 12: 0x12A1 [0x27] REQ_SET(priority=0x10, entity_id=Unnamed NPC (ID: 17686635/0x010DE06B), tag_num=0x04)
 13: 0x12A8 [0x27] REQ_SET(priority=0x10, entity_id=Unnamed NPC (ID: 17686627/0x010DE063), tag_num=0x04)
 14: 0x12AF [0x27] REQ_SET(priority=0x10, entity_id=Unnamed NPC (ID: 17686636/0x010DE06C), tag_num=0x04)
 15: 0x12B6 [0x92] Unnamed NPC (ID: 17686628/0x010DE064)->Render.Flags3 ^= 0x01
 16: 0x12BC [0x92] Unnamed NPC (ID: 17686629/0x010DE065)->Render.Flags3 ^= 0x01
 17: 0x12C2 [0x92] Unnamed NPC (ID: 17686630/0x010DE066)->Render.Flags3 ^= 0x01
 18: 0x12C8 [0x92] Cait Sith Ceithir (ID: 17686631/0x010DE067)->Render.Flags3 ^= 0x01
 19: 0x12CE [0x92] Unnamed NPC (ID: 17686632/0x010DE068)->Render.Flags3 ^= 0x01
 20: 0x12D4 [0x92] Unnamed NPC (ID: 17686633/0x010DE069)->Render.Flags3 ^= 0x01
 21: 0x12DA [0x92] Cait Sith Seachd (ID: 17686634/0x010DE06A)->Render.Flags3 ^= 0x01
 22: 0x12E0 [0x92] Unnamed NPC (ID: 17686635/0x010DE06B)->Render.Flags3 ^= 0x01
 23: 0x12E6 [0x92] Unnamed NPC (ID: 17686627/0x010DE063)->Render.Flags3 ^= 0x01
 24: 0x12EC [0x92] Unnamed NPC (ID: 17686636/0x010DE06C)->Render.Flags3 ^= 0x01
 25: 0x12F2 [0x94] LocalPlayer->Render.Flags3 ^= 0x01
 26: 0x12F8 [0x94] Unnamed NPC (ID: 17686628/0x010DE064)->Render.Flags3 ^= 0x01
 27: 0x12FE [0x94] Unnamed NPC (ID: 17686629/0x010DE065)->Render.Flags3 ^= 0x01
 28: 0x1304 [0x94] Unnamed NPC (ID: 17686630/0x010DE066)->Render.Flags3 ^= 0x01
 29: 0x130A [0x94] Cait Sith Ceithir (ID: 17686631/0x010DE067)->Render.Flags3 ^= 0x01
 30: 0x1310 [0x94] Unnamed NPC (ID: 17686632/0x010DE068)->Render.Flags3 ^= 0x01
 31: 0x1316 [0x94] Unnamed NPC (ID: 17686633/0x010DE069)->Render.Flags3 ^= 0x01
 32: 0x131C [0x94] Cait Sith Seachd (ID: 17686634/0x010DE06A)->Render.Flags3 ^= 0x01
 33: 0x1322 [0x94] Unnamed NPC (ID: 17686635/0x010DE06B)->Render.Flags3 ^= 0x01
 34: 0x1328 [0x94] Unnamed NPC (ID: 17686627/0x010DE063)->Render.Flags3 ^= 0x01
 35: 0x132E [0x94] Unnamed NPC (ID: 17686636/0x010DE06C)->Render.Flags3 ^= 0x01
 36: 0x1334 [0x59] UPDATE_ENTITY_DATA: Unnamed NPC (ID: 17686630/0x010DE066)->Render.Flags0 |= 0x200000
 37: 0x133B [0x59] UPDATE_ENTITY_DATA: Cait Sith Seachd (ID: 17686634/0x010DE06A)->Render.Flags0 |= 0x200000
 38: 0x1342 [0x59] UPDATE_ENTITY_DATA: Unnamed NPC (ID: 17686635/0x010DE06B)->Render.Flags0 |= 0x200000
 39: 0x1349 [0x59] UPDATE_ENTITY_DATA: Unnamed NPC (ID: 17686628/0x010DE064)->Render.Flags0 |= 0x200000
 40: 0x1350 [0x59] UPDATE_ENTITY_DATA: Unnamed NPC (ID: 17686629/0x010DE065)->Render.Flags0 |= 0x200000
 41: 0x1357 [0xBA] SET_ENTITY_POSITION(entity_id=LocalPlayer, pos_x=-641.363*, pos_z=-525.111*, pos_y=-19.945*, direction=310.9°*)
 42: 0x1364 [0xBA] SET_ENTITY_POSITION(entity_id=Unnamed NPC (ID: 17686632/0x010DE068), pos_x=-638.172*, pos_z=-523.966*, pos_y=-19.869*, direction=133.9°*)
 43: 0x1371 [0xBA] SET_ENTITY_POSITION(entity_id=Unnamed NPC (ID: 17686630/0x010DE066), pos_x=-638.136*, pos_z=-525.276*, pos_y=-20.300*, direction=145.1°*)
 44: 0x137E [0xBA] SET_ENTITY_POSITION(entity_id=Cait Sith Ceithir (ID: 17686631/0x010DE067), pos_x=-641.516*, pos_z=-522.407*, pos_y=-19.999*, direction=86.7°*)
 45: 0x138B [0xBA] SET_ENTITY_POSITION(entity_id=Cait Sith Seachd (ID: 17686634/0x010DE06A), pos_x=-642.754*, pos_z=-522.858*, pos_y=-20.500*, direction=96.1°*)
 46: 0x1398 [0xBA] SET_ENTITY_POSITION(entity_id=Unnamed NPC (ID: 17686635/0x010DE06B), pos_x=-644.142*, pos_z=-524.591*, pos_y=-20.100*, direction=349.6°*)
 47: 0x13A5 [0xBA] SET_ENTITY_POSITION(entity_id=Unnamed NPC (ID: 17686633/0x010DE069), pos_x=-644.145*, pos_z=-525.811*, pos_y=-19.910*, direction=338.8°*)
 48: 0x13B2 [0xBA] SET_ENTITY_POSITION(entity_id=Unnamed NPC (ID: 17686628/0x010DE064), pos_x=-639.997*, pos_z=-526.942*, pos_y=-20.500*, direction=221.0°*)
 49: 0x13BF [0xBA] SET_ENTITY_POSITION(entity_id=Unnamed NPC (ID: 17686629/0x010DE065), pos_x=-640.982*, pos_z=-528.229*, pos_y=-20.500*, direction=246.5°*)
 50: 0x13CC [0xBA] SET_ENTITY_POSITION(entity_id=Unnamed NPC (ID: 17686636/0x010DE06C), pos_x=-642.994*, pos_z=-527.573*, pos_y=-19.823*, direction=310.7°*)
 51: 0x13D9 [0xBA] SET_ENTITY_POSITION(entity_id=Unnamed NPC (ID: 17686627/0x010DE063), pos_x=-639.589*, pos_z=-522.436*, pos_y=-20.000*, direction=127.3°*)
 52: 0x13E6 [0x29] REQ_SET_WAIT(priority=0x10, entity_id=Unnamed NPC (ID: 17686628/0x010DE064), tag_num=0x14)
 53: 0x13ED [0x29] REQ_SET_WAIT(priority=0x10, entity_id=Unnamed NPC (ID: 17686629/0x010DE065), tag_num=0x14)
 54: 0x13F4 [0x29] REQ_SET_WAIT(priority=0x10, entity_id=Unnamed NPC (ID: 17686630/0x010DE066), tag_num=0x14)
 55: 0x13FB [0x29] REQ_SET_WAIT(priority=0x10, entity_id=Cait Sith Ceithir (ID: 17686631/0x010DE067), tag_num=0x14)
 56: 0x1402 [0x29] REQ_SET_WAIT(priority=0x10, entity_id=Unnamed NPC (ID: 17686632/0x010DE068), tag_num=0x14)
 57: 0x1409 [0x29] REQ_SET_WAIT(priority=0x10, entity_id=Unnamed NPC (ID: 17686633/0x010DE069), tag_num=0x14)
 58: 0x1410 [0x29] REQ_SET_WAIT(priority=0x10, entity_id=Cait Sith Seachd (ID: 17686634/0x010DE06A), tag_num=0x14)
 59: 0x1417 [0x29] REQ_SET_WAIT(priority=0x10, entity_id=Unnamed NPC (ID: 17686635/0x010DE06B), tag_num=0x14)
 60: 0x141E [0x29] REQ_SET_WAIT(priority=0x10, entity_id=Unnamed NPC (ID: 17686627/0x010DE063), tag_num=0x14)
 61: 0x1425 [0x29] REQ_SET_WAIT(priority=0x10, entity_id=Unnamed NPC (ID: 17686636/0x010DE06C), tag_num=0x14)
 62: 0x142C [0x80] LOAD_WAIT(entity=LocalPlayer)
 63: 0x1431 [0x80] LOAD_WAIT(entity=Unnamed NPC (ID: 17686628/0x010DE064))
 64: 0x1436 [0x80] LOAD_WAIT(entity=Unnamed NPC (ID: 17686629/0x010DE065))
 65: 0x143B [0x80] LOAD_WAIT(entity=Unnamed NPC (ID: 17686630/0x010DE066))
 66: 0x1440 [0x80] LOAD_WAIT(entity=Cait Sith Ceithir (ID: 17686631/0x010DE067))
 67: 0x1445 [0x80] LOAD_WAIT(entity=Unnamed NPC (ID: 17686632/0x010DE068))
 68: 0x144A [0x80] LOAD_WAIT(entity=Unnamed NPC (ID: 17686633/0x010DE069))
 69: 0x144F [0x80] LOAD_WAIT(entity=Cait Sith Seachd (ID: 17686634/0x010DE06A))
 70: 0x1454 [0x80] LOAD_WAIT(entity=Unnamed NPC (ID: 17686635/0x010DE06B))
 71: 0x1459 [0x80] LOAD_WAIT(entity=Unnamed NPC (ID: 17686627/0x010DE063))
 72: 0x145E [0x80] LOAD_WAIT(entity=Unnamed NPC (ID: 17686636/0x010DE06C))
 73: 0x1463 [0x4A] LocalPlayer looks at Unnamed NPC (ID: 17686627/0x010DE063)
 74: 0x146C [0x4A] Unnamed NPC (ID: 17686627/0x010DE063) looks at LocalPlayer
 75: 0x1475 [0x4A] Unnamed NPC (ID: 17686628/0x010DE064) looks at LocalPlayer
 76: 0x147E [0x4A] Unnamed NPC (ID: 17686629/0x010DE065) looks at LocalPlayer
 77: 0x1487 [0x4A] Unnamed NPC (ID: 17686630/0x010DE066) looks at LocalPlayer
 78: 0x1490 [0x4A] Cait Sith Ceithir (ID: 17686631/0x010DE067) looks at LocalPlayer
 79: 0x1499 [0x4A] Unnamed NPC (ID: 17686632/0x010DE068) looks at LocalPlayer
 80: 0x14A2 [0x4A] Unnamed NPC (ID: 17686633/0x010DE069) looks at LocalPlayer
 81: 0x14AB [0x4A] Cait Sith Seachd (ID: 17686634/0x010DE06A) looks at LocalPlayer
 82: 0x14B4 [0x4A] Unnamed NPC (ID: 17686635/0x010DE06B) looks at LocalPlayer
 83: 0x14BD [0x4A] Unnamed NPC (ID: 17686636/0x010DE06C) looks at LocalPlayer
 84: 0x14C6 [0x1C] WAIT(30* ticks)
 85: 0x14C9 [0x27] REQ_SET(priority=0x05, entity_id=Unnamed NPC (ID: 17686630/0x010DE066), tag_num=0x10)
 86: 0x14D0 [0x27] REQ_SET(priority=0x05, entity_id=Cait Sith Seachd (ID: 17686634/0x010DE06A), tag_num=0x10)
 87: 0x14D7 [0x27] REQ_SET(priority=0x05, entity_id=Unnamed NPC (ID: 17686629/0x010DE065), tag_num=0x10)
 88: 0x14DE [0x5B] LOAD_EXT_SCHEDULER: Load scheduler "con3" with entities [Unnamed NPC (ID: 17686630/0x010DE066), Unnamed NPC (ID: 17686630/0x010DE066)], work=1413*
 89: 0x14ED [0x5B] LOAD_EXT_SCHEDULER: Load scheduler "con4" with entities [Cait Sith Seachd (ID: 17686634/0x010DE06A), Cait Sith Seachd (ID: 17686634/0x010DE06A)], work=1413*
 90: 0x14FC [0x5B] LOAD_EXT_SCHEDULER: Load scheduler "con7" with entities [Unnamed NPC (ID: 17686635/0x010DE06B), Unnamed NPC (ID: 17686635/0x010DE06B)], work=1413*
 91: 0x150B [0x5B] LOAD_EXT_SCHEDULER: Load scheduler "con5" with entities [Unnamed NPC (ID: 17686628/0x010DE064), Unnamed NPC (ID: 17686628/0x010DE064)], work=1413*
 92: 0x151A [0x5B] LOAD_EXT_SCHEDULER: Load scheduler "con2" with entities [Unnamed NPC (ID: 17686629/0x010DE065), Unnamed NPC (ID: 17686629/0x010DE065)], work=1413*
 93: 0x1529 [0x45] LOAD_SCHEDULED_TASK: Load scheduler "s137" with entities [LocalPlayer, LocalPlayer], work=[557*, 0*]
 94: 0x153A [0x27] REQ_SET(priority=0x05, entity_id=Unnamed NPC (ID: 17686627/0x010DE063), tag_num=0x12)
 95: 0x1541 [0x1A] CALL_SUBROUTINE(address=0x2D8D)
 96: 0x1544 [0x2B] Unnamed NPC (ID: 17686627/0x010DE063) [7601*]:
    → "Mreowr? Whoa, whoa, whoa. Leave not so soon. May I see that stone of yours?"
 97: 0x154B [0x23] WAIT_FOR_DIALOG_INTERACTION
 98: 0x154C [0x2B] Unnamed NPC (ID: 17686627/0x010DE063) [7602*]:
    → "Yes, that crystal with the ghostly white glow. Cadaverous pallor."
 99: 0x1553 [0x23] WAIT_FOR_DIALOG_INTERACTION
100: 0x1554 [0x2A] GET_REQ_LEVEL(level=5, entity_id=Unnamed NPC (ID: 17686627/0x010DE063))
101: 0x155A [0x27] REQ_SET(priority=0x05, entity_id=LocalPlayer, tag_num=0x0C)
102: 0x1561 [0x1C] WAIT(80* ticks)
103: 0x1564 [0x27] REQ_SET(priority=0x05, entity_id=LocalPlayer, tag_num=0x0D)
104: 0x156B [0x1C] WAIT(40* ticks)
105: 0x156E [0x52] END_LOAD_SCHEDULER: End scheduler "s137" with entities [LocalPlayer, LocalPlayer], work=557*
106: 0x157D [0x45] LOAD_SCHEDULED_TASK: Load scheduler "s138" with entities [LocalPlayer, LocalPlayer], work=[557*, 0*]
107: 0x158E [0x2B] Unnamed NPC (ID: 17686627/0x010DE063) [7603*]:
    → "Nothing remotely similar has ever crossed my eyes. This crystal appears to harbor some uncanny power from a bygone era. Primitive puissance."
108: 0x1595 [0x23] WAIT_FOR_DIALOG_INTERACTION
109: 0x1596 [0x52] END_LOAD_SCHEDULER: End scheduler "s138" with entities [LocalPlayer, LocalPlayer], work=557*
110: 0x15A5 [0x45] LOAD_SCHEDULED_TASK: Load scheduler "s139" with entities [LocalPlayer, LocalPlayer], work=[557*, 0*]
111: 0x15B6 [0x27] REQ_SET(priority=0x05, entity_id=LocalPlayer, tag_num=0x13)
112: 0x15BD [0x1C] WAIT(60* ticks)
113: 0x15C0 [0x5B] LOAD_EXT_SCHEDULER: Load scheduler "thk0" with entities [Unnamed NPC (ID: 17686627/0x010DE063), Unnamed NPC (ID: 17686627/0x010DE063)], work=1310*
114: 0x15CF [0x2B] Unnamed NPC (ID: 17686627/0x010DE063) [7604*]:
    → "So this is plunder gained from a Voidwalker battle? Interdimensional fisticuffs?"
115: 0x15D6 [0x23] WAIT_FOR_DIALOG_INTERACTION
116: 0x15D7 [0x1C] WAIT(60* ticks)
117: 0x15DA [0x2B] Unnamed NPC (ID: 17686627/0x010DE063) [7605*]:
    → "The way it resonates with these surroundings... This is no normal hunk of rock. No common tabby cait."
118: 0x15E1 [0x23] WAIT_FOR_DIALOG_INTERACTION
119: 0x15E2 [0x52] END_LOAD_SCHEDULER: End scheduler "s139" with entities [LocalPlayer, LocalPlayer], work=557*
120: 0x15F1 [0x45] LOAD_SCHEDULED_TASK: Load scheduler "s140" with entities [LocalPlayer, LocalPlayer], work=[557*, 0*]
121: 0x1602 [0x5B] LOAD_EXT_SCHEDULER: Load scheduler "thk1" with entities [Unnamed NPC (ID: 17686627/0x010DE063), Unnamed NPC (ID: 17686627/0x010DE063)], work=1310*
122: 0x1611 [0x2B] Unnamed NPC (ID: 17686627/0x010DE063) [7606*]:
    → "I suppose returning it to you would do no harm. Whatever you do, you must not relinquish it. Let it slip through your paws."
123: 0x1618 [0x23] WAIT_FOR_DIALOG_INTERACTION
124: 0x1619 [0x5B] LOAD_EXT_SCHEDULER: Load scheduler "tlk0" with entities [Unnamed NPC (ID: 17686627/0x010DE063), Unnamed NPC (ID: 17686627/0x010DE063)], work=1310*
125: 0x1628 [0x2B] Unnamed NPC (ID: 17686627/0x010DE063) [7607*]:
    → "Something this peculiar must surely have a use--we need only find out what that is. In the meantime, maybe it will serve as a lucky charm in your travels. Invite felicity."
126: 0x162F [0x23] WAIT_FOR_DIALOG_INTERACTION
127: 0x1630 [0x5B] LOAD_EXT_SCHEDULER: Load scheduler "tlk1" with entities [Unnamed NPC (ID: 17686627/0x010DE063), Unnamed NPC (ID: 17686627/0x010DE063)], work=1310*
128: 0x163F [0x52] END_LOAD_SCHEDULER: End scheduler "s140" with entities [LocalPlayer, LocalPlayer], work=557*
129: 0x164E [0x45] LOAD_SCHEDULED_TASK: Load scheduler "s136" with entities [LocalPlayer, LocalPlayer], work=[557*, 0*]
130: 0x165F [0x6E] LocalPlayer uses emote 19*
131: 0x1666 [0x99] Wait for LocalPlayer animation to complete
132: 0x166B [0x1C] WAIT(150* ticks)
133: 0x166E [0x1A] CALL_SUBROUTINE(address=0x2DAE)
134: 0x1671 [0x1C] WAIT(30* ticks)
135: 0x1674 [0x1C] WAIT(15* ticks)
136: 0x1677 [0xAB] EventEntity->DespawnValue = 0* // Set despawn value
137: 0x167B [0x1C] WAIT(1* ticks)
138: 0x167E [0xAB] EventEntity->UnknownFlag = 0 // Disable unknown flag
139: 0x1680 [0x46] CAMERA_CONTROL: Restore default settings
140: 0x1682 [0x45] LOAD_SCHEDULED_TASK: Load scheduler "fdi2" with entities [LocalPlayer, LocalPlayer], work=[200*, 0*]
141: 0x1693 [0x21] END_EVENT
142: 0x1694 [0x00] END_REQSTACK()
```

### Event 103

#### Metadata

| Field        | Value      |
|--------------|------------|
| Entrypoint   | 0x1695     |
| Data Size    | 1205 bytes |
| Instructions | 151        |

```
      00 01 02 03 04 05 06 07  08 09 0A 0B 0C 0D 0E 0F
      -- -- -- -- -- -- -- --  -- -- -- -- -- -- -- --
1690:                42 1A AE  2D 46 01 38 02 80 4E 00       B..-F.8..N.
16A0: F0 FF FF 7F 27 10 64 E0  0D 01 04 27 10 65 E0 0D  ....'.d....'.e..
16B0: 01 04 27 10 66 E0 0D 01  04 27 10 67 E0 0D 01 04  ..'.f....'.g....
16C0: 27 10 68 E0 0D 01 04 27  10 69 E0 0D 01 04 27 10  '.h....'.i....'.
16D0: 6A E0 0D 01 04 27 10 6B  E0 0D 01 04 27 10 63 E0  j....'.k....'.c.
16E0: 0D 01 04 27 10 6C E0 0D  01 04 92 01 64 E0 0D 01  ...'.l......d...
16F0: 92 01 65 E0 0D 01 92 01  66 E0 0D 01 92 01 67 E0  ..e.....f.....g.
1700: 0D 01 92 01 68 E0 0D 01  92 01 69 E0 0D 01 92 01  ....h.....i.....
1710: 6A E0 0D 01 92 01 6B E0  0D 01 92 01 63 E0 0D 01  j.....k.....c...
1720: 92 01 6C E0 0D 01 94 01  F0 FF FF 7F 94 01 64 E0  ..l...........d.
1730: 0D 01 94 01 65 E0 0D 01  94 01 66 E0 0D 01 94 01  ....e.....f.....
1740: 67 E0 0D 01 94 01 68 E0  0D 01 94 01 69 E0 0D 01  g.....h.....i...
1750: 94 01 6A E0 0D 01 94 01  6B E0 0D 01 94 01 63 E0  ..j.....k.....c.
1760: 0D 01 94 01 6C E0 0D 01  59 05 66 E0 0D 01 01 59  ....l...Y.f....Y
1770: 05 6A E0 0D 01 01 59 05  6B E0 0D 01 01 59 05 64  .j....Y.k....Y.d
1780: E0 0D 01 01 59 05 65 E0  0D 01 01 BA F0 FF FF 7F  ....Y.e.........
1790: 03 80 04 80 05 80 06 80  BA 68 E0 0D 01 07 80 08  .........h......
17A0: 80 09 80 0A 80 BA 66 E0  0D 01 0B 80 0C 80 0D 80  ......f.........
17B0: 0E 80 BA 67 E0 0D 01 0F  80 10 80 11 80 12 80 BA  ...g............
17C0: 6A E0 0D 01 13 80 14 80  15 80 16 80 BA 6B E0 0D  j............k..
17D0: 01 17 80 18 80 19 80 1A  80 BA 69 E0 0D 01 1B 80  ..........i.....
17E0: 1C 80 1D 80 1E 80 BA 64  E0 0D 01 1F 80 20 80 15  .......d..... ..
17F0: 80 21 80 BA 65 E0 0D 01  22 80 23 80 15 80 24 80  .!..e...".#...$.
1800: BA 6C E0 0D 01 25 80 26  80 27 80 28 80 BA 63 E0  .l...%.&.'.(..c.
1810: 0D 01 29 80 2A 80 2B 80  2C 80 29 10 64 E0 0D 01  ..).*.+.,.).d...
1820: 14 29 10 65 E0 0D 01 14  29 10 66 E0 0D 01 14 29  .).e....).f....)
1830: 10 67 E0 0D 01 14 29 10  68 E0 0D 01 14 29 10 69  .g....).h....).i
1840: E0 0D 01 14 29 10 6A E0  0D 01 14 29 10 6B E0 0D  ....).j....).k..
1850: 01 14 29 10 63 E0 0D 01  14 29 10 6C E0 0D 01 14  ..).c....).l....
1860: 80 F0 FF FF 7F 80 64 E0  0D 01 80 65 E0 0D 01 80  ......d....e....
1870: 66 E0 0D 01 80 67 E0 0D  01 80 68 E0 0D 01 80 69  f....g....h....i
1880: E0 0D 01 80 6A E0 0D 01  80 6B E0 0D 01 80 63 E0  ....j....k....c.
1890: 0D 01 80 6C E0 0D 01 4A  F0 FF FF 7F 63 E0 0D 01  ...l...J....c...
18A0: 4A 63 E0 0D 01 F0 FF FF  7F 4A 64 E0 0D 01 F0 FF  Jc.......Jd.....
18B0: FF 7F 4A 65 E0 0D 01 F0  FF FF 7F 4A 66 E0 0D 01  ..Je.......Jf...
18C0: F0 FF FF 7F 4A 67 E0 0D  01 F0 FF FF 7F 4A 68 E0  ....Jg.......Jh.
18D0: 0D 01 F0 FF FF 7F 4A 69  E0 0D 01 F0 FF FF 7F 4A  ......Ji.......J
18E0: 6A E0 0D 01 F0 FF FF 7F  4A 6B E0 0D 01 F0 FF FF  j.......Jk......
18F0: 7F 4A 6C E0 0D 01 F0 FF  FF 7F 1C 2D 80 27 05 66  .Jl........-.'.f
1900: E0 0D 01 10 27 05 6A E0  0D 01 10 27 05 65 E0 0D  ....'.j....'.e..
1910: 01 10 5B 2E 80 66 E0 0D  01 66 E0 0D 01 63 6F 6E  ..[..f...f...con
1920: 33 5B 2E 80 6A E0 0D 01  6A E0 0D 01 63 6F 6E 34  3[..j...j...con4
1930: 5B 2E 80 6B E0 0D 01 6B  E0 0D 01 63 6F 6E 37 5B  [..k...k...con7[
1940: 2E 80 64 E0 0D 01 64 E0  0D 01 63 6F 6E 35 5B 2E  ..d...d...con5[.
1950: 80 65 E0 0D 01 65 E0 0D  01 63 6F 6E 32 45 34 80  .e...e...con2E4.
1960: F0 FF FF 7F F0 FF FF 7F  73 31 34 31 00 80 1A 8D  ........s141....
1970: 2D 5B 39 80 63 E0 0D 01  63 E0 0D 01 75 64 65 30  -[9.c...c...ude0
1980: 2B 63 E0 0D 01 9E 80 23  2B 63 E0 0D 01 9F 80 23  +c.....#+c.....#
1990: 52 34 80 F0 FF FF 7F F0  FF FF 7F 73 31 34 31 45  R4.........s141E
19A0: 34 80 F0 FF FF 7F F0 FF  FF 7F 73 31 34 32 00 80  4.........s142..
19B0: 5B 39 80 63 E0 0D 01 63  E0 0D 01 75 64 65 30 2B  [9.c...c...ude0+
19C0: 65 E0 0D 01 A0 80 23 4A  69 E0 0D 01 65 E0 0D 01  e.....#Ji...e...
19D0: 2B 69 E0 0D 01 A1 80 23  52 34 80 F0 FF FF 7F F0  +i.....#R4......
19E0: FF FF 7F 73 31 34 32 45  34 80 F0 FF FF 7F F0 FF  ...s142E4.......
19F0: FF 7F 73 31 34 33 00 80  2B 64 E0 0D 01 A2 80 23  ..s143..+d.....#
1A00: 52 34 80 F0 FF FF 7F F0  FF FF 7F 73 31 34 33 45  R4.........s143E
1A10: 34 80 F0 FF FF 7F F0 FF  FF 7F 73 31 34 34 00 80  4.........s144..
1A20: 5B 3C 80 67 E0 0D 01 67  E0 0D 01 79 72 65 30 2B  [<.g...g...yre0+
1A30: 67 E0 0D 01 A3 80 23 52  34 80 F0 FF FF 7F F0 FF  g.....#R4.......
1A40: FF 7F 73 31 34 34 45 34  80 F0 FF FF 7F F0 FF FF  ..s144E4........
1A50: 7F 73 31 34 35 00 80 2B  6C E0 0D 01 A4 80 23 52  .s145..+l.....#R
1A60: 34 80 F0 FF FF 7F F0 FF  FF 7F 73 31 34 35 45 34  4.........s145E4
1A70: 80 F0 FF FF 7F F0 FF FF  7F 73 31 34 36 00 80 5B  .........s146..[
1A80: 39 80 68 E0 0D 01 68 E0  0D 01 75 64 65 30 2B 68  9.h...h...ude0+h
1A90: E0 0D 01 A5 80 23 5B 39  80 63 E0 0D 01 63 E0 0D  .....#[9.c...c..
1AA0: 01 75 64 65 31 2B 63 E0  0D 01 A6 80 23 52 34 80  .ude1+c.....#R4.
1AB0: F0 FF FF 7F F0 FF FF 7F  73 31 34 36 45 34 80 F0  ........s146E4..
1AC0: FF FF 7F F0 FF FF 7F 73  31 34 37 00 80 5B 53 80  .......s147..[S.
1AD0: 63 E0 0D 01 63 E0 0D 01  74 6C 6B 30 2B 63 E0 0D  c...c...tlk0+c..
1AE0: 01 A7 80 23 2B 63 E0 0D  01 A8 80 23 52 34 80 F0  ...#+c.....#R4..
1AF0: FF FF 7F F0 FF FF 7F 73  31 34 37 45 34 80 F0 FF  .......s147E4...
1B00: FF 7F F0 FF FF 7F 73 31  34 38 00 80 2B 63 E0 0D  ......s148..+c..
1B10: 01 A9 80 23 1A AE 2D 1C  2D 80 52 34 80 F0 FF FF  ...#..-.-.R4....
1B20: 7F F0 FF FF 7F 73 31 34  38 1C 4A 80 AB 11 00 80  .....s148.J.....
1B30: 1C 62 80 AB 0A 46 00 45  35 80 F0 FF FF 7F F0 FF  .b...F.E5.......
1B40: FF 7F 66 64 69 32 00 80  21 00                    ..fdi2..!.      
```

#### Opcodes

```
  0: 0x1695 [0x42] SET_CLI_EVENT_CANCEL_DATA()
  1: 0x1696 [0x1A] CALL_SUBROUTINE(address=0x2DAE)
  2: 0x1699 [0x46] CAMERA_CONTROL: Disable user control
  3: 0x169B [0x38] SET_CLIENT_EVENT_MODE(mode=19*)
  4: 0x169E [0x4E] SET_ENTITY_HIDE_FLAG: Show LocalPlayer
  5: 0x16A4 [0x27] REQ_SET(priority=0x10, entity_id=Unnamed NPC (ID: 17686628/0x010DE064), tag_num=0x04)
  6: 0x16AB [0x27] REQ_SET(priority=0x10, entity_id=Unnamed NPC (ID: 17686629/0x010DE065), tag_num=0x04)
  7: 0x16B2 [0x27] REQ_SET(priority=0x10, entity_id=Unnamed NPC (ID: 17686630/0x010DE066), tag_num=0x04)
  8: 0x16B9 [0x27] REQ_SET(priority=0x10, entity_id=Cait Sith Ceithir (ID: 17686631/0x010DE067), tag_num=0x04)
  9: 0x16C0 [0x27] REQ_SET(priority=0x10, entity_id=Unnamed NPC (ID: 17686632/0x010DE068), tag_num=0x04)
 10: 0x16C7 [0x27] REQ_SET(priority=0x10, entity_id=Unnamed NPC (ID: 17686633/0x010DE069), tag_num=0x04)
 11: 0x16CE [0x27] REQ_SET(priority=0x10, entity_id=Cait Sith Seachd (ID: 17686634/0x010DE06A), tag_num=0x04)
 12: 0x16D5 [0x27] REQ_SET(priority=0x10, entity_id=Unnamed NPC (ID: 17686635/0x010DE06B), tag_num=0x04)
 13: 0x16DC [0x27] REQ_SET(priority=0x10, entity_id=Unnamed NPC (ID: 17686627/0x010DE063), tag_num=0x04)
 14: 0x16E3 [0x27] REQ_SET(priority=0x10, entity_id=Unnamed NPC (ID: 17686636/0x010DE06C), tag_num=0x04)
 15: 0x16EA [0x92] Unnamed NPC (ID: 17686628/0x010DE064)->Render.Flags3 ^= 0x01
 16: 0x16F0 [0x92] Unnamed NPC (ID: 17686629/0x010DE065)->Render.Flags3 ^= 0x01
 17: 0x16F6 [0x92] Unnamed NPC (ID: 17686630/0x010DE066)->Render.Flags3 ^= 0x01
 18: 0x16FC [0x92] Cait Sith Ceithir (ID: 17686631/0x010DE067)->Render.Flags3 ^= 0x01
 19: 0x1702 [0x92] Unnamed NPC (ID: 17686632/0x010DE068)->Render.Flags3 ^= 0x01
 20: 0x1708 [0x92] Unnamed NPC (ID: 17686633/0x010DE069)->Render.Flags3 ^= 0x01
 21: 0x170E [0x92] Cait Sith Seachd (ID: 17686634/0x010DE06A)->Render.Flags3 ^= 0x01
 22: 0x1714 [0x92] Unnamed NPC (ID: 17686635/0x010DE06B)->Render.Flags3 ^= 0x01
 23: 0x171A [0x92] Unnamed NPC (ID: 17686627/0x010DE063)->Render.Flags3 ^= 0x01
 24: 0x1720 [0x92] Unnamed NPC (ID: 17686636/0x010DE06C)->Render.Flags3 ^= 0x01
 25: 0x1726 [0x94] LocalPlayer->Render.Flags3 ^= 0x01
 26: 0x172C [0x94] Unnamed NPC (ID: 17686628/0x010DE064)->Render.Flags3 ^= 0x01
 27: 0x1732 [0x94] Unnamed NPC (ID: 17686629/0x010DE065)->Render.Flags3 ^= 0x01
 28: 0x1738 [0x94] Unnamed NPC (ID: 17686630/0x010DE066)->Render.Flags3 ^= 0x01
 29: 0x173E [0x94] Cait Sith Ceithir (ID: 17686631/0x010DE067)->Render.Flags3 ^= 0x01
 30: 0x1744 [0x94] Unnamed NPC (ID: 17686632/0x010DE068)->Render.Flags3 ^= 0x01
 31: 0x174A [0x94] Unnamed NPC (ID: 17686633/0x010DE069)->Render.Flags3 ^= 0x01
 32: 0x1750 [0x94] Cait Sith Seachd (ID: 17686634/0x010DE06A)->Render.Flags3 ^= 0x01
 33: 0x1756 [0x94] Unnamed NPC (ID: 17686635/0x010DE06B)->Render.Flags3 ^= 0x01
 34: 0x175C [0x94] Unnamed NPC (ID: 17686627/0x010DE063)->Render.Flags3 ^= 0x01
 35: 0x1762 [0x94] Unnamed NPC (ID: 17686636/0x010DE06C)->Render.Flags3 ^= 0x01
 36: 0x1768 [0x59] UPDATE_ENTITY_DATA: Unnamed NPC (ID: 17686630/0x010DE066)->Render.Flags0 |= 0x200000
 37: 0x176F [0x59] UPDATE_ENTITY_DATA: Cait Sith Seachd (ID: 17686634/0x010DE06A)->Render.Flags0 |= 0x200000
 38: 0x1776 [0x59] UPDATE_ENTITY_DATA: Unnamed NPC (ID: 17686635/0x010DE06B)->Render.Flags0 |= 0x200000
 39: 0x177D [0x59] UPDATE_ENTITY_DATA: Unnamed NPC (ID: 17686628/0x010DE064)->Render.Flags0 |= 0x200000
 40: 0x1784 [0x59] UPDATE_ENTITY_DATA: Unnamed NPC (ID: 17686629/0x010DE065)->Render.Flags0 |= 0x200000
 41: 0x178B [0xBA] SET_ENTITY_POSITION(entity_id=LocalPlayer, pos_x=-641.363*, pos_z=-525.111*, pos_y=-19.945*, direction=310.9°*)
 42: 0x1798 [0xBA] SET_ENTITY_POSITION(entity_id=Unnamed NPC (ID: 17686632/0x010DE068), pos_x=-638.172*, pos_z=-523.966*, pos_y=-19.869*, direction=133.9°*)
 43: 0x17A5 [0xBA] SET_ENTITY_POSITION(entity_id=Unnamed NPC (ID: 17686630/0x010DE066), pos_x=-638.136*, pos_z=-525.276*, pos_y=-20.300*, direction=145.1°*)
 44: 0x17B2 [0xBA] SET_ENTITY_POSITION(entity_id=Cait Sith Ceithir (ID: 17686631/0x010DE067), pos_x=-641.516*, pos_z=-522.407*, pos_y=-19.999*, direction=86.7°*)
 45: 0x17BF [0xBA] SET_ENTITY_POSITION(entity_id=Cait Sith Seachd (ID: 17686634/0x010DE06A), pos_x=-642.754*, pos_z=-522.858*, pos_y=-20.500*, direction=96.1°*)
 46: 0x17CC [0xBA] SET_ENTITY_POSITION(entity_id=Unnamed NPC (ID: 17686635/0x010DE06B), pos_x=-644.142*, pos_z=-524.591*, pos_y=-20.100*, direction=349.6°*)
 47: 0x17D9 [0xBA] SET_ENTITY_POSITION(entity_id=Unnamed NPC (ID: 17686633/0x010DE069), pos_x=-644.145*, pos_z=-525.811*, pos_y=-19.910*, direction=338.8°*)
 48: 0x17E6 [0xBA] SET_ENTITY_POSITION(entity_id=Unnamed NPC (ID: 17686628/0x010DE064), pos_x=-639.997*, pos_z=-526.942*, pos_y=-20.500*, direction=221.0°*)
