# 0x7FFFFFF0 - Zone Events

## Common Data

| Field            | Value                |
|------------------|----------------------|
| Zone             | Provenance (ID: 222) |
| Block Size       | 3220 bytes           |
| Total Events     | 21                   |
| References Count | 87                   |

## List of Events

| Event ID                   | Entrypoint   |   Size |   Instructions |
|----------------------------|--------------|--------|----------------|
| [65535](#event-65535)      | 0x0000       |      1 |              1 |
| [65534](#event-65534)      | 0x0001       |      1 |              1 |
| [65535.1](#event-655351)   | 0x0002       |      6 |              2 |
| [65535.2](#event-655352)   | 0x0008       |      6 |              2 |
| [65535.3](#event-655353)   | 0x000E       |     37 |              5 |
| [65535.4](#event-655354)   | 0x0033       |     37 |              5 |
| [65535.5](#event-655355)   | 0x0058       |      7 |              3 |
| [65535.6](#event-655356)   | 0x005F       |      7 |              3 |
| [25](#event-25)            | 0x0066       |    445 |             37 |
| [11](#event-11)            | 0x0223       |    117 |             19 |
| [12](#event-12)            | 0x0298       |    117 |             19 |
| [13](#event-13)            | 0x030D       |   1664 |            237 |
| [65535.7](#event-655357)   | 0x098D       |     24 |              4 |
| [65535.8](#event-655358)   | 0x09A5       |     24 |              4 |
| [65535.9](#event-655359)   | 0x09BD       |     38 |              5 |
| [65535.10](#event-6553510) | 0x09E3       |     38 |              5 |
| [65535.11](#event-6553511) | 0x0A09       |     38 |              5 |
| [65535.12](#event-6553512) | 0x0A2F       |     37 |              5 |
| [65535.13](#event-6553513) | 0x0A54       |     37 |              5 |
| [65535.14](#event-6553514) | 0x0A79       |     42 |              6 |
| [65535.15](#event-6553515) | 0x0AA3       |     47 |              6 |

## DAT References (imed_data)

|   Index | Hex Value   |   Dec Value |
|---------|-------------|-------------|
|       0 | 0x0001      |           1 |
|       1 | 0x0000      |           0 |
|       2 | 0x1001      |        4097 |
|       3 | 0x007C      |         124 |
|       4 | 0x00B4      |         180 |
|       5 | 0x00C8      |         200 |
|       6 | 0x003C      |          60 |
|       7 | 0x1003      |        4099 |
|       8 | 0x0014      |          20 |
|       9 | 0x007D      |         125 |
|      10 | 0x0078      |         120 |
|      11 | 0x0038      |          56 |
|      12 | 0x0037      |          55 |
|      13 | 0xFFFBCDC8  |  4294692296 |
|      14 | 0xFFFD8F00  |  4294807296 |
|      15 | 0x27100     |      160000 |
|      16 | 0x2F9B8     |      195000 |
|      17 | 0xA4CB8     |      675000 |
|      18 | 0x9C400     |      640000 |
|      19 | 0xFFF72660  |  4294387296 |
|      20 | 0x4E20      |       20000 |
|      21 | 0x83D60     |      540000 |
|      22 | 0xFFFFB20B  |  4294947339 |
|      23 | 0xFFFFFFFC  |  4294967292 |
|      24 | 0x3E80      |       16000 |
|      25 | 0x7D00      |       32000 |
|      26 | 0x9C6E      |       40046 |
|      27 | 0x4F41      |       20289 |
|      28 | 0xFFFC8560  |  4294739296 |
|      29 | 0xFFFE5A20  |  4294859296 |
|      30 | 0x2EE0      |       12000 |
|      31 | 0xFFFC5680  |  4294727296 |
|      32 | 0xFFF59FC0  |  4294287296 |
|      33 | 0xFFFCF2C0  |  4294767296 |
|      34 | 0xFFF58C38  |  4294282296 |
|      35 | 0xFFF578B0  |  4294277296 |
|      36 | 0x7DBB8     |      515000 |
|      37 | 0x0F3C      |        3900 |
|      38 | 0x0600      |        1536 |
|      39 | 0x0200      |         512 |
|      40 | 0x0400      |        1024 |
|      41 | 0x0C00      |        3072 |
|      42 | 0x021C      |         540 |
|      43 | 0x1002      |        4098 |
|      44 | 0xFFF63A0C  |  4294326796 |
|      45 | 0xFFF7EF8C  |  4294438796 |
|      46 | 0xFFFFB276  |  4294947446 |
|      47 | 0x0013      |          19 |
|      48 | 0x1CA7      |        7335 |
|      49 | 0xFFF72ED6  |  4294389462 |
|      50 | 0x80046     |      524358 |
|      51 | 0xFFFC8561  |  4294739297 |
|      52 | 0x0C9B      |        3227 |
|      53 | 0xFFF73D2C  |  4294393132 |
|      54 | 0x82FC0     |      536512 |
|      55 | 0x0497      |        1175 |
|      56 | 0x0242      |         578 |
|      57 | 0xFFF72CA8  |  4294388904 |
|      58 | 0x81509     |      529673 |
|      59 | 0x0E20      |        3616 |
|      60 | 0xFFF7563B  |  4294399547 |
|      61 | 0x83EE0     |      540384 |
|      62 | 0x061B      |        1563 |
|      63 | 0x0258      |         600 |
|      64 | 0x012C      |         300 |
|      65 | 0x001E      |          30 |
|      66 | 0x000F      |          15 |
|      67 | 0x005A      |          90 |
|      68 | 0x00C9      |         201 |
|      69 | 0x002D      |          45 |
|      70 | 0x0002      |           2 |
|      71 | 0x00D7      |         215 |
|      72 | 0x0005      |           5 |
|      73 | 0x000A      |          10 |
|      74 | 0x0009      |           9 |
|      75 | 0x0046      |          70 |
|      76 | 0x008C      |         140 |
|      77 | 0x00D2      |         210 |
|      78 | 0x0008      |           8 |
|      79 | 0x0007      |           7 |
|      80 | 0x0091      |         145 |
|      81 | 0x004F      |          79 |
|      82 | 0x004C      |          76 |
|      83 | 0x0018      |          24 |
|      84 | 0x0020      |          32 |
|      85 | 0x0030      |          48 |
|      86 | 0x0040      |          64 |

## String References

- **7335**: Skip the event? [Yes./No.]

## Events

### Event 65535

#### Metadata

| Field        | Value   |
|--------------|---------|
| Entrypoint   | 0x0000  |
| Data Size    | 1 bytes |
| Instructions | 1       |

```
      00 01 02 03 04 05 06 07  08 09 0A 0B 0C 0D 0E 0F
      -- -- -- -- -- -- -- --  -- -- -- -- -- -- -- --
0000: 00                                                .               
```

#### Opcodes

```
  0: 0x0000 [0x00] END_REQSTACK()
```

### Event 65534

#### Metadata

| Field        | Value   |
|--------------|---------|
| Entrypoint   | 0x0001  |
| Data Size    | 1 bytes |
| Instructions | 1       |

```
      00 01 02 03 04 05 06 07  08 09 0A 0B 0C 0D 0E 0F
      -- -- -- -- -- -- -- --  -- -- -- -- -- -- -- --
0000:    00                                              .              
```

#### Opcodes

```
  0: 0x0001 [0x00] END_REQSTACK()
```

### Event 65535.1

#### Metadata

| Field        | Value   |
|--------------|---------|
| Entrypoint   | 0x0002  |
| Data Size    | 6 bytes |
| Instructions | 2       |

```
      00 01 02 03 04 05 06 07  08 09 0A 0B 0C 0D 0E 0F
      -- -- -- -- -- -- -- --  -- -- -- -- -- -- -- --
0000:       03 02 10 07 7F 00                             ......        
```

#### Opcodes

```
  0: 0x0002 [0x03] Work_Zone[2] = Entity->Race
  1: 0x0007 [0x00] END_REQSTACK()
```

### Event 65535.2

#### Metadata

| Field        | Value   |
|--------------|---------|
| Entrypoint   | 0x0008  |
| Data Size    | 6 bytes |
| Instructions | 2       |

```
      00 01 02 03 04 05 06 07  08 09 0A 0B 0C 0D 0E 0F
      -- -- -- -- -- -- -- --  -- -- -- -- -- -- -- --
0000:                          03 02 10 0B 7F 00                ......  
```

#### Opcodes

```
  0: 0x0008 [0x03] Work_Zone[2] = (Entity->Render.Flags01 >> 25) & 1
  1: 0x000D [0x00] END_REQSTACK()
```

### Event 65535.3

#### Metadata

| Field        | Value    |
|--------------|----------|
| Entrypoint   | 0x000E   |
| Data Size    | 37 bytes |
| Instructions | 5        |

```
      00 01 02 03 04 05 06 07  08 09 0A 0B 0C 0D 0E 0F
      -- -- -- -- -- -- -- --  -- -- -- -- -- -- -- --
0000:                                            03 10                ..
0010: 00 07 7F 1A F9 08 66 11  00 F8 FF FF 7F F8 FF FF  ......f.........
0020: 7F 73 68 61 30 53 F8 FF  FF 7F F8 FF FF 7F 73 68  .sha0S........sh
0030: 61 30 00                                          a0.             
```

#### Opcodes

```
  0: 0x000E [0x03] ExtData[1]->WorkLocal[16] = Entity->Race
  1: 0x0013 [0x1A] CALL_SUBROUTINE(address=0x08F9)
  2: 0x0016 [0x66] LOAD_EXT_SCHEDULER_MAIN: Load scheduler "sha0" with entities [EventEntity, EventEntity], work=ExtData[1]->WorkLocal[17]
  3: 0x0025 [0x53] WAIT_SCHEDULER_TASK: Wait for scheduler "sha0" with entities [EventEntity, EventEntity]
  4: 0x0032 [0x00] END_REQSTACK()
```

### Event 65535.4

#### Metadata

| Field        | Value    |
|--------------|----------|
| Entrypoint   | 0x0033   |
| Data Size    | 37 bytes |
| Instructions | 5        |

```
      00 01 02 03 04 05 06 07  08 09 0A 0B 0C 0D 0E 0F
      -- -- -- -- -- -- -- --  -- -- -- -- -- -- -- --
0030:          03 10 00 07 7F  1A F9 08 66 11 00 F8 FF     ........f....
0040: FF 7F F8 FF FF 7F 73 68  61 31 53 F8 FF FF 7F F8  ......sha1S.....
0050: FF FF 7F 73 68 61 31 00                           ...sha1.        
```

#### Opcodes

```
  0: 0x0033 [0x03] ExtData[1]->WorkLocal[16] = Entity->Race
  1: 0x0038 [0x1A] CALL_SUBROUTINE(address=0x08F9)
  2: 0x003B [0x66] LOAD_EXT_SCHEDULER_MAIN: Load scheduler "sha1" with entities [EventEntity, EventEntity], work=ExtData[1]->WorkLocal[17]
  3: 0x004A [0x53] WAIT_SCHEDULER_TASK: Wait for scheduler "sha1" with entities [EventEntity, EventEntity]
  4: 0x0057 [0x00] END_REQSTACK()
```

### Event 65535.5

#### Metadata

| Field        | Value   |
|--------------|---------|
| Entrypoint   | 0x0058  |
| Data Size    | 7 bytes |
| Instructions | 3       |

```
      00 01 02 03 04 05 06 07  08 09 0A 0B 0C 0D 0E 0F
      -- -- -- -- -- -- -- --  -- -- -- -- -- -- -- --
0050:                          AB 03 AC 01 00 80 00             ....... 
```

#### Opcodes

```
  0: 0x0058 [0xAB] EventEntity->Render.Flags0 ^= 0x20000 // Toggle bit 17
  1: 0x005A [0xAC] EventEntity->StatusEvent = 1*
  2: 0x005E [0x00] END_REQSTACK()
```

### Event 65535.6

#### Metadata

| Field        | Value   |
|--------------|---------|
| Entrypoint   | 0x005F  |
| Data Size    | 7 bytes |
| Instructions | 3       |

```
      00 01 02 03 04 05 06 07  08 09 0A 0B 0C 0D 0E 0F
      -- -- -- -- -- -- -- --  -- -- -- -- -- -- -- --
0050:                                               AC                 .
0060: 01 01 80 AB 04 00                                 ......          
```

#### Opcodes

```
  0: 0x005F [0xAC] EventEntity->StatusEvent = 0*
  1: 0x0063 [0xAB] EventEntity->Render.Flags0 |= 0x40000 // Set bit 18
  2: 0x0065 [0x00] END_REQSTACK()
```

### Event 25

#### Metadata

| Field        | Value     |
|--------------|-----------|
| Entrypoint   | 0x0066    |
| Data Size    | 445 bytes |
| Instructions | 36        |

```
      00 01 02 03 04 05 06 07  08 09 0A 0B 0C 0D 0E 0F
      -- -- -- -- -- -- -- --  -- -- -- -- -- -- -- --
0060:                   42 06  01 10 03 01 00 05 10 03        B.........
0070: 02 00 03 10 03 01 10 02  80 43 00 43 01 CD 03 80  .........C.C....
0080: F0 FF FF 7F F0 FF FF 7F  6D 61 69 6E 01 80 1C 04  ........main....
0090: 80 45 05 80 F0 FF FF 7F  F0 FF FF 7F 66 64 6F 31  .E..........fdo1
00A0: 01 80 1C 06 80 9D 00 A3  01 03 00 01 00 9D 00 C3  ................
00B0: 01 04 00 01 00 9D 00 E3  01 05 00 01 00 9D 00 03  ................
00C0: 02 06 00 01 00 03 01 10  07 80 47 00 03 00 05 00  ..........G.....
00D0: 04 00 06 00 47 01 03 07  00 00 80 9D 00 43 01 07  ....G........C..
00E0: 00 02 00 9D 00 63 01 08  00 07 00 9D 00 73 01 09  .....c.......s..
00F0: 00 07 00 9D 00 83 01 0A  00 07 00 9D 00 93 01 0B  ................
0100: 00 07 00 5C 00 08 00 5C  01 09 00 5C 02 0A 00 5C  ...\...\...\...\
0110: 03 0B 00 1A 61 04 1C 08  80 45 05 80 F0 FF FF 7F  ....a....E......
0120: F0 FF FF 7F 66 64 69 31  01 80 1C 06 80 CD 09 80  ....fdi1........
0130: F0 FF FF 7F F0 FF FF 7F  6D 61 69 6E 01 80 1C 0A  ........main....
0140: 80 21 00 01 80 01 80 01  80 01 80 00 80 01 80 01  .!..............
0150: 80 01 80 01 80 01 80 01  80 01 80 01 80 01 80 01  ................
0160: 80 01 80 0B 80 0C 80 09  80 09 80 01 80 01 80 01  ................
0170: 80 01 80 0B 80 0C 80 09  80 09 80 01 80 01 80 01  ................
0180: 80 01 80 0B 80 0C 80 09  80 09 80 01 80 01 80 01  ................
0190: 80 01 80 0B 80 0C 80 09  80 09 80 01 80 01 80 01  ................
01A0: 80 01 80 01 80 0D 80 0E  80 0F 80 10 80 11 80 12  ................
01B0: 80 13 80 14 80 15 80 01  80 01 80 01 80 01 80 01  ................
01C0: 80 01 80 01 80 16 80 17  80 18 80 19 80 1A 80 1B  ................
01D0: 80 1C 80 1D 80 1E 80 01  80 01 80 01 80 01 80 01  ................
01E0: 80 01 80 01 80 1F 80 20  80 21 80 22 80 1F 80 23  ....... .!."...#
01F0: 80 24 80 24 80 24 80 01  80 01 80 01 80 01 80 01  .$.$.$..........
0200: 80 01 80 01 80 25 80 26  80 27 80 28 80 29 80 2A  .....%.&.'.(.).*
0210: 80 29 80 29 80 29 80 01  80 01 80 01 80 01 80 01  .).).)..........
0220: 80 01 80                                          ...             
```

#### Opcodes

```
  0: 0x0066 [0x42] SET_CLI_EVENT_CANCEL_DATA()
  1: 0x0067 [0x06] Work_Zone[1] = 0
  2: 0x006A [0x03] ExtData[1]->WorkLocal[1] = Work_Zone[5]
  3: 0x006F [0x03] ExtData[1]->WorkLocal[2] = Work_Zone[3]
  4: 0x0074 [0x03] Work_Zone[1] = 4097*
  5: 0x0079 [0x43] SEND_EVENT_UPDATE: Send pending tag to server (packet 0x005B)
  6: 0x007B [0x43] SEND_EVENT_UPDATE: Check pending flag (skip if not pending)
  7: 0x007D [0xCD] LOAD_SCHEDULED_TASK_ALT4: Load scheduler "main" with entities [LocalPlayer, LocalPlayer], work=[124*, 0*]
  8: 0x008E [0x1C] WAIT(180* ticks)
  9: 0x0091 [0x45] LOAD_SCHEDULED_TASK: Load scheduler "fdo1" with entities [LocalPlayer, LocalPlayer], work=[200*, 0*]
 10: 0x00A2 [0x1C] WAIT(60* ticks)
 11: 0x00A5 [0x9D] ExtData[1]->WorkLocal[3] = 0x01A3[ExtData[1]->WorkLocal[1]] // Read WORD
 12: 0x00AD [0x9D] ExtData[1]->WorkLocal[4] = 0x01C3[ExtData[1]->WorkLocal[1]] // Read WORD
 13: 0x00B5 [0x9D] ExtData[1]->WorkLocal[5] = 0x01E3[ExtData[1]->WorkLocal[1]] // Read WORD
 14: 0x00BD [0x9D] ExtData[1]->WorkLocal[6] = 0x0203[ExtData[1]->WorkLocal[1]] // Read WORD
 15: 0x00C5 [0x03] Work_Zone[1] = 4099*
 16: 0x00CA [0x47] UPDATE_PLAYER_POS(ExtData[1]->WorkLocal[3], ExtData[1]->WorkLocal[5], ExtData[1]->WorkLocal[4], yaw=ExtData[1]->WorkLocal[6])
 17: 0x00D4 [0x47] WAIT_PLAYER_POS_UPDATE
 18: 0x00D6 [0x03] ExtData[1]->WorkLocal[7] = 1*
 19: 0x00DB [0x9D] ExtData[1]->WorkLocal[7] = 0x0143[ExtData[1]->WorkLocal[2]] // Read WORD
 20: 0x00E3 [0x9D] ExtData[1]->WorkLocal[8] = 0x0163[ExtData[1]->WorkLocal[7]] // Read WORD
 21: 0x00EB [0x9D] ExtData[1]->WorkLocal[9] = 0x0173[ExtData[1]->WorkLocal[7]] // Read WORD
 22: 0x00F3 [0x9D] ExtData[1]->WorkLocal[10] = 0x0183[ExtData[1]->WorkLocal[7]] // Read WORD
 23: 0x00FB [0x9D] ExtData[1]->WorkLocal[11] = 0x0193[ExtData[1]->WorkLocal[7]] // Read WORD
 24: 0x0103 [0x5C] MUSIC_CONTROL: Set Idle (Day) music to song ExtData[1]->WorkLocal[8]
 25: 0x0107 [0x5C] MUSIC_CONTROL: Set Idle (Night) music to song ExtData[1]->WorkLocal[9]
 26: 0x010B [0x5C] MUSIC_CONTROL: Set Combat (Solo) music to song ExtData[1]->WorkLocal[10]
 27: 0x010F [0x5C] MUSIC_CONTROL: Set Combat (Party) music to song ExtData[1]->WorkLocal[11]
 28: 0x0113 [0x1A] CALL_SUBROUTINE(address=0x0461)
 29: 0x0116 [0x1C] WAIT(20* ticks)
 30: 0x0119 [0x45] LOAD_SCHEDULED_TASK: Load scheduler "fdi1" with entities [LocalPlayer, LocalPlayer], work=[200*, 0*]
 31: 0x012A [0x1C] WAIT(60* ticks)
 32: 0x012D [0xCD] LOAD_SCHEDULED_TASK_ALT4: Load scheduler "main" with entities [LocalPlayer, LocalPlayer], work=[125*, 0*]
 33: 0x013E [0x1C] WAIT(120* ticks)
 34: 0x0141 [0x21] END_EVENT
 35: 0x0142 [0x00] END_REQSTACK()
```

#### Data or dead code:

```
# Data Section: 0x0143 (224 bytes)
     0x0143: 01 80 01 80 01 80 01 80 00 80 01 80 01 80 01 80
     0x0153: 01 80 01 80 01 80 01 80 01 80 01 80 01 80 01 80
     0x0163: 0B 80 0C 80 09 80 09 80 01 80 01 80 01 80 01 80
     0x0173: 0B 80 0C 80 09 80 09 80 01 80 01 80 01 80 01 80
     0x0183: 0B 80 0C 80 09 80 09 80 01 80 01 80 01 80 01 80
     0x0193: 0B 80 0C 80 09 80 09 80 01 80 01 80 01 80 01 80
     0x01A3: 01 80 0D 80 0E 80 0F 80 10 80 11 80 12 80 13 80
     0x01B3: 14 80 15 80 01 80 01 80 01 80 01 80 01 80 01 80
     0x01C3: 01 80 16 80 17 80 18 80 19 80 1A 80 1B 80 1C 80
     0x01D3: 1D 80 1E 80 01 80 01 80 01 80 01 80 01 80 01 80
     0x01E3: 01 80 1F 80 20 80 21 80 22 80 1F 80 23 80 24 80
     0x01F3: 24 80 24 80 01 80 01 80 01 80 01 80 01 80 01 80
     0x0203: 01 80 25 80 26 80 27 80 28 80 29 80 2A 80 29 80
     0x0213: 29 80 29 80 01 80 01 80 01 80 01 80 01 80 01 80
```

### Event 11

#### Metadata

| Field        | Value     |
|--------------|-----------|
| Entrypoint   | 0x0223    |
| Data Size    | 117 bytes |
| Instructions | 19        |

```
      00 01 02 03 04 05 06 07  08 09 0A 0B 0C 0D 0E 0F
      -- -- -- -- -- -- -- --  -- -- -- -- -- -- -- --
0220:          42 03 01 10 02  80 43 00 43 01 CD 03 80     B.....C.C....
0230: F8 FF FF 7F F8 FF FF 7F  6D 61 69 6E 01 80 1C 04  ........main....
0240: 80 45 05 80 F0 FF FF 7F  F0 FF FF 7F 66 64 6F 31  .E..........fdo1
0250: 01 80 1C 06 80 03 01 10  2B 80 47 00 2C 80 2D 80  ........+.G.,.-.
0260: 2E 80 29 80 47 01 1C 08  80 45 05 80 F0 FF FF 7F  ..).G....E......
0270: F0 FF FF 7F 66 64 69 31  01 80 1C 06 80 CD 09 80  ....fdi1........
0280: F8 FF FF 7F F8 FF FF 7F  6D 61 69 6E 01 80 1C 0A  ........main....
0290: 80 03 01 10 00 80 21 00                           ......!.        
```

#### Opcodes

```
  0: 0x0223 [0x42] SET_CLI_EVENT_CANCEL_DATA()
  1: 0x0224 [0x03] Work_Zone[1] = 4097*
  2: 0x0229 [0x43] SEND_EVENT_UPDATE: Send pending tag to server (packet 0x005B)
  3: 0x022B [0x43] SEND_EVENT_UPDATE: Check pending flag (skip if not pending)
  4: 0x022D [0xCD] LOAD_SCHEDULED_TASK_ALT4: Load scheduler "main" with entities [EventEntity, EventEntity], work=[124*, 0*]
  5: 0x023E [0x1C] WAIT(180* ticks)
  6: 0x0241 [0x45] LOAD_SCHEDULED_TASK: Load scheduler "fdo1" with entities [LocalPlayer, LocalPlayer], work=[200*, 0*]
  7: 0x0252 [0x1C] WAIT(60* ticks)
  8: 0x0255 [0x03] Work_Zone[1] = 4098*
  9: 0x025A [0x47] UPDATE_PLAYER_POS(-640.500*, -528.500*, -19.850*, yaw=270.0°*)
 10: 0x0264 [0x47] WAIT_PLAYER_POS_UPDATE
 11: 0x0266 [0x1C] WAIT(20* ticks)
 12: 0x0269 [0x45] LOAD_SCHEDULED_TASK: Load scheduler "fdi1" with entities [LocalPlayer, LocalPlayer], work=[200*, 0*]
 13: 0x027A [0x1C] WAIT(60* ticks)
 14: 0x027D [0xCD] LOAD_SCHEDULED_TASK_ALT4: Load scheduler "main" with entities [EventEntity, EventEntity], work=[125*, 0*]
 15: 0x028E [0x1C] WAIT(120* ticks)
 16: 0x0291 [0x03] Work_Zone[1] = 1*
 17: 0x0296 [0x21] END_EVENT
 18: 0x0297 [0x00] END_REQSTACK()
```

### Event 12

#### Metadata

| Field        | Value     |
|--------------|-----------|
| Entrypoint   | 0x0298    |
| Data Size    | 117 bytes |
| Instructions | 19        |

```
      00 01 02 03 04 05 06 07  08 09 0A 0B 0C 0D 0E 0F
      -- -- -- -- -- -- -- --  -- -- -- -- -- -- -- --
0290:                          42 03 01 10 02 80 43 00          B.....C.
02A0: 43 01 CD 03 80 F8 FF FF  7F F8 FF FF 7F 6D 61 69  C............mai
02B0: 6E 01 80 1C 04 80 45 05  80 F0 FF FF 7F F0 FF FF  n.....E.........
02C0: 7F 66 64 6F 31 01 80 1C  06 80 03 01 10 2B 80 47  .fdo1........+.G
02D0: 00 2C 80 2D 80 2E 80 29  80 47 01 1C 08 80 45 05  .,.-...).G....E.
02E0: 80 F0 FF FF 7F F0 FF FF  7F 66 64 69 31 01 80 1C  .........fdi1...
02F0: 06 80 CD 09 80 F8 FF FF  7F F8 FF FF 7F 6D 61 69  .............mai
0300: 6E 01 80 1C 0A 80 03 01  10 00 80 21 00           n..........!.   
```

#### Opcodes

```
  0: 0x0298 [0x42] SET_CLI_EVENT_CANCEL_DATA()
  1: 0x0299 [0x03] Work_Zone[1] = 4097*
  2: 0x029E [0x43] SEND_EVENT_UPDATE: Send pending tag to server (packet 0x005B)
  3: 0x02A0 [0x43] SEND_EVENT_UPDATE: Check pending flag (skip if not pending)
  4: 0x02A2 [0xCD] LOAD_SCHEDULED_TASK_ALT4: Load scheduler "main" with entities [EventEntity, EventEntity], work=[124*, 0*]
  5: 0x02B3 [0x1C] WAIT(180* ticks)
  6: 0x02B6 [0x45] LOAD_SCHEDULED_TASK: Load scheduler "fdo1" with entities [LocalPlayer, LocalPlayer], work=[200*, 0*]
  7: 0x02C7 [0x1C] WAIT(60* ticks)
  8: 0x02CA [0x03] Work_Zone[1] = 4098*
  9: 0x02CF [0x47] UPDATE_PLAYER_POS(-640.500*, -528.500*, -19.850*, yaw=270.0°*)
 10: 0x02D9 [0x47] WAIT_PLAYER_POS_UPDATE
 11: 0x02DB [0x1C] WAIT(20* ticks)
 12: 0x02DE [0x45] LOAD_SCHEDULED_TASK: Load scheduler "fdi1" with entities [LocalPlayer, LocalPlayer], work=[200*, 0*]
 13: 0x02EF [0x1C] WAIT(60* ticks)
 14: 0x02F2 [0xCD] LOAD_SCHEDULED_TASK_ALT4: Load scheduler "main" with entities [EventEntity, EventEntity], work=[125*, 0*]
 15: 0x0303 [0x1C] WAIT(120* ticks)
 16: 0x0306 [0x03] Work_Zone[1] = 1*
 17: 0x030B [0x21] END_EVENT
 18: 0x030C [0x00] END_REQSTACK()
```

### Event 13

#### Metadata

| Field        | Value      |
|--------------|------------|
| Entrypoint   | 0x030D     |
| Data Size    | 1664 bytes |
| Instructions | 149        |

```
      00 01 02 03 04 05 06 07  08 09 0A 0B 0C 0D 0E 0F
      -- -- -- -- -- -- -- --  -- -- -- -- -- -- -- --
0300:                                         42 03 0C               B..
0310: 00 08 10 03 0D 00 07 10  03 0E 00 06 10 02 0C 00  ................
0320: 01 80 02 D9 03 05 00 00  1A CB 06 03 01 10 02 80  ................
0330: 47 00 2C 80 2D 80 2E 80  29 80 47 01 38 2F 80 1C  G.,.-...).G.8/..
0340: 06 80 02 0D 00 01 80 02  CE 03 24 30 80 00 80 01  ..........$0....
0350: 80 25 02 00 10 01 80 00  60 03 06 00 00 01 6E 03  .%......`.....n.
0360: 02 00 10 00 80 00 6E 03  05 00 00 01 6E 03 02 00  ......n.....n...
0370: 00 01 80 02 81 03 03 0F  00 0E 00 1A 62 04 01 CB  ............b...
0380: 03 03 01 10 2B 80 43 00  43 01 1C 08 80 45 05 80  ....+.C.C....E..
0390: F0 FF FF 7F F0 FF FF 7F  62 6C 6F 66 01 80 45 05  ........blof..E.
03A0: 80 F0 FF FF 7F F0 FF FF  7F 66 64 69 31 01 80 1C  .........fdi1...
03B0: 06 80 CD 09 80 F8 FF FF  7F F8 FF FF 7F 6D 61 69  .............mai
03C0: 6E 01 80 1C 0A 80 03 01  10 00 80 01 D6 03 03 0F  n...............
03D0: 00 0E 00 1A 62 04 01 5F  04 1C 0A 80 03 01 10 02  ....b.._........
03E0: 80 43 00 43 01 CD 03 80  F8 FF FF 7F F8 FF FF 7F  .C.C............
03F0: 6D 61 69 6E 01 80 1C 04  80 45 05 80 F0 FF FF 7F  main.....E......
0400: F0 FF FF 7F 66 64 6F 31  01 80 1C 06 80 03 01 10  ....fdo1........
0410: 2B 80 47 00 2C 80 2D 80  2E 80 29 80 47 01 1C 08  +.G.,.-...).G...
0420: 80 45 05 80 F0 FF FF 7F  F0 FF FF 7F 62 6C 6F 66  .E..........blof
0430: 01 80 45 05 80 F0 FF FF  7F F0 FF FF 7F 66 64 69  ..E..........fdi
0440: 31 01 80 1C 06 80 CD 09  80 F8 FF FF 7F F8 FF FF  1...............
0450: 7F 6D 61 69 6E 01 80 1C  0A 80 03 01 10 00 80 21  .main..........!
0460: 00 1B 46 01 38 2F 80 27  10 61 E0 0D 01 04 92 00  ..F.8/.'.a......
0470: F0 FF FF 7F 92 01 61 E0  0D 01 94 01 F0 FF FF 7F  ......a.........
0480: 94 01 61 E0 0D 01 02 0F  00 01 80 02 05 05 BA F0  ..a.............
0490: FF FF 7F 31 80 32 80 33  80 34 80 BA 61 E0 0D 01  ...1.2.3.4..a...
04A0: 35 80 36 80 33 80 37 80  29 10 61 E0 0D 01 0C 80  5.6.3.7.).a.....
04B0: F0 FF FF 7F 80 61 E0 0D  01 1C 06 80 2C 61 E0 0D  .....a......,a..
04C0: 01 61 E0 0D 01 69 64 73  32 5C 00 0C 80 5C 01 0C  .a...ids2\...\..
04D0: 80 5C 02 0C 80 5C 03 0C  80 9A 27 10 F0 FF FF 7F  .\...\....'.....
04E0: 06 45 38 80 F0 FF FF 7F  F0 FF FF 7F 63 64 76 32  .E8.........cdv2
04F0: 01 80 1A AA 06 2C 61 E0  0D 01 61 E0 0D 01 64 65  .....,a...a...de
0500: 31 30 01 7C 05 BA F0 FF  FF 7F 39 80 3A 80 33 80  10.|......9.:.3.
0510: 3B 80 BA 61 E0 0D 01 3C  80 3D 80 33 80 3E 80 29  ;..a...<.=.3.>.)
0520: 10 61 E0 0D 01 0C 80 F0  FF FF 7F 80 61 E0 0D 01  .a..........a...
0530: 1C 06 80 2C 61 E0 0D 01  61 E0 0D 01 69 64 73 31  ...,a...a...ids1
0540: 5C 00 0C 80 5C 01 0C 80  5C 02 0C 80 5C 03 0C 80  \...\...\...\...
0550: 9A 27 10 F0 FF FF 7F 06  45 38 80 F0 FF FF 7F F0  .'......E8......
0560: FF FF 7F 63 64 76 31 01  80 1A AA 06 1C 06 80 2C  ...cdv1........,
0570: 61 E0 0D 01 61 E0 0D 01  64 65 30 30 1C 3F 80 5D  a...a...de00.?.]
0580: 01 80 40 80 1C 40 80 27  10 F0 FF FF 7F 07 1C 40  ..@..@.'.......@
0590: 80 CD 03 80 F8 FF FF 7F  F8 FF FF 7F 6D 61 69 6E  ............main
05A0: 01 80 1C 06 80 92 01 F0  FF FF 7F 1C 0A 80 1A CB  ................
05B0: 06 1C 41 80 29 10 61 E0  0D 01 0D 80 61 E0 0D 01  ..A.).a.....a...
05C0: 52 38 80 F0 FF FF 7F F0  FF FF 7F 63 64 76 31 52  R8.........cdv1R
05D0: 38 80 F0 FF FF 7F F0 FF  FF 7F 63 64 76 32 45 38  8.........cdv2E8
05E0: 80 F0 FF FF 7F F0 FF FF  7F 30 62 6C 66 01 80 1C  .........0blf...
05F0: 42 80 AB 11 01 80 1C 00  80 5C 00 0B 80 5C 01 0B  B........\...\..
0600: 80 5C 02 0B 80 5C 03 0B  80 9A 03 01 10 02 80 43  .\...\.........C
0610: 00 43 01 1C 06 80 BA F0  FF FF 7F 2C 80 2D 80 2E  .C.........,.-..
0620: 80 29 80 03 01 10 2B 80  43 00 43 01 1C 41 80 46  .)....+.C.C..A.F
0630: 00 45 05 80 F0 FF FF 7F  F0 FF FF 7F 66 64 69 32  .E..........fdi2
0640: 01 80 1C 06 80 CD 09 80  F8 FF FF 7F F8 FF FF 7F  ................
0650: 6D 61 69 6E 01 80 1C 41  80 92 00 F0 FF FF 7F 1C  main...A........
0660: 43 80 03 01 10 00 80 1B  45 05 80 F0 FF FF 7F F0  C.......E.......
0670: FF FF 7F 66 64 69 30 01  80 55 05 80 F0 FF FF 7F  ...fdi0..U......
0680: F0 FF FF 7F 66 64 69 30  1B 45 05 80 F0 FF FF 7F  ....fdi0.E......
0690: F0 FF FF 7F 66 64 6F 30  01 80 55 05 80 F0 FF FF  ....fdo0..U.....
06A0: 7F F0 FF FF 7F 66 64 6F  30 1B 45 05 80 F0 FF FF  .....fdo0.E.....
06B0: 7F F0 FF FF 7F 66 64 69  31 01 80 55 05 80 F0 FF  .....fdi1..U....
06C0: FF 7F F0 FF FF 7F 66 64  69 31 1B 45 05 80 F0 FF  ......fdi1.E....
06D0: FF 7F F0 FF FF 7F 66 64  6F 31 01 80 55 05 80 F0  ......fdo1..U...
06E0: FF FF 7F F0 FF FF 7F 66  64 6F 31 1B 45 44 80 F0  .......fdo1.ED..
06F0: FF FF 7F F0 FF FF 7F 77  68 69 31 01 80 55 44 80  .......whi1..UD.
0700: F0 FF FF 7F F0 FF FF 7F  77 68 69 31 1B 45 44 80  ........whi1.ED.
0710: F0 FF FF 7F F0 FF FF 7F  77 68 6F 31 01 80 55 44  ........who1..UD
0720: 80 F0 FF FF 7F F0 FF FF  7F 77 68 6F 31 1B 45 44  .........who1.ED
0730: 80 F0 FF FF 7F F0 FF FF  7F 77 68 6F 32 01 80 55  .........who2..U
0740: 44 80 F0 FF FF 7F F0 FF  FF 7F 77 68 6F 32 1B 45  D.........who2.E
0750: 44 80 F0 FF FF 7F F0 FF  FF 7F 77 68 6F 33 01 80  D.........who3..
0760: 55 44 80 F0 FF FF 7F F0  FF FF 7F 77 68 6F 33 1B  UD.........who3.
0770: 62 00 80 F0 FF FF 7F F0  FF FF 7F 6D 61 69 6E 01  b..........main.
0780: 80 1C 45 80 45 05 80 F0  FF FF 7F F0 FF FF 7F 66  ..E.E..........f
0790: 64 6F 31 01 80 55 05 80  F0 FF FF 7F F0 FF FF 7F  do1..U..........
07A0: 66 64 6F 31 1B 45 05 80  F0 FF FF 7F F0 FF FF 7F  fdo1.E..........
07B0: 66 64 69 31 01 80 62 46  80 F0 FF FF 7F F0 FF FF  fdi1..bF........
07C0: 7F 6D 61 69 6E 01 80 1C  41 80 55 05 80 F0 FF FF  .main...A.U.....
07D0: 7F F0 FF FF 7F 66 64 69  31 1B 45 05 80 F0 FF FF  .....fdi1.E.....
07E0: 7F F0 FF FF 7F 62 6C 6F  6E 01 80 45 44 80 F0 FF  .....blon..ED...
07F0: FF 7F F0 FF FF 7F 62 6C  6F 6E 01 80 1B 45 44 80  ......blon...ED.
0800: F0 FF FF 7F F0 FF FF 7F  77 68 69 30 01 80 55 44  ........whi0..UD
0810: 80 F0 FF FF 7F F0 FF FF  7F 77 68 69 30 1B 45 44  .........whi0.ED
0820: 80 F0 FF FF 7F F0 FF FF  7F 77 68 6F 30 01 80 55  .........who0..U
0830: 44 80 F0 FF FF 7F F0 FF  FF 7F 77 68 6F 30 1B 45  D.........who0.E
0840: 47 80 F0 FF FF 7F F0 FF  FF 7F 65 66 6F 6E 01 80  G.........efon..
0850: 55 47 80 F0 FF FF 7F F0  FF FF 7F 65 66 6F 6E 1B  UG.........efon.
0860: 45 05 80 F0 FF FF 7F F0  FF FF 7F 66 64 69 73 01  E..........fdis.
0870: 80 1B 45 05 80 F0 FF FF  7F F0 FF FF 7F 66 64 6F  ..E..........fdo
0880: 73 01 80 55 05 80 F0 FF  FF 7F F0 FF FF 7F 66 64  s..U..........fd
0890: 6F 73 1B 45 05 80 F0 FF  FF 7F F0 FF FF 7F 66 64  os.E..........fd
08A0: 69 66 01 80 1B 45 05 80  F0 FF FF 7F F0 FF FF 7F  if...E..........
08B0: 66 64 6F 66 01 80 55 05  80 F0 FF FF 7F F0 FF FF  fdof..U.........
08C0: 7F 66 64 6F 66 1B 45 05  80 F0 FF FF 7F F0 FF FF  .fdof.E.........
08D0: 7F 66 64 69 70 01 80 1B  45 05 80 F0 FF FF 7F F0  .fdip...E.......
08E0: FF FF 7F 66 64 6F 70 01  80 55 05 80 F0 FF FF 7F  ...fdop..U......
08F0: F0 FF FF 7F 66 64 6F 70  1B 03 11 00 10 00 02 11  ....fdop........
0900: 00 48 80 05 0E 09 08 11  00 00 80 01 13 09 08 11  .H..............
0910: 00 46 80 14 11 00 49 80  07 11 00 4A 80 1B 03 11  .F....I....J....
0920: 00 10 00 02 11 00 48 80  05 33 09 08 11 00 00 80  ......H..3......
0930: 01 38 09 08 11 00 46 80  14 11 00 49 80 07 11 00  .8....F....I....
0940: 4B 80 1B 03 11 00 10 00  02 11 00 48 80 05 58 09  K..........H..X.
0950: 08 11 00 00 80 01 5D 09  08 11 00 46 80 14 11 00  ......]....F....
0960: 49 80 07 11 00 4C 80 1B  03 11 00 10 00 02 11 00  I....L..........
0970: 48 80 05 7D 09 08 11 00  00 80 01 82 09 08 11 00  H..}............
0980: 46 80 14 11 00 49 80 07  11 00 4D 80 1B           F....I....M..   
```

#### Opcodes

```
  0: 0x030D [0x42] SET_CLI_EVENT_CANCEL_DATA()
  1: 0x030E [0x03] ExtData[1]->WorkLocal[12] = Work_Zone[8]
  2: 0x0313 [0x03] ExtData[1]->WorkLocal[13] = Work_Zone[7]
  3: 0x0318 [0x03] ExtData[1]->WorkLocal[14] = Work_Zone[6]
  4: 0x031D [0x02] IF !(ExtData[1]->WorkLocal[12] <= 0*) GOTO 0x03D9
  5: 0x0325 [0x05] ExtData[1]->WorkLocal[0] = 1
  6: 0x0328 [0x1A] CALL_SUBROUTINE(address=0x06CB)
  7: 0x032B [0x03] Work_Zone[1] = 4097*
  8: 0x0330 [0x47] UPDATE_PLAYER_POS(-640.500*, -528.500*, -19.850*, yaw=270.0°*)
  9: 0x033A [0x47] WAIT_PLAYER_POS_UPDATE
 10: 0x033C [0x38] SET_CLIENT_EVENT_MODE(mode=19*)
 11: 0x033F [0x1C] WAIT(60* ticks)
 12: 0x0342 [0x02] IF !(ExtData[1]->WorkLocal[13] <= 0*) GOTO 0x03CE
 13: 0x034A [0x24] CREATE_DIALOG(message_id=7335*, default_option=1*, option_flags=0*)
    → "Skip the event? [Yes./No.]"
 14: 0x0351 [0x25] WAIT_DIALOG_SELECT()
 15: 0x0352 [0x02] IF !(Work_Zone[0] == 0*) GOTO 0x0360
 16: 0x035A [0x06] ExtData[1]->WorkLocal[0] = 0
 17: 0x035D [0x01] GOTO 0x036E
 18: 0x0360 [0x02] IF !(Work_Zone[0] == 1*) GOTO 0x036E
 19: 0x0368 [0x05] ExtData[1]->WorkLocal[0] = 1
 20: 0x036B [0x01] GOTO 0x036E

SUBROUTINE_036E:
 21: 0x036E [0x02] IF !(ExtData[1]->WorkLocal[0] <= 0*) GOTO 0x0381
 22: 0x0376 [0x03] ExtData[1]->WorkLocal[15] = ExtData[1]->WorkLocal[14]
 23: 0x037B [0x1A] CALL_SUBROUTINE(address=0x0462)
 24: 0x037E [0x01] GOTO 0x03CB
 25: 0x0381 [0x03] Work_Zone[1] = 4098*
 26: 0x0386 [0x43] SEND_EVENT_UPDATE: Send pending tag to server (packet 0x005B)
 27: 0x0388 [0x43] SEND_EVENT_UPDATE: Check pending flag (skip if not pending)
 28: 0x038A [0x1C] WAIT(20* ticks)
 29: 0x038D [0x45] LOAD_SCHEDULED_TASK: Load scheduler "blof" with entities [LocalPlayer, LocalPlayer], work=[200*, 0*]
 30: 0x039E [0x45] LOAD_SCHEDULED_TASK: Load scheduler "fdi1" with entities [LocalPlayer, LocalPlayer], work=[200*, 0*]
 31: 0x03AF [0x1C] WAIT(60* ticks)
 32: 0x03B2 [0xCD] LOAD_SCHEDULED_TASK_ALT4: Load scheduler "main" with entities [EventEntity, EventEntity], work=[125*, 0*]
 33: 0x03C3 [0x1C] WAIT(120* ticks)
 34: 0x03C6 [0x03] Work_Zone[1] = 1*

SUBROUTINE_03CB:
 35: 0x03CB [0x01] GOTO 0x03D6
 36: 0x03CE [0x03] ExtData[1]->WorkLocal[15] = ExtData[1]->WorkLocal[14]
 37: 0x03D3 [0x1A] CALL_SUBROUTINE(address=0x0462)

SUBROUTINE_03D6:
 38: 0x03D6 [0x01] GOTO 0x045F
 39: 0x03D9 [0x1C] WAIT(120* ticks)
 40: 0x03DC [0x03] Work_Zone[1] = 4097*
 41: 0x03E1 [0x43] SEND_EVENT_UPDATE: Send pending tag to server (packet 0x005B)
 42: 0x03E3 [0x43] SEND_EVENT_UPDATE: Check pending flag (skip if not pending)
 43: 0x03E5 [0xCD] LOAD_SCHEDULED_TASK_ALT4: Load scheduler "main" with entities [EventEntity, EventEntity], work=[124*, 0*]
 44: 0x03F6 [0x1C] WAIT(180* ticks)
 45: 0x03F9 [0x45] LOAD_SCHEDULED_TASK: Load scheduler "fdo1" with entities [LocalPlayer, LocalPlayer], work=[200*, 0*]
 46: 0x040A [0x1C] WAIT(60* ticks)
 47: 0x040D [0x03] Work_Zone[1] = 4098*
 48: 0x0412 [0x47] UPDATE_PLAYER_POS(-640.500*, -528.500*, -19.850*, yaw=270.0°*)
 49: 0x041C [0x47] WAIT_PLAYER_POS_UPDATE
 50: 0x041E [0x1C] WAIT(20* ticks)
 51: 0x0421 [0x45] LOAD_SCHEDULED_TASK: Load scheduler "blof" with entities [LocalPlayer, LocalPlayer], work=[200*, 0*]
 52: 0x0432 [0x45] LOAD_SCHEDULED_TASK: Load scheduler "fdi1" with entities [LocalPlayer, LocalPlayer], work=[200*, 0*]
 53: 0x0443 [0x1C] WAIT(60* ticks)
 54: 0x0446 [0xCD] LOAD_SCHEDULED_TASK_ALT4: Load scheduler "main" with entities [EventEntity, EventEntity], work=[125*, 0*]
 55: 0x0457 [0x1C] WAIT(120* ticks)
 56: 0x045A [0x03] Work_Zone[1] = 1*

SUBROUTINE_045F:
 57: 0x045F [0x21] END_EVENT
 58: 0x0460 [0x00] END_REQSTACK()

SUBROUTINE_0462:
 59: 0x0462 [0x46] CAMERA_CONTROL: Disable user control
 60: 0x0464 [0x38] SET_CLIENT_EVENT_MODE(mode=19*)
 61: 0x0467 [0x27] REQ_SET(priority=0x10, entity_id=Unnamed NPC (ID: 17686625/0x010DE061), tag_num=0x04)
 62: 0x046E [0x92] LocalPlayer->Render.Flags3 = Flags3  // No change (flag=0)
 63: 0x0474 [0x92] Unnamed NPC (ID: 17686625/0x010DE061)->Render.Flags3 ^= 0x01
 64: 0x047A [0x94] LocalPlayer->Render.Flags3 ^= 0x01
 65: 0x0480 [0x94] Unnamed NPC (ID: 17686625/0x010DE061)->Render.Flags3 ^= 0x01
 66: 0x0486 [0x02] IF !(ExtData[1]->WorkLocal[15] <= 0*) GOTO 0x0505
 67: 0x048E [0xBA] SET_ENTITY_POSITION(entity_id=LocalPlayer, pos_x=-577.834*, pos_z=524.358*, pos_y=-227.999*, direction=283.6°*)
 68: 0x049B [0xBA] SET_ENTITY_POSITION(entity_id=Unnamed NPC (ID: 17686625/0x010DE061), pos_x=-574.164*, pos_z=536.512*, pos_y=-227.999*, direction=103.3°*)
 69: 0x04A8 [0x29] REQ_SET_WAIT(priority=0x10, entity_id=Unnamed NPC (ID: 17686625/0x010DE061), tag_num=0x0C)
 70: 0x04AF [0x80] LOAD_WAIT(entity=LocalPlayer)
 71: 0x04B4 [0x80] LOAD_WAIT(entity=Unnamed NPC (ID: 17686625/0x010DE061))
 72: 0x04B9 [0x1C] WAIT(60* ticks)
 73: 0x04BC [0x2C] CREATE_SCHEDULER_TASK: Create scheduler "ids2" with entities [Unnamed NPC (ID: 17686625/0x010DE061), Unnamed NPC (ID: 17686625/0x010DE061)]
 74: 0x04C9 [0x5C] MUSIC_CONTROL: Set Idle (Day) music to song 55*
 75: 0x04CD [0x5C] MUSIC_CONTROL: Set Idle (Night) music to song 55*
 76: 0x04D1 [0x5C] MUSIC_CONTROL: Set Combat (Solo) music to song 55*
 77: 0x04D5 [0x5C] MUSIC_CONTROL: Set Combat (Party) music to song 55*
 78: 0x04D9 [0x9A] WAIT_MUSIC_SERVER()
 79: 0x04DA [0x27] REQ_SET(priority=0x10, entity_id=LocalPlayer, tag_num=0x06)
 80: 0x04E1 [0x45] LOAD_SCHEDULED_TASK: Load scheduler "cdv2" with entities [LocalPlayer, LocalPlayer], work=[578*, 0*]
 81: 0x04F2 [0x1A] CALL_SUBROUTINE(address=0x06AA)
 82: 0x04F5 [0x2C] CREATE_SCHEDULER_TASK: Create scheduler "de10" with entities [Unnamed NPC (ID: 17686625/0x010DE061), Unnamed NPC (ID: 17686625/0x010DE061)]
 83: 0x0502 [0x01] GOTO 0x057C
 84: 0x0505 [0xBA] SET_ENTITY_POSITION(entity_id=LocalPlayer, pos_x=-578.392*, pos_z=529.673*, pos_y=-227.999*, direction=317.8°*)
 85: 0x0512 [0xBA] SET_ENTITY_POSITION(entity_id=Unnamed NPC (ID: 17686625/0x010DE061), pos_x=-567.749*, pos_z=540.384*, pos_y=-227.999*, direction=137.4°*)
 86: 0x051F [0x29] REQ_SET_WAIT(priority=0x10, entity_id=Unnamed NPC (ID: 17686625/0x010DE061), tag_num=0x0C)
 87: 0x0526 [0x80] LOAD_WAIT(entity=LocalPlayer)
 88: 0x052B [0x80] LOAD_WAIT(entity=Unnamed NPC (ID: 17686625/0x010DE061))
 89: 0x0530 [0x1C] WAIT(60* ticks)
 90: 0x0533 [0x2C] CREATE_SCHEDULER_TASK: Create scheduler "ids1" with entities [Unnamed NPC (ID: 17686625/0x010DE061), Unnamed NPC (ID: 17686625/0x010DE061)]
 91: 0x0540 [0x5C] MUSIC_CONTROL: Set Idle (Day) music to song 55*
 92: 0x0544 [0x5C] MUSIC_CONTROL: Set Idle (Night) music to song 55*
 93: 0x0548 [0x5C] MUSIC_CONTROL: Set Combat (Solo) music to song 55*
 94: 0x054C [0x5C] MUSIC_CONTROL: Set Combat (Party) music to song 55*
 95: 0x0550 [0x9A] WAIT_MUSIC_SERVER()
 96: 0x0551 [0x27] REQ_SET(priority=0x10, entity_id=LocalPlayer, tag_num=0x06)
 97: 0x0558 [0x45] LOAD_SCHEDULED_TASK: Load scheduler "cdv1" with entities [LocalPlayer, LocalPlayer], work=[578*, 0*]
 98: 0x0569 [0x1A] CALL_SUBROUTINE(address=0x06AA)
 99: 0x056C [0x1C] WAIT(60* ticks)
100: 0x056F [0x2C] CREATE_SCHEDULER_TASK: Create scheduler "de00" with entities [Unnamed NPC (ID: 17686625/0x010DE061), Unnamed NPC (ID: 17686625/0x010DE061)]

SUBROUTINE_057C:
101: 0x057C [0x1C] WAIT(600* ticks)
102: 0x057F [0x5D] SET_MUSIC_VOLUME(volume=0*, fade_time=300*)
103: 0x0584 [0x1C] WAIT(300* ticks)
104: 0x0587 [0x27] REQ_SET(priority=0x10, entity_id=LocalPlayer, tag_num=0x07)
105: 0x058E [0x1C] WAIT(300* ticks)
106: 0x0591 [0xCD] LOAD_SCHEDULED_TASK_ALT4: Load scheduler "main" with entities [EventEntity, EventEntity], work=[124*, 0*]
107: 0x05A2 [0x1C] WAIT(60* ticks)
108: 0x05A5 [0x92] LocalPlayer->Render.Flags3 ^= 0x01
109: 0x05AB [0x1C] WAIT(120* ticks)
110: 0x05AE [0x1A] CALL_SUBROUTINE(address=0x06CB)
111: 0x05B1 [0x1C] WAIT(30* ticks)
112: 0x05B4 [0x29] REQ_SET_WAIT(priority=0x10, entity_id=Unnamed NPC (ID: 17686625/0x010DE061), tag_num=0x0D)
113: 0x05BB [0x80] LOAD_WAIT(entity=Unnamed NPC (ID: 17686625/0x010DE061))
114: 0x05C0 [0x52] END_LOAD_SCHEDULER: End scheduler "cdv1" with entities [LocalPlayer, LocalPlayer], work=578*
115: 0x05CF [0x52] END_LOAD_SCHEDULER: End scheduler "cdv2" with entities [LocalPlayer, LocalPlayer], work=578*
116: 0x05DE [0x45] LOAD_SCHEDULED_TASK: Load scheduler "0blf" with entities [LocalPlayer, LocalPlayer], work=[578*, 0*]
117: 0x05EF [0x1C] WAIT(15* ticks)
118: 0x05F2 [0xAB] EventEntity->DespawnValue = 0* // Set despawn value
119: 0x05F6 [0x1C] WAIT(1* ticks)
120: 0x05F9 [0x5C] MUSIC_CONTROL: Set Idle (Day) music to song 56*
121: 0x05FD [0x5C] MUSIC_CONTROL: Set Idle (Night) music to song 56*
122: 0x0601 [0x5C] MUSIC_CONTROL: Set Combat (Solo) music to song 56*
123: 0x0605 [0x5C] MUSIC_CONTROL: Set Combat (Party) music to song 56*
124: 0x0609 [0x9A] WAIT_MUSIC_SERVER()
125: 0x060A [0x03] Work_Zone[1] = 4097*
126: 0x060F [0x43] SEND_EVENT_UPDATE: Send pending tag to server (packet 0x005B)
127: 0x0611 [0x43] SEND_EVENT_UPDATE: Check pending flag (skip if not pending)
128: 0x0613 [0x1C] WAIT(60* ticks)
129: 0x0616 [0xBA] SET_ENTITY_POSITION(entity_id=LocalPlayer, pos_x=-640.500*, pos_z=-528.500*, pos_y=-19.850*, direction=270.0°*)
130: 0x0623 [0x03] Work_Zone[1] = 4098*
131: 0x0628 [0x43] SEND_EVENT_UPDATE: Send pending tag to server (packet 0x005B)
132: 0x062A [0x43] SEND_EVENT_UPDATE: Check pending flag (skip if not pending)
133: 0x062C [0x1C] WAIT(30* ticks)
134: 0x062F [0x46] CAMERA_CONTROL: Restore default settings
135: 0x0631 [0x45] LOAD_SCHEDULED_TASK: Load scheduler "fdi2" with entities [LocalPlayer, LocalPlayer], work=[200*, 0*]
136: 0x0642 [0x1C] WAIT(60* ticks)
137: 0x0645 [0xCD] LOAD_SCHEDULED_TASK_ALT4: Load scheduler "main" with entities [EventEntity, EventEntity], work=[125*, 0*]
138: 0x0656 [0x1C] WAIT(30* ticks)
139: 0x0659 [0x92] LocalPlayer->Render.Flags3 = Flags3  // No change (flag=0)
140: 0x065F [0x1C] WAIT(90* ticks)
141: 0x0662 [0x03] Work_Zone[1] = 1*
142: 0x0667 [0x1B] RETURN

SUBROUTINE_06AA:
143: 0x06AA [0x45] LOAD_SCHEDULED_TASK: Load scheduler "fdi1" with entities [LocalPlayer, LocalPlayer], work=[200*, 0*]
144: 0x06BB [0x55] WAIT_LOAD_SCHEDULER: Wait for scheduler "fdi1" with entities [LocalPlayer, LocalPlayer], work=200*
145: 0x06CA [0x1B] RETURN

SUBROUTINE_06CB:
146: 0x06CB [0x45] LOAD_SCHEDULED_TASK: Load scheduler "fdo1" with entities [LocalPlayer, LocalPlayer], work=[200*, 0*]
147: 0x06DC [0x55] WAIT_LOAD_SCHEDULER: Wait for scheduler "fdo1" with entities [LocalPlayer, LocalPlayer], work=200*
148: 0x06EB [0x1B] RETURN
```

#### Data or dead code:

```
# Dead code (unreachable instructions):
     0x0461 [0x1B] RETURN
# Dead code (unreachable instructions):
     0x0668 [0x45] LOAD_SCHEDULED_TASK: Load scheduler "fdi0" with entities [LocalPlayer, LocalPlayer], work=[200*, 0*]
     0x0679 [0x55] WAIT_LOAD_SCHEDULER: Wait for scheduler "fdi0" with entities [LocalPlayer, LocalPlayer], work=200*
     0x0688 [0x1B] RETURN
     0x0689 [0x45] LOAD_SCHEDULED_TASK: Load scheduler "fdo0" with entities [LocalPlayer, LocalPlayer], work=[200*, 0*]
     0x069A [0x55] WAIT_LOAD_SCHEDULER: Wait for scheduler "fdo0" with entities [LocalPlayer, LocalPlayer], work=200*
     0x06A9 [0x1B] RETURN
# Dead code (unreachable instructions):
     0x06EC [0x45] LOAD_SCHEDULED_TASK: Load scheduler "whi1" with entities [LocalPlayer, LocalPlayer], work=[201*, 0*]
     0x06FD [0x55] WAIT_LOAD_SCHEDULER: Wait for scheduler "whi1" with entities [LocalPlayer, LocalPlayer], work=201*
     0x070C [0x1B] RETURN
     0x070D [0x45] LOAD_SCHEDULED_TASK: Load scheduler "who1" with entities [LocalPlayer, LocalPlayer], work=[201*, 0*]
     0x071E [0x55] WAIT_LOAD_SCHEDULER: Wait for scheduler "who1" with entities [LocalPlayer, LocalPlayer], work=201*
     0x072D [0x1B] RETURN
     0x072E [0x45] LOAD_SCHEDULED_TASK: Load scheduler "who2" with entities [LocalPlayer, LocalPlayer], work=[201*, 0*]
     0x073F [0x55] WAIT_LOAD_SCHEDULER: Wait for scheduler "who2" with entities [LocalPlayer, LocalPlayer], work=201*
     0x074E [0x1B] RETURN
     0x074F [0x45] LOAD_SCHEDULED_TASK: Load scheduler "who3" with entities [LocalPlayer, LocalPlayer], work=[201*, 0*]
     0x0760 [0x55] WAIT_LOAD_SCHEDULER: Wait for scheduler "who3" with entities [LocalPlayer, LocalPlayer], work=201*
     0x076F [0x1B] RETURN
     0x0770 [0x62] LOAD_EVENT_SCHEDULER: Load scheduler "main" with entities [LocalPlayer, LocalPlayer], work=[1*, 0*]
     0x0781 [0x1C] WAIT(45* ticks)
     0x0784 [0x45] LOAD_SCHEDULED_TASK: Load scheduler "fdo1" with entities [LocalPlayer, LocalPlayer], work=[200*, 0*]
     0x0795 [0x55] WAIT_LOAD_SCHEDULER: Wait for scheduler "fdo1" with entities [LocalPlayer, LocalPlayer], work=200*
     0x07A4 [0x1B] RETURN
     0x07A5 [0x45] LOAD_SCHEDULED_TASK: Load scheduler "fdi1" with entities [LocalPlayer, LocalPlayer], work=[200*, 0*]
     0x07B6 [0x62] LOAD_EVENT_SCHEDULER: Load scheduler "main" with entities [LocalPlayer, LocalPlayer], work=[2*, 0*]
     0x07C7 [0x1C] WAIT(30* ticks)
     0x07CA [0x55] WAIT_LOAD_SCHEDULER: Wait for scheduler "fdi1" with entities [LocalPlayer, LocalPlayer], work=200*
     0x07D9 [0x1B] RETURN
     0x07DA [0x45] LOAD_SCHEDULED_TASK: Load scheduler "blon" with entities [LocalPlayer, LocalPlayer], work=[200*, 0*]
     0x07EB [0x45] LOAD_SCHEDULED_TASK: Load scheduler "blon" with entities [LocalPlayer, LocalPlayer], work=[201*, 0*]
     0x07FC [0x1B] RETURN
     0x07FD [0x45] LOAD_SCHEDULED_TASK: Load scheduler "whi0" with entities [LocalPlayer, LocalPlayer], work=[201*, 0*]
     0x080E [0x55] WAIT_LOAD_SCHEDULER: Wait for scheduler "whi0" with entities [LocalPlayer, LocalPlayer], work=201*
     0x081D [0x1B] RETURN
     0x081E [0x45] LOAD_SCHEDULED_TASK: Load scheduler "who0" with entities [LocalPlayer, LocalPlayer], work=[201*, 0*]
     0x082F [0x55] WAIT_LOAD_SCHEDULER: Wait for scheduler "who0" with entities [LocalPlayer, LocalPlayer], work=201*
     0x083E [0x1B] RETURN
     0x083F [0x45] LOAD_SCHEDULED_TASK: Load scheduler "efon" with entities [LocalPlayer, LocalPlayer], work=[215*, 0*]
     0x0850 [0x55] WAIT_LOAD_SCHEDULER: Wait for scheduler "efon" with entities [LocalPlayer, LocalPlayer], work=215*
     0x085F [0x1B] RETURN
     0x0860 [0x45] LOAD_SCHEDULED_TASK: Load scheduler "fdis" with entities [LocalPlayer, LocalPlayer], work=[200*, 0*]
     0x0871 [0x1B] RETURN
     0x0872 [0x45] LOAD_SCHEDULED_TASK: Load scheduler "fdos" with entities [LocalPlayer, LocalPlayer], work=[200*, 0*]
     0x0883 [0x55] WAIT_LOAD_SCHEDULER: Wait for scheduler "fdos" with entities [LocalPlayer, LocalPlayer], work=200*
     0x0892 [0x1B] RETURN
     0x0893 [0x45] LOAD_SCHEDULED_TASK: Load scheduler "fdif" with entities [LocalPlayer, LocalPlayer], work=[200*, 0*]
     0x08A4 [0x1B] RETURN
     0x08A5 [0x45] LOAD_SCHEDULED_TASK: Load scheduler "fdof" with entities [LocalPlayer, LocalPlayer], work=[200*, 0*]
     0x08B6 [0x55] WAIT_LOAD_SCHEDULER: Wait for scheduler "fdof" with entities [LocalPlayer, LocalPlayer], work=200*
     0x08C5 [0x1B] RETURN
     0x08C6 [0x45] LOAD_SCHEDULED_TASK: Load scheduler "fdip" with entities [LocalPlayer, LocalPlayer], work=[200*, 0*]
     0x08D7 [0x1B] RETURN
     0x08D8 [0x45] LOAD_SCHEDULED_TASK: Load scheduler "fdop" with entities [LocalPlayer, LocalPlayer], work=[200*, 0*]
     0x08E9 [0x55] WAIT_LOAD_SCHEDULER: Wait for scheduler "fdop" with entities [LocalPlayer, LocalPlayer], work=200*
     0x08F8 [0x1B] RETURN
     0x08F9 [0x03] ExtData[1]->WorkLocal[17] = ExtData[1]->WorkLocal[16]
     0x08FE [0x02] IF !(ExtData[1]->WorkLocal[17] > 5*) GOTO 0x090E
     0x0906 [0x08] ExtData[1]->WorkLocal[17] -= 1*
     0x090B [0x01] GOTO 0x0913
     0x090E [0x08] ExtData[1]->WorkLocal[17] -= 2*
     0x0913 [0x14] ExtData[1]->WorkLocal[17] *= 10*
     0x0918 [0x07] ExtData[1]->WorkLocal[17] += 9*
     0x091D [0x1B] RETURN
     0x091E [0x03] ExtData[1]->WorkLocal[17] = ExtData[1]->WorkLocal[16]
     0x0923 [0x02] IF !(ExtData[1]->WorkLocal[17] > 5*) GOTO 0x0933
     0x092B [0x08] ExtData[1]->WorkLocal[17] -= 1*
     0x0930 [0x01] GOTO 0x0938
     0x0933 [0x08] ExtData[1]->WorkLocal[17] -= 2*
     0x0938 [0x14] ExtData[1]->WorkLocal[17] *= 10*
     0x093D [0x07] ExtData[1]->WorkLocal[17] += 70*
     0x0942 [0x1B] RETURN
     0x0943 [0x03] ExtData[1]->WorkLocal[17] = ExtData[1]->WorkLocal[16]
     0x0948 [0x02] IF !(ExtData[1]->WorkLocal[17] > 5*) GOTO 0x0958
     0x0950 [0x08] ExtData[1]->WorkLocal[17] -= 1*
     0x0955 [0x01] GOTO 0x095D
     0x0958 [0x08] ExtData[1]->WorkLocal[17] -= 2*
     0x095D [0x14] ExtData[1]->WorkLocal[17] *= 10*
     0x0962 [0x07] ExtData[1]->WorkLocal[17] += 140*
     0x0967 [0x1B] RETURN
     0x0968 [0x03] ExtData[1]->WorkLocal[17] = ExtData[1]->WorkLocal[16]
     0x096D [0x02] IF !(ExtData[1]->WorkLocal[17] > 5*) GOTO 0x097D
     0x0975 [0x08] ExtData[1]->WorkLocal[17] -= 1*
     0x097A [0x01] GOTO 0x0982
     0x097D [0x08] ExtData[1]->WorkLocal[17] -= 2*
     0x0982 [0x14] ExtData[1]->WorkLocal[17] *= 10*
     0x0987 [0x07] ExtData[1]->WorkLocal[17] += 210*
     0x098C [0x1B] RETURN
```

### Event 65535.7

#### Metadata

| Field        | Value    |
|--------------|----------|
| Entrypoint   | 0x098D   |
| Data Size    | 24 bytes |
| Instructions | 4        |

```
      00 01 02 03 04 05 06 07  08 09 0A 0B 0C 0D 0E 0F
      -- -- -- -- -- -- -- --  -- -- -- -- -- -- -- --
0980:                                         03 10 00               ...
0990: 07 7F 1A F9 08 66 11 00  F8 FF FF 7F F8 FF FF 7F  .....f..........
09A0: 74 6C 6B 30 00                                    tlk0.           
```

#### Opcodes

```
  0: 0x098D [0x03] ExtData[1]->WorkLocal[16] = Entity->Race
  1: 0x0992 [0x1A] CALL_SUBROUTINE(address=0x08F9)
  2: 0x0995 [0x66] LOAD_EXT_SCHEDULER_MAIN: Load scheduler "tlk0" with entities [EventEntity, EventEntity], work=ExtData[1]->WorkLocal[17]
  3: 0x09A4 [0x00] END_REQSTACK()
```

### Event 65535.8

#### Metadata

| Field        | Value    |
|--------------|----------|
| Entrypoint   | 0x09A5   |
| Data Size    | 24 bytes |
| Instructions | 4        |

```
      00 01 02 03 04 05 06 07  08 09 0A 0B 0C 0D 0E 0F
      -- -- -- -- -- -- -- --  -- -- -- -- -- -- -- --
09A0:                03 10 00  07 7F 1A F9 08 66 11 00       ........f..
09B0: F8 FF FF 7F F8 FF FF 7F  74 6C 6B 31 00           ........tlk1.   
```

#### Opcodes

```
  0: 0x09A5 [0x03] ExtData[1]->WorkLocal[16] = Entity->Race
  1: 0x09AA [0x1A] CALL_SUBROUTINE(address=0x08F9)
  2: 0x09AD [0x66] LOAD_EXT_SCHEDULER_MAIN: Load scheduler "tlk1" with entities [EventEntity, EventEntity], work=ExtData[1]->WorkLocal[17]
  3: 0x09BC [0x00] END_REQSTACK()
```

### Event 65535.9

#### Metadata

| Field        | Value    |
|--------------|----------|
| Entrypoint   | 0x09BD   |
| Data Size    | 38 bytes |
| Instructions | 5        |

```
      00 01 02 03 04 05 06 07  08 09 0A 0B 0C 0D 0E 0F
      -- -- -- -- -- -- -- --  -- -- -- -- -- -- -- --
09B0:                                         22 00 2F               "./
09C0: 00 F8 FF FF 7F B6 0B 4E  80 4F 80 50 80 51 80 52  .......N.O.P.Q.R
09D0: 80 52 80 52 80 44 80 53  80 6C F8 FF FF 7F 54 80  .R.R.D.S.l....T.
09E0: 00 80 00                                          ...             
```

#### Opcodes

```
  0: 0x09BD [0x22] ENTITY_HIDE_FLAG(enabled=0x00)
  1: 0x09BF [0x2F] EventEntity->Render.Flags0 &= ~0x80000 // Bit 19
  2: 0x09C5 [0xB6] ENTITY_APPEARANCE_HANDLER(case=Full entity look, race=8*, hair=7*, head=145*, body=79*, hands=76*, legs=76*, feet=76*, main=201*, sub=24*)
  3: 0x09D9 [0x6C] FADE_ENTITY_COLOR(entity_id=EventEntity, end_alpha=32*, fade_time=1*)
  4: 0x09E2 [0x00] END_REQSTACK()
```

### Event 65535.10

#### Metadata

| Field        | Value    |
|--------------|----------|
| Entrypoint   | 0x09E3   |
| Data Size    | 38 bytes |
| Instructions | 5        |

```
      00 01 02 03 04 05 06 07  08 09 0A 0B 0C 0D 0E 0F
      -- -- -- -- -- -- -- --  -- -- -- -- -- -- -- --
09E0:          22 00 2F 00 F8  FF FF 7F B6 0B 4F 80 4F     "./.......O.O
09F0: 80 50 80 51 80 52 80 52  80 52 80 44 80 53 80 6C  .P.Q.R.R.R.D.S.l
0A00: F8 FF FF 7F 55 80 00 80  00                       ....U....       
```

#### Opcodes

```
  0: 0x09E3 [0x22] ENTITY_HIDE_FLAG(enabled=0x00)
  1: 0x09E5 [0x2F] EventEntity->Render.Flags0 &= ~0x80000 // Bit 19
  2: 0x09EB [0xB6] ENTITY_APPEARANCE_HANDLER(case=Full entity look, race=7*, hair=7*, head=145*, body=79*, hands=76*, legs=76*, feet=76*, main=201*, sub=24*)
  3: 0x09FF [0x6C] FADE_ENTITY_COLOR(entity_id=EventEntity, end_alpha=48*, fade_time=1*)
  4: 0x0A08 [0x00] END_REQSTACK()
```

### Event 65535.11

#### Metadata

| Field        | Value    |
|--------------|----------|
| Entrypoint   | 0x0A09   |
| Data Size    | 38 bytes |
| Instructions | 5        |

```
      00 01 02 03 04 05 06 07  08 09 0A 0B 0C 0D 0E 0F
      -- -- -- -- -- -- -- --  -- -- -- -- -- -- -- --
0A00:                             22 00 2F 00 F8 FF FF           "./....
0A10: 7F B6 0B 48 80 4F 80 50  80 51 80 52 80 52 80 52  ...H.O.P.Q.R.R.R
0A20: 80 44 80 53 80 6C F8 FF  FF 7F 56 80 00 80 00     .D.S.l....V.... 
```

#### Opcodes

```
  0: 0x0A09 [0x22] ENTITY_HIDE_FLAG(enabled=0x00)
  1: 0x0A0B [0x2F] EventEntity->Render.Flags0 &= ~0x80000 // Bit 19
  2: 0x0A11 [0xB6] ENTITY_APPEARANCE_HANDLER(case=Full entity look, race=5*, hair=7*, head=145*, body=79*, hands=76*, legs=76*, feet=76*, main=201*, sub=24*)
  3: 0x0A25 [0x6C] FADE_ENTITY_COLOR(entity_id=EventEntity, end_alpha=64*, fade_time=1*)
  4: 0x0A2E [0x00] END_REQSTACK()
```

### Event 65535.12

#### Metadata

| Field        | Value    |
|--------------|----------|
| Entrypoint   | 0x0A2F   |
| Data Size    | 37 bytes |
| Instructions | 5        |

```
      00 01 02 03 04 05 06 07  08 09 0A 0B 0C 0D 0E 0F
      -- -- -- -- -- -- -- --  -- -- -- -- -- -- -- --
0A20:                                               03                 .
0A30: 10 00 07 7F 1A F9 08 66  11 00 F8 FF FF 7F F8 FF  .......f........
0A40: FF 7F 73 69 74 30 53 F8  FF FF 7F F8 FF FF 7F 73  ..sit0S........s
0A50: 69 74 30 00                                       it0.            
```

#### Opcodes

```
  0: 0x0A2F [0x03] ExtData[1]->WorkLocal[16] = Entity->Race
  1: 0x0A34 [0x1A] CALL_SUBROUTINE(address=0x08F9)
  2: 0x0A37 [0x66] LOAD_EXT_SCHEDULER_MAIN: Load scheduler "sit0" with entities [EventEntity, EventEntity], work=ExtData[1]->WorkLocal[17]
  3: 0x0A46 [0x53] WAIT_SCHEDULER_TASK: Wait for scheduler "sit0" with entities [EventEntity, EventEntity]
  4: 0x0A53 [0x00] END_REQSTACK()
```

### Event 65535.13

#### Metadata

| Field        | Value    |
|--------------|----------|
| Entrypoint   | 0x0A54   |
| Data Size    | 37 bytes |
| Instructions | 5        |

```
      00 01 02 03 04 05 06 07  08 09 0A 0B 0C 0D 0E 0F
      -- -- -- -- -- -- -- --  -- -- -- -- -- -- -- --
0A50:             03 10 00 07  7F 1A F9 08 66 11 00 F8      ........f...
0A60: FF FF 7F F8 FF FF 7F 73  69 74 31 53 F8 FF FF 7F  .......sit1S....
0A70: F8 FF FF 7F 73 69 74 31  00                       ....sit1.       
```

#### Opcodes

```
  0: 0x0A54 [0x03] ExtData[1]->WorkLocal[16] = Entity->Race
  1: 0x0A59 [0x1A] CALL_SUBROUTINE(address=0x08F9)
  2: 0x0A5C [0x66] LOAD_EXT_SCHEDULER_MAIN: Load scheduler "sit1" with entities [EventEntity, EventEntity], work=ExtData[1]->WorkLocal[17]
  3: 0x0A6B [0x53] WAIT_SCHEDULER_TASK: Wait for scheduler "sit1" with entities [EventEntity, EventEntity]
  4: 0x0A78 [0x00] END_REQSTACK()
```

### Event 65535.14

#### Metadata

| Field        | Value    |
|--------------|----------|
| Entrypoint   | 0x0A79   |
| Data Size    | 42 bytes |
| Instructions | 6        |

```
      00 01 02 03 04 05 06 07  08 09 0A 0B 0C 0D 0E 0F
      -- -- -- -- -- -- -- --  -- -- -- -- -- -- -- --
0A70:                             03 10 00 07 7F 1A F9           .......
0A80: 08 66 11 00 F8 FF FF 7F  F8 FF FF 7F 74 6C 6B 30  .f..........tlk0
0A90: 1C 06 80 66 11 00 F8 FF  FF 7F F8 FF FF 7F 74 6C  ...f..........tl
0AA0: 6B 31 00                                          k1.             
```

#### Opcodes

```
  0: 0x0A79 [0x03] ExtData[1]->WorkLocal[16] = Entity->Race
  1: 0x0A7E [0x1A] CALL_SUBROUTINE(address=0x08F9)
  2: 0x0A81 [0x66] LOAD_EXT_SCHEDULER_MAIN: Load scheduler "tlk0" with entities [EventEntity, EventEntity], work=ExtData[1]->WorkLocal[17]
  3: 0x0A90 [0x1C] WAIT(60* ticks)
  4: 0x0A93 [0x66] LOAD_EXT_SCHEDULER_MAIN: Load scheduler "tlk1" with entities [EventEntity, EventEntity], work=ExtData[1]->WorkLocal[17]
  5: 0x0AA2 [0x00] END_REQSTACK()
```

### Event 65535.15

#### Metadata

| Field        | Value    |
|--------------|----------|
| Entrypoint   | 0x0AA3   |
| Data Size    | 47 bytes |
| Instructions | 6        |

```
      00 01 02 03 04 05 06 07  08 09 0A 0B 0C 0D 0E 0F
      -- -- -- -- -- -- -- --  -- -- -- -- -- -- -- --
0AA0:          03 10 00 07 7F  1A F9 08 66 11 00 F8 FF     ........f....
0AB0: FF 7F F8 FF FF 7F 73 68  61 31 53 F8 FF FF 7F F8  ......sha1S.....
0AC0: FF FF 7F 73 68 61 31 79  00 F0 FF FF 7F 67 E0 0D  ...sha1y.....g..
0AD0: 01 00                                             ..              
```

#### Opcodes

```
  0: 0x0AA3 [0x03] ExtData[1]->WorkLocal[16] = Entity->Race
  1: 0x0AA8 [0x1A] CALL_SUBROUTINE(address=0x08F9)
  2: 0x0AAB [0x66] LOAD_EXT_SCHEDULER_MAIN: Load scheduler "sha1" with entities [EventEntity, EventEntity], work=ExtData[1]->WorkLocal[17]
  3: 0x0ABA [0x53] WAIT_SCHEDULER_TASK: Wait for scheduler "sha1" with entities [EventEntity, EventEntity]
  4: 0x0AC7 [0x79] LocalPlayer looks at Cait Sith Ceithir (ID: 17686631/0x010DE067) (Basic look)
  5: 0x0AD1 [0x00] END_REQSTACK()
```
