# 17829995 - Moogle

## Common Data

| Field            | Value                     |
|------------------|---------------------------|
| Zone             | Eastern Adoulin (ID: 257) |
| Block Size       | 8516 bytes                |
| Total Events     | 94                        |
| References Count | 176                       |

## List of Events

| Event ID                   | Entrypoint   |   Size |   Instructions |
|----------------------------|--------------|--------|----------------|
| [65535](#event-65535)      | 0x0000       |      1 |              1 |
| [65535.1](#event-655351)   | 0x0001       |     31 |              3 |
| [65535.2](#event-655352)   | 0x0020       |     14 |              2 |
| [65535.3](#event-655353)   | 0x002E       |     14 |              2 |
| [65535.4](#event-655354)   | 0x003C       |     14 |              2 |
| [65535.5](#event-655355)   | 0x004A       |     31 |              3 |
| [65535.6](#event-655356)   | 0x0069       |     14 |              2 |
| [65535.7](#event-655357)   | 0x0077       |     14 |              2 |
| [65535.8](#event-655358)   | 0x0085       |     14 |              2 |
| [65535.9](#event-655359)   | 0x0093       |     31 |              3 |
| [65535.10](#event-6553510) | 0x00B2       |     14 |              2 |
| [65535.11](#event-6553511) | 0x00C0       |     14 |              2 |
| [65535.12](#event-6553512) | 0x00CE       |     14 |              2 |
| [65535.13](#event-6553513) | 0x00DC       |     31 |              3 |
| [65535.14](#event-6553514) | 0x00FB       |     14 |              2 |
| [65535.15](#event-6553515) | 0x0109       |     14 |              2 |
| [65535.16](#event-6553516) | 0x0117       |     14 |              2 |
| [65535.17](#event-6553517) | 0x0125       |     14 |              2 |
| [65535.18](#event-6553518) | 0x0133       |     14 |              2 |
| [65535.19](#event-6553519) | 0x0141       |     14 |              2 |
| [65535.20](#event-6553520) | 0x014F       |     14 |              2 |
| [65535.21](#event-6553521) | 0x015D       |     31 |              3 |
| [65535.22](#event-6553522) | 0x017C       |     14 |              2 |
| [65535.23](#event-6553523) | 0x018A       |     14 |              2 |
| [65535.24](#event-6553524) | 0x0198       |     14 |              2 |
| [65535.25](#event-6553525) | 0x01A6       |    183 |             15 |
| [65535.26](#event-6553526) | 0x025D       |     40 |              4 |
| [65535.27](#event-6553527) | 0x0285       |     14 |              2 |
| [30002](#event-30002)      | 0x0293       |    191 |             35 |
| [30000](#event-30000)      | 0x0352       |    258 |             36 |
| [65535.28](#event-6553528) | 0x0454       |    210 |             38 |
| [65535.29](#event-6553529) | 0x0526       |     54 |             10 |
| [65535.30](#event-6553530) | 0x055C       |     54 |             10 |
| [65535.31](#event-6553531) | 0x0592       |     66 |             16 |
| [65535.32](#event-6553532) | 0x05D4       |     54 |             10 |
| [65535.33](#event-6553533) | 0x060A       |     54 |             10 |
| [65535.34](#event-6553534) | 0x0640       |    122 |             24 |
| [65535.35](#event-6553535) | 0x06BA       |     54 |             10 |
| [65535.36](#event-6553536) | 0x06F0       |      1 |              1 |
| [65535.37](#event-6553537) | 0x06F1       |      1 |              1 |
| [65535.38](#event-6553538) | 0x06F2       |    262 |             46 |
| [65535.39](#event-6553539) | 0x07F8       |     33 |              7 |
| [65535.40](#event-6553540) | 0x0819       |     33 |              7 |
| [65535.41](#event-6553541) | 0x083A       |     33 |              7 |
| [65535.42](#event-6553542) | 0x085B       |     37 |              9 |
| [65535.43](#event-6553543) | 0x0880       |     33 |              7 |
| [65535.44](#event-6553544) | 0x08A1       |      5 |              3 |
| [30001](#event-30001)      | 0x08A6       |     25 |              8 |
| [65535.45](#event-6553545) | 0x08BF       |     33 |              7 |
| [65535.46](#event-6553546) | 0x08E0       |     33 |              7 |
| [30003](#event-30003)      | 0x0901       |    356 |             67 |
| [65535.47](#event-6553547) | 0x0A65       |     37 |              9 |
| [65535.48](#event-6553548) | 0x0A8A       |     37 |              9 |
| [65535.49](#event-6553549) | 0x0AAF       |     37 |              9 |
| [65535.50](#event-6553550) | 0x0AD4       |     37 |              9 |
| [65535.51](#event-6553551) | 0x0AF9       |     37 |              9 |
| [65535.52](#event-6553552) | 0x0B1E       |     37 |              9 |
| [65535.53](#event-6553553) | 0x0B43       |     37 |              9 |
| [65535.54](#event-6553554) | 0x0B68       |     37 |              9 |
| [65535.55](#event-6553555) | 0x0B8D       |     37 |              9 |
| [65535.56](#event-6553556) | 0x0BB2       |     37 |              9 |
| [65535.57](#event-6553557) | 0x0BD7       |     67 |             17 |
| [65535.58](#event-6553558) | 0x0C1A       |     37 |              9 |
| [65535.59](#event-6553559) | 0x0C3F       |     37 |              9 |
| [65535.60](#event-6553560) | 0x0C64       |     37 |              9 |
| [30004](#event-30004)      | 0x0C89       |     62 |             15 |
| [30005](#event-30005)      | 0x0CC7       |    280 |             41 |
| [65535.61](#event-6553561) | 0x0DDF       |     69 |             11 |
| [65535.62](#event-6553562) | 0x0E24       |     33 |              7 |
| [65535.63](#event-6553563) | 0x0E45       |     48 |             12 |
| [30006](#event-30006)      | 0x0E75       |     51 |             16 |
| [30007](#event-30007)      | 0x0EA8       |     48 |             15 |
| [30008](#event-30008)      | 0x0ED8       |    203 |             32 |
| [30009](#event-30009)      | 0x0FA3       |    280 |             41 |
| [65535.64](#event-6553564) | 0x10BB       |     69 |             11 |
| [65535.65](#event-6553565) | 0x1100       |     33 |              7 |
| [65535.66](#event-6553566) | 0x1121       |     48 |             12 |
| [30010](#event-30010)      | 0x1151       |     51 |             16 |
| [30011](#event-30011)      | 0x1184       |     48 |             15 |
| [30012](#event-30012)      | 0x11B4       |    203 |             32 |
| [30013](#event-30013)      | 0x127F       |    406 |             65 |
| [30014](#event-30014)      | 0x1415       |     51 |             16 |
| [30015](#event-30015)      | 0x1448       |     48 |             15 |
| [30016](#event-30016)      | 0x1478       |    203 |             32 |
| [65535.67](#event-6553567) | 0x1543       |    349 |             43 |
| [65535.68](#event-6553568) | 0x16A0       |     61 |             11 |
| [65535.69](#event-6553569) | 0x16DD       |    729 |             87 |
| [65535.70](#event-6553570) | 0x19B6       |    602 |             68 |
| [30017](#event-30017)      | 0x1C10       |     43 |             13 |
| [30018](#event-30018)      | 0x1C3B       |     48 |             14 |
| [30019](#event-30019)      | 0x1C6B       |     48 |             14 |
| [30020](#event-30020)      | 0x1C9B       |     48 |             14 |
| [30021](#event-30021)      | 0x1CCB       |     24 |             12 |
| [30022](#event-30022)      | 0x1CE3       |     22 |             12 |

## DAT References (imed_data)

|   Index | Hex Value   |   Dec Value |
|---------|-------------|-------------|
|       0 | 0x00BC      |         188 |
|       1 | 0x0000      |           0 |
|       2 | 0x0001      |           1 |
|       3 | 0x1D7E      |        7550 |
|       4 | 0x1D7F      |        7551 |
|       5 | 0x00C8      |         200 |
|       6 | 0x003C      |          60 |
|       7 | 0x0064      |         100 |
|       8 | 0x05DC      |        1500 |
|       9 | 0x0417      |        1047 |
|      10 | 0x0013      |          19 |
|      11 | 0x1D60      |        7520 |
|      12 | 0x1D61      |        7521 |
|      13 | 0x1D62      |        7522 |
|      14 | 0x0002      |           2 |
|      15 | 0x0003      |           3 |
|      16 | 0x0004      |           4 |
|      17 | 0x0005      |           5 |
|      18 | 0x0006      |           6 |
|      19 | 0x0007      |           7 |
|      20 | 0x1D63      |        7523 |
|      21 | 0x1D64      |        7524 |
|      22 | 0x1D72      |        7538 |
|      23 | 0x1D73      |        7539 |
|      24 | 0x1D65      |        7525 |
|      25 | 0x1D66      |        7526 |
|      26 | 0x1D67      |        7527 |
|      27 | 0x1D68      |        7528 |
|      28 | 0x1D69      |        7529 |
|      29 | 0x1D6A      |        7530 |
|      30 | 0x1D6C      |        7532 |
|      31 | 0x1D6D      |        7533 |
|      32 | 0x1D6E      |        7534 |
|      33 | 0x1D6F      |        7535 |
|      34 | 0x1D70      |        7536 |
|      35 | 0x1D71      |        7537 |
|      36 | 0x1D9C      |        7580 |
|      37 | 0x1D9D      |        7581 |
|      38 | 0x1D74      |        7540 |
|      39 | 0x1D75      |        7541 |
|      40 | 0x1D76      |        7542 |
|      41 | 0x1D77      |        7543 |
|      42 | 0x1D78      |        7544 |
|      43 | 0x1D79      |        7545 |
|      44 | 0x1D7A      |        7546 |
|      45 | 0x1D7B      |        7547 |
|      46 | 0x1D7C      |        7548 |
|      47 | 0x001E      |          30 |
|      48 | 0x0014      |          20 |
|      49 | 0x1D5A      |        7514 |
|      50 | 0x1D5B      |        7515 |
|      51 | 0x1D5C      |        7516 |
|      52 | 0x1D5D      |        7517 |
|      53 | 0x1D5E      |        7518 |
|      54 | 0x1D5F      |        7519 |
|      55 | 0x1D7D      |        7549 |
|      56 | 0x1D81      |        7553 |
|      57 | 0x1D82      |        7554 |
|      58 | 0x1D84      |        7556 |
|      59 | 0x0008      |           8 |
|      60 | 0x0009      |           9 |
|      61 | 0x000A      |          10 |
|      62 | 0x000B      |          11 |
|      63 | 0x000C      |          12 |
|      64 | 0x000D      |          13 |
|      65 | 0x000E      |          14 |
|      66 | 0x000F      |          15 |
|      67 | 0x1D85      |        7557 |
|      68 | 0x1D86      |        7558 |
|      69 | 0x1D87      |        7559 |
|      70 | 0x1D88      |        7560 |
|      71 | 0x1D89      |        7561 |
|      72 | 0x1D8A      |        7562 |
|      73 | 0x1D8B      |        7563 |
|      74 | 0x1D8C      |        7564 |
|      75 | 0x1D8D      |        7565 |
|      76 | 0x1D8E      |        7566 |
|      77 | 0x1D8F      |        7567 |
|      78 | 0x1D90      |        7568 |
|      79 | 0x1D91      |        7569 |
|      80 | 0x1D92      |        7570 |
|      81 | 0x1D93      |        7571 |
|      82 | 0x1D94      |        7572 |
|      83 | 0x1D95      |        7573 |
|      84 | 0x1D96      |        7574 |
|      85 | 0x1DA7      |        7591 |
|      86 | 0x1DA8      |        7592 |
|      87 | 0x1DB7      |        7607 |
|      88 | 0x0384      |         900 |
|      89 | 0x1DB9      |        7609 |
|      90 | 0x037D      |         893 |
|      91 | 0x1DB8      |        7608 |
|      92 | 0x1D97      |        7575 |
|      93 | 0x1D98      |        7576 |
|      94 | 0x1DBA      |        7610 |
|      95 | 0x1DBB      |        7611 |
|      96 | 0x1DA3      |        7587 |
|      97 | 0x1DA4      |        7588 |
|      98 | 0x1D99      |        7577 |
|      99 | 0x2074      |        8308 |
|     100 | 0x1E0D      |        7693 |
|     101 | 0x1E0E      |        7694 |
|     102 | 0x1E0B      |        7691 |
|     103 | 0x1E0C      |        7692 |
|     104 | 0x1E0F      |        7695 |
|     105 | 0x1E10      |        7696 |
|     106 | 0x1E11      |        7697 |
|     107 | 0x1E12      |        7698 |
|     108 | 0x1E13      |        7699 |
|     109 | 0x1E14      |        7700 |
|     110 | 0x1E15      |        7701 |
|     111 | 0x1E16      |        7702 |
|     112 | 0x1E17      |        7703 |
|     113 | 0x1E18      |        7704 |
|     114 | 0x1E19      |        7705 |
|     115 | 0x00C9      |         201 |
|     116 | 0x1E1D      |        7709 |
|     117 | 0x1E1B      |        7707 |
|     118 | 0x1E1C      |        7708 |
|     119 | 0x1E1E      |        7710 |
|     120 | 0x1E1F      |        7711 |
|     121 | 0x1E20      |        7712 |
|     122 | 0x1E21      |        7713 |
|     123 | 0x1E22      |        7714 |
|     124 | 0x1E23      |        7715 |
|     125 | 0x1E24      |        7716 |
|     126 | 0x1E25      |        7717 |
|     127 | 0x1E26      |        7718 |
|     128 | 0x1E27      |        7719 |
|     129 | 0x1E28      |        7720 |
|     130 | 0x1E2A      |        7722 |
|     131 | 0x1E2B      |        7723 |
|     132 | 0x1E2C      |        7724 |
|     133 | 0x1E2D      |        7725 |
|     134 | 0x1E2E      |        7726 |
|     135 | 0x1E2F      |        7727 |
|     136 | 0x1E30      |        7728 |
|     137 | 0x1E31      |        7729 |
|     138 | 0x1E32      |        7730 |
|     139 | 0x1E33      |        7731 |
|     140 | 0x0045      |          69 |
|     141 | 0xFFFFFBC6  |  4294966214 |
|     142 | 0xFFFFFFF5  |  4294967285 |
|     143 | 0x0BD9      |        3033 |
|     144 | 0x02F7      |         759 |
|     145 | 0x1DF9      |        7673 |
|     146 | 0x1DFA      |        7674 |
|     147 | 0x1DFB      |        7675 |
|     148 | 0x1DFC      |        7676 |
|     149 | 0x1DFD      |        7677 |
|     150 | 0x1DFF      |        7679 |
|     151 | 0x1E00      |        7680 |
|     152 | 0x1E01      |        7681 |
|     153 | 0x1E02      |        7682 |
|     154 | 0x1E03      |        7683 |
|     155 | 0x1E04      |        7684 |
|     156 | 0x1E05      |        7685 |
|     157 | 0x1E06      |        7686 |
|     158 | 0x1E07      |        7687 |
|     159 | 0x0078      |         120 |
|     160 | 0x1E08      |        7688 |
|     161 | 0x1E09      |        7689 |
|     162 | 0x1DFE      |        7678 |
|     163 | 0x1DA5      |        7589 |
|     164 | 0x1DA6      |        7590 |
|     165 | 0x008C      |         140 |
|     166 | 0x1DAC      |        7596 |
|     167 | 0x1DAD      |        7597 |
|     168 | 0x008D      |         141 |
|     169 | 0x009B      |         155 |
|     170 | 0x1DB1      |        7601 |
|     171 | 0x1DB2      |        7602 |
|     172 | 0x1DB3      |        7603 |
|     173 | 0x1DB4      |        7604 |
|     174 | 0x1DB5      |        7605 |
|     175 | 0x1DB6      |        7606 |

## String References

- **7514**: Welcome, Master! This is your home, the "Mog House," kupo!
- **7515**: I'm a moogle! We moogles like taking care of houses and items! Nice to meet you, kupo!
- **7516**: I'll tell you all about your Mog House, kupo!
- **7517**: First, the basics, kupo! Open your main menu, Master. The button at the very bottom changes to "Mog House" when you're in your Mog House, kupo!
- **7518**: Press it and the "Mog House" menu will appear! Everything you can do in your Mog House is there, kupo!
- **7519**: There are lots of things you can do in your Mog House, kupo! It can be too much for some masters, kupo...
- **7520**: So I'll teach you about each one of them! Ask me what you want to know about, kupo!
- **7521**: Choose the Mog House command you want to know about, kupo!
- **7522**: What do you want to know about? [The Mog Safe./Storage./The Delivery Box./Changing jobs./Gardening./Changing the layout./Mog House invitations./I got it, thanks, kupo!]
- **7523**: The Mog Safe is where I keep items that you can't carry! It's an especially secure and solid safe, kupo!
- **7524**: You can only put so many items in it, kupo... But I'll guard them even if it means my life, kupo!
- **7525**: The Delivery Box is where you can send letters to friends and receive items from various places, kupo!
- **7526**: You should take the items from your Delivery Box and put them in your inventory when they arrive, kupo!
- **7527**: If your Delivery Box is full, no more deliveries can be made, and you can't send any mail either, kupo!
- **7528**: You can send items and gil to your friends with the "Send" command, kupo!
- **7529**: (Sometimes, if a special force takes hold, you can even deliver items with the "Exclusive" attribute, kupo...!)
- **7530**: Changing people's jobs is a secret ability only we moogles can use, kupo!
- **7532**: And...the rest is a secret, kupo!
- **7533**: All moogles like taking care of plants, kupo!
- **7534**: As long as you have a flowerpot and seeds, I'll make it my personal responsibility to look after the plants you raise, kupo!
- **7535**: This Mog House is your very own room, kupo! But it's still a little bare, kupo...
- **7536**: It needs some furniture and maybe some paintings to make it more cozy, kupo!
- **7537**: If you find any during your travels, I'll help you lay them out, kupo! I can't wait, kupo!
- **7538**: Storage space becomes available when you place furniture in your Mog House using the "Layout" command, kupo!
- **7539**: It's almost exactly the same as using your Mog Safe, kupo! Leave your items here for me to look after, kupo!
- **7540**: You can invite party and alliance members into your Mog House, kupo!
- **7541**: You can show off your expensive furniture, have tea parties, plan your next great adventure--the possibilities are endless, kupo!
- **7542**: Are you sure, kupo? You know everything about your Mog House, kupo?
- **7543**: Are you sure? [I'm sure!/Maybe I'm not so sure...]
- **7544**: And finally, a little bit of advice!
- **7545**: If you ever run into any problems, just ask your fellow adventurers for help!
- **7546**: If you type "/ae Hello!", then your message will be heard by many people.
- **7547**: If you type "/ae" followed by your issue or question, other adventurers will help you!
- **7548**: Remember that you can only do this while in town, kupo!
- **7549**: Okay, kupo! Good luck on your adventuring, kupo!
- **7550**: Do you want me to teach you about your Mog House again, kupo?
- **7551**: Ask about your Mog House again? [Don't ask./Ask.]
- **7553**: Master! I traveled all the way here at your bidding, kupo! Even a Rent-a-Room needs a moogle, kupo!
- **7554**: But there are a few things you can't do in a Rent-a-Room, kupo. Select "Mog House" from the main menu and check, kupo!
- **7556**: Master! I have something to tell you, kupo!
- **7557**: I found this precious item under the $3 pillow, kupo!
- **7558**: It's all yours, kupo!
- **7559**: I used the $3 to write a song for you, kupo!
- **7560**: Here, kupo! Please think of the lonely moogle waiting for you back home when you hear this song, kupo!
- **7561**: I found this item in the back of one of the $3's drawers, kupo!
- **7562**: It's all yours, kupo!
- **7563**: I found this in the back of the $3, kupo!
- **7564**: It must be a gift from the heavens, kupo! Here, take it, kupo!
- **7565**: I found this item inside the $3, kupo!
- **7566**: Luck is on your side, kupo! Take it, kupo!
- **7567**: I fished this item out of the $3, kupo!
- **7568**: It was very hard work, kupo... I'm very tired, kupo...
- **7569**: I found this behind the $3 painting, kupo!
- **7570**: This must be what they mean when they say, there are many mysteries behind works of art, kupo! It's all yours, kupo!
- **7571**: Something clattered inside the $3 when I shook it! Look what fell out when I turned it upside down, kupo!
- **7572**: It's all yours, kupo!
- **7573**: I felt there was something strange about the $3, and when I looked into it, I found this, kupo!
- **7574**: We moogles have very good intuition, kupo! It's all yours, kupo!
- **7575**: Oh, Master! You won't believe what I found out on the doorstep this morning, kupo!
- **7576**: At once so glorious and so ghastly, and just for you! Think of it as a holiday gift from a humble moogle to his favorite (and only) master, kupo!
- **7577**: For your own safety, it is recommended you set the Mog House exit as your home point after changing jobs.
- **7580**: Each item of furniture you place using the "Layout" command corresponds to a different element, kupo! The type of energy that envelops your Mog House changes depending on those elements, kupo!
- **7581**: When that energy changes, my powers change as well, kupo! Master, you should try placing all sorts of furniture in your Mog House, kupo!
- **7587**: I found $6 inside the $3, kupo!
- **7588**: Kupo...? I sense that this $3 is very, very special! You should go to the store where you bought it and ask about it, kupo!
- **7589**: Master! Master! Look what I found underneath the $3 this morning, kupo!
- **7590**: It has been wrapped and everything! I wonder who it could be from, kupo!
- **7591**: Look what I found in your $3!
- **7592**: You seem quite dehydrated lately, so maybe you should have it. I'll try putting some more grapes in the barrel and see if I can make any more, kupo!
- **7596**: Master, Master! I found this in the $3, kupo!
- **7597**: It must be a present from the smilebringers. Here, you should have it, kupo!
- **7601**: Master! What [an egg-ceptional specimen/egg-ceptional specimens] you have there! Now, if you'll just let me have a look-see, kupo...
- **7602**: We egg-tach this thingamajig to that thingamabob, just like so, kupo...
- **7603**: Now for the coup d'egg-grace...!
- **7604**: Voila! Isn't she a beauty, kupo? Utterly egg-squisite workmanship, I do degg-clare!
- **7605**: We egg-stract this doodad from that doohickey, just like so, kupo...
- **7606**: Voila! Your original egg-redients, entirely egg-tact, kupo! If you change your mind, just trade them back to me or one of my moogle egg-sociates!
- **7607**: Oh, Master, look at this! I was poking around in the drawers of your $3, when this $4 just popped out! I guess you never know what you're going to find until you look for it, kupo!
- **7608**: Isn't the aroma positively scrumptious? It's all yours, kupo! Consider it a present for being the magnificent master that you are!
- **7609**: Here, I want you to have it. In fact, I insist, kupo! Consider it a present for being the magnificent master that you are!
- **7610**: Look at what I found while cleaning out the $3: $4!
- **7611**: Here, I want you to have it. In fact, I insist, kupo! Consider it a present for being the magnificent master that you are!
- **7673**: Hang on! I have an amazing announcement!
- **7674**: The hallowed halls of your house are even more exciting! Why? Because now there's a second floor, kupo!
- **7675**: But before you bash your way in, I've got a trifling task for you to tackle.
- **7676**: Capricious Mithra cubs have cajoled critical information out of the M.H.M.U., and I want you to wrest it from them!
- **7677**: Visit the three nations and question them, kupo!
- **7678**: Now you know the nitty-gritty, so enjoy your new floor, kupo!
- **7679**: Kupopo? You mean you already know?
- **7680**: Magnificent and marvelous! Then proceed without delay!
- **7681**: Enjoy extra space to store your sundries!
- **7682**: Remodel your room to fit your finicky tastes!
- **7683**: Incorporate ostentatious overseas objects! All this and more!
- **7684**: But only on the second floor, kupo. I like the first floor as it is.
- **7685**: And as for your potted plants--they only persevere on the ground, kupo.
- **7686**: And moghancement effects only activate for furnishings fitted to the first floor.
- **7687**: Wish we could help more, but we spend enormous amounts of energy on one floor already!
- **7688**: Go forth and frolic in your new abode, kupo!
- **7689**: You can access the antechambers from the front door. Enjoy!
- **7691**: Master, Master! I have a favor to ask, kupo!
- **7692**: Sleeping on that $3 has made me homesick, kupo. Will my benevolent master give [his/her] moogle some time off to visit with Mama and Papa Moogle, kupo?
- **7693**: Give your moogle a vacationH [Sure, kupo! /No, your time is mine!]
- **7694**: Oh, what a cruel, cruel master, kupo!!!
- **7695**: Thank you, kupo! I...have one more favor to ask. It's almost time for the festival in the moogles' hometown, kupo!
- **7696**: Papa Moogle will be entering the archery contest, so I want to bring him $5 as a gift, kupo!
- **7697**: Mama Moogle always likes to dress up for the occasion, and $6 would make the perfect present, kupo!
- **7698**: But I have no idea how to go about finding $5 or $6, kupo... I can't go home empty-handed, kupo...
- **7699**: Papa Moogle will be entering the archery contest, so I want to bring him $5 as a gift, kupo!
- **7700**: Mama Moogle always likes to dress up for the occasion, and $6 would make the perfect present, kupo!
- **7701**: But I have no idea how to go about finding $5 or $6, kupo... I can't go home empty-handed, kupo...
- **7702**: Master! I'm overwhelmed by your kindness, kupo!!!
- **7703**: I'll bring you a nice present from the moogles' hometown, kupo! I'll be back in a few days, kupo!
- **7704**: Master! I'm back from my vacation, kupo!
- **7705**: Here's your present--a shiny new Mog Safe, kupo! Now you can store as many as 60 items, kupo!
- **7707**: Master, Master! I have a favor to ask, kupo!
- **7708**: Sleeping on that $3 has made me homesick, kupo. Will my benevolent master give [his/her] moogle some time off to visit with Mama and Papa Moogle, kupo?
- **7709**: Give your moogle a vacationH [Sure, kupo! /No, your time is mine!]
- **7710**: Thank you, kupo! I have one more favor to ask... I want to take my family on a picnic, kupo!
- **7711**: Papa Moogle is mad for fishing, so I want to give him $5, kupo!
- **7712**: Mama Moogle would bake a scrumptious mooglepie to take with us, but she'd need $6, kupo!
- **7713**: But...I haven't the foggiest idea of how to get either of these things, kupo... Whatever am I to do, kupo?
- **7714**: Papa Mog is mad for fishing, so I want to give him $5, kupo!
- **7715**: Mama Moogle would bake a scrumptious mooglepie to take with us, but she'd need $6, kupo!
- **7716**: But...I haven't the foggiest idea of how to get either of these things, kupo... Whatever am I to do, kupo?
- **7717**: Master! I'm overwhelmed by your kindness, kupo!!!
- **7718**: I'll bring you a nice present from the moogles' hometown, kupo! I'll be back in a few days, kupo!
- **7719**: Master! I'm back from my vacation, kupo!
- **7720**: Here's your present--the behemoth of Mog Safes, kupo! Now you can store as many as 70 items, kupo!
- **7722**: Master, Master! I have a favor to ask, kupo!
- **7723**: After resting on the $3, I noticed a letter had arrived from some old moogle friends, kupo! Will my magnanimous master give me some time off to go visit my old buddies?
- **7724**: Give your moogle some time off? [Have fun, kupo!/No, I am your only friend now!]
- **7725**: Oh, thank you, master! My moogle friends live across the seas, so I have another favor to ask you, kupo!
- **7726**: The sun beats down mercilessly in the land beyond the west sea, so I need to take $5 for my friends there, kupo!
- **7727**: And my other buddies need $6 for the torrential rains that scour the lands across the east sea, kupo!
- **7728**: I can't help out my friends if I don't have $5 and $6, kupo...
- **7729**: I'll be sure to bring you a souvenir from my overseas trip, kupo! See you in a few days, master!
- **7730**: Master! I'm back from visiting my old moogle friends, kupo!
- **7731**: We all got together and made you a new Mog Safe, kupo! Now you can store as many as 80 items, kupo!
- **8308**: Set this as current home point? [Yes./No.]

## Events

### Event 65535

#### Metadata

| Field        | Value   |
|--------------|---------|
| Entrypoint   | 0x0000  |
| Data Size    | 1 bytes |
| Instructions | 1       |

```
      00 01 02 03 04 05 06 07  08 09 0A 0B 0C 0D 0E 0F
      -- -- -- -- -- -- -- --  -- -- -- -- -- -- -- --
0000: 00                                                .               
```

#### Opcodes

```
  0: 0x0000 [0x00] END_REQSTACK()
```

### Event 65535.1

#### Metadata

| Field        | Value    |
|--------------|----------|
| Entrypoint   | 0x0001   |
| Data Size    | 31 bytes |
| Instructions | 3        |

```
      00 01 02 03 04 05 06 07  08 09 0A 0B 0C 0D 0E 0F
      -- -- -- -- -- -- -- --  -- -- -- -- -- -- -- --
0000:    45 00 80 F0 FF FF 7F  F0 FF FF 7F 73 30 30 36   E..........s006
0010: 01 80 2C F8 FF FF 7F F8  FF FF 7F 74 6C 6B 30 00  ..,........tlk0.
```

#### Opcodes

```
  0: 0x0001 [0x45] LOAD_SCHEDULED_TASK: Load scheduler "s006" with entities [LocalPlayer, LocalPlayer], work=[188*, 0*]
  1: 0x0012 [0x2C] CREATE_SCHEDULER_TASK: Create scheduler "tlk0" with entities [EventEntity, EventEntity]
  2: 0x001F [0x00] END_REQSTACK()
```

### Event 65535.2

#### Metadata

| Field        | Value    |
|--------------|----------|
| Entrypoint   | 0x0020   |
| Data Size    | 14 bytes |
| Instructions | 2        |

```
      00 01 02 03 04 05 06 07  08 09 0A 0B 0C 0D 0E 0F
      -- -- -- -- -- -- -- --  -- -- -- -- -- -- -- --
0020: 53 F8 FF FF 7F F8 FF FF  7F 74 6C 6B 30 00        S........tlk0.  
```

#### Opcodes

```
  0: 0x0020 [0x53] WAIT_SCHEDULER_TASK: Wait for scheduler "tlk0" with entities [EventEntity, EventEntity]
  1: 0x002D [0x00] END_REQSTACK()
```

### Event 65535.3

#### Metadata

| Field        | Value    |
|--------------|----------|
| Entrypoint   | 0x002E   |
| Data Size    | 14 bytes |
| Instructions | 2        |

```
      00 01 02 03 04 05 06 07  08 09 0A 0B 0C 0D 0E 0F
      -- -- -- -- -- -- -- --  -- -- -- -- -- -- -- --
0020:                                            2C F8                ,.
0030: FF FF 7F F8 FF FF 7F 74  6C 6B 31 00              .......tlk1.    
```

#### Opcodes

```
  0: 0x002E [0x2C] CREATE_SCHEDULER_TASK: Create scheduler "tlk1" with entities [EventEntity, EventEntity]
  1: 0x003B [0x00] END_REQSTACK()
```

### Event 65535.4

#### Metadata

| Field        | Value    |
|--------------|----------|
| Entrypoint   | 0x003C   |
| Data Size    | 14 bytes |
| Instructions | 2        |

```
      00 01 02 03 04 05 06 07  08 09 0A 0B 0C 0D 0E 0F
      -- -- -- -- -- -- -- --  -- -- -- -- -- -- -- --
0030:                                      53 F8 FF FF              S...
0040: 7F F8 FF FF 7F 74 6C 6B  31 00                    .....tlk1.      
```

#### Opcodes

```
  0: 0x003C [0x53] WAIT_SCHEDULER_TASK: Wait for scheduler "tlk1" with entities [EventEntity, EventEntity]
  1: 0x0049 [0x00] END_REQSTACK()
```

### Event 65535.5

#### Metadata

| Field        | Value    |
|--------------|----------|
| Entrypoint   | 0x004A   |
| Data Size    | 31 bytes |
| Instructions | 3        |

```
      00 01 02 03 04 05 06 07  08 09 0A 0B 0C 0D 0E 0F
      -- -- -- -- -- -- -- --  -- -- -- -- -- -- -- --
0040:                                45 00 80 F0 FF FF            E.....
0050: 7F F0 FF FF 7F 73 30 30  38 01 80 2C F8 FF FF 7F  .....s008..,....
0060: F8 FF FF 7F 67 61 6B 30  00                       ....gak0.       
```

#### Opcodes

```
  0: 0x004A [0x45] LOAD_SCHEDULED_TASK: Load scheduler "s008" with entities [LocalPlayer, LocalPlayer], work=[188*, 0*]
  1: 0x005B [0x2C] CREATE_SCHEDULER_TASK: Create scheduler "gak0" with entities [EventEntity, EventEntity]
  2: 0x0068 [0x00] END_REQSTACK()
```

### Event 65535.6

#### Metadata

| Field        | Value    |
|--------------|----------|
| Entrypoint   | 0x0069   |
| Data Size    | 14 bytes |
| Instructions | 2        |

```
      00 01 02 03 04 05 06 07  08 09 0A 0B 0C 0D 0E 0F
      -- -- -- -- -- -- -- --  -- -- -- -- -- -- -- --
0060:                             53 F8 FF FF 7F F8 FF           S......
0070: FF 7F 67 61 6B 30 00                              ..gak0.         
```

#### Opcodes

```
  0: 0x0069 [0x53] WAIT_SCHEDULER_TASK: Wait for scheduler "gak0" with entities [EventEntity, EventEntity]
  1: 0x0076 [0x00] END_REQSTACK()
```

### Event 65535.7

#### Metadata

| Field        | Value    |
|--------------|----------|
| Entrypoint   | 0x0077   |
| Data Size    | 14 bytes |
| Instructions | 2        |

```
      00 01 02 03 04 05 06 07  08 09 0A 0B 0C 0D 0E 0F
      -- -- -- -- -- -- -- --  -- -- -- -- -- -- -- --
0070:                      2C  F8 FF FF 7F F8 FF FF 7F         ,........
0080: 67 61 6B 31 00                                    gak1.           
```

#### Opcodes

```
  0: 0x0077 [0x2C] CREATE_SCHEDULER_TASK: Create scheduler "gak1" with entities [EventEntity, EventEntity]
  1: 0x0084 [0x00] END_REQSTACK()
```

### Event 65535.8

#### Metadata

| Field        | Value    |
|--------------|----------|
| Entrypoint   | 0x0085   |
| Data Size    | 14 bytes |
| Instructions | 2        |

```
      00 01 02 03 04 05 06 07  08 09 0A 0B 0C 0D 0E 0F
      -- -- -- -- -- -- -- --  -- -- -- -- -- -- -- --
0080:                53 F8 FF  FF 7F F8 FF FF 7F 67 61       S........ga
0090: 6B 31 00                                          k1.             
```

#### Opcodes

```
  0: 0x0085 [0x53] WAIT_SCHEDULER_TASK: Wait for scheduler "gak1" with entities [EventEntity, EventEntity]
  1: 0x0092 [0x00] END_REQSTACK()
```

### Event 65535.9

#### Metadata

| Field        | Value    |
|--------------|----------|
| Entrypoint   | 0x0093   |
| Data Size    | 31 bytes |
| Instructions | 3        |

```
      00 01 02 03 04 05 06 07  08 09 0A 0B 0C 0D 0E 0F
      -- -- -- -- -- -- -- --  -- -- -- -- -- -- -- --
0090:          45 00 80 F0 FF  FF 7F F0 FF FF 7F 73 30     E..........s0
00A0: 30 39 01 80 2C F8 FF FF  7F F8 FF FF 7F 6A 6F 62  09..,........job
00B0: 30 00                                             0.              
```

#### Opcodes

```
  0: 0x0093 [0x45] LOAD_SCHEDULED_TASK: Load scheduler "s009" with entities [LocalPlayer, LocalPlayer], work=[188*, 0*]
  1: 0x00A4 [0x2C] CREATE_SCHEDULER_TASK: Create scheduler "job0" with entities [EventEntity, EventEntity]
  2: 0x00B1 [0x00] END_REQSTACK()
```

### Event 65535.10

#### Metadata

| Field        | Value    |
|--------------|----------|
| Entrypoint   | 0x00B2   |
| Data Size    | 14 bytes |
| Instructions | 2        |

```
      00 01 02 03 04 05 06 07  08 09 0A 0B 0C 0D 0E 0F
      -- -- -- -- -- -- -- --  -- -- -- -- -- -- -- --
00B0:       53 F8 FF FF 7F F8  FF FF 7F 6A 6F 62 30 00    S........job0.
```

#### Opcodes

```
  0: 0x00B2 [0x53] WAIT_SCHEDULER_TASK: Wait for scheduler "job0" with entities [EventEntity, EventEntity]
  1: 0x00BF [0x00] END_REQSTACK()
```

### Event 65535.11

#### Metadata

| Field        | Value    |
|--------------|----------|
| Entrypoint   | 0x00C0   |
| Data Size    | 14 bytes |
| Instructions | 2        |

```
      00 01 02 03 04 05 06 07  08 09 0A 0B 0C 0D 0E 0F
      -- -- -- -- -- -- -- --  -- -- -- -- -- -- -- --
00C0: 2C F8 FF FF 7F F8 FF FF  7F 6A 6F 62 31 00        ,........job1.  
```

#### Opcodes

```
  0: 0x00C0 [0x2C] CREATE_SCHEDULER_TASK: Create scheduler "job1" with entities [EventEntity, EventEntity]
  1: 0x00CD [0x00] END_REQSTACK()
```

### Event 65535.12

#### Metadata

| Field        | Value    |
|--------------|----------|
| Entrypoint   | 0x00CE   |
| Data Size    | 14 bytes |
| Instructions | 2        |

```
      00 01 02 03 04 05 06 07  08 09 0A 0B 0C 0D 0E 0F
      -- -- -- -- -- -- -- --  -- -- -- -- -- -- -- --
00C0:                                            53 F8                S.
00D0: FF FF 7F F8 FF FF 7F 6A  6F 62 31 00              .......job1.    
```

#### Opcodes

```
  0: 0x00CE [0x53] WAIT_SCHEDULER_TASK: Wait for scheduler "job1" with entities [EventEntity, EventEntity]
  1: 0x00DB [0x00] END_REQSTACK()
```

### Event 65535.13

#### Metadata

| Field        | Value    |
|--------------|----------|
| Entrypoint   | 0x00DC   |
| Data Size    | 31 bytes |
| Instructions | 3        |

```
      00 01 02 03 04 05 06 07  08 09 0A 0B 0C 0D 0E 0F
      -- -- -- -- -- -- -- --  -- -- -- -- -- -- -- --
00D0:                                      45 00 80 F0              E...
00E0: FF FF 7F F0 FF FF 7F 73  30 30 35 01 80 2C F8 FF  .......s005..,..
00F0: FF 7F F8 FF FF 7F 68 61  70 30 00                 ......hap0.     
```

#### Opcodes

```
  0: 0x00DC [0x45] LOAD_SCHEDULED_TASK: Load scheduler "s005" with entities [LocalPlayer, LocalPlayer], work=[188*, 0*]
  1: 0x00ED [0x2C] CREATE_SCHEDULER_TASK: Create scheduler "hap0" with entities [EventEntity, EventEntity]
  2: 0x00FA [0x00] END_REQSTACK()
```

### Event 65535.14

#### Metadata

| Field        | Value    |
|--------------|----------|
| Entrypoint   | 0x00FB   |
| Data Size    | 14 bytes |
| Instructions | 2        |

```
      00 01 02 03 04 05 06 07  08 09 0A 0B 0C 0D 0E 0F
      -- -- -- -- -- -- -- --  -- -- -- -- -- -- -- --
00F0:                                   53 F8 FF FF 7F             S....
0100: F8 FF FF 7F 68 61 70 30  00                       ....hap0.       
```

#### Opcodes

```
  0: 0x00FB [0x53] WAIT_SCHEDULER_TASK: Wait for scheduler "hap0" with entities [EventEntity, EventEntity]
  1: 0x0108 [0x00] END_REQSTACK()
```

### Event 65535.15

#### Metadata

| Field        | Value    |
|--------------|----------|
| Entrypoint   | 0x0109   |
| Data Size    | 14 bytes |
| Instructions | 2        |

```
      00 01 02 03 04 05 06 07  08 09 0A 0B 0C 0D 0E 0F
      -- -- -- -- -- -- -- --  -- -- -- -- -- -- -- --
0100:                             2C F8 FF FF 7F F8 FF           ,......
0110: FF 7F 68 61 70 31 00                              ..hap1.         
```

#### Opcodes

```
  0: 0x0109 [0x2C] CREATE_SCHEDULER_TASK: Create scheduler "hap1" with entities [EventEntity, EventEntity]
  1: 0x0116 [0x00] END_REQSTACK()
```

### Event 65535.16

#### Metadata

| Field        | Value    |
|--------------|----------|
| Entrypoint   | 0x0117   |
| Data Size    | 14 bytes |
| Instructions | 2        |

```
      00 01 02 03 04 05 06 07  08 09 0A 0B 0C 0D 0E 0F
      -- -- -- -- -- -- -- --  -- -- -- -- -- -- -- --
0110:                      53  F8 FF FF 7F F8 FF FF 7F         S........
0120: 68 61 70 31 00                                    hap1.           
```

#### Opcodes

```
  0: 0x0117 [0x53] WAIT_SCHEDULER_TASK: Wait for scheduler "hap1" with entities [EventEntity, EventEntity]
  1: 0x0124 [0x00] END_REQSTACK()
```

### Event 65535.17

#### Metadata

| Field        | Value    |
|--------------|----------|
| Entrypoint   | 0x0125   |
| Data Size    | 14 bytes |
| Instructions | 2        |

```
      00 01 02 03 04 05 06 07  08 09 0A 0B 0C 0D 0E 0F
      -- -- -- -- -- -- -- --  -- -- -- -- -- -- -- --
0120:                2C F8 FF  FF 7F F8 FF FF 7F 6E 65       ,........ne
0130: 77 30 00                                          w0.             
```

#### Opcodes

```
  0: 0x0125 [0x2C] CREATE_SCHEDULER_TASK: Create scheduler "new0" with entities [EventEntity, EventEntity]
  1: 0x0132 [0x00] END_REQSTACK()
```

### Event 65535.18

#### Metadata

| Field        | Value    |
|--------------|----------|
| Entrypoint   | 0x0133   |
| Data Size    | 14 bytes |
| Instructions | 2        |

```
      00 01 02 03 04 05 06 07  08 09 0A 0B 0C 0D 0E 0F
      -- -- -- -- -- -- -- --  -- -- -- -- -- -- -- --
0130:          53 F8 FF FF 7F  F8 FF FF 7F 6E 65 77 30     S........new0
0140: 00                                                .               
```

#### Opcodes

```
  0: 0x0133 [0x53] WAIT_SCHEDULER_TASK: Wait for scheduler "new0" with entities [EventEntity, EventEntity]
  1: 0x0140 [0x00] END_REQSTACK()
```

### Event 65535.19

#### Metadata

| Field        | Value    |
|--------------|----------|
| Entrypoint   | 0x0141   |
| Data Size    | 14 bytes |
| Instructions | 2        |

```
      00 01 02 03 04 05 06 07  08 09 0A 0B 0C 0D 0E 0F
      -- -- -- -- -- -- -- --  -- -- -- -- -- -- -- --
0140:    2C F8 FF FF 7F F8 FF  FF 7F 6E 65 77 31 00      ,........new1. 
```

#### Opcodes

```
  0: 0x0141 [0x2C] CREATE_SCHEDULER_TASK: Create scheduler "new1" with entities [EventEntity, EventEntity]
  1: 0x014E [0x00] END_REQSTACK()
```

### Event 65535.20

#### Metadata

| Field        | Value    |
|--------------|----------|
| Entrypoint   | 0x014F   |
| Data Size    | 14 bytes |
| Instructions | 2        |

```
      00 01 02 03 04 05 06 07  08 09 0A 0B 0C 0D 0E 0F
      -- -- -- -- -- -- -- --  -- -- -- -- -- -- -- --
0140:                                               53                 S
0150: F8 FF FF 7F F8 FF FF 7F  6E 65 77 31 00           ........new1.   
```

#### Opcodes

```
  0: 0x014F [0x53] WAIT_SCHEDULER_TASK: Wait for scheduler "new1" with entities [EventEntity, EventEntity]
  1: 0x015C [0x00] END_REQSTACK()
```

### Event 65535.21

#### Metadata

| Field        | Value    |
|--------------|----------|
| Entrypoint   | 0x015D   |
| Data Size    | 31 bytes |
| Instructions | 3        |

```
      00 01 02 03 04 05 06 07  08 09 0A 0B 0C 0D 0E 0F
      -- -- -- -- -- -- -- --  -- -- -- -- -- -- -- --
0150:                                         45 00 80               E..
0160: F0 FF FF 7F F0 FF FF 7F  73 30 30 37 01 80 2C F8  ........s007..,.
0170: FF FF 7F F8 FF FF 7F 65  78 70 30 00              .......exp0.    
```

#### Opcodes

```
  0: 0x015D [0x45] LOAD_SCHEDULED_TASK: Load scheduler "s007" with entities [LocalPlayer, LocalPlayer], work=[188*, 0*]
  1: 0x016E [0x2C] CREATE_SCHEDULER_TASK: Create scheduler "exp0" with entities [EventEntity, EventEntity]
  2: 0x017B [0x00] END_REQSTACK()
```

### Event 65535.22

#### Metadata

| Field        | Value    |
|--------------|----------|
| Entrypoint   | 0x017C   |
| Data Size    | 14 bytes |
| Instructions | 2        |

```
      00 01 02 03 04 05 06 07  08 09 0A 0B 0C 0D 0E 0F
      -- -- -- -- -- -- -- --  -- -- -- -- -- -- -- --
0170:                                      53 F8 FF FF              S...
0180: 7F F8 FF FF 7F 65 78 70  30 00                    .....exp0.      
```

#### Opcodes

```
  0: 0x017C [0x53] WAIT_SCHEDULER_TASK: Wait for scheduler "exp0" with entities [EventEntity, EventEntity]
  1: 0x0189 [0x00] END_REQSTACK()
```

### Event 65535.23

#### Metadata

| Field        | Value    |
|--------------|----------|
| Entrypoint   | 0x018A   |
| Data Size    | 14 bytes |
| Instructions | 2        |

```
      00 01 02 03 04 05 06 07  08 09 0A 0B 0C 0D 0E 0F
      -- -- -- -- -- -- -- --  -- -- -- -- -- -- -- --
0180:                                2C F8 FF FF 7F F8            ,.....
0190: FF FF 7F 65 78 70 31 00                           ...exp1.        
```

#### Opcodes

```
  0: 0x018A [0x2C] CREATE_SCHEDULER_TASK: Create scheduler "exp1" with entities [EventEntity, EventEntity]
  1: 0x0197 [0x00] END_REQSTACK()
```

### Event 65535.24

#### Metadata

| Field        | Value    |
|--------------|----------|
| Entrypoint   | 0x0198   |
| Data Size    | 14 bytes |
| Instructions | 2        |

```
      00 01 02 03 04 05 06 07  08 09 0A 0B 0C 0D 0E 0F
      -- -- -- -- -- -- -- --  -- -- -- -- -- -- -- --
0190:                          53 F8 FF FF 7F F8 FF FF          S.......
01A0: 7F 65 78 70 31 00                                 .exp1.          
```

#### Opcodes

```
  0: 0x0198 [0x53] WAIT_SCHEDULER_TASK: Wait for scheduler "exp1" with entities [EventEntity, EventEntity]
  1: 0x01A5 [0x00] END_REQSTACK()
```

### Event 65535.25

#### Metadata

| Field        | Value     |
|--------------|-----------|
| Entrypoint   | 0x01A6    |
| Data Size    | 183 bytes |
| Instructions | 15        |

```
      00 01 02 03 04 05 06 07  08 09 0A 0B 0C 0D 0E 0F
      -- -- -- -- -- -- -- --  -- -- -- -- -- -- -- --
01A0:                   2C F8  FF FF 7F F8 FF FF 7F 64        ,........d
01B0: 61 6E 30 53 F8 FF FF 7F  F8 FF FF 7F 64 61 6E 30  an0S........dan0
01C0: 2C F8 FF FF 7F F8 FF FF  7F 64 61 6E 30 53 F8 FF  ,........dan0S..
01D0: FF 7F F8 FF FF 7F 64 61  6E 30 2C F8 FF FF 7F F8  ......dan0,.....
01E0: FF FF 7F 64 61 6E 31 53  F8 FF FF 7F F8 FF FF 7F  ...dan1S........
01F0: 64 61 6E 31 2C F8 FF FF  7F F8 FF FF 7F 64 61 6E  dan1,........dan
0200: 30 53 F8 FF FF 7F F8 FF  FF 7F 64 61 6E 30 2C F8  0S........dan0,.
0210: FF FF 7F F8 FF FF 7F 64  61 6E 30 53 F8 FF FF 7F  .......dan0S....
0220: F8 FF FF 7F 64 61 6E 30  2C F8 FF FF 7F F8 FF FF  ....dan0,.......
0230: 7F 64 61 6E 32 53 F8 FF  FF 7F F8 FF FF 7F 64 61  .dan2S........da
0240: 6E 32 2C F8 FF FF 7F F8  FF FF 7F 64 61 6E 33 53  n2,........dan3S
0250: F8 FF FF 7F F8 FF FF 7F  64 61 6E 33 00           ........dan3.   
```

#### Opcodes

```
  0: 0x01A6 [0x2C] CREATE_SCHEDULER_TASK: Create scheduler "dan0" with entities [EventEntity, EventEntity]
  1: 0x01B3 [0x53] WAIT_SCHEDULER_TASK: Wait for scheduler "dan0" with entities [EventEntity, EventEntity]
  2: 0x01C0 [0x2C] CREATE_SCHEDULER_TASK: Create scheduler "dan0" with entities [EventEntity, EventEntity]
  3: 0x01CD [0x53] WAIT_SCHEDULER_TASK: Wait for scheduler "dan0" with entities [EventEntity, EventEntity]
  4: 0x01DA [0x2C] CREATE_SCHEDULER_TASK: Create scheduler "dan1" with entities [EventEntity, EventEntity]
  5: 0x01E7 [0x53] WAIT_SCHEDULER_TASK: Wait for scheduler "dan1" with entities [EventEntity, EventEntity]
  6: 0x01F4 [0x2C] CREATE_SCHEDULER_TASK: Create scheduler "dan0" with entities [EventEntity, EventEntity]
  7: 0x0201 [0x53] WAIT_SCHEDULER_TASK: Wait for scheduler "dan0" with entities [EventEntity, EventEntity]
  8: 0x020E [0x2C] CREATE_SCHEDULER_TASK: Create scheduler "dan0" with entities [EventEntity, EventEntity]
  9: 0x021B [0x53] WAIT_SCHEDULER_TASK: Wait for scheduler "dan0" with entities [EventEntity, EventEntity]
 10: 0x0228 [0x2C] CREATE_SCHEDULER_TASK: Create scheduler "dan2" with entities [EventEntity, EventEntity]
 11: 0x0235 [0x53] WAIT_SCHEDULER_TASK: Wait for scheduler "dan2" with entities [EventEntity, EventEntity]
 12: 0x0242 [0x2C] CREATE_SCHEDULER_TASK: Create scheduler "dan3" with entities [EventEntity, EventEntity]
 13: 0x024F [0x53] WAIT_SCHEDULER_TASK: Wait for scheduler "dan3" with entities [EventEntity, EventEntity]
 14: 0x025C [0x00] END_REQSTACK()
```

### Event 65535.26

#### Metadata

| Field        | Value    |
|--------------|----------|
| Entrypoint   | 0x025D   |
| Data Size    | 40 bytes |
| Instructions | 4        |

```
      00 01 02 03 04 05 06 07  08 09 0A 0B 0C 0D 0E 0F
      -- -- -- -- -- -- -- --  -- -- -- -- -- -- -- --
0250:                                         2C F8 FF               ,..
0260: FF 7F F8 FF FF 7F 64 61  6E 33 53 F8 FF FF 7F F8  ......dan3S.....
0270: FF FF 7F 64 61 6E 33 2C  F8 FF FF 7F F8 FF FF 7F  ...dan3,........
0280: 64 61 65 33 00                                    dae3.           
```

#### Opcodes

```
  0: 0x025D [0x2C] CREATE_SCHEDULER_TASK: Create scheduler "dan3" with entities [EventEntity, EventEntity]
  1: 0x026A [0x53] WAIT_SCHEDULER_TASK: Wait for scheduler "dan3" with entities [EventEntity, EventEntity]
  2: 0x0277 [0x2C] CREATE_SCHEDULER_TASK: Create scheduler "dae3" with entities [EventEntity, EventEntity]
  3: 0x0284 [0x00] END_REQSTACK()
```

### Event 65535.27

#### Metadata

| Field        | Value    |
|--------------|----------|
| Entrypoint   | 0x0285   |
| Data Size    | 14 bytes |
| Instructions | 2        |

```
      00 01 02 03 04 05 06 07  08 09 0A 0B 0C 0D 0E 0F
      -- -- -- -- -- -- -- --  -- -- -- -- -- -- -- --
0280:                53 F8 FF  FF 7F F8 FF FF 7F 64 61       S........da
0290: 65 33 00                                          e3.             
```

#### Opcodes

```
  0: 0x0285 [0x53] WAIT_SCHEDULER_TASK: Wait for scheduler "dae3" with entities [EventEntity, EventEntity]
  1: 0x0292 [0x00] END_REQSTACK()
```

### Event 30002

#### Metadata

| Field        | Value     |
|--------------|-----------|
| Entrypoint   | 0x0293    |
| Data Size    | 191 bytes |
| Instructions | 32        |

```
      00 01 02 03 04 05 06 07  08 09 0A 0B 0C 0D 0E 0F
      -- -- -- -- -- -- -- --  -- -- -- -- -- -- -- --
0290:          03 00 00 01 80  03 01 00 02 80 1E F0 FF     .............
02A0: FF 7F 6F 70 1D 03 80 23  24 04 80 01 80 01 80 25  ..op...#$......%
02B0: 02 00 10 01 80 00 BF 02  20 00 21 00 01 CA 02 02  ........ .!.....
02C0: 00 10 02 80 00 CA 02 01  CA 02 20 01 42 46 01 45  .......... .BF.E
02D0: 05 80 F8 FF FF 7F F8 FF  FF 7F 66 64 6F 30 01 80  ..........fdo0..
02E0: 1C 06 80 29 0B F0 FF FF  7F 98 7B F0 FF FF 7F 37  ...)......{....7
02F0: 07 80 08 80 01 80 09 80  45 00 80 F8 FF FF 7F F8  ........E.......
0300: FF FF 7F 73 30 30 30 01  80 45 05 80 F8 FF FF 7F  ...s000..E......
0310: F8 FF FF 7F 66 64 69 30  01 80 29 0E 6B 10 10 01  ....fdi0..).k...
0320: 1E 45 05 80 F8 FF FF 7F  F8 FF FF 7F 66 64 6F 30  .E..........fdo0
0330: 01 80 1C 06 80 4E 00 F0  FF FF 7F 46 00 45 05 80  .....N.....F.E..
0340: F8 FF FF 7F F8 FF FF 7F  66 64 69 30 01 80 20 00  ........fdi0.. .
0350: 21 00                                             !.              
```

#### Opcodes

```
  0: 0x0293 [0x03] ExtData[1]->WorkLocal[0] = 0*
  1: 0x0298 [0x03] ExtData[1]->WorkLocal[1] = 1*
  2: 0x029D [0x1E] EventEntity looks at LocalPlayer and starts talking
  3: 0x02A2 [0x6F] WAIT_FRAME_DELAY: Yield until WaitTime reaches zero
  4: 0x02A3 [0x70] WAIT_ENTITY_RENDER_FLAG: Wait while EventEntity->Render.Flags3 bit 2 is set (cancel turn if not)
  5: 0x02A4 [0x1D] PRINT_EVENT_MESSAGE(message_id=7550*)
    → "Do you want me to teach you about your Mog House again, kupo?"
  6: 0x02A7 [0x23] WAIT_FOR_DIALOG_INTERACTION
  7: 0x02A8 [0x24] CREATE_DIALOG(message_id=7551*, default_option=0*, option_flags=0*)
    → "Ask about your Mog House again? [Don't ask./Ask.]"
  8: 0x02AF [0x25] WAIT_DIALOG_SELECT()
  9: 0x02B0 [0x02] IF !(Work_Zone[0] == 0*) GOTO 0x02BF
 10: 0x02B8 [0x20] SET_CLI_EVENT_UC_FLAG: Unlock player control
 11: 0x02BA [0x21] END_EVENT
 12: 0x02BB [0x00] END_REQSTACK()

SUBROUTINE_02CA:
 13: 0x02CA [0x20] SET_CLI_EVENT_UC_FLAG: Lock player control
 14: 0x02CC [0x42] SET_CLI_EVENT_CANCEL_DATA()
 15: 0x02CD [0x46] CAMERA_CONTROL: Disable user control
 16: 0x02CF [0x45] LOAD_SCHEDULED_TASK: Load scheduler "fdo0" with entities [EventEntity, EventEntity], work=[200*, 0*]
 17: 0x02E0 [0x1C] WAIT(60* ticks)
 18: 0x02E3 [0x29] REQ_SET_WAIT(priority=0x0B, entity_id=LocalPlayer, tag_num=0x98)
 19: 0x02EA [0x7B] LocalPlayer stops talking
 20: 0x02EF [0x37] UPDATE_EVENT_POSITION_AND_DIR: x=0.100*, z=1.500*, y=0.000*, direction=92.0°*
 21: 0x02F8 [0x45] LOAD_SCHEDULED_TASK: Load scheduler "s000" with entities [EventEntity, EventEntity], work=[188*, 0*]
 22: 0x0309 [0x45] LOAD_SCHEDULED_TASK: Load scheduler "fdi0" with entities [EventEntity, EventEntity], work=[200*, 0*]
 23: 0x031A [0x29] REQ_SET_WAIT(priority=0x0E, entity_id=Moogle (ID: 17829995/0x0110106B), tag_num=0x1E)
 24: 0x0321 [0x45] LOAD_SCHEDULED_TASK: Load scheduler "fdo0" with entities [EventEntity, EventEntity], work=[200*, 0*]
 25: 0x0332 [0x1C] WAIT(60* ticks)
 26: 0x0335 [0x4E] SET_ENTITY_HIDE_FLAG: Show LocalPlayer
 27: 0x033B [0x46] CAMERA_CONTROL: Restore default settings
 28: 0x033D [0x45] LOAD_SCHEDULED_TASK: Load scheduler "fdi0" with entities [EventEntity, EventEntity], work=[200*, 0*]
 29: 0x034E [0x20] SET_CLI_EVENT_UC_FLAG: Unlock player control
 30: 0x0350 [0x21] END_EVENT
 31: 0x0351 [0x00] END_REQSTACK()
```

#### Data or dead code:

```
# Dead code (unreachable instructions):
     0x02BC [0x01] GOTO 0x02CA
```

### Event 30000

#### Metadata

| Field        | Value     |
|--------------|-----------|
| Entrypoint   | 0x0352    |
| Data Size    | 258 bytes |
| Instructions | 36        |

```
      00 01 02 03 04 05 06 07  08 09 0A 0B 0C 0D 0E 0F
      -- -- -- -- -- -- -- --  -- -- -- -- -- -- -- --
0350:       20 01 42 46 01 03  00 00 01 80 03 01 00 01     .BF..........
0360: 80 1E F0 FF FF 7F 6F 70  45 05 80 6B 10 10 01 6B  ......opE..k...k
0370: 10 10 01 66 64 6F 30 01  80 1C 06 80 38 0A 80 94  ...fdo0.....8...
0380: 01 F0 FF FF 7F 94 01 F8  FF FF 7F 4E 00 F0 FF FF  ...........N....
0390: 7F 29 0B F0 FF FF 7F 98  7B F0 FF FF 7F 37 07 80  .)......{....7..
03A0: 08 80 01 80 09 80 45 00  80 6B 10 10 01 6B 10 10  ......E..k...k..
03B0: 01 73 30 30 30 01 80 45  05 80 6B 10 10 01 6B 10  .s000..E..k...k.
03C0: 10 01 66 64 69 30 01 80  29 0E 6B 10 10 01 29 29  ..fdi0..).k...))
03D0: 0E 6B 10 10 01 2A 29 0E  6B 10 10 01 2B 45 00 80  .k...*).k...+E..
03E0: F8 FF FF 7F F8 FF FF 7F  73 30 30 32 01 80 29 0E  ........s002..).
03F0: 6B 10 10 01 2C 52 00 80  F8 FF FF 7F F8 FF FF 7F  k...,R..........
0400: 73 30 30 32 45 00 80 F8  FF FF 7F F8 FF FF 7F 73  s002E..........s
0410: 30 30 31 01 80 29 0E 6B  10 10 01 2D 29 0E 6B 10  001..).k...-).k.
0420: 10 01 1E 45 05 80 F8 FF  FF 7F F8 FF FF 7F 66 64  ...E..........fd
0430: 6F 30 01 80 1C 06 80 4E  00 F0 FF FF 7F 46 00 45  o0.....N.....F.E
0440: 05 80 F8 FF FF 7F F8 FF  FF 7F 66 64 69 30 01 80  ..........fdi0..
0450: 20 00 21 00                                        .!.            
```

#### Opcodes

```
  0: 0x0352 [0x20] SET_CLI_EVENT_UC_FLAG: Lock player control
  1: 0x0354 [0x42] SET_CLI_EVENT_CANCEL_DATA()
  2: 0x0355 [0x46] CAMERA_CONTROL: Disable user control
  3: 0x0357 [0x03] ExtData[1]->WorkLocal[0] = 0*
  4: 0x035C [0x03] ExtData[1]->WorkLocal[1] = 0*
  5: 0x0361 [0x1E] EventEntity looks at LocalPlayer and starts talking
  6: 0x0366 [0x6F] WAIT_FRAME_DELAY: Yield until WaitTime reaches zero
  7: 0x0367 [0x70] WAIT_ENTITY_RENDER_FLAG: Wait while EventEntity->Render.Flags3 bit 2 is set (cancel turn if not)
  8: 0x0368 [0x45] LOAD_SCHEDULED_TASK: Load scheduler "fdo0" with entities [Moogle (ID: 17829995/0x0110106B), Moogle (ID: 17829995/0x0110106B)], work=[200*, 0*]
  9: 0x0379 [0x1C] WAIT(60* ticks)
 10: 0x037C [0x38] SET_CLIENT_EVENT_MODE(mode=19*)
 11: 0x037F [0x94] LocalPlayer->Render.Flags3 ^= 0x01
 12: 0x0385 [0x94] EventEntity->Render.Flags3 ^= 0x01
 13: 0x038B [0x4E] SET_ENTITY_HIDE_FLAG: Show LocalPlayer
 14: 0x0391 [0x29] REQ_SET_WAIT(priority=0x0B, entity_id=LocalPlayer, tag_num=0x98)
 15: 0x0398 [0x7B] LocalPlayer stops talking
 16: 0x039D [0x37] UPDATE_EVENT_POSITION_AND_DIR: x=0.100*, z=1.500*, y=0.000*, direction=92.0°*
 17: 0x03A6 [0x45] LOAD_SCHEDULED_TASK: Load scheduler "s000" with entities [Moogle (ID: 17829995/0x0110106B), Moogle (ID: 17829995/0x0110106B)], work=[188*, 0*]
 18: 0x03B7 [0x45] LOAD_SCHEDULED_TASK: Load scheduler "fdi0" with entities [Moogle (ID: 17829995/0x0110106B), Moogle (ID: 17829995/0x0110106B)], work=[200*, 0*]
 19: 0x03C8 [0x29] REQ_SET_WAIT(priority=0x0E, entity_id=Moogle (ID: 17829995/0x0110106B), tag_num=0x29)
 20: 0x03CF [0x29] REQ_SET_WAIT(priority=0x0E, entity_id=Moogle (ID: 17829995/0x0110106B), tag_num=0x2A)
 21: 0x03D6 [0x29] REQ_SET_WAIT(priority=0x0E, entity_id=Moogle (ID: 17829995/0x0110106B), tag_num=0x2B)
 22: 0x03DD [0x45] LOAD_SCHEDULED_TASK: Load scheduler "s002" with entities [EventEntity, EventEntity], work=[188*, 0*]
 23: 0x03EE [0x29] REQ_SET_WAIT(priority=0x0E, entity_id=Moogle (ID: 17829995/0x0110106B), tag_num=0x2C)
 24: 0x03F5 [0x52] END_LOAD_SCHEDULER: End scheduler "s002" with entities [EventEntity, EventEntity], work=188*
 25: 0x0404 [0x45] LOAD_SCHEDULED_TASK: Load scheduler "s001" with entities [EventEntity, EventEntity], work=[188*, 0*]
 26: 0x0415 [0x29] REQ_SET_WAIT(priority=0x0E, entity_id=Moogle (ID: 17829995/0x0110106B), tag_num=0x2D)
 27: 0x041C [0x29] REQ_SET_WAIT(priority=0x0E, entity_id=Moogle (ID: 17829995/0x0110106B), tag_num=0x1E)
 28: 0x0423 [0x45] LOAD_SCHEDULED_TASK: Load scheduler "fdo0" with entities [EventEntity, EventEntity], work=[200*, 0*]
 29: 0x0434 [0x1C] WAIT(60* ticks)
 30: 0x0437 [0x4E] SET_ENTITY_HIDE_FLAG: Show LocalPlayer
 31: 0x043D [0x46] CAMERA_CONTROL: Restore default settings
 32: 0x043F [0x45] LOAD_SCHEDULED_TASK: Load scheduler "fdi0" with entities [EventEntity, EventEntity], work=[200*, 0*]
 33: 0x0450 [0x20] SET_CLI_EVENT_UC_FLAG: Unlock player control
 34: 0x0452 [0x21] END_EVENT
 35: 0x0453 [0x00] END_REQSTACK()
```

### Event 65535.28

#### Metadata

| Field        | Value     |
|--------------|-----------|
| Entrypoint   | 0x0454    |
| Data Size    | 210 bytes |
| Instructions | 38        |

```
      00 01 02 03 04 05 06 07  08 09 0A 0B 0C 0D 0E 0F
      -- -- -- -- -- -- -- --  -- -- -- -- -- -- -- --
0450:             02 00 00 01  80 00 25 05 45 00 80 F8      ......%.E...
0460: FF FF 7F F8 FF FF 7F 73  30 30 31 01 80 02 01 00  .......s001.....
0470: 01 80 00 81 04 03 01 00  02 80 1D 0B 80 23 01 85  .............#..
0480: 04 1D 0C 80 23 24 0D 80  01 80 01 80 25 02 00 10  ....#$......%...
0490: 01 80 00 9F 04 29 0B 6B  10 10 01 1F 01 22 05 02  .....).k....."..
04A0: 00 10 02 80 00 B1 04 29  0B 6B 10 10 01 20 01 22  .......).k... ."
04B0: 05 02 00 10 0E 80 00 C3  04 29 0B 6B 10 10 01 21  .........).k...!
04C0: 01 22 05 02 00 10 0F 80  00 D5 04 29 0B 6B 10 10  .".........).k..
04D0: 01 22 01 22 05 02 00 10  10 80 00 E7 04 29 0B 6B  .".".........).k
04E0: 10 10 01 23 01 22 05 02  00 10 11 80 00 F9 04 29  ...#.".........)
04F0: 0B 6B 10 10 01 24 01 22  05 02 00 10 12 80 00 0B  .k...$."........
0500: 05 29 0B 6B 10 10 01 25  01 22 05 02 00 10 13 80  .).k...%."......
0510: 00 22 05 03 00 00 02 80  29 0B 6B 10 10 01 28 01  ."......).k...(.
0520: 22 05 01 54 04 00                                 "..T..          
```

#### Opcodes

```
  0: 0x0454 [0x02] IF !(ExtData[1]->WorkLocal[0] == 0*) GOTO 0x0525
  1: 0x045C [0x45] LOAD_SCHEDULED_TASK: Load scheduler "s001" with entities [EventEntity, EventEntity], work=[188*, 0*]
  2: 0x046D [0x02] IF !(ExtData[1]->WorkLocal[1] == 0*) GOTO 0x0481
  3: 0x0475 [0x03] ExtData[1]->WorkLocal[1] = 1*
  4: 0x047A [0x1D] PRINT_EVENT_MESSAGE(message_id=7520*)
    → "So I'll teach you about each one of them! Ask me what you want to know about, kupo!"
  5: 0x047D [0x23] WAIT_FOR_DIALOG_INTERACTION
  6: 0x047E [0x01] GOTO 0x0485
  7: 0x0481 [0x1D] PRINT_EVENT_MESSAGE(message_id=7521*)
    → "Choose the Mog House command you want to know about, kupo!"
  8: 0x0484 [0x23] WAIT_FOR_DIALOG_INTERACTION

SUBROUTINE_0485:
  9: 0x0485 [0x24] CREATE_DIALOG(message_id=7522*, default_option=0*, option_flags=0*)
    → "What do you want to know about? [The Mog Safe./Storage./The Delivery Box./Changing jobs./Gardening./Changing the layout./Mog House invitations./I got it, thanks, kupo!]"
 10: 0x048C [0x25] WAIT_DIALOG_SELECT()
 11: 0x048D [0x02] IF !(Work_Zone[0] == 0*) GOTO 0x049F
 12: 0x0495 [0x29] REQ_SET_WAIT(priority=0x0B, entity_id=Moogle (ID: 17829995/0x0110106B), tag_num=0x1F)
 13: 0x049C [0x01] GOTO 0x0522
 14: 0x049F [0x02] IF !(Work_Zone[0] == 1*) GOTO 0x04B1
 15: 0x04A7 [0x29] REQ_SET_WAIT(priority=0x0B, entity_id=Moogle (ID: 17829995/0x0110106B), tag_num=0x20)
 16: 0x04AE [0x01] GOTO 0x0522
 17: 0x04B1 [0x02] IF !(Work_Zone[0] == 2*) GOTO 0x04C3
 18: 0x04B9 [0x29] REQ_SET_WAIT(priority=0x0B, entity_id=Moogle (ID: 17829995/0x0110106B), tag_num=0x21)
 19: 0x04C0 [0x01] GOTO 0x0522
 20: 0x04C3 [0x02] IF !(Work_Zone[0] == 3*) GOTO 0x04D5
 21: 0x04CB [0x29] REQ_SET_WAIT(priority=0x0B, entity_id=Moogle (ID: 17829995/0x0110106B), tag_num=0x22)
 22: 0x04D2 [0x01] GOTO 0x0522
 23: 0x04D5 [0x02] IF !(Work_Zone[0] == 4*) GOTO 0x04E7
 24: 0x04DD [0x29] REQ_SET_WAIT(priority=0x0B, entity_id=Moogle (ID: 17829995/0x0110106B), tag_num=0x23)
 25: 0x04E4 [0x01] GOTO 0x0522
 26: 0x04E7 [0x02] IF !(Work_Zone[0] == 5*) GOTO 0x04F9
 27: 0x04EF [0x29] REQ_SET_WAIT(priority=0x0B, entity_id=Moogle (ID: 17829995/0x0110106B), tag_num=0x24)
 28: 0x04F6 [0x01] GOTO 0x0522
 29: 0x04F9 [0x02] IF !(Work_Zone[0] == 6*) GOTO 0x050B
 30: 0x0501 [0x29] REQ_SET_WAIT(priority=0x0B, entity_id=Moogle (ID: 17829995/0x0110106B), tag_num=0x25)
 31: 0x0508 [0x01] GOTO 0x0522
 32: 0x050B [0x02] IF !(Work_Zone[0] == 7*) GOTO 0x0522
 33: 0x0513 [0x03] ExtData[1]->WorkLocal[0] = 1*
 34: 0x0518 [0x29] REQ_SET_WAIT(priority=0x0B, entity_id=Moogle (ID: 17829995/0x0110106B), tag_num=0x28)
 35: 0x051F [0x01] GOTO 0x0522

SUBROUTINE_0522:
 36: 0x0522 [0x01] GOTO 0x0454
 37: 0x0525 [0x00] END_REQSTACK()
```

### Event 65535.29

#### Metadata

| Field        | Value    |
|--------------|----------|
| Entrypoint   | 0x0526   |
| Data Size    | 54 bytes |
| Instructions | 10       |

```
      00 01 02 03 04 05 06 07  08 09 0A 0B 0C 0D 0E 0F
      -- -- -- -- -- -- -- --  -- -- -- -- -- -- -- --
0520:                   45 00  80 F8 FF FF 7F F8 FF FF        E.........
0530: 7F 73 30 30 30 01 80 29  08 6B 10 10 01 15 1D 14  .s000..).k......
0540: 80 23 1D 15 80 23 29 08  6B 10 10 01 16 29 08 6B  .#...#).k....).k
0550: 10 10 01 17 29 08 6B 10  10 01 16 00              ....).k.....    
```

#### Opcodes

```
  0: 0x0526 [0x45] LOAD_SCHEDULED_TASK: Load scheduler "s000" with entities [EventEntity, EventEntity], work=[188*, 0*]
  1: 0x0537 [0x29] REQ_SET_WAIT(priority=0x08, entity_id=Moogle (ID: 17829995/0x0110106B), tag_num=0x15)
  2: 0x053E [0x1D] PRINT_EVENT_MESSAGE(message_id=7523*)
    → "The Mog Safe is where I keep items that you can't carry! It's an especially secure and solid safe, kupo!"
  3: 0x0541 [0x23] WAIT_FOR_DIALOG_INTERACTION
  4: 0x0542 [0x1D] PRINT_EVENT_MESSAGE(message_id=7524*)
    → "You can only put so many items in it, kupo... But I'll guard them even if it means my life, kupo!"
  5: 0x0545 [0x23] WAIT_FOR_DIALOG_INTERACTION
  6: 0x0546 [0x29] REQ_SET_WAIT(priority=0x08, entity_id=Moogle (ID: 17829995/0x0110106B), tag_num=0x16)
  7: 0x054D [0x29] REQ_SET_WAIT(priority=0x08, entity_id=Moogle (ID: 17829995/0x0110106B), tag_num=0x17)
  8: 0x0554 [0x29] REQ_SET_WAIT(priority=0x08, entity_id=Moogle (ID: 17829995/0x0110106B), tag_num=0x16)
  9: 0x055B [0x00] END_REQSTACK()
```

### Event 65535.30

#### Metadata

| Field        | Value    |
|--------------|----------|
| Entrypoint   | 0x055C   |
| Data Size    | 54 bytes |
| Instructions | 10       |

```
      00 01 02 03 04 05 06 07  08 09 0A 0B 0C 0D 0E 0F
      -- -- -- -- -- -- -- --  -- -- -- -- -- -- -- --
0550:                                      45 00 80 F8              E...
0560: FF FF 7F F8 FF FF 7F 73  30 30 30 01 80 29 08 6B  .......s000..).k
0570: 10 10 01 15 1D 16 80 23  1D 17 80 23 29 08 6B 10  .......#...#).k.
0580: 10 01 16 29 08 6B 10 10  01 17 29 08 6B 10 10 01  ...).k....).k...
0590: 16 00                                             ..              
```

#### Opcodes

```
  0: 0x055C [0x45] LOAD_SCHEDULED_TASK: Load scheduler "s000" with entities [EventEntity, EventEntity], work=[188*, 0*]
  1: 0x056D [0x29] REQ_SET_WAIT(priority=0x08, entity_id=Moogle (ID: 17829995/0x0110106B), tag_num=0x15)
  2: 0x0574 [0x1D] PRINT_EVENT_MESSAGE(message_id=7538*)
    → "Storage space becomes available when you place furniture in your Mog House using the "Layout" command, kupo!"
  3: 0x0577 [0x23] WAIT_FOR_DIALOG_INTERACTION
  4: 0x0578 [0x1D] PRINT_EVENT_MESSAGE(message_id=7539*)
    → "It's almost exactly the same as using your Mog Safe, kupo! Leave your items here for me to look after, kupo!"
  5: 0x057B [0x23] WAIT_FOR_DIALOG_INTERACTION
  6: 0x057C [0x29] REQ_SET_WAIT(priority=0x08, entity_id=Moogle (ID: 17829995/0x0110106B), tag_num=0x16)
  7: 0x0583 [0x29] REQ_SET_WAIT(priority=0x08, entity_id=Moogle (ID: 17829995/0x0110106B), tag_num=0x17)
  8: 0x058A [0x29] REQ_SET_WAIT(priority=0x08, entity_id=Moogle (ID: 17829995/0x0110106B), tag_num=0x16)
  9: 0x0591 [0x00] END_REQSTACK()
```

### Event 65535.31

#### Metadata

| Field        | Value    |
|--------------|----------|
| Entrypoint   | 0x0592   |
| Data Size    | 66 bytes |
| Instructions | 16       |

```
      00 01 02 03 04 05 06 07  08 09 0A 0B 0C 0D 0E 0F
      -- -- -- -- -- -- -- --  -- -- -- -- -- -- -- --
0590:       45 00 80 F8 FF FF  7F F8 FF FF 7F 73 30 30    E..........s00
05A0: 30 01 80 29 08 6B 10 10  01 15 1D 18 80 23 1D 19  0..).k.......#..
05B0: 80 23 1D 1A 80 23 1D 1B  80 23 1D 1C 80 23 29 08  .#...#...#...#).
05C0: 6B 10 10 01 16 29 08 6B  10 10 01 17 29 08 6B 10  k....).k....).k.
05D0: 10 01 16 00                                       ....            
```

#### Opcodes

```
  0: 0x0592 [0x45] LOAD_SCHEDULED_TASK: Load scheduler "s000" with entities [EventEntity, EventEntity], work=[188*, 0*]
  1: 0x05A3 [0x29] REQ_SET_WAIT(priority=0x08, entity_id=Moogle (ID: 17829995/0x0110106B), tag_num=0x15)
  2: 0x05AA [0x1D] PRINT_EVENT_MESSAGE(message_id=7525*)
    → "The Delivery Box is where you can send letters to friends and receive items from various places, kupo!"
  3: 0x05AD [0x23] WAIT_FOR_DIALOG_INTERACTION
  4: 0x05AE [0x1D] PRINT_EVENT_MESSAGE(message_id=7526*)
    → "You should take the items from your Delivery Box and put them in your inventory when they arrive, kupo!"
  5: 0x05B1 [0x23] WAIT_FOR_DIALOG_INTERACTION
  6: 0x05B2 [0x1D] PRINT_EVENT_MESSAGE(message_id=7527*)
    → "If your Delivery Box is full, no more deliveries can be made, and you can't send any mail either, kupo!"
  7: 0x05B5 [0x23] WAIT_FOR_DIALOG_INTERACTION
  8: 0x05B6 [0x1D] PRINT_EVENT_MESSAGE(message_id=7528*)
    → "You can send items and gil to your friends with the "Send" command, kupo!"
  9: 0x05B9 [0x23] WAIT_FOR_DIALOG_INTERACTION
 10: 0x05BA [0x1D] PRINT_EVENT_MESSAGE(message_id=7529*)
    → "(Sometimes, if a special force takes hold, you can even deliver items with the "Exclusive" attribute, kupo...!)"
 11: 0x05BD [0x23] WAIT_FOR_DIALOG_INTERACTION
 12: 0x05BE [0x29] REQ_SET_WAIT(priority=0x08, entity_id=Moogle (ID: 17829995/0x0110106B), tag_num=0x16)
 13: 0x05C5 [0x29] REQ_SET_WAIT(priority=0x08, entity_id=Moogle (ID: 17829995/0x0110106B), tag_num=0x17)
 14: 0x05CC [0x29] REQ_SET_WAIT(priority=0x08, entity_id=Moogle (ID: 17829995/0x0110106B), tag_num=0x16)
 15: 0x05D3 [0x00] END_REQSTACK()
```

### Event 65535.32

#### Metadata

| Field        | Value    |
|--------------|----------|
| Entrypoint   | 0x05D4   |
| Data Size    | 54 bytes |
| Instructions | 10       |

```
      00 01 02 03 04 05 06 07  08 09 0A 0B 0C 0D 0E 0F
      -- -- -- -- -- -- -- --  -- -- -- -- -- -- -- --
05D0:             45 00 80 F8  FF FF 7F F8 FF FF 7F 73      E..........s
05E0: 30 30 30 01 80 29 08 6B  10 10 01 15 1D 1D 80 23  000..).k.......#
05F0: 1D 1E 80 23 29 08 6B 10  10 01 16 29 08 6B 10 10  ...#).k....).k..
0600: 01 17 29 08 6B 10 10 01  16 00                    ..).k.....      
```

#### Opcodes

```
  0: 0x05D4 [0x45] LOAD_SCHEDULED_TASK: Load scheduler "s000" with entities [EventEntity, EventEntity], work=[188*, 0*]
  1: 0x05E5 [0x29] REQ_SET_WAIT(priority=0x08, entity_id=Moogle (ID: 17829995/0x0110106B), tag_num=0x15)
  2: 0x05EC [0x1D] PRINT_EVENT_MESSAGE(message_id=7530*)
    → "Changing people's jobs is a secret ability only we moogles can use, kupo!"
  3: 0x05EF [0x23] WAIT_FOR_DIALOG_INTERACTION
  4: 0x05F0 [0x1D] PRINT_EVENT_MESSAGE(message_id=7532*)
    → "And...the rest is a secret, kupo!"
  5: 0x05F3 [0x23] WAIT_FOR_DIALOG_INTERACTION
  6: 0x05F4 [0x29] REQ_SET_WAIT(priority=0x08, entity_id=Moogle (ID: 17829995/0x0110106B), tag_num=0x16)
  7: 0x05FB [0x29] REQ_SET_WAIT(priority=0x08, entity_id=Moogle (ID: 17829995/0x0110106B), tag_num=0x17)
  8: 0x0602 [0x29] REQ_SET_WAIT(priority=0x08, entity_id=Moogle (ID: 17829995/0x0110106B), tag_num=0x16)
  9: 0x0609 [0x00] END_REQSTACK()
```

### Event 65535.33

#### Metadata

| Field        | Value    |
|--------------|----------|
| Entrypoint   | 0x060A   |
| Data Size    | 54 bytes |
| Instructions | 10       |

```
      00 01 02 03 04 05 06 07  08 09 0A 0B 0C 0D 0E 0F
      -- -- -- -- -- -- -- --  -- -- -- -- -- -- -- --
0600:                                45 00 80 F8 FF FF            E.....
0610: 7F F8 FF FF 7F 73 30 30  30 01 80 29 08 6B 10 10  .....s000..).k..
0620: 01 0D 1D 1F 80 23 1D 20  80 23 29 08 6B 10 10 01  .....#. .#).k...
0630: 0E 29 08 6B 10 10 01 0F  29 08 6B 10 10 01 10 00  .).k....).k.....
```

#### Opcodes

```
  0: 0x060A [0x45] LOAD_SCHEDULED_TASK: Load scheduler "s000" with entities [EventEntity, EventEntity], work=[188*, 0*]
  1: 0x061B [0x29] REQ_SET_WAIT(priority=0x08, entity_id=Moogle (ID: 17829995/0x0110106B), tag_num=0x0D)
  2: 0x0622 [0x1D] PRINT_EVENT_MESSAGE(message_id=7533*)
    → "All moogles like taking care of plants, kupo!"
  3: 0x0625 [0x23] WAIT_FOR_DIALOG_INTERACTION
  4: 0x0626 [0x1D] PRINT_EVENT_MESSAGE(message_id=7534*)
    → "As long as you have a flowerpot and seeds, I'll make it my personal responsibility to look after the plants you raise, kupo!"
  5: 0x0629 [0x23] WAIT_FOR_DIALOG_INTERACTION
  6: 0x062A [0x29] REQ_SET_WAIT(priority=0x08, entity_id=Moogle (ID: 17829995/0x0110106B), tag_num=0x0E)
  7: 0x0631 [0x29] REQ_SET_WAIT(priority=0x08, entity_id=Moogle (ID: 17829995/0x0110106B), tag_num=0x0F)
  8: 0x0638 [0x29] REQ_SET_WAIT(priority=0x08, entity_id=Moogle (ID: 17829995/0x0110106B), tag_num=0x10)
  9: 0x063F [0x00] END_REQSTACK()
```

### Event 65535.34

#### Metadata

| Field        | Value     |
|--------------|-----------|
| Entrypoint   | 0x0640    |
| Data Size    | 122 bytes |
| Instructions | 24        |

```
      00 01 02 03 04 05 06 07  08 09 0A 0B 0C 0D 0E 0F
      -- -- -- -- -- -- -- --  -- -- -- -- -- -- -- --
0640: 45 00 80 F8 FF FF 7F F8  FF FF 7F 73 30 30 30 01  E..........s000.
0650: 80 29 08 6B 10 10 01 15  1D 21 80 23 29 08 6B 10  .).k.....!.#).k.
0660: 10 01 15 29 08 6B 10 10  01 17 1D 22 80 23 29 08  ...).k.....".#).
0670: 6B 10 10 01 18 29 08 6B  10 10 01 0D 1D 23 80 23  k....).k.....#.#
0680: 29 08 6B 10 10 01 0E 29  08 6B 10 10 01 0F 1D 24  ).k....).k.....$
0690: 80 23 29 08 6B 10 10 01  10 29 08 6B 10 10 01 15  .#).k....).k....
06A0: 1D 25 80 23 29 08 6B 10  10 01 15 29 08 6B 10 10  .%.#).k....).k..
06B0: 01 17 29 08 6B 10 10 01  18 00                    ..).k.....      
```

#### Opcodes

```
  0: 0x0640 [0x45] LOAD_SCHEDULED_TASK: Load scheduler "s000" with entities [EventEntity, EventEntity], work=[188*, 0*]
  1: 0x0651 [0x29] REQ_SET_WAIT(priority=0x08, entity_id=Moogle (ID: 17829995/0x0110106B), tag_num=0x15)
  2: 0x0658 [0x1D] PRINT_EVENT_MESSAGE(message_id=7535*)
    → "This Mog House is your very own room, kupo! But it's still a little bare, kupo..."
  3: 0x065B [0x23] WAIT_FOR_DIALOG_INTERACTION
  4: 0x065C [0x29] REQ_SET_WAIT(priority=0x08, entity_id=Moogle (ID: 17829995/0x0110106B), tag_num=0x15)
  5: 0x0663 [0x29] REQ_SET_WAIT(priority=0x08, entity_id=Moogle (ID: 17829995/0x0110106B), tag_num=0x17)
  6: 0x066A [0x1D] PRINT_EVENT_MESSAGE(message_id=7536*)
    → "It needs some furniture and maybe some paintings to make it more cozy, kupo!"
  7: 0x066D [0x23] WAIT_FOR_DIALOG_INTERACTION
  8: 0x066E [0x29] REQ_SET_WAIT(priority=0x08, entity_id=Moogle (ID: 17829995/0x0110106B), tag_num=0x18)
  9: 0x0675 [0x29] REQ_SET_WAIT(priority=0x08, entity_id=Moogle (ID: 17829995/0x0110106B), tag_num=0x0D)
 10: 0x067C [0x1D] PRINT_EVENT_MESSAGE(message_id=7537*)
    → "If you find any during your travels, I'll help you lay them out, kupo! I can't wait, kupo!"
 11: 0x067F [0x23] WAIT_FOR_DIALOG_INTERACTION
 12: 0x0680 [0x29] REQ_SET_WAIT(priority=0x08, entity_id=Moogle (ID: 17829995/0x0110106B), tag_num=0x0E)
 13: 0x0687 [0x29] REQ_SET_WAIT(priority=0x08, entity_id=Moogle (ID: 17829995/0x0110106B), tag_num=0x0F)
 14: 0x068E [0x1D] PRINT_EVENT_MESSAGE(message_id=7580*)
    → "Each item of furniture you place using the "Layout" command corresponds to a different element, kupo! The type of energy that envelops your Mog House changes depending on those elements, kupo!"
 15: 0x0691 [0x23] WAIT_FOR_DIALOG_INTERACTION
 16: 0x0692 [0x29] REQ_SET_WAIT(priority=0x08, entity_id=Moogle (ID: 17829995/0x0110106B), tag_num=0x10)
 17: 0x0699 [0x29] REQ_SET_WAIT(priority=0x08, entity_id=Moogle (ID: 17829995/0x0110106B), tag_num=0x15)
 18: 0x06A0 [0x1D] PRINT_EVENT_MESSAGE(message_id=7581*)
    → "When that energy changes, my powers change as well, kupo! Master, you should try placing all sorts of furniture in your Mog House, kupo!"
 19: 0x06A3 [0x23] WAIT_FOR_DIALOG_INTERACTION
 20: 0x06A4 [0x29] REQ_SET_WAIT(priority=0x08, entity_id=Moogle (ID: 17829995/0x0110106B), tag_num=0x15)
 21: 0x06AB [0x29] REQ_SET_WAIT(priority=0x08, entity_id=Moogle (ID: 17829995/0x0110106B), tag_num=0x17)
 22: 0x06B2 [0x29] REQ_SET_WAIT(priority=0x08, entity_id=Moogle (ID: 17829995/0x0110106B), tag_num=0x18)
 23: 0x06B9 [0x00] END_REQSTACK()
```

### Event 65535.35

#### Metadata

| Field        | Value    |
|--------------|----------|
| Entrypoint   | 0x06BA   |
| Data Size    | 54 bytes |
| Instructions | 10       |

```
      00 01 02 03 04 05 06 07  08 09 0A 0B 0C 0D 0E 0F
      -- -- -- -- -- -- -- --  -- -- -- -- -- -- -- --
06B0:                                45 00 80 F8 FF FF            E.....
06C0: 7F F8 FF FF 7F 73 30 30  30 01 80 29 08 6B 10 10  .....s000..).k..
06D0: 01 0D 1D 26 80 23 1D 27  80 23 29 08 6B 10 10 01  ...&.#.'.#).k...
06E0: 0E 29 08 6B 10 10 01 0F  29 08 6B 10 10 01 10 00  .).k....).k.....
```

#### Opcodes

```
  0: 0x06BA [0x45] LOAD_SCHEDULED_TASK: Load scheduler "s000" with entities [EventEntity, EventEntity], work=[188*, 0*]
  1: 0x06CB [0x29] REQ_SET_WAIT(priority=0x08, entity_id=Moogle (ID: 17829995/0x0110106B), tag_num=0x0D)
  2: 0x06D2 [0x1D] PRINT_EVENT_MESSAGE(message_id=7540*)
    → "You can invite party and alliance members into your Mog House, kupo!"
  3: 0x06D5 [0x23] WAIT_FOR_DIALOG_INTERACTION
  4: 0x06D6 [0x1D] PRINT_EVENT_MESSAGE(message_id=7541*)
    → "You can show off your expensive furniture, have tea parties, plan your next great adventure--the possibilities are endless, kupo!"
  5: 0x06D9 [0x23] WAIT_FOR_DIALOG_INTERACTION
  6: 0x06DA [0x29] REQ_SET_WAIT(priority=0x08, entity_id=Moogle (ID: 17829995/0x0110106B), tag_num=0x0E)
  7: 0x06E1 [0x29] REQ_SET_WAIT(priority=0x08, entity_id=Moogle (ID: 17829995/0x0110106B), tag_num=0x0F)
  8: 0x06E8 [0x29] REQ_SET_WAIT(priority=0x08, entity_id=Moogle (ID: 17829995/0x0110106B), tag_num=0x10)
  9: 0x06EF [0x00] END_REQSTACK()
```

### Event 65535.36

#### Metadata

| Field        | Value   |
|--------------|---------|
| Entrypoint   | 0x06F0  |
| Data Size    | 1 bytes |
| Instructions | 1       |

```
      00 01 02 03 04 05 06 07  08 09 0A 0B 0C 0D 0E 0F
      -- -- -- -- -- -- -- --  -- -- -- -- -- -- -- --
06F0: 00                                                .               
```

#### Opcodes

```
  0: 0x06F0 [0x00] END_REQSTACK()
```

### Event 65535.37

#### Metadata

| Field        | Value   |
|--------------|---------|
| Entrypoint   | 0x06F1  |
| Data Size    | 1 bytes |
| Instructions | 1       |

```
      00 01 02 03 04 05 06 07  08 09 0A 0B 0C 0D 0E 0F
      -- -- -- -- -- -- -- --  -- -- -- -- -- -- -- --
06F0:    00                                              .              
```

#### Opcodes

```
  0: 0x06F1 [0x00] END_REQSTACK()
```

### Event 65535.38

#### Metadata

| Field        | Value     |
|--------------|-----------|
| Entrypoint   | 0x06F2    |
| Data Size    | 262 bytes |
| Instructions | 46        |

```
      00 01 02 03 04 05 06 07  08 09 0A 0B 0C 0D 0E 0F
      -- -- -- -- -- -- -- --  -- -- -- -- -- -- -- --
06F0:       45 00 80 F8 FF FF  7F F8 FF FF 7F 73 30 30    E..........s00
0700: 30 01 80 1D 28 80 23 24  29 80 01 80 01 80 25 02  0...(.#$).....%.
0710: 00 10 01 80 00 C4 07 03  01 10 02 80 29 08 6B 10  ............).k.
0720: 10 01 15 1D 2A 80 23 29  08 6B 10 10 01 16 29 08  ....*.#).k....).
0730: 6B 10 10 01 17 29 08 6B  10 10 01 18 45 00 80 F8  k....).k....E...
0740: FF FF 7F F8 FF FF 7F 73  30 30 31 01 80 29 08 6B  .......s001..).k
0750: 10 10 01 01 1D 2B 80 23  1D 2C 80 23 29 08 6B 10  .....+.#.,.#).k.
0760: 10 01 02 29 08 6B 10 10  01 03 29 08 6B 10 10 01  ...).k....).k...
0770: 04 29 08 6B 10 10 01 0D  1D 2D 80 23 1D 2E 80 23  .).k.....-.#...#
0780: 29 08 6B 10 10 01 0E 29  08 6B 10 10 01 0F 29 08  ).k....).k....).
0790: 6B 10 10 01 10 1C 2F 80  45 00 80 F8 FF FF 7F F8  k...../.E.......
07A0: FF FF 7F 73 30 30 30 01  80 1C 30 80 29 08 6B 10  ...s000...0.).k.
07B0: 10 01 1A 29 0A 6B 10 10  01 2E 29 08 6B 10 10 01  ...).k....).k...
07C0: 1B 01 F7 07 02 00 10 02  80 00 F7 07 03 00 00 01  ................
07D0: 80 29 08 6B 10 10 01 05  29 0D 6B 10 10 01 1E 29  .).k....).k....)
07E0: 08 6B 10 10 01 06 29 08  6B 10 10 01 07 29 08 6B  .k....).k....).k
07F0: 10 10 01 08 01 F7 07 00                           ........        
```

#### Opcodes

```
  0: 0x06F2 [0x45] LOAD_SCHEDULED_TASK: Load scheduler "s000" with entities [EventEntity, EventEntity], work=[188*, 0*]
  1: 0x0703 [0x1D] PRINT_EVENT_MESSAGE(message_id=7542*)
    → "Are you sure, kupo? You know everything about your Mog House, kupo?"
  2: 0x0706 [0x23] WAIT_FOR_DIALOG_INTERACTION
  3: 0x0707 [0x24] CREATE_DIALOG(message_id=7543*, default_option=0*, option_flags=0*)
    → "Are you sure? [I'm sure!/Maybe I'm not so sure...]"
  4: 0x070E [0x25] WAIT_DIALOG_SELECT()
  5: 0x070F [0x02] IF !(Work_Zone[0] == 0*) GOTO 0x07C4
  6: 0x0717 [0x03] Work_Zone[1] = 1*
  7: 0x071C [0x29] REQ_SET_WAIT(priority=0x08, entity_id=Moogle (ID: 17829995/0x0110106B), tag_num=0x15)
  8: 0x0723 [0x1D] PRINT_EVENT_MESSAGE(message_id=7544*)
    → "And finally, a little bit of advice!"
  9: 0x0726 [0x23] WAIT_FOR_DIALOG_INTERACTION
 10: 0x0727 [0x29] REQ_SET_WAIT(priority=0x08, entity_id=Moogle (ID: 17829995/0x0110106B), tag_num=0x16)
 11: 0x072E [0x29] REQ_SET_WAIT(priority=0x08, entity_id=Moogle (ID: 17829995/0x0110106B), tag_num=0x17)
 12: 0x0735 [0x29] REQ_SET_WAIT(priority=0x08, entity_id=Moogle (ID: 17829995/0x0110106B), tag_num=0x18)
 13: 0x073C [0x45] LOAD_SCHEDULED_TASK: Load scheduler "s001" with entities [EventEntity, EventEntity], work=[188*, 0*]
 14: 0x074D [0x29] REQ_SET_WAIT(priority=0x08, entity_id=Moogle (ID: 17829995/0x0110106B), tag_num=0x01)
 15: 0x0754 [0x1D] PRINT_EVENT_MESSAGE(message_id=7545*)
    → "If you ever run into any problems, just ask your fellow adventurers for help!"
 16: 0x0757 [0x23] WAIT_FOR_DIALOG_INTERACTION
 17: 0x0758 [0x1D] PRINT_EVENT_MESSAGE(message_id=7546*)
    → "If you type "/ae Hello!", then your message will be heard by many people."
 18: 0x075B [0x23] WAIT_FOR_DIALOG_INTERACTION
 19: 0x075C [0x29] REQ_SET_WAIT(priority=0x08, entity_id=Moogle (ID: 17829995/0x0110106B), tag_num=0x02)
 20: 0x0763 [0x29] REQ_SET_WAIT(priority=0x08, entity_id=Moogle (ID: 17829995/0x0110106B), tag_num=0x03)
 21: 0x076A [0x29] REQ_SET_WAIT(priority=0x08, entity_id=Moogle (ID: 17829995/0x0110106B), tag_num=0x04)
 22: 0x0771 [0x29] REQ_SET_WAIT(priority=0x08, entity_id=Moogle (ID: 17829995/0x0110106B), tag_num=0x0D)
 23: 0x0778 [0x1D] PRINT_EVENT_MESSAGE(message_id=7547*)
    → "If you type "/ae" followed by your issue or question, other adventurers will help you!"
 24: 0x077B [0x23] WAIT_FOR_DIALOG_INTERACTION
 25: 0x077C [0x1D] PRINT_EVENT_MESSAGE(message_id=7548*)
    → "Remember that you can only do this while in town, kupo!"
 26: 0x077F [0x23] WAIT_FOR_DIALOG_INTERACTION
 27: 0x0780 [0x29] REQ_SET_WAIT(priority=0x08, entity_id=Moogle (ID: 17829995/0x0110106B), tag_num=0x0E)
 28: 0x0787 [0x29] REQ_SET_WAIT(priority=0x08, entity_id=Moogle (ID: 17829995/0x0110106B), tag_num=0x0F)
 29: 0x078E [0x29] REQ_SET_WAIT(priority=0x08, entity_id=Moogle (ID: 17829995/0x0110106B), tag_num=0x10)
 30: 0x0795 [0x1C] WAIT(30* ticks)
 31: 0x0798 [0x45] LOAD_SCHEDULED_TASK: Load scheduler "s000" with entities [EventEntity, EventEntity], work=[188*, 0*]
 32: 0x07A9 [0x1C] WAIT(20* ticks)
 33: 0x07AC [0x29] REQ_SET_WAIT(priority=0x08, entity_id=Moogle (ID: 17829995/0x0110106B), tag_num=0x1A)
 34: 0x07B3 [0x29] REQ_SET_WAIT(priority=0x0A, entity_id=Moogle (ID: 17829995/0x0110106B), tag_num=0x2E)
 35: 0x07BA [0x29] REQ_SET_WAIT(priority=0x08, entity_id=Moogle (ID: 17829995/0x0110106B), tag_num=0x1B)
 36: 0x07C1 [0x01] GOTO 0x07F7
 37: 0x07C4 [0x02] IF !(Work_Zone[0] == 1*) GOTO 0x07F7
 38: 0x07CC [0x03] ExtData[1]->WorkLocal[0] = 0*
 39: 0x07D1 [0x29] REQ_SET_WAIT(priority=0x08, entity_id=Moogle (ID: 17829995/0x0110106B), tag_num=0x05)
 40: 0x07D8 [0x29] REQ_SET_WAIT(priority=0x0D, entity_id=Moogle (ID: 17829995/0x0110106B), tag_num=0x1E)
 41: 0x07DF [0x29] REQ_SET_WAIT(priority=0x08, entity_id=Moogle (ID: 17829995/0x0110106B), tag_num=0x06)
 42: 0x07E6 [0x29] REQ_SET_WAIT(priority=0x08, entity_id=Moogle (ID: 17829995/0x0110106B), tag_num=0x07)
 43: 0x07ED [0x29] REQ_SET_WAIT(priority=0x08, entity_id=Moogle (ID: 17829995/0x0110106B), tag_num=0x08)
 44: 0x07F4 [0x01] GOTO 0x07F7

SUBROUTINE_07F7:
 45: 0x07F7 [0x00] END_REQSTACK()
```

### Event 65535.39

#### Metadata

| Field        | Value    |
|--------------|----------|
| Entrypoint   | 0x07F8   |
| Data Size    | 33 bytes |
| Instructions | 7        |

```
      00 01 02 03 04 05 06 07  08 09 0A 0B 0C 0D 0E 0F
      -- -- -- -- -- -- -- --  -- -- -- -- -- -- -- --
07F0:                          29 08 6B 10 10 01 0D 1D          ).k.....
0800: 31 80 23 29 08 6B 10 10  01 0E 29 08 6B 10 10 01  1.#).k....).k...
0810: 0F 29 08 6B 10 10 01 10  00                       .).k.....       
```

#### Opcodes

```
  0: 0x07F8 [0x29] REQ_SET_WAIT(priority=0x08, entity_id=Moogle (ID: 17829995/0x0110106B), tag_num=0x0D)
  1: 0x07FF [0x1D] PRINT_EVENT_MESSAGE(message_id=7514*)
    → "Welcome, Master! This is your home, the "Mog House," kupo!"
  2: 0x0802 [0x23] WAIT_FOR_DIALOG_INTERACTION
  3: 0x0803 [0x29] REQ_SET_WAIT(priority=0x08, entity_id=Moogle (ID: 17829995/0x0110106B), tag_num=0x0E)
  4: 0x080A [0x29] REQ_SET_WAIT(priority=0x08, entity_id=Moogle (ID: 17829995/0x0110106B), tag_num=0x0F)
  5: 0x0811 [0x29] REQ_SET_WAIT(priority=0x08, entity_id=Moogle (ID: 17829995/0x0110106B), tag_num=0x10)
  6: 0x0818 [0x00] END_REQSTACK()
```

### Event 65535.40

#### Metadata

| Field        | Value    |
|--------------|----------|
| Entrypoint   | 0x0819   |
| Data Size    | 33 bytes |
| Instructions | 7        |

```
      00 01 02 03 04 05 06 07  08 09 0A 0B 0C 0D 0E 0F
      -- -- -- -- -- -- -- --  -- -- -- -- -- -- -- --
0810:                             29 08 6B 10 10 01 01           ).k....
0820: 1D 32 80 23 29 08 6B 10  10 01 02 29 08 6B 10 10  .2.#).k....).k..
0830: 01 03 29 08 6B 10 10 01  04 00                    ..).k.....      
```

#### Opcodes

```
  0: 0x0819 [0x29] REQ_SET_WAIT(priority=0x08, entity_id=Moogle (ID: 17829995/0x0110106B), tag_num=0x01)
  1: 0x0820 [0x1D] PRINT_EVENT_MESSAGE(message_id=7515*)
    → "I'm a moogle! We moogles like taking care of houses and items! Nice to meet you, kupo!"
  2: 0x0823 [0x23] WAIT_FOR_DIALOG_INTERACTION
  3: 0x0824 [0x29] REQ_SET_WAIT(priority=0x08, entity_id=Moogle (ID: 17829995/0x0110106B), tag_num=0x02)
  4: 0x082B [0x29] REQ_SET_WAIT(priority=0x08, entity_id=Moogle (ID: 17829995/0x0110106B), tag_num=0x03)
  5: 0x0832 [0x29] REQ_SET_WAIT(priority=0x08, entity_id=Moogle (ID: 17829995/0x0110106B), tag_num=0x04)
  6: 0x0839 [0x00] END_REQSTACK()
```

### Event 65535.41

#### Metadata

| Field        | Value    |
|--------------|----------|
| Entrypoint   | 0x083A   |
| Data Size    | 33 bytes |
| Instructions | 7        |

```
      00 01 02 03 04 05 06 07  08 09 0A 0B 0C 0D 0E 0F
      -- -- -- -- -- -- -- --  -- -- -- -- -- -- -- --
0830:                                29 08 6B 10 10 01            ).k...
0840: 15 1D 33 80 23 29 08 6B  10 10 01 16 29 08 6B 10  ..3.#).k....).k.
0850: 10 01 17 29 08 6B 10 10  01 18 00                 ...).k.....     
```

#### Opcodes

```
  0: 0x083A [0x29] REQ_SET_WAIT(priority=0x08, entity_id=Moogle (ID: 17829995/0x0110106B), tag_num=0x15)
  1: 0x0841 [0x1D] PRINT_EVENT_MESSAGE(message_id=7516*)
    → "I'll tell you all about your Mog House, kupo!"
  2: 0x0844 [0x23] WAIT_FOR_DIALOG_INTERACTION
  3: 0x0845 [0x29] REQ_SET_WAIT(priority=0x08, entity_id=Moogle (ID: 17829995/0x0110106B), tag_num=0x16)
  4: 0x084C [0x29] REQ_SET_WAIT(priority=0x08, entity_id=Moogle (ID: 17829995/0x0110106B), tag_num=0x17)
  5: 0x0853 [0x29] REQ_SET_WAIT(priority=0x08, entity_id=Moogle (ID: 17829995/0x0110106B), tag_num=0x18)
  6: 0x085A [0x00] END_REQSTACK()
```

### Event 65535.42

#### Metadata

| Field        | Value    |
|--------------|----------|
| Entrypoint   | 0x085B   |
| Data Size    | 37 bytes |
| Instructions | 9        |

```
      00 01 02 03 04 05 06 07  08 09 0A 0B 0C 0D 0E 0F
      -- -- -- -- -- -- -- --  -- -- -- -- -- -- -- --
0850:                                   29 08 6B 10 10             ).k..
0860: 01 11 1D 34 80 23 29 08  6B 10 10 01 12 29 08 6B  ...4.#).k....).k
0870: 10 10 01 13 29 08 6B 10  10 01 14 1D 35 80 23 00  ....).k.....5.#.
```

#### Opcodes

```
  0: 0x085B [0x29] REQ_SET_WAIT(priority=0x08, entity_id=Moogle (ID: 17829995/0x0110106B), tag_num=0x11)
  1: 0x0862 [0x1D] PRINT_EVENT_MESSAGE(message_id=7517*)
    → "First, the basics, kupo! Open your main menu, Master. The button at the very bottom changes to "Mog House" when you're in your Mog House, kupo!"
  2: 0x0865 [0x23] WAIT_FOR_DIALOG_INTERACTION
  3: 0x0866 [0x29] REQ_SET_WAIT(priority=0x08, entity_id=Moogle (ID: 17829995/0x0110106B), tag_num=0x12)
  4: 0x086D [0x29] REQ_SET_WAIT(priority=0x08, entity_id=Moogle (ID: 17829995/0x0110106B), tag_num=0x13)
  5: 0x0874 [0x29] REQ_SET_WAIT(priority=0x08, entity_id=Moogle (ID: 17829995/0x0110106B), tag_num=0x14)
  6: 0x087B [0x1D] PRINT_EVENT_MESSAGE(message_id=7518*)
    → "Press it and the "Mog House" menu will appear! Everything you can do in your Mog House is there, kupo!"
  7: 0x087E [0x23] WAIT_FOR_DIALOG_INTERACTION
  8: 0x087F [0x00] END_REQSTACK()
```

### Event 65535.43

#### Metadata

| Field        | Value    |
|--------------|----------|
| Entrypoint   | 0x0880   |
| Data Size    | 33 bytes |
| Instructions | 7        |

```
      00 01 02 03 04 05 06 07  08 09 0A 0B 0C 0D 0E 0F
      -- -- -- -- -- -- -- --  -- -- -- -- -- -- -- --
0880: 29 08 6B 10 10 01 0D 1D  36 80 23 29 08 6B 10 10  ).k.....6.#).k..
0890: 01 0E 29 08 6B 10 10 01  0F 29 08 6B 10 10 01 10  ..).k....).k....
08A0: 00                                                .               
```

#### Opcodes

```
  0: 0x0880 [0x29] REQ_SET_WAIT(priority=0x08, entity_id=Moogle (ID: 17829995/0x0110106B), tag_num=0x0D)
  1: 0x0887 [0x1D] PRINT_EVENT_MESSAGE(message_id=7519*)
    → "There are lots of things you can do in your Mog House, kupo! It can be too much for some masters, kupo..."
  2: 0x088A [0x23] WAIT_FOR_DIALOG_INTERACTION
  3: 0x088B [0x29] REQ_SET_WAIT(priority=0x08, entity_id=Moogle (ID: 17829995/0x0110106B), tag_num=0x0E)
  4: 0x0892 [0x29] REQ_SET_WAIT(priority=0x08, entity_id=Moogle (ID: 17829995/0x0110106B), tag_num=0x0F)
  5: 0x0899 [0x29] REQ_SET_WAIT(priority=0x08, entity_id=Moogle (ID: 17829995/0x0110106B), tag_num=0x10)
  6: 0x08A0 [0x00] END_REQSTACK()
```

### Event 65535.44

#### Metadata

| Field        | Value   |
|--------------|---------|
| Entrypoint   | 0x08A1  |
| Data Size    | 5 bytes |
| Instructions | 3       |

```
      00 01 02 03 04 05 06 07  08 09 0A 0B 0C 0D 0E 0F
      -- -- -- -- -- -- -- --  -- -- -- -- -- -- -- --
08A0:    1D 37 80 23 00                                  .7.#.          
```

#### Opcodes

```
  0: 0x08A1 [0x1D] PRINT_EVENT_MESSAGE(message_id=7549*)
    → "Okay, kupo! Good luck on your adventuring, kupo!"
  1: 0x08A4 [0x23] WAIT_FOR_DIALOG_INTERACTION
  2: 0x08A5 [0x00] END_REQSTACK()
```

### Event 30001

#### Metadata

| Field        | Value    |
|--------------|----------|
| Entrypoint   | 0x08A6   |
| Data Size    | 25 bytes |
| Instructions | 8        |

```
      00 01 02 03 04 05 06 07  08 09 0A 0B 0C 0D 0E 0F
      -- -- -- -- -- -- -- --  -- -- -- -- -- -- -- --
08A0:                   1E F0  FF FF 7F 6F 70 29 0B 6B        .....op).k
08B0: 10 10 01 30 29 0B 6B 10  10 01 31 20 00 21 00     ...0).k...1 .!. 
```

#### Opcodes

```
  0: 0x08A6 [0x1E] EventEntity looks at LocalPlayer and starts talking
  1: 0x08AB [0x6F] WAIT_FRAME_DELAY: Yield until WaitTime reaches zero
  2: 0x08AC [0x70] WAIT_ENTITY_RENDER_FLAG: Wait while EventEntity->Render.Flags3 bit 2 is set (cancel turn if not)
  3: 0x08AD [0x29] REQ_SET_WAIT(priority=0x0B, entity_id=Moogle (ID: 17829995/0x0110106B), tag_num=0x30)
  4: 0x08B4 [0x29] REQ_SET_WAIT(priority=0x0B, entity_id=Moogle (ID: 17829995/0x0110106B), tag_num=0x31)
  5: 0x08BB [0x20] SET_CLI_EVENT_UC_FLAG: Unlock player control
  6: 0x08BD [0x21] END_EVENT
  7: 0x08BE [0x00] END_REQSTACK()
```

### Event 65535.45

#### Metadata

| Field        | Value    |
|--------------|----------|
| Entrypoint   | 0x08BF   |
| Data Size    | 33 bytes |
| Instructions | 7        |

```
      00 01 02 03 04 05 06 07  08 09 0A 0B 0C 0D 0E 0F
      -- -- -- -- -- -- -- --  -- -- -- -- -- -- -- --
08B0:                                               29                 )
08C0: 08 6B 10 10 01 11 1D 38  80 23 29 08 6B 10 10 01  .k.....8.#).k...
08D0: 12 29 08 6B 10 10 01 13  29 08 6B 10 10 01 14 00  .).k....).k.....
```

#### Opcodes

```
  0: 0x08BF [0x29] REQ_SET_WAIT(priority=0x08, entity_id=Moogle (ID: 17829995/0x0110106B), tag_num=0x11)
  1: 0x08C6 [0x1D] PRINT_EVENT_MESSAGE(message_id=7553*)
    → "Master! I traveled all the way here at your bidding, kupo! Even a Rent-a-Room needs a moogle, kupo!"
  2: 0x08C9 [0x23] WAIT_FOR_DIALOG_INTERACTION
  3: 0x08CA [0x29] REQ_SET_WAIT(priority=0x08, entity_id=Moogle (ID: 17829995/0x0110106B), tag_num=0x12)
  4: 0x08D1 [0x29] REQ_SET_WAIT(priority=0x08, entity_id=Moogle (ID: 17829995/0x0110106B), tag_num=0x13)
  5: 0x08D8 [0x29] REQ_SET_WAIT(priority=0x08, entity_id=Moogle (ID: 17829995/0x0110106B), tag_num=0x14)
  6: 0x08DF [0x00] END_REQSTACK()
```

### Event 65535.46

#### Metadata

| Field        | Value    |
|--------------|----------|
| Entrypoint   | 0x08E0   |
| Data Size    | 33 bytes |
| Instructions | 7        |

```
      00 01 02 03 04 05 06 07  08 09 0A 0B 0C 0D 0E 0F
      -- -- -- -- -- -- -- --  -- -- -- -- -- -- -- --
08E0: 29 08 6B 10 10 01 01 1D  39 80 23 29 08 6B 10 10  ).k.....9.#).k..
08F0: 01 02 29 08 6B 10 10 01  03 29 08 6B 10 10 01 04  ..).k....).k....
0900: 00                                                .               
```

#### Opcodes

```
  0: 0x08E0 [0x29] REQ_SET_WAIT(priority=0x08, entity_id=Moogle (ID: 17829995/0x0110106B), tag_num=0x01)
  1: 0x08E7 [0x1D] PRINT_EVENT_MESSAGE(message_id=7554*)
    → "But there are a few things you can't do in a Rent-a-Room, kupo. Select "Mog House" from the main menu and check, kupo!"
  2: 0x08EA [0x23] WAIT_FOR_DIALOG_INTERACTION
  3: 0x08EB [0x29] REQ_SET_WAIT(priority=0x08, entity_id=Moogle (ID: 17829995/0x0110106B), tag_num=0x02)
  4: 0x08F2 [0x29] REQ_SET_WAIT(priority=0x08, entity_id=Moogle (ID: 17829995/0x0110106B), tag_num=0x03)
  5: 0x08F9 [0x29] REQ_SET_WAIT(priority=0x08, entity_id=Moogle (ID: 17829995/0x0110106B), tag_num=0x04)
  6: 0x0900 [0x00] END_REQSTACK()
```

### Event 30003

#### Metadata

| Field        | Value     |
|--------------|-----------|
| Entrypoint   | 0x0901    |
| Data Size    | 356 bytes |
| Instructions | 67        |

```
      00 01 02 03 04 05 06 07  08 09 0A 0B 0C 0D 0E 0F
      -- -- -- -- -- -- -- --  -- -- -- -- -- -- -- --
0900:    20 01 42 1D 3A 80 23  02 04 10 02 80 80 1F 09    .B.:.#........
0910: 03 01 10 02 80 29 0B 6B  10 10 01 33 01 61 0A 02  .....).k...3.a..
0920: 04 10 0E 80 80 36 09 03  01 10 0E 80 29 0B 6B 10  .....6......).k.
0930: 10 01 33 01 61 0A 02 04  10 0F 80 80 4D 09 03 01  ..3.a.......M...
0940: 10 0F 80 29 0B 6B 10 10  01 35 01 61 0A 02 04 10  ...).k...5.a....
0950: 10 80 80 64 09 03 01 10  10 80 29 0B 6B 10 10 01  ...d......).k...
0960: 36 01 61 0A 02 04 10 11  80 80 7B 09 03 01 10 11  6.a.......{.....
0970: 80 29 0B 6B 10 10 01 37  01 61 0A 02 04 10 12 80  .).k...7.a......
0980: 80 92 09 03 01 10 12 80  29 0B 6B 10 10 01 38 01  ........).k...8.
0990: 61 0A 02 04 10 13 80 80  A9 09 03 01 10 13 80 29  a..............)
09A0: 0B 6B 10 10 01 39 01 61  0A 02 04 10 3B 80 80 C0  .k...9.a....;...
09B0: 09 03 01 10 3B 80 29 0B  6B 10 10 01 3A 01 61 0A  ....;.).k...:.a.
09C0: 02 04 10 3C 80 80 D7 09  03 01 10 3C 80 29 0B 6B  ...<.......<.).k
09D0: 10 10 01 3B 01 61 0A 02  04 10 3D 80 80 EE 09 03  ...;.a....=.....
09E0: 01 10 3D 80 29 0B 6B 10  10 01 34 01 61 0A 02 04  ..=.).k...4.a...
09F0: 10 3E 80 80 05 0A 03 01  10 3E 80 29 0B 6B 10 10  .>.......>.).k..
0A00: 01 3C 01 61 0A 02 04 10  3F 80 80 1C 0A 03 01 10  .<.a....?.......
0A10: 3F 80 29 0B 6B 10 10 01  3D 01 61 0A 02 04 10 40  ?.).k...=.a....@
0A20: 80 80 33 0A 03 01 10 40  80 29 0B 6B 10 10 01 3E  ..3....@.).k...>
0A30: 01 61 0A 02 04 10 41 80  80 4A 0A 03 01 10 41 80  .a....A..J....A.
0A40: 29 0B 6B 10 10 01 3F 01  61 0A 02 04 10 42 80 80  ).k...?.a....B..
0A50: 61 0A 03 01 10 42 80 29  0B 6B 10 10 01 40 01 61  a....B.).k...@.a
0A60: 0A 20 00 21 00                                    . .!.           
```

#### Opcodes

```
  0: 0x0901 [0x20] SET_CLI_EVENT_UC_FLAG: Lock player control
  1: 0x0903 [0x42] SET_CLI_EVENT_CANCEL_DATA()
  2: 0x0904 [0x1D] PRINT_EVENT_MESSAGE(message_id=7556*)
    → "Master! I have something to tell you, kupo!"
  3: 0x0907 [0x23] WAIT_FOR_DIALOG_INTERACTION
  4: 0x0908 [0x02] IF !(Work_Zone[4] == 1*) GOTO 0x091F
  5: 0x0910 [0x03] Work_Zone[1] = 1*
  6: 0x0915 [0x29] REQ_SET_WAIT(priority=0x0B, entity_id=Moogle (ID: 17829995/0x0110106B), tag_num=0x33)
  7: 0x091C [0x01] GOTO 0x0A61
  8: 0x091F [0x02] IF !(Work_Zone[4] == 2*) GOTO 0x0936
  9: 0x0927 [0x03] Work_Zone[1] = 2*
 10: 0x092C [0x29] REQ_SET_WAIT(priority=0x0B, entity_id=Moogle (ID: 17829995/0x0110106B), tag_num=0x33)
 11: 0x0933 [0x01] GOTO 0x0A61
 12: 0x0936 [0x02] IF !(Work_Zone[4] == 3*) GOTO 0x094D
 13: 0x093E [0x03] Work_Zone[1] = 3*
 14: 0x0943 [0x29] REQ_SET_WAIT(priority=0x0B, entity_id=Moogle (ID: 17829995/0x0110106B), tag_num=0x35)
 15: 0x094A [0x01] GOTO 0x0A61
 16: 0x094D [0x02] IF !(Work_Zone[4] == 4*) GOTO 0x0964
 17: 0x0955 [0x03] Work_Zone[1] = 4*
 18: 0x095A [0x29] REQ_SET_WAIT(priority=0x0B, entity_id=Moogle (ID: 17829995/0x0110106B), tag_num=0x36)
 19: 0x0961 [0x01] GOTO 0x0A61
 20: 0x0964 [0x02] IF !(Work_Zone[4] == 5*) GOTO 0x097B
 21: 0x096C [0x03] Work_Zone[1] = 5*
 22: 0x0971 [0x29] REQ_SET_WAIT(priority=0x0B, entity_id=Moogle (ID: 17829995/0x0110106B), tag_num=0x37)
 23: 0x0978 [0x01] GOTO 0x0A61
 24: 0x097B [0x02] IF !(Work_Zone[4] == 6*) GOTO 0x0992
 25: 0x0983 [0x03] Work_Zone[1] = 6*
 26: 0x0988 [0x29] REQ_SET_WAIT(priority=0x0B, entity_id=Moogle (ID: 17829995/0x0110106B), tag_num=0x38)
 27: 0x098F [0x01] GOTO 0x0A61
 28: 0x0992 [0x02] IF !(Work_Zone[4] == 7*) GOTO 0x09A9
 29: 0x099A [0x03] Work_Zone[1] = 7*
 30: 0x099F [0x29] REQ_SET_WAIT(priority=0x0B, entity_id=Moogle (ID: 17829995/0x0110106B), tag_num=0x39)
 31: 0x09A6 [0x01] GOTO 0x0A61
 32: 0x09A9 [0x02] IF !(Work_Zone[4] == 8*) GOTO 0x09C0
 33: 0x09B1 [0x03] Work_Zone[1] = 8*
 34: 0x09B6 [0x29] REQ_SET_WAIT(priority=0x0B, entity_id=Moogle (ID: 17829995/0x0110106B), tag_num=0x3A)
 35: 0x09BD [0x01] GOTO 0x0A61
 36: 0x09C0 [0x02] IF !(Work_Zone[4] == 9*) GOTO 0x09D7
 37: 0x09C8 [0x03] Work_Zone[1] = 9*
 38: 0x09CD [0x29] REQ_SET_WAIT(priority=0x0B, entity_id=Moogle (ID: 17829995/0x0110106B), tag_num=0x3B)
 39: 0x09D4 [0x01] GOTO 0x0A61
 40: 0x09D7 [0x02] IF !(Work_Zone[4] == 10*) GOTO 0x09EE
 41: 0x09DF [0x03] Work_Zone[1] = 10*
 42: 0x09E4 [0x29] REQ_SET_WAIT(priority=0x0B, entity_id=Moogle (ID: 17829995/0x0110106B), tag_num=0x34)
 43: 0x09EB [0x01] GOTO 0x0A61
 44: 0x09EE [0x02] IF !(Work_Zone[4] == 11*) GOTO 0x0A05
 45: 0x09F6 [0x03] Work_Zone[1] = 11*
 46: 0x09FB [0x29] REQ_SET_WAIT(priority=0x0B, entity_id=Moogle (ID: 17829995/0x0110106B), tag_num=0x3C)
 47: 0x0A02 [0x01] GOTO 0x0A61
 48: 0x0A05 [0x02] IF !(Work_Zone[4] == 12*) GOTO 0x0A1C
 49: 0x0A0D [0x03] Work_Zone[1] = 12*
 50: 0x0A12 [0x29] REQ_SET_WAIT(priority=0x0B, entity_id=Moogle (ID: 17829995/0x0110106B), tag_num=0x3D)
 51: 0x0A19 [0x01] GOTO 0x0A61
 52: 0x0A1C [0x02] IF !(Work_Zone[4] == 13*) GOTO 0x0A33
 53: 0x0A24 [0x03] Work_Zone[1] = 13*
 54: 0x0A29 [0x29] REQ_SET_WAIT(priority=0x0B, entity_id=Moogle (ID: 17829995/0x0110106B), tag_num=0x3E)
 55: 0x0A30 [0x01] GOTO 0x0A61
 56: 0x0A33 [0x02] IF !(Work_Zone[4] == 14*) GOTO 0x0A4A
 57: 0x0A3B [0x03] Work_Zone[1] = 14*
 58: 0x0A40 [0x29] REQ_SET_WAIT(priority=0x0B, entity_id=Moogle (ID: 17829995/0x0110106B), tag_num=0x3F)
 59: 0x0A47 [0x01] GOTO 0x0A61
 60: 0x0A4A [0x02] IF !(Work_Zone[4] == 15*) GOTO 0x0A61
 61: 0x0A52 [0x03] Work_Zone[1] = 15*
 62: 0x0A57 [0x29] REQ_SET_WAIT(priority=0x0B, entity_id=Moogle (ID: 17829995/0x0110106B), tag_num=0x40)
 63: 0x0A5E [0x01] GOTO 0x0A61

SUBROUTINE_0A61:
 64: 0x0A61 [0x20] SET_CLI_EVENT_UC_FLAG: Unlock player control
 65: 0x0A63 [0x21] END_EVENT
 66: 0x0A64 [0x00] END_REQSTACK()
```

### Event 65535.47

#### Metadata

| Field        | Value    |
|--------------|----------|
| Entrypoint   | 0x0A65   |
| Data Size    | 37 bytes |
| Instructions | 9        |

```
      00 01 02 03 04 05 06 07  08 09 0A 0B 0C 0D 0E 0F
      -- -- -- -- -- -- -- --  -- -- -- -- -- -- -- --
0A60:                29 0A 6B  10 10 01 01 1D 43 80 23       ).k.....C.#
0A70: 29 0A 6B 10 10 01 02 29  0A 6B 10 10 01 03 1D 44  ).k....).k.....D
0A80: 80 23 29 0A 6B 10 10 01  04 00                    .#).k.....      
```

#### Opcodes

```
  0: 0x0A65 [0x29] REQ_SET_WAIT(priority=0x0A, entity_id=Moogle (ID: 17829995/0x0110106B), tag_num=0x01)
  1: 0x0A6C [0x1D] PRINT_EVENT_MESSAGE(message_id=7557*)
    → "I found this precious item under the $3 pillow, kupo!"
  2: 0x0A6F [0x23] WAIT_FOR_DIALOG_INTERACTION
  3: 0x0A70 [0x29] REQ_SET_WAIT(priority=0x0A, entity_id=Moogle (ID: 17829995/0x0110106B), tag_num=0x02)
  4: 0x0A77 [0x29] REQ_SET_WAIT(priority=0x0A, entity_id=Moogle (ID: 17829995/0x0110106B), tag_num=0x03)
  5: 0x0A7E [0x1D] PRINT_EVENT_MESSAGE(message_id=7558*)
    → "It's all yours, kupo!"
  6: 0x0A81 [0x23] WAIT_FOR_DIALOG_INTERACTION
  7: 0x0A82 [0x29] REQ_SET_WAIT(priority=0x0A, entity_id=Moogle (ID: 17829995/0x0110106B), tag_num=0x04)
  8: 0x0A89 [0x00] END_REQSTACK()
```

### Event 65535.48

#### Metadata

| Field        | Value    |
|--------------|----------|
| Entrypoint   | 0x0A8A   |
| Data Size    | 37 bytes |
| Instructions | 9        |

```
      00 01 02 03 04 05 06 07  08 09 0A 0B 0C 0D 0E 0F
      -- -- -- -- -- -- -- --  -- -- -- -- -- -- -- --
0A80:                                29 0A 6B 10 10 01            ).k...
0A90: 01 1D 45 80 23 29 0A 6B  10 10 01 02 29 0A 6B 10  ..E.#).k....).k.
0AA0: 10 01 03 1D 46 80 23 29  0A 6B 10 10 01 04 00     ....F.#).k..... 
```

#### Opcodes

```
  0: 0x0A8A [0x29] REQ_SET_WAIT(priority=0x0A, entity_id=Moogle (ID: 17829995/0x0110106B), tag_num=0x01)
  1: 0x0A91 [0x1D] PRINT_EVENT_MESSAGE(message_id=7559*)
    → "I used the $3 to write a song for you, kupo!"
  2: 0x0A94 [0x23] WAIT_FOR_DIALOG_INTERACTION
  3: 0x0A95 [0x29] REQ_SET_WAIT(priority=0x0A, entity_id=Moogle (ID: 17829995/0x0110106B), tag_num=0x02)
  4: 0x0A9C [0x29] REQ_SET_WAIT(priority=0x0A, entity_id=Moogle (ID: 17829995/0x0110106B), tag_num=0x03)
  5: 0x0AA3 [0x1D] PRINT_EVENT_MESSAGE(message_id=7560*)
    → "Here, kupo! Please think of the lonely moogle waiting for you back home when you hear this song, kupo!"
  6: 0x0AA6 [0x23] WAIT_FOR_DIALOG_INTERACTION
  7: 0x0AA7 [0x29] REQ_SET_WAIT(priority=0x0A, entity_id=Moogle (ID: 17829995/0x0110106B), tag_num=0x04)
  8: 0x0AAE [0x00] END_REQSTACK()
```

### Event 65535.49

#### Metadata

| Field        | Value    |
|--------------|----------|
| Entrypoint   | 0x0AAF   |
| Data Size    | 37 bytes |
| Instructions | 9        |

```
      00 01 02 03 04 05 06 07  08 09 0A 0B 0C 0D 0E 0F
      -- -- -- -- -- -- -- --  -- -- -- -- -- -- -- --
0AA0:                                               29                 )
0AB0: 0A 6B 10 10 01 0D 1D 47  80 23 29 0A 6B 10 10 01  .k.....G.#).k...
0AC0: 0E 29 0A 6B 10 10 01 0F  1D 48 80 23 29 0A 6B 10  .).k.....H.#).k.
0AD0: 10 01 10 00                                       ....            
```

#### Opcodes

```
  0: 0x0AAF [0x29] REQ_SET_WAIT(priority=0x0A, entity_id=Moogle (ID: 17829995/0x0110106B), tag_num=0x0D)
  1: 0x0AB6 [0x1D] PRINT_EVENT_MESSAGE(message_id=7561*)
    → "I found this item in the back of one of the $3's drawers, kupo!"
  2: 0x0AB9 [0x23] WAIT_FOR_DIALOG_INTERACTION
  3: 0x0ABA [0x29] REQ_SET_WAIT(priority=0x0A, entity_id=Moogle (ID: 17829995/0x0110106B), tag_num=0x0E)
  4: 0x0AC1 [0x29] REQ_SET_WAIT(priority=0x0A, entity_id=Moogle (ID: 17829995/0x0110106B), tag_num=0x0F)
  5: 0x0AC8 [0x1D] PRINT_EVENT_MESSAGE(message_id=7562*)
    → "It's all yours, kupo!"
  6: 0x0ACB [0x23] WAIT_FOR_DIALOG_INTERACTION
  7: 0x0ACC [0x29] REQ_SET_WAIT(priority=0x0A, entity_id=Moogle (ID: 17829995/0x0110106B), tag_num=0x10)
