# 17829975 - Maudilyonne

## Common Data

| Field            | Value                     |
|------------------|---------------------------|
| Zone             | Eastern Adoulin (ID: 257) |
| Block Size       | 736 bytes                 |
| Total Events     | 3                         |
| References Count | 36                        |

## List of Events

| Event ID                 | Entrypoint   |   Size |   Instructions |
|--------------------------|--------------|--------|----------------|
| [65535](#event-65535)    | 0x0000       |      1 |              1 |
| [0](#event-0)            | 0x0001       |    550 |            121 |
| [65535.1](#event-655351) | 0x0227       |     10 |              2 |

## DAT References (imed_data)

|   Index | Hex Value   |   Dec Value |
|---------|-------------|-------------|
|       0 | 0x2063      |        8291 |
|       1 | 0x007E      |         126 |
|       2 | 0xFFFFFFFE  |  4294967294 |
|       3 | 0x0001      |           1 |
|       4 | 0x0002      |           2 |
|       5 | 0x0003      |           3 |
|       6 | 0x0004      |           4 |
|       7 | 0x0005      |           5 |
|       8 | 0x0006      |           6 |
|       9 | 0x2062      |        8290 |
|      10 | 0x007C      |         124 |
|      11 | 0x007A      |         122 |
|      12 | 0x0076      |         118 |
|      13 | 0x006E      |         110 |
|      14 | 0x005E      |          94 |
|      15 | 0x003E      |          62 |
|      16 | 0x2065      |        8293 |
|      17 | 0x0000      |           0 |
|      18 | 0x2066      |        8294 |
|      19 | 0x40000000  |  1073741824 |
|      20 | 0x2067      |        8295 |
|      21 | 0x0020      |          32 |
|      22 | 0x2068      |        8296 |
|      23 | 0x0040      |          64 |
|      24 | 0x2069      |        8297 |
|      25 | 0x0060      |          96 |
|      26 | 0x206A      |        8298 |
|      27 | 0x0080      |         128 |
|      28 | 0x206B      |        8299 |
|      29 | 0x00A0      |         160 |
|      30 | 0x18FC      |        6396 |
|      31 | 0x00C8      |         200 |
|      32 | 0x003C      |          60 |
|      33 | 0x009A      |         154 |
|      34 | 0xFFFFF98B  |  4294965643 |
|      35 | 0x0B83      |        2947 |

## String References

- **6396**: You do not have enough gil.
- **8290**: The minstrel of melodies is my name, For a mere $6 gil I'll recall your past. Your stories of love, anger, triumph, and shame, The river of memories runs deep and vast.
- **8291**: The minstrel of melodies is my name, For a mere $6 gil I'd recall your past. But I find that you're lacking in cash or in fame, So until that time, my kind offer will last.
- **8293**: Which memory will you have recalled? [None./Seekers of Adoulin 1./Seekers of Adoulin 2./Adoulin Quests 1./Adoulin Quests 2./Adoulin Quests 3./Other Quests.]
- **8294**: Which memory will you have recalled? [None./Arciela Appears Again./An Aimless Journey./Honor and Audacity./For Whom Do We Toil?/Calamity in the Kitchen./Predators and Prey./Yggdrasil./A Curse from the Past(pt.1)./A Curse from the Past(pt.2)./The Key./The Disappearance of Nyline(pt.1)./The Disappearance of Nyline(pt.2)./Clear Skies./Beauty and the Beast./In Search of Arciela(pt.1)./In Search of Arciela(pt.2)./Drifting Northwest./Kumhau, the Flashfrost Naakual./Tree Grafting./The Light of Dawn Comes...(pt.1)./The Light of Dawn Comes...(pt.2)./Seeds of Doubt(pt.1)./Seeds of Doubt(pt.2)./A Grave Mistake./An Emergency Convocation./Balamor, the Deathborne Xol(pt.1)./Balamor, the Deathborne Xol(pt.2)./Balamor, the Deathborne Xol(pt.3).]
- **8295**: Which memory will you have recalled? [None./Anagnorisis./Arciela's Resolve./Royal Blessings(pt.1)./Royal Blessings(pt.2)./Arciela's Missive./Undying Light./The Light Within(pt.1)./The Light Within(pt.2)./The Light Within(pt.3).]
- **8296**: Which memory will you have recalled? [None./Don't Ever Leaf Me(pt.1)./Don't Ever Leaf Me(pt.2)./Don't Ever Leaf Me(pt.3)./Don't Ever Leaf Me(pt.4)./Don't Ever Leaf Me(pt.5)./Keep Your Bloomers On, Erisa(pt.1)./Keep Your Bloomers On, Erisa(pt.2)./Keep Your Bloomers On, Erisa(pt.3)./Keep Your Bloomers On, Erisa(pt.4)./Keep Your Bloomers On, Erisa(pt.5)./Children of the Rune(pt.1)./Children of the Rune(pt.2)./Children of the Rune(pt.3)./A Thirst for the Ages(pt.1)./A Thirst for the Ages(pt.2)./A Thirst for the Ages(pt.3)./A Thirst for the Ages(pt.4)./Thorn in the Side(pt.1)./Thorn in the Side(pt.2)./Endeavoring to Awaken(pt.1)./Endeavoring to Awaken(pt.2)./Endeavoring to Awaken(pt.3)./Endeavoring to Awaken(pt.4)./Endeavoring to Awaken(pt.5)./For Whom the Bell Tolls./The Bloodline of Zacariah./The Communion./Bagua Attire./Saved by the Bell./Geomancerrific.]
- **8297**: Which memory will you have recalled? [None./Forging New Bonds(pt.1)./Forging New Bonds(pt.2)./Legacies Lost and Found(pt.1)./Legacies Lost and Found(pt.2)./Legacies Lost and Found(pt.3)./Destiny's Device(pt.1)./Destiny's Device(pt.2)./Destiny's Device(pt.3)./Velkkovert Operations(pt.1)./Velkkovert Operations(pt.2)./Hypocritical Oath(pt.1)./Hypocritical Oath(pt.2)./The Good, the Bad, the Clement(pt.1)./The Good, the Bad, the Clement(pt.2)./The Secret to Success(pt.1)./The Secret to Success(pt.2)./The Secret to Success(pt.3)./A Thirst for the Eons(pt.1)./A Thirst for the Eons(pt.2)./A Thirst for the Eons(pt.3)./A Thirst for Eternity(pt.1)./A Thirst for Eternity(pt.2)./A Thirst for Eternity(pt.3)./A Thirst for Eternity(pt.4)./A Thirst for Eternity(pt.5)./Eye of the Beholder./No Mercy for the Wicked(pt.1)./No Mercy for the Wicked(pt.2)./No Mercy for the Wicked(pt.3)./Mistress of Ceremonies.]
- **8298**: Which memory will you have recalled? [None./The Curious Case of Melvien(pt.1)./The Curious Case of Melvien(pt.2)./The Curious Case of Melvien(pt.3)./The Curious Case of Melvien(pt.4)./The Curious Case of Melvien(pt.5)./The Weatherspoon War(pt.1)./The Weatherspoon War(pt.2)./The Weatherspoon War(pt.3)./A Thirst Before Time(pt.1)./A Thirst Before Time(pt.2)./A Thirst Before Time(pt.3)./A Thirst Before Time(pt.4)./A Thirst Before Time(pt.5)./A Thirst Before Time(pt.6)./In the Land of the Blind(pt.1)./In the Land of the Blind(pt.2)./In the Land of the Blind(pt.3)./The Ygnas Directive 1(pt.1)./The Ygnas Directive 1(pt.2)./The Ygnas Directive 2./The Ygnas Directive 3(pt.1)./The Ygnas Directive 3(pt.2)./The Ygnas Directive 3(pt.3)./The Ygnas Directive 3(pt.4)./The Ygnas Directive 3(pt.5)./The Ygnas Directive 3(pt.6)./The Ygnas Directive 3(pt.7)./The Ygnas Directive 4.]
- **8299**: Which memory will you have recalled? [None./Trust (Ingrid)./Alluvion Skirmishes.]

## Events

### Event 65535

#### Metadata

| Field        | Value   |
|--------------|---------|
| Entrypoint   | 0x0000  |
| Data Size    | 1 bytes |
| Instructions | 1       |

```
      00 01 02 03 04 05 06 07  08 09 0A 0B 0C 0D 0E 0F
      -- -- -- -- -- -- -- --  -- -- -- -- -- -- -- --
0000: 00                                                .               
```

#### Opcodes

```
  0: 0x0000 [0x00] END_REQSTACK()
```

### Event 0

#### Metadata

| Field        | Value     |
|--------------|-----------|
| Entrypoint   | 0x0001    |
| Data Size    | 550 bytes |
| Instructions | 103       |

```
      00 01 02 03 04 05 06 07  08 09 0A 0B 0C 0D 0E 0F
      -- -- -- -- -- -- -- --  -- -- -- -- -- -- -- --
0000:    53 F8 FF FF 7F F8 FF  FF 7F 65 74 6F 6E 1E F0   S........eton..
0010: FF FF 7F 02 08 10 09 10  02 21 00 1D 00 80 23 21  .........!....#!
0020: 00 03 00 00 01 80 02 02  10 02 80 01 35 00 3D 00  ............5.=.
0030: 00 03 80 03 80 02 03 10  02 80 01 44 00 3D 00 00  ...........D.=..
0040: 04 80 03 80 02 04 10 02  80 01 53 00 3D 00 00 05  ..........S.=...
0050: 80 03 80 02 05 10 02 80  01 62 00 3D 00 00 06 80  .........b.=....
0060: 03 80 02 06 10 02 80 01  71 00 3D 00 00 07 80 03  ........q.=.....
0070: 80 02 07 10 02 80 01 80  00 3D 00 00 08 80 03 80  .........=......
0080: 02 00 00 01 80 00 8E 00  1D 00 80 23 21 00 1D 09  ...........#!...
0090: 80 23 02 00 00 0A 80 00  9D 00 01 E4 00 02 00 00  .#..............
00A0: 0B 80 00 A8 00 01 13 01  02 00 00 0C 80 00 B3 00  ................
00B0: 01 42 01 02 00 00 0D 80  00 BE 00 01 71 01 02 00  .B..........q...
00C0: 00 0E 80 00 C9 00 01 A0  01 02 00 00 0F 80 00 D4  ................
00D0: 00 01 CF 01 24 10 80 11  80 00 00 25 02 00 10 03  ....$......%....
00E0: 80 00 0B 01 24 12 80 11  80 02 10 25 02 00 10 11  ....$......%....
00F0: 80 00 FE 00 03 01 10 13  80 21 00 01 08 01 03 01  .........!......
0100: 10 11 80 0E 01 10 00 10  01 FD 01 02 00 10 04 80  ................
0110: 00 3A 01 24 14 80 11 80  03 10 25 02 00 10 11 80  .:.$......%.....
0120: 00 2D 01 03 01 10 13 80  21 00 01 37 01 03 01 10  .-......!..7....
0130: 15 80 0E 01 10 00 10 01  FD 01 02 00 10 05 80 00  ................
0140: 69 01 24 16 80 11 80 04  10 25 02 00 10 11 80 00  i.$......%......
0150: 5C 01 03 01 10 13 80 21  00 01 66 01 03 01 10 17  \......!..f.....
0160: 80 0E 01 10 00 10 01 FD  01 02 00 10 06 80 00 98  ................
0170: 01 24 18 80 11 80 05 10  25 02 00 10 11 80 00 8B  .$......%.......
0180: 01 03 01 10 13 80 21 00  01 95 01 03 01 10 19 80  ......!.........
0190: 0E 01 10 00 10 01 FD 01  02 00 10 07 80 00 C7 01  ................
01A0: 24 1A 80 11 80 06 10 25  02 00 10 11 80 00 BA 01  $......%........
01B0: 03 01 10 13 80 21 00 01  C4 01 03 01 10 1B 80 0E  .....!..........
01C0: 01 10 00 10 01 FD 01 02  00 10 08 80 00 F6 01 24  ...............$
01D0: 1C 80 11 80 07 10 25 02  00 10 11 80 00 E9 01 03  ......%.........
01E0: 01 10 13 80 21 00 01 F3  01 03 01 10 1D 80 0E 01  ....!...........
01F0: 10 00 10 01 FD 01 03 01  10 13 80 21 00 42 43 00  ...........!.BC.
0200: 43 01 02 02 10 11 80 00  10 02 48 1E 80 01 25 02  C.........H...%.
0210: 45 1F 80 F8 FF FF 7F F8  FF FF 7F 66 64 6F 31 11  E..........fdo1.
0220: 80 1C 20 80 30 21 00                              .. .0!.         
```

#### Opcodes

```
  0: 0x0001 [0x53] WAIT_SCHEDULER_TASK: Wait for scheduler "eton" with entities [EventEntity, EventEntity]
  1: 0x000E [0x1E] EventEntity looks at LocalPlayer and starts talking
  2: 0x0013 [0x02] IF !(Work_Zone[8] <= Work_Zone[9]) GOTO 0x0021
  3: 0x001B [0x1D] PRINT_EVENT_MESSAGE(message_id=8291*)
    → "The minstrel of melodies is my name, For a mere $6 gil I'd recall your past. But I find that you're lacking in cash or in fame, So until that time, my kind offer will last."
  4: 0x001E [0x23] WAIT_FOR_DIALOG_INTERACTION
  5: 0x001F [0x21] END_EVENT
  6: 0x0020 [0x00] END_REQSTACK()
  7: 0x0021 [0x03] ExtData[1]->WorkLocal[0] = 126*
  8: 0x0026 [0x02] IF !(Work_Zone[2] == 4294967294*) GOTO 0x0035
  9: 0x002E [0x3D] CLEAR_BIT_FLAG_CONDITIONAL(target_work_offset=ExtData[1]->WorkLocal[0], bit_index_work_offset=1*, condition_work_offset=1*)
 10: 0x0035 [0x02] IF !(Work_Zone[3] == 4294967294*) GOTO 0x0044
 11: 0x003D [0x3D] CLEAR_BIT_FLAG_CONDITIONAL(target_work_offset=ExtData[1]->WorkLocal[0], bit_index_work_offset=2*, condition_work_offset=1*)
 12: 0x0044 [0x02] IF !(Work_Zone[4] == 4294967294*) GOTO 0x0053
 13: 0x004C [0x3D] CLEAR_BIT_FLAG_CONDITIONAL(target_work_offset=ExtData[1]->WorkLocal[0], bit_index_work_offset=3*, condition_work_offset=1*)
 14: 0x0053 [0x02] IF !(Work_Zone[5] == 4294967294*) GOTO 0x0062
 15: 0x005B [0x3D] CLEAR_BIT_FLAG_CONDITIONAL(target_work_offset=ExtData[1]->WorkLocal[0], bit_index_work_offset=4*, condition_work_offset=1*)
 16: 0x0062 [0x02] IF !(Work_Zone[6] == 4294967294*) GOTO 0x0071
 17: 0x006A [0x3D] CLEAR_BIT_FLAG_CONDITIONAL(target_work_offset=ExtData[1]->WorkLocal[0], bit_index_work_offset=5*, condition_work_offset=1*)
 18: 0x0071 [0x02] IF !(Work_Zone[7] == 4294967294*) GOTO 0x0080
 19: 0x0079 [0x3D] CLEAR_BIT_FLAG_CONDITIONAL(target_work_offset=ExtData[1]->WorkLocal[0], bit_index_work_offset=6*, condition_work_offset=1*)
 20: 0x0080 [0x02] IF !(ExtData[1]->WorkLocal[0] == 126*) GOTO 0x008E
 21: 0x0088 [0x1D] PRINT_EVENT_MESSAGE(message_id=8291*)
    → "The minstrel of melodies is my name, For a mere $6 gil I'd recall your past. But I find that you're lacking in cash or in fame, So until that time, my kind offer will last."
 22: 0x008B [0x23] WAIT_FOR_DIALOG_INTERACTION
 23: 0x008C [0x21] END_EVENT
 24: 0x008D [0x00] END_REQSTACK()
 25: 0x008E [0x1D] PRINT_EVENT_MESSAGE(message_id=8290*)
    → "The minstrel of melodies is my name, For a mere $6 gil I'll recall your past. Your stories of love, anger, triumph, and shame, The river of memories runs deep and vast."
 26: 0x0091 [0x23] WAIT_FOR_DIALOG_INTERACTION
 27: 0x0092 [0x02] IF !(ExtData[1]->WorkLocal[0] == 124*) GOTO 0x009D
 28: 0x009A [0x01] GOTO 0x00E4
 29: 0x009D [0x02] IF !(ExtData[1]->WorkLocal[0] == 122*) GOTO 0x00A8
 30: 0x00A5 [0x01] GOTO 0x0113
 31: 0x00A8 [0x02] IF !(ExtData[1]->WorkLocal[0] == 118*) GOTO 0x00B3
 32: 0x00B0 [0x01] GOTO 0x0142
 33: 0x00B3 [0x02] IF !(ExtData[1]->WorkLocal[0] == 110*) GOTO 0x00BE
 34: 0x00BB [0x01] GOTO 0x0171
 35: 0x00BE [0x02] IF !(ExtData[1]->WorkLocal[0] == 94*) GOTO 0x00C9
 36: 0x00C6 [0x01] GOTO 0x01A0
 37: 0x00C9 [0x02] IF !(ExtData[1]->WorkLocal[0] == 62*) GOTO 0x00D4
 38: 0x00D1 [0x01] GOTO 0x01CF
 39: 0x00D4 [0x24] CREATE_DIALOG(message_id=8293*, default_option=0*, option_flags=ExtData[1]->WorkLocal[0])
    → "Which memory will you have recalled? [None./Seekers of Adoulin 1./Seekers of Adoulin 2./Adoulin Quests 1./Adoulin Quests 2./Adoulin Quests 3./Other Quests.]"
 40: 0x00DB [0x25] WAIT_DIALOG_SELECT()
 41: 0x00DC [0x02] IF !(Work_Zone[0] == 1*) GOTO 0x010B

SUBROUTINE_00E4:
 42: 0x00E4 [0x24] CREATE_DIALOG(message_id=8294*, default_option=0*, option_flags=Work_Zone[2])
    → "Which memory will you have recalled? [None./Arciela Appears Again./An Aimless Journey./Honor and Audacity./For Whom Do We Toil?/Calamity in the Kitchen./Predators and Prey./Yggdrasil./A Curse from the Past(pt.1)./A Curse from the Past(pt.2)./The Key./The Disappearance of Nyline(pt.1)./The Disappearance of Nyline(pt.2)./Clear Skies./Beauty and the Beast./In Search of Arciela(pt.1)./In Search of Arciela(pt.2)./Drifting Northwest./Kumhau, the Flashfrost Naakual./Tree Grafting./The Light of Dawn Comes...(pt.1)./The Light of Dawn Comes...(pt.2)./Seeds of Doubt(pt.1)./Seeds of Doubt(pt.2)./A Grave Mistake./An Emergency Convocation./Balamor, the Deathborne Xol(pt.1)./Balamor, the Deathborne Xol(pt.2)./Balamor, the Deathborne Xol(pt.3).]"
 43: 0x00EB [0x25] WAIT_DIALOG_SELECT()
 44: 0x00EC [0x02] IF !(Work_Zone[0] == 0*) GOTO 0x00FE
 45: 0x00F4 [0x03] Work_Zone[1] = 1073741824*
 46: 0x00F9 [0x21] END_EVENT
 47: 0x00FA [0x00] END_REQSTACK()

SUBROUTINE_0108:
 48: 0x0108 [0x01] GOTO 0x01FD
 49: 0x010B [0x02] IF !(Work_Zone[0] == 2*) GOTO 0x013A

SUBROUTINE_0113:
 50: 0x0113 [0x24] CREATE_DIALOG(message_id=8295*, default_option=0*, option_flags=Work_Zone[3])
    → "Which memory will you have recalled? [None./Anagnorisis./Arciela's Resolve./Royal Blessings(pt.1)./Royal Blessings(pt.2)./Arciela's Missive./Undying Light./The Light Within(pt.1)./The Light Within(pt.2)./The Light Within(pt.3).]"
 51: 0x011A [0x25] WAIT_DIALOG_SELECT()
 52: 0x011B [0x02] IF !(Work_Zone[0] == 0*) GOTO 0x012D
 53: 0x0123 [0x03] Work_Zone[1] = 1073741824*
 54: 0x0128 [0x21] END_EVENT
 55: 0x0129 [0x00] END_REQSTACK()

SUBROUTINE_0137:
 56: 0x0137 [0x01] GOTO 0x01FD
 57: 0x013A [0x02] IF !(Work_Zone[0] == 3*) GOTO 0x0169

SUBROUTINE_0142:
 58: 0x0142 [0x24] CREATE_DIALOG(message_id=8296*, default_option=0*, option_flags=Work_Zone[4])
    → "Which memory will you have recalled? [None./Don't Ever Leaf Me(pt.1)./Don't Ever Leaf Me(pt.2)./Don't Ever Leaf Me(pt.3)./Don't Ever Leaf Me(pt.4)./Don't Ever Leaf Me(pt.5)./Keep Your Bloomers On, Erisa(pt.1)./Keep Your Bloomers On, Erisa(pt.2)./Keep Your Bloomers On, Erisa(pt.3)./Keep Your Bloomers On, Erisa(pt.4)./Keep Your Bloomers On, Erisa(pt.5)./Children of the Rune(pt.1)./Children of the Rune(pt.2)./Children of the Rune(pt.3)./A Thirst for the Ages(pt.1)./A Thirst for the Ages(pt.2)./A Thirst for the Ages(pt.3)./A Thirst for the Ages(pt.4)./Thorn in the Side(pt.1)./Thorn in the Side(pt.2)./Endeavoring to Awaken(pt.1)./Endeavoring to Awaken(pt.2)./Endeavoring to Awaken(pt.3)./Endeavoring to Awaken(pt.4)./Endeavoring to Awaken(pt.5)./For Whom the Bell Tolls./The Bloodline of Zacariah./The Communion./Bagua Attire./Saved by the Bell./Geomancerrific.]"
 59: 0x0149 [0x25] WAIT_DIALOG_SELECT()
 60: 0x014A [0x02] IF !(Work_Zone[0] == 0*) GOTO 0x015C
 61: 0x0152 [0x03] Work_Zone[1] = 1073741824*
 62: 0x0157 [0x21] END_EVENT
 63: 0x0158 [0x00] END_REQSTACK()

SUBROUTINE_0166:
 64: 0x0166 [0x01] GOTO 0x01FD
 65: 0x0169 [0x02] IF !(Work_Zone[0] == 4*) GOTO 0x0198

SUBROUTINE_0171:
 66: 0x0171 [0x24] CREATE_DIALOG(message_id=8297*, default_option=0*, option_flags=Work_Zone[5])
    → "Which memory will you have recalled? [None./Forging New Bonds(pt.1)./Forging New Bonds(pt.2)./Legacies Lost and Found(pt.1)./Legacies Lost and Found(pt.2)./Legacies Lost and Found(pt.3)./Destiny's Device(pt.1)./Destiny's Device(pt.2)./Destiny's Device(pt.3)./Velkkovert Operations(pt.1)./Velkkovert Operations(pt.2)./Hypocritical Oath(pt.1)./Hypocritical Oath(pt.2)./The Good, the Bad, the Clement(pt.1)./The Good, the Bad, the Clement(pt.2)./The Secret to Success(pt.1)./The Secret to Success(pt.2)./The Secret to Success(pt.3)./A Thirst for the Eons(pt.1)./A Thirst for the Eons(pt.2)./A Thirst for the Eons(pt.3)./A Thirst for Eternity(pt.1)./A Thirst for Eternity(pt.2)./A Thirst for Eternity(pt.3)./A Thirst for Eternity(pt.4)./A Thirst for Eternity(pt.5)./Eye of the Beholder./No Mercy for the Wicked(pt.1)./No Mercy for the Wicked(pt.2)./No Mercy for the Wicked(pt.3)./Mistress of Ceremonies.]"
 67: 0x0178 [0x25] WAIT_DIALOG_SELECT()
 68: 0x0179 [0x02] IF !(Work_Zone[0] == 0*) GOTO 0x018B
 69: 0x0181 [0x03] Work_Zone[1] = 1073741824*
 70: 0x0186 [0x21] END_EVENT
 71: 0x0187 [0x00] END_REQSTACK()

SUBROUTINE_0195:
 72: 0x0195 [0x01] GOTO 0x01FD
 73: 0x0198 [0x02] IF !(Work_Zone[0] == 5*) GOTO 0x01C7

SUBROUTINE_01A0:
 74: 0x01A0 [0x24] CREATE_DIALOG(message_id=8298*, default_option=0*, option_flags=Work_Zone[6])
    → "Which memory will you have recalled? [None./The Curious Case of Melvien(pt.1)./The Curious Case of Melvien(pt.2)./The Curious Case of Melvien(pt.3)./The Curious Case of Melvien(pt.4)./The Curious Case of Melvien(pt.5)./The Weatherspoon War(pt.1)./The Weatherspoon War(pt.2)./The Weatherspoon War(pt.3)./A Thirst Before Time(pt.1)./A Thirst Before Time(pt.2)./A Thirst Before Time(pt.3)./A Thirst Before Time(pt.4)./A Thirst Before Time(pt.5)./A Thirst Before Time(pt.6)./In the Land of the Blind(pt.1)./In the Land of the Blind(pt.2)./In the Land of the Blind(pt.3)./The Ygnas Directive 1(pt.1)./The Ygnas Directive 1(pt.2)./The Ygnas Directive 2./The Ygnas Directive 3(pt.1)./The Ygnas Directive 3(pt.2)./The Ygnas Directive 3(pt.3)./The Ygnas Directive 3(pt.4)./The Ygnas Directive 3(pt.5)./The Ygnas Directive 3(pt.6)./The Ygnas Directive 3(pt.7)./The Ygnas Directive 4.]"
 75: 0x01A7 [0x25] WAIT_DIALOG_SELECT()
 76: 0x01A8 [0x02] IF !(Work_Zone[0] == 0*) GOTO 0x01BA
 77: 0x01B0 [0x03] Work_Zone[1] = 1073741824*
 78: 0x01B5 [0x21] END_EVENT
 79: 0x01B6 [0x00] END_REQSTACK()

SUBROUTINE_01C4:
 80: 0x01C4 [0x01] GOTO 0x01FD
 81: 0x01C7 [0x02] IF !(Work_Zone[0] == 6*) GOTO 0x01F6

SUBROUTINE_01CF:
 82: 0x01CF [0x24] CREATE_DIALOG(message_id=8299*, default_option=0*, option_flags=Work_Zone[7])
    → "Which memory will you have recalled? [None./Trust (Ingrid)./Alluvion Skirmishes.]"
 83: 0x01D6 [0x25] WAIT_DIALOG_SELECT()
 84: 0x01D7 [0x02] IF !(Work_Zone[0] == 0*) GOTO 0x01E9
 85: 0x01DF [0x03] Work_Zone[1] = 1073741824*
 86: 0x01E4 [0x21] END_EVENT
 87: 0x01E5 [0x00] END_REQSTACK()

SUBROUTINE_01F3:
 88: 0x01F3 [0x01] GOTO 0x01FD
 89: 0x01F6 [0x03] Work_Zone[1] = 1073741824*
 90: 0x01FB [0x21] END_EVENT
 91: 0x01FC [0x00] END_REQSTACK()

SUBROUTINE_01FD:
 92: 0x01FD [0x42] SET_CLI_EVENT_CANCEL_DATA()
 93: 0x01FE [0x43] SEND_EVENT_UPDATE: Send pending tag to server (packet 0x005B)
 94: 0x0200 [0x43] SEND_EVENT_UPDATE: Check pending flag (skip if not pending)
 95: 0x0202 [0x02] IF !(Work_Zone[2] == 0*) GOTO 0x0210
 96: 0x020A [0x48] [System] [6396*]:
    → "You do not have enough gil."
 97: 0x020D [0x01] GOTO 0x0225
 98: 0x0210 [0x45] LOAD_SCHEDULED_TASK: Load scheduler "fdo1" with entities [EventEntity, EventEntity], work=[200*, 0*]
 99: 0x0221 [0x1C] WAIT(60* ticks)
100: 0x0224 [0x30] SET_UCOFF_CONTINUE_ZERO()

SUBROUTINE_0225:
101: 0x0225 [0x21] END_EVENT
102: 0x0226 [0x00] END_REQSTACK()
```

#### Data or dead code:

```
# Dead code (unreachable instructions):
     0x00FB [0x01] GOTO 0x0108
# Dead code (unreachable instructions):
     0x012A [0x01] GOTO 0x0137
# Dead code (unreachable instructions):
     0x0159 [0x01] GOTO 0x0166
# Dead code (unreachable instructions):
     0x0188 [0x01] GOTO 0x0195
# Dead code (unreachable instructions):
     0x01B7 [0x01] GOTO 0x01C4
# Dead code (unreachable instructions):
     0x01E6 [0x01] GOTO 0x01F3
```

### Event 65535.1

#### Metadata

| Field        | Value    |
|--------------|----------|
| Entrypoint   | 0x0227   |
| Data Size    | 10 bytes |
| Instructions | 2        |

```
      00 01 02 03 04 05 06 07  08 09 0A 0B 0C 0D 0E 0F
      -- -- -- -- -- -- -- --  -- -- -- -- -- -- -- --
0220:                      37  21 80 22 80 11 80 23 80         7!."...#.
0230: 00                                                .               
```

#### Opcodes

```
  0: 0x0227 [0x37] UPDATE_EVENT_POSITION_AND_DIR: x=0.154*, z=-1.653*, y=0.000*, direction=259.0°*
  1: 0x0230 [0x00] END_REQSTACK()
```
