# 17830135 - DIRECTOR by yaeko

## Common Data

| Field            | Value                     |
|------------------|---------------------------|
| Zone             | Eastern Adoulin (ID: 257) |
| Block Size       | 8920 bytes                |
| Total Events     | 4                         |
| References Count | 137                       |

## List of Events

| Event ID              | Entrypoint   |   Size |   Instructions |
|-----------------------|--------------|--------|----------------|
| [65535](#event-65535) | 0x0000       |      1 |              1 |
| [34](#event-34)       | 0x0001       |   2380 |            313 |
| [37](#event-37)       | 0x094D       |   2390 |            312 |
| [39](#event-39)       | 0x12A3       |   3567 |            449 |

## DAT References (imed_data)

|   Index | Hex Value   |   Dec Value |
|---------|-------------|-------------|
|       0 | 0x00C8      |         200 |
|       1 | 0x0000      |           0 |
|       2 | 0x0013      |          19 |
|       3 | 0x0005      |           5 |
|       4 | 0x0294      |         660 |
|       5 | 0x0006      |           6 |
|       6 | 0x007F      |         127 |
|       7 | 0x0001      |           1 |
|       8 | 0x293D      |       10557 |
|       9 | 0x293E      |       10558 |
|      10 | 0x001E      |          30 |
|      11 | 0x0014      |          20 |
|      12 | 0x293F      |       10559 |
|      13 | 0x2940      |       10560 |
|      14 | 0x2941      |       10561 |
|      15 | 0x2942      |       10562 |
|      16 | 0x07F5      |        2037 |
|      17 | 0x0028      |          40 |
|      18 | 0x2943      |       10563 |
|      19 | 0x2944      |       10564 |
|      20 | 0x0251      |         593 |
|      21 | 0x00FF      |         255 |
|      22 | 0x003C      |          60 |
|      23 | 0x2945      |       10565 |
|      24 | 0x0096      |         150 |
|      25 | 0x2946      |       10566 |
|      26 | 0x0050      |          80 |
|      27 | 0x2947      |       10567 |
|      28 | 0x2948      |       10568 |
|      29 | 0x2949      |       10569 |
|      30 | 0x294A      |       10570 |
|      31 | 0x294B      |       10571 |
|      32 | 0x294C      |       10572 |
|      33 | 0xFFFFFED4  |  4294966996 |
|      34 | 0x294D      |       10573 |
|      35 | 0x294E      |       10574 |
|      36 | 0x294F      |       10575 |
|      37 | 0x2950      |       10576 |
|      38 | 0x2951      |       10577 |
|      39 | 0x2952      |       10578 |
|      40 | 0x2953      |       10579 |
|      41 | 0x2954      |       10580 |
|      42 | 0xFFFFFBCF  |  4294966223 |
|      43 | 0xFFFFC49C  |  4294952092 |
|      44 | 0x078D      |        1933 |
|      45 | 0x2955      |       10581 |
|      46 | 0x2956      |       10582 |
|      47 | 0x005A      |          90 |
|      48 | 0x2957      |       10583 |
|      49 | 0x2958      |       10584 |
|      50 | 0x2959      |       10585 |
|      51 | 0x02BD      |         701 |
|      52 | 0x003F      |          63 |
|      53 | 0x0002      |           2 |
|      54 | 0x295F      |       10591 |
|      55 | 0x2960      |       10592 |
|      56 | 0x0044      |          68 |
|      57 | 0x2961      |       10593 |
|      58 | 0x2962      |       10594 |
|      59 | 0x2963      |       10595 |
|      60 | 0x012C      |         300 |
|      61 | 0x2964      |       10596 |
|      62 | 0x2965      |       10597 |
|      63 | 0x2966      |       10598 |
|      64 | 0x0078      |         120 |
|      65 | 0x0008      |           8 |
|      66 | 0x0320      |         800 |
|      67 | 0x0834      |        2100 |
|      68 | 0x2967      |       10599 |
|      69 | 0x2968      |       10600 |
|      70 | 0x07E8      |        2024 |
|      71 | 0x2969      |       10601 |
|      72 | 0x296A      |       10602 |
|      73 | 0x296B      |       10603 |
|      74 | 0x296C      |       10604 |
|      75 | 0x296D      |       10605 |
|      76 | 0x296E      |       10606 |
|      77 | 0x6DA2      |       28066 |
|      78 | 0x296F      |       10607 |
|      79 | 0x2970      |       10608 |
|      80 | 0x2971      |       10609 |
|      81 | 0x2972      |       10610 |
|      82 | 0x2973      |       10611 |
|      83 | 0x2974      |       10612 |
|      84 | 0x2975      |       10613 |
|      85 | 0x00C9      |         201 |
|      86 | 0x006E      |         110 |
|      87 | 0xFFFFFA24  |  4294965796 |
|      88 | 0x2977      |       10615 |
|      89 | 0x2978      |       10616 |
|      90 | 0x2979      |       10617 |
|      91 | 0x297A      |       10618 |
|      92 | 0x297B      |       10619 |
|      93 | 0x297C      |       10620 |
|      94 | 0x297D      |       10621 |
|      95 | 0x297E      |       10622 |
|      96 | 0x0400      |        1024 |
|      97 | 0x297F      |       10623 |
|      98 | 0x2980      |       10624 |
|      99 | 0x2981      |       10625 |
|     100 | 0x0064      |         100 |
|     101 | 0x0383      |         899 |
|     102 | 0x0AF3      |        2803 |
|     103 | 0x2982      |       10626 |
|     104 | 0x003E      |          62 |
|     105 | 0x009D      |         157 |
|     106 | 0x2983      |       10627 |
|     107 | 0x2984      |       10628 |
|     108 | 0x2985      |       10629 |
|     109 | 0x2986      |       10630 |
|     110 | 0x2987      |       10631 |
|     111 | 0x2988      |       10632 |
|     112 | 0x2989      |       10633 |
|     113 | 0x298A      |       10634 |
|     114 | 0x298B      |       10635 |
|     115 | 0x298C      |       10636 |
|     116 | 0x298D      |       10637 |
|     117 | 0x00B4      |         180 |
|     118 | 0x0CB4      |        3252 |
|     119 | 0x0032      |          50 |
|     120 | 0x298E      |       10638 |
|     121 | 0x298F      |       10639 |
|     122 | 0x2990      |       10640 |
|     123 | 0x2991      |       10641 |
|     124 | 0x2992      |       10642 |
|     125 | 0x2993      |       10643 |
|     126 | 0x06A4      |        1700 |
|     127 | 0x2994      |       10644 |
|     128 | 0x2995      |       10645 |
|     129 | 0x0898      |        2200 |
|     130 | 0x2996      |       10646 |
|     131 | 0x2997      |       10647 |
|     132 | 0x2998      |       10648 |
|     133 | 0x2999      |       10649 |
|     134 | 0x299A      |       10650 |
|     135 | 0x299B      |       10651 |
|     136 | 0x0046      |          70 |

## String References

- **10627**: <Why dost thou think geomancers are aware of the lifestream and able to manipulate the forces of Indi and Geo?>
- **10628**: <Thou appearest to be of the mind that thy control over the lifestream is due to thy dedication and research.>
- **10629**: <It is contemptible beyond compare that thou hast forgotten why we bequeathed this power to thee.>
- **10630**: <Children of Altana, thou seekest naught but destruction. We have always faced thee with fear and trepidation.>
- **10631**: <Thy kind hath forgotten that thou art but one speck of a greater whole, and thus seek to leave thine indelible mark upon our flesh.>
- **10632**: <Yet Sih was different. Sih believed that humanity's calling was to respect and understand us, and she felt that thy kind could carry out this most noble of goals.>
- **10637**: <Thou dost speak like he did... Like Zacariah did... Then thou art upholding the oath we made him swear in centuries past. Prove thy dedication...in the land where he resides.>

## Events

### Event 65535

#### Metadata

| Field        | Value   |
|--------------|---------|
| Entrypoint   | 0x0000  |
| Data Size    | 1 bytes |
| Instructions | 1       |

```
      00 01 02 03 04 05 06 07  08 09 0A 0B 0C 0D 0E 0F
      -- -- -- -- -- -- -- --  -- -- -- -- -- -- -- --
0000: 00                                                .               
```

#### Opcodes

```
  0: 0x0000 [0x00] END_REQSTACK()
```

### Event 34

#### Metadata

| Field        | Value      |
|--------------|------------|
| Entrypoint   | 0x0001     |
| Data Size    | 2380 bytes |
| Instructions | 313        |

```
      00 01 02 03 04 05 06 07  08 09 0A 0B 0C 0D 0E 0F
      -- -- -- -- -- -- -- --  -- -- -- -- -- -- -- --
0000:    42 46 01 45 00 80 F0  FF FF 7F F0 FF FF 7F 66   BF.E..........f
0010: 64 6F 31 01 80 55 00 80  F0 FF FF 7F F0 FF FF 7F  do1..U..........
0020: 66 64 6F 31 38 02 80 5D  01 80 00 80 29 08 F0 FF  fdo18..]....)...
0030: FF 7F 6E 29 08 F9 10 10  01 02 29 08 F8 10 10 01  ..n)......).....
0040: 1E 80 F8 10 10 01 80 E8  10 10 01 80 F9 10 10 01  ................
0050: 4E 01 F8 10 10 01 29 08  F0 FF FF 7F 03 29 08 F0  N.....)......)..
0060: FF FF 7F 6C 4A F0 FF FF  7F E8 10 10 01 79 00 E8  ...lJ........y..
0070: 10 10 01 F0 FF FF 7F 6F  76 F0 FF FF 7F 29 08 E8  .......ov....)..
0080: 10 10 01 21 02 09 10 03  80 00 A0 00 45 04 80 F0  ...!........E...
0090: FF FF 7F F0 FF FF 7F 73  31 37 30 01 80 01 CD 00  .......s170.....
00A0: 02 09 10 05 80 00 BC 00  45 04 80 F0 FF FF 7F F0  ........E.......
00B0: FF FF 7F 73 31 37 30 01  80 01 CD 00 45 04 80 F0  ...s170.....E...
00C0: FF FF 7F F0 FF FF 7F 73  31 39 31 01 80 92 01 F9  .......s191.....
00D0: 10 10 01 92 01 E8 10 10  01 92 01 F8 10 10 01 5C  ...............\
00E0: 00 06 80 5C 01 06 80 9A  5D 06 80 07 80 45 00 80  ...\....]....E..
00F0: F0 FF FF 7F F0 FF FF 7F  66 64 69 31 01 80 55 00  ........fdi1..U.
0100: 80 F0 FF FF 7F F0 FF FF  7F 66 64 69 31 2B E8 10  .........fdi1+..
0110: 10 01 08 80 23 29 08 E8  10 10 01 22 29 08 E8 10  ....#).....")...
0120: 10 01 23 2B F9 10 10 01  09 80 79 00 F9 10 10 01  ..#+......y.....
0130: F0 FF FF 7F 27 08 F9 10  10 01 03 1C 0A 80 02 09  ....'...........
0140: 10 03 80 00 58 01 52 04  80 F0 FF FF 7F F0 FF FF  ....X.R.........
0150: 7F 73 31 37 30 01 81 01  02 09 10 05 80 00 72 01  .s170.........r.
0160: 52 04 80 F0 FF FF 7F F0  FF FF 7F 73 31 37 30 01  R..........s170.
0170: 81 01 52 04 80 F0 FF FF  7F F0 FF FF 7F 73 31 39  ..R..........s19
0180: 31 45 04 80 F0 FF FF 7F  F0 FF FF 7F 73 31 37 31  1E..........s171
0190: 01 80 1C 0A 80 4A F0 FF  FF 7F F9 10 10 01 29 08  .....J........).
01A0: E8 10 10 01 24 79 00 E8  10 10 01 F9 10 10 01 2A  ....$y.........*
01B0: 08 F9 10 10 01 1C 0A 80  23 52 04 80 F0 FF FF 7F  ........#R......
01C0: F0 FF FF 7F 73 31 37 31  45 04 80 F0 FF FF 7F F0  ....s171E.......
01D0: FF FF 7F 73 31 37 32 01  80 79 00 F9 10 10 01 E8  ...s172..y......
01E0: 10 10 01 1C 0B 80 2B F9  10 10 01 0C 80 23 52 04  ......+......#R.
01F0: 80 F0 FF FF 7F F0 FF FF  7F 73 31 37 32 45 04 80  .........s172E..
0200: F0 FF FF 7F F0 FF FF 7F  73 31 37 34 01 80 27 08  ........s174..'.
0210: E8 10 10 01 33 2B E8 10  10 01 0D 80 23 29 08 F9  ....3+......#)..
0220: 10 10 01 11 2B F9 10 10  01 0E 80 23 29 08 F9 10  ....+......#)...
0230: 10 01 12 29 08 F9 10 10  01 13 2A 08 E8 10 10 01  ...)......*.....
0240: 79 00 F8 10 10 01 F9 10  10 01 4E 00 F8 10 10 01  y.........N.....
0250: 27 08 F8 10 10 01 1F 52  04 80 F0 FF FF 7F F0 FF  '......R........
0260: FF 7F 73 31 37 34 45 04  80 F0 FF FF 7F F0 FF FF  ..s174E.........
0270: 7F 73 31 37 33 01 80 2B  F8 10 10 01 0F 80 1C 0B  .s173..+........
0280: 80 79 00 F9 10 10 01 F8  10 10 01 4B F9 10 10 01  .y.........K....
0290: 10 80 6F 76 F9 10 10 01  1C 11 80 52 04 80 F0 FF  ..ov.......R....
02A0: FF 7F F0 FF FF 7F 73 31  37 33 45 04 80 F0 FF FF  ......s173E.....
02B0: 7F F0 FF FF 7F 73 33 32  31 01 80 23 7B F9 10 10  .....s321..#{...
02C0: 01 29 08 F9 10 10 01 40  2B F9 10 10 01 12 80 23  .).....@+......#
02D0: 29 08 F9 10 10 01 41 27  08 F8 10 10 01 17 2B F8  ).....A'......+.
02E0: 10 10 01 13 80 23 45 00  80 F0 FF FF 7F F0 FF FF  .....#E.........
02F0: 7F 66 64 6F 31 01 80 55  00 80 F0 FF FF 7F F0 FF  .fdo1..U........
0300: FF 7F 66 64 6F 31 52 04  80 F0 FF FF 7F F0 FF FF  ..fdo1R.........
0310: 7F 73 33 32 31 34 14 80  77 15 80 07 80 2A 08 F8  .s3214..w....*..
0320: 10 10 01 29 08 F0 FF FF  7F 6F 29 08 F9 10 10 01  ...).....o).....
0330: 04 29 08 F8 10 10 01 20  29 08 FA 10 10 01 06 29  .)..... )......)
0340: 08 FB 10 10 01 06 29 08  FC 10 10 01 06 80 FA 10  ......).........
0350: 10 01 80 FB 10 10 01 80  FC 10 10 01 92 01 FA 10  ................
0360: 10 01 92 01 FB 10 10 01  92 01 FC 10 10 01 2C B5  ..............,.
0370: 10 10 01 B5 10 10 01 6F  70 65 6E 1C 16 80 79 00  .......open...y.
0380: F0 FF FF 7F F8 10 10 01  27 08 F0 FF FF 7F 70 27  ........'.....p'
0390: 08 F9 10 10 01 05 27 08  F8 10 10 01 21 45 04 80  ......'.....!E..
03A0: F0 FF FF 7F F0 FF FF 7F  73 31 37 35 01 80 45 00  ........s175..E.
03B0: 80 F0 FF FF 7F F0 FF FF  7F 66 64 69 31 01 80 55  .........fdi1..U
03C0: 00 80 F0 FF FF 7F F0 FF  FF 7F 66 64 69 31 1C 16  ..........fdi1..
03D0: 80 79 00 FC 10 10 01 F8  10 10 01 2B F8 10 10 01  .y.........+....
03E0: 17 80 1C 18 80 52 04 80  F0 FF FF 7F F0 FF FF 7F  .....R..........
03F0: 73 31 37 35 45 04 80 F0  FF FF 7F F0 FF FF 7F 73  s175E..........s
0400: 31 37 36 01 80 2A 08 F9  10 10 01 4A FB 10 10 01  176..*.....J....
0410: F8 10 10 01 2A 08 F8 10  10 01 23 4A F9 10 10 01  ....*.....#J....
0420: F8 10 10 01 2B F8 10 10  01 19 80 23 6F 76 F9 10  ....+......#ov..
0430: 10 01 6F 76 FB 10 10 01  52 04 80 F0 FF FF 7F F0  ..ov....R.......
0440: FF FF 7F 73 31 37 36 45  04 80 F0 FF FF 7F F0 FF  ...s176E........
0450: FF 7F 73 31 37 37 01 80  4A F8 10 10 01 F9 10 10  ..s177..J.......
0460: 01 6F 76 F8 10 10 01 1C  1A 80 27 08 F8 10 10 01  .ov.......'.....
0470: 17 1C 0B 80 2B F8 10 10  01 1B 80 23 2A 08 F8 10  ....+......#*...
0480: 10 01 27 08 F9 10 10 01  4D 2B F9 10 10 01 1C 80  ..'.....M+......
0490: 23 2A 08 F9 10 10 01 52  04 80 F0 FF FF 7F F0 FF  #*.....R........
04A0: FF 7F 73 31 37 37 45 04  80 F0 FF FF 7F F0 FF FF  ..s177E.........
04B0: 7F 73 31 37 38 01 80 79  00 F0 FF FF 7F F9 10 10  .s178..y........
04C0: 01 29 08 F9 10 10 01 28  2B F9 10 10 01 1D 80 23  .).....(+......#
04D0: 29 08 F9 10 10 01 29 29  08 F9 10 10 01 30 2B F9  ).....)).....0+.
04E0: 10 10 01 1E 80 23 52 04  80 F0 FF FF 7F F0 FF FF  .....#R.........
04F0: 7F 73 31 37 38 45 04 80  F0 FF FF 7F F0 FF FF 7F  .s178E..........
0500: 73 31 38 30 01 80 29 08  F9 10 10 01 31 29 08 F9  s180..).....1)..
0510: 10 10 01 2A 29 08 F9 10  10 01 2B 79 00 FC 10 10  ...*).....+y....
0520: 01 F9 10 10 01 29 08 F9  10 10 01 1A 2B F9 10 10  .....)......+...
0530: 01 1F 80 23 29 08 F9 10  10 01 1B 52 04 80 F0 FF  ...#)......R....
0540: FF 7F F0 FF FF 7F 73 31  38 30 45 04 80 F0 FF FF  ......s180E.....
0550: 7F F0 FF FF 7F 73 31 37  39 01 80 79 00 F0 FF FF  .....s179..y....
0560: 7F F8 10 10 01 79 00 FC  10 10 01 F8 10 10 01 29  .....y.........)
0570: 08 F9 10 10 01 1C 27 08  F8 10 10 01 19 2B F8 10  ......'......+..
0580: 10 01 20 80 23 2A 08 F8  10 10 01 29 08 F9 10 10  .. .#*.....)....
0590: 01 1D 52 04 80 F0 FF FF  7F F0 FF FF 7F 73 31 37  ..R..........s17
05A0: 39 45 04 80 F0 FF FF 7F  F0 FF FF 7F 73 31 38 34  9E..........s184
05B0: 01 80 4B F9 10 10 01 21  80 22 00 94 01 F8 FF FF  ..K....!."......
05C0: 7F 27 08 F8 10 10 01 22  2B F8 10 10 01 22 80 23  .'....."+....".#
05D0: 2A 08 F8 10 10 01 2B F9  10 10 01 23 80 23 6F 76  *.....+....#.#ov
05E0: F9 10 10 01 52 04 80 F0  FF FF 7F F0 FF FF 7F 73  ....R..........s
05F0: 31 38 34 45 04 80 F0 FF  FF 7F F0 FF FF 7F 73 31  184E..........s1
0600: 38 31 01 80 2B F8 10 10  01 24 80 23 2B F8 10 10  81..+....$.#+...
0610: 01 25 80 23 52 04 80 F0  FF FF 7F F0 FF FF 7F 73  .%.#R..........s
0620: 31 38 31 45 04 80 F0 FF  FF 7F F0 FF FF 7F 73 31  181E..........s1
0630: 38 32 01 80 29 08 F8 10  10 01 0F 2B F8 10 10 01  82..)......+....
0640: 26 80 23 29 08 F8 10 10  01 10 52 04 80 F0 FF FF  &.#)......R.....
0650: 7F F0 FF FF 7F 73 31 38  32 45 04 80 F0 FF FF 7F  .....s182E......
0660: F0 FF FF 7F 73 31 38 33  01 80 79 00 F8 10 10 01  ....s183..y.....
0670: FB 10 10 01 79 00 F0 FF  FF 7F FB 10 10 01 79 00  ....y.........y.
0680: F9 10 10 01 FB 10 10 01  27 08 FB 10 10 01 07 2B  ........'......+
0690: FB 10 10 01 27 80 23 2A  08 FB 10 10 01 52 04 80  ....'.#*.....R..
06A0: F0 FF FF 7F F0 FF FF 7F  73 31 38 33 45 04 80 F0  ........s183E...
06B0: FF FF 7F F0 FF FF 7F 73  31 38 35 01 80 4E 01 F0  .......s185..N..
06C0: FF FF 7F 29 08 F0 FF FF  7F 71 79 00 FA 10 10 01  ...).....qy.....
06D0: F9 10 10 01 4A F8 10 10  01 FA 10 10 01 79 00 F0  ....J........y..
06E0: FF FF 7F FA 10 10 01 79  00 F9 10 10 01 FA 10 10  .......y........
06F0: 01 27 08 FA 10 10 01 07  2B FA 10 10 01 28 80 23  .'......+....(.#
0700: 2A 08 FA 10 10 01 6F 76  F8 10 10 01 52 04 80 F0  *.....ov....R...
0710: FF FF 7F F0 FF FF 7F 73  31 38 35 45 04 80 F0 FF  .......s185E....
0720: FF 7F F0 FF FF 7F 73 31  38 36 01 80 4E 00 F0 FF  ......s186..N...
0730: FF 7F 79 00 F0 FF FF 7F  FC 10 10 01 29 08 FC 10  ..y.........)...
0740: 10 01 07 4A F9 10 10 01  FC 10 10 01 4A F8 10 10  ...J........J...
0750: 01 FC 10 10 01 2B FC 10  10 01 29 80 23 6F 76 F8  .....+....).#ov.
0760: 10 10 01 6F 76 F9 10 10  01 37 2A 80 2B 80 01 80  ...ov....7*.+...
0770: 2C 80 79 00 F9 10 10 01  F7 10 10 01 52 04 80 F0  ,.y.........R...
0780: FF FF 7F F0 FF FF 7F 73  31 38 36 45 04 80 F0 FF  .......s186E....
0790: FF 7F F0 FF FF 7F 73 31  38 37 01 80 79 00 F8 10  ......s187..y...
07A0: 10 01 F9 10 10 01 2B F8  10 10 01 2D 80 23 52 04  ......+....-.#R.
07B0: 80 F0 FF FF 7F F0 FF FF  7F 73 31 38 37 45 04 80  .........s187E..
07C0: F0 FF FF 7F F0 FF FF 7F  73 31 38 38 01 80 79 00  ........s188..y.
07D0: FB 10 10 01 F9 10 10 01  4A F8 10 10 01 F9 10 10  ........J.......
07E0: 01 79 00 F0 FF FF 7F F9  10 10 01 29 08 F9 10 10  .y.........)....
07F0: 01 40 2B F9 10 10 01 2E  80 23 29 08 F9 10 10 01  .@+......#).....
0800: 41 6F 76 F8 10 10 01 27  08 F9 10 10 01 06 1C 0A  Aov....'........
0810: 80 52 04 80 F0 FF FF 7F  F0 FF FF 7F 73 31 38 38  .R..........s188
0820: 45 04 80 F0 FF FF 7F F0  FF FF 7F 73 31 38 39 01  E..........s189.
0830: 80 29 08 F8 10 10 01 23  79 00 FB 10 10 01 F8 10  .).....#y.......
0840: 10 01 52 04 80 F0 FF FF  7F F0 FF FF 7F 73 31 38  ..R..........s18
0850: 39 45 04 80 F0 FF FF 7F  F0 FF FF 7F 73 31 39 30  9E..........s190
0860: 01 80 4E 01 FC 10 10 01  1C 2F 80 27 08 F8 10 10  ..N....../.'....
0870: 01 18 2B F8 10 10 01 30  80 23 2A 08 F8 10 10 01  ..+....0.#*.....
0880: 52 04 80 F0 FF FF 7F F0  FF FF 7F 73 31 39 30 45  R..........s190E
0890: 04 80 F0 FF FF 7F F0 FF  FF 7F 73 31 39 32 01 80  ..........s192..
08A0: 4A F8 10 10 01 F0 FF FF  7F 6F 76 F8 10 10 01 79  J........ov....y
08B0: 00 F0 FF FF 7F F8 10 10  01 29 08 F8 10 10 01 01  .........)......
08C0: 2B F8 10 10 01 31 80 23  29 08 F8 10 10 01 02 2B  +....1.#)......+
08D0: F8 10 10 01 32 80 23 2A  08 F9 10 10 01 5D 01 80  ....2.#*.....]..
08E0: 00 80 45 00 80 F0 FF FF  7F F0 FF FF 7F 66 64 6F  ..E..........fdo
08F0: 31 01 80 55 00 80 F0 FF  FF 7F F0 FF FF 7F 66 64  1..U..........fd
0900: 6F 31 52 04 80 F0 FF FF  7F F0 FF FF 7F 73 31 39  o1R..........s19
0910: 32 22 01 35 33 80 77 15  80 07 80 1C 07 80 5C 00  2".53.w.......\.
0920: 34 80 5C 01 34 80 9A 5D  06 80 07 80 1C 35 80 29  4.\.4..].....5.)
0930: 08 F0 FF FF 7F 72 46 00  45 00 80 F0 FF FF 7F F0  .....rF.E.......
0940: FF FF 7F 66 64 69 31 01  80 20 00 21 00           ...fdi1.. .!.   
```

#### Opcodes

```
  0: 0x0001 [0x42] SET_CLI_EVENT_CANCEL_DATA()
  1: 0x0002 [0x46] CAMERA_CONTROL: Disable user control
  2: 0x0004 [0x45] LOAD_SCHEDULED_TASK: Load scheduler "fdo1" with entities [LocalPlayer, LocalPlayer], work=[200*, 0*]
  3: 0x0015 [0x55] WAIT_LOAD_SCHEDULER: Wait for scheduler "fdo1" with entities [LocalPlayer, LocalPlayer], work=200*
  4: 0x0024 [0x38] SET_CLIENT_EVENT_MODE(mode=19*)
  5: 0x0027 [0x5D] SET_MUSIC_VOLUME(volume=0*, fade_time=200*)
  6: 0x002C [0x29] REQ_SET_WAIT(priority=0x08, entity_id=LocalPlayer, tag_num=0x6E)
  7: 0x0033 [0x29] REQ_SET_WAIT(priority=0x08, entity_id=Sylvie (ID: 17830137/0x011010F9), tag_num=0x02)
  8: 0x003A [0x29] REQ_SET_WAIT(priority=0x08, entity_id=Lhaiso Neftereh (ID: 17830136/0x011010F8), tag_num=0x1E)
  9: 0x0041 [0x80] LOAD_WAIT(entity=Lhaiso Neftereh (ID: 17830136/0x011010F8))
 10: 0x0046 [0x80] LOAD_WAIT(entity=Nhili Uvolep (ID: 17830120/0x011010E8))
 11: 0x004B [0x80] LOAD_WAIT(entity=Sylvie (ID: 17830137/0x011010F9))
 12: 0x0050 [0x4E] SET_ENTITY_HIDE_FLAG: Hide Lhaiso Neftereh (ID: 17830136/0x011010F8)
 13: 0x0056 [0x29] REQ_SET_WAIT(priority=0x08, entity_id=LocalPlayer, tag_num=0x03)
 14: 0x005D [0x29] REQ_SET_WAIT(priority=0x08, entity_id=LocalPlayer, tag_num=0x6C)
 15: 0x0064 [0x4A] LocalPlayer looks at Nhili Uvolep (ID: 17830120/0x011010E8)
 16: 0x006D [0x79] Nhili Uvolep (ID: 17830120/0x011010E8) looks at LocalPlayer (Basic look)
 17: 0x0077 [0x6F] WAIT_FRAME_DELAY: Yield until WaitTime reaches zero
 18: 0x0078 [0x76] CHECK_ENTITY_RENDER_FLAGS: Wait until LocalPlayer Render.Flags0 and Render.Flags3 conditions are met
 19: 0x007D [0x29] REQ_SET_WAIT(priority=0x08, entity_id=Nhili Uvolep (ID: 17830120/0x011010E8), tag_num=0x21)
 20: 0x0084 [0x02] IF !(Work_Zone[9] == 5*) GOTO 0x00A0
 21: 0x008C [0x45] LOAD_SCHEDULED_TASK: Load scheduler "s170" with entities [LocalPlayer, LocalPlayer], work=[660*, 0*]
 22: 0x009D [0x01] GOTO 0x00CD
 23: 0x00A0 [0x02] IF !(Work_Zone[9] == 6*) GOTO 0x00BC
 24: 0x00A8 [0x45] LOAD_SCHEDULED_TASK: Load scheduler "s170" with entities [LocalPlayer, LocalPlayer], work=[660*, 0*]
 25: 0x00B9 [0x01] GOTO 0x00CD
 26: 0x00BC [0x45] LOAD_SCHEDULED_TASK: Load scheduler "s191" with entities [LocalPlayer, LocalPlayer], work=[660*, 0*]

SUBROUTINE_00CD:
 27: 0x00CD [0x92] Sylvie (ID: 17830137/0x011010F9)->Render.Flags3 ^= 0x01
 28: 0x00D3 [0x92] Nhili Uvolep (ID: 17830120/0x011010E8)->Render.Flags3 ^= 0x01
 29: 0x00D9 [0x92] Lhaiso Neftereh (ID: 17830136/0x011010F8)->Render.Flags3 ^= 0x01
 30: 0x00DF [0x5C] MUSIC_CONTROL: Set Idle (Day) music to song 127*
 31: 0x00E3 [0x5C] MUSIC_CONTROL: Set Idle (Night) music to song 127*
 32: 0x00E7 [0x9A] WAIT_MUSIC_SERVER()
 33: 0x00E8 [0x5D] SET_MUSIC_VOLUME(volume=127*, fade_time=1*)
 34: 0x00ED [0x45] LOAD_SCHEDULED_TASK: Load scheduler "fdi1" with entities [LocalPlayer, LocalPlayer], work=[200*, 0*]
 35: 0x00FE [0x55] WAIT_LOAD_SCHEDULER: Wait for scheduler "fdi1" with entities [LocalPlayer, LocalPlayer], work=200*
 36: 0x010D [0x2B] Nhili Uvolep (ID: 17830120/0x011010E8) [10557*]:
    → "May I help you? ...You wish for me to announce your prrresence to Ikhi Askamot?"
 37: 0x0114 [0x23] WAIT_FOR_DIALOG_INTERACTION
 38: 0x0115 [0x29] REQ_SET_WAIT(priority=0x08, entity_id=Nhili Uvolep (ID: 17830120/0x011010E8), tag_num=0x22)
 39: 0x011C [0x29] REQ_SET_WAIT(priority=0x08, entity_id=Nhili Uvolep (ID: 17830120/0x011010E8), tag_num=0x23)
 40: 0x0123 [0x2B] Sylvie (ID: 17830137/0x011010F9) [10558*]:
    → "<Player>!"
 41: 0x012A [0x79] Sylvie (ID: 17830137/0x011010F9) looks at LocalPlayer (Basic look)
 42: 0x0134 [0x27] REQ_SET(priority=0x08, entity_id=Sylvie (ID: 17830137/0x011010F9), tag_num=0x03)
 43: 0x013B [0x1C] WAIT(30* ticks)
 44: 0x013E [0x02] IF !(Work_Zone[9] == 5*) GOTO 0x0158
 45: 0x0146 [0x52] END_LOAD_SCHEDULER: End scheduler "s170" with entities [LocalPlayer, LocalPlayer], work=660*
 46: 0x0155 [0x01] GOTO 0x0181
 47: 0x0158 [0x02] IF !(Work_Zone[9] == 6*) GOTO 0x0172
 48: 0x0160 [0x52] END_LOAD_SCHEDULER: End scheduler "s170" with entities [LocalPlayer, LocalPlayer], work=660*
 49: 0x016F [0x01] GOTO 0x0181
 50: 0x0172 [0x52] END_LOAD_SCHEDULER: End scheduler "s191" with entities [LocalPlayer, LocalPlayer], work=660*

SUBROUTINE_0181:
 51: 0x0181 [0x45] LOAD_SCHEDULED_TASK: Load scheduler "s171" with entities [LocalPlayer, LocalPlayer], work=[660*, 0*]
 52: 0x0192 [0x1C] WAIT(30* ticks)
 53: 0x0195 [0x4A] LocalPlayer looks at Sylvie (ID: 17830137/0x011010F9)
 54: 0x019E [0x29] REQ_SET_WAIT(priority=0x08, entity_id=Nhili Uvolep (ID: 17830120/0x011010E8), tag_num=0x24)
 55: 0x01A5 [0x79] Nhili Uvolep (ID: 17830120/0x011010E8) looks at Sylvie (ID: 17830137/0x011010F9) (Basic look)
 56: 0x01AF [0x2A] GET_REQ_LEVEL(level=8, entity_id=Sylvie (ID: 17830137/0x011010F9))
 57: 0x01B5 [0x1C] WAIT(30* ticks)
 58: 0x01B8 [0x23] WAIT_FOR_DIALOG_INTERACTION
 59: 0x01B9 [0x52] END_LOAD_SCHEDULER: End scheduler "s171" with entities [LocalPlayer, LocalPlayer], work=660*
 60: 0x01C8 [0x45] LOAD_SCHEDULED_TASK: Load scheduler "s172" with entities [LocalPlayer, LocalPlayer], work=[660*, 0*]
 61: 0x01D9 [0x79] Sylvie (ID: 17830137/0x011010F9) looks at Nhili Uvolep (ID: 17830120/0x011010E8) (Basic look)
 62: 0x01E3 [0x1C] WAIT(20* ticks)
 63: 0x01E6 [0x2B] Sylvie (ID: 17830137/0x011010F9) [10559*]:
    → "Nhili, <Player> is a geomancer, just like me. Please let us see Ikhi Askamot."
 64: 0x01ED [0x23] WAIT_FOR_DIALOG_INTERACTION
 65: 0x01EE [0x52] END_LOAD_SCHEDULER: End scheduler "s172" with entities [LocalPlayer, LocalPlayer], work=660*
 66: 0x01FD [0x45] LOAD_SCHEDULED_TASK: Load scheduler "s174" with entities [LocalPlayer, LocalPlayer], work=[660*, 0*]
 67: 0x020E [0x27] REQ_SET(priority=0x08, entity_id=Nhili Uvolep (ID: 17830120/0x011010E8), tag_num=0x33)
 68: 0x0215 [0x2B] Nhili Uvolep (ID: 17830120/0x011010E8) [10560*]:
    → "Ah, yes, dearrr Sylvie. I'd love to help, but she is quite busy these days..."
 69: 0x021C [0x23] WAIT_FOR_DIALOG_INTERACTION
 70: 0x021D [0x29] REQ_SET_WAIT(priority=0x08, entity_id=Sylvie (ID: 17830137/0x011010F9), tag_num=0x11)
 71: 0x0224 [0x2B] Sylvie (ID: 17830137/0x011010F9) [10561*]:
    → "Please! Please! It's a matter of life or death!"
 72: 0x022B [0x23] WAIT_FOR_DIALOG_INTERACTION
 73: 0x022C [0x29] REQ_SET_WAIT(priority=0x08, entity_id=Sylvie (ID: 17830137/0x011010F9), tag_num=0x12)
 74: 0x0233 [0x29] REQ_SET_WAIT(priority=0x08, entity_id=Sylvie (ID: 17830137/0x011010F9), tag_num=0x13)
 75: 0x023A [0x2A] GET_REQ_LEVEL(level=8, entity_id=Nhili Uvolep (ID: 17830120/0x011010E8))
 76: 0x0240 [0x79] Lhaiso Neftereh (ID: 17830136/0x011010F8) looks at Sylvie (ID: 17830137/0x011010F9) (Basic look)
 77: 0x024A [0x4E] SET_ENTITY_HIDE_FLAG: Show Lhaiso Neftereh (ID: 17830136/0x011010F8)
 78: 0x0250 [0x27] REQ_SET(priority=0x08, entity_id=Lhaiso Neftereh (ID: 17830136/0x011010F8), tag_num=0x1F)
 79: 0x0257 [0x52] END_LOAD_SCHEDULER: End scheduler "s174" with entities [LocalPlayer, LocalPlayer], work=660*
 80: 0x0266 [0x45] LOAD_SCHEDULED_TASK: Load scheduler "s173" with entities [LocalPlayer, LocalPlayer], work=[660*, 0*]
 81: 0x0277 [0x2B] Lhaiso Neftereh (ID: 17830136/0x011010F8) [10562*]:
    → "My goodness! Sylvie, daaarling, what are you doing way out here?"
 82: 0x027E [0x1C] WAIT(20* ticks)
 83: 0x0281 [0x79] Sylvie (ID: 17830137/0x011010F9) looks at Lhaiso Neftereh (ID: 17830136/0x011010F8) (Basic look)
 84: 0x028B [0x4B] UPDATE_ENTITY_YAW(entity=Sylvie (ID: 17830137/0x011010F9), yaw=11.2°*)
 85: 0x0292 [0x6F] WAIT_FRAME_DELAY: Yield until WaitTime reaches zero
 86: 0x0293 [0x76] CHECK_ENTITY_RENDER_FLAGS: Wait until Sylvie (ID: 17830137/0x011010F9) Render.Flags0 and Render.Flags3 conditions are met
 87: 0x0298 [0x1C] WAIT(40* ticks)
 88: 0x029B [0x52] END_LOAD_SCHEDULER: End scheduler "s173" with entities [LocalPlayer, LocalPlayer], work=660*
 89: 0x02AA [0x45] LOAD_SCHEDULED_TASK: Load scheduler "s321" with entities [LocalPlayer, LocalPlayer], work=[660*, 0*]
 90: 0x02BB [0x23] WAIT_FOR_DIALOG_INTERACTION
 91: 0x02BC [0x7B] Sylvie (ID: 17830137/0x011010F9) stops talking
 92: 0x02C1 [0x29] REQ_SET_WAIT(priority=0x08, entity_id=Sylvie (ID: 17830137/0x011010F9), tag_num=0x40)
 93: 0x02C8 [0x2B] Sylvie (ID: 17830137/0x011010F9) [10563*]:
    → "Lhaiso!"
 94: 0x02CF [0x23] WAIT_FOR_DIALOG_INTERACTION
 95: 0x02D0 [0x29] REQ_SET_WAIT(priority=0x08, entity_id=Sylvie (ID: 17830137/0x011010F9), tag_num=0x41)
 96: 0x02D7 [0x27] REQ_SET(priority=0x08, entity_id=Lhaiso Neftereh (ID: 17830136/0x011010F8), tag_num=0x17)
 97: 0x02DE [0x2B] Lhaiso Neftereh (ID: 17830136/0x011010F8) [10564*]:
    → "Are those...tears, my pet? Whatever could be wrong?"
 98: 0x02E5 [0x23] WAIT_FOR_DIALOG_INTERACTION
 99: 0x02E6 [0x45] LOAD_SCHEDULED_TASK: Load scheduler "fdo1" with entities [LocalPlayer, LocalPlayer], work=[200*, 0*]
100: 0x02F7 [0x55] WAIT_LOAD_SCHEDULER: Wait for scheduler "fdo1" with entities [LocalPlayer, LocalPlayer], work=200*
101: 0x0306 [0x52] END_LOAD_SCHEDULER: End scheduler "s321" with entities [LocalPlayer, LocalPlayer], work=660*
102: 0x0315 [0x34] LOAD_UNLOAD_ZONE(zone_id=593*)
103: 0x0318 [0x77] SET_EVENT_TIME_WEATHER(hour=255*, weather=1*)
104: 0x031D [0x2A] GET_REQ_LEVEL(level=8, entity_id=Lhaiso Neftereh (ID: 17830136/0x011010F8))
105: 0x0323 [0x29] REQ_SET_WAIT(priority=0x08, entity_id=LocalPlayer, tag_num=0x6F)
106: 0x032A [0x29] REQ_SET_WAIT(priority=0x08, entity_id=Sylvie (ID: 17830137/0x011010F9), tag_num=0x04)
107: 0x0331 [0x29] REQ_SET_WAIT(priority=0x08, entity_id=Lhaiso Neftereh (ID: 17830136/0x011010F8), tag_num=0x20)
108: 0x0338 [0x29] REQ_SET_WAIT(priority=0x08, entity_id=Gregoirellaud (ID: 17830138/0x011010FA), tag_num=0x06)
109: 0x033F [0x29] REQ_SET_WAIT(priority=0x08, entity_id=Hemborok (ID: 17830139/0x011010FB), tag_num=0x06)
110: 0x0346 [0x29] REQ_SET_WAIT(priority=0x08, entity_id=Obelailai (ID: 17830140/0x011010FC), tag_num=0x06)
111: 0x034D [0x80] LOAD_WAIT(entity=Gregoirellaud (ID: 17830138/0x011010FA))
112: 0x0352 [0x80] LOAD_WAIT(entity=Hemborok (ID: 17830139/0x011010FB))
113: 0x0357 [0x80] LOAD_WAIT(entity=Obelailai (ID: 17830140/0x011010FC))
114: 0x035C [0x92] Gregoirellaud (ID: 17830138/0x011010FA)->Render.Flags3 ^= 0x01
115: 0x0362 [0x92] Hemborok (ID: 17830139/0x011010FB)->Render.Flags3 ^= 0x01
116: 0x0368 [0x92] Obelailai (ID: 17830140/0x011010FC)->Render.Flags3 ^= 0x01
117: 0x036E [0x2C] CREATE_SCHEDULER_TASK: Create scheduler "open" with entities [Door: (ID: 17830069/0x011010B5), Door: (ID: 17830069/0x011010B5)]
118: 0x037B [0x1C] WAIT(60* ticks)
119: 0x037E [0x79] LocalPlayer looks at Lhaiso Neftereh (ID: 17830136/0x011010F8) (Basic look)
120: 0x0388 [0x27] REQ_SET(priority=0x08, entity_id=LocalPlayer, tag_num=0x70)
121: 0x038F [0x27] REQ_SET(priority=0x08, entity_id=Sylvie (ID: 17830137/0x011010F9), tag_num=0x05)
122: 0x0396 [0x27] REQ_SET(priority=0x08, entity_id=Lhaiso Neftereh (ID: 17830136/0x011010F8), tag_num=0x21)
123: 0x039D [0x45] LOAD_SCHEDULED_TASK: Load scheduler "s175" with entities [LocalPlayer, LocalPlayer], work=[660*, 0*]
124: 0x03AE [0x45] LOAD_SCHEDULED_TASK: Load scheduler "fdi1" with entities [LocalPlayer, LocalPlayer], work=[200*, 0*]
125: 0x03BF [0x55] WAIT_LOAD_SCHEDULER: Wait for scheduler "fdi1" with entities [LocalPlayer, LocalPlayer], work=200*
126: 0x03CE [0x1C] WAIT(60* ticks)
127: 0x03D1 [0x79] Obelailai (ID: 17830140/0x011010FC) looks at Lhaiso Neftereh (ID: 17830136/0x011010F8) (Basic look)
128: 0x03DB [0x2B] Lhaiso Neftereh (ID: 17830136/0x011010F8) [10565*]:
    → "Well, this is quite the pickle for you then, no? To think, Hostenn missing, gone without a trace."
129: 0x03E2 [0x1C] WAIT(150* ticks)
130: 0x03E5 [0x52] END_LOAD_SCHEDULER: End scheduler "s175" with entities [LocalPlayer, LocalPlayer], work=660*
131: 0x03F4 [0x45] LOAD_SCHEDULED_TASK: Load scheduler "s176" with entities [LocalPlayer, LocalPlayer], work=[660*, 0*]
132: 0x0405 [0x2A] GET_REQ_LEVEL(level=8, entity_id=Sylvie (ID: 17830137/0x011010F9))
133: 0x040B [0x4A] Hemborok (ID: 17830139/0x011010FB) looks at Lhaiso Neftereh (ID: 17830136/0x011010F8)
134: 0x0414 [0x2A] GET_REQ_LEVEL(level=8, entity_id=Lhaiso Neftereh (ID: 17830136/0x011010F8))
135: 0x041A [0x23] WAIT_FOR_DIALOG_INTERACTION
136: 0x041B [0x4A] Sylvie (ID: 17830137/0x011010F9) looks at Lhaiso Neftereh (ID: 17830136/0x011010F8)
137: 0x0424 [0x2B] Lhaiso Neftereh (ID: 17830136/0x011010F8) [10566*]:
    → "A geomancer going missing can only mean one thing--he has incurred the wrath of nature herself. Tragic."
138: 0x042B [0x23] WAIT_FOR_DIALOG_INTERACTION
139: 0x042C [0x6F] WAIT_FRAME_DELAY: Yield until WaitTime reaches zero
140: 0x042D [0x76] CHECK_ENTITY_RENDER_FLAGS: Wait until Sylvie (ID: 17830137/0x011010F9) Render.Flags0 and Render.Flags3 conditions are met
141: 0x0432 [0x6F] WAIT_FRAME_DELAY: Yield until WaitTime reaches zero
142: 0x0433 [0x76] CHECK_ENTITY_RENDER_FLAGS: Wait until Hemborok (ID: 17830139/0x011010FB) Render.Flags0 and Render.Flags3 conditions are met
143: 0x0438 [0x52] END_LOAD_SCHEDULER: End scheduler "s176" with entities [LocalPlayer, LocalPlayer], work=660*
144: 0x0447 [0x45] LOAD_SCHEDULED_TASK: Load scheduler "s177" with entities [LocalPlayer, LocalPlayer], work=[660*, 0*]
145: 0x0458 [0x4A] Lhaiso Neftereh (ID: 17830136/0x011010F8) looks at Sylvie (ID: 17830137/0x011010F9)
146: 0x0461 [0x6F] WAIT_FRAME_DELAY: Yield until WaitTime reaches zero
147: 0x0462 [0x76] CHECK_ENTITY_RENDER_FLAGS: Wait until Lhaiso Neftereh (ID: 17830136/0x011010F8) Render.Flags0 and Render.Flags3 conditions are met
148: 0x0467 [0x1C] WAIT(80* ticks)
149: 0x046A [0x27] REQ_SET(priority=0x08, entity_id=Lhaiso Neftereh (ID: 17830136/0x011010F8), tag_num=0x17)
150: 0x0471 [0x1C] WAIT(20* ticks)
151: 0x0474 [0x2B] Lhaiso Neftereh (ID: 17830136/0x011010F8) [10567*]:
    → "Oh dear, I have perhaps been a bit harsh. I meant no ill will, I assure you."
152: 0x047B [0x23] WAIT_FOR_DIALOG_INTERACTION
153: 0x047C [0x2A] GET_REQ_LEVEL(level=8, entity_id=Lhaiso Neftereh (ID: 17830136/0x011010F8))
154: 0x0482 [0x27] REQ_SET(priority=0x08, entity_id=Sylvie (ID: 17830137/0x011010F9), tag_num=0x4D)
155: 0x0489 [0x2B] Sylvie (ID: 17830137/0x011010F9) [10568*]:
    → "N-no, it's all right. I'm just pleased that you understand how difficult this is for me."
156: 0x0490 [0x23] WAIT_FOR_DIALOG_INTERACTION
157: 0x0491 [0x2A] GET_REQ_LEVEL(level=8, entity_id=Sylvie (ID: 17830137/0x011010F9))
158: 0x0497 [0x52] END_LOAD_SCHEDULER: End scheduler "s177" with entities [LocalPlayer, LocalPlayer], work=660*
159: 0x04A6 [0x45] LOAD_SCHEDULED_TASK: Load scheduler "s178" with entities [LocalPlayer, LocalPlayer], work=[660*, 0*]
160: 0x04B7 [0x79] LocalPlayer looks at Sylvie (ID: 17830137/0x011010F9) (Basic look)
161: 0x04C1 [0x29] REQ_SET_WAIT(priority=0x08, entity_id=Sylvie (ID: 17830137/0x011010F9), tag_num=0x28)
162: 0x04C8 [0x2B] Sylvie (ID: 17830137/0x011010F9) [10569*]:
    → "I'm here to ask for Ikhi's aid--she's the reincarnation of the primal geomancer, Sih Renaye, right?"
163: 0x04CF [0x23] WAIT_FOR_DIALOG_INTERACTION
164: 0x04D0 [0x29] REQ_SET_WAIT(priority=0x08, entity_id=Sylvie (ID: 17830137/0x011010F9), tag_num=0x29)
165: 0x04D7 [0x29] REQ_SET_WAIT(priority=0x08, entity_id=Sylvie (ID: 17830137/0x011010F9), tag_num=0x30)
166: 0x04DE [0x2B] Sylvie (ID: 17830137/0x011010F9) [10570*]:
    → "But it must be fate that brought me to you, great Lhaiso. Finally, something's gone right."
167: 0x04E5 [0x23] WAIT_FOR_DIALOG_INTERACTION
168: 0x04E6 [0x52] END_LOAD_SCHEDULER: End scheduler "s178" with entities [LocalPlayer, LocalPlayer], work=660*
169: 0x04F5 [0x45] LOAD_SCHEDULED_TASK: Load scheduler "s180" with entities [LocalPlayer, LocalPlayer], work=[660*, 0*]
170: 0x0506 [0x29] REQ_SET_WAIT(priority=0x08, entity_id=Sylvie (ID: 17830137/0x011010F9), tag_num=0x31)
171: 0x050D [0x29] REQ_SET_WAIT(priority=0x08, entity_id=Sylvie (ID: 17830137/0x011010F9), tag_num=0x2A)
172: 0x0514 [0x29] REQ_SET_WAIT(priority=0x08, entity_id=Sylvie (ID: 17830137/0x011010F9), tag_num=0x2B)
173: 0x051B [0x79] Obelailai (ID: 17830140/0x011010FC) looks at Sylvie (ID: 17830137/0x011010F9) (Basic look)
174: 0x0525 [0x29] REQ_SET_WAIT(priority=0x08, entity_id=Sylvie (ID: 17830137/0x011010F9), tag_num=0x1A)
175: 0x052C [0x2B] Sylvie (ID: 17830137/0x011010F9) [10571*]:
    → "P-please! I want you to help Daddy!"
176: 0x0533 [0x23] WAIT_FOR_DIALOG_INTERACTION
177: 0x0534 [0x29] REQ_SET_WAIT(priority=0x08, entity_id=Sylvie (ID: 17830137/0x011010F9), tag_num=0x1B)
178: 0x053B [0x52] END_LOAD_SCHEDULER: End scheduler "s180" with entities [LocalPlayer, LocalPlayer], work=660*
179: 0x054A [0x45] LOAD_SCHEDULED_TASK: Load scheduler "s179" with entities [LocalPlayer, LocalPlayer], work=[660*, 0*]
180: 0x055B [0x79] LocalPlayer looks at Lhaiso Neftereh (ID: 17830136/0x011010F8) (Basic look)
181: 0x0565 [0x79] Obelailai (ID: 17830140/0x011010FC) looks at Lhaiso Neftereh (ID: 17830136/0x011010F8) (Basic look)
182: 0x056F [0x29] REQ_SET_WAIT(priority=0x08, entity_id=Sylvie (ID: 17830137/0x011010F9), tag_num=0x1C)
183: 0x0576 [0x27] REQ_SET(priority=0x08, entity_id=Lhaiso Neftereh (ID: 17830136/0x011010F8), tag_num=0x19)
184: 0x057D [0x2B] Lhaiso Neftereh (ID: 17830136/0x011010F8) [10572*]:
    → "Why, little Sylvie, of course I understand why you would come to me. Your emotions have truly touched me, however..."
185: 0x0584 [0x23] WAIT_FOR_DIALOG_INTERACTION
186: 0x0585 [0x2A] GET_REQ_LEVEL(level=8, entity_id=Lhaiso Neftereh (ID: 17830136/0x011010F8))
187: 0x058B [0x29] REQ_SET_WAIT(priority=0x08, entity_id=Sylvie (ID: 17830137/0x011010F9), tag_num=0x1D)
188: 0x0592 [0x52] END_LOAD_SCHEDULER: End scheduler "s179" with entities [LocalPlayer, LocalPlayer], work=660*
189: 0x05A1 [0x45] LOAD_SCHEDULED_TASK: Load scheduler "s184" with entities [LocalPlayer, LocalPlayer], work=[660*, 0*]
190: 0x05B2 [0x4B] UPDATE_ENTITY_YAW(entity=Sylvie (ID: 17830137/0x011010F9), yaw=358.4°*)
191: 0x05B9 [0x22] ENTITY_HIDE_FLAG(enabled=0x00)
192: 0x05BB [0x94] EventEntity->Render.Flags3 ^= 0x01
193: 0x05C1 [0x27] REQ_SET(priority=0x08, entity_id=Lhaiso Neftereh (ID: 17830136/0x011010F8), tag_num=0x22)
194: 0x05C8 [0x2B] Lhaiso Neftereh (ID: 17830136/0x011010F8) [10573*]:
    → "My best disciple, Ikhi, cannot help you. And of course, that means my aid is absolutely out of the question."
195: 0x05CF [0x23] WAIT_FOR_DIALOG_INTERACTION
196: 0x05D0 [0x2A] GET_REQ_LEVEL(level=8, entity_id=Lhaiso Neftereh (ID: 17830136/0x011010F8))
197: 0x05D6 [0x2B] Sylvie (ID: 17830137/0x011010F9) [10574*]:
    → "B-but...why?"
198: 0x05DD [0x23] WAIT_FOR_DIALOG_INTERACTION
199: 0x05DE [0x6F] WAIT_FRAME_DELAY: Yield until WaitTime reaches zero
200: 0x05DF [0x76] CHECK_ENTITY_RENDER_FLAGS: Wait until Sylvie (ID: 17830137/0x011010F9) Render.Flags0 and Render.Flags3 conditions are met
201: 0x05E4 [0x52] END_LOAD_SCHEDULER: End scheduler "s184" with entities [LocalPlayer, LocalPlayer], work=660*
202: 0x05F3 [0x45] LOAD_SCHEDULED_TASK: Load scheduler "s181" with entities [LocalPlayer, LocalPlayer], work=[660*, 0*]
203: 0x0604 [0x2B] Lhaiso Neftereh (ID: 17830136/0x011010F8) [10575*]:
    → "The legendary Sih Renaye became one with nature, causing rivers to change their course and trees to sprout tall in mere moments."
204: 0x060B [0x23] WAIT_FOR_DIALOG_INTERACTION
205: 0x060C [0x2B] Lhaiso Neftereh (ID: 17830136/0x011010F8) [10576*]:
    → "And then, together with her five disciples, she prevailed over the ferocious Velkk."
206: 0x0613 [0x23] WAIT_FOR_DIALOG_INTERACTION
207: 0x0614 [0x52] END_LOAD_SCHEDULER: End scheduler "s181" with entities [LocalPlayer, LocalPlayer], work=660*
208: 0x0623 [0x45] LOAD_SCHEDULED_TASK: Load scheduler "s182" with entities [LocalPlayer, LocalPlayer], work=[660*, 0*]
209: 0x0634 [0x29] REQ_SET_WAIT(priority=0x08, entity_id=Lhaiso Neftereh (ID: 17830136/0x011010F8), tag_num=0x0F)
210: 0x063B [0x2B] Lhaiso Neftereh (ID: 17830136/0x011010F8) [10577*]:
    → "Why do you suppose this is? This is simply a personal theory, dear, but I think it is because she was not actually a person."
211: 0x0642 [0x23] WAIT_FOR_DIALOG_INTERACTION
212: 0x0643 [0x29] REQ_SET_WAIT(priority=0x08, entity_id=Lhaiso Neftereh (ID: 17830136/0x011010F8), tag_num=0x10)
213: 0x064A [0x52] END_LOAD_SCHEDULER: End scheduler "s182" with entities [LocalPlayer, LocalPlayer], work=660*
214: 0x0659 [0x45] LOAD_SCHEDULED_TASK: Load scheduler "s183" with entities [LocalPlayer, LocalPlayer], work=[660*, 0*]
215: 0x066A [0x79] Lhaiso Neftereh (ID: 17830136/0x011010F8) looks at Hemborok (ID: 17830139/0x011010FB) (Basic look)
216: 0x0674 [0x79] LocalPlayer looks at Hemborok (ID: 17830139/0x011010FB) (Basic look)
217: 0x067E [0x79] Sylvie (ID: 17830137/0x011010F9) looks at Hemborok (ID: 17830139/0x011010FB) (Basic look)
218: 0x0688 [0x27] REQ_SET(priority=0x08, entity_id=Hemborok (ID: 17830139/0x011010FB), tag_num=0x07)
219: 0x068F [0x2B] Hemborok (ID: 17830139/0x011010FB) [10578*]:
    → "Great Lhaiso, why do you deign to share your thoughts with these outsiders?"
220: 0x0696 [0x23] WAIT_FOR_DIALOG_INTERACTION
221: 0x0697 [0x2A] GET_REQ_LEVEL(level=8, entity_id=Hemborok (ID: 17830139/0x011010FB))
222: 0x069D [0x52] END_LOAD_SCHEDULER: End scheduler "s183" with entities [LocalPlayer, LocalPlayer], work=660*
223: 0x06AC [0x45] LOAD_SCHEDULED_TASK: Load scheduler "s185" with entities [LocalPlayer, LocalPlayer], work=[660*, 0*]
224: 0x06BD [0x4E] SET_ENTITY_HIDE_FLAG: Hide LocalPlayer
225: 0x06C3 [0x29] REQ_SET_WAIT(priority=0x08, entity_id=LocalPlayer, tag_num=0x71)
226: 0x06CA [0x79] Gregoirellaud (ID: 17830138/0x011010FA) looks at Sylvie (ID: 17830137/0x011010F9) (Basic look)
227: 0x06D4 [0x4A] Lhaiso Neftereh (ID: 17830136/0x011010F8) looks at Gregoirellaud (ID: 17830138/0x011010FA)
228: 0x06DD [0x79] LocalPlayer looks at Gregoirellaud (ID: 17830138/0x011010FA) (Basic look)
229: 0x06E7 [0x79] Sylvie (ID: 17830137/0x011010F9) looks at Gregoirellaud (ID: 17830138/0x011010FA) (Basic look)
230: 0x06F1 [0x27] REQ_SET(priority=0x08, entity_id=Gregoirellaud (ID: 17830138/0x011010FA), tag_num=0x07)
231: 0x06F8 [0x2B] Gregoirellaud (ID: 17830138/0x011010FA) [10579*]:
    → "And Sylvie, surely your father's companions are out looking for him."
232: 0x06FF [0x23] WAIT_FOR_DIALOG_INTERACTION
233: 0x0700 [0x2A] GET_REQ_LEVEL(level=8, entity_id=Gregoirellaud (ID: 17830138/0x011010FA))
234: 0x0706 [0x6F] WAIT_FRAME_DELAY: Yield until WaitTime reaches zero
235: 0x0707 [0x76] CHECK_ENTITY_RENDER_FLAGS: Wait until Lhaiso Neftereh (ID: 17830136/0x011010F8) Render.Flags0 and Render.Flags3 conditions are met
236: 0x070C [0x52] END_LOAD_SCHEDULER: End scheduler "s185" with entities [LocalPlayer, LocalPlayer], work=660*
237: 0x071B [0x45] LOAD_SCHEDULED_TASK: Load scheduler "s186" with entities [LocalPlayer, LocalPlayer], work=[660*, 0*]
238: 0x072C [0x4E] SET_ENTITY_HIDE_FLAG: Show LocalPlayer
239: 0x0732 [0x79] LocalPlayer looks at Obelailai (ID: 17830140/0x011010FC) (Basic look)
240: 0x073C [0x29] REQ_SET_WAIT(priority=0x08, entity_id=Obelailai (ID: 17830140/0x011010FC), tag_num=0x07)
241: 0x0743 [0x4A] Sylvie (ID: 17830137/0x011010F9) looks at Obelailai (ID: 17830140/0x011010FC)
242: 0x074C [0x4A] Lhaiso Neftereh (ID: 17830136/0x011010F8) looks at Obelailai (ID: 17830140/0x011010FC)
243: 0x0755 [0x2B] Obelailai (ID: 17830140/0x011010FC) [10580*]:
    → "It's not our place to look for him. He cast his lot with the pioneers, and so it is up to them to find him."
244: 0x075C [0x23] WAIT_FOR_DIALOG_INTERACTION
245: 0x075D [0x6F] WAIT_FRAME_DELAY: Yield until WaitTime reaches zero
246: 0x075E [0x76] CHECK_ENTITY_RENDER_FLAGS: Wait until Lhaiso Neftereh (ID: 17830136/0x011010F8) Render.Flags0 and Render.Flags3 conditions are met
247: 0x0763 [0x6F] WAIT_FRAME_DELAY: Yield until WaitTime reaches zero
248: 0x0764 [0x76] CHECK_ENTITY_RENDER_FLAGS: Wait until Sylvie (ID: 17830137/0x011010F9) Render.Flags0 and Render.Flags3 conditions are met
249: 0x0769 [0x37] UPDATE_EVENT_POSITION_AND_DIR: x=-1.073*, z=-15.204*, y=0.000*, direction=169.9°*
250: 0x0772 [0x79] Sylvie (ID: 17830137/0x011010F9) looks at DIRECTOR by yaeko (ID: 17830135/0x011010F7) (Basic look)
251: 0x077C [0x52] END_LOAD_SCHEDULER: End scheduler "s186" with entities [LocalPlayer, LocalPlayer], work=660*
252: 0x078B [0x45] LOAD_SCHEDULED_TASK: Load scheduler "s187" with entities [LocalPlayer, LocalPlayer], work=[660*, 0*]
253: 0x079C [0x79] Lhaiso Neftereh (ID: 17830136/0x011010F8) looks at Sylvie (ID: 17830137/0x011010F9) (Basic look)
254: 0x07A6 [0x2B] Lhaiso Neftereh (ID: 17830136/0x011010F8) [10581*]:
    → "So Sylvie, dearest, surely you can accept our position."
255: 0x07AD [0x23] WAIT_FOR_DIALOG_INTERACTION
256: 0x07AE [0x52] END_LOAD_SCHEDULER: End scheduler "s187" with entities [LocalPlayer, LocalPlayer], work=660*
257: 0x07BD [0x45] LOAD_SCHEDULED_TASK: Load scheduler "s188" with entities [LocalPlayer, LocalPlayer], work=[660*, 0*]
258: 0x07CE [0x79] Hemborok (ID: 17830139/0x011010FB) looks at Sylvie (ID: 17830137/0x011010F9) (Basic look)
259: 0x07D8 [0x4A] Lhaiso Neftereh (ID: 17830136/0x011010F8) looks at Sylvie (ID: 17830137/0x011010F9)
260: 0x07E1 [0x79] LocalPlayer looks at Sylvie (ID: 17830137/0x011010F9) (Basic look)
261: 0x07EB [0x29] REQ_SET_WAIT(priority=0x08, entity_id=Sylvie (ID: 17830137/0x011010F9), tag_num=0x40)
262: 0x07F2 [0x2B] Sylvie (ID: 17830137/0x011010F9) [10582*]:
    → "I-I can't believe... This is because I'm of Zacariah's blood, isn't it? Fine. I'll go look for him myself!"
263: 0x07F9 [0x23] WAIT_FOR_DIALOG_INTERACTION
264: 0x07FA [0x29] REQ_SET_WAIT(priority=0x08, entity_id=Sylvie (ID: 17830137/0x011010F9), tag_num=0x41)
265: 0x0801 [0x6F] WAIT_FRAME_DELAY: Yield until WaitTime reaches zero
266: 0x0802 [0x76] CHECK_ENTITY_RENDER_FLAGS: Wait until Lhaiso Neftereh (ID: 17830136/0x011010F8) Render.Flags0 and Render.Flags3 conditions are met
267: 0x0807 [0x27] REQ_SET(priority=0x08, entity_id=Sylvie (ID: 17830137/0x011010F9), tag_num=0x06)
268: 0x080E [0x1C] WAIT(30* ticks)
269: 0x0811 [0x52] END_LOAD_SCHEDULER: End scheduler "s188" with entities [LocalPlayer, LocalPlayer], work=660*
270: 0x0820 [0x45] LOAD_SCHEDULED_TASK: Load scheduler "s189" with entities [LocalPlayer, LocalPlayer], work=[660*, 0*]
271: 0x0831 [0x29] REQ_SET_WAIT(priority=0x08, entity_id=Lhaiso Neftereh (ID: 17830136/0x011010F8), tag_num=0x23)
272: 0x0838 [0x79] Hemborok (ID: 17830139/0x011010FB) looks at Lhaiso Neftereh (ID: 17830136/0x011010F8) (Basic look)
273: 0x0842 [0x52] END_LOAD_SCHEDULER: End scheduler "s189" with entities [LocalPlayer, LocalPlayer], work=660*
274: 0x0851 [0x45] LOAD_SCHEDULED_TASK: Load scheduler "s190" with entities [LocalPlayer, LocalPlayer], work=[660*, 0*]
275: 0x0862 [0x4E] SET_ENTITY_HIDE_FLAG: Hide Obelailai (ID: 17830140/0x011010FC)
276: 0x0868 [0x1C] WAIT(90* ticks)
277: 0x086B [0x27] REQ_SET(priority=0x08, entity_id=Lhaiso Neftereh (ID: 17830136/0x011010F8), tag_num=0x18)
278: 0x0872 [0x2B] Lhaiso Neftereh (ID: 17830136/0x011010F8) [10583*]:
    → "Oh, the sweet thing has got it backwards. Our desire to help her is without question--we just don't have the ability to do so."
279: 0x0879 [0x23] WAIT_FOR_DIALOG_INTERACTION
280: 0x087A [0x2A] GET_REQ_LEVEL(level=8, entity_id=Lhaiso Neftereh (ID: 17830136/0x011010F8))
281: 0x0880 [0x52] END_LOAD_SCHEDULER: End scheduler "s190" with entities [LocalPlayer, LocalPlayer], work=660*
282: 0x088F [0x45] LOAD_SCHEDULED_TASK: Load scheduler "s192" with entities [LocalPlayer, LocalPlayer], work=[660*, 0*]
283: 0x08A0 [0x4A] Lhaiso Neftereh (ID: 17830136/0x011010F8) looks at LocalPlayer
284: 0x08A9 [0x6F] WAIT_FRAME_DELAY: Yield until WaitTime reaches zero
285: 0x08AA [0x76] CHECK_ENTITY_RENDER_FLAGS: Wait until Lhaiso Neftereh (ID: 17830136/0x011010F8) Render.Flags0 and Render.Flags3 conditions are met
286: 0x08AF [0x79] LocalPlayer looks at Lhaiso Neftereh (ID: 17830136/0x011010F8) (Basic look)
287: 0x08B9 [0x29] REQ_SET_WAIT(priority=0x08, entity_id=Lhaiso Neftereh (ID: 17830136/0x011010F8), tag_num=0x01)
288: 0x08C0 [0x2B] Lhaiso Neftereh (ID: 17830136/0x011010F8) [10584*]:
    → "You there--yes, you. I can sense that you have a stronger bond with her than I--go in my stead and help save her father."
289: 0x08C7 [0x23] WAIT_FOR_DIALOG_INTERACTION
290: 0x08C8 [0x29] REQ_SET_WAIT(priority=0x08, entity_id=Lhaiso Neftereh (ID: 17830136/0x011010F8), tag_num=0x02)
291: 0x08CF [0x2B] Lhaiso Neftereh (ID: 17830136/0x011010F8) [10585*]:
    → "Hostenn was last seen in Morimar Basalt Fields, was he not? Then someone at the frontier station there might be able to tell you more."
292: 0x08D6 [0x23] WAIT_FOR_DIALOG_INTERACTION
293: 0x08D7 [0x2A] GET_REQ_LEVEL(level=8, entity_id=Sylvie (ID: 17830137/0x011010F9))
294: 0x08DD [0x5D] SET_MUSIC_VOLUME(volume=0*, fade_time=200*)
295: 0x08E2 [0x45] LOAD_SCHEDULED_TASK: Load scheduler "fdo1" with entities [LocalPlayer, LocalPlayer], work=[200*, 0*]
296: 0x08F3 [0x55] WAIT_LOAD_SCHEDULER: Wait for scheduler "fdo1" with entities [LocalPlayer, LocalPlayer], work=200*
297: 0x0902 [0x52] END_LOAD_SCHEDULER: End scheduler "s192" with entities [LocalPlayer, LocalPlayer], work=660*
298: 0x0911 [0x22] ENTITY_HIDE_FLAG(enabled=0x01)
299: 0x0913 [0x35] LOAD_ZONE_NO_CLOSE(zone_id=701*)
300: 0x0916 [0x77] SET_EVENT_TIME_WEATHER(hour=255*, weather=1*)
301: 0x091B [0x1C] WAIT(1* ticks)
302: 0x091E [0x5C] MUSIC_CONTROL: Set Idle (Day) music to song 63*
303: 0x0922 [0x5C] MUSIC_CONTROL: Set Idle (Night) music to song 63*
304: 0x0926 [0x9A] WAIT_MUSIC_SERVER()
305: 0x0927 [0x5D] SET_MUSIC_VOLUME(volume=127*, fade_time=1*)
306: 0x092C [0x1C] WAIT(2* ticks)
307: 0x092F [0x29] REQ_SET_WAIT(priority=0x08, entity_id=LocalPlayer, tag_num=0x72)
308: 0x0936 [0x46] CAMERA_CONTROL: Restore default settings
309: 0x0938 [0x45] LOAD_SCHEDULED_TASK: Load scheduler "fdi1" with entities [LocalPlayer, LocalPlayer], work=[200*, 0*]
310: 0x0949 [0x20] SET_CLI_EVENT_UC_FLAG: Unlock player control
311: 0x094B [0x21] END_EVENT
312: 0x094C [0x00] END_REQSTACK()
```

### Event 37

#### Metadata

| Field        | Value      |
|--------------|------------|
| Entrypoint   | 0x094D     |
| Data Size    | 2390 bytes |
| Instructions | 312        |

```
      00 01 02 03 04 05 06 07  08 09 0A 0B 0C 0D 0E 0F
      -- -- -- -- -- -- -- --  -- -- -- -- -- -- -- --
0940:                                         42 46 01               BF.
0950: 45 00 80 F0 FF FF 7F F0  FF FF 7F 66 64 6F 31 01  E..........fdo1.
0960: 80 55 00 80 F0 FF FF 7F  F0 FF FF 7F 66 64 6F 31  .U..........fdo1
0970: 38 02 80 29 08 F0 FF FF  7F 6E 29 08 F9 10 10 01  8..).....n).....
0980: 02 29 08 F8 10 10 01 1E  80 F8 10 10 01 80 E8 10  .)..............
0990: 10 01 92 01 F8 10 10 01  92 01 E8 10 10 01 92 01  ................
09A0: F9 10 10 01 29 08 F0 FF  FF 7F 03 29 08 F0 FF FF  ....)......)....
09B0: 7F 6C 4A F0 FF FF 7F E8  10 10 01 79 00 E8 10 10  .lJ........y....
09C0: 01 F0 FF FF 7F 6F 76 F0  FF FF 7F 29 08 E8 10 10  .....ov....)....
09D0: 01 21 02 09 10 03 80 00  EE 09 45 04 80 F0 FF FF  .!........E.....
09E0: 7F F0 FF FF 7F 73 31 37  30 01 80 01 1B 0A 02 09  .....s170.......
09F0: 10 05 80 00 0A 0A 45 04  80 F0 FF FF 7F F0 FF FF  ......E.........
0A00: 7F 73 31 37 30 01 80 01  1B 0A 45 04 80 F0 FF FF  .s170.....E.....
0A10: 7F F0 FF FF 7F 73 31 39  31 01 80 45 00 80 F0 FF  .....s191..E....
0A20: FF 7F F0 FF FF 7F 66 64  69 31 01 80 55 00 80 F0  ......fdi1..U...
0A30: FF FF 7F F0 FF FF 7F 66  64 69 31 2B E8 10 10 01  .......fdi1+....
0A40: 36 80 23 29 08 E8 10 10  01 22 2B E8 10 10 01 37  6.#)....."+....7
0A50: 80 23 5D 01 80 00 80 45  00 80 F0 FF FF 7F F0 FF  .#]....E........
0A60: FF 7F 66 64 6F 31 01 80  55 00 80 F0 FF FF 7F F0  ..fdo1..U.......
0A70: FF FF 7F 66 64 6F 31 52  04 80 F0 FF FF 7F F0 FF  ...fdo1R........
0A80: FF 7F 73 31 37 33 34 14  80 77 15 80 07 80 2A 08  ..s1734..w....*.
0A90: F8 10 10 01 29 08 F0 FF  FF 7F 74 29 08 95 10 10  ....).....t)....
0AA0: 01 17 29 08 F8 10 10 01  24 29 08 FA 10 10 01 09  ..).....$)......
0AB0: 29 08 FB 10 10 01 09 29  08 FC 10 10 01 09 29 08  )......)......).
0AC0: FD 10 10 01 0A 80 F8 10  10 01 80 FA 10 10 01 80  ................
0AD0: FB 10 10 01 80 FC 10 10  01 29 08 FD 10 10 01 05  .........)......
0AE0: 29 08 F8 10 10 01 0D 29  08 FD 10 10 01 06 29 08  )......)......).
0AF0: F8 10 10 01 0E 79 00 FB  10 10 01 F8 10 10 01 79  .....y.........y
0B00: 00 FA 10 10 01 F8 10 10  01 79 00 FC 10 10 01 95  .........y......
0B10: 10 10 01 92 01 FA 10 10  01 92 01 FB 10 10 01 92  ................
0B20: 01 FC 10 10 01 92 01 FD  10 10 01 92 01 95 10 10  ................
0B30: 01 79 00 F0 FF FF 7F F8  10 10 01 5C 00 38 80 5C  .y.........\.8.\
0B40: 01 38 80 9A 5D 06 80 07  80 79 00 95 10 10 01 FB  .8..]....y......
0B50: 10 10 01 45 04 80 F0 FF  FF 7F F0 FF FF 7F 73 33  ...E..........s3
0B60: 33 38 01 80 45 00 80 F0  FF FF 7F F0 FF FF 7F 66  38..E..........f
0B70: 64 69 31 01 80 55 00 80  F0 FF FF 7F F0 FF FF 7F  di1..U..........
0B80: 66 64 69 31 29 08 FB 10  10 01 01 2B FB 10 10 01  fdi1)......+....
0B90: 39 80 23 79 00 FA 10 10  01 FB 10 10 01 2B FB 10  9.#y.........+..
0BA0: 10 01 3A 80 23 29 08 FB  10 10 01 02 29 08 FB 10  ..:.#)......)...
0BB0: 10 01 03 52 04 80 F0 FF  FF 7F F0 FF FF 7F 73 33  ...R..........s3
0BC0: 33 38 45 04 80 F0 FF FF  7F F0 FF FF 7F 73 33 33  38E..........s33
0BD0: 37 01 80 29 08 FA 10 10  01 01 2B FA 10 10 01 3B  7..)......+....;
0BE0: 80 79 00 95 10 10 01 F8  10 10 01 4B 95 10 10 01  .y.........K....
0BF0: 3C 80 1C 0A 80 79 00 FB  10 10 01 FA 10 10 01 23  <....y.........#
0C00: 2B FA 10 10 01 3D 80 23  29 08 FA 10 10 01 02 29  +....=.#)......)
0C10: 08 FA 10 10 01 03 6F 76  95 10 10 01 52 04 80 F0  ......ov....R...
0C20: FF FF 7F F0 FF FF 7F 73  33 33 37 45 04 80 F0 FF  .......s337E....
0C30: FF 7F F0 FF FF 7F 73 33  34 31 01 80 79 00 F8 10  ......s341..y...
0C40: 10 01 95 10 10 01 29 08  F8 10 10 01 0F 2B 95 10  ......)......+..
0C50: 10 01 3E 80 23 29 08 FB  10 10 01 04 29 08 FA 10  ..>.#)......)...
0C60: 10 01 04 4A FB 10 10 01  F8 10 10 01 4A FA 10 10  ...J........J...
0C70: 01 F8 10 10 01 4A FC 10  10 01 F8 10 10 01 1C 0B  .....J..........
0C80: 80 2B F8 10 10 01 3F 80  29 08 F8 10 10 01 10 2C  .+....?.)......,
0C90: B4 10 10 01 B4 10 10 01  6F 70 65 6E 23 27 08 F0  ........open#'..
0CA0: FF FF 7F 75 1C 0B 80 52  04 80 F0 FF FF 7F F0 FF  ...u...R........
0CB0: FF 7F 73 33 34 31 45 04  80 F0 FF FF 7F F0 FF FF  ..s341E.........
0CC0: 7F 73 32 30 32 01 80 79  00 95 10 10 01 F0 FF FF  .s202..y........
0CD0: 7F 1C 40 80 52 04 80 F0  FF FF 7F F0 FF FF 7F 73  ..@.R..........s
0CE0: 32 30 32 02 09 10 03 80  00 FF 0C 45 04 80 F0 FF  202........E....
0CF0: FF 7F F0 FF FF 7F 73 32  31 30 01 80 01 48 0D 02  ......s210...H..
0D00: 09 10 05 80 00 1B 0D 45  04 80 F0 FF FF 7F F0 FF  .......E........
0D10: FF 7F 73 32 31 30 01 80  01 48 0D 02 09 10 41 80  ..s210...H....A.
0D20: 00 37 0D 45 04 80 F0 FF  FF 7F F0 FF FF 7F 73 33  .7.E..........s3
0D30: 35 30 01 80 01 48 0D 45  04 80 F0 FF FF 7F F0 FF  50...H.E........
0D40: FF 7F 73 32 30 33 01 80  6F 76 FC 10 10 01 6F 76  ..s203..ov....ov
0D50: FA 10 10 01 6F 76 FB 10  10 01 4A FC 10 10 01 F0  ....ov....J.....
0D60: FF FF 7F 4B FA 10 10 01  42 80 4B FB 10 10 01 43  ...K....B.K....C
0D70: 80 6F 76 FC 10 10 01 6F  76 FA 10 10 01 6F 76 FB  .ov....ov....ov.
0D80: 10 10 01 79 00 FB 10 10  01 F0 FF FF 7F 79 00 FA  ...y.........y..
0D90: 10 10 01 F0 FF FF 7F 79  00 F0 FF FF 7F FC 10 10  .......y........
0DA0: 01 79 00 F8 10 10 01 FC  10 10 01 27 08 FC 10 10  .y.........'....
0DB0: 01 0A 29 08 FD 10 10 01  07 2B FC 10 10 01 44 80  ..)......+....D.
0DC0: 23 2A 08 FC 10 10 01 29  08 FD 10 10 01 08 79 00  #*.....)......y.
0DD0: FD 10 10 01 F0 FF FF 7F  79 00 FA 10 10 01 FD 10  ........y.......
0DE0: 10 01 79 00 F0 FF FF 7F  FD 10 10 01 2A 08 F0 FF  ..y.........*...
0DF0: FF 7F 2B FD 10 10 01 45  80 23 79 00 F0 FF FF 7F  ..+....E.#y.....
0E00: F8 10 10 01 02 09 10 03  80 00 1E 0E 52 04 80 F0  ............R...
0E10: FF FF 7F F0 FF FF 7F 73  32 31 30 01 61 0E 02 09  .......s210.a...
0E20: 10 05 80 00 38 0E 52 04  80 F0 FF FF 7F F0 FF FF  ....8.R.........
0E30: 7F 73 32 31 30 01 61 0E  02 09 10 41 80 00 52 0E  .s210.a....A..R.
0E40: 52 04 80 F0 FF FF 7F F0  FF FF 7F 73 33 35 30 01  R..........s350.
0E50: 61 0E 52 04 80 F0 FF FF  7F F0 FF FF 7F 73 32 30  a.R..........s20
0E60: 33 45 04 80 F0 FF FF 7F  F0 FF FF 7F 73 33 33 39  3E..........s339
0E70: 01 80 27 08 FC 10 10 01  0B 29 08 FD 10 10 01 05  ..'......)......
0E80: 4B FC 10 10 01 46 80 2B  95 10 10 01 47 80 23 29  K....F.+....G.#)
0E90: 08 F8 10 10 01 10 52 04  80 F0 FF FF 7F F0 FF FF  ......R.........
0EA0: 7F 73 33 33 39 45 04 80  F0 FF FF 7F F0 FF FF 7F  .s339E..........
0EB0: 73 32 30 36 01 80 79 00  F8 10 10 01 F0 FF FF 7F  s206..y.........
0EC0: 79 00 F0 FF FF 7F F8 10  10 01 79 00 FB 10 10 01  y.........y.....
0ED0: F8 10 10 01 79 00 FD 10  10 01 F8 10 10 01 29 08  ....y.........).
0EE0: F8 10 10 01 11 2B F8 10  10 01 48 80 23 29 08 F8  .....+....H.#)..
0EF0: 10 10 01 12 52 04 80 F0  FF FF 7F F0 FF FF 7F 73  ....R..........s
0F00: 32 30 36 45 04 80 F0 FF  FF 7F F0 FF FF 7F 73 33  206E..........s3
0F10: 34 30 01 80 29 08 FA 10  10 01 0B 29 08 95 10 10  40..)......)....
0F20: 01 1C 2B 95 10 10 01 49  80 23 29 08 95 10 10 01  ..+....I.#).....
0F30: 1D 79 00 FC 10 10 01 95  10 10 01 6F 76 FC 10 10  .y.........ov...
0F40: 01 29 08 F8 10 10 01 11  2B F8 10 10 01 4A 80 23  .)......+....J.#
0F50: 29 08 F8 10 10 01 12 79  00 FC 10 10 01 F0 FF FF  )......y........
0F60: 7F 2B F8 10 10 01 4B 80  23 79 00 F8 10 10 01 F0  .+....K.#y......
0F70: FF FF 7F 79 00 FA 10 10  01 F0 FF FF 7F 27 08 FA  ...y.........'..
0F80: 10 10 01 0A 27 08 F0 FF  FF 7F 76 1C 0B 80 52 04  ....'.....v...R.
0F90: 80 F0 FF FF 7F F0 FF FF  7F 73 33 34 30 02 09 10  .........s340...
0FA0: 03 80 00 B9 0F 45 04 80  F0 FF FF 7F F0 FF FF 7F  .....E..........
0FB0: 73 32 30 38 01 80 01 E6  0F 02 09 10 05 80 00 D5  s208............
0FC0: 0F 45 04 80 F0 FF FF 7F  F0 FF FF 7F 73 32 30 38  .E..........s208
0FD0: 01 80 01 E6 0F 45 04 80  F0 FF FF 7F F0 FF FF 7F  .....E..........
0FE0: 73 33 34 33 01 80 1C 11  80 79 00 FB 10 10 01 95  s343.....y......
0FF0: 10 10 01 4A 95 10 10 01  F0 FF FF 7F 79 00 F8 10  ...J........y...
1000: 10 01 FB 10 10 01 29 08  FB 10 10 01 01 2B FB 10  ......)......+..
1010: 10 01 4C 80 23 29 08 FB  10 10 01 02 29 08 FB 10  ..L.#)......)...
1020: 10 01 03 2A 08 F0 FF FF  7F 2A 08 FC 10 10 01 2A  ...*.....*.....*
1030: 08 FA 10 10 01 02 09 10  03 80 00 4F 10 52 04 80  ...........O.R..
1040: F0 FF FF 7F F0 FF FF 7F  73 32 30 38 01 78 10 02  ........s208.x..
1050: 09 10 05 80 00 69 10 52  04 80 F0 FF FF 7F F0 FF  .....i.R........
1060: FF 7F 73 32 30 38 01 78  10 52 04 80 F0 FF FF 7F  ..s208.x.R......
1070: F0 FF FF 7F 73 33 34 33  45 04 80 F0 FF FF 7F F0  ....s343E.......
1080: FF FF 7F 73 32 30 34 01  80 29 08 F8 10 10 01 19  ...s204..)......
1090: 6F 76 95 10 10 01 79 00  F8 10 10 01 F0 FF FF 7F  ov....y.........
10A0: 79 00 95 10 10 01 F0 FF  FF 7F 29 08 95 10 10 01  y.........).....
10B0: 1E 03 03 10 4D 80 2B 95  10 10 01 4E 80 23 29 08  ....M.+....N.#).
10C0: FB 10 10 01 04 29 08 F8  10 10 01 09 2B F8 10 10  .....)......+...
10D0: 01 4F 80 23 2B F8 10 10  01 50 80 23 29 08 F8 10  .O.#+....P.#)...
10E0: 10 01 0A 29 08 F8 10 10  01 0B 29 08 95 10 10 01  ...)......).....
10F0: 1F 29 08 95 10 10 01 20  52 04 80 F0 FF FF 7F F0  .)..... R.......
1100: FF FF 7F 73 32 30 34 45  04 80 F0 FF FF 7F F0 FF  ...s204E........
1110: FF 7F 73 32 30 39 01 80  2B 95 10 10 01 51 80 23  ..s209..+....Q.#
1120: 29 08 95 10 10 01 21 29  08 95 10 10 01 1C 2B 95  ).....!)......+.
1130: 10 10 01 52 80 23 29 08  95 10 10 01 1D 52 04 80  ...R.#)......R..
1140: F0 FF FF 7F F0 FF FF 7F  73 32 30 39 02 09 10 03  ........s209....
1150: 80 00 68 11 45 04 80 F0  FF FF 7F F0 FF FF 7F 73  ..h.E..........s
1160: 32 30 37 01 80 01 B1 11  02 09 10 05 80 00 84 11  207.............
1170: 45 04 80 F0 FF FF 7F F0  FF FF 7F 73 32 30 37 01  E..........s207.
1180: 80 01 B1 11 02 09 10 41  80 00 A0 11 45 04 80 F0  .......A....E...
1190: FF FF 7F F0 FF FF 7F 73  33 35 31 01 80 01 B1 11  .......s351.....
11A0: 45 04 80 F0 FF FF 7F F0  FF FF 7F 73 33 34 32 01  E..........s342.
11B0: 80 29 08 F8 10 10 01 0C  29 08 F8 10 10 01 01 2B  .)......)......+
11C0: F8 10 10 01 53 80 23 2B  F8 10 10 01 54 80 23 29  ....S.#+....T.#)
11D0: 08 F8 10 10 01 02 5D 01  80 00 80 45 00 80 F0 FF  ......]....E....
11E0: FF 7F F0 FF FF 7F 66 64  6F 31 01 80 55 00 80 F0  ......fdo1..U...
11F0: FF FF 7F F0 FF FF 7F 66  64 6F 31 02 09 10 03 80  .......fdo1.....
1200: 00 15 12 52 04 80 F0 FF  FF 7F F0 FF FF 7F 73 32  ...R..........s2
1210: 30 37 01 58 12 02 09 10  05 80 00 2F 12 52 04 80  07.X......./.R..
1220: F0 FF FF 7F F0 FF FF 7F  73 32 30 37 01 58 12 02  ........s207.X..
1230: 09 10 41 80 00 49 12 52  04 80 F0 FF FF 7F F0 FF  ..A..I.R........
1240: FF 7F 73 33 35 31 01 58  12 52 04 80 F0 FF FF 7F  ..s351.X.R......
1250: F0 FF FF 7F 73 33 34 32  35 33 80 77 15 80 07 80  ....s34253.w....
1260: 1C 07 80 5C 00 34 80 5C  01 34 80 9A 5D 06 80 07  ...\.4.\.4..]...
1270: 80 1C 35 80 29 08 F0 FF  FF 7F 72 45 55 80 F8 FF  ..5.).....rEU...
1280: FF 7F F8 FF FF 7F 71 73  74 63 01 80 46 00 45 00  ......qstc..F.E.
1290: 80 F0 FF FF 7F F0 FF FF  7F 66 64 69 31 01 80 20  .........fdi1.. 
12A0: 00 21 00                                          .!.             
```

#### Opcodes

```
  0: 0x094D [0x42] SET_CLI_EVENT_CANCEL_DATA()
  1: 0x094E [0x46] CAMERA_CONTROL: Disable user control
  2: 0x0950 [0x45] LOAD_SCHEDULED_TASK: Load scheduler "fdo1" with entities [LocalPlayer, LocalPlayer], work=[200*, 0*]
  3: 0x0961 [0x55] WAIT_LOAD_SCHEDULER: Wait for scheduler "fdo1" with entities [LocalPlayer, LocalPlayer], work=200*
  4: 0x0970 [0x38] SET_CLIENT_EVENT_MODE(mode=19*)
  5: 0x0973 [0x29] REQ_SET_WAIT(priority=0x08, entity_id=LocalPlayer, tag_num=0x6E)
  6: 0x097A [0x29] REQ_SET_WAIT(priority=0x08, entity_id=Sylvie (ID: 17830137/0x011010F9), tag_num=0x02)
  7: 0x0981 [0x29] REQ_SET_WAIT(priority=0x08, entity_id=Lhaiso Neftereh (ID: 17830136/0x011010F8), tag_num=0x1E)
  8: 0x0988 [0x80] LOAD_WAIT(entity=Lhaiso Neftereh (ID: 17830136/0x011010F8))
  9: 0x098D [0x80] LOAD_WAIT(entity=Nhili Uvolep (ID: 17830120/0x011010E8))
 10: 0x0992 [0x92] Lhaiso Neftereh (ID: 17830136/0x011010F8)->Render.Flags3 ^= 0x01
 11: 0x0998 [0x92] Nhili Uvolep (ID: 17830120/0x011010E8)->Render.Flags3 ^= 0x01
 12: 0x099E [0x92] Sylvie (ID: 17830137/0x011010F9)->Render.Flags3 ^= 0x01
 13: 0x09A4 [0x29] REQ_SET_WAIT(priority=0x08, entity_id=LocalPlayer, tag_num=0x03)
 14: 0x09AB [0x29] REQ_SET_WAIT(priority=0x08, entity_id=LocalPlayer, tag_num=0x6C)
 15: 0x09B2 [0x4A] LocalPlayer looks at Nhili Uvolep (ID: 17830120/0x011010E8)
 16: 0x09BB [0x79] Nhili Uvolep (ID: 17830120/0x011010E8) looks at LocalPlayer (Basic look)
 17: 0x09C5 [0x6F] WAIT_FRAME_DELAY: Yield until WaitTime reaches zero
 18: 0x09C6 [0x76] CHECK_ENTITY_RENDER_FLAGS: Wait until LocalPlayer Render.Flags0 and Render.Flags3 conditions are met
 19: 0x09CB [0x29] REQ_SET_WAIT(priority=0x08, entity_id=Nhili Uvolep (ID: 17830120/0x011010E8), tag_num=0x21)
 20: 0x09D2 [0x02] IF !(Work_Zone[9] == 5*) GOTO 0x09EE
 21: 0x09DA [0x45] LOAD_SCHEDULED_TASK: Load scheduler "s170" with entities [LocalPlayer, LocalPlayer], work=[660*, 0*]
 22: 0x09EB [0x01] GOTO 0x0A1B
 23: 0x09EE [0x02] IF !(Work_Zone[9] == 6*) GOTO 0x0A0A
 24: 0x09F6 [0x45] LOAD_SCHEDULED_TASK: Load scheduler "s170" with entities [LocalPlayer, LocalPlayer], work=[660*, 0*]
 25: 0x0A07 [0x01] GOTO 0x0A1B
 26: 0x0A0A [0x45] LOAD_SCHEDULED_TASK: Load scheduler "s191" with entities [LocalPlayer, LocalPlayer], work=[660*, 0*]

SUBROUTINE_0A1B:
 27: 0x0A1B [0x45] LOAD_SCHEDULED_TASK: Load scheduler "fdi1" with entities [LocalPlayer, LocalPlayer], work=[200*, 0*]
 28: 0x0A2C [0x55] WAIT_LOAD_SCHEDULER: Wait for scheduler "fdi1" with entities [LocalPlayer, LocalPlayer], work=200*
 29: 0x0A3B [0x2B] Nhili Uvolep (ID: 17830120/0x011010E8) [10591*]:
    → "Ah, <Player>... Ikhi Askamot and Lhaiso Neftereh have been waiting for you."
 30: 0x0A42 [0x23] WAIT_FOR_DIALOG_INTERACTION
 31: 0x0A43 [0x29] REQ_SET_WAIT(priority=0x08, entity_id=Nhili Uvolep (ID: 17830120/0x011010E8), tag_num=0x22)
 32: 0x0A4A [0x2B] Nhili Uvolep (ID: 17830120/0x011010E8) [10592*]:
    → "I am afrrraid, however, that Lhaiso has taken ill. Please make your visit brrrief."
 33: 0x0A51 [0x23] WAIT_FOR_DIALOG_INTERACTION
 34: 0x0A52 [0x5D] SET_MUSIC_VOLUME(volume=0*, fade_time=200*)
 35: 0x0A57 [0x45] LOAD_SCHEDULED_TASK: Load scheduler "fdo1" with entities [LocalPlayer, LocalPlayer], work=[200*, 0*]
 36: 0x0A68 [0x55] WAIT_LOAD_SCHEDULER: Wait for scheduler "fdo1" with entities [LocalPlayer, LocalPlayer], work=200*
 37: 0x0A77 [0x52] END_LOAD_SCHEDULER: End scheduler "s173" with entities [LocalPlayer, LocalPlayer], work=660*
 38: 0x0A86 [0x34] LOAD_UNLOAD_ZONE(zone_id=593*)
 39: 0x0A89 [0x77] SET_EVENT_TIME_WEATHER(hour=255*, weather=1*)
 40: 0x0A8E [0x2A] GET_REQ_LEVEL(level=8, entity_id=Lhaiso Neftereh (ID: 17830136/0x011010F8))
 41: 0x0A94 [0x29] REQ_SET_WAIT(priority=0x08, entity_id=LocalPlayer, tag_num=0x74)
 42: 0x0A9B [0x29] REQ_SET_WAIT(priority=0x08, entity_id=Ikhi Askamot (ID: 17830037/0x01101095), tag_num=0x17)
 43: 0x0AA2 [0x29] REQ_SET_WAIT(priority=0x08, entity_id=Lhaiso Neftereh (ID: 17830136/0x011010F8), tag_num=0x24)
 44: 0x0AA9 [0x29] REQ_SET_WAIT(priority=0x08, entity_id=Gregoirellaud (ID: 17830138/0x011010FA), tag_num=0x09)
 45: 0x0AB0 [0x29] REQ_SET_WAIT(priority=0x08, entity_id=Hemborok (ID: 17830139/0x011010FB), tag_num=0x09)
 46: 0x0AB7 [0x29] REQ_SET_WAIT(priority=0x08, entity_id=Obelailai (ID: 17830140/0x011010FC), tag_num=0x09)
 47: 0x0ABE [0x29] REQ_SET_WAIT(priority=0x08, entity_id=Lionardois (ID: 17830141/0x011010FD), tag_num=0x0A)
 48: 0x0AC5 [0x80] LOAD_WAIT(entity=Lhaiso Neftereh (ID: 17830136/0x011010F8))
 49: 0x0ACA [0x80] LOAD_WAIT(entity=Gregoirellaud (ID: 17830138/0x011010FA))
 50: 0x0ACF [0x80] LOAD_WAIT(entity=Hemborok (ID: 17830139/0x011010FB))
 51: 0x0AD4 [0x80] LOAD_WAIT(entity=Obelailai (ID: 17830140/0x011010FC))
 52: 0x0AD9 [0x29] REQ_SET_WAIT(priority=0x08, entity_id=Lionardois (ID: 17830141/0x011010FD), tag_num=0x05)
 53: 0x0AE0 [0x29] REQ_SET_WAIT(priority=0x08, entity_id=Lhaiso Neftereh (ID: 17830136/0x011010F8), tag_num=0x0D)
 54: 0x0AE7 [0x29] REQ_SET_WAIT(priority=0x08, entity_id=Lionardois (ID: 17830141/0x011010FD), tag_num=0x06)
 55: 0x0AEE [0x29] REQ_SET_WAIT(priority=0x08, entity_id=Lhaiso Neftereh (ID: 17830136/0x011010F8), tag_num=0x0E)
 56: 0x0AF5 [0x79] Hemborok (ID: 17830139/0x011010FB) looks at Lhaiso Neftereh (ID: 17830136/0x011010F8) (Basic look)
 57: 0x0AFF [0x79] Gregoirellaud (ID: 17830138/0x011010FA) looks at Lhaiso Neftereh (ID: 17830136/0x011010F8) (Basic look)
 58: 0x0B09 [0x79] Obelailai (ID: 17830140/0x011010FC) looks at Ikhi Askamot (ID: 17830037/0x01101095) (Basic look)
 59: 0x0B13 [0x92] Gregoirellaud (ID: 17830138/0x011010FA)->Render.Flags3 ^= 0x01
 60: 0x0B19 [0x92] Hemborok (ID: 17830139/0x011010FB)->Render.Flags3 ^= 0x01
 61: 0x0B1F [0x92] Obelailai (ID: 17830140/0x011010FC)->Render.Flags3 ^= 0x01
 62: 0x0B25 [0x92] Lionardois (ID: 17830141/0x011010FD)->Render.Flags3 ^= 0x01
 63: 0x0B2B [0x92] Ikhi Askamot (ID: 17830037/0x01101095)->Render.Flags3 ^= 0x01
 64: 0x0B31 [0x79] LocalPlayer looks at Lhaiso Neftereh (ID: 17830136/0x011010F8) (Basic look)
 65: 0x0B3B [0x5C] MUSIC_CONTROL: Set Idle (Day) music to song 68*
 66: 0x0B3F [0x5C] MUSIC_CONTROL: Set Idle (Night) music to song 68*
 67: 0x0B43 [0x9A] WAIT_MUSIC_SERVER()
 68: 0x0B44 [0x5D] SET_MUSIC_VOLUME(volume=127*, fade_time=1*)
 69: 0x0B49 [0x79] Ikhi Askamot (ID: 17830037/0x01101095) looks at Hemborok (ID: 17830139/0x011010FB) (Basic look)
 70: 0x0B53 [0x45] LOAD_SCHEDULED_TASK: Load scheduler "s338" with entities [LocalPlayer, LocalPlayer], work=[660*, 0*]
 71: 0x0B64 [0x45] LOAD_SCHEDULED_TASK: Load scheduler "fdi1" with entities [LocalPlayer, LocalPlayer], work=[200*, 0*]
 72: 0x0B75 [0x55] WAIT_LOAD_SCHEDULER: Wait for scheduler "fdi1" with entities [LocalPlayer, LocalPlayer], work=200*
 73: 0x0B84 [0x29] REQ_SET_WAIT(priority=0x08, entity_id=Hemborok (ID: 17830139/0x011010FB), tag_num=0x01)
 74: 0x0B8B [0x2B] Hemborok (ID: 17830139/0x011010FB) [10593*]:
    → "Lhaiso, forgive my impudence, but I must be frank."
 75: 0x0B92 [0x23] WAIT_FOR_DIALOG_INTERACTION
 76: 0x0B93 [0x79] Gregoirellaud (ID: 17830138/0x011010FA) looks at Hemborok (ID: 17830139/0x011010FB) (Basic look)
 77: 0x0B9D [0x2B] Hemborok (ID: 17830139/0x011010FB) [10594*]:
    → "You may have fallen ill because the higher power is angered at your assistance of the blood of the betrayer."
 78: 0x0BA4 [0x23] WAIT_FOR_DIALOG_INTERACTION
 79: 0x0BA5 [0x29] REQ_SET_WAIT(priority=0x08, entity_id=Hemborok (ID: 17830139/0x011010FB), tag_num=0x02)
 80: 0x0BAC [0x29] REQ_SET_WAIT(priority=0x08, entity_id=Hemborok (ID: 17830139/0x011010FB), tag_num=0x03)
 81: 0x0BB3 [0x52] END_LOAD_SCHEDULER: End scheduler "s338" with entities [LocalPlayer, LocalPlayer], work=660*
 82: 0x0BC2 [0x45] LOAD_SCHEDULED_TASK: Load scheduler "s337" with entities [LocalPlayer, LocalPlayer], work=[660*, 0*]
 83: 0x0BD3 [0x29] REQ_SET_WAIT(priority=0x08, entity_id=Gregoirellaud (ID: 17830138/0x011010FA), tag_num=0x01)
 84: 0x0BDA [0x2B] Gregoirellaud (ID: 17830138/0x011010FA) [10595*]:
    → "I disagree. The higher power would not castigate her just because we aided another."
 85: 0x0BE1 [0x79] Ikhi Askamot (ID: 17830037/0x01101095) looks at Lhaiso Neftereh (ID: 17830136/0x011010F8) (Basic look)
 86: 0x0BEB [0x4B] UPDATE_ENTITY_YAW(entity=Ikhi Askamot (ID: 17830037/0x01101095), yaw=1.6°*)
 87: 0x0BF2 [0x1C] WAIT(30* ticks)
 88: 0x0BF5 [0x79] Hemborok (ID: 17830139/0x011010FB) looks at Gregoirellaud (ID: 17830138/0x011010FA) (Basic look)
 89: 0x0BFF [0x23] WAIT_FOR_DIALOG_INTERACTION
 90: 0x0C00 [0x2B] Gregoirellaud (ID: 17830138/0x011010FA) [10596*]:
    → "No, what's more likely is that the betrayer's descendant poisoned her."
 91: 0x0C07 [0x23] WAIT_FOR_DIALOG_INTERACTION
 92: 0x0C08 [0x29] REQ_SET_WAIT(priority=0x08, entity_id=Gregoirellaud (ID: 17830138/0x011010FA), tag_num=0x02)
 93: 0x0C0F [0x29] REQ_SET_WAIT(priority=0x08, entity_id=Gregoirellaud (ID: 17830138/0x011010FA), tag_num=0x03)
 94: 0x0C16 [0x6F] WAIT_FRAME_DELAY: Yield until WaitTime reaches zero
 95: 0x0C17 [0x76] CHECK_ENTITY_RENDER_FLAGS: Wait until Ikhi Askamot (ID: 17830037/0x01101095) Render.Flags0 and Render.Flags3 conditions are met
 96: 0x0C1C [0x52] END_LOAD_SCHEDULER: End scheduler "s337" with entities [LocalPlayer, LocalPlayer], work=660*
 97: 0x0C2B [0x45] LOAD_SCHEDULED_TASK: Load scheduler "s341" with entities [LocalPlayer, LocalPlayer], work=[660*, 0*]
 98: 0x0C3C [0x79] Lhaiso Neftereh (ID: 17830136/0x011010F8) looks at Ikhi Askamot (ID: 17830037/0x01101095) (Basic look)
 99: 0x0C46 [0x29] REQ_SET_WAIT(priority=0x08, entity_id=Lhaiso Neftereh (ID: 17830136/0x011010F8), tag_num=0x0F)
100: 0x0C4D [0x2B] Ikhi Askamot (ID: 17830037/0x01101095) [10597*]:
    → "And Lhaiso, what do you think?"
101: 0x0C54 [0x23] WAIT_FOR_DIALOG_INTERACTION
102: 0x0C55 [0x29] REQ_SET_WAIT(priority=0x08, entity_id=Hemborok (ID: 17830139/0x011010FB), tag_num=0x04)
103: 0x0C5C [0x29] REQ_SET_WAIT(priority=0x08, entity_id=Gregoirellaud (ID: 17830138/0x011010FA), tag_num=0x04)
104: 0x0C63 [0x4A] Hemborok (ID: 17830139/0x011010FB) looks at Lhaiso Neftereh (ID: 17830136/0x011010F8)
105: 0x0C6C [0x4A] Gregoirellaud (ID: 17830138/0x011010FA) looks at Lhaiso Neftereh (ID: 17830136/0x011010F8)
106: 0x0C75 [0x4A] Obelailai (ID: 17830140/0x011010FC) looks at Lhaiso Neftereh (ID: 17830136/0x011010F8)
107: 0x0C7E [0x1C] WAIT(20* ticks)
108: 0x0C81 [0x2B] Lhaiso Neftereh (ID: 17830136/0x011010F8) [10598*]:
    → "I cannot quite put my finger on it...but it probably has to do with our total inability to stop the colonization of Ulbuka."
109: 0x0C88 [0x29] REQ_SET_WAIT(priority=0x08, entity_id=Lhaiso Neftereh (ID: 17830136/0x011010F8), tag_num=0x10)
110: 0x0C8F [0x2C] CREATE_SCHEDULER_TASK: Create scheduler "open" with entities [Door: (ID: 17830068/0x011010B4), Door: (ID: 17830068/0x011010B4)]
111: 0x0C9C [0x23] WAIT_FOR_DIALOG_INTERACTION
112: 0x0C9D [0x27] REQ_SET(priority=0x08, entity_id=LocalPlayer, tag_num=0x75)
113: 0x0CA4 [0x1C] WAIT(20* ticks)
114: 0x0CA7 [0x52] END_LOAD_SCHEDULER: End scheduler "s341" with entities [LocalPlayer, LocalPlayer], work=660*
115: 0x0CB6 [0x45] LOAD_SCHEDULED_TASK: Load scheduler "s202" with entities [LocalPlayer, LocalPlayer], work=[660*, 0*]
116: 0x0CC7 [0x79] Ikhi Askamot (ID: 17830037/0x01101095) looks at LocalPlayer (Basic look)
117: 0x0CD1 [0x1C] WAIT(120* ticks)
118: 0x0CD4 [0x52] END_LOAD_SCHEDULER: End scheduler "s202" with entities [LocalPlayer, LocalPlayer], work=660*
119: 0x0CE3 [0x02] IF !(Work_Zone[9] == 5*) GOTO 0x0CFF
120: 0x0CEB [0x45] LOAD_SCHEDULED_TASK: Load scheduler "s210" with entities [LocalPlayer, LocalPlayer], work=[660*, 0*]
121: 0x0CFC [0x01] GOTO 0x0D48
122: 0x0CFF [0x02] IF !(Work_Zone[9] == 6*) GOTO 0x0D1B
123: 0x0D07 [0x45] LOAD_SCHEDULED_TASK: Load scheduler "s210" with entities [LocalPlayer, LocalPlayer], work=[660*, 0*]
124: 0x0D18 [0x01] GOTO 0x0D48
125: 0x0D1B [0x02] IF !(Work_Zone[9] == 8*) GOTO 0x0D37
126: 0x0D23 [0x45] LOAD_SCHEDULED_TASK: Load scheduler "s350" with entities [LocalPlayer, LocalPlayer], work=[660*, 0*]
127: 0x0D34 [0x01] GOTO 0x0D48
128: 0x0D37 [0x45] LOAD_SCHEDULED_TASK: Load scheduler "s203" with entities [LocalPlayer, LocalPlayer], work=[660*, 0*]

SUBROUTINE_0D48:
129: 0x0D48 [0x6F] WAIT_FRAME_DELAY: Yield until WaitTime reaches zero
130: 0x0D49 [0x76] CHECK_ENTITY_RENDER_FLAGS: Wait until Obelailai (ID: 17830140/0x011010FC) Render.Flags0 and Render.Flags3 conditions are met
131: 0x0D4E [0x6F] WAIT_FRAME_DELAY: Yield until WaitTime reaches zero
132: 0x0D4F [0x76] CHECK_ENTITY_RENDER_FLAGS: Wait until Gregoirellaud (ID: 17830138/0x011010FA) Render.Flags0 and Render.Flags3 conditions are met
133: 0x0D54 [0x6F] WAIT_FRAME_DELAY: Yield until WaitTime reaches zero
134: 0x0D55 [0x76] CHECK_ENTITY_RENDER_FLAGS: Wait until Hemborok (ID: 17830139/0x011010FB) Render.Flags0 and Render.Flags3 conditions are met
135: 0x0D5A [0x4A] Obelailai (ID: 17830140/0x011010FC) looks at LocalPlayer
136: 0x0D63 [0x4B] UPDATE_ENTITY_YAW(entity=Gregoirellaud (ID: 17830138/0x011010FA), yaw=4.4°*)
137: 0x0D6A [0x4B] UPDATE_ENTITY_YAW(entity=Hemborok (ID: 17830139/0x011010FB), yaw=11.5°*)
138: 0x0D71 [0x6F] WAIT_FRAME_DELAY: Yield until WaitTime reaches zero
139: 0x0D72 [0x76] CHECK_ENTITY_RENDER_FLAGS: Wait until Obelailai (ID: 17830140/0x011010FC) Render.Flags0 and Render.Flags3 conditions are met
140: 0x0D77 [0x6F] WAIT_FRAME_DELAY: Yield until WaitTime reaches zero
141: 0x0D78 [0x76] CHECK_ENTITY_RENDER_FLAGS: Wait until Gregoirellaud (ID: 17830138/0x011010FA) Render.Flags0 and Render.Flags3 conditions are met
142: 0x0D7D [0x6F] WAIT_FRAME_DELAY: Yield until WaitTime reaches zero
143: 0x0D7E [0x76] CHECK_ENTITY_RENDER_FLAGS: Wait until Hemborok (ID: 17830139/0x011010FB) Render.Flags0 and Render.Flags3 conditions are met
144: 0x0D83 [0x79] Hemborok (ID: 17830139/0x011010FB) looks at LocalPlayer (Basic look)
145: 0x0D8D [0x79] Gregoirellaud (ID: 17830138/0x011010FA) looks at LocalPlayer (Basic look)
146: 0x0D97 [0x79] LocalPlayer looks at Obelailai (ID: 17830140/0x011010FC) (Basic look)
147: 0x0DA1 [0x79] Lhaiso Neftereh (ID: 17830136/0x011010F8) looks at Obelailai (ID: 17830140/0x011010FC) (Basic look)
148: 0x0DAB [0x27] REQ_SET(priority=0x08, entity_id=Obelailai (ID: 17830140/0x011010FC), tag_num=0x0A)
149: 0x0DB2 [0x29] REQ_SET_WAIT(priority=0x08, entity_id=Lionardois (ID: 17830141/0x011010FD), tag_num=0x07)
150: 0x0DB9 [0x2B] Obelailai (ID: 17830140/0x011010FC) [10599*]:
    → "Look who it is! One of the pioneers who caused all this trouble to begin with!"
151: 0x0DC0 [0x23] WAIT_FOR_DIALOG_INTERACTION
152: 0x0DC1 [0x2A] GET_REQ_LEVEL(level=8, entity_id=Obelailai (ID: 17830140/0x011010FC))
153: 0x0DC7 [0x29] REQ_SET_WAIT(priority=0x08, entity_id=Lionardois (ID: 17830141/0x011010FD), tag_num=0x08)
154: 0x0DCE [0x79] Lionardois (ID: 17830141/0x011010FD) looks at LocalPlayer (Basic look)
155: 0x0DD8 [0x79] Gregoirellaud (ID: 17830138/0x011010FA) looks at Lionardois (ID: 17830141/0x011010FD) (Basic look)
156: 0x0DE2 [0x79] LocalPlayer looks at Lionardois (ID: 17830141/0x011010FD) (Basic look)
157: 0x0DEC [0x2A] GET_REQ_LEVEL(level=8, entity_id=LocalPlayer)
158: 0x0DF2 [0x2B] Lionardois (ID: 17830141/0x011010FD) [10600*]:
    → "This is why I was completely opposed to sharing the powers of the geomancer with one so intent on pillaging and defiling the land."
159: 0x0DF9 [0x23] WAIT_FOR_DIALOG_INTERACTION
160: 0x0DFA [0x79] LocalPlayer looks at Lhaiso Neftereh (ID: 17830136/0x011010F8) (Basic look)
161: 0x0E04 [0x02] IF !(Work_Zone[9] == 5*) GOTO 0x0E1E
162: 0x0E0C [0x52] END_LOAD_SCHEDULER: End scheduler "s210" with entities [LocalPlayer, LocalPlayer], work=660*
163: 0x0E1B [0x01] GOTO 0x0E61
164: 0x0E1E [0x02] IF !(Work_Zone[9] == 6*) GOTO 0x0E38
165: 0x0E26 [0x52] END_LOAD_SCHEDULER: End scheduler "s210" with entities [LocalPlayer, LocalPlayer], work=660*
166: 0x0E35 [0x01] GOTO 0x0E61
167: 0x0E38 [0x02] IF !(Work_Zone[9] == 8*) GOTO 0x0E52
168: 0x0E40 [0x52] END_LOAD_SCHEDULER: End scheduler "s350" with entities [LocalPlayer, LocalPlayer], work=660*
169: 0x0E4F [0x01] GOTO 0x0E61
170: 0x0E52 [0x52] END_LOAD_SCHEDULER: End scheduler "s203" with entities [LocalPlayer, LocalPlayer], work=660*

SUBROUTINE_0E61:
171: 0x0E61 [0x45] LOAD_SCHEDULED_TASK: Load scheduler "s339" with entities [LocalPlayer, LocalPlayer], work=[660*, 0*]
172: 0x0E72 [0x27] REQ_SET(priority=0x08, entity_id=Obelailai (ID: 17830140/0x011010FC), tag_num=0x0B)
173: 0x0E79 [0x29] REQ_SET_WAIT(priority=0x08, entity_id=Lionardois (ID: 17830141/0x011010FD), tag_num=0x05)
174: 0x0E80 [0x4B] UPDATE_ENTITY_YAW(entity=Obelailai (ID: 17830140/0x011010FC), yaw=11.1°*)
175: 0x0E87 [0x2B] Ikhi Askamot (ID: 17830037/0x01101095) [10601*]:
    → "That's enough out of you all. This [man/woman] is a guest of ourrrs."
176: 0x0E8E [0x23] WAIT_FOR_DIALOG_INTERACTION
177: 0x0E8F [0x29] REQ_SET_WAIT(priority=0x08, entity_id=Lhaiso Neftereh (ID: 17830136/0x011010F8), tag_num=0x10)
178: 0x0E96 [0x52] END_LOAD_SCHEDULER: End scheduler "s339" with entities [LocalPlayer, LocalPlayer], work=660*
179: 0x0EA5 [0x45] LOAD_SCHEDULED_TASK: Load scheduler "s206" with entities [LocalPlayer, LocalPlayer], work=[660*, 0*]
180: 0x0EB6 [0x79] Lhaiso Neftereh (ID: 17830136/0x011010F8) looks at LocalPlayer (Basic look)
181: 0x0EC0 [0x79] LocalPlayer looks at Lhaiso Neftereh (ID: 17830136/0x011010F8) (Basic look)
182: 0x0ECA [0x79] Hemborok (ID: 17830139/0x011010FB) looks at Lhaiso Neftereh (ID: 17830136/0x011010F8) (Basic look)
183: 0x0ED4 [0x79] Lionardois (ID: 17830141/0x011010FD) looks at Lhaiso Neftereh (ID: 17830136/0x011010F8) (Basic look)
184: 0x0EDE [0x29] REQ_SET_WAIT(priority=0x08, entity_id=Lhaiso Neftereh (ID: 17830136/0x011010F8), tag_num=0x11)
185: 0x0EE5 [0x2B] Lhaiso Neftereh (ID: 17830136/0x011010F8) [10602*]:
    → "Forgive me for not being able to give you a proper greeting, <Player>."
186: 0x0EEC [0x23] WAIT_FOR_DIALOG_INTERACTION
187: 0x0EED [0x29] REQ_SET_WAIT(priority=0x08, entity_id=Lhaiso Neftereh (ID: 17830136/0x011010F8), tag_num=0x12)
188: 0x0EF4 [0x52] END_LOAD_SCHEDULER: End scheduler "s206" with entities [LocalPlayer, LocalPlayer], work=660*
189: 0x0F03 [0x45] LOAD_SCHEDULED_TASK: Load scheduler "s340" with entities [LocalPlayer, LocalPlayer], work=[660*, 0*]
190: 0x0F14 [0x29] REQ_SET_WAIT(priority=0x08, entity_id=Gregoirellaud (ID: 17830138/0x011010FA), tag_num=0x0B)
191: 0x0F1B [0x29] REQ_SET_WAIT(priority=0x08, entity_id=Ikhi Askamot (ID: 17830037/0x01101095), tag_num=0x1C)
192: 0x0F22 [0x2B] Ikhi Askamot (ID: 17830037/0x01101095) [10603*]:
    → "Lhaiso used the power of the Communion to converse with something greater than us...the higher power..."
193: 0x0F29 [0x23] WAIT_FOR_DIALOG_INTERACTION
194: 0x0F2A [0x29] REQ_SET_WAIT(priority=0x08, entity_id=Ikhi Askamot (ID: 17830037/0x01101095), tag_num=0x1D)
195: 0x0F31 [0x79] Obelailai (ID: 17830140/0x011010FC) looks at Ikhi Askamot (ID: 17830037/0x01101095) (Basic look)
196: 0x0F3B [0x6F] WAIT_FRAME_DELAY: Yield until WaitTime reaches zero
197: 0x0F3C [0x76] CHECK_ENTITY_RENDER_FLAGS: Wait until Obelailai (ID: 17830140/0x011010FC) Render.Flags0 and Render.Flags3 conditions are met
198: 0x0F41 [0x29] REQ_SET_WAIT(priority=0x08, entity_id=Lhaiso Neftereh (ID: 17830136/0x011010F8), tag_num=0x11)
199: 0x0F48 [0x2B] Lhaiso Neftereh (ID: 17830136/0x011010F8) [10604*]:
    → "I suppose I am so tired because the spell took the wind out of my sails."
200: 0x0F4F [0x23] WAIT_FOR_DIALOG_INTERACTION
201: 0x0F50 [0x29] REQ_SET_WAIT(priority=0x08, entity_id=Lhaiso Neftereh (ID: 17830136/0x011010F8), tag_num=0x12)
202: 0x0F57 [0x79] Obelailai (ID: 17830140/0x011010FC) looks at LocalPlayer (Basic look)
203: 0x0F61 [0x2B] Lhaiso Neftereh (ID: 17830136/0x011010F8) [10605*]:
    → "<Player>, I called you to this manse today because I have something to bequeath unto you."
204: 0x0F68 [0x23] WAIT_FOR_DIALOG_INTERACTION
205: 0x0F69 [0x79] Lhaiso Neftereh (ID: 17830136/0x011010F8) looks at LocalPlayer (Basic look)
206: 0x0F73 [0x79] Gregoirellaud (ID: 17830138/0x011010FA) looks at LocalPlayer (Basic look)
207: 0x0F7D [0x27] REQ_SET(priority=0x08, entity_id=Gregoirellaud (ID: 17830138/0x011010FA), tag_num=0x0A)
208: 0x0F84 [0x27] REQ_SET(priority=0x08, entity_id=LocalPlayer, tag_num=0x76)
209: 0x0F8B [0x1C] WAIT(20* ticks)
210: 0x0F8E [0x52] END_LOAD_SCHEDULER: End scheduler "s340" with entities [LocalPlayer, LocalPlayer], work=660*
211: 0x0F9D [0x02] IF !(Work_Zone[9] == 5*) GOTO 0x0FB9
212: 0x0FA5 [0x45] LOAD_SCHEDULED_TASK: Load scheduler "s208" with entities [LocalPlayer, LocalPlayer], work=[660*, 0*]
213: 0x0FB6 [0x01] GOTO 0x0FE6
214: 0x0FB9 [0x02] IF !(Work_Zone[9] == 6*) GOTO 0x0FD5
215: 0x0FC1 [0x45] LOAD_SCHEDULED_TASK: Load scheduler "s208" with entities [LocalPlayer, LocalPlayer], work=[660*, 0*]
216: 0x0FD2 [0x01] GOTO 0x0FE6
217: 0x0FD5 [0x45] LOAD_SCHEDULED_TASK: Load scheduler "s343" with entities [LocalPlayer, LocalPlayer], work=[660*, 0*]

SUBROUTINE_0FE6:
218: 0x0FE6 [0x1C] WAIT(40* ticks)
219: 0x0FE9 [0x79] Hemborok (ID: 17830139/0x011010FB) looks at Ikhi Askamot (ID: 17830037/0x01101095) (Basic look)
220: 0x0FF3 [0x4A] Ikhi Askamot (ID: 17830037/0x01101095) looks at LocalPlayer
221: 0x0FFC [0x79] Lhaiso Neftereh (ID: 17830136/0x011010F8) looks at Hemborok (ID: 17830139/0x011010FB) (Basic look)
222: 0x1006 [0x29] REQ_SET_WAIT(priority=0x08, entity_id=Hemborok (ID: 17830139/0x011010FB), tag_num=0x01)
223: 0x100D [0x2B] Hemborok (ID: 17830139/0x011010FB) [10606*]:
    → "Is it wise to entrust this one with something so precious?"
224: 0x1014 [0x23] WAIT_FOR_DIALOG_INTERACTION
225: 0x1015 [0x29] REQ_SET_WAIT(priority=0x08, entity_id=Hemborok (ID: 17830139/0x011010FB), tag_num=0x02)
226: 0x101C [0x29] REQ_SET_WAIT(priority=0x08, entity_id=Hemborok (ID: 17830139/0x011010FB), tag_num=0x03)
227: 0x1023 [0x2A] GET_REQ_LEVEL(level=8, entity_id=LocalPlayer)
228: 0x1029 [0x2A] GET_REQ_LEVEL(level=8, entity_id=Obelailai (ID: 17830140/0x011010FC))
229: 0x102F [0x2A] GET_REQ_LEVEL(level=8, entity_id=Gregoirellaud (ID: 17830138/0x011010FA))
230: 0x1035 [0x02] IF !(Work_Zone[9] == 5*) GOTO 0x104F
231: 0x103D [0x52] END_LOAD_SCHEDULER: End scheduler "s208" with entities [LocalPlayer, LocalPlayer], work=660*
232: 0x104C [0x01] GOTO 0x1078
233: 0x104F [0x02] IF !(Work_Zone[9] == 6*) GOTO 0x1069
234: 0x1057 [0x52] END_LOAD_SCHEDULER: End scheduler "s208" with entities [LocalPlayer, LocalPlayer], work=660*
235: 0x1066 [0x01] GOTO 0x1078
236: 0x1069 [0x52] END_LOAD_SCHEDULER: End scheduler "s343" with entities [LocalPlayer, LocalPlayer], work=660*

SUBROUTINE_1078:
237: 0x1078 [0x45] LOAD_SCHEDULED_TASK: Load scheduler "s204" with entities [LocalPlayer, LocalPlayer], work=[660*, 0*]
238: 0x1089 [0x29] REQ_SET_WAIT(priority=0x08, entity_id=Lhaiso Neftereh (ID: 17830136/0x011010F8), tag_num=0x19)
239: 0x1090 [0x6F] WAIT_FRAME_DELAY: Yield until WaitTime reaches zero
240: 0x1091 [0x76] CHECK_ENTITY_RENDER_FLAGS: Wait until Ikhi Askamot (ID: 17830037/0x01101095) Render.Flags0 and Render.Flags3 conditions are met
241: 0x1096 [0x79] Lhaiso Neftereh (ID: 17830136/0x011010F8) looks at LocalPlayer (Basic look)
242: 0x10A0 [0x79] Ikhi Askamot (ID: 17830037/0x01101095) looks at LocalPlayer (Basic look)
243: 0x10AA [0x29] REQ_SET_WAIT(priority=0x08, entity_id=Ikhi Askamot (ID: 17830037/0x01101095), tag_num=0x1E)
244: 0x10B1 [0x03] Work_Zone[3] = 28066*
245: 0x10B6 [0x2B] Ikhi Askamot (ID: 17830037/0x01101095) [10607*]:
    → "Here...for you."
246: 0x10BD [0x23] WAIT_FOR_DIALOG_INTERACTION
247: 0x10BE [0x29] REQ_SET_WAIT(priority=0x08, entity_id=Hemborok (ID: 17830139/0x011010FB), tag_num=0x04)
248: 0x10C5 [0x29] REQ_SET_WAIT(priority=0x08, entity_id=Lhaiso Neftereh (ID: 17830136/0x011010F8), tag_num=0x09)
249: 0x10CC [0x2B] Lhaiso Neftereh (ID: 17830136/0x011010F8) [10608*]:
    → "Many assert that it was a grave mistake for geomancers to have lent their aid to the colonization effort."
250: 0x10D3 [0x23] WAIT_FOR_DIALOG_INTERACTION
251: 0x10D4 [0x2B] Lhaiso Neftereh (ID: 17830136/0x011010F8) [10609*]:
    → "But Ikhi and I were both in accord that this issue of opening up the continent is one that should be resolved with the pioneers, not in spite of them."
252: 0x10DB [0x23] WAIT_FOR_DIALOG_INTERACTION
253: 0x10DC [0x29] REQ_SET_WAIT(priority=0x08, entity_id=Lhaiso Neftereh (ID: 17830136/0x011010F8), tag_num=0x0A)
254: 0x10E3 [0x29] REQ_SET_WAIT(priority=0x08, entity_id=Lhaiso Neftereh (ID: 17830136/0x011010F8), tag_num=0x0B)
255: 0x10EA [0x29] REQ_SET_WAIT(priority=0x08, entity_id=Ikhi Askamot (ID: 17830037/0x01101095), tag_num=0x1F)
256: 0x10F1 [0x29] REQ_SET_WAIT(priority=0x08, entity_id=Ikhi Askamot (ID: 17830037/0x01101095), tag_num=0x20)
257: 0x10F8 [0x52] END_LOAD_SCHEDULER: End scheduler "s204" with entities [LocalPlayer, LocalPlayer], work=660*
258: 0x1107 [0x45] LOAD_SCHEDULED_TASK: Load scheduler "s209" with entities [LocalPlayer, LocalPlayer], work=[660*, 0*]
259: 0x1118 [0x2B] Ikhi Askamot (ID: 17830037/0x01101095) [10610*]:
    → "Nature--the higher power--has strrriven for eons to reconcile the irreconcilable within her loving embrace."
260: 0x111F [0x23] WAIT_FOR_DIALOG_INTERACTION
261: 0x1120 [0x29] REQ_SET_WAIT(priority=0x08, entity_id=Ikhi Askamot (ID: 17830037/0x01101095), tag_num=0x21)
262: 0x1127 [0x29] REQ_SET_WAIT(priority=0x08, entity_id=Ikhi Askamot (ID: 17830037/0x01101095), tag_num=0x1C)
263: 0x112E [0x2B] Ikhi Askamot (ID: 17830037/0x01101095) [10611*]:
    → "We, too, must follow her example."
264: 0x1135 [0x23] WAIT_FOR_DIALOG_INTERACTION
265: 0x1136 [0x29] REQ_SET_WAIT(priority=0x08, entity_id=Ikhi Askamot (ID: 17830037/0x01101095), tag_num=0x1D)
266: 0x113D [0x52] END_LOAD_SCHEDULER: End scheduler "s209" with entities [LocalPlayer, LocalPlayer], work=660*
267: 0x114C [0x02] IF !(Work_Zone[9] == 5*) GOTO 0x1168
268: 0x1154 [0x45] LOAD_SCHEDULED_TASK: Load scheduler "s207" with entities [LocalPlayer, LocalPlayer], work=[660*, 0*]
269: 0x1165 [0x01] GOTO 0x11B1
270: 0x1168 [0x02] IF !(Work_Zone[9] == 6*) GOTO 0x1184
271: 0x1170 [0x45] LOAD_SCHEDULED_TASK: Load scheduler "s207" with entities [LocalPlayer, LocalPlayer], work=[660*, 0*]
272: 0x1181 [0x01] GOTO 0x11B1
273: 0x1184 [0x02] IF !(Work_Zone[9] == 8*) GOTO 0x11A0
274: 0x118C [0x45] LOAD_SCHEDULED_TASK: Load scheduler "s351" with entities [LocalPlayer, LocalPlayer], work=[660*, 0*]
275: 0x119D [0x01] GOTO 0x11B1
276: 0x11A0 [0x45] LOAD_SCHEDULED_TASK: Load scheduler "s342" with entities [LocalPlayer, LocalPlayer], work=[660*, 0*]

SUBROUTINE_11B1:
277: 0x11B1 [0x29] REQ_SET_WAIT(priority=0x08, entity_id=Lhaiso Neftereh (ID: 17830136/0x011010F8), tag_num=0x0C)
278: 0x11B8 [0x29] REQ_SET_WAIT(priority=0x08, entity_id=Lhaiso Neftereh (ID: 17830136/0x011010F8), tag_num=0x01)
279: 0x11BF [0x2B] Lhaiso Neftereh (ID: 17830136/0x011010F8) [10612*]:
    → "As both a pioneer and a geomancer, you stand at the crossroads of two disparate worlds."
280: 0x11C6 [0x23] WAIT_FOR_DIALOG_INTERACTION
281: 0x11C7 [0x2B] Lhaiso Neftereh (ID: 17830136/0x011010F8) [10613*]:
    → "I hope, my dear, that you will continue to work with us to find an answer."
282: 0x11CE [0x23] WAIT_FOR_DIALOG_INTERACTION
283: 0x11CF [0x29] REQ_SET_WAIT(priority=0x08, entity_id=Lhaiso Neftereh (ID: 17830136/0x011010F8), tag_num=0x02)
284: 0x11D6 [0x5D] SET_MUSIC_VOLUME(volume=0*, fade_time=200*)
285: 0x11DB [0x45] LOAD_SCHEDULED_TASK: Load scheduler "fdo1" with entities [LocalPlayer, LocalPlayer], work=[200*, 0*]
286: 0x11EC [0x55] WAIT_LOAD_SCHEDULER: Wait for scheduler "fdo1" with entities [LocalPlayer, LocalPlayer], work=200*
287: 0x11FB [0x02] IF !(Work_Zone[9] == 5*) GOTO 0x1215
288: 0x1203 [0x52] END_LOAD_SCHEDULER: End scheduler "s207" with entities [LocalPlayer, LocalPlayer], work=660*
289: 0x1212 [0x01] GOTO 0x1258
290: 0x1215 [0x02] IF !(Work_Zone[9] == 6*) GOTO 0x122F
291: 0x121D [0x52] END_LOAD_SCHEDULER: End scheduler "s207" with entities [LocalPlayer, LocalPlayer], work=660*
292: 0x122C [0x01] GOTO 0x1258
293: 0x122F [0x02] IF !(Work_Zone[9] == 8*) GOTO 0x1249
294: 0x1237 [0x52] END_LOAD_SCHEDULER: End scheduler "s351" with entities [LocalPlayer, LocalPlayer], work=660*
295: 0x1246 [0x01] GOTO 0x1258
296: 0x1249 [0x52] END_LOAD_SCHEDULER: End scheduler "s342" with entities [LocalPlayer, LocalPlayer], work=660*

SUBROUTINE_1258:
297: 0x1258 [0x35] LOAD_ZONE_NO_CLOSE(zone_id=701*)
298: 0x125B [0x77] SET_EVENT_TIME_WEATHER(hour=255*, weather=1*)
299: 0x1260 [0x1C] WAIT(1* ticks)
300: 0x1263 [0x5C] MUSIC_CONTROL: Set Idle (Day) music to song 63*
301: 0x1267 [0x5C] MUSIC_CONTROL: Set Idle (Night) music to song 63*
302: 0x126B [0x9A] WAIT_MUSIC_SERVER()
303: 0x126C [0x5D] SET_MUSIC_VOLUME(volume=127*, fade_time=1*)
304: 0x1271 [0x1C] WAIT(2* ticks)
305: 0x1274 [0x29] REQ_SET_WAIT(priority=0x08, entity_id=LocalPlayer, tag_num=0x72)
306: 0x127B [0x45] LOAD_SCHEDULED_TASK: Load scheduler "qstc" with entities [EventEntity, EventEntity], work=[201*, 0*]
307: 0x128C [0x46] CAMERA_CONTROL: Restore default settings
308: 0x128E [0x45] LOAD_SCHEDULED_TASK: Load scheduler "fdi1" with entities [LocalPlayer, LocalPlayer], work=[200*, 0*]
309: 0x129F [0x20] SET_CLI_EVENT_UC_FLAG: Unlock player control
310: 0x12A1 [0x21] END_EVENT
311: 0x12A2 [0x00] END_REQSTACK()
```

### Event 39

#### Metadata

| Field        | Value      |
|--------------|------------|
| Entrypoint   | 0x12A3     |
| Data Size    | 3567 bytes |
| Instructions | 449        |

```
      00 01 02 03 04 05 06 07  08 09 0A 0B 0C 0D 0E 0F
      -- -- -- -- -- -- -- --  -- -- -- -- -- -- -- --
12A0:          42 46 01 45 00  80 F0 FF FF 7F F0 FF FF     BF.E.........
12B0: 7F 66 64 6F 31 01 80 55  00 80 F0 FF FF 7F F0 FF  .fdo1..U........
12C0: FF 7F 66 64 6F 31 38 02  80 29 08 F0 FF FF 7F 78  ..fdo18..).....x
12D0: 29 08 F9 10 10 01 08 80  F9 10 10 01 80 E8 10 10  )...............
12E0: 01 92 01 F9 10 10 01 92  01 E8 10 10 01 29 08 F0  .............)..
12F0: FF FF 7F 03 29 08 F0 FF  FF 7F 6C 4A F0 FF FF 7F  ....).....lJ....
1300: E8 10 10 01 79 00 E8 10  10 01 F9 10 10 01 6F 76  ....y.........ov
1310: F0 FF FF 7F 45 04 80 F0  FF FF 7F F0 FF FF 7F 73  ....E..........s
1320: 32 31 31 01 80 27 08 F9  10 10 01 09 45 00 80 F0  211..'......E...
1330: FF FF 7F F0 FF FF 7F 66  64 69 31 01 80 55 00 80  .......fdi1..U..
1340: F0 FF FF 7F F0 FF FF 7F  66 64 69 31 79 00 F9 10  ........fdi1y...
1350: 10 01 F0 FF FF 7F 1C 16  80 4A F0 FF FF 7F F9 10  .........J......
1360: 10 01 1C 56 80 79 00 F9  10 10 01 E8 10 10 01 4B  ...V.y.........K
1370: F0 FF FF 7F 57 80 2A 08  F9 10 10 01 79 00 F9 10  ....W.*.....y...
1380: 10 01 F0 FF FF 7F 1C 0A  80 52 04 80 F0 FF FF 7F  .........R......
1390: F0 FF FF 7F 73 32 31 31  45 04 80 F0 FF FF 7F F0  ....s211E.......
13A0: FF FF 7F 73 32 31 32 01  80 79 00 F9 10 10 01 E8  ...s212..y......
13B0: 10 10 01 79 00 F0 FF FF  7F E8 10 10 01 29 08 E8  ...y.........)..
13C0: 10 10 01 21 2B E8 10 10  01 58 80 23 79 00 E8 10  ...!+....X.#y...
13D0: 10 01 F0 FF FF 7F 2B E8  10 10 01 59 80 23 79 00  ......+....Y.#y.
13E0: E8 10 10 01 F9 10 10 01  2B E8 10 10 01 5A 80 23  ........+....Z.#
13F0: 29 08 E8 10 10 01 22 29  08 E8 10 10 01 23 52 04  ).....").....#R.
1400: 80 F0 FF FF 7F F0 FF FF  7F 73 32 31 32 02 09 10  .........s212...
1410: 03 80 00 29 14 45 04 80  F0 FF FF 7F F0 FF FF 7F  ...).E..........
1420: 73 33 34 34 01 80 01 56  14 02 09 10 05 80 00 45  s344...V.......E
1430: 14 45 04 80 F0 FF FF 7F  F0 FF FF 7F 73 33 34 34  .E..........s344
1440: 01 80 01 56 14 45 04 80  F0 FF FF 7F F0 FF FF 7F  ...V.E..........
1450: 73 32 31 33 01 80 29 08  F9 10 10 01 4C 29 08 E8  s213..).....L)..
1460: 10 10 01 24 79 00 F0 FF  FF 7F F9 10 10 01 7B F9  ...$y.........{.
1470: 10 10 01 27 08 F9 10 10  01 0A 1C 16 80 79 00 E8  ...'.........y..
1480: 10 10 01 F0 FF FF 7F 27  08 F0 FF FF 7F 79 1C 0B  .......'.....y..
1490: 80 02 09 10 03 80 00 AB  14 52 04 80 F0 FF FF 7F  .........R......
14A0: F0 FF FF 7F 73 33 34 34  01 D4 14 02 09 10 05 80  ....s344........
14B0: 00 C5 14 52 04 80 F0 FF  FF 7F F0 FF FF 7F 73 33  ...R..........s3
14C0: 34 34 01 D4 14 52 04 80  F0 FF FF 7F F0 FF FF 7F  44...R..........
14D0: 73 32 31 33 02 09 10 03  80 00 F0 14 45 04 80 F0  s213........E...
14E0: FF FF 7F F0 FF FF 7F 73  33 34 35 01 80 01 1D 15  .......s345.....
14F0: 02 09 10 05 80 00 0C 15  45 04 80 F0 FF FF 7F F0  ........E.......
1500: FF FF 7F 73 33 34 35 01  80 01 1D 15 45 04 80 F0  ...s345.....E...
1510: FF FF 7F F0 FF FF 7F 73  32 31 34 01 80 1C 0B 80  .......s214.....
1520: 79 00 F0 FF FF 7F E8 10  10 01 2B E8 10 10 01 5B  y.........+....[
1530: 80 23 5D 01 80 00 80 45  00 80 F0 FF FF 7F F0 FF  .#]....E........
1540: FF 7F 66 64 6F 31 01 80  55 00 80 F0 FF FF 7F F0  ..fdo1..U.......
1550: FF FF 7F 66 64 6F 31 02  09 10 03 80 00 71 15 52  ...fdo1......q.R
1560: 04 80 F0 FF FF 7F F0 FF  FF 7F 73 33 34 35 01 9A  ..........s345..
1570: 15 02 09 10 05 80 00 8B  15 52 04 80 F0 FF FF 7F  .........R......
1580: F0 FF FF 7F 73 33 34 35  01 9A 15 52 04 80 F0 FF  ....s345...R....
1590: FF 7F F0 FF FF 7F 73 32  31 34 34 14 80 77 15 80  ......s2144..w..
15A0: 07 80 29 08 F0 FF FF 7F  74 29 08 F8 10 10 01 26  ..).....t).....&
15B0: 29 08 F9 10 10 01 0B 4E  00 F9 10 10 01 80 F8 10  )......N........
15C0: 10 01 29 08 F8 10 10 01  0D 29 08 F8 10 10 01 0E  ..)......)......
15D0: 79 00 F0 FF FF 7F F8 10  10 01 79 00 F9 10 10 01  y.........y.....
15E0: F8 10 10 01 92 01 F8 10  10 01 2C B4 10 10 01 B4  ..........,.....
15F0: 10 10 01 6F 70 65 6E 1C  0A 80 5C 00 38 80 5C 01  ...open...\.8.\.
1600: 38 80 9A 5D 06 80 07 80  45 04 80 F0 FF FF 7F F0  8..]....E.......
1610: FF FF 7F 73 32 30 31 01  80 27 08 F0 FF FF 7F 7A  ...s201..'.....z
1620: 27 08 F9 10 10 01 0E 45  00 80 F0 FF FF 7F F0 FF  '......E........
1630: FF 7F 66 64 69 31 01 80  55 00 80 F0 FF FF 7F F0  ..fdi1..U.......
1640: FF FF 7F 66 64 69 31 79  00 F8 10 10 01 F9 10 10  ...fdi1y........
1650: 01 29 08 F8 10 10 01 0F  29 08 F8 10 10 01 10 29  .)......)......)
1660: 08 F8 10 10 01 11 29 08  F8 10 10 01 12 2A 08 F9  ......)......*..
1670: 10 10 01 2B F8 10 10 01  5C 80 23 27 08 F9 10 10  ...+....\.#'....
1680: 01 0C 2B F9 10 10 01 5D  80 23 2A 08 F9 10 10 01  ..+....].#*.....
1690: 52 04 80 F0 FF FF 7F F0  FF FF 7F 73 32 30 31 45  R..........s201E
16A0: 04 80 F0 FF FF 7F F0 FF  FF 7F 73 32 31 35 01 80  ..........s215..
16B0: 29 08 F8 10 10 01 19 29  08 F8 10 10 01 0F 2B F8  )......)......+.
16C0: 10 10 01 5E 80 23 29 08  F8 10 10 01 10 29 08 F9  ...^.#)......)..
16D0: 10 10 01 28 7B F8 10 10  01 29 08 F8 10 10 01 11  ...({....)......
16E0: 29 08 F8 10 10 01 12 52  04 80 F0 FF FF 7F F0 FF  )......R........
16F0: FF 7F 73 32 31 35 45 04  80 F0 FF FF 7F F0 FF FF  ..s215E.........
1700: 7F 73 32 31 36 01 80 27  08 F8 10 10 01 1A 2B F8  .s216..'......+.
1710: 10 10 01 5F 80 23 2A 08  F8 10 10 01 29 08 F9 10  ..._.#*.....)...
1720: 10 01 29 7B F8 10 10 01  4B F8 10 10 01 60 80 29  ..){....K....`.)
1730: 08 F8 10 10 01 0D 2B F8  10 10 01 61 80 23 52 04  ......+....a.#R.
1740: 80 F0 FF FF 7F F0 FF FF  7F 73 32 31 36 45 04 80  .........s216E..
1750: F0 FF FF 7F F0 FF FF 7F  73 32 31 37 01 80 2B F8  ........s217..+.
1760: 10 10 01 62 80 23 2B F8  10 10 01 63 80 23 5D 01  ...b.#+....c.#].
1770: 80 64 80 45 00 80 F0 FF  FF 7F F0 FF FF 7F 66 64  .d.E..........fd
1780: 6F 31 01 80 55 00 80 F0  FF FF 7F F0 FF FF 7F 66  o1..U..........f
1790: 64 6F 31 37 01 80 65 80  01 80 01 80 B6 00 66 80  do17..e.......f.
17A0: 80 F8 FF FF 7F A5 01 22  01 52 04 80 F0 FF FF 7F  .......".R......
17B0: F0 FF FF 7F 73 32 31 37  2B F8 10 10 01 67 80 23  ....s217+....g.#
17C0: 29 08 F8 10 10 01 0E 5C  00 68 80 5C 01 68 80 9A  )......\.h.\.h..
17D0: 5D 06 80 07 80 4E 01 F0  FF FF 7F 4E 01 F9 10 10  ]....N.....N....
17E0: 01 B4 00 00 00 3F 3F 3F  00 00 00 00 00 00 00 00  .....???........
17F0: 00 00 00 00 00 B5 00 00  00 92 01 FE 10 10 01 29  ...............)
1800: 08 F8 10 10 01 27 4A F8  10 10 01 FE 10 10 01 29  .....'J........)
1810: 08 F9 10 10 01 2A 29 08  FE 10 10 01 0A 29 08 F8  .....*)......)..
1820: 10 10 01 07 29 08 F8 10  10 01 08 29 08 F9 10 10  ....)......)....
1830: 01 2B CD 69 80 FE 10 10  01 FE 10 10 01 73 74 61  .+.i.........sta
1840: 72 01 80 29 08 FE 10 10  01 03 29 08 FE 10 10 01  r..)......).....
1850: 04 6F 76 F8 10 10 01 2C  B4 10 10 01 B4 10 10 01  .ov....,........
1860: 63 6C 6F 73 45 04 80 F0  FF FF 7F F0 FF FF 7F 73  closE..........s
1870: 32 30 30 01 80 45 00 80  F0 FF FF 7F F0 FF FF 7F  200..E..........
1880: 66 64 69 31 01 80 55 00  80 F0 FF FF 7F F0 FF FF  fdi1..U.........
1890: 7F 66 64 69 31 1D 6A 80  23 52 04 80 F0 FF FF 7F  .fdi1.j.#R......
18A0: F0 FF FF 7F 73 32 30 30  45 04 80 F0 FF FF 7F F0  ....s200E.......
18B0: FF FF 7F 73 32 32 32 01  80 1D 6B 80 23 29 08 F8  ...s222...k.#)..
18C0: 10 10 01 0F 1D 6C 80 23  29 08 F8 10 10 01 10 29  .....l.#)......)
18D0: 08 F8 10 10 01 11 1C 07  80 52 04 80 F0 FF FF 7F  .........R......
18E0: F0 FF FF 7F 73 32 32 32  45 04 80 F0 FF FF 7F F0  ....s222E.......
18F0: FF FF 7F 73 32 32 33 01  80 29 08 F8 10 10 01 12  ...s223..)......
1900: 1D 6D 80 23 1D 6E 80 23  52 04 80 F0 FF FF 7F F0  .m.#.n.#R.......
1910: FF FF 7F 73 32 32 33 45  04 80 F0 FF FF 7F F0 FF  ...s223E........
1920: FF 7F 73 32 33 33 01 80  29 08 F8 10 10 01 11 1D  ..s233..).......
1930: 6F 80 23 29 08 F8 10 10  01 12 52 04 80 F0 FF FF  o.#)......R.....
1940: 7F F0 FF FF 7F 73 32 33  33 45 04 80 F0 FF FF 7F  .....s233E......
1950: F0 FF FF 7F 73 32 32 30  01 80 79 00 F8 10 10 01  ....s220..y.....
1960: FE 10 10 01 29 08 F8 10  10 01 01 2B F8 10 10 01  ....)......+....
1970: 70 80 23 2B F8 10 10 01  71 80 23 29 08 F8 10 10  p.#+....q.#)....
1980: 01 02 52 04 80 F0 FF FF  7F F0 FF FF 7F 73 32 32  ..R..........s22
1990: 30 45 04 80 F0 FF FF 7F  F0 FF FF 7F 73 32 32 34  0E..........s224
19A0: 01 80 29 08 F8 10 10 01  03 29 08 F8 10 10 01 04  ..)......)......
19B0: 29 08 F8 10 10 01 09 2B  F8 10 10 01 72 80 23 2B  )......+....r.#+
19C0: F8 10 10 01 73 80 23 29  08 F8 10 10 01 0A 52 04  ....s.#)......R.
19D0: 80 F0 FF FF 7F F0 FF FF  7F 73 32 32 34 45 04 80  .........s224E..
19E0: F0 FF FF 7F F0 FF FF 7F  73 32 32 36 01 80 5D 01  ........s226..].
19F0: 80 00 80 29 08 F8 10 10  01 0B 1D 74 80 29 08 F8  ...).......t.)..
1A00: 10 10 01 0C 23 52 04 80  F0 FF FF 7F F0 FF FF 7F  ....#R..........
1A10: 73 32 32 36 45 04 80 F0  FF FF 7F F0 FF FF 7F 73  s226E..........s
1A20: 33 35 34 01 80 29 08 FE  10 10 01 05 CD 69 80 FE  354..).......i..
1A30: 10 10 01 FE 10 10 01 73  74 6F 70 01 80 1C 75 80  .......stop...u.
1A40: 52 04 80 F0 FF FF 7F F0  FF FF 7F 73 33 35 34 45  R..........s354E
1A50: 04 80 F0 FF FF 7F F0 FF  FF 7F 73 32 33 36 01 80  ..........s236..
1A60: 1C 56 80 52 04 80 F0 FF  FF 7F F0 FF FF 7F 73 32  .V.R..........s2
1A70: 33 36 45 04 80 F0 FF FF  7F F0 FF FF 7F 73 32 32  36E..........s22
1A80: 37 01 80 22 00 5B 76 80  F8 FF FF 7F F8 FF FF 7F  7..".[v.........
1A90: 6F 74 69 31 1C 16 80 45  00 80 F0 FF FF 7F F0 FF  oti1...E........
1AA0: FF 7F 66 64 6F 31 01 80  55 00 80 F0 FF FF 7F F0  ..fdo1..U.......
1AB0: FF FF 7F 66 64 6F 31 B6  00 77 80 80 F8 FF FF 7F  ...fdo1..w......
1AC0: 22 01 52 04 80 F0 FF FF  7F F0 FF FF 7F 73 32 32  ".R..........s22
1AD0: 37 4E 01 FE 10 10 01 29  08 F8 10 10 01 26 29 08  7N.....).....&).
1AE0: F8 10 10 01 03 29 08 F8  10 10 01 04 4E 00 F0 FF  .....)......N...
1AF0: FF 7F 4E 00 F9 10 10 01  4A F9 10 10 01 F8 10 10  ..N.....J.......
1B00: 01 6F 76 F9 10 10 01 5C  00 38 80 5C 01 38 80 9A  .ov....\.8.\.8..
1B10: 5D 06 80 07 80 45 04 80  F0 FF FF 7F F0 FF FF 7F  ]....E..........
1B20: 73 32 30 35 01 80 45 00  80 F0 FF FF 7F F0 FF FF  s205..E.........
1B30: 7F 66 64 69 31 01 80 55  00 80 F0 FF FF 7F F0 FF  .fdi1..U........
1B40: FF 7F 66 64 69 31 29 08  F8 10 10 01 11 2B F8 10  ..fdi1)......+..
1B50: 10 01 78 80 23 29 08 F8  10 10 01 12 52 04 80 F0  ..x.#)......R...
