# 17830165

## Common Data

| Field            | Value                     |
|------------------|---------------------------|
| Zone             | Eastern Adoulin (ID: 257) |
| Block Size       | 272 bytes                 |
| Total Events     | 4                         |
| References Count | 3                         |

## List of Events

| Event ID                 | Entrypoint   |   Size |   Instructions |
|--------------------------|--------------|--------|----------------|
| [65535](#event-65535)    | 0x0000       |      1 |              1 |
| [5217](#event-5217)      | 0x0001       |      7 |              2 |
| [65535.1](#event-655351) | 0x0008       |    109 |             13 |
| [65535.2](#event-655352) | 0x0075       |    109 |             13 |

## DAT References (imed_data)

|   Index | Hex Value   |   Dec Value |
|---------|-------------|-------------|
|       0 | 0x0000      |           0 |
|       1 | 0x0001      |           1 |
|       2 | 0x0080      |         128 |

## Events

### Event 65535

#### Metadata

| Field        | Value   |
|--------------|---------|
| Entrypoint   | 0x0000  |
| Data Size    | 1 bytes |
| Instructions | 1       |

```
      00 01 02 03 04 05 06 07  08 09 0A 0B 0C 0D 0E 0F
      -- -- -- -- -- -- -- --  -- -- -- -- -- -- -- --
0000: 00                                                .               
```

#### Opcodes

```
  0: 0x0000 [0x00] END_REQSTACK()
```

### Event 5217

#### Metadata

| Field        | Value   |
|--------------|---------|
| Entrypoint   | 0x0001  |
| Data Size    | 7 bytes |
| Instructions | 2       |

```
      00 01 02 03 04 05 06 07  08 09 0A 0B 0C 0D 0E 0F
      -- -- -- -- -- -- -- --  -- -- -- -- -- -- -- --
0000:    92 01 F8 FF FF 7F 00                            .......        
```

#### Opcodes

```
  0: 0x0001 [0x92] EventEntity->Render.Flags3 ^= 0x01
  1: 0x0007 [0x00] END_REQSTACK()
```

### Event 65535.1

#### Metadata

| Field        | Value     |
|--------------|-----------|
| Entrypoint   | 0x0008    |
| Data Size    | 109 bytes |
| Instructions | 13        |

```
      00 01 02 03 04 05 06 07  08 09 0A 0B 0C 0D 0E 0F
      -- -- -- -- -- -- -- --  -- -- -- -- -- -- -- --
0000:                          6C 04 11 10 01 00 80 01          l.......
0010: 80 6C 95 10 10 01 00 80  01 80 6C CD 10 10 01 00  .l........l.....
0020: 80 01 80 6C 14 11 10 01  00 80 01 80 6C 2D 11 10  ...l........l-..
0030: 01 00 80 01 80 6C 2E 11  10 01 00 80 01 80 6C 8D  .....l........l.
0040: 10 10 01 00 80 01 80 6C  E0 10 10 01 00 80 01 80  .......l........
0050: 6C 7E 10 10 01 00 80 01  80 6C DE 10 10 01 00 80  l~.......l......
0060: 01 80 6C DF 10 10 01 00  80 01 80 6C D1 10 10 01  ..l........l....
0070: 00 80 01 80 00                                    .....           
```

#### Opcodes

```
  0: 0x0008 [0x6C] FADE_ENTITY_COLOR(entity_id=Unnamed NPC (ID: 17830148/0x01101104), end_alpha=0*, fade_time=1*)
  1: 0x0011 [0x6C] FADE_ENTITY_COLOR(entity_id=Ikhi Askamot (ID: 17830037/0x01101095), end_alpha=0*, fade_time=1*)
  2: 0x001A [0x6C] FADE_ENTITY_COLOR(entity_id=Huss (ID: 17830093/0x011010CD), end_alpha=0*, fade_time=1*)
  3: 0x0023 [0x6C] FADE_ENTITY_COLOR(entity_id=??? (ID: 17830164/0x01101114), end_alpha=0*, fade_time=1*)
  4: 0x002C [0x6C] FADE_ENTITY_COLOR(entity_id=Oston (ID: 17830189/0x0110112D), end_alpha=0*, fade_time=1*)
  5: 0x0035 [0x6C] FADE_ENTITY_COLOR(entity_id=Lola (ID: 17830190/0x0110112E), end_alpha=0*, fade_time=1*)
  6: 0x003E [0x6C] FADE_ENTITY_COLOR(entity_id=Iyvah Halohm (ID: 17830029/0x0110108D), end_alpha=0*, fade_time=1*)
  7: 0x0047 [0x6C] FADE_ENTITY_COLOR(entity_id=Bernegeois (ID: 17830112/0x011010E0), end_alpha=0*, fade_time=1*)
  8: 0x0050 [0x6C] FADE_ENTITY_COLOR(entity_id=Yocile (ID: 17830014/0x0110107E), end_alpha=0*, fade_time=1*)
  9: 0x0059 [0x6C] FADE_ENTITY_COLOR(entity_id=Jampiaire (ID: 17830110/0x011010DE), end_alpha=0*, fade_time=1*)
 10: 0x0062 [0x6C] FADE_ENTITY_COLOR(entity_id=Stavalian (ID: 17830111/0x011010DF), end_alpha=0*, fade_time=1*)
 11: 0x006B [0x6C] FADE_ENTITY_COLOR(entity_id=Alphonserme (ID: 17830097/0x011010D1), end_alpha=0*, fade_time=1*)
 12: 0x0074 [0x00] END_REQSTACK()
```

### Event 65535.2

#### Metadata

| Field        | Value     |
|--------------|-----------|
| Entrypoint   | 0x0075    |
| Data Size    | 109 bytes |
| Instructions | 13        |

```
      00 01 02 03 04 05 06 07  08 09 0A 0B 0C 0D 0E 0F
      -- -- -- -- -- -- -- --  -- -- -- -- -- -- -- --
0070:                6C 04 11  10 01 02 80 01 80 6C 95       l........l.
0080: 10 10 01 02 80 01 80 6C  CD 10 10 01 02 80 01 80  .......l........
0090: 6C 14 11 10 01 02 80 01  80 6C 2D 11 10 01 02 80  l........l-.....
00A0: 01 80 6C 2E 11 10 01 02  80 01 80 6C 8D 10 10 01  ..l........l....
00B0: 02 80 01 80 6C E0 10 10  01 02 80 01 80 6C 7E 10  ....l........l~.
00C0: 10 01 02 80 01 80 6C DE  10 10 01 02 80 01 80 6C  ......l........l
00D0: DF 10 10 01 02 80 01 80  6C D1 10 10 01 02 80 01  ........l.......
00E0: 80 00                                             ..              
```

#### Opcodes

```
  0: 0x0075 [0x6C] FADE_ENTITY_COLOR(entity_id=Unnamed NPC (ID: 17830148/0x01101104), end_alpha=128*, fade_time=1*)
  1: 0x007E [0x6C] FADE_ENTITY_COLOR(entity_id=Ikhi Askamot (ID: 17830037/0x01101095), end_alpha=128*, fade_time=1*)
  2: 0x0087 [0x6C] FADE_ENTITY_COLOR(entity_id=Huss (ID: 17830093/0x011010CD), end_alpha=128*, fade_time=1*)
  3: 0x0090 [0x6C] FADE_ENTITY_COLOR(entity_id=??? (ID: 17830164/0x01101114), end_alpha=128*, fade_time=1*)
  4: 0x0099 [0x6C] FADE_ENTITY_COLOR(entity_id=Oston (ID: 17830189/0x0110112D), end_alpha=128*, fade_time=1*)
  5: 0x00A2 [0x6C] FADE_ENTITY_COLOR(entity_id=Lola (ID: 17830190/0x0110112E), end_alpha=128*, fade_time=1*)
  6: 0x00AB [0x6C] FADE_ENTITY_COLOR(entity_id=Iyvah Halohm (ID: 17830029/0x0110108D), end_alpha=128*, fade_time=1*)
  7: 0x00B4 [0x6C] FADE_ENTITY_COLOR(entity_id=Bernegeois (ID: 17830112/0x011010E0), end_alpha=128*, fade_time=1*)
  8: 0x00BD [0x6C] FADE_ENTITY_COLOR(entity_id=Yocile (ID: 17830014/0x0110107E), end_alpha=128*, fade_time=1*)
  9: 0x00C6 [0x6C] FADE_ENTITY_COLOR(entity_id=Jampiaire (ID: 17830110/0x011010DE), end_alpha=128*, fade_time=1*)
 10: 0x00CF [0x6C] FADE_ENTITY_COLOR(entity_id=Stavalian (ID: 17830111/0x011010DF), end_alpha=128*, fade_time=1*)
 11: 0x00D8 [0x6C] FADE_ENTITY_COLOR(entity_id=Alphonserme (ID: 17830097/0x011010D1), end_alpha=128*, fade_time=1*)
 12: 0x00E1 [0x00] END_REQSTACK()
```
