# 17830225

## Common Data

| Field            | Value                     |
|------------------|---------------------------|
| Zone             | Eastern Adoulin (ID: 257) |
| Block Size       | 136 bytes                 |
| Total Events     | 4                         |
| References Count | 9                         |

## List of Events

| Event ID                 | Entrypoint   |   Size |   Instructions |
|--------------------------|--------------|--------|----------------|
| [65535](#event-65535)    | 0x0000       |      1 |              1 |
| [5235](#event-5235)      | 0x0001       |      1 |              1 |
| [5236](#event-5236)      | 0x0002       |      1 |              1 |
| [65535.1](#event-655351) | 0x0003       |     65 |             14 |

## DAT References (imed_data)

|   Index | Hex Value   |   Dec Value |
|---------|-------------|-------------|
|       0 | 0x0002      |           2 |
|       1 | 0x0B91      |        2961 |
|       2 | 0x0003      |           3 |
|       3 | 0x0B90      |        2960 |
|       4 | 0x0004      |           4 |
|       5 | 0x0B92      |        2962 |
|       6 | 0x0005      |           5 |
|       7 | 0x0B93      |        2963 |
|       8 | 0x0B8F      |        2959 |

## Events

### Event 65535

#### Metadata

| Field        | Value   |
|--------------|---------|
| Entrypoint   | 0x0000  |
| Data Size    | 1 bytes |
| Instructions | 1       |

```
      00 01 02 03 04 05 06 07  08 09 0A 0B 0C 0D 0E 0F
      -- -- -- -- -- -- -- --  -- -- -- -- -- -- -- --
0000: 00                                                .               
```

#### Opcodes

```
  0: 0x0000 [0x00] END_REQSTACK()
```

### Event 5235

#### Metadata

| Field        | Value   |
|--------------|---------|
| Entrypoint   | 0x0001  |
| Data Size    | 1 bytes |
| Instructions | 1       |

```
      00 01 02 03 04 05 06 07  08 09 0A 0B 0C 0D 0E 0F
      -- -- -- -- -- -- -- --  -- -- -- -- -- -- -- --
0000:    00                                              .              
```

#### Opcodes

```
  0: 0x0001 [0x00] END_REQSTACK()
```

### Event 5236

#### Metadata

| Field        | Value   |
|--------------|---------|
| Entrypoint   | 0x0002  |
| Data Size    | 1 bytes |
| Instructions | 1       |

```
      00 01 02 03 04 05 06 07  08 09 0A 0B 0C 0D 0E 0F
      -- -- -- -- -- -- -- --  -- -- -- -- -- -- -- --
0000:       00                                            .             
```

#### Opcodes

```
  0: 0x0002 [0x00] END_REQSTACK()
```

### Event 65535.1

#### Metadata

| Field        | Value    |
|--------------|----------|
| Entrypoint   | 0x0003   |
| Data Size    | 65 bytes |
| Instructions | 14       |

```
      00 01 02 03 04 05 06 07  08 09 0A 0B 0C 0D 0E 0F
      -- -- -- -- -- -- -- --  -- -- -- -- -- -- -- --
0000:          02 0A 17 00 80  80 12 00 B6 00 01 80 01     .............
0010: 43 00 02 0A 17 02 80 80  21 00 B6 00 03 80 01 43  C.......!......C
0020: 00 02 0A 17 04 80 80 30  00 B6 00 05 80 01 43 00  .......0......C.
0030: 02 0A 17 06 80 80 3F 00  B6 00 07 80 01 43 00 B6  ......?......C..
0040: 00 08 80 00                                       ....            
```

#### Opcodes

```
  0: 0x0003 [0x02] IF !(Work_Zone_1700[10] == 2*) GOTO 0x0012
  1: 0x000B [0xB6] ENTITY_APPEARANCE_HANDLER(case=Hair style, value=2961*)
  2: 0x000F [0x01] GOTO 0x0043
  3: 0x0012 [0x02] IF !(Work_Zone_1700[10] == 3*) GOTO 0x0021
  4: 0x001A [0xB6] ENTITY_APPEARANCE_HANDLER(case=Hair style, value=2960*)
  5: 0x001E [0x01] GOTO 0x0043
  6: 0x0021 [0x02] IF !(Work_Zone_1700[10] == 4*) GOTO 0x0030
  7: 0x0029 [0xB6] ENTITY_APPEARANCE_HANDLER(case=Hair style, value=2962*)
  8: 0x002D [0x01] GOTO 0x0043
  9: 0x0030 [0x02] IF !(Work_Zone_1700[10] == 5*) GOTO 0x003F
 10: 0x0038 [0xB6] ENTITY_APPEARANCE_HANDLER(case=Hair style, value=2963*)
 11: 0x003C [0x01] GOTO 0x0043
 12: 0x003F [0xB6] ENTITY_APPEARANCE_HANDLER(case=Hair style, value=2959*)

SUBROUTINE_0043:
 13: 0x0043 [0x00] END_REQSTACK()
```
