# 17830062

## Common Data

| Field            | Value                     |
|------------------|---------------------------|
| Zone             | Eastern Adoulin (ID: 257) |
| Block Size       | 312 bytes                 |
| Total Events     | 10                        |
| References Count | 15                        |

## List of Events

| Event ID                 | Entrypoint   |   Size |   Instructions |
|--------------------------|--------------|--------|----------------|
| [65535](#event-65535)    | 0x0000       |      1 |              1 |
| [1503](#event-1503)      | 0x0001       |      1 |              1 |
| [65535.1](#event-655351) | 0x0002       |     24 |              6 |
| [1507](#event-1507)      | 0x001A       |     50 |              6 |
| [65535.2](#event-655352) | 0x004C       |     10 |              2 |
| [65535.3](#event-655353) | 0x0056       |     10 |              2 |
| [65535.4](#event-655354) | 0x0060       |     10 |              2 |
| [65535.5](#event-655355) | 0x006A       |     45 |              4 |
| [1509](#event-1509)      | 0x0097       |     21 |              2 |
| [1510](#event-1510)      | 0x00AC       |     21 |              2 |

## DAT References (imed_data)

|   Index | Hex Value   |   Dec Value |
|---------|-------------|-------------|
|       0 | 0x0028      |          40 |
|       1 | 0xFFFEC640  |  4294886976 |
|       2 | 0x6C35      |       27701 |
|       3 | 0x0000      |           0 |
|       4 | 0xFFFECE07  |  4294888967 |
|       5 | 0xFFFFF905  |  4294965509 |
|       6 | 0x0001      |           1 |
|       7 | 0x0019      |          25 |
|       8 | 0x0039      |          57 |
|       9 | 0x008E      |         142 |
|      10 | 0x0003      |           3 |
|      11 | 0x0040      |          64 |
|      12 | 0x0078      |         120 |
|      13 | 0x000C      |          12 |
|      14 | 0x0156      |         342 |

## Events

### Event 65535

#### Metadata

| Field        | Value   |
|--------------|---------|
| Entrypoint   | 0x0000  |
| Data Size    | 1 bytes |
| Instructions | 1       |

```
      00 01 02 03 04 05 06 07  08 09 0A 0B 0C 0D 0E 0F
      -- -- -- -- -- -- -- --  -- -- -- -- -- -- -- --
0000: 00                                                .               
```

#### Opcodes

```
  0: 0x0000 [0x00] END_REQSTACK()
```

### Event 1503

#### Metadata

| Field        | Value   |
|--------------|---------|
| Entrypoint   | 0x0001  |
| Data Size    | 1 bytes |
| Instructions | 1       |

```
      00 01 02 03 04 05 06 07  08 09 0A 0B 0C 0D 0E 0F
      -- -- -- -- -- -- -- --  -- -- -- -- -- -- -- --
0000:    00                                              .              
```

#### Opcodes

```
  0: 0x0001 [0x00] END_REQSTACK()
```

### Event 65535.1

#### Metadata

| Field        | Value    |
|--------------|----------|
| Entrypoint   | 0x0002   |
| Data Size    | 24 bytes |
| Instructions | 6        |

```
      00 01 02 03 04 05 06 07  08 09 0A 0B 0C 0D 0E 0F
      -- -- -- -- -- -- -- --  -- -- -- -- -- -- -- --
0000:       32 00 80 1F 00 01  80 02 80 03 80 1F 01 1F    2.............
0010: 00 04 80 05 80 03 80 1F  01 00                    ..........      
```

#### Opcodes

```
  0: 0x0002 [0x32] ExtData[1]->MainSpeed = 40* * 0.1
  1: 0x0005 [0x1F] MOVE_ENTITY: EventEntity moves to X=-80.320*, Z=27.701*, Y=0.000*
  2: 0x000D [0x1F] MOVE_ENTITY: Update entity position (mode=1)
  3: 0x000F [0x1F] MOVE_ENTITY: EventEntity moves to X=-78.329*, Z=-1.787*, Y=0.000*
  4: 0x0017 [0x1F] MOVE_ENTITY: Update entity position (mode=1)
  5: 0x0019 [0x00] END_REQSTACK()
```

### Event 1507

#### Metadata

| Field        | Value    |
|--------------|----------|
| Entrypoint   | 0x001A   |
| Data Size    | 50 bytes |
| Instructions | 6        |

```
      00 01 02 03 04 05 06 07  08 09 0A 0B 0C 0D 0E 0F
      -- -- -- -- -- -- -- --  -- -- -- -- -- -- -- --
0010:                                A5 01 C0 06 80 B6            ......
0020: 0B 06 80 07 80 03 80 08  80 03 80 09 80 0A 80 03  ................
0030: 80 03 80 B4 00 00 00 59  67 6E 61 73 00 00 00 00  .......Ygnas....
0040: 00 00 00 00 00 00 00 B5  00 00 00 00              ............    
```

#### Opcodes

```
  0: 0x001A [0xA5] EventEntity->Flags3.BallistaTeam |= 0x08  // Set bit 3 of BallistaTeam
  1: 0x001C [0xC0] EventEntity->Render.Flags3 |= 0x1000 // Set bit 12 (from 1*)
  2: 0x001F [0xB6] ENTITY_APPEARANCE_HANDLER(case=Full entity look, race=1*, hair=25*, head=0*, body=57*, hands=0*, legs=142*, feet=3*, main=0*, sub=0*)
  3: 0x0033 [0xB4] UI_WINDOW_STRING_HANDLER(case=0x00 - Copy string from opcode, work_offset=ExtData[1]->WorkLocal[0], string="Ygnas")
  4: 0x0047 [0xB5] SET_EVENT_ENTITY_NAME: Change EventEntity name to ExtData[1]->WorkLocal[0]
  5: 0x004B [0x00] END_REQSTACK()
```

### Event 65535.2

#### Metadata

| Field        | Value    |
|--------------|----------|
| Entrypoint   | 0x004C   |
| Data Size    | 10 bytes |
| Instructions | 2        |

```
      00 01 02 03 04 05 06 07  08 09 0A 0B 0C 0D 0E 0F
      -- -- -- -- -- -- -- --  -- -- -- -- -- -- -- --
0040:                                      6C F8 FF FF              l...
0050: 7F 0B 80 0C 80 00                                 ......          
```

#### Opcodes

```
  0: 0x004C [0x6C] FADE_ENTITY_COLOR(entity_id=EventEntity, end_alpha=64*, fade_time=120*)
  1: 0x0055 [0x00] END_REQSTACK()
```

### Event 65535.3

#### Metadata

| Field        | Value    |
|--------------|----------|
| Entrypoint   | 0x0056   |
| Data Size    | 10 bytes |
| Instructions | 2        |

```
      00 01 02 03 04 05 06 07  08 09 0A 0B 0C 0D 0E 0F
      -- -- -- -- -- -- -- --  -- -- -- -- -- -- -- --
0050:                   6C F8  FF FF 7F 03 80 06 80 00        l.........
```

#### Opcodes

```
  0: 0x0056 [0x6C] FADE_ENTITY_COLOR(entity_id=EventEntity, end_alpha=0*, fade_time=1*)
  1: 0x005F [0x00] END_REQSTACK()
```

### Event 65535.4

#### Metadata

| Field        | Value    |
|--------------|----------|
| Entrypoint   | 0x0060   |
| Data Size    | 10 bytes |
| Instructions | 2        |

```
      00 01 02 03 04 05 06 07  08 09 0A 0B 0C 0D 0E 0F
      -- -- -- -- -- -- -- --  -- -- -- -- -- -- -- --
0060: 6C F8 FF FF 7F 03 80 0C  80 00                    l.........      
```

#### Opcodes

```
  0: 0x0060 [0x6C] FADE_ENTITY_COLOR(entity_id=EventEntity, end_alpha=0*, fade_time=120*)
  1: 0x0069 [0x00] END_REQSTACK()
```

### Event 65535.5

#### Metadata

| Field        | Value    |
|--------------|----------|
| Entrypoint   | 0x006A   |
| Data Size    | 45 bytes |
| Instructions | 4        |

```
      00 01 02 03 04 05 06 07  08 09 0A 0B 0C 0D 0E 0F
      -- -- -- -- -- -- -- --  -- -- -- -- -- -- -- --
0060:                                B6 0B 06 80 0D 80            ......
0070: 0E 80 0E 80 0E 80 0E 80  0E 80 03 80 03 80 B4 00  ................
0080: 00 00 00 00 00 00 00 00  00 00 00 00 00 00 00 00  ................
0090: 00 00 B5 00 00 00 00                              .......         
```

#### Opcodes

```
  0: 0x006A [0xB6] ENTITY_APPEARANCE_HANDLER(case=Full entity look, race=1*, hair=12*, head=342*, body=342*, hands=342*, legs=342*, feet=342*, main=0*, sub=0*)
  1: 0x007E [0xB4] UI_WINDOW_STRING_HANDLER(case=0x00 - Copy string from opcode, work_offset=ExtData[1]->WorkLocal[0], string="")
  2: 0x0092 [0xB5] SET_EVENT_ENTITY_NAME: Change EventEntity name to ExtData[1]->WorkLocal[0]
  3: 0x0096 [0x00] END_REQSTACK()
```

### Event 1509

#### Metadata

| Field        | Value    |
|--------------|----------|
| Entrypoint   | 0x0097   |
| Data Size    | 21 bytes |
| Instructions | 2        |

```
      00 01 02 03 04 05 06 07  08 09 0A 0B 0C 0D 0E 0F
      -- -- -- -- -- -- -- --  -- -- -- -- -- -- -- --
0090:                      B6  0B 06 80 07 80 03 80 08         .........
00A0: 80 03 80 09 80 0A 80 03  80 03 80 00              ............    
```

#### Opcodes

```
  0: 0x0097 [0xB6] ENTITY_APPEARANCE_HANDLER(case=Full entity look, race=1*, hair=25*, head=0*, body=57*, hands=0*, legs=142*, feet=3*, main=0*, sub=0*)
  1: 0x00AB [0x00] END_REQSTACK()
```

### Event 1510

#### Metadata

| Field        | Value    |
|--------------|----------|
| Entrypoint   | 0x00AC   |
| Data Size    | 21 bytes |
| Instructions | 2        |

```
      00 01 02 03 04 05 06 07  08 09 0A 0B 0C 0D 0E 0F
      -- -- -- -- -- -- -- --  -- -- -- -- -- -- -- --
00A0:                                      B6 0B 06 80              ....
00B0: 07 80 03 80 08 80 03 80  09 80 0A 80 03 80 03 80  ................
00C0: 00                                                .               
```

#### Opcodes

```
  0: 0x00AC [0xB6] ENTITY_APPEARANCE_HANDLER(case=Full entity look, race=1*, hair=25*, head=0*, body=57*, hands=0*, legs=142*, feet=3*, main=0*, sub=0*)
  1: 0x00C0 [0x00] END_REQSTACK()
```
