# 17830143 - Runje Desaali

## Common Data

| Field            | Value                     |
|------------------|---------------------------|
| Zone             | Eastern Adoulin (ID: 257) |
| Block Size       | 14680 bytes               |
| Total Events     | 60                        |
| References Count | 394                       |

## List of Events

| Event ID                   | Entrypoint   |   Size |   Instructions |
|----------------------------|--------------|--------|----------------|
| [65535](#event-65535)      | 0x0000       |   2155 |            311 |
| [5065](#event-5065)        | 0x086B       |   5640 |           1171 |
| [5064](#event-5064)        | 0x1E73       |    381 |             95 |
| [5066](#event-5066)        | 0x1FF0       |    464 |            108 |
| [5067](#event-5067)        | 0x21C0       |    393 |             99 |
| [5068](#event-5068)        | 0x2349       |    508 |            121 |
| [5083](#event-5083)        | 0x2545       |      1 |              1 |
| [5084](#event-5084)        | 0x2546       |      1 |              1 |
| [5085](#event-5085)        | 0x2547       |      1 |              1 |
| [5086](#event-5086)        | 0x2548       |      1 |              1 |
| [5087](#event-5087)        | 0x2549       |     72 |             20 |
| [5088](#event-5088)        | 0x2591       |     72 |             20 |
| [5089](#event-5089)        | 0x25D9       |     72 |             20 |
| [5090](#event-5090)        | 0x2621       |     72 |             20 |
| [5091](#event-5091)        | 0x2669       |     32 |             10 |
| [5092](#event-5092)        | 0x2689       |     96 |             16 |
| [5069](#event-5069)        | 0x26E9       |     29 |             11 |
| [5072](#event-5072)        | 0x2706       |    391 |             76 |
| [5070](#event-5070)        | 0x288D       |    645 |             88 |
| [88](#event-88)            | 0x2B12       |    258 |             66 |
| [131](#event-131)          | 0x2C14       |    251 |             58 |
| [132](#event-132)          | 0x2D0F       |    391 |             78 |
| [5237](#event-5237)        | 0x2E96       |    278 |             58 |
| [65535.1](#event-655351)   | 0x2FAC       |     16 |              2 |
| [65535.2](#event-655352)   | 0x2FBC       |     14 |              2 |
| [65535.3](#event-655353)   | 0x2FCA       |     16 |              2 |
| [65535.4](#event-655354)   | 0x2FDA       |     14 |              2 |
| [65535.5](#event-655355)   | 0x2FE8       |     16 |              2 |
| [65535.6](#event-655356)   | 0x2FF8       |     14 |              2 |
| [65535.7](#event-655357)   | 0x3006       |     16 |              2 |
| [65535.8](#event-655358)   | 0x3016       |     14 |              2 |
| [65535.9](#event-655359)   | 0x3024       |     16 |              2 |
| [65535.10](#event-6553510) | 0x3034       |     14 |              2 |
| [65535.11](#event-6553511) | 0x3042       |     16 |              2 |
| [65535.12](#event-6553512) | 0x3052       |     14 |              2 |
| [65535.13](#event-6553513) | 0x3060       |     16 |              2 |
| [65535.14](#event-6553514) | 0x3070       |     14 |              2 |
| [65535.15](#event-6553515) | 0x307E       |     16 |              2 |
| [65535.16](#event-6553516) | 0x308E       |     14 |              2 |
| [65535.17](#event-6553517) | 0x309C       |     16 |              2 |
| [65535.18](#event-6553518) | 0x30AC       |     14 |              2 |
| [65535.19](#event-6553519) | 0x30BA       |     16 |              2 |
| [65535.20](#event-6553520) | 0x30CA       |     14 |              2 |
| [65535.21](#event-6553521) | 0x30D8       |     16 |              2 |
| [65535.22](#event-6553522) | 0x30E8       |     14 |              2 |
| [65535.23](#event-6553523) | 0x30F6       |     16 |              2 |
| [65535.24](#event-6553524) | 0x3106       |     14 |              2 |
| [65535.25](#event-6553525) | 0x3114       |     16 |              2 |
| [65535.26](#event-6553526) | 0x3124       |     14 |              2 |
| [65535.27](#event-6553527) | 0x3132       |     16 |              2 |
| [65535.28](#event-6553528) | 0x3142       |     14 |              2 |
| [65535.29](#event-6553529) | 0x3150       |     16 |              2 |
| [65535.30](#event-6553530) | 0x3160       |     14 |              2 |
| [65535.31](#event-6553531) | 0x316E       |     16 |              2 |
| [65535.32](#event-6553532) | 0x317E       |    110 |             20 |
| [117](#event-117)          | 0x31EC       |      7 |              2 |
| [118](#event-118)          | 0x31F3       |     33 |             11 |
| [119](#event-119)          | 0x3214       |      7 |              2 |
| [120](#event-120)          | 0x321B       |      7 |              2 |
| [65535.33](#event-6553533) | 0x3222       |     14 |              4 |

## DAT References (imed_data)

|   Index | Hex Value   |   Dec Value |
|---------|-------------|-------------|
|       0 | 0x00C8      |         200 |
|       1 | 0x0000      |           0 |
|       2 | 0x00C9      |         201 |
|       3 | 0x0001      |           1 |
|       4 | 0x002D      |          45 |
|       5 | 0x0002      |           2 |
|       6 | 0x001E      |          30 |
|       7 | 0x00D7      |         215 |
|       8 | 0x2A21      |       10785 |
|       9 | 0x0005      |           5 |
|      10 | 0x225E      |        8798 |
|      11 | 0x0F8C      |        3980 |
|      12 | 0x0F8D      |        3981 |
|      13 | 0x0F8B      |        3979 |
|      14 | 0x0F8A      |        3978 |
|      15 | 0x0003      |           3 |
|      16 | 0x17B4      |        6068 |
|      17 | 0x0F89      |        3977 |
|      18 | 0x0004      |           4 |
|      19 | 0x0F72      |        3954 |
|      20 | 0x0FAE      |        4014 |
|      21 | 0x0FAF      |        4015 |
|      22 | 0x0FAD      |        4013 |
|      23 | 0x0FAC      |        4012 |
|      24 | 0x2232      |        8754 |
|      25 | 0x2230      |        8752 |
|      26 | 0x0FC1      |        4033 |
|      27 | 0x225D      |        8797 |
|      28 | 0x0F6F      |        3951 |
|      29 | 0x0032      |          50 |
|      30 | 0x2A22      |       10786 |
|      31 | 0x1904      |        6404 |
|      32 | 0x0578      |        1400 |
|      33 | 0x013C      |         316 |
|      34 | 0x000A      |          10 |
|      35 | 0x0CB7      |        3255 |
|      36 | 0x000F      |          15 |
|      37 | 0x2A23      |       10787 |
|      38 | 0x0876      |        2166 |
|      39 | 0x00C2      |         194 |
|      40 | 0x007F      |         127 |
|      41 | 0x012C      |         300 |
|      42 | 0x0028      |          40 |
|      43 | 0x0008      |           8 |
|      44 | 0x2A58      |       10840 |
|      45 | 0x0079      |         121 |
|      46 | 0x2A2C      |       10796 |
|      47 | 0x2A59      |       10841 |
|      48 | 0x2A5A      |       10842 |
|      49 | 0x2A7B      |       10875 |
|      50 | 0x2A29      |       10793 |
|      51 | 0x0096      |         150 |
|      52 | 0x00F0      |         240 |
|      53 | 0x2A2A      |       10794 |
|      54 | 0x2A7C      |       10876 |
|      55 | 0x2A7D      |       10877 |
|      56 | 0x2A7E      |       10878 |
|      57 | 0x2A24      |       10788 |
|      58 | 0x2A25      |       10789 |
|      59 | 0x2A26      |       10790 |
|      60 | 0x0034      |          52 |
|      61 | 0x2A27      |       10791 |
|      62 | 0x2A28      |       10792 |
|      63 | 0x2A2B      |       10795 |
|      64 | 0x073E      |        1854 |
|      65 | 0x000D      |          13 |
|      66 | 0x1F3E      |        7998 |
|      67 | 0x0011      |          17 |
|      68 | 0x0012      |          18 |
|      69 | 0x29B7      |       10679 |
|      70 | 0x2AA9      |       10921 |
|      71 | 0x0009      |           9 |
|      72 | 0x000B      |          11 |
|      73 | 0x1778      |        6008 |
|      74 | 0x0013      |          19 |
|      75 | 0x0014      |          20 |
|      76 | 0x0015      |          21 |
|      77 | 0x29B8      |       10680 |
|      78 | 0x29B9      |       10681 |
|      79 | 0x2710      |       10000 |
|      80 | 0x29ED      |       10733 |
|      81 | 0x29A1      |       10657 |
|      82 | 0x0078      |         120 |
|      83 | 0x29F0      |       10736 |
|      84 | 0x1EF0      |        7920 |
|      85 | 0x29EE      |       10734 |
|      86 | 0x29F2      |       10738 |
|      87 | 0x29EF      |       10735 |
|      88 | 0x18EF      |        6383 |
|      89 | 0x29F1      |       10737 |
|      90 | 0x18FD      |        6397 |
|      91 | 0x29F3      |       10739 |
|      92 | 0x29F4      |       10740 |
|      93 | 0x2A0A      |       10762 |
|      94 | 0x0064      |         100 |
|      95 | 0x2A0C      |       10764 |
|      96 | 0x2A0B      |       10763 |
|      97 | 0x2A0D      |       10765 |
|      98 | 0x01F4      |         500 |
|      99 | 0x09C4      |        2500 |
|     100 | 0x270F      |        9999 |
|     101 | 0x0CFD      |        3325 |
|     102 | 0x2A56      |       10838 |
|     103 | 0x2A79      |       10873 |
|     104 | 0x29E4      |       10724 |
|     105 | 0x29E5      |       10725 |
|     106 | 0x29E7      |       10727 |
|     107 | 0x29E8      |       10728 |
|     108 | 0x29E9      |       10729 |
|     109 | 0x000C      |          12 |
|     110 | 0x29EA      |       10730 |
|     111 | 0x29E6      |       10726 |
|     112 | 0x2713      |       10003 |
|     113 | 0x2712      |       10002 |
|     114 | 0x2711      |       10001 |
|     115 | 0x29EC      |       10732 |
|     116 | 0x271A      |       10010 |
|     117 | 0x2719      |       10009 |
|     118 | 0x2718      |       10008 |
|     119 | 0x0006      |           6 |
|     120 | 0x29BA      |       10682 |
|     121 | 0x29BB      |       10683 |
|     122 | 0x29BC      |       10684 |
|     123 | 0x29BD      |       10685 |
|     124 | 0x29BE      |       10686 |
|     125 | 0x29BF      |       10687 |
|     126 | 0x29C0      |       10688 |
|     127 | 0x29C1      |       10689 |
|     128 | 0x29C2      |       10690 |
|     129 | 0x29C3      |       10691 |
|     130 | 0x29C4      |       10692 |
|     131 | 0x29C5      |       10693 |
|     132 | 0x29C6      |       10694 |
|     133 | 0x0050      |          80 |
|     134 | 0x29C7      |       10695 |
|     135 | 0x29C8      |       10696 |
|     136 | 0x0007      |           7 |
|     137 | 0x29C9      |       10697 |
|     138 | 0x29CA      |       10698 |
|     139 | 0x29CB      |       10699 |
|     140 | 0x29CC      |       10700 |
|     141 | 0x29CD      |       10701 |
|     142 | 0x29CE      |       10702 |
|     143 | 0x29CF      |       10703 |
|     144 | 0x29D0      |       10704 |
|     145 | 0x29D1      |       10705 |
|     146 | 0x29D2      |       10706 |
|     147 | 0x29D3      |       10707 |
|     148 | 0x29D4      |       10708 |
|     149 | 0x29D5      |       10709 |
|     150 | 0x29D6      |       10710 |
|     151 | 0x29D7      |       10711 |
|     152 | 0x089C      |        2204 |
|     153 | 0x29D8      |       10712 |
|     154 | 0x29D9      |       10713 |
|     155 | 0x29DA      |       10714 |
|     156 | 0x29DB      |       10715 |
|     157 | 0x29DC      |       10716 |
|     158 | 0x29DD      |       10717 |
|     159 | 0x29DE      |       10718 |
|     160 | 0x29DF      |       10719 |
|     161 | 0x29E0      |       10720 |
|     162 | 0x29E1      |       10721 |
|     163 | 0x29E2      |       10722 |
|     164 | 0x29E3      |       10723 |
|     165 | 0x29F5      |       10741 |
|     166 | 0x29F8      |       10744 |
|     167 | 0x03C0      |         960 |
|     168 | 0x29F6      |       10742 |
|     169 | 0x29FA      |       10746 |
|     170 | 0x29F7      |       10743 |
|     171 | 0x29F9      |       10745 |
|     172 | 0x29FB      |       10747 |
|     173 | 0x29FC      |       10748 |
|     174 | 0x29FE      |       10750 |
|     175 | 0x29FD      |       10749 |
|     176 | 0x01FE      |         510 |
|     177 | 0x000E      |          14 |
|     178 | 0x0010      |          16 |
|     179 | 0x29FF      |       10751 |
|     180 | 0x2A00      |       10752 |
|     181 | 0x2A01      |       10753 |
|     182 | 0x2A04      |       10756 |
|     183 | 0x2A02      |       10754 |
|     184 | 0x2A03      |       10755 |
|     185 | 0x2A05      |       10757 |
|     186 | 0x64D9      |       25817 |
|     187 | 0x0065      |         101 |
|     188 | 0x679B      |       26523 |
|     189 | 0x0066      |         102 |
|     190 | 0x0067      |         103 |
|     191 | 0x0068      |         104 |
|     192 | 0x0069      |         105 |
|     193 | 0x006A      |         106 |
|     194 | 0x006B      |         107 |
|     195 | 0x0C42      |        3138 |
|     196 | 0x2A06      |       10758 |
|     197 | 0x2A8E      |       10894 |
|     198 | 0x2A90      |       10896 |
|     199 | 0x2A91      |       10897 |
|     200 | 0x6BBC      |       27580 |
|     201 | 0x6BBD      |       27581 |
|     202 | 0x6BBE      |       27582 |
|     203 | 0x6BBF      |       27583 |
|     204 | 0x6BC0      |       27584 |
|     205 | 0x6BC1      |       27585 |
|     206 | 0x6BC2      |       27586 |
|     207 | 0x6BC3      |       27587 |
|     208 | 0x6BC4      |       27588 |
|     209 | 0x6BC5      |       27589 |
|     210 | 0x6BC6      |       27590 |
|     211 | 0x6BC7      |       27591 |
|     212 | 0x2A07      |       10759 |
|     213 | 0x2A08      |       10760 |
|     214 | 0x2A09      |       10761 |
|     215 | 0x168F      |        5775 |
|     216 | 0x15A6      |        5542 |
|     217 | 0x160D      |        5645 |
|     218 | 0x1690      |        5776 |
|     219 | 0x15A7      |        5543 |
|     220 | 0x15BA      |        5562 |
|     221 | 0x0273      |         627 |
|     222 | 0xC350      |       50000 |
|     223 | 0x186A0     |      100000 |
|     224 | 0x30D40     |      200000 |
|     225 | 0x7A120     |      500000 |
|     226 | 0x03E8      |        1000 |
|     227 | 0x29A2      |       10658 |
|     228 | 0x29A3      |       10659 |
|     229 | 0x29A4      |       10660 |
|     230 | 0x29A5      |       10661 |
|     231 | 0x29A6      |       10662 |
|     232 | 0x29A7      |       10663 |
|     233 | 0x29A8      |       10664 |
|     234 | 0x29A9      |       10665 |
|     235 | 0x29AA      |       10666 |
|     236 | 0x29AB      |       10667 |
|     237 | 0x29AC      |       10668 |
|     238 | 0x29AD      |       10669 |
|     239 | 0x29AE      |       10670 |
|     240 | 0x29AF      |       10671 |
|     241 | 0x29B0      |       10672 |
|     242 | 0x29B1      |       10673 |
|     243 | 0x29B2      |       10674 |
|     244 | 0x29B3      |       10675 |
|     245 | 0x29B4      |       10676 |
|     246 | 0x29B5      |       10677 |
|     247 | 0x29B6      |       10678 |
|     248 | 0x2A49      |       10825 |
|     249 | 0x2A4A      |       10826 |
|     250 | 0x2A4B      |       10827 |
|     251 | 0x2A4C      |       10828 |
|     252 | 0x2A4D      |       10829 |
|     253 | 0x2A4E      |       10830 |
|     254 | 0x2A4F      |       10831 |
|     255 | 0x2A50      |       10832 |
|     256 | 0x2A51      |       10833 |
|     257 | 0x2A52      |       10834 |
|     258 | 0x2A53      |       10835 |
|     259 | 0x251C      |        9500 |
|     260 | 0x2A54      |       10836 |
|     261 | 0x2A55      |       10837 |
|     262 | 0x2A57      |       10839 |
|     263 | 0x2A6C      |       10860 |
|     264 | 0x2A6D      |       10861 |
|     265 | 0x0A0B      |        2571 |
|     266 | 0x2A6E      |       10862 |
|     267 | 0x2A6F      |       10863 |
|     268 | 0x2A70      |       10864 |
|     269 | 0x2A71      |       10865 |
|     270 | 0x2A72      |       10866 |
|     271 | 0x2A73      |       10867 |
|     272 | 0x2A74      |       10868 |
|     273 | 0x2A75      |       10869 |
|     274 | 0x2A76      |       10870 |
|     275 | 0x251D      |        9501 |
|     276 | 0x2A77      |       10871 |
|     277 | 0x2A78      |       10872 |
|     278 | 0x2A7A      |       10874 |
|     279 | 0x2A0E      |       10766 |
|     280 | 0x2A0F      |       10767 |
|     281 | 0x2A10      |       10768 |
|     282 | 0x2A11      |       10769 |
|     283 | 0x2A12      |       10770 |
|     284 | 0x2A13      |       10771 |
|     285 | 0x2A14      |       10772 |
|     286 | 0x2A15      |       10773 |
|     287 | 0x2A16      |       10774 |
|     288 | 0x2A18      |       10776 |
|     289 | 0x2A19      |       10777 |
|     290 | 0x2A17      |       10775 |
|     291 | 0x2A1A      |       10778 |
|     292 | 0x2A1B      |       10779 |
|     293 | 0x2A1C      |       10780 |
|     294 | 0x29EB      |       10731 |
|     295 | 0x2A2D      |       10797 |
|     296 | 0x524B      |       21067 |
|     297 | 0x524C      |       21068 |
|     298 | 0x524D      |       21069 |
|     299 | 0x524E      |       21070 |
|     300 | 0x510E      |       20750 |
|     301 | 0x510F      |       20751 |
|     302 | 0x5110      |       20752 |
|     303 | 0x5111      |       20753 |
|     304 | 0x2A2E      |       10798 |
|     305 | 0x2A2F      |       10799 |
|     306 | 0x2A30      |       10800 |
|     307 | 0x2A32      |       10802 |
|     308 | 0x2A33      |       10803 |
|     309 | 0x958940    |     9800000 |
|     310 | 0xF4240     |     1000000 |
|     311 | 0x2A34      |       10804 |
|     312 | 0x2A31      |       10801 |
|     313 | 0x001B      |          27 |
|     314 | 0xF6B2      |       63154 |
|     315 | 0xFFFE4B5B  |  4294855515 |
|     316 | 0xFFFF632C  |  4294927148 |
|     317 | 0x0918      |        2328 |
|     318 | 0x026B      |         619 |
|     319 | 0x2A35      |       10805 |
|     320 | 0x0082      |         130 |
|     321 | 0x010E      |         270 |
|     322 | 0x2A36      |       10806 |
|     323 | 0x003C      |          60 |
|     324 | 0x29A0      |       10656 |
|     325 | 0x2AAA      |       10922 |
|     326 | 0x1B61      |        7009 |
|     327 | 0x005A      |          90 |
|     328 | 0x2AAB      |       10923 |
|     329 | 0x2AAC      |       10924 |
|     330 | 0x2AAD      |       10925 |
|     331 | 0x2AAE      |       10926 |
|     332 | 0x2AAF      |       10927 |
|     333 | 0x2AB0      |       10928 |
|     334 | 0x2AB1      |       10929 |
|     335 | 0x2AB2      |       10930 |
|     336 | 0x2AB3      |       10931 |
|     337 | 0x2AB4      |       10932 |
|     338 | 0x2E3D      |       11837 |
|     339 | 0x2A89      |       10889 |
|     340 | 0x2A8A      |       10890 |
|     341 | 0x2A8B      |       10891 |
|     342 | 0x2A8C      |       10892 |
|     343 | 0x2A8D      |       10893 |
|     344 | 0x2A8F      |       10895 |
|     345 | 0x2A92      |       10898 |
|     346 | 0x2A93      |       10899 |
|     347 | 0x2A94      |       10900 |
|     348 | 0x2A95      |       10901 |
|     349 | 0x2A96      |       10902 |
|     350 | 0x2A97      |       10903 |
|     351 | 0x003A      |          58 |
|     352 | 0x00B4      |         180 |
|     353 | 0x2A98      |       10904 |
|     354 | 0x2A99      |       10905 |
|     355 | 0x2A9A      |       10906 |
|     356 | 0x2A9B      |       10907 |
|     357 | 0x2A9C      |       10908 |
|     358 | 0x2A9D      |       10909 |
|     359 | 0x2A9E      |       10910 |
|     360 | 0x2A9F      |       10911 |
|     361 | 0x2AA0      |       10912 |
|     362 | 0x2AA1      |       10913 |
|     363 | 0x2AA2      |       10914 |
|     364 | 0x2AA3      |       10915 |
|     365 | 0x2AA4      |       10916 |
|     366 | 0x0036      |          54 |
|     367 | 0x5CFF      |       23807 |
|     368 | 0x2AA5      |       10917 |
|     369 | 0x2AA6      |       10918 |
|     370 | 0x2AA7      |       10919 |
|     371 | 0x2AA8      |       10920 |
|     372 | 0x0035      |          53 |
|     373 | 0x0BFE      |        3070 |
|     374 | 0x5D00      |       23808 |
|     375 | 0x5D01      |       23809 |
|     376 | 0x7530      |       30000 |
|     377 | 0x6650      |       26192 |
|     378 | 0x6651      |       26193 |
|     379 | 0x6652      |       26194 |
|     380 | 0x6653      |       26195 |
|     381 | 0x6654      |       26196 |
|     382 | 0x6655      |       26197 |
|     383 | 0x6656      |       26198 |
|     384 | 0x6657      |       26199 |
|     385 | 0x6658      |       26200 |
|     386 | 0x6659      |       26201 |
|     387 | 0x665A      |       26202 |
|     388 | 0x665B      |       26203 |
|     389 | 0x1871      |        6257 |
|     390 | 0x2E53      |       11859 |
|     391 | 0x2E54      |       11860 |
|     392 | 0xFFFEF660  |  4294899296 |
|     393 | 0xFFFFD8F0  |  4294957296 |

## String References

- **6383**: You cannot obtain the $0.
- **6397**: You obtain $1 $0 !
- **6404**: The $1 $0 are returned to you.
- **7009**: You have obtained $0 bayld!
- **10656**: Always a pleasure doin' business with ya. As fer the brrread, this is about all I can bake at the moment. Take it or leave it, buster.
- **10657**: Runje Desaali stares intently at you.
- **10658**: That's a keen body ya got goin' on, [tough guy/bearcat].
- **10659**: Oh, I don't mean it in a cat scrrratch fever-type of way.
- **10660**: I just meant that you's got more of an aura 'bout ya than the cugines 'rrround these parts.
- **10661**: You's frrrom the Middle Lands, ain'tchya?
- **10662**: You from the Middle Lands? [Yep./Nope.]
- **10663**: Huh, whaddya know. Oh well, it ain't my concern.
- **10664**: What does concern me is yer prrrowess as a pioneer.
- **10665**: Ah, I almost furrrgot ta introduce m'self. As I always say, "It's trust that funds good business." <Wink>
- **10666**: The name's Runje Desaali, and sellin' goods is my game. I's just a rrrun-of-the-mill merchant from the teensiest of the southern islands.
- **10667**: In all my years on the lam, I ain't never seen a continent so wild as this one. Mindartia, Quon, Aradjiah...they's so overcrrrowded compared to this place.
- **10668**: It always pays ta be foist on the scene. Ya get ta make yer own rules, see. That's why I hopped a ship as soon as I heard they were lookin' fer pioneers.
- **10669**: But I rrreally didn't expect things ta play out the way they did.
- **10670**: Walkin' about the Corrronal Esplanade, I bumped inta a Taru by the name of Chero-Machero. I swear, his lips flapped faster'n the west wind, but his sense fer dough was spot on.
- **10671**: After we talked shop fer a while, I found out that he's big cheese in Adoulin...
- **10672**: "There ain't gonna be no better mark than this!" I rrreasoned, so I purred my heart out, made him a cat's-paw, and now I's peddlin' under the Oider of Goiney name.
- **10673**: But don't go blabbin' this all over the strrreet. I'd hafta send ya a message through the mouth, if ya know what I mean.
- **10674**: Just say I'm runnin' an on-the-level operation thanks to an Adoulinian noble's good grrraces. That oughtta do it.
- **10675**: Ya keep it at that, and I won't brrrin' in the enforcers.
- **10676**: But you don't wanna hear the whole History of Runje, do ya? This ain't no shakedown, but if ya got any currrios the locals say have a history behind them, I'm all ears.
- **10677**: Trade me one, and I'll pay ya trrribute with some fat-cat bayld.
- **10678**: Now bugger off unless ya got somethin' for me.
- **10679**: Got some business with me?
- **10680**: Got business with her? [Nope./Buy $0./View materials. [(GEO)/(RUN)]/Quit collecting. [(GEO)/(RUN)]/Resume collecting materials. (GEO)/Resume collecting materials. (RUN)/Which weapons can I trade?/What's with the leafkin?/High-purity bayld?/I want some $6./What does Geosuke recommend?/What are special services?/I want to check treasures.]
- **10681**: Anytime, [wiseguy/wisegal].
- **10682**: I's mainly interested in the merchandise prrrovided by the Peacekeepers' Coalition. You know, "traditional weaponry" or whatever name ya give 'em.
- **10683**: I ain't above takin' those Records of Eminence rrrewards, either. A.M.A.N. makes some ducky stuff.
- **10684**: What adventurers from the Middle Lands may see as the dullest of the dull, the cafones here'll cram down their own throats in glee. The grrrass is always greener, see.
- **10685**: Fer yer fine contributions, I'll make ya an offer ya can't rrrefuse...1/$0 the price you's bought it fer, but in bayld.
- **10686**: I'll also take special equipment dropped by the lords of the jungle off yer hands. Those that ya can't offload on those shrills at the auction house.
- **10687**: I's got me a strrrict no-returns policy, too. Try to take one back and I'll put out a contrrract on ya.
- **10688**: What's gonna happen to yer prrrecious little weapon after ya part ways with it?
- **10689**: It'll help me fulfill favors to people who visit me on the day of my daughter's weddin'.
- **10690**: Copacetic, rrright?
- **10691**: Have anything to say? [Not particularly.../Very fine, indeed./Remain silent.]
- **10692**: Why not!? As the don of my own enterprrrise, I's gotta prepare fer the future.
- **10693**: Naw, I'm just pullin' yer leg. I actually send the valuable ones to my soldiers who distrrribute them to-- Haha, ya almost had me givin' away my trade secret there.
- **10694**: Exactly! Gotta put family foist.
- **10695**: Say somethin'! Anythin'! I'm dyin' over here.
- **10696**: All that aside, I want me some old-time weapons. Rrremember that.
- **10697**: Oh, this friend of mine? I picked him up on an excurrrsion with a Scouts' Coalition survey crew.
- **10698**: He was losin' foliage rrright and left when I found him. Someone musta put out a hit on him.
- **10699**: I've no idea--they's pretty harmless. I only know them from the Mummers' Coalition shield prrrize and rumors, but I'd say they's more mischievous than malicious.
- **10700**: Don't get me wrong--I'd've let him get pinched except for that his cutesy face might brrrin' in customers. "Oooh, I'd give away all my equipment just to pet Runje's little shrub again!"
- **10701**: Those so-called reconnaissance expurrrts didn't even see me sweep this guy up from under they's noses! Maybe I should take up griftin', too!
- **10702**: Despite my intentions, this bramble's taken a likin' ta yers trrruly.
- **10703**: And his leafy face is startin' ta grrrow on me, not to mention that since he don't speak right, he's a real stand-up guy.
- **10705**: Did I tell ya he's got a swingin' supernatural power?
- **10706**: Give him $0 and he'll crrrank out bushels of special crystallized ergon tinctures.
- **10707**: I's found a way to take those crystallizations and synthesize 'em into choice rings poifect fer a discernin' fencer like yaself.
- **10708**: Sadly, one $0 ain't gonna getchya very far...
- **10709**: I's been waitin' with bated brrreath fer ya ta ask that question!
- **10710**: As ya can imagine from the name, it's bayld that's of a higherrr quality than the normal stuff.
- **10711**: The power layin' low in this stuff is two--no, three times more effective than yer used to. Plus, ya gotta bootleg it into the city, makin' fer a rrrisky and expensive venture.
- **10712**: <Sniff><sniff> Hm, that's the smell of sawdust fer sure. If ya know the $3 skill, then I's sure ya seen high-purity bayld in some form before.
- **10713**: Ya know those tree roots that block yer path in the jungle and are thicker'n the gams on Ingrid, right? Then do ya rrrecall that some sparkly powder flies up when ya break 'em?
- **10714**: My merrrchant's intuition tells me that's where it comes from.
- **10715**: And considerin' that pioneers say they's been gettin' the stuff from rrreives, I's inclined to trust that hunch.
- **10716**: We ain't prrrivy to much, but I do know that research's been pluggin' along nicely of late, and that's how the grit's startin' to get found.
- **10717**: Getting back on trrrack, $0 are just the berries now.
- **10718**: Aaand, as luck would have it...
- **10719**: I just got some as vigorrrish this mornin'.
- **10720**: What's more, I's havin' a sale of unprrrecedented proportions on it for all my [Hume/Elvaan/Tarutaru/Mithra/Galka] customers!
- **10721**: Ya too can have yer very own pinch of it for the low, low prrrice of $1 bayld.
- **10722**: Lemme say it again, as it bears rrrepeatin'. Yer timin' couldn't be more impeccable.
- **10723**: Someone call a back-alley doctor, 'cuz I's bleedin' m'self drrry by givin' them away fer this little.
- **10724**: What a pathetic joke. We all know ya took the omerta. Don't ya dare ever say somethin' that dumb ta me again, you stupid strunz.
- **10725**: Were you just making a joke? [No, I really want out./Yes, and I'm sorry.]
- **10726**: Damn rrright ya's sorry.
- **10727**: Be warned. Not only will ya lose all the materials ya gathered, but yer gonna be chased to the ends of Vana'diel. Our family don't...take kindly to trrraitors.
- **10728**: Truly give up? [Yes, I'm not afraid./No! I'm sorry!]
- **10729**: ...Fine.
- **10730**: Aaand now forrrk over the weapon ya wanna give up on.
- **10731**: Don't ya worry, I'll take rrreal good care of this beauty.
- **10732**: Here's yer weapon back--I assume yer gonna need it.
- **10733**: The sale's still on, but not fer long! Get pinches of 'em fer $1 bayld apiece before time rrruns out!
- **10734**: How many do you want? Enter either a number 1 through $1, or 0 to cancel. (Bayld: $2)
- **10735**: Purchase $3 pinches? [Yes, take my $4 bayld!/Nope.]
- **10736**: That trrribute's lookin' a bit small, ya [Dumb Dan/Dumb Dora]. Gimme the correct amount before I pop ya one.
- **10737**: Alrrrighty, $3 $0 to the [jolly gent/lucky lady]!
- **10738**: Pullin' the ol' bait-and-switch, I see. Let's hope you live to rrregret it.
- **10739**: Here's a little kickback fer bein' such a big spenderrr.
- **10740**: Runje provides you with $5 pinches of high-purity bayld free of charge!
- **10741**: I's runnin' a special campaign, so they'rrre yours fer only $1 bayld a piece! So, how many ya want?
- **10742**: How many would you like? Enter either a number 1 through $1, or 0 to cancel. (Bayld: $2)
- **10743**: Purchase $3 piece[/s]? [Yes, take my $4 bayld!/Nope.]
- **10744**: That trrribute's lookin' a bit small, ya [Dumb Dan/Dumb Dora]. Gimme the correct amount before I pop ya one.
- **10745**: Alrrrighty, $3 $0 to the [jolly gent/lucky lady]!
- **10746**: Pullin' the ol' bait-and-switch, I see. Let's hope you live to rrregret it.
- **10747**: Here's a little kickback fer bein' such a big spenderrr.
- **10748**: Runje provides you with $5 free of charge!
- **10749**: Most of 'em were found by Geosuke, but they'rrre all top quality, I assure ya!
- **10750**: Geosuke's got a bunch of special treasures fer you!
- **10752**: $6, is it? That'll be $27 bayld. Are ya sure yer good fer it?
- **10753**: Purchase the $3? [Here's my $27 bayld./Ummm, on second thought...]
- **10754**: $26, is it? That'll be $27 bayld. Are ya sure ya can afforrrd it?
- **10756**: Thanks! Hope ya enjoy yer $3!
- **10757**: Therrre ya go! Hope ya like yer $0!
- **10758**: My little patsy Geosuke here has got some special serrrvices for those who have $6.
- **10760**: I can make that one a little more special fer ya, and it'll look somethin' like this:
- **10761**: Youse want to improve it? It'll run ya $34 and $$ $0# .
- **10762**: The state of yer [geomancer/rune fencer] weapon vig is somethin' like this:
- **10763**: #: [Needed/Acquired].
- **10764**: #: $1 of $2 acquired. ($4 needed)
- **10765**: #: All $2 acquired.
- **10766**: Why, it's my favorrrite shill! Wait...what's that [wand/sword] yer wavin' about?
- **10767**: So you say someone just gave ya this thing and said "There's some latent potential in there, go!"? What a rrracket!
- **10768**: This's gotta be just a gaff... No, it's the rrreal deal!
- **10769**: Let me getta look at that piece of worrrk.
- **10770**: Could use a good brushin' up, but nothin' Geosuke and I can't handle.
- **10771**: All it needs is ta be [bathed in the powerrrs of nature/taken to special fonts of powerrr].
- **10772**: And what'll ya need then? Not more'n a special [ergon crystal/runey ring].
- **10773**: So if you wanna stop bein' a scab 'n make yer [wand/sword] all purrretty, brin' me...
- **10774**: ...$1, $2, $3...
- **10775**: ...$1...
- **10776**: ...$2 $0$0 ...
- **10777**: ...and $2 $0$0 .
- **10778**: Then trrrade 'em to [that jamook Geosuke/me].
- **10779**: Don' look so banged up. Just get 'em bit by bit and we'll keep 'em locked away safe.
- **10780**: See, Geosuke, I says ta myself, "Runje, everrr see such a piece o' work?"...
- **10797**: Geosuke? What're ya holdin' therrre?
- **10798**: That's...that's $0!
- **10799**: Damn [bastahd/puttanti], ya didn't just up 'n chuck it out, didya?
- **10800**: Did you "drop" it? [Uh...oopsie./Must be someone else's.]
- **10801**: Then who could've...?
- **10802**: Ya did!? Yeah, yer a real wiseguy, ain't ya? It's all crrracked 'n chipped!
- **10803**: <Sigh> I can make it mint-new, but it'll cost ya.
- **10804**: $0 gil. Any less 'n I'll get the whole family after ya. Just trade it ta me.
- **10805**: Good. One less thing on my moind.
- **10806**: Dun be so careless next time. What kinda joint ya think I'm runnin' here?
- **10825**: ...!
- **10826**: You there, the [cake-eater/broad]--how's about givin' me a look at the bell you're pawing arrround with.
- **10827**: Fooowhee, that's some ancient heat yer packing there!
- **10828**: Y'know who could fix it rrright up for you? Me and Geosuke. Ain't never seen another leafkin who could mewl with the best of 'em!
- **10829**: But we can get it all dolled up if ya brin' us $1 $0 .
- **10830**: Ask her to fix it up? [Sounds like a plan./I've no interest in this arrangement.]
- **10831**: Yer a rrreal pill, ya know that?
- **10832**: Oh ho, fate's dealt me a cooler this time 'rrround.
- **10833**: Been quite a while since I've gotten a joib this rrritzy!
- **10834**: This might be yer only chance, and I promises I'll do it up rrright swell. So what'll it be?
- **10835**: Have her repair the bell? [Yes. Geomancy waits for no one./I'd rather not.]
- **10836**: Brin' mama the ice! You know what you gotta do--go foind me $1 $0 .
- **10837**: Do that, and I'll have this ol' arrrtifact of yers singin' like a canary.
- **10838**: But if'n ya trrrade them to me instead of Geosuke...then it's right to the moon!
- **10839**: He might not look th' part, but the guy's as hard-boiled as they come.
- **10860**: Madonn'!
- **10861**: My whiskers're gettin' the heebie-jeebies, which can only mean ya've got ahold of somethin' with trrremendous runic powers!
- **10862**: Aha, that's it! It's gotta be comin' frrrom that $3!
- **10863**: Time for Geosuke ta go ta woik.
- **10864**: Hmmm...It's lookin' like we'll need $1 $0 ta finish the joib.
- **10865**: What do you think? [Please, work your magic!/Get outta here.]
- **10866**: No, you get outta here, poverrrett! We ain't need yer cheapness filthin' up our operation.
- **10867**: Supoib! I ain't had no gigs like this fer as long as I can rrremember.
- **10868**: Just lemme get somethin' outta the way foist.
- **10869**: This might be yer only chance, so keep that in moind. Okay, what'll it be?
- **10870**: Have her make the weapon? [Well, if you say so./On second thought, get outta here.]
- **10871**: Then you'll hafta prrrocure me $1 $0 , [wiseguy/wisegal].
- **10872**: If ya can manage that, we might just be able ta extrrract that runic essence. It'll take all my cunnin', but I'm up ta the task!
- **10873**: Trrrade me the materials and we can make a marriage between our two parties.
- **10874**: Now go out there and do this outfit prrroud.
- **10889**: Youse got $6, do ya?
- **10890**: Hand on a sec, buster. You're the [guy/gal] who had the $0 from before!
- **10891**: I's got eyes for clever thinks, y'see?
- **10892**: That li'l thing ya brought me just now--only Geosuke and his friends can give them out to those they trust.
- **10893**: It's kinda a badge of pride, see? And because you've got one, I's can offer ya special services.
- **10894**: I know, I know, you want to know more. So I'll tell ya: I can improve special treasures from each of the Twelve Orders.
- **10895**: Bet I got yer interest, didn't I?
- **10896**: And I've also got special deals for [/Hume maes/Hume females/Elvaan males/Elvaan females/Tarutaru males/Tarutaru females/Mithra/Galka] just like you! Only $2 $1!
- **10897**: Just trade me yer treasure along with $2 $1.
- **10898**: Let me know if ya wanna see what it's like once I's done with it.
- **10899**: Or wait...ya don't have any applicable treasures?
- **10900**: Then I can't do nothin' fer ya.
- **10901**: If ya had one but lost it, someone at th' castle might be able to help ya!
- **10902**: Oho! Brought "it" did ya?
- **10903**: Geosuke, c'mere and do yer thing!
- **10904**: My turn now!
- **10905**: Purrrfect! [A good first try, I's gotta say./Looks like it worked this time!]
- **10906**: I mean...of course everything went well!
- **10907**: Ah, and maybe I's forgot. Absolutely no returns or refunds.
- **10908**: G'job, Geosuke! I figured I could train you good!
- **10909**: Ah, if it isn't I's favorrrite pioneer!
- **10910**: Turns out I gots a job fer ya. A bit of a time-sensitive issue frrrom a contact in Eastern Adoulin.
- **10911**: A jungle crrreepy-crawly appears to have dropped a valuable piece o' equipment of sorts, and they want it.
- **10912**: I's not too sure o' the details, but it suppos'dly be very popular with some forrreign tradesmen.
- **10913**: Normally I be keepin' 'em in stock, but turns out my supply all but run drrry.
- **10914**: 'N that's where youse be comin' in. A battle o' a middleperson, if ya will.
- **10915**: 'Course, youse already be an experrrt in arms-dealin', no?
- **10916**: E'ry single one you find counts. Even just one be good enough. I's be payin' a fair price fer em, too.
- **10917**: Lemme show you the kind o' thing I's be needin'.
- **10918**: Betcha be interrrested now, hmmm?
- **10919**: Enough gabbin'. Get goin'!
- **10920**: Just know that what I's be needin' can't be bought on the auction house.
- **10921**: How's it goin'? Ya find anythin' off those crrreepy-crawlies?
- **10922**: 'Member ta keep at it!
- **10923**: Haha, the look on yer face! Dun worry, I's just be kiddin'. I's rememberrr our deal.
- **10924**: So dun be gettin' yer panties in a twist.
- **10925**: Hm? Ya 'spected somethin' else?
- **10926**: I dun remember that bein' part o' our deal.
- **10927**: Keep in mind that what I's be needin' ain't be available on yer e'ryday markets.
- **10928**: Ya wanna make the good cash, ya gotta stick yer neck out. That be the way o' things.
- **10929**: 'N the more dangerrrous the task, the higher the reward. Fair be fair, after all.
- **10930**: Remember what keeps me happy also keep Geosuke herrre happy. Got it? I'm sure he be willin' ta sell you his wares for...ya guessed it, a fair price.
- **10931**: We's all be friends here, no? So let's stay on each otherrr's good side.
- **10932**: Geosuke now offers an additional selection of items.
- **11837**: Ah, [young lady/young man], how's it going?

## Events

### Event 65535

#### Metadata

| Field        | Value      |
|--------------|------------|
| Entrypoint   | 0x0000     |
| Data Size    | 2155 bytes |
| Instructions | 1          |

```
      00 01 02 03 04 05 06 07  08 09 0A 0B 0C 0D 0E 0F
      -- -- -- -- -- -- -- --  -- -- -- -- -- -- -- --
0000: 00 45 00 80 F0 FF FF 7F  F0 FF FF 7F 66 64 69 30  .E..........fdi0
0010: 01 80 55 00 80 F0 FF FF  7F F0 FF FF 7F 66 64 69  ..U..........fdi
0020: 30 1B 45 00 80 F0 FF FF  7F F0 FF FF 7F 66 64 6F  0.E..........fdo
0030: 30 01 80 55 00 80 F0 FF  FF 7F F0 FF FF 7F 66 64  0..U..........fd
0040: 6F 30 1B 45 00 80 F0 FF  FF 7F F0 FF FF 7F 66 64  o0.E..........fd
0050: 69 31 01 80 55 00 80 F0  FF FF 7F F0 FF FF 7F 66  i1..U..........f
0060: 64 69 31 1B 45 00 80 F0  FF FF 7F F0 FF FF 7F 66  di1.E..........f
0070: 64 6F 31 01 80 55 00 80  F0 FF FF 7F F0 FF FF 7F  do1..U..........
0080: 66 64 6F 31 1B 45 02 80  F0 FF FF 7F F0 FF FF 7F  fdo1.E..........
0090: 77 68 69 31 01 80 55 02  80 F0 FF FF 7F F0 FF FF  whi1..U.........
00A0: 7F 77 68 69 31 1B 45 02  80 F0 FF FF 7F F0 FF FF  .whi1.E.........
00B0: 7F 77 68 6F 31 01 80 55  02 80 F0 FF FF 7F F0 FF  .who1..U........
00C0: FF 7F 77 68 6F 31 1B 45  02 80 F0 FF FF 7F F0 FF  ..who1.E........
00D0: FF 7F 77 68 6F 32 01 80  55 02 80 F0 FF FF 7F F0  ..who2..U.......
00E0: FF FF 7F 77 68 6F 32 1B  45 02 80 F0 FF FF 7F F0  ...who2.E.......
00F0: FF FF 7F 77 68 6F 33 01  80 55 02 80 F0 FF FF 7F  ...who3..U......
0100: F0 FF FF 7F 77 68 6F 33  1B 62 03 80 F0 FF FF 7F  ....who3.b......
0110: F0 FF FF 7F 6D 61 69 6E  01 80 1C 04 80 45 00 80  ....main.....E..
0120: F0 FF FF 7F F0 FF FF 7F  66 64 6F 31 01 80 55 00  ........fdo1..U.
0130: 80 F0 FF FF 7F F0 FF FF  7F 66 64 6F 31 1B 45 00  .........fdo1.E.
0140: 80 F0 FF FF 7F F0 FF FF  7F 66 64 69 31 01 80 62  .........fdi1..b
0150: 05 80 F0 FF FF 7F F0 FF  FF 7F 6D 61 69 6E 01 80  ..........main..
0160: 1C 06 80 55 00 80 F0 FF  FF 7F F0 FF FF 7F 66 64  ...U..........fd
0170: 69 31 1B 45 00 80 F0 FF  FF 7F F0 FF FF 7F 62 6C  i1.E..........bl
0180: 6F 6E 01 80 45 02 80 F0  FF FF 7F F0 FF FF 7F 62  on..E..........b
0190: 6C 6F 6E 01 80 1B 45 02  80 F0 FF FF 7F F0 FF FF  lon...E.........
01A0: 7F 77 68 69 30 01 80 55  02 80 F0 FF FF 7F F0 FF  .whi0..U........
01B0: FF 7F 77 68 69 30 1B 45  02 80 F0 FF FF 7F F0 FF  ..whi0.E........
01C0: FF 7F 77 68 6F 30 01 80  55 02 80 F0 FF FF 7F F0  ..who0..U.......
01D0: FF FF 7F 77 68 6F 30 1B  45 07 80 F0 FF FF 7F F0  ...who0.E.......
01E0: FF FF 7F 65 66 6F 6E 01  80 55 07 80 F0 FF FF 7F  ...efon..U......
01F0: F0 FF FF 7F 65 66 6F 6E  1B 45 00 80 F0 FF FF 7F  ....efon.E......
0200: F0 FF FF 7F 66 64 69 73  01 80 1B 45 00 80 F0 FF  ....fdis...E....
0210: FF 7F F0 FF FF 7F 66 64  6F 73 01 80 55 00 80 F0  ......fdos..U...
0220: FF FF 7F F0 FF FF 7F 66  64 6F 73 1B 45 00 80 F0  .......fdos.E...
0230: FF FF 7F F0 FF FF 7F 66  64 69 66 01 80 1B 45 00  .......fdif...E.
0240: 80 F0 FF FF 7F F0 FF FF  7F 66 64 6F 66 01 80 55  .........fdof..U
0250: 00 80 F0 FF FF 7F F0 FF  FF 7F 66 64 6F 66 1B 45  ..........fdof.E
0260: 00 80 F0 FF FF 7F F0 FF  FF 7F 66 64 69 70 01 80  ..........fdip..
0270: 1B 45 00 80 F0 FF FF 7F  F0 FF FF 7F 66 64 6F 70  .E..........fdop
0280: 01 80 55 00 80 F0 FF FF  7F F0 FF FF 7F 66 64 6F  ..U..........fdo
0290: 70 1B 02 11 00 03 80 00  9D 02 01 17 05 2B FF 10  p............+..
02A0: 10 01 08 80 23 02 07 00  03 80 80 C5 02 02 09 00  ....#...........
02B0: 09 80 80 C2 02 03 03 10  0A 80 03 04 10 0E 00 01  ................
02C0: C2 02 01 AD 04 02 07 00  05 80 80 99 03 02 09 00  ................
02D0: 03 80 80 02 03 02 08 00  03 80 80 EA 02 03 03 10  ................
02E0: 0B 80 03 04 10 03 80 01  FF 02 02 08 00 05 80 80  ................
02F0: FF 02 03 03 10 0C 80 03  04 10 03 80 01 FF 02 01  ................
0300: 96 03 02 09 00 05 80 80  37 03 02 08 00 03 80 80  ........7.......
0310: 1F 03 03 03 10 0D 80 03  04 10 03 80 01 34 03 02  .............4..
0320: 08 00 05 80 80 34 03 03  03 10 0E 80 03 04 10 03  .....4..........
0330: 80 01 34 03 01 96 03 02  09 00 0F 80 80 6C 03 02  ..4..........l..
0340: 08 00 03 80 80 54 03 03  03 10 10 80 03 04 10 03  .....T..........
0350: 80 01 69 03 02 08 00 05  80 80 69 03 03 03 10 11  ..i.......i.....
0360: 80 03 04 10 03 80 01 69  03 01 96 03 02 09 00 12  .......i........
0370: 80 80 81 03 03 03 10 13  80 03 04 10 0E 00 01 96  ................
0380: 03 02 09 00 09 80 80 96  03 03 03 10 0A 80 03 04  ................
0390: 10 0E 00 01 96 03 01 AD  04 02 07 00 0F 80 80 6D  ...............m
03A0: 04 02 09 00 03 80 80 D6  03 02 08 00 03 80 80 BE  ................
03B0: 03 03 03 10 14 80 03 04  10 03 80 01 D3 03 02 08  ................
03C0: 00 05 80 80 D3 03 03 03  10 15 80 03 04 10 03 80  ................
03D0: 01 D3 03 01 6A 04 02 09  00 05 80 80 0B 04 02 08  ....j...........
03E0: 00 03 80 80 F3 03 03 03  10 16 80 03 04 10 03 80  ................
03F0: 01 08 04 02 08 00 05 80  80 08 04 03 03 10 17 80  ................
0400: 03 04 10 03 80 01 08 04  01 6A 04 02 09 00 0F 80  .........j......
0410: 80 40 04 02 08 00 03 80  80 28 04 03 03 10 18 80  .@.......(......
0420: 03 04 10 03 80 01 3D 04  02 08 00 05 80 80 3D 04  ......=.......=.
0430: 03 03 10 19 80 03 04 10  03 80 01 3D 04 01 6A 04  ...........=..j.
0440: 02 09 00 12 80 80 55 04  03 03 10 1A 80 03 04 10  ......U.........
0450: 0E 00 01 6A 04 02 09 00  09 80 80 6A 04 03 03 10  ...j.......j....
0460: 0A 80 03 04 10 0E 00 01  6A 04 01 AD 04 02 07 00  ........j.......
0470: 12 80 80 AD 04 02 09 00  03 80 80 8A 04 03 03 10  ................
0480: 1B 80 03 04 10 03 80 01  AA 04 02 09 00 12 80 80  ................
0490: 9A 04 03 03 10 1C 80 01  AA 04 02 09 00 09 80 80  ................
04A0: AA 04 03 03 10 0A 80 01  AA 04 01 AD 04 02 0F 00  ................
04B0: 01 80 01 07 05 66 1D 80  FF 10 10 01 FF 10 10 01  .....f..........
04C0: 70 61 73 30 2B FF 10 10  01 1E 80 23 03 02 10 03  pas0+......#....
04D0: 10 02 09 00 12 80 80 E1  04 03 03 10 0F 00 01 F6  ................
04E0: 04 02 09 00 09 80 80 F1  04 03 03 10 0F 00 01 F6  ................
04F0: 04 03 03 10 03 80 48 1F  80 23 53 FF 10 10 01 FF  ......H..#S.....
0500: 10 10 01 70 61 73 30 02  10 00 03 80 00 15 05 01  ...pas0.........
0510: 17 05 01 17 05 21 00 5D  01 80 20 80 1C 06 80 AD  .....!.].. .....
0520: 02 21 80 00 11 10 01 00  11 10 01 1C 22 80 5B 23  .!..........".[#
0530: 80 00 11 10 01 00 11 10  01 6D 67 6B 30 1C 24 80  .........mgk0.$.
0540: 4A FF 10 10 01 00 11 10  01 6F 76 FF 10 10 01 1C  J........ov.....
0550: 24 80 2B FF 10 10 01 25  80 1C 22 80 C4 02 26 80  $.+....%.."...&.
0560: 00 11 10 01 00 11 10 01  1C 27 80 23 1A A6 00 5D  .........'.#...]
0570: 28 80 29 80 1C 2A 80 6B  69 64 6C 30 00 11 10 01  (.)..*.kidl0....
0580: 1C 2A 80 1A 85 00 4A 00  11 10 01 FF 10 10 01 6F  .*....J........o
0590: 76 00 11 10 01 02 07 00  03 80 00 55 07 02 08 00  v..........U....
05A0: 03 80 80 56 06 66 2B 80  FF 10 10 01 FF 10 10 01  ...V.f+.........
05B0: 75 72 65 30 2B FF 10 10  01 2C 80 23 53 FF 10 10  ure0+....,.#S...
05C0: 01 FF 10 10 01 75 72 65  30 4A FF 10 10 01 F0 FF  .....ure0J......
05D0: FF 7F 6F 76 FF 10 10 01  66 2D 80 FF 10 10 01 FF  ..ov....f-......
05E0: 10 10 01 70 61 73 30 2B  FF 10 10 01 2E 80 23 4A  ...pas0+......#J
05F0: 00 11 10 01 F0 FF FF 7F  6F 76 00 11 10 01 53 FF  ........ov....S.
0600: 10 10 01 FF 10 10 01 70  61 73 30 66 1D 80 FF 10  .......pas0f....
0610: 10 01 FF 10 10 01 74 68  6B 31 2B FF 10 10 01 2F  ......thk1+..../
0620: 80 23 53 FF 10 10 01 FF  10 10 01 74 68 6B 31 66  .#S........thk1f
0630: 1D 80 FF 10 10 01 FF 10  10 01 74 68 6B 32 2B FF  ..........thk2+.
0640: 10 10 01 30 80 23 53 FF  10 10 01 FF 10 10 01 74  ...0.#S........t
0650: 68 6B 32 01 52 07 02 08  00 05 80 80 52 07 66 2B  hk2.R.......R.f+
0660: 80 FF 10 10 01 FF 10 10  01 75 72 65 30 2B FF 10  .........ure0+..
0670: 10 01 31 80 23 53 FF 10  10 01 FF 10 10 01 75 72  ..1.#S........ur
0680: 65 30 2B FF 10 10 01 32  80 23 1C 06 80 9F 27 80  e0+....2.#....'.
0690: FF 10 10 01 FF 10 10 01  66 72 73 74 01 80 1C 33  ........frst...3
06A0: 80 9F 27 80 FF 10 10 01  FF 10 10 01 6F 6B 65 78  ..'.........okex
06B0: 01 80 1C 34 80 2B FF 10  10 01 35 80 23 4A FF 10  ...4.+....5.#J..
06C0: 10 01 F0 FF FF 7F 6F 76  FF 10 10 01 66 2D 80 FF  ......ov....f-..
06D0: 10 10 01 FF 10 10 01 70  61 73 30 2B FF 10 10 01  .......pas0+....
06E0: 2E 80 23 4A 00 11 10 01  F0 FF FF 7F 6F 76 00 11  ..#J........ov..
06F0: 10 01 53 FF 10 10 01 FF  10 10 01 70 61 73 30 66  ..S........pas0f
0700: 1D 80 FF 10 10 01 FF 10  10 01 74 68 6B 31 2B FF  ..........thk1+.
0710: 10 10 01 36 80 23 2B FF  10 10 01 37 80 23 53 FF  ...6.#+....7.#S.
0720: 10 10 01 FF 10 10 01 74  68 6B 31 66 1D 80 FF 10  .......thk1f....
0730: 10 01 FF 10 10 01 74 68  6B 32 2B FF 10 10 01 38  ......thk2+....8
0740: 80 23 53 FF 10 10 01 FF  10 10 01 74 68 6B 32 01  .#S........thk2.
0750: 52 07 01 63 08 66 2B 80  FF 10 10 01 FF 10 10 01  R..c.f+.........
0760: 61 77 77 30 2B FF 10 10  01 39 80 23 53 FF 10 10  aww0+....9.#S...
0770: 01 FF 10 10 01 61 77 77  30 2B FF 10 10 01 3A 80  .....aww0+....:.
0780: 23 66 2B 80 FF 10 10 01  FF 10 10 01 75 72 65 30  #f+.........ure0
0790: 2B FF 10 10 01 3B 80 23  53 FF 10 10 01 FF 10 10  +....;.#S.......
07A0: 01 75 72 65 30 1C 22 80  4A FF 10 10 01 F0 FF FF  .ure0.".J.......
07B0: 7F 6F 76 FF 10 10 01 1C  06 80 66 3C 80 FF 10 10  .ov.......f<....
07C0: 01 FF 10 10 01 77 61 76  30 2B FF 10 10 01 3D 80  .....wav0+....=.
07D0: 23 53 FF 10 10 01 FF 10  10 01 77 61 76 30 02 08  #S........wav0..
07E0: 00 03 80 80 F1 07 2B FF  10 10 01 3E 80 23 01 3F  ......+....>.#.?
07F0: 08 02 08 00 05 80 80 3F  08 2B FF 10 10 01 32 80  .......?.+....2.
0800: 23 1C 06 80 9F 27 80 FF  10 10 01 FF 10 10 01 66  #....'.........f
0810: 72 73 74 01 80 1C 33 80  9F 27 80 FF 10 10 01 FF  rst...3..'......
0820: 10 10 01 6F 6B 65 78 01  80 1C 34 80 2B FF 10 10  ...okex...4.+...
0830: 01 35 80 23 2B FF 10 10  01 3F 80 23 01 3F 08 66  .5.#+....?.#.?.f
0840: 1D 80 FF 10 10 01 FF 10  10 01 70 61 73 30 2B FF  ..........pas0+.
0850: 10 10 01 2E 80 23 53 FF  10 10 01 FF 10 10 01 70  .....#S........p
0860: 61 73 30 3C 01 10 12 80  03 80 1B                 as0<.......     
```

#### Opcodes

```
  0: 0x0000 [0x00] END_REQSTACK()
```

#### Data or dead code:

```
# Dead code (unreachable instructions):
     0x0001 [0x45] LOAD_SCHEDULED_TASK: Load scheduler "fdi0" with entities [LocalPlayer, LocalPlayer], work=[200*, 0*]
     0x0012 [0x55] WAIT_LOAD_SCHEDULER: Wait for scheduler "fdi0" with entities [LocalPlayer, LocalPlayer], work=200*
     0x0021 [0x1B] RETURN
     0x0022 [0x45] LOAD_SCHEDULED_TASK: Load scheduler "fdo0" with entities [LocalPlayer, LocalPlayer], work=[200*, 0*]
     0x0033 [0x55] WAIT_LOAD_SCHEDULER: Wait for scheduler "fdo0" with entities [LocalPlayer, LocalPlayer], work=200*
     0x0042 [0x1B] RETURN
     0x0043 [0x45] LOAD_SCHEDULED_TASK: Load scheduler "fdi1" with entities [LocalPlayer, LocalPlayer], work=[200*, 0*]
     0x0054 [0x55] WAIT_LOAD_SCHEDULER: Wait for scheduler "fdi1" with entities [LocalPlayer, LocalPlayer], work=200*
     0x0063 [0x1B] RETURN
     0x0064 [0x45] LOAD_SCHEDULED_TASK: Load scheduler "fdo1" with entities [LocalPlayer, LocalPlayer], work=[200*, 0*]
     0x0075 [0x55] WAIT_LOAD_SCHEDULER: Wait for scheduler "fdo1" with entities [LocalPlayer, LocalPlayer], work=200*
     0x0084 [0x1B] RETURN
     0x0085 [0x45] LOAD_SCHEDULED_TASK: Load scheduler "whi1" with entities [LocalPlayer, LocalPlayer], work=[201*, 0*]
     0x0096 [0x55] WAIT_LOAD_SCHEDULER: Wait for scheduler "whi1" with entities [LocalPlayer, LocalPlayer], work=201*
     0x00A5 [0x1B] RETURN
     0x00A6 [0x45] LOAD_SCHEDULED_TASK: Load scheduler "who1" with entities [LocalPlayer, LocalPlayer], work=[201*, 0*]
     0x00B7 [0x55] WAIT_LOAD_SCHEDULER: Wait for scheduler "who1" with entities [LocalPlayer, LocalPlayer], work=201*
     0x00C6 [0x1B] RETURN
     0x00C7 [0x45] LOAD_SCHEDULED_TASK: Load scheduler "who2" with entities [LocalPlayer, LocalPlayer], work=[201*, 0*]
     0x00D8 [0x55] WAIT_LOAD_SCHEDULER: Wait for scheduler "who2" with entities [LocalPlayer, LocalPlayer], work=201*
     0x00E7 [0x1B] RETURN
     0x00E8 [0x45] LOAD_SCHEDULED_TASK: Load scheduler "who3" with entities [LocalPlayer, LocalPlayer], work=[201*, 0*]
     0x00F9 [0x55] WAIT_LOAD_SCHEDULER: Wait for scheduler "who3" with entities [LocalPlayer, LocalPlayer], work=201*
     0x0108 [0x1B] RETURN
     0x0109 [0x62] LOAD_EVENT_SCHEDULER: Load scheduler "main" with entities [LocalPlayer, LocalPlayer], work=[1*, 0*]
     0x011A [0x1C] WAIT(45* ticks)
     0x011D [0x45] LOAD_SCHEDULED_TASK: Load scheduler "fdo1" with entities [LocalPlayer, LocalPlayer], work=[200*, 0*]
     0x012E [0x55] WAIT_LOAD_SCHEDULER: Wait for scheduler "fdo1" with entities [LocalPlayer, LocalPlayer], work=200*
     0x013D [0x1B] RETURN
     0x013E [0x45] LOAD_SCHEDULED_TASK: Load scheduler "fdi1" with entities [LocalPlayer, LocalPlayer], work=[200*, 0*]
     0x014F [0x62] LOAD_EVENT_SCHEDULER: Load scheduler "main" with entities [LocalPlayer, LocalPlayer], work=[2*, 0*]
     0x0160 [0x1C] WAIT(30* ticks)
     0x0163 [0x55] WAIT_LOAD_SCHEDULER: Wait for scheduler "fdi1" with entities [LocalPlayer, LocalPlayer], work=200*
     0x0172 [0x1B] RETURN
     0x0173 [0x45] LOAD_SCHEDULED_TASK: Load scheduler "blon" with entities [LocalPlayer, LocalPlayer], work=[200*, 0*]
     0x0184 [0x45] LOAD_SCHEDULED_TASK: Load scheduler "blon" with entities [LocalPlayer, LocalPlayer], work=[201*, 0*]
     0x0195 [0x1B] RETURN
     0x0196 [0x45] LOAD_SCHEDULED_TASK: Load scheduler "whi0" with entities [LocalPlayer, LocalPlayer], work=[201*, 0*]
     0x01A7 [0x55] WAIT_LOAD_SCHEDULER: Wait for scheduler "whi0" with entities [LocalPlayer, LocalPlayer], work=201*
     0x01B6 [0x1B] RETURN
     0x01B7 [0x45] LOAD_SCHEDULED_TASK: Load scheduler "who0" with entities [LocalPlayer, LocalPlayer], work=[201*, 0*]
     0x01C8 [0x55] WAIT_LOAD_SCHEDULER: Wait for scheduler "who0" with entities [LocalPlayer, LocalPlayer], work=201*
     0x01D7 [0x1B] RETURN
     0x01D8 [0x45] LOAD_SCHEDULED_TASK: Load scheduler "efon" with entities [LocalPlayer, LocalPlayer], work=[215*, 0*]
     0x01E9 [0x55] WAIT_LOAD_SCHEDULER: Wait for scheduler "efon" with entities [LocalPlayer, LocalPlayer], work=215*
     0x01F8 [0x1B] RETURN
     0x01F9 [0x45] LOAD_SCHEDULED_TASK: Load scheduler "fdis" with entities [LocalPlayer, LocalPlayer], work=[200*, 0*]
     0x020A [0x1B] RETURN
     0x020B [0x45] LOAD_SCHEDULED_TASK: Load scheduler "fdos" with entities [LocalPlayer, LocalPlayer], work=[200*, 0*]
     0x021C [0x55] WAIT_LOAD_SCHEDULER: Wait for scheduler "fdos" with entities [LocalPlayer, LocalPlayer], work=200*
     0x022B [0x1B] RETURN
     0x022C [0x45] LOAD_SCHEDULED_TASK: Load scheduler "fdif" with entities [LocalPlayer, LocalPlayer], work=[200*, 0*]
     0x023D [0x1B] RETURN
     0x023E [0x45] LOAD_SCHEDULED_TASK: Load scheduler "fdof" with entities [LocalPlayer, LocalPlayer], work=[200*, 0*]
     0x024F [0x55] WAIT_LOAD_SCHEDULER: Wait for scheduler "fdof" with entities [LocalPlayer, LocalPlayer], work=200*
     0x025E [0x1B] RETURN
     0x025F [0x45] LOAD_SCHEDULED_TASK: Load scheduler "fdip" with entities [LocalPlayer, LocalPlayer], work=[200*, 0*]
     0x0270 [0x1B] RETURN
     0x0271 [0x45] LOAD_SCHEDULED_TASK: Load scheduler "fdop" with entities [LocalPlayer, LocalPlayer], work=[200*, 0*]
     0x0282 [0x55] WAIT_LOAD_SCHEDULER: Wait for scheduler "fdop" with entities [LocalPlayer, LocalPlayer], work=200*
     0x0291 [0x1B] RETURN
     0x0292 [0x02] IF !(ExtData[1]->WorkLocal[17] == 1*) GOTO 0x029D
     0x029A [0x01] GOTO 0x0517
     0x029D [0x2B] Runje Desaali (ID: 17830143/0x011010FF) [10785*]:
     "Grrreat!"
     0x02A4 [0x23] WAIT_FOR_DIALOG_INTERACTION
     0x02A5 [0x02] IF !(ExtData[1]->WorkLocal[7] == 1*) GOTO 0x02C5
     0x02AD [0x02] IF !(ExtData[1]->WorkLocal[9] == 5*) GOTO 0x02C2
     0x02B5 [0x03] Work_Zone[3] = 8798*
     0x02BA [0x03] Work_Zone[4] = ExtData[1]->WorkLocal[14]
     0x02BF [0x01] GOTO 0x02C2
     0x02C2 [0x01] GOTO 0x04AD
     0x02C5 [0x02] IF !(ExtData[1]->WorkLocal[7] == 2*) GOTO 0x0399
     0x02CD [0x02] IF !(ExtData[1]->WorkLocal[9] == 1*) GOTO 0x0302
     0x02D5 [0x02] IF !(ExtData[1]->WorkLocal[8] == 1*) GOTO 0x02EA
     0x02DD [0x03] Work_Zone[3] = 3980*
     0x02E2 [0x03] Work_Zone[4] = 1*
     0x02E7 [0x01] GOTO 0x02FF
     0x02EA [0x02] IF !(ExtData[1]->WorkLocal[8] == 2*) GOTO 0x02FF
     0x02F2 [0x03] Work_Zone[3] = 3981*
     0x02F7 [0x03] Work_Zone[4] = 1*
     0x02FC [0x01] GOTO 0x02FF
     0x02FF [0x01] GOTO 0x0396
     0x0302 [0x02] IF !(ExtData[1]->WorkLocal[9] == 2*) GOTO 0x0337
     0x030A [0x02] IF !(ExtData[1]->WorkLocal[8] == 1*) GOTO 0x031F
     0x0312 [0x03] Work_Zone[3] = 3979*
     0x0317 [0x03] Work_Zone[4] = 1*
     0x031C [0x01] GOTO 0x0334
     0x031F [0x02] IF !(ExtData[1]->WorkLocal[8] == 2*) GOTO 0x0334
     0x0327 [0x03] Work_Zone[3] = 3978*
     0x032C [0x03] Work_Zone[4] = 1*
     0x0331 [0x01] GOTO 0x0334
     0x0334 [0x01] GOTO 0x0396
     0x0337 [0x02] IF !(ExtData[1]->WorkLocal[9] == 3*) GOTO 0x036C
     0x033F [0x02] IF !(ExtData[1]->WorkLocal[8] == 1*) GOTO 0x0354
     0x0347 [0x03] Work_Zone[3] = 6068*
     0x034C [0x03] Work_Zone[4] = 1*
     0x0351 [0x01] GOTO 0x0369
     0x0354 [0x02] IF !(ExtData[1]->WorkLocal[8] == 2*) GOTO 0x0369
     0x035C [0x03] Work_Zone[3] = 3977*
     0x0361 [0x03] Work_Zone[4] = 1*
     0x0366 [0x01] GOTO 0x0369
     0x0369 [0x01] GOTO 0x0396
     0x036C [0x02] IF !(ExtData[1]->WorkLocal[9] == 4*) GOTO 0x0381
     0x0374 [0x03] Work_Zone[3] = 3954*
     0x0379 [0x03] Work_Zone[4] = ExtData[1]->WorkLocal[14]
     0x037E [0x01] GOTO 0x0396
     0x0381 [0x02] IF !(ExtData[1]->WorkLocal[9] == 5*) GOTO 0x0396
     0x0389 [0x03] Work_Zone[3] = 8798*
     0x038E [0x03] Work_Zone[4] = ExtData[1]->WorkLocal[14]
     0x0393 [0x01] GOTO 0x0396
     0x0396 [0x01] GOTO 0x04AD
     0x0399 [0x02] IF !(ExtData[1]->WorkLocal[7] == 3*) GOTO 0x046D
     0x03A1 [0x02] IF !(ExtData[1]->WorkLocal[9] == 1*) GOTO 0x03D6
     0x03A9 [0x02] IF !(ExtData[1]->WorkLocal[8] == 1*) GOTO 0x03BE
     0x03B1 [0x03] Work_Zone[3] = 4014*
     0x03B6 [0x03] Work_Zone[4] = 1*
     0x03BB [0x01] GOTO 0x03D3
     0x03BE [0x02] IF !(ExtData[1]->WorkLocal[8] == 2*) GOTO 0x03D3
     0x03C6 [0x03] Work_Zone[3] = 4015*
     0x03CB [0x03] Work_Zone[4] = 1*
     0x03D0 [0x01] GOTO 0x03D3
     0x03D3 [0x01] GOTO 0x046A
     0x03D6 [0x02] IF !(ExtData[1]->WorkLocal[9] == 2*) GOTO 0x040B
     0x03DE [0x02] IF !(ExtData[1]->WorkLocal[8] == 1*) GOTO 0x03F3
     0x03E6 [0x03] Work_Zone[3] = 4013*
     0x03EB [0x03] Work_Zone[4] = 1*
     0x03F0 [0x01] GOTO 0x0408
     0x03F3 [0x02] IF !(ExtData[1]->WorkLocal[8] == 2*) GOTO 0x0408
     0x03FB [0x03] Work_Zone[3] = 4012*
     0x0400 [0x03] Work_Zone[4] = 1*
     0x0405 [0x01] GOTO 0x0408
     0x0408 [0x01] GOTO 0x046A
     0x040B [0x02] IF !(ExtData[1]->WorkLocal[9] == 3*) GOTO 0x0440
     0x0413 [0x02] IF !(ExtData[1]->WorkLocal[8] == 1*) GOTO 0x0428
     0x041B [0x03] Work_Zone[3] = 8754*
     0x0420 [0x03] Work_Zone[4] = 1*
     0x0425 [0x01] GOTO 0x043D
     0x0428 [0x02] IF !(ExtData[1]->WorkLocal[8] == 2*) GOTO 0x043D
     0x0430 [0x03] Work_Zone[3] = 8752*
     0x0435 [0x03] Work_Zone[4] = 1*
     0x043A [0x01] GOTO 0x043D
     0x043D [0x01] GOTO 0x046A
     0x0440 [0x02] IF !(ExtData[1]->WorkLocal[9] == 4*) GOTO 0x0455
     0x0448 [0x03] Work_Zone[3] = 4033*
     0x044D [0x03] Work_Zone[4] = ExtData[1]->WorkLocal[14]
     0x0452 [0x01] GOTO 0x046A
     0x0455 [0x02] IF !(ExtData[1]->WorkLocal[9] == 5*) GOTO 0x046A
     0x045D [0x03] Work_Zone[3] = 8798*
     0x0462 [0x03] Work_Zone[4] = ExtData[1]->WorkLocal[14]
     0x0467 [0x01] GOTO 0x046A
     0x046A [0x01] GOTO 0x04AD
     0x046D [0x02] IF !(ExtData[1]->WorkLocal[7] == 4*) GOTO 0x04AD
     0x0475 [0x02] IF !(ExtData[1]->WorkLocal[9] == 1*) GOTO 0x048A
     0x047D [0x03] Work_Zone[3] = 8797*
     0x0482 [0x03] Work_Zone[4] = 1*
     0x0487 [0x01] GOTO 0x04AA
     0x048A [0x02] IF !(ExtData[1]->WorkLocal[9] == 4*) GOTO 0x049A
     0x0492 [0x03] Work_Zone[3] = 3951*
     0x0497 [0x01] GOTO 0x04AA
     0x049A [0x02] IF !(ExtData[1]->WorkLocal[9] == 5*) GOTO 0x04AA
     0x04A2 [0x03] Work_Zone[3] = 8798*
     0x04A7 [0x01] GOTO 0x04AA
     0x04AA [0x01] GOTO 0x04AD
     0x04AD [0x02] IF !(ExtData[1]->WorkLocal[15] == 0*) GOTO 0x0507
     0x04B5 [0x66] LOAD_EXT_SCHEDULER_MAIN: Load scheduler "pas0" with entities [Runje Desaali (ID: 17830143/0x011010FF), Runje Desaali (ID: 17830143/0x011010FF)], work=50*
     0x04C4 [0x2B] Runje Desaali (ID: 17830143/0x011010FF) [10786*]:
     "I's after rrriches like the next Mithra, but I ain't no booster, see? Here's the extra ya gave me."
     0x04CB [0x23] WAIT_FOR_DIALOG_INTERACTION
     0x04CC [0x03] Work_Zone[2] = Work_Zone[3]
     0x04D1 [0x02] IF !(ExtData[1]->WorkLocal[9] == 4*) GOTO 0x04E1
     0x04D9 [0x03] Work_Zone[3] = ExtData[1]->WorkLocal[15]
     0x04DE [0x01] GOTO 0x04F6
     0x04E1 [0x02] IF !(ExtData[1]->WorkLocal[9] == 5*) GOTO 0x04F1
     0x04E9 [0x03] Work_Zone[3] = ExtData[1]->WorkLocal[15]
     0x04EE [0x01] GOTO 0x04F6
     0x04F1 [0x03] Work_Zone[3] = 1*
     0x04F6 [0x48] [System] [6404*]:
     "The $1 $0 are returned to you."
     0x04F9 [0x23] WAIT_FOR_DIALOG_INTERACTION
     0x04FA [0x53] WAIT_SCHEDULER_TASK: Wait for scheduler "pas0" with entities [Runje Desaali (ID: 17830143/0x011010FF), Runje Desaali (ID: 17830143/0x011010FF)]
     0x0507 [0x02] IF !(ExtData[1]->WorkLocal[16] == 1*) GOTO 0x0515
     0x050F [0x01] GOTO 0x0517
     0x0512 [0x01] GOTO 0x0517
     0x0515 [0x21] END_EVENT
     0x0516 [0x00] END_REQSTACK()
     0x0517 [0x5D] SET_MUSIC_VOLUME(volume=0*, fade_time=1400*)
     0x051C [0x1C] WAIT(30* ticks)
     0x051F [0xAD] DUAL_ENTITY_SCHEDULER_HANDLER: Execute sub-case 2 with entities [Geosuke (ID: 17830144/0x01101100), Geosuke (ID: 17830144/0x01101100)], work=316*
     0x052B [0x1C] WAIT(10* ticks)
     0x052E [0x5B] LOAD_EXT_SCHEDULER: Load scheduler "mgk0" with entities [Geosuke (ID: 17830144/0x01101100), Geosuke (ID: 17830144/0x01101100)], work=3255*
     0x053D [0x1C] WAIT(15* ticks)
     0x0540 [0x4A] Runje Desaali (ID: 17830143/0x011010FF) looks at Geosuke (ID: 17830144/0x01101100)
     0x0549 [0x6F] WAIT_FRAME_DELAY: Yield until WaitTime reaches zero
     0x054A [0x76] CHECK_ENTITY_RENDER_FLAGS: Wait until Runje Desaali (ID: 17830143/0x011010FF) Render.Flags0 and Render.Flags3 conditions are met
     0x054F [0x1C] WAIT(15* ticks)
     0x0552 [0x2B] Runje Desaali (ID: 17830143/0x011010FF) [10787*]:
     "G-Geosuke? What're ya up ta over there?"
     0x0559 [0x1C] WAIT(10* ticks)
     0x055C [0xC4] SCHEDULE_MAGIC_CASTING_ALT (arg=18): Geosuke (ID: 17830144/0x01101100) casts magic 2166* on Geosuke (ID: 17830144/0x01101100)
     0x0568 [0x1C] WAIT(194* ticks)
     0x056B [0x23] WAIT_FOR_DIALOG_INTERACTION
     0x056C [0x1A] CALL_SUBROUTINE(address=0x00A6)
     0x056F [0x5D] SET_MUSIC_VOLUME(volume=127*, fade_time=300*)
     0x0574 [0x1C] WAIT(40* ticks)
     0x0577 [0x6B] STOP_AND_IDLE: Geosuke (ID: 17830144/0x01101100) stops current action and resets to idle (animation="idl0")
     0x0580 [0x1C] WAIT(40* ticks)
     0x0583 [0x1A] CALL_SUBROUTINE(address=0x0085)
     0x0586 [0x4A] Geosuke (ID: 17830144/0x01101100) looks at Runje Desaali (ID: 17830143/0x011010FF)
     0x058F [0x6F] WAIT_FRAME_DELAY: Yield until WaitTime reaches zero
     0x0590 [0x76] CHECK_ENTITY_RENDER_FLAGS: Wait until Geosuke (ID: 17830144/0x01101100) Render.Flags0 and Render.Flags3 conditions are met
     0x0595 [0x02] IF !(ExtData[1]->WorkLocal[7] == 1*) GOTO 0x0755
     0x059D [0x02] IF !(ExtData[1]->WorkLocal[8] == 1*) GOTO 0x0656
     0x05A5 [0x66] LOAD_EXT_SCHEDULER_MAIN: Load scheduler "ure0" with entities [Runje Desaali (ID: 17830143/0x011010FF), Runje Desaali (ID: 17830143/0x011010FF)], work=8*
     0x05B4 [0x2B] Runje Desaali (ID: 17830143/0x011010FF) [10840*]:
     "If I says I can get the worrrk done, then I does it!"
     0x05BB [0x23] WAIT_FOR_DIALOG_INTERACTION
     0x05BC [0x53] WAIT_SCHEDULER_TASK: Wait for scheduler "ure0" with entities [Runje Desaali (ID: 17830143/0x011010FF), Runje Desaali (ID: 17830143/0x011010FF)]
     0x05C9 [0x4A] Runje Desaali (ID: 17830143/0x011010FF) looks at LocalPlayer
     0x05D2 [0x6F] WAIT_FRAME_DELAY: Yield until WaitTime reaches zero
     0x05D3 [0x76] CHECK_ENTITY_RENDER_FLAGS: Wait until Runje Desaali (ID: 17830143/0x011010FF) Render.Flags0 and Render.Flags3 conditions are met
     0x05D8 [0x66] LOAD_EXT_SCHEDULER_MAIN: Load scheduler "pas0" with entities [Runje Desaali (ID: 17830143/0x011010FF), Runje Desaali (ID: 17830143/0x011010FF)], work=121*
     0x05E7 [0x2B] Runje Desaali (ID: 17830143/0x011010FF) [10796*]:
     "Now, scrrram!"
     0x05EE [0x23] WAIT_FOR_DIALOG_INTERACTION
     0x05EF [0x4A] Geosuke (ID: 17830144/0x01101100) looks at LocalPlayer
     0x05F8 [0x6F] WAIT_FRAME_DELAY: Yield until WaitTime reaches zero
     0x05F9 [0x76] CHECK_ENTITY_RENDER_FLAGS: Wait until Geosuke (ID: 17830144/0x01101100) Render.Flags0 and Render.Flags3 conditions are met
     0x05FE [0x53] WAIT_SCHEDULER_TASK: Wait for scheduler "pas0" with entities [Runje Desaali (ID: 17830143/0x011010FF), Runje Desaali (ID: 17830143/0x011010FF)]
     0x060B [0x66] LOAD_EXT_SCHEDULER_MAIN: Load scheduler "thk1" with entities [Runje Desaali (ID: 17830143/0x011010FF), Runje Desaali (ID: 17830143/0x011010FF)], work=50*
     0x061A [0x2B] Runje Desaali (ID: 17830143/0x011010FF) [10841*]:
     "But I ain't no fence, see? So don' even think of askin' me how ta use it."
     0x0621 [0x23] WAIT_FOR_DIALOG_INTERACTION
     0x0622 [0x53] WAIT_SCHEDULER_TASK: Wait for scheduler "thk1" with entities [Runje Desaali (ID: 17830143/0x011010FF), Runje Desaali (ID: 17830143/0x011010FF)]
     0x062F [0x66] LOAD_EXT_SCHEDULER_MAIN: Load scheduler "thk2" with entities [Runje Desaali (ID: 17830143/0x011010FF), Runje Desaali (ID: 17830143/0x011010FF)], work=50*
     0x063E [0x2B] Runje Desaali (ID: 17830143/0x011010FF) [10842*]:
     "Ya know who ya gotta ask? The dons over at the Order of Renaye. Ya got a beef with geomancy, ya go to them."
     0x0645 [0x23] WAIT_FOR_DIALOG_INTERACTION
     0x0646 [0x53] WAIT_SCHEDULER_TASK: Wait for scheduler "thk2" with entities [Runje Desaali (ID: 17830143/0x011010FF), Runje Desaali (ID: 17830143/0x011010FF)]
     0x0653 [0x01] GOTO 0x0752
     0x0656 [0x02] IF !(ExtData[1]->WorkLocal[8] == 2*) GOTO 0x0752
     0x065E [0x66] LOAD_EXT_SCHEDULER_MAIN: Load scheduler "ure0" with entities [Runje Desaali (ID: 17830143/0x011010FF), Runje Desaali (ID: 17830143/0x011010FF)], work=8*
     0x066D [0x2B] Runje Desaali (ID: 17830143/0x011010FF) [10875*]:
     "Holy moly, what a brrrilliant success!"
     0x0674 [0x23] WAIT_FOR_DIALOG_INTERACTION
     0x0675 [0x53] WAIT_SCHEDULER_TASK: Wait for scheduler "ure0" with entities [Runje Desaali (ID: 17830143/0x011010FF), Runje Desaali (ID: 17830143/0x011010FF)]
     0x0682 [0x2B] Runje Desaali (ID: 17830143/0x011010FF) [10793*]:
     "Now, if we just tinker with this here crystal..."
     0x0689 [0x23] WAIT_FOR_DIALOG_INTERACTION
     0x068A [0x1C] WAIT(30* ticks)
     0x068D [0x9F] LOAD_SCHEDULED_TASK_ALT: Load scheduler "frst" with entities [Runje Desaali (ID: 17830143/0x011010FF), Runje Desaali (ID: 17830143/0x011010FF)], work=[194*, 0*]
     0x069E [0x1C] WAIT(150* ticks)
     0x06A1 [0x9F] LOAD_SCHEDULED_TASK_ALT: Load scheduler "okex" with entities [Runje Desaali (ID: 17830143/0x011010FF), Runje Desaali (ID: 17830143/0x011010FF)], work=[194*, 0*]
     0x06B2 [0x1C] WAIT(240* ticks)
     0x06B5 [0x2B] Runje Desaali (ID: 17830143/0x011010FF) [10794*]:
     "Poifect."
     0x06BC [0x23] WAIT_FOR_DIALOG_INTERACTION
     0x06BD [0x4A] Runje Desaali (ID: 17830143/0x011010FF) looks at LocalPlayer
     0x06C6 [0x6F] WAIT_FRAME_DELAY: Yield until WaitTime reaches zero
     0x06C7 [0x76] CHECK_ENTITY_RENDER_FLAGS: Wait until Runje Desaali (ID: 17830143/0x011010FF) Render.Flags0 and Render.Flags3 conditions are met
     0x06CC [0x66] LOAD_EXT_SCHEDULER_MAIN: Load scheduler "pas0" with entities [Runje Desaali (ID: 17830143/0x011010FF), Runje Desaali (ID: 17830143/0x011010FF)], work=121*
     0x06DB [0x2B] Runje Desaali (ID: 17830143/0x011010FF) [10796*]:
     "Now, scrrram!"
     0x06E2 [0x23] WAIT_FOR_DIALOG_INTERACTION
     0x06E3 [0x4A] Geosuke (ID: 17830144/0x01101100) looks at LocalPlayer
     0x06EC [0x6F] WAIT_FRAME_DELAY: Yield until WaitTime reaches zero
     0x06ED [0x76] CHECK_ENTITY_RENDER_FLAGS: Wait until Geosuke (ID: 17830144/0x01101100) Render.Flags0 and Render.Flags3 conditions are met
     0x06F2 [0x53] WAIT_SCHEDULER_TASK: Wait for scheduler "pas0" with entities [Runje Desaali (ID: 17830143/0x011010FF), Runje Desaali (ID: 17830143/0x011010FF)]
     0x06FF [0x66] LOAD_EXT_SCHEDULER_MAIN: Load scheduler "thk1" with entities [Runje Desaali (ID: 17830143/0x011010FF), Runje Desaali (ID: 17830143/0x011010FF)], work=50*
     0x070E [0x2B] Runje Desaali (ID: 17830143/0x011010FF) [10876*]:
     "This might be the foist time in all my nine lives I's ever laid my peepers on a catalyst with such prrristine magic."
     0x0715 [0x23] WAIT_FOR_DIALOG_INTERACTION
     0x0716 [0x2B] Runje Desaali (ID: 17830143/0x011010FF) [10877*]:
     "Although... After mullin' it over, I'd say it's closer to rrrunic energy than normal, old magic."
     0x071D [0x23] WAIT_FOR_DIALOG_INTERACTION
     0x071E [0x53] WAIT_SCHEDULER_TASK: Wait for scheduler "thk1" with entities [Runje Desaali (ID: 17830143/0x011010FF), Runje Desaali (ID: 17830143/0x011010FF)]
     0x072B [0x66] LOAD_EXT_SCHEDULER_MAIN: Load scheduler "thk2" with entities [Runje Desaali (ID: 17830143/0x011010FF), Runje Desaali (ID: 17830143/0x011010FF)], work=50*
     0x073A [0x2B] Runje Desaali (ID: 17830143/0x011010FF) [10878*]:
     "I can't quite make heads or tails outta this. Ya might hafta ask someone who comprrrehends runes a bit better'n me."
     0x0741 [0x23] WAIT_FOR_DIALOG_INTERACTION
     0x0742 [0x53] WAIT_SCHEDULER_TASK: Wait for scheduler "thk2" with entities [Runje Desaali (ID: 17830143/0x011010FF), Runje Desaali (ID: 17830143/0x011010FF)]
     0x074F [0x01] GOTO 0x0752
     0x0752 [0x01] GOTO 0x0863
     0x0755 [0x66] LOAD_EXT_SCHEDULER_MAIN: Load scheduler "aww0" with entities [Runje Desaali (ID: 17830143/0x011010FF), Runje Desaali (ID: 17830143/0x011010FF)], work=8*
     0x0764 [0x2B] Runje Desaali (ID: 17830143/0x011010FF) [10788*]:
     "Ya dirty rat! I's scared half to death!"
     0x076B [0x23] WAIT_FOR_DIALOG_INTERACTION
     0x076C [0x53] WAIT_SCHEDULER_TASK: Wait for scheduler "aww0" with entities [Runje Desaali (ID: 17830143/0x011010FF), Runje Desaali (ID: 17830143/0x011010FF)]
     0x0779 [0x2B] Runje Desaali (ID: 17830143/0x011010FF) [10789*]:
     "C'mon, show mama what ya got there."
     0x0780 [0x23] WAIT_FOR_DIALOG_INTERACTION
     0x0781 [0x66] LOAD_EXT_SCHEDULER_MAIN: Load scheduler "ure0" with entities [Runje Desaali (ID: 17830143/0x011010FF), Runje Desaali (ID: 17830143/0x011010FF)], work=8*
     0x0790 [0x2B] Runje Desaali (ID: 17830143/0x011010FF) [10790*]:
     "Wh-whoa! Where'd ya ever learn to make..."
     0x0797 [0x23] WAIT_FOR_DIALOG_INTERACTION
     0x0798 [0x53] WAIT_SCHEDULER_TASK: Wait for scheduler "ure0" with entities [Runje Desaali (ID: 17830143/0x011010FF), Runje Desaali (ID: 17830143/0x011010FF)]
     0x07A5 [0x1C] WAIT(10* ticks)
     0x07A8 [0x4A] Runje Desaali (ID: 17830143/0x011010FF) looks at LocalPlayer
     0x07B1 [0x6F] WAIT_FRAME_DELAY: Yield until WaitTime reaches zero
     0x07B2 [0x76] CHECK_ENTITY_RENDER_FLAGS: Wait until Runje Desaali (ID: 17830143/0x011010FF) Render.Flags0 and Render.Flags3 conditions are met
     0x07B7 [0x1C] WAIT(30* ticks)
     0x07BA [0x66] LOAD_EXT_SCHEDULER_MAIN: Load scheduler "wav0" with entities [Runje Desaali (ID: 17830143/0x011010FF), Runje Desaali (ID: 17830143/0x011010FF)], work=52*
     0x07C9 [0x2B] Runje Desaali (ID: 17830143/0x011010FF) [10791*]:
     "Ahem. No, I's not skeptical. A shark like him sure knows how to fix up some sugar!"
     0x07D0 [0x23] WAIT_FOR_DIALOG_INTERACTION
     0x07D1 [0x53] WAIT_SCHEDULER_TASK: Wait for scheduler "wav0" with entities [Runje Desaali (ID: 17830143/0x011010FF), Runje Desaali (ID: 17830143/0x011010FF)]
     0x07DE [0x02] IF !(ExtData[1]->WorkLocal[8] == 1*) GOTO 0x07F1
     0x07E6 [0x2B] Runje Desaali (ID: 17830143/0x011010FF) [10792*]:
     "Just dip that ol' wand of yours inta the right ergon locus, and it'll be done faster'n ol' Gratzigg can put the screws on the Mummers' Coalition."
     0x07ED [0x23] WAIT_FOR_DIALOG_INTERACTION
     0x07EE [0x01] GOTO 0x083F
     0x07F1 [0x02] IF !(ExtData[1]->WorkLocal[8] == 2*) GOTO 0x083F
     0x07F9 [0x2B] Runje Desaali (ID: 17830143/0x011010FF) [10793*]:
     "Now, if we just tinker with this here crystal..."
     0x0800 [0x23] WAIT_FOR_DIALOG_INTERACTION
     0x0801 [0x1C] WAIT(30* ticks)
     0x0804 [0x9F] LOAD_SCHEDULED_TASK_ALT: Load scheduler "frst" with entities [Runje Desaali (ID: 17830143/0x011010FF), Runje Desaali (ID: 17830143/0x011010FF)], work=[194*, 0*]
     0x0815 [0x1C] WAIT(150* ticks)
     0x0818 [0x9F] LOAD_SCHEDULED_TASK_ALT: Load scheduler "okex" with entities [Runje Desaali (ID: 17830143/0x011010FF), Runje Desaali (ID: 17830143/0x011010FF)], work=[194*, 0*]
     0x0829 [0x1C] WAIT(240* ticks)
     0x082C [0x2B] Runje Desaali (ID: 17830143/0x011010FF) [10794*]:
     "Poifect."
     0x0833 [0x23] WAIT_FOR_DIALOG_INTERACTION
     0x0834 [0x2B] Runje Desaali (ID: 17830143/0x011010FF) [10795*]:
     "Just find a place filled with runic enerrrgies and it'll be done before I can think up my next racket!"
     0x083B [0x23] WAIT_FOR_DIALOG_INTERACTION
     0x083C [0x01] GOTO 0x083F
     0x083F [0x66] LOAD_EXT_SCHEDULER_MAIN: Load scheduler "pas0" with entities [Runje Desaali (ID: 17830143/0x011010FF), Runje Desaali (ID: 17830143/0x011010FF)], work=50*
     0x084E [0x2B] Runje Desaali (ID: 17830143/0x011010FF) [10796*]:
     "Now, scrrram!"
     0x0855 [0x23] WAIT_FOR_DIALOG_INTERACTION
     0x0856 [0x53] WAIT_SCHEDULER_TASK: Wait for scheduler "pas0" with entities [Runje Desaali (ID: 17830143/0x011010FF), Runje Desaali (ID: 17830143/0x011010FF)]
     0x0863 [0x3C] SET_BIT_FLAG_CONDITIONAL(target_work_offset=Work_Zone[1], bit_index_work_offset=4*, condition_work_offset=1*)
     0x086A [0x1B] RETURN
```

### Event 5065

#### Metadata

| Field        | Value      |
|--------------|------------|
| Entrypoint   | 0x086B     |
| Data Size    | 5640 bytes |
| Instructions | 1076       |

```
      00 01 02 03 04 05 06 07  08 09 0A 0B 0C 0D 0E 0F
      -- -- -- -- -- -- -- --  -- -- -- -- -- -- -- --
0860:                                   03 05 00 02 10             .....
0870: 03 06 00 03 10 03 07 00  04 10 03 08 00 05 10 03  ................
0880: 09 00 06 10 03 0A 00 07  10 03 0B 00 08 10 03 12  ................
0890: 00 09 10 06 00 00 1E F0  FF FF 7F 6F 70 4A F0 FF  ...........opJ..
08A0: FF 7F FF 10 10 01 6F 76  F0 FF FF 7F 03 01 00 40  ......ov.......@
08B0: 80 3E 12 00 41 80 BB 08  01 C0 08 0E 01 00 42 80  .>..A.........B.
08C0: 3E 12 00 43 80 DC 08 3E  12 00 44 80 D5 08 1D 45  >..C...>..D....E
08D0: 80 23 01 D9 08 1D 46 80  23 01 E0 08 1D 45 80 23  .#....F.#....E.#
08E0: 06 01 10 06 02 00 06 09  10 02 05 00 05 80 04 F8  ................
08F0: 08 3D 01 00 2B 80 03 80  02 05 00 0F 80 04 07 09  .=..+...........
0900: 3D 01 00 03 80 03 80 3E  08 00 03 80 1F 09 3D 01  =......>......=.
0910: 00 05 80 03 80 3D 01 00  0F 80 03 80 06 03 10 3E  .....=.........>
0920: 08 00 05 80 39 09 3D 01  00 05 80 03 80 3D 01 00  ....9.=......=..
0930: 0F 80 03 80 03 03 10 03  80 3E 08 00 0F 80 6C 09  .........>....l.
0940: 3E 08 00 03 80 4A 09 01  6C 09 3E 08 00 05 80 54  >....J..l.>....T
0950: 09 01 6C 09 41 05 80 12  80 07 00 00 00 02 00 00  ..l.A...........
0960: 01 80 01 6C 09 3D 01 00  12 80 03 80 3E 08 00 12  ...l.=......>...
0970: 80 9F 09 3E 08 00 03 80  7D 09 01 9F 09 3E 08 00  ...>....}....>..
0980: 05 80 87 09 01 9F 09 41  47 80 48 80 07 00 00 00  .......AG.H.....
0990: 02 00 00 01 80 01 9F 09  3D 01 00 09 80 03 80 3E  ........=......>
09A0: 12 00 01 80 AD 09 3D 01  00 47 80 03 80 41 03 80  ......=..G...A..
09B0: 12 80 12 00 00 00 02 00  00 01 80 01 C5 09 3D 01  ..............=.
09C0: 00 22 80 03 80 03 08 10  49 80 3E 12 00 4A 80 DB  ."......I.>..J..
09D0: 09 3D 01 00 22 80 03 80  01 FA 09 3E 12 00 4B 80  .=.."......>..K.
09E0: EC 09 3D 01 00 22 80 03  80 01 FA 09 3E 12 00 4C  ..=.."......>..L
09F0: 80 FA 09 3D 01 00 22 80  03 80 03 02 10 0A 80 24  ...=.."........$
0A00: 4D 80 02 00 01 00 25 02  00 10 01 80 00 16 0A 1D  M.....%.........
0A10: 4E 80 23 01 51 1E 02 00  10 03 80 00 97 0B 29 08  N.#.Q.........).
0A20: FF 10 10 01 2D 03 03 10  4F 80 1D 50 80 23 02 06  ....-...O..P.#..
0A30: 00 4F 80 03 49 0A 29 08  FF 10 10 01 2F 48 51 80  .O..I.)...../HQ.
0A40: 1C 52 80 1D 53 80 23 21  00 03 02 10 0A 80 03 03  .R..S.#!........
0A50: 10 06 00 15 03 10 4F 80  02 03 10 54 80 02 65 0A  ......O....T..e.
0A60: 03 03 10 54 80 03 04 10  06 00 48 55 80 23 71 10  ...T......HU.#q.
0A70: 03 80 71 11 0C 00 02 0C  00 54 80 02 83 0A 03 0C  ..q......T......
0A80: 00 54 80 02 0C 00 03 10  02 A5 0A 29 08 FF 10 10  .T.........)....
0A90: 01 2F 48 51 80 1C 52 80  1D 53 80 23 29 08 FF 10  ./HQ..R..S.#)...
0AA0: 10 01 30 21 00 02 0C 00  01 80 00 C1 0A 29 08 FF  ..0!.........)..
0AB0: 10 10 01 2F 1D 56 80 23  29 08 FF 10 10 01 30 21  .../.V.#).....0!
0AC0: 00 03 05 10 0C 00 03 06  10 0C 00 14 06 10 4F 80  ..............O.
0AD0: 24 57 80 01 80 01 80 25  02 00 10 01 80 00 77 0B  $W.....%......w.
0AE0: 42 40 0F 80 24 80 01 10  0C 00 43 00 43 01 03 0C  B@..$.....C.C...
0AF0: 00 09 10 03 0D 00 08 10  02 07 10 03 80 00 1A 0B  ................
0B00: 29 08 FF 10 10 01 2F 03  02 10 0A 80 48 58 80 23  )...../.....HX.#
0B10: 29 08 FF 10 10 01 30 01  71 0B 02 0C 00 03 80 04  ).....0.q.......
0B20: 71 0B 29 08 FF 10 10 01  2F 29 08 FF 10 10 01 35  q.)...../).....5
0B30: 03 02 10 0A 80 03 05 10  0C 00 1D 59 80 23 03 03  ...........Y.#..
0B40: 10 0C 00 48 5A 80 23 29  08 FF 10 10 01 36 02 0D  ...HZ.#).....6..
0B50: 00 03 80 04 71 0B 29 08  FF 10 10 01 1B 1D 5B 80  ....q.).......[.
0B60: 23 03 07 10 0D 00 48 5C  80 23 29 08 FF 10 10 01  #.....H\.#).....
0B70: 1C 06 01 10 01 94 0B 02  00 10 03 80 00 94 0B 29  ...............)
0B80: 08 FF 10 10 01 2F 1D 56  80 23 29 08 FF 10 10 01  ...../.V.#).....
0B90: 30 01 94 0B 01 51 1E 02  00 10 05 80 00 F8 10 03  0....Q..........
0BA0: 02 00 05 80 29 08 FF 10  10 01 17 3E 08 00 03 80  ....)......>....
0BB0: B5 0B 06 02 10 3E 08 00  05 80 C1 0B 03 02 10 03  .....>..........
0BC0: 80 1D 5D 80 23 3E 08 00  03 80 A1 0E 3E 07 00 03  ..].#>......>...
0BD0: 80 01 0C 03 02 10 0A 80  03 03 10 0B 00 03 04 10  ................
0BE0: 5E 80 03 06 10 5E 80 08  06 10 0B 00 48 5F 80 23  ^....^......H_.#
0BF0: 29 08 FF 10 10 01 18 29  08 FF 10 10 01 19 01 0B  )......)........
0C00: 0E 3E 07 00 05 80 C2 0C  03 02 10 0B 80 3E 09 00  .>...........>..
0C10: 03 80 1C 0C 03 03 10 03  80 01 1F 0C 06 03 10 48  ...............H
0C20: 60 80 23 03 02 10 0D 80  3E 09 00 05 80 37 0C 03  `.#.....>....7..
0C30: 03 10 03 80 01 3A 0C 06  03 10 48 60 80 23 03 02  .....:....H`.#..
0C40: 10 10 80 3E 09 00 0F 80  52 0C 03 03 10 03 80 01  ...>....R.......
0C50: 55 0C 06 03 10 48 60 80  23 03 02 10 13 80 03 03  U....H`.#.......
0C60: 10 0A 00 03 04 10 00 80  02 0A 00 00 80 00 77 0C  ..............w.
0C70: 48 61 80 23 01 85 0C 03  06 10 00 80 08 06 10 0A  Ha.#............
0C80: 00 48 5F 80 23 29 08 FF  10 10 01 18 29 08 FF 10  .H_.#)......)...
0C90: 10 01 19 03 02 10 0A 80  03 03 10 0B 00 03 04 10  ................
0CA0: 62 80 02 0B 00 62 80 00  B1 0C 48 61 80 23 01 BF  b....b....Ha.#..
0CB0: 0C 03 06 10 62 80 08 06  10 0B 00 48 5F 80 23 01  ....b......H_.#.
0CC0: 0B 0E 3E 07 00 0F 80 83  0D 03 02 10 14 80 3E 09  ..>...........>.
0CD0: 00 03 80 DD 0C 03 03 10  03 80 01 E0 0C 06 03 10  ................
0CE0: 48 60 80 23 03 02 10 16  80 3E 09 00 05 80 F8 0C  H`.#.....>......
0CF0: 03 03 10 03 80 01 FB 0C  06 03 10 48 60 80 23 03  ...........H`.#.
0D00: 02 10 18 80 3E 09 00 0F  80 13 0D 03 03 10 03 80  ....>...........
0D10: 01 16 0D 06 03 10 48 60  80 23 03 02 10 1A 80 03  ......H`.#......
0D20: 03 10 0A 00 03 04 10 00  80 02 0A 00 00 80 00 38  ...............8
0D30: 0D 48 61 80 23 01 46 0D  03 06 10 00 80 08 06 10  .Ha.#.F.........
0D40: 0A 00 48 5F 80 23 29 08  FF 10 10 01 18 29 08 FF  ..H_.#)......)..
0D50: 10 10 01 19 03 02 10 0A  80 03 03 10 0B 00 03 04  ................
0D60: 10 63 80 02 0B 00 63 80  00 72 0D 48 61 80 23 01  .c....c..r.Ha.#.
0D70: 80 0D 03 06 10 63 80 08  06 10 0B 00 48 5F 80 23  .....c......H_.#
0D80: 01 0B 0E 3E 07 00 12 80  0B 0E 03 02 10 1B 80 3E  ...>...........>
0D90: 09 00 03 80 9E 0D 03 03  10 03 80 01 A1 0D 06 03  ................
0DA0: 10 48 60 80 23 03 02 10  1C 80 03 03 10 0A 00 03  .H`.#...........
0DB0: 04 10 00 80 02 0A 00 00  80 00 C3 0D 48 61 80 23  ............Ha.#
0DC0: 01 D1 0D 03 06 10 00 80  08 06 10 0A 00 48 5F 80  .............H_.
0DD0: 23 29 08 FF 10 10 01 18  29 08 FF 10 10 01 19 03  #)......).......
0DE0: 02 10 0A 80 03 03 10 0B  00 03 04 10 64 80 02 0B  ............d...
0DF0: 00 64 80 00 FD 0D 48 61  80 23 01 0B 0E 03 06 10  .d....Ha.#......
0E00: 64 80 08 06 10 0B 00 48  5F 80 23 29 08 FF 10 10  d......H_.#)....
0E10: 01 1A 4A FF 10 10 01 00  11 10 01 6F 76 FF 10 10  ..J........ov...
0E20: 01 1C 06 80 4A 00 11 10  01 FF 10 10 01 6F 76 00  ....J........ov.
0E30: 11 10 01 29 08 FF 10 10  01 27 5B 65 80 00 11 10  ...).....'[e....
0E40: 01 00 11 10 01 74 6C 6B  30 1D 66 80 23 29 08 FF  .....tlk0.f.#)..
0E50: 10 10 01 28 4A FF 10 10  01 F0 FF FF 7F 6F 76 FF  ...(J........ov.
0E60: 10 10 01 53 00 11 10 01  00 11 10 01 74 6C 6B 30  ...S........tlk0
0E70: 5B 65 80 00 11 10 01 00  11 10 01 74 6C 6B 31 53  [e.........tlk1S
0E80: 00 11 10 01 00 11 10 01  74 6C 6B 31 1C 4B 80 4A  ........tlk1.K.J
0E90: 00 11 10 01 F0 FF FF 7F  6F 76 00 11 10 01 01 F2  ........ov......
0EA0: 10 3E 08 00 05 80 F2 10  3E 07 00 2B 80 DD 0E 29  .>......>..+...)
0EB0: 08 FF 10 10 01 18 29 08  FF 10 10 01 19 03 02 10  ......).........
0EC0: 0A 80 03 03 10 0B 00 03  04 10 5E 80 03 06 10 5E  ..........^....^
0ED0: 80 08 06 10 0B 00 48 5F  80 23 01 E7 10 3E 07 00  ......H_.#...>..
0EE0: 47 80 9E 0F 03 02 10 0C  80 3E 09 00 03 80 F8 0E  G........>......
0EF0: 03 03 10 03 80 01 FB 0E  06 03 10 48 60 80 23 03  ...........H`.#.
0F00: 02 10 0E 80 3E 09 00 05  80 13 0F 03 03 10 03 80  ....>...........
0F10: 01 16 0F 06 03 10 48 60  80 23 03 02 10 11 80 3E  ......H`.#.....>
0F20: 09 00 0F 80 2E 0F 03 03  10 03 80 01 31 0F 06 03  ............1...
0F30: 10 48 60 80 23 03 02 10  13 80 03 03 10 0A 00 03  .H`.#...........
0F40: 04 10 00 80 02 0A 00 00  80 00 53 0F 48 61 80 23  ..........S.Ha.#
0F50: 01 61 0F 03 06 10 00 80  08 06 10 0A 00 48 5F 80  .a...........H_.
0F60: 23 29 08 FF 10 10 01 18  29 08 FF 10 10 01 19 03  #)......).......
0F70: 02 10 0A 80 03 03 10 0B  00 03 04 10 62 80 02 0B  ............b...
0F80: 00 62 80 00 8D 0F 48 61  80 23 01 9B 0F 03 06 10  .b....Ha.#......
0F90: 62 80 08 06 10 0B 00 48  5F 80 23 01 E7 10 3E 07  b......H_.#...>.
0FA0: 00 22 80 5F 10 03 02 10  15 80 3E 09 00 03 80 B9  ."._......>.....
0FB0: 0F 03 03 10 03 80 01 BC  0F 06 03 10 48 60 80 23  ............H`.#
0FC0: 03 02 10 17 80 3E 09 00  05 80 D4 0F 03 03 10 03  .....>..........
0FD0: 80 01 D7 0F 06 03 10 48  60 80 23 03 02 10 19 80  .......H`.#.....
0FE0: 3E 09 00 0F 80 EF 0F 03  03 10 03 80 01 F2 0F 06  >...............
0FF0: 03 10 48 60 80 23 03 02  10 1A 80 03 03 10 0A 00  ..H`.#..........
1000: 03 04 10 00 80 02 0A 00  00 80 00 14 10 48 61 80  .............Ha.
1010: 23 01 22 10 03 06 10 00  80 08 06 10 0A 00 48 5F  #."...........H_
1020: 80 23 29 08 FF 10 10 01  18 29 08 FF 10 10 01 19  .#)......)......
1030: 03 02 10 0A 80 03 03 10  0B 00 03 04 10 63 80 02  .............c..
1040: 0B 00 63 80 00 4E 10 48  61 80 23 01 5C 10 03 06  ..c..N.Ha.#.\...
1050: 10 63 80 08 06 10 0B 00  48 5F 80 23 01 E7 10 3E  .c......H_.#...>
1060: 07 00 48 80 E7 10 03 02  10 1B 80 3E 09 00 03 80  ..H........>....
1070: 7A 10 03 03 10 03 80 01  7D 10 06 03 10 48 60 80  z.......}....H`.
1080: 23 03 02 10 1C 80 03 03  10 0A 00 03 04 10 00 80  #...............
1090: 02 0A 00 00 80 00 9F 10  48 61 80 23 01 AD 10 03  ........Ha.#....
10A0: 06 10 00 80 08 06 10 0A  00 48 5F 80 23 29 08 FF  .........H_.#)..
10B0: 10 10 01 18 29 08 FF 10  10 01 19 03 02 10 0A 80  ....)...........
10C0: 03 03 10 0B 00 03 04 10  64 80 02 0B 00 64 80 00  ........d....d..
10D0: D9 10 48 61 80 23 01 E7  10 03 06 10 64 80 08 06  ..Ha.#......d...
10E0: 10 0B 00 48 5F 80 23 1D  67 80 23 29 08 FF 10 10  ...H_.#.g.#)....
10F0: 01 1A 01 E6 08 01 51 1E  02 00 10 0F 80 00 C6 11  ......Q.........
1100: 03 02 00 0F 80 29 08 FF  10 10 01 23 1D 68 80 23  .....).....#.h.#
1110: 24 69 80 01 80 01 80 25  02 00 10 01 80 00 AA 11  $i.....%........
1120: 29 08 FF 10 10 01 24 29  08 FF 10 10 01 1D 1D 6A  ).....$).......j
1130: 80 23 24 6B 80 03 80 01  80 25 02 00 10 01 80 00  .#$k.....%......
1140: 95 11 42 1D 6C 80 23 06  01 10 3E 08 00 03 80 6C  ..B.l.#...>....l
1150: 11 3E 07 00 03 80 60 11  03 01 10 22 80 01 69 11  .>....`...."..i.
1160: 03 01 10 6D 80 1D 6E 80  23 01 8B 11 3E 08 00 05  ...m..n.#...>...
1170: 80 8B 11 3E 07 00 2B 80  82 11 03 01 10 48 80 01  ...>..+......H..
1180: 8B 11 03 01 10 6D 80 1D  6E 80 23 29 08 FF 10 10  .....m..n.#)....
1190: 01 1E 01 A7 11 02 00 10  03 80 00 A7 11 1D 6F 80  ..............o.
11A0: 23 01 E6 08 01 A7 11 01  C3 11 02 00 10 03 80 00  #...............
11B0: C3 11 1D 6F 80 23 29 08  FF 10 10 01 24 01 E6 08  ...o.#).....$...
11C0: 01 C3 11 01 51 1E 02 00  10 12 80 00 0E 12 42 29  ....Q.........B)
11D0: 08 FF 10 10 01 1B 3E 07  00 12 80 E5 11 03 01 10  ......>.........
11E0: 70 80 01 00 12 3E 07 00  0F 80 F4 11 03 01 10 71  p....>.........q
11F0: 80 01 00 12 3E 07 00 05  80 00 12 03 01 10 72 80  ....>.........r.
1200: 1D 73 80 23 29 08 FF 10  10 01 1C 01 51 1E 02 00  .s.#).......Q...
1210: 10 09 80 00 56 12 42 29  08 FF 10 10 01 1B 3E 07  ....V.B)......>.
1220: 00 48 80 2D 12 03 01 10  74 80 01 48 12 3E 07 00  .H.-....t..H.>..
1230: 22 80 3C 12 03 01 10 75  80 01 48 12 3E 07 00 47  ".<....u..H.>..G
1240: 80 48 12 03 01 10 76 80  1D 73 80 23 29 08 FF 10  .H....v..s.#)...
1250: 10 01 1C 01 51 1E 02 00  10 77 80 00 5D 13 03 02  ....Q....w..]...
1260: 00 77 80 1D 78 80 23 29  08 FF 10 10 01 17 1D 79  .w..x.#).......y
1270: 80 23 1D 7A 80 23 03 02  10 09 80 1D 7B 80 23 1D  .#.z.#......{.#.
1280: 7C 80 23 29 08 FF 10 10  01 18 29 08 FF 10 10 01  |.#)......).....
1290: 19 1D 7D 80 23 29 08 F0  FF FF 7F 17 29 08 FF 10  ..}.#)......)...
12A0: 10 01 1A 1D 7E 80 23 29  08 FF 10 10 01 29 1D 7F  ....~.#).....)..
12B0: 80 23 1D 80 80 23 24 81  80 01 80 01 80 25 02 00  .#...#$......%..
12C0: 10 01 80 00 E9 12 29 08  FF 10 10 01 2B 1C 06 80  ......).....+...
12D0: 29 08 FF 10 10 01 31 1D  82 80 23 29 08 FF 10 10  ).....1...#)....
12E0: 01 17 1D 83 80 23 01 45  13 02 00 10 03 80 00 17  .....#.E........
12F0: 13 29 08 FF 10 10 01 2B  1C 06 80 29 08 FF 10 10  .).....+...)....
1300: 01 27 1D 84 80 23 29 08  FF 10 10 01 28 29 08 FF  .'...#).....()..
1310: 10 10 01 17 01 45 13 02  00 10 05 80 00 45 13 29  .....E.......E.)
1320: 08 FF 10 10 01 2B 1C 85  80 29 08 FF 10 10 01 1D  .....+...)......
1330: 1D 86 80 23 29 08 FF 10  10 01 1E 29 08 FF 10 10  ...#)......)....
1340: 01 17 01 45 13 1D 87 80  23 29 08 FF 10 10 01 18  ...E....#)......
1350: 29 08 FF 10 10 01 19 01  E6 08 01 51 1E 02 00 10  )..........Q....
1360: 88 80 00 86 14 02 05 00  05 80 04 70 13 01 71 13  ...........p..q.
1370: 42 1D 89 80 23 29 08 FF  10 10 01 17 1D 8A 80 23  B...#).........#
1380: 29 08 FF 10 10 01 18 1D  8B 80 23 29 08 FF 10 10  ).........#)....
1390: 01 29 1D 8C 80 23 29 08  FF 10 10 01 2A 29 08 FF  .)...#).....*)..
13A0: 10 10 01 2B 1D 8D 80 23  1E 00 11 10 01 1C 06 80  ...+...#........
13B0: 4A 00 11 10 01 F8 FF FF  7F 6F 70 6F 76 00 11 10  J........opov...
13C0: 01 1D 8E 80 23 29 08 FF  10 10 01 2C 29 08 FF 10  ....#).....,)...
13D0: 10 01 2D 1D 8F 80 23 5B  65 80 00 11 10 01 00 11  ..-...#[e.......
13E0: 10 01 74 6C 6B 30 2B 00  11 10 01 90 80 23 53 00  ..tlk0+......#S.
13F0: 11 10 01 00 11 10 01 74  6C 6B 30 5B 65 80 00 11  .......tlk0[e...
1400: 10 01 00 11 10 01 74 6C  6B 31 53 00 11 10 01 00  ......tlk1S.....
1410: 11 10 01 74 6C 6B 31 29  08 FF 10 10 01 2E 29 08  ...tlk1)......).
1420: FF 10 10 01 2F 1D 91 80  23 1E F0 FF FF 7F 6F 70  ..../...#.....op
1430: 29 08 FF 10 10 01 30 29  08 FF 10 10 01 17 03 02  ).....0)........
1440: 10 0A 80 1D 92 80 23 4A  00 11 10 01 F0 FF FF 7F  ......#J........
1450: 6F 76 00 11 10 01 1D 93  80 23 29 08 FF 10 10 01  ov.......#).....
1460: 18 29 08 FF 10 10 01 19  1D 94 80 23 29 08 FF 10  .).........#)...
1470: 10 01 1A 02 05 00 05 80  04 7E 14 01 83 14 03 01  .........~......
1480: 10 05 80 01 51 1E 02 00  10 2B 80 00 D8 15 29 08  ....Q....+....).
1490: FF 10 10 01 35 03 02 10  0A 80 1D 95 80 23 1D 96  ....5........#..
14A0: 80 23 29 08 FF 10 10 01  36 29 08 FF 10 10 01 17  .#).....6)......
14B0: 1D 97 80 23 03 03 10 98  80 1D 99 80 23 29 08 FF  ...#........#)..
14C0: 10 10 01 18 29 08 FF 10  10 01 19 1D 9A 80 23 29  ....).........#)
14D0: 08 FF 10 10 01 1A 29 08  FF 10 10 01 29 1D 9B 80  ......).....)...
14E0: 23 1D 9C 80 23 29 08 FF  10 10 01 2A 29 08 FF 10  #...#).....*)...
14F0: 10 01 2B 1D 9D 80 23 1D  9E 80 23 29 08 FF 10 10  ..+...#...#)....
1500: 01 2C 29 08 FF 10 10 01  35 1D 9F 80 23 1D A0 80  .,).....5...#...
1510: 23 29 08 FF 10 10 01 36  29 08 FF 10 10 01 2D 02  #).....6).....-.
1520: 87 7F 03 80 80 2D 15 06  02 10 01 9B 15 02 87 7F  .....-..........
1530: 05 80 80 3B 15 06 02 10  01 9B 15 02 87 7F 0F 80  ...;............
1540: 80 4B 15 03 02 10 03 80  01 9B 15 02 87 7F 12 80  .K..............
1550: 80 5B 15 03 02 10 03 80  01 9B 15 02 87 7F 09 80  .[..............
1560: 80 6B 15 03 02 10 05 80  01 9B 15 02 87 7F 77 80  .k............w.
1570: 80 7B 15 03 02 10 05 80  01 9B 15 02 87 7F 88 80  .{..............
1580: 80 8B 15 03 02 10 0F 80  01 9B 15 02 87 7F 2B 80  ..............+.
1590: 80 9B 15 03 02 10 12 80  01 9B 15 1D A1 80 23 03  ..............#.
15A0: 03 10 4F 80 1D A2 80 23  1D A3 80 23 29 08 FF 10  ..O....#...#)...
15B0: 10 01 2E 29 08 FF 10 10  01 2F 1D A4 80 23 29 08  ...)...../...#).
15C0: FF 10 10 01 30 02 05 00  0F 80 04 D0 15 01 D5 15  ....0...........
15D0: 03 01 10 0F 80 01 51 1E  02 00 10 47 80 00 60 17  ......Q....G..`.
15E0: 29 08 FF 10 10 01 2D 03  03 10 4F 80 1D A5 80 23  ).....-...O....#
15F0: 02 06 00 4F 80 03 0B 16  29 08 FF 10 10 01 2F 48  ...O....)...../H
1600: 51 80 1C 52 80 1D A6 80  23 21 00 03 02 10 49 80  Q..R....#!....I.
1610: 03 03 10 06 00 15 03 10  4F 80 02 03 10 A7 80 02  ........O.......
1620: 27 16 03 03 10 A7 80 03  04 10 06 00 48 A8 80 23  '...........H..#
1630: 71 10 03 80 71 11 0C 00  02 0C 00 A7 80 02 45 16  q...q.........E.
1640: 03 0C 00 A7 80 02 0C 00  03 10 02 67 16 29 08 FF  ...........g.)..
1650: 10 10 01 2F 48 51 80 1C  52 80 1D A6 80 23 29 08  .../HQ..R....#).
1660: FF 10 10 01 30 21 00 02  0C 00 01 80 00 83 16 29  ....0!.........)
1670: 08 FF 10 10 01 2F 1D A9  80 23 29 08 FF 10 10 01  ...../...#).....
1680: 30 21 00 03 05 10 0C 00  03 06 10 0C 00 14 06 10  0!..............
1690: 4F 80 24 AA 80 01 80 01  80 25 02 00 10 01 80 00  O.$......%......
16A0: 40 17 42 3C 01 10 01 80  03 80 40 0F 80 6D 80 01  @.B<......@..m..
16B0: 10 0C 00 43 00 43 01 03  0C 00 09 10 03 0D 00 08  ...C.C..........
16C0: 10 02 07 10 03 80 00 E3  16 29 08 FF 10 10 01 2F  .........)...../
16D0: 03 02 10 49 80 48 58 80  23 29 08 FF 10 10 01 30  ...I.HX.#).....0
16E0: 01 3A 17 02 0C 00 03 80  04 3A 17 29 08 FF 10 10  .:.......:.)....
16F0: 01 2F 29 08 FF 10 10 01  35 03 02 10 49 80 03 05  ./).....5...I...
1700: 10 0C 00 1D AB 80 23 03  03 10 0C 00 48 5A 80 23  ......#.....HZ.#
1710: 29 08 FF 10 10 01 36 02  0D 00 03 80 04 3A 17 29  ).....6......:.)
1720: 08 FF 10 10 01 1B 1D AC  80 23 03 07 10 0D 00 48  .........#.....H
1730: AD 80 23 29 08 FF 10 10  01 1C 06 01 10 01 5D 17  ..#)..........].
1740: 02 00 10 03 80 00 5D 17  29 08 FF 10 10 01 2F 1D  ......].)...../.
1750: A9 80 23 29 08 FF 10 10  01 30 01 5D 17 01 51 1E  ..#).....0.]..Q.
1760: 02 00 10 22 80 00 F9 1B  03 02 00 22 80 3E 12 00  ...".......".>..
1770: 12 80 7B 17 1D AE 80 23  01 7F 17 1D AF 80 23 03  ..{....#......#.
1780: 03 00 B0 80 3E 12 00 03  80 92 17 3D 03 00 03 80  ....>......=....
1790: 03 80 3E 12 00 05 80 A0  17 3D 03 00 05 80 03 80  ..>......=......
17A0: 3E 12 00 0F 80 AE 17 3D  03 00 0F 80 03 80 3E 12  >......=......>.
17B0: 00 12 80 F8 17 3D 03 00  12 80 03 80 41 B1 80 B2  .....=......A...
17C0: 80 12 00 00 00 02 00 00  03 80 00 D7 17 3D 03 00  .............=..
17D0: 09 80 03 80 01 F8 17 02  00 00 05 80 00 E9 17 3D  ...............=
17E0: 03 00 09 80 03 80 01 F8  17 02 00 00 12 80 00 F8  ................
17F0: 17 3D 03 00 09 80 03 80  3E 12 00 43 80 30 18 3E  .=......>..C.0.>
1800: 12 00 44 80 30 18 3E 12  00 4A 80 14 18 3D 03 00  ..D.0.>..J...=..
1810: 77 80 03 80 3E 12 00 4B  80 22 18 3D 03 00 88 80  w...>..K.".=....
1820: 03 80 3E 12 00 4C 80 30  18 3D 03 00 2B 80 03 80  ..>..L.0.=..+...
1830: 03 04 10 06 00 9D 0A 8C  31 02 17 03 80 88 80 9D  ........1.......
1840: 0A 9C 31 03 17 03 80 88  80 9D 0A 8C 31 04 17 05  ..1.........1...
1850: 80 88 80 9D 0A 9C 31 05  17 05 80 88 80 9D 0A 8C  ......1.........
1860: 31 06 17 0F 80 88 80 9D  0A 9C 31 07 17 0F 80 88  1.........1.....
1870: 80 03 08 17 01 80 03 09  17 01 80 03 0A 17 01 80  ................
1880: 03 0B 17 01 80 02 00 00  03 80 80 B8 18 9D 0A 53  ...............S
1890: 1E 08 17 0F 80 88 80 9D  0A 63 1E 09 17 0F 80 88  .........c......
18A0: 80 9D 0A 53 1E 0A 17 09  80 88 80 9D 0A 63 1E 0B  ...S.........c..
18B0: 17 09 80 88 80 01 51 19  02 00 00 05 80 80 EB 18  ......Q.........
18C0: 9D 0A 53 1E 08 17 05 80  88 80 9D 0A 63 1E 09 17  ..S.........c...
18D0: 05 80 88 80 9D 0A 53 1E  0A 17 77 80 88 80 9D 0A  ......S...w.....
18E0: 63 1E 0B 17 77 80 88 80  01 51 19 02 00 00 0F 80  c...w....Q......
18F0: 80 0A 19 9D 0A 53 1E 08  17 03 80 88 80 9D 0A 63  .....S.........c
1900: 1E 09 17 03 80 88 80 01  51 19 02 00 00 12 80 80  ........Q.......
1910: 3D 19 9D 0A 53 1E 08 17  01 80 88 80 9D 0A 63 1E  =...S.........c.
1920: 09 17 01 80 88 80 9D 0A  53 1E 0A 17 09 80 88 80  ........S.......
1930: 9D 0A 63 1E 0B 17 09 80  88 80 01 51 19 9D 0A 53  ..c........Q...S
1940: 1E 08 17 12 80 88 80 9D  0A 63 1E 09 17 12 80 88  .........c......
1950: 80 03 0C 17 01 80 03 0D  17 01 80 03 0E 17 01 80  ................
1960: 03 0F 17 01 80 03 10 17  01 80 03 11 17 01 80 9D  ................
1970: 0A 8C 31 0C 17 12 80 88  80 9D 0A 9C 31 0D 17 12  ..1.........1...
1980: 80 88 80 9D 0A 8C 31 0E  17 09 80 88 80 9D 0A 9C  ......1.........
1990: 31 0F 17 09 80 88 80 9D  0A 8C 31 10 17 77 80 88  1.........1..w..
19A0: 80 9D 0A 9C 31 11 17 77  80 88 80 D4 03 05 80 04  ....1..w........
19B0: 17 D4 03 0F 80 06 17 D4  03 12 80 08 17 02 0A 17  ................
19C0: 01 80 01 CB 19 D4 03 09  80 0A 17 D4 03 77 80 0C  .............w..
19D0: 17 D4 03 88 80 0E 17 D4  03 2B 80 10 17 D4 02 B3  .........+......
19E0: 80 01 80 03 00 25 02 00  10 01 80 00 F4 19 01 E6  .....%..........
19F0: 08 01 B3 1A 02 00 10 03  80 00 09 1A 03 12 17 02  ................
1A00: 17 03 13 17 03 17 01 B3  1A 02 00 10 05 80 00 1E  ................
1A10: 1A 03 12 17 04 17 03 13  17 05 17 01 B3 1A 02 00  ................
1A20: 10 0F 80 00 33 1A 03 12  17 06 17 03 13 17 07 17  ....3...........
1A30: 01 B3 1A 02 00 10 12 80  00 48 1A 03 12 17 08 17  .........H......
1A40: 03 13 17 09 17 01 B3 1A  02 00 10 09 80 00 6E 1A  ..............n.
1A50: 02 0A 17 01 80 01 65 1A  03 12 17 0A 17 03 13 17  ......e.........
1A60: 0B 17 01 6B 1A 1D 4E 80  23 21 00 01 B3 1A 02 00  ...k..N.#!......
1A70: 10 77 80 00 83 1A 03 12  17 0C 17 03 13 17 0D 17  .w..............
1A80: 01 B3 1A 02 00 10 88 80  00 98 1A 03 12 17 0E 17  ................
1A90: 03 13 17 0F 17 01 B3 1A  02 00 10 2B 80 00 AD 1A  ...........+....
1AA0: 03 12 17 10 17 03 13 17  11 17 01 B3 1A 1D 4E 80  ..............N.
1AB0: 23 21 00 02 06 00 13 17  04 E5 1B 02 00 10 03 80  #!..............
1AC0: 00 1F 1B CC 20 12 17 1D  B4 80 23 CC 20 01 80 24  .... .....#. ..$
1AD0: B5 80 03 80 01 80 25 02  00 10 01 80 00 FF 1A 42  ......%........B
1AE0: 29 08 FF 10 10 01 35 03  02 10 12 17 1D B6 80 23  ).....5........#
1AF0: 03 01 10 5E 80 29 08 FF  10 10 01 30 01 1C 1B 02  ...^.).....0....
1B00: 00 10 03 80 00 1C 1B 29  08 FF 10 10 01 2F 1D A9  .......)...../..
1B10: 80 23 29 08 FF 10 10 01  30 01 1C 1B 01 E2 1B 1D  .#).....0.......
1B20: B7 80 23 D4 03 01 80 12  17 D4 03 03 80 12 17 D4  ..#.............
1B30: 02 B8 80 03 80 01 80 25  02 00 10 01 80 00 C5 1B  .......%........
1B40: 42 29 08 FF 10 10 01 35  03 02 10 12 17 1D B9 80  B).....5........
1B50: 23 02 12 17 BA 80 80 61  1B 03 01 10 BB 80 01 71  #......a.......q
1B60: 1B 02 12 17 BC 80 80 71  1B 03 01 10 BD 80 01 71  .......q.......q
1B70: 1B 02 12 17 08 17 00 81  1B 03 01 10 BE 80 01 8E  ................
1B80: 1B 02 12 17 0A 17 00 8E  1B 03 01 10 BF 80 02 12  ................
1B90: 17 0C 17 00 9E 1B 03 01  10 C0 80 01 BB 1B 02 12  ................
1BA0: 17 0E 17 00 AE 1B 03 01  10 C1 80 01 BB 1B 02 12  ................
1BB0: 17 10 17 00 BB 1B 03 01  10 C2 80 29 08 FF 10 10  ...........)....
1BC0: 01 30 01 E2 1B 02 00 10  03 80 00 E2 1B 29 08 FF  .0...........)..
1BD0: 10 10 01 2F 1D A9 80 23  29 08 FF 10 10 01 30 01  .../...#).....0.
1BE0: E2 1B 01 F6 1B 29 08 FF  10 10 01 2F 48 51 80 1C  .....)...../HQ..
1BF0: 52 80 1D A6 80 23 01 51  1E 02 00 10 48 80 00 3E  R....#.Q....H..>
1C00: 1C 03 02 00 48 80 29 08  FF 10 10 01 17 03 02 10  ....H.).........
1C10: C3 80 1D C4 80 23 03 02  10 87 7F 03 03 10 0A 80  .....#..........
1C20: 03 04 10 5E 80 1D C5 80  23 1D C6 80 23 1D C7 80  ...^....#...#...
1C30: 23 29 08 FF 10 10 01 19  01 E6 08 01 51 1E 02 00  #)..........Q...
1C40: 10 6D 80 00 51 1E 03 02  00 6D 80 03 04 00 01 80  .m..Q....m......
1C50: 03 02 17 C8 80 03 04 17  C9 80 03 06 17 CA 80 03  ................
1C60: 08 17 CB 80 03 0A 17 CC  80 03 0C 17 CD 80 03 0E  ................
1C70: 17 CE 80 03 10 17 CF 80  03 12 17 D0 80 03 14 17  ................
1C80: D1 80 03 16 17 D2 80 03  18 17 D3 80 03 03 17 01  ................
1C90: 80 03 05 17 01 80 03 07  17 01 80 03 09 17 01 80  ................
1CA0: 03 0B 17 01 80 03 0D 17  01 80 03 0F 17 01 80 03  ................
1CB0: 11 17 01 80 03 13 17 01  80 03 15 17 01 80 03 17  ................
1CC0: 17 01 80 03 19 17 01 80  03 13 00 01 80 41 09 80  .............A..
1CD0: 2B 80 12 00 13 00 02 13  00 03 80 80 E6 1C 03 03  +...............
1CE0: 17 03 80 01 96 1D 02 13  00 05 80 80 F6 1C 03 05  ................
1CF0: 17 03 80 01 96 1D 02 13  00 0F 80 80 06 1D 03 07  ................
1D00: 17 03 80 01 96 1D 02 13  00 12 80 80 16 1D 03 09  ................
1D10: 17 03 80 01 96 1D 02 13  00 09 80 80 26 1D 03 0B  ............&...
1D20: 17 03 80 01 96 1D 02 13  00 77 80 80 36 1D 03 0D  .........w..6...
1D30: 17 03 80 01 96 1D 02 13  00 88 80 80 46 1D 03 0F  ............F...
1D40: 17 03 80 01 96 1D 02 13  00 2B 80 80 56 1D 03 11  .........+..V...
1D50: 17 03 80 01 96 1D 02 13  00 47 80 80 66 1D 03 13  .........G..f...
1D60: 17 03 80 01 96 1D 02 13  00 22 80 80 76 1D 03 15  ........."..v...
1D70: 17 03 80 01 96 1D 02 13  00 48 80 80 86 1D 03 17  .........H......
1D80: 17 03 80 01 96 1D 02 13  00 6D 80 80 96 1D 03 19  .........m......
1D90: 17 03 80 01 96 1D D4 03  03 80 02 17 D4 03 05 80  ................
1DA0: 04 17 D4 03 0F 80 06 17  D4 03 12 80 08 17 D4 03  ................
1DB0: 09 80 0A 17 D4 03 77 80  0C 17 D4 03 88 80 0E 17  ......w.........
1DC0: D4 03 2B 80 10 17 D4 03  47 80 12 17 D4 03 22 80  ..+.....G.....".
1DD0: 14 17 D4 03 48 80 16 17  D4 03 6D 80 18 17 D4 02  ....H.....m.....
1DE0: D4 80 04 00 01 80 25 02  00 10 01 80 00 F5 1D 01  ......%.........
1DF0: E6 08 01 4E 1E 02 00 10  41 80 00 04 1E 1D 4E 80  ...N....A.....N.
1E00: 23 01 4E 1E 03 04 00 00  10 9D 0A CC 31 00 00 04  #.N.........1...
1E10: 00 41 80 93 00 00 29 08  FF 10 10 01 17 1D D5 80  .A....).........
1E20: 23 02 13 00 04 00 00 41  1E 9D 0A AC 31 1A 17 04  #......A....1...
1E30: 00 41 80 03 1B 17 0A 80  03 1C 17 5E 80 1D D6 80  .A.........^....
1E40: 23 29 08 FF 10 10 01 19  93 01 80 01 50 1C 01 51  #)..........P..Q
1E50: 1E 21 00 D7 80 D8 80 D9  80 DA 80 DB 80 DC 80 DD  .!..............
1E60: 80 01 80 4F 80 DE 80 DF  80 E0 80 E1 80 E2 80 62  ...O...........b
1E70: 80 01 80                                          ...             
```

#### Opcodes

```
  0: 0x086B [0x03] ExtData[1]->WorkLocal[5] = Work_Zone[2]
  1: 0x0870 [0x03] ExtData[1]->WorkLocal[6] = Work_Zone[3]
  2: 0x0875 [0x03] ExtData[1]->WorkLocal[7] = Work_Zone[4]
  3: 0x087A [0x03] ExtData[1]->WorkLocal[8] = Work_Zone[5]
