# 17830189 - Oston

## Common Data

| Field            | Value                     |
|------------------|---------------------------|
| Zone             | Eastern Adoulin (ID: 257) |
| Block Size       | 4460 bytes                |
| Total Events     | 19                        |
| References Count | 124                       |

## List of Events

| Event ID                 | Entrypoint   |   Size |   Instructions |
|--------------------------|--------------|--------|----------------|
| [65535](#event-65535)    | 0x0000       |      1 |              1 |
| [5506](#event-5506)      | 0x0001       |   3238 |            679 |
| [5507](#event-5507)      | 0x0CA7       |    528 |             64 |
| [5032](#event-5032)      | 0x0EB7       |      7 |              2 |
| [5097](#event-5097)      | 0x0EBE       |      7 |              2 |
| [5099](#event-5099)      | 0x0EC5       |      7 |              2 |
| [5102](#event-5102)      | 0x0ECC       |      7 |              2 |
| [5124](#event-5124)      | 0x0ED3       |      7 |              2 |
| [5130](#event-5130)      | 0x0EDA       |      7 |              2 |
| [5202](#event-5202)      | 0x0EE1       |      7 |              2 |
| [106](#event-106)        | 0x0EE8       |      7 |              2 |
| [5212](#event-5212)      | 0x0EEF       |      7 |              2 |
| [5214](#event-5214)      | 0x0EF6       |      7 |              2 |
| [5217](#event-5217)      | 0x0EFD       |      7 |              2 |
| [5222](#event-5222)      | 0x0F04       |      7 |              2 |
| [115](#event-115)        | 0x0F0B       |      7 |              2 |
| [120](#event-120)        | 0x0F12       |      7 |              2 |
| [65535.1](#event-655351) | 0x0F19       |      4 |              2 |
| [65535.2](#event-655352) | 0x0F1D       |      2 |              2 |

## DAT References (imed_data)

|   Index | Hex Value   |   Dec Value |
|---------|-------------|-------------|
|       0 | 0x0001      |           1 |
|       1 | 0x319D      |       12701 |
|       2 | 0x319E      |       12702 |
|       3 | 0x319F      |       12703 |
|       4 | 0x31A0      |       12704 |
|       5 | 0x31A1      |       12705 |
|       6 | 0x31A2      |       12706 |
|       7 | 0x0000      |           0 |
|       8 | 0x000F      |          15 |
|       9 | 0x0010      |          16 |
|      10 | 0x001F      |          31 |
|      11 | 0x0002      |           2 |
|      12 | 0x31A8      |       12712 |
|      13 | 0x31A9      |       12713 |
|      14 | 0x31AA      |       12714 |
|      15 | 0x31AB      |       12715 |
|      16 | 0x31AC      |       12716 |
|      17 | 0x0005      |           5 |
|      18 | 0x0007      |           7 |
|      19 | 0x0008      |           8 |
|      20 | 0x0009      |           9 |
|      21 | 0x000A      |          10 |
|      22 | 0x31D1      |       12753 |
|      23 | 0x31D2      |       12754 |
|      24 | 0x31CC      |       12748 |
|      25 | 0x31CD      |       12749 |
|      26 | 0x31CE      |       12750 |
|      27 | 0x31CF      |       12751 |
|      28 | 0x31D0      |       12752 |
|      29 | 0x0006      |           6 |
|      30 | 0x31C6      |       12742 |
|      31 | 0x31C7      |       12743 |
|      32 | 0x31C8      |       12744 |
|      33 | 0x31C9      |       12745 |
|      34 | 0x31CA      |       12746 |
|      35 | 0x31A4      |       12708 |
|      36 | 0x31A7      |       12711 |
|      37 | 0x31A5      |       12709 |
|      38 | 0x31A6      |       12710 |
|      39 | 0x31A3      |       12707 |
|      40 | 0x0003      |           3 |
|      41 | 0x0004      |           4 |
|      42 | 0x31AD      |       12717 |
|      43 | 0x40000000  |  1073741824 |
|      44 | 0xFFFFFFFF  |  4294967295 |
|      45 | 0x31AE      |       12718 |
|      46 | 0x31AF      |       12719 |
|      47 | 0x31B0      |       12720 |
|      48 | 0x31B1      |       12721 |
|      49 | 0x000B      |          11 |
|      50 | 0x000C      |          12 |
|      51 | 0x000E      |          14 |
|      52 | 0x0011      |          17 |
|      53 | 0x0012      |          18 |
|      54 | 0x0014      |          20 |
|      55 | 0x0015      |          21 |
|      56 | 0x0017      |          23 |
|      57 | 0x0018      |          24 |
|      58 | 0x001A      |          26 |
|      59 | 0x31B2      |       12722 |
|      60 | 0x31B3      |       12723 |
|      61 | 0x31B4      |       12724 |
|      62 | 0x31B7      |       12727 |
|      63 | 0x31B8      |       12728 |
|      64 | 0x31B9      |       12729 |
|      65 | 0x31BA      |       12730 |
|      66 | 0xFFFFFFF0  |  4294967280 |
|      67 | 0x0020      |          32 |
|      68 | 0x31BD      |       12733 |
|      69 | 0x31BE      |       12734 |
|      70 | 0x31BF      |       12735 |
|      71 | 0x31CB      |       12747 |
|      72 | 0x31C0      |       12736 |
|      73 | 0x31C1      |       12737 |
|      74 | 0x31C2      |       12738 |
|      75 | 0x31C3      |       12739 |
|      76 | 0x31C4      |       12740 |
|      77 | 0x18FC      |        6396 |
|      78 | 0x08F3      |        2291 |
|      79 | 0x08F4      |        2292 |
|      80 | 0x08F5      |        2293 |
|      81 | 0x08F6      |        2294 |
|      82 | 0x0A2A      |        2602 |
|      83 | 0x0A2B      |        2603 |
|      84 | 0x0A2C      |        2604 |
|      85 | 0x0A2D      |        2605 |
|      86 | 0x0F37      |        3895 |
|      87 | 0x0F38      |        3896 |
|      88 | 0x0F39      |        3897 |
|      89 | 0x0F3A      |        3898 |
|      90 | 0x0F3B      |        3899 |
|      91 | 0x0FC5      |        4037 |
|      92 | 0x0FC6      |        4038 |
|      93 | 0x0FC7      |        4039 |
|      94 | 0x0FC8      |        4040 |
|      95 | 0x0FC9      |        4041 |
|      96 | 0x0F46      |        3910 |
|      97 | 0x0F47      |        3911 |
|      98 | 0x0F48      |        3912 |
|      99 | 0x0F49      |        3913 |
|     100 | 0x0F4A      |        3914 |
|     101 | 0x2225      |        8741 |
|     102 | 0x2226      |        8742 |
|     103 | 0x2227      |        8743 |
|     104 | 0x2228      |        8744 |
|     105 | 0x2229      |        8745 |
|     106 | 0x0F3C      |        3900 |
|     107 | 0x0F3D      |        3901 |
|     108 | 0x0F3E      |        3902 |
|     109 | 0x0F3F      |        3903 |
|     110 | 0x0F40      |        3904 |
|     111 | 0x0F41      |        3905 |
|     112 | 0x0F42      |        3906 |
|     113 | 0x0F43      |        3907 |
|     114 | 0x0F44      |        3908 |
|     115 | 0x0F45      |        3909 |
|     116 | 0x2306      |        8966 |
|     117 | 0x2307      |        8967 |
|     118 | 0x2308      |        8968 |
|     119 | 0x2309      |        8969 |
|     120 | 0x230A      |        8970 |
|     121 | 0x07D0      |        2000 |
|     122 | 0x0960      |        2400 |
|     123 | 0x0A28      |        2600 |

## String References

- **6396**: You do not have enough gil.
- **12701**: I ain't never seen no whippersnapper with your face in these parts. Say...mightn't ya've come across any simulacrum segments while ya were out thwick-thwackin' through Eastern Ulbuka?
- **12702**: What you say, [sonny/missy]? You ain't know what simulacrum segments are!?
- **12703**: Well, they's three of a kind. You've got your heads, your torsos, and your legs. Puttin' 'em t'gether's the 'ard part, though. Most young'uns say they ain't got no time to learn 'ow.
- **12704**: Me, though? I've got all the time in the world. In fact, my middle name be "Time." Wait, but what was my last name...?
- **12705**: Anyway, I makes my livin' off tinkerin' with simulacra. I'd be 'appy to build one for ya if you're willin' to slip me somethin' in return and listen to how I dun fished up a doozy of a craklaw once!
- **12706**: Ya ain't gotta doubt me none with them eyes of yours, little [lad/lass]. I know these're your prop'ty. I ain't gon' steal 'em.
- **12707**: If ya 'appen upon some simulacrum segments in the wilds of Eastern Ulbuka, couldja make an ol' man with nothin' better to do 'appy and gimme some to tinker with?
- **12708**: Hey, I remember you! You're...Smeirdlin, right? What's on the docket today?
- **12709**: Well, well, well, well, well, well, well! Lookit what we've got 'ere... A natural collector, you.
- **12710**: Iff'n you'll be needin' that slapped t'gether or whatnot, just slip it into these shaky hands o' mine.
- **12711**: Why, color me cockeyed! You've got some obsidian fragments on ya. Iff'n you ain't be needin' them none, 'ow 'bout floatin' some my way...purty please?
- **12712**: My, oh my, oh my! Them obsidian fragments be twinklin' and gleamin' like spit-shined shoes. I think I sees my reflection in 'em!
- **12713**: Sorry, I'm easily distracted these days. Where was I? Oh, yeah, did I ever tell ya how much I love buildin' simulacra?
- **12714**: ...I did? Hm...well, I also like collectin' 'em.
- **12715**: Iff'n you'd have a heart bigger than the Celennia Memorial Library and give me one, I'd dun make it worth your while, that's fo' sho'.
- **12716**: Ya can 'ave some segments from my super-secret collection, so humor an ol' man and gimme, gimme, gimme!
- **12717**: What will you do? [Leave./Check your simulacrum./Dismantle a simulacrum./Check your eudaemon./Dismantle a eudaemon./Trade for segments from his collection.]
- **12718**: Ya want me to have a look-see at those [simulacrum/eudaemon] pieces o' yours? Great! But which ones?
- **12719**: Check which [simulacrum/eudaemon]'s segments? [None./$3./$3./$3./$3./$3./$3./$3./$3./$3.]
- **12720**: What's that, [sonny/missy]? 3? Lessee...
- **12721**: #!
- **12722**: Did I 'ear ya say "dismantle"? I guess I cain't say "They don't make 'em like they used to," because no one makes 'em anymore! Anyway, that's what these segments are for.
- **12723**: Dismantle which [simulacrum/eudaemon]? [None./$3./$3./$3./$3./$3./$3./$3./$3./$3.]
- **12724**: Dismantle $3? [You heard me./Whoops! No, thanks.]
- **12727**: You brought some obsidian fragments for me!? Ya shouldn't have...but I'm so glad ya did! Take anythin' ya want. Anythin' at all!
- **12728**: Select a segment. ($0 fragment[/s]) [No, thanks./$1. ($17 needed)/$2. ($18 needed)/$3. ($19 needed)/$4. ($20 needed)/$5. ($21 needed)/$6. ($22 needed)/$7. ($23 needed)/$8. ($24 needed)/$9. ($25 needed)/$10. ($26 needed)/$11. ($27 needed)/$12. ($28 needed)/$13. ($29 needed)/$14. ($30 needed)/$15. ($31 needed)/$16. ($ needed)/Previous page./Next page.]
- **12729**: What a beaut, this $0. You'll give 'er a good 'ome, won't ya?
- **12730**: Give $0 a good home? [With pleasure./I'd rather not.]
- **12733**: Whoa, whoa, whoa! I 'ppreciate the gusto, but my mind just ain't the most agile. I need the three diff'rent pieces all at the same time...or four dependin' on the type. Didn't my wife tell ya that?
- **12734**: Looks like ya caught a bit o' my senility, [sonny/missy]. I think you've already got a [simulacrum/eudaemon] for this location.
- **12735**: There ain't no need for more'n one. I speak from experience, 'ere. Let's just pretend this ne'er 'appened.
- **12736**: This head, that torso, these legs... I think I'm gonna need $0 gil for this job.
- **12737**: Have him assemble $6? [Yes./No.]
- **12738**: Hold your chocobos, young'un! You cain't rush genius!
- **12739**: Twist 'ere, prod there... Get in there, dammit... Get the holy hell in there! Grrr...
- **12740**: Whew, feast your peepers on this humdinger! Ain't never seen somethin' so seamless, 'ave ya? And it's all yours, bairn.
- **12742**: Ya dun found some proverbial diamonds in the rough, didja?
- **12743**: Lemme take a gander at 'em. Hmmm... By golly, they should be fittin' tighter'n my ol' lady's britches after a Darksday brunch.
- **12744**: But 'ow'n I go 'bout it be a differnt beast alt'gether. I guess I's just gots ta wing it.
- **12745**: If ya be wantin' me to work my magic, I'll needs me the visage, torso, legs, and...
- **12746**: ...And whatever that newfangled thingamabob segment be all at once. Ya 'ear me? All four at the same time, [sonny/missy].
- **12747**: I know I fancy myself a tinkerer, but I ain't no miracle worker! Ya just cain't assemble nothin' with this 'ere 'ead.
- **12748**: Ya've heard the whole shebang from Granny o'er there, yeah?
- **12749**: 'Course, I cain't remember gobsmack 'bout no demon.
- **12750**: Th'only thang I done can do is r'member a gapin' hole in my mem'ry.
- **12751**: Weren't so much that I couldn't set foot in skirmishes no more...
- **12752**: More that I ferget what 'twas like ta live.
- **12753**: Yer sayin' that our unborn daughter was tak'n from us and that she's alive in a skirmish?
- **12754**: I cain't even 'magine what that mus' be like for her...

## Events

### Event 65535

#### Metadata

| Field        | Value   |
|--------------|---------|
| Entrypoint   | 0x0000  |
| Data Size    | 1 bytes |
| Instructions | 1       |

```
      00 01 02 03 04 05 06 07  08 09 0A 0B 0C 0D 0E 0F
      -- -- -- -- -- -- -- --  -- -- -- -- -- -- -- --
0000: 00                                                .               
```

#### Opcodes

```
  0: 0x0000 [0x00] END_REQSTACK()
```

### Event 5506

#### Metadata

| Field        | Value      |
|--------------|------------|
| Entrypoint   | 0x0001     |
| Data Size    | 3238 bytes |
| Instructions | 560        |

```
      00 01 02 03 04 05 06 07  08 09 0A 0B 0C 0D 0E 0F
      -- -- -- -- -- -- -- --  -- -- -- -- -- -- -- --
0000:    1E F0 FF FF 7F 06 08  00 06 0A 00 06 0B 00 06   ...............
0010: 0C 00 06 0D 00 06 0E 00  06 14 00 06 15 00 06 16  ................
0020: 00 06 19 00 03 01 00 02  10 03 00 00 03 10 03 13  ................
0030: 00 06 10 03 17 00 07 10  03 18 00 08 10 3E 01 00  .............>..
0040: 00 80 4E 00 3C 19 00 00  80 00 80 01 82 00 1D 01  ..N.<...........
0050: 80 23 1D 02 80 23 1D 03  80 23 1D 04 80 23 1D 05  .#...#...#...#..
0060: 80 23 1D 06 80 23 40 07  80 08 80 01 10 00 80 40  .#...#@........@
0070: 09 80 0A 80 01 10 07 80  43 00 43 01 06 01 10 05  ........C.C.....
0080: 14 00 3E 01 00 0B 80 93  00 3C 19 00 0B 80 00 80  ..>......<......
0090: 01 DA 00 03 08 00 13 00  02 08 00 07 80 02 DA 00  ................
00A0: 1D 0C 80 23 1D 0D 80 23  1D 0E 80 23 1D 0F 80 23  ...#...#...#...#
00B0: 1D 10 80 23 40 07 80 08  80 01 10 0B 80 40 09 80  ...#@........@..
00C0: 0A 80 01 10 07 80 43 00  43 01 06 19 00 3C 01 00  ......C.C....<..
00D0: 0B 80 00 80 06 01 10 06  14 00 02 19 00 07 80 00  ................
00E0: E5 00 01 26 02 3E 01 00  11 80 73 01 3E 01 00 12  ...&.>....s.>...
00F0: 80 70 01 3E 01 00 13 80  39 01 3E 01 00 14 80 36  .p.>....9.>....6
0100: 01 3E 01 00 15 80 0B 01  01 36 01 1D 16 80 23 1D  .>.......6....#.
0110: 17 80 23 40 07 80 08 80  01 10 14 80 40 09 80 0A  ..#@........@...
0120: 80 01 10 07 80 43 00 43  01 3C 01 00 15 80 00 80  .....C.C.<......
0130: 06 01 10 05 14 00 01 70  01 1D 18 80 23 1D 19 80  .......p....#...
0140: 23 1D 1A 80 23 1D 1B 80  23 1D 1C 80 23 40 07 80  #...#...#...#@..
0150: 08 80 01 10 13 80 40 09  80 0A 80 01 10 07 80 43  ......@........C
0160: 00 43 01 3C 01 00 13 80  00 80 06 01 10 05 14 00  .C.<............
0170: 01 B9 01 3E 01 00 1D 80  B9 01 02 18 00 07 80 02  ...>............
0180: B9 01 1D 1E 80 23 1D 1F  80 23 1D 20 80 23 1D 21  .....#...#. .#.!
0190: 80 23 1D 22 80 23 40 07  80 08 80 01 10 1D 80 40  .#.".#@........@
01A0: 09 80 0A 80 01 10 07 80  43 00 43 01 3C 01 00 11  ........C.C.<...
01B0: 80 00 80 06 01 10 05 14  00 02 14 00 07 80 00 26  ...............&
01C0: 02 02 00 00 07 80 02 E1  01 1D 23 80 23 03 08 00  ..........#.#...
01D0: 13 00 02 08 00 07 80 02  DE 01 1D 24 80 23 01 26  ...........$.#.&
01E0: 02 02 17 00 07 80 02 0B  02 1D 25 80 23 03 08 00  ..........%.#...
01F0: 13 00 02 08 00 07 80 02  01 02 1D 24 80 23 01 08  ...........$.#..
0200: 02 1D 26 80 23 05 14 00  01 26 02 03 08 00 13 00  ..&.#....&......
0210: 02 08 00 07 80 02 1F 02  1D 24 80 23 01 26 02 1D  .........$.#.&..
0220: 27 80 23 05 14 00 02 00  00 07 80 00 4D 02 3C 16  '.#.........M.<.
0230: 00 28 80 00 80 3C 16 00  29 80 00 80 3C 16 00 00  .(...<..)...<...
0240: 80 00 80 3C 16 00 0B 80  00 80 01 AF 02 3E 00 00  ...<.........>..
0250: 00 80 57 02 01 83 02 3E  00 00 0B 80 61 02 01 83  ..W....>....a...
0260: 02 3E 00 00 28 80 6B 02  01 83 02 3E 00 00 29 80  .>..(.k....>..).
0270: 75 02 01 83 02 3C 16 00  00 80 00 80 3C 16 00 0B  u....<......<...
0280: 80 00 80 3E 00 00 1D 80  8D 02 01 AF 02 3E 00 00  ...>.........>..
0290: 12 80 97 02 01 AF 02 3E  00 00 13 80 A1 02 01 AF  .......>........
02A0: 02 3C 16 00 28 80 00 80  3C 16 00 29 80 00 80 3E  .<..(...<..)...>
02B0: 01 00 0B 80 B9 02 01 C0  02 3C 16 00 11 80 00 80  .........<......
02C0: 02 14 00 07 80 00 4D 03  24 2A 80 07 80 16 00 25  ......M.$*.....%
02D0: 02 00 10 07 80 00 E3 02  05 14 00 03 01 10 2B 80  ..............+.
02E0: 01 E3 02 03 15 00 00 10  02 14 00 07 80 00 4A 03  ..............J.
02F0: 02 15 00 00 80 80 03 03  03 1A 00 07 80 1A 4F 03  ..............O.
0300: 01 4A 03 02 15 00 0B 80  80 16 03 03 1A 00 07 80  .J..............
0310: 1A 99 07 01 4A 03 02 15  00 28 80 80 29 03 03 1A  ....J....(..)...
0320: 00 00 80 1A 4F 03 01 4A  03 02 15 00 29 80 80 3C  ....O..J....)..<
0330: 03 03 1A 00 00 80 1A 99  07 01 4A 03 02 15 00 11  ..........J.....
0340: 80 80 4A 03 1A 78 08 01  4A 03 01 C0 02 21 00 06  ..J..x..J....!..
0350: 1B 00 06 1C 00 06 1D 00  03 1D 00 00 00 3C 1D 00  .............<..
0360: 07 80 00 80 02 1A 00 07  80 00 8B 03 3D 1D 00 1D  ............=...
0370: 80 00 80 3D 1D 00 12 80  00 80 3D 1D 00 13 80 00  ...=......=.....
0380: 80 3D 1D 00 14 80 00 80  01 AE 03 3D 1D 00 00 80  .=.........=....
0390: 00 80 3D 1D 00 0B 80 00  80 3D 1D 00 28 80 00 80  ..=......=..(...
03A0: 3D 1D 00 29 80 00 80 3D  1D 00 11 80 00 80 0F 1D  =..)...=........
03B0: 00 2C 80 03 02 10 1A 00  1D 2D 80 23 1A 21 05 02  .,.......-.#.!..
03C0: 1B 00 07 80 00 15 05 1A  64 0C 03 02 10 1A 00 24  ........d......$
03D0: 2E 80 07 80 1D 00 25 02  00 10 07 80 00 E5 03 05  ......%.........
03E0: 1B 00 01 E5 03 03 1C 00  00 10 02 1B 00 07 80 00  ................
03F0: 12 05 06 0A 00 9D 00 67  0D 0A 00 1C 00 03 02 10  .......g........
0400: 0A 00 1D 2F 80 23 1A 77  05 02 1C 00 00 80 80 1C  .../.#.w........
0410: 04 9D 00 C7 0D 02 10 0B  00 01 A1 04 02 1C 00 0B  ................
0420: 80 80 2F 04 9D 00 D7 0D  02 10 0B 00 01 A1 04 02  ../.............
0430: 1C 00 28 80 80 42 04 9D  00 E7 0D 02 10 0B 00 01  ..(..B..........
0440: A1 04 02 1C 00 29 80 80  55 04 9D 00 F7 0D 02 10  .....)..U.......
0450: 0B 00 01 A1 04 02 1C 00  1D 80 80 68 04 9D 00 C7  ...........h....
0460: 0D 02 10 0B 00 01 A1 04  02 1C 00 12 80 80 7B 04  ..............{.
0470: 9D 00 D7 0D 02 10 0B 00  01 A1 04 02 1C 00 13 80  ................
0480: 80 8E 04 9D 00 E7 0D 02  10 0B 00 01 A1 04 02 1C  ................
0490: 00 14 80 80 A1 04 9D 00  F7 0D 02 10 0B 00 01 A1  ................
04A0: 04 1A 16 05 9D 00 17 0E  02 10 0C 00 1A 16 05 9D  ................
04B0: 00 27 0E 02 10 0D 00 1A  16 05 02 1C 00 1D 80 80  .'..............
04C0: D0 04 9D 00 37 0E 02 10  0E 00 1A 16 05 01 12 05  ....7...........
04D0: 02 1C 00 12 80 80 E6 04  9D 00 37 0E 02 10 0E 00  ..........7.....
04E0: 1A 16 05 01 12 05 02 1C  00 13 80 80 FC 04 9D 00  ................
04F0: 37 0E 02 10 0E 00 1A 16  05 01 12 05 02 1C 00 14  7...............
0500: 80 80 12 05 9D 00 37 0E  02 10 0E 00 1A 16 05 01  ......7.........
0510: 12 05 01 BF 03 1B 93 02  10 48 30 80 23 93 07 80  .........H0.#...
0520: 1B 02 1A 00 07 80 00 51  05 40 07 80 08 80 01 10  .......Q.@......
0530: 28 80 40 09 80 0A 80 01  10 07 80 43 00 43 01 03  (.@........C.C..
0540: 11 00 04 10 03 12 00 05  10 03 13 00 06 10 01 76  ...............v
0550: 05 40 07 80 08 80 01 10  12 80 40 09 80 0A 80 01  .@........@.....
0560: 10 07 80 43 00 43 01 03  11 00 04 10 03 12 00 05  ...C.C..........
0570: 10 03 13 00 06 10 1B 06  0B 00 06 0C 00 06 0D 00  ................
0580: 06 0E 00 02 1C 00 00 80  80 C7 05 03 21 00 07 80  ............!...
0590: 03 22 00 0B 80 41 21 00  22 00 11 00 0B 00 03 21  ."...A!."......!
05A0: 00 28 80 03 22 00 11 80  41 21 00 22 00 11 00 0C  .(.."...A!."....
05B0: 00 03 21 00 1D 80 03 22  00 13 80 41 21 00 22 00  ..!...."...A!.".
05C0: 11 00 0D 00 01 98 07 02  1C 00 0B 80 80 0B 06 03  ................
05D0: 21 00 14 80 03 22 00 31  80 41 21 00 22 00 11 00  !....".1.A!."...
05E0: 0B 00 03 21 00 32 80 03  22 00 33 80 41 21 00 22  ...!.2..".3.A!."
05F0: 00 11 00 0C 00 03 21 00  08 80 03 22 00 34 80 41  ......!....".4.A
0600: 21 00 22 00 11 00 0D 00  01 98 07 02 1C 00 28 80  !."...........(.
0610: 80 4F 06 03 21 00 35 80  03 22 00 36 80 41 21 00  .O..!.5..".6.A!.
0620: 22 00 11 00 0B 00 03 21  00 37 80 03 22 00 38 80  "......!.7..".8.
0630: 41 21 00 22 00 11 00 0C  00 03 21 00 39 80 03 22  A!."......!.9.."
0640: 00 3A 80 41 21 00 22 00  11 00 0D 00 01 98 07 02  .:.A!.".........
0650: 1C 00 29 80 80 93 06 03  21 00 07 80 03 22 00 0B  ..).....!...."..
0660: 80 41 21 00 22 00 12 00  0B 00 03 21 00 28 80 03  .A!."......!.(..
0670: 22 00 11 80 41 21 00 22  00 12 00 0C 00 03 21 00  "...A!."......!.
0680: 1D 80 03 22 00 13 80 41  21 00 22 00 12 00 0D 00  ..."...A!.".....
0690: 01 98 07 02 1C 00 1D 80  80 EA 06 03 21 00 07 80  ............!...
06A0: 03 22 00 0B 80 41 21 00  22 00 11 00 0B 00 03 21  ."...A!."......!
06B0: 00 28 80 03 22 00 11 80  41 21 00 22 00 11 00 0C  .(.."...A!."....
06C0: 00 03 21 00 1D 80 03 22  00 13 80 41 21 00 22 00  ..!...."...A!.".
06D0: 11 00 0D 00 03 21 00 14  80 03 22 00 31 80 41 21  .....!....".1.A!
06E0: 00 22 00 12 00 0E 00 01  98 07 02 1C 00 12 80 80  ."..............
06F0: 41 07 03 21 00 14 80 03  22 00 31 80 41 21 00 22  A..!....".1.A!."
0700: 00 11 00 0B 00 03 21 00  32 80 03 22 00 33 80 41  ......!.2..".3.A
0710: 21 00 22 00 11 00 0C 00  03 21 00 08 80 03 22 00  !."......!....".
0720: 34 80 41 21 00 22 00 11  00 0D 00 03 21 00 32 80  4.A!."......!.2.
0730: 03 22 00 33 80 41 21 00  22 00 12 00 0E 00 01 98  .".3.A!.".......
0740: 07 02 1C 00 13 80 80 98  07 03 21 00 35 80 03 22  ..........!.5.."
0750: 00 36 80 41 21 00 22 00  11 00 0B 00 03 21 00 37  .6.A!."......!.7
0760: 80 03 22 00 38 80 41 21  00 22 00 11 00 0C 00 03  ..".8.A!."......
0770: 21 00 39 80 03 22 00 3A  80 41 21 00 22 00 11 00  !.9..".:.A!."...
0780: 0D 00 03 21 00 08 80 03  22 00 34 80 41 21 00 22  ...!....".4.A!."
0790: 00 12 00 0E 00 01 98 07  1B 06 1B 00 06 1C 00 06  ................
07A0: 1D 00 03 1D 00 00 00 3C  1D 00 07 80 00 80 02 1A  .......<........
07B0: 00 07 80 00 D5 07 3D 1D  00 1D 80 00 80 3D 1D 00  ......=......=..
07C0: 12 80 00 80 3D 1D 00 13  80 00 80 3D 1D 00 14 80  ....=......=....
07D0: 00 80 01 F8 07 3D 1D 00  00 80 00 80 3D 1D 00 0B  .....=......=...
07E0: 80 00 80 3D 1D 00 28 80  00 80 3D 1D 00 29 80 00  ...=..(...=..)..
07F0: 80 3D 1D 00 11 80 00 80  0F 1D 00 2C 80 03 02 10  .=.........,....
0800: 1A 00 1D 3B 80 23 02 1B  00 07 80 00 77 08 1A 64  ...;.#......w..d
0810: 0C 03 02 10 1A 00 24 3C  80 07 80 1D 00 25 02 00  ......$<.....%..
0820: 10 07 80 00 2C 08 05 1B  00 01 2C 08 03 1C 00 00  ....,.....,.....
0830: 10 02 1B 00 07 80 00 74  08 06 0A 00 9D 00 67 0D  .......t......g.
0840: 0A 00 1C 00 03 02 10 0A  00 24 3D 80 00 80 07 80  .........$=.....
0850: 25 02 00 10 07 80 00 74  08 05 1B 00 05 14 00 40  %......t.......@
0860: 07 80 08 80 01 10 29 80  40 09 80 0A 80 01 10 1C  ......).@.......
0870: 00 01 74 08 01 06 08 1B  06 1B 00 06 1C 00 06 1E  ..t.............
0880: 00 1D 3E 80 23 02 1B 00  07 80 00 36 09 1A 37 09  ..>.#......6..7.
0890: 1A E5 09 03 02 10 13 00  24 3F 80 1C 00 1D 00 25  ........$?.....%
08A0: 02 00 10 07 80 00 AE 08  05 1B 00 01 CA 08 02 00  ................
08B0: 10 34 80 00 BC 08 0C 1E  00 01 CA 08 02 00 10 35  .4.............5
08C0: 80 00 CA 08 0B 1E 00 01  CA 08 03 1C 00 00 10 02  ................
08D0: 1C 00 34 80 03 2E 09 02  1B 00 07 80 00 2B 09 03  ..4..........+..
08E0: 08 00 02 10 9D 00 87 0D  0A 00 1C 00 03 02 10 0A  ................
08F0: 00 93 02 10 1D 40 80 23  93 07 80 24 41 80 00 80  .....@.#...$A...
0900: 07 80 25 02 00 10 07 80  00 26 09 05 1B 00 05 14  ..%......&......
0910: 00 40 07 80 08 80 01 10  11 80 40 09 80 0A 80 01  .@........@.....
0920: 10 1C 00 01 26 09 03 02  10 08 00 01 33 09 03 1C  ....&.......3...
0930: 00 07 80 01 85 08 1B 1A  7B 0A 02 1E 00 07 80 80  ........{.......
0940: 54 09 03 21 00 00 80 03  22 00 11 80 03 23 00 07  T..!...."....#..
0950: 80 01 5F 09 02 1E 00 00  80 80 5F 09 01 5F 09 03  .._......._.._..
0960: 20 00 21 00 02 20 00 22  00 05 8F 09 06 0A 00 03   .!.. ."........
0970: 24 00 23 00 07 24 00 20  00 9D 00 97 0E 0A 00 24  $.#..$. .......$
0980: 00 9D 05 87 0D 0A 00 20  00 0B 20 00 01 64 09 02  ....... .. ..d..
0990: 1E 00 07 80 80 A9 09 03  21 00 34 80 03 22 00 37  ........!.4..".7
09A0: 80 03 23 00 42 80 01 B4  09 02 1E 00 00 80 80 B4  ..#.B...........
09B0: 09 01 B4 09 03 20 00 21  00 02 20 00 22 00 05 E4  ..... .!.. ."...
09C0: 09 06 0A 00 03 24 00 23  00 07 24 00 20 00 9D 00  .....$.#..$. ...
09D0: A7 0E 0A 00 24 00 9D 05  87 0D 0A 00 20 00 0B 20  ....$....... .. 
09E0: 00 01 B9 09 1B 06 1D 00  06 20 00 02 1E 00 07 80  ......... ......
09F0: 80 04 0A 3C 1D 00 34 80  00 80 3C 1D 00 35 80 00  ...<..4...<..5..
0A00: 80 01 0F 0A 02 1E 00 00  80 80 0F 0A 01 0F 0A 03  ................
0A10: 21 00 00 80 03 22 00 09  80 03 20 00 21 00 02 20  !....".... .!.. 
0A20: 00 22 00 05 46 0A 06 0A  00 9D 00 87 0D 0A 00 20  ."..F.......... 
0A30: 00 02 0A 00 07 80 00 40  0A 3C 1D 00 20 00 00 80  .......@.<.. ...
0A40: 0B 20 00 01 1E 0A 1B 1A  7B 0A 03 20 00 21 00 02  . ......{.. .!..
0A50: 20 00 22 00 05 7A 0A 06  0A 00 03 24 00 23 00 07   ."..z.....$.#..
0A60: 24 00 20 00 9D 00 47 0E  0A 00 24 00 9D 05 87 0D  $. ...G...$.....
0A70: 0A 00 20 00 0B 20 00 01  4F 0A 1B 06 20 00 02 20  .. .. ..O... .. 
0A80: 00 43 80 03 94 0A 9D 05  87 0D 07 80 20 00 0B 20  .C.......... .. 
0A90: 00 01 7E 0A 1B 03 21 00  00 80 03 22 00 08 80 03  ..~...!...."....
0AA0: 23 00 07 80 1A 47 0A 1B  03 21 00 00 80 03 22 00  #....G...!....".
0AB0: 11 80 03 23 00 07 80 1A  47 0A 1B 03 21 00 00 80  ...#....G...!...
0AC0: 03 22 00 11 80 03 23 00  11 80 1A 47 0A 1B 03 21  ."....#....G...!
0AD0: 00 00 80 03 22 00 11 80  03 23 00 15 80 1A 47 0A  ...."....#....G.
0AE0: 1B 06 0C 17 06 0D 17 06  0E 17 1A A8 0A 9D 00 87  ................
0AF0: 0D 0C 17 0B 00 1A BB 0A  9D 00 87 0D 0D 17 0C 00  ................
0B00: 1A CE 0A 9D 00 87 0D 0E  17 0D 00 1A 7B 0A 03 03  ............{...
0B10: 10 00 80 03 04 10 0B 80  03 05 10 28 80 02 0B 00  ...........(....
0B20: 05 00 00 28 0B 05 06 10  02 0C 00 06 00 00 33 0B  ...(..........3.
0B30: 05 07 10 02 0D 00 07 00  00 3E 0B 05 08 10 06 1D  .........>......
0B40: 00 06 08 00 03 08 00 06  10 07 08 00 07 10 07 08  ................
0B50: 00 08 10 02 08 00 07 80  02 65 0B 3D 1D 00 11 80  .........e.=....
0B60: 00 80 01 6C 0B 3C 1D 00  11 80 00 80 1B 03 21 00  ...l.<........!.
0B70: 07 80 03 22 00 29 80 1A  A8 0A 03 09 10 07 80 1A  ...".)..........
0B80: 30 0C 03 0B 00 0F 00 1B  03 21 00 11 80 03 22 00  0........!....".
0B90: 14 80 1A BB 0A 03 09 10  00 80 1A 30 0C 03 0C 00  ...........0....
0BA0: 0F 00 1B 03 21 00 15 80  03 22 00 33 80 1A CE 0A  ....!....".3....
0BB0: 03 09 10 0B 80 1A 30 0C  03 0D 00 0F 00 1B 03 21  ......0........!
0BC0: 00 07 80 03 22 00 29 80  1A A8 0A 03 09 10 07 80  ....".).........
0BD0: 06 1B 00 1A 30 0C 02 1B  00 07 80 00 E3 0B 03 0B  ....0...........
0BE0: 00 0F 00 1B 03 21 00 11  80 03 22 00 14 80 1A BB  .....!....".....
0BF0: 0A 03 09 10 00 80 06 1B  00 1A 30 0C 02 1B 00 07  ..........0.....
0C00: 80 00 09 0C 03 0C 00 0F  00 1B 03 21 00 15 80 03  ...........!....
0C10: 22 00 33 80 1A CE 0A 03  09 10 0B 80 06 1B 00 1A  ".3.............
0C20: 30 0C 02 1B 00 07 80 00  2F 0C 03 0D 00 0F 00 1B  0......./.......
0C30: 41 21 00 22 00 00 00 0F  00 0F 0F 00 2C 80 10 0F  A!."........,...
0C40: 00 00 80 03 1D 00 0F 00  24 09 00 07 80 1D 00 25  ........$......%
0C50: 02 00 10 07 80 80 5E 0C  05 1B 00 01 5E 0C 03 0F  ......^.....^...
0C60: 00 00 10 1B 1A 7B 0A 03  21 00 07 80 03 22 00 14  .....{..!...."..
0C70: 80 03 23 00 00 80 03 20  00 21 00 02 20 00 22 00  ..#.... .!.. .".
0C80: 05 A6 0C 06 0A 00 03 24  00 23 00 07 24 00 20 00  .......$.#..$. .
0C90: 9D 00 67 0D 0A 00 24 00  9D 05 87 0D 0A 00 24 00  ..g...$.......$.
0CA0: 0B 20 00 01 7B 0C 1B                              . ..{..         
```

#### Opcodes

```
  0: 0x0001 [0x1E] EventEntity looks at LocalPlayer and starts talking
  1: 0x0006 [0x06] ExtData[1]->WorkLocal[8] = 0
  2: 0x0009 [0x06] ExtData[1]->WorkLocal[10] = 0
  3: 0x000C [0x06] ExtData[1]->WorkLocal[11] = 0
  4: 0x000F [0x06] ExtData[1]->WorkLocal[12] = 0
  5: 0x0012 [0x06] ExtData[1]->WorkLocal[13] = 0
  6: 0x0015 [0x06] ExtData[1]->WorkLocal[14] = 0
  7: 0x0018 [0x06] ExtData[1]->WorkLocal[20] = 0
  8: 0x001B [0x06] ExtData[1]->WorkLocal[21] = 0
  9: 0x001E [0x06] ExtData[1]->WorkLocal[22] = 0
 10: 0x0021 [0x06] ExtData[1]->WorkLocal[25] = 0
 11: 0x0024 [0x03] ExtData[1]->WorkLocal[1] = Work_Zone[2]
 12: 0x0029 [0x03] ExtData[1]->WorkLocal[0] = Work_Zone[3]
 13: 0x002E [0x03] ExtData[1]->WorkLocal[19] = Work_Zone[6]
 14: 0x0033 [0x03] ExtData[1]->WorkLocal[23] = Work_Zone[7]
 15: 0x0038 [0x03] ExtData[1]->WorkLocal[24] = Work_Zone[8]
 16: 0x003D [0x3E] IF !(ExtData[1]->WorkLocal[1] bit 1*) GOTO 0x004E
 17: 0x0044 [0x3C] SET_BIT_FLAG_CONDITIONAL(target_work_offset=ExtData[1]->WorkLocal[25], bit_index_work_offset=1*, condition_work_offset=1*)
 18: 0x004B [0x01] GOTO 0x0082
 19: 0x004E [0x1D] PRINT_EVENT_MESSAGE(message_id=12701*)
    → "I ain't never seen no whippersnapper with your face in these parts. Say...mightn't ya've come across any simulacrum segments while ya were out thwick-thwackin' through Eastern Ulbuka?"
 20: 0x0051 [0x23] WAIT_FOR_DIALOG_INTERACTION
 21: 0x0052 [0x1D] PRINT_EVENT_MESSAGE(message_id=12702*)
    → "What you say, [sonny/missy]? You ain't know what simulacrum segments are!?"
 22: 0x0055 [0x23] WAIT_FOR_DIALOG_INTERACTION
 23: 0x0056 [0x1D] PRINT_EVENT_MESSAGE(message_id=12703*)
    → "Well, they's three of a kind. You've got your heads, your torsos, and your legs. Puttin' 'em t'gether's the 'ard part, though. Most young'uns say they ain't got no time to learn 'ow."
 24: 0x0059 [0x23] WAIT_FOR_DIALOG_INTERACTION
 25: 0x005A [0x1D] PRINT_EVENT_MESSAGE(message_id=12704*)
    → "Me, though? I've got all the time in the world. In fact, my middle name be "Time." Wait, but what was my last name...?"
 26: 0x005D [0x23] WAIT_FOR_DIALOG_INTERACTION
 27: 0x005E [0x1D] PRINT_EVENT_MESSAGE(message_id=12705*)
    → "Anyway, I makes my livin' off tinkerin' with simulacra. I'd be 'appy to build one for ya if you're willin' to slip me somethin' in return and listen to how I dun fished up a doozy of a craklaw once!"
 28: 0x0061 [0x23] WAIT_FOR_DIALOG_INTERACTION
 29: 0x0062 [0x1D] PRINT_EVENT_MESSAGE(message_id=12706*)
    → "Ya ain't gotta doubt me none with them eyes of yours, little [lad/lass]. I know these're your prop'ty. I ain't gon' steal 'em."
 30: 0x0065 [0x23] WAIT_FOR_DIALOG_INTERACTION
 31: 0x0066 [0x40] SET_BIT_WORK_RANGE(start_bit=0*, end_bit=15*, target=Work_Zone[1], source=1*)
 32: 0x006F [0x40] SET_BIT_WORK_RANGE(start_bit=16*, end_bit=31*, target=Work_Zone[1], source=0*)
 33: 0x0078 [0x43] SEND_EVENT_UPDATE: Send pending tag to server (packet 0x005B)
 34: 0x007A [0x43] SEND_EVENT_UPDATE: Check pending flag (skip if not pending)
 35: 0x007C [0x06] Work_Zone[1] = 0
 36: 0x007F [0x05] ExtData[1]->WorkLocal[20] = 1

SUBROUTINE_0082:
 37: 0x0082 [0x3E] IF !(ExtData[1]->WorkLocal[1] bit 2*) GOTO 0x0093
 38: 0x0089 [0x3C] SET_BIT_FLAG_CONDITIONAL(target_work_offset=ExtData[1]->WorkLocal[25], bit_index_work_offset=2*, condition_work_offset=1*)
 39: 0x0090 [0x01] GOTO 0x00DA
 40: 0x0093 [0x03] ExtData[1]->WorkLocal[8] = ExtData[1]->WorkLocal[19]
 41: 0x0098 [0x02] IF !(ExtData[1]->WorkLocal[8] <= 0*) GOTO 0x00DA
 42: 0x00A0 [0x1D] PRINT_EVENT_MESSAGE(message_id=12712*)
    → "My, oh my, oh my! Them obsidian fragments be twinklin' and gleamin' like spit-shined shoes. I think I sees my reflection in 'em!"
 43: 0x00A3 [0x23] WAIT_FOR_DIALOG_INTERACTION
 44: 0x00A4 [0x1D] PRINT_EVENT_MESSAGE(message_id=12713*)
    → "Sorry, I'm easily distracted these days. Where was I? Oh, yeah, did I ever tell ya how much I love buildin' simulacra?"
 45: 0x00A7 [0x23] WAIT_FOR_DIALOG_INTERACTION
 46: 0x00A8 [0x1D] PRINT_EVENT_MESSAGE(message_id=12714*)
    → "...I did? Hm...well, I also like collectin' 'em."
 47: 0x00AB [0x23] WAIT_FOR_DIALOG_INTERACTION
 48: 0x00AC [0x1D] PRINT_EVENT_MESSAGE(message_id=12715*)
    → "Iff'n you'd have a heart bigger than the Celennia Memorial Library and give me one, I'd dun make it worth your while, that's fo' sho'."
 49: 0x00AF [0x23] WAIT_FOR_DIALOG_INTERACTION
 50: 0x00B0 [0x1D] PRINT_EVENT_MESSAGE(message_id=12716*)
    → "Ya can 'ave some segments from my super-secret collection, so humor an ol' man and gimme, gimme, gimme!"
 51: 0x00B3 [0x23] WAIT_FOR_DIALOG_INTERACTION
 52: 0x00B4 [0x40] SET_BIT_WORK_RANGE(start_bit=0*, end_bit=15*, target=Work_Zone[1], source=2*)
 53: 0x00BD [0x40] SET_BIT_WORK_RANGE(start_bit=16*, end_bit=31*, target=Work_Zone[1], source=0*)
 54: 0x00C6 [0x43] SEND_EVENT_UPDATE: Send pending tag to server (packet 0x005B)
 55: 0x00C8 [0x43] SEND_EVENT_UPDATE: Check pending flag (skip if not pending)
 56: 0x00CA [0x06] ExtData[1]->WorkLocal[25] = 0
 57: 0x00CD [0x3C] SET_BIT_FLAG_CONDITIONAL(target_work_offset=ExtData[1]->WorkLocal[1], bit_index_work_offset=2*, condition_work_offset=1*)
 58: 0x00D4 [0x06] Work_Zone[1] = 0
 59: 0x00D7 [0x06] ExtData[1]->WorkLocal[20] = 0

SUBROUTINE_00DA:
 60: 0x00DA [0x02] IF !(ExtData[1]->WorkLocal[25] == 0*) GOTO 0x00E5
 61: 0x00E2 [0x01] GOTO 0x0226
 62: 0x00E5 [0x3E] IF !(ExtData[1]->WorkLocal[1] bit 5*) GOTO 0x0173
 63: 0x00EC [0x3E] IF !(ExtData[1]->WorkLocal[1] bit 7*) GOTO 0x0170
 64: 0x00F3 [0x3E] IF !(ExtData[1]->WorkLocal[1] bit 8*) GOTO 0x0139
 65: 0x00FA [0x3E] IF !(ExtData[1]->WorkLocal[1] bit 9*) GOTO 0x0136
 66: 0x0101 [0x3E] IF !(ExtData[1]->WorkLocal[1] bit 10*) GOTO 0x010B
 67: 0x0108 [0x01] GOTO 0x0136
 68: 0x010B [0x1D] PRINT_EVENT_MESSAGE(message_id=12753*)
    → "Yer sayin' that our unborn daughter was tak'n from us and that she's alive in a skirmish?"
 69: 0x010E [0x23] WAIT_FOR_DIALOG_INTERACTION
 70: 0x010F [0x1D] PRINT_EVENT_MESSAGE(message_id=12754*)
    → "I cain't even 'magine what that mus' be like for her..."
 71: 0x0112 [0x23] WAIT_FOR_DIALOG_INTERACTION
 72: 0x0113 [0x40] SET_BIT_WORK_RANGE(start_bit=0*, end_bit=15*, target=Work_Zone[1], source=9*)
 73: 0x011C [0x40] SET_BIT_WORK_RANGE(start_bit=16*, end_bit=31*, target=Work_Zone[1], source=0*)
 74: 0x0125 [0x43] SEND_EVENT_UPDATE: Send pending tag to server (packet 0x005B)
 75: 0x0127 [0x43] SEND_EVENT_UPDATE: Check pending flag (skip if not pending)
 76: 0x0129 [0x3C] SET_BIT_FLAG_CONDITIONAL(target_work_offset=ExtData[1]->WorkLocal[1], bit_index_work_offset=10*, condition_work_offset=1*)
 77: 0x0130 [0x06] Work_Zone[1] = 0
 78: 0x0133 [0x05] ExtData[1]->WorkLocal[20] = 1

SUBROUTINE_0136:
 79: 0x0136 [0x01] GOTO 0x0170
 80: 0x0139 [0x1D] PRINT_EVENT_MESSAGE(message_id=12748*)
    → "Ya've heard the whole shebang from Granny o'er there, yeah?"
 81: 0x013C [0x23] WAIT_FOR_DIALOG_INTERACTION
 82: 0x013D [0x1D] PRINT_EVENT_MESSAGE(message_id=12749*)
    → "'Course, I cain't remember gobsmack 'bout no demon."
 83: 0x0140 [0x23] WAIT_FOR_DIALOG_INTERACTION
 84: 0x0141 [0x1D] PRINT_EVENT_MESSAGE(message_id=12750*)
    → "Th'only thang I done can do is r'member a gapin' hole in my mem'ry."
 85: 0x0144 [0x23] WAIT_FOR_DIALOG_INTERACTION
 86: 0x0145 [0x1D] PRINT_EVENT_MESSAGE(message_id=12751*)
    → "Weren't so much that I couldn't set foot in skirmishes no more..."
 87: 0x0148 [0x23] WAIT_FOR_DIALOG_INTERACTION
 88: 0x0149 [0x1D] PRINT_EVENT_MESSAGE(message_id=12752*)
    → "More that I ferget what 'twas like ta live."
 89: 0x014C [0x23] WAIT_FOR_DIALOG_INTERACTION
 90: 0x014D [0x40] SET_BIT_WORK_RANGE(start_bit=0*, end_bit=15*, target=Work_Zone[1], source=8*)
 91: 0x0156 [0x40] SET_BIT_WORK_RANGE(start_bit=16*, end_bit=31*, target=Work_Zone[1], source=0*)
 92: 0x015F [0x43] SEND_EVENT_UPDATE: Send pending tag to server (packet 0x005B)
 93: 0x0161 [0x43] SEND_EVENT_UPDATE: Check pending flag (skip if not pending)
 94: 0x0163 [0x3C] SET_BIT_FLAG_CONDITIONAL(target_work_offset=ExtData[1]->WorkLocal[1], bit_index_work_offset=8*, condition_work_offset=1*)
 95: 0x016A [0x06] Work_Zone[1] = 0
 96: 0x016D [0x05] ExtData[1]->WorkLocal[20] = 1

SUBROUTINE_0170:
 97: 0x0170 [0x01] GOTO 0x01B9
 98: 0x0173 [0x3E] IF !(ExtData[1]->WorkLocal[1] bit 6*) GOTO 0x01B9
 99: 0x017A [0x02] IF !(ExtData[1]->WorkLocal[24] <= 0*) GOTO 0x01B9
100: 0x0182 [0x1D] PRINT_EVENT_MESSAGE(message_id=12742*)
    → "Ya dun found some proverbial diamonds in the rough, didja?"
101: 0x0185 [0x23] WAIT_FOR_DIALOG_INTERACTION
102: 0x0186 [0x1D] PRINT_EVENT_MESSAGE(message_id=12743*)
    → "Lemme take a gander at 'em. Hmmm... By golly, they should be fittin' tighter'n my ol' lady's britches after a Darksday brunch."
103: 0x0189 [0x23] WAIT_FOR_DIALOG_INTERACTION
104: 0x018A [0x1D] PRINT_EVENT_MESSAGE(message_id=12744*)
    → "But 'ow'n I go 'bout it be a differnt beast alt'gether. I guess I's just gots ta wing it."
105: 0x018D [0x23] WAIT_FOR_DIALOG_INTERACTION
106: 0x018E [0x1D] PRINT_EVENT_MESSAGE(message_id=12745*)
    → "If ya be wantin' me to work my magic, I'll needs me the visage, torso, legs, and..."
107: 0x0191 [0x23] WAIT_FOR_DIALOG_INTERACTION
108: 0x0192 [0x1D] PRINT_EVENT_MESSAGE(message_id=12746*)
    → "...And whatever that newfangled thingamabob segment be all at once. Ya 'ear me? All four at the same time, [sonny/missy]."
109: 0x0195 [0x23] WAIT_FOR_DIALOG_INTERACTION
110: 0x0196 [0x40] SET_BIT_WORK_RANGE(start_bit=0*, end_bit=15*, target=Work_Zone[1], source=6*)
111: 0x019F [0x40] SET_BIT_WORK_RANGE(start_bit=16*, end_bit=31*, target=Work_Zone[1], source=0*)
112: 0x01A8 [0x43] SEND_EVENT_UPDATE: Send pending tag to server (packet 0x005B)
113: 0x01AA [0x43] SEND_EVENT_UPDATE: Check pending flag (skip if not pending)
114: 0x01AC [0x3C] SET_BIT_FLAG_CONDITIONAL(target_work_offset=ExtData[1]->WorkLocal[1], bit_index_work_offset=5*, condition_work_offset=1*)
115: 0x01B3 [0x06] Work_Zone[1] = 0
116: 0x01B6 [0x05] ExtData[1]->WorkLocal[20] = 1

SUBROUTINE_01B9:
117: 0x01B9 [0x02] IF !(ExtData[1]->WorkLocal[20] == 0*) GOTO 0x0226
118: 0x01C1 [0x02] IF !(ExtData[1]->WorkLocal[0] <= 0*) GOTO 0x01E1
119: 0x01C9 [0x1D] PRINT_EVENT_MESSAGE(message_id=12708*)
    → "Hey, I remember you! You're...Smeirdlin, right? What's on the docket today?"
120: 0x01CC [0x23] WAIT_FOR_DIALOG_INTERACTION
121: 0x01CD [0x03] ExtData[1]->WorkLocal[8] = ExtData[1]->WorkLocal[19]
122: 0x01D2 [0x02] IF !(ExtData[1]->WorkLocal[8] <= 0*) GOTO 0x01DE
123: 0x01DA [0x1D] PRINT_EVENT_MESSAGE(message_id=12711*)
    → "Why, color me cockeyed! You've got some obsidian fragments on ya. Iff'n you ain't be needin' them none, 'ow 'bout floatin' some my way...purty please?"
124: 0x01DD [0x23] WAIT_FOR_DIALOG_INTERACTION
125: 0x01DE [0x01] GOTO 0x0226
126: 0x01E1 [0x02] IF !(ExtData[1]->WorkLocal[23] <= 0*) GOTO 0x020B
127: 0x01E9 [0x1D] PRINT_EVENT_MESSAGE(message_id=12709*)
    → "Well, well, well, well, well, well, well! Lookit what we've got 'ere... A natural collector, you."
128: 0x01EC [0x23] WAIT_FOR_DIALOG_INTERACTION
129: 0x01ED [0x03] ExtData[1]->WorkLocal[8] = ExtData[1]->WorkLocal[19]
130: 0x01F2 [0x02] IF !(ExtData[1]->WorkLocal[8] <= 0*) GOTO 0x0201
131: 0x01FA [0x1D] PRINT_EVENT_MESSAGE(message_id=12711*)
    → "Why, color me cockeyed! You've got some obsidian fragments on ya. Iff'n you ain't be needin' them none, 'ow 'bout floatin' some my way...purty please?"
132: 0x01FD [0x23] WAIT_FOR_DIALOG_INTERACTION
133: 0x01FE [0x01] GOTO 0x0208
134: 0x0201 [0x1D] PRINT_EVENT_MESSAGE(message_id=12710*)
    → "Iff'n you'll be needin' that slapped t'gether or whatnot, just slip it into these shaky hands o' mine."
135: 0x0204 [0x23] WAIT_FOR_DIALOG_INTERACTION
136: 0x0205 [0x05] ExtData[1]->WorkLocal[20] = 1

SUBROUTINE_0208:
137: 0x0208 [0x01] GOTO 0x0226
138: 0x020B [0x03] ExtData[1]->WorkLocal[8] = ExtData[1]->WorkLocal[19]
139: 0x0210 [0x02] IF !(ExtData[1]->WorkLocal[8] <= 0*) GOTO 0x021F
140: 0x0218 [0x1D] PRINT_EVENT_MESSAGE(message_id=12711*)
    → "Why, color me cockeyed! You've got some obsidian fragments on ya. Iff'n you ain't be needin' them none, 'ow 'bout floatin' some my way...purty please?"
141: 0x021B [0x23] WAIT_FOR_DIALOG_INTERACTION
142: 0x021C [0x01] GOTO 0x0226
143: 0x021F [0x1D] PRINT_EVENT_MESSAGE(message_id=12707*)
    → "If ya 'appen upon some simulacrum segments in the wilds of Eastern Ulbuka, couldja make an ol' man with nothin' better to do 'appy and gimme some to tinker with?"
144: 0x0222 [0x23] WAIT_FOR_DIALOG_INTERACTION
145: 0x0223 [0x05] ExtData[1]->WorkLocal[20] = 1

SUBROUTINE_0226:
146: 0x0226 [0x02] IF !(ExtData[1]->WorkLocal[0] == 0*) GOTO 0x024D
147: 0x022E [0x3C] SET_BIT_FLAG_CONDITIONAL(target_work_offset=ExtData[1]->WorkLocal[22], bit_index_work_offset=3*, condition_work_offset=1*)
148: 0x0235 [0x3C] SET_BIT_FLAG_CONDITIONAL(target_work_offset=ExtData[1]->WorkLocal[22], bit_index_work_offset=4*, condition_work_offset=1*)
149: 0x023C [0x3C] SET_BIT_FLAG_CONDITIONAL(target_work_offset=ExtData[1]->WorkLocal[22], bit_index_work_offset=1*, condition_work_offset=1*)
150: 0x0243 [0x3C] SET_BIT_FLAG_CONDITIONAL(target_work_offset=ExtData[1]->WorkLocal[22], bit_index_work_offset=2*, condition_work_offset=1*)
151: 0x024A [0x01] GOTO 0x02AF
152: 0x024D [0x3E] IF !(ExtData[1]->WorkLocal[0] bit 1*) GOTO 0x0257
153: 0x0254 [0x01] GOTO 0x0283
154: 0x0257 [0x3E] IF !(ExtData[1]->WorkLocal[0] bit 2*) GOTO 0x0261
155: 0x025E [0x01] GOTO 0x0283
156: 0x0261 [0x3E] IF !(ExtData[1]->WorkLocal[0] bit 3*) GOTO 0x026B
157: 0x0268 [0x01] GOTO 0x0283
158: 0x026B [0x3E] IF !(ExtData[1]->WorkLocal[0] bit 4*) GOTO 0x0275
159: 0x0272 [0x01] GOTO 0x0283
160: 0x0275 [0x3C] SET_BIT_FLAG_CONDITIONAL(target_work_offset=ExtData[1]->WorkLocal[22], bit_index_work_offset=1*, condition_work_offset=1*)
161: 0x027C [0x3C] SET_BIT_FLAG_CONDITIONAL(target_work_offset=ExtData[1]->WorkLocal[22], bit_index_work_offset=2*, condition_work_offset=1*)

SUBROUTINE_0283:
162: 0x0283 [0x3E] IF !(ExtData[1]->WorkLocal[0] bit 6*) GOTO 0x028D
163: 0x028A [0x01] GOTO 0x02AF
164: 0x028D [0x3E] IF !(ExtData[1]->WorkLocal[0] bit 7*) GOTO 0x0297
165: 0x0294 [0x01] GOTO 0x02AF
166: 0x0297 [0x3E] IF !(ExtData[1]->WorkLocal[0] bit 8*) GOTO 0x02A1
167: 0x029E [0x01] GOTO 0x02AF
168: 0x02A1 [0x3C] SET_BIT_FLAG_CONDITIONAL(target_work_offset=ExtData[1]->WorkLocal[22], bit_index_work_offset=3*, condition_work_offset=1*)
169: 0x02A8 [0x3C] SET_BIT_FLAG_CONDITIONAL(target_work_offset=ExtData[1]->WorkLocal[22], bit_index_work_offset=4*, condition_work_offset=1*)

SUBROUTINE_02AF:
170: 0x02AF [0x3E] IF !(ExtData[1]->WorkLocal[1] bit 2*) GOTO 0x02B9
171: 0x02B6 [0x01] GOTO 0x02C0
172: 0x02B9 [0x3C] SET_BIT_FLAG_CONDITIONAL(target_work_offset=ExtData[1]->WorkLocal[22], bit_index_work_offset=5*, condition_work_offset=1*)

SUBROUTINE_02C0:
173: 0x02C0 [0x02] IF !(ExtData[1]->WorkLocal[20] == 0*) GOTO 0x034D
174: 0x02C8 [0x24] CREATE_DIALOG(message_id=12717*, default_option=0*, option_flags=ExtData[1]->WorkLocal[22])
    → "What will you do? [Leave./Check your simulacrum./Dismantle a simulacrum./Check your eudaemon./Dismantle a eudaemon./Trade for segments from his collection.]"
175: 0x02CF [0x25] WAIT_DIALOG_SELECT()
176: 0x02D0 [0x02] IF !(Work_Zone[0] == 0*) GOTO 0x02E3
177: 0x02D8 [0x05] ExtData[1]->WorkLocal[20] = 1
178: 0x02DB [0x03] Work_Zone[1] = 1073741824*
179: 0x02E0 [0x01] GOTO 0x02E3

SUBROUTINE_02E3:
180: 0x02E3 [0x03] ExtData[1]->WorkLocal[21] = Work_Zone[0]
181: 0x02E8 [0x02] IF !(ExtData[1]->WorkLocal[20] == 0*) GOTO 0x034A
182: 0x02F0 [0x02] IF !(ExtData[1]->WorkLocal[21] == 1*) GOTO 0x0303
183: 0x02F8 [0x03] ExtData[1]->WorkLocal[26] = 0*
184: 0x02FD [0x1A] CALL_SUBROUTINE(address=0x034F)
185: 0x0300 [0x01] GOTO 0x034A
186: 0x0303 [0x02] IF !(ExtData[1]->WorkLocal[21] == 2*) GOTO 0x0316
187: 0x030B [0x03] ExtData[1]->WorkLocal[26] = 0*
188: 0x0310 [0x1A] CALL_SUBROUTINE(address=0x0799)
189: 0x0313 [0x01] GOTO 0x034A
190: 0x0316 [0x02] IF !(ExtData[1]->WorkLocal[21] == 3*) GOTO 0x0329
191: 0x031E [0x03] ExtData[1]->WorkLocal[26] = 1*
192: 0x0323 [0x1A] CALL_SUBROUTINE(address=0x034F)
193: 0x0326 [0x01] GOTO 0x034A
194: 0x0329 [0x02] IF !(ExtData[1]->WorkLocal[21] == 4*) GOTO 0x033C
195: 0x0331 [0x03] ExtData[1]->WorkLocal[26] = 1*
196: 0x0336 [0x1A] CALL_SUBROUTINE(address=0x0799)
197: 0x0339 [0x01] GOTO 0x034A
198: 0x033C [0x02] IF !(ExtData[1]->WorkLocal[21] == 5*) GOTO 0x034A
199: 0x0344 [0x1A] CALL_SUBROUTINE(address=0x0878)
200: 0x0347 [0x01] GOTO 0x034A

SUBROUTINE_034A:
201: 0x034A [0x01] GOTO 0x02C0
202: 0x034D [0x21] END_EVENT
203: 0x034E [0x00] END_REQSTACK()

SUBROUTINE_034F:
204: 0x034F [0x06] ExtData[1]->WorkLocal[27] = 0
205: 0x0352 [0x06] ExtData[1]->WorkLocal[28] = 0
206: 0x0355 [0x06] ExtData[1]->WorkLocal[29] = 0
207: 0x0358 [0x03] ExtData[1]->WorkLocal[29] = ExtData[1]->WorkLocal[0]
208: 0x035D [0x3C] SET_BIT_FLAG_CONDITIONAL(target_work_offset=ExtData[1]->WorkLocal[29], bit_index_work_offset=0*, condition_work_offset=1*)
209: 0x0364 [0x02] IF !(ExtData[1]->WorkLocal[26] == 0*) GOTO 0x038B
210: 0x036C [0x3D] CLEAR_BIT_FLAG_CONDITIONAL(target_work_offset=ExtData[1]->WorkLocal[29], bit_index_work_offset=6*, condition_work_offset=1*)
211: 0x0373 [0x3D] CLEAR_BIT_FLAG_CONDITIONAL(target_work_offset=ExtData[1]->WorkLocal[29], bit_index_work_offset=7*, condition_work_offset=1*)
212: 0x037A [0x3D] CLEAR_BIT_FLAG_CONDITIONAL(target_work_offset=ExtData[1]->WorkLocal[29], bit_index_work_offset=8*, condition_work_offset=1*)
213: 0x0381 [0x3D] CLEAR_BIT_FLAG_CONDITIONAL(target_work_offset=ExtData[1]->WorkLocal[29], bit_index_work_offset=9*, condition_work_offset=1*)
214: 0x0388 [0x01] GOTO 0x03AE
215: 0x038B [0x3D] CLEAR_BIT_FLAG_CONDITIONAL(target_work_offset=ExtData[1]->WorkLocal[29], bit_index_work_offset=1*, condition_work_offset=1*)
216: 0x0392 [0x3D] CLEAR_BIT_FLAG_CONDITIONAL(target_work_offset=ExtData[1]->WorkLocal[29], bit_index_work_offset=2*, condition_work_offset=1*)
217: 0x0399 [0x3D] CLEAR_BIT_FLAG_CONDITIONAL(target_work_offset=ExtData[1]->WorkLocal[29], bit_index_work_offset=3*, condition_work_offset=1*)
218: 0x03A0 [0x3D] CLEAR_BIT_FLAG_CONDITIONAL(target_work_offset=ExtData[1]->WorkLocal[29], bit_index_work_offset=4*, condition_work_offset=1*)
219: 0x03A7 [0x3D] CLEAR_BIT_FLAG_CONDITIONAL(target_work_offset=ExtData[1]->WorkLocal[29], bit_index_work_offset=5*, condition_work_offset=1*)

SUBROUTINE_03AE:
220: 0x03AE [0x0F] ExtData[1]->WorkLocal[29] ^= 4294967295*
221: 0x03B3 [0x03] Work_Zone[2] = ExtData[1]->WorkLocal[26]
222: 0x03B8 [0x1D] PRINT_EVENT_MESSAGE(message_id=12718*)
    → "Ya want me to have a look-see at those [simulacrum/eudaemon] pieces o' yours? Great! But which ones?"
223: 0x03BB [0x23] WAIT_FOR_DIALOG_INTERACTION
224: 0x03BC [0x1A] CALL_SUBROUTINE(address=0x0521)

SUBROUTINE_03BF:
225: 0x03BF [0x02] IF !(ExtData[1]->WorkLocal[27] == 0*) GOTO 0x0515
226: 0x03C7 [0x1A] CALL_SUBROUTINE(address=0x0C64)
227: 0x03CA [0x03] Work_Zone[2] = ExtData[1]->WorkLocal[26]
228: 0x03CF [0x24] CREATE_DIALOG(message_id=12719*, default_option=0*, option_flags=ExtData[1]->WorkLocal[29])
    → "Check which [simulacrum/eudaemon]'s segments? [None./$3./$3./$3./$3./$3./$3./$3./$3./$3.]"
229: 0x03D6 [0x25] WAIT_DIALOG_SELECT()
230: 0x03D7 [0x02] IF !(Work_Zone[0] == 0*) GOTO 0x03E5
231: 0x03DF [0x05] ExtData[1]->WorkLocal[27] = 1
232: 0x03E2 [0x01] GOTO 0x03E5

SUBROUTINE_03E5:
233: 0x03E5 [0x03] ExtData[1]->WorkLocal[28] = Work_Zone[0]
234: 0x03EA [0x02] IF !(ExtData[1]->WorkLocal[27] == 0*) GOTO 0x0512
235: 0x03F2 [0x06] ExtData[1]->WorkLocal[10] = 0
236: 0x03F5 [0x9D] ExtData[1]->WorkLocal[10] = 0x0D67[ExtData[1]->WorkLocal[28]] // Read WORD
237: 0x03FD [0x03] Work_Zone[2] = ExtData[1]->WorkLocal[10]
238: 0x0402 [0x1D] PRINT_EVENT_MESSAGE(message_id=12720*)
    → "What's that, [sonny/missy]? 3? Lessee..."
239: 0x0405 [0x23] WAIT_FOR_DIALOG_INTERACTION
240: 0x0406 [0x1A] CALL_SUBROUTINE(address=0x0577)
241: 0x0409 [0x02] IF !(ExtData[1]->WorkLocal[28] == 1*) GOTO 0x041C
242: 0x0411 [0x9D] Work_Zone[2] = 0x0DC7[ExtData[1]->WorkLocal[11]] // Read WORD
243: 0x0419 [0x01] GOTO 0x04A1
244: 0x041C [0x02] IF !(ExtData[1]->WorkLocal[28] == 2*) GOTO 0x042F
245: 0x0424 [0x9D] Work_Zone[2] = 0x0DD7[ExtData[1]->WorkLocal[11]] // Read WORD
246: 0x042C [0x01] GOTO 0x04A1
247: 0x042F [0x02] IF !(ExtData[1]->WorkLocal[28] == 3*) GOTO 0x0442
248: 0x0437 [0x9D] Work_Zone[2] = 0x0DE7[ExtData[1]->WorkLocal[11]] // Read WORD
249: 0x043F [0x01] GOTO 0x04A1
250: 0x0442 [0x02] IF !(ExtData[1]->WorkLocal[28] == 4*) GOTO 0x0455
251: 0x044A [0x9D] Work_Zone[2] = 0x0DF7[ExtData[1]->WorkLocal[11]] // Read WORD
252: 0x0452 [0x01] GOTO 0x04A1
253: 0x0455 [0x02] IF !(ExtData[1]->WorkLocal[28] == 6*) GOTO 0x0468
254: 0x045D [0x9D] Work_Zone[2] = 0x0DC7[ExtData[1]->WorkLocal[11]] // Read WORD
255: 0x0465 [0x01] GOTO 0x04A1
256: 0x0468 [0x02] IF !(ExtData[1]->WorkLocal[28] == 7*) GOTO 0x047B
257: 0x0470 [0x9D] Work_Zone[2] = 0x0DD7[ExtData[1]->WorkLocal[11]] // Read WORD
258: 0x0478 [0x01] GOTO 0x04A1
259: 0x047B [0x02] IF !(ExtData[1]->WorkLocal[28] == 8*) GOTO 0x048E
260: 0x0483 [0x9D] Work_Zone[2] = 0x0DE7[ExtData[1]->WorkLocal[11]] // Read WORD
261: 0x048B [0x01] GOTO 0x04A1
262: 0x048E [0x02] IF !(ExtData[1]->WorkLocal[28] == 9*) GOTO 0x04A1
263: 0x0496 [0x9D] Work_Zone[2] = 0x0DF7[ExtData[1]->WorkLocal[11]] // Read WORD
264: 0x049E [0x01] GOTO 0x04A1

SUBROUTINE_04A1:
265: 0x04A1 [0x1A] CALL_SUBROUTINE(address=0x0516)
266: 0x04A4 [0x9D] Work_Zone[2] = 0x0E17[ExtData[1]->WorkLocal[12]] // Read WORD
267: 0x04AC [0x1A] CALL_SUBROUTINE(address=0x0516)
268: 0x04AF [0x9D] Work_Zone[2] = 0x0E27[ExtData[1]->WorkLocal[13]] // Read WORD
269: 0x04B7 [0x1A] CALL_SUBROUTINE(address=0x0516)
270: 0x04BA [0x02] IF !(ExtData[1]->WorkLocal[28] == 6*) GOTO 0x04D0
271: 0x04C2 [0x9D] Work_Zone[2] = 0x0E37[ExtData[1]->WorkLocal[14]] // Read WORD
272: 0x04CA [0x1A] CALL_SUBROUTINE(address=0x0516)
273: 0x04CD [0x01] GOTO 0x0512
274: 0x04D0 [0x02] IF !(ExtData[1]->WorkLocal[28] == 7*) GOTO 0x04E6
275: 0x04D8 [0x9D] Work_Zone[2] = 0x0E37[ExtData[1]->WorkLocal[14]] // Read WORD
276: 0x04E0 [0x1A] CALL_SUBROUTINE(address=0x0516)
277: 0x04E3 [0x01] GOTO 0x0512
278: 0x04E6 [0x02] IF !(ExtData[1]->WorkLocal[28] == 8*) GOTO 0x04FC
279: 0x04EE [0x9D] Work_Zone[2] = 0x0E37[ExtData[1]->WorkLocal[14]] // Read WORD
280: 0x04F6 [0x1A] CALL_SUBROUTINE(address=0x0516)
281: 0x04F9 [0x01] GOTO 0x0512
282: 0x04FC [0x02] IF !(ExtData[1]->WorkLocal[28] == 9*) GOTO 0x0512
283: 0x0504 [0x9D] Work_Zone[2] = 0x0E37[ExtData[1]->WorkLocal[14]] // Read WORD
284: 0x050C [0x1A] CALL_SUBROUTINE(address=0x0516)
285: 0x050F [0x01] GOTO 0x0512

SUBROUTINE_0512:
286: 0x0512 [0x01] GOTO 0x03BF
287: 0x0515 [0x1B] RETURN

SUBROUTINE_0516:
288: 0x0516 [0x93] DISPLAY_ITEM_INFO(item_id=Work_Zone[2])
289: 0x0519 [0x48] [System] [12721*]:
    → "#!"
290: 0x051C [0x23] WAIT_FOR_DIALOG_INTERACTION
291: 0x051D [0x93] DISPLAY_ITEM_INFO(item_id=0*)
292: 0x0520 [0x1B] RETURN

SUBROUTINE_0521:
293: 0x0521 [0x02] IF !(ExtData[1]->WorkLocal[26] == 0*) GOTO 0x0551
294: 0x0529 [0x40] SET_BIT_WORK_RANGE(start_bit=0*, end_bit=15*, target=Work_Zone[1], source=3*)
295: 0x0532 [0x40] SET_BIT_WORK_RANGE(start_bit=16*, end_bit=31*, target=Work_Zone[1], source=0*)
296: 0x053B [0x43] SEND_EVENT_UPDATE: Send pending tag to server (packet 0x005B)
297: 0x053D [0x43] SEND_EVENT_UPDATE: Check pending flag (skip if not pending)
298: 0x053F [0x03] ExtData[1]->WorkLocal[17] = Work_Zone[4]
299: 0x0544 [0x03] ExtData[1]->WorkLocal[18] = Work_Zone[5]
300: 0x0549 [0x03] ExtData[1]->WorkLocal[19] = Work_Zone[6]
301: 0x054E [0x01] GOTO 0x0576
302: 0x0551 [0x40] SET_BIT_WORK_RANGE(start_bit=0*, end_bit=15*, target=Work_Zone[1], source=7*)
303: 0x055A [0x40] SET_BIT_WORK_RANGE(start_bit=16*, end_bit=31*, target=Work_Zone[1], source=0*)
304: 0x0563 [0x43] SEND_EVENT_UPDATE: Send pending tag to server (packet 0x005B)
305: 0x0565 [0x43] SEND_EVENT_UPDATE: Check pending flag (skip if not pending)
306: 0x0567 [0x03] ExtData[1]->WorkLocal[17] = Work_Zone[4]
307: 0x056C [0x03] ExtData[1]->WorkLocal[18] = Work_Zone[5]
308: 0x0571 [0x03] ExtData[1]->WorkLocal[19] = Work_Zone[6]

SUBROUTINE_0576:
309: 0x0576 [0x1B] RETURN

SUBROUTINE_0577:
310: 0x0577 [0x06] ExtData[1]->WorkLocal[11] = 0
311: 0x057A [0x06] ExtData[1]->WorkLocal[12] = 0
312: 0x057D [0x06] ExtData[1]->WorkLocal[13] = 0
313: 0x0580 [0x06] ExtData[1]->WorkLocal[14] = 0
314: 0x0583 [0x02] IF !(ExtData[1]->WorkLocal[28] == 1*) GOTO 0x05C7
315: 0x058B [0x03] ExtData[1]->WorkLocal[33] = 0*
316: 0x0590 [0x03] ExtData[1]->WorkLocal[34] = 2*
317: 0x0595 [0x41] ExtData[1]->WorkLocal[11] = ExtData[1]->WorkLocal[17] (bits ExtData[1]->WorkLocal[33]-ExtData[1]->WorkLocal[34])
318: 0x059E [0x03] ExtData[1]->WorkLocal[33] = 3*
319: 0x05A3 [0x03] ExtData[1]->WorkLocal[34] = 5*
320: 0x05A8 [0x41] ExtData[1]->WorkLocal[12] = ExtData[1]->WorkLocal[17] (bits ExtData[1]->WorkLocal[33]-ExtData[1]->WorkLocal[34])
321: 0x05B1 [0x03] ExtData[1]->WorkLocal[33] = 6*
322: 0x05B6 [0x03] ExtData[1]->WorkLocal[34] = 8*
323: 0x05BB [0x41] ExtData[1]->WorkLocal[13] = ExtData[1]->WorkLocal[17] (bits ExtData[1]->WorkLocal[33]-ExtData[1]->WorkLocal[34])
324: 0x05C4 [0x01] GOTO 0x0798
325: 0x05C7 [0x02] IF !(ExtData[1]->WorkLocal[28] == 2*) GOTO 0x060B
326: 0x05CF [0x03] ExtData[1]->WorkLocal[33] = 9*
327: 0x05D4 [0x03] ExtData[1]->WorkLocal[34] = 11*
328: 0x05D9 [0x41] ExtData[1]->WorkLocal[11] = ExtData[1]->WorkLocal[17] (bits ExtData[1]->WorkLocal[33]-ExtData[1]->WorkLocal[34])
329: 0x05E2 [0x03] ExtData[1]->WorkLocal[33] = 12*
330: 0x05E7 [0x03] ExtData[1]->WorkLocal[34] = 14*
331: 0x05EC [0x41] ExtData[1]->WorkLocal[12] = ExtData[1]->WorkLocal[17] (bits ExtData[1]->WorkLocal[33]-ExtData[1]->WorkLocal[34])
332: 0x05F5 [0x03] ExtData[1]->WorkLocal[33] = 15*
333: 0x05FA [0x03] ExtData[1]->WorkLocal[34] = 17*
334: 0x05FF [0x41] ExtData[1]->WorkLocal[13] = ExtData[1]->WorkLocal[17] (bits ExtData[1]->WorkLocal[33]-ExtData[1]->WorkLocal[34])
335: 0x0608 [0x01] GOTO 0x0798
336: 0x060B [0x02] IF !(ExtData[1]->WorkLocal[28] == 3*) GOTO 0x064F
337: 0x0613 [0x03] ExtData[1]->WorkLocal[33] = 18*
338: 0x0618 [0x03] ExtData[1]->WorkLocal[34] = 20*
339: 0x061D [0x41] ExtData[1]->WorkLocal[11] = ExtData[1]->WorkLocal[17] (bits ExtData[1]->WorkLocal[33]-ExtData[1]->WorkLocal[34])
340: 0x0626 [0x03] ExtData[1]->WorkLocal[33] = 21*
341: 0x062B [0x03] ExtData[1]->WorkLocal[34] = 23*
342: 0x0630 [0x41] ExtData[1]->WorkLocal[12] = ExtData[1]->WorkLocal[17] (bits ExtData[1]->WorkLocal[33]-ExtData[1]->WorkLocal[34])
343: 0x0639 [0x03] ExtData[1]->WorkLocal[33] = 24*
344: 0x063E [0x03] ExtData[1]->WorkLocal[34] = 26*
345: 0x0643 [0x41] ExtData[1]->WorkLocal[13] = ExtData[1]->WorkLocal[17] (bits ExtData[1]->WorkLocal[33]-ExtData[1]->WorkLocal[34])
346: 0x064C [0x01] GOTO 0x0798
347: 0x064F [0x02] IF !(ExtData[1]->WorkLocal[28] == 4*) GOTO 0x0693
348: 0x0657 [0x03] ExtData[1]->WorkLocal[33] = 0*
349: 0x065C [0x03] ExtData[1]->WorkLocal[34] = 2*
350: 0x0661 [0x41] ExtData[1]->WorkLocal[11] = ExtData[1]->WorkLocal[18] (bits ExtData[1]->WorkLocal[33]-ExtData[1]->WorkLocal[34])
351: 0x066A [0x03] ExtData[1]->WorkLocal[33] = 3*
352: 0x066F [0x03] ExtData[1]->WorkLocal[34] = 5*
353: 0x0674 [0x41] ExtData[1]->WorkLocal[12] = ExtData[1]->WorkLocal[18] (bits ExtData[1]->WorkLocal[33]-ExtData[1]->WorkLocal[34])
354: 0x067D [0x03] ExtData[1]->WorkLocal[33] = 6*
355: 0x0682 [0x03] ExtData[1]->WorkLocal[34] = 8*
356: 0x0687 [0x41] ExtData[1]->WorkLocal[13] = ExtData[1]->WorkLocal[18] (bits ExtData[1]->WorkLocal[33]-ExtData[1]->WorkLocal[34])
357: 0x0690 [0x01] GOTO 0x0798
358: 0x0693 [0x02] IF !(ExtData[1]->WorkLocal[28] == 6*) GOTO 0x06EA
359: 0x069B [0x03] ExtData[1]->WorkLocal[33] = 0*
360: 0x06A0 [0x03] ExtData[1]->WorkLocal[34] = 2*
361: 0x06A5 [0x41] ExtData[1]->WorkLocal[11] = ExtData[1]->WorkLocal[17] (bits ExtData[1]->WorkLocal[33]-ExtData[1]->WorkLocal[34])
362: 0x06AE [0x03] ExtData[1]->WorkLocal[33] = 3*
363: 0x06B3 [0x03] ExtData[1]->WorkLocal[34] = 5*
364: 0x06B8 [0x41] ExtData[1]->WorkLocal[12] = ExtData[1]->WorkLocal[17] (bits ExtData[1]->WorkLocal[33]-ExtData[1]->WorkLocal[34])
365: 0x06C1 [0x03] ExtData[1]->WorkLocal[33] = 6*
366: 0x06C6 [0x03] ExtData[1]->WorkLocal[34] = 8*
367: 0x06CB [0x41] ExtData[1]->WorkLocal[13] = ExtData[1]->WorkLocal[17] (bits ExtData[1]->WorkLocal[33]-ExtData[1]->WorkLocal[34])
368: 0x06D4 [0x03] ExtData[1]->WorkLocal[33] = 9*
369: 0x06D9 [0x03] ExtData[1]->WorkLocal[34] = 11*
370: 0x06DE [0x41] ExtData[1]->WorkLocal[14] = ExtData[1]->WorkLocal[18] (bits ExtData[1]->WorkLocal[33]-ExtData[1]->WorkLocal[34])
371: 0x06E7 [0x01] GOTO 0x0798
372: 0x06EA [0x02] IF !(ExtData[1]->WorkLocal[28] == 7*) GOTO 0x0741
373: 0x06F2 [0x03] ExtData[1]->WorkLocal[33] = 9*
374: 0x06F7 [0x03] ExtData[1]->WorkLocal[34] = 11*
375: 0x06FC [0x41] ExtData[1]->WorkLocal[11] = ExtData[1]->WorkLocal[17] (bits ExtData[1]->WorkLocal[33]-ExtData[1]->WorkLocal[34])
376: 0x0705 [0x03] ExtData[1]->WorkLocal[33] = 12*
377: 0x070A [0x03] ExtData[1]->WorkLocal[34] = 14*
378: 0x070F [0x41] ExtData[1]->WorkLocal[12] = ExtData[1]->WorkLocal[17] (bits ExtData[1]->WorkLocal[33]-ExtData[1]->WorkLocal[34])
379: 0x0718 [0x03] ExtData[1]->WorkLocal[33] = 15*
380: 0x071D [0x03] ExtData[1]->WorkLocal[34] = 17*
381: 0x0722 [0x41] ExtData[1]->WorkLocal[13] = ExtData[1]->WorkLocal[17] (bits ExtData[1]->WorkLocal[33]-ExtData[1]->WorkLocal[34])
382: 0x072B [0x03] ExtData[1]->WorkLocal[33] = 12*
383: 0x0730 [0x03] ExtData[1]->WorkLocal[34] = 14*
384: 0x0735 [0x41] ExtData[1]->WorkLocal[14] = ExtData[1]->WorkLocal[18] (bits ExtData[1]->WorkLocal[33]-ExtData[1]->WorkLocal[34])
385: 0x073E [0x01] GOTO 0x0798
386: 0x0741 [0x02] IF !(ExtData[1]->WorkLocal[28] == 8*) GOTO 0x0798
387: 0x0749 [0x03] ExtData[1]->WorkLocal[33] = 18*
388: 0x074E [0x03] ExtData[1]->WorkLocal[34] = 20*
389: 0x0753 [0x41] ExtData[1]->WorkLocal[11] = ExtData[1]->WorkLocal[17] (bits ExtData[1]->WorkLocal[33]-ExtData[1]->WorkLocal[34])
390: 0x075C [0x03] ExtData[1]->WorkLocal[33] = 21*
391: 0x0761 [0x03] ExtData[1]->WorkLocal[34] = 23*
392: 0x0766 [0x41] ExtData[1]->WorkLocal[12] = ExtData[1]->WorkLocal[17] (bits ExtData[1]->WorkLocal[33]-ExtData[1]->WorkLocal[34])
393: 0x076F [0x03] ExtData[1]->WorkLocal[33] = 24*
394: 0x0774 [0x03] ExtData[1]->WorkLocal[34] = 26*
395: 0x0779 [0x41] ExtData[1]->WorkLocal[13] = ExtData[1]->WorkLocal[17] (bits ExtData[1]->WorkLocal[33]-ExtData[1]->WorkLocal[34])
396: 0x0782 [0x03] ExtData[1]->WorkLocal[33] = 15*
397: 0x0787 [0x03] ExtData[1]->WorkLocal[34] = 17*
398: 0x078C [0x41] ExtData[1]->WorkLocal[14] = ExtData[1]->WorkLocal[18] (bits ExtData[1]->WorkLocal[33]-ExtData[1]->WorkLocal[34])
399: 0x0795 [0x01] GOTO 0x0798

SUBROUTINE_0798:
400: 0x0798 [0x1B] RETURN

SUBROUTINE_0799:
401: 0x0799 [0x06] ExtData[1]->WorkLocal[27] = 0
402: 0x079C [0x06] ExtData[1]->WorkLocal[28] = 0
403: 0x079F [0x06] ExtData[1]->WorkLocal[29] = 0
404: 0x07A2 [0x03] ExtData[1]->WorkLocal[29] = ExtData[1]->WorkLocal[0]
405: 0x07A7 [0x3C] SET_BIT_FLAG_CONDITIONAL(target_work_offset=ExtData[1]->WorkLocal[29], bit_index_work_offset=0*, condition_work_offset=1*)
406: 0x07AE [0x02] IF !(ExtData[1]->WorkLocal[26] == 0*) GOTO 0x07D5
407: 0x07B6 [0x3D] CLEAR_BIT_FLAG_CONDITIONAL(target_work_offset=ExtData[1]->WorkLocal[29], bit_index_work_offset=6*, condition_work_offset=1*)
408: 0x07BD [0x3D] CLEAR_BIT_FLAG_CONDITIONAL(target_work_offset=ExtData[1]->WorkLocal[29], bit_index_work_offset=7*, condition_work_offset=1*)
409: 0x07C4 [0x3D] CLEAR_BIT_FLAG_CONDITIONAL(target_work_offset=ExtData[1]->WorkLocal[29], bit_index_work_offset=8*, condition_work_offset=1*)
410: 0x07CB [0x3D] CLEAR_BIT_FLAG_CONDITIONAL(target_work_offset=ExtData[1]->WorkLocal[29], bit_index_work_offset=9*, condition_work_offset=1*)
411: 0x07D2 [0x01] GOTO 0x07F8
412: 0x07D5 [0x3D] CLEAR_BIT_FLAG_CONDITIONAL(target_work_offset=ExtData[1]->WorkLocal[29], bit_index_work_offset=1*, condition_work_offset=1*)
413: 0x07DC [0x3D] CLEAR_BIT_FLAG_CONDITIONAL(target_work_offset=ExtData[1]->WorkLocal[29], bit_index_work_offset=2*, condition_work_offset=1*)
414: 0x07E3 [0x3D] CLEAR_BIT_FLAG_CONDITIONAL(target_work_offset=ExtData[1]->WorkLocal[29], bit_index_work_offset=3*, condition_work_offset=1*)
415: 0x07EA [0x3D] CLEAR_BIT_FLAG_CONDITIONAL(target_work_offset=ExtData[1]->WorkLocal[29], bit_index_work_offset=4*, condition_work_offset=1*)
416: 0x07F1 [0x3D] CLEAR_BIT_FLAG_CONDITIONAL(target_work_offset=ExtData[1]->WorkLocal[29], bit_index_work_offset=5*, condition_work_offset=1*)

SUBROUTINE_07F8:
417: 0x07F8 [0x0F] ExtData[1]->WorkLocal[29] ^= 4294967295*
418: 0x07FD [0x03] Work_Zone[2] = ExtData[1]->WorkLocal[26]
419: 0x0802 [0x1D] PRINT_EVENT_MESSAGE(message_id=12722*)
    → "Did I 'ear ya say "dismantle"? I guess I cain't say "They don't make 'em like they used to," because no one makes 'em anymore! Anyway, that's what these segments are for."
420: 0x0805 [0x23] WAIT_FOR_DIALOG_INTERACTION

SUBROUTINE_0806:
421: 0x0806 [0x02] IF !(ExtData[1]->WorkLocal[27] == 0*) GOTO 0x0877
422: 0x080E [0x1A] CALL_SUBROUTINE(address=0x0C64)
423: 0x0811 [0x03] Work_Zone[2] = ExtData[1]->WorkLocal[26]
424: 0x0816 [0x24] CREATE_DIALOG(message_id=12723*, default_option=0*, option_flags=ExtData[1]->WorkLocal[29])
    → "Dismantle which [simulacrum/eudaemon]? [None./$3./$3./$3./$3./$3./$3./$3./$3./$3.]"
425: 0x081D [0x25] WAIT_DIALOG_SELECT()
426: 0x081E [0x02] IF !(Work_Zone[0] == 0*) GOTO 0x082C
427: 0x0826 [0x05] ExtData[1]->WorkLocal[27] = 1
428: 0x0829 [0x01] GOTO 0x082C

SUBROUTINE_082C:
429: 0x082C [0x03] ExtData[1]->WorkLocal[28] = Work_Zone[0]
430: 0x0831 [0x02] IF !(ExtData[1]->WorkLocal[27] == 0*) GOTO 0x0874
431: 0x0839 [0x06] ExtData[1]->WorkLocal[10] = 0
432: 0x083C [0x9D] ExtData[1]->WorkLocal[10] = 0x0D67[ExtData[1]->WorkLocal[28]] // Read WORD
433: 0x0844 [0x03] Work_Zone[2] = ExtData[1]->WorkLocal[10]
434: 0x0849 [0x24] CREATE_DIALOG(message_id=12724*, default_option=1*, option_flags=0*)
    → "Dismantle $3? [You heard me./Whoops! No, thanks.]"
435: 0x0850 [0x25] WAIT_DIALOG_SELECT()
436: 0x0851 [0x02] IF !(Work_Zone[0] == 0*) GOTO 0x0874
437: 0x0859 [0x05] ExtData[1]->WorkLocal[27] = 1
438: 0x085C [0x05] ExtData[1]->WorkLocal[20] = 1
439: 0x085F [0x40] SET_BIT_WORK_RANGE(start_bit=0*, end_bit=15*, target=Work_Zone[1], source=4*)
440: 0x0868 [0x40] SET_BIT_WORK_RANGE(start_bit=16*, end_bit=31*, target=Work_Zone[1], source=ExtData[1]->WorkLocal[28])
441: 0x0871 [0x01] GOTO 0x0874

SUBROUTINE_0874:
442: 0x0874 [0x01] GOTO 0x0806
443: 0x0877 [0x1B] RETURN

SUBROUTINE_0878:
444: 0x0878 [0x06] ExtData[1]->WorkLocal[27] = 0
445: 0x087B [0x06] ExtData[1]->WorkLocal[28] = 0
446: 0x087E [0x06] ExtData[1]->WorkLocal[30] = 0
447: 0x0881 [0x1D] PRINT_EVENT_MESSAGE(message_id=12727*)
    → "You brought some obsidian fragments for me!? Ya shouldn't have...but I'm so glad ya did! Take anythin' ya want. Anythin' at all!"
448: 0x0884 [0x23] WAIT_FOR_DIALOG_INTERACTION

SUBROUTINE_0885:
449: 0x0885 [0x02] IF !(ExtData[1]->WorkLocal[27] == 0*) GOTO 0x0936
450: 0x088D [0x1A] CALL_SUBROUTINE(address=0x0937)
451: 0x0890 [0x1A] CALL_SUBROUTINE(address=0x09E5)
452: 0x0893 [0x03] Work_Zone[2] = ExtData[1]->WorkLocal[19]
453: 0x0898 [0x24] CREATE_DIALOG(message_id=12728*, default_option=ExtData[1]->WorkLocal[28], option_flags=ExtData[1]->WorkLocal[29])
    → "Select a segment. ($0 fragment[/s]) [No, thanks./$1. ($17 needed)/$2. ($18 needed)/$3. ($19 needed)/$4. ($20 needed)/$5. ($21 needed)/$6. ($22 needed)/$7. ($23 needed)/$8. ($24 needed)/$9. ($25 needed)/$10. ($26 needed)/$11. ($27 needed)/$12. ($28 needed)/$13. ($29 needed)/$14. ($30 needed)/$15. ($31 needed)/$16. ($ needed)/Previous page./Next page.]"
454: 0x089F [0x25] WAIT_DIALOG_SELECT()
455: 0x08A0 [0x02] IF !(Work_Zone[0] == 0*) GOTO 0x08AE
456: 0x08A8 [0x05] ExtData[1]->WorkLocal[27] = 1
457: 0x08AB [0x01] GOTO 0x08CA
458: 0x08AE [0x02] IF !(Work_Zone[0] == 17*) GOTO 0x08BC
459: 0x08B6 [0x0C] ExtData[1]->WorkLocal[30]--
460: 0x08B9 [0x01] GOTO 0x08CA
461: 0x08BC [0x02] IF !(Work_Zone[0] == 18*) GOTO 0x08CA
462: 0x08C4 [0x0B] ExtData[1]->WorkLocal[30]++
463: 0x08C7 [0x01] GOTO 0x08CA

SUBROUTINE_08CA:
464: 0x08CA [0x03] ExtData[1]->WorkLocal[28] = Work_Zone[0]
465: 0x08CF [0x02] IF !(ExtData[1]->WorkLocal[28] >= 17*) GOTO 0x092E
466: 0x08D7 [0x02] IF !(ExtData[1]->WorkLocal[27] == 0*) GOTO 0x092B
467: 0x08DF [0x03] ExtData[1]->WorkLocal[8] = Work_Zone[2]
468: 0x08E4 [0x9D] ExtData[1]->WorkLocal[10] = 0x0D87[ExtData[1]->WorkLocal[28]] // Read WORD
469: 0x08EC [0x03] Work_Zone[2] = ExtData[1]->WorkLocal[10]
470: 0x08F1 [0x93] DISPLAY_ITEM_INFO(item_id=Work_Zone[2])
471: 0x08F4 [0x1D] PRINT_EVENT_MESSAGE(message_id=12729*)
    → "What a beaut, this $0. You'll give 'er a good 'ome, won't ya?"
472: 0x08F7 [0x23] WAIT_FOR_DIALOG_INTERACTION
473: 0x08F8 [0x93] DISPLAY_ITEM_INFO(item_id=0*)
474: 0x08FB [0x24] CREATE_DIALOG(message_id=12730*, default_option=1*, option_flags=0*)
    → "Give $0 a good home? [With pleasure./I'd rather not.]"
475: 0x0902 [0x25] WAIT_DIALOG_SELECT()
476: 0x0903 [0x02] IF !(Work_Zone[0] == 0*) GOTO 0x0926
477: 0x090B [0x05] ExtData[1]->WorkLocal[27] = 1
478: 0x090E [0x05] ExtData[1]->WorkLocal[20] = 1
479: 0x0911 [0x40] SET_BIT_WORK_RANGE(start_bit=0*, end_bit=15*, target=Work_Zone[1], source=5*)
480: 0x091A [0x40] SET_BIT_WORK_RANGE(start_bit=16*, end_bit=31*, target=Work_Zone[1], source=ExtData[1]->WorkLocal[28])
481: 0x0923 [0x01] GOTO 0x0926

SUBROUTINE_0926:
482: 0x0926 [0x03] Work_Zone[2] = ExtData[1]->WorkLocal[8]
483: 0x092B [0x01] GOTO 0x0933
484: 0x092E [0x03] ExtData[1]->WorkLocal[28] = 0*

SUBROUTINE_0933:
485: 0x0933 [0x01] GOTO 0x0885
486: 0x0936 [0x1B] RETURN

SUBROUTINE_0937:
487: 0x0937 [0x1A] CALL_SUBROUTINE(address=0x0A7B)
488: 0x093A [0x02] IF !(ExtData[1]->WorkLocal[30] == 0*) GOTO 0x0954
489: 0x0942 [0x03] ExtData[1]->WorkLocal[33] = 1*
490: 0x0947 [0x03] ExtData[1]->WorkLocal[34] = 5*
491: 0x094C [0x03] ExtData[1]->WorkLocal[35] = 0*
492: 0x0951 [0x01] GOTO 0x095F
493: 0x0954 [0x02] IF !(ExtData[1]->WorkLocal[30] == 1*) GOTO 0x095F
494: 0x095C [0x01] GOTO 0x095F

SUBROUTINE_095F:
495: 0x095F [0x03] ExtData[1]->WorkLocal[32] = ExtData[1]->WorkLocal[33]

SUBROUTINE_0964:
496: 0x0964 [0x02] IF !(ExtData[1]->WorkLocal[32] > ExtData[1]->WorkLocal[34]) GOTO 0x098F
497: 0x096C [0x06] ExtData[1]->WorkLocal[10] = 0
498: 0x096F [0x03] ExtData[1]->WorkLocal[36] = ExtData[1]->WorkLocal[35]
499: 0x0974 [0x07] ExtData[1]->WorkLocal[36] += ExtData[1]->WorkLocal[32]
500: 0x0979 [0x9D] ExtData[1]->WorkLocal[10] = 0x0E97[ExtData[1]->WorkLocal[36]] // Read WORD
501: 0x0981 [0x9D] 0x0D87[ExtData[1]->WorkLocal[32] * 2] = ExtData[1]->WorkLocal[10] // Write WORD
502: 0x0989 [0x0B] ExtData[1]->WorkLocal[32]++
503: 0x098C [0x01] GOTO 0x0964
504: 0x098F [0x02] IF !(ExtData[1]->WorkLocal[30] == 0*) GOTO 0x09A9
505: 0x0997 [0x03] ExtData[1]->WorkLocal[33] = 17*
506: 0x099C [0x03] ExtData[1]->WorkLocal[34] = 21*
507: 0x09A1 [0x03] ExtData[1]->WorkLocal[35] = 4294967280*
508: 0x09A6 [0x01] GOTO 0x09B4
509: 0x09A9 [0x02] IF !(ExtData[1]->WorkLocal[30] == 1*) GOTO 0x09B4
510: 0x09B1 [0x01] GOTO 0x09B4

SUBROUTINE_09B4:
511: 0x09B4 [0x03] ExtData[1]->WorkLocal[32] = ExtData[1]->WorkLocal[33]

SUBROUTINE_09B9:
512: 0x09B9 [0x02] IF !(ExtData[1]->WorkLocal[32] > ExtData[1]->WorkLocal[34]) GOTO 0x09E4
513: 0x09C1 [0x06] ExtData[1]->WorkLocal[10] = 0
514: 0x09C4 [0x03] ExtData[1]->WorkLocal[36] = ExtData[1]->WorkLocal[35]
515: 0x09C9 [0x07] ExtData[1]->WorkLocal[36] += ExtData[1]->WorkLocal[32]
516: 0x09CE [0x9D] ExtData[1]->WorkLocal[10] = 0x0EA7[ExtData[1]->WorkLocal[36]] // Read WORD
517: 0x09D6 [0x9D] 0x0D87[ExtData[1]->WorkLocal[32] * 2] = ExtData[1]->WorkLocal[10] // Write WORD
518: 0x09DE [0x0B] ExtData[1]->WorkLocal[32]++
519: 0x09E1 [0x01] GOTO 0x09B9
520: 0x09E4 [0x1B] RETURN

SUBROUTINE_09E5:
521: 0x09E5 [0x06] ExtData[1]->WorkLocal[29] = 0
522: 0x09E8 [0x06] ExtData[1]->WorkLocal[32] = 0
523: 0x09EB [0x02] IF !(ExtData[1]->WorkLocal[30] == 0*) GOTO 0x0A04
524: 0x09F3 [0x3C] SET_BIT_FLAG_CONDITIONAL(target_work_offset=ExtData[1]->WorkLocal[29], bit_index_work_offset=17*, condition_work_offset=1*)
525: 0x09FA [0x3C] SET_BIT_FLAG_CONDITIONAL(target_work_offset=ExtData[1]->WorkLocal[29], bit_index_work_offset=18*, condition_work_offset=1*)
526: 0x0A01 [0x01] GOTO 0x0A0F
527: 0x0A04 [0x02] IF !(ExtData[1]->WorkLocal[30] == 1*) GOTO 0x0A0F
528: 0x0A0C [0x01] GOTO 0x0A0F

SUBROUTINE_0A0F:
529: 0x0A0F [0x03] ExtData[1]->WorkLocal[33] = 1*
530: 0x0A14 [0x03] ExtData[1]->WorkLocal[34] = 16*
531: 0x0A19 [0x03] ExtData[1]->WorkLocal[32] = ExtData[1]->WorkLocal[33]

SUBROUTINE_0A1E:
532: 0x0A1E [0x02] IF !(ExtData[1]->WorkLocal[32] > ExtData[1]->WorkLocal[34]) GOTO 0x0A46
533: 0x0A26 [0x06] ExtData[1]->WorkLocal[10] = 0
534: 0x0A29 [0x9D] ExtData[1]->WorkLocal[10] = 0x0D87[ExtData[1]->WorkLocal[32]] // Read WORD
535: 0x0A31 [0x02] IF !(ExtData[1]->WorkLocal[10] == 0*) GOTO 0x0A40
536: 0x0A39 [0x3C] SET_BIT_FLAG_CONDITIONAL(target_work_offset=ExtData[1]->WorkLocal[29], bit_index_work_offset=ExtData[1]->WorkLocal[32], condition_work_offset=1*)
537: 0x0A40 [0x0B] ExtData[1]->WorkLocal[32]++
538: 0x0A43 [0x01] GOTO 0x0A1E
539: 0x0A46 [0x1B] RETURN

SUBROUTINE_0A7B:
540: 0x0A7B [0x06] ExtData[1]->WorkLocal[32] = 0

SUBROUTINE_0A7E:
541: 0x0A7E [0x02] IF !(ExtData[1]->WorkLocal[32] >= 32*) GOTO 0x0A94
542: 0x0A86 [0x9D] 0x0D87[ExtData[1]->WorkLocal[32] * 2] = 0* // Write WORD
543: 0x0A8E [0x0B] ExtData[1]->WorkLocal[32]++
544: 0x0A91 [0x01] GOTO 0x0A7E
545: 0x0A94 [0x1B] RETURN

SUBROUTINE_0C64:
546: 0x0C64 [0x1A] CALL_SUBROUTINE(address=0x0A7B)
547: 0x0C67 [0x03] ExtData[1]->WorkLocal[33] = 0*
548: 0x0C6C [0x03] ExtData[1]->WorkLocal[34] = 9*
549: 0x0C71 [0x03] ExtData[1]->WorkLocal[35] = 1*
550: 0x0C76 [0x03] ExtData[1]->WorkLocal[32] = ExtData[1]->WorkLocal[33]

SUBROUTINE_0C7B:
551: 0x0C7B [0x02] IF !(ExtData[1]->WorkLocal[32] > ExtData[1]->WorkLocal[34]) GOTO 0x0CA6
552: 0x0C83 [0x06] ExtData[1]->WorkLocal[10] = 0
553: 0x0C86 [0x03] ExtData[1]->WorkLocal[36] = ExtData[1]->WorkLocal[35]
554: 0x0C8B [0x07] ExtData[1]->WorkLocal[36] += ExtData[1]->WorkLocal[32]
555: 0x0C90 [0x9D] ExtData[1]->WorkLocal[10] = 0x0D67[ExtData[1]->WorkLocal[36]] // Read WORD
556: 0x0C98 [0x9D] 0x0D87[ExtData[1]->WorkLocal[36] * 2] = ExtData[1]->WorkLocal[10] // Write WORD
557: 0x0CA0 [0x0B] ExtData[1]->WorkLocal[32]++
558: 0x0CA3 [0x01] GOTO 0x0C7B
559: 0x0CA6 [0x1B] RETURN
```

#### Data or dead code:

```
# Dead code (unreachable instructions):
     0x0A47 [0x1A] CALL_SUBROUTINE(address=0x0A7B)
     0x0A4A [0x03] ExtData[1]->WorkLocal[32] = ExtData[1]->WorkLocal[33]
     0x0A4F [0x02] IF !(ExtData[1]->WorkLocal[32] > ExtData[1]->WorkLocal[34]) GOTO 0x0A7A
     0x0A57 [0x06] ExtData[1]->WorkLocal[10] = 0
     0x0A5A [0x03] ExtData[1]->WorkLocal[36] = ExtData[1]->WorkLocal[35]
     0x0A5F [0x07] ExtData[1]->WorkLocal[36] += ExtData[1]->WorkLocal[32]
     0x0A64 [0x9D] ExtData[1]->WorkLocal[10] = 0x0E47[ExtData[1]->WorkLocal[36]] // Read WORD
     0x0A6C [0x9D] 0x0D87[ExtData[1]->WorkLocal[32] * 2] = ExtData[1]->WorkLocal[10] // Write WORD
     0x0A74 [0x0B] ExtData[1]->WorkLocal[32]++
     0x0A77 [0x01] GOTO 0x0A4F
     0x0A7A [0x1B] RETURN
# Dead code (unreachable instructions):
     0x0A95 [0x03] ExtData[1]->WorkLocal[33] = 1*
     0x0A9A [0x03] ExtData[1]->WorkLocal[34] = 15*
     0x0A9F [0x03] ExtData[1]->WorkLocal[35] = 0*
     0x0AA4 [0x1A] CALL_SUBROUTINE(address=0x0A47)
     0x0AA7 [0x1B] RETURN
     0x0AA8 [0x03] ExtData[1]->WorkLocal[33] = 1*
     0x0AAD [0x03] ExtData[1]->WorkLocal[34] = 5*
     0x0AB2 [0x03] ExtData[1]->WorkLocal[35] = 0*
     0x0AB7 [0x1A] CALL_SUBROUTINE(address=0x0A47)
     0x0ABA [0x1B] RETURN
     0x0ABB [0x03] ExtData[1]->WorkLocal[33] = 1*
     0x0AC0 [0x03] ExtData[1]->WorkLocal[34] = 5*
     0x0AC5 [0x03] ExtData[1]->WorkLocal[35] = 5*
     0x0ACA [0x1A] CALL_SUBROUTINE(address=0x0A47)
     0x0ACD [0x1B] RETURN
     0x0ACE [0x03] ExtData[1]->WorkLocal[33] = 1*
     0x0AD3 [0x03] ExtData[1]->WorkLocal[34] = 5*
     0x0AD8 [0x03] ExtData[1]->WorkLocal[35] = 10*
     0x0ADD [0x1A] CALL_SUBROUTINE(address=0x0A47)
     0x0AE0 [0x1B] RETURN
     0x0AE1 [0x06] Work_Zone_1700[12] = 0
     0x0AE4 [0x06] Work_Zone_1700[13] = 0
     0x0AE7 [0x06] Work_Zone_1700[14] = 0
     0x0AEA [0x1A] CALL_SUBROUTINE(address=0x0AA8)
     0x0AED [0x9D] Work_Zone_1700[12] = 0x0D87[ExtData[1]->WorkLocal[11]] // Read WORD
     0x0AF5 [0x1A] CALL_SUBROUTINE(address=0x0ABB)
     0x0AF8 [0x9D] Work_Zone_1700[13] = 0x0D87[ExtData[1]->WorkLocal[12]] // Read WORD
     0x0B00 [0x1A] CALL_SUBROUTINE(address=0x0ACE)
     0x0B03 [0x9D] Work_Zone_1700[14] = 0x0D87[ExtData[1]->WorkLocal[13]] // Read WORD
     0x0B0B [0x1A] CALL_SUBROUTINE(address=0x0A7B)
     0x0B0E [0x03] Work_Zone[3] = 1*
     0x0B13 [0x03] Work_Zone[4] = 2*
     0x0B18 [0x03] Work_Zone[5] = 3*
     0x0B1D [0x02] IF !(ExtData[1]->WorkLocal[11] == ExtData[1]->WorkLocal[5]) GOTO 0x0B28
     0x0B25 [0x05] Work_Zone[6] = 1
     0x0B28 [0x02] IF !(ExtData[1]->WorkLocal[12] == ExtData[1]->WorkLocal[6]) GOTO 0x0B33
     0x0B30 [0x05] Work_Zone[7] = 1
     0x0B33 [0x02] IF !(ExtData[1]->WorkLocal[13] == ExtData[1]->WorkLocal[7]) GOTO 0x0B3E
     0x0B3B [0x05] Work_Zone[8] = 1
     0x0B3E [0x06] ExtData[1]->WorkLocal[29] = 0
     0x0B41 [0x06] ExtData[1]->WorkLocal[8] = 0
     0x0B44 [0x03] ExtData[1]->WorkLocal[8] = Work_Zone[6]
     0x0B49 [0x07] ExtData[1]->WorkLocal[8] += Work_Zone[7]
     0x0B4E [0x07] ExtData[1]->WorkLocal[8] += Work_Zone[8]
     0x0B53 [0x02] IF !(ExtData[1]->WorkLocal[8] <= 0*) GOTO 0x0B65
     0x0B5B [0x3D] CLEAR_BIT_FLAG_CONDITIONAL(target_work_offset=ExtData[1]->WorkLocal[29], bit_index_work_offset=5*, condition_work_offset=1*)
     0x0B62 [0x01] GOTO 0x0B6C
     0x0B65 [0x3C] SET_BIT_FLAG_CONDITIONAL(target_work_offset=ExtData[1]->WorkLocal[29], bit_index_work_offset=5*, condition_work_offset=1*)
     0x0B6C [0x1B] RETURN
     0x0B6D [0x03] ExtData[1]->WorkLocal[33] = 0*
     0x0B72 [0x03] ExtData[1]->WorkLocal[34] = 4*
     0x0B77 [0x1A] CALL_SUBROUTINE(address=0x0AA8)
     0x0B7A [0x03] Work_Zone[9] = 0*
     0x0B7F [0x1A] CALL_SUBROUTINE(address=0x0C30)
     0x0B82 [0x03] ExtData[1]->WorkLocal[11] = ExtData[1]->WorkLocal[15]
     0x0B87 [0x1B] RETURN
     0x0B88 [0x03] ExtData[1]->WorkLocal[33] = 5*
     0x0B8D [0x03] ExtData[1]->WorkLocal[34] = 9*
     0x0B92 [0x1A] CALL_SUBROUTINE(address=0x0ABB)
     0x0B95 [0x03] Work_Zone[9] = 1*
     0x0B9A [0x1A] CALL_SUBROUTINE(address=0x0C30)
     0x0B9D [0x03] ExtData[1]->WorkLocal[12] = ExtData[1]->WorkLocal[15]
     0x0BA2 [0x1B] RETURN
     0x0BA3 [0x03] ExtData[1]->WorkLocal[33] = 10*
     0x0BA8 [0x03] ExtData[1]->WorkLocal[34] = 14*
     0x0BAD [0x1A] CALL_SUBROUTINE(address=0x0ACE)
     0x0BB0 [0x03] Work_Zone[9] = 2*
     0x0BB5 [0x1A] CALL_SUBROUTINE(address=0x0C30)
     0x0BB8 [0x03] ExtData[1]->WorkLocal[13] = ExtData[1]->WorkLocal[15]
     0x0BBD [0x1B] RETURN
     0x0BBE [0x03] ExtData[1]->WorkLocal[33] = 0*
     0x0BC3 [0x03] ExtData[1]->WorkLocal[34] = 4*
     0x0BC8 [0x1A] CALL_SUBROUTINE(address=0x0AA8)
     0x0BCB [0x03] Work_Zone[9] = 0*
     0x0BD0 [0x06] ExtData[1]->WorkLocal[27] = 0
     0x0BD3 [0x1A] CALL_SUBROUTINE(address=0x0C30)
     0x0BD6 [0x02] IF !(ExtData[1]->WorkLocal[27] == 0*) GOTO 0x0BE3
     0x0BDE [0x03] ExtData[1]->WorkLocal[11] = ExtData[1]->WorkLocal[15]
     0x0BE3 [0x1B] RETURN
     0x0BE4 [0x03] ExtData[1]->WorkLocal[33] = 5*
     0x0BE9 [0x03] ExtData[1]->WorkLocal[34] = 9*
     0x0BEE [0x1A] CALL_SUBROUTINE(address=0x0ABB)
     0x0BF1 [0x03] Work_Zone[9] = 1*
     0x0BF6 [0x06] ExtData[1]->WorkLocal[27] = 0
     0x0BF9 [0x1A] CALL_SUBROUTINE(address=0x0C30)
     0x0BFC [0x02] IF !(ExtData[1]->WorkLocal[27] == 0*) GOTO 0x0C09
     0x0C04 [0x03] ExtData[1]->WorkLocal[12] = ExtData[1]->WorkLocal[15]
     0x0C09 [0x1B] RETURN
     0x0C0A [0x03] ExtData[1]->WorkLocal[33] = 10*
     0x0C0F [0x03] ExtData[1]->WorkLocal[34] = 14*
     0x0C14 [0x1A] CALL_SUBROUTINE(address=0x0ACE)
     0x0C17 [0x03] Work_Zone[9] = 2*
     0x0C1C [0x06] ExtData[1]->WorkLocal[27] = 0
     0x0C1F [0x1A] CALL_SUBROUTINE(address=0x0C30)
     0x0C22 [0x02] IF !(ExtData[1]->WorkLocal[27] == 0*) GOTO 0x0C2F
     0x0C2A [0x03] ExtData[1]->WorkLocal[13] = ExtData[1]->WorkLocal[15]
     0x0C2F [0x1B] RETURN
     0x0C30 [0x41] ExtData[1]->WorkLocal[15] = ExtData[1]->WorkLocal[0] (bits ExtData[1]->WorkLocal[33]-ExtData[1]->WorkLocal[34])
     0x0C39 [0x0F] ExtData[1]->WorkLocal[15] ^= 4294967295*
     0x0C3E [0x10] ExtData[1]->WorkLocal[15] <<= 1*
     0x0C43 [0x03] ExtData[1]->WorkLocal[29] = ExtData[1]->WorkLocal[15]
     0x0C48 [0x24] CREATE_DIALOG(message_id=ExtData[1]->WorkLocal[9], default_option=0*, option_flags=ExtData[1]->WorkLocal[29])
     0x0C4F [0x25] WAIT_DIALOG_SELECT()
     0x0C50 [0x02] IF !(Work_Zone[0] == 0*) GOTO 0x0C5E
     0x0C58 [0x05] ExtData[1]->WorkLocal[27] = 1
     0x0C5B [0x01] GOTO 0x0C5E
     0x0C5E [0x03] ExtData[1]->WorkLocal[15] = Work_Zone[0]
     0x0C63 [0x1B] RETURN
```

### Event 5507

#### Metadata

| Field        | Value     |
|--------------|-----------|
| Entrypoint   | 0x0CA7    |
| Data Size    | 528 bytes |
| Instructions | 50        |

```
      00 01 02 03 04 05 06 07  08 09 0A 0B 0C 0D 0E 0F
      -- -- -- -- -- -- -- --  -- -- -- -- -- -- -- --
0CA0:                      1E  F0 FF FF 7F 06 08 00 06         .........
0CB0: 0A 00 02 07 10 07 80 02  EE 0C 02 07 10 00 80 80  ................
0CC0: C9 0C 1D 44 80 23 01 EB  0C 02 07 10 0B 80 80 DC  ...D.#..........
0CD0: 0C 1D 45 80 23 1D 46 80  23 01 EB 0C 02 07 10 28  ..E.#.F.#......(
0CE0: 80 80 EB 0C 1D 47 80 23  01 EB 0C 01 65 0D 03 08  .....G.#....e...
0CF0: 00 03 10 03 25 00 08 10  03 26 00 09 10 03 02 10  ....%....&......
0D00: 26 00 1D 48 80 23 9D 00  67 0D 0A 00 08 00 03 02  &..H.#..g.......
0D10: 10 0A 00 24 49 80 00 80  07 80 25 02 00 10 07 80  ...$I.....%.....
0D20: 00 57 0D 02 25 00 26 00  04 4D 0D 42 1D 4A 80 23  .W..%.&..M.B.J.#
0D30: 1D 4B 80 23 1D 4C 80 23  40 07 80 08 80 01 10 00  .K.#.L.#@.......
0D40: 80 40 09 80 0A 80 01 10  08 00 01 54 0D 48 4D 80  .@.........T.HM.
0D50: 23 06 01 10 01 65 0D 02  00 10 00 80 00 65 0D 06  #....e.......e..
0D60: 01 10 01 65 0D 21 00 07  80 4E 80 4F 80 50 80 51  ...e.!...N.O.P.Q
0D70: 80 00 80 52 80 53 80 54  80 55 80 07 80 07 80 07  ...R.S.T.U......
0D80: 80 07 80 07 80 07 80 02  10 03 10 04 10 05 10 06  ................
0D90: 10 07 10 08 10 09 10 00  17 01 17 02 17 03 17 04  ................
0DA0: 17 05 17 06 17 07 17 08  17 09 17 0A 17 0B 17 0C  ................
0DB0: 17 0D 17 0E 17 0F 17 10  17 11 17 12 17 13 17 14  ................
0DC0: 17 15 17 16 17 17 17 07  80 56 80 57 80 58 80 59  .........V.W.X.Y
0DD0: 80 5A 80 07 80 07 80 07  80 5B 80 5C 80 5D 80 5E  .Z.......[.\.].^
0DE0: 80 5F 80 07 80 07 80 07  80 60 80 61 80 62 80 63  ._.......`.a.b.c
0DF0: 80 64 80 07 80 07 80 07  80 65 80 66 80 67 80 68  .d.......e.f.g.h
0E00: 80 69 80 07 80 07 80 07  80 07 80 07 80 07 80 07  .i..............
0E10: 80 07 80 07 80 07 80 07  80 6A 80 6B 80 6C 80 6D  .........j.k.l.m
0E20: 80 6E 80 07 80 07 80 07  80 6F 80 70 80 71 80 72  .n.......o.p.q.r
0E30: 80 73 80 07 80 07 80 07  80 74 80 75 80 76 80 77  .s.......t.u.v.w
0E40: 80 78 80 07 80 07 80 07  80 56 80 57 80 58 80 59  .x.......V.W.X.Y
0E50: 80 5A 80 6A 80 6B 80 6C  80 6D 80 6E 80 6F 80 70  .Z.j.k.l.m.n.o.p
0E60: 80 71 80 72 80 73 80 60  80 61 80 62 80 63 80 64  .q.r.s.`.a.b.c.d
0E70: 80 5B 80 5C 80 5D 80 5E  80 5F 80 65 80 66 80 67  .[.\.].^._.e.f.g
0E80: 80 68 80 69 80 74 80 75  80 76 80 77 80 78 80 07  .h.i.t.u.v.w.x..
0E90: 80 07 80 07 80 07 80 07  80 6F 80 6A 80 56 80 60  .........o.j.V.`
0EA0: 80 5B 80 07 80 07 80 07  80 79 80 7A 80 7B 80 7B  .[.......y.z.{.{
0EB0: 80 6A 80 07 80 07 80                              .j.....         
```

#### Opcodes

```
  0: 0x0CA7 [0x1E] EventEntity looks at LocalPlayer and starts talking
  1: 0x0CAC [0x06] ExtData[1]->WorkLocal[8] = 0
  2: 0x0CAF [0x06] ExtData[1]->WorkLocal[10] = 0
  3: 0x0CB2 [0x02] IF !(Work_Zone[7] <= 0*) GOTO 0x0CEE
  4: 0x0CBA [0x02] IF !(Work_Zone[7] == 1*) GOTO 0x0CC9
  5: 0x0CC2 [0x1D] PRINT_EVENT_MESSAGE(message_id=12733*)
    → "Whoa, whoa, whoa! I 'ppreciate the gusto, but my mind just ain't the most agile. I need the three diff'rent pieces all at the same time...or four dependin' on the type. Didn't my wife tell ya that?"
  6: 0x0CC5 [0x23] WAIT_FOR_DIALOG_INTERACTION
  7: 0x0CC6 [0x01] GOTO 0x0CEB
  8: 0x0CC9 [0x02] IF !(Work_Zone[7] == 2*) GOTO 0x0CDC
  9: 0x0CD1 [0x1D] PRINT_EVENT_MESSAGE(message_id=12734*)
    → "Looks like ya caught a bit o' my senility, [sonny/missy]. I think you've already got a [simulacrum/eudaemon] for this location."
 10: 0x0CD4 [0x23] WAIT_FOR_DIALOG_INTERACTION
 11: 0x0CD5 [0x1D] PRINT_EVENT_MESSAGE(message_id=12735*)
    → "There ain't no need for more'n one. I speak from experience, 'ere. Let's just pretend this ne'er 'appened."
 12: 0x0CD8 [0x23] WAIT_FOR_DIALOG_INTERACTION
 13: 0x0CD9 [0x01] GOTO 0x0CEB
 14: 0x0CDC [0x02] IF !(Work_Zone[7] == 3*) GOTO 0x0CEB
 15: 0x0CE4 [0x1D] PRINT_EVENT_MESSAGE(message_id=12747*)
    → "I know I fancy myself a tinkerer, but I ain't no miracle worker! Ya just cain't assemble nothin' with this 'ere 'ead."
 16: 0x0CE7 [0x23] WAIT_FOR_DIALOG_INTERACTION
 17: 0x0CE8 [0x01] GOTO 0x0CEB

SUBROUTINE_0CEB:
 18: 0x0CEB [0x01] GOTO 0x0D65
 19: 0x0CEE [0x03] ExtData[1]->WorkLocal[8] = Work_Zone[3]
 20: 0x0CF3 [0x03] ExtData[1]->WorkLocal[37] = Work_Zone[8]
 21: 0x0CF8 [0x03] ExtData[1]->WorkLocal[38] = Work_Zone[9]
 22: 0x0CFD [0x03] Work_Zone[2] = ExtData[1]->WorkLocal[38]
 23: 0x0D02 [0x1D] PRINT_EVENT_MESSAGE(message_id=12736*)
    → "This head, that torso, these legs... I think I'm gonna need $0 gil for this job."
 24: 0x0D05 [0x23] WAIT_FOR_DIALOG_INTERACTION
 25: 0x0D06 [0x9D] ExtData[1]->WorkLocal[10] = 0x0D67[ExtData[1]->WorkLocal[8]] // Read WORD
 26: 0x0D0E [0x03] Work_Zone[2] = ExtData[1]->WorkLocal[10]
 27: 0x0D13 [0x24] CREATE_DIALOG(message_id=12737*, default_option=1*, option_flags=0*)
    → "Have him assemble $6? [Yes./No.]"
 28: 0x0D1A [0x25] WAIT_DIALOG_SELECT()
 29: 0x0D1B [0x02] IF !(Work_Zone[0] == 0*) GOTO 0x0D57
 30: 0x0D23 [0x02] IF !(ExtData[1]->WorkLocal[37] < ExtData[1]->WorkLocal[38]) GOTO 0x0D4D
 31: 0x0D2B [0x42] SET_CLI_EVENT_CANCEL_DATA()
 32: 0x0D2C [0x1D] PRINT_EVENT_MESSAGE(message_id=12738*)
    → "Hold your chocobos, young'un! You cain't rush genius!"
 33: 0x0D2F [0x23] WAIT_FOR_DIALOG_INTERACTION
 34: 0x0D30 [0x1D] PRINT_EVENT_MESSAGE(message_id=12739*)
    → "Twist 'ere, prod there... Get in there, dammit... Get the holy hell in there! Grrr..."
 35: 0x0D33 [0x23] WAIT_FOR_DIALOG_INTERACTION
 36: 0x0D34 [0x1D] PRINT_EVENT_MESSAGE(message_id=12740*)
    → "Whew, feast your peepers on this humdinger! Ain't never seen somethin' so seamless, 'ave ya? And it's all yours, bairn."
 37: 0x0D37 [0x23] WAIT_FOR_DIALOG_INTERACTION
 38: 0x0D38 [0x40] SET_BIT_WORK_RANGE(start_bit=0*, end_bit=15*, target=Work_Zone[1], source=1*)
 39: 0x0D41 [0x40] SET_BIT_WORK_RANGE(start_bit=16*, end_bit=31*, target=Work_Zone[1], source=ExtData[1]->WorkLocal[8])
 40: 0x0D4A [0x01] GOTO 0x0D54
 41: 0x0D4D [0x48] [System] [6396*]:
    → "You do not have enough gil."
 42: 0x0D50 [0x23] WAIT_FOR_DIALOG_INTERACTION
 43: 0x0D51 [0x06] Work_Zone[1] = 0

SUBROUTINE_0D54:
 44: 0x0D54 [0x01] GOTO 0x0D65
 45: 0x0D57 [0x02] IF !(Work_Zone[0] == 1*) GOTO 0x0D65
 46: 0x0D5F [0x06] Work_Zone[1] = 0
 47: 0x0D62 [0x01] GOTO 0x0D65

SUBROUTINE_0D65:
 48: 0x0D65 [0x21] END_EVENT
 49: 0x0D66 [0x00] END_REQSTACK()
```

#### Data or dead code:

```
# Data Section: 0x0D67 (258 bytes)
     0x0D67: 07 80 4E 80 4F 80 50 80 51 80 00 80 52 80 53 80
     0x0D77: 54 80 55 80 07 80 07 80 07 80 07 80 07 80 07 80
     0x0D87: 02 10 03 10 04 10 05 10 06 10 07 10 08 10 09 10
     0x0D97: 00 17 01 17 02 17 03 17 04 17 05 17 06 17 07 17
     0x0DA7: 08 17 09 17 0A 17 0B 17 0C 17 0D 17 0E 17 0F 17
     0x0DB7: 10 17 11 17 12 17 13 17 14 17 15 17 16 17 17 17
     0x0DC7: 07 80 56 80 57 80 58 80 59 80 5A 80 07 80 07 80
     0x0DD7: 07 80 5B 80 5C 80 5D 80 5E 80 5F 80 07 80 07 80
     0x0DE7: 07 80 60 80 61 80 62 80 63 80 64 80 07 80 07 80
     0x0DF7: 07 80 65 80 66 80 67 80 68 80 69 80 07 80 07 80
     0x0E07: 07 80 07 80 07 80 07 80 07 80 07 80 07 80 07 80
     0x0E17: 07 80 6A 80 6B 80 6C 80 6D 80 6E 80 07 80 07 80
     0x0E27: 07 80 6F 80 70 80 71 80 72 80 73 80 07 80 07 80
     0x0E37: 07 80 74 80 75 80 76 80 77 80 78 80 07 80 07 80
     0x0E47: 07 80 56 80 57 80 58 80 59 80 5A 80 6A 80 6B 80
     0x0E57: 6C 80 6D 80 6E 80 6F 80 70 80 71 80 72 80 73 80
     0x0E67: 60 80
# Dead code (unreachable instructions):
     0x0E69 [0x61] EventEntity->Render.Flags2 &= ~0x00000001
     0x0E6B [0x62] LOAD_EVENT_SCHEDULER: Load scheduler 0x5F805E80 with entities [Unknown NPC (ID: 1535140992/0x5B806480), Unknown NPC (ID: 1568693376/0x5D805C80)], work=[0x6380, 0x6580]
     0x0E7C [0x80] LOAD_WAIT(entity=Unknown NPC (ID: 2154266726/0x80678066))
     0x0E81 [0x68] SHOW_HUD_ELEMENTS()
     0x0E82 [0x80] LOAD_WAIT(entity=Unknown NPC (ID: 2155118697/0x80748069))
     0x0E87 [0x75] LOAD_ROOM(Unknown mode 128, room=8968*)
     0x0E8B [0x77] SET_EVENT_TIME_WEATHER(hour=0x7880, weather=0x0780)
     0x0E90 [0x80] LOAD_WAIT(entity=Unknown NPC (ID: 2147975175/0x80078007))
     0x0E95 [0x07] 0x0780 += 0x6F80
     0x0E9A [0x80] LOAD_WAIT(entity=Unknown NPC (ID: 2153152618/0x8056806A))
     0x0E9F [0x60] ADJUST_RENDER_FLAGS1_MULTI: Deprecated mode 0x80 (no operation)
     0x0EA1 [0x5B] LOAD_EXT_SCHEDULER: Load scheduler 0x7B807B80 with entities [Unknown NPC (ID: 125831040/0x07800780), Unknown NPC (ID: 2055240064/0x7A807980)], work=0x0780
     0x0EB0 [0x80] LOAD_WAIT(entity=Unknown NPC (ID: 2147975274/0x8007806A))
```

### Event 5032

#### Metadata

| Field        | Value   |
|--------------|---------|
| Entrypoint   | 0x0EB7  |
| Data Size    | 7 bytes |
| Instructions | 2       |

```
      00 01 02 03 04 05 06 07  08 09 0A 0B 0C 0D 0E 0F
      -- -- -- -- -- -- -- --  -- -- -- -- -- -- -- --
0EB0:                      92  01 F8 FF FF 7F 00               .......  
```

#### Opcodes

```
  0: 0x0EB7 [0x92] EventEntity->Render.Flags3 ^= 0x01
  1: 0x0EBD [0x00] END_REQSTACK()
```

### Event 5097

#### Metadata

| Field        | Value   |
|--------------|---------|
| Entrypoint   | 0x0EBE  |
| Data Size    | 7 bytes |
| Instructions | 2       |

```
      00 01 02 03 04 05 06 07  08 09 0A 0B 0C 0D 0E 0F
      -- -- -- -- -- -- -- --  -- -- -- -- -- -- -- --
0EB0:                                            92 01                ..
0EC0: F8 FF FF 7F 00                                    .....           
```

#### Opcodes

```
  0: 0x0EBE [0x92] EventEntity->Render.Flags3 ^= 0x01
  1: 0x0EC4 [0x00] END_REQSTACK()
```

### Event 5099

#### Metadata

| Field        | Value   |
|--------------|---------|
| Entrypoint   | 0x0EC5  |
| Data Size    | 7 bytes |
| Instructions | 2       |

```
      00 01 02 03 04 05 06 07  08 09 0A 0B 0C 0D 0E 0F
      -- -- -- -- -- -- -- --  -- -- -- -- -- -- -- --
0EC0:                92 01 F8  FF FF 7F 00                   .......    
```

#### Opcodes

```
  0: 0x0EC5 [0x92] EventEntity->Render.Flags3 ^= 0x01
  1: 0x0ECB [0x00] END_REQSTACK()
```

### Event 5102

#### Metadata

| Field        | Value   |
|--------------|---------|
| Entrypoint   | 0x0ECC  |
| Data Size    | 7 bytes |
| Instructions | 2       |

```
      00 01 02 03 04 05 06 07  08 09 0A 0B 0C 0D 0E 0F
      -- -- -- -- -- -- -- --  -- -- -- -- -- -- -- --
0EC0:                                      92 01 F8 FF              ....
0ED0: FF 7F 00                                          ...             
```

#### Opcodes

```
  0: 0x0ECC [0x92] EventEntity->Render.Flags3 ^= 0x01
  1: 0x0ED2 [0x00] END_REQSTACK()
```

### Event 5124

#### Metadata

| Field        | Value   |
|--------------|---------|
| Entrypoint   | 0x0ED3  |
| Data Size    | 7 bytes |
| Instructions | 2       |

```
      00 01 02 03 04 05 06 07  08 09 0A 0B 0C 0D 0E 0F
      -- -- -- -- -- -- -- --  -- -- -- -- -- -- -- --
0ED0:          92 01 F8 FF FF  7F 00                       .......      
```

#### Opcodes

```
  0: 0x0ED3 [0x92] EventEntity->Render.Flags3 ^= 0x01
  1: 0x0ED9 [0x00] END_REQSTACK()
```

### Event 5130

#### Metadata

| Field        | Value   |
|--------------|---------|
| Entrypoint   | 0x0EDA  |
| Data Size    | 7 bytes |
| Instructions | 2       |

```
      00 01 02 03 04 05 06 07  08 09 0A 0B 0C 0D 0E 0F
      -- -- -- -- -- -- -- --  -- -- -- -- -- -- -- --
0ED0:                                92 01 F8 FF FF 7F            ......
0EE0: 00                                                .               
```

#### Opcodes

```
  0: 0x0EDA [0x92] EventEntity->Render.Flags3 ^= 0x01
  1: 0x0EE0 [0x00] END_REQSTACK()
```

### Event 5202

#### Metadata

| Field        | Value   |
|--------------|---------|
| Entrypoint   | 0x0EE1  |
| Data Size    | 7 bytes |
| Instructions | 2       |

```
      00 01 02 03 04 05 06 07  08 09 0A 0B 0C 0D 0E 0F
      -- -- -- -- -- -- -- --  -- -- -- -- -- -- -- --
0EE0:    92 01 F8 FF FF 7F 00                            .......        
```

#### Opcodes

```
  0: 0x0EE1 [0x92] EventEntity->Render.Flags3 ^= 0x01
  1: 0x0EE7 [0x00] END_REQSTACK()
```

### Event 106

#### Metadata

| Field        | Value   |
|--------------|---------|
| Entrypoint   | 0x0EE8  |
| Data Size    | 7 bytes |
| Instructions | 2       |

```
      00 01 02 03 04 05 06 07  08 09 0A 0B 0C 0D 0E 0F
      -- -- -- -- -- -- -- --  -- -- -- -- -- -- -- --
0EE0:                          92 01 F8 FF FF 7F 00             ....... 
```

#### Opcodes

```
  0: 0x0EE8 [0x92] EventEntity->Render.Flags3 ^= 0x01
  1: 0x0EEE [0x00] END_REQSTACK()
```

### Event 5212

#### Metadata

| Field        | Value   |
|--------------|---------|
| Entrypoint   | 0x0EEF  |
| Data Size    | 7 bytes |
| Instructions | 2       |

```
      00 01 02 03 04 05 06 07  08 09 0A 0B 0C 0D 0E 0F
      -- -- -- -- -- -- -- --  -- -- -- -- -- -- -- --
0EE0:                                               92                 .
0EF0: 01 F8 FF FF 7F 00                                 ......          
```

#### Opcodes

```
  0: 0x0EEF [0x92] EventEntity->Render.Flags3 ^= 0x01
  1: 0x0EF5 [0x00] END_REQSTACK()
```

### Event 5214

#### Metadata

| Field        | Value   |
|--------------|---------|
| Entrypoint   | 0x0EF6  |
| Data Size    | 7 bytes |
| Instructions | 2       |

```
      00 01 02 03 04 05 06 07  08 09 0A 0B 0C 0D 0E 0F
      -- -- -- -- -- -- -- --  -- -- -- -- -- -- -- --
0EF0:                   92 01  F8 FF FF 7F 00                 .......   
```

#### Opcodes

```
  0: 0x0EF6 [0x92] EventEntity->Render.Flags3 ^= 0x01
  1: 0x0EFC [0x00] END_REQSTACK()
```

### Event 5217

#### Metadata

| Field        | Value   |
|--------------|---------|
| Entrypoint   | 0x0EFD  |
| Data Size    | 7 bytes |
| Instructions | 2       |

```
      00 01 02 03 04 05 06 07  08 09 0A 0B 0C 0D 0E 0F
      -- -- -- -- -- -- -- --  -- -- -- -- -- -- -- --
0EF0:                                         92 01 F8               ...
0F00: FF FF 7F 00                                       ....            
```

#### Opcodes

```
  0: 0x0EFD [0x92] EventEntity->Render.Flags3 ^= 0x01
  1: 0x0F03 [0x00] END_REQSTACK()
```

### Event 5222

#### Metadata

| Field        | Value   |
|--------------|---------|
| Entrypoint   | 0x0F04  |
| Data Size    | 7 bytes |
| Instructions | 2       |

```
      00 01 02 03 04 05 06 07  08 09 0A 0B 0C 0D 0E 0F
      -- -- -- -- -- -- -- --  -- -- -- -- -- -- -- --
0F00:             92 01 F8 FF  FF 7F 00                     .......     
```

#### Opcodes

```
  0: 0x0F04 [0x92] EventEntity->Render.Flags3 ^= 0x01
  1: 0x0F0A [0x00] END_REQSTACK()
```

### Event 115

#### Metadata

| Field        | Value   |
|--------------|---------|
| Entrypoint   | 0x0F0B  |
| Data Size    | 7 bytes |
| Instructions | 2       |

```
      00 01 02 03 04 05 06 07  08 09 0A 0B 0C 0D 0E 0F
      -- -- -- -- -- -- -- --  -- -- -- -- -- -- -- --
0F00:                                   92 01 F8 FF FF             .....
0F10: 7F 00                                             ..              
```

#### Opcodes

```
  0: 0x0F0B [0x92] EventEntity->Render.Flags3 ^= 0x01
  1: 0x0F11 [0x00] END_REQSTACK()
```

### Event 120

#### Metadata

| Field        | Value   |
|--------------|---------|
| Entrypoint   | 0x0F12  |
| Data Size    | 7 bytes |
| Instructions | 2       |

```
      00 01 02 03 04 05 06 07  08 09 0A 0B 0C 0D 0E 0F
      -- -- -- -- -- -- -- --  -- -- -- -- -- -- -- --
0F10:       92 01 F8 FF FF 7F  00                         .......       
```

#### Opcodes

```
  0: 0x0F12 [0x92] EventEntity->Render.Flags3 ^= 0x01
  1: 0x0F18 [0x00] END_REQSTACK()
```

### Event 65535.1

#### Metadata

| Field        | Value   |
|--------------|---------|
| Entrypoint   | 0x0F19  |
| Data Size    | 4 bytes |
| Instructions | 2       |

```
      00 01 02 03 04 05 06 07  08 09 0A 0B 0C 0D 0E 0F
      -- -- -- -- -- -- -- --  -- -- -- -- -- -- -- --
0F10:                             95 07 80 00                    ....   
```

#### Opcodes

```
  0: 0x0F19 [0x95] SETUP_EVENT_NPC: Prepare NPC for event (Render.Flags3 = 0*)
  1: 0x0F1C [0x00] END_REQSTACK()
```

### Event 65535.2

#### Metadata

| Field        | Value   |
|--------------|---------|
| Entrypoint   | 0x0F1D  |
| Data Size    | 2 bytes |
| Instructions | 2       |

```
      00 01 02 03 04 05 06 07  08 09 0A 0B 0C 0D 0E 0F
      -- -- -- -- -- -- -- --  -- -- -- -- -- -- -- --
0F10:                                         96 00                  .. 
```

#### Opcodes

```
  0: 0x0F1D [0x96] UNSET_EVENT_NPC: Restore NPC after event (removes event NPC status)
  1: 0x0F1E [0x00] END_REQSTACK()
```
