# 17830024

## Common Data

| Field            | Value                     |
|------------------|---------------------------|
| Zone             | Eastern Adoulin (ID: 257) |
| Block Size       | 37224 bytes               |
| Total Events     | 9                         |
| References Count | 698                       |

## List of Events

| Event ID              | Entrypoint   |   Size |   Instructions |
|-----------------------|--------------|--------|----------------|
| [65535](#event-65535) | 0x0000       |      1 |              1 |
| [1500](#event-1500)   | 0x0001       |  10026 |           1226 |
| [1502](#event-1502)   | 0x272B       |   1436 |            170 |
| [1503](#event-1503)   | 0x2CC7       |   1654 |            211 |
| [1504](#event-1504)   | 0x333D       |    850 |            103 |
| [1505](#event-1505)   | 0x368F       |    585 |             76 |
| [1508](#event-1508)   | 0x38D8       |     76 |             12 |
| [1506](#event-1506)   | 0x3924       |   5922 |            685 |
| [1507](#event-1507)   | 0x5046       |  13827 |           1529 |

## DAT References (imed_data)

|   Index | Hex Value   |   Dec Value |
|---------|-------------|-------------|
|       0 | 0x0013      |          19 |
|       1 | 0x181DA     |       98778 |
|       2 | 0xFFFF07BB  |  4294903739 |
|       3 | 0xFFFF632C  |  4294927148 |
|       4 | 0x00B6      |         182 |
|       5 | 0x0000      |           0 |
|       6 | 0x0244      |         580 |
|       7 | 0x00C8      |         200 |
|       8 | 0x005A      |          90 |
|       9 | 0x0032      |          50 |
|      10 | 0x0898      |        2200 |
|      11 | 0x2099      |        8345 |
|      12 | 0x209C      |        8348 |
|      13 | 0x209D      |        8349 |
|      14 | 0x209E      |        8350 |
|      15 | 0x0248      |         584 |
|      16 | 0x00FF      |         255 |
|      17 | 0x0001      |           1 |
|      18 | 0xFFFFE6D3  |  4294960851 |
|      19 | 0xFFFFCD95  |  4294954389 |
|      20 | 0xFFFFFA24  |  4294965796 |
|      21 | 0x0400      |        1024 |
|      22 | 0x0454      |        1108 |
|      23 | 0xFFFFD3BF  |  4294955967 |
|      24 | 0xFFFFF5D8  |  4294964696 |
|      25 | 0x0DF5      |        3573 |
|      26 | 0xFFFFF6B2  |  4294964914 |
|      27 | 0xFFFFB3FE  |  4294947838 |
|      28 | 0x0A00      |        2560 |
|      29 | 0xFFFFFCB3  |  4294966451 |
|      30 | 0xFFFFFF34  |  4294967092 |
|      31 | 0x0431      |        1073 |
|      32 | 0xFFFFFE0C  |  4294966796 |
|      33 | 0x0037      |          55 |
|      34 | 0x02F1      |         753 |
|      35 | 0x01F4      |         500 |
|      36 | 0xFFFFFC69  |  4294966377 |
|      37 | 0x056F      |        1391 |
|      38 | 0xFFFFFCCB  |  4294966475 |
|      39 | 0x0A3A      |        2618 |
|      40 | 0x006F      |         111 |
|      41 | 0x081E      |        2078 |
|      42 | 0x019C      |         412 |
|      43 | 0xFFFFFEAF  |  4294966959 |
|      44 | 0x0239      |         569 |
|      45 | 0xFFFFFEC9  |  4294966985 |
|      46 | 0x003E      |          62 |
|      47 | 0x0E10      |        3600 |
|      48 | 0x03B2      |         946 |
|      49 | 0x0A9D      |        2717 |
|      50 | 0x12C3      |        4803 |
|      51 | 0x0236      |         566 |
|      52 | 0x184A      |        6218 |
|      53 | 0xFFFFFA25  |  4294965797 |
|      54 | 0xFFFFF448  |  4294964296 |
|      55 | 0xFFFFEA84  |  4294961796 |
|      56 | 0x0BB8      |        3000 |
|      57 | 0x2061      |        8289 |
|      58 | 0x00B4      |         180 |
|      59 | 0x001E      |          30 |
|      60 | 0x003C      |          60 |
|      61 | 0x00F0      |         240 |
|      62 | 0x0078      |         120 |
|      63 | 0x209F      |        8351 |
|      64 | 0x000A      |          10 |
|      65 | 0x0028      |          40 |
|      66 | 0x0F50      |        3920 |
|      67 | 0x20A0      |        8352 |
|      68 | 0x0029      |          41 |
|      69 | 0x20A1      |        8353 |
|      70 | 0x001D      |          29 |
|      71 | 0x20A2      |        8354 |
|      72 | 0x20A3      |        8355 |
|      73 | 0x000F      |          15 |
|      74 | 0x1C30      |        7216 |
|      75 | 0xFFFFD7D2  |  4294957010 |
|      76 | 0x0800      |        2048 |
|      77 | 0x189A      |        6298 |
|      78 | 0xFFFFD970  |  4294957424 |
|      79 | 0x20A4      |        8356 |
|      80 | 0xFFFFD314  |  4294955796 |
|      81 | 0x0CCF      |        3279 |
|      82 | 0x20A5      |        8357 |
|      83 | 0x0022      |          34 |
|      84 | 0x20A6      |        8358 |
|      85 | 0x20A7      |        8359 |
|      86 | 0x20A8      |        8360 |
|      87 | 0x0006      |           6 |
|      88 | 0x20A9      |        8361 |
|      89 | 0x20AA      |        8362 |
|      90 | 0x0027      |          39 |
|      91 | 0x20AB      |        8363 |
|      92 | 0x20AC      |        8364 |
|      93 | 0x026D      |         621 |
|      94 | 0x20AD      |        8365 |
|      95 | 0x20AE      |        8366 |
|      96 | 0x20AF      |        8367 |
|      97 | 0x20B0      |        8368 |
|      98 | 0xFFFFFB27  |  4294966055 |
|      99 | 0xFFFFDF26  |  4294958886 |
|     100 | 0x20B1      |        8369 |
|     101 | 0x20B2      |        8370 |
|     102 | 0x0019      |          25 |
|     103 | 0x20B3      |        8371 |
|     104 | 0x0CBD      |        3261 |
|     105 | 0x20B4      |        8372 |
|     106 | 0x0CCD      |        3277 |
|     107 | 0x20B5      |        8373 |
|     108 | 0x20B6      |        8374 |
|     109 | 0x20B7      |        8375 |
|     110 | 0x0016      |          22 |
|     111 | 0x20B8      |        8376 |
|     112 | 0xFFFFF05C  |  4294963292 |
|     113 | 0xFFFFC490  |  4294952080 |
|     114 | 0x0C86      |        3206 |
|     115 | 0x0C88      |        3208 |
|     116 | 0x00D2      |         210 |
|     117 | 0x0014      |          20 |
|     118 | 0x2260      |        8800 |
|     119 | 0xFFFFB1E0  |  4294947296 |
|     120 | 0x0005      |           5 |
|     121 | 0x0C87      |        3207 |
|     122 | 0x20B9      |        8377 |
|     123 | 0x0009      |           9 |
|     124 | 0x20BA      |        8378 |
|     125 | 0x0C89      |        3209 |
|     126 | 0x20BB      |        8379 |
|     127 | 0x20BC      |        8380 |
|     128 | 0x20BD      |        8381 |
|     129 | 0x20BE      |        8382 |
|     130 | 0x20BF      |        8383 |
|     131 | 0x20C0      |        8384 |
|     132 | 0x20C1      |        8385 |
|     133 | 0x20C2      |        8386 |
|     134 | 0x20C3      |        8387 |
|     135 | 0x20C4      |        8388 |
|     136 | 0x20C5      |        8389 |
|     137 | 0x20C6      |        8390 |
|     138 | 0x20C7      |        8391 |
|     139 | 0x20C8      |        8392 |
|     140 | 0x20C9      |        8393 |
|     141 | 0x20CA      |        8394 |
|     142 | 0x0070      |         112 |
|     143 | 0x01E5      |         485 |
|     144 | 0xFFFFB6D0  |  4294948560 |
|     145 | 0x20CB      |        8395 |
|     146 | 0x0CCC      |        3276 |
|     147 | 0x20CC      |        8396 |
|     148 | 0x20CD      |        8397 |
|     149 | 0x002A      |          42 |
|     150 | 0x20CE      |        8398 |
|     151 | 0x0045      |          69 |
|     152 | 0x20CF      |        8399 |
|     153 | 0x20D0      |        8400 |
|     154 | 0x20D1      |        8401 |
|     155 | 0x0CB9      |        3257 |
|     156 | 0x20D2      |        8402 |
|     157 | 0xFFFFF830  |  4294965296 |
|     158 | 0xFFFFC952  |  4294953298 |
|     159 | 0xFFFFFB62  |  4294966114 |
|     160 | 0xFFFFC36D  |  4294951789 |
|     161 | 0x0C00      |        3072 |
|     162 | 0x20D3      |        8403 |
|     163 | 0x0096      |         150 |
|     164 | 0x20D4      |        8404 |
|     165 | 0x20D5      |        8405 |
|     166 | 0x20D6      |        8406 |
|     167 | 0x20D7      |        8407 |
|     168 | 0x00D1      |         209 |
|     169 | 0x20D8      |        8408 |
|     170 | 0x20D9      |        8409 |
|     171 | 0x20DA      |        8410 |
|     172 | 0x0069      |         105 |
|     173 | 0x20DB      |        8411 |
|     174 | 0x20DC      |        8412 |
|     175 | 0x20DD      |        8413 |
|     176 | 0x0A68      |        2664 |
|     177 | 0x20DE      |        8414 |
|     178 | 0x0031      |          49 |
|     179 | 0x20DF      |        8415 |
|     180 | 0x20E0      |        8416 |
|     181 | 0x20E1      |        8417 |
|     182 | 0x20E2      |        8418 |
|     183 | 0x20E3      |        8419 |
|     184 | 0x20E4      |        8420 |
|     185 | 0x20E5      |        8421 |
|     186 | 0x0017      |          23 |
|     187 | 0x000B      |          11 |
|     188 | 0x20E6      |        8422 |
|     189 | 0x0C54      |        3156 |
|     190 | 0xFFFFD183  |  4294955395 |
|     191 | 0xFFFFF7CC  |  4294965196 |
|     192 | 0x20E7      |        8423 |
|     193 | 0x00D4      |         212 |
|     194 | 0x20E8      |        8424 |
|     195 | 0x20E9      |        8425 |
|     196 | 0x20EA      |        8426 |
|     197 | 0x003A      |          58 |
|     198 | 0x0C90      |        3216 |
|     199 | 0x20EB      |        8427 |
|     200 | 0x0050      |          80 |
|     201 | 0x0C9A      |        3226 |
|     202 | 0xFFFFDAE4  |  4294957796 |
|     203 | 0x0C9B      |        3227 |
|     204 | 0x20EC      |        8428 |
|     205 | 0x0C91      |        3217 |
|     206 | 0x20ED      |        8429 |
|     207 | 0x20EE      |        8430 |
|     208 | 0x20EF      |        8431 |
|     209 | 0x20F0      |        8432 |
|     210 | 0x20F1      |        8433 |
|     211 | 0x20F2      |        8434 |
|     212 | 0x0C99      |        3225 |
|     213 | 0x20F3      |        8435 |
|     214 | 0x20F4      |        8436 |
|     215 | 0x20F5      |        8437 |
|     216 | 0x20F6      |        8438 |
|     217 | 0x20F7      |        8439 |
|     218 | 0x20F8      |        8440 |
|     219 | 0x006E      |         110 |
|     220 | 0x0600      |        1536 |
|     221 | 0xFFFFFBAD  |  4294966189 |
|     222 | 0xFFFFCEEB  |  4294954731 |
|     223 | 0x01CA      |         458 |
|     224 | 0x20F9      |        8441 |
|     225 | 0xFFFFC374  |  4294951796 |
|     226 | 0x041A      |        1050 |
|     227 | 0x20FA      |        8442 |
|     228 | 0x0003      |           3 |
|     229 | 0x0004      |           4 |
|     230 | 0x0008      |           8 |
|     231 | 0x0015      |          21 |
|     232 | 0x0C9E      |        3230 |
|     233 | 0x0064      |         100 |
|     234 | 0x20FB      |        8443 |
|     235 | 0x20FC      |        8444 |
|     236 | 0x02BD      |         701 |
|     237 | 0x003F      |          63 |
|     238 | 0x0093      |         147 |
|     239 | 0x1716A     |       94570 |
|     240 | 0xFFFF0603  |  4294903299 |
|     241 | 0x0053      |          83 |
|     242 | 0x2021D     |      131613 |
|     243 | 0xFFFF1A66  |  4294908518 |
|     244 | 0xFFFF63C0  |  4294927296 |
|     245 | 0x0052      |          82 |
|     246 | 0x20B06     |      133894 |
|     247 | 0xFFFF2130  |  4294910256 |
|     248 | 0x03E8      |        1000 |
|     249 | 0x207F4     |      133108 |
|     250 | 0xFFFF18CB  |  4294908107 |
|     251 | 0x0CD2      |        3282 |
|     252 | 0x0CD3      |        3283 |
|     253 | 0x0CD4      |        3284 |
|     254 | 0x0286      |         646 |
|     255 | 0x18851     |      100433 |
|     256 | 0xFFFF0B38  |  4294904632 |
|     257 | 0x0FF2      |        4082 |
|     258 | 0x0105      |         261 |
|     259 | 0x20FD      |        8445 |
|     260 | 0x20FE      |        8446 |
|     261 | 0x1D26B     |      119403 |
|     262 | 0xFFFF213C  |  4294910268 |
|     263 | 0xFFFF63C1  |  4294927297 |
|     264 | 0x0735      |        1845 |
|     265 | 0x1D172     |      119154 |
|     266 | 0xFFFF1CB3  |  4294909107 |
|     267 | 0x0B11      |        2833 |
|     268 | 0x19493     |      103571 |
|     269 | 0xFFFF0724  |  4294903588 |
|     270 | 0x0F85      |        3973 |
|     271 | 0x0CD1      |        3281 |
|     272 | 0x20FF      |        8447 |
|     273 | 0x2100      |        8448 |
|     274 | 0x2101      |        8449 |
|     275 | 0x2102      |        8450 |
|     276 | 0x002D      |          45 |
|     277 | 0x2103      |        8451 |
|     278 | 0x2104      |        8452 |
|     279 | 0x014A      |         330 |
|     280 | 0x18092     |       98450 |
|     281 | 0xFFFF08F8  |  4294904056 |
|     282 | 0x0FD6      |        4054 |
|     283 | 0x2105      |        8453 |
|     284 | 0x2106      |        8454 |
|     285 | 0xFFFEBFF1  |  4294885361 |
|     286 | 0x52D9      |       21209 |
|     287 | 0x0C31      |        3121 |
|     288 | 0xFFFECC92  |  4294888594 |
|     289 | 0x623B      |       25147 |
|     290 | 0x0A63      |        2659 |
|     291 | 0xFFFEBF74  |  4294885236 |
|     292 | 0x685D      |       26717 |
|     293 | 0x0FCC      |        4044 |
|     294 | 0xFFFEC6A4  |  4294887076 |
|     295 | 0x6F5A      |       28506 |
|     296 | 0x0325      |         805 |
|     297 | 0xFFFECDA1  |  4294888865 |
|     298 | 0x6BC6      |       27590 |
|     299 | 0x06C2      |        1730 |
|     300 | 0xFFFEBE18  |  4294884888 |
|     301 | 0x7158      |       29016 |
|     302 | 0xFFFFFF6C  |  4294967148 |
|     303 | 0x01D4      |         468 |
|     304 | 0x0285      |         645 |
|     305 | 0x0007      |           7 |
|     306 | 0x2107      |        8455 |
|     307 | 0x2108      |        8456 |
|     308 | 0x2109      |        8457 |
|     309 | 0x210A      |        8458 |
|     310 | 0x210B      |        8459 |
|     311 | 0x210C      |        8460 |
|     312 | 0x210D      |        8461 |
|     313 | 0x210E      |        8462 |
|     314 | 0x210F      |        8463 |
|     315 | 0x2110      |        8464 |
|     316 | 0x2111      |        8465 |
|     317 | 0x2112      |        8466 |
|     318 | 0x2113      |        8467 |
|     319 | 0x2114      |        8468 |
|     320 | 0x2115      |        8469 |
|     321 | 0x2116      |        8470 |
|     322 | 0x2117      |        8471 |
|     323 | 0x2118      |        8472 |
|     324 | 0x2119      |        8473 |
|     325 | 0x211A      |        8474 |
|     326 | 0x211B      |        8475 |
|     327 | 0x211C      |        8476 |
|     328 | 0x211D      |        8477 |
|     329 | 0x211E      |        8478 |
|     330 | 0x024E      |         590 |
|     331 | 0xFFFE84F9  |  4294870265 |
|     332 | 0xFFFF3AFB  |  4294916859 |
|     333 | 0xFFFFFD77  |  4294966647 |
|     334 | 0x00E8      |         232 |
|     335 | 0x026E      |         622 |
|     336 | 0x211F      |        8479 |
|     337 | 0x2120      |        8480 |
|     338 | 0x2121      |        8481 |
|     339 | 0x2122      |        8482 |
|     340 | 0x2123      |        8483 |
|     341 | 0x2124      |        8484 |
|     342 | 0x2125      |        8485 |
|     343 | 0x2126      |        8486 |
|     344 | 0x2127      |        8487 |
|     345 | 0x2128      |        8488 |
|     346 | 0x2129      |        8489 |
|     347 | 0x212A      |        8490 |
|     348 | 0x212B      |        8491 |
|     349 | 0x212C      |        8492 |
|     350 | 0x212D      |        8493 |
|     351 | 0x17F70     |       98160 |
|     352 | 0xFFFF0657  |  4294903383 |
|     353 | 0x212E      |        8494 |
|     354 | 0x212F      |        8495 |
|     355 | 0x2130      |        8496 |
|     356 | 0x2131      |        8497 |
|     357 | 0x2132      |        8498 |
|     358 | 0x2133      |        8499 |
|     359 | 0x2134      |        8500 |
|     360 | 0x0044      |          68 |
|     361 | 0x172C7     |       94919 |
|     362 | 0xFFFF09E6  |  4294904294 |
|     363 | 0x0FEA      |        4074 |
|     364 | 0x1549D     |       87197 |
|     365 | 0xFFFF03F8  |  4294902776 |
|     366 | 0x15996     |       88470 |
|     367 | 0xFFFF0907  |  4294904071 |
|     368 | 0x0CAD      |        3245 |
|     369 | 0x0288      |         648 |
|     370 | 0x0955      |        2389 |
|     371 | 0x3315      |       13077 |
|     372 | 0x3316      |       13078 |
|     373 | 0x3317      |       13079 |
|     374 | 0x3318      |       13080 |
|     375 | 0x3319      |       13081 |
|     376 | 0x0CA0      |        3232 |
|     377 | 0x17389     |       95113 |
|     378 | 0xFFFF042A  |  4294902826 |
|     379 | 0x331A      |       13082 |
|     380 | 0x00AA      |         170 |
|     381 | 0x331B      |       13083 |
|     382 | 0x331C      |       13084 |
|     383 | 0x17DD2     |       97746 |
|     384 | 0xFFFF05B4  |  4294903220 |
|     385 | 0x0841      |        2113 |
|     386 | 0x331D      |       13085 |
|     387 | 0x331E      |       13086 |
|     388 | 0xFFFFFCA2  |  4294966434 |
|     389 | 0x15CD      |        5581 |
|     390 | 0x0E33      |        3635 |
|     391 | 0x02EF      |         751 |
|     392 | 0x1E72      |        7794 |
|     393 | 0x033D      |         829 |
|     394 | 0x35FF      |       13823 |
|     395 | 0x057D      |        1405 |
|     396 | 0x0CAF      |        3247 |
|     397 | 0x331F      |       13087 |
|     398 | 0x3320      |       13088 |
|     399 | 0x0CA1      |        3233 |
|     400 | 0x3321      |       13089 |
|     401 | 0x3322      |       13090 |
|     402 | 0x3323      |       13091 |
|     403 | 0x3324      |       13092 |
|     404 | 0x00E6      |         230 |
|     405 | 0xFFFFFD02  |  4294966530 |
|     406 | 0x30A6      |       12454 |
|     407 | 0x0991      |        2449 |
|     408 | 0x3325      |       13093 |
|     409 | 0x3326      |       13094 |
|     410 | 0x3327      |       13095 |
|     411 | 0x00BE      |         190 |
|     412 | 0x3328      |       13096 |
|     413 | 0xFFFF3140  |  4294914368 |
|     414 | 0xFFFFC532  |  4294952242 |
|     415 | 0x0801      |        2049 |
|     416 | 0xFFFF32BA  |  4294914746 |
|     417 | 0xFFFFCC3D  |  4294954045 |
|     418 | 0xFFFF0B21  |  4294904609 |
|     419 | 0xFFFFD624  |  4294956580 |
|     420 | 0x0353      |         851 |
|     421 | 0xFFFF0645  |  4294903365 |
|     422 | 0xFFFFD8B0  |  4294957232 |
|     423 | 0x02DE      |         734 |
|     424 | 0xFFFF01DB  |  4294902235 |
|     425 | 0xFFFFDCB9  |  4294958265 |
|     426 | 0xFFFF110B  |  4294906123 |
|     427 | 0xFFFFC1A7  |  4294951335 |
|     428 | 0x0B2F      |        2863 |
|     429 | 0x0A97      |        2711 |
|     430 | 0x0BC3      |        3011 |
|     431 | 0x0BD2      |        3026 |
|     432 | 0x0CD5      |        3285 |
|     433 | 0x0CB1      |        3249 |
|     434 | 0x0CF9      |        3321 |
|     435 | 0x3329      |       13097 |
|     436 | 0x332A      |       13098 |
|     437 | 0xFFFF20CD  |  4294910157 |
|     438 | 0xFFFFCB7E  |  4294953854 |
|     439 | 0x0680      |        1664 |
|     440 | 0x332B      |       13099 |
|     441 | 0x332C      |       13100 |
|     442 | 0x0CA2      |        3234 |
|     443 | 0xFFFF004E  |  4294901838 |
|     444 | 0xFFFFDD81  |  4294958465 |
|     445 | 0xFFFFFE0D  |  4294966797 |
|     446 | 0x332D      |       13101 |
|     447 | 0x332E      |       13102 |
|     448 | 0x332F      |       13103 |
|     449 | 0x3330      |       13104 |
|     450 | 0x3331      |       13105 |
|     451 | 0x0092      |         146 |
|     452 | 0x0048      |          72 |
|     453 | 0x00FA      |         250 |
|     454 | 0x00A1      |         161 |
|     455 | 0x3332      |       13106 |
|     456 | 0xFFFF0A45  |  4294904389 |
|     457 | 0xFFFFD5B1  |  4294956465 |
|     458 | 0xFFFF0E3F  |  4294905407 |
|     459 | 0xFFFFD2D0  |  4294955728 |
|     460 | 0x09D9      |        2521 |
|     461 | 0x3333      |       13107 |
|     462 | 0x3334      |       13108 |
|     463 | 0x0046      |          70 |
|     464 | 0x3335      |       13109 |
|     465 | 0x3336      |       13110 |
|     466 | 0x0C93      |        3219 |
|     467 | 0x3337      |       13111 |
|     468 | 0x3338      |       13112 |
|     469 | 0x3339      |       13113 |
|     470 | 0x0C9F      |        3231 |
|     471 | 0x333A      |       13114 |
|     472 | 0x333B      |       13115 |
|     473 | 0x333C      |       13116 |
|     474 | 0xFFFF13C2  |  4294906818 |
|     475 | 0xFFFFD762  |  4294956898 |
|     476 | 0x07B0      |        1968 |
|     477 | 0xFFFF08FE  |  4294904062 |
|     478 | 0xFFFFDAA0  |  4294957728 |
|     479 | 0xFFFF127B  |  4294906491 |
|     480 | 0xFFFFCC41  |  4294954049 |
|     481 | 0xFFFF0AE7  |  4294904551 |
|     482 | 0xFFFFD0DD  |  4294955229 |
|     483 | 0xFFFF0E4C  |  4294905420 |
|     484 | 0xFFFFD3F1  |  4294956017 |
|     485 | 0xFFFF0405  |  4294902789 |
|     486 | 0xFFFFCC60  |  4294954080 |
|     487 | 0xFFFEFE60  |  4294901344 |
|     488 | 0xFFFFC513  |  4294952211 |
|     489 | 0xFFFEFECB  |  4294901451 |
|     490 | 0xFFFFD1B9  |  4294955449 |
|     491 | 0xFFFF1A75  |  4294908533 |
|     492 | 0xFFFFDDFB  |  4294958587 |
|     493 | 0x0BC2      |        3010 |
|     494 | 0x0270      |         624 |
|     495 | 0x333E      |       13118 |
|     496 | 0x333F      |       13119 |
|     497 | 0x3340      |       13120 |
|     498 | 0x3341      |       13121 |
|     499 | 0x3342      |       13122 |
|     500 | 0x3343      |       13123 |
|     501 | 0x3344      |       13124 |
|     502 | 0x3345      |       13125 |
|     503 | 0x3346      |       13126 |
|     504 | 0x3347      |       13127 |
|     505 | 0x00BD      |         189 |
|     506 | 0x3348      |       13128 |
|     507 | 0x0CE2      |        3298 |
|     508 | 0x008C      |         140 |
|     509 | 0x3349      |       13129 |
|     510 | 0x334A      |       13130 |
|     511 | 0x334B      |       13131 |
|     512 | 0x334C      |       13132 |
|     513 | 0x026F      |         623 |
|     514 | 0xFFFF0E16  |  4294905366 |
|     515 | 0xFFFFE10F  |  4294959375 |
|     516 | 0x084E      |        2126 |
|     517 | 0x0B2D      |        2861 |
|     518 | 0x0BE2      |        3042 |
|     519 | 0xFFFF0088  |  4294901896 |
|     520 | 0xFFFFE2CC  |  4294959820 |
|     521 | 0xFFFFFDDA  |  4294966746 |
|     522 | 0x0CAE      |        3246 |
|     523 | 0x0002      |           2 |
|     524 | 0x003D      |          61 |
|     525 | 0x334D      |       13133 |
|     526 | 0x334E      |       13134 |
|     527 | 0x0CB0      |        3248 |
|     528 | 0x08BF      |        2239 |
|     529 | 0x334F      |       13135 |
|     530 | 0x0104      |         260 |
|     531 | 0x3350      |       13136 |
|     532 | 0x09C7      |        2503 |
|     533 | 0x3351      |       13137 |
|     534 | 0x3352      |       13138 |
|     535 | 0xFFFF01C8  |  4294902216 |
|     536 | 0xFFFFE6BC  |  4294960828 |
|     537 | 0xFFFFFAB2  |  4294965938 |
|     538 | 0x04FF      |        1279 |
|     539 | 0x3353      |       13139 |
|     540 | 0x3354      |       13140 |
|     541 | 0x3355      |       13141 |
|     542 | 0x3356      |       13142 |
|     543 | 0x0CA3      |        3235 |
|     544 | 0x3357      |       13143 |
|     545 | 0x3358      |       13144 |
|     546 | 0x3359      |       13145 |
|     547 | 0x335A      |       13146 |
|     548 | 0x335B      |       13147 |
|     549 | 0x335C      |       13148 |
|     550 | 0x335D      |       13149 |
|     551 | 0xFFFFFF93  |  4294967187 |
|     552 | 0x1BB2      |        7090 |
|     553 | 0x1872C     |      100140 |
|     554 | 0x07DA      |        2010 |
|     555 | 0xFFFF1820  |  4294907936 |
|     556 | 0x335E      |       13150 |
|     557 | 0x1126      |        4390 |
|     558 | 0xFFFF0092  |  4294901906 |
|     559 | 0x097E      |        2430 |
|     560 | 0x7FBC      |       32700 |
|     561 | 0x04CE      |        1230 |
|     562 | 0x012C      |         300 |
|     563 | 0x335F      |       13151 |
|     564 | 0xFFFFFF92  |  4294967186 |
|     565 | 0x15EB4     |       89780 |
|     566 | 0x1AED2     |      110290 |
|     567 | 0x067C      |        1660 |
|     568 | 0xFFFEA00C  |  4294877196 |
|     569 | 0x3360      |       13152 |
|     570 | 0xFFFFDD0A  |  4294958346 |
|     571 | 0xFFFFD788  |  4294956936 |
|     572 | 0x082A      |        2090 |
|     573 | 0x67C0      |       26560 |
|     574 | 0x042E      |        1070 |
|     575 | 0x3361      |       13153 |
|     576 | 0x3362      |       13154 |
|     577 | 0x3363      |       13155 |
|     578 | 0x3364      |       13156 |
|     579 | 0x3368      |       13160 |
|     580 | 0x0CBE      |        3262 |
|     581 | 0x3369      |       13161 |
|     582 | 0x0082      |         130 |
|     583 | 0x3367      |       13159 |
|     584 | 0x336A      |       13162 |
|     585 | 0x336B      |       13163 |
|     586 | 0xFFFFE10E  |  4294959374 |
|     587 | 0x044A      |        1098 |
|     588 | 0x336C      |       13164 |
|     589 | 0x0D0A      |        3338 |
|     590 | 0x336D      |       13165 |
|     591 | 0xFFFF0E18  |  4294905368 |
|     592 | 0xFFFFE17E  |  4294959486 |
|     593 | 0xFFFFF95C  |  4294965596 |
|     594 | 0xFFFFFCE0  |  4294966496 |
|     595 | 0xFFFFE1E2  |  4294959586 |
|     596 | 0x336E      |       13166 |
|     597 | 0x336F      |       13167 |
|     598 | 0x0097      |         151 |
|     599 | 0xFFFF02EA  |  4294902506 |
|     600 | 0xFFFFDD3C  |  4294958396 |
|     601 | 0xFFFF084E  |  4294903886 |
|     602 | 0xFFFFD507  |  4294956295 |
|     603 | 0x096A      |        2410 |
|     604 | 0x3370      |       13168 |
|     605 | 0x3371      |       13169 |
|     606 | 0x3372      |       13170 |
|     607 | 0x3373      |       13171 |
|     608 | 0x3374      |       13172 |
|     609 | 0x3375      |       13173 |
|     610 | 0x3376      |       13174 |
|     611 | 0x072A      |        1834 |
|     612 | 0x3377      |       13175 |
|     613 | 0x3378      |       13176 |
|     614 | 0x3379      |       13177 |
|     615 | 0x337A      |       13178 |
|     616 | 0x337B      |       13179 |
|     617 | 0x337C      |       13180 |
|     618 | 0x337D      |       13181 |
|     619 | 0x337E      |       13182 |
|     620 | 0x337F      |       13183 |
|     621 | 0x3380      |       13184 |
|     622 | 0x3381      |       13185 |
|     623 | 0x3382      |       13186 |
|     624 | 0x3383      |       13187 |
|     625 | 0x3384      |       13188 |
|     626 | 0x3385      |       13189 |
|     627 | 0x3386      |       13190 |
|     628 | 0x3387      |       13191 |
|     629 | 0x3388      |       13192 |
|     630 | 0x3389      |       13193 |
|     631 | 0x338A      |       13194 |
|     632 | 0x338B      |       13195 |
|     633 | 0x338C      |       13196 |
|     634 | 0x338D      |       13197 |
|     635 | 0x338E      |       13198 |
|     636 | 0x338F      |       13199 |
|     637 | 0x3390      |       13200 |
|     638 | 0x3391      |       13201 |
|     639 | 0x3392      |       13202 |
|     640 | 0x3393      |       13203 |
|     641 | 0xFFFF14F1  |  4294907121 |
|     642 | 0xFFFFD262  |  4294955618 |
|     643 | 0x0945      |        2373 |
|     644 | 0xFFFF0E96  |  4294905494 |
|     645 | 0xFFFFDBB8  |  4294958008 |
|     646 | 0x05EB      |        1515 |
|     647 | 0x3394      |       13204 |
|     648 | 0x3395      |       13205 |
|     649 | 0x3396      |       13206 |
|     650 | 0xFFFF019A  |  4294902170 |
|     651 | 0xFFFFC8CD  |  4294953165 |
|     652 | 0x035B      |         859 |
|     653 | 0x3397      |       13207 |
|     654 | 0x3398      |       13208 |
|     655 | 0x3399      |       13209 |
|     656 | 0x339A      |       13210 |
|     657 | 0x339B      |       13211 |
|     658 | 0x339C      |       13212 |
|     659 | 0x0B90      |        2960 |
|     660 | 0xFFFF63E6  |  4294927334 |
|     661 | 0x9AE8      |       39656 |
|     662 | 0xFFFF6450  |  4294927440 |
|     663 | 0xA061      |       41057 |
|     664 | 0xFFFFD8F1  |  4294957297 |
|     665 | 0x027A      |         634 |
|     666 | 0x0CDB      |        3291 |
|     667 | 0x00D5      |         213 |
|     668 | 0x339D      |       13213 |
|     669 | 0x339E      |       13214 |
|     670 | 0x339F      |       13215 |
|     671 | 0x33A0      |       13216 |
|     672 | 0x33A1      |       13217 |
|     673 | 0x33A2      |       13218 |
|     674 | 0x33A3      |       13219 |
|     675 | 0x33A4      |       13220 |
|     676 | 0x33A5      |       13221 |
|     677 | 0x33A6      |       13222 |
|     678 | 0x33A7      |       13223 |
|     679 | 0x33A8      |       13224 |
|     680 | 0x33A9      |       13225 |
|     681 | 0x33AA      |       13226 |
|     682 | 0x33AB      |       13227 |
|     683 | 0x33AC      |       13228 |
|     684 | 0x33AD      |       13229 |
|     685 | 0x33AE      |       13230 |
|     686 | 0x33AF      |       13231 |
|     687 | 0x33B0      |       13232 |
|     688 | 0x0FF3      |        4083 |
|     689 | 0x33B1      |       13233 |
|     690 | 0x33B2      |       13234 |
|     691 | 0x33B3      |       13235 |
|     692 | 0x008D      |         141 |
|     693 | 0x00AB      |         171 |
|     694 | 0x00B5      |         181 |
|     695 | 0x00BF      |         191 |
|     696 | 0x00C9      |         201 |
|     697 | 0x00D7      |         215 |

## String References

- **8289**: @@
- **8427**: Arciela V. Adoulin, daughter of the former royal family and sister to Grand Chancellor Ygnas, has entered the hall!
- **8470**: Inquire further? ["Coliseum"?]
- **13093**: You hand Arciela the $3.
- **13107**: You retrieve a verdant clump of moss-covered dirt from the floor.
- **13112**: Add your two gil? [Mention what transpired in the waterways.]
- **13137**: ...!?
- **13159**: It has absolutely no effect on Ygnas!
- **13161**: Svenja casts Cursna.
- **13168**: Your $3 begins to glow a light green.
- **13170**: A ghostly echo reverberates inside your head.
- **13183**: Do you? [Yes./No.]
- **13184**: What were they? [Aaask...the king.../Aaask...the queen...]

## Events

### Event 65535

#### Metadata

| Field        | Value   |
|--------------|---------|
| Entrypoint   | 0x0000  |
| Data Size    | 1 bytes |
| Instructions | 1       |

```
      00 01 02 03 04 05 06 07  08 09 0A 0B 0C 0D 0E 0F
      -- -- -- -- -- -- -- --  -- -- -- -- -- -- -- --
0000: 00                                                .               
```

#### Opcodes

```
  0: 0x0000 [0x00] END_REQSTACK()
```

### Event 1500

#### Metadata

| Field        | Value       |
|--------------|-------------|
| Entrypoint   | 0x0001      |
| Data Size    | 10026 bytes |
| Instructions | 1183        |

```
      00 01 02 03 04 05 06 07  08 09 0A 0B 0C 0D 0E 0F
      -- -- -- -- -- -- -- --  -- -- -- -- -- -- -- --
0000:    42 1A 1B 84 38 00 80  4E 00 F0 FF FF 7F 46 01   B...8..N.....F.
0010: 03 00 00 02 10 03 02 00  03 10 94 01 F0 FF FF 7F  ................
0020: BA F0 FF FF 7F 01 80 02  80 03 80 04 80 27 10 8E  .............'..
0030: 10 10 01 08 80 F0 FF FF  7F 80 8E 10 10 01 1A F4  ................
0040: 00 1A A3 01 1A 52 04 1A  8F 04 1A E9 04 1A E8 05  .....R..........
0050: 1A 5A 06 1A 9F 06 1A A3  07 1A 42 08 1A BF 08 1A  .Z........B.....
0060: 03 09 1A 4D 09 1A EF 09  1A 27 0A 1A 05 0B 1A 38  ...M.....'.....8
0070: 0B 1A 3A 0C 1A A4 0C 1A  C4 0D 1A 33 0E 1A D7 0E  ..:........3....
0080: 02 00 00 05 80 00 8B 00  01 91 00 1A 36 0F 1A 97  ............6...
0090: 0F 1A D8 0F 1A DE 11 1A  26 13 1A 1A 14 1A 9F 14  ........&.......
00A0: 1A 4E 15 1A E4 15 1A 1B  16 1A 96 16 1A 75 17 1A  .N...........u..
00B0: BB 17 1A 95 18 1A 27 19  1A 7E 19 1A 06 1A 1A 7C  ......'..~.....|
00C0: 1A 1A F5 1B 1A 60 1C 1A  9F 1C 1A CD 1C 1A 40 1D  .....`........@.
00D0: 1A DB 1D 1A DB 1E 1A 04  20 1A 92 20 1A E9 20 1A  ........ .. .. .
00E0: 8B 21 1A 9F 23 1A DA 23  1A FB 23 1A 1C 24 1A 3D  .!..#..#..#..$.=
00F0: 24 01 CB 26 45 06 80 F8  FF FF 7F F8 FF FF 7F 31  $..&E..........1
0100: 38 62 30 05 80 45 07 80  F0 FF FF 7F F0 FF FF 7F  8b0..E..........
0110: 66 64 69 32 05 80 29 10  F0 FF FF 7F 04 1C 08 80  fdi2..).........
0120: 29 10 F0 FF FF 7F 05 66  09 80 8E 10 10 01 8E 10  )......f........
0130: 10 01 74 6C 6B 30 03 02  10 0A 80 2B 8E 10 10 01  ..tlk0.....+....
0140: 0B 80 23 2B 8E 10 10 01  0C 80 23 55 06 80 F8 FF  ..#+......#U....
0150: FF 7F F8 FF FF 7F 31 38  62 30 45 06 80 F8 FF FF  ......18b0E.....
0160: 7F F8 FF FF 7F 31 38 61  31 05 80 2B 8E 10 10 01  .....18a1..+....
0170: 0D 80 23 2B 8E 10 10 01  0E 80 23 66 09 80 8E 10  ..#+......#f....
0180: 10 01 8E 10 10 01 74 6C  6B 32 55 06 80 F8 FF FF  ......tlk2U.....
0190: 7F F8 FF FF 7F 31 38 61  31 1A 1B 84 4E 01 8E 10  .....18a1...N...
01A0: 10 01 1B 34 0F 80 77 10  80 05 80 1C 11 80 BA F0  ...4..w.........
01B0: FF FF 7F 12 80 13 80 14  80 15 80 27 10 78 10 10  ...........'.x..
01C0: 01 04 27 10 78 10 10 01  09 27 10 79 10 10 01 09  ..'.x....'.y....
01D0: 27 10 7A 10 10 01 09 27  10 92 10 10 01 04 27 10  '.z....'......'.
01E0: 93 10 10 01 04 27 10 94  10 10 01 04 27 10 95 10  .....'......'...
01F0: 10 01 04 27 10 96 10 10  01 04 27 10 97 10 10 01  ...'......'.....
0200: 04 27 10 98 10 10 01 04  27 10 99 10 10 01 04 27  .'......'......'
0210: 10 9A 10 10 01 04 27 10  9B 10 10 01 04 27 10 9C  ......'......'..
0220: 10 10 01 04 27 10 9D 10  10 01 04 27 10 9F 10 10  ....'......'....
0230: 01 04 27 10 A0 10 10 01  04 27 10 A1 10 10 01 04  ..'......'......
0240: 27 10 90 10 10 01 04 27  10 90 10 10 01 08 27 10  '......'......'.
0250: 92 10 10 01 09 27 10 93  10 10 01 0B 27 10 94 10  .....'......'...
0260: 10 01 0B 27 10 95 10 10  01 0B 27 10 96 10 10 01  ...'......'.....
0270: 0B 27 10 97 10 10 01 32  27 10 98 10 10 01 0C 27  .'.....2'......'
0280: 10 99 10 10 01 0C 27 10  9A 10 10 01 0B 27 10 9B  ......'......'..
0290: 10 10 01 0B 27 10 9C 10  10 01 0B 27 10 9D 10 10  ....'......'....
02A0: 01 09 27 10 9F 10 10 01  0D 27 10 A0 10 10 01 0C  ..'......'......
02B0: 27 10 A1 10 10 01 0B 27  10 93 10 10 01 0A 27 10  '......'......'.
02C0: 94 10 10 01 0A 27 10 95  10 10 01 0A 27 10 96 10  .....'......'...
02D0: 10 01 0A 27 10 97 10 10  01 31 27 10 98 10 10 01  ...'.....1'.....
02E0: 0A 27 10 99 10 10 01 0B  27 10 9A 10 10 01 0A 27  .'......'......'
02F0: 10 9B 10 10 01 0A 27 10  9C 10 10 01 0A 27 05 9F  ......'......'..
0300: 10 10 01 0B 27 05 A0 10  10 01 09 27 05 A1 10 10  ....'......'....
0310: 01 09 22 00 33 01 37 16  80 17 80 18 80 19 80 BA  ..".3.7.........
0320: 90 10 10 01 1A 80 1B 80  14 80 1C 80 BA 92 10 10  ................
0330: 01 1D 80 1E 80 14 80 1F  80 BA 93 10 10 01 20 80  .............. .
0340: 14 80 14 80 1F 80 BA 94  10 10 01 21 80 22 80 14  ...........!."..
0350: 80 1F 80 BA 96 10 10 01  23 80 14 80 14 80 1F 80  ........#.......
0360: BA 95 10 10 01 24 80 25  80 14 80 1F 80 BA 97 10  .....$.%........
0370: 10 01 26 80 27 80 14 80  1F 80 BA 98 10 10 01 28  ..&.'..........(
0380: 80 29 80 14 80 1F 80 BA  99 10 10 01 2A 80 2B 80  .)..........*.+.
0390: 14 80 1F 80 BA 9A 10 10  01 2C 80 2D 80 14 80 1F  .........,.-....
03A0: 80 BA 9B 10 10 01 2E 80  2F 80 14 80 1F 80 BA 9C  ......../.......
03B0: 10 10 01 30 80 31 80 14  80 1F 80 BA 9D 10 10 01  ...0.1..........
03C0: 28 80 32 80 14 80 1F 80  BA 9F 10 10 01 33 80 34  (.2..........3.4
03D0: 80 35 80 1F 80 BA A0 10  10 01 36 80 37 80 14 80  .5........6.7...
03E0: 15 80 BA A1 10 10 01 38  80 37 80 14 80 15 80 80  .......8.7......
03F0: 92 10 10 01 80 93 10 10  01 80 94 10 10 01 80 95  ................
0400: 10 10 01 80 96 10 10 01  80 97 10 10 01 80 98 10  ................
0410: 10 01 80 99 10 10 01 80  9A 10 10 01 80 9B 10 10  ................
0420: 01 80 9C 10 10 01 80 9D  10 10 01 80 9F 10 10 01  ................
0430: 80 F0 FF FF 7F 80 A0 10  10 01 80 A1 10 10 01 80  ................
0440: 78 10 10 01 27 05 9F 10  10 01 0A 4E 01 90 10 10  x...'......N....
0450: 01 1B 48 39 80 23 45 06  80 F8 FF FF 7F F8 FF FF  ..H9.#E.........
0460: 7F 31 38 30 31 05 80 45  07 80 F0 FF FF 7F F0 FF  .1801..E........
0470: FF 7F 66 64 69 32 05 80  27 10 78 10 10 01 0A 55  ..fdi2..'.x....U
0480: 06 80 F8 FF FF 7F F8 FF  FF 7F 31 38 30 31 1B 45  ..........1801.E
0490: 06 80 F8 FF FF 7F F8 FF  FF 7F 31 38 30 32 05 80  ..........1802..
04A0: 6C 78 10 10 01 05 80 11  80 55 06 80 F8 FF FF 7F  lx.......U......
04B0: F8 FF FF 7F 31 38 30 32  6E F0 FF FF 7F 00 80 99  ....1802n.......
04C0: F0 FF FF 7F 1C 3A 80 2C  B3 10 10 01 B3 10 10 01  .....:.,........
04D0: 6F 70 65 6E 1C 3B 80 4A  F0 FF FF 7F 96 10 10 01  open.;.J........
04E0: 7B F0 FF FF 7F 1C 3C 80  1B 79 00 93 10 10 01 96  {.....<..y......
04F0: 10 10 01 79 00 96 10 10  01 93 10 10 01 45 06 80  ...y.........E..
0500: F8 FF FF 7F F8 FF FF 7F  31 38 31 30 05 80 03 02  ........1810....
0510: 10 3D 80 27 10 77 10 10  01 09 27 10 93 10 10 01  .=.'.w....'.....
0520: 0E 27 10 96 10 10 01 0C  27 10 92 10 10 01 0A 27  .'......'......'
0530: 10 99 10 10 01 0D 27 10  94 10 10 01 0C 27 10 98  ......'......'..
0540: 10 10 01 0D 27 10 95 10  10 01 0C 27 10 97 10 10  ....'......'....
0550: 01 33 27 10 9C 10 10 01  0C 27 10 9B 10 10 01 0C  .3'......'......
0560: 27 10 9D 10 10 01 0A 27  10 9F 10 10 01 0E 1C 3C  '......'.......<
0570: 80 27 10 9A 10 10 01 0C  2A 10 77 10 10 01 52 06  .'......*.w...R.
0580: 80 F8 FF FF 7F F8 FF FF  7F 31 38 31 30 45 06 80  .........1810E..
0590: F8 FF FF 7F F8 FF FF 7F  31 38 31 31 05 80 03 02  ........1811....
05A0: 10 3E 80 27 10 77 10 10  01 09 2A 10 77 10 10 01  .>.'.w....*.w...
05B0: 52 06 80 F8 FF FF 7F F8  FF FF 7F 31 38 31 31 1B  R..........1811.
05C0: 45 06 80 96 10 10 01 F8  FF FF 7F 73 30 30 31 05  E..........s001.
05D0: 80 2B 96 10 10 01 3F 80  52 06 80 96 10 10 01 F8  .+....?.R.......
05E0: FF FF 7F 73 30 30 31 1B  45 06 80 F8 FF FF 7F F8  ...s001.E.......
05F0: FF FF 7F 31 38 31 32 05  80 1C 40 80 2B 96 10 10  ...1812...@.+...
0600: 01 3F 80 23 2A 10 96 10  10 01 4A F0 FF FF 7F 96  .?.#*.....J.....
0610: 10 10 01 66 41 80 96 10  10 01 96 10 10 01 74 68  ...fA.........th
0620: 6B 31 03 02 10 42 80 2B  96 10 10 01 43 80 23 66  k1...B.+....C.#f
0630: 41 80 96 10 10 01 96 10  10 01 74 68 6B 32 1C 3B  A.........thk2.;
0640: 80 4A 96 10 10 01 93 10  10 01 52 06 80 F8 FF FF  .J........R.....
0650: 7F F8 FF FF 7F 31 38 31  32 1B 45 06 80 F8 FF FF  .....1812.E.....
0660: 7F F8 FF FF 7F 31 38 31  33 05 80 2C B3 10 10 01  .....1813..,....
0670: B3 10 10 01 63 6C 6F 73  66 44 80 96 10 10 01 96  ....closfD......
0680: 10 10 01 65 68 6E 30 2B  96 10 10 01 45 80 23 52  ...ehn0+....E.#R
0690: 06 80 F8 FF FF 7F F8 FF  FF 7F 31 38 31 33 1B 45  ..........1813.E
06A0: 06 80 F8 FF FF 7F F8 FF  FF 7F 31 38 31 34 05 80  ..........1814..
06B0: 79 00 92 10 10 01 93 10  10 01 79 00 94 10 10 01  y.........y.....
06C0: 93 10 10 01 79 00 99 10  10 01 93 10 10 01 66 46  ....y.........fF
06D0: 80 93 10 10 01 93 10 10  01 74 6C 6B 30 2B 93 10  .........tlk0+..
06E0: 10 01 47 80 23 2B 93 10  10 01 48 80 23 66 46 80  ..G.#+....H.#fF.
06F0: 93 10 10 01 93 10 10 01  74 6C 6B 31 52 06 80 F8  ........tlk1R...
0700: FF FF 7F F8 FF FF 7F 31  38 31 34 45 06 80 F8 FF  .......1814E....
0710: FF 7F F8 FF FF 7F 6B 79  6F 31 05 80 1C 49 80 7A  ......kyo1...I.z
0720: 00 98 10 10 01 7A 00 9A  10 10 01 27 05 98 10 10  .....z.....'....
0730: 01 0B BA 98 10 10 01 4A  80 4B 80 14 80 4C 80 BA  .......J.K...L..
0740: 9A 10 10 01 4D 80 4E 80  14 80 1F 80 80 98 10 10  ....M.N.........
0750: 01 80 9A 10 10 01 4A 9A  10 10 01 98 10 10 01 4A  ......J........J
0760: 98 10 10 01 9A 10 10 01  6B 69 64 6C 30 96 10 10  ........kidl0...
0770: 01 2B 93 10 10 01 4F 80  23 BA 78 10 10 01 23 80  .+....O.#.x...#.
0780: 50 80 14 80 1F 80 79 00  93 10 10 01 78 10 10 01  P.....y.....x...
0790: 1C 3B 80 52 06 80 F8 FF  FF 7F F8 FF FF 7F 6B 79  .;.R..........ky
07A0: 6F 31 1B 45 06 80 F8 FF  FF 7F F8 FF FF 7F 31 38  o1.E..........18
07B0: 31 35 05 80 66 41 80 96  10 10 01 96 10 10 01 64  15..fA.........d
07C0: 69 73 30 5B 51 80 98 10  10 01 98 10 10 01 68 65  is0[Q.........he
07D0: 6E 30 2B 96 10 10 01 52  80 79 00 92 10 10 01 96  n0+....R.y......
07E0: 10 10 01 79 00 94 10 10  01 96 10 10 01 79 00 99  ...y.........y..
07F0: 10 10 01 96 10 10 01 23  53 96 10 10 01 96 10 10  .......#S.......
0800: 01 64 69 73 30 66 53 80  96 10 10 01 96 10 10 01  .dis0fS.........
0810: 74 6C 62 30 2B 96 10 10  01 54 80 23 52 06 80 F8  tlb0+....T.#R...
0820: FF FF 7F F8 FF FF 7F 31  38 31 35 66 53 80 96 10  .......1815fS...
0830: 10 01 96 10 10 01 74 6C  62 31 27 10 9D 10 10 01  ......tlb1'.....
0840: 0B 1B 45 06 80 F8 FF FF  7F F8 FF FF 7F 31 38 31  ..E..........181
0850: 36 05 80 27 10 96 10 10  01 0D 27 10 78 10 10 01  6..'......'.x...
0860: 0E 2B 96 10 10 01 55 80  23 2A 10 96 10 10 01 4A  .+....U.#*.....J
0870: 96 10 10 01 93 10 10 01  6F 76 96 10 10 01 66 41  ........ov....fA
0880: 80 96 10 10 01 96 10 10  01 77 61 69 30 2B 96 10  .........wai0+..
0890: 10 01 56 80 23 53 96 10  10 01 96 10 10 01 77 61  ..V.#S........wa
08A0: 69 30 1C 49 80 52 06 80  F8 FF FF 7F F8 FF FF 7F  i0.I.R..........
08B0: 31 38 31 36 79 00 93 10  10 01 96 10 10 01 1B 45  1816y..........E
08C0: 06 80 93 10 10 01 F8 FF  FF 7F 31 38 31 37 05 80  ..........1817..
08D0: 6E 93 10 10 01 57 80 99  93 10 10 01 2B 93 10 10  n....W......+...
08E0: 01 58 80 23 2B 93 10 10  01 59 80 23 27 10 93 10  .X.#+....Y.#'...
08F0: 10 01 0F 52 06 80 93 10  10 01 F8 FF FF 7F 31 38  ...R..........18
0900: 31 37 1B 45 06 80 F8 FF  FF 7F F8 FF FF 7F 31 38  17.E..........18
0910: 31 38 05 80 66 5A 80 9A  10 10 01 9A 10 10 01 74  18..fZ.........t
0920: 6C 6B 30 2B 93 10 10 01  5B 80 23 2A 10 93 10 10  lk0+....[.#*....
0930: 01 7B 92 10 10 01 27 10  92 10 10 01 0B 52 06 80  .{....'......R..
0940: F8 FF FF 7F F8 FF FF 7F  31 38 31 37 1B 45 06 80  ........1817.E..
0950: F8 FF FF 7F F8 FF FF 7F  31 38 31 39 05 80 6E 96  ........1819..n.
0960: 10 10 01 05 80 99 96 10  10 01 2B 96 10 10 01 5C  ..........+....\
0970: 80 1C 08 80 23 52 06 80  F8 FF FF 7F F8 FF FF 7F  ....#R..........
0980: 31 38 31 39 45 06 80 F8  FF FF 7F F8 FF FF 7F 6B  1819E..........k
0990: 79 6F 32 05 80 4B 96 10  10 01 5D 80 2B 96 10 10  yo2..K....].+...
09A0: 01 5E 80 1C 3B 80 6E 96  10 10 01 40 80 99 96 10  .^..;.n....@....
09B0: 10 01 1C 08 80 23 4A 93  10 10 01 96 10 10 01 66  .....#J........f
09C0: 41 80 96 10 10 01 96 10  10 01 74 68 6B 31 1C 3B  A.........thk1.;
09D0: 80 2B 96 10 10 01 5F 80  23 52 06 80 F8 FF FF 7F  .+...._.#R......
09E0: F8 FF FF 7F 6B 79 6F 32  6F 76 96 10 10 01 1B 66  ....kyo2ov.....f
09F0: 41 80 96 10 10 01 96 10  10 01 74 68 6B 32 45 06  A.........thk2E.
0A00: 80 F8 FF FF 7F F8 FF FF  7F 31 38 32 30 05 80 2B  .........1820..+
0A10: 96 10 10 01 60 80 23 52  06 80 F8 FF FF 7F F8 FF  ....`.#R........
0A20: FF 7F 31 38 32 30 1B 45  06 80 F8 FF FF 7F F8 FF  ..1820.E........
0A30: FF 7F 31 38 32 31 05 80  27 10 96 10 10 01 0E 2B  ..1821..'......+
0A40: 96 10 10 01 61 80 23 BA  94 10 10 01 62 80 63 80  ....a.#.....b.c.
0A50: 14 80 1F 80 6E 93 10 10  01 57 80 99 93 10 10 01  ....n....W......
0A60: 2B 93 10 10 01 64 80 23  2A 10 96 10 10 01 52 06  +....d.#*.....R.
0A70: 80 F8 FF FF 7F F8 FF FF  7F 31 38 32 31 45 06 80  .........1821E..
0A80: F8 FF FF 7F F8 FF FF 7F  6B 79 6F 33 05 80 4A 96  ........kyo3..J.
0A90: 10 10 01 93 10 10 01 6F  76 96 10 10 01 66 41 80  .......ov....fA.
0AA0: 96 10 10 01 96 10 10 01  69 72 6F 30 1C 11 80 2B  ........iro0...+
0AB0: 96 10 10 01 65 80 23 4A  93 10 10 01 96 10 10 01  ....e.#J........
0AC0: 1C 3B 80 6E 93 10 10 01  66 80 99 93 10 10 01 2B  .;.n....f......+
0AD0: 93 10 10 01 67 80 81 00  94 10 10 01 7C 00 94 10  ....g.......|...
0AE0: 10 01 5B 68 80 94 10 10  01 94 10 10 01 66 61 30  ..[h.........fa0
0AF0: 31 1C 08 80 23 52 06 80  F8 FF FF 7F F8 FF FF 7F  1...#R..........
0B00: 6B 79 6F 33 1B 45 06 80  F8 FF FF 7F F8 FF FF 7F  kyo3.E..........
0B10: 31 38 32 32 05 80 7B 93  10 10 01 7B 96 10 10 01  1822..{....{....
0B20: 2B 94 10 10 01 69 80 23  55 06 80 F8 FF FF 7F F8  +....i.#U.......
0B30: FF FF 7F 31 38 32 32 1B  45 06 80 F8 FF FF 7F F8  ...1822.E.......
0B40: FF FF 7F 31 38 32 33 05  80 27 10 99 10 10 01 0E  ...1823..'......
0B50: 7B 94 10 10 01 5B 6A 80  98 10 10 01 98 10 10 01  {....[j.........
0B60: 75 64 65 30 4A 93 10 10  01 94 10 10 01 4A 96 10  ude0J........J..
0B70: 10 01 94 10 10 01 1C 3C  80 66 5A 80 9A 10 10 01  .......<.fZ.....
0B80: 9A 10 10 01 74 6C 6B 31  29 10 94 10 10 01 0D 1C  ....tlk1).......
0B90: 3B 80 52 06 80 F8 FF FF  7F F8 FF FF 7F 31 38 32  ;.R..........182
0BA0: 33 45 06 80 F8 FF FF 7F  F8 FF FF 7F 6B 79 6F 34  3E..........kyo4
0BB0: 05 80 5B 68 80 94 10 10  01 94 10 10 01 74 6C 6B  ..[h.........tlk
0BC0: 30 2B 94 10 10 01 6B 80  23 52 06 80 F8 FF FF 7F  0+....k.#R......
0BD0: F8 FF FF 7F 6B 79 6F 34  45 06 80 F8 FF FF 7F F8  ....kyo4E.......
0BE0: FF FF 7F 6B 79 6F 35 05  80 66 44 80 96 10 10 01  ...kyo5..fD.....
0BF0: 96 10 10 01 73 68 6B 30  2B 96 10 10 01 6C 80 23  ....shk0+....l.#
0C00: 66 46 80 93 10 10 01 93  10 10 01 74 68 6B 31 2B  fF.........thk1+
0C10: 93 10 10 01 6D 80 23 53  96 10 10 01 96 10 10 01  ....m.#S........
0C20: 73 68 6B 30 2A 10 77 10  10 01 52 06 80 F8 FF FF  shk0*.w...R.....
0C30: 7F F8 FF FF 7F 6B 79 6F  35 1B 45 06 80 F8 FF FF  .....kyo5.E.....
0C40: 7F F8 FF FF 7F 31 38 32  34 05 80 6E 9A 10 10 01  .....1824..n....
0C50: 6E 80 99 9A 10 10 01 5B  68 80 94 10 10 01 94 10  n......[h.......
0C60: 10 01 74 6C 6B 31 5B 6A  80 98 10 10 01 98 10 10  ..tlk1[j........
0C70: 01 75 64 65 31 2B 94 10  10 01 6F 80 23 66 41 80  .ude1+....o.#fA.
0C80: 96 10 10 01 96 10 10 01  67 6B 72 30 7B F0 FF FF  ........gkr0{...
0C90: 7F 1C 3E 80 52 06 80 F8  FF FF 7F F8 FF FF 7F 31  ..>.R..........1
0CA0: 38 32 34 1B 4E 00 90 10  10 01 27 05 92 10 10 01  824.N.....'.....
0CB0: 14 BA 92 10 10 01 70 80  71 80 14 80 1C 80 81 00  ......p.q.......
0CC0: 92 10 10 01 7C 00 92 10  10 01 5B 72 80 92 10 10  ....|.....[r....
0CD0: 01 92 10 10 01 66 68 30  30 1C 49 80 5B 73 80 92  .....fh00.I.[s..
0CE0: 10 10 01 92 10 10 01 77  61 6B 31 66 00 80 97 10  .......wak1f....
0CF0: 10 01 97 10 10 01 74 68  6B 31 1C 3B 80 45 06 80  ......thk1.;.E..
0D00: F8 FF FF 7F F8 FF FF 7F  73 30 30 32 05 80 6E F0  ........s002..n.
0D10: FF FF 7F 00 80 99 F0 FF  FF 7F 1C 74 80 52 06 80  ...........t.R..
0D20: F8 FF FF 7F F8 FF FF 7F  73 30 30 32 45 06 80 F8  ........s002E...
0D30: FF FF 7F F8 FF FF 7F 73  30 30 38 05 80 5B 73 80  .......s008..[s.
0D40: 90 10 10 01 90 10 10 01  65 72 69 30 1C 3A 80 27  ........eri0.:.'
0D50: 10 92 10 10 01 0C 1C 75  80 52 06 80 F8 FF FF 7F  .......u.R......
0D60: F8 FF FF 7F 73 30 30 38  45 06 80 F8 FF FF 7F F8  ....s008E.......
0D70: FF FF 7F 31 38 33 30 05  80 29 10 F0 FF FF 7F 03  ...1830..)......
0D80: 1C 75 80 7A 00 99 10 10  01 BA 99 10 10 01 76 80  .u.z..........v.
0D90: 77 80 14 80 4C 80 7B 99  10 10 01 4E 01 90 10 10  w...L.{....N....
0DA0: 01 27 05 90 10 10 01 0F  1C 40 80 2A 10 92 10 10  .'.......@.*....
0DB0: 01 1C 78 80 52 06 80 F8  FF FF 7F F8 FF FF 7F 31  ..x.R..........1
0DC0: 38 33 30 1B 45 06 80 F8  FF FF 7F F8 FF FF 7F 31  830.E..........1
0DD0: 38 33 31 05 80 66 41 80  96 10 10 01 96 10 10 01  831..fA.........
0DE0: 67 6B 72 31 5B 72 80 92  10 10 01 92 10 10 01 66  gkr1[r.........f
0DF0: 68 30 31 5B 79 80 92 10  10 01 92 10 10 01 61 67  h01[y.........ag
0E00: 65 30 1C 49 80 27 05 92  10 10 01 15 2B 92 10 10  e0.I.'......+...
0E10: 01 7A 80 23 5B 72 80 92  10 10 01 92 10 10 01 66  .z.#[r.........f
0E20: 68 30 30 52 06 80 F8 FF  FF 7F F8 FF FF 7F 31 38  h00R..........18
0E30: 33 31 1B 45 06 80 F8 FF  FF 7F F8 FF FF 7F 31 38  31.E..........18
0E40: 33 32 05 80 27 10 F0 FF  FF 7F 21 79 00 F0 FF FF  32..'.....!y....
0E50: 7F 92 10 10 01 66 00 80  97 10 10 01 97 10 10 01  .....f..........
0E60: 74 68 6B 32 1C 78 80 2A  05 F0 FF FF 7F 4A F0 FF  thk2.x.*.....J..
0E70: FF 7F 92 10 10 01 1C 3B  80 29 10 F0 FF FF 7F 17  .......;.)......
0E80: 1C 3B 80 66 7B 80 9B 10  10 01 9B 10 10 01 74 68  .;.f{.........th
0E90: 6B 31 5B 72 80 92 10 10  01 92 10 10 01 66 68 30  k1[r.........fh0
0EA0: 31 5B 72 80 92 10 10 01  92 10 10 01 74 6C 6B 30  1[r.........tlk0
0EB0: 2B 92 10 10 01 7C 80 23  5B 7D 80 92 10 10 01 92  +....|.#[}......
0EC0: 10 10 01 74 6C 62 30 52  06 80 F8 FF FF 7F F8 FF  ...tlb0R........
0ED0: FF 7F 31 38 33 32 1B 45  06 80 F8 FF FF 7F F8 FF  ..1832.E........
0EE0: FF 7F 31 38 33 33 05 80  2B 92 10 10 01 7E 80 23  ..1833..+....~.#
0EF0: 2B 92 10 10 01 7F 80 23  5B 7D 80 92 10 10 01 92  +......#[}......
0F00: 10 10 01 74 6C 62 31 2B  92 10 10 01 80 80 23 53  ...tlb1+......#S
0F10: 92 10 10 01 92 10 10 01  74 6C 62 31 1C 49 80 27  ........tlb1.I.'
0F20: 10 96 10 10 01 0F 52 06  80 F8 FF FF 7F F8 FF FF  ......R.........
0F30: 7F 31 38 33 33 1B 45 06  80 F8 FF FF 7F F8 FF FF  .1833.E.........
0F40: 7F 31 38 33 34 05 80 5B  72 80 92 10 10 01 92 10  .1834..[r.......
0F50: 10 01 66 64 30 31 1C 3B  80 5B 72 80 92 10 10 01  ..fd01.;.[r.....
0F60: 92 10 10 01 74 6C 61 30  2B 92 10 10 01 81 80 23  ....tla0+......#
0F70: 2B 92 10 10 01 82 80 23  5B 72 80 92 10 10 01 92  +......#[r......
0F80: 10 10 01 74 6C 61 31 52  06 80 F8 FF FF 7F F8 FF  ...tla1R........
0F90: FF 7F 31 38 33 34 1B 45  06 80 F8 FF FF 7F F8 FF  ..1834.E........
0FA0: FF 7F 31 38 33 35 05 80  2B 92 10 10 01 83 80 23  ..1835..+......#
0FB0: 2B 92 10 10 01 84 80 23  53 92 10 10 01 92 10 10  +......#S.......
0FC0: 01 74 6C 61 31 1C 49 80  52 06 80 F8 FF FF 7F F8  .tla1.I.R.......
0FD0: FF FF 7F 31 38 33 35 1B  45 06 80 F8 FF FF 7F F8  ...1835.E.......
0FE0: FF FF 7F 31 38 33 36 05  80 5B 68 80 94 10 10 01  ...1836..[h.....
0FF0: 94 10 10 01 66 30 30 30  5B 72 80 92 10 10 01 92  ....f000[r......
1000: 10 10 01 66 30 30 30 1C  3B 80 66 00 80 97 10 10  ...f000.;.f.....
1010: 01 97 10 10 01 74 68 6B  31 81 01 92 10 10 01 7C  .....thk1......|
1020: 01 92 10 10 01 5B 72 80  92 10 10 01 92 10 10 01  .....[r.........
1030: 74 6C 6B 30 66 7B 80 9B  10 10 01 9B 10 10 01 74  tlk0f{.........t
1040: 68 6B 32 2B 92 10 10 01  85 80 23 4A F0 FF FF 7F  hk2+......#J....
1050: 92 10 10 01 2B 92 10 10  01 86 80 23 27 10 94 10  ....+......#'...
1060: 10 01 0E 27 10 93 10 10  01 11 5B 7D 80 92 10 10  ...'......[}....
1070: 01 92 10 10 01 74 6C 62  30 2B 92 10 10 01 87 80  .....tlb0+......
1080: 23 2B 92 10 10 01 88 80  23 52 06 80 F8 FF FF 7F  #+......#R......
1090: F8 FF FF 7F 31 38 33 36  1B 45 06 80 F8 FF FF 7F  ....1836.E......
10A0: F8 FF FF 7F 31 38 33 37  05 80 2B 92 10 10 01 89  ....1837..+.....
10B0: 80 23 5B 7D 80 92 10 10  01 92 10 10 01 74 6C 62  .#[}.........tlb
10C0: 31 2B 92 10 10 01 8A 80  23 5B 79 80 92 10 10 01  1+......#[y.....
10D0: 92 10 10 01 79 61 72 30  2B 92 10 10 01 8B 80 23  ....yar0+......#
10E0: 5B 79 80 92 10 10 01 92  10 10 01 79 61 72 31 27  [y.........yar1'
10F0: 10 92 10 10 01 0D 52 06  80 F8 FF FF 7F F8 FF FF  ......R.........
1100: 7F 31 38 33 37 1B 45 06  80 F8 FF FF 7F F8 FF FF  .1837.E.........
1110: 7F 31 38 33 38 05 80 2A  10 92 10 10 01 1C 3B 80  .1838..*......;.
1120: 2B 92 10 10 01 8C 80 23  1C 3C 80 52 06 80 F8 FF  +......#.<.R....
1130: FF 7F F8 FF FF 7F 31 38  33 38 1B 45 06 80 F8 FF  ......1838.E....
1140: FF 7F F8 FF FF 7F 31 38  33 39 05 80 5B 79 80 92  ......1839..[y..
1150: 10 10 01 92 10 10 01 73  61 73 30 1C 3C 80 2B 92  .......sas0.<.+.
1160: 10 10 01 8D 80 23 1C 3C  80 52 06 80 F8 FF FF 7F  .....#.<.R......
1170: F8 FF FF 7F 31 38 33 39  1B 45 06 80 F8 FF FF 7F  ....1839.E......
1180: F8 FF FF 7F 31 38 34 30  05 80 5B 79 80 92 10 10  ....1840..[y....
1190: 01 92 10 10 01 73 61 73  31 53 92 10 10 01 92 10  .....sas1S......
11A0: 10 01 73 61 73 31 27 10  92 10 10 01 0F 81 00 92  ..sas1'.........
11B0: 10 10 01 7C 00 92 10 10  01 5B 72 80 92 10 10 01  ...|.....[r.....
11C0: 92 10 10 01 66 68 30 30  2A 10 92 10 10 01 52 06  ....fh00*.....R.
11D0: 80 F8 FF FF 7F F8 FF FF  7F 31 38 34 30 1B 45 06  .........1840.E.
11E0: 80 F8 FF FF 7F F8 FF FF  7F 31 38 33 61 05 80 5B  .........183a..[
11F0: 7D 80 92 10 10 01 92 10  10 01 74 6C 62 31 2B 92  }.........tlb1+.
1200: 10 10 01 89 80 23 5B 79  80 92 10 10 01 92 10 10  .....#[y........
1210: 01 79 61 72 30 2B 92 10  10 01 8A 80 23 2B 92 10  .yar0+......#+..
1220: 10 01 8B 80 23 5B 79 80  92 10 10 01 92 10 10 01  ....#[y.........
1230: 79 61 72 31 1C 3C 80 27  10 92 10 10 01 0E 52 06  yar1.<.'......R.
1240: 80 F8 FF FF 7F F8 FF FF  7F 31 38 33 61 45 06 80  .........183aE..
1250: F8 FF FF 7F F8 FF FF 7F  31 38 33 62 05 80 2B 92  ........183b..+.
1260: 10 10 01 8C 80 23 2A 10  92 10 10 01 5B 79 80 92  .....#*.....[y..
1270: 10 10 01 92 10 10 01 73  61 73 30 1C 3C 80 52 06  .......sas0.<.R.
1280: 80 F8 FF FF 7F F8 FF FF  7F 31 38 33 62 45 06 80  .........183bE..
1290: F8 FF FF 7F F8 FF FF 7F  31 38 33 63 05 80 1C 3C  ........183c...<
12A0: 80 2B 92 10 10 01 8D 80  23 1C 3C 80 52 06 80 F8  .+......#.<.R...
12B0: FF FF 7F F8 FF FF 7F 31  38 33 63 45 06 80 F8 FF  .......183cE....
12C0: FF 7F F8 FF FF 7F 31 38  33 64 05 80 5B 79 80 92  ......183d..[y..
12D0: 10 10 01 92 10 10 01 73  61 73 31 1C 8E 80 81 00  .......sas1.....
12E0: 92 10 10 01 7C 00 92 10  10 01 5B 72 80 92 10 10  ....|.....[r....
12F0: 01 92 10 10 01 66 68 30  30 1C 3B 80 27 10 92 10  .....fh00.;.'...
1300: 10 01 0F BA 99 10 10 01  8F 80 90 80 14 80 1F 80  ................
1310: 2A 10 92 10 10 01 52 06  80 F8 FF FF 7F F8 FF FF  *.....R.........
1320: 7F 31 38 33 64 1B 45 06  80 F8 FF FF 7F F8 FF FF  .183d.E.........
1330: 7F 31 38 34 31 05 80 4A  92 10 10 01 F0 FF FF 7F  .1841..J........
1340: 7B 92 10 10 01 6F 76 92  10 10 01 2B 92 10 10 01  {....ov....+....
1350: 91 80 5B 92 80 98 10 10  01 98 10 10 01 74 6C 61  ..[..........tla
1360: 30 5B 72 80 92 10 10 01  92 10 10 01 66 68 30 31  0[r.........fh01
1370: 1C 3B 80 5B 72 80 92 10  10 01 92 10 10 01 74 6C  .;.[r.........tl
1380: 61 30 1C 78 80 4A 96 10  10 01 92 10 10 01 7B 96  a0.x.J........{.
1390: 10 10 01 4A 99 10 10 01  92 10 10 01 23 66 5A 80  ...J........#fZ.
13A0: 9A 10 10 01 9A 10 10 01  74 68 6B 31 2B 92 10 10  ........thk1+...
13B0: 01 93 80 23 53 92 10 10  01 92 10 10 01 74 6C 61  ...#S........tla
13C0: 30 5B 72 80 92 10 10 01  92 10 10 01 66 30 30 30  0[r.........f000
13D0: 52 06 80 F8 FF FF 7F F8  FF FF 7F 31 38 34 31 45  R..........1841E
13E0: 06 80 F8 FF FF 7F F8 FF  FF 7F 6B 79 6F 36 05 80  ..........kyo6..
13F0: 1C 3C 80 2B 99 10 10 01  94 80 23 5B 72 80 92 10  .<.+......#[r...
1400: 10 01 92 10 10 01 74 6C  61 31 55 06 80 F8 FF FF  ......tla1U.....
1410: 7F F8 FF FF 7F 6B 79 6F  36 1B 45 06 80 F8 FF FF  .....kyo6.E.....
1420: 7F F8 FF FF 7F 31 38 35  30 05 80 27 10 99 10 10  .....1850..'....
1430: 01 0F 1C 40 80 4A 9D 10  10 01 92 10 10 01 7B 9D  ...@.J........{.
1440: 10 10 01 53 92 10 10 01  92 10 10 01 74 6C 61 31  ...S........tla1
1450: 81 01 92 10 10 01 7C 01  92 10 10 01 29 05 92 10  ......|.....)...
1460: 10 01 10 5B 79 80 92 10  10 01 92 10 10 01 79 61  ...[y.........ya
1470: 72 30 2A 10 99 10 10 01  66 95 80 96 10 10 01 96  r0*.....f.......
1480: 10 10 01 6D 73 75 30 2B  92 10 10 01 96 80 23 52  ...msu0+......#R
1490: 06 80 F8 FF FF 7F F8 FF  FF 7F 31 38 35 30 1B 45  ..........1850.E
14A0: 06 80 F8 FF FF 7F F8 FF  FF 7F 31 38 35 31 05 80  ..........1851..
14B0: 4A F0 FF FF 7F 99 10 10  01 66 97 80 99 10 10 01  J........f......
14C0: 99 10 10 01 74 6C 6B 30  2B 99 10 10 01 98 80 23  ....tlk0+......#
14D0: 2B 99 10 10 01 99 80 23  66 97 80 99 10 10 01 99  +......#f.......
14E0: 10 10 01 74 6C 6B 31 53  99 10 10 01 99 10 10 01  ...tlk1S........
14F0: 74 6C 6B 31 2B 99 10 10  01 9A 80 1C 40 80 27 05  tlk1+.......@.'.
1500: 99 10 10 01 12 1C 40 80  52 06 80 F8 FF FF 7F F8  ......@.R.......
1510: FF FF 7F 31 38 35 31 45  06 80 F8 FF FF 7F F8 FF  ...1851E........
1520: FF 7F 31 38 35 32 05 80  5B 79 80 92 10 10 01 92  ..1852..[y......
1530: 10 10 01 79 61 72 31 1C  08 80 23 1C 40 80 52 06  ...yar1...#.@.R.
1540: 80 F8 FF FF 7F F8 FF FF  7F 31 38 35 32 1B 45 06  .........1852.E.
1550: 80 F8 FF FF 7F F8 FF FF  7F 6B 79 6F 37 05 80 5B  .........kyo7..[
1560: 9B 80 9D 10 10 01 9D 10  10 01 74 6C 6B 30 66 95  ..........tlk0f.
1570: 80 96 10 10 01 96 10 10  01 6D 73 75 31 2B 9D 10  .........msu1+..
1580: 10 01 9C 80 79 00 96 10  10 01 9D 10 10 01 23 BA  ....y.........#.
1590: 92 10 10 01 9D 80 9E 80  14 80 05 80 BA 99 10 10  ................
15A0: 01 9F 80 A0 80 14 80 A1  80 80 92 10 10 01 80 99  ................
15B0: 10 10 01 79 00 99 10 10  01 9D 10 10 01 2B 9D 10  ...y.........+..
15C0: 10 01 A2 80 23 52 06 80  F8 FF FF 7F F8 FF FF 7F  ....#R..........
15D0: 6B 79 6F 37 5B 9B 80 9D  10 10 01 9D 10 10 01 74  kyo7[..........t
15E0: 6C 6B 31 1B 45 06 80 F8  FF FF 7F F8 FF FF 7F 31  lk1.E..........1
15F0: 38 35 33 05 80 1C 3B 80  4A 96 10 10 01 92 10 10  853...;.J.......
1600: 01 27 10 9D 10 10 01 0C  1C A3 80 52 06 80 F8 FF  .'.........R....
1610: FF 7F F8 FF FF 7F 31 38  35 33 1B 45 06 80 F8 FF  ......1853.E....
1620: FF 7F F8 FF FF 7F 31 38  35 34 05 80 2B 9D 10 10  ......1854..+...
1630: 01 A4 80 23 2A 10 9D 10  10 01 5B 9B 80 9D 10 10  ...#*.....[.....
1640: 01 9D 10 10 01 74 6C 6B  31 5B 72 80 92 10 10 01  .....tlk1[r.....
1650: 92 10 10 01 74 6C 6B 30  2B 92 10 10 01 A5 80 23  ....tlk0+......#
1660: 5B 72 80 92 10 10 01 92  10 10 01 74 6C 6B 31 5B  [r.........tlk1[
1670: 9B 80 9D 10 10 01 9D 10  10 01 74 6C 6B 30 2B 9D  ..........tlk0+.
1680: 10 10 01 A6 80 23 52 06  80 F8 FF FF 7F F8 FF FF  .....#R.........
1690: 7F 31 38 35 34 1B 45 06  80 F8 FF FF 7F F8 FF FF  .1854.E.........
16A0: 7F 31 38 35 35 05 80 2B  9D 10 10 01 A7 80 23 5B  .1855..+......#[
16B0: 9B 80 9D 10 10 01 9D 10  10 01 74 6C 6B 31 66 A8  ..........tlk1f.
16C0: 80 99 10 10 01 99 10 10  01 74 6C 6B 30 4A 9F 10  .........tlk0J..
16D0: 10 01 99 10 10 01 2B 99  10 10 01 A9 80 23 66 A8  ......+......#f.
16E0: 80 99 10 10 01 99 10 10  01 74 6C 6B 31 52 06 80  .........tlk1R..
16F0: F8 FF FF 7F F8 FF FF 7F  31 38 35 35 45 06 80 F8  ........1855E...
1700: FF FF 7F F8 FF FF 7F 6B  79 6F 38 05 80 79 00 9D  .......kyo8..y..
1710: 10 10 01 99 10 10 01 1C  3B 80 5B 9B 80 9D 10 10  ........;.[.....
1720: 01 9D 10 10 01 68 6F 6E  31 2B 9D 10 10 01 AA 80  .....hon1+......
1730: 23 5B 9B 80 9D 10 10 01  9D 10 10 01 68 6F 6E 32  #[..........hon2
1740: 1C 3B 80 7B 9D 10 10 01  1C 49 80 5B 9B 80 9D 10  .;.{.....I.[....
1750: 10 01 9D 10 10 01 79 65  73 30 2B 9D 10 10 01 AB  ......yes0+.....
1760: 80 1C AC 80 23 52 06 80  F8 FF FF 7F F8 FF FF 7F  ....#R..........
1770: 6B 79 6F 38 1B 45 06 80  F8 FF FF 7F F8 FF FF 7F  kyo8.E..........
1780: 31 38 35 36 05 80 6E 99  10 10 01 57 80 99 99 10  1856..n....W....
1790: 10 01 2B 99 10 10 01 AD  80 23 2B 99 10 10 01 AE  ..+......#+.....
17A0: 80 23 6B 69 64 6C 30 9D  10 10 01 52 06 80 F8 FF  .#kidl0....R....
17B0: FF 7F F8 FF FF 7F 31 38  35 36 1B 45 06 80 F8 FF  ......1856.E....
17C0: FF 7F F8 FF FF 7F 31 38  35 37 05 80 27 10 96 10  ......1857..'...
17D0: 10 01 10 5B 92 80 98 10  10 01 98 10 10 01 74 6C  ...[..........tl
17E0: 61 31 66 5A 80 9A 10 10  01 9A 10 10 01 74 68 6B  a1fZ.........thk
17F0: 32 2B 96 10 10 01 AF 80  1C 3C 80 4A 99 10 10 01  2+.......<.J....
1800: 96 10 10 01 1C 3B 80 4A  9D 10 10 01 96 10 10 01  .....;.J........
1810: 4A 92 10 10 01 96 10 10  01 2A 10 96 10 10 01 23  J........*.....#
1820: 5B B0 80 99 10 10 01 99  10 10 01 6B 6F 62 30 2B  [..........kob0+
1830: 99 10 10 01 B1 80 1C 3E  80 23 52 06 80 F8 FF FF  .......>.#R.....
1840: 7F F8 FF FF 7F 31 38 35  37 45 06 80 F8 FF FF 7F  .....1857E......
1850: F8 FF FF 7F 31 38 35 38  05 80 66 B2 80 96 10 10  ....1858..f.....
1860: 01 96 10 10 01 74 6C 6B  30 1C 08 80 79 00 92 10  .....tlk0...y...
1870: 10 01 99 10 10 01 6E 99  10 10 01 6E 80 99 99 10  ......n....n....
1880: 10 01 1C 08 80 52 06 80  F8 FF FF 7F F8 FF FF 7F  .....R..........
1890: 31 38 35 38 1B 45 06 80  F8 FF FF 7F F8 FF FF 7F  1858.E..........
18A0: 31 38 36 30 05 80 29 10  F0 FF FF 7F 22 6B 69 64  1860..)....."kid
18B0: 6C 30 99 10 10 01 4A 99  10 10 01 F0 FF FF 7F 4A  l0....J........J
18C0: 96 10 10 01 F0 FF FF 7F  4A 9D 10 10 01 F0 FF FF  ........J.......
18D0: 7F 29 10 F0 FF FF 7F 04  27 10 96 10 10 01 11 1C  .)......'.......
18E0: 08 80 29 10 F0 FF FF 7F  05 66 00 80 97 10 10 01  ..)......f......
18F0: 97 10 10 01 74 68 6B 32  2B 99 10 10 01 B3 80 23  ....thk2+......#
1900: 5B 72 80 92 10 10 01 92  10 10 01 74 6C 6B 30 2B  [r.........tlk0+
1910: 92 10 10 01 B4 80 23 52  06 80 F8 FF FF 7F F8 FF  ......#R........
1920: FF 7F 31 38 36 30 1B 45  06 80 F8 FF FF 7F F8 FF  ..1860.E........
1930: FF 7F 31 38 36 31 05 80  2B 92 10 10 01 B5 80 23  ..1861..+......#
1940: 2B 92 10 10 01 B6 80 23  5B 72 80 92 10 10 01 92  +......#[r......
1950: 10 10 01 74 6C 6B 31 66  97 80 99 10 10 01 99 10  ...tlk1f........
1960: 10 01 74 6C 6B 30 2B 99  10 10 01 B7 80 23 52 06  ..tlk0+......#R.
1970: 80 F8 FF FF 7F F8 FF FF  7F 31 38 36 31 1B 45 06  .........1861.E.
1980: 80 F8 FF FF 7F F8 FF FF  7F 31 38 36 32 05 80 66  .........1862..f
1990: 97 80 99 10 10 01 99 10  10 01 74 6C 6B 31 2B 99  ..........tlk1+.
19A0: 10 10 01 B8 80 23 79 00  99 10 10 01 92 10 10 01  .....#y.........
19B0: 2B 99 10 10 01 B9 80 23  52 06 80 F8 FF FF 7F F8  +......#R.......
19C0: FF FF 7F 31 38 36 32 45  06 80 F8 FF FF 7F F8 FF  ...1862E........
19D0: FF 7F 31 38 36 61 05 80  27 10 96 10 10 01 12 27  ..186a..'......'
19E0: 10 78 10 10 01 0B 2A 10  96 10 10 01 1C 3C 80 27  .x....*......<.'
19F0: 10 9F 10 10 01 0F 52 06  80 F8 FF FF 7F F8 FF FF  ......R.........
1A00: 7F 31 38 36 61 1B 45 06  80 F8 FF FF 7F F8 FF FF  .186a.E.........
1A10: 7F 31 38 36 33 05 80 2A  10 9F 10 10 01 4A 99 10  .1863..*.....J..
1A20: 10 01 9F 10 10 01 BB BA  80 F8 FF FF 7F F8 FF FF  ................
1A30: 7F 73 74 61 74 05 80 5B  BB 80 9F 10 10 01 9F 10  .stat..[........
1A40: 10 01 61 77 61 30 2B 9F  10 10 01 BC 80 23 53 9F  ..awa0+......#S.
1A50: 10 10 01 9F 10 10 01 61  77 61 30 BB BA 80 F8 FF  .......awa0.....
1A60: FF 7F F8 FF FF 7F 73 74  6F 70 05 80 52 06 80 F8  ......stop..R...
1A70: FF FF 7F F8 FF FF 7F 31  38 36 33 1B 45 06 80 F8  .......1863.E...
1A80: FF FF 7F F8 FF FF 7F 31  38 36 62 05 80 4B A0 10  .......186b..K..
1A90: 10 01 05 80 4B A1 10 10  01 4C 80 37 BD 80 BE 80  ....K....L.7....
1AA0: BF 80 19 80 4A 94 10 10  01 93 10 10 01 5B B0 80  ....J........[..
1AB0: 99 10 10 01 99 10 10 01  6B 6F 62 30 2B 99 10 10  ........kob0+...
1AC0: 01 C0 80 1C C1 80 23 5B  68 80 94 10 10 01 94 10  ......#[h.......
1AD0: 10 01 66 68 30 31 52 06  80 F8 FF FF 7F F8 FF FF  ..fh01R.........
1AE0: 7F 31 38 36 62 45 06 80  F8 FF FF 7F F8 FF FF 7F  .186bE..........
1AF0: 31 38 36 63 05 80 7B 9D  10 10 01 27 10 9D 10 10  186c..{....'....
1B00: 01 0D 27 10 99 10 10 01  10 7B 9F 10 10 01 2B 99  ..'......{....+.
1B10: 10 10 01 C2 80 23 2A 10  99 10 10 01 5B 68 80 94  .....#*.....[h..
1B20: 10 10 01 94 10 10 01 74  6C 6B 30 52 06 80 F8 FF  .......tlk0R....
1B30: FF 7F F8 FF FF 7F 31 38  36 63 45 06 80 F8 FF FF  ......186cE.....
1B40: 7F F8 FF FF 7F 73 30 30  39 05 80 5B 9B 80 9D 10  .....s009..[....
1B50: 10 01 9D 10 10 01 68 6F  6E 30 2B 99 10 10 01 C3  ......hon0+.....
1B60: 80 5B 6A 80 98 10 10 01  98 10 10 01 75 64 65 30  .[j.........ude0
1B70: 1C 3A 80 23 5B 68 80 94  10 10 01 94 10 10 01 74  .:.#[h.........t
1B80: 6C 6B 31 52 06 80 F8 FF  FF 7F F8 FF FF 7F 73 30  lk1R..........s0
1B90: 30 39 45 06 80 F8 FF FF  7F F8 FF FF 7F 73 30 31  09E..........s01
1BA0: 30 05 80 BB BA 80 F8 FF  FF 7F F8 FF FF 7F 73 74  0.............st
1BB0: 61 74 05 80 5B BB 80 9F  10 10 01 9F 10 10 01 61  at..[..........a
1BC0: 77 61 30 2B 9F 10 10 01  C4 80 23 5C 00 C5 80 5C  wa0+......#\...\
1BD0: 01 C5 80 9A BB BA 80 F8  FF FF 7F F8 FF FF 7F 73  ...............s
1BE0: 74 6F 70 05 80 52 06 80  F8 FF FF 7F F8 FF FF 7F  top..R..........
1BF0: 73 30 31 30 1B 45 06 80  F8 FF FF 7F F8 FF FF 7F  s010.E..........
1C00: 31 38 37 30 05 80 5B 68  80 94 10 10 01 94 10 10  1870..[h........
1C10: 01 66 30 30 30 81 00 90  10 10 01 7C 00 90 10 10  .f000......|....
1C20: 01 BA 90 10 10 01 05 80  14 80 14 80 15 80 4E 00  ..............N.
1C30: 90 10 10 01 5B C6 80 90  10 10 01 90 10 10 01 66  ....[..........f
1C40: 68 30 30 6B 69 64 6C 30  99 10 10 01 48 C7 80 23  h00kidl0....H..#
1C50: 52 06 80 F8 FF FF 7F F8  FF FF 7F 31 38 37 30 1B  R..........1870.
1C60: 45 06 80 F8 FF FF 7F F8  FF FF 7F 31 38 37 31 05  E..........1871.
1C70: 80 27 10 78 10 10 01 0C  1C 3E 80 52 06 80 F8 FF  .'.x.....>.R....
1C80: FF 7F F8 FF FF 7F 31 38  37 31 2C B3 10 10 01 B3  ......1871,.....
1C90: 10 10 01 6F 70 65 6E 27  10 90 10 10 01 09 1B 45  ...open'.......E
1CA0: 06 80 F8 FF FF 7F F8 FF  FF 7F 31 38 37 32 05 80  ..........1872..
1CB0: 1C 49 80 27 10 96 10 10  01 13 1C C8 80 52 06 80  .I.'.........R..
1CC0: F8 FF FF 7F F8 FF FF 7F  31 38 37 32 1B 45 06 80  ........1872.E..
1CD0: F8 FF FF 7F F8 FF FF 7F  31 38 37 33 05 80 2C B3  ........1873..,.
1CE0: 10 10 01 B3 10 10 01 63  6C 6F 73 7A 00 90 10 10  .......closz....
1CF0: 01 1C 49 80 5B C9 80 90  10 10 01 90 10 10 01 77  ..I.[..........w
1D00: 61 6B 31 1C 49 80 BA 90  10 10 01 05 80 CA 80 14  ak1.I...........
1D10: 80 15 80 BA A0 10 10 01  36 80 37 80 14 80 15 80  ........6.7.....
1D20: BA A1 10 10 01 38 80 37  80 14 80 15 80 1C A3 80  .....8.7........
1D30: 52 06 80 F8 FF FF 7F F8  FF FF 7F 31 38 37 33 1B  R..........1873.
1D40: 45 06 80 F8 FF FF 7F F8  FF FF 7F 31 38 37 34 05  E..........1874.
1D50: 80 1C 3B 80 5B CB 80 90  10 10 01 90 10 10 01 72  ..;.[..........r
1D60: 65 69 30 03 02 10 3E 80  27 10 77 10 10 01 09 2A  ei0...>.'.w....*
1D70: 10 77 10 10 01 6B 69 64  6C 30 9D 10 10 01 52 06  .w...kidl0....R.
1D80: 80 F8 FF FF 7F F8 FF FF  7F 31 38 37 34 45 06 80  .........1874E..
1D90: F8 FF FF 7F F8 FF FF 7F  31 38 37 63 05 80 5B C6  ........187c..[.
1DA0: 80 90 10 10 01 90 10 10  01 66 68 30 31 2B 90 10  .........fh01+..
1DB0: 10 01 CC 80 23 27 05 90  10 10 01 0E 5B C6 80 90  ....#'......[...
1DC0: 10 10 01 90 10 10 01 66  68 30 30 52 06 80 F8 FF  .......fh00R....
1DD0: FF 7F F8 FF FF 7F 31 38  37 63 1B 45 06 80 F8 FF  ......187c.E....
1DE0: FF 7F F8 FF FF 7F 31 38  37 35 05 80 27 10 90 10  ......1875..'...
1DF0: 10 01 0A 79 00 92 10 10  01 90 10 10 01 1C 3B 80  ...y..........;.
1E00: 2A 10 90 10 10 01 1C 49  80 4A 9F 10 10 01 90 10  *......I.J......
1E10: 10 01 4A F0 FF FF 7F 90  10 10 01 4A 99 10 10 01  ..J........J....
1E20: 90 10 10 01 4A 96 10 10  01 90 10 10 01 4A 9D 10  ....J........J..
1E30: 10 01 90 10 10 01 79 00  9D 10 10 01 90 10 10 01  ......y.........
1E40: 5B 7D 80 92 10 10 01 92  10 10 01 75 64 65 30 5B  [}.........ude0[
1E50: C6 80 90 10 10 01 90 10  10 01 66 68 30 31 5B CD  ..........fh01[.
1E60: 80 90 10 10 01 90 10 10  01 74 6C 6B 30 2B 90 10  .........tlk0+..
1E70: 10 01 CE 80 23 5B C6 80  90 10 10 01 90 10 10 01  ....#[..........
1E80: 66 68 30 30 5B CD 80 90  10 10 01 90 10 10 01 74  fh00[..........t
1E90: 6C 6B 31 5B 40 80 9F 10  10 01 9F 10 10 01 74 6C  lk1[@.........tl
1EA0: 6B 30 2B 9F 10 10 01 CF  80 23 5B 40 80 9F 10 10  k0+......#[@....
1EB0: 01 9F 10 10 01 74 6C 6B  31 1C 3B 80 5B C6 80 90  .....tlk1.;.[...
1EC0: 10 10 01 90 10 10 01 66  68 30 30 52 06 80 F8 FF  .......fh00R....
1ED0: FF 7F F8 FF FF 7F 31 38  37 35 1B 45 06 80 F8 FF  ......1875.E....
1EE0: FF 7F F8 FF FF 7F 31 38  37 36 05 80 5B 7D 80 92  ......1876..[}..
1EF0: 10 10 01 92 10 10 01 75  64 65 31 5B 40 80 9F 10  .......ude1[@...
1F00: 10 01 9F 10 10 01 63 65  72 30 1C 3E 80 27 05 9F  ......cer0.>.'..
1F10: 10 10 01 10 7B 9F 10 10  01 1C 3C 80 4A 90 10 10  ....{.....<.J...
1F20: 01 99 10 10 01 1C 3C 80  52 06 80 F8 FF FF 7F F8  ......<.R.......
1F30: FF FF 7F 31 38 37 36 45  06 80 F8 FF FF 7F F8 FF  ...1876E........
1F40: FF 7F 31 38 37 61 05 80  5B C6 80 90 10 10 01 90  ..187a..[.......
1F50: 10 10 01 66 68 30 31 5B  CD 80 90 10 10 01 90 10  ...fh01[........
1F60: 10 01 74 6C 6B 30 2B 90  10 10 01 D0 80 23 2B 90  ..tlk0+......#+.
1F70: 10 10 01 D1 80 23 5B C6  80 90 10 10 01 90 10 10  .....#[.........
1F80: 01 66 68 30 30 5B CD 80  90 10 10 01 90 10 10 01  .fh00[..........
1F90: 74 6C 6B 31 52 06 80 F8  FF FF 7F F8 FF FF 7F 31  tlk1R..........1
1FA0: 38 37 61 45 06 80 F8 FF  FF 7F F8 FF FF 7F 31 38  87aE..........18
1FB0: 37 62 05 80 BA A0 10 10  01 36 80 37 80 14 80 15  7b.......6.7....
1FC0: 80 BA A1 10 10 01 38 80  37 80 14 80 15 80 66 97  ......8.7.....f.
1FD0: 80 99 10 10 01 99 10 10  01 74 6C 6B 30 2B 99 10  .........tlk0+..
1FE0: 10 01 D2 80 23 66 97 80  99 10 10 01 99 10 10 01  ....#f..........
1FF0: 74 6C 6B 31 52 06 80 F8  FF FF 7F F8 FF FF 7F 31  tlk1R..........1
2000: 38 37 62 1B 45 06 80 F8  FF FF 7F F8 FF FF 7F 31  87b.E..........1
2010: 38 37 37 05 80 5B C6 80  90 10 10 01 90 10 10 01  877..[..........
2020: 66 68 30 31 5B CD 80 90  10 10 01 90 10 10 01 74  fh01[..........t
2030: 6C 6B 30 2B 90 10 10 01  D3 80 23 5B CD 80 90 10  lk0+......#[....
2040: 10 01 90 10 10 01 74 6C  6B 31 1C 3B 80 5B D4 80  ......tlk1.;.[..
2050: 90 10 10 01 90 10 10 01  74 6C 61 30 2B 90 10 10  ........tla0+...
2060: 01 D5 80 23 5B C6 80 90  10 10 01 90 10 10 01 66  ...#[..........f
2070: 68 30 30 5B D4 80 90 10  10 01 90 10 10 01 74 6C  h00[..........tl
2080: 61 31 55 06 80 F8 FF FF  7F F8 FF FF 7F 31 38 37  a1U..........187
2090: 37 1B 45 06 80 F8 FF FF  7F F8 FF FF 7F 31 38 37  7.E..........187
20A0: 38 05 80 2B 99 10 10 01  D6 80 23 2B 96 10 10 01  8..+......#+....
20B0: D7 80 53 96 10 10 01 96  10 10 01 73 68 6B 30 29  ..S........shk0)
20C0: 10 96 10 10 01 14 66 53  80 96 10 10 01 96 10 10  ......fS........
20D0: 01 74 6C 6B 30 23 1C 3C  80 52 06 80 F8 FF FF 7F  .tlk0#.<.R......
20E0: F8 FF FF 7F 31 38 37 38  1B 45 06 80 F8 FF FF 7F  ....1878.E......
20F0: F8 FF FF 7F 31 38 37 39  05 80 7B 92 10 10 01 5B  ....1879..{....[
2100: 72 80 92 10 10 01 92 10  10 01 66 68 30 30 27 05  r.........fh00'.
2110: 92 10 10 01 10 79 00 92  10 10 01 F0 FF FF 7F 79  .....y.........y
2120: 00 F0 FF FF 7F 92 10 10  01 2A 05 92 10 10 01 5B  .........*.....[
2130: 72 80 92 10 10 01 92 10  10 01 66 68 30 31 27 10  r.........fh01'.
2140: 92 10 10 01 11 2B 92 10  10 01 D8 80 2A 10 92 10  .....+......*...
2150: 10 01 5B 72 80 92 10 10  01 92 10 10 01 66 68 30  ..[r.........fh0
2160: 30 4A 98 10 10 01 9D 10  10 01 1C 3C 80 27 10 92  0J.........<.'..
2170: 10 10 01 12 27 10 F0 FF  FF 7F 23 52 06 80 F8 FF  ....'.....#R....
2180: FF 7F F8 FF FF 7F 31 38  37 39 1B 45 06 80 F8 FF  ......1879.E....
2190: FF 7F F8 FF FF 7F 31 38  38 30 05 80 23 2A 10 92  ......1880..#*..
21A0: 10 10 01 5B 72 80 92 10  10 01 92 10 10 01 66 68  ...[r.........fh
21B0: 30 31 1C 3B 80 27 10 9D  10 10 01 0E 7B 9D 10 10  01.;.'......{...
21C0: 01 5B 79 80 92 10 10 01  92 10 10 01 79 61 72 30  .[y.........yar0
21D0: 2B 92 10 10 01 D9 80 23  2A 10 F0 FF FF 7F 1C 11  +......#*.......
21E0: 80 4A F0 FF FF 7F 92 10  10 01 6F 76 F0 FF FF 7F  .J........ov....
21F0: 5B 79 80 92 10 10 01 92  10 10 01 79 61 72 31 52  [y.........yar1R
2200: 06 80 F8 FF FF 7F F8 FF  FF 7F 31 38 38 30 45 06  ..........1880E.
2210: 80 F8 FF FF 7F F8 FF FF  7F 31 38 38 62 05 80 2B  .........188b..+
2220: 92 10 10 01 DA 80 66 7B  80 9B 10 10 01 9B 10 10  ......f{........
2230: 01 74 68 6B 31 1C DB 80  23 4A 97 10 10 01 9B 10  .thk1...#J......
2240: 10 01 4B 95 10 10 01 DC  80 BA 96 10 10 01 DD 80  ..K.............
2250: DE 80 14 80 DF 80 80 96  10 10 01 79 00 96 10 10  ...........y....
2260: 01 99 10 10 01 79 00 99  10 10 01 96 10 10 01 5B  .....y.........[
2270: 73 80 92 10 10 01 92 10  10 01 65 72 69 30 2B 92  s.........eri0+.
2280: 10 10 01 E0 80 23 5B 72  80 92 10 10 01 92 10 10  .....#[r........
2290: 01 66 68 30 30 53 92 10  10 01 92 10 10 01 65 72  .fh00S........er
22A0: 69 30 5B CD 80 90 10 10  01 90 10 10 01 74 6C 6B  i0[..........tlk
22B0: 31 1C 40 80 52 06 80 F8  FF FF 7F F8 FF FF 7F 31  1.@.R..........1
22C0: 38 38 62 45 06 80 F8 FF  FF 7F F8 FF FF 7F 73 30  88bE..........s0
22D0: 30 33 05 80 7B 90 10 10  01 1C 3E 80 D3 00 90 10  03..{.....>.....
22E0: 10 01 66 53 80 96 10 10  01 96 10 10 01 74 6C 6B  ..fS.........tlk
22F0: 31 52 06 80 F8 FF FF 7F  F8 FF FF 7F 73 30 30 33  1R..........s003
2300: 45 06 80 F8 FF FF 7F F8  FF FF 7F 73 30 30 34 05  E..........s004.
2310: 80 81 00 90 10 10 01 7C  00 90 10 10 01 5B D4 80  .......|.....[..
2320: 90 10 10 01 90 10 10 01  61 74 61 30 1C 07 80 52  ........ata0...R
2330: 06 80 F8 FF FF 7F F8 FF  FF 7F 73 30 30 34 45 06  ..........s004E.
2340: 80 F8 FF FF 7F F8 FF FF  7F 31 38 38 61 05 80 1C  .........188a...
2350: 49 80 27 10 96 10 10 01  15 7B 96 10 10 01 1C 3B  I.'......{.....;
2360: 80 27 10 99 10 10 01 11  7B 99 10 10 01 1C 49 80  .'......{.....I.
2370: 4B 92 10 10 01 15 80 6F  76 92 10 10 01 5B 73 80  K......ov....[s.
2380: 92 10 10 01 92 10 10 01  77 61 6B 30 1C 3C 80 52  ........wak0.<.R
2390: 06 80 F8 FF FF 7F F8 FF  FF 7F 31 38 38 61 1B 45  ..........188a.E
23A0: 06 80 F8 FF FF 7F F8 FF  FF 7F 31 38 38 31 05 80  ..........1881..
23B0: 4A 90 10 10 01 F0 FF FF  7F 1C 3C 80 27 10 92 10  J.........<.'...
23C0: 10 01 13 27 05 90 10 10  01 0D 52 06 80 F8 FF FF  ...'......R.....
23D0: 7F F8 FF FF 7F 31 38 38  31 1B 45 06 80 F8 FF FF  .....1881.E.....
23E0: 7F F8 FF FF 7F 31 38 38  32 05 80 52 06 80 F8 FF  .....1882..R....
23F0: FF 7F F8 FF FF 7F 31 38  38 32 1B 45 06 80 F8 FF  ......1882.E....
2400: FF 7F F8 FF FF 7F 31 38  38 33 05 80 52 06 80 F8  ......1883..R...
2410: FF FF 7F F8 FF FF 7F 31  38 38 33 1B 45 06 80 F8  .......1883.E...
2420: FF FF 7F F8 FF FF 7F 31  38 38 34 05 80 52 06 80  .......1884..R..
2430: F8 FF FF 7F F8 FF FF 7F  31 38 38 34 1B 45 06 80  ........1884.E..
2440: F8 FF FF 7F F8 FF FF 7F  31 38 38 35 05 80 1C 49  ........1885...I
2450: 80 5B C9 80 90 10 10 01  90 10 10 01 77 61 6B 31  .[..........wak1
2460: BA 90 10 10 01 05 80 E1  80 14 80 E2 80 53 90 10  .............S..
2470: 10 01 90 10 10 01 77 61  6B 31 4A F0 FF FF 7F 90  ......wak1J.....
2480: 10 10 01 1C 3B 80 5B C6  80 90 10 10 01 90 10 10  ....;.[.........
2490: 01 66 68 30 31 2B 90 10  10 01 E3 80 23 1C 3B 80  .fh01+......#.;.
24A0: 52 06 80 F8 FF FF 7F F8  FF FF 7F 31 38 38 35 02  R..........1885.
24B0: 87 7F E4 80 80 CB 24 45  06 80 F8 FF FF 7F F8 FF  ......$E........
24C0: FF 7F 73 30 31 32 05 80  01 4C 25 02 87 7F E5 80  ..s012...L%.....
24D0: 80 E7 24 45 06 80 F8 FF  FF 7F F8 FF FF 7F 73 30  ..$E..........s0
24E0: 31 32 05 80 01 4C 25 02  87 7F 78 80 80 03 25 45  12...L%...x...%E
24F0: 06 80 F8 FF FF 7F F8 FF  FF 7F 73 30 30 36 05 80  ..........s006..
2500: 01 4C 25 02 87 7F 57 80  80 1F 25 45 06 80 F8 FF  .L%...W...%E....
2510: FF 7F F8 FF FF 7F 73 30  30 36 05 80 01 4C 25 02  ......s006...L%.
2520: 87 7F E6 80 80 3B 25 45  06 80 F8 FF FF 7F F8 FF  .....;%E........
2530: FF 7F 73 30 31 32 05 80  01 4C 25 45 06 80 F8 FF  ..s012...L%E....
2540: FF 7F F8 FF FF 7F 73 30  30 35 05 80 6E F0 FF FF  ......s005..n...
2550: 7F E7 80 99 F0 FF FF 7F  1C 75 80 27 05 90 10 10  .........u.'....
2560: 01 0E BA 90 10 10 01 05  80 E1 80 14 80 A1 80 02  ................
2570: 87 7F 78 80 80 9E 25 5B  E8 80 90 10 10 01 90 10  ..x...%[........
2580: 10 01 6B 62 69 30 1C 3C  80 5B E8 80 90 10 10 01  ..kbi0.<.[......
2590: 90 10 10 01 6B 62 69 31  1C 40 80 01 F1 25 02 87  ....kbi1.@...%..
25A0: 7F 57 80 80 CD 25 5B E8  80 90 10 10 01 90 10 10  .W...%[.........
25B0: 01 6B 62 69 30 1C 3C 80  5B E8 80 90 10 10 01 90  .kbi0.<.[.......
25C0: 10 10 01 6B 62 69 31 1C  40 80 01 F1 25 5B CB 80  ...kbi1.@...%[..
25D0: 90 10 10 01 90 10 10 01  66 72 69 31 1C 3C 80 5B  ........fri1.<.[
25E0: CB 80 90 10 10 01 90 10  10 01 66 72 69 32 1C 40  ..........fri2.@
25F0: 80 52 06 80 F8 FF FF 7F  F8 FF FF 7F 73 30 30 35  .R..........s005
2600: 52 06 80 F8 FF FF 7F F8  FF FF 7F 73 30 30 36 52  R..........s006R
2610: 06 80 F8 FF FF 7F F8 FF  FF 7F 73 30 31 32 02 87  ..........s012..
2620: 7F 78 80 80 3A 26 45 06  80 F8 FF FF 7F F8 FF FF  .x..:&E.........
2630: 7F 73 30 31 31 05 80 01  67 26 02 87 7F 57 80 80  .s011...g&...W..
2640: 56 26 45 06 80 F8 FF FF  7F F8 FF FF 7F 73 30 31  V&E..........s01
2650: 31 05 80 01 67 26 45 06  80 F8 FF FF 7F F8 FF FF  1...g&E.........
2660: 7F 73 30 30 37 05 80 03  02 10 E9 80 27 10 77 10  .s007.......'.w.
2670: 10 01 09 2B 90 10 10 01  EA 80 23 2B 90 10 10 01  ...+......#+....
2680: EB 80 23 2A 10 77 10 10  01 5B C6 80 90 10 10 01  ..#*.w...[......
2690: 90 10 10 01 66 68 30 30  52 06 80 F8 FF FF 7F F8  ....fh00R.......
26A0: FF FF 7F 73 30 30 37 52  06 80 F8 FF FF 7F F8 FF  ...s007R........
26B0: FF 7F 73 30 31 31 45 06  80 F8 FF FF 7F F8 FF FF  ..s011E.........
26C0: 7F 31 38 38 37 05 80 1C  3D 80 1B 5D 05 80 3E 80  .1887...=..]..>.
26D0: 1A 1B 84 1C 3B 80 52 06  80 F8 FF FF 7F F8 FF FF  ....;.R.........
26E0: 7F 31 38 38 37 27 05 A0  10 10 01 0B 27 05 A1 10  .1887'......'...
26F0: 10 01 0A 27 05 9F 10 10  01 0C 1C 49 80 AB 11 05  ...'.......I....
2700: 80 1C 11 80 35 EC 80 78  1C 49 80 AB 0A 5C 00 ED  ....5..x.I...\..
2710: 80 5C 01 ED 80 9A 46 00  45 07 80 F0 FF FF 7F F0  .\....F.E.......
2720: FF FF 7F 66 64 69 32 05  80 21 00                 ...fdi2..!.     
```

#### Opcodes

```
  0: 0x0001 [0x42] SET_CLI_EVENT_CANCEL_DATA()
  1: 0x0002 [0x1A] CALL_SUBROUTINE(address=0x841B)
  2: 0x0005 [0x38] SET_CLIENT_EVENT_MODE(mode=19*)
  3: 0x0008 [0x4E] SET_ENTITY_HIDE_FLAG: Show LocalPlayer
  4: 0x000E [0x46] CAMERA_CONTROL: Disable user control
  5: 0x0010 [0x03] ExtData[1]->WorkLocal[0] = Work_Zone[2]
  6: 0x0015 [0x03] ExtData[1]->WorkLocal[2] = Work_Zone[3]
  7: 0x001A [0x94] LocalPlayer->Render.Flags3 ^= 0x01
  8: 0x0020 [0xBA] SET_ENTITY_POSITION(entity_id=LocalPlayer, pos_x=98.778*, pos_z=-63.557*, pos_y=-40.148*, direction=16.0*)
  9: 0x002D [0x27] REQ_SET(priority=0x10, entity_id=Ploh Trishbahk (ID: 17830030/0x0110108E), tag_num=0x08)
 10: 0x0034 [0x80] LOAD_WAIT(entity=LocalPlayer)
 11: 0x0039 [0x80] LOAD_WAIT(entity=Ploh Trishbahk (ID: 17830030/0x0110108E))
 12: 0x003E [0x1A] CALL_SUBROUTINE(address=0x00F4)
 13: 0x0041 [0x1A] CALL_SUBROUTINE(address=0x01A3)
 14: 0x0044 [0x1A] CALL_SUBROUTINE(address=0x0452)
 15: 0x0047 [0x1A] CALL_SUBROUTINE(address=0x048F)
 16: 0x004A [0x1A] CALL_SUBROUTINE(address=0x04E9)
 17: 0x004D [0x1A] CALL_SUBROUTINE(address=0x05E8)
 18: 0x0050 [0x1A] CALL_SUBROUTINE(address=0x065A)
 19: 0x0053 [0x1A] CALL_SUBROUTINE(address=0x069F)
 20: 0x0056 [0x1A] CALL_SUBROUTINE(address=0x07A3)
 21: 0x0059 [0x1A] CALL_SUBROUTINE(address=0x0842)
 22: 0x005C [0x1A] CALL_SUBROUTINE(address=0x08BF)
 23: 0x005F [0x1A] CALL_SUBROUTINE(address=0x0903)
 24: 0x0062 [0x1A] CALL_SUBROUTINE(address=0x094D)
 25: 0x0065 [0x1A] CALL_SUBROUTINE(address=0x09EF)
 26: 0x0068 [0x1A] CALL_SUBROUTINE(address=0x0A27)
 27: 0x006B [0x1A] CALL_SUBROUTINE(address=0x0B05)
 28: 0x006E [0x1A] CALL_SUBROUTINE(address=0x0B38)
 29: 0x0071 [0x1A] CALL_SUBROUTINE(address=0x0C3A)
 30: 0x0074 [0x1A] CALL_SUBROUTINE(address=0x0CA4)
 31: 0x0077 [0x1A] CALL_SUBROUTINE(address=0x0DC4)
 32: 0x007A [0x1A] CALL_SUBROUTINE(address=0x0E33)
 33: 0x007D [0x1A] CALL_SUBROUTINE(address=0x0ED7)
 34: 0x0080 [0x02] IF !(ExtData[1]->WorkLocal[0] == 0*) GOTO 0x008B
 35: 0x0088 [0x01] GOTO 0x0091
 36: 0x008B [0x1A] CALL_SUBROUTINE(address=0x0F36)
 37: 0x008E [0x1A] CALL_SUBROUTINE(address=0x0F97)

SUBROUTINE_0091:
 38: 0x0091 [0x1A] CALL_SUBROUTINE(address=0x0FD8)
 39: 0x0094 [0x1A] CALL_SUBROUTINE(address=0x11DE)
 40: 0x0097 [0x1A] CALL_SUBROUTINE(address=0x1326)
 41: 0x009A [0x1A] CALL_SUBROUTINE(address=0x141A)
 42: 0x009D [0x1A] CALL_SUBROUTINE(address=0x149F)
 43: 0x00A0 [0x1A] CALL_SUBROUTINE(address=0x154E)
 44: 0x00A3 [0x1A] CALL_SUBROUTINE(address=0x15E4)
 45: 0x00A6 [0x1A] CALL_SUBROUTINE(address=0x161B)
 46: 0x00A9 [0x1A] CALL_SUBROUTINE(address=0x1696)
 47: 0x00AC [0x1A] CALL_SUBROUTINE(address=0x1775)
 48: 0x00AF [0x1A] CALL_SUBROUTINE(address=0x17BB)
 49: 0x00B2 [0x1A] CALL_SUBROUTINE(address=0x1895)
 50: 0x00B5 [0x1A] CALL_SUBROUTINE(address=0x1927)
 51: 0x00B8 [0x1A] CALL_SUBROUTINE(address=0x197E)
 52: 0x00BB [0x1A] CALL_SUBROUTINE(address=0x1A06)
 53: 0x00BE [0x1A] CALL_SUBROUTINE(address=0x1A7C)
 54: 0x00C1 [0x1A] CALL_SUBROUTINE(address=0x1BF5)
 55: 0x00C4 [0x1A] CALL_SUBROUTINE(address=0x1C60)
 56: 0x00C7 [0x1A] CALL_SUBROUTINE(address=0x1C9F)
 57: 0x00CA [0x1A] CALL_SUBROUTINE(address=0x1CCD)
 58: 0x00CD [0x1A] CALL_SUBROUTINE(address=0x1D40)
 59: 0x00D0 [0x1A] CALL_SUBROUTINE(address=0x1DDB)
 60: 0x00D3 [0x1A] CALL_SUBROUTINE(address=0x1EDB)
 61: 0x00D6 [0x1A] CALL_SUBROUTINE(address=0x2004)
 62: 0x00D9 [0x1A] CALL_SUBROUTINE(address=0x2092)
 63: 0x00DC [0x1A] CALL_SUBROUTINE(address=0x20E9)
 64: 0x00DF [0x1A] CALL_SUBROUTINE(address=0x218B)
 65: 0x00E2 [0x1A] CALL_SUBROUTINE(address=0x239F)
 66: 0x00E5 [0x1A] CALL_SUBROUTINE(address=0x23DA)
 67: 0x00E8 [0x1A] CALL_SUBROUTINE(address=0x23FB)
 68: 0x00EB [0x1A] CALL_SUBROUTINE(address=0x241C)
 69: 0x00EE [0x1A] CALL_SUBROUTINE(address=0x243D)
 70: 0x00F1 [0x01] GOTO 0x26CB

SUBROUTINE_00F4:
 71: 0x00F4 [0x45] LOAD_SCHEDULED_TASK: Load scheduler "18b0" with entities [EventEntity, EventEntity], work=[580*, 0*]
 72: 0x0105 [0x45] LOAD_SCHEDULED_TASK: Load scheduler "fdi2" with entities [LocalPlayer, LocalPlayer], work=[200*, 0*]
 73: 0x0116 [0x29] REQ_SET_WAIT(priority=0x10, entity_id=LocalPlayer, tag_num=0x04)
 74: 0x011D [0x1C] WAIT(90* ticks)
 75: 0x0120 [0x29] REQ_SET_WAIT(priority=0x10, entity_id=LocalPlayer, tag_num=0x05)
 76: 0x0127 [0x66] LOAD_EXT_SCHEDULER_MAIN: Load scheduler "tlk0" with entities [Ploh Trishbahk (ID: 17830030/0x0110108E), Ploh Trishbahk (ID: 17830030/0x0110108E)], work=50*
 77: 0x0136 [0x03] Work_Zone[2] = 2200*
 78: 0x013B [0x2B] Ploh Trishbahk (ID: 17830030/0x0110108E) [8345*]:
     "Thank you for proffering your $3."
 79: 0x0142 [0x23] WAIT_FOR_DIALOG_INTERACTION
 80: 0x0143 [0x2B] Ploh Trishbahk (ID: 17830030/0x0110108E) [8348*]:
     "<Player>...yes, you are indeed on the invite list."
 81: 0x014A [0x23] WAIT_FOR_DIALOG_INTERACTION
 82: 0x014B [0x55] WAIT_LOAD_SCHEDULER: Wait for scheduler "18b0" with entities [EventEntity, EventEntity], work=580*
 83: 0x015A [0x45] LOAD_SCHEDULED_TASK: Load scheduler "18a1" with entities [EventEntity, EventEntity], work=[580*, 0*]
 84: 0x016B [0x2B] Ploh Trishbahk (ID: 17830030/0x0110108E) [8349*]:
     "There should be a servant waiting inside the castle to escort you to the dinner."
 85: 0x0172 [0x23] WAIT_FOR_DIALOG_INTERACTION
 86: 0x0173 [0x2B] Ploh Trishbahk (ID: 17830030/0x0110108E) [8350*]:
     "We hope you find the festivities to your liking."
 87: 0x017A [0x23] WAIT_FOR_DIALOG_INTERACTION
 88: 0x017B [0x66] LOAD_EXT_SCHEDULER_MAIN: Load scheduler "tlk2" with entities [Ploh Trishbahk (ID: 17830030/0x0110108E), Ploh Trishbahk (ID: 17830030/0x0110108E)], work=50*
 89: 0x018A [0x55] WAIT_LOAD_SCHEDULER: Wait for scheduler "18a1" with entities [EventEntity, EventEntity], work=580*
 90: 0x0199 [0x1A] CALL_SUBROUTINE(address=0x841B)
 91: 0x019C [0x4E] SET_ENTITY_HIDE_FLAG: Hide Ploh Trishbahk (ID: 17830030/0x0110108E)
 92: 0x01A2 [0x1B] RETURN

SUBROUTINE_01A3:
 93: 0x01A3 [0x34] LOAD_UNLOAD_ZONE(zone_id=584*)
 94: 0x01A6 [0x77] SET_EVENT_TIME_WEATHER(hour=255*, weather=0*)
 95: 0x01AB [0x1C] WAIT(1* ticks)
 96: 0x01AE [0xBA] SET_ENTITY_POSITION(entity_id=LocalPlayer, pos_x=-6.445*, pos_z=-12.907*, pos_y=-1.500*, direction=90.0*)
 97: 0x01BB [0x27] REQ_SET(priority=0x10, entity_id=Unnamed NPC (ID: 17830008/0x01101078), tag_num=0x04)
 98: 0x01C2 [0x27] REQ_SET(priority=0x10, entity_id=Unnamed NPC (ID: 17830008/0x01101078), tag_num=0x09)
 99: 0x01C9 [0x27] REQ_SET(priority=0x10, entity_id=Unnamed NPC (ID: 17830009/0x01101079), tag_num=0x09)
100: 0x01D0 [0x27] REQ_SET(priority=0x10, entity_id=Unnamed NPC (ID: 17830010/0x0110107A), tag_num=0x09)
101: 0x01D7 [0x27] REQ_SET(priority=0x10, entity_id=Melvien (ID: 17830034/0x01101092), tag_num=0x04)
102: 0x01DE [0x27] REQ_SET(priority=0x10, entity_id=Hildebert (ID: 17830035/0x01101093), tag_num=0x04)
103: 0x01E5 [0x27] REQ_SET(priority=0x10, entity_id=Svenja (ID: 17830036/0x01101094), tag_num=0x04)
104: 0x01EC [0x27] REQ_SET(priority=0x10, entity_id=Ikhi Askamot (ID: 17830037/0x01101095), tag_num=0x04)
105: 0x01F3 [0x27] REQ_SET(priority=0x10, entity_id=Chero-Machero (ID: 17830038/0x01101096), tag_num=0x04)
106: 0x01FA [0x27] REQ_SET(priority=0x10, entity_id=Margret (ID: 17830039/0x01101097), tag_num=0x04)
107: 0x0201 [0x27] REQ_SET(priority=0x10, entity_id=Lhe Lhangavo (ID: 17830040/0x01101098), tag_num=0x04)
108: 0x0208 [0x27] REQ_SET(priority=0x10, entity_id=Gratzigg (ID: 17830041/0x01101099), tag_num=0x04)
109: 0x020F [0x27] REQ_SET(priority=0x10, entity_id=Flaviria (ID: 17830042/0x0110109A), tag_num=0x04)
110: 0x0216 [0x27] REQ_SET(priority=0x10, entity_id=Reginald (ID: 17830043/0x0110109B), tag_num=0x04)
111: 0x021D [0x27] REQ_SET(priority=0x10, entity_id=Amchuchu (ID: 17830044/0x0110109C), tag_num=0x04)
112: 0x0224 [0x27] REQ_SET(priority=0x10, entity_id=Vortimere (ID: 17830045/0x0110109D), tag_num=0x04)
113: 0x022B [0x27] REQ_SET(priority=0x10, entity_id=Unnamed NPC (ID: 17830047/0x0110109F), tag_num=0x04)
114: 0x0232 [0x27] REQ_SET(priority=0x10, entity_id=Unnamed NPC (ID: 17830048/0x011010A0), tag_num=0x04)
115: 0x0239 [0x27] REQ_SET(priority=0x10, entity_id=Unnamed NPC (ID: 17830049/0x011010A1), tag_num=0x04)
116: 0x0240 [0x27] REQ_SET(priority=0x10, entity_id=Arciela (ID: 17830032/0x01101090), tag_num=0x04)
117: 0x0247 [0x27] REQ_SET(priority=0x10, entity_id=Arciela (ID: 17830032/0x01101090), tag_num=0x08)
118: 0x024E [0x27] REQ_SET(priority=0x10, entity_id=Melvien (ID: 17830034/0x01101092), tag_num=0x09)
119: 0x0255 [0x27] REQ_SET(priority=0x10, entity_id=Hildebert (ID: 17830035/0x01101093), tag_num=0x0B)
120: 0x025C [0x27] REQ_SET(priority=0x10, entity_id=Svenja (ID: 17830036/0x01101094), tag_num=0x0B)
121: 0x0263 [0x27] REQ_SET(priority=0x10, entity_id=Ikhi Askamot (ID: 17830037/0x01101095), tag_num=0x0B)
122: 0x026A [0x27] REQ_SET(priority=0x10, entity_id=Chero-Machero (ID: 17830038/0x01101096), tag_num=0x0B)
123: 0x0271 [0x27] REQ_SET(priority=0x10, entity_id=Margret (ID: 17830039/0x01101097), tag_num=0x32)
124: 0x0278 [0x27] REQ_SET(priority=0x10, entity_id=Lhe Lhangavo (ID: 17830040/0x01101098), tag_num=0x0C)
125: 0x027F [0x27] REQ_SET(priority=0x10, entity_id=Gratzigg (ID: 17830041/0x01101099), tag_num=0x0C)
126: 0x0286 [0x27] REQ_SET(priority=0x10, entity_id=Flaviria (ID: 17830042/0x0110109A), tag_num=0x0B)
127: 0x028D [0x27] REQ_SET(priority=0x10, entity_id=Reginald (ID: 17830043/0x0110109B), tag_num=0x0B)
128: 0x0294 [0x27] REQ_SET(priority=0x10, entity_id=Amchuchu (ID: 17830044/0x0110109C), tag_num=0x0B)
129: 0x029B [0x27] REQ_SET(priority=0x10, entity_id=Vortimere (ID: 17830045/0x0110109D), tag_num=0x09)
130: 0x02A2 [0x27] REQ_SET(priority=0x10, entity_id=Unnamed NPC (ID: 17830047/0x0110109F), tag_num=0x0D)
131: 0x02A9 [0x27] REQ_SET(priority=0x10, entity_id=Unnamed NPC (ID: 17830048/0x011010A0), tag_num=0x0C)
132: 0x02B0 [0x27] REQ_SET(priority=0x10, entity_id=Unnamed NPC (ID: 17830049/0x011010A1), tag_num=0x0B)
133: 0x02B7 [0x27] REQ_SET(priority=0x10, entity_id=Hildebert (ID: 17830035/0x01101093), tag_num=0x0A)
134: 0x02BE [0x27] REQ_SET(priority=0x10, entity_id=Svenja (ID: 17830036/0x01101094), tag_num=0x0A)
135: 0x02C5 [0x27] REQ_SET(priority=0x10, entity_id=Ikhi Askamot (ID: 17830037/0x01101095), tag_num=0x0A)
136: 0x02CC [0x27] REQ_SET(priority=0x10, entity_id=Chero-Machero (ID: 17830038/0x01101096), tag_num=0x0A)
137: 0x02D3 [0x27] REQ_SET(priority=0x10, entity_id=Margret (ID: 17830039/0x01101097), tag_num=0x31)
138: 0x02DA [0x27] REQ_SET(priority=0x10, entity_id=Lhe Lhangavo (ID: 17830040/0x01101098), tag_num=0x0A)
139: 0x02E1 [0x27] REQ_SET(priority=0x10, entity_id=Gratzigg (ID: 17830041/0x01101099), tag_num=0x0B)
140: 0x02E8 [0x27] REQ_SET(priority=0x10, entity_id=Flaviria (ID: 17830042/0x0110109A), tag_num=0x0A)
141: 0x02EF [0x27] REQ_SET(priority=0x10, entity_id=Reginald (ID: 17830043/0x0110109B), tag_num=0x0A)
142: 0x02F6 [0x27] REQ_SET(priority=0x10, entity_id=Amchuchu (ID: 17830044/0x0110109C), tag_num=0x0A)
143: 0x02FD [0x27] REQ_SET(priority=0x05, entity_id=Unnamed NPC (ID: 17830047/0x0110109F), tag_num=0x0B)
144: 0x0304 [0x27] REQ_SET(priority=0x05, entity_id=Unnamed NPC (ID: 17830048/0x011010A0), tag_num=0x09)
145: 0x030B [0x27] REQ_SET(priority=0x05, entity_id=Unnamed NPC (ID: 17830049/0x011010A1), tag_num=0x09)
146: 0x0312 [0x22] ENTITY_HIDE_FLAG(enabled=0x00)
147: 0x0314 [0x33] EventEntity->Render.Flags0 |= 0x200000 // Bit 21 (flag=0x01)
148: 0x0316 [0x37] UPDATE_EVENT_POSITION_AND_DIR: x=1.108*, z=-11.329*, y=-2.600*, direction=314.0*
149: 0x031F [0xBA] SET_ENTITY_POSITION(entity_id=Arciela (ID: 17830032/0x01101090), pos_x=-2.382*, pos_z=-19.458*, pos_y=-1.500*, direction=225.0*)
150: 0x032C [0xBA] SET_ENTITY_POSITION(entity_id=Melvien (ID: 17830034/0x01101092), pos_x=-0.845*, pos_z=-0.204*, pos_y=-1.500*, direction=94.3*)
151: 0x0339 [0xBA] SET_ENTITY_POSITION(entity_id=Hildebert (ID: 17830035/0x01101093), pos_x=-0.500*, pos_z=-1.500*, pos_y=-1.500*, direction=94.3*)
152: 0x0346 [0xBA] SET_ENTITY_POSITION(entity_id=Svenja (ID: 17830036/0x01101094), pos_x=0.055*, pos_z=0.753*, pos_y=-1.500*, direction=94.3*)
153: 0x0353 [0xBA] SET_ENTITY_POSITION(entity_id=Chero-Machero (ID: 17830038/0x01101096), pos_x=0.500*, pos_z=-1.500*, pos_y=-1.500*, direction=94.3*)
154: 0x0360 [0xBA] SET_ENTITY_POSITION(entity_id=Ikhi Askamot (ID: 17830037/0x01101095), pos_x=-0.919*, pos_z=1.391*, pos_y=-1.500*, direction=94.3*)
155: 0x036D [0xBA] SET_ENTITY_POSITION(entity_id=Margret (ID: 17830039/0x01101097), pos_x=-0.821*, pos_z=2.618*, pos_y=-1.500*, direction=94.3*)
156: 0x037A [0xBA] SET_ENTITY_POSITION(entity_id=Lhe Lhangavo (ID: 17830040/0x01101098), pos_x=0.111*, pos_z=2.078*, pos_y=-1.500*, direction=94.3*)
157: 0x0387 [0xBA] SET_ENTITY_POSITION(entity_id=Gratzigg (ID: 17830041/0x01101099), pos_x=0.412*, pos_z=-0.337*, pos_y=-1.500*, direction=94.3*)
158: 0x0394 [0xBA] SET_ENTITY_POSITION(entity_id=Flaviria (ID: 17830042/0x0110109A), pos_x=0.569*, pos_z=-0.311*, pos_y=-1.500*, direction=94.3*)
159: 0x03A1 [0xBA] SET_ENTITY_POSITION(entity_id=Reginald (ID: 17830043/0x0110109B), pos_x=0.062*, pos_z=3.600*, pos_y=-1.500*, direction=94.3*)
160: 0x03AE [0xBA] SET_ENTITY_POSITION(entity_id=Amchuchu (ID: 17830044/0x0110109C), pos_x=0.946*, pos_z=2.717*, pos_y=-1.500*, direction=94.3*)
161: 0x03BB [0xBA] SET_ENTITY_POSITION(entity_id=Vortimere (ID: 17830045/0x0110109D), pos_x=0.111*, pos_z=4.803*, pos_y=-1.500*, direction=94.3*)
162: 0x03C8 [0xBA] SET_ENTITY_POSITION(entity_id=Unnamed NPC (ID: 17830047/0x0110109F), pos_x=0.566*, pos_z=6.218*, pos_y=-1.499*, direction=94.3*)
163: 0x03D5 [0xBA] SET_ENTITY_POSITION(entity_id=Unnamed NPC (ID: 17830048/0x011010A0), pos_x=-3.000*, pos_z=-5.500*, pos_y=-1.500*, direction=90.0*)
164: 0x03E2 [0xBA] SET_ENTITY_POSITION(entity_id=Unnamed NPC (ID: 17830049/0x011010A1), pos_x=3.000*, pos_z=-5.500*, pos_y=-1.500*, direction=90.0*)
165: 0x03EF [0x80] LOAD_WAIT(entity=Melvien (ID: 17830034/0x01101092))
166: 0x03F4 [0x80] LOAD_WAIT(entity=Hildebert (ID: 17830035/0x01101093))
167: 0x03F9 [0x80] LOAD_WAIT(entity=Svenja (ID: 17830036/0x01101094))
168: 0x03FE [0x80] LOAD_WAIT(entity=Ikhi Askamot (ID: 17830037/0x01101095))
169: 0x0403 [0x80] LOAD_WAIT(entity=Chero-Machero (ID: 17830038/0x01101096))
170: 0x0408 [0x80] LOAD_WAIT(entity=Margret (ID: 17830039/0x01101097))
171: 0x040D [0x80] LOAD_WAIT(entity=Lhe Lhangavo (ID: 17830040/0x01101098))
172: 0x0412 [0x80] LOAD_WAIT(entity=Gratzigg (ID: 17830041/0x01101099))
173: 0x0417 [0x80] LOAD_WAIT(entity=Flaviria (ID: 17830042/0x0110109A))
174: 0x041C [0x80] LOAD_WAIT(entity=Reginald (ID: 17830043/0x0110109B))
175: 0x0421 [0x80] LOAD_WAIT(entity=Amchuchu (ID: 17830044/0x0110109C))
176: 0x0426 [0x80] LOAD_WAIT(entity=Vortimere (ID: 17830045/0x0110109D))
177: 0x042B [0x80] LOAD_WAIT(entity=Unnamed NPC (ID: 17830047/0x0110109F))
178: 0x0430 [0x80] LOAD_WAIT(entity=LocalPlayer)
179: 0x0435 [0x80] LOAD_WAIT(entity=Unnamed NPC (ID: 17830048/0x011010A0))
180: 0x043A [0x80] LOAD_WAIT(entity=Unnamed NPC (ID: 17830049/0x011010A1))
181: 0x043F [0x80] LOAD_WAIT(entity=Unnamed NPC (ID: 17830008/0x01101078))
182: 0x0444 [0x27] REQ_SET(priority=0x05, entity_id=Unnamed NPC (ID: 17830047/0x0110109F), tag_num=0x0A)
183: 0x044B [0x4E] SET_ENTITY_HIDE_FLAG: Hide Arciela (ID: 17830032/0x01101090)
184: 0x0451 [0x1B] RETURN

SUBROUTINE_0452:
185: 0x0452 [0x48] [System] [8289*]:
     "@@"
186: 0x0455 [0x23] WAIT_FOR_DIALOG_INTERACTION
187: 0x0456 [0x45] LOAD_SCHEDULED_TASK: Load scheduler "1801" with entities [EventEntity, EventEntity], work=[580*, 0*]
188: 0x0467 [0x45] LOAD_SCHEDULED_TASK: Load scheduler "fdi2" with entities [LocalPlayer, LocalPlayer], work=[200*, 0*]
189: 0x0478 [0x27] REQ_SET(priority=0x10, entity_id=Unnamed NPC (ID: 17830008/0x01101078), tag_num=0x0A)
190: 0x047F [0x55] WAIT_LOAD_SCHEDULER: Wait for scheduler "1801" with entities [EventEntity, EventEntity], work=580*
191: 0x048E [0x1B] RETURN

SUBROUTINE_048F:
192: 0x048F [0x45] LOAD_SCHEDULED_TASK: Load scheduler "1802" with entities [EventEntity, EventEntity], work=[580*, 0*]
193: 0x04A0 [0x6C] FADE_ENTITY_COLOR(entity_id=Unnamed NPC (ID: 17830008/0x01101078), end_alpha=0*, fade_time=1*)
194: 0x04A9 [0x55] WAIT_LOAD_SCHEDULER: Wait for scheduler "1802" with entities [EventEntity, EventEntity], work=580*
195: 0x04B8 [0x6E] LocalPlayer uses emote 19*
196: 0x04BF [0x99] Wait for LocalPlayer animation to complete
197: 0x04C4 [0x1C] WAIT(180* ticks)
198: 0x04C7 [0x2C] CREATE_SCHEDULER_TASK: Create scheduler "open" with entities [Door: (ID: 17830067/0x011010B3), Door: (ID: 17830067/0x011010B3)]
199: 0x04D4 [0x1C] WAIT(30* ticks)
200: 0x04D7 [0x4A] LocalPlayer looks at Chero-Machero (ID: 17830038/0x01101096)
201: 0x04E0 [0x7B] LocalPlayer stops talking
202: 0x04E5 [0x1C] WAIT(60* ticks)
203: 0x04E8 [0x1B] RETURN

SUBROUTINE_04E9:
204: 0x04E9 [0x79] Hildebert (ID: 17830035/0x01101093) looks at Chero-Machero (ID: 17830038/0x01101096) (Basic look)
205: 0x04F3 [0x79] Chero-Machero (ID: 17830038/0x01101096) looks at Hildebert (ID: 17830035/0x01101093) (Basic look)
206: 0x04FD [0x45] LOAD_SCHEDULED_TASK: Load scheduler "1810" with entities [EventEntity, EventEntity], work=[580*, 0*]
207: 0x050E [0x03] Work_Zone[2] = 240*
208: 0x0513 [0x27] REQ_SET(priority=0x10, entity_id=Unnamed NPC (ID: 17830007/0x01101077), tag_num=0x09)
209: 0x051A [0x27] REQ_SET(priority=0x10, entity_id=Hildebert (ID: 17830035/0x01101093), tag_num=0x0E)
210: 0x0521 [0x27] REQ_SET(priority=0x10, entity_id=Chero-Machero (ID: 17830038/0x01101096), tag_num=0x0C)
211: 0x0528 [0x27] REQ_SET(priority=0x10, entity_id=Melvien (ID: 17830034/0x01101092), tag_num=0x0A)
212: 0x052F [0x27] REQ_SET(priority=0x10, entity_id=Gratzigg (ID: 17830041/0x01101099), tag_num=0x0D)
213: 0x0536 [0x27] REQ_SET(priority=0x10, entity_id=Svenja (ID: 17830036/0x01101094), tag_num=0x0C)
214: 0x053D [0x27] REQ_SET(priority=0x10, entity_id=Lhe Lhangavo (ID: 17830040/0x01101098), tag_num=0x0D)
215: 0x0544 [0x27] REQ_SET(priority=0x10, entity_id=Ikhi Askamot (ID: 17830037/0x01101095), tag_num=0x0C)
216: 0x054B [0x27] REQ_SET(priority=0x10, entity_id=Margret (ID: 17830039/0x01101097), tag_num=0x33)
217: 0x0552 [0x27] REQ_SET(priority=0x10, entity_id=Amchuchu (ID: 17830044/0x0110109C), tag_num=0x0C)
218: 0x0559 [0x27] REQ_SET(priority=0x10, entity_id=Reginald (ID: 17830043/0x0110109B), tag_num=0x0C)
219: 0x0560 [0x27] REQ_SET(priority=0x10, entity_id=Vortimere (ID: 17830045/0x0110109D), tag_num=0x0A)
220: 0x0567 [0x27] REQ_SET(priority=0x10, entity_id=Unnamed NPC (ID: 17830047/0x0110109F), tag_num=0x0E)
221: 0x056E [0x1C] WAIT(60* ticks)
222: 0x0571 [0x27] REQ_SET(priority=0x10, entity_id=Flaviria (ID: 17830042/0x0110109A), tag_num=0x0C)
223: 0x0578 [0x2A] GET_REQ_LEVEL(level=16, entity_id=Unnamed NPC (ID: 17830007/0x01101077))
224: 0x057E [0x52] END_LOAD_SCHEDULER: End scheduler "1810" with entities [EventEntity, EventEntity], work=580*
225: 0x058D [0x45] LOAD_SCHEDULED_TASK: Load scheduler "1811" with entities [EventEntity, EventEntity], work=[580*, 0*]
226: 0x059E [0x03] Work_Zone[2] = 120*
227: 0x05A3 [0x27] REQ_SET(priority=0x10, entity_id=Unnamed NPC (ID: 17830007/0x01101077), tag_num=0x09)
228: 0x05AA [0x2A] GET_REQ_LEVEL(level=16, entity_id=Unnamed NPC (ID: 17830007/0x01101077))
229: 0x05B0 [0x52] END_LOAD_SCHEDULER: End scheduler "1811" with entities [EventEntity, EventEntity], work=580*
230: 0x05BF [0x1B] RETURN

SUBROUTINE_05E8:
231: 0x05E8 [0x45] LOAD_SCHEDULED_TASK: Load scheduler "1812" with entities [EventEntity, EventEntity], work=[580*, 0*]
232: 0x05F9 [0x1C] WAIT(10* ticks)
233: 0x05FC [0x2B] Chero-Machero (ID: 17830038/0x01101096) [8351*]:
     "We've collectaru'd three in just the past month!"
234: 0x0603 [0x23] WAIT_FOR_DIALOG_INTERACTION
235: 0x0604 [0x2A] GET_REQ_LEVEL(level=16, entity_id=Chero-Machero (ID: 17830038/0x01101096))
236: 0x060A [0x4A] LocalPlayer looks at Chero-Machero (ID: 17830038/0x01101096)
237: 0x0613 [0x66] LOAD_EXT_SCHEDULER_MAIN: Load scheduler "thk1" with entities [Chero-Machero (ID: 17830038/0x01101096), Chero-Machero (ID: 17830038/0x01101096)], work=40*
238: 0x0622 [0x03] Work_Zone[2] = 3920*
239: 0x0627 [0x2B] Chero-Machero (ID: 17830038/0x01101096) [8352*]:
     "Considering how we hadn't found any $0 for years, that's an annual increase of infinity-winity percent!"
240: 0x062E [0x23] WAIT_FOR_DIALOG_INTERACTION
241: 0x062F [0x66] LOAD_EXT_SCHEDULER_MAIN: Load scheduler "thk2" with entities [Chero-Machero (ID: 17830038/0x01101096), Chero-Machero (ID: 17830038/0x01101096)], work=40*
242: 0x063E [0x1C] WAIT(30* ticks)
243: 0x0641 [0x4A] Chero-Machero (ID: 17830038/0x01101096) looks at Hildebert (ID: 17830035/0x01101093)
244: 0x064A [0x52] END_LOAD_SCHEDULER: End scheduler "1812" with entities [EventEntity, EventEntity], work=580*
245: 0x0659 [0x1B] RETURN

SUBROUTINE_065A:
246: 0x065A [0x45] LOAD_SCHEDULED_TASK: Load scheduler "1813" with entities [EventEntity, EventEntity], work=[580*, 0*]
247: 0x066B [0x2C] CREATE_SCHEDULER_TASK: Create scheduler "clos" with entities [Door: (ID: 17830067/0x011010B3), Door: (ID: 17830067/0x011010B3)]
248: 0x0678 [0x66] LOAD_EXT_SCHEDULER_MAIN: Load scheduler "ehn0" with entities [Chero-Machero (ID: 17830038/0x01101096), Chero-Machero (ID: 17830038/0x01101096)], work=41*
249: 0x0687 [0x2B] Chero-Machero (ID: 17830038/0x01101096) [8353*]:
     "I'd say the money spent recruitaruing all those pioneers has more than paid for itself."
250: 0x068E [0x23] WAIT_FOR_DIALOG_INTERACTION
251: 0x068F [0x52] END_LOAD_SCHEDULER: End scheduler "1813" with entities [EventEntity, EventEntity], work=580*
252: 0x069E [0x1B] RETURN

SUBROUTINE_069F:
253: 0x069F [0x45] LOAD_SCHEDULED_TASK: Load scheduler "1814" with entities [EventEntity, EventEntity], work=[580*, 0*]
254: 0x06B0 [0x79] Melvien (ID: 17830034/0x01101092) looks at Hildebert (ID: 17830035/0x01101093) (Basic look)
255: 0x06BA [0x79] Svenja (ID: 17830036/0x01101094) looks at Hildebert (ID: 17830035/0x01101093) (Basic look)
256: 0x06C4 [0x79] Gratzigg (ID: 17830041/0x01101099) looks at Hildebert (ID: 17830035/0x01101093) (Basic look)
257: 0x06CE [0x66] LOAD_EXT_SCHEDULER_MAIN: Load scheduler "tlk0" with entities [Hildebert (ID: 17830035/0x01101093), Hildebert (ID: 17830035/0x01101093)], work=29*
258: 0x06DD [0x2B] Hildebert (ID: 17830035/0x01101093) [8354*]:
     "As ever, your naivet<Player>i knows no bounds, Chero-Machero."
259: 0x06E4 [0x23] WAIT_FOR_DIALOG_INTERACTION
260: 0x06E5 [0x2B] Hildebert (ID: 17830035/0x01101093) [8355*]:
     "Death awaits all who step beyond Jorius Yett, and I daresay you'd not soon like to lie on a bier, even one made of bayld."
261: 0x06EC [0x23] WAIT_FOR_DIALOG_INTERACTION
262: 0x06ED [0x66] LOAD_EXT_SCHEDULER_MAIN: Load scheduler "tlk1" with entities [Hildebert (ID: 17830035/0x01101093), Hildebert (ID: 17830035/0x01101093)], work=29*
263: 0x06FC [0x52] END_LOAD_SCHEDULER: End scheduler "1814" with entities [EventEntity, EventEntity], work=580*
264: 0x070B [0x45] LOAD_SCHEDULED_TASK: Load scheduler "kyo1" with entities [EventEntity, EventEntity], work=[580*, 0*]
265: 0x071C [0x1C] WAIT(15* ticks)
266: 0x071F [0x7A] VM_CONTROL: Reset VM for Lhe Lhangavo (ID: 17830040/0x01101098)
267: 0x0725 [0x7A] VM_CONTROL: Reset VM for Flaviria (ID: 17830042/0x0110109A)
268: 0x072B [0x27] REQ_SET(priority=0x05, entity_id=Lhe Lhangavo (ID: 17830040/0x01101098), tag_num=0x0B)
269: 0x0732 [0xBA] SET_ENTITY_POSITION(entity_id=Lhe Lhangavo (ID: 17830040/0x01101098), pos_x=7.216*, pos_z=-10.286*, pos_y=-1.500*, direction=180.0*)
270: 0x073F [0xBA] SET_ENTITY_POSITION(entity_id=Flaviria (ID: 17830042/0x0110109A), pos_x=6.298*, pos_z=-9.872*, pos_y=-1.500*, direction=94.3*)
