# 17830027

## Common Data

| Field            | Value                     |
|------------------|---------------------------|
| Zone             | Eastern Adoulin (ID: 257) |
| Block Size       | 24868 bytes               |
| Total Events     | 4                         |
| References Count | 586                       |

## List of Events

| Event ID              | Entrypoint   |   Size |   Instructions |
|-----------------------|--------------|--------|----------------|
| [65535](#event-65535) | 0x0000       |      1 |              1 |
| [1535](#event-1535)   | 0x0001       |   6774 |            820 |
| [1551](#event-1551)   | 0x1A77       |   9040 |           1010 |
| [1552](#event-1552)   | 0x3DC7       |   6676 |            776 |

## DAT References (imed_data)

|   Index | Hex Value   |   Dec Value |
|---------|-------------|-------------|
|       0 | 0x0000      |           0 |
|       1 | 0x012C      |         300 |
|       2 | 0x0093      |         147 |
|       3 | 0x0248      |         584 |
|       4 | 0x00FF      |         255 |
|       5 | 0x0001      |           1 |
|       6 | 0xFFFF857A  |  4294935930 |
|       7 | 0xFFFFDEFA  |  4294958842 |
|       8 | 0xFFFFFE0C  |  4294966796 |
|       9 | 0x0D64      |        3428 |
|      10 | 0xFFFF66C5  |  4294928069 |
|      11 | 0xFFFFC5A0  |  4294952352 |
|      12 | 0xFFFFFF06  |  4294967046 |
|      13 | 0x0C42      |        3138 |
|      14 | 0xFFFF6BB4  |  4294929332 |
|      15 | 0xFFFFC920  |  4294953248 |
|      16 | 0xFFFF66F5  |  4294928117 |
|      17 | 0xFFFFCBD4  |  4294953940 |
|      18 | 0xFFFF90A6  |  4294938790 |
|      19 | 0xFFFFEE7D  |  4294962813 |
|      20 | 0xFFFF8B01  |  4294937345 |
|      21 | 0xFFFFE598  |  4294960536 |
|      22 | 0xFFFF94DD  |  4294939869 |
|      23 | 0xFFFFE693  |  4294960787 |
|      24 | 0xFFFF836A  |  4294935402 |
|      25 | 0xFFFFECEE  |  4294962414 |
|      26 | 0xFFFF9BDB  |  4294941659 |
|      27 | 0xFFFFE8BF  |  4294961343 |
|      28 | 0xFFFF8A8B  |  4294937227 |
|      29 | 0xFFFFF336  |  4294964022 |
|      30 | 0xFFFF99CE  |  4294941134 |
|      31 | 0xFFFFEE84  |  4294962820 |
|      32 | 0x06B0      |        1712 |
|      33 | 0xFFFF7936  |  4294932790 |
|      34 | 0xFFFFC058  |  4294951000 |
|      35 | 0xFFFFFBE6  |  4294966246 |
|      36 | 0xFFFFAEC0  |  4294946496 |
|      37 | 0xFFFFE9BC  |  4294961596 |
|      38 | 0x0EAB      |        3755 |
|      39 | 0xFFFFA8E4  |  4294944996 |
|      40 | 0x0155      |         341 |
|      41 | 0x0CB1      |        3249 |
|      42 | 0x001E      |          30 |
|      43 | 0x007B      |         123 |
|      44 | 0x02E4      |         740 |
|      45 | 0x000F      |          15 |
|      46 | 0x0A68      |        2664 |
|      47 | 0x246E      |        9326 |
|      48 | 0x0031      |          49 |
|      49 | 0x246F      |        9327 |
|      50 | 0x2470      |        9328 |
|      51 | 0x002D      |          45 |
|      52 | 0x0028      |          40 |
|      53 | 0x2471      |        9329 |
|      54 | 0x005A      |          90 |
|      55 | 0x0006      |           6 |
|      56 | 0x2472      |        9330 |
|      57 | 0x2473      |        9331 |
|      58 | 0x2474      |        9332 |
|      59 | 0x0078      |         120 |
|      60 | 0x00B4      |         180 |
|      61 | 0x2475      |        9333 |
|      62 | 0x001D      |          29 |
|      63 | 0x2476      |        9334 |
|      64 | 0x0C91      |        3217 |
|      65 | 0x2477      |        9335 |
|      66 | 0x0049      |          73 |
|      67 | 0x2478      |        9336 |
|      68 | 0x0CBD      |        3261 |
|      69 | 0x2479      |        9337 |
|      70 | 0x0C9F      |        3231 |
|      71 | 0x247A      |        9338 |
|      72 | 0x247B      |        9339 |
|      73 | 0x247C      |        9340 |
|      74 | 0x247D      |        9341 |
|      75 | 0x247E      |        9342 |
|      76 | 0x0C90      |        3216 |
|      77 | 0xFFFFFF7D  |  4294967165 |
|      78 | 0x003C      |          60 |
|      79 | 0x03E8      |        1000 |
|      80 | 0xF352      |       62290 |
|      81 | 0x04B0      |        1200 |
|      82 | 0xFFFF4E9E  |  4294921886 |
|      83 | 0x00F0      |         240 |
|      84 | 0x247F      |        9343 |
|      85 | 0x2480      |        9344 |
|      86 | 0xFFFFFF7C  |  4294967164 |
|      87 | 0xFFFFEE9E  |  4294962846 |
|      88 | 0xFFFF3954  |  4294916436 |
|      89 | 0x049C      |        1180 |
|      90 | 0xFFFFF5BA  |  4294964666 |
|      91 | 0x0424      |        1060 |
|      92 | 0x2481      |        9345 |
|      93 | 0x2482      |        9346 |
|      94 | 0x2483      |        9347 |
|      95 | 0x2484      |        9348 |
|      96 | 0x0CCC      |        3276 |
|      97 | 0x2485      |        9349 |
|      98 | 0x2486      |        9350 |
|      99 | 0x2487      |        9351 |
|     100 | 0x2488      |        9352 |
|     101 | 0x2489      |        9353 |
|     102 | 0x248A      |        9354 |
|     103 | 0x0D0A      |        3338 |
|     104 | 0x248B      |        9355 |
|     105 | 0x248C      |        9356 |
|     106 | 0x248D      |        9357 |
|     107 | 0x248E      |        9358 |
|     108 | 0x0019      |          25 |
|     109 | 0x248F      |        9359 |
|     110 | 0x0013      |          19 |
|     111 | 0x2490      |        9360 |
|     112 | 0x2491      |        9361 |
|     113 | 0xFFFFFF92  |  4294967186 |
|     114 | 0xFFFFF74A  |  4294965066 |
|     115 | 0xCA94      |       51860 |
|     116 | 0x046A      |        1130 |
|     117 | 0xFFFFA100  |  4294942976 |
|     118 | 0x2492      |        9362 |
|     119 | 0x2493      |        9363 |
|     120 | 0x2494      |        9364 |
|     121 | 0x2495      |        9365 |
|     122 | 0x2496      |        9366 |
|     123 | 0x2497      |        9367 |
|     124 | 0x000A      |          10 |
|     125 | 0x2498      |        9368 |
|     126 | 0x2499      |        9369 |
|     127 | 0x249A      |        9370 |
|     128 | 0x249B      |        9371 |
|     129 | 0x002A      |          42 |
|     130 | 0x249C      |        9372 |
|     131 | 0x249D      |        9373 |
|     132 | 0x249E      |        9374 |
|     133 | 0x249F      |        9375 |
|     134 | 0x0CA3      |        3235 |
|     135 | 0x24A0      |        9376 |
|     136 | 0x0005      |           5 |
|     137 | 0x24A1      |        9377 |
|     138 | 0x24A2      |        9378 |
|     139 | 0x0014      |          20 |
|     140 | 0xFFFF7C7D  |  4294933629 |
|     141 | 0xFFFFD738  |  4294956856 |
|     142 | 0x0D21      |        3361 |
|     143 | 0xFFFF8882  |  4294936706 |
|     144 | 0xFFFFE9D0  |  4294961616 |
|     145 | 0x06C4      |        1732 |
|     146 | 0xFFFF7E45  |  4294934085 |
|     147 | 0xFFFFE3B4  |  4294960052 |
|     148 | 0xFFFF81DC  |  4294935004 |
|     149 | 0xFFFFDDF1  |  4294958577 |
|     150 | 0x24A3      |        9379 |
|     151 | 0x24A4      |        9380 |
|     152 | 0x24A5      |        9381 |
|     153 | 0x0029      |          41 |
|     154 | 0x24A6      |        9382 |
|     155 | 0x24A7      |        9383 |
|     156 | 0x24A8      |        9384 |
|     157 | 0x24A9      |        9385 |
|     158 | 0x24AA      |        9386 |
|     159 | 0x24AB      |        9387 |
|     160 | 0x24AC      |        9388 |
|     161 | 0xFFFF7A58  |  4294933080 |
|     162 | 0xFFFFD43F  |  4294956095 |
|     163 | 0x04EE      |        1262 |
|     164 | 0xFFFF8432  |  4294935602 |
|     165 | 0xFFFFDD30  |  4294958384 |
|     166 | 0x0212      |         530 |
|     167 | 0x0023      |          35 |
|     168 | 0x24AD      |        9389 |
|     169 | 0x24AE      |        9390 |
|     170 | 0xFFFF83CC  |  4294935500 |
|     171 | 0xFFFFD619  |  4294956569 |
|     172 | 0x0CFC      |        3324 |
|     173 | 0x24AF      |        9391 |
|     174 | 0x24B0      |        9392 |
|     175 | 0x24B1      |        9393 |
|     176 | 0x24B2      |        9394 |
|     177 | 0x24B3      |        9395 |
|     178 | 0x0015      |          21 |
|     179 | 0x007F      |         127 |
|     180 | 0xFFFF8E81  |  4294938241 |
|     181 | 0xFFFFE53A  |  4294960442 |
|     182 | 0x05C4      |        1476 |
|     183 | 0xFFFF7A54  |  4294933076 |
|     184 | 0xFFFFD96E  |  4294957422 |
|     185 | 0x008A      |         138 |
|     186 | 0xFFFF7D8D  |  4294933901 |
|     187 | 0xFFFFDF92  |  4294958994 |
|     188 | 0x02A1      |         673 |
|     189 | 0xFFFF879F  |  4294936479 |
|     190 | 0xFFFFE34E  |  4294959950 |
|     191 | 0x0DFD      |        3581 |
|     192 | 0xFFFF80A9  |  4294934697 |
|     193 | 0xFFFFD30A  |  4294955786 |
|     194 | 0xFFFFFE0D  |  4294966797 |
|     195 | 0x0CE9      |        3305 |
|     196 | 0x24B4      |        9396 |
|     197 | 0x24B5      |        9397 |
|     198 | 0x0CD3      |        3283 |
|     199 | 0x24B6      |        9398 |
|     200 | 0x24B7      |        9399 |
|     201 | 0x0CD1      |        3281 |
|     202 | 0x24B8      |        9400 |
|     203 | 0x0E06      |        3590 |
|     204 | 0x24B9      |        9401 |
|     205 | 0x24BA      |        9402 |
|     206 | 0x00D2      |         210 |
|     207 | 0x24BB      |        9403 |
|     208 | 0x0064      |         100 |
|     209 | 0x24BC      |        9404 |
|     210 | 0x24BD      |        9405 |
|     211 | 0x24BE      |        9406 |
|     212 | 0x24BF      |        9407 |
|     213 | 0x24C0      |        9408 |
|     214 | 0x0046      |          70 |
|     215 | 0x0096      |         150 |
|     216 | 0x0D68      |        3432 |
|     217 | 0x00C8      |         200 |
|     218 | 0x0048      |          72 |
|     219 | 0x0E07      |        3591 |
|     220 | 0x0018      |          24 |
|     221 | 0x0D66      |        3430 |
|     222 | 0x02BD      |         701 |
|     223 | 0x003F      |          63 |
|     224 | 0xFFFF849B  |  4294935707 |
|     225 | 0xFFFFC9D5  |  4294953429 |
|     226 | 0x0505      |        1285 |
|     227 | 0xFFFF966F  |  4294940271 |
|     228 | 0xFFFFD942  |  4294957378 |
|     229 | 0xFFFFFA70  |  4294965872 |
|     230 | 0x0A39      |        2617 |
|     231 | 0xFFFF82FB  |  4294935291 |
|     232 | 0xFFFFD82F  |  4294957103 |
|     233 | 0xFFFFFDE4  |  4294966756 |
|     234 | 0x0DC7      |        3527 |
|     235 | 0xFFFF97CA  |  4294940618 |
|     236 | 0xFFFFD7A5  |  4294956965 |
|     237 | 0x0E0A      |        3594 |
|     238 | 0x0081      |         129 |
|     239 | 0x2061      |        8289 |
|     240 | 0x0118      |         280 |
|     241 | 0x24C1      |        9409 |
|     242 | 0x0168      |         360 |
|     243 | 0x24C2      |        9410 |
|     244 | 0x0E08      |        3592 |
|     245 | 0x00FB      |         251 |
|     246 | 0x24C3      |        9411 |
|     247 | 0x24C4      |        9412 |
|     248 | 0x0040      |          64 |
|     249 | 0x0090      |         144 |
|     250 | 0x00AA      |         170 |
|     251 | 0x24C5      |        9413 |
|     252 | 0x008C      |         140 |
|     253 | 0x24C6      |        9414 |
|     254 | 0x24C7      |        9415 |
|     255 | 0xFFFF82D6  |  4294935254 |
|     256 | 0xFFFFDAA2  |  4294957730 |
|     257 | 0x0E09      |        3593 |
|     258 | 0x00BE      |         190 |
|     259 | 0x24C8      |        9416 |
|     260 | 0x24C9      |        9417 |
|     261 | 0x24CA      |        9418 |
|     262 | 0x24CB      |        9419 |
|     263 | 0x24CC      |        9420 |
|     264 | 0x0136      |         310 |
|     265 | 0x24CD      |        9421 |
|     266 | 0x004A      |          74 |
|     267 | 0x24CE      |        9422 |
|     268 | 0x24CF      |        9423 |
|     269 | 0x24D0      |        9424 |
|     270 | 0x0CE4      |        3300 |
|     271 | 0x24D1      |        9425 |
|     272 | 0x00A0      |         160 |
|     273 | 0xFFFF7B30  |  4294933296 |
|     274 | 0xFFFFC950  |  4294953296 |
|     275 | 0x0400      |        1024 |
|     276 | 0x0E0F      |        3599 |
|     277 | 0x0D17      |        3351 |
|     278 | 0x0140      |         320 |
|     279 | 0x0D69      |        3433 |
|     280 | 0x24D2      |        9426 |
|     281 | 0x0074      |         116 |
|     282 | 0x00DC      |         220 |
|     283 | 0x24D3      |        9427 |
|     284 | 0x0038      |          56 |
|     285 | 0x0BC5      |        3013 |
|     286 | 0x24D4      |        9428 |
|     287 | 0x007A      |         122 |
|     288 | 0x0D18      |        3352 |
|     289 | 0x24D5      |        9429 |
|     290 | 0x0030      |          48 |
|     291 | 0x24D6      |        9430 |
|     292 | 0x00FD      |         253 |
|     293 | 0x0082      |         130 |
|     294 | 0xFFFF8EAE  |  4294938286 |
|     295 | 0xFFFFDC1E  |  4294958110 |
|     296 | 0x005B      |          91 |
|     297 | 0xFFFF86CE  |  4294936270 |
|     298 | 0xFFFFE1F8  |  4294959608 |
|     299 | 0x0501      |        1281 |
|     300 | 0x0CBF      |        3263 |
|     301 | 0x0CD9      |        3289 |
|     302 | 0x24D7      |        9431 |
|     303 | 0x0CBE      |        3262 |
|     304 | 0x0417      |        1047 |
|     305 | 0xFFFF7EF4  |  4294934260 |
|     306 | 0xFFFFE4EC  |  4294960364 |
|     307 | 0x0304      |         772 |
|     308 | 0x24D8      |        9432 |
|     309 | 0x0D0B      |        3339 |
|     310 | 0x0CA2      |        3234 |
|     311 | 0xFFFFA991  |  4294945169 |
|     312 | 0xFFFFEA55  |  4294961749 |
|     313 | 0x0100      |         256 |
|     314 | 0x0D22      |        3362 |
|     315 | 0x0CD0      |        3280 |
|     316 | 0x0DC3      |        3523 |
|     317 | 0x24D9      |        9433 |
|     318 | 0x24DA      |        9434 |
|     319 | 0x2428      |        9256 |
|     320 | 0x24DB      |        9435 |
|     321 | 0x24DC      |        9436 |
|     322 | 0x0CDA      |        3290 |
|     323 | 0x00FA      |         250 |
|     324 | 0x24DD      |        9437 |
|     325 | 0x24DE      |        9438 |
|     326 | 0x00E6      |         230 |
|     327 | 0x24DF      |        9439 |
|     328 | 0x0E05      |        3589 |
|     329 | 0x014A      |         330 |
|     330 | 0x24E0      |        9440 |
|     331 | 0xFFFF7857  |  4294932567 |
|     332 | 0xFFFFDDC2  |  4294958530 |
|     333 | 0x24E1      |        9441 |
|     334 | 0x24E2      |        9442 |
|     335 | 0x24E3      |        9443 |
|     336 | 0x24E4      |        9444 |
|     337 | 0xFFFF7E4B  |  4294934091 |
|     338 | 0xFFFFDD9B  |  4294958491 |
|     339 | 0x01C2      |         450 |
|     340 | 0x02E6      |         742 |
|     341 | 0x051A      |        1306 |
|     342 | 0xFFFF7981  |  4294932865 |
|     343 | 0xFFFFDB3D  |  4294957885 |
|     344 | 0x0FC4      |        4036 |
|     345 | 0xFFFF883E  |  4294936638 |
|     346 | 0xFFFFF318  |  4294963992 |
|     347 | 0x03DF      |         991 |
|     348 | 0x0E10      |        3600 |
|     349 | 0x013C      |         316 |
|     350 | 0x0E11      |        3601 |
|     351 | 0x0E02      |        3586 |
|     352 | 0x00FC      |         252 |
|     353 | 0x0122      |         290 |
|     354 | 0x24E5      |        9445 |
|     355 | 0x001C      |          28 |
|     356 | 0xFFFF7A71  |  4294933105 |
|     357 | 0xFFFFDD44  |  4294958404 |
|     358 | 0x0288      |         648 |
|     359 | 0xFFFFFDB2  |  4294966706 |
|     360 | 0xFFFFFDDA  |  4294966746 |
|     361 | 0x0190      |         400 |
|     362 | 0x0DD8      |        3544 |
|     363 | 0x24E6      |        9446 |
|     364 | 0xFFFF97EE  |  4294940654 |
|     365 | 0xFFFFEB24  |  4294961956 |
|     366 | 0x03D0      |         976 |
|     367 | 0xFFFF84A6  |  4294935718 |
|     368 | 0xFFFFEA2C  |  4294961708 |
|     369 | 0xFFFF8673  |  4294936179 |
|     370 | 0xFFFFF199  |  4294963609 |
|     371 | 0x023B      |         571 |
|     372 | 0x02AB      |         683 |
|     373 | 0x019C      |         412 |
|     374 | 0xFFFF9C64  |  4294941796 |
|     375 | 0xFFFFD8F0  |  4294957296 |
|     376 | 0xFFFFFC0C  |  4294966284 |
|     377 | 0x09C7      |        2503 |
|     378 | 0xFFFF94E3  |  4294939875 |
|     379 | 0xFFFFEC9F  |  4294962335 |
|     380 | 0x03B3      |         947 |
|     381 | 0xFFFF8B05  |  4294937349 |
|     382 | 0xFFFFD87E  |  4294957182 |
|     383 | 0x0F60      |        3936 |
|     384 | 0xFFFF8B4B  |  4294937419 |
|     385 | 0xFFFFDF1C  |  4294958876 |
|     386 | 0x0E03      |        3587 |
|     387 | 0x0032      |          50 |
|     388 | 0xFFFF78C6  |  4294932678 |
|     389 | 0xFFFFD695  |  4294956693 |
|     390 | 0x0F5A      |        3930 |
|     391 | 0xFFFF8205  |  4294935045 |
|     392 | 0xFFFFDA68  |  4294957672 |
|     393 | 0x025C      |         604 |
|     394 | 0xFFFF890D  |  4294936845 |
|     395 | 0xFFFFF173  |  4294963571 |
|     396 | 0x0DD9      |        3545 |
|     397 | 0x0E12      |        3602 |
|     398 | 0x0012      |          18 |
|     399 | 0xFFFF9272  |  4294939250 |
|     400 | 0xFFFFE82A  |  4294961194 |
|     401 | 0x0336      |         822 |
|     402 | 0x0E04      |        3588 |
|     403 | 0x24E7      |        9447 |
|     404 | 0x00B0      |         176 |
|     405 | 0x24E8      |        9448 |
|     406 | 0x00A2      |         162 |
|     407 | 0x002F      |          47 |
|     408 | 0x24E9      |        9449 |
|     409 | 0x0076      |         118 |
|     410 | 0x00F8      |         248 |
|     411 | 0x24EA      |        9450 |
|     412 | 0x007E      |         126 |
|     413 | 0x00F7      |         247 |
|     414 | 0xFFFFABC2  |  4294945730 |
|     415 | 0xFFFFEAA4  |  4294961828 |
|     416 | 0xFFFF89D8  |  4294937048 |
|     417 | 0xFFFFD580  |  4294956416 |
|     418 | 0x0F5B      |        3931 |
|     419 | 0xFFFFA825  |  4294944805 |
|     420 | 0xFFFFEBB2  |  4294962098 |
|     421 | 0x0587      |        1415 |
|     422 | 0x0D19      |        3353 |
|     423 | 0x24EB      |        9451 |
|     424 | 0x24EC      |        9452 |
|     425 | 0xFFFF972D  |  4294940461 |
|     426 | 0x24ED      |        9453 |
|     427 | 0x24EE      |        9454 |
|     428 | 0x0E0B      |        3595 |
|     429 | 0x24EF      |        9455 |
|     430 | 0x24F0      |        9456 |
|     431 | 0x24F1      |        9457 |
|     432 | 0x24F2      |        9458 |
|     433 | 0x24F3      |        9459 |
|     434 | 0x0E24      |        3620 |
|     435 | 0x24F4      |        9460 |
|     436 | 0x24F5      |        9461 |
|     437 | 0x24F6      |        9462 |
|     438 | 0x24F7      |        9463 |
|     439 | 0x24F8      |        9464 |
|     440 | 0x0E01      |        3585 |
|     441 | 0x24F9      |        9465 |
|     442 | 0x24FA      |        9466 |
|     443 | 0x24FB      |        9467 |
|     444 | 0x0DFB      |        3579 |
|     445 | 0x24FC      |        9468 |
|     446 | 0x24FD      |        9469 |
|     447 | 0x24FE      |        9470 |
|     448 | 0x0E19      |        3609 |
|     449 | 0x01A4      |         420 |
|     450 | 0x24FF      |        9471 |
|     451 | 0x2500      |        9472 |
|     452 | 0x2501      |        9473 |
|     453 | 0x2502      |        9474 |
|     454 | 0x2503      |        9475 |
|     455 | 0x0E1A      |        3610 |
|     456 | 0x2504      |        9476 |
|     457 | 0x2505      |        9477 |
|     458 | 0x0154      |         340 |
|     459 | 0x2506      |        9478 |
|     460 | 0x2507      |        9479 |
|     461 | 0x0DFC      |        3580 |
|     462 | 0x2508      |        9480 |
|     463 | 0x2509      |        9481 |
|     464 | 0x250A      |        9482 |
|     465 | 0x250B      |        9483 |
|     466 | 0x0E1B      |        3611 |
|     467 | 0x0009      |           9 |
|     468 | 0x250C      |        9484 |
|     469 | 0xFFFF7B7D  |  4294933373 |
|     470 | 0xFFFFD390  |  4294955920 |
|     471 | 0x0ED3      |        3795 |
|     472 | 0xFFFF86E5  |  4294936293 |
|     473 | 0xFFFFE46C  |  4294960236 |
|     474 | 0x0DE9      |        3561 |
|     475 | 0xFFFF87E9  |  4294936553 |
|     476 | 0xFFFFDED4  |  4294958804 |
|     477 | 0xFFFF8242  |  4294935106 |
|     478 | 0xFFFFEC13  |  4294962195 |
|     479 | 0xFFFF88AA  |  4294936746 |
|     480 | 0xFFFFED92  |  4294962578 |
|     481 | 0xFFFF8A97  |  4294937239 |
|     482 | 0xFFFFC885  |  4294953093 |
|     483 | 0xFFFF7BDE  |  4294933470 |
|     484 | 0xFFFFE2BA  |  4294959802 |
|     485 | 0x0E18      |        3608 |
|     486 | 0x250D      |        9485 |
|     487 | 0x0DDA      |        3546 |
|     488 | 0x01EA      |         490 |
|     489 | 0x250E      |        9486 |
|     490 | 0x00A8      |         168 |
|     491 | 0x250F      |        9487 |
|     492 | 0x00A1      |         161 |
|     493 | 0x2510      |        9488 |
|     494 | 0x0DDB      |        3547 |
|     495 | 0x0E13      |        3603 |
|     496 | 0x2511      |        9489 |
|     497 | 0x2512      |        9490 |
|     498 | 0x2513      |        9491 |
|     499 | 0x2514      |        9492 |
|     500 | 0x2515      |        9493 |
|     501 | 0x2516      |        9494 |
|     502 | 0x2517      |        9495 |
|     503 | 0x0016      |          22 |
|     504 | 0x2518      |        9496 |
|     505 | 0x2519      |        9497 |
|     506 | 0x251A      |        9498 |
|     507 | 0x006E      |         110 |
|     508 | 0x251B      |        9499 |
|     509 | 0x251C      |        9500 |
|     510 | 0x251D      |        9501 |
|     511 | 0x251E      |        9502 |
|     512 | 0x251F      |        9503 |
|     513 | 0x2520      |        9504 |
|     514 | 0x2521      |        9505 |
|     515 | 0x0020      |          32 |
|     516 | 0x0172      |         370 |
|     517 | 0x2522      |        9506 |
|     518 | 0x2523      |        9507 |
|     519 | 0x0084      |         132 |
|     520 | 0x2524      |        9508 |
|     521 | 0x0DDC      |        3548 |
|     522 | 0x2525      |        9509 |
|     523 | 0x2526      |        9510 |
|     524 | 0x2527      |        9511 |
|     525 | 0x2528      |        9512 |
|     526 | 0x2529      |        9513 |
|     527 | 0x252A      |        9514 |
|     528 | 0x252B      |        9515 |
|     529 | 0x0E23      |        3619 |
|     530 | 0x01B8      |         440 |
|     531 | 0x252C      |        9516 |
|     532 | 0x252D      |        9517 |
|     533 | 0x252E      |        9518 |
|     534 | 0x009F      |         159 |
|     535 | 0x252F      |        9519 |
|     536 | 0x2530      |        9520 |
|     537 | 0x2531      |        9521 |
|     538 | 0x2532      |        9522 |
|     539 | 0xFFFF8A12  |  4294937106 |
|     540 | 0xFFFFDC87  |  4294958215 |
|     541 | 0x09B0      |        2480 |
|     542 | 0x2533      |        9523 |
|     543 | 0x2534      |        9524 |
|     544 | 0x00F4      |         244 |
|     545 | 0x0050      |          80 |
|     546 | 0x2535      |        9525 |
|     547 | 0x2536      |        9526 |
|     548 | 0x0010      |          16 |
|     549 | 0x2537      |        9527 |
|     550 | 0x2538      |        9528 |
|     551 | 0x2539      |        9529 |
|     552 | 0x253A      |        9530 |
|     553 | 0x253B      |        9531 |
|     554 | 0x253C      |        9532 |
|     555 | 0x253D      |        9533 |
|     556 | 0x253E      |        9534 |
|     557 | 0x253F      |        9535 |
|     558 | 0x2540      |        9536 |
|     559 | 0x2541      |        9537 |
|     560 | 0x2542      |        9538 |
|     561 | 0x2543      |        9539 |
|     562 | 0xFFFF81CB  |  4294934987 |
|     563 | 0xFFFFDE1B  |  4294958619 |
|     564 | 0x0E2C      |        3628 |
|     565 | 0x2544      |        9540 |
|     566 | 0x2545      |        9541 |
|     567 | 0x2546      |        9542 |
|     568 | 0x2547      |        9543 |
|     569 | 0x2548      |        9544 |
|     570 | 0x2549      |        9545 |
|     571 | 0x254A      |        9546 |
|     572 | 0x0978      |        2424 |
|     573 | 0x0CE3      |        3299 |
|     574 | 0x254B      |        9547 |
|     575 | 0x254C      |        9548 |
|     576 | 0xFFFF81B8  |  4294934968 |
|     577 | 0xFFFFE1AE  |  4294959534 |
|     578 | 0x254D      |        9549 |
|     579 | 0x0D30      |        3376 |
|     580 | 0x254E      |        9550 |
|     581 | 0x0CCF      |        3279 |
|     582 | 0x254F      |        9551 |
|     583 | 0x00C9      |         201 |
|     584 | 0x0002      |           2 |
|     585 | 0x00D7      |         215 |

## String References

- **8289**: @@

## Events

### Event 65535

#### Metadata

| Field        | Value   |
|--------------|---------|
| Entrypoint   | 0x0000  |
| Data Size    | 1 bytes |
| Instructions | 1       |

```
      00 01 02 03 04 05 06 07  08 09 0A 0B 0C 0D 0E 0F
      -- -- -- -- -- -- -- --  -- -- -- -- -- -- -- --
0000: 00                                                .               
```

#### Opcodes

```
  0: 0x0000 [0x00] END_REQSTACK()
```

### Event 1535

#### Metadata

| Field        | Value      |
|--------------|------------|
| Entrypoint   | 0x0001     |
| Data Size    | 6774 bytes |
| Instructions | 814        |

```
      00 01 02 03 04 05 06 07  08 09 0A 0B 0C 0D 0E 0F
      -- -- -- -- -- -- -- --  -- -- -- -- -- -- -- --
0000:    42 1A AD 55 03 02 00  02 10 5D 00 80 01 80 46   B..U.....]....F
0010: 01 38 02 80 34 03 80 77  04 80 00 80 1C 05 80 2F  .8..4..w......./
0020: 00 90 10 10 01 2F 00 95  10 10 01 2F 00 99 10 10  ...../...../....
0030: 01 2F 00 96 10 10 01 2F  00 94 10 10 01 2F 00 93  ./...../...../..
0040: 10 10 01 2F 00 98 10 10  01 2F 00 97 10 10 01 2F  .../...../...../
0050: 00 9C 10 10 01 2F 00 9B  10 10 01 2F 00 B0 10 10  ...../...../....
0060: 01 2F 00 9F 10 10 01 2F  00 A0 10 10 01 2F 00 A1  ./...../...../..
0070: 10 10 01 2F 00 A2 10 10  01 2F 00 A5 10 10 01 4E  .../...../.....N
0080: 00 B0 10 10 01 4E 00 99  10 10 01 4E 00 96 10 10  .....N.....N....
0090: 01 4E 00 94 10 10 01 4E  00 93 10 10 01 4E 00 98  .N.....N.....N..
00A0: 10 10 01 4E 00 97 10 10  01 4E 00 90 10 10 01 4E  ...N.....N.....N
00B0: 00 95 10 10 01 4E 00 9F  10 10 01 4E 00 A0 10 10  .....N.....N....
00C0: 01 4E 00 A1 10 10 01 4E  00 A2 10 10 01 4E 00 A5  .N.....N.....N..
00D0: 10 10 01 92 01 90 10 10  01 92 01 95 10 10 01 92  ................
00E0: 01 99 10 10 01 92 01 96  10 10 01 92 01 94 10 10  ................
00F0: 01 92 01 93 10 10 01 92  01 98 10 10 01 92 01 97  ................
0100: 10 10 01 92 01 9C 10 10  01 92 01 9B 10 10 01 94  ................
0110: 01 B0 10 10 01 94 01 F0  FF FF 7F 94 01 90 10 10  ................
0120: 01 94 01 95 10 10 01 94  01 99 10 10 01 94 01 96  ................
0130: 10 10 01 94 01 94 10 10  01 94 01 93 10 10 01 94  ................
0140: 01 98 10 10 01 94 01 97  10 10 01 94 01 9C 10 10  ................
0150: 01 94 01 9B 10 10 01 94  01 A0 10 10 01 94 01 A1  ................
0160: 10 10 01 94 01 A2 10 10  01 94 01 A5 10 10 01 59  ...............Y
0170: 05 B0 10 10 01 01 59 05  A1 10 10 01 01 59 05 A2  ......Y......Y..
0180: 10 10 01 01 59 05 A5 10  10 01 01 BA B0 10 10 01  ....Y...........
0190: 06 80 07 80 08 80 09 80  BA F0 FF FF 7F 0A 80 0B  ................
01A0: 80 0C 80 0D 80 BA 90 10  10 01 0E 80 0F 80 08 80  ................
01B0: 0D 80 BA 95 10 10 01 10  80 11 80 0C 80 0D 80 BA  ................
01C0: 99 10 10 01 12 80 13 80  08 80 0D 80 BA 96 10 10  ................
01D0: 01 14 80 15 80 08 80 0D  80 BA 94 10 10 01 16 80  ................
01E0: 17 80 08 80 0D 80 BA 93  10 10 01 18 80 19 80 08  ................
01F0: 80 0D 80 BA 98 10 10 01  1A 80 1B 80 08 80 0D 80  ................
0200: BA 97 10 10 01 1C 80 1D  80 08 80 0D 80 BA 9C 10  ................
0210: 10 01 0E 80 0F 80 08 80  0D 80 BA 9B 10 10 01 0A  ................
0220: 80 0B 80 0C 80 0D 80 BA  9F 10 10 01 1E 80 1F 80  ................
0230: 08 80 20 80 BA A0 10 10  01 21 80 22 80 08 80 00  .. ......!."....
0240: 80 BA A1 10 10 01 1E 80  1F 80 23 80 20 80 BA A2  ..........#. ...
0250: 10 10 01 24 80 25 80 08  80 26 80 BA A5 10 10 01  ...$.%...&......
0260: 24 80 27 80 08 80 28 80  80 F0 FF FF 7F 80 90 10  $.'...(.........
0270: 10 01 80 B0 10 10 01 80  99 10 10 01 80 96 10 10  ................
0280: 01 80 94 10 10 01 80 93  10 10 01 80 98 10 10 01  ................
0290: 80 95 10 10 01 80 97 10  10 01 80 A0 10 10 01 80  ................
02A0: A1 10 10 01 80 A2 10 10  01 80 A5 10 10 01 5F 03  .............._.
02B0: 29 80 A2 10 10 01 A2 10  10 01 6D 65 74 30 5F 03  ).........met0_.
02C0: 29 80 A5 10 10 01 A5 10  10 01 6D 65 74 30 4A 99  ).........met0J.
02D0: 10 10 01 96 10 10 01 4A  96 10 10 01 99 10 10 01  .......J........
02E0: 4A 94 10 10 01 96 10 10  01 4A 93 10 10 01 96 10  J........J......
02F0: 10 01 4A 98 10 10 01 96  10 10 01 4A 97 10 10 01  ..J........J....
0300: 96 10 10 01 1C 2A 80 5C  00 2B 80 5C 01 2B 80 9A  .....*.\.+.\.+..
0310: 45 2C 80 F8 FF FF 7F F8  FF FF 7F 73 30 30 30 00  E,.........s000.
0320: 80 1C 2D 80 1A 8C 55 5B  2E 80 99 10 10 01 99 10  ..-...U[........
0330: 10 01 6B 6F 62 30 2B 99  10 10 01 2F 80 23 52 2C  ..kob0+..../.#R,
0340: 80 F8 FF FF 7F F8 FF FF  7F 73 30 30 30 45 2C 80  .........s000E,.
0350: F8 FF FF 7F F8 FF FF 7F  73 30 30 31 00 80 66 30  ........s001..f0
0360: 80 96 10 10 01 96 10 10  01 74 6C 6B 30 2B 96 10  .........tlk0+..
0370: 10 01 31 80 23 2B 96 10  10 01 32 80 23 66 30 80  ..1.#+....2.#f0.
0380: 96 10 10 01 96 10 10 01  74 6C 6B 31 1C 33 80 52  ........tlk1.3.R
0390: 2C 80 F8 FF FF 7F F8 FF  FF 7F 73 30 30 31 45 2C  ,.........s001E,
03A0: 80 F8 FF FF 7F F8 FF FF  7F 73 30 30 32 00 80 66  .........s002..f
03B0: 34 80 96 10 10 01 96 10  10 01 64 69 73 30 2B 96  4.........dis0+.
03C0: 10 10 01 35 80 1C 36 80  23 6E 96 10 10 01 37 80  ...5..6.#n....7.
03D0: 99 96 10 10 01 2B 96 10  10 01 38 80 1C 36 80 23  .....+....8..6.#
03E0: 52 2C 80 F8 FF FF 7F F8  FF FF 7F 73 30 30 32 45  R,.........s002E
03F0: 2C 80 F8 FF FF 7F F8 FF  FF 7F 73 61 30 32 00 80  ,.........sa02..
0400: 1C 2A 80 7C 00 94 10 10  01 2B 94 10 10 01 39 80  .*.|.....+....9.
0410: 23 7C 01 94 10 10 01 4A  96 10 10 01 94 10 10 01  #|.....J........
0420: 52 2C 80 F8 FF FF 7F F8  FF FF 7F 73 61 30 32 45  R,.........sa02E
0430: 2C 80 F8 FF FF 7F F8 FF  FF 7F 73 30 30 33 00 80  ,.........s003..
0440: 1C 2A 80 66 30 80 96 10  10 01 96 10 10 01 74 6C  .*.f0.........tl
0450: 6B 30 2B 96 10 10 01 3A  80 23 66 30 80 96 10 10  k0+....:.#f0....
0460: 01 96 10 10 01 74 6C 6B  31 2C B2 10 10 01 B2 10  .....tlk1,......
0470: 10 01 6F 70 65 6E 45 2C  80 F8 FF FF 7F F8 FF FF  ..openE,........
0480: 7F 6F 70 65 6E 00 80 52  2C 80 F8 FF FF 7F F8 FF  .open..R,.......
0490: FF 7F 73 30 30 33 45 2C  80 F8 FF FF 7F F8 FF FF  ..s003E,........
04A0: 7F 73 30 30 36 00 80 5D  00 80 3B 80 6B 69 64 6C  .s006..]..;.kidl
04B0: 30 94 10 10 01 27 05 90  10 10 01 36 1C 2D 80 27  0....'.....6.-.'
04C0: 05 95 10 10 01 14 1C 2D  80 27 05 F0 FF FF 7F 46  .......-.'.....F
04D0: 1C 3C 80 52 2C 80 F8 FF  FF 7F F8 FF FF 7F 73 30  .<.R,.........s0
04E0: 30 36 45 2C 80 F8 FF FF  7F F8 FF FF 7F 73 30 30  06E,.........s00
04F0: 37 00 80 2C B2 10 10 01  B2 10 10 01 63 6C 6F 73  7..,........clos
0500: 45 2C 80 F8 FF FF 7F F8  FF FF 7F 63 6C 6F 73 00  E,.........clos.
0510: 80 4A 93 10 10 01 90 10  10 01 4A 94 10 10 01 90  .J........J.....
0520: 10 10 01 4A 96 10 10 01  90 10 10 01 4A 97 10 10  ...J........J...
0530: 01 90 10 10 01 4A 98 10  10 01 90 10 10 01 4A 99  .....J........J.
0540: 10 10 01 90 10 10 01 4A  A1 10 10 01 90 10 10 01  .......J........
0550: 2B 90 10 10 01 3D 80 23  2A 05 90 10 10 01 52 2C  +....=.#*.....R,
0560: 80 F8 FF FF 7F F8 FF FF  7F 73 30 30 37 45 2C 80  .........s007E,.
0570: F8 FF FF 7F F8 FF FF 7F  73 30 30 38 00 80 66 3E  ........s008..f>
0580: 80 93 10 10 01 93 10 10  01 74 6C 6B 30 1C 2D 80  .........tlk0.-.
0590: 4A 90 10 10 01 93 10 10  01 2B 93 10 10 01 3F 80  J........+....?.
05A0: 23 66 3E 80 93 10 10 01  93 10 10 01 74 6C 6B 31  #f>.........tlk1
05B0: 1C 2A 80 52 2C 80 F8 FF  FF 7F F8 FF FF 7F 73 30  .*.R,.........s0
05C0: 30 38 45 2C 80 F8 FF FF  7F F8 FF FF 7F 73 30 30  08E,.........s00
05D0: 39 00 80 79 00 95 10 10  01 93 10 10 01 5B 40 80  9..y.........[@.
05E0: 90 10 10 01 90 10 10 01  74 6C 6B 30 2B 90 10 10  ........tlk0+...
05F0: 01 41 80 23 5B 40 80 90  10 10 01 90 10 10 01 74  .A.#[@.........t
0600: 6C 6B 31 5C 00 42 80 5C  01 42 80 9A 52 2C 80 F8  lk1\.B.\.B..R,..
0610: FF FF 7F F8 FF FF 7F 73  30 30 39 45 2C 80 F8 FF  .......s009E,...
0620: FF 7F F8 FF FF 7F 73 30  31 30 00 80 2B 93 10 10  ......s010..+...
0630: 01 43 80 23 4E 01 F0 FF  FF 7F 5B 44 80 94 10 10  .C.#N.....[D....
0640: 01 94 10 10 01 74 6C 6B  30 52 2C 80 F8 FF FF 7F  .....tlk0R,.....
0650: F8 FF FF 7F 73 30 31 30  45 2C 80 F8 FF FF 7F F8  ....s010E,......
0660: FF FF 7F 73 30 31 31 00  80 79 00 90 10 10 01 94  ...s011..y......
0670: 10 10 01 2B 94 10 10 01  45 80 23 5B 44 80 94 10  ...+....E.#[D...
0680: 10 01 94 10 10 01 74 6C  6B 31 5B 46 80 90 10 10  ......tlk1[F....
0690: 01 90 10 10 01 79 65 73  30 2B 90 10 10 01 47 80  .....yes0+....G.
06A0: 23 4E 01 F0 FF FF 7F 52  2C 80 F8 FF FF 7F F8 FF  #N.....R,.......
06B0: FF 7F 73 30 31 31 45 2C  80 F8 FF FF 7F F8 FF FF  ..s011E,........
06C0: 7F 73 30 31 32 00 80 66  34 80 96 10 10 01 96 10  .s012..f4.......
06D0: 10 01 64 69 73 30 2B 96  10 10 01 48 80 1C 3B 80  ..dis0+....H..;.
06E0: 23 66 30 80 96 10 10 01  96 10 10 01 74 6C 6B 30  #f0.........tlk0
06F0: 2B 96 10 10 01 49 80 23  52 2C 80 F8 FF FF 7F F8  +....I.#R,......
0700: FF FF 7F 73 30 31 32 45  2C 80 F8 FF FF 7F F8 FF  ...s012E,.......
0710: FF 7F 73 30 31 33 00 80  79 00 93 10 10 01 96 10  ..s013..y.......
0720: 10 01 79 00 90 10 10 01  96 10 10 01 79 00 95 10  ..y.........y...
0730: 10 01 96 10 10 01 4A F0  FF FF 7F 96 10 10 01 4A  ......J........J
0740: 94 10 10 01 96 10 10 01  2B 96 10 10 01 4A 80 1C  ........+....J..
0750: 2A 80 4E 00 F0 FF FF 7F  1C 36 80 23 2B 96 10 10  *.N......6.#+...
0760: 01 4B 80 23 1A AD 55 1C  2A 80 52 2C 80 F8 FF FF  .K.#..U.*.R,....
0770: 7F F8 FF FF 7F 73 30 31  33 6B 69 64 6C 30 96 10  .....s013kidl0..
0780: 10 01 4E 00 F0 FF FF 7F  80 F0 FF FF 7F 4A 96 10  ..N..........J..
0790: 10 01 94 10 10 01 4A 98  10 10 01 96 10 10 01 81  ......J.........
07A0: 00 90 10 10 01 5B 4C 80  90 10 10 01 90 10 10 01  .....[L.........
07B0: 66 6A 30 30 1C 2A 80 1A  54 57 89 4D 80 1C 4E 80  fj00.*..TW.M..N.
07C0: B4 14 4F 80 50 80 51 80  00 80 05 80 1C 4E 80 B4  ..O.P.Q......N..
07D0: 14 4F 80 52 80 51 80 01  80 05 80 03 02 10 53 80  .O.R.Q........S.
07E0: 27 10 72 10 10 01 01 1A  42 57 1C 4E 80 2B 96 10  '.r.....BW.N.+..
07F0: 10 01 54 80 23 2B 96 10  10 01 55 80 23 2A 10 72  ..T.#+....U.#*.r
0800: 10 10 01 1A 54 57 89 56  80 1C 4E 80 B4 14 57 80  ....TW.V..N...W.
0810: 58 80 59 80 00 80 05 80  1C 4E 80 B4 14 4F 80 5A  X.Y......N...O.Z
0820: 80 5B 80 01 80 05 80 03  02 10 53 80 27 10 72 10  .[........S.'.r.
0830: 10 01 01 1A 42 57 1C 4E  80 2B 96 10 10 01 5C 80  ....BW.N.+....\.
0840: 23 2B 96 10 10 01 5D 80  23 2A 10 72 10 10 01 1A  #+....].#*.r....
0850: 54 57 8A B4 15 66 30 80  96 10 10 01 96 10 10 01  TW...f0.........
0860: 74 6C 6B 30 1A 42 57 45  2C 80 F8 FF FF 7F F8 FF  tlk0.BWE,.......
0870: FF 7F 73 30 31 34 00 80  1C 2D 80 1A 8C 55 2B 96  ..s014...-...U+.
0880: 10 10 01 5E 80 23 66 30  80 96 10 10 01 96 10 10  ...^.#f0........
0890: 01 74 6C 6B 31 52 2C 80  F8 FF FF 7F F8 FF FF 7F  .tlk1R,.........
08A0: 73 30 31 34 45 2C 80 F8  FF FF 7F F8 FF FF 7F 73  s014E,.........s
08B0: 30 31 35 00 80 7C 00 90  10 10 01 5B 4C 80 90 10  015..|.....[L...
08C0: 10 01 90 10 10 01 66 6A  30 31 2B 94 10 10 01 5F  ......fj01+...._
08D0: 80 23 52 2C 80 F8 FF FF  7F F8 FF FF 7F 73 30 31  .#R,.........s01
08E0: 35 45 2C 80 F8 FF FF 7F  F8 FF FF 7F 73 30 31 39  5E,.........s019
08F0: 00 80 4A 98 10 10 01 90  10 10 01 4A F0 FF FF 7F  ..J........J....
0900: 98 10 10 01 4A 95 10 10  01 98 10 10 01 1C 2A 80  ....J.........*.
0910: 4A 90 10 10 01 98 10 10  01 79 00 94 10 10 01 90  J........y......
0920: 10 10 01 5B 60 80 98 10  10 01 98 10 10 01 74 6C  ...[`.........tl
0930: 6B 30 2B 98 10 10 01 61  80 23 2B 98 10 10 01 62  k0+....a.#+....b
0940: 80 23 5B 60 80 98 10 10  01 98 10 10 01 74 6C 6B  .#[`.........tlk
0950: 31 52 2C 80 F8 FF FF 7F  F8 FF FF 7F 73 30 31 39  1R,.........s019
0960: 45 2C 80 F8 FF FF 7F F8  FF FF 7F 73 30 33 31 00  E,.........s031.
0970: 80 5B 40 80 90 10 10 01  90 10 10 01 74 6C 6B 30  .[@.........tlk0
0980: 2B 90 10 10 01 63 80 23  2B 90 10 10 01 64 80 23  +....c.#+....d.#
0990: 5B 40 80 90 10 10 01 90  10 10 01 74 6C 6B 31 52  [@.........tlk1R
09A0: 2C 80 F8 FF FF 7F F8 FF  FF 7F 73 30 33 31 45 2C  ,.........s031E,
09B0: 80 F8 FF FF 7F F8 FF FF  7F 73 30 33 32 00 80 79  .........s032..y
09C0: 00 93 10 10 01 94 10 10  01 79 00 97 10 10 01 93  .........y......
09D0: 10 10 01 2B 98 10 10 01  65 80 23 52 2C 80 F8 FF  ...+....e.#R,...
09E0: FF 7F F8 FF FF 7F 73 30  33 32 45 2C 80 F8 FF FF  ......s032E,....
09F0: 7F F8 FF FF 7F 73 30 33  33 00 80 79 00 97 10 10  .....s033..y....
0A00: 01 95 10 10 01 79 00 99  10 10 01 95 10 10 01 1C  .....y..........
0A10: 2D 80 4A 93 10 10 01 95  10 10 01 4A 96 10 10 01  -.J........J....
0A20: 95 10 10 01 2B 90 10 10  01 66 80 23 5B 4C 80 90  ....+....f.#[L..
0A30: 10 10 01 90 10 10 01 66  6A 30 30 52 2C 80 F8 FF  .......fj00R,...
0A40: FF 7F F8 FF FF 7F 73 30  33 33 45 2C 80 F8 FF FF  ......s033E,....
0A50: 7F F8 FF FF 7F 73 30 33  35 00 80 5B 67 80 95 10  .....s035..[g...
0A60: 10 01 95 10 10 01 79 65  73 30 2B 95 10 10 01 68  ......yes0+....h
0A70: 80 23 2B 95 10 10 01 69  80 23 4A 94 10 10 01 96  .#+....i.#J.....
0A80: 10 10 01 79 00 99 10 10  01 93 10 10 01 52 2C 80  ...y.........R,.
0A90: F8 FF FF 7F F8 FF FF 7F  73 30 33 35 45 2C 80 F8  ........s035E,..
0AA0: FF FF 7F F8 FF FF 7F 73  30 33 36 00 80 66 3E 80  .......s036..f>.
0AB0: 93 10 10 01 93 10 10 01  74 6C 6B 30 2B 93 10 10  ........tlk0+...
0AC0: 01 6A 80 23 66 3E 80 93  10 10 01 93 10 10 01 74  .j.#f>.........t
0AD0: 6C 6B 31 79 00 94 10 10  01 93 10 10 01 79 00 98  lk1y.........y..
0AE0: 10 10 01 93 10 10 01 52  2C 80 F8 FF FF 7F F8 FF  .......R,.......
0AF0: FF 7F 73 30 33 36 45 2C  80 F8 FF FF 7F F8 FF FF  ..s036E,........
0B00: 7F 73 30 33 37 00 80 5B  44 80 94 10 10 01 94 10  .s037..[D.......
0B10: 10 01 74 6C 6B 30 2B 94  10 10 01 6B 80 23 5B 44  ..tlk0+....k.#[D
0B20: 80 94 10 10 01 94 10 10  01 74 6C 6B 31 79 00 93  .........tlk1y..
0B30: 10 10 01 94 10 10 01 6E  93 10 10 01 6C 80 99 93  .......n....l...
0B40: 10 10 01 2B 93 10 10 01  6D 80 1C 3B 80 23 66 6E  ...+....m..;.#fn
0B50: 80 97 10 10 01 97 10 10  01 74 68 6B 31 52 2C 80  .........thk1R,.
0B60: F8 FF FF 7F F8 FF FF 7F  73 30 33 37 45 2C 80 F8  ........s037E,..
0B70: FF FF 7F F8 FF FF 7F 73  30 34 30 00 80 66 3E 80  .......s040..f>.
0B80: 93 10 10 01 93 10 10 01  74 6C 6B 30 2B 93 10 10  ........tlk0+...
0B90: 01 6F 80 23 2B 93 10 10  01 70 80 23 1A AD 55 1C  .o.#+....p.#..U.
0BA0: 2A 80 52 2C 80 F8 FF FF  7F F8 FF FF 7F 73 30 34  *.R,.........s04
0BB0: 30 6B 69 64 6C 30 93 10  10 01 6B 69 64 6C 30 97  0kidl0....kidl0.
0BC0: 10 10 01 4A 93 10 10 01  90 10 10 01 4A 96 10 10  ...J........J...
0BD0: 01 93 10 10 01 79 00 94  10 10 01 96 10 10 01 4A  .....y.........J
0BE0: 90 10 10 01 93 10 10 01  4A F0 FF FF 7F 96 10 10  ........J.......
0BF0: 01 4A 95 10 10 01 96 10  10 01 79 00 98 10 10 01  .J........y.....
0C00: 96 10 10 01 79 00 97 10  10 01 96 10 10 01 1A 54  ....y..........T
0C10: 57 89 71 80 1C 4E 80 B4  14 72 80 73 80 74 80 00  W.q..N...r.s.t..
0C20: 80 05 80 1C 4E 80 B4 14  72 80 75 80 74 80 01 80  ....N...r.u.t...
0C30: 05 80 03 02 10 3C 80 27  10 72 10 10 01 01 1A 42  .....<.'.r.....B
0C40: 57 1C 4E 80 2B 93 10 10  01 76 80 23 2B 93 10 10  W.N.+....v.#+...
0C50: 01 77 80 23 2A 10 72 10  10 01 1A 54 57 8A B4 15  .w.#*.r....TW...
0C60: 1A 42 57 5B 4C 80 90 10  10 01 90 10 10 01 66 6A  .BW[L.........fj
0C70: 30 31 45 2C 80 F8 FF FF  7F F8 FF FF 7F 73 30 34  01E,.........s04
0C80: 31 00 80 1C 2D 80 1A 8C  55 6E 93 10 10 01 37 80  1...-...Un....7.
0C90: 99 93 10 10 01 2B 93 10  10 01 78 80 23 52 2C 80  .....+....x.#R,.
0CA0: F8 FF FF 7F F8 FF FF 7F  73 30 34 31 45 2C 80 F8  ........s041E,..
0CB0: FF FF 7F F8 FF FF 7F 73  30 34 32 00 80 66 34 80  .......s042..f4.
0CC0: 96 10 10 01 96 10 10 01  64 69 73 30 2B 96 10 10  ........dis0+...
0CD0: 01 79 80 1C 2D 80 79 00  93 10 10 01 96 10 10 01  .y..-.y.........
0CE0: 1C 33 80 23 66 34 80 96  10 10 01 96 10 10 01 69  .3.#f4.........i
0CF0: 72 6F 30 2B 96 10 10 01  7A 80 23 2B 96 10 10 01  ro0+....z.#+....
0D00: 7B 80 23 52 2C 80 F8 FF  FF 7F F8 FF FF 7F 73 30  {.#R,.........s0
0D10: 34 32 45 2C 80 F8 FF FF  7F F8 FF FF 7F 73 30 34  42E,.........s04
0D20: 33 00 80 6E 96 10 10 01  7C 80 99 96 10 10 01 2B  3..n....|......+
0D30: 96 10 10 01 7D 80 23 66  34 80 96 10 10 01 96 10  ....}.#f4.......
0D40: 10 01 73 79 75 30 2B 96  10 10 01 7E 80 23 53 96  ..syu0+....~.#S.
0D50: 10 10 01 96 10 10 01 73  79 75 30 66 34 80 96 10  .......syu0f4...
0D60: 10 01 96 10 10 01 77 61  69 30 2B 96 10 10 01 7F  ......wai0+.....
0D70: 80 1C 3B 80 23 52 2C 80  F8 FF FF 7F F8 FF FF 7F  ..;.#R,.........
0D80: 73 30 34 33 45 2C 80 F8  FF FF 7F F8 FF FF 7F 73  s043E,.........s
0D90: 30 34 34 00 80 6E 93 10  10 01 6C 80 99 93 10 10  044..n....l.....
0DA0: 01 79 00 97 10 10 01 93  10 10 01 2B 93 10 10 01  .y.........+....
0DB0: 80 80 1C 3B 80 23 66 81  80 96 10 10 01 96 10 10  ...;.#f.........
0DC0: 01 6D 73 75 30 2B 96 10  10 01 82 80 23 52 2C 80  .msu0+......#R,.
0DD0: F8 FF FF 7F F8 FF FF 7F  73 30 34 34 45 2C 80 F8  ........s044E,..
0DE0: FF FF 7F F8 FF FF 7F 73  30 34 35 00 80 6E 93 10  .......s045..n..
0DF0: 10 01 00 80 99 93 10 10  01 1C 2D 80 6B 69 64 6C  ..........-.kidl
0E00: 30 96 10 10 01 2B 93 10  10 01 83 80 1C 3B 80 23  0....+.......;.#
0E10: 52 2C 80 F8 FF FF 7F F8  FF FF 7F 73 30 34 35 45  R,.........s045E
0E20: 2C 80 F8 FF FF 7F F8 FF  FF 7F 73 30 34 36 00 80  ,.........s046..
0E30: 66 81 80 96 10 10 01 96  10 10 01 6D 73 75 30 2B  f..........msu0+
0E40: 96 10 10 01 84 80 23 2B  96 10 10 01 85 80 23 52  ......#+......#R
0E50: 2C 80 F8 FF FF 7F F8 FF  FF 7F 73 30 34 36 45 2C  ,.........s046E,
0E60: 80 F8 FF FF 7F F8 FF FF  7F 73 30 35 32 00 80 7B  .........s052..{
0E70: 90 10 10 01 5B 86 80 90  10 10 01 90 10 10 01 74  ....[..........t
0E80: 6C 63 30 2B 90 10 10 01  87 80 1C 2D 80 79 00 97  lc0+.......-.y..
0E90: 10 10 01 90 10 10 01 79  00 F0 FF FF 7F 90 10 10  .......y........
0EA0: 01 1C 88 80 79 00 93 10  10 01 90 10 10 01 79 00  ....y.........y.
0EB0: 95 10 10 01 90 10 10 01  23 52 2C 80 F8 FF FF 7F  ........#R,.....
0EC0: F8 FF FF 7F 73 30 35 32  45 2C 80 F8 FF FF 7F F8  ....s052E,......
0ED0: FF FF 7F 73 30 30 34 00  80 2B 90 10 10 01 89 80  ...s004..+......
0EE0: 23 5D 00 80 3B 80 2C B2  10 10 01 B2 10 10 01 6F  #]..;.,........o
0EF0: 70 65 6E 45 2C 80 F8 FF  FF 7F F8 FF FF 7F 6F 70  penE,.........op
0F00: 65 6E 00 80 4E 00 9B 10  10 01 4E 00 9C 10 10 01  en..N.....N.....
0F10: 80 9B 10 10 01 80 9C 10  10 01 1C 2A 80 27 05 9C  ...........*.'..
0F20: 10 10 01 10 1C 2D 80 27  05 9B 10 10 01 10 52 2C  .....-.'......R,
0F30: 80 F8 FF FF 7F F8 FF FF  7F 73 30 30 34 45 2C 80  .........s004E,.
0F40: F8 FF FF 7F F8 FF FF 7F  73 30 35 33 00 80 5B 86  ........s053..[.
0F50: 80 90 10 10 01 90 10 10  01 74 6C 63 31 2B 9C 10  .........tlc1+..
0F60: 10 01 8A 80 1C 8B 80 6B  69 64 6C 30 96 10 10 01  .......kidl0....
0F70: BA F0 FF FF 7F 8C 80 8D  80 08 80 8E 80 BA 97 10  ................
0F80: 10 01 8F 80 90 80 08 80  91 80 BA 95 10 10 01 92  ................
0F90: 80 93 80 08 80 8E 80 BA  90 10 10 01 94 80 95 80  ................
0FA0: 08 80 00 80 80 F0 FF FF  7F 80 97 10 10 01 80 95  ................
0FB0: 10 10 01 80 90 10 10 01  4A 90 10 10 01 9C 10 10  ........J.......
0FC0: 01 4A F0 FF FF 7F 9C 10  10 01 4A 96 10 10 01 9C  .J........J.....
0FD0: 10 10 01 4A 99 10 10 01  9C 10 10 01 4A 94 10 10  ...J........J...
0FE0: 01 9C 10 10 01 4A 93 10  10 01 9C 10 10 01 4A 98  .....J........J.
0FF0: 10 10 01 9C 10 10 01 4A  95 10 10 01 9C 10 10 01  .......J........
1000: 4A 97 10 10 01 9C 10 10  01 1C 2A 80 5B 4C 80 90  J.........*.[L..
1010: 10 10 01 90 10 10 01 66  30 30 30 D3 00 90 10 10  .......f000.....
1020: 01 7C 01 90 10 10 01 81  01 90 10 10 01 52 2C 80  .|...........R,.
1030: F8 FF FF 7F F8 FF FF 7F  73 30 35 33 45 2C 80 F8  ........s053E,..
1040: FF FF 7F F8 FF FF 7F 73  30 35 34 00 80 1C 36 80  .......s054...6.
1050: 23 52 2C 80 F8 FF FF 7F  F8 FF FF 7F 73 30 35 34  #R,.........s054
1060: 45 2C 80 F8 FF FF 7F F8  FF FF 7F 73 30 35 39 00  E,.........s059.
1070: 80 66 30 80 9C 10 10 01  9C 10 10 01 74 6C 6B 30  .f0.........tlk0
1080: 2B 9C 10 10 01 96 80 23  4A F0 FF FF 7F 9C 10 10  +......#J.......
1090: 01 2B 9C 10 10 01 97 80  23 66 30 80 9C 10 10 01  .+......#f0.....
10A0: 9C 10 10 01 74 6C 6B 31  52 2C 80 F8 FF FF 7F F8  ....tlk1R,......
10B0: FF FF 7F 73 30 35 39 45  2C 80 F8 FF FF 7F F8 FF  ...s059E,.......
10C0: FF 7F 73 30 36 30 00 80  2B 9C 10 10 01 98 80 23  ..s060..+......#
10D0: 66 99 80 9C 10 10 01 9C  10 10 01 65 68 6E 30 52  f..........ehn0R
10E0: 2C 80 F8 FF FF 7F F8 FF  FF 7F 73 30 36 30 45 2C  ,.........s060E,
10F0: 80 F8 FF FF 7F F8 FF FF  7F 73 30 36 31 00 80 2B  .........s061..+
1100: 9C 10 10 01 9A 80 1C 4E  80 23 52 2C 80 F8 FF FF  .......N.#R,....
1110: 7F F8 FF FF 7F 73 30 36  31 45 2C 80 F8 FF FF 7F  .....s061E,.....
1120: F8 FF FF 7F 73 30 36 32  00 80 1C 4E 80 6B 69 64  ....s062...N.kid
1130: 6C 30 9C 10 10 01 1C 4E  80 52 2C 80 F8 FF FF 7F  l0.....N.R,.....
1140: F8 FF FF 7F 73 30 36 32  45 2C 80 F8 FF FF 7F F8  ....s062E,......
1150: FF FF 7F 73 30 36 33 00  80 6E 9C 10 10 01 37 80  ...s063..n....7.
1160: 99 9C 10 10 01 2B 9C 10  10 01 9B 80 23 66 6E 80  .....+......#fn.
1170: 97 10 10 01 97 10 10 01  74 6C 6B 30 2B 97 10 10  ........tlk0+...
1180: 01 9C 80 23 66 6E 80 97  10 10 01 97 10 10 01 74  ...#fn.........t
1190: 6C 6B 31 52 2C 80 F8 FF  FF 7F F8 FF FF 7F 73 30  lk1R,.........s0
11A0: 36 33 45 2C 80 F8 FF FF  7F F8 FF FF 7F 73 30 36  63E,.........s06
11B0: 34 00 80 66 30 80 9C 10  10 01 9C 10 10 01 74 6C  4..f0.........tl
11C0: 6B 30 2B 9C 10 10 01 9D  80 23 2B 9C 10 10 01 9E  k0+......#+.....
11D0: 80 23 2B 9C 10 10 01 9F  80 23 66 30 80 9C 10 10  .#+......#f0....
11E0: 01 9C 10 10 01 74 6C 6B  31 52 2C 80 F8 FF FF 7F  .....tlk1R,.....
11F0: F8 FF FF 7F 73 30 36 34  45 2C 80 F8 FF FF 7F F8  ....s064E,......
1200: FF FF 7F 73 30 36 35 00  80 2B 93 10 10 01 A0 80  ...s065..+......
1210: 23 4A 9C 10 10 01 93 10  10 01 BA F0 FF FF 7F A1  #J..............
1220: 80 A2 80 08 80 A3 80 BA  90 10 10 01 A4 80 A5 80  ................
1230: 08 80 A6 80 4A F0 FF FF  7F 9C 10 10 01 4A 90 10  ....J........J..
1240: 10 01 9C 10 10 01 1C 2A  80 66 A7 80 9C 10 10 01  .......*.f......
1250: 9C 10 10 01 6D 6F 6E 30  52 2C 80 F8 FF FF 7F F8  ....mon0R,......
1260: FF FF 7F 73 30 36 35 45  2C 80 F8 FF FF 7F F8 FF  ...s065E,.......
1270: FF 7F 73 30 36 36 00 80  2B 9C 10 10 01 A8 80 1C  ..s066..+.......
1280: 4E 80 23 52 2C 80 F8 FF  FF 7F F8 FF FF 7F 73 30  N.#R,.........s0
1290: 36 36 45 2C 80 F8 FF FF  7F F8 FF FF 7F 73 30 36  66E,.........s06
12A0: 37 00 80 6E 93 10 10 01  37 80 99 93 10 10 01 2B  7..n....7......+
12B0: 93 10 10 01 A9 80 1C 2A  80 BA 9C 10 10 01 AA 80  .......*........
12C0: AB 80 08 80 AC 80 BA 90  10 10 01 94 80 95 80 08  ................
12D0: 80 00 80 4A 90 10 10 01  9C 10 10 01 1C 4E 80 23  ...J.........N.#
12E0: 79 00 9B 10 10 01 9C 10  10 01 52 2C 80 F8 FF FF  y.........R,....
12F0: 7F F8 FF FF 7F 73 30 36  37 45 2C 80 F8 FF FF 7F  .....s067E,.....
1300: F8 FF FF 7F 73 30 36 38  00 80 27 05 9C 10 10 01  ....s068..'.....
1310: 11 7B 9C 10 10 01 2B 9C  10 10 01 AD 80 23 2A 05  .{....+......#*.
1320: 9C 10 10 01 66 30 80 9C  10 10 01 9C 10 10 01 74  ....f0.........t
1330: 6C 6B 30 2B 9C 10 10 01  AE 80 23 2B 9C 10 10 01  lk0+......#+....
1340: AF 80 1C 2A 80 66 30 80  9C 10 10 01 9C 10 10 01  ...*.f0.........
1350: 74 6C 6B 31 1C 2A 80 23  52 2C 80 F8 FF FF 7F F8  tlk1.*.#R,......
1360: FF FF 7F 73 30 36 38 45  2C 80 F8 FF FF 7F F8 FF  ...s068E,.......
1370: FF 7F 73 30 36 39 00 80  66 34 80 9C 10 10 01 9C  ..s069..f4......
1380: 10 10 01 64 69 73 30 1C  2D 80 2B 9C 10 10 01 B0  ...dis0.-.+.....
1390: 80 1C 3B 80 23 6E 93 10  10 01 6C 80 99 93 10 10  ..;.#n....l.....
13A0: 01 52 2C 80 F8 FF FF 7F  F8 FF FF 7F 73 30 36 39  .R,.........s069
13B0: 45 2C 80 F8 FF FF 7F F8  FF FF 7F 73 30 37 30 00  E,.........s070.
13C0: 80 2B 93 10 10 01 B1 80  1C 2D 80 4A 95 10 10 01  .+.......-.J....
13D0: 93 10 10 01 6E 9C 10 10  01 B2 80 99 9C 10 10 01  ....n...........
13E0: 1C 2A 80 23 5C 00 B3 80  5C 01 B3 80 9A 55 2C 80  .*.#\...\....U,.
13F0: F8 FF FF 7F F8 FF FF 7F  73 30 37 30 45 2C 80 F8  ........s070E,..
1400: FF FF 7F F8 FF FF 7F 73  30 37 31 00 80 5B 44 80  .......s071..[D.
1410: 94 10 10 01 94 10 10 01  74 68 6B 30 1C 2D 80 4E  ........thk0.-.N
1420: 01 97 10 10 01 59 05 A0  10 10 01 01 27 05 A0 10  .....Y......'...
1430: 10 01 27 BA 96 10 10 01  B4 80 B5 80 08 80 B6 80  ..'.............
1440: BA F0 FF FF 7F B7 80 B8  80 08 80 B9 80 BA 97 10  ................
1450: 10 01 1C 80 1D 80 08 80  0D 80 BA 90 10 10 01 BA  ................
1460: 80 BB 80 08 80 BC 80 BA  9C 10 10 01 BD 80 BE 80  ................
1470: 08 80 BF 80 BA A0 10 10  01 C0 80 C1 80 C2 80 C3  ................
1480: 80 4A 90 10 10 01 9C 10  10 01 4A 96 10 10 01 9C  .J........J.....
1490: 10 10 01 4A 97 10 10 01  9C 10 10 01 2B 94 10 10  ...J........+...
14A0: 01 C4 80 23 1C 2A 80 52  2C 80 F8 FF FF 7F F8 FF  ...#.*.R,.......
14B0: FF 7F 73 30 37 31 45 2C  80 F8 FF FF 7F F8 FF FF  ..s071E,........
14C0: 7F 73 30 35 38 00 80 4E  00 97 10 10 01 27 05 A0  .s058..N.....'..
14D0: 10 10 01 28 1C 36 80 5B  44 80 94 10 10 01 94 10  ...(.6.[D.......
14E0: 10 01 74 68 6B 31 52 2C  80 F8 FF FF 7F F8 FF FF  ..thk1R,........
14F0: 7F 73 30 35 38 45 2C 80  F8 FF FF 7F F8 FF FF 7F  .s058E,.........
1500: 73 30 30 35 00 80 79 00  94 10 10 01 A0 10 10 01  s005..y.........
1510: 79 00 99 10 10 01 A0 10  10 01 4A 93 10 10 01 A0  y.........J.....
1520: 10 10 01 4A 96 10 10 01  A0 10 10 01 4A 98 10 10  ...J........J...
1530: 01 A0 10 10 01 4A 9C 10  10 01 A0 10 10 01 4A 97  .....J........J.
1540: 10 10 01 A0 10 10 01 79  00 9B 10 10 01 A0 10 10  .......y........
1550: 01 2B A0 10 10 01 C5 80  1C 2D 80 4A 95 10 10 01  .+.......-.J....
1560: A0 10 10 01 4A F0 FF FF  7F A0 10 10 01 4A 90 10  ....J........J..
1570: 10 01 A0 10 10 01 1C 33  80 2A 05 A0 10 10 01 23  .......3.*.....#
1580: 52 2C 80 F8 FF FF 7F F8  FF FF 7F 73 30 30 35 45  R,.........s005E
1590: 2C 80 F8 FF FF 7F F8 FF  FF 7F 73 61 30 33 00 80  ,.........sa03..
15A0: 5B C6 80 A0 10 10 01 A0  10 10 01 74 68 61 30 1C  [..........tha0.
15B0: 2A 80 2B A0 10 10 01 C7  80 1C 36 80 23 5B C6 80  *.+.......6.#[..
15C0: A0 10 10 01 A0 10 10 01  74 68 61 31 52 2C 80 F8  ........tha1R,..
15D0: FF FF 7F F8 FF FF 7F 73  61 30 33 45 2C 80 F8 FF  .......sa03E,...
15E0: FF 7F F8 FF FF 7F 73 30  34 39 00 80 66 3E 80 93  ......s049..f>..
15F0: 10 10 01 93 10 10 01 74  6C 6B 30 1C 2D 80 BA A0  .......tlk0.-...
1600: 10 10 01 06 80 07 80 08  80 09 80 2B 93 10 10 01  ...........+....
1610: C8 80 23 66 3E 80 93 10  10 01 93 10 10 01 74 6C  ..#f>.........tl
1620: 6B 31 80 A0 10 10 01 52  2C 80 F8 FF FF 7F F8 FF  k1.....R,.......
1630: FF 7F 73 30 34 39 45 2C  80 F8 FF FF 7F F8 FF FF  ..s049E,........
1640: 7F 73 30 35 30 00 80 5B  C9 80 A0 10 10 01 A0 10  .s050..[........
1650: 10 01 74 6C 6B 30 2B A0  10 10 01 CA 80 23 81 00  ..tlk0+......#..
1660: A0 10 10 01 7C 00 A0 10  10 01 5B CB 80 A0 10 10  ....|.....[.....
1670: 01 A0 10 10 01 6B 72 61  30 03 02 10 53 80 27 10  .....kra0...S.'.
1680: 72 10 10 01 01 2B A0 10  10 01 CC 80 23 52 2C 80  r....+......#R,.
1690: F8 FF FF 7F F8 FF FF 7F  73 30 35 30 45 2C 80 F8  ........s050E,..
16A0: FF FF 7F F8 FF FF 7F 73  30 35 31 00 80 66 30 80  .......s051..f0.
16B0: 9C 10 10 01 9C 10 10 01  74 6C 6B 30 2B 9C 10 10  ........tlk0+...
16C0: 01 CD 80 23 66 30 80 9C  10 10 01 9C 10 10 01 74  ...#f0.........t
16D0: 6C 6B 31 2A 10 72 10 10  01 52 2C 80 F8 FF FF 7F  lk1*.r...R,.....
16E0: F8 FF FF 7F 73 30 35 31  45 2C 80 F8 FF FF 7F F8  ....s051E,......
16F0: FF FF 7F 73 30 35 35 00  80 5B CB 80 A0 10 10 01  ...s055..[......
1700: A0 10 10 01 6B 72 61 31  03 02 10 CE 80 27 10 72  ....kra1.....'.r
1710: 10 10 01 01 2B A0 10 10  01 CF 80 1C 36 80 52 2C  ....+.......6.R,
1720: 80 F8 FF FF 7F F8 FF FF  7F 73 30 35 35 45 2C 80  .........s055E,.
1730: F8 FF FF 7F F8 FF FF 7F  73 30 35 36 00 80 1C D0  ........s056....
1740: 80 23 2A 10 72 10 10 01  5B CB 80 A0 10 10 01 A0  .#*.r...[.......
1750: 10 10 01 6B 72 61 32 03  02 10 3C 80 27 10 72 10  ...kra2...<.'.r.
1760: 10 01 01 52 2C 80 F8 FF  FF 7F F8 FF FF 7F 73 30  ...R,.........s0
1770: 35 36 45 2C 80 F8 FF FF  7F F8 FF FF 7F 73 30 35  56E,.........s05
1780: 37 00 80 2B A0 10 10 01  D1 80 23 7C 01 A0 10 10  7..+......#|....
1790: 01 2B A0 10 10 01 D2 80  23 7C 00 A0 10 10 01 52  .+......#|.....R
17A0: 2C 80 F8 FF FF 7F F8 FF  FF 7F 73 30 35 37 45 2C  ,.........s057E,
17B0: 80 F8 FF FF 7F F8 FF FF  7F 73 30 37 33 00 80 66  .........s073..f
17C0: 81 80 9C 10 10 01 9C 10  10 01 6D 73 75 30 2B 9C  ..........msu0+.
17D0: 10 10 01 D3 80 23 4A F0  FF FF 7F A0 10 10 01 4A  .....#J........J
17E0: 90 10 10 01 A0 10 10 01  66 81 80 9C 10 10 01 9C  ........f.......
17F0: 10 10 01 6D 73 75 31 2B  9C 10 10 01 D4 80 23 2A  ...msu1+......#*
1800: 10 72 10 10 01 52 2C 80  F8 FF FF 7F F8 FF FF 7F  .r...R,.........
1810: 73 30 37 33 45 2C 80 F8  FF FF 7F F8 FF FF 7F 73  s073E,.........s
1820: 30 37 34 00 80 5B CB 80  A0 10 10 01 A0 10 10 01  074..[..........
1830: 6B 72 61 33 2B A0 10 10  01 D5 80 1C D6 80 52 2C  kra3+.........R,
1840: 80 F8 FF FF 7F F8 FF FF  7F 73 30 37 34 45 2C 80  .........s074E,.
1850: F8 FF FF 7F F8 FF FF 7F  73 30 37 35 00 80 1C D7  ........s075....
1860: 80 52 2C 80 F8 FF FF 7F  F8 FF FF 7F 73 30 37 35  .R,.........s075
1870: 5F 03 D8 80 B0 10 10 01  B0 10 10 01 68 61 6E 30  _...........han0
1880: 1C D9 80 27 10 73 10 10  01 0E 1C DA 80 AE 05 B0  ...'.s..........
1890: 10 10 01 A0 10 10 01 5F  03 D8 80 B0 10 10 01 B0  ......._........
18A0: 10 10 01 70 6F 69 30 5B  DB 80 A0 10 10 01 A0 10  ...poi0[........
18B0: 10 01 70 6F 69 30 1C DC  80 45 2C 80 F8 FF FF 7F  ..poi0...E,.....
18C0: F8 FF FF 7F 38 31 35 38  00 80 1C D0 80 5F 03 DD  ....8158....._..
18D0: 80 B0 10 10 01 B0 10 10  01 63 6D 6F 66 5F 02 B0  .........cmof_..
18E0: 10 10 01 AE 06 A0 10 10  01 45 2C 80 F8 FF FF 7F  .........E,.....
18F0: F8 FF FF 7F 73 30 37 36  00 80 45 2C 80 F8 FF FF  ....s076..E,....
1900: 7F F8 FF FF 7F 36 30 33  38 00 80 1C 33 80 52 2C  .....6038...3.R,
1910: 80 F8 FF FF 7F F8 FF FF  7F 73 30 37 36 45 2C 80  .........s076E,.
1920: F8 FF FF 7F F8 FF FF 7F  73 30 37 37 00 80 45 2C  ........s077..E,
1930: 80 F8 FF FF 7F F8 FF FF  7F 36 30 33 38 00 80 1C  .........6038...
1940: 33 80 52 2C 80 F8 FF FF  7F F8 FF FF 7F 73 30 37  3.R,.........s07
1950: 37 45 2C 80 F8 FF FF 7F  F8 FF FF 7F 73 30 37 38  7E,.........s078
1960: 00 80 45 2C 80 F8 FF FF  7F F8 FF FF 7F 36 30 33  ..E,.........603
1970: 38 00 80 1C 33 80 52 2C  80 F8 FF FF 7F F8 FF FF  8...3.R,........
1980: 7F 73 30 37 38 45 2C 80  F8 FF FF 7F F8 FF FF 7F  .s078E,.........
1990: 73 30 37 39 00 80 5B DB  80 A0 10 10 01 A0 10 10  s079..[.........
19A0: 01 70 6F 69 6B 1C 36 80  52 2C 80 F8 FF FF 7F F8  .poik.6.R,......
19B0: FF FF 7F 73 30 37 39 45  2C 80 F8 FF FF 7F F8 FF  ...s079E,.......
19C0: FF 7F 73 61 30 37 00 80  1C 3B 80 1A AD 55 5D 00  ..sa07...;...U].
19D0: 80 3B 80 1C 2A 80 52 2C  80 F8 FF FF 7F F8 FF FF  .;..*.R,........
19E0: 7F 73 61 30 37 45 2C 80  F8 FF FF 7F F8 FF FF 7F  .sa07E,.........
19F0: 30 62 6C 66 00 80 27 05  9F 10 10 01 0C 27 05 A0  0blf..'......'..
1A00: 10 10 01 0B 27 05 A1 10  10 01 0A 27 05 A2 10 10  ....'......'....
1A10: 01 09 27 05 A5 10 10 01  0B 27 05 A6 10 10 01 09  ..'......'......
1A20: 27 05 A0 10 10 01 10 1C  2D 80 AB 11 00 80 1C 05  '.......-.......
1A30: 80 35 DE 80 78 1C 2D 80  AB 0A 02 02 00 00 80 00  .5..x.-.........
1A40: 51 1A 30 5C 00 DF 80 5C  01 DF 80 9A 21 00 01 62  Q.0\...\....!..b
1A50: 1A 5C 00 DF 80 5C 01 DF  80 9A 5D B3 80 05 80 1C  .\...\....].....
1A60: 05 80 46 00 45 D9 80 F0  FF FF 7F F0 FF FF 7F 66  ..F.E..........f
1A70: 64 69 32 00 80 21 00                              di2..!.         
```

#### Opcodes

```
  0: 0x0001 [0x42] SET_CLI_EVENT_CANCEL_DATA()
  1: 0x0002 [0x1A] CALL_SUBROUTINE(address=0x55AD)
  2: 0x0005 [0x03] ExtData[1]->WorkLocal[2] = Work_Zone[2]
  3: 0x000A [0x5D] SET_MUSIC_VOLUME(volume=0*, fade_time=300*)
  4: 0x000F [0x46] CAMERA_CONTROL: Disable user control
  5: 0x0011 [0x38] SET_CLIENT_EVENT_MODE(mode=147*)
  6: 0x0014 [0x34] LOAD_UNLOAD_ZONE(zone_id=584*)
  7: 0x0017 [0x77] SET_EVENT_TIME_WEATHER(hour=255*, weather=0*)
  8: 0x001C [0x1C] WAIT(1* ticks)
  9: 0x001F [0x2F] Arciela (ID: 17830032/0x01101090)->Render.Flags0 &= ~0x80000 // Bit 19
 10: 0x0025 [0x2F] Ikhi Askamot (ID: 17830037/0x01101095)->Render.Flags0 &= ~0x80000 // Bit 19
 11: 0x002B [0x2F] Gratzigg (ID: 17830041/0x01101099)->Render.Flags0 &= ~0x80000 // Bit 19
 12: 0x0031 [0x2F] Chero-Machero (ID: 17830038/0x01101096)->Render.Flags0 &= ~0x80000 // Bit 19
 13: 0x0037 [0x2F] Svenja (ID: 17830036/0x01101094)->Render.Flags0 &= ~0x80000 // Bit 19
 14: 0x003D [0x2F] Hildebert (ID: 17830035/0x01101093)->Render.Flags0 &= ~0x80000 // Bit 19
 15: 0x0043 [0x2F] Lhe Lhangavo (ID: 17830040/0x01101098)->Render.Flags0 &= ~0x80000 // Bit 19
 16: 0x0049 [0x2F] Margret (ID: 17830039/0x01101097)->Render.Flags0 &= ~0x80000 // Bit 19
 17: 0x004F [0x2F] Amchuchu (ID: 17830044/0x0110109C)->Render.Flags0 &= ~0x80000 // Bit 19
 18: 0x0055 [0x2F] Reginald (ID: 17830043/0x0110109B)->Render.Flags0 &= ~0x80000 // Bit 19
 19: 0x005B [0x2F] Unnamed NPC (ID: 17830064/0x011010B0)->Render.Flags0 &= ~0x80000 // Bit 19
 20: 0x0061 [0x2F] Unnamed NPC (ID: 17830047/0x0110109F)->Render.Flags0 &= ~0x80000 // Bit 19
 21: 0x0067 [0x2F] Unnamed NPC (ID: 17830048/0x011010A0)->Render.Flags0 &= ~0x80000 // Bit 19
 22: 0x006D [0x2F] Unnamed NPC (ID: 17830049/0x011010A1)->Render.Flags0 &= ~0x80000 // Bit 19
 23: 0x0073 [0x2F] Unnamed NPC (ID: 17830050/0x011010A2)->Render.Flags0 &= ~0x80000 // Bit 19
 24: 0x0079 [0x2F] Unnamed NPC (ID: 17830053/0x011010A5)->Render.Flags0 &= ~0x80000 // Bit 19
 25: 0x007F [0x4E] SET_ENTITY_HIDE_FLAG: Show Unnamed NPC (ID: 17830064/0x011010B0)
 26: 0x0085 [0x4E] SET_ENTITY_HIDE_FLAG: Show Gratzigg (ID: 17830041/0x01101099)
 27: 0x008B [0x4E] SET_ENTITY_HIDE_FLAG: Show Chero-Machero (ID: 17830038/0x01101096)
 28: 0x0091 [0x4E] SET_ENTITY_HIDE_FLAG: Show Svenja (ID: 17830036/0x01101094)
 29: 0x0097 [0x4E] SET_ENTITY_HIDE_FLAG: Show Hildebert (ID: 17830035/0x01101093)
 30: 0x009D [0x4E] SET_ENTITY_HIDE_FLAG: Show Lhe Lhangavo (ID: 17830040/0x01101098)
 31: 0x00A3 [0x4E] SET_ENTITY_HIDE_FLAG: Show Margret (ID: 17830039/0x01101097)
 32: 0x00A9 [0x4E] SET_ENTITY_HIDE_FLAG: Show Arciela (ID: 17830032/0x01101090)
 33: 0x00AF [0x4E] SET_ENTITY_HIDE_FLAG: Show Ikhi Askamot (ID: 17830037/0x01101095)
 34: 0x00B5 [0x4E] SET_ENTITY_HIDE_FLAG: Show Unnamed NPC (ID: 17830047/0x0110109F)
 35: 0x00BB [0x4E] SET_ENTITY_HIDE_FLAG: Show Unnamed NPC (ID: 17830048/0x011010A0)
 36: 0x00C1 [0x4E] SET_ENTITY_HIDE_FLAG: Show Unnamed NPC (ID: 17830049/0x011010A1)
 37: 0x00C7 [0x4E] SET_ENTITY_HIDE_FLAG: Show Unnamed NPC (ID: 17830050/0x011010A2)
 38: 0x00CD [0x4E] SET_ENTITY_HIDE_FLAG: Show Unnamed NPC (ID: 17830053/0x011010A5)
 39: 0x00D3 [0x92] Arciela (ID: 17830032/0x01101090)->Render.Flags3 ^= 0x01
 40: 0x00D9 [0x92] Ikhi Askamot (ID: 17830037/0x01101095)->Render.Flags3 ^= 0x01
 41: 0x00DF [0x92] Gratzigg (ID: 17830041/0x01101099)->Render.Flags3 ^= 0x01
 42: 0x00E5 [0x92] Chero-Machero (ID: 17830038/0x01101096)->Render.Flags3 ^= 0x01
 43: 0x00EB [0x92] Svenja (ID: 17830036/0x01101094)->Render.Flags3 ^= 0x01
 44: 0x00F1 [0x92] Hildebert (ID: 17830035/0x01101093)->Render.Flags3 ^= 0x01
 45: 0x00F7 [0x92] Lhe Lhangavo (ID: 17830040/0x01101098)->Render.Flags3 ^= 0x01
 46: 0x00FD [0x92] Margret (ID: 17830039/0x01101097)->Render.Flags3 ^= 0x01
 47: 0x0103 [0x92] Amchuchu (ID: 17830044/0x0110109C)->Render.Flags3 ^= 0x01
 48: 0x0109 [0x92] Reginald (ID: 17830043/0x0110109B)->Render.Flags3 ^= 0x01
 49: 0x010F [0x94] Unnamed NPC (ID: 17830064/0x011010B0)->Render.Flags3 ^= 0x01
 50: 0x0115 [0x94] LocalPlayer->Render.Flags3 ^= 0x01
 51: 0x011B [0x94] Arciela (ID: 17830032/0x01101090)->Render.Flags3 ^= 0x01
 52: 0x0121 [0x94] Ikhi Askamot (ID: 17830037/0x01101095)->Render.Flags3 ^= 0x01
 53: 0x0127 [0x94] Gratzigg (ID: 17830041/0x01101099)->Render.Flags3 ^= 0x01
 54: 0x012D [0x94] Chero-Machero (ID: 17830038/0x01101096)->Render.Flags3 ^= 0x01
 55: 0x0133 [0x94] Svenja (ID: 17830036/0x01101094)->Render.Flags3 ^= 0x01
 56: 0x0139 [0x94] Hildebert (ID: 17830035/0x01101093)->Render.Flags3 ^= 0x01
 57: 0x013F [0x94] Lhe Lhangavo (ID: 17830040/0x01101098)->Render.Flags3 ^= 0x01
 58: 0x0145 [0x94] Margret (ID: 17830039/0x01101097)->Render.Flags3 ^= 0x01
 59: 0x014B [0x94] Amchuchu (ID: 17830044/0x0110109C)->Render.Flags3 ^= 0x01
 60: 0x0151 [0x94] Reginald (ID: 17830043/0x0110109B)->Render.Flags3 ^= 0x01
 61: 0x0157 [0x94] Unnamed NPC (ID: 17830048/0x011010A0)->Render.Flags3 ^= 0x01
 62: 0x015D [0x94] Unnamed NPC (ID: 17830049/0x011010A1)->Render.Flags3 ^= 0x01
 63: 0x0163 [0x94] Unnamed NPC (ID: 17830050/0x011010A2)->Render.Flags3 ^= 0x01
 64: 0x0169 [0x94] Unnamed NPC (ID: 17830053/0x011010A5)->Render.Flags3 ^= 0x01
 65: 0x016F [0x59] UPDATE_ENTITY_DATA: Unnamed NPC (ID: 17830064/0x011010B0)->Render.Flags0 |= 0x200000
 66: 0x0176 [0x59] UPDATE_ENTITY_DATA: Unnamed NPC (ID: 17830049/0x011010A1)->Render.Flags0 |= 0x200000
 67: 0x017D [0x59] UPDATE_ENTITY_DATA: Unnamed NPC (ID: 17830050/0x011010A2)->Render.Flags0 |= 0x200000
 68: 0x0184 [0x59] UPDATE_ENTITY_DATA: Unnamed NPC (ID: 17830053/0x011010A5)->Render.Flags0 |= 0x200000
 69: 0x018B [0xBA] SET_ENTITY_POSITION(entity_id=Unnamed NPC (ID: 17830064/0x011010B0), pos_x=-31.366*, pos_z=-8.454*, pos_y=-0.500*, direction=301.3*)
 70: 0x0198 [0xBA] SET_ENTITY_POSITION(entity_id=LocalPlayer, pos_x=-39.227*, pos_z=-14.944*, pos_y=-0.250*, direction=275.8*)
 71: 0x01A5 [0xBA] SET_ENTITY_POSITION(entity_id=Arciela (ID: 17830032/0x01101090), pos_x=-37.964*, pos_z=-14.048*, pos_y=-0.500*, direction=275.8*)
 72: 0x01B2 [0xBA] SET_ENTITY_POSITION(entity_id=Ikhi Askamot (ID: 17830037/0x01101095), pos_x=-39.179*, pos_z=-13.356*, pos_y=-0.250*, direction=275.8*)
 73: 0x01BF [0xBA] SET_ENTITY_POSITION(entity_id=Gratzigg (ID: 17830041/0x01101099), pos_x=-28.506*, pos_z=-4.483*, pos_y=-0.500*, direction=275.8*)
 74: 0x01CC [0xBA] SET_ENTITY_POSITION(entity_id=Chero-Machero (ID: 17830038/0x01101096), pos_x=-29.951*, pos_z=-6.760*, pos_y=-0.500*, direction=275.8*)
 75: 0x01D9 [0xBA] SET_ENTITY_POSITION(entity_id=Svenja (ID: 17830036/0x01101094), pos_x=-27.427*, pos_z=-6.509*, pos_y=-0.500*, direction=275.8*)
 76: 0x01E6 [0xBA] SET_ENTITY_POSITION(entity_id=Hildebert (ID: 17830035/0x01101093), pos_x=-31.894*, pos_z=-4.882*, pos_y=-0.500*, direction=275.8*)
 77: 0x01F3 [0xBA] SET_ENTITY_POSITION(entity_id=Lhe Lhangavo (ID: 17830040/0x01101098), pos_x=-25.637*, pos_z=-5.953*, pos_y=-0.500*, direction=275.8*)
 78: 0x0200 [0xBA] SET_ENTITY_POSITION(entity_id=Margret (ID: 17830039/0x01101097), pos_x=-30.069*, pos_z=-3.274*, pos_y=-0.500*, direction=275.8*)
 79: 0x020D [0xBA] SET_ENTITY_POSITION(entity_id=Amchuchu (ID: 17830044/0x0110109C), pos_x=-37.964*, pos_z=-14.048*, pos_y=-0.500*, direction=275.8*)
 80: 0x021A [0xBA] SET_ENTITY_POSITION(entity_id=Reginald (ID: 17830043/0x0110109B), pos_x=-39.227*, pos_z=-14.944*, pos_y=-0.250*, direction=275.8*)
 81: 0x0227 [0xBA] SET_ENTITY_POSITION(entity_id=Unnamed NPC (ID: 17830047/0x0110109F), pos_x=-26.162*, pos_z=-4.476*, pos_y=-0.500*, direction=150.5*)
 82: 0x0234 [0xBA] SET_ENTITY_POSITION(entity_id=Unnamed NPC (ID: 17830048/0x011010A0), pos_x=-34.506*, pos_z=-16.296*, pos_y=-0.500*, direction=0.0*)
 83: 0x0241 [0xBA] SET_ENTITY_POSITION(entity_id=Unnamed NPC (ID: 17830049/0x011010A1), pos_x=-26.162*, pos_z=-4.476*, pos_y=-1.050*, direction=150.5*)
 84: 0x024E [0xBA] SET_ENTITY_POSITION(entity_id=Unnamed NPC (ID: 17830050/0x011010A2), pos_x=-20.800*, pos_z=-5.700*, pos_y=-0.500*, direction=330.0*)
 85: 0x025B [0xBA] SET_ENTITY_POSITION(entity_id=Unnamed NPC (ID: 17830053/0x011010A5), pos_x=-20.800*, pos_z=-22.300*, pos_y=-0.500*, direction=30.0*)
 86: 0x0268 [0x80] LOAD_WAIT(entity=LocalPlayer)
 87: 0x026D [0x80] LOAD_WAIT(entity=Arciela (ID: 17830032/0x01101090))
 88: 0x0272 [0x80] LOAD_WAIT(entity=Unnamed NPC (ID: 17830064/0x011010B0))
 89: 0x0277 [0x80] LOAD_WAIT(entity=Gratzigg (ID: 17830041/0x01101099))
 90: 0x027C [0x80] LOAD_WAIT(entity=Chero-Machero (ID: 17830038/0x01101096))
 91: 0x0281 [0x80] LOAD_WAIT(entity=Svenja (ID: 17830036/0x01101094))
 92: 0x0286 [0x80] LOAD_WAIT(entity=Hildebert (ID: 17830035/0x01101093))
 93: 0x028B [0x80] LOAD_WAIT(entity=Lhe Lhangavo (ID: 17830040/0x01101098))
 94: 0x0290 [0x80] LOAD_WAIT(entity=Ikhi Askamot (ID: 17830037/0x01101095))
 95: 0x0295 [0x80] LOAD_WAIT(entity=Margret (ID: 17830039/0x01101097))
 96: 0x029A [0x80] LOAD_WAIT(entity=Unnamed NPC (ID: 17830048/0x011010A0))
 97: 0x029F [0x80] LOAD_WAIT(entity=Unnamed NPC (ID: 17830049/0x011010A1))
 98: 0x02A4 [0x80] LOAD_WAIT(entity=Unnamed NPC (ID: 17830050/0x011010A2))
 99: 0x02A9 [0x80] LOAD_WAIT(entity=Unnamed NPC (ID: 17830053/0x011010A5))
100: 0x02AE [0x5F] MULTI_HANDLER_COMPLEX(mode=0x03 - Load ext scheduler (OpCode 0x5B mode 0), ref=3249*, entity1=Unnamed NPC (ID: 17830050/0x011010A2), entity2=Unnamed NPC (ID: 17830050/0x011010A2), string="met0")
101: 0x02BE [0x5F] MULTI_HANDLER_COMPLEX(mode=0x03 - Load ext scheduler (OpCode 0x5B mode 0), ref=3249*, entity1=Unnamed NPC (ID: 17830053/0x011010A5), entity2=Unnamed NPC (ID: 17830053/0x011010A5), string="met0")
102: 0x02CE [0x4A] Gratzigg (ID: 17830041/0x01101099) looks at Chero-Machero (ID: 17830038/0x01101096)
103: 0x02D7 [0x4A] Chero-Machero (ID: 17830038/0x01101096) looks at Gratzigg (ID: 17830041/0x01101099)
104: 0x02E0 [0x4A] Svenja (ID: 17830036/0x01101094) looks at Chero-Machero (ID: 17830038/0x01101096)
105: 0x02E9 [0x4A] Hildebert (ID: 17830035/0x01101093) looks at Chero-Machero (ID: 17830038/0x01101096)
106: 0x02F2 [0x4A] Lhe Lhangavo (ID: 17830040/0x01101098) looks at Chero-Machero (ID: 17830038/0x01101096)
107: 0x02FB [0x4A] Margret (ID: 17830039/0x01101097) looks at Chero-Machero (ID: 17830038/0x01101096)
108: 0x0304 [0x1C] WAIT(30* ticks)
109: 0x0307 [0x5C] MUSIC_CONTROL: Set Idle (Day) music to song 123*
110: 0x030B [0x5C] MUSIC_CONTROL: Set Idle (Night) music to song 123*
111: 0x030F [0x9A] WAIT_MUSIC_SERVER()
112: 0x0310 [0x45] LOAD_SCHEDULED_TASK: Load scheduler "s000" with entities [EventEntity, EventEntity], work=[740*, 0*]
113: 0x0321 [0x1C] WAIT(15* ticks)
114: 0x0324 [0x1A] CALL_SUBROUTINE(address=0x558C)
115: 0x0327 [0x5B] LOAD_EXT_SCHEDULER: Load scheduler "kob0" with entities [Gratzigg (ID: 17830041/0x01101099), Gratzigg (ID: 17830041/0x01101099)], work=2664*
116: 0x0336 [0x2B] Gratzigg (ID: 17830041/0x01101099) [9326*]:
     "Who does that upstart think she is, summoning the heads of the Twelve Orders just to make us wait!?"
117: 0x033D [0x23] WAIT_FOR_DIALOG_INTERACTION
118: 0x033E [0x52] END_LOAD_SCHEDULER: End scheduler "s000" with entities [EventEntity, EventEntity], work=740*
119: 0x034D [0x45] LOAD_SCHEDULED_TASK: Load scheduler "s001" with entities [EventEntity, EventEntity], work=[740*, 0*]
120: 0x035E [0x66] LOAD_EXT_SCHEDULER_MAIN: Load scheduler "tlk0" with entities [Chero-Machero (ID: 17830038/0x01101096), Chero-Machero (ID: 17830038/0x01101096)], work=49*
121: 0x036D [0x2B] Chero-Machero (ID: 17830038/0x01101096) [9327*]:
     "Indubitably-wubitably! We've more pressing matters to deal with than the whims of some young girl."
122: 0x0374 [0x23] WAIT_FOR_DIALOG_INTERACTION
123: 0x0375 [0x2B] Chero-Machero (ID: 17830038/0x01101096) [9328*]:
     "And it's all because Melvien had to kick the bucketaru."
124: 0x037C [0x23] WAIT_FOR_DIALOG_INTERACTION
125: 0x037D [0x66] LOAD_EXT_SCHEDULER_MAIN: Load scheduler "tlk1" with entities [Chero-Machero (ID: 17830038/0x01101096), Chero-Machero (ID: 17830038/0x01101096)], work=49*
126: 0x038C [0x1C] WAIT(45* ticks)
127: 0x038F [0x52] END_LOAD_SCHEDULER: End scheduler "s001" with entities [EventEntity, EventEntity], work=740*
128: 0x039E [0x45] LOAD_SCHEDULED_TASK: Load scheduler "s002" with entities [EventEntity, EventEntity], work=[740*, 0*]
129: 0x03AF [0x66] LOAD_EXT_SCHEDULER_MAIN: Load scheduler "dis0" with entities [Chero-Machero (ID: 17830038/0x01101096), Chero-Machero (ID: 17830038/0x01101096)], work=40*
130: 0x03BE [0x2B] Chero-Machero (ID: 17830038/0x01101096) [9329*]:
     "Ugh, I can't believe we leaders have been reduced to mere paper-shuffle-wufflers."
131: 0x03C5 [0x1C] WAIT(90* ticks)
132: 0x03C8 [0x23] WAIT_FOR_DIALOG_INTERACTION
133: 0x03C9 [0x6E] Chero-Machero (ID: 17830038/0x01101096) uses emote 6*
134: 0x03D0 [0x99] Wait for Chero-Machero (ID: 17830038/0x01101096) animation to complete
135: 0x03D5 [0x2B] Chero-Machero (ID: 17830038/0x01101096) [9330*]:
     "Thanks to his reckless antics, colonization's practically been slowed to a haltaru. If only he'd kept his nose stuck in his books, then we wouldn't be stuck in this bureaucratic-watic quagmire."
136: 0x03DC [0x1C] WAIT(90* ticks)
137: 0x03DF [0x23] WAIT_FOR_DIALOG_INTERACTION
138: 0x03E0 [0x52] END_LOAD_SCHEDULER: End scheduler "s002" with entities [EventEntity, EventEntity], work=740*
139: 0x03EF [0x45] LOAD_SCHEDULED_TASK: Load scheduler "sa02" with entities [EventEntity, EventEntity], work=[740*, 0*]
140: 0x0400 [0x1C] WAIT(30* ticks)
141: 0x0403 [0x7C] Svenja (ID: 17830036/0x01101094)->Render.Flags2 |= 0x00
142: 0x0409 [0x2B] Svenja (ID: 17830036/0x01101094) [9331*]:
     "Could you please be a little more considerate of the deceased?"
143: 0x0410 [0x23] WAIT_FOR_DIALOG_INTERACTION
144: 0x0411 [0x7C] Svenja (ID: 17830036/0x01101094)->Render.Flags2 |= 0x01
145: 0x0417 [0x4A] Chero-Machero (ID: 17830038/0x01101096) looks at Svenja (ID: 17830036/0x01101094)
146: 0x0420 [0x52] END_LOAD_SCHEDULER: End scheduler "sa02" with entities [EventEntity, EventEntity], work=740*
147: 0x042F [0x45] LOAD_SCHEDULED_TASK: Load scheduler "s003" with entities [EventEntity, EventEntity], work=[740*, 0*]
148: 0x0440 [0x1C] WAIT(30* ticks)
149: 0x0443 [0x66] LOAD_EXT_SCHEDULER_MAIN: Load scheduler "tlk0" with entities [Chero-Machero (ID: 17830038/0x01101096), Chero-Machero (ID: 17830038/0x01101096)], work=49*
150: 0x0452 [0x2B] Chero-Machero (ID: 17830038/0x01101096) [9332*]:
     "I...I was just saying what everyone was thinking. I don't see the harm in that. Plus, it's not like he'll rise from the grave to seek revenge because I hurtaru his feelings posthumously."
151: 0x0459 [0x23] WAIT_FOR_DIALOG_INTERACTION
152: 0x045A [0x66] LOAD_EXT_SCHEDULER_MAIN: Load scheduler "tlk1" with entities [Chero-Machero (ID: 17830038/0x01101096), Chero-Machero (ID: 17830038/0x01101096)], work=49*
153: 0x0469 [0x2C] CREATE_SCHEDULER_TASK: Create scheduler "open" with entities [Door: (ID: 17830066/0x011010B2), Door: (ID: 17830066/0x011010B2)]
154: 0x0476 [0x45] LOAD_SCHEDULED_TASK: Load scheduler "open" with entities [EventEntity, EventEntity], work=[740*, 0*]
155: 0x0487 [0x52] END_LOAD_SCHEDULER: End scheduler "s003" with entities [EventEntity, EventEntity], work=740*
156: 0x0496 [0x45] LOAD_SCHEDULED_TASK: Load scheduler "s006" with entities [EventEntity, EventEntity], work=[740*, 0*]
157: 0x04A7 [0x5D] SET_MUSIC_VOLUME(volume=0*, fade_time=120*)
158: 0x04AC [0x6B] STOP_AND_IDLE: Svenja (ID: 17830036/0x01101094) stops current action and resets to idle (animation="idl0")
159: 0x04B5 [0x27] REQ_SET(priority=0x05, entity_id=Arciela (ID: 17830032/0x01101090), tag_num=0x36)
160: 0x04BC [0x1C] WAIT(15* ticks)
161: 0x04BF [0x27] REQ_SET(priority=0x05, entity_id=Ikhi Askamot (ID: 17830037/0x01101095), tag_num=0x14)
162: 0x04C6 [0x1C] WAIT(15* ticks)
163: 0x04C9 [0x27] REQ_SET(priority=0x05, entity_id=LocalPlayer, tag_num=0x46)
164: 0x04D0 [0x1C] WAIT(180* ticks)
165: 0x04D3 [0x52] END_LOAD_SCHEDULER: End scheduler "s006" with entities [EventEntity, EventEntity], work=740*
166: 0x04E2 [0x45] LOAD_SCHEDULED_TASK: Load scheduler "s007" with entities [EventEntity, EventEntity], work=[740*, 0*]
167: 0x04F3 [0x2C] CREATE_SCHEDULER_TASK: Create scheduler "clos" with entities [Door: (ID: 17830066/0x011010B2), Door: (ID: 17830066/0x011010B2)]
168: 0x0500 [0x45] LOAD_SCHEDULED_TASK: Load scheduler "clos" with entities [EventEntity, EventEntity], work=[740*, 0*]
169: 0x0511 [0x4A] Hildebert (ID: 17830035/0x01101093) looks at Arciela (ID: 17830032/0x01101090)
170: 0x051A [0x4A] Svenja (ID: 17830036/0x01101094) looks at Arciela (ID: 17830032/0x01101090)
171: 0x0523 [0x4A] Chero-Machero (ID: 17830038/0x01101096) looks at Arciela (ID: 17830032/0x01101090)
172: 0x052C [0x4A] Margret (ID: 17830039/0x01101097) looks at Arciela (ID: 17830032/0x01101090)
173: 0x0535 [0x4A] Lhe Lhangavo (ID: 17830040/0x01101098) looks at Arciela (ID: 17830032/0x01101090)
174: 0x053E [0x4A] Gratzigg (ID: 17830041/0x01101099) looks at Arciela (ID: 17830032/0x01101090)
175: 0x0547 [0x4A] Unnamed NPC (ID: 17830049/0x011010A1) looks at Arciela (ID: 17830032/0x01101090)
176: 0x0550 [0x2B] Arciela (ID: 17830032/0x01101090) [9333*]:
     "My apologies, everyone. I did not expect to take so long."
177: 0x0557 [0x23] WAIT_FOR_DIALOG_INTERACTION
178: 0x0558 [0x2A] GET_REQ_LEVEL(level=5, entity_id=Arciela (ID: 17830032/0x01101090))
179: 0x055E [0x52] END_LOAD_SCHEDULER: End scheduler "s007" with entities [EventEntity, EventEntity], work=740*
180: 0x056D [0x45] LOAD_SCHEDULED_TASK: Load scheduler "s008" with entities [EventEntity, EventEntity], work=[740*, 0*]
181: 0x057E [0x66] LOAD_EXT_SCHEDULER_MAIN: Load scheduler "tlk0" with entities [Hildebert (ID: 17830035/0x01101093), Hildebert (ID: 17830035/0x01101093)], work=29*
182: 0x058D [0x1C] WAIT(15* ticks)
183: 0x0590 [0x4A] Arciela (ID: 17830032/0x01101090) looks at Hildebert (ID: 17830035/0x01101093)
184: 0x0599 [0x2B] Hildebert (ID: 17830035/0x01101093) [9334*]:
     "I hope you do not intend to start the meeting on as short notice as you sent out those summons. Some of us still have yet to arrive!"
185: 0x05A0 [0x23] WAIT_FOR_DIALOG_INTERACTION
186: 0x05A1 [0x66] LOAD_EXT_SCHEDULER_MAIN: Load scheduler "tlk1" with entities [Hildebert (ID: 17830035/0x01101093), Hildebert (ID: 17830035/0x01101093)], work=29*
187: 0x05B0 [0x1C] WAIT(30* ticks)
188: 0x05B3 [0x52] END_LOAD_SCHEDULER: End scheduler "s008" with entities [EventEntity, EventEntity], work=740*
189: 0x05C2 [0x45] LOAD_SCHEDULED_TASK: Load scheduler "s009" with entities [EventEntity, EventEntity], work=[740*, 0*]
190: 0x05D3 [0x79] Ikhi Askamot (ID: 17830037/0x01101095) looks at Hildebert (ID: 17830035/0x01101093) (Basic look)
191: 0x05DD [0x5B] LOAD_EXT_SCHEDULER: Load scheduler "tlk0" with entities [Arciela (ID: 17830032/0x01101090), Arciela (ID: 17830032/0x01101090)], work=3217*
192: 0x05EC [0x2B] Arciela (ID: 17830032/0x01101090) [9335*]:
     "I have something to say that simply cannot wait. Please, the future of Adoulin lies in the balance!"
193: 0x05F3 [0x23] WAIT_FOR_DIALOG_INTERACTION
194: 0x05F4 [0x5B] LOAD_EXT_SCHEDULER: Load scheduler "tlk1" with entities [Arciela (ID: 17830032/0x01101090), Arciela (ID: 17830032/0x01101090)], work=3217*
195: 0x0603 [0x5C] MUSIC_CONTROL: Set Idle (Day) music to song 73*
196: 0x0607 [0x5C] MUSIC_CONTROL: Set Idle (Night) music to song 73*
197: 0x060B [0x9A] WAIT_MUSIC_SERVER()
198: 0x060C [0x52] END_LOAD_SCHEDULER: End scheduler "s009" with entities [EventEntity, EventEntity], work=740*
199: 0x061B [0x45] LOAD_SCHEDULED_TASK: Load scheduler "s010" with entities [EventEntity, EventEntity], work=[740*, 0*]
200: 0x062C [0x2B] Hildebert (ID: 17830035/0x01101093) [9336*]:
     "...The future of Adoulin, you say?"
201: 0x0633 [0x23] WAIT_FOR_DIALOG_INTERACTION
202: 0x0634 [0x4E] SET_ENTITY_HIDE_FLAG: Hide LocalPlayer
203: 0x063A [0x5B] LOAD_EXT_SCHEDULER: Load scheduler "tlk0" with entities [Svenja (ID: 17830036/0x01101094), Svenja (ID: 17830036/0x01101094)], work=3261*
204: 0x0649 [0x52] END_LOAD_SCHEDULER: End scheduler "s010" with entities [EventEntity, EventEntity], work=740*
205: 0x0658 [0x45] LOAD_SCHEDULED_TASK: Load scheduler "s011" with entities [EventEntity, EventEntity], work=[740*, 0*]
206: 0x0669 [0x79] Arciela (ID: 17830032/0x01101090) looks at Svenja (ID: 17830036/0x01101094) (Basic look)
207: 0x0673 [0x2B] Svenja (ID: 17830036/0x01101094) [9337*]:
     "I was under the impression you were only investigating what took place in the waterways."
208: 0x067A [0x23] WAIT_FOR_DIALOG_INTERACTION
209: 0x067B [0x5B] LOAD_EXT_SCHEDULER: Load scheduler "tlk1" with entities [Svenja (ID: 17830036/0x01101094), Svenja (ID: 17830036/0x01101094)], work=3261*
210: 0x068A [0x5B] LOAD_EXT_SCHEDULER: Load scheduler "yes0" with entities [Arciela (ID: 17830032/0x01101090), Arciela (ID: 17830032/0x01101090)], work=3231*
211: 0x0699 [0x2B] Arciela (ID: 17830032/0x01101090) [9338*]:
     "I was."
212: 0x06A0 [0x23] WAIT_FOR_DIALOG_INTERACTION
213: 0x06A1 [0x4E] SET_ENTITY_HIDE_FLAG: Hide LocalPlayer
214: 0x06A7 [0x52] END_LOAD_SCHEDULER: End scheduler "s011" with entities [EventEntity, EventEntity], work=740*
215: 0x06B6 [0x45] LOAD_SCHEDULED_TASK: Load scheduler "s012" with entities [EventEntity, EventEntity], work=[740*, 0*]
216: 0x06C7 [0x66] LOAD_EXT_SCHEDULER_MAIN: Load scheduler "dis0" with entities [Chero-Machero (ID: 17830038/0x01101096), Chero-Machero (ID: 17830038/0x01101096)], work=40*
217: 0x06D6 [0x2B] Chero-Machero (ID: 17830038/0x01101096) [9339*]:
     "Well, thank the Goddess that we dropped everything so this royal runtaru could waste our time with information on "Watergate.""
218: 0x06DD [0x1C] WAIT(120* ticks)
219: 0x06E0 [0x23] WAIT_FOR_DIALOG_INTERACTION
220: 0x06E1 [0x66] LOAD_EXT_SCHEDULER_MAIN: Load scheduler "tlk0" with entities [Chero-Machero (ID: 17830038/0x01101096), Chero-Machero (ID: 17830038/0x01101096)], work=49*
221: 0x06F0 [0x2B] Chero-Machero (ID: 17830038/0x01101096) [9340*]:
     "Didn't you know Reginald and Amchuchu are already flexing their mental mightaru to come up with a solution for that? Anyway, on to something of substance-wubstance."
222: 0x06F7 [0x23] WAIT_FOR_DIALOG_INTERACTION
223: 0x06F8 [0x52] END_LOAD_SCHEDULER: End scheduler "s012" with entities [EventEntity, EventEntity], work=740*
224: 0x0707 [0x45] LOAD_SCHEDULED_TASK: Load scheduler "s013" with entities [EventEntity, EventEntity], work=[740*, 0*]
225: 0x0718 [0x79] Hildebert (ID: 17830035/0x01101093) looks at Chero-Machero (ID: 17830038/0x01101096) (Basic look)
226: 0x0722 [0x79] Arciela (ID: 17830032/0x01101090) looks at Chero-Machero (ID: 17830038/0x01101096) (Basic look)
227: 0x072C [0x79] Ikhi Askamot (ID: 17830037/0x01101095) looks at Chero-Machero (ID: 17830038/0x01101096) (Basic look)
228: 0x0736 [0x4A] LocalPlayer looks at Chero-Machero (ID: 17830038/0x01101096)
229: 0x073F [0x4A] Svenja (ID: 17830036/0x01101094) looks at Chero-Machero (ID: 17830038/0x01101096)
230: 0x0748 [0x2B] Chero-Machero (ID: 17830038/0x01101096) [9341*]:
     "Condition-witions in the hinterland are growing worse by the day."
231: 0x074F [0x1C] WAIT(30* ticks)
232: 0x0752 [0x4E] SET_ENTITY_HIDE_FLAG: Show LocalPlayer
233: 0x0758 [0x1C] WAIT(90* ticks)
234: 0x075B [0x23] WAIT_FOR_DIALOG_INTERACTION
235: 0x075C [0x2B] Chero-Machero (ID: 17830038/0x01101096) [9342*]:
     "Heretofore unseen monstarus have been brazenly appearing before coalition staff even at high noon."
236: 0x0763 [0x23] WAIT_FOR_DIALOG_INTERACTION
237: 0x0764 [0x1A] CALL_SUBROUTINE(address=0x55AD)
238: 0x0767 [0x1C] WAIT(30* ticks)
239: 0x076A [0x52] END_LOAD_SCHEDULER: End scheduler "s013" with entities [EventEntity, EventEntity], work=740*
240: 0x0779 [0x6B] STOP_AND_IDLE: Chero-Machero (ID: 17830038/0x01101096) stops current action and resets to idle (animation="idl0")
241: 0x0782 [0x4E] SET_ENTITY_HIDE_FLAG: Show LocalPlayer
242: 0x0788 [0x80] LOAD_WAIT(entity=LocalPlayer)
243: 0x078D [0x4A] Chero-Machero (ID: 17830038/0x01101096) looks at Svenja (ID: 17830036/0x01101094)
244: 0x0796 [0x4A] Lhe Lhangavo (ID: 17830040/0x01101098) looks at Chero-Machero (ID: 17830038/0x01101096)
245: 0x079F [0x81] SET_ENTITY_BLINKING(blink_flag=0x00, entity=Arciela (ID: 17830032/0x01101090))
246: 0x07A5 [0x5B] LOAD_EXT_SCHEDULER: Load scheduler "fj00" with entities [Arciela (ID: 17830032/0x01101090), Arciela (ID: 17830032/0x01101090)], work=3216*
247: 0x07B4 [0x1C] WAIT(30* ticks)
248: 0x07B7 [0x1A] CALL_SUBROUTINE(address=0x5754)
249: 0x07BA [0x89] OPEN_MAP(map_id=0x0000804D)
250: 0x07BD [0x1C] WAIT(60* ticks)
251: 0x07C0 [0xB4] UI_WINDOW_STRING_HANDLER(case=0x14 - Update map window values, work_offset1=1000*, work_offset2=62290*, work_offset3=1200*, work_offset4=0*, work_offset5=1*)
252: 0x07CC [0x1C] WAIT(60* ticks)
253: 0x07CF [0xB4] UI_WINDOW_STRING_HANDLER(case=0x14 - Update map window values, work_offset1=1000*, work_offset2=4294921886*, work_offset3=1200*, work_offset4=300*, work_offset5=1*)
254: 0x07DB [0x03] Work_Zone[2] = 240*
255: 0x07E0 [0x27] REQ_SET(priority=0x10, entity_id=??? (ID: 17830002/0x01101072), tag_num=0x01)
256: 0x07E7 [0x1A] CALL_SUBROUTINE(address=0x5742)
257: 0x07EA [0x1C] WAIT(60* ticks)
258: 0x07ED [0x2B] Chero-Machero (ID: 17830038/0x01101096) [9343*]:
     "Livestock go missing-wissing after the fences erected to protect them miraculously break."
259: 0x07F4 [0x23] WAIT_FOR_DIALOG_INTERACTION
260: 0x07F5 [0x2B] Chero-Machero (ID: 17830038/0x01101096) [9344*]:
     "Whole fields of crops are supposedly withering overnightaru."
261: 0x07FC [0x23] WAIT_FOR_DIALOG_INTERACTION
262: 0x07FD [0x2A] GET_REQ_LEVEL(level=16, entity_id=??? (ID: 17830002/0x01101072))
263: 0x0803 [0x1A] CALL_SUBROUTINE(address=0x5754)
264: 0x0806 [0x89] OPEN_MAP(map_id=0x00008056)
265: 0x0809 [0x1C] WAIT(60* ticks)
266: 0x080C [0xB4] UI_WINDOW_STRING_HANDLER(case=0x14 - Update map window values, work_offset1=4294962846*, work_offset2=4294916436*, work_offset3=1180*, work_offset4=0*, work_offset5=1*)
267: 0x0818 [0x1C] WAIT(60* ticks)
268: 0x081B [0xB4] UI_WINDOW_STRING_HANDLER(case=0x14 - Update map window values, work_offset1=1000*, work_offset2=4294964666*, work_offset3=1060*, work_offset4=300*, work_offset5=1*)
269: 0x0827 [0x03] Work_Zone[2] = 240*
270: 0x082C [0x27] REQ_SET(priority=0x10, entity_id=??? (ID: 17830002/0x01101072), tag_num=0x01)
271: 0x0833 [0x1A] CALL_SUBROUTINE(address=0x5742)
272: 0x0836 [0x1C] WAIT(60* ticks)
273: 0x0839 [0x2B] Chero-Machero (ID: 17830038/0x01101096) [9345*]:
     "Like rats from a sinking ship, the smaller beasts of the forest trample-wample each other in an effort to take refuge on the coast."
274: 0x0840 [0x23] WAIT_FOR_DIALOG_INTERACTION
275: 0x0841 [0x2B] Chero-Machero (ID: 17830038/0x01101096) [9346*]:
     "Just what are they fleeing-weeing from?"
276: 0x0848 [0x23] WAIT_FOR_DIALOG_INTERACTION
277: 0x0849 [0x2A] GET_REQ_LEVEL(level=16, entity_id=??? (ID: 17830002/0x01101072))
278: 0x084F [0x1A] CALL_SUBROUTINE(address=0x5754)
279: 0x0852 [0x8A] CLOSE_MAP()
280: 0x0853 [0xB4] UI_WINDOW_STRING_HANDLER(case=0x15 - Test map window validity)
281: 0x0855 [0x66] LOAD_EXT_SCHEDULER_MAIN: Load scheduler "tlk0" with entities [Chero-Machero (ID: 17830038/0x01101096), Chero-Machero (ID: 17830038/0x01101096)], work=49*
282: 0x0864 [0x1A] CALL_SUBROUTINE(address=0x5742)
283: 0x0867 [0x45] LOAD_SCHEDULED_TASK: Load scheduler "s014" with entities [EventEntity, EventEntity], work=[740*, 0*]
284: 0x0878 [0x1C] WAIT(15* ticks)
285: 0x087B [0x1A] CALL_SUBROUTINE(address=0x558C)
286: 0x087E [0x2B] Chero-Machero (ID: 17830038/0x01101096) [9347*]:
     "Could it possibly have something to do with the recentaru spate of landshivers?"
287: 0x0885 [0x23] WAIT_FOR_DIALOG_INTERACTION
288: 0x0886 [0x66] LOAD_EXT_SCHEDULER_MAIN: Load scheduler "tlk1" with entities [Chero-Machero (ID: 17830038/0x01101096), Chero-Machero (ID: 17830038/0x01101096)], work=49*
289: 0x0895 [0x52] END_LOAD_SCHEDULER: End scheduler "s014" with entities [EventEntity, EventEntity], work=740*
290: 0x08A4 [0x45] LOAD_SCHEDULED_TASK: Load scheduler "s015" with entities [EventEntity, EventEntity], work=[740*, 0*]
291: 0x08B5 [0x7C] Arciela (ID: 17830032/0x01101090)->Render.Flags2 |= 0x00
292: 0x08BB [0x5B] LOAD_EXT_SCHEDULER: Load scheduler "fj01" with entities [Arciela (ID: 17830032/0x01101090), Arciela (ID: 17830032/0x01101090)], work=3216*
293: 0x08CA [0x2B] Svenja (ID: 17830036/0x01101094) [9348*]:
     "What an utterly terrifying prospect that is..."
294: 0x08D1 [0x23] WAIT_FOR_DIALOG_INTERACTION
295: 0x08D2 [0x52] END_LOAD_SCHEDULER: End scheduler "s015" with entities [EventEntity, EventEntity], work=740*
296: 0x08E1 [0x45] LOAD_SCHEDULED_TASK: Load scheduler "s019" with entities [EventEntity, EventEntity], work=[740*, 0*]
297: 0x08F2 [0x4A] Lhe Lhangavo (ID: 17830040/0x01101098) looks at Arciela (ID: 17830032/0x01101090)
298: 0x08FB [0x4A] LocalPlayer looks at Lhe Lhangavo (ID: 17830040/0x01101098)
299: 0x0904 [0x4A] Ikhi Askamot (ID: 17830037/0x01101095) looks at Lhe Lhangavo (ID: 17830040/0x01101098)
300: 0x090D [0x1C] WAIT(30* ticks)
301: 0x0910 [0x4A] Arciela (ID: 17830032/0x01101090) looks at Lhe Lhangavo (ID: 17830040/0x01101098)
302: 0x0919 [0x79] Svenja (ID: 17830036/0x01101094) looks at Arciela (ID: 17830032/0x01101090) (Basic look)
303: 0x0923 [0x5B] LOAD_EXT_SCHEDULER: Load scheduler "tlk0" with entities [Lhe Lhangavo (ID: 17830040/0x01101098), Lhe Lhangavo (ID: 17830040/0x01101098)], work=3276*
304: 0x0932 [0x2B] Lhe Lhangavo (ID: 17830040/0x01101098) [9349*]:
     "As the person in charge of the colonization initiative, these issues seem much more prrressing than a little underground mishap."
305: 0x0939 [0x23] WAIT_FOR_DIALOG_INTERACTION
306: 0x093A [0x2B] Lhe Lhangavo (ID: 17830040/0x01101098) [9350*]:
     "Say your piece, Arrrciela, but make it snappy."
307: 0x0941 [0x23] WAIT_FOR_DIALOG_INTERACTION
308: 0x0942 [0x5B] LOAD_EXT_SCHEDULER: Load scheduler "tlk1" with entities [Lhe Lhangavo (ID: 17830040/0x01101098), Lhe Lhangavo (ID: 17830040/0x01101098)], work=3276*
309: 0x0951 [0x52] END_LOAD_SCHEDULER: End scheduler "s019" with entities [EventEntity, EventEntity], work=740*
310: 0x0960 [0x45] LOAD_SCHEDULED_TASK: Load scheduler "s031" with entities [EventEntity, EventEntity], work=[740*, 0*]
311: 0x0971 [0x5B] LOAD_EXT_SCHEDULER: Load scheduler "tlk0" with entities [Arciela (ID: 17830032/0x01101090), Arciela (ID: 17830032/0x01101090)], work=3217*
312: 0x0980 [0x2B] Arciela (ID: 17830032/0x01101090) [9351*]:
     "Then allow me to get right to the point."
313: 0x0987 [0x23] WAIT_FOR_DIALOG_INTERACTION
314: 0x0988 [0x2B] Arciela (ID: 17830032/0x01101090) [9352*]:
     "The tunnel collapse in the waterways and subsequent change in water flow down there was not the result of a landshiver."
315: 0x098F [0x23] WAIT_FOR_DIALOG_INTERACTION
316: 0x0990 [0x5B] LOAD_EXT_SCHEDULER: Load scheduler "tlk1" with entities [Arciela (ID: 17830032/0x01101090), Arciela (ID: 17830032/0x01101090)], work=3217*
317: 0x099F [0x52] END_LOAD_SCHEDULER: End scheduler "s031" with entities [EventEntity, EventEntity], work=740*
318: 0x09AE [0x45] LOAD_SCHEDULED_TASK: Load scheduler "s032" with entities [EventEntity, EventEntity], work=[740*, 0*]
319: 0x09BF [0x79] Hildebert (ID: 17830035/0x01101093) looks at Svenja (ID: 17830036/0x01101094) (Basic look)
320: 0x09C9 [0x79] Margret (ID: 17830039/0x01101097) looks at Hildebert (ID: 17830035/0x01101093) (Basic look)
321: 0x09D3 [0x2B] Lhe Lhangavo (ID: 17830040/0x01101098) [9353*]:
     "What sort of rrridiculousness are you hinting at?"
322: 0x09DA [0x23] WAIT_FOR_DIALOG_INTERACTION
323: 0x09DB [0x52] END_LOAD_SCHEDULER: End scheduler "s032" with entities [EventEntity, EventEntity], work=740*
324: 0x09EA [0x45] LOAD_SCHEDULED_TASK: Load scheduler "s033" with entities [EventEntity, EventEntity], work=[740*, 0*]
325: 0x09FB [0x79] Margret (ID: 17830039/0x01101097) looks at Ikhi Askamot (ID: 17830037/0x01101095) (Basic look)
326: 0x0A05 [0x79] Gratzigg (ID: 17830041/0x01101099) looks at Ikhi Askamot (ID: 17830037/0x01101095) (Basic look)
327: 0x0A0F [0x1C] WAIT(15* ticks)
328: 0x0A12 [0x4A] Hildebert (ID: 17830035/0x01101093) looks at Ikhi Askamot (ID: 17830037/0x01101095)
329: 0x0A1B [0x4A] Chero-Machero (ID: 17830038/0x01101096) looks at Ikhi Askamot (ID: 17830037/0x01101095)
330: 0x0A24 [0x2B] Arciela (ID: 17830032/0x01101090) [9354*]:
     "Care to elaborate for us, Ikhi?"
331: 0x0A2B [0x23] WAIT_FOR_DIALOG_INTERACTION
332: 0x0A2C [0x5B] LOAD_EXT_SCHEDULER: Load scheduler "fj00" with entities [Arciela (ID: 17830032/0x01101090), Arciela (ID: 17830032/0x01101090)], work=3216*
333: 0x0A3B [0x52] END_LOAD_SCHEDULER: End scheduler "s033" with entities [EventEntity, EventEntity], work=740*
334: 0x0A4A [0x45] LOAD_SCHEDULED_TASK: Load scheduler "s035" with entities [EventEntity, EventEntity], work=[740*, 0*]
335: 0x0A5B [0x5B] LOAD_EXT_SCHEDULER: Load scheduler "yes0" with entities [Ikhi Askamot (ID: 17830037/0x01101095), Ikhi Askamot (ID: 17830037/0x01101095)], work=3338*
336: 0x0A6A [0x2B] Ikhi Askamot (ID: 17830037/0x01101095) [9355*]:
     "The waterways were attacked by a living person. Why? To rrreplace the geomancy within them."
337: 0x0A71 [0x23] WAIT_FOR_DIALOG_INTERACTION
338: 0x0A72 [0x2B] Ikhi Askamot (ID: 17830037/0x01101095) [9356*]:
     "The divine magic that once safeguarrrded the area has been supplanted by evil sorcery."
339: 0x0A79 [0x23] WAIT_FOR_DIALOG_INTERACTION
340: 0x0A7A [0x4A] Svenja (ID: 17830036/0x01101094) looks at Chero-Machero (ID: 17830038/0x01101096)
341: 0x0A83 [0x79] Gratzigg (ID: 17830041/0x01101099) looks at Hildebert (ID: 17830035/0x01101093) (Basic look)
342: 0x0A8D [0x52] END_LOAD_SCHEDULER: End scheduler "s035" with entities [EventEntity, EventEntity], work=740*
343: 0x0A9C [0x45] LOAD_SCHEDULED_TASK: Load scheduler "s036" with entities [EventEntity, EventEntity], work=[740*, 0*]
344: 0x0AAD [0x66] LOAD_EXT_SCHEDULER_MAIN: Load scheduler "tlk0" with entities [Hildebert (ID: 17830035/0x01101093), Hildebert (ID: 17830035/0x01101093)], work=29*
345: 0x0ABC [0x2B] Hildebert (ID: 17830035/0x01101093) [9357*]:
     "You mean to say that someone annulled the only entity keeping us from certain death!?"
346: 0x0AC3 [0x23] WAIT_FOR_DIALOG_INTERACTION
347: 0x0AC4 [0x66] LOAD_EXT_SCHEDULER_MAIN: Load scheduler "tlk1" with entities [Hildebert (ID: 17830035/0x01101093), Hildebert (ID: 17830035/0x01101093)], work=29*
348: 0x0AD3 [0x79] Svenja (ID: 17830036/0x01101094) looks at Hildebert (ID: 17830035/0x01101093) (Basic look)
349: 0x0ADD [0x79] Lhe Lhangavo (ID: 17830040/0x01101098) looks at Hildebert (ID: 17830035/0x01101093) (Basic look)
350: 0x0AE7 [0x52] END_LOAD_SCHEDULER: End scheduler "s036" with entities [EventEntity, EventEntity], work=740*
351: 0x0AF6 [0x45] LOAD_SCHEDULED_TASK: Load scheduler "s037" with entities [EventEntity, EventEntity], work=[740*, 0*]
352: 0x0B07 [0x5B] LOAD_EXT_SCHEDULER: Load scheduler "tlk0" with entities [Svenja (ID: 17830036/0x01101094), Svenja (ID: 17830036/0x01101094)], work=3261*
353: 0x0B16 [0x2B] Svenja (ID: 17830036/0x01101094) [9358*]:
     "There is no need for theatrics, Hildebert. Please, just calm down."
354: 0x0B1D [0x23] WAIT_FOR_DIALOG_INTERACTION
355: 0x0B1E [0x5B] LOAD_EXT_SCHEDULER: Load scheduler "tlk1" with entities [Svenja (ID: 17830036/0x01101094), Svenja (ID: 17830036/0x01101094)], work=3261*
356: 0x0B2D [0x79] Hildebert (ID: 17830035/0x01101093) looks at Svenja (ID: 17830036/0x01101094) (Basic look)
357: 0x0B37 [0x6E] Hildebert (ID: 17830035/0x01101093) uses emote 25*
358: 0x0B3E [0x99] Wait for Hildebert (ID: 17830035/0x01101093) animation to complete
359: 0x0B43 [0x2B] Hildebert (ID: 17830035/0x01101093) [9359*]:
     "Theatrics!?"
360: 0x0B4A [0x1C] WAIT(120* ticks)
361: 0x0B4D [0x23] WAIT_FOR_DIALOG_INTERACTION
362: 0x0B4E [0x66] LOAD_EXT_SCHEDULER_MAIN: Load scheduler "thk1" with entities [Margret (ID: 17830039/0x01101097), Margret (ID: 17830039/0x01101097)], work=19*
363: 0x0B5D [0x52] END_LOAD_SCHEDULER: End scheduler "s037" with entities [EventEntity, EventEntity], work=740*
364: 0x0B6C [0x45] LOAD_SCHEDULED_TASK: Load scheduler "s040" with entities [EventEntity, EventEntity], work=[740*, 0*]
365: 0x0B7D [0x66] LOAD_EXT_SCHEDULER_MAIN: Load scheduler "tlk0" with entities [Hildebert (ID: 17830035/0x01101093), Hildebert (ID: 17830035/0x01101093)], work=29*
366: 0x0B8C [0x2B] Hildebert (ID: 17830035/0x01101093) [9360*]:
     "The last bulwark against the overpowering thaumaturgical forces slobbering at our gates just fell and you accuse me of "theatrics"!?"
367: 0x0B93 [0x23] WAIT_FOR_DIALOG_INTERACTION
368: 0x0B94 [0x2B] Hildebert (ID: 17830035/0x01101093) [9361*]:
     "Ikhi says the Ergisade has been supplanted by another form of magic, meaning that it has vanished completely!"
369: 0x0B9B [0x23] WAIT_FOR_DIALOG_INTERACTION
370: 0x0B9C [0x1A] CALL_SUBROUTINE(address=0x55AD)
371: 0x0B9F [0x1C] WAIT(30* ticks)
372: 0x0BA2 [0x52] END_LOAD_SCHEDULER: End scheduler "s040" with entities [EventEntity, EventEntity], work=740*
373: 0x0BB1 [0x6B] STOP_AND_IDLE: Hildebert (ID: 17830035/0x01101093) stops current action and resets to idle (animation="idl0")
374: 0x0BBA [0x6B] STOP_AND_IDLE: Margret (ID: 17830039/0x01101097) stops current action and resets to idle (animation="idl0")
375: 0x0BC3 [0x4A] Hildebert (ID: 17830035/0x01101093) looks at Arciela (ID: 17830032/0x01101090)
376: 0x0BCC [0x4A] Chero-Machero (ID: 17830038/0x01101096) looks at Hildebert (ID: 17830035/0x01101093)
377: 0x0BD5 [0x79] Svenja (ID: 17830036/0x01101094) looks at Chero-Machero (ID: 17830038/0x01101096) (Basic look)
378: 0x0BDF [0x4A] Arciela (ID: 17830032/0x01101090) looks at Hildebert (ID: 17830035/0x01101093)
379: 0x0BE8 [0x4A] LocalPlayer looks at Chero-Machero (ID: 17830038/0x01101096)
380: 0x0BF1 [0x4A] Ikhi Askamot (ID: 17830037/0x01101095) looks at Chero-Machero (ID: 17830038/0x01101096)
381: 0x0BFA [0x79] Lhe Lhangavo (ID: 17830040/0x01101098) looks at Chero-Machero (ID: 17830038/0x01101096) (Basic look)
382: 0x0C04 [0x79] Margret (ID: 17830039/0x01101097) looks at Chero-Machero (ID: 17830038/0x01101096) (Basic look)
383: 0x0C0E [0x1A] CALL_SUBROUTINE(address=0x5754)
384: 0x0C11 [0x89] OPEN_MAP(map_id=0x00008071)
385: 0x0C14 [0x1C] WAIT(60* ticks)
386: 0x0C17 [0xB4] UI_WINDOW_STRING_HANDLER(case=0x14 - Update map window values, work_offset1=4294965066*, work_offset2=51860*, work_offset3=1130*, work_offset4=0*, work_offset5=1*)
387: 0x0C23 [0x1C] WAIT(60* ticks)
388: 0x0C26 [0xB4] UI_WINDOW_STRING_HANDLER(case=0x14 - Update map window values, work_offset1=4294965066*, work_offset2=4294942976*, work_offset3=1130*, work_offset4=300*, work_offset5=1*)
389: 0x0C32 [0x03] Work_Zone[2] = 180*
390: 0x0C37 [0x27] REQ_SET(priority=0x10, entity_id=??? (ID: 17830002/0x01101072), tag_num=0x01)
391: 0x0C3E [0x1A] CALL_SUBROUTINE(address=0x5742)
392: 0x0C41 [0x1C] WAIT(60* ticks)
393: 0x0C44 [0x2B] Hildebert (ID: 17830035/0x01101093) [9362*]:
     "For all intents and purposes, we have reverted to the age of the Great Expedition!"
394: 0x0C4B [0x23] WAIT_FOR_DIALOG_INTERACTION
395: 0x0C4C [0x2B] Hildebert (ID: 17830035/0x01101093) [9363*]:
     "The curse of the founder king shall descend upon Adoulin once more..."
396: 0x0C53 [0x23] WAIT_FOR_DIALOG_INTERACTION
397: 0x0C54 [0x2A] GET_REQ_LEVEL(level=16, entity_id=??? (ID: 17830002/0x01101072))
398: 0x0C5A [0x1A] CALL_SUBROUTINE(address=0x5754)
399: 0x0C5D [0x8A] CLOSE_MAP()
400: 0x0C5E [0xB4] UI_WINDOW_STRING_HANDLER(case=0x15 - Test map window validity)
401: 0x0C60 [0x1A] CALL_SUBROUTINE(address=0x5742)
402: 0x0C63 [0x5B] LOAD_EXT_SCHEDULER: Load scheduler "fj01" with entities [Arciela (ID: 17830032/0x01101090), Arciela (ID: 17830032/0x01101090)], work=3216*
403: 0x0C72 [0x45] LOAD_SCHEDULED_TASK: Load scheduler "s041" with entities [EventEntity, EventEntity], work=[740*, 0*]
404: 0x0C83 [0x1C] WAIT(15* ticks)
405: 0x0C86 [0x1A] CALL_SUBROUTINE(address=0x558C)
406: 0x0C89 [0x6E] Hildebert (ID: 17830035/0x01101093) uses emote 6*
407: 0x0C90 [0x99] Wait for Hildebert (ID: 17830035/0x01101093) animation to complete
408: 0x0C95 [0x2B] Hildebert (ID: 17830035/0x01101093) [9364*]:
     "Our thriving society will be utterly ruined! If only we had not begun raping the land by trying to colonize it."
409: 0x0C9C [0x23] WAIT_FOR_DIALOG_INTERACTION
410: 0x0C9D [0x52] END_LOAD_SCHEDULER: End scheduler "s041" with entities [EventEntity, EventEntity], work=740*
411: 0x0CAC [0x45] LOAD_SCHEDULED_TASK: Load scheduler "s042" with entities [EventEntity, EventEntity], work=[740*, 0*]
412: 0x0CBD [0x66] LOAD_EXT_SCHEDULER_MAIN: Load scheduler "dis0" with entities [Chero-Machero (ID: 17830038/0x01101096), Chero-Machero (ID: 17830038/0x01101096)], work=40*
413: 0x0CCC [0x2B] Chero-Machero (ID: 17830038/0x01101096) [9365*]:
     "I scoff-woff in your general direction, Hildebert. If we had a pinch of bayld for every hole in your logic, we could build a new waterway out of solid gold!"
414: 0x0CD3 [0x1C] WAIT(15* ticks)
415: 0x0CD6 [0x79] Hildebert (ID: 17830035/0x01101093) looks at Chero-Machero (ID: 17830038/0x01101096) (Basic look)
416: 0x0CE0 [0x1C] WAIT(45* ticks)
417: 0x0CE3 [0x23] WAIT_FOR_DIALOG_INTERACTION
418: 0x0CE4 [0x66] LOAD_EXT_SCHEDULER_MAIN: Load scheduler "iro0" with entities [Chero-Machero (ID: 17830038/0x01101096), Chero-Machero (ID: 17830038/0x01101096)], work=40*
419: 0x0CF3 [0x2B] Chero-Machero (ID: 17830038/0x01101096) [9366*]:
     "Besides, who cares if some musty superstition's no longer sealed away? I know I'm not afraid of any evil spiritaru."
420: 0x0CFA [0x23] WAIT_FOR_DIALOG_INTERACTION
421: 0x0CFB [0x2B] Chero-Machero (ID: 17830038/0x01101096) [9367*]:
     "Even if I were, though, you could simply deploy your vastaru army of Weatherspoon exorcists and hocus-pocus it away!"
422: 0x0D02 [0x23] WAIT_FOR_DIALOG_INTERACTION
423: 0x0D03 [0x52] END_LOAD_SCHEDULER: End scheduler "s042" with entities [EventEntity, EventEntity], work=740*
424: 0x0D12 [0x45] LOAD_SCHEDULED_TASK: Load scheduler "s043" with entities [EventEntity, EventEntity], work=[740*, 0*]
425: 0x0D23 [0x6E] Chero-Machero (ID: 17830038/0x01101096) uses emote 10*
426: 0x0D2A [0x99] Wait for Chero-Machero (ID: 17830038/0x01101096) animation to complete
427: 0x0D2F [0x2B] Chero-Machero (ID: 17830038/0x01101096) [9368*]:
     "You could hold a grand-scale Wake of the Lilies and curry-wurry pioneer support as well!"
428: 0x0D36 [0x23] WAIT_FOR_DIALOG_INTERACTION
429: 0x0D37 [0x66] LOAD_EXT_SCHEDULER_MAIN: Load scheduler "syu0" with entities [Chero-Machero (ID: 17830038/0x01101096), Chero-Machero (ID: 17830038/0x01101096)], work=40*
430: 0x0D46 [0x2B] Chero-Machero (ID: 17830038/0x01101096) [9369*]:
     "Hey, how about chantaruing a ritualistic phrase like "The power of Altana compels you" to get people more involved?"
431: 0x0D4D [0x23] WAIT_FOR_DIALOG_INTERACTION
432: 0x0D4E [0x53] WAIT_SCHEDULER_TASK: Wait for scheduler "syu0" with entities [Chero-Machero (ID: 17830038/0x01101096), Chero-Machero (ID: 17830038/0x01101096)]
433: 0x0D5B [0x66] LOAD_EXT_SCHEDULER_MAIN: Load scheduler "wai0" with entities [Chero-Machero (ID: 17830038/0x01101096), Chero-Machero (ID: 17830038/0x01101096)], work=40*
434: 0x0D6A [0x2B] Chero-Machero (ID: 17830038/0x01101096) [9370*]:
     "Yes, and I'll have the Ministry of Commerce sponsor vendors. We'll all be swimming-wimming in bayld!"
435: 0x0D71 [0x1C] WAIT(120* ticks)
436: 0x0D74 [0x23] WAIT_FOR_DIALOG_INTERACTION
437: 0x0D75 [0x52] END_LOAD_SCHEDULER: End scheduler "s043" with entities [EventEntity, EventEntity], work=740*
438: 0x0D84 [0x45] LOAD_SCHEDULED_TASK: Load scheduler "s044" with entities [EventEntity, EventEntity], work=[740*, 0*]
439: 0x0D95 [0x6E] Hildebert (ID: 17830035/0x01101093) uses emote 25*
440: 0x0D9C [0x99] Wait for Hildebert (ID: 17830035/0x01101093) animation to complete
441: 0x0DA1 [0x79] Margret (ID: 17830039/0x01101097) looks at Hildebert (ID: 17830035/0x01101093) (Basic look)
442: 0x0DAB [0x2B] Hildebert (ID: 17830035/0x01101093) [9371*]:
