# 17830130 - Rigobertine

## Common Data

| Field            | Value                     |
|------------------|---------------------------|
| Zone             | Eastern Adoulin (ID: 257) |
| Block Size       | 25228 bytes               |
| Total Events     | 46                        |
| References Count | 370                       |

## List of Events

| Event ID                   | Entrypoint   |   Size |   Instructions |
|----------------------------|--------------|--------|----------------|
| [65535](#event-65535)      | 0x0000       |      1 |              1 |
| [65535.1](#event-655351)   | 0x0001       |     16 |              2 |
| [65535.2](#event-655352)   | 0x0011       |     14 |              2 |
| [65535.3](#event-655353)   | 0x001F       |     16 |              2 |
| [65535.4](#event-655354)   | 0x002F       |     14 |              2 |
| [65535.5](#event-655355)   | 0x003D       |     16 |              2 |
| [65535.6](#event-655356)   | 0x004D       |     14 |              2 |
| [65535.7](#event-655357)   | 0x005B       |     16 |              2 |
| [65535.8](#event-655358)   | 0x006B       |     14 |              2 |
| [65535.9](#event-655359)   | 0x0079       |     16 |              2 |
| [65535.10](#event-6553510) | 0x0089       |     14 |              2 |
| [65535.11](#event-6553511) | 0x0097       |     16 |              2 |
| [65535.12](#event-6553512) | 0x00A7       |     14 |              2 |
| [65535.13](#event-6553513) | 0x00B5       |     16 |              2 |
| [65535.14](#event-6553514) | 0x00C5       |     14 |              2 |
| [65535.15](#event-6553515) | 0x00D3       |     16 |              2 |
| [65535.16](#event-6553516) | 0x00E3       |     14 |              2 |
| [65535.17](#event-6553517) | 0x00F1       |      9 |              3 |
| [558](#event-558)          | 0x00FA       |     51 |             13 |
| [31](#event-31)            | 0x012D       |      7 |              2 |
| [32](#event-32)            | 0x0134       |      7 |              2 |
| [5054](#event-5054)        | 0x013B       |      7 |              2 |
| [5055](#event-5055)        | 0x0142       |      7 |              2 |
| [5057](#event-5057)        | 0x0149       |      1 |              1 |
| [5058](#event-5058)        | 0x014A       |      1 |              1 |
| [5061](#event-5061)        | 0x014B       |      1 |              1 |
| [46](#event-46)            | 0x014C       |     48 |             12 |
| [1521](#event-1521)        | 0x017C       |      1 |              1 |
| [65535.18](#event-6553518) | 0x017D       |     14 |              4 |
| [65535.19](#event-6553519) | 0x018B       |     14 |              4 |
| [1522](#event-1522)        | 0x0199       |     47 |             11 |
| [5122](#event-5122)        | 0x01C8       |      1 |              1 |
| [5209](#event-5209)        | 0x01C9       |      1 |              1 |
| [5211](#event-5211)        | 0x01CA       |      1 |              1 |
| [5229](#event-5229)        | 0x01CB       |      1 |              1 |
| [5062](#event-5062)        | 0x01CC       |   4413 |            514 |
| [89](#event-89)            | 0x1309       |   5370 |            685 |
| [90](#event-90)            | 0x2803       |   4002 |            546 |
| [91](#event-91)            | 0x37A5       |   2734 |            349 |
| [92](#event-92)            | 0x4253       |   6364 |            792 |
| [93](#event-93)            | 0x5B2F       |     43 |              9 |
| [65535.20](#event-6553520) | 0x5B5A       |     16 |              5 |
| [65535.21](#event-6553521) | 0x5B6A       |     14 |              4 |
| [94](#event-94)            | 0x5B78       |     56 |             14 |
| [95](#event-95)            | 0x5BB0       |     68 |             14 |
| [128](#event-128)          | 0x5BF4       |      7 |              2 |

## DAT References (imed_data)

|   Index | Hex Value   |   Dec Value |
|---------|-------------|-------------|
|       0 | 0x001E      |          30 |
|       1 | 0x2928      |       10536 |
|       2 | 0x2929      |       10537 |
|       3 | 0x292A      |       10538 |
|       4 | 0x1FB9      |        8121 |
|       5 | 0x1FBA      |        8122 |
|       6 | 0x000D      |          13 |
|       7 | 0x1096E     |       67950 |
|       8 | 0x246E      |        9326 |
|       9 | 0xFFFF632C  |  4294927148 |
|      10 | 0x109B6     |       68022 |
|      11 | 0x29CF      |       10703 |
|      12 | 0xFFFF632A  |  4294927146 |
|      13 | 0x21B0      |        8624 |
|      14 | 0x21AD      |        8621 |
|      15 | 0x0001      |           1 |
|      16 | 0x0000      |           0 |
|      17 | 0x0190      |         400 |
|      18 | 0x00C8      |         200 |
|      19 | 0x003C      |          60 |
|      20 | 0x0013      |          19 |
|      21 | 0x111CA     |       70090 |
|      22 | 0x249F      |        9375 |
|      23 | 0x084A      |        2122 |
|      24 | 0x10708     |       67336 |
|      25 | 0x0EE8      |        3816 |
|      26 | 0x0C34      |        3124 |
|      27 | 0x009D      |         157 |
|      28 | 0x007F      |         127 |
|      29 | 0x0005      |           5 |
|      30 | 0x029D      |         669 |
|      31 | 0x0006      |           6 |
|      32 | 0x0021      |          33 |
|      33 | 0x0023      |          35 |
|      34 | 0x005A      |          90 |
|      35 | 0x34DA      |       13530 |
|      36 | 0x34DB      |       13531 |
|      37 | 0x0014      |          20 |
|      38 | 0x0CDB      |        3291 |
|      39 | 0x34DC      |       13532 |
|      40 | 0x34DD      |       13533 |
|      41 | 0x34DE      |       13534 |
|      42 | 0x34DF      |       13535 |
|      43 | 0x34E0      |       13536 |
|      44 | 0x0003      |           3 |
|      45 | 0x0004      |           4 |
|      46 | 0x0008      |           8 |
|      47 | 0x34E1      |       13537 |
|      48 | 0x34E2      |       13538 |
|      49 | 0x34E3      |       13539 |
|      50 | 0x34E4      |       13540 |
|      51 | 0x34E5      |       13541 |
|      52 | 0x34E6      |       13542 |
|      53 | 0x34E7      |       13543 |
|      54 | 0x34EA      |       13546 |
|      55 | 0x34EB      |       13547 |
|      56 | 0x34EC      |       13548 |
|      57 | 0x34ED      |       13549 |
|      58 | 0x34EE      |       13550 |
|      59 | 0x34EF      |       13551 |
|      60 | 0x000F      |          15 |
|      61 | 0x34F0      |       13552 |
|      62 | 0x00AE      |         174 |
|      63 | 0x0078      |         120 |
|      64 | 0x0064      |         100 |
|      65 | 0x00C9      |         201 |
|      66 | 0x11016     |       69654 |
|      67 | 0x17D3      |        6099 |
|      68 | 0x0C6D      |        3181 |
|      69 | 0x003F      |          63 |
|      70 | 0x00B1      |         177 |
|      71 | 0x0015      |          21 |
|      72 | 0x0096      |         150 |
|      73 | 0x34F2      |       13554 |
|      74 | 0x34F3      |       13555 |
|      75 | 0x0CDC      |        3292 |
|      76 | 0x34F4      |       13556 |
|      77 | 0x34F5      |       13557 |
|      78 | 0x34F6      |       13558 |
|      79 | 0x0CDD      |        3293 |
|      80 | 0x34F7      |       13559 |
|      81 | 0x0046      |          70 |
|      82 | 0x00B2      |         178 |
|      83 | 0x34F8      |       13560 |
|      84 | 0x34F1      |       13553 |
|      85 | 0x34F9      |       13561 |
|      86 | 0x34FA      |       13562 |
|      87 | 0x0007      |           7 |
|      88 | 0x0438      |        1080 |
|      89 | 0x34FB      |       13563 |
|      90 | 0x34FC      |       13564 |
|      91 | 0x34FD      |       13565 |
|      92 | 0x0002      |           2 |
|      93 | 0x34E8      |       13544 |
|      94 | 0x34E9      |       13545 |
|      95 | 0x10A12     |       68114 |
|      96 | 0x1D43      |        7491 |
|      97 | 0x0C0E      |        3086 |
|      98 | 0x02ED      |         749 |
|      99 | 0x34FE      |       13566 |
|     100 | 0xFFFFF8F8  |  4294965496 |
|     101 | 0x11102     |       69890 |
|     102 | 0x2670      |        9840 |
|     103 | 0x052C      |        1324 |
|     104 | 0x0400      |        1024 |
|     105 | 0x100F4     |       65780 |
|     106 | 0x25B2      |        9650 |
|     107 | 0x0320      |         800 |
|     108 | 0x10A4A     |       68170 |
|     109 | 0x11F3      |        4595 |
|     110 | 0x0BE5      |        3045 |
|     111 | 0x009F      |         159 |
|     112 | 0x34FF      |       13567 |
|     113 | 0x3500      |       13568 |
|     114 | 0x3501      |       13569 |
|     115 | 0x3502      |       13570 |
|     116 | 0x3503      |       13571 |
|     117 | 0x3504      |       13572 |
|     118 | 0x3505      |       13573 |
|     119 | 0x3506      |       13574 |
|     120 | 0x3507      |       13575 |
|     121 | 0x3508      |       13576 |
|     122 | 0x3509      |       13577 |
|     123 | 0x350A      |       13578 |
|     124 | 0x350B      |       13579 |
|     125 | 0x350C      |       13580 |
|     126 | 0x2061      |        8289 |
|     127 | 0x102F5     |       66293 |
|     128 | 0x1702      |        5890 |
|     129 | 0x0E32      |        3634 |
|     130 | 0x1095B     |       67931 |
|     131 | 0x1CA2      |        7330 |
|     132 | 0x350D      |       13581 |
|     133 | 0x350E      |       13582 |
|     134 | 0x350F      |       13583 |
|     135 | 0x3510      |       13584 |
|     136 | 0x3511      |       13585 |
|     137 | 0x3512      |       13586 |
|     138 | 0x3513      |       13587 |
|     139 | 0x3514      |       13588 |
|     140 | 0x3515      |       13589 |
|     141 | 0x3516      |       13590 |
|     142 | 0x3517      |       13591 |
|     143 | 0x3518      |       13592 |
|     144 | 0x0028      |          40 |
|     145 | 0x3519      |       13593 |
|     146 | 0x10A3A     |       68154 |
|     147 | 0x1AF9      |        6905 |
|     148 | 0x03DE      |         990 |
|     149 | 0x351A      |       13594 |
|     150 | 0x351B      |       13595 |
|     151 | 0x351C      |       13596 |
|     152 | 0x351D      |       13597 |
|     153 | 0x351E      |       13598 |
|     154 | 0x351F      |       13599 |
|     155 | 0x3520      |       13600 |
|     156 | 0x3521      |       13601 |
|     157 | 0x3522      |       13602 |
|     158 | 0x3523      |       13603 |
|     159 | 0x3524      |       13604 |
|     160 | 0x3525      |       13605 |
|     161 | 0x3526      |       13606 |
|     162 | 0x3527      |       13607 |
|     163 | 0x3528      |       13608 |
|     164 | 0x3529      |       13609 |
|     165 | 0x352A      |       13610 |
|     166 | 0x352B      |       13611 |
|     167 | 0xFFFEC67D  |  4294887037 |
|     168 | 0x7078      |       28792 |
|     169 | 0xFFFE7FE0  |  4294868960 |
|     170 | 0x3059      |       12377 |
|     171 | 0xFFFFFD77  |  4294966647 |
|     172 | 0x03BC      |         956 |
|     173 | 0xFFFE60F4  |  4294861044 |
|     174 | 0x21EA      |        8682 |
|     175 | 0xFFFE6DC1  |  4294864321 |
|     176 | 0x220E      |        8718 |
|     177 | 0xFFFFFD76  |  4294966646 |
|     178 | 0x07E1      |        2017 |
|     179 | 0xFFFE74BF  |  4294866111 |
|     180 | 0x1CE6      |        7398 |
|     181 | 0xFFFE7438  |  4294865976 |
|     182 | 0x29FB      |       10747 |
|     183 | 0xFFFE7C2F  |  4294868015 |
|     184 | 0x234B      |        9035 |
|     185 | 0xFFFE67E8  |  4294862824 |
|     186 | 0x2A29      |       10793 |
|     187 | 0x085A      |        2138 |
|     188 | 0xFFFE5F14  |  4294860564 |
|     189 | 0x28CF      |       10447 |
|     190 | 0x06A4      |        1700 |
|     191 | 0x02EF      |         751 |
|     192 | 0x352D      |       13613 |
|     193 | 0x352E      |       13614 |
|     194 | 0xFFFE99DF  |  4294875615 |
|     195 | 0x2D74      |       11636 |
|     196 | 0x0040      |          64 |
|     197 | 0x0032      |          50 |
|     198 | 0x352F      |       13615 |
|     199 | 0x000A      |          10 |
|     200 | 0x3530      |       13616 |
|     201 | 0x3531      |       13617 |
|     202 | 0x04B0      |        1200 |
|     203 | 0x3532      |       13618 |
|     204 | 0x3533      |       13619 |
|     205 | 0x0FE3      |        4067 |
|     206 | 0x3534      |       13620 |
|     207 | 0x043E      |        1086 |
|     208 | 0x3535      |       13621 |
|     209 | 0x0024      |          36 |
|     210 | 0x3536      |       13622 |
|     211 | 0x3537      |       13623 |
|     212 | 0x3538      |       13624 |
|     213 | 0x3539      |       13625 |
|     214 | 0x353A      |       13626 |
|     215 | 0x353B      |       13627 |
|     216 | 0x353C      |       13628 |
|     217 | 0x353D      |       13629 |
|     218 | 0xFFFEF6A4  |  4294899364 |
|     219 | 0xFFFFE268  |  4294959720 |
|     220 | 0xFFFFFF6C  |  4294967148 |
|     221 | 0x0D50      |        3408 |
|     222 | 0xFFFEFA7E  |  4294900350 |
|     223 | 0xFFFFEB5C  |  4294962012 |
|     224 | 0xFFFFFF6A  |  4294967146 |
|     225 | 0x0708      |        1800 |
|     226 | 0xFFFED71C  |  4294891292 |
|     227 | 0xFFFFEA4D  |  4294961741 |
|     228 | 0x085C      |        2140 |
|     229 | 0xFFFED23D  |  4294890045 |
|     230 | 0xFFFFF42F  |  4294964271 |
|     231 | 0x0359      |         857 |
|     232 | 0x00B4      |         180 |
|     233 | 0x353E      |       13630 |
|     234 | 0x353F      |       13631 |
|     235 | 0x3540      |       13632 |
|     236 | 0x3541      |       13633 |
|     237 | 0x3542      |       13634 |
|     238 | 0x3543      |       13635 |
|     239 | 0x3544      |       13636 |
|     240 | 0x3545      |       13637 |
|     241 | 0x3546      |       13638 |
|     242 | 0x3547      |       13639 |
|     243 | 0xFFFE7F55  |  4294868821 |
|     244 | 0x4D78      |       19832 |
|     245 | 0x03F6      |        1014 |
|     246 | 0xFFFE7E05  |  4294868485 |
|     247 | 0x46D2      |       18130 |
|     248 | 0x0C5F      |        3167 |
|     249 | 0x354A      |       13642 |
|     250 | 0x0044      |          68 |
|     251 | 0x024D      |         589 |
|     252 | 0xFFFE4AEE  |  4294855406 |
|     253 | 0x2DE6      |       11750 |
|     254 | 0x0BE7      |        3047 |
|     255 | 0x354B      |       13643 |
|     256 | 0x354C      |       13644 |
|     257 | 0x354D      |       13645 |
|     258 | 0x354E      |       13646 |
|     259 | 0x354F      |       13647 |
|     260 | 0x3550      |       13648 |
|     261 | 0x3551      |       13649 |
|     262 | 0x3552      |       13650 |
|     263 | 0x3553      |       13651 |
|     264 | 0x3554      |       13652 |
|     265 | 0x3555      |       13653 |
|     266 | 0x3556      |       13654 |
|     267 | 0x3557      |       13655 |
|     268 | 0x3558      |       13656 |
|     269 | 0x3559      |       13657 |
|     270 | 0x355A      |       13658 |
|     271 | 0x355B      |       13659 |
|     272 | 0x355C      |       13660 |
|     273 | 0xFFFE96F2  |  4294874866 |
|     274 | 0x2B46      |       11078 |
|     275 | 0x0016      |          22 |
|     276 | 0xFFFEA214  |  4294877716 |
|     277 | 0x29D5      |       10709 |
|     278 | 0x0FD8      |        4056 |
|     279 | 0x355D      |       13661 |
|     280 | 0x355E      |       13662 |
|     281 | 0x355F      |       13663 |
|     282 | 0x3560      |       13664 |
|     283 | 0x10905     |       67845 |
|     284 | 0x1FDB      |        8155 |
|     285 | 0x0BE2      |        3042 |
|     286 | 0x10B9D     |       68509 |
|     287 | 0xFFFFE9D6  |  4294961622 |
|     288 | 0xFFFF63C1  |  4294927297 |
|     289 | 0x0C43      |        3139 |
|     290 | 0x10891     |       67729 |
|     291 | 0xFFFF63C0  |  4294927296 |
|     292 | 0x0BBB      |        3003 |
|     293 | 0x10CF9     |       68857 |
|     294 | 0x2E85      |       11909 |
|     295 | 0xFFFF6137  |  4294926647 |
|     296 | 0x03D4      |         980 |
|     297 | 0xFF58      |       65368 |
|     298 | 0x2609      |        9737 |
|     299 | 0x03AF      |         943 |
|     300 | 0x10B3A     |       68410 |
|     301 | 0x2D9D      |       11677 |
|     302 | 0x0345      |         837 |
|     303 | 0x107B0     |       67504 |
|     304 | 0x2EF5      |       12021 |
|     305 | 0x00A3      |         163 |
|     306 | 0x02F1      |         753 |
|     307 | 0x0050      |          80 |
|     308 | 0x3561      |       13665 |
|     309 | 0x3562      |       13666 |
|     310 | 0x3563      |       13667 |
|     311 | 0x3564      |       13668 |
|     312 | 0x0ECC      |        3788 |
|     313 | 0x3565      |       13669 |
|     314 | 0x3566      |       13670 |
|     315 | 0x3567      |       13671 |
|     316 | 0x3568      |       13672 |
|     317 | 0x10CAC     |       68780 |
|     318 | 0x0874      |        2164 |
|     319 | 0x3569      |       13673 |
|     320 | 0x356A      |       13674 |
|     321 | 0x356B      |       13675 |
|     322 | 0x356C      |       13676 |
|     323 | 0x356D      |       13677 |
|     324 | 0x356E      |       13678 |
|     325 | 0x356F      |       13679 |
|     326 | 0x10514     |       66836 |
|     327 | 0x2861      |       10337 |
|     328 | 0x0423      |        1059 |
|     329 | 0x0FDF      |        4063 |
|     330 | 0x00A0      |         160 |
|     331 | 0x106D5     |       67285 |
|     332 | 0x155A      |        5466 |
|     333 | 0x03E8      |        1000 |
|     334 | 0x3570      |       13680 |
|     335 | 0x3571      |       13681 |
|     336 | 0x3572      |       13682 |
|     337 | 0x07F4      |        2036 |
|     338 | 0x3573      |       13683 |
|     339 | 0x3574      |       13684 |
|     340 | 0x3575      |       13685 |
|     341 | 0x3576      |       13686 |
|     342 | 0x3577      |       13687 |
|     343 | 0x3578      |       13688 |
|     344 | 0x3579      |       13689 |
|     345 | 0x357A      |       13690 |
|     346 | 0x357B      |       13691 |
|     347 | 0x357C      |       13692 |
|     348 | 0x357D      |       13693 |
|     349 | 0x357E      |       13694 |
|     350 | 0x357F      |       13695 |
|     351 | 0x04AB      |        1195 |
|     352 | 0x3580      |       13696 |
|     353 | 0x3581      |       13697 |
|     354 | 0x3582      |       13698 |
|     355 | 0x3583      |       13699 |
|     356 | 0x0020      |          32 |
|     357 | 0x3584      |       13700 |
|     358 | 0x00D7      |         215 |
|     359 | 0x352C      |       13612 |
|     360 | 0x10D6C     |       68972 |
|     361 | 0x2ECF      |       11983 |
|     362 | 0x102B1     |       66225 |
|     363 | 0x27A0      |       10144 |
|     364 | 0x3585      |       13701 |
|     365 | 0x3586      |       13702 |
|     366 | 0x3587      |       13703 |
|     367 | 0x0AFA      |        2810 |
|     368 | 0x3588      |       13704 |
|     369 | 0x3589      |       13705 |

## String References

- **8121**: The library now has pioneers doing its work for them? How unbecoming. Let me take a look at your documents.
- **8122**: Yes, this is Hildebert's manor, but Vortimere is the one currently residing here. Let me add this to your materials.
- **8289**: @@
- **8621**: The fountain's water is taken directly from the Rala Waterways underneath Adoulin proper, so it is both pure and clean.
- **8624**: The "holy water untainted by impurity" unquestionably refers to the water of Western Adoulin's fountain.
- **10536**: This extravagant edifice is one of the many assets held by our current minister of judication, Hildebert.
- **10537**: However, Hildebert is an assiduous individual whose services are constantly in demand by the general public. As he rarely has the opportunity to return to his abode, he graciously allows Vortimere to occupy it.
- **10538**: Should you ever need the counsel of either of these esteemed statesmen, this would be the place at which to seek it.
- **13533**: Can you use Trust magic? [Sure can./Uh...no?]
- **13543**: Journey with Ingrid? [How could I not?/Why on earth would I?]
- **13569**: Do you remember Hildebert? [Hildewho?/Oh, yeah, the old guy./Say nothing.]
- **13574**: Were you aware of this fact? [O-of course!/Nope.]
- **13603**: Choose your response carefully. [...I suppose not./...Oh, I wouldn't say that...]
- **13612**: Ingrid has stepped out for a brief meeting with Gratzigg at his manse. Perhaps it would behoove you to seek the two of them.
- **13701**: Though we were initially relieved that Madam Faustoise awoke, I hesitate to say that she has made a true recovery.
- **13702**: Marcellurin indicated that he would head to a large tree in the northwestern section of Yorcia Weald.
- **13703**: My heart skips a beat to imagine that... Perhaps I am overthinking the danger. But please--hurry.
- **13704**: Marcellurin mentioned that you may have need of $6.
- **13705**: They are quite valuable, but I know you will put this one to good use.

## Events

### Event 65535

#### Metadata

| Field        | Value   |
|--------------|---------|
| Entrypoint   | 0x0000  |
| Data Size    | 1 bytes |
| Instructions | 1       |

```
      00 01 02 03 04 05 06 07  08 09 0A 0B 0C 0D 0E 0F
      -- -- -- -- -- -- -- --  -- -- -- -- -- -- -- --
0000: 00                                                .               
```

#### Opcodes

```
  0: 0x0000 [0x00] END_REQSTACK()
```

### Event 65535.1

#### Metadata

| Field        | Value    |
|--------------|----------|
| Entrypoint   | 0x0001   |
| Data Size    | 16 bytes |
| Instructions | 2        |

```
      00 01 02 03 04 05 06 07  08 09 0A 0B 0C 0D 0E 0F
      -- -- -- -- -- -- -- --  -- -- -- -- -- -- -- --
0000:    66 00 80 F8 FF FF 7F  F8 FF FF 7F 74 6C 6B 30   f..........tlk0
0010: 00                                                .               
```

#### Opcodes

```
  0: 0x0001 [0x66] LOAD_EXT_SCHEDULER_MAIN: Load scheduler "tlk0" with entities [EventEntity, EventEntity], work=30*
  1: 0x0010 [0x00] END_REQSTACK()
```

### Event 65535.2

#### Metadata

| Field        | Value    |
|--------------|----------|
| Entrypoint   | 0x0011   |
| Data Size    | 14 bytes |
| Instructions | 2        |

```
      00 01 02 03 04 05 06 07  08 09 0A 0B 0C 0D 0E 0F
      -- -- -- -- -- -- -- --  -- -- -- -- -- -- -- --
0010:    53 F8 FF FF 7F F8 FF  FF 7F 74 6C 6B 30 00      S........tlk0. 
```

#### Opcodes

```
  0: 0x0011 [0x53] WAIT_SCHEDULER_TASK: Wait for scheduler "tlk0" with entities [EventEntity, EventEntity]
  1: 0x001E [0x00] END_REQSTACK()
```

### Event 65535.3

#### Metadata

| Field        | Value    |
|--------------|----------|
| Entrypoint   | 0x001F   |
| Data Size    | 16 bytes |
| Instructions | 2        |

```
      00 01 02 03 04 05 06 07  08 09 0A 0B 0C 0D 0E 0F
      -- -- -- -- -- -- -- --  -- -- -- -- -- -- -- --
0010:                                               66                 f
0020: 00 80 F8 FF FF 7F F8 FF  FF 7F 74 6C 6B 31 00     ..........tlk1. 
```

#### Opcodes

```
  0: 0x001F [0x66] LOAD_EXT_SCHEDULER_MAIN: Load scheduler "tlk1" with entities [EventEntity, EventEntity], work=30*
  1: 0x002E [0x00] END_REQSTACK()
```

### Event 65535.4

#### Metadata

| Field        | Value    |
|--------------|----------|
| Entrypoint   | 0x002F   |
| Data Size    | 14 bytes |
| Instructions | 2        |

```
      00 01 02 03 04 05 06 07  08 09 0A 0B 0C 0D 0E 0F
      -- -- -- -- -- -- -- --  -- -- -- -- -- -- -- --
0020:                                               53                 S
0030: F8 FF FF 7F F8 FF FF 7F  74 6C 6B 31 00           ........tlk1.   
```

#### Opcodes

```
  0: 0x002F [0x53] WAIT_SCHEDULER_TASK: Wait for scheduler "tlk1" with entities [EventEntity, EventEntity]
  1: 0x003C [0x00] END_REQSTACK()
```

### Event 65535.5

#### Metadata

| Field        | Value    |
|--------------|----------|
| Entrypoint   | 0x003D   |
| Data Size    | 16 bytes |
| Instructions | 2        |

```
      00 01 02 03 04 05 06 07  08 09 0A 0B 0C 0D 0E 0F
      -- -- -- -- -- -- -- --  -- -- -- -- -- -- -- --
0030:                                         66 00 80               f..
0040: F8 FF FF 7F F8 FF FF 7F  74 68 6B 31 00           ........thk1.   
```

#### Opcodes

```
  0: 0x003D [0x66] LOAD_EXT_SCHEDULER_MAIN: Load scheduler "thk1" with entities [EventEntity, EventEntity], work=30*
  1: 0x004C [0x00] END_REQSTACK()
```

### Event 65535.6

#### Metadata

| Field        | Value    |
|--------------|----------|
| Entrypoint   | 0x004D   |
| Data Size    | 14 bytes |
| Instructions | 2        |

```
      00 01 02 03 04 05 06 07  08 09 0A 0B 0C 0D 0E 0F
      -- -- -- -- -- -- -- --  -- -- -- -- -- -- -- --
0040:                                         53 F8 FF               S..
0050: FF 7F F8 FF FF 7F 74 68  6B 31 00                 ......thk1.     
```

#### Opcodes

```
  0: 0x004D [0x53] WAIT_SCHEDULER_TASK: Wait for scheduler "thk1" with entities [EventEntity, EventEntity]
  1: 0x005A [0x00] END_REQSTACK()
```

### Event 65535.7

#### Metadata

| Field        | Value    |
|--------------|----------|
| Entrypoint   | 0x005B   |
| Data Size    | 16 bytes |
| Instructions | 2        |

```
      00 01 02 03 04 05 06 07  08 09 0A 0B 0C 0D 0E 0F
      -- -- -- -- -- -- -- --  -- -- -- -- -- -- -- --
0050:                                   66 00 80 F8 FF             f....
0060: FF 7F F8 FF FF 7F 74 68  6B 32 00                 ......thk2.     
```

#### Opcodes

```
  0: 0x005B [0x66] LOAD_EXT_SCHEDULER_MAIN: Load scheduler "thk2" with entities [EventEntity, EventEntity], work=30*
  1: 0x006A [0x00] END_REQSTACK()
```

### Event 65535.8

#### Metadata

| Field        | Value    |
|--------------|----------|
| Entrypoint   | 0x006B   |
| Data Size    | 14 bytes |
| Instructions | 2        |

```
      00 01 02 03 04 05 06 07  08 09 0A 0B 0C 0D 0E 0F
      -- -- -- -- -- -- -- --  -- -- -- -- -- -- -- --
0060:                                   53 F8 FF FF 7F             S....
0070: F8 FF FF 7F 74 68 6B 32  00                       ....thk2.       
```

#### Opcodes

```
  0: 0x006B [0x53] WAIT_SCHEDULER_TASK: Wait for scheduler "thk2" with entities [EventEntity, EventEntity]
  1: 0x0078 [0x00] END_REQSTACK()
```

### Event 65535.9

#### Metadata

| Field        | Value    |
|--------------|----------|
| Entrypoint   | 0x0079   |
| Data Size    | 16 bytes |
| Instructions | 2        |

```
      00 01 02 03 04 05 06 07  08 09 0A 0B 0C 0D 0E 0F
      -- -- -- -- -- -- -- --  -- -- -- -- -- -- -- --
0070:                             66 00 80 F8 FF FF 7F           f......
0080: F8 FF FF 7F 64 69 73 30  00                       ....dis0.       
```

#### Opcodes

```
  0: 0x0079 [0x66] LOAD_EXT_SCHEDULER_MAIN: Load scheduler "dis0" with entities [EventEntity, EventEntity], work=30*
  1: 0x0088 [0x00] END_REQSTACK()
```

### Event 65535.10

#### Metadata

| Field        | Value    |
|--------------|----------|
| Entrypoint   | 0x0089   |
| Data Size    | 14 bytes |
| Instructions | 2        |

```
      00 01 02 03 04 05 06 07  08 09 0A 0B 0C 0D 0E 0F
      -- -- -- -- -- -- -- --  -- -- -- -- -- -- -- --
0080:                             53 F8 FF FF 7F F8 FF           S......
0090: FF 7F 64 69 73 30 00                              ..dis0.         
```

#### Opcodes

```
  0: 0x0089 [0x53] WAIT_SCHEDULER_TASK: Wait for scheduler "dis0" with entities [EventEntity, EventEntity]
  1: 0x0096 [0x00] END_REQSTACK()
```

### Event 65535.11

#### Metadata

| Field        | Value    |
|--------------|----------|
| Entrypoint   | 0x0097   |
| Data Size    | 16 bytes |
| Instructions | 2        |

```
      00 01 02 03 04 05 06 07  08 09 0A 0B 0C 0D 0E 0F
      -- -- -- -- -- -- -- --  -- -- -- -- -- -- -- --
0090:                      66  00 80 F8 FF FF 7F F8 FF         f........
00A0: FF 7F 70 6F 69 30 00                              ..poi0.         
```

#### Opcodes

```
  0: 0x0097 [0x66] LOAD_EXT_SCHEDULER_MAIN: Load scheduler "poi0" with entities [EventEntity, EventEntity], work=30*
  1: 0x00A6 [0x00] END_REQSTACK()
```

### Event 65535.12

#### Metadata

| Field        | Value    |
|--------------|----------|
| Entrypoint   | 0x00A7   |
| Data Size    | 14 bytes |
| Instructions | 2        |

```
      00 01 02 03 04 05 06 07  08 09 0A 0B 0C 0D 0E 0F
      -- -- -- -- -- -- -- --  -- -- -- -- -- -- -- --
00A0:                      53  F8 FF FF 7F F8 FF FF 7F         S........
00B0: 70 6F 69 30 00                                    poi0.           
```

#### Opcodes

```
  0: 0x00A7 [0x53] WAIT_SCHEDULER_TASK: Wait for scheduler "poi0" with entities [EventEntity, EventEntity]
  1: 0x00B4 [0x00] END_REQSTACK()
```

### Event 65535.13

#### Metadata

| Field        | Value    |
|--------------|----------|
| Entrypoint   | 0x00B5   |
| Data Size    | 16 bytes |
| Instructions | 2        |

```
      00 01 02 03 04 05 06 07  08 09 0A 0B 0C 0D 0E 0F
      -- -- -- -- -- -- -- --  -- -- -- -- -- -- -- --
00B0:                66 00 80  F8 FF FF 7F F8 FF FF 7F       f..........
00C0: 70 6F 69 31 00                                    poi1.           
```

#### Opcodes

```
  0: 0x00B5 [0x66] LOAD_EXT_SCHEDULER_MAIN: Load scheduler "poi1" with entities [EventEntity, EventEntity], work=30*
  1: 0x00C4 [0x00] END_REQSTACK()
```

### Event 65535.14

#### Metadata

| Field        | Value    |
|--------------|----------|
| Entrypoint   | 0x00C5   |
| Data Size    | 14 bytes |
| Instructions | 2        |

```
      00 01 02 03 04 05 06 07  08 09 0A 0B 0C 0D 0E 0F
      -- -- -- -- -- -- -- --  -- -- -- -- -- -- -- --
00C0:                53 F8 FF  FF 7F F8 FF FF 7F 70 6F       S........po
00D0: 69 31 00                                          i1.             
```

#### Opcodes

```
  0: 0x00C5 [0x53] WAIT_SCHEDULER_TASK: Wait for scheduler "poi1" with entities [EventEntity, EventEntity]
  1: 0x00D2 [0x00] END_REQSTACK()
```

### Event 65535.15

#### Metadata

| Field        | Value    |
|--------------|----------|
| Entrypoint   | 0x00D3   |
| Data Size    | 16 bytes |
| Instructions | 2        |

```
      00 01 02 03 04 05 06 07  08 09 0A 0B 0C 0D 0E 0F
      -- -- -- -- -- -- -- --  -- -- -- -- -- -- -- --
00D0:          66 00 80 F8 FF  FF 7F F8 FF FF 7F 70 61     f..........pa
00E0: 73 30 00                                          s0.             
```

#### Opcodes

```
  0: 0x00D3 [0x66] LOAD_EXT_SCHEDULER_MAIN: Load scheduler "pas0" with entities [EventEntity, EventEntity], work=30*
  1: 0x00E2 [0x00] END_REQSTACK()
```

### Event 65535.16

#### Metadata

| Field        | Value    |
|--------------|----------|
| Entrypoint   | 0x00E3   |
| Data Size    | 14 bytes |
| Instructions | 2        |

```
      00 01 02 03 04 05 06 07  08 09 0A 0B 0C 0D 0E 0F
      -- -- -- -- -- -- -- --  -- -- -- -- -- -- -- --
00E0:          53 F8 FF FF 7F  F8 FF FF 7F 70 61 73 30     S........pas0
00F0: 00                                                .               
```

#### Opcodes

```
  0: 0x00E3 [0x53] WAIT_SCHEDULER_TASK: Wait for scheduler "pas0" with entities [EventEntity, EventEntity]
  1: 0x00F0 [0x00] END_REQSTACK()
```

### Event 65535.17

#### Metadata

| Field        | Value   |
|--------------|---------|
| Entrypoint   | 0x00F1  |
| Data Size    | 9 bytes |
| Instructions | 3       |

```
      00 01 02 03 04 05 06 07  08 09 0A 0B 0C 0D 0E 0F
      -- -- -- -- -- -- -- --  -- -- -- -- -- -- -- --
00F0:    5E 69 64 6C 30 1C 00  80 00                     ^idl0....      
```

#### Opcodes

```
  0: 0x00F1 [0x5E] EventEntity goes idle (kills current action) (animation: "idl0")
  1: 0x00F6 [0x1C] WAIT(30* ticks)
  2: 0x00F9 [0x00] END_REQSTACK()
```

### Event 558

#### Metadata

| Field        | Value    |
|--------------|----------|
| Entrypoint   | 0x00FA   |
| Data Size    | 51 bytes |
| Instructions | 13       |

```
      00 01 02 03 04 05 06 07  08 09 0A 0B 0C 0D 0E 0F
      -- -- -- -- -- -- -- --  -- -- -- -- -- -- -- --
00F0:                                1E F0 FF FF 7F 6F            .....o
0100: 70 66 00 80 F8 FF FF 7F  F8 FF FF 7F 74 6C 6B 30  pf..........tlk0
0110: 1D 01 80 23 1D 02 80 23  1D 03 80 23 66 00 80 F8  ...#...#...#f...
0120: FF FF 7F F8 FF FF 7F 74  6C 6B 31 21 00           .......tlk1!.   
```

#### Opcodes

```
  0: 0x00FA [0x1E] EventEntity looks at LocalPlayer and starts talking
  1: 0x00FF [0x6F] WAIT_FRAME_DELAY: Yield until WaitTime reaches zero
  2: 0x0100 [0x70] WAIT_ENTITY_RENDER_FLAG: Wait while EventEntity->Render.Flags3 bit 2 is set (cancel turn if not)
  3: 0x0101 [0x66] LOAD_EXT_SCHEDULER_MAIN: Load scheduler "tlk0" with entities [EventEntity, EventEntity], work=30*
  4: 0x0110 [0x1D] PRINT_EVENT_MESSAGE(message_id=10536*)
    → "This extravagant edifice is one of the many assets held by our current minister of judication, Hildebert."
  5: 0x0113 [0x23] WAIT_FOR_DIALOG_INTERACTION
  6: 0x0114 [0x1D] PRINT_EVENT_MESSAGE(message_id=10537*)
    → "However, Hildebert is an assiduous individual whose services are constantly in demand by the general public. As he rarely has the opportunity to return to his abode, he graciously allows Vortimere to occupy it."
  7: 0x0117 [0x23] WAIT_FOR_DIALOG_INTERACTION
  8: 0x0118 [0x1D] PRINT_EVENT_MESSAGE(message_id=10538*)
    → "Should you ever need the counsel of either of these esteemed statesmen, this would be the place at which to seek it."
  9: 0x011B [0x23] WAIT_FOR_DIALOG_INTERACTION
 10: 0x011C [0x66] LOAD_EXT_SCHEDULER_MAIN: Load scheduler "tlk1" with entities [EventEntity, EventEntity], work=30*
 11: 0x012B [0x21] END_EVENT
 12: 0x012C [0x00] END_REQSTACK()
```

### Event 31

#### Metadata

| Field        | Value   |
|--------------|---------|
| Entrypoint   | 0x012D  |
| Data Size    | 7 bytes |
| Instructions | 2       |

```
      00 01 02 03 04 05 06 07  08 09 0A 0B 0C 0D 0E 0F
      -- -- -- -- -- -- -- --  -- -- -- -- -- -- -- --
0120:                                         92 01 F8               ...
0130: FF FF 7F 00                                       ....            
```

#### Opcodes

```
  0: 0x012D [0x92] EventEntity->Render.Flags3 ^= 0x01
  1: 0x0133 [0x00] END_REQSTACK()
```

### Event 32

#### Metadata

| Field        | Value   |
|--------------|---------|
| Entrypoint   | 0x0134  |
| Data Size    | 7 bytes |
| Instructions | 2       |

```
      00 01 02 03 04 05 06 07  08 09 0A 0B 0C 0D 0E 0F
      -- -- -- -- -- -- -- --  -- -- -- -- -- -- -- --
0130:             92 01 F8 FF  FF 7F 00                     .......     
```

#### Opcodes

```
  0: 0x0134 [0x92] EventEntity->Render.Flags3 ^= 0x01
  1: 0x013A [0x00] END_REQSTACK()
```

### Event 5054

#### Metadata

| Field        | Value   |
|--------------|---------|
| Entrypoint   | 0x013B  |
| Data Size    | 7 bytes |
| Instructions | 2       |

```
      00 01 02 03 04 05 06 07  08 09 0A 0B 0C 0D 0E 0F
      -- -- -- -- -- -- -- --  -- -- -- -- -- -- -- --
0130:                                   92 01 F8 FF FF             .....
0140: 7F 00                                             ..              
```

#### Opcodes

```
  0: 0x013B [0x92] EventEntity->Render.Flags3 ^= 0x01
  1: 0x0141 [0x00] END_REQSTACK()
```

### Event 5055

#### Metadata

| Field        | Value   |
|--------------|---------|
| Entrypoint   | 0x0142  |
| Data Size    | 7 bytes |
| Instructions | 2       |

```
      00 01 02 03 04 05 06 07  08 09 0A 0B 0C 0D 0E 0F
      -- -- -- -- -- -- -- --  -- -- -- -- -- -- -- --
0140:       92 01 F8 FF FF 7F  00                         .......       
```

#### Opcodes

```
  0: 0x0142 [0x92] EventEntity->Render.Flags3 ^= 0x01
  1: 0x0148 [0x00] END_REQSTACK()
```

### Event 5057

#### Metadata

| Field        | Value   |
|--------------|---------|
| Entrypoint   | 0x0149  |
| Data Size    | 1 bytes |
| Instructions | 1       |

```
      00 01 02 03 04 05 06 07  08 09 0A 0B 0C 0D 0E 0F
      -- -- -- -- -- -- -- --  -- -- -- -- -- -- -- --
0140:                             00                             .      
```

#### Opcodes

```
  0: 0x0149 [0x00] END_REQSTACK()
```

### Event 5058

#### Metadata

| Field        | Value   |
|--------------|---------|
| Entrypoint   | 0x014A  |
| Data Size    | 1 bytes |
| Instructions | 1       |

```
      00 01 02 03 04 05 06 07  08 09 0A 0B 0C 0D 0E 0F
      -- -- -- -- -- -- -- --  -- -- -- -- -- -- -- --
0140:                                00                           .     
```

#### Opcodes

```
  0: 0x014A [0x00] END_REQSTACK()
```

### Event 5061

#### Metadata

| Field        | Value   |
|--------------|---------|
| Entrypoint   | 0x014B  |
| Data Size    | 1 bytes |
| Instructions | 1       |

```
      00 01 02 03 04 05 06 07  08 09 0A 0B 0C 0D 0E 0F
      -- -- -- -- -- -- -- --  -- -- -- -- -- -- -- --
0140:                                   00                         .    
```

#### Opcodes

```
  0: 0x014B [0x00] END_REQSTACK()
```

### Event 46

#### Metadata

| Field        | Value    |
|--------------|----------|
| Entrypoint   | 0x014C   |
| Data Size    | 48 bytes |
| Instructions | 12       |

```
      00 01 02 03 04 05 06 07  08 09 0A 0B 0C 0D 0E 0F
      -- -- -- -- -- -- -- --  -- -- -- -- -- -- -- --
0140:                                      42 1E F0 FF              B...
0150: FF 7F 6F 70 66 00 80 F8  FF FF 7F F8 FF FF 7F 74  ..opf..........t
0160: 6C 6B 30 1D 04 80 23 1D  05 80 23 66 00 80 F8 FF  lk0...#...#f....
0170: FF 7F F8 FF FF 7F 74 6C  6B 31 21 00              ......tlk1!.    
```

#### Opcodes

```
  0: 0x014C [0x42] SET_CLI_EVENT_CANCEL_DATA()
  1: 0x014D [0x1E] EventEntity looks at LocalPlayer and starts talking
  2: 0x0152 [0x6F] WAIT_FRAME_DELAY: Yield until WaitTime reaches zero
  3: 0x0153 [0x70] WAIT_ENTITY_RENDER_FLAG: Wait while EventEntity->Render.Flags3 bit 2 is set (cancel turn if not)
  4: 0x0154 [0x66] LOAD_EXT_SCHEDULER_MAIN: Load scheduler "tlk0" with entities [EventEntity, EventEntity], work=30*
  5: 0x0163 [0x1D] PRINT_EVENT_MESSAGE(message_id=8121*)
    → "The library now has pioneers doing its work for them? How unbecoming. Let me take a look at your documents."
  6: 0x0166 [0x23] WAIT_FOR_DIALOG_INTERACTION
  7: 0x0167 [0x1D] PRINT_EVENT_MESSAGE(message_id=8122*)
    → "Yes, this is Hildebert's manor, but Vortimere is the one currently residing here. Let me add this to your materials."
  8: 0x016A [0x23] WAIT_FOR_DIALOG_INTERACTION
  9: 0x016B [0x66] LOAD_EXT_SCHEDULER_MAIN: Load scheduler "tlk1" with entities [EventEntity, EventEntity], work=30*
 10: 0x017A [0x21] END_EVENT
 11: 0x017B [0x00] END_REQSTACK()
```

### Event 1521

#### Metadata

| Field        | Value   |
|--------------|---------|
| Entrypoint   | 0x017C  |
| Data Size    | 1 bytes |
| Instructions | 1       |

```
      00 01 02 03 04 05 06 07  08 09 0A 0B 0C 0D 0E 0F
      -- -- -- -- -- -- -- --  -- -- -- -- -- -- -- --
0170:                                      00                       .   
```

#### Opcodes

```
  0: 0x017C [0x00] END_REQSTACK()
```

### Event 65535.18

#### Metadata

| Field        | Value    |
|--------------|----------|
| Entrypoint   | 0x017D   |
| Data Size    | 14 bytes |
| Instructions | 4        |

```
      00 01 02 03 04 05 06 07  08 09 0A 0B 0C 0D 0E 0F
      -- -- -- -- -- -- -- --  -- -- -- -- -- -- -- --
0170:                                         32 06 80               2..
0180: 1F 00 07 80 08 80 09 80  1F 01 00                 ...........     
```

#### Opcodes

```
  0: 0x017D [0x32] ExtData[1]->MainSpeed = 13* * 0.1
  1: 0x0180 [0x1F] MOVE_ENTITY: EventEntity moves to X=67.950*, Z=9.326*, Y=-40.148*
  2: 0x0188 [0x1F] MOVE_ENTITY: Update entity position (mode=1)
  3: 0x018A [0x00] END_REQSTACK()
```

### Event 65535.19

#### Metadata

| Field        | Value    |
|--------------|----------|
| Entrypoint   | 0x018B   |
| Data Size    | 14 bytes |
| Instructions | 4        |

```
      00 01 02 03 04 05 06 07  08 09 0A 0B 0C 0D 0E 0F
      -- -- -- -- -- -- -- --  -- -- -- -- -- -- -- --
0180:                                   32 06 80 1F 00             2....
0190: 0A 80 0B 80 0C 80 1F 01  00                       .........       
```

#### Opcodes

```
  0: 0x018B [0x32] ExtData[1]->MainSpeed = 13* * 0.1
  1: 0x018E [0x1F] MOVE_ENTITY: EventEntity moves to X=68.022*, Z=10.703*, Y=-40.150*
  2: 0x0196 [0x1F] MOVE_ENTITY: Update entity position (mode=1)
  3: 0x0198 [0x00] END_REQSTACK()
```

### Event 1522

#### Metadata

| Field        | Value    |
|--------------|----------|
| Entrypoint   | 0x0199   |
| Data Size    | 47 bytes |
| Instructions | 11       |

```
      00 01 02 03 04 05 06 07  08 09 0A 0B 0C 0D 0E 0F
      -- -- -- -- -- -- -- --  -- -- -- -- -- -- -- --
0190:                             1E F0 FF FF 7F 6F 70           .....op
01A0: 66 00 80 F8 FF FF 7F F8  FF FF 7F 74 6C 6B 30 1D  f..........tlk0.
01B0: 0D 80 23 1D 0E 80 23 66  00 80 F8 FF FF 7F F8 FF  ..#...#f........
01C0: FF 7F 74 6C 6B 31 21 00                           ..tlk1!.        
```

#### Opcodes

```
  0: 0x0199 [0x1E] EventEntity looks at LocalPlayer and starts talking
  1: 0x019E [0x6F] WAIT_FRAME_DELAY: Yield until WaitTime reaches zero
  2: 0x019F [0x70] WAIT_ENTITY_RENDER_FLAG: Wait while EventEntity->Render.Flags3 bit 2 is set (cancel turn if not)
  3: 0x01A0 [0x66] LOAD_EXT_SCHEDULER_MAIN: Load scheduler "tlk0" with entities [EventEntity, EventEntity], work=30*
  4: 0x01AF [0x1D] PRINT_EVENT_MESSAGE(message_id=8624*)
    → "The "holy water untainted by impurity" unquestionably refers to the water of Western Adoulin's fountain."
  5: 0x01B2 [0x23] WAIT_FOR_DIALOG_INTERACTION
  6: 0x01B3 [0x1D] PRINT_EVENT_MESSAGE(message_id=8621*)
    → "The fountain's water is taken directly from the Rala Waterways underneath Adoulin proper, so it is both pure and clean."
  7: 0x01B6 [0x23] WAIT_FOR_DIALOG_INTERACTION
  8: 0x01B7 [0x66] LOAD_EXT_SCHEDULER_MAIN: Load scheduler "tlk1" with entities [EventEntity, EventEntity], work=30*
  9: 0x01C6 [0x21] END_EVENT
 10: 0x01C7 [0x00] END_REQSTACK()
```

### Event 5122

#### Metadata

| Field        | Value   |
|--------------|---------|
| Entrypoint   | 0x01C8  |
| Data Size    | 1 bytes |
| Instructions | 1       |

```
      00 01 02 03 04 05 06 07  08 09 0A 0B 0C 0D 0E 0F
      -- -- -- -- -- -- -- --  -- -- -- -- -- -- -- --
01C0:                          00                               .       
```

#### Opcodes

```
  0: 0x01C8 [0x00] END_REQSTACK()
```

### Event 5209

#### Metadata

| Field        | Value   |
|--------------|---------|
| Entrypoint   | 0x01C9  |
| Data Size    | 1 bytes |
| Instructions | 1       |

```
      00 01 02 03 04 05 06 07  08 09 0A 0B 0C 0D 0E 0F
      -- -- -- -- -- -- -- --  -- -- -- -- -- -- -- --
01C0:                             00                             .      
```

#### Opcodes

```
  0: 0x01C9 [0x00] END_REQSTACK()
```

### Event 5211

#### Metadata

| Field        | Value   |
|--------------|---------|
| Entrypoint   | 0x01CA  |
| Data Size    | 1 bytes |
| Instructions | 1       |

```
      00 01 02 03 04 05 06 07  08 09 0A 0B 0C 0D 0E 0F
      -- -- -- -- -- -- -- --  -- -- -- -- -- -- -- --
01C0:                                00                           .     
```

#### Opcodes

```
  0: 0x01CA [0x00] END_REQSTACK()
```

### Event 5229

#### Metadata

| Field        | Value   |
|--------------|---------|
| Entrypoint   | 0x01CB  |
| Data Size    | 1 bytes |
| Instructions | 1       |

```
      00 01 02 03 04 05 06 07  08 09 0A 0B 0C 0D 0E 0F
      -- -- -- -- -- -- -- --  -- -- -- -- -- -- -- --
01C0:                                   00                         .    
```

#### Opcodes

```
  0: 0x01CB [0x00] END_REQSTACK()
```

### Event 5062

#### Metadata

| Field        | Value      |
|--------------|------------|
| Entrypoint   | 0x01CC     |
| Data Size    | 4413 bytes |
| Instructions | 514        |

```
      00 01 02 03 04 05 06 07  08 09 0A 0B 0C 0D 0E 0F
      -- -- -- -- -- -- -- --  -- -- -- -- -- -- -- --
01C0:                                      20 01 42 03               .B.
01D0: 00 00 05 10 03 01 00 09  10 03 01 10 0F 80 46 01  ..............F.
01E0: 5D 10 80 11 80 45 12 80  F8 FF FF 7F F8 FF FF 7F  ]....E..........
01F0: 66 64 6F 31 10 80 1C 13  80 38 14 80 2F 00 9E 10  fdo1.....8../...
0200: 10 01 92 01 9E 10 10 01  92 01 F2 10 10 01 92 01  ................
0210: F4 10 10 01 92 01 F3 10  10 01 92 01 F5 10 10 01  ................
0220: 94 01 F2 10 10 01 94 01  9E 10 10 01 94 01 F4 10  ................
0230: 10 01 4E 00 9E 10 10 01  BA F0 FF FF 7F 15 80 16  ..N.............
0240: 80 09 80 17 80 BA 9E 10  10 01 18 80 19 80 09 80  ................
0250: 1A 80 80 F2 10 10 01 80  F0 FF FF 7F 80 9E 10 10  ................
0260: 01 80 F4 10 10 01 4A F0  FF FF 7F F2 10 10 01 4A  ......J........J
0270: F2 10 10 01 F0 FF FF 7F  1C 00 80 5C 00 1B 80 5C  ...........\...\
0280: 01 1B 80 9A 5D 1C 80 0F  80 03 02 10 87 7F 02 02  ....]...........
0290: 10 1D 80 00 AA 02 45 1E  80 F8 FF FF 7F F8 FF FF  ......E.........
02A0: 7F 73 31 31 38 10 80 01  D7 02 02 02 10 1F 80 00  .s118...........
02B0: C6 02 45 1E 80 F8 FF FF  7F F8 FF FF 7F 73 31 31  ..E..........s11
02C0: 38 10 80 01 D7 02 45 1E  80 F8 FF FF 7F F8 FF FF  8.....E.........
02D0: 7F 73 30 38 36 10 80 45  12 80 F8 FF FF 7F F8 FF  .s086..E........
02E0: FF 7F 66 64 69 31 10 80  66 20 80 F2 10 10 01 F2  ..fdi1..f ......
02F0: 10 10 01 74 6C 62 30 2B  F2 10 10 01 01 80 23 66  ...tlb0+......#f
0300: 20 80 F2 10 10 01 F2 10  10 01 74 6C 62 31 1C 13   .........tlb1..
0310: 80 79 00 F2 10 10 01 9E  10 10 01 27 08 9E 10 10  .y.........'....
0320: 01 10 1C 21 80 02 02 10  1D 80 00 3F 03 52 1E 80  ...!.......?.R..
0330: F8 FF FF 7F F8 FF FF 7F  73 31 31 38 01 68 03 02  ........s118.h..
0340: 02 10 1F 80 00 59 03 52  1E 80 F8 FF FF 7F F8 FF  .....Y.R........
0350: FF 7F 73 31 31 38 01 68  03 52 1E 80 F8 FF FF 7F  ..s118.h.R......
0360: F8 FF FF 7F 73 30 38 36  45 1E 80 F8 FF FF 7F F8  ....s086E.......
0370: FF FF 7F 73 31 31 36 10  80 4A F0 FF FF 7F 9E 10  ...s116..J......
0380: 10 01 1C 22 80 52 1E 80  F8 FF FF 7F F8 FF FF 7F  ...".R..........
0390: 73 31 31 36 45 1E 80 F8  FF FF 7F F8 FF FF 7F 73  s116E..........s
03A0: 30 38 37 10 80 4A F2 10  10 01 9E 10 10 01 1C 00  087..J..........
03B0: 80 4A F4 10 10 01 9E 10  10 01 4A F0 FF FF 7F 9E  .J........J.....
03C0: 10 10 01 2B F2 10 10 01  23 80 23 6F 76 F0 FF FF  ...+....#.#ov...
03D0: 7F 2A 08 9E 10 10 01 52  1E 80 F8 FF FF 7F F8 FF  .*.....R........
03E0: FF 7F 73 30 38 37 45 1E  80 F8 FF FF 7F F8 FF FF  ..s087E.........
03F0: 7F 73 30 38 38 10 80 1C  00 80 79 00 9E 10 10 01  .s088.....y.....
0400: F0 FF FF 7F 1C 22 80 2B  9E 10 10 01 24 80 1C 25  .....".+....$..%
0410: 80 79 00 F2 10 10 01 F0  FF FF 7F 23 4A 9E 10 10  .y.........#J...
0420: 01 F0 FF FF 7F 52 1E 80  F8 FF FF 7F F8 FF FF 7F  .....R..........
0430: 73 30 38 38 45 1E 80 F8  FF FF 7F F8 FF FF 7F 73  s088E..........s
0440: 30 38 39 10 80 6F 76 9E  10 10 01 5B 26 80 9E 10  089..ov....[&...
0450: 10 01 9E 10 10 01 74 6C  6B 30 2B 9E 10 10 01 27  ......tlk0+....'
0460: 80 23 5B 26 80 9E 10 10  01 9E 10 10 01 74 6C 6B  .#[&.........tlk
0470: 31 52 1E 80 F8 FF FF 7F  F8 FF FF 7F 73 30 38 39  1R..........s089
0480: 03 02 10 87 7F 02 02 10  1D 80 00 A1 04 45 1E 80  .............E..
0490: F8 FF FF 7F F8 FF FF 7F  73 31 31 39 10 80 01 CE  ........s119....
04A0: 04 02 02 10 1F 80 00 BD  04 45 1E 80 F8 FF FF 7F  .........E......
04B0: F8 FF FF 7F 73 31 31 39  10 80 01 CE 04 45 1E 80  ....s119.....E..
04C0: F8 FF FF 7F F8 FF FF 7F  73 30 39 30 10 80 24 28  ........s090..$(
04D0: 80 10 80 10 80 25 02 00  10 10 80 00 5B 05 02 02  .....%......[...
04E0: 10 1D 80 00 F8 04 52 1E  80 F8 FF FF 7F F8 FF FF  ......R.........
04F0: 7F 73 31 31 39 01 21 05  02 02 10 1F 80 00 12 05  .s119.!.........
0500: 52 1E 80 F8 FF FF 7F F8  FF FF 7F 73 31 31 39 01  R..........s119.
0510: 21 05 52 1E 80 F8 FF FF  7F F8 FF FF 7F 73 30 39  !.R..........s09
0520: 30 45 1E 80 F8 FF FF 7F  F8 FF FF 7F 73 30 39 31  0E..........s091
0530: 10 80 4A F0 FF FF 7F 9E  10 10 01 5B 26 80 9E 10  ..J........[&...
0540: 10 01 9E 10 10 01 79 65  73 30 2B 9E 10 10 01 29  ......yes0+....)
0550: 80 23 6F 76 F0 FF FF 7F  01 E0 05 02 00 10 0F 80  .#ov............
0560: 00 E0 05 02 02 10 1D 80  00 7D 05 52 1E 80 F8 FF  .........}.R....
0570: FF 7F F8 FF FF 7F 73 31  31 39 01 A6 05 02 02 10  ......s119......
0580: 1F 80 00 97 05 52 1E 80  F8 FF FF 7F F8 FF FF 7F  .....R..........
0590: 73 31 31 39 01 A6 05 52  1E 80 F8 FF FF 7F F8 FF  s119...R........
05A0: FF 7F 73 30 39 30 45 1E  80 F8 FF FF 7F F8 FF FF  ..s090E.........
05B0: 7F 73 30 39 31 10 80 4A  F0 FF FF 7F 9E 10 10 01  .s091..J........
05C0: 5B 26 80 9E 10 10 01 9E  10 10 01 6E 6F 6E 30 2B  [&.........non0+
05D0: 9E 10 10 01 2A 80 23 6F  76 F0 FF FF 7F 01 E0 05  ....*.#ov.......
05E0: 2B 9E 10 10 01 2B 80 23  52 1E 80 F8 FF FF 7F F8  +....+.#R.......
05F0: FF FF 7F 73 30 39 31 03  02 10 87 7F 02 02 10 2C  ...s091........,
0600: 80 00 18 06 45 1E 80 F8  FF FF 7F F8 FF FF 7F 73  ....E..........s
0610: 31 31 33 10 80 01 99 06  02 02 10 2D 80 00 34 06  113........-..4.
0620: 45 1E 80 F8 FF FF 7F F8  FF FF 7F 73 31 31 33 10  E..........s113.
0630: 80 01 99 06 02 02 10 1D  80 00 50 06 45 1E 80 F8  ..........P.E...
0640: FF FF 7F F8 FF FF 7F 73  31 32 30 10 80 01 99 06  .......s120.....
0650: 02 02 10 1F 80 00 6C 06  45 1E 80 F8 FF FF 7F F8  ......l.E.......
0660: FF FF 7F 73 31 32 30 10  80 01 99 06 02 02 10 2E  ...s120.........
0670: 80 00 88 06 45 1E 80 F8  FF FF 7F F8 FF FF 7F 73  ....E..........s
0680: 31 31 33 10 80 01 99 06  45 1E 80 F8 FF FF 7F F8  113.....E.......
0690: FF FF 7F 73 30 39 32 10  80 79 00 9E 10 10 01 F0  ...s092..y......
06A0: FF FF 7F 5B 26 80 9E 10  10 01 9E 10 10 01 74 6C  ...[&.........tl
06B0: 6B 30 2B 9E 10 10 01 2F  80 23 2B 9E 10 10 01 30  k0+..../.#+....0
06C0: 80 23 2B 9E 10 10 01 31  80 23 02 02 10 2C 80 00  .#+....1.#...,..
06D0: E4 06 52 1E 80 F8 FF FF  7F F8 FF FF 7F 73 31 31  ..R..........s11
06E0: 33 01 5B 07 02 02 10 2D  80 00 FE 06 52 1E 80 F8  3.[....-....R...
06F0: FF FF 7F F8 FF FF 7F 73  31 31 33 01 5B 07 02 02  .......s113.[...
0700: 10 1D 80 00 18 07 52 1E  80 F8 FF FF 7F F8 FF FF  ......R.........
0710: 7F 73 31 32 30 01 5B 07  02 02 10 1F 80 00 32 07  .s120.[.......2.
0720: 52 1E 80 F8 FF FF 7F F8  FF FF 7F 73 31 32 30 01  R..........s120.
0730: 5B 07 02 02 10 2E 80 00  4C 07 52 1E 80 F8 FF FF  [.......L.R.....
0740: 7F F8 FF FF 7F 73 31 31  33 01 5B 07 52 1E 80 F8  .....s113.[.R...
0750: FF FF 7F F8 FF FF 7F 73  30 39 32 02 02 10 1D 80  .......s092.....
0760: 00 77 07 45 1E 80 F8 FF  FF 7F F8 FF FF 7F 73 31  .w.E..........s1
0770: 32 33 10 80 01 A4 07 02  02 10 1F 80 00 93 07 45  23.............E
0780: 1E 80 F8 FF FF 7F F8 FF  FF 7F 73 31 32 33 10 80  ..........s123..
0790: 01 A4 07 45 1E 80 F8 FF  FF 7F F8 FF FF 7F 73 30  ...E..........s0
07A0: 39 33 10 80 2B 9E 10 10  01 32 80 23 5B 26 80 9E  93..+....2.#[&..
07B0: 10 10 01 9E 10 10 01 74  6C 6B 31 2B 9E 10 10 01  .......tlk1+....
07C0: 33 80 23 81 00 9E 10 10  01 5B 26 80 9E 10 10 01  3.#......[&.....
07D0: 9E 10 10 01 74 68 6B 30  02 02 10 1D 80 00 F2 07  ....thk0........
07E0: 52 1E 80 F8 FF FF 7F F8  FF FF 7F 73 31 32 33 01  R..........s123.
07F0: 1B 08 02 02 10 1F 80 00  0C 08 52 1E 80 F8 FF FF  ..........R.....
0800: 7F F8 FF FF 7F 73 31 32  33 01 1B 08 52 1E 80 F8  .....s123...R...
0810: FF FF 7F F8 FF FF 7F 73  30 39 33 45 1E 80 F8 FF  .......s093E....
0820: FF 7F F8 FF FF 7F 73 30  39 34 10 80 2B 9E 10 10  ......s094..+...
0830: 01 34 80 23 52 1E 80 F8  FF FF 7F F8 FF FF 7F 73  .4.#R..........s
0840: 30 39 34 02 87 7F 2C 80  80 5F 08 45 1E 80 F8 FF  094...,.._.E....
0850: FF 7F F8 FF FF 7F 73 30  39 35 10 80 01 E0 08 02  ......s095......
0860: 87 7F 2D 80 80 7B 08 45  1E 80 F8 FF FF 7F F8 FF  ..-..{.E........
0870: FF 7F 73 30 39 35 10 80  01 E0 08 02 87 7F 1D 80  ..s095..........
0880: 80 97 08 45 1E 80 F8 FF  FF 7F F8 FF FF 7F 73 30  ...E..........s0
0890: 39 36 10 80 01 E0 08 02  87 7F 1F 80 80 B3 08 45  96.............E
08A0: 1E 80 F8 FF FF 7F F8 FF  FF 7F 73 30 39 36 10 80  ..........s096..
08B0: 01 E0 08 02 87 7F 2E 80  80 CF 08 45 1E 80 F8 FF  ...........E....
08C0: FF 7F F8 FF FF 7F 73 30  39 35 10 80 01 E0 08 45  ......s095.....E
08D0: 1E 80 F8 FF FF 7F F8 FF  FF 7F 73 31 32 34 10 80  ..........s124..
08E0: 24 35 80 10 80 10 80 25  02 00 10 10 80 00 25 12  $5.....%......%.
08F0: 52 1E 80 F8 FF FF 7F F8  FF FF 7F 73 30 39 35 52  R..........s095R
0900: 1E 80 F8 FF FF 7F F8 FF  FF 7F 73 30 39 36 52 1E  ..........s096R.
0910: 80 F8 FF FF 7F F8 FF FF  7F 73 31 32 34 45 1E 80  .........s124E..
0920: F8 FF FF 7F F8 FF FF 7F  73 30 39 38 10 80 81 01  ........s098....
0930: 9E 10 10 01 5B 26 80 9E  10 10 01 9E 10 10 01 74  ....[&.........t
0940: 68 6B 31 2B 9E 10 10 01  36 80 23 5B 26 80 9E 10  hk1+....6.#[&...
0950: 10 01 9E 10 10 01 74 6C  6B 30 2B 9E 10 10 01 37  ......tlk0+....7
0960: 80 23 52 1E 80 F8 FF FF  7F F8 FF FF 7F 73 30 39  .#R..........s09
0970: 38 5B 26 80 9E 10 10 01  9E 10 10 01 74 6C 6B 31  8[&.........tlk1
0980: 52 1E 80 F8 FF FF 7F F8  FF FF 7F 73 30 39 38 02  R..........s098.
0990: 01 00 0F 80 00 F5 09 45  1E 80 F8 FF FF 7F F8 FF  .......E........
09A0: FF 7F 73 30 39 39 10 80  5B 26 80 9E 10 10 01 9E  ..s099..[&......
09B0: 10 10 01 74 68 6B 30 1C  22 80 2B 9E 10 10 01 38  ...thk0.".+....8
09C0: 80 23 79 00 F2 10 10 01  9E 10 10 01 5B 26 80 9E  .#y.........[&..
09D0: 10 10 01 9E 10 10 01 74  68 6B 31 2B 9E 10 10 01  .......thk1+....
09E0: 39 80 23 52 1E 80 F8 FF  FF 7F F8 FF FF 7F 73 30  9.#R..........s0
09F0: 39 39 01 3C 0A 02 00 00  0F 80 00 3C 0A 45 1E 80  99.<.......<.E..
0A00: F8 FF FF 7F F8 FF FF 7F  73 30 39 39 10 80 2B 9E  ........s099..+.
0A10: 10 10 01 3A 80 23 5B 26  80 9E 10 10 01 9E 10 10  ...:.#[&........
0A20: 01 74 6C 6B 31 2B 9E 10  10 01 3B 80 23 52 1E 80  .tlk1+....;.#R..
0A30: F8 FF FF 7F F8 FF FF 7F  73 30 39 39 5B 26 80 9E  ........s099[&..
0A40: 10 10 01 9E 10 10 01 79  65 73 30 1C 3C 80 45 1E  .......yes0.<.E.
0A50: 80 F8 FF FF 7F F8 FF FF  7F 73 31 30 30 10 80 79  .........s100..y
0A60: 00 9E 10 10 01 F0 FF FF  7F 5D 10 80 11 80 2B 9E  .........]....+.
0A70: 10 10 01 3D 80 23 79 00  F2 10 10 01 F0 FF FF 7F  ...=.#y.........
0A80: 52 1E 80 F8 FF FF 7F F8  FF FF 7F 73 31 30 30 03  R..........s100.
0A90: 02 10 87 7F 02 02 10 2E  80 00 B0 0A 45 1E 80 F8  ............E...
0AA0: FF FF 7F F8 FF FF 7F 73  31 31 34 10 80 01 C1 0A  .......s114.....
0AB0: 45 1E 80 F8 FF FF 7F F8  FF FF 7F 73 31 30 31 10  E..........s101.
0AC0: 80 79 00 F2 10 10 01 F0  FF FF 7F CD 3E 80 F0 FF  .y..........>...
0AD0: FF 7F F0 FF FF 7F 73 74  61 72 10 80 1C 3F 80 CD  ......star...?..
0AE0: 3E 80 F0 FF FF 7F F0 FF  FF 7F 73 74 6F 70 10 80  >.........stop..
0AF0: 1C 40 80 45 41 80 F0 FF  FF 7F F0 FF FF 7F 77 68  .@.EA.........wh
0B00: 6F 31 10 80 55 41 80 F0  FF FF 7F F0 FF FF 7F 77  o1..UA.........w
0B10: 68 6F 31 02 02 10 2E 80  00 2D 0B 52 1E 80 F8 FF  ho1......-.R....
0B20: FF 7F F8 FF FF 7F 73 31  31 34 01 3C 0B 52 1E 80  ......s114.<.R..
0B30: F8 FF FF 7F F8 FF FF 7F  73 31 30 31 2F 00 9F 10  ........s101/...
0B40: 10 01 4E 00 9F 10 10 01  92 01 9F 10 10 01 94 01  ..N.............
0B50: 9F 10 10 01 BA 9F 10 10  01 42 80 43 80 09 80 44  .........B.C...D
0B60: 80 80 9F 10 10 01 1C 00  80 4A 9F 10 10 01 F0 FF  .........J......
0B70: FF 7F 4A F0 FF FF 7F 9F  10 10 01 4A F2 10 10 01  ..J........J....
0B80: 9F 10 10 01 4A F4 10 10  01 9F 10 10 01 4A 9E 10  ....J........J..
0B90: 10 01 9F 10 10 01 5C 00  45 80 5C 01 45 80 9A 5D  ......\.E.\.E..]
0BA0: 1C 80 0F 80 02 00 00 0F  80 00 AF 0B 01 AF 0B 1C  ................
0BB0: 3F 80 CD 46 80 9F 10 10  01 9F 10 10 01 6D 61 69  ?..F.........mai
0BC0: 6E 10 80 45 1E 80 F8 FF  FF 7F F8 FF FF 7F 73 31  n..E..........s1
0BD0: 30 32 10 80 45 41 80 F0  FF FF 7F F0 FF FF 7F 77  02..EA.........w
0BE0: 68 69 31 10 80 6E F4 10  10 01 47 80 99 F4 10 10  hi1..n....G.....
0BF0: 01 6E F2 10 10 01 47 80  99 F2 10 10 01 1C 48 80  .n....G.......H.
0C00: 52 1E 80 F8 FF FF 7F F8  FF FF 7F 73 31 30 32 02  R..........s102.
0C10: 00 00 0F 80 00 2C 0E 45  1E 80 F8 FF FF 7F F8 FF  .....,.E........
0C20: FF 7F 73 31 30 33 10 80  4A 9F 10 10 01 9E 10 10  ..s103..J.......
0C30: 01 1C 00 80 2B 9F 10 10  01 49 80 23 4A 9E 10 10  ....+....I.#J...
0C40: 01 9F 10 10 01 2B 9E 10  10 01 4A 80 23 52 1E 80  .....+....J.#R..
0C50: F8 FF FF 7F F8 FF FF 7F  73 31 30 33 45 1E 80 F8  ........s103E...
0C60: FF FF 7F F8 FF FF 7F 73  31 30 34 10 80 5B 4B 80  .......s104..[K.
0C70: 9F 10 10 01 9F 10 10 01  79 72 62 30 2B 9F 10 10  ........yrb0+...
0C80: 01 4C 80 1C 22 80 23 5B  26 80 9E 10 10 01 9E 10  .L..".#[&.......
0C90: 10 01 6E 6F 6E 30 2B 9E  10 10 01 4D 80 23 52 1E  ..non0+....M.#R.
0CA0: 80 F8 FF FF 7F F8 FF FF  7F 73 31 30 34 45 1E 80  .........s104E..
0CB0: F8 FF FF 7F F8 FF FF 7F  73 31 30 35 10 80 5B 4B  ........s105..[K
0CC0: 80 9F 10 10 01 9F 10 10  01 79 72 62 31 2B 9F 10  .........yrb1+..
0CD0: 10 01 4E 80 23 52 1E 80  F8 FF FF 7F F8 FF FF 7F  ..N.#R..........
0CE0: 73 31 30 35 45 1E 80 F8  FF FF 7F F8 FF FF 7F 73  s105E..........s
0CF0: 31 31 37 10 80 5B 4F 80  9E 10 10 01 9E 10 10 01  117..[O.........
0D00: 70 6F 69 30 2B 9E 10 10  01 50 80 1C 3F 80 5B 4F  poi0+....P..?.[O
0D10: 80 9E 10 10 01 9E 10 10  01 70 6F 69 31 1C 00 80  .........poi1...
0D20: 23 52 1E 80 F8 FF FF 7F  F8 FF FF 7F 73 31 31 37  #R..........s117
0D30: 02 02 10 1D 80 00 4C 0D  45 1E 80 F8 FF FF 7F F8  ......L.E.......
0D40: FF FF 7F 73 31 32 31 10  80 01 79 0D 02 02 10 1F  ...s121...y.....
0D50: 80 00 68 0D 45 1E 80 F8  FF FF 7F F8 FF FF 7F 73  ..h.E..........s
0D60: 31 32 31 10 80 01 79 0D  45 1E 80 F8 FF FF 7F F8  121...y.E.......
0D70: FF FF 7F 73 31 30 36 10  80 29 08 9E 10 10 01 11  ...s106..)......
0D80: 1C 00 80 5B 4F 80 9E 10  10 01 9E 10 10 01 70 6F  ...[O.........po
0D90: 69 30 1C 51 80 CD 52 80  9F 10 10 01 9F 10 10 01  i0.Q..R.........
0DA0: 6D 61 69 6E 10 80 1C 3F  80 5B 4F 80 9E 10 10 01  main...?.[O.....
0DB0: 9E 10 10 01 70 6F 69 31  1C 13 80 02 02 10 1D 80  ....poi1........
0DC0: 00 D5 0D 52 1E 80 F8 FF  FF 7F F8 FF FF 7F 73 31  ...R..........s1
0DD0: 32 31 01 FE 0D 02 02 10  1F 80 00 EF 0D 52 1E 80  21...........R..
0DE0: F8 FF FF 7F F8 FF FF 7F  73 31 32 31 01 FE 0D 52  ........s121...R
0DF0: 1E 80 F8 FF FF 7F F8 FF  FF 7F 73 31 30 36 45 1E  ..........s106E.
0E00: 80 F8 FF FF 7F F8 FF FF  7F 73 31 30 37 10 80 1C  .........s107...
0E10: 00 80 2B 9E 10 10 01 53  80 23 52 1E 80 F8 FF FF  ..+....S.#R.....
0E20: 7F F8 FF FF 7F 73 31 30  37 01 51 0F 45 1E 80 F8  .....s107.Q.E...
0E30: FF FF 7F F8 FF FF 7F 73  31 30 33 10 80 27 08 9E  .......s103..'..
0E40: 10 10 01 11 1C 13 80 5B  4F 80 9F 10 10 01 9F 10  .......[O.......
0E50: 10 01 6B 65 69 30 2A 08  9E 10 10 01 1C 40 80 79  ..kei0*......@.y
0E60: 00 9E 10 10 01 F0 FF FF  7F 2B 9E 10 10 01 54 80  .........+....T.
0E70: 23 79 00 9E 10 10 01 9F  10 10 01 52 1E 80 F8 FF  #y.........R....
0E80: FF 7F F8 FF FF 7F 73 31  30 33 02 02 10 1D 80 00  ......s103......
0E90: A6 0E 45 1E 80 F8 FF FF  7F F8 FF FF 7F 73 31 32  ..E..........s12
0EA0: 31 10 80 01 D3 0E 02 02  10 1F 80 00 C2 0E 45 1E  1.............E.
0EB0: 80 F8 FF FF 7F F8 FF FF  7F 73 31 32 31 10 80 01  .........s121...
0EC0: D3 0E 45 1E 80 F8 FF FF  7F F8 FF FF 7F 73 31 30  ..E..........s10
0ED0: 36 10 80 5B 4F 80 9E 10  10 01 9E 10 10 01 70 6F  6..[O.........po
0EE0: 69 30 1C 13 80 CD 52 80  9F 10 10 01 9F 10 10 01  i0....R.........
0EF0: 6D 61 69 6E 10 80 1C 13  80 5B 4F 80 9E 10 10 01  main.....[O.....
0F00: 9E 10 10 01 70 6F 69 31  1C 00 80 1C 3F 80 02 02  ....poi1....?...
0F10: 10 1D 80 00 28 0F 52 1E  80 F8 FF FF 7F F8 FF FF  ....(.R.........
0F20: 7F 73 31 32 31 01 51 0F  02 02 10 1F 80 00 42 0F  .s121.Q.......B.
0F30: 52 1E 80 F8 FF FF 7F F8  FF FF 7F 73 31 32 31 01  R..........s121.
0F40: 51 0F 52 1E 80 F8 FF FF  7F F8 FF FF 7F 73 31 30  Q.R..........s10
0F50: 36 03 02 10 87 7F 02 02  10 2C 80 00 72 0F 45 1E  6........,..r.E.
0F60: 80 F8 FF FF 7F F8 FF FF  7F 73 31 31 35 10 80 01  .........s115...
0F70: F3 0F 02 02 10 2D 80 00  8E 0F 45 1E 80 F8 FF FF  .....-....E.....
0F80: 7F F8 FF FF 7F 73 31 31  35 10 80 01 F3 0F 02 02  .....s115.......
0F90: 10 1D 80 00 AA 0F 45 1E  80 F8 FF FF 7F F8 FF FF  ......E.........
0FA0: 7F 73 31 32 32 10 80 01  F3 0F 02 02 10 1F 80 00  .s122...........
0FB0: C6 0F 45 1E 80 F8 FF FF  7F F8 FF FF 7F 73 31 32  ..E..........s12
0FC0: 32 10 80 01 F3 0F 02 02  10 2E 80 00 E2 0F 45 1E  2.............E.
0FD0: 80 F8 FF FF 7F F8 FF FF  7F 73 31 31 35 10 80 01  .........s115...
0FE0: F3 0F 45 1E 80 F8 FF FF  7F F8 FF FF 7F 73 31 30  ..E..........s10
0FF0: 38 10 80 4A 9E 10 10 01  F0 FF FF 7F 1C 00 80 4A  8..J...........J
1000: F0 FF FF 7F 9E 10 10 01  5B 26 80 9E 10 10 01 9E  ........[&......
1010: 10 10 01 74 6C 6B 30 2B  9E 10 10 01 55 80 23 2B  ...tlk0+....U.#+
1020: 9E 10 10 01 56 80 23 5B  26 80 9E 10 10 01 9E 10  ....V.#[&.......
1030: 10 01 74 6C 6B 31 02 02  10 2C 80 00 50 10 52 1E  ..tlk1...,..P.R.
1040: 80 F8 FF FF 7F F8 FF FF  7F 73 31 31 35 01 C7 10  .........s115...
1050: 02 02 10 2D 80 00 6A 10  52 1E 80 F8 FF FF 7F F8  ...-..j.R.......
1060: FF FF 7F 73 31 31 35 01  C7 10 02 02 10 1D 80 00  ...s115.........
1070: 84 10 52 1E 80 F8 FF FF  7F F8 FF FF 7F 73 31 32  ..R..........s12
1080: 32 01 C7 10 02 02 10 1F  80 00 9E 10 52 1E 80 F8  2...........R...
1090: FF FF 7F F8 FF FF 7F 73  31 32 32 01 C7 10 02 02  .......s122.....
10A0: 10 2E 80 00 B8 10 52 1E  80 F8 FF FF 7F F8 FF FF  ......R.........
10B0: 7F 73 31 31 35 01 C7 10  52 1E 80 F8 FF FF 7F F8  .s115...R.......
10C0: FF FF 7F 73 31 30 38 45  1E 80 F8 FF FF 7F F8 FF  ...s108E........
10D0: FF 7F 73 31 30 39 10 80  6E F0 FF FF 7F 57 80 99  ..s109..n....W..
10E0: F0 FF FF 7F 1C 22 80 52  1E 80 F8 FF FF 7F F8 FF  .....".R........
10F0: FF 7F 73 31 30 39 45 1E  80 F8 FF FF 7F F8 FF FF  ..s109E.........
1100: 7F 73 31 31 30 10 80 27  05 F0 FF FF 7F 4E 7B F0  .s110..'.....N{.
1110: FF FF 7F 7B 9E 10 10 01  1C 48 80 52 1E 80 F8 FF  ...{.....H.R....
1120: FF 7F F8 FF FF 7F 73 31  31 30 45 1E 80 F8 FF FF  ......s110E.....
1130: 7F F8 FF FF 7F 73 31 31  31 10 80 4B 9E 10 10 01  .....s111..K....
1140: 58 80 1C 00 80 79 00 F2  10 10 01 9E 10 10 01 2B  X....y.........+
1150: 9E 10 10 01 59 80 23 2B  9E 10 10 01 5A 80 23 52  ....Y.#+....Z.#R
1160: 1E 80 F8 FF FF 7F F8 FF  FF 7F 73 31 31 31 45 1E  ..........s111E.
1170: 80 F8 FF FF 7F F8 FF FF  7F 73 31 31 32 10 80 5B  .........s112..[
1180: 26 80 9E 10 10 01 9E 10  10 01 6B 61 6D 30 1C 00  &.........kam0..
1190: 80 2B 9E 10 10 01 5B 80  1C 13 80 23 5B 26 80 9E  .+....[....#[&..
11A0: 10 10 01 9E 10 10 01 6B  61 6D 31 1C 3F 80 5B 26  .......kam1.?.[&
11B0: 80 9E 10 10 01 9E 10 10  01 77 61 6B 30 03 01 10  .........wak0...
11C0: 5C 80 45 12 80 F0 FF FF  7F F0 FF FF 7F 66 64 6F  \.E..........fdo
11D0: 31 10 80 1C 13 80 52 1E  80 F8 FF FF 7F F8 FF FF  1.....R.........
11E0: 7F 73 31 31 32 27 05 9F  10 10 01 0C 27 05 9F 10  .s112'......'...
11F0: 10 01 1A 45 41 80 F8 FF  FF 7F F8 FF FF 7F 71 73  ...EA.........qs
1200: 74 63 10 80 4E 00 F0 FF  FF 7F 80 F0 FF FF 7F 46  tc..N..........F
1210: 00 45 12 80 F0 FF FF 7F  F0 FF FF 7F 66 64 69 31  .E..........fdi1
1220: 10 80 01 05 13 02 00 10  0F 80 00 05 13 52 1E 80  .............R..
1230: F8 FF FF 7F F8 FF FF 7F  73 30 39 35 52 1E 80 F8  ........s095R...
1240: FF FF 7F F8 FF FF 7F 73  30 39 36 52 1E 80 F8 FF  .......s096R....
1250: FF 7F F8 FF FF 7F 73 31  32 34 45 1E 80 F8 FF FF  ......s124E.....
1260: 7F F8 FF FF 7F 73 30 39  37 10 80 81 01 9E 10 10  .....s097.......
1270: 01 5B 26 80 9E 10 10 01  9E 10 10 01 74 68 6B 31  .[&.........thk1
1280: 02 00 00 0F 80 00 93 12  2B 9E 10 10 01 5D 80 23  ........+....].#
1290: 01 9B 12 2B 9E 10 10 01  5E 80 23 03 01 10 0F 80  ...+....^.#.....
12A0: 5D 10 80 11 80 45 12 80  F0 FF FF 7F F0 FF FF 7F  ]....E..........
12B0: 66 64 6F 31 10 80 1C 13  80 52 1E 80 F8 FF FF 7F  fdo1.....R......
12C0: F8 FF FF 7F 73 30 39 37  27 05 9F 10 10 01 0C 27  ....s097'......'
12D0: 05 9F 10 10 01 1A 5C 00  45 80 5C 01 45 80 9A 5D  ......\.E.\.E..]
12E0: 1C 80 0F 80 4E 00 F0 FF  FF 7F 80 F0 FF FF 7F 46  ....N..........F
12F0: 00 45 12 80 F0 FF FF 7F  F0 FF FF 7F 66 64 69 31  .E..........fdi1
1300: 10 80 01 05 13 20 00 21  00                       ..... .!.       
```

#### Opcodes

```
  0: 0x01CC [0x20] SET_CLI_EVENT_UC_FLAG: Lock player control
  1: 0x01CE [0x42] SET_CLI_EVENT_CANCEL_DATA()
  2: 0x01CF [0x03] ExtData[1]->WorkLocal[0] = Work_Zone[5]
  3: 0x01D4 [0x03] ExtData[1]->WorkLocal[1] = Work_Zone[9]
  4: 0x01D9 [0x03] Work_Zone[1] = 1*
  5: 0x01DE [0x46] CAMERA_CONTROL: Disable user control
  6: 0x01E0 [0x5D] SET_MUSIC_VOLUME(volume=0*, fade_time=400*)
  7: 0x01E5 [0x45] LOAD_SCHEDULED_TASK: Load scheduler "fdo1" with entities [EventEntity, EventEntity], work=[200*, 0*]
  8: 0x01F6 [0x1C] WAIT(60* ticks)
  9: 0x01F9 [0x38] SET_CLIENT_EVENT_MODE(mode=19*)
 10: 0x01FC [0x2F] Ingrid (ID: 17830046/0x0110109E)->Render.Flags0 &= ~0x80000 // Bit 19
 11: 0x0202 [0x92] Ingrid (ID: 17830046/0x0110109E)->Render.Flags3 ^= 0x01
 12: 0x0208 [0x92] Rigobertine (ID: 17830130/0x011010F2)->Render.Flags3 ^= 0x01
 13: 0x020E [0x92] Behsa Alehgo (ID: 17830132/0x011010F4)->Render.Flags3 ^= 0x01
 14: 0x0214 [0x92] Zaffeld (ID: 17830131/0x011010F3)->Render.Flags3 ^= 0x01
 15: 0x021A [0x92] Adelise (ID: 17830133/0x011010F5)->Render.Flags3 ^= 0x01
 16: 0x0220 [0x94] Rigobertine (ID: 17830130/0x011010F2)->Render.Flags3 ^= 0x01
 17: 0x0226 [0x94] Ingrid (ID: 17830046/0x0110109E)->Render.Flags3 ^= 0x01
 18: 0x022C [0x94] Behsa Alehgo (ID: 17830132/0x011010F4)->Render.Flags3 ^= 0x01
 19: 0x0232 [0x4E] SET_ENTITY_HIDE_FLAG: Show Ingrid (ID: 17830046/0x0110109E)
 20: 0x0238 [0xBA] SET_ENTITY_POSITION(entity_id=LocalPlayer, pos_x=70.090*, pos_z=9.375*, pos_y=-40.148*, direction=186.5°*)
 21: 0x0245 [0xBA] SET_ENTITY_POSITION(entity_id=Ingrid (ID: 17830046/0x0110109E), pos_x=67.336*, pos_z=3.816*, pos_y=-40.148*, direction=274.6°*)
 22: 0x0252 [0x80] LOAD_WAIT(entity=Rigobertine (ID: 17830130/0x011010F2))
 23: 0x0257 [0x80] LOAD_WAIT(entity=LocalPlayer)
 24: 0x025C [0x80] LOAD_WAIT(entity=Ingrid (ID: 17830046/0x0110109E))
 25: 0x0261 [0x80] LOAD_WAIT(entity=Behsa Alehgo (ID: 17830132/0x011010F4))
 26: 0x0266 [0x4A] LocalPlayer looks at Rigobertine (ID: 17830130/0x011010F2)
 27: 0x026F [0x4A] Rigobertine (ID: 17830130/0x011010F2) looks at LocalPlayer
 28: 0x0278 [0x1C] WAIT(30* ticks)
 29: 0x027B [0x5C] MUSIC_CONTROL: Set Idle (Day) music to song 157*
 30: 0x027F [0x5C] MUSIC_CONTROL: Set Idle (Night) music to song 157*
 31: 0x0283 [0x9A] WAIT_MUSIC_SERVER()
 32: 0x0284 [0x5D] SET_MUSIC_VOLUME(volume=127*, fade_time=1*)
 33: 0x0289 [0x03] Work_Zone[2] = LocalPlayer->Race
 34: 0x028E [0x02] IF !(Work_Zone[2] == 5*) GOTO 0x02AA
 35: 0x0296 [0x45] LOAD_SCHEDULED_TASK: Load scheduler "s118" with entities [EventEntity, EventEntity], work=[669*, 0*]
 36: 0x02A7 [0x01] GOTO 0x02D7
 37: 0x02AA [0x02] IF !(Work_Zone[2] == 6*) GOTO 0x02C6
 38: 0x02B2 [0x45] LOAD_SCHEDULED_TASK: Load scheduler "s118" with entities [EventEntity, EventEntity], work=[669*, 0*]
 39: 0x02C3 [0x01] GOTO 0x02D7
 40: 0x02C6 [0x45] LOAD_SCHEDULED_TASK: Load scheduler "s086" with entities [EventEntity, EventEntity], work=[669*, 0*]

SUBROUTINE_02D7:
 41: 0x02D7 [0x45] LOAD_SCHEDULED_TASK: Load scheduler "fdi1" with entities [EventEntity, EventEntity], work=[200*, 0*]
 42: 0x02E8 [0x66] LOAD_EXT_SCHEDULER_MAIN: Load scheduler "tlb0" with entities [Rigobertine (ID: 17830130/0x011010F2), Rigobertine (ID: 17830130/0x011010F2)], work=33*
 43: 0x02F7 [0x2B] Rigobertine (ID: 17830130/0x011010F2) [10536*]:
    → "This extravagant edifice is one of the many assets held by our current minister of judication, Hildebert."
 44: 0x02FE [0x23] WAIT_FOR_DIALOG_INTERACTION
 45: 0x02FF [0x66] LOAD_EXT_SCHEDULER_MAIN: Load scheduler "tlb1" with entities [Rigobertine (ID: 17830130/0x011010F2), Rigobertine (ID: 17830130/0x011010F2)], work=33*
 46: 0x030E [0x1C] WAIT(60* ticks)
 47: 0x0311 [0x79] Rigobertine (ID: 17830130/0x011010F2) looks at Ingrid (ID: 17830046/0x0110109E) (Basic look)
 48: 0x031B [0x27] REQ_SET(priority=0x08, entity_id=Ingrid (ID: 17830046/0x0110109E), tag_num=0x10)
 49: 0x0322 [0x1C] WAIT(35* ticks)
 50: 0x0325 [0x02] IF !(Work_Zone[2] == 5*) GOTO 0x033F
 51: 0x032D [0x52] END_LOAD_SCHEDULER: End scheduler "s118" with entities [EventEntity, EventEntity], work=669*
 52: 0x033C [0x01] GOTO 0x0368
 53: 0x033F [0x02] IF !(Work_Zone[2] == 6*) GOTO 0x0359
 54: 0x0347 [0x52] END_LOAD_SCHEDULER: End scheduler "s118" with entities [EventEntity, EventEntity], work=669*
 55: 0x0356 [0x01] GOTO 0x0368
 56: 0x0359 [0x52] END_LOAD_SCHEDULER: End scheduler "s086" with entities [EventEntity, EventEntity], work=669*

SUBROUTINE_0368:
 57: 0x0368 [0x45] LOAD_SCHEDULED_TASK: Load scheduler "s116" with entities [EventEntity, EventEntity], work=[669*, 0*]
 58: 0x0379 [0x4A] LocalPlayer looks at Ingrid (ID: 17830046/0x0110109E)
 59: 0x0382 [0x1C] WAIT(90* ticks)
 60: 0x0385 [0x52] END_LOAD_SCHEDULER: End scheduler "s116" with entities [EventEntity, EventEntity], work=669*
 61: 0x0394 [0x45] LOAD_SCHEDULED_TASK: Load scheduler "s087" with entities [EventEntity, EventEntity], work=[669*, 0*]
 62: 0x03A5 [0x4A] Rigobertine (ID: 17830130/0x011010F2) looks at Ingrid (ID: 17830046/0x0110109E)
 63: 0x03AE [0x1C] WAIT(30* ticks)
 64: 0x03B1 [0x4A] Behsa Alehgo (ID: 17830132/0x011010F4) looks at Ingrid (ID: 17830046/0x0110109E)
 65: 0x03BA [0x4A] LocalPlayer looks at Ingrid (ID: 17830046/0x0110109E)
 66: 0x03C3 [0x2B] Rigobertine (ID: 17830130/0x011010F2) [13530*]:
    → "Welcome home, Lady Ingrid."
 67: 0x03CA [0x23] WAIT_FOR_DIALOG_INTERACTION
 68: 0x03CB [0x6F] WAIT_FRAME_DELAY: Yield until WaitTime reaches zero
 69: 0x03CC [0x76] CHECK_ENTITY_RENDER_FLAGS: Wait until LocalPlayer Render.Flags0 and Render.Flags3 conditions are met
 70: 0x03D1 [0x2A] GET_REQ_LEVEL(level=8, entity_id=Ingrid (ID: 17830046/0x0110109E))
 71: 0x03D7 [0x52] END_LOAD_SCHEDULER: End scheduler "s087" with entities [EventEntity, EventEntity], work=669*
 72: 0x03E6 [0x45] LOAD_SCHEDULED_TASK: Load scheduler "s088" with entities [EventEntity, EventEntity], work=[669*, 0*]
 73: 0x03F7 [0x1C] WAIT(30* ticks)
 74: 0x03FA [0x79] Ingrid (ID: 17830046/0x0110109E) looks at LocalPlayer (Basic look)
 75: 0x0404 [0x1C] WAIT(90* ticks)
 76: 0x0407 [0x2B] Ingrid (ID: 17830046/0x0110109E) [13531*]:
    → "[Adventurer,/You there,] a moment, fool."
 77: 0x040E [0x1C] WAIT(20* ticks)
 78: 0x0411 [0x79] Rigobertine (ID: 17830130/0x011010F2) looks at LocalPlayer (Basic look)
 79: 0x041B [0x23] WAIT_FOR_DIALOG_INTERACTION
 80: 0x041C [0x4A] Ingrid (ID: 17830046/0x0110109E) looks at LocalPlayer
 81: 0x0425 [0x52] END_LOAD_SCHEDULER: End scheduler "s088" with entities [EventEntity, EventEntity], work=669*
 82: 0x0434 [0x45] LOAD_SCHEDULED_TASK: Load scheduler "s089" with entities [EventEntity, EventEntity], work=[669*, 0*]
 83: 0x0445 [0x6F] WAIT_FRAME_DELAY: Yield until WaitTime reaches zero
 84: 0x0446 [0x76] CHECK_ENTITY_RENDER_FLAGS: Wait until Ingrid (ID: 17830046/0x0110109E) Render.Flags0 and Render.Flags3 conditions are met
 85: 0x044B [0x5B] LOAD_EXT_SCHEDULER: Load scheduler "tlk0" with entities [Ingrid (ID: 17830046/0x0110109E), Ingrid (ID: 17830046/0x0110109E)], work=3291*
 86: 0x045A [0x2B] Ingrid (ID: 17830046/0x0110109E) [13532*]:
    → "I have been apprised of the Jeuno Institute of Magical Studies' new Trust initiative. You are enrolled in this abomination too, as I understand it."
 87: 0x0461 [0x23] WAIT_FOR_DIALOG_INTERACTION
 88: 0x0462 [0x5B] LOAD_EXT_SCHEDULER: Load scheduler "tlk1" with entities [Ingrid (ID: 17830046/0x0110109E), Ingrid (ID: 17830046/0x0110109E)], work=3291*
 89: 0x0471 [0x52] END_LOAD_SCHEDULER: End scheduler "s089" with entities [EventEntity, EventEntity], work=669*
 90: 0x0480 [0x03] Work_Zone[2] = LocalPlayer->Race
 91: 0x0485 [0x02] IF !(Work_Zone[2] == 5*) GOTO 0x04A1
 92: 0x048D [0x45] LOAD_SCHEDULED_TASK: Load scheduler "s119" with entities [EventEntity, EventEntity], work=[669*, 0*]
 93: 0x049E [0x01] GOTO 0x04CE
 94: 0x04A1 [0x02] IF !(Work_Zone[2] == 6*) GOTO 0x04BD
 95: 0x04A9 [0x45] LOAD_SCHEDULED_TASK: Load scheduler "s119" with entities [EventEntity, EventEntity], work=[669*, 0*]
 96: 0x04BA [0x01] GOTO 0x04CE
 97: 0x04BD [0x45] LOAD_SCHEDULED_TASK: Load scheduler "s090" with entities [EventEntity, EventEntity], work=[669*, 0*]

SUBROUTINE_04CE:
 98: 0x04CE [0x24] CREATE_DIALOG(message_id=13533*, default_option=0*, option_flags=0*)
    → "Can you use Trust magic? [Sure can./Uh...no?]"
 99: 0x04D5 [0x25] WAIT_DIALOG_SELECT()
100: 0x04D6 [0x02] IF !(Work_Zone[0] == 0*) GOTO 0x055B
101: 0x04DE [0x02] IF !(Work_Zone[2] == 5*) GOTO 0x04F8
102: 0x04E6 [0x52] END_LOAD_SCHEDULER: End scheduler "s119" with entities [EventEntity, EventEntity], work=669*
103: 0x04F5 [0x01] GOTO 0x0521
104: 0x04F8 [0x02] IF !(Work_Zone[2] == 6*) GOTO 0x0512
105: 0x0500 [0x52] END_LOAD_SCHEDULER: End scheduler "s119" with entities [EventEntity, EventEntity], work=669*
106: 0x050F [0x01] GOTO 0x0521
107: 0x0512 [0x52] END_LOAD_SCHEDULER: End scheduler "s090" with entities [EventEntity, EventEntity], work=669*

SUBROUTINE_0521:
108: 0x0521 [0x45] LOAD_SCHEDULED_TASK: Load scheduler "s091" with entities [EventEntity, EventEntity], work=[669*, 0*]
109: 0x0532 [0x4A] LocalPlayer looks at Ingrid (ID: 17830046/0x0110109E)
110: 0x053B [0x5B] LOAD_EXT_SCHEDULER: Load scheduler "yes0" with entities [Ingrid (ID: 17830046/0x0110109E), Ingrid (ID: 17830046/0x0110109E)], work=3291*
111: 0x054A [0x2B] Ingrid (ID: 17830046/0x0110109E) [13534*]:
    → "My instincts are never wrong. It's a blessing from Altana herself."
112: 0x0551 [0x23] WAIT_FOR_DIALOG_INTERACTION
113: 0x0552 [0x6F] WAIT_FRAME_DELAY: Yield until WaitTime reaches zero
114: 0x0553 [0x76] CHECK_ENTITY_RENDER_FLAGS: Wait until LocalPlayer Render.Flags0 and Render.Flags3 conditions are met
115: 0x0558 [0x01] GOTO 0x05E0
116: 0x055B [0x02] IF !(Work_Zone[0] == 1*) GOTO 0x05E0
117: 0x0563 [0x02] IF !(Work_Zone[2] == 5*) GOTO 0x057D
118: 0x056B [0x52] END_LOAD_SCHEDULER: End scheduler "s119" with entities [EventEntity, EventEntity], work=669*
119: 0x057A [0x01] GOTO 0x05A6
120: 0x057D [0x02] IF !(Work_Zone[2] == 6*) GOTO 0x0597
121: 0x0585 [0x52] END_LOAD_SCHEDULER: End scheduler "s119" with entities [EventEntity, EventEntity], work=669*
122: 0x0594 [0x01] GOTO 0x05A6
123: 0x0597 [0x52] END_LOAD_SCHEDULER: End scheduler "s090" with entities [EventEntity, EventEntity], work=669*

SUBROUTINE_05A6:
124: 0x05A6 [0x45] LOAD_SCHEDULED_TASK: Load scheduler "s091" with entities [EventEntity, EventEntity], work=[669*, 0*]
125: 0x05B7 [0x4A] LocalPlayer looks at Ingrid (ID: 17830046/0x0110109E)
126: 0x05C0 [0x5B] LOAD_EXT_SCHEDULER: Load scheduler "non0" with entities [Ingrid (ID: 17830046/0x0110109E), Ingrid (ID: 17830046/0x0110109E)], work=3291*
127: 0x05CF [0x2B] Ingrid (ID: 17830046/0x0110109E) [13535*]:
    → "Your tongue is as black as the umbrils that blight this land."
128: 0x05D6 [0x23] WAIT_FOR_DIALOG_INTERACTION
129: 0x05D7 [0x6F] WAIT_FRAME_DELAY: Yield until WaitTime reaches zero
130: 0x05D8 [0x76] CHECK_ENTITY_RENDER_FLAGS: Wait until LocalPlayer Render.Flags0 and Render.Flags3 conditions are met
131: 0x05DD [0x01] GOTO 0x05E0

SUBROUTINE_05E0:
132: 0x05E0 [0x2B] Ingrid (ID: 17830046/0x0110109E) [13536*]:
    → "As an exorcist of the highest caliber, recognizing those whose talents may be of use comes as second nature."
133: 0x05E7 [0x23] WAIT_FOR_DIALOG_INTERACTION
134: 0x05E8 [0x52] END_LOAD_SCHEDULER: End scheduler "s091" with entities [EventEntity, EventEntity], work=669*
135: 0x05F7 [0x03] Work_Zone[2] = LocalPlayer->Race
136: 0x05FC [0x02] IF !(Work_Zone[2] == 3*) GOTO 0x0618
137: 0x0604 [0x45] LOAD_SCHEDULED_TASK: Load scheduler "s113" with entities [EventEntity, EventEntity], work=[669*, 0*]
138: 0x0615 [0x01] GOTO 0x0699
139: 0x0618 [0x02] IF !(Work_Zone[2] == 4*) GOTO 0x0634
140: 0x0620 [0x45] LOAD_SCHEDULED_TASK: Load scheduler "s113" with entities [EventEntity, EventEntity], work=[669*, 0*]
141: 0x0631 [0x01] GOTO 0x0699
142: 0x0634 [0x02] IF !(Work_Zone[2] == 5*) GOTO 0x0650
143: 0x063C [0x45] LOAD_SCHEDULED_TASK: Load scheduler "s120" with entities [EventEntity, EventEntity], work=[669*, 0*]
144: 0x064D [0x01] GOTO 0x0699
145: 0x0650 [0x02] IF !(Work_Zone[2] == 6*) GOTO 0x066C
146: 0x0658 [0x45] LOAD_SCHEDULED_TASK: Load scheduler "s120" with entities [EventEntity, EventEntity], work=[669*, 0*]
147: 0x0669 [0x01] GOTO 0x0699
148: 0x066C [0x02] IF !(Work_Zone[2] == 8*) GOTO 0x0688
149: 0x0674 [0x45] LOAD_SCHEDULED_TASK: Load scheduler "s113" with entities [EventEntity, EventEntity], work=[669*, 0*]
150: 0x0685 [0x01] GOTO 0x0699
151: 0x0688 [0x45] LOAD_SCHEDULED_TASK: Load scheduler "s092" with entities [EventEntity, EventEntity], work=[669*, 0*]

SUBROUTINE_0699:
152: 0x0699 [0x79] Ingrid (ID: 17830046/0x0110109E) looks at LocalPlayer (Basic look)
153: 0x06A3 [0x5B] LOAD_EXT_SCHEDULER: Load scheduler "tlk0" with entities [Ingrid (ID: 17830046/0x0110109E), Ingrid (ID: 17830046/0x0110109E)], work=3291*
154: 0x06B2 [0x2B] Ingrid (ID: 17830046/0x0110109E) [13537*]:
    → "You are certainly aware of how I visited the Middle Lands for a time. Even the most reclusive shut-in knows that."
155: 0x06B9 [0x23] WAIT_FOR_DIALOG_INTERACTION
156: 0x06BA [0x2B] Ingrid (ID: 17830046/0x0110109E) [13538*]:
    → "My travels took me to the institute, where they correctly asked me to be a participant in the initiative."
157: 0x06C1 [0x23] WAIT_FOR_DIALOG_INTERACTION
158: 0x06C2 [0x2B] Ingrid (ID: 17830046/0x0110109E) [13539*]:
    → "All Adoulin expects me to serve as their face in a foreign land. It would be uncouth of me to refuse such an opportunity."
159: 0x06C9 [0x23] WAIT_FOR_DIALOG_INTERACTION
160: 0x06CA [0x02] IF !(Work_Zone[2] == 3*) GOTO 0x06E4
161: 0x06D2 [0x52] END_LOAD_SCHEDULER: End scheduler "s113" with entities [EventEntity, EventEntity], work=669*
162: 0x06E1 [0x01] GOTO 0x075B
163: 0x06E4 [0x02] IF !(Work_Zone[2] == 4*) GOTO 0x06FE
164: 0x06EC [0x52] END_LOAD_SCHEDULER: End scheduler "s113" with entities [EventEntity, EventEntity], work=669*
165: 0x06FB [0x01] GOTO 0x075B
166: 0x06FE [0x02] IF !(Work_Zone[2] == 5*) GOTO 0x0718
167: 0x0706 [0x52] END_LOAD_SCHEDULER: End scheduler "s120" with entities [EventEntity, EventEntity], work=669*
168: 0x0715 [0x01] GOTO 0x075B
169: 0x0718 [0x02] IF !(Work_Zone[2] == 6*) GOTO 0x0732
170: 0x0720 [0x52] END_LOAD_SCHEDULER: End scheduler "s120" with entities [EventEntity, EventEntity], work=669*
171: 0x072F [0x01] GOTO 0x075B
172: 0x0732 [0x02] IF !(Work_Zone[2] == 8*) GOTO 0x074C
173: 0x073A [0x52] END_LOAD_SCHEDULER: End scheduler "s113" with entities [EventEntity, EventEntity], work=669*
174: 0x0749 [0x01] GOTO 0x075B
175: 0x074C [0x52] END_LOAD_SCHEDULER: End scheduler "s092" with entities [EventEntity, EventEntity], work=669*

SUBROUTINE_075B:
176: 0x075B [0x02] IF !(Work_Zone[2] == 5*) GOTO 0x0777
177: 0x0763 [0x45] LOAD_SCHEDULED_TASK: Load scheduler "s123" with entities [EventEntity, EventEntity], work=[669*, 0*]
178: 0x0774 [0x01] GOTO 0x07A4
179: 0x0777 [0x02] IF !(Work_Zone[2] == 6*) GOTO 0x0793
180: 0x077F [0x45] LOAD_SCHEDULED_TASK: Load scheduler "s123" with entities [EventEntity, EventEntity], work=[669*, 0*]
181: 0x0790 [0x01] GOTO 0x07A4
182: 0x0793 [0x45] LOAD_SCHEDULED_TASK: Load scheduler "s093" with entities [EventEntity, EventEntity], work=[669*, 0*]

SUBROUTINE_07A4:
183: 0x07A4 [0x2B] Ingrid (ID: 17830046/0x0110109E) [13540*]:
    → "Further, imagine how well it would reflect on Vortimere if we were to discover how..."
184: 0x07AB [0x23] WAIT_FOR_DIALOG_INTERACTION
185: 0x07AC [0x5B] LOAD_EXT_SCHEDULER: Load scheduler "tlk1" with entities [Ingrid (ID: 17830046/0x0110109E), Ingrid (ID: 17830046/0x0110109E)], work=3291*
186: 0x07BB [0x2B] Ingrid (ID: 17830046/0x0110109E) [13541*]:
    → "But laying that aside for now..."
187: 0x07C2 [0x23] WAIT_FOR_DIALOG_INTERACTION
188: 0x07C3 [0x81] SET_ENTITY_BLINKING(blink_flag=0x00, entity=Ingrid (ID: 17830046/0x0110109E))
189: 0x07C9 [0x5B] LOAD_EXT_SCHEDULER: Load scheduler "thk0" with entities [Ingrid (ID: 17830046/0x0110109E), Ingrid (ID: 17830046/0x0110109E)], work=3291*
190: 0x07D8 [0x02] IF !(Work_Zone[2] == 5*) GOTO 0x07F2
191: 0x07E0 [0x52] END_LOAD_SCHEDULER: End scheduler "s123" with entities [EventEntity, EventEntity], work=669*
192: 0x07EF [0x01] GOTO 0x081B
193: 0x07F2 [0x02] IF !(Work_Zone[2] == 6*) GOTO 0x080C
194: 0x07FA [0x52] END_LOAD_SCHEDULER: End scheduler "s123" with entities [EventEntity, EventEntity], work=669*
195: 0x0809 [0x01] GOTO 0x081B
196: 0x080C [0x52] END_LOAD_SCHEDULER: End scheduler "s093" with entities [EventEntity, EventEntity], work=669*

SUBROUTINE_081B:
197: 0x081B [0x45] LOAD_SCHEDULED_TASK: Load scheduler "s094" with entities [EventEntity, EventEntity], work=[669*, 0*]
198: 0x082C [0x2B] Ingrid (ID: 17830046/0x0110109E) [13542*]:
    → "[My excellence is beyond parallel in this land, Middle Lander./You have witnessed firsthand the unsurpassed power that I wield.] Consider yourself touched by fate that I deign to participate in the ritual with you."
199: 0x0833 [0x23] WAIT_FOR_DIALOG_INTERACTION
200: 0x0834 [0x52] END_LOAD_SCHEDULER: End scheduler "s094" with entities [EventEntity, EventEntity], work=669*
201: 0x0843 [0x02] IF !(LocalPlayer->Race == 3*) GOTO 0x085F
202: 0x084B [0x45] LOAD_SCHEDULED_TASK: Load scheduler "s095" with entities [EventEntity, EventEntity], work=[669*, 0*]
203: 0x085C [0x01] GOTO 0x08E0
204: 0x085F [0x02] IF !(LocalPlayer->Race == 4*) GOTO 0x087B
205: 0x0867 [0x45] LOAD_SCHEDULED_TASK: Load scheduler "s095" with entities [EventEntity, EventEntity], work=[669*, 0*]
206: 0x0878 [0x01] GOTO 0x08E0
207: 0x087B [0x02] IF !(LocalPlayer->Race == 5*) GOTO 0x0897
208: 0x0883 [0x45] LOAD_SCHEDULED_TASK: Load scheduler "s096" with entities [EventEntity, EventEntity], work=[669*, 0*]
209: 0x0894 [0x01] GOTO 0x08E0
210: 0x0897 [0x02] IF !(LocalPlayer->Race == 6*) GOTO 0x08B3
211: 0x089F [0x45] LOAD_SCHEDULED_TASK: Load scheduler "s096" with entities [EventEntity, EventEntity], work=[669*, 0*]
212: 0x08B0 [0x01] GOTO 0x08E0
213: 0x08B3 [0x02] IF !(LocalPlayer->Race == 8*) GOTO 0x08CF
214: 0x08BB [0x45] LOAD_SCHEDULED_TASK: Load scheduler "s095" with entities [EventEntity, EventEntity], work=[669*, 0*]
215: 0x08CC [0x01] GOTO 0x08E0
216: 0x08CF [0x45] LOAD_SCHEDULED_TASK: Load scheduler "s124" with entities [EventEntity, EventEntity], work=[669*, 0*]

SUBROUTINE_08E0:
217: 0x08E0 [0x24] CREATE_DIALOG(message_id=13543*, default_option=0*, option_flags=0*)
    → "Journey with Ingrid? [How could I not?/Why on earth would I?]"
218: 0x08E7 [0x25] WAIT_DIALOG_SELECT()
219: 0x08E8 [0x02] IF !(Work_Zone[0] == 0*) GOTO 0x1225
220: 0x08F0 [0x52] END_LOAD_SCHEDULER: End scheduler "s095" with entities [EventEntity, EventEntity], work=669*
221: 0x08FF [0x52] END_LOAD_SCHEDULER: End scheduler "s096" with entities [EventEntity, EventEntity], work=669*
222: 0x090E [0x52] END_LOAD_SCHEDULER: End scheduler "s124" with entities [EventEntity, EventEntity], work=669*
223: 0x091D [0x45] LOAD_SCHEDULED_TASK: Load scheduler "s098" with entities [EventEntity, EventEntity], work=[669*, 0*]
224: 0x092E [0x81] SET_ENTITY_BLINKING(blink_flag=0x01, entity=Ingrid (ID: 17830046/0x0110109E))
225: 0x0934 [0x5B] LOAD_EXT_SCHEDULER: Load scheduler "thk1" with entities [Ingrid (ID: 17830046/0x0110109E), Ingrid (ID: 17830046/0x0110109E)], work=3291*
226: 0x0943 [0x2B] Ingrid (ID: 17830046/0x0110109E) [13546*]:
    → "Perfect! Let the Merciless One guide you!"
227: 0x094A [0x23] WAIT_FOR_DIALOG_INTERACTION
228: 0x094B [0x5B] LOAD_EXT_SCHEDULER: Load scheduler "tlk0" with entities [Ingrid (ID: 17830046/0x0110109E), Ingrid (ID: 17830046/0x0110109E)], work=3291*
229: 0x095A [0x2B] Ingrid (ID: 17830046/0x0110109E) [13547*]:
    → "True to its name, the ritual requires trust between two individuals. Let us reflect..."
230: 0x0961 [0x23] WAIT_FOR_DIALOG_INTERACTION
231: 0x0962 [0x52] END_LOAD_SCHEDULER: End scheduler "s098" with entities [EventEntity, EventEntity], work=669*
232: 0x0971 [0x5B] LOAD_EXT_SCHEDULER: Load scheduler "tlk1" with entities [Ingrid (ID: 17830046/0x0110109E), Ingrid (ID: 17830046/0x0110109E)], work=3291*
233: 0x0980 [0x52] END_LOAD_SCHEDULER: End scheduler "s098" with entities [EventEntity, EventEntity], work=669*
234: 0x098F [0x02] IF !(ExtData[1]->WorkLocal[1] == 1*) GOTO 0x09F5
235: 0x0997 [0x45] LOAD_SCHEDULED_TASK: Load scheduler "s099" with entities [EventEntity, EventEntity], work=[669*, 0*]
236: 0x09A8 [0x5B] LOAD_EXT_SCHEDULER: Load scheduler "thk0" with entities [Ingrid (ID: 17830046/0x0110109E), Ingrid (ID: 17830046/0x0110109E)], work=3291*
237: 0x09B7 [0x1C] WAIT(90* ticks)
238: 0x09BA [0x2B] Ingrid (ID: 17830046/0x0110109E) [13548*]:
    → "Your brash insolence was evident from the first time you opened your mouth."
239: 0x09C1 [0x23] WAIT_FOR_DIALOG_INTERACTION
240: 0x09C2 [0x79] Rigobertine (ID: 17830130/0x011010F2) looks at Ingrid (ID: 17830046/0x0110109E) (Basic look)
241: 0x09CC [0x5B] LOAD_EXT_SCHEDULER: Load scheduler "thk1" with entities [Ingrid (ID: 17830046/0x0110109E), Ingrid (ID: 17830046/0x0110109E)], work=3291*
242: 0x09DB [0x2B] Ingrid (ID: 17830046/0x0110109E) [13549*]:
    → "But my strength of spirit shall see us through, nonetheless."
243: 0x09E2 [0x23] WAIT_FOR_DIALOG_INTERACTION
244: 0x09E3 [0x52] END_LOAD_SCHEDULER: End scheduler "s099" with entities [EventEntity, EventEntity], work=669*
245: 0x09F2 [0x01] GOTO 0x0A3C
246: 0x09F5 [0x02] IF !(ExtData[1]->WorkLocal[0] == 1*) GOTO 0x0A3C
247: 0x09FD [0x45] LOAD_SCHEDULED_TASK: Load scheduler "s099" with entities [EventEntity, EventEntity], work=[669*, 0*]
248: 0x0A0E [0x2B] Ingrid (ID: 17830046/0x0110109E) [13550*]:
    → "Yes, I suppose I do trust you. Despite everything, you came to me during my time of need."
249: 0x0A15 [0x23] WAIT_FOR_DIALOG_INTERACTION
250: 0x0A16 [0x5B] LOAD_EXT_SCHEDULER: Load scheduler "tlk1" with entities [Ingrid (ID: 17830046/0x0110109E), Ingrid (ID: 17830046/0x0110109E)], work=3291*
251: 0x0A25 [0x2B] Ingrid (ID: 17830046/0x0110109E) [13551*]:
    → "Your strong will shall surely see us through."
252: 0x0A2C [0x23] WAIT_FOR_DIALOG_INTERACTION
253: 0x0A2D [0x52] END_LOAD_SCHEDULER: End scheduler "s099" with entities [EventEntity, EventEntity], work=669*

SUBROUTINE_0A3C:
254: 0x0A3C [0x5B] LOAD_EXT_SCHEDULER: Load scheduler "yes0" with entities [Ingrid (ID: 17830046/0x0110109E), Ingrid (ID: 17830046/0x0110109E)], work=3291*
255: 0x0A4B [0x1C] WAIT(15* ticks)
256: 0x0A4E [0x45] LOAD_SCHEDULED_TASK: Load scheduler "s100" with entities [EventEntity, EventEntity], work=[669*, 0*]
257: 0x0A5F [0x79] Ingrid (ID: 17830046/0x0110109E) looks at LocalPlayer (Basic look)
258: 0x0A69 [0x5D] SET_MUSIC_VOLUME(volume=0*, fade_time=400*)
259: 0x0A6E [0x2B] Ingrid (ID: 17830046/0x0110109E) [13552*]:
    → "Let us proceed."
260: 0x0A75 [0x23] WAIT_FOR_DIALOG_INTERACTION
261: 0x0A76 [0x79] Rigobertine (ID: 17830130/0x011010F2) looks at LocalPlayer (Basic look)
262: 0x0A80 [0x52] END_LOAD_SCHEDULER: End scheduler "s100" with entities [EventEntity, EventEntity], work=669*
263: 0x0A8F [0x03] Work_Zone[2] = LocalPlayer->Race
264: 0x0A94 [0x02] IF !(Work_Zone[2] == 8*) GOTO 0x0AB0
265: 0x0A9C [0x45] LOAD_SCHEDULED_TASK: Load scheduler "s114" with entities [EventEntity, EventEntity], work=[669*, 0*]
266: 0x0AAD [0x01] GOTO 0x0AC1
267: 0x0AB0 [0x45] LOAD_SCHEDULED_TASK: Load scheduler "s101" with entities [EventEntity, EventEntity], work=[669*, 0*]

SUBROUTINE_0AC1:
268: 0x0AC1 [0x79] Rigobertine (ID: 17830130/0x011010F2) looks at LocalPlayer (Basic look)
269: 0x0ACB [0xCD] LOAD_SCHEDULED_TASK_ALT4: Load scheduler "star" with entities [LocalPlayer, LocalPlayer], work=[174*, 0*]
270: 0x0ADC [0x1C] WAIT(120* ticks)
271: 0x0ADF [0xCD] LOAD_SCHEDULED_TASK_ALT4: Load scheduler "stop" with entities [LocalPlayer, LocalPlayer], work=[174*, 0*]
272: 0x0AF0 [0x1C] WAIT(100* ticks)
273: 0x0AF3 [0x45] LOAD_SCHEDULED_TASK: Load scheduler "who1" with entities [LocalPlayer, LocalPlayer], work=[201*, 0*]
274: 0x0B04 [0x55] WAIT_LOAD_SCHEDULER: Wait for scheduler "who1" with entities [LocalPlayer, LocalPlayer], work=201*
275: 0x0B13 [0x02] IF !(Work_Zone[2] == 8*) GOTO 0x0B2D
276: 0x0B1B [0x52] END_LOAD_SCHEDULER: End scheduler "s114" with entities [EventEntity, EventEntity], work=669*
277: 0x0B2A [0x01] GOTO 0x0B3C
278: 0x0B2D [0x52] END_LOAD_SCHEDULER: End scheduler "s101" with entities [EventEntity, EventEntity], work=669*

SUBROUTINE_0B3C:
279: 0x0B3C [0x2F] Unnamed NPC (ID: 17830047/0x0110109F)->Render.Flags0 &= ~0x80000 // Bit 19
280: 0x0B42 [0x4E] SET_ENTITY_HIDE_FLAG: Show Unnamed NPC (ID: 17830047/0x0110109F)
281: 0x0B48 [0x92] Unnamed NPC (ID: 17830047/0x0110109F)->Render.Flags3 ^= 0x01
282: 0x0B4E [0x94] Unnamed NPC (ID: 17830047/0x0110109F)->Render.Flags3 ^= 0x01
283: 0x0B54 [0xBA] SET_ENTITY_POSITION(entity_id=Unnamed NPC (ID: 17830047/0x0110109F), pos_x=69.654*, pos_z=6.099*, pos_y=-40.148*, direction=279.6°*)
284: 0x0B61 [0x80] LOAD_WAIT(entity=Unnamed NPC (ID: 17830047/0x0110109F))
285: 0x0B66 [0x1C] WAIT(30* ticks)
286: 0x0B69 [0x4A] Unnamed NPC (ID: 17830047/0x0110109F) looks at LocalPlayer
287: 0x0B72 [0x4A] LocalPlayer looks at Unnamed NPC (ID: 17830047/0x0110109F)
288: 0x0B7B [0x4A] Rigobertine (ID: 17830130/0x011010F2) looks at Unnamed NPC (ID: 17830047/0x0110109F)
289: 0x0B84 [0x4A] Behsa Alehgo (ID: 17830132/0x011010F4) looks at Unnamed NPC (ID: 17830047/0x0110109F)
290: 0x0B8D [0x4A] Ingrid (ID: 17830046/0x0110109E) looks at Unnamed NPC (ID: 17830047/0x0110109F)
291: 0x0B96 [0x5C] MUSIC_CONTROL: Set Idle (Day) music to song 63*
292: 0x0B9A [0x5C] MUSIC_CONTROL: Set Idle (Night) music to song 63*
293: 0x0B9E [0x9A] WAIT_MUSIC_SERVER()
294: 0x0B9F [0x5D] SET_MUSIC_VOLUME(volume=127*, fade_time=1*)
295: 0x0BA4 [0x02] IF !(ExtData[1]->WorkLocal[0] == 1*) GOTO 0x0BAF
296: 0x0BAC [0x01] GOTO 0x0BAF

SUBROUTINE_0BAF:
297: 0x0BAF [0x1C] WAIT(120* ticks)
298: 0x0BB2 [0xCD] LOAD_SCHEDULED_TASK_ALT4: Load scheduler "main" with entities [Unnamed NPC (ID: 17830047/0x0110109F), Unnamed NPC (ID: 17830047/0x0110109F)], work=[177*, 0*]
299: 0x0BC3 [0x45] LOAD_SCHEDULED_TASK: Load scheduler "s102" with entities [EventEntity, EventEntity], work=[669*, 0*]
300: 0x0BD4 [0x45] LOAD_SCHEDULED_TASK: Load scheduler "whi1" with entities [LocalPlayer, LocalPlayer], work=[201*, 0*]
301: 0x0BE5 [0x6E] Behsa Alehgo (ID: 17830132/0x011010F4) uses emote 21*
302: 0x0BEC [0x99] Wait for Behsa Alehgo (ID: 17830132/0x011010F4) animation to complete
303: 0x0BF1 [0x6E] Rigobertine (ID: 17830130/0x011010F2) uses emote 21*
304: 0x0BF8 [0x99] Wait for Rigobertine (ID: 17830130/0x011010F2) animation to complete
305: 0x0BFD [0x1C] WAIT(150* ticks)
306: 0x0C00 [0x52] END_LOAD_SCHEDULER: End scheduler "s102" with entities [EventEntity, EventEntity], work=669*
307: 0x0C0F [0x02] IF !(ExtData[1]->WorkLocal[0] == 1*) GOTO 0x0E2C
308: 0x0C17 [0x45] LOAD_SCHEDULED_TASK: Load scheduler "s103" with entities [EventEntity, EventEntity], work=[669*, 0*]
309: 0x0C28 [0x4A] Unnamed NPC (ID: 17830047/0x0110109F) looks at Ingrid (ID: 17830046/0x0110109E)
310: 0x0C31 [0x1C] WAIT(30* ticks)
311: 0x0C34 [0x2B] Unnamed NPC (ID: 17830047/0x0110109F) [13554*]:
    → "Why can you not say what you feel?"
312: 0x0C3B [0x23] WAIT_FOR_DIALOG_INTERACTION
313: 0x0C3C [0x4A] Ingrid (ID: 17830046/0x0110109E) looks at Unnamed NPC (ID: 17830047/0x0110109F)
314: 0x0C45 [0x2B] Ingrid (ID: 17830046/0x0110109E) [13555*]:
    → "What I...feel?"
315: 0x0C4C [0x23] WAIT_FOR_DIALOG_INTERACTION
316: 0x0C4D [0x52] END_LOAD_SCHEDULER: End scheduler "s103" with entities [EventEntity, EventEntity], work=669*
317: 0x0C5C [0x45] LOAD_SCHEDULED_TASK: Load scheduler "s104" with entities [EventEntity, EventEntity], work=[669*, 0*]
318: 0x0C6D [0x5B] LOAD_EXT_SCHEDULER: Load scheduler "yrb0" with entities [Unnamed NPC (ID: 17830047/0x0110109F), Unnamed NPC (ID: 17830047/0x0110109F)], work=3292*
319: 0x0C7C [0x2B] Unnamed NPC (ID: 17830047/0x0110109F) [13556*]:
    → "You wish to thank <Player> for all [he/she] has done for you. Why must you hold back?"
320: 0x0C83 [0x1C] WAIT(90* ticks)
321: 0x0C86 [0x23] WAIT_FOR_DIALOG_INTERACTION
322: 0x0C87 [0x5B] LOAD_EXT_SCHEDULER: Load scheduler "non0" with entities [Ingrid (ID: 17830046/0x0110109E), Ingrid (ID: 17830046/0x0110109E)], work=3291*
323: 0x0C96 [0x2B] Ingrid (ID: 17830046/0x0110109E) [13557*]:
    → "Dare you forget which one of us is the mistress?! I--"
324: 0x0C9D [0x23] WAIT_FOR_DIALOG_INTERACTION
325: 0x0C9E [0x52] END_LOAD_SCHEDULER: End scheduler "s104" with entities [EventEntity, EventEntity], work=669*
326: 0x0CAD [0x45] LOAD_SCHEDULED_TASK: Load scheduler "s105" with entities [EventEntity, EventEntity], work=[669*, 0*]
327: 0x0CBE [0x5B] LOAD_EXT_SCHEDULER: Load scheduler "yrb1" with entities [Unnamed NPC (ID: 17830047/0x0110109F), Unnamed NPC (ID: 17830047/0x0110109F)], work=3292*
328: 0x0CCD [0x2B] Unnamed NPC (ID: 17830047/0x0110109F) [13558*]:
    → "You hide behind a prickly mask, but we both know your inner voice speaks of [him/her] as softly as freshly washed velvet."
329: 0x0CD4 [0x23] WAIT_FOR_DIALOG_INTERACTION
330: 0x0CD5 [0x52] END_LOAD_SCHEDULER: End scheduler "s105" with entities [EventEntity, EventEntity], work=669*
331: 0x0CE4 [0x45] LOAD_SCHEDULED_TASK: Load scheduler "s117" with entities [EventEntity, EventEntity], work=[669*, 0*]
332: 0x0CF5 [0x5B] LOAD_EXT_SCHEDULER: Load scheduler "poi0" with entities [Ingrid (ID: 17830046/0x0110109E), Ingrid (ID: 17830046/0x0110109E)], work=3293*
333: 0x0D04 [0x2B] Ingrid (ID: 17830046/0x0110109E) [13559*]:
    → "S-silence! We've finished the ritual, so I hereby banish you to the aether!"
334: 0x0D0B [0x1C] WAIT(120* ticks)
335: 0x0D0E [0x5B] LOAD_EXT_SCHEDULER: Load scheduler "poi1" with entities [Ingrid (ID: 17830046/0x0110109E), Ingrid (ID: 17830046/0x0110109E)], work=3293*
336: 0x0D1D [0x1C] WAIT(30* ticks)
337: 0x0D20 [0x23] WAIT_FOR_DIALOG_INTERACTION
338: 0x0D21 [0x52] END_LOAD_SCHEDULER: End scheduler "s117" with entities [EventEntity, EventEntity], work=669*
339: 0x0D30 [0x02] IF !(Work_Zone[2] == 5*) GOTO 0x0D4C
340: 0x0D38 [0x45] LOAD_SCHEDULED_TASK: Load scheduler "s121" with entities [EventEntity, EventEntity], work=[669*, 0*]
341: 0x0D49 [0x01] GOTO 0x0D79
342: 0x0D4C [0x02] IF !(Work_Zone[2] == 6*) GOTO 0x0D68
343: 0x0D54 [0x45] LOAD_SCHEDULED_TASK: Load scheduler "s121" with entities [EventEntity, EventEntity], work=[669*, 0*]
344: 0x0D65 [0x01] GOTO 0x0D79
345: 0x0D68 [0x45] LOAD_SCHEDULED_TASK: Load scheduler "s106" with entities [EventEntity, EventEntity], work=[669*, 0*]

SUBROUTINE_0D79:
346: 0x0D79 [0x29] REQ_SET_WAIT(priority=0x08, entity_id=Ingrid (ID: 17830046/0x0110109E), tag_num=0x11)
347: 0x0D80 [0x1C] WAIT(30* ticks)
348: 0x0D83 [0x5B] LOAD_EXT_SCHEDULER: Load scheduler "poi0" with entities [Ingrid (ID: 17830046/0x0110109E), Ingrid (ID: 17830046/0x0110109E)], work=3293*
349: 0x0D92 [0x1C] WAIT(70* ticks)
350: 0x0D95 [0xCD] LOAD_SCHEDULED_TASK_ALT4: Load scheduler "main" with entities [Unnamed NPC (ID: 17830047/0x0110109F), Unnamed NPC (ID: 17830047/0x0110109F)], work=[178*, 0*]
351: 0x0DA6 [0x1C] WAIT(120* ticks)
352: 0x0DA9 [0x5B] LOAD_EXT_SCHEDULER: Load scheduler "poi1" with entities [Ingrid (ID: 17830046/0x0110109E), Ingrid (ID: 17830046/0x0110109E)], work=3293*
353: 0x0DB8 [0x1C] WAIT(60* ticks)
354: 0x0DBB [0x02] IF !(Work_Zone[2] == 5*) GOTO 0x0DD5
355: 0x0DC3 [0x52] END_LOAD_SCHEDULER: End scheduler "s121" with entities [EventEntity, EventEntity], work=669*
356: 0x0DD2 [0x01] GOTO 0x0DFE
357: 0x0DD5 [0x02] IF !(Work_Zone[2] == 6*) GOTO 0x0DEF
358: 0x0DDD [0x52] END_LOAD_SCHEDULER: End scheduler "s121" with entities [EventEntity, EventEntity], work=669*
359: 0x0DEC [0x01] GOTO 0x0DFE
360: 0x0DEF [0x52] END_LOAD_SCHEDULER: End scheduler "s106" with entities [EventEntity, EventEntity], work=669*

SUBROUTINE_0DFE:
361: 0x0DFE [0x45] LOAD_SCHEDULED_TASK: Load scheduler "s107" with entities [EventEntity, EventEntity], work=[669*, 0*]
362: 0x0E0F [0x1C] WAIT(30* ticks)
363: 0x0E12 [0x2B] Ingrid (ID: 17830046/0x0110109E) [13560*]:
    → "Hmph."
364: 0x0E19 [0x23] WAIT_FOR_DIALOG_INTERACTION
365: 0x0E1A [0x52] END_LOAD_SCHEDULER: End scheduler "s107" with entities [EventEntity, EventEntity], work=669*
366: 0x0E29 [0x01] GOTO 0x0F51
367: 0x0E2C [0x45] LOAD_SCHEDULED_TASK: Load scheduler "s103" with entities [EventEntity, EventEntity], work=[669*, 0*]
368: 0x0E3D [0x27] REQ_SET(priority=0x08, entity_id=Ingrid (ID: 17830046/0x0110109E), tag_num=0x11)
369: 0x0E44 [0x1C] WAIT(60* ticks)
370: 0x0E47 [0x5B] LOAD_EXT_SCHEDULER: Load scheduler "kei0" with entities [Unnamed NPC (ID: 17830047/0x0110109F), Unnamed NPC (ID: 17830047/0x0110109F)], work=3293*
371: 0x0E56 [0x2A] GET_REQ_LEVEL(level=8, entity_id=Ingrid (ID: 17830046/0x0110109E))
372: 0x0E5C [0x1C] WAIT(100* ticks)
373: 0x0E5F [0x79] Ingrid (ID: 17830046/0x0110109E) looks at LocalPlayer (Basic look)
374: 0x0E69 [0x2B] Ingrid (ID: 17830046/0x0110109E) [13553*]:
    → ""Merciless," indeed! The rest I leave up to you."
375: 0x0E70 [0x23] WAIT_FOR_DIALOG_INTERACTION
376: 0x0E71 [0x79] Ingrid (ID: 17830046/0x0110109E) looks at Unnamed NPC (ID: 17830047/0x0110109F) (Basic look)
377: 0x0E7B [0x52] END_LOAD_SCHEDULER: End scheduler "s103" with entities [EventEntity, EventEntity], work=669*
378: 0x0E8A [0x02] IF !(Work_Zone[2] == 5*) GOTO 0x0EA6
379: 0x0E92 [0x45] LOAD_SCHEDULED_TASK: Load scheduler "s121" with entities [EventEntity, EventEntity], work=[669*, 0*]
380: 0x0EA3 [0x01] GOTO 0x0ED3
381: 0x0EA6 [0x02] IF !(Work_Zone[2] == 6*) GOTO 0x0EC2
382: 0x0EAE [0x45] LOAD_SCHEDULED_TASK: Load scheduler "s121" with entities [EventEntity, EventEntity], work=[669*, 0*]
383: 0x0EBF [0x01] GOTO 0x0ED3
384: 0x0EC2 [0x45] LOAD_SCHEDULED_TASK: Load scheduler "s106" with entities [EventEntity, EventEntity], work=[669*, 0*]

SUBROUTINE_0ED3:
385: 0x0ED3 [0x5B] LOAD_EXT_SCHEDULER: Load scheduler "poi0" with entities [Ingrid (ID: 17830046/0x0110109E), Ingrid (ID: 17830046/0x0110109E)], work=3293*
386: 0x0EE2 [0x1C] WAIT(60* ticks)
387: 0x0EE5 [0xCD] LOAD_SCHEDULED_TASK_ALT4: Load scheduler "main" with entities [Unnamed NPC (ID: 17830047/0x0110109F), Unnamed NPC (ID: 17830047/0x0110109F)], work=[178*, 0*]
388: 0x0EF6 [0x1C] WAIT(60* ticks)
389: 0x0EF9 [0x5B] LOAD_EXT_SCHEDULER: Load scheduler "poi1" with entities [Ingrid (ID: 17830046/0x0110109E), Ingrid (ID: 17830046/0x0110109E)], work=3293*
390: 0x0F08 [0x1C] WAIT(30* ticks)
391: 0x0F0B [0x1C] WAIT(120* ticks)
392: 0x0F0E [0x02] IF !(Work_Zone[2] == 5*) GOTO 0x0F28
393: 0x0F16 [0x52] END_LOAD_SCHEDULER: End scheduler "s121" with entities [EventEntity, EventEntity], work=669*
394: 0x0F25 [0x01] GOTO 0x0F51
395: 0x0F28 [0x02] IF !(Work_Zone[2] == 6*) GOTO 0x0F42
396: 0x0F30 [0x52] END_LOAD_SCHEDULER: End scheduler "s121" with entities [EventEntity, EventEntity], work=669*
397: 0x0F3F [0x01] GOTO 0x0F51
398: 0x0F42 [0x52] END_LOAD_SCHEDULER: End scheduler "s106" with entities [EventEntity, EventEntity], work=669*

SUBROUTINE_0F51:
399: 0x0F51 [0x03] Work_Zone[2] = LocalPlayer->Race
400: 0x0F56 [0x02] IF !(Work_Zone[2] == 3*) GOTO 0x0F72
401: 0x0F5E [0x45] LOAD_SCHEDULED_TASK: Load scheduler "s115" with entities [EventEntity, EventEntity], work=[669*, 0*]
402: 0x0F6F [0x01] GOTO 0x0FF3
403: 0x0F72 [0x02] IF !(Work_Zone[2] == 4*) GOTO 0x0F8E
404: 0x0F7A [0x45] LOAD_SCHEDULED_TASK: Load scheduler "s115" with entities [EventEntity, EventEntity], work=[669*, 0*]
405: 0x0F8B [0x01] GOTO 0x0FF3
406: 0x0F8E [0x02] IF !(Work_Zone[2] == 5*) GOTO 0x0FAA
407: 0x0F96 [0x45] LOAD_SCHEDULED_TASK: Load scheduler "s122" with entities [EventEntity, EventEntity], work=[669*, 0*]
408: 0x0FA7 [0x01] GOTO 0x0FF3
409: 0x0FAA [0x02] IF !(Work_Zone[2] == 6*) GOTO 0x0FC6
410: 0x0FB2 [0x45] LOAD_SCHEDULED_TASK: Load scheduler "s122" with entities [EventEntity, EventEntity], work=[669*, 0*]
411: 0x0FC3 [0x01] GOTO 0x0FF3
412: 0x0FC6 [0x02] IF !(Work_Zone[2] == 8*) GOTO 0x0FE2
413: 0x0FCE [0x45] LOAD_SCHEDULED_TASK: Load scheduler "s115" with entities [EventEntity, EventEntity], work=[669*, 0*]
414: 0x0FDF [0x01] GOTO 0x0FF3
415: 0x0FE2 [0x45] LOAD_SCHEDULED_TASK: Load scheduler "s108" with entities [EventEntity, EventEntity], work=[669*, 0*]

SUBROUTINE_0FF3:
