# 17830060

## Common Data

| Field            | Value                     |
|------------------|---------------------------|
| Zone             | Eastern Adoulin (ID: 257) |
| Block Size       | 592 bytes                 |
| Total Events     | 15                        |
| References Count | 25                        |

## List of Events

| Event ID                 | Entrypoint   |   Size |   Instructions |
|--------------------------|--------------|--------|----------------|
| [65535](#event-65535)    | 0x0000       |      1 |              1 |
| [1503](#event-1503)      | 0x0001       |      1 |              1 |
| [65535.1](#event-655351) | 0x0002       |     14 |              4 |
| [1506](#event-1506)      | 0x0010       |     27 |              4 |
| [65535.2](#event-655352) | 0x002B       |     21 |              2 |
| [1507](#event-1507)      | 0x0040       |     30 |              5 |
| [1511](#event-1511)      | 0x005E       |     45 |              4 |
| [65535.3](#event-655353) | 0x008B       |     24 |              6 |
| [65535.4](#event-655354) | 0x00A3       |     25 |              3 |
| [1513](#event-1513)      | 0x00BC       |     45 |              4 |
| [65535.5](#event-655355) | 0x00E9       |     34 |              8 |
| [1514](#event-1514)      | 0x010B       |     45 |              4 |
| [65535.6](#event-655356) | 0x0138       |     22 |              6 |
| [1533](#event-1533)      | 0x014E       |     27 |              4 |
| [110](#event-110)        | 0x0169       |     55 |              6 |

## DAT References (imed_data)

|   Index | Hex Value   |   Dec Value |
|---------|-------------|-------------|
|       0 | 0x0028      |          40 |
|       1 | 0xFFFECF3A  |  4294889274 |
|       2 | 0x00C1      |         193 |
|       3 | 0xFFFFFF6A  |  4294967146 |
|       4 | 0x0001      |           1 |
|       5 | 0x001E      |          30 |
|       6 | 0x0000      |           0 |
|       7 | 0x0039      |          57 |
|       8 | 0x008E      |         142 |
|       9 | 0x0003      |           3 |
|      10 | 0x0078      |         120 |
|      11 | 0x0156      |         342 |
|      12 | 0x0008      |           8 |
|      13 | 0x0164      |         356 |
|      14 | 0x0142      |         322 |
|      15 | 0x000D      |          13 |
|      16 | 0xFFFFF7AF  |  4294965167 |
|      17 | 0xFFFFFC43  |  4294966339 |
|      18 | 0xFFFFF6FB  |  4294964987 |
|      19 | 0xFFFFF294  |  4294963860 |
|      20 | 0xFFFFEB2F  |  4294961967 |
|      21 | 0x0096      |         150 |
|      22 | 0x16B76     |       93046 |
|      23 | 0xFFFEFEC5  |  4294901445 |
|      24 | 0xFFFF63C0  |  4294927296 |

## Events

### Event 65535

#### Metadata

| Field        | Value   |
|--------------|---------|
| Entrypoint   | 0x0000  |
| Data Size    | 1 bytes |
| Instructions | 1       |

```
      00 01 02 03 04 05 06 07  08 09 0A 0B 0C 0D 0E 0F
      -- -- -- -- -- -- -- --  -- -- -- -- -- -- -- --
0000: 00                                                .               
```

#### Opcodes

```
  0: 0x0000 [0x00] END_REQSTACK()
```

### Event 1503

#### Metadata

| Field        | Value   |
|--------------|---------|
| Entrypoint   | 0x0001  |
| Data Size    | 1 bytes |
| Instructions | 1       |

```
      00 01 02 03 04 05 06 07  08 09 0A 0B 0C 0D 0E 0F
      -- -- -- -- -- -- -- --  -- -- -- -- -- -- -- --
0000:    00                                              .              
```

#### Opcodes

```
  0: 0x0001 [0x00] END_REQSTACK()
```

### Event 65535.1

#### Metadata

| Field        | Value    |
|--------------|----------|
| Entrypoint   | 0x0002   |
| Data Size    | 14 bytes |
| Instructions | 4        |

```
      00 01 02 03 04 05 06 07  08 09 0A 0B 0C 0D 0E 0F
      -- -- -- -- -- -- -- --  -- -- -- -- -- -- -- --
0000:       32 00 80 1F 00 01  80 02 80 03 80 1F 01 00    2.............
```

#### Opcodes

```
  0: 0x0002 [0x32] ExtData[1]->MainSpeed = 40* * 0.1
  1: 0x0005 [0x1F] MOVE_ENTITY: EventEntity moves to X=-78.022*, Z=0.193*, Y=-0.150*
  2: 0x000D [0x1F] MOVE_ENTITY: Update entity position (mode=1)
  3: 0x000F [0x00] END_REQSTACK()
```

### Event 1506

#### Metadata

| Field        | Value    |
|--------------|----------|
| Entrypoint   | 0x0010   |
| Data Size    | 27 bytes |
| Instructions | 4        |

```
      00 01 02 03 04 05 06 07  08 09 0A 0B 0C 0D 0E 0F
      -- -- -- -- -- -- -- --  -- -- -- -- -- -- -- --
0010: A5 01 B6 0B 04 80 05 80  06 80 07 80 06 80 08 80  ................
0020: 09 80 06 80 06 80 B6 0F  0A 80 00                 ...........     
```

#### Opcodes

```
  0: 0x0010 [0xA5] EventEntity->Flags3.BallistaTeam |= 0x08  // Set bit 3 of BallistaTeam
  1: 0x0012 [0xB6] ENTITY_APPEARANCE_HANDLER(case=Full entity look, race=1*, hair=30*, head=0*, body=57*, hands=0*, legs=142*, feet=3*, main=0*, sub=0*)
  2: 0x0026 [0xB6] ENTITY_APPEARANCE_HANDLER(case=Model size, value=120*)
  3: 0x002A [0x00] END_REQSTACK()
```

### Event 65535.2

#### Metadata

| Field        | Value    |
|--------------|----------|
| Entrypoint   | 0x002B   |
| Data Size    | 21 bytes |
| Instructions | 2        |

```
      00 01 02 03 04 05 06 07  08 09 0A 0B 0C 0D 0E 0F
      -- -- -- -- -- -- -- --  -- -- -- -- -- -- -- --
0020:                                   B6 0B 04 80 04             .....
0030: 80 0B 80 0B 80 0B 80 0B  80 0B 80 06 80 06 80 00  ................
```

#### Opcodes

```
  0: 0x002B [0xB6] ENTITY_APPEARANCE_HANDLER(case=Full entity look, race=1*, hair=1*, head=342*, body=342*, hands=342*, legs=342*, feet=342*, main=0*, sub=0*)
  1: 0x003F [0x00] END_REQSTACK()
```

### Event 1507

#### Metadata

| Field        | Value    |
|--------------|----------|
| Entrypoint   | 0x0040   |
| Data Size    | 30 bytes |
| Instructions | 5        |

```
      00 01 02 03 04 05 06 07  08 09 0A 0B 0C 0D 0E 0F
      -- -- -- -- -- -- -- --  -- -- -- -- -- -- -- --
0040: A5 01 C0 04 80 B6 0B 04  80 05 80 06 80 07 80 06  ................
0050: 80 08 80 09 80 06 80 06  80 B6 0F 0A 80 00        ..............  
```

#### Opcodes

```
  0: 0x0040 [0xA5] EventEntity->Flags3.BallistaTeam |= 0x08  // Set bit 3 of BallistaTeam
  1: 0x0042 [0xC0] EventEntity->Render.Flags3 |= 0x1000 // Set bit 12 (from 1*)
  2: 0x0045 [0xB6] ENTITY_APPEARANCE_HANDLER(case=Full entity look, race=1*, hair=30*, head=0*, body=57*, hands=0*, legs=142*, feet=3*, main=0*, sub=0*)
  3: 0x0059 [0xB6] ENTITY_APPEARANCE_HANDLER(case=Model size, value=120*)
  4: 0x005D [0x00] END_REQSTACK()
```

### Event 1511

#### Metadata

| Field        | Value    |
|--------------|----------|
| Entrypoint   | 0x005E   |
| Data Size    | 45 bytes |
| Instructions | 4        |

```
      00 01 02 03 04 05 06 07  08 09 0A 0B 0C 0D 0E 0F
      -- -- -- -- -- -- -- --  -- -- -- -- -- -- -- --
0050:                                            B6 0B                ..
0060: 09 80 0C 80 06 80 0D 80  06 80 0E 80 07 80 06 80  ................
0070: 06 80 B4 00 00 00 43 61  73 73 61 72 64 00 00 00  ......Cassard...
0080: 00 00 00 00 00 00 B5 00  00 00 00                 ...........     
```

#### Opcodes

```
  0: 0x005E [0xB6] ENTITY_APPEARANCE_HANDLER(case=Full entity look, race=3*, hair=8*, head=0*, body=356*, hands=0*, legs=322*, feet=57*, main=0*, sub=0*)
  1: 0x0072 [0xB4] UI_WINDOW_STRING_HANDLER(case=0x00 - Copy string from opcode, work_offset=ExtData[1]->WorkLocal[0], string="Cassard")
  2: 0x0086 [0xB5] SET_EVENT_ENTITY_NAME: Change EventEntity name to ExtData[1]->WorkLocal[0]
  3: 0x008A [0x00] END_REQSTACK()
```

### Event 65535.3

#### Metadata

| Field        | Value    |
|--------------|----------|
| Entrypoint   | 0x008B   |
| Data Size    | 24 bytes |
| Instructions | 6        |

```
      00 01 02 03 04 05 06 07  08 09 0A 0B 0C 0D 0E 0F
      -- -- -- -- -- -- -- --  -- -- -- -- -- -- -- --
0080:                                   32 0F 80 1F 00             2....
0090: 10 80 11 80 06 80 1F 01  1F 00 12 80 13 80 06 80  ................
00A0: 1F 01 00                                          ...             
```

#### Opcodes

```
  0: 0x008B [0x32] ExtData[1]->MainSpeed = 13* * 0.1
  1: 0x008E [0x1F] MOVE_ENTITY: EventEntity moves to X=-2.129*, Z=-0.957*, Y=0.000*
  2: 0x0096 [0x1F] MOVE_ENTITY: Update entity position (mode=1)
  3: 0x0098 [0x1F] MOVE_ENTITY: EventEntity moves to X=-2.309*, Z=-3.436*, Y=0.000*
  4: 0x00A0 [0x1F] MOVE_ENTITY: Update entity position (mode=1)
  5: 0x00A2 [0x00] END_REQSTACK()
```

### Event 65535.4

#### Metadata

| Field        | Value    |
|--------------|----------|
| Entrypoint   | 0x00A3   |
| Data Size    | 25 bytes |
| Instructions | 3        |

```
      00 01 02 03 04 05 06 07  08 09 0A 0B 0C 0D 0E 0F
      -- -- -- -- -- -- -- --  -- -- -- -- -- -- -- --
00A0:          B4 00 00 00 00  00 00 00 00 00 00 00 00     .............
00B0: 00 00 00 00 00 00 00 B5  00 00 00 00              ............    
```

#### Opcodes

```
  0: 0x00A3 [0xB4] UI_WINDOW_STRING_HANDLER(case=0x00 - Copy string from opcode, work_offset=ExtData[1]->WorkLocal[0], string="")
  1: 0x00B7 [0xB5] SET_EVENT_ENTITY_NAME: Change EventEntity name to ExtData[1]->WorkLocal[0]
  2: 0x00BB [0x00] END_REQSTACK()
```

### Event 1513

#### Metadata

| Field        | Value    |
|--------------|----------|
| Entrypoint   | 0x00BC   |
| Data Size    | 45 bytes |
| Instructions | 4        |

```
      00 01 02 03 04 05 06 07  08 09 0A 0B 0C 0D 0E 0F
      -- -- -- -- -- -- -- --  -- -- -- -- -- -- -- --
00B0:                                      B6 0B 09 80              ....
00C0: 0C 80 06 80 0D 80 06 80  0E 80 07 80 06 80 06 80  ................
00D0: B4 00 00 00 43 61 73 73  61 72 64 00 00 00 00 00  ....Cassard.....
00E0: 00 00 00 00 B5 00 00 00  00                       .........       
```

#### Opcodes

```
  0: 0x00BC [0xB6] ENTITY_APPEARANCE_HANDLER(case=Full entity look, race=3*, hair=8*, head=0*, body=356*, hands=0*, legs=322*, feet=57*, main=0*, sub=0*)
  1: 0x00D0 [0xB4] UI_WINDOW_STRING_HANDLER(case=0x00 - Copy string from opcode, work_offset=ExtData[1]->WorkLocal[0], string="Cassard")
  2: 0x00E4 [0xB5] SET_EVENT_ENTITY_NAME: Change EventEntity name to ExtData[1]->WorkLocal[0]
  3: 0x00E8 [0x00] END_REQSTACK()
```

### Event 65535.5

#### Metadata

| Field        | Value    |
|--------------|----------|
| Entrypoint   | 0x00E9   |
| Data Size    | 34 bytes |
| Instructions | 8        |

```
      00 01 02 03 04 05 06 07  08 09 0A 0B 0C 0D 0E 0F
      -- -- -- -- -- -- -- --  -- -- -- -- -- -- -- --
00E0:                             32 0F 80 1F 00 10 80           2......
00F0: 11 80 06 80 1F 01 1F 00  12 80 13 80 06 80 1F 01  ................
0100: 1F 00 00 80 14 80 06 80  1F 01 00                 ...........     
```

#### Opcodes

```
  0: 0x00E9 [0x32] ExtData[1]->MainSpeed = 13* * 0.1
  1: 0x00EC [0x1F] MOVE_ENTITY: EventEntity moves to X=-2.129*, Z=-0.957*, Y=0.000*
  2: 0x00F4 [0x1F] MOVE_ENTITY: Update entity position (mode=1)
  3: 0x00F6 [0x1F] MOVE_ENTITY: EventEntity moves to X=-2.309*, Z=-3.436*, Y=0.000*
  4: 0x00FE [0x1F] MOVE_ENTITY: Update entity position (mode=1)
  5: 0x0100 [0x1F] MOVE_ENTITY: EventEntity moves to X=0.040*, Z=-5.329*, Y=0.000*
  6: 0x0108 [0x1F] MOVE_ENTITY: Update entity position (mode=1)
  7: 0x010A [0x00] END_REQSTACK()
```

### Event 1514

#### Metadata

| Field        | Value    |
|--------------|----------|
| Entrypoint   | 0x010B   |
| Data Size    | 45 bytes |
| Instructions | 4        |

```
      00 01 02 03 04 05 06 07  08 09 0A 0B 0C 0D 0E 0F
      -- -- -- -- -- -- -- --  -- -- -- -- -- -- -- --
0100:                                   B6 0B 0C 80 0F             .....
0110: 80 0B 80 0B 80 15 80 0B  80 15 80 06 80 06 80 B4  ................
0120: 00 00 00 56 6F 6C 67 6F  69 00 00 00 00 00 00 00  ...Volgoi.......
0130: 00 00 00 B5 00 00 00 00                           ........        
```

#### Opcodes

```
  0: 0x010B [0xB6] ENTITY_APPEARANCE_HANDLER(case=Full entity look, race=8*, hair=13*, head=342*, body=342*, hands=150*, legs=342*, feet=150*, main=0*, sub=0*)
  1: 0x011F [0xB4] UI_WINDOW_STRING_HANDLER(case=0x00 - Copy string from opcode, work_offset=ExtData[1]->WorkLocal[0], string="Volgoi")
  2: 0x0133 [0xB5] SET_EVENT_ENTITY_NAME: Change EventEntity name to ExtData[1]->WorkLocal[0]
  3: 0x0137 [0x00] END_REQSTACK()
```

### Event 65535.6

#### Metadata

| Field        | Value    |
|--------------|----------|
| Entrypoint   | 0x0138   |
| Data Size    | 22 bytes |
| Instructions | 6        |

```
      00 01 02 03 04 05 06 07  08 09 0A 0B 0C 0D 0E 0F
      -- -- -- -- -- -- -- --  -- -- -- -- -- -- -- --
0130:                          32 00 80 1F 00 16 80 17          2.......
0140: 80 18 80 1F 01 1E A0 10  10 01 1C 05 80 00        ..............  
```

#### Opcodes

```
  0: 0x0138 [0x32] ExtData[1]->MainSpeed = 40* * 0.1
  1: 0x013B [0x1F] MOVE_ENTITY: EventEntity moves to X=93.046*, Z=-65.851*, Y=-40.000*
  2: 0x0143 [0x1F] MOVE_ENTITY: Update entity position (mode=1)
  3: 0x0145 [0x1E] EventEntity looks at Unnamed NPC (ID: 17830048/0x011010A0) and starts talking
  4: 0x014A [0x1C] WAIT(30* ticks)
  5: 0x014D [0x00] END_REQSTACK()
```

### Event 1533

#### Metadata

| Field        | Value    |
|--------------|----------|
| Entrypoint   | 0x014E   |
| Data Size    | 27 bytes |
| Instructions | 4        |

```
      00 01 02 03 04 05 06 07  08 09 0A 0B 0C 0D 0E 0F
      -- -- -- -- -- -- -- --  -- -- -- -- -- -- -- --
0140:                                            A5 01                ..
0150: B6 0B 04 80 05 80 06 80  07 80 06 80 08 80 09 80  ................
0160: 06 80 06 80 B6 0F 0A 80  00                       .........       
```

#### Opcodes

```
  0: 0x014E [0xA5] EventEntity->Flags3.BallistaTeam |= 0x08  // Set bit 3 of BallistaTeam
  1: 0x0150 [0xB6] ENTITY_APPEARANCE_HANDLER(case=Full entity look, race=1*, hair=30*, head=0*, body=57*, hands=0*, legs=142*, feet=3*, main=0*, sub=0*)
  2: 0x0164 [0xB6] ENTITY_APPEARANCE_HANDLER(case=Model size, value=120*)
  3: 0x0168 [0x00] END_REQSTACK()
```

### Event 110

#### Metadata

| Field        | Value    |
|--------------|----------|
| Entrypoint   | 0x0169   |
| Data Size    | 55 bytes |
| Instructions | 6        |

```
      00 01 02 03 04 05 06 07  08 09 0A 0B 0C 0D 0E 0F
      -- -- -- -- -- -- -- --  -- -- -- -- -- -- -- --
0160:                             B6 0B 04 80 05 80 06           .......
0170: 80 07 80 06 80 08 80 09  80 06 80 06 80 B6 0F 0A  ................
0180: 80 B4 00 00 00 59 67 6E  61 73 00 00 00 00 00 00  .....Ygnas......
0190: 00 00 00 00 00 B5 00 00  00 92 01 F8 FF FF 7F 00  ................
```

#### Opcodes

```
  0: 0x0169 [0xB6] ENTITY_APPEARANCE_HANDLER(case=Full entity look, race=1*, hair=30*, head=0*, body=57*, hands=0*, legs=142*, feet=3*, main=0*, sub=0*)
  1: 0x017D [0xB6] ENTITY_APPEARANCE_HANDLER(case=Model size, value=120*)
  2: 0x0181 [0xB4] UI_WINDOW_STRING_HANDLER(case=0x00 - Copy string from opcode, work_offset=ExtData[1]->WorkLocal[0], string="Ygnas")
  3: 0x0195 [0xB5] SET_EVENT_ENTITY_NAME: Change EventEntity name to ExtData[1]->WorkLocal[0]
  4: 0x0199 [0x92] EventEntity->Render.Flags3 ^= 0x01
  5: 0x019F [0x00] END_REQSTACK()
```
