# 17830041 - Gratzigg

## Common Data

| Field            | Value                     |
|------------------|---------------------------|
| Zone             | Eastern Adoulin (ID: 257) |
| Block Size       | 1560 bytes                |
| Total Events     | 67                        |
| References Count | 66                        |

## List of Events

| Event ID                   | Entrypoint   |   Size |   Instructions |
|----------------------------|--------------|--------|----------------|
| [65535](#event-65535)      | 0x0000       |      1 |              1 |
| [65535.1](#event-655351)   | 0x0001       |      1 |              1 |
| [65535.2](#event-655352)   | 0x0002       |     18 |              4 |
| [65535.3](#event-655353)   | 0x0014       |     10 |              2 |
| [65535.4](#event-655354)   | 0x001E       |      9 |              3 |
| [65535.5](#event-655355)   | 0x0027       |      9 |              3 |
| [65535.6](#event-655356)   | 0x0030       |     10 |              2 |
| [65535.7](#event-655357)   | 0x003A       |     10 |              2 |
| [1500](#event-1500)        | 0x0044       |      1 |              1 |
| [1503](#event-1503)        | 0x0045       |      1 |              1 |
| [65535.8](#event-655358)   | 0x0046       |     21 |              2 |
| [65535.9](#event-655359)   | 0x005B       |     21 |              2 |
| [65535.10](#event-6553510) | 0x0070       |     13 |              3 |
| [65535.11](#event-6553511) | 0x007D       |     15 |              5 |
| [65535.12](#event-6553512) | 0x008C       |     47 |             11 |
| [65535.13](#event-6553513) | 0x00BB       |     24 |              6 |
| [65535.14](#event-6553514) | 0x00D3       |     14 |              4 |
| [65535.15](#event-6553515) | 0x00E1       |     33 |              7 |
| [65535.16](#event-6553516) | 0x0102       |     15 |              5 |
| [65535.17](#event-6553517) | 0x0111       |     14 |              4 |
| [1507](#event-1507)        | 0x011F       |      1 |              1 |
| [1509](#event-1509)        | 0x0120       |      1 |              1 |
| [1510](#event-1510)        | 0x0121       |      1 |              1 |
| [1515](#event-1515)        | 0x0122       |      1 |              1 |
| [65535.18](#event-6553518) | 0x0123       |     47 |              9 |
| [1532](#event-1532)        | 0x0152       |     21 |              2 |
| [1533](#event-1533)        | 0x0167       |     21 |              2 |
| [1535](#event-1535)        | 0x017C       |     21 |              2 |
| [1551](#event-1551)        | 0x0191       |     21 |              2 |
| [1552](#event-1552)        | 0x01A6       |     21 |              2 |
| [1549](#event-1549)        | 0x01BB       |     21 |              2 |
| [65535.19](#event-6553519) | 0x01D0       |     27 |              6 |
| [65535.20](#event-6553520) | 0x01EB       |     16 |              2 |
| [65535.21](#event-6553521) | 0x01FB       |     14 |              2 |
| [65535.22](#event-6553522) | 0x0209       |     16 |              2 |
| [65535.23](#event-6553523) | 0x0219       |     14 |              2 |
| [65535.24](#event-6553524) | 0x0227       |     16 |              2 |
| [65535.25](#event-6553525) | 0x0237       |     14 |              2 |
| [65535.26](#event-6553526) | 0x0245       |     16 |              2 |
| [65535.27](#event-6553527) | 0x0255       |     14 |              2 |
| [65535.28](#event-6553528) | 0x0263       |     16 |              2 |
| [65535.29](#event-6553529) | 0x0273       |     14 |              2 |
| [65535.30](#event-6553530) | 0x0281       |     16 |              4 |
| [65535.31](#event-6553531) | 0x0291       |     16 |              4 |
| [65535.32](#event-6553532) | 0x02A1       |     16 |              4 |
| [65535.33](#event-6553533) | 0x02B1       |     16 |              4 |
| [65535.34](#event-6553534) | 0x02C1       |     16 |              4 |
| [65535.35](#event-6553535) | 0x02D1       |     16 |              4 |
| [65535.36](#event-6553536) | 0x02E1       |     16 |              4 |
| [65535.37](#event-6553537) | 0x02F1       |     16 |              4 |
| [65535.38](#event-6553538) | 0x0301       |     16 |              4 |
| [65535.39](#event-6553539) | 0x0311       |     16 |              4 |
| [65535.40](#event-6553540) | 0x0321       |      9 |              3 |
| [65535.41](#event-6553541) | 0x032A       |     19 |              2 |
| [65535.42](#event-6553542) | 0x033D       |     15 |              2 |
| [65535.43](#event-6553543) | 0x034C       |     19 |              2 |
| [65535.44](#event-6553544) | 0x035F       |     15 |              2 |
| [65535.45](#event-6553545) | 0x036E       |     19 |              2 |
| [65535.46](#event-6553546) | 0x0381       |     15 |              2 |
| [65535.47](#event-6553547) | 0x0390       |     16 |              2 |
| [65535.48](#event-6553548) | 0x03A0       |     14 |              2 |
| [65535.49](#event-6553549) | 0x03AE       |     16 |              2 |
| [65535.50](#event-6553550) | 0x03BE       |     14 |              2 |
| [90](#event-90)            | 0x03CC       |      1 |              1 |
| [65535.51](#event-6553551) | 0x03CD       |     14 |              4 |
| [65535.52](#event-6553552) | 0x03DB       |     24 |              6 |
| [91](#event-91)            | 0x03F3       |      1 |              1 |

## DAT References (imed_data)

|   Index | Hex Value   |   Dec Value |
|---------|-------------|-------------|
|       0 | 0x0000      |           0 |
|       1 | 0x0001      |           1 |
|       2 | 0x0080      |         128 |
|       3 | 0x0008      |           8 |
|       4 | 0x0006      |           6 |
|       5 | 0x0140      |         320 |
|       6 | 0x0156      |         342 |
|       7 | 0x00EF      |         239 |
|       8 | 0x0159      |         345 |
|       9 | 0x000D      |          13 |
|      10 | 0x01D4      |         468 |
|      11 | 0xFFFFDD40  |  4294958400 |
|      12 | 0xFFFFFA24  |  4294965796 |
|      13 | 0x0C58      |        3160 |
|      14 | 0xFFFFD553  |  4294956371 |
|      15 | 0x112A      |        4394 |
|      16 | 0xFFFFB220  |  4294947360 |
|      17 | 0x2260      |        8800 |
|      18 | 0xFFFFB1E0  |  4294947296 |
|      19 | 0x0800      |        2048 |
|      20 | 0xFFFFFB62  |  4294966114 |
|      21 | 0xFFFFC36D  |  4294951789 |
|      22 | 0xFFFFFFAC  |  4294967212 |
|      23 | 0xFFFFCBD4  |  4294953940 |
|      24 | 0xFFFFE884  |  4294961284 |
|      25 | 0xFFFFC820  |  4294952992 |
|      26 | 0xFFFFFE6B  |  4294966891 |
|      27 | 0xFFFFC2F4  |  4294951668 |
|      28 | 0x0028      |          40 |
|      29 | 0xFFFECF3A  |  4294889274 |
|      30 | 0x00C1      |         193 |
|      31 | 0xFFFFFF6A  |  4294967146 |
|      32 | 0xFFFF38D2  |  4294916306 |
|      33 | 0xFFFFCA23  |  4294953507 |
|      34 | 0xFFFFFE0D  |  4294966797 |
|      35 | 0xFFFF4107  |  4294918407 |
|      36 | 0xFFFFC992  |  4294953362 |
|      37 | 0xFFFF4FBA  |  4294922170 |
|      38 | 0xFFFFC984  |  4294953348 |
|      39 | 0x03DE      |         990 |
|      40 | 0xFFFFBE04  |  4294950404 |
|      41 | 0x001E      |          30 |
|      42 | 0x0045      |          69 |
|      43 | 0x0083      |         131 |
|      44 | 0x0015      |          21 |
|      45 | 0x003C      |          60 |
|      46 | 0x0007      |           7 |
|      47 | 0x000B      |          11 |
|      48 | 0x000E      |          14 |
|      49 | 0x0004      |           4 |
|      50 | 0x0013      |          19 |
|      51 | 0x000C      |          12 |
|      52 | 0x001D      |          29 |
|      53 | 0x0A68      |        2664 |
|      54 | 0x012C      |         300 |
|      55 | 0x0A69      |        2665 |
|      56 | 0x0122      |         290 |
|      57 | 0x0082      |         130 |
|      58 | 0x00D1      |         209 |
|      59 | 0xFFFE76B9  |  4294866617 |
|      60 | 0x2C7D      |       11389 |
|      61 | 0xFFFFFD77  |  4294966647 |
|      62 | 0xFFFE4F15  |  4294856469 |
|      63 | 0x2C97      |       11415 |
|      64 | 0xFFFE4BD1  |  4294855633 |
|      65 | 0x3C24      |       15396 |

## Events

### Event 65535

#### Metadata

| Field        | Value   |
|--------------|---------|
| Entrypoint   | 0x0000  |
| Data Size    | 1 bytes |
| Instructions | 1       |

```
      00 01 02 03 04 05 06 07  08 09 0A 0B 0C 0D 0E 0F
      -- -- -- -- -- -- -- --  -- -- -- -- -- -- -- --
0000: 00                                                .               
```

#### Opcodes

```
  0: 0x0000 [0x00] END_REQSTACK()
```

### Event 65535.1

#### Metadata

| Field        | Value   |
|--------------|---------|
| Entrypoint   | 0x0001  |
| Data Size    | 1 bytes |
| Instructions | 1       |

```
      00 01 02 03 04 05 06 07  08 09 0A 0B 0C 0D 0E 0F
      -- -- -- -- -- -- -- --  -- -- -- -- -- -- -- --
0000:    00                                              .              
```

#### Opcodes

```
  0: 0x0001 [0x00] END_REQSTACK()
```

### Event 65535.2

#### Metadata

| Field        | Value    |
|--------------|----------|
| Entrypoint   | 0x0002   |
| Data Size    | 18 bytes |
| Instructions | 4        |

```
      00 01 02 03 04 05 06 07  08 09 0A 0B 0C 0D 0E 0F
      -- -- -- -- -- -- -- --  -- -- -- -- -- -- -- --
0000:       22 00 2F 00 F8 FF  FF 7F 6C F8 FF FF 7F 00    "./.....l.....
0010: 80 01 80 00                                       ....            
```

#### Opcodes

```
  0: 0x0002 [0x22] ENTITY_HIDE_FLAG(enabled=0x00)
  1: 0x0004 [0x2F] EventEntity->Render.Flags0 &= ~0x80000 // Bit 19
  2: 0x000A [0x6C] FADE_ENTITY_COLOR(entity_id=EventEntity, end_alpha=0*, fade_time=1*)
  3: 0x0013 [0x00] END_REQSTACK()
```

### Event 65535.3

#### Metadata

| Field        | Value    |
|--------------|----------|
| Entrypoint   | 0x0014   |
| Data Size    | 10 bytes |
| Instructions | 2        |

```
      00 01 02 03 04 05 06 07  08 09 0A 0B 0C 0D 0E 0F
      -- -- -- -- -- -- -- --  -- -- -- -- -- -- -- --
0010:             6C F8 FF FF  7F 02 80 01 80 00            l.........  
```

#### Opcodes

```
  0: 0x0014 [0x6C] FADE_ENTITY_COLOR(entity_id=EventEntity, end_alpha=128*, fade_time=1*)
  1: 0x001D [0x00] END_REQSTACK()
```

### Event 65535.4

#### Metadata

| Field        | Value   |
|--------------|---------|
| Entrypoint   | 0x001E  |
| Data Size    | 9 bytes |
| Instructions | 3       |

```
      00 01 02 03 04 05 06 07  08 09 0A 0B 0C 0D 0E 0F
      -- -- -- -- -- -- -- --  -- -- -- -- -- -- -- --
0010:                                            22 00                ".
0020: 2F 00 F8 FF FF 7F 00                              /......         
```

#### Opcodes

```
  0: 0x001E [0x22] ENTITY_HIDE_FLAG(enabled=0x00)
  1: 0x0020 [0x2F] EventEntity->Render.Flags0 &= ~0x80000 // Bit 19
  2: 0x0026 [0x00] END_REQSTACK()
```

### Event 65535.5

#### Metadata

| Field        | Value   |
|--------------|---------|
| Entrypoint   | 0x0027  |
| Data Size    | 9 bytes |
| Instructions | 3       |

```
      00 01 02 03 04 05 06 07  08 09 0A 0B 0C 0D 0E 0F
      -- -- -- -- -- -- -- --  -- -- -- -- -- -- -- --
0020:                      22  01 2F 01 F8 FF FF 7F 00         "./......
```

#### Opcodes

```
  0: 0x0027 [0x22] ENTITY_HIDE_FLAG(enabled=0x01)
  1: 0x0029 [0x2F] EventEntity->Render.Flags0 |= 0x80000 // Bit 19
  2: 0x002F [0x00] END_REQSTACK()
```

### Event 65535.6

#### Metadata

| Field        | Value    |
|--------------|----------|
| Entrypoint   | 0x0030   |
| Data Size    | 10 bytes |
| Instructions | 2        |

```
      00 01 02 03 04 05 06 07  08 09 0A 0B 0C 0D 0E 0F
      -- -- -- -- -- -- -- --  -- -- -- -- -- -- -- --
0030: 6C F8 FF FF 7F 00 80 01  80 00                    l.........      
```

#### Opcodes

```
  0: 0x0030 [0x6C] FADE_ENTITY_COLOR(entity_id=EventEntity, end_alpha=0*, fade_time=1*)
  1: 0x0039 [0x00] END_REQSTACK()
```

### Event 65535.7

#### Metadata

| Field        | Value    |
|--------------|----------|
| Entrypoint   | 0x003A   |
| Data Size    | 10 bytes |
| Instructions | 2        |

```
      00 01 02 03 04 05 06 07  08 09 0A 0B 0C 0D 0E 0F
      -- -- -- -- -- -- -- --  -- -- -- -- -- -- -- --
0030:                                6C F8 FF FF 7F 02            l.....
0040: 80 01 80 00                                       ....            
```

#### Opcodes

```
  0: 0x003A [0x6C] FADE_ENTITY_COLOR(entity_id=EventEntity, end_alpha=128*, fade_time=1*)
  1: 0x0043 [0x00] END_REQSTACK()
```

### Event 1500

#### Metadata

| Field        | Value   |
|--------------|---------|
| Entrypoint   | 0x0044  |
| Data Size    | 1 bytes |
| Instructions | 1       |

```
      00 01 02 03 04 05 06 07  08 09 0A 0B 0C 0D 0E 0F
      -- -- -- -- -- -- -- --  -- -- -- -- -- -- -- --
0040:             00                                        .           
```

#### Opcodes

```
  0: 0x0044 [0x00] END_REQSTACK()
```

### Event 1503

#### Metadata

| Field        | Value   |
|--------------|---------|
| Entrypoint   | 0x0045  |
| Data Size    | 1 bytes |
| Instructions | 1       |

```
      00 01 02 03 04 05 06 07  08 09 0A 0B 0C 0D 0E 0F
      -- -- -- -- -- -- -- --  -- -- -- -- -- -- -- --
0040:                00                                      .          
```

#### Opcodes

```
  0: 0x0045 [0x00] END_REQSTACK()
```

### Event 65535.8

#### Metadata

| Field        | Value    |
|--------------|----------|
| Entrypoint   | 0x0046   |
| Data Size    | 21 bytes |
| Instructions | 2        |

```
      00 01 02 03 04 05 06 07  08 09 0A 0B 0C 0D 0E 0F
      -- -- -- -- -- -- -- --  -- -- -- -- -- -- -- --
0040:                   B6 0B  03 80 04 80 05 80 06 80        ..........
0050: 05 80 07 80 07 80 00 80  00 80 00                 ...........     
```

#### Opcodes

```
  0: 0x0046 [0xB6] ENTITY_APPEARANCE_HANDLER(case=Full entity look, race=8*, hair=6*, head=320*, body=342*, hands=320*, legs=239*, feet=239*, main=0*, sub=0*)
  1: 0x005A [0x00] END_REQSTACK()
```

### Event 65535.9

#### Metadata

| Field        | Value    |
|--------------|----------|
| Entrypoint   | 0x005B   |
| Data Size    | 21 bytes |
| Instructions | 2        |

```
      00 01 02 03 04 05 06 07  08 09 0A 0B 0C 0D 0E 0F
      -- -- -- -- -- -- -- --  -- -- -- -- -- -- -- --
0050:                                   B6 0B 03 80 04             .....
0060: 80 05 80 08 80 05 80 07  80 07 80 00 80 00 80 00  ................
```

#### Opcodes

```
  0: 0x005B [0xB6] ENTITY_APPEARANCE_HANDLER(case=Full entity look, race=8*, hair=6*, head=320*, body=345*, hands=320*, legs=239*, feet=239*, main=0*, sub=0*)
  1: 0x006F [0x00] END_REQSTACK()
```

### Event 65535.10

#### Metadata

| Field        | Value    |
|--------------|----------|
| Entrypoint   | 0x0070   |
| Data Size    | 13 bytes |
| Instructions | 3        |

```
      00 01 02 03 04 05 06 07  08 09 0A 0B 0C 0D 0E 0F
      -- -- -- -- -- -- -- --  -- -- -- -- -- -- -- --
0070: 92 01 F8 FF FF 7F 94 01  F8 FF FF 7F 00           .............   
```

#### Opcodes

```
  0: 0x0070 [0x92] EventEntity->Render.Flags3 ^= 0x01
  1: 0x0076 [0x94] EventEntity->Render.Flags3 ^= 0x01
  2: 0x007C [0x00] END_REQSTACK()
```

### Event 65535.11

#### Metadata

| Field        | Value    |
|--------------|----------|
| Entrypoint   | 0x007D   |
| Data Size    | 15 bytes |
| Instructions | 5        |

```
      00 01 02 03 04 05 06 07  08 09 0A 0B 0C 0D 0E 0F
      -- -- -- -- -- -- -- --  -- -- -- -- -- -- -- --
0070:                                         32 09 80               2..
0080: 1F 00 0A 80 0B 80 0C 80  1F 01 6F 00              ..........o.    
```

#### Opcodes

```
  0: 0x007D [0x32] ExtData[1]->MainSpeed = 13* * 0.1
  1: 0x0080 [0x1F] MOVE_ENTITY: EventEntity moves to X=0.468*, Z=-8.896*, Y=-1.500*
  2: 0x0088 [0x1F] MOVE_ENTITY: Update entity position (mode=1)
  3: 0x008A [0x6F] WAIT_FRAME_DELAY: Yield until WaitTime reaches zero
  4: 0x008B [0x00] END_REQSTACK()
```

### Event 65535.12

#### Metadata

| Field        | Value    |
|--------------|----------|
| Entrypoint   | 0x008C   |
| Data Size    | 47 bytes |
| Instructions | 11       |

```
      00 01 02 03 04 05 06 07  08 09 0A 0B 0C 0D 0E 0F
      -- -- -- -- -- -- -- --  -- -- -- -- -- -- -- --
0080:                                      32 09 80 1F              2...
0090: 00 0D 80 0E 80 0C 80 1F  01 1F 00 0F 80 10 80 0C  ................
00A0: 80 1F 01 1F 00 11 80 12  80 0C 80 1F 01 6F 4B F8  .............oK.
00B0: FF FF 7F 13 80 7B F8 FF  FF 7F 00                 .....{.....     
```

#### Opcodes

```
  0: 0x008C [0x32] ExtData[1]->MainSpeed = 13* * 0.1
  1: 0x008F [0x1F] MOVE_ENTITY: EventEntity moves to X=3.160*, Z=-10.925*, Y=-1.500*
  2: 0x0097 [0x1F] MOVE_ENTITY: Update entity position (mode=1)
  3: 0x0099 [0x1F] MOVE_ENTITY: EventEntity moves to X=4.394*, Z=-19.936*, Y=-1.500*
  4: 0x00A1 [0x1F] MOVE_ENTITY: Update entity position (mode=1)
  5: 0x00A3 [0x1F] MOVE_ENTITY: EventEntity moves to X=8.800*, Z=-20.000*, Y=-1.500*
  6: 0x00AB [0x1F] MOVE_ENTITY: Update entity position (mode=1)
  7: 0x00AD [0x6F] WAIT_FRAME_DELAY: Yield until WaitTime reaches zero
  8: 0x00AE [0x4B] UPDATE_ENTITY_YAW(entity=EventEntity, yaw=11.2°*)
  9: 0x00B5 [0x7B] EventEntity stops talking
 10: 0x00BA [0x00] END_REQSTACK()
```

### Event 65535.13

#### Metadata

| Field        | Value    |
|--------------|----------|
| Entrypoint   | 0x00BB   |
| Data Size    | 24 bytes |
| Instructions | 6        |

```
      00 01 02 03 04 05 06 07  08 09 0A 0B 0C 0D 0E 0F
      -- -- -- -- -- -- -- --  -- -- -- -- -- -- -- --
00B0:                                   32 09 80 1F 00             2....
00C0: 14 80 15 80 0C 80 1F 01  6F 4A 99 10 10 01 92 10  ........oJ......
00D0: 10 01 00                                          ...             
```

#### Opcodes

```
  0: 0x00BB [0x32] ExtData[1]->MainSpeed = 13* * 0.1
  1: 0x00BE [0x1F] MOVE_ENTITY: EventEntity moves to X=-1.182*, Z=-15.507*, Y=-1.500*
  2: 0x00C6 [0x1F] MOVE_ENTITY: Update entity position (mode=1)
  3: 0x00C8 [0x6F] WAIT_FRAME_DELAY: Yield until WaitTime reaches zero
  4: 0x00C9 [0x4A] Gratzigg (ID: 17830041/0x01101099) looks at Melvien (ID: 17830034/0x01101092)
  5: 0x00D2 [0x00] END_REQSTACK()
```

### Event 65535.14

#### Metadata

| Field        | Value    |
|--------------|----------|
| Entrypoint   | 0x00D3   |
| Data Size    | 14 bytes |
| Instructions | 4        |

```
      00 01 02 03 04 05 06 07  08 09 0A 0B 0C 0D 0E 0F
      -- -- -- -- -- -- -- --  -- -- -- -- -- -- -- --
00D0:          32 09 80 1F 00  16 80 17 80 0C 80 1F 01     2............
00E0: 00                                                .               
```

#### Opcodes

```
  0: 0x00D3 [0x32] ExtData[1]->MainSpeed = 13* * 0.1
  1: 0x00D6 [0x1F] MOVE_ENTITY: EventEntity moves to X=-0.084*, Z=-13.356*, Y=-1.500*
  2: 0x00DE [0x1F] MOVE_ENTITY: Update entity position (mode=1)
  3: 0x00E0 [0x00] END_REQSTACK()
```

### Event 65535.15

#### Metadata

| Field        | Value    |
|--------------|----------|
| Entrypoint   | 0x00E1   |
| Data Size    | 33 bytes |
| Instructions | 7        |

```
      00 01 02 03 04 05 06 07  08 09 0A 0B 0C 0D 0E 0F
      -- -- -- -- -- -- -- --  -- -- -- -- -- -- -- --
00E0:    32 09 80 1F 00 18 80  19 80 0C 80 1F 01 6F 4A   2............oJ
00F0: 99 10 10 01 96 10 10 01  4A 96 10 10 01 99 10 10  ........J.......
0100: 01 00                                             ..              
```

#### Opcodes

```
  0: 0x00E1 [0x32] ExtData[1]->MainSpeed = 13* * 0.1
  1: 0x00E4 [0x1F] MOVE_ENTITY: EventEntity moves to X=-6.012*, Z=-14.304*, Y=-1.500*
  2: 0x00EC [0x1F] MOVE_ENTITY: Update entity position (mode=1)
  3: 0x00EE [0x6F] WAIT_FRAME_DELAY: Yield until WaitTime reaches zero
  4: 0x00EF [0x4A] Gratzigg (ID: 17830041/0x01101099) looks at Chero-Machero (ID: 17830038/0x01101096)
  5: 0x00F8 [0x4A] Chero-Machero (ID: 17830038/0x01101096) looks at Gratzigg (ID: 17830041/0x01101099)
  6: 0x0101 [0x00] END_REQSTACK()
```

### Event 65535.16

#### Metadata

| Field        | Value    |
|--------------|----------|
| Entrypoint   | 0x0102   |
| Data Size    | 15 bytes |
| Instructions | 5        |

```
      00 01 02 03 04 05 06 07  08 09 0A 0B 0C 0D 0E 0F
      -- -- -- -- -- -- -- --  -- -- -- -- -- -- -- --
0100:       32 09 80 1F 00 1A  80 1B 80 0C 80 1F 01 6F    2............o
0110: 00                                                .               
```

#### Opcodes

```
  0: 0x0102 [0x32] ExtData[1]->MainSpeed = 13* * 0.1
  1: 0x0105 [0x1F] MOVE_ENTITY: EventEntity moves to X=-0.405*, Z=-15.628*, Y=-1.500*
  2: 0x010D [0x1F] MOVE_ENTITY: Update entity position (mode=1)
  3: 0x010F [0x6F] WAIT_FRAME_DELAY: Yield until WaitTime reaches zero
  4: 0x0110 [0x00] END_REQSTACK()
```

### Event 65535.17

#### Metadata

| Field        | Value    |
|--------------|----------|
| Entrypoint   | 0x0111   |
| Data Size    | 14 bytes |
| Instructions | 4        |

```
      00 01 02 03 04 05 06 07  08 09 0A 0B 0C 0D 0E 0F
      -- -- -- -- -- -- -- --  -- -- -- -- -- -- -- --
0110:    32 1C 80 1F 00 1D 80  1E 80 1F 80 1F 01 00      2............. 
```

#### Opcodes

```
  0: 0x0111 [0x32] ExtData[1]->MainSpeed = 40* * 0.1
  1: 0x0114 [0x1F] MOVE_ENTITY: EventEntity moves to X=-78.022*, Z=0.193*, Y=-0.150*
  2: 0x011C [0x1F] MOVE_ENTITY: Update entity position (mode=1)
  3: 0x011E [0x00] END_REQSTACK()
```

### Event 1507

#### Metadata

| Field        | Value   |
|--------------|---------|
| Entrypoint   | 0x011F  |
| Data Size    | 1 bytes |
| Instructions | 1       |

```
      00 01 02 03 04 05 06 07  08 09 0A 0B 0C 0D 0E 0F
      -- -- -- -- -- -- -- --  -- -- -- -- -- -- -- --
0110:                                               00                 .
```

#### Opcodes

```
  0: 0x011F [0x00] END_REQSTACK()
```

### Event 1509

#### Metadata

| Field        | Value   |
|--------------|---------|
| Entrypoint   | 0x0120  |
| Data Size    | 1 bytes |
| Instructions | 1       |

```
      00 01 02 03 04 05 06 07  08 09 0A 0B 0C 0D 0E 0F
      -- -- -- -- -- -- -- --  -- -- -- -- -- -- -- --
0120: 00                                                .               
```

#### Opcodes

```
  0: 0x0120 [0x00] END_REQSTACK()
```

### Event 1510

#### Metadata

| Field        | Value   |
|--------------|---------|
| Entrypoint   | 0x0121  |
| Data Size    | 1 bytes |
| Instructions | 1       |

```
      00 01 02 03 04 05 06 07  08 09 0A 0B 0C 0D 0E 0F
      -- -- -- -- -- -- -- --  -- -- -- -- -- -- -- --
0120:    00                                              .              
```

#### Opcodes

```
  0: 0x0121 [0x00] END_REQSTACK()
```

### Event 1515

#### Metadata

| Field        | Value   |
|--------------|---------|
| Entrypoint   | 0x0122  |
| Data Size    | 1 bytes |
| Instructions | 1       |

```
      00 01 02 03 04 05 06 07  08 09 0A 0B 0C 0D 0E 0F
      -- -- -- -- -- -- -- --  -- -- -- -- -- -- -- --
0120:       00                                            .             
```

#### Opcodes

```
  0: 0x0122 [0x00] END_REQSTACK()
```

### Event 65535.18

#### Metadata

| Field        | Value    |
|--------------|----------|
| Entrypoint   | 0x0123   |
| Data Size    | 47 bytes |
| Instructions | 9        |

```
      00 01 02 03 04 05 06 07  08 09 0A 0B 0C 0D 0E 0F
      -- -- -- -- -- -- -- --  -- -- -- -- -- -- -- --
0120:          32 09 80 1F 00  20 80 21 80 22 80 1F 01     2.... .!."...
0130: 2C B1 10 10 01 B1 10 10  01 63 6C 6F 73 1F 00 23  ,........clos..#
0140: 80 24 80 00 80 1F 01 1F  00 25 80 26 80 00 80 1F  .$.......%.&....
0150: 01 00                                             ..              
```

#### Opcodes

```
  0: 0x0123 [0x32] ExtData[1]->MainSpeed = 13* * 0.1
  1: 0x0126 [0x1F] MOVE_ENTITY: EventEntity moves to X=-50.990*, Z=-13.789*, Y=-0.499*
  2: 0x012E [0x1F] MOVE_ENTITY: Update entity position (mode=1)
  3: 0x0130 [0x2C] CREATE_SCHEDULER_TASK: Create scheduler "clos" with entities [Door: (ID: 17830065/0x011010B1), Door: (ID: 17830065/0x011010B1)]
  4: 0x013D [0x1F] MOVE_ENTITY: EventEntity moves to X=-48.889*, Z=-13.934*, Y=0.000*
  5: 0x0145 [0x1F] MOVE_ENTITY: Update entity position (mode=1)
  6: 0x0147 [0x1F] MOVE_ENTITY: EventEntity moves to X=-45.126*, Z=-13.948*, Y=0.000*
  7: 0x014F [0x1F] MOVE_ENTITY: Update entity position (mode=1)
  8: 0x0151 [0x00] END_REQSTACK()
```

### Event 1532

#### Metadata

| Field        | Value    |
|--------------|----------|
| Entrypoint   | 0x0152   |
| Data Size    | 21 bytes |
| Instructions | 2        |

```
      00 01 02 03 04 05 06 07  08 09 0A 0B 0C 0D 0E 0F
      -- -- -- -- -- -- -- --  -- -- -- -- -- -- -- --
0150:       B6 0B 03 80 04 80  05 80 06 80 05 80 07 80    ..............
0160: 07 80 00 80 00 80 00                              .......         
```

#### Opcodes

```
  0: 0x0152 [0xB6] ENTITY_APPEARANCE_HANDLER(case=Full entity look, race=8*, hair=6*, head=320*, body=342*, hands=320*, legs=239*, feet=239*, main=0*, sub=0*)
  1: 0x0166 [0x00] END_REQSTACK()
```

### Event 1533

#### Metadata

| Field        | Value    |
|--------------|----------|
| Entrypoint   | 0x0167   |
| Data Size    | 21 bytes |
| Instructions | 2        |

```
      00 01 02 03 04 05 06 07  08 09 0A 0B 0C 0D 0E 0F
      -- -- -- -- -- -- -- --  -- -- -- -- -- -- -- --
0160:                      B6  0B 03 80 04 80 05 80 08         .........
0170: 80 05 80 07 80 07 80 00  80 00 80 00              ............    
```

#### Opcodes

```
  0: 0x0167 [0xB6] ENTITY_APPEARANCE_HANDLER(case=Full entity look, race=8*, hair=6*, head=320*, body=345*, hands=320*, legs=239*, feet=239*, main=0*, sub=0*)
  1: 0x017B [0x00] END_REQSTACK()
```

### Event 1535

#### Metadata

| Field        | Value    |
|--------------|----------|
| Entrypoint   | 0x017C   |
| Data Size    | 21 bytes |
| Instructions | 2        |

```
      00 01 02 03 04 05 06 07  08 09 0A 0B 0C 0D 0E 0F
      -- -- -- -- -- -- -- --  -- -- -- -- -- -- -- --
0170:                                      B6 0B 03 80              ....
0180: 04 80 05 80 08 80 05 80  07 80 07 80 00 80 00 80  ................
0190: 00                                                .               
```

#### Opcodes

```
  0: 0x017C [0xB6] ENTITY_APPEARANCE_HANDLER(case=Full entity look, race=8*, hair=6*, head=320*, body=345*, hands=320*, legs=239*, feet=239*, main=0*, sub=0*)
  1: 0x0190 [0x00] END_REQSTACK()
```

### Event 1551

#### Metadata

| Field        | Value    |
|--------------|----------|
| Entrypoint   | 0x0191   |
| Data Size    | 21 bytes |
| Instructions | 2        |

```
      00 01 02 03 04 05 06 07  08 09 0A 0B 0C 0D 0E 0F
      -- -- -- -- -- -- -- --  -- -- -- -- -- -- -- --
0190:    B6 0B 03 80 04 80 05  80 08 80 05 80 07 80 07   ...............
01A0: 80 00 80 00 80 00                                 ......          
```

#### Opcodes

```
  0: 0x0191 [0xB6] ENTITY_APPEARANCE_HANDLER(case=Full entity look, race=8*, hair=6*, head=320*, body=345*, hands=320*, legs=239*, feet=239*, main=0*, sub=0*)
  1: 0x01A5 [0x00] END_REQSTACK()
```

### Event 1552

#### Metadata

| Field        | Value    |
|--------------|----------|
| Entrypoint   | 0x01A6   |
| Data Size    | 21 bytes |
| Instructions | 2        |

```
      00 01 02 03 04 05 06 07  08 09 0A 0B 0C 0D 0E 0F
      -- -- -- -- -- -- -- --  -- -- -- -- -- -- -- --
01A0:                   B6 0B  03 80 04 80 05 80 08 80        ..........
01B0: 05 80 07 80 07 80 00 80  00 80 00                 ...........     
```

#### Opcodes

```
  0: 0x01A6 [0xB6] ENTITY_APPEARANCE_HANDLER(case=Full entity look, race=8*, hair=6*, head=320*, body=345*, hands=320*, legs=239*, feet=239*, main=0*, sub=0*)
  1: 0x01BA [0x00] END_REQSTACK()
```

### Event 1549

#### Metadata

| Field        | Value    |
|--------------|----------|
| Entrypoint   | 0x01BB   |
| Data Size    | 21 bytes |
| Instructions | 2        |

```
      00 01 02 03 04 05 06 07  08 09 0A 0B 0C 0D 0E 0F
      -- -- -- -- -- -- -- --  -- -- -- -- -- -- -- --
01B0:                                   B6 0B 03 80 04             .....
01C0: 80 05 80 08 80 05 80 07  80 07 80 00 80 00 80 00  ................
```

#### Opcodes

```
  0: 0x01BB [0xB6] ENTITY_APPEARANCE_HANDLER(case=Full entity look, race=8*, hair=6*, head=320*, body=345*, hands=320*, legs=239*, feet=239*, main=0*, sub=0*)
  1: 0x01CF [0x00] END_REQSTACK()
```

### Event 65535.19

#### Metadata

| Field        | Value    |
|--------------|----------|
| Entrypoint   | 0x01D0   |
| Data Size    | 27 bytes |
| Instructions | 6        |

```
      00 01 02 03 04 05 06 07  08 09 0A 0B 0C 0D 0E 0F
      -- -- -- -- -- -- -- --  -- -- -- -- -- -- -- --
01D0: 32 09 80 1F 00 27 80 28  80 0C 80 1F 01 79 00 90  2....'.(.....y..
01E0: 10 10 01 99 10 10 01 1C  29 80 00                 ........)..     
```

#### Opcodes

```
  0: 0x01D0 [0x32] ExtData[1]->MainSpeed = 13* * 0.1
  1: 0x01D3 [0x1F] MOVE_ENTITY: EventEntity moves to X=0.990*, Z=-16.892*, Y=-1.500*
  2: 0x01DB [0x1F] MOVE_ENTITY: Update entity position (mode=1)
  3: 0x01DD [0x79] Arciela (ID: 17830032/0x01101090) looks at Gratzigg (ID: 17830041/0x01101099) (Basic look)
  4: 0x01E7 [0x1C] WAIT(30* ticks)
  5: 0x01EA [0x00] END_REQSTACK()
```

### Event 65535.20

#### Metadata

| Field        | Value    |
|--------------|----------|
| Entrypoint   | 0x01EB   |
| Data Size    | 16 bytes |
| Instructions | 2        |

```
      00 01 02 03 04 05 06 07  08 09 0A 0B 0C 0D 0E 0F
      -- -- -- -- -- -- -- --  -- -- -- -- -- -- -- --
01E0:                                   66 2A 80 F8 FF             f*...
01F0: FF 7F F8 FF FF 7F 74 6C  6B 30 00                 ......tlk0.     
```

#### Opcodes

```
  0: 0x01EB [0x66] LOAD_EXT_SCHEDULER_MAIN: Load scheduler "tlk0" with entities [EventEntity, EventEntity], work=69*
  1: 0x01FA [0x00] END_REQSTACK()
```

### Event 65535.21

#### Metadata

| Field        | Value    |
|--------------|----------|
| Entrypoint   | 0x01FB   |
| Data Size    | 14 bytes |
| Instructions | 2        |

```
      00 01 02 03 04 05 06 07  08 09 0A 0B 0C 0D 0E 0F
      -- -- -- -- -- -- -- --  -- -- -- -- -- -- -- --
01F0:                                   53 F8 FF FF 7F             S....
0200: F8 FF FF 7F 74 6C 6B 30  00                       ....tlk0.       
```

#### Opcodes

```
  0: 0x01FB [0x53] WAIT_SCHEDULER_TASK: Wait for scheduler "tlk0" with entities [EventEntity, EventEntity]
  1: 0x0208 [0x00] END_REQSTACK()
```

### Event 65535.22

#### Metadata

| Field        | Value    |
|--------------|----------|
| Entrypoint   | 0x0209   |
| Data Size    | 16 bytes |
| Instructions | 2        |

```
      00 01 02 03 04 05 06 07  08 09 0A 0B 0C 0D 0E 0F
      -- -- -- -- -- -- -- --  -- -- -- -- -- -- -- --
0200:                             66 2A 80 F8 FF FF 7F           f*.....
0210: F8 FF FF 7F 74 6C 6B 31  00                       ....tlk1.       
```

#### Opcodes

```
  0: 0x0209 [0x66] LOAD_EXT_SCHEDULER_MAIN: Load scheduler "tlk1" with entities [EventEntity, EventEntity], work=69*
  1: 0x0218 [0x00] END_REQSTACK()
```

### Event 65535.23

#### Metadata

| Field        | Value    |
|--------------|----------|
| Entrypoint   | 0x0219   |
| Data Size    | 14 bytes |
| Instructions | 2        |

```
      00 01 02 03 04 05 06 07  08 09 0A 0B 0C 0D 0E 0F
      -- -- -- -- -- -- -- --  -- -- -- -- -- -- -- --
0210:                             53 F8 FF FF 7F F8 FF           S......
0220: FF 7F 74 6C 6B 31 00                              ..tlk1.         
```

#### Opcodes

```
  0: 0x0219 [0x53] WAIT_SCHEDULER_TASK: Wait for scheduler "tlk1" with entities [EventEntity, EventEntity]
  1: 0x0226 [0x00] END_REQSTACK()
```

### Event 65535.24

#### Metadata

| Field        | Value    |
|--------------|----------|
| Entrypoint   | 0x0227   |
| Data Size    | 16 bytes |
| Instructions | 2        |

```
      00 01 02 03 04 05 06 07  08 09 0A 0B 0C 0D 0E 0F
      -- -- -- -- -- -- -- --  -- -- -- -- -- -- -- --
0220:                      66  2B 80 F8 FF FF 7F F8 FF         f+.......
0230: FF 7F 70 61 73 30 00                              ..pas0.         
```

#### Opcodes

```
  0: 0x0227 [0x66] LOAD_EXT_SCHEDULER_MAIN: Load scheduler "pas0" with entities [EventEntity, EventEntity], work=131*
  1: 0x0236 [0x00] END_REQSTACK()
```

### Event 65535.25

#### Metadata

| Field        | Value    |
|--------------|----------|
| Entrypoint   | 0x0237   |
| Data Size    | 14 bytes |
| Instructions | 2        |

```
      00 01 02 03 04 05 06 07  08 09 0A 0B 0C 0D 0E 0F
      -- -- -- -- -- -- -- --  -- -- -- -- -- -- -- --
0230:                      53  F8 FF FF 7F F8 FF FF 7F         S........
0240: 70 61 73 30 00                                    pas0.           
```

#### Opcodes

```
  0: 0x0237 [0x53] WAIT_SCHEDULER_TASK: Wait for scheduler "pas0" with entities [EventEntity, EventEntity]
  1: 0x0244 [0x00] END_REQSTACK()
```

### Event 65535.26

#### Metadata

| Field        | Value    |
|--------------|----------|
| Entrypoint   | 0x0245   |
| Data Size    | 16 bytes |
| Instructions | 2        |

```
      00 01 02 03 04 05 06 07  08 09 0A 0B 0C 0D 0E 0F
      -- -- -- -- -- -- -- --  -- -- -- -- -- -- -- --
0240:                66 2A 80  F8 FF FF 7F F8 FF FF 7F       f*.........
0250: 74 68 6B 31 00                                    thk1.           
```

#### Opcodes

```
  0: 0x0245 [0x66] LOAD_EXT_SCHEDULER_MAIN: Load scheduler "thk1" with entities [EventEntity, EventEntity], work=69*
  1: 0x0254 [0x00] END_REQSTACK()
```

### Event 65535.27

#### Metadata

| Field        | Value    |
|--------------|----------|
| Entrypoint   | 0x0255   |
| Data Size    | 14 bytes |
| Instructions | 2        |

```
      00 01 02 03 04 05 06 07  08 09 0A 0B 0C 0D 0E 0F
      -- -- -- -- -- -- -- --  -- -- -- -- -- -- -- --
0250:                53 F8 FF  FF 7F F8 FF FF 7F 74 68       S........th
0260: 6B 31 00                                          k1.             
```

#### Opcodes

```
  0: 0x0255 [0x53] WAIT_SCHEDULER_TASK: Wait for scheduler "thk1" with entities [EventEntity, EventEntity]
  1: 0x0262 [0x00] END_REQSTACK()
```

### Event 65535.28

#### Metadata

| Field        | Value    |
|--------------|----------|
| Entrypoint   | 0x0263   |
| Data Size    | 16 bytes |
| Instructions | 2        |

```
      00 01 02 03 04 05 06 07  08 09 0A 0B 0C 0D 0E 0F
      -- -- -- -- -- -- -- --  -- -- -- -- -- -- -- --
0260:          66 2A 80 F8 FF  FF 7F F8 FF FF 7F 74 68     f*.........th
0270: 6B 32 00                                          k2.             
```

#### Opcodes

```
  0: 0x0263 [0x66] LOAD_EXT_SCHEDULER_MAIN: Load scheduler "thk2" with entities [EventEntity, EventEntity], work=69*
  1: 0x0272 [0x00] END_REQSTACK()
```

### Event 65535.29

#### Metadata

| Field        | Value    |
|--------------|----------|
| Entrypoint   | 0x0273   |
| Data Size    | 14 bytes |
| Instructions | 2        |

```
      00 01 02 03 04 05 06 07  08 09 0A 0B 0C 0D 0E 0F
      -- -- -- -- -- -- -- --  -- -- -- -- -- -- -- --
0270:          53 F8 FF FF 7F  F8 FF FF 7F 74 68 6B 32     S........thk2
0280: 00                                                .               
```

#### Opcodes

```
  0: 0x0273 [0x53] WAIT_SCHEDULER_TASK: Wait for scheduler "thk2" with entities [EventEntity, EventEntity]
  1: 0x0280 [0x00] END_REQSTACK()
```

### Event 65535.30

#### Metadata

| Field        | Value    |
|--------------|----------|
| Entrypoint   | 0x0281   |
| Data Size    | 16 bytes |
| Instructions | 4        |

```
      00 01 02 03 04 05 06 07  08 09 0A 0B 0C 0D 0E 0F
      -- -- -- -- -- -- -- --  -- -- -- -- -- -- -- --
0280:    6E F8 FF FF 7F 2C 80  99 F8 FF FF 7F 1C 2D 80   n....,.......-.
0290: 00                                                .               
```

#### Opcodes

```
  0: 0x0281 [0x6E] EventEntity uses emote 21*
  1: 0x0288 [0x99] Wait for EventEntity animation to complete
  2: 0x028D [0x1C] WAIT(60* ticks)
  3: 0x0290 [0x00] END_REQSTACK()
```

### Event 65535.31

#### Metadata

| Field        | Value    |
|--------------|----------|
| Entrypoint   | 0x0291   |
| Data Size    | 16 bytes |
| Instructions | 4        |

```
      00 01 02 03 04 05 06 07  08 09 0A 0B 0C 0D 0E 0F
      -- -- -- -- -- -- -- --  -- -- -- -- -- -- -- --
0290:    6E F8 FF FF 7F 2E 80  99 F8 FF FF 7F 1C 2D 80   n............-.
02A0: 00                                                .               
```

#### Opcodes

```
  0: 0x0291 [0x6E] EventEntity uses emote 7*
  1: 0x0298 [0x99] Wait for EventEntity animation to complete
  2: 0x029D [0x1C] WAIT(60* ticks)
  3: 0x02A0 [0x00] END_REQSTACK()
```

### Event 65535.32

#### Metadata

| Field        | Value    |
|--------------|----------|
| Entrypoint   | 0x02A1   |
| Data Size    | 16 bytes |
| Instructions | 4        |

```
      00 01 02 03 04 05 06 07  08 09 0A 0B 0C 0D 0E 0F
      -- -- -- -- -- -- -- --  -- -- -- -- -- -- -- --
02A0:    6E F8 FF FF 7F 04 80  99 F8 FF FF 7F 1C 2D 80   n............-.
02B0: 00                                                .               
```

#### Opcodes

```
  0: 0x02A1 [0x6E] EventEntity uses emote 6*
  1: 0x02A8 [0x99] Wait for EventEntity animation to complete
  2: 0x02AD [0x1C] WAIT(60* ticks)
  3: 0x02B0 [0x00] END_REQSTACK()
```

### Event 65535.33

#### Metadata

| Field        | Value    |
|--------------|----------|
| Entrypoint   | 0x02B1   |
| Data Size    | 16 bytes |
| Instructions | 4        |

```
      00 01 02 03 04 05 06 07  08 09 0A 0B 0C 0D 0E 0F
      -- -- -- -- -- -- -- --  -- -- -- -- -- -- -- --
02B0:    6E F8 FF FF 7F 2F 80  99 F8 FF FF 7F 1C 2D 80   n..../.......-.
02C0: 00                                                .               
```

#### Opcodes

```
  0: 0x02B1 [0x6E] EventEntity uses emote 11*
  1: 0x02B8 [0x99] Wait for EventEntity animation to complete
  2: 0x02BD [0x1C] WAIT(60* ticks)
  3: 0x02C0 [0x00] END_REQSTACK()
```

### Event 65535.34

#### Metadata

| Field        | Value    |
|--------------|----------|
| Entrypoint   | 0x02C1   |
| Data Size    | 16 bytes |
| Instructions | 4        |

```
      00 01 02 03 04 05 06 07  08 09 0A 0B 0C 0D 0E 0F
      -- -- -- -- -- -- -- --  -- -- -- -- -- -- -- --
02C0:    6E F8 FF FF 7F 30 80  99 F8 FF FF 7F 1C 2D 80   n....0.......-.
02D0: 00                                                .               
```

#### Opcodes

```
  0: 0x02C1 [0x6E] EventEntity uses emote 14*
  1: 0x02C8 [0x99] Wait for EventEntity animation to complete
  2: 0x02CD [0x1C] WAIT(60* ticks)
  3: 0x02D0 [0x00] END_REQSTACK()
```

### Event 65535.35

#### Metadata

| Field        | Value    |
|--------------|----------|
| Entrypoint   | 0x02D1   |
| Data Size    | 16 bytes |
| Instructions | 4        |

```
      00 01 02 03 04 05 06 07  08 09 0A 0B 0C 0D 0E 0F
      -- -- -- -- -- -- -- --  -- -- -- -- -- -- -- --
02D0:    6E F8 FF FF 7F 31 80  99 F8 FF FF 7F 1C 2D 80   n....1.......-.
02E0: 00                                                .               
```

#### Opcodes

```
  0: 0x02D1 [0x6E] EventEntity uses emote 4*
  1: 0x02D8 [0x99] Wait for EventEntity animation to complete
  2: 0x02DD [0x1C] WAIT(60* ticks)
  3: 0x02E0 [0x00] END_REQSTACK()
```

### Event 65535.36

#### Metadata

| Field        | Value    |
|--------------|----------|
| Entrypoint   | 0x02E1   |
| Data Size    | 16 bytes |
| Instructions | 4        |

```
      00 01 02 03 04 05 06 07  08 09 0A 0B 0C 0D 0E 0F
      -- -- -- -- -- -- -- --  -- -- -- -- -- -- -- --
02E0:    6E F8 FF FF 7F 32 80  99 F8 FF FF 7F 1C 2D 80   n....2.......-.
02F0: 00                                                .               
```

#### Opcodes

```
  0: 0x02E1 [0x6E] EventEntity uses emote 19*
  1: 0x02E8 [0x99] Wait for EventEntity animation to complete
  2: 0x02ED [0x1C] WAIT(60* ticks)
  3: 0x02F0 [0x00] END_REQSTACK()
```

### Event 65535.37

#### Metadata

| Field        | Value    |
|--------------|----------|
| Entrypoint   | 0x02F1   |
| Data Size    | 16 bytes |
| Instructions | 4        |

```
      00 01 02 03 04 05 06 07  08 09 0A 0B 0C 0D 0E 0F
      -- -- -- -- -- -- -- --  -- -- -- -- -- -- -- --
02F0:    6E F8 FF FF 7F 33 80  99 F8 FF FF 7F 1C 2D 80   n....3.......-.
0300: 00                                                .               
```

#### Opcodes

```
  0: 0x02F1 [0x6E] EventEntity uses emote 12*
  1: 0x02F8 [0x99] Wait for EventEntity animation to complete
  2: 0x02FD [0x1C] WAIT(60* ticks)
  3: 0x0300 [0x00] END_REQSTACK()
```

### Event 65535.38

#### Metadata

| Field        | Value    |
|--------------|----------|
| Entrypoint   | 0x0301   |
| Data Size    | 16 bytes |
| Instructions | 4        |

```
      00 01 02 03 04 05 06 07  08 09 0A 0B 0C 0D 0E 0F
      -- -- -- -- -- -- -- --  -- -- -- -- -- -- -- --
0300:    6E F8 FF FF 7F 33 80  99 F8 FF FF 7F 1C 2D 80   n....3.......-.
0310: 00                                                .               
```

#### Opcodes

```
  0: 0x0301 [0x6E] EventEntity uses emote 12*
  1: 0x0308 [0x99] Wait for EventEntity animation to complete
  2: 0x030D [0x1C] WAIT(60* ticks)
  3: 0x0310 [0x00] END_REQSTACK()
```

### Event 65535.39

#### Metadata

| Field        | Value    |
|--------------|----------|
| Entrypoint   | 0x0311   |
| Data Size    | 16 bytes |
| Instructions | 4        |

```
      00 01 02 03 04 05 06 07  08 09 0A 0B 0C 0D 0E 0F
      -- -- -- -- -- -- -- --  -- -- -- -- -- -- -- --
0310:    6E F8 FF FF 7F 34 80  99 F8 FF FF 7F 1C 2D 80   n....4.......-.
0320: 00                                                .               
```

#### Opcodes

```
  0: 0x0311 [0x6E] EventEntity uses emote 29*
  1: 0x0318 [0x99] Wait for EventEntity animation to complete
  2: 0x031D [0x1C] WAIT(60* ticks)
  3: 0x0320 [0x00] END_REQSTACK()
```

### Event 65535.40

#### Metadata

| Field        | Value   |
|--------------|---------|
| Entrypoint   | 0x0321  |
| Data Size    | 9 bytes |
| Instructions | 3       |

```
      00 01 02 03 04 05 06 07  08 09 0A 0B 0C 0D 0E 0F
      -- -- -- -- -- -- -- --  -- -- -- -- -- -- -- --
0320:    5E 69 64 6C 30 1C 2D  80 00                     ^idl0.-..      
```

#### Opcodes

```
  0: 0x0321 [0x5E] EventEntity goes idle (kills current action) (animation: "idl0")
  1: 0x0326 [0x1C] WAIT(60* ticks)
  2: 0x0329 [0x00] END_REQSTACK()
```

### Event 65535.41

#### Metadata

| Field        | Value    |
|--------------|----------|
| Entrypoint   | 0x032A   |
| Data Size    | 19 bytes |
| Instructions | 2        |

```
      00 01 02 03 04 05 06 07  08 09 0A 0B 0C 0D 0E 0F
      -- -- -- -- -- -- -- --  -- -- -- -- -- -- -- --
0320:                                5F 05 35 80 F8 FF            _.5...
0330: FF 7F F8 FF FF 7F 6B 6F  62 30 36 80 00           ......kob06..   
```

#### Opcodes

```
  0: 0x032A [0x5F] MULTI_HANDLER_COMPLEX(mode=0x05 - Load ext scheduler with flag (OpCode 0x5B mode 0, flag 1), ref=2664*, entity1=EventEntity, entity2=EventEntity, string="kob0", extra=300*)
  1: 0x033C [0x00] END_REQSTACK()
```

### Event 65535.42

#### Metadata

| Field        | Value    |
|--------------|----------|
| Entrypoint   | 0x033D   |
| Data Size    | 15 bytes |
| Instructions | 2        |

```
      00 01 02 03 04 05 06 07  08 09 0A 0B 0C 0D 0E 0F
      -- -- -- -- -- -- -- --  -- -- -- -- -- -- -- --
0330:                                         5F 07 F8               _..
0340: FF FF 7F F8 FF FF 7F 6B  6F 62 30 00              .......kob0.    
```

#### Opcodes

```
  0: 0x033D [0x5F] MULTI_HANDLER_COMPLEX(mode=0x07 - Wait scheduler task (OpCode 0x53))
  1: 0x034B [0x00] END_REQSTACK()
```

### Event 65535.43

#### Metadata

| Field        | Value    |
|--------------|----------|
| Entrypoint   | 0x034C   |
| Data Size    | 19 bytes |
| Instructions | 2        |

```
      00 01 02 03 04 05 06 07  08 09 0A 0B 0C 0D 0E 0F
      -- -- -- -- -- -- -- --  -- -- -- -- -- -- -- --
0340:                                      5F 05 37 80              _.7.
0350: F8 FF FF 7F F8 FF FF 7F  72 65 64 30 38 80 00     ........red08.. 
```

#### Opcodes

```
  0: 0x034C [0x5F] MULTI_HANDLER_COMPLEX(mode=0x05 - Load ext scheduler with flag (OpCode 0x5B mode 0, flag 1), ref=2665*, entity1=EventEntity, entity2=EventEntity, string="red0", extra=290*)
  1: 0x035E [0x00] END_REQSTACK()
```

### Event 65535.44

#### Metadata

| Field        | Value    |
|--------------|----------|
| Entrypoint   | 0x035F   |
| Data Size    | 15 bytes |
| Instructions | 2        |

```
      00 01 02 03 04 05 06 07  08 09 0A 0B 0C 0D 0E 0F
      -- -- -- -- -- -- -- --  -- -- -- -- -- -- -- --
0350:                                               5F                 _
0360: 07 F8 FF FF 7F F8 FF FF  7F 72 65 64 30 00        .........red0.  
```

#### Opcodes

```
  0: 0x035F [0x5F] MULTI_HANDLER_COMPLEX(mode=0x07 - Wait scheduler task (OpCode 0x53))
  1: 0x036D [0x00] END_REQSTACK()
```

### Event 65535.45

#### Metadata

| Field        | Value    |
|--------------|----------|
| Entrypoint   | 0x036E   |
| Data Size    | 19 bytes |
| Instructions | 2        |

```
      00 01 02 03 04 05 06 07  08 09 0A 0B 0C 0D 0E 0F
      -- -- -- -- -- -- -- --  -- -- -- -- -- -- -- --
0360:                                            5F 05                _.
0370: 37 80 F8 FF FF 7F F8 FF  FF 7F 72 65 64 31 39 80  7.........red19.
0380: 00                                                .               
```

#### Opcodes

```
  0: 0x036E [0x5F] MULTI_HANDLER_COMPLEX(mode=0x05 - Load ext scheduler with flag (OpCode 0x5B mode 0, flag 1), ref=2665*, entity1=EventEntity, entity2=EventEntity, string="red1", extra=130*)
  1: 0x0380 [0x00] END_REQSTACK()
```

### Event 65535.46

#### Metadata

| Field        | Value    |
|--------------|----------|
| Entrypoint   | 0x0381   |
| Data Size    | 15 bytes |
| Instructions | 2        |

```
      00 01 02 03 04 05 06 07  08 09 0A 0B 0C 0D 0E 0F
      -- -- -- -- -- -- -- --  -- -- -- -- -- -- -- --
0380:    5F 07 F8 FF FF 7F F8  FF FF 7F 72 65 64 31 00   _.........red1.
```

#### Opcodes

```
  0: 0x0381 [0x5F] MULTI_HANDLER_COMPLEX(mode=0x07 - Wait scheduler task (OpCode 0x53))
  1: 0x038F [0x00] END_REQSTACK()
```

### Event 65535.47

#### Metadata

| Field        | Value    |
|--------------|----------|
| Entrypoint   | 0x0390   |
| Data Size    | 16 bytes |
| Instructions | 2        |

```
      00 01 02 03 04 05 06 07  08 09 0A 0B 0C 0D 0E 0F
      -- -- -- -- -- -- -- --  -- -- -- -- -- -- -- --
0390: 66 3A 80 F8 FF FF 7F F8  FF FF 7F 74 6C 6B 30 00  f:.........tlk0.
```

#### Opcodes

```
  0: 0x0390 [0x66] LOAD_EXT_SCHEDULER_MAIN: Load scheduler "tlk0" with entities [EventEntity, EventEntity], work=209*
  1: 0x039F [0x00] END_REQSTACK()
```

### Event 65535.48

#### Metadata

| Field        | Value    |
|--------------|----------|
| Entrypoint   | 0x03A0   |
| Data Size    | 14 bytes |
| Instructions | 2        |

```
      00 01 02 03 04 05 06 07  08 09 0A 0B 0C 0D 0E 0F
      -- -- -- -- -- -- -- --  -- -- -- -- -- -- -- --
03A0: 53 F8 FF FF 7F F8 FF FF  7F 74 6C 6B 30 00        S........tlk0.  
```

#### Opcodes

```
  0: 0x03A0 [0x53] WAIT_SCHEDULER_TASK: Wait for scheduler "tlk0" with entities [EventEntity, EventEntity]
  1: 0x03AD [0x00] END_REQSTACK()
```

### Event 65535.49

#### Metadata

| Field        | Value    |
|--------------|----------|
| Entrypoint   | 0x03AE   |
| Data Size    | 16 bytes |
| Instructions | 2        |

```
      00 01 02 03 04 05 06 07  08 09 0A 0B 0C 0D 0E 0F
      -- -- -- -- -- -- -- --  -- -- -- -- -- -- -- --
03A0:                                            66 3A                f:
03B0: 80 F8 FF FF 7F F8 FF FF  7F 74 6C 6B 31 00        .........tlk1.  
```

#### Opcodes

```
  0: 0x03AE [0x66] LOAD_EXT_SCHEDULER_MAIN: Load scheduler "tlk1" with entities [EventEntity, EventEntity], work=209*
  1: 0x03BD [0x00] END_REQSTACK()
```

### Event 65535.50

#### Metadata

| Field        | Value    |
|--------------|----------|
| Entrypoint   | 0x03BE   |
| Data Size    | 14 bytes |
| Instructions | 2        |

```
      00 01 02 03 04 05 06 07  08 09 0A 0B 0C 0D 0E 0F
      -- -- -- -- -- -- -- --  -- -- -- -- -- -- -- --
03B0:                                            53 F8                S.
03C0: FF FF 7F F8 FF FF 7F 74  6C 6B 31 00              .......tlk1.    
```

#### Opcodes

```
  0: 0x03BE [0x53] WAIT_SCHEDULER_TASK: Wait for scheduler "tlk1" with entities [EventEntity, EventEntity]
  1: 0x03CB [0x00] END_REQSTACK()
```

### Event 90

#### Metadata

| Field        | Value   |
|--------------|---------|
| Entrypoint   | 0x03CC  |
| Data Size    | 1 bytes |
| Instructions | 1       |

```
      00 01 02 03 04 05 06 07  08 09 0A 0B 0C 0D 0E 0F
      -- -- -- -- -- -- -- --  -- -- -- -- -- -- -- --
03C0:                                      00                       .   
```

#### Opcodes

```
  0: 0x03CC [0x00] END_REQSTACK()
```

### Event 65535.51

#### Metadata

| Field        | Value    |
|--------------|----------|
| Entrypoint   | 0x03CD   |
| Data Size    | 14 bytes |
| Instructions | 4        |

```
      00 01 02 03 04 05 06 07  08 09 0A 0B 0C 0D 0E 0F
      -- -- -- -- -- -- -- --  -- -- -- -- -- -- -- --
03C0:                                         32 09 80               2..
03D0: 1F 00 3B 80 3C 80 3D 80  1F 01 00                 ..;.<.=....     
```

#### Opcodes

```
  0: 0x03CD [0x32] ExtData[1]->MainSpeed = 13* * 0.1
  1: 0x03D0 [0x1F] MOVE_ENTITY: EventEntity moves to X=-100.679*, Z=11.389*, Y=-0.649*
  2: 0x03D8 [0x1F] MOVE_ENTITY: Update entity position (mode=1)
  3: 0x03DA [0x00] END_REQSTACK()
```

### Event 65535.52

#### Metadata

| Field        | Value    |
|--------------|----------|
| Entrypoint   | 0x03DB   |
| Data Size    | 24 bytes |
| Instructions | 6        |

```
      00 01 02 03 04 05 06 07  08 09 0A 0B 0C 0D 0E 0F
      -- -- -- -- -- -- -- --  -- -- -- -- -- -- -- --
03D0:                                   32 09 80 1F 00             2....
03E0: 3E 80 3F 80 3D 80 1F 01  1F 00 40 80 41 80 3D 80  >.?.=.....@.A.=.
03F0: 1F 01 00                                          ...             
```

#### Opcodes

```
  0: 0x03DB [0x32] ExtData[1]->MainSpeed = 13* * 0.1
  1: 0x03DE [0x1F] MOVE_ENTITY: EventEntity moves to X=-110.827*, Z=11.415*, Y=-0.649*
  2: 0x03E6 [0x1F] MOVE_ENTITY: Update entity position (mode=1)
  3: 0x03E8 [0x1F] MOVE_ENTITY: EventEntity moves to X=-111.663*, Z=15.396*, Y=-0.649*
  4: 0x03F0 [0x1F] MOVE_ENTITY: Update entity position (mode=1)
  5: 0x03F2 [0x00] END_REQSTACK()
```

### Event 91

#### Metadata

| Field        | Value   |
|--------------|---------|
| Entrypoint   | 0x03F3  |
| Data Size    | 1 bytes |
| Instructions | 1       |

```
      00 01 02 03 04 05 06 07  08 09 0A 0B 0C 0D 0E 0F
      -- -- -- -- -- -- -- --  -- -- -- -- -- -- -- --
03F0:          00                                          .            
```

#### Opcodes

```
  0: 0x03F3 [0x00] END_REQSTACK()
```
