# 17830241

## Common Data

| Field            | Value                     |
|------------------|---------------------------|
| Zone             | Eastern Adoulin (ID: 257) |
| Block Size       | 6852 bytes                |
| Total Events     | 5                         |
| References Count | 143                       |

## List of Events

| Event ID              | Entrypoint   |   Size |   Instructions |
|-----------------------|--------------|--------|----------------|
| [65535](#event-65535) | 0x0000       |    658 |             62 |
| [5238](#event-5238)   | 0x0292       |   3040 |            403 |
| [5239](#event-5239)   | 0x0E72       |   2347 |            328 |
| [5240](#event-5240)   | 0x179D       |    166 |             33 |
| [5241](#event-5241)   | 0x1843       |     30 |              8 |

## DAT References (imed_data)

|   Index | Hex Value   |   Dec Value |
|---------|-------------|-------------|
|       0 | 0x00C8      |         200 |
|       1 | 0x0000      |           0 |
|       2 | 0x00C9      |         201 |
|       3 | 0x0001      |           1 |
|       4 | 0x002D      |          45 |
|       5 | 0x0002      |           2 |
|       6 | 0x001E      |          30 |
|       7 | 0x00D7      |         215 |
|       8 | 0x012C      |         300 |
|       9 | 0x0093      |         147 |
|      10 | 0xFFFF4C2F  |  4294921263 |
|      11 | 0xD108      |       53512 |
|      12 | 0xFFFFFF6A  |  4294967146 |
|      13 | 0xFFFFFC00  |  4294966272 |
|      14 | 0xFFFF7B40  |  4294933312 |
|      15 | 0xD1CB      |       53707 |
|      16 | 0xFFFF28F0  |  4294912240 |
|      17 | 0xDEA1      |       56993 |
|      18 | 0x06D7      |        1751 |
|      19 | 0xFFFF4C77  |  4294921335 |
|      20 | 0xD934      |       55604 |
|      21 | 0x0418      |        1048 |
|      22 | 0x001F      |          31 |
|      23 | 0x007F      |         127 |
|      24 | 0x0005      |           5 |
|      25 | 0x0382      |         898 |
|      26 | 0x0006      |           6 |
|      27 | 0x36A5      |       13989 |
|      28 | 0x36A6      |       13990 |
|      29 | 0x0007      |           7 |
|      30 | 0x005A      |          90 |
|      31 | 0x36A7      |       13991 |
|      32 | 0x0014      |          20 |
|      33 | 0x0028      |          40 |
|      34 | 0x36A8      |       13992 |
|      35 | 0x36A9      |       13993 |
|      36 | 0x0003      |           3 |
|      37 | 0x0008      |           8 |
|      38 | 0x36AA      |       13994 |
|      39 | 0x003C      |          60 |
|      40 | 0x02D7      |         727 |
|      41 | 0x000C      |          12 |
|      42 | 0xFFFF642F  |  4294927407 |
|      43 | 0xB1E5      |       45541 |
|      44 | 0xFFFFFD77  |  4294966647 |
|      45 | 0x03AC      |         940 |
|      46 | 0xFFFF63C0  |  4294927296 |
|      47 | 0x652C      |       25900 |
|      48 | 0x0546      |        1350 |
|      49 | 0xFFFFFC01  |  4294966273 |
|      50 | 0xFFFF4C50  |  4294921296 |
|      51 | 0x6144      |       24900 |
|      52 | 0x053C      |        1340 |
|      53 | 0xFFFF7B30  |  4294933296 |
|      54 | 0xB798      |       47000 |
|      55 | 0xFFFFFD6C  |  4294966636 |
|      56 | 0x03FF      |        1023 |
|      57 | 0xFFFF4DF2  |  4294921714 |
|      58 | 0x7FFC      |       32764 |
|      59 | 0x0545      |        1349 |
|      60 | 0x0893      |        2195 |
|      61 | 0xFFFF4DF3  |  4294921715 |
|      62 | 0x87E3      |       34787 |
|      63 | 0x06FA      |        1786 |
|      64 | 0xFFFF7D94  |  4294933908 |
|      65 | 0x93A7      |       37799 |
|      66 | 0xFFFF6039  |  4294926393 |
|      67 | 0xB38D      |       45965 |
|      68 | 0x03AB      |         939 |
|      69 | 0x00EA      |         234 |
|      70 | 0x2061      |        8289 |
|      71 | 0x0078      |         120 |
|      72 | 0x36AB      |       13995 |
|      73 | 0x36AC      |       13996 |
|      74 | 0x36AD      |       13997 |
|      75 | 0x36AE      |       13998 |
|      76 | 0x36AF      |       13999 |
|      77 | 0x36B0      |       14000 |
|      78 | 0x36B1      |       14001 |
|      79 | 0x36B2      |       14002 |
|      80 | 0x0CE6      |        3302 |
|      81 | 0x36B3      |       14003 |
|      82 | 0x36B4      |       14004 |
|      83 | 0x36B5      |       14005 |
|      84 | 0x36B6      |       14006 |
|      85 | 0x02BD      |         701 |
|      86 | 0x000F      |          15 |
|      87 | 0x003F      |          63 |
|      88 | 0xFFFF72C5  |  4294931141 |
|      89 | 0xD05F      |       53343 |
|      90 | 0xFFFFFF6B  |  4294967147 |
|      91 | 0x0CCE      |        3278 |
|      92 | 0xFFFF8AF2  |  4294937330 |
|      93 | 0xD928      |       55592 |
|      94 | 0x0F5B      |        3931 |
|      95 | 0xFFFF911A  |  4294938906 |
|      96 | 0xDEDE      |       57054 |
|      97 | 0x03E6      |         998 |
|      98 | 0xFFFF9336  |  4294939446 |
|      99 | 0xD5F1      |       54769 |
|     100 | 0x0917      |        2327 |
|     101 | 0x03A2      |         930 |
|     102 | 0x36BD      |       14013 |
|     103 | 0x36BE      |       14014 |
|     104 | 0x36BF      |       14015 |
|     105 | 0x001C      |          28 |
|     106 | 0x36C0      |       14016 |
|     107 | 0x36C1      |       14017 |
|     108 | 0x36C2      |       14018 |
|     109 | 0x36C3      |       14019 |
|     110 | 0xFFFF969C  |  4294940316 |
|     111 | 0xDAF0      |       56048 |
|     112 | 0xFFFFFF6C  |  4294967148 |
|     113 | 0x0FD3      |        4051 |
|     114 | 0xFFFF8869  |  4294936681 |
|     115 | 0xD9A5      |       55717 |
|     116 | 0x0FD0      |        4048 |
|     117 | 0x0032      |          50 |
|     118 | 0x0064      |         100 |
|     119 | 0x36C4      |       14020 |
|     120 | 0x36C5      |       14021 |
|     121 | 0x36C6      |       14022 |
|     122 | 0x000A      |          10 |
|     123 | 0x36C7      |       14023 |
|     124 | 0x0400      |        1024 |
|     125 | 0x36C8      |       14024 |
|     126 | 0x36C9      |       14025 |
|     127 | 0x0258      |         600 |
|     128 | 0x36CA      |       14026 |
|     129 | 0x36CB      |       14027 |
|     130 | 0x36CC      |       14028 |
|     131 | 0x0015      |          21 |
|     132 | 0x0214      |         532 |
|     133 | 0x021A      |         538 |
|     134 | 0x36B7      |       14007 |
|     135 | 0x36B9      |       14009 |
|     136 | 0x36BA      |       14010 |
|     137 | 0x36B8      |       14008 |
|     138 | 0x021E      |         542 |
|     139 | 0x36CD      |       14029 |
|     140 | 0x36CE      |       14030 |
|     141 | 0x36CF      |       14031 |
|     142 | 0x36BC      |       14012 |

## String References

- **8289**: @@
- **13990**: Do you have the proper credentials? [I do./Not at the moment.]
- **14008**: Enter the premises? [Yes./Not right now.]

## Events

### Event 65535

#### Metadata

| Field        | Value     |
|--------------|-----------|
| Entrypoint   | 0x0000    |
| Data Size    | 658 bytes |
| Instructions | 1         |

```
      00 01 02 03 04 05 06 07  08 09 0A 0B 0C 0D 0E 0F
      -- -- -- -- -- -- -- --  -- -- -- -- -- -- -- --
0000: 00 45 00 80 F0 FF FF 7F  F0 FF FF 7F 66 64 69 30  .E..........fdi0
0010: 01 80 55 00 80 F0 FF FF  7F F0 FF FF 7F 66 64 69  ..U..........fdi
0020: 30 1B 45 00 80 F0 FF FF  7F F0 FF FF 7F 66 64 6F  0.E..........fdo
0030: 30 01 80 55 00 80 F0 FF  FF 7F F0 FF FF 7F 66 64  0..U..........fd
0040: 6F 30 1B 45 00 80 F0 FF  FF 7F F0 FF FF 7F 66 64  o0.E..........fd
0050: 69 31 01 80 55 00 80 F0  FF FF 7F F0 FF FF 7F 66  i1..U..........f
0060: 64 69 31 1B 45 00 80 F0  FF FF 7F F0 FF FF 7F 66  di1.E..........f
0070: 64 6F 31 01 80 55 00 80  F0 FF FF 7F F0 FF FF 7F  do1..U..........
0080: 66 64 6F 31 1B 45 02 80  F0 FF FF 7F F0 FF FF 7F  fdo1.E..........
0090: 77 68 69 31 01 80 55 02  80 F0 FF FF 7F F0 FF FF  whi1..U.........
00A0: 7F 77 68 69 31 1B 45 02  80 F0 FF FF 7F F0 FF FF  .whi1.E.........
00B0: 7F 77 68 6F 31 01 80 55  02 80 F0 FF FF 7F F0 FF  .who1..U........
00C0: FF 7F 77 68 6F 31 1B 45  02 80 F0 FF FF 7F F0 FF  ..who1.E........
00D0: FF 7F 77 68 6F 32 01 80  55 02 80 F0 FF FF 7F F0  ..who2..U.......
00E0: FF FF 7F 77 68 6F 32 1B  45 02 80 F0 FF FF 7F F0  ...who2.E.......
00F0: FF FF 7F 77 68 6F 33 01  80 55 02 80 F0 FF FF 7F  ...who3..U......
0100: F0 FF FF 7F 77 68 6F 33  1B 62 03 80 F0 FF FF 7F  ....who3.b......
0110: F0 FF FF 7F 6D 61 69 6E  01 80 1C 04 80 45 00 80  ....main.....E..
0120: F0 FF FF 7F F0 FF FF 7F  66 64 6F 31 01 80 55 00  ........fdo1..U.
0130: 80 F0 FF FF 7F F0 FF FF  7F 66 64 6F 31 1B 45 00  .........fdo1.E.
0140: 80 F0 FF FF 7F F0 FF FF  7F 66 64 69 31 01 80 62  .........fdi1..b
0150: 05 80 F0 FF FF 7F F0 FF  FF 7F 6D 61 69 6E 01 80  ..........main..
0160: 1C 06 80 55 00 80 F0 FF  FF 7F F0 FF FF 7F 66 64  ...U..........fd
0170: 69 31 1B 45 00 80 F0 FF  FF 7F F0 FF FF 7F 62 6C  i1.E..........bl
0180: 6F 6E 01 80 45 02 80 F0  FF FF 7F F0 FF FF 7F 62  on..E..........b
0190: 6C 6F 6E 01 80 1B 45 02  80 F0 FF FF 7F F0 FF FF  lon...E.........
01A0: 7F 77 68 69 30 01 80 55  02 80 F0 FF FF 7F F0 FF  .whi0..U........
01B0: FF 7F 77 68 69 30 1B 45  02 80 F0 FF FF 7F F0 FF  ..whi0.E........
01C0: FF 7F 77 68 6F 30 01 80  55 02 80 F0 FF FF 7F F0  ..who0..U.......
01D0: FF FF 7F 77 68 6F 30 1B  45 07 80 F0 FF FF 7F F0  ...who0.E.......
01E0: FF FF 7F 65 66 6F 6E 01  80 55 07 80 F0 FF FF 7F  ...efon..U......
01F0: F0 FF FF 7F 65 66 6F 6E  1B 45 00 80 F0 FF FF 7F  ....efon.E......
0200: F0 FF FF 7F 66 64 69 73  01 80 1B 45 00 80 F0 FF  ....fdis...E....
0210: FF 7F F0 FF FF 7F 66 64  6F 73 01 80 55 00 80 F0  ......fdos..U...
0220: FF FF 7F F0 FF FF 7F 66  64 6F 73 1B 45 00 80 F0  .......fdos.E...
0230: FF FF 7F F0 FF FF 7F 66  64 69 66 01 80 1B 45 00  .......fdif...E.
0240: 80 F0 FF FF 7F F0 FF FF  7F 66 64 6F 66 01 80 55  .........fdof..U
0250: 00 80 F0 FF FF 7F F0 FF  FF 7F 66 64 6F 66 1B 45  ..........fdof.E
0260: 00 80 F0 FF FF 7F F0 FF  FF 7F 66 64 69 70 01 80  ..........fdip..
0270: 1B 45 00 80 F0 FF FF 7F  F0 FF FF 7F 66 64 6F 70  .E..........fdop
0280: 01 80 55 00 80 F0 FF FF  7F F0 FF FF 7F 66 64 6F  ..U..........fdo
0290: 70 1B                                             p.              
```

#### Opcodes

```
  0: 0x0000 [0x00] END_REQSTACK()
```

#### Data or dead code:

```
# Dead code (unreachable instructions):
     0x0001 [0x45] LOAD_SCHEDULED_TASK: Load scheduler "fdi0" with entities [LocalPlayer, LocalPlayer], work=[200*, 0*]
     0x0012 [0x55] WAIT_LOAD_SCHEDULER: Wait for scheduler "fdi0" with entities [LocalPlayer, LocalPlayer], work=200*
     0x0021 [0x1B] RETURN
     0x0022 [0x45] LOAD_SCHEDULED_TASK: Load scheduler "fdo0" with entities [LocalPlayer, LocalPlayer], work=[200*, 0*]
     0x0033 [0x55] WAIT_LOAD_SCHEDULER: Wait for scheduler "fdo0" with entities [LocalPlayer, LocalPlayer], work=200*
     0x0042 [0x1B] RETURN
     0x0043 [0x45] LOAD_SCHEDULED_TASK: Load scheduler "fdi1" with entities [LocalPlayer, LocalPlayer], work=[200*, 0*]
     0x0054 [0x55] WAIT_LOAD_SCHEDULER: Wait for scheduler "fdi1" with entities [LocalPlayer, LocalPlayer], work=200*
     0x0063 [0x1B] RETURN
     0x0064 [0x45] LOAD_SCHEDULED_TASK: Load scheduler "fdo1" with entities [LocalPlayer, LocalPlayer], work=[200*, 0*]
     0x0075 [0x55] WAIT_LOAD_SCHEDULER: Wait for scheduler "fdo1" with entities [LocalPlayer, LocalPlayer], work=200*
     0x0084 [0x1B] RETURN
     0x0085 [0x45] LOAD_SCHEDULED_TASK: Load scheduler "whi1" with entities [LocalPlayer, LocalPlayer], work=[201*, 0*]
     0x0096 [0x55] WAIT_LOAD_SCHEDULER: Wait for scheduler "whi1" with entities [LocalPlayer, LocalPlayer], work=201*
     0x00A5 [0x1B] RETURN
     0x00A6 [0x45] LOAD_SCHEDULED_TASK: Load scheduler "who1" with entities [LocalPlayer, LocalPlayer], work=[201*, 0*]
     0x00B7 [0x55] WAIT_LOAD_SCHEDULER: Wait for scheduler "who1" with entities [LocalPlayer, LocalPlayer], work=201*
     0x00C6 [0x1B] RETURN
     0x00C7 [0x45] LOAD_SCHEDULED_TASK: Load scheduler "who2" with entities [LocalPlayer, LocalPlayer], work=[201*, 0*]
     0x00D8 [0x55] WAIT_LOAD_SCHEDULER: Wait for scheduler "who2" with entities [LocalPlayer, LocalPlayer], work=201*
     0x00E7 [0x1B] RETURN
     0x00E8 [0x45] LOAD_SCHEDULED_TASK: Load scheduler "who3" with entities [LocalPlayer, LocalPlayer], work=[201*, 0*]
     0x00F9 [0x55] WAIT_LOAD_SCHEDULER: Wait for scheduler "who3" with entities [LocalPlayer, LocalPlayer], work=201*
     0x0108 [0x1B] RETURN
     0x0109 [0x62] LOAD_EVENT_SCHEDULER: Load scheduler "main" with entities [LocalPlayer, LocalPlayer], work=[1*, 0*]
     0x011A [0x1C] WAIT(45* ticks)
     0x011D [0x45] LOAD_SCHEDULED_TASK: Load scheduler "fdo1" with entities [LocalPlayer, LocalPlayer], work=[200*, 0*]
     0x012E [0x55] WAIT_LOAD_SCHEDULER: Wait for scheduler "fdo1" with entities [LocalPlayer, LocalPlayer], work=200*
     0x013D [0x1B] RETURN
     0x013E [0x45] LOAD_SCHEDULED_TASK: Load scheduler "fdi1" with entities [LocalPlayer, LocalPlayer], work=[200*, 0*]
     0x014F [0x62] LOAD_EVENT_SCHEDULER: Load scheduler "main" with entities [LocalPlayer, LocalPlayer], work=[2*, 0*]
     0x0160 [0x1C] WAIT(30* ticks)
     0x0163 [0x55] WAIT_LOAD_SCHEDULER: Wait for scheduler "fdi1" with entities [LocalPlayer, LocalPlayer], work=200*
     0x0172 [0x1B] RETURN
     0x0173 [0x45] LOAD_SCHEDULED_TASK: Load scheduler "blon" with entities [LocalPlayer, LocalPlayer], work=[200*, 0*]
     0x0184 [0x45] LOAD_SCHEDULED_TASK: Load scheduler "blon" with entities [LocalPlayer, LocalPlayer], work=[201*, 0*]
     0x0195 [0x1B] RETURN
     0x0196 [0x45] LOAD_SCHEDULED_TASK: Load scheduler "whi0" with entities [LocalPlayer, LocalPlayer], work=[201*, 0*]
     0x01A7 [0x55] WAIT_LOAD_SCHEDULER: Wait for scheduler "whi0" with entities [LocalPlayer, LocalPlayer], work=201*
     0x01B6 [0x1B] RETURN
     0x01B7 [0x45] LOAD_SCHEDULED_TASK: Load scheduler "who0" with entities [LocalPlayer, LocalPlayer], work=[201*, 0*]
     0x01C8 [0x55] WAIT_LOAD_SCHEDULER: Wait for scheduler "who0" with entities [LocalPlayer, LocalPlayer], work=201*
     0x01D7 [0x1B] RETURN
     0x01D8 [0x45] LOAD_SCHEDULED_TASK: Load scheduler "efon" with entities [LocalPlayer, LocalPlayer], work=[215*, 0*]
     0x01E9 [0x55] WAIT_LOAD_SCHEDULER: Wait for scheduler "efon" with entities [LocalPlayer, LocalPlayer], work=215*
     0x01F8 [0x1B] RETURN
     0x01F9 [0x45] LOAD_SCHEDULED_TASK: Load scheduler "fdis" with entities [LocalPlayer, LocalPlayer], work=[200*, 0*]
     0x020A [0x1B] RETURN
     0x020B [0x45] LOAD_SCHEDULED_TASK: Load scheduler "fdos" with entities [LocalPlayer, LocalPlayer], work=[200*, 0*]
     0x021C [0x55] WAIT_LOAD_SCHEDULER: Wait for scheduler "fdos" with entities [LocalPlayer, LocalPlayer], work=200*
     0x022B [0x1B] RETURN
     0x022C [0x45] LOAD_SCHEDULED_TASK: Load scheduler "fdif" with entities [LocalPlayer, LocalPlayer], work=[200*, 0*]
     0x023D [0x1B] RETURN
     0x023E [0x45] LOAD_SCHEDULED_TASK: Load scheduler "fdof" with entities [LocalPlayer, LocalPlayer], work=[200*, 0*]
     0x024F [0x55] WAIT_LOAD_SCHEDULER: Wait for scheduler "fdof" with entities [LocalPlayer, LocalPlayer], work=200*
     0x025E [0x1B] RETURN
     0x025F [0x45] LOAD_SCHEDULED_TASK: Load scheduler "fdip" with entities [LocalPlayer, LocalPlayer], work=[200*, 0*]
     0x0270 [0x1B] RETURN
     0x0271 [0x45] LOAD_SCHEDULED_TASK: Load scheduler "fdop" with entities [LocalPlayer, LocalPlayer], work=[200*, 0*]
     0x0282 [0x55] WAIT_LOAD_SCHEDULER: Wait for scheduler "fdop" with entities [LocalPlayer, LocalPlayer], work=200*
     0x0291 [0x1B] RETURN
```

### Event 5238

#### Metadata

| Field        | Value      |
|--------------|------------|
| Entrypoint   | 0x0292     |
| Data Size    | 3040 bytes |
| Instructions | 403        |

```
      00 01 02 03 04 05 06 07  08 09 0A 0B 0C 0D 0E 0F
      -- -- -- -- -- -- -- --  -- -- -- -- -- -- -- --
0290:       03 02 00 01 80 42  03 01 00 09 10 5D 01 80    .....B.....]..
02A0: 08 80 1A 64 00 46 01 38  09 80 2F 00 62 11 10 01  ...d.F.8../.b...
02B0: 2F 00 63 11 10 01 2F 00  64 11 10 01 2F 00 65 11  /.c.../.d.../.e.
02C0: 10 01 2F 00 66 11 10 01  2F 00 67 11 10 01 2F 00  ../.f.../.g.../.
02D0: 68 11 10 01 2F 00 69 11  10 01 2F 00 6B 11 10 01  h.../.i.../.k...
02E0: 4E 00 62 11 10 01 92 01  E6 10 10 01 92 01 E7 10  N.b.............
02F0: 10 01 94 01 E6 10 10 01  94 01 E7 10 10 01 94 01  ................
0300: 62 11 10 01 94 01 63 11  10 01 94 01 64 11 10 01  b.....c.....d...
0310: 94 01 65 11 10 01 94 01  66 11 10 01 94 01 67 11  ..e.....f.....g.
0320: 10 01 94 01 68 11 10 01  94 01 69 11 10 01 94 01  ....h.....i.....
0330: 6B 11 10 01 94 01 F0 FF  FF 7F BA E6 10 10 01 0A  k...............
0340: 80 0B 80 0C 80 0D 80 BA  E7 10 10 01 0E 80 0F 80  ................
0350: 0C 80 0D 80 BA 62 11 10  01 10 80 11 80 01 80 12  .....b..........
0360: 80 BA F0 FF FF 7F 13 80  14 80 01 80 15 80 80 E6  ................
0370: 10 10 01 80 E7 10 10 01  80 62 11 10 01 80 F0 FF  .........b......
0380: FF 7F 29 0F F0 FF FF 7F  6C 02 02 00 01 80 00 BC  ..).....l.......
0390: 07 4A 62 11 10 01 E6 10  10 01 6F 76 62 11 10 01  .Jb.......ovb...
03A0: 5C 00 16 80 5C 01 16 80  9A 5D 17 80 03 80 02 09  \...\....]......
03B0: 10 18 80 00 CA 03 45 19  80 F8 FF FF 7F F8 FF FF  ......E.........
03C0: 7F 73 30 37 38 01 80 01  F7 03 02 09 10 1A 80 00  .s078...........
03D0: E6 03 45 19 80 F8 FF FF  7F F8 FF FF 7F 73 30 37  ..E..........s07
03E0: 38 01 80 01 F7 03 45 19  80 F8 FF FF 7F F8 FF FF  8.....E.........
03F0: 7F 73 30 35 38 01 80 1A  43 00 2B E6 10 10 01 1B  .s058...C.+.....
0400: 80 23 24 1C 80 01 80 01  80 25 02 00 10 01 80 00  .#$......%......
0410: 24 04 6E F0 FF FF 7F 1D  80 99 F0 FF FF 7F 1C 1E  $.n.............
0420: 80 01 3E 04 02 00 10 03  80 00 3E 04 6E F0 FF FF  ..>.......>.n...
0430: 7F 1A 80 99 F0 FF FF 7F  1C 1E 80 01 3E 04 02 09  ............>...
0440: 10 18 80 00 58 04 52 19  80 F8 FF FF 7F F8 FF FF  ....X.R.........
0450: 7F 73 30 37 38 01 81 04  02 09 10 1A 80 00 72 04  .s078.........r.
0460: 52 19 80 F8 FF FF 7F F8  FF FF 7F 73 30 37 38 01  R..........s078.
0470: 81 04 52 19 80 F8 FF FF  7F F8 FF FF 7F 73 30 35  ..R..........s05
0480: 38 45 19 80 F8 FF FF 7F  F8 FF FF 7F 73 30 35 39  8E..........s059
0490: 01 80 27 0F 62 11 10 01  48 1C 06 80 4A F0 FF FF  ..'.b...H...J...
04A0: 7F 62 11 10 01 79 00 E6  10 10 01 62 11 10 01 2B  .b...y.....b...+
04B0: 62 11 10 01 1F 80 6F 76  F0 FF FF 7F 1C 20 80 52  b.....ov..... .R
04C0: 19 80 F8 FF FF 7F F8 FF  FF 7F 73 30 35 39 45 19  ..........s059E.
04D0: 80 F8 FF FF 7F F8 FF FF  7F 73 30 36 30 01 80 1C  .........s060...
04E0: 21 80 23 2A 0F 62 11 10  01 4A F0 FF FF 7F 62 11  !.#*.b...J....b.
04F0: 10 01 6F 76 F0 FF FF 7F  52 19 80 F8 FF FF 7F F8  ..ov....R.......
0500: FF FF 7F 73 30 36 30 02  09 10 18 80 00 23 05 45  ...s060......#.E
0510: 19 80 F8 FF FF 7F F8 FF  FF 7F 73 30 37 39 01 80  ..........s079..
0520: 01 50 05 02 09 10 1A 80  00 3F 05 45 19 80 F8 FF  .P.......?.E....
0530: FF 7F F8 FF FF 7F 73 30  37 39 01 80 01 50 05 45  ......s079...P.E
0540: 19 80 F8 FF FF 7F F8 FF  FF 7F 73 30 36 32 01 80  ..........s062..
0550: 4A 62 11 10 01 F0 FF FF  7F 6F 76 62 11 10 01 03  Jb.......ovb....
0560: 02 10 8B 7F 2B 62 11 10  01 22 80 1C 06 80 79 00  ....+b..."....y.
0570: E6 10 10 01 F0 FF FF 7F  23 02 09 10 18 80 00 93  ........#.......
0580: 05 52 19 80 F8 FF FF 7F  F8 FF FF 7F 73 30 37 39  .R..........s079
0590: 01 BC 05 02 09 10 1A 80  00 AD 05 52 19 80 F8 FF  ...........R....
05A0: FF 7F F8 FF FF 7F 73 30  37 39 01 BC 05 52 19 80  ......s079...R..
05B0: F8 FF FF 7F F8 FF FF 7F  73 30 36 32 45 19 80 F8  ........s062E...
05C0: FF FF 7F F8 FF FF 7F 73  30 36 31 01 80 27 07 E6  .......s061..'..
05D0: 10 10 01 06 1C 06 80 4A  F0 FF FF 7F E6 10 10 01  .......J........
05E0: 6F 76 F0 FF FF 7F 4A 62  11 10 01 E6 10 10 01 6F  ov....Jb.......o
05F0: 76 62 11 10 01 2B E6 10  10 01 23 80 23 2A 07 E6  vb...+....#.#*..
0600: 10 10 01 52 19 80 F8 FF  FF 7F F8 FF FF 7F 73 30  ...R..........s0
0610: 36 31 02 09 10 24 80 00  2E 06 45 19 80 F8 FF FF  61...$....E.....
0620: 7F F8 FF FF 7F 73 30 36  34 01 80 01 93 06 02 09  .....s064.......
0630: 10 18 80 00 4A 06 45 19  80 F8 FF FF 7F F8 FF FF  ....J.E.........
0640: 7F 73 30 38 30 01 80 01  93 06 02 09 10 1A 80 00  .s080...........
0650: 66 06 45 19 80 F8 FF FF  7F F8 FF FF 7F 73 30 38  f.E..........s08
0660: 30 01 80 01 93 06 02 09  10 25 80 00 82 06 45 19  0........%....E.
0670: 80 F8 FF FF 7F F8 FF FF  7F 73 30 36 34 01 80 01  .........s064...
0680: 93 06 45 19 80 F8 FF FF  7F F8 FF FF 7F 73 30 38  ..E..........s08
0690: 35 01 80 4A 62 11 10 01  F0 FF FF 7F 6F 76 62 11  5..Jb.......ovb.
06A0: 10 01 2B 62 11 10 01 26  80 6E 62 11 10 01 1D 80  ..+b...&.nb.....
06B0: 99 62 11 10 01 1C 06 80  4A F0 FF FF 7F 62 11 10  .b......J....b..
06C0: 01 6F 76 F0 FF FF 7F 1C  06 80 23 7B 62 11 10 01  .ov.......#{b...
06D0: 27 0F 62 11 10 01 49 1C  06 80 02 09 10 24 80 00  '.b...I......$..
06E0: F4 06 52 19 80 F8 FF FF  7F F8 FF FF 7F 73 30 36  ..R..........s06
06F0: 34 01 51 07 02 09 10 18  80 00 0E 07 52 19 80 F8  4.Q.........R...
0700: FF FF 7F F8 FF FF 7F 73  30 38 30 01 51 07 02 09  .......s080.Q...
0710: 10 1A 80 00 28 07 52 19  80 F8 FF FF 7F F8 FF FF  ....(.R.........
0720: 7F 73 30 38 30 01 51 07  02 09 10 25 80 00 42 07  .s080.Q....%..B.
0730: 52 19 80 F8 FF FF 7F F8  FF FF 7F 73 30 36 34 01  R..........s064.
0740: 51 07 52 19 80 F8 FF FF  7F F8 FF FF 7F 73 30 38  Q.R..........s08
0750: 35 45 19 80 F8 FF FF 7F  F8 FF FF 7F 73 30 36 35  5E..........s065
0760: 01 80 7B F0 FF FF 7F 1C  21 80 27 0F F0 FF FF 7F  ..{.....!.'.....
0770: 0E 1C 06 80 5D 01 80 08  80 1A 64 00 45 19 80 F8  ....].....d.E...
0780: FF FF 7F F8 FF FF 7F 39  30 32 31 01 80 1C 27 80  .......9021...'.
0790: 45 19 80 F8 FF FF 7F F8  FF FF 7F 39 30 32 32 01  E..........9022.
07A0: 80 2A 0F 62 11 10 01 2A  0F F0 FF FF 7F 52 19 80  .*.b...*.....R..
07B0: F8 FF FF 7F F8 FF FF 7F  73 30 36 35 34 28 80 77  ........s0654(.w
07C0: 29 80 03 80 4E 00 63 11  10 01 4E 00 64 11 10 01  )...N.c...N.d...
07D0: 4E 00 65 11 10 01 4E 00  66 11 10 01 4E 00 67 11  N.e...N.f...N.g.
07E0: 10 01 4E 00 68 11 10 01  4E 00 69 11 10 01 4E 00  ..N.h...N.i...N.
07F0: 6B 11 10 01 BA 62 11 10  01 2A 80 2B 80 2C 80 2D  k....b...*.+.,.-
0800: 80 BA 63 11 10 01 2E 80  2F 80 30 80 31 80 BA 64  ..c...../.0.1..d
0810: 11 10 01 32 80 33 80 34  80 31 80 BA 65 11 10 01  ...2.3.4.1..e...
0820: 35 80 33 80 34 80 31 80  BA 66 11 10 01 32 80 36  5.3.4.1..f...2.6
0830: 80 37 80 38 80 BA 67 11  10 01 35 80 36 80 37 80  .7.8..g...5.6.7.
0840: 38 80 BA 68 11 10 01 39  80 3A 80 3B 80 3C 80 BA  8..h...9.:.;.<..
0850: 69 11 10 01 3D 80 3E 80  3B 80 3F 80 BA 6B 11 10  i...=.>.;.?..k..
0860: 01 40 80 41 80 30 80 01  80 BA F0 FF FF 7F 42 80  .@.A.0........B.
0870: 43 80 2C 80 44 80 80 62  11 10 01 80 63 11 10 01  C.,.D..b....c...
0880: 80 64 11 10 01 80 65 11  10 01 80 66 11 10 01 80  .d....e....f....
0890: 67 11 10 01 80 68 11 10  01 80 69 11 10 01 80 6B  g....h....i....k
08A0: 11 10 01 5C 00 45 80 5C  01 45 80 9A 5D 17 80 03  ...\.E.\.E..]...
08B0: 80 48 46 80 1C 27 80 45  19 80 F8 FF FF 7F F8 FF  .HF..'.E........
08C0: FF 7F 73 30 36 33 01 80  1A 43 00 1C 47 80 52 19  ..s063...C..G.R.
08D0: 80 F8 FF FF 7F F8 FF FF  7F 73 30 36 33 45 19 80  .........s063E..
08E0: F8 FF FF 7F F8 FF FF 7F  73 30 36 36 01 80 1C 47  ........s066...G
08F0: 80 52 19 80 F8 FF FF 7F  F8 FF FF 7F 73 30 36 36  .R..........s066
0900: 45 19 80 F8 FF FF 7F F8  FF FF 7F 73 30 36 37 01  E..........s067.
0910: 80 1C 47 80 52 19 80 F8  FF FF 7F F8 FF FF 7F 73  ..G.R..........s
0920: 30 36 37 45 19 80 F8 FF  FF 7F F8 FF FF 7F 73 30  067E..........s0
0930: 36 38 01 80 1C 47 80 52  19 80 F8 FF FF 7F F8 FF  68...G.R........
0940: FF 7F 73 30 36 38 45 19  80 F8 FF FF 7F F8 FF FF  ..s068E.........
0950: 7F 73 30 36 39 01 80 1C  47 80 27 0F 62 11 10 01  .s069...G.'.b...
0960: 4B 2B 62 11 10 01 48 80  23 2A 0F 62 11 10 01 52  K+b...H.#*.b...R
0970: 19 80 F8 FF FF 7F F8 FF  FF 7F 73 30 36 39 02 09  ..........s069..
0980: 10 24 80 00 9A 09 45 19  80 F8 FF FF 7F F8 FF FF  .$....E.........
0990: 7F 73 30 37 30 01 80 01  FF 09 02 09 10 18 80 00  .s070...........
09A0: B6 09 45 19 80 F8 FF FF  7F F8 FF FF 7F 73 30 38  ..E..........s08
09B0: 31 01 80 01 FF 09 02 09  10 1A 80 00 D2 09 45 19  1.............E.
09C0: 80 F8 FF FF 7F F8 FF FF  7F 73 30 38 31 01 80 01  .........s081...
09D0: FF 09 02 09 10 25 80 00  EE 09 45 19 80 F8 FF FF  .....%....E.....
09E0: 7F F8 FF FF 7F 73 30 37  30 01 80 01 FF 09 45 19  .....s070.....E.
09F0: 80 F8 FF FF 7F F8 FF FF  7F 73 30 38 36 01 80 4A  .........s086..J
0A00: 62 11 10 01 F0 FF FF 7F  6F 76 62 11 10 01 29 0F  b.......ovb...).
0A10: 62 11 10 01 01 2B 62 11  10 01 49 80 1C 20 80 4A  b....+b...I.. .J
0A20: F0 FF FF 7F 62 11 10 01  6F 76 F0 FF FF 7F 23 2B  ....b...ov....#+
0A30: 62 11 10 01 4A 80 23 29  0F 62 11 10 01 02 02 09  b...J.#).b......
0A40: 10 24 80 00 58 0A 52 19  80 F8 FF FF 7F F8 FF FF  .$..X.R.........
0A50: 7F 73 30 37 30 01 B5 0A  02 09 10 18 80 00 72 0A  .s070.........r.
0A60: 52 19 80 F8 FF FF 7F F8  FF FF 7F 73 30 38 31 01  R..........s081.
0A70: B5 0A 02 09 10 1A 80 00  8C 0A 52 19 80 F8 FF FF  ..........R.....
0A80: 7F F8 FF FF 7F 73 30 38  31 01 B5 0A 02 09 10 25  .....s081......%
0A90: 80 00 A6 0A 52 19 80 F8  FF FF 7F F8 FF FF 7F 73  ....R..........s
0AA0: 30 37 30 01 B5 0A 52 19  80 F8 FF FF 7F F8 FF FF  070...R.........
0AB0: 7F 73 30 38 36 45 19 80  F8 FF FF 7F F8 FF FF 7F  .s086E..........
0AC0: 73 30 37 31 01 80 7B 62  11 10 01 29 0F 62 11 10  s071..{b...).b..
0AD0: 01 03 2B 62 11 10 01 4B  80 23 29 0F 62 11 10 01  ..+b...K.#).b...
0AE0: 04 29 0F 62 11 10 01 05  52 19 80 F8 FF FF 7F F8  .).b....R.......
0AF0: FF FF 7F 73 30 37 31 02  09 10 18 80 00 13 0B 45  ...s071........E
0B00: 19 80 F8 FF FF 7F F8 FF  FF 7F 73 30 38 32 01 80  ..........s082..
0B10: 01 40 0B 02 09 10 1A 80  00 2F 0B 45 19 80 F8 FF  .@......./.E....
0B20: FF 7F F8 FF FF 7F 73 30  38 32 01 80 01 40 0B 45  ......s082...@.E
0B30: 19 80 F8 FF FF 7F F8 FF  FF 7F 73 30 37 32 01 80  ..........s072..
0B40: 79 00 62 11 10 01 F0 FF  FF 7F 2B 62 11 10 01 4C  y.b.......+b...L
0B50: 80 23 29 0F 62 11 10 01  06 2B 62 11 10 01 4D 80  .#).b....+b...M.
0B60: 23 02 09 10 18 80 00 7B  0B 52 19 80 F8 FF FF 7F  #......{.R......
0B70: F8 FF FF 7F 73 30 38 32  01 A4 0B 02 09 10 1A 80  ....s082........
0B80: 00 95 0B 52 19 80 F8 FF  FF 7F F8 FF FF 7F 73 30  ...R..........s0
0B90: 38 32 01 A4 0B 52 19 80  F8 FF FF 7F F8 FF FF 7F  82...R..........
0BA0: 73 30 37 32 45 19 80 F8  FF FF 7F F8 FF FF 7F 73  s072E..........s
0BB0: 30 37 33 01 80 27 0F 62  11 10 01 4C 2B 62 11 10  073..'.b...L+b..
0BC0: 01 4E 80 1C 47 80 52 19  80 F8 FF FF 7F F8 FF FF  .N..G.R.........
0BD0: 7F 73 30 37 33 45 19 80  F8 FF FF 7F F8 FF FF 7F  .s073E..........
0BE0: 73 30 37 34 01 80 23 2B  62 11 10 01 4F 80 23 2A  s074..#+b...O.#*
0BF0: 0F 62 11 10 01 52 19 80  F8 FF FF 7F F8 FF FF 7F  .b...R..........
0C00: 73 30 37 34 45 19 80 F8  FF FF 7F F8 FF FF 7F 73  s074E..........s
0C10: 30 37 36 01 80 27 0F F0  FF FF 7F 0F 1C 00 80 1C  076..'..........
0C20: 27 80 52 19 80 F8 FF FF  7F F8 FF FF 7F 73 30 37  '.R..........s07
0C30: 36 02 09 10 18 80 00 4D  0C 45 19 80 F8 FF FF 7F  6......M.E......
0C40: F8 FF FF 7F 73 30 38 33  01 80 01 7A 0C 02 09 10  ....s083...z....
0C50: 1A 80 00 69 0C 45 19 80  F8 FF FF 7F F8 FF FF 7F  ...i.E..........
0C60: 73 30 38 33 01 80 01 7A  0C 45 19 80 F8 FF FF 7F  s083...z.E......
0C70: F8 FF FF 7F 73 30 37 35  01 80 4A 62 11 10 01 F0  ....s075..Jb....
0C80: FF FF 7F 6F 76 62 11 10  01 03 03 10 50 80 2B 62  ...ovb......P.+b
0C90: 11 10 01 51 80 23 7B 62  11 10 01 29 0F 62 11 10  ...Q.#{b...).b..
0CA0: 01 03 2B 62 11 10 01 52  80 23 29 0F 62 11 10 01  ..+b...R.#).b...
0CB0: 04 2A 0F F0 FF FF 7F 02  09 10 18 80 00 D1 0C 52  .*.............R
0CC0: 19 80 F8 FF FF 7F F8 FF  FF 7F 73 30 38 33 01 FA  ..........s083..
0CD0: 0C 02 09 10 1A 80 00 EB  0C 52 19 80 F8 FF FF 7F  .........R......
0CE0: F8 FF FF 7F 73 30 38 33  01 FA 0C 52 19 80 F8 FF  ....s083...R....
0CF0: FF 7F F8 FF FF 7F 73 30  37 35 02 09 10 24 80 00  ......s075...$..
0D00: 16 0D 45 19 80 F8 FF FF  7F F8 FF FF 7F 73 30 37  ..E..........s07
0D10: 37 01 80 01 7B 0D 02 09  10 18 80 00 32 0D 45 19  7...{.......2.E.
0D20: 80 F8 FF FF 7F F8 FF FF  7F 73 30 38 34 01 80 01  .........s084...
0D30: 7B 0D 02 09 10 1A 80 00  4E 0D 45 19 80 F8 FF FF  {.......N.E.....
0D40: 7F F8 FF FF 7F 73 30 38  34 01 80 01 7B 0D 02 09  .....s084...{...
0D50: 10 25 80 00 6A 0D 45 19  80 F8 FF FF 7F F8 FF FF  .%..j.E.........
0D60: 7F 73 30 37 37 01 80 01  7B 0D 45 19 80 F8 FF FF  .s077...{.E.....
0D70: 7F F8 FF FF 7F 73 30 38  37 01 80 79 00 62 11 10  .....s087..y.b..
0D80: 01 F0 FF FF 7F 29 0F 62  11 10 01 05 2B 62 11 10  .....).b....+b..
0D90: 01 53 80 23 29 0F 62 11  10 01 06 29 0F 62 11 10  .S.#).b....).b..
0DA0: 01 01 2B 62 11 10 01 54  80 23 5D 01 80 08 80 1A  ..+b...T.#].....
0DB0: 64 00 02 09 10 24 80 00  CC 0D 52 19 80 F8 FF FF  d....$....R.....
0DC0: 7F F8 FF FF 7F 73 30 37  37 01 29 0E 02 09 10 18  .....s077.).....
0DD0: 80 00 E6 0D 52 19 80 F8  FF FF 7F F8 FF FF 7F 73  ....R..........s
0DE0: 30 38 34 01 29 0E 02 09  10 1A 80 00 00 0E 52 19  084.).........R.
0DF0: 80 F8 FF FF 7F F8 FF FF  7F 73 30 38 34 01 29 0E  .........s084.).
0E00: 02 09 10 25 80 00 1A 0E  52 19 80 F8 FF FF 7F F8  ...%....R.......
0E10: FF FF 7F 73 30 37 37 01  29 0E 52 19 80 F8 FF FF  ...s077.).R.....
0E20: 7F F8 FF FF 7F 73 30 38  37 29 0F 62 11 10 01 02  .....s087).b....
0E30: 35 55 80 78 1C 56 80 22  00 1C 56 80 AB 11 01 80  5U.x.V."..V.....
0E40: 1C 03 80 46 00 02 01 00  03 80 00 6F 0E 5C 00 57  ...F.......o.\.W
0E50: 80 5C 01 57 80 9A 5D 17  80 03 80 45 00 80 F8 FF  .\.W..]....E....
0E60: FF 7F F8 FF FF 7F 66 64  69 32 01 80 01 70 0E 30  ......fdi2...p.0
0E70: 21 00                                             !.              
```

#### Opcodes

```
  0: 0x0292 [0x03] ExtData[1]->WorkLocal[2] = 0*
  1: 0x0297 [0x42] SET_CLI_EVENT_CANCEL_DATA()
  2: 0x0298 [0x03] ExtData[1]->WorkLocal[1] = Work_Zone[9]
  3: 0x029D [0x5D] SET_MUSIC_VOLUME(volume=0*, fade_time=300*)
  4: 0x02A2 [0x1A] CALL_SUBROUTINE(address=0x0064)
  5: 0x02A5 [0x46] CAMERA_CONTROL: Disable user control
  6: 0x02A7 [0x38] SET_CLIENT_EVENT_MODE(mode=147*)
  7: 0x02AA [0x2F] Oshasha (ID: 17830242/0x01101162)->Render.Flags0 &= ~0x80000 // Bit 19
  8: 0x02B0 [0x2F] Oscarnot (ID: 17830243/0x01101163)->Render.Flags0 &= ~0x80000 // Bit 19
  9: 0x02B6 [0x2F] Andelmine (ID: 17830244/0x01101164)->Render.Flags0 &= ~0x80000 // Bit 19
 10: 0x02BC [0x2F] Zemerine (ID: 17830245/0x01101165)->Render.Flags0 &= ~0x80000 // Bit 19
 11: 0x02C2 [0x2F] Dusky Forest (ID: 17830246/0x01101166)->Render.Flags0 &= ~0x80000 // Bit 19
 12: 0x02C8 [0x2F] Reglert (ID: 17830247/0x01101167)->Render.Flags0 &= ~0x80000 // Bit 19
 13: 0x02CE [0x2F] Wuger (ID: 17830248/0x01101168)->Render.Flags0 &= ~0x80000 // Bit 19
 14: 0x02D4 [0x2F] Joliese (ID: 17830249/0x01101169)->Render.Flags0 &= ~0x80000 // Bit 19
 15: 0x02DA [0x2F] Gama-Shama (ID: 17830251/0x0110116B)->Render.Flags0 &= ~0x80000 // Bit 19
 16: 0x02E0 [0x4E] SET_ENTITY_HIDE_FLAG: Show Oshasha (ID: 17830242/0x01101162)
 17: 0x02E6 [0x92] Glowing Hearth (ID: 17830118/0x011010E6)->Render.Flags3 ^= 0x01
 18: 0x02EC [0x92] Krepol (ID: 17830119/0x011010E7)->Render.Flags3 ^= 0x01
 19: 0x02F2 [0x94] Glowing Hearth (ID: 17830118/0x011010E6)->Render.Flags3 ^= 0x01
 20: 0x02F8 [0x94] Krepol (ID: 17830119/0x011010E7)->Render.Flags3 ^= 0x01
 21: 0x02FE [0x94] Oshasha (ID: 17830242/0x01101162)->Render.Flags3 ^= 0x01
 22: 0x0304 [0x94] Oscarnot (ID: 17830243/0x01101163)->Render.Flags3 ^= 0x01
 23: 0x030A [0x94] Andelmine (ID: 17830244/0x01101164)->Render.Flags3 ^= 0x01
 24: 0x0310 [0x94] Zemerine (ID: 17830245/0x01101165)->Render.Flags3 ^= 0x01
 25: 0x0316 [0x94] Dusky Forest (ID: 17830246/0x01101166)->Render.Flags3 ^= 0x01
 26: 0x031C [0x94] Reglert (ID: 17830247/0x01101167)->Render.Flags3 ^= 0x01
 27: 0x0322 [0x94] Wuger (ID: 17830248/0x01101168)->Render.Flags3 ^= 0x01
 28: 0x0328 [0x94] Joliese (ID: 17830249/0x01101169)->Render.Flags3 ^= 0x01
 29: 0x032E [0x94] Gama-Shama (ID: 17830251/0x0110116B)->Render.Flags3 ^= 0x01
 30: 0x0334 [0x94] LocalPlayer->Render.Flags3 ^= 0x01
 31: 0x033A [0xBA] SET_ENTITY_POSITION(entity_id=Glowing Hearth (ID: 17830118/0x011010E6), pos_x=-46.033*, pos_z=53.512*, pos_y=-0.150*, direction=377476129.2°*)
 32: 0x0347 [0xBA] SET_ENTITY_POSITION(entity_id=Krepol (ID: 17830119/0x011010E7), pos_x=-33.984*, pos_z=53.707*, pos_y=-0.150*, direction=377476129.2°*)
 33: 0x0354 [0xBA] SET_ENTITY_POSITION(entity_id=Oshasha (ID: 17830242/0x01101162), pos_x=-55.056*, pos_z=56.993*, pos_y=0.000*, direction=153.9°*)
 34: 0x0361 [0xBA] SET_ENTITY_POSITION(entity_id=LocalPlayer, pos_x=-45.961*, pos_z=55.604*, pos_y=0.000*, direction=92.1°*)
 35: 0x036E [0x80] LOAD_WAIT(entity=Glowing Hearth (ID: 17830118/0x011010E6))
 36: 0x0373 [0x80] LOAD_WAIT(entity=Krepol (ID: 17830119/0x011010E7))
 37: 0x0378 [0x80] LOAD_WAIT(entity=Oshasha (ID: 17830242/0x01101162))
 38: 0x037D [0x80] LOAD_WAIT(entity=LocalPlayer)
 39: 0x0382 [0x29] REQ_SET_WAIT(priority=0x0F, entity_id=LocalPlayer, tag_num=0x6C)
 40: 0x0389 [0x02] IF !(ExtData[1]->WorkLocal[2] == 0*) GOTO 0x07BC
 41: 0x0391 [0x4A] Oshasha (ID: 17830242/0x01101162) looks at Glowing Hearth (ID: 17830118/0x011010E6)
 42: 0x039A [0x6F] WAIT_FRAME_DELAY: Yield until WaitTime reaches zero
 43: 0x039B [0x76] CHECK_ENTITY_RENDER_FLAGS: Wait until Oshasha (ID: 17830242/0x01101162) Render.Flags0 and Render.Flags3 conditions are met
 44: 0x03A0 [0x5C] MUSIC_CONTROL: Set Idle (Day) music to song 31*
 45: 0x03A4 [0x5C] MUSIC_CONTROL: Set Idle (Night) music to song 31*
 46: 0x03A8 [0x9A] WAIT_MUSIC_SERVER()
 47: 0x03A9 [0x5D] SET_MUSIC_VOLUME(volume=127*, fade_time=1*)
 48: 0x03AE [0x02] IF !(Work_Zone[9] == 5*) GOTO 0x03CA
 49: 0x03B6 [0x45] LOAD_SCHEDULED_TASK: Load scheduler "s078" with entities [EventEntity, EventEntity], work=[898*, 0*]
 50: 0x03C7 [0x01] GOTO 0x03F7
 51: 0x03CA [0x02] IF !(Work_Zone[9] == 6*) GOTO 0x03E6
 52: 0x03D2 [0x45] LOAD_SCHEDULED_TASK: Load scheduler "s078" with entities [EventEntity, EventEntity], work=[898*, 0*]
 53: 0x03E3 [0x01] GOTO 0x03F7
 54: 0x03E6 [0x45] LOAD_SCHEDULED_TASK: Load scheduler "s058" with entities [EventEntity, EventEntity], work=[898*, 0*]

SUBROUTINE_03F7:
 55: 0x03F7 [0x1A] CALL_SUBROUTINE(address=0x0043)
 56: 0x03FA [0x2B] Glowing Hearth (ID: 17830118/0x011010E6) [13989*]:
    → "This is the Silver Knife. Get lost, commoner."
 57: 0x0401 [0x23] WAIT_FOR_DIALOG_INTERACTION
 58: 0x0402 [0x24] CREATE_DIALOG(message_id=13990*, default_option=0*, option_flags=0*)
    → "Do you have the proper credentials? [I do./Not at the moment.]"
 59: 0x0409 [0x25] WAIT_DIALOG_SELECT()
 60: 0x040A [0x02] IF !(Work_Zone[0] == 0*) GOTO 0x0424
 61: 0x0412 [0x6E] LocalPlayer uses emote 7*
 62: 0x0419 [0x99] Wait for LocalPlayer animation to complete
 63: 0x041E [0x1C] WAIT(90* ticks)
 64: 0x0421 [0x01] GOTO 0x043E
 65: 0x0424 [0x02] IF !(Work_Zone[0] == 1*) GOTO 0x043E
 66: 0x042C [0x6E] LocalPlayer uses emote 6*
 67: 0x0433 [0x99] Wait for LocalPlayer animation to complete
 68: 0x0438 [0x1C] WAIT(90* ticks)
 69: 0x043B [0x01] GOTO 0x043E

SUBROUTINE_043E:
 70: 0x043E [0x02] IF !(Work_Zone[9] == 5*) GOTO 0x0458
 71: 0x0446 [0x52] END_LOAD_SCHEDULER: End scheduler "s078" with entities [EventEntity, EventEntity], work=898*
 72: 0x0455 [0x01] GOTO 0x0481
 73: 0x0458 [0x02] IF !(Work_Zone[9] == 6*) GOTO 0x0472
 74: 0x0460 [0x52] END_LOAD_SCHEDULER: End scheduler "s078" with entities [EventEntity, EventEntity], work=898*
 75: 0x046F [0x01] GOTO 0x0481
 76: 0x0472 [0x52] END_LOAD_SCHEDULER: End scheduler "s058" with entities [EventEntity, EventEntity], work=898*

SUBROUTINE_0481:
 77: 0x0481 [0x45] LOAD_SCHEDULED_TASK: Load scheduler "s059" with entities [EventEntity, EventEntity], work=[898*, 0*]
 78: 0x0492 [0x27] REQ_SET(priority=0x0F, entity_id=Oshasha (ID: 17830242/0x01101162), tag_num=0x48)
 79: 0x0499 [0x1C] WAIT(30* ticks)
 80: 0x049C [0x4A] LocalPlayer looks at Oshasha (ID: 17830242/0x01101162)
 81: 0x04A5 [0x79] Glowing Hearth (ID: 17830118/0x011010E6) looks at Oshasha (ID: 17830242/0x01101162) (Basic look)
 82: 0x04AF [0x2B] Oshasha (ID: 17830242/0x01101162) [13991*]:
    → "I have the invitation rightaru here!"
 83: 0x04B6 [0x6F] WAIT_FRAME_DELAY: Yield until WaitTime reaches zero
 84: 0x04B7 [0x76] CHECK_ENTITY_RENDER_FLAGS: Wait until LocalPlayer Render.Flags0 and Render.Flags3 conditions are met
 85: 0x04BC [0x1C] WAIT(20* ticks)
 86: 0x04BF [0x52] END_LOAD_SCHEDULER: End scheduler "s059" with entities [EventEntity, EventEntity], work=898*
 87: 0x04CE [0x45] LOAD_SCHEDULED_TASK: Load scheduler "s060" with entities [EventEntity, EventEntity], work=[898*, 0*]
 88: 0x04DF [0x1C] WAIT(40* ticks)
 89: 0x04E2 [0x23] WAIT_FOR_DIALOG_INTERACTION
 90: 0x04E3 [0x2A] GET_REQ_LEVEL(level=15, entity_id=Oshasha (ID: 17830242/0x01101162))
 91: 0x04E9 [0x4A] LocalPlayer looks at Oshasha (ID: 17830242/0x01101162)
 92: 0x04F2 [0x6F] WAIT_FRAME_DELAY: Yield until WaitTime reaches zero
 93: 0x04F3 [0x76] CHECK_ENTITY_RENDER_FLAGS: Wait until LocalPlayer Render.Flags0 and Render.Flags3 conditions are met
 94: 0x04F8 [0x52] END_LOAD_SCHEDULER: End scheduler "s060" with entities [EventEntity, EventEntity], work=898*
 95: 0x0507 [0x02] IF !(Work_Zone[9] == 5*) GOTO 0x0523
 96: 0x050F [0x45] LOAD_SCHEDULED_TASK: Load scheduler "s079" with entities [EventEntity, EventEntity], work=[898*, 0*]
 97: 0x0520 [0x01] GOTO 0x0550
 98: 0x0523 [0x02] IF !(Work_Zone[9] == 6*) GOTO 0x053F
 99: 0x052B [0x45] LOAD_SCHEDULED_TASK: Load scheduler "s079" with entities [EventEntity, EventEntity], work=[898*, 0*]
100: 0x053C [0x01] GOTO 0x0550
101: 0x053F [0x45] LOAD_SCHEDULED_TASK: Load scheduler "s062" with entities [EventEntity, EventEntity], work=[898*, 0*]

SUBROUTINE_0550:
102: 0x0550 [0x4A] Oshasha (ID: 17830242/0x01101162) looks at LocalPlayer
103: 0x0559 [0x6F] WAIT_FRAME_DELAY: Yield until WaitTime reaches zero
104: 0x055A [0x76] CHECK_ENTITY_RENDER_FLAGS: Wait until Oshasha (ID: 17830242/0x01101162) Render.Flags0 and Render.Flags3 conditions are met
105: 0x055F [0x03] Work_Zone[2] = (LocalPlayer->Render.Flags01 >> 25) & 1
106: 0x0564 [0x2B] Oshasha (ID: 17830242/0x01101162) [13992*]:
    → "Furthermore, this is <Player>--my stalwartaru friend, bodyguard, and companion."
107: 0x056B [0x1C] WAIT(30* ticks)
108: 0x056E [0x79] Glowing Hearth (ID: 17830118/0x011010E6) looks at LocalPlayer (Basic look)
109: 0x0578 [0x23] WAIT_FOR_DIALOG_INTERACTION
110: 0x0579 [0x02] IF !(Work_Zone[9] == 5*) GOTO 0x0593
111: 0x0581 [0x52] END_LOAD_SCHEDULER: End scheduler "s079" with entities [EventEntity, EventEntity], work=898*
112: 0x0590 [0x01] GOTO 0x05BC
113: 0x0593 [0x02] IF !(Work_Zone[9] == 6*) GOTO 0x05AD
114: 0x059B [0x52] END_LOAD_SCHEDULER: End scheduler "s079" with entities [EventEntity, EventEntity], work=898*
115: 0x05AA [0x01] GOTO 0x05BC
116: 0x05AD [0x52] END_LOAD_SCHEDULER: End scheduler "s062" with entities [EventEntity, EventEntity], work=898*

SUBROUTINE_05BC:
117: 0x05BC [0x45] LOAD_SCHEDULED_TASK: Load scheduler "s061" with entities [EventEntity, EventEntity], work=[898*, 0*]
118: 0x05CD [0x27] REQ_SET(priority=0x07, entity_id=Glowing Hearth (ID: 17830118/0x011010E6), tag_num=0x06)
119: 0x05D4 [0x1C] WAIT(30* ticks)
120: 0x05D7 [0x4A] LocalPlayer looks at Glowing Hearth (ID: 17830118/0x011010E6)
121: 0x05E0 [0x6F] WAIT_FRAME_DELAY: Yield until WaitTime reaches zero
122: 0x05E1 [0x76] CHECK_ENTITY_RENDER_FLAGS: Wait until LocalPlayer Render.Flags0 and Render.Flags3 conditions are met
123: 0x05E6 [0x4A] Oshasha (ID: 17830242/0x01101162) looks at Glowing Hearth (ID: 17830118/0x011010E6)
124: 0x05EF [0x6F] WAIT_FRAME_DELAY: Yield until WaitTime reaches zero
125: 0x05F0 [0x76] CHECK_ENTITY_RENDER_FLAGS: Wait until Oshasha (ID: 17830242/0x01101162) Render.Flags0 and Render.Flags3 conditions are met
126: 0x05F5 [0x2B] Glowing Hearth (ID: 17830118/0x011010E6) [13993*]:
    → "Very well, Lady Osahsha. You and <Player> may enter."
127: 0x05FC [0x23] WAIT_FOR_DIALOG_INTERACTION
128: 0x05FD [0x2A] GET_REQ_LEVEL(level=7, entity_id=Glowing Hearth (ID: 17830118/0x011010E6))
129: 0x0603 [0x52] END_LOAD_SCHEDULER: End scheduler "s061" with entities [EventEntity, EventEntity], work=898*
130: 0x0612 [0x02] IF !(Work_Zone[9] == 3*) GOTO 0x062E
131: 0x061A [0x45] LOAD_SCHEDULED_TASK: Load scheduler "s064" with entities [EventEntity, EventEntity], work=[898*, 0*]
132: 0x062B [0x01] GOTO 0x0693
133: 0x062E [0x02] IF !(Work_Zone[9] == 5*) GOTO 0x064A
134: 0x0636 [0x45] LOAD_SCHEDULED_TASK: Load scheduler "s080" with entities [EventEntity, EventEntity], work=[898*, 0*]
135: 0x0647 [0x01] GOTO 0x0693
136: 0x064A [0x02] IF !(Work_Zone[9] == 6*) GOTO 0x0666
137: 0x0652 [0x45] LOAD_SCHEDULED_TASK: Load scheduler "s080" with entities [EventEntity, EventEntity], work=[898*, 0*]
138: 0x0663 [0x01] GOTO 0x0693
139: 0x0666 [0x02] IF !(Work_Zone[9] == 8*) GOTO 0x0682
140: 0x066E [0x45] LOAD_SCHEDULED_TASK: Load scheduler "s064" with entities [EventEntity, EventEntity], work=[898*, 0*]
141: 0x067F [0x01] GOTO 0x0693
142: 0x0682 [0x45] LOAD_SCHEDULED_TASK: Load scheduler "s085" with entities [EventEntity, EventEntity], work=[898*, 0*]

SUBROUTINE_0693:
143: 0x0693 [0x4A] Oshasha (ID: 17830242/0x01101162) looks at LocalPlayer
144: 0x069C [0x6F] WAIT_FRAME_DELAY: Yield until WaitTime reaches zero
145: 0x069D [0x76] CHECK_ENTITY_RENDER_FLAGS: Wait until Oshasha (ID: 17830242/0x01101162) Render.Flags0 and Render.Flags3 conditions are met
146: 0x06A2 [0x2B] Oshasha (ID: 17830242/0x01101162) [13994*]:
    → "Let's go."
147: 0x06A9 [0x6E] Oshasha (ID: 17830242/0x01101162) uses emote 7*
148: 0x06B0 [0x99] Wait for Oshasha (ID: 17830242/0x01101162) animation to complete
149: 0x06B5 [0x1C] WAIT(30* ticks)
150: 0x06B8 [0x4A] LocalPlayer looks at Oshasha (ID: 17830242/0x01101162)
151: 0x06C1 [0x6F] WAIT_FRAME_DELAY: Yield until WaitTime reaches zero
152: 0x06C2 [0x76] CHECK_ENTITY_RENDER_FLAGS: Wait until LocalPlayer Render.Flags0 and Render.Flags3 conditions are met
153: 0x06C7 [0x1C] WAIT(30* ticks)
154: 0x06CA [0x23] WAIT_FOR_DIALOG_INTERACTION
155: 0x06CB [0x7B] Oshasha (ID: 17830242/0x01101162) stops talking
156: 0x06D0 [0x27] REQ_SET(priority=0x0F, entity_id=Oshasha (ID: 17830242/0x01101162), tag_num=0x49)
157: 0x06D7 [0x1C] WAIT(30* ticks)
158: 0x06DA [0x02] IF !(Work_Zone[9] == 3*) GOTO 0x06F4
159: 0x06E2 [0x52] END_LOAD_SCHEDULER: End scheduler "s064" with entities [EventEntity, EventEntity], work=898*
160: 0x06F1 [0x01] GOTO 0x0751
161: 0x06F4 [0x02] IF !(Work_Zone[9] == 5*) GOTO 0x070E
162: 0x06FC [0x52] END_LOAD_SCHEDULER: End scheduler "s080" with entities [EventEntity, EventEntity], work=898*
163: 0x070B [0x01] GOTO 0x0751
164: 0x070E [0x02] IF !(Work_Zone[9] == 6*) GOTO 0x0728
165: 0x0716 [0x52] END_LOAD_SCHEDULER: End scheduler "s080" with entities [EventEntity, EventEntity], work=898*
166: 0x0725 [0x01] GOTO 0x0751
167: 0x0728 [0x02] IF !(Work_Zone[9] == 8*) GOTO 0x0742
168: 0x0730 [0x52] END_LOAD_SCHEDULER: End scheduler "s064" with entities [EventEntity, EventEntity], work=898*
169: 0x073F [0x01] GOTO 0x0751
170: 0x0742 [0x52] END_LOAD_SCHEDULER: End scheduler "s085" with entities [EventEntity, EventEntity], work=898*

SUBROUTINE_0751:
171: 0x0751 [0x45] LOAD_SCHEDULED_TASK: Load scheduler "s065" with entities [EventEntity, EventEntity], work=[898*, 0*]
172: 0x0762 [0x7B] LocalPlayer stops talking
173: 0x0767 [0x1C] WAIT(40* ticks)
174: 0x076A [0x27] REQ_SET(priority=0x0F, entity_id=LocalPlayer, tag_num=0x0E)
175: 0x0771 [0x1C] WAIT(30* ticks)
176: 0x0774 [0x5D] SET_MUSIC_VOLUME(volume=0*, fade_time=300*)
177: 0x0779 [0x1A] CALL_SUBROUTINE(address=0x0064)
178: 0x077C [0x45] LOAD_SCHEDULED_TASK: Load scheduler "9021" with entities [EventEntity, EventEntity], work=[898*, 0*]
179: 0x078D [0x1C] WAIT(60* ticks)
180: 0x0790 [0x45] LOAD_SCHEDULED_TASK: Load scheduler "9022" with entities [EventEntity, EventEntity], work=[898*, 0*]
181: 0x07A1 [0x2A] GET_REQ_LEVEL(level=15, entity_id=Oshasha (ID: 17830242/0x01101162))
182: 0x07A7 [0x2A] GET_REQ_LEVEL(level=15, entity_id=LocalPlayer)
183: 0x07AD [0x52] END_LOAD_SCHEDULER: End scheduler "s065" with entities [EventEntity, EventEntity], work=898*
184: 0x07BC [0x34] LOAD_UNLOAD_ZONE(zone_id=727*)
185: 0x07BF [0x77] SET_EVENT_TIME_WEATHER(hour=12*, weather=1*)
186: 0x07C4 [0x4E] SET_ENTITY_HIDE_FLAG: Show Oscarnot (ID: 17830243/0x01101163)
187: 0x07CA [0x4E] SET_ENTITY_HIDE_FLAG: Show Andelmine (ID: 17830244/0x01101164)
188: 0x07D0 [0x4E] SET_ENTITY_HIDE_FLAG: Show Zemerine (ID: 17830245/0x01101165)
189: 0x07D6 [0x4E] SET_ENTITY_HIDE_FLAG: Show Dusky Forest (ID: 17830246/0x01101166)
190: 0x07DC [0x4E] SET_ENTITY_HIDE_FLAG: Show Reglert (ID: 17830247/0x01101167)
191: 0x07E2 [0x4E] SET_ENTITY_HIDE_FLAG: Show Wuger (ID: 17830248/0x01101168)
192: 0x07E8 [0x4E] SET_ENTITY_HIDE_FLAG: Show Joliese (ID: 17830249/0x01101169)
193: 0x07EE [0x4E] SET_ENTITY_HIDE_FLAG: Show Gama-Shama (ID: 17830251/0x0110116B)
194: 0x07F4 [0xBA] SET_ENTITY_POSITION(entity_id=Oshasha (ID: 17830242/0x01101162), pos_x=-39.889*, pos_z=45.541*, pos_y=-0.649*, direction=82.6°*)
195: 0x0801 [0xBA] SET_ENTITY_POSITION(entity_id=Oscarnot (ID: 17830243/0x01101163), pos_x=-40.000*, pos_z=25.900*, pos_y=1.350*, direction=377476129.3°*)
196: 0x080E [0xBA] SET_ENTITY_POSITION(entity_id=Andelmine (ID: 17830244/0x01101164), pos_x=-46.000*, pos_z=24.900*, pos_y=1.340*, direction=377476129.3°*)
197: 0x081B [0xBA] SET_ENTITY_POSITION(entity_id=Zemerine (ID: 17830245/0x01101165), pos_x=-34.000*, pos_z=24.900*, pos_y=1.340*, direction=377476129.3°*)
198: 0x0828 [0xBA] SET_ENTITY_POSITION(entity_id=Dusky Forest (ID: 17830246/0x01101166), pos_x=-46.000*, pos_z=47.000*, pos_y=-0.660*, direction=89.9°*)
199: 0x0835 [0xBA] SET_ENTITY_POSITION(entity_id=Reglert (ID: 17830247/0x01101167), pos_x=-34.000*, pos_z=47.000*, pos_y=-0.660*, direction=89.9°*)
200: 0x0842 [0xBA] SET_ENTITY_POSITION(entity_id=Wuger (ID: 17830248/0x01101168), pos_x=-45.582*, pos_z=32.764*, pos_y=1.349*, direction=192.9°*)
201: 0x084F [0xBA] SET_ENTITY_POSITION(entity_id=Joliese (ID: 17830249/0x01101169), pos_x=-45.581*, pos_z=34.787*, pos_y=1.349*, direction=157.0°*)
202: 0x085C [0xBA] SET_ENTITY_POSITION(entity_id=Gama-Shama (ID: 17830251/0x0110116B), pos_x=-33.388*, pos_z=37.799*, pos_y=1.350*, direction=0.0°*)
203: 0x0869 [0xBA] SET_ENTITY_POSITION(entity_id=LocalPlayer, pos_x=-40.903*, pos_z=45.965*, pos_y=-0.649*, direction=82.5°*)
204: 0x0876 [0x80] LOAD_WAIT(entity=Oshasha (ID: 17830242/0x01101162))
205: 0x087B [0x80] LOAD_WAIT(entity=Oscarnot (ID: 17830243/0x01101163))
206: 0x0880 [0x80] LOAD_WAIT(entity=Andelmine (ID: 17830244/0x01101164))
207: 0x0885 [0x80] LOAD_WAIT(entity=Zemerine (ID: 17830245/0x01101165))
208: 0x088A [0x80] LOAD_WAIT(entity=Dusky Forest (ID: 17830246/0x01101166))
209: 0x088F [0x80] LOAD_WAIT(entity=Reglert (ID: 17830247/0x01101167))
210: 0x0894 [0x80] LOAD_WAIT(entity=Wuger (ID: 17830248/0x01101168))
211: 0x0899 [0x80] LOAD_WAIT(entity=Joliese (ID: 17830249/0x01101169))
212: 0x089E [0x80] LOAD_WAIT(entity=Gama-Shama (ID: 17830251/0x0110116B))
213: 0x08A3 [0x5C] MUSIC_CONTROL: Set Idle (Day) music to song 234*
214: 0x08A7 [0x5C] MUSIC_CONTROL: Set Idle (Night) music to song 234*
215: 0x08AB [0x9A] WAIT_MUSIC_SERVER()
216: 0x08AC [0x5D] SET_MUSIC_VOLUME(volume=127*, fade_time=1*)
217: 0x08B1 [0x48] [System] [8289*]:
    → "@@"
218: 0x08B4 [0x1C] WAIT(60* ticks)
219: 0x08B7 [0x45] LOAD_SCHEDULED_TASK: Load scheduler "s063" with entities [EventEntity, EventEntity], work=[898*, 0*]
220: 0x08C8 [0x1A] CALL_SUBROUTINE(address=0x0043)
221: 0x08CB [0x1C] WAIT(120* ticks)
222: 0x08CE [0x52] END_LOAD_SCHEDULER: End scheduler "s063" with entities [EventEntity, EventEntity], work=898*
223: 0x08DD [0x45] LOAD_SCHEDULED_TASK: Load scheduler "s066" with entities [EventEntity, EventEntity], work=[898*, 0*]
224: 0x08EE [0x1C] WAIT(120* ticks)
225: 0x08F1 [0x52] END_LOAD_SCHEDULER: End scheduler "s066" with entities [EventEntity, EventEntity], work=898*
226: 0x0900 [0x45] LOAD_SCHEDULED_TASK: Load scheduler "s067" with entities [EventEntity, EventEntity], work=[898*, 0*]
227: 0x0911 [0x1C] WAIT(120* ticks)
228: 0x0914 [0x52] END_LOAD_SCHEDULER: End scheduler "s067" with entities [EventEntity, EventEntity], work=898*
229: 0x0923 [0x45] LOAD_SCHEDULED_TASK: Load scheduler "s068" with entities [EventEntity, EventEntity], work=[898*, 0*]
230: 0x0934 [0x1C] WAIT(120* ticks)
231: 0x0937 [0x52] END_LOAD_SCHEDULER: End scheduler "s068" with entities [EventEntity, EventEntity], work=898*
232: 0x0946 [0x45] LOAD_SCHEDULED_TASK: Load scheduler "s069" with entities [EventEntity, EventEntity], work=[898*, 0*]
233: 0x0957 [0x1C] WAIT(120* ticks)
234: 0x095A [0x27] REQ_SET(priority=0x0F, entity_id=Oshasha (ID: 17830242/0x01101162), tag_num=0x4B)
235: 0x0961 [0x2B] Oshasha (ID: 17830242/0x01101162) [13995*]:
    → "This is my firstaru time in the Silver Knife. So this is what it looks like..."
236: 0x0968 [0x23] WAIT_FOR_DIALOG_INTERACTION
237: 0x0969 [0x2A] GET_REQ_LEVEL(level=15, entity_id=Oshasha (ID: 17830242/0x01101162))
238: 0x096F [0x52] END_LOAD_SCHEDULER: End scheduler "s069" with entities [EventEntity, EventEntity], work=898*
239: 0x097E [0x02] IF !(Work_Zone[9] == 3*) GOTO 0x099A
240: 0x0986 [0x45] LOAD_SCHEDULED_TASK: Load scheduler "s070" with entities [EventEntity, EventEntity], work=[898*, 0*]
241: 0x0997 [0x01] GOTO 0x09FF
242: 0x099A [0x02] IF !(Work_Zone[9] == 5*) GOTO 0x09B6
243: 0x09A2 [0x45] LOAD_SCHEDULED_TASK: Load scheduler "s081" with entities [EventEntity, EventEntity], work=[898*, 0*]
244: 0x09B3 [0x01] GOTO 0x09FF
245: 0x09B6 [0x02] IF !(Work_Zone[9] == 6*) GOTO 0x09D2
246: 0x09BE [0x45] LOAD_SCHEDULED_TASK: Load scheduler "s081" with entities [EventEntity, EventEntity], work=[898*, 0*]
247: 0x09CF [0x01] GOTO 0x09FF
248: 0x09D2 [0x02] IF !(Work_Zone[9] == 8*) GOTO 0x09EE
249: 0x09DA [0x45] LOAD_SCHEDULED_TASK: Load scheduler "s070" with entities [EventEntity, EventEntity], work=[898*, 0*]
250: 0x09EB [0x01] GOTO 0x09FF
251: 0x09EE [0x45] LOAD_SCHEDULED_TASK: Load scheduler "s086" with entities [EventEntity, EventEntity], work=[898*, 0*]

SUBROUTINE_09FF:
252: 0x09FF [0x4A] Oshasha (ID: 17830242/0x01101162) looks at LocalPlayer
253: 0x0A08 [0x6F] WAIT_FRAME_DELAY: Yield until WaitTime reaches zero
254: 0x0A09 [0x76] CHECK_ENTITY_RENDER_FLAGS: Wait until Oshasha (ID: 17830242/0x01101162) Render.Flags0 and Render.Flags3 conditions are met
255: 0x0A0E [0x29] REQ_SET_WAIT(priority=0x0F, entity_id=Oshasha (ID: 17830242/0x01101162), tag_num=0x01)
256: 0x0A15 [0x2B] Oshasha (ID: 17830242/0x01101162) [13996*]:
    → "Simply put, it is under the Order of Gorney's jurisdiction, with Chero-Machero serving-werving as its director."
257: 0x0A1C [0x1C] WAIT(20* ticks)
258: 0x0A1F [0x4A] LocalPlayer looks at Oshasha (ID: 17830242/0x01101162)
259: 0x0A28 [0x6F] WAIT_FRAME_DELAY: Yield until WaitTime reaches zero
260: 0x0A29 [0x76] CHECK_ENTITY_RENDER_FLAGS: Wait until LocalPlayer Render.Flags0 and Render.Flags3 conditions are met
261: 0x0A2E [0x23] WAIT_FOR_DIALOG_INTERACTION
262: 0x0A2F [0x2B] Oshasha (ID: 17830242/0x01101162) [13997*]:
    → "However, the items here are handled-wandled by the Couriers' Coalition, and Reginald is in charge of it all."
263: 0x0A36 [0x23] WAIT_FOR_DIALOG_INTERACTION
264: 0x0A37 [0x29] REQ_SET_WAIT(priority=0x0F, entity_id=Oshasha (ID: 17830242/0x01101162), tag_num=0x02)
265: 0x0A3E [0x02] IF !(Work_Zone[9] == 3*) GOTO 0x0A58
266: 0x0A46 [0x52] END_LOAD_SCHEDULER: End scheduler "s070" with entities [EventEntity, EventEntity], work=898*
267: 0x0A55 [0x01] GOTO 0x0AB5
268: 0x0A58 [0x02] IF !(Work_Zone[9] == 5*) GOTO 0x0A72
269: 0x0A60 [0x52] END_LOAD_SCHEDULER: End scheduler "s081" with entities [EventEntity, EventEntity], work=898*
270: 0x0A6F [0x01] GOTO 0x0AB5
271: 0x0A72 [0x02] IF !(Work_Zone[9] == 6*) GOTO 0x0A8C
272: 0x0A7A [0x52] END_LOAD_SCHEDULER: End scheduler "s081" with entities [EventEntity, EventEntity], work=898*
273: 0x0A89 [0x01] GOTO 0x0AB5
274: 0x0A8C [0x02] IF !(Work_Zone[9] == 8*) GOTO 0x0AA6
275: 0x0A94 [0x52] END_LOAD_SCHEDULER: End scheduler "s070" with entities [EventEntity, EventEntity], work=898*
276: 0x0AA3 [0x01] GOTO 0x0AB5
277: 0x0AA6 [0x52] END_LOAD_SCHEDULER: End scheduler "s086" with entities [EventEntity, EventEntity], work=898*

SUBROUTINE_0AB5:
278: 0x0AB5 [0x45] LOAD_SCHEDULED_TASK: Load scheduler "s071" with entities [EventEntity, EventEntity], work=[898*, 0*]
279: 0x0AC6 [0x7B] Oshasha (ID: 17830242/0x01101162) stops talking
280: 0x0ACB [0x29] REQ_SET_WAIT(priority=0x0F, entity_id=Oshasha (ID: 17830242/0x01101162), tag_num=0x03)
281: 0x0AD2 [0x2B] Oshasha (ID: 17830242/0x01101162) [13998*]:
    → "There are a variety of auctions held here. It seems thataru both the auction's contents and the invited guests are switched out on a regular basis."
282: 0x0AD9 [0x23] WAIT_FOR_DIALOG_INTERACTION
283: 0x0ADA [0x29] REQ_SET_WAIT(priority=0x0F, entity_id=Oshasha (ID: 17830242/0x01101162), tag_num=0x04)
284: 0x0AE1 [0x29] REQ_SET_WAIT(priority=0x0F, entity_id=Oshasha (ID: 17830242/0x01101162), tag_num=0x05)
285: 0x0AE8 [0x52] END_LOAD_SCHEDULER: End scheduler "s071" with entities [EventEntity, EventEntity], work=898*
286: 0x0AF7 [0x02] IF !(Work_Zone[9] == 5*) GOTO 0x0B13
287: 0x0AFF [0x45] LOAD_SCHEDULED_TASK: Load scheduler "s082" with entities [EventEntity, EventEntity], work=[898*, 0*]
288: 0x0B10 [0x01] GOTO 0x0B40
289: 0x0B13 [0x02] IF !(Work_Zone[9] == 6*) GOTO 0x0B2F
290: 0x0B1B [0x45] LOAD_SCHEDULED_TASK: Load scheduler "s082" with entities [EventEntity, EventEntity], work=[898*, 0*]
291: 0x0B2C [0x01] GOTO 0x0B40
292: 0x0B2F [0x45] LOAD_SCHEDULED_TASK: Load scheduler "s072" with entities [EventEntity, EventEntity], work=[898*, 0*]

SUBROUTINE_0B40:
293: 0x0B40 [0x79] Oshasha (ID: 17830242/0x01101162) looks at LocalPlayer (Basic look)
294: 0x0B4A [0x2B] Oshasha (ID: 17830242/0x01101162) [13999*]:
    → "This invitation I received is only valid-walid for the duration of the Auria Collection auction."
295: 0x0B51 [0x23] WAIT_FOR_DIALOG_INTERACTION
296: 0x0B52 [0x29] REQ_SET_WAIT(priority=0x0F, entity_id=Oshasha (ID: 17830242/0x01101162), tag_num=0x06)
297: 0x0B59 [0x2B] Oshasha (ID: 17830242/0x01101162) [14000*]:
    → "In other words, I believe we are free to roam aboutaru the place while the Auria Collection is being held."
298: 0x0B60 [0x23] WAIT_FOR_DIALOG_INTERACTION
299: 0x0B61 [0x02] IF !(Work_Zone[9] == 5*) GOTO 0x0B7B
300: 0x0B69 [0x52] END_LOAD_SCHEDULER: End scheduler "s082" with entities [EventEntity, EventEntity], work=898*
301: 0x0B78 [0x01] GOTO 0x0BA4
302: 0x0B7B [0x02] IF !(Work_Zone[9] == 6*) GOTO 0x0B95
303: 0x0B83 [0x52] END_LOAD_SCHEDULER: End scheduler "s082" with entities [EventEntity, EventEntity], work=898*
304: 0x0B92 [0x01] GOTO 0x0BA4
305: 0x0B95 [0x52] END_LOAD_SCHEDULER: End scheduler "s072" with entities [EventEntity, EventEntity], work=898*

SUBROUTINE_0BA4:
306: 0x0BA4 [0x45] LOAD_SCHEDULED_TASK: Load scheduler "s073" with entities [EventEntity, EventEntity], work=[898*, 0*]
307: 0x0BB5 [0x27] REQ_SET(priority=0x0F, entity_id=Oshasha (ID: 17830242/0x01101162), tag_num=0x4C)
308: 0x0BBC [0x2B] Oshasha (ID: 17830242/0x01101162) [14001*]:
    → "By the way, I came here to meetaru with a dvergr known as Skokkr Undrborn."
309: 0x0BC3 [0x1C] WAIT(120* ticks)
310: 0x0BC6 [0x52] END_LOAD_SCHEDULER: End scheduler "s073" with entities [EventEntity, EventEntity], work=898*
311: 0x0BD5 [0x45] LOAD_SCHEDULED_TASK: Load scheduler "s074" with entities [EventEntity, EventEntity], work=[898*, 0*]
312: 0x0BE6 [0x23] WAIT_FOR_DIALOG_INTERACTION
313: 0x0BE7 [0x2B] Oshasha (ID: 17830242/0x01101162) [14002*]:
    → "However, looking around here, everybody appears pretty normal-wormal to me."
314: 0x0BEE [0x23] WAIT_FOR_DIALOG_INTERACTION
315: 0x0BEF [0x2A] GET_REQ_LEVEL(level=15, entity_id=Oshasha (ID: 17830242/0x01101162))
316: 0x0BF5 [0x52] END_LOAD_SCHEDULER: End scheduler "s074" with entities [EventEntity, EventEntity], work=898*
317: 0x0C04 [0x45] LOAD_SCHEDULED_TASK: Load scheduler "s076" with entities [EventEntity, EventEntity], work=[898*, 0*]
318: 0x0C15 [0x27] REQ_SET(priority=0x0F, entity_id=LocalPlayer, tag_num=0x0F)
319: 0x0C1C [0x1C] WAIT(200* ticks)
320: 0x0C1F [0x1C] WAIT(60* ticks)
321: 0x0C22 [0x52] END_LOAD_SCHEDULER: End scheduler "s076" with entities [EventEntity, EventEntity], work=898*
322: 0x0C31 [0x02] IF !(Work_Zone[9] == 5*) GOTO 0x0C4D
323: 0x0C39 [0x45] LOAD_SCHEDULED_TASK: Load scheduler "s083" with entities [EventEntity, EventEntity], work=[898*, 0*]
324: 0x0C4A [0x01] GOTO 0x0C7A
325: 0x0C4D [0x02] IF !(Work_Zone[9] == 6*) GOTO 0x0C69
326: 0x0C55 [0x45] LOAD_SCHEDULED_TASK: Load scheduler "s083" with entities [EventEntity, EventEntity], work=[898*, 0*]
327: 0x0C66 [0x01] GOTO 0x0C7A
328: 0x0C69 [0x45] LOAD_SCHEDULED_TASK: Load scheduler "s075" with entities [EventEntity, EventEntity], work=[898*, 0*]

SUBROUTINE_0C7A:
329: 0x0C7A [0x4A] Oshasha (ID: 17830242/0x01101162) looks at LocalPlayer
330: 0x0C83 [0x6F] WAIT_FRAME_DELAY: Yield until WaitTime reaches zero
331: 0x0C84 [0x76] CHECK_ENTITY_RENDER_FLAGS: Wait until Oshasha (ID: 17830242/0x01101162) Render.Flags0 and Render.Flags3 conditions are met
332: 0x0C89 [0x03] Work_Zone[3] = 3302*
333: 0x0C8E [0x2B] Oshasha (ID: 17830242/0x01101162) [14003*]:
    → "According to Valaineral's work deciphering the $3, demons-wemons are able to disguise their form."
334: 0x0C95 [0x23] WAIT_FOR_DIALOG_INTERACTION
335: 0x0C96 [0x7B] Oshasha (ID: 17830242/0x01101162) stops talking
336: 0x0C9B [0x29] REQ_SET_WAIT(priority=0x0F, entity_id=Oshasha (ID: 17830242/0x01101162), tag_num=0x03)
337: 0x0CA2 [0x2B] Oshasha (ID: 17830242/0x01101162) [14004*]:
    → "Therefore, there mightaru be some demons disguised as regular people among us here."
338: 0x0CA9 [0x23] WAIT_FOR_DIALOG_INTERACTION
339: 0x0CAA [0x29] REQ_SET_WAIT(priority=0x0F, entity_id=Oshasha (ID: 17830242/0x01101162), tag_num=0x04)
340: 0x0CB1 [0x2A] GET_REQ_LEVEL(level=15, entity_id=LocalPlayer)
341: 0x0CB7 [0x02] IF !(Work_Zone[9] == 5*) GOTO 0x0CD1
342: 0x0CBF [0x52] END_LOAD_SCHEDULER: End scheduler "s083" with entities [EventEntity, EventEntity], work=898*
343: 0x0CCE [0x01] GOTO 0x0CFA
344: 0x0CD1 [0x02] IF !(Work_Zone[9] == 6*) GOTO 0x0CEB
345: 0x0CD9 [0x52] END_LOAD_SCHEDULER: End scheduler "s083" with entities [EventEntity, EventEntity], work=898*
346: 0x0CE8 [0x01] GOTO 0x0CFA
347: 0x0CEB [0x52] END_LOAD_SCHEDULER: End scheduler "s075" with entities [EventEntity, EventEntity], work=898*

SUBROUTINE_0CFA:
348: 0x0CFA [0x02] IF !(Work_Zone[9] == 3*) GOTO 0x0D16
349: 0x0D02 [0x45] LOAD_SCHEDULED_TASK: Load scheduler "s077" with entities [EventEntity, EventEntity], work=[898*, 0*]
350: 0x0D13 [0x01] GOTO 0x0D7B
351: 0x0D16 [0x02] IF !(Work_Zone[9] == 5*) GOTO 0x0D32
352: 0x0D1E [0x45] LOAD_SCHEDULED_TASK: Load scheduler "s084" with entities [EventEntity, EventEntity], work=[898*, 0*]
353: 0x0D2F [0x01] GOTO 0x0D7B
354: 0x0D32 [0x02] IF !(Work_Zone[9] == 6*) GOTO 0x0D4E
355: 0x0D3A [0x45] LOAD_SCHEDULED_TASK: Load scheduler "s084" with entities [EventEntity, EventEntity], work=[898*, 0*]
356: 0x0D4B [0x01] GOTO 0x0D7B
357: 0x0D4E [0x02] IF !(Work_Zone[9] == 8*) GOTO 0x0D6A
358: 0x0D56 [0x45] LOAD_SCHEDULED_TASK: Load scheduler "s077" with entities [EventEntity, EventEntity], work=[898*, 0*]
359: 0x0D67 [0x01] GOTO 0x0D7B
360: 0x0D6A [0x45] LOAD_SCHEDULED_TASK: Load scheduler "s087" with entities [EventEntity, EventEntity], work=[898*, 0*]

SUBROUTINE_0D7B:
361: 0x0D7B [0x79] Oshasha (ID: 17830242/0x01101162) looks at LocalPlayer (Basic look)
362: 0x0D85 [0x29] REQ_SET_WAIT(priority=0x0F, entity_id=Oshasha (ID: 17830242/0x01101162), tag_num=0x05)
363: 0x0D8C [0x2B] Oshasha (ID: 17830242/0x01101162) [14005*]:
    → "Yes, we should splitaru up and try talking with everyone."
364: 0x0D93 [0x23] WAIT_FOR_DIALOG_INTERACTION
365: 0x0D94 [0x29] REQ_SET_WAIT(priority=0x0F, entity_id=Oshasha (ID: 17830242/0x01101162), tag_num=0x06)
366: 0x0D9B [0x29] REQ_SET_WAIT(priority=0x0F, entity_id=Oshasha (ID: 17830242/0x01101162), tag_num=0x01)
367: 0x0DA2 [0x2B] Oshasha (ID: 17830242/0x01101162) [14006*]:
    → "I appreciate the assistaru, <Player>."
368: 0x0DA9 [0x23] WAIT_FOR_DIALOG_INTERACTION
369: 0x0DAA [0x5D] SET_MUSIC_VOLUME(volume=0*, fade_time=300*)
370: 0x0DAF [0x1A] CALL_SUBROUTINE(address=0x0064)
371: 0x0DB2 [0x02] IF !(Work_Zone[9] == 3*) GOTO 0x0DCC
372: 0x0DBA [0x52] END_LOAD_SCHEDULER: End scheduler "s077" with entities [EventEntity, EventEntity], work=898*
373: 0x0DC9 [0x01] GOTO 0x0E29
374: 0x0DCC [0x02] IF !(Work_Zone[9] == 5*) GOTO 0x0DE6
375: 0x0DD4 [0x52] END_LOAD_SCHEDULER: End scheduler "s084" with entities [EventEntity, EventEntity], work=898*
376: 0x0DE3 [0x01] GOTO 0x0E29
377: 0x0DE6 [0x02] IF !(Work_Zone[9] == 6*) GOTO 0x0E00
378: 0x0DEE [0x52] END_LOAD_SCHEDULER: End scheduler "s084" with entities [EventEntity, EventEntity], work=898*
379: 0x0DFD [0x01] GOTO 0x0E29
380: 0x0E00 [0x02] IF !(Work_Zone[9] == 8*) GOTO 0x0E1A
381: 0x0E08 [0x52] END_LOAD_SCHEDULER: End scheduler "s077" with entities [EventEntity, EventEntity], work=898*
382: 0x0E17 [0x01] GOTO 0x0E29
383: 0x0E1A [0x52] END_LOAD_SCHEDULER: End scheduler "s087" with entities [EventEntity, EventEntity], work=898*

SUBROUTINE_0E29:
384: 0x0E29 [0x29] REQ_SET_WAIT(priority=0x0F, entity_id=Oshasha (ID: 17830242/0x01101162), tag_num=0x02)
385: 0x0E30 [0x35] LOAD_ZONE_NO_CLOSE(zone_id=701*)
386: 0x0E33 [0x78] ENABLE_GAME_TIMER_RESET_WEATHER()
387: 0x0E34 [0x1C] WAIT(15* ticks)
388: 0x0E37 [0x22] ENTITY_HIDE_FLAG(enabled=0x00)
389: 0x0E39 [0x1C] WAIT(15* ticks)
390: 0x0E3C [0xAB] EventEntity->DespawnValue = 0* // Set despawn value
391: 0x0E40 [0x1C] WAIT(1* ticks)
392: 0x0E43 [0x46] CAMERA_CONTROL: Restore default settings
393: 0x0E45 [0x02] IF !(ExtData[1]->WorkLocal[1] == 1*) GOTO 0x0E6F
394: 0x0E4D [0x5C] MUSIC_CONTROL: Set Idle (Day) music to song 63*
395: 0x0E51 [0x5C] MUSIC_CONTROL: Set Idle (Night) music to song 63*
396: 0x0E55 [0x9A] WAIT_MUSIC_SERVER()
397: 0x0E56 [0x5D] SET_MUSIC_VOLUME(volume=127*, fade_time=1*)
398: 0x0E5B [0x45] LOAD_SCHEDULED_TASK: Load scheduler "fdi2" with entities [EventEntity, EventEntity], work=[200*, 0*]
399: 0x0E6C [0x01] GOTO 0x0E70
400: 0x0E6F [0x30] SET_UCOFF_CONTINUE_ZERO()

SUBROUTINE_0E70:
401: 0x0E70 [0x21] END_EVENT
402: 0x0E71 [0x00] END_REQSTACK()
```

### Event 5239

#### Metadata

| Field        | Value      |
|--------------|------------|
| Entrypoint   | 0x0E72     |
| Data Size    | 2347 bytes |
| Instructions | 328        |

```
      00 01 02 03 04 05 06 07  08 09 0A 0B 0C 0D 0E 0F
      -- -- -- -- -- -- -- --  -- -- -- -- -- -- -- --
0E70:       03 02 00 01 80 42  5D 01 80 08 80 1A 64 00    .....B].....d.
0E80: 46 01 38 09 80 2F 00 6C  11 10 01 2F 00 6D 11 10  F.8../.l.../.m..
0E90: 01 2F 00 6E 11 10 01 4E  00 6C 11 10 01 4E 00 6D  ./.n...N.l...N.m
0EA0: 11 10 01 4E 00 6E 11 10  01 92 01 E6 10 10 01 92  ...N.n..........
0EB0: 01 E7 10 10 01 94 01 E6  10 10 01 94 01 E7 10 10  ................
0EC0: 01 94 01 6C 11 10 01 94  01 6D 11 10 01 94 01 6E  ...l.....m.....n
0ED0: 11 10 01 94 01 F0 FF FF  7F BA E6 10 10 01 0A 80  ................
0EE0: 0B 80 0C 80 0D 80 BA E7  10 10 01 58 80 59 80 5A  ...........X.Y.Z
0EF0: 80 5B 80 BA 6C 11 10 01  5C 80 5D 80 5A 80 5E 80  .[..l...\.].Z.^.
0F00: BA 6D 11 10 01 5F 80 60  80 0C 80 61 80 BA 6E 11  .m..._.`...a..n.
0F10: 10 01 62 80 63 80 0C 80  64 80 BA F0 FF FF 7F 13  ..b.c...d.......
0F20: 80 14 80 01 80 15 80 80  E6 10 10 01 80 E7 10 10  ................
0F30: 01 80 6C 11 10 01 80 6D  11 10 01 80 6E 11 10 01  ..l....m....n...
0F40: 80 F0 FF FF 7F 29 0F F0  FF FF 7F 6C 2C 6C 11 10  .....).....l,l..
0F50: 01 6C 11 10 01 77 70 6F  66 4A F0 FF FF 7F E6 10  .l...wpofJ......
0F60: 10 01 4A E7 10 10 01 6C  11 10 01 4A E6 10 10 01  ..J....l...J....
0F70: F0 FF FF 7F 6F 76 F0 FF  FF 7F 6F 76 E6 10 10 01  ....ov....ov....
0F80: 6F 76 E7 10 10 01 02 02  00 01 80 00 47 12 02 09  ov..........G...
0F90: 10 18 80 00 AA 0F 45 65  80 F8 FF FF 7F F8 FF FF  ......Ee........
0FA0: 7F 73 30 37 30 01 80 01  D7 0F 02 09 10 1A 80 00  .s070...........
0FB0: C6 0F 45 65 80 F8 FF FF  7F F8 FF FF 7F 73 30 37  ..Ee.........s07
0FC0: 30 01 80 01 D7 0F 45 65  80 F8 FF FF 7F F8 FF FF  0.....Ee........
0FD0: 7F 73 30 37 30 01 80 1A  43 00 02 03 10 01 80 00  .s070...C.......
0FE0: ED 0F 2B E6 10 10 01 66  80 23 01 F5 0F 2B E6 10  ..+....f.#...+..
0FF0: 10 01 67 80 23 27 0F 6C  11 10 01 4C 27 0F 6E 11  ..g.#'.l...L'.n.
1000: 10 01 11 27 0F 6D 11 10  01 14 1C 18 80 52 65 80  ...'.m.......Re.
1010: F8 FF FF 7F F8 FF FF 7F  73 30 37 30 45 65 80 F8  ........s070Ee..
1020: FF FF 7F F8 FF FF 7F 73  30 37 31 01 80 2B 6C 11  .......s071..+l.
1030: 10 01 68 80 5C 00 69 80  5C 01 69 80 9A 5D 17 80  ..h.\.i.\.i..]..
1040: 03 80 4A F0 FF FF 7F 6C  11 10 01 6F 76 F0 FF FF  ..J....l...ov...
1050: 7F 4A E6 10 10 01 6C 11  10 01 4A E7 10 10 01 6C  .J....l...J....l
1060: 11 10 01 6F 76 E6 10 10  01 1C 27 80 23 52 65 80  ...ov.....'.#Re.
1070: F8 FF FF 7F F8 FF FF 7F  73 30 37 31 45 65 80 F8  ........s071Ee..
1080: FF FF 7F F8 FF FF 7F 73  30 37 32 01 80 29 0F 6C  .......s072..).l
1090: 11 10 01 31 2B 6C 11 10  01 6A 80 2A 0F 6C 11 10  ...1+l...j.*.l..
10A0: 01 29 0F 6C 11 10 01 32  29 0F 6C 11 10 01 33 45  .).l...2).l...3E
10B0: 65 80 F8 FF FF 7F F8 FF  FF 7F 31 30 31 34 01 80  e.........1014..
10C0: 29 0F 6C 11 10 01 34 23  2A 0F 6E 11 10 01 2A 0F  ).l...4#*.n...*.
10D0: 6D 11 10 01 6F 76 E7 10  10 01 52 65 80 F8 FF FF  m...ov....Re....
10E0: 7F F8 FF FF 7F 73 30 37  32 02 09 10 18 80 00 05  .....s072.......
10F0: 11 45 65 80 F8 FF FF 7F  F8 FF FF 7F 73 30 38 33  .Ee.........s083
1100: 01 80 01 32 11 02 09 10  1A 80 00 21 11 45 65 80  ...2.......!.Ee.
1110: F8 FF FF 7F F8 FF FF 7F  73 30 38 33 01 80 01 32  ........s083...2
1120: 11 45 65 80 F8 FF FF 7F  F8 FF FF 7F 73 30 37 33  .Ee.........s073
1130: 01 80 79 00 F0 FF FF 7F  6D 11 10 01 27 0F 6D 11  ..y.....m...'.m.
1140: 10 01 15 2B 6D 11 10 01  6B 80 1C 20 80 79 00 E6  ...+m...k.. .y..
1150: 10 10 01 6D 11 10 01 23  2A 0F 6D 11 10 01 02 09  ...m...#*.m.....
1160: 10 18 80 00 78 11 52 65  80 F8 FF FF 7F F8 FF FF  ....x.Re........
1170: 7F 73 30 38 33 01 A1 11  02 09 10 1A 80 00 92 11  .s083...........
1180: 52 65 80 F8 FF FF 7F F8  FF FF 7F 73 30 38 33 01  Re.........s083.
1190: A1 11 52 65 80 F8 FF FF  7F F8 FF FF 7F 73 30 37  ..Re.........s07
11A0: 33 45 65 80 F8 FF FF 7F  F8 FF FF 7F 73 30 37 34  3Ee.........s074
11B0: 01 80 29 0F 6E 11 10 01  0A 45 65 80 F8 FF FF 7F  ..).n....Ee.....
11C0: F8 FF FF 7F 31 30 31 35  01 80 2B 6E 11 10 01 6C  ....1015..+n...l
11D0: 80 29 0F 6C 11 10 01 31  29 0F 6C 11 10 01 32 23  .).l...1).l...2#
11E0: 29 0F 6E 11 10 01 0B 52  65 80 F8 FF FF 7F F8 FF  ).n....Re.......
11F0: FF 7F 73 30 37 34 45 65  80 F8 FF FF 7F F8 FF FF  ..s074Ee........
1200: 7F 73 30 37 35 01 80 2B  6C 11 10 01 6D 80 29 0F  .s075..+l...m.).
1210: 6C 11 10 01 31 29 0F 6C  11 10 01 33 45 65 80 F8  l...1).l...3Ee..
1220: FF FF 7F F8 FF FF 7F 31  30 31 34 01 80 29 0F 6C  .......1014..).l
1230: 11 10 01 34 23 1A 64 00  52 65 80 F8 FF FF 7F F8  ...4#.d.Re......
1240: FF FF 7F 73 30 37 35 BA  6C 11 10 01 5F 80 60 80  ...s075.l..._.`.
1250: 0C 80 61 80 BA 6D 11 10  01 6E 80 6F 80 70 80 71  ..a..m...n.o.p.q
1260: 80 BA 6E 11 10 01 62 80  63 80 0C 80 64 80 BA F0  ..n...b.c...d...
1270: FF FF 7F 72 80 73 80 01  80 74 80 79 00 F0 FF FF  ...r.s...t.y....
1280: 7F 6C 11 10 01 4A 6C 11  10 01 F0 FF FF 7F 4A 6E  .l...Jl.......Jn
1290: 11 10 01 F0 FF FF 7F 4A  6D 11 10 01 F0 FF FF 7F  .......Jm.......
12A0: 4A E7 10 10 01 6C 11 10  01 6F 76 6C 11 10 01 6F  J....l...ovl...o
12B0: 76 6E 11 10 01 6F 76 6D  11 10 01 6F 76 E7 10 10  vn...ovm...ov...
12C0: 01 7B 6C 11 10 01 29 0F  6C 11 10 01 25 29 0F 6C  .{l...).l...%).l
12D0: 11 10 01 26 79 00 F0 FF  FF 7F 6E 11 10 01 29 0F  ...&y.....n...).
12E0: F0 FF FF 7F 10 45 65 80  F8 FF FF 7F F8 FF FF 7F  .....Ee.........
12F0: 73 30 37 36 01 80 1A 43  00 1C 75 80 79 00 F0 FF  s076...C..u.y...
1300: FF 7F 6C 11 10 01 1C 75  80 29 0F F0 FF FF 7F 11  ..l....u.)......
1310: 1C 76 80 52 65 80 F8 FF  FF 7F F8 FF FF 7F 73 30  .v.Re.........s0
1320: 37 36 02 09 10 24 80 00  3E 13 45 65 80 F8 FF FF  76...$..>.Ee....
1330: 7F F8 FF FF 7F 73 30 37  37 01 80 01 A3 13 02 09  .....s077.......
1340: 10 18 80 00 5A 13 45 65  80 F8 FF FF 7F F8 FF FF  ....Z.Ee........
1350: 7F 73 30 38 34 01 80 01  A3 13 02 09 10 1A 80 00  .s084...........
1360: 76 13 45 65 80 F8 FF FF  7F F8 FF FF 7F 73 30 38  v.Ee.........s08
1370: 34 01 80 01 A3 13 02 09  10 25 80 00 92 13 45 65  4........%....Ee
1380: 80 F8 FF FF 7F F8 FF FF  7F 73 30 37 37 01 80 01  .........s077...
1390: A3 13 45 65 80 F8 FF FF  7F F8 FF FF 7F 73 30 38  ..Ee.........s08
13A0: 35 01 80 29 0F 6C 11 10  01 27 2B 6C 11 10 01 77  5..).l...'+l...w
13B0: 80 23 29 0F 6C 11 10 01  28 45 65 80 F8 FF FF 7F  .#).l...(Ee.....
13C0: F8 FF FF 7F 31 30 31 33  01 80 29 0F 6C 11 10 01  ....1013..).l...
13D0: 1B 2B 6C 11 10 01 78 80  23 29 0F 6C 11 10 01 1C  .+l...x.#).l....
13E0: 02 09 10 24 80 00 FA 13  52 19 80 F8 FF FF 7F F8  ...$....R.......
13F0: FF FF 7F 73 30 37 37 01  57 14 02 09 10 18 80 00  ...s077.W.......
1400: 14 14 52 19 80 F8 FF FF  7F F8 FF FF 7F 73 30 38  ..R..........s08
1410: 34 01 57 14 02 09 10 1A  80 00 2E 14 52 19 80 F8  4.W.........R...
1420: FF FF 7F F8 FF FF 7F 73  30 38 34 01 57 14 02 09  .......s084.W...
1430: 10 25 80 00 48 14 52 19  80 F8 FF FF 7F F8 FF FF  .%..H.R.........
1440: 7F 73 30 37 37 01 57 14  52 19 80 F8 FF FF 7F F8  .s077.W.R.......
1450: FF FF 7F 73 30 38 35 45  65 80 F8 FF FF 7F F8 FF  ...s085Ee.......
1460: FF 7F 73 30 37 38 01 80  29 0F 6C 11 10 01 1D 29  ..s078..).l....)
1470: 0F 6D 11 10 01 0B 2B 6D  11 10 01 79 80 1C 06 80  .m....+m...y....
1480: 4A 6E 11 10 01 6D 11 10  01 1C 7A 80 29 0F 6C 11  Jn...m....z.).l.
1490: 10 01 1E 4A 6C 11 10 01  6D 11 10 01 6F 76 6E 11  ...Jl...m...ovn.
14A0: 10 01 23 29 0F 6D 11 10  01 0C 2B 6E 11 10 01 7B  ..#).m....+n...{
14B0: 80 1C 06 80 4A 6D 11 10  01 6E 11 10 01 6F 76 6D  ....Jm...n...ovm
14C0: 11 10 01 6F 76 6C 11 10  01 23 52 65 80 F8 FF FF  ...ovl...#Re....
14D0: 7F F8 FF FF 7F 73 30 37  38 45 65 80 F8 FF FF 7F  .....s078Ee.....
14E0: F8 FF FF 7F 73 30 37 39  01 80 4B 6D 11 10 01 7C  ....s079..Km...|
14F0: 80 6F 76 6D 11 10 01 29  0F 6D 11 10 01 01 2B 6D  .ovm...).m....+m
1500: 11 10 01 7D 80 1C 06 80  29 0F 6C 11 10 01 25 23  ...}....).l...%#
1510: 29 0F 6D 11 10 01 02 29  0F 6D 11 10 01 03 29 0F  ).m....).m....).
1520: 6C 11 10 01 26 2B 6C 11  10 01 7E 80 1C 20 80 45  l...&+l...~.. .E
1530: 65 80 F8 FF FF 7F F8 FF  FF 7F 31 30 31 34 01 80  e.........1014..
1540: 29 0F 6D 11 10 01 04 4A  6D 11 10 01 6C 11 10 01  ).m....Jm...l...
1550: 6F 76 6D 11 10 01 4A 6E  11 10 01 6C 11 10 01 23  ovm...Jn...l...#
1560: 52 65 80 F8 FF FF 7F F8  FF FF 7F 73 30 37 39 45  Re.........s079E
1570: 65 80 F8 FF FF 7F F8 FF  FF 7F 73 30 38 30 01 80  e.........s080..
1580: 29 0F 6C 11 10 01 27 29  0F 6C 11 10 01 28 4B 6C  ).l...').l...(Kl
1590: 11 10 01 7F 80 6F 76 6E  11 10 01 6F 76 6C 11 10  .....ovn...ovl..
15A0: 01 29 0F 6C 11 10 01 29  45 65 80 F8 FF FF 7F F8  .).l...)Ee......
15B0: FF FF 7F 31 30 31 31 01  80 2B 6C 11 10 01 80 80  ...1011..+l.....
15C0: 23 29 0F 6C 11 10 01 2A  29 0F 6C 11 10 01 2B 79  #).l...*).l...+y
15D0: 00 F0 FF FF 7F 6D 11 10  01 29 0F 6D 11 10 01 05  .....m...).m....
15E0: 2B 6D 11 10 01 81 80 1C  20 80 45 65 80 F8 FF FF  +m...... .Ee....
15F0: 7F F8 FF FF 7F 30 30 30  34 01 80 23 29 0F 6C 11  .....0004..#).l.
1600: 10 01 2C 29 0F 6D 11 10  01 06 29 0F 6D 11 10 01  ..,).m....).m...
1610: 07 52 65 80 F8 FF FF 7F  F8 FF FF 7F 73 30 38 30  .Re.........s080
1620: 45 65 80 F8 FF FF 7F F8  FF FF 7F 73 30 38 31 01  Ee.........s081.
1630: 80 4A 6E 11 10 01 6D 11  10 01 6F 76 6E 11 10 01  .Jn...m...ovn...
1640: 2B 6E 11 10 01 82 80 1C  7A 80 79 00 F0 FF FF 7F  +n......z.y.....
1650: 6E 11 10 01 29 0F 6D 11  10 01 08 4A 6D 11 10 01  n...).m....Jm...
1660: 6E 11 10 01 6F 76 6D 11  10 01 29 0F 6D 11 10 01  n...ovm...).m...
1670: 09 29 0F 6D 11 10 01 0A  23 52 65 80 F8 FF FF 7F  .).m....#Re.....
1680: F8 FF FF 7F 73 30 38 31  45 65 80 F8 FF FF 7F F8  ....s081Ee......
1690: FF FF 7F 73 30 38 32 01  80 29 0F 6D 11 10 01 0B  ...s082..).m....
16A0: 4A 6C 11 10 01 F0 FF FF  7F 6F 76 6C 11 10 01 4A  Jl.......ovl...J
16B0: F0 FF FF 7F 6C 11 10 01  29 0F 6C 11 10 01 23 29  ....l...).l...#)
16C0: 0F 6C 11 10 01 24 6F 76  F0 FF FF 7F 27 0F 6C 11  .l...$ov....'.l.
16D0: 10 01 4D 6E F0 FF FF 7F  83 80 99 F0 FF FF 7F 1C  ..Mn............
16E0: 21 80 4A E7 10 10 01 6C  11 10 01 29 0F 6D 11 10  !.J....l...).m..
16F0: 01 0C 4A 6D 11 10 01 6C  11 10 01 6F 76 6D 11 10  ..Jm...l...ovm..
1700: 01 4A 6E 11 10 01 6C 11  10 01 6F 76 6E 11 10 01  .Jn...l...ovn...
1710: 27 0F 6D 11 10 01 16 1C  20 80 27 0F 6E 11 10 01  '.m..... .'.n...
1720: 12 1C 27 80 4A F0 FF FF  7F 6C 11 10 01 6F 76 F0  ..'.J....l...ov.
1730: FF FF 7F 1C 27 80 5D 01  80 08 80 1A 64 00 52 65  ....'.].....d.Re
1740: 80 F8 FF FF 7F F8 FF FF  7F 73 30 38 32 2A 0F 6C  .........s082*.l
1750: 11 10 01 2A 0F 6D 11 10  01 2A 0F 6E 11 10 01 5C  ...*.m...*.n...\
1760: 00 57 80 5C 01 57 80 9A  5D 17 80 03 80 1C 56 80  .W.\.W..].....V.
1770: AB 11 01 80 1C 03 80 46  00 45 02 80 F8 FF FF 7F  .......F.E......
1780: F8 FF FF 7F 71 73 74 63  01 80 45 00 80 F8 FF FF  ....qstc..E.....
1790: 7F F8 FF FF 7F 66 64 69  32 01 80 21 00           .....fdi2..!.   
```

#### Opcodes

```
  0: 0x0E72 [0x03] ExtData[1]->WorkLocal[2] = 0*
  1: 0x0E77 [0x42] SET_CLI_EVENT_CANCEL_DATA()
  2: 0x0E78 [0x5D] SET_MUSIC_VOLUME(volume=0*, fade_time=300*)
  3: 0x0E7D [0x1A] CALL_SUBROUTINE(address=0x0064)
  4: 0x0E80 [0x46] CAMERA_CONTROL: Disable user control
  5: 0x0E82 [0x38] SET_CLIENT_EVENT_MODE(mode=147*)
  6: 0x0E85 [0x2F] Gloom Phantom (ID: 17830252/0x0110116C)->Render.Flags0 &= ~0x80000 // Bit 19
  7: 0x0E8B [0x2F] Magh Bihu (ID: 17830253/0x0110116D)->Render.Flags0 &= ~0x80000 // Bit 19
  8: 0x0E91 [0x2F] Dazbog (ID: 17830254/0x0110116E)->Render.Flags0 &= ~0x80000 // Bit 19
  9: 0x0E97 [0x4E] SET_ENTITY_HIDE_FLAG: Show Gloom Phantom (ID: 17830252/0x0110116C)
 10: 0x0E9D [0x4E] SET_ENTITY_HIDE_FLAG: Show Magh Bihu (ID: 17830253/0x0110116D)
 11: 0x0EA3 [0x4E] SET_ENTITY_HIDE_FLAG: Show Dazbog (ID: 17830254/0x0110116E)
 12: 0x0EA9 [0x92] Glowing Hearth (ID: 17830118/0x011010E6)->Render.Flags3 ^= 0x01
 13: 0x0EAF [0x92] Krepol (ID: 17830119/0x011010E7)->Render.Flags3 ^= 0x01
 14: 0x0EB5 [0x94] Glowing Hearth (ID: 17830118/0x011010E6)->Render.Flags3 ^= 0x01
 15: 0x0EBB [0x94] Krepol (ID: 17830119/0x011010E7)->Render.Flags3 ^= 0x01
 16: 0x0EC1 [0x94] Gloom Phantom (ID: 17830252/0x0110116C)->Render.Flags3 ^= 0x01
 17: 0x0EC7 [0x94] Magh Bihu (ID: 17830253/0x0110116D)->Render.Flags3 ^= 0x01
 18: 0x0ECD [0x94] Dazbog (ID: 17830254/0x0110116E)->Render.Flags3 ^= 0x01
 19: 0x0ED3 [0x94] LocalPlayer->Render.Flags3 ^= 0x01
 20: 0x0ED9 [0xBA] SET_ENTITY_POSITION(entity_id=Glowing Hearth (ID: 17830118/0x011010E6), pos_x=-46.033*, pos_z=53.512*, pos_y=-0.150*, direction=377476129.2°*)
 21: 0x0EE6 [0xBA] SET_ENTITY_POSITION(entity_id=Krepol (ID: 17830119/0x011010E7), pos_x=-36.155*, pos_z=53.343*, pos_y=-0.149*, direction=288.1°*)
 22: 0x0EF3 [0xBA] SET_ENTITY_POSITION(entity_id=Gloom Phantom (ID: 17830252/0x0110116C), pos_x=-29.966*, pos_z=55.592*, pos_y=-0.149*, direction=345.5°*)
 23: 0x0F00 [0xBA] SET_ENTITY_POSITION(entity_id=Magh Bihu (ID: 17830253/0x0110116D), pos_x=-28.390*, pos_z=57.054*, pos_y=-0.150*, direction=87.7°*)
 24: 0x0F0D [0xBA] SET_ENTITY_POSITION(entity_id=Dazbog (ID: 17830254/0x0110116E), pos_x=-27.850*, pos_z=54.769*, pos_y=-0.150*, direction=204.5°*)
 25: 0x0F1A [0xBA] SET_ENTITY_POSITION(entity_id=LocalPlayer, pos_x=-45.961*, pos_z=55.604*, pos_y=0.000*, direction=92.1°*)
 26: 0x0F27 [0x80] LOAD_WAIT(entity=Glowing Hearth (ID: 17830118/0x011010E6))
 27: 0x0F2C [0x80] LOAD_WAIT(entity=Krepol (ID: 17830119/0x011010E7))
 28: 0x0F31 [0x80] LOAD_WAIT(entity=Gloom Phantom (ID: 17830252/0x0110116C))
 29: 0x0F36 [0x80] LOAD_WAIT(entity=Magh Bihu (ID: 17830253/0x0110116D))
 30: 0x0F3B [0x80] LOAD_WAIT(entity=Dazbog (ID: 17830254/0x0110116E))
 31: 0x0F40 [0x80] LOAD_WAIT(entity=LocalPlayer)
 32: 0x0F45 [0x29] REQ_SET_WAIT(priority=0x0F, entity_id=LocalPlayer, tag_num=0x6C)
 33: 0x0F4C [0x2C] CREATE_SCHEDULER_TASK: Create scheduler "wpof" with entities [Gloom Phantom (ID: 17830252/0x0110116C), Gloom Phantom (ID: 17830252/0x0110116C)]
 34: 0x0F59 [0x4A] LocalPlayer looks at Glowing Hearth (ID: 17830118/0x011010E6)
 35: 0x0F62 [0x4A] Krepol (ID: 17830119/0x011010E7) looks at Gloom Phantom (ID: 17830252/0x0110116C)
 36: 0x0F6B [0x4A] Glowing Hearth (ID: 17830118/0x011010E6) looks at LocalPlayer
 37: 0x0F74 [0x6F] WAIT_FRAME_DELAY: Yield until WaitTime reaches zero
 38: 0x0F75 [0x76] CHECK_ENTITY_RENDER_FLAGS: Wait until LocalPlayer Render.Flags0 and Render.Flags3 conditions are met
 39: 0x0F7A [0x6F] WAIT_FRAME_DELAY: Yield until WaitTime reaches zero
 40: 0x0F7B [0x76] CHECK_ENTITY_RENDER_FLAGS: Wait until Glowing Hearth (ID: 17830118/0x011010E6) Render.Flags0 and Render.Flags3 conditions are met
 41: 0x0F80 [0x6F] WAIT_FRAME_DELAY: Yield until WaitTime reaches zero
 42: 0x0F81 [0x76] CHECK_ENTITY_RENDER_FLAGS: Wait until Krepol (ID: 17830119/0x011010E7) Render.Flags0 and Render.Flags3 conditions are met
 43: 0x0F86 [0x02] IF !(ExtData[1]->WorkLocal[2] == 0*) GOTO 0x1247
 44: 0x0F8E [0x02] IF !(Work_Zone[9] == 5*) GOTO 0x0FAA
 45: 0x0F96 [0x45] LOAD_SCHEDULED_TASK: Load scheduler "s070" with entities [EventEntity, EventEntity], work=[930*, 0*]
 46: 0x0FA7 [0x01] GOTO 0x0FD7
 47: 0x0FAA [0x02] IF !(Work_Zone[9] == 6*) GOTO 0x0FC6
 48: 0x0FB2 [0x45] LOAD_SCHEDULED_TASK: Load scheduler "s070" with entities [EventEntity, EventEntity], work=[930*, 0*]
 49: 0x0FC3 [0x01] GOTO 0x0FD7
 50: 0x0FC6 [0x45] LOAD_SCHEDULED_TASK: Load scheduler "s070" with entities [EventEntity, EventEntity], work=[930*, 0*]

SUBROUTINE_0FD7:
 51: 0x0FD7 [0x1A] CALL_SUBROUTINE(address=0x0043)
 52: 0x0FDA [0x02] IF !(Work_Zone[3] == 0*) GOTO 0x0FED
 53: 0x0FE2 [0x2B] Glowing Hearth (ID: 17830118/0x011010E6) [14013*]:
    → "This is the Silver Knife. Only those who are worthy may enter."
 54: 0x0FE9 [0x23] WAIT_FOR_DIALOG_INTERACTION
 55: 0x0FEA [0x01] GOTO 0x0FF5
 56: 0x0FED [0x2B] Glowing Hearth (ID: 17830118/0x011010E6) [14014*]:
    → "Oh, is that you, <Player>? I hate to be intrusive, but could you please remove that outfit?"
 57: 0x0FF4 [0x23] WAIT_FOR_DIALOG_INTERACTION

SUBROUTINE_0FF5:
 58: 0x0FF5 [0x27] REQ_SET(priority=0x0F, entity_id=Gloom Phantom (ID: 17830252/0x0110116C), tag_num=0x4C)
 59: 0x0FFC [0x27] REQ_SET(priority=0x0F, entity_id=Dazbog (ID: 17830254/0x0110116E), tag_num=0x11)
 60: 0x1003 [0x27] REQ_SET(priority=0x0F, entity_id=Magh Bihu (ID: 17830253/0x0110116D), tag_num=0x14)
 61: 0x100A [0x1C] WAIT(5* ticks)
 62: 0x100D [0x52] END_LOAD_SCHEDULER: End scheduler "s070" with entities [EventEntity, EventEntity], work=930*
 63: 0x101C [0x45] LOAD_SCHEDULED_TASK: Load scheduler "s071" with entities [EventEntity, EventEntity], work=[930*, 0*]
 64: 0x102D [0x2B] Gloom Phantom (ID: 17830252/0x0110116C) [14015*]:
    → "There you are, <Player>!"
 65: 0x1034 [0x5C] MUSIC_CONTROL: Set Idle (Day) music to song 28*
 66: 0x1038 [0x5C] MUSIC_CONTROL: Set Idle (Night) music to song 28*
 67: 0x103C [0x9A] WAIT_MUSIC_SERVER()
 68: 0x103D [0x5D] SET_MUSIC_VOLUME(volume=127*, fade_time=1*)
 69: 0x1042 [0x4A] LocalPlayer looks at Gloom Phantom (ID: 17830252/0x0110116C)
 70: 0x104B [0x6F] WAIT_FRAME_DELAY: Yield until WaitTime reaches zero
 71: 0x104C [0x76] CHECK_ENTITY_RENDER_FLAGS: Wait until LocalPlayer Render.Flags0 and Render.Flags3 conditions are met
 72: 0x1051 [0x4A] Glowing Hearth (ID: 17830118/0x011010E6) looks at Gloom Phantom (ID: 17830252/0x0110116C)
 73: 0x105A [0x4A] Krepol (ID: 17830119/0x011010E7) looks at Gloom Phantom (ID: 17830252/0x0110116C)
 74: 0x1063 [0x6F] WAIT_FRAME_DELAY: Yield until WaitTime reaches zero
 75: 0x1064 [0x76] CHECK_ENTITY_RENDER_FLAGS: Wait until Glowing Hearth (ID: 17830118/0x011010E6) Render.Flags0 and Render.Flags3 conditions are met
 76: 0x1069 [0x1C] WAIT(60* ticks)
 77: 0x106C [0x23] WAIT_FOR_DIALOG_INTERACTION
 78: 0x106D [0x52] END_LOAD_SCHEDULER: End scheduler "s071" with entities [EventEntity, EventEntity], work=930*
 79: 0x107C [0x45] LOAD_SCHEDULED_TASK: Load scheduler "s072" with entities [EventEntity, EventEntity], work=[930*, 0*]
 80: 0x108D [0x29] REQ_SET_WAIT(priority=0x0F, entity_id=Gloom Phantom (ID: 17830252/0x0110116C), tag_num=0x31)
 81: 0x1094 [0x2B] Gloom Phantom (ID: 17830252/0x0110116C) [14016*]:
    → "Well!? Did you find the egg!?"
 82: 0x109B [0x2A] GET_REQ_LEVEL(level=15, entity_id=Gloom Phantom (ID: 17830252/0x0110116C))
 83: 0x10A1 [0x29] REQ_SET_WAIT(priority=0x0F, entity_id=Gloom Phantom (ID: 17830252/0x0110116C), tag_num=0x32)
 84: 0x10A8 [0x29] REQ_SET_WAIT(priority=0x0F, entity_id=Gloom Phantom (ID: 17830252/0x0110116C), tag_num=0x33)
 85: 0x10AF [0x45] LOAD_SCHEDULED_TASK: Load scheduler "1014" with entities [EventEntity, EventEntity], work=[930*, 0*]
 86: 0x10C0 [0x29] REQ_SET_WAIT(priority=0x0F, entity_id=Gloom Phantom (ID: 17830252/0x0110116C), tag_num=0x34)
 87: 0x10C7 [0x23] WAIT_FOR_DIALOG_INTERACTION
 88: 0x10C8 [0x2A] GET_REQ_LEVEL(level=15, entity_id=Dazbog (ID: 17830254/0x0110116E))
 89: 0x10CE [0x2A] GET_REQ_LEVEL(level=15, entity_id=Magh Bihu (ID: 17830253/0x0110116D))
 90: 0x10D4 [0x6F] WAIT_FRAME_DELAY: Yield until WaitTime reaches zero
 91: 0x10D5 [0x76] CHECK_ENTITY_RENDER_FLAGS: Wait until Krepol (ID: 17830119/0x011010E7) Render.Flags0 and Render.Flags3 conditions are met
 92: 0x10DA [0x52] END_LOAD_SCHEDULER: End scheduler "s072" with entities [EventEntity, EventEntity], work=930*
 93: 0x10E9 [0x02] IF !(Work_Zone[9] == 5*) GOTO 0x1105
 94: 0x10F1 [0x45] LOAD_SCHEDULED_TASK: Load scheduler "s083" with entities [EventEntity, EventEntity], work=[930*, 0*]
 95: 0x1102 [0x01] GOTO 0x1132
 96: 0x1105 [0x02] IF !(Work_Zone[9] == 6*) GOTO 0x1121
 97: 0x110D [0x45] LOAD_SCHEDULED_TASK: Load scheduler "s083" with entities [EventEntity, EventEntity], work=[930*, 0*]
 98: 0x111E [0x01] GOTO 0x1132
 99: 0x1121 [0x45] LOAD_SCHEDULED_TASK: Load scheduler "s073" with entities [EventEntity, EventEntity], work=[930*, 0*]

SUBROUTINE_1132:
100: 0x1132 [0x79] LocalPlayer looks at Magh Bihu (ID: 17830253/0x0110116D) (Basic look)
101: 0x113C [0x27] REQ_SET(priority=0x0F, entity_id=Magh Bihu (ID: 17830253/0x0110116D), tag_num=0x15)
102: 0x1143 [0x2B] Magh Bihu (ID: 17830253/0x0110116D) [14017*]:
    → "Egg discovered near Castle Zvahl."
103: 0x114A [0x1C] WAIT(20* ticks)
104: 0x114D [0x79] Glowing Hearth (ID: 17830118/0x011010E6) looks at Magh Bihu (ID: 17830253/0x0110116D) (Basic look)
105: 0x1157 [0x23] WAIT_FOR_DIALOG_INTERACTION
106: 0x1158 [0x2A] GET_REQ_LEVEL(level=15, entity_id=Magh Bihu (ID: 17830253/0x0110116D))
107: 0x115E [0x02] IF !(Work_Zone[9] == 5*) GOTO 0x1178
108: 0x1166 [0x52] END_LOAD_SCHEDULER: End scheduler "s083" with entities [EventEntity, EventEntity], work=930*
109: 0x1175 [0x01] GOTO 0x11A1
110: 0x1178 [0x02] IF !(Work_Zone[9] == 6*) GOTO 0x1192
111: 0x1180 [0x52] END_LOAD_SCHEDULER: End scheduler "s083" with entities [EventEntity, EventEntity], work=930*
112: 0x118F [0x01] GOTO 0x11A1
113: 0x1192 [0x52] END_LOAD_SCHEDULER: End scheduler "s073" with entities [EventEntity, EventEntity], work=930*

SUBROUTINE_11A1:
114: 0x11A1 [0x45] LOAD_SCHEDULED_TASK: Load scheduler "s074" with entities [EventEntity, EventEntity], work=[930*, 0*]
115: 0x11B2 [0x29] REQ_SET_WAIT(priority=0x0F, entity_id=Dazbog (ID: 17830254/0x0110116E), tag_num=0x0A)
116: 0x11B9 [0x45] LOAD_SCHEDULED_TASK: Load scheduler "1015" with entities [EventEntity, EventEntity], work=[930*, 0*]
117: 0x11CA [0x2B] Dazbog (ID: 17830254/0x0110116E) [14018*]:
    → "I-I can tell by the smell... That's the real egg!"
118: 0x11D1 [0x29] REQ_SET_WAIT(priority=0x0F, entity_id=Gloom Phantom (ID: 17830252/0x0110116C), tag_num=0x31)
119: 0x11D8 [0x29] REQ_SET_WAIT(priority=0x0F, entity_id=Gloom Phantom (ID: 17830252/0x0110116C), tag_num=0x32)
120: 0x11DF [0x23] WAIT_FOR_DIALOG_INTERACTION
121: 0x11E0 [0x29] REQ_SET_WAIT(priority=0x0F, entity_id=Dazbog (ID: 17830254/0x0110116E), tag_num=0x0B)
122: 0x11E7 [0x52] END_LOAD_SCHEDULER: End scheduler "s074" with entities [EventEntity, EventEntity], work=930*
123: 0x11F6 [0x45] LOAD_SCHEDULED_TASK: Load scheduler "s075" with entities [EventEntity, EventEntity], work=[930*, 0*]
124: 0x1207 [0x2B] Gloom Phantom (ID: 17830252/0x0110116C) [14019*]:
    → "So? What did you find out about the egg!?"
125: 0x120E [0x29] REQ_SET_WAIT(priority=0x0F, entity_id=Gloom Phantom (ID: 17830252/0x0110116C), tag_num=0x31)
126: 0x1215 [0x29] REQ_SET_WAIT(priority=0x0F, entity_id=Gloom Phantom (ID: 17830252/0x0110116C), tag_num=0x33)
127: 0x121C [0x45] LOAD_SCHEDULED_TASK: Load scheduler "1014" with entities [EventEntity, EventEntity], work=[930*, 0*]
128: 0x122D [0x29] REQ_SET_WAIT(priority=0x0F, entity_id=Gloom Phantom (ID: 17830252/0x0110116C), tag_num=0x34)
129: 0x1234 [0x23] WAIT_FOR_DIALOG_INTERACTION
130: 0x1235 [0x1A] CALL_SUBROUTINE(address=0x0064)
131: 0x1238 [0x52] END_LOAD_SCHEDULER: End scheduler "s075" with entities [EventEntity, EventEntity], work=930*
132: 0x1247 [0xBA] SET_ENTITY_POSITION(entity_id=Gloom Phantom (ID: 17830252/0x0110116C), pos_x=-28.390*, pos_z=57.054*, pos_y=-0.150*, direction=87.7°*)
133: 0x1254 [0xBA] SET_ENTITY_POSITION(entity_id=Magh Bihu (ID: 17830253/0x0110116D), pos_x=-26.980*, pos_z=56.048*, pos_y=-0.148*, direction=356.0°*)
134: 0x1261 [0xBA] SET_ENTITY_POSITION(entity_id=Dazbog (ID: 17830254/0x0110116E), pos_x=-27.850*, pos_z=54.769*, pos_y=-0.150*, direction=204.5°*)
135: 0x126E [0xBA] SET_ENTITY_POSITION(entity_id=LocalPlayer, pos_x=-30.615*, pos_z=55.717*, pos_y=0.000*, direction=355.8°*)
136: 0x127B [0x79] LocalPlayer looks at Gloom Phantom (ID: 17830252/0x0110116C) (Basic look)
137: 0x1285 [0x4A] Gloom Phantom (ID: 17830252/0x0110116C) looks at LocalPlayer
138: 0x128E [0x4A] Dazbog (ID: 17830254/0x0110116E) looks at LocalPlayer
139: 0x1297 [0x4A] Magh Bihu (ID: 17830253/0x0110116D) looks at LocalPlayer
140: 0x12A0 [0x4A] Krepol (ID: 17830119/0x011010E7) looks at Gloom Phantom (ID: 17830252/0x0110116C)
141: 0x12A9 [0x6F] WAIT_FRAME_DELAY: Yield until WaitTime reaches zero
142: 0x12AA [0x76] CHECK_ENTITY_RENDER_FLAGS: Wait until Gloom Phantom (ID: 17830252/0x0110116C) Render.Flags0 and Render.Flags3 conditions are met
143: 0x12AF [0x6F] WAIT_FRAME_DELAY: Yield until WaitTime reaches zero
144: 0x12B0 [0x76] CHECK_ENTITY_RENDER_FLAGS: Wait until Dazbog (ID: 17830254/0x0110116E) Render.Flags0 and Render.Flags3 conditions are met
145: 0x12B5 [0x6F] WAIT_FRAME_DELAY: Yield until WaitTime reaches zero
146: 0x12B6 [0x76] CHECK_ENTITY_RENDER_FLAGS: Wait until Magh Bihu (ID: 17830253/0x0110116D) Render.Flags0 and Render.Flags3 conditions are met
147: 0x12BB [0x6F] WAIT_FRAME_DELAY: Yield until WaitTime reaches zero
148: 0x12BC [0x76] CHECK_ENTITY_RENDER_FLAGS: Wait until Krepol (ID: 17830119/0x011010E7) Render.Flags0 and Render.Flags3 conditions are met
149: 0x12C1 [0x7B] Gloom Phantom (ID: 17830252/0x0110116C) stops talking
150: 0x12C6 [0x29] REQ_SET_WAIT(priority=0x0F, entity_id=Gloom Phantom (ID: 17830252/0x0110116C), tag_num=0x25)
151: 0x12CD [0x29] REQ_SET_WAIT(priority=0x0F, entity_id=Gloom Phantom (ID: 17830252/0x0110116C), tag_num=0x26)
152: 0x12D4 [0x79] LocalPlayer looks at Dazbog (ID: 17830254/0x0110116E) (Basic look)
153: 0x12DE [0x29] REQ_SET_WAIT(priority=0x0F, entity_id=LocalPlayer, tag_num=0x10)
154: 0x12E5 [0x45] LOAD_SCHEDULED_TASK: Load scheduler "s076" with entities [EventEntity, EventEntity], work=[930*, 0*]
155: 0x12F6 [0x1A] CALL_SUBROUTINE(address=0x0043)
156: 0x12F9 [0x1C] WAIT(50* ticks)
157: 0x12FC [0x79] LocalPlayer looks at Gloom Phantom (ID: 17830252/0x0110116C) (Basic look)
158: 0x1306 [0x1C] WAIT(50* ticks)
159: 0x1309 [0x29] REQ_SET_WAIT(priority=0x0F, entity_id=LocalPlayer, tag_num=0x11)
160: 0x1310 [0x1C] WAIT(100* ticks)
161: 0x1313 [0x52] END_LOAD_SCHEDULER: End scheduler "s076" with entities [EventEntity, EventEntity], work=930*
162: 0x1322 [0x02] IF !(Work_Zone[9] == 3*) GOTO 0x133E
163: 0x132A [0x45] LOAD_SCHEDULED_TASK: Load scheduler "s077" with entities [EventEntity, EventEntity], work=[930*, 0*]
164: 0x133B [0x01] GOTO 0x13A3
165: 0x133E [0x02] IF !(Work_Zone[9] == 5*) GOTO 0x135A
166: 0x1346 [0x45] LOAD_SCHEDULED_TASK: Load scheduler "s084" with entities [EventEntity, EventEntity], work=[930*, 0*]
167: 0x1357 [0x01] GOTO 0x13A3
168: 0x135A [0x02] IF !(Work_Zone[9] == 6*) GOTO 0x1376
169: 0x1362 [0x45] LOAD_SCHEDULED_TASK: Load scheduler "s084" with entities [EventEntity, EventEntity], work=[930*, 0*]
170: 0x1373 [0x01] GOTO 0x13A3
171: 0x1376 [0x02] IF !(Work_Zone[9] == 8*) GOTO 0x1392
172: 0x137E [0x45] LOAD_SCHEDULED_TASK: Load scheduler "s077" with entities [EventEntity, EventEntity], work=[930*, 0*]
173: 0x138F [0x01] GOTO 0x13A3
174: 0x1392 [0x45] LOAD_SCHEDULED_TASK: Load scheduler "s085" with entities [EventEntity, EventEntity], work=[930*, 0*]

SUBROUTINE_13A3:
175: 0x13A3 [0x29] REQ_SET_WAIT(priority=0x0F, entity_id=Gloom Phantom (ID: 17830252/0x0110116C), tag_num=0x27)
176: 0x13AA [0x2B] Gloom Phantom (ID: 17830252/0x0110116C) [14020*]:
    → "What!? A demon took the "World Eater Egg"!?"
177: 0x13B1 [0x23] WAIT_FOR_DIALOG_INTERACTION
178: 0x13B2 [0x29] REQ_SET_WAIT(priority=0x0F, entity_id=Gloom Phantom (ID: 17830252/0x0110116C), tag_num=0x28)
179: 0x13B9 [0x45] LOAD_SCHEDULED_TASK: Load scheduler "1013" with entities [EventEntity, EventEntity], work=[930*, 0*]
180: 0x13CA [0x29] REQ_SET_WAIT(priority=0x0F, entity_id=Gloom Phantom (ID: 17830252/0x0110116C), tag_num=0x1B)
181: 0x13D1 [0x2B] Gloom Phantom (ID: 17830252/0x0110116C) [14021*]:
    → "And that demon's name is Skokkr Undrborn!?"
182: 0x13D8 [0x23] WAIT_FOR_DIALOG_INTERACTION
183: 0x13D9 [0x29] REQ_SET_WAIT(priority=0x0F, entity_id=Gloom Phantom (ID: 17830252/0x0110116C), tag_num=0x1C)
184: 0x13E0 [0x02] IF !(Work_Zone[9] == 3*) GOTO 0x13FA
185: 0x13E8 [0x52] END_LOAD_SCHEDULER: End scheduler "s077" with entities [EventEntity, EventEntity], work=898*
186: 0x13F7 [0x01] GOTO 0x1457
187: 0x13FA [0x02] IF !(Work_Zone[9] == 5*) GOTO 0x1414
188: 0x1402 [0x52] END_LOAD_SCHEDULER: End scheduler "s084" with entities [EventEntity, EventEntity], work=898*
189: 0x1411 [0x01] GOTO 0x1457
190: 0x1414 [0x02] IF !(Work_Zone[9] == 6*) GOTO 0x142E
191: 0x141C [0x52] END_LOAD_SCHEDULER: End scheduler "s084" with entities [EventEntity, EventEntity], work=898*
192: 0x142B [0x01] GOTO 0x1457
193: 0x142E [0x02] IF !(Work_Zone[9] == 8*) GOTO 0x1448
194: 0x1436 [0x52] END_LOAD_SCHEDULER: End scheduler "s077" with entities [EventEntity, EventEntity], work=898*
195: 0x1445 [0x01] GOTO 0x1457
196: 0x1448 [0x52] END_LOAD_SCHEDULER: End scheduler "s085" with entities [EventEntity, EventEntity], work=898*

SUBROUTINE_1457:
197: 0x1457 [0x45] LOAD_SCHEDULED_TASK: Load scheduler "s078" with entities [EventEntity, EventEntity], work=[930*, 0*]
198: 0x1468 [0x29] REQ_SET_WAIT(priority=0x0F, entity_id=Gloom Phantom (ID: 17830252/0x0110116C), tag_num=0x1D)
199: 0x146F [0x29] REQ_SET_WAIT(priority=0x0F, entity_id=Magh Bihu (ID: 17830253/0x0110116D), tag_num=0x0B)
200: 0x1476 [0x2B] Magh Bihu (ID: 17830253/0x0110116D) [14022*]:
    → "I think I hear that name before..."
201: 0x147D [0x1C] WAIT(30* ticks)
202: 0x1480 [0x4A] Dazbog (ID: 17830254/0x0110116E) looks at Magh Bihu (ID: 17830253/0x0110116D)
203: 0x1489 [0x1C] WAIT(10* ticks)
204: 0x148C [0x29] REQ_SET_WAIT(priority=0x0F, entity_id=Gloom Phantom (ID: 17830252/0x0110116C), tag_num=0x1E)
205: 0x1493 [0x4A] Gloom Phantom (ID: 17830252/0x0110116C) looks at Magh Bihu (ID: 17830253/0x0110116D)
206: 0x149C [0x6F] WAIT_FRAME_DELAY: Yield until WaitTime reaches zero
207: 0x149D [0x76] CHECK_ENTITY_RENDER_FLAGS: Wait until Dazbog (ID: 17830254/0x0110116E) Render.Flags0 and Render.Flags3 conditions are met
208: 0x14A2 [0x23] WAIT_FOR_DIALOG_INTERACTION
209: 0x14A3 [0x29] REQ_SET_WAIT(priority=0x0F, entity_id=Magh Bihu (ID: 17830253/0x0110116D), tag_num=0x0C)
210: 0x14AA [0x2B] Dazbog (ID: 17830254/0x0110116E) [14023*]:
    → "Y-you're right... I believe he's the one who created the Prime Weapons five thousand years ago..."
211: 0x14B1 [0x1C] WAIT(30* ticks)
212: 0x14B4 [0x4A] Magh Bihu (ID: 17830253/0x0110116D) looks at Dazbog (ID: 17830254/0x0110116E)
213: 0x14BD [0x6F] WAIT_FRAME_DELAY: Yield until WaitTime reaches zero
214: 0x14BE [0x76] CHECK_ENTITY_RENDER_FLAGS: Wait until Magh Bihu (ID: 17830253/0x0110116D) Render.Flags0 and Render.Flags3 conditions are met
215: 0x14C3 [0x6F] WAIT_FRAME_DELAY: Yield until WaitTime reaches zero
216: 0x14C4 [0x76] CHECK_ENTITY_RENDER_FLAGS: Wait until Gloom Phantom (ID: 17830252/0x0110116C) Render.Flags0 and Render.Flags3 conditions are met
217: 0x14C9 [0x23] WAIT_FOR_DIALOG_INTERACTION
218: 0x14CA [0x52] END_LOAD_SCHEDULER: End scheduler "s078" with entities [EventEntity, EventEntity], work=930*
219: 0x14D9 [0x45] LOAD_SCHEDULED_TASK: Load scheduler "s079" with entities [EventEntity, EventEntity], work=[930*, 0*]
220: 0x14EA [0x4B] UPDATE_ENTITY_YAW(entity=Magh Bihu (ID: 17830253/0x0110116D), yaw=5.6°*)
221: 0x14F1 [0x6F] WAIT_FRAME_DELAY: Yield until WaitTime reaches zero
222: 0x14F2 [0x76] CHECK_ENTITY_RENDER_FLAGS: Wait until Magh Bihu (ID: 17830253/0x0110116D) Render.Flags0 and Render.Flags3 conditions are met
223: 0x14F7 [0x29] REQ_SET_WAIT(priority=0x0F, entity_id=Magh Bihu (ID: 17830253/0x0110116D), tag_num=0x01)
224: 0x14FE [0x2B] Magh Bihu (ID: 17830253/0x0110116D) [14024*]:
    → "Oh! I knew that! Although, what is Prime Weapon?"
225: 0x1505 [0x1C] WAIT(30* ticks)
226: 0x1508 [0x29] REQ_SET_WAIT(priority=0x0F, entity_id=Gloom Phantom (ID: 17830252/0x0110116C), tag_num=0x25)
227: 0x150F [0x23] WAIT_FOR_DIALOG_INTERACTION
228: 0x1510 [0x29] REQ_SET_WAIT(priority=0x0F, entity_id=Magh Bihu (ID: 17830253/0x0110116D), tag_num=0x02)
229: 0x1517 [0x29] REQ_SET_WAIT(priority=0x0F, entity_id=Magh Bihu (ID: 17830253/0x0110116D), tag_num=0x03)
230: 0x151E [0x29] REQ_SET_WAIT(priority=0x0F, entity_id=Gloom Phantom (ID: 17830252/0x0110116C), tag_num=0x26)
231: 0x1525 [0x2B] Gloom Phantom (ID: 17830252/0x0110116C) [14025*]:
    → "Hmm... Maybe history can repeat itself?"
232: 0x152C [0x1C] WAIT(20* ticks)
233: 0x152F [0x45] LOAD_SCHEDULED_TASK: Load scheduler "1014" with entities [EventEntity, EventEntity], work=[930*, 0*]
234: 0x1540 [0x29] REQ_SET_WAIT(priority=0x0F, entity_id=Magh Bihu (ID: 17830253/0x0110116D), tag_num=0x04)
235: 0x1547 [0x4A] Magh Bihu (ID: 17830253/0x0110116D) looks at Gloom Phantom (ID: 17830252/0x0110116C)
236: 0x1550 [0x6F] WAIT_FRAME_DELAY: Yield until WaitTime reaches zero
237: 0x1551 [0x76] CHECK_ENTITY_RENDER_FLAGS: Wait until Magh Bihu (ID: 17830253/0x0110116D) Render.Flags0 and Render.Flags3 conditions are met
238: 0x1556 [0x4A] Dazbog (ID: 17830254/0x0110116E) looks at Gloom Phantom (ID: 17830252/0x0110116C)
239: 0x155F [0x23] WAIT_FOR_DIALOG_INTERACTION
240: 0x1560 [0x52] END_LOAD_SCHEDULER: End scheduler "s079" with entities [EventEntity, EventEntity], work=930*
241: 0x156F [0x45] LOAD_SCHEDULED_TASK: Load scheduler "s080" with entities [EventEntity, EventEntity], work=[930*, 0*]
242: 0x1580 [0x29] REQ_SET_WAIT(priority=0x0F, entity_id=Gloom Phantom (ID: 17830252/0x0110116C), tag_num=0x27)
243: 0x1587 [0x29] REQ_SET_WAIT(priority=0x0F, entity_id=Gloom Phantom (ID: 17830252/0x0110116C), tag_num=0x28)
244: 0x158E [0x4B] UPDATE_ENTITY_YAW(entity=Gloom Phantom (ID: 17830252/0x0110116C), yaw=3.3°*)
245: 0x1595 [0x6F] WAIT_FRAME_DELAY: Yield until WaitTime reaches zero
246: 0x1596 [0x76] CHECK_ENTITY_RENDER_FLAGS: Wait until Dazbog (ID: 17830254/0x0110116E) Render.Flags0 and Render.Flags3 conditions are met
247: 0x159B [0x6F] WAIT_FRAME_DELAY: Yield until WaitTime reaches zero
248: 0x159C [0x76] CHECK_ENTITY_RENDER_FLAGS: Wait until Gloom Phantom (ID: 17830252/0x0110116C) Render.Flags0 and Render.Flags3 conditions are met
249: 0x15A1 [0x29] REQ_SET_WAIT(priority=0x0F, entity_id=Gloom Phantom (ID: 17830252/0x0110116C), tag_num=0x29)
250: 0x15A8 [0x45] LOAD_SCHEDULED_TASK: Load scheduler "1011" with entities [EventEntity, EventEntity], work=[930*, 0*]
251: 0x15B9 [0x2B] Gloom Phantom (ID: 17830252/0x0110116C) [14026*]:
    → "Well, what other choice do we have! Let's go pay this Skokkr Undrborn a visit!"
252: 0x15C0 [0x23] WAIT_FOR_DIALOG_INTERACTION
253: 0x15C1 [0x29] REQ_SET_WAIT(priority=0x0F, entity_id=Gloom Phantom (ID: 17830252/0x0110116C), tag_num=0x2A)
254: 0x15C8 [0x29] REQ_SET_WAIT(priority=0x0F, entity_id=Gloom Phantom (ID: 17830252/0x0110116C), tag_num=0x2B)
255: 0x15CF [0x79] LocalPlayer looks at Magh Bihu (ID: 17830253/0x0110116D) (Basic look)
256: 0x15D9 [0x29] REQ_SET_WAIT(priority=0x0F, entity_id=Magh Bihu (ID: 17830253/0x0110116D), tag_num=0x05)
257: 0x15E0 [0x2B] Magh Bihu (ID: 17830253/0x0110116D) [14027*]:
    → "<Sigh> I really not like demons..."
258: 0x15E7 [0x1C] WAIT(20* ticks)
259: 0x15EA [0x45] LOAD_SCHEDULED_TASK: Load scheduler "0004" with entities [EventEntity, EventEntity], work=[930*, 0*]
260: 0x15FB [0x23] WAIT_FOR_DIALOG_INTERACTION
261: 0x15FC [0x29] REQ_SET_WAIT(priority=0x0F, entity_id=Gloom Phantom (ID: 17830252/0x0110116C), tag_num=0x2C)
262: 0x1603 [0x29] REQ_SET_WAIT(priority=0x0F, entity_id=Magh Bihu (ID: 17830253/0x0110116D), tag_num=0x06)
263: 0x160A [0x29] REQ_SET_WAIT(priority=0x0F, entity_id=Magh Bihu (ID: 17830253/0x0110116D), tag_num=0x07)
264: 0x1611 [0x52] END_LOAD_SCHEDULER: End scheduler "s080" with entities [EventEntity, EventEntity], work=930*
265: 0x1620 [0x45] LOAD_SCHEDULED_TASK: Load scheduler "s081" with entities [EventEntity, EventEntity], work=[930*, 0*]
266: 0x1631 [0x4A] Dazbog (ID: 17830254/0x0110116E) looks at Magh Bihu (ID: 17830253/0x0110116D)
267: 0x163A [0x6F] WAIT_FRAME_DELAY: Yield until WaitTime reaches zero
268: 0x163B [0x76] CHECK_ENTITY_RENDER_FLAGS: Wait until Dazbog (ID: 17830254/0x0110116E) Render.Flags0 and Render.Flags3 conditions are met
269: 0x1640 [0x2B] Dazbog (ID: 17830254/0x0110116E) [14028*]:
    → "M-Magh Bihu, just keep your mouth shut and you'll be fine."
270: 0x1647 [0x1C] WAIT(10* ticks)
271: 0x164A [0x79] LocalPlayer looks at Dazbog (ID: 17830254/0x0110116E) (Basic look)
272: 0x1654 [0x29] REQ_SET_WAIT(priority=0x0F, entity_id=Magh Bihu (ID: 17830253/0x0110116D), tag_num=0x08)
273: 0x165B [0x4A] Magh Bihu (ID: 17830253/0x0110116D) looks at Dazbog (ID: 17830254/0x0110116E)
274: 0x1664 [0x6F] WAIT_FRAME_DELAY: Yield until WaitTime reaches zero
275: 0x1665 [0x76] CHECK_ENTITY_RENDER_FLAGS: Wait until Magh Bihu (ID: 17830253/0x0110116D) Render.Flags0 and Render.Flags3 conditions are met
276: 0x166A [0x29] REQ_SET_WAIT(priority=0x0F, entity_id=Magh Bihu (ID: 17830253/0x0110116D), tag_num=0x09)
277: 0x1671 [0x29] REQ_SET_WAIT(priority=0x0F, entity_id=Magh Bihu (ID: 17830253/0x0110116D), tag_num=0x0A)
278: 0x1678 [0x23] WAIT_FOR_DIALOG_INTERACTION
279: 0x1679 [0x52] END_LOAD_SCHEDULER: End scheduler "s081" with entities [EventEntity, EventEntity], work=930*
280: 0x1688 [0x45] LOAD_SCHEDULED_TASK: Load scheduler "s082" with entities [EventEntity, EventEntity], work=[930*, 0*]
281: 0x1699 [0x29] REQ_SET_WAIT(priority=0x0F, entity_id=Magh Bihu (ID: 17830253/0x0110116D), tag_num=0x0B)
282: 0x16A0 [0x4A] Gloom Phantom (ID: 17830252/0x0110116C) looks at LocalPlayer
283: 0x16A9 [0x6F] WAIT_FRAME_DELAY: Yield until WaitTime reaches zero
284: 0x16AA [0x76] CHECK_ENTITY_RENDER_FLAGS: Wait until Gloom Phantom (ID: 17830252/0x0110116C) Render.Flags0 and Render.Flags3 conditions are met
285: 0x16AF [0x4A] LocalPlayer looks at Gloom Phantom (ID: 17830252/0x0110116C)
286: 0x16B8 [0x29] REQ_SET_WAIT(priority=0x0F, entity_id=Gloom Phantom (ID: 17830252/0x0110116C), tag_num=0x23)
