# 17830155 - Margret

## Common Data

| Field            | Value                     |
|------------------|---------------------------|
| Zone             | Eastern Adoulin (ID: 257) |
| Block Size       | 468 bytes                 |
| Total Events     | 14                        |
| References Count | 15                        |

## List of Events

| Event ID                   | Entrypoint   |   Size |   Instructions |
|----------------------------|--------------|--------|----------------|
| [65535](#event-65535)      | 0x0000       |      1 |              1 |
| [98](#event-98)            | 0x0001       |      1 |              1 |
| [100](#event-100)          | 0x0002       |      1 |              1 |
| [65535.1](#event-655351)   | 0x0003       |     14 |              4 |
| [65535.2](#event-655352)   | 0x0011       |     67 |             13 |
| [65535.3](#event-655353)   | 0x0054       |      4 |              2 |
| [65535.4](#event-655354)   | 0x0058       |     25 |              3 |
| [65535.5](#event-655355)   | 0x0071       |     25 |              3 |
| [65535.6](#event-655356)   | 0x008A       |     33 |              3 |
| [65535.7](#event-655357)   | 0x00AB       |     33 |              3 |
| [65535.8](#event-655358)   | 0x00CC       |     33 |              3 |
| [65535.9](#event-655359)   | 0x00ED       |     33 |              3 |
| [65535.10](#event-6553510) | 0x010E       |     33 |              3 |
| [65535.11](#event-6553511) | 0x012F       |     33 |              3 |

## DAT References (imed_data)

|   Index | Hex Value   |   Dec Value |
|---------|-------------|-------------|
|       0 | 0x000D      |          13 |
|       1 | 0xFFFFE8F1  |  4294961393 |
|       2 | 0xFFFF677F  |  4294928255 |
|       3 | 0xFFFFFF6C  |  4294967148 |
|       4 | 0x000A      |          10 |
|       5 | 0xFFFFB95B  |  4294949211 |
|       6 | 0xFFFF4983  |  4294920579 |
|       7 | 0x0000      |           0 |
|       8 | 0xFFFFAC45  |  4294945861 |
|       9 | 0xFFFF21D0  |  4294910416 |
|      10 | 0xFFFF3E77  |  4294917751 |
|      11 | 0xFFFF216D  |  4294910317 |
|      12 | 0x0001      |           1 |
|      13 | 0x0064      |         100 |
|      14 | 0x000B      |          11 |

## Events

### Event 65535

#### Metadata

| Field        | Value   |
|--------------|---------|
| Entrypoint   | 0x0000  |
| Data Size    | 1 bytes |
| Instructions | 1       |

```
      00 01 02 03 04 05 06 07  08 09 0A 0B 0C 0D 0E 0F
      -- -- -- -- -- -- -- --  -- -- -- -- -- -- -- --
0000: 00                                                .               
```

#### Opcodes

```
  0: 0x0000 [0x00] END_REQSTACK()
```

### Event 98

#### Metadata

| Field        | Value   |
|--------------|---------|
| Entrypoint   | 0x0001  |
| Data Size    | 1 bytes |
| Instructions | 1       |

```
      00 01 02 03 04 05 06 07  08 09 0A 0B 0C 0D 0E 0F
      -- -- -- -- -- -- -- --  -- -- -- -- -- -- -- --
0000:    00                                              .              
```

#### Opcodes

```
  0: 0x0001 [0x00] END_REQSTACK()
```

### Event 100

#### Metadata

| Field        | Value   |
|--------------|---------|
| Entrypoint   | 0x0002  |
| Data Size    | 1 bytes |
| Instructions | 1       |

```
      00 01 02 03 04 05 06 07  08 09 0A 0B 0C 0D 0E 0F
      -- -- -- -- -- -- -- --  -- -- -- -- -- -- -- --
0000:       00                                            .             
```

#### Opcodes

```
  0: 0x0002 [0x00] END_REQSTACK()
```

### Event 65535.1

#### Metadata

| Field        | Value    |
|--------------|----------|
| Entrypoint   | 0x0003   |
| Data Size    | 14 bytes |
| Instructions | 4        |

```
      00 01 02 03 04 05 06 07  08 09 0A 0B 0C 0D 0E 0F
      -- -- -- -- -- -- -- --  -- -- -- -- -- -- -- --
0000:          32 00 80 1F 00  01 80 02 80 03 80 1F 01     2............
0010: 00                                                .               
```

#### Opcodes

```
  0: 0x0003 [0x32] ExtData[1]->MainSpeed = 13* * 0.1
  1: 0x0006 [0x1F] MOVE_ENTITY: EventEntity moves to X=-5.903*, Z=-39.041*, Y=-0.148*
  2: 0x000E [0x1F] MOVE_ENTITY: Update entity position (mode=1)
  3: 0x0010 [0x00] END_REQSTACK()
```

### Event 65535.2

#### Metadata

| Field        | Value    |
|--------------|----------|
| Entrypoint   | 0x0011   |
| Data Size    | 67 bytes |
| Instructions | 13       |

```
      00 01 02 03 04 05 06 07  08 09 0A 0B 0C 0D 0E 0F
      -- -- -- -- -- -- -- --  -- -- -- -- -- -- -- --
0010:    32 04 80 1F 00 05 80  06 80 07 80 1F 01 1F 00   2..............
0020: 08 80 09 80 07 80 1F 01  1F 00 0A 80 0B 80 03 80  ................
0030: 1F 01 B4 00 00 00 4D 61  72 67 72 65 74 00 00 00  ......Margret...
0040: 00 00 00 00 00 00 B5 00  00 00 96 22 01 2F 01 F8  ..........."./..
0050: FF FF 7F 00                                       ....            
```

#### Opcodes

```
  0: 0x0011 [0x32] ExtData[1]->MainSpeed = 10* * 0.1
  1: 0x0014 [0x1F] MOVE_ENTITY: EventEntity moves to X=-18.085*, Z=-46.717*, Y=0.000*
  2: 0x001C [0x1F] MOVE_ENTITY: Update entity position (mode=1)
  3: 0x001E [0x1F] MOVE_ENTITY: EventEntity moves to X=-21.435*, Z=-56.880*, Y=0.000*
  4: 0x0026 [0x1F] MOVE_ENTITY: Update entity position (mode=1)
  5: 0x0028 [0x1F] MOVE_ENTITY: EventEntity moves to X=-49.545*, Z=-56.979*, Y=-0.148*
  6: 0x0030 [0x1F] MOVE_ENTITY: Update entity position (mode=1)
  7: 0x0032 [0xB4] UI_WINDOW_STRING_HANDLER(case=0x00 - Copy string from opcode, work_offset=ExtData[1]->WorkLocal[0], string="Margret")
  8: 0x0046 [0xB5] SET_EVENT_ENTITY_NAME: Change EventEntity name to ExtData[1]->WorkLocal[0]
  9: 0x004A [0x96] UNSET_EVENT_NPC: Restore NPC after event (removes event NPC status)
 10: 0x004B [0x22] ENTITY_HIDE_FLAG(enabled=0x01)
 11: 0x004D [0x2F] EventEntity->Render.Flags0 |= 0x80000 // Bit 19
 12: 0x0053 [0x00] END_REQSTACK()
```

### Event 65535.3

#### Metadata

| Field        | Value   |
|--------------|---------|
| Entrypoint   | 0x0054  |
| Data Size    | 4 bytes |
| Instructions | 2       |

```
      00 01 02 03 04 05 06 07  08 09 0A 0B 0C 0D 0E 0F
      -- -- -- -- -- -- -- --  -- -- -- -- -- -- -- --
0050:             95 0C 80 00                               ....        
```

#### Opcodes

```
  0: 0x0054 [0x95] SETUP_EVENT_NPC: Prepare NPC for event (Render.Flags3 = 1*)
  1: 0x0057 [0x00] END_REQSTACK()
```

### Event 65535.4

#### Metadata

| Field        | Value    |
|--------------|----------|
| Entrypoint   | 0x0058   |
| Data Size    | 25 bytes |
| Instructions | 3        |

```
      00 01 02 03 04 05 06 07  08 09 0A 0B 0C 0D 0E 0F
      -- -- -- -- -- -- -- --  -- -- -- -- -- -- -- --
0050:                          B4 13 00 00 4D 61 72 67          ....Marg
0060: 72 65 74 40 3F 3F 3F 00  00 00 00 00 B5 00 00 00  ret@???.........
0070: 00                                                .               
```

#### Opcodes

```
  0: 0x0058 [0xB4] UI_WINDOW_STRING_HANDLER(case=0x13 - Copy string and replace @ with space, work_offset=ExtData[1]->WorkLocal[0], string="Margret@???")
  1: 0x006C [0xB5] SET_EVENT_ENTITY_NAME: Change EventEntity name to ExtData[1]->WorkLocal[0]
  2: 0x0070 [0x00] END_REQSTACK()
```

### Event 65535.5

#### Metadata

| Field        | Value    |
|--------------|----------|
| Entrypoint   | 0x0071   |
| Data Size    | 25 bytes |
| Instructions | 3        |

```
      00 01 02 03 04 05 06 07  08 09 0A 0B 0C 0D 0E 0F
      -- -- -- -- -- -- -- --  -- -- -- -- -- -- -- --
0070:    B4 00 00 00 45 73 74  65 6C 6C 65 00 00 00 00   ....Estelle....
0080: 00 00 00 00 00 B5 00 00  00 00                    ..........      
```

#### Opcodes

```
  0: 0x0071 [0xB4] UI_WINDOW_STRING_HANDLER(case=0x00 - Copy string from opcode, work_offset=ExtData[1]->WorkLocal[0], string="Estelle")
  1: 0x0085 [0xB5] SET_EVENT_ENTITY_NAME: Change EventEntity name to ExtData[1]->WorkLocal[0]
  2: 0x0089 [0x00] END_REQSTACK()
```

### Event 65535.6

#### Metadata

| Field        | Value    |
|--------------|----------|
| Entrypoint   | 0x008A   |
| Data Size    | 33 bytes |
| Instructions | 3        |

```
      00 01 02 03 04 05 06 07  08 09 0A 0B 0C 0D 0E 0F
      -- -- -- -- -- -- -- --  -- -- -- -- -- -- -- --
0080:                                5F 06 04 80 F8 FF            _.....
0090: FF 7F F8 FF FF 7F 74 6C  6B 30 0D 80 5F 07 F8 FF  ......tlk0.._...
00A0: FF 7F F8 FF FF 7F 74 6C  6B 30 00                 ......tlk0.     
```

#### Opcodes

```
  0: 0x008A [0x5F] MULTI_HANDLER_COMPLEX(mode=0x06 - Load ext scheduler with flag (OpCode 0x5B mode 1, flag 1), ref=10*, entity1=EventEntity, entity2=EventEntity, string="tlk0", extra=100*)
  1: 0x009C [0x5F] MULTI_HANDLER_COMPLEX(mode=0x07 - Wait scheduler task (OpCode 0x53))
  2: 0x00AA [0x00] END_REQSTACK()
```

### Event 65535.7

#### Metadata

| Field        | Value    |
|--------------|----------|
| Entrypoint   | 0x00AB   |
| Data Size    | 33 bytes |
| Instructions | 3        |

```
      00 01 02 03 04 05 06 07  08 09 0A 0B 0C 0D 0E 0F
      -- -- -- -- -- -- -- --  -- -- -- -- -- -- -- --
00A0:                                   5F 06 04 80 F8             _....
00B0: FF FF 7F F8 FF FF 7F 74  6C 6B 31 0D 80 5F 07 F8  .......tlk1.._..
00C0: FF FF 7F F8 FF FF 7F 74  6C 6B 31 00              .......tlk1.    
```

#### Opcodes

```
  0: 0x00AB [0x5F] MULTI_HANDLER_COMPLEX(mode=0x06 - Load ext scheduler with flag (OpCode 0x5B mode 1, flag 1), ref=10*, entity1=EventEntity, entity2=EventEntity, string="tlk1", extra=100*)
  1: 0x00BD [0x5F] MULTI_HANDLER_COMPLEX(mode=0x07 - Wait scheduler task (OpCode 0x53))
  2: 0x00CB [0x00] END_REQSTACK()
```

### Event 65535.8

#### Metadata

| Field        | Value    |
|--------------|----------|
| Entrypoint   | 0x00CC   |
| Data Size    | 33 bytes |
| Instructions | 3        |

```
      00 01 02 03 04 05 06 07  08 09 0A 0B 0C 0D 0E 0F
      -- -- -- -- -- -- -- --  -- -- -- -- -- -- -- --
00C0:                                      5F 06 0E 80              _...
00D0: F8 FF FF 7F F8 FF FF 7F  61 69 67 30 0D 80 5F 07  ........aig0.._.
00E0: F8 FF FF 7F F8 FF FF 7F  61 69 67 30 00           ........aig0.   
```

#### Opcodes

```
  0: 0x00CC [0x5F] MULTI_HANDLER_COMPLEX(mode=0x06 - Load ext scheduler with flag (OpCode 0x5B mode 1, flag 1), ref=11*, entity1=EventEntity, entity2=EventEntity, string="aig0", extra=100*)
  1: 0x00DE [0x5F] MULTI_HANDLER_COMPLEX(mode=0x07 - Wait scheduler task (OpCode 0x53))
  2: 0x00EC [0x00] END_REQSTACK()
```

### Event 65535.9

#### Metadata

| Field        | Value    |
|--------------|----------|
| Entrypoint   | 0x00ED   |
| Data Size    | 33 bytes |
| Instructions | 3        |

```
      00 01 02 03 04 05 06 07  08 09 0A 0B 0C 0D 0E 0F
      -- -- -- -- -- -- -- --  -- -- -- -- -- -- -- --
00E0:                                         5F 06 0E               _..
00F0: 80 F8 FF FF 7F F8 FF FF  7F 61 69 67 31 0D 80 5F  .........aig1.._
0100: 07 F8 FF FF 7F F8 FF FF  7F 61 69 67 31 00        .........aig1.  
```

#### Opcodes

```
  0: 0x00ED [0x5F] MULTI_HANDLER_COMPLEX(mode=0x06 - Load ext scheduler with flag (OpCode 0x5B mode 1, flag 1), ref=11*, entity1=EventEntity, entity2=EventEntity, string="aig1", extra=100*)
  1: 0x00FF [0x5F] MULTI_HANDLER_COMPLEX(mode=0x07 - Wait scheduler task (OpCode 0x53))
  2: 0x010D [0x00] END_REQSTACK()
```

### Event 65535.10

#### Metadata

| Field        | Value    |
|--------------|----------|
| Entrypoint   | 0x010E   |
| Data Size    | 33 bytes |
| Instructions | 3        |

```
      00 01 02 03 04 05 06 07  08 09 0A 0B 0C 0D 0E 0F
      -- -- -- -- -- -- -- --  -- -- -- -- -- -- -- --
0100:                                            5F 06                _.
0110: 0E 80 F8 FF FF 7F F8 FF  FF 7F 6E 74 6C 30 0D 80  ..........ntl0..
0120: 5F 07 F8 FF FF 7F F8 FF  FF 7F 6E 74 6C 30 00     _.........ntl0. 
```

#### Opcodes

```
  0: 0x010E [0x5F] MULTI_HANDLER_COMPLEX(mode=0x06 - Load ext scheduler with flag (OpCode 0x5B mode 1, flag 1), ref=11*, entity1=EventEntity, entity2=EventEntity, string="ntl0", extra=100*)
  1: 0x0120 [0x5F] MULTI_HANDLER_COMPLEX(mode=0x07 - Wait scheduler task (OpCode 0x53))
  2: 0x012E [0x00] END_REQSTACK()
```

### Event 65535.11

#### Metadata

| Field        | Value    |
|--------------|----------|
| Entrypoint   | 0x012F   |
| Data Size    | 33 bytes |
| Instructions | 3        |

```
      00 01 02 03 04 05 06 07  08 09 0A 0B 0C 0D 0E 0F
      -- -- -- -- -- -- -- --  -- -- -- -- -- -- -- --
0120:                                               5F                 _
0130: 06 0E 80 F8 FF FF 7F F8  FF FF 7F 6E 74 6C 31 0D  ...........ntl1.
0140: 80 5F 07 F8 FF FF 7F F8  FF FF 7F 6E 74 6C 31 00  ._.........ntl1.
```

#### Opcodes

```
  0: 0x012F [0x5F] MULTI_HANDLER_COMPLEX(mode=0x06 - Load ext scheduler with flag (OpCode 0x5B mode 1, flag 1), ref=11*, entity1=EventEntity, entity2=EventEntity, string="ntl1", extra=100*)
  1: 0x0141 [0x5F] MULTI_HANDLER_COMPLEX(mode=0x07 - Wait scheduler task (OpCode 0x53))
  2: 0x014F [0x00] END_REQSTACK()
```
