# 17830038 - Chero-Machero

## Common Data

| Field            | Value                     |
|------------------|---------------------------|
| Zone             | Eastern Adoulin (ID: 257) |
| Block Size       | 884 bytes                 |
| Total Events     | 35                        |
| References Count | 45                        |

## List of Events

| Event ID                   | Entrypoint   |   Size |   Instructions |
|----------------------------|--------------|--------|----------------|
| [65535](#event-65535)      | 0x0000       |      1 |              1 |
| [65535.1](#event-655351)   | 0x0001       |      1 |              1 |
| [65535.2](#event-655352)   | 0x0002       |     18 |              4 |
| [65535.3](#event-655353)   | 0x0014       |     10 |              2 |
| [65535.4](#event-655354)   | 0x001E       |      9 |              3 |
| [65535.5](#event-655355)   | 0x0027       |      9 |              3 |
| [65535.6](#event-655356)   | 0x0030       |     10 |              2 |
| [65535.7](#event-655357)   | 0x003A       |     10 |              2 |
| [1500](#event-1500)        | 0x0044       |      1 |              1 |
| [65535.8](#event-655358)   | 0x0045       |     21 |              2 |
| [65535.9](#event-655359)   | 0x005A       |     21 |              2 |
| [65535.10](#event-6553510) | 0x006F       |     13 |              3 |
| [65535.11](#event-6553511) | 0x007C       |     15 |              5 |
| [65535.12](#event-6553512) | 0x008B       |     15 |              5 |
| [65535.13](#event-6553513) | 0x009A       |     15 |              5 |
| [65535.14](#event-6553514) | 0x00A9       |     22 |              6 |
| [65535.15](#event-6553515) | 0x00BF       |     15 |              5 |
| [65535.16](#event-6553516) | 0x00CE       |     24 |              6 |
| [65535.17](#event-6553517) | 0x00E6       |     24 |              6 |
| [65535.18](#event-6553518) | 0x00FE       |     24 |              6 |
| [65535.19](#event-6553519) | 0x0116       |     26 |              8 |
| [65535.20](#event-6553520) | 0x0130       |     24 |              6 |
| [1507](#event-1507)        | 0x0148       |      1 |              1 |
| [65535.21](#event-6553521) | 0x0149       |     20 |              6 |
| [1515](#event-1515)        | 0x015D       |      1 |              1 |
| [65535.22](#event-6553522) | 0x015E       |     34 |              8 |
| [1532](#event-1532)        | 0x0180       |     21 |              2 |
| [1533](#event-1533)        | 0x0195       |     21 |              2 |
| [1535](#event-1535)        | 0x01AA       |     21 |              2 |
| [1551](#event-1551)        | 0x01BF       |     21 |              2 |
| [1552](#event-1552)        | 0x01D4       |     21 |              2 |
| [1549](#event-1549)        | 0x01E9       |     21 |              2 |
| [65535.23](#event-6553523) | 0x01FE       |     19 |              5 |
| [65535.24](#event-6553524) | 0x0211       |     17 |              5 |
| [100](#event-100)          | 0x0222       |      1 |              1 |

## DAT References (imed_data)

|   Index | Hex Value   |   Dec Value |
|---------|-------------|-------------|
|       0 | 0x0000      |           0 |
|       1 | 0x0001      |           1 |
|       2 | 0x0080      |         128 |
|       3 | 0x0005      |           5 |
|       4 | 0x000D      |          13 |
|       5 | 0x00D7      |         215 |
|       6 | 0x0140      |         320 |
|       7 | 0x0067      |         103 |
|       8 | 0x008E      |         142 |
|       9 | 0x0159      |         345 |
|      10 | 0x01F4      |         500 |
|      11 | 0xFFFFD314  |  4294955796 |
|      12 | 0xFFFFFA24  |  4294965796 |
|      13 | 0xFFFFCFF4  |  4294954996 |
|      14 | 0x05E5      |        1509 |
|      15 | 0xFFFFD4B8  |  4294956216 |
|      16 | 0x1130      |        4400 |
|      17 | 0xFFFFC950  |  4294953296 |
|      18 | 0x0028      |          40 |
|      19 | 0x007A      |         122 |
|      20 | 0xFFFFC186  |  4294951302 |
|      21 | 0xFFFFFB8B  |  4294966155 |
|      22 | 0xFFFFC022  |  4294950946 |
|      23 | 0x0178      |         376 |
|      24 | 0xFFFFC28D  |  4294951565 |
|      25 | 0xFFFFFB4A  |  4294966090 |
|      26 | 0xFFFFCB00  |  4294953728 |
|      27 | 0xFFFFFD10  |  4294966544 |
|      28 | 0xFFFFCD9D  |  4294954397 |
|      29 | 0xFFFFE834  |  4294961204 |
|      30 | 0xFFFFCB45  |  4294953797 |
|      31 | 0xFFFF0D6D  |  4294905197 |
|      32 | 0xFFFFD0E7  |  4294955239 |
|      33 | 0xFFFFFE0D  |  4294966797 |
|      34 | 0xFFFF38D2  |  4294916306 |
|      35 | 0xFFFFCA23  |  4294953507 |
|      36 | 0xFFFF4107  |  4294918407 |
|      37 | 0xFFFFC992  |  4294953362 |
|      38 | 0xFFFF4FBA  |  4294922170 |
|      39 | 0xFFFFC984  |  4294953348 |
|      40 | 0xFFFFFBD8  |  4294966232 |
|      41 | 0xFFFFBF6D  |  4294950765 |
|      42 | 0xFFFFFC94  |  4294966420 |
|      43 | 0xFFFFC272  |  4294951538 |
|      44 | 0x001E      |          30 |

## Events

### Event 65535

#### Metadata

| Field        | Value   |
|--------------|---------|
| Entrypoint   | 0x0000  |
| Data Size    | 1 bytes |
| Instructions | 1       |

```
      00 01 02 03 04 05 06 07  08 09 0A 0B 0C 0D 0E 0F
      -- -- -- -- -- -- -- --  -- -- -- -- -- -- -- --
0000: 00                                                .               
```

#### Opcodes

```
  0: 0x0000 [0x00] END_REQSTACK()
```

### Event 65535.1

#### Metadata

| Field        | Value   |
|--------------|---------|
| Entrypoint   | 0x0001  |
| Data Size    | 1 bytes |
| Instructions | 1       |

```
      00 01 02 03 04 05 06 07  08 09 0A 0B 0C 0D 0E 0F
      -- -- -- -- -- -- -- --  -- -- -- -- -- -- -- --
0000:    00                                              .              
```

#### Opcodes

```
  0: 0x0001 [0x00] END_REQSTACK()
```

### Event 65535.2

#### Metadata

| Field        | Value    |
|--------------|----------|
| Entrypoint   | 0x0002   |
| Data Size    | 18 bytes |
| Instructions | 4        |

```
      00 01 02 03 04 05 06 07  08 09 0A 0B 0C 0D 0E 0F
      -- -- -- -- -- -- -- --  -- -- -- -- -- -- -- --
0000:       22 00 2F 00 F8 FF  FF 7F 6C F8 FF FF 7F 00    "./.....l.....
0010: 80 01 80 00                                       ....            
```

#### Opcodes

```
  0: 0x0002 [0x22] ENTITY_HIDE_FLAG(enabled=0x00)
  1: 0x0004 [0x2F] EventEntity->Render.Flags0 &= ~0x80000 // Bit 19
  2: 0x000A [0x6C] FADE_ENTITY_COLOR(entity_id=EventEntity, end_alpha=0*, fade_time=1*)
  3: 0x0013 [0x00] END_REQSTACK()
```

### Event 65535.3

#### Metadata

| Field        | Value    |
|--------------|----------|
| Entrypoint   | 0x0014   |
| Data Size    | 10 bytes |
| Instructions | 2        |

```
      00 01 02 03 04 05 06 07  08 09 0A 0B 0C 0D 0E 0F
      -- -- -- -- -- -- -- --  -- -- -- -- -- -- -- --
0010:             6C F8 FF FF  7F 02 80 01 80 00            l.........  
```

#### Opcodes

```
  0: 0x0014 [0x6C] FADE_ENTITY_COLOR(entity_id=EventEntity, end_alpha=128*, fade_time=1*)
  1: 0x001D [0x00] END_REQSTACK()
```

### Event 65535.4

#### Metadata

| Field        | Value   |
|--------------|---------|
| Entrypoint   | 0x001E  |
| Data Size    | 9 bytes |
| Instructions | 3       |

```
      00 01 02 03 04 05 06 07  08 09 0A 0B 0C 0D 0E 0F
      -- -- -- -- -- -- -- --  -- -- -- -- -- -- -- --
0010:                                            22 00                ".
0020: 2F 00 F8 FF FF 7F 00                              /......         
```

#### Opcodes

```
  0: 0x001E [0x22] ENTITY_HIDE_FLAG(enabled=0x00)
  1: 0x0020 [0x2F] EventEntity->Render.Flags0 &= ~0x80000 // Bit 19
  2: 0x0026 [0x00] END_REQSTACK()
```

### Event 65535.5

#### Metadata

| Field        | Value   |
|--------------|---------|
| Entrypoint   | 0x0027  |
| Data Size    | 9 bytes |
| Instructions | 3       |

```
      00 01 02 03 04 05 06 07  08 09 0A 0B 0C 0D 0E 0F
      -- -- -- -- -- -- -- --  -- -- -- -- -- -- -- --
0020:                      22  01 2F 01 F8 FF FF 7F 00         "./......
```

#### Opcodes

```
  0: 0x0027 [0x22] ENTITY_HIDE_FLAG(enabled=0x01)
  1: 0x0029 [0x2F] EventEntity->Render.Flags0 |= 0x80000 // Bit 19
  2: 0x002F [0x00] END_REQSTACK()
```

### Event 65535.6

#### Metadata

| Field        | Value    |
|--------------|----------|
| Entrypoint   | 0x0030   |
| Data Size    | 10 bytes |
| Instructions | 2        |

```
      00 01 02 03 04 05 06 07  08 09 0A 0B 0C 0D 0E 0F
      -- -- -- -- -- -- -- --  -- -- -- -- -- -- -- --
0030: 6C F8 FF FF 7F 00 80 01  80 00                    l.........      
```

#### Opcodes

```
  0: 0x0030 [0x6C] FADE_ENTITY_COLOR(entity_id=EventEntity, end_alpha=0*, fade_time=1*)
  1: 0x0039 [0x00] END_REQSTACK()
```

### Event 65535.7

#### Metadata

| Field        | Value    |
|--------------|----------|
| Entrypoint   | 0x003A   |
| Data Size    | 10 bytes |
| Instructions | 2        |

```
      00 01 02 03 04 05 06 07  08 09 0A 0B 0C 0D 0E 0F
      -- -- -- -- -- -- -- --  -- -- -- -- -- -- -- --
0030:                                6C F8 FF FF 7F 02            l.....
0040: 80 01 80 00                                       ....            
```

#### Opcodes

```
  0: 0x003A [0x6C] FADE_ENTITY_COLOR(entity_id=EventEntity, end_alpha=128*, fade_time=1*)
  1: 0x0043 [0x00] END_REQSTACK()
```

### Event 1500

#### Metadata

| Field        | Value   |
|--------------|---------|
| Entrypoint   | 0x0044  |
| Data Size    | 1 bytes |
| Instructions | 1       |

```
      00 01 02 03 04 05 06 07  08 09 0A 0B 0C 0D 0E 0F
      -- -- -- -- -- -- -- --  -- -- -- -- -- -- -- --
0040:             00                                        .           
```

#### Opcodes

```
  0: 0x0044 [0x00] END_REQSTACK()
```

### Event 65535.8

#### Metadata

| Field        | Value    |
|--------------|----------|
| Entrypoint   | 0x0045   |
| Data Size    | 21 bytes |
| Instructions | 2        |

```
      00 01 02 03 04 05 06 07  08 09 0A 0B 0C 0D 0E 0F
      -- -- -- -- -- -- -- --  -- -- -- -- -- -- -- --
0040:                B6 0B 03  80 04 80 05 80 06 80 07       ...........
0050: 80 08 80 08 80 00 80 00  80 00                    ..........      
```

#### Opcodes

```
  0: 0x0045 [0xB6] ENTITY_APPEARANCE_HANDLER(case=Full entity look, race=5*, hair=13*, head=215*, body=320*, hands=103*, legs=142*, feet=142*, main=0*, sub=0*)
  1: 0x0059 [0x00] END_REQSTACK()
```

### Event 65535.9

#### Metadata

| Field        | Value    |
|--------------|----------|
| Entrypoint   | 0x005A   |
| Data Size    | 21 bytes |
| Instructions | 2        |

```
      00 01 02 03 04 05 06 07  08 09 0A 0B 0C 0D 0E 0F
      -- -- -- -- -- -- -- --  -- -- -- -- -- -- -- --
0050:                                B6 0B 03 80 04 80            ......
0060: 05 80 09 80 07 80 08 80  08 80 00 80 00 80 00     ............... 
```

#### Opcodes

```
  0: 0x005A [0xB6] ENTITY_APPEARANCE_HANDLER(case=Full entity look, race=5*, hair=13*, head=215*, body=345*, hands=103*, legs=142*, feet=142*, main=0*, sub=0*)
  1: 0x006E [0x00] END_REQSTACK()
```

### Event 65535.10

#### Metadata

| Field        | Value    |
|--------------|----------|
| Entrypoint   | 0x006F   |
| Data Size    | 13 bytes |
| Instructions | 3        |

```
      00 01 02 03 04 05 06 07  08 09 0A 0B 0C 0D 0E 0F
      -- -- -- -- -- -- -- --  -- -- -- -- -- -- -- --
0060:                                               92                 .
0070: 01 F8 FF FF 7F 94 01 F8  FF FF 7F 00              ............    
```

#### Opcodes

```
  0: 0x006F [0x92] EventEntity->Render.Flags3 ^= 0x01
  1: 0x0075 [0x94] EventEntity->Render.Flags3 ^= 0x01
  2: 0x007B [0x00] END_REQSTACK()
```

### Event 65535.11

#### Metadata

| Field        | Value    |
|--------------|----------|
| Entrypoint   | 0x007C   |
| Data Size    | 15 bytes |
| Instructions | 5        |

```
      00 01 02 03 04 05 06 07  08 09 0A 0B 0C 0D 0E 0F
      -- -- -- -- -- -- -- --  -- -- -- -- -- -- -- --
0070:                                      32 04 80 1F              2...
0080: 00 0A 80 0B 80 0C 80 1F  01 6F 00                 .........o.     
```

#### Opcodes

```
  0: 0x007C [0x32] ExtData[1]->MainSpeed = 13* * 0.1
  1: 0x007F [0x1F] MOVE_ENTITY: EventEntity moves to X=0.500*, Z=-11.500*, Y=-1.500*
  2: 0x0087 [0x1F] MOVE_ENTITY: Update entity position (mode=1)
  3: 0x0089 [0x6F] WAIT_FRAME_DELAY: Yield until WaitTime reaches zero
  4: 0x008A [0x00] END_REQSTACK()
```

### Event 65535.12

#### Metadata

| Field        | Value    |
|--------------|----------|
| Entrypoint   | 0x008B   |
| Data Size    | 15 bytes |
| Instructions | 5        |

```
      00 01 02 03 04 05 06 07  08 09 0A 0B 0C 0D 0E 0F
      -- -- -- -- -- -- -- --  -- -- -- -- -- -- -- --
0080:                                   32 04 80 1F 00             2....
0090: 00 80 0D 80 0C 80 1F 01  6F 00                    ........o.      
```

#### Opcodes

```
  0: 0x008B [0x32] ExtData[1]->MainSpeed = 13* * 0.1
  1: 0x008E [0x1F] MOVE_ENTITY: EventEntity moves to X=0.000*, Z=-12.300*, Y=-1.500*
  2: 0x0096 [0x1F] MOVE_ENTITY: Update entity position (mode=1)
  3: 0x0098 [0x6F] WAIT_FRAME_DELAY: Yield until WaitTime reaches zero
  4: 0x0099 [0x00] END_REQSTACK()
```

### Event 65535.13

#### Metadata

| Field        | Value    |
|--------------|----------|
| Entrypoint   | 0x009A   |
| Data Size    | 15 bytes |
| Instructions | 5        |

```
      00 01 02 03 04 05 06 07  08 09 0A 0B 0C 0D 0E 0F
      -- -- -- -- -- -- -- --  -- -- -- -- -- -- -- --
0090:                                32 04 80 1F 00 0E            2.....
00A0: 80 0F 80 0C 80 1F 01 6F  00                       .......o.       
```

#### Opcodes

```
  0: 0x009A [0x32] ExtData[1]->MainSpeed = 13* * 0.1
  1: 0x009D [0x1F] MOVE_ENTITY: EventEntity moves to X=1.509*, Z=-11.080*, Y=-1.500*
  2: 0x00A5 [0x1F] MOVE_ENTITY: Update entity position (mode=1)
  3: 0x00A7 [0x6F] WAIT_FRAME_DELAY: Yield until WaitTime reaches zero
  4: 0x00A8 [0x00] END_REQSTACK()
```

### Event 65535.14

#### Metadata

| Field        | Value    |
|--------------|----------|
| Entrypoint   | 0x00A9   |
| Data Size    | 22 bytes |
| Instructions | 6        |

```
      00 01 02 03 04 05 06 07  08 09 0A 0B 0C 0D 0E 0F
      -- -- -- -- -- -- -- --  -- -- -- -- -- -- -- --
00A0:                             32 04 80 1F 00 10 80           2......
00B0: 11 80 0C 80 1F 01 6F 4B  F8 FF FF 7F 00 80 00     ......oK....... 
```

#### Opcodes

```
  0: 0x00A9 [0x32] ExtData[1]->MainSpeed = 13* * 0.1
  1: 0x00AC [0x1F] MOVE_ENTITY: EventEntity moves to X=4.400*, Z=-14.000*, Y=-1.500*
  2: 0x00B4 [0x1F] MOVE_ENTITY: Update entity position (mode=1)
  3: 0x00B6 [0x6F] WAIT_FRAME_DELAY: Yield until WaitTime reaches zero
  4: 0x00B7 [0x4B] UPDATE_ENTITY_YAW(entity=EventEntity, yaw=0.0°*)
  5: 0x00BE [0x00] END_REQSTACK()
```

### Event 65535.15

#### Metadata

| Field        | Value    |
|--------------|----------|
| Entrypoint   | 0x00BF   |
| Data Size    | 15 bytes |
| Instructions | 5        |

```
      00 01 02 03 04 05 06 07  08 09 0A 0B 0C 0D 0E 0F
      -- -- -- -- -- -- -- --  -- -- -- -- -- -- -- --
00B0:                                               32                 2
00C0: 12 80 1F 00 13 80 14 80  0C 80 1F 01 6F 00        ............o.  
```

#### Opcodes

```
  0: 0x00BF [0x32] ExtData[1]->MainSpeed = 40* * 0.1
  1: 0x00C2 [0x1F] MOVE_ENTITY: EventEntity moves to X=0.122*, Z=-15.994*, Y=-1.500*
  2: 0x00CA [0x1F] MOVE_ENTITY: Update entity position (mode=1)
  3: 0x00CC [0x6F] WAIT_FRAME_DELAY: Yield until WaitTime reaches zero
  4: 0x00CD [0x00] END_REQSTACK()
```

### Event 65535.16

#### Metadata

| Field        | Value    |
|--------------|----------|
| Entrypoint   | 0x00CE   |
| Data Size    | 24 bytes |
| Instructions | 6        |

```
      00 01 02 03 04 05 06 07  08 09 0A 0B 0C 0D 0E 0F
      -- -- -- -- -- -- -- --  -- -- -- -- -- -- -- --
00C0:                                            32 04                2.
00D0: 80 1F 00 15 80 16 80 0C  80 1F 01 6F 4A 96 10 10  ...........oJ...
00E0: 01 F0 FF FF 7F 00                                 ......          
```

#### Opcodes

```
  0: 0x00CE [0x32] ExtData[1]->MainSpeed = 13* * 0.1
  1: 0x00D1 [0x1F] MOVE_ENTITY: EventEntity moves to X=-1.141*, Z=-16.350*, Y=-1.500*
  2: 0x00D9 [0x1F] MOVE_ENTITY: Update entity position (mode=1)
  3: 0x00DB [0x6F] WAIT_FRAME_DELAY: Yield until WaitTime reaches zero
  4: 0x00DC [0x4A] Chero-Machero (ID: 17830038/0x01101096) looks at LocalPlayer
  5: 0x00E5 [0x00] END_REQSTACK()
```

### Event 65535.17

#### Metadata

| Field        | Value    |
|--------------|----------|
| Entrypoint   | 0x00E6   |
| Data Size    | 24 bytes |
| Instructions | 6        |

```
      00 01 02 03 04 05 06 07  08 09 0A 0B 0C 0D 0E 0F
      -- -- -- -- -- -- -- --  -- -- -- -- -- -- -- --
00E0:                   32 04  80 1F 00 17 80 18 80 0C        2.........
00F0: 80 1F 01 6F 4A 96 10 10  01 9F 10 10 01 00        ...oJ.........  
```

#### Opcodes

```
  0: 0x00E6 [0x32] ExtData[1]->MainSpeed = 13* * 0.1
  1: 0x00E9 [0x1F] MOVE_ENTITY: EventEntity moves to X=0.376*, Z=-15.731*, Y=-1.500*
  2: 0x00F1 [0x1F] MOVE_ENTITY: Update entity position (mode=1)
  3: 0x00F3 [0x6F] WAIT_FRAME_DELAY: Yield until WaitTime reaches zero
  4: 0x00F4 [0x4A] Chero-Machero (ID: 17830038/0x01101096) looks at Unnamed NPC (ID: 17830047/0x0110109F)
  5: 0x00FD [0x00] END_REQSTACK()
```

### Event 65535.18

#### Metadata

| Field        | Value    |
|--------------|----------|
| Entrypoint   | 0x00FE   |
| Data Size    | 24 bytes |
| Instructions | 6        |

```
      00 01 02 03 04 05 06 07  08 09 0A 0B 0C 0D 0E 0F
      -- -- -- -- -- -- -- --  -- -- -- -- -- -- -- --
00F0:                                            32 12                2.
0100: 80 1F 00 19 80 1A 80 0C  80 1F 01 6F 4A 96 10 10  ...........oJ...
0110: 01 90 10 10 01 00                                 ......          
```

#### Opcodes

```
  0: 0x00FE [0x32] ExtData[1]->MainSpeed = 40* * 0.1
  1: 0x0101 [0x1F] MOVE_ENTITY: EventEntity moves to X=-1.206*, Z=-13.568*, Y=-1.500*
  2: 0x0109 [0x1F] MOVE_ENTITY: Update entity position (mode=1)
  3: 0x010B [0x6F] WAIT_FRAME_DELAY: Yield until WaitTime reaches zero
  4: 0x010C [0x4A] Chero-Machero (ID: 17830038/0x01101096) looks at Arciela (ID: 17830032/0x01101090)
  5: 0x0115 [0x00] END_REQSTACK()
```

### Event 65535.19

#### Metadata

| Field        | Value    |
|--------------|----------|
| Entrypoint   | 0x0116   |
| Data Size    | 26 bytes |
| Instructions | 8        |

```
      00 01 02 03 04 05 06 07  08 09 0A 0B 0C 0D 0E 0F
      -- -- -- -- -- -- -- --  -- -- -- -- -- -- -- --
0110:                   32 12  80 1F 00 1B 80 1C 80 0C        2.........
0120: 80 1F 01 6F 4A 96 10 10  01 90 10 10 01 6F 70 00  ...oJ........op.
```

#### Opcodes

```
  0: 0x0116 [0x32] ExtData[1]->MainSpeed = 40* * 0.1
  1: 0x0119 [0x1F] MOVE_ENTITY: EventEntity moves to X=-0.752*, Z=-12.899*, Y=-1.500*
  2: 0x0121 [0x1F] MOVE_ENTITY: Update entity position (mode=1)
  3: 0x0123 [0x6F] WAIT_FRAME_DELAY: Yield until WaitTime reaches zero
  4: 0x0124 [0x4A] Chero-Machero (ID: 17830038/0x01101096) looks at Arciela (ID: 17830032/0x01101090)
  5: 0x012D [0x6F] WAIT_FRAME_DELAY: Yield until WaitTime reaches zero
  6: 0x012E [0x70] WAIT_ENTITY_RENDER_FLAG: Wait while EventEntity->Render.Flags3 bit 2 is set (cancel turn if not)
  7: 0x012F [0x00] END_REQSTACK()
```

### Event 65535.20

#### Metadata

| Field        | Value    |
|--------------|----------|
| Entrypoint   | 0x0130   |
| Data Size    | 24 bytes |
| Instructions | 6        |

```
      00 01 02 03 04 05 06 07  08 09 0A 0B 0C 0D 0E 0F
      -- -- -- -- -- -- -- --  -- -- -- -- -- -- -- --
0130: 32 04 80 1F 00 1D 80 1E  80 0C 80 1F 01 6F 4A 96  2............oJ.
0140: 10 10 01 99 10 10 01 00                           ........        
```

#### Opcodes

```
  0: 0x0130 [0x32] ExtData[1]->MainSpeed = 13* * 0.1
  1: 0x0133 [0x1F] MOVE_ENTITY: EventEntity moves to X=-6.092*, Z=-13.499*, Y=-1.500*
  2: 0x013B [0x1F] MOVE_ENTITY: Update entity position (mode=1)
  3: 0x013D [0x6F] WAIT_FRAME_DELAY: Yield until WaitTime reaches zero
  4: 0x013E [0x4A] Chero-Machero (ID: 17830038/0x01101096) looks at Gratzigg (ID: 17830041/0x01101099)
  5: 0x0147 [0x00] END_REQSTACK()
```

### Event 1507

#### Metadata

| Field        | Value   |
|--------------|---------|
| Entrypoint   | 0x0148  |
| Data Size    | 1 bytes |
| Instructions | 1       |

```
      00 01 02 03 04 05 06 07  08 09 0A 0B 0C 0D 0E 0F
      -- -- -- -- -- -- -- --  -- -- -- -- -- -- -- --
0140:                          00                               .       
```

#### Opcodes

```
  0: 0x0148 [0x00] END_REQSTACK()
```

### Event 65535.21

#### Metadata

| Field        | Value    |
|--------------|----------|
| Entrypoint   | 0x0149   |
| Data Size    | 20 bytes |
| Instructions | 6        |

```
      00 01 02 03 04 05 06 07  08 09 0A 0B 0C 0D 0E 0F
      -- -- -- -- -- -- -- --  -- -- -- -- -- -- -- --
0140:                             32 04 80 1F 00 1F 80           2......
0150: 20 80 21 80 1F 01 6F 1E  9D 10 10 01 00            .!...o......   
```

#### Opcodes

```
  0: 0x0149 [0x32] ExtData[1]->MainSpeed = 13* * 0.1
  1: 0x014C [0x1F] MOVE_ENTITY: EventEntity moves to X=-62.099*, Z=-12.057*, Y=-0.499*
  2: 0x0154 [0x1F] MOVE_ENTITY: Update entity position (mode=1)
  3: 0x0156 [0x6F] WAIT_FRAME_DELAY: Yield until WaitTime reaches zero
  4: 0x0157 [0x1E] EventEntity looks at Vortimere (ID: 17830045/0x0110109D) and starts talking
  5: 0x015C [0x00] END_REQSTACK()
```

### Event 1515

#### Metadata

| Field        | Value   |
|--------------|---------|
| Entrypoint   | 0x015D  |
| Data Size    | 1 bytes |
| Instructions | 1       |

```
      00 01 02 03 04 05 06 07  08 09 0A 0B 0C 0D 0E 0F
      -- -- -- -- -- -- -- --  -- -- -- -- -- -- -- --
0150:                                         00                     .  
```

#### Opcodes

```
  0: 0x015D [0x00] END_REQSTACK()
```

### Event 65535.22

#### Metadata

| Field        | Value    |
|--------------|----------|
| Entrypoint   | 0x015E   |
| Data Size    | 34 bytes |
| Instructions | 8        |

```
      00 01 02 03 04 05 06 07  08 09 0A 0B 0C 0D 0E 0F
      -- -- -- -- -- -- -- --  -- -- -- -- -- -- -- --
0150:                                            32 04                2.
0160: 80 1F 00 22 80 23 80 21  80 1F 01 1F 00 24 80 25  ...".#.!.....$.%
0170: 80 00 80 1F 01 1F 00 26  80 27 80 00 80 1F 01 00  .......&.'......
```

#### Opcodes

```
  0: 0x015E [0x32] ExtData[1]->MainSpeed = 13* * 0.1
  1: 0x0161 [0x1F] MOVE_ENTITY: EventEntity moves to X=-50.990*, Z=-13.789*, Y=-0.499*
  2: 0x0169 [0x1F] MOVE_ENTITY: Update entity position (mode=1)
  3: 0x016B [0x1F] MOVE_ENTITY: EventEntity moves to X=-48.889*, Z=-13.934*, Y=0.000*
  4: 0x0173 [0x1F] MOVE_ENTITY: Update entity position (mode=1)
  5: 0x0175 [0x1F] MOVE_ENTITY: EventEntity moves to X=-45.126*, Z=-13.948*, Y=0.000*
  6: 0x017D [0x1F] MOVE_ENTITY: Update entity position (mode=1)
  7: 0x017F [0x00] END_REQSTACK()
```

### Event 1532

#### Metadata

| Field        | Value    |
|--------------|----------|
| Entrypoint   | 0x0180   |
| Data Size    | 21 bytes |
| Instructions | 2        |

```
      00 01 02 03 04 05 06 07  08 09 0A 0B 0C 0D 0E 0F
      -- -- -- -- -- -- -- --  -- -- -- -- -- -- -- --
0180: B6 0B 03 80 04 80 05 80  06 80 07 80 08 80 08 80  ................
0190: 00 80 00 80 00                                    .....           
```

#### Opcodes

```
  0: 0x0180 [0xB6] ENTITY_APPEARANCE_HANDLER(case=Full entity look, race=5*, hair=13*, head=215*, body=320*, hands=103*, legs=142*, feet=142*, main=0*, sub=0*)
  1: 0x0194 [0x00] END_REQSTACK()
```

### Event 1533

#### Metadata

| Field        | Value    |
|--------------|----------|
| Entrypoint   | 0x0195   |
| Data Size    | 21 bytes |
| Instructions | 2        |

```
      00 01 02 03 04 05 06 07  08 09 0A 0B 0C 0D 0E 0F
      -- -- -- -- -- -- -- --  -- -- -- -- -- -- -- --
0190:                B6 0B 03  80 04 80 05 80 09 80 07       ...........
01A0: 80 08 80 08 80 00 80 00  80 00                    ..........      
```

#### Opcodes

```
  0: 0x0195 [0xB6] ENTITY_APPEARANCE_HANDLER(case=Full entity look, race=5*, hair=13*, head=215*, body=345*, hands=103*, legs=142*, feet=142*, main=0*, sub=0*)
  1: 0x01A9 [0x00] END_REQSTACK()
```

### Event 1535

#### Metadata

| Field        | Value    |
|--------------|----------|
| Entrypoint   | 0x01AA   |
| Data Size    | 21 bytes |
| Instructions | 2        |

```
      00 01 02 03 04 05 06 07  08 09 0A 0B 0C 0D 0E 0F
      -- -- -- -- -- -- -- --  -- -- -- -- -- -- -- --
01A0:                                B6 0B 03 80 04 80            ......
01B0: 05 80 09 80 07 80 08 80  08 80 00 80 00 80 00     ............... 
```

#### Opcodes

```
  0: 0x01AA [0xB6] ENTITY_APPEARANCE_HANDLER(case=Full entity look, race=5*, hair=13*, head=215*, body=345*, hands=103*, legs=142*, feet=142*, main=0*, sub=0*)
  1: 0x01BE [0x00] END_REQSTACK()
```

### Event 1551

#### Metadata

| Field        | Value    |
|--------------|----------|
| Entrypoint   | 0x01BF   |
| Data Size    | 21 bytes |
| Instructions | 2        |

```
      00 01 02 03 04 05 06 07  08 09 0A 0B 0C 0D 0E 0F
      -- -- -- -- -- -- -- --  -- -- -- -- -- -- -- --
01B0:                                               B6                 .
01C0: 0B 03 80 04 80 05 80 09  80 07 80 08 80 08 80 00  ................
01D0: 80 00 80 00                                       ....            
```

#### Opcodes

```
  0: 0x01BF [0xB6] ENTITY_APPEARANCE_HANDLER(case=Full entity look, race=5*, hair=13*, head=215*, body=345*, hands=103*, legs=142*, feet=142*, main=0*, sub=0*)
  1: 0x01D3 [0x00] END_REQSTACK()
```

### Event 1552

#### Metadata

| Field        | Value    |
|--------------|----------|
| Entrypoint   | 0x01D4   |
| Data Size    | 21 bytes |
| Instructions | 2        |

```
      00 01 02 03 04 05 06 07  08 09 0A 0B 0C 0D 0E 0F
      -- -- -- -- -- -- -- --  -- -- -- -- -- -- -- --
01D0:             B6 0B 03 80  04 80 05 80 09 80 07 80      ............
01E0: 08 80 08 80 00 80 00 80  00                       .........       
```

#### Opcodes

```
  0: 0x01D4 [0xB6] ENTITY_APPEARANCE_HANDLER(case=Full entity look, race=5*, hair=13*, head=215*, body=345*, hands=103*, legs=142*, feet=142*, main=0*, sub=0*)
  1: 0x01E8 [0x00] END_REQSTACK()
```

### Event 1549

#### Metadata

| Field        | Value    |
|--------------|----------|
| Entrypoint   | 0x01E9   |
| Data Size    | 21 bytes |
| Instructions | 2        |

```
      00 01 02 03 04 05 06 07  08 09 0A 0B 0C 0D 0E 0F
      -- -- -- -- -- -- -- --  -- -- -- -- -- -- -- --
01E0:                             B6 0B 03 80 04 80 05           .......
01F0: 80 09 80 07 80 08 80 08  80 00 80 00 80 00        ..............  
```

#### Opcodes

```
  0: 0x01E9 [0xB6] ENTITY_APPEARANCE_HANDLER(case=Full entity look, race=5*, hair=13*, head=215*, body=345*, hands=103*, legs=142*, feet=142*, main=0*, sub=0*)
  1: 0x01FD [0x00] END_REQSTACK()
```

### Event 65535.23

#### Metadata

| Field        | Value    |
|--------------|----------|
| Entrypoint   | 0x01FE   |
| Data Size    | 19 bytes |
| Instructions | 5        |

```
      00 01 02 03 04 05 06 07  08 09 0A 0B 0C 0D 0E 0F
      -- -- -- -- -- -- -- --  -- -- -- -- -- -- -- --
01F0:                                            32 04                2.
0200: 80 1F 00 28 80 29 80 0C  80 1F 01 1E 90 10 10 01  ...(.)..........
0210: 00                                                .               
```

#### Opcodes

```
  0: 0x01FE [0x32] ExtData[1]->MainSpeed = 13* * 0.1
  1: 0x0201 [0x1F] MOVE_ENTITY: EventEntity moves to X=-1.064*, Z=-16.531*, Y=-1.500*
  2: 0x0209 [0x1F] MOVE_ENTITY: Update entity position (mode=1)
  3: 0x020B [0x1E] EventEntity looks at Arciela (ID: 17830032/0x01101090) and starts talking
  4: 0x0210 [0x00] END_REQSTACK()
```

### Event 65535.24

#### Metadata

| Field        | Value    |
|--------------|----------|
| Entrypoint   | 0x0211   |
| Data Size    | 17 bytes |
| Instructions | 5        |

```
      00 01 02 03 04 05 06 07  08 09 0A 0B 0C 0D 0E 0F
      -- -- -- -- -- -- -- --  -- -- -- -- -- -- -- --
0210:    32 04 80 1F 00 2A 80  2B 80 0C 80 1F 01 1C 2C   2....*.+......,
0220: 80 00                                             ..              
```

#### Opcodes

```
  0: 0x0211 [0x32] ExtData[1]->MainSpeed = 13* * 0.1
  1: 0x0214 [0x1F] MOVE_ENTITY: EventEntity moves to X=-0.876*, Z=-15.758*, Y=-1.500*
  2: 0x021C [0x1F] MOVE_ENTITY: Update entity position (mode=1)
  3: 0x021E [0x1C] WAIT(30* ticks)
  4: 0x0221 [0x00] END_REQSTACK()
```

### Event 100

#### Metadata

| Field        | Value   |
|--------------|---------|
| Entrypoint   | 0x0222  |
| Data Size    | 1 bytes |
| Instructions | 1       |

```
      00 01 02 03 04 05 06 07  08 09 0A 0B 0C 0D 0E 0F
      -- -- -- -- -- -- -- --  -- -- -- -- -- -- -- --
0220:       00                                            .             
```

#### Opcodes

```
  0: 0x0222 [0x00] END_REQSTACK()
```
