# 17830166

## Common Data

| Field            | Value                     |
|------------------|---------------------------|
| Zone             | Eastern Adoulin (ID: 257) |
| Block Size       | 44036 bytes               |
| Total Events     | 15                        |
| References Count | 556                       |

## List of Events

| Event ID              | Entrypoint   |   Size |   Instructions |
|-----------------------|--------------|--------|----------------|
| [65535](#event-65535) | 0x0000       |    658 |             62 |
| [110](#event-110)     | 0x0292       |   5085 |            578 |
| [111](#event-111)     | 0x166F       |   1139 |            133 |
| [112](#event-112)     | 0x1AE2       |   2158 |            261 |
| [114](#event-114)     | 0x2350       |   3252 |            374 |
| [115](#event-115)     | 0x3004       |   4897 |            574 |
| [117](#event-117)     | 0x4325       |   2763 |            321 |
| [119](#event-119)     | 0x4DF0       |   2928 |            353 |
| [120](#event-120)     | 0x5960       |   5772 |            667 |
| [121](#event-121)     | 0x6FEC       |   1769 |            211 |
| [122](#event-122)     | 0x76D5       |   2059 |            239 |
| [126](#event-126)     | 0x7EE0       |   3651 |            440 |
| [127](#event-127)     | 0x8D23       |   1409 |            173 |
| [128](#event-128)     | 0x92A4       |   1918 |            235 |
| [130](#event-130)     | 0x9A22       |   2278 |            287 |

## DAT References (imed_data)

|   Index | Hex Value   |   Dec Value |
|---------|-------------|-------------|
|       0 | 0x00C8      |         200 |
|       1 | 0x0000      |           0 |
|       2 | 0x00C9      |         201 |
|       3 | 0x0001      |           1 |
|       4 | 0x002D      |          45 |
|       5 | 0x0002      |           2 |
|       6 | 0x001E      |          30 |
|       7 | 0x00D7      |         215 |
|       8 | 0x0013      |          19 |
|       9 | 0x17D40     |       97600 |
|      10 | 0xFFFF06C8  |  4294903496 |
|      11 | 0xFFFF632A  |  4294927146 |
|      12 | 0x177B4     |       96180 |
|      13 | 0xFFFEE206  |  4294894086 |
|      14 | 0x0C80      |        3200 |
|      15 | 0x0311      |         785 |
|      16 | 0x010E      |         270 |
|      17 | 0x00D1      |         209 |
|      18 | 0x2D9A      |       11674 |
|      19 | 0x2D9B      |       11675 |
|      20 | 0x0078      |         120 |
|      21 | 0x0032      |          50 |
|      22 | 0x2D9C      |       11676 |
|      23 | 0x0007      |           7 |
|      24 | 0x003C      |          60 |
|      25 | 0x0044      |          68 |
|      26 | 0x2D9D      |       11677 |
|      27 | 0x2061      |        8289 |
|      28 | 0x1879A     |      100250 |
|      29 | 0xFFFF0B14  |  4294904596 |
|      30 | 0xFFFFFC01  |  4294966273 |
|      31 | 0x1976C     |      104300 |
|      32 | 0xFFFF06AA  |  4294903466 |
|      33 | 0x07FF      |        2047 |
|      34 | 0x0045      |          69 |
|      35 | 0x2D9E      |       11678 |
|      36 | 0x0CD1      |        3281 |
|      37 | 0x2D9F      |       11679 |
|      38 | 0x2DA0      |       11680 |
|      39 | 0x0003      |           3 |
|      40 | 0x0005      |           5 |
|      41 | 0x0006      |           6 |
|      42 | 0x0008      |           8 |
|      43 | 0x0CD2      |        3282 |
|      44 | 0x2DA1      |       11681 |
|      45 | 0x2DA2      |       11682 |
|      46 | 0x2DA3      |       11683 |
|      47 | 0x2DA4      |       11684 |
|      48 | 0x2DA5      |       11685 |
|      49 | 0x2DA6      |       11686 |
|      50 | 0x2DA7      |       11687 |
|      51 | 0x005A      |          90 |
|      52 | 0x2DA8      |       11688 |
|      53 | 0x0016      |          22 |
|      54 | 0x2DA9      |       11689 |
|      55 | 0x2DAA      |       11690 |
|      56 | 0x2DAB      |       11691 |
|      57 | 0x2DAC      |       11692 |
|      58 | 0x00B4      |         180 |
|      59 | 0x2DAD      |       11693 |
|      60 | 0x2DAE      |       11694 |
|      61 | 0x2DAF      |       11695 |
|      62 | 0x2DB0      |       11696 |
|      63 | 0x2DB1      |       11697 |
|      64 | 0x2DB2      |       11698 |
|      65 | 0x2DB3      |       11699 |
|      66 | 0x2DB4      |       11700 |
|      67 | 0x2DB5      |       11701 |
|      68 | 0x0093      |         147 |
|      69 | 0x0248      |         584 |
|      70 | 0x00FF      |         255 |
|      71 | 0x00A3      |         163 |
|      72 | 0xFFFF2540  |  4294911296 |
|      73 | 0xFFFFD1C0  |  4294955456 |
|      74 | 0xFFFFFE0C  |  4294966796 |
|      75 | 0x0B4D      |        2893 |
|      76 | 0xFFFF2D10  |  4294913296 |
|      77 | 0xFFFFBF8C  |  4294950796 |
|      78 | 0x0C17      |        3095 |
|      79 | 0xFFFF1CA8  |  4294909096 |
|      80 | 0xFFFFE70A  |  4294960906 |
|      81 | 0x0D41      |        3393 |
|      82 | 0x0F96      |        3990 |
|      83 | 0x2DB6      |       11702 |
|      84 | 0x0C91      |        3217 |
|      85 | 0x2DB7      |       11703 |
|      86 | 0x2DB8      |       11704 |
|      87 | 0x0D8B      |        3467 |
|      88 | 0x2DB9      |       11705 |
|      89 | 0x00F0      |         240 |
|      90 | 0x007D      |         125 |
|      91 | 0x007F      |         127 |
|      92 | 0x0C90      |        3216 |
|      93 | 0x0E28      |        3624 |
|      94 | 0x2DBA      |       11706 |
|      95 | 0x012C      |         300 |
|      96 | 0xFFFF38C8  |  4294916296 |
|      97 | 0xFFFFC950  |  4294953296 |
|      98 | 0x2DBB      |       11707 |
|      99 | 0x2DBC      |       11708 |
|     100 | 0x2DBD      |       11709 |
|     101 | 0x2DBE      |       11710 |
|     102 | 0x188E4     |      100580 |
|     103 | 0x02BD      |         701 |
|     104 | 0x000F      |          15 |
|     105 | 0x003F      |          63 |
|     106 | 0x2DBF      |       11711 |
|     107 | 0x0CD9      |        3289 |
|     108 | 0x2DC0      |       11712 |
|     109 | 0x2DC1      |       11713 |
|     110 | 0x2DC2      |       11714 |
|     111 | 0x2DC3      |       11715 |
|     112 | 0x2DC4      |       11716 |
|     113 | 0x2DC5      |       11717 |
|     114 | 0x2DC6      |       11718 |
|     115 | 0x0096      |         150 |
|     116 | 0x2DC7      |       11719 |
|     117 | 0x0CD3      |        3283 |
|     118 | 0x2DC8      |       11720 |
|     119 | 0x0020      |          32 |
|     120 | 0x2DC9      |       11721 |
|     121 | 0x2DCA      |       11722 |
|     122 | 0x2DCB      |       11723 |
|     123 | 0x186A0     |      100000 |
|     124 | 0xFFFF04AC  |  4294902956 |
|     125 | 0x18A88     |      101000 |
|     126 | 0x184AC     |       99500 |
|     127 | 0xFFFF11B8  |  4294906296 |
|     128 | 0x03FF      |        1023 |
|     129 | 0x17C14     |       97300 |
|     130 | 0x0313      |         787 |
|     131 | 0x2DCF      |       11727 |
|     132 | 0x0955      |        2389 |
|     133 | 0x2DD0      |       11728 |
|     134 | 0x2DD1      |       11729 |
|     135 | 0x2DD2      |       11730 |
|     136 | 0x2DD3      |       11731 |
|     137 | 0x2DD4      |       11732 |
|     138 | 0x2DD5      |       11733 |
|     139 | 0x2DD6      |       11734 |
|     140 | 0x2DD7      |       11735 |
|     141 | 0x2DD8      |       11736 |
|     142 | 0x2DD9      |       11737 |
|     143 | 0x2DDC      |       11740 |
|     144 | 0x2DDD      |       11741 |
|     145 | 0x2DDE      |       11742 |
|     146 | 0x2DDF      |       11743 |
|     147 | 0x2DE0      |       11744 |
|     148 | 0x2DE1      |       11745 |
|     149 | 0x2DE2      |       11746 |
|     150 | 0x2DE3      |       11747 |
|     151 | 0x2DE4      |       11748 |
|     152 | 0x2DE5      |       11749 |
|     153 | 0x2DE6      |       11750 |
|     154 | 0x2DE7      |       11751 |
|     155 | 0x2DE8      |       11752 |
|     156 | 0x2DE9      |       11753 |
|     157 | 0x2DEA      |       11754 |
|     158 | 0x2DEB      |       11755 |
|     159 | 0x2DEC      |       11756 |
|     160 | 0x2DED      |       11757 |
|     161 | 0x2DEE      |       11758 |
|     162 | 0x2DEF      |       11759 |
|     163 | 0x2DF0      |       11760 |
|     164 | 0x0040      |          64 |
|     165 | 0x2DF1      |       11761 |
|     166 | 0x2DF2      |       11762 |
|     167 | 0x1B580     |      112000 |
|     168 | 0xFFFF1474  |  4294906996 |
|     169 | 0xFFFF63C0  |  4294927296 |
|     170 | 0xFFFFFF01  |  4294967041 |
|     171 | 0x1BF44     |      114500 |
|     172 | 0xFFFF1988  |  4294908296 |
|     173 | 0x067F      |        1663 |
|     174 | 0x031F      |         799 |
|     175 | 0x2DF5      |       11765 |
|     176 | 0x0E14      |        3604 |
|     177 | 0x2DF6      |       11766 |
|     178 | 0x0090      |         144 |
|     179 | 0x0010      |          16 |
|     180 | 0x0014      |          20 |
|     181 | 0x000A      |          10 |
|     182 | 0x2DF7      |       11767 |
|     183 | 0x2DF8      |       11768 |
|     184 | 0xFFFFCC66  |  4294954086 |
|     185 | 0xFFFF2158  |  4294910296 |
|     186 | 0xFFFFE2B4  |  4294959796 |
|     187 | 0x2DF9      |       11769 |
|     188 | 0x2DFA      |       11770 |
|     189 | 0x00E1      |         225 |
|     190 | 0x0CB7      |        3255 |
|     191 | 0x2DFB      |       11771 |
|     192 | 0x0C9F      |        3231 |
|     193 | 0x2DFC      |       11772 |
|     194 | 0x00F5      |         245 |
|     195 | 0x000B      |          11 |
|     196 | 0x0C99      |        3225 |
|     197 | 0x2DFD      |       11773 |
|     198 | 0x2DFE      |       11774 |
|     199 | 0x2DFF      |       11775 |
|     200 | 0x2E00      |       11776 |
|     201 | 0x2E01      |       11777 |
|     202 | 0x2E02      |       11778 |
|     203 | 0x0C9E      |        3230 |
|     204 | 0x2E03      |       11779 |
|     205 | 0x2E04      |       11780 |
|     206 | 0x2E05      |       11781 |
|     207 | 0x2E06      |       11782 |
|     208 | 0x2E07      |       11783 |
|     209 | 0x2E08      |       11784 |
|     210 | 0x2E09      |       11785 |
|     211 | 0x2E0A      |       11786 |
|     212 | 0x001F      |          31 |
|     213 | 0xFFFF777A  |  4294932346 |
|     214 | 0xFFFF9DCC  |  4294942156 |
|     215 | 0xFFFFFF6A  |  4294967146 |
|     216 | 0x0901      |        2305 |
|     217 | 0xFFFF4900  |  4294920448 |
|     218 | 0xFFFFCA1E  |  4294953502 |
|     219 | 0xFFFFFFB6  |  4294967222 |
|     220 | 0x0190      |         400 |
|     221 | 0xFFFF7478  |  4294931576 |
|     222 | 0xFFFFAB3C  |  4294945596 |
|     223 | 0x0348      |         840 |
|     224 | 0x0320      |         800 |
|     225 | 0x2E0D      |       11789 |
|     226 | 0xFFFFFF00  |  4294967040 |
|     227 | 0x0400      |        1024 |
|     228 | 0x2E0E      |       11790 |
|     229 | 0x2E0F      |       11791 |
|     230 | 0xFFFF0B00  |  4294904576 |
|     231 | 0x03A2      |         930 |
|     232 | 0x0111      |         273 |
|     233 | 0x00CE      |         206 |
|     234 | 0x2E11      |       11793 |
|     235 | 0xFFFFE890  |  4294961296 |
|     236 | 0x000D      |          13 |
|     237 | 0x2E10      |       11792 |
|     238 | 0xFFFF30F8  |  4294914296 |
|     239 | 0xFFFF006A  |  4294901866 |
|     240 | 0x04CE      |        1230 |
|     241 | 0x0ED7      |        3799 |
|     242 | 0x0147      |         327 |
|     243 | 0x0064      |         100 |
|     244 | 0xFFFF0380  |  4294902656 |
|     245 | 0xFFFFEB06  |  4294961926 |
|     246 | 0x0CB2      |        3250 |
|     247 | 0x2E12      |       11794 |
|     248 | 0x0CB0      |        3248 |
|     249 | 0x00FA      |         250 |
|     250 | 0x2E13      |       11795 |
|     251 | 0x0009      |           9 |
|     252 | 0x2E14      |       11796 |
|     253 | 0x2E15      |       11797 |
|     254 | 0x2E16      |       11798 |
|     255 | 0x2E17      |       11799 |
|     256 | 0x2E18      |       11800 |
|     257 | 0x2E19      |       11801 |
|     258 | 0x001A      |          26 |
|     259 | 0x0095      |         149 |
|     260 | 0x2E1A      |       11802 |
|     261 | 0x2E1B      |       11803 |
|     262 | 0x0EA6      |        3750 |
|     263 | 0x2E1C      |       11804 |
|     264 | 0x2E1D      |       11805 |
|     265 | 0x2E1E      |       11806 |
|     266 | 0x2E1F      |       11807 |
|     267 | 0x2E20      |       11808 |
|     268 | 0x2E21      |       11809 |
|     269 | 0x2E22      |       11810 |
|     270 | 0x2E23      |       11811 |
|     271 | 0x2E24      |       11812 |
|     272 | 0x2E25      |       11813 |
|     273 | 0x2E26      |       11814 |
|     274 | 0x004A      |          74 |
|     275 | 0x2E27      |       11815 |
|     276 | 0x2E28      |       11816 |
|     277 | 0x2E29      |       11817 |
|     278 | 0x2E2A      |       11818 |
|     279 | 0x2E2B      |       11819 |
|     280 | 0x2E2C      |       11820 |
|     281 | 0x2E2D      |       11821 |
|     282 | 0x1778      |        6008 |
|     283 | 0x2E2E      |       11822 |
|     284 | 0x2E2F      |       11823 |
|     285 | 0x0BC5      |        3013 |
|     286 | 0x2E30      |       11824 |
|     287 | 0xFFFF3990  |  4294916496 |
|     288 | 0xFFFFA754  |  4294944596 |
|     289 | 0xFFFFFD58  |  4294966616 |
|     290 | 0x2E31      |       11825 |
|     291 | 0x0024      |          36 |
|     292 | 0x2E32      |       11826 |
|     293 | 0x2E33      |       11827 |
|     294 | 0x2E34      |       11828 |
|     295 | 0xFA00      |       64000 |
|     296 | 0xFFFE4C74  |  4294855796 |
|     297 | 0x0321      |         801 |
|     298 | 0x0004      |           4 |
|     299 | 0x2E3D      |       11837 |
|     300 | 0x2E3E      |       11838 |
|     301 | 0x2E3F      |       11839 |
|     302 | 0x2E40      |       11840 |
|     303 | 0x2E41      |       11841 |
|     304 | 0x2E42      |       11842 |
|     305 | 0x2E43      |       11843 |
|     306 | 0x2E44      |       11844 |
|     307 | 0x2E45      |       11845 |
|     308 | 0x2E46      |       11846 |
|     309 | 0x0035      |          53 |
|     310 | 0x2E47      |       11847 |
|     311 | 0x2E48      |       11848 |
|     312 | 0x2E49      |       11849 |
|     313 | 0x2E4A      |       11850 |
|     314 | 0x2E4B      |       11851 |
|     315 | 0x2E4C      |       11852 |
|     316 | 0x0034      |          52 |
|     317 | 0x2E4D      |       11853 |
|     318 | 0x2E4E      |       11854 |
|     319 | 0x1871      |        6257 |
|     320 | 0x2E4F      |       11855 |
|     321 | 0x2E50      |       11856 |
|     322 | 0x02FE      |         766 |
|     323 | 0x2E51      |       11857 |
|     324 | 0x2E52      |       11858 |
|     325 | 0x0100      |         256 |
|     326 | 0x0300      |         768 |
|     327 | 0x2E53      |       11859 |
|     328 | 0x2E54      |       11860 |
|     329 | 0x2E55      |       11861 |
|     330 | 0x2E56      |       11862 |
|     331 | 0x2E57      |       11863 |
|     332 | 0x0578      |        1400 |
|     333 | 0x013C      |         316 |
|     334 | 0x003A      |          58 |
|     335 | 0x0876      |        2166 |
|     336 | 0x0CFD      |        3325 |
|     337 | 0xF550      |       62800 |
|     338 | 0xFFFE53F4  |  4294857716 |
|     339 | 0xFFFF630C  |  4294927116 |
|     340 | 0xFFFF635C  |  4294927196 |
|     341 | 0xFFFF638E  |  4294927246 |
|     342 | 0x2E58      |       11864 |
|     343 | 0x003B      |          59 |
|     344 | 0x2E59      |       11865 |
|     345 | 0x2E5A      |       11866 |
|     346 | 0x2E5B      |       11867 |
|     347 | 0x2710      |       10000 |
|     348 | 0x2E5C      |       11868 |
|     349 | 0x2E61      |       11873 |
|     350 | 0x2E62      |       11874 |
|     351 | 0x29D0      |       10704 |
|     352 | 0x18F7      |        6391 |
|     353 | 0x2E5D      |       11869 |
|     354 | 0x2E5E      |       11870 |
|     355 | 0x2E5F      |       11871 |
|     356 | 0x2E60      |       11872 |
|     357 | 0x18F1      |        6385 |
|     358 | 0x2E63      |       11875 |
|     359 | 0x2E64      |       11876 |
|     360 | 0x2E65      |       11877 |
|     361 | 0xFFFF07F4  |  4294903796 |
|     362 | 0xFFFFFC4A  |  4294966346 |
|     363 | 0xFFFFFD81  |  4294966657 |
|     364 | 0xFFFFFB50  |  4294966096 |
|     365 | 0xFFFF5BF0  |  4294925296 |
|     366 | 0xFFFFA3D0  |  4294943696 |
|     367 | 0xFFFF7540  |  4294931776 |
|     368 | 0xFFFFA8B2  |  4294944946 |
|     369 | 0x0384      |         900 |
|     370 | 0xFFFF5FD8  |  4294926296 |
|     371 | 0xFFFF88DC  |  4294936796 |
|     372 | 0xFFFEE2D8  |  4294894296 |
|     373 | 0xFFFFD8F0  |  4294957296 |
|     374 | 0xFFFEDB08  |  4294892296 |
|     375 | 0x2E66      |       11878 |
|     376 | 0x2E67      |       11879 |
|     377 | 0x0039      |          57 |
|     378 | 0x00B5      |         181 |
|     379 | 0x2E68      |       11880 |
|     380 | 0x2E69      |       11881 |
|     381 | 0x001D      |          29 |
|     382 | 0x2E6A      |       11882 |
|     383 | 0x2E6B      |       11883 |
|     384 | 0x2E6C      |       11884 |
|     385 | 0x2E6D      |       11885 |
|     386 | 0x2E6E      |       11886 |
|     387 | 0x2E6F      |       11887 |
|     388 | 0x2E70      |       11888 |
|     389 | 0x004C      |          76 |
|     390 | 0x00D2      |         210 |
|     391 | 0x006E      |         110 |
|     392 | 0xFFFF1BFE  |  4294908926 |
|     393 | 0xFFFFDAA8  |  4294957736 |
|     394 | 0xFFFFF8F8  |  4294965496 |
|     395 | 0x0CF7      |        3319 |
|     396 | 0x2E71      |       11889 |
|     397 | 0xFFFF6816  |  4294928406 |
|     398 | 0xFFFFAEF2  |  4294946546 |
|     399 | 0xFFFFFA88  |  4294965896 |
|     400 | 0xFFFF5D12  |  4294925586 |
|     401 | 0xFFFFC3E2  |  4294951906 |
|     402 | 0x02BC      |         700 |
|     403 | 0x2E72      |       11890 |
|     404 | 0x2E73      |       11891 |
|     405 | 0x2E74      |       11892 |
|     406 | 0x2E75      |       11893 |
|     407 | 0x2E76      |       11894 |
|     408 | 0x2E77      |       11895 |
|     409 | 0x2E78      |       11896 |
|     410 | 0x2E79      |       11897 |
|     411 | 0x2E7A      |       11898 |
|     412 | 0x2E7B      |       11899 |
|     413 | 0x0018      |          24 |
|     414 | 0x0AE1      |        2785 |
|     415 | 0xFFFF4480  |  4294919296 |
|     416 | 0xFFFFFED4  |  4294966996 |
|     417 | 0xFFFFFB91  |  4294966161 |
|     418 | 0x0CF8      |        3320 |
|     419 | 0x0CB1      |        3249 |
|     420 | 0x00AC      |         172 |
|     421 | 0xFFFF3EA4  |  4294917796 |
|     422 | 0xFFFFDECC  |  4294958796 |
|     423 | 0x02CB      |         715 |
|     424 | 0x2E7C      |       11900 |
|     425 | 0xFFFF5C7C  |  4294925436 |
|     426 | 0xFFFF9E58  |  4294942296 |
|     427 | 0x2E7D      |       11901 |
|     428 | 0x2E7E      |       11902 |
|     429 | 0x2E7F      |       11903 |
|     430 | 0x0D21      |        3361 |
|     431 | 0x2E80      |       11904 |
|     432 | 0x2E81      |       11905 |
|     433 | 0x2E82      |       11906 |
|     434 | 0x2E83      |       11907 |
|     435 | 0xFFFF3E7C  |  4294917756 |
|     436 | 0xFFFFE5D4  |  4294960596 |
|     437 | 0x2E84      |       11908 |
|     438 | 0x2E85      |       11909 |
|     439 | 0x2E86      |       11910 |
|     440 | 0x2E87      |       11911 |
|     441 | 0x0015      |          21 |
|     442 | 0x2E8A      |       11914 |
|     443 | 0x2E8B      |       11915 |
|     444 | 0x2E8C      |       11916 |
|     445 | 0x2E8D      |       11917 |
|     446 | 0x2E8E      |       11918 |
|     447 | 0x2E8F      |       11919 |
|     448 | 0x2E90      |       11920 |
|     449 | 0x2E91      |       11921 |
|     450 | 0x2E92      |       11922 |
|     451 | 0x2E93      |       11923 |
|     452 | 0x2E94      |       11924 |
|     453 | 0x2E95      |       11925 |
|     454 | 0x2E96      |       11926 |
|     455 | 0x2E97      |       11927 |
|     456 | 0x2E98      |       11928 |
|     457 | 0x2E9E      |       11934 |
|     458 | 0x2E9F      |       11935 |
|     459 | 0x2EA0      |       11936 |
|     460 | 0x2EA1      |       11937 |
|     461 | 0x2EA2      |       11938 |
|     462 | 0x2EA3      |       11939 |
|     463 | 0x2EA4      |       11940 |
|     464 | 0x2EA5      |       11941 |
|     465 | 0x2EA6      |       11942 |
|     466 | 0x2EA7      |       11943 |
|     467 | 0x2EA8      |       11944 |
|     468 | 0x0028      |          40 |
|     469 | 0x2EA9      |       11945 |
|     470 | 0x0323      |         803 |
|     471 | 0x2EAA      |       11946 |
|     472 | 0x2EAB      |       11947 |
|     473 | 0x2EAC      |       11948 |
|     474 | 0x2EAD      |       11949 |
|     475 | 0x083F      |        2111 |
|     476 | 0x2EAE      |       11950 |
|     477 | 0x2EAF      |       11951 |
|     478 | 0x2EB0      |       11952 |
|     479 | 0x2EB1      |       11953 |
|     480 | 0x2EB2      |       11954 |
|     481 | 0x2EB3      |       11955 |
|     482 | 0x2EB4      |       11956 |
|     483 | 0x2EB5      |       11957 |
|     484 | 0x2EB6      |       11958 |
|     485 | 0x2EB7      |       11959 |
|     486 | 0x2EB8      |       11960 |
|     487 | 0x0E13      |        3603 |
|     488 | 0x2EB9      |       11961 |
|     489 | 0x2EBA      |       11962 |
|     490 | 0x2EBB      |       11963 |
|     491 | 0x2EBC      |       11964 |
|     492 | 0x2EBD      |       11965 |
|     493 | 0x2EBE      |       11966 |
|     494 | 0x2EBF      |       11967 |
|     495 | 0x2EC0      |       11968 |
|     496 | 0x1D47A     |      119930 |
|     497 | 0xFFFF12E4  |  4294906596 |
|     498 | 0x2EC4      |       11972 |
|     499 | 0x2EC5      |       11973 |
|     500 | 0x2EC6      |       11974 |
|     501 | 0x0CD8      |        3288 |
|     502 | 0x2EC7      |       11975 |
|     503 | 0x19A28     |      105000 |
|     504 | 0xFFFF0DD0  |  4294905296 |
|     505 | 0x2EC8      |       11976 |
|     506 | 0x0026      |          38 |
|     507 | 0x2EC9      |       11977 |
|     508 | 0x2ECA      |       11978 |
|     509 | 0x2ECB      |       11979 |
|     510 | 0x2ECC      |       11980 |
|     511 | 0x2ECD      |       11981 |
|     512 | 0x109A0     |       68000 |
|     513 | 0x11364     |       70500 |
|     514 | 0xFFFFC75C  |  4294952796 |
|     515 | 0x10B94     |       68500 |
|     516 | 0xFFFFCF2C  |  4294954796 |
|     517 | 0xFFFFFF81  |  4294967169 |
|     518 | 0x2ED1      |       11985 |
|     519 | 0x2ED2      |       11986 |
|     520 | 0x2ED3      |       11987 |
|     521 | 0x2ED4      |       11988 |
|     522 | 0x2ED5      |       11989 |
|     523 | 0x2ED6      |       11990 |
|     524 | 0x2ED7      |       11991 |
|     525 | 0x2ED8      |       11992 |
|     526 | 0x2ED9      |       11993 |
|     527 | 0x2EDA      |       11994 |
|     528 | 0x2EDB      |       11995 |
|     529 | 0x2EDC      |       11996 |
|     530 | 0x2EDD      |       11997 |
|     531 | 0x000C      |          12 |
|     532 | 0x2EE1      |       12001 |
|     533 | 0x2EE2      |       12002 |
|     534 | 0x2EE3      |       12003 |
|     535 | 0x2EE4      |       12004 |
|     536 | 0x2EE5      |       12005 |
|     537 | 0x2EE6      |       12006 |
|     538 | 0x2EE7      |       12007 |
|     539 | 0x2EE8      |       12008 |
|     540 | 0x2EE9      |       12009 |
|     541 | 0x2EEA      |       12010 |
|     542 | 0x2EEB      |       12011 |
|     543 | 0x0E15      |        3605 |
|     544 | 0x2EEC      |       12012 |
|     545 | 0x0186      |         390 |
|     546 | 0x2EED      |       12013 |
|     547 | 0x2EEE      |       12014 |
|     548 | 0x2EEF      |       12015 |
|     549 | 0x1CF70     |      118640 |
|     550 | 0xFFFF1FDC  |  4294909916 |
|     551 | 0x2EF0      |       12016 |
|     552 | 0x2EF1      |       12017 |
|     553 | 0x2EF2      |       12018 |
|     554 | 0x2EF3      |       12019 |
|     555 | 0x2EF4      |       12020 |

## String References

- **6385**: You cannot obtain the $0. Come back after sorting your inventory.
- **6391**: Obtained: #.
- **8289**: @@
- **11686**: How do you respond? [Thanks for what?/How is Arciela?/How are you?]
- **11791**: Who do you look at? [Yocile./Lola./Oston./Jampiaire.]
- **11799**: Have anything to say? [Tell me more./Uh-huh./Fascinating.]
- **11848**: What will it be? [I'll take one./Are you crazy!?]
- **11857**: What will you do? [Leave it to me!/Leave it to me!/Leave it to me!/Leave it to me!/Leave it to me!/Leave it to me!/Leave it to me!/Leave it to me!/Maybe some other time./Next.]
- **11862**: Runje Desaali gives the $1 to Geosuke to drink.
- **11868**: Well, what will it be? (Bayld: $2) [Sure, I'll gladly pay $3 bayld./No thanks.]
- **11877**: You are now able to purchase $0 from Runje Desaali.
- **11880**: ??? snatches the $0!

## Events

### Event 65535

#### Metadata

| Field        | Value     |
|--------------|-----------|
| Entrypoint   | 0x0000    |
| Data Size    | 658 bytes |
| Instructions | 1         |

```
      00 01 02 03 04 05 06 07  08 09 0A 0B 0C 0D 0E 0F
      -- -- -- -- -- -- -- --  -- -- -- -- -- -- -- --
0000: 00 45 00 80 F0 FF FF 7F  F0 FF FF 7F 66 64 69 30  .E..........fdi0
0010: 01 80 55 00 80 F0 FF FF  7F F0 FF FF 7F 66 64 69  ..U..........fdi
0020: 30 1B 45 00 80 F0 FF FF  7F F0 FF FF 7F 66 64 6F  0.E..........fdo
0030: 30 01 80 55 00 80 F0 FF  FF 7F F0 FF FF 7F 66 64  0..U..........fd
0040: 6F 30 1B 45 00 80 F0 FF  FF 7F F0 FF FF 7F 66 64  o0.E..........fd
0050: 69 31 01 80 55 00 80 F0  FF FF 7F F0 FF FF 7F 66  i1..U..........f
0060: 64 69 31 1B 45 00 80 F0  FF FF 7F F0 FF FF 7F 66  di1.E..........f
0070: 64 6F 31 01 80 55 00 80  F0 FF FF 7F F0 FF FF 7F  do1..U..........
0080: 66 64 6F 31 1B 45 02 80  F0 FF FF 7F F0 FF FF 7F  fdo1.E..........
0090: 77 68 69 31 01 80 55 02  80 F0 FF FF 7F F0 FF FF  whi1..U.........
00A0: 7F 77 68 69 31 1B 45 02  80 F0 FF FF 7F F0 FF FF  .whi1.E.........
00B0: 7F 77 68 6F 31 01 80 55  02 80 F0 FF FF 7F F0 FF  .who1..U........
00C0: FF 7F 77 68 6F 31 1B 45  02 80 F0 FF FF 7F F0 FF  ..who1.E........
00D0: FF 7F 77 68 6F 32 01 80  55 02 80 F0 FF FF 7F F0  ..who2..U.......
00E0: FF FF 7F 77 68 6F 32 1B  45 02 80 F0 FF FF 7F F0  ...who2.E.......
00F0: FF FF 7F 77 68 6F 33 01  80 55 02 80 F0 FF FF 7F  ...who3..U......
0100: F0 FF FF 7F 77 68 6F 33  1B 62 03 80 F0 FF FF 7F  ....who3.b......
0110: F0 FF FF 7F 6D 61 69 6E  01 80 1C 04 80 45 00 80  ....main.....E..
0120: F0 FF FF 7F F0 FF FF 7F  66 64 6F 31 01 80 55 00  ........fdo1..U.
0130: 80 F0 FF FF 7F F0 FF FF  7F 66 64 6F 31 1B 45 00  .........fdo1.E.
0140: 80 F0 FF FF 7F F0 FF FF  7F 66 64 69 31 01 80 62  .........fdi1..b
0150: 05 80 F0 FF FF 7F F0 FF  FF 7F 6D 61 69 6E 01 80  ..........main..
0160: 1C 06 80 55 00 80 F0 FF  FF 7F F0 FF FF 7F 66 64  ...U..........fd
0170: 69 31 1B 45 00 80 F0 FF  FF 7F F0 FF FF 7F 62 6C  i1.E..........bl
0180: 6F 6E 01 80 45 02 80 F0  FF FF 7F F0 FF FF 7F 62  on..E..........b
0190: 6C 6F 6E 01 80 1B 45 02  80 F0 FF FF 7F F0 FF FF  lon...E.........
01A0: 7F 77 68 69 30 01 80 55  02 80 F0 FF FF 7F F0 FF  .whi0..U........
01B0: FF 7F 77 68 69 30 1B 45  02 80 F0 FF FF 7F F0 FF  ..whi0.E........
01C0: FF 7F 77 68 6F 30 01 80  55 02 80 F0 FF FF 7F F0  ..who0..U.......
01D0: FF FF 7F 77 68 6F 30 1B  45 07 80 F0 FF FF 7F F0  ...who0.E.......
01E0: FF FF 7F 65 66 6F 6E 01  80 55 07 80 F0 FF FF 7F  ...efon..U......
01F0: F0 FF FF 7F 65 66 6F 6E  1B 45 00 80 F0 FF FF 7F  ....efon.E......
0200: F0 FF FF 7F 66 64 69 73  01 80 1B 45 00 80 F0 FF  ....fdis...E....
0210: FF 7F F0 FF FF 7F 66 64  6F 73 01 80 55 00 80 F0  ......fdos..U...
0220: FF FF 7F F0 FF FF 7F 66  64 6F 73 1B 45 00 80 F0  .......fdos.E...
0230: FF FF 7F F0 FF FF 7F 66  64 69 66 01 80 1B 45 00  .......fdif...E.
0240: 80 F0 FF FF 7F F0 FF FF  7F 66 64 6F 66 01 80 55  .........fdof..U
0250: 00 80 F0 FF FF 7F F0 FF  FF 7F 66 64 6F 66 1B 45  ..........fdof.E
0260: 00 80 F0 FF FF 7F F0 FF  FF 7F 66 64 69 70 01 80  ..........fdip..
0270: 1B 45 00 80 F0 FF FF 7F  F0 FF FF 7F 66 64 6F 70  .E..........fdop
0280: 01 80 55 00 80 F0 FF FF  7F F0 FF FF 7F 66 64 6F  ..U..........fdo
0290: 70 1B                                             p.              
```

#### Opcodes

```
  0: 0x0000 [0x00] END_REQSTACK()
```

#### Data or dead code:

```
# Dead code (unreachable instructions):
     0x0001 [0x45] LOAD_SCHEDULED_TASK: Load scheduler "fdi0" with entities [LocalPlayer, LocalPlayer], work=[200*, 0*]
     0x0012 [0x55] WAIT_LOAD_SCHEDULER: Wait for scheduler "fdi0" with entities [LocalPlayer, LocalPlayer], work=200*
     0x0021 [0x1B] RETURN
     0x0022 [0x45] LOAD_SCHEDULED_TASK: Load scheduler "fdo0" with entities [LocalPlayer, LocalPlayer], work=[200*, 0*]
     0x0033 [0x55] WAIT_LOAD_SCHEDULER: Wait for scheduler "fdo0" with entities [LocalPlayer, LocalPlayer], work=200*
     0x0042 [0x1B] RETURN
     0x0043 [0x45] LOAD_SCHEDULED_TASK: Load scheduler "fdi1" with entities [LocalPlayer, LocalPlayer], work=[200*, 0*]
     0x0054 [0x55] WAIT_LOAD_SCHEDULER: Wait for scheduler "fdi1" with entities [LocalPlayer, LocalPlayer], work=200*
     0x0063 [0x1B] RETURN
     0x0064 [0x45] LOAD_SCHEDULED_TASK: Load scheduler "fdo1" with entities [LocalPlayer, LocalPlayer], work=[200*, 0*]
     0x0075 [0x55] WAIT_LOAD_SCHEDULER: Wait for scheduler "fdo1" with entities [LocalPlayer, LocalPlayer], work=200*
     0x0084 [0x1B] RETURN
     0x0085 [0x45] LOAD_SCHEDULED_TASK: Load scheduler "whi1" with entities [LocalPlayer, LocalPlayer], work=[201*, 0*]
     0x0096 [0x55] WAIT_LOAD_SCHEDULER: Wait for scheduler "whi1" with entities [LocalPlayer, LocalPlayer], work=201*
     0x00A5 [0x1B] RETURN
     0x00A6 [0x45] LOAD_SCHEDULED_TASK: Load scheduler "who1" with entities [LocalPlayer, LocalPlayer], work=[201*, 0*]
     0x00B7 [0x55] WAIT_LOAD_SCHEDULER: Wait for scheduler "who1" with entities [LocalPlayer, LocalPlayer], work=201*
     0x00C6 [0x1B] RETURN
     0x00C7 [0x45] LOAD_SCHEDULED_TASK: Load scheduler "who2" with entities [LocalPlayer, LocalPlayer], work=[201*, 0*]
     0x00D8 [0x55] WAIT_LOAD_SCHEDULER: Wait for scheduler "who2" with entities [LocalPlayer, LocalPlayer], work=201*
     0x00E7 [0x1B] RETURN
     0x00E8 [0x45] LOAD_SCHEDULED_TASK: Load scheduler "who3" with entities [LocalPlayer, LocalPlayer], work=[201*, 0*]
     0x00F9 [0x55] WAIT_LOAD_SCHEDULER: Wait for scheduler "who3" with entities [LocalPlayer, LocalPlayer], work=201*
     0x0108 [0x1B] RETURN
     0x0109 [0x62] LOAD_EVENT_SCHEDULER: Load scheduler "main" with entities [LocalPlayer, LocalPlayer], work=[1*, 0*]
     0x011A [0x1C] WAIT(45* ticks)
     0x011D [0x45] LOAD_SCHEDULED_TASK: Load scheduler "fdo1" with entities [LocalPlayer, LocalPlayer], work=[200*, 0*]
     0x012E [0x55] WAIT_LOAD_SCHEDULER: Wait for scheduler "fdo1" with entities [LocalPlayer, LocalPlayer], work=200*
     0x013D [0x1B] RETURN
     0x013E [0x45] LOAD_SCHEDULED_TASK: Load scheduler "fdi1" with entities [LocalPlayer, LocalPlayer], work=[200*, 0*]
     0x014F [0x62] LOAD_EVENT_SCHEDULER: Load scheduler "main" with entities [LocalPlayer, LocalPlayer], work=[2*, 0*]
     0x0160 [0x1C] WAIT(30* ticks)
     0x0163 [0x55] WAIT_LOAD_SCHEDULER: Wait for scheduler "fdi1" with entities [LocalPlayer, LocalPlayer], work=200*
     0x0172 [0x1B] RETURN
     0x0173 [0x45] LOAD_SCHEDULED_TASK: Load scheduler "blon" with entities [LocalPlayer, LocalPlayer], work=[200*, 0*]
     0x0184 [0x45] LOAD_SCHEDULED_TASK: Load scheduler "blon" with entities [LocalPlayer, LocalPlayer], work=[201*, 0*]
     0x0195 [0x1B] RETURN
     0x0196 [0x45] LOAD_SCHEDULED_TASK: Load scheduler "whi0" with entities [LocalPlayer, LocalPlayer], work=[201*, 0*]
     0x01A7 [0x55] WAIT_LOAD_SCHEDULER: Wait for scheduler "whi0" with entities [LocalPlayer, LocalPlayer], work=201*
     0x01B6 [0x1B] RETURN
     0x01B7 [0x45] LOAD_SCHEDULED_TASK: Load scheduler "who0" with entities [LocalPlayer, LocalPlayer], work=[201*, 0*]
     0x01C8 [0x55] WAIT_LOAD_SCHEDULER: Wait for scheduler "who0" with entities [LocalPlayer, LocalPlayer], work=201*
     0x01D7 [0x1B] RETURN
     0x01D8 [0x45] LOAD_SCHEDULED_TASK: Load scheduler "efon" with entities [LocalPlayer, LocalPlayer], work=[215*, 0*]
     0x01E9 [0x55] WAIT_LOAD_SCHEDULER: Wait for scheduler "efon" with entities [LocalPlayer, LocalPlayer], work=215*
     0x01F8 [0x1B] RETURN
     0x01F9 [0x45] LOAD_SCHEDULED_TASK: Load scheduler "fdis" with entities [LocalPlayer, LocalPlayer], work=[200*, 0*]
     0x020A [0x1B] RETURN
     0x020B [0x45] LOAD_SCHEDULED_TASK: Load scheduler "fdos" with entities [LocalPlayer, LocalPlayer], work=[200*, 0*]
     0x021C [0x55] WAIT_LOAD_SCHEDULER: Wait for scheduler "fdos" with entities [LocalPlayer, LocalPlayer], work=200*
     0x022B [0x1B] RETURN
     0x022C [0x45] LOAD_SCHEDULED_TASK: Load scheduler "fdif" with entities [LocalPlayer, LocalPlayer], work=[200*, 0*]
     0x023D [0x1B] RETURN
     0x023E [0x45] LOAD_SCHEDULED_TASK: Load scheduler "fdof" with entities [LocalPlayer, LocalPlayer], work=[200*, 0*]
     0x024F [0x55] WAIT_LOAD_SCHEDULER: Wait for scheduler "fdof" with entities [LocalPlayer, LocalPlayer], work=200*
     0x025E [0x1B] RETURN
     0x025F [0x45] LOAD_SCHEDULED_TASK: Load scheduler "fdip" with entities [LocalPlayer, LocalPlayer], work=[200*, 0*]
     0x0270 [0x1B] RETURN
     0x0271 [0x45] LOAD_SCHEDULED_TASK: Load scheduler "fdop" with entities [LocalPlayer, LocalPlayer], work=[200*, 0*]
     0x0282 [0x55] WAIT_LOAD_SCHEDULER: Wait for scheduler "fdop" with entities [LocalPlayer, LocalPlayer], work=200*
     0x0291 [0x1B] RETURN
```

### Event 110

#### Metadata

| Field        | Value      |
|--------------|------------|
| Entrypoint   | 0x0292     |
| Data Size    | 5085 bytes |
| Instructions | 578        |

```
      00 01 02 03 04 05 06 07  08 09 0A 0B 0C 0D 0E 0F
      -- -- -- -- -- -- -- --  -- -- -- -- -- -- -- --
0290:       42 45 00 80 F0 FF  FF 7F F0 FF FF 7F 66 64    BE..........fd
02A0: 6F 31 01 80 55 00 80 F0  FF FF 7F F0 FF FF 7F 66  o1..U..........f
02B0: 64 6F 31 46 01 38 08 80  2F 00 A0 10 10 01 2F 00  do1F.8../...../.
02C0: A7 10 10 01 4E 00 A7 10  10 01 94 01 A0 10 10 01  ....N...........
02D0: 94 01 A7 10 10 01 BA A7  10 10 01 09 80 0A 80 0B  ................
02E0: 80 01 80 4A A7 10 10 01  8E 10 10 01 4A 8E 10 10  ...J........J...
02F0: 01 A7 10 10 01 4A F0 FF  FF 7F F0 FF FF 7F 7B F0  .....J........{.
0300: FF FF 7F BA F0 FF FF 7F  0C 80 0D 80 0B 80 0E 80  ................
0310: 80 A7 10 10 01 80 F0 FF  FF 7F 27 10 F0 FF FF 7F  ..........'.....
0320: 8D 45 0F 80 F8 FF FF 7F  F8 FF FF 7F 73 30 30 30  .E..........s000
0330: 01 80 45 00 80 F0 FF FF  7F F0 FF FF 7F 66 64 69  ..E..........fdi
0340: 31 01 80 1C 10 80 52 0F  80 F8 FF FF 7F F8 FF FF  1.....R.........
0350: 7F 73 30 30 30 45 0F 80  F8 FF FF 7F F8 FF FF 7F  .s000E..........
0360: 73 30 30 31 01 80 66 11  80 A7 10 10 01 A7 10 10  s001..f.........
0370: 01 74 6C 6B 30 2B A7 10  10 01 12 80 23 2B A7 10  .tlk0+......#+..
0380: 10 01 13 80 1C 14 80 23  66 11 80 A7 10 10 01 A7  .......#f.......
0390: 10 10 01 74 6C 6B 31 66  15 80 8E 10 10 01 8E 10  ...tlk1f........
03A0: 10 01 74 68 6B 31 2B 8E  10 10 01 16 80 1C 14 80  ..thk1+.........
03B0: 23 7C 00 8E 10 10 01 6E  A7 10 10 01 17 80 99 A7  #|.....n........
03C0: 10 10 01 1C 18 80 66 15  80 8E 10 10 01 8E 10 10  ......f.........
03D0: 01 74 68 6B 32 7C 01 8E  10 10 01 52 0F 80 F8 FF  .thk2|.....R....
03E0: FF 7F F8 FF FF 7F 73 30  30 31 45 0F 80 F8 FF FF  ......s001E.....
03F0: 7F F8 FF FF 7F 73 30 30  32 01 80 1C 06 80 66 19  .....s002.....f.
0400: 80 8E 10 10 01 8E 10 10  01 74 6C 62 30 2B 8E 10  .........tlb0+..
0410: 10 01 1A 80 1C 14 80 23  66 19 80 8E 10 10 01 8E  .......#f.......
0420: 10 10 01 74 6C 62 31 45  00 80 F0 FF FF 7F F0 FF  ...tlb1E........
0430: FF 7F 66 64 6F 31 01 80  55 00 80 F0 FF FF 7F F0  ..fdo1..U.......
0440: FF FF 7F 66 64 6F 31 48  1B 80 7B 8E 10 10 01 BA  ...fdo1H..{.....
0450: 8E 10 10 01 1C 80 1D 80  0B 80 1E 80 4E 00 A0 10  ............N...
0460: 10 01 BA A0 10 10 01 1F  80 20 80 0B 80 21 80 80  ......... ...!..
0470: A0 10 10 01 4A A7 10 10  01 A0 10 10 01 4A A0 10  ....J........J..
0480: 10 01 A7 10 10 01 4A F0  FF FF 7F A0 10 10 01 1C  ......J.........
0490: 18 80 27 10 8E 10 10 01  36 27 10 A0 10 10 01 35  ..'.....6'.....5
04A0: 52 0F 80 F8 FF FF 7F F8  FF FF 7F 73 30 30 32 45  R..........s002E
04B0: 0F 80 F8 FF FF 7F F8 FF  FF 7F 73 30 30 33 01 80  ..........s003..
04C0: 45 00 80 F0 FF FF 7F F0  FF FF 7F 66 64 69 31 01  E..........fdi1.
04D0: 80 1C 18 80 2A 10 A0 10  10 01 4A F0 FF FF 7F A0  ....*.....J.....
04E0: 10 10 01 1C 18 80 52 0F  80 F8 FF FF 7F F8 FF FF  ......R.........
04F0: 7F 73 30 30 33 45 0F 80  F8 FF FF 7F F8 FF FF 7F  .s003E..........
0500: 73 30 30 34 01 80 66 22  80 A7 10 10 01 A7 10 10  s004..f"........
0510: 01 74 6C 6B 30 2B A7 10  10 01 23 80 1C 14 80 23  .tlk0+....#....#
0520: 66 22 80 A7 10 10 01 A7  10 10 01 74 6C 6B 31 52  f".........tlk1R
0530: 0F 80 F8 FF FF 7F F8 FF  FF 7F 73 30 30 34 45 0F  ..........s004E.
0540: 80 F8 FF FF 7F F8 FF FF  7F 73 30 30 35 01 80 5B  .........s005..[
0550: 24 80 A0 10 10 01 A0 10  10 01 74 6C 61 30 2B A0  $.........tla0+.
0560: 10 10 01 25 80 1C 14 80  23 5B 24 80 A0 10 10 01  ...%....#[$.....
0570: A0 10 10 01 74 6C 61 31  66 11 80 A7 10 10 01 A7  ....tla1f.......
0580: 10 10 01 74 6C 6B 30 2B  A7 10 10 01 26 80 23 1C  ...tlk0+....&.#.
0590: 04 80 66 11 80 A7 10 10  01 A7 10 10 01 74 6C 6B  ..f..........tlk
05A0: 31 4A A0 10 10 01 F0 FF  FF 7F 52 0F 80 F8 FF FF  1J........R.....
05B0: 7F F8 FF FF 7F 73 30 30  35 02 87 7F 27 80 80 D5  .....s005...'...
05C0: 05 45 0F 80 F8 FF FF 7F  F8 FF FF 7F 73 67 30 36  .E..........sg06
05D0: 01 80 01 3A 06 02 87 7F  28 80 80 F1 05 45 0F 80  ...:....(....E..
05E0: F8 FF FF 7F F8 FF FF 7F  73 74 30 36 01 80 01 3A  ........st06...:
05F0: 06 02 87 7F 29 80 80 0D  06 45 0F 80 F8 FF FF 7F  ....)....E......
0600: F8 FF FF 7F 73 74 30 36  01 80 01 3A 06 02 87 7F  ....st06...:....
0610: 2A 80 80 29 06 45 0F 80  F8 FF FF 7F F8 FF FF 7F  *..).E..........
0620: 73 67 30 36 01 80 01 3A  06 45 0F 80 F8 FF FF 7F  sg06...:.E......
0630: F8 FF FF 7F 73 30 30 36  01 80 6F 76 A0 10 10 01  ....s006..ov....
0640: 7B A0 10 10 01 5B 2B 80  A0 10 10 01 A0 10 10 01  {....[+.........
0650: 74 68 6B 30 2B A0 10 10  01 2C 80 1C 14 80 23 5B  thk0+....,....#[
0660: 2B 80 A0 10 10 01 A0 10  10 01 74 68 6B 31 1C 06  +.........thk1..
0670: 80 52 0F 80 F8 FF FF 7F  F8 FF FF 7F 73 30 30 36  .R..........s006
0680: 52 0F 80 F8 FF FF 7F F8  FF FF 7F 73 67 30 36 52  R..........sg06R
0690: 0F 80 F8 FF FF 7F F8 FF  FF 7F 73 74 30 36 45 0F  ..........st06E.
06A0: 80 F8 FF FF 7F F8 FF FF  7F 73 30 30 37 01 80 1C  .........s007...
06B0: 06 80 5B 2B 80 A0 10 10  01 A0 10 10 01 62 69 6B  ..[+.........bik
06C0: 30 2B A0 10 10 01 2D 80  23 1C 18 80 5B 2B 80 A0  0+....-.#...[+..
06D0: 10 10 01 A0 10 10 01 62  69 6B 31 52 0F 80 F8 FF  .......bik1R....
06E0: FF 7F F8 FF FF 7F 73 30  30 37 45 0F 80 F8 FF FF  ......s007E.....
06F0: 7F F8 FF FF 7F 73 30 30  38 01 80 1C 06 80 4A A0  .....s008.....J.
0700: 10 10 01 A7 10 10 01 6F  76 A0 10 10 01 5B 24 80  .......ov....[$.
0710: A0 10 10 01 A0 10 10 01  74 6C 61 30 2B A0 10 10  ........tla0+...
0720: 01 2E 80 1C 14 80 23 5B  24 80 A0 10 10 01 A0 10  ......#[$.......
0730: 10 01 74 6C 61 31 66 11  80 A7 10 10 01 A7 10 10  ..tla1f.........
0740: 01 74 6C 6B 30 2B A7 10  10 01 2F 80 23 1C 04 80  .tlk0+..../.#...
0750: 66 11 80 A7 10 10 01 A7  10 10 01 74 6C 6B 31 4A  f..........tlk1J
0760: A0 10 10 01 F0 FF FF 7F  52 0F 80 F8 FF FF 7F F8  ........R.......
0770: FF FF 7F 73 30 30 38 02  87 7F 27 80 80 93 07 45  ...s008...'....E
0780: 0F 80 F8 FF FF 7F F8 FF  FF 7F 73 67 30 39 01 80  ..........sg09..
0790: 01 F8 07 02 87 7F 28 80  80 AF 07 45 0F 80 F8 FF  ......(....E....
07A0: FF 7F F8 FF FF 7F 73 74  30 39 01 80 01 F8 07 02  ......st09......
07B0: 87 7F 29 80 80 CB 07 45  0F 80 F8 FF FF 7F F8 FF  ..)....E........
07C0: FF 7F 73 74 30 39 01 80  01 F8 07 02 87 7F 2A 80  ..st09........*.
07D0: 80 E7 07 45 0F 80 F8 FF  FF 7F F8 FF FF 7F 73 67  ...E..........sg
07E0: 30 39 01 80 01 F8 07 45  0F 80 F8 FF FF 7F F8 FF  09.....E........
07F0: FF 7F 73 30 30 39 01 80  6F 76 A0 10 10 01 7B A0  ..s009..ov....{.
0800: 10 10 01 5B 24 80 A0 10  10 01 A0 10 10 01 74 6C  ...[$.........tl
0810: 6B 30 2B A0 10 10 01 30  80 1C 18 80 23 5B 24 80  k0+....0....#[$.
0820: A0 10 10 01 A0 10 10 01  74 6C 6B 31 24 31 80 01  ........tlk1$1..
0830: 80 01 80 25 02 00 10 01  80 00 02 0B 52 0F 80 F8  ...%........R...
0840: FF FF 7F F8 FF FF 7F 73  30 30 39 52 0F 80 F8 FF  .......s009R....
0850: FF 7F F8 FF FF 7F 73 67  30 39 52 0F 80 F8 FF FF  ......sg09R.....
0860: 7F F8 FF FF 7F 73 74 30  39 45 0F 80 F8 FF FF 7F  .....st09E......
0870: F8 FF FF 7F 73 30 31 30  01 80 5B 2B 80 A0 10 10  ....s010..[+....
0880: 01 A0 10 10 01 74 68 6B  30 2B A0 10 10 01 32 80  .....thk0+....2.
0890: 23 1C 33 80 5B 24 80 A0  10 10 01 A0 10 10 01 74  #.3.[$.........t
08A0: 6C 61 30 2B A0 10 10 01  34 80 1C 14 80 23 5B 24  la0+....4....#[$
08B0: 80 A0 10 10 01 A0 10 10  01 74 6C 61 31 52 0F 80  .........tla1R..
08C0: F8 FF FF 7F F8 FF FF 7F  73 30 31 30 02 87 7F 27  ........s010...'
08D0: 80 80 E8 08 45 0F 80 F8  FF FF 7F F8 FF FF 7F 73  ....E..........s
08E0: 67 31 31 01 80 01 4D 09  02 87 7F 28 80 80 04 09  g11...M....(....
08F0: 45 0F 80 F8 FF FF 7F F8  FF FF 7F 73 74 31 31 01  E..........st11.
0900: 80 01 4D 09 02 87 7F 29  80 80 20 09 45 0F 80 F8  ..M....).. .E...
0910: FF FF 7F F8 FF FF 7F 73  74 31 31 01 80 01 4D 09  .......st11...M.
0920: 02 87 7F 2A 80 80 3C 09  45 0F 80 F8 FF FF 7F F8  ...*..<.E.......
0930: FF FF 7F 73 67 31 31 01  80 01 4D 09 45 0F 80 F8  ...sg11...M.E...
0940: FF FF 7F F8 FF FF 7F 73  30 31 31 01 80 6E F0 FF  .......s011..n..
0950: FF 7F 35 80 99 F0 FF FF  7F 1C 14 80 5B 2B 80 A0  ..5.........[+..
0960: 10 10 01 A0 10 10 01 62  69 6B 30 2B A0 10 10 01  .......bik0+....
0970: 36 80 1C 33 80 23 5B 2B  80 A0 10 10 01 A0 10 10  6..3.#[+........
0980: 01 62 69 6B 31 1C 06 80  4A A0 10 10 01 A7 10 10  .bik1...J.......
0990: 01 52 0F 80 F8 FF FF 7F  F8 FF FF 7F 73 30 31 31  .R..........s011
09A0: 52 0F 80 F8 FF FF 7F F8  FF FF 7F 73 67 31 31 52  R..........sg11R
09B0: 0F 80 F8 FF FF 7F F8 FF  FF 7F 73 74 31 31 45 0F  ..........st11E.
09C0: 80 F8 FF FF 7F F8 FF FF  7F 73 30 31 32 01 80 6F  .........s012..o
09D0: 76 A0 10 10 01 5B 24 80  A0 10 10 01 A0 10 10 01  v....[$.........
09E0: 74 6C 61 30 2B A0 10 10  01 37 80 1C 14 80 23 5B  tla0+....7....#[
09F0: 24 80 A0 10 10 01 A0 10  10 01 74 6C 61 31 66 11  $.........tla1f.
0A00: 80 A7 10 10 01 A7 10 10  01 74 6C 6B 30 2B A7 10  .........tlk0+..
0A10: 10 01 38 80 23 1C 04 80  66 11 80 A7 10 10 01 A7  ..8.#...f.......
0A20: 10 10 01 74 6C 6B 31 4A  A0 10 10 01 F0 FF FF 7F  ...tlk1J........
0A30: 7B A0 10 10 01 52 0F 80  F8 FF FF 7F F8 FF FF 7F  {....R..........
0A40: 73 30 31 32 02 87 7F 27  80 80 60 0A 45 0F 80 F8  s012...'..`.E...
0A50: FF FF 7F F8 FF FF 7F 73  67 31 33 01 80 01 C5 0A  .......sg13.....
0A60: 02 87 7F 28 80 80 7C 0A  45 0F 80 F8 FF FF 7F F8  ...(..|.E.......
0A70: FF FF 7F 73 74 31 33 01  80 01 C5 0A 02 87 7F 29  ...st13........)
0A80: 80 80 98 0A 45 0F 80 F8  FF FF 7F F8 FF FF 7F 73  ....E..........s
0A90: 74 31 33 01 80 01 C5 0A  02 87 7F 2A 80 80 B4 0A  t13........*....
0AA0: 45 0F 80 F8 FF FF 7F F8  FF FF 7F 73 67 31 33 01  E..........sg13.
0AB0: 80 01 C5 0A 45 0F 80 F8  FF FF 7F F8 FF FF 7F 73  ....E..........s
0AC0: 30 31 33 01 80 6F 76 A0  10 10 01 5B 24 80 A0 10  013..ov....[$...
0AD0: 10 01 A0 10 10 01 6B 6F  68 30 2B A0 10 10 01 39  ......koh0+....9
0AE0: 80 1C 3A 80 23 5B 2B 80  A0 10 10 01 A0 10 10 01  ..:.#[+.........
0AF0: 74 68 6B 30 2B A0 10 10  01 3B 80 1C 14 80 23 01  thk0+....;....#.
0B00: 6F 0D 02 00 10 03 80 00  2E 0C 52 0F 80 F8 FF FF  o.........R.....
0B10: 7F F8 FF FF 7F 73 30 30  39 52 0F 80 F8 FF FF 7F  .....s009R......
0B20: F8 FF FF 7F 73 67 30 39  52 0F 80 F8 FF FF 7F F8  ....sg09R.......
0B30: FF FF 7F 73 74 30 39 45  0F 80 F8 FF FF 7F F8 FF  ...st09E........
0B40: FF 7F 73 30 31 30 01 80  5B 2B 80 A0 10 10 01 A0  ..s010..[+......
0B50: 10 10 01 74 68 6B 30 2B  A0 10 10 01 3C 80 23 2B  ...thk0+....<.#+
0B60: A0 10 10 01 3D 80 1C 14  80 23 5B 2B 80 A0 10 10  ....=....#[+....
0B70: 01 A0 10 10 01 74 68 6B  31 52 0F 80 F8 FF FF 7F  .....thk1R......
0B80: F8 FF FF 7F 73 30 30 39  02 87 7F 27 80 80 A4 0B  ....s009...'....
0B90: 45 0F 80 F8 FF FF 7F F8  FF FF 7F 73 67 31 33 01  E..........sg13.
0BA0: 80 01 09 0C 02 87 7F 28  80 80 C0 0B 45 0F 80 F8  .......(....E...
0BB0: FF FF 7F F8 FF FF 7F 73  74 31 33 01 80 01 09 0C  .......st13.....
0BC0: 02 87 7F 29 80 80 DC 0B  45 0F 80 F8 FF FF 7F F8  ...)....E.......
0BD0: FF FF 7F 73 74 31 33 01  80 01 09 0C 02 87 7F 2A  ...st13........*
0BE0: 80 80 F8 0B 45 0F 80 F8  FF FF 7F F8 FF FF 7F 73  ....E..........s
0BF0: 67 31 33 01 80 01 09 0C  45 0F 80 F8 FF FF 7F F8  g13.....E.......
0C00: FF FF 7F 73 30 31 33 01  80 2B A0 10 10 01 3E 80  ...s013..+....>.
0C10: 23 5B 24 80 A0 10 10 01  A0 10 10 01 74 6C 6B 30  #[$.........tlk0
0C20: 2B A0 10 10 01 3F 80 1C  14 80 23 01 6F 0D 02 00  +....?....#.o...
0C30: 10 05 80 00 6F 0D 52 0F  80 F8 FF FF 7F F8 FF FF  ....o.R.........
0C40: 7F 73 30 30 39 52 0F 80  F8 FF FF 7F F8 FF FF 7F  .s009R..........
0C50: 73 67 30 39 52 0F 80 F8  FF FF 7F F8 FF FF 7F 73  sg09R..........s
0C60: 74 30 39 45 0F 80 F8 FF  FF 7F F8 FF FF 7F 73 30  t09E..........s0
0C70: 31 30 01 80 5B 2B 80 A0  10 10 01 A0 10 10 01 74  10..[+.........t
0C80: 68 6B 30 2B A0 10 10 01  40 80 1C 14 80 23 5B 2B  hk0+....@....#[+
0C90: 80 A0 10 10 01 A0 10 10  01 74 68 6B 31 2B A0 10  .........thk1+..
0CA0: 10 01 41 80 23 1C 18 80  52 0F 80 F8 FF FF 7F F8  ..A.#...R.......
0CB0: FF FF 7F 73 30 30 39 02  87 7F 27 80 80 D3 0C 45  ...s009...'....E
0CC0: 0F 80 F8 FF FF 7F F8 FF  FF 7F 73 67 31 33 01 80  ..........sg13..
0CD0: 01 38 0D 02 87 7F 28 80  80 EF 0C 45 0F 80 F8 FF  .8....(....E....
0CE0: FF 7F F8 FF FF 7F 73 74  31 33 01 80 01 38 0D 02  ......st13...8..
0CF0: 87 7F 29 80 80 0B 0D 45  0F 80 F8 FF FF 7F F8 FF  ..)....E........
0D00: FF 7F 73 74 31 33 01 80  01 38 0D 02 87 7F 2A 80  ..st13...8....*.
0D10: 80 27 0D 45 0F 80 F8 FF  FF 7F F8 FF FF 7F 73 67  .'.E..........sg
0D20: 31 33 01 80 01 38 0D 45  0F 80 F8 FF FF 7F F8 FF  13...8.E........
0D30: FF 7F 73 30 31 33 01 80  5B 24 80 A0 10 10 01 A0  ..s013..[$......
0D40: 10 10 01 74 6C 61 30 2B  A0 10 10 01 42 80 23 1C  ...tla0+....B.#.
0D50: 18 80 5B 24 80 A0 10 10  01 A0 10 10 01 74 6C 6B  ..[$.........tlk
0D60: 30 2B A0 10 10 01 43 80  1C 14 80 23 01 6F 0D 45  0+....C....#.o.E
0D70: 00 80 F0 FF FF 7F F0 FF  FF 7F 66 64 6F 31 01 80  ..........fdo1..
0D80: 55 00 80 F0 FF FF 7F F0  FF FF 7F 66 64 6F 31 48  U..........fdo1H
0D90: 1B 80 38 44 80 34 45 80  77 46 80 01 80 1C 03 80  ..8D.4E.wF......
0DA0: 5C 00 47 80 5C 01 47 80  9A 2C B1 10 10 01 B1 10  \.G.\.G..,......
0DB0: 10 01 6F 70 65 6E 2F 00  90 10 10 01 2F 00 A1 10  ..open/...../...
0DC0: 10 01 2F 00 AC 10 10 01  4E 00 90 10 10 01 4E 00  ../.....N.....N.
0DD0: A1 10 10 01 4E 00 AC 10  10 01 94 01 90 10 10 01  ....N...........
0DE0: 94 01 A1 10 10 01 94 01  AC 10 10 01 BA 90 10 10  ................
0DF0: 01 48 80 49 80 4A 80 4B  80 BA A1 10 10 01 4C 80  .H.I.J.K......L.
0E00: 4D 80 4A 80 4E 80 59 05  AC 10 10 01 01 81 00 AC  M.J.N.Y.........
0E10: 10 10 01 BA AC 10 10 01  4F 80 50 80 4A 80 51 80  ........O.P.J.Q.
0E20: 6B 69 64 6C 30 A0 10 10  01 80 90 10 10 01 80 AC  kidl0...........
0E30: 10 10 01 4A 90 10 10 01  AC 10 10 01 5B 52 80 AC  ...J........[R..
0E40: 10 10 01 AC 10 10 01 63  68 69 31 27 10 90 10 10  .......chi1'....
0E50: 01 40 1C 18 80 52 0F 80  F8 FF FF 7F F8 FF FF 7F  .@...R..........
0E60: 73 30 31 33 52 0F 80 F8  FF FF 7F F8 FF FF 7F 73  s013R..........s
0E70: 67 31 33 52 0F 80 F8 FF  FF 7F F8 FF FF 7F 73 74  g13R..........st
0E80: 31 33 45 0F 80 F8 FF FF  7F F8 FF FF 7F 73 30 31  13E..........s01
0E90: 34 01 80 45 07 80 F0 FF  FF 7F F0 FF FF 7F 65 66  4..E..........ef
0EA0: 6F 6E 01 80 55 07 80 F0  FF FF 7F F0 FF FF 7F 65  on..U..........e
0EB0: 66 6F 6E 2B 90 10 10 01  53 80 23 1C 14 80 52 0F  fon+....S.#...R.
0EC0: 80 F8 FF FF 7F F8 FF FF  7F 73 30 31 34 45 0F 80  .........s014E..
0ED0: F8 FF FF 7F F8 FF FF 7F  73 30 31 35 01 80 2A 10  ........s015..*.
0EE0: 90 10 10 01 27 10 A1 10  10 01 2D 5B 54 80 90 10  ....'.....-[T...
0EF0: 10 01 90 10 10 01 74 6C  6B 30 2B 90 10 10 01 55  ......tlk0+....U
0F00: 80 1C 14 80 23 5B 54 80  90 10 10 01 90 10 10 01  ....#[T.........
0F10: 74 6C 6B 31 2B AC 10 10  01 56 80 23 1C 3A 80 5B  tlk1+....V.#.:.[
0F20: 57 80 90 10 10 01 90 10  10 01 74 6B 74 30 2B 90  W.........tkt0+.
0F30: 10 10 01 58 80 1C 14 80  23 7C 00 90 10 10 01 52  ...X....#|.....R
0F40: 0F 80 F8 FF FF 7F F8 FF  FF 7F 73 30 31 35 45 0F  ..........s015E.
0F50: 80 F8 FF FF 7F F8 FF FF  7F 73 30 31 36 01 80 1C  .........s016...
0F60: 59 80 52 0F 80 F8 FF FF  7F F8 FF FF 7F 73 30 31  Y.R..........s01
0F70: 36 45 0F 80 F8 FF FF 7F  F8 FF FF 7F 73 30 31 37  6E..........s017
0F80: 01 80 5C 00 5A 80 5C 01  5A 80 9A 9F 5B 80 F8 FF  ..\.Z.\.Z...[...
0F90: FF 7F F8 FF FF 7F 73 74  72 30 01 80 CD 17 80 F8  ......str0......
0FA0: FF FF 7F F8 FF FF 7F 73  30 30 34 01 80 5B 5C 80  .......s004..[\.
0FB0: 90 10 10 01 90 10 10 01  66 61 30 31 5B 5D 80 90  ........fa01[]..
0FC0: 10 10 01 90 10 10 01 69  6B 61 30 7C 01 90 10 10  .......ika0|....
0FD0: 01 2B 90 10 10 01 5E 80  1C 5F 80 23 5B 5D 80 90  .+....^.._.#[]..
0FE0: 10 10 01 90 10 10 01 69  6B 61 31 5B 5C 80 90 10  .......ika1[\...
0FF0: 10 01 90 10 10 01 66 61  30 30 CD 17 80 F8 FF FF  ......fa00......
1000: 7F F8 FF FF 7F 6B 69 6C  34 01 80 9F 5B 80 F8 FF  .....kil4...[...
1010: FF 7F F8 FF FF 7F 6B 69  6C 6C 01 80 52 0F 80 F8  ......kill..R...
1020: FF FF 7F F8 FF FF 7F 73  30 31 37 45 0F 80 F8 FF  .......s017E....
1030: FF 7F F8 FF FF 7F 73 30  31 38 01 80 5C 00 01 80  ......s018..\...
1040: 5C 01 01 80 9A BA A0 10  10 01 60 80 61 80 4A 80  \.........`.a.J.
1050: 21 80 27 10 A0 10 10 01  36 5B 5C 80 90 10 10 01  !.'.....6[\.....
1060: 90 10 10 01 66 6B 30 31  2B 90 10 10 01 62 80 23  ....fk01+....b.#
1070: 1C 18 80 5B 5C 80 90 10  10 01 90 10 10 01 66 6B  ...[\.........fk
1080: 30 30 2A 10 A0 10 10 01  5B 24 80 A0 10 10 01 A0  00*.....[$......
1090: 10 10 01 74 6C 62 30 2B  A0 10 10 01 63 80 1C 14  ...tlb0+....c...
10A0: 80 23 5B 24 80 A0 10 10  01 A0 10 10 01 73 74 64  .#[$.........std
10B0: 31 52 0F 80 F8 FF FF 7F  F8 FF FF 7F 73 30 31 38  1R..........s018
10C0: 45 0F 80 F8 FF FF 7F F8  FF FF 7F 73 30 31 39 01  E..........s019.
10D0: 80 5B 5C 80 90 10 10 01  90 10 10 01 66 6B 30 31  .[\.........fk01
10E0: 2B 90 10 10 01 64 80 1C  18 80 23 5B 5C 80 90 10  +....d....#[\...
10F0: 10 01 90 10 10 01 66 6B  30 30 5B 2B 80 A0 10 10  ......fk00[+....
1100: 01 A0 10 10 01 74 68 6B  30 2B A0 10 10 01 65 80  .....thk0+....e.
1110: 23 1C 14 80 45 00 80 F0  FF FF 7F F0 FF FF 7F 66  #...E..........f
1120: 64 6F 31 01 80 55 00 80  F0 FF FF 7F F0 FF FF 7F  do1..U..........
1130: 66 64 6F 31 48 1B 80 59  05 AC 10 10 01 00 81 01  fdo1H..Y........
1140: AC 10 10 01 5B 5C 80 90  10 10 01 90 10 10 01 66  ....[\.........f
1150: 30 30 30 D3 00 90 10 10  01 6B 69 64 6C 30 A0 10  000......kidl0..
1160: 10 01 2F 01 90 10 10 01  4E 01 90 10 10 01 4E 01  ../.....N.....N.
1170: AC 10 10 01 BA A0 10 10  01 66 80 20 80 0B 80 21  .........f. ...!
1180: 80 4A A0 10 10 01 F0 FF  FF 7F 7B A0 10 10 01 35  .J........{....5
1190: 67 80 78 1C 68 80 5C 00  69 80 5C 01 69 80 9A AB  g.x.h.\.i.\.i...
11A0: 0A 1C 18 80 52 0F 80 F8  FF FF 7F F8 FF FF 7F 73  ....R..........s
11B0: 30 31 39 02 87 7F 27 80  80 CF 11 45 0F 80 F8 FF  019...'....E....
11C0: FF 7F F8 FF FF 7F 73 67  32 30 01 80 01 34 12 02  ......sg20...4..
11D0: 87 7F 28 80 80 EB 11 45  0F 80 F8 FF FF 7F F8 FF  ..(....E........
11E0: FF 7F 73 74 32 30 01 80  01 34 12 02 87 7F 29 80  ..st20...4....).
11F0: 80 07 12 45 0F 80 F8 FF  FF 7F F8 FF FF 7F 73 74  ...E..........st
1200: 32 30 01 80 01 34 12 02  87 7F 2A 80 80 23 12 45  20...4....*..#.E
1210: 0F 80 F8 FF FF 7F F8 FF  FF 7F 73 67 32 30 01 80  ..........sg20..
1220: 01 34 12 45 0F 80 F8 FF  FF 7F F8 FF FF 7F 73 30  .4.E..........s0
1230: 32 30 01 80 45 00 80 F0  FF FF 7F F0 FF FF 7F 66  20..E..........f
1240: 64 69 31 01 80 5B 24 80  A0 10 10 01 A0 10 10 01  di1..[$.........
1250: 74 6C 61 30 2B A0 10 10  01 6A 80 23 1C 18 80 5B  tla0+....j.#...[
1260: 6B 80 A0 10 10 01 A0 10  10 01 74 6C 6B 30 2B A0  k.........tlk0+.
1270: 10 10 01 6C 80 23 2B A0  10 10 01 6D 80 1C 33 80  ...l.#+....m..3.
1280: 23 52 0F 80 F8 FF FF 7F  F8 FF FF 7F 73 30 32 30  #R..........s020
1290: 52 0F 80 F8 FF FF 7F F8  FF FF 7F 73 67 32 30 52  R..........sg20R
12A0: 0F 80 F8 FF FF 7F F8 FF  FF 7F 73 74 32 30 45 0F  ..........st20E.
12B0: 80 F8 FF FF 7F F8 FF FF  7F 73 30 32 31 01 80 5B  .........s021..[
12C0: 2B 80 A0 10 10 01 A0 10  10 01 6E 6F 6E 30 2B A0  +.........non0+.
12D0: 10 10 01 6E 80 23 1C 04  80 52 0F 80 F8 FF FF 7F  ...n.#...R......
12E0: F8 FF FF 7F 73 30 32 31  45 0F 80 F8 FF FF 7F F8  ....s021E.......
12F0: FF FF 7F 73 61 32 31 01  80 5B 24 80 A0 10 10 01  ...sa21..[$.....
1300: A0 10 10 01 74 6C 61 30  2B A0 10 10 01 6F 80 23  ....tla0+....o.#
1310: 1C 04 80 52 0F 80 F8 FF  FF 7F F8 FF FF 7F 73 61  ...R..........sa
1320: 32 31 45 0F 80 F8 FF FF  7F F8 FF FF 7F 73 62 32  21E..........sb2
1330: 31 01 80 5B 24 80 A0 10  10 01 A0 10 10 01 74 6C  1..[$.........tl
1340: 61 30 2B A0 10 10 01 70  80 23 1C 04 80 5B 2B 80  a0+....p.#...[+.
1350: A0 10 10 01 A0 10 10 01  6B 6F 68 30 1C 04 80 52  ........koh0...R
1360: 0F 80 F8 FF FF 7F F8 FF  FF 7F 73 62 32 31 45 0F  ..........sb21E.
1370: 80 F8 FF FF 7F F8 FF FF  7F 73 30 32 32 01 80 2B  .........s022..+
1380: A0 10 10 01 71 80 1C 14  80 23 52 0F 80 F8 FF FF  ....q....#R.....
1390: 7F F8 FF FF 7F 73 30 32  32 02 87 7F 27 80 80 B5  .....s022...'...
13A0: 13 45 0F 80 F8 FF FF 7F  F8 FF FF 7F 73 67 32 33  .E..........sg23
13B0: 01 80 01 1A 14 02 87 7F  28 80 80 D1 13 45 0F 80  ........(....E..
13C0: F8 FF FF 7F F8 FF FF 7F  73 74 32 33 01 80 01 1A  ........st23....
13D0: 14 02 87 7F 29 80 80 ED  13 45 0F 80 F8 FF FF 7F  ....)....E......
13E0: F8 FF FF 7F 73 74 32 33  01 80 01 1A 14 02 87 7F  ....st23........
13F0: 2A 80 80 09 14 45 0F 80  F8 FF FF 7F F8 FF FF 7F  *....E..........
1400: 73 67 32 33 01 80 01 1A  14 45 0F 80 F8 FF FF 7F  sg23.....E......
1410: F8 FF FF 7F 73 30 32 33  01 80 5B 6B 80 A0 10 10  ....s023..[k....
1420: 01 A0 10 10 01 74 6C 6B  30 2B A0 10 10 01 72 80  .....tlk0+....r.
1430: 1C 73 80 23 5B 6B 80 A0  10 10 01 A0 10 10 01 74  .s.#[k.........t
1440: 6C 6B 31 52 0F 80 F8 FF  FF 7F F8 FF FF 7F 73 30  lk1R..........s0
1450: 32 33 52 0F 80 F8 FF FF  7F F8 FF FF 7F 73 67 32  23R..........sg2
1460: 33 52 0F 80 F8 FF FF 7F  F8 FF FF 7F 73 74 32 33  3R..........st23
1470: 45 0F 80 F8 FF FF 7F F8  FF FF 7F 73 30 32 34 01  E..........s024.
1480: 80 2B A0 10 10 01 74 80  23 5B 75 80 A0 10 10 01  .+....t.#[u.....
1490: A0 10 10 01 74 68 61 30  2B A0 10 10 01 76 80 1C  ....tha0+....v..
14A0: 14 80 23 52 0F 80 F8 FF  FF 7F F8 FF FF 7F 73 30  ..#R..........s0
14B0: 32 34 02 87 7F 27 80 80  CE 14 45 0F 80 F8 FF FF  24...'....E.....
14C0: 7F F8 FF FF 7F 73 67 32  35 01 80 01 33 15 02 87  .....sg25...3...
14D0: 7F 28 80 80 EA 14 45 0F  80 F8 FF FF 7F F8 FF FF  .(....E.........
14E0: 7F 73 74 32 35 01 80 01  33 15 02 87 7F 29 80 80  .st25...3....)..
14F0: 06 15 45 0F 80 F8 FF FF  7F F8 FF FF 7F 73 74 32  ..E..........st2
1500: 35 01 80 01 33 15 02 87  7F 2A 80 80 22 15 45 0F  5...3....*..".E.
1510: 80 F8 FF FF 7F F8 FF FF  7F 73 67 32 35 01 80 01  .........sg25...
1520: 33 15 45 0F 80 F8 FF FF  7F F8 FF FF 7F 73 30 32  3.E..........s02
1530: 35 01 80 1C 06 80 27 10  A0 10 10 01 37 6E F0 FF  5.....'.....7n..
1540: FF 7F 77 80 99 F0 FF FF  7F 1C 59 80 52 0F 80 F8  ..w.......Y.R...
1550: FF FF 7F F8 FF FF 7F 73  30 32 35 52 0F 80 F8 FF  .......s025R....
1560: FF 7F F8 FF FF 7F 73 67  32 35 52 0F 80 F8 FF FF  ......sg25R.....
1570: 7F F8 FF FF 7F 73 74 32  35 45 0F 80 F8 FF FF 7F  .....st25E......
1580: F8 FF FF 7F 73 30 32 36  01 80 2B A0 10 10 01 78  ....s026..+....x
1590: 80 1C 14 80 23 52 0F 80  F8 FF FF 7F F8 FF FF 7F  ....#R..........
15A0: 73 30 32 36 45 0F 80 F8  FF FF 7F F8 FF FF 7F 73  s026E..........s
15B0: 30 32 37 01 80 5B 24 80  A0 10 10 01 A0 10 10 01  027..[$.........
15C0: 74 6C 6B 31 2B A0 10 10  01 79 80 23 66 11 80 A7  tlk1+....y.#f...
15D0: 10 10 01 A7 10 10 01 74  6C 6B 30 2B A7 10 10 01  .......tlk0+....
15E0: 7A 80 23 7B A0 10 10 01  27 10 A0 10 10 01 38 1C  z.#{....'.....8.
15F0: 06 80 7B F0 FF FF 7F 27  10 F0 FF FF 7F 8E 1C 18  ..{....'........
1600: 80 66 15 80 8E 10 10 01  8E 10 10 01 74 68 6B 31  .f..........thk1
1610: 1C 3A 80 45 00 80 F0 FF  FF 7F F0 FF FF 7F 66 64  .:.E..........fd
1620: 6F 31 01 80 55 00 80 F0  FF FF 7F F0 FF FF 7F 66  o1..U..........f
1630: 64 6F 31 52 0F 80 F8 FF  FF 7F F8 FF FF 7F 73 30  do1R..........s0
1640: 32 37 27 10 A7 10 10 01  26 27 10 A7 10 10 01 27  27'.....&'.....'
1650: 1C 68 80 AB 11 01 80 1C  03 80 46 00 45 00 80 F0  .h........F.E...
1660: FF FF 7F F0 FF FF 7F 66  64 69 32 01 80 21 00     .......fdi2..!. 
```

#### Opcodes

```
  0: 0x0292 [0x42] SET_CLI_EVENT_CANCEL_DATA()
  1: 0x0293 [0x45] LOAD_SCHEDULED_TASK: Load scheduler "fdo1" with entities [LocalPlayer, LocalPlayer], work=[200*, 0*]
  2: 0x02A4 [0x55] WAIT_LOAD_SCHEDULER: Wait for scheduler "fdo1" with entities [LocalPlayer, LocalPlayer], work=200*
  3: 0x02B3 [0x46] CAMERA_CONTROL: Disable user control
  4: 0x02B5 [0x38] SET_CLIENT_EVENT_MODE(mode=19*)
  5: 0x02B8 [0x2F] Unnamed NPC (ID: 17830048/0x011010A0)->Render.Flags0 &= ~0x80000 // Bit 19
  6: 0x02BE [0x2F] Unnamed NPC (ID: 17830055/0x011010A7)->Render.Flags0 &= ~0x80000 // Bit 19
  7: 0x02C4 [0x4E] SET_ENTITY_HIDE_FLAG: Show Unnamed NPC (ID: 17830055/0x011010A7)
  8: 0x02CA [0x94] Unnamed NPC (ID: 17830048/0x011010A0)->Render.Flags3 ^= 0x01
  9: 0x02D0 [0x94] Unnamed NPC (ID: 17830055/0x011010A7)->Render.Flags3 ^= 0x01
 10: 0x02D6 [0xBA] SET_ENTITY_POSITION(entity_id=Unnamed NPC (ID: 17830055/0x011010A7), pos_x=97.600*, pos_z=-63.800*, pos_y=-40.150*, direction=0.0*)
 11: 0x02E3 [0x4A] Unnamed NPC (ID: 17830055/0x011010A7) looks at Ploh Trishbahk (ID: 17830030/0x0110108E)
 12: 0x02EC [0x4A] Ploh Trishbahk (ID: 17830030/0x0110108E) looks at Unnamed NPC (ID: 17830055/0x011010A7)
 13: 0x02F5 [0x4A] LocalPlayer looks at LocalPlayer
 14: 0x02FE [0x7B] LocalPlayer stops talking
 15: 0x0303 [0xBA] SET_ENTITY_POSITION(entity_id=LocalPlayer, pos_x=96.180*, pos_z=-73.210*, pos_y=-40.150*, direction=281.2*)
 16: 0x0310 [0x80] LOAD_WAIT(entity=Unnamed NPC (ID: 17830055/0x011010A7))
 17: 0x0315 [0x80] LOAD_WAIT(entity=LocalPlayer)
 18: 0x031A [0x27] REQ_SET(priority=0x10, entity_id=LocalPlayer, tag_num=0x8D)
 19: 0x0321 [0x45] LOAD_SCHEDULED_TASK: Load scheduler "s000" with entities [EventEntity, EventEntity], work=[785*, 0*]
 20: 0x0332 [0x45] LOAD_SCHEDULED_TASK: Load scheduler "fdi1" with entities [LocalPlayer, LocalPlayer], work=[200*, 0*]
 21: 0x0343 [0x1C] WAIT(270* ticks)
 22: 0x0346 [0x52] END_LOAD_SCHEDULER: End scheduler "s000" with entities [EventEntity, EventEntity], work=785*
 23: 0x0355 [0x45] LOAD_SCHEDULED_TASK: Load scheduler "s001" with entities [EventEntity, EventEntity], work=[785*, 0*]
 24: 0x0366 [0x66] LOAD_EXT_SCHEDULER_MAIN: Load scheduler "tlk0" with entities [Unnamed NPC (ID: 17830055/0x011010A7), Unnamed NPC (ID: 17830055/0x011010A7)], work=209*
 25: 0x0375 [0x2B] Unnamed NPC (ID: 17830055/0x011010A7) [11674*]:
     "The battle for peace and love is never ending--and I, Eternal Flame, Attache of Amour, dutifully stand at the front lines!"
 26: 0x037C [0x23] WAIT_FOR_DIALOG_INTERACTION
 27: 0x037D [0x2B] Unnamed NPC (ID: 17830055/0x011010A7) [11675*]:
     "I come bearing a gift requested by dearest Fremilla. Could I trouble you to call for her?"
 28: 0x0384 [0x1C] WAIT(120* ticks)
 29: 0x0387 [0x23] WAIT_FOR_DIALOG_INTERACTION
 30: 0x0388 [0x66] LOAD_EXT_SCHEDULER_MAIN: Load scheduler "tlk1" with entities [Unnamed NPC (ID: 17830055/0x011010A7), Unnamed NPC (ID: 17830055/0x011010A7)], work=209*
 31: 0x0397 [0x66] LOAD_EXT_SCHEDULER_MAIN: Load scheduler "thk1" with entities [Ploh Trishbahk (ID: 17830030/0x0110108E), Ploh Trishbahk (ID: 17830030/0x0110108E)], work=50*
 32: 0x03A6 [0x2B] Ploh Trishbahk (ID: 17830030/0x0110108E) [11676*]:
     "Uh...Attache of Amourrr...?"
 33: 0x03AD [0x1C] WAIT(120* ticks)
 34: 0x03B0 [0x23] WAIT_FOR_DIALOG_INTERACTION
 35: 0x03B1 [0x7C] Ploh Trishbahk (ID: 17830030/0x0110108E)->Render.Flags2 |= 0x00
 36: 0x03B7 [0x6E] Unnamed NPC (ID: 17830055/0x011010A7) uses emote 7*
 37: 0x03BE [0x99] Wait for Unnamed NPC (ID: 17830055/0x011010A7) animation to complete
 38: 0x03C3 [0x1C] WAIT(60* ticks)
 39: 0x03C6 [0x66] LOAD_EXT_SCHEDULER_MAIN: Load scheduler "thk2" with entities [Ploh Trishbahk (ID: 17830030/0x0110108E), Ploh Trishbahk (ID: 17830030/0x0110108E)], work=50*
 40: 0x03D5 [0x7C] Ploh Trishbahk (ID: 17830030/0x0110108E)->Render.Flags2 |= 0x01
 41: 0x03DB [0x52] END_LOAD_SCHEDULER: End scheduler "s001" with entities [EventEntity, EventEntity], work=785*
 42: 0x03EA [0x45] LOAD_SCHEDULED_TASK: Load scheduler "s002" with entities [EventEntity, EventEntity], work=[785*, 0*]
 43: 0x03FB [0x1C] WAIT(30* ticks)
 44: 0x03FE [0x66] LOAD_EXT_SCHEDULER_MAIN: Load scheduler "tlb0" with entities [Ploh Trishbahk (ID: 17830030/0x0110108E), Ploh Trishbahk (ID: 17830030/0x0110108E)], work=68*
 45: 0x040D [0x2B] Ploh Trishbahk (ID: 17830030/0x0110108E) [11677*]:
     "Ah yes, the man from the Adventurers' Mutual Aid Network. Of course. One moment, please."
 46: 0x0414 [0x1C] WAIT(120* ticks)
 47: 0x0417 [0x23] WAIT_FOR_DIALOG_INTERACTION
 48: 0x0418 [0x66] LOAD_EXT_SCHEDULER_MAIN: Load scheduler "tlb1" with entities [Ploh Trishbahk (ID: 17830030/0x0110108E), Ploh Trishbahk (ID: 17830030/0x0110108E)], work=68*
 49: 0x0427 [0x45] LOAD_SCHEDULED_TASK: Load scheduler "fdo1" with entities [LocalPlayer, LocalPlayer], work=[200*, 0*]
 50: 0x0438 [0x55] WAIT_LOAD_SCHEDULER: Wait for scheduler "fdo1" with entities [LocalPlayer, LocalPlayer], work=200*
 51: 0x0447 [0x48] [System] [8289*]:
     "@@"
 52: 0x044A [0x7B] Ploh Trishbahk (ID: 17830030/0x0110108E) stops talking
 53: 0x044F [0xBA] SET_ENTITY_POSITION(entity_id=Ploh Trishbahk (ID: 17830030/0x0110108E), pos_x=100.250*, pos_z=-62.700*, pos_y=-40.150*, direction=377476129.3*)
 54: 0x045C [0x4E] SET_ENTITY_HIDE_FLAG: Show Unnamed NPC (ID: 17830048/0x011010A0)
 55: 0x0462 [0xBA] SET_ENTITY_POSITION(entity_id=Unnamed NPC (ID: 17830048/0x011010A0), pos_x=104.300*, pos_z=-63.830*, pos_y=-40.150*, direction=179.9*)
 56: 0x046F [0x80] LOAD_WAIT(entity=Unnamed NPC (ID: 17830048/0x011010A0))
 57: 0x0474 [0x4A] Unnamed NPC (ID: 17830055/0x011010A7) looks at Unnamed NPC (ID: 17830048/0x011010A0)
 58: 0x047D [0x4A] Unnamed NPC (ID: 17830048/0x011010A0) looks at Unnamed NPC (ID: 17830055/0x011010A7)
 59: 0x0486 [0x4A] LocalPlayer looks at Unnamed NPC (ID: 17830048/0x011010A0)
 60: 0x048F [0x1C] WAIT(60* ticks)
 61: 0x0492 [0x27] REQ_SET(priority=0x10, entity_id=Ploh Trishbahk (ID: 17830030/0x0110108E), tag_num=0x36)
 62: 0x0499 [0x27] REQ_SET(priority=0x10, entity_id=Unnamed NPC (ID: 17830048/0x011010A0), tag_num=0x35)
 63: 0x04A0 [0x52] END_LOAD_SCHEDULER: End scheduler "s002" with entities [EventEntity, EventEntity], work=785*
 64: 0x04AF [0x45] LOAD_SCHEDULED_TASK: Load scheduler "s003" with entities [EventEntity, EventEntity], work=[785*, 0*]
 65: 0x04C0 [0x45] LOAD_SCHEDULED_TASK: Load scheduler "fdi1" with entities [LocalPlayer, LocalPlayer], work=[200*, 0*]
 66: 0x04D1 [0x1C] WAIT(60* ticks)
 67: 0x04D4 [0x2A] GET_REQ_LEVEL(level=16, entity_id=Unnamed NPC (ID: 17830048/0x011010A0))
 68: 0x04DA [0x4A] LocalPlayer looks at Unnamed NPC (ID: 17830048/0x011010A0)
 69: 0x04E3 [0x1C] WAIT(60* ticks)
 70: 0x04E6 [0x52] END_LOAD_SCHEDULER: End scheduler "s003" with entities [EventEntity, EventEntity], work=785*
 71: 0x04F5 [0x45] LOAD_SCHEDULED_TASK: Load scheduler "s004" with entities [EventEntity, EventEntity], work=[785*, 0*]
 72: 0x0506 [0x66] LOAD_EXT_SCHEDULER_MAIN: Load scheduler "tlk0" with entities [Unnamed NPC (ID: 17830055/0x011010A7), Unnamed NPC (ID: 17830055/0x011010A7)], work=69*
 73: 0x0515 [0x2B] Unnamed NPC (ID: 17830055/0x011010A7) [11678*]:
     "Ah, lovely Fremilla. I have brought "it" as you requested, together with a huge helping of love."
 74: 0x051C [0x1C] WAIT(120* ticks)
 75: 0x051F [0x23] WAIT_FOR_DIALOG_INTERACTION
 76: 0x0520 [0x66] LOAD_EXT_SCHEDULER_MAIN: Load scheduler "tlk1" with entities [Unnamed NPC (ID: 17830055/0x011010A7), Unnamed NPC (ID: 17830055/0x011010A7)], work=69*
 77: 0x052F [0x52] END_LOAD_SCHEDULER: End scheduler "s004" with entities [EventEntity, EventEntity], work=785*
 78: 0x053E [0x45] LOAD_SCHEDULED_TASK: Load scheduler "s005" with entities [EventEntity, EventEntity], work=[785*, 0*]
 79: 0x054F [0x5B] LOAD_EXT_SCHEDULER: Load scheduler "tla0" with entities [Unnamed NPC (ID: 17830048/0x011010A0), Unnamed NPC (ID: 17830048/0x011010A0)], work=3281*
 80: 0x055E [0x2B] Unnamed NPC (ID: 17830048/0x011010A0) [11679*]:
     "Oh, Eternal Flame! There is so much I--no, all of Adoulin--can learn from you!"
 81: 0x0565 [0x1C] WAIT(120* ticks)
 82: 0x0568 [0x23] WAIT_FOR_DIALOG_INTERACTION
 83: 0x0569 [0x5B] LOAD_EXT_SCHEDULER: Load scheduler "tla1" with entities [Unnamed NPC (ID: 17830048/0x011010A0), Unnamed NPC (ID: 17830048/0x011010A0)], work=3281*
 84: 0x0578 [0x66] LOAD_EXT_SCHEDULER_MAIN: Load scheduler "tlk0" with entities [Unnamed NPC (ID: 17830055/0x011010A7), Unnamed NPC (ID: 17830055/0x011010A7)], work=209*
 85: 0x0587 [0x2B] Unnamed NPC (ID: 17830055/0x011010A7) [11680*]:
     "Speak not a word more, for the Attache of Love..."
 86: 0x058E [0x23] WAIT_FOR_DIALOG_INTERACTION
 87: 0x058F [0x1C] WAIT(45* ticks)
 88: 0x0592 [0x66] LOAD_EXT_SCHEDULER_MAIN: Load scheduler "tlk1" with entities [Unnamed NPC (ID: 17830055/0x011010A7), Unnamed NPC (ID: 17830055/0x011010A7)], work=209*
 89: 0x05A1 [0x4A] Unnamed NPC (ID: 17830048/0x011010A0) looks at LocalPlayer
 90: 0x05AA [0x52] END_LOAD_SCHEDULER: End scheduler "s005" with entities [EventEntity, EventEntity], work=785*
 91: 0x05B9 [0x02] IF !(LocalPlayer->Race == 3*) GOTO 0x05D5
 92: 0x05C1 [0x45] LOAD_SCHEDULED_TASK: Load scheduler "sg06" with entities [EventEntity, EventEntity], work=[785*, 0*]
 93: 0x05D2 [0x01] GOTO 0x063A
 94: 0x05D5 [0x02] IF !(LocalPlayer->Race == 5*) GOTO 0x05F1
 95: 0x05DD [0x45] LOAD_SCHEDULED_TASK: Load scheduler "st06" with entities [EventEntity, EventEntity], work=[785*, 0*]
 96: 0x05EE [0x01] GOTO 0x063A
 97: 0x05F1 [0x02] IF !(LocalPlayer->Race == 6*) GOTO 0x060D
 98: 0x05F9 [0x45] LOAD_SCHEDULED_TASK: Load scheduler "st06" with entities [EventEntity, EventEntity], work=[785*, 0*]
 99: 0x060A [0x01] GOTO 0x063A
100: 0x060D [0x02] IF !(LocalPlayer->Race == 8*) GOTO 0x0629
101: 0x0615 [0x45] LOAD_SCHEDULED_TASK: Load scheduler "sg06" with entities [EventEntity, EventEntity], work=[785*, 0*]
102: 0x0626 [0x01] GOTO 0x063A
103: 0x0629 [0x45] LOAD_SCHEDULED_TASK: Load scheduler "s006" with entities [EventEntity, EventEntity], work=[785*, 0*]

SUBROUTINE_063A:
104: 0x063A [0x6F] WAIT_FRAME_DELAY: Yield until WaitTime reaches zero
105: 0x063B [0x76] CHECK_ENTITY_RENDER_FLAGS: Wait until Unnamed NPC (ID: 17830048/0x011010A0) Render.Flags0 and Render.Flags3 conditions are met
106: 0x0640 [0x7B] Unnamed NPC (ID: 17830048/0x011010A0) stops talking
107: 0x0645 [0x5B] LOAD_EXT_SCHEDULER: Load scheduler "thk0" with entities [Unnamed NPC (ID: 17830048/0x011010A0), Unnamed NPC (ID: 17830048/0x011010A0)], work=3282*
108: 0x0654 [0x2B] Unnamed NPC (ID: 17830048/0x011010A0) [11681*]:
     "Oh, heavens me! <Player> is here too!"
109: 0x065B [0x1C] WAIT(120* ticks)
110: 0x065E [0x23] WAIT_FOR_DIALOG_INTERACTION
111: 0x065F [0x5B] LOAD_EXT_SCHEDULER: Load scheduler "thk1" with entities [Unnamed NPC (ID: 17830048/0x011010A0), Unnamed NPC (ID: 17830048/0x011010A0)], work=3282*
112: 0x066E [0x1C] WAIT(30* ticks)
113: 0x0671 [0x52] END_LOAD_SCHEDULER: End scheduler "s006" with entities [EventEntity, EventEntity], work=785*
114: 0x0680 [0x52] END_LOAD_SCHEDULER: End scheduler "sg06" with entities [EventEntity, EventEntity], work=785*
115: 0x068F [0x52] END_LOAD_SCHEDULER: End scheduler "st06" with entities [EventEntity, EventEntity], work=785*
116: 0x069E [0x45] LOAD_SCHEDULED_TASK: Load scheduler "s007" with entities [EventEntity, EventEntity], work=[785*, 0*]
117: 0x06AF [0x1C] WAIT(30* ticks)
118: 0x06B2 [0x5B] LOAD_EXT_SCHEDULER: Load scheduler "bik0" with entities [Unnamed NPC (ID: 17830048/0x011010A0), Unnamed NPC (ID: 17830048/0x011010A0)], work=3282*
119: 0x06C1 [0x2B] Unnamed NPC (ID: 17830048/0x011010A0) [11682*]:
     "I think I get it! Eternal Flame, when you mentioned love, you must have meant..."
120: 0x06C8 [0x23] WAIT_FOR_DIALOG_INTERACTION
121: 0x06C9 [0x1C] WAIT(60* ticks)
122: 0x06CC [0x5B] LOAD_EXT_SCHEDULER: Load scheduler "bik1" with entities [Unnamed NPC (ID: 17830048/0x011010A0), Unnamed NPC (ID: 17830048/0x011010A0)], work=3282*
123: 0x06DB [0x52] END_LOAD_SCHEDULER: End scheduler "s007" with entities [EventEntity, EventEntity], work=785*
124: 0x06EA [0x45] LOAD_SCHEDULED_TASK: Load scheduler "s008" with entities [EventEntity, EventEntity], work=[785*, 0*]
125: 0x06FB [0x1C] WAIT(30* ticks)
126: 0x06FE [0x4A] Unnamed NPC (ID: 17830048/0x011010A0) looks at Unnamed NPC (ID: 17830055/0x011010A7)
127: 0x0707 [0x6F] WAIT_FRAME_DELAY: Yield until WaitTime reaches zero
128: 0x0708 [0x76] CHECK_ENTITY_RENDER_FLAGS: Wait until Unnamed NPC (ID: 17830048/0x011010A0) Render.Flags0 and Render.Flags3 conditions are met
129: 0x070D [0x5B] LOAD_EXT_SCHEDULER: Load scheduler "tla0" with entities [Unnamed NPC (ID: 17830048/0x011010A0), Unnamed NPC (ID: 17830048/0x011010A0)], work=3281*
130: 0x071C [0x2B] Unnamed NPC (ID: 17830048/0x011010A0) [11683*]:
     "...That you have already secured <Player>'s cooperation! My, my, you do think of everything!"
131: 0x0723 [0x1C] WAIT(120* ticks)
132: 0x0726 [0x23] WAIT_FOR_DIALOG_INTERACTION
133: 0x0727 [0x5B] LOAD_EXT_SCHEDULER: Load scheduler "tla1" with entities [Unnamed NPC (ID: 17830048/0x011010A0), Unnamed NPC (ID: 17830048/0x011010A0)], work=3281*
134: 0x0736 [0x66] LOAD_EXT_SCHEDULER_MAIN: Load scheduler "tlk0" with entities [Unnamed NPC (ID: 17830055/0x011010A7), Unnamed NPC (ID: 17830055/0x011010A7)], work=209*
135: 0x0745 [0x2B] Unnamed NPC (ID: 17830055/0x011010A7) [11684*]:
     "N-no, it's nothing like that. Just we live in dark times without love, m'lady, and..."
136: 0x074C [0x23] WAIT_FOR_DIALOG_INTERACTION
137: 0x074D [0x1C] WAIT(45* ticks)
138: 0x0750 [0x66] LOAD_EXT_SCHEDULER_MAIN: Load scheduler "tlk1" with entities [Unnamed NPC (ID: 17830055/0x011010A7), Unnamed NPC (ID: 17830055/0x011010A7)], work=209*
139: 0x075F [0x4A] Unnamed NPC (ID: 17830048/0x011010A0) looks at LocalPlayer
140: 0x0768 [0x52] END_LOAD_SCHEDULER: End scheduler "s008" with entities [EventEntity, EventEntity], work=785*
141: 0x0777 [0x02] IF !(LocalPlayer->Race == 3*) GOTO 0x0793
142: 0x077F [0x45] LOAD_SCHEDULED_TASK: Load scheduler "sg09" with entities [EventEntity, EventEntity], work=[785*, 0*]
143: 0x0790 [0x01] GOTO 0x07F8
144: 0x0793 [0x02] IF !(LocalPlayer->Race == 5*) GOTO 0x07AF
145: 0x079B [0x45] LOAD_SCHEDULED_TASK: Load scheduler "st09" with entities [EventEntity, EventEntity], work=[785*, 0*]
146: 0x07AC [0x01] GOTO 0x07F8
147: 0x07AF [0x02] IF !(LocalPlayer->Race == 6*) GOTO 0x07CB
148: 0x07B7 [0x45] LOAD_SCHEDULED_TASK: Load scheduler "st09" with entities [EventEntity, EventEntity], work=[785*, 0*]
149: 0x07C8 [0x01] GOTO 0x07F8
150: 0x07CB [0x02] IF !(LocalPlayer->Race == 8*) GOTO 0x07E7
151: 0x07D3 [0x45] LOAD_SCHEDULED_TASK: Load scheduler "sg09" with entities [EventEntity, EventEntity], work=[785*, 0*]
152: 0x07E4 [0x01] GOTO 0x07F8
153: 0x07E7 [0x45] LOAD_SCHEDULED_TASK: Load scheduler "s009" with entities [EventEntity, EventEntity], work=[785*, 0*]

SUBROUTINE_07F8:
154: 0x07F8 [0x6F] WAIT_FRAME_DELAY: Yield until WaitTime reaches zero
155: 0x07F9 [0x76] CHECK_ENTITY_RENDER_FLAGS: Wait until Unnamed NPC (ID: 17830048/0x011010A0) Render.Flags0 and Render.Flags3 conditions are met
156: 0x07FE [0x7B] Unnamed NPC (ID: 17830048/0x011010A0) stops talking
157: 0x0803 [0x5B] LOAD_EXT_SCHEDULER: Load scheduler "tlk0" with entities [Unnamed NPC (ID: 17830048/0x011010A0), Unnamed NPC (ID: 17830048/0x011010A0)], work=3281*
158: 0x0812 [0x2B] Unnamed NPC (ID: 17830048/0x011010A0) [11685*]:
     "Thanks in advance, <Player>!"
159: 0x0819 [0x1C] WAIT(60* ticks)
160: 0x081C [0x23] WAIT_FOR_DIALOG_INTERACTION
161: 0x081D [0x5B] LOAD_EXT_SCHEDULER: Load scheduler "tlk1" with entities [Unnamed NPC (ID: 17830048/0x011010A0), Unnamed NPC (ID: 17830048/0x011010A0)], work=3281*
162: 0x082C [0x24] CREATE_DIALOG(message_id=11686*, default_option=0*, option_flags=0*)
     "How do you respond? [Thanks for what?/How is Arciela?/How are you?]"
163: 0x0833 [0x25] WAIT_DIALOG_SELECT()
164: 0x0834 [0x02] IF !(Work_Zone[0] == 0*) GOTO 0x0B02
165: 0x083C [0x52] END_LOAD_SCHEDULER: End scheduler "s009" with entities [EventEntity, EventEntity], work=785*
166: 0x084B [0x52] END_LOAD_SCHEDULER: End scheduler "sg09" with entities [EventEntity, EventEntity], work=785*
167: 0x085A [0x52] END_LOAD_SCHEDULER: End scheduler "st09" with entities [EventEntity, EventEntity], work=785*
168: 0x0869 [0x45] LOAD_SCHEDULED_TASK: Load scheduler "s010" with entities [EventEntity, EventEntity], work=[785*, 0*]
169: 0x087A [0x5B] LOAD_EXT_SCHEDULER: Load scheduler "thk0" with entities [Unnamed NPC (ID: 17830048/0x011010A0), Unnamed NPC (ID: 17830048/0x011010A0)], work=3282*
170: 0x0889 [0x2B] Unnamed NPC (ID: 17830048/0x011010A0) [11687*]:
     "For what? Why, it's the, uh...what do you call it? Records of Eminence...?"
171: 0x0890 [0x23] WAIT_FOR_DIALOG_INTERACTION
172: 0x0891 [0x1C] WAIT(90* ticks)
173: 0x0894 [0x5B] LOAD_EXT_SCHEDULER: Load scheduler "tla0" with entities [Unnamed NPC (ID: 17830048/0x011010A0), Unnamed NPC (ID: 17830048/0x011010A0)], work=3281*
174: 0x08A3 [0x2B] Unnamed NPC (ID: 17830048/0x011010A0) [11688*]:
     "Objective! That's the word! Our Eternal Flame friend surely filled you in."
175: 0x08AA [0x1C] WAIT(120* ticks)
176: 0x08AD [0x23] WAIT_FOR_DIALOG_INTERACTION
177: 0x08AE [0x5B] LOAD_EXT_SCHEDULER: Load scheduler "tla1" with entities [Unnamed NPC (ID: 17830048/0x011010A0), Unnamed NPC (ID: 17830048/0x011010A0)], work=3281*
178: 0x08BD [0x52] END_LOAD_SCHEDULER: End scheduler "s010" with entities [EventEntity, EventEntity], work=785*
179: 0x08CC [0x02] IF !(LocalPlayer->Race == 3*) GOTO 0x08E8
180: 0x08D4 [0x45] LOAD_SCHEDULED_TASK: Load scheduler "sg11" with entities [EventEntity, EventEntity], work=[785*, 0*]
181: 0x08E5 [0x01] GOTO 0x094D
182: 0x08E8 [0x02] IF !(LocalPlayer->Race == 5*) GOTO 0x0904
183: 0x08F0 [0x45] LOAD_SCHEDULED_TASK: Load scheduler "st11" with entities [EventEntity, EventEntity], work=[785*, 0*]
184: 0x0901 [0x01] GOTO 0x094D
185: 0x0904 [0x02] IF !(LocalPlayer->Race == 6*) GOTO 0x0920
186: 0x090C [0x45] LOAD_SCHEDULED_TASK: Load scheduler "st11" with entities [EventEntity, EventEntity], work=[785*, 0*]
187: 0x091D [0x01] GOTO 0x094D
188: 0x0920 [0x02] IF !(LocalPlayer->Race == 8*) GOTO 0x093C
189: 0x0928 [0x45] LOAD_SCHEDULED_TASK: Load scheduler "sg11" with entities [EventEntity, EventEntity], work=[785*, 0*]
190: 0x0939 [0x01] GOTO 0x094D
191: 0x093C [0x45] LOAD_SCHEDULED_TASK: Load scheduler "s011" with entities [EventEntity, EventEntity], work=[785*, 0*]

SUBROUTINE_094D:
192: 0x094D [0x6E] LocalPlayer uses emote 22*
193: 0x0954 [0x99] Wait for LocalPlayer animation to complete
194: 0x0959 [0x1C] WAIT(120* ticks)
195: 0x095C [0x5B] LOAD_EXT_SCHEDULER: Load scheduler "bik0" with entities [Unnamed NPC (ID: 17830048/0x011010A0), Unnamed NPC (ID: 17830048/0x011010A0)], work=3282*
196: 0x096B [0x2B] Unnamed NPC (ID: 17830048/0x011010A0) [11689*]:
     "He hasn't?"
197: 0x0972 [0x1C] WAIT(90* ticks)
198: 0x0975 [0x23] WAIT_FOR_DIALOG_INTERACTION
199: 0x0976 [0x5B] LOAD_EXT_SCHEDULER: Load scheduler "bik1" with entities [Unnamed NPC (ID: 17830048/0x011010A0), Unnamed NPC (ID: 17830048/0x011010A0)], work=3282*
200: 0x0985 [0x1C] WAIT(30* ticks)
201: 0x0988 [0x4A] Unnamed NPC (ID: 17830048/0x011010A0) looks at Unnamed NPC (ID: 17830055/0x011010A7)
202: 0x0991 [0x52] END_LOAD_SCHEDULER: End scheduler "s011" with entities [EventEntity, EventEntity], work=785*
203: 0x09A0 [0x52] END_LOAD_SCHEDULER: End scheduler "sg11" with entities [EventEntity, EventEntity], work=785*
204: 0x09AF [0x52] END_LOAD_SCHEDULER: End scheduler "st11" with entities [EventEntity, EventEntity], work=785*
205: 0x09BE [0x45] LOAD_SCHEDULED_TASK: Load scheduler "s012" with entities [EventEntity, EventEntity], work=[785*, 0*]
206: 0x09CF [0x6F] WAIT_FRAME_DELAY: Yield until WaitTime reaches zero
207: 0x09D0 [0x76] CHECK_ENTITY_RENDER_FLAGS: Wait until Unnamed NPC (ID: 17830048/0x011010A0) Render.Flags0 and Render.Flags3 conditions are met
208: 0x09D5 [0x5B] LOAD_EXT_SCHEDULER: Load scheduler "tla0" with entities [Unnamed NPC (ID: 17830048/0x011010A0), Unnamed NPC (ID: 17830048/0x011010A0)], work=3281*
209: 0x09E4 [0x2B] Unnamed NPC (ID: 17830048/0x011010A0) [11690*]:
     "Eternal Flame, that's rather derelict of you!"
210: 0x09EB [0x1C] WAIT(120* ticks)
211: 0x09EE [0x23] WAIT_FOR_DIALOG_INTERACTION
212: 0x09EF [0x5B] LOAD_EXT_SCHEDULER: Load scheduler "tla1" with entities [Unnamed NPC (ID: 17830048/0x011010A0), Unnamed NPC (ID: 17830048/0x011010A0)], work=3281*
213: 0x09FE [0x66] LOAD_EXT_SCHEDULER_MAIN: Load scheduler "tlk0" with entities [Unnamed NPC (ID: 17830055/0x011010A7), Unnamed NPC (ID: 17830055/0x011010A7)], work=209*
214: 0x0A0D [0x2B] Unnamed NPC (ID: 17830055/0x011010A7) [11691*]:
     "No, what I was trying to say is... We live in an age where people yearn for peace, so..."
215: 0x0A14 [0x23] WAIT_FOR_DIALOG_INTERACTION
216: 0x0A15 [0x1C] WAIT(45* ticks)
217: 0x0A18 [0x66] LOAD_EXT_SCHEDULER_MAIN: Load scheduler "tlk1" with entities [Unnamed NPC (ID: 17830055/0x011010A7), Unnamed NPC (ID: 17830055/0x011010A7)], work=209*
218: 0x0A27 [0x4A] Unnamed NPC (ID: 17830048/0x011010A0) looks at LocalPlayer
219: 0x0A30 [0x7B] Unnamed NPC (ID: 17830048/0x011010A0) stops talking
220: 0x0A35 [0x52] END_LOAD_SCHEDULER: End scheduler "s012" with entities [EventEntity, EventEntity], work=785*
221: 0x0A44 [0x02] IF !(LocalPlayer->Race == 3*) GOTO 0x0A60
222: 0x0A4C [0x45] LOAD_SCHEDULED_TASK: Load scheduler "sg13" with entities [EventEntity, EventEntity], work=[785*, 0*]
223: 0x0A5D [0x01] GOTO 0x0AC5
224: 0x0A60 [0x02] IF !(LocalPlayer->Race == 5*) GOTO 0x0A7C
225: 0x0A68 [0x45] LOAD_SCHEDULED_TASK: Load scheduler "st13" with entities [EventEntity, EventEntity], work=[785*, 0*]
226: 0x0A79 [0x01] GOTO 0x0AC5
227: 0x0A7C [0x02] IF !(LocalPlayer->Race == 6*) GOTO 0x0A98
228: 0x0A84 [0x45] LOAD_SCHEDULED_TASK: Load scheduler "st13" with entities [EventEntity, EventEntity], work=[785*, 0*]
229: 0x0A95 [0x01] GOTO 0x0AC5
230: 0x0A98 [0x02] IF !(LocalPlayer->Race == 8*) GOTO 0x0AB4
231: 0x0AA0 [0x45] LOAD_SCHEDULED_TASK: Load scheduler "sg13" with entities [EventEntity, EventEntity], work=[785*, 0*]
232: 0x0AB1 [0x01] GOTO 0x0AC5
233: 0x0AB4 [0x45] LOAD_SCHEDULED_TASK: Load scheduler "s013" with entities [EventEntity, EventEntity], work=[785*, 0*]

SUBROUTINE_0AC5:
234: 0x0AC5 [0x6F] WAIT_FRAME_DELAY: Yield until WaitTime reaches zero
235: 0x0AC6 [0x76] CHECK_ENTITY_RENDER_FLAGS: Wait until Unnamed NPC (ID: 17830048/0x011010A0) Render.Flags0 and Render.Flags3 conditions are met
236: 0x0ACB [0x5B] LOAD_EXT_SCHEDULER: Load scheduler "koh0" with entities [Unnamed NPC (ID: 17830048/0x011010A0), Unnamed NPC (ID: 17830048/0x011010A0)], work=3281*
237: 0x0ADA [0x2B] Unnamed NPC (ID: 17830048/0x011010A0) [11692*]:
     "Then it falls to the lovely Fremilla to set the wanderer back on [his/her] proper course."
238: 0x0AE1 [0x1C] WAIT(180* ticks)
239: 0x0AE4 [0x23] WAIT_FOR_DIALOG_INTERACTION
240: 0x0AE5 [0x5B] LOAD_EXT_SCHEDULER: Load scheduler "thk0" with entities [Unnamed NPC (ID: 17830048/0x011010A0), Unnamed NPC (ID: 17830048/0x011010A0)], work=3282*
241: 0x0AF4 [0x2B] Unnamed NPC (ID: 17830048/0x011010A0) [11693*]:
     "You see, it all started when..."
242: 0x0AFB [0x1C] WAIT(120* ticks)
243: 0x0AFE [0x23] WAIT_FOR_DIALOG_INTERACTION
244: 0x0AFF [0x01] GOTO 0x0D6F
245: 0x0B02 [0x02] IF !(Work_Zone[0] == 1*) GOTO 0x0C2E
246: 0x0B0A [0x52] END_LOAD_SCHEDULER: End scheduler "s009" with entities [EventEntity, EventEntity], work=785*
247: 0x0B19 [0x52] END_LOAD_SCHEDULER: End scheduler "sg09" with entities [EventEntity, EventEntity], work=785*
248: 0x0B28 [0x52] END_LOAD_SCHEDULER: End scheduler "st09" with entities [EventEntity, EventEntity], work=785*
249: 0x0B37 [0x45] LOAD_SCHEDULED_TASK: Load scheduler "s010" with entities [EventEntity, EventEntity], work=[785*, 0*]
250: 0x0B48 [0x5B] LOAD_EXT_SCHEDULER: Load scheduler "thk0" with entities [Unnamed NPC (ID: 17830048/0x011010A0), Unnamed NPC (ID: 17830048/0x011010A0)], work=3282*
251: 0x0B57 [0x2B] Unnamed NPC (ID: 17830048/0x011010A0) [11694*]:
     "The princess?"
252: 0x0B5E [0x23] WAIT_FOR_DIALOG_INTERACTION
253: 0x0B5F [0x2B] Unnamed NPC (ID: 17830048/0x011010A0) [11695*]:
     "Well, she hasn't been sitting on her keister in the throne room, that's for sure!"
254: 0x0B66 [0x1C] WAIT(120* ticks)
255: 0x0B69 [0x23] WAIT_FOR_DIALOG_INTERACTION
256: 0x0B6A [0x5B] LOAD_EXT_SCHEDULER: Load scheduler "thk1" with entities [Unnamed NPC (ID: 17830048/0x011010A0), Unnamed NPC (ID: 17830048/0x011010A0)], work=3282*
257: 0x0B79 [0x52] END_LOAD_SCHEDULER: End scheduler "s009" with entities [EventEntity, EventEntity], work=785*
258: 0x0B88 [0x02] IF !(LocalPlayer->Race == 3*) GOTO 0x0BA4
259: 0x0B90 [0x45] LOAD_SCHEDULED_TASK: Load scheduler "sg13" with entities [EventEntity, EventEntity], work=[785*, 0*]
260: 0x0BA1 [0x01] GOTO 0x0C09
261: 0x0BA4 [0x02] IF !(LocalPlayer->Race == 5*) GOTO 0x0BC0
262: 0x0BAC [0x45] LOAD_SCHEDULED_TASK: Load scheduler "st13" with entities [EventEntity, EventEntity], work=[785*, 0*]
263: 0x0BBD [0x01] GOTO 0x0C09
264: 0x0BC0 [0x02] IF !(LocalPlayer->Race == 6*) GOTO 0x0BDC
265: 0x0BC8 [0x45] LOAD_SCHEDULED_TASK: Load scheduler "st13" with entities [EventEntity, EventEntity], work=[785*, 0*]
266: 0x0BD9 [0x01] GOTO 0x0C09
267: 0x0BDC [0x02] IF !(LocalPlayer->Race == 8*) GOTO 0x0BF8
268: 0x0BE4 [0x45] LOAD_SCHEDULED_TASK: Load scheduler "sg13" with entities [EventEntity, EventEntity], work=[785*, 0*]
269: 0x0BF5 [0x01] GOTO 0x0C09
270: 0x0BF8 [0x45] LOAD_SCHEDULED_TASK: Load scheduler "s013" with entities [EventEntity, EventEntity], work=[785*, 0*]

SUBROUTINE_0C09:
271: 0x0C09 [0x2B] Unnamed NPC (ID: 17830048/0x011010A0) [11696*]:
     "It's all Svenja this, pioneering that...a lesser woman would have doubtless turned to some horrible vice by now!"
272: 0x0C10 [0x23] WAIT_FOR_DIALOG_INTERACTION
273: 0x0C11 [0x5B] LOAD_EXT_SCHEDULER: Load scheduler "tlk0" with entities [Unnamed NPC (ID: 17830048/0x011010A0), Unnamed NPC (ID: 17830048/0x011010A0)], work=3281*
274: 0x0C20 [0x2B] Unnamed NPC (ID: 17830048/0x011010A0) [11697*]:
     "But back to the situation at hand. It all started when..."
275: 0x0C27 [0x1C] WAIT(120* ticks)
276: 0x0C2A [0x23] WAIT_FOR_DIALOG_INTERACTION
277: 0x0C2B [0x01] GOTO 0x0D6F
278: 0x0C2E [0x02] IF !(Work_Zone[0] == 2*) GOTO 0x0D6F
279: 0x0C36 [0x52] END_LOAD_SCHEDULER: End scheduler "s009" with entities [EventEntity, EventEntity], work=785*
280: 0x0C45 [0x52] END_LOAD_SCHEDULER: End scheduler "sg09" with entities [EventEntity, EventEntity], work=785*
281: 0x0C54 [0x52] END_LOAD_SCHEDULER: End scheduler "st09" with entities [EventEntity, EventEntity], work=785*
282: 0x0C63 [0x45] LOAD_SCHEDULED_TASK: Load scheduler "s010" with entities [EventEntity, EventEntity], work=[785*, 0*]
283: 0x0C74 [0x5B] LOAD_EXT_SCHEDULER: Load scheduler "thk0" with entities [Unnamed NPC (ID: 17830048/0x011010A0), Unnamed NPC (ID: 17830048/0x011010A0)], work=3282*
284: 0x0C83 [0x2B] Unnamed NPC (ID: 17830048/0x011010A0) [11698*]:
     "M-me?"
285: 0x0C8A [0x1C] WAIT(120* ticks)
286: 0x0C8D [0x23] WAIT_FOR_DIALOG_INTERACTION
287: 0x0C8E [0x5B] LOAD_EXT_SCHEDULER: Load scheduler "thk1" with entities [Unnamed NPC (ID: 17830048/0x011010A0), Unnamed NPC (ID: 17830048/0x011010A0)], work=3282*
288: 0x0C9D [0x2B] Unnamed NPC (ID: 17830048/0x011010A0) [11699*]:
     "Let's just say that I've gone through my third pair of shoes this month!"
289: 0x0CA4 [0x23] WAIT_FOR_DIALOG_INTERACTION
290: 0x0CA5 [0x1C] WAIT(60* ticks)
291: 0x0CA8 [0x52] END_LOAD_SCHEDULER: End scheduler "s009" with entities [EventEntity, EventEntity], work=785*
292: 0x0CB7 [0x02] IF !(LocalPlayer->Race == 3*) GOTO 0x0CD3
293: 0x0CBF [0x45] LOAD_SCHEDULED_TASK: Load scheduler "sg13" with entities [EventEntity, EventEntity], work=[785*, 0*]
294: 0x0CD0 [0x01] GOTO 0x0D38
295: 0x0CD3 [0x02] IF !(LocalPlayer->Race == 5*) GOTO 0x0CEF
296: 0x0CDB [0x45] LOAD_SCHEDULED_TASK: Load scheduler "st13" with entities [EventEntity, EventEntity], work=[785*, 0*]
297: 0x0CEC [0x01] GOTO 0x0D38
298: 0x0CEF [0x02] IF !(LocalPlayer->Race == 6*) GOTO 0x0D0B
299: 0x0CF7 [0x45] LOAD_SCHEDULED_TASK: Load scheduler "st13" with entities [EventEntity, EventEntity], work=[785*, 0*]
300: 0x0D08 [0x01] GOTO 0x0D38
301: 0x0D0B [0x02] IF !(LocalPlayer->Race == 8*) GOTO 0x0D27
302: 0x0D13 [0x45] LOAD_SCHEDULED_TASK: Load scheduler "sg13" with entities [EventEntity, EventEntity], work=[785*, 0*]
303: 0x0D24 [0x01] GOTO 0x0D38
304: 0x0D27 [0x45] LOAD_SCHEDULED_TASK: Load scheduler "s013" with entities [EventEntity, EventEntity], work=[785*, 0*]

SUBROUTINE_0D38:
305: 0x0D38 [0x5B] LOAD_EXT_SCHEDULER: Load scheduler "tla0" with entities [Unnamed NPC (ID: 17830048/0x011010A0), Unnamed NPC (ID: 17830048/0x011010A0)], work=3281*
306: 0x0D47 [0x2B] Unnamed NPC (ID: 17830048/0x011010A0) [11700*]:
     "Of course, if we're talking about footwear, then the princess would do best to hire her own personal cobbler."
307: 0x0D4E [0x23] WAIT_FOR_DIALOG_INTERACTION
308: 0x0D4F [0x1C] WAIT(60* ticks)
309: 0x0D52 [0x5B] LOAD_EXT_SCHEDULER: Load scheduler "tlk0" with entities [Unnamed NPC (ID: 17830048/0x011010A0), Unnamed NPC (ID: 17830048/0x011010A0)], work=3281*
310: 0x0D61 [0x2B] Unnamed NPC (ID: 17830048/0x011010A0) [11701*]:
     "But back to the situation at hand. It all started when..."
311: 0x0D68 [0x1C] WAIT(120* ticks)
312: 0x0D6B [0x23] WAIT_FOR_DIALOG_INTERACTION
313: 0x0D6C [0x01] GOTO 0x0D6F

SUBROUTINE_0D6F:
314: 0x0D6F [0x45] LOAD_SCHEDULED_TASK: Load scheduler "fdo1" with entities [LocalPlayer, LocalPlayer], work=[200*, 0*]
315: 0x0D80 [0x55] WAIT_LOAD_SCHEDULER: Wait for scheduler "fdo1" with entities [LocalPlayer, LocalPlayer], work=200*
316: 0x0D8F [0x48] [System] [8289*]:
     "@@"
317: 0x0D92 [0x38] SET_CLIENT_EVENT_MODE(mode=147*)
318: 0x0D95 [0x34] LOAD_UNLOAD_ZONE(zone_id=584*)
319: 0x0D98 [0x77] SET_EVENT_TIME_WEATHER(hour=255*, weather=0*)
320: 0x0D9D [0x1C] WAIT(1* ticks)
321: 0x0DA0 [0x5C] MUSIC_CONTROL: Set Idle (Day) music to song 163*
322: 0x0DA4 [0x5C] MUSIC_CONTROL: Set Idle (Night) music to song 163*
323: 0x0DA8 [0x9A] WAIT_MUSIC_SERVER()
324: 0x0DA9 [0x2C] CREATE_SCHEDULER_TASK: Create scheduler "open" with entities [Door: (ID: 17830065/0x011010B1), Door: (ID: 17830065/0x011010B1)]
325: 0x0DB6 [0x2F] Arciela (ID: 17830032/0x01101090)->Render.Flags0 &= ~0x80000 // Bit 19
326: 0x0DBC [0x2F] Unnamed NPC (ID: 17830049/0x011010A1)->Render.Flags0 &= ~0x80000 // Bit 19
327: 0x0DC2 [0x2F] Unnamed NPC (ID: 17830060/0x011010AC)->Render.Flags0 &= ~0x80000 // Bit 19
328: 0x0DC8 [0x4E] SET_ENTITY_HIDE_FLAG: Show Arciela (ID: 17830032/0x01101090)
329: 0x0DCE [0x4E] SET_ENTITY_HIDE_FLAG: Show Unnamed NPC (ID: 17830049/0x011010A1)
330: 0x0DD4 [0x4E] SET_ENTITY_HIDE_FLAG: Show Unnamed NPC (ID: 17830060/0x011010AC)
331: 0x0DDA [0x94] Arciela (ID: 17830032/0x01101090)->Render.Flags3 ^= 0x01
332: 0x0DE0 [0x94] Unnamed NPC (ID: 17830049/0x011010A1)->Render.Flags3 ^= 0x01
333: 0x0DE6 [0x94] Unnamed NPC (ID: 17830060/0x011010AC)->Render.Flags3 ^= 0x01
334: 0x0DEC [0xBA] SET_ENTITY_POSITION(entity_id=Arciela (ID: 17830032/0x01101090), pos_x=-56.000*, pos_z=-11.840*, pos_y=-0.500*, direction=254.3*)
335: 0x0DF9 [0xBA] SET_ENTITY_POSITION(entity_id=Unnamed NPC (ID: 17830049/0x011010A1), pos_x=-54.000*, pos_z=-16.500*, pos_y=-0.500*, direction=272.0*)
336: 0x0E06 [0x59] UPDATE_ENTITY_DATA: Unnamed NPC (ID: 17830060/0x011010AC)->Render.Flags0 |= 0x200000
337: 0x0E0D [0x81] SET_ENTITY_BLINKING(blink_flag=0x00, entity=Unnamed NPC (ID: 17830060/0x011010AC))
338: 0x0E13 [0xBA] SET_ENTITY_POSITION(entity_id=Unnamed NPC (ID: 17830060/0x011010AC), pos_x=-58.200*, pos_z=-6.390*, pos_y=-0.500*, direction=298.2*)
339: 0x0E20 [0x6B] STOP_AND_IDLE: Unnamed NPC (ID: 17830048/0x011010A0) stops current action and resets to idle (animation="idl0")
340: 0x0E29 [0x80] LOAD_WAIT(entity=Arciela (ID: 17830032/0x01101090))
341: 0x0E2E [0x80] LOAD_WAIT(entity=Unnamed NPC (ID: 17830060/0x011010AC))
342: 0x0E33 [0x4A] Arciela (ID: 17830032/0x01101090) looks at Unnamed NPC (ID: 17830060/0x011010AC)
343: 0x0E3C [0x5B] LOAD_EXT_SCHEDULER: Load scheduler "chi1" with entities [Unnamed NPC (ID: 17830060/0x011010AC), Unnamed NPC (ID: 17830060/0x011010AC)], work=3990*
344: 0x0E4B [0x27] REQ_SET(priority=0x10, entity_id=Arciela (ID: 17830032/0x01101090), tag_num=0x40)
345: 0x0E52 [0x1C] WAIT(60* ticks)
346: 0x0E55 [0x52] END_LOAD_SCHEDULER: End scheduler "s013" with entities [EventEntity, EventEntity], work=785*
347: 0x0E64 [0x52] END_LOAD_SCHEDULER: End scheduler "sg13" with entities [EventEntity, EventEntity], work=785*
348: 0x0E73 [0x52] END_LOAD_SCHEDULER: End scheduler "st13" with entities [EventEntity, EventEntity], work=785*
349: 0x0E82 [0x45] LOAD_SCHEDULED_TASK: Load scheduler "s014" with entities [EventEntity, EventEntity], work=[785*, 0*]
350: 0x0E93 [0x45] LOAD_SCHEDULED_TASK: Load scheduler "efon" with entities [LocalPlayer, LocalPlayer], work=[215*, 0*]
351: 0x0EA4 [0x55] WAIT_LOAD_SCHEDULER: Wait for scheduler "efon" with entities [LocalPlayer, LocalPlayer], work=215*
352: 0x0EB3 [0x2B] Arciela (ID: 17830032/0x01101090) [11702*]:
     "Ygnas..."
353: 0x0EBA [0x23] WAIT_FOR_DIALOG_INTERACTION
354: 0x0EBB [0x1C] WAIT(120* ticks)
355: 0x0EBE [0x52] END_LOAD_SCHEDULER: End scheduler "s014" with entities [EventEntity, EventEntity], work=785*
356: 0x0ECD [0x45] LOAD_SCHEDULED_TASK: Load scheduler "s015" with entities [EventEntity, EventEntity], work=[785*, 0*]
357: 0x0EDE [0x2A] GET_REQ_LEVEL(level=16, entity_id=Arciela (ID: 17830032/0x01101090))
358: 0x0EE4 [0x27] REQ_SET(priority=0x10, entity_id=Unnamed NPC (ID: 17830049/0x011010A1), tag_num=0x2D)
359: 0x0EEB [0x5B] LOAD_EXT_SCHEDULER: Load scheduler "tlk0" with entities [Arciela (ID: 17830032/0x01101090), Arciela (ID: 17830032/0x01101090)], work=3217*
360: 0x0EFA [0x2B] Arciela (ID: 17830032/0x01101090) [11703*]:
     "Have you looked over the budget Chero-Machero proposed for repairing the damage caused in Rala Waterways?"
361: 0x0F01 [0x1C] WAIT(120* ticks)
362: 0x0F04 [0x23] WAIT_FOR_DIALOG_INTERACTION
363: 0x0F05 [0x5B] LOAD_EXT_SCHEDULER: Load scheduler "tlk1" with entities [Arciela (ID: 17830032/0x01101090), Arciela (ID: 17830032/0x01101090)], work=3217*
364: 0x0F14 [0x2B] Unnamed NPC (ID: 17830060/0x011010AC) [11704*]:
     "..."
365: 0x0F1B [0x23] WAIT_FOR_DIALOG_INTERACTION
366: 0x0F1C [0x1C] WAIT(180* ticks)
367: 0x0F1F [0x5B] LOAD_EXT_SCHEDULER: Load scheduler "tkt0" with entities [Arciela (ID: 17830032/0x01101090), Arciela (ID: 17830032/0x01101090)], work=3467*
368: 0x0F2E [0x2B] Arciela (ID: 17830032/0x01101090) [11705*]:
     "...Ygnas?"
369: 0x0F35 [0x1C] WAIT(120* ticks)
370: 0x0F38 [0x23] WAIT_FOR_DIALOG_INTERACTION
371: 0x0F39 [0x7C] Arciela (ID: 17830032/0x01101090)->Render.Flags2 |= 0x00
372: 0x0F3F [0x52] END_LOAD_SCHEDULER: End scheduler "s015" with entities [EventEntity, EventEntity], work=785*
373: 0x0F4E [0x45] LOAD_SCHEDULED_TASK: Load scheduler "s016" with entities [EventEntity, EventEntity], work=[785*, 0*]
374: 0x0F5F [0x1C] WAIT(240* ticks)
375: 0x0F62 [0x52] END_LOAD_SCHEDULER: End scheduler "s016" with entities [EventEntity, EventEntity], work=785*
376: 0x0F71 [0x45] LOAD_SCHEDULED_TASK: Load scheduler "s017" with entities [EventEntity, EventEntity], work=[785*, 0*]
377: 0x0F82 [0x5C] MUSIC_CONTROL: Set Idle (Day) music to song 125*
378: 0x0F86 [0x5C] MUSIC_CONTROL: Set Idle (Night) music to song 125*
379: 0x0F8A [0x9A] WAIT_MUSIC_SERVER()
380: 0x0F8B [0x9F] LOAD_SCHEDULED_TASK_ALT: Load scheduler "str0" with entities [EventEntity, EventEntity], work=[127*, 0*]
381: 0x0F9C [0xCD] LOAD_SCHEDULED_TASK_ALT4: Load scheduler "s004" with entities [EventEntity, EventEntity], work=[7*, 0*]
382: 0x0FAD [0x5B] LOAD_EXT_SCHEDULER: Load scheduler "fa01" with entities [Arciela (ID: 17830032/0x01101090), Arciela (ID: 17830032/0x01101090)], work=3216*
383: 0x0FBC [0x5B] LOAD_EXT_SCHEDULER: Load scheduler "ika0" with entities [Arciela (ID: 17830032/0x01101090), Arciela (ID: 17830032/0x01101090)], work=3624*
384: 0x0FCB [0x7C] Arciela (ID: 17830032/0x01101090)->Render.Flags2 |= 0x01
385: 0x0FD1 [0x2B] Arciela (ID: 17830032/0x01101090) [11706*]:
     "Are you even listening!?"
386: 0x0FD8 [0x1C] WAIT(300* ticks)
387: 0x0FDB [0x23] WAIT_FOR_DIALOG_INTERACTION
388: 0x0FDC [0x5B] LOAD_EXT_SCHEDULER: Load scheduler "ika1" with entities [Arciela (ID: 17830032/0x01101090), Arciela (ID: 17830032/0x01101090)], work=3624*
389: 0x0FEB [0x5B] LOAD_EXT_SCHEDULER: Load scheduler "fa00" with entities [Arciela (ID: 17830032/0x01101090), Arciela (ID: 17830032/0x01101090)], work=3216*
390: 0x0FFA [0xCD] LOAD_SCHEDULED_TASK_ALT4: Load scheduler "kil4" with entities [EventEntity, EventEntity], work=[7*, 0*]
391: 0x100B [0x9F] LOAD_SCHEDULED_TASK_ALT: Load scheduler "kill" with entities [EventEntity, EventEntity], work=[127*, 0*]
392: 0x101C [0x52] END_LOAD_SCHEDULER: End scheduler "s017" with entities [EventEntity, EventEntity], work=785*
393: 0x102B [0x45] LOAD_SCHEDULED_TASK: Load scheduler "s018" with entities [EventEntity, EventEntity], work=[785*, 0*]
394: 0x103C [0x5C] MUSIC_CONTROL: Set Idle (Day) music to song 0*
395: 0x1040 [0x5C] MUSIC_CONTROL: Set Idle (Night) music to song 0*
396: 0x1044 [0x9A] WAIT_MUSIC_SERVER()
397: 0x1045 [0xBA] SET_ENTITY_POSITION(entity_id=Unnamed NPC (ID: 17830048/0x011010A0), pos_x=-51.000*, pos_z=-14.000*, pos_y=-0.500*, direction=179.9*)
398: 0x1052 [0x27] REQ_SET(priority=0x10, entity_id=Unnamed NPC (ID: 17830048/0x011010A0), tag_num=0x36)
399: 0x1059 [0x5B] LOAD_EXT_SCHEDULER: Load scheduler "fk01" with entities [Arciela (ID: 17830032/0x01101090), Arciela (ID: 17830032/0x01101090)], work=3216*
400: 0x1068 [0x2B] Arciela (ID: 17830032/0x01101090) [11707*]:
     "Our meeting starts any minute now, and you haven't even given it so much as a glance, have you?"
401: 0x106F [0x23] WAIT_FOR_DIALOG_INTERACTION
402: 0x1070 [0x1C] WAIT(60* ticks)
403: 0x1073 [0x5B] LOAD_EXT_SCHEDULER: Load scheduler "fk00" with entities [Arciela (ID: 17830032/0x01101090), Arciela (ID: 17830032/0x01101090)], work=3216*
404: 0x1082 [0x2A] GET_REQ_LEVEL(level=16, entity_id=Unnamed NPC (ID: 17830048/0x011010A0))
405: 0x1088 [0x5B] LOAD_EXT_SCHEDULER: Load scheduler "tlb0" with entities [Unnamed NPC (ID: 17830048/0x011010A0), Unnamed NPC (ID: 17830048/0x011010A0)], work=3281*
406: 0x1097 [0x2B] Unnamed NPC (ID: 17830048/0x011010A0) [11708*]:
     "Any minute indeed, Princess. You must get ready."
407: 0x109E [0x1C] WAIT(120* ticks)
408: 0x10A1 [0x23] WAIT_FOR_DIALOG_INTERACTION
409: 0x10A2 [0x5B] LOAD_EXT_SCHEDULER: Load scheduler "std1" with entities [Unnamed NPC (ID: 17830048/0x011010A0), Unnamed NPC (ID: 17830048/0x011010A0)], work=3281*
410: 0x10B1 [0x52] END_LOAD_SCHEDULER: End scheduler "s018" with entities [EventEntity, EventEntity], work=785*
411: 0x10C0 [0x45] LOAD_SCHEDULED_TASK: Load scheduler "s019" with entities [EventEntity, EventEntity], work=[785*, 0*]
412: 0x10D1 [0x5B] LOAD_EXT_SCHEDULER: Load scheduler "fk01" with entities [Arciela (ID: 17830032/0x01101090), Arciela (ID: 17830032/0x01101090)], work=3216*
413: 0x10E0 [0x2B] Arciela (ID: 17830032/0x01101090) [11709*]:
     "O-of course. I'll be along shortly."
414: 0x10E7 [0x1C] WAIT(60* ticks)
415: 0x10EA [0x23] WAIT_FOR_DIALOG_INTERACTION
416: 0x10EB [0x5B] LOAD_EXT_SCHEDULER: Load scheduler "fk00" with entities [Arciela (ID: 17830032/0x01101090), Arciela (ID: 17830032/0x01101090)], work=3216*
417: 0x10FA [0x5B] LOAD_EXT_SCHEDULER: Load scheduler "thk0" with entities [Unnamed NPC (ID: 17830048/0x011010A0), Unnamed NPC (ID: 17830048/0x011010A0)], work=3282*
418: 0x1109 [0x2B] Unnamed NPC (ID: 17830048/0x011010A0) [11710*]:
     "Princess, is everything..."
419: 0x1110 [0x23] WAIT_FOR_DIALOG_INTERACTION
420: 0x1111 [0x1C] WAIT(120* ticks)
421: 0x1114 [0x45] LOAD_SCHEDULED_TASK: Load scheduler "fdo1" with entities [LocalPlayer, LocalPlayer], work=[200*, 0*]
422: 0x1125 [0x55] WAIT_LOAD_SCHEDULER: Wait for scheduler "fdo1" with entities [LocalPlayer, LocalPlayer], work=200*
423: 0x1134 [0x48] [System] [8289*]:
     "@@"
424: 0x1137 [0x59] UPDATE_ENTITY_DATA: Unnamed NPC (ID: 17830060/0x011010AC)->Render.Flags0 &= ~0x200000
425: 0x113E [0x81] SET_ENTITY_BLINKING(blink_flag=0x01, entity=Unnamed NPC (ID: 17830060/0x011010AC))
426: 0x1144 [0x5B] LOAD_EXT_SCHEDULER: Load scheduler "f000" with entities [Arciela (ID: 17830032/0x01101090), Arciela (ID: 17830032/0x01101090)], work=3216*
427: 0x1153 [0xD3] CLEAR_ENTITY_MOTION_QUEUE(condition_flag=0x00, entity_server_id=0x01101090)
428: 0x1159 [0x6B] STOP_AND_IDLE: Unnamed NPC (ID: 17830048/0x011010A0) stops current action and resets to idle (animation="idl0")
429: 0x1162 [0x2F] Arciela (ID: 17830032/0x01101090)->Render.Flags0 |= 0x80000 // Bit 19
430: 0x1168 [0x4E] SET_ENTITY_HIDE_FLAG: Hide Arciela (ID: 17830032/0x01101090)
431: 0x116E [0x4E] SET_ENTITY_HIDE_FLAG: Hide Unnamed NPC (ID: 17830060/0x011010AC)
432: 0x1174 [0xBA] SET_ENTITY_POSITION(entity_id=Unnamed NPC (ID: 17830048/0x011010A0), pos_x=100.580*, pos_z=-63.830*, pos_y=-40.150*, direction=179.9*)
433: 0x1181 [0x4A] Unnamed NPC (ID: 17830048/0x011010A0) looks at LocalPlayer
434: 0x118A [0x7B] Unnamed NPC (ID: 17830048/0x011010A0) stops talking
435: 0x118F [0x35] LOAD_ZONE_NO_CLOSE(zone_id=701*)
436: 0x1192 [0x78] ENABLE_GAME_TIMER_RESET_WEATHER()
437: 0x1193 [0x1C] WAIT(15* ticks)
438: 0x1196 [0x5C] MUSIC_CONTROL: Set Idle (Day) music to song 63*
439: 0x119A [0x5C] MUSIC_CONTROL: Set Idle (Night) music to song 63*
440: 0x119E [0x9A] WAIT_MUSIC_SERVER()
441: 0x119F [0xAB] EventEntity->UnknownFlag = 0 // Disable unknown flag
442: 0x11A1 [0x1C] WAIT(60* ticks)
443: 0x11A4 [0x52] END_LOAD_SCHEDULER: End scheduler "s019" with entities [EventEntity, EventEntity], work=785*
444: 0x11B3 [0x02] IF !(LocalPlayer->Race == 3*) GOTO 0x11CF
445: 0x11BB [0x45] LOAD_SCHEDULED_TASK: Load scheduler "sg20" with entities [EventEntity, EventEntity], work=[785*, 0*]
446: 0x11CC [0x01] GOTO 0x1234
447: 0x11CF [0x02] IF !(LocalPlayer->Race == 5*) GOTO 0x11EB
448: 0x11D7 [0x45] LOAD_SCHEDULED_TASK: Load scheduler "st20" with entities [EventEntity, EventEntity], work=[785*, 0*]
449: 0x11E8 [0x01] GOTO 0x1234
450: 0x11EB [0x02] IF !(LocalPlayer->Race == 6*) GOTO 0x1207
451: 0x11F3 [0x45] LOAD_SCHEDULED_TASK: Load scheduler "st20" with entities [EventEntity, EventEntity], work=[785*, 0*]
452: 0x1204 [0x01] GOTO 0x1234
453: 0x1207 [0x02] IF !(LocalPlayer->Race == 8*) GOTO 0x1223
454: 0x120F [0x45] LOAD_SCHEDULED_TASK: Load scheduler "sg20" with entities [EventEntity, EventEntity], work=[785*, 0*]
455: 0x1220 [0x01] GOTO 0x1234
456: 0x1223 [0x45] LOAD_SCHEDULED_TASK: Load scheduler "s020" with entities [EventEntity, EventEntity], work=[785*, 0*]

SUBROUTINE_1234:
457: 0x1234 [0x45] LOAD_SCHEDULED_TASK: Load scheduler "fdi1" with entities [LocalPlayer, LocalPlayer], work=[200*, 0*]
458: 0x1245 [0x5B] LOAD_EXT_SCHEDULER: Load scheduler "tla0" with entities [Unnamed NPC (ID: 17830048/0x011010A0), Unnamed NPC (ID: 17830048/0x011010A0)], work=3281*
