# 17830092 - Boffin

## Common Data

| Field            | Value                     |
|------------------|---------------------------|
| Zone             | Eastern Adoulin (ID: 257) |
| Block Size       | 152 bytes                 |
| Total Events     | 3                         |
| References Count | 5                         |

## List of Events

| Event ID              | Entrypoint   |   Size |   Instructions |
|-----------------------|--------------|--------|----------------|
| [65535](#event-65535) | 0x0000       |      1 |              1 |
| [502](#event-502)     | 0x0001       |     47 |             11 |
| [5044](#event-5044)   | 0x0030       |     56 |             12 |

## DAT References (imed_data)

|   Index | Hex Value   |   Dec Value |
|---------|-------------|-------------|
|       0 | 0x0000      |           0 |
|       1 | 0x28C2      |       10434 |
|       2 | 0x28C3      |       10435 |
|       3 | 0x28B3      |       10419 |
|       4 | 0x28B4      |       10420 |

## String References

- **10419**: Whoa, that's some ancient stuff you're trying to dredge up, there. The various coalitions around here would be much more knowledgeable about that kind of stuff than me.
- **10420**: If you're looking for information about the old pioneering days, that guy recruiting for the Pioneers' Coalition probably knows a lot more than me...
- **10434**: I've heard all about the gossip. People are saying the curse of the founder king is true and that the colonization effort is doomed!
- **10435**: Even Ygnas S. Adoulin has disappeared from sight, and he's the one who advocated pioneering in the first place! This does not bode well...

## Events

### Event 65535

#### Metadata

| Field        | Value   |
|--------------|---------|
| Entrypoint   | 0x0000  |
| Data Size    | 1 bytes |
| Instructions | 1       |

```
      00 01 02 03 04 05 06 07  08 09 0A 0B 0C 0D 0E 0F
      -- -- -- -- -- -- -- --  -- -- -- -- -- -- -- --
0000: 00                                                .               
```

#### Opcodes

```
  0: 0x0000 [0x00] END_REQSTACK()
```

### Event 502

#### Metadata

| Field        | Value    |
|--------------|----------|
| Entrypoint   | 0x0001   |
| Data Size    | 47 bytes |
| Instructions | 11       |

```
      00 01 02 03 04 05 06 07  08 09 0A 0B 0C 0D 0E 0F
      -- -- -- -- -- -- -- --  -- -- -- -- -- -- -- --
0000:    1E F0 FF FF 7F 6F 70  66 00 80 F8 FF FF 7F F8   .....opf.......
0010: FF FF 7F 74 6C 6B 31 1D  01 80 23 1D 02 80 23 66  ...tlk1...#...#f
0020: 00 80 F8 FF FF 7F F8 FF  FF 7F 74 65 6E 31 21 00  ..........ten1!.
```

#### Opcodes

```
  0: 0x0001 [0x1E] EventEntity looks at LocalPlayer and starts talking
  1: 0x0006 [0x6F] WAIT_FRAME_DELAY: Yield until WaitTime reaches zero
  2: 0x0007 [0x70] WAIT_ENTITY_RENDER_FLAG: Wait while EventEntity->Render.Flags3 bit 2 is set (cancel turn if not)
  3: 0x0008 [0x66] LOAD_EXT_SCHEDULER_MAIN: Load scheduler "tlk1" with entities [EventEntity, EventEntity], work=0*
  4: 0x0017 [0x1D] PRINT_EVENT_MESSAGE(message_id=10434*)
    → "I've heard all about the gossip. People are saying the curse of the founder king is true and that the colonization effort is doomed!"
  5: 0x001A [0x23] WAIT_FOR_DIALOG_INTERACTION
  6: 0x001B [0x1D] PRINT_EVENT_MESSAGE(message_id=10435*)
    → "Even Ygnas S. Adoulin has disappeared from sight, and he's the one who advocated pioneering in the first place! This does not bode well..."
  7: 0x001E [0x23] WAIT_FOR_DIALOG_INTERACTION
  8: 0x001F [0x66] LOAD_EXT_SCHEDULER_MAIN: Load scheduler "ten1" with entities [EventEntity, EventEntity], work=0*
  9: 0x002E [0x21] END_EVENT
 10: 0x002F [0x00] END_REQSTACK()
```

### Event 5044

#### Metadata

| Field        | Value    |
|--------------|----------|
| Entrypoint   | 0x0030   |
| Data Size    | 56 bytes |
| Instructions | 12       |

```
      00 01 02 03 04 05 06 07  08 09 0A 0B 0C 0D 0E 0F
      -- -- -- -- -- -- -- --  -- -- -- -- -- -- -- --
0030: 4A F0 FF FF 7F F8 FF FF  7F 1E F0 FF FF 7F 6F 70  J.............op
0040: 66 00 80 F8 FF FF 7F F8  FF FF 7F 74 6C 6B 31 1D  f..........tlk1.
0050: 03 80 23 1D 04 80 23 66  00 80 F8 FF FF 7F F8 FF  ..#...#f........
0060: FF 7F 74 65 6E 31 21 00                           ..ten1!.        
```

#### Opcodes

```
  0: 0x0030 [0x4A] LocalPlayer looks at EventEntity
  1: 0x0039 [0x1E] EventEntity looks at LocalPlayer and starts talking
  2: 0x003E [0x6F] WAIT_FRAME_DELAY: Yield until WaitTime reaches zero
  3: 0x003F [0x70] WAIT_ENTITY_RENDER_FLAG: Wait while EventEntity->Render.Flags3 bit 2 is set (cancel turn if not)
  4: 0x0040 [0x66] LOAD_EXT_SCHEDULER_MAIN: Load scheduler "tlk1" with entities [EventEntity, EventEntity], work=0*
  5: 0x004F [0x1D] PRINT_EVENT_MESSAGE(message_id=10419*)
    → "Whoa, that's some ancient stuff you're trying to dredge up, there. The various coalitions around here would be much more knowledgeable about that kind of stuff than me."
  6: 0x0052 [0x23] WAIT_FOR_DIALOG_INTERACTION
  7: 0x0053 [0x1D] PRINT_EVENT_MESSAGE(message_id=10420*)
    → "If you're looking for information about the old pioneering days, that guy recruiting for the Pioneers' Coalition probably knows a lot more than me..."
  8: 0x0056 [0x23] WAIT_FOR_DIALOG_INTERACTION
  9: 0x0057 [0x66] LOAD_EXT_SCHEDULER_MAIN: Load scheduler "ten1" with entities [EventEntity, EventEntity], work=0*
 10: 0x0066 [0x21] END_EVENT
 11: 0x0067 [0x00] END_REQSTACK()
```
