# 17830003

## Common Data

| Field            | Value                     |
|------------------|---------------------------|
| Zone             | Eastern Adoulin (ID: 257) |
| Block Size       | 1180 bytes                |
| Total Events     | 36                        |
| References Count | 27                        |

## List of Events

| Event ID                   | Entrypoint   |   Size |   Instructions |
|----------------------------|--------------|--------|----------------|
| [65535](#event-65535)      | 0x0000       |      1 |              1 |
| [1535](#event-1535)        | 0x0001       |      1 |              1 |
| [1551](#event-1551)        | 0x0002       |      1 |              1 |
| [1552](#event-1552)        | 0x0003       |      1 |              1 |
| [1537](#event-1537)        | 0x0004       |      1 |              1 |
| [65535.1](#event-655351)   | 0x0005       |     19 |              3 |
| [65535.2](#event-655352)   | 0x0018       |     19 |              3 |
| [65535.3](#event-655353)   | 0x002B       |     10 |              2 |
| [65535.4](#event-655354)   | 0x0035       |     10 |              2 |
| [65535.5](#event-655355)   | 0x003F       |     10 |              2 |
| [65535.6](#event-655356)   | 0x0049       |     10 |              2 |
| [65535.7](#event-655357)   | 0x0053       |     10 |              2 |
| [65535.8](#event-655358)   | 0x005D       |     10 |              2 |
| [65535.9](#event-655359)   | 0x0067       |     10 |              2 |
| [65535.10](#event-6553510) | 0x0071       |     32 |              3 |
| [65535.11](#event-6553511) | 0x0091       |     49 |              4 |
| [65535.12](#event-6553512) | 0x00C2       |     49 |              4 |
| [65535.13](#event-6553513) | 0x00F3       |     49 |              4 |
| [65535.14](#event-6553514) | 0x0124       |     49 |              4 |
| [65535.15](#event-6553515) | 0x0155       |     33 |              3 |
| [65535.16](#event-6553516) | 0x0176       |     33 |              3 |
| [65535.17](#event-6553517) | 0x0197       |     33 |              3 |
| [65535.18](#event-6553518) | 0x01B8       |     49 |              4 |
| [65535.19](#event-6553519) | 0x01E9       |     33 |              3 |
| [65535.20](#event-6553520) | 0x020A       |     33 |              3 |
| [65535.21](#event-6553521) | 0x022B       |     33 |              3 |
| [65535.22](#event-6553522) | 0x024C       |     33 |              3 |
| [65535.23](#event-6553523) | 0x026D       |     33 |              3 |
| [65535.24](#event-6553524) | 0x028E       |     31 |              3 |
| [65535.25](#event-6553525) | 0x02AD       |     31 |              3 |
| [65535.26](#event-6553526) | 0x02CC       |     31 |              3 |
| [65535.27](#event-6553527) | 0x02EB       |     33 |              3 |
| [65535.28](#event-6553528) | 0x030C       |     31 |              3 |
| [65535.29](#event-6553529) | 0x032B       |     33 |              3 |
| [65535.30](#event-6553530) | 0x034C       |     33 |              3 |
| [65535.31](#event-6553531) | 0x036D       |     33 |              3 |

## DAT References (imed_data)

|   Index | Hex Value   |   Dec Value |
|---------|-------------|-------------|
|       0 | 0x0000      |           0 |
|       1 | 0x0001      |           1 |
|       2 | 0x007F      |         127 |
|       3 | 0x003C      |          60 |
|       4 | 0x0D68      |        3432 |
|       5 | 0x0E07      |        3591 |
|       6 | 0x0D69      |        3433 |
|       7 | 0x0E0F      |        3599 |
|       8 | 0x0D17      |        3351 |
|       9 | 0x0D18      |        3352 |
|      10 | 0x0CB1      |        3249 |
|      11 | 0x0CDA      |        3290 |
|      12 | 0x0E10      |        3600 |
|      13 | 0x0E02      |        3586 |
|      14 | 0x0E11      |        3601 |
|      15 | 0x0E03      |        3587 |
|      16 | 0x0DD9      |        3545 |
|      17 | 0x0E12      |        3602 |
|      18 | 0x0DDA      |        3546 |
|      19 | 0x0DDB      |        3547 |
|      20 | 0x0E13      |        3603 |
|      21 | 0x0D0B      |        3339 |
|      22 | 0x0DED      |        3565 |
|      23 | 0x0DD3      |        3539 |
|      24 | 0x0DD7      |        3543 |
|      25 | 0x0CFC      |        3324 |
|      26 | 0x0DD8      |        3544 |

## Events

### Event 65535

#### Metadata

| Field        | Value   |
|--------------|---------|
| Entrypoint   | 0x0000  |
| Data Size    | 1 bytes |
| Instructions | 1       |

```
      00 01 02 03 04 05 06 07  08 09 0A 0B 0C 0D 0E 0F
      -- -- -- -- -- -- -- --  -- -- -- -- -- -- -- --
0000: 00                                                .               
```

#### Opcodes

```
  0: 0x0000 [0x00] END_REQSTACK()
```

### Event 1535

#### Metadata

| Field        | Value   |
|--------------|---------|
| Entrypoint   | 0x0001  |
| Data Size    | 1 bytes |
| Instructions | 1       |

```
      00 01 02 03 04 05 06 07  08 09 0A 0B 0C 0D 0E 0F
      -- -- -- -- -- -- -- --  -- -- -- -- -- -- -- --
0000:    00                                              .              
```

#### Opcodes

```
  0: 0x0001 [0x00] END_REQSTACK()
```

### Event 1551

#### Metadata

| Field        | Value   |
|--------------|---------|
| Entrypoint   | 0x0002  |
| Data Size    | 1 bytes |
| Instructions | 1       |

```
      00 01 02 03 04 05 06 07  08 09 0A 0B 0C 0D 0E 0F
      -- -- -- -- -- -- -- --  -- -- -- -- -- -- -- --
0000:       00                                            .             
```

#### Opcodes

```
  0: 0x0002 [0x00] END_REQSTACK()
```

### Event 1552

#### Metadata

| Field        | Value   |
|--------------|---------|
| Entrypoint   | 0x0003  |
| Data Size    | 1 bytes |
| Instructions | 1       |

```
      00 01 02 03 04 05 06 07  08 09 0A 0B 0C 0D 0E 0F
      -- -- -- -- -- -- -- --  -- -- -- -- -- -- -- --
0000:          00                                          .            
```

#### Opcodes

```
  0: 0x0003 [0x00] END_REQSTACK()
```

### Event 1537

#### Metadata

| Field        | Value   |
|--------------|---------|
| Entrypoint   | 0x0004  |
| Data Size    | 1 bytes |
| Instructions | 1       |

```
      00 01 02 03 04 05 06 07  08 09 0A 0B 0C 0D 0E 0F
      -- -- -- -- -- -- -- --  -- -- -- -- -- -- -- --
0000:             00                                        .           
```

#### Opcodes

```
  0: 0x0004 [0x00] END_REQSTACK()
```

### Event 65535.1

#### Metadata

| Field        | Value    |
|--------------|----------|
| Entrypoint   | 0x0005   |
| Data Size    | 19 bytes |
| Instructions | 3        |

```
      00 01 02 03 04 05 06 07  08 09 0A 0B 0C 0D 0E 0F
      -- -- -- -- -- -- -- --  -- -- -- -- -- -- -- --
0000:                6C 90 10  10 01 00 80 01 80 6C 9C       l........l.
0010: 10 10 01 00 80 01 80 00                           ........        
```

#### Opcodes

```
  0: 0x0005 [0x6C] FADE_ENTITY_COLOR(entity_id=Arciela (ID: 17830032/0x01101090), end_alpha=0*, fade_time=1*)
  1: 0x000E [0x6C] FADE_ENTITY_COLOR(entity_id=Amchuchu (ID: 17830044/0x0110109C), end_alpha=0*, fade_time=1*)
  2: 0x0017 [0x00] END_REQSTACK()
```

### Event 65535.2

#### Metadata

| Field        | Value    |
|--------------|----------|
| Entrypoint   | 0x0018   |
| Data Size    | 19 bytes |
| Instructions | 3        |

```
      00 01 02 03 04 05 06 07  08 09 0A 0B 0C 0D 0E 0F
      -- -- -- -- -- -- -- --  -- -- -- -- -- -- -- --
0010:                          6C 90 10 10 01 02 80 01          l.......
0020: 80 6C 9C 10 10 01 02 80  01 80 00                 .l.........     
```

#### Opcodes

```
  0: 0x0018 [0x6C] FADE_ENTITY_COLOR(entity_id=Arciela (ID: 17830032/0x01101090), end_alpha=127*, fade_time=1*)
  1: 0x0021 [0x6C] FADE_ENTITY_COLOR(entity_id=Amchuchu (ID: 17830044/0x0110109C), end_alpha=127*, fade_time=1*)
  2: 0x002A [0x00] END_REQSTACK()
```

### Event 65535.3

#### Metadata

| Field        | Value    |
|--------------|----------|
| Entrypoint   | 0x002B   |
| Data Size    | 10 bytes |
| Instructions | 2        |

```
      00 01 02 03 04 05 06 07  08 09 0A 0B 0C 0D 0E 0F
      -- -- -- -- -- -- -- --  -- -- -- -- -- -- -- --
0020:                                   6C 94 10 10 01             l....
0030: 00 80 01 80 00                                    .....           
```

#### Opcodes

```
  0: 0x002B [0x6C] FADE_ENTITY_COLOR(entity_id=Svenja (ID: 17830036/0x01101094), end_alpha=0*, fade_time=1*)
  1: 0x0034 [0x00] END_REQSTACK()
```

### Event 65535.4

#### Metadata

| Field        | Value    |
|--------------|----------|
| Entrypoint   | 0x0035   |
| Data Size    | 10 bytes |
| Instructions | 2        |

```
      00 01 02 03 04 05 06 07  08 09 0A 0B 0C 0D 0E 0F
      -- -- -- -- -- -- -- --  -- -- -- -- -- -- -- --
0030:                6C 94 10  10 01 02 80 01 80 00          l......... 
```

#### Opcodes

```
  0: 0x0035 [0x6C] FADE_ENTITY_COLOR(entity_id=Svenja (ID: 17830036/0x01101094), end_alpha=127*, fade_time=1*)
  1: 0x003E [0x00] END_REQSTACK()
```

### Event 65535.5

#### Metadata

| Field        | Value    |
|--------------|----------|
| Entrypoint   | 0x003F   |
| Data Size    | 10 bytes |
| Instructions | 2        |

```
      00 01 02 03 04 05 06 07  08 09 0A 0B 0C 0D 0E 0F
      -- -- -- -- -- -- -- --  -- -- -- -- -- -- -- --
0030:                                               6C                 l
0040: 90 10 10 01 00 80 01 80  00                       .........       
```

#### Opcodes

```
  0: 0x003F [0x6C] FADE_ENTITY_COLOR(entity_id=Arciela (ID: 17830032/0x01101090), end_alpha=0*, fade_time=1*)
  1: 0x0048 [0x00] END_REQSTACK()
```

### Event 65535.6

#### Metadata

| Field        | Value    |
|--------------|----------|
| Entrypoint   | 0x0049   |
| Data Size    | 10 bytes |
| Instructions | 2        |

```
      00 01 02 03 04 05 06 07  08 09 0A 0B 0C 0D 0E 0F
      -- -- -- -- -- -- -- --  -- -- -- -- -- -- -- --
0040:                             6C 90 10 10 01 02 80           l......
0050: 01 80 00                                          ...             
```

#### Opcodes

```
  0: 0x0049 [0x6C] FADE_ENTITY_COLOR(entity_id=Arciela (ID: 17830032/0x01101090), end_alpha=127*, fade_time=1*)
  1: 0x0052 [0x00] END_REQSTACK()
```

### Event 65535.7

#### Metadata

| Field        | Value    |
|--------------|----------|
| Entrypoint   | 0x0053   |
| Data Size    | 10 bytes |
| Instructions | 2        |

```
      00 01 02 03 04 05 06 07  08 09 0A 0B 0C 0D 0E 0F
      -- -- -- -- -- -- -- --  -- -- -- -- -- -- -- --
0050:          6C A6 10 10 01  00 80 03 80 00              l.........   
```

#### Opcodes

```
  0: 0x0053 [0x6C] FADE_ENTITY_COLOR(entity_id=Unnamed NPC (ID: 17830054/0x011010A6), end_alpha=0*, fade_time=60*)
  1: 0x005C [0x00] END_REQSTACK()
```

### Event 65535.8

#### Metadata

| Field        | Value    |
|--------------|----------|
| Entrypoint   | 0x005D   |
| Data Size    | 10 bytes |
| Instructions | 2        |

```
      00 01 02 03 04 05 06 07  08 09 0A 0B 0C 0D 0E 0F
      -- -- -- -- -- -- -- --  -- -- -- -- -- -- -- --
0050:                                         6C A1 10               l..
0060: 10 01 00 80 01 80 00                              .......         
```

#### Opcodes

```
  0: 0x005D [0x6C] FADE_ENTITY_COLOR(entity_id=Unnamed NPC (ID: 17830049/0x011010A1), end_alpha=0*, fade_time=1*)
  1: 0x0066 [0x00] END_REQSTACK()
```

### Event 65535.9

#### Metadata

| Field        | Value    |
|--------------|----------|
| Entrypoint   | 0x0067   |
| Data Size    | 10 bytes |
| Instructions | 2        |

```
      00 01 02 03 04 05 06 07  08 09 0A 0B 0C 0D 0E 0F
      -- -- -- -- -- -- -- --  -- -- -- -- -- -- -- --
0060:                      6C  A1 10 10 01 02 80 01 80         l........
0070: 00                                                .               
```

#### Opcodes

```
  0: 0x0067 [0x6C] FADE_ENTITY_COLOR(entity_id=Unnamed NPC (ID: 17830049/0x011010A1), end_alpha=127*, fade_time=1*)
  1: 0x0070 [0x00] END_REQSTACK()
```

### Event 65535.10

#### Metadata

| Field        | Value    |
|--------------|----------|
| Entrypoint   | 0x0071   |
| Data Size    | 32 bytes |
| Instructions | 3        |

```
      00 01 02 03 04 05 06 07  08 09 0A 0B 0C 0D 0E 0F
      -- -- -- -- -- -- -- --  -- -- -- -- -- -- -- --
0070:    5F 03 04 80 B0 10 10  01 B0 10 10 01 78 78 78   _...........xxx
0080: 78 5B 05 80 A0 10 10 01  A0 10 10 01 78 78 78 78  x[..........xxxx
0090: 00                                                .               
```

#### Opcodes

```
  0: 0x0071 [0x5F] MULTI_HANDLER_COMPLEX(mode=0x03 - Load ext scheduler (OpCode 0x5B mode 0), ref=3432*, entity1=Unnamed NPC (ID: 17830064/0x011010B0), entity2=Unnamed NPC (ID: 17830064/0x011010B0), string="xxxx")
  1: 0x0081 [0x5B] LOAD_EXT_SCHEDULER: Load scheduler "xxxx" with entities [Unnamed NPC (ID: 17830048/0x011010A0), Unnamed NPC (ID: 17830048/0x011010A0)], work=3591*
  2: 0x0090 [0x00] END_REQSTACK()
```

### Event 65535.11

#### Metadata

| Field        | Value    |
|--------------|----------|
| Entrypoint   | 0x0091   |
| Data Size    | 49 bytes |
| Instructions | 4        |

```
      00 01 02 03 04 05 06 07  08 09 0A 0B 0C 0D 0E 0F
      -- -- -- -- -- -- -- --  -- -- -- -- -- -- -- --
0090:    5F 03 06 80 B0 10 10  01 B0 10 10 01 78 78 78   _...........xxx
00A0: 78 5F 03 07 80 A0 10 10  01 A0 10 10 01 78 78 78  x_...........xxx
00B0: 78 5F 03 08 80 93 10 10  01 93 10 10 01 78 78 78  x_...........xxx
00C0: 78 00                                             x.              
```

#### Opcodes

```
  0: 0x0091 [0x5F] MULTI_HANDLER_COMPLEX(mode=0x03 - Load ext scheduler (OpCode 0x5B mode 0), ref=3433*, entity1=Unnamed NPC (ID: 17830064/0x011010B0), entity2=Unnamed NPC (ID: 17830064/0x011010B0), string="xxxx")
  1: 0x00A1 [0x5F] MULTI_HANDLER_COMPLEX(mode=0x03 - Load ext scheduler (OpCode 0x5B mode 0), ref=3599*, entity1=Unnamed NPC (ID: 17830048/0x011010A0), entity2=Unnamed NPC (ID: 17830048/0x011010A0), string="xxxx")
  2: 0x00B1 [0x5F] MULTI_HANDLER_COMPLEX(mode=0x03 - Load ext scheduler (OpCode 0x5B mode 0), ref=3351*, entity1=Hildebert (ID: 17830035/0x01101093), entity2=Hildebert (ID: 17830035/0x01101093), string="xxxx")
  3: 0x00C1 [0x00] END_REQSTACK()
```

### Event 65535.12

#### Metadata

| Field        | Value    |
|--------------|----------|
| Entrypoint   | 0x00C2   |
| Data Size    | 49 bytes |
| Instructions | 4        |

```
      00 01 02 03 04 05 06 07  08 09 0A 0B 0C 0D 0E 0F
      -- -- -- -- -- -- -- --  -- -- -- -- -- -- -- --
00C0:       5F 03 06 80 B0 10  10 01 B0 10 10 01 78 78    _...........xx
00D0: 78 78 5F 03 07 80 A0 10  10 01 A0 10 10 01 78 78  xx_...........xx
00E0: 78 78 5F 03 09 80 93 10  10 01 93 10 10 01 78 78  xx_...........xx
00F0: 78 78 00                                          xx.             
```

#### Opcodes

```
  0: 0x00C2 [0x5F] MULTI_HANDLER_COMPLEX(mode=0x03 - Load ext scheduler (OpCode 0x5B mode 0), ref=3433*, entity1=Unnamed NPC (ID: 17830064/0x011010B0), entity2=Unnamed NPC (ID: 17830064/0x011010B0), string="xxxx")
  1: 0x00D2 [0x5F] MULTI_HANDLER_COMPLEX(mode=0x03 - Load ext scheduler (OpCode 0x5B mode 0), ref=3599*, entity1=Unnamed NPC (ID: 17830048/0x011010A0), entity2=Unnamed NPC (ID: 17830048/0x011010A0), string="xxxx")
  2: 0x00E2 [0x5F] MULTI_HANDLER_COMPLEX(mode=0x03 - Load ext scheduler (OpCode 0x5B mode 0), ref=3352*, entity1=Hildebert (ID: 17830035/0x01101093), entity2=Hildebert (ID: 17830035/0x01101093), string="xxxx")
  3: 0x00F2 [0x00] END_REQSTACK()
```

### Event 65535.13

#### Metadata

| Field        | Value    |
|--------------|----------|
| Entrypoint   | 0x00F3   |
| Data Size    | 49 bytes |
| Instructions | 4        |

```
      00 01 02 03 04 05 06 07  08 09 0A 0B 0C 0D 0E 0F
      -- -- -- -- -- -- -- --  -- -- -- -- -- -- -- --
00F0:          5F 03 06 80 B0  10 10 01 B0 10 10 01 78     _...........x
0100: 78 78 78 5F 03 07 80 A0  10 10 01 A0 10 10 01 78  xxx_...........x
0110: 78 78 78 5F 03 09 80 93  10 10 01 93 10 10 01 78  xxx_...........x
0120: 78 78 78 00                                       xxx.            
```

#### Opcodes

```
  0: 0x00F3 [0x5F] MULTI_HANDLER_COMPLEX(mode=0x03 - Load ext scheduler (OpCode 0x5B mode 0), ref=3433*, entity1=Unnamed NPC (ID: 17830064/0x011010B0), entity2=Unnamed NPC (ID: 17830064/0x011010B0), string="xxxx")
  1: 0x0103 [0x5F] MULTI_HANDLER_COMPLEX(mode=0x03 - Load ext scheduler (OpCode 0x5B mode 0), ref=3599*, entity1=Unnamed NPC (ID: 17830048/0x011010A0), entity2=Unnamed NPC (ID: 17830048/0x011010A0), string="xxxx")
  2: 0x0113 [0x5F] MULTI_HANDLER_COMPLEX(mode=0x03 - Load ext scheduler (OpCode 0x5B mode 0), ref=3352*, entity1=Hildebert (ID: 17830035/0x01101093), entity2=Hildebert (ID: 17830035/0x01101093), string="xxxx")
  3: 0x0123 [0x00] END_REQSTACK()
```

### Event 65535.14

#### Metadata

| Field        | Value    |
|--------------|----------|
| Entrypoint   | 0x0124   |
| Data Size    | 49 bytes |
| Instructions | 4        |

```
      00 01 02 03 04 05 06 07  08 09 0A 0B 0C 0D 0E 0F
      -- -- -- -- -- -- -- --  -- -- -- -- -- -- -- --
0120:             5F 03 06 80  B0 10 10 01 B0 10 10 01      _...........
0130: 78 78 78 78 5F 03 09 80  93 10 10 01 93 10 10 01  xxxx_...........
0140: 78 78 78 78 5F 03 0A 80  A2 10 10 01 A2 10 10 01  xxxx_...........
0150: 78 78 78 78 00                                    xxxx.           
```

#### Opcodes

```
  0: 0x0124 [0x5F] MULTI_HANDLER_COMPLEX(mode=0x03 - Load ext scheduler (OpCode 0x5B mode 0), ref=3433*, entity1=Unnamed NPC (ID: 17830064/0x011010B0), entity2=Unnamed NPC (ID: 17830064/0x011010B0), string="xxxx")
  1: 0x0134 [0x5F] MULTI_HANDLER_COMPLEX(mode=0x03 - Load ext scheduler (OpCode 0x5B mode 0), ref=3352*, entity1=Hildebert (ID: 17830035/0x01101093), entity2=Hildebert (ID: 17830035/0x01101093), string="xxxx")
  2: 0x0144 [0x5F] MULTI_HANDLER_COMPLEX(mode=0x03 - Load ext scheduler (OpCode 0x5B mode 0), ref=3249*, entity1=Unnamed NPC (ID: 17830050/0x011010A2), entity2=Unnamed NPC (ID: 17830050/0x011010A2), string="xxxx")
  3: 0x0154 [0x00] END_REQSTACK()
```

### Event 65535.15

#### Metadata

| Field        | Value    |
|--------------|----------|
| Entrypoint   | 0x0155   |
| Data Size    | 33 bytes |
| Instructions | 3        |

```
      00 01 02 03 04 05 06 07  08 09 0A 0B 0C 0D 0E 0F
      -- -- -- -- -- -- -- --  -- -- -- -- -- -- -- --
0150:                5F 03 04  80 B0 10 10 01 B0 10 10       _..........
0160: 01 78 78 78 78 5F 03 0B  80 A0 10 10 01 A0 10 10  .xxxx_..........
0170: 01 78 78 78 78 00                                 .xxxx.          
```

#### Opcodes

```
  0: 0x0155 [0x5F] MULTI_HANDLER_COMPLEX(mode=0x03 - Load ext scheduler (OpCode 0x5B mode 0), ref=3432*, entity1=Unnamed NPC (ID: 17830064/0x011010B0), entity2=Unnamed NPC (ID: 17830064/0x011010B0), string="xxxx")
  1: 0x0165 [0x5F] MULTI_HANDLER_COMPLEX(mode=0x03 - Load ext scheduler (OpCode 0x5B mode 0), ref=3290*, entity1=Unnamed NPC (ID: 17830048/0x011010A0), entity2=Unnamed NPC (ID: 17830048/0x011010A0), string="xxxx")
  2: 0x0175 [0x00] END_REQSTACK()
```

### Event 65535.16

#### Metadata

| Field        | Value    |
|--------------|----------|
| Entrypoint   | 0x0176   |
| Data Size    | 33 bytes |
| Instructions | 3        |

```
      00 01 02 03 04 05 06 07  08 09 0A 0B 0C 0D 0E 0F
      -- -- -- -- -- -- -- --  -- -- -- -- -- -- -- --
0170:                   5F 03  06 80 B0 10 10 01 B0 10        _.........
0180: 10 01 78 78 78 78 5F 03  0C 80 A0 10 10 01 A0 10  ..xxxx_.........
0190: 10 01 78 78 78 78 00                              ..xxxx.         
```

#### Opcodes

```
  0: 0x0176 [0x5F] MULTI_HANDLER_COMPLEX(mode=0x03 - Load ext scheduler (OpCode 0x5B mode 0), ref=3433*, entity1=Unnamed NPC (ID: 17830064/0x011010B0), entity2=Unnamed NPC (ID: 17830064/0x011010B0), string="xxxx")
  1: 0x0186 [0x5F] MULTI_HANDLER_COMPLEX(mode=0x03 - Load ext scheduler (OpCode 0x5B mode 0), ref=3600*, entity1=Unnamed NPC (ID: 17830048/0x011010A0), entity2=Unnamed NPC (ID: 17830048/0x011010A0), string="xxxx")
  2: 0x0196 [0x00] END_REQSTACK()
```

### Event 65535.17

#### Metadata

| Field        | Value    |
|--------------|----------|
| Entrypoint   | 0x0197   |
| Data Size    | 33 bytes |
| Instructions | 3        |

```
      00 01 02 03 04 05 06 07  08 09 0A 0B 0C 0D 0E 0F
      -- -- -- -- -- -- -- --  -- -- -- -- -- -- -- --
0190:                      5F  03 0D 80 A3 10 10 01 A3         _........
01A0: 10 10 01 78 78 78 78 5F  03 0E 80 A0 10 10 01 A0  ...xxxx_........
01B0: 10 10 01 78 78 78 78 00                           ...xxxx.        
```

#### Opcodes

```
  0: 0x0197 [0x5F] MULTI_HANDLER_COMPLEX(mode=0x03 - Load ext scheduler (OpCode 0x5B mode 0), ref=3586*, entity1=Unnamed NPC (ID: 17830051/0x011010A3), entity2=Unnamed NPC (ID: 17830051/0x011010A3), string="xxxx")
  1: 0x01A7 [0x5F] MULTI_HANDLER_COMPLEX(mode=0x03 - Load ext scheduler (OpCode 0x5B mode 0), ref=3601*, entity1=Unnamed NPC (ID: 17830048/0x011010A0), entity2=Unnamed NPC (ID: 17830048/0x011010A0), string="xxxx")
  2: 0x01B7 [0x00] END_REQSTACK()
```

### Event 65535.18

#### Metadata

| Field        | Value    |
|--------------|----------|
| Entrypoint   | 0x01B8   |
| Data Size    | 49 bytes |
| Instructions | 4        |

```
      00 01 02 03 04 05 06 07  08 09 0A 0B 0C 0D 0E 0F
      -- -- -- -- -- -- -- --  -- -- -- -- -- -- -- --
01B0:                          5F 03 06 80 B0 10 10 01          _.......
01C0: B0 10 10 01 78 78 78 78  5F 03 0E 80 A0 10 10 01  ....xxxx_.......
01D0: A0 10 10 01 78 78 78 78  5F 03 0D 80 A3 10 10 01  ....xxxx_.......
01E0: A3 10 10 01 78 78 78 78  00                       ....xxxx.       
```

#### Opcodes

```
  0: 0x01B8 [0x5F] MULTI_HANDLER_COMPLEX(mode=0x03 - Load ext scheduler (OpCode 0x5B mode 0), ref=3433*, entity1=Unnamed NPC (ID: 17830064/0x011010B0), entity2=Unnamed NPC (ID: 17830064/0x011010B0), string="xxxx")
  1: 0x01C8 [0x5F] MULTI_HANDLER_COMPLEX(mode=0x03 - Load ext scheduler (OpCode 0x5B mode 0), ref=3601*, entity1=Unnamed NPC (ID: 17830048/0x011010A0), entity2=Unnamed NPC (ID: 17830048/0x011010A0), string="xxxx")
  2: 0x01D8 [0x5F] MULTI_HANDLER_COMPLEX(mode=0x03 - Load ext scheduler (OpCode 0x5B mode 0), ref=3586*, entity1=Unnamed NPC (ID: 17830051/0x011010A3), entity2=Unnamed NPC (ID: 17830051/0x011010A3), string="xxxx")
  3: 0x01E8 [0x00] END_REQSTACK()
```

### Event 65535.19

#### Metadata

| Field        | Value    |
|--------------|----------|
| Entrypoint   | 0x01E9   |
| Data Size    | 33 bytes |
| Instructions | 3        |

```
      00 01 02 03 04 05 06 07  08 09 0A 0B 0C 0D 0E 0F
      -- -- -- -- -- -- -- --  -- -- -- -- -- -- -- --
01E0:                             5F 03 06 80 B0 10 10           _......
01F0: 01 B0 10 10 01 78 78 78  78 5F 03 0F 80 A3 10 10  .....xxxx_......
0200: 01 A3 10 10 01 78 78 78  78 00                    .....xxxx.      
```

#### Opcodes

```
  0: 0x01E9 [0x5F] MULTI_HANDLER_COMPLEX(mode=0x03 - Load ext scheduler (OpCode 0x5B mode 0), ref=3433*, entity1=Unnamed NPC (ID: 17830064/0x011010B0), entity2=Unnamed NPC (ID: 17830064/0x011010B0), string="xxxx")
  1: 0x01F9 [0x5F] MULTI_HANDLER_COMPLEX(mode=0x03 - Load ext scheduler (OpCode 0x5B mode 0), ref=3587*, entity1=Unnamed NPC (ID: 17830051/0x011010A3), entity2=Unnamed NPC (ID: 17830051/0x011010A3), string="xxxx")
  2: 0x0209 [0x00] END_REQSTACK()
```

### Event 65535.20

#### Metadata

| Field        | Value    |
|--------------|----------|
| Entrypoint   | 0x020A   |
| Data Size    | 33 bytes |
| Instructions | 3        |

```
      00 01 02 03 04 05 06 07  08 09 0A 0B 0C 0D 0E 0F
      -- -- -- -- -- -- -- --  -- -- -- -- -- -- -- --
0200:                                5F 03 10 80 90 10            _.....
0210: 10 01 90 10 10 01 78 78  78 78 5F 03 11 80 A0 10  ......xxxx_.....
0220: 10 01 A0 10 10 01 78 78  78 78 00                 ......xxxx.     
```

#### Opcodes

```
  0: 0x020A [0x5F] MULTI_HANDLER_COMPLEX(mode=0x03 - Load ext scheduler (OpCode 0x5B mode 0), ref=3545*, entity1=Arciela (ID: 17830032/0x01101090), entity2=Arciela (ID: 17830032/0x01101090), string="xxxx")
  1: 0x021A [0x5F] MULTI_HANDLER_COMPLEX(mode=0x03 - Load ext scheduler (OpCode 0x5B mode 0), ref=3602*, entity1=Unnamed NPC (ID: 17830048/0x011010A0), entity2=Unnamed NPC (ID: 17830048/0x011010A0), string="xxxx")
  2: 0x022A [0x00] END_REQSTACK()
```

### Event 65535.21

#### Metadata

| Field        | Value    |
|--------------|----------|
| Entrypoint   | 0x022B   |
| Data Size    | 33 bytes |
| Instructions | 3        |

```
      00 01 02 03 04 05 06 07  08 09 0A 0B 0C 0D 0E 0F
      -- -- -- -- -- -- -- --  -- -- -- -- -- -- -- --
0220:                                   5F 03 10 80 90             _....
0230: 10 10 01 90 10 10 01 78  78 78 78 5F 03 11 80 A0  .......xxxx_....
0240: 10 10 01 A0 10 10 01 78  78 78 78 00              .......xxxx.    
```

#### Opcodes

```
  0: 0x022B [0x5F] MULTI_HANDLER_COMPLEX(mode=0x03 - Load ext scheduler (OpCode 0x5B mode 0), ref=3545*, entity1=Arciela (ID: 17830032/0x01101090), entity2=Arciela (ID: 17830032/0x01101090), string="xxxx")
  1: 0x023B [0x5F] MULTI_HANDLER_COMPLEX(mode=0x03 - Load ext scheduler (OpCode 0x5B mode 0), ref=3602*, entity1=Unnamed NPC (ID: 17830048/0x011010A0), entity2=Unnamed NPC (ID: 17830048/0x011010A0), string="xxxx")
  2: 0x024B [0x00] END_REQSTACK()
```

### Event 65535.22

#### Metadata

| Field        | Value    |
|--------------|----------|
| Entrypoint   | 0x024C   |
| Data Size    | 33 bytes |
| Instructions | 3        |

```
      00 01 02 03 04 05 06 07  08 09 0A 0B 0C 0D 0E 0F
      -- -- -- -- -- -- -- --  -- -- -- -- -- -- -- --
0240:                                      5F 03 12 80              _...
0250: 90 10 10 01 90 10 10 01  78 78 78 78 5F 03 11 80  ........xxxx_...
0260: A0 10 10 01 A0 10 10 01  78 78 78 78 00           ........xxxx.   
```

#### Opcodes

```
  0: 0x024C [0x5F] MULTI_HANDLER_COMPLEX(mode=0x03 - Load ext scheduler (OpCode 0x5B mode 0), ref=3546*, entity1=Arciela (ID: 17830032/0x01101090), entity2=Arciela (ID: 17830032/0x01101090), string="xxxx")
  1: 0x025C [0x5F] MULTI_HANDLER_COMPLEX(mode=0x03 - Load ext scheduler (OpCode 0x5B mode 0), ref=3602*, entity1=Unnamed NPC (ID: 17830048/0x011010A0), entity2=Unnamed NPC (ID: 17830048/0x011010A0), string="xxxx")
  2: 0x026C [0x00] END_REQSTACK()
```

### Event 65535.23

#### Metadata

| Field        | Value    |
|--------------|----------|
| Entrypoint   | 0x026D   |
| Data Size    | 33 bytes |
| Instructions | 3        |

```
      00 01 02 03 04 05 06 07  08 09 0A 0B 0C 0D 0E 0F
      -- -- -- -- -- -- -- --  -- -- -- -- -- -- -- --
0260:                                         5F 03 12               _..
0270: 80 90 10 10 01 90 10 10  01 78 78 78 78 5F 03 11  .........xxxx_..
0280: 80 A0 10 10 01 A0 10 10  01 78 78 78 78 00        .........xxxx.  
```

#### Opcodes

```
  0: 0x026D [0x5F] MULTI_HANDLER_COMPLEX(mode=0x03 - Load ext scheduler (OpCode 0x5B mode 0), ref=3546*, entity1=Arciela (ID: 17830032/0x01101090), entity2=Arciela (ID: 17830032/0x01101090), string="xxxx")
  1: 0x027D [0x5F] MULTI_HANDLER_COMPLEX(mode=0x03 - Load ext scheduler (OpCode 0x5B mode 0), ref=3602*, entity1=Unnamed NPC (ID: 17830048/0x011010A0), entity2=Unnamed NPC (ID: 17830048/0x011010A0), string="xxxx")
  2: 0x028D [0x00] END_REQSTACK()
```

### Event 65535.24

#### Metadata

| Field        | Value    |
|--------------|----------|
| Entrypoint   | 0x028E   |
| Data Size    | 31 bytes |
| Instructions | 3        |

```
      00 01 02 03 04 05 06 07  08 09 0A 0B 0C 0D 0E 0F
      -- -- -- -- -- -- -- --  -- -- -- -- -- -- -- --
0280:                                            5B 13                [.
0290: 80 90 10 10 01 90 10 10  01 78 78 78 78 5B 14 80  .........xxxx[..
02A0: A0 10 10 01 A0 10 10 01  78 78 78 78 00           ........xxxx.   
```

#### Opcodes

```
  0: 0x028E [0x5B] LOAD_EXT_SCHEDULER: Load scheduler "xxxx" with entities [Arciela (ID: 17830032/0x01101090), Arciela (ID: 17830032/0x01101090)], work=3547*
  1: 0x029D [0x5B] LOAD_EXT_SCHEDULER: Load scheduler "xxxx" with entities [Unnamed NPC (ID: 17830048/0x011010A0), Unnamed NPC (ID: 17830048/0x011010A0)], work=3603*
  2: 0x02AC [0x00] END_REQSTACK()
```

### Event 65535.25

#### Metadata

| Field        | Value    |
|--------------|----------|
| Entrypoint   | 0x02AD   |
| Data Size    | 31 bytes |
| Instructions | 3        |

```
      00 01 02 03 04 05 06 07  08 09 0A 0B 0C 0D 0E 0F
      -- -- -- -- -- -- -- --  -- -- -- -- -- -- -- --
02A0:                                         5B 13 80               [..
02B0: 90 10 10 01 90 10 10 01  78 78 78 78 5B 14 80 A0  ........xxxx[...
02C0: 10 10 01 A0 10 10 01 78  78 78 78 00              .......xxxx.    
```

#### Opcodes

```
  0: 0x02AD [0x5B] LOAD_EXT_SCHEDULER: Load scheduler "xxxx" with entities [Arciela (ID: 17830032/0x01101090), Arciela (ID: 17830032/0x01101090)], work=3547*
  1: 0x02BC [0x5B] LOAD_EXT_SCHEDULER: Load scheduler "xxxx" with entities [Unnamed NPC (ID: 17830048/0x011010A0), Unnamed NPC (ID: 17830048/0x011010A0)], work=3603*
  2: 0x02CB [0x00] END_REQSTACK()
```

### Event 65535.26

#### Metadata

| Field        | Value    |
|--------------|----------|
| Entrypoint   | 0x02CC   |
| Data Size    | 31 bytes |
| Instructions | 3        |

```
      00 01 02 03 04 05 06 07  08 09 0A 0B 0C 0D 0E 0F
      -- -- -- -- -- -- -- --  -- -- -- -- -- -- -- --
02C0:                                      5B 13 80 90              [...
02D0: 10 10 01 90 10 10 01 78  78 78 78 5B 14 80 A0 10  .......xxxx[....
02E0: 10 01 A0 10 10 01 78 78  78 78 00                 ......xxxx.     
```

#### Opcodes

```
  0: 0x02CC [0x5B] LOAD_EXT_SCHEDULER: Load scheduler "xxxx" with entities [Arciela (ID: 17830032/0x01101090), Arciela (ID: 17830032/0x01101090)], work=3547*
  1: 0x02DB [0x5B] LOAD_EXT_SCHEDULER: Load scheduler "xxxx" with entities [Unnamed NPC (ID: 17830048/0x011010A0), Unnamed NPC (ID: 17830048/0x011010A0)], work=3603*
  2: 0x02EA [0x00] END_REQSTACK()
```

### Event 65535.27

#### Metadata

| Field        | Value    |
|--------------|----------|
| Entrypoint   | 0x02EB   |
| Data Size    | 33 bytes |
| Instructions | 3        |

```
      00 01 02 03 04 05 06 07  08 09 0A 0B 0C 0D 0E 0F
      -- -- -- -- -- -- -- --  -- -- -- -- -- -- -- --
02E0:                                   5F 03 10 80 90             _....
02F0: 10 10 01 90 10 10 01 78  78 78 78 5F 03 11 80 A0  .......xxxx_....
0300: 10 10 01 A0 10 10 01 78  78 78 78 00              .......xxxx.    
```

#### Opcodes

```
  0: 0x02EB [0x5F] MULTI_HANDLER_COMPLEX(mode=0x03 - Load ext scheduler (OpCode 0x5B mode 0), ref=3545*, entity1=Arciela (ID: 17830032/0x01101090), entity2=Arciela (ID: 17830032/0x01101090), string="xxxx")
  1: 0x02FB [0x5F] MULTI_HANDLER_COMPLEX(mode=0x03 - Load ext scheduler (OpCode 0x5B mode 0), ref=3602*, entity1=Unnamed NPC (ID: 17830048/0x011010A0), entity2=Unnamed NPC (ID: 17830048/0x011010A0), string="xxxx")
  2: 0x030B [0x00] END_REQSTACK()
```

### Event 65535.28

#### Metadata

| Field        | Value    |
|--------------|----------|
| Entrypoint   | 0x030C   |
| Data Size    | 31 bytes |
| Instructions | 3        |

```
      00 01 02 03 04 05 06 07  08 09 0A 0B 0C 0D 0E 0F
      -- -- -- -- -- -- -- --  -- -- -- -- -- -- -- --
0300:                                      5B 15 80 95              [...
0310: 10 10 01 95 10 10 01 78  78 78 78 5B 16 80 A2 10  .......xxxx[....
0320: 10 01 A2 10 10 01 78 78  78 78 00                 ......xxxx.     
```

#### Opcodes

```
  0: 0x030C [0x5B] LOAD_EXT_SCHEDULER: Load scheduler "xxxx" with entities [Ikhi Askamot (ID: 17830037/0x01101095), Ikhi Askamot (ID: 17830037/0x01101095)], work=3339*
  1: 0x031B [0x5B] LOAD_EXT_SCHEDULER: Load scheduler "xxxx" with entities [Unnamed NPC (ID: 17830050/0x011010A2), Unnamed NPC (ID: 17830050/0x011010A2)], work=3565*
  2: 0x032A [0x00] END_REQSTACK()
```

### Event 65535.29

#### Metadata

| Field        | Value    |
|--------------|----------|
| Entrypoint   | 0x032B   |
| Data Size    | 33 bytes |
| Instructions | 3        |

```
      00 01 02 03 04 05 06 07  08 09 0A 0B 0C 0D 0E 0F
      -- -- -- -- -- -- -- --  -- -- -- -- -- -- -- --
0320:                                   5F 03 04 80 B0             _....
0330: 10 10 01 B0 10 10 01 78  78 78 78 5F 03 17 80 8F  .......xxxx_....
0340: 10 10 01 8F 10 10 01 78  78 78 78 00              .......xxxx.    
```

#### Opcodes

```
  0: 0x032B [0x5F] MULTI_HANDLER_COMPLEX(mode=0x03 - Load ext scheduler (OpCode 0x5B mode 0), ref=3432*, entity1=Unnamed NPC (ID: 17830064/0x011010B0), entity2=Unnamed NPC (ID: 17830064/0x011010B0), string="xxxx")
  1: 0x033B [0x5F] MULTI_HANDLER_COMPLEX(mode=0x03 - Load ext scheduler (OpCode 0x5B mode 0), ref=3539*, entity1=Arciela (ID: 17830031/0x0110108F), entity2=Arciela (ID: 17830031/0x0110108F), string="xxxx")
  2: 0x034B [0x00] END_REQSTACK()
```

### Event 65535.30

#### Metadata

| Field        | Value    |
|--------------|----------|
| Entrypoint   | 0x034C   |
| Data Size    | 33 bytes |
| Instructions | 3        |

```
      00 01 02 03 04 05 06 07  08 09 0A 0B 0C 0D 0E 0F
      -- -- -- -- -- -- -- --  -- -- -- -- -- -- -- --
0340:                                      5F 03 18 80              _...
0350: 8F 10 10 01 8F 10 10 01  78 78 78 78 5F 03 19 80  ........xxxx_...
0360: A1 10 10 01 A1 10 10 01  78 78 78 78 00           ........xxxx.   
```

#### Opcodes

```
  0: 0x034C [0x5F] MULTI_HANDLER_COMPLEX(mode=0x03 - Load ext scheduler (OpCode 0x5B mode 0), ref=3543*, entity1=Arciela (ID: 17830031/0x0110108F), entity2=Arciela (ID: 17830031/0x0110108F), string="xxxx")
  1: 0x035C [0x5F] MULTI_HANDLER_COMPLEX(mode=0x03 - Load ext scheduler (OpCode 0x5B mode 0), ref=3324*, entity1=Unnamed NPC (ID: 17830049/0x011010A1), entity2=Unnamed NPC (ID: 17830049/0x011010A1), string="xxxx")
  2: 0x036C [0x00] END_REQSTACK()
```

### Event 65535.31

#### Metadata

| Field        | Value    |
|--------------|----------|
| Entrypoint   | 0x036D   |
| Data Size    | 33 bytes |
| Instructions | 3        |

```
      00 01 02 03 04 05 06 07  08 09 0A 0B 0C 0D 0E 0F
      -- -- -- -- -- -- -- --  -- -- -- -- -- -- -- --
0360:                                         5F 03 1A               _..
0370: 80 8F 10 10 01 8F 10 10  01 78 78 78 78 5F 03 19  .........xxxx_..
0380: 80 A1 10 10 01 A1 10 10  01 78 78 78 78 00        .........xxxx.  
```

#### Opcodes

```
  0: 0x036D [0x5F] MULTI_HANDLER_COMPLEX(mode=0x03 - Load ext scheduler (OpCode 0x5B mode 0), ref=3544*, entity1=Arciela (ID: 17830031/0x0110108F), entity2=Arciela (ID: 17830031/0x0110108F), string="xxxx")
  1: 0x037D [0x5F] MULTI_HANDLER_COMPLEX(mode=0x03 - Load ext scheduler (OpCode 0x5B mode 0), ref=3324*, entity1=Unnamed NPC (ID: 17830049/0x011010A1), entity2=Unnamed NPC (ID: 17830049/0x011010A1), string="xxxx")
  2: 0x038D [0x00] END_REQSTACK()
```
