# 17830061

## Common Data

| Field            | Value                     |
|------------------|---------------------------|
| Zone             | Eastern Adoulin (ID: 257) |
| Block Size       | 448 bytes                 |
| Total Events     | 12                        |
| References Count | 29                        |

## List of Events

| Event ID                 | Entrypoint   |   Size |   Instructions |
|--------------------------|--------------|--------|----------------|
| [65535](#event-65535)    | 0x0000       |      1 |              1 |
| [1503](#event-1503)      | 0x0001       |      1 |              1 |
| [65535.1](#event-655351) | 0x0002       |     14 |              4 |
| [1506](#event-1506)      | 0x0010       |     45 |              4 |
| [65535.2](#event-655352) | 0x003D       |     21 |              2 |
| [65535.3](#event-655353) | 0x0052       |     25 |              3 |
| [1507](#event-1507)      | 0x006B       |     45 |              4 |
| [1511](#event-1511)      | 0x0098       |     21 |              2 |
| [1513](#event-1513)      | 0x00AD       |     45 |              4 |
| [65535.4](#event-655354) | 0x00DA       |     14 |              4 |
| [65535.5](#event-655355) | 0x00E8       |     14 |              4 |
| [65535.6](#event-655356) | 0x00F6       |     22 |              6 |

## DAT References (imed_data)

|   Index | Hex Value   |   Dec Value |
|---------|-------------|-------------|
|       0 | 0x0028      |          40 |
|       1 | 0xFFFECF3A  |  4294889274 |
|       2 | 0x00C1      |         193 |
|       3 | 0xFFFFFF6A  |  4294967146 |
|       4 | 0x0002      |           2 |
|       5 | 0x0000      |           0 |
|       6 | 0x00E5      |         229 |
|       7 | 0x00B8      |         184 |
|       8 | 0x0058      |          88 |
|       9 | 0x013B      |         315 |
|      10 | 0x0008      |           8 |
|      11 | 0x0001      |           1 |
|      12 | 0x0156      |         342 |
|      13 | 0x0159      |         345 |
|      14 | 0x0158      |         344 |
|      15 | 0x0003      |           3 |
|      16 | 0x0014      |          20 |
|      17 | 0x0135      |         309 |
|      18 | 0x0017      |          23 |
|      19 | 0x0066      |         102 |
|      20 | 0x015C      |         348 |
|      21 | 0x003F      |          63 |
|      22 | 0xFFFFED3F  |  4294962495 |
|      23 | 0x00D1      |         209 |
|      24 | 0xFFFFFA18  |  4294965784 |
|      25 | 0x000D      |          13 |
|      26 | 0xFFFFFBD7  |  4294966231 |
|      27 | 0xFFFFFCDC  |  4294966492 |
|      28 | 0x001E      |          30 |

## Events

### Event 65535

#### Metadata

| Field        | Value   |
|--------------|---------|
| Entrypoint   | 0x0000  |
| Data Size    | 1 bytes |
| Instructions | 1       |

```
      00 01 02 03 04 05 06 07  08 09 0A 0B 0C 0D 0E 0F
      -- -- -- -- -- -- -- --  -- -- -- -- -- -- -- --
0000: 00                                                .               
```

#### Opcodes

```
  0: 0x0000 [0x00] END_REQSTACK()
```

### Event 1503

#### Metadata

| Field        | Value   |
|--------------|---------|
| Entrypoint   | 0x0001  |
| Data Size    | 1 bytes |
| Instructions | 1       |

```
      00 01 02 03 04 05 06 07  08 09 0A 0B 0C 0D 0E 0F
      -- -- -- -- -- -- -- --  -- -- -- -- -- -- -- --
0000:    00                                              .              
```

#### Opcodes

```
  0: 0x0001 [0x00] END_REQSTACK()
```

### Event 65535.1

#### Metadata

| Field        | Value    |
|--------------|----------|
| Entrypoint   | 0x0002   |
| Data Size    | 14 bytes |
| Instructions | 4        |

```
      00 01 02 03 04 05 06 07  08 09 0A 0B 0C 0D 0E 0F
      -- -- -- -- -- -- -- --  -- -- -- -- -- -- -- --
0000:       32 00 80 1F 00 01  80 02 80 03 80 1F 01 00    2.............
```

#### Opcodes

```
  0: 0x0002 [0x32] ExtData[1]->MainSpeed = 40* * 0.1
  1: 0x0005 [0x1F] MOVE_ENTITY: EventEntity moves to X=-78.022*, Z=0.193*, Y=-0.150*
  2: 0x000D [0x1F] MOVE_ENTITY: Update entity position (mode=1)
  3: 0x000F [0x00] END_REQSTACK()
```

### Event 1506

#### Metadata

| Field        | Value    |
|--------------|----------|
| Entrypoint   | 0x0010   |
| Data Size    | 45 bytes |
| Instructions | 4        |

```
      00 01 02 03 04 05 06 07  08 09 0A 0B 0C 0D 0E 0F
      -- -- -- -- -- -- -- --  -- -- -- -- -- -- -- --
0010: B6 0B 04 80 04 80 05 80  06 80 07 80 08 80 07 80  ................
0020: 05 80 09 80 B4 00 00 00  4D 69 73 74 64 61 67 67  ........Mistdagg
0030: 65 72 00 00 00 00 00 00  B5 00 00 00 00           er...........   
```

#### Opcodes

```
  0: 0x0010 [0xB6] ENTITY_APPEARANCE_HANDLER(case=Full entity look, race=2*, hair=2*, head=0*, body=229*, hands=184*, legs=88*, feet=184*, main=0*, sub=315*)
  1: 0x0024 [0xB4] UI_WINDOW_STRING_HANDLER(case=0x00 - Copy string from opcode, work_offset=ExtData[1]->WorkLocal[0], string="Mistdagger")
  2: 0x0038 [0xB5] SET_EVENT_ENTITY_NAME: Change EventEntity name to ExtData[1]->WorkLocal[0]
  3: 0x003C [0x00] END_REQSTACK()
```

### Event 65535.2

#### Metadata

| Field        | Value    |
|--------------|----------|
| Entrypoint   | 0x003D   |
| Data Size    | 21 bytes |
| Instructions | 2        |

```
      00 01 02 03 04 05 06 07  08 09 0A 0B 0C 0D 0E 0F
      -- -- -- -- -- -- -- --  -- -- -- -- -- -- -- --
0030:                                         B6 0B 0A               ...
0040: 80 0B 80 0C 80 0C 80 0C  80 0C 80 0C 80 05 80 05  ................
0050: 80 00                                             ..              
```

#### Opcodes

```
  0: 0x003D [0xB6] ENTITY_APPEARANCE_HANDLER(case=Full entity look, race=8*, hair=1*, head=342*, body=342*, hands=342*, legs=342*, feet=342*, main=0*, sub=0*)
  1: 0x0051 [0x00] END_REQSTACK()
```

### Event 65535.3

#### Metadata

| Field        | Value    |
|--------------|----------|
| Entrypoint   | 0x0052   |
| Data Size    | 25 bytes |
| Instructions | 3        |

```
      00 01 02 03 04 05 06 07  08 09 0A 0B 0C 0D 0E 0F
      -- -- -- -- -- -- -- --  -- -- -- -- -- -- -- --
0050:       B4 00 00 00 00 00  00 00 00 00 00 00 00 00    ..............
0060: 00 00 00 00 00 00 B5 00  00 00 00                 ...........     
```

#### Opcodes

```
  0: 0x0052 [0xB4] UI_WINDOW_STRING_HANDLER(case=0x00 - Copy string from opcode, work_offset=ExtData[1]->WorkLocal[0], string="")
  1: 0x0066 [0xB5] SET_EVENT_ENTITY_NAME: Change EventEntity name to ExtData[1]->WorkLocal[0]
  2: 0x006A [0x00] END_REQSTACK()
```

### Event 1507

#### Metadata

| Field        | Value    |
|--------------|----------|
| Entrypoint   | 0x006B   |
| Data Size    | 45 bytes |
| Instructions | 4        |

```
      00 01 02 03 04 05 06 07  08 09 0A 0B 0C 0D 0E 0F
      -- -- -- -- -- -- -- --  -- -- -- -- -- -- -- --
0060:                                   B6 0B 0B 80 0B             .....
0070: 80 0D 80 0E 80 05 80 0E  80 0F 80 05 80 05 80 B4  ................
0080: 13 00 00 54 68 65 40 4B  65 65 70 65 72 00 00 00  ...The@Keeper...
0090: 00 00 00 B5 00 00 00 00                           ........        
```

#### Opcodes

```
  0: 0x006B [0xB6] ENTITY_APPEARANCE_HANDLER(case=Full entity look, race=1*, hair=1*, head=345*, body=344*, hands=0*, legs=344*, feet=3*, main=0*, sub=0*)
  1: 0x007F [0xB4] UI_WINDOW_STRING_HANDLER(case=0x13 - Copy string and replace @ with space, work_offset=ExtData[1]->WorkLocal[0], string="The@Keeper")
  2: 0x0093 [0xB5] SET_EVENT_ENTITY_NAME: Change EventEntity name to ExtData[1]->WorkLocal[0]
  3: 0x0097 [0x00] END_REQSTACK()
```

### Event 1511

#### Metadata

| Field        | Value    |
|--------------|----------|
| Entrypoint   | 0x0098   |
| Data Size    | 21 bytes |
| Instructions | 2        |

```
      00 01 02 03 04 05 06 07  08 09 0A 0B 0C 0D 0E 0F
      -- -- -- -- -- -- -- --  -- -- -- -- -- -- -- --
0090:                          B6 0B 04 80 0F 80 10 80          ........
00A0: 11 80 12 80 13 80 14 80  05 80 05 80 00           .............   
```

#### Opcodes

```
  0: 0x0098 [0xB6] ENTITY_APPEARANCE_HANDLER(case=Full entity look, race=2*, hair=3*, head=20*, body=309*, hands=23*, legs=102*, feet=348*, main=0*, sub=0*)
  1: 0x00AC [0x00] END_REQSTACK()
```

### Event 1513

#### Metadata

| Field        | Value    |
|--------------|----------|
| Entrypoint   | 0x00AD   |
| Data Size    | 45 bytes |
| Instructions | 4        |

```
      00 01 02 03 04 05 06 07  08 09 0A 0B 0C 0D 0E 0F
      -- -- -- -- -- -- -- --  -- -- -- -- -- -- -- --
00A0:                                         B6 0B 04               ...
00B0: 80 0F 80 10 80 11 80 12  80 13 80 14 80 05 80 05  ................
00C0: 80 B4 00 00 00 4E 79 6C  69 6E 65 00 00 00 00 00  .....Nyline.....
00D0: 00 00 00 00 00 B5 00 00  00 00                    ..........      
```

#### Opcodes

```
  0: 0x00AD [0xB6] ENTITY_APPEARANCE_HANDLER(case=Full entity look, race=2*, hair=3*, head=20*, body=309*, hands=23*, legs=102*, feet=348*, main=0*, sub=0*)
  1: 0x00C1 [0xB4] UI_WINDOW_STRING_HANDLER(case=0x00 - Copy string from opcode, work_offset=ExtData[1]->WorkLocal[0], string="Nyline")
  2: 0x00D5 [0xB5] SET_EVENT_ENTITY_NAME: Change EventEntity name to ExtData[1]->WorkLocal[0]
  3: 0x00D9 [0x00] END_REQSTACK()
```

### Event 65535.4

#### Metadata

| Field        | Value    |
|--------------|----------|
| Entrypoint   | 0x00DA   |
| Data Size    | 14 bytes |
| Instructions | 4        |

```
      00 01 02 03 04 05 06 07  08 09 0A 0B 0C 0D 0E 0F
      -- -- -- -- -- -- -- --  -- -- -- -- -- -- -- --
00D0:                                32 00 80 1F 00 15            2.....
00E0: 80 16 80 05 80 1F 01 00                           ........        
```

#### Opcodes

```
  0: 0x00DA [0x32] ExtData[1]->MainSpeed = 40* * 0.1
  1: 0x00DD [0x1F] MOVE_ENTITY: EventEntity moves to X=0.063*, Z=-4.801*, Y=0.000*
  2: 0x00E5 [0x1F] MOVE_ENTITY: Update entity position (mode=1)
  3: 0x00E7 [0x00] END_REQSTACK()
```

### Event 65535.5

#### Metadata

| Field        | Value    |
|--------------|----------|
| Entrypoint   | 0x00E8   |
| Data Size    | 14 bytes |
| Instructions | 4        |

```
      00 01 02 03 04 05 06 07  08 09 0A 0B 0C 0D 0E 0F
      -- -- -- -- -- -- -- --  -- -- -- -- -- -- -- --
00E0:                          32 00 80 1F 00 17 80 18          2.......
00F0: 80 05 80 1F 01 00                                 ......          
```

#### Opcodes

```
  0: 0x00E8 [0x32] ExtData[1]->MainSpeed = 40* * 0.1
  1: 0x00EB [0x1F] MOVE_ENTITY: EventEntity moves to X=0.209*, Z=-1.512*, Y=0.000*
  2: 0x00F3 [0x1F] MOVE_ENTITY: Update entity position (mode=1)
  3: 0x00F5 [0x00] END_REQSTACK()
```

### Event 65535.6

#### Metadata

| Field        | Value    |
|--------------|----------|
| Entrypoint   | 0x00F6   |
| Data Size    | 22 bytes |
| Instructions | 6        |

```
      00 01 02 03 04 05 06 07  08 09 0A 0B 0C 0D 0E 0F
      -- -- -- -- -- -- -- --  -- -- -- -- -- -- -- --
00F0:                   32 19  80 1F 00 1A 80 1B 80 05        2.........
0100: 80 1F 01 1E F0 FF FF 7F  1C 1C 80 00              ............    
```

#### Opcodes

```
  0: 0x00F6 [0x32] ExtData[1]->MainSpeed = 13* * 0.1
  1: 0x00F9 [0x1F] MOVE_ENTITY: EventEntity moves to X=-1.065*, Z=-0.804*, Y=0.000*
  2: 0x0101 [0x1F] MOVE_ENTITY: Update entity position (mode=1)
  3: 0x0103 [0x1E] EventEntity looks at LocalPlayer and starts talking
  4: 0x0108 [0x1C] WAIT(30* ticks)
  5: 0x010B [0x00] END_REQSTACK()
```
