# 17830136 - Lhaiso Neftereh

## Common Data

| Field            | Value                     |
|------------------|---------------------------|
| Zone             | Eastern Adoulin (ID: 257) |
| Block Size       | 932 bytes                 |
| Total Events     | 41                        |
| References Count | 39                        |

## List of Events

| Event ID                   | Entrypoint   |   Size |   Instructions |
|----------------------------|--------------|--------|----------------|
| [65535](#event-65535)      | 0x0000       |      1 |              1 |
| [65535.1](#event-655351)   | 0x0001       |     16 |              2 |
| [65535.2](#event-655352)   | 0x0011       |     14 |              2 |
| [65535.3](#event-655353)   | 0x001F       |     16 |              2 |
| [65535.4](#event-655354)   | 0x002F       |     14 |              2 |
| [65535.5](#event-655355)   | 0x003D       |     16 |              2 |
| [65535.6](#event-655356)   | 0x004D       |     14 |              2 |
| [65535.7](#event-655357)   | 0x005B       |     16 |              2 |
| [65535.8](#event-655358)   | 0x006B       |     14 |              2 |
| [65535.9](#event-655359)   | 0x0079       |     16 |              2 |
| [65535.10](#event-6553510) | 0x0089       |     14 |              2 |
| [65535.11](#event-6553511) | 0x0097       |     16 |              2 |
| [65535.12](#event-6553512) | 0x00A7       |     14 |              2 |
| [65535.13](#event-6553513) | 0x00B5       |     16 |              2 |
| [65535.14](#event-6553514) | 0x00C5       |     14 |              2 |
| [65535.15](#event-6553515) | 0x00D3       |     16 |              2 |
| [65535.16](#event-6553516) | 0x00E3       |     14 |              2 |
| [65535.17](#event-6553517) | 0x00F1       |     16 |              2 |
| [65535.18](#event-6553518) | 0x0101       |     14 |              2 |
| [65535.19](#event-6553519) | 0x010F       |     16 |              2 |
| [65535.20](#event-6553520) | 0x011F       |     14 |              2 |
| [65535.21](#event-6553521) | 0x012D       |     16 |              2 |
| [65535.22](#event-6553522) | 0x013D       |     14 |              2 |
| [65535.23](#event-6553523) | 0x014B       |     16 |              4 |
| [65535.24](#event-6553524) | 0x015B       |     16 |              4 |
| [65535.25](#event-6553525) | 0x016B       |     16 |              4 |
| [65535.26](#event-6553526) | 0x017B       |     16 |              4 |
| [34](#event-34)            | 0x018B       |      1 |              1 |
| [37](#event-37)            | 0x018C       |      9 |              3 |
| [39](#event-39)            | 0x0195       |      9 |              3 |
| [65535.27](#event-6553527) | 0x019E       |     16 |              3 |
| [65535.28](#event-6553528) | 0x01AE       |     23 |              8 |
| [65535.29](#event-6553529) | 0x01C5       |     10 |              2 |
| [65535.30](#event-6553530) | 0x01CF       |     14 |              4 |
| [65535.31](#event-6553531) | 0x01DD       |     45 |              7 |
| [65535.32](#event-6553532) | 0x020A       |     14 |              4 |
| [65535.33](#event-6553533) | 0x0218       |     10 |              2 |
| [65535.34](#event-6553534) | 0x0222       |     14 |              4 |
| [65535.35](#event-6553535) | 0x0230       |     10 |              2 |
| [65535.36](#event-6553536) | 0x023A       |     10 |              2 |
| [65535.37](#event-6553537) | 0x0244       |     14 |              4 |

## DAT References (imed_data)

|   Index | Hex Value   |   Dec Value |
|---------|-------------|-------------|
|       0 | 0x00C7      |         199 |
|       1 | 0x007F      |         127 |
|       2 | 0x003B      |          59 |
|       3 | 0x00C5      |         197 |
|       4 | 0x0015      |          21 |
|       5 | 0x003C      |          60 |
|       6 | 0x0013      |          19 |
|       7 | 0x0007      |           7 |
|       8 | 0x0006      |           6 |
|       9 | 0x4703      |       18179 |
|      10 | 0x62C7      |       25287 |
|      11 | 0xFFFFAA10  |  4294945296 |
|      12 | 0x0D2E      |        3374 |
|      13 | 0x000D      |          13 |
|      14 | 0x564B      |       22091 |
|      15 | 0x78F5      |       30965 |
|      16 | 0x01D9      |         473 |
|      17 | 0xFFFFB4E0  |  4294948064 |
|      18 | 0x0000      |           0 |
|      19 | 0x0C06      |        3078 |
|      20 | 0x0222      |         546 |
|      21 | 0xFFFFD513  |  4294956307 |
|      22 | 0xFFFFDA8B  |  4294957707 |
|      23 | 0x0014      |          20 |
|      24 | 0x0028      |          40 |
|      25 | 0x0004      |           4 |
|      26 | 0xFFFFC90D  |  4294953229 |
|      27 | 0x0185      |         389 |
|      28 | 0x09B8      |        2488 |
|      29 | 0x04DA      |        1242 |
|      30 | 0x0016      |          22 |
|      31 | 0xFFFFF6F0  |  4294964976 |
|      32 | 0x0017      |          23 |
|      33 | 0x09BF      |        2495 |
|      34 | 0x0400      |        1024 |
|      35 | 0x0592      |        1426 |
|      36 | 0xFFFFF938  |  4294965560 |
|      37 | 0x0BED      |        3053 |
|      38 | 0x07D0      |        2000 |

## Events

### Event 65535

#### Metadata

| Field        | Value   |
|--------------|---------|
| Entrypoint   | 0x0000  |
| Data Size    | 1 bytes |
| Instructions | 1       |

```
      00 01 02 03 04 05 06 07  08 09 0A 0B 0C 0D 0E 0F
      -- -- -- -- -- -- -- --  -- -- -- -- -- -- -- --
0000: 00                                                .               
```

#### Opcodes

```
  0: 0x0000 [0x00] END_REQSTACK()
```

### Event 65535.1

#### Metadata

| Field        | Value    |
|--------------|----------|
| Entrypoint   | 0x0001   |
| Data Size    | 16 bytes |
| Instructions | 2        |

```
      00 01 02 03 04 05 06 07  08 09 0A 0B 0C 0D 0E 0F
      -- -- -- -- -- -- -- --  -- -- -- -- -- -- -- --
0000:    66 00 80 F8 FF FF 7F  F8 FF FF 7F 74 6C 6B 30   f..........tlk0
0010: 00                                                .               
```

#### Opcodes

```
  0: 0x0001 [0x66] LOAD_EXT_SCHEDULER_MAIN: Load scheduler "tlk0" with entities [EventEntity, EventEntity], work=199*
  1: 0x0010 [0x00] END_REQSTACK()
```

### Event 65535.2

#### Metadata

| Field        | Value    |
|--------------|----------|
| Entrypoint   | 0x0011   |
| Data Size    | 14 bytes |
| Instructions | 2        |

```
      00 01 02 03 04 05 06 07  08 09 0A 0B 0C 0D 0E 0F
      -- -- -- -- -- -- -- --  -- -- -- -- -- -- -- --
0010:    53 F8 FF FF 7F F8 FF  FF 7F 74 6C 6B 30 00      S........tlk0. 
```

#### Opcodes

```
  0: 0x0011 [0x53] WAIT_SCHEDULER_TASK: Wait for scheduler "tlk0" with entities [EventEntity, EventEntity]
  1: 0x001E [0x00] END_REQSTACK()
```

### Event 65535.3

#### Metadata

| Field        | Value    |
|--------------|----------|
| Entrypoint   | 0x001F   |
| Data Size    | 16 bytes |
| Instructions | 2        |

```
      00 01 02 03 04 05 06 07  08 09 0A 0B 0C 0D 0E 0F
      -- -- -- -- -- -- -- --  -- -- -- -- -- -- -- --
0010:                                               66                 f
0020: 00 80 F8 FF FF 7F F8 FF  FF 7F 74 6C 6B 31 00     ..........tlk1. 
```

#### Opcodes

```
  0: 0x001F [0x66] LOAD_EXT_SCHEDULER_MAIN: Load scheduler "tlk1" with entities [EventEntity, EventEntity], work=199*
  1: 0x002E [0x00] END_REQSTACK()
```

### Event 65535.4

#### Metadata

| Field        | Value    |
|--------------|----------|
| Entrypoint   | 0x002F   |
| Data Size    | 14 bytes |
| Instructions | 2        |

```
      00 01 02 03 04 05 06 07  08 09 0A 0B 0C 0D 0E 0F
      -- -- -- -- -- -- -- --  -- -- -- -- -- -- -- --
0020:                                               53                 S
0030: F8 FF FF 7F F8 FF FF 7F  74 6C 6B 31 00           ........tlk1.   
```

#### Opcodes

```
  0: 0x002F [0x53] WAIT_SCHEDULER_TASK: Wait for scheduler "tlk1" with entities [EventEntity, EventEntity]
  1: 0x003C [0x00] END_REQSTACK()
```

### Event 65535.5

#### Metadata

| Field        | Value    |
|--------------|----------|
| Entrypoint   | 0x003D   |
| Data Size    | 16 bytes |
| Instructions | 2        |

```
      00 01 02 03 04 05 06 07  08 09 0A 0B 0C 0D 0E 0F
      -- -- -- -- -- -- -- --  -- -- -- -- -- -- -- --
0030:                                         66 01 80               f..
0040: F8 FF FF 7F F8 FF FF 7F  70 61 73 30 00           ........pas0.   
```

#### Opcodes

```
  0: 0x003D [0x66] LOAD_EXT_SCHEDULER_MAIN: Load scheduler "pas0" with entities [EventEntity, EventEntity], work=127*
  1: 0x004C [0x00] END_REQSTACK()
```

### Event 65535.6

#### Metadata

| Field        | Value    |
|--------------|----------|
| Entrypoint   | 0x004D   |
| Data Size    | 14 bytes |
| Instructions | 2        |

```
      00 01 02 03 04 05 06 07  08 09 0A 0B 0C 0D 0E 0F
      -- -- -- -- -- -- -- --  -- -- -- -- -- -- -- --
0040:                                         53 F8 FF               S..
0050: FF 7F F8 FF FF 7F 70 61  73 30 00                 ......pas0.     
```

#### Opcodes

```
  0: 0x004D [0x53] WAIT_SCHEDULER_TASK: Wait for scheduler "pas0" with entities [EventEntity, EventEntity]
  1: 0x005A [0x00] END_REQSTACK()
```

### Event 65535.7

#### Metadata

| Field        | Value    |
|--------------|----------|
| Entrypoint   | 0x005B   |
| Data Size    | 16 bytes |
| Instructions | 2        |

```
      00 01 02 03 04 05 06 07  08 09 0A 0B 0C 0D 0E 0F
      -- -- -- -- -- -- -- --  -- -- -- -- -- -- -- --
0050:                                   66 01 80 F8 FF             f....
0060: FF 7F F8 FF FF 7F 73 69  6E 62 00                 ......sinb.     
```

#### Opcodes

```
  0: 0x005B [0x66] LOAD_EXT_SCHEDULER_MAIN: Load scheduler "sinb" with entities [EventEntity, EventEntity], work=127*
  1: 0x006A [0x00] END_REQSTACK()
```

### Event 65535.8

#### Metadata

| Field        | Value    |
|--------------|----------|
| Entrypoint   | 0x006B   |
| Data Size    | 14 bytes |
| Instructions | 2        |

```
      00 01 02 03 04 05 06 07  08 09 0A 0B 0C 0D 0E 0F
      -- -- -- -- -- -- -- --  -- -- -- -- -- -- -- --
0060:                                   53 F8 FF FF 7F             S....
0070: F8 FF FF 7F 73 69 6E 62  00                       ....sinb.       
```

#### Opcodes

```
  0: 0x006B [0x53] WAIT_SCHEDULER_TASK: Wait for scheduler "sinb" with entities [EventEntity, EventEntity]
  1: 0x0078 [0x00] END_REQSTACK()
```

### Event 65535.9

#### Metadata

| Field        | Value    |
|--------------|----------|
| Entrypoint   | 0x0079   |
| Data Size    | 16 bytes |
| Instructions | 2        |

```
      00 01 02 03 04 05 06 07  08 09 0A 0B 0C 0D 0E 0F
      -- -- -- -- -- -- -- --  -- -- -- -- -- -- -- --
0070:                             66 02 80 F8 FF FF 7F           f......
0080: F8 FF FF 7F 74 6C 6B 30  00                       ....tlk0.       
```

#### Opcodes

```
  0: 0x0079 [0x66] LOAD_EXT_SCHEDULER_MAIN: Load scheduler "tlk0" with entities [EventEntity, EventEntity], work=59*
  1: 0x0088 [0x00] END_REQSTACK()
```

### Event 65535.10

#### Metadata

| Field        | Value    |
|--------------|----------|
| Entrypoint   | 0x0089   |
| Data Size    | 14 bytes |
| Instructions | 2        |

```
      00 01 02 03 04 05 06 07  08 09 0A 0B 0C 0D 0E 0F
      -- -- -- -- -- -- -- --  -- -- -- -- -- -- -- --
0080:                             53 F8 FF FF 7F F8 FF           S......
0090: FF 7F 74 6C 6B 30 00                              ..tlk0.         
```

#### Opcodes

```
  0: 0x0089 [0x53] WAIT_SCHEDULER_TASK: Wait for scheduler "tlk0" with entities [EventEntity, EventEntity]
  1: 0x0096 [0x00] END_REQSTACK()
```

### Event 65535.11

#### Metadata

| Field        | Value    |
|--------------|----------|
| Entrypoint   | 0x0097   |
| Data Size    | 16 bytes |
| Instructions | 2        |

```
      00 01 02 03 04 05 06 07  08 09 0A 0B 0C 0D 0E 0F
      -- -- -- -- -- -- -- --  -- -- -- -- -- -- -- --
0090:                      66  02 80 F8 FF FF 7F F8 FF         f........
00A0: FF 7F 74 6C 6B 31 00                              ..tlk1.         
```

#### Opcodes

```
  0: 0x0097 [0x66] LOAD_EXT_SCHEDULER_MAIN: Load scheduler "tlk1" with entities [EventEntity, EventEntity], work=59*
  1: 0x00A6 [0x00] END_REQSTACK()
```

### Event 65535.12

#### Metadata

| Field        | Value    |
|--------------|----------|
| Entrypoint   | 0x00A7   |
| Data Size    | 14 bytes |
| Instructions | 2        |

```
      00 01 02 03 04 05 06 07  08 09 0A 0B 0C 0D 0E 0F
      -- -- -- -- -- -- -- --  -- -- -- -- -- -- -- --
00A0:                      53  F8 FF FF 7F F8 FF FF 7F         S........
00B0: 74 6C 6B 31 00                                    tlk1.           
```

#### Opcodes

```
  0: 0x00A7 [0x53] WAIT_SCHEDULER_TASK: Wait for scheduler "tlk1" with entities [EventEntity, EventEntity]
  1: 0x00B4 [0x00] END_REQSTACK()
```

### Event 65535.13

#### Metadata

| Field        | Value    |
|--------------|----------|
| Entrypoint   | 0x00B5   |
| Data Size    | 16 bytes |
| Instructions | 2        |

```
      00 01 02 03 04 05 06 07  08 09 0A 0B 0C 0D 0E 0F
      -- -- -- -- -- -- -- --  -- -- -- -- -- -- -- --
00B0:                66 02 80  F8 FF FF 7F F8 FF FF 7F       f..........
00C0: 74 68 6B 31 00                                    thk1.           
```

#### Opcodes

```
  0: 0x00B5 [0x66] LOAD_EXT_SCHEDULER_MAIN: Load scheduler "thk1" with entities [EventEntity, EventEntity], work=59*
  1: 0x00C4 [0x00] END_REQSTACK()
```

### Event 65535.14

#### Metadata

| Field        | Value    |
|--------------|----------|
| Entrypoint   | 0x00C5   |
| Data Size    | 14 bytes |
| Instructions | 2        |

```
      00 01 02 03 04 05 06 07  08 09 0A 0B 0C 0D 0E 0F
      -- -- -- -- -- -- -- --  -- -- -- -- -- -- -- --
00C0:                53 F8 FF  FF 7F F8 FF FF 7F 74 68       S........th
00D0: 6B 31 00                                          k1.             
```

#### Opcodes

```
  0: 0x00C5 [0x53] WAIT_SCHEDULER_TASK: Wait for scheduler "thk1" with entities [EventEntity, EventEntity]
  1: 0x00D2 [0x00] END_REQSTACK()
```

### Event 65535.15

#### Metadata

| Field        | Value    |
|--------------|----------|
| Entrypoint   | 0x00D3   |
| Data Size    | 16 bytes |
| Instructions | 2        |

```
      00 01 02 03 04 05 06 07  08 09 0A 0B 0C 0D 0E 0F
      -- -- -- -- -- -- -- --  -- -- -- -- -- -- -- --
00D0:          66 02 80 F8 FF  FF 7F F8 FF FF 7F 74 68     f..........th
00E0: 6B 32 00                                          k2.             
```

#### Opcodes

```
  0: 0x00D3 [0x66] LOAD_EXT_SCHEDULER_MAIN: Load scheduler "thk2" with entities [EventEntity, EventEntity], work=59*
  1: 0x00E2 [0x00] END_REQSTACK()
```

### Event 65535.16

#### Metadata

| Field        | Value    |
|--------------|----------|
| Entrypoint   | 0x00E3   |
| Data Size    | 14 bytes |
| Instructions | 2        |

```
      00 01 02 03 04 05 06 07  08 09 0A 0B 0C 0D 0E 0F
      -- -- -- -- -- -- -- --  -- -- -- -- -- -- -- --
00E0:          53 F8 FF FF 7F  F8 FF FF 7F 74 68 6B 32     S........thk2
00F0: 00                                                .               
```

#### Opcodes

```
  0: 0x00E3 [0x53] WAIT_SCHEDULER_TASK: Wait for scheduler "thk2" with entities [EventEntity, EventEntity]
  1: 0x00F0 [0x00] END_REQSTACK()
```

### Event 65535.17

#### Metadata

| Field        | Value    |
|--------------|----------|
| Entrypoint   | 0x00F1   |
| Data Size    | 16 bytes |
| Instructions | 2        |

```
      00 01 02 03 04 05 06 07  08 09 0A 0B 0C 0D 0E 0F
      -- -- -- -- -- -- -- --  -- -- -- -- -- -- -- --
00F0:    66 03 80 F8 FF FF 7F  F8 FF FF 7F 67 6F 68 30   f..........goh0
0100: 00                                                .               
```

#### Opcodes

```
  0: 0x00F1 [0x66] LOAD_EXT_SCHEDULER_MAIN: Load scheduler "goh0" with entities [EventEntity, EventEntity], work=197*
  1: 0x0100 [0x00] END_REQSTACK()
```

### Event 65535.18

#### Metadata

| Field        | Value    |
|--------------|----------|
| Entrypoint   | 0x0101   |
| Data Size    | 14 bytes |
| Instructions | 2        |

```
      00 01 02 03 04 05 06 07  08 09 0A 0B 0C 0D 0E 0F
      -- -- -- -- -- -- -- --  -- -- -- -- -- -- -- --
0100:    53 F8 FF FF 7F F8 FF  FF 7F 67 6F 68 30 00      S........goh0. 
```

#### Opcodes

```
  0: 0x0101 [0x53] WAIT_SCHEDULER_TASK: Wait for scheduler "goh0" with entities [EventEntity, EventEntity]
  1: 0x010E [0x00] END_REQSTACK()
```

### Event 65535.19

#### Metadata

| Field        | Value    |
|--------------|----------|
| Entrypoint   | 0x010F   |
| Data Size    | 16 bytes |
| Instructions | 2        |

```
      00 01 02 03 04 05 06 07  08 09 0A 0B 0C 0D 0E 0F
      -- -- -- -- -- -- -- --  -- -- -- -- -- -- -- --
0100:                                               66                 f
0110: 03 80 F8 FF FF 7F F8 FF  FF 7F 67 6F 68 31 00     ..........goh1. 
```

#### Opcodes

```
  0: 0x010F [0x66] LOAD_EXT_SCHEDULER_MAIN: Load scheduler "goh1" with entities [EventEntity, EventEntity], work=197*
  1: 0x011E [0x00] END_REQSTACK()
```

### Event 65535.20

#### Metadata

| Field        | Value    |
|--------------|----------|
| Entrypoint   | 0x011F   |
| Data Size    | 14 bytes |
| Instructions | 2        |

```
      00 01 02 03 04 05 06 07  08 09 0A 0B 0C 0D 0E 0F
      -- -- -- -- -- -- -- --  -- -- -- -- -- -- -- --
0110:                                               53                 S
0120: F8 FF FF 7F F8 FF FF 7F  67 6F 68 31 00           ........goh1.   
```

#### Opcodes

```
  0: 0x011F [0x53] WAIT_SCHEDULER_TASK: Wait for scheduler "goh1" with entities [EventEntity, EventEntity]
  1: 0x012C [0x00] END_REQSTACK()
```

### Event 65535.21

#### Metadata

| Field        | Value    |
|--------------|----------|
| Entrypoint   | 0x012D   |
| Data Size    | 16 bytes |
| Instructions | 2        |

```
      00 01 02 03 04 05 06 07  08 09 0A 0B 0C 0D 0E 0F
      -- -- -- -- -- -- -- --  -- -- -- -- -- -- -- --
0120:                                         66 03 80               f..
0130: F8 FF FF 7F F8 FF FF 7F  67 6F 68 32 00           ........goh2.   
```

#### Opcodes

```
  0: 0x012D [0x66] LOAD_EXT_SCHEDULER_MAIN: Load scheduler "goh2" with entities [EventEntity, EventEntity], work=197*
  1: 0x013C [0x00] END_REQSTACK()
```

### Event 65535.22

#### Metadata

| Field        | Value    |
|--------------|----------|
| Entrypoint   | 0x013D   |
| Data Size    | 14 bytes |
| Instructions | 2        |

```
      00 01 02 03 04 05 06 07  08 09 0A 0B 0C 0D 0E 0F
      -- -- -- -- -- -- -- --  -- -- -- -- -- -- -- --
0130:                                         53 F8 FF               S..
0140: FF 7F F8 FF FF 7F 67 6F  68 32 00                 ......goh2.     
```

#### Opcodes

```
  0: 0x013D [0x53] WAIT_SCHEDULER_TASK: Wait for scheduler "goh2" with entities [EventEntity, EventEntity]
  1: 0x014A [0x00] END_REQSTACK()
```

### Event 65535.23

#### Metadata

| Field        | Value    |
|--------------|----------|
| Entrypoint   | 0x014B   |
| Data Size    | 16 bytes |
| Instructions | 4        |

```
      00 01 02 03 04 05 06 07  08 09 0A 0B 0C 0D 0E 0F
      -- -- -- -- -- -- -- --  -- -- -- -- -- -- -- --
0140:                                   6E F8 FF FF 7F             n....
0150: 04 80 99 F8 FF FF 7F 1C  05 80 00                 ...........     
```

#### Opcodes

```
  0: 0x014B [0x6E] EventEntity uses emote 21*
  1: 0x0152 [0x99] Wait for EventEntity animation to complete
  2: 0x0157 [0x1C] WAIT(60* ticks)
  3: 0x015A [0x00] END_REQSTACK()
```

### Event 65535.24

#### Metadata

| Field        | Value    |
|--------------|----------|
| Entrypoint   | 0x015B   |
| Data Size    | 16 bytes |
| Instructions | 4        |

```
      00 01 02 03 04 05 06 07  08 09 0A 0B 0C 0D 0E 0F
      -- -- -- -- -- -- -- --  -- -- -- -- -- -- -- --
0150:                                   6E F8 FF FF 7F             n....
0160: 06 80 99 F8 FF FF 7F 1C  05 80 00                 ...........     
```

#### Opcodes

```
  0: 0x015B [0x6E] EventEntity uses emote 19*
  1: 0x0162 [0x99] Wait for EventEntity animation to complete
  2: 0x0167 [0x1C] WAIT(60* ticks)
  3: 0x016A [0x00] END_REQSTACK()
```

### Event 65535.25

#### Metadata

| Field        | Value    |
|--------------|----------|
| Entrypoint   | 0x016B   |
| Data Size    | 16 bytes |
| Instructions | 4        |

```
      00 01 02 03 04 05 06 07  08 09 0A 0B 0C 0D 0E 0F
      -- -- -- -- -- -- -- --  -- -- -- -- -- -- -- --
0160:                                   6E F8 FF FF 7F             n....
0170: 07 80 99 F8 FF FF 7F 1C  05 80 00                 ...........     
```

#### Opcodes

```
  0: 0x016B [0x6E] EventEntity uses emote 7*
  1: 0x0172 [0x99] Wait for EventEntity animation to complete
  2: 0x0177 [0x1C] WAIT(60* ticks)
  3: 0x017A [0x00] END_REQSTACK()
```

### Event 65535.26

#### Metadata

| Field        | Value    |
|--------------|----------|
| Entrypoint   | 0x017B   |
| Data Size    | 16 bytes |
| Instructions | 4        |

```
      00 01 02 03 04 05 06 07  08 09 0A 0B 0C 0D 0E 0F
      -- -- -- -- -- -- -- --  -- -- -- -- -- -- -- --
0170:                                   6E F8 FF FF 7F             n....
0180: 08 80 99 F8 FF FF 7F 1C  05 80 00                 ...........     
```

#### Opcodes

```
  0: 0x017B [0x6E] EventEntity uses emote 6*
  1: 0x0182 [0x99] Wait for EventEntity animation to complete
  2: 0x0187 [0x1C] WAIT(60* ticks)
  3: 0x018A [0x00] END_REQSTACK()
```

### Event 34

#### Metadata

| Field        | Value   |
|--------------|---------|
| Entrypoint   | 0x018B  |
| Data Size    | 1 bytes |
| Instructions | 1       |

```
      00 01 02 03 04 05 06 07  08 09 0A 0B 0C 0D 0E 0F
      -- -- -- -- -- -- -- --  -- -- -- -- -- -- -- --
0180:                                   00                         .    
```

#### Opcodes

```
  0: 0x018B [0x00] END_REQSTACK()
```

### Event 37

#### Metadata

| Field        | Value   |
|--------------|---------|
| Entrypoint   | 0x018C  |
| Data Size    | 9 bytes |
| Instructions | 3       |

```
      00 01 02 03 04 05 06 07  08 09 0A 0B 0C 0D 0E 0F
      -- -- -- -- -- -- -- --  -- -- -- -- -- -- -- --
0180:                                      2F 00 F8 FF              /...
0190: FF 7F 22 00 00                                    .."..           
```

#### Opcodes

```
  0: 0x018C [0x2F] EventEntity->Render.Flags0 &= ~0x80000 // Bit 19
  1: 0x0192 [0x22] ENTITY_HIDE_FLAG(enabled=0x00)
  2: 0x0194 [0x00] END_REQSTACK()
```

### Event 39

#### Metadata

| Field        | Value   |
|--------------|---------|
| Entrypoint   | 0x0195  |
| Data Size    | 9 bytes |
| Instructions | 3       |

```
      00 01 02 03 04 05 06 07  08 09 0A 0B 0C 0D 0E 0F
      -- -- -- -- -- -- -- --  -- -- -- -- -- -- -- --
0190:                2F 00 F8  FF FF 7F 22 00 00             /....."..  
```

#### Opcodes

```
  0: 0x0195 [0x2F] EventEntity->Render.Flags0 &= ~0x80000 // Bit 19
  1: 0x019B [0x22] ENTITY_HIDE_FLAG(enabled=0x00)
  2: 0x019D [0x00] END_REQSTACK()
```

### Event 65535.27

#### Metadata

| Field        | Value    |
|--------------|----------|
| Entrypoint   | 0x019E   |
| Data Size    | 16 bytes |
| Instructions | 3        |

```
      00 01 02 03 04 05 06 07  08 09 0A 0B 0C 0D 0E 0F
      -- -- -- -- -- -- -- --  -- -- -- -- -- -- -- --
0190:                                            2F 00                /.
01A0: F8 FF FF 7F 37 09 80 0A  80 0B 80 0C 80 00        ....7.........  
```

#### Opcodes

```
  0: 0x019E [0x2F] EventEntity->Render.Flags0 &= ~0x80000 // Bit 19
  1: 0x01A4 [0x37] UPDATE_EVENT_POSITION_AND_DIR: x=18.179*, z=25.287*, y=-22.000*, direction=296.5°*
  2: 0x01AD [0x00] END_REQSTACK()
```

### Event 65535.28

#### Metadata

| Field        | Value    |
|--------------|----------|
| Entrypoint   | 0x01AE   |
| Data Size    | 23 bytes |
| Instructions | 8        |

```
      00 01 02 03 04 05 06 07  08 09 0A 0B 0C 0D 0E 0F
      -- -- -- -- -- -- -- --  -- -- -- -- -- -- -- --
01A0:                                            22 00                ".
01B0: 32 0D 80 1F 00 0E 80 0F  80 0B 80 1F 01 1E F9 10  2...............
01C0: 10 01 6F 70 00                                    ..op.           
```

#### Opcodes

```
  0: 0x01AE [0x22] ENTITY_HIDE_FLAG(enabled=0x00)
  1: 0x01B0 [0x32] ExtData[1]->MainSpeed = 13* * 0.1
  2: 0x01B3 [0x1F] MOVE_ENTITY: EventEntity moves to X=22.091*, Z=30.965*, Y=-22.000*
  3: 0x01BB [0x1F] MOVE_ENTITY: Update entity position (mode=1)
  4: 0x01BD [0x1E] EventEntity looks at Sylvie (ID: 17830137/0x011010F9) and starts talking
  5: 0x01C2 [0x6F] WAIT_FRAME_DELAY: Yield until WaitTime reaches zero
  6: 0x01C3 [0x70] WAIT_ENTITY_RENDER_FLAG: Wait while EventEntity->Render.Flags3 bit 2 is set (cancel turn if not)
  7: 0x01C4 [0x00] END_REQSTACK()
```

### Event 65535.29

#### Metadata

| Field        | Value    |
|--------------|----------|
| Entrypoint   | 0x01C5   |
| Data Size    | 10 bytes |
| Instructions | 2        |

```
      00 01 02 03 04 05 06 07  08 09 0A 0B 0C 0D 0E 0F
      -- -- -- -- -- -- -- --  -- -- -- -- -- -- -- --
01C0:                37 10 80  11 80 12 80 13 80 00          7......... 
```

#### Opcodes

```
  0: 0x01C5 [0x37] UPDATE_EVENT_POSITION_AND_DIR: x=0.473*, z=-19.232*, y=0.000*, direction=270.5°*
  1: 0x01CE [0x00] END_REQSTACK()
```

### Event 65535.30

#### Metadata

| Field        | Value    |
|--------------|----------|
| Entrypoint   | 0x01CF   |
| Data Size    | 14 bytes |
| Instructions | 4        |

```
      00 01 02 03 04 05 06 07  08 09 0A 0B 0C 0D 0E 0F
      -- -- -- -- -- -- -- --  -- -- -- -- -- -- -- --
01C0:                                               32                 2
01D0: 0D 80 1F 00 14 80 15 80  12 80 1F 01 00           .............   
```

#### Opcodes

```
  0: 0x01CF [0x32] ExtData[1]->MainSpeed = 13* * 0.1
  1: 0x01D2 [0x1F] MOVE_ENTITY: EventEntity moves to X=0.546*, Z=-10.989*, Y=0.000*
  2: 0x01DA [0x1F] MOVE_ENTITY: Update entity position (mode=1)
  3: 0x01DC [0x00] END_REQSTACK()
```

### Event 65535.31

#### Metadata

| Field        | Value    |
|--------------|----------|
| Entrypoint   | 0x01DD   |
| Data Size    | 45 bytes |
| Instructions | 7        |

```
      00 01 02 03 04 05 06 07  08 09 0A 0B 0C 0D 0E 0F
      -- -- -- -- -- -- -- --  -- -- -- -- -- -- -- --
01D0:                                         32 0D 80               2..
01E0: 1F 00 14 80 16 80 12 80  1F 01 1C 17 80 66 02 80  .............f..
01F0: F8 FF FF 7F F8 FF FF 7F  74 68 6B 31 53 F8 FF FF  ........thk1S...
0200: 7F F8 FF FF 7F 74 68 6B  31 00                    .....thk1.      
```

#### Opcodes

```
  0: 0x01DD [0x32] ExtData[1]->MainSpeed = 13* * 0.1
  1: 0x01E0 [0x1F] MOVE_ENTITY: EventEntity moves to X=0.546*, Z=-9.589*, Y=0.000*
  2: 0x01E8 [0x1F] MOVE_ENTITY: Update entity position (mode=1)
  3: 0x01EA [0x1C] WAIT(20* ticks)
  4: 0x01ED [0x66] LOAD_EXT_SCHEDULER_MAIN: Load scheduler "thk1" with entities [EventEntity, EventEntity], work=59*
  5: 0x01FC [0x53] WAIT_SCHEDULER_TASK: Wait for scheduler "thk1" with entities [EventEntity, EventEntity]
  6: 0x0209 [0x00] END_REQSTACK()
```

### Event 65535.32

#### Metadata

| Field        | Value    |
|--------------|----------|
| Entrypoint   | 0x020A   |
| Data Size    | 14 bytes |
| Instructions | 4        |

```
      00 01 02 03 04 05 06 07  08 09 0A 0B 0C 0D 0E 0F
      -- -- -- -- -- -- -- --  -- -- -- -- -- -- -- --
0200:                                32 18 80 1F 00 19            2.....
0210: 80 1A 80 12 80 1F 01 00                           ........        
```

#### Opcodes

```
  0: 0x020A [0x32] ExtData[1]->MainSpeed = 40* * 0.1
  1: 0x020D [0x1F] MOVE_ENTITY: EventEntity moves to X=0.004*, Z=-14.067*, Y=0.000*
  2: 0x0215 [0x1F] MOVE_ENTITY: Update entity position (mode=1)
  3: 0x0217 [0x00] END_REQSTACK()
```

### Event 65535.33

#### Metadata

| Field        | Value    |
|--------------|----------|
| Entrypoint   | 0x0218   |
| Data Size    | 10 bytes |
| Instructions | 2        |

```
      00 01 02 03 04 05 06 07  08 09 0A 0B 0C 0D 0E 0F
      -- -- -- -- -- -- -- --  -- -- -- -- -- -- -- --
0210:                          37 1B 80 1C 80 12 80 1D          7.......
0220: 80 00                                             ..              
```

#### Opcodes

```
  0: 0x0218 [0x37] UPDATE_EVENT_POSITION_AND_DIR: x=0.389*, z=2.488*, y=0.000*, direction=109.2°*
  1: 0x0221 [0x00] END_REQSTACK()
```

### Event 65535.34

#### Metadata

| Field        | Value    |
|--------------|----------|
| Entrypoint   | 0x0222   |
| Data Size    | 14 bytes |
| Instructions | 4        |

```
      00 01 02 03 04 05 06 07  08 09 0A 0B 0C 0D 0E 0F
      -- -- -- -- -- -- -- --  -- -- -- -- -- -- -- --
0220:       32 0D 80 1F 00 1E  80 1F 80 12 80 1F 01 00    2.............
```

#### Opcodes

```
  0: 0x0222 [0x32] ExtData[1]->MainSpeed = 13* * 0.1
  1: 0x0225 [0x1F] MOVE_ENTITY: EventEntity moves to X=0.022*, Z=-2.320*, Y=0.000*
  2: 0x022D [0x1F] MOVE_ENTITY: Update entity position (mode=1)
  3: 0x022F [0x00] END_REQSTACK()
```

### Event 65535.35

#### Metadata

| Field        | Value    |
|--------------|----------|
| Entrypoint   | 0x0230   |
| Data Size    | 10 bytes |
| Instructions | 2        |

```
      00 01 02 03 04 05 06 07  08 09 0A 0B 0C 0D 0E 0F
      -- -- -- -- -- -- -- --  -- -- -- -- -- -- -- --
0230: 37 20 80 21 80 12 80 22  80 00                    7 .!..."..      
```

#### Opcodes

```
  0: 0x0230 [0x37] UPDATE_EVENT_POSITION_AND_DIR: x=0.023*, z=2.495*, y=0.000*, direction=90.0°*
  1: 0x0239 [0x00] END_REQSTACK()
```

### Event 65535.36

#### Metadata

| Field        | Value    |
|--------------|----------|
| Entrypoint   | 0x023A   |
| Data Size    | 10 bytes |
| Instructions | 2        |

```
      00 01 02 03 04 05 06 07  08 09 0A 0B 0C 0D 0E 0F
      -- -- -- -- -- -- -- --  -- -- -- -- -- -- -- --
0230:                                37 23 80 24 80 12            7#.$..
0240: 80 25 80 00                                       .%..            
```

#### Opcodes

```
  0: 0x023A [0x37] UPDATE_EVENT_POSITION_AND_DIR: x=1.426*, z=-1.736*, y=0.000*, direction=268.3°*
  1: 0x0243 [0x00] END_REQSTACK()
```

### Event 65535.37

#### Metadata

| Field        | Value    |
|--------------|----------|
| Entrypoint   | 0x0244   |
| Data Size    | 14 bytes |
| Instructions | 4        |

```
      00 01 02 03 04 05 06 07  08 09 0A 0B 0C 0D 0E 0F
      -- -- -- -- -- -- -- --  -- -- -- -- -- -- -- --
0240:             32 0D 80 1F  00 20 80 26 80 12 80 1F      2.... .&....
0250: 01 00                                             ..              
```

#### Opcodes

```
  0: 0x0244 [0x32] ExtData[1]->MainSpeed = 13* * 0.1
  1: 0x0247 [0x1F] MOVE_ENTITY: EventEntity moves to X=0.023*, Z=2.000*, Y=0.000*
  2: 0x024F [0x1F] MOVE_ENTITY: Update entity position (mode=1)
  3: 0x0251 [0x00] END_REQSTACK()
```
