# 17830151 - Estelle

## Common Data

| Field            | Value                     |
|------------------|---------------------------|
| Zone             | Eastern Adoulin (ID: 257) |
| Block Size       | 744 bytes                 |
| Total Events     | 6                         |
| References Count | 34                        |

## List of Events

| Event ID              | Entrypoint   |   Size |   Instructions |
|-----------------------|--------------|--------|----------------|
| [65535](#event-65535) | 0x0000       |      1 |              1 |
| [96](#event-96)       | 0x0001       |    115 |             29 |
| [104](#event-104)     | 0x0074       |     31 |             11 |
| [101](#event-101)     | 0x0093       |    354 |             52 |
| [102](#event-102)     | 0x01F5       |     35 |             13 |
| [103](#event-103)     | 0x0218       |     31 |             11 |

## DAT References (imed_data)

|   Index | Hex Value   |   Dec Value |
|---------|-------------|-------------|
|       0 | 0x003C      |          60 |
|       1 | 0x2C4E      |       11342 |
|       2 | 0x2C4F      |       11343 |
|       3 | 0x2C50      |       11344 |
|       4 | 0x0000      |           0 |
|       5 | 0x0051      |          81 |
|       6 | 0x00C7      |         199 |
|       7 | 0x2C52      |       11346 |
|       8 | 0x0001      |           1 |
|       9 | 0x2C51      |       11345 |
|      10 | 0x2C53      |       11347 |
|      11 | 0x2CD7      |       11479 |
|      12 | 0x2CD8      |       11480 |
|      13 | 0x009F      |         159 |
|      14 | 0x0050      |          80 |
|      15 | 0x0927      |        2343 |
|      16 | 0x2CD9      |       11481 |
|      17 | 0x0057      |          87 |
|      18 | 0x2CDA      |       11482 |
|      19 | 0x2CDB      |       11483 |
|      20 | 0x0013      |          19 |
|      21 | 0x0096      |         150 |
|      22 | 0x2CDC      |       11484 |
|      23 | 0x2CDD      |       11485 |
|      24 | 0x2CDE      |       11486 |
|      25 | 0x009E      |         158 |
|      26 | 0x2CDF      |       11487 |
|      27 | 0x0064      |         100 |
|      28 | 0x2CE0      |       11488 |
|      29 | 0x2CE1      |       11489 |
|      30 | 0x0070      |         112 |
|      31 | 0x2CE2      |       11490 |
|      32 | 0x00C9      |         201 |
|      33 | 0x2CE3      |       11491 |

## String References

- **11342**: Hey.
- **11343**: You're <Player>, yes?
- **11344**: What is your response? [Yes, I am./You've got the wrong [guy/gal].]
- **11345**: I see. Never mind.
- **11346**: Here. This is for you.
- **11347**: I know Margret will find the truth.
- **11479**: Oh, it's you, <Player>.
- **11480**: I was expecting Margret to bang the gavel of justice right on my head.
- **11481**: She asked me to gather 100 $5. Her bark remains worse than her bite.
- **11482**: But when all was said and done...she thanked me.
- **11483**: "You did me proud by doing Melvien justice."
- **11484**: Truth be told, I was more concerned for Margret than Melvien.
- **11485**: Your contributions went above and beyond in helping solve this case. Margret gave me a reward for you...and I added a little something on top.
- **11486**: But in return, I would, uh...like that portrait that Margret drew.
- **11487**: ...And while I'm at it, do you still have that letter I used to bring you two together?
- **11488**: We had used it as a cipher of sorts.
- **11489**: A hidden message appears when you submerge it in a particular type of acid.
- **11490**: The path from here on is for you to decide.
- **11491**: Good day, <Player>. I trust Adoulin is treating you well?

## Events

### Event 65535

#### Metadata

| Field        | Value   |
|--------------|---------|
| Entrypoint   | 0x0000  |
| Data Size    | 1 bytes |
| Instructions | 1       |

```
      00 01 02 03 04 05 06 07  08 09 0A 0B 0C 0D 0E 0F
      -- -- -- -- -- -- -- --  -- -- -- -- -- -- -- --
0000: 00                                                .               
```

#### Opcodes

```
  0: 0x0000 [0x00] END_REQSTACK()
```

### Event 96

#### Metadata

| Field        | Value     |
|--------------|-----------|
| Entrypoint   | 0x0001    |
| Data Size    | 115 bytes |
| Instructions | 29        |

```
      00 01 02 03 04 05 06 07  08 09 0A 0B 0C 0D 0E 0F
      -- -- -- -- -- -- -- --  -- -- -- -- -- -- -- --
0000:    4A F0 FF FF 7F F8 FF  FF 7F 1C 00 80 6F 76 F0   J...........ov.
0010: FF FF 7F 1E F0 FF FF 7F  6F 70 1D 01 80 23 1D 02  ........op...#..
0020: 80 23 06 01 10 24 03 80  04 80 04 80 25 02 00 10  .#...$......%...
0030: 04 80 00 63 00 42 5F 06  05 80 F8 FF FF 7F F8 FF  ...c.B_.........
0040: FF 7F 70 61 73 30 06 80  1C 00 80 1D 07 80 5F 07  ..pas0........_.
0050: F8 FF FF 7F F8 FF FF 7F  70 61 73 30 23 05 01 10  ........pas0#...
0060: 01 72 00 02 00 10 08 80  00 72 00 1D 09 80 23 01  .r.......r....#.
0070: 72 00 21 00                                       r.!.            
```

#### Opcodes

```
  0: 0x0001 [0x4A] LocalPlayer looks at EventEntity
  1: 0x000A [0x1C] WAIT(60* ticks)
  2: 0x000D [0x6F] WAIT_FRAME_DELAY: Yield until WaitTime reaches zero
  3: 0x000E [0x76] CHECK_ENTITY_RENDER_FLAGS: Wait until LocalPlayer Render.Flags0 and Render.Flags3 conditions are met
  4: 0x0013 [0x1E] EventEntity looks at LocalPlayer and starts talking
  5: 0x0018 [0x6F] WAIT_FRAME_DELAY: Yield until WaitTime reaches zero
  6: 0x0019 [0x70] WAIT_ENTITY_RENDER_FLAG: Wait while EventEntity->Render.Flags3 bit 2 is set (cancel turn if not)
  7: 0x001A [0x1D] PRINT_EVENT_MESSAGE(message_id=11342*)
    → "Hey."
  8: 0x001D [0x23] WAIT_FOR_DIALOG_INTERACTION
  9: 0x001E [0x1D] PRINT_EVENT_MESSAGE(message_id=11343*)
    → "You're <Player>, yes?"
 10: 0x0021 [0x23] WAIT_FOR_DIALOG_INTERACTION
 11: 0x0022 [0x06] Work_Zone[1] = 0
 12: 0x0025 [0x24] CREATE_DIALOG(message_id=11344*, default_option=0*, option_flags=0*)
    → "What is your response? [Yes, I am./You've got the wrong [guy/gal].]"
 13: 0x002C [0x25] WAIT_DIALOG_SELECT()
 14: 0x002D [0x02] IF !(Work_Zone[0] == 0*) GOTO 0x0063
 15: 0x0035 [0x42] SET_CLI_EVENT_CANCEL_DATA()
 16: 0x0036 [0x5F] MULTI_HANDLER_COMPLEX(mode=0x06 - Load ext scheduler with flag (OpCode 0x5B mode 1, flag 1), ref=81*, entity1=EventEntity, entity2=EventEntity, string="pas0", extra=199*)
 17: 0x0048 [0x1C] WAIT(60* ticks)
 18: 0x004B [0x1D] PRINT_EVENT_MESSAGE(message_id=11346*)
    → "Here. This is for you."
 19: 0x004E [0x5F] MULTI_HANDLER_COMPLEX(mode=0x07 - Wait scheduler task (OpCode 0x53))
 20: 0x005C [0x23] WAIT_FOR_DIALOG_INTERACTION
 21: 0x005D [0x05] Work_Zone[1] = 1
 22: 0x0060 [0x01] GOTO 0x0072
 23: 0x0063 [0x02] IF !(Work_Zone[0] == 1*) GOTO 0x0072
 24: 0x006B [0x1D] PRINT_EVENT_MESSAGE(message_id=11345*)
    → "I see. Never mind."
 25: 0x006E [0x23] WAIT_FOR_DIALOG_INTERACTION
 26: 0x006F [0x01] GOTO 0x0072

SUBROUTINE_0072:
 27: 0x0072 [0x21] END_EVENT
 28: 0x0073 [0x00] END_REQSTACK()
```

### Event 104

#### Metadata

| Field        | Value    |
|--------------|----------|
| Entrypoint   | 0x0074   |
| Data Size    | 31 bytes |
| Instructions | 11       |

```
      00 01 02 03 04 05 06 07  08 09 0A 0B 0C 0D 0E 0F
      -- -- -- -- -- -- -- --  -- -- -- -- -- -- -- --
0070:             4A F0 FF FF  7F F8 FF FF 7F 1C 00 80      J...........
0080: 6F 76 F0 FF FF 7F 1E F0  FF FF 7F 6F 70 1D 0A 80  ov.........op...
0090: 23 21 00                                          #!.             
```

#### Opcodes

```
  0: 0x0074 [0x4A] LocalPlayer looks at EventEntity
  1: 0x007D [0x1C] WAIT(60* ticks)
  2: 0x0080 [0x6F] WAIT_FRAME_DELAY: Yield until WaitTime reaches zero
  3: 0x0081 [0x76] CHECK_ENTITY_RENDER_FLAGS: Wait until LocalPlayer Render.Flags0 and Render.Flags3 conditions are met
  4: 0x0086 [0x1E] EventEntity looks at LocalPlayer and starts talking
  5: 0x008B [0x6F] WAIT_FRAME_DELAY: Yield until WaitTime reaches zero
  6: 0x008C [0x70] WAIT_ENTITY_RENDER_FLAG: Wait while EventEntity->Render.Flags3 bit 2 is set (cancel turn if not)
  7: 0x008D [0x1D] PRINT_EVENT_MESSAGE(message_id=11347*)
    → "I know Margret will find the truth."
  8: 0x0090 [0x23] WAIT_FOR_DIALOG_INTERACTION
  9: 0x0091 [0x21] END_EVENT
 10: 0x0092 [0x00] END_REQSTACK()
```

### Event 101

#### Metadata

| Field        | Value     |
|--------------|-----------|
| Entrypoint   | 0x0093    |
| Data Size    | 354 bytes |
| Instructions | 52        |

```
      00 01 02 03 04 05 06 07  08 09 0A 0B 0C 0D 0E 0F
      -- -- -- -- -- -- -- --  -- -- -- -- -- -- -- --
0090:          42 4A F0 FF FF  7F F8 FF FF 7F 1C 00 80     BJ...........
00A0: 6F 76 F0 FF FF 7F 1E F0  FF FF 7F 6F 70 1D 0B 80  ov.........op...
00B0: 23 1D 0C 80 23 5F 06 0D  80 F8 FF FF 7F F8 FF FF  #...#_..........
00C0: 7F 74 6C 6B 30 0E 80 03  03 10 0F 80 1D 10 80 5F  .tlk0.........._
00D0: 07 F8 FF FF 7F F8 FF FF  7F 74 6C 6B 30 23 5F 06  .........tlk0#_.
00E0: 0D 80 F8 FF FF 7F F8 FF  FF 7F 74 6C 6B 31 11 80  ..........tlk1..
00F0: 1D 12 80 23 1D 13 80 5F  07 F8 FF FF 7F F8 FF FF  ...#..._........
0100: 7F 74 6C 6B 31 23 5F 06  14 80 F8 FF FF 7F F8 FF  .tlk1#_.........
0110: FF 7F 74 68 6B 31 15 80  1D 16 80 5F 07 F8 FF FF  ..thk1....._....
0120: 7F F8 FF FF 7F 74 68 6B  31 23 5F 06 14 80 F8 FF  .....thk1#_.....
0130: FF 7F F8 FF FF 7F 74 68  6B 32 0E 80 5F 07 F8 FF  ......thk2.._...
0140: FF 7F F8 FF FF 7F 74 68  6B 32 5F 06 05 80 F8 FF  ......thk2_.....
0150: FF 7F F8 FF FF 7F 70 61  73 30 06 80 1D 17 80 23  ......pas0.....#
0160: 1D 18 80 5F 07 F8 FF FF  7F F8 FF FF 7F 70 61 73  ..._.........pas
0170: 30 23 5F 06 19 80 F8 FF  FF 7F F8 FF FF 7F 74 6C  0#_...........tl
0180: 6B 30 0E 80 1D 1A 80 5F  07 F8 FF FF 7F F8 FF FF  k0....._........
0190: 7F 74 6C 6B 30 23 5F 06  19 80 F8 FF FF 7F F8 FF  .tlk0#_.........
01A0: FF 7F 74 6C 6B 32 1B 80  1D 1C 80 23 1D 1D 80 5F  ..tlk2.....#..._
01B0: 07 F8 FF FF 7F F8 FF FF  7F 74 6C 6B 32 23 5F 06  .........tlk2#_.
01C0: 19 80 F8 FF FF 7F F8 FF  FF 7F 74 6C 61 31 1E 80  ..........tla1..
01D0: 1D 1F 80 5F 07 F8 FF FF  7F F8 FF FF 7F 74 6C 61  ..._.........tla
01E0: 31 23 45 20 80 F8 FF FF  7F F8 FF FF 7F 71 73 74  1#E .........qst
01F0: 63 04 80 21 00                                    c..!.           
```

#### Opcodes

```
  0: 0x0093 [0x42] SET_CLI_EVENT_CANCEL_DATA()
  1: 0x0094 [0x4A] LocalPlayer looks at EventEntity
  2: 0x009D [0x1C] WAIT(60* ticks)
  3: 0x00A0 [0x6F] WAIT_FRAME_DELAY: Yield until WaitTime reaches zero
  4: 0x00A1 [0x76] CHECK_ENTITY_RENDER_FLAGS: Wait until LocalPlayer Render.Flags0 and Render.Flags3 conditions are met
  5: 0x00A6 [0x1E] EventEntity looks at LocalPlayer and starts talking
  6: 0x00AB [0x6F] WAIT_FRAME_DELAY: Yield until WaitTime reaches zero
  7: 0x00AC [0x70] WAIT_ENTITY_RENDER_FLAG: Wait while EventEntity->Render.Flags3 bit 2 is set (cancel turn if not)
  8: 0x00AD [0x1D] PRINT_EVENT_MESSAGE(message_id=11479*)
    → "Oh, it's you, <Player>."
  9: 0x00B0 [0x23] WAIT_FOR_DIALOG_INTERACTION
 10: 0x00B1 [0x1D] PRINT_EVENT_MESSAGE(message_id=11480*)
    → "I was expecting Margret to bang the gavel of justice right on my head."
 11: 0x00B4 [0x23] WAIT_FOR_DIALOG_INTERACTION
 12: 0x00B5 [0x5F] MULTI_HANDLER_COMPLEX(mode=0x06 - Load ext scheduler with flag (OpCode 0x5B mode 1, flag 1), ref=159*, entity1=EventEntity, entity2=EventEntity, string="tlk0", extra=80*)
 13: 0x00C7 [0x03] Work_Zone[3] = 2343*
 14: 0x00CC [0x1D] PRINT_EVENT_MESSAGE(message_id=11481*)
    → "She asked me to gather 100 $5. Her bark remains worse than her bite."
 15: 0x00CF [0x5F] MULTI_HANDLER_COMPLEX(mode=0x07 - Wait scheduler task (OpCode 0x53))
 16: 0x00DD [0x23] WAIT_FOR_DIALOG_INTERACTION
 17: 0x00DE [0x5F] MULTI_HANDLER_COMPLEX(mode=0x06 - Load ext scheduler with flag (OpCode 0x5B mode 1, flag 1), ref=159*, entity1=EventEntity, entity2=EventEntity, string="tlk1", extra=87*)
 18: 0x00F0 [0x1D] PRINT_EVENT_MESSAGE(message_id=11482*)
    → "But when all was said and done...she thanked me."
 19: 0x00F3 [0x23] WAIT_FOR_DIALOG_INTERACTION
 20: 0x00F4 [0x1D] PRINT_EVENT_MESSAGE(message_id=11483*)
    → ""You did me proud by doing Melvien justice.""
 21: 0x00F7 [0x5F] MULTI_HANDLER_COMPLEX(mode=0x07 - Wait scheduler task (OpCode 0x53))
 22: 0x0105 [0x23] WAIT_FOR_DIALOG_INTERACTION
 23: 0x0106 [0x5F] MULTI_HANDLER_COMPLEX(mode=0x06 - Load ext scheduler with flag (OpCode 0x5B mode 1, flag 1), ref=19*, entity1=EventEntity, entity2=EventEntity, string="thk1", extra=150*)
 24: 0x0118 [0x1D] PRINT_EVENT_MESSAGE(message_id=11484*)
    → "Truth be told, I was more concerned for Margret than Melvien."
 25: 0x011B [0x5F] MULTI_HANDLER_COMPLEX(mode=0x07 - Wait scheduler task (OpCode 0x53))
 26: 0x0129 [0x23] WAIT_FOR_DIALOG_INTERACTION
 27: 0x012A [0x5F] MULTI_HANDLER_COMPLEX(mode=0x06 - Load ext scheduler with flag (OpCode 0x5B mode 1, flag 1), ref=19*, entity1=EventEntity, entity2=EventEntity, string="thk2", extra=80*)
 28: 0x013C [0x5F] MULTI_HANDLER_COMPLEX(mode=0x07 - Wait scheduler task (OpCode 0x53))
 29: 0x014A [0x5F] MULTI_HANDLER_COMPLEX(mode=0x06 - Load ext scheduler with flag (OpCode 0x5B mode 1, flag 1), ref=81*, entity1=EventEntity, entity2=EventEntity, string="pas0", extra=199*)
 30: 0x015C [0x1D] PRINT_EVENT_MESSAGE(message_id=11485*)
    → "Your contributions went above and beyond in helping solve this case. Margret gave me a reward for you...and I added a little something on top."
 31: 0x015F [0x23] WAIT_FOR_DIALOG_INTERACTION
 32: 0x0160 [0x1D] PRINT_EVENT_MESSAGE(message_id=11486*)
    → "But in return, I would, uh...like that portrait that Margret drew."
 33: 0x0163 [0x5F] MULTI_HANDLER_COMPLEX(mode=0x07 - Wait scheduler task (OpCode 0x53))
 34: 0x0171 [0x23] WAIT_FOR_DIALOG_INTERACTION
 35: 0x0172 [0x5F] MULTI_HANDLER_COMPLEX(mode=0x06 - Load ext scheduler with flag (OpCode 0x5B mode 1, flag 1), ref=158*, entity1=EventEntity, entity2=EventEntity, string="tlk0", extra=80*)
 36: 0x0184 [0x1D] PRINT_EVENT_MESSAGE(message_id=11487*)
    → "...And while I'm at it, do you still have that letter I used to bring you two together?"
 37: 0x0187 [0x5F] MULTI_HANDLER_COMPLEX(mode=0x07 - Wait scheduler task (OpCode 0x53))
 38: 0x0195 [0x23] WAIT_FOR_DIALOG_INTERACTION
 39: 0x0196 [0x5F] MULTI_HANDLER_COMPLEX(mode=0x06 - Load ext scheduler with flag (OpCode 0x5B mode 1, flag 1), ref=158*, entity1=EventEntity, entity2=EventEntity, string="tlk2", extra=100*)
 40: 0x01A8 [0x1D] PRINT_EVENT_MESSAGE(message_id=11488*)
    → "We had used it as a cipher of sorts."
 41: 0x01AB [0x23] WAIT_FOR_DIALOG_INTERACTION
 42: 0x01AC [0x1D] PRINT_EVENT_MESSAGE(message_id=11489*)
    → "A hidden message appears when you submerge it in a particular type of acid."
 43: 0x01AF [0x5F] MULTI_HANDLER_COMPLEX(mode=0x07 - Wait scheduler task (OpCode 0x53))
 44: 0x01BD [0x23] WAIT_FOR_DIALOG_INTERACTION
 45: 0x01BE [0x5F] MULTI_HANDLER_COMPLEX(mode=0x06 - Load ext scheduler with flag (OpCode 0x5B mode 1, flag 1), ref=158*, entity1=EventEntity, entity2=EventEntity, string="tla1", extra=112*)
 46: 0x01D0 [0x1D] PRINT_EVENT_MESSAGE(message_id=11490*)
    → "The path from here on is for you to decide."
 47: 0x01D3 [0x5F] MULTI_HANDLER_COMPLEX(mode=0x07 - Wait scheduler task (OpCode 0x53))
 48: 0x01E1 [0x23] WAIT_FOR_DIALOG_INTERACTION
 49: 0x01E2 [0x45] LOAD_SCHEDULED_TASK: Load scheduler "qstc" with entities [EventEntity, EventEntity], work=[201*, 0*]
 50: 0x01F3 [0x21] END_EVENT
 51: 0x01F4 [0x00] END_REQSTACK()
```

### Event 102

#### Metadata

| Field        | Value    |
|--------------|----------|
| Entrypoint   | 0x01F5   |
| Data Size    | 35 bytes |
| Instructions | 13       |

```
      00 01 02 03 04 05 06 07  08 09 0A 0B 0C 0D 0E 0F
      -- -- -- -- -- -- -- --  -- -- -- -- -- -- -- --
01F0:                4A F0 FF  FF 7F F8 FF FF 7F 1C 00       J..........
0200: 80 6F 76 F0 FF FF 7F 1E  F0 FF FF 7F 6F 70 1D 1D  .ov.........op..
0210: 80 23 1D 1F 80 23 21 00                           .#...#!.        
```

#### Opcodes

```
  0: 0x01F5 [0x4A] LocalPlayer looks at EventEntity
  1: 0x01FE [0x1C] WAIT(60* ticks)
  2: 0x0201 [0x6F] WAIT_FRAME_DELAY: Yield until WaitTime reaches zero
  3: 0x0202 [0x76] CHECK_ENTITY_RENDER_FLAGS: Wait until LocalPlayer Render.Flags0 and Render.Flags3 conditions are met
  4: 0x0207 [0x1E] EventEntity looks at LocalPlayer and starts talking
  5: 0x020C [0x6F] WAIT_FRAME_DELAY: Yield until WaitTime reaches zero
  6: 0x020D [0x70] WAIT_ENTITY_RENDER_FLAG: Wait while EventEntity->Render.Flags3 bit 2 is set (cancel turn if not)
  7: 0x020E [0x1D] PRINT_EVENT_MESSAGE(message_id=11489*)
    → "A hidden message appears when you submerge it in a particular type of acid."
  8: 0x0211 [0x23] WAIT_FOR_DIALOG_INTERACTION
  9: 0x0212 [0x1D] PRINT_EVENT_MESSAGE(message_id=11490*)
    → "The path from here on is for you to decide."
 10: 0x0215 [0x23] WAIT_FOR_DIALOG_INTERACTION
 11: 0x0216 [0x21] END_EVENT
 12: 0x0217 [0x00] END_REQSTACK()
```

### Event 103

#### Metadata

| Field        | Value    |
|--------------|----------|
| Entrypoint   | 0x0218   |
| Data Size    | 31 bytes |
| Instructions | 11       |

```
      00 01 02 03 04 05 06 07  08 09 0A 0B 0C 0D 0E 0F
      -- -- -- -- -- -- -- --  -- -- -- -- -- -- -- --
0210:                          4A F0 FF FF 7F F8 FF FF          J.......
0220: 7F 1C 00 80 6F 76 F0 FF  FF 7F 1E F0 FF FF 7F 6F  ....ov.........o
0230: 70 1D 21 80 23 21 00                              p.!.#!.         
```

#### Opcodes

```
  0: 0x0218 [0x4A] LocalPlayer looks at EventEntity
  1: 0x0221 [0x1C] WAIT(60* ticks)
  2: 0x0224 [0x6F] WAIT_FRAME_DELAY: Yield until WaitTime reaches zero
  3: 0x0225 [0x76] CHECK_ENTITY_RENDER_FLAGS: Wait until LocalPlayer Render.Flags0 and Render.Flags3 conditions are met
  4: 0x022A [0x1E] EventEntity looks at LocalPlayer and starts talking
  5: 0x022F [0x6F] WAIT_FRAME_DELAY: Yield until WaitTime reaches zero
  6: 0x0230 [0x70] WAIT_ENTITY_RENDER_FLAG: Wait while EventEntity->Render.Flags3 bit 2 is set (cancel turn if not)
  7: 0x0231 [0x1D] PRINT_EVENT_MESSAGE(message_id=11491*)
    → "Good day, <Player>. I trust Adoulin is treating you well?"
  8: 0x0234 [0x23] WAIT_FOR_DIALOG_INTERACTION
  9: 0x0235 [0x21] END_EVENT
 10: 0x0236 [0x00] END_REQSTACK()
```
