# 17830157

## Common Data

| Field            | Value                     |
|------------------|---------------------------|
| Zone             | Eastern Adoulin (ID: 257) |
| Block Size       | 88 bytes                  |
| Total Events     | 3                         |
| References Count | 3                         |

## List of Events

| Event ID                 | Entrypoint   |   Size |   Instructions |
|--------------------------|--------------|--------|----------------|
| [65535](#event-65535)    | 0x0000       |      1 |              1 |
| [100](#event-100)        | 0x0001       |      1 |              1 |
| [65535.1](#event-655351) | 0x0002       |     46 |              5 |

## DAT References (imed_data)

|   Index | Hex Value   |   Dec Value |
|---------|-------------|-------------|
|       0 | 0x0C8F      |        3215 |
|       1 | 0x00E3      |         227 |
|       2 | 0x0000      |           0 |

## Events

### Event 65535

#### Metadata

| Field        | Value   |
|--------------|---------|
| Entrypoint   | 0x0000  |
| Data Size    | 1 bytes |
| Instructions | 1       |

```
      00 01 02 03 04 05 06 07  08 09 0A 0B 0C 0D 0E 0F
      -- -- -- -- -- -- -- --  -- -- -- -- -- -- -- --
0000: 00                                                .               
```

#### Opcodes

```
  0: 0x0000 [0x00] END_REQSTACK()
```

### Event 100

#### Metadata

| Field        | Value   |
|--------------|---------|
| Entrypoint   | 0x0001  |
| Data Size    | 1 bytes |
| Instructions | 1       |

```
      00 01 02 03 04 05 06 07  08 09 0A 0B 0C 0D 0E 0F
      -- -- -- -- -- -- -- --  -- -- -- -- -- -- -- --
0000:    00                                              .              
```

#### Opcodes

```
  0: 0x0001 [0x00] END_REQSTACK()
```

### Event 65535.1

#### Metadata

| Field        | Value    |
|--------------|----------|
| Entrypoint   | 0x0002   |
| Data Size    | 46 bytes |
| Instructions | 5        |

```
      00 01 02 03 04 05 06 07  08 09 0A 0B 0C 0D 0E 0F
      -- -- -- -- -- -- -- --  -- -- -- -- -- -- -- --
0000:       81 00 F8 FF FF 7F  7C 00 F8 FF FF 7F 5F 03    ......|....._.
0010: 00 80 F8 FF FF 7F F8 FF  FF 7F 68 61 70 31 CD 01  ..........hap1..
0020: 80 F8 FF FF 7F F8 FF FF  7F 6D 30 30 31 02 80 00  .........m001...
```

#### Opcodes

```
  0: 0x0002 [0x81] SET_ENTITY_BLINKING(blink_flag=0x00, entity=EventEntity)
  1: 0x0008 [0x7C] EventEntity->Render.Flags2 |= 0x00
  2: 0x000E [0x5F] MULTI_HANDLER_COMPLEX(mode=0x03 - Load ext scheduler (OpCode 0x5B mode 0), ref=3215*, entity1=EventEntity, entity2=EventEntity, string="hap1")
  3: 0x001E [0xCD] LOAD_SCHEDULED_TASK_ALT4: Load scheduler "m001" with entities [EventEntity, EventEntity], work=[227*, 0*]
  4: 0x002F [0x00] END_REQSTACK()
```
