# 17830114 - Melvort

## Common Data

| Field            | Value                     |
|------------------|---------------------------|
| Zone             | Eastern Adoulin (ID: 257) |
| Block Size       | 84 bytes                  |
| Total Events     | 2                         |
| References Count | 3                         |

## List of Events

| Event ID              | Entrypoint   |   Size |   Instructions |
|-----------------------|--------------|--------|----------------|
| [65535](#event-65535) | 0x0000       |      1 |              1 |
| [536](#event-536)     | 0x0001       |     47 |             11 |

## DAT References (imed_data)

|   Index | Hex Value   |   Dec Value |
|---------|-------------|-------------|
|       0 | 0x00EE      |         238 |
|       1 | 0x2909      |       10505 |
|       2 | 0x290A      |       10506 |

## String References

- **10505**: Most of Adoulin's well-to-do purchase residences on the top of this hill.
- **10506**: I assume it's so they can actualize the metaphor of "looking down" on the peasantry, but maybe some just do it for the view. There have to be at least a few magnanimous nobles here...right?

## Events

### Event 65535

#### Metadata

| Field        | Value   |
|--------------|---------|
| Entrypoint   | 0x0000  |
| Data Size    | 1 bytes |
| Instructions | 1       |

```
      00 01 02 03 04 05 06 07  08 09 0A 0B 0C 0D 0E 0F
      -- -- -- -- -- -- -- --  -- -- -- -- -- -- -- --
0000: 00                                                .               
```

#### Opcodes

```
  0: 0x0000 [0x00] END_REQSTACK()
```

### Event 536

#### Metadata

| Field        | Value    |
|--------------|----------|
| Entrypoint   | 0x0001   |
| Data Size    | 47 bytes |
| Instructions | 11       |

```
      00 01 02 03 04 05 06 07  08 09 0A 0B 0C 0D 0E 0F
      -- -- -- -- -- -- -- --  -- -- -- -- -- -- -- --
0000:    1E F0 FF FF 7F 6F 70  5B 00 80 F8 FF FF 7F F8   .....op[.......
0010: FF FF 7F 6A 69 6D 30 1D  01 80 23 5B 00 80 F8 FF  ...jim0...#[....
0020: FF 7F F8 FF FF 7F 6A 69  6D 31 1D 02 80 23 21 00  ......jim1...#!.
```

#### Opcodes

```
  0: 0x0001 [0x1E] EventEntity looks at LocalPlayer and starts talking
  1: 0x0006 [0x6F] WAIT_FRAME_DELAY: Yield until WaitTime reaches zero
  2: 0x0007 [0x70] WAIT_ENTITY_RENDER_FLAG: Wait while EventEntity->Render.Flags3 bit 2 is set (cancel turn if not)
  3: 0x0008 [0x5B] LOAD_EXT_SCHEDULER: Load scheduler "jim0" with entities [EventEntity, EventEntity], work=238*
  4: 0x0017 [0x1D] PRINT_EVENT_MESSAGE(message_id=10505*)
    → "Most of Adoulin's well-to-do purchase residences on the top of this hill."
  5: 0x001A [0x23] WAIT_FOR_DIALOG_INTERACTION
  6: 0x001B [0x5B] LOAD_EXT_SCHEDULER: Load scheduler "jim1" with entities [EventEntity, EventEntity], work=238*
  7: 0x002A [0x1D] PRINT_EVENT_MESSAGE(message_id=10506*)
    → "I assume it's so they can actualize the metaphor of "looking down" on the peasantry, but maybe some just do it for the view. There have to be at least a few magnanimous nobles here...right?"
  8: 0x002D [0x23] WAIT_FOR_DIALOG_INTERACTION
  9: 0x002E [0x21] END_EVENT
 10: 0x002F [0x00] END_REQSTACK()
```
