# 17830161

## Common Data

| Field            | Value                     |
|------------------|---------------------------|
| Zone             | Eastern Adoulin (ID: 257) |
| Block Size       | 508 bytes                 |
| Total Events     | 15                        |
| References Count | 13                        |

## List of Events

| Event ID                   | Entrypoint   |   Size |   Instructions |
|----------------------------|--------------|--------|----------------|
| [65535](#event-65535)      | 0x0000       |      1 |              1 |
| [100](#event-100)          | 0x0001       |      1 |              1 |
| [106](#event-106)          | 0x0002       |      1 |              1 |
| [65535.1](#event-655351)   | 0x0003       |     25 |              3 |
| [65535.2](#event-655352)   | 0x001C       |     25 |              3 |
| [65535.3](#event-655353)   | 0x0035       |     33 |              3 |
| [65535.4](#event-655354)   | 0x0056       |     33 |              3 |
| [65535.5](#event-655355)   | 0x0077       |     33 |              3 |
| [65535.6](#event-655356)   | 0x0098       |     33 |              3 |
| [65535.7](#event-655357)   | 0x00B9       |     33 |              3 |
| [65535.8](#event-655358)   | 0x00DA       |     33 |              3 |
| [65535.9](#event-655359)   | 0x00FB       |     33 |              3 |
| [65535.10](#event-6553510) | 0x011C       |     33 |              3 |
| [65535.11](#event-6553511) | 0x013D       |     33 |              3 |
| [65535.12](#event-6553512) | 0x015E       |     29 |              3 |

## DAT References (imed_data)

|   Index | Hex Value   |   Dec Value |
|---------|-------------|-------------|
|       0 | 0x0E1C      |        3612 |
|       1 | 0x0078      |         120 |
|       2 | 0x0044      |          68 |
|       3 | 0x0DFB      |        3579 |
|       4 | 0x0048      |          72 |
|       5 | 0x0064      |         100 |
|       6 | 0x0060      |          96 |
|       7 | 0x005C      |          92 |
|       8 | 0x0DFC      |        3580 |
|       9 | 0x00AC      |         172 |
|      10 | 0x0E1E      |        3614 |
|      11 | 0x0118      |         280 |
|      12 | 0x007C      |         124 |

## Events

### Event 65535

#### Metadata

| Field        | Value   |
|--------------|---------|
| Entrypoint   | 0x0000  |
| Data Size    | 1 bytes |
| Instructions | 1       |

```
      00 01 02 03 04 05 06 07  08 09 0A 0B 0C 0D 0E 0F
      -- -- -- -- -- -- -- --  -- -- -- -- -- -- -- --
0000: 00                                                .               
```

#### Opcodes

```
  0: 0x0000 [0x00] END_REQSTACK()
```

### Event 100

#### Metadata

| Field        | Value   |
|--------------|---------|
| Entrypoint   | 0x0001  |
| Data Size    | 1 bytes |
| Instructions | 1       |

```
      00 01 02 03 04 05 06 07  08 09 0A 0B 0C 0D 0E 0F
      -- -- -- -- -- -- -- --  -- -- -- -- -- -- -- --
0000:    00                                              .              
```

#### Opcodes

```
  0: 0x0001 [0x00] END_REQSTACK()
```

### Event 106

#### Metadata

| Field        | Value   |
|--------------|---------|
| Entrypoint   | 0x0002  |
| Data Size    | 1 bytes |
| Instructions | 1       |

```
      00 01 02 03 04 05 06 07  08 09 0A 0B 0C 0D 0E 0F
      -- -- -- -- -- -- -- --  -- -- -- -- -- -- -- --
0000:       00                                            .             
```

#### Opcodes

```
  0: 0x0002 [0x00] END_REQSTACK()
```

### Event 65535.1

#### Metadata

| Field        | Value    |
|--------------|----------|
| Entrypoint   | 0x0003   |
| Data Size    | 25 bytes |
| Instructions | 3        |

```
      00 01 02 03 04 05 06 07  08 09 0A 0B 0C 0D 0E 0F
      -- -- -- -- -- -- -- --  -- -- -- -- -- -- -- --
0000:          B4 00 00 00 42  61 6C 61 6D 6F 72 00 00     ....Balamor..
0010: 00 00 00 00 00 00 00 B5  00 00 00 00              ............    
```

#### Opcodes

```
  0: 0x0003 [0xB4] UI_WINDOW_STRING_HANDLER(case=0x00 - Copy string from opcode, work_offset=ExtData[1]->WorkLocal[0], string="Balamor")
  1: 0x0017 [0xB5] SET_EVENT_ENTITY_NAME: Change EventEntity name to ExtData[1]->WorkLocal[0]
  2: 0x001B [0x00] END_REQSTACK()
```

### Event 65535.2

#### Metadata

| Field        | Value    |
|--------------|----------|
| Entrypoint   | 0x001C   |
| Data Size    | 25 bytes |
| Instructions | 3        |

```
      00 01 02 03 04 05 06 07  08 09 0A 0B 0C 0D 0E 0F
      -- -- -- -- -- -- -- --  -- -- -- -- -- -- -- --
0010:                                      B4 00 00 00              ....
0020: 00 00 00 00 00 00 00 00  00 00 00 00 00 00 00 00  ................
0030: B5 00 00 00 00                                    .....           
```

#### Opcodes

```
  0: 0x001C [0xB4] UI_WINDOW_STRING_HANDLER(case=0x00 - Copy string from opcode, work_offset=ExtData[1]->WorkLocal[0], string="")
  1: 0x0030 [0xB5] SET_EVENT_ENTITY_NAME: Change EventEntity name to ExtData[1]->WorkLocal[0]
  2: 0x0034 [0x00] END_REQSTACK()
```

### Event 65535.3

#### Metadata

| Field        | Value    |
|--------------|----------|
| Entrypoint   | 0x0035   |
| Data Size    | 33 bytes |
| Instructions | 3        |

```
      00 01 02 03 04 05 06 07  08 09 0A 0B 0C 0D 0E 0F
      -- -- -- -- -- -- -- --  -- -- -- -- -- -- -- --
0030:                5F 05 00  80 F8 FF FF 7F F8 FF FF       _..........
0040: 7F 6E 69 73 30 01 80 5F  07 F8 FF FF 7F F8 FF FF  .nis0.._........
0050: 7F 6E 69 73 30 00                                 .nis0.          
```

#### Opcodes

```
  0: 0x0035 [0x5F] MULTI_HANDLER_COMPLEX(mode=0x05 - Load ext scheduler with flag (OpCode 0x5B mode 0, flag 1), ref=3612*, entity1=EventEntity, entity2=EventEntity, string="nis0", extra=120*)
  1: 0x0047 [0x5F] MULTI_HANDLER_COMPLEX(mode=0x07 - Wait scheduler task (OpCode 0x53))
  2: 0x0055 [0x00] END_REQSTACK()
```

### Event 65535.4

#### Metadata

| Field        | Value    |
|--------------|----------|
| Entrypoint   | 0x0056   |
| Data Size    | 33 bytes |
| Instructions | 3        |

```
      00 01 02 03 04 05 06 07  08 09 0A 0B 0C 0D 0E 0F
      -- -- -- -- -- -- -- --  -- -- -- -- -- -- -- --
0050:                   5F 05  00 80 F8 FF FF 7F F8 FF        _.........
0060: FF 7F 6E 69 73 31 02 80  5F 07 F8 FF FF 7F F8 FF  ..nis1.._.......
0070: FF 7F 6E 69 73 31 00                              ..nis1.         
```

#### Opcodes

```
  0: 0x0056 [0x5F] MULTI_HANDLER_COMPLEX(mode=0x05 - Load ext scheduler with flag (OpCode 0x5B mode 0, flag 1), ref=3612*, entity1=EventEntity, entity2=EventEntity, string="nis1", extra=68*)
  1: 0x0068 [0x5F] MULTI_HANDLER_COMPLEX(mode=0x07 - Wait scheduler task (OpCode 0x53))
  2: 0x0076 [0x00] END_REQSTACK()
```

### Event 65535.5

#### Metadata

| Field        | Value    |
|--------------|----------|
| Entrypoint   | 0x0077   |
| Data Size    | 33 bytes |
| Instructions | 3        |

```
      00 01 02 03 04 05 06 07  08 09 0A 0B 0C 0D 0E 0F
      -- -- -- -- -- -- -- --  -- -- -- -- -- -- -- --
0070:                      5F  05 03 80 F8 FF FF 7F F8         _........
0080: FF FF 7F 74 6C 6B 30 04  80 5F 07 F8 FF FF 7F F8  ...tlk0.._......
0090: FF FF 7F 74 6C 6B 30 00                           ...tlk0.        
```

#### Opcodes

```
  0: 0x0077 [0x5F] MULTI_HANDLER_COMPLEX(mode=0x05 - Load ext scheduler with flag (OpCode 0x5B mode 0, flag 1), ref=3579*, entity1=EventEntity, entity2=EventEntity, string="tlk0", extra=72*)
  1: 0x0089 [0x5F] MULTI_HANDLER_COMPLEX(mode=0x07 - Wait scheduler task (OpCode 0x53))
  2: 0x0097 [0x00] END_REQSTACK()
```

### Event 65535.6

#### Metadata

| Field        | Value    |
|--------------|----------|
| Entrypoint   | 0x0098   |
| Data Size    | 33 bytes |
| Instructions | 3        |

```
      00 01 02 03 04 05 06 07  08 09 0A 0B 0C 0D 0E 0F
      -- -- -- -- -- -- -- --  -- -- -- -- -- -- -- --
0090:                          5F 05 03 80 F8 FF FF 7F          _.......
00A0: F8 FF FF 7F 74 6C 6B 31  05 80 5F 07 F8 FF FF 7F  ....tlk1.._.....
00B0: F8 FF FF 7F 74 6C 6B 31  00                       ....tlk1.       
```

#### Opcodes

```
  0: 0x0098 [0x5F] MULTI_HANDLER_COMPLEX(mode=0x05 - Load ext scheduler with flag (OpCode 0x5B mode 0, flag 1), ref=3579*, entity1=EventEntity, entity2=EventEntity, string="tlk1", extra=100*)
  1: 0x00AA [0x5F] MULTI_HANDLER_COMPLEX(mode=0x07 - Wait scheduler task (OpCode 0x53))
  2: 0x00B8 [0x00] END_REQSTACK()
```

### Event 65535.7

#### Metadata

| Field        | Value    |
|--------------|----------|
| Entrypoint   | 0x00B9   |
| Data Size    | 33 bytes |
| Instructions | 3        |

```
      00 01 02 03 04 05 06 07  08 09 0A 0B 0C 0D 0E 0F
      -- -- -- -- -- -- -- --  -- -- -- -- -- -- -- --
00B0:                             5F 05 03 80 F8 FF FF           _......
00C0: 7F F8 FF FF 7F 74 68 6B  30 06 80 5F 07 F8 FF FF  .....thk0.._....
00D0: 7F F8 FF FF 7F 74 68 6B  30 00                    .....thk0.      
```

#### Opcodes

```
  0: 0x00B9 [0x5F] MULTI_HANDLER_COMPLEX(mode=0x05 - Load ext scheduler with flag (OpCode 0x5B mode 0, flag 1), ref=3579*, entity1=EventEntity, entity2=EventEntity, string="thk0", extra=96*)
  1: 0x00CB [0x5F] MULTI_HANDLER_COMPLEX(mode=0x07 - Wait scheduler task (OpCode 0x53))
  2: 0x00D9 [0x00] END_REQSTACK()
```

### Event 65535.8

#### Metadata

| Field        | Value    |
|--------------|----------|
| Entrypoint   | 0x00DA   |
| Data Size    | 33 bytes |
| Instructions | 3        |

```
      00 01 02 03 04 05 06 07  08 09 0A 0B 0C 0D 0E 0F
      -- -- -- -- -- -- -- --  -- -- -- -- -- -- -- --
00D0:                                5F 05 03 80 F8 FF            _.....
00E0: FF 7F F8 FF FF 7F 74 68  6B 31 07 80 5F 07 F8 FF  ......thk1.._...
00F0: FF 7F F8 FF FF 7F 74 68  6B 31 00                 ......thk1.     
```

#### Opcodes

```
  0: 0x00DA [0x5F] MULTI_HANDLER_COMPLEX(mode=0x05 - Load ext scheduler with flag (OpCode 0x5B mode 0, flag 1), ref=3579*, entity1=EventEntity, entity2=EventEntity, string="thk1", extra=92*)
  1: 0x00EC [0x5F] MULTI_HANDLER_COMPLEX(mode=0x07 - Wait scheduler task (OpCode 0x53))
  2: 0x00FA [0x00] END_REQSTACK()
```

### Event 65535.9

#### Metadata

| Field        | Value    |
|--------------|----------|
| Entrypoint   | 0x00FB   |
| Data Size    | 33 bytes |
| Instructions | 3        |

```
      00 01 02 03 04 05 06 07  08 09 0A 0B 0C 0D 0E 0F
      -- -- -- -- -- -- -- --  -- -- -- -- -- -- -- --
00F0:                                   5F 05 08 80 F8             _....
0100: FF FF 7F F8 FF FF 7F 79  61 72 30 09 80 5F 07 F8  .......yar0.._..
0110: FF FF 7F F8 FF FF 7F 79  61 72 30 00              .......yar0.    
```

#### Opcodes

```
  0: 0x00FB [0x5F] MULTI_HANDLER_COMPLEX(mode=0x05 - Load ext scheduler with flag (OpCode 0x5B mode 0, flag 1), ref=3580*, entity1=EventEntity, entity2=EventEntity, string="yar0", extra=172*)
  1: 0x010D [0x5F] MULTI_HANDLER_COMPLEX(mode=0x07 - Wait scheduler task (OpCode 0x53))
  2: 0x011B [0x00] END_REQSTACK()
```

### Event 65535.10

#### Metadata

| Field        | Value    |
|--------------|----------|
| Entrypoint   | 0x011C   |
| Data Size    | 33 bytes |
| Instructions | 3        |

```
      00 01 02 03 04 05 06 07  08 09 0A 0B 0C 0D 0E 0F
      -- -- -- -- -- -- -- --  -- -- -- -- -- -- -- --
0110:                                      5F 05 0A 80              _...
0120: F8 FF FF 7F F8 FF FF 7F  68 61 6B 30 0B 80 5F 07  ........hak0.._.
0130: F8 FF FF 7F F8 FF FF 7F  68 61 6B 30 00           ........hak0.   
```

#### Opcodes

```
  0: 0x011C [0x5F] MULTI_HANDLER_COMPLEX(mode=0x05 - Load ext scheduler with flag (OpCode 0x5B mode 0, flag 1), ref=3614*, entity1=EventEntity, entity2=EventEntity, string="hak0", extra=280*)
  1: 0x012E [0x5F] MULTI_HANDLER_COMPLEX(mode=0x07 - Wait scheduler task (OpCode 0x53))
  2: 0x013C [0x00] END_REQSTACK()
```

### Event 65535.11

#### Metadata

| Field        | Value    |
|--------------|----------|
| Entrypoint   | 0x013D   |
| Data Size    | 33 bytes |
| Instructions | 3        |

```
      00 01 02 03 04 05 06 07  08 09 0A 0B 0C 0D 0E 0F
      -- -- -- -- -- -- -- --  -- -- -- -- -- -- -- --
0130:                                         5F 05 0A               _..
0140: 80 F8 FF FF 7F F8 FF FF  7F 68 61 6B 31 0C 80 5F  .........hak1.._
0150: 07 F8 FF FF 7F F8 FF FF  7F 68 61 6B 31 00        .........hak1.  
```

#### Opcodes

```
  0: 0x013D [0x5F] MULTI_HANDLER_COMPLEX(mode=0x05 - Load ext scheduler with flag (OpCode 0x5B mode 0, flag 1), ref=3614*, entity1=EventEntity, entity2=EventEntity, string="hak1", extra=124*)
  1: 0x014F [0x5F] MULTI_HANDLER_COMPLEX(mode=0x07 - Wait scheduler task (OpCode 0x53))
  2: 0x015D [0x00] END_REQSTACK()
```

### Event 65535.12

#### Metadata

| Field        | Value    |
|--------------|----------|
| Entrypoint   | 0x015E   |
| Data Size    | 29 bytes |
| Instructions | 3        |

```
      00 01 02 03 04 05 06 07  08 09 0A 0B 0C 0D 0E 0F
      -- -- -- -- -- -- -- --  -- -- -- -- -- -- -- --
0150:                                            5B 0A                [.
0160: 80 F8 FF FF 7F F8 FF FF  7F 73 61 6B 30 53 F8 FF  .........sak0S..
0170: FF 7F F8 FF FF 7F 73 61  6B 30 00                 ......sak0.     
```

#### Opcodes

```
  0: 0x015E [0x5B] LOAD_EXT_SCHEDULER: Load scheduler "sak0" with entities [EventEntity, EventEntity], work=3614*
  1: 0x016D [0x53] WAIT_SCHEDULER_TASK: Wait for scheduler "sak0" with entities [EventEntity, EventEntity]
  2: 0x017A [0x00] END_REQSTACK()
```
