# 17830076

## Common Data

| Field            | Value                     |
|------------------|---------------------------|
| Zone             | Eastern Adoulin (ID: 257) |
| Block Size       | 24540 bytes               |
| Total Events     | 22                        |
| References Count | 461                       |

## List of Events

| Event ID              | Entrypoint   |   Size |   Instructions |
|-----------------------|--------------|--------|----------------|
| [65535](#event-65535) | 0x0000       |      1 |              1 |
| [5024](#event-5024)   | 0x0001       |   1312 |            162 |
| [5025](#event-5025)   | 0x0521       |    345 |             45 |
| [5026](#event-5026)   | 0x067A       |   1857 |            216 |
| [5027](#event-5027)   | 0x0DBB       |    370 |             46 |
| [5028](#event-5028)   | 0x0F2D       |   1059 |            122 |
| [31](#event-31)       | 0x1350       |   1332 |            151 |
| [32](#event-32)       | 0x1884       |    905 |            100 |
| [5047](#event-5047)   | 0x1C0D       |   1242 |            151 |
| [5048](#event-5048)   | 0x20E7       |    954 |            116 |
| [5050](#event-5050)   | 0x24A1       |   1003 |            120 |
| [5052](#event-5052)   | 0x288C       |   2046 |            236 |
| [5054](#event-5054)   | 0x308A       |   1266 |            154 |
| [5055](#event-5055)   | 0x357C       |    628 |             77 |
| [5057](#event-5057)   | 0x37F0       |   1442 |            166 |
| [5059](#event-5059)   | 0x3D92       |    879 |            103 |
| [5061](#event-5061)   | 0x4101       |   1252 |            143 |
| [5122](#event-5122)   | 0x45E5       |    993 |            120 |
| [5207](#event-5207)   | 0x49C6       |   1200 |            144 |
| [5228](#event-5228)   | 0x4E76       |    817 |            101 |
| [5209](#event-5209)   | 0x51A7       |    677 |             75 |
| [5229](#event-5229)   | 0x544C       |   1011 |            125 |

## DAT References (imed_data)

|   Index | Hex Value   |   Dec Value |
|---------|-------------|-------------|
|       0 | 0x00C8      |         200 |
|       1 | 0x0000      |           0 |
|       2 | 0x0013      |          19 |
|       3 | 0x0001      |           1 |
|       4 | 0x0251      |         593 |
|       5 | 0x00FF      |         255 |
|       6 | 0x0994      |        2452 |
|       7 | 0xFFFFD859  |  4294957145 |
|       8 | 0x0FCC      |        4044 |
|       9 | 0x0883      |        2179 |
|      10 | 0xFFFFB4F5  |  4294948085 |
|      11 | 0x0437      |        1079 |
|      12 | 0xFFFFFFB9  |  4294967225 |
|      13 | 0xFFFFB0CC  |  4294947020 |
|      14 | 0x0BB2      |        2994 |
|      15 | 0x04E6      |        1254 |
|      16 | 0xFFFFA59E  |  4294944158 |
|      17 | 0x0264      |         612 |
|      18 | 0x022E      |         558 |
|      19 | 0x000F      |          15 |
|      20 | 0x003C      |          60 |
|      21 | 0x0078      |         120 |
|      22 | 0x2726      |       10022 |
|      23 | 0x001E      |          30 |
|      24 | 0x0006      |           6 |
|      25 | 0x2727      |       10023 |
|      26 | 0x0016      |          22 |
|      27 | 0x2728      |       10024 |
|      28 | 0x009E      |         158 |
|      29 | 0x2729      |       10025 |
|      30 | 0x272A      |       10026 |
|      31 | 0x272B      |       10027 |
|      32 | 0x272C      |       10028 |
|      33 | 0x005A      |          90 |
|      34 | 0xFFFFFFF7  |  4294967287 |
|      35 | 0xFFFFBD33  |  4294950195 |
|      36 | 0x0C26      |        3110 |
|      37 | 0x272D      |       10029 |
|      38 | 0x0007      |           7 |
|      39 | 0x272E      |       10030 |
|      40 | 0x272F      |       10031 |
|      41 | 0x2730      |       10032 |
|      42 | 0x2731      |       10033 |
|      43 | 0x2732      |       10034 |
|      44 | 0x08D7      |        2263 |
|      45 | 0x2733      |       10035 |
|      46 | 0x2734      |       10036 |
|      47 | 0x0F76      |        3958 |
|      48 | 0x2735      |       10037 |
|      49 | 0x2736      |       10038 |
|      50 | 0x2737      |       10039 |
|      51 | 0x2738      |       10040 |
|      52 | 0x2739      |       10041 |
|      53 | 0x273A      |       10042 |
|      54 | 0x273B      |       10043 |
|      55 | 0x02BD      |         701 |
|      56 | 0x0378      |         888 |
|      57 | 0xFFFFAB9C  |  4294945692 |
|      58 | 0x0D0C      |        3340 |
|      59 | 0x0014      |          20 |
|      60 | 0x273C      |       10044 |
|      61 | 0x273D      |       10045 |
|      62 | 0x273E      |       10046 |
|      63 | 0xFFFFFFBA  |  4294967226 |
|      64 | 0xFFFFB158  |  4294947160 |
|      65 | 0x022F      |         559 |
|      66 | 0xFFFF96C5  |  4294940357 |
|      67 | 0x0DB5      |        3509 |
|      68 | 0x0797      |        1943 |
|      69 | 0xFFFF9594  |  4294940052 |
|      70 | 0x273F      |       10047 |
|      71 | 0x2740      |       10048 |
|      72 | 0x0005      |           5 |
|      73 | 0x2741      |       10049 |
|      74 | 0x2742      |       10050 |
|      75 | 0x2743      |       10051 |
|      76 | 0x0045      |          69 |
|      77 | 0x2744      |       10052 |
|      78 | 0x2745      |       10053 |
|      79 | 0x0009      |           9 |
|      80 | 0x2746      |       10054 |
|      81 | 0x2747      |       10055 |
|      82 | 0x2748      |       10056 |
|      83 | 0x0551      |        1361 |
|      84 | 0x2749      |       10057 |
|      85 | 0x274A      |       10058 |
|      86 | 0x274B      |       10059 |
|      87 | 0x00B4      |         180 |
|      88 | 0x274C      |       10060 |
|      89 | 0x274D      |       10061 |
|      90 | 0xFFFFFFBE  |  4294967230 |
|      91 | 0xFFFFBD51  |  4294950225 |
|      92 | 0x0439      |        1081 |
|      93 | 0x002D      |          45 |
|      94 | 0x274E      |       10062 |
|      95 | 0xFFFFFFB8  |  4294967224 |
|      96 | 0xFFFFB8AA  |  4294949034 |
|      97 | 0x274F      |       10063 |
|      98 | 0x2750      |       10064 |
|      99 | 0x0019      |          25 |
|     100 | 0x2751      |       10065 |
|     101 | 0x2752      |       10066 |
|     102 | 0x2753      |       10067 |
|     103 | 0x2754      |       10068 |
|     104 | 0x2755      |       10069 |
|     105 | 0x2756      |       10070 |
|     106 | 0x2757      |       10071 |
|     107 | 0x2758      |       10072 |
|     108 | 0x2759      |       10073 |
|     109 | 0x275A      |       10074 |
|     110 | 0x275B      |       10075 |
|     111 | 0x04E4      |        1252 |
|     112 | 0xFFFFDBF1  |  4294958065 |
|     113 | 0x0AE6      |        2790 |
|     114 | 0x003E      |          62 |
|     115 | 0xFFFFC30F  |  4294951695 |
|     116 | 0x275C      |       10076 |
|     117 | 0x275D      |       10077 |
|     118 | 0x275E      |       10078 |
|     119 | 0x275F      |       10079 |
|     120 | 0x2760      |       10080 |
|     121 | 0x2761      |       10081 |
|     122 | 0x2762      |       10082 |
|     123 | 0x2763      |       10083 |
|     124 | 0x0050      |          80 |
|     125 | 0x0028      |          40 |
|     126 | 0x2764      |       10084 |
|     127 | 0x2765      |       10085 |
|     128 | 0x2766      |       10086 |
|     129 | 0x2767      |       10087 |
|     130 | 0x2768      |       10088 |
|     131 | 0x2769      |       10089 |
|     132 | 0x276A      |       10090 |
|     133 | 0x0051      |          81 |
|     134 | 0x276B      |       10091 |
|     135 | 0x00C9      |         201 |
|     136 | 0x108E3     |       67811 |
|     137 | 0xFFFFADB6  |  4294946230 |
|     138 | 0xFFFF63C0  |  4294927296 |
|     139 | 0x0BA6      |        2982 |
|     140 | 0x10B86     |       68486 |
|     141 | 0xFFFFD20B  |  4294955531 |
|     142 | 0x0074      |         116 |
|     143 | 0x026D      |         621 |
|     144 | 0x276C      |       10092 |
|     145 | 0x276D      |       10093 |
|     146 | 0x276E      |       10094 |
|     147 | 0x276F      |       10095 |
|     148 | 0x2770      |       10096 |
|     149 | 0x2771      |       10097 |
|     150 | 0x277D      |       10109 |
|     151 | 0x2772      |       10098 |
|     152 | 0x2773      |       10099 |
|     153 | 0x2774      |       10100 |
|     154 | 0x2775      |       10101 |
|     155 | 0x2776      |       10102 |
|     156 | 0x2777      |       10103 |
|     157 | 0x2778      |       10104 |
|     158 | 0x2779      |       10105 |
|     159 | 0x277A      |       10106 |
|     160 | 0x277B      |       10107 |
|     161 | 0x2780      |       10112 |
|     162 | 0x2781      |       10113 |
|     163 | 0x2782      |       10114 |
|     164 | 0x277C      |       10108 |
|     165 | 0x277E      |       10110 |
|     166 | 0x277F      |       10111 |
|     167 | 0x0272      |         626 |
|     168 | 0x2786      |       10118 |
|     169 | 0x2787      |       10119 |
|     170 | 0x2788      |       10120 |
|     171 | 0x2789      |       10121 |
|     172 | 0x0008      |           8 |
|     173 | 0x278A      |       10122 |
|     174 | 0x278B      |       10123 |
|     175 | 0x278C      |       10124 |
|     176 | 0x278D      |       10125 |
|     177 | 0x278E      |       10126 |
|     178 | 0x278F      |       10127 |
|     179 | 0x2790      |       10128 |
|     180 | 0x0FBF      |        4031 |
|     181 | 0x0FC0      |        4032 |
|     182 | 0x2791      |       10129 |
|     183 | 0x2792      |       10130 |
|     184 | 0x2793      |       10131 |
|     185 | 0x0024      |          36 |
|     186 | 0x2799      |       10137 |
|     187 | 0x279A      |       10138 |
|     188 | 0x279B      |       10139 |
|     189 | 0x279C      |       10140 |
|     190 | 0x0015      |          21 |
|     191 | 0x2794      |       10132 |
|     192 | 0x2795      |       10133 |
|     193 | 0x0002      |           2 |
|     194 | 0x2796      |       10134 |
|     195 | 0x2797      |       10135 |
|     196 | 0x2798      |       10136 |
|     197 | 0x024E      |         590 |
|     198 | 0xFFFE8AFD  |  4294871805 |
|     199 | 0xFFFF40DB  |  4294918363 |
|     200 | 0xFFFFFD77  |  4294966647 |
|     201 | 0x0354      |         852 |
|     202 | 0xFFFE78F2  |  4294867186 |
|     203 | 0xFFFF467C  |  4294919804 |
|     204 | 0xFFFFFD76  |  4294966646 |
|     205 | 0x02EB      |         747 |
|     206 | 0xFFFE8B45  |  4294871877 |
|     207 | 0xFFFF38A3  |  4294916259 |
|     208 | 0x08D2      |        2258 |
|     209 | 0x0273      |         627 |
|     210 | 0x279F      |       10143 |
|     211 | 0x27A0      |       10144 |
|     212 | 0x27A1      |       10145 |
|     213 | 0x27A2      |       10146 |
|     214 | 0x27A3      |       10147 |
|     215 | 0x27A4      |       10148 |
|     216 | 0x27A5      |       10149 |
|     217 | 0x27A6      |       10150 |
|     218 | 0x27A7      |       10151 |
|     219 | 0x27A8      |       10152 |
|     220 | 0x27A9      |       10153 |
|     221 | 0x27AA      |       10154 |
|     222 | 0x27AB      |       10155 |
|     223 | 0x111E      |        4382 |
|     224 | 0x027D      |         637 |
|     225 | 0x27AC      |       10156 |
|     226 | 0x27AD      |       10157 |
|     227 | 0x27AE      |       10158 |
|     228 | 0x27AF      |       10159 |
|     229 | 0xFFFE856F  |  4294870383 |
|     230 | 0xFFFF38DB  |  4294916315 |
|     231 | 0x27B2      |       10162 |
|     232 | 0x27B3      |       10163 |
|     233 | 0x0075      |         117 |
|     234 | 0x087B      |        2171 |
|     235 | 0x040B      |        1035 |
|     236 | 0xFFFFFBAC  |  4294966188 |
|     237 | 0x0796      |        1942 |
|     238 | 0x034F      |         847 |
|     239 | 0xFFFFFFAE  |  4294967214 |
|     240 | 0xFFFFF3EE  |  4294964206 |
|     241 | 0x0C12      |        3090 |
|     242 | 0x27B4      |       10164 |
|     243 | 0x27B5      |       10165 |
|     244 | 0x27B6      |       10166 |
|     245 | 0x27B7      |       10167 |
|     246 | 0x0031      |          49 |
|     247 | 0x0F4B      |        3915 |
|     248 | 0x27B8      |       10168 |
|     249 | 0xFFFF928A  |  4294939274 |
|     250 | 0x0B8D      |        2957 |
|     251 | 0x00D7      |         215 |
|     252 | 0x27B9      |       10169 |
|     253 | 0x27BA      |       10170 |
|     254 | 0xFFFFF927  |  4294965543 |
|     255 | 0xFFFFD5E4  |  4294956516 |
|     256 | 0x0C24      |        3108 |
|     257 | 0x27BB      |       10171 |
|     258 | 0x27BC      |       10172 |
|     259 | 0x0927      |        2343 |
|     260 | 0x27BD      |       10173 |
|     261 | 0x27BE      |       10174 |
|     262 | 0x27BF      |       10175 |
|     263 | 0x27C0      |       10176 |
|     264 | 0x0CBD      |        3261 |
|     265 | 0x27C1      |       10177 |
|     266 | 0x27C2      |       10178 |
|     267 | 0x27C3      |       10179 |
|     268 | 0x27C4      |       10180 |
|     269 | 0x27C5      |       10181 |
|     270 | 0x27C6      |       10182 |
|     271 | 0x27C7      |       10183 |
|     272 | 0x27C8      |       10184 |
|     273 | 0x27C9      |       10185 |
|     274 | 0x27CA      |       10186 |
|     275 | 0x27CB      |       10187 |
|     276 | 0x27CC      |       10188 |
|     277 | 0x0275      |         629 |
|     278 | 0x27CE      |       10190 |
|     279 | 0x27CF      |       10191 |
|     280 | 0x27D0      |       10192 |
|     281 | 0x27D1      |       10193 |
|     282 | 0x27D2      |       10194 |
|     283 | 0x27D3      |       10195 |
|     284 | 0x27D4      |       10196 |
|     285 | 0x27D5      |       10197 |
|     286 | 0x27D6      |       10198 |
|     287 | 0x27D7      |       10199 |
|     288 | 0x27D8      |       10200 |
|     289 | 0x27D9      |       10201 |
|     290 | 0x27DA      |       10202 |
|     291 | 0x27DB      |       10203 |
|     292 | 0x27DC      |       10204 |
|     293 | 0x27DD      |       10205 |
|     294 | 0x27DE      |       10206 |
|     295 | 0x27DF      |       10207 |
|     296 | 0x27E0      |       10208 |
|     297 | 0x000A      |          10 |
|     298 | 0x27E4      |       10212 |
|     299 | 0x27E1      |       10209 |
|     300 | 0x27E2      |       10210 |
|     301 | 0x27E3      |       10211 |
|     302 | 0x108B5     |       67765 |
|     303 | 0xFFFFFEFD  |  4294967037 |
|     304 | 0x0C3A      |        3130 |
|     305 | 0x1093B     |       67899 |
|     306 | 0x150B      |        5387 |
|     307 | 0xFFFF632C  |  4294927148 |
|     308 | 0x0BC6      |        3014 |
|     309 | 0x0276      |         630 |
|     310 | 0x00C7      |         199 |
|     311 | 0x27E7      |       10215 |
|     312 | 0x00B3      |         179 |
|     313 | 0x27E8      |       10216 |
|     314 | 0x27E9      |       10217 |
|     315 | 0x27EA      |       10218 |
|     316 | 0x27EB      |       10219 |
|     317 | 0x27EC      |       10220 |
|     318 | 0x27ED      |       10221 |
|     319 | 0x27EE      |       10222 |
|     320 | 0x27EF      |       10223 |
|     321 | 0x27F0      |       10224 |
|     322 | 0x27F1      |       10225 |
|     323 | 0x27F2      |       10226 |
|     324 | 0x27F3      |       10227 |
|     325 | 0x27F4      |       10228 |
|     326 | 0x27F5      |       10229 |
|     327 | 0x27F6      |       10230 |
|     328 | 0x27F7      |       10231 |
|     329 | 0x27F8      |       10232 |
|     330 | 0x27F9      |       10233 |
|     331 | 0x27FA      |       10234 |
|     332 | 0x27FB      |       10235 |
|     333 | 0x27FC      |       10236 |
|     334 | 0x27FD      |       10237 |
|     335 | 0xFFFE705E  |  4294864990 |
|     336 | 0xFFFF3B82  |  4294916994 |
|     337 | 0x0B93      |        2963 |
|     338 | 0xFFFE8817  |  4294871063 |
|     339 | 0xFFFF40D5  |  4294918357 |
|     340 | 0x021C      |         540 |
|     341 | 0x2800      |       10240 |
|     342 | 0x2801      |       10241 |
|     343 | 0x2802      |       10242 |
|     344 | 0x2803      |       10243 |
|     345 | 0x2804      |       10244 |
|     346 | 0x2805      |       10245 |
|     347 | 0x2806      |       10246 |
|     348 | 0x2807      |       10247 |
|     349 | 0x2808      |       10248 |
|     350 | 0x2809      |       10249 |
|     351 | 0x280A      |       10250 |
|     352 | 0x280B      |       10251 |
|     353 | 0x280C      |       10252 |
|     354 | 0x280D      |       10253 |
|     355 | 0x27FE      |       10238 |
|     356 | 0x27FF      |       10239 |
|     357 | 0x2810      |       10256 |
|     358 | 0x0054      |          84 |
|     359 | 0x2811      |       10257 |
|     360 | 0x2812      |       10258 |
|     361 | 0x2813      |       10259 |
|     362 | 0x2814      |       10260 |
|     363 | 0x2815      |       10261 |
|     364 | 0x2816      |       10262 |
|     365 | 0x2817      |       10263 |
|     366 | 0x1139      |        4409 |
|     367 | 0x2818      |       10264 |
|     368 | 0x2819      |       10265 |
|     369 | 0x281A      |       10266 |
|     370 | 0x281B      |       10267 |
|     371 | 0x281C      |       10268 |
|     372 | 0x281D      |       10269 |
|     373 | 0x281E      |       10270 |
|     374 | 0x281F      |       10271 |
|     375 | 0x02E7      |         743 |
|     376 | 0x2820      |       10272 |
|     377 | 0x2821      |       10273 |
|     378 | 0x2822      |       10274 |
|     379 | 0x2823      |       10275 |
|     380 | 0x2824      |       10276 |
|     381 | 0x2825      |       10277 |
|     382 | 0x2826      |       10278 |
|     383 | 0x2827      |       10279 |
|     384 | 0x2828      |       10280 |
|     385 | 0x2829      |       10281 |
|     386 | 0x282A      |       10282 |
|     387 | 0x282B      |       10283 |
|     388 | 0x282C      |       10284 |
|     389 | 0x282D      |       10285 |
|     390 | 0x282E      |       10286 |
|     391 | 0x282F      |       10287 |
|     392 | 0x02EC      |         748 |
|     393 | 0x2834      |       10292 |
|     394 | 0x2835      |       10293 |
|     395 | 0x2836      |       10294 |
|     396 | 0x2837      |       10295 |
|     397 | 0x2838      |       10296 |
|     398 | 0x2839      |       10297 |
|     399 | 0x283A      |       10298 |
|     400 | 0x283B      |       10299 |
|     401 | 0x283C      |       10300 |
|     402 | 0x008D      |         141 |
|     403 | 0x283D      |       10301 |
|     404 | 0x283E      |       10302 |
|     405 | 0x283F      |       10303 |
|     406 | 0x2840      |       10304 |
|     407 | 0x2841      |       10305 |
|     408 | 0x2842      |       10306 |
|     409 | 0x2843      |       10307 |
|     410 | 0x2844      |       10308 |
|     411 | 0x2845      |       10309 |
|     412 | 0x2846      |       10310 |
|     413 | 0x2847      |       10311 |
|     414 | 0x001B      |          27 |
|     415 | 0x02F7      |         759 |
|     416 | 0x2849      |       10313 |
|     417 | 0x6B86      |       27526 |
|     418 | 0x284A      |       10314 |
|     419 | 0x284B      |       10315 |
|     420 | 0x284C      |       10316 |
|     421 | 0x284D      |       10317 |
|     422 | 0x284E      |       10318 |
|     423 | 0x2854      |       10324 |
|     424 | 0x2855      |       10325 |
|     425 | 0x284F      |       10319 |
|     426 | 0x2850      |       10320 |
|     427 | 0x2851      |       10321 |
|     428 | 0x2852      |       10322 |
|     429 | 0x2853      |       10323 |
|     430 | 0x10D62     |       68962 |
|     431 | 0x1B24      |        6948 |
|     432 | 0x0C04      |        3076 |
|     433 | 0x2856      |       10326 |
|     434 | 0x2857      |       10327 |
|     435 | 0x2858      |       10328 |
|     436 | 0x2859      |       10329 |
|     437 | 0x285A      |       10330 |
|     438 | 0x285B      |       10331 |
|     439 | 0x003B      |          59 |
|     440 | 0x285C      |       10332 |
|     441 | 0x285D      |       10333 |
|     442 | 0x02FE      |         766 |
|     443 | 0x2861      |       10337 |
|     444 | 0x2862      |       10338 |
|     445 | 0x2863      |       10339 |
|     446 | 0x56FC      |       22268 |
|     447 | 0x2864      |       10340 |
|     448 | 0x2865      |       10341 |
|     449 | 0x2866      |       10342 |
|     450 | 0x2867      |       10343 |
|     451 | 0x2868      |       10344 |
|     452 | 0x2869      |       10345 |
|     453 | 0x286A      |       10346 |
|     454 | 0x286B      |       10347 |
|     455 | 0x286C      |       10348 |
|     456 | 0x2870      |       10352 |
|     457 | 0x007F      |         127 |
|     458 | 0x286D      |       10349 |
|     459 | 0x286E      |       10350 |
|     460 | 0x286F      |       10351 |

## String References

- **10094**: Break the silence? [What's the "Blackthorn Coven"?/No, it's not my place.]
- **10107**: Lend a hand? [With pleasure./To this twerp? Never.]
- **10131**: Help find the coven? [Of course, for Altana's sake!/Um, Zaffeld told me to stay away./No, go have your theological crisis.]
- **10200**: What do you say? [How perspicacious of you./Has your brain turned to mulch!?]
- **10208**: Will you help? [Fine, I'll go./Count me out, scout.]
- **10232**: Mind asking? [Not a bit./You're a big girl; do it yourself.]
- **10259**: What do you think? [I was completely captivated!/It's a total yawn.]
- **10281**: Will you assist Erfimia? [Of course./Why me?]
- **10319**: What do you say? (current bayld: $1) [How does 10,000 bayld sound?/That's too bad.]

## Events

### Event 65535

#### Metadata

| Field        | Value   |
|--------------|---------|
| Entrypoint   | 0x0000  |
| Data Size    | 1 bytes |
| Instructions | 1       |

```
      00 01 02 03 04 05 06 07  08 09 0A 0B 0C 0D 0E 0F
      -- -- -- -- -- -- -- --  -- -- -- -- -- -- -- --
0000: 00                                                .               
```

#### Opcodes

```
  0: 0x0000 [0x00] END_REQSTACK()
```

### Event 5024

#### Metadata

| Field        | Value      |
|--------------|------------|
| Entrypoint   | 0x0001     |
| Data Size    | 1312 bytes |
| Instructions | 162        |

```
      00 01 02 03 04 05 06 07  08 09 0A 0B 0C 0D 0E 0F
      -- -- -- -- -- -- -- --  -- -- -- -- -- -- -- --
0000:    42 45 00 80 F0 FF FF  7F F0 FF FF 7F 66 64 6F   BE..........fdo
0010: 31 01 80 55 00 80 F0 FF  FF 7F F0 FF FF 7F 66 64  1..U..........fd
0020: 6F 31 46 01 38 02 80 1C  03 80 34 04 80 77 05 80  o1F.8.....4..w..
0030: 03 80 1C 03 80 2F 00 B8  10 10 01 2F 00 B9 10 10  ...../...../....
0040: 01 2F 00 BA 10 10 01 4E  00 B8 10 10 01 4E 00 B9  ./.....N.....N..
0050: 10 10 01 4E 00 BA 10 10  01 BA B8 10 10 01 06 80  ...N............
0060: 07 80 01 80 08 80 BA B9  10 10 01 09 80 0A 80 01  ................
0070: 80 0B 80 BA BA 10 10 01  0C 80 0D 80 01 80 0E 80  ................
0080: BA F0 FF FF 7F 0F 80 10  80 01 80 11 80 80 F0 FF  ................
0090: FF 7F 80 B8 10 10 01 80  B9 10 10 01 80 BA 10 10  ................
00A0: 01 4A F0 FF FF 7F BA 10  10 01 45 12 80 F8 FF FF  .J........E.....
00B0: 7F F8 FF FF 7F 73 30 31  33 01 80 1C 13 80 45 00  .....s013.....E.
00C0: 80 F0 FF FF 7F F0 FF FF  7F 66 64 69 31 01 80 2C  .........fdi1..,
00D0: B5 10 10 01 B5 10 10 01  6F 70 65 6E 1C 14 80 27  ........open...'
00E0: 05 BA 10 10 01 02 1C 15  80 79 00 BA 10 10 01 B8  .........y......
00F0: 10 10 01 52 12 80 F8 FF  FF 7F F8 FF FF 7F 73 30  ...R..........s0
0100: 31 33 45 12 80 F8 FF FF  7F F8 FF FF 7F 73 30 31  13E..........s01
0110: 34 01 80 2B BA 10 10 01  16 80 1C 14 80 4A B8 10  4..+.........J..
0120: 10 01 BA 10 10 01 1C 17  80 23 2A 05 BA 10 10 01  .........#*.....
0130: 27 05 BA 10 10 01 03 1C  17 80 27 05 B8 10 10 01  '.........'.....
0140: 02 1C 17 80 52 12 80 F8  FF FF 7F F8 FF FF 7F 73  ....R..........s
0150: 30 31 34 45 12 80 F8 FF  FF 7F F8 FF FF 7F 73 30  014E..........s0
0160: 31 35 01 80 1C 17 80 4A  F0 FF FF 7F B8 10 10 01  15.....J........
0170: 2A 05 BA 10 10 01 6E B8  10 10 01 18 80 99 B8 10  *.....n.........
0180: 10 01 2B B8 10 10 01 19  80 23 6E BA 10 10 01 1A  ..+......#n.....
0190: 80 99 BA 10 10 01 2B BA  10 10 01 1B 80 23 66 1C  ......+......#f.
01A0: 80 B8 10 10 01 B8 10 10  01 74 6C 61 30 52 12 80  .........tla0R..
01B0: F8 FF FF 7F F8 FF FF 7F  73 30 31 35 45 12 80 F8  ........s015E...
01C0: FF FF 7F F8 FF FF 7F 73  30 31 36 01 80 2B B8 10  .......s016..+..
01D0: 10 01 1D 80 23 66 1C 80  B8 10 10 01 B8 10 10 01  ....#f..........
01E0: 74 6C 61 31 52 12 80 F8  FF FF 7F F8 FF FF 7F 73  tla1R..........s
01F0: 30 31 36 45 12 80 F8 FF  FF 7F F8 FF FF 7F 73 30  016E..........s0
0200: 31 37 01 80 6E BA 10 10  01 1A 80 99 BA 10 10 01  17..n...........
0210: 2B BA 10 10 01 1E 80 23  27 05 BA 10 10 01 04 7B  +......#'......{
0220: BA 10 10 01 2B BA 10 10  01 1F 80 1C 15 80 52 12  ....+.........R.
0230: 80 F8 FF FF 7F F8 FF FF  7F 73 30 31 37 45 12 80  .........s017E..
0240: F8 FF FF 7F F8 FF FF 7F  73 30 31 38 01 80 66 02  ........s018..f.
0250: 80 B8 10 10 01 B8 10 10  01 74 6C 6B 30 2B B8 10  .........tlk0+..
0260: 10 01 20 80 1C 21 80 4E  01 BA 10 10 01 BA F0 FF  .. ..!.N........
0270: FF 7F 22 80 23 80 01 80  24 80 66 02 80 B8 10 10  ..".#...$.f.....
0280: 01 B8 10 10 01 74 6C 6B  31 23 27 05 F0 FF FF 7F  .....tlk1#'.....
0290: 24 1C 17 80 52 12 80 F8  FF FF 7F F8 FF FF 7F 73  $...R..........s
02A0: 30 31 38 45 12 80 F8 FF  FF 7F F8 FF FF 7F 73 30  018E..........s0
02B0: 31 39 01 80 4A B8 10 10  01 F0 FF FF 7F 1C 17 80  19..J...........
02C0: 2B B8 10 10 01 25 80 23  2A 05 F0 FF FF 7F 6E F0  +....%.#*.....n.
02D0: FF FF 7F 26 80 99 F0 FF  FF 7F 1C 21 80 52 12 80  ...&.......!.R..
02E0: F8 FF FF 7F F8 FF FF 7F  73 30 31 39 45 12 80 F8  ........s019E...
02F0: FF FF 7F F8 FF FF 7F 73  30 32 30 01 80 27 05 B8  .......s020..'..
0300: 10 10 01 03 2B B8 10 10  01 27 80 23 2A 05 B8 10  ....+....'.#*...
0310: 10 01 66 02 80 B8 10 10  01 B8 10 10 01 74 6C 6B  ..f..........tlk
0320: 30 2B B8 10 10 01 28 80  23 1C 17 80 52 12 80 F8  0+....(.#...R...
0330: FF FF 7F F8 FF FF 7F 73  30 32 30 45 12 80 F8 FF  .......s020E....
0340: FF 7F F8 FF FF 7F 73 32  34 32 01 80 2B B8 10 10  ......s242..+...
0350: 01 29 80 23 52 12 80 F8  FF FF 7F F8 FF FF 7F 73  .).#R..........s
0360: 32 34 32 45 12 80 F8 FF  FF 7F F8 FF FF 7F 73 30  242E..........s0
0370: 32 31 01 80 2B B8 10 10  01 2A 80 23 2B B8 10 10  21..+....*.#+...
0380: 01 2B 80 23 52 12 80 F8  FF FF 7F F8 FF FF 7F 73  .+.#R..........s
0390: 30 32 31 45 12 80 F8 FF  FF 7F F8 FF FF 7F 73 30  021E..........s0
03A0: 32 32 01 80 66 02 80 B8  10 10 01 B8 10 10 01 74  22..f..........t
03B0: 6C 6B 31 03 02 10 2C 80  2B B8 10 10 01 2D 80 23  lk1...,.+....-.#
03C0: 66 02 80 B8 10 10 01 B8  10 10 01 74 68 6B 31 2B  f..........thk1+
03D0: B8 10 10 01 2E 80 23 1C  17 80 52 12 80 F8 FF FF  ......#...R.....
03E0: 7F F8 FF FF 7F 73 30 32  32 45 12 80 F8 FF FF 7F  .....s022E......
03F0: F8 FF FF 7F 73 30 32 33  01 80 66 02 80 B8 10 10  ....s023..f.....
0400: 01 B8 10 10 01 74 68 6B  32 03 02 10 2F 80 2B B8  .....thk2.../.+.
0410: 10 10 01 30 80 23 52 12  80 F8 FF FF 7F F8 FF FF  ...0.#R.........
0420: 7F 73 30 32 33 45 12 80  F8 FF FF 7F F8 FF FF 7F  .s023E..........
0430: 73 30 32 34 01 80 66 02  80 B8 10 10 01 B8 10 10  s024..f.........
0440: 01 74 6C 6B 30 2B B8 10  10 01 31 80 23 2B B8 10  .tlk0+....1.#+..
0450: 10 01 32 80 23 2B B8 10  10 01 33 80 23 66 02 80  ..2.#+....3.#f..
0460: B8 10 10 01 B8 10 10 01  74 6C 6B 31 1C 17 80 52  ........tlk1...R
0470: 12 80 F8 FF FF 7F F8 FF  FF 7F 73 30 32 34 45 12  ..........s024E.
0480: 80 F8 FF FF 7F F8 FF FF  7F 73 30 32 35 01 80 66  .........s025..f
0490: 1C 80 B8 10 10 01 B8 10  10 01 74 6C 61 30 2B B8  ..........tla0+.
04A0: 10 10 01 34 80 23 2B B8  10 10 01 35 80 23 52 12  ...4.#+....5.#R.
04B0: 80 F8 FF FF 7F F8 FF FF  7F 73 30 32 35 45 12 80  .........s025E..
04C0: F8 FF FF 7F F8 FF FF 7F  73 31 30 39 01 80 2B B8  ........s109..+.
04D0: 10 10 01 36 80 23 45 00  80 F0 FF FF 7F F0 FF FF  ...6.#E.........
04E0: 7F 66 64 6F 31 01 80 55  00 80 F0 FF FF 7F F0 FF  .fdo1..U........
04F0: FF 7F 66 64 6F 31 52 12  80 F8 FF FF 7F F8 FF FF  ..fdo1R.........
0500: 7F 73 31 30 39 35 37 80  78 1C 03 80 46 00 45 00  .s10957.x...F.E.
0510: 80 F0 FF FF 7F F0 FF FF  7F 66 64 69 32 01 80 21  .........fdi2..!
0520: 00                                                .               
```

#### Opcodes

```
  0: 0x0001 [0x42] SET_CLI_EVENT_CANCEL_DATA()
  1: 0x0002 [0x45] LOAD_SCHEDULED_TASK: Load scheduler "fdo1" with entities [LocalPlayer, LocalPlayer], work=[200*, 0*]
  2: 0x0013 [0x55] WAIT_LOAD_SCHEDULER: Wait for scheduler "fdo1" with entities [LocalPlayer, LocalPlayer], work=200*
  3: 0x0022 [0x46] CAMERA_CONTROL: Disable user control
  4: 0x0024 [0x38] SET_CLIENT_EVENT_MODE(mode=19*)
  5: 0x0027 [0x1C] WAIT(1* ticks)
  6: 0x002A [0x34] LOAD_UNLOAD_ZONE(zone_id=593*)
  7: 0x002D [0x77] SET_EVENT_TIME_WEATHER(hour=255*, weather=1*)
  8: 0x0032 [0x1C] WAIT(1* ticks)
  9: 0x0035 [0x2F] Erisa (ID: 17830072/0x011010B8)->Render.Flags0 &= ~0x80000 // Bit 19
 10: 0x003B [0x2F] Yvermain (ID: 17830073/0x011010B9)->Render.Flags0 &= ~0x80000 // Bit 19
 11: 0x0041 [0x2F] Kyff (ID: 17830074/0x011010BA)->Render.Flags0 &= ~0x80000 // Bit 19
 12: 0x0047 [0x4E] SET_ENTITY_HIDE_FLAG: Show Erisa (ID: 17830072/0x011010B8)
 13: 0x004D [0x4E] SET_ENTITY_HIDE_FLAG: Show Yvermain (ID: 17830073/0x011010B9)
 14: 0x0053 [0x4E] SET_ENTITY_HIDE_FLAG: Show Kyff (ID: 17830074/0x011010BA)
 15: 0x0059 [0xBA] SET_ENTITY_POSITION(entity_id=Erisa (ID: 17830072/0x011010B8), pos_x=2.452*, pos_z=-10.151*, pos_y=0.000*, direction=355.4°*)
 16: 0x0066 [0xBA] SET_ENTITY_POSITION(entity_id=Yvermain (ID: 17830073/0x011010B9), pos_x=2.179*, pos_z=-19.211*, pos_y=0.000*, direction=94.8°*)
 17: 0x0073 [0xBA] SET_ENTITY_POSITION(entity_id=Kyff (ID: 17830074/0x011010BA), pos_x=-0.071*, pos_z=-20.276*, pos_y=0.000*, direction=263.1°*)
 18: 0x0080 [0xBA] SET_ENTITY_POSITION(entity_id=LocalPlayer, pos_x=1.254*, pos_z=-23.138*, pos_y=0.000*, direction=53.8°*)
 19: 0x008D [0x80] LOAD_WAIT(entity=LocalPlayer)
 20: 0x0092 [0x80] LOAD_WAIT(entity=Erisa (ID: 17830072/0x011010B8))
 21: 0x0097 [0x80] LOAD_WAIT(entity=Yvermain (ID: 17830073/0x011010B9))
 22: 0x009C [0x80] LOAD_WAIT(entity=Kyff (ID: 17830074/0x011010BA))
 23: 0x00A1 [0x4A] LocalPlayer looks at Kyff (ID: 17830074/0x011010BA)
 24: 0x00AA [0x45] LOAD_SCHEDULED_TASK: Load scheduler "s013" with entities [EventEntity, EventEntity], work=[558*, 0*]
 25: 0x00BB [0x1C] WAIT(15* ticks)
 26: 0x00BE [0x45] LOAD_SCHEDULED_TASK: Load scheduler "fdi1" with entities [LocalPlayer, LocalPlayer], work=[200*, 0*]
 27: 0x00CF [0x2C] CREATE_SCHEDULER_TASK: Create scheduler "open" with entities [Door: (ID: 17830069/0x011010B5), Door: (ID: 17830069/0x011010B5)]
 28: 0x00DC [0x1C] WAIT(60* ticks)
 29: 0x00DF [0x27] REQ_SET(priority=0x05, entity_id=Kyff (ID: 17830074/0x011010BA), tag_num=0x02)
 30: 0x00E6 [0x1C] WAIT(120* ticks)
 31: 0x00E9 [0x79] Kyff (ID: 17830074/0x011010BA) looks at Erisa (ID: 17830072/0x011010B8) (Basic look)
 32: 0x00F3 [0x52] END_LOAD_SCHEDULER: End scheduler "s013" with entities [EventEntity, EventEntity], work=558*
 33: 0x0102 [0x45] LOAD_SCHEDULED_TASK: Load scheduler "s014" with entities [EventEntity, EventEntity], work=[558*, 0*]
 34: 0x0113 [0x2B] Kyff (ID: 17830074/0x011010BA) [10022*]:
    → "Hey there, Erisa. Look at the massive haul I brought in today."
 35: 0x011A [0x1C] WAIT(60* ticks)
 36: 0x011D [0x4A] Erisa (ID: 17830072/0x011010B8) looks at Kyff (ID: 17830074/0x011010BA)
 37: 0x0126 [0x1C] WAIT(30* ticks)
 38: 0x0129 [0x23] WAIT_FOR_DIALOG_INTERACTION
 39: 0x012A [0x2A] GET_REQ_LEVEL(level=5, entity_id=Kyff (ID: 17830074/0x011010BA))
 40: 0x0130 [0x27] REQ_SET(priority=0x05, entity_id=Kyff (ID: 17830074/0x011010BA), tag_num=0x03)
 41: 0x0137 [0x1C] WAIT(30* ticks)
 42: 0x013A [0x27] REQ_SET(priority=0x05, entity_id=Erisa (ID: 17830072/0x011010B8), tag_num=0x02)
 43: 0x0141 [0x1C] WAIT(30* ticks)
 44: 0x0144 [0x52] END_LOAD_SCHEDULER: End scheduler "s014" with entities [EventEntity, EventEntity], work=558*
 45: 0x0153 [0x45] LOAD_SCHEDULED_TASK: Load scheduler "s015" with entities [EventEntity, EventEntity], work=[558*, 0*]
 46: 0x0164 [0x1C] WAIT(30* ticks)
 47: 0x0167 [0x4A] LocalPlayer looks at Erisa (ID: 17830072/0x011010B8)
 48: 0x0170 [0x2A] GET_REQ_LEVEL(level=5, entity_id=Kyff (ID: 17830074/0x011010BA))
 49: 0x0176 [0x6E] Erisa (ID: 17830072/0x011010B8) uses emote 6*
 50: 0x017D [0x99] Wait for Erisa (ID: 17830072/0x011010B8) animation to complete
 51: 0x0182 [0x2B] Erisa (ID: 17830072/0x011010B8) [10023*]:
    → "That's so many! You burned down the forest, didn't you?"
 52: 0x0189 [0x23] WAIT_FOR_DIALOG_INTERACTION
 53: 0x018A [0x6E] Kyff (ID: 17830074/0x011010BA) uses emote 22*
 54: 0x0191 [0x99] Wait for Kyff (ID: 17830074/0x011010BA) animation to complete
 55: 0x0196 [0x2B] Kyff (ID: 17830074/0x011010BA) [10024*]:
    → "Why do you have to put it like that? You know I respect the sanctity of nature."
 56: 0x019D [0x23] WAIT_FOR_DIALOG_INTERACTION
 57: 0x019E [0x66] LOAD_EXT_SCHEDULER_MAIN: Load scheduler "tla0" with entities [Erisa (ID: 17830072/0x011010B8), Erisa (ID: 17830072/0x011010B8)], work=158*
 58: 0x01AD [0x52] END_LOAD_SCHEDULER: End scheduler "s015" with entities [EventEntity, EventEntity], work=558*
 59: 0x01BC [0x45] LOAD_SCHEDULED_TASK: Load scheduler "s016" with entities [EventEntity, EventEntity], work=[558*, 0*]
 60: 0x01CD [0x2B] Erisa (ID: 17830072/0x011010B8) [10025*]:
    → "Don't be so flippant. You know what will happen if we anger the forest..."
 61: 0x01D4 [0x23] WAIT_FOR_DIALOG_INTERACTION
 62: 0x01D5 [0x66] LOAD_EXT_SCHEDULER_MAIN: Load scheduler "tla1" with entities [Erisa (ID: 17830072/0x011010B8), Erisa (ID: 17830072/0x011010B8)], work=158*
 63: 0x01E4 [0x52] END_LOAD_SCHEDULER: End scheduler "s016" with entities [EventEntity, EventEntity], work=558*
 64: 0x01F3 [0x45] LOAD_SCHEDULED_TASK: Load scheduler "s017" with entities [EventEntity, EventEntity], work=[558*, 0*]
 65: 0x0204 [0x6E] Kyff (ID: 17830074/0x011010BA) uses emote 22*
 66: 0x020B [0x99] Wait for Kyff (ID: 17830074/0x011010BA) animation to complete
 67: 0x0210 [0x2B] Kyff (ID: 17830074/0x011010BA) [10026*]:
    → "Yeah, yeah, I've heard it all before."
 68: 0x0217 [0x23] WAIT_FOR_DIALOG_INTERACTION
 69: 0x0218 [0x27] REQ_SET(priority=0x05, entity_id=Kyff (ID: 17830074/0x011010BA), tag_num=0x04)
 70: 0x021F [0x7B] Kyff (ID: 17830074/0x011010BA) stops talking
 71: 0x0224 [0x2B] Kyff (ID: 17830074/0x011010BA) [10027*]:
    → "Until next time!"
 72: 0x022B [0x1C] WAIT(120* ticks)
 73: 0x022E [0x52] END_LOAD_SCHEDULER: End scheduler "s017" with entities [EventEntity, EventEntity], work=558*
 74: 0x023D [0x45] LOAD_SCHEDULED_TASK: Load scheduler "s018" with entities [EventEntity, EventEntity], work=[558*, 0*]
 75: 0x024E [0x66] LOAD_EXT_SCHEDULER_MAIN: Load scheduler "tlk0" with entities [Erisa (ID: 17830072/0x011010B8), Erisa (ID: 17830072/0x011010B8)], work=19*
 76: 0x025D [0x2B] Erisa (ID: 17830072/0x011010B8) [10028*]:
    → "<Sigh> Always running off when he hears something he doesn't like."
 77: 0x0264 [0x1C] WAIT(90* ticks)
 78: 0x0267 [0x4E] SET_ENTITY_HIDE_FLAG: Hide Kyff (ID: 17830074/0x011010BA)
 79: 0x026D [0xBA] SET_ENTITY_POSITION(entity_id=LocalPlayer, pos_x=-0.009*, pos_z=-17.101*, pos_y=0.000*, direction=273.3°*)
 80: 0x027A [0x66] LOAD_EXT_SCHEDULER_MAIN: Load scheduler "tlk1" with entities [Erisa (ID: 17830072/0x011010B8), Erisa (ID: 17830072/0x011010B8)], work=19*
 81: 0x0289 [0x23] WAIT_FOR_DIALOG_INTERACTION
 82: 0x028A [0x27] REQ_SET(priority=0x05, entity_id=LocalPlayer, tag_num=0x24)
 83: 0x0291 [0x1C] WAIT(30* ticks)
 84: 0x0294 [0x52] END_LOAD_SCHEDULER: End scheduler "s018" with entities [EventEntity, EventEntity], work=558*
 85: 0x02A3 [0x45] LOAD_SCHEDULED_TASK: Load scheduler "s019" with entities [EventEntity, EventEntity], work=[558*, 0*]
 86: 0x02B4 [0x4A] Erisa (ID: 17830072/0x011010B8) looks at LocalPlayer
 87: 0x02BD [0x1C] WAIT(30* ticks)
 88: 0x02C0 [0x2B] Erisa (ID: 17830072/0x011010B8) [10029*]:
    → "Good day. Say, you wouldn't happen to be a pioneer, would you?"
 89: 0x02C7 [0x23] WAIT_FOR_DIALOG_INTERACTION
 90: 0x02C8 [0x2A] GET_REQ_LEVEL(level=5, entity_id=LocalPlayer)
 91: 0x02CE [0x6E] LocalPlayer uses emote 7*
 92: 0x02D5 [0x99] Wait for LocalPlayer animation to complete
 93: 0x02DA [0x1C] WAIT(90* ticks)
 94: 0x02DD [0x52] END_LOAD_SCHEDULER: End scheduler "s019" with entities [EventEntity, EventEntity], work=558*
 95: 0x02EC [0x45] LOAD_SCHEDULED_TASK: Load scheduler "s020" with entities [EventEntity, EventEntity], work=[558*, 0*]
 96: 0x02FD [0x27] REQ_SET(priority=0x05, entity_id=Erisa (ID: 17830072/0x011010B8), tag_num=0x03)
 97: 0x0304 [0x2B] Erisa (ID: 17830072/0x011010B8) [10030*]:
    → "It's quite uncommon for one of your ilk to come this way, seeing as the Order of Renaye is opposed to your work."
 98: 0x030B [0x23] WAIT_FOR_DIALOG_INTERACTION
 99: 0x030C [0x2A] GET_REQ_LEVEL(level=5, entity_id=Erisa (ID: 17830072/0x011010B8))
100: 0x0312 [0x66] LOAD_EXT_SCHEDULER_MAIN: Load scheduler "tlk0" with entities [Erisa (ID: 17830072/0x011010B8), Erisa (ID: 17830072/0x011010B8)], work=19*
101: 0x0321 [0x2B] Erisa (ID: 17830072/0x011010B8) [10031*]:
    → "Excepting, of course, that man who was just here."
102: 0x0328 [0x23] WAIT_FOR_DIALOG_INTERACTION
103: 0x0329 [0x1C] WAIT(30* ticks)
104: 0x032C [0x52] END_LOAD_SCHEDULER: End scheduler "s020" with entities [EventEntity, EventEntity], work=558*
105: 0x033B [0x45] LOAD_SCHEDULED_TASK: Load scheduler "s242" with entities [EventEntity, EventEntity], work=[558*, 0*]
106: 0x034C [0x2B] Erisa (ID: 17830072/0x011010B8) [10032*]:
    → "I, too, am opposed to all this nonsense, but the seeds he brings back are invaluable for my research into Eastern Ulbuka."
107: 0x0353 [0x23] WAIT_FOR_DIALOG_INTERACTION
108: 0x0354 [0x52] END_LOAD_SCHEDULER: End scheduler "s242" with entities [EventEntity, EventEntity], work=558*
109: 0x0363 [0x45] LOAD_SCHEDULED_TASK: Load scheduler "s021" with entities [EventEntity, EventEntity], work=[558*, 0*]
110: 0x0374 [0x2B] Erisa (ID: 17830072/0x011010B8) [10033*]:
    → "Thanks to his efforts, I have been able to discover new species of plants that we never before knew existed."
111: 0x037B [0x23] WAIT_FOR_DIALOG_INTERACTION
112: 0x037C [0x2B] Erisa (ID: 17830072/0x011010B8) [10034*]:
    → "Some of these have begun to bear fruit, and the Order has high expectations for the bounty they may provide."
113: 0x0383 [0x23] WAIT_FOR_DIALOG_INTERACTION
114: 0x0384 [0x52] END_LOAD_SCHEDULER: End scheduler "s021" with entities [EventEntity, EventEntity], work=558*
115: 0x0393 [0x45] LOAD_SCHEDULED_TASK: Load scheduler "s022" with entities [EventEntity, EventEntity], work=[558*, 0*]
116: 0x03A4 [0x66] LOAD_EXT_SCHEDULER_MAIN: Load scheduler "tlk1" with entities [Erisa (ID: 17830072/0x011010B8), Erisa (ID: 17830072/0x011010B8)], work=19*
117: 0x03B3 [0x03] Work_Zone[2] = 2263*
118: 0x03B8 [0x2B] Erisa (ID: 17830072/0x011010B8) [10035*]:
    → "There's just one problem. Just as the fruit begins to sprout, the plants stop growing. Even the $3 created by the Inventors' Coalition is of no help."
119: 0x03BF [0x23] WAIT_FOR_DIALOG_INTERACTION
120: 0x03C0 [0x66] LOAD_EXT_SCHEDULER_MAIN: Load scheduler "thk1" with entities [Erisa (ID: 17830072/0x011010B8), Erisa (ID: 17830072/0x011010B8)], work=19*
121: 0x03CF [0x2B] Erisa (ID: 17830072/0x011010B8) [10036*]:
    → "Just the thought of them withering on the vine terrifies me, but there is so little I can do!"
122: 0x03D6 [0x23] WAIT_FOR_DIALOG_INTERACTION
123: 0x03D7 [0x1C] WAIT(30* ticks)
124: 0x03DA [0x52] END_LOAD_SCHEDULER: End scheduler "s022" with entities [EventEntity, EventEntity], work=558*
125: 0x03E9 [0x45] LOAD_SCHEDULED_TASK: Load scheduler "s023" with entities [EventEntity, EventEntity], work=[558*, 0*]
126: 0x03FA [0x66] LOAD_EXT_SCHEDULER_MAIN: Load scheduler "thk2" with entities [Erisa (ID: 17830072/0x011010B8), Erisa (ID: 17830072/0x011010B8)], work=19*
127: 0x0409 [0x03] Work_Zone[2] = 3958*
128: 0x040E [0x2B] Erisa (ID: 17830072/0x011010B8) [10037*]:
    → "Of course, if I had $0, I might be able to do something about it."
129: 0x0415 [0x23] WAIT_FOR_DIALOG_INTERACTION
130: 0x0416 [0x52] END_LOAD_SCHEDULER: End scheduler "s023" with entities [EventEntity, EventEntity], work=558*
131: 0x0425 [0x45] LOAD_SCHEDULED_TASK: Load scheduler "s024" with entities [EventEntity, EventEntity], work=[558*, 0*]
132: 0x0436 [0x66] LOAD_EXT_SCHEDULER_MAIN: Load scheduler "tlk0" with entities [Erisa (ID: 17830072/0x011010B8), Erisa (ID: 17830072/0x011010B8)], work=19*
133: 0x0445 [0x2B] Erisa (ID: 17830072/0x011010B8) [10038*]:
    → "Kyff once brought me a seed that had $0 mixed in with it."
134: 0x044C [0x23] WAIT_FOR_DIALOG_INTERACTION
135: 0x044D [0x2B] Erisa (ID: 17830072/0x011010B8) [10039*]:
    → "My previous findings indicate that $0 contain nutrients that accelerate the growth of plants."
136: 0x0454 [0x23] WAIT_FOR_DIALOG_INTERACTION
137: 0x0455 [0x2B] Erisa (ID: 17830072/0x011010B8) [10040*]:
    → "If I can create special fertilizer using them, then I can bring the dying plants back to life in no time at all."
138: 0x045C [0x23] WAIT_FOR_DIALOG_INTERACTION
139: 0x045D [0x66] LOAD_EXT_SCHEDULER_MAIN: Load scheduler "tlk1" with entities [Erisa (ID: 17830072/0x011010B8), Erisa (ID: 17830072/0x011010B8)], work=19*
140: 0x046C [0x1C] WAIT(30* ticks)
141: 0x046F [0x52] END_LOAD_SCHEDULER: End scheduler "s024" with entities [EventEntity, EventEntity], work=558*
142: 0x047E [0x45] LOAD_SCHEDULED_TASK: Load scheduler "s025" with entities [EventEntity, EventEntity], work=[558*, 0*]
143: 0x048F [0x66] LOAD_EXT_SCHEDULER_MAIN: Load scheduler "tla0" with entities [Erisa (ID: 17830072/0x011010B8), Erisa (ID: 17830072/0x011010B8)], work=158*
144: 0x049E [0x2B] Erisa (ID: 17830072/0x011010B8) [10041*]:
    → "I realize that it isn't my place to ask, but if you could bring me back $0, I would be eternally grateful."
145: 0x04A5 [0x23] WAIT_FOR_DIALOG_INTERACTION
146: 0x04A6 [0x2B] Erisa (ID: 17830072/0x011010B8) [10042*]:
    → "Kyff mentioned that he first found them on black mandragoras roaming the Yahse Hunting Grounds."
147: 0x04AD [0x23] WAIT_FOR_DIALOG_INTERACTION
148: 0x04AE [0x52] END_LOAD_SCHEDULER: End scheduler "s025" with entities [EventEntity, EventEntity], work=558*
149: 0x04BD [0x45] LOAD_SCHEDULED_TASK: Load scheduler "s109" with entities [EventEntity, EventEntity], work=[558*, 0*]
150: 0x04CE [0x2B] Erisa (ID: 17830072/0x011010B8) [10043*]:
    → "I understand if you don't want to help a complete stranger, but those root creatures are probably your best bet if you do."
151: 0x04D5 [0x23] WAIT_FOR_DIALOG_INTERACTION
152: 0x04D6 [0x45] LOAD_SCHEDULED_TASK: Load scheduler "fdo1" with entities [LocalPlayer, LocalPlayer], work=[200*, 0*]
153: 0x04E7 [0x55] WAIT_LOAD_SCHEDULER: Wait for scheduler "fdo1" with entities [LocalPlayer, LocalPlayer], work=200*
154: 0x04F6 [0x52] END_LOAD_SCHEDULER: End scheduler "s109" with entities [EventEntity, EventEntity], work=558*
155: 0x0505 [0x35] LOAD_ZONE_NO_CLOSE(zone_id=701*)
156: 0x0508 [0x78] ENABLE_GAME_TIMER_RESET_WEATHER()
157: 0x0509 [0x1C] WAIT(1* ticks)
158: 0x050C [0x46] CAMERA_CONTROL: Restore default settings
159: 0x050E [0x45] LOAD_SCHEDULED_TASK: Load scheduler "fdi2" with entities [LocalPlayer, LocalPlayer], work=[200*, 0*]
160: 0x051F [0x21] END_EVENT
161: 0x0520 [0x00] END_REQSTACK()
```

### Event 5025

#### Metadata

| Field        | Value     |
|--------------|-----------|
| Entrypoint   | 0x0521    |
| Data Size    | 345 bytes |
| Instructions | 45        |

```
      00 01 02 03 04 05 06 07  08 09 0A 0B 0C 0D 0E 0F
      -- -- -- -- -- -- -- --  -- -- -- -- -- -- -- --
0520:    42 45 00 80 F0 FF FF  7F F0 FF FF 7F 66 64 6F   BE..........fdo
0530: 31 01 80 55 00 80 F0 FF  FF 7F F0 FF FF 7F 66 64  1..U..........fd
0540: 6F 31 46 01 38 02 80 1C  03 80 34 04 80 77 05 80  o1F.8.....4..w..
0550: 03 80 1C 03 80 2F 00 B9  10 10 01 4E 00 B9 10 10  ...../.....N....
0560: 01 BA B9 10 10 01 09 80  0A 80 01 80 0B 80 BA F0  ................
0570: FF FF 7F 38 80 39 80 01  80 3A 80 80 F0 FF FF 7F  ...8.9...:......
0580: 80 B9 10 10 01 4A F0 FF  FF 7F B9 10 10 01 4A B9  .....J........J.
0590: 10 10 01 F0 FF FF 7F 1C  17 80 45 12 80 F8 FF FF  ..........E.....
05A0: 7F F8 FF FF 7F 73 30 32  36 01 80 1C 13 80 45 00  .....s026.....E.
05B0: 80 F0 FF FF 7F F0 FF FF  7F 66 64 69 31 01 80 66  .........fdi1..f
05C0: 3B 80 B9 10 10 01 B9 10  10 01 74 68 6B 31 03 02  ;.........thk1..
05D0: 10 2F 80 2B B9 10 10 01  3C 80 23 66 3B 80 B9 10  ./.+....<.#f;...
05E0: 10 01 B9 10 10 01 74 68  6B 32 1C 17 80 52 12 80  ......thk2...R..
05F0: F8 FF FF 7F F8 FF FF 7F  73 30 32 36 45 12 80 F8  ........s026E...
0600: FF FF 7F F8 FF FF 7F 73  30 32 37 01 80 1C 17 80  .......s027.....
0610: 66 3B 80 B9 10 10 01 B9  10 10 01 74 6C 6B 30 2B  f;.........tlk0+
0620: B9 10 10 01 3D 80 23 2B  B9 10 10 01 3E 80 23 45  ....=.#+....>.#E
0630: 00 80 F0 FF FF 7F F0 FF  FF 7F 66 64 6F 31 01 80  ..........fdo1..
0640: 55 00 80 F0 FF FF 7F F0  FF FF 7F 66 64 6F 31 52  U..........fdo1R
0650: 12 80 F8 FF FF 7F F8 FF  FF 7F 73 30 32 37 35 37  ..........s02757
0660: 80 78 1C 03 80 46 00 45  00 80 F0 FF FF 7F F0 FF  .x...F.E........
0670: FF 7F 66 64 69 32 01 80  21 00                    ..fdi2..!.      
```

#### Opcodes

```
  0: 0x0521 [0x42] SET_CLI_EVENT_CANCEL_DATA()
  1: 0x0522 [0x45] LOAD_SCHEDULED_TASK: Load scheduler "fdo1" with entities [LocalPlayer, LocalPlayer], work=[200*, 0*]
  2: 0x0533 [0x55] WAIT_LOAD_SCHEDULER: Wait for scheduler "fdo1" with entities [LocalPlayer, LocalPlayer], work=200*
  3: 0x0542 [0x46] CAMERA_CONTROL: Disable user control
  4: 0x0544 [0x38] SET_CLIENT_EVENT_MODE(mode=19*)
  5: 0x0547 [0x1C] WAIT(1* ticks)
  6: 0x054A [0x34] LOAD_UNLOAD_ZONE(zone_id=593*)
  7: 0x054D [0x77] SET_EVENT_TIME_WEATHER(hour=255*, weather=1*)
  8: 0x0552 [0x1C] WAIT(1* ticks)
  9: 0x0555 [0x2F] Yvermain (ID: 17830073/0x011010B9)->Render.Flags0 &= ~0x80000 // Bit 19
 10: 0x055B [0x4E] SET_ENTITY_HIDE_FLAG: Show Yvermain (ID: 17830073/0x011010B9)
 11: 0x0561 [0xBA] SET_ENTITY_POSITION(entity_id=Yvermain (ID: 17830073/0x011010B9), pos_x=2.179*, pos_z=-19.211*, pos_y=0.000*, direction=94.8°*)
 12: 0x056E [0xBA] SET_ENTITY_POSITION(entity_id=LocalPlayer, pos_x=0.888*, pos_z=-21.604*, pos_y=0.000*, direction=293.5°*)
 13: 0x057B [0x80] LOAD_WAIT(entity=LocalPlayer)
 14: 0x0580 [0x80] LOAD_WAIT(entity=Yvermain (ID: 17830073/0x011010B9))
 15: 0x0585 [0x4A] LocalPlayer looks at Yvermain (ID: 17830073/0x011010B9)
 16: 0x058E [0x4A] Yvermain (ID: 17830073/0x011010B9) looks at LocalPlayer
 17: 0x0597 [0x1C] WAIT(30* ticks)
 18: 0x059A [0x45] LOAD_SCHEDULED_TASK: Load scheduler "s026" with entities [EventEntity, EventEntity], work=[558*, 0*]
 19: 0x05AB [0x1C] WAIT(15* ticks)
 20: 0x05AE [0x45] LOAD_SCHEDULED_TASK: Load scheduler "fdi1" with entities [LocalPlayer, LocalPlayer], work=[200*, 0*]
 21: 0x05BF [0x66] LOAD_EXT_SCHEDULER_MAIN: Load scheduler "thk1" with entities [Yvermain (ID: 17830073/0x011010B9), Yvermain (ID: 17830073/0x011010B9)], work=20*
 22: 0x05CE [0x03] Work_Zone[2] = 3958*
 23: 0x05D3 [0x2B] Yvermain (ID: 17830073/0x011010B9) [10044*]:
    → "Of course...it only makes sense that this special fertilizer helps these new plants to bear fruit."
 24: 0x05DA [0x23] WAIT_FOR_DIALOG_INTERACTION
 25: 0x05DB [0x66] LOAD_EXT_SCHEDULER_MAIN: Load scheduler "thk2" with entities [Yvermain (ID: 17830073/0x011010B9), Yvermain (ID: 17830073/0x011010B9)], work=20*
 26: 0x05EA [0x1C] WAIT(30* ticks)
 27: 0x05ED [0x52] END_LOAD_SCHEDULER: End scheduler "s026" with entities [EventEntity, EventEntity], work=558*
 28: 0x05FC [0x45] LOAD_SCHEDULED_TASK: Load scheduler "s027" with entities [EventEntity, EventEntity], work=[558*, 0*]
 29: 0x060D [0x1C] WAIT(30* ticks)
 30: 0x0610 [0x66] LOAD_EXT_SCHEDULER_MAIN: Load scheduler "tlk0" with entities [Yvermain (ID: 17830073/0x011010B9), Yvermain (ID: 17830073/0x011010B9)], work=20*
 31: 0x061F [0x2B] Yvermain (ID: 17830073/0x011010B9) [10045*]:
    → "The black mandragoras located in the Yahse Hunting Grounds can provide the $0 I need for my fertilizer. At least, that's what Erisa said."
 32: 0x0626 [0x23] WAIT_FOR_DIALOG_INTERACTION
 33: 0x0627 [0x2B] Yvermain (ID: 17830073/0x011010B9) [10046*]:
    → "I can't stress enough how much it would mean to us if you were able to obtain some."
 34: 0x062E [0x23] WAIT_FOR_DIALOG_INTERACTION
 35: 0x062F [0x45] LOAD_SCHEDULED_TASK: Load scheduler "fdo1" with entities [LocalPlayer, LocalPlayer], work=[200*, 0*]
 36: 0x0640 [0x55] WAIT_LOAD_SCHEDULER: Wait for scheduler "fdo1" with entities [LocalPlayer, LocalPlayer], work=200*
 37: 0x064F [0x52] END_LOAD_SCHEDULER: End scheduler "s027" with entities [EventEntity, EventEntity], work=558*
 38: 0x065E [0x35] LOAD_ZONE_NO_CLOSE(zone_id=701*)
 39: 0x0661 [0x78] ENABLE_GAME_TIMER_RESET_WEATHER()
 40: 0x0662 [0x1C] WAIT(1* ticks)
 41: 0x0665 [0x46] CAMERA_CONTROL: Restore default settings
 42: 0x0667 [0x45] LOAD_SCHEDULED_TASK: Load scheduler "fdi2" with entities [LocalPlayer, LocalPlayer], work=[200*, 0*]
 43: 0x0678 [0x21] END_EVENT
 44: 0x0679 [0x00] END_REQSTACK()
```

### Event 5026

#### Metadata

| Field        | Value      |
|--------------|------------|
| Entrypoint   | 0x067A     |
| Data Size    | 1857 bytes |
| Instructions | 216        |

```
      00 01 02 03 04 05 06 07  08 09 0A 0B 0C 0D 0E 0F
      -- -- -- -- -- -- -- --  -- -- -- -- -- -- -- --
0670:                                42 45 00 80 F0 FF            BE....
0680: FF 7F F0 FF FF 7F 66 64  6F 31 01 80 55 00 80 F0  ......fdo1..U...
0690: FF FF 7F F0 FF FF 7F 66  64 6F 31 46 01 38 02 80  .......fdo1F.8..
06A0: 1C 03 80 34 04 80 77 05  80 03 80 1C 03 80 2F 00  ...4..w......./.
06B0: B8 10 10 01 2F 00 B9 10  10 01 2F 00 BA 10 10 01  ..../...../.....
06C0: 2F 00 BB 10 10 01 4E 00  B9 10 10 01 4E 00 BA 10  /.....N.....N...
06D0: 10 01 4E 00 BB 10 10 01  94 01 B8 10 10 01 94 01  ..N.............
06E0: B9 10 10 01 94 01 F0 FF  FF 7F BA B8 10 10 01 3F  ...............?
06F0: 80 40 80 01 80 11 80 BA  B9 10 10 01 09 80 0A 80  .@..............
0700: 01 80 0B 80 BA BB 10 10  01 41 80 42 80 01 80 43  .........A.B...C
0710: 80 BA BA 10 10 01 44 80  45 80 01 80 43 80 BA F0  ......D.E...C...
0720: FF FF 7F 38 80 39 80 01  80 3A 80 80 F0 FF FF 7F  ...8.9...:......
0730: 80 B8 10 10 01 80 B9 10  10 01 80 BA 10 10 01 80  ................
0740: BB 10 10 01 4A F0 FF FF  7F B9 10 10 01 4A B9 10  ....J........J..
0750: 10 01 F0 FF FF 7F 4A B8  10 10 01 BA 10 10 01 79  ......J........y
0760: 00 BA 10 10 01 B9 10 10  01 79 00 BB 10 10 01 B9  .........y......
0770: 10 10 01 45 12 80 F8 FF  FF 7F F8 FF FF 7F 73 30  ...E..........s0
0780: 32 38 01 80 1C 13 80 45  00 80 F0 FF FF 7F F0 FF  28.....E........
0790: FF 7F 66 64 69 31 01 80  03 02 10 2F 80 2B B9 10  ..fdi1...../.+..
07A0: 10 01 46 80 23 52 12 80  F8 FF FF 7F F8 FF FF 7F  ..F.#R..........
07B0: 73 30 32 38 45 12 80 F8  FF FF 7F F8 FF FF 7F 73  s028E..........s
07C0: 30 32 39 01 80 66 3B 80  B9 10 10 01 B9 10 10 01  029..f;.........
07D0: 74 6C 6B 30 2B B9 10 10  01 47 80 23 66 3B 80 B9  tlk0+....G.#f;..
07E0: 10 10 01 B9 10 10 01 74  6C 6B 31 27 05 BB 10 10  .......tlk1'....
07F0: 01 02 1C 48 80 27 05 BA  10 10 01 06 1C 13 80 52  ...H.'.........R
0800: 12 80 F8 FF FF 7F F8 FF  FF 7F 73 30 32 39 45 12  ..........s029E.
0810: 80 F8 FF FF 7F F8 FF FF  7F 73 30 33 30 01 80 2C  .........s030..,
0820: B5 10 10 01 B5 10 10 01  6F 70 65 6E 2B BB 10 10  ........open+...
0830: 01 49 80 4A F0 FF FF 7F  BB 10 10 01 79 00 B9 10  .I.J........y...
0840: 10 01 BB 10 10 01 1C 14  80 27 05 F0 FF FF 7F 25  .........'.....%
0850: 23 79 00 B9 10 10 01 BA  10 10 01 2B B9 10 10 01  #y.........+....
0860: 4A 80 23 6E BA 10 10 01  26 80 99 BA 10 10 01 2B  J.#n....&......+
0870: BA 10 10 01 4B 80 23 52  12 80 F8 FF FF 7F F8 FF  ....K.#R........
0880: FF 7F 73 30 33 30 45 12  80 F8 FF FF 7F F8 FF FF  ..s030E.........
0890: 7F 73 30 33 31 01 80 66  4C 80 BB 10 10 01 BB 10  .s031..fL.......
08A0: 10 01 74 6C 6B 30 2B BB  10 10 01 4D 80 1C 14 80  ..tlk0+....M....
08B0: 23 66 4C 80 BB 10 10 01  BB 10 10 01 74 6C 6B 31  #fL.........tlk1
08C0: 4E 00 B8 10 10 01 80 B8  10 10 01 52 12 80 F8 FF  N..........R....
08D0: FF 7F F8 FF FF 7F 73 30  33 31 45 12 80 F8 FF FF  ......s031E.....
08E0: 7F F8 FF FF 7F 73 30 33  32 01 80 2B B8 10 10 01  .....s032..+....
08F0: 4E 80 23 52 12 80 F8 FF  FF 7F F8 FF FF 7F 73 30  N.#R..........s0
0900: 33 32 45 12 80 F8 FF FF  7F F8 FF FF 7F 73 30 33  32E..........s03
0910: 33 01 80 4A BA 10 10 01  B8 10 10 01 1C 17 80 4A  3..J...........J
0920: BB 10 10 01 B8 10 10 01  66 4F 80 BA 10 10 01 BA  ........fO......
0930: 10 10 01 74 6C 6B 30 2B  BA 10 10 01 50 80 23 66  ...tlk0+....P.#f
0940: 4F 80 BA 10 10 01 BA 10  10 01 74 6C 6B 31 66 4C  O.........tlk1fL
0950: 80 BB 10 10 01 BB 10 10  01 74 6C 6B 30 2B BB 10  .........tlk0+..
0960: 10 01 51 80 23 66 4C 80  BB 10 10 01 BB 10 10 01  ..Q.#fL.........
0970: 74 6C 6B 31 52 12 80 F8  FF FF 7F F8 FF FF 7F 73  tlk1R..........s
0980: 30 33 33 45 12 80 F8 FF  FF 7F F8 FF FF 7F 73 30  033E..........s0
0990: 33 34 01 80 27 05 B8 10  10 01 05 2B B8 10 10 01  34..'......+....
09A0: 52 80 23 2A 05 B8 10 10  01 5B 53 80 B8 10 10 01  R.#*.....[S.....
09B0: B8 10 10 01 74 6C 75 30  2B B8 10 10 01 54 80 23  ....tlu0+....T.#
09C0: 5B 53 80 B8 10 10 01 B8  10 10 01 74 6C 75 31 52  [S.........tlu1R
09D0: 12 80 F8 FF FF 7F F8 FF  FF 7F 73 30 33 34 45 12  ..........s034E.
09E0: 80 F8 FF FF 7F F8 FF FF  7F 73 30 33 35 01 80 7B  .........s035..{
09F0: BA 10 10 01 6E BB 10 10  01 18 80 99 BB 10 10 01  ....n...........
0A00: 2B BB 10 10 01 55 80 23  66 4C 80 BB 10 10 01 BB  +....U.#fL......
0A10: 10 10 01 74 6C 6B 30 2B  BB 10 10 01 56 80 23 66  ...tlk0+....V.#f
0A20: 4C 80 BB 10 10 01 BB 10  10 01 74 6C 6B 31 52 12  L.........tlk1R.
0A30: 80 F8 FF FF 7F F8 FF FF  7F 73 30 33 35 45 12 80  .........s035E..
0A40: F8 FF FF 7F F8 FF FF 7F  73 30 33 36 01 80 27 05  ........s036..'.
0A50: BB 10 10 01 03 1C 17 80  27 05 BA 10 10 01 07 1C  ........'.......
0A60: 57 80 52 12 80 F8 FF FF  7F F8 FF FF 7F 73 30 33  W.R..........s03
0A70: 36 45 12 80 F8 FF FF 7F  F8 FF FF 7F 73 30 33 37  6E..........s037
0A80: 01 80 79 00 F0 FF FF 7F  B8 10 10 01 4A B8 10 10  ..y.........J...
0A90: 01 B9 10 10 01 1C 17 80  66 02 80 B8 10 10 01 B8  ........f.......
0AA0: 10 10 01 74 6C 6B 30 03  02 10 2F 80 2B B8 10 10  ...tlk0.../.+...
0AB0: 01 58 80 23 66 02 80 B8  10 10 01 B8 10 10 01 74  .X.#f..........t
0AC0: 6C 6B 31 66 3B 80 B9 10  10 01 B9 10 10 01 70 61  lk1f;.........pa
0AD0: 73 30 2B B9 10 10 01 59  80 23 53 B9 10 10 01 B9  s0+....Y.#S.....
0AE0: 10 10 01 70 61 73 30 7B  B8 10 10 01 52 12 80 F8  ...pas0{....R...
0AF0: FF FF 7F F8 FF FF 7F 73  30 33 37 45 12 80 F8 FF  .......s037E....
0B00: FF 7F F8 FF FF 7F 73 30  33 38 01 80 27 05 B8 10  ......s038..'...
0B10: 10 01 06 1C 21 80 45 00  80 F0 FF FF 7F F0 FF FF  ....!.E.........
0B20: 7F 66 64 6F 31 01 80 55  00 80 F0 FF FF 7F F0 FF  .fdo1..U........
0B30: FF 7F 66 64 6F 31 52 12  80 F8 FF FF 7F F8 FF FF  ..fdo1R.........
0B40: 7F 73 30 33 38 BA BB 10  10 01 5A 80 5B 80 01 80  .s038.....Z.[...
0B50: 5C 80 80 BB 10 10 01 1C  14 80 2C B5 10 10 01 B5  \.........,.....
0B60: 10 10 01 6F 70 65 6E 45  12 80 F8 FF FF 7F F8 FF  ...openE........
0B70: FF 7F 73 30 33 39 01 80  1C 13 80 45 00 80 F0 FF  ..s039.....E....
0B80: FF 7F F0 FF FF 7F 66 64  69 31 01 80 1C 5D 80 4E  ......fdi1...].N
0B90: 01 B8 10 10 01 27 05 BB  10 10 01 04 2B BB 10 10  .....'......+...
0BA0: 01 5E 80 23 79 00 B9 10  10 01 BB 10 10 01 2A 05  .^.#y.........*.
0BB0: BB 10 10 01 52 12 80 F8  FF FF 7F F8 FF FF 7F 73  ....R..........s
0BC0: 30 33 39 45 12 80 F8 FF  FF 7F F8 FF FF 7F 73 30  039E..........s0
0BD0: 34 30 01 80 BA BA 10 10  01 5F 80 60 80 01 80 5C  40......._.`...\
0BE0: 80 27 05 BA 10 10 01 08  29 05 BB 10 10 01 05 6E  .'......)......n
0BF0: BB 10 10 01 01 80 99 BB  10 10 01 2B BB 10 10 01  ...........+....
0C00: 61 80 23 66 3B 80 B9 10  10 01 B9 10 10 01 74 6C  a.#f;.........tl
0C10: 6B 30 2B B9 10 10 01 62  80 23 66 3B 80 B9 10 10  k0+....b.#f;....
0C20: 01 B9 10 10 01 74 6C 6B  31 2A 05 BB 10 10 01 4A  .....tlk1*.....J
0C30: F0 FF FF 7F BB 10 10 01  52 12 80 F8 FF FF 7F F8  ........R.......
0C40: FF FF 7F 73 30 34 30 45  12 80 F8 FF FF 7F F8 FF  ...s040E........
0C50: FF 7F 73 30 34 31 01 80  6E BB 10 10 01 63 80 99  ..s041..n....c..
0C60: BB 10 10 01 2B BB 10 10  01 64 80 23 66 3B 80 B9  ....+....d.#f;..
0C70: 10 10 01 B9 10 10 01 74  6C 6B 30 2B B9 10 10 01  .......tlk0+....
0C80: 65 80 23 66 3B 80 B9 10  10 01 B9 10 10 01 74 6C  e.#f;.........tl
0C90: 6B 31 52 12 80 F8 FF FF  7F F8 FF FF 7F 73 30 34  k1R..........s04
0CA0: 31 45 12 80 F8 FF FF 7F  F8 FF FF 7F 73 30 34 32  1E..........s042
0CB0: 01 80 4A BB 10 10 01 F0  FF FF 7F 1C 17 80 4A BA  ..J...........J.
0CC0: 10 10 01 F0 FF FF 7F 66  4C 80 BB 10 10 01 BB 10  .......fL.......
0CD0: 10 01 74 6C 6B 30 2B BB  10 10 01 66 80 23 2B BB  ..tlk0+....f.#+.
0CE0: 10 10 01 67 80 23 66 4C  80 BB 10 10 01 BB 10 10  ...g.#fL........
0CF0: 01 74 6C 6B 31 6E BB 10  10 01 26 80 99 BB 10 10  .tlk1n....&.....
0D00: 01 2B BB 10 10 01 68 80  23 52 12 80 F8 FF FF 7F  .+....h.#R......
0D10: F8 FF FF 7F 73 30 34 32  45 12 80 F8 FF FF 7F F8  ....s042E.......
0D20: FF FF 7F 73 30 34 33 01  80 66 4C 80 BB 10 10 01  ...s043..fL.....
0D30: BB 10 10 01 74 6C 6B 30  2B BB 10 10 01 69 80 23  ....tlk0+....i.#
0D40: 2B BB 10 10 01 6A 80 23  52 12 80 F8 FF FF 7F F8  +....j.#R.......
0D50: FF FF 7F 73 30 34 33 45  12 80 F8 FF FF 7F F8 FF  ...s043E........
0D60: FF 7F 73 30 34 34 01 80  2B BB 10 10 01 6B 80 23  ..s044..+....k.#
0D70: 45 00 80 F0 FF FF 7F F0  FF FF 7F 66 64 6F 31 01  E..........fdo1.
0D80: 80 55 00 80 F0 FF FF 7F  F0 FF FF 7F 66 64 6F 31  .U..........fdo1
0D90: 52 12 80 F8 FF FF 7F F8  FF FF 7F 73 30 34 34 35  R..........s0445
0DA0: 37 80 78 1C 03 80 46 00  45 00 80 F0 FF FF 7F F0  7.x...F.E.......
0DB0: FF FF 7F 66 64 69 32 01  80 21 00                 ...fdi2..!.     
```

#### Opcodes

```
  0: 0x067A [0x42] SET_CLI_EVENT_CANCEL_DATA()
  1: 0x067B [0x45] LOAD_SCHEDULED_TASK: Load scheduler "fdo1" with entities [LocalPlayer, LocalPlayer], work=[200*, 0*]
  2: 0x068C [0x55] WAIT_LOAD_SCHEDULER: Wait for scheduler "fdo1" with entities [LocalPlayer, LocalPlayer], work=200*
  3: 0x069B [0x46] CAMERA_CONTROL: Disable user control
  4: 0x069D [0x38] SET_CLIENT_EVENT_MODE(mode=19*)
  5: 0x06A0 [0x1C] WAIT(1* ticks)
  6: 0x06A3 [0x34] LOAD_UNLOAD_ZONE(zone_id=593*)
  7: 0x06A6 [0x77] SET_EVENT_TIME_WEATHER(hour=255*, weather=1*)
  8: 0x06AB [0x1C] WAIT(1* ticks)
  9: 0x06AE [0x2F] Erisa (ID: 17830072/0x011010B8)->Render.Flags0 &= ~0x80000 // Bit 19
 10: 0x06B4 [0x2F] Yvermain (ID: 17830073/0x011010B9)->Render.Flags0 &= ~0x80000 // Bit 19
 11: 0x06BA [0x2F] Kyff (ID: 17830074/0x011010BA)->Render.Flags0 &= ~0x80000 // Bit 19
 12: 0x06C0 [0x2F] Dworvigg (ID: 17830075/0x011010BB)->Render.Flags0 &= ~0x80000 // Bit 19
 13: 0x06C6 [0x4E] SET_ENTITY_HIDE_FLAG: Show Yvermain (ID: 17830073/0x011010B9)
 14: 0x06CC [0x4E] SET_ENTITY_HIDE_FLAG: Show Kyff (ID: 17830074/0x011010BA)
 15: 0x06D2 [0x4E] SET_ENTITY_HIDE_FLAG: Show Dworvigg (ID: 17830075/0x011010BB)
 16: 0x06D8 [0x94] Erisa (ID: 17830072/0x011010B8)->Render.Flags3 ^= 0x01
 17: 0x06DE [0x94] Yvermain (ID: 17830073/0x011010B9)->Render.Flags3 ^= 0x01
 18: 0x06E4 [0x94] LocalPlayer->Render.Flags3 ^= 0x01
 19: 0x06EA [0xBA] SET_ENTITY_POSITION(entity_id=Erisa (ID: 17830072/0x011010B8), pos_x=-0.070*, pos_z=-20.136*, pos_y=0.000*, direction=53.8°*)
 20: 0x06F7 [0xBA] SET_ENTITY_POSITION(entity_id=Yvermain (ID: 17830073/0x011010B9), pos_x=2.179*, pos_z=-19.211*, pos_y=0.000*, direction=94.8°*)
 21: 0x0704 [0xBA] SET_ENTITY_POSITION(entity_id=Dworvigg (ID: 17830075/0x011010BB), pos_x=0.559*, pos_z=-26.939*, pos_y=0.000*, direction=308.4°*)
 22: 0x0711 [0xBA] SET_ENTITY_POSITION(entity_id=Kyff (ID: 17830074/0x011010BA), pos_x=1.943*, pos_z=-27.244*, pos_y=0.000*, direction=308.4°*)
 23: 0x071E [0xBA] SET_ENTITY_POSITION(entity_id=LocalPlayer, pos_x=0.888*, pos_z=-21.604*, pos_y=0.000*, direction=293.5°*)
 24: 0x072B [0x80] LOAD_WAIT(entity=LocalPlayer)
 25: 0x0730 [0x80] LOAD_WAIT(entity=Erisa (ID: 17830072/0x011010B8))
 26: 0x0735 [0x80] LOAD_WAIT(entity=Yvermain (ID: 17830073/0x011010B9))
 27: 0x073A [0x80] LOAD_WAIT(entity=Kyff (ID: 17830074/0x011010BA))
 28: 0x073F [0x80] LOAD_WAIT(entity=Dworvigg (ID: 17830075/0x011010BB))
 29: 0x0744 [0x4A] LocalPlayer looks at Yvermain (ID: 17830073/0x011010B9)
 30: 0x074D [0x4A] Yvermain (ID: 17830073/0x011010B9) looks at LocalPlayer
 31: 0x0756 [0x4A] Erisa (ID: 17830072/0x011010B8) looks at Kyff (ID: 17830074/0x011010BA)
 32: 0x075F [0x79] Kyff (ID: 17830074/0x011010BA) looks at Yvermain (ID: 17830073/0x011010B9) (Basic look)
 33: 0x0769 [0x79] Dworvigg (ID: 17830075/0x011010BB) looks at Yvermain (ID: 17830073/0x011010B9) (Basic look)
 34: 0x0773 [0x45] LOAD_SCHEDULED_TASK: Load scheduler "s028" with entities [EventEntity, EventEntity], work=[558*, 0*]
 35: 0x0784 [0x1C] WAIT(15* ticks)
 36: 0x0787 [0x45] LOAD_SCHEDULED_TASK: Load scheduler "fdi1" with entities [LocalPlayer, LocalPlayer], work=[200*, 0*]
 37: 0x0798 [0x03] Work_Zone[2] = 3958*
 38: 0x079D [0x2B] Yvermain (ID: 17830073/0x011010B9) [10047*]:
    → "Oh ho, so you got yourself ahold of $0!"
 39: 0x07A4 [0x23] WAIT_FOR_DIALOG_INTERACTION
 40: 0x07A5 [0x52] END_LOAD_SCHEDULER: End scheduler "s028" with entities [EventEntity, EventEntity], work=558*
 41: 0x07B4 [0x45] LOAD_SCHEDULED_TASK: Load scheduler "s029" with entities [EventEntity, EventEntity], work=[558*, 0*]
 42: 0x07C5 [0x66] LOAD_EXT_SCHEDULER_MAIN: Load scheduler "tlk0" with entities [Yvermain (ID: 17830073/0x011010B9), Yvermain (ID: 17830073/0x011010B9)], work=20*
 43: 0x07D4 [0x2B] Yvermain (ID: 17830073/0x011010B9) [10048*]:
    → "Erisa mentioned something about creating fertilizer from this stuff."
 44: 0x07DB [0x23] WAIT_FOR_DIALOG_INTERACTION
 45: 0x07DC [0x66] LOAD_EXT_SCHEDULER_MAIN: Load scheduler "tlk1" with entities [Yvermain (ID: 17830073/0x011010B9), Yvermain (ID: 17830073/0x011010B9)], work=20*
 46: 0x07EB [0x27] REQ_SET(priority=0x05, entity_id=Dworvigg (ID: 17830075/0x011010BB), tag_num=0x02)
 47: 0x07F2 [0x1C] WAIT(5* ticks)
 48: 0x07F5 [0x27] REQ_SET(priority=0x05, entity_id=Kyff (ID: 17830074/0x011010BA), tag_num=0x06)
 49: 0x07FC [0x1C] WAIT(15* ticks)
 50: 0x07FF [0x52] END_LOAD_SCHEDULER: End scheduler "s029" with entities [EventEntity, EventEntity], work=558*
 51: 0x080E [0x45] LOAD_SCHEDULED_TASK: Load scheduler "s030" with entities [EventEntity, EventEntity], work=[558*, 0*]
 52: 0x081F [0x2C] CREATE_SCHEDULER_TASK: Create scheduler "open" with entities [Door: (ID: 17830069/0x011010B5), Door: (ID: 17830069/0x011010B5)]
 53: 0x082C [0x2B] Dworvigg (ID: 17830075/0x011010BB) [10049*]:
    → "Where can I find Erisa?"
 54: 0x0833 [0x4A] LocalPlayer looks at Dworvigg (ID: 17830075/0x011010BB)
 55: 0x083C [0x79] Yvermain (ID: 17830073/0x011010B9) looks at Dworvigg (ID: 17830075/0x011010BB) (Basic look)
 56: 0x0846 [0x1C] WAIT(60* ticks)
 57: 0x0849 [0x27] REQ_SET(priority=0x05, entity_id=LocalPlayer, tag_num=0x25)
 58: 0x0850 [0x23] WAIT_FOR_DIALOG_INTERACTION
 59: 0x0851 [0x79] Yvermain (ID: 17830073/0x011010B9) looks at Kyff (ID: 17830074/0x011010BA) (Basic look)
 60: 0x085B [0x2B] Yvermain (ID: 17830073/0x011010B9) [10050*]:
    → "Kyff? Who's that man with you?"
 61: 0x0862 [0x23] WAIT_FOR_DIALOG_INTERACTION
 62: 0x0863 [0x6E] Kyff (ID: 17830074/0x011010BA) uses emote 7*
 63: 0x086A [0x99] Wait for Kyff (ID: 17830074/0x011010BA) animation to complete
 64: 0x086F [0x2B] Kyff (ID: 17830074/0x011010BA) [10051*]:
    → "Well, you see--"
 65: 0x0876 [0x23] WAIT_FOR_DIALOG_INTERACTION
 66: 0x0877 [0x52] END_LOAD_SCHEDULER: End scheduler "s030" with entities [EventEntity, EventEntity], work=558*
 67: 0x0886 [0x45] LOAD_SCHEDULED_TASK: Load scheduler "s031" with entities [EventEntity, EventEntity], work=[558*, 0*]
 68: 0x0897 [0x66] LOAD_EXT_SCHEDULER_MAIN: Load scheduler "tlk0" with entities [Dworvigg (ID: 17830075/0x011010BB), Dworvigg (ID: 17830075/0x011010BB)], work=69*
 69: 0x08A6 [0x2B] Dworvigg (ID: 17830075/0x011010BB) [10052*]:
    → "Enough with the formalities. Those plants you've been growing? I need 'em."
 70: 0x08AD [0x1C] WAIT(60* ticks)
 71: 0x08B0 [0x23] WAIT_FOR_DIALOG_INTERACTION
 72: 0x08B1 [0x66] LOAD_EXT_SCHEDULER_MAIN: Load scheduler "tlk1" with entities [Dworvigg (ID: 17830075/0x011010BB), Dworvigg (ID: 17830075/0x011010BB)], work=69*
 73: 0x08C0 [0x4E] SET_ENTITY_HIDE_FLAG: Show Erisa (ID: 17830072/0x011010B8)
 74: 0x08C6 [0x80] LOAD_WAIT(entity=Erisa (ID: 17830072/0x011010B8))
 75: 0x08CB [0x52] END_LOAD_SCHEDULER: End scheduler "s031" with entities [EventEntity, EventEntity], work=558*
 76: 0x08DA [0x45] LOAD_SCHEDULED_TASK: Load scheduler "s032" with entities [EventEntity, EventEntity], work=[558*, 0*]
 77: 0x08EB [0x2B] Erisa (ID: 17830072/0x011010B8) [10053*]:
    → "But...why?"
 78: 0x08F2 [0x23] WAIT_FOR_DIALOG_INTERACTION
 79: 0x08F3 [0x52] END_LOAD_SCHEDULER: End scheduler "s032" with entities [EventEntity, EventEntity], work=558*
 80: 0x0902 [0x45] LOAD_SCHEDULED_TASK: Load scheduler "s033" with entities [EventEntity, EventEntity], work=[558*, 0*]
 81: 0x0913 [0x4A] Kyff (ID: 17830074/0x011010BA) looks at Erisa (ID: 17830072/0x011010B8)
 82: 0x091C [0x1C] WAIT(30* ticks)
 83: 0x091F [0x4A] Dworvigg (ID: 17830075/0x011010BB) looks at Erisa (ID: 17830072/0x011010B8)
 84: 0x0928 [0x66] LOAD_EXT_SCHEDULER_MAIN: Load scheduler "tlk0" with entities [Kyff (ID: 17830074/0x011010BA), Kyff (ID: 17830074/0x011010BA)], work=9*
 85: 0x0937 [0x2B] Kyff (ID: 17830074/0x011010BA) [10054*]:
    → "Erisa, please. You have to trust me."
 86: 0x093E [0x23] WAIT_FOR_DIALOG_INTERACTION
 87: 0x093F [0x66] LOAD_EXT_SCHEDULER_MAIN: Load scheduler "tlk1" with entities [Kyff (ID: 17830074/0x011010BA), Kyff (ID: 17830074/0x011010BA)], work=9*
 88: 0x094E [0x66] LOAD_EXT_SCHEDULER_MAIN: Load scheduler "tlk0" with entities [Dworvigg (ID: 17830075/0x011010BB), Dworvigg (ID: 17830075/0x011010BB)], work=69*
 89: 0x095D [0x2B] Dworvigg (ID: 17830075/0x011010BB) [10055*]:
    → "These plants are dangerous, so Ikhi Askamot has permitted us to take them."
 90: 0x0964 [0x23] WAIT_FOR_DIALOG_INTERACTION
 91: 0x0965 [0x66] LOAD_EXT_SCHEDULER_MAIN: Load scheduler "tlk1" with entities [Dworvigg (ID: 17830075/0x011010BB), Dworvigg (ID: 17830075/0x011010BB)], work=69*
 92: 0x0974 [0x52] END_LOAD_SCHEDULER: End scheduler "s033" with entities [EventEntity, EventEntity], work=558*
 93: 0x0983 [0x45] LOAD_SCHEDULED_TASK: Load scheduler "s034" with entities [EventEntity, EventEntity], work=[558*, 0*]
 94: 0x0994 [0x27] REQ_SET(priority=0x05, entity_id=Erisa (ID: 17830072/0x011010B8), tag_num=0x05)
 95: 0x099B [0x2B] Erisa (ID: 17830072/0x011010B8) [10056*]:
    → "But...my entire research revolves around studying dangerous plants. Why would these be any different?"
 96: 0x09A2 [0x23] WAIT_FOR_DIALOG_INTERACTION
 97: 0x09A3 [0x2A] GET_REQ_LEVEL(level=5, entity_id=Erisa (ID: 17830072/0x011010B8))
 98: 0x09A9 [0x5B] LOAD_EXT_SCHEDULER: Load scheduler "tlu0" with entities [Erisa (ID: 17830072/0x011010B8), Erisa (ID: 17830072/0x011010B8)], work=1361*
 99: 0x09B8 [0x2B] Erisa (ID: 17830072/0x011010B8) [10057*]:
    → "What you really mean is that you aren't satisfied laying waste to the forest. You want to rob the precious life it has given us!"
100: 0x09BF [0x23] WAIT_FOR_DIALOG_INTERACTION
101: 0x09C0 [0x5B] LOAD_EXT_SCHEDULER: Load scheduler "tlu1" with entities [Erisa (ID: 17830072/0x011010B8), Erisa (ID: 17830072/0x011010B8)], work=1361*
102: 0x09CF [0x52] END_LOAD_SCHEDULER: End scheduler "s034" with entities [EventEntity, EventEntity], work=558*
103: 0x09DE [0x45] LOAD_SCHEDULED_TASK: Load scheduler "s035" with entities [EventEntity, EventEntity], work=[558*, 0*]
104: 0x09EF [0x7B] Kyff (ID: 17830074/0x011010BA) stops talking
105: 0x09F4 [0x6E] Dworvigg (ID: 17830075/0x011010BB) uses emote 6*
106: 0x09FB [0x99] Wait for Dworvigg (ID: 17830075/0x011010BB) animation to complete
107: 0x0A00 [0x2B] Dworvigg (ID: 17830075/0x011010BB) [10058*]:
    → "I have no time for this. Just hand over the plants."
108: 0x0A07 [0x23] WAIT_FOR_DIALOG_INTERACTION
109: 0x0A08 [0x66] LOAD_EXT_SCHEDULER_MAIN: Load scheduler "tlk0" with entities [Dworvigg (ID: 17830075/0x011010BB), Dworvigg (ID: 17830075/0x011010BB)], work=69*
110: 0x0A17 [0x2B] Dworvigg (ID: 17830075/0x011010BB) [10059*]:
    → "They're in the back, right?"
111: 0x0A1E [0x23] WAIT_FOR_DIALOG_INTERACTION
112: 0x0A1F [0x66] LOAD_EXT_SCHEDULER_MAIN: Load scheduler "tlk1" with entities [Dworvigg (ID: 17830075/0x011010BB), Dworvigg (ID: 17830075/0x011010BB)], work=69*
113: 0x0A2E [0x52] END_LOAD_SCHEDULER: End scheduler "s035" with entities [EventEntity, EventEntity], work=558*
114: 0x0A3D [0x45] LOAD_SCHEDULED_TASK: Load scheduler "s036" with entities [EventEntity, EventEntity], work=[558*, 0*]
115: 0x0A4E [0x27] REQ_SET(priority=0x05, entity_id=Dworvigg (ID: 17830075/0x011010BB), tag_num=0x03)
116: 0x0A55 [0x1C] WAIT(30* ticks)
117: 0x0A58 [0x27] REQ_SET(priority=0x05, entity_id=Kyff (ID: 17830074/0x011010BA), tag_num=0x07)
118: 0x0A5F [0x1C] WAIT(180* ticks)
119: 0x0A62 [0x52] END_LOAD_SCHEDULER: End scheduler "s036" with entities [EventEntity, EventEntity], work=558*
120: 0x0A71 [0x45] LOAD_SCHEDULED_TASK: Load scheduler "s037" with entities [EventEntity, EventEntity], work=[558*, 0*]
121: 0x0A82 [0x79] LocalPlayer looks at Erisa (ID: 17830072/0x011010B8) (Basic look)
122: 0x0A8C [0x4A] Erisa (ID: 17830072/0x011010B8) looks at Yvermain (ID: 17830073/0x011010B9)
123: 0x0A95 [0x1C] WAIT(30* ticks)
124: 0x0A98 [0x66] LOAD_EXT_SCHEDULER_MAIN: Load scheduler "tlk0" with entities [Erisa (ID: 17830072/0x011010B8), Erisa (ID: 17830072/0x011010B8)], work=19*
125: 0x0AA7 [0x03] Work_Zone[2] = 3958*
126: 0x0AAC [0x2B] Erisa (ID: 17830072/0x011010B8) [10060*]:
    → "Yvermain, hand me the $0."
127: 0x0AB3 [0x23] WAIT_FOR_DIALOG_INTERACTION
128: 0x0AB4 [0x66] LOAD_EXT_SCHEDULER_MAIN: Load scheduler "tlk1" with entities [Erisa (ID: 17830072/0x011010B8), Erisa (ID: 17830072/0x011010B8)], work=19*
129: 0x0AC3 [0x66] LOAD_EXT_SCHEDULER_MAIN: Load scheduler "pas0" with entities [Yvermain (ID: 17830073/0x011010B9), Yvermain (ID: 17830073/0x011010B9)], work=20*
130: 0x0AD2 [0x2B] Yvermain (ID: 17830073/0x011010B9) [10061*]:
    → "Huh? Oh, right."
131: 0x0AD9 [0x23] WAIT_FOR_DIALOG_INTERACTION
132: 0x0ADA [0x53] WAIT_SCHEDULER_TASK: Wait for scheduler "pas0" with entities [Yvermain (ID: 17830073/0x011010B9), Yvermain (ID: 17830073/0x011010B9)]
133: 0x0AE7 [0x7B] Erisa (ID: 17830072/0x011010B8) stops talking
134: 0x0AEC [0x52] END_LOAD_SCHEDULER: End scheduler "s037" with entities [EventEntity, EventEntity], work=558*
135: 0x0AFB [0x45] LOAD_SCHEDULED_TASK: Load scheduler "s038" with entities [EventEntity, EventEntity], work=[558*, 0*]
136: 0x0B0C [0x27] REQ_SET(priority=0x05, entity_id=Erisa (ID: 17830072/0x011010B8), tag_num=0x06)
137: 0x0B13 [0x1C] WAIT(90* ticks)
138: 0x0B16 [0x45] LOAD_SCHEDULED_TASK: Load scheduler "fdo1" with entities [LocalPlayer, LocalPlayer], work=[200*, 0*]
139: 0x0B27 [0x55] WAIT_LOAD_SCHEDULER: Wait for scheduler "fdo1" with entities [LocalPlayer, LocalPlayer], work=200*
140: 0x0B36 [0x52] END_LOAD_SCHEDULER: End scheduler "s038" with entities [EventEntity, EventEntity], work=558*
141: 0x0B45 [0xBA] SET_ENTITY_POSITION(entity_id=Dworvigg (ID: 17830075/0x011010BB), pos_x=-0.066*, pos_z=-17.071*, pos_y=0.000*, direction=95.0°*)
142: 0x0B52 [0x80] LOAD_WAIT(entity=Dworvigg (ID: 17830075/0x011010BB))
143: 0x0B57 [0x1C] WAIT(60* ticks)
144: 0x0B5A [0x2C] CREATE_SCHEDULER_TASK: Create scheduler "open" with entities [Door: (ID: 17830069/0x011010B5), Door: (ID: 17830069/0x011010B5)]
145: 0x0B67 [0x45] LOAD_SCHEDULED_TASK: Load scheduler "s039" with entities [EventEntity, EventEntity], work=[558*, 0*]
146: 0x0B78 [0x1C] WAIT(15* ticks)
147: 0x0B7B [0x45] LOAD_SCHEDULED_TASK: Load scheduler "fdi1" with entities [LocalPlayer, LocalPlayer], work=[200*, 0*]
148: 0x0B8C [0x1C] WAIT(45* ticks)
149: 0x0B8F [0x4E] SET_ENTITY_HIDE_FLAG: Hide Erisa (ID: 17830072/0x011010B8)
150: 0x0B95 [0x27] REQ_SET(priority=0x05, entity_id=Dworvigg (ID: 17830075/0x011010BB), tag_num=0x04)
151: 0x0B9C [0x2B] Dworvigg (ID: 17830075/0x011010BB) [10062*]:
    → "Graaah, where in the hell could she have put them!? The plants aren't here at all!"
152: 0x0BA3 [0x23] WAIT_FOR_DIALOG_INTERACTION
153: 0x0BA4 [0x79] Yvermain (ID: 17830073/0x011010B9) looks at Dworvigg (ID: 17830075/0x011010BB) (Basic look)
154: 0x0BAE [0x2A] GET_REQ_LEVEL(level=5, entity_id=Dworvigg (ID: 17830075/0x011010BB))
155: 0x0BB4 [0x52] END_LOAD_SCHEDULER: End scheduler "s039" with entities [EventEntity, EventEntity], work=558*
156: 0x0BC3 [0x45] LOAD_SCHEDULED_TASK: Load scheduler "s040" with entities [EventEntity, EventEntity], work=[558*, 0*]
157: 0x0BD4 [0xBA] SET_ENTITY_POSITION(entity_id=Kyff (ID: 17830074/0x011010BA), pos_x=-0.072*, pos_z=-18.262*, pos_y=0.000*, direction=95.0°*)
158: 0x0BE1 [0x27] REQ_SET(priority=0x05, entity_id=Kyff (ID: 17830074/0x011010BA), tag_num=0x08)
159: 0x0BE8 [0x29] REQ_SET_WAIT(priority=0x05, entity_id=Dworvigg (ID: 17830075/0x011010BB), tag_num=0x05)
160: 0x0BEF [0x6E] Dworvigg (ID: 17830075/0x011010BB) uses emote 0*
161: 0x0BF6 [0x99] Wait for Dworvigg (ID: 17830075/0x011010BB) animation to complete
162: 0x0BFB [0x2B] Dworvigg (ID: 17830075/0x011010BB) [10063*]:
    → "Where'd she take 'em? Out with it, or it'll be your hide on the line!"
163: 0x0C02 [0x23] WAIT_FOR_DIALOG_INTERACTION
164: 0x0C03 [0x66] LOAD_EXT_SCHEDULER_MAIN: Load scheduler "tlk0" with entities [Yvermain (ID: 17830073/0x011010B9), Yvermain (ID: 17830073/0x011010B9)], work=20*
165: 0x0C12 [0x2B] Yvermain (ID: 17830073/0x011010B9) [10064*]:
    → "Sh-she said she'd take them somewhere more appropriate for fertilizing..."
166: 0x0C19 [0x23] WAIT_FOR_DIALOG_INTERACTION
167: 0x0C1A [0x66] LOAD_EXT_SCHEDULER_MAIN: Load scheduler "tlk1" with entities [Yvermain (ID: 17830073/0x011010B9), Yvermain (ID: 17830073/0x011010B9)], work=20*
168: 0x0C29 [0x2A] GET_REQ_LEVEL(level=5, entity_id=Dworvigg (ID: 17830075/0x011010BB))
169: 0x0C2F [0x4A] LocalPlayer looks at Dworvigg (ID: 17830075/0x011010BB)
170: 0x0C38 [0x52] END_LOAD_SCHEDULER: End scheduler "s040" with entities [EventEntity, EventEntity], work=558*
171: 0x0C47 [0x45] LOAD_SCHEDULED_TASK: Load scheduler "s041" with entities [EventEntity, EventEntity], work=[558*, 0*]
172: 0x0C58 [0x6E] Dworvigg (ID: 17830075/0x011010BB) uses emote 25*
173: 0x0C5F [0x99] Wait for Dworvigg (ID: 17830075/0x011010BB) animation to complete
174: 0x0C64 [0x2B] Dworvigg (ID: 17830075/0x011010BB) [10065*]:
    → "Where!? Tell me, now!"
175: 0x0C6B [0x23] WAIT_FOR_DIALOG_INTERACTION
176: 0x0C6C [0x66] LOAD_EXT_SCHEDULER_MAIN: Load scheduler "tlk0" with entities [Yvermain (ID: 17830073/0x011010B9), Yvermain (ID: 17830073/0x011010B9)], work=20*
177: 0x0C7B [0x2B] Yvermain (ID: 17830073/0x011010B9) [10066*]:
    → "Th-the Civic Arboretum in the Rala Waterways..."
178: 0x0C82 [0x23] WAIT_FOR_DIALOG_INTERACTION
179: 0x0C83 [0x66] LOAD_EXT_SCHEDULER_MAIN: Load scheduler "tlk1" with entities [Yvermain (ID: 17830073/0x011010B9), Yvermain (ID: 17830073/0x011010B9)], work=20*
180: 0x0C92 [0x52] END_LOAD_SCHEDULER: End scheduler "s041" with entities [EventEntity, EventEntity], work=558*
181: 0x0CA1 [0x45] LOAD_SCHEDULED_TASK: Load scheduler "s042" with entities [EventEntity, EventEntity], work=[558*, 0*]
182: 0x0CB2 [0x4A] Dworvigg (ID: 17830075/0x011010BB) looks at LocalPlayer
183: 0x0CBB [0x1C] WAIT(30* ticks)
184: 0x0CBE [0x4A] Kyff (ID: 17830074/0x011010BA) looks at LocalPlayer
185: 0x0CC7 [0x66] LOAD_EXT_SCHEDULER_MAIN: Load scheduler "tlk0" with entities [Dworvigg (ID: 17830075/0x011010BB), Dworvigg (ID: 17830075/0x011010BB)], work=69*
186: 0x0CD6 [0x2B] Dworvigg (ID: 17830075/0x011010BB) [10067*]:
    → "You! Don't just stand there! If you're a pioneer like us, then it's your moral duty to help us get those plants back!"
187: 0x0CDD [0x23] WAIT_FOR_DIALOG_INTERACTION
188: 0x0CDE [0x2B] Dworvigg (ID: 17830075/0x011010BB) [10068*]:
    → "Those cursed things grow from seeds dropped by rafflesia."
189: 0x0CE5 [0x23] WAIT_FOR_DIALOG_INTERACTION
190: 0x0CE6 [0x66] LOAD_EXT_SCHEDULER_MAIN: Load scheduler "tlk1" with entities [Dworvigg (ID: 17830075/0x011010BB), Dworvigg (ID: 17830075/0x011010BB)], work=69*
191: 0x0CF5 [0x6E] Dworvigg (ID: 17830075/0x011010BB) uses emote 7*
192: 0x0CFC [0x99] Wait for Dworvigg (ID: 17830075/0x011010BB) animation to complete
193: 0x0D01 [0x2B] Dworvigg (ID: 17830075/0x011010BB) [10069*]:
    → "As soon as they start bearing fruit, everyone around the plant will be in danger!"
194: 0x0D08 [0x23] WAIT_FOR_DIALOG_INTERACTION
195: 0x0D09 [0x52] END_LOAD_SCHEDULER: End scheduler "s042" with entities [EventEntity, EventEntity], work=558*
196: 0x0D18 [0x45] LOAD_SCHEDULED_TASK: Load scheduler "s043" with entities [EventEntity, EventEntity], work=[558*, 0*]
197: 0x0D29 [0x66] LOAD_EXT_SCHEDULER_MAIN: Load scheduler "tlk0" with entities [Dworvigg (ID: 17830075/0x011010BB), Dworvigg (ID: 17830075/0x011010BB)], work=69*
198: 0x0D38 [0x2B] Dworvigg (ID: 17830075/0x011010BB) [10070*]:
    → "Listen to me very carefully. The plants you're looking for have bulky leaves with fruit covered in a hard shell. Pluck off those harvest-wrecking monstrosities."
199: 0x0D3F [0x23] WAIT_FOR_DIALOG_INTERACTION
200: 0x0D40 [0x2B] Dworvigg (ID: 17830075/0x011010BB) [10071*]:
    → "The two of us'll head to the Peacekeepers' Coalition right away. We've got to warn them before it's too late!"
201: 0x0D47 [0x23] WAIT_FOR_DIALOG_INTERACTION
202: 0x0D48 [0x52] END_LOAD_SCHEDULER: End scheduler "s043" with entities [EventEntity, EventEntity], work=558*
203: 0x0D57 [0x45] LOAD_SCHEDULED_TASK: Load scheduler "s044" with entities [EventEntity, EventEntity], work=[558*, 0*]
204: 0x0D68 [0x2B] Dworvigg (ID: 17830075/0x011010BB) [10072*]:
    → "We'll go to the Civic Arboretum as soon as they're ready. Now hurry!"
205: 0x0D6F [0x23] WAIT_FOR_DIALOG_INTERACTION
206: 0x0D70 [0x45] LOAD_SCHEDULED_TASK: Load scheduler "fdo1" with entities [LocalPlayer, LocalPlayer], work=[200*, 0*]
207: 0x0D81 [0x55] WAIT_LOAD_SCHEDULER: Wait for scheduler "fdo1" with entities [LocalPlayer, LocalPlayer], work=200*
208: 0x0D90 [0x52] END_LOAD_SCHEDULER: End scheduler "s044" with entities [EventEntity, EventEntity], work=558*
209: 0x0D9F [0x35] LOAD_ZONE_NO_CLOSE(zone_id=701*)
210: 0x0DA2 [0x78] ENABLE_GAME_TIMER_RESET_WEATHER()
211: 0x0DA3 [0x1C] WAIT(1* ticks)
212: 0x0DA6 [0x46] CAMERA_CONTROL: Restore default settings
213: 0x0DA8 [0x45] LOAD_SCHEDULED_TASK: Load scheduler "fdi2" with entities [LocalPlayer, LocalPlayer], work=[200*, 0*]
214: 0x0DB9 [0x21] END_EVENT
215: 0x0DBA [0x00] END_REQSTACK()
```

### Event 5027

#### Metadata

| Field        | Value     |
|--------------|-----------|
| Entrypoint   | 0x0DBB    |
| Data Size    | 370 bytes |
| Instructions | 46        |

```
      00 01 02 03 04 05 06 07  08 09 0A 0B 0C 0D 0E 0F
      -- -- -- -- -- -- -- --  -- -- -- -- -- -- -- --
0DB0:                                   42 45 00 80 F0             BE...
0DC0: FF FF 7F F0 FF FF 7F 66  64 6F 31 01 80 55 00 80  .......fdo1..U..
0DD0: F0 FF FF 7F F0 FF FF 7F  66 64 6F 31 46 01 38 02  ........fdo1F.8.
0DE0: 80 1C 03 80 34 04 80 77  05 80 03 80 1C 03 80 2F  ....4..w......./
0DF0: 00 B9 10 10 01 4E 00 B9  10 10 01 BA B9 10 10 01  .....N..........
0E00: 09 80 0A 80 01 80 0B 80  BA F0 FF FF 7F 38 80 39  .............8.9
0E10: 80 01 80 3A 80 80 F0 FF  FF 7F 80 B9 10 10 01 4A  ...:...........J
0E20: F0 FF FF 7F B9 10 10 01  4A B9 10 10 01 F0 FF FF  ........J.......
0E30: 7F 1C 17 80 45 12 80 F8  FF FF 7F F8 FF FF 7F 73  ....E..........s
0E40: 30 34 35 01 80 1C 13 80  45 00 80 F0 FF FF 7F F0  045.....E.......
0E50: FF FF 7F 66 64 69 31 01  80 66 3B 80 B9 10 10 01  ...fdi1..f;.....
0E60: B9 10 10 01 74 6C 6B 30  2B B9 10 10 01 6C 80 23  ....tlk0+....l.#
0E70: 66 3B 80 B9 10 10 01 B9  10 10 01 74 6C 6B 31 1C  f;.........tlk1.
0E80: 17 80 66 3B 80 B9 10 10  01 B9 10 10 01 74 68 6B  ..f;.........thk
0E90: 31 2B B9 10 10 01 6D 80  23 66 3B 80 B9 10 10 01  1+....m.#f;.....
0EA0: B9 10 10 01 74 68 6B 32  1C 17 80 52 12 80 F8 FF  ....thk2...R....
0EB0: FF 7F F8 FF FF 7F 73 30  34 35 45 12 80 F8 FF FF  ......s045E.....
0EC0: 7F F8 FF FF 7F 73 30 34  36 01 80 66 3B 80 B9 10  .....s046..f;...
0ED0: 10 01 B9 10 10 01 74 6C  6B 30 2B B9 10 10 01 6E  ......tlk0+....n
0EE0: 80 23 45 00 80 F0 FF FF  7F F0 FF FF 7F 66 64 6F  .#E..........fdo
0EF0: 31 01 80 55 00 80 F0 FF  FF 7F F0 FF FF 7F 66 64  1..U..........fd
0F00: 6F 31 52 12 80 F8 FF FF  7F F8 FF FF 7F 73 30 34  o1R..........s04
0F10: 36 35 37 80 78 1C 03 80  46 00 45 00 80 F0 FF FF  657.x...F.E.....
0F20: 7F F0 FF FF 7F 66 64 69  32 01 80 21 00           .....fdi2..!.   
```

#### Opcodes

```
  0: 0x0DBB [0x42] SET_CLI_EVENT_CANCEL_DATA()
  1: 0x0DBC [0x45] LOAD_SCHEDULED_TASK: Load scheduler "fdo1" with entities [LocalPlayer, LocalPlayer], work=[200*, 0*]
  2: 0x0DCD [0x55] WAIT_LOAD_SCHEDULER: Wait for scheduler "fdo1" with entities [LocalPlayer, LocalPlayer], work=200*
  3: 0x0DDC [0x46] CAMERA_CONTROL: Disable user control
  4: 0x0DDE [0x38] SET_CLIENT_EVENT_MODE(mode=19*)
  5: 0x0DE1 [0x1C] WAIT(1* ticks)
  6: 0x0DE4 [0x34] LOAD_UNLOAD_ZONE(zone_id=593*)
  7: 0x0DE7 [0x77] SET_EVENT_TIME_WEATHER(hour=255*, weather=1*)
  8: 0x0DEC [0x1C] WAIT(1* ticks)
  9: 0x0DEF [0x2F] Yvermain (ID: 17830073/0x011010B9)->Render.Flags0 &= ~0x80000 // Bit 19
 10: 0x0DF5 [0x4E] SET_ENTITY_HIDE_FLAG: Show Yvermain (ID: 17830073/0x011010B9)
 11: 0x0DFB [0xBA] SET_ENTITY_POSITION(entity_id=Yvermain (ID: 17830073/0x011010B9), pos_x=2.179*, pos_z=-19.211*, pos_y=0.000*, direction=94.8°*)
 12: 0x0E08 [0xBA] SET_ENTITY_POSITION(entity_id=LocalPlayer, pos_x=0.888*, pos_z=-21.604*, pos_y=0.000*, direction=293.5°*)
 13: 0x0E15 [0x80] LOAD_WAIT(entity=LocalPlayer)
 14: 0x0E1A [0x80] LOAD_WAIT(entity=Yvermain (ID: 17830073/0x011010B9))
 15: 0x0E1F [0x4A] LocalPlayer looks at Yvermain (ID: 17830073/0x011010B9)
 16: 0x0E28 [0x4A] Yvermain (ID: 17830073/0x011010B9) looks at LocalPlayer
 17: 0x0E31 [0x1C] WAIT(30* ticks)
 18: 0x0E34 [0x45] LOAD_SCHEDULED_TASK: Load scheduler "s045" with entities [EventEntity, EventEntity], work=[558*, 0*]
 19: 0x0E45 [0x1C] WAIT(15* ticks)
 20: 0x0E48 [0x45] LOAD_SCHEDULED_TASK: Load scheduler "fdi1" with entities [LocalPlayer, LocalPlayer], work=[200*, 0*]
 21: 0x0E59 [0x66] LOAD_EXT_SCHEDULER_MAIN: Load scheduler "tlk0" with entities [Yvermain (ID: 17830073/0x011010B9), Yvermain (ID: 17830073/0x011010B9)], work=20*
 22: 0x0E68 [0x2B] Yvermain (ID: 17830073/0x011010B9) [10073*]:
    → "Erisa must have gone to the Civic Arboretum to fertilize the plants."
 23: 0x0E6F [0x23] WAIT_FOR_DIALOG_INTERACTION
 24: 0x0E70 [0x66] LOAD_EXT_SCHEDULER_MAIN: Load scheduler "tlk1" with entities [Yvermain (ID: 17830073/0x011010B9), Yvermain (ID: 17830073/0x011010B9)], work=20*
 25: 0x0E7F [0x1C] WAIT(30* ticks)
 26: 0x0E82 [0x66] LOAD_EXT_SCHEDULER_MAIN: Load scheduler "thk1" with entities [Yvermain (ID: 17830073/0x011010B9), Yvermain (ID: 17830073/0x011010B9)], work=20*
 27: 0x0E91 [0x2B] Yvermain (ID: 17830073/0x011010B9) [10074*]:
    → "What did that guy say? Something about bulky leaves and hard shells?"
 28: 0x0E98 [0x23] WAIT_FOR_DIALOG_INTERACTION
 29: 0x0E99 [0x66] LOAD_EXT_SCHEDULER_MAIN: Load scheduler "thk2" with entities [Yvermain (ID: 17830073/0x011010B9), Yvermain (ID: 17830073/0x011010B9)], work=20*
 30: 0x0EA8 [0x1C] WAIT(30* ticks)
 31: 0x0EAB [0x52] END_LOAD_SCHEDULER: End scheduler "s045" with entities [EventEntity, EventEntity], work=558*
 32: 0x0EBA [0x45] LOAD_SCHEDULED_TASK: Load scheduler "s046" with entities [EventEntity, EventEntity], work=[558*, 0*]
 33: 0x0ECB [0x66] LOAD_EXT_SCHEDULER_MAIN: Load scheduler "tlk0" with entities [Yvermain (ID: 17830073/0x011010B9), Yvermain (ID: 17830073/0x011010B9)], work=20*
 34: 0x0EDA [0x2B] Yvermain (ID: 17830073/0x011010B9) [10075*]:
    → "I've got to stay here and keep an eye on things. Make sure Erisa comes back in one piece!"
 35: 0x0EE1 [0x23] WAIT_FOR_DIALOG_INTERACTION
 36: 0x0EE2 [0x45] LOAD_SCHEDULED_TASK: Load scheduler "fdo1" with entities [LocalPlayer, LocalPlayer], work=[200*, 0*]
 37: 0x0EF3 [0x55] WAIT_LOAD_SCHEDULER: Wait for scheduler "fdo1" with entities [LocalPlayer, LocalPlayer], work=200*
 38: 0x0F02 [0x52] END_LOAD_SCHEDULER: End scheduler "s046" with entities [EventEntity, EventEntity], work=558*
 39: 0x0F11 [0x35] LOAD_ZONE_NO_CLOSE(zone_id=701*)
 40: 0x0F14 [0x78] ENABLE_GAME_TIMER_RESET_WEATHER()
 41: 0x0F15 [0x1C] WAIT(1* ticks)
 42: 0x0F18 [0x46] CAMERA_CONTROL: Restore default settings
 43: 0x0F1A [0x45] LOAD_SCHEDULED_TASK: Load scheduler "fdi2" with entities [LocalPlayer, LocalPlayer], work=[200*, 0*]
 44: 0x0F2B [0x21] END_EVENT
 45: 0x0F2C [0x00] END_REQSTACK()
```

### Event 5028

#### Metadata

| Field        | Value      |
|--------------|------------|
| Entrypoint   | 0x0F2D     |
| Data Size    | 1059 bytes |
| Instructions | 122        |

```
      00 01 02 03 04 05 06 07  08 09 0A 0B 0C 0D 0E 0F
      -- -- -- -- -- -- -- --  -- -- -- -- -- -- -- --
0F20:                                         42 45 00               BE.
0F30: 80 F0 FF FF 7F F0 FF FF  7F 66 64 6F 31 01 80 55  .........fdo1..U
0F40: 00 80 F0 FF FF 7F F0 FF  FF 7F 66 64 6F 31 46 01  ..........fdo1F.
0F50: 38 02 80 1C 03 80 34 04  80 77 05 80 03 80 1C 03  8.....4..w......
0F60: 80 2C B5 10 10 01 B5 10  10 01 6F 70 65 6E 2F 00  .,........open/.
0F70: B8 10 10 01 2F 00 B9 10  10 01 4E 00 B8 10 10 01  ..../.....N.....
0F80: 4E 00 B9 10 10 01 BA B8  10 10 01 06 80 07 80 01  N...............
0F90: 80 08 80 BA B9 10 10 01  6F 80 70 80 01 80 71 80  ........o.p...q.
0FA0: BA F0 FF FF 7F 72 80 73  80 01 80 11 80 80 F0 FF  .....r.s........
0FB0: FF 7F 80 B8 10 10 01 80  B9 10 10 01 4A F0 FF FF  ............J...
0FC0: 7F B8 10 10 01 4A B8 10  10 01 B9 10 10 01 4A B9  .....J........J.
0FD0: 10 10 01 B8 10 10 01 7B  B8 10 10 01 45 12 80 F8  .......{....E...
0FE0: FF FF 7F F8 FF FF 7F 73  30 38 36 01 80 1C 13 80  .......s086.....
0FF0: 45 00 80 F0 FF FF 7F F0  FF FF 7F 66 64 69 31 01  E..........fdi1.
1000: 80 66 3B 80 B9 10 10 01  B9 10 10 01 74 6C 6B 30  .f;.........tlk0
1010: 2B B9 10 10 01 74 80 23  66 3B 80 B9 10 10 01 B9  +....t.#f;......
1020: 10 10 01 74 6C 6B 31 52  12 80 F8 FF FF 7F F8 FF  ...tlk1R........
1030: FF 7F 73 30 38 36 45 12  80 F8 FF FF 7F F8 FF FF  ..s086E.........
1040: 7F 73 30 38 37 01 80 6E  B8 10 10 01 18 80 99 B8  .s087..n........
1050: 10 10 01 2B B8 10 10 01  75 80 23 2B B8 10 10 01  ...+....u.#+....
1060: 76 80 23 52 12 80 F8 FF  FF 7F F8 FF FF 7F 73 30  v.#R..........s0
1070: 38 37 45 12 80 F8 FF FF  7F F8 FF FF 7F 73 30 38  87E..........s08
1080: 38 01 80 66 3B 80 B9 10  10 01 B9 10 10 01 74 6C  8..f;.........tl
1090: 6B 30 2B B9 10 10 01 77  80 23 66 3B 80 B9 10 10  k0+....w.#f;....
10A0: 01 B9 10 10 01 74 6C 6B  31 52 12 80 F8 FF FF 7F  .....tlk1R......
10B0: F8 FF FF 7F 73 30 38 38  45 12 80 F8 FF FF 7F F8  ....s088E.......
10C0: FF FF 7F 73 30 38 39 01  80 27 05 F0 FF FF 7F 26  ...s089..'.....&
10D0: 1C 21 80 4A B8 10 10 01  F0 FF FF 7F 1C 17 80 4A  .!.J...........J
10E0: B9 10 10 01 F0 FF FF 7F  2B B8 10 10 01 78 80 23  ........+....x.#
10F0: 2A 05 F0 FF FF 7F 27 05  F0 FF FF 7F 1B 1C 15 80  *.....'.........
1100: 52 12 80 F8 FF FF 7F F8  FF FF 7F 73 30 38 39 45  R..........s089E
1110: 12 80 F8 FF FF 7F F8 FF  FF 7F 73 30 39 30 01 80  ..........s090..
1120: 66 1C 80 B8 10 10 01 B8  10 10 01 74 6C 61 30 2C  f..........tla0,
1130: B5 10 10 01 B5 10 10 01  63 6C 6F 73 2B B8 10 10  ........clos+...
1140: 01 79 80 23 52 12 80 F8  FF FF 7F F8 FF FF 7F 73  .y.#R..........s
1150: 30 39 30 45 12 80 F8 FF  FF 7F F8 FF FF 7F 73 30  090E..........s0
1160: 39 31 01 80 2B B8 10 10  01 7A 80 23 66 1C 80 B8  91..+....z.#f...
1170: 10 10 01 B8 10 10 01 74  6C 61 31 1C 14 80 2B B8  .......tla1...+.
1180: 10 10 01 7B 80 23 52 12  80 F8 FF FF 7F F8 FF FF  ...{.#R.........
1190: 7F 73 30 39 31 45 12 80  F8 FF FF 7F F8 FF FF 7F  .s091E..........
11A0: 73 30 39 32 01 80 27 05  F0 FF FF 7F 10 1C 7C 80  s092..'.......|.
11B0: 27 05 F0 FF FF 7F 11 1C  7D 80 52 12 80 F8 FF FF  '.......}.R.....
11C0: 7F F8 FF FF 7F 73 30 39  32 45 12 80 F8 FF FF 7F  .....s092E......
11D0: F8 FF FF 7F 73 30 39 33  01 80 2B B8 10 10 01 7E  ....s093..+....~
11E0: 80 23 6E B8 10 10 01 26  80 99 B8 10 10 01 2B B8  .#n....&......+.
11F0: 10 10 01 7F 80 23 52 12  80 F8 FF FF 7F F8 FF FF  .....#R.........
1200: 7F 73 30 39 33 45 12 80  F8 FF FF 7F F8 FF FF 7F  .s093E..........
1210: 73 30 39 34 01 80 66 02  80 B8 10 10 01 B8 10 10  s094..f.........
1220: 01 74 6C 6B 30 2B B8 10  10 01 80 80 23 2B B8 10  .tlk0+......#+..
1230: 10 01 81 80 23 52 12 80  F8 FF FF 7F F8 FF FF 7F  ....#R..........
1240: 73 30 39 34 45 12 80 F8  FF FF 7F F8 FF FF 7F 73  s094E..........s
1250: 30 39 37 01 80 66 02 80  B8 10 10 01 B8 10 10 01  097..f..........
1260: 74 6C 6B 31 2B B8 10 10  01 82 80 23 52 12 80 F8  tlk1+......#R...
1270: FF FF 7F F8 FF FF 7F 73  30 39 37 45 12 80 F8 FF  .......s097E....
1280: FF 7F F8 FF FF 7F 73 30  39 35 01 80 66 1C 80 B8  ......s095..f...
1290: 10 10 01 B8 10 10 01 74  6C 61 30 2B B8 10 10 01  .......tla0+....
12A0: 83 80 23 2B B8 10 10 01  84 80 23 66 1C 80 B8 10  ..#+......#f....
12B0: 10 01 B8 10 10 01 74 6C  61 31 1C 17 80 52 12 80  ......tla1...R..
12C0: F8 FF FF 7F F8 FF FF 7F  73 30 39 35 45 12 80 F8  ........s095E...
12D0: FF FF 7F F8 FF FF 7F 73  30 39 36 01 80 66 85 80  .......s096..f..
12E0: B8 10 10 01 B8 10 10 01  70 61 73 30 2B B8 10 10  ........pas0+...
12F0: 01 86 80 23 45 00 80 F0  FF FF 7F F0 FF FF 7F 66  ...#E..........f
1300: 64 6F 31 01 80 55 00 80  F0 FF FF 7F F0 FF FF 7F  do1..U..........
1310: 66 64 6F 31 52 12 80 F8  FF FF 7F F8 FF FF 7F 73  fdo1R..........s
1320: 30 39 36 35 37 80 78 1C  03 80 45 87 80 F8 FF FF  09657.x...E.....
1330: 7F F8 FF FF 7F 71 73 74  63 01 80 46 00 45 00 80  .....qstc..F.E..
1340: F0 FF FF 7F F0 FF FF 7F  66 64 69 32 01 80 21 00  ........fdi2..!.
```

#### Opcodes

```
  0: 0x0F2D [0x42] SET_CLI_EVENT_CANCEL_DATA()
  1: 0x0F2E [0x45] LOAD_SCHEDULED_TASK: Load scheduler "fdo1" with entities [LocalPlayer, LocalPlayer], work=[200*, 0*]
  2: 0x0F3F [0x55] WAIT_LOAD_SCHEDULER: Wait for scheduler "fdo1" with entities [LocalPlayer, LocalPlayer], work=200*
  3: 0x0F4E [0x46] CAMERA_CONTROL: Disable user control
  4: 0x0F50 [0x38] SET_CLIENT_EVENT_MODE(mode=19*)
  5: 0x0F53 [0x1C] WAIT(1* ticks)
  6: 0x0F56 [0x34] LOAD_UNLOAD_ZONE(zone_id=593*)
  7: 0x0F59 [0x77] SET_EVENT_TIME_WEATHER(hour=255*, weather=1*)
  8: 0x0F5E [0x1C] WAIT(1* ticks)
  9: 0x0F61 [0x2C] CREATE_SCHEDULER_TASK: Create scheduler "open" with entities [Door: (ID: 17830069/0x011010B5), Door: (ID: 17830069/0x011010B5)]
 10: 0x0F6E [0x2F] Erisa (ID: 17830072/0x011010B8)->Render.Flags0 &= ~0x80000 // Bit 19
 11: 0x0F74 [0x2F] Yvermain (ID: 17830073/0x011010B9)->Render.Flags0 &= ~0x80000 // Bit 19
 12: 0x0F7A [0x4E] SET_ENTITY_HIDE_FLAG: Show Erisa (ID: 17830072/0x011010B8)
 13: 0x0F80 [0x4E] SET_ENTITY_HIDE_FLAG: Show Yvermain (ID: 17830073/0x011010B9)
 14: 0x0F86 [0xBA] SET_ENTITY_POSITION(entity_id=Erisa (ID: 17830072/0x011010B8), pos_x=2.452*, pos_z=-10.151*, pos_y=0.000*, direction=355.4°*)
 15: 0x0F93 [0xBA] SET_ENTITY_POSITION(entity_id=Yvermain (ID: 17830073/0x011010B9), pos_x=1.252*, pos_z=-9.231*, pos_y=0.000*, direction=245.2°*)
 16: 0x0FA0 [0xBA] SET_ENTITY_POSITION(entity_id=LocalPlayer, pos_x=0.062*, pos_z=-15.601*, pos_y=0.000*, direction=53.8°*)
 17: 0x0FAD [0x80] LOAD_WAIT(entity=LocalPlayer)
 18: 0x0FB2 [0x80] LOAD_WAIT(entity=Erisa (ID: 17830072/0x011010B8))
 19: 0x0FB7 [0x80] LOAD_WAIT(entity=Yvermain (ID: 17830073/0x011010B9))
 20: 0x0FBC [0x4A] LocalPlayer looks at Erisa (ID: 17830072/0x011010B8)
 21: 0x0FC5 [0x4A] Erisa (ID: 17830072/0x011010B8) looks at Yvermain (ID: 17830073/0x011010B9)
 22: 0x0FCE [0x4A] Yvermain (ID: 17830073/0x011010B9) looks at Erisa (ID: 17830072/0x011010B8)
 23: 0x0FD7 [0x7B] Erisa (ID: 17830072/0x011010B8) stops talking
 24: 0x0FDC [0x45] LOAD_SCHEDULED_TASK: Load scheduler "s086" with entities [EventEntity, EventEntity], work=[558*, 0*]
 25: 0x0FED [0x1C] WAIT(15* ticks)
 26: 0x0FF0 [0x45] LOAD_SCHEDULED_TASK: Load scheduler "fdi1" with entities [LocalPlayer, LocalPlayer], work=[200*, 0*]
 27: 0x1001 [0x66] LOAD_EXT_SCHEDULER_MAIN: Load scheduler "tlk0" with entities [Yvermain (ID: 17830073/0x011010B9), Yvermain (ID: 17830073/0x011010B9)], work=20*
 28: 0x1010 [0x2B] Yvermain (ID: 17830073/0x011010B9) [10076*]:
    → "Erisa, don't be so down. There's no way you could've known that would happen."
 29: 0x1017 [0x23] WAIT_FOR_DIALOG_INTERACTION
 30: 0x1018 [0x66] LOAD_EXT_SCHEDULER_MAIN: Load scheduler "tlk1" with entities [Yvermain (ID: 17830073/0x011010B9), Yvermain (ID: 17830073/0x011010B9)], work=20*
 31: 0x1027 [0x52] END_LOAD_SCHEDULER: End scheduler "s086" with entities [EventEntity, EventEntity], work=558*
 32: 0x1036 [0x45] LOAD_SCHEDULED_TASK: Load scheduler "s087" with entities [EventEntity, EventEntity], work=[558*, 0*]
 33: 0x1047 [0x6E] Erisa (ID: 17830072/0x011010B8) uses emote 6*
 34: 0x104E [0x99] Wait for Erisa (ID: 17830072/0x011010B8) animation to complete
 35: 0x1053 [0x2B] Erisa (ID: 17830072/0x011010B8) [10077*]:
    → "If only I had done what they'd asked...things would have turned out differently."
 36: 0x105A [0x23] WAIT_FOR_DIALOG_INTERACTION
 37: 0x105B [0x2B] Erisa (ID: 17830072/0x011010B8) [10078*]:
    → "I kept telling myself that I was doing it for scientific purposes, when I was really just being selfish."
 38: 0x1062 [0x23] WAIT_FOR_DIALOG_INTERACTION
 39: 0x1063 [0x52] END_LOAD_SCHEDULER: End scheduler "s087" with entities [EventEntity, EventEntity], work=558*
 40: 0x1072 [0x45] LOAD_SCHEDULED_TASK: Load scheduler "s088" with entities [EventEntity, EventEntity], work=[558*, 0*]
 41: 0x1083 [0x66] LOAD_EXT_SCHEDULER_MAIN: Load scheduler "tlk0" with entities [Yvermain (ID: 17830073/0x011010B9), Yvermain (ID: 17830073/0x011010B9)], work=20*
 42: 0x1092 [0x2B] Yvermain (ID: 17830073/0x011010B9) [10079*]:
    → "It's only natural to feel attached to something you've worked so hard for."
 43: 0x1099 [0x23] WAIT_FOR_DIALOG_INTERACTION
 44: 0x109A [0x66] LOAD_EXT_SCHEDULER_MAIN: Load scheduler "tlk1" with entities [Yvermain (ID: 17830073/0x011010B9), Yvermain (ID: 17830073/0x011010B9)], work=20*
 45: 0x10A9 [0x52] END_LOAD_SCHEDULER: End scheduler "s088" with entities [EventEntity, EventEntity], work=558*
 46: 0x10B8 [0x45] LOAD_SCHEDULED_TASK: Load scheduler "s089" with entities [EventEntity, EventEntity], work=[558*, 0*]
 47: 0x10C9 [0x27] REQ_SET(priority=0x05, entity_id=LocalPlayer, tag_num=0x26)
 48: 0x10D0 [0x1C] WAIT(90* ticks)
 49: 0x10D3 [0x4A] Erisa (ID: 17830072/0x011010B8) looks at LocalPlayer
 50: 0x10DC [0x1C] WAIT(30* ticks)
 51: 0x10DF [0x4A] Yvermain (ID: 17830073/0x011010B9) looks at LocalPlayer
 52: 0x10E8 [0x2B] Erisa (ID: 17830072/0x011010B8) [10080*]:
    → "You're the person who came to the Waterways earlier, aren't you?"
 53: 0x10EF [0x23] WAIT_FOR_DIALOG_INTERACTION
 54: 0x10F0 [0x2A] GET_REQ_LEVEL(level=5, entity_id=LocalPlayer)
 55: 0x10F6 [0x27] REQ_SET(priority=0x05, entity_id=LocalPlayer, tag_num=0x1B)
 56: 0x10FD [0x1C] WAIT(120* ticks)
 57: 0x1100 [0x52] END_LOAD_SCHEDULER: End scheduler "s089" with entities [EventEntity, EventEntity], work=558*
 58: 0x110F [0x45] LOAD_SCHEDULED_TASK: Load scheduler "s090" with entities [EventEntity, EventEntity], work=[558*, 0*]
 59: 0x1120 [0x66] LOAD_EXT_SCHEDULER_MAIN: Load scheduler "tla0" with entities [Erisa (ID: 17830072/0x011010B8), Erisa (ID: 17830072/0x011010B8)], work=158*
 60: 0x112F [0x2C] CREATE_SCHEDULER_TASK: Create scheduler "clos" with entities [Door: (ID: 17830069/0x011010B5), Door: (ID: 17830069/0x011010B5)]
 61: 0x113C [0x2B] Erisa (ID: 17830072/0x011010B8) [10081*]:
    → "Kyff said...to give this to me?"
 62: 0x1143 [0x23] WAIT_FOR_DIALOG_INTERACTION
 63: 0x1144 [0x52] END_LOAD_SCHEDULER: End scheduler "s090" with entities [EventEntity, EventEntity], work=558*
 64: 0x1153 [0x45] LOAD_SCHEDULED_TASK: Load scheduler "s091" with entities [EventEntity, EventEntity], work=[558*, 0*]
 65: 0x1164 [0x2B] Erisa (ID: 17830072/0x011010B8) [10082*]:
    → "This...this is the first thing I ever grew..."
 66: 0x116B [0x23] WAIT_FOR_DIALOG_INTERACTION
 67: 0x116C [0x66] LOAD_EXT_SCHEDULER_MAIN: Load scheduler "tla1" with entities [Erisa (ID: 17830072/0x011010B8), Erisa (ID: 17830072/0x011010B8)], work=158*
 68: 0x117B [0x1C] WAIT(60* ticks)
 69: 0x117E [0x2B] Erisa (ID: 17830072/0x011010B8) [10083*]:
    → "I remember...back then, even if it was just some common houseplant, I was so happy to see my charge blossom."
 70: 0x1185 [0x23] WAIT_FOR_DIALOG_INTERACTION
 71: 0x1186 [0x52] END_LOAD_SCHEDULER: End scheduler "s091" with entities [EventEntity, EventEntity], work=558*
 72: 0x1195 [0x45] LOAD_SCHEDULED_TASK: Load scheduler "s092" with entities [EventEntity, EventEntity], work=[558*, 0*]
 73: 0x11A6 [0x27] REQ_SET(priority=0x05, entity_id=LocalPlayer, tag_num=0x10)
 74: 0x11AD [0x1C] WAIT(80* ticks)
 75: 0x11B0 [0x27] REQ_SET(priority=0x05, entity_id=LocalPlayer, tag_num=0x11)
 76: 0x11B7 [0x1C] WAIT(40* ticks)
 77: 0x11BA [0x52] END_LOAD_SCHEDULER: End scheduler "s092" with entities [EventEntity, EventEntity], work=558*
 78: 0x11C9 [0x45] LOAD_SCHEDULED_TASK: Load scheduler "s093" with entities [EventEntity, EventEntity], work=[558*, 0*]
 79: 0x11DA [0x2B] Erisa (ID: 17830072/0x011010B8) [10084*]:
    → "I see. He doesn't want me to give up on my horticulturist pursuits so easily."
 80: 0x11E1 [0x23] WAIT_FOR_DIALOG_INTERACTION
 81: 0x11E2 [0x6E] Erisa (ID: 17830072/0x011010B8) uses emote 7*
 82: 0x11E9 [0x99] Wait for Erisa (ID: 17830072/0x011010B8) animation to complete
 83: 0x11EE [0x2B] Erisa (ID: 17830072/0x011010B8) [10085*]:
    → "I suppose he's right. If I acquiesce now, everything I have done will be for naught."
 84: 0x11F5 [0x23] WAIT_FOR_DIALOG_INTERACTION
 85: 0x11F6 [0x52] END_LOAD_SCHEDULER: End scheduler "s093" with entities [EventEntity, EventEntity], work=558*
 86: 0x1205 [0x45] LOAD_SCHEDULED_TASK: Load scheduler "s094" with entities [EventEntity, EventEntity], work=[558*, 0*]
 87: 0x1216 [0x66] LOAD_EXT_SCHEDULER_MAIN: Load scheduler "tlk0" with entities [Erisa (ID: 17830072/0x011010B8), Erisa (ID: 17830072/0x011010B8)], work=19*
 88: 0x1225 [0x2B] Erisa (ID: 17830072/0x011010B8) [10086*]:
    → "Still, everything I have done has besmirched the name of the Order of Renaye. I should have been more careful."
 89: 0x122C [0x23] WAIT_FOR_DIALOG_INTERACTION
 90: 0x122D [0x2B] Erisa (ID: 17830072/0x011010B8) [10087*]:
    → "But Kyff gave me a new lease on life."
 91: 0x1234 [0x23] WAIT_FOR_DIALOG_INTERACTION
 92: 0x1235 [0x52] END_LOAD_SCHEDULER: End scheduler "s094" with entities [EventEntity, EventEntity], work=558*
 93: 0x1244 [0x45] LOAD_SCHEDULED_TASK: Load scheduler "s097" with entities [EventEntity, EventEntity], work=[558*, 0*]
 94: 0x1255 [0x66] LOAD_EXT_SCHEDULER_MAIN: Load scheduler "tlk1" with entities [Erisa (ID: 17830072/0x011010B8), Erisa (ID: 17830072/0x011010B8)], work=19*
 95: 0x1264 [0x2B] Erisa (ID: 17830072/0x011010B8) [10088*]:
    → "I've got to keep on going--starting with these seeds right here."
 96: 0x126B [0x23] WAIT_FOR_DIALOG_INTERACTION
 97: 0x126C [0x52] END_LOAD_SCHEDULER: End scheduler "s097" with entities [EventEntity, EventEntity], work=558*
 98: 0x127B [0x45] LOAD_SCHEDULED_TASK: Load scheduler "s095" with entities [EventEntity, EventEntity], work=[558*, 0*]
 99: 0x128C [0x66] LOAD_EXT_SCHEDULER_MAIN: Load scheduler "tla0" with entities [Erisa (ID: 17830072/0x011010B8), Erisa (ID: 17830072/0x011010B8)], work=158*
100: 0x129B [0x2B] Erisa (ID: 17830072/0x011010B8) [10089*]:
    → "But he's not the only one I have to thank. You have done me a great service as well."
101: 0x12A2 [0x23] WAIT_FOR_DIALOG_INTERACTION
102: 0x12A3 [0x2B] Erisa (ID: 17830072/0x011010B8) [10090*]:
