# 17830086 - Finnigor

## Common Data

| Field            | Value                     |
|------------------|---------------------------|
| Zone             | Eastern Adoulin (ID: 257) |
| Block Size       | 224 bytes                 |
| Total Events     | 6                         |
| References Count | 8                         |

## List of Events

| Event ID                 | Entrypoint   |   Size |   Instructions |
|--------------------------|--------------|--------|----------------|
| [65535](#event-65535)    | 0x0000       |      1 |              1 |
| [5041](#event-5041)      | 0x0001       |     55 |             11 |
| [5042](#event-5042)      | 0x0038       |     67 |             17 |
| [5097](#event-5097)      | 0x007B       |      7 |              2 |
| [65535.1](#event-655351) | 0x0082       |     13 |              3 |
| [5099](#event-5099)      | 0x008F       |      7 |              2 |

## DAT References (imed_data)

|   Index | Hex Value   |   Dec Value |
|---------|-------------|-------------|
|       0 | 0x003C      |          60 |
|       1 | 0x28B1      |       10417 |
|       2 | 0x001E      |          30 |
|       3 | 0x28AD      |       10413 |
|       4 | 0x28AE      |       10414 |
|       5 | 0x28AF      |       10415 |
|       6 | 0x28B0      |       10416 |
|       7 | 0x0032      |          50 |

## String References

- **10413**: My grandfather's grandfather had a pioneering spirit at least the match of any of the pioneering heroes of old. His career, however, was ill-fated...
- **10414**: You see, all activities related to colonization were banned at the time. His devotion knew no bounds, though, so he went into the jungle all by himself despite his family's pleas to put down the pickaxe.
- **10415**: If memory serves me, he headed for...the Ceizak Battlegrounds. Sadly, no one ever heard from him again after he left.
- **10416**: Our family has been opposed to colonization ever since. For me, I just don't want anyone to experience the terrible pain my ancestors did.
- **10417**: All the young'uns these days are wetting themselves at the mere mention of pioneering... <Sigh> I really must be getting too old.

## Events

### Event 65535

#### Metadata

| Field        | Value   |
|--------------|---------|
| Entrypoint   | 0x0000  |
| Data Size    | 1 bytes |
| Instructions | 1       |

```
      00 01 02 03 04 05 06 07  08 09 0A 0B 0C 0D 0E 0F
      -- -- -- -- -- -- -- --  -- -- -- -- -- -- -- --
0000: 00                                                .               
```

#### Opcodes

```
  0: 0x0000 [0x00] END_REQSTACK()
```

### Event 5041

#### Metadata

| Field        | Value    |
|--------------|----------|
| Entrypoint   | 0x0001   |
| Data Size    | 55 bytes |
| Instructions | 11       |

```
      00 01 02 03 04 05 06 07  08 09 0A 0B 0C 0D 0E 0F
      -- -- -- -- -- -- -- --  -- -- -- -- -- -- -- --
0000:    4A F0 FF FF 7F F8 FF  FF 7F 1E F0 FF FF 7F 6F   J.............o
0010: 70 5B 00 80 F8 FF FF 7F  F8 FF FF 7F 69 6B 61 30  p[..........ika0
0020: 1D 01 80 23 5B 00 80 F8  FF FF 7F F8 FF FF 7F 69  ...#[..........i
0030: 6B 61 31 1C 02 80 21 00                           ka1...!.        
```

#### Opcodes

```
  0: 0x0001 [0x4A] LocalPlayer looks at EventEntity
  1: 0x000A [0x1E] EventEntity looks at LocalPlayer and starts talking
  2: 0x000F [0x6F] WAIT_FRAME_DELAY: Yield until WaitTime reaches zero
  3: 0x0010 [0x70] WAIT_ENTITY_RENDER_FLAG: Wait while EventEntity->Render.Flags3 bit 2 is set (cancel turn if not)
  4: 0x0011 [0x5B] LOAD_EXT_SCHEDULER: Load scheduler "ika0" with entities [EventEntity, EventEntity], work=60*
  5: 0x0020 [0x1D] PRINT_EVENT_MESSAGE(message_id=10417*)
    → "All the young'uns these days are wetting themselves at the mere mention of pioneering... <Sigh> I really must be getting too old."
  6: 0x0023 [0x23] WAIT_FOR_DIALOG_INTERACTION
  7: 0x0024 [0x5B] LOAD_EXT_SCHEDULER: Load scheduler "ika1" with entities [EventEntity, EventEntity], work=60*
  8: 0x0033 [0x1C] WAIT(30* ticks)
  9: 0x0036 [0x21] END_EVENT
 10: 0x0037 [0x00] END_REQSTACK()
```

### Event 5042

#### Metadata

| Field        | Value    |
|--------------|----------|
| Entrypoint   | 0x0038   |
| Data Size    | 67 bytes |
| Instructions | 17       |

```
      00 01 02 03 04 05 06 07  08 09 0A 0B 0C 0D 0E 0F
      -- -- -- -- -- -- -- --  -- -- -- -- -- -- -- --
0030:                          4A F0 FF FF 7F F8 FF FF          J.......
0040: 7F 1E F0 FF FF 7F 6F 70  1D 03 80 23 5B 00 80 F8  ......op...#[...
0050: FF FF 7F F8 FF FF 7F 74  68 6B 31 1D 04 80 23 1D  .......thk1...#.
0060: 05 80 23 1D 06 80 23 5B  00 80 F8 FF FF 7F F8 FF  ..#...#[........
0070: FF 7F 74 68 6B 32 1C 02  80 21 00                 ..thk2...!.     
```

#### Opcodes

```
  0: 0x0038 [0x4A] LocalPlayer looks at EventEntity
  1: 0x0041 [0x1E] EventEntity looks at LocalPlayer and starts talking
  2: 0x0046 [0x6F] WAIT_FRAME_DELAY: Yield until WaitTime reaches zero
  3: 0x0047 [0x70] WAIT_ENTITY_RENDER_FLAG: Wait while EventEntity->Render.Flags3 bit 2 is set (cancel turn if not)
  4: 0x0048 [0x1D] PRINT_EVENT_MESSAGE(message_id=10413*)
    → "My grandfather's grandfather had a pioneering spirit at least the match of any of the pioneering heroes of old. His career, however, was ill-fated..."
  5: 0x004B [0x23] WAIT_FOR_DIALOG_INTERACTION
  6: 0x004C [0x5B] LOAD_EXT_SCHEDULER: Load scheduler "thk1" with entities [EventEntity, EventEntity], work=60*
  7: 0x005B [0x1D] PRINT_EVENT_MESSAGE(message_id=10414*)
    → "You see, all activities related to colonization were banned at the time. His devotion knew no bounds, though, so he went into the jungle all by himself despite his family's pleas to put down the pickaxe."
  8: 0x005E [0x23] WAIT_FOR_DIALOG_INTERACTION
  9: 0x005F [0x1D] PRINT_EVENT_MESSAGE(message_id=10415*)
    → "If memory serves me, he headed for...the Ceizak Battlegrounds. Sadly, no one ever heard from him again after he left."
 10: 0x0062 [0x23] WAIT_FOR_DIALOG_INTERACTION
 11: 0x0063 [0x1D] PRINT_EVENT_MESSAGE(message_id=10416*)
    → "Our family has been opposed to colonization ever since. For me, I just don't want anyone to experience the terrible pain my ancestors did."
 12: 0x0066 [0x23] WAIT_FOR_DIALOG_INTERACTION
 13: 0x0067 [0x5B] LOAD_EXT_SCHEDULER: Load scheduler "thk2" with entities [EventEntity, EventEntity], work=60*
 14: 0x0076 [0x1C] WAIT(30* ticks)
 15: 0x0079 [0x21] END_EVENT
 16: 0x007A [0x00] END_REQSTACK()
```

### Event 5097

#### Metadata

| Field        | Value   |
|--------------|---------|
| Entrypoint   | 0x007B  |
| Data Size    | 7 bytes |
| Instructions | 2       |

```
      00 01 02 03 04 05 06 07  08 09 0A 0B 0C 0D 0E 0F
      -- -- -- -- -- -- -- --  -- -- -- -- -- -- -- --
0070:                                   92 01 F8 FF FF             .....
0080: 7F 00                                             ..              
```

#### Opcodes

```
  0: 0x007B [0x92] EventEntity->Render.Flags3 ^= 0x01
  1: 0x0081 [0x00] END_REQSTACK()
```

### Event 65535.1

#### Metadata

| Field        | Value    |
|--------------|----------|
| Entrypoint   | 0x0082   |
| Data Size    | 13 bytes |
| Instructions | 3        |

```
      00 01 02 03 04 05 06 07  08 09 0A 0B 0C 0D 0E 0F
      -- -- -- -- -- -- -- --  -- -- -- -- -- -- -- --
0080:       1C 07 80 4A F8 FF  FF 7F C3 10 10 01 00       ...J......... 
```

#### Opcodes

```
  0: 0x0082 [0x1C] WAIT(50* ticks)
  1: 0x0085 [0x4A] EventEntity looks at Roskin (ID: 17830083/0x011010C3)
  2: 0x008E [0x00] END_REQSTACK()
```

### Event 5099

#### Metadata

| Field        | Value   |
|--------------|---------|
| Entrypoint   | 0x008F  |
| Data Size    | 7 bytes |
| Instructions | 2       |

```
      00 01 02 03 04 05 06 07  08 09 0A 0B 0C 0D 0E 0F
      -- -- -- -- -- -- -- --  -- -- -- -- -- -- -- --
0080:                                               92                 .
0090: 01 F8 FF FF 7F 00                                 ......          
```

#### Opcodes

```
  0: 0x008F [0x92] EventEntity->Render.Flags3 ^= 0x01
  1: 0x0095 [0x00] END_REQSTACK()
```
