# 17830149 - Greebly

## Common Data

| Field            | Value                     |
|------------------|---------------------------|
| Zone             | Eastern Adoulin (ID: 257) |
| Block Size       | 548 bytes                 |
| Total Events     | 6                         |
| References Count | 20                        |

## List of Events

| Event ID              | Entrypoint   |   Size |   Instructions |
|-----------------------|--------------|--------|----------------|
| [65535](#event-65535) | 0x0000       |      1 |              1 |
| [5114](#event-5114)   | 0x0001       |     61 |             13 |
| [5112](#event-5112)   | 0x003E       |    240 |             52 |
| [5113](#event-5113)   | 0x012E       |     61 |             13 |
| [5214](#event-5214)   | 0x016B       |      7 |              2 |
| [125](#event-125)     | 0x0172       |     58 |             14 |

## DAT References (imed_data)

|   Index | Hex Value   |   Dec Value |
|---------|-------------|-------------|
|       0 | 0x00EE      |         238 |
|       1 | 0x2B37      |       11063 |
|       2 | 0x001E      |          30 |
|       3 | 0x0001      |           1 |
|       4 | 0x2B35      |       11061 |
|       5 | 0x2B2E      |       11054 |
|       6 | 0x2B2F      |       11055 |
|       7 | 0x2B30      |       11056 |
|       8 | 0x07D0      |        2000 |
|       9 | 0x2B31      |       11057 |
|      10 | 0x2B32      |       11058 |
|      11 | 0x0000      |           0 |
|      12 | 0x0063      |          99 |
|      13 | 0x2B36      |       11062 |
|      14 | 0x2B34      |       11060 |
|      15 | 0x2B33      |       11059 |
|      16 | 0x1778      |        6008 |
|      17 | 0x2E37      |       11831 |
|      18 | 0x2E38      |       11832 |
|      19 | 0x003C      |          60 |

## String References

- **11054**: You wouldn't happen to be one of those adventurers from abroad, would you?
- **11055**: You are? Phew, I can't tell you how glad I am to hear that. You see, I've come across a historical heirloom, but I can't hand it over to just anyone.
- **11056**: This painting was drawn roughly four hundred and eighty years ago by the most famous artist of the time. Now you see why I need to sell it to someone as worldly as you, right?
- **11057**: While the appraisers estimated its value at over 1,000,000 bayld, I know you'll give it a good home. That's why I'll discount it to a mere $1 bayld, all for your sake.
- **11058**: Buy it? (Bayld: $0) [For only $1? Yes!/I don't need no artsy-fartsy crap.]
- **11059**: Oh, I'm sorry. I must have mistaken you for someone who isn't a philistine. No skin off my back, I'll just sell it to the next adventurer who comes waltzing by.
- **11060**: Tsk, tsk, tsk. Normally I tell my clients who aren't financially solvent to beat it, but I'll give you another chance.
- **11061**: You're in luck, I still haven't sold this most prestigious of artistic works. You want to purchase it for your collection?
- **11062**: Thanks! I guarantee you won't regret this. <Wink>
- **11063**: I'm just a lowly antiquary trying to make his way in this cruel world. Pay me no heed.
- **11831**: What's that? You need some $0?
- **11832**: Forgive me, I'm just a poor little antiquary. I do not carry such items.

## Events

### Event 65535

#### Metadata

| Field        | Value   |
|--------------|---------|
| Entrypoint   | 0x0000  |
| Data Size    | 1 bytes |
| Instructions | 1       |

```
      00 01 02 03 04 05 06 07  08 09 0A 0B 0C 0D 0E 0F
      -- -- -- -- -- -- -- --  -- -- -- -- -- -- -- --
0000: 00                                                .               
```

#### Opcodes

```
  0: 0x0000 [0x00] END_REQSTACK()
```

### Event 5114

#### Metadata

| Field        | Value    |
|--------------|----------|
| Entrypoint   | 0x0001   |
| Data Size    | 61 bytes |
| Instructions | 13       |

```
      00 01 02 03 04 05 06 07  08 09 0A 0B 0C 0D 0E 0F
      -- -- -- -- -- -- -- --  -- -- -- -- -- -- -- --
0000:    1E F0 FF FF 7F 6F 70  4A F0 FF FF 7F F8 FF FF   .....opJ.......
0010: 7F 6F 76 F0 FF FF 7F 5B  00 80 F8 FF FF 7F F8 FF  .ov....[........
0020: FF 7F 74 6C 6B 30 1D 01  80 23 5B 00 80 F8 FF FF  ..tlk0...#[.....
0030: 7F F8 FF FF 7F 74 6C 6B  31 1C 02 80 21 00        .....tlk1...!.  
```

#### Opcodes

```
  0: 0x0001 [0x1E] EventEntity looks at LocalPlayer and starts talking
  1: 0x0006 [0x6F] WAIT_FRAME_DELAY: Yield until WaitTime reaches zero
  2: 0x0007 [0x70] WAIT_ENTITY_RENDER_FLAG: Wait while EventEntity->Render.Flags3 bit 2 is set (cancel turn if not)
  3: 0x0008 [0x4A] LocalPlayer looks at EventEntity
  4: 0x0011 [0x6F] WAIT_FRAME_DELAY: Yield until WaitTime reaches zero
  5: 0x0012 [0x76] CHECK_ENTITY_RENDER_FLAGS: Wait until LocalPlayer Render.Flags0 and Render.Flags3 conditions are met
  6: 0x0017 [0x5B] LOAD_EXT_SCHEDULER: Load scheduler "tlk0" with entities [EventEntity, EventEntity], work=238*
  7: 0x0026 [0x1D] PRINT_EVENT_MESSAGE(message_id=11063*)
    → "I'm just a lowly antiquary trying to make his way in this cruel world. Pay me no heed."
  8: 0x0029 [0x23] WAIT_FOR_DIALOG_INTERACTION
  9: 0x002A [0x5B] LOAD_EXT_SCHEDULER: Load scheduler "tlk1" with entities [EventEntity, EventEntity], work=238*
 10: 0x0039 [0x1C] WAIT(30* ticks)
 11: 0x003C [0x21] END_EVENT
 12: 0x003D [0x00] END_REQSTACK()
```

### Event 5112

#### Metadata

| Field        | Value     |
|--------------|-----------|
| Entrypoint   | 0x003E    |
| Data Size    | 240 bytes |
| Instructions | 52        |

```
      00 01 02 03 04 05 06 07  08 09 0A 0B 0C 0D 0E 0F
      -- -- -- -- -- -- -- --  -- -- -- -- -- -- -- --
0030:                                            03 00                ..
0040: 00 03 10 03 01 00 02 10  1E F0 FF FF 7F 6F 70 4A  .............opJ
0050: F0 FF FF 7F F8 FF FF 7F  6F 76 F0 FF FF 7F 5B 00  ........ov....[.
0060: 80 F8 FF FF 7F F8 FF FF  7F 74 6C 6B 30 02 00 00  .........tlk0...
0070: 03 80 00 7C 00 1D 04 80  23 01 91 00 1D 05 80 23  ...|....#......#
0080: 1D 06 80 23 1D 07 80 23  03 03 10 08 80 1D 09 80  ...#...#........
0090: 23 5B 00 80 F8 FF FF 7F  F8 FF FF 7F 74 6C 6B 31  #[..........tlk1
00A0: 06 01 10 03 02 10 01 00  03 03 10 08 80 24 0A 80  .............$..
00B0: 0B 80 0B 80 25 02 00 10  0B 80 00 01 01 42 03 01  ....%........B..
00C0: 10 0C 80 43 00 43 01 02  09 10 03 80 00 F7 00 5B  ...C.C.........[
00D0: 00 80 F8 FF FF 7F F8 FF  FF 7F 70 61 73 30 1D 0D  ..........pas0..
00E0: 80 23 53 F8 FF FF 7F F8  FF FF 7F 70 61 73 30 03  .#S........pas0.
00F0: 01 10 03 80 01 FE 00 06  01 10 1D 0E 80 23 01 2C  .............#.,
0100: 01 02 00 10 03 80 00 2C  01 5B 00 80 F8 FF FF 7F  .......,.[......
0110: F8 FF FF 7F 68 61 72 30  1D 0F 80 23 53 F8 FF FF  ....har0...#S...
0120: 7F F8 FF FF 7F 68 61 72  30 01 2C 01 21 00        .....har0.,.!.  
```

#### Opcodes

```
  0: 0x003E [0x03] ExtData[1]->WorkLocal[0] = Work_Zone[3]
  1: 0x0043 [0x03] ExtData[1]->WorkLocal[1] = Work_Zone[2]
  2: 0x0048 [0x1E] EventEntity looks at LocalPlayer and starts talking
  3: 0x004D [0x6F] WAIT_FRAME_DELAY: Yield until WaitTime reaches zero
  4: 0x004E [0x70] WAIT_ENTITY_RENDER_FLAG: Wait while EventEntity->Render.Flags3 bit 2 is set (cancel turn if not)
  5: 0x004F [0x4A] LocalPlayer looks at EventEntity
  6: 0x0058 [0x6F] WAIT_FRAME_DELAY: Yield until WaitTime reaches zero
  7: 0x0059 [0x76] CHECK_ENTITY_RENDER_FLAGS: Wait until LocalPlayer Render.Flags0 and Render.Flags3 conditions are met
  8: 0x005E [0x5B] LOAD_EXT_SCHEDULER: Load scheduler "tlk0" with entities [EventEntity, EventEntity], work=238*
  9: 0x006D [0x02] IF !(ExtData[1]->WorkLocal[0] == 1*) GOTO 0x007C
 10: 0x0075 [0x1D] PRINT_EVENT_MESSAGE(message_id=11061*)
    → "You're in luck, I still haven't sold this most prestigious of artistic works. You want to purchase it for your collection?"
 11: 0x0078 [0x23] WAIT_FOR_DIALOG_INTERACTION
 12: 0x0079 [0x01] GOTO 0x0091
 13: 0x007C [0x1D] PRINT_EVENT_MESSAGE(message_id=11054*)
    → "You wouldn't happen to be one of those adventurers from abroad, would you?"
 14: 0x007F [0x23] WAIT_FOR_DIALOG_INTERACTION
 15: 0x0080 [0x1D] PRINT_EVENT_MESSAGE(message_id=11055*)
    → "You are? Phew, I can't tell you how glad I am to hear that. You see, I've come across a historical heirloom, but I can't hand it over to just anyone."
 16: 0x0083 [0x23] WAIT_FOR_DIALOG_INTERACTION
 17: 0x0084 [0x1D] PRINT_EVENT_MESSAGE(message_id=11056*)
    → "This painting was drawn roughly four hundred and eighty years ago by the most famous artist of the time. Now you see why I need to sell it to someone as worldly as you, right?"
 18: 0x0087 [0x23] WAIT_FOR_DIALOG_INTERACTION
 19: 0x0088 [0x03] Work_Zone[3] = 2000*
 20: 0x008D [0x1D] PRINT_EVENT_MESSAGE(message_id=11057*)
    → "While the appraisers estimated its value at over 1,000,000 bayld, I know you'll give it a good home. That's why I'll discount it to a mere $1 bayld, all for your sake."
 21: 0x0090 [0x23] WAIT_FOR_DIALOG_INTERACTION

SUBROUTINE_0091:
 22: 0x0091 [0x5B] LOAD_EXT_SCHEDULER: Load scheduler "tlk1" with entities [EventEntity, EventEntity], work=238*
 23: 0x00A0 [0x06] Work_Zone[1] = 0
 24: 0x00A3 [0x03] Work_Zone[2] = ExtData[1]->WorkLocal[1]
 25: 0x00A8 [0x03] Work_Zone[3] = 2000*
 26: 0x00AD [0x24] CREATE_DIALOG(message_id=11058*, default_option=0*, option_flags=0*)
    → "Buy it? (Bayld: $0) [For only $1? Yes!/I don't need no artsy-fartsy crap.]"
 27: 0x00B4 [0x25] WAIT_DIALOG_SELECT()
 28: 0x00B5 [0x02] IF !(Work_Zone[0] == 0*) GOTO 0x0101
 29: 0x00BD [0x42] SET_CLI_EVENT_CANCEL_DATA()
 30: 0x00BE [0x03] Work_Zone[1] = 99*
 31: 0x00C3 [0x43] SEND_EVENT_UPDATE: Send pending tag to server (packet 0x005B)
 32: 0x00C5 [0x43] SEND_EVENT_UPDATE: Check pending flag (skip if not pending)
 33: 0x00C7 [0x02] IF !(Work_Zone[9] == 1*) GOTO 0x00F7
 34: 0x00CF [0x5B] LOAD_EXT_SCHEDULER: Load scheduler "pas0" with entities [EventEntity, EventEntity], work=238*
 35: 0x00DE [0x1D] PRINT_EVENT_MESSAGE(message_id=11062*)
    → "Thanks! I guarantee you won't regret this. <Wink>"
 36: 0x00E1 [0x23] WAIT_FOR_DIALOG_INTERACTION
 37: 0x00E2 [0x53] WAIT_SCHEDULER_TASK: Wait for scheduler "pas0" with entities [EventEntity, EventEntity]
 38: 0x00EF [0x03] Work_Zone[1] = 1*
 39: 0x00F4 [0x01] GOTO 0x00FE
 40: 0x00F7 [0x06] Work_Zone[1] = 0
 41: 0x00FA [0x1D] PRINT_EVENT_MESSAGE(message_id=11060*)
    → "Tsk, tsk, tsk. Normally I tell my clients who aren't financially solvent to beat it, but I'll give you another chance."
 42: 0x00FD [0x23] WAIT_FOR_DIALOG_INTERACTION

SUBROUTINE_00FE:
 43: 0x00FE [0x01] GOTO 0x012C
 44: 0x0101 [0x02] IF !(Work_Zone[0] == 1*) GOTO 0x012C
 45: 0x0109 [0x5B] LOAD_EXT_SCHEDULER: Load scheduler "har0" with entities [EventEntity, EventEntity], work=238*
 46: 0x0118 [0x1D] PRINT_EVENT_MESSAGE(message_id=11059*)
    → "Oh, I'm sorry. I must have mistaken you for someone who isn't a philistine. No skin off my back, I'll just sell it to the next adventurer who comes waltzing by."
 47: 0x011B [0x23] WAIT_FOR_DIALOG_INTERACTION
 48: 0x011C [0x53] WAIT_SCHEDULER_TASK: Wait for scheduler "har0" with entities [EventEntity, EventEntity]
 49: 0x0129 [0x01] GOTO 0x012C

SUBROUTINE_012C:
 50: 0x012C [0x21] END_EVENT
 51: 0x012D [0x00] END_REQSTACK()
```

### Event 5113

#### Metadata

| Field        | Value    |
|--------------|----------|
| Entrypoint   | 0x012E   |
| Data Size    | 61 bytes |
| Instructions | 13       |

```
      00 01 02 03 04 05 06 07  08 09 0A 0B 0C 0D 0E 0F
      -- -- -- -- -- -- -- --  -- -- -- -- -- -- -- --
0120:                                            1E F0                ..
0130: FF FF 7F 6F 70 4A F0 FF  FF 7F F8 FF FF 7F 6F 76  ...opJ........ov
0140: F0 FF FF 7F 5B 00 80 F8  FF FF 7F F8 FF FF 7F 74  ....[..........t
0150: 6C 6B 30 1D 0D 80 23 5B  00 80 F8 FF FF 7F F8 FF  lk0...#[........
0160: FF 7F 74 6C 6B 31 1C 02  80 21 00                 ..tlk1...!.     
```

#### Opcodes

```
  0: 0x012E [0x1E] EventEntity looks at LocalPlayer and starts talking
  1: 0x0133 [0x6F] WAIT_FRAME_DELAY: Yield until WaitTime reaches zero
  2: 0x0134 [0x70] WAIT_ENTITY_RENDER_FLAG: Wait while EventEntity->Render.Flags3 bit 2 is set (cancel turn if not)
  3: 0x0135 [0x4A] LocalPlayer looks at EventEntity
  4: 0x013E [0x6F] WAIT_FRAME_DELAY: Yield until WaitTime reaches zero
  5: 0x013F [0x76] CHECK_ENTITY_RENDER_FLAGS: Wait until LocalPlayer Render.Flags0 and Render.Flags3 conditions are met
  6: 0x0144 [0x5B] LOAD_EXT_SCHEDULER: Load scheduler "tlk0" with entities [EventEntity, EventEntity], work=238*
  7: 0x0153 [0x1D] PRINT_EVENT_MESSAGE(message_id=11062*)
    → "Thanks! I guarantee you won't regret this. <Wink>"
  8: 0x0156 [0x23] WAIT_FOR_DIALOG_INTERACTION
  9: 0x0157 [0x5B] LOAD_EXT_SCHEDULER: Load scheduler "tlk1" with entities [EventEntity, EventEntity], work=238*
 10: 0x0166 [0x1C] WAIT(30* ticks)
 11: 0x0169 [0x21] END_EVENT
 12: 0x016A [0x00] END_REQSTACK()
```

### Event 5214

#### Metadata

| Field        | Value   |
|--------------|---------|
| Entrypoint   | 0x016B  |
| Data Size    | 7 bytes |
| Instructions | 2       |

```
      00 01 02 03 04 05 06 07  08 09 0A 0B 0C 0D 0E 0F
      -- -- -- -- -- -- -- --  -- -- -- -- -- -- -- --
0160:                                   92 01 F8 FF FF             .....
0170: 7F 00                                             ..              
```

#### Opcodes

```
  0: 0x016B [0x92] EventEntity->Render.Flags3 ^= 0x01
  1: 0x0171 [0x00] END_REQSTACK()
```

### Event 125

#### Metadata

| Field        | Value    |
|--------------|----------|
| Entrypoint   | 0x0172   |
| Data Size    | 58 bytes |
| Instructions | 14       |

```
      00 01 02 03 04 05 06 07  08 09 0A 0B 0C 0D 0E 0F
      -- -- -- -- -- -- -- --  -- -- -- -- -- -- -- --
0170:       1E F0 FF FF 7F 6F  70 5B 00 80 F8 FF FF 7F    .....op[......
0180: F8 FF FF 7F 74 6C 6B 30  03 02 10 10 80 1D 11 80  ....tlk0........
0190: 23 1D 12 80 1C 13 80 23  5B 00 80 F8 FF FF 7F F8  #......#[.......
01A0: FF FF 7F 74 6C 6B 31 1C  02 80 21 00              ...tlk1...!.    
```

#### Opcodes

```
  0: 0x0172 [0x1E] EventEntity looks at LocalPlayer and starts talking
  1: 0x0177 [0x6F] WAIT_FRAME_DELAY: Yield until WaitTime reaches zero
  2: 0x0178 [0x70] WAIT_ENTITY_RENDER_FLAG: Wait while EventEntity->Render.Flags3 bit 2 is set (cancel turn if not)
  3: 0x0179 [0x5B] LOAD_EXT_SCHEDULER: Load scheduler "tlk0" with entities [EventEntity, EventEntity], work=238*
  4: 0x0188 [0x03] Work_Zone[2] = 6008*
  5: 0x018D [0x1D] PRINT_EVENT_MESSAGE(message_id=11831*)
    → "What's that? You need some $0?"
  6: 0x0190 [0x23] WAIT_FOR_DIALOG_INTERACTION
  7: 0x0191 [0x1D] PRINT_EVENT_MESSAGE(message_id=11832*)
    → "Forgive me, I'm just a poor little antiquary. I do not carry such items."
  8: 0x0194 [0x1C] WAIT(60* ticks)
  9: 0x0197 [0x23] WAIT_FOR_DIALOG_INTERACTION
 10: 0x0198 [0x5B] LOAD_EXT_SCHEDULER: Load scheduler "tlk1" with entities [EventEntity, EventEntity], work=238*
 11: 0x01A7 [0x1C] WAIT(30* ticks)
 12: 0x01AA [0x21] END_EVENT
 13: 0x01AB [0x00] END_REQSTACK()
```
