# 17830051

## Common Data

| Field            | Value                     |
|------------------|---------------------------|
| Zone             | Eastern Adoulin (ID: 257) |
| Block Size       | 1040 bytes                |
| Total Events     | 38                        |
| References Count | 69                        |

## List of Events

| Event ID                   | Entrypoint   |   Size |   Instructions |
|----------------------------|--------------|--------|----------------|
| [65535](#event-65535)      | 0x0000       |      1 |              1 |
| [65535.1](#event-655351)   | 0x0001       |      1 |              1 |
| [65535.2](#event-655352)   | 0x0002       |     18 |              4 |
| [65535.3](#event-655353)   | 0x0014       |     10 |              2 |
| [65535.4](#event-655354)   | 0x001E       |      9 |              3 |
| [65535.5](#event-655355)   | 0x0027       |      9 |              3 |
| [65535.6](#event-655356)   | 0x0030       |     10 |              2 |
| [65535.7](#event-655357)   | 0x003A       |     10 |              2 |
| [1506](#event-1506)        | 0x0044       |     10 |              4 |
| [65535.8](#event-655358)   | 0x004E       |      9 |              3 |
| [1507](#event-1507)        | 0x0057       |      5 |              2 |
| [1509](#event-1509)        | 0x005C       |      5 |              2 |
| [1510](#event-1510)        | 0x0061       |      5 |              2 |
| [1515](#event-1515)        | 0x0066       |      5 |              2 |
| [1528](#event-1528)        | 0x006B       |      5 |              2 |
| [1551](#event-1551)        | 0x0070       |     29 |              4 |
| [65535.9](#event-655359)   | 0x008D       |     25 |              3 |
| [114](#event-114)          | 0x00A6       |     39 |              6 |
| [120](#event-120)          | 0x00CD       |      9 |              3 |
| [65535.10](#event-6553510) | 0x00D6       |     44 |             10 |
| [65535.11](#event-6553511) | 0x0102       |     44 |             10 |
| [65535.12](#event-6553512) | 0x012E       |     50 |             12 |
| [65535.13](#event-6553513) | 0x0160       |     14 |              4 |
| [65535.14](#event-6553514) | 0x016E       |     20 |              6 |
| [65535.15](#event-6553515) | 0x0182       |     44 |             10 |
| [126](#event-126)          | 0x01AE       |     39 |              6 |
| [65535.16](#event-6553516) | 0x01D5       |     25 |              3 |
| [65535.17](#event-6553517) | 0x01EE       |     41 |              9 |
| [133](#event-133)          | 0x0217       |      1 |              1 |
| [65535.18](#event-6553518) | 0x0218       |      5 |              2 |
| [65535.19](#event-6553519) | 0x021D       |      5 |              2 |
| [65535.20](#event-6553520) | 0x0222       |      9 |              3 |
| [65535.21](#event-6553521) | 0x022B       |      9 |              3 |
| [65535.22](#event-6553522) | 0x0234       |      9 |              3 |
| [65535.23](#event-6553523) | 0x023D       |      6 |              3 |
| [65535.24](#event-6553524) | 0x0243       |      5 |              2 |
| [65535.25](#event-6553525) | 0x0248       |      5 |              2 |
| [5230](#event-5230)        | 0x024D       |      5 |              2 |

## DAT References (imed_data)

|   Index | Hex Value   |   Dec Value |
|---------|-------------|-------------|
|       0 | 0x0000      |           0 |
|       1 | 0x0001      |           1 |
|       2 | 0x0080      |         128 |
|       3 | 0x0AE1      |        2785 |
|       4 | 0x0034      |          52 |
|       5 | 0x0064      |         100 |
|       6 | 0x0146      |         326 |
|       7 | 0x0AB6      |        2742 |
|       8 | 0x0A92      |        2706 |
|       9 | 0x003C      |          60 |
|      10 | 0x0028      |          40 |
|      11 | 0xFFFF6FE6  |  4294930406 |
|      12 | 0xFFFFA114  |  4294942996 |
|      13 | 0xFFFFFF6A  |  4294967146 |
|      14 | 0xFFFF6B04  |  4294929156 |
|      15 | 0xFFFFA4C0  |  4294943936 |
|      16 | 0xFFFF64E2  |  4294927586 |
|      17 | 0xFFFFB0AA  |  4294946986 |
|      18 | 0xFFFF57C2  |  4294924226 |
|      19 | 0xFFFFC842  |  4294953026 |
|      20 | 0xFFFF13FC  |  4294906876 |
|      21 | 0xFFFFDC6A  |  4294958186 |
|      22 | 0xFFFF0CA4  |  4294904996 |
|      23 | 0xFFFFE354  |  4294959956 |
|      24 | 0xFFFF0AA6  |  4294904486 |
|      25 | 0xFFFFE7BE  |  4294961086 |
|      26 | 0xFFFF0894  |  4294903956 |
|      27 | 0xFFFFF178  |  4294963576 |
|      28 | 0x000D      |          13 |
|      29 | 0x031D      |         797 |
|      30 | 0x000F      |          15 |
|      31 | 0xFFFF0B8C  |  4294904716 |
|      32 | 0xFFFFE9BC  |  4294961596 |
|      33 | 0xFFFF11A4  |  4294906276 |
|      34 | 0xFFFFE296  |  4294959766 |
|      35 | 0xFFFF1D20  |  4294909216 |
|      36 | 0xFFFFDCD8  |  4294958296 |
|      37 | 0xFFFF301C  |  4294914076 |
|      38 | 0xFFFFD904  |  4294957316 |
|      39 | 0xFFFF6190  |  4294926736 |
|      40 | 0xFFFFBA50  |  4294949456 |
|      41 | 0xFFFFFB82  |  4294966146 |
|      42 | 0x001E      |          30 |
|      43 | 0xFFFF5740  |  4294924096 |
|      44 | 0xFFFFD850  |  4294957136 |
|      45 | 0xFFFF392C  |  4294916396 |
|      46 | 0xFFFFDDBE  |  4294958526 |
|      47 | 0xFFFF331E  |  4294914846 |
|      48 | 0xFFFFDB52  |  4294957906 |
|      49 | 0xFFFF277A  |  4294911866 |
|      50 | 0xFFFFD97C  |  4294957436 |
|      51 | 0xFFFEC4A6  |  4294886566 |
|      52 | 0xFFFF2892  |  4294912146 |
|      53 | 0xFFFFD058  |  4294955096 |
|      54 | 0xFFFFFE0C  |  4294966796 |
|      55 | 0xFFFF2D7E  |  4294913406 |
|      56 | 0xFFFFCB26  |  4294953766 |
|      57 | 0xFFFF34E0  |  4294915296 |
|      58 | 0xFFFF5484  |  4294923396 |
|      59 | 0xFFFFC9E6  |  4294953446 |
|      60 | 0x013C      |         316 |
|      61 | 0x0A8D      |        2701 |
|      62 | 0x0094      |         148 |
|      63 | 0x0014      |          20 |
|      64 | 0x0A8E      |        2702 |
|      65 | 0x0A96      |        2710 |
|      66 | 0x003F      |          63 |
|      67 | 0x012C      |         300 |
|      68 | 0x0AB0      |        2736 |

## Events

### Event 65535

#### Metadata

| Field        | Value   |
|--------------|---------|
| Entrypoint   | 0x0000  |
| Data Size    | 1 bytes |
| Instructions | 1       |

```
      00 01 02 03 04 05 06 07  08 09 0A 0B 0C 0D 0E 0F
      -- -- -- -- -- -- -- --  -- -- -- -- -- -- -- --
0000: 00                                                .               
```

#### Opcodes

```
  0: 0x0000 [0x00] END_REQSTACK()
```

### Event 65535.1

#### Metadata

| Field        | Value   |
|--------------|---------|
| Entrypoint   | 0x0001  |
| Data Size    | 1 bytes |
| Instructions | 1       |

```
      00 01 02 03 04 05 06 07  08 09 0A 0B 0C 0D 0E 0F
      -- -- -- -- -- -- -- --  -- -- -- -- -- -- -- --
0000:    00                                              .              
```

#### Opcodes

```
  0: 0x0001 [0x00] END_REQSTACK()
```

### Event 65535.2

#### Metadata

| Field        | Value    |
|--------------|----------|
| Entrypoint   | 0x0002   |
| Data Size    | 18 bytes |
| Instructions | 4        |

```
      00 01 02 03 04 05 06 07  08 09 0A 0B 0C 0D 0E 0F
      -- -- -- -- -- -- -- --  -- -- -- -- -- -- -- --
0000:       22 00 2F 00 F8 FF  FF 7F 6C F8 FF FF 7F 00    "./.....l.....
0010: 80 01 80 00                                       ....            
```

#### Opcodes

```
  0: 0x0002 [0x22] ENTITY_HIDE_FLAG(enabled=0x00)
  1: 0x0004 [0x2F] EventEntity->Render.Flags0 &= ~0x80000 // Bit 19
  2: 0x000A [0x6C] FADE_ENTITY_COLOR(entity_id=EventEntity, end_alpha=0*, fade_time=1*)
  3: 0x0013 [0x00] END_REQSTACK()
```

### Event 65535.3

#### Metadata

| Field        | Value    |
|--------------|----------|
| Entrypoint   | 0x0014   |
| Data Size    | 10 bytes |
| Instructions | 2        |

```
      00 01 02 03 04 05 06 07  08 09 0A 0B 0C 0D 0E 0F
      -- -- -- -- -- -- -- --  -- -- -- -- -- -- -- --
0010:             6C F8 FF FF  7F 02 80 01 80 00            l.........  
```

#### Opcodes

```
  0: 0x0014 [0x6C] FADE_ENTITY_COLOR(entity_id=EventEntity, end_alpha=128*, fade_time=1*)
  1: 0x001D [0x00] END_REQSTACK()
```

### Event 65535.4

#### Metadata

| Field        | Value   |
|--------------|---------|
| Entrypoint   | 0x001E  |
| Data Size    | 9 bytes |
| Instructions | 3       |

```
      00 01 02 03 04 05 06 07  08 09 0A 0B 0C 0D 0E 0F
      -- -- -- -- -- -- -- --  -- -- -- -- -- -- -- --
0010:                                            22 00                ".
0020: 2F 00 F8 FF FF 7F 00                              /......         
```

#### Opcodes

```
  0: 0x001E [0x22] ENTITY_HIDE_FLAG(enabled=0x00)
  1: 0x0020 [0x2F] EventEntity->Render.Flags0 &= ~0x80000 // Bit 19
  2: 0x0026 [0x00] END_REQSTACK()
```

### Event 65535.5

#### Metadata

| Field        | Value   |
|--------------|---------|
| Entrypoint   | 0x0027  |
| Data Size    | 9 bytes |
| Instructions | 3       |

```
      00 01 02 03 04 05 06 07  08 09 0A 0B 0C 0D 0E 0F
      -- -- -- -- -- -- -- --  -- -- -- -- -- -- -- --
0020:                      22  01 2F 01 F8 FF FF 7F 00         "./......
```

#### Opcodes

```
  0: 0x0027 [0x22] ENTITY_HIDE_FLAG(enabled=0x01)
  1: 0x0029 [0x2F] EventEntity->Render.Flags0 |= 0x80000 // Bit 19
  2: 0x002F [0x00] END_REQSTACK()
```

### Event 65535.6

#### Metadata

| Field        | Value    |
|--------------|----------|
| Entrypoint   | 0x0030   |
| Data Size    | 10 bytes |
| Instructions | 2        |

```
      00 01 02 03 04 05 06 07  08 09 0A 0B 0C 0D 0E 0F
      -- -- -- -- -- -- -- --  -- -- -- -- -- -- -- --
0030: 6C F8 FF FF 7F 00 80 01  80 00                    l.........      
```

#### Opcodes

```
  0: 0x0030 [0x6C] FADE_ENTITY_COLOR(entity_id=EventEntity, end_alpha=0*, fade_time=1*)
  1: 0x0039 [0x00] END_REQSTACK()
```

### Event 65535.7

#### Metadata

| Field        | Value    |
|--------------|----------|
| Entrypoint   | 0x003A   |
| Data Size    | 10 bytes |
| Instructions | 2        |

```
      00 01 02 03 04 05 06 07  08 09 0A 0B 0C 0D 0E 0F
      -- -- -- -- -- -- -- --  -- -- -- -- -- -- -- --
0030:                                6C F8 FF FF 7F 02            l.....
0040: 80 01 80 00                                       ....            
```

#### Opcodes

```
  0: 0x003A [0x6C] FADE_ENTITY_COLOR(entity_id=EventEntity, end_alpha=128*, fade_time=1*)
  1: 0x0043 [0x00] END_REQSTACK()
```

### Event 1506

#### Metadata

| Field        | Value    |
|--------------|----------|
| Entrypoint   | 0x0044   |
| Data Size    | 10 bytes |
| Instructions | 4        |

```
      00 01 02 03 04 05 06 07  08 09 0A 0B 0C 0D 0E 0F
      -- -- -- -- -- -- -- --  -- -- -- -- -- -- -- --
0040:             A5 01 C0 01  80 B6 00 03 80 00            ..........  
```

#### Opcodes

```
  0: 0x0044 [0xA5] EventEntity->Flags3.BallistaTeam |= 0x08  // Set bit 3 of BallistaTeam
  1: 0x0046 [0xC0] EventEntity->Render.Flags3 |= 0x1000 // Set bit 12 (from 1*)
  2: 0x0049 [0xB6] ENTITY_APPEARANCE_HANDLER(case=Hair style, value=2785*)
  3: 0x004D [0x00] END_REQSTACK()
```

### Event 65535.8

#### Metadata

| Field        | Value   |
|--------------|---------|
| Entrypoint   | 0x004E  |
| Data Size    | 9 bytes |
| Instructions | 3       |

```
      00 01 02 03 04 05 06 07  08 09 0A 0B 0C 0D 0E 0F
      -- -- -- -- -- -- -- --  -- -- -- -- -- -- -- --
0040:                                            B6 00                ..
0050: 04 80 B6 0F 05 80 00                              .......         
```

#### Opcodes

```
  0: 0x004E [0xB6] ENTITY_APPEARANCE_HANDLER(case=Hair style, value=52*)
  1: 0x0052 [0xB6] ENTITY_APPEARANCE_HANDLER(case=Model size, value=100*)
  2: 0x0056 [0x00] END_REQSTACK()
```

### Event 1507

#### Metadata

| Field        | Value   |
|--------------|---------|
| Entrypoint   | 0x0057  |
| Data Size    | 5 bytes |
| Instructions | 2       |

```
      00 01 02 03 04 05 06 07  08 09 0A 0B 0C 0D 0E 0F
      -- -- -- -- -- -- -- --  -- -- -- -- -- -- -- --
0050:                      B6  00 06 80 00                     .....    
```

#### Opcodes

```
  0: 0x0057 [0xB6] ENTITY_APPEARANCE_HANDLER(case=Hair style, value=326*)
  1: 0x005B [0x00] END_REQSTACK()
```

### Event 1509

#### Metadata

| Field        | Value   |
|--------------|---------|
| Entrypoint   | 0x005C  |
| Data Size    | 5 bytes |
| Instructions | 2       |

```
      00 01 02 03 04 05 06 07  08 09 0A 0B 0C 0D 0E 0F
      -- -- -- -- -- -- -- --  -- -- -- -- -- -- -- --
0050:                                      B6 00 06 80              ....
0060: 00                                                .               
```

#### Opcodes

```
  0: 0x005C [0xB6] ENTITY_APPEARANCE_HANDLER(case=Hair style, value=326*)
  1: 0x0060 [0x00] END_REQSTACK()
```

### Event 1510

#### Metadata

| Field        | Value   |
|--------------|---------|
| Entrypoint   | 0x0061  |
| Data Size    | 5 bytes |
| Instructions | 2       |

```
      00 01 02 03 04 05 06 07  08 09 0A 0B 0C 0D 0E 0F
      -- -- -- -- -- -- -- --  -- -- -- -- -- -- -- --
0060:    B6 00 06 80 00                                  .....          
```

#### Opcodes

```
  0: 0x0061 [0xB6] ENTITY_APPEARANCE_HANDLER(case=Hair style, value=326*)
  1: 0x0065 [0x00] END_REQSTACK()
```

### Event 1515

#### Metadata

| Field        | Value   |
|--------------|---------|
| Entrypoint   | 0x0066  |
| Data Size    | 5 bytes |
| Instructions | 2       |

```
      00 01 02 03 04 05 06 07  08 09 0A 0B 0C 0D 0E 0F
      -- -- -- -- -- -- -- --  -- -- -- -- -- -- -- --
0060:                   B6 00  06 80 00                       .....     
```

#### Opcodes

```
  0: 0x0066 [0xB6] ENTITY_APPEARANCE_HANDLER(case=Hair style, value=326*)
  1: 0x006A [0x00] END_REQSTACK()
```

### Event 1528

#### Metadata

| Field        | Value   |
|--------------|---------|
| Entrypoint   | 0x006B  |
| Data Size    | 5 bytes |
| Instructions | 2       |

```
      00 01 02 03 04 05 06 07  08 09 0A 0B 0C 0D 0E 0F
      -- -- -- -- -- -- -- --  -- -- -- -- -- -- -- --
0060:                                   B6 00 06 80 00             .....
```

#### Opcodes

```
  0: 0x006B [0xB6] ENTITY_APPEARANCE_HANDLER(case=Hair style, value=326*)
  1: 0x006F [0x00] END_REQSTACK()
```

### Event 1551

#### Metadata

| Field        | Value    |
|--------------|----------|
| Entrypoint   | 0x0070   |
| Data Size    | 29 bytes |
| Instructions | 4        |

```
      00 01 02 03 04 05 06 07  08 09 0A 0B 0C 0D 0E 0F
      -- -- -- -- -- -- -- --  -- -- -- -- -- -- -- --
0070: B6 00 07 80 B4 00 00 00  42 61 6C 61 6D 6F 72 00  ........Balamor.
0080: 00 00 00 00 00 00 00 00  B5 00 00 00 00           .............   
```

#### Opcodes

```
  0: 0x0070 [0xB6] ENTITY_APPEARANCE_HANDLER(case=Hair style, value=2742*)
  1: 0x0074 [0xB4] UI_WINDOW_STRING_HANDLER(case=0x00 - Copy string from opcode, work_offset=ExtData[1]->WorkLocal[0], string="Balamor")
  2: 0x0088 [0xB5] SET_EVENT_ENTITY_NAME: Change EventEntity name to ExtData[1]->WorkLocal[0]
  3: 0x008C [0x00] END_REQSTACK()
```

### Event 65535.9

#### Metadata

| Field        | Value    |
|--------------|----------|
| Entrypoint   | 0x008D   |
| Data Size    | 25 bytes |
| Instructions | 3        |

```
      00 01 02 03 04 05 06 07  08 09 0A 0B 0C 0D 0E 0F
      -- -- -- -- -- -- -- --  -- -- -- -- -- -- -- --
0080:                                         B4 00 00               ...
0090: 00 00 00 00 00 00 00 00  00 00 00 00 00 00 00 00  ................
00A0: 00 B5 00 00 00 00                                 ......          
```

#### Opcodes

```
  0: 0x008D [0xB4] UI_WINDOW_STRING_HANDLER(case=0x00 - Copy string from opcode, work_offset=ExtData[1]->WorkLocal[0], string="")
  1: 0x00A1 [0xB5] SET_EVENT_ENTITY_NAME: Change EventEntity name to ExtData[1]->WorkLocal[0]
  2: 0x00A5 [0x00] END_REQSTACK()
```

### Event 114

#### Metadata

| Field        | Value    |
|--------------|----------|
| Entrypoint   | 0x00A6   |
| Data Size    | 39 bytes |
| Instructions | 6        |

```
      00 01 02 03 04 05 06 07  08 09 0A 0B 0C 0D 0E 0F
      -- -- -- -- -- -- -- --  -- -- -- -- -- -- -- --
00A0:                   B6 00  08 80 B6 0F 09 80 B4 00        ..........
00B0: 00 00 3F 3F 3F 00 00 00  00 00 00 00 00 00 00 00  ..???...........
00C0: 00 00 B5 00 00 00 92 01  F8 FF FF 7F 00           .............   
```

#### Opcodes

```
  0: 0x00A6 [0xB6] ENTITY_APPEARANCE_HANDLER(case=Hair style, value=2706*)
  1: 0x00AA [0xB6] ENTITY_APPEARANCE_HANDLER(case=Model size, value=60*)
  2: 0x00AE [0xB4] UI_WINDOW_STRING_HANDLER(case=0x00 - Copy string from opcode, work_offset=ExtData[1]->WorkLocal[0], string="???")
  3: 0x00C2 [0xB5] SET_EVENT_ENTITY_NAME: Change EventEntity name to ExtData[1]->WorkLocal[0]
  4: 0x00C6 [0x92] EventEntity->Render.Flags3 ^= 0x01
  5: 0x00CC [0x00] END_REQSTACK()
```

### Event 120

#### Metadata

| Field        | Value   |
|--------------|---------|
| Entrypoint   | 0x00CD  |
| Data Size    | 9 bytes |
| Instructions | 3       |

```
      00 01 02 03 04 05 06 07  08 09 0A 0B 0C 0D 0E 0F
      -- -- -- -- -- -- -- --  -- -- -- -- -- -- -- --
00C0:                                         B6 00 08               ...
00D0: 80 B6 0F 09 80 00                                 ......          
```

#### Opcodes

```
  0: 0x00CD [0xB6] ENTITY_APPEARANCE_HANDLER(case=Hair style, value=2706*)
  1: 0x00D1 [0xB6] ENTITY_APPEARANCE_HANDLER(case=Model size, value=60*)
  2: 0x00D5 [0x00] END_REQSTACK()
```

### Event 65535.10

#### Metadata

| Field        | Value    |
|--------------|----------|
| Entrypoint   | 0x00D6   |
| Data Size    | 44 bytes |
| Instructions | 10       |

```
      00 01 02 03 04 05 06 07  08 09 0A 0B 0C 0D 0E 0F
      -- -- -- -- -- -- -- --  -- -- -- -- -- -- -- --
00D0:                   32 0A  80 1F 00 0B 80 0C 80 0D        2.........
00E0: 80 1F 01 1F 00 0E 80 0F  80 0D 80 1F 01 1F 00 10  ................
00F0: 80 11 80 0D 80 1F 01 1F  00 12 80 13 80 0D 80 1F  ................
0100: 01 00                                             ..              
```

#### Opcodes

```
  0: 0x00D6 [0x32] ExtData[1]->MainSpeed = 40* * 0.1
  1: 0x00D9 [0x1F] MOVE_ENTITY: EventEntity moves to X=-36.890*, Z=-24.300*, Y=-0.150*
  2: 0x00E1 [0x1F] MOVE_ENTITY: Update entity position (mode=1)
  3: 0x00E3 [0x1F] MOVE_ENTITY: EventEntity moves to X=-38.140*, Z=-23.360*, Y=-0.150*
  4: 0x00EB [0x1F] MOVE_ENTITY: Update entity position (mode=1)
  5: 0x00ED [0x1F] MOVE_ENTITY: EventEntity moves to X=-39.710*, Z=-20.310*, Y=-0.150*
  6: 0x00F5 [0x1F] MOVE_ENTITY: Update entity position (mode=1)
  7: 0x00F7 [0x1F] MOVE_ENTITY: EventEntity moves to X=-43.070*, Z=-14.270*, Y=-0.150*
  8: 0x00FF [0x1F] MOVE_ENTITY: Update entity position (mode=1)
  9: 0x0101 [0x00] END_REQSTACK()
```

### Event 65535.11

#### Metadata

| Field        | Value    |
|--------------|----------|
| Entrypoint   | 0x0102   |
| Data Size    | 44 bytes |
| Instructions | 10       |

```
      00 01 02 03 04 05 06 07  08 09 0A 0B 0C 0D 0E 0F
      -- -- -- -- -- -- -- --  -- -- -- -- -- -- -- --
0100:       32 0A 80 1F 00 14  80 15 80 00 80 1F 01 1F    2.............
0110: 00 16 80 17 80 0D 80 1F  01 1F 00 18 80 19 80 0D  ................
0120: 80 1F 01 1F 00 1A 80 1B  80 0D 80 1F 01 00        ..............  
```

#### Opcodes

```
  0: 0x0102 [0x32] ExtData[1]->MainSpeed = 40* * 0.1
  1: 0x0105 [0x1F] MOVE_ENTITY: EventEntity moves to X=-60.420*, Z=-9.110*, Y=0.000*
  2: 0x010D [0x1F] MOVE_ENTITY: Update entity position (mode=1)
  3: 0x010F [0x1F] MOVE_ENTITY: EventEntity moves to X=-62.300*, Z=-7.340*, Y=-0.150*
  4: 0x0117 [0x1F] MOVE_ENTITY: Update entity position (mode=1)
  5: 0x0119 [0x1F] MOVE_ENTITY: EventEntity moves to X=-62.810*, Z=-6.210*, Y=-0.150*
  6: 0x0121 [0x1F] MOVE_ENTITY: Update entity position (mode=1)
  7: 0x0123 [0x1F] MOVE_ENTITY: EventEntity moves to X=-63.340*, Z=-3.720*, Y=-0.150*
  8: 0x012B [0x1F] MOVE_ENTITY: Update entity position (mode=1)
  9: 0x012D [0x00] END_REQSTACK()
```

### Event 65535.12

#### Metadata

| Field        | Value    |
|--------------|----------|
| Entrypoint   | 0x012E   |
| Data Size    | 50 bytes |
| Instructions | 12       |

```
      00 01 02 03 04 05 06 07  08 09 0A 0B 0C 0D 0E 0F
      -- -- -- -- -- -- -- --  -- -- -- -- -- -- -- --
0120:                                            32 1C                2.
0130: 80 39 1D 80 1C 1E 80 1F  00 1F 80 20 80 0D 80 1F  .9......... ....
0140: 01 1F 00 21 80 22 80 0D  80 1F 01 1F 00 23 80 24  ...!.".......#.$
0150: 80 00 80 1F 01 1F 00 25  80 26 80 00 80 1F 01 00  .......%.&......
```

#### Opcodes

```
  0: 0x012E [0x32] ExtData[1]->MainSpeed = 13* * 0.1
  1: 0x0131 [0x39] SET_ENTITY_DIRECTION(direction=4.4°*)
  2: 0x0134 [0x1C] WAIT(15* ticks)
  3: 0x0137 [0x1F] MOVE_ENTITY: EventEntity moves to X=-62.580*, Z=-5.700*, Y=-0.150*
  4: 0x013F [0x1F] MOVE_ENTITY: Update entity position (mode=1)
  5: 0x0141 [0x1F] MOVE_ENTITY: EventEntity moves to X=-61.020*, Z=-7.530*, Y=-0.150*
  6: 0x0149 [0x1F] MOVE_ENTITY: Update entity position (mode=1)
  7: 0x014B [0x1F] MOVE_ENTITY: EventEntity moves to X=-58.080*, Z=-9.000*, Y=0.000*
  8: 0x0153 [0x1F] MOVE_ENTITY: Update entity position (mode=1)
  9: 0x0155 [0x1F] MOVE_ENTITY: EventEntity moves to X=-53.220*, Z=-9.980*, Y=0.000*
 10: 0x015D [0x1F] MOVE_ENTITY: Update entity position (mode=1)
 11: 0x015F [0x00] END_REQSTACK()
```

### Event 65535.13

#### Metadata

| Field        | Value    |
|--------------|----------|
| Entrypoint   | 0x0160   |
| Data Size    | 14 bytes |
| Instructions | 4        |

```
      00 01 02 03 04 05 06 07  08 09 0A 0B 0C 0D 0E 0F
      -- -- -- -- -- -- -- --  -- -- -- -- -- -- -- --
0160: 32 1C 80 1F 00 27 80 28  80 0D 80 1F 01 00        2....'.(......  
```

#### Opcodes

```
  0: 0x0160 [0x32] ExtData[1]->MainSpeed = 13* * 0.1
  1: 0x0163 [0x1F] MOVE_ENTITY: EventEntity moves to X=-40.560*, Z=-17.840*, Y=-0.150*
  2: 0x016B [0x1F] MOVE_ENTITY: Update entity position (mode=1)
  3: 0x016D [0x00] END_REQSTACK()
```

### Event 65535.14

#### Metadata

| Field        | Value    |
|--------------|----------|
| Entrypoint   | 0x016E   |
| Data Size    | 20 bytes |
| Instructions | 6        |

```
      00 01 02 03 04 05 06 07  08 09 0A 0B 0C 0D 0E 0F
      -- -- -- -- -- -- -- --  -- -- -- -- -- -- -- --
0160:                                            32 0A                2.
0170: 80 39 29 80 1C 2A 80 1F  00 2B 80 2C 80 0D 80 1F  .9)..*...+.,....
0180: 01 00                                             ..              
```

#### Opcodes

```
  0: 0x016E [0x32] ExtData[1]->MainSpeed = 40* * 0.1
  1: 0x0171 [0x39] SET_ENTITY_DIRECTION(direction=353.7°*)
  2: 0x0174 [0x1C] WAIT(30* ticks)
  3: 0x0177 [0x1F] MOVE_ENTITY: EventEntity moves to X=-43.200*, Z=-10.160*, Y=-0.150*
  4: 0x017F [0x1F] MOVE_ENTITY: Update entity position (mode=1)
  5: 0x0181 [0x00] END_REQSTACK()
```

### Event 65535.15

#### Metadata

| Field        | Value    |
|--------------|----------|
| Entrypoint   | 0x0182   |
| Data Size    | 44 bytes |
| Instructions | 10       |

```
      00 01 02 03 04 05 06 07  08 09 0A 0B 0C 0D 0E 0F
      -- -- -- -- -- -- -- --  -- -- -- -- -- -- -- --
0180:       32 0A 80 1F 00 2D  80 2E 80 00 80 1F 01 1F    2....-........
0190: 00 2F 80 30 80 00 80 1F  01 1F 00 31 80 32 80 00  ./.0.......1.2..
01A0: 80 1F 01 1F 00 33 80 2C  80 00 80 1F 01 00        .....3.,......  
```

#### Opcodes

```
  0: 0x0182 [0x32] ExtData[1]->MainSpeed = 40* * 0.1
  1: 0x0185 [0x1F] MOVE_ENTITY: EventEntity moves to X=-50.900*, Z=-8.770*, Y=0.000*
  2: 0x018D [0x1F] MOVE_ENTITY: Update entity position (mode=1)
  3: 0x018F [0x1F] MOVE_ENTITY: EventEntity moves to X=-52.450*, Z=-9.390*, Y=0.000*
  4: 0x0197 [0x1F] MOVE_ENTITY: Update entity position (mode=1)
  5: 0x0199 [0x1F] MOVE_ENTITY: EventEntity moves to X=-55.430*, Z=-9.860*, Y=0.000*
  6: 0x01A1 [0x1F] MOVE_ENTITY: Update entity position (mode=1)
  7: 0x01A3 [0x1F] MOVE_ENTITY: EventEntity moves to X=-80.730*, Z=-10.160*, Y=0.000*
  8: 0x01AB [0x1F] MOVE_ENTITY: Update entity position (mode=1)
  9: 0x01AD [0x00] END_REQSTACK()
```

### Event 126

#### Metadata

| Field        | Value    |
|--------------|----------|
| Entrypoint   | 0x01AE   |
| Data Size    | 39 bytes |
| Instructions | 6        |

```
      00 01 02 03 04 05 06 07  08 09 0A 0B 0C 0D 0E 0F
      -- -- -- -- -- -- -- --  -- -- -- -- -- -- -- --
01A0:                                            B6 00                ..
01B0: 08 80 B6 0F 09 80 B4 00  00 00 3F 3F 3F 00 00 00  ..........???...
01C0: 00 00 00 00 00 00 00 00  00 00 B5 00 00 00 92 01  ................
01D0: F8 FF FF 7F 00                                    .....           
```

#### Opcodes

```
  0: 0x01AE [0xB6] ENTITY_APPEARANCE_HANDLER(case=Hair style, value=2706*)
  1: 0x01B2 [0xB6] ENTITY_APPEARANCE_HANDLER(case=Model size, value=60*)
  2: 0x01B6 [0xB4] UI_WINDOW_STRING_HANDLER(case=0x00 - Copy string from opcode, work_offset=ExtData[1]->WorkLocal[0], string="???")
  3: 0x01CA [0xB5] SET_EVENT_ENTITY_NAME: Change EventEntity name to ExtData[1]->WorkLocal[0]
  4: 0x01CE [0x92] EventEntity->Render.Flags3 ^= 0x01
  5: 0x01D4 [0x00] END_REQSTACK()
```

### Event 65535.16

#### Metadata

| Field        | Value    |
|--------------|----------|
| Entrypoint   | 0x01D5   |
| Data Size    | 25 bytes |
| Instructions | 3        |

```
      00 01 02 03 04 05 06 07  08 09 0A 0B 0C 0D 0E 0F
      -- -- -- -- -- -- -- --  -- -- -- -- -- -- -- --
01D0:                B4 00 00  00 47 65 6F 73 75 6B 65       ....Geosuke
01E0: 00 00 00 00 00 00 00 00  00 B5 00 00 00 00        ..............  
```

#### Opcodes

```
  0: 0x01D5 [0xB4] UI_WINDOW_STRING_HANDLER(case=0x00 - Copy string from opcode, work_offset=ExtData[1]->WorkLocal[0], string="Geosuke")
  1: 0x01E9 [0xB5] SET_EVENT_ENTITY_NAME: Change EventEntity name to ExtData[1]->WorkLocal[0]
  2: 0x01ED [0x00] END_REQSTACK()
```

### Event 65535.17

#### Metadata

| Field        | Value    |
|--------------|----------|
| Entrypoint   | 0x01EE   |
| Data Size    | 41 bytes |
| Instructions | 9        |

```
      00 01 02 03 04 05 06 07  08 09 0A 0B 0C 0D 0E 0F
      -- -- -- -- -- -- -- --  -- -- -- -- -- -- -- --
01E0:                                            1F 00                ..
01F0: 34 80 35 80 36 80 1F 01  1F 00 37 80 38 80 36 80  4.5.6.....7.8.6.
0200: 1F 01 1F 00 39 80 24 80  36 80 1F 01 1F 00 3A 80  ....9.$.6.....:.
0210: 3B 80 00 80 1F 01 00                              ;......         
```

#### Opcodes

```
  0: 0x01EE [0x1F] MOVE_ENTITY: EventEntity moves to X=-55.150*, Z=-12.200*, Y=-0.500*
  1: 0x01F6 [0x1F] MOVE_ENTITY: Update entity position (mode=1)
  2: 0x01F8 [0x1F] MOVE_ENTITY: EventEntity moves to X=-53.890*, Z=-13.530*, Y=-0.500*
  3: 0x0200 [0x1F] MOVE_ENTITY: Update entity position (mode=1)
  4: 0x0202 [0x1F] MOVE_ENTITY: EventEntity moves to X=-52.000*, Z=-9.000*, Y=-0.500*
  5: 0x020A [0x1F] MOVE_ENTITY: Update entity position (mode=1)
  6: 0x020C [0x1F] MOVE_ENTITY: EventEntity moves to X=-43.900*, Z=-13.850*, Y=0.000*
  7: 0x0214 [0x1F] MOVE_ENTITY: Update entity position (mode=1)
  8: 0x0216 [0x00] END_REQSTACK()
```

### Event 133

#### Metadata

| Field        | Value   |
|--------------|---------|
| Entrypoint   | 0x0217  |
| Data Size    | 1 bytes |
| Instructions | 1       |

```
      00 01 02 03 04 05 06 07  08 09 0A 0B 0C 0D 0E 0F
      -- -- -- -- -- -- -- --  -- -- -- -- -- -- -- --
0210:                      00                                  .        
```

#### Opcodes

```
  0: 0x0217 [0x00] END_REQSTACK()
```

### Event 65535.18

#### Metadata

| Field        | Value   |
|--------------|---------|
| Entrypoint   | 0x0218  |
| Data Size    | 5 bytes |
| Instructions | 2       |

```
      00 01 02 03 04 05 06 07  08 09 0A 0B 0C 0D 0E 0F
      -- -- -- -- -- -- -- --  -- -- -- -- -- -- -- --
0210:                          B6 00 3C 80 00                   ..<..   
```

#### Opcodes

```
  0: 0x0218 [0xB6] ENTITY_APPEARANCE_HANDLER(case=Hair style, value=316*)
  1: 0x021C [0x00] END_REQSTACK()
```

### Event 65535.19

#### Metadata

| Field        | Value   |
|--------------|---------|
| Entrypoint   | 0x021D  |
| Data Size    | 5 bytes |
| Instructions | 2       |

```
      00 01 02 03 04 05 06 07  08 09 0A 0B 0C 0D 0E 0F
      -- -- -- -- -- -- -- --  -- -- -- -- -- -- -- --
0210:                                         B6 00 3D               ..=
0220: 80 00                                             ..              
```

#### Opcodes

```
  0: 0x021D [0xB6] ENTITY_APPEARANCE_HANDLER(case=Hair style, value=2701*)
  1: 0x0221 [0x00] END_REQSTACK()
```

### Event 65535.20

#### Metadata

| Field        | Value   |
|--------------|---------|
| Entrypoint   | 0x0222  |
| Data Size    | 9 bytes |
| Instructions | 3       |

```
      00 01 02 03 04 05 06 07  08 09 0A 0B 0C 0D 0E 0F
      -- -- -- -- -- -- -- --  -- -- -- -- -- -- -- --
0220:       B6 00 3E 80 B6 0F  3F 80 00                   ..>...?..     
```

#### Opcodes

```
  0: 0x0222 [0xB6] ENTITY_APPEARANCE_HANDLER(case=Hair style, value=148*)
  1: 0x0226 [0xB6] ENTITY_APPEARANCE_HANDLER(case=Model size, value=20*)
  2: 0x022A [0x00] END_REQSTACK()
```

### Event 65535.21

#### Metadata

| Field        | Value   |
|--------------|---------|
| Entrypoint   | 0x022B  |
| Data Size    | 9 bytes |
| Instructions | 3       |

```
      00 01 02 03 04 05 06 07  08 09 0A 0B 0C 0D 0E 0F
      -- -- -- -- -- -- -- --  -- -- -- -- -- -- -- --
0220:                                   B6 00 40 80 B6             ..@..
0230: 0F 2A 80 00                                       .*..            
```

#### Opcodes

```
  0: 0x022B [0xB6] ENTITY_APPEARANCE_HANDLER(case=Hair style, value=2702*)
  1: 0x022F [0xB6] ENTITY_APPEARANCE_HANDLER(case=Model size, value=30*)
  2: 0x0233 [0x00] END_REQSTACK()
```

### Event 65535.22

#### Metadata

| Field        | Value   |
|--------------|---------|
| Entrypoint   | 0x0234  |
| Data Size    | 9 bytes |
| Instructions | 3       |

```
      00 01 02 03 04 05 06 07  08 09 0A 0B 0C 0D 0E 0F
      -- -- -- -- -- -- -- --  -- -- -- -- -- -- -- --
0230:             B6 00 08 80  B6 0F 2A 80 00               ......*..   
```

#### Opcodes

```
  0: 0x0234 [0xB6] ENTITY_APPEARANCE_HANDLER(case=Hair style, value=2706*)
  1: 0x0238 [0xB6] ENTITY_APPEARANCE_HANDLER(case=Model size, value=30*)
  2: 0x023C [0x00] END_REQSTACK()
```

### Event 65535.23

#### Metadata

| Field        | Value   |
|--------------|---------|
| Entrypoint   | 0x023D  |
| Data Size    | 6 bytes |
| Instructions | 3       |

```
      00 01 02 03 04 05 06 07  08 09 0A 0B 0C 0D 0E 0F
      -- -- -- -- -- -- -- --  -- -- -- -- -- -- -- --
0230:                                         B6 00 41               ..A
0240: 80 84 00                                          ...             
```

#### Opcodes

```
  0: 0x023D [0xB6] ENTITY_APPEARANCE_HANDLER(case=Hair style, value=2710*)
  1: 0x0241 [0x84] ADJUST_RENDER_FLAGS3_BIT0()
  2: 0x0242 [0x00] END_REQSTACK()
```

### Event 65535.24

#### Metadata

| Field        | Value   |
|--------------|---------|
| Entrypoint   | 0x0243  |
| Data Size    | 5 bytes |
| Instructions | 2       |

```
      00 01 02 03 04 05 06 07  08 09 0A 0B 0C 0D 0E 0F
      -- -- -- -- -- -- -- --  -- -- -- -- -- -- -- --
0240:          B6 00 42 80 00                              ..B..        
```

#### Opcodes

```
  0: 0x0243 [0xB6] ENTITY_APPEARANCE_HANDLER(case=Hair style, value=63*)
  1: 0x0247 [0x00] END_REQSTACK()
```

### Event 65535.25

#### Metadata

| Field        | Value   |
|--------------|---------|
| Entrypoint   | 0x0248  |
| Data Size    | 5 bytes |
| Instructions | 2       |

```
      00 01 02 03 04 05 06 07  08 09 0A 0B 0C 0D 0E 0F
      -- -- -- -- -- -- -- --  -- -- -- -- -- -- -- --
0240:                          B6 00 43 80 00                   ..C..   
```

#### Opcodes

```
  0: 0x0248 [0xB6] ENTITY_APPEARANCE_HANDLER(case=Hair style, value=300*)
  1: 0x024C [0x00] END_REQSTACK()
```

### Event 5230

#### Metadata

| Field        | Value   |
|--------------|---------|
| Entrypoint   | 0x024D  |
| Data Size    | 5 bytes |
| Instructions | 2       |

```
      00 01 02 03 04 05 06 07  08 09 0A 0B 0C 0D 0E 0F
      -- -- -- -- -- -- -- --  -- -- -- -- -- -- -- --
0240:                                         B6 00 44               ..D
0250: 80 00                                             ..              
```

#### Opcodes

```
  0: 0x024D [0xB6] ENTITY_APPEARANCE_HANDLER(case=Hair style, value=2736*)
  1: 0x0251 [0x00] END_REQSTACK()
```
