# 17830163 - Lola

## Common Data

| Field            | Value                     |
|------------------|---------------------------|
| Zone             | Eastern Adoulin (ID: 257) |
| Block Size       | 128 bytes                 |
| Total Events     | 5                         |
| References Count | 3                         |

## List of Events

| Event ID                 | Entrypoint   |   Size |   Instructions |
|--------------------------|--------------|--------|----------------|
| [65535](#event-65535)    | 0x0000       |      1 |              1 |
| [106](#event-106)        | 0x0001       |      1 |              1 |
| [65535.1](#event-655351) | 0x0002       |     29 |              3 |
| [65535.2](#event-655352) | 0x001F       |     33 |              3 |
| [65535.3](#event-655353) | 0x0040       |     13 |              3 |

## DAT References (imed_data)

|   Index | Hex Value   |   Dec Value |
|---------|-------------|-------------|
|       0 | 0x009D      |         157 |
|       1 | 0x0050      |          80 |
|       2 | 0x001E      |          30 |

## Events

### Event 65535

#### Metadata

| Field        | Value   |
|--------------|---------|
| Entrypoint   | 0x0000  |
| Data Size    | 1 bytes |
| Instructions | 1       |

```
      00 01 02 03 04 05 06 07  08 09 0A 0B 0C 0D 0E 0F
      -- -- -- -- -- -- -- --  -- -- -- -- -- -- -- --
0000: 00                                                .               
```

#### Opcodes

```
  0: 0x0000 [0x00] END_REQSTACK()
```

### Event 106

#### Metadata

| Field        | Value   |
|--------------|---------|
| Entrypoint   | 0x0001  |
| Data Size    | 1 bytes |
| Instructions | 1       |

```
      00 01 02 03 04 05 06 07  08 09 0A 0B 0C 0D 0E 0F
      -- -- -- -- -- -- -- --  -- -- -- -- -- -- -- --
0000:    00                                              .              
```

#### Opcodes

```
  0: 0x0001 [0x00] END_REQSTACK()
```

### Event 65535.1

#### Metadata

| Field        | Value    |
|--------------|----------|
| Entrypoint   | 0x0002   |
| Data Size    | 29 bytes |
| Instructions | 3        |

```
      00 01 02 03 04 05 06 07  08 09 0A 0B 0C 0D 0E 0F
      -- -- -- -- -- -- -- --  -- -- -- -- -- -- -- --
0000:       66 00 80 F8 FF FF  7F F8 FF FF 7F 73 61 64    f..........sad
0010: 30 53 F8 FF FF 7F F8 FF  FF 7F 73 61 64 30 00     0S........sad0. 
```

#### Opcodes

```
  0: 0x0002 [0x66] LOAD_EXT_SCHEDULER_MAIN: Load scheduler "sad0" with entities [EventEntity, EventEntity], work=157*
  1: 0x0011 [0x53] WAIT_SCHEDULER_TASK: Wait for scheduler "sad0" with entities [EventEntity, EventEntity]
  2: 0x001E [0x00] END_REQSTACK()
```

### Event 65535.2

#### Metadata

| Field        | Value    |
|--------------|----------|
| Entrypoint   | 0x001F   |
| Data Size    | 33 bytes |
| Instructions | 3        |

```
      00 01 02 03 04 05 06 07  08 09 0A 0B 0C 0D 0E 0F
      -- -- -- -- -- -- -- --  -- -- -- -- -- -- -- --
0010:                                               5F                 _
0020: 06 00 80 F8 FF FF 7F F8  FF FF 7F 73 61 64 31 01  ...........sad1.
0030: 80 5F 07 F8 FF FF 7F F8  FF FF 7F 73 61 64 31 00  ._.........sad1.
```

#### Opcodes

```
  0: 0x001F [0x5F] MULTI_HANDLER_COMPLEX(mode=0x06 - Load ext scheduler with flag (OpCode 0x5B mode 1, flag 1), ref=157*, entity1=EventEntity, entity2=EventEntity, string="sad1", extra=80*)
  1: 0x0031 [0x5F] MULTI_HANDLER_COMPLEX(mode=0x07 - Wait scheduler task (OpCode 0x53))
  2: 0x003F [0x00] END_REQSTACK()
```

### Event 65535.3

#### Metadata

| Field        | Value    |
|--------------|----------|
| Entrypoint   | 0x0040   |
| Data Size    | 13 bytes |
| Instructions | 3        |

```
      00 01 02 03 04 05 06 07  08 09 0A 0B 0C 0D 0E 0F
      -- -- -- -- -- -- -- --  -- -- -- -- -- -- -- --
0040: 6B 69 64 6C 30 F8 FF FF  7F 1C 02 80 00           kidl0........   
```

#### Opcodes

```
  0: 0x0040 [0x6B] STOP_AND_IDLE: EventEntity stops current action and resets to idle (animation="idl0")
  1: 0x0049 [0x1C] WAIT(30* ticks)
  2: 0x004C [0x00] END_REQSTACK()
```
