# 17830137 - Sylvie

## Common Data

| Field            | Value                     |
|------------------|---------------------------|
| Zone             | Eastern Adoulin (ID: 257) |
| Block Size       | 1868 bytes                |
| Total Events     | 82                        |
| References Count | 58                        |

## List of Events

| Event ID                   | Entrypoint   |   Size |   Instructions |
|----------------------------|--------------|--------|----------------|
| [65535](#event-65535)      | 0x0000       |      1 |              1 |
| [34](#event-34)            | 0x0001       |      1 |              1 |
| [65535.1](#event-655351)   | 0x0002       |     16 |              3 |
| [65535.2](#event-655352)   | 0x0012       |     16 |              5 |
| [65535.3](#event-655353)   | 0x0022       |     10 |              2 |
| [65535.4](#event-655354)   | 0x002C       |     14 |              4 |
| [65535.5](#event-655355)   | 0x003A       |     14 |              4 |
| [39](#event-39)            | 0x0048       |      1 |              1 |
| [65535.6](#event-655356)   | 0x0049       |     16 |              3 |
| [65535.7](#event-655357)   | 0x0059       |     16 |              5 |
| [65535.8](#event-655358)   | 0x0069       |     16 |              5 |
| [65535.9](#event-655359)   | 0x0079       |     10 |              2 |
| [65535.10](#event-6553510) | 0x0083       |     14 |              4 |
| [65535.11](#event-6553511) | 0x0091       |     10 |              2 |
| [65535.12](#event-6553512) | 0x009B       |     14 |              4 |
| [65535.13](#event-6553513) | 0x00A9       |     14 |              4 |
| [65535.14](#event-6553514) | 0x00B7       |     45 |              7 |
| [65535.15](#event-6553515) | 0x00E4       |     16 |              2 |
| [65535.16](#event-6553516) | 0x00F4       |     14 |              2 |
| [65535.17](#event-6553517) | 0x0102       |     16 |              2 |
| [65535.18](#event-6553518) | 0x0112       |     14 |              2 |
| [65535.19](#event-6553519) | 0x0120       |     57 |              5 |
| [65535.20](#event-6553520) | 0x0159       |     16 |              2 |
| [65535.21](#event-6553521) | 0x0169       |     14 |              2 |
| [65535.22](#event-6553522) | 0x0177       |     16 |              2 |
| [65535.23](#event-6553523) | 0x0187       |     14 |              2 |
| [65535.24](#event-6553524) | 0x0195       |     16 |              2 |
| [65535.25](#event-6553525) | 0x01A5       |     14 |              2 |
| [65535.26](#event-6553526) | 0x01B3       |     16 |              2 |
| [65535.27](#event-6553527) | 0x01C3       |     14 |              2 |
| [65535.28](#event-6553528) | 0x01D1       |     16 |              2 |
| [65535.29](#event-6553529) | 0x01E1       |     14 |              2 |
| [65535.30](#event-6553530) | 0x01EF       |     16 |              2 |
| [65535.31](#event-6553531) | 0x01FF       |     14 |              2 |
| [65535.32](#event-6553532) | 0x020D       |     16 |              2 |
| [65535.33](#event-6553533) | 0x021D       |     14 |              2 |
| [65535.34](#event-6553534) | 0x022B       |     16 |              2 |
| [65535.35](#event-6553535) | 0x023B       |     14 |              2 |
| [65535.36](#event-6553536) | 0x0249       |     16 |              2 |
| [65535.37](#event-6553537) | 0x0259       |     14 |              2 |
| [65535.38](#event-6553538) | 0x0267       |     16 |              2 |
| [65535.39](#event-6553539) | 0x0277       |     14 |              2 |
| [65535.40](#event-6553540) | 0x0285       |     16 |              2 |
| [65535.41](#event-6553541) | 0x0295       |     14 |              2 |
| [65535.42](#event-6553542) | 0x02A3       |     16 |              2 |
| [65535.43](#event-6553543) | 0x02B3       |     14 |              2 |
| [65535.44](#event-6553544) | 0x02C1       |     16 |              2 |
| [65535.45](#event-6553545) | 0x02D1       |     14 |              2 |
| [65535.46](#event-6553546) | 0x02DF       |     16 |              2 |
| [65535.47](#event-6553547) | 0x02EF       |     14 |              2 |
| [65535.48](#event-6553548) | 0x02FD       |     16 |              2 |
| [65535.49](#event-6553549) | 0x030D       |     14 |              2 |
| [65535.50](#event-6553550) | 0x031B       |     16 |              2 |
| [65535.51](#event-6553551) | 0x032B       |     14 |              2 |
| [65535.52](#event-6553552) | 0x0339       |     16 |              2 |
| [65535.53](#event-6553553) | 0x0349       |     14 |              2 |
| [65535.54](#event-6553554) | 0x0357       |     16 |              2 |
| [65535.55](#event-6553555) | 0x0367       |     14 |              2 |
| [65535.56](#event-6553556) | 0x0375       |     16 |              2 |
| [65535.57](#event-6553557) | 0x0385       |     14 |              2 |
| [65535.58](#event-6553558) | 0x0393       |     16 |              2 |
| [65535.59](#event-6553559) | 0x03A3       |     14 |              2 |
| [65535.60](#event-6553560) | 0x03B1       |     16 |              2 |
| [65535.61](#event-6553561) | 0x03C1       |     14 |              2 |
| [65535.62](#event-6553562) | 0x03CF       |     16 |              2 |
| [65535.63](#event-6553563) | 0x03DF       |     14 |              2 |
| [65535.64](#event-6553564) | 0x03ED       |     16 |              2 |
| [65535.65](#event-6553565) | 0x03FD       |     14 |              2 |
| [65535.66](#event-6553566) | 0x040B       |     16 |              2 |
| [65535.67](#event-6553567) | 0x041B       |     14 |              2 |
| [65535.68](#event-6553568) | 0x0429       |     16 |              2 |
| [65535.69](#event-6553569) | 0x0439       |     14 |              2 |
| [65535.70](#event-6553570) | 0x0447       |     16 |              4 |
| [65535.71](#event-6553571) | 0x0457       |     16 |              4 |
| [65535.72](#event-6553572) | 0x0467       |     16 |              4 |
| [65535.73](#event-6553573) | 0x0477       |     16 |              4 |
| [65535.74](#event-6553574) | 0x0487       |     16 |              4 |
| [65535.75](#event-6553575) | 0x0497       |     16 |              4 |
| [65535.76](#event-6553576) | 0x04A7       |     16 |              4 |
| [65535.77](#event-6553577) | 0x04B7       |     16 |              4 |
| [65535.78](#event-6553578) | 0x04C7       |     16 |              4 |
| [65535.79](#event-6553579) | 0x04D7       |     53 |              5 |

## DAT References (imed_data)

|   Index | Hex Value   |   Dec Value |
|---------|-------------|-------------|
|       0 | 0x4FCF      |       20431 |
|       1 | 0x6167      |       24935 |
|       2 | 0xFFFFAA10  |  4294945296 |
|       3 | 0xFFFFFF38  |  4294967096 |
|       4 | 0x0028      |          40 |
|       5 | 0x59D7      |       22999 |
|       6 | 0x7981      |       31105 |
|       7 | 0xFFFFFE79  |  4294966905 |
|       8 | 0xFFFFAFC5  |  4294946757 |
|       9 | 0x0000      |           0 |
|      10 | 0x0C08      |        3080 |
|      11 | 0x000D      |          13 |
|      12 | 0xFFFFFE5C  |  4294966876 |
|      13 | 0xFFFFD386  |  4294955910 |
|      14 | 0xFFFFFE04  |  4294966788 |
|      15 | 0xFFFF7196  |  4294930838 |
|      16 | 0x51B6      |       20918 |
|      17 | 0x69E3      |       27107 |
|      18 | 0xFFFFAA11  |  4294945297 |
|      19 | 0x0CEF      |        3311 |
|      20 | 0x5ADA      |       23258 |
|      21 | 0x7D5E      |       32094 |
|      22 | 0xFFFFA97C  |  4294945148 |
|      23 | 0x5A8F      |       23183 |
|      24 | 0x8C81      |       35969 |
|      25 | 0xFFFFA787  |  4294944647 |
|      26 | 0x01AC      |         428 |
|      27 | 0xFFFFE08D  |  4294959245 |
|      28 | 0x097A      |        2426 |
|      29 | 0x02D8      |         728 |
|      30 | 0x0383      |         899 |
|      31 | 0x5B82      |       23426 |
|      32 | 0x7D92      |       32146 |
|      33 | 0x0CE4      |        3300 |
|      34 | 0x4505      |       17669 |
|      35 | 0x529B      |       21147 |
|      36 | 0x01DB      |         475 |
|      37 | 0x044A      |        1098 |
|      38 | 0xFFFFFE7F  |  4294966911 |
|      39 | 0x0014      |          20 |
|      40 | 0x0013      |          19 |
|      41 | 0x009F      |         159 |
|      42 | 0x009E      |         158 |
|      43 | 0x0051      |          81 |
|      44 | 0x0058      |          88 |
|      45 | 0x0097      |         151 |
|      46 | 0x009D      |         157 |
|      47 | 0x0012      |          18 |
|      48 | 0x003C      |          60 |
|      49 | 0x0015      |          21 |
|      50 | 0x0020      |          32 |
|      51 | 0x0005      |           5 |
|      52 | 0x0007      |           7 |
|      53 | 0x0006      |           6 |
|      54 | 0x0019      |          25 |
|      55 | 0x0008      |           8 |
|      56 | 0x008C      |         140 |
|      57 | 0x000A      |          10 |

## Events

### Event 65535

#### Metadata

| Field        | Value   |
|--------------|---------|
| Entrypoint   | 0x0000  |
| Data Size    | 1 bytes |
| Instructions | 1       |

```
      00 01 02 03 04 05 06 07  08 09 0A 0B 0C 0D 0E 0F
      -- -- -- -- -- -- -- --  -- -- -- -- -- -- -- --
0000: 00                                                .               
```

#### Opcodes

```
  0: 0x0000 [0x00] END_REQSTACK()
```

### Event 34

#### Metadata

| Field        | Value   |
|--------------|---------|
| Entrypoint   | 0x0001  |
| Data Size    | 1 bytes |
| Instructions | 1       |

```
      00 01 02 03 04 05 06 07  08 09 0A 0B 0C 0D 0E 0F
      -- -- -- -- -- -- -- --  -- -- -- -- -- -- -- --
0000:    00                                              .              
```

#### Opcodes

```
  0: 0x0001 [0x00] END_REQSTACK()
```

### Event 65535.1

#### Metadata

| Field        | Value    |
|--------------|----------|
| Entrypoint   | 0x0002   |
| Data Size    | 16 bytes |
| Instructions | 3        |

```
      00 01 02 03 04 05 06 07  08 09 0A 0B 0C 0D 0E 0F
      -- -- -- -- -- -- -- --  -- -- -- -- -- -- -- --
0000:       2F 00 F8 FF FF 7F  37 00 80 01 80 02 80 03    /.....7.......
0010: 80 00                                             ..              
```

#### Opcodes

```
  0: 0x0002 [0x2F] EventEntity->Render.Flags0 &= ~0x80000 // Bit 19
  1: 0x0008 [0x37] UPDATE_EVENT_POSITION_AND_DIR: x=20.431*, z=24.935*, y=-22.000*, direction=377476201.6°*
  2: 0x0011 [0x00] END_REQSTACK()
```

### Event 65535.2

#### Metadata

| Field        | Value    |
|--------------|----------|
| Entrypoint   | 0x0012   |
| Data Size    | 16 bytes |
| Instructions | 5        |

```
      00 01 02 03 04 05 06 07  08 09 0A 0B 0C 0D 0E 0F
      -- -- -- -- -- -- -- --  -- -- -- -- -- -- -- --
0010:       22 00 32 04 80 1F  00 05 80 06 80 02 80 1F    ".2...........
0020: 01 00                                             ..              
```

#### Opcodes

```
  0: 0x0012 [0x22] ENTITY_HIDE_FLAG(enabled=0x00)
  1: 0x0014 [0x32] ExtData[1]->MainSpeed = 40* * 0.1
  2: 0x0017 [0x1F] MOVE_ENTITY: EventEntity moves to X=22.999*, Z=31.105*, Y=-22.000*
  3: 0x001F [0x1F] MOVE_ENTITY: Update entity position (mode=1)
  4: 0x0021 [0x00] END_REQSTACK()
```

### Event 65535.3

#### Metadata

| Field        | Value    |
|--------------|----------|
| Entrypoint   | 0x0022   |
| Data Size    | 10 bytes |
| Instructions | 2        |

```
      00 01 02 03 04 05 06 07  08 09 0A 0B 0C 0D 0E 0F
      -- -- -- -- -- -- -- --  -- -- -- -- -- -- -- --
0020:       37 07 80 08 80 09  80 0A 80 00                7.........    
```

#### Opcodes

```
  0: 0x0022 [0x37] UPDATE_EVENT_POSITION_AND_DIR: x=-0.391*, z=-20.539*, y=0.000*, direction=270.7°*
  1: 0x002B [0x00] END_REQSTACK()
```

### Event 65535.4

#### Metadata

| Field        | Value    |
|--------------|----------|
| Entrypoint   | 0x002C   |
| Data Size    | 14 bytes |
| Instructions | 4        |

```
      00 01 02 03 04 05 06 07  08 09 0A 0B 0C 0D 0E 0F
      -- -- -- -- -- -- -- --  -- -- -- -- -- -- -- --
0020:                                      32 0B 80 1F              2...
0030: 00 0C 80 0D 80 09 80 1F  01 00                    ..........      
```

#### Opcodes

```
  0: 0x002C [0x32] ExtData[1]->MainSpeed = 13* * 0.1
  1: 0x002F [0x1F] MOVE_ENTITY: EventEntity moves to X=-0.420*, Z=-11.386*, Y=0.000*
  2: 0x0037 [0x1F] MOVE_ENTITY: Update entity position (mode=1)
  3: 0x0039 [0x00] END_REQSTACK()
```

### Event 65535.5

#### Metadata

| Field        | Value    |
|--------------|----------|
| Entrypoint   | 0x003A   |
| Data Size    | 14 bytes |
| Instructions | 4        |

```
      00 01 02 03 04 05 06 07  08 09 0A 0B 0C 0D 0E 0F
      -- -- -- -- -- -- -- --  -- -- -- -- -- -- -- --
0030:                                32 04 80 1F 00 0E            2.....
0040: 80 0F 80 09 80 1F 01 00                           ........        
```

#### Opcodes

```
  0: 0x003A [0x32] ExtData[1]->MainSpeed = 40* * 0.1
  1: 0x003D [0x1F] MOVE_ENTITY: EventEntity moves to X=-0.508*, Z=-36.458*, Y=0.000*
  2: 0x0045 [0x1F] MOVE_ENTITY: Update entity position (mode=1)
  3: 0x0047 [0x00] END_REQSTACK()
```

### Event 39

#### Metadata

| Field        | Value   |
|--------------|---------|
| Entrypoint   | 0x0048  |
| Data Size    | 1 bytes |
| Instructions | 1       |

```
      00 01 02 03 04 05 06 07  08 09 0A 0B 0C 0D 0E 0F
      -- -- -- -- -- -- -- --  -- -- -- -- -- -- -- --
0040:                          00                               .       
```

#### Opcodes

```
  0: 0x0048 [0x00] END_REQSTACK()
```

### Event 65535.6

#### Metadata

| Field        | Value    |
|--------------|----------|
| Entrypoint   | 0x0049   |
| Data Size    | 16 bytes |
| Instructions | 3        |

```
      00 01 02 03 04 05 06 07  08 09 0A 0B 0C 0D 0E 0F
      -- -- -- -- -- -- -- --  -- -- -- -- -- -- -- --
0040:                             2F 00 F8 FF FF 7F 37           /.....7
0050: 10 80 11 80 12 80 13 80  00                       .........       
```

#### Opcodes

```
  0: 0x0049 [0x2F] EventEntity->Render.Flags0 &= ~0x80000 // Bit 19
  1: 0x004F [0x37] UPDATE_EVENT_POSITION_AND_DIR: x=20.918*, z=27.107*, y=-21.999*, direction=291.0°*
  2: 0x0058 [0x00] END_REQSTACK()
```

### Event 65535.7

#### Metadata

| Field        | Value    |
|--------------|----------|
| Entrypoint   | 0x0059   |
| Data Size    | 16 bytes |
| Instructions | 5        |

```
      00 01 02 03 04 05 06 07  08 09 0A 0B 0C 0D 0E 0F
      -- -- -- -- -- -- -- --  -- -- -- -- -- -- -- --
0050:                             22 00 32 0B 80 1F 00           ".2....
0060: 14 80 15 80 16 80 1F 01  00                       .........       
```

#### Opcodes

```
  0: 0x0059 [0x22] ENTITY_HIDE_FLAG(enabled=0x00)
  1: 0x005B [0x32] ExtData[1]->MainSpeed = 13* * 0.1
  2: 0x005E [0x1F] MOVE_ENTITY: EventEntity moves to X=23.258*, Z=32.094*, Y=-22.148*
  3: 0x0066 [0x1F] MOVE_ENTITY: Update entity position (mode=1)
  4: 0x0068 [0x00] END_REQSTACK()
```

### Event 65535.8

#### Metadata

| Field        | Value    |
|--------------|----------|
| Entrypoint   | 0x0069   |
| Data Size    | 16 bytes |
| Instructions | 5        |

```
      00 01 02 03 04 05 06 07  08 09 0A 0B 0C 0D 0E 0F
      -- -- -- -- -- -- -- --  -- -- -- -- -- -- -- --
0060:                             32 0B 80 1F 00 17 80           2......
0070: 18 80 19 80 1F 01 22 01  00                       ......"..       
```

#### Opcodes

```
  0: 0x0069 [0x32] ExtData[1]->MainSpeed = 13* * 0.1
  1: 0x006C [0x1F] MOVE_ENTITY: EventEntity moves to X=23.183*, Z=35.969*, Y=-22.649*
  2: 0x0074 [0x1F] MOVE_ENTITY: Update entity position (mode=1)
  3: 0x0076 [0x22] ENTITY_HIDE_FLAG(enabled=0x01)
  4: 0x0078 [0x00] END_REQSTACK()
```

### Event 65535.9

#### Metadata

| Field        | Value    |
|--------------|----------|
| Entrypoint   | 0x0079   |
| Data Size    | 10 bytes |
| Instructions | 2        |

```
      00 01 02 03 04 05 06 07  08 09 0A 0B 0C 0D 0E 0F
      -- -- -- -- -- -- -- --  -- -- -- -- -- -- -- --
0070:                             37 1A 80 1B 80 09 80           7......
0080: 1C 80 00                                          ...             
```

#### Opcodes

```
  0: 0x0079 [0x37] UPDATE_EVENT_POSITION_AND_DIR: x=0.428*, z=-8.051*, y=0.000*, direction=213.2°*
  1: 0x0082 [0x00] END_REQSTACK()
```

### Event 65535.10

#### Metadata

| Field        | Value    |
|--------------|----------|
| Entrypoint   | 0x0083   |
| Data Size    | 14 bytes |
| Instructions | 4        |

```
      00 01 02 03 04 05 06 07  08 09 0A 0B 0C 0D 0E 0F
      -- -- -- -- -- -- -- --  -- -- -- -- -- -- -- --
0080:          32 04 80 1F 00  1D 80 1E 80 09 80 1F 01     2............
0090: 00                                                .               
```

#### Opcodes

```
  0: 0x0083 [0x32] ExtData[1]->MainSpeed = 40* * 0.1
  1: 0x0086 [0x1F] MOVE_ENTITY: EventEntity moves to X=0.728*, Z=0.899*, Y=0.000*
  2: 0x008E [0x1F] MOVE_ENTITY: Update entity position (mode=1)
  3: 0x0090 [0x00] END_REQSTACK()
```

### Event 65535.11

#### Metadata

| Field        | Value    |
|--------------|----------|
| Entrypoint   | 0x0091   |
| Data Size    | 10 bytes |
| Instructions | 2        |

```
      00 01 02 03 04 05 06 07  08 09 0A 0B 0C 0D 0E 0F
      -- -- -- -- -- -- -- --  -- -- -- -- -- -- -- --
0090:    37 1F 80 20 80 16 80  21 80 00                  7.. ...!..     
```

#### Opcodes

```
  0: 0x0091 [0x37] UPDATE_EVENT_POSITION_AND_DIR: x=23.426*, z=32.146*, y=-22.148*, direction=290.0°*
  1: 0x009A [0x00] END_REQSTACK()
```

### Event 65535.12

#### Metadata

| Field        | Value    |
|--------------|----------|
| Entrypoint   | 0x009B   |
| Data Size    | 14 bytes |
| Instructions | 4        |

```
      00 01 02 03 04 05 06 07  08 09 0A 0B 0C 0D 0E 0F
      -- -- -- -- -- -- -- --  -- -- -- -- -- -- -- --
0090:                                   32 0B 80 1F 00             2....
00A0: 1D 80 09 80 09 80 1F 01  00                       .........       
```

#### Opcodes

```
  0: 0x009B [0x32] ExtData[1]->MainSpeed = 13* * 0.1
  1: 0x009E [0x1F] MOVE_ENTITY: EventEntity moves to X=0.728*, Z=0.000*, Y=0.000*
  2: 0x00A6 [0x1F] MOVE_ENTITY: Update entity position (mode=1)
  3: 0x00A8 [0x00] END_REQSTACK()
```

### Event 65535.13

#### Metadata

| Field        | Value    |
|--------------|----------|
| Entrypoint   | 0x00A9   |
| Data Size    | 14 bytes |
| Instructions | 4        |

```
      00 01 02 03 04 05 06 07  08 09 0A 0B 0C 0D 0E 0F
      -- -- -- -- -- -- -- --  -- -- -- -- -- -- -- --
00A0:                             32 04 80 1F 00 22 80           2....".
00B0: 23 80 02 80 1F 01 00                              #......         
```

#### Opcodes

```
  0: 0x00A9 [0x32] ExtData[1]->MainSpeed = 40* * 0.1
  1: 0x00AC [0x1F] MOVE_ENTITY: EventEntity moves to X=17.669*, Z=21.147*, Y=-22.000*
  2: 0x00B4 [0x1F] MOVE_ENTITY: Update entity position (mode=1)
  3: 0x00B6 [0x00] END_REQSTACK()
```

### Event 65535.14

#### Metadata

| Field        | Value    |
|--------------|----------|
| Entrypoint   | 0x00B7   |
| Data Size    | 45 bytes |
| Instructions | 7        |

```
      00 01 02 03 04 05 06 07  08 09 0A 0B 0C 0D 0E 0F
      -- -- -- -- -- -- -- --  -- -- -- -- -- -- -- --
00B0:                      32  04 80 1F 00 24 80 25 80         2....$.%.
00C0: 26 80 1F 01 1C 27 80 66  28 80 F8 FF FF 7F F8 FF  &....'.f(.......
00D0: FF 7F 73 68 61 30 53 F8  FF FF 7F F8 FF FF 7F 73  ..sha0S........s
00E0: 68 61 30 00                                       ha0.            
```

#### Opcodes

```
  0: 0x00B7 [0x32] ExtData[1]->MainSpeed = 40* * 0.1
  1: 0x00BA [0x1F] MOVE_ENTITY: EventEntity moves to X=0.475*, Z=1.098*, Y=-0.385*
  2: 0x00C2 [0x1F] MOVE_ENTITY: Update entity position (mode=1)
  3: 0x00C4 [0x1C] WAIT(20* ticks)
  4: 0x00C7 [0x66] LOAD_EXT_SCHEDULER_MAIN: Load scheduler "sha0" with entities [EventEntity, EventEntity], work=19*
  5: 0x00D6 [0x53] WAIT_SCHEDULER_TASK: Wait for scheduler "sha0" with entities [EventEntity, EventEntity]
  6: 0x00E3 [0x00] END_REQSTACK()
```

### Event 65535.15

#### Metadata

| Field        | Value    |
|--------------|----------|
| Entrypoint   | 0x00E4   |
| Data Size    | 16 bytes |
| Instructions | 2        |

```
      00 01 02 03 04 05 06 07  08 09 0A 0B 0C 0D 0E 0F
      -- -- -- -- -- -- -- --  -- -- -- -- -- -- -- --
00E0:             66 29 80 F8  FF FF 7F F8 FF FF 7F 74      f).........t
00F0: 6C 6B 30 00                                       lk0.            
```

#### Opcodes

```
  0: 0x00E4 [0x66] LOAD_EXT_SCHEDULER_MAIN: Load scheduler "tlk0" with entities [EventEntity, EventEntity], work=159*
  1: 0x00F3 [0x00] END_REQSTACK()
```

### Event 65535.16

#### Metadata

| Field        | Value    |
|--------------|----------|
| Entrypoint   | 0x00F4   |
| Data Size    | 14 bytes |
| Instructions | 2        |

```
      00 01 02 03 04 05 06 07  08 09 0A 0B 0C 0D 0E 0F
      -- -- -- -- -- -- -- --  -- -- -- -- -- -- -- --
00F0:             53 F8 FF FF  7F F8 FF FF 7F 74 6C 6B      S........tlk
0100: 30 00                                             0.              
```

#### Opcodes

```
  0: 0x00F4 [0x53] WAIT_SCHEDULER_TASK: Wait for scheduler "tlk0" with entities [EventEntity, EventEntity]
  1: 0x0101 [0x00] END_REQSTACK()
```

### Event 65535.17

#### Metadata

| Field        | Value    |
|--------------|----------|
| Entrypoint   | 0x0102   |
| Data Size    | 16 bytes |
| Instructions | 2        |

```
      00 01 02 03 04 05 06 07  08 09 0A 0B 0C 0D 0E 0F
      -- -- -- -- -- -- -- --  -- -- -- -- -- -- -- --
0100:       66 29 80 F8 FF FF  7F F8 FF FF 7F 74 6C 6B    f).........tlk
0110: 31 00                                             1.              
```

#### Opcodes

```
  0: 0x0102 [0x66] LOAD_EXT_SCHEDULER_MAIN: Load scheduler "tlk1" with entities [EventEntity, EventEntity], work=159*
  1: 0x0111 [0x00] END_REQSTACK()
```

### Event 65535.18

#### Metadata

| Field        | Value    |
|--------------|----------|
| Entrypoint   | 0x0112   |
| Data Size    | 14 bytes |
| Instructions | 2        |

```
      00 01 02 03 04 05 06 07  08 09 0A 0B 0C 0D 0E 0F
      -- -- -- -- -- -- -- --  -- -- -- -- -- -- -- --
0110:       53 F8 FF FF 7F F8  FF FF 7F 74 6C 6B 31 00    S........tlk1.
```

#### Opcodes

```
  0: 0x0112 [0x53] WAIT_SCHEDULER_TASK: Wait for scheduler "tlk1" with entities [EventEntity, EventEntity]
  1: 0x011F [0x00] END_REQSTACK()
```

### Event 65535.19

#### Metadata

| Field        | Value    |
|--------------|----------|
| Entrypoint   | 0x0120   |
| Data Size    | 57 bytes |
| Instructions | 5        |

```
      00 01 02 03 04 05 06 07  08 09 0A 0B 0C 0D 0E 0F
      -- -- -- -- -- -- -- --  -- -- -- -- -- -- -- --
0120: 66 29 80 F8 FF FF 7F F8  FF FF 7F 74 6C 6B 30 53  f).........tlk0S
0130: F8 FF FF 7F F8 FF FF 7F  74 6C 6B 30 66 29 80 F8  ........tlk0f)..
0140: FF FF 7F F8 FF FF 7F 74  6C 6B 31 53 F8 FF FF 7F  .......tlk1S....
0150: F8 FF FF 7F 74 6C 6B 31  00                       ....tlk1.       
```

#### Opcodes

```
  0: 0x0120 [0x66] LOAD_EXT_SCHEDULER_MAIN: Load scheduler "tlk0" with entities [EventEntity, EventEntity], work=159*
  1: 0x012F [0x53] WAIT_SCHEDULER_TASK: Wait for scheduler "tlk0" with entities [EventEntity, EventEntity]
  2: 0x013C [0x66] LOAD_EXT_SCHEDULER_MAIN: Load scheduler "tlk1" with entities [EventEntity, EventEntity], work=159*
  3: 0x014B [0x53] WAIT_SCHEDULER_TASK: Wait for scheduler "tlk1" with entities [EventEntity, EventEntity]
  4: 0x0158 [0x00] END_REQSTACK()
```

### Event 65535.20

#### Metadata

| Field        | Value    |
|--------------|----------|
| Entrypoint   | 0x0159   |
| Data Size    | 16 bytes |
| Instructions | 2        |

```
      00 01 02 03 04 05 06 07  08 09 0A 0B 0C 0D 0E 0F
      -- -- -- -- -- -- -- --  -- -- -- -- -- -- -- --
0150:                             66 29 80 F8 FF FF 7F           f).....
0160: F8 FF FF 7F 70 6E 74 30  00                       ....pnt0.       
```

#### Opcodes

```
  0: 0x0159 [0x66] LOAD_EXT_SCHEDULER_MAIN: Load scheduler "pnt0" with entities [EventEntity, EventEntity], work=159*
  1: 0x0168 [0x00] END_REQSTACK()
```

### Event 65535.21

#### Metadata

| Field        | Value    |
|--------------|----------|
| Entrypoint   | 0x0169   |
| Data Size    | 14 bytes |
| Instructions | 2        |

```
      00 01 02 03 04 05 06 07  08 09 0A 0B 0C 0D 0E 0F
      -- -- -- -- -- -- -- --  -- -- -- -- -- -- -- --
0160:                             53 F8 FF FF 7F F8 FF           S......
0170: FF 7F 70 6E 74 30 00                              ..pnt0.         
```

#### Opcodes

```
  0: 0x0169 [0x53] WAIT_SCHEDULER_TASK: Wait for scheduler "pnt0" with entities [EventEntity, EventEntity]
  1: 0x0176 [0x00] END_REQSTACK()
```

### Event 65535.22

#### Metadata

| Field        | Value    |
|--------------|----------|
| Entrypoint   | 0x0177   |
| Data Size    | 16 bytes |
| Instructions | 2        |

```
      00 01 02 03 04 05 06 07  08 09 0A 0B 0C 0D 0E 0F
      -- -- -- -- -- -- -- --  -- -- -- -- -- -- -- --
0170:                      66  29 80 F8 FF FF 7F F8 FF         f).......
0180: FF 7F 70 6E 74 31 00                              ..pnt1.         
```

#### Opcodes

```
  0: 0x0177 [0x66] LOAD_EXT_SCHEDULER_MAIN: Load scheduler "pnt1" with entities [EventEntity, EventEntity], work=159*
  1: 0x0186 [0x00] END_REQSTACK()
```

### Event 65535.23

#### Metadata

| Field        | Value    |
|--------------|----------|
| Entrypoint   | 0x0187   |
| Data Size    | 14 bytes |
| Instructions | 2        |

```
      00 01 02 03 04 05 06 07  08 09 0A 0B 0C 0D 0E 0F
      -- -- -- -- -- -- -- --  -- -- -- -- -- -- -- --
0180:                      53  F8 FF FF 7F F8 FF FF 7F         S........
0190: 70 6E 74 31 00                                    pnt1.           
```

#### Opcodes

```
  0: 0x0187 [0x53] WAIT_SCHEDULER_TASK: Wait for scheduler "pnt1" with entities [EventEntity, EventEntity]
  1: 0x0194 [0x00] END_REQSTACK()
```

### Event 65535.24

#### Metadata

| Field        | Value    |
|--------------|----------|
| Entrypoint   | 0x0195   |
| Data Size    | 16 bytes |
| Instructions | 2        |

```
      00 01 02 03 04 05 06 07  08 09 0A 0B 0C 0D 0E 0F
      -- -- -- -- -- -- -- --  -- -- -- -- -- -- -- --
0190:                66 2A 80  F8 FF FF 7F F8 FF FF 7F       f*.........
01A0: 74 6C 61 30 00                                    tla0.           
```

#### Opcodes

```
  0: 0x0195 [0x66] LOAD_EXT_SCHEDULER_MAIN: Load scheduler "tla0" with entities [EventEntity, EventEntity], work=158*
  1: 0x01A4 [0x00] END_REQSTACK()
```

### Event 65535.25

#### Metadata

| Field        | Value    |
|--------------|----------|
| Entrypoint   | 0x01A5   |
| Data Size    | 14 bytes |
| Instructions | 2        |

```
      00 01 02 03 04 05 06 07  08 09 0A 0B 0C 0D 0E 0F
      -- -- -- -- -- -- -- --  -- -- -- -- -- -- -- --
01A0:                53 F8 FF  FF 7F F8 FF FF 7F 74 6C       S........tl
01B0: 61 30 00                                          a0.             
```

#### Opcodes

```
  0: 0x01A5 [0x53] WAIT_SCHEDULER_TASK: Wait for scheduler "tla0" with entities [EventEntity, EventEntity]
  1: 0x01B2 [0x00] END_REQSTACK()
```

### Event 65535.26

#### Metadata

| Field        | Value    |
|--------------|----------|
| Entrypoint   | 0x01B3   |
| Data Size    | 16 bytes |
| Instructions | 2        |

```
      00 01 02 03 04 05 06 07  08 09 0A 0B 0C 0D 0E 0F
      -- -- -- -- -- -- -- --  -- -- -- -- -- -- -- --
01B0:          66 2A 80 F8 FF  FF 7F F8 FF FF 7F 74 6C     f*.........tl
01C0: 61 31 00                                          a1.             
```

#### Opcodes

```
  0: 0x01B3 [0x66] LOAD_EXT_SCHEDULER_MAIN: Load scheduler "tla1" with entities [EventEntity, EventEntity], work=158*
  1: 0x01C2 [0x00] END_REQSTACK()
```

### Event 65535.27

#### Metadata

| Field        | Value    |
|--------------|----------|
| Entrypoint   | 0x01C3   |
| Data Size    | 14 bytes |
| Instructions | 2        |

```
      00 01 02 03 04 05 06 07  08 09 0A 0B 0C 0D 0E 0F
      -- -- -- -- -- -- -- --  -- -- -- -- -- -- -- --
01C0:          53 F8 FF FF 7F  F8 FF FF 7F 74 6C 61 31     S........tla1
01D0: 00                                                .               
```

#### Opcodes

```
  0: 0x01C3 [0x53] WAIT_SCHEDULER_TASK: Wait for scheduler "tla1" with entities [EventEntity, EventEntity]
  1: 0x01D0 [0x00] END_REQSTACK()
```

### Event 65535.28

#### Metadata

| Field        | Value    |
|--------------|----------|
| Entrypoint   | 0x01D1   |
| Data Size    | 16 bytes |
| Instructions | 2        |

```
      00 01 02 03 04 05 06 07  08 09 0A 0B 0C 0D 0E 0F
      -- -- -- -- -- -- -- --  -- -- -- -- -- -- -- --
01D0:    66 2A 80 F8 FF FF 7F  F8 FF FF 7F 74 6C 61 32   f*.........tla2
01E0: 00                                                .               
```

#### Opcodes

```
  0: 0x01D1 [0x66] LOAD_EXT_SCHEDULER_MAIN: Load scheduler "tla2" with entities [EventEntity, EventEntity], work=158*
  1: 0x01E0 [0x00] END_REQSTACK()
```

### Event 65535.29

#### Metadata

| Field        | Value    |
|--------------|----------|
| Entrypoint   | 0x01E1   |
| Data Size    | 14 bytes |
| Instructions | 2        |

```
      00 01 02 03 04 05 06 07  08 09 0A 0B 0C 0D 0E 0F
      -- -- -- -- -- -- -- --  -- -- -- -- -- -- -- --
01E0:    53 F8 FF FF 7F F8 FF  FF 7F 74 6C 61 32 00      S........tla2. 
```

#### Opcodes

```
  0: 0x01E1 [0x53] WAIT_SCHEDULER_TASK: Wait for scheduler "tla2" with entities [EventEntity, EventEntity]
  1: 0x01EE [0x00] END_REQSTACK()
```

### Event 65535.30

#### Metadata

| Field        | Value    |
|--------------|----------|
| Entrypoint   | 0x01EF   |
| Data Size    | 16 bytes |
| Instructions | 2        |

```
      00 01 02 03 04 05 06 07  08 09 0A 0B 0C 0D 0E 0F
      -- -- -- -- -- -- -- --  -- -- -- -- -- -- -- --
01E0:                                               66                 f
01F0: 2A 80 F8 FF FF 7F F8 FF  FF 7F 74 6C 6B 30 00     *.........tlk0. 
```

#### Opcodes

```
  0: 0x01EF [0x66] LOAD_EXT_SCHEDULER_MAIN: Load scheduler "tlk0" with entities [EventEntity, EventEntity], work=158*
  1: 0x01FE [0x00] END_REQSTACK()
```

### Event 65535.31

#### Metadata

| Field        | Value    |
|--------------|----------|
| Entrypoint   | 0x01FF   |
| Data Size    | 14 bytes |
| Instructions | 2        |

```
      00 01 02 03 04 05 06 07  08 09 0A 0B 0C 0D 0E 0F
      -- -- -- -- -- -- -- --  -- -- -- -- -- -- -- --
01F0:                                               53                 S
0200: F8 FF FF 7F F8 FF FF 7F  74 6C 6B 30 00           ........tlk0.   
```

#### Opcodes

```
  0: 0x01FF [0x53] WAIT_SCHEDULER_TASK: Wait for scheduler "tlk0" with entities [EventEntity, EventEntity]
  1: 0x020C [0x00] END_REQSTACK()
```

### Event 65535.32

#### Metadata

| Field        | Value    |
|--------------|----------|
| Entrypoint   | 0x020D   |
| Data Size    | 16 bytes |
| Instructions | 2        |

```
      00 01 02 03 04 05 06 07  08 09 0A 0B 0C 0D 0E 0F
      -- -- -- -- -- -- -- --  -- -- -- -- -- -- -- --
0200:                                         66 2A 80               f*.
0210: F8 FF FF 7F F8 FF FF 7F  74 6C 6B 31 00           ........tlk1.   
```

#### Opcodes

```
  0: 0x020D [0x66] LOAD_EXT_SCHEDULER_MAIN: Load scheduler "tlk1" with entities [EventEntity, EventEntity], work=158*
  1: 0x021C [0x00] END_REQSTACK()
```

### Event 65535.33

#### Metadata

| Field        | Value    |
|--------------|----------|
| Entrypoint   | 0x021D   |
| Data Size    | 14 bytes |
| Instructions | 2        |

```
      00 01 02 03 04 05 06 07  08 09 0A 0B 0C 0D 0E 0F
      -- -- -- -- -- -- -- --  -- -- -- -- -- -- -- --
0210:                                         53 F8 FF               S..
0220: FF 7F F8 FF FF 7F 74 6C  6B 31 00                 ......tlk1.     
```

#### Opcodes

```
  0: 0x021D [0x53] WAIT_SCHEDULER_TASK: Wait for scheduler "tlk1" with entities [EventEntity, EventEntity]
  1: 0x022A [0x00] END_REQSTACK()
```

### Event 65535.34

#### Metadata

| Field        | Value    |
|--------------|----------|
| Entrypoint   | 0x022B   |
| Data Size    | 16 bytes |
| Instructions | 2        |

```
      00 01 02 03 04 05 06 07  08 09 0A 0B 0C 0D 0E 0F
      -- -- -- -- -- -- -- --  -- -- -- -- -- -- -- --
0220:                                   66 2A 80 F8 FF             f*...
0230: FF 7F F8 FF FF 7F 74 6C  6B 32 00                 ......tlk2.     
```

#### Opcodes

```
  0: 0x022B [0x66] LOAD_EXT_SCHEDULER_MAIN: Load scheduler "tlk2" with entities [EventEntity, EventEntity], work=158*
  1: 0x023A [0x00] END_REQSTACK()
```

### Event 65535.35

#### Metadata

| Field        | Value    |
|--------------|----------|
| Entrypoint   | 0x023B   |
| Data Size    | 14 bytes |
| Instructions | 2        |

```
      00 01 02 03 04 05 06 07  08 09 0A 0B 0C 0D 0E 0F
      -- -- -- -- -- -- -- --  -- -- -- -- -- -- -- --
0230:                                   53 F8 FF FF 7F             S....
0240: F8 FF FF 7F 74 6C 6B 32  00                       ....tlk2.       
```

#### Opcodes

```
  0: 0x023B [0x53] WAIT_SCHEDULER_TASK: Wait for scheduler "tlk2" with entities [EventEntity, EventEntity]
  1: 0x0248 [0x00] END_REQSTACK()
```

### Event 65535.36

#### Metadata

| Field        | Value    |
|--------------|----------|
| Entrypoint   | 0x0249   |
| Data Size    | 16 bytes |
| Instructions | 2        |

```
      00 01 02 03 04 05 06 07  08 09 0A 0B 0C 0D 0E 0F
      -- -- -- -- -- -- -- --  -- -- -- -- -- -- -- --
0240:                             66 2B 80 F8 FF FF 7F           f+.....
0250: F8 FF FF 7F 70 61 73 30  00                       ....pas0.       
```

#### Opcodes

```
  0: 0x0249 [0x66] LOAD_EXT_SCHEDULER_MAIN: Load scheduler "pas0" with entities [EventEntity, EventEntity], work=81*
  1: 0x0258 [0x00] END_REQSTACK()
```

### Event 65535.37

#### Metadata

| Field        | Value    |
|--------------|----------|
| Entrypoint   | 0x0259   |
| Data Size    | 14 bytes |
| Instructions | 2        |

```
      00 01 02 03 04 05 06 07  08 09 0A 0B 0C 0D 0E 0F
      -- -- -- -- -- -- -- --  -- -- -- -- -- -- -- --
0250:                             53 F8 FF FF 7F F8 FF           S......
0260: FF 7F 70 61 73 30 00                              ..pas0.         
```

#### Opcodes

```
  0: 0x0259 [0x53] WAIT_SCHEDULER_TASK: Wait for scheduler "pas0" with entities [EventEntity, EventEntity]
  1: 0x0266 [0x00] END_REQSTACK()
```

### Event 65535.38

#### Metadata

| Field        | Value    |
|--------------|----------|
| Entrypoint   | 0x0267   |
| Data Size    | 16 bytes |
| Instructions | 2        |

```
      00 01 02 03 04 05 06 07  08 09 0A 0B 0C 0D 0E 0F
      -- -- -- -- -- -- -- --  -- -- -- -- -- -- -- --
0260:                      66  2C 80 F8 FF FF 7F F8 FF         f,.......
0270: FF 7F 73 69 6E 30 00                              ..sin0.         
```

#### Opcodes

```
  0: 0x0267 [0x66] LOAD_EXT_SCHEDULER_MAIN: Load scheduler "sin0" with entities [EventEntity, EventEntity], work=88*
  1: 0x0276 [0x00] END_REQSTACK()
```

### Event 65535.39

#### Metadata

| Field        | Value    |
|--------------|----------|
| Entrypoint   | 0x0277   |
| Data Size    | 14 bytes |
| Instructions | 2        |

```
      00 01 02 03 04 05 06 07  08 09 0A 0B 0C 0D 0E 0F
      -- -- -- -- -- -- -- --  -- -- -- -- -- -- -- --
0270:                      53  F8 FF FF 7F F8 FF FF 7F         S........
0280: 73 69 6E 30 00                                    sin0.           
```

#### Opcodes

```
  0: 0x0277 [0x53] WAIT_SCHEDULER_TASK: Wait for scheduler "sin0" with entities [EventEntity, EventEntity]
  1: 0x0284 [0x00] END_REQSTACK()
```

### Event 65535.40

#### Metadata

| Field        | Value    |
|--------------|----------|
| Entrypoint   | 0x0285   |
| Data Size    | 16 bytes |
| Instructions | 2        |

```
      00 01 02 03 04 05 06 07  08 09 0A 0B 0C 0D 0E 0F
      -- -- -- -- -- -- -- --  -- -- -- -- -- -- -- --
0280:                66 2C 80  F8 FF FF 7F F8 FF FF 7F       f,.........
0290: 73 69 6E 31 00                                    sin1.           
```

#### Opcodes

```
  0: 0x0285 [0x66] LOAD_EXT_SCHEDULER_MAIN: Load scheduler "sin1" with entities [EventEntity, EventEntity], work=88*
  1: 0x0294 [0x00] END_REQSTACK()
```

### Event 65535.41

#### Metadata

| Field        | Value    |
|--------------|----------|
| Entrypoint   | 0x0295   |
| Data Size    | 14 bytes |
| Instructions | 2        |

```
      00 01 02 03 04 05 06 07  08 09 0A 0B 0C 0D 0E 0F
      -- -- -- -- -- -- -- --  -- -- -- -- -- -- -- --
0290:                53 F8 FF  FF 7F F8 FF FF 7F 73 69       S........si
02A0: 6E 31 00                                          n1.             
```

#### Opcodes

```
  0: 0x0295 [0x53] WAIT_SCHEDULER_TASK: Wait for scheduler "sin1" with entities [EventEntity, EventEntity]
  1: 0x02A2 [0x00] END_REQSTACK()
```

### Event 65535.42

#### Metadata

| Field        | Value    |
|--------------|----------|
| Entrypoint   | 0x02A3   |
| Data Size    | 16 bytes |
| Instructions | 2        |

```
      00 01 02 03 04 05 06 07  08 09 0A 0B 0C 0D 0E 0F
      -- -- -- -- -- -- -- --  -- -- -- -- -- -- -- --
02A0:          66 2C 80 F8 FF  FF 7F F8 FF FF 7F 73 69     f,.........si
02B0: 61 30 00                                          a0.             
```

#### Opcodes

```
  0: 0x02A3 [0x66] LOAD_EXT_SCHEDULER_MAIN: Load scheduler "sia0" with entities [EventEntity, EventEntity], work=88*
  1: 0x02B2 [0x00] END_REQSTACK()
```

### Event 65535.43

#### Metadata

| Field        | Value    |
|--------------|----------|
| Entrypoint   | 0x02B3   |
| Data Size    | 14 bytes |
| Instructions | 2        |

```
      00 01 02 03 04 05 06 07  08 09 0A 0B 0C 0D 0E 0F
      -- -- -- -- -- -- -- --  -- -- -- -- -- -- -- --
02B0:          53 F8 FF FF 7F  F8 FF FF 7F 73 69 61 30     S........sia0
02C0: 00                                                .               
```

#### Opcodes

```
  0: 0x02B3 [0x53] WAIT_SCHEDULER_TASK: Wait for scheduler "sia0" with entities [EventEntity, EventEntity]
  1: 0x02C0 [0x00] END_REQSTACK()
```

### Event 65535.44

#### Metadata

| Field        | Value    |
|--------------|----------|
| Entrypoint   | 0x02C1   |
| Data Size    | 16 bytes |
| Instructions | 2        |

```
      00 01 02 03 04 05 06 07  08 09 0A 0B 0C 0D 0E 0F
      -- -- -- -- -- -- -- --  -- -- -- -- -- -- -- --
02C0:    66 2C 80 F8 FF FF 7F  F8 FF FF 7F 73 69 61 31   f,.........sia1
02D0: 00                                                .               
```

#### Opcodes

```
  0: 0x02C1 [0x66] LOAD_EXT_SCHEDULER_MAIN: Load scheduler "sia1" with entities [EventEntity, EventEntity], work=88*
  1: 0x02D0 [0x00] END_REQSTACK()
```

### Event 65535.45

#### Metadata

| Field        | Value    |
|--------------|----------|
| Entrypoint   | 0x02D1   |
| Data Size    | 14 bytes |
| Instructions | 2        |

```
      00 01 02 03 04 05 06 07  08 09 0A 0B 0C 0D 0E 0F
      -- -- -- -- -- -- -- --  -- -- -- -- -- -- -- --
02D0:    53 F8 FF FF 7F F8 FF  FF 7F 73 69 61 31 00      S........sia1. 
```

#### Opcodes

```
  0: 0x02D1 [0x53] WAIT_SCHEDULER_TASK: Wait for scheduler "sia1" with entities [EventEntity, EventEntity]
  1: 0x02DE [0x00] END_REQSTACK()
```

### Event 65535.46

#### Metadata

| Field        | Value    |
|--------------|----------|
| Entrypoint   | 0x02DF   |
| Data Size    | 16 bytes |
| Instructions | 2        |

```
      00 01 02 03 04 05 06 07  08 09 0A 0B 0C 0D 0E 0F
      -- -- -- -- -- -- -- --  -- -- -- -- -- -- -- --
02D0:                                               66                 f
02E0: 2C 80 F8 FF FF 7F F8 FF  FF 7F 73 69 62 30 00     ,.........sib0. 
```

#### Opcodes

```
  0: 0x02DF [0x66] LOAD_EXT_SCHEDULER_MAIN: Load scheduler "sib0" with entities [EventEntity, EventEntity], work=88*
  1: 0x02EE [0x00] END_REQSTACK()
```

### Event 65535.47

#### Metadata

| Field        | Value    |
|--------------|----------|
| Entrypoint   | 0x02EF   |
| Data Size    | 14 bytes |
| Instructions | 2        |

```
      00 01 02 03 04 05 06 07  08 09 0A 0B 0C 0D 0E 0F
      -- -- -- -- -- -- -- --  -- -- -- -- -- -- -- --
02E0:                                               53                 S
02F0: F8 FF FF 7F F8 FF FF 7F  73 69 62 30 00           ........sib0.   
```

#### Opcodes

```
  0: 0x02EF [0x53] WAIT_SCHEDULER_TASK: Wait for scheduler "sib0" with entities [EventEntity, EventEntity]
  1: 0x02FC [0x00] END_REQSTACK()
```

### Event 65535.48

#### Metadata

| Field        | Value    |
|--------------|----------|
| Entrypoint   | 0x02FD   |
| Data Size    | 16 bytes |
| Instructions | 2        |

```
      00 01 02 03 04 05 06 07  08 09 0A 0B 0C 0D 0E 0F
      -- -- -- -- -- -- -- --  -- -- -- -- -- -- -- --
02F0:                                         66 2D 80               f-.
0300: F8 FF FF 7F F8 FF FF 7F  6F 6F 75 30 00           ........oou0.   
```

#### Opcodes

```
  0: 0x02FD [0x66] LOAD_EXT_SCHEDULER_MAIN: Load scheduler "oou0" with entities [EventEntity, EventEntity], work=151*
  1: 0x030C [0x00] END_REQSTACK()
```

### Event 65535.49

#### Metadata

| Field        | Value    |
|--------------|----------|
| Entrypoint   | 0x030D   |
| Data Size    | 14 bytes |
| Instructions | 2        |

```
      00 01 02 03 04 05 06 07  08 09 0A 0B 0C 0D 0E 0F
      -- -- -- -- -- -- -- --  -- -- -- -- -- -- -- --
0300:                                         53 F8 FF               S..
0310: FF 7F F8 FF FF 7F 6F 6F  75 30 00                 ......oou0.     
```

#### Opcodes

```
  0: 0x030D [0x53] WAIT_SCHEDULER_TASK: Wait for scheduler "oou0" with entities [EventEntity, EventEntity]
  1: 0x031A [0x00] END_REQSTACK()
```

### Event 65535.50

#### Metadata

| Field        | Value    |
|--------------|----------|
| Entrypoint   | 0x031B   |
| Data Size    | 16 bytes |
| Instructions | 2        |

```
      00 01 02 03 04 05 06 07  08 09 0A 0B 0C 0D 0E 0F
      -- -- -- -- -- -- -- --  -- -- -- -- -- -- -- --
0310:                                   66 2D 80 F8 FF             f-...
0320: FF 7F F8 FF FF 7F 6F 6F  75 31 00                 ......oou1.     
```

#### Opcodes

```
  0: 0x031B [0x66] LOAD_EXT_SCHEDULER_MAIN: Load scheduler "oou1" with entities [EventEntity, EventEntity], work=151*
  1: 0x032A [0x00] END_REQSTACK()
```

### Event 65535.51

#### Metadata

| Field        | Value    |
|--------------|----------|
| Entrypoint   | 0x032B   |
| Data Size    | 14 bytes |
| Instructions | 2        |

```
      00 01 02 03 04 05 06 07  08 09 0A 0B 0C 0D 0E 0F
      -- -- -- -- -- -- -- --  -- -- -- -- -- -- -- --
0320:                                   53 F8 FF FF 7F             S....
0330: F8 FF FF 7F 6F 6F 75 31  00                       ....oou1.       
```

#### Opcodes

```
  0: 0x032B [0x53] WAIT_SCHEDULER_TASK: Wait for scheduler "oou1" with entities [EventEntity, EventEntity]
  1: 0x0338 [0x00] END_REQSTACK()
```

### Event 65535.52

#### Metadata

| Field        | Value    |
|--------------|----------|
| Entrypoint   | 0x0339   |
| Data Size    | 16 bytes |
| Instructions | 2        |

```
      00 01 02 03 04 05 06 07  08 09 0A 0B 0C 0D 0E 0F
      -- -- -- -- -- -- -- --  -- -- -- -- -- -- -- --
0330:                             66 2D 80 F8 FF FF 7F           f-.....
0340: F8 FF FF 7F 6F 6F 75 32  00                       ....oou2.       
```

#### Opcodes

```
  0: 0x0339 [0x66] LOAD_EXT_SCHEDULER_MAIN: Load scheduler "oou2" with entities [EventEntity, EventEntity], work=151*
  1: 0x0348 [0x00] END_REQSTACK()
```

### Event 65535.53

#### Metadata

| Field        | Value    |
|--------------|----------|
| Entrypoint   | 0x0349   |
| Data Size    | 14 bytes |
| Instructions | 2        |

```
      00 01 02 03 04 05 06 07  08 09 0A 0B 0C 0D 0E 0F
      -- -- -- -- -- -- -- --  -- -- -- -- -- -- -- --
0340:                             53 F8 FF FF 7F F8 FF           S......
0350: FF 7F 6F 6F 75 32 00                              ..oou2.         
```

#### Opcodes

```
  0: 0x0349 [0x53] WAIT_SCHEDULER_TASK: Wait for scheduler "oou2" with entities [EventEntity, EventEntity]
  1: 0x0356 [0x00] END_REQSTACK()
```

### Event 65535.54

#### Metadata

| Field        | Value    |
|--------------|----------|
| Entrypoint   | 0x0357   |
| Data Size    | 16 bytes |
| Instructions | 2        |

```
      00 01 02 03 04 05 06 07  08 09 0A 0B 0C 0D 0E 0F
      -- -- -- -- -- -- -- --  -- -- -- -- -- -- -- --
0350:                      66  28 80 F8 FF FF 7F F8 FF         f(.......
0360: FF 7F 73 68 61 30 00                              ..sha0.         
```

#### Opcodes

```
  0: 0x0357 [0x66] LOAD_EXT_SCHEDULER_MAIN: Load scheduler "sha0" with entities [EventEntity, EventEntity], work=19*
  1: 0x0366 [0x00] END_REQSTACK()
```

### Event 65535.55

#### Metadata

| Field        | Value    |
|--------------|----------|
| Entrypoint   | 0x0367   |
| Data Size    | 14 bytes |
| Instructions | 2        |

```
      00 01 02 03 04 05 06 07  08 09 0A 0B 0C 0D 0E 0F
      -- -- -- -- -- -- -- --  -- -- -- -- -- -- -- --
0360:                      53  F8 FF FF 7F F8 FF FF 7F         S........
0370: 73 68 61 30 00                                    sha0.           
```

#### Opcodes

```
  0: 0x0367 [0x53] WAIT_SCHEDULER_TASK: Wait for scheduler "sha0" with entities [EventEntity, EventEntity]
  1: 0x0374 [0x00] END_REQSTACK()
```

### Event 65535.56

#### Metadata

| Field        | Value    |
|--------------|----------|
| Entrypoint   | 0x0375   |
| Data Size    | 16 bytes |
| Instructions | 2        |

```
      00 01 02 03 04 05 06 07  08 09 0A 0B 0C 0D 0E 0F
      -- -- -- -- -- -- -- --  -- -- -- -- -- -- -- --
0370:                66 28 80  F8 FF FF 7F F8 FF FF 7F       f(.........
0380: 73 68 61 31 00                                    sha1.           
```

#### Opcodes

```
  0: 0x0375 [0x66] LOAD_EXT_SCHEDULER_MAIN: Load scheduler "sha1" with entities [EventEntity, EventEntity], work=19*
  1: 0x0384 [0x00] END_REQSTACK()
```

### Event 65535.57

#### Metadata

| Field        | Value    |
|--------------|----------|
| Entrypoint   | 0x0385   |
| Data Size    | 14 bytes |
| Instructions | 2        |

```
      00 01 02 03 04 05 06 07  08 09 0A 0B 0C 0D 0E 0F
      -- -- -- -- -- -- -- --  -- -- -- -- -- -- -- --
0380:                53 F8 FF  FF 7F F8 FF FF 7F 73 68       S........sh
0390: 61 31 00                                          a1.             
```

#### Opcodes

```
  0: 0x0385 [0x53] WAIT_SCHEDULER_TASK: Wait for scheduler "sha1" with entities [EventEntity, EventEntity]
  1: 0x0392 [0x00] END_REQSTACK()
```

### Event 65535.58

#### Metadata

| Field        | Value    |
|--------------|----------|
| Entrypoint   | 0x0393   |
| Data Size    | 16 bytes |
| Instructions | 2        |

```
      00 01 02 03 04 05 06 07  08 09 0A 0B 0C 0D 0E 0F
      -- -- -- -- -- -- -- --  -- -- -- -- -- -- -- --
0390:          66 28 80 F8 FF  FF 7F F8 FF FF 7F 74 68     f(.........th
03A0: 73 31 00                                          s1.             
```

#### Opcodes

```
  0: 0x0393 [0x66] LOAD_EXT_SCHEDULER_MAIN: Load scheduler "ths1" with entities [EventEntity, EventEntity], work=19*
  1: 0x03A2 [0x00] END_REQSTACK()
```

### Event 65535.59

#### Metadata

| Field        | Value    |
|--------------|----------|
| Entrypoint   | 0x03A3   |
| Data Size    | 14 bytes |
| Instructions | 2        |

```
      00 01 02 03 04 05 06 07  08 09 0A 0B 0C 0D 0E 0F
      -- -- -- -- -- -- -- --  -- -- -- -- -- -- -- --
03A0:          53 F8 FF FF 7F  F8 FF FF 7F 74 68 73 31     S........ths1
03B0: 00                                                .               
```

#### Opcodes

```
  0: 0x03A3 [0x53] WAIT_SCHEDULER_TASK: Wait for scheduler "ths1" with entities [EventEntity, EventEntity]
  1: 0x03B0 [0x00] END_REQSTACK()
```

### Event 65535.60

#### Metadata

| Field        | Value    |
|--------------|----------|
| Entrypoint   | 0x03B1   |
| Data Size    | 16 bytes |
| Instructions | 2        |

```
      00 01 02 03 04 05 06 07  08 09 0A 0B 0C 0D 0E 0F
      -- -- -- -- -- -- -- --  -- -- -- -- -- -- -- --
03B0:    66 28 80 F8 FF FF 7F  F8 FF FF 7F 74 68 73 32   f(.........ths2
03C0: 00                                                .               
```

#### Opcodes

```
  0: 0x03B1 [0x66] LOAD_EXT_SCHEDULER_MAIN: Load scheduler "ths2" with entities [EventEntity, EventEntity], work=19*
  1: 0x03C0 [0x00] END_REQSTACK()
```

### Event 65535.61

#### Metadata

| Field        | Value    |
|--------------|----------|
| Entrypoint   | 0x03C1   |
| Data Size    | 14 bytes |
| Instructions | 2        |

```
      00 01 02 03 04 05 06 07  08 09 0A 0B 0C 0D 0E 0F
      -- -- -- -- -- -- -- --  -- -- -- -- -- -- -- --
03C0:    53 F8 FF FF 7F F8 FF  FF 7F 74 68 73 32 00      S........ths2. 
```

#### Opcodes

```
  0: 0x03C1 [0x53] WAIT_SCHEDULER_TASK: Wait for scheduler "ths2" with entities [EventEntity, EventEntity]
  1: 0x03CE [0x00] END_REQSTACK()
```

### Event 65535.62

#### Metadata

| Field        | Value    |
|--------------|----------|
| Entrypoint   | 0x03CF   |
| Data Size    | 16 bytes |
| Instructions | 2        |

```
      00 01 02 03 04 05 06 07  08 09 0A 0B 0C 0D 0E 0F
      -- -- -- -- -- -- -- --  -- -- -- -- -- -- -- --
03C0:                                               66                 f
03D0: 2E 80 F8 FF FF 7F F8 FF  FF 7F 63 72 79 30 00     ..........cry0. 
```

#### Opcodes

```
  0: 0x03CF [0x66] LOAD_EXT_SCHEDULER_MAIN: Load scheduler "cry0" with entities [EventEntity, EventEntity], work=157*
  1: 0x03DE [0x00] END_REQSTACK()
```

### Event 65535.63

#### Metadata

| Field        | Value    |
|--------------|----------|
| Entrypoint   | 0x03DF   |
| Data Size    | 14 bytes |
| Instructions | 2        |

```
      00 01 02 03 04 05 06 07  08 09 0A 0B 0C 0D 0E 0F
      -- -- -- -- -- -- -- --  -- -- -- -- -- -- -- --
03D0:                                               53                 S
03E0: F8 FF FF 7F F8 FF FF 7F  63 72 79 30 00           ........cry0.   
```

#### Opcodes

```
  0: 0x03DF [0x53] WAIT_SCHEDULER_TASK: Wait for scheduler "cry0" with entities [EventEntity, EventEntity]
  1: 0x03EC [0x00] END_REQSTACK()
```

### Event 65535.64

#### Metadata

| Field        | Value    |
|--------------|----------|
| Entrypoint   | 0x03ED   |
| Data Size    | 16 bytes |
| Instructions | 2        |

```
      00 01 02 03 04 05 06 07  08 09 0A 0B 0C 0D 0E 0F
      -- -- -- -- -- -- -- --  -- -- -- -- -- -- -- --
03E0:                                         66 2E 80               f..
03F0: F8 FF FF 7F F8 FF FF 7F  63 72 79 31 00           ........cry1.   
```

#### Opcodes

```
  0: 0x03ED [0x66] LOAD_EXT_SCHEDULER_MAIN: Load scheduler "cry1" with entities [EventEntity, EventEntity], work=157*
  1: 0x03FC [0x00] END_REQSTACK()
```

### Event 65535.65

#### Metadata

| Field        | Value    |
|--------------|----------|
| Entrypoint   | 0x03FD   |
| Data Size    | 14 bytes |
| Instructions | 2        |

```
      00 01 02 03 04 05 06 07  08 09 0A 0B 0C 0D 0E 0F
      -- -- -- -- -- -- -- --  -- -- -- -- -- -- -- --
03F0:                                         53 F8 FF               S..
0400: FF 7F F8 FF FF 7F 63 72  79 31 00                 ......cry1.     
```

#### Opcodes

```
  0: 0x03FD [0x53] WAIT_SCHEDULER_TASK: Wait for scheduler "cry1" with entities [EventEntity, EventEntity]
  1: 0x040A [0x00] END_REQSTACK()
```

### Event 65535.66

#### Metadata

| Field        | Value    |
|--------------|----------|
| Entrypoint   | 0x040B   |
| Data Size    | 16 bytes |
| Instructions | 2        |

```
      00 01 02 03 04 05 06 07  08 09 0A 0B 0C 0D 0E 0F
      -- -- -- -- -- -- -- --  -- -- -- -- -- -- -- --
0400:                                   66 2E 80 F8 FF             f....
0410: FF 7F F8 FF FF 7F 73 61  64 30 00                 ......sad0.     
```

#### Opcodes

```
  0: 0x040B [0x66] LOAD_EXT_SCHEDULER_MAIN: Load scheduler "sad0" with entities [EventEntity, EventEntity], work=157*
  1: 0x041A [0x00] END_REQSTACK()
```

### Event 65535.67

#### Metadata

| Field        | Value    |
|--------------|----------|
| Entrypoint   | 0x041B   |
| Data Size    | 14 bytes |
| Instructions | 2        |

```
      00 01 02 03 04 05 06 07  08 09 0A 0B 0C 0D 0E 0F
      -- -- -- -- -- -- -- --  -- -- -- -- -- -- -- --
0410:                                   53 F8 FF FF 7F             S....
0420: F8 FF FF 7F 73 61 64 30  00                       ....sad0.       
```

#### Opcodes

```
  0: 0x041B [0x53] WAIT_SCHEDULER_TASK: Wait for scheduler "sad0" with entities [EventEntity, EventEntity]
  1: 0x0428 [0x00] END_REQSTACK()
```

### Event 65535.68

#### Metadata

| Field        | Value    |
|--------------|----------|
| Entrypoint   | 0x0429   |
| Data Size    | 16 bytes |
| Instructions | 2        |

```
      00 01 02 03 04 05 06 07  08 09 0A 0B 0C 0D 0E 0F
      -- -- -- -- -- -- -- --  -- -- -- -- -- -- -- --
0420:                             66 2E 80 F8 FF FF 7F           f......
0430: F8 FF FF 7F 73 61 64 31  00                       ....sad1.       
```

#### Opcodes

```
  0: 0x0429 [0x66] LOAD_EXT_SCHEDULER_MAIN: Load scheduler "sad1" with entities [EventEntity, EventEntity], work=157*
  1: 0x0438 [0x00] END_REQSTACK()
```

### Event 65535.69

#### Metadata

| Field        | Value    |
|--------------|----------|
| Entrypoint   | 0x0439   |
| Data Size    | 14 bytes |
| Instructions | 2        |

```
      00 01 02 03 04 05 06 07  08 09 0A 0B 0C 0D 0E 0F
      -- -- -- -- -- -- -- --  -- -- -- -- -- -- -- --
0430:                             53 F8 FF FF 7F F8 FF           S......
0440: FF 7F 73 61 64 31 00                              ..sad1.         
```

#### Opcodes

```
  0: 0x0439 [0x53] WAIT_SCHEDULER_TASK: Wait for scheduler "sad1" with entities [EventEntity, EventEntity]
  1: 0x0446 [0x00] END_REQSTACK()
```

### Event 65535.70

#### Metadata

| Field        | Value    |
|--------------|----------|
| Entrypoint   | 0x0447   |
| Data Size    | 16 bytes |
| Instructions | 4        |

```
      00 01 02 03 04 05 06 07  08 09 0A 0B 0C 0D 0E 0F
      -- -- -- -- -- -- -- --  -- -- -- -- -- -- -- --
0440:                      6E  F8 FF FF 7F 2F 80 99 F8         n..../...
0450: FF FF 7F 1C 30 80 00                              ....0..         
```

#### Opcodes

```
  0: 0x0447 [0x6E] EventEntity uses emote 18*
  1: 0x044E [0x99] Wait for EventEntity animation to complete
  2: 0x0453 [0x1C] WAIT(60* ticks)
  3: 0x0456 [0x00] END_REQSTACK()
```

### Event 65535.71

#### Metadata

| Field        | Value    |
|--------------|----------|
| Entrypoint   | 0x0457   |
| Data Size    | 16 bytes |
| Instructions | 4        |

```
      00 01 02 03 04 05 06 07  08 09 0A 0B 0C 0D 0E 0F
      -- -- -- -- -- -- -- --  -- -- -- -- -- -- -- --
0450:                      6E  F8 FF FF 7F 31 80 99 F8         n....1...
0460: FF FF 7F 1C 30 80 00                              ....0..         
```

#### Opcodes

```
  0: 0x0457 [0x6E] EventEntity uses emote 21*
  1: 0x045E [0x99] Wait for EventEntity animation to complete
  2: 0x0463 [0x1C] WAIT(60* ticks)
  3: 0x0466 [0x00] END_REQSTACK()
```

### Event 65535.72

#### Metadata

| Field        | Value    |
|--------------|----------|
| Entrypoint   | 0x0467   |
| Data Size    | 16 bytes |
| Instructions | 4        |

```
      00 01 02 03 04 05 06 07  08 09 0A 0B 0C 0D 0E 0F
      -- -- -- -- -- -- -- --  -- -- -- -- -- -- -- --
0460:                      6E  F8 FF FF 7F 32 80 99 F8         n....2...
0470: FF FF 7F 1C 30 80 00                              ....0..         
```

#### Opcodes

```
  0: 0x0467 [0x6E] EventEntity uses emote 32*
  1: 0x046E [0x99] Wait for EventEntity animation to complete
  2: 0x0473 [0x1C] WAIT(60* ticks)
  3: 0x0476 [0x00] END_REQSTACK()
```

### Event 65535.73

#### Metadata

| Field        | Value    |
|--------------|----------|
| Entrypoint   | 0x0477   |
| Data Size    | 16 bytes |
| Instructions | 4        |

```
      00 01 02 03 04 05 06 07  08 09 0A 0B 0C 0D 0E 0F
      -- -- -- -- -- -- -- --  -- -- -- -- -- -- -- --
0470:                      6E  F8 FF FF 7F 33 80 99 F8         n....3...
0480: FF FF 7F 1C 30 80 00                              ....0..         
```

#### Opcodes

```
  0: 0x0477 [0x6E] EventEntity uses emote 5*
  1: 0x047E [0x99] Wait for EventEntity animation to complete
  2: 0x0483 [0x1C] WAIT(60* ticks)
  3: 0x0486 [0x00] END_REQSTACK()
```

### Event 65535.74

#### Metadata

| Field        | Value    |
|--------------|----------|
| Entrypoint   | 0x0487   |
| Data Size    | 16 bytes |
| Instructions | 4        |

```
      00 01 02 03 04 05 06 07  08 09 0A 0B 0C 0D 0E 0F
      -- -- -- -- -- -- -- --  -- -- -- -- -- -- -- --
0480:                      6E  F8 FF FF 7F 34 80 99 F8         n....4...
0490: FF FF 7F 1C 30 80 00                              ....0..         
```

#### Opcodes

```
  0: 0x0487 [0x6E] EventEntity uses emote 7*
  1: 0x048E [0x99] Wait for EventEntity animation to complete
  2: 0x0493 [0x1C] WAIT(60* ticks)
  3: 0x0496 [0x00] END_REQSTACK()
```

### Event 65535.75

#### Metadata

| Field        | Value    |
|--------------|----------|
| Entrypoint   | 0x0497   |
| Data Size    | 16 bytes |
| Instructions | 4        |

```
      00 01 02 03 04 05 06 07  08 09 0A 0B 0C 0D 0E 0F
      -- -- -- -- -- -- -- --  -- -- -- -- -- -- -- --
0490:                      6E  F8 FF FF 7F 35 80 99 F8         n....5...
04A0: FF FF 7F 1C 30 80 00                              ....0..         
```

#### Opcodes

```
  0: 0x0497 [0x6E] EventEntity uses emote 6*
  1: 0x049E [0x99] Wait for EventEntity animation to complete
  2: 0x04A3 [0x1C] WAIT(60* ticks)
  3: 0x04A6 [0x00] END_REQSTACK()
```

### Event 65535.76

#### Metadata

| Field        | Value    |
|--------------|----------|
| Entrypoint   | 0x04A7   |
| Data Size    | 16 bytes |
| Instructions | 4        |

```
      00 01 02 03 04 05 06 07  08 09 0A 0B 0C 0D 0E 0F
      -- -- -- -- -- -- -- --  -- -- -- -- -- -- -- --
04A0:                      6E  F8 FF FF 7F 36 80 99 F8         n....6...
04B0: FF FF 7F 1C 30 80 00                              ....0..         
```

#### Opcodes

```
  0: 0x04A7 [0x6E] EventEntity uses emote 25*
  1: 0x04AE [0x99] Wait for EventEntity animation to complete
  2: 0x04B3 [0x1C] WAIT(60* ticks)
  3: 0x04B6 [0x00] END_REQSTACK()
```

### Event 65535.77

#### Metadata

| Field        | Value    |
|--------------|----------|
| Entrypoint   | 0x04B7   |
| Data Size    | 16 bytes |
| Instructions | 4        |

```
      00 01 02 03 04 05 06 07  08 09 0A 0B 0C 0D 0E 0F
      -- -- -- -- -- -- -- --  -- -- -- -- -- -- -- --
04B0:                      6E  F8 FF FF 7F 37 80 99 F8         n....7...
04C0: FF FF 7F 1C 38 80 00                              ....8..         
```

#### Opcodes

```
  0: 0x04B7 [0x6E] EventEntity uses emote 8*
  1: 0x04BE [0x99] Wait for EventEntity animation to complete
  2: 0x04C3 [0x1C] WAIT(140* ticks)
  3: 0x04C6 [0x00] END_REQSTACK()
```

### Event 65535.78

#### Metadata

| Field        | Value    |
|--------------|----------|
| Entrypoint   | 0x04C7   |
| Data Size    | 16 bytes |
| Instructions | 4        |

```
      00 01 02 03 04 05 06 07  08 09 0A 0B 0C 0D 0E 0F
      -- -- -- -- -- -- -- --  -- -- -- -- -- -- -- --
04C0:                      6E  F8 FF FF 7F 39 80 99 F8         n....9...
04D0: FF FF 7F 1C 38 80 00                              ....8..         
```

#### Opcodes

```
  0: 0x04C7 [0x6E] EventEntity uses emote 10*
  1: 0x04CE [0x99] Wait for EventEntity animation to complete
  2: 0x04D3 [0x1C] WAIT(140* ticks)
  3: 0x04D6 [0x00] END_REQSTACK()
```

### Event 65535.79

#### Metadata

| Field        | Value    |
|--------------|----------|
| Entrypoint   | 0x04D7   |
| Data Size    | 53 bytes |
| Instructions | 5        |

```
      00 01 02 03 04 05 06 07  08 09 0A 0B 0C 0D 0E 0F
      -- -- -- -- -- -- -- --  -- -- -- -- -- -- -- --
04D0:                      2C  F8 FF FF 7F F8 FF FF 7F         ,........
04E0: 64 65 61 64 53 F8 FF FF  7F F8 FF FF 7F 64 65 61  deadS........dea
04F0: 64 2C F8 FF FF 7F F8 FF  FF 7F 63 6F 72 70 53 F8  d,........corpS.
0500: FF FF 7F F8 FF FF 7F 63  6F 72 70 00              .......corp.    
```

#### Opcodes

```
  0: 0x04D7 [0x2C] CREATE_SCHEDULER_TASK: Create scheduler "dead" with entities [EventEntity, EventEntity]
  1: 0x04E4 [0x53] WAIT_SCHEDULER_TASK: Wait for scheduler "dead" with entities [EventEntity, EventEntity]
  2: 0x04F1 [0x2C] CREATE_SCHEDULER_TASK: Create scheduler "corp" with entities [EventEntity, EventEntity]
  3: 0x04FE [0x53] WAIT_SCHEDULER_TASK: Wait for scheduler "corp" with entities [EventEntity, EventEntity]
  4: 0x050B [0x00] END_REQSTACK()
```
