# 17830164

## Common Data

| Field            | Value                     |
|------------------|---------------------------|
| Zone             | Eastern Adoulin (ID: 257) |
| Block Size       | 408 bytes                 |
| Total Events     | 3                         |
| References Count | 22                        |

## List of Events

| Event ID                 | Entrypoint   |   Size |   Instructions |
|--------------------------|--------------|--------|----------------|
| [65535](#event-65535)    | 0x0000       |      1 |              1 |
| [5217](#event-5217)      | 0x0001       |      1 |              1 |
| [65535.1](#event-655351) | 0x0002       |    290 |             44 |

## DAT References (imed_data)

|   Index | Hex Value   |   Dec Value |
|---------|-------------|-------------|
|       0 | 0x000D      |          13 |
|       1 | 0xFFFF0650  |  4294903376 |
|       2 | 0xFFFFDCE8  |  4294958312 |
|       3 | 0x0000      |           0 |
|       4 | 0xFFFF18D5  |  4294908117 |
|       5 | 0xFFFFE380  |  4294960000 |
|       6 | 0xFFFFFF6C  |  4294967148 |
|       7 | 0x001E      |          30 |
|       8 | 0x0010      |          16 |
|       9 | 0x00F0      |         240 |
|      10 | 0x0015      |          21 |
|      11 | 0x00C7      |         199 |
|      12 | 0x005C      |          92 |
|      13 | 0x0028      |          40 |
|      14 | 0x0007      |           7 |
|      15 | 0x0118      |         280 |
|      16 | 0x0068      |         104 |
|      17 | 0x0006      |           6 |
|      18 | 0x0168      |         360 |
|      19 | 0x00BE      |         190 |
|      20 | 0x0016      |          22 |
|      21 | 0x00DC      |         220 |

## Events

### Event 65535

#### Metadata

| Field        | Value   |
|--------------|---------|
| Entrypoint   | 0x0000  |
| Data Size    | 1 bytes |
| Instructions | 1       |

```
      00 01 02 03 04 05 06 07  08 09 0A 0B 0C 0D 0E 0F
      -- -- -- -- -- -- -- --  -- -- -- -- -- -- -- --
0000: 00                                                .               
```

#### Opcodes

```
  0: 0x0000 [0x00] END_REQSTACK()
```

### Event 5217

#### Metadata

| Field        | Value   |
|--------------|---------|
| Entrypoint   | 0x0001  |
| Data Size    | 1 bytes |
| Instructions | 1       |

```
      00 01 02 03 04 05 06 07  08 09 0A 0B 0C 0D 0E 0F
      -- -- -- -- -- -- -- --  -- -- -- -- -- -- -- --
0000:    00                                              .              
```

#### Opcodes

```
  0: 0x0001 [0x00] END_REQSTACK()
```

### Event 65535.1

#### Metadata

| Field        | Value     |
|--------------|-----------|
| Entrypoint   | 0x0002    |
| Data Size    | 290 bytes |
| Instructions | 43        |

```
      00 01 02 03 04 05 06 07  08 09 0A 0B 0C 0D 0E 0F
      -- -- -- -- -- -- -- --  -- -- -- -- -- -- -- --
0000:       32 00 80 1F 00 01  80 02 80 03 80 1F 01 1F    2.............
0010: 00 04 80 05 80 06 80 1F  01 4A F8 FF FF 7F 8D 10  .........J......
0020: 10 01 6F 76 F8 FF FF 7F  1C 07 80 4A 8D 10 10 01  ..ov.......J....
0030: F8 FF FF 7F 6F 76 8D 10  10 01 6E 8D 10 10 01 08  ....ov....n.....
0040: 80 99 8D 10 10 01 1C 09  80 6E F8 FF FF 7F 0A 80  .........n......
0050: 99 F8 FF FF 7F 1C 09 80  5F 06 0B 80 8D 10 10 01  ........_.......
0060: 8D 10 10 01 74 6C 6B 30  0C 80 5F 07 8D 10 10 01  ....tlk0.._.....
0070: 8D 10 10 01 74 6C 6B 30  1C 0D 80 6E F8 FF FF 7F  ....tlk0...n....
0080: 0E 80 99 F8 FF FF 7F 1C  0F 80 5F 06 0B 80 8D 10  .........._.....
0090: 10 01 8D 10 10 01 74 6C  6B 31 10 80 5F 07 8D 10  ......tlk1.._...
00A0: 10 01 8D 10 10 01 74 6C  6B 31 1C 0D 80 6E F8 FF  ......tlk1...n..
00B0: FF 7F 11 80 99 F8 FF FF  7F 1C 12 80 5F 06 0B 80  ............_...
00C0: 8D 10 10 01 8D 10 10 01  74 6C 6B 30 0C 80 5F 07  ........tlk0.._.
00D0: 8D 10 10 01 8D 10 10 01  74 6C 6B 30 1C 0D 80 6E  ........tlk0...n
00E0: F8 FF FF 7F 0E 80 99 F8  FF FF 7F 1C 13 80 5F 06  .............._.
00F0: 0B 80 8D 10 10 01 8D 10  10 01 74 6C 6B 31 10 80  ..........tlk1..
0100: 5F 07 8D 10 10 01 8D 10  10 01 74 6C 6B 31 1C 0D  _.........tlk1..
0110: 80 6E F8 FF FF 7F 14 80  99 F8 FF FF 7F 1C 15 80  .n..............
0120: 01 58 00 00                                       .X..            
```

#### Opcodes

```
  0: 0x0002 [0x32] ExtData[1]->MainSpeed = 13* * 0.1
  1: 0x0005 [0x1F] MOVE_ENTITY: EventEntity moves to X=-63.920*, Z=-8.984*, Y=0.000*
  2: 0x000D [0x1F] MOVE_ENTITY: Update entity position (mode=1)
  3: 0x000F [0x1F] MOVE_ENTITY: EventEntity moves to X=-59.179*, Z=-7.296*, Y=-0.148*
  4: 0x0017 [0x1F] MOVE_ENTITY: Update entity position (mode=1)
  5: 0x0019 [0x4A] EventEntity looks at Iyvah Halohm (ID: 17830029/0x0110108D)
  6: 0x0022 [0x6F] WAIT_FRAME_DELAY: Yield until WaitTime reaches zero
  7: 0x0023 [0x76] CHECK_ENTITY_RENDER_FLAGS: Wait until EventEntity Render.Flags0 and Render.Flags3 conditions are met
  8: 0x0028 [0x1C] WAIT(30* ticks)
  9: 0x002B [0x4A] Iyvah Halohm (ID: 17830029/0x0110108D) looks at EventEntity
 10: 0x0034 [0x6F] WAIT_FRAME_DELAY: Yield until WaitTime reaches zero
 11: 0x0035 [0x76] CHECK_ENTITY_RENDER_FLAGS: Wait until Iyvah Halohm (ID: 17830029/0x0110108D) Render.Flags0 and Render.Flags3 conditions are met
 12: 0x003A [0x6E] Iyvah Halohm (ID: 17830029/0x0110108D) uses emote 16*
 13: 0x0041 [0x99] Wait for Iyvah Halohm (ID: 17830029/0x0110108D) animation to complete
 14: 0x0046 [0x1C] WAIT(240* ticks)
 15: 0x0049 [0x6E] EventEntity uses emote 21*
 16: 0x0050 [0x99] Wait for EventEntity animation to complete
 17: 0x0055 [0x1C] WAIT(240* ticks)
 18: 0x0058 [0x5F] MULTI_HANDLER_COMPLEX(mode=0x06 - Load ext scheduler with flag (OpCode 0x5B mode 1, flag 1), ref=199*, entity1=Iyvah Halohm (ID: 17830029/0x0110108D), entity2=Iyvah Halohm (ID: 17830029/0x0110108D), string="tlk0", extra=92*)
 19: 0x006A [0x5F] MULTI_HANDLER_COMPLEX(mode=0x07 - Wait scheduler task (OpCode 0x53))
 20: 0x0078 [0x1C] WAIT(40* ticks)
 21: 0x007B [0x6E] EventEntity uses emote 7*
 22: 0x0082 [0x99] Wait for EventEntity animation to complete
 23: 0x0087 [0x1C] WAIT(280* ticks)
 24: 0x008A [0x5F] MULTI_HANDLER_COMPLEX(mode=0x06 - Load ext scheduler with flag (OpCode 0x5B mode 1, flag 1), ref=199*, entity1=Iyvah Halohm (ID: 17830029/0x0110108D), entity2=Iyvah Halohm (ID: 17830029/0x0110108D), string="tlk1", extra=104*)
 25: 0x009C [0x5F] MULTI_HANDLER_COMPLEX(mode=0x07 - Wait scheduler task (OpCode 0x53))
 26: 0x00AA [0x1C] WAIT(40* ticks)
 27: 0x00AD [0x6E] EventEntity uses emote 6*
 28: 0x00B4 [0x99] Wait for EventEntity animation to complete
 29: 0x00B9 [0x1C] WAIT(360* ticks)
 30: 0x00BC [0x5F] MULTI_HANDLER_COMPLEX(mode=0x06 - Load ext scheduler with flag (OpCode 0x5B mode 1, flag 1), ref=199*, entity1=Iyvah Halohm (ID: 17830029/0x0110108D), entity2=Iyvah Halohm (ID: 17830029/0x0110108D), string="tlk0", extra=92*)
 31: 0x00CE [0x5F] MULTI_HANDLER_COMPLEX(mode=0x07 - Wait scheduler task (OpCode 0x53))
 32: 0x00DC [0x1C] WAIT(40* ticks)
 33: 0x00DF [0x6E] EventEntity uses emote 7*
 34: 0x00E6 [0x99] Wait for EventEntity animation to complete
 35: 0x00EB [0x1C] WAIT(190* ticks)
 36: 0x00EE [0x5F] MULTI_HANDLER_COMPLEX(mode=0x06 - Load ext scheduler with flag (OpCode 0x5B mode 1, flag 1), ref=199*, entity1=Iyvah Halohm (ID: 17830029/0x0110108D), entity2=Iyvah Halohm (ID: 17830029/0x0110108D), string="tlk1", extra=104*)
 37: 0x0100 [0x5F] MULTI_HANDLER_COMPLEX(mode=0x07 - Wait scheduler task (OpCode 0x53))
 38: 0x010E [0x1C] WAIT(40* ticks)
 39: 0x0111 [0x6E] EventEntity uses emote 22*
 40: 0x0118 [0x99] Wait for EventEntity animation to complete
 41: 0x011D [0x1C] WAIT(220* ticks)
 42: 0x0120 [0x01] GOTO 0x0058
```

#### Data or dead code:

```
# Dead code (unreachable instructions):
     0x0123 [0x00] END_REQSTACK()
```
