# 17830116 - Penthus

## Common Data

| Field            | Value                     |
|------------------|---------------------------|
| Zone             | Eastern Adoulin (ID: 257) |
| Block Size       | 72 bytes                  |
| Total Events     | 2                         |
| References Count | 3                         |

## List of Events

| Event ID              | Entrypoint   |   Size |   Instructions |
|-----------------------|--------------|--------|----------------|
| [65535](#event-65535) | 0x0000       |      1 |              1 |
| [538](#event-538)     | 0x0001       |     32 |             10 |

## DAT References (imed_data)

|   Index | Hex Value   |   Dec Value |
|---------|-------------|-------------|
|       0 | 0x2915      |       10517 |
|       1 | 0x00EE      |         238 |
|       2 | 0x2916      |       10518 |

## String References

- **10517**: Ugh, did you come here for the express purpose of ruining my vacation!?
- **10518**: If I'd have known just how loud you pioneers squawked, I'd be at my other house in the Far East instead!

## Events

### Event 65535

#### Metadata

| Field        | Value   |
|--------------|---------|
| Entrypoint   | 0x0000  |
| Data Size    | 1 bytes |
| Instructions | 1       |

```
      00 01 02 03 04 05 06 07  08 09 0A 0B 0C 0D 0E 0F
      -- -- -- -- -- -- -- --  -- -- -- -- -- -- -- --
0000: 00                                                .               
```

#### Opcodes

```
  0: 0x0000 [0x00] END_REQSTACK()
```

### Event 538

#### Metadata

| Field        | Value    |
|--------------|----------|
| Entrypoint   | 0x0001   |
| Data Size    | 32 bytes |
| Instructions | 10       |

```
      00 01 02 03 04 05 06 07  08 09 0A 0B 0C 0D 0E 0F
      -- -- -- -- -- -- -- --  -- -- -- -- -- -- -- --
0000:    1E F0 FF FF 7F 6F 70  1D 00 80 23 5B 01 80 F8   .....op...#[...
0010: FF FF 7F F8 FF FF 7F 68  61 72 30 1D 02 80 23 21  .......har0...#!
0020: 00                                                .               
```

#### Opcodes

```
  0: 0x0001 [0x1E] EventEntity looks at LocalPlayer and starts talking
  1: 0x0006 [0x6F] WAIT_FRAME_DELAY: Yield until WaitTime reaches zero
  2: 0x0007 [0x70] WAIT_ENTITY_RENDER_FLAG: Wait while EventEntity->Render.Flags3 bit 2 is set (cancel turn if not)
  3: 0x0008 [0x1D] PRINT_EVENT_MESSAGE(message_id=10517*)
    → "Ugh, did you come here for the express purpose of ruining my vacation!?"
  4: 0x000B [0x23] WAIT_FOR_DIALOG_INTERACTION
  5: 0x000C [0x5B] LOAD_EXT_SCHEDULER: Load scheduler "har0" with entities [EventEntity, EventEntity], work=238*
  6: 0x001B [0x1D] PRINT_EVENT_MESSAGE(message_id=10518*)
    → "If I'd have known just how loud you pioneers squawked, I'd be at my other house in the Far East instead!"
  7: 0x001E [0x23] WAIT_FOR_DIALOG_INTERACTION
  8: 0x001F [0x21] END_EVENT
  9: 0x0020 [0x00] END_REQSTACK()
```
