# 17830186 - Quiri-Aliri

## Common Data

| Field            | Value                     |
|------------------|---------------------------|
| Zone             | Eastern Adoulin (ID: 257) |
| Block Size       | 1380 bytes                |
| Total Events     | 3                         |
| References Count | 38                        |

## List of Events

| Event ID              | Entrypoint   |   Size |   Instructions |
|-----------------------|--------------|--------|----------------|
| [65535](#event-65535) | 0x0000       |      6 |              2 |
| [1200](#event-1200)   | 0x0006       |    131 |             23 |
| [1201](#event-1201)   | 0x0089       |   1061 |            235 |

## DAT References (imed_data)

|   Index | Hex Value   |   Dec Value |
|---------|-------------|-------------|
|       0 | 0x0001      |           1 |
|       1 | 0x0000      |           0 |
|       2 | 0x001E      |          30 |
|       3 | 0x0022      |          34 |
|       4 | 0x086D      |        2157 |
|       5 | 0x30F8      |       12536 |
|       6 | 0x30F9      |       12537 |
|       7 | 0x30FA      |       12538 |
|       8 | 0x30FB      |       12539 |
|       9 | 0x000A      |          10 |
|      10 | 0x30FD      |       12541 |
|      11 | 0x30FE      |       12542 |
|      12 | 0x30FF      |       12543 |
|      13 | 0x3100      |       12544 |
|      14 | 0x01F1      |         497 |
|      15 | 0x0104      |         260 |
|      16 | 0x3101      |       12545 |
|      17 | 0x40000000  |  1073741824 |
|      18 | 0x30FC      |       12540 |
|      19 | 0x3103      |       12547 |
|      20 | 0x3104      |       12548 |
|      21 | 0x3105      |       12549 |
|      22 | 0x0002      |           2 |
|      23 | 0x0003      |           3 |
|      24 | 0x0004      |           4 |
|      25 | 0x0005      |           5 |
|      26 | 0x0006      |           6 |
|      27 | 0x310D      |       12557 |
|      28 | 0x310E      |       12558 |
|      29 | 0x310F      |       12559 |
|      30 | 0x3106      |       12550 |
|      31 | 0x0007      |           7 |
|      32 | 0x3107      |       12551 |
|      33 | 0x3108      |       12552 |
|      34 | 0x3109      |       12553 |
|      35 | 0x310A      |       12554 |
|      36 | 0x310B      |       12555 |
|      37 | 0x310C      |       12556 |

## String References

- **12536**: Excuse me, but I do not believe you have $6, do you?
- **12537**: Oh, that's too bad, because we would love for you to help us with the colonization effort. If you are willing, then by all means, speak with Brenton so he can outfit you with one.
- **12538**: My name is % and it is my duty to make sure all pioneers are properly prepared to face the many terrifying dangers that wait in the wilds. May I inquire as to your needs?
- **12539**: What do you need? [Would you cast Ionis on me?/Can you tell me Ionis's effects?/What exactly is Ionis?/Absolutely nothing.]
- **12540**: It pains me to report that I cannot cast Ionis upon you because none of the coalitions are advanced enough to impart any powers upon it.
- **12541**: In order to bestow Ionis upon you, I will need to exact a fee of $0 bayld.
- **12542**: You know what they say--all things have their price. What say you?
- **12543**: Truly have Ionis cast? (Bayld: $0) [Cast away!/Not so fast.]
- **12544**: Thank you for your $0-bayld donation to the city. And now, let us proceed with the casting!
- **12545**: Um...how embarrassing... How should I say this...? You do not seem to possess ample bayld.
- **12547**: The power Ionis bestows fluctuates depending on how advanced each coalition is.
- **12548**: Select a coalition. [None./Pioneers'./Peacekeepers'./Couriers'./Scouts'./Inventors'./Mummers'.]
- **12549**: Here is how the [Pioneers'/Peacekeepers'/Couriers'/Scouts'/Inventors'/Mummers'] Coalition contributes to Ionis.
- **12550**: Whoops, it seems they do not add any additional effects.
- **12551**: Based on the state of their expansion, a [Minor Attack Enhancement/Minor Magic Attack Bonus/Minor Gathering Fatigue Reduction/Minor Gathering Efficacy Enhancement/Moderate Attack Enhancement/Moderate Magic Attack Bonus/Moderate Gathering Fatigue Reduction/Moderate Gathering Efficacy Enhancement] will be bestowed upon you.
- **12552**: Based on the state of their expansion, a [Minor Defense Enhancement/Minor Magic Defense Bonus/Minor HP and MP Recovery Enhancement/Minor Enhancement to Max HP and MP/Moderate Defense Enhancement/Moderate Magic Defense Bonus/Moderate HP and MP Recovery Enhancement/Moderate Enhancement to Max HP and MP] will be bestowed upon you.
- **12553**: Based on the state of their expansion, a [Minor Accuracy and Magic Accuracy Enhancement/Minor Evasion and Magic Evasion Enhancement/Minor Critical Hit Rate Increase/Minor "Haste" Effect/Moderate Accuracy and Magic Accuracy Enhancement/Moderate Evasion and Magic Evasion Enhancement/Moderate Critical Hit Rate Increase/Moderate "Haste" Effect] will be bestowed upon you.
- **12554**: Based on the state of their expansion, a [Minor "Save TP" Effect/Minor "Conserve MP" Effect/Minor "Fast Cast" Effect/Minor Resistance Increase to All Status Ailments/Moderate "Save TP" Effect/Moderate "Conserve MP" Effect/Moderate "Fast Cast" Effect/Moderate Resistance Increase to All Status Ailments] will be bestowed upon you.
- **12555**: Based on the state of their expansion, a [Minor Crystal Obtainment Rate Increase/Minor Material Loss Rate Reduction/Minor Synthesis Skill Gain Rate Increase/Minor Synthesis Success Rate Increase/Moderate Crystal Obtainment Rate Increase/Moderate Material Loss Rate Reduction/Moderate Synthesis Skill Gain Rate Increase/Moderate Synthesis Success Rate Increase] will be bestowed upon you.
- **12556**: Based on the state of their expansion, a [Minor Combat Skill Gain Rate Increase/Minor Magic Skill Gain Rate Increase/Minor Experience Point Bonus/Minor Reward Obtainment Rate Increase/Moderate Combat Skill Gain Rate Increase/Moderate Magic Skill Gain Rate Increase/Moderate Experience Point Bonus/Moderate Reward Obtainment Rate Increase] will be bestowed upon you.
- **12557**: What a tricky question. Well...it is a thaumaturgical aura that grants multitudes of benefits to pioneers.
- **12558**: What is truly interesting is that this aura draws its powers from the various coalitions. The larger they grow, the more powerful the benefits each one will provide.
- **12559**: The more pioneering feats you perform, the more the coalitions develop, and the more beneficial Ionis becomes. Think of it as a virtuous cycle!

## Events

### Event 65535

#### Metadata

| Field        | Value   |
|--------------|---------|
| Entrypoint   | 0x0000  |
| Data Size    | 6 bytes |
| Instructions | 2       |

```
      00 01 02 03 04 05 06 07  08 09 0A 0B 0C 0D 0E 0F
      -- -- -- -- -- -- -- --  -- -- -- -- -- -- -- --
0000: 03 00 00 00 80 00                                 ......          
```

#### Opcodes

```
  0: 0x0000 [0x03] ExtData[1]->WorkLocal[0] = 1*
  1: 0x0005 [0x00] END_REQSTACK()
```

### Event 1200

#### Metadata

| Field        | Value     |
|--------------|-----------|
| Entrypoint   | 0x0006    |
| Data Size    | 131 bytes |
| Instructions | 23        |

```
      00 01 02 03 04 05 06 07  08 09 0A 0B 0C 0D 0E 0F
      -- -- -- -- -- -- -- --  -- -- -- -- -- -- -- --
0000:                   1E F0  FF FF 7F 6F 70 02 00 00        .....op...
0010: 01 80 80 27 00 66 02 80  F8 FF FF 7F F8 FF FF 7F  ...'.f..........
0020: 74 6C 6B 30 01 41 00 02  00 00 00 80 80 41 00 66  tlk0.A.......A.f
0030: 03 80 F8 FF FF 7F F8 FF  FF 7F 74 6C 62 30 01 41  ..........tlb0.A
0040: 00 03 02 10 04 80 1D 05  80 23 03 02 10 04 80 1D  .........#......
0050: 06 80 23 02 00 00 01 80  80 6D 00 66 02 80 F8 FF  ..#......m.f....
0060: FF 7F F8 FF FF 7F 74 6C  6B 31 01 87 00 02 00 00  ......tlk1......
0070: 00 80 80 87 00 66 03 80  F8 FF FF 7F F8 FF FF 7F  .....f..........
0080: 74 6C 62 31 01 87 00 21  00                       tlb1...!.       
```

#### Opcodes

```
  0: 0x0006 [0x1E] EventEntity looks at LocalPlayer and starts talking
  1: 0x000B [0x6F] WAIT_FRAME_DELAY: Yield until WaitTime reaches zero
  2: 0x000C [0x70] WAIT_ENTITY_RENDER_FLAG: Wait while EventEntity->Render.Flags3 bit 2 is set (cancel turn if not)
  3: 0x000D [0x02] IF !(ExtData[1]->WorkLocal[0] == 0*) GOTO 0x0027
  4: 0x0015 [0x66] LOAD_EXT_SCHEDULER_MAIN: Load scheduler "tlk0" with entities [EventEntity, EventEntity], work=30*
  5: 0x0024 [0x01] GOTO 0x0041
  6: 0x0027 [0x02] IF !(ExtData[1]->WorkLocal[0] == 1*) GOTO 0x0041
  7: 0x002F [0x66] LOAD_EXT_SCHEDULER_MAIN: Load scheduler "tlb0" with entities [EventEntity, EventEntity], work=34*
  8: 0x003E [0x01] GOTO 0x0041

SUBROUTINE_0041:
  9: 0x0041 [0x03] Work_Zone[2] = 2157*
 10: 0x0046 [0x1D] PRINT_EVENT_MESSAGE(message_id=12536*)
    → "Excuse me, but I do not believe you have $6, do you?"
 11: 0x0049 [0x23] WAIT_FOR_DIALOG_INTERACTION
 12: 0x004A [0x03] Work_Zone[2] = 2157*
 13: 0x004F [0x1D] PRINT_EVENT_MESSAGE(message_id=12537*)
    → "Oh, that's too bad, because we would love for you to help us with the colonization effort. If you are willing, then by all means, speak with Brenton so he can outfit you with one."
 14: 0x0052 [0x23] WAIT_FOR_DIALOG_INTERACTION
 15: 0x0053 [0x02] IF !(ExtData[1]->WorkLocal[0] == 0*) GOTO 0x006D
 16: 0x005B [0x66] LOAD_EXT_SCHEDULER_MAIN: Load scheduler "tlk1" with entities [EventEntity, EventEntity], work=30*
 17: 0x006A [0x01] GOTO 0x0087
 18: 0x006D [0x02] IF !(ExtData[1]->WorkLocal[0] == 1*) GOTO 0x0087
 19: 0x0075 [0x66] LOAD_EXT_SCHEDULER_MAIN: Load scheduler "tlb1" with entities [EventEntity, EventEntity], work=34*
 20: 0x0084 [0x01] GOTO 0x0087

SUBROUTINE_0087:
 21: 0x0087 [0x21] END_EVENT
 22: 0x0088 [0x00] END_REQSTACK()
```

### Event 1201

#### Metadata

| Field        | Value      |
|--------------|------------|
| Entrypoint   | 0x0089     |
| Data Size    | 1061 bytes |
| Instructions | 235        |

```
      00 01 02 03 04 05 06 07  08 09 0A 0B 0C 0D 0E 0F
      -- -- -- -- -- -- -- --  -- -- -- -- -- -- -- --
0080:                             03 01 00 02 10 03 02           .......
0090: 00 03 10 03 03 00 04 10  03 04 00 05 10 03 05 00  ................
00A0: 06 10 03 06 00 07 10 03  07 00 08 10 03 0D 00 01  ................
00B0: 80 1E F0 FF FF 7F 6F 70  02 00 00 01 80 80 D2 00  ......op........
00C0: 66 02 80 F8 FF FF 7F F8  FF FF 7F 74 6C 6B 30 01  f..........tlk0.
00D0: EC 00 02 00 00 00 80 80  EC 00 66 03 80 F8 FF FF  ..........f.....
00E0: 7F F8 FF FF 7F 74 6C 62  30 01 EC 00 1D 07 80 23  .....tlb0......#
00F0: 06 0B 00 02 0B 00 01 80  00 AC 02 24 08 80 01 80  ...........$....
0100: 01 80 25 02 00 10 01 80  00 86 01 03 0D 00 01 80  ..%.............
0110: 02 0D 00 01 80 00 7F 01  03 02 10 09 80 1D 0A 80  ................
0120: 23 1D 0B 80 23 03 02 10  01 00 24 0C 80 00 80 01  #...#.....$.....
0130: 80 25 02 00 10 01 80 00  71 01 02 01 00 09 80 04  .%......q.......
0140: 65 01 42 03 02 10 09 80  1D 0D 80 23 73 0E 80 F8  e.B........#s...
0150: FF FF 7F F0 FF FF 7F 1C  0F 80 03 01 10 00 80 05  ................
0160: 0B 00 01 6E 01 1D 10 80  23 03 01 10 11 80 01 7C  ...n....#......|
0170: 01 02 00 10 00 80 00 7C  01 01 7C 01 01 83 01 1D  .......|..|.....
0180: 12 80 23 01 A9 02 02 00  10 00 80 00 7F 02 06 0C  ..#.............
0190: 00 02 0C 00 01 80 00 7C  02 1D 13 80 23 24 14 80  .......|....#$..
01A0: 01 80 01 80 25 02 00 10  01 80 00 B3 01 05 0C 00  ....%...........
01B0: 01 79 02 02 00 10 00 80  00 D4 01 03 02 10 01 80  .y..............
01C0: 1D 15 80 23 03 0A 00 02  00 03 09 00 01 80 1A E2  ...#............
01D0: 02 01 79 02 02 00 10 16  80 00 F5 01 03 02 10 00  ..y.............
01E0: 80 1D 15 80 23 03 0A 00  03 00 03 09 00 00 80 1A  ....#...........
01F0: E2 02 01 79 02 02 00 10  17 80 00 16 02 03 02 10  ...y............
0200: 16 80 1D 15 80 23 03 0A  00 04 00 03 09 00 16 80  .....#..........
0210: 1A E2 02 01 79 02 02 00  10 18 80 00 37 02 03 02  ....y.......7...
0220: 10 17 80 1D 15 80 23 03  0A 00 05 00 03 09 00 17  ......#.........
0230: 80 1A E2 02 01 79 02 02  00 10 19 80 00 58 02 03  .....y.......X..
0240: 02 10 18 80 1D 15 80 23  03 0A 00 06 00 03 09 00  .......#........
0250: 18 80 1A E2 02 01 79 02  02 00 10 1A 80 00 79 02  ......y.......y.
0260: 03 02 10 19 80 1D 15 80  23 03 0A 00 07 00 03 09  ........#.......
0270: 00 19 80 1A E2 02 01 79  02 01 91 01 01 A9 02 02  .......y........
0280: 00 10 16 80 00 96 02 1D  1B 80 23 1D 1C 80 23 1D  ..........#...#.
0290: 1D 80 23 01 A9 02 02 00  10 17 80 00 A9 02 03 01  ..#.............
02A0: 10 11 80 05 0B 00 01 A9  02 01 F3 00 02 00 00 01  ................
02B0: 80 80 C6 02 66 02 80 F8  FF FF 7F F8 FF FF 7F 74  ....f..........t
02C0: 6C 6B 31 01 E0 02 02 00  00 00 80 80 E0 02 66 03  lk1...........f.
02D0: 80 F8 FF FF 7F F8 FF FF  7F 74 6C 62 31 01 E0 02  .........tlb1...
02E0: 21 00 03 08 00 01 80 02  0A 00 01 80 05 F6 02 1D  !...............
02F0: 1E 80 23 01 52 04 3E 0A  00 01 80 14 03 3E 0A 00  ..#.R.>......>..
0300: 18 80 0C 03 03 08 00 01  80 01 11 03 03 08 00 00  ................
0310: 80 01 19 03 03 08 00 01  80 02 08 00 00 80 00 29  ...............)
0320: 03 03 02 10 01 80 1A 53  04 3E 0A 00 00 80 47 03  .......S.>....G.
0330: 3E 0A 00 19 80 3F 03 03  08 00 01 80 01 44 03 03  >....?.......D..
0340: 08 00 00 80 01 4C 03 03  08 00 01 80 02 08 00 00  .....L..........
0350: 80 00 5C 03 03 02 10 00  80 1A 53 04 3E 0A 00 16  ..\.......S.>...
0360: 80 7A 03 3E 0A 00 1A 80  72 03 03 08 00 01 80 01  .z.>....r.......
0370: 77 03 03 08 00 00 80 01  7F 03 03 08 00 01 80 02  w...............
0380: 08 00 00 80 00 8F 03 03  02 10 16 80 1A 53 04 3E  .............S.>
0390: 0A 00 17 80 AD 03 3E 0A  00 1F 80 A5 03 03 08 00  ......>.........
03A0: 01 80 01 AA 03 03 08 00  00 80 01 B2 03 03 08 00  ................
03B0: 01 80 02 08 00 00 80 00  C2 03 03 02 10 17 80 1A  ................
03C0: 53 04 3E 0A 00 18 80 D1  03 03 08 00 00 80 01 D6  S.>.............
03D0: 03 03 08 00 01 80 02 08  00 00 80 00 E6 03 03 02  ................
03E0: 10 18 80 1A 53 04 3E 0A  00 19 80 F5 03 03 08 00  ....S.>.........
03F0: 00 80 01 FA 03 03 08 00  01 80 02 08 00 00 80 00  ................
0400: 0A 04 03 02 10 19 80 1A  53 04 3E 0A 00 1A 80 19  ........S.>.....
0410: 04 03 08 00 00 80 01 1E  04 03 08 00 01 80 02 08  ................
0420: 00 00 80 00 2E 04 03 02  10 1A 80 1A 53 04 3E 0A  ............S.>.
0430: 00 1F 80 3D 04 03 08 00  00 80 01 42 04 03 08 00  ...=.......B....
0440: 01 80 02 08 00 00 80 00  52 04 03 02 10 1F 80 1A  ........R.......
0450: 53 04 1B 02 09 00 01 80  80 62 04 1D 20 80 23 01  S........b.. .#.
0460: AD 04 02 09 00 00 80 80  71 04 1D 21 80 23 01 AD  ........q..!.#..
0470: 04 02 09 00 16 80 80 80  04 1D 22 80 23 01 AD 04  ..........".#...
0480: 02 09 00 17 80 80 8F 04  1D 23 80 23 01 AD 04 02  .........#.#....
0490: 09 00 18 80 80 9E 04 1D  24 80 23 01 AD 04 02 09  ........$.#.....
04A0: 00 19 80 80 AD 04 1D 25  80 23 01 AD 04 1B        .......%.#....  
```

#### Opcodes

```
  0: 0x0089 [0x03] ExtData[1]->WorkLocal[1] = Work_Zone[2]
  1: 0x008E [0x03] ExtData[1]->WorkLocal[2] = Work_Zone[3]
  2: 0x0093 [0x03] ExtData[1]->WorkLocal[3] = Work_Zone[4]
  3: 0x0098 [0x03] ExtData[1]->WorkLocal[4] = Work_Zone[5]
  4: 0x009D [0x03] ExtData[1]->WorkLocal[5] = Work_Zone[6]
  5: 0x00A2 [0x03] ExtData[1]->WorkLocal[6] = Work_Zone[7]
  6: 0x00A7 [0x03] ExtData[1]->WorkLocal[7] = Work_Zone[8]
  7: 0x00AC [0x03] ExtData[1]->WorkLocal[13] = 0*
  8: 0x00B1 [0x1E] EventEntity looks at LocalPlayer and starts talking
  9: 0x00B6 [0x6F] WAIT_FRAME_DELAY: Yield until WaitTime reaches zero
 10: 0x00B7 [0x70] WAIT_ENTITY_RENDER_FLAG: Wait while EventEntity->Render.Flags3 bit 2 is set (cancel turn if not)
 11: 0x00B8 [0x02] IF !(ExtData[1]->WorkLocal[0] == 0*) GOTO 0x00D2
 12: 0x00C0 [0x66] LOAD_EXT_SCHEDULER_MAIN: Load scheduler "tlk0" with entities [EventEntity, EventEntity], work=30*
 13: 0x00CF [0x01] GOTO 0x00EC
 14: 0x00D2 [0x02] IF !(ExtData[1]->WorkLocal[0] == 1*) GOTO 0x00EC
 15: 0x00DA [0x66] LOAD_EXT_SCHEDULER_MAIN: Load scheduler "tlb0" with entities [EventEntity, EventEntity], work=34*
 16: 0x00E9 [0x01] GOTO 0x00EC

SUBROUTINE_00EC:
 17: 0x00EC [0x1D] PRINT_EVENT_MESSAGE(message_id=12538*)
    → "My name is % and it is my duty to make sure all pioneers are properly prepared to face the many terrifying dangers that wait in the wilds. May I inquire as to your needs?"
 18: 0x00EF [0x23] WAIT_FOR_DIALOG_INTERACTION
 19: 0x00F0 [0x06] ExtData[1]->WorkLocal[11] = 0

SUBROUTINE_00F3:
 20: 0x00F3 [0x02] IF !(ExtData[1]->WorkLocal[11] == 0*) GOTO 0x02AC
 21: 0x00FB [0x24] CREATE_DIALOG(message_id=12539*, default_option=0*, option_flags=0*)
    → "What do you need? [Would you cast Ionis on me?/Can you tell me Ionis's effects?/What exactly is Ionis?/Absolutely nothing.]"
 22: 0x0102 [0x25] WAIT_DIALOG_SELECT()
 23: 0x0103 [0x02] IF !(Work_Zone[0] == 0*) GOTO 0x0186
 24: 0x010B [0x03] ExtData[1]->WorkLocal[13] = 0*
 25: 0x0110 [0x02] IF !(ExtData[1]->WorkLocal[13] == 0*) GOTO 0x017F
 26: 0x0118 [0x03] Work_Zone[2] = 10*
 27: 0x011D [0x1D] PRINT_EVENT_MESSAGE(message_id=12541*)
    → "In order to bestow Ionis upon you, I will need to exact a fee of $0 bayld."
 28: 0x0120 [0x23] WAIT_FOR_DIALOG_INTERACTION
 29: 0x0121 [0x1D] PRINT_EVENT_MESSAGE(message_id=12542*)
    → "You know what they say--all things have their price. What say you?"
 30: 0x0124 [0x23] WAIT_FOR_DIALOG_INTERACTION
 31: 0x0125 [0x03] Work_Zone[2] = ExtData[1]->WorkLocal[1]
 32: 0x012A [0x24] CREATE_DIALOG(message_id=12543*, default_option=1*, option_flags=0*)
    → "Truly have Ionis cast? (Bayld: $0) [Cast away!/Not so fast.]"
 33: 0x0131 [0x25] WAIT_DIALOG_SELECT()
 34: 0x0132 [0x02] IF !(Work_Zone[0] == 0*) GOTO 0x0171
 35: 0x013A [0x02] IF !(ExtData[1]->WorkLocal[1] < 10*) GOTO 0x0165
 36: 0x0142 [0x42] SET_CLI_EVENT_CANCEL_DATA()
 37: 0x0143 [0x03] Work_Zone[2] = 10*
 38: 0x0148 [0x1D] PRINT_EVENT_MESSAGE(message_id=12544*)
    → "Thank you for your $0-bayld donation to the city. And now, let us proceed with the casting!"
 39: 0x014B [0x23] WAIT_FOR_DIALOG_INTERACTION
 40: 0x014C [0x73] EventEntity casts magic 497* on LocalPlayer
 41: 0x0157 [0x1C] WAIT(260* ticks)
 42: 0x015A [0x03] Work_Zone[1] = 1*
 43: 0x015F [0x05] ExtData[1]->WorkLocal[11] = 1
 44: 0x0162 [0x01] GOTO 0x016E
 45: 0x0165 [0x1D] PRINT_EVENT_MESSAGE(message_id=12545*)
    → "Um...how embarrassing... How should I say this...? You do not seem to possess ample bayld."
 46: 0x0168 [0x23] WAIT_FOR_DIALOG_INTERACTION
 47: 0x0169 [0x03] Work_Zone[1] = 1073741824*

SUBROUTINE_016E:
 48: 0x016E [0x01] GOTO 0x017C
 49: 0x0171 [0x02] IF !(Work_Zone[0] == 1*) GOTO 0x017C
 50: 0x0179 [0x01] GOTO 0x017C

SUBROUTINE_017C:
 51: 0x017C [0x01] GOTO 0x0183
 52: 0x017F [0x1D] PRINT_EVENT_MESSAGE(message_id=12540*)
    → "It pains me to report that I cannot cast Ionis upon you because none of the coalitions are advanced enough to impart any powers upon it."
 53: 0x0182 [0x23] WAIT_FOR_DIALOG_INTERACTION

SUBROUTINE_0183:
 54: 0x0183 [0x01] GOTO 0x02A9
 55: 0x0186 [0x02] IF !(Work_Zone[0] == 1*) GOTO 0x027F
 56: 0x018E [0x06] ExtData[1]->WorkLocal[12] = 0

SUBROUTINE_0191:
 57: 0x0191 [0x02] IF !(ExtData[1]->WorkLocal[12] == 0*) GOTO 0x027C
 58: 0x0199 [0x1D] PRINT_EVENT_MESSAGE(message_id=12547*)
    → "The power Ionis bestows fluctuates depending on how advanced each coalition is."
 59: 0x019C [0x23] WAIT_FOR_DIALOG_INTERACTION
 60: 0x019D [0x24] CREATE_DIALOG(message_id=12548*, default_option=0*, option_flags=0*)
    → "Select a coalition. [None./Pioneers'./Peacekeepers'./Couriers'./Scouts'./Inventors'./Mummers'.]"
 61: 0x01A4 [0x25] WAIT_DIALOG_SELECT()
 62: 0x01A5 [0x02] IF !(Work_Zone[0] == 0*) GOTO 0x01B3
 63: 0x01AD [0x05] ExtData[1]->WorkLocal[12] = 1
 64: 0x01B0 [0x01] GOTO 0x0279
 65: 0x01B3 [0x02] IF !(Work_Zone[0] == 1*) GOTO 0x01D4
 66: 0x01BB [0x03] Work_Zone[2] = 0*
 67: 0x01C0 [0x1D] PRINT_EVENT_MESSAGE(message_id=12549*)
    → "Here is how the [Pioneers'/Peacekeepers'/Couriers'/Scouts'/Inventors'/Mummers'] Coalition contributes to Ionis."
 68: 0x01C3 [0x23] WAIT_FOR_DIALOG_INTERACTION
 69: 0x01C4 [0x03] ExtData[1]->WorkLocal[10] = ExtData[1]->WorkLocal[2]
 70: 0x01C9 [0x03] ExtData[1]->WorkLocal[9] = 0*
 71: 0x01CE [0x1A] CALL_SUBROUTINE(address=0x02E2)
 72: 0x01D1 [0x01] GOTO 0x0279
 73: 0x01D4 [0x02] IF !(Work_Zone[0] == 2*) GOTO 0x01F5
 74: 0x01DC [0x03] Work_Zone[2] = 1*
 75: 0x01E1 [0x1D] PRINT_EVENT_MESSAGE(message_id=12549*)
    → "Here is how the [Pioneers'/Peacekeepers'/Couriers'/Scouts'/Inventors'/Mummers'] Coalition contributes to Ionis."
 76: 0x01E4 [0x23] WAIT_FOR_DIALOG_INTERACTION
 77: 0x01E5 [0x03] ExtData[1]->WorkLocal[10] = ExtData[1]->WorkLocal[3]
 78: 0x01EA [0x03] ExtData[1]->WorkLocal[9] = 1*
 79: 0x01EF [0x1A] CALL_SUBROUTINE(address=0x02E2)
 80: 0x01F2 [0x01] GOTO 0x0279
 81: 0x01F5 [0x02] IF !(Work_Zone[0] == 3*) GOTO 0x0216
 82: 0x01FD [0x03] Work_Zone[2] = 2*
 83: 0x0202 [0x1D] PRINT_EVENT_MESSAGE(message_id=12549*)
    → "Here is how the [Pioneers'/Peacekeepers'/Couriers'/Scouts'/Inventors'/Mummers'] Coalition contributes to Ionis."
 84: 0x0205 [0x23] WAIT_FOR_DIALOG_INTERACTION
 85: 0x0206 [0x03] ExtData[1]->WorkLocal[10] = ExtData[1]->WorkLocal[4]
 86: 0x020B [0x03] ExtData[1]->WorkLocal[9] = 2*
 87: 0x0210 [0x1A] CALL_SUBROUTINE(address=0x02E2)
 88: 0x0213 [0x01] GOTO 0x0279
 89: 0x0216 [0x02] IF !(Work_Zone[0] == 4*) GOTO 0x0237
 90: 0x021E [0x03] Work_Zone[2] = 3*
 91: 0x0223 [0x1D] PRINT_EVENT_MESSAGE(message_id=12549*)
    → "Here is how the [Pioneers'/Peacekeepers'/Couriers'/Scouts'/Inventors'/Mummers'] Coalition contributes to Ionis."
 92: 0x0226 [0x23] WAIT_FOR_DIALOG_INTERACTION
 93: 0x0227 [0x03] ExtData[1]->WorkLocal[10] = ExtData[1]->WorkLocal[5]
 94: 0x022C [0x03] ExtData[1]->WorkLocal[9] = 3*
 95: 0x0231 [0x1A] CALL_SUBROUTINE(address=0x02E2)
 96: 0x0234 [0x01] GOTO 0x0279
 97: 0x0237 [0x02] IF !(Work_Zone[0] == 5*) GOTO 0x0258
 98: 0x023F [0x03] Work_Zone[2] = 4*
 99: 0x0244 [0x1D] PRINT_EVENT_MESSAGE(message_id=12549*)
    → "Here is how the [Pioneers'/Peacekeepers'/Couriers'/Scouts'/Inventors'/Mummers'] Coalition contributes to Ionis."
100: 0x0247 [0x23] WAIT_FOR_DIALOG_INTERACTION
101: 0x0248 [0x03] ExtData[1]->WorkLocal[10] = ExtData[1]->WorkLocal[6]
102: 0x024D [0x03] ExtData[1]->WorkLocal[9] = 4*
103: 0x0252 [0x1A] CALL_SUBROUTINE(address=0x02E2)
104: 0x0255 [0x01] GOTO 0x0279
105: 0x0258 [0x02] IF !(Work_Zone[0] == 6*) GOTO 0x0279
106: 0x0260 [0x03] Work_Zone[2] = 5*
107: 0x0265 [0x1D] PRINT_EVENT_MESSAGE(message_id=12549*)
    → "Here is how the [Pioneers'/Peacekeepers'/Couriers'/Scouts'/Inventors'/Mummers'] Coalition contributes to Ionis."
108: 0x0268 [0x23] WAIT_FOR_DIALOG_INTERACTION
109: 0x0269 [0x03] ExtData[1]->WorkLocal[10] = ExtData[1]->WorkLocal[7]
110: 0x026E [0x03] ExtData[1]->WorkLocal[9] = 5*
111: 0x0273 [0x1A] CALL_SUBROUTINE(address=0x02E2)
112: 0x0276 [0x01] GOTO 0x0279

SUBROUTINE_0279:
113: 0x0279 [0x01] GOTO 0x0191
114: 0x027C [0x01] GOTO 0x02A9
115: 0x027F [0x02] IF !(Work_Zone[0] == 2*) GOTO 0x0296
116: 0x0287 [0x1D] PRINT_EVENT_MESSAGE(message_id=12557*)
    → "What a tricky question. Well...it is a thaumaturgical aura that grants multitudes of benefits to pioneers."
117: 0x028A [0x23] WAIT_FOR_DIALOG_INTERACTION
118: 0x028B [0x1D] PRINT_EVENT_MESSAGE(message_id=12558*)
    → "What is truly interesting is that this aura draws its powers from the various coalitions. The larger they grow, the more powerful the benefits each one will provide."
119: 0x028E [0x23] WAIT_FOR_DIALOG_INTERACTION
120: 0x028F [0x1D] PRINT_EVENT_MESSAGE(message_id=12559*)
    → "The more pioneering feats you perform, the more the coalitions develop, and the more beneficial Ionis becomes. Think of it as a virtuous cycle!"
121: 0x0292 [0x23] WAIT_FOR_DIALOG_INTERACTION
122: 0x0293 [0x01] GOTO 0x02A9
123: 0x0296 [0x02] IF !(Work_Zone[0] == 3*) GOTO 0x02A9
124: 0x029E [0x03] Work_Zone[1] = 1073741824*
125: 0x02A3 [0x05] ExtData[1]->WorkLocal[11] = 1
126: 0x02A6 [0x01] GOTO 0x02A9

SUBROUTINE_02A9:
127: 0x02A9 [0x01] GOTO 0x00F3
128: 0x02AC [0x02] IF !(ExtData[1]->WorkLocal[0] == 0*) GOTO 0x02C6
129: 0x02B4 [0x66] LOAD_EXT_SCHEDULER_MAIN: Load scheduler "tlk1" with entities [EventEntity, EventEntity], work=30*
130: 0x02C3 [0x01] GOTO 0x02E0
131: 0x02C6 [0x02] IF !(ExtData[1]->WorkLocal[0] == 1*) GOTO 0x02E0
132: 0x02CE [0x66] LOAD_EXT_SCHEDULER_MAIN: Load scheduler "tlb1" with entities [EventEntity, EventEntity], work=34*
133: 0x02DD [0x01] GOTO 0x02E0

SUBROUTINE_02E0:
134: 0x02E0 [0x21] END_EVENT
135: 0x02E1 [0x00] END_REQSTACK()

SUBROUTINE_02E2:
136: 0x02E2 [0x03] ExtData[1]->WorkLocal[8] = 0*
137: 0x02E7 [0x02] IF !(ExtData[1]->WorkLocal[10] > 0*) GOTO 0x02F6
138: 0x02EF [0x1D] PRINT_EVENT_MESSAGE(message_id=12550*)
    → "Whoops, it seems they do not add any additional effects."
139: 0x02F2 [0x23] WAIT_FOR_DIALOG_INTERACTION
140: 0x02F3 [0x01] GOTO 0x0452
141: 0x02F6 [0x3E] IF !(ExtData[1]->WorkLocal[10] bit 0*) GOTO 0x0314
142: 0x02FD [0x3E] IF !(ExtData[1]->WorkLocal[10] bit 4*) GOTO 0x030C
143: 0x0304 [0x03] ExtData[1]->WorkLocal[8] = 0*
144: 0x0309 [0x01] GOTO 0x0311
145: 0x030C [0x03] ExtData[1]->WorkLocal[8] = 1*

SUBROUTINE_0311:
146: 0x0311 [0x01] GOTO 0x0319
147: 0x0314 [0x03] ExtData[1]->WorkLocal[8] = 0*

SUBROUTINE_0319:
148: 0x0319 [0x02] IF !(ExtData[1]->WorkLocal[8] == 1*) GOTO 0x0329
149: 0x0321 [0x03] Work_Zone[2] = 0*
150: 0x0326 [0x1A] CALL_SUBROUTINE(address=0x0453)
151: 0x0329 [0x3E] IF !(ExtData[1]->WorkLocal[10] bit 1*) GOTO 0x0347
152: 0x0330 [0x3E] IF !(ExtData[1]->WorkLocal[10] bit 5*) GOTO 0x033F
153: 0x0337 [0x03] ExtData[1]->WorkLocal[8] = 0*
154: 0x033C [0x01] GOTO 0x0344
155: 0x033F [0x03] ExtData[1]->WorkLocal[8] = 1*

SUBROUTINE_0344:
156: 0x0344 [0x01] GOTO 0x034C
157: 0x0347 [0x03] ExtData[1]->WorkLocal[8] = 0*

SUBROUTINE_034C:
158: 0x034C [0x02] IF !(ExtData[1]->WorkLocal[8] == 1*) GOTO 0x035C
159: 0x0354 [0x03] Work_Zone[2] = 1*
160: 0x0359 [0x1A] CALL_SUBROUTINE(address=0x0453)
161: 0x035C [0x3E] IF !(ExtData[1]->WorkLocal[10] bit 2*) GOTO 0x037A
162: 0x0363 [0x3E] IF !(ExtData[1]->WorkLocal[10] bit 6*) GOTO 0x0372
163: 0x036A [0x03] ExtData[1]->WorkLocal[8] = 0*
164: 0x036F [0x01] GOTO 0x0377
165: 0x0372 [0x03] ExtData[1]->WorkLocal[8] = 1*

SUBROUTINE_0377:
166: 0x0377 [0x01] GOTO 0x037F
167: 0x037A [0x03] ExtData[1]->WorkLocal[8] = 0*

SUBROUTINE_037F:
168: 0x037F [0x02] IF !(ExtData[1]->WorkLocal[8] == 1*) GOTO 0x038F
169: 0x0387 [0x03] Work_Zone[2] = 2*
170: 0x038C [0x1A] CALL_SUBROUTINE(address=0x0453)
171: 0x038F [0x3E] IF !(ExtData[1]->WorkLocal[10] bit 3*) GOTO 0x03AD
172: 0x0396 [0x3E] IF !(ExtData[1]->WorkLocal[10] bit 7*) GOTO 0x03A5
173: 0x039D [0x03] ExtData[1]->WorkLocal[8] = 0*
174: 0x03A2 [0x01] GOTO 0x03AA
175: 0x03A5 [0x03] ExtData[1]->WorkLocal[8] = 1*

SUBROUTINE_03AA:
176: 0x03AA [0x01] GOTO 0x03B2
177: 0x03AD [0x03] ExtData[1]->WorkLocal[8] = 0*

SUBROUTINE_03B2:
178: 0x03B2 [0x02] IF !(ExtData[1]->WorkLocal[8] == 1*) GOTO 0x03C2
179: 0x03BA [0x03] Work_Zone[2] = 3*
180: 0x03BF [0x1A] CALL_SUBROUTINE(address=0x0453)
181: 0x03C2 [0x3E] IF !(ExtData[1]->WorkLocal[10] bit 4*) GOTO 0x03D1
182: 0x03C9 [0x03] ExtData[1]->WorkLocal[8] = 1*
183: 0x03CE [0x01] GOTO 0x03D6
184: 0x03D1 [0x03] ExtData[1]->WorkLocal[8] = 0*

SUBROUTINE_03D6:
185: 0x03D6 [0x02] IF !(ExtData[1]->WorkLocal[8] == 1*) GOTO 0x03E6
186: 0x03DE [0x03] Work_Zone[2] = 4*
187: 0x03E3 [0x1A] CALL_SUBROUTINE(address=0x0453)
188: 0x03E6 [0x3E] IF !(ExtData[1]->WorkLocal[10] bit 5*) GOTO 0x03F5
189: 0x03ED [0x03] ExtData[1]->WorkLocal[8] = 1*
190: 0x03F2 [0x01] GOTO 0x03FA
191: 0x03F5 [0x03] ExtData[1]->WorkLocal[8] = 0*

SUBROUTINE_03FA:
192: 0x03FA [0x02] IF !(ExtData[1]->WorkLocal[8] == 1*) GOTO 0x040A
193: 0x0402 [0x03] Work_Zone[2] = 5*
194: 0x0407 [0x1A] CALL_SUBROUTINE(address=0x0453)
195: 0x040A [0x3E] IF !(ExtData[1]->WorkLocal[10] bit 6*) GOTO 0x0419
196: 0x0411 [0x03] ExtData[1]->WorkLocal[8] = 1*
197: 0x0416 [0x01] GOTO 0x041E
198: 0x0419 [0x03] ExtData[1]->WorkLocal[8] = 0*

SUBROUTINE_041E:
199: 0x041E [0x02] IF !(ExtData[1]->WorkLocal[8] == 1*) GOTO 0x042E
200: 0x0426 [0x03] Work_Zone[2] = 6*
201: 0x042B [0x1A] CALL_SUBROUTINE(address=0x0453)
202: 0x042E [0x3E] IF !(ExtData[1]->WorkLocal[10] bit 7*) GOTO 0x043D
203: 0x0435 [0x03] ExtData[1]->WorkLocal[8] = 1*
204: 0x043A [0x01] GOTO 0x0442
205: 0x043D [0x03] ExtData[1]->WorkLocal[8] = 0*

SUBROUTINE_0442:
206: 0x0442 [0x02] IF !(ExtData[1]->WorkLocal[8] == 1*) GOTO 0x0452
207: 0x044A [0x03] Work_Zone[2] = 7*
208: 0x044F [0x1A] CALL_SUBROUTINE(address=0x0453)

SUBROUTINE_0452:
209: 0x0452 [0x1B] RETURN

SUBROUTINE_0453:
210: 0x0453 [0x02] IF !(ExtData[1]->WorkLocal[9] == 0*) GOTO 0x0462
211: 0x045B [0x1D] PRINT_EVENT_MESSAGE(message_id=12551*)
    → "Based on the state of their expansion, a [Minor Attack Enhancement/Minor Magic Attack Bonus/Minor Gathering Fatigue Reduction/Minor Gathering Efficacy Enhancement/Moderate Attack Enhancement/Moderate Magic Attack Bonus/Moderate Gathering Fatigue Reduction/Moderate Gathering Efficacy Enhancement] will be bestowed upon you."
212: 0x045E [0x23] WAIT_FOR_DIALOG_INTERACTION
213: 0x045F [0x01] GOTO 0x04AD
214: 0x0462 [0x02] IF !(ExtData[1]->WorkLocal[9] == 1*) GOTO 0x0471
215: 0x046A [0x1D] PRINT_EVENT_MESSAGE(message_id=12552*)
    → "Based on the state of their expansion, a [Minor Defense Enhancement/Minor Magic Defense Bonus/Minor HP and MP Recovery Enhancement/Minor Enhancement to Max HP and MP/Moderate Defense Enhancement/Moderate Magic Defense Bonus/Moderate HP and MP Recovery Enhancement/Moderate Enhancement to Max HP and MP] will be bestowed upon you."
216: 0x046D [0x23] WAIT_FOR_DIALOG_INTERACTION
217: 0x046E [0x01] GOTO 0x04AD
218: 0x0471 [0x02] IF !(ExtData[1]->WorkLocal[9] == 2*) GOTO 0x0480
219: 0x0479 [0x1D] PRINT_EVENT_MESSAGE(message_id=12553*)
    → "Based on the state of their expansion, a [Minor Accuracy and Magic Accuracy Enhancement/Minor Evasion and Magic Evasion Enhancement/Minor Critical Hit Rate Increase/Minor "Haste" Effect/Moderate Accuracy and Magic Accuracy Enhancement/Moderate Evasion and Magic Evasion Enhancement/Moderate Critical Hit Rate Increase/Moderate "Haste" Effect] will be bestowed upon you."
220: 0x047C [0x23] WAIT_FOR_DIALOG_INTERACTION
221: 0x047D [0x01] GOTO 0x04AD
222: 0x0480 [0x02] IF !(ExtData[1]->WorkLocal[9] == 3*) GOTO 0x048F
223: 0x0488 [0x1D] PRINT_EVENT_MESSAGE(message_id=12554*)
    → "Based on the state of their expansion, a [Minor "Save TP" Effect/Minor "Conserve MP" Effect/Minor "Fast Cast" Effect/Minor Resistance Increase to All Status Ailments/Moderate "Save TP" Effect/Moderate "Conserve MP" Effect/Moderate "Fast Cast" Effect/Moderate Resistance Increase to All Status Ailments] will be bestowed upon you."
224: 0x048B [0x23] WAIT_FOR_DIALOG_INTERACTION
225: 0x048C [0x01] GOTO 0x04AD
226: 0x048F [0x02] IF !(ExtData[1]->WorkLocal[9] == 4*) GOTO 0x049E
227: 0x0497 [0x1D] PRINT_EVENT_MESSAGE(message_id=12555*)
    → "Based on the state of their expansion, a [Minor Crystal Obtainment Rate Increase/Minor Material Loss Rate Reduction/Minor Synthesis Skill Gain Rate Increase/Minor Synthesis Success Rate Increase/Moderate Crystal Obtainment Rate Increase/Moderate Material Loss Rate Reduction/Moderate Synthesis Skill Gain Rate Increase/Moderate Synthesis Success Rate Increase] will be bestowed upon you."
228: 0x049A [0x23] WAIT_FOR_DIALOG_INTERACTION
229: 0x049B [0x01] GOTO 0x04AD
230: 0x049E [0x02] IF !(ExtData[1]->WorkLocal[9] == 5*) GOTO 0x04AD
231: 0x04A6 [0x1D] PRINT_EVENT_MESSAGE(message_id=12556*)
    → "Based on the state of their expansion, a [Minor Combat Skill Gain Rate Increase/Minor Magic Skill Gain Rate Increase/Minor Experience Point Bonus/Minor Reward Obtainment Rate Increase/Moderate Combat Skill Gain Rate Increase/Moderate Magic Skill Gain Rate Increase/Moderate Experience Point Bonus/Moderate Reward Obtainment Rate Increase] will be bestowed upon you."
232: 0x04A9 [0x23] WAIT_FOR_DIALOG_INTERACTION
233: 0x04AA [0x01] GOTO 0x04AD

SUBROUTINE_04AD:
234: 0x04AD [0x1B] RETURN
```
