# 17830087 - Wegellion

## Common Data

| Field            | Value                     |
|------------------|---------------------------|
| Zone             | Eastern Adoulin (ID: 257) |
| Block Size       | 1328 bytes                |
| Total Events     | 14                        |
| References Count | 47                        |

## List of Events

| Event ID              | Entrypoint   |   Size |   Instructions |
|-----------------------|--------------|--------|----------------|
| [65535](#event-65535) | 0x0000       |      1 |              1 |
| [5039](#event-5039)   | 0x0001       |     58 |             12 |
| [5040](#event-5040)   | 0x003B       |     66 |             16 |
| [1504](#event-1504)   | 0x007D       |      1 |              1 |
| [1517](#event-1517)   | 0x007E       |      1 |              1 |
| [5050](#event-5050)   | 0x007F       |      1 |              1 |
| [5051](#event-5051)   | 0x0080       |     43 |             11 |
| [5052](#event-5052)   | 0x00AB       |      1 |              1 |
| [5053](#event-5053)   | 0x00AC       |     29 |              7 |
| [5059](#event-5059)   | 0x00C9       |      1 |              1 |
| [5060](#event-5060)   | 0x00CA       |     33 |              9 |
| [5111](#event-5111)   | 0x00EB       |    210 |             37 |
| [5120](#event-5120)   | 0x01BD       |     74 |             14 |
| [5227](#event-5227)   | 0x0207       |    549 |             87 |

## DAT References (imed_data)

|   Index | Hex Value   |   Dec Value |
|---------|-------------|-------------|
|       0 | 0x0000      |           0 |
|       1 | 0x001E      |          30 |
|       2 | 0x28BC      |       10428 |
|       3 | 0x28B9      |       10425 |
|       4 | 0x28BA      |       10426 |
|       5 | 0x28BB      |       10427 |
|       6 | 0x27B0      |       10160 |
|       7 | 0x111E      |        4382 |
|       8 | 0x027D      |         637 |
|       9 | 0x27B1      |       10161 |
|      10 | 0x27CD      |       10189 |
|      11 | 0x280E      |       10254 |
|      12 | 0x280F      |       10255 |
|      13 | 0x2B26      |       11046 |
|      14 | 0x2B27      |       11047 |
|      15 | 0x2B28      |       11048 |
|      16 | 0x003C      |          60 |
|      17 | 0x2B29      |       11049 |
|      18 | 0x2B2A      |       11050 |
|      19 | 0x2B2B      |       11051 |
|      20 | 0x2B2C      |       11052 |
|      21 | 0x2B2D      |       11053 |
|      22 | 0x0B1A      |        2842 |
|      23 | 0x2D87      |       11655 |
|      24 | 0x0028      |          40 |
|      25 | 0x00C8      |         200 |
|      26 | 0x0050      |          80 |
|      27 | 0x2D88      |       11656 |
|      28 | 0x0064      |         100 |
|      29 | 0x2D89      |       11657 |
|      30 | 0x2D8A      |       11658 |
|      31 | 0x2D8B      |       11659 |
|      32 | 0x2D8C      |       11660 |
|      33 | 0x2D8D      |       11661 |
|      34 | 0x2D8E      |       11662 |
|      35 | 0x2D8F      |       11663 |
|      36 | 0x0001      |           1 |
|      37 | 0x0002      |           2 |
|      38 | 0x2D91      |       11665 |
|      39 | 0x2D90      |       11664 |
|      40 | 0x0005      |           5 |
|      41 | 0x2D92      |       11666 |
|      42 | 0x2D93      |       11667 |
|      43 | 0x2D94      |       11668 |
|      44 | 0x00C7      |         199 |
|      45 | 0x2D95      |       11669 |
|      46 | 0x00C9      |         201 |

## String References

- **10160**: Maester Margret has pledged her support to your cause.
- **10161**: Bring us $0 and $1 that she might continue her pursuits.
- **10189**: Difficult though it is to forget Ari-Barali's sordid tale, I'll make sure word of it never leaves my lips.
- **10254**: Reepi-Molpi? He ventured off towards Yorcia Weald.
- **10255**: As grizzled an outdoorsman as he sounds, I fear for his safety. Would you mind checking up on him?
- **10425**: Oh, pardon me. You're searching for records on Adoulin's founding?
- **10426**: I believe your best bet would be to flip through some of our historical primers.
- **10427**: They're all on that shelf over there. You can have one, but we kindly ask you to refrain from taking any more with you.
- **10428**: All the documents we've compiled in the coalition are for public use. Search 'til your fingers are covered in paper cuts if you want.
- **11046**: Hey, that looks like the Scouts' Coalition-issue parchment we used for daily reports.
- **11047**: Writing on it with a special ink renders the text invisible to those without the proper decoding tools.
- **11048**: Judging from its consistency, I'd say it's the type our espionage agents stopped using a little while ago.
- **11049**: "How do you decode them?"
- **11050**: Hmmm... I guess if we're not using them anymore, there's no need to keep the process a secret.
- **11051**: The magic happens in Foret de Hennetiel. Certain poisons in the Zoldeff River will react with the ink, causing it to change color. Downright sorcerous, yeah?
- **11052**: I've seen Palomel taking some sheets from the stockroom every now and then, but I can't imagine she actually uses them. I know twitherym that're more skilled with ciphers than she is.
- **11053**: If you wanna see the magic in action, dip that paper somewhere along the Zoldeff River in Foret de Hennetiel.
- **11655**: Wh-where on Vana'diel did you stumble across that hat?
- **11656**: What a terrible situation. I'd recognize that brim anywhere--that hat almost certainly belonged to Cedricaste.
- **11657**: He was a damn fine man, and a mentor to Margret in her younger years.
- **11658**: How does the saying go? "A person like him only appears once a century"? The coalition is lucky that we had two--Cedricaste and Margret.
- **11659**: Margret held him in the highest regard--we all did--and to think he met such an ignoble end in the hinterlands...
- **11660**: Perhaps you think this morbid, but...would you mind if I had that hat? I promise to treat it with the utmost care.
- **11661**: As talented as Margret is, she is young of age and should be looking toward the future, not beholden to the past.
- **11662**: When the time is right, I'll tell her the truth.
- **11663**: What do you do? [Hand over the hat./Keep it for yourself.]
- **11664**: I beg you to reconsider. This article means a lot to the coalition.
- **11665**: You have my sincerest thanks.
- **11666**: Cedricaste taught me that although the eyes may be deceived, the mind can always find the truth.
- **11667**: That's why all forms of information are valuable.
- **11668**: Margret doesn't need to know of our little arrangement.
- **11669**: Consider this not as hush money, but as payment for finding an invaluable artifact of the coalition.

## Events

### Event 65535

#### Metadata

| Field        | Value   |
|--------------|---------|
| Entrypoint   | 0x0000  |
| Data Size    | 1 bytes |
| Instructions | 1       |

```
      00 01 02 03 04 05 06 07  08 09 0A 0B 0C 0D 0E 0F
      -- -- -- -- -- -- -- --  -- -- -- -- -- -- -- --
0000: 00                                                .               
```

#### Opcodes

```
  0: 0x0000 [0x00] END_REQSTACK()
```

### Event 5039

#### Metadata

| Field        | Value    |
|--------------|----------|
| Entrypoint   | 0x0001   |
| Data Size    | 58 bytes |
| Instructions | 12       |

```
      00 01 02 03 04 05 06 07  08 09 0A 0B 0C 0D 0E 0F
      -- -- -- -- -- -- -- --  -- -- -- -- -- -- -- --
0000:    4A F0 FF FF 7F F8 FF  FF 7F 1E F0 FF FF 7F 6F   J.............o
0010: 70 66 00 80 F8 FF FF 7F  F8 FF FF 7F 74 6C 6B 30  pf..........tlk0
0020: 1C 01 80 1D 02 80 23 66  00 80 F8 FF FF 7F F8 FF  ......#f........
0030: FF 7F 74 65 6E 30 1C 01  80 21 00                 ..ten0...!.     
```

#### Opcodes

```
  0: 0x0001 [0x4A] LocalPlayer looks at EventEntity
  1: 0x000A [0x1E] EventEntity looks at LocalPlayer and starts talking
  2: 0x000F [0x6F] WAIT_FRAME_DELAY: Yield until WaitTime reaches zero
  3: 0x0010 [0x70] WAIT_ENTITY_RENDER_FLAG: Wait while EventEntity->Render.Flags3 bit 2 is set (cancel turn if not)
  4: 0x0011 [0x66] LOAD_EXT_SCHEDULER_MAIN: Load scheduler "tlk0" with entities [EventEntity, EventEntity], work=0*
  5: 0x0020 [0x1C] WAIT(30* ticks)
  6: 0x0023 [0x1D] PRINT_EVENT_MESSAGE(message_id=10428*)
    → "All the documents we've compiled in the coalition are for public use. Search 'til your fingers are covered in paper cuts if you want."
  7: 0x0026 [0x23] WAIT_FOR_DIALOG_INTERACTION
  8: 0x0027 [0x66] LOAD_EXT_SCHEDULER_MAIN: Load scheduler "ten0" with entities [EventEntity, EventEntity], work=0*
  9: 0x0036 [0x1C] WAIT(30* ticks)
 10: 0x0039 [0x21] END_EVENT
 11: 0x003A [0x00] END_REQSTACK()
```

### Event 5040

#### Metadata

| Field        | Value    |
|--------------|----------|
| Entrypoint   | 0x003B   |
| Data Size    | 66 bytes |
| Instructions | 16       |

```
      00 01 02 03 04 05 06 07  08 09 0A 0B 0C 0D 0E 0F
      -- -- -- -- -- -- -- --  -- -- -- -- -- -- -- --
0030:                                   4A F0 FF FF 7F             J....
0040: F8 FF FF 7F 1E F0 FF FF  7F 6F 70 1D 03 80 23 66  .........op...#f
0050: 00 80 F8 FF FF 7F F8 FF  FF 7F 74 6C 6B 31 1C 01  ..........tlk1..
0060: 80 1D 04 80 23 1D 05 80  23 66 00 80 F8 FF FF 7F  ....#...#f......
0070: F8 FF FF 7F 74 65 6E 31  1C 01 80 21 00           ....ten1...!.   
```

#### Opcodes

```
  0: 0x003B [0x4A] LocalPlayer looks at EventEntity
  1: 0x0044 [0x1E] EventEntity looks at LocalPlayer and starts talking
  2: 0x0049 [0x6F] WAIT_FRAME_DELAY: Yield until WaitTime reaches zero
  3: 0x004A [0x70] WAIT_ENTITY_RENDER_FLAG: Wait while EventEntity->Render.Flags3 bit 2 is set (cancel turn if not)
  4: 0x004B [0x1D] PRINT_EVENT_MESSAGE(message_id=10425*)
    → "Oh, pardon me. You're searching for records on Adoulin's founding?"
  5: 0x004E [0x23] WAIT_FOR_DIALOG_INTERACTION
  6: 0x004F [0x66] LOAD_EXT_SCHEDULER_MAIN: Load scheduler "tlk1" with entities [EventEntity, EventEntity], work=0*
  7: 0x005E [0x1C] WAIT(30* ticks)
  8: 0x0061 [0x1D] PRINT_EVENT_MESSAGE(message_id=10426*)
    → "I believe your best bet would be to flip through some of our historical primers."
  9: 0x0064 [0x23] WAIT_FOR_DIALOG_INTERACTION
 10: 0x0065 [0x1D] PRINT_EVENT_MESSAGE(message_id=10427*)
    → "They're all on that shelf over there. You can have one, but we kindly ask you to refrain from taking any more with you."
 11: 0x0068 [0x23] WAIT_FOR_DIALOG_INTERACTION
 12: 0x0069 [0x66] LOAD_EXT_SCHEDULER_MAIN: Load scheduler "ten1" with entities [EventEntity, EventEntity], work=0*
 13: 0x0078 [0x1C] WAIT(30* ticks)
 14: 0x007B [0x21] END_EVENT
 15: 0x007C [0x00] END_REQSTACK()
```

### Event 1504

#### Metadata

| Field        | Value   |
|--------------|---------|
| Entrypoint   | 0x007D  |
| Data Size    | 1 bytes |
| Instructions | 1       |

```
      00 01 02 03 04 05 06 07  08 09 0A 0B 0C 0D 0E 0F
      -- -- -- -- -- -- -- --  -- -- -- -- -- -- -- --
0070:                                         00                     .  
```

#### Opcodes

```
  0: 0x007D [0x00] END_REQSTACK()
```

### Event 1517

#### Metadata

| Field        | Value   |
|--------------|---------|
| Entrypoint   | 0x007E  |
| Data Size    | 1 bytes |
| Instructions | 1       |

```
      00 01 02 03 04 05 06 07  08 09 0A 0B 0C 0D 0E 0F
      -- -- -- -- -- -- -- --  -- -- -- -- -- -- -- --
0070:                                            00                   . 
```

#### Opcodes

```
  0: 0x007E [0x00] END_REQSTACK()
```

### Event 5050

#### Metadata

| Field        | Value   |
|--------------|---------|
| Entrypoint   | 0x007F  |
| Data Size    | 1 bytes |
| Instructions | 1       |

```
      00 01 02 03 04 05 06 07  08 09 0A 0B 0C 0D 0E 0F
      -- -- -- -- -- -- -- --  -- -- -- -- -- -- -- --
0070:                                               00                 .
```

#### Opcodes

```
  0: 0x007F [0x00] END_REQSTACK()
```

### Event 5051

#### Metadata

| Field        | Value    |
|--------------|----------|
| Entrypoint   | 0x0080   |
| Data Size    | 43 bytes |
| Instructions | 11       |

```
      00 01 02 03 04 05 06 07  08 09 0A 0B 0C 0D 0E 0F
      -- -- -- -- -- -- -- --  -- -- -- -- -- -- -- --
0080: 1E F0 FF FF 7F 1C 01 80  66 00 80 F8 FF FF 7F F8  ........f.......
0090: FF FF 7F 74 6C 6B 30 1D  06 80 23 03 02 10 07 80  ...tlk0...#.....
00A0: 03 03 10 08 80 1D 09 80  23 21 00                 ........#!.     
```

#### Opcodes

```
  0: 0x0080 [0x1E] EventEntity looks at LocalPlayer and starts talking
  1: 0x0085 [0x1C] WAIT(30* ticks)
  2: 0x0088 [0x66] LOAD_EXT_SCHEDULER_MAIN: Load scheduler "tlk0" with entities [EventEntity, EventEntity], work=0*
  3: 0x0097 [0x1D] PRINT_EVENT_MESSAGE(message_id=10160*)
    → "Maester Margret has pledged her support to your cause."
  4: 0x009A [0x23] WAIT_FOR_DIALOG_INTERACTION
  5: 0x009B [0x03] Work_Zone[2] = 4382*
  6: 0x00A0 [0x03] Work_Zone[3] = 637*
  7: 0x00A5 [0x1D] PRINT_EVENT_MESSAGE(message_id=10161*)
    → "Bring us $0 and $1 that she might continue her pursuits."
  8: 0x00A8 [0x23] WAIT_FOR_DIALOG_INTERACTION
  9: 0x00A9 [0x21] END_EVENT
 10: 0x00AA [0x00] END_REQSTACK()
```

### Event 5052

#### Metadata

| Field        | Value   |
|--------------|---------|
| Entrypoint   | 0x00AB  |
| Data Size    | 1 bytes |
| Instructions | 1       |

```
      00 01 02 03 04 05 06 07  08 09 0A 0B 0C 0D 0E 0F
      -- -- -- -- -- -- -- --  -- -- -- -- -- -- -- --
00A0:                                   00                         .    
```

#### Opcodes

```
  0: 0x00AB [0x00] END_REQSTACK()
```

### Event 5053

#### Metadata

| Field        | Value    |
|--------------|----------|
| Entrypoint   | 0x00AC   |
| Data Size    | 29 bytes |
| Instructions | 7        |

```
      00 01 02 03 04 05 06 07  08 09 0A 0B 0C 0D 0E 0F
      -- -- -- -- -- -- -- --  -- -- -- -- -- -- -- --
00A0:                                      1E F0 FF FF              ....
00B0: 7F 1C 01 80 66 00 80 F8  FF FF 7F F8 FF FF 7F 74  ....f..........t
00C0: 6C 6B 30 1D 0A 80 23 21  00                       lk0...#!.       
```

#### Opcodes

```
  0: 0x00AC [0x1E] EventEntity looks at LocalPlayer and starts talking
  1: 0x00B1 [0x1C] WAIT(30* ticks)
  2: 0x00B4 [0x66] LOAD_EXT_SCHEDULER_MAIN: Load scheduler "tlk0" with entities [EventEntity, EventEntity], work=0*
  3: 0x00C3 [0x1D] PRINT_EVENT_MESSAGE(message_id=10189*)
    → "Difficult though it is to forget Ari-Barali's sordid tale, I'll make sure word of it never leaves my lips."
  4: 0x00C6 [0x23] WAIT_FOR_DIALOG_INTERACTION
  5: 0x00C7 [0x21] END_EVENT
  6: 0x00C8 [0x00] END_REQSTACK()
```

### Event 5059

#### Metadata

| Field        | Value   |
|--------------|---------|
| Entrypoint   | 0x00C9  |
| Data Size    | 1 bytes |
| Instructions | 1       |

```
      00 01 02 03 04 05 06 07  08 09 0A 0B 0C 0D 0E 0F
      -- -- -- -- -- -- -- --  -- -- -- -- -- -- -- --
00C0:                             00                             .      
```

#### Opcodes

```
  0: 0x00C9 [0x00] END_REQSTACK()
```

### Event 5060

#### Metadata

| Field        | Value    |
|--------------|----------|
| Entrypoint   | 0x00CA   |
| Data Size    | 33 bytes |
| Instructions | 9        |

```
      00 01 02 03 04 05 06 07  08 09 0A 0B 0C 0D 0E 0F
      -- -- -- -- -- -- -- --  -- -- -- -- -- -- -- --
00C0:                                1E F0 FF FF 7F 1C            ......
00D0: 01 80 66 00 80 F8 FF FF  7F F8 FF FF 7F 74 6C 6B  ..f..........tlk
00E0: 30 1D 0B 80 23 1D 0C 80  23 21 00                 0...#...#!.     
```

#### Opcodes

```
  0: 0x00CA [0x1E] EventEntity looks at LocalPlayer and starts talking
  1: 0x00CF [0x1C] WAIT(30* ticks)
  2: 0x00D2 [0x66] LOAD_EXT_SCHEDULER_MAIN: Load scheduler "tlk0" with entities [EventEntity, EventEntity], work=0*
  3: 0x00E1 [0x1D] PRINT_EVENT_MESSAGE(message_id=10254*)
    → "Reepi-Molpi? He ventured off towards Yorcia Weald."
  4: 0x00E4 [0x23] WAIT_FOR_DIALOG_INTERACTION
  5: 0x00E5 [0x1D] PRINT_EVENT_MESSAGE(message_id=10255*)
    → "As grizzled an outdoorsman as he sounds, I fear for his safety. Would you mind checking up on him?"
  6: 0x00E8 [0x23] WAIT_FOR_DIALOG_INTERACTION
  7: 0x00E9 [0x21] END_EVENT
  8: 0x00EA [0x00] END_REQSTACK()
```

### Event 5111

#### Metadata

| Field        | Value     |
|--------------|-----------|
| Entrypoint   | 0x00EB    |
| Data Size    | 210 bytes |
| Instructions | 37        |

```
      00 01 02 03 04 05 06 07  08 09 0A 0B 0C 0D 0E 0F
      -- -- -- -- -- -- -- --  -- -- -- -- -- -- -- --
00E0:                                   42 1E F0 FF FF             B....
00F0: 7F 6F 70 4A F0 FF FF 7F  F8 FF FF 7F 6F 76 F0 FF  .opJ........ov..
0100: FF 7F 1D 0D 80 23 66 00  80 F8 FF FF 7F F8 FF FF  .....#f.........
0110: 7F 74 6C 6B 31 1D 0E 80  23 1D 0F 80 23 29 08 F0  .tlk1...#...#)..
0120: FF FF 7F 17 1C 10 80 66  00 80 F8 FF FF 7F F8 FF  .......f........
0130: FF 7F 74 65 6E 31 1D 11  80 23 53 F8 FF FF 7F F8  ..ten1...#S.....
0140: FF FF 7F 74 65 6E 31 7B  F8 FF FF 7F 66 00 80 F8  ...ten1{....f...
0150: FF FF 7F F8 FF FF 7F 74  68 6B 31 1D 12 80 23 53  .......thk1...#S
0160: F8 FF FF 7F F8 FF FF 7F  74 68 6B 31 66 00 80 F8  ........thk1f...
0170: FF FF 7F F8 FF FF 7F 74  68 6B 32 53 F8 FF FF 7F  .......thk2S....
0180: F8 FF FF 7F 74 68 6B 32  79 00 F8 FF FF 7F F0 FF  ....thk2y.......
0190: FF 7F 66 00 80 F8 FF FF  7F F8 FF FF 7F 74 6C 6B  ..f..........tlk
01A0: 30 1D 13 80 23 1D 14 80  23 66 00 80 F8 FF FF 7F  0...#...#f......
01B0: F8 FF FF 7F 74 65 6E 30  1C 01 80 21 00           ....ten0...!.   
```

#### Opcodes

```
  0: 0x00EB [0x42] SET_CLI_EVENT_CANCEL_DATA()
  1: 0x00EC [0x1E] EventEntity looks at LocalPlayer and starts talking
  2: 0x00F1 [0x6F] WAIT_FRAME_DELAY: Yield until WaitTime reaches zero
  3: 0x00F2 [0x70] WAIT_ENTITY_RENDER_FLAG: Wait while EventEntity->Render.Flags3 bit 2 is set (cancel turn if not)
  4: 0x00F3 [0x4A] LocalPlayer looks at EventEntity
  5: 0x00FC [0x6F] WAIT_FRAME_DELAY: Yield until WaitTime reaches zero
  6: 0x00FD [0x76] CHECK_ENTITY_RENDER_FLAGS: Wait until LocalPlayer Render.Flags0 and Render.Flags3 conditions are met
  7: 0x0102 [0x1D] PRINT_EVENT_MESSAGE(message_id=11046*)
    → "Hey, that looks like the Scouts' Coalition-issue parchment we used for daily reports."
  8: 0x0105 [0x23] WAIT_FOR_DIALOG_INTERACTION
  9: 0x0106 [0x66] LOAD_EXT_SCHEDULER_MAIN: Load scheduler "tlk1" with entities [EventEntity, EventEntity], work=0*
 10: 0x0115 [0x1D] PRINT_EVENT_MESSAGE(message_id=11047*)
    → "Writing on it with a special ink renders the text invisible to those without the proper decoding tools."
 11: 0x0118 [0x23] WAIT_FOR_DIALOG_INTERACTION
 12: 0x0119 [0x1D] PRINT_EVENT_MESSAGE(message_id=11048*)
    → "Judging from its consistency, I'd say it's the type our espionage agents stopped using a little while ago."
 13: 0x011C [0x23] WAIT_FOR_DIALOG_INTERACTION
 14: 0x011D [0x29] REQ_SET_WAIT(priority=0x08, entity_id=LocalPlayer, tag_num=0x17)
 15: 0x0124 [0x1C] WAIT(60* ticks)
 16: 0x0127 [0x66] LOAD_EXT_SCHEDULER_MAIN: Load scheduler "ten1" with entities [EventEntity, EventEntity], work=0*
 17: 0x0136 [0x1D] PRINT_EVENT_MESSAGE(message_id=11049*)
    → ""How do you decode them?""
 18: 0x0139 [0x23] WAIT_FOR_DIALOG_INTERACTION
 19: 0x013A [0x53] WAIT_SCHEDULER_TASK: Wait for scheduler "ten1" with entities [EventEntity, EventEntity]
 20: 0x0147 [0x7B] EventEntity stops talking
 21: 0x014C [0x66] LOAD_EXT_SCHEDULER_MAIN: Load scheduler "thk1" with entities [EventEntity, EventEntity], work=0*
 22: 0x015B [0x1D] PRINT_EVENT_MESSAGE(message_id=11050*)
    → "Hmmm... I guess if we're not using them anymore, there's no need to keep the process a secret."
 23: 0x015E [0x23] WAIT_FOR_DIALOG_INTERACTION
 24: 0x015F [0x53] WAIT_SCHEDULER_TASK: Wait for scheduler "thk1" with entities [EventEntity, EventEntity]
 25: 0x016C [0x66] LOAD_EXT_SCHEDULER_MAIN: Load scheduler "thk2" with entities [EventEntity, EventEntity], work=0*
 26: 0x017B [0x53] WAIT_SCHEDULER_TASK: Wait for scheduler "thk2" with entities [EventEntity, EventEntity]
 27: 0x0188 [0x79] EventEntity looks at LocalPlayer (Basic look)
 28: 0x0192 [0x66] LOAD_EXT_SCHEDULER_MAIN: Load scheduler "tlk0" with entities [EventEntity, EventEntity], work=0*
 29: 0x01A1 [0x1D] PRINT_EVENT_MESSAGE(message_id=11051*)
    → "The magic happens in Foret de Hennetiel. Certain poisons in the Zoldeff River will react with the ink, causing it to change color. Downright sorcerous, yeah?"
 30: 0x01A4 [0x23] WAIT_FOR_DIALOG_INTERACTION
 31: 0x01A5 [0x1D] PRINT_EVENT_MESSAGE(message_id=11052*)
    → "I've seen Palomel taking some sheets from the stockroom every now and then, but I can't imagine she actually uses them. I know twitherym that're more skilled with ciphers than she is."
 32: 0x01A8 [0x23] WAIT_FOR_DIALOG_INTERACTION
 33: 0x01A9 [0x66] LOAD_EXT_SCHEDULER_MAIN: Load scheduler "ten0" with entities [EventEntity, EventEntity], work=0*
 34: 0x01B8 [0x1C] WAIT(30* ticks)
 35: 0x01BB [0x21] END_EVENT
 36: 0x01BC [0x00] END_REQSTACK()
```

### Event 5120

#### Metadata

| Field        | Value    |
|--------------|----------|
| Entrypoint   | 0x01BD   |
| Data Size    | 74 bytes |
| Instructions | 14       |

```
      00 01 02 03 04 05 06 07  08 09 0A 0B 0C 0D 0E 0F
      -- -- -- -- -- -- -- --  -- -- -- -- -- -- -- --
01B0:                                         1E F0 FF               ...
01C0: FF 7F 6F 70 4A F0 FF FF  7F F8 FF FF 7F 6F 76 F0  ..opJ........ov.
01D0: FF FF 7F 66 00 80 F8 FF  FF 7F F8 FF FF 7F 74 6C  ...f..........tl
01E0: 6B 31 1D 15 80 23 53 F8  FF FF 7F F8 FF FF 7F 74  k1...#S........t
01F0: 6C 6B 31 66 00 80 F8 FF  FF 7F F8 FF FF 7F 74 65  lk1f..........te
0200: 6E 31 1C 01 80 21 00                              n1...!.         
```

#### Opcodes

```
  0: 0x01BD [0x1E] EventEntity looks at LocalPlayer and starts talking
  1: 0x01C2 [0x6F] WAIT_FRAME_DELAY: Yield until WaitTime reaches zero
  2: 0x01C3 [0x70] WAIT_ENTITY_RENDER_FLAG: Wait while EventEntity->Render.Flags3 bit 2 is set (cancel turn if not)
  3: 0x01C4 [0x4A] LocalPlayer looks at EventEntity
  4: 0x01CD [0x6F] WAIT_FRAME_DELAY: Yield until WaitTime reaches zero
  5: 0x01CE [0x76] CHECK_ENTITY_RENDER_FLAGS: Wait until LocalPlayer Render.Flags0 and Render.Flags3 conditions are met
  6: 0x01D3 [0x66] LOAD_EXT_SCHEDULER_MAIN: Load scheduler "tlk1" with entities [EventEntity, EventEntity], work=0*
  7: 0x01E2 [0x1D] PRINT_EVENT_MESSAGE(message_id=11053*)
    → "If you wanna see the magic in action, dip that paper somewhere along the Zoldeff River in Foret de Hennetiel."
  8: 0x01E5 [0x23] WAIT_FOR_DIALOG_INTERACTION
  9: 0x01E6 [0x53] WAIT_SCHEDULER_TASK: Wait for scheduler "tlk1" with entities [EventEntity, EventEntity]
 10: 0x01F3 [0x66] LOAD_EXT_SCHEDULER_MAIN: Load scheduler "ten1" with entities [EventEntity, EventEntity], work=0*
 11: 0x0202 [0x1C] WAIT(30* ticks)
 12: 0x0205 [0x21] END_EVENT
 13: 0x0206 [0x00] END_REQSTACK()
```

### Event 5227

#### Metadata

| Field        | Value     |
|--------------|-----------|
| Entrypoint   | 0x0207    |
| Data Size    | 549 bytes |
| Instructions | 86        |

```
      00 01 02 03 04 05 06 07  08 09 0A 0B 0C 0D 0E 0F
      -- -- -- -- -- -- -- --  -- -- -- -- -- -- -- --
0200:                      42  1E F0 FF FF 7F 6F 70 4A         B.....opJ
0210: F0 FF FF 7F F8 FF FF 7F  6F 76 F0 FF FF 7F CC 20  ........ov..... 
0220: 16 80 1D 17 80 23 CC 20  00 80 27 08 F0 FF FF 7F  .....#. ..'.....
0230: 10 1C 18 80 45 19 80 F0  FF FF 7F F0 FF FF 7F 66  ....E..........f
0240: 64 6F 31 00 80 55 19 80  F0 FF FF 7F F0 FF FF 7F  do1..U..........
0250: 66 64 6F 31 1C 1A 80 45  19 80 F0 FF FF 7F F0 FF  fdo1...E........
0260: FF 7F 66 64 69 31 00 80  1C 01 80 27 08 F0 FF FF  ..fdi1.....'....
0270: 7F 11 03 02 10 16 80 1D  1B 80 1C 10 80 5F 06 00  ............._..
0280: 80 F8 FF FF 7F F8 FF FF  7F 74 68 6B 31 1C 80 23  .........thk1..#
0290: 1D 1D 80 23 1D 1E 80 5F  07 F8 FF FF 7F F8 FF FF  ...#..._........
02A0: 7F 74 68 6B 31 23 5F 06  00 80 F8 FF FF 7F F8 FF  .thk1#_.........
02B0: FF 7F 74 68 6B 32 1C 80  1D 1F 80 5F 07 F8 FF FF  ..thk2....._....
02C0: 7F F8 FF FF 7F 74 68 6B  32 23 5F 06 00 80 F8 FF  .....thk2#_.....
02D0: FF 7F F8 FF FF 7F 74 6C  6B 31 1C 80 1D 20 80 23  ......tlk1... .#
02E0: 1D 21 80 5F 07 F8 FF FF  7F F8 FF FF 7F 74 6C 6B  .!._.........tlk
02F0: 31 23 5F 06 00 80 F8 FF  FF 7F F8 FF FF 7F 74 65  1#_...........te
0300: 6E 31 1C 80 1D 22 80 5F  07 F8 FF FF 7F F8 FF FF  n1..."._........
0310: 7F 74 65 6E 31 23 06 00  17 24 23 80 00 80 00 80  .ten1#...$#.....
0320: 25 02 00 10 00 80 00 65  03 02 00 17 24 80 00 5B  %......e....$..[
0330: 03 5F 06 25 80 F8 FF FF  7F F8 FF FF 7F 74 6C 64  ._.%.........tld
0340: 31 1C 80 1D 26 80 5F 07  F8 FF FF 7F F8 FF FF 7F  1...&._.........
0350: 74 6C 64 31 23 06 00 17  01 62 03 1D 26 80 1C 1C  tld1#....b..&...
0360: 80 23 01 A9 03 02 00 10  24 80 00 A9 03 02 00 17  .#......$.......
0370: 24 80 00 7C 03 1D 27 80  23 01 A3 03 05 00 17 5F  $..|..'.#......_
0380: 06 25 80 F8 FF FF 7F F8  FF FF 7F 74 6C 64 30 1C  .%.........tld0.
0390: 80 1D 27 80 5F 07 F8 FF  FF 7F F8 FF FF 7F 74 6C  ..'._.........tl
03A0: 64 30 23 01 19 03 01 A9  03 5F 06 28 80 F8 FF FF  d0#......_.(....
03B0: 7F F8 FF FF 7F 74 6C 62  30 1C 80 1D 29 80 23 1D  .....tlb0...).#.
03C0: 2A 80 5F 07 F8 FF FF 7F  F8 FF FF 7F 74 6C 62 30  *._.........tlb0
03D0: 23 5F 06 28 80 F8 FF FF  7F F8 FF FF 7F 74 6C 62  #_.(.........tlb
03E0: 31 1C 80 1D 2B 80 5F 07  F8 FF FF 7F F8 FF FF 7F  1...+._.........
03F0: 74 6C 62 31 23 5F 06 00  80 F8 FF FF 7F F8 FF FF  tlb1#_..........
0400: 7F 70 61 73 30 2C 80 1D  2D 80 5F 07 F8 FF FF 7F  .pas0,..-._.....
0410: F8 FF FF 7F 70 61 73 30  23 45 2E 80 F0 FF FF 7F  ....pas0#E......
0420: F0 FF FF 7F 71 73 74 63  00 80 21 00              ....qstc..!.    
```

#### Opcodes

```
  0: 0x0207 [0x42] SET_CLI_EVENT_CANCEL_DATA()
  1: 0x0208 [0x1E] EventEntity looks at LocalPlayer and starts talking
  2: 0x020D [0x6F] WAIT_FRAME_DELAY: Yield until WaitTime reaches zero
  3: 0x020E [0x70] WAIT_ENTITY_RENDER_FLAG: Wait while EventEntity->Render.Flags3 bit 2 is set (cancel turn if not)
  4: 0x020F [0x4A] LocalPlayer looks at EventEntity
  5: 0x0218 [0x6F] WAIT_FRAME_DELAY: Yield until WaitTime reaches zero
  6: 0x0219 [0x76] CHECK_ENTITY_RENDER_FLAGS: Wait until LocalPlayer Render.Flags0 and Render.Flags3 conditions are met
  7: 0x021E [0xCC] ITEM_INFO_WINDOW_HANDLER(case=0x20 - Event item window create/destroy, window_action=2842*)
  8: 0x0222 [0x1D] PRINT_EVENT_MESSAGE(message_id=11655*)
    → "Wh-where on Vana'diel did you stumble across that hat?"
  9: 0x0225 [0x23] WAIT_FOR_DIALOG_INTERACTION
 10: 0x0226 [0xCC] ITEM_INFO_WINDOW_HANDLER(case=0x20 - Event item window create/destroy, window_action=0*)
 11: 0x022A [0x27] REQ_SET(priority=0x08, entity_id=LocalPlayer, tag_num=0x10)
 12: 0x0231 [0x1C] WAIT(40* ticks)
 13: 0x0234 [0x45] LOAD_SCHEDULED_TASK: Load scheduler "fdo1" with entities [LocalPlayer, LocalPlayer], work=[200*, 0*]
 14: 0x0245 [0x55] WAIT_LOAD_SCHEDULER: Wait for scheduler "fdo1" with entities [LocalPlayer, LocalPlayer], work=200*
 15: 0x0254 [0x1C] WAIT(80* ticks)
 16: 0x0257 [0x45] LOAD_SCHEDULED_TASK: Load scheduler "fdi1" with entities [LocalPlayer, LocalPlayer], work=[200*, 0*]
 17: 0x0268 [0x1C] WAIT(30* ticks)
 18: 0x026B [0x27] REQ_SET(priority=0x08, entity_id=LocalPlayer, tag_num=0x11)
 19: 0x0272 [0x03] Work_Zone[2] = 2842*
 20: 0x0277 [0x1D] PRINT_EVENT_MESSAGE(message_id=11656*)
    → "What a terrible situation. I'd recognize that brim anywhere--that hat almost certainly belonged to Cedricaste."
 21: 0x027A [0x1C] WAIT(60* ticks)
 22: 0x027D [0x5F] MULTI_HANDLER_COMPLEX(mode=0x06 - Load ext scheduler with flag (OpCode 0x5B mode 1, flag 1), ref=0*, entity1=EventEntity, entity2=EventEntity, string="thk1", extra=100*)
 23: 0x028F [0x23] WAIT_FOR_DIALOG_INTERACTION
 24: 0x0290 [0x1D] PRINT_EVENT_MESSAGE(message_id=11657*)
    → "He was a damn fine man, and a mentor to Margret in her younger years."
 25: 0x0293 [0x23] WAIT_FOR_DIALOG_INTERACTION
 26: 0x0294 [0x1D] PRINT_EVENT_MESSAGE(message_id=11658*)
    → "How does the saying go? "A person like him only appears once a century"? The coalition is lucky that we had two--Cedricaste and Margret."
 27: 0x0297 [0x5F] MULTI_HANDLER_COMPLEX(mode=0x07 - Wait scheduler task (OpCode 0x53))
 28: 0x02A5 [0x23] WAIT_FOR_DIALOG_INTERACTION
 29: 0x02A6 [0x5F] MULTI_HANDLER_COMPLEX(mode=0x06 - Load ext scheduler with flag (OpCode 0x5B mode 1, flag 1), ref=0*, entity1=EventEntity, entity2=EventEntity, string="thk2", extra=100*)
 30: 0x02B8 [0x1D] PRINT_EVENT_MESSAGE(message_id=11659*)
    → "Margret held him in the highest regard--we all did--and to think he met such an ignoble end in the hinterlands..."
 31: 0x02BB [0x5F] MULTI_HANDLER_COMPLEX(mode=0x07 - Wait scheduler task (OpCode 0x53))
 32: 0x02C9 [0x23] WAIT_FOR_DIALOG_INTERACTION
 33: 0x02CA [0x5F] MULTI_HANDLER_COMPLEX(mode=0x06 - Load ext scheduler with flag (OpCode 0x5B mode 1, flag 1), ref=0*, entity1=EventEntity, entity2=EventEntity, string="tlk1", extra=100*)
 34: 0x02DC [0x1D] PRINT_EVENT_MESSAGE(message_id=11660*)
    → "Perhaps you think this morbid, but...would you mind if I had that hat? I promise to treat it with the utmost care."
 35: 0x02DF [0x23] WAIT_FOR_DIALOG_INTERACTION
 36: 0x02E0 [0x1D] PRINT_EVENT_MESSAGE(message_id=11661*)
    → "As talented as Margret is, she is young of age and should be looking toward the future, not beholden to the past."
 37: 0x02E3 [0x5F] MULTI_HANDLER_COMPLEX(mode=0x07 - Wait scheduler task (OpCode 0x53))
 38: 0x02F1 [0x23] WAIT_FOR_DIALOG_INTERACTION
 39: 0x02F2 [0x5F] MULTI_HANDLER_COMPLEX(mode=0x06 - Load ext scheduler with flag (OpCode 0x5B mode 1, flag 1), ref=0*, entity1=EventEntity, entity2=EventEntity, string="ten1", extra=100*)
 40: 0x0304 [0x1D] PRINT_EVENT_MESSAGE(message_id=11662*)
    → "When the time is right, I'll tell her the truth."
 41: 0x0307 [0x5F] MULTI_HANDLER_COMPLEX(mode=0x07 - Wait scheduler task (OpCode 0x53))
 42: 0x0315 [0x23] WAIT_FOR_DIALOG_INTERACTION
 43: 0x0316 [0x06] Work_Zone_1700[0] = 0
 44: 0x0319 [0x24] CREATE_DIALOG(message_id=11663*, default_option=0*, option_flags=0*)
    → "What do you do? [Hand over the hat./Keep it for yourself.]"
 45: 0x0320 [0x25] WAIT_DIALOG_SELECT()
 46: 0x0321 [0x02] IF !(Work_Zone[0] == 0*) GOTO 0x0365
 47: 0x0329 [0x02] IF !(Work_Zone_1700[0] == 1*) GOTO 0x035B
 48: 0x0331 [0x5F] MULTI_HANDLER_COMPLEX(mode=0x06 - Load ext scheduler with flag (OpCode 0x5B mode 1, flag 1), ref=2*, entity1=EventEntity, entity2=EventEntity, string="tld1", extra=100*)
 49: 0x0343 [0x1D] PRINT_EVENT_MESSAGE(message_id=11665*)
    → "You have my sincerest thanks."
 50: 0x0346 [0x5F] MULTI_HANDLER_COMPLEX(mode=0x07 - Wait scheduler task (OpCode 0x53))
 51: 0x0354 [0x23] WAIT_FOR_DIALOG_INTERACTION
 52: 0x0355 [0x06] Work_Zone_1700[0] = 0
 53: 0x0358 [0x01] GOTO 0x0362
 54: 0x035B [0x1D] PRINT_EVENT_MESSAGE(message_id=11665*)
    → "You have my sincerest thanks."
 55: 0x035E [0x1C] WAIT(100* ticks)
 56: 0x0361 [0x23] WAIT_FOR_DIALOG_INTERACTION

SUBROUTINE_0362:
 57: 0x0362 [0x01] GOTO 0x03A9
 58: 0x0365 [0x02] IF !(Work_Zone[0] == 1*) GOTO 0x03A9
 59: 0x036D [0x02] IF !(Work_Zone_1700[0] == 1*) GOTO 0x037C
 60: 0x0375 [0x1D] PRINT_EVENT_MESSAGE(message_id=11664*)
    → "I beg you to reconsider. This article means a lot to the coalition."
 61: 0x0378 [0x23] WAIT_FOR_DIALOG_INTERACTION
 62: 0x0379 [0x01] GOTO 0x03A3
 63: 0x037C [0x05] Work_Zone_1700[0] = 1
 64: 0x037F [0x5F] MULTI_HANDLER_COMPLEX(mode=0x06 - Load ext scheduler with flag (OpCode 0x5B mode 1, flag 1), ref=2*, entity1=EventEntity, entity2=EventEntity, string="tld0", extra=100*)
 65: 0x0391 [0x1D] PRINT_EVENT_MESSAGE(message_id=11664*)
    → "I beg you to reconsider. This article means a lot to the coalition."
 66: 0x0394 [0x5F] MULTI_HANDLER_COMPLEX(mode=0x07 - Wait scheduler task (OpCode 0x53))
 67: 0x03A2 [0x23] WAIT_FOR_DIALOG_INTERACTION

SUBROUTINE_03A3:
 68: 0x03A3 [0x01] GOTO 0x0319

SUBROUTINE_03A9:
 69: 0x03A9 [0x5F] MULTI_HANDLER_COMPLEX(mode=0x06 - Load ext scheduler with flag (OpCode 0x5B mode 1, flag 1), ref=5*, entity1=EventEntity, entity2=EventEntity, string="tlb0", extra=100*)
 70: 0x03BB [0x1D] PRINT_EVENT_MESSAGE(message_id=11666*)
    → "Cedricaste taught me that although the eyes may be deceived, the mind can always find the truth."
 71: 0x03BE [0x23] WAIT_FOR_DIALOG_INTERACTION
 72: 0x03BF [0x1D] PRINT_EVENT_MESSAGE(message_id=11667*)
    → "That's why all forms of information are valuable."
 73: 0x03C2 [0x5F] MULTI_HANDLER_COMPLEX(mode=0x07 - Wait scheduler task (OpCode 0x53))
 74: 0x03D0 [0x23] WAIT_FOR_DIALOG_INTERACTION
 75: 0x03D1 [0x5F] MULTI_HANDLER_COMPLEX(mode=0x06 - Load ext scheduler with flag (OpCode 0x5B mode 1, flag 1), ref=5*, entity1=EventEntity, entity2=EventEntity, string="tlb1", extra=100*)
 76: 0x03E3 [0x1D] PRINT_EVENT_MESSAGE(message_id=11668*)
    → "Margret doesn't need to know of our little arrangement."
 77: 0x03E6 [0x5F] MULTI_HANDLER_COMPLEX(mode=0x07 - Wait scheduler task (OpCode 0x53))
 78: 0x03F4 [0x23] WAIT_FOR_DIALOG_INTERACTION
 79: 0x03F5 [0x5F] MULTI_HANDLER_COMPLEX(mode=0x06 - Load ext scheduler with flag (OpCode 0x5B mode 1, flag 1), ref=0*, entity1=EventEntity, entity2=EventEntity, string="pas0", extra=199*)
 80: 0x0407 [0x1D] PRINT_EVENT_MESSAGE(message_id=11669*)
    → "Consider this not as hush money, but as payment for finding an invaluable artifact of the coalition."
 81: 0x040A [0x5F] MULTI_HANDLER_COMPLEX(mode=0x07 - Wait scheduler task (OpCode 0x53))
 82: 0x0418 [0x23] WAIT_FOR_DIALOG_INTERACTION
 83: 0x0419 [0x45] LOAD_SCHEDULED_TASK: Load scheduler "qstc" with entities [LocalPlayer, LocalPlayer], work=[201*, 0*]
 84: 0x042A [0x21] END_EVENT
 85: 0x042B [0x00] END_REQSTACK()
```

#### Data or dead code:

```
# Dead code (unreachable instructions):
     0x03A6 [0x01] GOTO 0x03A9
```
