# 17830074 - Kyff

## Common Data

| Field            | Value                     |
|------------------|---------------------------|
| Zone             | Eastern Adoulin (ID: 257) |
| Block Size       | 340 bytes                 |
| Total Events     | 9                         |
| References Count | 21                        |

## List of Events

| Event ID                 | Entrypoint   |   Size |   Instructions |
|--------------------------|--------------|--------|----------------|
| [65535](#event-65535)    | 0x0000       |      1 |              1 |
| [5024](#event-5024)      | 0x0001       |      7 |              2 |
| [65535.1](#event-655351) | 0x0008       |     19 |              5 |
| [65535.2](#event-655352) | 0x001B       |     43 |              7 |
| [65535.3](#event-655353) | 0x0046       |     24 |              6 |
| [5026](#event-5026)      | 0x005E       |      7 |              2 |
| [65535.4](#event-655354) | 0x0065       |     19 |              5 |
| [65535.5](#event-655355) | 0x0078       |     65 |             12 |
| [65535.6](#event-655356) | 0x00B9       |     19 |              5 |

## DAT References (imed_data)

|   Index | Hex Value   |   Dec Value |
|---------|-------------|-------------|
|       0 | 0x000D      |          13 |
|       1 | 0x003E      |          62 |
|       2 | 0xFFFFC30F  |  4294951695 |
|       3 | 0x0000      |           0 |
|       4 | 0x02B6      |         694 |
|       5 | 0xFFFFCB15  |  4294953749 |
|       6 | 0x0047      |          71 |
|       7 | 0x0028      |          40 |
|       8 | 0xFFFFFFCB  |  4294967243 |
|       9 | 0xFFFF754F  |  4294931791 |
|      10 | 0x0816      |        2070 |
|      11 | 0xFFFFA1A9  |  4294943145 |
|      12 | 0xFFFFFDD2  |  4294966738 |
|      13 | 0xFFFFA949  |  4294945097 |
|      14 | 0x005A      |          90 |
|      15 | 0x000A      |          10 |
|      16 | 0xFFFFB185  |  4294947205 |
|      17 | 0x0039      |          57 |
|      18 | 0xFFFFC22E  |  4294951470 |
|      19 | 0xFFFFFFF4  |  4294967284 |
|      20 | 0xFFFFAE01  |  4294946305 |

## Events

### Event 65535

#### Metadata

| Field        | Value   |
|--------------|---------|
| Entrypoint   | 0x0000  |
| Data Size    | 1 bytes |
| Instructions | 1       |

```
      00 01 02 03 04 05 06 07  08 09 0A 0B 0C 0D 0E 0F
      -- -- -- -- -- -- -- --  -- -- -- -- -- -- -- --
0000: 00                                                .               
```

#### Opcodes

```
  0: 0x0000 [0x00] END_REQSTACK()
```

### Event 5024

#### Metadata

| Field        | Value   |
|--------------|---------|
| Entrypoint   | 0x0001  |
| Data Size    | 7 bytes |
| Instructions | 2       |

```
      00 01 02 03 04 05 06 07  08 09 0A 0B 0C 0D 0E 0F
      -- -- -- -- -- -- -- --  -- -- -- -- -- -- -- --
0000:    92 01 F8 FF FF 7F 00                            .......        
```

#### Opcodes

```
  0: 0x0001 [0x92] EventEntity->Render.Flags3 ^= 0x01
  1: 0x0007 [0x00] END_REQSTACK()
```

### Event 65535.1

#### Metadata

| Field        | Value    |
|--------------|----------|
| Entrypoint   | 0x0008   |
| Data Size    | 19 bytes |
| Instructions | 5        |

```
      00 01 02 03 04 05 06 07  08 09 0A 0B 0C 0D 0E 0F
      -- -- -- -- -- -- -- --  -- -- -- -- -- -- -- --
0000:                          32 00 80 1F 00 01 80 02          2.......
0010: 80 03 80 1F 01 1E B8 10  10 01 00                 ...........     
```

#### Opcodes

```
  0: 0x0008 [0x32] ExtData[1]->MainSpeed = 13* * 0.1
  1: 0x000B [0x1F] MOVE_ENTITY: EventEntity moves to X=0.062*, Z=-15.601*, Y=0.000*
  2: 0x0013 [0x1F] MOVE_ENTITY: Update entity position (mode=1)
  3: 0x0015 [0x1E] EventEntity looks at Erisa (ID: 17830072/0x011010B8) and starts talking
  4: 0x001A [0x00] END_REQSTACK()
```

### Event 65535.2

#### Metadata

| Field        | Value    |
|--------------|----------|
| Entrypoint   | 0x001B   |
| Data Size    | 43 bytes |
| Instructions | 7        |

```
      00 01 02 03 04 05 06 07  08 09 0A 0B 0C 0D 0E 0F
      -- -- -- -- -- -- -- --  -- -- -- -- -- -- -- --
0010:                                   32 00 80 1F 00             2....
0020: 04 80 05 80 03 80 1F 01  6F 66 06 80 F8 FF FF 7F  ........of......
0030: F8 FF FF 7F 70 61 73 30  53 F8 FF FF 7F F8 FF FF  ....pas0S.......
0040: 7F 70 61 73 30 00                                 .pas0.          
```

#### Opcodes

```
  0: 0x001B [0x32] ExtData[1]->MainSpeed = 13* * 0.1
  1: 0x001E [0x1F] MOVE_ENTITY: EventEntity moves to X=0.694*, Z=-13.547*, Y=0.000*
  2: 0x0026 [0x1F] MOVE_ENTITY: Update entity position (mode=1)
  3: 0x0028 [0x6F] WAIT_FRAME_DELAY: Yield until WaitTime reaches zero
  4: 0x0029 [0x66] LOAD_EXT_SCHEDULER_MAIN: Load scheduler "pas0" with entities [EventEntity, EventEntity], work=71*
  5: 0x0038 [0x53] WAIT_SCHEDULER_TASK: Wait for scheduler "pas0" with entities [EventEntity, EventEntity]
  6: 0x0045 [0x00] END_REQSTACK()
```

### Event 65535.3

#### Metadata

| Field        | Value    |
|--------------|----------|
| Entrypoint   | 0x0046   |
| Data Size    | 24 bytes |
| Instructions | 6        |

```
      00 01 02 03 04 05 06 07  08 09 0A 0B 0C 0D 0E 0F
      -- -- -- -- -- -- -- --  -- -- -- -- -- -- -- --
0040:                   32 07  80 1F 00 01 80 02 80 03        2.........
0050: 80 1F 01 1F 00 08 80 09  80 03 80 1F 01 00        ..............  
```

#### Opcodes

```
  0: 0x0046 [0x32] ExtData[1]->MainSpeed = 40* * 0.1
  1: 0x0049 [0x1F] MOVE_ENTITY: EventEntity moves to X=0.062*, Z=-15.601*, Y=0.000*
  2: 0x0051 [0x1F] MOVE_ENTITY: Update entity position (mode=1)
  3: 0x0053 [0x1F] MOVE_ENTITY: EventEntity moves to X=-0.053*, Z=-35.505*, Y=0.000*
  4: 0x005B [0x1F] MOVE_ENTITY: Update entity position (mode=1)
  5: 0x005D [0x00] END_REQSTACK()
```

### Event 5026

#### Metadata

| Field        | Value   |
|--------------|---------|
| Entrypoint   | 0x005E  |
| Data Size    | 7 bytes |
| Instructions | 2       |

```
      00 01 02 03 04 05 06 07  08 09 0A 0B 0C 0D 0E 0F
      -- -- -- -- -- -- -- --  -- -- -- -- -- -- -- --
0050:                                            92 01                ..
0060: F8 FF FF 7F 00                                    .....           
```

#### Opcodes

```
  0: 0x005E [0x92] EventEntity->Render.Flags3 ^= 0x01
  1: 0x0064 [0x00] END_REQSTACK()
```

### Event 65535.4

#### Metadata

| Field        | Value    |
|--------------|----------|
| Entrypoint   | 0x0065   |
| Data Size    | 19 bytes |
| Instructions | 5        |

```
      00 01 02 03 04 05 06 07  08 09 0A 0B 0C 0D 0E 0F
      -- -- -- -- -- -- -- --  -- -- -- -- -- -- -- --
0060:                32 00 80  1F 00 0A 80 0B 80 03 80       2..........
0070: 1F 01 1E B9 10 10 01 00                           ........        
```

#### Opcodes

```
  0: 0x0065 [0x32] ExtData[1]->MainSpeed = 13* * 0.1
  1: 0x0068 [0x1F] MOVE_ENTITY: EventEntity moves to X=2.070*, Z=-24.151*, Y=0.000*
  2: 0x0070 [0x1F] MOVE_ENTITY: Update entity position (mode=1)
  3: 0x0072 [0x1E] EventEntity looks at Yvermain (ID: 17830073/0x011010B9) and starts talking
  4: 0x0077 [0x00] END_REQSTACK()
```

### Event 65535.5

#### Metadata

| Field        | Value    |
|--------------|----------|
| Entrypoint   | 0x0078   |
| Data Size    | 65 bytes |
| Instructions | 12       |

```
      00 01 02 03 04 05 06 07  08 09 0A 0B 0C 0D 0E 0F
      -- -- -- -- -- -- -- --  -- -- -- -- -- -- -- --
0070:                          32 07 80 1F 00 0C 80 0D          2.......
0080: 80 03 80 1F 01 1E BB 10  10 01 79 00 F8 FF FF 7F  ..........y.....
0090: B8 10 10 01 1C 0E 80 1F  00 0F 80 10 80 03 80 1F  ................
00A0: 01 1F 00 11 80 12 80 03  80 1F 01 2C B5 10 10 01  ...........,....
00B0: B5 10 10 01 63 6C 6F 73  00                       ....clos.       
```

#### Opcodes

```
  0: 0x0078 [0x32] ExtData[1]->MainSpeed = 40* * 0.1
  1: 0x007B [0x1F] MOVE_ENTITY: EventEntity moves to X=-0.558*, Z=-22.199*, Y=0.000*
  2: 0x0083 [0x1F] MOVE_ENTITY: Update entity position (mode=1)
  3: 0x0085 [0x1E] EventEntity looks at Dworvigg (ID: 17830075/0x011010BB) and starts talking
  4: 0x008A [0x79] EventEntity looks at Erisa (ID: 17830072/0x011010B8) (Basic look)
  5: 0x0094 [0x1C] WAIT(90* ticks)
  6: 0x0097 [0x1F] MOVE_ENTITY: EventEntity moves to X=0.010*, Z=-20.091*, Y=0.000*
  7: 0x009F [0x1F] MOVE_ENTITY: Update entity position (mode=1)
  8: 0x00A1 [0x1F] MOVE_ENTITY: EventEntity moves to X=0.057*, Z=-15.826*, Y=0.000*
  9: 0x00A9 [0x1F] MOVE_ENTITY: Update entity position (mode=1)
 10: 0x00AB [0x2C] CREATE_SCHEDULER_TASK: Create scheduler "clos" with entities [Door: (ID: 17830069/0x011010B5), Door: (ID: 17830069/0x011010B5)]
 11: 0x00B8 [0x00] END_REQSTACK()
```

### Event 65535.6

#### Metadata

| Field        | Value    |
|--------------|----------|
| Entrypoint   | 0x00B9   |
| Data Size    | 19 bytes |
| Instructions | 5        |

```
      00 01 02 03 04 05 06 07  08 09 0A 0B 0C 0D 0E 0F
      -- -- -- -- -- -- -- --  -- -- -- -- -- -- -- --
00B0:                             32 07 80 1F 00 13 80           2......
00C0: 14 80 03 80 1F 01 1E B9  10 10 01 00              ............    
```

#### Opcodes

```
  0: 0x00B9 [0x32] ExtData[1]->MainSpeed = 40* * 0.1
  1: 0x00BC [0x1F] MOVE_ENTITY: EventEntity moves to X=-0.012*, Z=-20.991*, Y=0.000*
  2: 0x00C4 [0x1F] MOVE_ENTITY: Update entity position (mode=1)
  3: 0x00C6 [0x1E] EventEntity looks at Yvermain (ID: 17830073/0x011010B9) and starts talking
  4: 0x00CB [0x00] END_REQSTACK()
```
