# 17830145

## Common Data

| Field            | Value                     |
|------------------|---------------------------|
| Zone             | Eastern Adoulin (ID: 257) |
| Block Size       | 29428 bytes               |
| Total Events     | 11                        |
| References Count | 475                       |

## List of Events

| Event ID              | Entrypoint   |   Size |   Instructions |
|-----------------------|--------------|--------|----------------|
| [65535](#event-65535) | 0x0000       |      1 |              1 |
| [5124](#event-5124)   | 0x0001       |   2999 |            388 |
| [5126](#event-5126)   | 0x0BB8       |   1355 |            175 |
| [5130](#event-5130)   | 0x1103       |   5202 |            656 |
| [5132](#event-5132)   | 0x2555       |   1395 |            172 |
| [5097](#event-5097)   | 0x2AC8       |   1949 |            243 |
| [5099](#event-5099)   | 0x3265       |   5080 |            637 |
| [5102](#event-5102)   | 0x463D       |   4812 |            658 |
| [5096](#event-5096)   | 0x5909       |   1270 |            159 |
| [5079](#event-5079)   | 0x5DFF       |   1799 |            204 |
| [86](#event-86)       | 0x6506       |   1606 |            200 |

## DAT References (imed_data)

|   Index | Hex Value   |   Dec Value |
|---------|-------------|-------------|
|       0 | 0x00C8      |         200 |
|       1 | 0x0000      |           0 |
|       2 | 0x001B      |          27 |
|       3 | 0x003F      |          63 |
|       4 | 0xFFFF7418  |  4294931480 |
|       5 | 0xFFFFA7D9  |  4294944729 |
|       6 | 0xFFFFFF6C  |  4294967148 |
|       7 | 0x0352      |         850 |
|       8 | 0xFFFF4900  |  4294920448 |
|       9 | 0xFFFFCA1E  |  4294953502 |
|      10 | 0xFFFFFFB6  |  4294967222 |
|      11 | 0x0190      |         400 |
|      12 | 0xFFFF61D9  |  4294926809 |
|      13 | 0xFFFF8F72  |  4294938482 |
|      14 | 0x0E84      |        3716 |
|      15 | 0xFFFEDDAD  |  4294892973 |
|      16 | 0xFFFF2A7E  |  4294912638 |
|      17 | 0xFFFFFD77  |  4294966647 |
|      18 | 0x0E27      |        3623 |
|      19 | 0x02BE      |         702 |
|      20 | 0x000F      |          15 |
|      21 | 0x2B90      |       11152 |
|      22 | 0x0050      |          80 |
|      23 | 0x0003      |           3 |
|      24 | 0x0004      |           4 |
|      25 | 0x0005      |           5 |
|      26 | 0x0006      |           6 |
|      27 | 0x0008      |           8 |
|      28 | 0x001E      |          30 |
|      29 | 0x2B91      |       11153 |
|      30 | 0x2B92      |       11154 |
|      31 | 0x2B93      |       11155 |
|      32 | 0x2B94      |       11156 |
|      33 | 0x2B95      |       11157 |
|      34 | 0x0001      |           1 |
|      35 | 0x2B97      |       11159 |
|      36 | 0x2B98      |       11160 |
|      37 | 0x003C      |          60 |
|      38 | 0x2B96      |       11158 |
|      39 | 0x0002      |           2 |
|      40 | 0x2B99      |       11161 |
|      41 | 0x2B9A      |       11162 |
|      42 | 0x2B9B      |       11163 |
|      43 | 0x2B9C      |       11164 |
|      44 | 0x2B9D      |       11165 |
|      45 | 0x2B9E      |       11166 |
|      46 | 0x2B9F      |       11167 |
|      47 | 0x2BA0      |       11168 |
|      48 | 0x0A35      |        2613 |
|      49 | 0x2BA1      |       11169 |
|      50 | 0x2BA2      |       11170 |
|      51 | 0x2BA3      |       11171 |
|      52 | 0x2BA4      |       11172 |
|      53 | 0x2BA5      |       11173 |
|      54 | 0x2BA6      |       11174 |
|      55 | 0x2BA7      |       11175 |
|      56 | 0x2BA8      |       11176 |
|      57 | 0x2BA9      |       11177 |
|      58 | 0x2BAA      |       11178 |
|      59 | 0x005A      |          90 |
|      60 | 0x2BAB      |       11179 |
|      61 | 0x0019      |          25 |
|      62 | 0x2BAC      |       11180 |
|      63 | 0x0064      |         100 |
|      64 | 0x001F      |          31 |
|      65 | 0x00F0      |         240 |
|      66 | 0x01E0      |         480 |
|      67 | 0x00C9      |         201 |
|      68 | 0x00D7      |         215 |
|      69 | 0x000A      |          10 |
|      70 | 0x0007      |           7 |
|      71 | 0x007F      |         127 |
|      72 | 0x012C      |         300 |
|      73 | 0x0258      |         600 |
|      74 | 0x03E7      |         999 |
|      75 | 0xFFFFFC00  |  4294966272 |
|      76 | 0x0C00      |        3072 |
|      77 | 0x2BAD      |       11181 |
|      78 | 0x0025      |          37 |
|      79 | 0x2BAE      |       11182 |
|      80 | 0x2BAF      |       11183 |
|      81 | 0x2BB0      |       11184 |
|      82 | 0x2BB1      |       11185 |
|      83 | 0x2BB2      |       11186 |
|      84 | 0x0384      |         900 |
|      85 | 0x006E      |         110 |
|      86 | 0x2BB3      |       11187 |
|      87 | 0x0028      |          40 |
|      88 | 0xFFFED218  |  4294890008 |
|      89 | 0xFFFF2E5E  |  4294913630 |
|      90 | 0x0FEB      |        4075 |
|      91 | 0xFFFED358  |  4294890328 |
|      92 | 0xFFFF067F  |  4294903423 |
|      93 | 0x2BB5      |       11189 |
|      94 | 0x2BB6      |       11190 |
|      95 | 0x2BB7      |       11191 |
|      96 | 0x0046      |          70 |
|      97 | 0x0A36      |        2614 |
|      98 | 0x2BB8      |       11192 |
|      99 | 0x2BB9      |       11193 |
|     100 | 0x2BBA      |       11194 |
|     101 | 0x2BBB      |       11195 |
|     102 | 0x2BBD      |       11197 |
|     103 | 0x2BBC      |       11196 |
|     104 | 0x2BBE      |       11198 |
|     105 | 0x2BBF      |       11199 |
|     106 | 0x2BC0      |       11200 |
|     107 | 0x2BC1      |       11201 |
|     108 | 0x2BC2      |       11202 |
|     109 | 0x2BC3      |       11203 |
|     110 | 0x2BC4      |       11204 |
|     111 | 0x2BC5      |       11205 |
|     112 | 0x2BC6      |       11206 |
|     113 | 0xFFFF799E  |  4294932894 |
|     114 | 0xFFFFA8A7  |  4294944935 |
|     115 | 0x0497      |        1175 |
|     116 | 0xFFFF5744  |  4294924100 |
|     117 | 0xFFFFBC90  |  4294950032 |
|     118 | 0x01F3      |         499 |
|     119 | 0x02BF      |         703 |
|     120 | 0x0096      |         150 |
|     121 | 0x2BD0      |       11216 |
|     122 | 0x0014      |          20 |
|     123 | 0x2BD1      |       11217 |
|     124 | 0x2BD2      |       11218 |
|     125 | 0x0078      |         120 |
|     126 | 0x2BD3      |       11219 |
|     127 | 0x005F      |          95 |
|     128 | 0x2BD4      |       11220 |
|     129 | 0x2BD5      |       11221 |
|     130 | 0x2BD6      |       11222 |
|     131 | 0x2BD7      |       11223 |
|     132 | 0x2BD8      |       11224 |
|     133 | 0x2BD9      |       11225 |
|     134 | 0x2BDA      |       11226 |
|     135 | 0x2BDB      |       11227 |
|     136 | 0x2BDC      |       11228 |
|     137 | 0x2BDD      |       11229 |
|     138 | 0x009E      |         158 |
|     139 | 0x2BDE      |       11230 |
|     140 | 0x2BDF      |       11231 |
|     141 | 0x2BE0      |       11232 |
|     142 | 0x2BE1      |       11233 |
|     143 | 0x2BE2      |       11234 |
|     144 | 0x2BE3      |       11235 |
|     145 | 0x0013      |          19 |
|     146 | 0x2BE4      |       11236 |
|     147 | 0x2BE5      |       11237 |
|     148 | 0x2BE6      |       11238 |
|     149 | 0x2BE7      |       11239 |
|     150 | 0x2BE8      |       11240 |
|     151 | 0x009F      |         159 |
|     152 | 0x2BE9      |       11241 |
|     153 | 0x0095      |         149 |
|     154 | 0x2BEA      |       11242 |
|     155 | 0x2BEB      |       11243 |
|     156 | 0x2BEC      |       11244 |
|     157 | 0x2BED      |       11245 |
|     158 | 0x2BEE      |       11246 |
|     159 | 0x2BEF      |       11247 |
|     160 | 0x0A1B      |        2587 |
|     161 | 0x2BF0      |       11248 |
|     162 | 0x2BF1      |       11249 |
|     163 | 0x2BF2      |       11250 |
|     164 | 0x2BFA      |       11258 |
|     165 | 0x0A22      |        2594 |
|     166 | 0x2BF3      |       11251 |
|     167 | 0x2BF4      |       11252 |
|     168 | 0x0032      |          50 |
|     169 | 0x2BF5      |       11253 |
|     170 | 0x2BF6      |       11254 |
|     171 | 0x2BF7      |       11255 |
|     172 | 0x2BF8      |       11256 |
|     173 | 0x2BF9      |       11257 |
|     174 | 0x2BFB      |       11259 |
|     175 | 0x2BFC      |       11260 |
|     176 | 0x2BFD      |       11261 |
|     177 | 0x0320      |         800 |
|     178 | 0x2BFE      |       11262 |
|     179 | 0x2BFF      |       11263 |
|     180 | 0x2C00      |       11264 |
|     181 | 0x2C01      |       11265 |
|     182 | 0x009D      |         157 |
|     183 | 0x2C02      |       11266 |
|     184 | 0x2C03      |       11267 |
|     185 | 0x2C04      |       11268 |
|     186 | 0x2C05      |       11269 |
|     187 | 0x2C06      |       11270 |
|     188 | 0x0D21      |        3361 |
|     189 | 0x2C07      |       11271 |
|     190 | 0x2C08      |       11272 |
|     191 | 0x2C09      |       11273 |
|     192 | 0x2C0A      |       11274 |
|     193 | 0x0D22      |        3362 |
|     194 | 0x2C0B      |       11275 |
|     195 | 0x2C0C      |       11276 |
|     196 | 0x2C0D      |       11277 |
|     197 | 0xFFFF692F  |  4294928687 |
|     198 | 0xFFFFACE2  |  4294946018 |
|     199 | 0x01F6      |         502 |
|     200 | 0xFFFF7EFA  |  4294934266 |
|     201 | 0xFFFFA9CD  |  4294945229 |
|     202 | 0x065F      |        1631 |
|     203 | 0x00B4      |         180 |
|     204 | 0x2C0E      |       11278 |
|     205 | 0x2C0F      |       11279 |
|     206 | 0x2C10      |       11280 |
|     207 | 0x2C11      |       11281 |
|     208 | 0x2C12      |       11282 |
|     209 | 0x2C13      |       11283 |
|     210 | 0x2C14      |       11284 |
|     211 | 0x2C15      |       11285 |
|     212 | 0x2C16      |       11286 |
|     213 | 0x2C17      |       11287 |
|     214 | 0x0020      |          32 |
|     215 | 0x007B      |         123 |
|     216 | 0xFFFECB30  |  4294888240 |
|     217 | 0xFFFF5C1B  |  4294925339 |
|     218 | 0x0413      |        1043 |
|     219 | 0xFFFEC4E7  |  4294886631 |
|     220 | 0xFFFF60CF  |  4294926543 |
|     221 | 0x0406      |        1030 |
|     222 | 0x000B      |          11 |
|     223 | 0x2C19      |       11289 |
|     224 | 0x2C1A      |       11290 |
|     225 | 0x2C1B      |       11291 |
|     226 | 0xFFFEC9AE  |  4294887854 |
|     227 | 0xFFFF465C  |  4294919772 |
|     228 | 0x0514      |        1300 |
|     229 | 0x0034      |          52 |
|     230 | 0x2C1C      |       11292 |
|     231 | 0x2C1D      |       11293 |
|     232 | 0x2C1E      |       11294 |
|     233 | 0x2C1F      |       11295 |
|     234 | 0x2C20      |       11296 |
|     235 | 0x2C21      |       11297 |
|     236 | 0x2C22      |       11298 |
|     237 | 0x2C23      |       11299 |
|     238 | 0x2C24      |       11300 |
|     239 | 0x2C25      |       11301 |
|     240 | 0x2C26      |       11302 |
|     241 | 0x2C27      |       11303 |
|     242 | 0x2C28      |       11304 |
|     243 | 0x2C29      |       11305 |
|     244 | 0x0080      |         128 |
|     245 | 0xFFFF7669  |  4294932073 |
|     246 | 0xFFFFA751  |  4294944593 |
|     247 | 0x03B7      |         951 |
|     248 | 0x02BC      |         700 |
|     249 | 0x07D0      |        2000 |
|     250 | 0x0016      |          22 |
|     251 | 0x00A3      |         163 |
|     252 | 0x2AE1      |       10977 |
|     253 | 0x2AE2      |       10978 |
|     254 | 0x0262      |         610 |
|     255 | 0x2AE3      |       10979 |
|     256 | 0x00CE      |         206 |
|     257 | 0x2AE4      |       10980 |
|     258 | 0x2AE5      |       10981 |
|     259 | 0x11D6      |        4566 |
|     260 | 0x103D      |        4157 |
|     261 | 0x2AE6      |       10982 |
|     262 | 0x0BC5      |        3013 |
|     263 | 0x2AE7      |       10983 |
|     264 | 0x1758      |        5976 |
|     265 | 0x2AE8      |       10984 |
|     266 | 0x2AE9      |       10985 |
|     267 | 0x002D      |          45 |
|     268 | 0xFFFFFED4  |  4294966996 |
|     269 | 0x2AEA      |       10986 |
|     270 | 0x0BB8      |        3000 |
|     271 | 0x2AEB      |       10987 |
|     272 | 0xFFFF60D8  |  4294926552 |
|     273 | 0xFFFF8132  |  4294934834 |
|     274 | 0x0C2A      |        3114 |
|     275 | 0xFFFF7220  |  4294930976 |
|     276 | 0xFFFFA326  |  4294943526 |
|     277 | 0xFFFFFF6A  |  4294967146 |
|     278 | 0x0230      |         560 |
|     279 | 0xFFFF7D53  |  4294933843 |
|     280 | 0xFFFF9F65  |  4294942565 |
|     281 | 0x057B      |        1403 |
|     282 | 0x2B05      |       11013 |
|     283 | 0x1759      |        5977 |
|     284 | 0x2AEE      |       10990 |
|     285 | 0x2AEF      |       10991 |
|     286 | 0x2AF0      |       10992 |
|     287 | 0x2AF1      |       10993 |
|     288 | 0x2AF2      |       10994 |
|     289 | 0x2AF3      |       10995 |
|     290 | 0x2AF4      |       10996 |
|     291 | 0x001A      |          26 |
|     292 | 0x2AF5      |       10997 |
|     293 | 0xFFFFFF38  |  4294967096 |
|     294 | 0x2AF6      |       10998 |
|     295 | 0x2AF7      |       10999 |
|     296 | 0x2AF8      |       11000 |
|     297 | 0x2AF9      |       11001 |
|     298 | 0x2AFA      |       11002 |
|     299 | 0x2AFB      |       11003 |
|     300 | 0x2AFC      |       11004 |
|     301 | 0x004A      |          74 |
|     302 | 0x2AFD      |       11005 |
|     303 | 0x2AFE      |       11006 |
|     304 | 0x2AFF      |       11007 |
|     305 | 0x2B00      |       11008 |
|     306 | 0x2B01      |       11009 |
|     307 | 0x2B02      |       11010 |
|     308 | 0x2B03      |       11011 |
|     309 | 0x2B04      |       11012 |
|     310 | 0x2B06      |       11014 |
|     311 | 0x0015      |          21 |
|     312 | 0x2B07      |       11015 |
|     313 | 0x2B08      |       11016 |
|     314 | 0x2B09      |       11017 |
|     315 | 0x2B0A      |       11018 |
|     316 | 0x2B0B      |       11019 |
|     317 | 0x2B0C      |       11020 |
|     318 | 0x00AA      |         170 |
|     319 | 0x2B0D      |       11021 |
|     320 | 0x2B0E      |       11022 |
|     321 | 0x2B0F      |       11023 |
|     322 | 0x2B10      |       11024 |
|     323 | 0x2B11      |       11025 |
|     324 | 0x2B12      |       11026 |
|     325 | 0x0168      |         360 |
|     326 | 0x2B13      |       11027 |
|     327 | 0x2B14      |       11028 |
|     328 | 0x2B15      |       11029 |
|     329 | 0x2B16      |       11030 |
|     330 | 0x2B17      |       11031 |
|     331 | 0x2B18      |       11032 |
|     332 | 0x0054      |          84 |
|     333 | 0x2B19      |       11033 |
|     334 | 0x2B1A      |       11034 |
|     335 | 0x2B1B      |       11035 |
|     336 | 0x008C      |         140 |
|     337 | 0x2B1C      |       11036 |
|     338 | 0x2B1D      |       11037 |
|     339 | 0x2B1E      |       11038 |
|     340 | 0xFFFF60E8  |  4294926568 |
|     341 | 0xFFFF8DC3  |  4294938051 |
|     342 | 0x0807      |        2055 |
|     343 | 0xFFFF6881  |  4294928513 |
|     344 | 0xFFFFAB90  |  4294945680 |
|     345 | 0x01E4      |         484 |
|     346 | 0x09BB      |        2491 |
|     347 | 0x288E      |       10382 |
|     348 | 0xFFFF777A  |  4294932346 |
|     349 | 0xFFFF9DCC  |  4294942156 |
|     350 | 0x052B      |        1323 |
|     351 | 0x288F      |       10383 |
|     352 | 0x00A0      |         160 |
|     353 | 0x2B67      |       11111 |
|     354 | 0x2B68      |       11112 |
|     355 | 0x0040      |          64 |
|     356 | 0x0A14      |        2580 |
|     357 | 0x2B69      |       11113 |
|     358 | 0x2893      |       10387 |
|     359 | 0x2894      |       10388 |
|     360 | 0x0A16      |        2582 |
|     361 | 0x2B6A      |       11114 |
|     362 | 0x0A15      |        2581 |
|     363 | 0x0A17      |        2583 |
|     364 | 0x08DD      |        2269 |
|     365 | 0x2B6B      |       11115 |
|     366 | 0x2B6C      |       11116 |
|     367 | 0x0A18      |        2584 |
|     368 | 0x0A19      |        2585 |
|     369 | 0x0A1A      |        2586 |
|     370 | 0x0009      |           9 |
|     371 | 0x0A1C      |        2588 |
|     372 | 0x000D      |          13 |
|     373 | 0x0A1F      |        2591 |
|     374 | 0x2897      |       10391 |
|     375 | 0x2B6D      |       11117 |
|     376 | 0x2B6E      |       11118 |
|     377 | 0x2896      |       10390 |
|     378 | 0x0044      |          68 |
|     379 | 0x2B6F      |       11119 |
|     380 | 0x2B70      |       11120 |
|     381 | 0x2B71      |       11121 |
|     382 | 0x2B72      |       11122 |
|     383 | 0x2B73      |       11123 |
|     384 | 0x2B74      |       11124 |
|     385 | 0x2B75      |       11125 |
|     386 | 0x2B76      |       11126 |
|     387 | 0x2B77      |       11127 |
|     388 | 0x2B78      |       11128 |
|     389 | 0x2B79      |       11129 |
|     390 | 0x2B7A      |       11130 |
|     391 | 0x2B7B      |       11131 |
|     392 | 0x2B7C      |       11132 |
|     393 | 0x0024      |          36 |
|     394 | 0x2B7D      |       11133 |
|     395 | 0x2B7E      |       11134 |
|     396 | 0x0047      |          71 |
|     397 | 0x2B7F      |       11135 |
|     398 | 0x2B80      |       11136 |
|     399 | 0x4354      |       17236 |
|     400 | 0x6D3B      |       27963 |
|     401 | 0xFFFFAA11  |  4294945297 |
|     402 | 0x0E10      |        3600 |
|     403 | 0x5DA5      |       23973 |
|     404 | 0x7EA7      |       32423 |
|     405 | 0xFFFFA97C  |  4294945148 |
|     406 | 0x0C1C      |        3100 |
|     407 | 0x026B      |         619 |
|     408 | 0x2AD2      |       10962 |
|     409 | 0x2AD3      |       10963 |
|     410 | 0x2AD4      |       10964 |
|     411 | 0x2AD5      |       10965 |
|     412 | 0x524A      |       21066 |
|     413 | 0x2AD6      |       10966 |
|     414 | 0x2AD7      |       10967 |
|     415 | 0x2AD8      |       10968 |
|     416 | 0x2AD9      |       10969 |
|     417 | 0x2ADA      |       10970 |
|     418 | 0x00D1      |         209 |
|     419 | 0x2ADB      |       10971 |
|     420 | 0x00D2      |         210 |
|     421 | 0x2ADC      |       10972 |
|     422 | 0x2ADD      |       10973 |
|     423 | 0x2ADE      |       10974 |
|     424 | 0x2ADF      |       10975 |
|     425 | 0x57C0      |       22464 |
|     426 | 0x7959      |       31065 |
|     427 | 0xFFFFAA10  |  4294945296 |
|     428 | 0x0DFF      |        3583 |
|     429 | 0x026A      |         618 |
|     430 | 0x2A62      |       10850 |
|     431 | 0x2A63      |       10851 |
|     432 | 0x0251      |         593 |
|     433 | 0x00FF      |         255 |
|     434 | 0xFFFFFA91  |  4294965905 |
|     435 | 0xFFFFDF37  |  4294958903 |
|     436 | 0x0037      |          55 |
|     437 | 0xFFFFEEB6  |  4294962870 |
|     438 | 0x03EC      |        1004 |
|     439 | 0xFFFFFC2D  |  4294966317 |
|     440 | 0xFFFFD532  |  4294956338 |
|     441 | 0x0BFE      |        3070 |
|     442 | 0x2A64      |       10852 |
|     443 | 0x0A06      |        2566 |
|     444 | 0x2A65      |       10853 |
|     445 | 0x2A66      |       10854 |
|     446 | 0x0D0A      |        3338 |
|     447 | 0x2A67      |       10855 |
|     448 | 0x2A68      |       10856 |
|     449 | 0x2A69      |       10857 |
|     450 | 0x2A6A      |       10858 |
|     451 | 0x2A6B      |       10859 |
|     452 | 0x02BD      |         701 |
|     453 | 0x4F35      |       20277 |
|     454 | 0x6900      |       26880 |
|     455 | 0x0CAF      |        3247 |
|     456 | 0x0268      |         616 |
|     457 | 0x358D      |       13709 |
|     458 | 0x358E      |       13710 |
|     459 | 0x358F      |       13711 |
|     460 | 0x3590      |       13712 |
|     461 | 0x0048      |          72 |
|     462 | 0x3591      |       13713 |
|     463 | 0x3592      |       13714 |
|     464 | 0x3593      |       13715 |
|     465 | 0x3594      |       13716 |
|     466 | 0x3595      |       13717 |
|     467 | 0x3596      |       13718 |
|     468 | 0x3597      |       13719 |
|     469 | 0x3598      |       13720 |
|     470 | 0x3599      |       13721 |
|     471 | 0x09D1      |        2513 |
|     472 | 0x359A      |       13722 |
|     473 | 0x359B      |       13723 |
|     474 | 0x359C      |       13724 |

## String References

- **10387**: Does it look important? [Oh, it does./Not particularly.]
- **10971**: An upsurge of energy bursts forth from the $0.
- **10979**: Who do you look at? [Yocile./Lola.]
- **10982**: Roskin uses $0.
- **10995**: Have anything to say? [I'll bite. What happened?/Pfft, sure it has./Whatever you say, Roskin.]
- **11011**: Can you argue with fate? [Nope, I'll gather the information./Yes, I can. Do your own legwork.]
- **11115**: You feel an ethereal grip upon your throat that prevents you from speaking.
- **11131**: How's it sound to you? [Like a faithful rendition of a sonata./Like a discordant cacophony.]
- **11156**: How do you respond? [Aha./Huh?/Still thirsty?/No clue.]
- **11172**: How do you respond? [Bump? What kind of bump?/Just get to the point.]
- **11187**: You find yourself in a terrible pickle.
- **11195**: What topic are you interested in? [The life and times of King August./The life and times of Palomel./Last night's dinner.]
- **11277**: <Whirr whirr whirr>... <Click>

## Events

### Event 65535

#### Metadata

| Field        | Value   |
|--------------|---------|
| Entrypoint   | 0x0000  |
| Data Size    | 1 bytes |
| Instructions | 1       |

```
      00 01 02 03 04 05 06 07  08 09 0A 0B 0C 0D 0E 0F
      -- -- -- -- -- -- -- --  -- -- -- -- -- -- -- --
0000: 00                                                .               
```

#### Opcodes

```
  0: 0x0000 [0x00] END_REQSTACK()
```

### Event 5124

#### Metadata

| Field        | Value      |
|--------------|------------|
| Entrypoint   | 0x0001     |
| Data Size    | 2999 bytes |
| Instructions | 387        |

```
      00 01 02 03 04 05 06 07  08 09 0A 0B 0C 0D 0E 0F
      -- -- -- -- -- -- -- --  -- -- -- -- -- -- -- --
0000:    42 06 01 10 45 00 80  F0 FF FF 7F F0 FF FF 7F   B...E..........
0010: 66 64 6F 31 01 80 55 00  80 F0 FF FF 7F F0 FF FF  fdo1..U.........
0020: 7F 66 64 6F 31 46 01 38  02 80 5C 00 03 80 5C 01  .fdo1F.8..\...\.
0030: 03 80 9A 4E 00 F0 FF FF  7F 4E 00 C3 10 10 01 4E  ...N.....N.....N
0040: 00 06 11 10 01 4E 00 C8  10 10 01 4E 00 04 11 10  .....N.....N....
0050: 01 4E 01 DF 10 10 01 2F  00 C3 10 10 01 2F 00 C8  .N...../...../..
0060: 10 10 01 2F 00 06 11 10  01 2F 00 04 11 10 01 92  .../...../......
0070: 01 04 11 10 01 92 01 C3  10 10 01 92 01 D3 10 10  ................
0080: 01 92 01 C8 10 10 01 92  01 06 11 10 01 94 01 04  ................
0090: 11 10 01 94 01 C3 10 10  01 94 01 C8 10 10 01 94  ................
00A0: 01 06 11 10 01 94 01 F0  FF FF 7F BA F0 FF FF 7F  ................
00B0: 04 80 05 80 06 80 07 80  BA 04 11 10 01 08 80 09  ................
00C0: 80 0A 80 0B 80 BA 06 11  10 01 0C 80 0D 80 06 80  ................
00D0: 0E 80 BA C8 10 10 01 0F  80 10 80 11 80 12 80 4A  ...............J
00E0: F0 FF FF 7F C3 10 10 01  80 C3 10 10 01 80 06 11  ................
00F0: 10 01 80 C8 10 10 01 80  F0 FF FF 7F 27 08 06 11  ............'...
0100: 10 01 27 29 08 06 11 10  01 28 45 13 80 F8 FF FF  ..').....(E.....
0110: 7F F8 FF FF 7F 73 30 30  30 01 80 1C 14 80 45 00  .....s000.....E.
0120: 80 F0 FF FF 7F F0 FF FF  7F 66 64 69 31 01 80 2B  .........fdi1..+
0130: C3 10 10 01 15 80 1C 16  80 23 4A C3 10 10 01 F0  .........#J.....
0140: FF FF 7F 52 13 80 F8 FF  FF 7F F8 FF FF 7F 73 30  ...R..........s0
0150: 30 30 02 87 7F 17 80 80  6E 01 45 13 80 F8 FF FF  00......n.E.....
0160: 7F F8 FF FF 7F 73 30 31  32 01 80 01 EF 01 02 87  .....s012.......
0170: 7F 18 80 80 8A 01 45 13  80 F8 FF FF 7F F8 FF FF  ......E.........
0180: 7F 73 30 31 32 01 80 01  EF 01 02 87 7F 19 80 80  .s012...........
0190: A6 01 45 13 80 F8 FF FF  7F F8 FF FF 7F 73 30 31  ..E..........s01
01A0: 34 01 80 01 EF 01 02 87  7F 1A 80 80 C2 01 45 13  4.............E.
01B0: 80 F8 FF FF 7F F8 FF FF  7F 73 30 31 34 01 80 01  .........s014...
01C0: EF 01 02 87 7F 1B 80 80  DE 01 45 13 80 F8 FF FF  ..........E.....
01D0: 7F F8 FF FF 7F 73 30 31  32 01 80 01 EF 01 45 13  .....s012.....E.
01E0: 80 F8 FF FF 7F F8 FF FF  7F 73 30 31 33 01 80 6F  .........s013..o
01F0: 76 C3 10 10 01 29 08 F0  FF FF 7F 63 52 13 80 F8  v....).....cR...
0200: FF FF 7F F8 FF FF 7F 73  30 31 32 52 13 80 F8 FF  .......s012R....
0210: FF 7F F8 FF FF 7F 73 30  31 33 52 13 80 F8 FF FF  ......s013R.....
0220: 7F F8 FF FF 7F 73 30 31  34 45 13 80 F8 FF FF 7F  .....s014E......
0230: F8 FF FF 7F 73 30 30 31  01 80 29 08 C3 10 10 01  ....s001..).....
0240: 05 1C 1C 80 2B C3 10 10  01 1D 80 23 29 08 C3 10  ....+......#)...
0250: 10 01 06 52 13 80 F8 FF  FF 7F F8 FF FF 7F 73 30  ...R..........s0
0260: 30 31 45 13 80 F8 FF FF  7F F8 FF FF 7F 73 30 30  01E..........s00
0270: 32 01 80 27 08 C3 10 10  01 07 2B C3 10 10 01 1E  2..'......+.....
0280: 80 23 29 08 C3 10 10 01  08 27 08 C3 10 10 01 52  .#)......'.....R
0290: 2B C3 10 10 01 1F 80 23  2A 08 C3 10 10 01 52 13  +......#*.....R.
02A0: 80 F8 FF FF 7F F8 FF FF  7F 73 30 30 32 06 02 00  .........s002...
02B0: 45 13 80 F8 FF FF 7F F8  FF FF 7F 73 30 30 33 01  E..........s003.
02C0: 80 24 20 80 01 80 01 80  25 02 00 10 01 80 00 26  .$ .....%......&
02D0: 03 05 01 10 43 00 43 01  52 13 80 F8 FF FF 7F F8  ....C.C.R.......
02E0: FF FF 7F 73 30 30 33 45  13 80 F8 FF FF 7F F8 FF  ...s003E........
02F0: FF 7F 73 30 30 35 01 80  27 08 C3 10 10 01 54 2B  ..s005..'.....T+
0300: C3 10 10 01 21 80 23 2A  08 C3 10 10 01 27 08 06  ....!.#*.....'..
0310: 11 10 01 29 52 13 80 F8  FF FF 7F F8 FF FF 7F 73  ...)R..........s
0320: 30 30 35 01 96 05 02 00  10 22 80 00 A9 04 52 13  005......"....R.
0330: 80 F8 FF FF 7F F8 FF FF  7F 73 30 30 33 02 02 00  .........s003...
0340: 17 80 04 5A 04 05 01 10  43 00 43 01 45 13 80 F8  ...Z....C.C.E...
0350: FF FF 7F F8 FF FF 7F 73  30 30 39 01 80 7B C3 10  .......s009..{..
0360: 10 01 27 08 C3 10 10 01  11 2B C3 10 10 01 23 80  ..'......+....#.
0370: 23 29 08 C3 10 10 01 12  52 13 80 F8 FF FF 7F F8  #)......R.......
0380: FF FF 7F 73 30 30 39 02  87 7F 19 80 80 A3 03 45  ...s009........E
0390: 13 80 F8 FF FF 7F F8 FF  FF 7F 73 30 30 37 01 80  ..........s007..
03A0: 01 D0 03 02 87 7F 1A 80  80 BF 03 45 13 80 F8 FF  ...........E....
03B0: FF 7F F8 FF FF 7F 73 30  30 37 01 80 01 D0 03 45  ......s007.....E
03C0: 13 80 F8 FF FF 7F F8 FF  FF 7F 73 30 30 36 01 80  ..........s006..
03D0: 27 08 06 11 10 01 29 27  08 F0 FF FF 7F 64 27 08  '.....)'.....d'.
03E0: C3 10 10 01 13 29 08 06  11 10 01 2A 1C 1C 80 27  .....).....*...'
03F0: 08 06 11 10 01 13 1C 1C  80 29 08 C3 10 10 01 14  .........)......
0400: 27 08 C3 10 10 01 49 2B  C3 10 10 01 24 80 1C 16  '.....I+....$...
0410: 80 2A 08 F0 FF FF 7F 2A  08 C3 10 10 01 23 27 08  .*.....*.....#'.
0420: F0 FF FF 7F 65 1C 25 80  27 08 C3 10 10 01 4A 79  ....e.%.'.....Jy
0430: 00 C3 10 10 01 F0 FF FF  7F 52 13 80 F8 FF FF 7F  .........R......
0440: F8 FF FF 7F 73 30 30 36  52 13 80 F8 FF FF 7F F8  ....s006R.......
0450: FF FF 7F 73 30 30 37 01  A6 04 45 13 80 F8 FF FF  ...s007...E.....
0460: 7F F8 FF FF 7F 73 30 30  35 01 80 27 08 C3 10 10  .....s005..'....
0470: 01 56 2B C3 10 10 01 26  80 23 2A 08 C3 10 10 01  .V+....&.#*.....
0480: 0B 02 00 52 13 80 F8 FF  FF 7F F8 FF FF 7F 73 30  ...R..........s0
0490: 30 35 45 13 80 F8 FF FF  7F F8 FF FF 7F 73 30 30  05E..........s00
04A0: 33 01 80 01 C1 02 01 96  05 02 00 10 27 80 00 43  3...........'..C
04B0: 05 05 01 10 43 00 43 01  52 13 80 F8 FF FF 7F F8  ....C.C.R.......
04C0: FF FF 7F 73 30 30 33 45  13 80 F8 FF FF 7F F8 FF  ...s003E........
04D0: FF 7F 73 30 31 30 01 80  27 08 C3 10 10 01 58 2B  ..s010..'.....X+
04E0: C3 10 10 01 28 80 23 2A  08 C3 10 10 01 52 13 80  ....(.#*.....R..
04F0: F8 FF FF 7F F8 FF FF 7F  73 30 31 30 45 13 80 F8  ........s010E...
0500: FF FF 7F F8 FF FF 7F 73  30 31 31 01 80 27 08 C3  .......s011..'..
0510: 10 10 01 54 2B C3 10 10  01 29 80 23 2B C3 10 10  ...T+....).#+...
0520: 01 2A 80 23 2A 08 C3 10  10 01 27 08 06 11 10 01  .*.#*.....'.....
0530: 29 52 13 80 F8 FF FF 7F  F8 FF FF 7F 73 30 31 31  )R..........s011
0540: 01 96 05 02 00 10 17 80  00 96 05 52 13 80 F8 FF  ...........R....
0550: FF 7F F8 FF FF 7F 73 30  30 33 45 13 80 F8 FF FF  ......s003E.....
0560: 7F F8 FF FF 7F 73 30 30  34 01 80 7B C3 10 10 01  .....s004..{....
0570: 27 08 C3 10 10 01 11 27  08 06 11 10 01 29 2B C3  '......'.....)+.
0580: 10 10 01 2B 80 23 29 08  C3 10 10 01 12 06 01 10  ...+.#).........
0590: 01 FD 0A 01 96 05 45 13  80 F8 FF FF 7F F8 FF FF  ......E.........
05A0: 7F 73 30 30 38 01 80 2A  08 C3 10 10 01 27 08 C3  .s008..*.....'..
05B0: 10 10 01 01 2B C3 10 10  01 2C 80 23 29 08 C3 10  ....+....,.#)...
05C0: 10 01 02 2A 08 F0 FF FF  7F 27 08 C3 10 10 01 03  ...*.....'......
05D0: 2B C3 10 10 01 2D 80 23  29 08 C3 10 10 01 04 52  +....-.#)......R
05E0: 13 80 F8 FF FF 7F F8 FF  FF 7F 73 30 30 38 45 13  ..........s008E.
05F0: 80 F8 FF FF 7F F8 FF FF  7F 73 30 31 35 01 80 27  .........s015..'
0600: 08 C3 10 10 01 57 2B C3  10 10 01 2E 80 23 2A 08  .....W+......#*.
0610: C3 10 10 01 2B C3 10 10  01 2F 80 23 52 13 80 F8  ....+..../.#R...
0620: FF FF 7F F8 FF FF 7F 73  30 31 35 45 13 80 F8 FF  .......s015E....
0630: FF 7F F8 FF FF 7F 73 30  31 36 01 80 27 08 C3 10  ......s016..'...
0640: 10 01 4D 03 02 10 30 80  2B C3 10 10 01 31 80 23  ..M...0.+....1.#
0650: 2B C3 10 10 01 32 80 23  2B C3 10 10 01 33 80 23  +....2.#+....3.#
0660: 2A 08 C3 10 10 01 52 13  80 F8 FF FF 7F F8 FF FF  *.....R.........
0670: 7F 73 30 31 36 02 87 7F  19 80 80 91 06 45 13 80  .s016........E..
0680: F8 FF FF 7F F8 FF FF 7F  73 30 31 38 01 80 01 BE  ........s018....
0690: 06 02 87 7F 1A 80 80 AD  06 45 13 80 F8 FF FF 7F  .........E......
06A0: F8 FF FF 7F 73 30 31 38  01 80 01 BE 06 45 13 80  ....s018.....E..
06B0: F8 FF FF 7F F8 FF FF 7F  73 30 31 37 01 80 24 34  ........s017..$4
06C0: 80 01 80 01 80 25 02 00  10 01 80 00 85 07 52 13  .....%........R.
06D0: 80 F8 FF FF 7F F8 FF FF  7F 73 30 31 37 52 13 80  .........s017R..
06E0: F8 FF FF 7F F8 FF FF 7F  73 30 31 38 45 13 80 F8  ........s018E...
06F0: FF FF 7F F8 FF FF 7F 73  30 31 39 01 80 29 08 C3  .......s019..)..
0700: 10 10 01 05 1C 1C 80 2B  C3 10 10 01 35 80 23 29  .......+....5.#)
0710: 08 C3 10 10 01 06 2B C3  10 10 01 36 80 23 29 08  ......+....6.#).
0720: C3 10 10 01 07 29 08 C3  10 10 01 08 52 13 80 F8  .....)......R...
0730: FF FF 7F F8 FF FF 7F 73  30 31 39 45 13 80 F8 FF  .......s019E....
0740: FF 7F F8 FF FF 7F 73 30  30 35 01 80 27 08 C3 10  ......s005..'...
0750: 10 01 55 2B C3 10 10 01  37 80 23 2B C3 10 10 01  ..U+....7.#+....
0760: 38 80 23 2A 08 C3 10 10  01 27 08 C3 10 10 01 49  8.#*.....'.....I
0770: 1C 25 80 52 13 80 F8 FF  FF 7F F8 FF FF 7F 73 30  .%.R..........s0
0780: 30 35 01 B8 07 02 00 10  22 80 00 B8 07 27 08 C3  05......"....'..
0790: 10 10 01 49 1C 25 80 52  13 80 F8 FF FF 7F F8 FF  ...I.%.R........
07A0: FF 7F 73 30 31 37 52 13  80 F8 FF FF 7F F8 FF FF  ..s017R.........
07B0: 7F 73 30 31 38 01 B8 07  45 13 80 F8 FF FF 7F F8  .s018...E.......
07C0: FF FF 7F 73 30 32 30 01  80 2B C3 10 10 01 39 80  ...s020..+....9.
07D0: 23 2A 08 C3 10 10 01 27  08 C3 10 10 01 4A 1C 1C  #*.....'.....J..
07E0: 80 52 13 80 F8 FF FF 7F  F8 FF FF 7F 73 30 32 30  .R..........s020
07F0: 45 13 80 F8 FF FF 7F F8  FF FF 7F 73 30 32 31 01  E..........s021.
0800: 80 2A 08 C3 10 10 01 27  08 C3 10 10 01 4D 27 08  .*.....'.....M'.
0810: F0 FF FF 7F 62 2B C3 10  10 01 3A 80 1C 3B 80 23  ....b+....:..;.#
0820: 2B C3 10 10 01 3C 80 23  2A 08 F0 FF FF 7F 2A 08  +....<.#*.....*.
0830: C3 10 10 01 29 08 F0 FF  FF 7F 17 52 13 80 F8 FF  ....)......R....
0840: FF 7F F8 FF FF 7F 73 30  32 31 45 13 80 F8 FF FF  ......s021E.....
0850: 7F F8 FF FF 7F 73 30 32  32 01 80 1C 3D 80 27 08  .....s022...=.'.
0860: C3 10 10 01 58 2B C3 10  10 01 3E 80 1C 3F 80 23  ....X+....>..?.#
0870: 5C A0 40 80 41 80 5C A1  40 80 42 80 45 43 80 F0  \.@.A.\.@.B.EC..
0880: FF FF 7F F0 FF FF 7F 77  68 6F 30 01 80 55 43 80  .......who0..UC.
0890: F0 FF FF 7F F0 FF FF 7F  77 68 6F 30 52 13 80 F8  ........who0R...
08A0: FF FF 7F F8 FF FF 7F 73  30 32 32 45 44 80 F0 FF  .......s022ED...
08B0: FF 7F F0 FF FF 7F 65 66  6F 6E 01 80 55 44 80 F0  ......efon..UD..
08C0: FF FF 7F F0 FF FF 7F 65  66 6F 6E 45 13 80 F8 FF  .......efonE....
08D0: FF 7F F8 FF FF 7F 73 30  37 32 01 80 45 13 80 F8  ......s072..E...
08E0: FF FF 7F F8 FF FF 7F 6B  75 72 6F 01 80 27 08 C8  .......kuro..'..
08F0: 10 10 01 3B 1C 45 80 45  43 80 F0 FF FF 7F F0 FF  ...;.E.EC.......
0900: FF 7F 77 68 69 31 01 80  55 43 80 F0 FF FF 7F F0  ..whi1..UC......
0910: FF FF 7F 77 68 69 31 CD  46 80 F8 FF FF 7F F8 FF  ...whi1.F.......
0920: FF 7F 73 30 30 32 01 80  4A D3 10 10 01 C8 10 10  ..s002..J.......
0930: 01 1C 1C 80 4A CF 10 10  01 C8 10 10 01 1C 00 80  ....J...........
0940: 6A 01 80 25 80 1B 80 52  13 80 F8 FF FF 7F F8 FF  j..%...R........
0950: FF 7F 6B 75 72 6F 5C A0  47 80 48 80 5C A1 47 80  ..kuro\.G.H.\.G.
0960: 49 80 45 00 80 F0 FF FF  7F F0 FF FF 7F 66 64 6F  I.E..........fdo
0970: 30 01 80 55 00 80 F0 FF  FF 7F F0 FF FF 7F 66 64  0..U..........fd
0980: 6F 30 52 13 80 F8 FF FF  7F F8 FF FF 7F 73 30 37  o0R..........s07
0990: 32 29 08 06 11 10 01 22  45 13 80 F8 FF FF 7F F8  2)....."E.......
09A0: FF FF 7F 73 30 32 33 01  80 1C 14 80 6A 4A 80 25  ...s023.....jJ.%
09B0: 80 1B 80 4B D3 10 10 01  4B 80 4B CF 10 10 01 4C  ...K....K.K....L
09C0: 80 45 00 80 F0 FF FF 7F  F0 FF FF 7F 66 64 69 30  .E..........fdi0
09D0: 01 80 55 00 80 F0 FF FF  7F F0 FF FF 7F 66 64 69  ..U..........fdi
09E0: 30 27 08 C3 10 10 01 4F  27 08 06 11 10 01 3E 2B  0'.....O'.....>+
09F0: C3 10 10 01 4D 80 23 2A  08 C3 10 10 01 2A 08 06  ....M.#*.....*..
0A00: 11 10 01 27 08 C3 10 10  01 4C 1C 4E 80 52 13 80  ...'.....L.N.R..
0A10: F8 FF FF 7F F8 FF FF 7F  73 30 32 33 45 13 80 F8  ........s023E...
0A20: FF FF 7F F8 FF FF 7F 73  30 32 34 01 80 2B C3 10  .......s024..+..
0A30: 10 01 4F 80 23 2B C3 10  10 01 50 80 1C 16 80 23  ..O.#+....P....#
0A40: 52 13 80 F8 FF FF 7F F8  FF FF 7F 73 30 32 34 45  R..........s024E
0A50: 13 80 F0 FF FF 7F F0 FF  FF 7F 30 62 6C 66 01 80  ..........0blf..
0A60: 45 13 80 F8 FF FF 7F F8  FF FF 7F 73 30 32 35 01  E..........s025.
0A70: 80 29 08 C3 10 10 01 4E  2B C3 10 10 01 51 80 1C  .).....N+....Q..
0A80: 16 80 23 52 13 80 F8 FF  FF 7F F8 FF FF 7F 73 30  ..#R..........s0
0A90: 32 35 45 13 80 F8 FF FF  7F F8 FF FF 7F 73 30 32  25E..........s02
0AA0: 36 01 80 27 08 C3 10 10  01 51 2B C3 10 10 01 52  6..'.....Q+....R
0AB0: 80 23 2B C3 10 10 01 53  80 23 2A 08 C3 10 10 01  .#+....S.#*.....
0AC0: 1C 1C 80 4B C3 10 10 01  54 80 52 13 80 F8 FF FF  ...K....T.R.....
0AD0: 7F F8 FF FF 7F 73 30 32  36 45 13 80 F8 FF FF 7F  .....s026E......
0AE0: F8 FF FF 7F 73 30 32 37  01 80 6F 76 C3 10 10 01  ....s027..ov....
0AF0: 27 08 F0 FF FF 7F 63 1C  55 80 05 01 10 45 00 80  '.....c.U....E..
0B00: F0 FF FF 7F F0 FF FF 7F  66 64 6F 31 01 80 55 00  ........fdo1..U.
0B10: 80 F0 FF FF 7F F0 FF FF  7F 66 64 6F 31 1C 14 80  .........fdo1...
0B20: 52 13 80 F8 FF FF 7F F8  FF FF 7F 73 30 30 34 52  R..........s004R
0B30: 13 80 F8 FF FF 7F F8 FF  FF 7F 73 30 32 37 02 01  ..........s027..
0B40: 10 22 80 00 4D 0B 48 56  80 1C 57 80 23 4E 01 04  ."..M.HV..W.#N..
0B50: 11 10 01 4E 00 2D 11 10  01 4E 00 2E 11 10 01 4E  ...N.-...N.....N
0B60: 00 8D 10 10 01 4E 00 E0  10 10 01 4E 00 7E 10 10  .....N.....N.~..
0B70: 01 4E 00 DE 10 10 01 4E  00 DF 10 10 01 4E 00 D1  .N.....N.....N..
0B80: 10 10 01 4E 00 CF 10 10  01 5C 00 03 80 5C 01 03  ...N.....\...\..
0B90: 80 9A 5D 47 80 22 80 1C  14 80 AB 11 01 80 1C 22  ..]G."........."
0BA0: 80 AB 0A 46 00 45 00 80  F0 FF FF 7F F0 FF FF 7F  ...F.E..........
0BB0: 66 64 69 32 01 80 21 00                           fdi2..!.        
```

#### Opcodes

```
  0: 0x0001 [0x42] SET_CLI_EVENT_CANCEL_DATA()
  1: 0x0002 [0x06] Work_Zone[1] = 0
  2: 0x0005 [0x45] LOAD_SCHEDULED_TASK: Load scheduler "fdo1" with entities [LocalPlayer, LocalPlayer], work=[200*, 0*]
  3: 0x0016 [0x55] WAIT_LOAD_SCHEDULER: Wait for scheduler "fdo1" with entities [LocalPlayer, LocalPlayer], work=200*
  4: 0x0025 [0x46] CAMERA_CONTROL: Disable user control
  5: 0x0027 [0x38] SET_CLIENT_EVENT_MODE(mode=27*)
  6: 0x002A [0x5C] MUSIC_CONTROL: Set Idle (Day) music to song 63*
  7: 0x002E [0x5C] MUSIC_CONTROL: Set Idle (Night) music to song 63*
  8: 0x0032 [0x9A] WAIT_MUSIC_SERVER()
  9: 0x0033 [0x4E] SET_ENTITY_HIDE_FLAG: Show LocalPlayer
 10: 0x0039 [0x4E] SET_ENTITY_HIDE_FLAG: Show Roskin (ID: 17830083/0x011010C3)
 11: 0x003F [0x4E] SET_ENTITY_HIDE_FLAG: Show Palomel (ID: 17830150/0x01101106)
 12: 0x0045 [0x4E] SET_ENTITY_HIDE_FLAG: Show Palomel (ID: 17830088/0x011010C8)
 13: 0x004B [0x4E] SET_ENTITY_HIDE_FLAG: Show Unnamed NPC (ID: 17830148/0x01101104)
 14: 0x0051 [0x4E] SET_ENTITY_HIDE_FLAG: Hide Stavalian (ID: 17830111/0x011010DF)
 15: 0x0057 [0x2F] Roskin (ID: 17830083/0x011010C3)->Render.Flags0 &= ~0x80000 // Bit 19
 16: 0x005D [0x2F] Palomel (ID: 17830088/0x011010C8)->Render.Flags0 &= ~0x80000 // Bit 19
 17: 0x0063 [0x2F] Palomel (ID: 17830150/0x01101106)->Render.Flags0 &= ~0x80000 // Bit 19
 18: 0x0069 [0x2F] Unnamed NPC (ID: 17830148/0x01101104)->Render.Flags0 &= ~0x80000 // Bit 19
 19: 0x006F [0x92] Unnamed NPC (ID: 17830148/0x01101104)->Render.Flags3 ^= 0x01
 20: 0x0075 [0x92] Roskin (ID: 17830083/0x011010C3)->Render.Flags3 ^= 0x01
 21: 0x007B [0x92] Jozhud (ID: 17830099/0x011010D3)->Render.Flags3 ^= 0x01
 22: 0x0081 [0x92] Palomel (ID: 17830088/0x011010C8)->Render.Flags3 ^= 0x01
 23: 0x0087 [0x92] Palomel (ID: 17830150/0x01101106)->Render.Flags3 ^= 0x01
 24: 0x008D [0x94] Unnamed NPC (ID: 17830148/0x01101104)->Render.Flags3 ^= 0x01
 25: 0x0093 [0x94] Roskin (ID: 17830083/0x011010C3)->Render.Flags3 ^= 0x01
 26: 0x0099 [0x94] Palomel (ID: 17830088/0x011010C8)->Render.Flags3 ^= 0x01
 27: 0x009F [0x94] Palomel (ID: 17830150/0x01101106)->Render.Flags3 ^= 0x01
 28: 0x00A5 [0x94] LocalPlayer->Render.Flags3 ^= 0x01
 29: 0x00AB [0xBA] SET_ENTITY_POSITION(entity_id=LocalPlayer, pos_x=-35.816*, pos_z=-22.567*, pos_y=-0.148*, direction=74.7°*)
 30: 0x00B8 [0xBA] SET_ENTITY_POSITION(entity_id=Unnamed NPC (ID: 17830148/0x01101104), pos_x=-46.848*, pos_z=-13.794*, pos_y=-0.074*, direction=35.2°*)
 31: 0x00C5 [0xBA] SET_ENTITY_POSITION(entity_id=Palomel (ID: 17830150/0x01101106), pos_x=-40.487*, pos_z=-28.814*, pos_y=-0.148*, direction=326.6°*)
 32: 0x00D2 [0xBA] SET_ENTITY_POSITION(entity_id=Palomel (ID: 17830088/0x011010C8), pos_x=-74.323*, pos_z=-54.658*, pos_y=-0.649*, direction=318.4°*)
 33: 0x00DF [0x4A] LocalPlayer looks at Roskin (ID: 17830083/0x011010C3)
 34: 0x00E8 [0x80] LOAD_WAIT(entity=Roskin (ID: 17830083/0x011010C3))
 35: 0x00ED [0x80] LOAD_WAIT(entity=Palomel (ID: 17830150/0x01101106))
 36: 0x00F2 [0x80] LOAD_WAIT(entity=Palomel (ID: 17830088/0x011010C8))
 37: 0x00F7 [0x80] LOAD_WAIT(entity=LocalPlayer)
 38: 0x00FC [0x27] REQ_SET(priority=0x08, entity_id=Palomel (ID: 17830150/0x01101106), tag_num=0x27)
 39: 0x0103 [0x29] REQ_SET_WAIT(priority=0x08, entity_id=Palomel (ID: 17830150/0x01101106), tag_num=0x28)
 40: 0x010A [0x45] LOAD_SCHEDULED_TASK: Load scheduler "s000" with entities [EventEntity, EventEntity], work=[702*, 0*]
 41: 0x011B [0x1C] WAIT(15* ticks)
 42: 0x011E [0x45] LOAD_SCHEDULED_TASK: Load scheduler "fdi1" with entities [LocalPlayer, LocalPlayer], work=[200*, 0*]
 43: 0x012F [0x2B] Roskin (ID: 17830083/0x011010C3) [11152*]:
    → "If it isn't my favorite pioneer, unsurprisingly come to grace me with [his/her] presence! And since you're here, if I may ask..."
 44: 0x0136 [0x1C] WAIT(80* ticks)
 45: 0x0139 [0x23] WAIT_FOR_DIALOG_INTERACTION
 46: 0x013A [0x4A] Roskin (ID: 17830083/0x011010C3) looks at LocalPlayer
 47: 0x0143 [0x52] END_LOAD_SCHEDULER: End scheduler "s000" with entities [EventEntity, EventEntity], work=702*
 48: 0x0152 [0x02] IF !(LocalPlayer->Race == 3*) GOTO 0x016E
 49: 0x015A [0x45] LOAD_SCHEDULED_TASK: Load scheduler "s012" with entities [EventEntity, EventEntity], work=[702*, 0*]
 50: 0x016B [0x01] GOTO 0x01EF
 51: 0x016E [0x02] IF !(LocalPlayer->Race == 4*) GOTO 0x018A
 52: 0x0176 [0x45] LOAD_SCHEDULED_TASK: Load scheduler "s012" with entities [EventEntity, EventEntity], work=[702*, 0*]
 53: 0x0187 [0x01] GOTO 0x01EF
 54: 0x018A [0x02] IF !(LocalPlayer->Race == 5*) GOTO 0x01A6
 55: 0x0192 [0x45] LOAD_SCHEDULED_TASK: Load scheduler "s014" with entities [EventEntity, EventEntity], work=[702*, 0*]
 56: 0x01A3 [0x01] GOTO 0x01EF
 57: 0x01A6 [0x02] IF !(LocalPlayer->Race == 6*) GOTO 0x01C2
 58: 0x01AE [0x45] LOAD_SCHEDULED_TASK: Load scheduler "s014" with entities [EventEntity, EventEntity], work=[702*, 0*]
 59: 0x01BF [0x01] GOTO 0x01EF
 60: 0x01C2 [0x02] IF !(LocalPlayer->Race == 8*) GOTO 0x01DE
 61: 0x01CA [0x45] LOAD_SCHEDULED_TASK: Load scheduler "s012" with entities [EventEntity, EventEntity], work=[702*, 0*]
 62: 0x01DB [0x01] GOTO 0x01EF
 63: 0x01DE [0x45] LOAD_SCHEDULED_TASK: Load scheduler "s013" with entities [EventEntity, EventEntity], work=[702*, 0*]

SUBROUTINE_01EF:
 64: 0x01EF [0x6F] WAIT_FRAME_DELAY: Yield until WaitTime reaches zero
 65: 0x01F0 [0x76] CHECK_ENTITY_RENDER_FLAGS: Wait until Roskin (ID: 17830083/0x011010C3) Render.Flags0 and Render.Flags3 conditions are met
 66: 0x01F5 [0x29] REQ_SET_WAIT(priority=0x08, entity_id=LocalPlayer, tag_num=0x63)
 67: 0x01FC [0x52] END_LOAD_SCHEDULER: End scheduler "s012" with entities [EventEntity, EventEntity], work=702*
 68: 0x020B [0x52] END_LOAD_SCHEDULER: End scheduler "s013" with entities [EventEntity, EventEntity], work=702*
 69: 0x021A [0x52] END_LOAD_SCHEDULER: End scheduler "s014" with entities [EventEntity, EventEntity], work=702*
 70: 0x0229 [0x45] LOAD_SCHEDULED_TASK: Load scheduler "s001" with entities [EventEntity, EventEntity], work=[702*, 0*]
 71: 0x023A [0x29] REQ_SET_WAIT(priority=0x08, entity_id=Roskin (ID: 17830083/0x011010C3), tag_num=0x05)
 72: 0x0241 [0x1C] WAIT(30* ticks)
 73: 0x0244 [0x2B] Roskin (ID: 17830083/0x011010C3) [11153*]:
    → "You wound me with that dour look! Have you forgotten all we've been through, you and I?"
 74: 0x024B [0x23] WAIT_FOR_DIALOG_INTERACTION
 75: 0x024C [0x29] REQ_SET_WAIT(priority=0x08, entity_id=Roskin (ID: 17830083/0x011010C3), tag_num=0x06)
 76: 0x0253 [0x52] END_LOAD_SCHEDULER: End scheduler "s001" with entities [EventEntity, EventEntity], work=702*
 77: 0x0262 [0x45] LOAD_SCHEDULED_TASK: Load scheduler "s002" with entities [EventEntity, EventEntity], work=[702*, 0*]
 78: 0x0273 [0x27] REQ_SET(priority=0x08, entity_id=Roskin (ID: 17830083/0x011010C3), tag_num=0x07)
 79: 0x027A [0x2B] Roskin (ID: 17830083/0x011010C3) [11154*]:
    → "Of course you haven't! Why else would you appear so fortuitously by my side?"
 80: 0x0281 [0x23] WAIT_FOR_DIALOG_INTERACTION
 81: 0x0282 [0x29] REQ_SET_WAIT(priority=0x08, entity_id=Roskin (ID: 17830083/0x011010C3), tag_num=0x08)
 82: 0x0289 [0x27] REQ_SET(priority=0x08, entity_id=Roskin (ID: 17830083/0x011010C3), tag_num=0x52)
 83: 0x0290 [0x2B] Roskin (ID: 17830083/0x011010C3) [11155*]:
    → "You know what I'm thinking about. "Thinking" being the operative word here."
 84: 0x0297 [0x23] WAIT_FOR_DIALOG_INTERACTION
 85: 0x0298 [0x2A] GET_REQ_LEVEL(level=8, entity_id=Roskin (ID: 17830083/0x011010C3))
 86: 0x029E [0x52] END_LOAD_SCHEDULER: End scheduler "s002" with entities [EventEntity, EventEntity], work=702*
 87: 0x02AD [0x06] ExtData[1]->WorkLocal[2] = 0
 88: 0x02B0 [0x45] LOAD_SCHEDULED_TASK: Load scheduler "s003" with entities [EventEntity, EventEntity], work=[702*, 0*]

SUBROUTINE_02C1:
 89: 0x02C1 [0x24] CREATE_DIALOG(message_id=11156*, default_option=0*, option_flags=0*)
    → "How do you respond? [Aha./Huh?/Still thirsty?/No clue.]"
 90: 0x02C8 [0x25] WAIT_DIALOG_SELECT()
 91: 0x02C9 [0x02] IF !(Work_Zone[0] == 0*) GOTO 0x0326
 92: 0x02D1 [0x05] Work_Zone[1] = 1
 93: 0x02D4 [0x43] SEND_EVENT_UPDATE: Send pending tag to server (packet 0x005B)
 94: 0x02D6 [0x43] SEND_EVENT_UPDATE: Check pending flag (skip if not pending)
 95: 0x02D8 [0x52] END_LOAD_SCHEDULER: End scheduler "s003" with entities [EventEntity, EventEntity], work=702*
 96: 0x02E7 [0x45] LOAD_SCHEDULED_TASK: Load scheduler "s005" with entities [EventEntity, EventEntity], work=[702*, 0*]
 97: 0x02F8 [0x27] REQ_SET(priority=0x08, entity_id=Roskin (ID: 17830083/0x011010C3), tag_num=0x54)
 98: 0x02FF [0x2B] Roskin (ID: 17830083/0x011010C3) [11157*]:
    → "Yes! That's the [man/woman] I've grown to trust!"
 99: 0x0306 [0x23] WAIT_FOR_DIALOG_INTERACTION
100: 0x0307 [0x2A] GET_REQ_LEVEL(level=8, entity_id=Roskin (ID: 17830083/0x011010C3))
101: 0x030D [0x27] REQ_SET(priority=0x08, entity_id=Palomel (ID: 17830150/0x01101106), tag_num=0x29)
102: 0x0314 [0x52] END_LOAD_SCHEDULER: End scheduler "s005" with entities [EventEntity, EventEntity], work=702*
103: 0x0323 [0x01] GOTO 0x0596
104: 0x0326 [0x02] IF !(Work_Zone[0] == 1*) GOTO 0x04A9
105: 0x032E [0x52] END_LOAD_SCHEDULER: End scheduler "s003" with entities [EventEntity, EventEntity], work=702*
106: 0x033D [0x02] IF !(ExtData[1]->WorkLocal[2] < 3*) GOTO 0x045A
107: 0x0345 [0x05] Work_Zone[1] = 1
108: 0x0348 [0x43] SEND_EVENT_UPDATE: Send pending tag to server (packet 0x005B)
109: 0x034A [0x43] SEND_EVENT_UPDATE: Check pending flag (skip if not pending)
110: 0x034C [0x45] LOAD_SCHEDULED_TASK: Load scheduler "s009" with entities [EventEntity, EventEntity], work=[702*, 0*]
111: 0x035D [0x7B] Roskin (ID: 17830083/0x011010C3) stops talking
112: 0x0362 [0x27] REQ_SET(priority=0x08, entity_id=Roskin (ID: 17830083/0x011010C3), tag_num=0x11)
113: 0x0369 [0x2B] Roskin (ID: 17830083/0x011010C3) [11159*]:
    → "Hmph. I was being intentionally vague, so as to let the listener draw [his/her] own conclusions, thinking [he/she] would so dutifully accept my request..."
114: 0x0370 [0x23] WAIT_FOR_DIALOG_INTERACTION
115: 0x0371 [0x29] REQ_SET_WAIT(priority=0x08, entity_id=Roskin (ID: 17830083/0x011010C3), tag_num=0x12)
116: 0x0378 [0x52] END_LOAD_SCHEDULER: End scheduler "s009" with entities [EventEntity, EventEntity], work=702*
117: 0x0387 [0x02] IF !(LocalPlayer->Race == 5*) GOTO 0x03A3
118: 0x038F [0x45] LOAD_SCHEDULED_TASK: Load scheduler "s007" with entities [EventEntity, EventEntity], work=[702*, 0*]
119: 0x03A0 [0x01] GOTO 0x03D0
120: 0x03A3 [0x02] IF !(LocalPlayer->Race == 6*) GOTO 0x03BF
121: 0x03AB [0x45] LOAD_SCHEDULED_TASK: Load scheduler "s007" with entities [EventEntity, EventEntity], work=[702*, 0*]
122: 0x03BC [0x01] GOTO 0x03D0
123: 0x03BF [0x45] LOAD_SCHEDULED_TASK: Load scheduler "s006" with entities [EventEntity, EventEntity], work=[702*, 0*]

SUBROUTINE_03D0:
124: 0x03D0 [0x27] REQ_SET(priority=0x08, entity_id=Palomel (ID: 17830150/0x01101106), tag_num=0x29)
125: 0x03D7 [0x27] REQ_SET(priority=0x08, entity_id=LocalPlayer, tag_num=0x64)
126: 0x03DE [0x27] REQ_SET(priority=0x08, entity_id=Roskin (ID: 17830083/0x011010C3), tag_num=0x13)
127: 0x03E5 [0x29] REQ_SET_WAIT(priority=0x08, entity_id=Palomel (ID: 17830150/0x01101106), tag_num=0x2A)
128: 0x03EC [0x1C] WAIT(30* ticks)
129: 0x03EF [0x27] REQ_SET(priority=0x08, entity_id=Palomel (ID: 17830150/0x01101106), tag_num=0x13)
130: 0x03F6 [0x1C] WAIT(30* ticks)
131: 0x03F9 [0x29] REQ_SET_WAIT(priority=0x08, entity_id=Roskin (ID: 17830083/0x011010C3), tag_num=0x14)
132: 0x0400 [0x27] REQ_SET(priority=0x08, entity_id=Roskin (ID: 17830083/0x011010C3), tag_num=0x49)
133: 0x0407 [0x2B] Roskin (ID: 17830083/0x011010C3) [11160*]:
    → "H-hey! Get those legs of yours back here! I take it all back--just please, hear me out!"
134: 0x040E [0x1C] WAIT(80* ticks)
135: 0x0411 [0x2A] GET_REQ_LEVEL(level=8, entity_id=LocalPlayer)
136: 0x0417 [0x2A] GET_REQ_LEVEL(level=8, entity_id=Roskin (ID: 17830083/0x011010C3))
137: 0x041D [0x23] WAIT_FOR_DIALOG_INTERACTION
138: 0x041E [0x27] REQ_SET(priority=0x08, entity_id=LocalPlayer, tag_num=0x65)
139: 0x0425 [0x1C] WAIT(60* ticks)
140: 0x0428 [0x27] REQ_SET(priority=0x08, entity_id=Roskin (ID: 17830083/0x011010C3), tag_num=0x4A)
141: 0x042F [0x79] Roskin (ID: 17830083/0x011010C3) looks at LocalPlayer (Basic look)
142: 0x0439 [0x52] END_LOAD_SCHEDULER: End scheduler "s006" with entities [EventEntity, EventEntity], work=702*
143: 0x0448 [0x52] END_LOAD_SCHEDULER: End scheduler "s007" with entities [EventEntity, EventEntity], work=702*
144: 0x0457 [0x01] GOTO 0x04A6
145: 0x045A [0x45] LOAD_SCHEDULED_TASK: Load scheduler "s005" with entities [EventEntity, EventEntity], work=[702*, 0*]
146: 0x046B [0x27] REQ_SET(priority=0x08, entity_id=Roskin (ID: 17830083/0x011010C3), tag_num=0x56)
147: 0x0472 [0x2B] Roskin (ID: 17830083/0x011010C3) [11158*]:
    → "Why, the same as always, my friend! We must investigate vestiges of the past...together!"
148: 0x0479 [0x23] WAIT_FOR_DIALOG_INTERACTION
149: 0x047A [0x2A] GET_REQ_LEVEL(level=8, entity_id=Roskin (ID: 17830083/0x011010C3))
150: 0x0480 [0x0B] ExtData[1]->WorkLocal[2]++
151: 0x0483 [0x52] END_LOAD_SCHEDULER: End scheduler "s005" with entities [EventEntity, EventEntity], work=702*
152: 0x0492 [0x45] LOAD_SCHEDULED_TASK: Load scheduler "s003" with entities [EventEntity, EventEntity], work=[702*, 0*]
153: 0x04A3 [0x01] GOTO 0x02C1

SUBROUTINE_04A6:
154: 0x04A6 [0x01] GOTO 0x0596
155: 0x04A9 [0x02] IF !(Work_Zone[0] == 2*) GOTO 0x0543
156: 0x04B1 [0x05] Work_Zone[1] = 1
157: 0x04B4 [0x43] SEND_EVENT_UPDATE: Send pending tag to server (packet 0x005B)
158: 0x04B6 [0x43] SEND_EVENT_UPDATE: Check pending flag (skip if not pending)
159: 0x04B8 [0x52] END_LOAD_SCHEDULER: End scheduler "s003" with entities [EventEntity, EventEntity], work=702*
160: 0x04C7 [0x45] LOAD_SCHEDULED_TASK: Load scheduler "s010" with entities [EventEntity, EventEntity], work=[702*, 0*]
161: 0x04D8 [0x27] REQ_SET(priority=0x08, entity_id=Roskin (ID: 17830083/0x011010C3), tag_num=0x58)
162: 0x04DF [0x2B] Roskin (ID: 17830083/0x011010C3) [11161*]:
    → "Y-you have already procured...!? Why, I, uh, don't know what to say."
163: 0x04E6 [0x23] WAIT_FOR_DIALOG_INTERACTION
164: 0x04E7 [0x2A] GET_REQ_LEVEL(level=8, entity_id=Roskin (ID: 17830083/0x011010C3))
165: 0x04ED [0x52] END_LOAD_SCHEDULER: End scheduler "s010" with entities [EventEntity, EventEntity], work=702*
166: 0x04FC [0x45] LOAD_SCHEDULED_TASK: Load scheduler "s011" with entities [EventEntity, EventEntity], work=[702*, 0*]
167: 0x050D [0x27] REQ_SET(priority=0x08, entity_id=Roskin (ID: 17830083/0x011010C3), tag_num=0x54)
168: 0x0514 [0x2B] Roskin (ID: 17830083/0x011010C3) [11162*]:
    → "D-don't worry. I promise not to make you cajole Yocile in my stead this time. "This time" being the operative phrase here."
169: 0x051B [0x23] WAIT_FOR_DIALOG_INTERACTION
170: 0x051C [0x2B] Roskin (ID: 17830083/0x011010C3) [11163*]:
    → "No, I wish you to hear my tale and let the story play out as it will."
171: 0x0523 [0x23] WAIT_FOR_DIALOG_INTERACTION
172: 0x0524 [0x2A] GET_REQ_LEVEL(level=8, entity_id=Roskin (ID: 17830083/0x011010C3))
173: 0x052A [0x27] REQ_SET(priority=0x08, entity_id=Palomel (ID: 17830150/0x01101106), tag_num=0x29)
174: 0x0531 [0x52] END_LOAD_SCHEDULER: End scheduler "s011" with entities [EventEntity, EventEntity], work=702*
175: 0x0540 [0x01] GOTO 0x0596
176: 0x0543 [0x02] IF !(Work_Zone[0] == 3*) GOTO 0x0596
177: 0x054B [0x52] END_LOAD_SCHEDULER: End scheduler "s003" with entities [EventEntity, EventEntity], work=702*
178: 0x055A [0x45] LOAD_SCHEDULED_TASK: Load scheduler "s004" with entities [EventEntity, EventEntity], work=[702*, 0*]
179: 0x056B [0x7B] Roskin (ID: 17830083/0x011010C3) stops talking
180: 0x0570 [0x27] REQ_SET(priority=0x08, entity_id=Roskin (ID: 17830083/0x011010C3), tag_num=0x11)
181: 0x0577 [0x27] REQ_SET(priority=0x08, entity_id=Palomel (ID: 17830150/0x01101106), tag_num=0x29)
182: 0x057E [0x2B] Roskin (ID: 17830083/0x011010C3) [11164*]:
    → "C-could it be that my sixth sense has failed me?"
183: 0x0585 [0x23] WAIT_FOR_DIALOG_INTERACTION
184: 0x0586 [0x29] REQ_SET_WAIT(priority=0x08, entity_id=Roskin (ID: 17830083/0x011010C3), tag_num=0x12)
185: 0x058D [0x06] Work_Zone[1] = 0
186: 0x0590 [0x01] GOTO 0x0AFD

SUBROUTINE_0596:
187: 0x0596 [0x45] LOAD_SCHEDULED_TASK: Load scheduler "s008" with entities [EventEntity, EventEntity], work=[702*, 0*]
188: 0x05A7 [0x2A] GET_REQ_LEVEL(level=8, entity_id=Roskin (ID: 17830083/0x011010C3))
189: 0x05AD [0x27] REQ_SET(priority=0x08, entity_id=Roskin (ID: 17830083/0x011010C3), tag_num=0x01)
190: 0x05B4 [0x2B] Roskin (ID: 17830083/0x011010C3) [11165*]:
    → "The project I'm working on is of much import--it concerns the founder king and his generals."
191: 0x05BB [0x23] WAIT_FOR_DIALOG_INTERACTION
192: 0x05BC [0x29] REQ_SET_WAIT(priority=0x08, entity_id=Roskin (ID: 17830083/0x011010C3), tag_num=0x02)
193: 0x05C3 [0x2A] GET_REQ_LEVEL(level=8, entity_id=LocalPlayer)
194: 0x05C9 [0x27] REQ_SET(priority=0x08, entity_id=Roskin (ID: 17830083/0x011010C3), tag_num=0x03)
195: 0x05D0 [0x2B] Roskin (ID: 17830083/0x011010C3) [11166*]:
    → "Think of the ramifications! We could unveil the truth behind Adoulin's most storied myths and legends!"
196: 0x05D7 [0x23] WAIT_FOR_DIALOG_INTERACTION
197: 0x05D8 [0x29] REQ_SET_WAIT(priority=0x08, entity_id=Roskin (ID: 17830083/0x011010C3), tag_num=0x04)
198: 0x05DF [0x52] END_LOAD_SCHEDULER: End scheduler "s008" with entities [EventEntity, EventEntity], work=702*
199: 0x05EE [0x45] LOAD_SCHEDULED_TASK: Load scheduler "s015" with entities [EventEntity, EventEntity], work=[702*, 0*]
200: 0x05FF [0x27] REQ_SET(priority=0x08, entity_id=Roskin (ID: 17830083/0x011010C3), tag_num=0x57)
201: 0x0606 [0x2B] Roskin (ID: 17830083/0x011010C3) [11167*]:
    → "It certainly sounds like a pretty affair, but with every light comes a shadow. You'd sooner stumble upon an even-tempered Velkk than chance upon tales of indisputable veracity."
202: 0x060D [0x23] WAIT_FOR_DIALOG_INTERACTION
203: 0x060E [0x2A] GET_REQ_LEVEL(level=8, entity_id=Roskin (ID: 17830083/0x011010C3))
204: 0x0614 [0x2B] Roskin (ID: 17830083/0x011010C3) [11168*]:
    → "...Or so one would think. I, however, happen to have come prepared."
205: 0x061B [0x23] WAIT_FOR_DIALOG_INTERACTION
206: 0x061C [0x52] END_LOAD_SCHEDULER: End scheduler "s015" with entities [EventEntity, EventEntity], work=702*
207: 0x062B [0x45] LOAD_SCHEDULED_TASK: Load scheduler "s016" with entities [EventEntity, EventEntity], work=[702*, 0*]
208: 0x063C [0x27] REQ_SET(priority=0x08, entity_id=Roskin (ID: 17830083/0x011010C3), tag_num=0x4D)
209: 0x0643 [0x03] Work_Zone[2] = 2613*
210: 0x0648 [0x2B] Roskin (ID: 17830083/0x011010C3) [11169*]:
    → "This amazing $3, specially made by the Inventors' Coalition, has the ability to view snippets of the past."
211: 0x064F [0x23] WAIT_FOR_DIALOG_INTERACTION
212: 0x0650 [0x2B] Roskin (ID: 17830083/0x011010C3) [11170*]:
    → "Tell me--doesn't that news set your heart aflutter?"
213: 0x0657 [0x23] WAIT_FOR_DIALOG_INTERACTION
214: 0x0658 [0x2B] Roskin (ID: 17830083/0x011010C3) [11171*]:
    → "There's just one itsy-bitsy bump in the road..."
215: 0x065F [0x23] WAIT_FOR_DIALOG_INTERACTION
216: 0x0660 [0x2A] GET_REQ_LEVEL(level=8, entity_id=Roskin (ID: 17830083/0x011010C3))
217: 0x0666 [0x52] END_LOAD_SCHEDULER: End scheduler "s016" with entities [EventEntity, EventEntity], work=702*
218: 0x0675 [0x02] IF !(LocalPlayer->Race == 5*) GOTO 0x0691
219: 0x067D [0x45] LOAD_SCHEDULED_TASK: Load scheduler "s018" with entities [EventEntity, EventEntity], work=[702*, 0*]
220: 0x068E [0x01] GOTO 0x06BE
221: 0x0691 [0x02] IF !(LocalPlayer->Race == 6*) GOTO 0x06AD
222: 0x0699 [0x45] LOAD_SCHEDULED_TASK: Load scheduler "s018" with entities [EventEntity, EventEntity], work=[702*, 0*]
223: 0x06AA [0x01] GOTO 0x06BE
224: 0x06AD [0x45] LOAD_SCHEDULED_TASK: Load scheduler "s017" with entities [EventEntity, EventEntity], work=[702*, 0*]

SUBROUTINE_06BE:
225: 0x06BE [0x24] CREATE_DIALOG(message_id=11172*, default_option=0*, option_flags=0*)
    → "How do you respond? [Bump? What kind of bump?/Just get to the point.]"
226: 0x06C5 [0x25] WAIT_DIALOG_SELECT()
227: 0x06C6 [0x02] IF !(Work_Zone[0] == 0*) GOTO 0x0785
228: 0x06CE [0x52] END_LOAD_SCHEDULER: End scheduler "s017" with entities [EventEntity, EventEntity], work=702*
229: 0x06DD [0x52] END_LOAD_SCHEDULER: End scheduler "s018" with entities [EventEntity, EventEntity], work=702*
230: 0x06EC [0x45] LOAD_SCHEDULED_TASK: Load scheduler "s019" with entities [EventEntity, EventEntity], work=[702*, 0*]
231: 0x06FD [0x29] REQ_SET_WAIT(priority=0x08, entity_id=Roskin (ID: 17830083/0x011010C3), tag_num=0x05)
232: 0x0704 [0x1C] WAIT(30* ticks)
233: 0x0707 [0x2B] Roskin (ID: 17830083/0x011010C3) [11173*]:
    → "This peddler of old curios was raving about the wonders of this odd machine, you see? Who could pass up such a marvel? So I paid the king's ransom he was asking."
234: 0x070E [0x23] WAIT_FOR_DIALOG_INTERACTION
235: 0x070F [0x29] REQ_SET_WAIT(priority=0x08, entity_id=Roskin (ID: 17830083/0x011010C3), tag_num=0x06)
236: 0x0716 [0x2B] Roskin (ID: 17830083/0x011010C3) [11174*]:
    → "It was only later that I realized--the thing didn't come with any sort of manual!"
237: 0x071D [0x23] WAIT_FOR_DIALOG_INTERACTION
238: 0x071E [0x29] REQ_SET_WAIT(priority=0x08, entity_id=Roskin (ID: 17830083/0x011010C3), tag_num=0x07)
239: 0x0725 [0x29] REQ_SET_WAIT(priority=0x08, entity_id=Roskin (ID: 17830083/0x011010C3), tag_num=0x08)
240: 0x072C [0x52] END_LOAD_SCHEDULER: End scheduler "s019" with entities [EventEntity, EventEntity], work=702*
241: 0x073B [0x45] LOAD_SCHEDULED_TASK: Load scheduler "s005" with entities [EventEntity, EventEntity], work=[702*, 0*]
242: 0x074C [0x27] REQ_SET(priority=0x08, entity_id=Roskin (ID: 17830083/0x011010C3), tag_num=0x55)
243: 0x0753 [0x2B] Roskin (ID: 17830083/0x011010C3) [11175*]:
    → "Visions of the past are supposed to come floating to your mind like petals on the wind, but no matter how many times I open and close it or flip it on its side, it remains just what it seems--an old wooden box!"
244: 0x075A [0x23] WAIT_FOR_DIALOG_INTERACTION
245: 0x075B [0x2B] Roskin (ID: 17830083/0x011010C3) [11176*]:
    → "Ugh. Long story short..."
246: 0x0762 [0x23] WAIT_FOR_DIALOG_INTERACTION
247: 0x0763 [0x2A] GET_REQ_LEVEL(level=8, entity_id=Roskin (ID: 17830083/0x011010C3))
248: 0x0769 [0x27] REQ_SET(priority=0x08, entity_id=Roskin (ID: 17830083/0x011010C3), tag_num=0x49)
249: 0x0770 [0x1C] WAIT(60* ticks)
250: 0x0773 [0x52] END_LOAD_SCHEDULER: End scheduler "s005" with entities [EventEntity, EventEntity], work=702*
251: 0x0782 [0x01] GOTO 0x07B8
252: 0x0785 [0x02] IF !(Work_Zone[0] == 1*) GOTO 0x07B8
253: 0x078D [0x27] REQ_SET(priority=0x08, entity_id=Roskin (ID: 17830083/0x011010C3), tag_num=0x49)
254: 0x0794 [0x1C] WAIT(60* ticks)
255: 0x0797 [0x52] END_LOAD_SCHEDULER: End scheduler "s017" with entities [EventEntity, EventEntity], work=702*
256: 0x07A6 [0x52] END_LOAD_SCHEDULER: End scheduler "s018" with entities [EventEntity, EventEntity], work=702*
257: 0x07B5 [0x01] GOTO 0x07B8

SUBROUTINE_07B8:
258: 0x07B8 [0x45] LOAD_SCHEDULED_TASK: Load scheduler "s020" with entities [EventEntity, EventEntity], work=[702*, 0*]
259: 0x07C9 [0x2B] Roskin (ID: 17830083/0x011010C3) [11177*]:
    → "I have no idea how to use it!"
260: 0x07D0 [0x23] WAIT_FOR_DIALOG_INTERACTION
261: 0x07D1 [0x2A] GET_REQ_LEVEL(level=8, entity_id=Roskin (ID: 17830083/0x011010C3))
262: 0x07D7 [0x27] REQ_SET(priority=0x08, entity_id=Roskin (ID: 17830083/0x011010C3), tag_num=0x4A)
263: 0x07DE [0x1C] WAIT(30* ticks)
264: 0x07E1 [0x52] END_LOAD_SCHEDULER: End scheduler "s020" with entities [EventEntity, EventEntity], work=702*
265: 0x07F0 [0x45] LOAD_SCHEDULED_TASK: Load scheduler "s021" with entities [EventEntity, EventEntity], work=[702*, 0*]
266: 0x0801 [0x2A] GET_REQ_LEVEL(level=8, entity_id=Roskin (ID: 17830083/0x011010C3))
267: 0x0807 [0x27] REQ_SET(priority=0x08, entity_id=Roskin (ID: 17830083/0x011010C3), tag_num=0x4D)
268: 0x080E [0x27] REQ_SET(priority=0x08, entity_id=LocalPlayer, tag_num=0x62)
269: 0x0815 [0x2B] Roskin (ID: 17830083/0x011010C3) [11178*]:
    → "Since I can't make heads or tails of this stupid contraption, I'll let you borrow it. Mayhap you will have that stroke of luck that has thus far eluded me."
270: 0x081C [0x1C] WAIT(90* ticks)
271: 0x081F [0x23] WAIT_FOR_DIALOG_INTERACTION
272: 0x0820 [0x2B] Roskin (ID: 17830083/0x011010C3) [11179*]:
    → "Which brings me to a word of advice: remember that daft young girl from before? The one under the Scouts' Coalition's employ? Perhaps start with her."
273: 0x0827 [0x23] WAIT_FOR_DIALOG_INTERACTION
274: 0x0828 [0x2A] GET_REQ_LEVEL(level=8, entity_id=LocalPlayer)
275: 0x082E [0x2A] GET_REQ_LEVEL(level=8, entity_id=Roskin (ID: 17830083/0x011010C3))
276: 0x0834 [0x29] REQ_SET_WAIT(priority=0x08, entity_id=LocalPlayer, tag_num=0x17)
277: 0x083B [0x52] END_LOAD_SCHEDULER: End scheduler "s021" with entities [EventEntity, EventEntity], work=702*
278: 0x084A [0x45] LOAD_SCHEDULED_TASK: Load scheduler "s022" with entities [EventEntity, EventEntity], work=[702*, 0*]
279: 0x085B [0x1C] WAIT(25* ticks)
280: 0x085E [0x27] REQ_SET(priority=0x08, entity_id=Roskin (ID: 17830083/0x011010C3), tag_num=0x58)
281: 0x0865 [0x2B] Roskin (ID: 17830083/0x011010C3) [11180*]:
    → "Huh? Why don't I go myself?"
282: 0x086C [0x1C] WAIT(100* ticks)
283: 0x086F [0x23] WAIT_FOR_DIALOG_INTERACTION
284: 0x0870 [0x5C] MUSIC_CONTROL: Set music volume to song 31*, fade_time=240*
285: 0x0876 [0x5C] MUSIC_CONTROL: Adjust music volume to song 31*, fade_time=480*
286: 0x087C [0x45] LOAD_SCHEDULED_TASK: Load scheduler "who0" with entities [LocalPlayer, LocalPlayer], work=[201*, 0*]
287: 0x088D [0x55] WAIT_LOAD_SCHEDULER: Wait for scheduler "who0" with entities [LocalPlayer, LocalPlayer], work=201*
288: 0x089C [0x52] END_LOAD_SCHEDULER: End scheduler "s022" with entities [EventEntity, EventEntity], work=702*
289: 0x08AB [0x45] LOAD_SCHEDULED_TASK: Load scheduler "efon" with entities [LocalPlayer, LocalPlayer], work=[215*, 0*]
290: 0x08BC [0x55] WAIT_LOAD_SCHEDULER: Wait for scheduler "efon" with entities [LocalPlayer, LocalPlayer], work=215*
291: 0x08CB [0x45] LOAD_SCHEDULED_TASK: Load scheduler "s072" with entities [EventEntity, EventEntity], work=[702*, 0*]
292: 0x08DC [0x45] LOAD_SCHEDULED_TASK: Load scheduler "kuro" with entities [EventEntity, EventEntity], work=[702*, 0*]
293: 0x08ED [0x27] REQ_SET(priority=0x08, entity_id=Palomel (ID: 17830088/0x011010C8), tag_num=0x3B)
294: 0x08F4 [0x1C] WAIT(10* ticks)
295: 0x08F7 [0x45] LOAD_SCHEDULED_TASK: Load scheduler "whi1" with entities [LocalPlayer, LocalPlayer], work=[201*, 0*]
296: 0x0908 [0x55] WAIT_LOAD_SCHEDULER: Wait for scheduler "whi1" with entities [LocalPlayer, LocalPlayer], work=201*
297: 0x0917 [0xCD] LOAD_SCHEDULED_TASK_ALT4: Load scheduler "s002" with entities [EventEntity, EventEntity], work=[7*, 0*]
298: 0x0928 [0x4A] Jozhud (ID: 17830099/0x011010D3) looks at Palomel (ID: 17830088/0x011010C8)
299: 0x0931 [0x1C] WAIT(30* ticks)
300: 0x0934 [0x4A] Irate Destrier (ID: 17830095/0x011010CF) looks at Palomel (ID: 17830088/0x011010C8)
301: 0x093D [0x1C] WAIT(200* ticks)
302: 0x0940 [0x6A] CHANGE_SOUND_VOLUME: Set (Master)* volume to 0*, fade_time=60*
303: 0x0947 [0x52] END_LOAD_SCHEDULER: End scheduler "kuro" with entities [EventEntity, EventEntity], work=702*
304: 0x0956 [0x5C] MUSIC_CONTROL: Set music volume to song 127*, fade_time=300*
305: 0x095C [0x5C] MUSIC_CONTROL: Adjust music volume to song 127*, fade_time=600*
306: 0x0962 [0x45] LOAD_SCHEDULED_TASK: Load scheduler "fdo0" with entities [LocalPlayer, LocalPlayer], work=[200*, 0*]
307: 0x0973 [0x55] WAIT_LOAD_SCHEDULER: Wait for scheduler "fdo0" with entities [LocalPlayer, LocalPlayer], work=200*
308: 0x0982 [0x52] END_LOAD_SCHEDULER: End scheduler "s072" with entities [EventEntity, EventEntity], work=702*
309: 0x0991 [0x29] REQ_SET_WAIT(priority=0x08, entity_id=Palomel (ID: 17830150/0x01101106), tag_num=0x22)
310: 0x0998 [0x45] LOAD_SCHEDULED_TASK: Load scheduler "s023" with entities [EventEntity, EventEntity], work=[702*, 0*]
311: 0x09A9 [0x1C] WAIT(15* ticks)
312: 0x09AC [0x6A] CHANGE_SOUND_VOLUME: Set (Master)* volume to 999*, fade_time=60*
313: 0x09B3 [0x4B] UPDATE_ENTITY_YAW(entity=Jozhud (ID: 17830099/0x011010D3), yaw=354.4°*)
314: 0x09BA [0x4B] UPDATE_ENTITY_YAW(entity=Irate Destrier (ID: 17830095/0x011010CF), yaw=16.9°*)
315: 0x09C1 [0x45] LOAD_SCHEDULED_TASK: Load scheduler "fdi0" with entities [LocalPlayer, LocalPlayer], work=[200*, 0*]
316: 0x09D2 [0x55] WAIT_LOAD_SCHEDULER: Wait for scheduler "fdi0" with entities [LocalPlayer, LocalPlayer], work=200*
317: 0x09E1 [0x27] REQ_SET(priority=0x08, entity_id=Roskin (ID: 17830083/0x011010C3), tag_num=0x4F)
318: 0x09E8 [0x27] REQ_SET(priority=0x08, entity_id=Palomel (ID: 17830150/0x01101106), tag_num=0x3E)
319: 0x09EF [0x2B] Roskin (ID: 17830083/0x011010C3) [11181*]:
    → "Well, uh...y-you see... I don't think she and I..."
320: 0x09F6 [0x23] WAIT_FOR_DIALOG_INTERACTION
321: 0x09F7 [0x2A] GET_REQ_LEVEL(level=8, entity_id=Roskin (ID: 17830083/0x011010C3))
322: 0x09FD [0x2A] GET_REQ_LEVEL(level=8, entity_id=Palomel (ID: 17830150/0x01101106))
323: 0x0A03 [0x27] REQ_SET(priority=0x08, entity_id=Roskin (ID: 17830083/0x011010C3), tag_num=0x4C)
324: 0x0A0A [0x1C] WAIT(37* ticks)
325: 0x0A0D [0x52] END_LOAD_SCHEDULER: End scheduler "s023" with entities [EventEntity, EventEntity], work=702*
326: 0x0A1C [0x45] LOAD_SCHEDULED_TASK: Load scheduler "s024" with entities [EventEntity, EventEntity], work=[702*, 0*]
327: 0x0A2D [0x2B] Roskin (ID: 17830083/0x011010C3) [11182*]:
    → "Oh, come now! There's no one more suited to the job than you!"
328: 0x0A34 [0x23] WAIT_FOR_DIALOG_INTERACTION
329: 0x0A35 [0x2B] Roskin (ID: 17830083/0x011010C3) [11183*]:
    → "After all, we've worked together on multiple occasions. Not even the sky can limit you, my friend!"
330: 0x0A3C [0x1C] WAIT(80* ticks)
331: 0x0A3F [0x23] WAIT_FOR_DIALOG_INTERACTION
332: 0x0A40 [0x52] END_LOAD_SCHEDULER: End scheduler "s024" with entities [EventEntity, EventEntity], work=702*
333: 0x0A4F [0x45] LOAD_SCHEDULED_TASK: Load scheduler "0blf" with entities [LocalPlayer, LocalPlayer], work=[702*, 0*]
334: 0x0A60 [0x45] LOAD_SCHEDULED_TASK: Load scheduler "s025" with entities [EventEntity, EventEntity], work=[702*, 0*]
335: 0x0A71 [0x29] REQ_SET_WAIT(priority=0x08, entity_id=Roskin (ID: 17830083/0x011010C3), tag_num=0x4E)
336: 0x0A78 [0x2B] Roskin (ID: 17830083/0x011010C3) [11184*]:
    → "And look over there--even the Goddess herself is smiling upon you! O, praise be to Altana, may She deliver unto <Player> the secrets of this box!"
337: 0x0A7F [0x1C] WAIT(80* ticks)
338: 0x0A82 [0x23] WAIT_FOR_DIALOG_INTERACTION
339: 0x0A83 [0x52] END_LOAD_SCHEDULER: End scheduler "s025" with entities [EventEntity, EventEntity], work=702*
340: 0x0A92 [0x45] LOAD_SCHEDULED_TASK: Load scheduler "s026" with entities [EventEntity, EventEntity], work=[702*, 0*]
341: 0x0AA3 [0x27] REQ_SET(priority=0x08, entity_id=Roskin (ID: 17830083/0x011010C3), tag_num=0x51)
342: 0x0AAA [0x2B] Roskin (ID: 17830083/0x011010C3) [11185*]:
    → "See? Altana and I believe in you. "Altana" being the operative word here."
343: 0x0AB1 [0x23] WAIT_FOR_DIALOG_INTERACTION
344: 0x0AB2 [0x2B] Roskin (ID: 17830083/0x011010C3) [11186*]:
    → "Now, be off! I shan't keep you from your calling any longer!"
345: 0x0AB9 [0x23] WAIT_FOR_DIALOG_INTERACTION
346: 0x0ABA [0x2A] GET_REQ_LEVEL(level=8, entity_id=Roskin (ID: 17830083/0x011010C3))
347: 0x0AC0 [0x1C] WAIT(30* ticks)
348: 0x0AC3 [0x4B] UPDATE_ENTITY_YAW(entity=Roskin (ID: 17830083/0x011010C3), yaw=4.9°*)
349: 0x0ACA [0x52] END_LOAD_SCHEDULER: End scheduler "s026" with entities [EventEntity, EventEntity], work=702*
350: 0x0AD9 [0x45] LOAD_SCHEDULED_TASK: Load scheduler "s027" with entities [EventEntity, EventEntity], work=[702*, 0*]
351: 0x0AEA [0x6F] WAIT_FRAME_DELAY: Yield until WaitTime reaches zero
352: 0x0AEB [0x76] CHECK_ENTITY_RENDER_FLAGS: Wait until Roskin (ID: 17830083/0x011010C3) Render.Flags0 and Render.Flags3 conditions are met
353: 0x0AF0 [0x27] REQ_SET(priority=0x08, entity_id=LocalPlayer, tag_num=0x63)
354: 0x0AF7 [0x1C] WAIT(110* ticks)
355: 0x0AFA [0x05] Work_Zone[1] = 1

SUBROUTINE_0AFD:
356: 0x0AFD [0x45] LOAD_SCHEDULED_TASK: Load scheduler "fdo1" with entities [LocalPlayer, LocalPlayer], work=[200*, 0*]
357: 0x0B0E [0x55] WAIT_LOAD_SCHEDULER: Wait for scheduler "fdo1" with entities [LocalPlayer, LocalPlayer], work=200*
358: 0x0B1D [0x1C] WAIT(15* ticks)
359: 0x0B20 [0x52] END_LOAD_SCHEDULER: End scheduler "s004" with entities [EventEntity, EventEntity], work=702*
360: 0x0B2F [0x52] END_LOAD_SCHEDULER: End scheduler "s027" with entities [EventEntity, EventEntity], work=702*
361: 0x0B3E [0x02] IF !(Work_Zone[1] == 1*) GOTO 0x0B4D
362: 0x0B46 [0x48] [System] [11187*]:
    → "You find yourself in a terrible pickle."
363: 0x0B49 [0x1C] WAIT(40* ticks)
364: 0x0B4C [0x23] WAIT_FOR_DIALOG_INTERACTION
365: 0x0B4D [0x4E] SET_ENTITY_HIDE_FLAG: Hide Unnamed NPC (ID: 17830148/0x01101104)
366: 0x0B53 [0x4E] SET_ENTITY_HIDE_FLAG: Show Oston (ID: 17830189/0x0110112D)
367: 0x0B59 [0x4E] SET_ENTITY_HIDE_FLAG: Show Lola (ID: 17830190/0x0110112E)
368: 0x0B5F [0x4E] SET_ENTITY_HIDE_FLAG: Show Iyvah Halohm (ID: 17830029/0x0110108D)
369: 0x0B65 [0x4E] SET_ENTITY_HIDE_FLAG: Show Bernegeois (ID: 17830112/0x011010E0)
370: 0x0B6B [0x4E] SET_ENTITY_HIDE_FLAG: Show Yocile (ID: 17830014/0x0110107E)
371: 0x0B71 [0x4E] SET_ENTITY_HIDE_FLAG: Show Jampiaire (ID: 17830110/0x011010DE)
372: 0x0B77 [0x4E] SET_ENTITY_HIDE_FLAG: Show Stavalian (ID: 17830111/0x011010DF)
373: 0x0B7D [0x4E] SET_ENTITY_HIDE_FLAG: Show Alphonserme (ID: 17830097/0x011010D1)
374: 0x0B83 [0x4E] SET_ENTITY_HIDE_FLAG: Show Irate Destrier (ID: 17830095/0x011010CF)
375: 0x0B89 [0x5C] MUSIC_CONTROL: Set Idle (Day) music to song 63*
376: 0x0B8D [0x5C] MUSIC_CONTROL: Set Idle (Night) music to song 63*
377: 0x0B91 [0x9A] WAIT_MUSIC_SERVER()
378: 0x0B92 [0x5D] SET_MUSIC_VOLUME(volume=127*, fade_time=1*)
379: 0x0B97 [0x1C] WAIT(15* ticks)
380: 0x0B9A [0xAB] EventEntity->DespawnValue = 0* // Set despawn value
381: 0x0B9E [0x1C] WAIT(1* ticks)
382: 0x0BA1 [0xAB] EventEntity->UnknownFlag = 0 // Disable unknown flag
383: 0x0BA3 [0x46] CAMERA_CONTROL: Restore default settings
384: 0x0BA5 [0x45] LOAD_SCHEDULED_TASK: Load scheduler "fdi2" with entities [LocalPlayer, LocalPlayer], work=[200*, 0*]
385: 0x0BB6 [0x21] END_EVENT
386: 0x0BB7 [0x00] END_REQSTACK()
```

#### Data or dead code:

```
# Dead code (unreachable instructions):
     0x0593 [0x01] GOTO 0x0596
```

### Event 5126

#### Metadata

| Field        | Value      |
|--------------|------------|
| Entrypoint   | 0x0BB8     |
| Data Size    | 1355 bytes |
| Instructions | 160        |

```
      00 01 02 03 04 05 06 07  08 09 0A 0B 0C 0D 0E 0F
      -- -- -- -- -- -- -- --  -- -- -- -- -- -- -- --
0BB0:                          42 45 00 80 F0 FF FF 7F          BE......
0BC0: F0 FF FF 7F 66 64 6F 31  01 80 55 00 80 F0 FF FF  ....fdo1..U.....
0BD0: 7F F0 FF FF 7F 66 64 6F  31 46 01 38 02 80 4E 00  .....fdo1F.8..N.
0BE0: F0 FF FF 7F 4E 00 C8 10  10 01 4E 00 04 11 10 01  ....N.....N.....
0BF0: 2F 00 C8 10 10 01 2F 00  04 11 10 01 92 01 C8 10  /...../.........
0C00: 10 01 92 01 04 11 10 01  94 01 C8 10 10 01 94 01  ................
0C10: 04 11 10 01 94 01 F0 FF  FF 7F BA F0 FF FF 7F 58  ...............X
0C20: 80 59 80 06 80 5A 80 BA  04 11 10 01 5B 80 5C 80  .Y...Z......[.\.
0C30: 06 80 01 80 4A F0 FF FF  7F C8 10 10 01 80 C8 10  ....J...........
0C40: 10 01 80 04 11 10 01 80  F0 FF FF 7F 45 13 80 F8  ............E...
0C50: FF FF 7F F8 FF FF 7F 73  30 32 38 01 80 1C 14 80  .......s028.....
0C60: 4A C8 10 10 01 F0 FF FF  7F 45 00 80 F0 FF FF 7F  J........E......
0C70: F0 FF FF 7F 66 64 69 31  01 80 6F 76 C8 10 10 01  ....fdi1..ov....
0C80: 2B C8 10 10 01 5D 80 1C  16 80 23 52 13 80 F8 FF  +....]....#R....
0C90: FF 7F F8 FF FF 7F 73 30  32 38 45 13 80 F8 FF FF  ......s028E.....
0CA0: 7F F8 FF FF 7F 73 30 33  30 01 80 27 08 C8 10 10  .....s030..'....
0CB0: 01 23 2B C8 10 10 01 5E  80 1C 16 80 23 29 08 C8  .#+....^....#)..
0CC0: 10 10 01 24 52 13 80 F8  FF FF 7F F8 FF FF 7F 73  ...$R..........s
0CD0: 30 33 30 02 87 7F 17 80  80 EF 0C 45 13 80 F8 FF  030........E....
0CE0: FF 7F F8 FF FF 7F 73 30  32 39 01 80 01 38 0D 02  ......s029...8..
0CF0: 87 7F 18 80 80 0B 0D 45  13 80 F8 FF FF 7F F8 FF  .......E........
0D00: FF 7F 73 30 32 39 01 80  01 38 0D 02 87 7F 1B 80  ..s029...8......
0D10: 80 27 0D 45 13 80 F8 FF  FF 7F F8 FF FF 7F 73 30  .'.E..........s0
0D20: 32 39 01 80 01 38 0D 45  13 80 F8 FF FF 7F F8 FF  29...8.E........
0D30: FF 7F 73 30 33 31 01 80  29 08 F0 FF FF 7F 1B 1C  ..s031..).......
0D40: 55 80 27 08 C8 10 10 01  25 2B C8 10 10 01 5F 80  U.'.....%+...._.
0D50: 23 29 08 C8 10 10 01 26  29 08 F0 FF FF 7F 17 1C  #).....&).......
0D60: 60 80 27 08 C8 10 10 01  07 52 13 80 F8 FF FF 7F  `.'......R......
0D70: F8 FF FF 7F 73 30 32 39  52 13 80 F8 FF FF 7F F8  ....s029R.......
0D80: FF FF 7F 73 30 33 31 45  13 80 F8 FF FF 7F F8 FF  ...s031E........
0D90: FF 7F 73 30 33 32 01 80  03 02 10 61 80 2B C8 10  ..s032.....a.+..
0DA0: 10 01 62 80 23 29 08 C8  10 10 01 08 2B C8 10 10  ..b.#)......+...
0DB0: 01 63 80 23 27 08 C8 10  10 01 09 2B C8 10 10 01  .c.#'......+....
0DC0: 64 80 23 29 08 C8 10 10  01 0A 52 13 80 F8 FF FF  d.#)......R.....
0DD0: 7F F8 FF FF 7F 73 30 33  32 06 00 00 45 13 80 F8  .....s032...E...
0DE0: FF FF 7F F8 FF FF 7F 73  30 33 33 01 80 24 65 80  .......s033..$e.
0DF0: 01 80 00 00 25 02 00 10  01 80 00 0F 0E 52 13 80  ....%........R..
0E00: F8 FF FF 7F F8 FF FF 7F  73 30 33 33 01 36 0F 02  ........s033.6..
0E10: 00 10 22 80 00 BC 0E 52  13 80 F8 FF FF 7F F8 FF  .."....R........
0E20: FF 7F 73 30 33 33 45 13  80 F8 FF FF 7F F8 FF FF  ..s033E.........
0E30: 7F 73 30 33 34 01 80 45  13 80 F8 FF FF 7F F8 FF  .s034..E........
0E40: FF 7F 73 30 33 35 01 80  7B C8 10 10 01 27 08 C8  ..s035..{....'..
0E50: 10 10 01 1B 29 08 C8 10  10 01 1C 2B C8 10 10 01  ....)......+....
0E60: 66 80 1C 16 80 23 45 13  80 F8 FF FF 7F F8 FF FF  f....#E.........
0E70: 7F 73 30 33 36 01 80 52  13 80 F8 FF FF 7F F8 FF  .s036..R........
0E80: FF 7F 73 30 33 34 45 13  80 F8 FF FF 7F F8 FF FF  ..s034E.........
0E90: 7F 73 30 33 33 01 80 79  00 C8 10 10 01 F0 FF FF  .s033..y........
0EA0: 7F 27 08 C8 10 10 01 1D  29 08 C8 10 10 01 1E 3C  .'......)......<
0EB0: 00 00 22 80 22 80 01 ED  0D 01 36 0F 02 00 10 27  ..".".....6....'
0EC0: 80 00 36 0F 52 13 80 F8  FF FF 7F F8 FF FF 7F 73  ..6.R..........s
0ED0: 30 33 33 45 13 80 F8 FF  FF 7F F8 FF FF 7F 73 30  033E..........s0
0EE0: 33 37 01 80 7B C8 10 10  01 27 08 C8 10 10 01 13  37..{....'......
0EF0: 2B C8 10 10 01 67 80 23  29 08 C8 10 10 01 14 3C  +....g.#)......<
0F00: 00 00 27 80 22 80 52 13  80 F8 FF FF 7F F8 FF FF  ..'.".R.........
0F10: 7F 73 30 33 37 45 13 80  F8 FF FF 7F F8 FF FF 7F  .s037E..........
0F20: 73 30 33 33 01 80 79 00  C8 10 10 01 F0 FF FF 7F  s033..y.........
0F30: 01 ED 0D 01 36 0F 45 13  80 F8 FF FF 7F F8 FF FF  ....6.E.........
0F40: 7F 73 30 33 38 01 80 2B  C8 10 10 01 68 80 1C 3F  .s038..+....h..?
0F50: 80 23 27 08 C8 10 10 01  1F 1C 3D 80 52 13 80 F8  .#'.......=.R...
0F60: FF FF 7F F8 FF FF 7F 73  30 33 38 45 13 80 F8 FF  .......s038E....
0F70: FF 7F F8 FF FF 7F 73 30  33 39 01 80 2B C8 10 10  ......s039..+...
0F80: 01 69 80 23 2B C8 10 10  01 6A 80 29 08 C8 10 10  .i.#+....j.)....
0F90: 01 20 1C 60 80 23 52 13  80 F8 FF FF 7F F8 FF FF  . .`.#R.........
0FA0: 7F 73 30 33 39 45 13 80  F0 FF FF 7F F0 FF FF 7F  .s039E..........
0FB0: 30 62 6C 66 01 80 45 13  80 F8 FF FF 7F F8 FF FF  0blf..E.........
0FC0: 7F 73 30 35 34 01 80 2B  C8 10 10 01 6B 80 23 2B  .s054..+....k.#+
0FD0: C8 10 10 01 6C 80 1C 60  80 23 52 13 80 F8 FF FF  ....l..`.#R.....
0FE0: 7F F8 FF FF 7F 73 30 35  34 45 13 80 F8 FF FF 7F  .....s054E......
0FF0: F8 FF FF 7F 73 30 34 32  01 80 27 08 C8 10 10 01  ....s042..'.....
1000: 21 2B C8 10 10 01 6D 80  1C 60 80 23 29 08 C8 10  !+....m..`.#)...
1010: 10 01 22 52 13 80 F8 FF  FF 7F F8 FF FF 7F 73 30  .."R..........s0
1020: 34 32 45 13 80 F8 FF FF  7F F8 FF FF 7F 73 30 34  42E..........s04
1030: 31 01 80 7B C8 10 10 01  29 08 C8 10 10 01 0D 2B  1..{....)......+
1040: C8 10 10 01 6E 80 23 29  08 C8 10 10 01 0E 2B C8  ....n.#)......+.
1050: 10 10 01 6F 80 1C 25 80  23 79 00 C8 10 10 01 F0  ...o..%.#y......
1060: FF FF 7F 52 13 80 F8 FF  FF 7F F8 FF FF 7F 73 30  ...R..........s0
1070: 34 31 45 13 80 F8 FF FF  7F F8 FF FF 7F 73 30 34  41E..........s04
1080: 30 01 80 27 08 C8 10 10  01 0F 2B C8 10 10 01 70  0..'......+....p
1090: 80 23 29 08 C8 10 10 01  10 1C 25 80 45 00 80 F0  .#).......%.E...
10A0: FF FF 7F F0 FF FF 7F 66  64 6F 31 01 80 55 00 80  .......fdo1..U..
10B0: F0 FF FF 7F F0 FF FF 7F  66 64 6F 31 1C 14 80 52  ........fdo1...R
10C0: 13 80 F8 FF FF 7F F8 FF  FF 7F 73 30 34 30 4E 01  ..........s040N.
10D0: 04 11 10 01 5C 00 03 80  5C 01 03 80 9A 5D 47 80  ....\...\....]G.
10E0: 22 80 1C 14 80 AB 11 01  80 1C 22 80 AB 0A 46 00  "........."...F.
10F0: 45 00 80 F0 FF FF 7F F0  FF FF 7F 66 64 69 32 01  E..........fdi2.
1100: 80 21 00                                          .!.             
```

#### Opcodes

```
  0: 0x0BB8 [0x42] SET_CLI_EVENT_CANCEL_DATA()
  1: 0x0BB9 [0x45] LOAD_SCHEDULED_TASK: Load scheduler "fdo1" with entities [LocalPlayer, LocalPlayer], work=[200*, 0*]
  2: 0x0BCA [0x55] WAIT_LOAD_SCHEDULER: Wait for scheduler "fdo1" with entities [LocalPlayer, LocalPlayer], work=200*
  3: 0x0BD9 [0x46] CAMERA_CONTROL: Disable user control
  4: 0x0BDB [0x38] SET_CLIENT_EVENT_MODE(mode=27*)
  5: 0x0BDE [0x4E] SET_ENTITY_HIDE_FLAG: Show LocalPlayer
  6: 0x0BE4 [0x4E] SET_ENTITY_HIDE_FLAG: Show Palomel (ID: 17830088/0x011010C8)
  7: 0x0BEA [0x4E] SET_ENTITY_HIDE_FLAG: Show Unnamed NPC (ID: 17830148/0x01101104)
  8: 0x0BF0 [0x2F] Palomel (ID: 17830088/0x011010C8)->Render.Flags0 &= ~0x80000 // Bit 19
  9: 0x0BF6 [0x2F] Unnamed NPC (ID: 17830148/0x01101104)->Render.Flags0 &= ~0x80000 // Bit 19
 10: 0x0BFC [0x92] Palomel (ID: 17830088/0x011010C8)->Render.Flags3 ^= 0x01
 11: 0x0C02 [0x92] Unnamed NPC (ID: 17830148/0x01101104)->Render.Flags3 ^= 0x01
 12: 0x0C08 [0x94] Palomel (ID: 17830088/0x011010C8)->Render.Flags3 ^= 0x01
 13: 0x0C0E [0x94] Unnamed NPC (ID: 17830148/0x01101104)->Render.Flags3 ^= 0x01
 14: 0x0C14 [0x94] LocalPlayer->Render.Flags3 ^= 0x01
 15: 0x0C1A [0xBA] SET_ENTITY_POSITION(entity_id=LocalPlayer, pos_x=-77.288*, pos_z=-53.666*, pos_y=-0.148*, direction=358.1°*)
 16: 0x0C27 [0xBA] SET_ENTITY_POSITION(entity_id=Unnamed NPC (ID: 17830148/0x01101104), pos_x=-76.968*, pos_z=-63.873*, pos_y=-0.148*, direction=0.0°*)
 17: 0x0C34 [0x4A] LocalPlayer looks at Palomel (ID: 17830088/0x011010C8)
 18: 0x0C3D [0x80] LOAD_WAIT(entity=Palomel (ID: 17830088/0x011010C8))
 19: 0x0C42 [0x80] LOAD_WAIT(entity=Unnamed NPC (ID: 17830148/0x01101104))
 20: 0x0C47 [0x80] LOAD_WAIT(entity=LocalPlayer)
 21: 0x0C4C [0x45] LOAD_SCHEDULED_TASK: Load scheduler "s028" with entities [EventEntity, EventEntity], work=[702*, 0*]
 22: 0x0C5D [0x1C] WAIT(15* ticks)
 23: 0x0C60 [0x4A] Palomel (ID: 17830088/0x011010C8) looks at LocalPlayer
 24: 0x0C69 [0x45] LOAD_SCHEDULED_TASK: Load scheduler "fdi1" with entities [LocalPlayer, LocalPlayer], work=[200*, 0*]
 25: 0x0C7A [0x6F] WAIT_FRAME_DELAY: Yield until WaitTime reaches zero
 26: 0x0C7B [0x76] CHECK_ENTITY_RENDER_FLAGS: Wait until Palomel (ID: 17830088/0x011010C8) Render.Flags0 and Render.Flags3 conditions are met
 27: 0x0C80 [0x2B] Palomel (ID: 17830088/0x011010C8) [11189*]:
    → "Wh-wh-what are you doing here? Haven't you badgered me enough for one lifetime?"
 28: 0x0C87 [0x1C] WAIT(80* ticks)
 29: 0x0C8A [0x23] WAIT_FOR_DIALOG_INTERACTION
 30: 0x0C8B [0x52] END_LOAD_SCHEDULER: End scheduler "s028" with entities [EventEntity, EventEntity], work=702*
 31: 0x0C9A [0x45] LOAD_SCHEDULED_TASK: Load scheduler "s030" with entities [EventEntity, EventEntity], work=[702*, 0*]
 32: 0x0CAB [0x27] REQ_SET(priority=0x08, entity_id=Palomel (ID: 17830088/0x011010C8), tag_num=0x23)
 33: 0x0CB2 [0x2B] Palomel (ID: 17830088/0x011010C8) [11190*]:
    → "Or do you intend to haunt me even after I cross over!?"
 34: 0x0CB9 [0x1C] WAIT(80* ticks)
 35: 0x0CBC [0x23] WAIT_FOR_DIALOG_INTERACTION
 36: 0x0CBD [0x29] REQ_SET_WAIT(priority=0x08, entity_id=Palomel (ID: 17830088/0x011010C8), tag_num=0x24)
 37: 0x0CC4 [0x52] END_LOAD_SCHEDULER: End scheduler "s030" with entities [EventEntity, EventEntity], work=702*
 38: 0x0CD3 [0x02] IF !(LocalPlayer->Race == 3*) GOTO 0x0CEF
 39: 0x0CDB [0x45] LOAD_SCHEDULED_TASK: Load scheduler "s029" with entities [EventEntity, EventEntity], work=[702*, 0*]
 40: 0x0CEC [0x01] GOTO 0x0D38
 41: 0x0CEF [0x02] IF !(LocalPlayer->Race == 4*) GOTO 0x0D0B
 42: 0x0CF7 [0x45] LOAD_SCHEDULED_TASK: Load scheduler "s029" with entities [EventEntity, EventEntity], work=[702*, 0*]
 43: 0x0D08 [0x01] GOTO 0x0D38
 44: 0x0D0B [0x02] IF !(LocalPlayer->Race == 8*) GOTO 0x0D27
 45: 0x0D13 [0x45] LOAD_SCHEDULED_TASK: Load scheduler "s029" with entities [EventEntity, EventEntity], work=[702*, 0*]
 46: 0x0D24 [0x01] GOTO 0x0D38
 47: 0x0D27 [0x45] LOAD_SCHEDULED_TASK: Load scheduler "s031" with entities [EventEntity, EventEntity], work=[702*, 0*]

SUBROUTINE_0D38:
 48: 0x0D38 [0x29] REQ_SET_WAIT(priority=0x08, entity_id=LocalPlayer, tag_num=0x1B)
 49: 0x0D3F [0x1C] WAIT(110* ticks)
 50: 0x0D42 [0x27] REQ_SET(priority=0x08, entity_id=Palomel (ID: 17830088/0x011010C8), tag_num=0x25)
 51: 0x0D49 [0x2B] Palomel (ID: 17830088/0x011010C8) [11191*]:
    → "A...wooden box? What do you expect me to do with this?"
 52: 0x0D50 [0x23] WAIT_FOR_DIALOG_INTERACTION
 53: 0x0D51 [0x29] REQ_SET_WAIT(priority=0x08, entity_id=Palomel (ID: 17830088/0x011010C8), tag_num=0x26)
 54: 0x0D58 [0x29] REQ_SET_WAIT(priority=0x08, entity_id=LocalPlayer, tag_num=0x17)
 55: 0x0D5F [0x1C] WAIT(70* ticks)
 56: 0x0D62 [0x27] REQ_SET(priority=0x08, entity_id=Palomel (ID: 17830088/0x011010C8), tag_num=0x07)
 57: 0x0D69 [0x52] END_LOAD_SCHEDULER: End scheduler "s029" with entities [EventEntity, EventEntity], work=702*
 58: 0x0D78 [0x52] END_LOAD_SCHEDULER: End scheduler "s031" with entities [EventEntity, EventEntity], work=702*
 59: 0x0D87 [0x45] LOAD_SCHEDULED_TASK: Load scheduler "s032" with entities [EventEntity, EventEntity], work=[702*, 0*]
 60: 0x0D98 [0x03] Work_Zone[2] = 2614*
 61: 0x0D9D [0x2B] Palomel (ID: 17830088/0x011010C8) [11192*]:
    → "Hmm... Most likely $6."
 62: 0x0DA4 [0x23] WAIT_FOR_DIALOG_INTERACTION
 63: 0x0DA5 [0x29] REQ_SET_WAIT(priority=0x08, entity_id=Palomel (ID: 17830088/0x011010C8), tag_num=0x08)
 64: 0x0DAC [0x2B] Palomel (ID: 17830088/0x011010C8) [11193*]:
    → "Isn't this one of those devices the Inventors' Coalition came up with? The kind that can recall the past?"
 65: 0x0DB3 [0x23] WAIT_FOR_DIALOG_INTERACTION
 66: 0x0DB4 [0x27] REQ_SET(priority=0x08, entity_id=Palomel (ID: 17830088/0x011010C8), tag_num=0x09)
 67: 0x0DBB [0x2B] Palomel (ID: 17830088/0x011010C8) [11194*]:
    → "I'll be blunt. I find it disturbing that out of all the people here in Adoulin, you choose to discuss this with me. What exactly are you looking for?"
 68: 0x0DC2 [0x23] WAIT_FOR_DIALOG_INTERACTION
 69: 0x0DC3 [0x29] REQ_SET_WAIT(priority=0x08, entity_id=Palomel (ID: 17830088/0x011010C8), tag_num=0x0A)
 70: 0x0DCA [0x52] END_LOAD_SCHEDULER: End scheduler "s032" with entities [EventEntity, EventEntity], work=702*
 71: 0x0DD9 [0x06] ExtData[1]->WorkLocal[0] = 0
 72: 0x0DDC [0x45] LOAD_SCHEDULED_TASK: Load scheduler "s033" with entities [EventEntity, EventEntity], work=[702*, 0*]

SUBROUTINE_0DED:
 73: 0x0DED [0x24] CREATE_DIALOG(message_id=11195*, default_option=0*, option_flags=ExtData[1]->WorkLocal[0])
    → "What topic are you interested in? [The life and times of King August./The life and times of Palomel./Last night's dinner.]"
 74: 0x0DF4 [0x25] WAIT_DIALOG_SELECT()
 75: 0x0DF5 [0x02] IF !(Work_Zone[0] == 0*) GOTO 0x0E0F
 76: 0x0DFD [0x52] END_LOAD_SCHEDULER: End scheduler "s033" with entities [EventEntity, EventEntity], work=702*
 77: 0x0E0C [0x01] GOTO 0x0F36
 78: 0x0E0F [0x02] IF !(Work_Zone[0] == 1*) GOTO 0x0EBC
 79: 0x0E17 [0x52] END_LOAD_SCHEDULER: End scheduler "s033" with entities [EventEntity, EventEntity], work=702*
 80: 0x0E26 [0x45] LOAD_SCHEDULED_TASK: Load scheduler "s034" with entities [EventEntity, EventEntity], work=[702*, 0*]
 81: 0x0E37 [0x45] LOAD_SCHEDULED_TASK: Load scheduler "s035" with entities [EventEntity, EventEntity], work=[702*, 0*]
 82: 0x0E48 [0x7B] Palomel (ID: 17830088/0x011010C8) stops talking
 83: 0x0E4D [0x27] REQ_SET(priority=0x08, entity_id=Palomel (ID: 17830088/0x011010C8), tag_num=0x1B)
 84: 0x0E54 [0x29] REQ_SET_WAIT(priority=0x08, entity_id=Palomel (ID: 17830088/0x011010C8), tag_num=0x1C)
 85: 0x0E5B [0x2B] Palomel (ID: 17830088/0x011010C8) [11197*]:
    → "Do you know how many sleepless nights I have spent cringing at events from my youth? Can you even fathom how much people would suffer if mistakes from their childhood were recorded for all eternity!?"
 86: 0x0E62 [0x1C] WAIT(80* ticks)
 87: 0x0E65 [0x23] WAIT_FOR_DIALOG_INTERACTION
 88: 0x0E66 [0x45] LOAD_SCHEDULED_TASK: Load scheduler "s036" with entities [EventEntity, EventEntity], work=[702*, 0*]
 89: 0x0E77 [0x52] END_LOAD_SCHEDULER: End scheduler "s034" with entities [EventEntity, EventEntity], work=702*
 90: 0x0E86 [0x45] LOAD_SCHEDULED_TASK: Load scheduler "s033" with entities [EventEntity, EventEntity], work=[702*, 0*]
 91: 0x0E97 [0x79] Palomel (ID: 17830088/0x011010C8) looks at LocalPlayer (Basic look)
 92: 0x0EA1 [0x27] REQ_SET(priority=0x08, entity_id=Palomel (ID: 17830088/0x011010C8), tag_num=0x1D)
 93: 0x0EA8 [0x29] REQ_SET_WAIT(priority=0x08, entity_id=Palomel (ID: 17830088/0x011010C8), tag_num=0x1E)
 94: 0x0EAF [0x3C] SET_BIT_FLAG_CONDITIONAL(target_work_offset=ExtData[1]->WorkLocal[0], bit_index_work_offset=1*, condition_work_offset=1*)
 95: 0x0EB6 [0x01] GOTO 0x0DED

SUBROUTINE_0F36:
 96: 0x0F36 [0x45] LOAD_SCHEDULED_TASK: Load scheduler "s038" with entities [EventEntity, EventEntity], work=[702*, 0*]
 97: 0x0F47 [0x2B] Palomel (ID: 17830088/0x011010C8) [11198*]:
    → "Hmm... The life and times of King August..."
 98: 0x0F4E [0x1C] WAIT(100* ticks)
 99: 0x0F51 [0x23] WAIT_FOR_DIALOG_INTERACTION
100: 0x0F52 [0x27] REQ_SET(priority=0x08, entity_id=Palomel (ID: 17830088/0x011010C8), tag_num=0x1F)
101: 0x0F59 [0x1C] WAIT(25* ticks)
102: 0x0F5C [0x52] END_LOAD_SCHEDULER: End scheduler "s038" with entities [EventEntity, EventEntity], work=702*
103: 0x0F6B [0x45] LOAD_SCHEDULED_TASK: Load scheduler "s039" with entities [EventEntity, EventEntity], work=[702*, 0*]
104: 0x0F7C [0x2B] Palomel (ID: 17830088/0x011010C8) [11199*]:
    → "H-huh!?"
105: 0x0F83 [0x23] WAIT_FOR_DIALOG_INTERACTION
106: 0x0F84 [0x2B] Palomel (ID: 17830088/0x011010C8) [11200*]:
    → "K-K-K-K-King August?"
107: 0x0F8B [0x29] REQ_SET_WAIT(priority=0x08, entity_id=Palomel (ID: 17830088/0x011010C8), tag_num=0x20)
108: 0x0F92 [0x1C] WAIT(70* ticks)
109: 0x0F95 [0x23] WAIT_FOR_DIALOG_INTERACTION
110: 0x0F96 [0x52] END_LOAD_SCHEDULER: End scheduler "s039" with entities [EventEntity, EventEntity], work=702*
111: 0x0FA5 [0x45] LOAD_SCHEDULED_TASK: Load scheduler "0blf" with entities [LocalPlayer, LocalPlayer], work=[702*, 0*]
112: 0x0FB6 [0x45] LOAD_SCHEDULED_TASK: Load scheduler "s054" with entities [EventEntity, EventEntity], work=[702*, 0*]
113: 0x0FC7 [0x2B] Palomel (ID: 17830088/0x011010C8) [11201*]:
    → "Did those Velkk over in Marjami Ravine give you a few too many whacks on the head!? There's "the past" and there's "ancient history," and I think we both know where that falls on the spectrum!"
114: 0x0FCE [0x23] WAIT_FOR_DIALOG_INTERACTION
115: 0x0FCF [0x2B] Palomel (ID: 17830088/0x011010C8) [11202*]:
    → "We're talking centuries here, not decades!"
116: 0x0FD6 [0x1C] WAIT(70* ticks)
117: 0x0FD9 [0x23] WAIT_FOR_DIALOG_INTERACTION
118: 0x0FDA [0x52] END_LOAD_SCHEDULER: End scheduler "s054" with entities [EventEntity, EventEntity], work=702*
119: 0x0FE9 [0x45] LOAD_SCHEDULED_TASK: Load scheduler "s042" with entities [EventEntity, EventEntity], work=[702*, 0*]
120: 0x0FFA [0x27] REQ_SET(priority=0x08, entity_id=Palomel (ID: 17830088/0x011010C8), tag_num=0x21)
121: 0x1001 [0x2B] Palomel (ID: 17830088/0x011010C8) [11203*]:
    → "W-wait. I may have remembered something."
122: 0x1008 [0x1C] WAIT(70* ticks)
123: 0x100B [0x23] WAIT_FOR_DIALOG_INTERACTION
124: 0x100C [0x29] REQ_SET_WAIT(priority=0x08, entity_id=Palomel (ID: 17830088/0x011010C8), tag_num=0x22)
125: 0x1013 [0x52] END_LOAD_SCHEDULER: End scheduler "s042" with entities [EventEntity, EventEntity], work=702*
126: 0x1022 [0x45] LOAD_SCHEDULED_TASK: Load scheduler "s041" with entities [EventEntity, EventEntity], work=[702*, 0*]
127: 0x1033 [0x7B] Palomel (ID: 17830088/0x011010C8) stops talking
128: 0x1038 [0x29] REQ_SET_WAIT(priority=0x08, entity_id=Palomel (ID: 17830088/0x011010C8), tag_num=0x0D)
129: 0x103F [0x2B] Palomel (ID: 17830088/0x011010C8) [11204*]:
    → "I overheard some tosspot talking about peering into the past by projecting her mind into the future; something about refractive energies..."
130: 0x1046 [0x23] WAIT_FOR_DIALOG_INTERACTION
131: 0x1047 [0x29] REQ_SET_WAIT(priority=0x08, entity_id=Palomel (ID: 17830088/0x011010C8), tag_num=0x0E)
132: 0x104E [0x2B] Palomel (ID: 17830088/0x011010C8) [11205*]:
    → "I can't vouch for this queer Mithra's skills, but she claims to see the future. Although, er, it's only thirty seconds or so."
133: 0x1055 [0x1C] WAIT(60* ticks)
134: 0x1058 [0x23] WAIT_FOR_DIALOG_INTERACTION
135: 0x1059 [0x79] Palomel (ID: 17830088/0x011010C8) looks at LocalPlayer (Basic look)
136: 0x1063 [0x52] END_LOAD_SCHEDULER: End scheduler "s041" with entities [EventEntity, EventEntity], work=702*
137: 0x1072 [0x45] LOAD_SCHEDULED_TASK: Load scheduler "s040" with entities [EventEntity, EventEntity], work=[702*, 0*]
138: 0x1083 [0x27] REQ_SET(priority=0x08, entity_id=Palomel (ID: 17830088/0x011010C8), tag_num=0x0F)
139: 0x108A [0x2B] Palomel (ID: 17830088/0x011010C8) [11206*]:
    → "What, you think that sounds crazy? You're trying to see the past using only a wooden box, what else did you expect...?"
140: 0x1091 [0x23] WAIT_FOR_DIALOG_INTERACTION
141: 0x1092 [0x29] REQ_SET_WAIT(priority=0x08, entity_id=Palomel (ID: 17830088/0x011010C8), tag_num=0x10)
142: 0x1099 [0x1C] WAIT(60* ticks)
143: 0x109C [0x45] LOAD_SCHEDULED_TASK: Load scheduler "fdo1" with entities [LocalPlayer, LocalPlayer], work=[200*, 0*]
144: 0x10AD [0x55] WAIT_LOAD_SCHEDULER: Wait for scheduler "fdo1" with entities [LocalPlayer, LocalPlayer], work=200*
145: 0x10BC [0x1C] WAIT(15* ticks)
146: 0x10BF [0x52] END_LOAD_SCHEDULER: End scheduler "s040" with entities [EventEntity, EventEntity], work=702*
147: 0x10CE [0x4E] SET_ENTITY_HIDE_FLAG: Hide Unnamed NPC (ID: 17830148/0x01101104)
148: 0x10D4 [0x5C] MUSIC_CONTROL: Set Idle (Day) music to song 63*
149: 0x10D8 [0x5C] MUSIC_CONTROL: Set Idle (Night) music to song 63*
150: 0x10DC [0x9A] WAIT_MUSIC_SERVER()
151: 0x10DD [0x5D] SET_MUSIC_VOLUME(volume=127*, fade_time=1*)
152: 0x10E2 [0x1C] WAIT(15* ticks)
153: 0x10E5 [0xAB] EventEntity->DespawnValue = 0* // Set despawn value
154: 0x10E9 [0x1C] WAIT(1* ticks)
155: 0x10EC [0xAB] EventEntity->UnknownFlag = 0 // Disable unknown flag
156: 0x10EE [0x46] CAMERA_CONTROL: Restore default settings
157: 0x10F0 [0x45] LOAD_SCHEDULED_TASK: Load scheduler "fdi2" with entities [LocalPlayer, LocalPlayer], work=[200*, 0*]
158: 0x1101 [0x21] END_EVENT
159: 0x1102 [0x00] END_REQSTACK()
```

#### Data or dead code:

```
# Dead code (unreachable instructions):
     0x0EB9 [0x01] GOTO 0x0F36
     0x0F33 [0x01] GOTO 0x0F36
```

### Event 5130

#### Metadata

| Field        | Value      |
|--------------|------------|
| Entrypoint   | 0x1103     |
| Data Size    | 5202 bytes |
| Instructions | 656        |

```
      00 01 02 03 04 05 06 07  08 09 0A 0B 0C 0D 0E 0F
      -- -- -- -- -- -- -- --  -- -- -- -- -- -- -- --
1100:          42 03 00 00 02  10 45 00 80 F0 FF FF 7F     B.....E......
1110: F0 FF FF 7F 66 64 6F 31  01 80 55 00 80 F0 FF FF  ....fdo1..U.....
1120: 7F F0 FF FF 7F 66 64 6F  31 46 01 38 02 80 4E 00  .....fdo1F.8..N.
1130: F0 FF FF 7F 4E 00 04 11  10 01 4E 00 C3 10 10 01  ....N.....N.....
1140: 4E 00 06 11 10 01 4E 01  2D 11 10 01 4E 01 2E 11  N.....N.-...N...
1150: 10 01 4E 01 8D 10 10 01  4E 01 E0 10 10 01 4E 01  ..N.....N.....N.
1160: 7E 10 10 01 4E 01 DE 10  10 01 4E 01 DF 10 10 01  ~...N.....N.....
1170: 4E 01 D1 10 10 01 4E 01  CF 10 10 01 2F 00 C3 10  N.....N...../...
1180: 10 01 2F 00 06 11 10 01  2F 00 04 11 10 01 29 08  ../...../.....).
1190: 97 10 10 01 04 29 08 97  10 10 01 30 92 01 04 11  .....).....0....
11A0: 10 01 92 01 C3 10 10 01  92 01 06 11 10 01 92 01  ................
11B0: 97 10 10 01 94 01 04 11  10 01 94 01 C3 10 10 01  ................
11C0: 94 01 06 11 10 01 94 01  97 10 10 01 94 01 F0 FF  ................
11D0: FF 7F BA F0 FF FF 7F 71  80 72 80 06 80 73 80 BA  .......q.r...s..
11E0: 04 11 10 01 08 80 09 80  0A 80 0B 80 BA 06 11 10  ................
11F0: 01 0C 80 0D 80 06 80 0E  80 BA 97 10 10 01 74 80  ..............t.
1200: 75 80 06 80 76 80 4A F0  FF FF 7F C3 10 10 01 4A  u...v.J........J
1210: 97 10 10 01 C3 10 10 01  80 C3 10 10 01 80 06 11  ................
1220: 10 01 80 97 10 10 01 80  F0 FF FF 7F 27 08 06 11  ............'...
1230: 10 01 27 29 08 06 11 10  01 28 27 08 C3 10 10 01  ..').....('.....
1240: 0D 29 08 C3 10 10 01 0E  45 77 80 F8 FF FF 7F F8  .)......Ew......
1250: FF FF 7F 73 30 30 30 01  80 1C 45 80 45 00 80 F0  ...s000...E.E...
1260: FF FF 7F F0 FF FF 7F 66  64 69 31 01 80 1C 78 80  .......fdi1...x.
1270: 2B C3 10 10 01 79 80 1C  60 80 23 52 77 80 F8 FF  +....y..`.#Rw...
1280: FF 7F F8 FF FF 7F 73 30  30 30 02 87 7F 19 80 80  ......s000......
1290: A6 12 45 77 80 F8 FF FF  7F F8 FF FF 7F 73 30 30  ..Ew.........s00
12A0: 32 01 80 01 D3 12 02 87  7F 1A 80 80 C2 12 45 77  2.............Ew
12B0: 80 F8 FF FF 7F F8 FF FF  7F 73 30 30 32 01 80 01  .........s002...
12C0: D3 12 45 77 80 F8 FF FF  7F F8 FF FF 7F 73 30 30  ..Ew.........s00
12D0: 31 01 80 1C 7A 80 29 08  F0 FF FF 7F 1B 29 08 C3  1...z.)......)..
12E0: 10 10 01 4E 1C 3F 80 4A  C3 10 10 01 F0 FF FF 7F  ...N.?.J........
12F0: 52 77 80 F8 FF FF 7F F8  FF FF 7F 73 30 30 31 52  Rw.........s001R
1300: 77 80 F8 FF FF 7F F8 FF  FF 7F 73 30 30 32 02 87  w.........s002..
1310: 7F 19 80 80 2A 13 45 77  80 F8 FF FF 7F F8 FF FF  ....*.Ew........
1320: 7F 73 30 30 33 01 80 01  57 13 02 87 7F 1A 80 80  .s003...W.......
1330: 46 13 45 77 80 F8 FF FF  7F F8 FF FF 7F 73 30 30  F.Ew.........s00
1340: 33 01 80 01 57 13 45 77  80 F8 FF FF 7F F8 FF FF  3...W.Ew........
1350: 7F 73 30 35 33 01 80 6F  76 C3 10 10 01 1C 7A 80  .s053..ov.....z.
1360: 29 08 C3 10 10 01 54 2B  C3 10 10 01 7B 80 1C 25  ).....T+....{..%
1370: 80 23 4B C3 10 10 01 54  80 52 77 80 F8 FF FF 7F  .#K....T.Rw.....
1380: F8 FF FF 7F 73 30 30 33  52 77 80 F8 FF FF 7F F8  ....s003Rw......
1390: FF FF 7F 73 30 35 33 5C  A0 01 80 41 80 5C A1 01  ...s053\...A.\..
13A0: 80 42 80 45 77 80 F8 FF  FF 7F F8 FF FF 7F 73 30  .B.Ew.........s0
13B0: 30 34 01 80 6F 76 C3 10  10 01 2B C3 10 10 01 7C  04..ov....+....|
13C0: 80 1C 7D 80 23 27 08 C3  10 10 01 59 2B C3 10 10  ..}.#'.....Y+...
13D0: 01 7E 80 2A 08 C3 10 10  01 1C 7A 80 23 27 08 97  .~.*......z.#'..
13E0: 10 10 01 16 1C 7A 80 52  77 80 F8 FF FF 7F F8 FF  .....z.Rw.......
13F0: FF 7F 73 30 30 34 45 77  80 F8 FF FF 7F F8 FF FF  ..s004Ew........
1400: 7F 73 30 35 34 01 80 1C  7F 80 52 77 80 F8 FF FF  .s054.....Rw....
1410: 7F F8 FF FF 7F 73 30 35  34 45 77 80 F8 FF FF 7F  .....s054Ew.....
1420: F8 FF FF 7F 73 30 30 35  01 80 2B C3 10 10 01 80  ....s005..+.....
1430: 80 1C 25 80 23 2A 08 97  10 10 01 1C 1C 80 29 08  ..%.#*........).
1440: 97 10 10 01 34 2B 97 10  10 01 81 80 1C 60 80 23  ....4+.......`.#
1450: 4A C3 10 10 01 97 10 10  01 52 77 80 F8 FF FF 7F  J........Rw.....
1460: F8 FF FF 7F 73 30 30 35  45 77 80 F8 FF FF 7F F8  ....s005Ew......
1470: FF FF 7F 73 30 30 36 01  80 6F 76 C3 10 10 01 1C  ...s006..ov.....
1480: 7A 80 27 08 C3 10 10 01  50 2B C3 10 10 01 82 80  z.'.....P+......
1490: 27 08 06 11 10 01 38 2A  08 97 10 10 01 2A 08 C3  '.....8*.....*..
14A0: 10 10 01 2A 08 06 11 10  01 23 52 77 80 F8 FF FF  ...*.....#Rw....
14B0: 7F F8 FF FF 7F 73 30 30  36 5C 00 47 80 5C 01 47  .....s006\.G.\.G
14C0: 80 9A 29 08 97 10 10 01  35 45 77 80 F8 FF FF 7F  ..).....5Ew.....
14D0: F8 FF FF 7F 73 30 30 37  01 80 27 08 97 10 10 01  ....s007..'.....
14E0: 22 2B 97 10 10 01 83 80  2A 08 97 10 10 01 23 27  "+......*.....#'
14F0: 08 C3 10 10 01 4F 2B 97  10 10 01 84 80 1C 60 80  .....O+.......`.
1500: 2A 08 C3 10 10 01 23 52  77 80 F8 FF FF 7F F8 FF  *.....#Rw.......
1510: FF 7F 73 30 30 37 45 77  80 F8 FF FF 7F F8 FF FF  ..s007Ew........
1520: 7F 73 30 30 38 01 80 27  08 C3 10 10 01 5A 2B C3  .s008..'.....Z+.
1530: 10 10 01 85 80 2A 08 C3  10 10 01 1C 1C 80 23 2B  .....*........#+
1540: C3 10 10 01 86 80 1C 60  80 23 4A F0 FF FF 7F 97  .......`.#J.....
1550: 10 10 01 52 77 80 F8 FF  FF 7F F8 FF FF 7F 73 30  ...Rw.........s0
1560: 30 38 45 77 80 F0 FF FF  7F F0 FF FF 7F 30 62 6C  08Ew.........0bl
1570: 66 01 80 45 77 80 F8 FF  FF 7F F8 FF FF 7F 73 30  f..Ew.........s0
1580: 30 39 01 80 6F 76 F0 FF  FF 7F 27 08 97 10 10 01  09..ov....'.....
1590: 23 2B 97 10 10 01 87 80  23 2B 97 10 10 01 88 80  #+......#+......
15A0: 1C 16 80 23 52 77 80 F8  FF FF 7F F8 FF FF 7F 73  ...#Rw.........s
15B0: 30 30 39 45 77 80 F8 FF  FF 7F F8 FF FF 7F 73 30  009Ew.........s0
15C0: 31 30 01 80 2B C3 10 10  01 89 80 1C 60 80 23 52  10..+.......`.#R
15D0: 77 80 F8 FF FF 7F F8 FF  FF 7F 73 30 31 30 45 77  w.........s010Ew
15E0: 80 F8 FF FF 7F F8 FF FF  7F 73 30 31 31 01 80 66  .........s011..f
15F0: 8A 80 97 10 10 01 97 10  10 01 74 6C 6B 30 2B 97  ..........tlk0+.
1600: 10 10 01 8B 80 23 2B 97  10 10 01 8C 80 1C 60 80  .....#+.......`.
1610: 53 97 10 10 01 97 10 10  01 74 6C 6B 30 23 52 77  S........tlk0#Rw
1620: 80 F8 FF FF 7F F8 FF FF  7F 73 30 31 31 45 77 80  .........s011Ew.
1630: F8 FF FF 7F F8 FF FF 7F  73 30 31 32 01 80 66 8A  ........s012..f.
1640: 80 97 10 10 01 97 10 10  01 74 6C 6B 32 2B 97 10  .........tlk2+..
1650: 10 01 8D 80 23 2B 97 10  10 01 8E 80 1C 7D 80 23  ....#+.......}.#
1660: 53 97 10 10 01 97 10 10  01 74 6C 6B 32 52 77 80  S........tlk2Rw.
1670: F8 FF FF 7F F8 FF FF 7F  73 30 31 32 45 77 80 F0  ........s012Ew..
1680: FF FF 7F F0 FF FF 7F 30  62 6C 66 01 80 45 77 80  .......0blf..Ew.
1690: F8 FF FF 7F F8 FF FF 7F  73 30 31 33 01 80 2B 97  ........s013..+.
16A0: 10 10 01 8F 80 23 66 8A  80 97 10 10 01 97 10 10  .....#f.........
16B0: 01 74 6C 61 31 2B 97 10  10 01 90 80 1C 60 80 53  .tla1+.......`.S
16C0: 97 10 10 01 97 10 10 01  74 6C 61 31 23 52 77 80  ........tla1#Rw.
16D0: F8 FF FF 7F F8 FF FF 7F  73 30 31 33 45 77 80 F8  ........s013Ew..
16E0: FF FF 7F F8 FF FF 7F 73  30 31 34 01 80 7B 97 10  .......s014..{..
16F0: 10 01 66 91 80 97 10 10  01 97 10 10 01 74 68 6B  ..f..........thk
1700: 31 2B 97 10 10 01 92 80  23 2B 97 10 10 01 93 80  1+......#+......
1710: 1C 60 80 23 4B C3 10 10  01 54 80 52 77 80 F8 FF  .`.#K....T.Rw...
1720: FF 7F F8 FF FF 7F 73 30  31 34 45 77 80 F8 FF FF  ......s014Ew....
1730: 7F F8 FF FF 7F 73 30 34  39 01 80 6F 76 C3 10 10  .....s049..ov...
1740: 01 2B 97 10 10 01 94 80  23 53 97 10 10 01 97 10  .+......#S......
1750: 10 01 74 68 6B 31 79 00  97 10 10 01 C3 10 10 01  ..thk1y.........
1760: 66 91 80 97 10 10 01 97  10 10 01 74 68 6B 32 53  f..........thk2S
1770: 97 10 10 01 97 10 10 01  74 68 6B 32 2B 97 10 10  ........thk2+...
1780: 01 95 80 23 52 77 80 F8  FF FF 7F F8 FF FF 7F 73  ...#Rw.........s
1790: 30 34 39 45 77 80 F8 FF  FF 7F F8 FF FF 7F 73 30  049Ew.........s0
17A0: 31 35 01 80 1C 3B 80 2B  C3 10 10 01 96 80 1C 16  15...;.+........
17B0: 80 23 52 77 80 F8 FF FF  7F F8 FF FF 7F 73 30 31  .#Rw.........s01
17C0: 35 45 77 80 F8 FF FF 7F  F8 FF FF 7F 73 30 31 36  5Ew.........s016
17D0: 01 80 66 97 80 97 10 10  01 97 10 10 01 70 6E 74  ..f..........pnt
17E0: 30 2B 97 10 10 01 98 80  23 66 99 80 C3 10 10 01  0+......#f......
17F0: C3 10 10 01 75 64 65 30  2B 97 10 10 01 9A 80 23  ....ude0+......#
