# 17830107 - Ysadel

## Common Data

| Field            | Value                     |
|------------------|---------------------------|
| Zone             | Eastern Adoulin (ID: 257) |
| Block Size       | 152 bytes                 |
| Total Events     | 3                         |
| References Count | 6                         |

## List of Events

| Event ID              | Entrypoint   |   Size |   Instructions |
|-----------------------|--------------|--------|----------------|
| [65535](#event-65535) | 0x0000       |      1 |              1 |
| [530](#event-530)     | 0x0001       |     51 |             13 |
| [11](#event-11)       | 0x0034       |     47 |             11 |

## DAT References (imed_data)

|   Index | Hex Value   |   Dec Value |
|---------|-------------|-------------|
|       0 | 0x0013      |          19 |
|       1 | 0x28E2      |       10466 |
|       2 | 0x28E3      |       10467 |
|       3 | 0x28E4      |       10468 |
|       4 | 0x28E5      |       10469 |
|       5 | 0x28E6      |       10470 |

## String References

- **10466**: I'm Ysadel, a member of the Order of Adoulin. My charge is to provide assistance to pioneers in any way possible.
- **10467**: My apologies, but I'm afraid I can't help you if you aren't a pioneer. It's some council decision, so it all goes over my head.
- **10468**: I can, however, point you in the direction of the Pioneers' Coalition. Just cross Big Bridge into Western Adoulin and you can't miss it. They should be able to provide the preliminary aid you require.
- **10469**: Have you had the chance to venture down into the Rala Waterways?
- **10470**: One of my acquaintances works in the Civic Arboretum there. Should you ever tire of culling the monstrosities that lurk down there, please say hi for me.

## Events

### Event 65535

#### Metadata

| Field        | Value   |
|--------------|---------|
| Entrypoint   | 0x0000  |
| Data Size    | 1 bytes |
| Instructions | 1       |

```
      00 01 02 03 04 05 06 07  08 09 0A 0B 0C 0D 0E 0F
      -- -- -- -- -- -- -- --  -- -- -- -- -- -- -- --
0000: 00                                                .               
```

#### Opcodes

```
  0: 0x0000 [0x00] END_REQSTACK()
```

### Event 530

#### Metadata

| Field        | Value    |
|--------------|----------|
| Entrypoint   | 0x0001   |
| Data Size    | 51 bytes |
| Instructions | 13       |

```
      00 01 02 03 04 05 06 07  08 09 0A 0B 0C 0D 0E 0F
      -- -- -- -- -- -- -- --  -- -- -- -- -- -- -- --
0000:    1E F0 FF FF 7F 6F 70  66 00 80 F8 FF FF 7F F8   .....opf.......
0010: FF FF 7F 74 6C 73 30 1D  01 80 23 1D 02 80 23 66  ...tls0...#...#f
0020: 00 80 F8 FF FF 7F F8 FF  FF 7F 74 6C 73 31 1D 03  ..........tls1..
0030: 80 23 21 00                                       .#!.            
```

#### Opcodes

```
  0: 0x0001 [0x1E] EventEntity looks at LocalPlayer and starts talking
  1: 0x0006 [0x6F] WAIT_FRAME_DELAY: Yield until WaitTime reaches zero
  2: 0x0007 [0x70] WAIT_ENTITY_RENDER_FLAG: Wait while EventEntity->Render.Flags3 bit 2 is set (cancel turn if not)
  3: 0x0008 [0x66] LOAD_EXT_SCHEDULER_MAIN: Load scheduler "tls0" with entities [EventEntity, EventEntity], work=19*
  4: 0x0017 [0x1D] PRINT_EVENT_MESSAGE(message_id=10466*)
    → "I'm Ysadel, a member of the Order of Adoulin. My charge is to provide assistance to pioneers in any way possible."
  5: 0x001A [0x23] WAIT_FOR_DIALOG_INTERACTION
  6: 0x001B [0x1D] PRINT_EVENT_MESSAGE(message_id=10467*)
    → "My apologies, but I'm afraid I can't help you if you aren't a pioneer. It's some council decision, so it all goes over my head."
  7: 0x001E [0x23] WAIT_FOR_DIALOG_INTERACTION
  8: 0x001F [0x66] LOAD_EXT_SCHEDULER_MAIN: Load scheduler "tls1" with entities [EventEntity, EventEntity], work=19*
  9: 0x002E [0x1D] PRINT_EVENT_MESSAGE(message_id=10468*)
    → "I can, however, point you in the direction of the Pioneers' Coalition. Just cross Big Bridge into Western Adoulin and you can't miss it. They should be able to provide the preliminary aid you require."
 10: 0x0031 [0x23] WAIT_FOR_DIALOG_INTERACTION
 11: 0x0032 [0x21] END_EVENT
 12: 0x0033 [0x00] END_REQSTACK()
```

### Event 11

#### Metadata

| Field        | Value    |
|--------------|----------|
| Entrypoint   | 0x0034   |
| Data Size    | 47 bytes |
| Instructions | 11       |

```
      00 01 02 03 04 05 06 07  08 09 0A 0B 0C 0D 0E 0F
      -- -- -- -- -- -- -- --  -- -- -- -- -- -- -- --
0030:             1E F0 FF FF  7F 6F 70 66 00 80 F8 FF      .....opf....
0040: FF 7F F8 FF FF 7F 74 6C  73 30 1D 04 80 23 1D 05  ......tls0...#..
0050: 80 23 66 00 80 F8 FF FF  7F F8 FF FF 7F 74 6C 73  .#f..........tls
0060: 31 21 00                                          1!.             
```

#### Opcodes

```
  0: 0x0034 [0x1E] EventEntity looks at LocalPlayer and starts talking
  1: 0x0039 [0x6F] WAIT_FRAME_DELAY: Yield until WaitTime reaches zero
  2: 0x003A [0x70] WAIT_ENTITY_RENDER_FLAG: Wait while EventEntity->Render.Flags3 bit 2 is set (cancel turn if not)
  3: 0x003B [0x66] LOAD_EXT_SCHEDULER_MAIN: Load scheduler "tls0" with entities [EventEntity, EventEntity], work=19*
  4: 0x004A [0x1D] PRINT_EVENT_MESSAGE(message_id=10469*)
    → "Have you had the chance to venture down into the Rala Waterways?"
  5: 0x004D [0x23] WAIT_FOR_DIALOG_INTERACTION
  6: 0x004E [0x1D] PRINT_EVENT_MESSAGE(message_id=10470*)
    → "One of my acquaintances works in the Civic Arboretum there. Should you ever tire of culling the monstrosities that lurk down there, please say hi for me."
  7: 0x0051 [0x23] WAIT_FOR_DIALOG_INTERACTION
  8: 0x0052 [0x66] LOAD_EXT_SCHEDULER_MAIN: Load scheduler "tls1" with entities [EventEntity, EventEntity], work=19*
  9: 0x0061 [0x21] END_EVENT
 10: 0x0062 [0x00] END_REQSTACK()
```
