# 17830120 - Nhili Uvolep

## Common Data

| Field            | Value                     |
|------------------|---------------------------|
| Zone             | Eastern Adoulin (ID: 257) |
| Block Size       | 4020 bytes                |
| Total Events     | 59                        |
| References Count | 113                       |

## List of Events

| Event ID                   | Entrypoint   |   Size |   Instructions |
|----------------------------|--------------|--------|----------------|
| [65535](#event-65535)      | 0x0000       |      1 |              1 |
| [5117](#event-5117)        | 0x0001       |    186 |             32 |
| [5093](#event-5093)        | 0x00BB       |    429 |             81 |
| [5094](#event-5094)        | 0x0268       |    389 |             65 |
| [5095](#event-5095)        | 0x03ED       |    229 |             36 |
| [5096](#event-5096)        | 0x04D2       |      1 |              1 |
| [5079](#event-5079)        | 0x04D3       |      1 |              1 |
| [5078](#event-5078)        | 0x04D4       |     78 |             16 |
| [5077](#event-5077)        | 0x0522       |    180 |             32 |
| [5076](#event-5076)        | 0x05D6       |     74 |             14 |
| [5075](#event-5075)        | 0x0620       |    265 |             41 |
| [5074](#event-5074)        | 0x0729       |     78 |             16 |
| [5073](#event-5073)        | 0x0777       |    311 |             51 |
| [65535.1](#event-655351)   | 0x08AE       |     32 |              4 |
| [86](#event-86)            | 0x08CE       |      1 |              1 |
| [65535.2](#event-655352)   | 0x08CF       |     29 |              3 |
| [65535.3](#event-655353)   | 0x08EC       |     26 |              6 |
| [65535.4](#event-655354)   | 0x0906       |     95 |             17 |
| [87](#event-87)            | 0x0965       |     66 |             13 |
| [65535.5](#event-655355)   | 0x09A7       |     16 |              2 |
| [65535.6](#event-655356)   | 0x09B7       |     14 |              2 |
| [65535.7](#event-655357)   | 0x09C5       |     16 |              2 |
| [65535.8](#event-655358)   | 0x09D5       |     14 |              2 |
| [65535.9](#event-655359)   | 0x09E3       |     16 |              2 |
| [65535.10](#event-6553510) | 0x09F3       |     14 |              2 |
| [65535.11](#event-6553511) | 0x0A01       |     16 |              2 |
| [65535.12](#event-6553512) | 0x0A11       |     14 |              2 |
| [65535.13](#event-6553513) | 0x0A1F       |     16 |              2 |
| [65535.14](#event-6553514) | 0x0A2F       |     14 |              2 |
| [65535.15](#event-6553515) | 0x0A3D       |     16 |              2 |
| [65535.16](#event-6553516) | 0x0A4D       |     14 |              2 |
| [65535.17](#event-6553517) | 0x0A5B       |     16 |              2 |
| [65535.18](#event-6553518) | 0x0A6B       |     14 |              2 |
| [65535.19](#event-6553519) | 0x0A79       |     16 |              2 |
| [65535.20](#event-6553520) | 0x0A89       |     14 |              2 |
| [65535.21](#event-6553521) | 0x0A97       |     16 |              2 |
| [65535.22](#event-6553522) | 0x0AA7       |     14 |              2 |
| [65535.23](#event-6553523) | 0x0AB5       |     16 |              2 |
| [65535.24](#event-6553524) | 0x0AC5       |     14 |              2 |
| [65535.25](#event-6553525) | 0x0AD3       |     16 |              2 |
| [65535.26](#event-6553526) | 0x0AE3       |     14 |              2 |
| [65535.27](#event-6553527) | 0x0AF1       |     16 |              2 |
| [65535.28](#event-6553528) | 0x0B01       |     14 |              2 |
| [65535.29](#event-6553529) | 0x0B0F       |     16 |              2 |
| [65535.30](#event-6553530) | 0x0B1F       |     14 |              2 |
| [65535.31](#event-6553531) | 0x0B2D       |     16 |              2 |
| [65535.32](#event-6553532) | 0x0B3D       |     14 |              2 |
| [545](#event-545)          | 0x0B4B       |     47 |             11 |
| [2516](#event-2516)        | 0x0B7A       |     68 |             22 |
| [45](#event-45)            | 0x0BBE       |     48 |             12 |
| [34](#event-34)            | 0x0BEE       |      1 |              1 |
| [65535.33](#event-6553533) | 0x0BEF       |     14 |              4 |
| [35](#event-35)            | 0x0BFD       |     53 |             14 |
| [36](#event-36)            | 0x0C32       |     49 |             12 |
| [37](#event-37)            | 0x0C63       |      1 |              1 |
| [38](#event-38)            | 0x0C64       |     45 |             10 |
| [39](#event-39)            | 0x0C91       |      1 |              1 |
| [40](#event-40)            | 0x0C92       |     49 |             12 |
| [41](#event-41)            | 0x0CC3       |     49 |             12 |

## DAT References (imed_data)

|   Index | Hex Value   |   Dec Value |
|---------|-------------|-------------|
|       0 | 0x0037      |          55 |
|       1 | 0x2B63      |       11107 |
|       2 | 0x002D      |          45 |
|       3 | 0x00C8      |         200 |
|       4 | 0xFFFFFED4  |  4294966996 |
|       5 | 0x0000      |           0 |
|       6 | 0x0A15      |        2581 |
|       7 | 0x2B64      |       11108 |
|       8 | 0x0096      |         150 |
|       9 | 0x0050      |          80 |
|      10 | 0x2B65      |       11109 |
|      11 | 0x2B66      |       11110 |
|      12 | 0x001E      |          30 |
|      13 | 0x0001      |           1 |
|      14 | 0x2ABE      |       10942 |
|      15 | 0x2AB5      |       10933 |
|      16 | 0x2AB6      |       10934 |
|      17 | 0x0016      |          22 |
|      18 | 0x0064      |         100 |
|      19 | 0x001D      |          29 |
|      20 | 0x2AB7      |       10935 |
|      21 | 0x005A      |          90 |
|      22 | 0x2AB8      |       10936 |
|      23 | 0x2AB9      |       10937 |
|      24 | 0x2ABA      |       10938 |
|      25 | 0x2ABB      |       10939 |
|      26 | 0x0008      |           8 |
|      27 | 0x2ABF      |       10943 |
|      28 | 0x2AC0      |       10944 |
|      29 | 0x0023      |          35 |
|      30 | 0x2ABC      |       10940 |
|      31 | 0x2ABD      |       10941 |
|      32 | 0x0078      |         120 |
|      33 | 0x0032      |          50 |
|      34 | 0x2AC1      |       10945 |
|      35 | 0x2AC2      |       10946 |
|      36 | 0x2AC8      |       10952 |
|      37 | 0x524A      |       21066 |
|      38 | 0x2AC9      |       10953 |
|      39 | 0x2ACA      |       10954 |
|      40 | 0x2ACB      |       10955 |
|      41 | 0x2ACC      |       10956 |
|      42 | 0x0002      |           2 |
|      43 | 0x2ACD      |       10957 |
|      44 | 0x2ACE      |       10958 |
|      45 | 0x2AD0      |       10960 |
|      46 | 0x2AD1      |       10961 |
|      47 | 0x2ACF      |       10959 |
|      48 | 0x2AC4      |       10948 |
|      49 | 0x2AC5      |       10949 |
|      50 | 0x0003      |           3 |
|      51 | 0x2AC6      |       10950 |
|      52 | 0x2AC3      |       10947 |
|      53 | 0x2AC7      |       10951 |
|      54 | 0x2A5E      |       10846 |
|      55 | 0x2A5F      |       10847 |
|      56 | 0x2A5B      |       10843 |
|      57 | 0x2A5C      |       10844 |
|      58 | 0x2A5D      |       10845 |
|      59 | 0x2A60      |       10848 |
|      60 | 0x2A61      |       10849 |
|      61 | 0x2A48      |       10824 |
|      62 | 0x2A41      |       10817 |
|      63 | 0x2A42      |       10818 |
|      64 | 0x2A43      |       10819 |
|      65 | 0x2A44      |       10820 |
|      66 | 0x2A45      |       10821 |
|      67 | 0x2A46      |       10822 |
|      68 | 0x2A47      |       10823 |
|      69 | 0x2A39      |       10809 |
|      70 | 0x2A3A      |       10810 |
|      71 | 0x2A37      |       10807 |
|      72 | 0x2A38      |       10808 |
|      73 | 0x2A3B      |       10811 |
|      74 | 0x2A3C      |       10812 |
|      75 | 0x2A3E      |       10814 |
|      76 | 0x2A3F      |       10815 |
|      77 | 0x2A40      |       10816 |
|      78 | 0x2A3D      |       10813 |
|      79 | 0x0C1C      |        3100 |
|      80 | 0x00FA      |         250 |
|      81 | 0x000D      |          13 |
|      82 | 0xFFFFFF35  |  4294967093 |
|      83 | 0xFFFFE17C  |  4294959484 |
|      84 | 0x003C      |          60 |
|      85 | 0x09D1      |        2513 |
|      86 | 0x359D      |       13725 |
|      87 | 0x0034      |          52 |
|      88 | 0x0035      |          53 |
|      89 | 0x2907      |       10503 |
|      90 | 0x2908      |       10504 |
|      91 | 0x1ED8      |        7896 |
|      92 | 0x1ED9      |        7897 |
|      93 | 0x1EDA      |        7898 |
|      94 | 0x1EDB      |        7899 |
|      95 | 0x1EDC      |        7900 |
|      96 | 0x1EDD      |        7901 |
|      97 | 0x1EDE      |        7902 |
|      98 | 0x1FB7      |        8119 |
|      99 | 0x1FB8      |        8120 |
|     100 | 0x5CA6      |       23718 |
|     101 | 0x81C5      |       33221 |
|     102 | 0xFFFFA97C  |  4294945148 |
|     103 | 0x295A      |       10586 |
|     104 | 0x295B      |       10587 |
|     105 | 0x295C      |       10588 |
|     106 | 0x295D      |       10589 |
|     107 | 0x295E      |       10590 |
|     108 | 0x2976      |       10614 |
|     109 | 0x299C      |       10652 |
|     110 | 0x299D      |       10653 |
|     111 | 0x299E      |       10654 |
|     112 | 0x299F      |       10655 |

## String References

- **7896**: I suppose you have business with Ikhi Askamot, ministerrr of education?
- **7897**: Making the rrrounds tooth and claw, are you?
- **7898**: There's been no suspicious activity in this parrrt of town.
- **7899**: Hmm? The minister?
- **7900**: I'm afrrraid she's not in at the moment. One of the other ministers has their paws on her.
- **7901**: Easterrrn Adoulin is always busy with the ministers coming and going from their residences. You'd be hard-pressed to catch one of them in their homes.
- **7902**: Guarding a minister's mansion may not be very glorrrious, but we take pride in it nonetheless!
- **8119**: Worrrking for the library, are you? Well, let me see what you've got for me.
- **8120**: ...There's something new about Ikhi Askamot that's not listed in the file. Herrre, let me add it for you. Enjoy.
- **10503**: You're damn right this estate belongs to an important person! Just look, it's purrrched upon a hill that overlooks Eastern Adoulin!
- **10504**: This grrrand abode is actually the home of Ikhi Askamot, our minister of education. She's famous not only for her political role, but also because many claim she's the rrreincarnation of legendary geomancer Sih Renaye.
- **10586**: Sylvie's quite brrrash to head to Morimar Basalt Fields all by her lonesome. It would be terrible if some ill fate were to befall her, too.
- **10587**: Lhaiso has ordered you to go find her fatherrr, Hostenn. Her wishes must be respected.
- **10588**: And if you are a pioneerrr, you must be intimately familiar with the area. The frontier station there can surely update you on the situation.
- **10589**: Other members of the orderrr have told me that even though the great Lhaiso herself went to help Hostenn, he was unable to be saved.
- **10590**: Despite being of the Zacariah lineage, he was a geomancer of the highest caliberrr. He shall be missed.
- **10614**: The great Lhaiso's condition grows increasingly grrrave by the day. I cannot help but harbor a dark sense of foreboding.
- **10652**: The mages from the Order of Janniston have rrrequested that Lhaiso be left to her slumber.
- **10653**: This is the first time in ages that such a trrragedy has befallen us. I hope everything will be all right.
- **10654**: Lhaiso has rrreturned to us!
- **10655**: Your brrravery has truly touched us all. The entire order owes you a debt of gratitude.
- **10807**: <Player>! How wonderrrful to see you here! The entire order remains in your debt after all you did to help Sylvie and Lhaiso.
- **10808**: In fact, your coming could not have been at a more forrrtuitous time. I recently stopped by Celennia Memorial Library and chanced upon a volume of much import.
- **10809**: It references certain "forces of darkness" that existed ages ago, with rrruins remaining somewhere in the Dho Gates.
- **10810**: I've neverrr been one to give in to fables that easily, but "forces of darkness"? It certainly gives one pause.
- **10811**: Could I perhaps trrrouble you to investigate this matter in my stead?
- **10812**: Will you assist Nhili? [Of course./I've done enough for your order.]
- **10813**: How unfortunate. Purrrhaps I should ask another.
- **10814**: You have my grrratitude--though exploration is its own reward.
- **10815**: I would go myself, but...I couldn't possibly tearrr myself away from here to go someplace so scar--far away.
- **10816**: After all, someone must prrrevent the uncouth from bothering Ikhi or Lhaiso.
- **10817**: A...handbell?
- **10818**: I see. But why would this be sitting in the inner rrrecesses of Dho Gates?
- **10819**: Was it something lost to the ages, or left there deliberrrately? This requires further study in the library.
- **10820**: You may keep the bell in the meantime. Its unique forrrm and metallic composition are enough for me to go on.
- **10821**: And I'm not saying that because it looks...crrreepy. Because it doesn't.
- **10822**: My memory is near flawless, and thus I do not rrrequire it to be on hand.
- **10823**: I have but one condition--do not sell it to some unsavory peddler or toss it away like last week's leftover brrread.
- **10824**: And please, be carrreful should you happen upon a Mithra claiming to be from Zhwa. She'd do anything to get her paws on something so valuable.
- **10843**: Why, hello again, <Player>! Rrremember how I was going to research the bell you found? Well, you see...
- **10844**: Oh my! You cerrrtainly did gussy it up while I was knee-deep in books from the historical archives.
- **10845**: This crrrest is utterly fascinating. Could it be from the age of...? Ah, but forgive me. You didn't come to hear a treatise on ancient symbols.
- **10846**: You mentioned you found it buried beneath some rrrubble in Dho Gates, no? Then perhaps it is a relic of a battle in years gone by that happened there many centuries past.
- **10847**: Of course, no records of such bloodshed exist...so I had to rely on more esoterrric sources. A book of fables, to be precise. But the details seem to fit.
- **10848**: Do you suppose the spirits of the fallen rrreside within its metallic shell? Ugh...my head is beginning to swim.
- **10849**: I need to take a brief rrrespite...should you desire to learn more, I wish you Goddess-speed.
- **10933**: <Player>! You could not have come at a more opporrrtune time!
- **10934**: Are you perchance a wandering geomancer? You could not have come at a more opporrrtune time!
- **10935**: "What time might that be?" Ahh...forrrget I said anything.
- **10936**: Would you be interested in furrrthering your geomantic training? Or rather, in unleashing your true potential?
- **10937**: The Order of Renaye houses a varrriety of artifacts within our hold, but chief among them is a line of enigmatic wands that initiates train with to amplify the energies of the lifestream in new ways.
- **10938**: Would you like to experience this powerrr for yourself?
- **10939**: Learn more about geomantic mysteries? [I'd love to!/I'm a bit busy right now...]
- **10940**: A-and after we've come this far together... How unforrrtunate.
- **10941**: B-but you seemed so reliable... How unforrrtunate.
- **10942**: <Player>! Have you rrreconsidered my offer? After all, the lifestream waits for no [man/woman]!
- **10943**: Wonderrrful!
- **10944**: Wonderrrful!
- **10945**: Then I bid you wield this wand and execute weapon skills upon your foes. The more the better!
- **10946**: Report back and trade me the weapon should you learrrn anything new.
- **10947**: Mayhap my instructions were unclear. You need to actually use weapon skills. Have you been leaving this heirloom to rrrot in your bags?
- **10948**: Aha! I can feel a faint aura resonating within its slender frrrame.
- **10949**: Yes...the haft is noticeably tingling. I'd say you'rrre halfway there!
- **10950**: Amazing! The enerrrgies, once latent, are wholly palpable!
- **10951**: Purrrform more weapon skills, and I'm sure something amazing will happen!
- **10952**: A pleasurrre, as always. How fare your adventures with the wand I lent you?
- **10953**: How are you finding the wand? [I've nothing to report./I've lost my $1./I'm not interested anymore.]
- **10954**: Y-you what!?
- **10955**: I lectured you on the import and symbolism of this task, and you went and threw it in the trrrash!? <Sigh>... Let me get you a new one.
- **10956**: All the work with the old one has gone to waste...so it's back to squarrre one for you!
- **10957**: N-not interested!? Then all your efforrrts will have been for naught! Are you absolutely sure?
- **10958**: Really abandon Nhili's task? [Yes. I have no time for this./No. I'd like to reconsider.]
- **10959**: Oh, by the lifestream! If a Mithrrra has nine lives, then you just took away three of them!
- **10960**: O-oh no... I can't stop you, but...I'm rather disappointed.
- **10961**: Don't worry about rrreturning your $0. We've got plenty in stock.
- **11107**: What? You want me to apprrraise a painting? An odd request, for sure, but I think I'm up to it.
- **11108**: Nhili Uvolep stares at the painting $3 with a discerning eye.
- **11109**: Sorry, but you got the fur pulled over your eyes. It's an incontrrrovertible fake.
- **11110**: If only it were rrreal, you'd be set for life.
- **13725**: Should you come across $6 in your travels, bring it to Wescolina in Western Adoulin. If anyone can rrreplicate that attire, she can.

## Events

### Event 65535

#### Metadata

| Field        | Value   |
|--------------|---------|
| Entrypoint   | 0x0000  |
| Data Size    | 1 bytes |
| Instructions | 1       |

```
      00 01 02 03 04 05 06 07  08 09 0A 0B 0C 0D 0E 0F
      -- -- -- -- -- -- -- --  -- -- -- -- -- -- -- --
0000: 00                                                .               
```

#### Opcodes

```
  0: 0x0000 [0x00] END_REQSTACK()
```

### Event 5117

#### Metadata

| Field        | Value     |
|--------------|-----------|
| Entrypoint   | 0x0001    |
| Data Size    | 186 bytes |
| Instructions | 32        |

```
      00 01 02 03 04 05 06 07  08 09 0A 0B 0C 0D 0E 0F
      -- -- -- -- -- -- -- --  -- -- -- -- -- -- -- --
0000:    42 1E F0 FF FF 7F 6F  70 4A F0 FF FF 7F E8 10   B.....opJ......
0010: 10 01 6F 76 F0 FF FF 7F  66 00 80 F8 FF FF 7F F8  ..ov....f.......
0020: FF FF 7F 74 6C 6B 30 1D  01 80 23 53 F8 FF FF 7F  ...tlk0...#S....
0030: F8 FF FF 7F 74 6C 6B 30  66 00 80 F8 FF FF 7F F8  ....tlk0f.......
0040: FF FF 7F 74 6C 6B 31 1C  02 80 59 03 F8 FF FF 7F  ...tlk1...Y.....
0050: 03 80 79 02 F8 FF FF 7F  04 80 05 80 03 02 10 06  ..y.............
0060: 80 48 07 80 1C 08 80 59  03 F8 FF FF 7F 03 80 79  .H.....Y.......y
0070: 00 F8 FF FF 7F F0 FF FF  7F 1C 09 80 66 00 80 F8  ............f...
0080: FF FF 7F F8 FF FF 7F 74  6C 6B 30 27 08 F0 FF FF  .......tlk0'....
0090: 7F 62 1D 0A 80 23 1D 0B  80 23 53 F8 FF FF 7F F8  .b...#...#S.....
00A0: FF FF 7F 74 6C 6B 30 66  00 80 F8 FF FF 7F F8 FF  ...tlk0f........
00B0: FF 7F 74 6C 6B 31 1C 0C  80 21 00                 ..tlk1...!.     
```

#### Opcodes

```
  0: 0x0001 [0x42] SET_CLI_EVENT_CANCEL_DATA()
  1: 0x0002 [0x1E] EventEntity looks at LocalPlayer and starts talking
  2: 0x0007 [0x6F] WAIT_FRAME_DELAY: Yield until WaitTime reaches zero
  3: 0x0008 [0x70] WAIT_ENTITY_RENDER_FLAG: Wait while EventEntity->Render.Flags3 bit 2 is set (cancel turn if not)
  4: 0x0009 [0x4A] LocalPlayer looks at Nhili Uvolep (ID: 17830120/0x011010E8)
  5: 0x0012 [0x6F] WAIT_FRAME_DELAY: Yield until WaitTime reaches zero
  6: 0x0013 [0x76] CHECK_ENTITY_RENDER_FLAGS: Wait until LocalPlayer Render.Flags0 and Render.Flags3 conditions are met
  7: 0x0018 [0x66] LOAD_EXT_SCHEDULER_MAIN: Load scheduler "tlk0" with entities [EventEntity, EventEntity], work=55*
  8: 0x0027 [0x1D] PRINT_EVENT_MESSAGE(message_id=11107*)
    → "What? You want me to apprrraise a painting? An odd request, for sure, but I think I'm up to it."
  9: 0x002A [0x23] WAIT_FOR_DIALOG_INTERACTION
 10: 0x002B [0x53] WAIT_SCHEDULER_TASK: Wait for scheduler "tlk0" with entities [EventEntity, EventEntity]
 11: 0x0038 [0x66] LOAD_EXT_SCHEDULER_MAIN: Load scheduler "tlk1" with entities [EventEntity, EventEntity], work=55*
 12: 0x0047 [0x1C] WAIT(45* ticks)
 13: 0x004A [0x59] UPDATE_ENTITY_DATA: Set EventEntity turn speed head = 200*
 14: 0x0052 [0x79] EventEntity looks at Unknown NPC (ID: 2147844100/0x80058004) (Direct axis set)
 15: 0x005C [0x03] Work_Zone[2] = 2581*
 16: 0x0061 [0x48] [System] [11108*]:
    → "Nhili Uvolep stares at the painting $3 with a discerning eye."
 17: 0x0064 [0x1C] WAIT(150* ticks)
 18: 0x0067 [0x59] UPDATE_ENTITY_DATA: Set EventEntity turn speed head = 200*
 19: 0x006F [0x79] EventEntity looks at LocalPlayer (Basic look)
 20: 0x0079 [0x1C] WAIT(80* ticks)
 21: 0x007C [0x66] LOAD_EXT_SCHEDULER_MAIN: Load scheduler "tlk0" with entities [EventEntity, EventEntity], work=55*
 22: 0x008B [0x27] REQ_SET(priority=0x08, entity_id=LocalPlayer, tag_num=0x62)
 23: 0x0092 [0x1D] PRINT_EVENT_MESSAGE(message_id=11109*)
    → "Sorry, but you got the fur pulled over your eyes. It's an incontrrrovertible fake."
 24: 0x0095 [0x23] WAIT_FOR_DIALOG_INTERACTION
 25: 0x0096 [0x1D] PRINT_EVENT_MESSAGE(message_id=11110*)
    → "If only it were rrreal, you'd be set for life."
 26: 0x0099 [0x23] WAIT_FOR_DIALOG_INTERACTION
 27: 0x009A [0x53] WAIT_SCHEDULER_TASK: Wait for scheduler "tlk0" with entities [EventEntity, EventEntity]
 28: 0x00A7 [0x66] LOAD_EXT_SCHEDULER_MAIN: Load scheduler "tlk1" with entities [EventEntity, EventEntity], work=55*
 29: 0x00B6 [0x1C] WAIT(30* ticks)
 30: 0x00B9 [0x21] END_EVENT
 31: 0x00BA [0x00] END_REQSTACK()
```

### Event 5093

#### Metadata

| Field        | Value     |
|--------------|-----------|
| Entrypoint   | 0x00BB    |
| Data Size    | 429 bytes |
| Instructions | 80        |

```
      00 01 02 03 04 05 06 07  08 09 0A 0B 0C 0D 0E 0F
      -- -- -- -- -- -- -- --  -- -- -- -- -- -- -- --
00B0:                                   42 03 00 00 02             B....
00C0: 10 03 02 00 03 10 1E F0  FF FF 7F 6F 70 4A F0 FF  ...........opJ..
00D0: FF 7F E8 10 10 01 6F 76  F0 FF FF 7F 66 00 80 F8  ......ov....f...
00E0: FF FF 7F F8 FF FF 7F 74  6C 6B 30 02 00 00 0D 80  .......tlk0.....
00F0: 00 16 01 1D 0E 80 23 53  F8 FF FF 7F F8 FF FF 7F  ......#S........
0100: 74 6C 6B 30 66 00 80 F8  FF FF 7F F8 FF FF 7F 74  tlk0f..........t
0110: 6C 6B 31 01 AB 01 02 02  00 0D 80 00 25 01 1D 0F  lk1.........%...
0120: 80 23 01 29 01 1D 10 80  23 53 F8 FF FF 7F F8 FF  .#.)....#S......
0130: FF 7F 74 6C 6B 30 66 00  80 F8 FF FF 7F F8 FF FF  ..tlk0f.........
0140: 7F 74 6C 6B 31 6E F0 FF  FF 7F 11 80 99 F0 FF FF  .tlk1n..........
0150: 7F 1C 12 80 53 F8 FF FF  7F F8 FF FF 7F 74 6C 6B  ....S........tlk
0160: 31 6E E8 10 10 01 13 80  99 E8 10 10 01 1D 14 80  1n..............
0170: 23 1C 15 80 1D 16 80 23  66 00 80 F8 FF FF 7F F8  #......#f.......
0180: FF FF 7F 74 6C 6B 30 1D  17 80 23 1D 18 80 23 53  ...tlk0...#...#S
0190: F8 FF FF 7F F8 FF FF 7F  74 6C 6B 30 66 00 80 F8  ........tlk0f...
01A0: FF FF 7F F8 FF FF 7F 74  6C 6B 31 06 01 10 24 19  .......tlk1...$.
01B0: 80 05 80 05 80 25 02 00  10 05 80 00 01 02 53 F8  .....%........S.
01C0: FF FF 7F F8 FF FF 7F 74  6C 6B 31 42 66 1A 80 F8  .......tlk1Bf...
01D0: FF FF 7F F8 FF FF 7F 75  72 65 30 02 02 00 0D 80  .......ure0.....
01E0: 00 EA 01 1D 1B 80 23 01  EE 01 1D 1C 80 23 1C 15  ......#......#..
01F0: 80 53 F8 FF FF 7F F8 FF  FF 7F 75 72 65 30 01 3D  .S........ure0.=
0200: 02 02 00 10 0D 80 00 3D  02 53 F8 FF FF 7F F8 FF  .......=.S......
0210: FF 7F 74 6C 6B 31 6E E8  10 10 01 1D 80 99 E8 10  ..tlk1n.........
0220: 10 01 02 02 00 0D 80 00  31 02 1D 1E 80 23 01 35  ........1....#.5
0230: 02 1D 1F 80 23 1C 20 80  21 00 01 3D 02 66 21 80  ....#. .!..=.f!.
0240: F8 FF FF 7F F8 FF FF 7F  70 61 73 30 1D 22 80 23  ........pas0.".#
0250: 1D 23 80 23 53 F8 FF FF  7F F8 FF FF 7F 70 61 73  .#.#S........pas
0260: 30 03 01 10 0D 80 21 00                           0.....!.        
```

#### Opcodes

```
  0: 0x00BB [0x42] SET_CLI_EVENT_CANCEL_DATA()
  1: 0x00BC [0x03] ExtData[1]->WorkLocal[0] = Work_Zone[2]
  2: 0x00C1 [0x03] ExtData[1]->WorkLocal[2] = Work_Zone[3]
  3: 0x00C6 [0x1E] EventEntity looks at LocalPlayer and starts talking
  4: 0x00CB [0x6F] WAIT_FRAME_DELAY: Yield until WaitTime reaches zero
  5: 0x00CC [0x70] WAIT_ENTITY_RENDER_FLAG: Wait while EventEntity->Render.Flags3 bit 2 is set (cancel turn if not)
  6: 0x00CD [0x4A] LocalPlayer looks at Nhili Uvolep (ID: 17830120/0x011010E8)
  7: 0x00D6 [0x6F] WAIT_FRAME_DELAY: Yield until WaitTime reaches zero
  8: 0x00D7 [0x76] CHECK_ENTITY_RENDER_FLAGS: Wait until LocalPlayer Render.Flags0 and Render.Flags3 conditions are met
  9: 0x00DC [0x66] LOAD_EXT_SCHEDULER_MAIN: Load scheduler "tlk0" with entities [EventEntity, EventEntity], work=55*
 10: 0x00EB [0x02] IF !(ExtData[1]->WorkLocal[0] == 1*) GOTO 0x0116
 11: 0x00F3 [0x1D] PRINT_EVENT_MESSAGE(message_id=10942*)
    → "<Player>! Have you rrreconsidered my offer? After all, the lifestream waits for no [man/woman]!"
 12: 0x00F6 [0x23] WAIT_FOR_DIALOG_INTERACTION
 13: 0x00F7 [0x53] WAIT_SCHEDULER_TASK: Wait for scheduler "tlk0" with entities [EventEntity, EventEntity]
 14: 0x0104 [0x66] LOAD_EXT_SCHEDULER_MAIN: Load scheduler "tlk1" with entities [EventEntity, EventEntity], work=55*
 15: 0x0113 [0x01] GOTO 0x01AB
 16: 0x0116 [0x02] IF !(ExtData[1]->WorkLocal[2] == 1*) GOTO 0x0125
 17: 0x011E [0x1D] PRINT_EVENT_MESSAGE(message_id=10933*)
    → "<Player>! You could not have come at a more opporrrtune time!"
 18: 0x0121 [0x23] WAIT_FOR_DIALOG_INTERACTION
 19: 0x0122 [0x01] GOTO 0x0129
 20: 0x0125 [0x1D] PRINT_EVENT_MESSAGE(message_id=10934*)
    → "Are you perchance a wandering geomancer? You could not have come at a more opporrrtune time!"
 21: 0x0128 [0x23] WAIT_FOR_DIALOG_INTERACTION

SUBROUTINE_0129:
 22: 0x0129 [0x53] WAIT_SCHEDULER_TASK: Wait for scheduler "tlk0" with entities [EventEntity, EventEntity]
 23: 0x0136 [0x66] LOAD_EXT_SCHEDULER_MAIN: Load scheduler "tlk1" with entities [EventEntity, EventEntity], work=55*
 24: 0x0145 [0x6E] LocalPlayer uses emote 22*
 25: 0x014C [0x99] Wait for LocalPlayer animation to complete
 26: 0x0151 [0x1C] WAIT(100* ticks)
 27: 0x0154 [0x53] WAIT_SCHEDULER_TASK: Wait for scheduler "tlk1" with entities [EventEntity, EventEntity]
 28: 0x0161 [0x6E] Nhili Uvolep (ID: 17830120/0x011010E8) uses emote 29*
 29: 0x0168 [0x99] Wait for Nhili Uvolep (ID: 17830120/0x011010E8) animation to complete
 30: 0x016D [0x1D] PRINT_EVENT_MESSAGE(message_id=10935*)
    → ""What time might that be?" Ahh...forrrget I said anything."
 31: 0x0170 [0x23] WAIT_FOR_DIALOG_INTERACTION
 32: 0x0171 [0x1C] WAIT(90* ticks)
 33: 0x0174 [0x1D] PRINT_EVENT_MESSAGE(message_id=10936*)
    → "Would you be interested in furrrthering your geomantic training? Or rather, in unleashing your true potential?"
 34: 0x0177 [0x23] WAIT_FOR_DIALOG_INTERACTION
 35: 0x0178 [0x66] LOAD_EXT_SCHEDULER_MAIN: Load scheduler "tlk0" with entities [EventEntity, EventEntity], work=55*
 36: 0x0187 [0x1D] PRINT_EVENT_MESSAGE(message_id=10937*)
    → "The Order of Renaye houses a varrriety of artifacts within our hold, but chief among them is a line of enigmatic wands that initiates train with to amplify the energies of the lifestream in new ways."
 37: 0x018A [0x23] WAIT_FOR_DIALOG_INTERACTION
 38: 0x018B [0x1D] PRINT_EVENT_MESSAGE(message_id=10938*)
    → "Would you like to experience this powerrr for yourself?"
 39: 0x018E [0x23] WAIT_FOR_DIALOG_INTERACTION
 40: 0x018F [0x53] WAIT_SCHEDULER_TASK: Wait for scheduler "tlk0" with entities [EventEntity, EventEntity]
 41: 0x019C [0x66] LOAD_EXT_SCHEDULER_MAIN: Load scheduler "tlk1" with entities [EventEntity, EventEntity], work=55*

SUBROUTINE_01AB:
 42: 0x01AB [0x06] Work_Zone[1] = 0
 43: 0x01AE [0x24] CREATE_DIALOG(message_id=10939*, default_option=0*, option_flags=0*)
    → "Learn more about geomantic mysteries? [I'd love to!/I'm a bit busy right now...]"
 44: 0x01B5 [0x25] WAIT_DIALOG_SELECT()
 45: 0x01B6 [0x02] IF !(Work_Zone[0] == 0*) GOTO 0x0201
 46: 0x01BE [0x53] WAIT_SCHEDULER_TASK: Wait for scheduler "tlk1" with entities [EventEntity, EventEntity]
 47: 0x01CB [0x42] SET_CLI_EVENT_CANCEL_DATA()
 48: 0x01CC [0x66] LOAD_EXT_SCHEDULER_MAIN: Load scheduler "ure0" with entities [EventEntity, EventEntity], work=8*
 49: 0x01DB [0x02] IF !(ExtData[1]->WorkLocal[2] == 1*) GOTO 0x01EA
 50: 0x01E3 [0x1D] PRINT_EVENT_MESSAGE(message_id=10943*)
    → "Wonderrrful!"
 51: 0x01E6 [0x23] WAIT_FOR_DIALOG_INTERACTION
 52: 0x01E7 [0x01] GOTO 0x01EE
 53: 0x01EA [0x1D] PRINT_EVENT_MESSAGE(message_id=10944*)
    → "Wonderrrful!"
 54: 0x01ED [0x23] WAIT_FOR_DIALOG_INTERACTION

SUBROUTINE_01EE:
 55: 0x01EE [0x1C] WAIT(90* ticks)
 56: 0x01F1 [0x53] WAIT_SCHEDULER_TASK: Wait for scheduler "ure0" with entities [EventEntity, EventEntity]
 57: 0x01FE [0x01] GOTO 0x023D
 58: 0x0201 [0x02] IF !(Work_Zone[0] == 1*) GOTO 0x023D
 59: 0x0209 [0x53] WAIT_SCHEDULER_TASK: Wait for scheduler "tlk1" with entities [EventEntity, EventEntity]
 60: 0x0216 [0x6E] Nhili Uvolep (ID: 17830120/0x011010E8) uses emote 35*
 61: 0x021D [0x99] Wait for Nhili Uvolep (ID: 17830120/0x011010E8) animation to complete
 62: 0x0222 [0x02] IF !(ExtData[1]->WorkLocal[2] == 1*) GOTO 0x0231
 63: 0x022A [0x1D] PRINT_EVENT_MESSAGE(message_id=10940*)
    → "A-and after we've come this far together... How unforrrtunate."
 64: 0x022D [0x23] WAIT_FOR_DIALOG_INTERACTION
 65: 0x022E [0x01] GOTO 0x0235
 66: 0x0231 [0x1D] PRINT_EVENT_MESSAGE(message_id=10941*)
    → "B-but you seemed so reliable... How unforrrtunate."
 67: 0x0234 [0x23] WAIT_FOR_DIALOG_INTERACTION

SUBROUTINE_0235:
 68: 0x0235 [0x1C] WAIT(120* ticks)
 69: 0x0238 [0x21] END_EVENT
 70: 0x0239 [0x00] END_REQSTACK()

SUBROUTINE_023D:
 71: 0x023D [0x66] LOAD_EXT_SCHEDULER_MAIN: Load scheduler "pas0" with entities [EventEntity, EventEntity], work=50*
 72: 0x024C [0x1D] PRINT_EVENT_MESSAGE(message_id=10945*)
    → "Then I bid you wield this wand and execute weapon skills upon your foes. The more the better!"
 73: 0x024F [0x23] WAIT_FOR_DIALOG_INTERACTION
 74: 0x0250 [0x1D] PRINT_EVENT_MESSAGE(message_id=10946*)
    → "Report back and trade me the weapon should you learrrn anything new."
 75: 0x0253 [0x23] WAIT_FOR_DIALOG_INTERACTION
 76: 0x0254 [0x53] WAIT_SCHEDULER_TASK: Wait for scheduler "pas0" with entities [EventEntity, EventEntity]
 77: 0x0261 [0x03] Work_Zone[1] = 1*
 78: 0x0266 [0x21] END_EVENT
 79: 0x0267 [0x00] END_REQSTACK()
```

#### Data or dead code:

```
# Dead code (unreachable instructions):
     0x023A [0x01] GOTO 0x023D
```

### Event 5094

#### Metadata

| Field        | Value     |
|--------------|-----------|
| Entrypoint   | 0x0268    |
| Data Size    | 389 bytes |
| Instructions | 65        |

```
      00 01 02 03 04 05 06 07  08 09 0A 0B 0C 0D 0E 0F
      -- -- -- -- -- -- -- --  -- -- -- -- -- -- -- --
0260:                          03 00 00 02 10 1E F0 FF          ........
0270: FF 7F 6F 70 4A F0 FF FF  7F E8 10 10 01 6F 76 F0  ..opJ........ov.
0280: FF FF 7F 66 00 80 F8 FF  FF 7F F8 FF FF 7F 74 6C  ...f..........tl
0290: 6B 30 1D 24 80 23 06 01  10 02 00 00 0D 80 00 A8  k0.$.#..........
02A0: 02 3C 01 00 0D 80 0D 80  03 02 10 25 80 24 26 80  .<.........%.$&.
02B0: 05 80 01 00 25 02 00 10  05 80 00 C0 02 01 EB 03  ....%...........
02C0: 02 00 10 0D 80 00 27 03  53 F8 FF FF 7F F8 FF FF  ......'.S.......
02D0: 7F 74 6C 6B 30 66 00 80  F8 FF FF 7F F8 FF FF 7F  .tlk0f..........
02E0: 74 6C 6B 31 42 03 02 10  25 80 1D 27 80 23 53 F8  tlk1B...%..'.#S.
02F0: FF FF 7F F8 FF FF 7F 74  6C 6B 31 66 21 80 F8 FF  .......tlk1f!...
0300: FF 7F F8 FF FF 7F 70 61  73 30 1D 28 80 23 53 F8  ......pas0.(.#S.
0310: FF FF 7F F8 FF FF 7F 70  61 73 30 1D 29 80 23 03  .......pas0.).#.
0320: 01 10 0D 80 01 EB 03 02  00 10 2A 80 00 EB 03 53  ..........*....S
0330: F8 FF FF 7F F8 FF FF 7F  74 6C 6B 30 66 00 80 F8  ........tlk0f...
0340: FF FF 7F F8 FF FF 7F 74  6C 6B 31 53 F8 FF FF 7F  .......tlk1S....
0350: F8 FF FF 7F 74 6C 6B 31  66 1A 80 F8 FF FF 7F F8  ....tlk1f.......
0360: FF FF 7F 61 77 77 30 1D  2B 80 23 24 2C 80 0D 80  ...aww0.+.#$,...
0370: 05 80 25 02 00 10 05 80  00 CC 03 42 1D 2D 80 23  ..%........B.-.#
0380: 53 F8 FF FF 7F F8 FF FF  7F 61 77 77 30 66 00 80  S........aww0f..
0390: F8 FF FF 7F F8 FF FF 7F  74 6C 6B 30 03 02 10 25  ........tlk0...%
03A0: 80 1D 2E 80 23 03 01 10  2A 80 53 F8 FF FF 7F F8  ....#...*.S.....
03B0: FF FF 7F 74 6C 6B 30 66  00 80 F8 FF FF 7F F8 FF  ...tlk0f........
03C0: FF 7F 74 6C 6B 31 1C 0C  80 01 E8 03 02 00 10 0D  ..tlk1..........
03D0: 80 00 E8 03 1D 2F 80 23  53 F8 FF FF 7F F8 FF FF  ...../.#S.......
03E0: 7F 61 77 77 30 01 E8 03  01 EB 03 21 00           .aww0......!.   
```

#### Opcodes

```
  0: 0x0268 [0x03] ExtData[1]->WorkLocal[0] = Work_Zone[2]
  1: 0x026D [0x1E] EventEntity looks at LocalPlayer and starts talking
  2: 0x0272 [0x6F] WAIT_FRAME_DELAY: Yield until WaitTime reaches zero
  3: 0x0273 [0x70] WAIT_ENTITY_RENDER_FLAG: Wait while EventEntity->Render.Flags3 bit 2 is set (cancel turn if not)
  4: 0x0274 [0x4A] LocalPlayer looks at Nhili Uvolep (ID: 17830120/0x011010E8)
  5: 0x027D [0x6F] WAIT_FRAME_DELAY: Yield until WaitTime reaches zero
  6: 0x027E [0x76] CHECK_ENTITY_RENDER_FLAGS: Wait until LocalPlayer Render.Flags0 and Render.Flags3 conditions are met
  7: 0x0283 [0x66] LOAD_EXT_SCHEDULER_MAIN: Load scheduler "tlk0" with entities [EventEntity, EventEntity], work=55*
  8: 0x0292 [0x1D] PRINT_EVENT_MESSAGE(message_id=10952*)
    → "A pleasurrre, as always. How fare your adventures with the wand I lent you?"
  9: 0x0295 [0x23] WAIT_FOR_DIALOG_INTERACTION
 10: 0x0296 [0x06] Work_Zone[1] = 0
 11: 0x0299 [0x02] IF !(ExtData[1]->WorkLocal[0] == 1*) GOTO 0x02A8
 12: 0x02A1 [0x3C] SET_BIT_FLAG_CONDITIONAL(target_work_offset=ExtData[1]->WorkLocal[1], bit_index_work_offset=1*, condition_work_offset=1*)
 13: 0x02A8 [0x03] Work_Zone[2] = 21066*
 14: 0x02AD [0x24] CREATE_DIALOG(message_id=10953*, default_option=0*, option_flags=ExtData[1]->WorkLocal[1])
    → "How are you finding the wand? [I've nothing to report./I've lost my $1./I'm not interested anymore.]"
 15: 0x02B4 [0x25] WAIT_DIALOG_SELECT()
 16: 0x02B5 [0x02] IF !(Work_Zone[0] == 0*) GOTO 0x02C0
 17: 0x02BD [0x01] GOTO 0x03EB
 18: 0x02C0 [0x02] IF !(Work_Zone[0] == 1*) GOTO 0x0327
 19: 0x02C8 [0x53] WAIT_SCHEDULER_TASK: Wait for scheduler "tlk0" with entities [EventEntity, EventEntity]
 20: 0x02D5 [0x66] LOAD_EXT_SCHEDULER_MAIN: Load scheduler "tlk1" with entities [EventEntity, EventEntity], work=55*
 21: 0x02E4 [0x42] SET_CLI_EVENT_CANCEL_DATA()
 22: 0x02E5 [0x03] Work_Zone[2] = 21066*
 23: 0x02EA [0x1D] PRINT_EVENT_MESSAGE(message_id=10954*)
    → "Y-you what!?"
 24: 0x02ED [0x23] WAIT_FOR_DIALOG_INTERACTION
 25: 0x02EE [0x53] WAIT_SCHEDULER_TASK: Wait for scheduler "tlk1" with entities [EventEntity, EventEntity]
 26: 0x02FB [0x66] LOAD_EXT_SCHEDULER_MAIN: Load scheduler "pas0" with entities [EventEntity, EventEntity], work=50*
 27: 0x030A [0x1D] PRINT_EVENT_MESSAGE(message_id=10955*)
    → "I lectured you on the import and symbolism of this task, and you went and threw it in the trrrash!? <Sigh>... Let me get you a new one."
 28: 0x030D [0x23] WAIT_FOR_DIALOG_INTERACTION
 29: 0x030E [0x53] WAIT_SCHEDULER_TASK: Wait for scheduler "pas0" with entities [EventEntity, EventEntity]
 30: 0x031B [0x1D] PRINT_EVENT_MESSAGE(message_id=10956*)
    → "All the work with the old one has gone to waste...so it's back to squarrre one for you!"
 31: 0x031E [0x23] WAIT_FOR_DIALOG_INTERACTION
 32: 0x031F [0x03] Work_Zone[1] = 1*
 33: 0x0324 [0x01] GOTO 0x03EB
 34: 0x0327 [0x02] IF !(Work_Zone[0] == 2*) GOTO 0x03EB
 35: 0x032F [0x53] WAIT_SCHEDULER_TASK: Wait for scheduler "tlk0" with entities [EventEntity, EventEntity]
 36: 0x033C [0x66] LOAD_EXT_SCHEDULER_MAIN: Load scheduler "tlk1" with entities [EventEntity, EventEntity], work=55*
 37: 0x034B [0x53] WAIT_SCHEDULER_TASK: Wait for scheduler "tlk1" with entities [EventEntity, EventEntity]
 38: 0x0358 [0x66] LOAD_EXT_SCHEDULER_MAIN: Load scheduler "aww0" with entities [EventEntity, EventEntity], work=8*
 39: 0x0367 [0x1D] PRINT_EVENT_MESSAGE(message_id=10957*)
    → "N-not interested!? Then all your efforrrts will have been for naught! Are you absolutely sure?"
 40: 0x036A [0x23] WAIT_FOR_DIALOG_INTERACTION
 41: 0x036B [0x24] CREATE_DIALOG(message_id=10958*, default_option=1*, option_flags=0*)
    → "Really abandon Nhili's task? [Yes. I have no time for this./No. I'd like to reconsider.]"
 42: 0x0372 [0x25] WAIT_DIALOG_SELECT()
 43: 0x0373 [0x02] IF !(Work_Zone[0] == 0*) GOTO 0x03CC
 44: 0x037B [0x42] SET_CLI_EVENT_CANCEL_DATA()
 45: 0x037C [0x1D] PRINT_EVENT_MESSAGE(message_id=10960*)
    → "O-oh no... I can't stop you, but...I'm rather disappointed."
 46: 0x037F [0x23] WAIT_FOR_DIALOG_INTERACTION
 47: 0x0380 [0x53] WAIT_SCHEDULER_TASK: Wait for scheduler "aww0" with entities [EventEntity, EventEntity]
 48: 0x038D [0x66] LOAD_EXT_SCHEDULER_MAIN: Load scheduler "tlk0" with entities [EventEntity, EventEntity], work=55*
 49: 0x039C [0x03] Work_Zone[2] = 21066*
 50: 0x03A1 [0x1D] PRINT_EVENT_MESSAGE(message_id=10961*)
    → "Don't worry about rrreturning your $0. We've got plenty in stock."
 51: 0x03A4 [0x23] WAIT_FOR_DIALOG_INTERACTION
 52: 0x03A5 [0x03] Work_Zone[1] = 2*
 53: 0x03AA [0x53] WAIT_SCHEDULER_TASK: Wait for scheduler "tlk0" with entities [EventEntity, EventEntity]
 54: 0x03B7 [0x66] LOAD_EXT_SCHEDULER_MAIN: Load scheduler "tlk1" with entities [EventEntity, EventEntity], work=55*
 55: 0x03C6 [0x1C] WAIT(30* ticks)
 56: 0x03C9 [0x01] GOTO 0x03E8
 57: 0x03CC [0x02] IF !(Work_Zone[0] == 1*) GOTO 0x03E8
 58: 0x03D4 [0x1D] PRINT_EVENT_MESSAGE(message_id=10959*)
    → "Oh, by the lifestream! If a Mithrrra has nine lives, then you just took away three of them!"
 59: 0x03D7 [0x23] WAIT_FOR_DIALOG_INTERACTION
 60: 0x03D8 [0x53] WAIT_SCHEDULER_TASK: Wait for scheduler "aww0" with entities [EventEntity, EventEntity]
 61: 0x03E5 [0x01] GOTO 0x03E8

SUBROUTINE_03E8:
 62: 0x03E8 [0x01] GOTO 0x03EB

SUBROUTINE_03EB:
 63: 0x03EB [0x21] END_EVENT
 64: 0x03EC [0x00] END_REQSTACK()
```

### Event 5095

#### Metadata

| Field        | Value     |
|--------------|-----------|
| Entrypoint   | 0x03ED    |
| Data Size    | 229 bytes |
| Instructions | 36        |

```
      00 01 02 03 04 05 06 07  08 09 0A 0B 0C 0D 0E 0F
      -- -- -- -- -- -- -- --  -- -- -- -- -- -- -- --
03E0:                                         03 00 00               ...
03F0: 02 10 1E F0 FF FF 7F 6F  70 4A F0 FF FF 7F E8 10  .......opJ......
0400: 10 01 6F 76 F0 FF FF 7F  02 00 00 0D 80 80 42 04  ..ov..........B.
0410: 66 00 80 F8 FF FF 7F F8  FF FF 7F 74 6C 6B 30 1D  f..........tlk0.
0420: 30 80 23 53 F8 FF FF 7F  F8 FF FF 7F 74 6C 6B 30  0.#S........tlk0
0430: 66 00 80 F8 FF FF 7F F8  FF FF 7F 74 6C 6B 31 01  f..........tlk1.
0440: C9 04 02 00 00 2A 80 80  7C 04 66 00 80 F8 FF FF  .....*..|.f.....
0450: 7F F8 FF FF 7F 74 6C 6B  30 1D 31 80 23 53 F8 FF  .....tlk0.1.#S..
0460: FF 7F F8 FF FF 7F 74 6C  6B 30 66 00 80 F8 FF FF  ......tlk0f.....
0470: 7F F8 FF FF 7F 74 6C 6B  31 01 C9 04 02 00 00 32  .....tlk1......2
0480: 80 80 9A 04 66 1A 80 F8  FF FF 7F F8 FF FF 7F 75  ....f..........u
0490: 72 65 30 1D 33 80 23 01  C9 04 66 00 80 F8 FF FF  re0.3.#...f.....
04A0: 7F F8 FF FF 7F 74 6C 6B  30 1D 34 80 23 53 F8 FF  .....tlk0.4.#S..
04B0: FF 7F F8 FF FF 7F 74 6C  6B 30 66 00 80 F8 FF FF  ......tlk0f.....
04C0: 7F F8 FF FF 7F 74 6C 6B  31 1D 35 80 23 1C 0C 80  .....tlk1.5.#...
04D0: 21 00                                             !.              
```

#### Opcodes

```
  0: 0x03ED [0x03] ExtData[1]->WorkLocal[0] = Work_Zone[2]
  1: 0x03F2 [0x1E] EventEntity looks at LocalPlayer and starts talking
  2: 0x03F7 [0x6F] WAIT_FRAME_DELAY: Yield until WaitTime reaches zero
  3: 0x03F8 [0x70] WAIT_ENTITY_RENDER_FLAG: Wait while EventEntity->Render.Flags3 bit 2 is set (cancel turn if not)
  4: 0x03F9 [0x4A] LocalPlayer looks at Nhili Uvolep (ID: 17830120/0x011010E8)
  5: 0x0402 [0x6F] WAIT_FRAME_DELAY: Yield until WaitTime reaches zero
  6: 0x0403 [0x76] CHECK_ENTITY_RENDER_FLAGS: Wait until LocalPlayer Render.Flags0 and Render.Flags3 conditions are met
  7: 0x0408 [0x02] IF !(ExtData[1]->WorkLocal[0] == 1*) GOTO 0x0442
  8: 0x0410 [0x66] LOAD_EXT_SCHEDULER_MAIN: Load scheduler "tlk0" with entities [EventEntity, EventEntity], work=55*
  9: 0x041F [0x1D] PRINT_EVENT_MESSAGE(message_id=10948*)
    → "Aha! I can feel a faint aura resonating within its slender frrrame."
 10: 0x0422 [0x23] WAIT_FOR_DIALOG_INTERACTION
 11: 0x0423 [0x53] WAIT_SCHEDULER_TASK: Wait for scheduler "tlk0" with entities [EventEntity, EventEntity]
 12: 0x0430 [0x66] LOAD_EXT_SCHEDULER_MAIN: Load scheduler "tlk1" with entities [EventEntity, EventEntity], work=55*
 13: 0x043F [0x01] GOTO 0x04C9
 14: 0x0442 [0x02] IF !(ExtData[1]->WorkLocal[0] == 2*) GOTO 0x047C
 15: 0x044A [0x66] LOAD_EXT_SCHEDULER_MAIN: Load scheduler "tlk0" with entities [EventEntity, EventEntity], work=55*
 16: 0x0459 [0x1D] PRINT_EVENT_MESSAGE(message_id=10949*)
    → "Yes...the haft is noticeably tingling. I'd say you'rrre halfway there!"
 17: 0x045C [0x23] WAIT_FOR_DIALOG_INTERACTION
 18: 0x045D [0x53] WAIT_SCHEDULER_TASK: Wait for scheduler "tlk0" with entities [EventEntity, EventEntity]
 19: 0x046A [0x66] LOAD_EXT_SCHEDULER_MAIN: Load scheduler "tlk1" with entities [EventEntity, EventEntity], work=55*
 20: 0x0479 [0x01] GOTO 0x04C9
 21: 0x047C [0x02] IF !(ExtData[1]->WorkLocal[0] == 3*) GOTO 0x049A
 22: 0x0484 [0x66] LOAD_EXT_SCHEDULER_MAIN: Load scheduler "ure0" with entities [EventEntity, EventEntity], work=8*
 23: 0x0493 [0x1D] PRINT_EVENT_MESSAGE(message_id=10950*)
    → "Amazing! The enerrrgies, once latent, are wholly palpable!"
 24: 0x0496 [0x23] WAIT_FOR_DIALOG_INTERACTION
 25: 0x0497 [0x01] GOTO 0x04C9
 26: 0x049A [0x66] LOAD_EXT_SCHEDULER_MAIN: Load scheduler "tlk0" with entities [EventEntity, EventEntity], work=55*
 27: 0x04A9 [0x1D] PRINT_EVENT_MESSAGE(message_id=10947*)
    → "Mayhap my instructions were unclear. You need to actually use weapon skills. Have you been leaving this heirloom to rrrot in your bags?"
 28: 0x04AC [0x23] WAIT_FOR_DIALOG_INTERACTION
 29: 0x04AD [0x53] WAIT_SCHEDULER_TASK: Wait for scheduler "tlk0" with entities [EventEntity, EventEntity]
 30: 0x04BA [0x66] LOAD_EXT_SCHEDULER_MAIN: Load scheduler "tlk1" with entities [EventEntity, EventEntity], work=55*

SUBROUTINE_04C9:
 31: 0x04C9 [0x1D] PRINT_EVENT_MESSAGE(message_id=10951*)
    → "Purrrform more weapon skills, and I'm sure something amazing will happen!"
 32: 0x04CC [0x23] WAIT_FOR_DIALOG_INTERACTION
 33: 0x04CD [0x1C] WAIT(30* ticks)
 34: 0x04D0 [0x21] END_EVENT
 35: 0x04D1 [0x00] END_REQSTACK()
```

### Event 5096

#### Metadata

| Field        | Value   |
|--------------|---------|
| Entrypoint   | 0x04D2  |
| Data Size    | 1 bytes |
| Instructions | 1       |

```
      00 01 02 03 04 05 06 07  08 09 0A 0B 0C 0D 0E 0F
      -- -- -- -- -- -- -- --  -- -- -- -- -- -- -- --
04D0:       00                                            .             
```

#### Opcodes

```
  0: 0x04D2 [0x00] END_REQSTACK()
```

### Event 5079

#### Metadata

| Field        | Value   |
|--------------|---------|
| Entrypoint   | 0x04D3  |
| Data Size    | 1 bytes |
| Instructions | 1       |

```
      00 01 02 03 04 05 06 07  08 09 0A 0B 0C 0D 0E 0F
      -- -- -- -- -- -- -- --  -- -- -- -- -- -- -- --
04D0:          00                                          .            
```

#### Opcodes

```
  0: 0x04D3 [0x00] END_REQSTACK()
```

### Event 5078

#### Metadata

| Field        | Value    |
|--------------|----------|
| Entrypoint   | 0x04D4   |
| Data Size    | 78 bytes |
| Instructions | 16       |

```
      00 01 02 03 04 05 06 07  08 09 0A 0B 0C 0D 0E 0F
      -- -- -- -- -- -- -- --  -- -- -- -- -- -- -- --
04D0:             1E F0 FF FF  7F 6F 70 4A F0 FF FF 7F      .....opJ....
04E0: F8 FF FF 7F 6F 76 F0 FF  FF 7F 66 00 80 F8 FF FF  ....ov....f.....
04F0: 7F F8 FF FF 7F 74 6C 6B  30 1D 36 80 23 1D 37 80  .....tlk0.6.#.7.
0500: 23 53 F8 FF FF 7F F8 FF  FF 7F 74 6C 6B 30 66 00  #S........tlk0f.
0510: 80 F8 FF FF 7F F8 FF FF  7F 74 6C 6B 31 1C 0C 80  .........tlk1...
0520: 21 00                                             !.              
```

#### Opcodes

```
  0: 0x04D4 [0x1E] EventEntity looks at LocalPlayer and starts talking
  1: 0x04D9 [0x6F] WAIT_FRAME_DELAY: Yield until WaitTime reaches zero
  2: 0x04DA [0x70] WAIT_ENTITY_RENDER_FLAG: Wait while EventEntity->Render.Flags3 bit 2 is set (cancel turn if not)
  3: 0x04DB [0x4A] LocalPlayer looks at EventEntity
  4: 0x04E4 [0x6F] WAIT_FRAME_DELAY: Yield until WaitTime reaches zero
  5: 0x04E5 [0x76] CHECK_ENTITY_RENDER_FLAGS: Wait until LocalPlayer Render.Flags0 and Render.Flags3 conditions are met
  6: 0x04EA [0x66] LOAD_EXT_SCHEDULER_MAIN: Load scheduler "tlk0" with entities [EventEntity, EventEntity], work=55*
  7: 0x04F9 [0x1D] PRINT_EVENT_MESSAGE(message_id=10846*)
    → "You mentioned you found it buried beneath some rrrubble in Dho Gates, no? Then perhaps it is a relic of a battle in years gone by that happened there many centuries past."
  8: 0x04FC [0x23] WAIT_FOR_DIALOG_INTERACTION
  9: 0x04FD [0x1D] PRINT_EVENT_MESSAGE(message_id=10847*)
    → "Of course, no records of such bloodshed exist...so I had to rely on more esoterrric sources. A book of fables, to be precise. But the details seem to fit."
 10: 0x0500 [0x23] WAIT_FOR_DIALOG_INTERACTION
 11: 0x0501 [0x53] WAIT_SCHEDULER_TASK: Wait for scheduler "tlk0" with entities [EventEntity, EventEntity]
 12: 0x050E [0x66] LOAD_EXT_SCHEDULER_MAIN: Load scheduler "tlk1" with entities [EventEntity, EventEntity], work=55*
 13: 0x051D [0x1C] WAIT(30* ticks)
 14: 0x0520 [0x21] END_EVENT
 15: 0x0521 [0x00] END_REQSTACK()
```

### Event 5077

#### Metadata

| Field        | Value     |
|--------------|-----------|
| Entrypoint   | 0x0522    |
| Data Size    | 180 bytes |
| Instructions | 32        |

```
      00 01 02 03 04 05 06 07  08 09 0A 0B 0C 0D 0E 0F
      -- -- -- -- -- -- -- --  -- -- -- -- -- -- -- --
0520:       42 1E F0 FF FF 7F  6F 70 4A F0 FF FF 7F F8    B.....opJ.....
0530: FF FF 7F 6F 76 F0 FF FF  7F 66 21 80 F8 FF FF 7F  ...ov....f!.....
0540: F8 FF FF 7F 74 6C 6B 30  1D 38 80 23 53 F8 FF FF  ....tlk0.8.#S...
0550: 7F F8 FF FF 7F 74 6C 6B  30 66 21 80 F8 FF FF 7F  .....tlk0f!.....
0560: F8 FF FF 7F 74 6C 6B 32  1D 39 80 23 53 F8 FF FF  ....tlk2.9.#S...
0570: 7F F8 FF FF 7F 74 6C 6B  32 66 1A 80 F8 FF FF 7F  .....tlk2f......
0580: F8 FF FF 7F 75 72 65 30  1D 3A 80 23 53 F8 FF FF  ....ure0.:.#S...
0590: 7F F8 FF FF 7F 75 72 65  30 66 00 80 F8 FF FF 7F  .....ure0f......
05A0: F8 FF FF 7F 74 6C 6B 30  1D 36 80 23 1D 37 80 23  ....tlk0.6.#.7.#
05B0: 53 F8 FF FF 7F F8 FF FF  7F 74 6C 6B 30 66 00 80  S........tlk0f..
05C0: F8 FF FF 7F F8 FF FF 7F  74 6C 6B 31 1D 3B 80 23  ........tlk1.;.#
05D0: 1D 3C 80 23 21 00                                 .<.#!.          
```

#### Opcodes

```
  0: 0x0522 [0x42] SET_CLI_EVENT_CANCEL_DATA()
  1: 0x0523 [0x1E] EventEntity looks at LocalPlayer and starts talking
  2: 0x0528 [0x6F] WAIT_FRAME_DELAY: Yield until WaitTime reaches zero
  3: 0x0529 [0x70] WAIT_ENTITY_RENDER_FLAG: Wait while EventEntity->Render.Flags3 bit 2 is set (cancel turn if not)
  4: 0x052A [0x4A] LocalPlayer looks at EventEntity
  5: 0x0533 [0x6F] WAIT_FRAME_DELAY: Yield until WaitTime reaches zero
  6: 0x0534 [0x76] CHECK_ENTITY_RENDER_FLAGS: Wait until LocalPlayer Render.Flags0 and Render.Flags3 conditions are met
  7: 0x0539 [0x66] LOAD_EXT_SCHEDULER_MAIN: Load scheduler "tlk0" with entities [EventEntity, EventEntity], work=50*
  8: 0x0548 [0x1D] PRINT_EVENT_MESSAGE(message_id=10843*)
    → "Why, hello again, <Player>! Rrremember how I was going to research the bell you found? Well, you see..."
  9: 0x054B [0x23] WAIT_FOR_DIALOG_INTERACTION
 10: 0x054C [0x53] WAIT_SCHEDULER_TASK: Wait for scheduler "tlk0" with entities [EventEntity, EventEntity]
 11: 0x0559 [0x66] LOAD_EXT_SCHEDULER_MAIN: Load scheduler "tlk2" with entities [EventEntity, EventEntity], work=50*
 12: 0x0568 [0x1D] PRINT_EVENT_MESSAGE(message_id=10844*)
    → "Oh my! You cerrrtainly did gussy it up while I was knee-deep in books from the historical archives."
 13: 0x056B [0x23] WAIT_FOR_DIALOG_INTERACTION
 14: 0x056C [0x53] WAIT_SCHEDULER_TASK: Wait for scheduler "tlk2" with entities [EventEntity, EventEntity]
 15: 0x0579 [0x66] LOAD_EXT_SCHEDULER_MAIN: Load scheduler "ure0" with entities [EventEntity, EventEntity], work=8*
 16: 0x0588 [0x1D] PRINT_EVENT_MESSAGE(message_id=10845*)
    → "This crrrest is utterly fascinating. Could it be from the age of...? Ah, but forgive me. You didn't come to hear a treatise on ancient symbols."
 17: 0x058B [0x23] WAIT_FOR_DIALOG_INTERACTION
 18: 0x058C [0x53] WAIT_SCHEDULER_TASK: Wait for scheduler "ure0" with entities [EventEntity, EventEntity]
 19: 0x0599 [0x66] LOAD_EXT_SCHEDULER_MAIN: Load scheduler "tlk0" with entities [EventEntity, EventEntity], work=55*
 20: 0x05A8 [0x1D] PRINT_EVENT_MESSAGE(message_id=10846*)
    → "You mentioned you found it buried beneath some rrrubble in Dho Gates, no? Then perhaps it is a relic of a battle in years gone by that happened there many centuries past."
 21: 0x05AB [0x23] WAIT_FOR_DIALOG_INTERACTION
 22: 0x05AC [0x1D] PRINT_EVENT_MESSAGE(message_id=10847*)
    → "Of course, no records of such bloodshed exist...so I had to rely on more esoterrric sources. A book of fables, to be precise. But the details seem to fit."
 23: 0x05AF [0x23] WAIT_FOR_DIALOG_INTERACTION
 24: 0x05B0 [0x53] WAIT_SCHEDULER_TASK: Wait for scheduler "tlk0" with entities [EventEntity, EventEntity]
 25: 0x05BD [0x66] LOAD_EXT_SCHEDULER_MAIN: Load scheduler "tlk1" with entities [EventEntity, EventEntity], work=55*
 26: 0x05CC [0x1D] PRINT_EVENT_MESSAGE(message_id=10848*)
    → "Do you suppose the spirits of the fallen rrreside within its metallic shell? Ugh...my head is beginning to swim."
 27: 0x05CF [0x23] WAIT_FOR_DIALOG_INTERACTION
 28: 0x05D0 [0x1D] PRINT_EVENT_MESSAGE(message_id=10849*)
    → "I need to take a brief rrrespite...should you desire to learn more, I wish you Goddess-speed."
 29: 0x05D3 [0x23] WAIT_FOR_DIALOG_INTERACTION
 30: 0x05D4 [0x21] END_EVENT
 31: 0x05D5 [0x00] END_REQSTACK()
```

### Event 5076

#### Metadata

| Field        | Value    |
|--------------|----------|
| Entrypoint   | 0x05D6   |
| Data Size    | 74 bytes |
| Instructions | 14       |

```
      00 01 02 03 04 05 06 07  08 09 0A 0B 0C 0D 0E 0F
      -- -- -- -- -- -- -- --  -- -- -- -- -- -- -- --
05D0:                   1E F0  FF FF 7F 6F 70 4A F0 FF        .....opJ..
05E0: FF 7F F8 FF FF 7F 6F 76  F0 FF FF 7F 66 00 80 F8  ......ov....f...
05F0: FF FF 7F F8 FF FF 7F 74  6C 6B 30 1D 3D 80 23 53  .......tlk0.=.#S
0600: F8 FF FF 7F F8 FF FF 7F  74 6C 6B 30 66 00 80 F8  ........tlk0f...
0610: FF FF 7F F8 FF FF 7F 74  6C 6B 31 1C 0C 80 21 00  .......tlk1...!.
```

#### Opcodes

```
  0: 0x05D6 [0x1E] EventEntity looks at LocalPlayer and starts talking
  1: 0x05DB [0x6F] WAIT_FRAME_DELAY: Yield until WaitTime reaches zero
  2: 0x05DC [0x70] WAIT_ENTITY_RENDER_FLAG: Wait while EventEntity->Render.Flags3 bit 2 is set (cancel turn if not)
  3: 0x05DD [0x4A] LocalPlayer looks at EventEntity
  4: 0x05E6 [0x6F] WAIT_FRAME_DELAY: Yield until WaitTime reaches zero
  5: 0x05E7 [0x76] CHECK_ENTITY_RENDER_FLAGS: Wait until LocalPlayer Render.Flags0 and Render.Flags3 conditions are met
  6: 0x05EC [0x66] LOAD_EXT_SCHEDULER_MAIN: Load scheduler "tlk0" with entities [EventEntity, EventEntity], work=55*
  7: 0x05FB [0x1D] PRINT_EVENT_MESSAGE(message_id=10824*)
    → "And please, be carrreful should you happen upon a Mithra claiming to be from Zhwa. She'd do anything to get her paws on something so valuable."
  8: 0x05FE [0x23] WAIT_FOR_DIALOG_INTERACTION
  9: 0x05FF [0x53] WAIT_SCHEDULER_TASK: Wait for scheduler "tlk0" with entities [EventEntity, EventEntity]
 10: 0x060C [0x66] LOAD_EXT_SCHEDULER_MAIN: Load scheduler "tlk1" with entities [EventEntity, EventEntity], work=55*
 11: 0x061B [0x1C] WAIT(30* ticks)
 12: 0x061E [0x21] END_EVENT
 13: 0x061F [0x00] END_REQSTACK()
```

### Event 5075

#### Metadata

| Field        | Value     |
|--------------|-----------|
| Entrypoint   | 0x0620    |
| Data Size    | 265 bytes |
| Instructions | 41        |

```
      00 01 02 03 04 05 06 07  08 09 0A 0B 0C 0D 0E 0F
      -- -- -- -- -- -- -- --  -- -- -- -- -- -- -- --
0620: 42 1E F0 FF FF 7F 6F 70  4A F0 FF FF 7F F8 FF FF  B.....opJ.......
0630: 7F 6F 76 F0 FF FF 7F 66  00 80 F8 FF FF 7F F8 FF  .ov....f........
0640: FF 7F 74 6C 6B 30 1D 3E  80 23 53 F8 FF FF 7F F8  ..tlk0.>.#S.....
0650: FF FF 7F 74 6C 6B 30 66  00 80 F8 FF FF 7F F8 FF  ...tlk0f........
0660: FF 7F 74 6C 6B 31 29 08  F0 FF FF 7F 17 66 21 80  ..tlk1)......f!.
0670: F8 FF FF 7F F8 FF FF 7F  74 68 6B 31 1D 3F 80 23  ........thk1.?.#
0680: 53 F8 FF FF 7F F8 FF FF  7F 74 68 6B 31 66 21 80  S........thk1f!.
0690: F8 FF FF 7F F8 FF FF 7F  74 68 6B 32 1D 40 80 23  ........thk2.@.#
06A0: 53 F8 FF FF 7F F8 FF FF  7F 74 68 6B 32 1D 41 80  S........thk2.A.
06B0: 23 66 21 80 F8 FF FF 7F  F8 FF FF 7F 74 6C 6B 30  #f!.........tlk0
06C0: 1D 42 80 23 53 F8 FF FF  7F F8 FF FF 7F 74 6C 6B  .B.#S........tlk
06D0: 30 66 21 80 F8 FF FF 7F  F8 FF FF 7F 74 6C 6B 32  0f!.........tlk2
06E0: 1D 43 80 23 53 F8 FF FF  7F F8 FF FF 7F 74 6C 6B  .C.#S........tlk
06F0: 32 66 00 80 F8 FF FF 7F  F8 FF FF 7F 74 6C 6B 30  2f..........tlk0
0700: 1D 44 80 23 1D 3D 80 23  53 F8 FF FF 7F F8 FF FF  .D.#.=.#S.......
0710: 7F 74 6C 6B 30 66 00 80  F8 FF FF 7F F8 FF FF 7F  .tlk0f..........
0720: 74 6C 6B 31 1C 0C 80 21  00                       tlk1...!.       
```

#### Opcodes

```
  0: 0x0620 [0x42] SET_CLI_EVENT_CANCEL_DATA()
  1: 0x0621 [0x1E] EventEntity looks at LocalPlayer and starts talking
  2: 0x0626 [0x6F] WAIT_FRAME_DELAY: Yield until WaitTime reaches zero
  3: 0x0627 [0x70] WAIT_ENTITY_RENDER_FLAG: Wait while EventEntity->Render.Flags3 bit 2 is set (cancel turn if not)
  4: 0x0628 [0x4A] LocalPlayer looks at EventEntity
  5: 0x0631 [0x6F] WAIT_FRAME_DELAY: Yield until WaitTime reaches zero
  6: 0x0632 [0x76] CHECK_ENTITY_RENDER_FLAGS: Wait until LocalPlayer Render.Flags0 and Render.Flags3 conditions are met
  7: 0x0637 [0x66] LOAD_EXT_SCHEDULER_MAIN: Load scheduler "tlk0" with entities [EventEntity, EventEntity], work=55*
  8: 0x0646 [0x1D] PRINT_EVENT_MESSAGE(message_id=10817*)
    → "A...handbell?"
  9: 0x0649 [0x23] WAIT_FOR_DIALOG_INTERACTION
 10: 0x064A [0x53] WAIT_SCHEDULER_TASK: Wait for scheduler "tlk0" with entities [EventEntity, EventEntity]
 11: 0x0657 [0x66] LOAD_EXT_SCHEDULER_MAIN: Load scheduler "tlk1" with entities [EventEntity, EventEntity], work=55*
 12: 0x0666 [0x29] REQ_SET_WAIT(priority=0x08, entity_id=LocalPlayer, tag_num=0x17)
 13: 0x066D [0x66] LOAD_EXT_SCHEDULER_MAIN: Load scheduler "thk1" with entities [EventEntity, EventEntity], work=50*
 14: 0x067C [0x1D] PRINT_EVENT_MESSAGE(message_id=10818*)
    → "I see. But why would this be sitting in the inner rrrecesses of Dho Gates?"
 15: 0x067F [0x23] WAIT_FOR_DIALOG_INTERACTION
 16: 0x0680 [0x53] WAIT_SCHEDULER_TASK: Wait for scheduler "thk1" with entities [EventEntity, EventEntity]
 17: 0x068D [0x66] LOAD_EXT_SCHEDULER_MAIN: Load scheduler "thk2" with entities [EventEntity, EventEntity], work=50*
 18: 0x069C [0x1D] PRINT_EVENT_MESSAGE(message_id=10819*)
    → "Was it something lost to the ages, or left there deliberrrately? This requires further study in the library."
 19: 0x069F [0x23] WAIT_FOR_DIALOG_INTERACTION
 20: 0x06A0 [0x53] WAIT_SCHEDULER_TASK: Wait for scheduler "thk2" with entities [EventEntity, EventEntity]
 21: 0x06AD [0x1D] PRINT_EVENT_MESSAGE(message_id=10820*)
    → "You may keep the bell in the meantime. Its unique forrrm and metallic composition are enough for me to go on."
 22: 0x06B0 [0x23] WAIT_FOR_DIALOG_INTERACTION
 23: 0x06B1 [0x66] LOAD_EXT_SCHEDULER_MAIN: Load scheduler "tlk0" with entities [EventEntity, EventEntity], work=50*
 24: 0x06C0 [0x1D] PRINT_EVENT_MESSAGE(message_id=10821*)
    → "And I'm not saying that because it looks...crrreepy. Because it doesn't."
 25: 0x06C3 [0x23] WAIT_FOR_DIALOG_INTERACTION
 26: 0x06C4 [0x53] WAIT_SCHEDULER_TASK: Wait for scheduler "tlk0" with entities [EventEntity, EventEntity]
 27: 0x06D1 [0x66] LOAD_EXT_SCHEDULER_MAIN: Load scheduler "tlk2" with entities [EventEntity, EventEntity], work=50*
 28: 0x06E0 [0x1D] PRINT_EVENT_MESSAGE(message_id=10822*)
    → "My memory is near flawless, and thus I do not rrrequire it to be on hand."
 29: 0x06E3 [0x23] WAIT_FOR_DIALOG_INTERACTION
 30: 0x06E4 [0x53] WAIT_SCHEDULER_TASK: Wait for scheduler "tlk2" with entities [EventEntity, EventEntity]
 31: 0x06F1 [0x66] LOAD_EXT_SCHEDULER_MAIN: Load scheduler "tlk0" with entities [EventEntity, EventEntity], work=55*
 32: 0x0700 [0x1D] PRINT_EVENT_MESSAGE(message_id=10823*)
    → "I have but one condition--do not sell it to some unsavory peddler or toss it away like last week's leftover brrread."
 33: 0x0703 [0x23] WAIT_FOR_DIALOG_INTERACTION
 34: 0x0704 [0x1D] PRINT_EVENT_MESSAGE(message_id=10824*)
    → "And please, be carrreful should you happen upon a Mithra claiming to be from Zhwa. She'd do anything to get her paws on something so valuable."
 35: 0x0707 [0x23] WAIT_FOR_DIALOG_INTERACTION
 36: 0x0708 [0x53] WAIT_SCHEDULER_TASK: Wait for scheduler "tlk0" with entities [EventEntity, EventEntity]
 37: 0x0715 [0x66] LOAD_EXT_SCHEDULER_MAIN: Load scheduler "tlk1" with entities [EventEntity, EventEntity], work=55*
 38: 0x0724 [0x1C] WAIT(30* ticks)
 39: 0x0727 [0x21] END_EVENT
 40: 0x0728 [0x00] END_REQSTACK()
```

### Event 5074

#### Metadata

| Field        | Value    |
|--------------|----------|
| Entrypoint   | 0x0729   |
| Data Size    | 78 bytes |
| Instructions | 16       |

```
      00 01 02 03 04 05 06 07  08 09 0A 0B 0C 0D 0E 0F
      -- -- -- -- -- -- -- --  -- -- -- -- -- -- -- --
0720:                             1E F0 FF FF 7F 6F 70           .....op
0730: 4A F0 FF FF 7F F8 FF FF  7F 6F 76 F0 FF FF 7F 66  J........ov....f
0740: 00 80 F8 FF FF 7F F8 FF  FF 7F 74 6C 6B 30 1D 45  ..........tlk0.E
0750: 80 23 1D 46 80 23 53 F8  FF FF 7F F8 FF FF 7F 74  .#.F.#S........t
0760: 6C 6B 30 66 00 80 F8 FF  FF 7F F8 FF FF 7F 74 6C  lk0f..........tl
0770: 6B 31 1C 0C 80 21 00                              k1...!.         
```

#### Opcodes

```
  0: 0x0729 [0x1E] EventEntity looks at LocalPlayer and starts talking
  1: 0x072E [0x6F] WAIT_FRAME_DELAY: Yield until WaitTime reaches zero
  2: 0x072F [0x70] WAIT_ENTITY_RENDER_FLAG: Wait while EventEntity->Render.Flags3 bit 2 is set (cancel turn if not)
  3: 0x0730 [0x4A] LocalPlayer looks at EventEntity
  4: 0x0739 [0x6F] WAIT_FRAME_DELAY: Yield until WaitTime reaches zero
  5: 0x073A [0x76] CHECK_ENTITY_RENDER_FLAGS: Wait until LocalPlayer Render.Flags0 and Render.Flags3 conditions are met
  6: 0x073F [0x66] LOAD_EXT_SCHEDULER_MAIN: Load scheduler "tlk0" with entities [EventEntity, EventEntity], work=55*
  7: 0x074E [0x1D] PRINT_EVENT_MESSAGE(message_id=10809*)
    → "It references certain "forces of darkness" that existed ages ago, with rrruins remaining somewhere in the Dho Gates."
  8: 0x0751 [0x23] WAIT_FOR_DIALOG_INTERACTION
  9: 0x0752 [0x1D] PRINT_EVENT_MESSAGE(message_id=10810*)
    → "I've neverrr been one to give in to fables that easily, but "forces of darkness"? It certainly gives one pause."
 10: 0x0755 [0x23] WAIT_FOR_DIALOG_INTERACTION
 11: 0x0756 [0x53] WAIT_SCHEDULER_TASK: Wait for scheduler "tlk0" with entities [EventEntity, EventEntity]
 12: 0x0763 [0x66] LOAD_EXT_SCHEDULER_MAIN: Load scheduler "tlk1" with entities [EventEntity, EventEntity], work=55*
 13: 0x0772 [0x1C] WAIT(30* ticks)
 14: 0x0775 [0x21] END_EVENT
 15: 0x0776 [0x00] END_REQSTACK()
```

### Event 5073

#### Metadata

| Field        | Value     |
|--------------|-----------|
| Entrypoint   | 0x0777    |
| Data Size    | 311 bytes |
| Instructions | 51        |

```
      00 01 02 03 04 05 06 07  08 09 0A 0B 0C 0D 0E 0F
      -- -- -- -- -- -- -- --  -- -- -- -- -- -- -- --
0770:                      06  01 10 1E F0 FF FF 7F 6F         ........o
0780: 70 4A F0 FF FF 7F F8 FF  FF 7F 6F 76 F0 FF FF 7F  pJ........ov....
0790: 66 00 80 F8 FF FF 7F F8  FF FF 7F 74 6C 6B 30 1D  f..........tlk0.
07A0: 47 80 23 53 F8 FF FF 7F  F8 FF FF 7F 74 6C 6B 30  G.#S........tlk0
07B0: 66 00 80 F8 FF FF 7F F8  FF FF 7F 74 6C 6B 31 1D  f..........tlk1.
07C0: 48 80 23 53 F8 FF FF 7F  F8 FF FF 7F 74 6C 6B 31  H.#S........tlk1
07D0: 66 21 80 F8 FF FF 7F F8  FF FF 7F 74 6C 6B 30 1D  f!.........tlk0.
07E0: 45 80 23 1D 46 80 23 53  F8 FF FF 7F F8 FF FF 7F  E.#.F.#S........
07F0: 74 6C 6B 30 66 21 80 F8  FF FF 7F F8 FF FF 7F 74  tlk0f!.........t
0800: 6C 6B 32 1D 49 80 23 53  F8 FF FF 7F F8 FF FF 7F  lk2.I.#S........
0810: 74 6C 6B 32 24 4A 80 05  80 05 80 25 02 00 10 05  tlk2$J.....%....
0820: 80 00 6F 08 42 66 1A 80  F8 FF FF 7F F8 FF FF 7F  ..o.Bf..........
0830: 75 72 65 30 1D 4B 80 23  1D 4C 80 23 53 F8 FF FF  ure0.K.#.L.#S...
0840: 7F F8 FF FF 7F 75 72 65  30 66 00 80 F8 FF FF 7F  .....ure0f......
0850: F8 FF FF 7F 74 6C 6B 30  1D 4D 80 23 53 F8 FF FF  ....tlk0.M.#S...
0860: 7F F8 FF FF 7F 74 6C 6B  30 05 01 10 01 9A 08 02  .....tlk0.......
0870: 00 10 0D 80 00 9A 08 66  00 80 F8 FF FF 7F F8 FF  .......f........
0880: FF 7F 74 6C 6B 30 1D 4E  80 23 53 F8 FF FF 7F F8  ..tlk0.N.#S.....
0890: FF FF 7F 74 6C 6B 30 01  9A 08 66 00 80 F8 FF FF  ...tlk0...f.....
08A0: 7F F8 FF FF 7F 74 6C 6B  31 1C 0C 80 21 00        .....tlk1...!.  
```

#### Opcodes

```
  0: 0x0777 [0x06] Work_Zone[1] = 0
  1: 0x077A [0x1E] EventEntity looks at LocalPlayer and starts talking
  2: 0x077F [0x6F] WAIT_FRAME_DELAY: Yield until WaitTime reaches zero
  3: 0x0780 [0x70] WAIT_ENTITY_RENDER_FLAG: Wait while EventEntity->Render.Flags3 bit 2 is set (cancel turn if not)
  4: 0x0781 [0x4A] LocalPlayer looks at EventEntity
  5: 0x078A [0x6F] WAIT_FRAME_DELAY: Yield until WaitTime reaches zero
  6: 0x078B [0x76] CHECK_ENTITY_RENDER_FLAGS: Wait until LocalPlayer Render.Flags0 and Render.Flags3 conditions are met
  7: 0x0790 [0x66] LOAD_EXT_SCHEDULER_MAIN: Load scheduler "tlk0" with entities [EventEntity, EventEntity], work=55*
  8: 0x079F [0x1D] PRINT_EVENT_MESSAGE(message_id=10807*)
    → "<Player>! How wonderrrful to see you here! The entire order remains in your debt after all you did to help Sylvie and Lhaiso."
  9: 0x07A2 [0x23] WAIT_FOR_DIALOG_INTERACTION
 10: 0x07A3 [0x53] WAIT_SCHEDULER_TASK: Wait for scheduler "tlk0" with entities [EventEntity, EventEntity]
 11: 0x07B0 [0x66] LOAD_EXT_SCHEDULER_MAIN: Load scheduler "tlk1" with entities [EventEntity, EventEntity], work=55*
 12: 0x07BF [0x1D] PRINT_EVENT_MESSAGE(message_id=10808*)
    → "In fact, your coming could not have been at a more forrrtuitous time. I recently stopped by Celennia Memorial Library and chanced upon a volume of much import."
 13: 0x07C2 [0x23] WAIT_FOR_DIALOG_INTERACTION
 14: 0x07C3 [0x53] WAIT_SCHEDULER_TASK: Wait for scheduler "tlk1" with entities [EventEntity, EventEntity]
 15: 0x07D0 [0x66] LOAD_EXT_SCHEDULER_MAIN: Load scheduler "tlk0" with entities [EventEntity, EventEntity], work=50*
 16: 0x07DF [0x1D] PRINT_EVENT_MESSAGE(message_id=10809*)
    → "It references certain "forces of darkness" that existed ages ago, with rrruins remaining somewhere in the Dho Gates."
 17: 0x07E2 [0x23] WAIT_FOR_DIALOG_INTERACTION
 18: 0x07E3 [0x1D] PRINT_EVENT_MESSAGE(message_id=10810*)
    → "I've neverrr been one to give in to fables that easily, but "forces of darkness"? It certainly gives one pause."
 19: 0x07E6 [0x23] WAIT_FOR_DIALOG_INTERACTION
 20: 0x07E7 [0x53] WAIT_SCHEDULER_TASK: Wait for scheduler "tlk0" with entities [EventEntity, EventEntity]
 21: 0x07F4 [0x66] LOAD_EXT_SCHEDULER_MAIN: Load scheduler "tlk2" with entities [EventEntity, EventEntity], work=50*
 22: 0x0803 [0x1D] PRINT_EVENT_MESSAGE(message_id=10811*)
    → "Could I perhaps trrrouble you to investigate this matter in my stead?"
 23: 0x0806 [0x23] WAIT_FOR_DIALOG_INTERACTION
 24: 0x0807 [0x53] WAIT_SCHEDULER_TASK: Wait for scheduler "tlk2" with entities [EventEntity, EventEntity]
 25: 0x0814 [0x24] CREATE_DIALOG(message_id=10812*, default_option=0*, option_flags=0*)
    → "Will you assist Nhili? [Of course./I've done enough for your order.]"
 26: 0x081B [0x25] WAIT_DIALOG_SELECT()
 27: 0x081C [0x02] IF !(Work_Zone[0] == 0*) GOTO 0x086F
 28: 0x0824 [0x42] SET_CLI_EVENT_CANCEL_DATA()
 29: 0x0825 [0x66] LOAD_EXT_SCHEDULER_MAIN: Load scheduler "ure0" with entities [EventEntity, EventEntity], work=8*
 30: 0x0834 [0x1D] PRINT_EVENT_MESSAGE(message_id=10814*)
    → "You have my grrratitude--though exploration is its own reward."
 31: 0x0837 [0x23] WAIT_FOR_DIALOG_INTERACTION
 32: 0x0838 [0x1D] PRINT_EVENT_MESSAGE(message_id=10815*)
    → "I would go myself, but...I couldn't possibly tearrr myself away from here to go someplace so scar--far away."
 33: 0x083B [0x23] WAIT_FOR_DIALOG_INTERACTION
 34: 0x083C [0x53] WAIT_SCHEDULER_TASK: Wait for scheduler "ure0" with entities [EventEntity, EventEntity]
 35: 0x0849 [0x66] LOAD_EXT_SCHEDULER_MAIN: Load scheduler "tlk0" with entities [EventEntity, EventEntity], work=55*
 36: 0x0858 [0x1D] PRINT_EVENT_MESSAGE(message_id=10816*)
    → "After all, someone must prrrevent the uncouth from bothering Ikhi or Lhaiso."
 37: 0x085B [0x23] WAIT_FOR_DIALOG_INTERACTION
 38: 0x085C [0x53] WAIT_SCHEDULER_TASK: Wait for scheduler "tlk0" with entities [EventEntity, EventEntity]
 39: 0x0869 [0x05] Work_Zone[1] = 1
 40: 0x086C [0x01] GOTO 0x089A
 41: 0x086F [0x02] IF !(Work_Zone[0] == 1*) GOTO 0x089A
 42: 0x0877 [0x66] LOAD_EXT_SCHEDULER_MAIN: Load scheduler "tlk0" with entities [EventEntity, EventEntity], work=55*
 43: 0x0886 [0x1D] PRINT_EVENT_MESSAGE(message_id=10813*)
    → "How unfortunate. Purrrhaps I should ask another."
 44: 0x0889 [0x23] WAIT_FOR_DIALOG_INTERACTION
 45: 0x088A [0x53] WAIT_SCHEDULER_TASK: Wait for scheduler "tlk0" with entities [EventEntity, EventEntity]
 46: 0x0897 [0x01] GOTO 0x089A

SUBROUTINE_089A:
 47: 0x089A [0x66] LOAD_EXT_SCHEDULER_MAIN: Load scheduler "tlk1" with entities [EventEntity, EventEntity], work=55*
 48: 0x08A9 [0x1C] WAIT(30* ticks)
 49: 0x08AC [0x21] END_EVENT
 50: 0x08AD [0x00] END_REQSTACK()
```

### Event 65535.1

#### Metadata

| Field        | Value    |
|--------------|----------|
| Entrypoint   | 0x08AE   |
| Data Size    | 32 bytes |
| Instructions | 4        |

```
      00 01 02 03 04 05 06 07  08 09 0A 0B 0C 0D 0E 0F
      -- -- -- -- -- -- -- --  -- -- -- -- -- -- -- --
08A0:                                            1C 21                .!
08B0: 80 66 1A 80 F8 FF FF 7F  F8 FF FF 7F 61 77 77 30  .f..........aww0
08C0: 53 F8 FF FF 7F F8 FF FF  7F 61 77 77 30 00        S........aww0.  
```

#### Opcodes

```
  0: 0x08AE [0x1C] WAIT(50* ticks)
  1: 0x08B1 [0x66] LOAD_EXT_SCHEDULER_MAIN: Load scheduler "aww0" with entities [EventEntity, EventEntity], work=8*
  2: 0x08C0 [0x53] WAIT_SCHEDULER_TASK: Wait for scheduler "aww0" with entities [EventEntity, EventEntity]
  3: 0x08CD [0x00] END_REQSTACK()
```

### Event 86

#### Metadata

| Field        | Value   |
|--------------|---------|
| Entrypoint   | 0x08CE  |
| Data Size    | 1 bytes |
| Instructions | 1       |

```
      00 01 02 03 04 05 06 07  08 09 0A 0B 0C 0D 0E 0F
      -- -- -- -- -- -- -- --  -- -- -- -- -- -- -- --
08C0:                                            00                   . 
```

#### Opcodes

```
  0: 0x08CE [0x00] END_REQSTACK()
```

### Event 65535.2

#### Metadata

| Field        | Value    |
|--------------|----------|
| Entrypoint   | 0x08CF   |
| Data Size    | 29 bytes |
| Instructions | 3        |

```
      00 01 02 03 04 05 06 07  08 09 0A 0B 0C 0D 0E 0F
      -- -- -- -- -- -- -- --  -- -- -- -- -- -- -- --
08C0:                                               66                 f
08D0: 1A 80 F8 FF FF 7F F8 FF  FF 7F 61 77 77 30 53 F8  ..........aww0S.
08E0: FF FF 7F F8 FF FF 7F 61  77 77 30 00              .......aww0.    
```

#### Opcodes

```
  0: 0x08CF [0x66] LOAD_EXT_SCHEDULER_MAIN: Load scheduler "aww0" with entities [EventEntity, EventEntity], work=8*
  1: 0x08DE [0x53] WAIT_SCHEDULER_TASK: Wait for scheduler "aww0" with entities [EventEntity, EventEntity]
  2: 0x08EB [0x00] END_REQSTACK()
```

### Event 65535.3

#### Metadata

| Field        | Value    |
|--------------|----------|
| Entrypoint   | 0x08EC   |
| Data Size    | 26 bytes |
| Instructions | 6        |

```
      00 01 02 03 04 05 06 07  08 09 0A 0B 0C 0D 0E 0F
      -- -- -- -- -- -- -- --  -- -- -- -- -- -- -- --
08E0:                                      4B E8 10 10              K...
08F0: 01 4F 80 6F 76 E8 10 10  01 6E E8 10 10 01 13 80  .O.ov....n......
0900: 99 E8 10 10 01 00                                 ......          
```

#### Opcodes

```
  0: 0x08EC [0x4B] UPDATE_ENTITY_YAW(entity=Nhili Uvolep (ID: 17830120/0x011010E8), yaw=17.0°*)
  1: 0x08F3 [0x6F] WAIT_FRAME_DELAY: Yield until WaitTime reaches zero
  2: 0x08F4 [0x76] CHECK_ENTITY_RENDER_FLAGS: Wait until Nhili Uvolep (ID: 17830120/0x011010E8) Render.Flags0 and Render.Flags3 conditions are met
  3: 0x08F9 [0x6E] Nhili Uvolep (ID: 17830120/0x011010E8) uses emote 29*
  4: 0x0900 [0x99] Wait for Nhili Uvolep (ID: 17830120/0x011010E8) animation to complete
  5: 0x0905 [0x00] END_REQSTACK()
```

### Event 65535.4

#### Metadata

| Field        | Value    |
|--------------|----------|
| Entrypoint   | 0x0906   |
| Data Size    | 95 bytes |
| Instructions | 17       |

```
      00 01 02 03 04 05 06 07  08 09 0A 0B 0C 0D 0E 0F
      -- -- -- -- -- -- -- --  -- -- -- -- -- -- -- --
0900:                   6E E8  10 10 01 0D 80 99 E8 10        n.........
0910: 10 01 1C 50 80 32 51 80  1F 00 52 80 53 80 05 80  ...P.2Q...R.S...
0920: 1F 01 6F 4A E8 10 10 01  B4 10 10 01 6F 76 E8 10  ..oJ........ov..
0930: 10 01 6E E8 10 10 01 05  80 99 E8 10 10 01 1C 54  ..n............T
0940: 80 2C B4 10 10 01 B4 10  10 01 63 6C 6F 73 53 B4  .,........closS.
0950: 10 10 01 B4 10 10 01 63  6C 6F 73 4A E8 10 10 01  .......closJ....
0960: F0 FF FF 7F 00                                    .....           
```

#### Opcodes

```
  0: 0x0906 [0x6E] Nhili Uvolep (ID: 17830120/0x011010E8) uses emote 1*
  1: 0x090D [0x99] Wait for Nhili Uvolep (ID: 17830120/0x011010E8) animation to complete
  2: 0x0912 [0x1C] WAIT(250* ticks)
  3: 0x0915 [0x32] ExtData[1]->MainSpeed = 13* * 0.1
  4: 0x0918 [0x1F] MOVE_ENTITY: EventEntity moves to X=-0.203*, Z=-7.812*, Y=0.000*
  5: 0x0920 [0x1F] MOVE_ENTITY: Update entity position (mode=1)
  6: 0x0922 [0x6F] WAIT_FRAME_DELAY: Yield until WaitTime reaches zero
  7: 0x0923 [0x4A] Nhili Uvolep (ID: 17830120/0x011010E8) looks at Door: (ID: 17830068/0x011010B4)
  8: 0x092C [0x6F] WAIT_FRAME_DELAY: Yield until WaitTime reaches zero
  9: 0x092D [0x76] CHECK_ENTITY_RENDER_FLAGS: Wait until Nhili Uvolep (ID: 17830120/0x011010E8) Render.Flags0 and Render.Flags3 conditions are met
 10: 0x0932 [0x6E] Nhili Uvolep (ID: 17830120/0x011010E8) uses emote 0*
 11: 0x0939 [0x99] Wait for Nhili Uvolep (ID: 17830120/0x011010E8) animation to complete
 12: 0x093E [0x1C] WAIT(60* ticks)
 13: 0x0941 [0x2C] CREATE_SCHEDULER_TASK: Create scheduler "clos" with entities [Door: (ID: 17830068/0x011010B4), Door: (ID: 17830068/0x011010B4)]
 14: 0x094E [0x53] WAIT_SCHEDULER_TASK: Wait for scheduler "clos" with entities [Door: (ID: 17830068/0x011010B4), Door: (ID: 17830068/0x011010B4)]
 15: 0x095B [0x4A] Nhili Uvolep (ID: 17830120/0x011010E8) looks at LocalPlayer
 16: 0x0964 [0x00] END_REQSTACK()
```

### Event 87

#### Metadata

| Field        | Value    |
|--------------|----------|
| Entrypoint   | 0x0965   |
| Data Size    | 66 bytes |
| Instructions | 13       |

```
      00 01 02 03 04 05 06 07  08 09 0A 0B 0C 0D 0E 0F
      -- -- -- -- -- -- -- --  -- -- -- -- -- -- -- --
0960:                1E F0 FF  FF 7F 6F 70 66 00 80 F8       .....opf...
0970: FF FF 7F F8 FF FF 7F 74  6C 6B 30 03 02 10 55 80  .......tlk0...U.
0980: 1D 56 80 23 53 F8 FF FF  7F F8 FF FF 7F 74 6C 6B  .V.#S........tlk
0990: 30 66 00 80 F8 FF FF 7F  F8 FF FF 7F 74 6C 6B 31  0f..........tlk1
09A0: 1C 0C 80 20 00 21 00                              ... .!.         
```

#### Opcodes

```
  0: 0x0965 [0x1E] EventEntity looks at LocalPlayer and starts talking
  1: 0x096A [0x6F] WAIT_FRAME_DELAY: Yield until WaitTime reaches zero
  2: 0x096B [0x70] WAIT_ENTITY_RENDER_FLAG: Wait while EventEntity->Render.Flags3 bit 2 is set (cancel turn if not)
  3: 0x096C [0x66] LOAD_EXT_SCHEDULER_MAIN: Load scheduler "tlk0" with entities [EventEntity, EventEntity], work=55*
  4: 0x097B [0x03] Work_Zone[2] = 2513*
  5: 0x0980 [0x1D] PRINT_EVENT_MESSAGE(message_id=13725*)
    → "Should you come across $6 in your travels, bring it to Wescolina in Western Adoulin. If anyone can rrreplicate that attire, she can."
  6: 0x0983 [0x23] WAIT_FOR_DIALOG_INTERACTION
  7: 0x0984 [0x53] WAIT_SCHEDULER_TASK: Wait for scheduler "tlk0" with entities [EventEntity, EventEntity]
  8: 0x0991 [0x66] LOAD_EXT_SCHEDULER_MAIN: Load scheduler "tlk1" with entities [EventEntity, EventEntity], work=55*
  9: 0x09A0 [0x1C] WAIT(30* ticks)
 10: 0x09A3 [0x20] SET_CLI_EVENT_UC_FLAG: Unlock player control
 11: 0x09A5 [0x21] END_EVENT
 12: 0x09A6 [0x00] END_REQSTACK()
```

### Event 65535.5

#### Metadata

| Field        | Value    |
|--------------|----------|
| Entrypoint   | 0x09A7   |
| Data Size    | 16 bytes |
| Instructions | 2        |

```
      00 01 02 03 04 05 06 07  08 09 0A 0B 0C 0D 0E 0F
      -- -- -- -- -- -- -- --  -- -- -- -- -- -- -- --
09A0:                      66  21 80 F8 FF FF 7F F8 FF         f!.......
09B0: FF 7F 74 6C 6B 30 00                              ..tlk0.         
```

#### Opcodes

```
  0: 0x09A7 [0x66] LOAD_EXT_SCHEDULER_MAIN: Load scheduler "tlk0" with entities [EventEntity, EventEntity], work=50*
  1: 0x09B6 [0x00] END_REQSTACK()
```

### Event 65535.6

#### Metadata

| Field        | Value    |
|--------------|----------|
| Entrypoint   | 0x09B7   |
| Data Size    | 14 bytes |
| Instructions | 2        |

```
      00 01 02 03 04 05 06 07  08 09 0A 0B 0C 0D 0E 0F
      -- -- -- -- -- -- -- --  -- -- -- -- -- -- -- --
09B0:                      53  F8 FF FF 7F F8 FF FF 7F         S........
09C0: 74 6C 6B 30 00                                    tlk0.           
```

#### Opcodes

```
  0: 0x09B7 [0x53] WAIT_SCHEDULER_TASK: Wait for scheduler "tlk0" with entities [EventEntity, EventEntity]
  1: 0x09C4 [0x00] END_REQSTACK()
```

### Event 65535.7

#### Metadata

| Field        | Value    |
|--------------|----------|
| Entrypoint   | 0x09C5   |
| Data Size    | 16 bytes |
| Instructions | 2        |

```
      00 01 02 03 04 05 06 07  08 09 0A 0B 0C 0D 0E 0F
      -- -- -- -- -- -- -- --  -- -- -- -- -- -- -- --
09C0:                66 21 80  F8 FF FF 7F F8 FF FF 7F       f!.........
09D0: 74 6C 6B 32 00                                    tlk2.           
```

#### Opcodes

```
  0: 0x09C5 [0x66] LOAD_EXT_SCHEDULER_MAIN: Load scheduler "tlk2" with entities [EventEntity, EventEntity], work=50*
  1: 0x09D4 [0x00] END_REQSTACK()
```

### Event 65535.8

#### Metadata

| Field        | Value    |
|--------------|----------|
| Entrypoint   | 0x09D5   |
| Data Size    | 14 bytes |
| Instructions | 2        |

```
      00 01 02 03 04 05 06 07  08 09 0A 0B 0C 0D 0E 0F
      -- -- -- -- -- -- -- --  -- -- -- -- -- -- -- --
09D0:                53 F8 FF  FF 7F F8 FF FF 7F 74 6C       S........tl
09E0: 6B 32 00                                          k2.             
```

#### Opcodes

```
  0: 0x09D5 [0x53] WAIT_SCHEDULER_TASK: Wait for scheduler "tlk2" with entities [EventEntity, EventEntity]
  1: 0x09E2 [0x00] END_REQSTACK()
```

### Event 65535.9

#### Metadata

| Field        | Value    |
|--------------|----------|
| Entrypoint   | 0x09E3   |
| Data Size    | 16 bytes |
| Instructions | 2        |

```
      00 01 02 03 04 05 06 07  08 09 0A 0B 0C 0D 0E 0F
      -- -- -- -- -- -- -- --  -- -- -- -- -- -- -- --
09E0:          66 21 80 F8 FF  FF 7F F8 FF FF 7F 70 61     f!.........pa
09F0: 73 30 00                                          s0.             
```

#### Opcodes

```
  0: 0x09E3 [0x66] LOAD_EXT_SCHEDULER_MAIN: Load scheduler "pas0" with entities [EventEntity, EventEntity], work=50*
  1: 0x09F2 [0x00] END_REQSTACK()
```

### Event 65535.10

#### Metadata

| Field        | Value    |
|--------------|----------|
| Entrypoint   | 0x09F3   |
| Data Size    | 14 bytes |
| Instructions | 2        |

```
      00 01 02 03 04 05 06 07  08 09 0A 0B 0C 0D 0E 0F
      -- -- -- -- -- -- -- --  -- -- -- -- -- -- -- --
09F0:          53 F8 FF FF 7F  F8 FF FF 7F 70 61 73 30     S........pas0
0A00: 00                                                .               
```

#### Opcodes

```
  0: 0x09F3 [0x53] WAIT_SCHEDULER_TASK: Wait for scheduler "pas0" with entities [EventEntity, EventEntity]
  1: 0x0A00 [0x00] END_REQSTACK()
```

### Event 65535.11

#### Metadata

| Field        | Value    |
|--------------|----------|
| Entrypoint   | 0x0A01   |
| Data Size    | 16 bytes |
| Instructions | 2        |

```
      00 01 02 03 04 05 06 07  08 09 0A 0B 0C 0D 0E 0F
      -- -- -- -- -- -- -- --  -- -- -- -- -- -- -- --
0A00:    66 21 80 F8 FF FF 7F  F8 FF FF 7F 74 68 6B 30   f!.........thk0
0A10: 00                                                .               
```

#### Opcodes

```
  0: 0x0A01 [0x66] LOAD_EXT_SCHEDULER_MAIN: Load scheduler "thk0" with entities [EventEntity, EventEntity], work=50*
  1: 0x0A10 [0x00] END_REQSTACK()
```

### Event 65535.12

#### Metadata

| Field        | Value    |
|--------------|----------|
| Entrypoint   | 0x0A11   |
| Data Size    | 14 bytes |
| Instructions | 2        |

```
      00 01 02 03 04 05 06 07  08 09 0A 0B 0C 0D 0E 0F
      -- -- -- -- -- -- -- --  -- -- -- -- -- -- -- --
0A10:    53 F8 FF FF 7F F8 FF  FF 7F 74 68 6B 30 00      S........thk0. 
```

#### Opcodes

```
  0: 0x0A11 [0x53] WAIT_SCHEDULER_TASK: Wait for scheduler "thk0" with entities [EventEntity, EventEntity]
  1: 0x0A1E [0x00] END_REQSTACK()
```

### Event 65535.13

#### Metadata

| Field        | Value    |
|--------------|----------|
| Entrypoint   | 0x0A1F   |
| Data Size    | 16 bytes |
| Instructions | 2        |

```
      00 01 02 03 04 05 06 07  08 09 0A 0B 0C 0D 0E 0F
      -- -- -- -- -- -- -- --  -- -- -- -- -- -- -- --
0A10:                                               66                 f
0A20: 21 80 F8 FF FF 7F F8 FF  FF 7F 74 68 6B 31 00     !.........thk1. 
```

#### Opcodes

```
  0: 0x0A1F [0x66] LOAD_EXT_SCHEDULER_MAIN: Load scheduler "thk1" with entities [EventEntity, EventEntity], work=50*
  1: 0x0A2E [0x00] END_REQSTACK()
```

### Event 65535.14

#### Metadata

| Field        | Value    |
|--------------|----------|
| Entrypoint   | 0x0A2F   |
| Data Size    | 14 bytes |
| Instructions | 2        |

```
      00 01 02 03 04 05 06 07  08 09 0A 0B 0C 0D 0E 0F
      -- -- -- -- -- -- -- --  -- -- -- -- -- -- -- --
0A20:                                               53                 S
0A30: F8 FF FF 7F F8 FF FF 7F  74 68 6B 31 00           ........thk1.   
```

#### Opcodes

```
  0: 0x0A2F [0x53] WAIT_SCHEDULER_TASK: Wait for scheduler "thk1" with entities [EventEntity, EventEntity]
  1: 0x0A3C [0x00] END_REQSTACK()
```

### Event 65535.15

#### Metadata

| Field        | Value    |
|--------------|----------|
| Entrypoint   | 0x0A3D   |
| Data Size    | 16 bytes |
| Instructions | 2        |

```
      00 01 02 03 04 05 06 07  08 09 0A 0B 0C 0D 0E 0F
      -- -- -- -- -- -- -- --  -- -- -- -- -- -- -- --
0A30:                                         66 21 80               f!.
0A40: F8 FF FF 7F F8 FF FF 7F  74 68 6B 32 00           ........thk2.   
```

#### Opcodes

```
  0: 0x0A3D [0x66] LOAD_EXT_SCHEDULER_MAIN: Load scheduler "thk2" with entities [EventEntity, EventEntity], work=50*
  1: 0x0A4C [0x00] END_REQSTACK()
```

### Event 65535.16

#### Metadata

| Field        | Value    |
|--------------|----------|
| Entrypoint   | 0x0A4D   |
| Data Size    | 14 bytes |
| Instructions | 2        |

```
      00 01 02 03 04 05 06 07  08 09 0A 0B 0C 0D 0E 0F
      -- -- -- -- -- -- -- --  -- -- -- -- -- -- -- --
0A40:                                         53 F8 FF               S..
0A50: FF 7F F8 FF FF 7F 74 68  6B 32 00                 ......thk2.     
```

#### Opcodes

```
  0: 0x0A4D [0x53] WAIT_SCHEDULER_TASK: Wait for scheduler "thk2" with entities [EventEntity, EventEntity]
  1: 0x0A5A [0x00] END_REQSTACK()
```

### Event 65535.17

#### Metadata

| Field        | Value    |
|--------------|----------|
| Entrypoint   | 0x0A5B   |
| Data Size    | 16 bytes |
| Instructions | 2        |

```
      00 01 02 03 04 05 06 07  08 09 0A 0B 0C 0D 0E 0F
      -- -- -- -- -- -- -- --  -- -- -- -- -- -- -- --
0A50:                                   66 57 80 F8 FF             fW...
0A60: FF 7F F8 FF FF 7F 64 69  73 30 00                 ......dis0.     
```

#### Opcodes

```
  0: 0x0A5B [0x66] LOAD_EXT_SCHEDULER_MAIN: Load scheduler "dis0" with entities [EventEntity, EventEntity], work=52*
  1: 0x0A6A [0x00] END_REQSTACK()
```

### Event 65535.18

#### Metadata

| Field        | Value    |
|--------------|----------|
| Entrypoint   | 0x0A6B   |
| Data Size    | 14 bytes |
| Instructions | 2        |

```
      00 01 02 03 04 05 06 07  08 09 0A 0B 0C 0D 0E 0F
      -- -- -- -- -- -- -- --  -- -- -- -- -- -- -- --
0A60:                                   53 F8 FF FF 7F             S....
0A70: F8 FF FF 7F 64 69 73 30  00                       ....dis0.       
```

#### Opcodes

```
  0: 0x0A6B [0x53] WAIT_SCHEDULER_TASK: Wait for scheduler "dis0" with entities [EventEntity, EventEntity]
  1: 0x0A78 [0x00] END_REQSTACK()
```

### Event 65535.19

#### Metadata

| Field        | Value    |
|--------------|----------|
| Entrypoint   | 0x0A79   |
| Data Size    | 16 bytes |
| Instructions | 2        |

```
      00 01 02 03 04 05 06 07  08 09 0A 0B 0C 0D 0E 0F
      -- -- -- -- -- -- -- --  -- -- -- -- -- -- -- --
0A70:                             66 57 80 F8 FF FF 7F           fW.....
0A80: F8 FF FF 7F 74 6C 63 30  00                       ....tlc0.       
```

#### Opcodes

```
  0: 0x0A79 [0x66] LOAD_EXT_SCHEDULER_MAIN: Load scheduler "tlc0" with entities [EventEntity, EventEntity], work=52*
  1: 0x0A88 [0x00] END_REQSTACK()
```

### Event 65535.20

#### Metadata

| Field        | Value    |
|--------------|----------|
| Entrypoint   | 0x0A89   |
| Data Size    | 14 bytes |
| Instructions | 2        |

```
      00 01 02 03 04 05 06 07  08 09 0A 0B 0C 0D 0E 0F
      -- -- -- -- -- -- -- --  -- -- -- -- -- -- -- --
0A80:                             53 F8 FF FF 7F F8 FF           S......
0A90: FF 7F 74 6C 63 30 00                              ..tlc0.         
```

#### Opcodes

```
  0: 0x0A89 [0x53] WAIT_SCHEDULER_TASK: Wait for scheduler "tlc0" with entities [EventEntity, EventEntity]
  1: 0x0A96 [0x00] END_REQSTACK()
```

### Event 65535.21

#### Metadata

| Field        | Value    |
|--------------|----------|
| Entrypoint   | 0x0A97   |
| Data Size    | 16 bytes |
| Instructions | 2        |

```
      00 01 02 03 04 05 06 07  08 09 0A 0B 0C 0D 0E 0F
      -- -- -- -- -- -- -- --  -- -- -- -- -- -- -- --
0A90:                      66  57 80 F8 FF FF 7F F8 FF         fW.......
0AA0: FF 7F 74 6C 63 31 00                              ..tlc1.         
```

#### Opcodes

```
  0: 0x0A97 [0x66] LOAD_EXT_SCHEDULER_MAIN: Load scheduler "tlc1" with entities [EventEntity, EventEntity], work=52*
  1: 0x0AA6 [0x00] END_REQSTACK()
```

### Event 65535.22

#### Metadata

| Field        | Value    |
|--------------|----------|
| Entrypoint   | 0x0AA7   |
| Data Size    | 14 bytes |
| Instructions | 2        |

```
      00 01 02 03 04 05 06 07  08 09 0A 0B 0C 0D 0E 0F
      -- -- -- -- -- -- -- --  -- -- -- -- -- -- -- --
0AA0:                      53  F8 FF FF 7F F8 FF FF 7F         S........
0AB0: 74 6C 63 31 00                                    tlc1.           
```

#### Opcodes

```
  0: 0x0AA7 [0x53] WAIT_SCHEDULER_TASK: Wait for scheduler "tlc1" with entities [EventEntity, EventEntity]
  1: 0x0AB4 [0x00] END_REQSTACK()
```

### Event 65535.23

#### Metadata

| Field        | Value    |
|--------------|----------|
| Entrypoint   | 0x0AB5   |
| Data Size    | 16 bytes |
| Instructions | 2        |

```
      00 01 02 03 04 05 06 07  08 09 0A 0B 0C 0D 0E 0F
      -- -- -- -- -- -- -- --  -- -- -- -- -- -- -- --
0AB0:                66 58 80  F8 FF FF 7F F8 FF FF 7F       fX.........
0AC0: 74 6C 62 31 00                                    tlb1.           
```

#### Opcodes

```
  0: 0x0AB5 [0x66] LOAD_EXT_SCHEDULER_MAIN: Load scheduler "tlb1" with entities [EventEntity, EventEntity], work=53*
  1: 0x0AC4 [0x00] END_REQSTACK()
```

### Event 65535.24

#### Metadata

| Field        | Value    |
|--------------|----------|
| Entrypoint   | 0x0AC5   |
| Data Size    | 14 bytes |
| Instructions | 2        |

```
      00 01 02 03 04 05 06 07  08 09 0A 0B 0C 0D 0E 0F
      -- -- -- -- -- -- -- --  -- -- -- -- -- -- -- --
0AC0:                53 F8 FF  FF 7F F8 FF FF 7F 74 6C       S........tl
0AD0: 62 31 00                                          b1.             
```

#### Opcodes

```
  0: 0x0AC5 [0x53] WAIT_SCHEDULER_TASK: Wait for scheduler "tlb1" with entities [EventEntity, EventEntity]
  1: 0x0AD2 [0x00] END_REQSTACK()
```

### Event 65535.25

#### Metadata

| Field        | Value    |
|--------------|----------|
| Entrypoint   | 0x0AD3   |
| Data Size    | 16 bytes |
| Instructions | 2        |

```
      00 01 02 03 04 05 06 07  08 09 0A 0B 0C 0D 0E 0F
      -- -- -- -- -- -- -- --  -- -- -- -- -- -- -- --
0AD0:          66 58 80 F8 FF  FF 7F F8 FF FF 7F 74 6C     fX.........tl
0AE0: 62 32 00                                          b2.             
```

#### Opcodes

```
  0: 0x0AD3 [0x66] LOAD_EXT_SCHEDULER_MAIN: Load scheduler "tlb2" with entities [EventEntity, EventEntity], work=53*
  1: 0x0AE2 [0x00] END_REQSTACK()
```

### Event 65535.26

#### Metadata

| Field        | Value    |
|--------------|----------|
| Entrypoint   | 0x0AE3   |
| Data Size    | 14 bytes |
| Instructions | 2        |

```
      00 01 02 03 04 05 06 07  08 09 0A 0B 0C 0D 0E 0F
      -- -- -- -- -- -- -- --  -- -- -- -- -- -- -- --
0AE0:          53 F8 FF FF 7F  F8 FF FF 7F 74 6C 62 32     S........tlb2
0AF0: 00                                                .               
```

#### Opcodes

```
  0: 0x0AE3 [0x53] WAIT_SCHEDULER_TASK: Wait for scheduler "tlb2" with entities [EventEntity, EventEntity]
  1: 0x0AF0 [0x00] END_REQSTACK()
```

### Event 65535.27

#### Metadata

| Field        | Value    |
|--------------|----------|
| Entrypoint   | 0x0AF1   |
| Data Size    | 16 bytes |
| Instructions | 2        |

```
      00 01 02 03 04 05 06 07  08 09 0A 0B 0C 0D 0E 0F
      -- -- -- -- -- -- -- --  -- -- -- -- -- -- -- --
0AF0:    66 1A 80 F8 FF FF 7F  F8 FF FF 7F 61 77 77 30   f..........aww0
0B00: 00                                                .               
```

#### Opcodes

```
  0: 0x0AF1 [0x66] LOAD_EXT_SCHEDULER_MAIN: Load scheduler "aww0" with entities [EventEntity, EventEntity], work=8*
  1: 0x0B00 [0x00] END_REQSTACK()
```

### Event 65535.28

#### Metadata

| Field        | Value    |
|--------------|----------|
| Entrypoint   | 0x0B01   |
| Data Size    | 14 bytes |
| Instructions | 2        |

```
      00 01 02 03 04 05 06 07  08 09 0A 0B 0C 0D 0E 0F
      -- -- -- -- -- -- -- --  -- -- -- -- -- -- -- --
0B00:    53 F8 FF FF 7F F8 FF  FF 7F 61 77 77 30 00      S........aww0. 
```

#### Opcodes

```
  0: 0x0B01 [0x53] WAIT_SCHEDULER_TASK: Wait for scheduler "aww0" with entities [EventEntity, EventEntity]
  1: 0x0B0E [0x00] END_REQSTACK()
```

### Event 65535.29

#### Metadata

| Field        | Value    |
|--------------|----------|
| Entrypoint   | 0x0B0F   |
| Data Size    | 16 bytes |
| Instructions | 2        |

```
      00 01 02 03 04 05 06 07  08 09 0A 0B 0C 0D 0E 0F
      -- -- -- -- -- -- -- --  -- -- -- -- -- -- -- --
0B00:                                               66                 f
0B10: 1A 80 F8 FF FF 7F F8 FF  FF 7F 61 6E 67 30 00     ..........ang0. 
```

#### Opcodes

```
  0: 0x0B0F [0x66] LOAD_EXT_SCHEDULER_MAIN: Load scheduler "ang0" with entities [EventEntity, EventEntity], work=8*
  1: 0x0B1E [0x00] END_REQSTACK()
```

### Event 65535.30

#### Metadata

| Field        | Value    |
|--------------|----------|
| Entrypoint   | 0x0B1F   |
| Data Size    | 14 bytes |
| Instructions | 2        |

```
      00 01 02 03 04 05 06 07  08 09 0A 0B 0C 0D 0E 0F
      -- -- -- -- -- -- -- --  -- -- -- -- -- -- -- --
0B10:                                               53                 S
0B20: F8 FF FF 7F F8 FF FF 7F  61 6E 67 30 00           ........ang0.   
```

#### Opcodes

```
  0: 0x0B1F [0x53] WAIT_SCHEDULER_TASK: Wait for scheduler "ang0" with entities [EventEntity, EventEntity]
  1: 0x0B2C [0x00] END_REQSTACK()
```

### Event 65535.31

#### Metadata

| Field        | Value    |
|--------------|----------|
| Entrypoint   | 0x0B2D   |
| Data Size    | 16 bytes |
| Instructions | 2        |

```
      00 01 02 03 04 05 06 07  08 09 0A 0B 0C 0D 0E 0F
      -- -- -- -- -- -- -- --  -- -- -- -- -- -- -- --
0B20:                                         66 1A 80               f..
0B30: F8 FF FF 7F F8 FF FF 7F  75 72 65 30 00           ........ure0.   
```

#### Opcodes

```
  0: 0x0B2D [0x66] LOAD_EXT_SCHEDULER_MAIN: Load scheduler "ure0" with entities [EventEntity, EventEntity], work=8*
  1: 0x0B3C [0x00] END_REQSTACK()
```

### Event 65535.32

#### Metadata

| Field        | Value    |
|--------------|----------|
| Entrypoint   | 0x0B3D   |
| Data Size    | 14 bytes |
| Instructions | 2        |

```
      00 01 02 03 04 05 06 07  08 09 0A 0B 0C 0D 0E 0F
      -- -- -- -- -- -- -- --  -- -- -- -- -- -- -- --
0B30:                                         53 F8 FF               S..
0B40: FF 7F F8 FF FF 7F 75 72  65 30 00                 ......ure0.     
```

#### Opcodes

```
  0: 0x0B3D [0x53] WAIT_SCHEDULER_TASK: Wait for scheduler "ure0" with entities [EventEntity, EventEntity]
  1: 0x0B4A [0x00] END_REQSTACK()
```

### Event 545

#### Metadata

| Field        | Value    |
|--------------|----------|
| Entrypoint   | 0x0B4B   |
| Data Size    | 47 bytes |
| Instructions | 11       |

```
      00 01 02 03 04 05 06 07  08 09 0A 0B 0C 0D 0E 0F
      -- -- -- -- -- -- -- --  -- -- -- -- -- -- -- --
0B40:                                   1E F0 FF FF 7F             .....
0B50: 6F 70 66 00 80 F8 FF FF  7F F8 FF FF 7F 74 6C 6B  opf..........tlk
0B60: 30 1D 59 80 23 1D 5A 80  23 66 00 80 F8 FF FF 7F  0.Y.#.Z.#f......
0B70: F8 FF FF 7F 74 6C 6B 31  21 00                    ....tlk1!.      
```

#### Opcodes

```
  0: 0x0B4B [0x1E] EventEntity looks at LocalPlayer and starts talking
  1: 0x0B50 [0x6F] WAIT_FRAME_DELAY: Yield until WaitTime reaches zero
  2: 0x0B51 [0x70] WAIT_ENTITY_RENDER_FLAG: Wait while EventEntity->Render.Flags3 bit 2 is set (cancel turn if not)
  3: 0x0B52 [0x66] LOAD_EXT_SCHEDULER_MAIN: Load scheduler "tlk0" with entities [EventEntity, EventEntity], work=55*
  4: 0x0B61 [0x1D] PRINT_EVENT_MESSAGE(message_id=10503*)
    → "You're damn right this estate belongs to an important person! Just look, it's purrrched upon a hill that overlooks Eastern Adoulin!"
  5: 0x0B64 [0x23] WAIT_FOR_DIALOG_INTERACTION
  6: 0x0B65 [0x1D] PRINT_EVENT_MESSAGE(message_id=10504*)
    → "This grrrand abode is actually the home of Ikhi Askamot, our minister of education. She's famous not only for her political role, but also because many claim she's the rrreincarnation of legendary geomancer Sih Renaye."
  7: 0x0B68 [0x23] WAIT_FOR_DIALOG_INTERACTION
  8: 0x0B69 [0x66] LOAD_EXT_SCHEDULER_MAIN: Load scheduler "tlk1" with entities [EventEntity, EventEntity], work=55*
  9: 0x0B78 [0x21] END_EVENT
 10: 0x0B79 [0x00] END_REQSTACK()
```

### Event 2516

#### Metadata

| Field        | Value    |
|--------------|----------|
| Entrypoint   | 0x0B7A   |
| Data Size    | 68 bytes |
| Instructions | 22       |

```
      00 01 02 03 04 05 06 07  08 09 0A 0B 0C 0D 0E 0F
      -- -- -- -- -- -- -- --  -- -- -- -- -- -- -- --
0B70:                                1E F0 FF FF 7F 42            .....B
0B80: 6F 70 66 00 80 F8 FF FF  7F F8 FF FF 7F 74 6C 6B  opf..........tlk
0B90: 30 1D 5B 80 23 1D 5C 80  23 1D 5D 80 23 1D 5E 80  0.[.#.\.#.].#.^.
0BA0: 23 1D 5F 80 23 1D 60 80  23 1D 61 80 23 66 00 80  #._.#.`.#.a.#f..
0BB0: F8 FF FF 7F F8 FF FF 7F  74 6C 6B 31 21 00        ........tlk1!.  
```

#### Opcodes

```
  0: 0x0B7A [0x1E] EventEntity looks at LocalPlayer and starts talking
  1: 0x0B7F [0x42] SET_CLI_EVENT_CANCEL_DATA()
  2: 0x0B80 [0x6F] WAIT_FRAME_DELAY: Yield until WaitTime reaches zero
  3: 0x0B81 [0x70] WAIT_ENTITY_RENDER_FLAG: Wait while EventEntity->Render.Flags3 bit 2 is set (cancel turn if not)
  4: 0x0B82 [0x66] LOAD_EXT_SCHEDULER_MAIN: Load scheduler "tlk0" with entities [EventEntity, EventEntity], work=55*
  5: 0x0B91 [0x1D] PRINT_EVENT_MESSAGE(message_id=7896*)
    → "I suppose you have business with Ikhi Askamot, ministerrr of education?"
  6: 0x0B94 [0x23] WAIT_FOR_DIALOG_INTERACTION
  7: 0x0B95 [0x1D] PRINT_EVENT_MESSAGE(message_id=7897*)
    → "Making the rrrounds tooth and claw, are you?"
  8: 0x0B98 [0x23] WAIT_FOR_DIALOG_INTERACTION
  9: 0x0B99 [0x1D] PRINT_EVENT_MESSAGE(message_id=7898*)
    → "There's been no suspicious activity in this parrrt of town."
 10: 0x0B9C [0x23] WAIT_FOR_DIALOG_INTERACTION
 11: 0x0B9D [0x1D] PRINT_EVENT_MESSAGE(message_id=7899*)
    → "Hmm? The minister?"
 12: 0x0BA0 [0x23] WAIT_FOR_DIALOG_INTERACTION
 13: 0x0BA1 [0x1D] PRINT_EVENT_MESSAGE(message_id=7900*)
    → "I'm afrrraid she's not in at the moment. One of the other ministers has their paws on her."
 14: 0x0BA4 [0x23] WAIT_FOR_DIALOG_INTERACTION
 15: 0x0BA5 [0x1D] PRINT_EVENT_MESSAGE(message_id=7901*)
    → "Easterrrn Adoulin is always busy with the ministers coming and going from their residences. You'd be hard-pressed to catch one of them in their homes."
 16: 0x0BA8 [0x23] WAIT_FOR_DIALOG_INTERACTION
 17: 0x0BA9 [0x1D] PRINT_EVENT_MESSAGE(message_id=7902*)
    → "Guarding a minister's mansion may not be very glorrrious, but we take pride in it nonetheless!"
 18: 0x0BAC [0x23] WAIT_FOR_DIALOG_INTERACTION
 19: 0x0BAD [0x66] LOAD_EXT_SCHEDULER_MAIN: Load scheduler "tlk1" with entities [EventEntity, EventEntity], work=55*
 20: 0x0BBC [0x21] END_EVENT
 21: 0x0BBD [0x00] END_REQSTACK()
```

### Event 45

#### Metadata

| Field        | Value    |
|--------------|----------|
| Entrypoint   | 0x0BBE   |
| Data Size    | 48 bytes |
| Instructions | 12       |

```
      00 01 02 03 04 05 06 07  08 09 0A 0B 0C 0D 0E 0F
      -- -- -- -- -- -- -- --  -- -- -- -- -- -- -- --
0BB0:                                            42 1E                B.
0BC0: F0 FF FF 7F 6F 70 66 00  80 F8 FF FF 7F F8 FF FF  ....opf.........
0BD0: 7F 74 6C 6B 30 1D 62 80  23 1D 63 80 23 66 00 80  .tlk0.b.#.c.#f..
0BE0: F8 FF FF 7F F8 FF FF 7F  74 6C 6B 31 21 00        ........tlk1!.  
```

#### Opcodes

```
  0: 0x0BBE [0x42] SET_CLI_EVENT_CANCEL_DATA()
  1: 0x0BBF [0x1E] EventEntity looks at LocalPlayer and starts talking
  2: 0x0BC4 [0x6F] WAIT_FRAME_DELAY: Yield until WaitTime reaches zero
  3: 0x0BC5 [0x70] WAIT_ENTITY_RENDER_FLAG: Wait while EventEntity->Render.Flags3 bit 2 is set (cancel turn if not)
  4: 0x0BC6 [0x66] LOAD_EXT_SCHEDULER_MAIN: Load scheduler "tlk0" with entities [EventEntity, EventEntity], work=55*
  5: 0x0BD5 [0x1D] PRINT_EVENT_MESSAGE(message_id=8119*)
    → "Worrrking for the library, are you? Well, let me see what you've got for me."
  6: 0x0BD8 [0x23] WAIT_FOR_DIALOG_INTERACTION
  7: 0x0BD9 [0x1D] PRINT_EVENT_MESSAGE(message_id=8120*)
    → "...There's something new about Ikhi Askamot that's not listed in the file. Herrre, let me add it for you. Enjoy."
  8: 0x0BDC [0x23] WAIT_FOR_DIALOG_INTERACTION
  9: 0x0BDD [0x66] LOAD_EXT_SCHEDULER_MAIN: Load scheduler "tlk1" with entities [EventEntity, EventEntity], work=55*
 10: 0x0BEC [0x21] END_EVENT
 11: 0x0BED [0x00] END_REQSTACK()
```

### Event 34

#### Metadata

| Field        | Value   |
|--------------|---------|
| Entrypoint   | 0x0BEE  |
| Data Size    | 1 bytes |
| Instructions | 1       |

```
      00 01 02 03 04 05 06 07  08 09 0A 0B 0C 0D 0E 0F
      -- -- -- -- -- -- -- --  -- -- -- -- -- -- -- --
0BE0:                                            00                   . 
```

#### Opcodes

```
  0: 0x0BEE [0x00] END_REQSTACK()
```

### Event 65535.33

#### Metadata

| Field        | Value    |
|--------------|----------|
| Entrypoint   | 0x0BEF   |
| Data Size    | 14 bytes |
| Instructions | 4        |

```
      00 01 02 03 04 05 06 07  08 09 0A 0B 0C 0D 0E 0F
      -- -- -- -- -- -- -- --  -- -- -- -- -- -- -- --
0BE0:                                               32                 2
0BF0: 51 80 1F 00 64 80 65 80  66 80 1F 01 00           Q...d.e.f....   
```

#### Opcodes

```
  0: 0x0BEF [0x32] ExtData[1]->MainSpeed = 13* * 0.1
  1: 0x0BF2 [0x1F] MOVE_ENTITY: EventEntity moves to X=23.718*, Z=33.221*, Y=-22.148*
  2: 0x0BFA [0x1F] MOVE_ENTITY: Update entity position (mode=1)
  3: 0x0BFC [0x00] END_REQSTACK()
```

### Event 35

#### Metadata

| Field        | Value    |
|--------------|----------|
| Entrypoint   | 0x0BFD   |
| Data Size    | 53 bytes |
| Instructions | 14       |

```
      00 01 02 03 04 05 06 07  08 09 0A 0B 0C 0D 0E 0F
      -- -- -- -- -- -- -- --  -- -- -- -- -- -- -- --
0BF0:                                         1E F0 FF               ...
0C00: FF 7F 6F 70 66 00 80 F8  FF FF 7F F8 FF FF 7F 74  ..opf..........t
0C10: 6C 6B 30 1D 67 80 23 1D  68 80 23 1D 69 80 23 66  lk0.g.#.h.#.i.#f
0C20: 00 80 F8 FF FF 7F F8 FF  FF 7F 74 6C 6B 31 20 00  ..........tlk1 .
0C30: 21 00                                             !.              
```

#### Opcodes

```
  0: 0x0BFD [0x1E] EventEntity looks at LocalPlayer and starts talking
  1: 0x0C02 [0x6F] WAIT_FRAME_DELAY: Yield until WaitTime reaches zero
  2: 0x0C03 [0x70] WAIT_ENTITY_RENDER_FLAG: Wait while EventEntity->Render.Flags3 bit 2 is set (cancel turn if not)
  3: 0x0C04 [0x66] LOAD_EXT_SCHEDULER_MAIN: Load scheduler "tlk0" with entities [EventEntity, EventEntity], work=55*
  4: 0x0C13 [0x1D] PRINT_EVENT_MESSAGE(message_id=10586*)
    → "Sylvie's quite brrrash to head to Morimar Basalt Fields all by her lonesome. It would be terrible if some ill fate were to befall her, too."
  5: 0x0C16 [0x23] WAIT_FOR_DIALOG_INTERACTION
  6: 0x0C17 [0x1D] PRINT_EVENT_MESSAGE(message_id=10587*)
    → "Lhaiso has ordered you to go find her fatherrr, Hostenn. Her wishes must be respected."
  7: 0x0C1A [0x23] WAIT_FOR_DIALOG_INTERACTION
  8: 0x0C1B [0x1D] PRINT_EVENT_MESSAGE(message_id=10588*)
    → "And if you are a pioneerrr, you must be intimately familiar with the area. The frontier station there can surely update you on the situation."
  9: 0x0C1E [0x23] WAIT_FOR_DIALOG_INTERACTION
 10: 0x0C1F [0x66] LOAD_EXT_SCHEDULER_MAIN: Load scheduler "tlk1" with entities [EventEntity, EventEntity], work=55*
 11: 0x0C2E [0x20] SET_CLI_EVENT_UC_FLAG: Unlock player control
 12: 0x0C30 [0x21] END_EVENT
 13: 0x0C31 [0x00] END_REQSTACK()
```

### Event 36

#### Metadata

| Field        | Value    |
|--------------|----------|
| Entrypoint   | 0x0C32   |
| Data Size    | 49 bytes |
| Instructions | 12       |

```
      00 01 02 03 04 05 06 07  08 09 0A 0B 0C 0D 0E 0F
      -- -- -- -- -- -- -- --  -- -- -- -- -- -- -- --
