# 17830001

## Common Data

| Field            | Value                     |
|------------------|---------------------------|
| Zone             | Eastern Adoulin (ID: 257) |
| Block Size       | 10964 bytes               |
| Total Events     | 9                         |
| References Count | 217                       |

## List of Events

| Event ID              | Entrypoint   |   Size |   Instructions |
|-----------------------|--------------|--------|----------------|
| [65535](#event-65535) | 0x0000       |      1 |              1 |
| [27](#event-27)       | 0x0001       |     41 |             11 |
| [23](#event-23)       | 0x002A       |   1735 |            214 |
| [24](#event-24)       | 0x06F1       |    553 |             81 |
| [25](#event-25)       | 0x091A       |     97 |             17 |
| [26](#event-26)       | 0x097B       |   4179 |            518 |
| [29](#event-29)       | 0x19CE       |    116 |             20 |
| [28](#event-28)       | 0x1A42       |     25 |              7 |
| [30](#event-30)       | 0x1A5B       |   3295 |            542 |

## DAT References (imed_data)

|   Index | Hex Value   |   Dec Value |
|---------|-------------|-------------|
|       0 | 0x3111      |       12561 |
|       1 | 0x3112      |       12562 |
|       2 | 0x3113      |       12563 |
|       3 | 0x0013      |          19 |
|       4 | 0x0059      |          89 |
|       5 | 0xFFFFAF5B  |  4294946651 |
|       6 | 0xFFFFD351  |  4294955857 |
|       7 | 0x0934      |        2356 |
|       8 | 0xFFFFF91A  |  4294965530 |
|       9 | 0xFFFFB3DA  |  4294947802 |
|      10 | 0x07DF      |        2015 |
|      11 | 0x001E      |          30 |
|      12 | 0x0233      |         563 |
|      13 | 0x0000      |           0 |
|      14 | 0x001D      |          29 |
|      15 | 0x0020      |          32 |
|      16 | 0x0078      |         120 |
|      17 | 0x3114      |       12564 |
|      18 | 0x3115      |       12565 |
|      19 | 0x0007      |           7 |
|      20 | 0x005A      |          90 |
|      21 | 0x3116      |       12566 |
|      22 | 0x0001      |           1 |
|      23 | 0x0016      |          22 |
|      24 | 0x3117      |       12567 |
|      25 | 0x3118      |       12568 |
|      26 | 0x3119      |       12569 |
|      27 | 0x311A      |       12570 |
|      28 | 0x0005      |           5 |
|      29 | 0x0006      |           6 |
|      30 | 0x311B      |       12571 |
|      31 | 0x311C      |       12572 |
|      32 | 0x311D      |       12573 |
|      33 | 0x00A9      |         169 |
|      34 | 0x311E      |       12574 |
|      35 | 0x311F      |       12575 |
|      36 | 0x3120      |       12576 |
|      37 | 0x3121      |       12577 |
|      38 | 0x3122      |       12578 |
|      39 | 0x0015      |          21 |
|      40 | 0x003C      |          60 |
|      41 | 0x3123      |       12579 |
|      42 | 0x3124      |       12580 |
|      43 | 0x3125      |       12581 |
|      44 | 0x3126      |       12582 |
|      45 | 0x3127      |       12583 |
|      46 | 0x3128      |       12584 |
|      47 | 0x0024      |          36 |
|      48 | 0x312D      |       12589 |
|      49 | 0x312E      |       12590 |
|      50 | 0x312F      |       12591 |
|      51 | 0x08E7      |        2279 |
|      52 | 0x3130      |       12592 |
|      53 | 0x3132      |       12594 |
|      54 | 0x3129      |       12585 |
|      55 | 0x000F      |          15 |
|      56 | 0x00C8      |         200 |
|      57 | 0x312A      |       12586 |
|      58 | 0x312B      |       12587 |
|      59 | 0x3131      |       12593 |
|      60 | 0x313B      |       12603 |
|      61 | 0x3133      |       12595 |
|      62 | 0x0DD4      |        3540 |
|      63 | 0x3134      |       12596 |
|      64 | 0x00C2      |         194 |
|      65 | 0x0096      |         150 |
|      66 | 0x00B4      |         180 |
|      67 | 0x3135      |       12597 |
|      68 | 0x3136      |       12598 |
|      69 | 0x3137      |       12599 |
|      70 | 0x3138      |       12600 |
|      71 | 0x3139      |       12601 |
|      72 | 0x023B      |         571 |
|      73 | 0xFFFFAC0F  |  4294945807 |
|      74 | 0x0BEA      |        3050 |
|      75 | 0xFFFFB82C  |  4294948908 |
|      76 | 0x03E2      |         994 |
|      77 | 0x008E      |         142 |
|      78 | 0x2061      |        8289 |
|      79 | 0x0014      |          20 |
|      80 | 0x313A      |       12602 |
|      81 | 0x313C      |       12604 |
|      82 | 0x0129      |         297 |
|      83 | 0x0061      |          97 |
|      84 | 0x0002      |           2 |
|      85 | 0x313D      |       12605 |
|      86 | 0x313E      |       12606 |
|      87 | 0x313F      |       12607 |
|      88 | 0x0064      |         100 |
|      89 | 0x0032      |          50 |
|      90 | 0x0019      |          25 |
|      91 | 0x000A      |          10 |
|      92 | 0x3140      |       12608 |
|      93 | 0x3141      |       12609 |
|      94 | 0x002D      |          45 |
|      95 | 0x3142      |       12610 |
|      96 | 0x3143      |       12611 |
|      97 | 0x0003      |           3 |
|      98 | 0x0004      |           4 |
|      99 | 0x0008      |           8 |
|     100 | 0x006E      |         110 |
|     101 | 0x3144      |       12612 |
|     102 | 0x3145      |       12613 |
|     103 | 0x3146      |       12614 |
|     104 | 0x0028      |          40 |
|     105 | 0x001A      |          26 |
|     106 | 0x3147      |       12615 |
|     107 | 0x3148      |       12616 |
|     108 | 0x3149      |       12617 |
|     109 | 0x0046      |          70 |
|     110 | 0x314A      |       12618 |
|     111 | 0x0050      |          80 |
|     112 | 0x314B      |       12619 |
|     113 | 0x314C      |       12620 |
|     114 | 0x0063      |          99 |
|     115 | 0x314D      |       12621 |
|     116 | 0x012E      |         302 |
|     117 | 0x00D2      |         210 |
|     118 | 0x0009      |           9 |
|     119 | 0x314E      |       12622 |
|     120 | 0x314F      |       12623 |
|     121 | 0x3150      |       12624 |
|     122 | 0x3151      |       12625 |
|     123 | 0x003B      |          59 |
|     124 | 0x3152      |       12626 |
|     125 | 0x3153      |       12627 |
|     126 | 0x3154      |       12628 |
|     127 | 0x3155      |       12629 |
|     128 | 0x3156      |       12630 |
|     129 | 0x3157      |       12631 |
|     130 | 0x000D      |          13 |
|     131 | 0x3158      |       12632 |
|     132 | 0x3159      |       12633 |
|     133 | 0x315A      |       12634 |
|     134 | 0x315B      |       12635 |
|     135 | 0x315C      |       12636 |
|     136 | 0x315D      |       12637 |
|     137 | 0x315E      |       12638 |
|     138 | 0x315F      |       12639 |
|     139 | 0x3160      |       12640 |
|     140 | 0x3161      |       12641 |
|     141 | 0x005B      |          91 |
|     142 | 0x512D      |       20781 |
|     143 | 0x3162      |       12642 |
|     144 | 0x3163      |       12643 |
|     145 | 0x00C9      |         201 |
|     146 | 0x3165      |       12645 |
|     147 | 0x3166      |       12646 |
|     148 | 0x3167      |       12647 |
|     149 | 0x3168      |       12648 |
|     150 | 0x3169      |       12649 |
|     151 | 0x316A      |       12650 |
|     152 | 0x316B      |       12651 |
|     153 | 0x316C      |       12652 |
|     154 | 0x316D      |       12653 |
|     155 | 0x316E      |       12654 |
|     156 | 0x316F      |       12655 |
|     157 | 0x3170      |       12656 |
|     158 | 0x3171      |       12657 |
|     159 | 0x3172      |       12658 |
|     160 | 0x3173      |       12659 |
|     161 | 0x3174      |       12660 |
|     162 | 0x3175      |       12661 |
|     163 | 0x3176      |       12662 |
|     164 | 0x3177      |       12663 |
|     165 | 0x000E      |          14 |
|     166 | 0x3178      |       12664 |
|     167 | 0x08E8      |        2280 |
|     168 | 0x317A      |       12666 |
|     169 | 0x317B      |       12667 |
|     170 | 0x000B      |          11 |
|     171 | 0x317C      |       12668 |
|     172 | 0x3179      |       12665 |
|     173 | 0x317D      |       12669 |
|     174 | 0x000C      |          12 |
|     175 | 0x08E9      |        2281 |
|     176 | 0x08EA      |        2282 |
|     177 | 0x08EB      |        2283 |
|     178 | 0x08EC      |        2284 |
|     179 | 0x08ED      |        2285 |
|     180 | 0x08EE      |        2286 |
|     181 | 0x7530      |       30000 |
|     182 | 0x0BB8      |        3000 |
|     183 | 0x1388      |        5000 |
|     184 | 0x012C      |         300 |
|     185 | 0x0190      |         400 |
|     186 | 0x317E      |       12670 |
|     187 | 0x317F      |       12671 |
|     188 | 0x3180      |       12672 |
|     189 | 0x3185      |       12677 |
|     190 | 0x3184      |       12676 |
|     191 | 0x3187      |       12679 |
|     192 | 0x3188      |       12680 |
|     193 | 0x3189      |       12681 |
|     194 | 0x318A      |       12682 |
|     195 | 0x318B      |       12683 |
|     196 | 0x318C      |       12684 |
|     197 | 0x318D      |       12685 |
|     198 | 0x318E      |       12686 |
|     199 | 0x318F      |       12687 |
|     200 | 0x3190      |       12688 |
|     201 | 0x3192      |       12690 |
|     202 | 0x3193      |       12691 |
|     203 | 0x3194      |       12692 |
|     204 | 0x3195      |       12693 |
|     205 | 0x3196      |       12694 |
|     206 | 0x3197      |       12695 |
|     207 | 0x3198      |       12696 |
|     208 | 0x3199      |       12697 |
|     209 | 0x319A      |       12698 |
|     210 | 0x319B      |       12699 |
|     211 | 0x319C      |       12700 |
|     212 | 0x3183      |       12675 |
|     213 | 0x3181      |       12673 |
|     214 | 0x3182      |       12674 |
|     215 | 0x3186      |       12678 |
|     216 | 0x00D7      |         215 |

## String References

- **8289**: @@
- **12565**: Know you of "runes"? [Of course./Sadly, I do not.]
- **12578**: What do you think? [The...first few years...?/Slay me now.]
- **12584**: Inscribe the runes? [Yes, I'm ready./No, my life is too precious!]
- **12587**: Tiptoe the path of runic enlightenment? [Yes, and may I never stray!/Nope, I'm not that committed.]
- **12601**: Begin the inscription? [P-please be gentle!/I...still harbor doubts.]
- **12607**: Attempt to inscribe the heavens? ($0/100) [Use Rune Enchantment...?/...I've had enough.]
- **12609**: Shame your family and give up? [Yes./No, I will persist!]
- **12664**: What will it be? [Count me in!/Gimme all needed items I don't have!/Gimme a device!/Tell me more about the devices./I need to hear that again./Count me out for now.]
- **12670**: Which one do you need? [3. ($10 bayld)/$3. ($11 bayld)/$3. ($12 bayld)/$3. ($13 bayld)/$3. ($14 bayld)/$3. ($15 bayld)/None.]
- **12672**: Give him the bayld? [Might as well./No.]
- **12674**: Proceed? ($8 bayld) [Yes./No.]
- **12680**: About which do you need to know? [3./$3./$3./$3./$3./$3./None.]

## Events

### Event 65535

#### Metadata

| Field        | Value   |
|--------------|---------|
| Entrypoint   | 0x0000  |
| Data Size    | 1 bytes |
| Instructions | 1       |

```
      00 01 02 03 04 05 06 07  08 09 0A 0B 0C 0D 0E 0F
      -- -- -- -- -- -- -- --  -- -- -- -- -- -- -- --
0000: 00                                                .               
```

#### Opcodes

```
  0: 0x0000 [0x00] END_REQSTACK()
```

### Event 27

#### Metadata

| Field        | Value    |
|--------------|----------|
| Entrypoint   | 0x0001   |
| Data Size    | 41 bytes |
| Instructions | 11       |

```
      00 01 02 03 04 05 06 07  08 09 0A 0B 0C 0D 0E 0F
      -- -- -- -- -- -- -- --  -- -- -- -- -- -- -- --
0000:    4A 74 10 10 01 F0 FF  FF 7F 6F 76 74 10 10 01   Jt.......ovt...
0010: 2B 74 10 10 01 00 80 23  2B 74 10 10 01 01 80 23  +t.....#+t.....#
0020: 2B 74 10 10 01 02 80 23  21 00                    +t.....#!.      
```

#### Opcodes

```
  0: 0x0001 [0x4A] Octavien (ID: 17830004/0x01101074) looks at LocalPlayer
  1: 0x000A [0x6F] WAIT_FRAME_DELAY: Yield until WaitTime reaches zero
  2: 0x000B [0x76] CHECK_ENTITY_RENDER_FLAGS: Wait until Octavien (ID: 17830004/0x01101074) Render.Flags0 and Render.Flags3 conditions are met
  3: 0x0010 [0x2B] Octavien (ID: 17830004/0x01101074) [12561*]:
    → "Hello there, adventurer. My name is Octavien and I hail from the Order of Orvail."
  4: 0x0017 [0x23] WAIT_FOR_DIALOG_INTERACTION
  5: 0x0018 [0x2B] Octavien (ID: 17830004/0x01101074) [12562*]:
    → "So, my adventuring friend, how long did it take for you to reach Adoulin?"
  6: 0x001F [0x23] WAIT_FOR_DIALOG_INTERACTION
  7: 0x0020 [0x2B] Octavien (ID: 17830004/0x01101074) [12563*]:
    → "Heh heh heh, I assure you my powers of perspicacity are not the same as omniscience. 'Tis but a trifle to tell outsiders from those of Adoulinian stock. One's gait, [his/her] posture...or even the powers that lay dormant within [him/her] provide ample evidence as to [his/her] identity."
  8: 0x0027 [0x23] WAIT_FOR_DIALOG_INTERACTION
  9: 0x0028 [0x21] END_EVENT
 10: 0x0029 [0x00] END_REQSTACK()
```

### Event 23

#### Metadata

| Field        | Value      |
|--------------|------------|
| Entrypoint   | 0x002A     |
| Data Size    | 1735 bytes |
| Instructions | 214        |

```
      00 01 02 03 04 05 06 07  08 09 0A 0B 0C 0D 0E 0F
      -- -- -- -- -- -- -- --  -- -- -- -- -- -- -- --
0020:                                42 1A 0C 25 03 00            B..%..
0030: 00 09 10 46 01 38 03 80  92 01 74 10 10 01 94 01  ...F.8....t.....
0040: F0 FF FF 7F 94 01 74 10  10 01 BA F0 FF FF 7F 04  ......t.........
0050: 80 05 80 06 80 07 80 BA  74 10 10 01 08 80 09 80  ........t.......
0060: 06 80 0A 80 80 F0 FF FF  7F 80 74 10 10 01 4A F0  ..........t...J.
0070: FF FF 7F 74 10 10 01 4A  74 10 10 01 F0 FF FF 7F  ...t...Jt.......
0080: 6F 76 74 10 10 01 1C 0B  80 45 0C 80 F0 FF FF 7F  ovt......E......
0090: F0 FF FF 7F 72 75 30 31  0D 80 1A EB 24 66 0E 80  ....ru01....$f..
00A0: 74 10 10 01 74 10 10 01  74 77 62 30 2B 74 10 10  t...t...twb0+t..
00B0: 01 00 80 23 52 0C 80 F0  FF FF 7F F0 FF FF 7F 72  ...#R..........r
00C0: 75 30 31 45 0C 80 F0 FF  FF 7F F0 FF FF 7F 72 75  u01E..........ru
00D0: 30 32 0D 80 2B 74 10 10  01 01 80 23 52 0C 80 F0  02..+t.....#R...
00E0: FF FF 7F F0 FF FF 7F 72  75 30 32 45 0C 80 F0 FF  .......ru02E....
00F0: FF 7F F0 FF FF 7F 72 75  30 33 0D 80 66 0E 80 74  ......ru03..f..t
0100: 10 10 01 74 10 10 01 74  77 62 31 29 10 F0 FF FF  ...t...twb1)....
0110: 7F 17 6E 74 10 10 01 0F  80 99 74 10 10 01 2B 74  ..nt......t...+t
0120: 10 10 01 02 80 1C 10 80  23 52 0C 80 F0 FF FF 7F  ........#R......
0130: F0 FF FF 7F 72 75 30 33  45 0C 80 F0 FF FF 7F F0  ....ru03E.......
0140: FF FF 7F 72 75 30 34 0D  80 2B 74 10 10 01 11 80  ...ru04..+t.....
0150: 23 52 0C 80 F0 FF FF 7F  F0 FF FF 7F 72 75 30 34  #R..........ru04
0160: 45 0C 80 F0 FF FF 7F F0  FF FF 7F 72 75 30 35 0D  E..........ru05.
0170: 80 24 12 80 0D 80 0D 80  25 02 00 10 0D 80 00 AA  .$......%.......
0180: 01 6E F0 FF FF 7F 13 80  99 F0 FF FF 7F 1C 14 80  .n..............
0190: 6E 74 10 10 01 13 80 99  74 10 10 01 2B 74 10 10  nt......t...+t..
01A0: 01 15 80 1C 10 80 23 01  C4 01 02 00 10 16 80 00  ......#.........
01B0: C4 01 6E F0 FF FF 7F 17  80 99 F0 FF FF 7F 1C 14  ..n.............
01C0: 80 01 C4 01 52 0C 80 F0  FF FF 7F F0 FF FF 7F 72  ....R..........r
01D0: 75 30 35 45 0C 80 F0 FF  FF 7F F0 FF FF 7F 72 75  u05E..........ru
01E0: 30 36 0D 80 2B 74 10 10  01 18 80 23 7B 74 10 10  06..+t.....#{t..
01F0: 01 66 0E 80 74 10 10 01  74 10 10 01 74 68 6B 31  .f..t...t...thk1
0200: 2B 74 10 10 01 19 80 23  2B 74 10 10 01 1A 80 23  +t.....#+t.....#
0210: 52 0C 80 F0 FF FF 7F F0  FF FF 7F 72 75 30 36 45  R..........ru06E
0220: 0C 80 F0 FF FF 7F F0 FF  FF 7F 72 75 30 37 0D 80  ..........ru07..
0230: 79 00 74 10 10 01 F0 FF  FF 7F 66 0E 80 74 10 10  y.t.......f..t..
0240: 01 74 10 10 01 74 68 6B  32 1C 0B 80 2B 74 10 10  .t...thk2...+t..
0250: 01 1B 80 23 53 74 10 10  01 74 10 10 01 74 68 6B  ...#St...t...thk
0260: 32 29 10 F0 FF FF 7F 02  02 02 10 1C 80 80 93 02  2)..............
0270: 52 0C 80 F0 FF FF 7F F0  FF FF 7F 72 75 30 37 45  R..........ru07E
0280: 0C 80 F0 FF FF 7F F0 FF  FF 7F 72 75 30 39 0D 80  ..........ru09..
0290: 01 DE 02 02 02 10 1D 80  80 BE 02 52 0C 80 F0 FF  ...........R....
02A0: FF 7F F0 FF FF 7F 72 75  30 37 45 0C 80 F0 FF FF  ......ru07E.....
02B0: 7F F0 FF FF 7F 72 75 30  39 0D 80 01 DE 02 52 0C  .....ru09.....R.
02C0: 80 F0 FF FF 7F F0 FF FF  7F 72 75 30 37 45 0C 80  .........ru07E..
02D0: F0 FF FF 7F F0 FF FF 7F  72 75 30 38 0D 80 29 10  ........ru08..).
02E0: F0 FF FF 7F 17 2B 74 10  10 01 1E 80 23 52 0C 80  .....+t.....#R..
02F0: F0 FF FF 7F F0 FF FF 7F  72 75 30 38 52 0C 80 F0  ........ru08R...
0300: FF FF 7F F0 FF FF 7F 72  75 30 39 45 0C 80 F0 FF  .......ru09E....
0310: FF 7F F0 FF FF 7F 72 75  31 30 0D 80 2B 74 10 10  ......ru10..+t..
0320: 01 1F 80 23 52 0C 80 F0  FF FF 7F F0 FF FF 7F 72  ...#R..........r
0330: 75 31 30 45 0C 80 F0 FF  FF 7F F0 FF FF 7F 72 75  u10E..........ru
0340: 31 31 0D 80 2B 74 10 10  01 20 80 23 66 21 80 74  11..+t... .#f!.t
0350: 10 10 01 74 10 10 01 74  6C 6B 30 2B 74 10 10 01  ...t...tlk0+t...
0360: 22 80 23 52 0C 80 F0 FF  FF 7F F0 FF FF 7F 72 75  ".#R..........ru
0370: 31 31 45 0C 80 F0 FF FF  7F F0 FF FF 7F 72 75 31  11E..........ru1
0380: 32 0D 80 2B 74 10 10 01  23 80 23 2B 74 10 10 01  2..+t...#.#+t...
0390: 24 80 23 52 0C 80 F0 FF  FF 7F F0 FF FF 7F 72 75  $.#R..........ru
03A0: 31 32 45 0C 80 F0 FF FF  7F F0 FF FF 7F 72 75 31  12E..........ru1
03B0: 33 0D 80 66 21 80 74 10  10 01 74 10 10 01 74 6C  3..f!.t...t...tl
03C0: 6B 31 2B 74 10 10 01 25  80 23 53 74 10 10 01 74  k1+t...%.#St...t
03D0: 10 10 01 74 6C 6B 31 24  26 80 0D 80 0D 80 25 02  ...tlk1$&.....%.
03E0: 00 10 0D 80 00 24 04 6E  F0 FF FF 7F 27 80 99 F0  .....$.n....'...
03F0: FF FF 7F 1C 28 80 52 0C  80 F0 FF FF 7F F0 FF FF  ....(.R.........
0400: 7F 72 75 31 33 45 0C 80  F0 FF FF 7F F0 FF FF 7F  .ru13E..........
0410: 72 75 31 34 0D 80 2B 74  10 10 01 29 80 1C 14 80  ru14..+t...)....
0420: 23 01 57 04 02 00 10 16  80 00 57 04 52 0C 80 F0  #.W.......W.R...
0430: FF FF 7F F0 FF FF 7F 72  75 31 33 45 0C 80 F0 FF  .......ru13E....
0440: FF 7F F0 FF FF 7F 72 75  31 34 0D 80 2B 74 10 10  ......ru14..+t..
0450: 01 29 80 23 01 57 04 2B  74 10 10 01 2A 80 23 52  .).#.W.+t...*.#R
0460: 0C 80 F0 FF FF 7F F0 FF  FF 7F 72 75 31 34 45 0C  ..........ru14E.
0470: 80 F0 FF FF 7F F0 FF FF  7F 72 75 31 35 0D 80 66  .........ru15..f
0480: 21 80 74 10 10 01 74 10  10 01 74 6C 6B 30 2B 74  !.t...t...tlk0+t
0490: 10 10 01 2B 80 23 2B 74  10 10 01 2C 80 23 29 10  ...+.#+t...,.#).
04A0: F0 FF FF 7F 02 02 02 10  1C 80 80 D0 04 52 0C 80  .............R..
04B0: F0 FF FF 7F F0 FF FF 7F  72 75 31 35 45 0C 80 F0  ........ru15E...
04C0: FF FF 7F F0 FF FF 7F 72  75 31 37 0D 80 01 1B 05  .......ru17.....
04D0: 02 02 10 1D 80 80 FB 04  52 0C 80 F0 FF FF 7F F0  ........R.......
04E0: FF FF 7F 72 75 31 35 45  0C 80 F0 FF FF 7F F0 FF  ...ru15E........
04F0: FF 7F 72 75 31 37 0D 80  01 1B 05 52 0C 80 F0 FF  ..ru17.....R....
0500: FF 7F F0 FF FF 7F 72 75  31 35 45 0C 80 F0 FF FF  ......ru15E.....
0510: 7F F0 FF FF 7F 72 75 31  36 0D 80 66 21 80 74 10  .....ru16..f!.t.
0520: 10 01 74 10 10 01 74 6C  6B 31 2B 74 10 10 01 2D  ..t...tlk1+t...-
0530: 80 23 53 74 10 10 01 74  10 10 01 74 6C 6B 31 24  .#St...t...tlk1$
0540: 2E 80 0D 80 0D 80 25 02  00 10 0D 80 00 3A 06 6E  ......%......:.n
0550: F0 FF FF 7F 2F 80 99 F0  FF FF 7F 1C 10 80 52 0C  ..../.........R.
0560: 80 F0 FF FF 7F F0 FF FF  7F 72 75 31 36 52 0C 80  .........ru16R..
0570: F0 FF FF 7F F0 FF FF 7F  72 75 31 37 45 0C 80 F0  ........ru17E...
0580: FF FF 7F F0 FF FF 7F 72  75 32 30 0D 80 6E 74 10  .......ru20..nt.
0590: 10 01 13 80 99 74 10 10  01 2B 74 10 10 01 30 80  .....t...+t...0.
05A0: 1C 10 80 23 52 0C 80 F0  FF FF 7F F0 FF FF 7F 72  ...#R..........r
05B0: 75 32 30 45 0C 80 F0 FF  FF 7F F0 FF FF 7F 72 75  u20E..........ru
05C0: 31 39 0D 80 66 0E 80 74  10 10 01 74 10 10 01 74  19..f..t...t...t
05D0: 77 61 30 2B 74 10 10 01  31 80 23 2B 74 10 10 01  wa0+t...1.#+t...
05E0: 32 80 23 52 0C 80 F0 FF  FF 7F F0 FF FF 7F 72 75  2.#R..........ru
05F0: 31 39 45 0C 80 F0 FF FF  7F F0 FF FF 7F 72 75 32  19E..........ru2
0600: 31 0D 80 66 0E 80 74 10  10 01 74 10 10 01 74 77  1..f..t...t...tw
0610: 61 31 03 02 10 33 80 2B  74 10 10 01 34 80 23 2B  a1...3.+t...4.#+
0620: 74 10 10 01 35 80 23 53  74 10 10 01 74 10 10 01  t...5.#St...t...
0630: 74 6C 63 31 05 01 10 01  9D 06 02 00 10 16 80 00  tlc1............
0640: 9D 06 6E F0 FF FF 7F 03  80 99 F0 FF FF 7F 1C 10  ..n.............
0650: 80 52 0C 80 F0 FF FF 7F  F0 FF FF 7F 72 75 31 36  .R..........ru16
0660: 52 0C 80 F0 FF FF 7F F0  FF FF 7F 72 75 31 37 45  R..........ru17E
0670: 0C 80 F0 FF FF 7F F0 FF  FF 7F 72 75 31 38 0D 80  ..........ru18..
0680: 6E 74 10 10 01 1D 80 99  74 10 10 01 2B 74 10 10  nt......t...+t..
0690: 01 36 80 1C 10 80 23 06  01 10 01 9D 06 1A 0C 25  .6....#........%
06A0: 1C 0B 80 52 0C 80 F0 FF  FF 7F F0 FF FF 7F 72 75  ...R..........ru
06B0: 31 38 52 0C 80 F0 FF FF  7F F0 FF FF 7F 72 75 32  18R..........ru2
06C0: 31 45 0C 80 F0 FF FF 7F  F0 FF FF 7F 30 62 6C 66  1E..........0blf
06D0: 0D 80 1C 37 80 AB 11 0D  80 1C 16 80 46 00 45 38  ...7........F.E8
06E0: 80 F0 FF FF 7F F0 FF FF  7F 66 64 69 32 0D 80 21  .........fdi2..!
06F0: 00                                                .               
```

#### Opcodes

```
  0: 0x002A [0x42] SET_CLI_EVENT_CANCEL_DATA()
  1: 0x002B [0x1A] CALL_SUBROUTINE(address=0x250C)
  2: 0x002E [0x03] ExtData[1]->WorkLocal[0] = Work_Zone[9]
  3: 0x0033 [0x46] CAMERA_CONTROL: Disable user control
  4: 0x0035 [0x38] SET_CLIENT_EVENT_MODE(mode=19*)
  5: 0x0038 [0x92] Octavien (ID: 17830004/0x01101074)->Render.Flags3 ^= 0x01
  6: 0x003E [0x94] LocalPlayer->Render.Flags3 ^= 0x01
  7: 0x0044 [0x94] Octavien (ID: 17830004/0x01101074)->Render.Flags3 ^= 0x01
  8: 0x004A [0xBA] SET_ENTITY_POSITION(entity_id=LocalPlayer, pos_x=0.089*, pos_z=-20.645*, pos_y=-11.439*, direction=207.1°*)
  9: 0x0057 [0xBA] SET_ENTITY_POSITION(entity_id=Octavien (ID: 17830004/0x01101074), pos_x=-1.766*, pos_z=-19.494*, pos_y=-11.439*, direction=177.1°*)
 10: 0x0064 [0x80] LOAD_WAIT(entity=LocalPlayer)
 11: 0x0069 [0x80] LOAD_WAIT(entity=Octavien (ID: 17830004/0x01101074))
 12: 0x006E [0x4A] LocalPlayer looks at Octavien (ID: 17830004/0x01101074)
 13: 0x0077 [0x4A] Octavien (ID: 17830004/0x01101074) looks at LocalPlayer
 14: 0x0080 [0x6F] WAIT_FRAME_DELAY: Yield until WaitTime reaches zero
 15: 0x0081 [0x76] CHECK_ENTITY_RENDER_FLAGS: Wait until Octavien (ID: 17830004/0x01101074) Render.Flags0 and Render.Flags3 conditions are met
 16: 0x0086 [0x1C] WAIT(30* ticks)
 17: 0x0089 [0x45] LOAD_SCHEDULED_TASK: Load scheduler "ru01" with entities [LocalPlayer, LocalPlayer], work=[563*, 0*]
 18: 0x009A [0x1A] CALL_SUBROUTINE(address=0x24EB)
 19: 0x009D [0x66] LOAD_EXT_SCHEDULER_MAIN: Load scheduler "twb0" with entities [Octavien (ID: 17830004/0x01101074), Octavien (ID: 17830004/0x01101074)], work=29*
 20: 0x00AC [0x2B] Octavien (ID: 17830004/0x01101074) [12561*]:
    → "Hello there, adventurer. My name is Octavien and I hail from the Order of Orvail."
 21: 0x00B3 [0x23] WAIT_FOR_DIALOG_INTERACTION
 22: 0x00B4 [0x52] END_LOAD_SCHEDULER: End scheduler "ru01" with entities [LocalPlayer, LocalPlayer], work=563*
 23: 0x00C3 [0x45] LOAD_SCHEDULED_TASK: Load scheduler "ru02" with entities [LocalPlayer, LocalPlayer], work=[563*, 0*]
 24: 0x00D4 [0x2B] Octavien (ID: 17830004/0x01101074) [12562*]:
    → "So, my adventuring friend, how long did it take for you to reach Adoulin?"
 25: 0x00DB [0x23] WAIT_FOR_DIALOG_INTERACTION
 26: 0x00DC [0x52] END_LOAD_SCHEDULER: End scheduler "ru02" with entities [LocalPlayer, LocalPlayer], work=563*
 27: 0x00EB [0x45] LOAD_SCHEDULED_TASK: Load scheduler "ru03" with entities [LocalPlayer, LocalPlayer], work=[563*, 0*]
 28: 0x00FC [0x66] LOAD_EXT_SCHEDULER_MAIN: Load scheduler "twb1" with entities [Octavien (ID: 17830004/0x01101074), Octavien (ID: 17830004/0x01101074)], work=29*
 29: 0x010B [0x29] REQ_SET_WAIT(priority=0x10, entity_id=LocalPlayer, tag_num=0x17)
 30: 0x0112 [0x6E] Octavien (ID: 17830004/0x01101074) uses emote 32*
 31: 0x0119 [0x99] Wait for Octavien (ID: 17830004/0x01101074) animation to complete
 32: 0x011E [0x2B] Octavien (ID: 17830004/0x01101074) [12563*]:
    → "Heh heh heh, I assure you my powers of perspicacity are not the same as omniscience. 'Tis but a trifle to tell outsiders from those of Adoulinian stock. One's gait, [his/her] posture...or even the powers that lay dormant within [him/her] provide ample evidence as to [his/her] identity."
 33: 0x0125 [0x1C] WAIT(120* ticks)
 34: 0x0128 [0x23] WAIT_FOR_DIALOG_INTERACTION
 35: 0x0129 [0x52] END_LOAD_SCHEDULER: End scheduler "ru03" with entities [LocalPlayer, LocalPlayer], work=563*
 36: 0x0138 [0x45] LOAD_SCHEDULED_TASK: Load scheduler "ru04" with entities [LocalPlayer, LocalPlayer], work=[563*, 0*]
 37: 0x0149 [0x2B] Octavien (ID: 17830004/0x01101074) [12564*]:
    → "Perhaps I am right about something else as well. Do you happen to know of "runes"--magical emblems that have been passed down for generations?"
 38: 0x0150 [0x23] WAIT_FOR_DIALOG_INTERACTION
 39: 0x0151 [0x52] END_LOAD_SCHEDULER: End scheduler "ru04" with entities [LocalPlayer, LocalPlayer], work=563*
 40: 0x0160 [0x45] LOAD_SCHEDULED_TASK: Load scheduler "ru05" with entities [LocalPlayer, LocalPlayer], work=[563*, 0*]
 41: 0x0171 [0x24] CREATE_DIALOG(message_id=12565*, default_option=0*, option_flags=0*)
    → "Know you of "runes"? [Of course./Sadly, I do not.]"
 42: 0x0178 [0x25] WAIT_DIALOG_SELECT()
 43: 0x0179 [0x02] IF !(Work_Zone[0] == 0*) GOTO 0x01AA
 44: 0x0181 [0x6E] LocalPlayer uses emote 7*
 45: 0x0188 [0x99] Wait for LocalPlayer animation to complete
 46: 0x018D [0x1C] WAIT(90* ticks)
 47: 0x0190 [0x6E] Octavien (ID: 17830004/0x01101074) uses emote 7*
 48: 0x0197 [0x99] Wait for Octavien (ID: 17830004/0x01101074) animation to complete
 49: 0x019C [0x2B] Octavien (ID: 17830004/0x01101074) [12566*]:
    → "Aha, I knew it! What an enlightened individual I've come across. Still, possessing a mere passing knowledge of runes is insufficient to fully comprehend the mysteries contained within. Let me provide you with a more thorough explanation."
 50: 0x01A3 [0x1C] WAIT(120* ticks)
 51: 0x01A6 [0x23] WAIT_FOR_DIALOG_INTERACTION
 52: 0x01A7 [0x01] GOTO 0x01C4
 53: 0x01AA [0x02] IF !(Work_Zone[0] == 1*) GOTO 0x01C4
 54: 0x01B2 [0x6E] LocalPlayer uses emote 22*
 55: 0x01B9 [0x99] Wait for LocalPlayer animation to complete
 56: 0x01BE [0x1C] WAIT(90* ticks)
 57: 0x01C1 [0x01] GOTO 0x01C4

SUBROUTINE_01C4:
 58: 0x01C4 [0x52] END_LOAD_SCHEDULER: End scheduler "ru05" with entities [LocalPlayer, LocalPlayer], work=563*
 59: 0x01D3 [0x45] LOAD_SCHEDULED_TASK: Load scheduler "ru06" with entities [LocalPlayer, LocalPlayer], work=[563*, 0*]
 60: 0x01E4 [0x2B] Octavien (ID: 17830004/0x01101074) [12567*]:
    → "Runes have existed since the age of the gods and are considered sacred, or so certain legends portend."
 61: 0x01EB [0x23] WAIT_FOR_DIALOG_INTERACTION
 62: 0x01EC [0x7B] Octavien (ID: 17830004/0x01101074) stops talking
 63: 0x01F1 [0x66] LOAD_EXT_SCHEDULER_MAIN: Load scheduler "thk1" with entities [Octavien (ID: 17830004/0x01101074), Octavien (ID: 17830004/0x01101074)], work=29*
 64: 0x0200 [0x2B] Octavien (ID: 17830004/0x01101074) [12568*]:
    → "Still more legends assert that the symbols first emerged from the north, on the continent of Rhazowa."
 65: 0x0207 [0x23] WAIT_FOR_DIALOG_INTERACTION
 66: 0x0208 [0x2B] Octavien (ID: 17830004/0x01101074) [12569*]:
    → "However, all accounts seem to agree that each letter in this mystical array harbors powers of thaumaturgic significance. Moreover, this special magic can only be released by a few talented individuals."
 67: 0x020F [0x23] WAIT_FOR_DIALOG_INTERACTION
 68: 0x0210 [0x52] END_LOAD_SCHEDULER: End scheduler "ru06" with entities [LocalPlayer, LocalPlayer], work=563*
 69: 0x021F [0x45] LOAD_SCHEDULED_TASK: Load scheduler "ru07" with entities [LocalPlayer, LocalPlayer], work=[563*, 0*]
 70: 0x0230 [0x79] Octavien (ID: 17830004/0x01101074) looks at LocalPlayer (Basic look)
 71: 0x023A [0x66] LOAD_EXT_SCHEDULER_MAIN: Load scheduler "thk2" with entities [Octavien (ID: 17830004/0x01101074), Octavien (ID: 17830004/0x01101074)], work=29*
 72: 0x0249 [0x1C] WAIT(30* ticks)
 73: 0x024C [0x2B] Octavien (ID: 17830004/0x01101074) [12570*]:
    → "Those able to unlock the true nature of these uncharacteristically powerful characters are dubbed "rune fencers.""
 74: 0x0253 [0x23] WAIT_FOR_DIALOG_INTERACTION
 75: 0x0254 [0x53] WAIT_SCHEDULER_TASK: Wait for scheduler "thk2" with entities [Octavien (ID: 17830004/0x01101074), Octavien (ID: 17830004/0x01101074)]
 76: 0x0261 [0x29] REQ_SET_WAIT(priority=0x10, entity_id=LocalPlayer, tag_num=0x02)
 77: 0x0268 [0x02] IF !(Work_Zone[2] == 5*) GOTO 0x0293
 78: 0x0270 [0x52] END_LOAD_SCHEDULER: End scheduler "ru07" with entities [LocalPlayer, LocalPlayer], work=563*
 79: 0x027F [0x45] LOAD_SCHEDULED_TASK: Load scheduler "ru09" with entities [LocalPlayer, LocalPlayer], work=[563*, 0*]
 80: 0x0290 [0x01] GOTO 0x02DE
 81: 0x0293 [0x02] IF !(Work_Zone[2] == 6*) GOTO 0x02BE
 82: 0x029B [0x52] END_LOAD_SCHEDULER: End scheduler "ru07" with entities [LocalPlayer, LocalPlayer], work=563*
 83: 0x02AA [0x45] LOAD_SCHEDULED_TASK: Load scheduler "ru09" with entities [LocalPlayer, LocalPlayer], work=[563*, 0*]
 84: 0x02BB [0x01] GOTO 0x02DE
 85: 0x02BE [0x52] END_LOAD_SCHEDULER: End scheduler "ru07" with entities [LocalPlayer, LocalPlayer], work=563*
 86: 0x02CD [0x45] LOAD_SCHEDULED_TASK: Load scheduler "ru08" with entities [LocalPlayer, LocalPlayer], work=[563*, 0*]

SUBROUTINE_02DE:
 87: 0x02DE [0x29] REQ_SET_WAIT(priority=0x10, entity_id=LocalPlayer, tag_num=0x17)
 88: 0x02E5 [0x2B] Octavien (ID: 17830004/0x01101074) [12571*]:
    → "Now as to why I asked my prior question and possibly bored you with a story as old as time immemorial:"
 89: 0x02EC [0x23] WAIT_FOR_DIALOG_INTERACTION
 90: 0x02ED [0x52] END_LOAD_SCHEDULER: End scheduler "ru08" with entities [LocalPlayer, LocalPlayer], work=563*
 91: 0x02FC [0x52] END_LOAD_SCHEDULER: End scheduler "ru09" with entities [LocalPlayer, LocalPlayer], work=563*
 92: 0x030B [0x45] LOAD_SCHEDULED_TASK: Load scheduler "ru10" with entities [LocalPlayer, LocalPlayer], work=[563*, 0*]
 93: 0x031C [0x2B] Octavien (ID: 17830004/0x01101074) [12572*]:
    → "I have reason to believe you are one of the chosen, one of those who can unlock the true potential of these runes. Call it runesmith's intuition."
 94: 0x0323 [0x23] WAIT_FOR_DIALOG_INTERACTION
 95: 0x0324 [0x52] END_LOAD_SCHEDULER: End scheduler "ru10" with entities [LocalPlayer, LocalPlayer], work=563*
 96: 0x0333 [0x45] LOAD_SCHEDULED_TASK: Load scheduler "ru11" with entities [LocalPlayer, LocalPlayer], work=[563*, 0*]
 97: 0x0344 [0x2B] Octavien (ID: 17830004/0x01101074) [12573*]:
    → "That should be sufficient background information. After all, my true purpose isn't to flaunt my vast intellect, but to awaken the latent rune powers of the chosen, per the order of the Order of Orvail."
 98: 0x034B [0x23] WAIT_FOR_DIALOG_INTERACTION
 99: 0x034C [0x66] LOAD_EXT_SCHEDULER_MAIN: Load scheduler "tlk0" with entities [Octavien (ID: 17830004/0x01101074), Octavien (ID: 17830004/0x01101074)], work=169*
100: 0x035B [0x2B] Octavien (ID: 17830004/0x01101074) [12574*]:
    → "But I digress. Should you truly wish to walk the path of the rune fencer, I would be more than happy to guide you."
101: 0x0362 [0x23] WAIT_FOR_DIALOG_INTERACTION
102: 0x0363 [0x52] END_LOAD_SCHEDULER: End scheduler "ru11" with entities [LocalPlayer, LocalPlayer], work=563*
103: 0x0372 [0x45] LOAD_SCHEDULED_TASK: Load scheduler "ru12" with entities [LocalPlayer, LocalPlayer], work=[563*, 0*]
104: 0x0383 [0x2B] Octavien (ID: 17830004/0x01101074) [12575*]:
    → "The road is long, strenuous, and--above all else--steep. Many runesmith cragsmen have lost their foothold during their climb only to plummet to the darkest depths of concession, their days spent shrouded in shame."
105: 0x038A [0x23] WAIT_FOR_DIALOG_INTERACTION
106: 0x038B [0x2B] Octavien (ID: 17830004/0x01101074) [12576*]:
    → "Proclivities and propensities, aversions and antitheses...these are the cards you are constantly dealt to deal with your opposition!"
107: 0x0392 [0x23] WAIT_FOR_DIALOG_INTERACTION
108: 0x0393 [0x52] END_LOAD_SCHEDULER: End scheduler "ru12" with entities [LocalPlayer, LocalPlayer], work=563*
109: 0x03A2 [0x45] LOAD_SCHEDULED_TASK: Load scheduler "ru13" with entities [LocalPlayer, LocalPlayer], work=[563*, 0*]
110: 0x03B3 [0x66] LOAD_EXT_SCHEDULER_MAIN: Load scheduler "tlk1" with entities [Octavien (ID: 17830004/0x01101074), Octavien (ID: 17830004/0x01101074)], work=169*
111: 0x03C2 [0x2B] Octavien (ID: 17830004/0x01101074) [12577*]:
    → "Yet the first step starts with runic theory, then a hop to sparring, skipping to field practice, and finally a jump to applying your years of experience. The regimen is so harsh that many students often step down in dismay after the first few years."
112: 0x03C9 [0x23] WAIT_FOR_DIALOG_INTERACTION
113: 0x03CA [0x53] WAIT_SCHEDULER_TASK: Wait for scheduler "tlk1" with entities [Octavien (ID: 17830004/0x01101074), Octavien (ID: 17830004/0x01101074)]
114: 0x03D7 [0x24] CREATE_DIALOG(message_id=12578*, default_option=0*, option_flags=0*)
    → "What do you think? [The...first few years...?/Slay me now.]"
115: 0x03DE [0x25] WAIT_DIALOG_SELECT()
116: 0x03DF [0x02] IF !(Work_Zone[0] == 0*) GOTO 0x0424
117: 0x03E7 [0x6E] LocalPlayer uses emote 21*
118: 0x03EE [0x99] Wait for LocalPlayer animation to complete
119: 0x03F3 [0x1C] WAIT(60* ticks)
120: 0x03F6 [0x52] END_LOAD_SCHEDULER: End scheduler "ru13" with entities [LocalPlayer, LocalPlayer], work=563*
121: 0x0405 [0x45] LOAD_SCHEDULED_TASK: Load scheduler "ru14" with entities [LocalPlayer, LocalPlayer], work=[563*, 0*]
122: 0x0416 [0x2B] Octavien (ID: 17830004/0x01101074) [12579*]:
    → "Maybe I should be more forthright in my explanation. That's the straight and narrow way of learning the craft. There is a shortcut now, its only shortcomings being the risks that accompany it."
123: 0x041D [0x1C] WAIT(90* ticks)
124: 0x0420 [0x23] WAIT_FOR_DIALOG_INTERACTION
125: 0x0421 [0x01] GOTO 0x0457
126: 0x0424 [0x02] IF !(Work_Zone[0] == 1*) GOTO 0x0457
127: 0x042C [0x52] END_LOAD_SCHEDULER: End scheduler "ru13" with entities [LocalPlayer, LocalPlayer], work=563*
128: 0x043B [0x45] LOAD_SCHEDULED_TASK: Load scheduler "ru14" with entities [LocalPlayer, LocalPlayer], work=[563*, 0*]
129: 0x044C [0x2B] Octavien (ID: 17830004/0x01101074) [12579*]:
    → "Maybe I should be more forthright in my explanation. That's the straight and narrow way of learning the craft. There is a shortcut now, its only shortcomings being the risks that accompany it."
130: 0x0453 [0x23] WAIT_FOR_DIALOG_INTERACTION
131: 0x0454 [0x01] GOTO 0x0457

SUBROUTINE_0457:
132: 0x0457 [0x2B] Octavien (ID: 17830004/0x01101074) [12580*]:
    → "Certain practitioners have, in these recent years, begun engraving runes into their flesh."
133: 0x045E [0x23] WAIT_FOR_DIALOG_INTERACTION
134: 0x045F [0x52] END_LOAD_SCHEDULER: End scheduler "ru14" with entities [LocalPlayer, LocalPlayer], work=563*
135: 0x046E [0x45] LOAD_SCHEDULED_TASK: Load scheduler "ru15" with entities [LocalPlayer, LocalPlayer], work=[563*, 0*]
136: 0x047F [0x66] LOAD_EXT_SCHEDULER_MAIN: Load scheduler "tlk0" with entities [Octavien (ID: 17830004/0x01101074), Octavien (ID: 17830004/0x01101074)], work=169*
137: 0x048E [0x2B] Octavien (ID: 17830004/0x01101074) [12581*]:
    → "Those who favor this route are often routed in battle...be they not accompanied by an absorbent mind, quick reflexes, and an adaptive body."
138: 0x0495 [0x23] WAIT_FOR_DIALOG_INTERACTION
139: 0x0496 [0x2B] Octavien (ID: 17830004/0x01101074) [12582*]:
    → "Should you fail to keep those traits carved upon your soul, you shall forever lose the ability to manipulate runes..."
140: 0x049D [0x23] WAIT_FOR_DIALOG_INTERACTION
141: 0x049E [0x29] REQ_SET_WAIT(priority=0x10, entity_id=LocalPlayer, tag_num=0x02)
142: 0x04A5 [0x02] IF !(Work_Zone[2] == 5*) GOTO 0x04D0
143: 0x04AD [0x52] END_LOAD_SCHEDULER: End scheduler "ru15" with entities [LocalPlayer, LocalPlayer], work=563*
144: 0x04BC [0x45] LOAD_SCHEDULED_TASK: Load scheduler "ru17" with entities [LocalPlayer, LocalPlayer], work=[563*, 0*]
145: 0x04CD [0x01] GOTO 0x051B
146: 0x04D0 [0x02] IF !(Work_Zone[2] == 6*) GOTO 0x04FB
147: 0x04D8 [0x52] END_LOAD_SCHEDULER: End scheduler "ru15" with entities [LocalPlayer, LocalPlayer], work=563*
148: 0x04E7 [0x45] LOAD_SCHEDULED_TASK: Load scheduler "ru17" with entities [LocalPlayer, LocalPlayer], work=[563*, 0*]
149: 0x04F8 [0x01] GOTO 0x051B
150: 0x04FB [0x52] END_LOAD_SCHEDULER: End scheduler "ru15" with entities [LocalPlayer, LocalPlayer], work=563*
151: 0x050A [0x45] LOAD_SCHEDULED_TASK: Load scheduler "ru16" with entities [LocalPlayer, LocalPlayer], work=[563*, 0*]

SUBROUTINE_051B:
152: 0x051B [0x66] LOAD_EXT_SCHEDULER_MAIN: Load scheduler "tlk1" with entities [Octavien (ID: 17830004/0x01101074), Octavien (ID: 17830004/0x01101074)], work=169*
153: 0x052A [0x2B] Octavien (ID: 17830004/0x01101074) [12583*]:
    → "Knowing this, do you still wish to proceed and inscribe symbols upon your skin that could very well spell your own death?"
154: 0x0531 [0x23] WAIT_FOR_DIALOG_INTERACTION
155: 0x0532 [0x53] WAIT_SCHEDULER_TASK: Wait for scheduler "tlk1" with entities [Octavien (ID: 17830004/0x01101074), Octavien (ID: 17830004/0x01101074)]
156: 0x053F [0x24] CREATE_DIALOG(message_id=12584*, default_option=0*, option_flags=0*)
    → "Inscribe the runes? [Yes, I'm ready./No, my life is too precious!]"
157: 0x0546 [0x25] WAIT_DIALOG_SELECT()
158: 0x0547 [0x02] IF !(Work_Zone[0] == 0*) GOTO 0x063A
159: 0x054F [0x6E] LocalPlayer uses emote 36*
160: 0x0556 [0x99] Wait for LocalPlayer animation to complete
161: 0x055B [0x1C] WAIT(120* ticks)
162: 0x055E [0x52] END_LOAD_SCHEDULER: End scheduler "ru16" with entities [LocalPlayer, LocalPlayer], work=563*
163: 0x056D [0x52] END_LOAD_SCHEDULER: End scheduler "ru17" with entities [LocalPlayer, LocalPlayer], work=563*
164: 0x057C [0x45] LOAD_SCHEDULED_TASK: Load scheduler "ru20" with entities [LocalPlayer, LocalPlayer], work=[563*, 0*]
165: 0x058D [0x6E] Octavien (ID: 17830004/0x01101074) uses emote 7*
166: 0x0594 [0x99] Wait for Octavien (ID: 17830004/0x01101074) animation to complete
167: 0x0599 [0x2B] Octavien (ID: 17830004/0x01101074) [12589*]:
    → "Straight and true flies the arrow of righteousness, and so--in a similar fashion--has your answer hit its mark."
168: 0x05A0 [0x1C] WAIT(120* ticks)
169: 0x05A3 [0x23] WAIT_FOR_DIALOG_INTERACTION
170: 0x05A4 [0x52] END_LOAD_SCHEDULER: End scheduler "ru20" with entities [LocalPlayer, LocalPlayer], work=563*
171: 0x05B3 [0x45] LOAD_SCHEDULED_TASK: Load scheduler "ru19" with entities [LocalPlayer, LocalPlayer], work=[563*, 0*]
172: 0x05C4 [0x66] LOAD_EXT_SCHEDULER_MAIN: Load scheduler "twa0" with entities [Octavien (ID: 17830004/0x01101074), Octavien (ID: 17830004/0x01101074)], work=29*
173: 0x05D3 [0x2B] Octavien (ID: 17830004/0x01101074) [12590*]:
    → "Your first step on the way to runic enlightenment will take you into the heart of darkness...for you must procure an atrament strong enough to overcome your body's resistance to runic material."
174: 0x05DA [0x23] WAIT_FOR_DIALOG_INTERACTION
175: 0x05DB [0x2B] Octavien (ID: 17830004/0x01101074) [12591*]:
    → "You are charged with collecting the proper ingredient to create this ink. Keep in mind that I send you upon this task not because of my revulsion toward menial labor, but so that you may familiarize yourself with what will become your new essence."
176: 0x05E2 [0x23] WAIT_FOR_DIALOG_INTERACTION
177: 0x05E3 [0x52] END_LOAD_SCHEDULER: End scheduler "ru19" with entities [LocalPlayer, LocalPlayer], work=563*
178: 0x05F2 [0x45] LOAD_SCHEDULED_TASK: Load scheduler "ru21" with entities [LocalPlayer, LocalPlayer], work=[563*, 0*]
179: 0x0603 [0x66] LOAD_EXT_SCHEDULER_MAIN: Load scheduler "twa1" with entities [Octavien (ID: 17830004/0x01101074), Octavien (ID: 17830004/0x01101074)], work=29*
180: 0x0612 [0x03] Work_Zone[2] = 2279*
181: 0x0617 [0x2B] Octavien (ID: 17830004/0x01101074) [12592*]:
    → "You should be able to find $6 along the coast of the Yahse Hunting Grounds, at K-7."
182: 0x061E [0x23] WAIT_FOR_DIALOG_INTERACTION
183: 0x061F [0x2B] Octavien (ID: 17830004/0x01101074) [12594*]:
    → "I wish you all the best, my friend."
184: 0x0626 [0x23] WAIT_FOR_DIALOG_INTERACTION
185: 0x0627 [0x53] WAIT_SCHEDULER_TASK: Wait for scheduler "tlc1" with entities [Octavien (ID: 17830004/0x01101074), Octavien (ID: 17830004/0x01101074)]
186: 0x0634 [0x05] Work_Zone[1] = 1
187: 0x0637 [0x01] GOTO 0x069D
188: 0x063A [0x02] IF !(Work_Zone[0] == 1*) GOTO 0x069D
189: 0x0642 [0x6E] LocalPlayer uses emote 19*
190: 0x0649 [0x99] Wait for LocalPlayer animation to complete
191: 0x064E [0x1C] WAIT(120* ticks)
192: 0x0651 [0x52] END_LOAD_SCHEDULER: End scheduler "ru16" with entities [LocalPlayer, LocalPlayer], work=563*
193: 0x0660 [0x52] END_LOAD_SCHEDULER: End scheduler "ru17" with entities [LocalPlayer, LocalPlayer], work=563*
194: 0x066F [0x45] LOAD_SCHEDULED_TASK: Load scheduler "ru18" with entities [LocalPlayer, LocalPlayer], work=[563*, 0*]
195: 0x0680 [0x6E] Octavien (ID: 17830004/0x01101074) uses emote 6*
196: 0x0687 [0x99] Wait for Octavien (ID: 17830004/0x01101074) animation to complete
197: 0x068C [0x2B] Octavien (ID: 17830004/0x01101074) [12585*]:
    → "I suppose my intuition was wrong after all. Very well...but do not hesitate to return should you have a change of heart."
198: 0x0693 [0x1C] WAIT(120* ticks)
199: 0x0696 [0x23] WAIT_FOR_DIALOG_INTERACTION
200: 0x0697 [0x06] Work_Zone[1] = 0
201: 0x069A [0x01] GOTO 0x069D

SUBROUTINE_069D:
202: 0x069D [0x1A] CALL_SUBROUTINE(address=0x250C)
203: 0x06A0 [0x1C] WAIT(30* ticks)
204: 0x06A3 [0x52] END_LOAD_SCHEDULER: End scheduler "ru18" with entities [LocalPlayer, LocalPlayer], work=563*
205: 0x06B2 [0x52] END_LOAD_SCHEDULER: End scheduler "ru21" with entities [LocalPlayer, LocalPlayer], work=563*
206: 0x06C1 [0x45] LOAD_SCHEDULED_TASK: Load scheduler "0blf" with entities [LocalPlayer, LocalPlayer], work=[563*, 0*]
207: 0x06D2 [0x1C] WAIT(15* ticks)
208: 0x06D5 [0xAB] EventEntity->DespawnValue = 0* // Set despawn value
209: 0x06D9 [0x1C] WAIT(1* ticks)
210: 0x06DC [0x46] CAMERA_CONTROL: Restore default settings
211: 0x06DE [0x45] LOAD_SCHEDULED_TASK: Load scheduler "fdi2" with entities [LocalPlayer, LocalPlayer], work=[200*, 0*]
212: 0x06EF [0x21] END_EVENT
213: 0x06F0 [0x00] END_REQSTACK()
```

### Event 24

#### Metadata

| Field        | Value     |
|--------------|-----------|
| Entrypoint   | 0x06F1    |
| Data Size    | 553 bytes |
| Instructions | 81        |

```
      00 01 02 03 04 05 06 07  08 09 0A 0B 0C 0D 0E 0F
      -- -- -- -- -- -- -- --  -- -- -- -- -- -- -- --
06F0:    42 2B 74 10 10 01 39  80 23 24 3A 80 0D 80 0D   B+t...9.#$:....
0700: 80 25 02 00 10 0D 80 00  D3 08 1A 0C 25 46 01 38  .%..........%F.8
0710: 03 80 92 01 74 10 10 01  94 01 F0 FF FF 7F 94 01  ....t...........
0720: 74 10 10 01 BA F0 FF FF  7F 04 80 05 80 06 80 07  t...............
0730: 80 BA 74 10 10 01 08 80  09 80 06 80 0A 80 80 F0  ..t.............
0740: FF FF 7F 80 74 10 10 01  4A F0 FF FF 7F 74 10 10  ....t...J....t..
0750: 01 4A 74 10 10 01 F0 FF  FF 7F 6F 76 74 10 10 01  .Jt.......ovt...
0760: 1C 0B 80 29 10 F0 FF FF  7F 02 02 02 10 1C 80 80  ...)............
0770: 86 07 45 0C 80 F0 FF FF  7F F0 FF FF 7F 72 75 31  ..E..........ru1
0780: 37 0D 80 01 B3 07 02 02  10 1D 80 80 A2 07 45 0C  7.............E.
0790: 80 F0 FF FF 7F F0 FF FF  7F 72 75 31 37 0D 80 01  .........ru17...
07A0: B3 07 45 0C 80 F0 FF FF  7F F0 FF FF 7F 72 75 31  ..E..........ru1
07B0: 36 0D 80 1A EB 24 6E F0  FF FF 7F 2F 80 99 F0 FF  6....$n..../....
07C0: FF 7F 1C 10 80 52 0C 80  F0 FF FF 7F F0 FF FF 7F  .....R..........
07D0: 72 75 31 36 52 0C 80 F0  FF FF 7F F0 FF FF 7F 72  ru16R..........r
07E0: 75 31 37 45 0C 80 F0 FF  FF 7F F0 FF FF 7F 72 75  u17E..........ru
07F0: 32 30 0D 80 6E 74 10 10  01 13 80 99 74 10 10 01  20..nt......t...
0800: 2B 74 10 10 01 30 80 1C  10 80 23 52 0C 80 F0 FF  +t...0....#R....
0810: FF 7F F0 FF FF 7F 72 75  32 30 45 0C 80 F0 FF FF  ......ru20E.....
0820: 7F F0 FF FF 7F 72 75 31  39 0D 80 66 0E 80 74 10  .....ru19..f..t.
0830: 10 01 74 10 10 01 74 77  61 30 2B 74 10 10 01 31  ..t...twa0+t...1
0840: 80 23 2B 74 10 10 01 32  80 23 52 0C 80 F0 FF FF  .#+t...2.#R.....
0850: 7F F0 FF FF 7F 72 75 31  39 45 0C 80 F0 FF FF 7F  .....ru19E......
0860: F0 FF FF 7F 72 75 32 31  0D 80 66 0E 80 74 10 10  ....ru21..f..t..
0870: 01 74 10 10 01 74 77 61  31 03 02 10 33 80 2B 74  .t...twa1...3.+t
0880: 10 10 01 34 80 23 2B 74  10 10 01 35 80 23 53 74  ...4.#+t...5.#St
0890: 10 10 01 74 10 10 01 74  6C 63 31 05 01 10 1A 0C  ...t...tlc1.....
08A0: 25 1C 0B 80 52 0C 80 F0  FF FF 7F F0 FF FF 7F 72  %...R..........r
08B0: 75 32 31 45 0C 80 F0 FF  FF 7F F0 FF FF 7F 30 62  u21E..........0b
08C0: 6C 66 0D 80 1C 37 80 AB  11 0D 80 1C 16 80 46 00  lf...7........F.
08D0: 01 07 09 02 00 10 16 80  00 07 09 6E F0 FF FF 7F  ...........n....
08E0: 03 80 99 F0 FF FF 7F 1C  10 80 6E 74 10 10 01 1D  ..........nt....
08F0: 80 99 74 10 10 01 2B 74  10 10 01 36 80 1C 10 80  ..t...+t...6....
0900: 23 06 01 10 01 07 09 45  38 80 F0 FF FF 7F F0 FF  #......E8.......
0910: FF 7F 66 64 69 32 0D 80  21 00                    ..fdi2..!.      
```

#### Opcodes

```
  0: 0x06F1 [0x42] SET_CLI_EVENT_CANCEL_DATA()
  1: 0x06F2 [0x2B] Octavien (ID: 17830004/0x01101074) [12586*]:
    → "So, you return. Have you decided to tiptoe along the path of runic arts and to always be prepared for a perilous fall from grace?"
  2: 0x06F9 [0x23] WAIT_FOR_DIALOG_INTERACTION
  3: 0x06FA [0x24] CREATE_DIALOG(message_id=12587*, default_option=0*, option_flags=0*)
    → "Tiptoe the path of runic enlightenment? [Yes, and may I never stray!/Nope, I'm not that committed.]"
  4: 0x0701 [0x25] WAIT_DIALOG_SELECT()
  5: 0x0702 [0x02] IF !(Work_Zone[0] == 0*) GOTO 0x08D3
  6: 0x070A [0x1A] CALL_SUBROUTINE(address=0x250C)
  7: 0x070D [0x46] CAMERA_CONTROL: Disable user control
  8: 0x070F [0x38] SET_CLIENT_EVENT_MODE(mode=19*)
  9: 0x0712 [0x92] Octavien (ID: 17830004/0x01101074)->Render.Flags3 ^= 0x01
 10: 0x0718 [0x94] LocalPlayer->Render.Flags3 ^= 0x01
 11: 0x071E [0x94] Octavien (ID: 17830004/0x01101074)->Render.Flags3 ^= 0x01
 12: 0x0724 [0xBA] SET_ENTITY_POSITION(entity_id=LocalPlayer, pos_x=0.089*, pos_z=-20.645*, pos_y=-11.439*, direction=207.1°*)
 13: 0x0731 [0xBA] SET_ENTITY_POSITION(entity_id=Octavien (ID: 17830004/0x01101074), pos_x=-1.766*, pos_z=-19.494*, pos_y=-11.439*, direction=177.1°*)
 14: 0x073E [0x80] LOAD_WAIT(entity=LocalPlayer)
 15: 0x0743 [0x80] LOAD_WAIT(entity=Octavien (ID: 17830004/0x01101074))
 16: 0x0748 [0x4A] LocalPlayer looks at Octavien (ID: 17830004/0x01101074)
 17: 0x0751 [0x4A] Octavien (ID: 17830004/0x01101074) looks at LocalPlayer
 18: 0x075A [0x6F] WAIT_FRAME_DELAY: Yield until WaitTime reaches zero
 19: 0x075B [0x76] CHECK_ENTITY_RENDER_FLAGS: Wait until Octavien (ID: 17830004/0x01101074) Render.Flags0 and Render.Flags3 conditions are met
 20: 0x0760 [0x1C] WAIT(30* ticks)
 21: 0x0763 [0x29] REQ_SET_WAIT(priority=0x10, entity_id=LocalPlayer, tag_num=0x02)
 22: 0x076A [0x02] IF !(Work_Zone[2] == 5*) GOTO 0x0786
 23: 0x0772 [0x45] LOAD_SCHEDULED_TASK: Load scheduler "ru17" with entities [LocalPlayer, LocalPlayer], work=[563*, 0*]
 24: 0x0783 [0x01] GOTO 0x07B3
 25: 0x0786 [0x02] IF !(Work_Zone[2] == 6*) GOTO 0x07A2
 26: 0x078E [0x45] LOAD_SCHEDULED_TASK: Load scheduler "ru17" with entities [LocalPlayer, LocalPlayer], work=[563*, 0*]
 27: 0x079F [0x01] GOTO 0x07B3
 28: 0x07A2 [0x45] LOAD_SCHEDULED_TASK: Load scheduler "ru16" with entities [LocalPlayer, LocalPlayer], work=[563*, 0*]

SUBROUTINE_07B3:
 29: 0x07B3 [0x1A] CALL_SUBROUTINE(address=0x24EB)
 30: 0x07B6 [0x6E] LocalPlayer uses emote 36*
 31: 0x07BD [0x99] Wait for LocalPlayer animation to complete
 32: 0x07C2 [0x1C] WAIT(120* ticks)
 33: 0x07C5 [0x52] END_LOAD_SCHEDULER: End scheduler "ru16" with entities [LocalPlayer, LocalPlayer], work=563*
 34: 0x07D4 [0x52] END_LOAD_SCHEDULER: End scheduler "ru17" with entities [LocalPlayer, LocalPlayer], work=563*
 35: 0x07E3 [0x45] LOAD_SCHEDULED_TASK: Load scheduler "ru20" with entities [LocalPlayer, LocalPlayer], work=[563*, 0*]
 36: 0x07F4 [0x6E] Octavien (ID: 17830004/0x01101074) uses emote 7*
 37: 0x07FB [0x99] Wait for Octavien (ID: 17830004/0x01101074) animation to complete
 38: 0x0800 [0x2B] Octavien (ID: 17830004/0x01101074) [12589*]:
    → "Straight and true flies the arrow of righteousness, and so--in a similar fashion--has your answer hit its mark."
 39: 0x0807 [0x1C] WAIT(120* ticks)
 40: 0x080A [0x23] WAIT_FOR_DIALOG_INTERACTION
 41: 0x080B [0x52] END_LOAD_SCHEDULER: End scheduler "ru20" with entities [LocalPlayer, LocalPlayer], work=563*
 42: 0x081A [0x45] LOAD_SCHEDULED_TASK: Load scheduler "ru19" with entities [LocalPlayer, LocalPlayer], work=[563*, 0*]
 43: 0x082B [0x66] LOAD_EXT_SCHEDULER_MAIN: Load scheduler "twa0" with entities [Octavien (ID: 17830004/0x01101074), Octavien (ID: 17830004/0x01101074)], work=29*
 44: 0x083A [0x2B] Octavien (ID: 17830004/0x01101074) [12590*]:
    → "Your first step on the way to runic enlightenment will take you into the heart of darkness...for you must procure an atrament strong enough to overcome your body's resistance to runic material."
 45: 0x0841 [0x23] WAIT_FOR_DIALOG_INTERACTION
 46: 0x0842 [0x2B] Octavien (ID: 17830004/0x01101074) [12591*]:
    → "You are charged with collecting the proper ingredient to create this ink. Keep in mind that I send you upon this task not because of my revulsion toward menial labor, but so that you may familiarize yourself with what will become your new essence."
 47: 0x0849 [0x23] WAIT_FOR_DIALOG_INTERACTION
 48: 0x084A [0x52] END_LOAD_SCHEDULER: End scheduler "ru19" with entities [LocalPlayer, LocalPlayer], work=563*
 49: 0x0859 [0x45] LOAD_SCHEDULED_TASK: Load scheduler "ru21" with entities [LocalPlayer, LocalPlayer], work=[563*, 0*]
 50: 0x086A [0x66] LOAD_EXT_SCHEDULER_MAIN: Load scheduler "twa1" with entities [Octavien (ID: 17830004/0x01101074), Octavien (ID: 17830004/0x01101074)], work=29*
 51: 0x0879 [0x03] Work_Zone[2] = 2279*
 52: 0x087E [0x2B] Octavien (ID: 17830004/0x01101074) [12592*]:
    → "You should be able to find $6 along the coast of the Yahse Hunting Grounds, at K-7."
 53: 0x0885 [0x23] WAIT_FOR_DIALOG_INTERACTION
 54: 0x0886 [0x2B] Octavien (ID: 17830004/0x01101074) [12594*]:
    → "I wish you all the best, my friend."
 55: 0x088D [0x23] WAIT_FOR_DIALOG_INTERACTION
 56: 0x088E [0x53] WAIT_SCHEDULER_TASK: Wait for scheduler "tlc1" with entities [Octavien (ID: 17830004/0x01101074), Octavien (ID: 17830004/0x01101074)]
 57: 0x089B [0x05] Work_Zone[1] = 1
 58: 0x089E [0x1A] CALL_SUBROUTINE(address=0x250C)
 59: 0x08A1 [0x1C] WAIT(30* ticks)
 60: 0x08A4 [0x52] END_LOAD_SCHEDULER: End scheduler "ru21" with entities [LocalPlayer, LocalPlayer], work=563*
 61: 0x08B3 [0x45] LOAD_SCHEDULED_TASK: Load scheduler "0blf" with entities [LocalPlayer, LocalPlayer], work=[563*, 0*]
 62: 0x08C4 [0x1C] WAIT(15* ticks)
 63: 0x08C7 [0xAB] EventEntity->DespawnValue = 0* // Set despawn value
 64: 0x08CB [0x1C] WAIT(1* ticks)
 65: 0x08CE [0x46] CAMERA_CONTROL: Restore default settings
 66: 0x08D0 [0x01] GOTO 0x0907
 67: 0x08D3 [0x02] IF !(Work_Zone[0] == 1*) GOTO 0x0907
 68: 0x08DB [0x6E] LocalPlayer uses emote 19*
 69: 0x08E2 [0x99] Wait for LocalPlayer animation to complete
 70: 0x08E7 [0x1C] WAIT(120* ticks)
 71: 0x08EA [0x6E] Octavien (ID: 17830004/0x01101074) uses emote 6*
 72: 0x08F1 [0x99] Wait for Octavien (ID: 17830004/0x01101074) animation to complete
 73: 0x08F6 [0x2B] Octavien (ID: 17830004/0x01101074) [12585*]:
    → "I suppose my intuition was wrong after all. Very well...but do not hesitate to return should you have a change of heart."
 74: 0x08FD [0x1C] WAIT(120* ticks)
 75: 0x0900 [0x23] WAIT_FOR_DIALOG_INTERACTION
 76: 0x0901 [0x06] Work_Zone[1] = 0
 77: 0x0904 [0x01] GOTO 0x0907

SUBROUTINE_0907:
 78: 0x0907 [0x45] LOAD_SCHEDULED_TASK: Load scheduler "fdi2" with entities [LocalPlayer, LocalPlayer], work=[200*, 0*]
 79: 0x0918 [0x21] END_EVENT
 80: 0x0919 [0x00] END_REQSTACK()
```

### Event 25

#### Metadata

| Field        | Value    |
|--------------|----------|
| Entrypoint   | 0x091A   |
| Data Size    | 97 bytes |
| Instructions | 17       |

```
      00 01 02 03 04 05 06 07  08 09 0A 0B 0C 0D 0E 0F
      -- -- -- -- -- -- -- --  -- -- -- -- -- -- -- --
0910:                                4A 74 10 10 01 F0            Jt....
0920: FF FF 7F 6F 76 74 10 10  01 2B 74 10 10 01 32 80  ...ovt...+t...2.
0930: 23 66 21 80 74 10 10 01  74 10 10 01 74 6C 6B 30  #f!.t...t...tlk0
0940: 03 02 10 33 80 2B 74 10  10 01 34 80 23 2B 74 10  ...3.+t...4.#+t.
0950: 10 01 3B 80 23 66 21 80  74 10 10 01 74 10 10 01  ..;.#f!.t...t...
0960: 74 6C 6B 31 2B 74 10 10  01 35 80 23 53 74 10 10  tlk1+t...5.#St..
0970: 01 74 10 10 01 74 6C 6B  31 21 00                 .t...tlk1!.     
```

#### Opcodes

```
  0: 0x091A [0x4A] Octavien (ID: 17830004/0x01101074) looks at LocalPlayer
  1: 0x0923 [0x6F] WAIT_FRAME_DELAY: Yield until WaitTime reaches zero
  2: 0x0924 [0x76] CHECK_ENTITY_RENDER_FLAGS: Wait until Octavien (ID: 17830004/0x01101074) Render.Flags0 and Render.Flags3 conditions are met
  3: 0x0929 [0x2B] Octavien (ID: 17830004/0x01101074) [12591*]:
    → "You are charged with collecting the proper ingredient to create this ink. Keep in mind that I send you upon this task not because of my revulsion toward menial labor, but so that you may familiarize yourself with what will become your new essence."
  4: 0x0930 [0x23] WAIT_FOR_DIALOG_INTERACTION
  5: 0x0931 [0x66] LOAD_EXT_SCHEDULER_MAIN: Load scheduler "tlk0" with entities [Octavien (ID: 17830004/0x01101074), Octavien (ID: 17830004/0x01101074)], work=169*
  6: 0x0940 [0x03] Work_Zone[2] = 2279*
  7: 0x0945 [0x2B] Octavien (ID: 17830004/0x01101074) [12592*]:
    → "You should be able to find $6 along the coast of the Yahse Hunting Grounds, at K-7."
  8: 0x094C [0x23] WAIT_FOR_DIALOG_INTERACTION
  9: 0x094D [0x2B] Octavien (ID: 17830004/0x01101074) [12593*]:
    → "The trail there will be long and hard; a fitting tribute to the path that lies before you."
 10: 0x0954 [0x23] WAIT_FOR_DIALOG_INTERACTION
 11: 0x0955 [0x66] LOAD_EXT_SCHEDULER_MAIN: Load scheduler "tlk1" with entities [Octavien (ID: 17830004/0x01101074), Octavien (ID: 17830004/0x01101074)], work=169*
 12: 0x0964 [0x2B] Octavien (ID: 17830004/0x01101074) [12594*]:
    → "I wish you all the best, my friend."
 13: 0x096B [0x23] WAIT_FOR_DIALOG_INTERACTION
 14: 0x096C [0x53] WAIT_SCHEDULER_TASK: Wait for scheduler "tlk1" with entities [Octavien (ID: 17830004/0x01101074), Octavien (ID: 17830004/0x01101074)]
 15: 0x0979 [0x21] END_EVENT
 16: 0x097A [0x00] END_REQSTACK()
```

### Event 26

#### Metadata

| Field        | Value      |
|--------------|------------|
| Entrypoint   | 0x097B     |
| Data Size    | 4179 bytes |
| Instructions | 512        |

```
      00 01 02 03 04 05 06 07  08 09 0A 0B 0C 0D 0E 0F
      -- -- -- -- -- -- -- --  -- -- -- -- -- -- -- --
0970:                                   42 1A 0C 25 06             B..%.
0980: 03 00 03 01 00 02 10 03  02 00 03 10 03 00 00 04  ................
0990: 10 29 10 F0 FF FF 7F 02  03 04 00 02 10 46 01 38  .)...........F.8
09A0: 03 80 92 01 74 10 10 01  94 01 F0 FF FF 7F 94 01  ....t...........
09B0: 74 10 10 01 BA F0 FF FF  7F 04 80 05 80 06 80 07  t...............
09C0: 80 BA 74 10 10 01 08 80  09 80 06 80 0A 80 80 F0  ..t.............
09D0: FF FF 7F 80 74 10 10 01  4A F0 FF FF 7F 74 10 10  ....t...J....t..
09E0: 01 4A 74 10 10 01 F0 FF  FF 7F 6F 76 74 10 10 01  .Jt.......ovt...
09F0: 1C 0B 80 02 01 00 16 80  00 1D 0A 45 0C 80 F0 FF  ...........E....
0A00: FF 7F F0 FF FF 7F 72 75  33 30 0D 80 1A EB 24 1C  ......ru30....$.
0A10: 10 80 2B 74 10 10 01 3C  80 23 01 69 0B 45 0C 80  ..+t...<.#.i.E..
0A20: F0 FF FF 7F F0 FF FF 7F  72 75 33 30 0D 80 1A EB  ........ru30....
0A30: 24 29 10 F0 FF FF 7F 18  1C 28 80 6E 74 10 10 01  $).......(.nt...
0A40: 13 80 99 74 10 10 01 2B  74 10 10 01 3D 80 1C 10  ...t...+t...=...
0A50: 80 23 7B 74 10 10 01 4B  74 10 10 01 3E 80 52 0C  .#{t...Kt...>.R.
0A60: 80 F0 FF FF 7F F0 FF FF  7F 72 75 33 30 45 0C 80  .........ru30E..
0A70: F0 FF FF 7F F0 FF FF 7F  72 75 33 32 0D 80 6F 76  ........ru32..ov
0A80: 74 10 10 01 03 02 10 33  80 2B 74 10 10 01 3F 80  t......3.+t...?.
0A90: 23 9F 40 80 74 10 10 01  74 10 10 01 66 72 73 74  #.@.t...t...frst
0AA0: 0D 80 1C 41 80 52 0C 80  F0 FF FF 7F F0 FF FF 7F  ...A.R..........
0AB0: 72 75 33 32 45 0C 80 F0  FF FF 7F F0 FF FF 7F 72  ru32E..........r
0AC0: 75 33 33 0D 80 1C 28 80  9F 40 80 74 10 10 01 74  u33...(..@.t...t
0AD0: 10 10 01 6F 6B 65 78 0D  80 1C 42 80 52 0C 80 F0  ...okex...B.R...
0AE0: FF FF 7F F0 FF FF 7F 72  75 33 33 45 0C 80 F0 FF  .......ru33E....
0AF0: FF 7F F0 FF FF 7F 72 75  33 34 0D 80 1C 28 80 4A  ......ru34...(.J
0B00: 74 10 10 01 F0 FF FF 7F  6F 76 74 10 10 01 2B 74  t.......ovt...+t
0B10: 10 10 01 43 80 23 52 0C  80 F0 FF FF 7F F0 FF FF  ...C.#R.........
0B20: 7F 72 75 33 34 45 0C 80  F0 FF FF 7F F0 FF FF 7F  .ru34E..........
0B30: 72 75 33 36 0D 80 2B 74  10 10 01 44 80 23 52 0C  ru36..+t...D.#R.
0B40: 80 F0 FF FF 7F F0 FF FF  7F 72 75 33 36 45 0C 80  .........ru36E..
0B50: F0 FF FF 7F F0 FF FF 7F  72 75 33 37 0D 80 1C 28  ........ru37...(
0B60: 80 2B 74 10 10 01 45 80  23 52 0C 80 F0 FF FF 7F  .+t...E.#R......
0B70: F0 FF FF 7F 72 75 33 30  52 0C 80 F0 FF FF 7F F0  ....ru30R.......
0B80: FF FF 7F 72 75 33 37 45  0C 80 F0 FF FF 7F F0 FF  ...ru37E........
0B90: FF 7F 72 75 33 38 0D 80  6E 74 10 10 01 0D 80 99  ..ru38..nt......
0BA0: 74 10 10 01 2B 74 10 10  01 46 80 1C 10 80 23 24  t...+t...F....#$
0BB0: 47 80 0D 80 0D 80 25 02  00 10 0D 80 00 33 0C 6E  G.....%......3.n
0BC0: F0 FF FF 7F 13 80 99 F0  FF FF 7F 1C 10 80 1A 0C  ................
0BD0: 25 1C 0B 80 BA F0 FF FF  7F 48 80 49 80 06 80 4A  %........H.I...J
0BE0: 80 BA 74 10 10 01 48 80  4B 80 06 80 4C 80 7B F0  ..t...H.K...L.{.
0BF0: FF FF 7F 7B 74 10 10 01  CD 4D 80 74 10 10 01 74  ...{t....M.t...t
0C00: 10 10 01 00 FE FE FE 0D  80 48 4E 80 23 52 0C 80  .........HN.#R..
0C10: F0 FF FF 7F F0 FF FF 7F  72 75 33 38 45 0C 80 F0  ........ru38E...
0C20: FF FF 7F F0 FF FF 7F 72  75 34 30 0D 80 1A EB 24  .......ru40....$
0C30: 01 8A 0C 02 00 10 16 80  00 8A 0C 6E F0 FF FF 7F  ...........n....
0C40: 03 80 99 F0 FF FF 7F 1C  10 80 52 0C 80 F0 FF FF  ..........R.....
0C50: 7F F0 FF FF 7F 72 75 33  38 45 0C 80 F0 FF FF 7F  .....ru38E......
0C60: F0 FF FF 7F 72 75 33 39  0D 80 6E 74 10 10 01 4F  ....ru39..nt...O
0C70: 80 99 74 10 10 01 2B 74  10 10 01 50 80 1C 10 80  ..t...+t...P....
0C80: 23 06 01 10 01 58 19 01  8A 0C 1C 41 80 2B 74 10  #....X.....A.+t.
0C90: 10 01 51 80 23 52 0C 80  F0 FF FF 7F F0 FF FF 7F  ..Q.#R..........
0CA0: 72 75 34 30 45 0C 80 F0  FF FF 7F F0 FF FF 7F 72  ru40E..........r
0CB0: 75 34 32 0D 80 AD 02 52  80 74 10 10 01 74 10 10  u42....R.t...t..
0CC0: 01 1C 42 80 CD 4D 80 74  10 10 01 74 10 10 01 63  ..B..M.t...t...c
0CD0: 73 74 30 0D 80 66 53 80  74 10 10 01 74 10 10 01  st0..fS.t...t...
0CE0: 72 6E 30 30 1C 28 80 52  0C 80 F0 FF FF 7F F0 FF  rn00.(.R........
0CF0: FF 7F 72 75 34 32 45 0C  80 F0 FF FF 7F F0 FF FF  ..ru42E.........
0D00: 7F 72 75 34 37 0D 80 CD  4D 80 F0 FF FF 7F F0 FF  .ru47...M.......
0D10: FF 7F 74 67 74 30 0D 80  29 10 F0 FF FF 7F 06 02  ..tgt0..).......
0D20: 00 00 0D 80 00 34 0D 40  0D 80 54 80 01 10 16 80  .....4.@..T.....
0D30: 43 00 43 01 52 0C 80 F0  FF FF 7F F0 FF FF 7F 72  C.C.R..........r
0D40: 75 34 37 45 0C 80 F0 FF  FF 7F F0 FF FF 7F 72 75  u47E..........ru
0D50: 34 38 0D 80 2B 74 10 10  01 55 80 23 52 0C 80 F0  48..+t...U.#R...
0D60: FF FF 7F F0 FF FF 7F 72  75 34 38 45 0C 80 F0 FF  .......ru48E....
0D70: FF 7F F0 FF FF 7F 72 75  34 39 0D 80 1C 0B 80 29  ......ru49.....)
0D80: 10 F0 FF FF 7F 07 1C 28  80 6E 74 10 10 01 2F 80  .......(.nt.../.
0D90: 99 74 10 10 01 2B 74 10  10 01 56 80 23 06 05 00  .t...+t...V.#...
0DA0: 52 0C 80 F0 FF FF 7F F0  FF FF 7F 72 75 34 39 45  R..........ru49E
0DB0: 0C 80 F0 FF FF 7F F0 FF  FF 7F 72 75 35 32 0D 80  ..........ru52..
0DC0: 03 02 10 05 00 24 57 80  0D 80 0D 80 25 02 00 10  .....$W.....%...
0DD0: 0D 80 00 49 0E 07 05 00  16 80 02 05 00 0B 80 03  ...I............
0DE0: F5 0D 13 06 00 58 80 02  06 00 58 80 00 F2 0D 01  .....X....X.....
0DF0: E2 12 01 3B 0E 02 05 00  28 80 03 10 0E 13 06 00  ...;....(.......
0E00: 59 80 02 06 00 59 80 00  0D 0E 01 E2 12 01 3B 0E  Y....Y........;.
0E10: 02 05 00 14 80 03 2B 0E  13 06 00 5A 80 02 06 00  ......+....Z....
0E20: 5A 80 00 28 0E 01 E2 12  01 3B 0E 13 06 00 5B 80  Z..(.....;....[.
0E30: 02 06 00 5B 80 00 3B 0E  01 E2 12 02 05 00 58 80  ...[..;.......X.
0E40: 00 46 0E 01 E2 12 01 08  0F 02 00 10 16 80 00 08  .F..............
0E50: 0F 52 0C 80 F0 FF FF 7F  F0 FF FF 7F 72 75 34 39  .R..........ru49
0E60: 45 0C 80 F0 FF FF 7F F0  FF FF 7F 72 75 35 30 0D  E..........ru50.
0E70: 80 03 02 10 05 00 2B 74  10 10 01 5C 80 23 24 5D  ......+t...\.#$]
0E80: 80 16 80 0D 80 25 02 00  10 0D 80 00 E8 0E 29 10  .....%........).
0E90: F0 FF FF 7F 1A 7B F0 FF  FF 7F 1C 5E 80 52 0C 80  .....{.....^.R..
0EA0: F0 FF FF 7F F0 FF FF 7F  72 75 35 30 45 0C 80 F0  ........ru50E...
0EB0: FF FF 7F F0 FF FF 7F 72  75 35 31 0D 80 1C 0B 80  .......ru51.....
0EC0: 2B 74 10 10 01 5F 80 23  6E 74 10 10 01 0D 80 99  +t..._.#nt......
0ED0: 74 10 10 01 2B 74 10 10  01 60 80 1C 10 80 23 06  t...+t...`....#.
0EE0: 01 10 01 58 19 01 05 0F  02 00 10 16 80 00 05 0F  ...X............
0EF0: 52 0C 80 F0 FF FF 7F F0  FF FF 7F 72 75 35 30 01  R..........ru50.
0F00: A0 0D 01 05 0F 01 08 0F  27 10 F0 FF FF 7F 19 02  ........'.......
0F10: 04 00 16 80 80 3A 0F 52  0C 80 F0 FF FF 7F F0 FF  .....:.R........
0F20: FF 7F 72 75 35 32 45 0C  80 F0 FF FF 7F F0 FF FF  ..ru52E.........
0F30: 7F 72 68 6D 31 0D 80 01  67 10 02 04 00 54 80 80  .rhm1...g....T..
0F40: 65 0F 52 0C 80 F0 FF FF  7F F0 FF FF 7F 72 75 35  e.R..........ru5
0F50: 32 45 0C 80 F0 FF FF 7F  F0 FF FF 7F 72 68 66 31  2E..........rhf1
0F60: 0D 80 01 67 10 02 04 00  61 80 80 90 0F 52 0C 80  ...g....a....R..
0F70: F0 FF FF 7F F0 FF FF 7F  72 75 35 32 45 0C 80 F0  ........ru52E...
0F80: FF FF 7F F0 FF FF 7F 72  65 6D 31 0D 80 01 67 10  .......rem1...g.
0F90: 02 04 00 62 80 80 BB 0F  52 0C 80 F0 FF FF 7F F0  ...b....R.......
0FA0: FF FF 7F 72 75 35 32 45  0C 80 F0 FF FF 7F F0 FF  ...ru52E........
0FB0: FF 7F 72 65 66 31 0D 80  01 67 10 02 04 00 1C 80  ..ref1...g......
0FC0: 80 E6 0F 52 0C 80 F0 FF  FF 7F F0 FF FF 7F 72 75  ...R..........ru
0FD0: 35 32 45 0C 80 F0 FF FF  7F F0 FF FF 7F 72 74 72  52E..........rtr
0FE0: 31 0D 80 01 67 10 02 04  00 1D 80 80 11 10 52 0C  1...g.........R.
0FF0: 80 F0 FF FF 7F F0 FF FF  7F 72 75 35 32 45 0C 80  .........ru52E..
1000: F0 FF FF 7F F0 FF FF 7F  72 74 72 31 0D 80 01 67  ........rtr1...g
1010: 10 02 04 00 13 80 80 3C  10 52 0C 80 F0 FF FF 7F  .......<.R......
1020: F0 FF FF 7F 72 75 35 32  45 0C 80 F0 FF FF 7F F0  ....ru52E.......
1030: FF FF 7F 72 6D 74 31 0D  80 01 67 10 02 04 00 63  ...rmt1...g....c
1040: 80 80 67 10 52 0C 80 F0  FF FF 7F F0 FF FF 7F 72  ..g.R..........r
1050: 75 35 32 45 0C 80 F0 FF  FF 7F F0 FF FF 7F 72 67  u52E..........rg
1060: 6C 31 0D 80 01 67 10 1C  64 80 03 02 10 05 00 02  l1...g..d.......
1070: 05 00 5B 80 80 AC 10 45  0C 80 F0 FF FF 7F F0 FF  ..[....E........
1080: FF 7F 73 63 32 30 0D 80  6E 74 10 10 01 0F 80 99  ..sc20..nt......
1090: 74 10 10 01 40 0D 80 54  80 01 10 54 80 43 00 43  t...@..T...T.C.C
10A0: 01 2B 74 10 10 01 65 80  23 01 49 12 02 05 00 4F  .+t...e.#.I....O
10B0: 80 80 DC 10 45 0C 80 F0  FF FF 7F F0 FF FF 7F 73  ....E..........s
10C0: 63 32 31 0D 80 6E 74 10  10 01 1D 80 99 74 10 10  c21..nt......t..
10D0: 01 2B 74 10 10 01 66 80  23 01 49 12 02 05 00 0B  .+t...f.#.I.....
10E0: 80 80 0C 11 45 0C 80 F0  FF FF 7F F0 FF FF 7F 73  ....E..........s
10F0: 63 32 32 0D 80 6E 74 10  10 01 17 80 99 74 10 10  c22..nt......t..
1100: 01 2B 74 10 10 01 67 80  23 01 49 12 02 05 00 68  .+t...g.#.I....h
1110: 80 80 3C 11 45 0C 80 F0  FF FF 7F F0 FF FF 7F 73  ..<.E..........s
1120: 63 32 33 0D 80 6E 74 10  10 01 69 80 99 74 10 10  c23..nt...i..t..
1130: 01 2B 74 10 10 01 6A 80  23 01 49 12 02 05 00 59  .+t...j.#.I....Y
1140: 80 80 6C 11 45 0C 80 F0  FF FF 7F F0 FF FF 7F 73  ..l.E..........s
1150: 63 32 34 0D 80 6E 74 10  10 01 17 80 99 74 10 10  c24..nt......t..
1160: 01 2B 74 10 10 01 6B 80  23 01 49 12 02 05 00 28  .+t...k.#.I....(
1170: 80 80 9C 11 45 0C 80 F0  FF FF 7F F0 FF FF 7F 73  ....E..........s
1180: 63 32 35 0D 80 6E 74 10  10 01 4F 80 99 74 10 10  c25..nt...O..t..
1190: 01 2B 74 10 10 01 6C 80  23 01 49 12 02 05 00 6D  .+t...l.#.I....m
11A0: 80 80 C0 11 45 0C 80 F0  FF FF 7F F0 FF FF 7F 73  ....E..........s
11B0: 63 32 36 0D 80 2B 74 10  10 01 6E 80 23 01 49 12  c26..+t...n.#.I.
11C0: 02 05 00 6F 80 80 F0 11  45 0C 80 F0 FF FF 7F F0  ...o....E.......
11D0: FF FF 7F 73 63 32 37 0D  80 7C 00 74 10 10 01 2B  ...sc27..|.t...+
11E0: 74 10 10 01 70 80 23 7C  01 74 10 10 01 01 49 12  t...p.#|.t....I.
11F0: 02 05 00 14 80 80 20 12  45 0C 80 F0 FF FF 7F F0  ...... .E.......
1200: FF FF 7F 73 63 32 38 0D  80 6E 74 10 10 01 5A 80  ...sc28..nt...Z.
1210: 99 74 10 10 01 2B 74 10  10 01 71 80 23 01 49 12  .t...+t...q.#.I.
1220: 02 05 00 72 80 80 49 12  45 0C 80 F0 FF FF 7F F0  ...r..I.E.......
1230: FF FF 7F 73 63 32 39 0D  80 03 02 10 58 80 2B 74  ...sc29.....X.+t
1240: 10 10 01 73 80 23 01 49  12 52 0C 80 F0 FF FF 7F  ...s.#.I.R......
1250: F0 FF FF 7F 73 63 32 30  52 0C 80 F0 FF FF 7F F0  ....sc20R.......
1260: FF FF 7F 73 63 32 31 52  0C 80 F0 FF FF 7F F0 FF  ...sc21R........
1270: FF 7F 73 63 32 32 52 0C  80 F0 FF FF 7F F0 FF FF  ..sc22R.........
1280: 7F 73 63 32 33 52 0C 80  F0 FF FF 7F F0 FF FF 7F  .sc23R..........
1290: 73 63 32 34 52 0C 80 F0  FF FF 7F F0 FF FF 7F 73  sc24R..........s
12A0: 63 32 35 52 0C 80 F0 FF  FF 7F F0 FF FF 7F 73 63  c25R..........sc
12B0: 32 36 52 0C 80 F0 FF FF  7F F0 FF FF 7F 73 63 32  26R..........sc2
12C0: 37 52 0C 80 F0 FF FF 7F  F0 FF FF 7F 73 63 32 38  7R..........sc28
12D0: 52 0C 80 F0 FF FF 7F F0  FF FF 7F 73 63 32 39 01  R..........sc29.
12E0: A0 0D AD 02 74 80 F0 FF  FF 7F F0 FF FF 7F 02 04  ....t...........
12F0: 00 16 80 80 0A 13 45 0C  80 F0 FF FF 7F F0 FF FF  ......E.........
1300: 7F 72 68 6D 32 0D 80 01  CE 13 02 04 00 54 80 80  .rhm2........T..
1310: 26 13 45 0C 80 F0 FF FF  7F F0 FF FF 7F 72 68 66  &.E..........rhf
1320: 32 0D 80 01 CE 13 02 04  00 61 80 80 42 13 45 0C  2........a..B.E.
1330: 80 F0 FF FF 7F F0 FF FF  7F 72 65 6D 32 0D 80 01  .........rem2...
1340: CE 13 02 04 00 62 80 80  5E 13 45 0C 80 F0 FF FF  .....b..^.E.....
1350: 7F F0 FF FF 7F 72 65 66  32 0D 80 01 CE 13 02 04  .....ref2.......
1360: 00 1C 80 80 7A 13 45 0C  80 F0 FF FF 7F F0 FF FF  ....z.E.........
1370: 7F 72 74 72 32 0D 80 01  CE 13 02 04 00 1D 80 80  .rtr2...........
1380: 96 13 45 0C 80 F0 FF FF  7F F0 FF FF 7F 72 74 72  ..E..........rtr
1390: 32 0D 80 01 CE 13 02 04  00 13 80 80 B2 13 45 0C  2.............E.
13A0: 80 F0 FF FF 7F F0 FF FF  7F 72 6D 74 32 0D 80 01  .........rmt2...
13B0: CE 13 02 04 00 63 80 80  CE 13 45 0C 80 F0 FF FF  .....c....E.....
13C0: 7F F0 FF FF 7F 72 67 6C  32 0D 80 01 CE 13 1C 75  .....rgl2......u
13D0: 80 02 00 00 0D 80 00 EF  13 40 0D 80 54 80 01 10  .........@..T...
13E0: 61 80 40 61 80 76 80 01  10 05 00 43 00 43 01 03  a.@a.v.....C.C..
13F0: 02 10 05 00 52 0C 80 F0  FF FF 7F F0 FF FF 7F 72  ....R..........r
1400: 68 6D 32 52 0C 80 F0 FF  FF 7F F0 FF FF 7F 72 68  hm2R..........rh
1410: 66 32 52 0C 80 F0 FF FF  7F F0 FF FF 7F 72 65 6D  f2R..........rem
1420: 32 52 0C 80 F0 FF FF 7F  F0 FF FF 7F 72 65 66 32  2R..........ref2
1430: 52 0C 80 F0 FF FF 7F F0  FF FF 7F 72 74 72 32 52  R..........rtr2R
1440: 0C 80 F0 FF FF 7F F0 FF  FF 7F 72 6D 74 32 52 0C  ..........rmt2R.
1450: 80 F0 FF FF 7F F0 FF FF  7F 72 67 6C 32 45 0C 80  .........rgl2E..
1460: F0 FF FF 7F F0 FF FF 7F  30 62 6C 66 0D 80 02 05  ........0blf....
1470: 00 16 80 00 DA 14 45 0C  80 F0 FF FF 7F F0 FF FF  ......E.........
1480: 7F 73 63 30 31 0D 80 6E  74 10 10 01 27 80 99 74  .sc01..nt...'..t
1490: 10 10 01 2B 74 10 10 01  77 80 1C 41 80 23 52 0C  ...+t...w..A.#R.
14A0: 80 F0 FF FF 7F F0 FF FF  7F 73 63 30 31 45 0C 80  .........sc01E..
14B0: F0 FF FF 7F F0 FF FF 7F  73 63 30 32 0D 80 7B 74  ........sc02..{t
14C0: 10 10 01 66 0E 80 74 10  10 01 74 10 10 01 74 68  ...f..t...t...th
14D0: 6B 31 2B 74 10 10 01 78  80 23 02 05 00 54 80 04  k1+t...x.#...T..
14E0: 03 15 02 05 00 76 80 05  03 15 45 0C 80 F0 FF FF  .....v....E.....
14F0: 7F F0 FF FF 7F 73 63 30  33 0D 80 2B 74 10 10 01  .....sc03..+t...
1500: 79 80 23 02 05 00 5B 80  04 2C 15 02 05 00 0E 80  y.#...[..,......
1510: 05 2C 15 45 0C 80 F0 FF  FF 7F F0 FF FF 7F 73 63  .,.E..........sc
1520: 30 34 0D 80 2B 74 10 10  01 7A 80 23 02 05 00 0B  04..+t...z.#....
1530: 80 04 55 15 02 05 00 7B  80 05 55 15 45 0C 80 F0  ..U....{..U.E...
1540: FF FF 7F F0 FF FF 7F 73  63 30 35 0D 80 2B 74 10  .......sc05..+t.
1550: 10 01 7C 80 23 02 05 00  28 80 04 7E 15 02 05 00  ..|.#...(..~....
1560: 04 80 05 7E 15 45 0C 80  F0 FF FF 7F F0 FF FF 7F  ...~.E..........
1570: 73 63 30 36 0D 80 2B 74  10 10 01 7D 80 23 02 05  sc06..+t...}.#..
1580: 00 14 80 04 A7 15 02 05  00 72 80 05 A7 15 45 0C  .........r....E.
1590: 80 F0 FF FF 7F F0 FF FF  7F 73 63 30 37 0D 80 2B  .........sc07..+
15A0: 74 10 10 01 7E 80 23 02  05 00 58 80 00 C8 15 45  t...~.#...X....E
15B0: 0C 80 F0 FF FF 7F F0 FF  FF 7F 73 63 30 38 0D 80  ..........sc08..
15C0: 2B 74 10 10 01 7F 80 23  02 05 00 4F 80 04 01 16  +t.....#...O....
15D0: 66 0E 80 74 10 10 01 74  10 10 01 74 77 62 30 2B  f..t...t...twb0+
15E0: 74 10 10 01 80 80 23 66  0E 80 74 10 10 01 74 10  t.....#f..t...t.
15F0: 10 01 74 77 62 31 1C 0B  80 2B 74 10 10 01 81 80  ..twb1...+t.....
1600: 23 1A 0C 25 1C 0B 80 52  0C 80 F0 FF FF 7F F0 FF  #..%...R........
1610: FF 7F 73 63 30 32 52 0C  80 F0 FF FF 7F F0 FF FF  ..sc02R.........
1620: 7F 73 63 30 33 52 0C 80  F0 FF FF 7F F0 FF FF 7F  .sc03R..........
1630: 73 63 30 34 52 0C 80 F0  FF FF 7F F0 FF FF 7F 73  sc04R..........s
1640: 63 30 35 52 0C 80 F0 FF  FF 7F F0 FF FF 7F 73 63  c05R..........sc
1650: 30 36 52 0C 80 F0 FF FF  7F F0 FF FF 7F 73 63 30  06R..........sc0
1660: 37 52 0C 80 F0 FF FF 7F  F0 FF FF 7F 73 63 30 38  7R..........sc08
1670: 6B 69 64 6C 30 74 10 10  01 BA F0 FF FF 7F 04 80  kidl0t..........
1680: 05 80 06 80 07 80 BA 74  10 10 01 08 80 09 80 06  .......t........
1690: 80 0A 80 80 F0 FF FF 7F  80 74 10 10 01 4A F0 FF  .........t...J..
16A0: FF 7F 74 10 10 01 4A 74  10 10 01 F0 FF FF 7F 6F  ..t...Jt.......o
16B0: 76 74 10 10 01 48 4E 80  23 45 0C 80 F0 FF FF 7F  vt...HN.#E......
16C0: F0 FF FF 7F 72 75 36 30  0D 80 1A EB 24 1C 14 80  ....ru60....$...
16D0: 52 0C 80 F0 FF FF 7F F0  FF FF 7F 72 75 36 30 45  R..........ru60E
16E0: 0C 80 F0 FF FF 7F F0 FF  FF 7F 72 75 36 31 0D 80  ..........ru61..
16F0: 6E 74 10 10 01 82 80 99  74 10 10 01 2B 74 10 10  nt......t...+t..
1700: 01 83 80 1C 10 80 23 52  0C 80 F0 FF FF 7F F0 FF  ......#R........
1710: FF 7F 72 75 36 31 45 0C  80 F0 FF FF 7F F0 FF FF  ..ru61E.........
1720: 7F 72 75 36 32 0D 80 2B  74 10 10 01 84 80 23 52  .ru62..+t.....#R
1730: 0C 80 F0 FF FF 7F F0 FF  FF 7F 72 75 36 32 45 0C  ..........ru62E.
1740: 80 F0 FF FF 7F F0 FF FF  7F 72 75 36 33 0D 80 29  .........ru63..)
1750: 10 F0 FF FF 7F 17 2B 74  10 10 01 85 80 23 6E F0  ......+t.....#n.
1760: FF FF 7F 13 80 99 F0 FF  FF 7F 1C 28 80 52 0C 80  ...........(.R..
1770: F0 FF FF 7F F0 FF FF 7F  72 75 36 33 45 0C 80 F0  ........ru63E...
1780: FF FF 7F F0 FF FF 7F 72  75 36 34 0D 80 66 0E 80  .......ru64..f..
1790: 74 10 10 01 74 10 10 01  74 77 62 30 2B 74 10 10  t...t...twb0+t..
17A0: 01 86 80 23 52 0C 80 F0  FF FF 7F F0 FF FF 7F 72  ...#R..........r
17B0: 75 36 34 45 0C 80 F0 FF  FF 7F F0 FF FF 7F 72 75  u64E..........ru
17C0: 36 35 0D 80 2B 74 10 10  01 87 80 23 66 0E 80 74  65..+t.....#f..t
17D0: 10 10 01 74 10 10 01 74  77 62 31 2B 74 10 10 01  ...t...twb1+t...
17E0: 88 80 23 53 74 10 10 01  74 10 10 01 74 77 62 31  ..#St...t...twb1
17F0: 52 0C 80 F0 FF FF 7F F0  FF FF 7F 72 75 36 35 45  R..........ru65E
1800: 0C 80 F0 FF FF 7F F0 FF  FF 7F 72 75 36 36 0D 80  ..........ru66..
1810: 6E 74 10 10 01 13 80 99  74 10 10 01 2B 74 10 10  nt......t...+t..
1820: 01 89 80 1C 41 80 23 52  0C 80 F0 FF FF 7F F0 FF  ....A.#R........
1830: FF 7F 72 75 36 36 45 0C  80 F0 FF FF 7F F0 FF FF  ..ru66E.........
1840: 7F 72 75 36 37 0D 80 66  21 80 74 10 10 01 74 10  .ru67..f!.t...t.
1850: 10 01 74 6C 6B 30 2B 74  10 10 01 8A 80 23 52 0C  ..tlk0+t.....#R.
1860: 80 F0 FF FF 7F F0 FF FF  7F 72 75 36 37 45 0C 80  .........ru67E..
1870: F0 FF FF 7F F0 FF FF 7F  72 75 36 38 0D 80 2B 74  ........ru68..+t
1880: 10 10 01 8B 80 23 66 21  80 74 10 10 01 74 10 10  .....#f!.t...t..
1890: 01 74 6C 6B 31 53 74 10  10 01 74 10 10 01 74 6C  .tlk1St...t...tl
18A0: 6B 31 52 0C 80 F0 FF FF  7F F0 FF FF 7F 72 75 36  k1R..........ru6
18B0: 38 45 0C 80 F0 FF FF 7F  F0 FF FF 7F 72 75 36 39  8E..........ru69
18C0: 0D 80 2B 74 10 10 01 8C  80 23 7B 74 10 10 01 66  ..+t.....#{t...f
18D0: 8D 80 74 10 10 01 74 10  10 01 70 61 73 30 53 74  ..t...t...pas0St
18E0: 10 10 01 74 10 10 01 70  61 73 30 03 02 10 8E 80  ...t...pas0.....
18F0: 2B 74 10 10 01 8F 80 23  52 0C 80 F0 FF FF 7F F0  +t.....#R.......
1900: FF FF 7F 72 75 36 39 45  0C 80 F0 FF FF 7F F0 FF  ...ru69E........
1910: FF 7F 72 75 37 30 0D 80  6E 74 10 10 01 0F 80 99  ..ru70..nt......
1920: 74 10 10 01 2B 74 10 10  01 90 80 1C 10 80 23 52  t...+t........#R
1930: 0C 80 F0 FF FF 7F F0 FF  FF 7F 72 75 37 30 45 0C  ..........ru70E.
1940: 80 F0 FF FF 7F F0 FF FF  7F 72 75 37 31 0D 80 1C  .........ru71...
1950: 41 80 05 01 10 05 03 00  1A 0C 25 1C 0B 80 6B 69  A.........%...ki
1960: 64 6C 30 F0 FF FF 7F 52  0C 80 F0 FF FF 7F F0 FF  dl0....R........
1970: FF 7F 72 75 35 31 52 0C  80 F0 FF FF 7F F0 FF FF  ..ru51R.........
1980: 7F 72 75 37 31 45 0C 80  F0 FF FF 7F F0 FF FF 7F  .ru71E..........
1990: 30 62 6C 66 0D 80 1C 37  80 AB 11 0D 80 1C 16 80  0blf...7........
19A0: 46 00 02 03 00 16 80 00  BB 19 45 91 80 F8 FF FF  F.........E.....
19B0: 7F F8 FF FF 7F 71 73 74  63 0D 80 45 38 80 F0 FF  .....qstc..E8...
19C0: FF 7F F0 FF FF 7F 66 64  69 32 0D 80 21 00        ......fdi2..!.  
```

#### Opcodes

```
  0: 0x097B [0x42] SET_CLI_EVENT_CANCEL_DATA()
  1: 0x097C [0x1A] CALL_SUBROUTINE(address=0x250C)
  2: 0x097F [0x06] ExtData[1]->WorkLocal[3] = 0
  3: 0x0982 [0x03] ExtData[1]->WorkLocal[1] = Work_Zone[2]
  4: 0x0987 [0x03] ExtData[1]->WorkLocal[2] = Work_Zone[3]
  5: 0x098C [0x03] ExtData[1]->WorkLocal[0] = Work_Zone[4]
  6: 0x0991 [0x29] REQ_SET_WAIT(priority=0x10, entity_id=LocalPlayer, tag_num=0x02)
  7: 0x0998 [0x03] ExtData[1]->WorkLocal[4] = Work_Zone[2]
  8: 0x099D [0x46] CAMERA_CONTROL: Disable user control
  9: 0x099F [0x38] SET_CLIENT_EVENT_MODE(mode=19*)
 10: 0x09A2 [0x92] Octavien (ID: 17830004/0x01101074)->Render.Flags3 ^= 0x01
 11: 0x09A8 [0x94] LocalPlayer->Render.Flags3 ^= 0x01
 12: 0x09AE [0x94] Octavien (ID: 17830004/0x01101074)->Render.Flags3 ^= 0x01
 13: 0x09B4 [0xBA] SET_ENTITY_POSITION(entity_id=LocalPlayer, pos_x=0.089*, pos_z=-20.645*, pos_y=-11.439*, direction=207.1°*)
 14: 0x09C1 [0xBA] SET_ENTITY_POSITION(entity_id=Octavien (ID: 17830004/0x01101074), pos_x=-1.766*, pos_z=-19.494*, pos_y=-11.439*, direction=177.1°*)
 15: 0x09CE [0x80] LOAD_WAIT(entity=LocalPlayer)
 16: 0x09D3 [0x80] LOAD_WAIT(entity=Octavien (ID: 17830004/0x01101074))
 17: 0x09D8 [0x4A] LocalPlayer looks at Octavien (ID: 17830004/0x01101074)
 18: 0x09E1 [0x4A] Octavien (ID: 17830004/0x01101074) looks at LocalPlayer
 19: 0x09EA [0x6F] WAIT_FRAME_DELAY: Yield until WaitTime reaches zero
 20: 0x09EB [0x76] CHECK_ENTITY_RENDER_FLAGS: Wait until Octavien (ID: 17830004/0x01101074) Render.Flags0 and Render.Flags3 conditions are met
 21: 0x09F0 [0x1C] WAIT(30* ticks)
 22: 0x09F3 [0x02] IF !(ExtData[1]->WorkLocal[1] == 1*) GOTO 0x0A1D
 23: 0x09FB [0x45] LOAD_SCHEDULED_TASK: Load scheduler "ru30" with entities [LocalPlayer, LocalPlayer], work=[563*, 0*]
 24: 0x0A0C [0x1A] CALL_SUBROUTINE(address=0x24EB)
 25: 0x0A0F [0x1C] WAIT(120* ticks)
 26: 0x0A12 [0x2B] Octavien (ID: 17830004/0x01101074) [12603*]:
    → "Feeling a bit more brave? Let me impress upon you that the stress of inscription is only a temporary inconvenience."
 27: 0x0A19 [0x23] WAIT_FOR_DIALOG_INTERACTION
 28: 0x0A1A [0x01] GOTO 0x0B69
 29: 0x0A1D [0x45] LOAD_SCHEDULED_TASK: Load scheduler "ru30" with entities [LocalPlayer, LocalPlayer], work=[563*, 0*]
 30: 0x0A2E [0x1A] CALL_SUBROUTINE(address=0x24EB)
 31: 0x0A31 [0x29] REQ_SET_WAIT(priority=0x10, entity_id=LocalPlayer, tag_num=0x18)
 32: 0x0A38 [0x1C] WAIT(60* ticks)
 33: 0x0A3B [0x6E] Octavien (ID: 17830004/0x01101074) uses emote 7*
 34: 0x0A42 [0x99] Wait for Octavien (ID: 17830004/0x01101074) animation to complete
 35: 0x0A47 [0x2B] Octavien (ID: 17830004/0x01101074) [12595*]:
    → "I can tell by the smile you're wearing that your travels did not overly wear you down. Wait but a moment and you shall have your atrament."
 36: 0x0A4E [0x1C] WAIT(120* ticks)
 37: 0x0A51 [0x23] WAIT_FOR_DIALOG_INTERACTION
 38: 0x0A52 [0x7B] Octavien (ID: 17830004/0x01101074) stops talking
 39: 0x0A57 [0x4B] UPDATE_ENTITY_YAW(entity=Octavien (ID: 17830004/0x01101074), yaw=19.4°*)
 40: 0x0A5E [0x52] END_LOAD_SCHEDULER: End scheduler "ru30" with entities [LocalPlayer, LocalPlayer], work=563*
 41: 0x0A6D [0x45] LOAD_SCHEDULED_TASK: Load scheduler "ru32" with entities [LocalPlayer, LocalPlayer], work=[563*, 0*]
 42: 0x0A7E [0x6F] WAIT_FRAME_DELAY: Yield until WaitTime reaches zero
 43: 0x0A7F [0x76] CHECK_ENTITY_RENDER_FLAGS: Wait until Octavien (ID: 17830004/0x01101074) Render.Flags0 and Render.Flags3 conditions are met
 44: 0x0A84 [0x03] Work_Zone[2] = 2279*
 45: 0x0A89 [0x2B] Octavien (ID: 17830004/0x01101074) [12596*]:
    → "Now to mix the $3 you brought with a runic stone ground into a fine powder... Double, double, runes and rubble, Magic burn and matter bubble!t"
 46: 0x0A90 [0x23] WAIT_FOR_DIALOG_INTERACTION
 47: 0x0A91 [0x9F] LOAD_SCHEDULED_TASK_ALT: Load scheduler "frst" with entities [Octavien (ID: 17830004/0x01101074), Octavien (ID: 17830004/0x01101074)], work=[194*, 0*]
 48: 0x0AA2 [0x1C] WAIT(150* ticks)
 49: 0x0AA5 [0x52] END_LOAD_SCHEDULER: End scheduler "ru32" with entities [LocalPlayer, LocalPlayer], work=563*
 50: 0x0AB4 [0x45] LOAD_SCHEDULED_TASK: Load scheduler "ru33" with entities [LocalPlayer, LocalPlayer], work=[563*, 0*]
 51: 0x0AC5 [0x1C] WAIT(60* ticks)
 52: 0x0AC8 [0x9F] LOAD_SCHEDULED_TASK_ALT: Load scheduler "okex" with entities [Octavien (ID: 17830004/0x01101074), Octavien (ID: 17830004/0x01101074)], work=[194*, 0*]
 53: 0x0AD9 [0x1C] WAIT(180* ticks)
 54: 0x0ADC [0x52] END_LOAD_SCHEDULER: End scheduler "ru33" with entities [LocalPlayer, LocalPlayer], work=563*
 55: 0x0AEB [0x45] LOAD_SCHEDULED_TASK: Load scheduler "ru34" with entities [LocalPlayer, LocalPlayer], work=[563*, 0*]
 56: 0x0AFC [0x1C] WAIT(60* ticks)
 57: 0x0AFF [0x4A] Octavien (ID: 17830004/0x01101074) looks at LocalPlayer
 58: 0x0B08 [0x6F] WAIT_FRAME_DELAY: Yield until WaitTime reaches zero
 59: 0x0B09 [0x76] CHECK_ENTITY_RENDER_FLAGS: Wait until Octavien (ID: 17830004/0x01101074) Render.Flags0 and Render.Flags3 conditions are met
 60: 0x0B0E [0x2B] Octavien (ID: 17830004/0x01101074) [12597*]:
    → "And so the preparations are complete. That incantation may have looked simple to the untrained eye, but that is only because I've distilled the process down to its very essence."
 61: 0x0B15 [0x23] WAIT_FOR_DIALOG_INTERACTION
 62: 0x0B16 [0x52] END_LOAD_SCHEDULER: End scheduler "ru34" with entities [LocalPlayer, LocalPlayer], work=563*
 63: 0x0B25 [0x45] LOAD_SCHEDULED_TASK: Load scheduler "ru36" with entities [LocalPlayer, LocalPlayer], work=[563*, 0*]
 64: 0x0B36 [0x2B] Octavien (ID: 17830004/0x01101074) [12598*]:
    → "How is your constitution? While inscribing runes may not leave scars, some report that the emotional stress of the event is quite overpowering..."
 65: 0x0B3D [0x23] WAIT_FOR_DIALOG_INTERACTION
 66: 0x0B3E [0x52] END_LOAD_SCHEDULER: End scheduler "ru36" with entities [LocalPlayer, LocalPlayer], work=563*
 67: 0x0B4D [0x45] LOAD_SCHEDULED_TASK: Load scheduler "ru37" with entities [LocalPlayer, LocalPlayer], work=[563*, 0*]
 68: 0x0B5E [0x1C] WAIT(60* ticks)
 69: 0x0B61 [0x2B] Octavien (ID: 17830004/0x01101074) [12599*]:
    → "Not to mention the physical pain."
 70: 0x0B68 [0x23] WAIT_FOR_DIALOG_INTERACTION

SUBROUTINE_0B69:
 71: 0x0B69 [0x52] END_LOAD_SCHEDULER: End scheduler "ru30" with entities [LocalPlayer, LocalPlayer], work=563*
 72: 0x0B78 [0x52] END_LOAD_SCHEDULER: End scheduler "ru37" with entities [LocalPlayer, LocalPlayer], work=563*
 73: 0x0B87 [0x45] LOAD_SCHEDULED_TASK: Load scheduler "ru38" with entities [LocalPlayer, LocalPlayer], work=[563*, 0*]
 74: 0x0B98 [0x6E] Octavien (ID: 17830004/0x01101074) uses emote 0*
 75: 0x0B9F [0x99] Wait for Octavien (ID: 17830004/0x01101074) animation to complete
 76: 0x0BA4 [0x2B] Octavien (ID: 17830004/0x01101074) [12600*]:
    → "Well, shall we begin?"
 77: 0x0BAB [0x1C] WAIT(120* ticks)
 78: 0x0BAE [0x23] WAIT_FOR_DIALOG_INTERACTION
 79: 0x0BAF [0x24] CREATE_DIALOG(message_id=12601*, default_option=0*, option_flags=0*)
    → "Begin the inscription? [P-please be gentle!/I...still harbor doubts.]"
 80: 0x0BB6 [0x25] WAIT_DIALOG_SELECT()
 81: 0x0BB7 [0x02] IF !(Work_Zone[0] == 0*) GOTO 0x0C33
 82: 0x0BBF [0x6E] LocalPlayer uses emote 7*
 83: 0x0BC6 [0x99] Wait for LocalPlayer animation to complete
 84: 0x0BCB [0x1C] WAIT(120* ticks)
 85: 0x0BCE [0x1A] CALL_SUBROUTINE(address=0x250C)
 86: 0x0BD1 [0x1C] WAIT(30* ticks)
 87: 0x0BD4 [0xBA] SET_ENTITY_POSITION(entity_id=LocalPlayer, pos_x=0.571*, pos_z=-21.489*, pos_y=-11.439*, direction=268.1°*)
 88: 0x0BE1 [0xBA] SET_ENTITY_POSITION(entity_id=Octavien (ID: 17830004/0x01101074), pos_x=0.571*, pos_z=-18.388*, pos_y=-11.439*, direction=87.4°*)
 89: 0x0BEE [0x7B] LocalPlayer stops talking
 90: 0x0BF3 [0x7B] Octavien (ID: 17830004/0x01101074) stops talking
 91: 0x0BF8 [0xCD] LOAD_SCHEDULED_TASK_ALT4: Load scheduler 0xFEFEFE00 with entities [Octavien (ID: 17830004/0x01101074), Octavien (ID: 17830004/0x01101074)], work=[142*, 0*]
 92: 0x0C09 [0x48] [System] [8289*]:
    → "@@"
 93: 0x0C0C [0x23] WAIT_FOR_DIALOG_INTERACTION
 94: 0x0C0D [0x52] END_LOAD_SCHEDULER: End scheduler "ru38" with entities [LocalPlayer, LocalPlayer], work=563*
 95: 0x0C1C [0x45] LOAD_SCHEDULED_TASK: Load scheduler "ru40" with entities [LocalPlayer, LocalPlayer], work=[563*, 0*]
 96: 0x0C2D [0x1A] CALL_SUBROUTINE(address=0x24EB)
 97: 0x0C30 [0x01] GOTO 0x0C8A
 98: 0x0C33 [0x02] IF !(Work_Zone[0] == 1*) GOTO 0x0C8A
 99: 0x0C3B [0x6E] LocalPlayer uses emote 19*
100: 0x0C42 [0x99] Wait for LocalPlayer animation to complete
101: 0x0C47 [0x1C] WAIT(120* ticks)
102: 0x0C4A [0x52] END_LOAD_SCHEDULER: End scheduler "ru38" with entities [LocalPlayer, LocalPlayer], work=563*
103: 0x0C59 [0x45] LOAD_SCHEDULED_TASK: Load scheduler "ru39" with entities [LocalPlayer, LocalPlayer], work=[563*, 0*]
104: 0x0C6A [0x6E] Octavien (ID: 17830004/0x01101074) uses emote 20*
105: 0x0C71 [0x99] Wait for Octavien (ID: 17830004/0x01101074) animation to complete
106: 0x0C76 [0x2B] Octavien (ID: 17830004/0x01101074) [12602*]:
    → "That's wholly understandable, considering what's at stake. Come back once you've calmed your nerves."
107: 0x0C7D [0x1C] WAIT(120* ticks)
108: 0x0C80 [0x23] WAIT_FOR_DIALOG_INTERACTION
109: 0x0C81 [0x06] Work_Zone[1] = 0
110: 0x0C84 [0x01] GOTO 0x1958

SUBROUTINE_0C8A:
111: 0x0C8A [0x1C] WAIT(150* ticks)
112: 0x0C8D [0x2B] Octavien (ID: 17830004/0x01101074) [12604*]:
    → "The time is upon us! Now grit your teeth and prepare to feel feelings you've never felt before!"
113: 0x0C94 [0x23] WAIT_FOR_DIALOG_INTERACTION
114: 0x0C95 [0x52] END_LOAD_SCHEDULER: End scheduler "ru40" with entities [LocalPlayer, LocalPlayer], work=563*
115: 0x0CA4 [0x45] LOAD_SCHEDULED_TASK: Load scheduler "ru42" with entities [LocalPlayer, LocalPlayer], work=[563*, 0*]
116: 0x0CB5 [0xAD] DUAL_ENTITY_SCHEDULER_HANDLER: Execute sub-case 2 with entities [Octavien (ID: 17830004/0x01101074), Octavien (ID: 17830004/0x01101074)], work=297*
117: 0x0CC1 [0x1C] WAIT(180* ticks)
118: 0x0CC4 [0xCD] LOAD_SCHEDULED_TASK_ALT4: Load scheduler "cst0" with entities [Octavien (ID: 17830004/0x01101074), Octavien (ID: 17830004/0x01101074)], work=[142*, 0*]
119: 0x0CD5 [0x66] LOAD_EXT_SCHEDULER_MAIN: Load scheduler "rn00" with entities [Octavien (ID: 17830004/0x01101074), Octavien (ID: 17830004/0x01101074)], work=97*
120: 0x0CE4 [0x1C] WAIT(60* ticks)
121: 0x0CE7 [0x52] END_LOAD_SCHEDULER: End scheduler "ru42" with entities [LocalPlayer, LocalPlayer], work=563*
122: 0x0CF6 [0x45] LOAD_SCHEDULED_TASK: Load scheduler "ru47" with entities [LocalPlayer, LocalPlayer], work=[563*, 0*]
123: 0x0D07 [0xCD] LOAD_SCHEDULED_TASK_ALT4: Load scheduler "tgt0" with entities [LocalPlayer, LocalPlayer], work=[142*, 0*]
124: 0x0D18 [0x29] REQ_SET_WAIT(priority=0x10, entity_id=LocalPlayer, tag_num=0x06)
125: 0x0D1F [0x02] IF !(ExtData[1]->WorkLocal[0] == 0*) GOTO 0x0D34
126: 0x0D27 [0x40] SET_BIT_WORK_RANGE(start_bit=0*, end_bit=2*, target=Work_Zone[1], source=1*)
127: 0x0D30 [0x43] SEND_EVENT_UPDATE: Send pending tag to server (packet 0x005B)
128: 0x0D32 [0x43] SEND_EVENT_UPDATE: Check pending flag (skip if not pending)
129: 0x0D34 [0x52] END_LOAD_SCHEDULER: End scheduler "ru47" with entities [LocalPlayer, LocalPlayer], work=563*
130: 0x0D43 [0x45] LOAD_SCHEDULED_TASK: Load scheduler "ru48" with entities [LocalPlayer, LocalPlayer], work=[563*, 0*]
131: 0x0D54 [0x2B] Octavien (ID: 17830004/0x01101074) [12605*]:
    → "You still remain conscious, I see."
132: 0x0D5B [0x23] WAIT_FOR_DIALOG_INTERACTION
133: 0x0D5C [0x52] END_LOAD_SCHEDULER: End scheduler "ru48" with entities [LocalPlayer, LocalPlayer], work=563*
134: 0x0D6B [0x45] LOAD_SCHEDULED_TASK: Load scheduler "ru49" with entities [LocalPlayer, LocalPlayer], work=[563*, 0*]
135: 0x0D7C [0x1C] WAIT(30* ticks)
136: 0x0D7F [0x29] REQ_SET_WAIT(priority=0x10, entity_id=LocalPlayer, tag_num=0x07)
137: 0x0D86 [0x1C] WAIT(60* ticks)
138: 0x0D89 [0x6E] Octavien (ID: 17830004/0x01101074) uses emote 36*
139: 0x0D90 [0x99] Wait for Octavien (ID: 17830004/0x01101074) animation to complete
140: 0x0D95 [0x2B] Octavien (ID: 17830004/0x01101074) [12606*]:
    → "Exquisite, but that was only the end of the beginning! Now 'tis time to deploy your runes that will inscribe the heavens!"
141: 0x0D9C [0x23] WAIT_FOR_DIALOG_INTERACTION
142: 0x0D9D [0x06] ExtData[1]->WorkLocal[5] = 0

SUBROUTINE_0DA0:
143: 0x0DA0 [0x52] END_LOAD_SCHEDULER: End scheduler "ru49" with entities [LocalPlayer, LocalPlayer], work=563*
144: 0x0DAF [0x45] LOAD_SCHEDULED_TASK: Load scheduler "ru52" with entities [LocalPlayer, LocalPlayer], work=[563*, 0*]
145: 0x0DC0 [0x03] Work_Zone[2] = ExtData[1]->WorkLocal[5]
146: 0x0DC5 [0x24] CREATE_DIALOG(message_id=12607*, default_option=0*, option_flags=0*)
    → "Attempt to inscribe the heavens? ($0/100) [Use Rune Enchantment...?/...I've had enough.]"
147: 0x0DCC [0x25] WAIT_DIALOG_SELECT()
148: 0x0DCD [0x02] IF !(Work_Zone[0] == 0*) GOTO 0x0E49
149: 0x0DD5 [0x07] ExtData[1]->WorkLocal[5] += 1*
150: 0x0DDA [0x02] IF !(ExtData[1]->WorkLocal[5] >= 30*) GOTO 0x0DF5
151: 0x0DE2 [0x13] ExtData[1]->WorkLocal[6] = rand() % 100*
152: 0x0DE7 [0x02] IF !(ExtData[1]->WorkLocal[6] == 100*) GOTO 0x0DF2
153: 0x0DEF [0x01] GOTO 0x12E2
154: 0x0DF2 [0x01] GOTO 0x0E3B
155: 0x0DF5 [0x02] IF !(ExtData[1]->WorkLocal[5] >= 60*) GOTO 0x0E10
156: 0x0DFD [0x13] ExtData[1]->WorkLocal[6] = rand() % 50*
157: 0x0E02 [0x02] IF !(ExtData[1]->WorkLocal[6] == 50*) GOTO 0x0E0D
158: 0x0E0A [0x01] GOTO 0x12E2
159: 0x0E0D [0x01] GOTO 0x0E3B
160: 0x0E10 [0x02] IF !(ExtData[1]->WorkLocal[5] >= 90*) GOTO 0x0E2B
161: 0x0E18 [0x13] ExtData[1]->WorkLocal[6] = rand() % 25*
162: 0x0E1D [0x02] IF !(ExtData[1]->WorkLocal[6] == 25*) GOTO 0x0E28
163: 0x0E25 [0x01] GOTO 0x12E2
164: 0x0E28 [0x01] GOTO 0x0E3B
165: 0x0E2B [0x13] ExtData[1]->WorkLocal[6] = rand() % 10*
166: 0x0E30 [0x02] IF !(ExtData[1]->WorkLocal[6] == 10*) GOTO 0x0E3B
167: 0x0E38 [0x01] GOTO 0x12E2

SUBROUTINE_0E3B:
168: 0x0E3B [0x02] IF !(ExtData[1]->WorkLocal[5] == 100*) GOTO 0x0E46
169: 0x0E43 [0x01] GOTO 0x12E2
170: 0x0E46 [0x01] GOTO 0x0F08
171: 0x0E49 [0x02] IF !(Work_Zone[0] == 1*) GOTO 0x0F08
172: 0x0E51 [0x52] END_LOAD_SCHEDULER: End scheduler "ru49" with entities [LocalPlayer, LocalPlayer], work=563*
173: 0x0E60 [0x45] LOAD_SCHEDULED_TASK: Load scheduler "ru50" with entities [LocalPlayer, LocalPlayer], work=[563*, 0*]
174: 0x0E71 [0x03] Work_Zone[2] = ExtData[1]->WorkLocal[5]
175: 0x0E76 [0x2B] Octavien (ID: 17830004/0x01101074) [12608*]:
    → "Throwing up your hands and throwing in the towel, are you? But this is only attempt number $0. The only thing that awaits you should you concede now is shame. Shame that will forever haunt you and your whole family."
176: 0x0E7D [0x23] WAIT_FOR_DIALOG_INTERACTION
177: 0x0E7E [0x24] CREATE_DIALOG(message_id=12609*, default_option=1*, option_flags=0*)
    → "Shame your family and give up? [Yes./No, I will persist!]"
178: 0x0E85 [0x25] WAIT_DIALOG_SELECT()
179: 0x0E86 [0x02] IF !(Work_Zone[0] == 0*) GOTO 0x0EE8
180: 0x0E8E [0x29] REQ_SET_WAIT(priority=0x10, entity_id=LocalPlayer, tag_num=0x1A)
181: 0x0E95 [0x7B] LocalPlayer stops talking
182: 0x0E9A [0x1C] WAIT(45* ticks)
183: 0x0E9D [0x52] END_LOAD_SCHEDULER: End scheduler "ru50" with entities [LocalPlayer, LocalPlayer], work=563*
184: 0x0EAC [0x45] LOAD_SCHEDULED_TASK: Load scheduler "ru51" with entities [LocalPlayer, LocalPlayer], work=[563*, 0*]
185: 0x0EBD [0x1C] WAIT(30* ticks)
186: 0x0EC0 [0x2B] Octavien (ID: 17830004/0x01101074) [12610*]:
    → "...Mayhap 'tis for the best. Let us just assume you had taken ill and we shall never speak of this again."
187: 0x0EC7 [0x23] WAIT_FOR_DIALOG_INTERACTION
188: 0x0EC8 [0x6E] Octavien (ID: 17830004/0x01101074) uses emote 0*
189: 0x0ECF [0x99] Wait for Octavien (ID: 17830004/0x01101074) animation to complete
190: 0x0ED4 [0x2B] Octavien (ID: 17830004/0x01101074) [12611*]:
    → "I am nothing if not forgiving, though. I shall give you a chance to redeem yourself whenever you see fit--if you can fit it into your busy schedule, that is."
191: 0x0EDB [0x1C] WAIT(120* ticks)
192: 0x0EDE [0x23] WAIT_FOR_DIALOG_INTERACTION
193: 0x0EDF [0x06] Work_Zone[1] = 0
194: 0x0EE2 [0x01] GOTO 0x1958

SUBROUTINE_0F05:
195: 0x0F05 [0x01] GOTO 0x0F08

SUBROUTINE_0F08:
196: 0x0F08 [0x27] REQ_SET(priority=0x10, entity_id=LocalPlayer, tag_num=0x19)
197: 0x0F0F [0x02] IF !(ExtData[1]->WorkLocal[4] == 1*) GOTO 0x0F3A
198: 0x0F17 [0x52] END_LOAD_SCHEDULER: End scheduler "ru52" with entities [LocalPlayer, LocalPlayer], work=563*
199: 0x0F26 [0x45] LOAD_SCHEDULED_TASK: Load scheduler "rhm1" with entities [LocalPlayer, LocalPlayer], work=[563*, 0*]
200: 0x0F37 [0x01] GOTO 0x1067
201: 0x0F3A [0x02] IF !(ExtData[1]->WorkLocal[4] == 2*) GOTO 0x0F65
202: 0x0F42 [0x52] END_LOAD_SCHEDULER: End scheduler "ru52" with entities [LocalPlayer, LocalPlayer], work=563*
203: 0x0F51 [0x45] LOAD_SCHEDULED_TASK: Load scheduler "rhf1" with entities [LocalPlayer, LocalPlayer], work=[563*, 0*]
204: 0x0F62 [0x01] GOTO 0x1067
205: 0x0F65 [0x02] IF !(ExtData[1]->WorkLocal[4] == 3*) GOTO 0x0F90
206: 0x0F6D [0x52] END_LOAD_SCHEDULER: End scheduler "ru52" with entities [LocalPlayer, LocalPlayer], work=563*
207: 0x0F7C [0x45] LOAD_SCHEDULED_TASK: Load scheduler "rem1" with entities [LocalPlayer, LocalPlayer], work=[563*, 0*]
208: 0x0F8D [0x01] GOTO 0x1067
209: 0x0F90 [0x02] IF !(ExtData[1]->WorkLocal[4] == 4*) GOTO 0x0FBB
210: 0x0F98 [0x52] END_LOAD_SCHEDULER: End scheduler "ru52" with entities [LocalPlayer, LocalPlayer], work=563*
211: 0x0FA7 [0x45] LOAD_SCHEDULED_TASK: Load scheduler "ref1" with entities [LocalPlayer, LocalPlayer], work=[563*, 0*]
212: 0x0FB8 [0x01] GOTO 0x1067
213: 0x0FBB [0x02] IF !(ExtData[1]->WorkLocal[4] == 5*) GOTO 0x0FE6
214: 0x0FC3 [0x52] END_LOAD_SCHEDULER: End scheduler "ru52" with entities [LocalPlayer, LocalPlayer], work=563*
215: 0x0FD2 [0x45] LOAD_SCHEDULED_TASK: Load scheduler "rtr1" with entities [LocalPlayer, LocalPlayer], work=[563*, 0*]
216: 0x0FE3 [0x01] GOTO 0x1067
217: 0x0FE6 [0x02] IF !(ExtData[1]->WorkLocal[4] == 6*) GOTO 0x1011
218: 0x0FEE [0x52] END_LOAD_SCHEDULER: End scheduler "ru52" with entities [LocalPlayer, LocalPlayer], work=563*
219: 0x0FFD [0x45] LOAD_SCHEDULED_TASK: Load scheduler "rtr1" with entities [LocalPlayer, LocalPlayer], work=[563*, 0*]
220: 0x100E [0x01] GOTO 0x1067
221: 0x1011 [0x02] IF !(ExtData[1]->WorkLocal[4] == 7*) GOTO 0x103C
222: 0x1019 [0x52] END_LOAD_SCHEDULER: End scheduler "ru52" with entities [LocalPlayer, LocalPlayer], work=563*
223: 0x1028 [0x45] LOAD_SCHEDULED_TASK: Load scheduler "rmt1" with entities [LocalPlayer, LocalPlayer], work=[563*, 0*]
224: 0x1039 [0x01] GOTO 0x1067
225: 0x103C [0x02] IF !(ExtData[1]->WorkLocal[4] == 8*) GOTO 0x1067
226: 0x1044 [0x52] END_LOAD_SCHEDULER: End scheduler "ru52" with entities [LocalPlayer, LocalPlayer], work=563*
227: 0x1053 [0x45] LOAD_SCHEDULED_TASK: Load scheduler "rgl1" with entities [LocalPlayer, LocalPlayer], work=[563*, 0*]
228: 0x1064 [0x01] GOTO 0x1067

SUBROUTINE_1067:
229: 0x1067 [0x1C] WAIT(110* ticks)
230: 0x106A [0x03] Work_Zone[2] = ExtData[1]->WorkLocal[5]
231: 0x106F [0x02] IF !(ExtData[1]->WorkLocal[5] == 10*) GOTO 0x10AC
232: 0x1077 [0x45] LOAD_SCHEDULED_TASK: Load scheduler "sc20" with entities [LocalPlayer, LocalPlayer], work=[563*, 0*]
233: 0x1088 [0x6E] Octavien (ID: 17830004/0x01101074) uses emote 32*
234: 0x108F [0x99] Wait for Octavien (ID: 17830004/0x01101074) animation to complete
235: 0x1094 [0x40] SET_BIT_WORK_RANGE(start_bit=0*, end_bit=2*, target=Work_Zone[1], source=2*)
236: 0x109D [0x43] SEND_EVENT_UPDATE: Send pending tag to server (packet 0x005B)
237: 0x109F [0x43] SEND_EVENT_UPDATE: Check pending flag (skip if not pending)
238: 0x10A1 [0x2B] Octavien (ID: 17830004/0x01101074) [12612*]:
    → "I sense an ominous force interfering with your progress... Could it be the [/warrior/monk/white mage/black mage/red mage/thief/paladin/dark knight/beastmaster/bard/ranger/samurai/ninja/dragoon/summoner/blue mage/corsair/puppetmaster/dancer/scholar/geomancer/rune fencer] within you!?"
239: 0x10A8 [0x23] WAIT_FOR_DIALOG_INTERACTION
240: 0x10A9 [0x01] GOTO 0x1249
241: 0x10AC [0x02] IF !(ExtData[1]->WorkLocal[5] == 20*) GOTO 0x10DC
242: 0x10B4 [0x45] LOAD_SCHEDULED_TASK: Load scheduler "sc21" with entities [LocalPlayer, LocalPlayer], work=[563*, 0*]
243: 0x10C5 [0x6E] Octavien (ID: 17830004/0x01101074) uses emote 6*
244: 0x10CC [0x99] Wait for Octavien (ID: 17830004/0x01101074) animation to complete
245: 0x10D1 [0x2B] Octavien (ID: 17830004/0x01101074) [12613*]:
    → "Your $0th attempt and we're still no closer than before? Perhaps 'tis I who needs to train more, so I don't accidentally give the talentless dreams they can never accomplish."
246: 0x10D8 [0x23] WAIT_FOR_DIALOG_INTERACTION
247: 0x10D9 [0x01] GOTO 0x1249
248: 0x10DC [0x02] IF !(ExtData[1]->WorkLocal[5] == 30*) GOTO 0x110C
249: 0x10E4 [0x45] LOAD_SCHEDULED_TASK: Load scheduler "sc22" with entities [LocalPlayer, LocalPlayer], work=[563*, 0*]
250: 0x10F5 [0x6E] Octavien (ID: 17830004/0x01101074) uses emote 22*
251: 0x10FC [0x99] Wait for Octavien (ID: 17830004/0x01101074) animation to complete
252: 0x1101 [0x2B] Octavien (ID: 17830004/0x01101074) [12614*]:
    → "I was under the impression that you were an adventurer renowned throughout the Middle Lands. Apparently that appellation amounts to little more than kindling for the fires of one's boasting."
253: 0x1108 [0x23] WAIT_FOR_DIALOG_INTERACTION
254: 0x1109 [0x01] GOTO 0x1249
255: 0x110C [0x02] IF !(ExtData[1]->WorkLocal[5] == 40*) GOTO 0x113C
256: 0x1114 [0x45] LOAD_SCHEDULED_TASK: Load scheduler "sc23" with entities [LocalPlayer, LocalPlayer], work=[563*, 0*]
257: 0x1125 [0x6E] Octavien (ID: 17830004/0x01101074) uses emote 26*
258: 0x112C [0x99] Wait for Octavien (ID: 17830004/0x01101074) animation to complete
259: 0x1131 [0x2B] Octavien (ID: 17830004/0x01101074) [12615*]:
    → "...My condolences, [sir/madame]."
260: 0x1138 [0x23] WAIT_FOR_DIALOG_INTERACTION
261: 0x1139 [0x01] GOTO 0x1249
262: 0x113C [0x02] IF !(ExtData[1]->WorkLocal[5] == 50*) GOTO 0x116C
263: 0x1144 [0x45] LOAD_SCHEDULED_TASK: Load scheduler "sc24" with entities [LocalPlayer, LocalPlayer], work=[563*, 0*]
264: 0x1155 [0x6E] Octavien (ID: 17830004/0x01101074) uses emote 22*
265: 0x115C [0x99] Wait for Octavien (ID: 17830004/0x01101074) animation to complete
266: 0x1161 [0x2B] Octavien (ID: 17830004/0x01101074) [12616*]:
    → "Why don't you quit while you still have your health? Many people would commit atrocities for a body as hale and hearty as yours."
267: 0x1168 [0x23] WAIT_FOR_DIALOG_INTERACTION
268: 0x1169 [0x01] GOTO 0x1249
269: 0x116C [0x02] IF !(ExtData[1]->WorkLocal[5] == 60*) GOTO 0x119C
270: 0x1174 [0x45] LOAD_SCHEDULED_TASK: Load scheduler "sc25" with entities [LocalPlayer, LocalPlayer], work=[563*, 0*]
271: 0x1185 [0x6E] Octavien (ID: 17830004/0x01101074) uses emote 20*
272: 0x118C [0x99] Wait for Octavien (ID: 17830004/0x01101074) animation to complete
273: 0x1191 [0x2B] Octavien (ID: 17830004/0x01101074) [12617*]:
    → "Let me say this one thing: you may think you're special, but you're just as special as everyone else...that is to say, not at all."
274: 0x1198 [0x23] WAIT_FOR_DIALOG_INTERACTION
275: 0x1199 [0x01] GOTO 0x1249
276: 0x119C [0x02] IF !(ExtData[1]->WorkLocal[5] == 70*) GOTO 0x11C0
277: 0x11A4 [0x45] LOAD_SCHEDULED_TASK: Load scheduler "sc26" with entities [LocalPlayer, LocalPlayer], work=[563*, 0*]
278: 0x11B5 [0x2B] Octavien (ID: 17830004/0x01101074) [12618*]:
    → "I lost hope for you long ago, but this is already your $0th time. Any further attempts would be a waste of time for us both."
279: 0x11BC [0x23] WAIT_FOR_DIALOG_INTERACTION
280: 0x11BD [0x01] GOTO 0x1249
281: 0x11C0 [0x02] IF !(ExtData[1]->WorkLocal[5] == 80*) GOTO 0x11F0
282: 0x11C8 [0x45] LOAD_SCHEDULED_TASK: Load scheduler "sc27" with entities [LocalPlayer, LocalPlayer], work=[563*, 0*]
283: 0x11D9 [0x7C] Octavien (ID: 17830004/0x01101074)->Render.Flags2 |= 0x00
284: 0x11DF [0x2B] Octavien (ID: 17830004/0x01101074) [12619*]:
    → "Zzz..."
285: 0x11E6 [0x23] WAIT_FOR_DIALOG_INTERACTION
286: 0x11E7 [0x7C] Octavien (ID: 17830004/0x01101074)->Render.Flags2 |= 0x01
287: 0x11ED [0x01] GOTO 0x1249
288: 0x11F0 [0x02] IF !(ExtData[1]->WorkLocal[5] == 90*) GOTO 0x1220
289: 0x11F8 [0x45] LOAD_SCHEDULED_TASK: Load scheduler "sc28" with entities [LocalPlayer, LocalPlayer], work=[563*, 0*]
290: 0x1209 [0x6E] Octavien (ID: 17830004/0x01101074) uses emote 25*
291: 0x1210 [0x99] Wait for Octavien (ID: 17830004/0x01101074) animation to complete
292: 0x1215 [0x2B] Octavien (ID: 17830004/0x01101074) [12620*]:
    → "I've had enough of your incompetence! Let me spell this out loud and clear: y-o-u c-a-n-n-o-t u-s-e r-u-n-e-s!"
293: 0x121C [0x23] WAIT_FOR_DIALOG_INTERACTION
294: 0x121D [0x01] GOTO 0x1249
295: 0x1220 [0x02] IF !(ExtData[1]->WorkLocal[5] == 99*) GOTO 0x1249
296: 0x1228 [0x45] LOAD_SCHEDULED_TASK: Load scheduler "sc29" with entities [LocalPlayer, LocalPlayer], work=[563*, 0*]
297: 0x1239 [0x03] Work_Zone[2] = 100*
298: 0x123E [0x2B] Octavien (ID: 17830004/0x01101074) [12621*]:
    → "I might as well stick around to see if you can make it an even $0."
299: 0x1245 [0x23] WAIT_FOR_DIALOG_INTERACTION
300: 0x1246 [0x01] GOTO 0x1249

SUBROUTINE_1249:
301: 0x1249 [0x52] END_LOAD_SCHEDULER: End scheduler "sc20" with entities [LocalPlayer, LocalPlayer], work=563*
