# 17830099 - Jozhud

## Common Data

| Field            | Value                     |
|------------------|---------------------------|
| Zone             | Eastern Adoulin (ID: 257) |
| Block Size       | 180 bytes                 |
| Total Events     | 6                         |
| References Count | 4                         |

## List of Events

| Event ID              | Entrypoint   |   Size |   Instructions |
|-----------------------|--------------|--------|----------------|
| [65535](#event-65535) | 0x0000       |      1 |              1 |
| [514](#event-514)     | 0x0001       |     77 |             13 |
| [42](#event-42)       | 0x004E       |     43 |              9 |
| [5099](#event-5099)   | 0x0079       |      1 |              1 |
| [5102](#event-5102)   | 0x007A       |      1 |              1 |
| [5124](#event-5124)   | 0x007B       |      1 |              1 |

## DAT References (imed_data)

|   Index | Hex Value   |   Dec Value |
|---------|-------------|-------------|
|       0 | 0x005A      |          90 |
|       1 | 0x28D0      |       10448 |
|       2 | 0x28D1      |       10449 |
|       3 | 0x1FB2      |        8114 |

## String References

- **8114**: Informathion on the Owder of Haverton? Gee [mithter/mith], you'll have to go the Scouths' Coalithion for that!
- **10448**: This's Mawgwet's house. She's the maestah of the Scouts' Cowawition.
- **10449**: It doesn't wook wike she wants you heeah, so go away. Only I can be her appwentice!

## Events

### Event 65535

#### Metadata

| Field        | Value   |
|--------------|---------|
| Entrypoint   | 0x0000  |
| Data Size    | 1 bytes |
| Instructions | 1       |

```
      00 01 02 03 04 05 06 07  08 09 0A 0B 0C 0D 0E 0F
      -- -- -- -- -- -- -- --  -- -- -- -- -- -- -- --
0000: 00                                                .               
```

#### Opcodes

```
  0: 0x0000 [0x00] END_REQSTACK()
```

### Event 514

#### Metadata

| Field        | Value    |
|--------------|----------|
| Entrypoint   | 0x0001   |
| Data Size    | 77 bytes |
| Instructions | 13       |

```
      00 01 02 03 04 05 06 07  08 09 0A 0B 0C 0D 0E 0F
      -- -- -- -- -- -- -- --  -- -- -- -- -- -- -- --
0000:    1E F0 FF FF 7F 6F 70  5B 00 80 F8 FF FF 7F F8   .....op[.......
0010: FF FF 7F 74 6C 62 30 1D  01 80 23 5B 00 80 F8 FF  ...tlb0...#[....
0020: FF 7F F8 FF FF 7F 74 6C  62 31 5B 00 80 F8 FF FF  ......tlb1[.....
0030: 7F F8 FF FF 7F 6D 6F 75  30 1D 02 80 23 5B 00 80  .....mou0...#[..
0040: F8 FF FF 7F F8 FF FF 7F  6D 6F 75 31 21 00        ........mou1!.  
```

#### Opcodes

```
  0: 0x0001 [0x1E] EventEntity looks at LocalPlayer and starts talking
  1: 0x0006 [0x6F] WAIT_FRAME_DELAY: Yield until WaitTime reaches zero
  2: 0x0007 [0x70] WAIT_ENTITY_RENDER_FLAG: Wait while EventEntity->Render.Flags3 bit 2 is set (cancel turn if not)
  3: 0x0008 [0x5B] LOAD_EXT_SCHEDULER: Load scheduler "tlb0" with entities [EventEntity, EventEntity], work=90*
  4: 0x0017 [0x1D] PRINT_EVENT_MESSAGE(message_id=10448*)
    → "This's Mawgwet's house. She's the maestah of the Scouts' Cowawition."
  5: 0x001A [0x23] WAIT_FOR_DIALOG_INTERACTION
  6: 0x001B [0x5B] LOAD_EXT_SCHEDULER: Load scheduler "tlb1" with entities [EventEntity, EventEntity], work=90*
  7: 0x002A [0x5B] LOAD_EXT_SCHEDULER: Load scheduler "mou0" with entities [EventEntity, EventEntity], work=90*
  8: 0x0039 [0x1D] PRINT_EVENT_MESSAGE(message_id=10449*)
    → "It doesn't wook wike she wants you heeah, so go away. Only I can be her appwentice!"
  9: 0x003C [0x23] WAIT_FOR_DIALOG_INTERACTION
 10: 0x003D [0x5B] LOAD_EXT_SCHEDULER: Load scheduler "mou1" with entities [EventEntity, EventEntity], work=90*
 11: 0x004C [0x21] END_EVENT
 12: 0x004D [0x00] END_REQSTACK()
```

### Event 42

#### Metadata

| Field        | Value    |
|--------------|----------|
| Entrypoint   | 0x004E   |
| Data Size    | 43 bytes |
| Instructions | 9        |

```
      00 01 02 03 04 05 06 07  08 09 0A 0B 0C 0D 0E 0F
      -- -- -- -- -- -- -- --  -- -- -- -- -- -- -- --
0040:                                            1E F0                ..
0050: FF FF 7F 6F 70 5B 00 80  F8 FF FF 7F F8 FF FF 7F  ...op[..........
0060: 74 6C 62 30 1D 03 80 23  5B 00 80 F8 FF FF 7F F8  tlb0...#[.......
0070: FF FF 7F 74 6C 62 31 21  00                       ...tlb1!.       
```

#### Opcodes

```
  0: 0x004E [0x1E] EventEntity looks at LocalPlayer and starts talking
  1: 0x0053 [0x6F] WAIT_FRAME_DELAY: Yield until WaitTime reaches zero
  2: 0x0054 [0x70] WAIT_ENTITY_RENDER_FLAG: Wait while EventEntity->Render.Flags3 bit 2 is set (cancel turn if not)
  3: 0x0055 [0x5B] LOAD_EXT_SCHEDULER: Load scheduler "tlb0" with entities [EventEntity, EventEntity], work=90*
  4: 0x0064 [0x1D] PRINT_EVENT_MESSAGE(message_id=8114*)
    → "Informathion on the Owder of Haverton? Gee [mithter/mith], you'll have to go the Scouths' Coalithion for that!"
  5: 0x0067 [0x23] WAIT_FOR_DIALOG_INTERACTION
  6: 0x0068 [0x5B] LOAD_EXT_SCHEDULER: Load scheduler "tlb1" with entities [EventEntity, EventEntity], work=90*
  7: 0x0077 [0x21] END_EVENT
  8: 0x0078 [0x00] END_REQSTACK()
```

### Event 5099

#### Metadata

| Field        | Value   |
|--------------|---------|
| Entrypoint   | 0x0079  |
| Data Size    | 1 bytes |
| Instructions | 1       |

```
      00 01 02 03 04 05 06 07  08 09 0A 0B 0C 0D 0E 0F
      -- -- -- -- -- -- -- --  -- -- -- -- -- -- -- --
0070:                             00                             .      
```

#### Opcodes

```
  0: 0x0079 [0x00] END_REQSTACK()
```

### Event 5102

#### Metadata

| Field        | Value   |
|--------------|---------|
| Entrypoint   | 0x007A  |
| Data Size    | 1 bytes |
| Instructions | 1       |

```
      00 01 02 03 04 05 06 07  08 09 0A 0B 0C 0D 0E 0F
      -- -- -- -- -- -- -- --  -- -- -- -- -- -- -- --
0070:                                00                           .     
```

#### Opcodes

```
  0: 0x007A [0x00] END_REQSTACK()
```

### Event 5124

#### Metadata

| Field        | Value   |
|--------------|---------|
| Entrypoint   | 0x007B  |
| Data Size    | 1 bytes |
| Instructions | 1       |

```
      00 01 02 03 04 05 06 07  08 09 0A 0B 0C 0D 0E 0F
      -- -- -- -- -- -- -- --  -- -- -- -- -- -- -- --
0070:                                   00                         .    
```

#### Opcodes

```
  0: 0x007B [0x00] END_REQSTACK()
```
