# 17830030 - Ploh Trishbahk

## Common Data

| Field            | Value                     |
|------------------|---------------------------|
| Zone             | Eastern Adoulin (ID: 257) |
| Block Size       | 3560 bytes                |
| Total Events     | 69                        |
| References Count | 149                       |

## List of Events

| Event ID                   | Entrypoint   |   Size |   Instructions |
|----------------------------|--------------|--------|----------------|
| [65535](#event-65535)      | 0x0000       |      1 |              1 |
| [563](#event-563)          | 0x0001       |     43 |              9 |
| [1500](#event-1500)        | 0x002C       |      1 |              1 |
| [1502](#event-1502)        | 0x002D       |      1 |              1 |
| [1505](#event-1505)        | 0x002E       |      1 |              1 |
| [65535.1](#event-655351)   | 0x002F       |     32 |              7 |
| [65535.2](#event-655352)   | 0x004F       |     21 |              2 |
| [65535.3](#event-655353)   | 0x0064       |     22 |              3 |
| [65535.4](#event-655354)   | 0x007A       |     13 |              3 |
| [1501](#event-1501)        | 0x0087       |     76 |             14 |
| [2517](#event-2517)        | 0x00D3       |     56 |             16 |
| [49](#event-49)            | 0x010B       |     48 |             12 |
| [1506](#event-1506)        | 0x013B       |      1 |              1 |
| [65535.5](#event-655355)   | 0x013C       |     19 |              5 |
| [1508](#event-1508)        | 0x014F       |      1 |              1 |
| [1514](#event-1514)        | 0x0150       |      1 |              1 |
| [65535.6](#event-655356)   | 0x0151       |     22 |              6 |
| [1519](#event-1519)        | 0x0167       |    148 |             27 |
| [1520](#event-1520)        | 0x01FB       |    124 |             20 |
| [1524](#event-1524)        | 0x0277       |     52 |             14 |
| [65535.7](#event-655357)   | 0x02AB       |     51 |             13 |
| [5063](#event-5063)        | 0x02DE       |     43 |              9 |
| [1530](#event-1530)        | 0x0309       |     43 |              9 |
| [1531](#event-1531)        | 0x0334       |      1 |              1 |
| [1532](#event-1532)        | 0x0335       |      1 |              1 |
| [1550](#event-1550)        | 0x0336       |      1 |              1 |
| [1540](#event-1540)        | 0x0337       |     47 |             11 |
| [1541](#event-1541)        | 0x0366       |     47 |             11 |
| [1542](#event-1542)        | 0x0395       |     47 |             11 |
| [1543](#event-1543)        | 0x03C4       |     47 |             11 |
| [1545](#event-1545)        | 0x03F3       |     55 |             15 |
| [1553](#event-1553)        | 0x042A       |     70 |             16 |
| [1544](#event-1544)        | 0x0470       |     45 |             11 |
| [1536](#event-1536)        | 0x049D       |      1 |              1 |
| [1546](#event-1546)        | 0x049E       |     47 |             11 |
| [1539](#event-1539)        | 0x04CD       |      1 |              1 |
| [65535.8](#event-655358)   | 0x04CE       |     14 |              4 |
| [1547](#event-1547)        | 0x04DC       |      1 |              1 |
| [1554](#event-1554)        | 0x04DD       |     43 |              9 |
| [1555](#event-1555)        | 0x0508       |      1 |              1 |
| [1556](#event-1556)        | 0x0509       |      1 |              1 |
| [1557](#event-1557)        | 0x050A       |     27 |             13 |
| [1558](#event-1558)        | 0x0525       |     27 |             13 |
| [1559](#event-1559)        | 0x0540       |     22 |             12 |
| [1560](#event-1560)        | 0x0556       |    101 |             20 |
| [1561](#event-1561)        | 0x05BB       |     47 |              9 |
| [3024](#event-3024)        | 0x05EA       |     51 |             13 |
| [107](#event-107)          | 0x061D       |     60 |             19 |
| [108](#event-108)          | 0x0659       |      1 |              1 |
| [109](#event-109)          | 0x065A       |     29 |              7 |
| [110](#event-110)          | 0x0677       |      7 |              2 |
| [111](#event-111)          | 0x067E       |      7 |              2 |
| [112](#event-112)          | 0x0685       |      7 |              2 |
| [113](#event-113)          | 0x068C       |    795 |            145 |
| [65535.9](#event-655359)   | 0x09A7       |     17 |              5 |
| [114](#event-114)          | 0x09B8       |      7 |              2 |
| [121](#event-121)          | 0x09BF       |      7 |              2 |
| [122](#event-122)          | 0x09C6       |      7 |              2 |
| [65535.10](#event-6553510) | 0x09CD       |     17 |              5 |
| [126](#event-126)          | 0x09DE       |      7 |              2 |
| [127](#event-127)          | 0x09E5       |      7 |              2 |
| [130](#event-130)          | 0x09EC       |      7 |              2 |
| [133](#event-133)          | 0x09F3       |      7 |              2 |
| [134](#event-134)          | 0x09FA       |     39 |              9 |
| [5230](#event-5230)        | 0x0A21       |      7 |              2 |
| [65535.11](#event-6553511) | 0x0A28       |     17 |              5 |
| [5231](#event-5231)        | 0x0A39       |     26 |             12 |
| [5232](#event-5232)        | 0x0A53       |      7 |              2 |
| [5233](#event-5233)        | 0x0A5A       |     22 |             10 |

## DAT References (imed_data)

|   Index | Hex Value   |   Dec Value |
|---------|-------------|-------------|
|       0 | 0x0044      |          68 |
|       1 | 0x293C      |       10556 |
|       2 | 0x000D      |          13 |
|       3 | 0x1879B     |      100251 |
|       4 | 0xFFFF0E9D  |  4294905501 |
|       5 | 0xFFFF632C  |  4294927148 |
|       6 | 0x03BF      |         959 |
|       7 | 0x0007      |           7 |
|       8 | 0x0004      |           4 |
|       9 | 0x0000      |           0 |
|      10 | 0x002C      |          44 |
|      11 | 0x003A      |          58 |
|      12 | 0x0156      |         342 |
|      13 | 0x0008      |           8 |
|      14 | 0x0032      |          50 |
|      15 | 0x0898      |        2200 |
|      16 | 0x2099      |        8345 |
|      17 | 0x209A      |        8346 |
|      18 | 0x209B      |        8347 |
|      19 | 0x1EDF      |        7903 |
|      20 | 0x1EE0      |        7904 |
|      21 | 0x1EE1      |        7905 |
|      22 | 0x1EE2      |        7906 |
|      23 | 0x1FBF      |        8127 |
|      24 | 0x1FC0      |        8128 |
|      25 | 0x1885E     |      100446 |
|      26 | 0xFFFF004E  |  4294901838 |
|      27 | 0x0028      |          40 |
|      28 | 0x17990     |       96656 |
|      29 | 0xFFFEFFCF  |  4294901711 |
|      30 | 0x001E      |          30 |
|      31 | 0x219C      |        8604 |
|      32 | 0x219D      |        8605 |
|      33 | 0x219E      |        8606 |
|      34 | 0x0034      |          52 |
|      35 | 0x219F      |        8607 |
|      36 | 0x21A0      |        8608 |
|      37 | 0x21A1      |        8609 |
|      38 | 0x21B2      |        8626 |
|      39 | 0x21B3      |        8627 |
|      40 | 0x21B4      |        8628 |
|      41 | 0x2309      |        8969 |
|      42 | 0x2380      |        9088 |
|      43 | 0x23D2      |        9170 |
|      44 | 0x23D3      |        9171 |
|      45 | 0x243B      |        9275 |
|      46 | 0x243C      |        9276 |
|      47 | 0x246C      |        9324 |
|      48 | 0x246D      |        9325 |
|      49 | 0x2550      |        9552 |
|      50 | 0x2551      |        9553 |
|      51 | 0x256C      |        9580 |
|      52 | 0x256D      |        9581 |
|      53 | 0x256E      |        9582 |
|      54 | 0x256F      |        9583 |
|      55 | 0x2571      |        9585 |
|      56 | 0x2572      |        9586 |
|      57 | 0x2573      |        9587 |
|      58 | 0x2574      |        9588 |
|      59 | 0x2570      |        9584 |
|      60 | 0x25B4      |        9652 |
|      61 | 0x25B5      |        9653 |
|      62 | 0x173A1     |       95137 |
|      63 | 0xFFFF0573  |  4294903155 |
|      64 | 0xFFFF63C1  |  4294927297 |
|      65 | 0x25D2      |        9682 |
|      66 | 0x6D13      |       27923 |
|      67 | 0x26DD      |        9949 |
|      68 | 0x26DE      |        9950 |
|      69 | 0x26DF      |        9951 |
|      70 | 0x6D9F      |       28063 |
|      71 | 0x26E0      |        9952 |
|      72 | 0x26BE      |        9918 |
|      73 | 0x26E1      |        9953 |
|      74 | 0x26E2      |        9954 |
|      75 | 0x26E3      |        9955 |
|      76 | 0x358A      |       13706 |
|      77 | 0x358B      |       13707 |
|      78 | 0x358C      |       13708 |
|      79 | 0x3638      |       13880 |
|      80 | 0x3639      |       13881 |
|      81 | 0x3635      |       13877 |
|      82 | 0x363B      |       13883 |
|      83 | 0x3636      |       13878 |
|      84 | 0x3637      |       13879 |
|      85 | 0x3646      |       13894 |
|      86 | 0x2DCC      |       11724 |
|      87 | 0x2DCD      |       11725 |
|      88 | 0x2DCE      |       11726 |
|      89 | 0x005A      |          90 |
|      90 | 0x0001      |           1 |
|      91 | 0x2DDA      |       11738 |
|      92 | 0x2DDB      |       11739 |
|      93 | 0x0002      |           2 |
|      94 | 0x2E0B      |       11787 |
|      95 | 0x2E0C      |       11788 |
|      96 | 0x0003      |           3 |
|      97 | 0x2E99      |       11929 |
|      98 | 0x2E9A      |       11930 |
|      99 | 0x2E9B      |       11931 |
|     100 | 0x2EC1      |       11969 |
|     101 | 0x2EC2      |       11970 |
|     102 | 0x2EC3      |       11971 |
|     103 | 0x0005      |           5 |
|     104 | 0x2ECE      |       11982 |
|     105 | 0x2ECF      |       11983 |
|     106 | 0x2ED0      |       11984 |
|     107 | 0x0062      |          98 |
|     108 | 0x2DF3      |       11763 |
|     109 | 0x2EF5      |       12021 |
|     110 | 0x0006      |           6 |
|     111 | 0x2F55      |       12117 |
|     112 | 0x2F56      |       12118 |
|     113 | 0x2F57      |       12119 |
|     114 | 0x2F58      |       12120 |
|     115 | 0x0105      |         261 |
|     116 | 0x2F6B      |       12139 |
|     117 | 0x2F6C      |       12140 |
|     118 | 0x2F6E      |       12142 |
|     119 | 0x2F6F      |       12143 |
|     120 | 0x0063      |          99 |
|     121 | 0x2DF4      |       11764 |
|     122 | 0x184AC     |       99500 |
|     123 | 0xFFFF11B8  |  4294906296 |
|     124 | 0xFFFF632A  |  4294927146 |
|     125 | 0x03FF      |        1023 |
|     126 | 0x168F      |        5775 |
|     127 | 0x15A6      |        5542 |
|     128 | 0x160D      |        5645 |
|     129 | 0x1690      |        5776 |
|     130 | 0x15A7      |        5543 |
|     131 | 0x15BA      |        5562 |
|     132 | 0x0273      |         627 |
|     133 | 0x2710      |       10000 |
|     134 | 0xC350      |       50000 |
|     135 | 0x186A0     |      100000 |
|     136 | 0x30D40     |      200000 |
|     137 | 0x7A120     |      500000 |
|     138 | 0x03E8      |        1000 |
|     139 | 0x01F4      |         500 |
|     140 | 0x18894     |      100500 |
|     141 | 0xFFFF0DD0  |  4294905296 |
|     142 | 0x0121      |         289 |
|     143 | 0x2F9C      |       12188 |
|     144 | 0x2F9D      |       12189 |
|     145 | 0x2F9E      |       12190 |
|     146 | 0x010B      |         267 |
|     147 | 0x2FA8      |       12200 |
|     148 | 0x2FA9      |       12201 |

## String References

- **7903**: Beforrre you lies Castle Adoulin.
- **7904**: Those not here on official business must...oh, you're here making the rrrounds?
- **7905**: The castle is completely securrre, thanks in no small part to us guards.
- **7906**: Let the Peacekeeperrrs know that nothing is amiss here.
- **8127**: The master is far too preoccupied to see an outsiderrr like... What's this? The librrrary? Maybe I can be of assistance.
- **8128**: Those slobs need to update their rrrecords better. So much of this is out of date! There. Now everything is as it should be.
- **8604**: Ingrrrid herself has left me with a message for you.
- **8605**: You are to gather four items that have been touched by the Divine.
- **8606**: The firrrst, a piece of stone wall touched by the light of dawn. The second, holy water untainted by impurity.
- **8607**: The thirrrd, a flame that has gone unextinguished for seven years. The fourth, the wings of a weather vane that has stood the test of time.
- **8608**: Perhaps you could start by gathering information from the other exorcists. They would do their utmost to uphold Ingrid's wishes.
- **8609**: Hildebert's manse is not far from here. I suggest you pay his order a visit and see what information you can glean.
- **8626**: My dearrr pioneer, we have located the weather vane that you seek.
- **8627**: To the south of this very plaza lies a larrrge manse whose storage unit contains such an object.
- **8628**: We have already discussed the issue with the owners, who are waiting for your arrrival at the manse to the south.
- **8969**: The princess--she's been taken by some horrible beast! If you are truly a friend to the order, then you must go to the wilds to rescue her!
- **9088**: Feeling a bit lost? I'm sure someone at the Pioneerrrs' Coalition can help you.
- **9170**: The princess has always been a connoisseurrr of fine vegetables. Surely fresh tomatoes will cheer her up.
- **9171**: But wasn't that Fremilla's job...?
- **9275**: The Twelve Orders have tasked you with surrrveying Rala Waterways?
- **9276**: I would advise you to bring prrrotection. The recent landshivers may have loosened a few stones in the ceilings.
- **9324**: Arciela has never called such a meeting of the Twelve Orders with such urrrgency.
- **9325**: She has informed us that you are to be present. I'll purrrmit you entry once the heads have assembled.
- **9552**: What!? Frrremilla!? I'm at a loss for words!
- **9553**: If only I could do something to help besides stand guarrrd over the castle.... Either way, there is sadly nothing you can do here at the moment.
- **9580**: Ah, <Player>. Cynthia entrrrusted me with a message for you.
- **9581**: It rrreads, "Please bring the heirloom necklace that Master Ygnas mentioned."
- **9582**: I think it would be easiest if you just hand overrr the necklace to me, and I shall pass it on to Cynthia.
- **9583**: I await your rrreturn.
- **9584**: Yes, this $0 does look to be the keepsake they rrrequested.
- **9585**: Could this be the necklace you're rrreferring to, <Player>?
- **9586**: A kind citizen came to turrrn this in. It's adorned with the Order of Adoulin's insignia, so I figured you'd be looking for it and took it off his hands.
- **9587**: Please be a bit more attentive the next time you're entrrrusted with something from then Adoulins. This is a precious heirloom, after all.
- **9588**: All's well that ends well, I suppose. I'll brrring the necklace to Cynthia, so you're free to do whatever you please.
- **9652**: I believe the prrrincess has headed to her ancestor's grave in the waterways.
- **9653**: I strrrongly disagree with her going down there alone, but who am I to stop her? Keep her safe for the good of the nation, pioneer!
- **9682**: Please, take a good look at the $3 I handed you...and stay by Arciela's side.
- **9949**: Well met, <Player>. Forrrgive me if I'm butting in, but did you happen to lose $1?
- **9950**: A particularly vigilant citizen returrrned it to the castle, where I decided to hold it for safekeeping. Anything emblazoned with the Order of Adoulin's seal is too important to let out of my sight.
- **9951**: Please ensurrre that you do not lose it again. I would hate to picture the look on the princess's face were you to do so.
- **9952**: A particularly vigilant citizen returrrned it to the castle, where I decided to hold it for safekeeping.
- **10556**: Stop loitering in frrront of Castle Adoulin or I'll gouge your eyes out!
- **11724**: A secrrret path out of the castle?
- **11725**: If I were a secret path, where would I be located? Probably a dusty alley or underground tunnel.
- **11726**: B-but a dutiful guard would not rrreveal such things so flippantly!
- **11738**: The mystery of the missing tomatoes? You won't learrrn anything unless you find Ygnas.
- **11739**: I'd scour every corrrner of this town for clues.
- **11763**: You're wondering if Ygnas is still sneaking out?
- **11764**: Fremilla hasn't mentioned anything to me, but rrrest assured that you'll be the first to know.
- **11787**: You are looking for Lorrrd Ygnas? That sounds like a job more suited to the Scouts' Coalition.
- **11788**: Ah, forrrgive me! It is not the place of a mere guard to speak of such things!
- **11929**: The waitrrress she's talking about must be Yocile.
- **11930**: I doubt there to be any impropriety between her and Lord Ygnas.
- **11931**: Ah, but you wouldn't be interested in my musings. Please, forrrget I mentioned anything.
- **11969**: Geosuke? He cerrrtainly is the popular figure in our city.
- **11970**: But let's leave the juicy gossip for a later date. I've got worrrk to do.
- **11971**: And so do you--there's a different leafkin you've got to worry about right now: Ygnas.
- **11982**: Lord Ygnas bounded out the frrront gate just a short while ago.
- **11983**: He's got to be around here somewhere...but where?
- **11984**: But I dare not concern myself with his affairs. I am but a simple guard.
- **12021**: With how Fremilla's been in a tizzy the past few days, I wager it'll be a while before she calls on you again.
- **12117**: You wish to confirm the sweets Fremilla rrrequested for Princess Arciela?
- **12118**: Hmm... It looks like you need to brrring $0...
- **12119**: Hmm... It looks like you need to brrring $1 $0 and $3 $0 .
- **12120**: Once you have what I need, rrreturn here and I will summon Fremilla.
- **12139**: Oh yes, Fremilla said they werrre heading to the $8.
- **12140**: I'm sure they'll be fine, but I rrreally can't help but worry about those two. Hopefully, nothing bad happens to them out there.
- **12142**: I deliverrred the sweets to Princess Arciela.
- **12143**: And it seems that Fremilla is continuing to trrry her hand at playing detective...
- **12188**: So I hear you'rrre going to $8.
- **12189**: Be careful out there, okay?
- **12190**: Hm? $8? Where's that?
- **12200**: Lady Arciela has set out for $8.
- **12201**: I hear you are headed there as well. I wish you a safe and pleasant journey.
- **13706**: The prrrincess often ventures out into the jungle when her presence is not required at the castle.
- **13707**: Today is one such day. She mentioned going on a brrrief foray into Ceizak Battlegrounds.
- **13708**: Her strong sense of wanderrrlust has not faded even as she blossoms into a young woman. Would that I could stop her...
- **13877**: ...But come to think of it, some pioneers have been submitting rrreports of a most curious beast lurking outside the city gates.
- **13878**: Come to think of it, some pioneers have been submitting rrreports of a beast matching that description lurking outside the city gates.
- **13879**: But the orrrders have their own issues to face at present, and nary a hand can be spared.
- **13880**: A jesterrr? You're looking for a demon jester?
- **13881**: I'd like to help, but I've hearrrd no news of such a creature.
- **13883**: Balamor!? The very same crrreature that possessed Fremilla and knocked Chero-Machero flat on his back!?
- **13894**: The prrrincess awaits you in Celennia Memorial Library.

## Events

### Event 65535

#### Metadata

| Field        | Value   |
|--------------|---------|
| Entrypoint   | 0x0000  |
| Data Size    | 1 bytes |
| Instructions | 1       |

```
      00 01 02 03 04 05 06 07  08 09 0A 0B 0C 0D 0E 0F
      -- -- -- -- -- -- -- --  -- -- -- -- -- -- -- --
0000: 00                                                .               
```

#### Opcodes

```
  0: 0x0000 [0x00] END_REQSTACK()
```

### Event 563

#### Metadata

| Field        | Value    |
|--------------|----------|
| Entrypoint   | 0x0001   |
| Data Size    | 43 bytes |
| Instructions | 9        |

```
      00 01 02 03 04 05 06 07  08 09 0A 0B 0C 0D 0E 0F
      -- -- -- -- -- -- -- --  -- -- -- -- -- -- -- --
0000:    1E F0 FF FF 7F 6F 70  66 00 80 F8 FF FF 7F F8   .....opf.......
0010: FF FF 7F 74 6C 62 30 1D  01 80 23 66 00 80 F8 FF  ...tlb0...#f....
0020: FF 7F F8 FF FF 7F 74 6C  62 31 21 00              ......tlb1!.    
```

#### Opcodes

```
  0: 0x0001 [0x1E] EventEntity looks at LocalPlayer and starts talking
  1: 0x0006 [0x6F] WAIT_FRAME_DELAY: Yield until WaitTime reaches zero
  2: 0x0007 [0x70] WAIT_ENTITY_RENDER_FLAG: Wait while EventEntity->Render.Flags3 bit 2 is set (cancel turn if not)
  3: 0x0008 [0x66] LOAD_EXT_SCHEDULER_MAIN: Load scheduler "tlb0" with entities [EventEntity, EventEntity], work=68*
  4: 0x0017 [0x1D] PRINT_EVENT_MESSAGE(message_id=10556*)
    → "Stop loitering in frrront of Castle Adoulin or I'll gouge your eyes out!"
  5: 0x001A [0x23] WAIT_FOR_DIALOG_INTERACTION
  6: 0x001B [0x66] LOAD_EXT_SCHEDULER_MAIN: Load scheduler "tlb1" with entities [EventEntity, EventEntity], work=68*
  7: 0x002A [0x21] END_EVENT
  8: 0x002B [0x00] END_REQSTACK()
```

### Event 1500

#### Metadata

| Field        | Value   |
|--------------|---------|
| Entrypoint   | 0x002C  |
| Data Size    | 1 bytes |
| Instructions | 1       |

```
      00 01 02 03 04 05 06 07  08 09 0A 0B 0C 0D 0E 0F
      -- -- -- -- -- -- -- --  -- -- -- -- -- -- -- --
0020:                                      00                       .   
```

#### Opcodes

```
  0: 0x002C [0x00] END_REQSTACK()
```

### Event 1502

#### Metadata

| Field        | Value   |
|--------------|---------|
| Entrypoint   | 0x002D  |
| Data Size    | 1 bytes |
| Instructions | 1       |

```
      00 01 02 03 04 05 06 07  08 09 0A 0B 0C 0D 0E 0F
      -- -- -- -- -- -- -- --  -- -- -- -- -- -- -- --
0020:                                         00                     .  
```

#### Opcodes

```
  0: 0x002D [0x00] END_REQSTACK()
```

### Event 1505

#### Metadata

| Field        | Value   |
|--------------|---------|
| Entrypoint   | 0x002E  |
| Data Size    | 1 bytes |
| Instructions | 1       |

```
      00 01 02 03 04 05 06 07  08 09 0A 0B 0C 0D 0E 0F
      -- -- -- -- -- -- -- --  -- -- -- -- -- -- -- --
0020:                                            00                   . 
```

#### Opcodes

```
  0: 0x002E [0x00] END_REQSTACK()
```

### Event 65535.1

#### Metadata

| Field        | Value    |
|--------------|----------|
| Entrypoint   | 0x002F   |
| Data Size    | 32 bytes |
| Instructions | 7        |

```
      00 01 02 03 04 05 06 07  08 09 0A 0B 0C 0D 0E 0F
      -- -- -- -- -- -- -- --  -- -- -- -- -- -- -- --
0020:                                               32                 2
0030: 02 80 1F 00 03 80 04 80  05 80 1F 01 6F 4B F8 FF  ............oK..
0040: FF 7F 06 80 79 00 F8 FF  FF 7F A0 10 10 01 00     ....y.......... 
```

#### Opcodes

```
  0: 0x002F [0x32] ExtData[1]->MainSpeed = 13* * 0.1
  1: 0x0032 [0x1F] MOVE_ENTITY: EventEntity moves to X=100.251*, Z=-61.795*, Y=-40.148*
  2: 0x003A [0x1F] MOVE_ENTITY: Update entity position (mode=1)
  3: 0x003C [0x6F] WAIT_FRAME_DELAY: Yield until WaitTime reaches zero
  4: 0x003D [0x4B] UPDATE_ENTITY_YAW(entity=EventEntity, yaw=5.3°*)
  5: 0x0044 [0x79] EventEntity looks at Unnamed NPC (ID: 17830048/0x011010A0) (Basic look)
  6: 0x004E [0x00] END_REQSTACK()
```

### Event 65535.2

#### Metadata

| Field        | Value    |
|--------------|----------|
| Entrypoint   | 0x004F   |
| Data Size    | 21 bytes |
| Instructions | 2        |

```
      00 01 02 03 04 05 06 07  08 09 0A 0B 0C 0D 0E 0F
      -- -- -- -- -- -- -- --  -- -- -- -- -- -- -- --
0040:                                               B6                 .
0050: 0B 07 80 08 80 09 80 0A  80 0B 80 0C 80 0C 80 09  ................
0060: 80 09 80 00                                       ....            
```

#### Opcodes

```
  0: 0x004F [0xB6] ENTITY_APPEARANCE_HANDLER(case=Full entity look, race=7*, hair=4*, head=0*, body=44*, hands=58*, legs=342*, feet=342*, main=0*, sub=0*)
  1: 0x0063 [0x00] END_REQSTACK()
```

### Event 65535.3

#### Metadata

| Field        | Value    |
|--------------|----------|
| Entrypoint   | 0x0064   |
| Data Size    | 22 bytes |
| Instructions | 3        |

```
      00 01 02 03 04 05 06 07  08 09 0A 0B 0C 0D 0E 0F
      -- -- -- -- -- -- -- --  -- -- -- -- -- -- -- --
0060:             B6 0B 07 80  0D 80 09 80 0A 80 0B 80      ............
0070: 0C 80 0C 80 09 80 09 80  96 00                    ..........      
```

#### Opcodes

```
  0: 0x0064 [0xB6] ENTITY_APPEARANCE_HANDLER(case=Full entity look, race=7*, hair=8*, head=0*, body=44*, hands=58*, legs=342*, feet=342*, main=0*, sub=0*)
  1: 0x0078 [0x96] UNSET_EVENT_NPC: Restore NPC after event (removes event NPC status)
  2: 0x0079 [0x00] END_REQSTACK()
```

### Event 65535.4

#### Metadata

| Field        | Value    |
|--------------|----------|
| Entrypoint   | 0x007A   |
| Data Size    | 13 bytes |
| Instructions | 3        |

```
      00 01 02 03 04 05 06 07  08 09 0A 0B 0C 0D 0E 0F
      -- -- -- -- -- -- -- --  -- -- -- -- -- -- -- --
0070:                                92 01 F8 FF FF 7F            ......
0080: 94 01 F8 FF FF 7F 00                              .......         
```

#### Opcodes

```
  0: 0x007A [0x92] EventEntity->Render.Flags3 ^= 0x01
  1: 0x0080 [0x94] EventEntity->Render.Flags3 ^= 0x01
  2: 0x0086 [0x00] END_REQSTACK()
```

### Event 1501

#### Metadata

| Field        | Value    |
|--------------|----------|
| Entrypoint   | 0x0087   |
| Data Size    | 76 bytes |
| Instructions | 14       |

```
      00 01 02 03 04 05 06 07  08 09 0A 0B 0C 0D 0E 0F
      -- -- -- -- -- -- -- --  -- -- -- -- -- -- -- --
0080:                      4A  8E 10 10 01 F0 FF FF 7F         J........
0090: 6F 76 8E 10 10 01 66 0E  80 8E 10 10 01 8E 10 10  ov....f.........
00A0: 01 74 6C 6B 30 03 02 10  0F 80 2B 8E 10 10 01 10  .tlk0.....+.....
00B0: 80 23 2B 8E 10 10 01 11  80 23 2B 8E 10 10 01 12  .#+......#+.....
00C0: 80 23 66 0E 80 8E 10 10  01 8E 10 10 01 74 6C 6B  .#f..........tlk
00D0: 32 21 00                                          2!.             
```

#### Opcodes

```
  0: 0x0087 [0x4A] Ploh Trishbahk (ID: 17830030/0x0110108E) looks at LocalPlayer
  1: 0x0090 [0x6F] WAIT_FRAME_DELAY: Yield until WaitTime reaches zero
  2: 0x0091 [0x76] CHECK_ENTITY_RENDER_FLAGS: Wait until Ploh Trishbahk (ID: 17830030/0x0110108E) Render.Flags0 and Render.Flags3 conditions are met
  3: 0x0096 [0x66] LOAD_EXT_SCHEDULER_MAIN: Load scheduler "tlk0" with entities [Ploh Trishbahk (ID: 17830030/0x0110108E), Ploh Trishbahk (ID: 17830030/0x0110108E)], work=50*
  4: 0x00A5 [0x03] Work_Zone[2] = 2200*
  5: 0x00AA [0x2B] Ploh Trishbahk (ID: 17830030/0x0110108E) [8345*]:
    → "Thank you for proffering your $3."
  6: 0x00B1 [0x23] WAIT_FOR_DIALOG_INTERACTION
  7: 0x00B2 [0x2B] Ploh Trishbahk (ID: 17830030/0x0110108E) [8346*]:
    → "I regret to inform you, however, that entrance is not permitted except between the hours of 15:00 and 22:00."
  8: 0x00B9 [0x23] WAIT_FOR_DIALOG_INTERACTION
  9: 0x00BA [0x2B] Ploh Trishbahk (ID: 17830030/0x0110108E) [8347*]:
    → "I apologize for the inconvenience, but would you please return during the aforementioned times?"
 10: 0x00C1 [0x23] WAIT_FOR_DIALOG_INTERACTION
 11: 0x00C2 [0x66] LOAD_EXT_SCHEDULER_MAIN: Load scheduler "tlk2" with entities [Ploh Trishbahk (ID: 17830030/0x0110108E), Ploh Trishbahk (ID: 17830030/0x0110108E)], work=50*
 12: 0x00D1 [0x21] END_EVENT
 13: 0x00D2 [0x00] END_REQSTACK()
```

### Event 2517

#### Metadata

| Field        | Value    |
|--------------|----------|
| Entrypoint   | 0x00D3   |
| Data Size    | 56 bytes |
| Instructions | 16       |

```
      00 01 02 03 04 05 06 07  08 09 0A 0B 0C 0D 0E 0F
      -- -- -- -- -- -- -- --  -- -- -- -- -- -- -- --
00D0:          1E F0 FF FF 7F  42 6F 70 66 00 80 F8 FF     .....Bopf....
00E0: FF 7F F8 FF FF 7F 74 6C  62 30 1D 13 80 23 1D 14  ......tlb0...#..
00F0: 80 23 1D 15 80 23 1D 16  80 23 66 00 80 F8 FF FF  .#...#...#f.....
0100: 7F F8 FF FF 7F 74 6C 62  31 21 00                 .....tlb1!.     
```

#### Opcodes

```
  0: 0x00D3 [0x1E] EventEntity looks at LocalPlayer and starts talking
  1: 0x00D8 [0x42] SET_CLI_EVENT_CANCEL_DATA()
  2: 0x00D9 [0x6F] WAIT_FRAME_DELAY: Yield until WaitTime reaches zero
  3: 0x00DA [0x70] WAIT_ENTITY_RENDER_FLAG: Wait while EventEntity->Render.Flags3 bit 2 is set (cancel turn if not)
  4: 0x00DB [0x66] LOAD_EXT_SCHEDULER_MAIN: Load scheduler "tlb0" with entities [EventEntity, EventEntity], work=68*
  5: 0x00EA [0x1D] PRINT_EVENT_MESSAGE(message_id=7903*)
    → "Beforrre you lies Castle Adoulin."
  6: 0x00ED [0x23] WAIT_FOR_DIALOG_INTERACTION
  7: 0x00EE [0x1D] PRINT_EVENT_MESSAGE(message_id=7904*)
    → "Those not here on official business must...oh, you're here making the rrrounds?"
  8: 0x00F1 [0x23] WAIT_FOR_DIALOG_INTERACTION
  9: 0x00F2 [0x1D] PRINT_EVENT_MESSAGE(message_id=7905*)
    → "The castle is completely securrre, thanks in no small part to us guards."
 10: 0x00F5 [0x23] WAIT_FOR_DIALOG_INTERACTION
 11: 0x00F6 [0x1D] PRINT_EVENT_MESSAGE(message_id=7906*)
    → "Let the Peacekeeperrrs know that nothing is amiss here."
 12: 0x00F9 [0x23] WAIT_FOR_DIALOG_INTERACTION
 13: 0x00FA [0x66] LOAD_EXT_SCHEDULER_MAIN: Load scheduler "tlb1" with entities [EventEntity, EventEntity], work=68*
 14: 0x0109 [0x21] END_EVENT
 15: 0x010A [0x00] END_REQSTACK()
```

### Event 49

#### Metadata

| Field        | Value    |
|--------------|----------|
| Entrypoint   | 0x010B   |
| Data Size    | 48 bytes |
| Instructions | 12       |

```
      00 01 02 03 04 05 06 07  08 09 0A 0B 0C 0D 0E 0F
      -- -- -- -- -- -- -- --  -- -- -- -- -- -- -- --
0100:                                   42 1E F0 FF FF             B....
0110: 7F 6F 70 66 00 80 F8 FF  FF 7F F8 FF FF 7F 74 6C  .opf..........tl
0120: 62 30 1D 17 80 23 1D 18  80 23 66 00 80 F8 FF FF  b0...#...#f.....
0130: 7F F8 FF FF 7F 74 6C 62  31 21 00                 .....tlb1!.     
```

#### Opcodes

```
  0: 0x010B [0x42] SET_CLI_EVENT_CANCEL_DATA()
  1: 0x010C [0x1E] EventEntity looks at LocalPlayer and starts talking
  2: 0x0111 [0x6F] WAIT_FRAME_DELAY: Yield until WaitTime reaches zero
  3: 0x0112 [0x70] WAIT_ENTITY_RENDER_FLAG: Wait while EventEntity->Render.Flags3 bit 2 is set (cancel turn if not)
  4: 0x0113 [0x66] LOAD_EXT_SCHEDULER_MAIN: Load scheduler "tlb0" with entities [EventEntity, EventEntity], work=68*
  5: 0x0122 [0x1D] PRINT_EVENT_MESSAGE(message_id=8127*)
    → "The master is far too preoccupied to see an outsiderrr like... What's this? The librrrary? Maybe I can be of assistance."
  6: 0x0125 [0x23] WAIT_FOR_DIALOG_INTERACTION
  7: 0x0126 [0x1D] PRINT_EVENT_MESSAGE(message_id=8128*)
    → "Those slobs need to update their rrrecords better. So much of this is out of date! There. Now everything is as it should be."
  8: 0x0129 [0x23] WAIT_FOR_DIALOG_INTERACTION
  9: 0x012A [0x66] LOAD_EXT_SCHEDULER_MAIN: Load scheduler "tlb1" with entities [EventEntity, EventEntity], work=68*
 10: 0x0139 [0x21] END_EVENT
 11: 0x013A [0x00] END_REQSTACK()
```

### Event 1506

#### Metadata

| Field        | Value   |
|--------------|---------|
| Entrypoint   | 0x013B  |
| Data Size    | 1 bytes |
| Instructions | 1       |

```
      00 01 02 03 04 05 06 07  08 09 0A 0B 0C 0D 0E 0F
      -- -- -- -- -- -- -- --  -- -- -- -- -- -- -- --
0130:                                   00                         .    
```

#### Opcodes

```
  0: 0x013B [0x00] END_REQSTACK()
```

### Event 65535.5

#### Metadata

| Field        | Value    |
|--------------|----------|
| Entrypoint   | 0x013C   |
| Data Size    | 19 bytes |
| Instructions | 5        |

```
      00 01 02 03 04 05 06 07  08 09 0A 0B 0C 0D 0E 0F
      -- -- -- -- -- -- -- --  -- -- -- -- -- -- -- --
0130:                                      32 02 80 1F              2...
0140: 00 19 80 1A 80 05 80 1F  01 1E 90 10 10 01 00     ............... 
```

#### Opcodes

```
  0: 0x013C [0x32] ExtData[1]->MainSpeed = 13* * 0.1
  1: 0x013F [0x1F] MOVE_ENTITY: EventEntity moves to X=100.446*, Z=-65.458*, Y=-40.148*
  2: 0x0147 [0x1F] MOVE_ENTITY: Update entity position (mode=1)
  3: 0x0149 [0x1E] EventEntity looks at Arciela (ID: 17830032/0x01101090) and starts talking
  4: 0x014E [0x00] END_REQSTACK()
```

### Event 1508

#### Metadata

| Field        | Value   |
|--------------|---------|
| Entrypoint   | 0x014F  |
| Data Size    | 1 bytes |
| Instructions | 1       |

```
      00 01 02 03 04 05 06 07  08 09 0A 0B 0C 0D 0E 0F
      -- -- -- -- -- -- -- --  -- -- -- -- -- -- -- --
0140:                                               00                 .
```

#### Opcodes

```
  0: 0x014F [0x00] END_REQSTACK()
```

### Event 1514

#### Metadata

| Field        | Value   |
|--------------|---------|
| Entrypoint   | 0x0150  |
| Data Size    | 1 bytes |
| Instructions | 1       |

```
      00 01 02 03 04 05 06 07  08 09 0A 0B 0C 0D 0E 0F
      -- -- -- -- -- -- -- --  -- -- -- -- -- -- -- --
0150: 00                                                .               
```

#### Opcodes

```
  0: 0x0150 [0x00] END_REQSTACK()
```

### Event 65535.6

#### Metadata

| Field        | Value    |
|--------------|----------|
| Entrypoint   | 0x0151   |
| Data Size    | 22 bytes |
| Instructions | 6        |

```
      00 01 02 03 04 05 06 07  08 09 0A 0B 0C 0D 0E 0F
      -- -- -- -- -- -- -- --  -- -- -- -- -- -- -- --
0150:    32 1B 80 1F 00 1C 80  1D 80 05 80 1F 01 1E AC   2..............
0160: 10 10 01 1C 1E 80 00                              .......         
```

#### Opcodes

```
  0: 0x0151 [0x32] ExtData[1]->MainSpeed = 40* * 0.1
  1: 0x0154 [0x1F] MOVE_ENTITY: EventEntity moves to X=96.656*, Z=-65.585*, Y=-40.148*
  2: 0x015C [0x1F] MOVE_ENTITY: Update entity position (mode=1)
  3: 0x015E [0x1E] EventEntity looks at Unnamed NPC (ID: 17830060/0x011010AC) and starts talking
  4: 0x0163 [0x1C] WAIT(30* ticks)
  5: 0x0166 [0x00] END_REQSTACK()
```

### Event 1519

#### Metadata

| Field        | Value     |
|--------------|-----------|
| Entrypoint   | 0x0167    |
| Data Size    | 148 bytes |
| Instructions | 27        |

```
      00 01 02 03 04 05 06 07  08 09 0A 0B 0C 0D 0E 0F
      -- -- -- -- -- -- -- --  -- -- -- -- -- -- -- --
0160:                      42  1E F0 FF FF 7F 6F 70 66         B.....opf
0170: 0E 80 F8 FF FF 7F F8 FF  FF 7F 74 6C 6B 30 1D 1F  ..........tlk0..
0180: 80 23 1D 20 80 23 53 F8  FF FF 7F F8 FF FF 7F 74  .#. .#S........t
0190: 6C 6B 30 66 0E 80 F8 FF  FF 7F F8 FF FF 7F 74 6C  lk0f..........tl
01A0: 6B 32 1D 21 80 23 53 F8  FF FF 7F F8 FF FF 7F 74  k2.!.#S........t
01B0: 6C 6B 32 66 22 80 F8 FF  FF 7F F8 FF FF 7F 74 6C  lk2f".........tl
01C0: 63 30 1D 23 80 23 1D 24  80 23 53 F8 FF FF 7F F8  c0.#.#.$.#S.....
01D0: FF FF 7F 74 6C 63 30 66  22 80 F8 FF FF 7F F8 FF  ...tlc0f".......
01E0: FF 7F 74 6C 63 31 1D 25  80 23 53 F8 FF FF 7F F8  ..tlc1.%.#S.....
01F0: FF FF 7F 74 6C 63 31 20  00 21 00                 ...tlc1 .!.     
```

#### Opcodes

```
  0: 0x0167 [0x42] SET_CLI_EVENT_CANCEL_DATA()
  1: 0x0168 [0x1E] EventEntity looks at LocalPlayer and starts talking
  2: 0x016D [0x6F] WAIT_FRAME_DELAY: Yield until WaitTime reaches zero
  3: 0x016E [0x70] WAIT_ENTITY_RENDER_FLAG: Wait while EventEntity->Render.Flags3 bit 2 is set (cancel turn if not)
  4: 0x016F [0x66] LOAD_EXT_SCHEDULER_MAIN: Load scheduler "tlk0" with entities [EventEntity, EventEntity], work=50*
  5: 0x017E [0x1D] PRINT_EVENT_MESSAGE(message_id=8604*)
    → "Ingrrrid herself has left me with a message for you."
  6: 0x0181 [0x23] WAIT_FOR_DIALOG_INTERACTION
  7: 0x0182 [0x1D] PRINT_EVENT_MESSAGE(message_id=8605*)
    → "You are to gather four items that have been touched by the Divine."
  8: 0x0185 [0x23] WAIT_FOR_DIALOG_INTERACTION
  9: 0x0186 [0x53] WAIT_SCHEDULER_TASK: Wait for scheduler "tlk0" with entities [EventEntity, EventEntity]
 10: 0x0193 [0x66] LOAD_EXT_SCHEDULER_MAIN: Load scheduler "tlk2" with entities [EventEntity, EventEntity], work=50*
 11: 0x01A2 [0x1D] PRINT_EVENT_MESSAGE(message_id=8606*)
    → "The firrrst, a piece of stone wall touched by the light of dawn. The second, holy water untainted by impurity."
 12: 0x01A5 [0x23] WAIT_FOR_DIALOG_INTERACTION
 13: 0x01A6 [0x53] WAIT_SCHEDULER_TASK: Wait for scheduler "tlk2" with entities [EventEntity, EventEntity]
 14: 0x01B3 [0x66] LOAD_EXT_SCHEDULER_MAIN: Load scheduler "tlc0" with entities [EventEntity, EventEntity], work=52*
 15: 0x01C2 [0x1D] PRINT_EVENT_MESSAGE(message_id=8607*)
    → "The thirrrd, a flame that has gone unextinguished for seven years. The fourth, the wings of a weather vane that has stood the test of time."
 16: 0x01C5 [0x23] WAIT_FOR_DIALOG_INTERACTION
 17: 0x01C6 [0x1D] PRINT_EVENT_MESSAGE(message_id=8608*)
    → "Perhaps you could start by gathering information from the other exorcists. They would do their utmost to uphold Ingrid's wishes."
 18: 0x01C9 [0x23] WAIT_FOR_DIALOG_INTERACTION
 19: 0x01CA [0x53] WAIT_SCHEDULER_TASK: Wait for scheduler "tlc0" with entities [EventEntity, EventEntity]
 20: 0x01D7 [0x66] LOAD_EXT_SCHEDULER_MAIN: Load scheduler "tlc1" with entities [EventEntity, EventEntity], work=52*
 21: 0x01E6 [0x1D] PRINT_EVENT_MESSAGE(message_id=8609*)
    → "Hildebert's manse is not far from here. I suggest you pay his order a visit and see what information you can glean."
 22: 0x01E9 [0x23] WAIT_FOR_DIALOG_INTERACTION
 23: 0x01EA [0x53] WAIT_SCHEDULER_TASK: Wait for scheduler "tlc1" with entities [EventEntity, EventEntity]
 24: 0x01F7 [0x20] SET_CLI_EVENT_UC_FLAG: Unlock player control
 25: 0x01F9 [0x21] END_EVENT
 26: 0x01FA [0x00] END_REQSTACK()
```

### Event 1520

#### Metadata

| Field        | Value     |
|--------------|-----------|
| Entrypoint   | 0x01FB    |
| Data Size    | 124 bytes |
| Instructions | 20        |

```
      00 01 02 03 04 05 06 07  08 09 0A 0B 0C 0D 0E 0F
      -- -- -- -- -- -- -- --  -- -- -- -- -- -- -- --
01F0:                                   1E F0 FF FF 7F             .....
0200: 6F 70 66 0E 80 F8 FF FF  7F F8 FF FF 7F 74 6C 6B  opf..........tlk
0210: 30 1D 21 80 23 1D 23 80  23 53 F8 FF FF 7F F8 FF  0.!.#.#.#S......
0220: FF 7F 74 6C 6B 30 66 0E  80 F8 FF FF 7F F8 FF FF  ..tlk0f.........
0230: 7F 74 6C 6B 32 53 F8 FF  FF 7F F8 FF FF 7F 74 6C  .tlk2S........tl
0240: 6B 32 66 22 80 F8 FF FF  7F F8 FF FF 7F 74 6C 63  k2f".........tlc
0250: 30 1D 24 80 23 1D 25 80  23 53 F8 FF FF 7F F8 FF  0.$.#.%.#S......
0260: FF 7F 74 6C 63 30 66 22  80 F8 FF FF 7F F8 FF FF  ..tlc0f"........
0270: 7F 74 6C 63 31 21 00                              .tlc1!.         
```

#### Opcodes

```
  0: 0x01FB [0x1E] EventEntity looks at LocalPlayer and starts talking
  1: 0x0200 [0x6F] WAIT_FRAME_DELAY: Yield until WaitTime reaches zero
  2: 0x0201 [0x70] WAIT_ENTITY_RENDER_FLAG: Wait while EventEntity->Render.Flags3 bit 2 is set (cancel turn if not)
  3: 0x0202 [0x66] LOAD_EXT_SCHEDULER_MAIN: Load scheduler "tlk0" with entities [EventEntity, EventEntity], work=50*
  4: 0x0211 [0x1D] PRINT_EVENT_MESSAGE(message_id=8606*)
    → "The firrrst, a piece of stone wall touched by the light of dawn. The second, holy water untainted by impurity."
  5: 0x0214 [0x23] WAIT_FOR_DIALOG_INTERACTION
  6: 0x0215 [0x1D] PRINT_EVENT_MESSAGE(message_id=8607*)
    → "The thirrrd, a flame that has gone unextinguished for seven years. The fourth, the wings of a weather vane that has stood the test of time."
  7: 0x0218 [0x23] WAIT_FOR_DIALOG_INTERACTION
  8: 0x0219 [0x53] WAIT_SCHEDULER_TASK: Wait for scheduler "tlk0" with entities [EventEntity, EventEntity]
  9: 0x0226 [0x66] LOAD_EXT_SCHEDULER_MAIN: Load scheduler "tlk2" with entities [EventEntity, EventEntity], work=50*
 10: 0x0235 [0x53] WAIT_SCHEDULER_TASK: Wait for scheduler "tlk2" with entities [EventEntity, EventEntity]
 11: 0x0242 [0x66] LOAD_EXT_SCHEDULER_MAIN: Load scheduler "tlc0" with entities [EventEntity, EventEntity], work=52*
 12: 0x0251 [0x1D] PRINT_EVENT_MESSAGE(message_id=8608*)
    → "Perhaps you could start by gathering information from the other exorcists. They would do their utmost to uphold Ingrid's wishes."
 13: 0x0254 [0x23] WAIT_FOR_DIALOG_INTERACTION
 14: 0x0255 [0x1D] PRINT_EVENT_MESSAGE(message_id=8609*)
    → "Hildebert's manse is not far from here. I suggest you pay his order a visit and see what information you can glean."
 15: 0x0258 [0x23] WAIT_FOR_DIALOG_INTERACTION
 16: 0x0259 [0x53] WAIT_SCHEDULER_TASK: Wait for scheduler "tlc0" with entities [EventEntity, EventEntity]
 17: 0x0266 [0x66] LOAD_EXT_SCHEDULER_MAIN: Load scheduler "tlc1" with entities [EventEntity, EventEntity], work=52*
 18: 0x0275 [0x21] END_EVENT
 19: 0x0276 [0x00] END_REQSTACK()
```

### Event 1524

#### Metadata

| Field        | Value    |
|--------------|----------|
| Entrypoint   | 0x0277   |
| Data Size    | 52 bytes |
| Instructions | 14       |

```
      00 01 02 03 04 05 06 07  08 09 0A 0B 0C 0D 0E 0F
      -- -- -- -- -- -- -- --  -- -- -- -- -- -- -- --
0270:                      42  1E F0 FF FF 7F 6F 70 66         B.....opf
0280: 00 80 F8 FF FF 7F F8 FF  FF 7F 74 6C 62 30 1D 26  ..........tlb0.&
0290: 80 23 1D 27 80 23 1D 28  80 23 66 00 80 F8 FF FF  .#.'.#.(.#f.....
02A0: 7F F8 FF FF 7F 74 6C 62  31 21 00                 .....tlb1!.     
```

#### Opcodes

```
  0: 0x0277 [0x42] SET_CLI_EVENT_CANCEL_DATA()
  1: 0x0278 [0x1E] EventEntity looks at LocalPlayer and starts talking
  2: 0x027D [0x6F] WAIT_FRAME_DELAY: Yield until WaitTime reaches zero
  3: 0x027E [0x70] WAIT_ENTITY_RENDER_FLAG: Wait while EventEntity->Render.Flags3 bit 2 is set (cancel turn if not)
  4: 0x027F [0x66] LOAD_EXT_SCHEDULER_MAIN: Load scheduler "tlb0" with entities [EventEntity, EventEntity], work=68*
  5: 0x028E [0x1D] PRINT_EVENT_MESSAGE(message_id=8626*)
    → "My dearrr pioneer, we have located the weather vane that you seek."
  6: 0x0291 [0x23] WAIT_FOR_DIALOG_INTERACTION
  7: 0x0292 [0x1D] PRINT_EVENT_MESSAGE(message_id=8627*)
    → "To the south of this very plaza lies a larrrge manse whose storage unit contains such an object."
  8: 0x0295 [0x23] WAIT_FOR_DIALOG_INTERACTION
  9: 0x0296 [0x1D] PRINT_EVENT_MESSAGE(message_id=8628*)
    → "We have already discussed the issue with the owners, who are waiting for your arrrival at the manse to the south."
 10: 0x0299 [0x23] WAIT_FOR_DIALOG_INTERACTION
 11: 0x029A [0x66] LOAD_EXT_SCHEDULER_MAIN: Load scheduler "tlb1" with entities [EventEntity, EventEntity], work=68*
 12: 0x02A9 [0x21] END_EVENT
 13: 0x02AA [0x00] END_REQSTACK()
```

### Event 65535.7

#### Metadata

| Field        | Value    |
|--------------|----------|
| Entrypoint   | 0x02AB   |
| Data Size    | 51 bytes |
| Instructions | 13       |

```
      00 01 02 03 04 05 06 07  08 09 0A 0B 0C 0D 0E 0F
      -- -- -- -- -- -- -- --  -- -- -- -- -- -- -- --
02A0:                                   1E F0 FF FF 7F             .....
02B0: 6F 70 66 00 80 F8 FF FF  7F F8 FF FF 7F 74 6C 62  opf..........tlb
02C0: 30 1D 26 80 23 1D 27 80  23 1D 28 80 23 66 00 80  0.&.#.'.#.(.#f..
02D0: F8 FF FF 7F F8 FF FF 7F  74 6C 62 31 21 00        ........tlb1!.  
```

#### Opcodes

```
  0: 0x02AB [0x1E] EventEntity looks at LocalPlayer and starts talking
  1: 0x02B0 [0x6F] WAIT_FRAME_DELAY: Yield until WaitTime reaches zero
  2: 0x02B1 [0x70] WAIT_ENTITY_RENDER_FLAG: Wait while EventEntity->Render.Flags3 bit 2 is set (cancel turn if not)
  3: 0x02B2 [0x66] LOAD_EXT_SCHEDULER_MAIN: Load scheduler "tlb0" with entities [EventEntity, EventEntity], work=68*
  4: 0x02C1 [0x1D] PRINT_EVENT_MESSAGE(message_id=8626*)
    → "My dearrr pioneer, we have located the weather vane that you seek."
  5: 0x02C4 [0x23] WAIT_FOR_DIALOG_INTERACTION
  6: 0x02C5 [0x1D] PRINT_EVENT_MESSAGE(message_id=8627*)
    → "To the south of this very plaza lies a larrrge manse whose storage unit contains such an object."
  7: 0x02C8 [0x23] WAIT_FOR_DIALOG_INTERACTION
  8: 0x02C9 [0x1D] PRINT_EVENT_MESSAGE(message_id=8628*)
    → "We have already discussed the issue with the owners, who are waiting for your arrrival at the manse to the south."
  9: 0x02CC [0x23] WAIT_FOR_DIALOG_INTERACTION
 10: 0x02CD [0x66] LOAD_EXT_SCHEDULER_MAIN: Load scheduler "tlb1" with entities [EventEntity, EventEntity], work=68*
 11: 0x02DC [0x21] END_EVENT
 12: 0x02DD [0x00] END_REQSTACK()
```

### Event 5063

#### Metadata

| Field        | Value    |
|--------------|----------|
| Entrypoint   | 0x02DE   |
| Data Size    | 43 bytes |
| Instructions | 9        |

```
      00 01 02 03 04 05 06 07  08 09 0A 0B 0C 0D 0E 0F
      -- -- -- -- -- -- -- --  -- -- -- -- -- -- -- --
02D0:                                            1E F0                ..
02E0: FF FF 7F 6F 70 66 00 80  F8 FF FF 7F F8 FF FF 7F  ...opf..........
02F0: 74 6C 62 30 1D 29 80 23  66 00 80 F8 FF FF 7F F8  tlb0.).#f.......
0300: FF FF 7F 74 6C 62 31 21  00                       ...tlb1!.       
```

#### Opcodes

```
  0: 0x02DE [0x1E] EventEntity looks at LocalPlayer and starts talking
  1: 0x02E3 [0x6F] WAIT_FRAME_DELAY: Yield until WaitTime reaches zero
  2: 0x02E4 [0x70] WAIT_ENTITY_RENDER_FLAG: Wait while EventEntity->Render.Flags3 bit 2 is set (cancel turn if not)
  3: 0x02E5 [0x66] LOAD_EXT_SCHEDULER_MAIN: Load scheduler "tlb0" with entities [EventEntity, EventEntity], work=68*
  4: 0x02F4 [0x1D] PRINT_EVENT_MESSAGE(message_id=8969*)
    → "The princess--she's been taken by some horrible beast! If you are truly a friend to the order, then you must go to the wilds to rescue her!"
  5: 0x02F7 [0x23] WAIT_FOR_DIALOG_INTERACTION
  6: 0x02F8 [0x66] LOAD_EXT_SCHEDULER_MAIN: Load scheduler "tlb1" with entities [EventEntity, EventEntity], work=68*
  7: 0x0307 [0x21] END_EVENT
  8: 0x0308 [0x00] END_REQSTACK()
```

### Event 1530

#### Metadata

| Field        | Value    |
|--------------|----------|
| Entrypoint   | 0x0309   |
| Data Size    | 43 bytes |
| Instructions | 9        |

```
      00 01 02 03 04 05 06 07  08 09 0A 0B 0C 0D 0E 0F
      -- -- -- -- -- -- -- --  -- -- -- -- -- -- -- --
0300:                             1E F0 FF FF 7F 6F 70           .....op
0310: 66 00 80 F8 FF FF 7F F8  FF FF 7F 74 6C 62 30 1D  f..........tlb0.
0320: 2A 80 23 66 00 80 F8 FF  FF 7F F8 FF FF 7F 74 6C  *.#f..........tl
0330: 62 31 21 00                                       b1!.            
```

#### Opcodes

```
  0: 0x0309 [0x1E] EventEntity looks at LocalPlayer and starts talking
  1: 0x030E [0x6F] WAIT_FRAME_DELAY: Yield until WaitTime reaches zero
  2: 0x030F [0x70] WAIT_ENTITY_RENDER_FLAG: Wait while EventEntity->Render.Flags3 bit 2 is set (cancel turn if not)
  3: 0x0310 [0x66] LOAD_EXT_SCHEDULER_MAIN: Load scheduler "tlb0" with entities [EventEntity, EventEntity], work=68*
  4: 0x031F [0x1D] PRINT_EVENT_MESSAGE(message_id=9088*)
    → "Feeling a bit lost? I'm sure someone at the Pioneerrrs' Coalition can help you."
  5: 0x0322 [0x23] WAIT_FOR_DIALOG_INTERACTION
  6: 0x0323 [0x66] LOAD_EXT_SCHEDULER_MAIN: Load scheduler "tlb1" with entities [EventEntity, EventEntity], work=68*
  7: 0x0332 [0x21] END_EVENT
  8: 0x0333 [0x00] END_REQSTACK()
```

### Event 1531

#### Metadata

| Field        | Value   |
|--------------|---------|
| Entrypoint   | 0x0334  |
| Data Size    | 1 bytes |
| Instructions | 1       |

```
      00 01 02 03 04 05 06 07  08 09 0A 0B 0C 0D 0E 0F
      -- -- -- -- -- -- -- --  -- -- -- -- -- -- -- --
0330:             00                                        .           
```

#### Opcodes

```
  0: 0x0334 [0x00] END_REQSTACK()
```

### Event 1532

#### Metadata

| Field        | Value   |
|--------------|---------|
| Entrypoint   | 0x0335  |
| Data Size    | 1 bytes |
| Instructions | 1       |

```
      00 01 02 03 04 05 06 07  08 09 0A 0B 0C 0D 0E 0F
      -- -- -- -- -- -- -- --  -- -- -- -- -- -- -- --
0330:                00                                      .          
```

#### Opcodes

```
  0: 0x0335 [0x00] END_REQSTACK()
```

### Event 1550

#### Metadata

| Field        | Value   |
|--------------|---------|
| Entrypoint   | 0x0336  |
| Data Size    | 1 bytes |
| Instructions | 1       |

```
      00 01 02 03 04 05 06 07  08 09 0A 0B 0C 0D 0E 0F
      -- -- -- -- -- -- -- --  -- -- -- -- -- -- -- --
0330:                   00                                    .         
```

#### Opcodes

```
  0: 0x0336 [0x00] END_REQSTACK()
```

### Event 1540

#### Metadata

| Field        | Value    |
|--------------|----------|
| Entrypoint   | 0x0337   |
| Data Size    | 47 bytes |
| Instructions | 11       |

```
      00 01 02 03 04 05 06 07  08 09 0A 0B 0C 0D 0E 0F
      -- -- -- -- -- -- -- --  -- -- -- -- -- -- -- --
0330:                      1E  F0 FF FF 7F 6F 70 66 00         .....opf.
0340: 80 F8 FF FF 7F F8 FF FF  7F 74 6C 62 30 1D 2B 80  .........tlb0.+.
0350: 23 1D 2C 80 23 66 00 80  F8 FF FF 7F F8 FF FF 7F  #.,.#f..........
0360: 74 6C 62 31 21 00                                 tlb1!.          
```

#### Opcodes

```
  0: 0x0337 [0x1E] EventEntity looks at LocalPlayer and starts talking
  1: 0x033C [0x6F] WAIT_FRAME_DELAY: Yield until WaitTime reaches zero
  2: 0x033D [0x70] WAIT_ENTITY_RENDER_FLAG: Wait while EventEntity->Render.Flags3 bit 2 is set (cancel turn if not)
  3: 0x033E [0x66] LOAD_EXT_SCHEDULER_MAIN: Load scheduler "tlb0" with entities [EventEntity, EventEntity], work=68*
  4: 0x034D [0x1D] PRINT_EVENT_MESSAGE(message_id=9170*)
    → "The princess has always been a connoisseurrr of fine vegetables. Surely fresh tomatoes will cheer her up."
  5: 0x0350 [0x23] WAIT_FOR_DIALOG_INTERACTION
  6: 0x0351 [0x1D] PRINT_EVENT_MESSAGE(message_id=9171*)
    → "But wasn't that Fremilla's job...?"
  7: 0x0354 [0x23] WAIT_FOR_DIALOG_INTERACTION
  8: 0x0355 [0x66] LOAD_EXT_SCHEDULER_MAIN: Load scheduler "tlb1" with entities [EventEntity, EventEntity], work=68*
  9: 0x0364 [0x21] END_EVENT
 10: 0x0365 [0x00] END_REQSTACK()
```

### Event 1541

#### Metadata

| Field        | Value    |
|--------------|----------|
| Entrypoint   | 0x0366   |
| Data Size    | 47 bytes |
| Instructions | 11       |

```
      00 01 02 03 04 05 06 07  08 09 0A 0B 0C 0D 0E 0F
      -- -- -- -- -- -- -- --  -- -- -- -- -- -- -- --
0360:                   1E F0  FF FF 7F 6F 70 66 00 80        .....opf..
0370: F8 FF FF 7F F8 FF FF 7F  74 6C 62 30 1D 2D 80 23  ........tlb0.-.#
0380: 1D 2E 80 23 66 00 80 F8  FF FF 7F F8 FF FF 7F 74  ...#f..........t
0390: 6C 62 31 21 00                                    lb1!.           
```

#### Opcodes

```
  0: 0x0366 [0x1E] EventEntity looks at LocalPlayer and starts talking
  1: 0x036B [0x6F] WAIT_FRAME_DELAY: Yield until WaitTime reaches zero
  2: 0x036C [0x70] WAIT_ENTITY_RENDER_FLAG: Wait while EventEntity->Render.Flags3 bit 2 is set (cancel turn if not)
  3: 0x036D [0x66] LOAD_EXT_SCHEDULER_MAIN: Load scheduler "tlb0" with entities [EventEntity, EventEntity], work=68*
  4: 0x037C [0x1D] PRINT_EVENT_MESSAGE(message_id=9275*)
    → "The Twelve Orders have tasked you with surrrveying Rala Waterways?"
  5: 0x037F [0x23] WAIT_FOR_DIALOG_INTERACTION
  6: 0x0380 [0x1D] PRINT_EVENT_MESSAGE(message_id=9276*)
    → "I would advise you to bring prrrotection. The recent landshivers may have loosened a few stones in the ceilings."
  7: 0x0383 [0x23] WAIT_FOR_DIALOG_INTERACTION
  8: 0x0384 [0x66] LOAD_EXT_SCHEDULER_MAIN: Load scheduler "tlb1" with entities [EventEntity, EventEntity], work=68*
  9: 0x0393 [0x21] END_EVENT
 10: 0x0394 [0x00] END_REQSTACK()
```

### Event 1542

#### Metadata

| Field        | Value    |
|--------------|----------|
| Entrypoint   | 0x0395   |
| Data Size    | 47 bytes |
| Instructions | 11       |

```
      00 01 02 03 04 05 06 07  08 09 0A 0B 0C 0D 0E 0F
      -- -- -- -- -- -- -- --  -- -- -- -- -- -- -- --
0390:                1E F0 FF  FF 7F 6F 70 66 00 80 F8       .....opf...
03A0: FF FF 7F F8 FF FF 7F 74  6C 62 30 1D 2F 80 23 1D  .......tlb0./.#.
03B0: 30 80 23 66 00 80 F8 FF  FF 7F F8 FF FF 7F 74 6C  0.#f..........tl
03C0: 62 31 21 00                                       b1!.            
```

#### Opcodes

```
  0: 0x0395 [0x1E] EventEntity looks at LocalPlayer and starts talking
  1: 0x039A [0x6F] WAIT_FRAME_DELAY: Yield until WaitTime reaches zero
  2: 0x039B [0x70] WAIT_ENTITY_RENDER_FLAG: Wait while EventEntity->Render.Flags3 bit 2 is set (cancel turn if not)
  3: 0x039C [0x66] LOAD_EXT_SCHEDULER_MAIN: Load scheduler "tlb0" with entities [EventEntity, EventEntity], work=68*
  4: 0x03AB [0x1D] PRINT_EVENT_MESSAGE(message_id=9324*)
    → "Arciela has never called such a meeting of the Twelve Orders with such urrrgency."
  5: 0x03AE [0x23] WAIT_FOR_DIALOG_INTERACTION
  6: 0x03AF [0x1D] PRINT_EVENT_MESSAGE(message_id=9325*)
    → "She has informed us that you are to be present. I'll purrrmit you entry once the heads have assembled."
  7: 0x03B2 [0x23] WAIT_FOR_DIALOG_INTERACTION
  8: 0x03B3 [0x66] LOAD_EXT_SCHEDULER_MAIN: Load scheduler "tlb1" with entities [EventEntity, EventEntity], work=68*
  9: 0x03C2 [0x21] END_EVENT
 10: 0x03C3 [0x00] END_REQSTACK()
```

### Event 1543

#### Metadata

| Field        | Value    |
|--------------|----------|
| Entrypoint   | 0x03C4   |
| Data Size    | 47 bytes |
| Instructions | 11       |

```
      00 01 02 03 04 05 06 07  08 09 0A 0B 0C 0D 0E 0F
      -- -- -- -- -- -- -- --  -- -- -- -- -- -- -- --
03C0:             1E F0 FF FF  7F 6F 70 66 00 80 F8 FF      .....opf....
03D0: FF 7F F8 FF FF 7F 74 6C  62 30 1D 31 80 23 1D 32  ......tlb0.1.#.2
03E0: 80 23 66 00 80 F8 FF FF  7F F8 FF FF 7F 74 6C 62  .#f..........tlb
03F0: 31 21 00                                          1!.             
```

#### Opcodes

```
  0: 0x03C4 [0x1E] EventEntity looks at LocalPlayer and starts talking
  1: 0x03C9 [0x6F] WAIT_FRAME_DELAY: Yield until WaitTime reaches zero
  2: 0x03CA [0x70] WAIT_ENTITY_RENDER_FLAG: Wait while EventEntity->Render.Flags3 bit 2 is set (cancel turn if not)
  3: 0x03CB [0x66] LOAD_EXT_SCHEDULER_MAIN: Load scheduler "tlb0" with entities [EventEntity, EventEntity], work=68*
  4: 0x03DA [0x1D] PRINT_EVENT_MESSAGE(message_id=9552*)
    → "What!? Frrremilla!? I'm at a loss for words!"
  5: 0x03DD [0x23] WAIT_FOR_DIALOG_INTERACTION
  6: 0x03DE [0x1D] PRINT_EVENT_MESSAGE(message_id=9553*)
    → "If only I could do something to help besides stand guarrrd over the castle.... Either way, there is sadly nothing you can do here at the moment."
  7: 0x03E1 [0x23] WAIT_FOR_DIALOG_INTERACTION
  8: 0x03E2 [0x66] LOAD_EXT_SCHEDULER_MAIN: Load scheduler "tlb1" with entities [EventEntity, EventEntity], work=68*
  9: 0x03F1 [0x21] END_EVENT
 10: 0x03F2 [0x00] END_REQSTACK()
```

### Event 1545

#### Metadata

| Field        | Value    |
|--------------|----------|
| Entrypoint   | 0x03F3   |
| Data Size    | 55 bytes |
| Instructions | 15       |

```
      00 01 02 03 04 05 06 07  08 09 0A 0B 0C 0D 0E 0F
      -- -- -- -- -- -- -- --  -- -- -- -- -- -- -- --
03F0:          1E F0 FF FF 7F  6F 70 66 00 80 F8 FF FF     .....opf.....
0400: 7F F8 FF FF 7F 74 6C 62  30 1D 33 80 23 1D 34 80  .....tlb0.3.#.4.
0410: 23 1D 35 80 23 1D 36 80  23 66 00 80 F8 FF FF 7F  #.5.#.6.#f......
0420: F8 FF FF 7F 74 6C 62 31  21 00                    ....tlb1!.      
```

#### Opcodes

```
  0: 0x03F3 [0x1E] EventEntity looks at LocalPlayer and starts talking
  1: 0x03F8 [0x6F] WAIT_FRAME_DELAY: Yield until WaitTime reaches zero
  2: 0x03F9 [0x70] WAIT_ENTITY_RENDER_FLAG: Wait while EventEntity->Render.Flags3 bit 2 is set (cancel turn if not)
  3: 0x03FA [0x66] LOAD_EXT_SCHEDULER_MAIN: Load scheduler "tlb0" with entities [EventEntity, EventEntity], work=68*
  4: 0x0409 [0x1D] PRINT_EVENT_MESSAGE(message_id=9580*)
    → "Ah, <Player>. Cynthia entrrrusted me with a message for you."
  5: 0x040C [0x23] WAIT_FOR_DIALOG_INTERACTION
  6: 0x040D [0x1D] PRINT_EVENT_MESSAGE(message_id=9581*)
    → "It rrreads, "Please bring the heirloom necklace that Master Ygnas mentioned.""
  7: 0x0410 [0x23] WAIT_FOR_DIALOG_INTERACTION
  8: 0x0411 [0x1D] PRINT_EVENT_MESSAGE(message_id=9582*)
    → "I think it would be easiest if you just hand overrr the necklace to me, and I shall pass it on to Cynthia."
  9: 0x0414 [0x23] WAIT_FOR_DIALOG_INTERACTION
 10: 0x0415 [0x1D] PRINT_EVENT_MESSAGE(message_id=9583*)
    → "I await your rrreturn."
 11: 0x0418 [0x23] WAIT_FOR_DIALOG_INTERACTION
 12: 0x0419 [0x66] LOAD_EXT_SCHEDULER_MAIN: Load scheduler "tlb1" with entities [EventEntity, EventEntity], work=68*
 13: 0x0428 [0x21] END_EVENT
 14: 0x0429 [0x00] END_REQSTACK()
```

### Event 1553

#### Metadata

| Field        | Value    |
|--------------|----------|
| Entrypoint   | 0x042A   |
| Data Size    | 70 bytes |
| Instructions | 16       |

```
      00 01 02 03 04 05 06 07  08 09 0A 0B 0C 0D 0E 0F
      -- -- -- -- -- -- -- --  -- -- -- -- -- -- -- --
0420:                                1E F0 FF FF 7F 6F            .....o
0430: 70 66 0E 80 F8 FF FF 7F  F8 FF FF 7F 70 61 73 30  pf..........pas0
0440: 1D 37 80 23 1D 38 80 23  66 00 80 F8 FF FF 7F F8  .7.#.8.#f.......
0450: FF FF 7F 74 6C 62 30 1D  39 80 23 1D 3A 80 23 66  ...tlb0.9.#.:.#f
0460: 00 80 F8 FF FF 7F F8 FF  FF 7F 74 6C 62 31 21 00  ..........tlb1!.
```

#### Opcodes

```
  0: 0x042A [0x1E] EventEntity looks at LocalPlayer and starts talking
  1: 0x042F [0x6F] WAIT_FRAME_DELAY: Yield until WaitTime reaches zero
  2: 0x0430 [0x70] WAIT_ENTITY_RENDER_FLAG: Wait while EventEntity->Render.Flags3 bit 2 is set (cancel turn if not)
  3: 0x0431 [0x66] LOAD_EXT_SCHEDULER_MAIN: Load scheduler "pas0" with entities [EventEntity, EventEntity], work=50*
  4: 0x0440 [0x1D] PRINT_EVENT_MESSAGE(message_id=9585*)
    → "Could this be the necklace you're rrreferring to, <Player>?"
  5: 0x0443 [0x23] WAIT_FOR_DIALOG_INTERACTION
  6: 0x0444 [0x1D] PRINT_EVENT_MESSAGE(message_id=9586*)
    → "A kind citizen came to turrrn this in. It's adorned with the Order of Adoulin's insignia, so I figured you'd be looking for it and took it off his hands."
  7: 0x0447 [0x23] WAIT_FOR_DIALOG_INTERACTION
  8: 0x0448 [0x66] LOAD_EXT_SCHEDULER_MAIN: Load scheduler "tlb0" with entities [EventEntity, EventEntity], work=68*
  9: 0x0457 [0x1D] PRINT_EVENT_MESSAGE(message_id=9587*)
    → "Please be a bit more attentive the next time you're entrrrusted with something from then Adoulins. This is a precious heirloom, after all."
 10: 0x045A [0x23] WAIT_FOR_DIALOG_INTERACTION
 11: 0x045B [0x1D] PRINT_EVENT_MESSAGE(message_id=9588*)
    → "All's well that ends well, I suppose. I'll brrring the necklace to Cynthia, so you're free to do whatever you please."
 12: 0x045E [0x23] WAIT_FOR_DIALOG_INTERACTION
 13: 0x045F [0x66] LOAD_EXT_SCHEDULER_MAIN: Load scheduler "tlb1" with entities [EventEntity, EventEntity], work=68*
 14: 0x046E [0x21] END_EVENT
 15: 0x046F [0x00] END_REQSTACK()
```

### Event 1544

#### Metadata

| Field        | Value    |
|--------------|----------|
| Entrypoint   | 0x0470   |
| Data Size    | 45 bytes |
| Instructions | 11       |

```
      00 01 02 03 04 05 06 07  08 09 0A 0B 0C 0D 0E 0F
      -- -- -- -- -- -- -- --  -- -- -- -- -- -- -- --
0470: 42 1E F0 FF FF 7F 6F 70  66 00 80 F8 FF FF 7F F8  B.....opf.......
0480: FF FF 7F 74 6C 62 30 1D  3B 80 23 66 00 80 F8 FF  ...tlb0.;.#f....
0490: FF 7F F8 FF FF 7F 74 6C  62 31 2E 21 00           ......tlb1.!.   
```

#### Opcodes

```
  0: 0x0470 [0x42] SET_CLI_EVENT_CANCEL_DATA()
  1: 0x0471 [0x1E] EventEntity looks at LocalPlayer and starts talking
  2: 0x0476 [0x6F] WAIT_FRAME_DELAY: Yield until WaitTime reaches zero
  3: 0x0477 [0x70] WAIT_ENTITY_RENDER_FLAG: Wait while EventEntity->Render.Flags3 bit 2 is set (cancel turn if not)
  4: 0x0478 [0x66] LOAD_EXT_SCHEDULER_MAIN: Load scheduler "tlb0" with entities [EventEntity, EventEntity], work=68*
  5: 0x0487 [0x1D] PRINT_EVENT_MESSAGE(message_id=9584*)
    → "Yes, this $0 does look to be the keepsake they rrrequested."
  6: 0x048A [0x23] WAIT_FOR_DIALOG_INTERACTION
  7: 0x048B [0x66] LOAD_EXT_SCHEDULER_MAIN: Load scheduler "tlb1" with entities [EventEntity, EventEntity], work=68*
  8: 0x049A [0x2E] SET_CLI_EVENT_CANCEL_FLAGS()
  9: 0x049B [0x21] END_EVENT
 10: 0x049C [0x00] END_REQSTACK()
```

### Event 1536

#### Metadata

| Field        | Value   |
|--------------|---------|
| Entrypoint   | 0x049D  |
| Data Size    | 1 bytes |
| Instructions | 1       |

```
      00 01 02 03 04 05 06 07  08 09 0A 0B 0C 0D 0E 0F
      -- -- -- -- -- -- -- --  -- -- -- -- -- -- -- --
0490:                                         00                     .  
```

#### Opcodes

```
  0: 0x049D [0x00] END_REQSTACK()
```

### Event 1546

#### Metadata

| Field        | Value    |
|--------------|----------|
| Entrypoint   | 0x049E   |
| Data Size    | 47 bytes |
| Instructions | 11       |

```
      00 01 02 03 04 05 06 07  08 09 0A 0B 0C 0D 0E 0F
      -- -- -- -- -- -- -- --  -- -- -- -- -- -- -- --
0490:                                            1E F0                ..
04A0: FF FF 7F 6F 70 66 00 80  F8 FF FF 7F F8 FF FF 7F  ...opf..........
04B0: 74 6C 62 30 1D 3C 80 23  1D 3D 80 23 66 00 80 F8  tlb0.<.#.=.#f...
04C0: FF FF 7F F8 FF FF 7F 74  6C 62 31 21 00           .......tlb1!.   
```

#### Opcodes

```
  0: 0x049E [0x1E] EventEntity looks at LocalPlayer and starts talking
  1: 0x04A3 [0x6F] WAIT_FRAME_DELAY: Yield until WaitTime reaches zero
  2: 0x04A4 [0x70] WAIT_ENTITY_RENDER_FLAG: Wait while EventEntity->Render.Flags3 bit 2 is set (cancel turn if not)
  3: 0x04A5 [0x66] LOAD_EXT_SCHEDULER_MAIN: Load scheduler "tlb0" with entities [EventEntity, EventEntity], work=68*
  4: 0x04B4 [0x1D] PRINT_EVENT_MESSAGE(message_id=9652*)
    → "I believe the prrrincess has headed to her ancestor's grave in the waterways."
  5: 0x04B7 [0x23] WAIT_FOR_DIALOG_INTERACTION
  6: 0x04B8 [0x1D] PRINT_EVENT_MESSAGE(message_id=9653*)
    → "I strrrongly disagree with her going down there alone, but who am I to stop her? Keep her safe for the good of the nation, pioneer!"
  7: 0x04BB [0x23] WAIT_FOR_DIALOG_INTERACTION
  8: 0x04BC [0x66] LOAD_EXT_SCHEDULER_MAIN: Load scheduler "tlb1" with entities [EventEntity, EventEntity], work=68*
  9: 0x04CB [0x21] END_EVENT
 10: 0x04CC [0x00] END_REQSTACK()
```

### Event 1539

#### Metadata

| Field        | Value   |
|--------------|---------|
| Entrypoint   | 0x04CD  |
| Data Size    | 1 bytes |
| Instructions | 1       |

```
      00 01 02 03 04 05 06 07  08 09 0A 0B 0C 0D 0E 0F
      -- -- -- -- -- -- -- --  -- -- -- -- -- -- -- --
04C0:                                         00                     .  
```

#### Opcodes

```
  0: 0x04CD [0x00] END_REQSTACK()
```

### Event 65535.8

#### Metadata

| Field        | Value    |
|--------------|----------|
| Entrypoint   | 0x04CE   |
| Data Size    | 14 bytes |
| Instructions | 4        |

```
      00 01 02 03 04 05 06 07  08 09 0A 0B 0C 0D 0E 0F
      -- -- -- -- -- -- -- --  -- -- -- -- -- -- -- --
04C0:                                            32 1B                2.
04D0: 80 1F 00 3E 80 3F 80 40  80 1F 01 00              ...>.?.@....    
```

#### Opcodes

```
  0: 0x04CE [0x32] ExtData[1]->MainSpeed = 40* * 0.1
  1: 0x04D1 [0x1F] MOVE_ENTITY: EventEntity moves to X=95.137*, Z=-64.141*, Y=-39.999*
  2: 0x04D9 [0x1F] MOVE_ENTITY: Update entity position (mode=1)
  3: 0x04DB [0x00] END_REQSTACK()
```

### Event 1547

#### Metadata

| Field        | Value   |
|--------------|---------|
| Entrypoint   | 0x04DC  |
| Data Size    | 1 bytes |
| Instructions | 1       |

```
      00 01 02 03 04 05 06 07  08 09 0A 0B 0C 0D 0E 0F
      -- -- -- -- -- -- -- --  -- -- -- -- -- -- -- --
04D0:                                      00                       .   
```

#### Opcodes

```
  0: 0x04DC [0x00] END_REQSTACK()
```

### Event 1554

#### Metadata

| Field        | Value    |
|--------------|----------|
| Entrypoint   | 0x04DD   |
| Data Size    | 43 bytes |
| Instructions | 9        |

```
      00 01 02 03 04 05 06 07  08 09 0A 0B 0C 0D 0E 0F
      -- -- -- -- -- -- -- --  -- -- -- -- -- -- -- --
04D0:                                         1E F0 FF               ...
04E0: FF 7F 6F 70 66 00 80 F8  FF FF 7F F8 FF FF 7F 74  ..opf..........t
04F0: 6C 62 30 1D 41 80 23 66  00 80 F8 FF FF 7F F8 FF  lb0.A.#f........
0500: FF 7F 74 6C 62 31 21 00                           ..tlb1!.        
```

#### Opcodes

```
  0: 0x04DD [0x1E] EventEntity looks at LocalPlayer and starts talking
  1: 0x04E2 [0x6F] WAIT_FRAME_DELAY: Yield until WaitTime reaches zero
  2: 0x04E3 [0x70] WAIT_ENTITY_RENDER_FLAG: Wait while EventEntity->Render.Flags3 bit 2 is set (cancel turn if not)
  3: 0x04E4 [0x66] LOAD_EXT_SCHEDULER_MAIN: Load scheduler "tlb0" with entities [EventEntity, EventEntity], work=68*
  4: 0x04F3 [0x1D] PRINT_EVENT_MESSAGE(message_id=9682*)
    → "Please, take a good look at the $3 I handed you...and stay by Arciela's side."
  5: 0x04F6 [0x23] WAIT_FOR_DIALOG_INTERACTION
  6: 0x04F7 [0x66] LOAD_EXT_SCHEDULER_MAIN: Load scheduler "tlb1" with entities [EventEntity, EventEntity], work=68*
  7: 0x0506 [0x21] END_EVENT
  8: 0x0507 [0x00] END_REQSTACK()
```

### Event 1555

#### Metadata

| Field        | Value   |
|--------------|---------|
| Entrypoint   | 0x0508  |
| Data Size    | 1 bytes |
| Instructions | 1       |

```
      00 01 02 03 04 05 06 07  08 09 0A 0B 0C 0D 0E 0F
      -- -- -- -- -- -- -- --  -- -- -- -- -- -- -- --
0500:                          00                               .       
```

#### Opcodes

```
  0: 0x0508 [0x00] END_REQSTACK()
```

### Event 1556

#### Metadata

| Field        | Value   |
|--------------|---------|
| Entrypoint   | 0x0509  |
| Data Size    | 1 bytes |
| Instructions | 1       |

```
      00 01 02 03 04 05 06 07  08 09 0A 0B 0C 0D 0E 0F
      -- -- -- -- -- -- -- --  -- -- -- -- -- -- -- --
0500:                             00                             .      
```

#### Opcodes

```
  0: 0x0509 [0x00] END_REQSTACK()
```

### Event 1557

#### Metadata

| Field        | Value    |
|--------------|----------|
| Entrypoint   | 0x050A   |
| Data Size    | 27 bytes |
| Instructions | 13       |

```
      00 01 02 03 04 05 06 07  08 09 0A 0B 0C 0D 0E 0F
      -- -- -- -- -- -- -- --  -- -- -- -- -- -- -- --
0500:                                42 1E F0 FF FF 7F            B.....
0510: 6F 70 03 03 10 42 80 1D  43 80 23 1D 44 80 23 1D  op...B..C.#.D.#.
0520: 45 80 23 21 00                                    E.#!.           
```

#### Opcodes

```
  0: 0x050A [0x42] SET_CLI_EVENT_CANCEL_DATA()
  1: 0x050B [0x1E] EventEntity looks at LocalPlayer and starts talking
  2: 0x0510 [0x6F] WAIT_FRAME_DELAY: Yield until WaitTime reaches zero
  3: 0x0511 [0x70] WAIT_ENTITY_RENDER_FLAG: Wait while EventEntity->Render.Flags3 bit 2 is set (cancel turn if not)
  4: 0x0512 [0x03] Work_Zone[3] = 27923*
  5: 0x0517 [0x1D] PRINT_EVENT_MESSAGE(message_id=9949*)
    → "Well met, <Player>. Forrrgive me if I'm butting in, but did you happen to lose $1?"
  6: 0x051A [0x23] WAIT_FOR_DIALOG_INTERACTION
  7: 0x051B [0x1D] PRINT_EVENT_MESSAGE(message_id=9950*)
    → "A particularly vigilant citizen returrrned it to the castle, where I decided to hold it for safekeeping. Anything emblazoned with the Order of Adoulin's seal is too important to let out of my sight."
  8: 0x051E [0x23] WAIT_FOR_DIALOG_INTERACTION
  9: 0x051F [0x1D] PRINT_EVENT_MESSAGE(message_id=9951*)
    → "Please ensurrre that you do not lose it again. I would hate to picture the look on the princess's face were you to do so."
 10: 0x0522 [0x23] WAIT_FOR_DIALOG_INTERACTION
 11: 0x0523 [0x21] END_EVENT
 12: 0x0524 [0x00] END_REQSTACK()
```

### Event 1558

#### Metadata

| Field        | Value    |
|--------------|----------|
| Entrypoint   | 0x0525   |
| Data Size    | 27 bytes |
| Instructions | 13       |

```
      00 01 02 03 04 05 06 07  08 09 0A 0B 0C 0D 0E 0F
      -- -- -- -- -- -- -- --  -- -- -- -- -- -- -- --
0520:                42 1E F0  FF FF 7F 6F 70 03 03 10       B.....op...
0530: 46 80 1D 43 80 23 1D 47  80 23 1D 45 80 23 21 00  F..C.#.G.#.E.#!.
```

#### Opcodes

```
  0: 0x0525 [0x42] SET_CLI_EVENT_CANCEL_DATA()
  1: 0x0526 [0x1E] EventEntity looks at LocalPlayer and starts talking
  2: 0x052B [0x6F] WAIT_FRAME_DELAY: Yield until WaitTime reaches zero
  3: 0x052C [0x70] WAIT_ENTITY_RENDER_FLAG: Wait while EventEntity->Render.Flags3 bit 2 is set (cancel turn if not)
  4: 0x052D [0x03] Work_Zone[3] = 28063*
  5: 0x0532 [0x1D] PRINT_EVENT_MESSAGE(message_id=9949*)
    → "Well met, <Player>. Forrrgive me if I'm butting in, but did you happen to lose $1?"
  6: 0x0535 [0x23] WAIT_FOR_DIALOG_INTERACTION
  7: 0x0536 [0x1D] PRINT_EVENT_MESSAGE(message_id=9952*)
    → "A particularly vigilant citizen returrrned it to the castle, where I decided to hold it for safekeeping."
  8: 0x0539 [0x23] WAIT_FOR_DIALOG_INTERACTION
  9: 0x053A [0x1D] PRINT_EVENT_MESSAGE(message_id=9951*)
    → "Please ensurrre that you do not lose it again. I would hate to picture the look on the princess's face were you to do so."
 10: 0x053D [0x23] WAIT_FOR_DIALOG_INTERACTION
 11: 0x053E [0x21] END_EVENT
 12: 0x053F [0x00] END_REQSTACK()
```

### Event 1559

#### Metadata

| Field        | Value    |
|--------------|----------|
| Entrypoint   | 0x0540   |
| Data Size    | 22 bytes |
| Instructions | 12       |

```
      00 01 02 03 04 05 06 07  08 09 0A 0B 0C 0D 0E 0F
      -- -- -- -- -- -- -- --  -- -- -- -- -- -- -- --
0540: 42 1E F0 FF FF 7F 6F 70  1D 43 80 23 1D 47 80 23  B.....op.C.#.G.#
0550: 1D 45 80 23 21 00                                 .E.#!.          
```

#### Opcodes

```
  0: 0x0540 [0x42] SET_CLI_EVENT_CANCEL_DATA()
  1: 0x0541 [0x1E] EventEntity looks at LocalPlayer and starts talking
  2: 0x0546 [0x6F] WAIT_FRAME_DELAY: Yield until WaitTime reaches zero
  3: 0x0547 [0x70] WAIT_ENTITY_RENDER_FLAG: Wait while EventEntity->Render.Flags3 bit 2 is set (cancel turn if not)
  4: 0x0548 [0x1D] PRINT_EVENT_MESSAGE(message_id=9949*)
    → "Well met, <Player>. Forrrgive me if I'm butting in, but did you happen to lose $1?"
  5: 0x054B [0x23] WAIT_FOR_DIALOG_INTERACTION
  6: 0x054C [0x1D] PRINT_EVENT_MESSAGE(message_id=9952*)
    → "A particularly vigilant citizen returrrned it to the castle, where I decided to hold it for safekeeping."
  7: 0x054F [0x23] WAIT_FOR_DIALOG_INTERACTION
  8: 0x0550 [0x1D] PRINT_EVENT_MESSAGE(message_id=9951*)
    → "Please ensurrre that you do not lose it again. I would hate to picture the look on the princess's face were you to do so."
  9: 0x0553 [0x23] WAIT_FOR_DIALOG_INTERACTION
 10: 0x0554 [0x21] END_EVENT
 11: 0x0555 [0x00] END_REQSTACK()
```

### Event 1560

#### Metadata

| Field        | Value     |
|--------------|-----------|
| Entrypoint   | 0x0556    |
| Data Size    | 101 bytes |
| Instructions | 20        |

```
      00 01 02 03 04 05 06 07  08 09 0A 0B 0C 0D 0E 0F
      -- -- -- -- -- -- -- --  -- -- -- -- -- -- -- --
0550:                   03 00  00 05 10 1E F0 FF FF 7F        ..........
0560: 6F 70 66 0E 80 8E 10 10  01 8E 10 10 01 74 6C 6B  opf..........tlk
0570: 30 2B 8E 10 10 01 48 80  23 2B 8E 10 10 01 49 80  0+....H.#+....I.
0580: 23 02 00 00 09 80 00 A2  05 2B 8E 10 10 01 4A 80  #........+....J.
0590: 23 66 0E 80 8E 10 10 01  8E 10 10 01 74 6C 6B 32  #f..........tlk2
05A0: 21 00 2B 8E 10 10 01 4B  80 23 66 0E 80 8E 10 10  !.+....K.#f.....
05B0: 01 8E 10 10 01 74 6C 6B  32 21 00                 .....tlk2!.     
```

#### Opcodes

```
  0: 0x0556 [0x03] ExtData[1]->WorkLocal[0] = Work_Zone[5]
  1: 0x055B [0x1E] EventEntity looks at LocalPlayer and starts talking
  2: 0x0560 [0x6F] WAIT_FRAME_DELAY: Yield until WaitTime reaches zero
  3: 0x0561 [0x70] WAIT_ENTITY_RENDER_FLAG: Wait while EventEntity->Render.Flags3 bit 2 is set (cancel turn if not)
  4: 0x0562 [0x66] LOAD_EXT_SCHEDULER_MAIN: Load scheduler "tlk0" with entities [Ploh Trishbahk (ID: 17830030/0x0110108E), Ploh Trishbahk (ID: 17830030/0x0110108E)], work=50*
  5: 0x0571 [0x2B] Ploh Trishbahk (ID: 17830030/0x0110108E) [9918*]:
    → "A pleasurrre as always, <Player>. You've come at the perfect time."
  6: 0x0578 [0x23] WAIT_FOR_DIALOG_INTERACTION
  7: 0x0579 [0x2B] Ploh Trishbahk (ID: 17830030/0x0110108E) [9953*]:
    → "Perhaps you wish to exchange the gift the twelve orrrders gave you for another?"
  8: 0x0580 [0x23] WAIT_FOR_DIALOG_INTERACTION
  9: 0x0581 [0x02] IF !(ExtData[1]->WorkLocal[0] == 0*) GOTO 0x05A2
 10: 0x0589 [0x2B] Ploh Trishbahk (ID: 17830030/0x0110108E) [9954*]:
    → "Though I would love to be of service, Fremilla was insistent that you remit 300,000 bayld. Please come back again once you have procurrred the requisite amount."
 11: 0x0590 [0x23] WAIT_FOR_DIALOG_INTERACTION
 12: 0x0591 [0x66] LOAD_EXT_SCHEDULER_MAIN: Load scheduler "tlk2" with entities [Ploh Trishbahk (ID: 17830030/0x0110108E), Ploh Trishbahk (ID: 17830030/0x0110108E)], work=50*
 13: 0x05A0 [0x21] END_EVENT
 14: 0x05A1 [0x00] END_REQSTACK()
 15: 0x05A2 [0x2B] Ploh Trishbahk (ID: 17830030/0x0110108E) [9955*]:
    → "It appears you have procured the requisite amount of bayld. Please select the item you desire."
 16: 0x05A9 [0x23] WAIT_FOR_DIALOG_INTERACTION
 17: 0x05AA [0x66] LOAD_EXT_SCHEDULER_MAIN: Load scheduler "tlk2" with entities [Ploh Trishbahk (ID: 17830030/0x0110108E), Ploh Trishbahk (ID: 17830030/0x0110108E)], work=50*
 18: 0x05B9 [0x21] END_EVENT
 19: 0x05BA [0x00] END_REQSTACK()
```

### Event 1561

#### Metadata

| Field        | Value    |
|--------------|----------|
| Entrypoint   | 0x05BB   |
| Data Size    | 47 bytes |
| Instructions | 9        |

```
      00 01 02 03 04 05 06 07  08 09 0A 0B 0C 0D 0E 0F
      -- -- -- -- -- -- -- --  -- -- -- -- -- -- -- --
05B0:                                   1E F0 FF FF 7F             .....
05C0: 6F 70 66 0E 80 8E 10 10  01 8E 10 10 01 74 6C 6B  opf..........tlk
05D0: 30 2B 8E 10 10 01 4A 80  23 66 0E 80 8E 10 10 01  0+....J.#f......
05E0: 8E 10 10 01 74 6C 6B 32  21 00                    ....tlk2!.      
```

#### Opcodes

```
  0: 0x05BB [0x1E] EventEntity looks at LocalPlayer and starts talking
  1: 0x05C0 [0x6F] WAIT_FRAME_DELAY: Yield until WaitTime reaches zero
  2: 0x05C1 [0x70] WAIT_ENTITY_RENDER_FLAG: Wait while EventEntity->Render.Flags3 bit 2 is set (cancel turn if not)
  3: 0x05C2 [0x66] LOAD_EXT_SCHEDULER_MAIN: Load scheduler "tlk0" with entities [Ploh Trishbahk (ID: 17830030/0x0110108E), Ploh Trishbahk (ID: 17830030/0x0110108E)], work=50*
  4: 0x05D1 [0x2B] Ploh Trishbahk (ID: 17830030/0x0110108E) [9954*]:
    → "Though I would love to be of service, Fremilla was insistent that you remit 300,000 bayld. Please come back again once you have procurrred the requisite amount."
  5: 0x05D8 [0x23] WAIT_FOR_DIALOG_INTERACTION
  6: 0x05D9 [0x66] LOAD_EXT_SCHEDULER_MAIN: Load scheduler "tlk2" with entities [Ploh Trishbahk (ID: 17830030/0x0110108E), Ploh Trishbahk (ID: 17830030/0x0110108E)], work=50*
  7: 0x05E8 [0x21] END_EVENT
  8: 0x05E9 [0x00] END_REQSTACK()
```

### Event 3024

#### Metadata

| Field        | Value    |
|--------------|----------|
| Entrypoint   | 0x05EA   |
| Data Size    | 51 bytes |
| Instructions | 13       |

```
      00 01 02 03 04 05 06 07  08 09 0A 0B 0C 0D 0E 0F
      -- -- -- -- -- -- -- --  -- -- -- -- -- -- -- --
05E0:                                1E F0 FF FF 7F 6F            .....o
05F0: 70 66 0E 80 8E 10 10 01  8E 10 10 01 74 6C 6B 30  pf..........tlk0
0600: 1D 4C 80 23 1D 4D 80 23  1D 4E 80 23 66 0E 80 8E  .L.#.M.#.N.#f...
0610: 10 10 01 8E 10 10 01 74  6C 6B 32 21 00           .......tlk2!.   
```

#### Opcodes

```
  0: 0x05EA [0x1E] EventEntity looks at LocalPlayer and starts talking
  1: 0x05EF [0x6F] WAIT_FRAME_DELAY: Yield until WaitTime reaches zero
  2: 0x05F0 [0x70] WAIT_ENTITY_RENDER_FLAG: Wait while EventEntity->Render.Flags3 bit 2 is set (cancel turn if not)
  3: 0x05F1 [0x66] LOAD_EXT_SCHEDULER_MAIN: Load scheduler "tlk0" with entities [Ploh Trishbahk (ID: 17830030/0x0110108E), Ploh Trishbahk (ID: 17830030/0x0110108E)], work=50*
  4: 0x0600 [0x1D] PRINT_EVENT_MESSAGE(message_id=13706*)
    → "The prrrincess often ventures out into the jungle when her presence is not required at the castle."
  5: 0x0603 [0x23] WAIT_FOR_DIALOG_INTERACTION
  6: 0x0604 [0x1D] PRINT_EVENT_MESSAGE(message_id=13707*)
    → "Today is one such day. She mentioned going on a brrrief foray into Ceizak Battlegrounds."
  7: 0x0607 [0x23] WAIT_FOR_DIALOG_INTERACTION
  8: 0x0608 [0x1D] PRINT_EVENT_MESSAGE(message_id=13708*)
    → "Her strong sense of wanderrrlust has not faded even as she blossoms into a young woman. Would that I could stop her..."
  9: 0x060B [0x23] WAIT_FOR_DIALOG_INTERACTION
 10: 0x060C [0x66] LOAD_EXT_SCHEDULER_MAIN: Load scheduler "tlk2" with entities [Ploh Trishbahk (ID: 17830030/0x0110108E), Ploh Trishbahk (ID: 17830030/0x0110108E)], work=50*
 11: 0x061B [0x21] END_EVENT
 12: 0x061C [0x00] END_REQSTACK()
```

### Event 107

#### Metadata

| Field        | Value    |
|--------------|----------|
| Entrypoint   | 0x061D   |
| Data Size    | 60 bytes |
| Instructions | 19       |

```
      00 01 02 03 04 05 06 07  08 09 0A 0B 0C 0D 0E 0F
      -- -- -- -- -- -- -- --  -- -- -- -- -- -- -- --
0610:                                         1E F0 FF               ...
0620: FF 7F 1C 1E 80 66 0E 80  8E 10 10 01 8E 10 10 01  .....f..........
0630: 74 6C 6B 30 02 02 10 09  80 00 4B 06 1D 4F 80 23  tlk0......K..O.#
0640: 1D 50 80 23 1D 51 80 23  01 53 06 1D 52 80 23 1D  .P.#.Q.#.S..R.#.
0650: 53 80 23 1D 54 80 23 21  00                       S.#.T.#!.       
```

#### Opcodes

```
  0: 0x061D [0x1E] EventEntity looks at LocalPlayer and starts talking
  1: 0x0622 [0x1C] WAIT(30* ticks)
  2: 0x0625 [0x66] LOAD_EXT_SCHEDULER_MAIN: Load scheduler "tlk0" with entities [Ploh Trishbahk (ID: 17830030/0x0110108E), Ploh Trishbahk (ID: 17830030/0x0110108E)], work=50*
  3: 0x0634 [0x02] IF !(Work_Zone[2] == 0*) GOTO 0x064B
  4: 0x063C [0x1D] PRINT_EVENT_MESSAGE(message_id=13880*)
    → "A jesterrr? You're looking for a demon jester?"
  5: 0x063F [0x23] WAIT_FOR_DIALOG_INTERACTION
  6: 0x0640 [0x1D] PRINT_EVENT_MESSAGE(message_id=13881*)
    → "I'd like to help, but I've hearrrd no news of such a creature."
  7: 0x0643 [0x23] WAIT_FOR_DIALOG_INTERACTION
  8: 0x0644 [0x1D] PRINT_EVENT_MESSAGE(message_id=13877*)
    → "...But come to think of it, some pioneers have been submitting rrreports of a most curious beast lurking outside the city gates."
  9: 0x0647 [0x23] WAIT_FOR_DIALOG_INTERACTION
 10: 0x0648 [0x01] GOTO 0x0653
 11: 0x064B [0x1D] PRINT_EVENT_MESSAGE(message_id=13883*)
    → "Balamor!? The very same crrreature that possessed Fremilla and knocked Chero-Machero flat on his back!?"
 12: 0x064E [0x23] WAIT_FOR_DIALOG_INTERACTION
 13: 0x064F [0x1D] PRINT_EVENT_MESSAGE(message_id=13878*)
    → "Come to think of it, some pioneers have been submitting rrreports of a beast matching that description lurking outside the city gates."
 14: 0x0652 [0x23] WAIT_FOR_DIALOG_INTERACTION

SUBROUTINE_0653:
 15: 0x0653 [0x1D] PRINT_EVENT_MESSAGE(message_id=13879*)
    → "But the orrrders have their own issues to face at present, and nary a hand can be spared."
 16: 0x0656 [0x23] WAIT_FOR_DIALOG_INTERACTION
 17: 0x0657 [0x21] END_EVENT
 18: 0x0658 [0x00] END_REQSTACK()
```

### Event 108

#### Metadata

| Field        | Value   |
|--------------|---------|
| Entrypoint   | 0x0659  |
| Data Size    | 1 bytes |
| Instructions | 1       |

```
      00 01 02 03 04 05 06 07  08 09 0A 0B 0C 0D 0E 0F
      -- -- -- -- -- -- -- --  -- -- -- -- -- -- -- --
0650:                             00                             .      
```

#### Opcodes

```
  0: 0x0659 [0x00] END_REQSTACK()
```

### Event 109

#### Metadata

| Field        | Value    |
|--------------|----------|
| Entrypoint   | 0x065A   |
| Data Size    | 29 bytes |
| Instructions | 7        |

```
      00 01 02 03 04 05 06 07  08 09 0A 0B 0C 0D 0E 0F
      -- -- -- -- -- -- -- --  -- -- -- -- -- -- -- --
0650:                                1E F0 FF FF 7F 1C            ......
0660: 1E 80 66 0E 80 8E 10 10  01 8E 10 10 01 74 6C 6B  ..f..........tlk
0670: 30 1D 55 80 23 21 00                              0.U.#!.         
```

#### Opcodes

```
  0: 0x065A [0x1E] EventEntity looks at LocalPlayer and starts talking
  1: 0x065F [0x1C] WAIT(30* ticks)
  2: 0x0662 [0x66] LOAD_EXT_SCHEDULER_MAIN: Load scheduler "tlk0" with entities [Ploh Trishbahk (ID: 17830030/0x0110108E), Ploh Trishbahk (ID: 17830030/0x0110108E)], work=50*
  3: 0x0671 [0x1D] PRINT_EVENT_MESSAGE(message_id=13894*)
    → "The prrrincess awaits you in Celennia Memorial Library."
  4: 0x0674 [0x23] WAIT_FOR_DIALOG_INTERACTION
  5: 0x0675 [0x21] END_EVENT
  6: 0x0676 [0x00] END_REQSTACK()
```

### Event 110

#### Metadata

| Field        | Value   |
|--------------|---------|
| Entrypoint   | 0x0677  |
| Data Size    | 7 bytes |
| Instructions | 2       |

```
      00 01 02 03 04 05 06 07  08 09 0A 0B 0C 0D 0E 0F
      -- -- -- -- -- -- -- --  -- -- -- -- -- -- -- --
0670:                      92  01 F8 FF FF 7F 00               .......  
```

#### Opcodes

```
  0: 0x0677 [0x92] EventEntity->Render.Flags3 ^= 0x01
  1: 0x067D [0x00] END_REQSTACK()
```

### Event 111

#### Metadata

| Field        | Value   |
|--------------|---------|
| Entrypoint   | 0x067E  |
| Data Size    | 7 bytes |
| Instructions | 2       |

```
      00 01 02 03 04 05 06 07  08 09 0A 0B 0C 0D 0E 0F
      -- -- -- -- -- -- -- --  -- -- -- -- -- -- -- --
0670:                                            92 01                ..
0680: F8 FF FF 7F 00                                    .....           
```

#### Opcodes

```
  0: 0x067E [0x92] EventEntity->Render.Flags3 ^= 0x01
  1: 0x0684 [0x00] END_REQSTACK()
```

### Event 112

#### Metadata

| Field        | Value   |
|--------------|---------|
| Entrypoint   | 0x0685  |
| Data Size    | 7 bytes |
| Instructions | 2       |

```
      00 01 02 03 04 05 06 07  08 09 0A 0B 0C 0D 0E 0F
      -- -- -- -- -- -- -- --  -- -- -- -- -- -- -- --
0680:                92 01 F8  FF FF 7F 00                   .......    
```

#### Opcodes

```
  0: 0x0685 [0x92] EventEntity->Render.Flags3 ^= 0x01
  1: 0x068B [0x00] END_REQSTACK()
```

### Event 113

#### Metadata

| Field        | Value     |
|--------------|-----------|
| Entrypoint   | 0x068C    |
| Data Size    | 795 bytes |
| Instructions | 145       |

```
      00 01 02 03 04 05 06 07  08 09 0A 0B 0C 0D 0E 0F
      -- -- -- -- -- -- -- --  -- -- -- -- -- -- -- --
0680:                                      1E F0 FF FF              ....
0690: 7F 6F 70 02 02 10 09 80  80 CB 06 66 00 80 F8 FF  .op........f....
06A0: FF 7F F8 FF FF 7F 74 6C  62 30 1D 56 80 23 1D 57  ......tlb0.V.#.W
06B0: 80 23 66 0D 80 F8 FF FF  7F F8 FF FF 7F 61 77 77  .#f..........aww
06C0: 30 1D 58 80 23 1C 59 80  01 A5 09 02 02 10 5A 80  0.X.#.Y.......Z.
06D0: 80 FF 06 66 00 80 F8 FF  FF 7F F8 FF FF 7F 74 6C  ...f..........tl
06E0: 62 30 1D 5B 80 23 1D 5C  80 23 66 00 80 F8 FF FF  b0.[.#.\.#f.....
06F0: 7F F8 FF FF 7F 74 6C 62  31 1C 1E 80 01 A5 09 02  .....tlb1.......
0700: 02 10 5D 80 80 33 07 66  00 80 F8 FF FF 7F F8 FF  ..]..3.f........
0710: FF 7F 74 6C 62 30 1D 5E  80 23 66 0D 80 F8 FF FF  ..tlb0.^.#f.....
0720: 7F F8 FF FF 7F 61 77 77  30 1D 5F 80 23 1C 59 80  .....aww0._.#.Y.
0730: 01 A5 09 02 02 10 60 80  80 6B 07 66 00 80 F8 FF  ......`..k.f....
0740: FF 7F F8 FF FF 7F 74 6C  62 30 1D 61 80 23 1D 62  ......tlb0.a.#.b
0750: 80 23 66 0D 80 F8 FF FF  7F F8 FF FF 7F 61 77 77  .#f..........aww
0760: 30 1D 63 80 23 1C 59 80  01 A5 09 02 02 10 08 80  0.c.#.Y.........
0770: 80 A3 07 66 00 80 F8 FF  FF 7F F8 FF FF 7F 74 6C  ...f..........tl
0780: 62 30 1D 64 80 23 1D 65  80 23 1D 66 80 23 66 00  b0.d.#.e.#.f.#f.
0790: 80 F8 FF FF 7F F8 FF FF  7F 74 6C 62 31 1C 1E 80  .........tlb1...
07A0: 01 A5 09 02 02 10 67 80  80 DB 07 66 00 80 F8 FF  ......g....f....
07B0: FF 7F F8 FF FF 7F 74 6C  62 30 1D 68 80 23 1D 69  ......tlb0.h.#.i
07C0: 80 23 1D 6A 80 23 66 00  80 F8 FF FF 7F F8 FF FF  .#.j.#f.........
07D0: 7F 74 6C 62 31 1C 1E 80  01 A5 09 02 02 10 6B 80  .tlb1.........k.
07E0: 80 0F 08 66 00 80 F8 FF  FF 7F F8 FF FF 7F 74 6C  ...f..........tl
07F0: 62 30 1D 6C 80 23 1D 6D  80 23 66 00 80 F8 FF FF  b0.l.#.m.#f.....
0800: 7F F8 FF FF 7F 74 6C 62  31 1C 1E 80 01 A5 09 02  .....tlb1.......
0810: 02 10 6E 80 80 04 09 03  02 10 09 80 03 03 10 09  ..n.............
0820: 80 03 04 10 09 80 03 05  10 09 80 02 09 10 5A 80  ..............Z.
0830: 80 54 08 9D 0A 01 0A 02  10 60 80 07 80 03 03 10  .T.......`......
0840: 5A 80 9D 0A 01 0A 04 10  67 80 07 80 03 05 10 5A  Z.......g......Z
0850: 80 01 C5 08 02 09 10 5D  80 80 7D 08 9D 0A 01 0A  .......]..}.....
0860: 02 10 5D 80 07 80 03 03  10 5A 80 9D 0A 01 0A 04  ..]......Z......
0870: 10 6E 80 07 80 03 05 10  5D 80 01 C5 08 02 09 10  .n......].......
0880: 60 80 80 92 08 9D 0A 01  0A 02 10 5A 80 07 80 01  `..........Z....
0890: C5 08 02 09 10 08 80 80  BB 08 9D 0A 01 0A 02 10  ................
08A0: 09 80 07 80 03 03 10 5A  80 9D 0A 01 0A 04 10 67  .......Z.......g
08B0: 80 07 80 03 05 10 5A 80  01 C5 08 9D 0A 01 0A 02  ......Z.........
08C0: 10 08 80 07 80 66 00 80  F8 FF FF 7F F8 FF FF 7F  .....f..........
08D0: 74 6C 62 30 1D 6F 80 23  02 04 10 09 80 00 E7 08  tlb0.o.#........
08E0: 1D 70 80 23 01 EB 08 1D  71 80 23 1D 72 80 23 66  .p.#....q.#.r.#f
08F0: 00 80 F8 FF FF 7F F8 FF  FF 7F 74 6C 62 31 1C 1E  ..........tlb1..
0900: 80 01 A5 09 02 02 10 07  80 80 3D 09 66 00 80 F8  ..........=.f...
0910: FF FF 7F F8 FF FF 7F 74  6C 62 30 03 02 10 73 80  .......tlb0...s.
0920: 1D 74 80 23 1D 75 80 23  66 00 80 F8 FF FF 7F F8  .t.#.u.#f.......
0930: FF FF 7F 74 6C 62 31 1C  1E 80 01 A5 09 02 02 10  ...tlb1.........
0940: 0D 80 80 71 09 66 00 80  F8 FF FF 7F F8 FF FF 7F  ...q.f..........
0950: 74 6C 62 30 1D 76 80 23  1D 77 80 23 66 00 80 F8  tlb0.v.#.w.#f...
0960: FF FF 7F F8 FF FF 7F 74  6C 62 31 1C 1E 80 01 A5  .......tlb1.....
0970: 09 02 02 10 78 80 80 A5  09 66 00 80 F8 FF FF 7F  ....x....f......
0980: F8 FF FF 7F 74 6C 62 30  1D 6C 80 23 1D 79 80 23  ....tlb0.l.#.y.#
0990: 66 00 80 F8 FF FF 7F F8  FF FF 7F 74 6C 62 31 1C  f..........tlb1.
09A0: 1E 80 01 A5 09 21 00                              .....!.         
```

#### Opcodes

```
  0: 0x068C [0x1E] EventEntity looks at LocalPlayer and starts talking
  1: 0x0691 [0x6F] WAIT_FRAME_DELAY: Yield until WaitTime reaches zero
  2: 0x0692 [0x70] WAIT_ENTITY_RENDER_FLAG: Wait while EventEntity->Render.Flags3 bit 2 is set (cancel turn if not)
  3: 0x0693 [0x02] IF !(Work_Zone[2] == 0*) GOTO 0x06CB
  4: 0x069B [0x66] LOAD_EXT_SCHEDULER_MAIN: Load scheduler "tlb0" with entities [EventEntity, EventEntity], work=68*
  5: 0x06AA [0x1D] PRINT_EVENT_MESSAGE(message_id=11724*)
    → "A secrrret path out of the castle?"
  6: 0x06AD [0x23] WAIT_FOR_DIALOG_INTERACTION
  7: 0x06AE [0x1D] PRINT_EVENT_MESSAGE(message_id=11725*)
    → "If I were a secret path, where would I be located? Probably a dusty alley or underground tunnel."
  8: 0x06B1 [0x23] WAIT_FOR_DIALOG_INTERACTION
  9: 0x06B2 [0x66] LOAD_EXT_SCHEDULER_MAIN: Load scheduler "aww0" with entities [EventEntity, EventEntity], work=8*
 10: 0x06C1 [0x1D] PRINT_EVENT_MESSAGE(message_id=11726*)
    → "B-but a dutiful guard would not rrreveal such things so flippantly!"
 11: 0x06C4 [0x23] WAIT_FOR_DIALOG_INTERACTION
 12: 0x06C5 [0x1C] WAIT(90* ticks)
 13: 0x06C8 [0x01] GOTO 0x09A5
 14: 0x06CB [0x02] IF !(Work_Zone[2] == 1*) GOTO 0x06FF
 15: 0x06D3 [0x66] LOAD_EXT_SCHEDULER_MAIN: Load scheduler "tlb0" with entities [EventEntity, EventEntity], work=68*
 16: 0x06E2 [0x1D] PRINT_EVENT_MESSAGE(message_id=11738*)
    → "The mystery of the missing tomatoes? You won't learrrn anything unless you find Ygnas."
 17: 0x06E5 [0x23] WAIT_FOR_DIALOG_INTERACTION
 18: 0x06E6 [0x1D] PRINT_EVENT_MESSAGE(message_id=11739*)
    → "I'd scour every corrrner of this town for clues."
 19: 0x06E9 [0x23] WAIT_FOR_DIALOG_INTERACTION
 20: 0x06EA [0x66] LOAD_EXT_SCHEDULER_MAIN: Load scheduler "tlb1" with entities [EventEntity, EventEntity], work=68*
 21: 0x06F9 [0x1C] WAIT(30* ticks)
 22: 0x06FC [0x01] GOTO 0x09A5
 23: 0x06FF [0x02] IF !(Work_Zone[2] == 2*) GOTO 0x0733
 24: 0x0707 [0x66] LOAD_EXT_SCHEDULER_MAIN: Load scheduler "tlb0" with entities [EventEntity, EventEntity], work=68*
 25: 0x0716 [0x1D] PRINT_EVENT_MESSAGE(message_id=11787*)
    → "You are looking for Lorrrd Ygnas? That sounds like a job more suited to the Scouts' Coalition."
 26: 0x0719 [0x23] WAIT_FOR_DIALOG_INTERACTION
 27: 0x071A [0x66] LOAD_EXT_SCHEDULER_MAIN: Load scheduler "aww0" with entities [EventEntity, EventEntity], work=8*
 28: 0x0729 [0x1D] PRINT_EVENT_MESSAGE(message_id=11788*)
    → "Ah, forrrgive me! It is not the place of a mere guard to speak of such things!"
 29: 0x072C [0x23] WAIT_FOR_DIALOG_INTERACTION
 30: 0x072D [0x1C] WAIT(90* ticks)
 31: 0x0730 [0x01] GOTO 0x09A5
 32: 0x0733 [0x02] IF !(Work_Zone[2] == 3*) GOTO 0x076B
 33: 0x073B [0x66] LOAD_EXT_SCHEDULER_MAIN: Load scheduler "tlb0" with entities [EventEntity, EventEntity], work=68*
 34: 0x074A [0x1D] PRINT_EVENT_MESSAGE(message_id=11929*)
    → "The waitrrress she's talking about must be Yocile."
 35: 0x074D [0x23] WAIT_FOR_DIALOG_INTERACTION
 36: 0x074E [0x1D] PRINT_EVENT_MESSAGE(message_id=11930*)
    → "I doubt there to be any impropriety between her and Lord Ygnas."
 37: 0x0751 [0x23] WAIT_FOR_DIALOG_INTERACTION
 38: 0x0752 [0x66] LOAD_EXT_SCHEDULER_MAIN: Load scheduler "aww0" with entities [EventEntity, EventEntity], work=8*
 39: 0x0761 [0x1D] PRINT_EVENT_MESSAGE(message_id=11931*)
    → "Ah, but you wouldn't be interested in my musings. Please, forrrget I mentioned anything."
 40: 0x0764 [0x23] WAIT_FOR_DIALOG_INTERACTION
 41: 0x0765 [0x1C] WAIT(90* ticks)
 42: 0x0768 [0x01] GOTO 0x09A5
 43: 0x076B [0x02] IF !(Work_Zone[2] == 4*) GOTO 0x07A3
 44: 0x0773 [0x66] LOAD_EXT_SCHEDULER_MAIN: Load scheduler "tlb0" with entities [EventEntity, EventEntity], work=68*
 45: 0x0782 [0x1D] PRINT_EVENT_MESSAGE(message_id=11969*)
    → "Geosuke? He cerrrtainly is the popular figure in our city."
 46: 0x0785 [0x23] WAIT_FOR_DIALOG_INTERACTION
 47: 0x0786 [0x1D] PRINT_EVENT_MESSAGE(message_id=11970*)
    → "But let's leave the juicy gossip for a later date. I've got worrrk to do."
 48: 0x0789 [0x23] WAIT_FOR_DIALOG_INTERACTION
 49: 0x078A [0x1D] PRINT_EVENT_MESSAGE(message_id=11971*)
    → "And so do you--there's a different leafkin you've got to worry about right now: Ygnas."
 50: 0x078D [0x23] WAIT_FOR_DIALOG_INTERACTION
 51: 0x078E [0x66] LOAD_EXT_SCHEDULER_MAIN: Load scheduler "tlb1" with entities [EventEntity, EventEntity], work=68*
 52: 0x079D [0x1C] WAIT(30* ticks)
 53: 0x07A0 [0x01] GOTO 0x09A5
 54: 0x07A3 [0x02] IF !(Work_Zone[2] == 5*) GOTO 0x07DB
 55: 0x07AB [0x66] LOAD_EXT_SCHEDULER_MAIN: Load scheduler "tlb0" with entities [EventEntity, EventEntity], work=68*
 56: 0x07BA [0x1D] PRINT_EVENT_MESSAGE(message_id=11982*)
    → "Lord Ygnas bounded out the frrront gate just a short while ago."
 57: 0x07BD [0x23] WAIT_FOR_DIALOG_INTERACTION
 58: 0x07BE [0x1D] PRINT_EVENT_MESSAGE(message_id=11983*)
    → "He's got to be around here somewhere...but where?"
 59: 0x07C1 [0x23] WAIT_FOR_DIALOG_INTERACTION
 60: 0x07C2 [0x1D] PRINT_EVENT_MESSAGE(message_id=11984*)
    → "But I dare not concern myself with his affairs. I am but a simple guard."
 61: 0x07C5 [0x23] WAIT_FOR_DIALOG_INTERACTION
 62: 0x07C6 [0x66] LOAD_EXT_SCHEDULER_MAIN: Load scheduler "tlb1" with entities [EventEntity, EventEntity], work=68*
 63: 0x07D5 [0x1C] WAIT(30* ticks)
 64: 0x07D8 [0x01] GOTO 0x09A5
 65: 0x07DB [0x02] IF !(Work_Zone[2] == 98*) GOTO 0x080F
 66: 0x07E3 [0x66] LOAD_EXT_SCHEDULER_MAIN: Load scheduler "tlb0" with entities [EventEntity, EventEntity], work=68*
 67: 0x07F2 [0x1D] PRINT_EVENT_MESSAGE(message_id=11763*)
    → "You're wondering if Ygnas is still sneaking out?"
 68: 0x07F5 [0x23] WAIT_FOR_DIALOG_INTERACTION
 69: 0x07F6 [0x1D] PRINT_EVENT_MESSAGE(message_id=12021*)
    → "With how Fremilla's been in a tizzy the past few days, I wager it'll be a while before she calls on you again."
 70: 0x07F9 [0x23] WAIT_FOR_DIALOG_INTERACTION
 71: 0x07FA [0x66] LOAD_EXT_SCHEDULER_MAIN: Load scheduler "tlb1" with entities [EventEntity, EventEntity], work=68*
 72: 0x0809 [0x1C] WAIT(30* ticks)
 73: 0x080C [0x01] GOTO 0x09A5
 74: 0x080F [0x02] IF !(Work_Zone[2] == 6*) GOTO 0x0904
 75: 0x0817 [0x03] Work_Zone[2] = 0*
 76: 0x081C [0x03] Work_Zone[3] = 0*
 77: 0x0821 [0x03] Work_Zone[4] = 0*
 78: 0x0826 [0x03] Work_Zone[5] = 0*
 79: 0x082B [0x02] IF !(Work_Zone[9] == 1*) GOTO 0x0854
 80: 0x0833 [0x9D] IF (0x0A01) 3* = Work_Zone[2] // extra=0x8007
 81: 0x083D [0x03] Work_Zone[3] = 1*
 82: 0x0842 [0x9D] IF (0x0A01) 5* = Work_Zone[4] // extra=0x8007
 83: 0x084C [0x03] Work_Zone[5] = 1*
 84: 0x0851 [0x01] GOTO 0x08C5
 85: 0x0854 [0x02] IF !(Work_Zone[9] == 2*) GOTO 0x087D
 86: 0x085C [0x9D] IF (0x0A01) 2* = Work_Zone[2] // extra=0x8007
 87: 0x0866 [0x03] Work_Zone[3] = 1*
 88: 0x086B [0x9D] IF (0x0A01) 6* = Work_Zone[4] // extra=0x8007
 89: 0x0875 [0x03] Work_Zone[5] = 2*
 90: 0x087A [0x01] GOTO 0x08C5
 91: 0x087D [0x02] IF !(Work_Zone[9] == 3*) GOTO 0x0892
 92: 0x0885 [0x9D] IF (0x0A01) 1* = Work_Zone[2] // extra=0x8007
 93: 0x088F [0x01] GOTO 0x08C5
 94: 0x0892 [0x02] IF !(Work_Zone[9] == 4*) GOTO 0x08BB
 95: 0x089A [0x9D] IF (0x0A01) 0* = Work_Zone[2] // extra=0x8007
 96: 0x08A4 [0x03] Work_Zone[3] = 1*
 97: 0x08A9 [0x9D] IF (0x0A01) 5* = Work_Zone[4] // extra=0x8007
 98: 0x08B3 [0x03] Work_Zone[5] = 1*
 99: 0x08B8 [0x01] GOTO 0x08C5
100: 0x08BB [0x9D] IF (0x0A01) 4* = Work_Zone[2] // extra=0x8007

SUBROUTINE_08C5:
101: 0x08C5 [0x66] LOAD_EXT_SCHEDULER_MAIN: Load scheduler "tlb0" with entities [EventEntity, EventEntity], work=68*
102: 0x08D4 [0x1D] PRINT_EVENT_MESSAGE(message_id=12117*)
    → "You wish to confirm the sweets Fremilla rrrequested for Princess Arciela?"
103: 0x08D7 [0x23] WAIT_FOR_DIALOG_INTERACTION
104: 0x08D8 [0x02] IF !(Work_Zone[4] == 0*) GOTO 0x08E7
105: 0x08E0 [0x1D] PRINT_EVENT_MESSAGE(message_id=12118*)
    → "Hmm... It looks like you need to brrring $0..."
106: 0x08E3 [0x23] WAIT_FOR_DIALOG_INTERACTION
107: 0x08E4 [0x01] GOTO 0x08EB
108: 0x08E7 [0x1D] PRINT_EVENT_MESSAGE(message_id=12119*)
    → "Hmm... It looks like you need to brrring $1 $0 and $3 $0 ."
109: 0x08EA [0x23] WAIT_FOR_DIALOG_INTERACTION

SUBROUTINE_08EB:
110: 0x08EB [0x1D] PRINT_EVENT_MESSAGE(message_id=12120*)
    → "Once you have what I need, rrreturn here and I will summon Fremilla."
111: 0x08EE [0x23] WAIT_FOR_DIALOG_INTERACTION
112: 0x08EF [0x66] LOAD_EXT_SCHEDULER_MAIN: Load scheduler "tlb1" with entities [EventEntity, EventEntity], work=68*
113: 0x08FE [0x1C] WAIT(30* ticks)
114: 0x0901 [0x01] GOTO 0x09A5
115: 0x0904 [0x02] IF !(Work_Zone[2] == 7*) GOTO 0x093D
116: 0x090C [0x66] LOAD_EXT_SCHEDULER_MAIN: Load scheduler "tlb0" with entities [EventEntity, EventEntity], work=68*
117: 0x091B [0x03] Work_Zone[2] = 261*
118: 0x0920 [0x1D] PRINT_EVENT_MESSAGE(message_id=12139*)
    → "Oh yes, Fremilla said they werrre heading to the $8."
119: 0x0923 [0x23] WAIT_FOR_DIALOG_INTERACTION
120: 0x0924 [0x1D] PRINT_EVENT_MESSAGE(message_id=12140*)
    → "I'm sure they'll be fine, but I rrreally can't help but worry about those two. Hopefully, nothing bad happens to them out there."
121: 0x0927 [0x23] WAIT_FOR_DIALOG_INTERACTION
122: 0x0928 [0x66] LOAD_EXT_SCHEDULER_MAIN: Load scheduler "tlb1" with entities [EventEntity, EventEntity], work=68*
123: 0x0937 [0x1C] WAIT(30* ticks)
124: 0x093A [0x01] GOTO 0x09A5
125: 0x093D [0x02] IF !(Work_Zone[2] == 8*) GOTO 0x0971
126: 0x0945 [0x66] LOAD_EXT_SCHEDULER_MAIN: Load scheduler "tlb0" with entities [EventEntity, EventEntity], work=68*
127: 0x0954 [0x1D] PRINT_EVENT_MESSAGE(message_id=12142*)
    → "I deliverrred the sweets to Princess Arciela."
128: 0x0957 [0x23] WAIT_FOR_DIALOG_INTERACTION
129: 0x0958 [0x1D] PRINT_EVENT_MESSAGE(message_id=12143*)
    → "And it seems that Fremilla is continuing to trrry her hand at playing detective..."
130: 0x095B [0x23] WAIT_FOR_DIALOG_INTERACTION
131: 0x095C [0x66] LOAD_EXT_SCHEDULER_MAIN: Load scheduler "tlb1" with entities [EventEntity, EventEntity], work=68*
132: 0x096B [0x1C] WAIT(30* ticks)
133: 0x096E [0x01] GOTO 0x09A5
134: 0x0971 [0x02] IF !(Work_Zone[2] == 99*) GOTO 0x09A5
135: 0x0979 [0x66] LOAD_EXT_SCHEDULER_MAIN: Load scheduler "tlb0" with entities [EventEntity, EventEntity], work=68*
136: 0x0988 [0x1D] PRINT_EVENT_MESSAGE(message_id=11763*)
    → "You're wondering if Ygnas is still sneaking out?"
137: 0x098B [0x23] WAIT_FOR_DIALOG_INTERACTION
138: 0x098C [0x1D] PRINT_EVENT_MESSAGE(message_id=11764*)
    → "Fremilla hasn't mentioned anything to me, but rrrest assured that you'll be the first to know."
139: 0x098F [0x23] WAIT_FOR_DIALOG_INTERACTION
140: 0x0990 [0x66] LOAD_EXT_SCHEDULER_MAIN: Load scheduler "tlb1" with entities [EventEntity, EventEntity], work=68*
141: 0x099F [0x1C] WAIT(30* ticks)
142: 0x09A2 [0x01] GOTO 0x09A5

SUBROUTINE_09A5:
143: 0x09A5 [0x21] END_EVENT
144: 0x09A6 [0x00] END_REQSTACK()
```

### Event 65535.9

#### Metadata

| Field        | Value    |
|--------------|----------|
| Entrypoint   | 0x09A7   |
| Data Size    | 17 bytes |
| Instructions | 5        |

```
      00 01 02 03 04 05 06 07  08 09 0A 0B 0C 0D 0E 0F
      -- -- -- -- -- -- -- --  -- -- -- -- -- -- -- --
09A0:                      32  02 80 1F 00 7A 80 7B 80         2....z.{.
09B0: 7C 80 1F 01 39 7D 80 00                           |...9}..        
```

#### Opcodes

```
  0: 0x09A7 [0x32] ExtData[1]->MainSpeed = 13* * 0.1
  1: 0x09AA [0x1F] MOVE_ENTITY: EventEntity moves to X=99.500*, Z=-61.000*, Y=-40.150*
  2: 0x09B2 [0x1F] MOVE_ENTITY: Update entity position (mode=1)
  3: 0x09B4 [0x39] SET_ENTITY_DIRECTION(direction=5.6°*)
  4: 0x09B7 [0x00] END_REQSTACK()
```

### Event 114

#### Metadata

| Field        | Value   |
|--------------|---------|
| Entrypoint   | 0x09B8  |
| Data Size    | 7 bytes |
| Instructions | 2       |

```
      00 01 02 03 04 05 06 07  08 09 0A 0B 0C 0D 0E 0F
      -- -- -- -- -- -- -- --  -- -- -- -- -- -- -- --
09B0:                          92 01 F8 FF FF 7F 00             ....... 
```

#### Opcodes

```
  0: 0x09B8 [0x92] EventEntity->Render.Flags3 ^= 0x01
  1: 0x09BE [0x00] END_REQSTACK()
```

### Event 121

#### Metadata

| Field        | Value   |
|--------------|---------|
| Entrypoint   | 0x09BF  |
| Data Size    | 7 bytes |
| Instructions | 2       |

```
      00 01 02 03 04 05 06 07  08 09 0A 0B 0C 0D 0E 0F
      -- -- -- -- -- -- -- --  -- -- -- -- -- -- -- --
09B0:                                               92                 .
09C0: 01 F8 FF FF 7F 00                                 ......          
```

#### Opcodes

```
  0: 0x09BF [0x92] EventEntity->Render.Flags3 ^= 0x01
  1: 0x09C5 [0x00] END_REQSTACK()
```

### Event 122

#### Metadata

| Field        | Value   |
|--------------|---------|
| Entrypoint   | 0x09C6  |
| Data Size    | 7 bytes |
| Instructions | 2       |

```
      00 01 02 03 04 05 06 07  08 09 0A 0B 0C 0D 0E 0F
      -- -- -- -- -- -- -- --  -- -- -- -- -- -- -- --
09C0:                   92 01  F8 FF FF 7F 00                 .......   
```

#### Opcodes

```
  0: 0x09C6 [0x92] EventEntity->Render.Flags3 ^= 0x01
  1: 0x09CC [0x00] END_REQSTACK()
```

### Event 65535.10

#### Metadata

| Field        | Value    |
|--------------|----------|
| Entrypoint   | 0x09CD   |
| Data Size    | 17 bytes |
| Instructions | 5        |

```
      00 01 02 03 04 05 06 07  08 09 0A 0B 0C 0D 0E 0F
      -- -- -- -- -- -- -- --  -- -- -- -- -- -- -- --
09C0:                                         32 02 80               2..
09D0: 1F 00 7A 80 7B 80 7C 80  1F 01 39 7D 80 00        ..z.{.|...9}..  
```

#### Opcodes

```
  0: 0x09CD [0x32] ExtData[1]->MainSpeed = 13* * 0.1
  1: 0x09D0 [0x1F] MOVE_ENTITY: EventEntity moves to X=99.500*, Z=-61.000*, Y=-40.150*
  2: 0x09D8 [0x1F] MOVE_ENTITY: Update entity position (mode=1)
