# 17830191 - Anomaly Expert

## Common Data

| Field            | Value                     |
|------------------|---------------------------|
| Zone             | Eastern Adoulin (ID: 257) |
| Block Size       | 5560 bytes                |
| Total Events     | 16                        |
| References Count | 197                       |

## List of Events

| Event ID                 | Entrypoint   |   Size |   Instructions |
|--------------------------|--------------|--------|----------------|
| [65535](#event-65535)    | 0x0000       |      1 |              1 |
| [6000](#event-6000)      | 0x0001       |     81 |             15 |
| [6001](#event-6001)      | 0x0052       |    192 |             43 |
| [6011](#event-6011)      | 0x0112       |     81 |             15 |
| [6002](#event-6002)      | 0x0163       |   2509 |            522 |
| [6003](#event-6003)      | 0x0B30       |    141 |             25 |
| [6004](#event-6004)      | 0x0BBD       |    481 |            102 |
| [6005](#event-6005)      | 0x0D9E       |    138 |             30 |
| [6006](#event-6006)      | 0x0E28       |    106 |             24 |
| [6007](#event-6007)      | 0x0E92       |    183 |             40 |
| [6008](#event-6008)      | 0x0F49       |    102 |             22 |
| [6009](#event-6009)      | 0x0FAF       |     90 |             20 |
| [6010](#event-6010)      | 0x1009       |    347 |             70 |
| [65535.1](#event-655351) | 0x1164       |     24 |              4 |
| [65535.2](#event-655352) | 0x117C       |     24 |              4 |
| [65535.3](#event-655353) | 0x1194       |    190 |             38 |

## DAT References (imed_data)

|   Index | Hex Value   |   Dec Value |
|---------|-------------|-------------|
|       0 | 0x003B      |          59 |
|       1 | 0x3292      |       12946 |
|       2 | 0x3293      |       12947 |
|       3 | 0x3294      |       12948 |
|       4 | 0x3295      |       12949 |
|       5 | 0x0000      |           0 |
|       6 | 0x0006      |           6 |
|       7 | 0x3296      |       12950 |
|       8 | 0x40000000  |  1073741824 |
|       9 | 0x0007      |           7 |
|      10 | 0x3297      |       12951 |
|      11 | 0x000A      |          10 |
|      12 | 0x3298      |       12952 |
|      13 | 0x3299      |       12953 |
|      14 | 0x329B      |       12955 |
|      15 | 0x0001      |           1 |
|      16 | 0x0012      |          18 |
|      17 | 0x329A      |       12954 |
|      18 | 0x330B      |       13067 |
|      19 | 0x330C      |       13068 |
|      20 | 0x330D      |       13069 |
|      21 | 0x001F      |          31 |
|      22 | 0x0020      |          32 |
|      23 | 0x003F      |          63 |
|      24 | 0x329C      |       12956 |
|      25 | 0x0002      |           2 |
|      26 | 0x0003      |           3 |
|      27 | 0x0004      |           4 |
|      28 | 0x0005      |           5 |
|      29 | 0x329D      |       12957 |
|      30 | 0x329E      |       12958 |
|      31 | 0x329F      |       12959 |
|      32 | 0x32A0      |       12960 |
|      33 | 0x32B6      |       12982 |
|      34 | 0x32B7      |       12983 |
|      35 | 0x32B8      |       12984 |
|      36 | 0x32B9      |       12985 |
|      37 | 0x32BA      |       12986 |
|      38 | 0x32BB      |       12987 |
|      39 | 0x32BC      |       12988 |
|      40 | 0x32BD      |       12989 |
|      41 | 0x32BE      |       12990 |
|      42 | 0x32BF      |       12991 |
|      43 | 0x32C0      |       12992 |
|      44 | 0x330F      |       13071 |
|      45 | 0x3310      |       13072 |
|      46 | 0x3311      |       13073 |
|      47 | 0x3312      |       13074 |
|      48 | 0x3313      |       13075 |
|      49 | 0x3314      |       13076 |
|      50 | 0x32C1      |       12993 |
|      51 | 0x32C2      |       12994 |
|      52 | 0x32C3      |       12995 |
|      53 | 0x32C4      |       12996 |
|      54 | 0x32C5      |       12997 |
|      55 | 0x32C6      |       12998 |
|      56 | 0x32C7      |       12999 |
|      57 | 0x32C8      |       13000 |
|      58 | 0x32C9      |       13001 |
|      59 | 0x32CA      |       13002 |
|      60 | 0x32CB      |       13003 |
|      61 | 0x32CC      |       13004 |
|      62 | 0x32CD      |       13005 |
|      63 | 0x32CE      |       13006 |
|      64 | 0x32CF      |       13007 |
|      65 | 0x32D0      |       13008 |
|      66 | 0x32D1      |       13009 |
|      67 | 0x32D2      |       13010 |
|      68 | 0x32D3      |       13011 |
|      69 | 0x32D4      |       13012 |
|      70 | 0x32D5      |       13013 |
|      71 | 0x32D6      |       13014 |
|      72 | 0x32D7      |       13015 |
|      73 | 0x32D8      |       13016 |
|      74 | 0x0008      |           8 |
|      75 | 0x32A1      |       12961 |
|      76 | 0x32A2      |       12962 |
|      77 | 0x32A3      |       12963 |
|      78 | 0x08F8      |        2296 |
|      79 | 0x08F9      |        2297 |
|      80 | 0x08FA      |        2298 |
|      81 | 0x09E2      |        2530 |
|      82 | 0x09E1      |        2529 |
|      83 | 0x09E3      |        2531 |
|      84 | 0x32A4      |       12964 |
|      85 | 0x32A5      |       12965 |
|      86 | 0x32A6      |       12966 |
|      87 | 0x32A7      |       12967 |
|      88 | 0x32A8      |       12968 |
|      89 | 0x32A9      |       12969 |
|      90 | 0x32AA      |       12970 |
|      91 | 0x32AB      |       12971 |
|      92 | 0x32AD      |       12973 |
|      93 | 0x32AE      |       12974 |
|      94 | 0x32AF      |       12975 |
|      95 | 0x000F      |          15 |
|      96 | 0x0010      |          16 |
|      97 | 0x0013      |          19 |
|      98 | 0x0014      |          20 |
|      99 | 0x0079      |         121 |
|     100 | 0x32B3      |       12979 |
|     101 | 0x32B4      |       12980 |
|     102 | 0x32B0      |       12976 |
|     103 | 0xFFFFFFFF  |  4294967295 |
|     104 | 0x330E      |       13070 |
|     105 | 0x32F6      |       13046 |
|     106 | 0x32F7      |       13047 |
|     107 | 0x32B5      |       12981 |
|     108 | 0x32F8      |       13048 |
|     109 | 0x32F9      |       13049 |
|     110 | 0x32FA      |       13050 |
|     111 | 0x18F7      |        6391 |
|     112 | 0x3309      |       13065 |
|     113 | 0x330A      |       13066 |
|     114 | 0x32D9      |       13017 |
|     115 | 0x00BE      |         190 |
|     116 | 0x0078      |         120 |
|     117 | 0x00F0      |         240 |
|     118 | 0x32DA      |       13018 |
|     119 | 0x32DB      |       13019 |
|     120 | 0x32DD      |       13021 |
|     121 | 0x32DE      |       13022 |
|     122 | 0x32DF      |       13023 |
|     123 | 0x0800      |        2048 |
|     124 | 0x0FFF      |        4095 |
|     125 | 0x0019      |          25 |
|     126 | 0x32E0      |       13024 |
|     127 | 0x32E1      |       13025 |
|     128 | 0x32E2      |       13026 |
|     129 | 0x32E3      |       13027 |
|     130 | 0x32E4      |       13028 |
|     131 | 0x32E5      |       13029 |
|     132 | 0x0015      |          21 |
|     133 | 0x32E8      |       13032 |
|     134 | 0x001D      |          29 |
|     135 | 0x32E9      |       13033 |
|     136 | 0x32EA      |       13034 |
|     137 | 0x32EB      |       13035 |
|     138 | 0x32EC      |       13036 |
|     139 | 0x32ED      |       13037 |
|     140 | 0x32EE      |       13038 |
|     141 | 0x32EF      |       13039 |
|     142 | 0x32F0      |       13040 |
|     143 | 0x32F1      |       13041 |
|     144 | 0x000C      |          12 |
|     145 | 0x32F2      |       13042 |
|     146 | 0x32F3      |       13043 |
|     147 | 0x32F4      |       13044 |
|     148 | 0x000B      |          11 |
|     149 | 0x32F5      |       13045 |
|     150 | 0x32FE      |       13054 |
|     151 | 0x32FF      |       13055 |
|     152 | 0x3300      |       13056 |
|     153 | 0x3301      |       13057 |
|     154 | 0x3302      |       13058 |
|     155 | 0x3303      |       13059 |
|     156 | 0x3304      |       13060 |
|     157 | 0x3305      |       13061 |
|     158 | 0x3306      |       13062 |
|     159 | 0x3307      |       13063 |
|     160 | 0x3308      |       13064 |
|     161 | 0x0009      |           9 |
|     162 | 0x000E      |          14 |
|     163 | 0x0018      |          24 |
|     164 | 0x178A      |        6026 |
|     165 | 0x178B      |        6027 |
|     166 | 0x178C      |        6028 |
|     167 | 0x178D      |        6029 |
|     168 | 0x178E      |        6030 |
|     169 | 0x178F      |        6031 |
|     170 | 0x1790      |        6032 |
|     171 | 0x1791      |        6033 |
|     172 | 0x1792      |        6034 |
|     173 | 0x1793      |        6035 |
|     174 | 0x1794      |        6036 |
|     175 | 0x1795      |        6037 |
|     176 | 0x1796      |        6038 |
|     177 | 0x1797      |        6039 |
|     178 | 0x1798      |        6040 |
|     179 | 0x1867      |        6247 |
|     180 | 0x1868      |        6248 |
|     181 | 0x1869      |        6249 |
|     182 | 0x186A      |        6250 |
|     183 | 0x186B      |        6251 |
|     184 | 0x1862      |        6242 |
|     185 | 0x1863      |        6243 |
|     186 | 0x1864      |        6244 |
|     187 | 0x1865      |        6245 |
|     188 | 0x1866      |        6246 |
|     189 | 0x186C      |        6252 |
|     190 | 0x186D      |        6253 |
|     191 | 0x186E      |        6254 |
|     192 | 0x186F      |        6255 |
|     193 | 0x1870      |        6256 |
|     194 | 0x0046      |          70 |
|     195 | 0x008C      |         140 |
|     196 | 0x00D2      |         210 |

## String References

- **6391**: Obtained: #.
- **12953**: Ready for some spelunking? [My gear's as good as on!/Caves, eew...]
- **12957**: What will you ask of her? [Explain the whole shebang./Yantric planchette defusion./Receive rewards./Nothing at this time.]
- **12959**: The following topics are inscribed on the vellum.
- **12960**: Learn about which topic? [Treasures./Fractures./Obscured domains./Mweya plasm./Yantric planchettes./Yggrete./Yggrete shards./Yggzi beads./Not interested at the moment.]
- **12964**: Examine which item? [3./$3./$3./$3./$3./$3./Never mind.]
- **12967**: What now? [Check the $3./Remove yggzi beads./Do nothing.]
- **12973**: Remove which? [#./$1./$2./$3./$4./None.]
- **12975**: Are you sure? [Positive./Wait, I need time to think...]
- **13022**: - $0
- **13023**: ...right? Let me just scratch a couple etchings in here and...
- **13026**: -$0
- **13027**: That should be it for now.
- **13070**: Receive which rewards? [None./Celadon, zaffre, and alizarin-related ones./Russet, phlox, and aster-related ones./Ones for conquering $1 fractures.]

## Events

### Event 65535

#### Metadata

| Field        | Value   |
|--------------|---------|
| Entrypoint   | 0x0000  |
| Data Size    | 1 bytes |
| Instructions | 1       |

```
      00 01 02 03 04 05 06 07  08 09 0A 0B 0C 0D 0E 0F
      -- -- -- -- -- -- -- --  -- -- -- -- -- -- -- --
0000: 00                                                .               
```

#### Opcodes

```
  0: 0x0000 [0x00] END_REQSTACK()
```

### Event 6000

#### Metadata

| Field        | Value    |
|--------------|----------|
| Entrypoint   | 0x0001   |
| Data Size    | 81 bytes |
| Instructions | 15       |

```
      00 01 02 03 04 05 06 07  08 09 0A 0B 0C 0D 0E 0F
      -- -- -- -- -- -- -- --  -- -- -- -- -- -- -- --
0000:    42 4A F0 FF FF 7F 2F  11 10 01 4A 2F 11 10 01   BJ..../...J/...
0010: F0 FF FF 7F 6F 76 2F 11  10 01 66 00 80 F8 FF FF  ....ov/...f.....
0020: 7F F8 FF FF 7F 74 6C 6B  30 2B 2F 11 10 01 01 80  .....tlk0+/.....
0030: 23 2B 2F 11 10 01 02 80  23 2B 2F 11 10 01 03 80  #+/.....#+/.....
0040: 23 66 00 80 F8 FF FF 7F  F8 FF FF 7F 74 6C 6B 31  #f..........tlk1
0050: 21 00                                             !.              
```

#### Opcodes

```
  0: 0x0001 [0x42] SET_CLI_EVENT_CANCEL_DATA()
  1: 0x0002 [0x4A] LocalPlayer looks at Anomaly Expert (ID: 17830191/0x0110112F)
  2: 0x000B [0x4A] Anomaly Expert (ID: 17830191/0x0110112F) looks at LocalPlayer
  3: 0x0014 [0x6F] WAIT_FRAME_DELAY: Yield until WaitTime reaches zero
  4: 0x0015 [0x76] CHECK_ENTITY_RENDER_FLAGS: Wait until Anomaly Expert (ID: 17830191/0x0110112F) Render.Flags0 and Render.Flags3 conditions are met
  5: 0x001A [0x66] LOAD_EXT_SCHEDULER_MAIN: Load scheduler "tlk0" with entities [EventEntity, EventEntity], work=59*
  6: 0x0029 [0x2B] Anomaly Expert (ID: 17830191/0x0110112F) [12946*]:
    → "Ah yes, who can forget the smell of Eastern Ulbuka. Fetid jungles, noxious rrrivers, and sulfurous magma. It's enough to bring a tear to the eye."
  7: 0x0030 [0x23] WAIT_FOR_DIALOG_INTERACTION
  8: 0x0031 [0x2B] Anomaly Expert (ID: 17830191/0x0110112F) [12947*]:
    → "But you know what gets me even more excited? Tiny caves filled with trrreasure dotting the landscape!"
  9: 0x0038 [0x23] WAIT_FOR_DIALOG_INTERACTION
 10: 0x0039 [0x2B] Anomaly Expert (ID: 17830191/0x0110112F) [12948*]:
    → "Gee, you know what would be positively wonderrrful? If some strong pioneer were to go down there and beat up the monsters guarding it! You wouldn't happen to know any, would you?"
 11: 0x0040 [0x23] WAIT_FOR_DIALOG_INTERACTION
 12: 0x0041 [0x66] LOAD_EXT_SCHEDULER_MAIN: Load scheduler "tlk1" with entities [EventEntity, EventEntity], work=59*
 13: 0x0050 [0x21] END_EVENT
 14: 0x0051 [0x00] END_REQSTACK()
```

### Event 6001

#### Metadata

| Field        | Value     |
|--------------|-----------|
| Entrypoint   | 0x0052    |
| Data Size    | 192 bytes |
| Instructions | 42        |

```
      00 01 02 03 04 05 06 07  08 09 0A 0B 0C 0D 0E 0F
      -- -- -- -- -- -- -- --  -- -- -- -- -- -- -- --
0050:       42 4A F0 FF FF 7F  2F 11 10 01 4A 2F 11 10    BJ..../...J/..
0060: 01 F0 FF FF 7F 6F 76 2F  11 10 01 2B 2F 11 10 01  .....ov/...+/...
0070: 04 80 23 02 02 10 05 80  00 96 00 6E F8 FF FF 7F  ..#........n....
0080: 06 80 99 F8 FF FF 7F 2B  2F 11 10 01 07 80 23 03  .......+/.....#.
0090: 01 10 08 80 21 00 6E F8  FF FF 7F 09 80 99 F8 FF  ....!.n.........
00A0: FF 7F 2B 2F 11 10 01 0A  80 23 6E F8 FF FF 7F 0B  ..+/.....#n.....
00B0: 80 99 F8 FF FF 7F 2B 2F  11 10 01 0C 80 23 24 0D  ......+/.....#$.
00C0: 80 05 80 05 80 25 02 00  10 05 80 00 EA 00 6E F8  .....%........n.
00D0: FF FF 7F 09 80 99 F8 FF  FF 7F 2B 2F 11 10 01 0E  ..........+/....
00E0: 80 23 03 01 10 0F 80 01  10 01 02 00 10 0F 80 00  .#..............
00F0: 10 01 6E F8 FF FF 7F 10  80 99 F8 FF FF 7F 2B 2F  ..n...........+/
0100: 11 10 01 11 80 23 03 01  10 08 80 21 00 01 10 01  .....#.....!....
0110: 21 00                                             !.              
```

#### Opcodes

```
  0: 0x0052 [0x42] SET_CLI_EVENT_CANCEL_DATA()
  1: 0x0053 [0x4A] LocalPlayer looks at Anomaly Expert (ID: 17830191/0x0110112F)
  2: 0x005C [0x4A] Anomaly Expert (ID: 17830191/0x0110112F) looks at LocalPlayer
  3: 0x0065 [0x6F] WAIT_FRAME_DELAY: Yield until WaitTime reaches zero
  4: 0x0066 [0x76] CHECK_ENTITY_RENDER_FLAGS: Wait until Anomaly Expert (ID: 17830191/0x0110112F) Render.Flags0 and Render.Flags3 conditions are met
  5: 0x006B [0x2B] Anomaly Expert (ID: 17830191/0x0110112F) [12949*]:
    → "Oh, what's this now? You're a pioneerrr? I had expected someone with a bit more...panache. Still, while you're here, mind smashing some skulls?"
  6: 0x0072 [0x23] WAIT_FOR_DIALOG_INTERACTION
  7: 0x0073 [0x02] IF !(Work_Zone[2] == 0*) GOTO 0x0096
  8: 0x007B [0x6E] EventEntity uses emote 6*
  9: 0x0082 [0x99] Wait for EventEntity animation to complete
 10: 0x0087 [0x2B] Anomaly Expert (ID: 17830191/0x0110112F) [12950*]:
    → "But wait--those arrrms of yours are like twigs! <Sigh> Waiting for the right [man/woman] to come around is such a pain..."
 11: 0x008E [0x23] WAIT_FOR_DIALOG_INTERACTION
 12: 0x008F [0x03] Work_Zone[1] = 1073741824*
 13: 0x0094 [0x21] END_EVENT
 14: 0x0095 [0x00] END_REQSTACK()
 15: 0x0096 [0x6E] EventEntity uses emote 7*
 16: 0x009D [0x99] Wait for EventEntity animation to complete
 17: 0x00A2 [0x2B] Anomaly Expert (ID: 17830191/0x0110112F) [12951*]:
    → "Why, yes, a specimen such as yourself will do purrrfectly! Caught like a mouse, you are!"
 18: 0x00A9 [0x23] WAIT_FOR_DIALOG_INTERACTION
 19: 0x00AA [0x6E] EventEntity uses emote 10*
 20: 0x00B1 [0x99] Wait for EventEntity animation to complete
 21: 0x00B6 [0x2B] Anomaly Expert (ID: 17830191/0x0110112F) [12952*]:
    → "Just let me work a little hocus-pocus and...there! Now you're ready to go delving for trrreasure! Right? I'm not going to let you turn back!"
 22: 0x00BD [0x23] WAIT_FOR_DIALOG_INTERACTION
 23: 0x00BE [0x24] CREATE_DIALOG(message_id=12953*, default_option=0*, option_flags=0*)
    → "Ready for some spelunking? [My gear's as good as on!/Caves, eew...]"
 24: 0x00C5 [0x25] WAIT_DIALOG_SELECT()
 25: 0x00C6 [0x02] IF !(Work_Zone[0] == 0*) GOTO 0x00EA
 26: 0x00CE [0x6E] EventEntity uses emote 7*
 27: 0x00D5 [0x99] Wait for EventEntity animation to complete
 28: 0x00DA [0x2B] Anomaly Expert (ID: 17830191/0x0110112F) [12955*]:
    → "Wow, you might be dependable after all! There's no need to ink our deal on parchment--I've already collected a hair sample in case I need to curse you for betraying me. Here's how it works: I discover the probable location of a treasure, and you go out and find it for me. Wrap your pea brain around that one."
 29: 0x00E1 [0x23] WAIT_FOR_DIALOG_INTERACTION
 30: 0x00E2 [0x03] Work_Zone[1] = 1*
 31: 0x00E7 [0x01] GOTO 0x0110
 32: 0x00EA [0x02] IF !(Work_Zone[0] == 1*) GOTO 0x0110
 33: 0x00F2 [0x6E] EventEntity uses emote 18*
 34: 0x00F9 [0x99] Wait for EventEntity animation to complete
 35: 0x00FE [0x2B] Anomaly Expert (ID: 17830191/0x0110112F) [12954*]:
    → "Wh-what? This is trrreasure we're talking about here! Riches abound! Woo the [woman/man] of your dreams...or the [man/woman] of your dreams, if you're into that! Not that I care about you people either way."
 36: 0x0105 [0x23] WAIT_FOR_DIALOG_INTERACTION
 37: 0x0106 [0x03] Work_Zone[1] = 1073741824*
 38: 0x010B [0x21] END_EVENT
 39: 0x010C [0x00] END_REQSTACK()

SUBROUTINE_0110:
 40: 0x0110 [0x21] END_EVENT
 41: 0x0111 [0x00] END_REQSTACK()
```

#### Data or dead code:

```
# Dead code (unreachable instructions):
     0x010D [0x01] GOTO 0x0110
```

### Event 6011

#### Metadata

| Field        | Value    |
|--------------|----------|
| Entrypoint   | 0x0112   |
| Data Size    | 81 bytes |
| Instructions | 15       |

```
      00 01 02 03 04 05 06 07  08 09 0A 0B 0C 0D 0E 0F
      -- -- -- -- -- -- -- --  -- -- -- -- -- -- -- --
0110:       42 4A F0 FF FF 7F  2F 11 10 01 4A 2F 11 10    BJ..../...J/..
0120: 01 F0 FF FF 7F 6F 76 2F  11 10 01 66 00 80 F8 FF  .....ov/...f....
0130: FF 7F F8 FF FF 7F 74 6C  6B 30 2B 2F 11 10 01 12  ......tlk0+/....
0140: 80 23 2B 2F 11 10 01 13  80 23 2B 2F 11 10 01 14  .#+/.....#+/....
0150: 80 23 66 00 80 F8 FF FF  7F F8 FF FF 7F 74 6C 6B  .#f..........tlk
0160: 31 21 00                                          1!.             
```

#### Opcodes

```
  0: 0x0112 [0x42] SET_CLI_EVENT_CANCEL_DATA()
  1: 0x0113 [0x4A] LocalPlayer looks at Anomaly Expert (ID: 17830191/0x0110112F)
  2: 0x011C [0x4A] Anomaly Expert (ID: 17830191/0x0110112F) looks at LocalPlayer
  3: 0x0125 [0x6F] WAIT_FRAME_DELAY: Yield until WaitTime reaches zero
  4: 0x0126 [0x76] CHECK_ENTITY_RENDER_FLAGS: Wait until Anomaly Expert (ID: 17830191/0x0110112F) Render.Flags0 and Render.Flags3 conditions are met
  5: 0x012B [0x66] LOAD_EXT_SCHEDULER_MAIN: Load scheduler "tlk0" with entities [EventEntity, EventEntity], work=59*
  6: 0x013A [0x2B] Anomaly Expert (ID: 17830191/0x0110112F) [13067*]:
    → "Well, well, well, what purrrfect timing for an adventurer--uh, pioneer maybe--to show up!"
  7: 0x0141 [0x23] WAIT_FOR_DIALOG_INTERACTION
  8: 0x0142 [0x2B] Anomaly Expert (ID: 17830191/0x0110112F) [13068*]:
    → "We've just rrrecently discovered some new excavation sites! What're we calling them? Why, the hyper-intuitive "obscured domains," of course!"
  9: 0x0149 [0x23] WAIT_FOR_DIALOG_INTERACTION
 10: 0x014A [0x2B] Anomaly Expert (ID: 17830191/0x0110112F) [13069*]:
    → "Sounds like a rrrousing good time, doesn't it? I knew you'd agree! Time to go pawing around for yggrete, then. Bye bye!"
 11: 0x0151 [0x23] WAIT_FOR_DIALOG_INTERACTION
 12: 0x0152 [0x66] LOAD_EXT_SCHEDULER_MAIN: Load scheduler "tlk1" with entities [EventEntity, EventEntity], work=59*
 13: 0x0161 [0x21] END_EVENT
 14: 0x0162 [0x00] END_REQSTACK()
```

### Event 6002

#### Metadata

| Field        | Value      |
|--------------|------------|
| Entrypoint   | 0x0163     |
| Data Size    | 2509 bytes |
| Instructions | 520        |

```
      00 01 02 03 04 05 06 07  08 09 0A 0B 0C 0D 0E 0F
      -- -- -- -- -- -- -- --  -- -- -- -- -- -- -- --
0160:          06 12 00 06 07  00 06 09 00 06 0A 00 06     .............
0170: 0B 00 06 0C 00 06 0D 00  06 0F 00 06 10 00 06 11  ................
0180: 00 06 13 00 06 0E 00 06  14 00 06 16 00 06 17 00  ................
0190: 06 18 00 06 06 00 03 09  00 02 10 41 05 80 05 80  ...........A....
01A0: 03 10 08 00 41 0F 80 15  80 03 10 12 00 03 04 00  ....A...........
01B0: 04 10 40 16 80 17 80 04  00 05 10 03 14 00 06 10  ..@.............
01C0: 03 16 00 07 10 4A F0 FF  FF 7F 2F 11 10 01 4A 2F  .....J..../...J/
01D0: 11 10 01 F0 FF FF 7F 6F  76 2F 11 10 01 2B 2F 11  .......ov/...+/.
01E0: 10 01 18 80 23 05 0A 00  02 0A 00 05 80 02 2E 0B  ....#...........
01F0: 03 0B 00 05 80 3C 0B 00  19 80 0F 80 3E 14 00 0F  .....<......>...
0200: 80 18 02 3E 14 00 19 80  18 02 3E 14 00 1A 80 18  ...>......>.....
0210: 02 3D 0B 00 19 80 0F 80  3E 14 00 1B 80 34 02 3E  .=......>....4.>
0220: 14 00 1C 80 34 02 3E 14  00 06 80 34 02 3D 0B 00  ....4.>....4.=..
0230: 19 80 0F 80 24 1D 80 05  80 0B 00 25 02 00 10 05  ....$......%....
0240: 80 00 3D 04 2B 2F 11 10  01 1E 80 23 49 2F 11 10  ..=.+/.....#I/..
0250: 01 1F 80 23 05 0C 00 02  0C 00 05 80 02 3A 04 06  ...#.........:..
0260: 19 00 02 09 00 06 80 04  6D 02 01 74 02 3C 19 00  ........m..t.<..
0270: 19 80 0F 80 24 20 80 05  80 19 00 25 02 00 10 05  ....$ .....%....
0280: 80 00 AC 02 2B 2F 11 10  01 21 80 23 2B 2F 11 10  ....+/...!.#+/..
0290: 01 22 80 23 2B 2F 11 10  01 23 80 23 03 02 10 1A  .".#+/...#.#....
02A0: 80 2B 2F 11 10 01 24 80  23 01 37 04 02 00 10 0F  .+/...$.#.7.....
02B0: 80 00 EF 02 2B 2F 11 10  01 25 80 23 2B 2F 11 10  ....+/...%.#+/..
02C0: 01 26 80 23 2B 2F 11 10  01 27 80 23 2B 2F 11 10  .&.#+/...'.#+/..
02D0: 01 28 80 23 2B 2F 11 10  01 29 80 23 2B 2F 11 10  .(.#+/...).#+/..
02E0: 01 2A 80 23 2B 2F 11 10  01 2B 80 23 01 37 04 02  .*.#+/...+.#.7..
02F0: 00 10 19 80 00 32 03 2B  2F 11 10 01 2C 80 23 2B  .....2.+/...,.#+
0300: 2F 11 10 01 2D 80 23 2B  2F 11 10 01 2E 80 23 2B  /...-.#+/.....#+
0310: 2F 11 10 01 2F 80 23 2B  2F 11 10 01 30 80 23 2B  /.../.#+/...0.#+
0320: 2F 11 10 01 31 80 23 2B  2F 11 10 01 28 80 23 01  /...1.#+/...(.#.
0330: 37 04 02 00 10 1A 80 00  55 03 2B 2F 11 10 01 32  7.......U.+/...2
0340: 80 23 2B 2F 11 10 01 33  80 23 2B 2F 11 10 01 34  .#+/...3.#+/...4
0350: 80 23 01 37 04 02 00 10  1B 80 00 98 03 2B 2F 11  .#.7.........+/.
0360: 10 01 35 80 23 2B 2F 11  10 01 36 80 23 2B 2F 11  ..5.#+/...6.#+/.
0370: 10 01 37 80 23 2B 2F 11  10 01 38 80 23 2B 2F 11  ..7.#+/...8.#+/.
0380: 10 01 39 80 23 2B 2F 11  10 01 3A 80 23 2B 2F 11  ..9.#+/...:.#+/.
0390: 10 01 3B 80 23 01 37 04  02 00 10 1C 80 00 CB 03  ..;.#.7.........
03A0: 2B 2F 11 10 01 3C 80 23  2B 2F 11 10 01 3D 80 23  +/...<.#+/...=.#
03B0: 2B 2F 11 10 01 3E 80 23  2B 2F 11 10 01 3F 80 23  +/...>.#+/...?.#
03C0: 2B 2F 11 10 01 40 80 23  01 37 04 02 00 10 06 80  +/...@.#.7......
03D0: 00 F6 03 2B 2F 11 10 01  41 80 23 2B 2F 11 10 01  ...+/...A.#+/...
03E0: 42 80 23 2B 2F 11 10 01  43 80 23 2B 2F 11 10 01  B.#+/...C.#+/...
03F0: 44 80 23 01 37 04 02 00  10 09 80 00 29 04 2B 2F  D.#.7.......).+/
0400: 11 10 01 45 80 23 2B 2F  11 10 01 46 80 23 2B 2F  ...E.#+/...F.#+/
0410: 11 10 01 47 80 23 2B 2F  11 10 01 48 80 23 2B 2F  ...G.#+/...H.#+/
0420: 11 10 01 49 80 23 01 37  04 02 00 10 4A 80 00 37  ...I.#.7....J..7
0430: 04 06 0C 00 01 37 04 01  57 02 01 2B 0B 02 00 10  .....7..W..+....
0440: 0F 80 00 DB 08 02 12 00  05 80 00 58 04 2B 2F 11  ...........X.+/.
0450: 10 01 4B 80 23 01 D8 08  02 04 00 05 80 00 6B 04  ..K.#.........k.
0460: 2B 2F 11 10 01 4C 80 23  01 D8 08 05 0C 00 02 0C  +/...L.#........
0470: 00 05 80 02 D8 08 03 0B  00 05 80 03 01 00 05 80  ................
0480: 03 02 00 05 80 03 03 00  05 80 03 06 00 05 80 2B  ...............+
0490: 2F 11 10 01 4D 80 23 03  02 10 4E 80 03 03 10 4F  /...M.#...N....O
04A0: 80 03 04 10 50 80 03 05  10 51 80 03 06 10 52 80  ....P....Q....R.
04B0: 03 07 10 53 80 3E 12 00  05 80 BF 04 01 C6 04 3C  ...S.>.........<
04C0: 0B 00 05 80 0F 80 3E 12  00 0F 80 D0 04 01 D7 04  ......>.........
04D0: 3C 0B 00 0F 80 0F 80 3E  12 00 19 80 E1 04 01 E8  <......>........
04E0: 04 3C 0B 00 19 80 0F 80  3E 12 00 1A 80 F2 04 01  .<......>.......
04F0: F9 04 3C 0B 00 1A 80 0F  80 3E 12 00 1B 80 03 05  ..<......>......
0500: 01 0A 05 3C 0B 00 1B 80  0F 80 3E 12 00 1C 80 14  ...<......>.....
0510: 05 01 1B 05 3C 0B 00 1C  80 0F 80 24 54 80 05 80  ....<......$T...
0520: 0B 00 25 02 00 10 05 80  00 38 05 03 01 00 00 10  ..%......8......
0530: 03 06 00 4E 80 01 AF 05  02 00 10 0F 80 00 4D 05  ...N..........M.
0540: 03 01 00 00 10 03 06 00  4F 80 01 AF 05 02 00 10  ........O.......
0550: 19 80 00 62 05 03 01 00  00 10 03 06 00 50 80 01  ...b.........P..
0560: AF 05 02 00 10 1A 80 00  77 05 03 01 00 00 10 03  ........w.......
0570: 06 00 51 80 01 AF 05 02  00 10 1B 80 00 8C 05 03  ..Q.............
0580: 01 00 00 10 03 06 00 52  80 01 AF 05 02 00 10 1C  .......R........
0590: 80 00 A1 05 03 01 00 00  10 03 06 00 53 80 01 AF  ............S...
05A0: 05 02 00 10 06 80 00 AF  05 06 0C 00 01 AF 05 02  ................
05B0: 0C 00 05 80 01 D5 08 03  02 10 06 00 2B 2F 11 10  ............+/..
05C0: 01 55 80 23 2B 2F 11 10  01 56 80 23 05 0E 00 02  .U.#+/...V.#....
05D0: 0E 00 05 80 02 D5 08 03  02 10 06 00 24 57 80 05  ............$W..
05E0: 80 05 80 25 02 00 10 05  80 00 DF 06 03 00 00 01  ...%............
05F0: 00 14 00 00 19 80 9D 00  D4 10 17 00 00 00 0B 00  ................
0600: 00 9D 00 D4 10 18 00 00  00 41 17 00 18 00 04 00  .........A......
0610: 00 00 02 00 00 05 80 00  2A 06 03 02 10 06 00 2B  ........*......+
0620: 2F 11 10 01 58 80 23 01  DC 06 2B 2F 11 10 01 59  /...X.#...+/...Y
0630: 80 23 03 02 00 05 80 03  03 00 01 00 14 03 00 4A  .#.............J
0640: 80 9D 00 F4 10 02 10 03  00 3E 00 00 05 80 5B 06  .........>....[.
0650: 2B 2F 11 10 01 5A 80 23  0B 02 00 0B 03 00 9D 00  +/...Z.#........
0660: F4 10 02 10 03 00 3E 00  00 0F 80 78 06 2B 2F 11  ......>....x.+/.
0670: 10 01 5A 80 23 0B 02 00  0B 03 00 9D 00 F4 10 02  ..Z.#...........
0680: 10 03 00 3E 00 00 19 80  95 06 2B 2F 11 10 01 5A  ...>......+/...Z
0690: 80 23 0B 02 00 0B 03 00  9D 00 F4 10 02 10 03 00  .#..............
06A0: 3E 00 00 1A 80 B2 06 2B  2F 11 10 01 5A 80 23 0B  >......+/...Z.#.
06B0: 02 00 0B 03 00 9D 00 F4  10 02 10 03 00 3E 00 00  .............>..
06C0: 1B 80 CF 06 2B 2F 11 10  01 5A 80 23 0B 02 00 03  ....+/...Z.#....
06D0: 02 10 02 00 2B 2F 11 10  01 5B 80 23 01 D2 08 02  ....+/...[.#....
06E0: 00 10 0F 80 00 C4 08 03  00 00 01 00 14 00 00 19  ................
06F0: 80 9D 00 D4 10 17 00 00  00 0B 00 00 9D 00 D4 10  ................
0700: 18 00 00 00 41 17 00 18  00 04 00 00 00 02 00 00  ....A...........
0710: 05 80 00 20 07 2B 2F 11  10 01 4C 80 23 01 C1 08  ... .+/...L.#...
0720: 03 0B 00 05 80 3E 00 00  05 80 2F 07 01 36 07 3C  .....>..../..6.<
0730: 0B 00 05 80 0F 80 3E 00  00 0F 80 40 07 01 47 07  ......>....@..G.
0740: 3C 0B 00 0F 80 0F 80 3E  00 00 19 80 51 07 01 58  <......>....Q..X
0750: 07 3C 0B 00 19 80 0F 80  3E 00 00 1A 80 62 07 01  .<......>....b..
0760: 69 07 3C 0B 00 1A 80 0F  80 3E 00 00 1B 80 73 07  i.<......>....s.
0770: 01 7A 07 3C 0B 00 1B 80  0F 80 03 00 00 01 00 14  .z.<............
0780: 00 00 4A 80 9D 00 F4 10  02 10 00 00 0B 00 00 9D  ..J.............
0790: 00 F4 10 03 10 00 00 0B  00 00 9D 00 F4 10 04 10  ................
07A0: 00 00 0B 00 00 9D 00 F4  10 05 10 00 00 0B 00 00  ................
07B0: 9D 00 F4 10 06 10 00 00  24 5C 80 05 80 0B 00 25  ........$\.....%
07C0: 02 00 10 05 80 00 CB 07  01 19 08 02 00 10 0F 80  ................
07D0: 00 DB 07 03 02 10 03 10  01 19 08 02 00 10 19 80  ................
07E0: 00 EB 07 03 02 10 04 10  01 19 08 02 00 10 1A 80  ................
07F0: 00 FB 07 03 02 10 05 10  01 19 08 02 00 10 1B 80  ................
0800: 00 0B 08 03 02 10 06 10  01 19 08 02 00 10 1C 80  ................
0810: 00 19 08 01 D7 05 01 19  08 03 02 00 00 10 2B 2F  ..............+/
0820: 11 10 01 5D 80 23 24 5E  80 0F 80 05 80 25 02 00  ...].#$^.....%..
0830: 10 05 80 00 AB 08 42 40  05 80 5F 80 01 10 0F 80  ......B@.._.....
0840: 40 60 80 61 80 01 10 01  00 40 62 80 15 80 01 10  @`.a.....@b.....
0850: 02 00 43 00 43 01 02 02  10 0F 80 00 A8 08 66 63  ..C.C.........fc
0860: 80 F8 FF FF 7F F8 FF FF  7F 70 61 73 30 41 17 00  .........pas0A..
0870: 18 00 04 00 00 00 3D 00  00 02 00 0F 80 40 17 00  ......=......@..
0880: 18 00 04 00 00 00 2E 02  00 00 05 80 01 9A 08 2B  ...............+
0890: 2F 11 10 01 64 80 23 01  A8 08 2B 2F 11 10 01 65  /...d.#...+/...e
08A0: 80 23 06 0E 00 01 76 04  01 C1 08 02 00 10 0F 80  .#....v.........
08B0: 00 C1 08 2B 2F 11 10 01  66 80 23 01 E7 06 01 C1  ...+/...f.#.....
08C0: 08 01 D2 08 02 00 10 19  80 00 D2 08 06 0E 00 01  ................
08D0: D2 08 01 CF 05 01 6E 04  01 2B 0B 02 00 10 19 80  ......n..+......
08E0: 00 18 0B 05 1A 00 02 1A  00 05 80 01 15 0B 03 19  ................
08F0: 00 67 80 3D 19 00 05 80  0F 80 3E 14 00 0F 80 16  .g.=......>.....
0900: 09 3E 14 00 19 80 16 09  3E 14 00 1A 80 16 09 3D  .>......>......=
0910: 19 00 0F 80 0F 80 3E 14  00 1B 80 32 09 3E 14 00  ......>....2.>..
0920: 1C 80 32 09 3E 14 00 06  80 32 09 3D 19 00 19 80  ..2.>....2.=....
0930: 0F 80 3E 19 00 0F 80 3C  09 01 4D 09 3E 19 00 19  ..>....<..M.>...
0940: 80 46 09 01 4D 09 3D 19  00 1A 80 0F 80 3E 04 00  .F..M.=......>..
0950: 17 80 5B 09 3C 19 00 1A  80 0F 80 03 03 10 06 80  ..[.<...........
0960: 24 68 80 05 80 19 00 25  02 00 10 05 80 00 76 09  $h.....%......v.
0970: 06 1A 00 01 12 0B 02 00  10 0F 80 00 F3 09 42 2B  ..............B+
0980: 2F 11 10 01 69 80 23 2B  2F 11 10 01 6A 80 23 40  /...i.#+/...j.#@
0990: 05 80 5F 80 01 10 19 80  43 00 43 01 03 01 00 02  .._.....C.C.....
09A0: 10 02 01 00 05 80 00 B4  09 2B 2F 11 10 01 6B 80  .........+/...k.
09B0: 23 01 EF 09 2B 2F 11 10  01 6C 80 23 2B 2F 11 10  #...+/...l.#+/..
09C0: 01 6D 80 23 66 63 80 F8  FF FF 7F F8 FF FF 7F 70  .m.#fc.........p
09D0: 61 73 30 03 03 10 1A 80  2B 2F 11 10 01 6E 80 23  as0.....+/...n.#
09E0: 03 02 10 01 00 48 6F 80  23 06 0A 00 06 1A 00 2E  .....Ho.#.......
09F0: 01 12 0B 02 00 10 19 80  00 87 0A 42 2B 2F 11 10  ...........B+/..
0A00: 01 69 80 23 2B 2F 11 10  01 6A 80 23 40 05 80 5F  .i.#+/...j.#@.._
0A10: 80 01 10 1A 80 43 00 43  01 03 01 00 02 10 02 01  .....C.C........
0A20: 00 05 80 00 31 0A 2B 2F  11 10 01 6B 80 23 01 83  ....1.+/...k.#..
0A30: 0A 2B 2F 11 10 01 6C 80  23 2B 2F 11 10 01 6D 80  .+/...l.#+/...m.
0A40: 23 66 63 80 F8 FF FF 7F  F8 FF FF 7F 70 61 73 30  #fc.........pas0
0A50: 03 03 10 1A 80 2B 2F 11  10 01 6E 80 23 03 02 10  .....+/...n.#...
0A60: 01 00 48 6F 80 23 06 0A  00 06 1A 00 3E 04 00 17  ..Ho.#......>...
0A70: 80 83 0A 2B 2F 11 10 01  70 80 23 2B 2F 11 10 01  ...+/...p.#+/...
0A80: 71 80 23 2E 01 12 0B 02  00 10 1A 80 00 12 0B 42  q.#............B
0A90: 2B 2F 11 10 01 69 80 23  2B 2F 11 10 01 6A 80 23  +/...i.#+/...j.#
0AA0: 40 05 80 5F 80 01 10 1B  80 43 00 43 01 03 01 00  @.._.....C.C....
0AB0: 02 10 03 02 00 03 10 02  01 00 05 80 00 CA 0A 2B  ...............+
0AC0: 2F 11 10 01 6B 80 23 01  0E 0B 2B 2F 11 10 01 6C  /...k.#...+/...l
0AD0: 80 23 2B 2F 11 10 01 6D  80 23 66 63 80 F8 FF FF  .#+/...m.#fc....
0AE0: 7F F8 FF FF 7F 70 61 73  30 03 03 10 06 80 2B 2F  .....pas0.....+/
0AF0: 11 10 01 6E 80 23 03 02  10 01 00 48 6F 80 23 03  ...n.#.....Ho.#.
0B00: 02 10 02 00 48 6F 80 23  06 0A 00 06 1A 00 2E 01  ....Ho.#........
0B10: 12 0B 01 E6 08 01 2B 0B  02 00 10 1A 80 00 2B 0B  ......+.......+.
0B20: 03 01 10 08 80 06 0A 00  01 2B 0B 01 E8 01 21 00  .........+....!.
```

#### Opcodes

```
  0: 0x0163 [0x06] ExtData[1]->WorkLocal[18] = 0
  1: 0x0166 [0x06] ExtData[1]->WorkLocal[7] = 0
  2: 0x0169 [0x06] ExtData[1]->WorkLocal[9] = 0
  3: 0x016C [0x06] ExtData[1]->WorkLocal[10] = 0
  4: 0x016F [0x06] ExtData[1]->WorkLocal[11] = 0
  5: 0x0172 [0x06] ExtData[1]->WorkLocal[12] = 0
  6: 0x0175 [0x06] ExtData[1]->WorkLocal[13] = 0
  7: 0x0178 [0x06] ExtData[1]->WorkLocal[15] = 0
  8: 0x017B [0x06] ExtData[1]->WorkLocal[16] = 0
  9: 0x017E [0x06] ExtData[1]->WorkLocal[17] = 0
 10: 0x0181 [0x06] ExtData[1]->WorkLocal[19] = 0
 11: 0x0184 [0x06] ExtData[1]->WorkLocal[14] = 0
 12: 0x0187 [0x06] ExtData[1]->WorkLocal[20] = 0
 13: 0x018A [0x06] ExtData[1]->WorkLocal[22] = 0
 14: 0x018D [0x06] ExtData[1]->WorkLocal[23] = 0
 15: 0x0190 [0x06] ExtData[1]->WorkLocal[24] = 0
 16: 0x0193 [0x06] ExtData[1]->WorkLocal[6] = 0
 17: 0x0196 [0x03] ExtData[1]->WorkLocal[9] = Work_Zone[2]
 18: 0x019B [0x41] ExtData[1]->WorkLocal[8] = Work_Zone[3] (bits 0*-0*)
 19: 0x01A4 [0x41] ExtData[1]->WorkLocal[18] = Work_Zone[3] (bits 1*-31*)
 20: 0x01AD [0x03] ExtData[1]->WorkLocal[4] = Work_Zone[4]
 21: 0x01B2 [0x40] SET_BIT_WORK_RANGE(start_bit=32*, end_bit=63*, target=ExtData[1]->WorkLocal[4], source=Work_Zone[5])
 22: 0x01BB [0x03] ExtData[1]->WorkLocal[20] = Work_Zone[6]
 23: 0x01C0 [0x03] ExtData[1]->WorkLocal[22] = Work_Zone[7]
 24: 0x01C5 [0x4A] LocalPlayer looks at Anomaly Expert (ID: 17830191/0x0110112F)
 25: 0x01CE [0x4A] Anomaly Expert (ID: 17830191/0x0110112F) looks at LocalPlayer
 26: 0x01D7 [0x6F] WAIT_FRAME_DELAY: Yield until WaitTime reaches zero
 27: 0x01D8 [0x76] CHECK_ENTITY_RENDER_FLAGS: Wait until Anomaly Expert (ID: 17830191/0x0110112F) Render.Flags0 and Render.Flags3 conditions are met
 28: 0x01DD [0x2B] Anomaly Expert (ID: 17830191/0x0110112F) [12956*]:
    → "You must be brrrimming with questions. I suppose even the simplest of explanations would confound you, but...bah. Just ask away."
 29: 0x01E4 [0x23] WAIT_FOR_DIALOG_INTERACTION
 30: 0x01E5 [0x05] ExtData[1]->WorkLocal[10] = 1
 31: 0x01E8 [0x02] IF !(ExtData[1]->WorkLocal[10] <= 0*) GOTO 0x0B2E
 32: 0x01F0 [0x03] ExtData[1]->WorkLocal[11] = 0*
 33: 0x01F5 [0x3C] SET_BIT_FLAG_CONDITIONAL(target_work_offset=ExtData[1]->WorkLocal[11], bit_index_work_offset=2*, condition_work_offset=1*)
 34: 0x01FC [0x3E] IF !(ExtData[1]->WorkLocal[20] bit 1*) GOTO 0x0218
 35: 0x0203 [0x3E] IF !(ExtData[1]->WorkLocal[20] bit 2*) GOTO 0x0218
 36: 0x020A [0x3E] IF !(ExtData[1]->WorkLocal[20] bit 3*) GOTO 0x0218
 37: 0x0211 [0x3D] CLEAR_BIT_FLAG_CONDITIONAL(target_work_offset=ExtData[1]->WorkLocal[11], bit_index_work_offset=2*, condition_work_offset=1*)
 38: 0x0218 [0x3E] IF !(ExtData[1]->WorkLocal[20] bit 4*) GOTO 0x0234
 39: 0x021F [0x3E] IF !(ExtData[1]->WorkLocal[20] bit 5*) GOTO 0x0234
 40: 0x0226 [0x3E] IF !(ExtData[1]->WorkLocal[20] bit 6*) GOTO 0x0234
 41: 0x022D [0x3D] CLEAR_BIT_FLAG_CONDITIONAL(target_work_offset=ExtData[1]->WorkLocal[11], bit_index_work_offset=2*, condition_work_offset=1*)
 42: 0x0234 [0x24] CREATE_DIALOG(message_id=12957*, default_option=0*, option_flags=ExtData[1]->WorkLocal[11])
    → "What will you ask of her? [Explain the whole shebang./Yantric planchette defusion./Receive rewards./Nothing at this time.]"
 43: 0x023B [0x25] WAIT_DIALOG_SELECT()
 44: 0x023C [0x02] IF !(Work_Zone[0] == 0*) GOTO 0x043D
 45: 0x0244 [0x2B] Anomaly Expert (ID: 17830191/0x0110112F) [12958*]:
    → ""The whole shebang"? <Sigh> I've had to explain this so many times, I had all the answers engrrraved on pieces of leather!"
 46: 0x024B [0x23] WAIT_FOR_DIALOG_INTERACTION
 47: 0x024C [0x49] Anomaly Expert (ID: 17830191/0x0110112F) (No speaker name) [12959*]:
 48: 0x0253 [0x23] WAIT_FOR_DIALOG_INTERACTION
 49: 0x0254 [0x05] ExtData[1]->WorkLocal[12] = 1
 50: 0x0257 [0x02] IF !(ExtData[1]->WorkLocal[12] <= 0*) GOTO 0x043A
 51: 0x025F [0x06] ExtData[1]->WorkLocal[25] = 0
 52: 0x0262 [0x02] IF !(ExtData[1]->WorkLocal[9] < 6*) GOTO 0x026D
 53: 0x026A [0x01] GOTO 0x0274
 54: 0x026D [0x3C] SET_BIT_FLAG_CONDITIONAL(target_work_offset=ExtData[1]->WorkLocal[25], bit_index_work_offset=2*, condition_work_offset=1*)

SUBROUTINE_0274:
 55: 0x0274 [0x24] CREATE_DIALOG(message_id=12960*, default_option=0*, option_flags=ExtData[1]->WorkLocal[25])
    → "Learn about which topic? [Treasures./Fractures./Obscured domains./Mweya plasm./Yantric planchettes./Yggrete./Yggrete shards./Yggzi beads./Not interested at the moment.]"
 56: 0x027B [0x25] WAIT_DIALOG_SELECT()
 57: 0x027C [0x02] IF !(Work_Zone[0] == 0*) GOTO 0x02AC
 58: 0x0284 [0x2B] Anomaly Expert (ID: 17830191/0x0110112F) [12982*]:
    → "Of courrrse, what good is an adventurer without [his/her] spoils? Too bad for you, sweet cheeks, that you might not be interested in what I'm looking for."
 59: 0x028B [0x23] WAIT_FOR_DIALOG_INTERACTION
 60: 0x028C [0x2B] Anomaly Expert (ID: 17830191/0x0110112F) [12983*]:
    → "You might think me a bit rrrough around the edges, but I assure you that I am an academic of the highest caliber. I would claw someone's eyes out to get ahold of what's beyond those veils!"
 61: 0x0293 [0x23] WAIT_FOR_DIALOG_INTERACTION
 62: 0x0294 [0x2B] Anomaly Expert (ID: 17830191/0x0110112F) [12984*]:
    → "...But monsters aren't my forrrte. Here's the deal. You go bash their faces in and bring me back what they're guarding. Anything the monsters have in their possession is yours. I couldn't care less."
 63: 0x029B [0x23] WAIT_FOR_DIALOG_INTERACTION
 64: 0x029C [0x03] Work_Zone[2] = 3*
 65: 0x02A1 [0x2B] Anomaly Expert (ID: 17830191/0x0110112F) [12985*]:
    → "And if you find anything out of the orrrdinary, you'd better bring it to me or I'll hunt you down. Yes, find a total of $0 of what I need and I'll throw in something else to sweeten the pot."
 66: 0x02A8 [0x23] WAIT_FOR_DIALOG_INTERACTION
 67: 0x02A9 [0x01] GOTO 0x0437
 68: 0x02AC [0x02] IF !(Work_Zone[0] == 1*) GOTO 0x02EF
 69: 0x02B4 [0x2B] Anomaly Expert (ID: 17830191/0x0110112F) [12986*]:
    → "Have you got lint in your earrrs? A fracture is a fracture! You know, a mystical underground cave. They've got to have them back where you come from--or are you really that oblivious? As to the details...well, these are untamed wilds, after all. Expect the unexpected."
 70: 0x02BB [0x23] WAIT_FOR_DIALOG_INTERACTION
 71: 0x02BC [0x2B] Anomaly Expert (ID: 17830191/0x0110112F) [12987*]:
    → "That's why I'm licking my lips at the thought of finding arrrcane knowledge! Yes, think of the pow... <Cough, cough> What I mean to say is..."
 72: 0x02C3 [0x23] WAIT_FOR_DIALOG_INTERACTION
 73: 0x02C4 [0x2B] Anomaly Expert (ID: 17830191/0x0110112F) [12988*]:
    → "Even finding these fractures is a burrrden. You catch a glimpse of rocky entrance, only to see it fade into mist. Yes, the treasures are always a paw ahead. Never more, never less."
 74: 0x02CB [0x23] WAIT_FOR_DIALOG_INTERACTION
 75: 0x02CC [0x2B] Anomaly Expert (ID: 17830191/0x0110112F) [12989*]:
    → "To be frrrank with you, I don't understand much about this whole ordeal. What I do know is that you need a yantric planchette to even have a prayer of finding the real entrance."
 76: 0x02D3 [0x23] WAIT_FOR_DIALOG_INTERACTION
 77: 0x02D4 [0x2B] Anomaly Expert (ID: 17830191/0x0110112F) [12990*]:
    → "These yantric planchettes don't make themselves, my pet. They're crrrafted from only the finest yggrete--and no one can fashion them but me."
 78: 0x02DB [0x23] WAIT_FOR_DIALOG_INTERACTION
 79: 0x02DC [0x2B] Anomaly Expert (ID: 17830191/0x0110112F) [12991*]:
    → "You see where I'm going with this, or do I have to carrrve it into your flesh? First the stone. Then the planchette. Then the fracture. Then the treasure. Is that comprehensible enough?"
 80: 0x02E3 [0x23] WAIT_FOR_DIALOG_INTERACTION
 81: 0x02E4 [0x2B] Anomaly Expert (ID: 17830191/0x0110112F) [12992*]:
    → "Yes...do this and all the plunderrr will be ripe for the plucking. Hunting fish in a barrel...unless the creatures lurking below get to you first."
 82: 0x02EB [0x23] WAIT_FOR_DIALOG_INTERACTION
 83: 0x02EC [0x01] GOTO 0x0437
 84: 0x02EF [0x02] IF !(Work_Zone[0] == 2*) GOTO 0x0332
 85: 0x02F7 [0x2B] Anomaly Expert (ID: 17830191/0x0110112F) [13071*]:
    → "What are obscured domains? How stupid do you have to be? They're arrreas that are obscured."
 86: 0x02FE [0x23] WAIT_FOR_DIALOG_INTERACTION
 87: 0x02FF [0x2B] Anomaly Expert (ID: 17830191/0x0110112F) [13072*]:
    → "They were crrreat--er, they exist adjacent to Marjami Ravine, Yorcia Weald, and Kamihr Drifts."
 88: 0x0306 [0x23] WAIT_FOR_DIALOG_INTERACTION
 89: 0x0307 [0x2B] Anomaly Expert (ID: 17830191/0x0110112F) [13073*]:
    → "Past their veils, groves upon groves of trees and shrubs and what have you grrrow there, so it's easy to get lost like a rat in a maze."
 90: 0x030E [0x23] WAIT_FOR_DIALOG_INTERACTION
 91: 0x030F [0x2B] Anomaly Expert (ID: 17830191/0x0110112F) [13074*]:
    → "Huh? M-me? No, I've never been to one! I'm only...rrrepeating what I heard. Right."
 92: 0x0316 [0x23] WAIT_FOR_DIALOG_INTERACTION
 93: 0x0317 [0x2B] Anomaly Expert (ID: 17830191/0x0110112F) [13075*]:
    → "As for the entrrrances, though, they're the same as the ones you use for fractures. Surprise!"
 94: 0x031E [0x23] WAIT_FOR_DIALOG_INTERACTION
 95: 0x031F [0x2B] Anomaly Expert (ID: 17830191/0x0110112F) [13076*]:
    → "I think they're called mirages or vellum or something. I let my subordinates deal with the mundane particulars."
 96: 0x0326 [0x23] WAIT_FOR_DIALOG_INTERACTION
 97: 0x0327 [0x2B] Anomaly Expert (ID: 17830191/0x0110112F) [12989*]:
    → "To be frrrank with you, I don't understand much about this whole ordeal. What I do know is that you need a yantric planchette to even have a prayer of finding the real entrance."
 98: 0x032E [0x23] WAIT_FOR_DIALOG_INTERACTION
 99: 0x032F [0x01] GOTO 0x0437
100: 0x0332 [0x02] IF !(Work_Zone[0] == 3*) GOTO 0x0355
101: 0x033A [0x2B] Anomaly Expert (ID: 17830191/0x0110112F) [12993*]:
    → "Mweya plasm is a substance of grrreat power found coating the scales and flesh of fiends beyond the veils."
102: 0x0341 [0x23] WAIT_FOR_DIALOG_INTERACTION
103: 0x0342 [0x2B] Anomaly Expert (ID: 17830191/0x0110112F) [12994*]:
    → "Its white sheen and otherworldly luster...hmm... <Cough> Hmph! Either way I have no use for it. Strange as the untamed wilds, it's well sought after by the Inventors' Coalition."
104: 0x0349 [0x23] WAIT_FOR_DIALOG_INTERACTION
105: 0x034A [0x2B] Anomaly Expert (ID: 17830191/0x0110112F) [12995*]:
    → "I'm usually not one to be concerned about the prrractical implications of such things, but think of the possibilities! I said think, damn you! <Sigh> I'm sure those inventors back in Western Adoulin will trade you trinkets for even just a drop of the stuff."
106: 0x0351 [0x23] WAIT_FOR_DIALOG_INTERACTION
107: 0x0352 [0x01] GOTO 0x0437
108: 0x0355 [0x02] IF !(Work_Zone[0] == 4*) GOTO 0x0398
109: 0x035D [0x2B] Anomaly Expert (ID: 17830191/0x0110112F) [12996*]:
    → "I'm more than just sharp claws and a prrretty face--I'm also the only one who can make yantric planchettes! That's why I'm here!"
110: 0x0364 [0x23] WAIT_FOR_DIALOG_INTERACTION
111: 0x0365 [0x2B] Anomaly Expert (ID: 17830191/0x0110112F) [12997*]:
    → "You're completely useless unless you trade me yggrrrete so I can make one."
112: 0x036C [0x23] WAIT_FOR_DIALOG_INTERACTION
113: 0x036D [0x2B] Anomaly Expert (ID: 17830191/0x0110112F) [12998*]:
    → "Why? <Scowl> Because you can't find the extra-dimensional entrrrances and step inside without one!"
114: 0x0374 [0x23] WAIT_FOR_DIALOG_INTERACTION
115: 0x0375 [0x2B] Anomaly Expert (ID: 17830191/0x0110112F) [12999*]:
    → "<Sigh>"
116: 0x037C [0x23] WAIT_FOR_DIALOG_INTERACTION
117: 0x037D [0x2B] Anomaly Expert (ID: 17830191/0x0110112F) [13000*]:
    → "Stop looking at me like that. No, I don't know why it worrrks that way, okay? That's why I've got to study these things!"
118: 0x0384 [0x23] WAIT_FOR_DIALOG_INTERACTION
119: 0x0385 [0x2B] Anomaly Expert (ID: 17830191/0x0110112F) [13001*]:
    → "Oh, and another thing, tenderpaws--once you've used a yantric planchette, it crrrumbles into dust and becomes completely useless."
120: 0x038C [0x23] WAIT_FOR_DIALOG_INTERACTION
121: 0x038D [0x2B] Anomaly Expert (ID: 17830191/0x0110112F) [13002*]:
    → "Of course, it goes without saying that the yggrete becomes totally useless, too. And before you ask--no, I won't give a damn if you come back to me crrrying and bawling. I'll just laugh in your face."
122: 0x0394 [0x23] WAIT_FOR_DIALOG_INTERACTION
123: 0x0395 [0x01] GOTO 0x0437
124: 0x0398 [0x02] IF !(Work_Zone[0] == 5*) GOTO 0x03CB
125: 0x03A0 [0x2B] Anomaly Expert (ID: 17830191/0x0110112F) [13003*]:
    → "Yggrete are petrified pieces of wood from a tree said to contain mystical powerrrs. But they're hard as rock--just like your head, evidently--so you can think of them as stones."
126: 0x03A7 [0x23] WAIT_FOR_DIALOG_INTERACTION
127: 0x03A8 [0x2B] Anomaly Expert (ID: 17830191/0x0110112F) [13004*]:
    → "They come in many colors depending on the latent energies within. It's those enerrrgies I need to make a yantric planchette."
128: 0x03AF [0x23] WAIT_FOR_DIALOG_INTERACTION
129: 0x03B0 [0x2B] Anomaly Expert (ID: 17830191/0x0110112F) [13005*]:
    → "The color of the yggrete deterrrmines what entrance it leads to. See how nice I am, spending all my time to supply you with this imporrrtant information?"
130: 0x03B7 [0x23] WAIT_FOR_DIALOG_INTERACTION
131: 0x03B8 [0x2B] Anomaly Expert (ID: 17830191/0x0110112F) [13006*]:
    → ""Why are they called yggrete?" Really? <Sigh> There's no helping some people. Suffice to say, it's one of nature's grrreatest mysteries."
132: 0x03BF [0x23] WAIT_FOR_DIALOG_INTERACTION
133: 0x03C0 [0x2B] Anomaly Expert (ID: 17830191/0x0110112F) [13007*]:
    → "So if you come across any yggrete, just trrrade them to me so I can make you a yantric planchette. With that, you can go bash some brains in to help me find what I need! I trust you can do that much."
134: 0x03C7 [0x23] WAIT_FOR_DIALOG_INTERACTION
135: 0x03C8 [0x01] GOTO 0x0437
136: 0x03CB [0x02] IF !(Work_Zone[0] == 6*) GOTO 0x03F6
137: 0x03D3 [0x2B] Anomaly Expert (ID: 17830191/0x0110112F) [13008*]:
    → "So, you want to know what yggrete shards are? Someone really needs to slap some sense into you--might as well be me. They're...sharrrds of yggrete."
138: 0x03DA [0x23] WAIT_FOR_DIALOG_INTERACTION
139: 0x03DB [0x2B] Anomaly Expert (ID: 17830191/0x0110112F) [13009*]:
    → "I shouldn't fault you too much, though, because they aren't used in the same way. No, these are used to call monsterrrs to you."
140: 0x03E2 [0x23] WAIT_FOR_DIALOG_INTERACTION
141: 0x03E3 [0x2B] Anomaly Expert (ID: 17830191/0x0110112F) [13010*]:
    → "They can also be condensed into mweya plasm...if you desirrre."
142: 0x03EA [0x23] WAIT_FOR_DIALOG_INTERACTION
143: 0x03EB [0x2B] Anomaly Expert (ID: 17830191/0x0110112F) [13011*]:
    → "Use them once and they become inert and sterrrile, just like...never mind. Don't be an idiot by using them when you don't mean to."
144: 0x03F2 [0x23] WAIT_FOR_DIALOG_INTERACTION
145: 0x03F3 [0x01] GOTO 0x0437
146: 0x03F6 [0x02] IF !(Work_Zone[0] == 7*) GOTO 0x0429
147: 0x03FE [0x2B] Anomaly Expert (ID: 17830191/0x0110112F) [13012*]:
    → "Yggzi beads are another forrrm of yggrete. You know, magic and all."
148: 0x0405 [0x23] WAIT_FOR_DIALOG_INTERACTION
149: 0x0406 [0x2B] Anomaly Expert (ID: 17830191/0x0110112F) [13013*]:
    → "By infusing a yantric planchette with these mystic beads, you can prevent certain monsters from approaching you--now, if only they could stop idiots from apprrroaching me."
150: 0x040D [0x23] WAIT_FOR_DIALOG_INTERACTION
151: 0x040E [0x2B] Anomaly Expert (ID: 17830191/0x0110112F) [13014*]:
    → "Each yantric planchette can be infused with up to three yggzi beads. Might as well try them for yourself, no?"
152: 0x0415 [0x23] WAIT_FOR_DIALOG_INTERACTION
153: 0x0416 [0x2B] Anomaly Expert (ID: 17830191/0x0110112F) [13015*]:
    → "Having all this talent is tough enough--I don't need to be doing other people's dirrrty work, too."
154: 0x041D [0x23] WAIT_FOR_DIALOG_INTERACTION
155: 0x041E [0x2B] Anomaly Expert (ID: 17830191/0x0110112F) [13016*]:
    → "They can also be turned into mweya plasm just like yggrete shards. A plebeian like you doesn't need any of that, though."
156: 0x0425 [0x23] WAIT_FOR_DIALOG_INTERACTION
157: 0x0426 [0x01] GOTO 0x0437
158: 0x0429 [0x02] IF !(Work_Zone[0] == 8*) GOTO 0x0437
159: 0x0431 [0x06] ExtData[1]->WorkLocal[12] = 0
160: 0x0434 [0x01] GOTO 0x0437

SUBROUTINE_0437:
161: 0x0437 [0x01] GOTO 0x0257
162: 0x043A [0x01] GOTO 0x0B2B
163: 0x043D [0x02] IF !(Work_Zone[0] == 1*) GOTO 0x08DB
164: 0x0445 [0x02] IF !(ExtData[1]->WorkLocal[18] == 0*) GOTO 0x0458
165: 0x044D [0x2B] Anomaly Expert (ID: 17830191/0x0110112F) [12961*]:
    → "Let me get a look at your...what? You don't have a yantric planchette!? Well, then, get crrracking! Find me some yggrete before I kick your butt back to Jeuno!"
166: 0x0454 [0x23] WAIT_FOR_DIALOG_INTERACTION
167: 0x0455 [0x01] GOTO 0x08D8
168: 0x0458 [0x02] IF !(ExtData[1]->WorkLocal[4] == 0*) GOTO 0x046B
169: 0x0460 [0x2B] Anomaly Expert (ID: 17830191/0x0110112F) [12962*]:
    → "You've got a yantrrric planchette, but...what's this? It has no yggzi beads? Bah, I didn't think someone could be this useless until I met you."
170: 0x0467 [0x23] WAIT_FOR_DIALOG_INTERACTION
171: 0x0468 [0x01] GOTO 0x08D8
172: 0x046B [0x05] ExtData[1]->WorkLocal[12] = 1

SUBROUTINE_046E:
173: 0x046E [0x02] IF !(ExtData[1]->WorkLocal[12] <= 0*) GOTO 0x08D8

SUBROUTINE_0476:
174: 0x0476 [0x03] ExtData[1]->WorkLocal[11] = 0*
175: 0x047B [0x03] ExtData[1]->WorkLocal[1] = 0*
176: 0x0480 [0x03] ExtData[1]->WorkLocal[2] = 0*
177: 0x0485 [0x03] ExtData[1]->WorkLocal[3] = 0*
178: 0x048A [0x03] ExtData[1]->WorkLocal[6] = 0*
179: 0x048F [0x2B] Anomaly Expert (ID: 17830191/0x0110112F) [12963*]:
    → "Let's prrroceed!"
180: 0x0496 [0x23] WAIT_FOR_DIALOG_INTERACTION
181: 0x0497 [0x03] Work_Zone[2] = 2296*
182: 0x049C [0x03] Work_Zone[3] = 2297*
183: 0x04A1 [0x03] Work_Zone[4] = 2298*
184: 0x04A6 [0x03] Work_Zone[5] = 2530*
185: 0x04AB [0x03] Work_Zone[6] = 2529*
186: 0x04B0 [0x03] Work_Zone[7] = 2531*
187: 0x04B5 [0x3E] IF !(ExtData[1]->WorkLocal[18] bit 0*) GOTO 0x04BF
188: 0x04BC [0x01] GOTO 0x04C6
189: 0x04BF [0x3C] SET_BIT_FLAG_CONDITIONAL(target_work_offset=ExtData[1]->WorkLocal[11], bit_index_work_offset=0*, condition_work_offset=1*)

SUBROUTINE_04C6:
190: 0x04C6 [0x3E] IF !(ExtData[1]->WorkLocal[18] bit 1*) GOTO 0x04D0
191: 0x04CD [0x01] GOTO 0x04D7
192: 0x04D0 [0x3C] SET_BIT_FLAG_CONDITIONAL(target_work_offset=ExtData[1]->WorkLocal[11], bit_index_work_offset=1*, condition_work_offset=1*)

SUBROUTINE_04D7:
193: 0x04D7 [0x3E] IF !(ExtData[1]->WorkLocal[18] bit 2*) GOTO 0x04E1
194: 0x04DE [0x01] GOTO 0x04E8
195: 0x04E1 [0x3C] SET_BIT_FLAG_CONDITIONAL(target_work_offset=ExtData[1]->WorkLocal[11], bit_index_work_offset=2*, condition_work_offset=1*)

SUBROUTINE_04E8:
196: 0x04E8 [0x3E] IF !(ExtData[1]->WorkLocal[18] bit 3*) GOTO 0x04F2
197: 0x04EF [0x01] GOTO 0x04F9
198: 0x04F2 [0x3C] SET_BIT_FLAG_CONDITIONAL(target_work_offset=ExtData[1]->WorkLocal[11], bit_index_work_offset=3*, condition_work_offset=1*)

SUBROUTINE_04F9:
199: 0x04F9 [0x3E] IF !(ExtData[1]->WorkLocal[18] bit 4*) GOTO 0x0503
200: 0x0500 [0x01] GOTO 0x050A
201: 0x0503 [0x3C] SET_BIT_FLAG_CONDITIONAL(target_work_offset=ExtData[1]->WorkLocal[11], bit_index_work_offset=4*, condition_work_offset=1*)

SUBROUTINE_050A:
202: 0x050A [0x3E] IF !(ExtData[1]->WorkLocal[18] bit 5*) GOTO 0x0514
203: 0x0511 [0x01] GOTO 0x051B
204: 0x0514 [0x3C] SET_BIT_FLAG_CONDITIONAL(target_work_offset=ExtData[1]->WorkLocal[11], bit_index_work_offset=5*, condition_work_offset=1*)

SUBROUTINE_051B:
205: 0x051B [0x24] CREATE_DIALOG(message_id=12964*, default_option=0*, option_flags=ExtData[1]->WorkLocal[11])
    → "Examine which item? [3./$3./$3./$3./$3./$3./Never mind.]"
206: 0x0522 [0x25] WAIT_DIALOG_SELECT()
207: 0x0523 [0x02] IF !(Work_Zone[0] == 0*) GOTO 0x0538
208: 0x052B [0x03] ExtData[1]->WorkLocal[1] = Work_Zone[0]
209: 0x0530 [0x03] ExtData[1]->WorkLocal[6] = 2296*
210: 0x0535 [0x01] GOTO 0x05AF
211: 0x0538 [0x02] IF !(Work_Zone[0] == 1*) GOTO 0x054D
212: 0x0540 [0x03] ExtData[1]->WorkLocal[1] = Work_Zone[0]
213: 0x0545 [0x03] ExtData[1]->WorkLocal[6] = 2297*
214: 0x054A [0x01] GOTO 0x05AF
215: 0x054D [0x02] IF !(Work_Zone[0] == 2*) GOTO 0x0562
216: 0x0555 [0x03] ExtData[1]->WorkLocal[1] = Work_Zone[0]
217: 0x055A [0x03] ExtData[1]->WorkLocal[6] = 2298*
218: 0x055F [0x01] GOTO 0x05AF
219: 0x0562 [0x02] IF !(Work_Zone[0] == 3*) GOTO 0x0577
220: 0x056A [0x03] ExtData[1]->WorkLocal[1] = Work_Zone[0]
221: 0x056F [0x03] ExtData[1]->WorkLocal[6] = 2530*
222: 0x0574 [0x01] GOTO 0x05AF
223: 0x0577 [0x02] IF !(Work_Zone[0] == 4*) GOTO 0x058C
224: 0x057F [0x03] ExtData[1]->WorkLocal[1] = Work_Zone[0]
225: 0x0584 [0x03] ExtData[1]->WorkLocal[6] = 2529*
226: 0x0589 [0x01] GOTO 0x05AF
227: 0x058C [0x02] IF !(Work_Zone[0] == 5*) GOTO 0x05A1
228: 0x0594 [0x03] ExtData[1]->WorkLocal[1] = Work_Zone[0]
229: 0x0599 [0x03] ExtData[1]->WorkLocal[6] = 2531*
230: 0x059E [0x01] GOTO 0x05AF
231: 0x05A1 [0x02] IF !(Work_Zone[0] == 6*) GOTO 0x05AF
232: 0x05A9 [0x06] ExtData[1]->WorkLocal[12] = 0
233: 0x05AC [0x01] GOTO 0x05AF

SUBROUTINE_05AF:
234: 0x05AF [0x02] IF !(ExtData[1]->WorkLocal[12] == 0*) GOTO 0x08D5
235: 0x05B7 [0x03] Work_Zone[2] = ExtData[1]->WorkLocal[6]
236: 0x05BC [0x2B] Anomaly Expert (ID: 17830191/0x0110112F) [12965*]:
    → "3. That'll do, adventurerrr. That'll do."
237: 0x05C3 [0x23] WAIT_FOR_DIALOG_INTERACTION
238: 0x05C4 [0x2B] Anomaly Expert (ID: 17830191/0x0110112F) [12966*]:
    → "And what shall we do with this, hmm?"
239: 0x05CB [0x23] WAIT_FOR_DIALOG_INTERACTION
240: 0x05CC [0x05] ExtData[1]->WorkLocal[14] = 1

SUBROUTINE_05CF:
241: 0x05CF [0x02] IF !(ExtData[1]->WorkLocal[14] <= 0*) GOTO 0x08D5

SUBROUTINE_05D7:
242: 0x05D7 [0x03] Work_Zone[2] = ExtData[1]->WorkLocal[6]
243: 0x05DC [0x24] CREATE_DIALOG(message_id=12967*, default_option=0*, option_flags=0*)
    → "What now? [Check the $3./Remove yggzi beads./Do nothing.]"
244: 0x05E3 [0x25] WAIT_DIALOG_SELECT()
245: 0x05E4 [0x02] IF !(Work_Zone[0] == 0*) GOTO 0x06DF
246: 0x05EC [0x03] ExtData[1]->WorkLocal[0] = ExtData[1]->WorkLocal[1]
247: 0x05F1 [0x14] ExtData[1]->WorkLocal[0] *= 2*
248: 0x05F6 [0x9D] ExtData[1]->WorkLocal[23] = 0x10D4[ExtData[1]->WorkLocal[0]] // Read WORD
249: 0x05FE [0x0B] ExtData[1]->WorkLocal[0]++
250: 0x0601 [0x9D] ExtData[1]->WorkLocal[24] = 0x10D4[ExtData[1]->WorkLocal[0]] // Read WORD
251: 0x0609 [0x41] ExtData[1]->WorkLocal[0] = ExtData[1]->WorkLocal[4] (bits ExtData[1]->WorkLocal[23]-ExtData[1]->WorkLocal[24])
252: 0x0612 [0x02] IF !(ExtData[1]->WorkLocal[0] == 0*) GOTO 0x062A
253: 0x061A [0x03] Work_Zone[2] = ExtData[1]->WorkLocal[6]
254: 0x061F [0x2B] Anomaly Expert (ID: 17830191/0x0110112F) [12968*]:
    → "Let me get a good look. Why, this is just a normal $3! No yggzi beads, nothing!"
255: 0x0626 [0x23] WAIT_FOR_DIALOG_INTERACTION
256: 0x0627 [0x01] GOTO 0x06DC
257: 0x062A [0x2B] Anomaly Expert (ID: 17830191/0x0110112F) [12969*]:
    → "I've got a cat's eye for this sort of thing. Just let me..."
258: 0x0631 [0x23] WAIT_FOR_DIALOG_INTERACTION
259: 0x0632 [0x03] ExtData[1]->WorkLocal[2] = 0*
260: 0x0637 [0x03] ExtData[1]->WorkLocal[3] = ExtData[1]->WorkLocal[1]
261: 0x063C [0x14] ExtData[1]->WorkLocal[3] *= 8*
262: 0x0641 [0x9D] Work_Zone[2] = 0x10F4[ExtData[1]->WorkLocal[3]] // Read WORD
263: 0x0649 [0x3E] IF !(ExtData[1]->WorkLocal[0] bit 0*) GOTO 0x065B
264: 0x0650 [0x2B] Anomaly Expert (ID: 17830191/0x0110112F) [12970*]:
    → "$0."
265: 0x0657 [0x23] WAIT_FOR_DIALOG_INTERACTION
266: 0x0658 [0x0B] ExtData[1]->WorkLocal[2]++
267: 0x065B [0x0B] ExtData[1]->WorkLocal[3]++
268: 0x065E [0x9D] Work_Zone[2] = 0x10F4[ExtData[1]->WorkLocal[3]] // Read WORD
269: 0x0666 [0x3E] IF !(ExtData[1]->WorkLocal[0] bit 1*) GOTO 0x0678
270: 0x066D [0x2B] Anomaly Expert (ID: 17830191/0x0110112F) [12970*]:
    → "$0."
271: 0x0674 [0x23] WAIT_FOR_DIALOG_INTERACTION
272: 0x0675 [0x0B] ExtData[1]->WorkLocal[2]++
273: 0x0678 [0x0B] ExtData[1]->WorkLocal[3]++
274: 0x067B [0x9D] Work_Zone[2] = 0x10F4[ExtData[1]->WorkLocal[3]] // Read WORD
275: 0x0683 [0x3E] IF !(ExtData[1]->WorkLocal[0] bit 2*) GOTO 0x0695
276: 0x068A [0x2B] Anomaly Expert (ID: 17830191/0x0110112F) [12970*]:
    → "$0."
277: 0x0691 [0x23] WAIT_FOR_DIALOG_INTERACTION
278: 0x0692 [0x0B] ExtData[1]->WorkLocal[2]++
279: 0x0695 [0x0B] ExtData[1]->WorkLocal[3]++
280: 0x0698 [0x9D] Work_Zone[2] = 0x10F4[ExtData[1]->WorkLocal[3]] // Read WORD
281: 0x06A0 [0x3E] IF !(ExtData[1]->WorkLocal[0] bit 3*) GOTO 0x06B2
282: 0x06A7 [0x2B] Anomaly Expert (ID: 17830191/0x0110112F) [12970*]:
    → "$0."
283: 0x06AE [0x23] WAIT_FOR_DIALOG_INTERACTION
284: 0x06AF [0x0B] ExtData[1]->WorkLocal[2]++
285: 0x06B2 [0x0B] ExtData[1]->WorkLocal[3]++
286: 0x06B5 [0x9D] Work_Zone[2] = 0x10F4[ExtData[1]->WorkLocal[3]] // Read WORD
287: 0x06BD [0x3E] IF !(ExtData[1]->WorkLocal[0] bit 4*) GOTO 0x06CF
288: 0x06C4 [0x2B] Anomaly Expert (ID: 17830191/0x0110112F) [12970*]:
    → "$0."
289: 0x06CB [0x23] WAIT_FOR_DIALOG_INTERACTION
290: 0x06CC [0x0B] ExtData[1]->WorkLocal[2]++
291: 0x06CF [0x03] Work_Zone[2] = ExtData[1]->WorkLocal[2]
292: 0x06D4 [0x2B] Anomaly Expert (ID: 17830191/0x0110112F) [12971*]:
    → "Yup, that's it. $0 of 'em, too!"
293: 0x06DB [0x23] WAIT_FOR_DIALOG_INTERACTION

SUBROUTINE_06DC:
294: 0x06DC [0x01] GOTO 0x08D2
295: 0x06DF [0x02] IF !(Work_Zone[0] == 1*) GOTO 0x08C4

SUBROUTINE_06E7:
296: 0x06E7 [0x03] ExtData[1]->WorkLocal[0] = ExtData[1]->WorkLocal[1]
297: 0x06EC [0x14] ExtData[1]->WorkLocal[0] *= 2*
298: 0x06F1 [0x9D] ExtData[1]->WorkLocal[23] = 0x10D4[ExtData[1]->WorkLocal[0]] // Read WORD
299: 0x06F9 [0x0B] ExtData[1]->WorkLocal[0]++
300: 0x06FC [0x9D] ExtData[1]->WorkLocal[24] = 0x10D4[ExtData[1]->WorkLocal[0]] // Read WORD
301: 0x0704 [0x41] ExtData[1]->WorkLocal[0] = ExtData[1]->WorkLocal[4] (bits ExtData[1]->WorkLocal[23]-ExtData[1]->WorkLocal[24])
302: 0x070D [0x02] IF !(ExtData[1]->WorkLocal[0] == 0*) GOTO 0x0720
303: 0x0715 [0x2B] Anomaly Expert (ID: 17830191/0x0110112F) [12962*]:
    → "You've got a yantrrric planchette, but...what's this? It has no yggzi beads? Bah, I didn't think someone could be this useless until I met you."
304: 0x071C [0x23] WAIT_FOR_DIALOG_INTERACTION
305: 0x071D [0x01] GOTO 0x08C1
306: 0x0720 [0x03] ExtData[1]->WorkLocal[11] = 0*
307: 0x0725 [0x3E] IF !(ExtData[1]->WorkLocal[0] bit 0*) GOTO 0x072F
308: 0x072C [0x01] GOTO 0x0736
309: 0x072F [0x3C] SET_BIT_FLAG_CONDITIONAL(target_work_offset=ExtData[1]->WorkLocal[11], bit_index_work_offset=0*, condition_work_offset=1*)

SUBROUTINE_0736:
310: 0x0736 [0x3E] IF !(ExtData[1]->WorkLocal[0] bit 1*) GOTO 0x0740
311: 0x073D [0x01] GOTO 0x0747
312: 0x0740 [0x3C] SET_BIT_FLAG_CONDITIONAL(target_work_offset=ExtData[1]->WorkLocal[11], bit_index_work_offset=1*, condition_work_offset=1*)

SUBROUTINE_0747:
313: 0x0747 [0x3E] IF !(ExtData[1]->WorkLocal[0] bit 2*) GOTO 0x0751
314: 0x074E [0x01] GOTO 0x0758
315: 0x0751 [0x3C] SET_BIT_FLAG_CONDITIONAL(target_work_offset=ExtData[1]->WorkLocal[11], bit_index_work_offset=2*, condition_work_offset=1*)

SUBROUTINE_0758:
316: 0x0758 [0x3E] IF !(ExtData[1]->WorkLocal[0] bit 3*) GOTO 0x0762
317: 0x075F [0x01] GOTO 0x0769
318: 0x0762 [0x3C] SET_BIT_FLAG_CONDITIONAL(target_work_offset=ExtData[1]->WorkLocal[11], bit_index_work_offset=3*, condition_work_offset=1*)

SUBROUTINE_0769:
319: 0x0769 [0x3E] IF !(ExtData[1]->WorkLocal[0] bit 4*) GOTO 0x0773
320: 0x0770 [0x01] GOTO 0x077A
321: 0x0773 [0x3C] SET_BIT_FLAG_CONDITIONAL(target_work_offset=ExtData[1]->WorkLocal[11], bit_index_work_offset=4*, condition_work_offset=1*)

SUBROUTINE_077A:
322: 0x077A [0x03] ExtData[1]->WorkLocal[0] = ExtData[1]->WorkLocal[1]
323: 0x077F [0x14] ExtData[1]->WorkLocal[0] *= 8*
324: 0x0784 [0x9D] Work_Zone[2] = 0x10F4[ExtData[1]->WorkLocal[0]] // Read WORD
325: 0x078C [0x0B] ExtData[1]->WorkLocal[0]++
326: 0x078F [0x9D] Work_Zone[3] = 0x10F4[ExtData[1]->WorkLocal[0]] // Read WORD
327: 0x0797 [0x0B] ExtData[1]->WorkLocal[0]++
328: 0x079A [0x9D] Work_Zone[4] = 0x10F4[ExtData[1]->WorkLocal[0]] // Read WORD
329: 0x07A2 [0x0B] ExtData[1]->WorkLocal[0]++
330: 0x07A5 [0x9D] Work_Zone[5] = 0x10F4[ExtData[1]->WorkLocal[0]] // Read WORD
331: 0x07AD [0x0B] ExtData[1]->WorkLocal[0]++
332: 0x07B0 [0x9D] Work_Zone[6] = 0x10F4[ExtData[1]->WorkLocal[0]] // Read WORD
333: 0x07B8 [0x24] CREATE_DIALOG(message_id=12973*, default_option=0*, option_flags=ExtData[1]->WorkLocal[11])
    → "Remove which? [#./$1./$2./$3./$4./None.]"
334: 0x07BF [0x25] WAIT_DIALOG_SELECT()
335: 0x07C0 [0x02] IF !(Work_Zone[0] == 0*) GOTO 0x07CB
336: 0x07C8 [0x01] GOTO 0x0819
337: 0x07CB [0x02] IF !(Work_Zone[0] == 1*) GOTO 0x07DB
338: 0x07D3 [0x03] Work_Zone[2] = Work_Zone[3]
339: 0x07D8 [0x01] GOTO 0x0819
340: 0x07DB [0x02] IF !(Work_Zone[0] == 2*) GOTO 0x07EB
341: 0x07E3 [0x03] Work_Zone[2] = Work_Zone[4]
342: 0x07E8 [0x01] GOTO 0x0819
343: 0x07EB [0x02] IF !(Work_Zone[0] == 3*) GOTO 0x07FB
344: 0x07F3 [0x03] Work_Zone[2] = Work_Zone[5]
345: 0x07F8 [0x01] GOTO 0x0819
346: 0x07FB [0x02] IF !(Work_Zone[0] == 4*) GOTO 0x080B
347: 0x0803 [0x03] Work_Zone[2] = Work_Zone[6]
348: 0x0808 [0x01] GOTO 0x0819
349: 0x080B [0x02] IF !(Work_Zone[0] == 5*) GOTO 0x0819
350: 0x0813 [0x01] GOTO 0x05D7

SUBROUTINE_0819:
351: 0x0819 [0x03] ExtData[1]->WorkLocal[2] = Work_Zone[0]
352: 0x081E [0x2B] Anomaly Expert (ID: 17830191/0x0110112F) [12974*]:
    → "Sure you want to rrremove that $0? If you back out after I do it...things are going to end badly."
353: 0x0825 [0x23] WAIT_FOR_DIALOG_INTERACTION
354: 0x0826 [0x24] CREATE_DIALOG(message_id=12975*, default_option=1*, option_flags=0*)
    → "Are you sure? [Positive./Wait, I need time to think...]"
355: 0x082D [0x25] WAIT_DIALOG_SELECT()
356: 0x082E [0x02] IF !(Work_Zone[0] == 0*) GOTO 0x08AB
357: 0x0836 [0x42] SET_CLI_EVENT_CANCEL_DATA()
358: 0x0837 [0x40] SET_BIT_WORK_RANGE(start_bit=0*, end_bit=15*, target=Work_Zone[1], source=1*)
359: 0x0840 [0x40] SET_BIT_WORK_RANGE(start_bit=16*, end_bit=19*, target=Work_Zone[1], source=ExtData[1]->WorkLocal[1])
360: 0x0849 [0x40] SET_BIT_WORK_RANGE(start_bit=20*, end_bit=31*, target=Work_Zone[1], source=ExtData[1]->WorkLocal[2])
361: 0x0852 [0x43] SEND_EVENT_UPDATE: Send pending tag to server (packet 0x005B)
362: 0x0854 [0x43] SEND_EVENT_UPDATE: Check pending flag (skip if not pending)
363: 0x0856 [0x02] IF !(Work_Zone[2] == 1*) GOTO 0x08A8
364: 0x085E [0x66] LOAD_EXT_SCHEDULER_MAIN: Load scheduler "pas0" with entities [EventEntity, EventEntity], work=121*
365: 0x086D [0x41] ExtData[1]->WorkLocal[0] = ExtData[1]->WorkLocal[4] (bits ExtData[1]->WorkLocal[23]-ExtData[1]->WorkLocal[24])
366: 0x0876 [0x3D] CLEAR_BIT_FLAG_CONDITIONAL(target_work_offset=ExtData[1]->WorkLocal[0], bit_index_work_offset=ExtData[1]->WorkLocal[2], condition_work_offset=1*)
367: 0x087D [0x40] SET_BIT_WORK_RANGE(start_bit=ExtData[1]->WorkLocal[23], end_bit=ExtData[1]->WorkLocal[24], target=ExtData[1]->WorkLocal[4], source=ExtData[1]->WorkLocal[0])
368: 0x0886 [0x2E] SET_CLI_EVENT_CANCEL_FLAGS()
369: 0x0887 [0x02] IF !(ExtData[1]->WorkLocal[0] == 0*) GOTO 0x089A
370: 0x088F [0x2B] Anomaly Expert (ID: 17830191/0x0110112F) [12979*]:
    → "Need to make any other adjustments?"
371: 0x0896 [0x23] WAIT_FOR_DIALOG_INTERACTION
372: 0x0897 [0x01] GOTO 0x08A8
373: 0x089A [0x2B] Anomaly Expert (ID: 17830191/0x0110112F) [12980*]:
    → "There's nothing for me to tinkerrr with here."
374: 0x08A1 [0x23] WAIT_FOR_DIALOG_INTERACTION
375: 0x08A2 [0x06] ExtData[1]->WorkLocal[14] = 0
376: 0x08A5 [0x01] GOTO 0x0476

SUBROUTINE_08A8:
377: 0x08A8 [0x01] GOTO 0x08C1
378: 0x08AB [0x02] IF !(Work_Zone[0] == 1*) GOTO 0x08C1
379: 0x08B3 [0x2B] Anomaly Expert (ID: 17830191/0x0110112F) [12976*]:
    → "Hmph. I'll forrrgive you for wasting my time--just this once."
380: 0x08BA [0x23] WAIT_FOR_DIALOG_INTERACTION
381: 0x08BB [0x01] GOTO 0x06E7

SUBROUTINE_08C1:
382: 0x08C1 [0x01] GOTO 0x08D2
383: 0x08C4 [0x02] IF !(Work_Zone[0] == 2*) GOTO 0x08D2
384: 0x08CC [0x06] ExtData[1]->WorkLocal[14] = 0
385: 0x08CF [0x01] GOTO 0x08D2

SUBROUTINE_08D2:
386: 0x08D2 [0x01] GOTO 0x05CF
387: 0x08D5 [0x01] GOTO 0x046E

SUBROUTINE_08D8:
388: 0x08D8 [0x01] GOTO 0x0B2B
389: 0x08DB [0x02] IF !(Work_Zone[0] == 2*) GOTO 0x0B18
390: 0x08E3 [0x05] ExtData[1]->WorkLocal[26] = 1

SUBROUTINE_08E6:
391: 0x08E6 [0x02] IF !(ExtData[1]->WorkLocal[26] == 0*) GOTO 0x0B15
392: 0x08EE [0x03] ExtData[1]->WorkLocal[25] = 4294967295*
393: 0x08F3 [0x3D] CLEAR_BIT_FLAG_CONDITIONAL(target_work_offset=ExtData[1]->WorkLocal[25], bit_index_work_offset=0*, condition_work_offset=1*)
394: 0x08FA [0x3E] IF !(ExtData[1]->WorkLocal[20] bit 1*) GOTO 0x0916
395: 0x0901 [0x3E] IF !(ExtData[1]->WorkLocal[20] bit 2*) GOTO 0x0916
396: 0x0908 [0x3E] IF !(ExtData[1]->WorkLocal[20] bit 3*) GOTO 0x0916
397: 0x090F [0x3D] CLEAR_BIT_FLAG_CONDITIONAL(target_work_offset=ExtData[1]->WorkLocal[25], bit_index_work_offset=1*, condition_work_offset=1*)
398: 0x0916 [0x3E] IF !(ExtData[1]->WorkLocal[20] bit 4*) GOTO 0x0932
399: 0x091D [0x3E] IF !(ExtData[1]->WorkLocal[20] bit 5*) GOTO 0x0932
400: 0x0924 [0x3E] IF !(ExtData[1]->WorkLocal[20] bit 6*) GOTO 0x0932
401: 0x092B [0x3D] CLEAR_BIT_FLAG_CONDITIONAL(target_work_offset=ExtData[1]->WorkLocal[25], bit_index_work_offset=2*, condition_work_offset=1*)
402: 0x0932 [0x3E] IF !(ExtData[1]->WorkLocal[25] bit 1*) GOTO 0x093C
403: 0x0939 [0x01] GOTO 0x094D
404: 0x093C [0x3E] IF !(ExtData[1]->WorkLocal[25] bit 2*) GOTO 0x0946
405: 0x0943 [0x01] GOTO 0x094D
406: 0x0946 [0x3D] CLEAR_BIT_FLAG_CONDITIONAL(target_work_offset=ExtData[1]->WorkLocal[25], bit_index_work_offset=3*, condition_work_offset=1*)

SUBROUTINE_094D:
407: 0x094D [0x3E] IF !(ExtData[1]->WorkLocal[4] bit 63*) GOTO 0x095B
408: 0x0954 [0x3C] SET_BIT_FLAG_CONDITIONAL(target_work_offset=ExtData[1]->WorkLocal[25], bit_index_work_offset=3*, condition_work_offset=1*)
409: 0x095B [0x03] Work_Zone[3] = 6*
410: 0x0960 [0x24] CREATE_DIALOG(message_id=13070*, default_option=0*, option_flags=ExtData[1]->WorkLocal[25])
    → "Receive which rewards? [None./Celadon, zaffre, and alizarin-related ones./Russet, phlox, and aster-related ones./Ones for conquering $1 fractures.]"
411: 0x0967 [0x25] WAIT_DIALOG_SELECT()
412: 0x0968 [0x02] IF !(Work_Zone[0] == 0*) GOTO 0x0976
413: 0x0970 [0x06] ExtData[1]->WorkLocal[26] = 0
414: 0x0973 [0x01] GOTO 0x0B12
415: 0x0976 [0x02] IF !(Work_Zone[0] == 1*) GOTO 0x09F3
416: 0x097E [0x42] SET_CLI_EVENT_CANCEL_DATA()
417: 0x097F [0x2B] Anomaly Expert (ID: 17830191/0x0110112F) [13046*]:
    → "I suppose I owe you something--a leftoverrr from my machinations. I have no need of it."
418: 0x0986 [0x23] WAIT_FOR_DIALOG_INTERACTION
419: 0x0987 [0x2B] Anomaly Expert (ID: 17830191/0x0110112F) [13047*]:
    → "Did I say "machinations"? No, I don't believe I did, and I'll rrrake your face if you say otherwise!"
420: 0x098E [0x23] WAIT_FOR_DIALOG_INTERACTION
421: 0x098F [0x40] SET_BIT_WORK_RANGE(start_bit=0*, end_bit=15*, target=Work_Zone[1], source=2*)
422: 0x0998 [0x43] SEND_EVENT_UPDATE: Send pending tag to server (packet 0x005B)
423: 0x099A [0x43] SEND_EVENT_UPDATE: Check pending flag (skip if not pending)
424: 0x099C [0x03] ExtData[1]->WorkLocal[1] = Work_Zone[2]
425: 0x09A1 [0x02] IF !(ExtData[1]->WorkLocal[1] == 0*) GOTO 0x09B4
426: 0x09A9 [0x2B] Anomaly Expert (ID: 17830191/0x0110112F) [12981*]:
    → "Oh? Looks like your sack is full. Come back once you've emptied it out.[ As much as I'd like to do it for you, I shouldn't touch something so purrrsonal without permission./]"
427: 0x09B0 [0x23] WAIT_FOR_DIALOG_INTERACTION
428: 0x09B1 [0x01] GOTO 0x09EF
429: 0x09B4 [0x2B] Anomaly Expert (ID: 17830191/0x0110112F) [13048*]:
    → "Let's just reach in the bag and see what it is..."
430: 0x09BB [0x23] WAIT_FOR_DIALOG_INTERACTION
431: 0x09BC [0x2B] Anomaly Expert (ID: 17830191/0x0110112F) [13049*]:
    → "Yes, isn't this just amazing?"
432: 0x09C3 [0x23] WAIT_FOR_DIALOG_INTERACTION
433: 0x09C4 [0x66] LOAD_EXT_SCHEDULER_MAIN: Load scheduler "pas0" with entities [EventEntity, EventEntity], work=121*
434: 0x09D3 [0x03] Work_Zone[3] = 3*
435: 0x09D8 [0x2B] Anomaly Expert (ID: 17830191/0x0110112F) [13050*]:
    → "You've prrroven far more useful than I imagined. If you bring me $1 more treasures I'm sure I can find something else to give you. Just be quicker on the uptake next time!"
436: 0x09DF [0x23] WAIT_FOR_DIALOG_INTERACTION
437: 0x09E0 [0x03] Work_Zone[2] = ExtData[1]->WorkLocal[1]
438: 0x09E5 [0x48] [System] [6391*]:
    → "Obtained: #."
439: 0x09E8 [0x23] WAIT_FOR_DIALOG_INTERACTION
440: 0x09E9 [0x06] ExtData[1]->WorkLocal[10] = 0
441: 0x09EC [0x06] ExtData[1]->WorkLocal[26] = 0

SUBROUTINE_09EF:
442: 0x09EF [0x2E] SET_CLI_EVENT_CANCEL_FLAGS()
443: 0x09F0 [0x01] GOTO 0x0B12
444: 0x09F3 [0x02] IF !(Work_Zone[0] == 2*) GOTO 0x0A87
445: 0x09FB [0x42] SET_CLI_EVENT_CANCEL_DATA()
446: 0x09FC [0x2B] Anomaly Expert (ID: 17830191/0x0110112F) [13046*]:
    → "I suppose I owe you something--a leftoverrr from my machinations. I have no need of it."
447: 0x0A03 [0x23] WAIT_FOR_DIALOG_INTERACTION
448: 0x0A04 [0x2B] Anomaly Expert (ID: 17830191/0x0110112F) [13047*]:
    → "Did I say "machinations"? No, I don't believe I did, and I'll rrrake your face if you say otherwise!"
449: 0x0A0B [0x23] WAIT_FOR_DIALOG_INTERACTION
450: 0x0A0C [0x40] SET_BIT_WORK_RANGE(start_bit=0*, end_bit=15*, target=Work_Zone[1], source=3*)
451: 0x0A15 [0x43] SEND_EVENT_UPDATE: Send pending tag to server (packet 0x005B)
452: 0x0A17 [0x43] SEND_EVENT_UPDATE: Check pending flag (skip if not pending)
453: 0x0A19 [0x03] ExtData[1]->WorkLocal[1] = Work_Zone[2]
454: 0x0A1E [0x02] IF !(ExtData[1]->WorkLocal[1] == 0*) GOTO 0x0A31
455: 0x0A26 [0x2B] Anomaly Expert (ID: 17830191/0x0110112F) [12981*]:
    → "Oh? Looks like your sack is full. Come back once you've emptied it out.[ As much as I'd like to do it for you, I shouldn't touch something so purrrsonal without permission./]"
456: 0x0A2D [0x23] WAIT_FOR_DIALOG_INTERACTION
457: 0x0A2E [0x01] GOTO 0x0A83
458: 0x0A31 [0x2B] Anomaly Expert (ID: 17830191/0x0110112F) [13048*]:
    → "Let's just reach in the bag and see what it is..."
459: 0x0A38 [0x23] WAIT_FOR_DIALOG_INTERACTION
460: 0x0A39 [0x2B] Anomaly Expert (ID: 17830191/0x0110112F) [13049*]:
    → "Yes, isn't this just amazing?"
461: 0x0A40 [0x23] WAIT_FOR_DIALOG_INTERACTION
462: 0x0A41 [0x66] LOAD_EXT_SCHEDULER_MAIN: Load scheduler "pas0" with entities [EventEntity, EventEntity], work=121*
463: 0x0A50 [0x03] Work_Zone[3] = 3*
464: 0x0A55 [0x2B] Anomaly Expert (ID: 17830191/0x0110112F) [13050*]:
    → "You've prrroven far more useful than I imagined. If you bring me $1 more treasures I'm sure I can find something else to give you. Just be quicker on the uptake next time!"
465: 0x0A5C [0x23] WAIT_FOR_DIALOG_INTERACTION
466: 0x0A5D [0x03] Work_Zone[2] = ExtData[1]->WorkLocal[1]
467: 0x0A62 [0x48] [System] [6391*]:
    → "Obtained: #."
468: 0x0A65 [0x23] WAIT_FOR_DIALOG_INTERACTION
469: 0x0A66 [0x06] ExtData[1]->WorkLocal[10] = 0
470: 0x0A69 [0x06] ExtData[1]->WorkLocal[26] = 0
471: 0x0A6C [0x3E] IF !(ExtData[1]->WorkLocal[4] bit 63*) GOTO 0x0A83
472: 0x0A73 [0x2B] Anomaly Expert (ID: 17830191/0x0110112F) [13065*]:
    → "Oh, if you've still got some sprrring in your step, why not try exploring all the different veiled territories and collecting the riches within?"
473: 0x0A7A [0x23] WAIT_FOR_DIALOG_INTERACTION
474: 0x0A7B [0x2B] Anomaly Expert (ID: 17830191/0x0110112F) [13066*]:
    → "If you're able to lick them all good, then I might just give you a prrresent...if I feel like it."
475: 0x0A82 [0x23] WAIT_FOR_DIALOG_INTERACTION

SUBROUTINE_0A83:
476: 0x0A83 [0x2E] SET_CLI_EVENT_CANCEL_FLAGS()
477: 0x0A84 [0x01] GOTO 0x0B12
478: 0x0A87 [0x02] IF !(Work_Zone[0] == 3*) GOTO 0x0B12
479: 0x0A8F [0x42] SET_CLI_EVENT_CANCEL_DATA()
480: 0x0A90 [0x2B] Anomaly Expert (ID: 17830191/0x0110112F) [13046*]:
    → "I suppose I owe you something--a leftoverrr from my machinations. I have no need of it."
481: 0x0A97 [0x23] WAIT_FOR_DIALOG_INTERACTION
482: 0x0A98 [0x2B] Anomaly Expert (ID: 17830191/0x0110112F) [13047*]:
    → "Did I say "machinations"? No, I don't believe I did, and I'll rrrake your face if you say otherwise!"
483: 0x0A9F [0x23] WAIT_FOR_DIALOG_INTERACTION
484: 0x0AA0 [0x40] SET_BIT_WORK_RANGE(start_bit=0*, end_bit=15*, target=Work_Zone[1], source=4*)
485: 0x0AA9 [0x43] SEND_EVENT_UPDATE: Send pending tag to server (packet 0x005B)
486: 0x0AAB [0x43] SEND_EVENT_UPDATE: Check pending flag (skip if not pending)
487: 0x0AAD [0x03] ExtData[1]->WorkLocal[1] = Work_Zone[2]
488: 0x0AB2 [0x03] ExtData[1]->WorkLocal[2] = Work_Zone[3]
489: 0x0AB7 [0x02] IF !(ExtData[1]->WorkLocal[1] == 0*) GOTO 0x0ACA
490: 0x0ABF [0x2B] Anomaly Expert (ID: 17830191/0x0110112F) [12981*]:
    → "Oh? Looks like your sack is full. Come back once you've emptied it out.[ As much as I'd like to do it for you, I shouldn't touch something so purrrsonal without permission./]"
491: 0x0AC6 [0x23] WAIT_FOR_DIALOG_INTERACTION
492: 0x0AC7 [0x01] GOTO 0x0B0E
493: 0x0ACA [0x2B] Anomaly Expert (ID: 17830191/0x0110112F) [13048*]:
    → "Let's just reach in the bag and see what it is..."
494: 0x0AD1 [0x23] WAIT_FOR_DIALOG_INTERACTION
495: 0x0AD2 [0x2B] Anomaly Expert (ID: 17830191/0x0110112F) [13049*]:
    → "Yes, isn't this just amazing?"
496: 0x0AD9 [0x23] WAIT_FOR_DIALOG_INTERACTION
497: 0x0ADA [0x66] LOAD_EXT_SCHEDULER_MAIN: Load scheduler "pas0" with entities [EventEntity, EventEntity], work=121*
498: 0x0AE9 [0x03] Work_Zone[3] = 6*
499: 0x0AEE [0x2B] Anomaly Expert (ID: 17830191/0x0110112F) [13050*]:
    → "You've prrroven far more useful than I imagined. If you bring me $1 more treasures I'm sure I can find something else to give you. Just be quicker on the uptake next time!"
500: 0x0AF5 [0x23] WAIT_FOR_DIALOG_INTERACTION
501: 0x0AF6 [0x03] Work_Zone[2] = ExtData[1]->WorkLocal[1]
502: 0x0AFB [0x48] [System] [6391*]:
    → "Obtained: #."
503: 0x0AFE [0x23] WAIT_FOR_DIALOG_INTERACTION
504: 0x0AFF [0x03] Work_Zone[2] = ExtData[1]->WorkLocal[2]
505: 0x0B04 [0x48] [System] [6391*]:
    → "Obtained: #."
506: 0x0B07 [0x23] WAIT_FOR_DIALOG_INTERACTION
507: 0x0B08 [0x06] ExtData[1]->WorkLocal[10] = 0
508: 0x0B0B [0x06] ExtData[1]->WorkLocal[26] = 0

SUBROUTINE_0B0E:
509: 0x0B0E [0x2E] SET_CLI_EVENT_CANCEL_FLAGS()
510: 0x0B0F [0x01] GOTO 0x0B12

SUBROUTINE_0B12:
511: 0x0B12 [0x01] GOTO 0x08E6
512: 0x0B15 [0x01] GOTO 0x0B2B
513: 0x0B18 [0x02] IF !(Work_Zone[0] == 3*) GOTO 0x0B2B
514: 0x0B20 [0x03] Work_Zone[1] = 1073741824*
515: 0x0B25 [0x06] ExtData[1]->WorkLocal[10] = 0
516: 0x0B28 [0x01] GOTO 0x0B2B

SUBROUTINE_0B2B:
517: 0x0B2B [0x01] GOTO 0x01E8
518: 0x0B2E [0x21] END_EVENT
519: 0x0B2F [0x00] END_REQSTACK()
```

#### Data or dead code:

```
# Dead code (unreachable instructions):
     0x0816 [0x01] GOTO 0x0819
# Dead code (unreachable instructions):
     0x08BE [0x01] GOTO 0x08C1
```

### Event 6003

#### Metadata

| Field        | Value     |
|--------------|-----------|
| Entrypoint   | 0x0B30    |
| Data Size    | 141 bytes |
| Instructions | 25        |

```
      00 01 02 03 04 05 06 07  08 09 0A 0B 0C 0D 0E 0F
      -- -- -- -- -- -- -- --  -- -- -- -- -- -- -- --
0B30: 42 4A F0 FF FF 7F 2F 11  10 01 4A 2F 11 10 01 F0  BJ..../...J/....
0B40: FF FF 7F 6F 76 2F 11 10  01 03 00 00 02 10 03 01  ...ov/..........
0B50: 00 03 10 03 1B 00 04 10  03 02 10 00 00 2B 2F 11  .............+/.
0B60: 10 01 72 80 23 9F 73 80  F8 FF FF 7F F8 FF FF 7F  ..r.#.s.........
0B70: 66 72 73 74 05 80 1C 74  80 9F 73 80 F8 FF FF 7F  frst...t..s.....
0B80: F8 FF FF 7F 6F 6B 65 78  05 80 1C 75 80 2B 2F 11  ....okex...u.+/.
0B90: 10 01 76 80 23 66 63 80  F8 FF FF 7F F8 FF FF 7F  ..v.#fc.........
0BA0: 70 61 73 30 03 02 10 01  00 03 03 10 1B 00 2B 2F  pas0..........+/
0BB0: 11 10 01 77 80 23 03 01  10 01 00 21 00           ...w.#.....!.   
```

#### Opcodes

```
  0: 0x0B30 [0x42] SET_CLI_EVENT_CANCEL_DATA()
  1: 0x0B31 [0x4A] LocalPlayer looks at Anomaly Expert (ID: 17830191/0x0110112F)
  2: 0x0B3A [0x4A] Anomaly Expert (ID: 17830191/0x0110112F) looks at LocalPlayer
  3: 0x0B43 [0x6F] WAIT_FRAME_DELAY: Yield until WaitTime reaches zero
  4: 0x0B44 [0x76] CHECK_ENTITY_RENDER_FLAGS: Wait until Anomaly Expert (ID: 17830191/0x0110112F) Render.Flags0 and Render.Flags3 conditions are met
  5: 0x0B49 [0x03] ExtData[1]->WorkLocal[0] = Work_Zone[2]
  6: 0x0B4E [0x03] ExtData[1]->WorkLocal[1] = Work_Zone[3]
  7: 0x0B53 [0x03] ExtData[1]->WorkLocal[27] = Work_Zone[4]
  8: 0x0B58 [0x03] Work_Zone[2] = ExtData[1]->WorkLocal[0]
  9: 0x0B5D [0x2B] Anomaly Expert (ID: 17830191/0x0110112F) [13017*]:
    → "So you brrrought me $0? And I was about to pounce on you for wasting my time. Let me get a good look..."
 10: 0x0B64 [0x23] WAIT_FOR_DIALOG_INTERACTION
 11: 0x0B65 [0x9F] LOAD_SCHEDULED_TASK_ALT: Load scheduler "frst" with entities [EventEntity, EventEntity], work=[190*, 0*]
 12: 0x0B76 [0x1C] WAIT(120* ticks)
 13: 0x0B79 [0x9F] LOAD_SCHEDULED_TASK_ALT: Load scheduler "okex" with entities [EventEntity, EventEntity], work=[190*, 0*]
 14: 0x0B8A [0x1C] WAIT(240* ticks)
 15: 0x0B8D [0x2B] Anomaly Expert (ID: 17830191/0x0110112F) [13018*]:
    → "Perfect! Easy as unrrraveling a ball of yarn."
 16: 0x0B94 [0x23] WAIT_FOR_DIALOG_INTERACTION
 17: 0x0B95 [0x66] LOAD_EXT_SCHEDULER_MAIN: Load scheduler "pas0" with entities [EventEntity, EventEntity], work=121*
 18: 0x0BA4 [0x03] Work_Zone[2] = ExtData[1]->WorkLocal[1]
 19: 0x0BA9 [0x03] Work_Zone[3] = ExtData[1]->WorkLocal[27]
 20: 0x0BAE [0x2B] Anomaly Expert (ID: 17830191/0x0110112F) [13019*]:
    → "Here you go--your very own $3. Purrrfect for finding those [fractures/obscured domains]."
 21: 0x0BB5 [0x23] WAIT_FOR_DIALOG_INTERACTION
 22: 0x0BB6 [0x03] Work_Zone[1] = ExtData[1]->WorkLocal[1]
 23: 0x0BBB [0x21] END_EVENT
 24: 0x0BBC [0x00] END_REQSTACK()
```

### Event 6004

#### Metadata

| Field        | Value     |
|--------------|-----------|
| Entrypoint   | 0x0BBD    |
| Data Size    | 481 bytes |
| Instructions | 102       |

```
      00 01 02 03 04 05 06 07  08 09 0A 0B 0C 0D 0E 0F
      -- -- -- -- -- -- -- --  -- -- -- -- -- -- -- --
0BB0:                                         42 4A F0               BJ.
0BC0: FF FF 7F 2F 11 10 01 4A  2F 11 10 01 F0 FF FF 7F  .../...J/.......
0BD0: 6F 76 2F 11 10 01 03 12  00 02 10 03 01 00 03 10  ov/.............
0BE0: 03 02 00 04 10 03 03 00  05 10 03 0F 00 05 80 02  ................
0BF0: 01 00 05 80 01 FA 0B 0B  0F 00 02 02 00 05 80 01  ................
0C00: 05 0C 0B 0F 00 02 03 00  05 80 01 10 0C 0B 0F 00  ................
0C10: 03 02 10 01 00 2B 2F 11  10 01 78 80 23 02 0F 00  .....+/...x.#...
0C20: 05 80 80 28 0C 01 97 0C  02 0F 00 0F 80 80 40 0C  ...(..........@.
0C30: 03 02 10 01 00 49 2F 11  10 01 79 80 23 01 97 0C  .....I/...y.#...
0C40: 02 0F 00 19 80 80 65 0C  03 02 10 01 00 49 2F 11  ......e......I/.
0C50: 10 01 79 80 23 03 02 10  02 00 49 2F 11 10 01 79  ..y.#.....I/...y
0C60: 80 23 01 97 0C 02 0F 00  1A 80 80 97 0C 03 02 10  .#..............
0C70: 01 00 49 2F 11 10 01 79  80 23 03 02 10 02 00 49  ..I/...y.#.....I
0C80: 2F 11 10 01 79 80 23 03  02 10 03 00 49 2F 11 10  /...y.#.....I/..
0C90: 01 79 80 23 01 97 0C 49  2F 11 10 01 7A 80 23 3A  .y.#...I/...z.#:
0CA0: F8 FF FF 7F 00 00 02 00  00 7B 80 05 B6 0C 08 00  .........{......
0CB0: 00 7B 80 01 C8 0C 07 00  00 7B 80 02 00 00 7C 80  .{.......{....|.
0CC0: 02 C8 0C 08 00 00 7C 80  4B 2F 11 10 01 00 00 6F  ......|.K/.....o
0CD0: 76 2F 11 10 01 6E F8 FF  FF 7F 7D 80 99 F8 FF FF  v/...n....}.....
0CE0: 7F 2B 2F 11 10 01 7E 80  23 4A 2F 11 10 01 F0 FF  .+/...~.#J/.....
0CF0: FF 7F 6F 76 2F 11 10 01  03 02 10 12 00 2B 2F 11  ..ov/........+/.
0D00: 10 01 7F 80 23 02 0F 00  05 80 80 10 0D 01 7F 0D  ....#...........
0D10: 02 0F 00 0F 80 80 28 0D  03 02 10 01 00 49 2F 11  ......(......I/.
0D20: 10 01 80 80 23 01 7F 0D  02 0F 00 19 80 80 4D 0D  ....#.........M.
0D30: 03 02 10 01 00 49 2F 11  10 01 80 80 23 03 02 10  .....I/.....#...
0D40: 02 00 49 2F 11 10 01 80  80 23 01 7F 0D 02 0F 00  ..I/.....#......
0D50: 1A 80 80 7F 0D 03 02 10  01 00 49 2F 11 10 01 80  ..........I/....
0D60: 80 23 03 02 10 02 00 49  2F 11 10 01 80 80 23 03  .#.....I/.....#.
0D70: 02 10 03 00 49 2F 11 10  01 80 80 23 01 7F 0D 49  ....I/.....#...I
0D80: 2F 11 10 01 81 80 23 2B  2F 11 10 01 82 80 23 2B  /.....#+/.....#+
0D90: 2F 11 10 01 83 80 23 03  01 10 01 00 21 00        /.....#.....!.  
```

#### Opcodes

```
  0: 0x0BBD [0x42] SET_CLI_EVENT_CANCEL_DATA()
  1: 0x0BBE [0x4A] LocalPlayer looks at Anomaly Expert (ID: 17830191/0x0110112F)
  2: 0x0BC7 [0x4A] Anomaly Expert (ID: 17830191/0x0110112F) looks at LocalPlayer
  3: 0x0BD0 [0x6F] WAIT_FRAME_DELAY: Yield until WaitTime reaches zero
  4: 0x0BD1 [0x76] CHECK_ENTITY_RENDER_FLAGS: Wait until Anomaly Expert (ID: 17830191/0x0110112F) Render.Flags0 and Render.Flags3 conditions are met
  5: 0x0BD6 [0x03] ExtData[1]->WorkLocal[18] = Work_Zone[2]
  6: 0x0BDB [0x03] ExtData[1]->WorkLocal[1] = Work_Zone[3]
  7: 0x0BE0 [0x03] ExtData[1]->WorkLocal[2] = Work_Zone[4]
  8: 0x0BE5 [0x03] ExtData[1]->WorkLocal[3] = Work_Zone[5]
  9: 0x0BEA [0x03] ExtData[1]->WorkLocal[15] = 0*
 10: 0x0BEF [0x02] IF !(ExtData[1]->WorkLocal[1] == 0*) GOTO 0x0BFA
 11: 0x0BF7 [0x0B] ExtData[1]->WorkLocal[15]++
 12: 0x0BFA [0x02] IF !(ExtData[1]->WorkLocal[2] == 0*) GOTO 0x0C05
 13: 0x0C02 [0x0B] ExtData[1]->WorkLocal[15]++
 14: 0x0C05 [0x02] IF !(ExtData[1]->WorkLocal[3] == 0*) GOTO 0x0C10
 15: 0x0C0D [0x0B] ExtData[1]->WorkLocal[15]++
 16: 0x0C10 [0x03] Work_Zone[2] = ExtData[1]->WorkLocal[1]
 17: 0x0C15 [0x2B] Anomaly Expert (ID: 17830191/0x0110112F) [13021*]:
    → "What's this now? You want me to attach your:"
 18: 0x0C1C [0x23] WAIT_FOR_DIALOG_INTERACTION
 19: 0x0C1D [0x02] IF !(ExtData[1]->WorkLocal[15] == 0*) GOTO 0x0C28
 20: 0x0C25 [0x01] GOTO 0x0C97
 21: 0x0C28 [0x02] IF !(ExtData[1]->WorkLocal[15] == 1*) GOTO 0x0C40
 22: 0x0C30 [0x03] Work_Zone[2] = ExtData[1]->WorkLocal[1]
 23: 0x0C35 [0x49] Anomaly Expert (ID: 17830191/0x0110112F) (No speaker name) [13022*]:
 24: 0x0C3C [0x23] WAIT_FOR_DIALOG_INTERACTION
 25: 0x0C3D [0x01] GOTO 0x0C97
 26: 0x0C40 [0x02] IF !(ExtData[1]->WorkLocal[15] == 2*) GOTO 0x0C65
 27: 0x0C48 [0x03] Work_Zone[2] = ExtData[1]->WorkLocal[1]
 28: 0x0C4D [0x49] Anomaly Expert (ID: 17830191/0x0110112F) (No speaker name) [13022*]:
 29: 0x0C54 [0x23] WAIT_FOR_DIALOG_INTERACTION
 30: 0x0C55 [0x03] Work_Zone[2] = ExtData[1]->WorkLocal[2]
 31: 0x0C5A [0x49] Anomaly Expert (ID: 17830191/0x0110112F) (No speaker name) [13022*]:
 32: 0x0C61 [0x23] WAIT_FOR_DIALOG_INTERACTION
 33: 0x0C62 [0x01] GOTO 0x0C97
 34: 0x0C65 [0x02] IF !(ExtData[1]->WorkLocal[15] == 3*) GOTO 0x0C97
 35: 0x0C6D [0x03] Work_Zone[2] = ExtData[1]->WorkLocal[1]
 36: 0x0C72 [0x49] Anomaly Expert (ID: 17830191/0x0110112F) (No speaker name) [13022*]:
 37: 0x0C79 [0x23] WAIT_FOR_DIALOG_INTERACTION
 38: 0x0C7A [0x03] Work_Zone[2] = ExtData[1]->WorkLocal[2]
 39: 0x0C7F [0x49] Anomaly Expert (ID: 17830191/0x0110112F) (No speaker name) [13022*]:
 40: 0x0C86 [0x23] WAIT_FOR_DIALOG_INTERACTION
 41: 0x0C87 [0x03] Work_Zone[2] = ExtData[1]->WorkLocal[3]
 42: 0x0C8C [0x49] Anomaly Expert (ID: 17830191/0x0110112F) (No speaker name) [13022*]:
 43: 0x0C93 [0x23] WAIT_FOR_DIALOG_INTERACTION
 44: 0x0C94 [0x01] GOTO 0x0C97

SUBROUTINE_0C97:
 45: 0x0C97 [0x49] Anomaly Expert (ID: 17830191/0x0110112F) (No speaker name) [13023*]:
 46: 0x0C9E [0x23] WAIT_FOR_DIALOG_INTERACTION
 47: 0x0C9F [0x3A] CONVERT_YAW_TO_BYTE(entity=EventEntity, result_destination=ExtData[1]->WorkLocal[0])
 48: 0x0CA6 [0x02] IF !(ExtData[1]->WorkLocal[0] > 2048*) GOTO 0x0CB6
 49: 0x0CAE [0x08] ExtData[1]->WorkLocal[0] -= 2048*
 50: 0x0CB3 [0x01] GOTO 0x0CC8
 51: 0x0CB6 [0x07] ExtData[1]->WorkLocal[0] += 2048*
 52: 0x0CBB [0x02] IF !(ExtData[1]->WorkLocal[0] <= 4095*) GOTO 0x0CC8
 53: 0x0CC3 [0x08] ExtData[1]->WorkLocal[0] -= 4095*

SUBROUTINE_0CC8:
 54: 0x0CC8 [0x4B] UPDATE_ENTITY_YAW(entity=Anomaly Expert (ID: 17830191/0x0110112F), yaw=ExtData[1]->WorkLocal[0])
 55: 0x0CCF [0x6F] WAIT_FRAME_DELAY: Yield until WaitTime reaches zero
 56: 0x0CD0 [0x76] CHECK_ENTITY_RENDER_FLAGS: Wait until Anomaly Expert (ID: 17830191/0x0110112F) Render.Flags0 and Render.Flags3 conditions are met
 57: 0x0CD5 [0x6E] EventEntity uses emote 25*
 58: 0x0CDC [0x99] Wait for EventEntity animation to complete
 59: 0x0CE1 [0x2B] Anomaly Expert (ID: 17830191/0x0110112F) [13024*]:
    → "Grrraaaaaah!"
 60: 0x0CE8 [0x23] WAIT_FOR_DIALOG_INTERACTION
 61: 0x0CE9 [0x4A] Anomaly Expert (ID: 17830191/0x0110112F) looks at LocalPlayer
 62: 0x0CF2 [0x6F] WAIT_FRAME_DELAY: Yield until WaitTime reaches zero
 63: 0x0CF3 [0x76] CHECK_ENTITY_RENDER_FLAGS: Wait until Anomaly Expert (ID: 17830191/0x0110112F) Render.Flags0 and Render.Flags3 conditions are met
 64: 0x0CF8 [0x03] Work_Zone[2] = ExtData[1]->WorkLocal[18]
 65: 0x0CFD [0x2B] Anomaly Expert (ID: 17830191/0x0110112F) [13025*]:
    → "I was grrracious enough to attach the following to your $3:"
 66: 0x0D04 [0x23] WAIT_FOR_DIALOG_INTERACTION
 67: 0x0D05 [0x02] IF !(ExtData[1]->WorkLocal[15] == 0*) GOTO 0x0D10
 68: 0x0D0D [0x01] GOTO 0x0D7F
 69: 0x0D10 [0x02] IF !(ExtData[1]->WorkLocal[15] == 1*) GOTO 0x0D28
 70: 0x0D18 [0x03] Work_Zone[2] = ExtData[1]->WorkLocal[1]
 71: 0x0D1D [0x49] Anomaly Expert (ID: 17830191/0x0110112F) (No speaker name) [13026*]:
 72: 0x0D24 [0x23] WAIT_FOR_DIALOG_INTERACTION
 73: 0x0D25 [0x01] GOTO 0x0D7F
 74: 0x0D28 [0x02] IF !(ExtData[1]->WorkLocal[15] == 2*) GOTO 0x0D4D
 75: 0x0D30 [0x03] Work_Zone[2] = ExtData[1]->WorkLocal[1]
 76: 0x0D35 [0x49] Anomaly Expert (ID: 17830191/0x0110112F) (No speaker name) [13026*]:
 77: 0x0D3C [0x23] WAIT_FOR_DIALOG_INTERACTION
 78: 0x0D3D [0x03] Work_Zone[2] = ExtData[1]->WorkLocal[2]
 79: 0x0D42 [0x49] Anomaly Expert (ID: 17830191/0x0110112F) (No speaker name) [13026*]:
 80: 0x0D49 [0x23] WAIT_FOR_DIALOG_INTERACTION
 81: 0x0D4A [0x01] GOTO 0x0D7F
 82: 0x0D4D [0x02] IF !(ExtData[1]->WorkLocal[15] == 3*) GOTO 0x0D7F
 83: 0x0D55 [0x03] Work_Zone[2] = ExtData[1]->WorkLocal[1]
 84: 0x0D5A [0x49] Anomaly Expert (ID: 17830191/0x0110112F) (No speaker name) [13026*]:
 85: 0x0D61 [0x23] WAIT_FOR_DIALOG_INTERACTION
 86: 0x0D62 [0x03] Work_Zone[2] = ExtData[1]->WorkLocal[2]
 87: 0x0D67 [0x49] Anomaly Expert (ID: 17830191/0x0110112F) (No speaker name) [13026*]:
 88: 0x0D6E [0x23] WAIT_FOR_DIALOG_INTERACTION
 89: 0x0D6F [0x03] Work_Zone[2] = ExtData[1]->WorkLocal[3]
 90: 0x0D74 [0x49] Anomaly Expert (ID: 17830191/0x0110112F) (No speaker name) [13026*]:
 91: 0x0D7B [0x23] WAIT_FOR_DIALOG_INTERACTION
 92: 0x0D7C [0x01] GOTO 0x0D7F

SUBROUTINE_0D7F:
 93: 0x0D7F [0x49] Anomaly Expert (ID: 17830191/0x0110112F) (No speaker name) [13027*]:
 94: 0x0D86 [0x23] WAIT_FOR_DIALOG_INTERACTION
 95: 0x0D87 [0x2B] Anomaly Expert (ID: 17830191/0x0110112F) [13028*]:
    → "What? Do I have some catnip on my face?"
 96: 0x0D8E [0x23] WAIT_FOR_DIALOG_INTERACTION
 97: 0x0D8F [0x2B] Anomaly Expert (ID: 17830191/0x0110112F) [13029*]:
    → "Anyway, herrre you go."
 98: 0x0D96 [0x23] WAIT_FOR_DIALOG_INTERACTION
 99: 0x0D97 [0x03] Work_Zone[1] = ExtData[1]->WorkLocal[1]
100: 0x0D9C [0x21] END_EVENT
101: 0x0D9D [0x00] END_REQSTACK()
```

### Event 6005

#### Metadata

| Field        | Value     |
|--------------|-----------|
| Entrypoint   | 0x0D9E    |
| Data Size    | 138 bytes |
| Instructions | 30        |

```
      00 01 02 03 04 05 06 07  08 09 0A 0B 0C 0D 0E 0F
      -- -- -- -- -- -- -- --  -- -- -- -- -- -- -- --
0D90:                                            42 03                B.
0DA0: 00 00 02 10 03 02 10 00  00 4A F0 FF FF 7F 2F 11  .........J..../.
0DB0: 10 01 4A 2F 11 10 01 F0  FF FF 7F 6F 76 2F 11 10  ..J/.......ov/..
0DC0: 01 6E F8 FF FF 7F 84 80  99 F8 FF FF 7F 2B 2F 11  .n...........+/.
0DD0: 10 01 85 80 23 6E F8 FF  FF 7F 86 80 99 F8 FF FF  ....#n..........
0DE0: 7F 2B 2F 11 10 01 87 80  23 2B 2F 11 10 01 88 80  .+/.....#+/.....
0DF0: 23 2B 2F 11 10 01 89 80  23 6E F8 FF FF 7F 16 80  #+/.....#n......
0E00: 99 F8 FF FF 7F 2B 2F 11  10 01 8A 80 23 6E F8 FF  .....+/.....#n..
0E10: FF 7F 86 80 99 F8 FF FF  7F 2B 2F 11 10 01 8B 80  .........+/.....
0E20: 23 03 01 10 00 00 21 00                           #.....!.        
```

#### Opcodes

```
  0: 0x0D9E [0x42] SET_CLI_EVENT_CANCEL_DATA()
  1: 0x0D9F [0x03] ExtData[1]->WorkLocal[0] = Work_Zone[2]
  2: 0x0DA4 [0x03] Work_Zone[2] = ExtData[1]->WorkLocal[0]
  3: 0x0DA9 [0x4A] LocalPlayer looks at Anomaly Expert (ID: 17830191/0x0110112F)
  4: 0x0DB2 [0x4A] Anomaly Expert (ID: 17830191/0x0110112F) looks at LocalPlayer
  5: 0x0DBB [0x6F] WAIT_FRAME_DELAY: Yield until WaitTime reaches zero
  6: 0x0DBC [0x76] CHECK_ENTITY_RENDER_FLAGS: Wait until Anomaly Expert (ID: 17830191/0x0110112F) Render.Flags0 and Render.Flags3 conditions are met
  7: 0x0DC1 [0x6E] EventEntity uses emote 21*
  8: 0x0DC8 [0x99] Wait for EventEntity animation to complete
  9: 0x0DCD [0x2B] Anomaly Expert (ID: 17830191/0x0110112F) [13032*]:
    → "You can't be serious... 6? H-how could a nitwit such as you possibly have...?"
 10: 0x0DD4 [0x23] WAIT_FOR_DIALOG_INTERACTION
 11: 0x0DD5 [0x6E] EventEntity uses emote 29*
 12: 0x0DDC [0x99] Wait for EventEntity animation to complete
 13: 0x0DE1 [0x2B] Anomaly Expert (ID: 17830191/0x0110112F) [13033*]:
    → "I must say that you've surrrpassed my expectations. A nicer person might congrrratulate you."
 14: 0x0DE8 [0x23] WAIT_FOR_DIALOG_INTERACTION
 15: 0x0DE9 [0x2B] Anomaly Expert (ID: 17830191/0x0110112F) [13034*]:
    → "You're "worthy" of the moniker "adventurerrr"...or was it "pioneer" now?"
 16: 0x0DF0 [0x23] WAIT_FOR_DIALOG_INTERACTION
 17: 0x0DF1 [0x2B] Anomaly Expert (ID: 17830191/0x0110112F) [13035*]:
    → "If you're feeling lucky, you can try your hand at one of the other fractures. If you did it once, then you might even be able to do it again...against all my expectations."
 18: 0x0DF8 [0x23] WAIT_FOR_DIALOG_INTERACTION
 19: 0x0DF9 [0x6E] EventEntity uses emote 32*
 20: 0x0E00 [0x99] Wait for EventEntity animation to complete
 21: 0x0E05 [0x2B] Anomaly Expert (ID: 17830191/0x0110112F) [13036*]:
    → "(Yes, yes...with such command of the aetherrr, [he/she]...)"
 22: 0x0E0C [0x23] WAIT_FOR_DIALOG_INTERACTION
 23: 0x0E0D [0x6E] EventEntity uses emote 29*
 24: 0x0E14 [0x99] Wait for EventEntity animation to complete
 25: 0x0E19 [0x2B] Anomaly Expert (ID: 17830191/0x0110112F) [13037*]:
    → "H-huh? Those fractures must be wreaking havoc on your ears. I didn't say a damned thing, and I'll rrrake your face if you say otherwise!"
 26: 0x0E20 [0x23] WAIT_FOR_DIALOG_INTERACTION
 27: 0x0E21 [0x03] Work_Zone[1] = ExtData[1]->WorkLocal[0]
 28: 0x0E26 [0x21] END_EVENT
 29: 0x0E27 [0x00] END_REQSTACK()
```

### Event 6006

#### Metadata

| Field        | Value     |
|--------------|-----------|
| Entrypoint   | 0x0E28    |
| Data Size    | 106 bytes |
| Instructions | 24        |

```
      00 01 02 03 04 05 06 07  08 09 0A 0B 0C 0D 0E 0F
      -- -- -- -- -- -- -- --  -- -- -- -- -- -- -- --
0E20:                          42 4A F0 FF FF 7F 2F 11          BJ..../.
0E30: 10 01 4A 2F 11 10 01 F0  FF FF 7F 6F 76 2F 11 10  ..J/.......ov/..
0E40: 01 03 00 00 02 10 03 02  10 00 00 2B 2F 11 10 01  ...........+/...
0E50: 8C 80 23 6E F8 FF FF 7F  86 80 99 F8 FF FF 7F 2B  ..#n...........+
0E60: 2F 11 10 01 8D 80 23 2B  2F 11 10 01 8E 80 23 2B  /.....#+/.....#+
0E70: 2F 11 10 01 8F 80 23 6E  F8 FF FF 7F 90 80 99 F8  /.....#n........
0E80: FF FF 7F 2B 2F 11 10 01  91 80 23 03 01 10 00 00  ...+/.....#.....
0E90: 21 00                                             !.              
```

#### Opcodes

```
  0: 0x0E28 [0x42] SET_CLI_EVENT_CANCEL_DATA()
  1: 0x0E29 [0x4A] LocalPlayer looks at Anomaly Expert (ID: 17830191/0x0110112F)
  2: 0x0E32 [0x4A] Anomaly Expert (ID: 17830191/0x0110112F) looks at LocalPlayer
  3: 0x0E3B [0x6F] WAIT_FRAME_DELAY: Yield until WaitTime reaches zero
  4: 0x0E3C [0x76] CHECK_ENTITY_RENDER_FLAGS: Wait until Anomaly Expert (ID: 17830191/0x0110112F) Render.Flags0 and Render.Flags3 conditions are met
  5: 0x0E41 [0x03] ExtData[1]->WorkLocal[0] = Work_Zone[2]
  6: 0x0E46 [0x03] Work_Zone[2] = ExtData[1]->WorkLocal[0]
  7: 0x0E4B [0x2B] Anomaly Expert (ID: 17830191/0x0110112F) [13038*]:
    → "Look who came crrrawling back in fail... What!? 6!? You did it again!?"
  8: 0x0E52 [0x23] WAIT_FOR_DIALOG_INTERACTION
  9: 0x0E53 [0x6E] EventEntity uses emote 29*
 10: 0x0E5A [0x99] Wait for EventEntity animation to complete
 11: 0x0E5F [0x2B] Anomaly Expert (ID: 17830191/0x0110112F) [13039*]:
    → "How could you possibly have accomplished such a feat, what with those chicken bones you call legs?"
 12: 0x0E66 [0x23] WAIT_FOR_DIALOG_INTERACTION
 13: 0x0E67 [0x2B] Anomaly Expert (ID: 17830191/0x0110112F) [13040*]:
    → "And if that weren't eye-popping enough, those inventorrr folk came barreling over here talking about new items they've discovered in exchange for mweya plasm. Like I care about such things!"
 14: 0x0E6E [0x23] WAIT_FOR_DIALOG_INTERACTION
 15: 0x0E6F [0x2B] Anomaly Expert (ID: 17830191/0x0110112F) [13041*]:
    → "You must be drrripping with the stuff by now, so pay them a visit before they come back to assault my ears with their meaningless drivel."
 16: 0x0E76 [0x23] WAIT_FOR_DIALOG_INTERACTION
 17: 0x0E77 [0x6E] EventEntity uses emote 12*
 18: 0x0E7E [0x99] Wait for EventEntity animation to complete
 19: 0x0E83 [0x2B] Anomaly Expert (ID: 17830191/0x0110112F) [13042*]:
    → "You've come this far--fancy yourself up to the challenge of explorrring the third cave for me, or are you going to Moblin your way out of it?"
 20: 0x0E8A [0x23] WAIT_FOR_DIALOG_INTERACTION
 21: 0x0E8B [0x03] Work_Zone[1] = ExtData[1]->WorkLocal[0]
 22: 0x0E90 [0x21] END_EVENT
 23: 0x0E91 [0x00] END_REQSTACK()
```

### Event 6007

#### Metadata

| Field        | Value     |
|--------------|-----------|
| Entrypoint   | 0x0E92    |
| Data Size    | 183 bytes |
| Instructions | 40        |

```
      00 01 02 03 04 05 06 07  08 09 0A 0B 0C 0D 0E 0F
      -- -- -- -- -- -- -- --  -- -- -- -- -- -- -- --
0E90:       42 4A F0 FF FF 7F  2F 11 10 01 4A 2F 11 10    BJ..../...J/..
0EA0: 01 F0 FF FF 7F 6F 76 2F  11 10 01 03 00 00 02 10  .....ov/........
0EB0: 03 01 00 03 10 03 02 10  00 00 2B 2F 11 10 01 92  ..........+/....
0EC0: 80 23 6E F8 FF FF 7F 09  80 99 F8 FF FF 7F 2B 2F  .#n...........+/
0ED0: 11 10 01 93 80 23 6E F8  FF FF 7F 94 80 99 F8 FF  .....#n.........
0EE0: FF 7F 2B 2F 11 10 01 95  80 23 2B 2F 11 10 01 69  ..+/.....#+/...i
0EF0: 80 23 2B 2F 11 10 01 6A  80 23 02 01 00 05 80 00  .#+/...j.#......
0F00: 0D 0F 2B 2F 11 10 01 6B  80 23 01 42 0F 2B 2F 11  ..+/...k.#.B.+/.
0F10: 10 01 6C 80 23 2B 2F 11  10 01 6D 80 23 66 63 80  ..l.#+/...m.#fc.
0F20: F8 FF FF 7F F8 FF FF 7F  70 61 73 30 03 03 10 1A  ........pas0....
0F30: 80 2B 2F 11 10 01 6E 80  23 03 02 10 01 00 48 6F  .+/...n.#.....Ho
0F40: 80 23 03 01 10 00 00 21  00                       .#.....!.       
```

#### Opcodes

```
  0: 0x0E92 [0x42] SET_CLI_EVENT_CANCEL_DATA()
  1: 0x0E93 [0x4A] LocalPlayer looks at Anomaly Expert (ID: 17830191/0x0110112F)
  2: 0x0E9C [0x4A] Anomaly Expert (ID: 17830191/0x0110112F) looks at LocalPlayer
  3: 0x0EA5 [0x6F] WAIT_FRAME_DELAY: Yield until WaitTime reaches zero
  4: 0x0EA6 [0x76] CHECK_ENTITY_RENDER_FLAGS: Wait until Anomaly Expert (ID: 17830191/0x0110112F) Render.Flags0 and Render.Flags3 conditions are met
  5: 0x0EAB [0x03] ExtData[1]->WorkLocal[0] = Work_Zone[2]
  6: 0x0EB0 [0x03] ExtData[1]->WorkLocal[1] = Work_Zone[3]
  7: 0x0EB5 [0x03] Work_Zone[2] = ExtData[1]->WorkLocal[0]
  8: 0x0EBA [0x2B] Anomaly Expert (ID: 17830191/0x0110112F) [13043*]:
    → "Enough pawing around! Get off your haunches and... Huh? You actually got $6!? Unbelievable!"
  9: 0x0EC1 [0x23] WAIT_FOR_DIALOG_INTERACTION
 10: 0x0EC2 [0x6E] EventEntity uses emote 7*
 11: 0x0EC9 [0x99] Wait for EventEntity animation to complete
 12: 0x0ECE [0x2B] Anomaly Expert (ID: 17830191/0x0110112F) [13044*]:
    → "I chalked the first two times up to serendipity, but to have done it again... Yes, my rrresearch will advance by leaps and bounds!"
 13: 0x0ED5 [0x23] WAIT_FOR_DIALOG_INTERACTION
 14: 0x0ED6 [0x6E] EventEntity uses emote 11*
 15: 0x0EDD [0x99] Wait for EventEntity animation to complete
 16: 0x0EE2 [0x2B] Anomaly Expert (ID: 17830191/0x0110112F) [13045*]:
    → "At first I thought you were so wet behind the earrrs that I could water my plants with your face, but this is something else. You've somehow managed to acquire all three treasures!"
 17: 0x0EE9 [0x23] WAIT_FOR_DIALOG_INTERACTION
 18: 0x0EEA [0x2B] Anomaly Expert (ID: 17830191/0x0110112F) [13046*]:
    → "I suppose I owe you something--a leftoverrr from my machinations. I have no need of it."
 19: 0x0EF1 [0x23] WAIT_FOR_DIALOG_INTERACTION
 20: 0x0EF2 [0x2B] Anomaly Expert (ID: 17830191/0x0110112F) [13047*]:
    → "Did I say "machinations"? No, I don't believe I did, and I'll rrrake your face if you say otherwise!"
 21: 0x0EF9 [0x23] WAIT_FOR_DIALOG_INTERACTION
 22: 0x0EFA [0x02] IF !(ExtData[1]->WorkLocal[1] == 0*) GOTO 0x0F0D
 23: 0x0F02 [0x2B] Anomaly Expert (ID: 17830191/0x0110112F) [12981*]:
    → "Oh? Looks like your sack is full. Come back once you've emptied it out.[ As much as I'd like to do it for you, I shouldn't touch something so purrrsonal without permission./]"
 24: 0x0F09 [0x23] WAIT_FOR_DIALOG_INTERACTION
 25: 0x0F0A [0x01] GOTO 0x0F42
 26: 0x0F0D [0x2B] Anomaly Expert (ID: 17830191/0x0110112F) [13048*]:
    → "Let's just reach in the bag and see what it is..."
 27: 0x0F14 [0x23] WAIT_FOR_DIALOG_INTERACTION
 28: 0x0F15 [0x2B] Anomaly Expert (ID: 17830191/0x0110112F) [13049*]:
    → "Yes, isn't this just amazing?"
 29: 0x0F1C [0x23] WAIT_FOR_DIALOG_INTERACTION
 30: 0x0F1D [0x66] LOAD_EXT_SCHEDULER_MAIN: Load scheduler "pas0" with entities [EventEntity, EventEntity], work=121*
 31: 0x0F2C [0x03] Work_Zone[3] = 3*
 32: 0x0F31 [0x2B] Anomaly Expert (ID: 17830191/0x0110112F) [13050*]:
    → "You've prrroven far more useful than I imagined. If you bring me $1 more treasures I'm sure I can find something else to give you. Just be quicker on the uptake next time!"
 33: 0x0F38 [0x23] WAIT_FOR_DIALOG_INTERACTION
 34: 0x0F39 [0x03] Work_Zone[2] = ExtData[1]->WorkLocal[1]
 35: 0x0F3E [0x48] [System] [6391*]:
    → "Obtained: #."
 36: 0x0F41 [0x23] WAIT_FOR_DIALOG_INTERACTION

SUBROUTINE_0F42:
 37: 0x0F42 [0x03] Work_Zone[1] = ExtData[1]->WorkLocal[0]
 38: 0x0F47 [0x21] END_EVENT
 39: 0x0F48 [0x00] END_REQSTACK()
```

### Event 6008

#### Metadata

| Field        | Value     |
|--------------|-----------|
| Entrypoint   | 0x0F49    |
| Data Size    | 102 bytes |
| Instructions | 22        |

```
      00 01 02 03 04 05 06 07  08 09 0A 0B 0C 0D 0E 0F
      -- -- -- -- -- -- -- --  -- -- -- -- -- -- -- --
0F40:                             42 03 00 00 02 10 03           B......
0F50: 02 10 00 00 4A F0 FF FF  7F 2F 11 10 01 4A 2F 11  ....J..../...J/.
0F60: 10 01 F0 FF FF 7F 6F 76  2F 11 10 01 6E F8 FF FF  ......ov/...n...
0F70: 7F 84 80 99 F8 FF FF 7F  2B 2F 11 10 01 96 80 23  ........+/.....#
0F80: 6E F8 FF FF 7F 86 80 99  F8 FF FF 7F 2B 2F 11 10  n...........+/..
0F90: 01 97 80 23 6E F8 FF FF  7F 90 80 99 F8 FF FF 7F  ...#n...........
0FA0: 2B 2F 11 10 01 98 80 23  03 01 10 00 00 21 00     +/.....#.....!. 
```

#### Opcodes

```
  0: 0x0F49 [0x42] SET_CLI_EVENT_CANCEL_DATA()
  1: 0x0F4A [0x03] ExtData[1]->WorkLocal[0] = Work_Zone[2]
  2: 0x0F4F [0x03] Work_Zone[2] = ExtData[1]->WorkLocal[0]
  3: 0x0F54 [0x4A] LocalPlayer looks at Anomaly Expert (ID: 17830191/0x0110112F)
  4: 0x0F5D [0x4A] Anomaly Expert (ID: 17830191/0x0110112F) looks at LocalPlayer
  5: 0x0F66 [0x6F] WAIT_FRAME_DELAY: Yield until WaitTime reaches zero
