# 17830056

## Common Data

| Field            | Value                     |
|------------------|---------------------------|
| Zone             | Eastern Adoulin (ID: 257) |
| Block Size       | 928 bytes                 |
| Total Events     | 29                        |
| References Count | 60                        |

## List of Events

| Event ID                   | Entrypoint   |   Size |   Instructions |
|----------------------------|--------------|--------|----------------|
| [65535](#event-65535)      | 0x0000       |      1 |              1 |
| [1511](#event-1511)        | 0x0001       |     21 |              2 |
| [65535.1](#event-655351)   | 0x0016       |     21 |              2 |
| [90](#event-90)            | 0x002B       |      1 |              1 |
| [65535.2](#event-655352)   | 0x002C       |     45 |              4 |
| [65535.3](#event-655353)   | 0x0059       |     25 |              3 |
| [65535.4](#event-655354)   | 0x0072       |     22 |              3 |
| [91](#event-91)            | 0x0088       |      1 |              1 |
| [65535.5](#event-655355)   | 0x0089       |     30 |              3 |
| [65535.6](#event-655356)   | 0x00A7       |     24 |              3 |
| [65535.7](#event-655357)   | 0x00BF       |     14 |              4 |
| [65535.8](#event-655358)   | 0x00CD       |     24 |              6 |
| [65535.9](#event-655359)   | 0x00E5       |     34 |              8 |
| [92](#event-92)            | 0x0107       |      1 |              1 |
| [65535.10](#event-6553510) | 0x0108       |     45 |              4 |
| [65535.11](#event-6553511) | 0x0135       |     14 |              4 |
| [65535.12](#event-6553512) | 0x0143       |     14 |              4 |
| [65535.13](#event-6553513) | 0x0151       |     26 |              7 |
| [65535.14](#event-6553514) | 0x016B       |     16 |              2 |
| [65535.15](#event-6553515) | 0x017B       |     14 |              2 |
| [65535.16](#event-6553516) | 0x0189       |     19 |              2 |
| [65535.17](#event-6553517) | 0x019C       |     15 |              2 |
| [133](#event-133)          | 0x01AB       |      1 |              1 |
| [65535.18](#event-6553518) | 0x01AC       |     21 |              2 |
| [65535.19](#event-6553519) | 0x01C1       |     21 |              2 |
| [65535.20](#event-6553520) | 0x01D6       |     21 |              2 |
| [65535.21](#event-6553521) | 0x01EB       |     21 |              2 |
| [65535.22](#event-6553522) | 0x0200       |     21 |              2 |
| [65535.23](#event-6553523) | 0x0215       |     21 |              2 |

## DAT References (imed_data)

|   Index | Hex Value   |   Dec Value |
|---------|-------------|-------------|
|       0 | 0x0002      |           2 |
|       1 | 0x000D      |          13 |
|       2 | 0x00B5      |         181 |
|       3 | 0x0046      |          70 |
|       4 | 0x0011      |          17 |
|       5 | 0x0067      |         103 |
|       6 | 0x0000      |           0 |
|       7 | 0x0001      |           1 |
|       8 | 0x0156      |         342 |
|       9 | 0x0140      |         320 |
|      10 | 0x00EF      |         239 |
|      11 | 0x0008      |           8 |
|      12 | 0x000A      |          10 |
|      13 | 0xFFFE4472  |  4294853746 |
|      14 | 0x545B      |       21595 |
|      15 | 0xFFFFFD4D  |  4294966605 |
|      16 | 0x0400      |        1024 |
|      17 | 0x0003      |           3 |
|      18 | 0x000F      |          15 |
|      19 | 0x003D      |          61 |
|      20 | 0xFFFE899E  |  4294871454 |
|      21 | 0x274D      |       10061 |
|      22 | 0xFFFFFD77  |  4294966647 |
|      23 | 0x0028      |          40 |
|      24 | 0xFFFEB69D  |  4294882973 |
|      25 | 0x2267      |        8807 |
|      26 | 0xFFFFFF6C  |  4294967148 |
|      27 | 0xFFFEC703  |  4294887171 |
|      28 | 0x08F0      |        2288 |
|      29 | 0x0004      |           4 |
|      30 | 0x0039      |          57 |
|      31 | 0x008F      |         143 |
|      32 | 0x10CF6     |       68854 |
|      33 | 0x286E      |       10350 |
|      34 | 0xFFFF632C  |  4294927148 |
|      35 | 0x10D0D     |       68877 |
|      36 | 0x1570      |        5488 |
|      37 | 0x11031     |       69681 |
|      38 | 0x103C      |        4156 |
|      39 | 0x1102B     |       69675 |
|      40 | 0xFFFFD87E  |  4294957182 |
|      41 | 0xFFFF63C0  |  4294927296 |
|      42 | 0x0B54      |        2900 |
|      43 | 0x0005      |           5 |
|      44 | 0x0018      |          24 |
|      45 | 0x0007      |           7 |
|      46 | 0x0149      |         329 |
|      47 | 0x00E1      |         225 |
|      48 | 0x000C      |          12 |
|      49 | 0x00F5      |         245 |
|      50 | 0x0131      |         305 |
|      51 | 0x00A5      |         165 |
|      52 | 0x001F      |          31 |
|      53 | 0x0077      |         119 |
|      54 | 0x0073      |         115 |
|      55 | 0x0074      |         116 |
|      56 | 0x0137      |         311 |
|      57 | 0x0105      |         261 |
|      58 | 0x00BA      |         186 |
|      59 | 0x00AF      |         175 |

## Events

### Event 65535

#### Metadata

| Field        | Value   |
|--------------|---------|
| Entrypoint   | 0x0000  |
| Data Size    | 1 bytes |
| Instructions | 1       |

```
      00 01 02 03 04 05 06 07  08 09 0A 0B 0C 0D 0E 0F
      -- -- -- -- -- -- -- --  -- -- -- -- -- -- -- --
0000: 00                                                .               
```

#### Opcodes

```
  0: 0x0000 [0x00] END_REQSTACK()
```

### Event 1511

#### Metadata

| Field        | Value    |
|--------------|----------|
| Entrypoint   | 0x0001   |
| Data Size    | 21 bytes |
| Instructions | 2        |

```
      00 01 02 03 04 05 06 07  08 09 0A 0B 0C 0D 0E 0F
      -- -- -- -- -- -- -- --  -- -- -- -- -- -- -- --
0000:    B6 0B 00 80 01 80 02  80 03 80 04 80 05 80 05   ...............
0010: 80 06 80 06 80 00                                 ......          
```

#### Opcodes

```
  0: 0x0001 [0xB6] ENTITY_APPEARANCE_HANDLER(case=Full entity look, race=2*, hair=13*, head=181*, body=70*, hands=17*, legs=103*, feet=103*, main=0*, sub=0*)
  1: 0x0015 [0x00] END_REQSTACK()
```

### Event 65535.1

#### Metadata

| Field        | Value    |
|--------------|----------|
| Entrypoint   | 0x0016   |
| Data Size    | 21 bytes |
| Instructions | 2        |

```
      00 01 02 03 04 05 06 07  08 09 0A 0B 0C 0D 0E 0F
      -- -- -- -- -- -- -- --  -- -- -- -- -- -- -- --
0010:                   B6 0B  07 80 06 80 06 80 06 80        ..........
0020: 06 80 06 80 06 80 06 80  06 80 00                 ...........     
```

#### Opcodes

```
  0: 0x0016 [0xB6] ENTITY_APPEARANCE_HANDLER(case=Full entity look, race=1*, hair=0*, head=0*, body=0*, hands=0*, legs=0*, feet=0*, main=0*, sub=0*)
  1: 0x002A [0x00] END_REQSTACK()
```

### Event 90

#### Metadata

| Field        | Value   |
|--------------|---------|
| Entrypoint   | 0x002B  |
| Data Size    | 1 bytes |
| Instructions | 1       |

```
      00 01 02 03 04 05 06 07  08 09 0A 0B 0C 0D 0E 0F
      -- -- -- -- -- -- -- --  -- -- -- -- -- -- -- --
0020:                                   00                         .    
```

#### Opcodes

```
  0: 0x002B [0x00] END_REQSTACK()
```

### Event 65535.2

#### Metadata

| Field        | Value    |
|--------------|----------|
| Entrypoint   | 0x002C   |
| Data Size    | 45 bytes |
| Instructions | 4        |

```
      00 01 02 03 04 05 06 07  08 09 0A 0B 0C 0D 0E 0F
      -- -- -- -- -- -- -- --  -- -- -- -- -- -- -- --
0020:                                      B6 0B 07 80              ....
0030: 00 80 08 80 08 80 09 80  08 80 0A 80 06 80 06 80  ................
0040: B4 00 00 00 56 61 73 74  72 61 6E 00 00 00 00 00  ....Vastran.....
0050: 00 00 00 00 B5 00 00 00  00                       .........       
```

#### Opcodes

```
  0: 0x002C [0xB6] ENTITY_APPEARANCE_HANDLER(case=Full entity look, race=1*, hair=2*, head=342*, body=342*, hands=320*, legs=342*, feet=239*, main=0*, sub=0*)
  1: 0x0040 [0xB4] UI_WINDOW_STRING_HANDLER(case=0x00 - Copy string from opcode, work_offset=ExtData[1]->WorkLocal[0], string="Vastran")
  2: 0x0054 [0xB5] SET_EVENT_ENTITY_NAME: Change EventEntity name to ExtData[1]->WorkLocal[0]
  3: 0x0058 [0x00] END_REQSTACK()
```

### Event 65535.3

#### Metadata

| Field        | Value    |
|--------------|----------|
| Entrypoint   | 0x0059   |
| Data Size    | 25 bytes |
| Instructions | 3        |

```
      00 01 02 03 04 05 06 07  08 09 0A 0B 0C 0D 0E 0F
      -- -- -- -- -- -- -- --  -- -- -- -- -- -- -- --
0050:                             B4 00 00 00 00 00 00           .......
0060: 00 00 00 00 00 00 00 00  00 00 00 00 00 B5 00 00  ................
0070: 00 00                                             ..              
```

#### Opcodes

```
  0: 0x0059 [0xB4] UI_WINDOW_STRING_HANDLER(case=0x00 - Copy string from opcode, work_offset=ExtData[1]->WorkLocal[0], string="")
  1: 0x006D [0xB5] SET_EVENT_ENTITY_NAME: Change EventEntity name to ExtData[1]->WorkLocal[0]
  2: 0x0071 [0x00] END_REQSTACK()
```

### Event 65535.4

#### Metadata

| Field        | Value    |
|--------------|----------|
| Entrypoint   | 0x0072   |
| Data Size    | 22 bytes |
| Instructions | 3        |

```
      00 01 02 03 04 05 06 07  08 09 0A 0B 0C 0D 0E 0F
      -- -- -- -- -- -- -- --  -- -- -- -- -- -- -- --
0070:       B6 0B 07 80 06 80  06 80 06 80 06 80 06 80    ..............
0080: 06 80 06 80 06 80 96 00                           ........        
```

#### Opcodes

```
  0: 0x0072 [0xB6] ENTITY_APPEARANCE_HANDLER(case=Full entity look, race=1*, hair=0*, head=0*, body=0*, hands=0*, legs=0*, feet=0*, main=0*, sub=0*)
  1: 0x0086 [0x96] UNSET_EVENT_NPC: Restore NPC after event (removes event NPC status)
  2: 0x0087 [0x00] END_REQSTACK()
```

### Event 91

#### Metadata

| Field        | Value   |
|--------------|---------|
| Entrypoint   | 0x0088  |
| Data Size    | 1 bytes |
| Instructions | 1       |

```
      00 01 02 03 04 05 06 07  08 09 0A 0B 0C 0D 0E 0F
      -- -- -- -- -- -- -- --  -- -- -- -- -- -- -- --
0080:                          00                               .       
```

#### Opcodes

```
  0: 0x0088 [0x00] END_REQSTACK()
```

### Event 65535.5

#### Metadata

| Field        | Value    |
|--------------|----------|
| Entrypoint   | 0x0089   |
| Data Size    | 30 bytes |
| Instructions | 3        |

```
      00 01 02 03 04 05 06 07  08 09 0A 0B 0C 0D 0E 0F
      -- -- -- -- -- -- -- --  -- -- -- -- -- -- -- --
0080:                             B6 0B 0B 80 0C 80 08           .......
0090: 80 08 80 09 80 08 80 0A  80 06 80 06 80 37 0D 80  .............7..
00A0: 0E 80 0F 80 10 80 00                              .......         
```

#### Opcodes

```
  0: 0x0089 [0xB6] ENTITY_APPEARANCE_HANDLER(case=Full entity look, race=8*, hair=10*, head=342*, body=342*, hands=320*, legs=342*, feet=239*, main=0*, sub=0*)
  1: 0x009D [0x37] UPDATE_EVENT_POSITION_AND_DIR: x=-113.550*, z=21.595*, y=-0.691*, direction=90.0°*
  2: 0x00A6 [0x00] END_REQSTACK()
```

### Event 65535.6

#### Metadata

| Field        | Value    |
|--------------|----------|
| Entrypoint   | 0x00A7   |
| Data Size    | 24 bytes |
| Instructions | 3        |

```
      00 01 02 03 04 05 06 07  08 09 0A 0B 0C 0D 0E 0F
      -- -- -- -- -- -- -- --  -- -- -- -- -- -- -- --
00A0:                      B6  0B 11 80 12 80 06 80 13         .........
00B0: 80 13 80 13 80 13 80 06  80 06 80 95 07 80 00     ............... 
```

#### Opcodes

```
  0: 0x00A7 [0xB6] ENTITY_APPEARANCE_HANDLER(case=Full entity look, race=3*, hair=15*, head=0*, body=61*, hands=61*, legs=61*, feet=61*, main=0*, sub=0*)
  1: 0x00BB [0x95] SETUP_EVENT_NPC: Prepare NPC for event (Render.Flags3 = 1*)
  2: 0x00BE [0x00] END_REQSTACK()
```

### Event 65535.7

#### Metadata

| Field        | Value    |
|--------------|----------|
| Entrypoint   | 0x00BF   |
| Data Size    | 14 bytes |
| Instructions | 4        |

```
      00 01 02 03 04 05 06 07  08 09 0A 0B 0C 0D 0E 0F
      -- -- -- -- -- -- -- --  -- -- -- -- -- -- -- --
00B0:                                               32                 2
00C0: 01 80 1F 00 14 80 15 80  16 80 1F 01 00           .............   
```

#### Opcodes

```
  0: 0x00BF [0x32] ExtData[1]->MainSpeed = 13* * 0.1
  1: 0x00C2 [0x1F] MOVE_ENTITY: EventEntity moves to X=-95.842*, Z=10.061*, Y=-0.649*
  2: 0x00CA [0x1F] MOVE_ENTITY: Update entity position (mode=1)
  3: 0x00CC [0x00] END_REQSTACK()
```

### Event 65535.8

#### Metadata

| Field        | Value    |
|--------------|----------|
| Entrypoint   | 0x00CD   |
| Data Size    | 24 bytes |
| Instructions | 6        |

```
      00 01 02 03 04 05 06 07  08 09 0A 0B 0C 0D 0E 0F
      -- -- -- -- -- -- -- --  -- -- -- -- -- -- -- --
00C0:                                         32 17 80               2..
00D0: 1F 00 18 80 19 80 1A 80  1F 01 1F 00 1B 80 1C 80  ................
00E0: 06 80 1F 01 00                                    .....           
```

#### Opcodes

```
  0: 0x00CD [0x32] ExtData[1]->MainSpeed = 40* * 0.1
  1: 0x00D0 [0x1F] MOVE_ENTITY: EventEntity moves to X=-84.323*, Z=8.807*, Y=-0.148*
  2: 0x00D8 [0x1F] MOVE_ENTITY: Update entity position (mode=1)
  3: 0x00DA [0x1F] MOVE_ENTITY: EventEntity moves to X=-80.125*, Z=2.288*, Y=0.000*
  4: 0x00E2 [0x1F] MOVE_ENTITY: Update entity position (mode=1)
  5: 0x00E4 [0x00] END_REQSTACK()
```

### Event 65535.9

#### Metadata

| Field        | Value    |
|--------------|----------|
| Entrypoint   | 0x00E5   |
| Data Size    | 34 bytes |
| Instructions | 8        |

```
      00 01 02 03 04 05 06 07  08 09 0A 0B 0C 0D 0E 0F
      -- -- -- -- -- -- -- --  -- -- -- -- -- -- -- --
00E0:                32 17 80  1F 00 14 80 15 80 16 80       2..........
00F0: 1F 01 1F 00 18 80 19 80  1A 80 1F 01 1F 00 1B 80  ................
0100: 1C 80 06 80 1F 01 00                              .......         
```

#### Opcodes

```
  0: 0x00E5 [0x32] ExtData[1]->MainSpeed = 40* * 0.1
  1: 0x00E8 [0x1F] MOVE_ENTITY: EventEntity moves to X=-95.842*, Z=10.061*, Y=-0.649*
  2: 0x00F0 [0x1F] MOVE_ENTITY: Update entity position (mode=1)
  3: 0x00F2 [0x1F] MOVE_ENTITY: EventEntity moves to X=-84.323*, Z=8.807*, Y=-0.148*
  4: 0x00FA [0x1F] MOVE_ENTITY: Update entity position (mode=1)
  5: 0x00FC [0x1F] MOVE_ENTITY: EventEntity moves to X=-80.125*, Z=2.288*, Y=0.000*
  6: 0x0104 [0x1F] MOVE_ENTITY: Update entity position (mode=1)
  7: 0x0106 [0x00] END_REQSTACK()
```

### Event 92

#### Metadata

| Field        | Value   |
|--------------|---------|
| Entrypoint   | 0x0107  |
| Data Size    | 1 bytes |
| Instructions | 1       |

```
      00 01 02 03 04 05 06 07  08 09 0A 0B 0C 0D 0E 0F
      -- -- -- -- -- -- -- --  -- -- -- -- -- -- -- --
0100:                      00                                  .        
```

#### Opcodes

```
  0: 0x0107 [0x00] END_REQSTACK()
```

### Event 65535.10

#### Metadata

| Field        | Value    |
|--------------|----------|
| Entrypoint   | 0x0108   |
| Data Size    | 45 bytes |
| Instructions | 4        |

```
      00 01 02 03 04 05 06 07  08 09 0A 0B 0C 0D 0E 0F
      -- -- -- -- -- -- -- --  -- -- -- -- -- -- -- --
0100:                          B6 0B 1D 80 0C 80 1E 80          ........
0110: 1E 80 1F 80 1F 80 1F 80  06 80 06 80 B4 00 00 00  ................
0120: 46 61 75 73 74 6F 69 73  65 00 00 00 00 00 00 00  Faustoise.......
0130: B5 00 00 00 00                                    .....           
```

#### Opcodes

```
  0: 0x0108 [0xB6] ENTITY_APPEARANCE_HANDLER(case=Full entity look, race=4*, hair=10*, head=57*, body=57*, hands=143*, legs=143*, feet=143*, main=0*, sub=0*)
  1: 0x011C [0xB4] UI_WINDOW_STRING_HANDLER(case=0x00 - Copy string from opcode, work_offset=ExtData[1]->WorkLocal[0], string="Faustoise")
  2: 0x0130 [0xB5] SET_EVENT_ENTITY_NAME: Change EventEntity name to ExtData[1]->WorkLocal[0]
  3: 0x0134 [0x00] END_REQSTACK()
```

### Event 65535.11

#### Metadata

| Field        | Value    |
|--------------|----------|
| Entrypoint   | 0x0135   |
| Data Size    | 14 bytes |
| Instructions | 4        |

```
      00 01 02 03 04 05 06 07  08 09 0A 0B 0C 0D 0E 0F
      -- -- -- -- -- -- -- --  -- -- -- -- -- -- -- --
0130:                32 01 80  1F 00 20 80 21 80 22 80       2.... .!.".
0140: 1F 01 00                                          ...             
```

#### Opcodes

```
  0: 0x0135 [0x32] ExtData[1]->MainSpeed = 13* * 0.1
  1: 0x0138 [0x1F] MOVE_ENTITY: EventEntity moves to X=68.854*, Z=10.350*, Y=-40.148*
  2: 0x0140 [0x1F] MOVE_ENTITY: Update entity position (mode=1)
  3: 0x0142 [0x00] END_REQSTACK()
```

### Event 65535.12

#### Metadata

| Field        | Value    |
|--------------|----------|
| Entrypoint   | 0x0143   |
| Data Size    | 14 bytes |
| Instructions | 4        |

```
      00 01 02 03 04 05 06 07  08 09 0A 0B 0C 0D 0E 0F
      -- -- -- -- -- -- -- --  -- -- -- -- -- -- -- --
0140:          32 17 80 1F 00  23 80 24 80 22 80 1F 01     2....#.$."...
0150: 00                                                .               
```

#### Opcodes

```
  0: 0x0143 [0x32] ExtData[1]->MainSpeed = 40* * 0.1
  1: 0x0146 [0x1F] MOVE_ENTITY: EventEntity moves to X=68.877*, Z=5.488*, Y=-40.148*
  2: 0x014E [0x1F] MOVE_ENTITY: Update entity position (mode=1)
  3: 0x0150 [0x00] END_REQSTACK()
```

### Event 65535.13

#### Metadata

| Field        | Value    |
|--------------|----------|
| Entrypoint   | 0x0151   |
| Data Size    | 26 bytes |
| Instructions | 7        |

```
      00 01 02 03 04 05 06 07  08 09 0A 0B 0C 0D 0E 0F
      -- -- -- -- -- -- -- --  -- -- -- -- -- -- -- --
0150:    32 01 80 1F 00 25 80  26 80 22 80 1F 01 1F 00   2....%.&.".....
0160: 27 80 28 80 29 80 1F 01  22 01 00                 '.(.)..."..     
```

#### Opcodes

```
  0: 0x0151 [0x32] ExtData[1]->MainSpeed = 13* * 0.1
  1: 0x0154 [0x1F] MOVE_ENTITY: EventEntity moves to X=69.681*, Z=4.156*, Y=-40.148*
  2: 0x015C [0x1F] MOVE_ENTITY: Update entity position (mode=1)
  3: 0x015E [0x1F] MOVE_ENTITY: EventEntity moves to X=69.675*, Z=-10.114*, Y=-40.000*
  4: 0x0166 [0x1F] MOVE_ENTITY: Update entity position (mode=1)
  5: 0x0168 [0x22] ENTITY_HIDE_FLAG(enabled=0x01)
  6: 0x016A [0x00] END_REQSTACK()
```

### Event 65535.14

#### Metadata

| Field        | Value    |
|--------------|----------|
| Entrypoint   | 0x016B   |
| Data Size    | 16 bytes |
| Instructions | 2        |

```
      00 01 02 03 04 05 06 07  08 09 0A 0B 0C 0D 0E 0F
      -- -- -- -- -- -- -- --  -- -- -- -- -- -- -- --
0160:                                   5B 2A 80 F8 FF             [*...
0170: FF 7F F8 FF FF 7F 75 74  75 30 00                 ......utu0.     
```

#### Opcodes

```
  0: 0x016B [0x5B] LOAD_EXT_SCHEDULER: Load scheduler "utu0" with entities [EventEntity, EventEntity], work=2900*
  1: 0x017A [0x00] END_REQSTACK()
```

### Event 65535.15

#### Metadata

| Field        | Value    |
|--------------|----------|
| Entrypoint   | 0x017B   |
| Data Size    | 14 bytes |
| Instructions | 2        |

```
      00 01 02 03 04 05 06 07  08 09 0A 0B 0C 0D 0E 0F
      -- -- -- -- -- -- -- --  -- -- -- -- -- -- -- --
0170:                                   53 F8 FF FF 7F             S....
0180: F8 FF FF 7F 75 74 75 30  00                       ....utu0.       
```

#### Opcodes

```
  0: 0x017B [0x53] WAIT_SCHEDULER_TASK: Wait for scheduler "utu0" with entities [EventEntity, EventEntity]
  1: 0x0188 [0x00] END_REQSTACK()
```

### Event 65535.16

#### Metadata

| Field        | Value    |
|--------------|----------|
| Entrypoint   | 0x0189   |
| Data Size    | 19 bytes |
| Instructions | 2        |

```
      00 01 02 03 04 05 06 07  08 09 0A 0B 0C 0D 0E 0F
      -- -- -- -- -- -- -- --  -- -- -- -- -- -- -- --
0180:                             5F 05 2A 80 F8 FF FF           _.*....
0190: 7F F8 FF FF 7F 75 74 75  31 03 80 00              .....utu1...    
```

#### Opcodes

```
  0: 0x0189 [0x5F] MULTI_HANDLER_COMPLEX(mode=0x05 - Load ext scheduler with flag (OpCode 0x5B mode 0, flag 1), ref=2900*, entity1=EventEntity, entity2=EventEntity, string="utu1", extra=70*)
  1: 0x019B [0x00] END_REQSTACK()
```

### Event 65535.17

#### Metadata

| Field        | Value    |
|--------------|----------|
| Entrypoint   | 0x019C   |
| Data Size    | 15 bytes |
| Instructions | 2        |

```
      00 01 02 03 04 05 06 07  08 09 0A 0B 0C 0D 0E 0F
      -- -- -- -- -- -- -- --  -- -- -- -- -- -- -- --
0190:                                      5F 07 F8 FF              _...
01A0: FF 7F F8 FF FF 7F 75 74  75 31 00                 ......utu1.     
```

#### Opcodes

```
  0: 0x019C [0x5F] MULTI_HANDLER_COMPLEX(mode=0x07 - Wait scheduler task (OpCode 0x53))
  1: 0x01AA [0x00] END_REQSTACK()
```

### Event 133

#### Metadata

| Field        | Value   |
|--------------|---------|
| Entrypoint   | 0x01AB  |
| Data Size    | 1 bytes |
| Instructions | 1       |

```
      00 01 02 03 04 05 06 07  08 09 0A 0B 0C 0D 0E 0F
      -- -- -- -- -- -- -- --  -- -- -- -- -- -- -- --
01A0:                                   00                         .    
```

#### Opcodes

```
  0: 0x01AB [0x00] END_REQSTACK()
```

### Event 65535.18

#### Metadata

| Field        | Value    |
|--------------|----------|
| Entrypoint   | 0x01AC   |
| Data Size    | 21 bytes |
| Instructions | 2        |

```
      00 01 02 03 04 05 06 07  08 09 0A 0B 0C 0D 0E 0F
      -- -- -- -- -- -- -- --  -- -- -- -- -- -- -- --
01A0:                                      B6 0B 2B 80              ..+.
01B0: 0C 80 06 80 2C 80 2C 80  2C 80 2C 80 06 80 06 80  ....,.,.,.,.....
01C0: 00                                                .               
```

#### Opcodes

```
  0: 0x01AC [0xB6] ENTITY_APPEARANCE_HANDLER(case=Full entity look, race=5*, hair=10*, head=0*, body=24*, hands=24*, legs=24*, feet=24*, main=0*, sub=0*)
  1: 0x01C0 [0x00] END_REQSTACK()
```

### Event 65535.19

#### Metadata

| Field        | Value    |
|--------------|----------|
| Entrypoint   | 0x01C1   |
| Data Size    | 21 bytes |
| Instructions | 2        |

```
      00 01 02 03 04 05 06 07  08 09 0A 0B 0C 0D 0E 0F
      -- -- -- -- -- -- -- --  -- -- -- -- -- -- -- --
01C0:    B6 0B 07 80 2D 80 2E  80 09 80 06 80 2F 80 2F   ....-......././
01D0: 80 06 80 06 80 00                                 ......          
```

#### Opcodes

```
  0: 0x01C1 [0xB6] ENTITY_APPEARANCE_HANDLER(case=Full entity look, race=1*, hair=7*, head=329*, body=320*, hands=0*, legs=225*, feet=225*, main=0*, sub=0*)
  1: 0x01D5 [0x00] END_REQSTACK()
```

### Event 65535.20

#### Metadata

| Field        | Value    |
|--------------|----------|
| Entrypoint   | 0x01D6   |
| Data Size    | 21 bytes |
| Instructions | 2        |

```
      00 01 02 03 04 05 06 07  08 09 0A 0B 0C 0D 0E 0F
      -- -- -- -- -- -- -- --  -- -- -- -- -- -- -- --
01D0:                   B6 0B  2D 80 30 80 31 80 32 80        ..-.0.1.2.
01E0: 33 80 32 80 34 80 06 80  06 80 00                 3.2.4......     
```

#### Opcodes

```
  0: 0x01D6 [0xB6] ENTITY_APPEARANCE_HANDLER(case=Full entity look, race=7*, hair=12*, head=245*, body=305*, hands=165*, legs=305*, feet=31*, main=0*, sub=0*)
  1: 0x01EA [0x00] END_REQSTACK()
```

### Event 65535.21

#### Metadata

| Field        | Value    |
|--------------|----------|
| Entrypoint   | 0x01EB   |
| Data Size    | 21 bytes |
| Instructions | 2        |

```
      00 01 02 03 04 05 06 07  08 09 0A 0B 0C 0D 0E 0F
      -- -- -- -- -- -- -- --  -- -- -- -- -- -- -- --
01E0:                                   B6 0B 07 80 2D             ....-
01F0: 80 35 80 36 80 06 80 2C  80 36 80 06 80 06 80 00  .5.6...,.6......
```

#### Opcodes

```
  0: 0x01EB [0xB6] ENTITY_APPEARANCE_HANDLER(case=Full entity look, race=1*, hair=7*, head=119*, body=115*, hands=0*, legs=24*, feet=115*, main=0*, sub=0*)
  1: 0x01FF [0x00] END_REQSTACK()
```

### Event 65535.22

#### Metadata

| Field        | Value    |
|--------------|----------|
| Entrypoint   | 0x0200   |
| Data Size    | 21 bytes |
| Instructions | 2        |

```
      00 01 02 03 04 05 06 07  08 09 0A 0B 0C 0D 0E 0F
      -- -- -- -- -- -- -- --  -- -- -- -- -- -- -- --
0200: B6 0B 2D 80 01 80 37 80  38 80 06 80 38 80 38 80  ..-...7.8...8.8.
0210: 06 80 06 80 00                                    .....           
```

#### Opcodes

```
  0: 0x0200 [0xB6] ENTITY_APPEARANCE_HANDLER(case=Full entity look, race=7*, hair=13*, head=116*, body=311*, hands=0*, legs=311*, feet=311*, main=0*, sub=0*)
  1: 0x0214 [0x00] END_REQSTACK()
```

### Event 65535.23

#### Metadata

| Field        | Value    |
|--------------|----------|
| Entrypoint   | 0x0215   |
| Data Size    | 21 bytes |
| Instructions | 2        |

```
      00 01 02 03 04 05 06 07  08 09 0A 0B 0C 0D 0E 0F
      -- -- -- -- -- -- -- --  -- -- -- -- -- -- -- --
0210:                B6 0B 2D  80 30 80 39 80 3A 80 06       ..-.0.9.:..
0220: 80 12 80 3B 80 06 80 06  80 00                    ...;......      
```

#### Opcodes

```
  0: 0x0215 [0xB6] ENTITY_APPEARANCE_HANDLER(case=Full entity look, race=7*, hair=12*, head=261*, body=186*, hands=0*, legs=15*, feet=175*, main=0*, sub=0*)
  1: 0x0229 [0x00] END_REQSTACK()
```
