# 17830026

## Common Data

| Field            | Value                     |
|------------------|---------------------------|
| Zone             | Eastern Adoulin (ID: 257) |
| Block Size       | 55476 bytes               |
| Total Events     | 12                        |
| References Count | 1154                      |

## List of Events

| Event ID              | Entrypoint   |   Size |   Instructions |
|-----------------------|--------------|--------|----------------|
| [65535](#event-65535) | 0x0000       |      1 |              1 |
| [1533](#event-1533)   | 0x0001       |   8322 |            987 |
| [1534](#event-1534)   | 0x2083       |   3218 |            378 |
| [1536](#event-1536)   | 0x2D15       |   2240 |            267 |
| [1537](#event-1537)   | 0x35D5       |   7142 |            848 |
| [1538](#event-1538)   | 0x51BB       |   2133 |            303 |
| [1548](#event-1548)   | 0x5A10       |   1925 |            281 |
| [1539](#event-1539)   | 0x6195       |    824 |            101 |
| [1547](#event-1547)   | 0x64CD       |   7555 |            902 |
| [1549](#event-1549)   | 0x8250       |  12035 |           1444 |
| [1555](#event-1555)   | 0xB153       |   2531 |            381 |
| [1556](#event-1556)   | 0xBB36       |   2869 |            389 |

## DAT References (imed_data)

|   Index | Hex Value   |   Dec Value |
|---------|-------------|-------------|
|       0 | 0x0093      |         147 |
|       1 | 0x0248      |         584 |
|       2 | 0x00FF      |         255 |
|       3 | 0x0000      |           0 |
|       4 | 0x0001      |           1 |
|       5 | 0x0008      |           8 |
|       6 | 0x5019      |       20505 |
|       7 | 0xFFFFFA25  |  4294965797 |
|       8 | 0x0403      |        1027 |
|       9 | 0xFFFFFFE3  |  4294967267 |
|      10 | 0x3622      |       13858 |
|      11 | 0xFFFFFA24  |  4294965796 |
|      12 | 0x0BBF      |        3007 |
|      13 | 0x089F      |        2207 |
|      14 | 0x30CE      |       12494 |
|      15 | 0x0276      |         630 |
|      16 | 0x000F      |          15 |
|      17 | 0x005A      |          90 |
|      18 | 0x001E      |          30 |
|      19 | 0x23D4      |        9172 |
|      20 | 0x0C91      |        3217 |
|      21 | 0x23D5      |        9173 |
|      22 | 0x23D6      |        9174 |
|      23 | 0x0050      |          80 |
|      24 | 0x0028      |          40 |
|      25 | 0x23D7      |        9175 |
|      26 | 0x0C9F      |        3231 |
|      27 | 0x23D8      |        9176 |
|      28 | 0x23D9      |        9177 |
|      29 | 0x23DA      |        9178 |
|      30 | 0x23DB      |        9179 |
|      31 | 0x0007      |           7 |
|      32 | 0x23DC      |        9180 |
|      33 | 0x23DD      |        9181 |
|      34 | 0x23DE      |        9182 |
|      35 | 0x0CA1      |        3233 |
|      36 | 0x23DF      |        9183 |
|      37 | 0x23E0      |        9184 |
|      38 | 0x23E1      |        9185 |
|      39 | 0x23E2      |        9186 |
|      40 | 0x003C      |          60 |
|      41 | 0xFFFF81CD  |  4294934989 |
|      42 | 0xFFFFC7E9  |  4294952937 |
|      43 | 0xFFFFFE0D  |  4294966797 |
|      44 | 0xFFFF7D65  |  4294933861 |
|      45 | 0xFFFFC47A  |  4294952058 |
|      46 | 0xFFFFFE0C  |  4294966796 |
|      47 | 0x0199      |         409 |
|      48 | 0xFFFF8B9E  |  4294937502 |
|      49 | 0xFFFFC42F  |  4294951983 |
|      50 | 0xFFFF83A3  |  4294935459 |
|      51 | 0xFFFFBFC8  |  4294950856 |
|      52 | 0xFFFF7E06  |  4294934022 |
|      53 | 0xFFFFCE0F  |  4294954511 |
|      54 | 0xFFFF8BAF  |  4294937519 |
|      55 | 0xFFFFCD4A  |  4294954314 |
|      56 | 0xFFFF7936  |  4294932790 |
|      57 | 0xFFFFC058  |  4294951000 |
|      58 | 0xFFFF89D7  |  4294937047 |
|      59 | 0xFFFFBCCE  |  4294950094 |
|      60 | 0x0A8C      |        2700 |
|      61 | 0xFFFFFBE6  |  4294966246 |
|      62 | 0xFFFF805C  |  4294934620 |
|      63 | 0xFFFFD382  |  4294955906 |
|      64 | 0x000D      |          13 |
|      65 | 0xFFFF8555  |  4294935893 |
|      66 | 0xFFFFD02C  |  4294955052 |
|      67 | 0xFFFF884E  |  4294936654 |
|      68 | 0xFFFFD400  |  4294956032 |
|      69 | 0x0E98      |        3736 |
|      70 | 0x2061      |        8289 |
|      71 | 0x0E13      |        3603 |
|      72 | 0x0078      |         120 |
|      73 | 0x0CCC      |        3276 |
|      74 | 0x23E3      |        9187 |
|      75 | 0x0013      |          19 |
|      76 | 0x23E4      |        9188 |
|      77 | 0x0CCF      |        3279 |
|      78 | 0x23E5      |        9189 |
|      79 | 0x23E6      |        9190 |
|      80 | 0x0D0A      |        3338 |
|      81 | 0x23E7      |        9191 |
|      82 | 0x0031      |          49 |
|      83 | 0x23E8      |        9192 |
|      84 | 0x23E9      |        9193 |
|      85 | 0x23EA      |        9194 |
|      86 | 0x23EB      |        9195 |
|      87 | 0x002A      |          42 |
|      88 | 0x23EC      |        9196 |
|      89 | 0x23ED      |        9197 |
|      90 | 0x23EE      |        9198 |
|      91 | 0x23EF      |        9199 |
|      92 | 0x23F0      |        9200 |
|      93 | 0x23F1      |        9201 |
|      94 | 0x23F2      |        9202 |
|      95 | 0x23F3      |        9203 |
|      96 | 0x0005      |           5 |
|      97 | 0x0006      |           6 |
|      98 | 0x23F4      |        9204 |
|      99 | 0x23F5      |        9205 |
|     100 | 0x23F6      |        9206 |
|     101 | 0x23F7      |        9207 |
|     102 | 0x23F8      |        9208 |
|     103 | 0x00B4      |         180 |
|     104 | 0x001D      |          29 |
|     105 | 0x23F9      |        9209 |
|     106 | 0x0096      |         150 |
|     107 | 0x0029      |          41 |
|     108 | 0x23FA      |        9210 |
|     109 | 0x23FB      |        9211 |
|     110 | 0x23FC      |        9212 |
|     111 | 0x23FD      |        9213 |
|     112 | 0x23FE      |        9214 |
|     113 | 0xFFFF01DB  |  4294902235 |
|     114 | 0xFFFFDCB9  |  4294958265 |
|     115 | 0x09C7      |        2503 |
|     116 | 0xFFFFFDDA  |  4294966746 |
|     117 | 0x03E8      |        1000 |
|     118 | 0xFFFF127B  |  4294906491 |
|     119 | 0xFFFFCC41  |  4294954049 |
|     120 | 0x07B0      |        1968 |
|     121 | 0xFFFF0E4C  |  4294905420 |
|     122 | 0xFFFFD3F1  |  4294956017 |
|     123 | 0xFFFF0405  |  4294902789 |
|     124 | 0xFFFFCC60  |  4294954080 |
|     125 | 0x0B2D      |        2861 |
|     126 | 0xFFFF0AE7  |  4294904551 |
|     127 | 0xFFFFD0DD  |  4294955229 |
|     128 | 0xFFFEFECB  |  4294901451 |
|     129 | 0xFFFFD1B9  |  4294955449 |
|     130 | 0x0BE2      |        3042 |
|     131 | 0xFFFEFE60  |  4294901344 |
|     132 | 0xFFFFC513  |  4294952211 |
|     133 | 0x0CB0      |        3248 |
|     134 | 0x0BC3      |        3011 |
|     135 | 0x0CB1      |        3249 |
|     136 | 0x0270      |         624 |
|     137 | 0x00D7      |         215 |
|     138 | 0x23FF      |        9215 |
|     139 | 0x2400      |        9216 |
|     140 | 0xFFFFFF93  |  4294967187 |
|     141 | 0x1126      |        4390 |
|     142 | 0xFFFF0092  |  4294901906 |
|     143 | 0x097E      |        2430 |
|     144 | 0x7FBC      |       32700 |
|     145 | 0x04CE      |        1230 |
|     146 | 0x01F4      |         500 |
|     147 | 0x012C      |         300 |
|     148 | 0x2401      |        9217 |
|     149 | 0x2402      |        9218 |
|     150 | 0x2403      |        9219 |
|     151 | 0x2404      |        9220 |
|     152 | 0x0CBD      |        3261 |
|     153 | 0x2405      |        9221 |
|     154 | 0x2406      |        9222 |
|     155 | 0x2407      |        9223 |
|     156 | 0x2408      |        9224 |
|     157 | 0x2409      |        9225 |
|     158 | 0x240A      |        9226 |
|     159 | 0x240B      |        9227 |
|     160 | 0x240C      |        9228 |
|     161 | 0x240D      |        9229 |
|     162 | 0x240E      |        9230 |
|     163 | 0x0C99      |        3225 |
|     164 | 0x240F      |        9231 |
|     165 | 0xFFFFFF92  |  4294967186 |
|     166 | 0xFFFFDD0A  |  4294958346 |
|     167 | 0xFFFFD788  |  4294956936 |
|     168 | 0x082A      |        2090 |
|     169 | 0x67C0      |       26560 |
|     170 | 0x042E      |        1070 |
|     171 | 0x2410      |        9232 |
|     172 | 0x2411      |        9233 |
|     173 | 0x2412      |        9234 |
|     174 | 0x2413      |        9235 |
|     175 | 0x2414      |        9236 |
|     176 | 0x2415      |        9237 |
|     177 | 0x2416      |        9238 |
|     178 | 0x2417      |        9239 |
|     179 | 0xFFFFFF7E  |  4294967166 |
|     180 | 0x2418      |        9240 |
|     181 | 0x0C93      |        3219 |
|     182 | 0x2419      |        9241 |
|     183 | 0x241A      |        9242 |
|     184 | 0x241B      |        9243 |
|     185 | 0x241C      |        9244 |
|     186 | 0xFFFF2360  |  4294910816 |
|     187 | 0xFFFF56DC  |  4294923996 |
|     188 | 0x07D0      |        2000 |
|     189 | 0xFFFE0DB8  |  4294839736 |
|     190 | 0x241D      |        9245 |
|     191 | 0x241E      |        9246 |
|     192 | 0x241F      |        9247 |
|     193 | 0x2420      |        9248 |
|     194 | 0x2421      |        9249 |
|     195 | 0x2422      |        9250 |
|     196 | 0x2423      |        9251 |
|     197 | 0x2424      |        9252 |
|     198 | 0x2425      |        9253 |
|     199 | 0x2426      |        9254 |
|     200 | 0x2427      |        9255 |
|     201 | 0x2428      |        9256 |
|     202 | 0x2429      |        9257 |
|     203 | 0x242A      |        9258 |
|     204 | 0x242B      |        9259 |
|     205 | 0x0D0B      |        3339 |
|     206 | 0x0DED      |        3565 |
|     207 | 0x242C      |        9260 |
|     208 | 0x242D      |        9261 |
|     209 | 0xFFFF91A9  |  4294939049 |
|     210 | 0xFFFFC7CD  |  4294952909 |
|     211 | 0x1000      |        4096 |
|     212 | 0x00C8      |         200 |
|     213 | 0x00EF      |         239 |
|     214 | 0x242E      |        9262 |
|     215 | 0x242F      |        9263 |
|     216 | 0x2430      |        9264 |
|     217 | 0x2431      |        9265 |
|     218 | 0xFFFF8D22  |  4294937890 |
|     219 | 0xFFFFC7A7  |  4294952871 |
|     220 | 0x2432      |        9266 |
|     221 | 0x2433      |        9267 |
|     222 | 0x2434      |        9268 |
|     223 | 0x2435      |        9269 |
|     224 | 0x2436      |        9270 |
|     225 | 0x2437      |        9271 |
|     226 | 0x2438      |        9272 |
|     227 | 0x2439      |        9273 |
|     228 | 0x243A      |        9274 |
|     229 | 0x02BD      |         701 |
|     230 | 0xFFFF883A  |  4294936634 |
|     231 | 0xFFFFD086  |  4294955142 |
|     232 | 0x01A4      |         420 |
|     233 | 0xFFFF8AB9  |  4294937273 |
|     234 | 0xFFFFCC8B  |  4294954123 |
|     235 | 0x0E52      |        3666 |
|     236 | 0xFFFF6B1F  |  4294929183 |
|     237 | 0xFFFFC98D  |  4294953357 |
|     238 | 0x0279      |         633 |
|     239 | 0x243D      |        9277 |
|     240 | 0x243E      |        9278 |
|     241 | 0x243F      |        9279 |
|     242 | 0x2440      |        9280 |
|     243 | 0x2441      |        9281 |
|     244 | 0x0A29      |        2601 |
|     245 | 0x2442      |        9282 |
|     246 | 0x2443      |        9283 |
|     247 | 0x2444      |        9284 |
|     248 | 0x2445      |        9285 |
|     249 | 0x2446      |        9286 |
|     250 | 0x2447      |        9287 |
|     251 | 0xFFFF809D  |  4294934685 |
|     252 | 0xFFFFCA99  |  4294953625 |
|     253 | 0x2448      |        9288 |
|     254 | 0x2449      |        9289 |
|     255 | 0x244A      |        9290 |
|     256 | 0x244B      |        9291 |
|     257 | 0x244C      |        9292 |
|     258 | 0x244D      |        9293 |
|     259 | 0x244E      |        9294 |
|     260 | 0x244F      |        9295 |
|     261 | 0x2450      |        9296 |
|     262 | 0x2451      |        9297 |
|     263 | 0x2452      |        9298 |
|     264 | 0x2453      |        9299 |
|     265 | 0x2454      |        9300 |
|     266 | 0x2455      |        9301 |
|     267 | 0x2456      |        9302 |
|     268 | 0x2457      |        9303 |
|     269 | 0x2458      |        9304 |
|     270 | 0x2459      |        9305 |
|     271 | 0x245A      |        9306 |
|     272 | 0x245B      |        9307 |
|     273 | 0x0C90      |        3216 |
|     274 | 0x245C      |        9308 |
|     275 | 0x245D      |        9309 |
|     276 | 0x245E      |        9310 |
|     277 | 0x337D      |       13181 |
|     278 | 0x245F      |        9311 |
|     279 | 0x0D8A      |        3466 |
|     280 | 0x0014      |          20 |
|     281 | 0xFFFF8367  |  4294935399 |
|     282 | 0xFFFFC3D0  |  4294951888 |
|     283 | 0x0F85      |        3973 |
|     284 | 0x2460      |        9312 |
|     285 | 0x2461      |        9313 |
|     286 | 0x2462      |        9314 |
|     287 | 0x2463      |        9315 |
|     288 | 0x2464      |        9316 |
|     289 | 0x2465      |        9317 |
|     290 | 0x2466      |        9318 |
|     291 | 0x2467      |        9319 |
|     292 | 0x0024      |          36 |
|     293 | 0x0CA3      |        3235 |
|     294 | 0x2468      |        9320 |
|     295 | 0x2469      |        9321 |
|     296 | 0x246A      |        9322 |
|     297 | 0x246B      |        9323 |
|     298 | 0x5018      |       20504 |
|     299 | 0x0400      |        1024 |
|     300 | 0x2553      |        9555 |
|     301 | 0x2554      |        9556 |
|     302 | 0x2555      |        9557 |
|     303 | 0x0CFD      |        3325 |
|     304 | 0x2556      |        9558 |
|     305 | 0x2557      |        9559 |
|     306 | 0x0016      |          22 |
|     307 | 0x2559      |        9561 |
|     308 | 0x2558      |        9560 |
|     309 | 0x0477      |        1143 |
|     310 | 0x3F5D      |       16221 |
|     311 | 0x0BF4      |        3060 |
|     312 | 0x0CD2      |        3282 |
|     313 | 0x255A      |        9562 |
|     314 | 0x001A      |          26 |
|     315 | 0x15B77     |       88951 |
|     316 | 0xFFFF0720  |  4294903584 |
|     317 | 0xFFFF63C1  |  4294927297 |
|     318 | 0x0F1C      |        3868 |
|     319 | 0x19493     |      103571 |
|     320 | 0xFFFF0724  |  4294903588 |
|     321 | 0xFFFF632C  |  4294927148 |
|     322 | 0x0CDB      |        3291 |
|     323 | 0x188E4     |      100580 |
|     324 | 0xFFFF06AA  |  4294903466 |
|     325 | 0xFFFF632A  |  4294927146 |
|     326 | 0x0800      |        2048 |
|     327 | 0x0CDC      |        3292 |
|     328 | 0x255B      |        9563 |
|     329 | 0x255C      |        9564 |
|     330 | 0x255D      |        9565 |
|     331 | 0x255E      |        9566 |
|     332 | 0x255F      |        9567 |
|     333 | 0x2560      |        9568 |
|     334 | 0x2561      |        9569 |
|     335 | 0x2562      |        9570 |
|     336 | 0x0CDD      |        3293 |
|     337 | 0x2563      |        9571 |
|     338 | 0x2564      |        9572 |
|     339 | 0x2565      |        9573 |
|     340 | 0x2566      |        9574 |
|     341 | 0x2567      |        9575 |
|     342 | 0x2568      |        9576 |
|     343 | 0x2569      |        9577 |
|     344 | 0x256A      |        9578 |
|     345 | 0xFFFF0119  |  4294902041 |
|     346 | 0xFFFFE221  |  4294959649 |
|     347 | 0x0DD0      |        3536 |
|     348 | 0x0CD1      |        3281 |
|     349 | 0x02D5      |         725 |
|     350 | 0x2575      |        9589 |
|     351 | 0x0CD8      |        3288 |
|     352 | 0xFFFF0218  |  4294902296 |
|     353 | 0xFFFFE0C0  |  4294959296 |
|     354 | 0xFFFF090D  |  4294904077 |
|     355 | 0xFFFFD30B  |  4294955787 |
|     356 | 0x0ACD      |        2765 |
|     357 | 0x2576      |        9590 |
|     358 | 0x2577      |        9591 |
|     359 | 0x009F      |         159 |
|     360 | 0x2578      |        9592 |
|     361 | 0x0104      |         260 |
|     362 | 0x2579      |        9593 |
|     363 | 0x257A      |        9594 |
|     364 | 0x257B      |        9595 |
|     365 | 0x257C      |        9596 |
|     366 | 0x0122      |         290 |
|     367 | 0x257D      |        9597 |
|     368 | 0x257E      |        9598 |
|     369 | 0x257F      |        9599 |
|     370 | 0x2580      |        9600 |
|     371 | 0x0DD2      |        3538 |
|     372 | 0x00A0      |         160 |
|     373 | 0x2581      |        9601 |
|     374 | 0x2582      |        9602 |
|     375 | 0x0DD3      |        3539 |
|     376 | 0x00BE      |         190 |
|     377 | 0x2583      |        9603 |
|     378 | 0x0003      |           3 |
|     379 | 0x2584      |        9604 |
|     380 | 0x0002      |           2 |
|     381 | 0x2585      |        9605 |
|     382 | 0x2586      |        9606 |
|     383 | 0x000A      |          10 |
|     384 | 0x2587      |        9607 |
|     385 | 0x2588      |        9608 |
|     386 | 0x0D68      |        3432 |
|     387 | 0x2589      |        9609 |
|     388 | 0x00DC      |         220 |
|     389 | 0x258A      |        9610 |
|     390 | 0x00F4      |         244 |
|     391 | 0x0DD4      |        3540 |
|     392 | 0x015E      |         350 |
|     393 | 0x258B      |        9611 |
|     394 | 0x0D66      |        3430 |
|     395 | 0x258C      |        9612 |
|     396 | 0x00C9      |         201 |
|     397 | 0x258D      |        9613 |
|     398 | 0x0DD5      |        3541 |
|     399 | 0x00AA      |         170 |
|     400 | 0x258E      |        9614 |
|     401 | 0x258F      |        9615 |
|     402 | 0x0042      |          66 |
|     403 | 0x2590      |        9616 |
|     404 | 0x2591      |        9617 |
|     405 | 0x2592      |        9618 |
|     406 | 0x2593      |        9619 |
|     407 | 0x0DD6      |        3542 |
|     408 | 0xFFFF0121  |  4294902049 |
|     409 | 0xFFFFD9F7  |  4294957559 |
|     410 | 0x0AB7      |        2743 |
|     411 | 0x2594      |        9620 |
|     412 | 0x2595      |        9621 |
|     413 | 0x2596      |        9622 |
|     414 | 0x2597      |        9623 |
|     415 | 0x2598      |        9624 |
|     416 | 0x2599      |        9625 |
|     417 | 0x259A      |        9626 |
|     418 | 0x259B      |        9627 |
|     419 | 0x259C      |        9628 |
|     420 | 0x259D      |        9629 |
|     421 | 0x259E      |        9630 |
|     422 | 0x259F      |        9631 |
|     423 | 0x25A0      |        9632 |
|     424 | 0x25A1      |        9633 |
|     425 | 0x25A2      |        9634 |
|     426 | 0x0DD7      |        3543 |
|     427 | 0x0CFC      |        3324 |
|     428 | 0x00F0      |         240 |
|     429 | 0x25A3      |        9635 |
|     430 | 0x25A4      |        9636 |
|     431 | 0x0DD8      |        3544 |
|     432 | 0x25A5      |        9637 |
|     433 | 0x25A6      |        9638 |
|     434 | 0xFFFF05BA  |  4294903226 |
|     435 | 0xFFFFD901  |  4294957313 |
|     436 | 0xFFFF0575  |  4294903157 |
|     437 | 0xFFFFD047  |  4294955079 |
|     438 | 0x0FE4      |        4068 |
|     439 | 0xFFFF0F4D  |  4294905677 |
|     440 | 0xFFFFD093  |  4294955155 |
|     441 | 0x25A7      |        9639 |
|     442 | 0x25A8      |        9640 |
|     443 | 0x007C      |         124 |
|     444 | 0x0C9E      |        3230 |
|     445 | 0x25A9      |        9641 |
|     446 | 0x0CE4      |        3300 |
|     447 | 0x25AA      |        9642 |
|     448 | 0x25AB      |        9643 |
|     449 | 0x0DCF      |        3535 |
|     450 | 0x00FA      |         250 |
|     451 | 0x25AC      |        9644 |
|     452 | 0x25AD      |        9645 |
|     453 | 0x0015      |          21 |
|     454 | 0x25AE      |        9646 |
|     455 | 0x00F2      |         242 |
|     456 | 0x25AF      |        9647 |
|     457 | 0x25B0      |        9648 |
|     458 | 0x007F      |         127 |
|     459 | 0x2371      |        9073 |
|     460 | 0x25B1      |        9649 |
|     461 | 0x0DD9      |        3545 |
|     462 | 0x25B2      |        9650 |
|     463 | 0x25B3      |        9651 |
|     464 | 0x003F      |          63 |
|     465 | 0xFFFF0C41  |  4294904897 |
|     466 | 0xFFFFCFEE  |  4294954990 |
|     467 | 0x09CF      |        2511 |
|     468 | 0xFFFF00B1  |  4294901937 |
|     469 | 0xFFFFDB65  |  4294957925 |
|     470 | 0x0C24      |        3108 |
|     471 | 0xFFFF0229  |  4294902313 |
|     472 | 0xFFFFE27B  |  4294959739 |
|     473 | 0xFFFFFAAB  |  4294965931 |
|     474 | 0x03E5      |         997 |
|     475 | 0x02E3      |         739 |
|     476 | 0x25B6      |        9654 |
|     477 | 0x25B7      |        9655 |
|     478 | 0x0CF7      |        3319 |
|     479 | 0x25B8      |        9656 |
|     480 | 0x25B9      |        9657 |
|     481 | 0x25BA      |        9658 |
|     482 | 0x25BB      |        9659 |
|     483 | 0x6ECF      |       28367 |
|     484 | 0x6ED0      |       28368 |
|     485 | 0x6ED1      |       28369 |
|     486 | 0x25BC      |        9660 |
|     487 | 0x0009      |           9 |
|     488 | 0x25BD      |        9661 |
|     489 | 0x25BE      |        9662 |
|     490 | 0x25BF      |        9663 |
|     491 | 0x238D      |        9101 |
|     492 | 0x238E      |        9102 |
|     493 | 0x0004      |           4 |
|     494 | 0x25C1      |        9665 |
|     495 | 0x25C2      |        9666 |
|     496 | 0x1869F     |       99999 |
|     497 | 0xFFFF09E9  |  4294904297 |
|     498 | 0x0041      |          65 |
|     499 | 0x0E0C      |        3596 |
|     500 | 0x25C3      |        9667 |
|     501 | 0x25C4      |        9668 |
|     502 | 0x25C5      |        9669 |
|     503 | 0x25C6      |        9670 |
|     504 | 0x25C7      |        9671 |
|     505 | 0x25C8      |        9672 |
|     506 | 0x18F3      |        6387 |
|     507 | 0x25C0      |        9664 |
|     508 | 0x17F71     |       98161 |
|     509 | 0xFFFF0656  |  4294903382 |
|     510 | 0xFFFF632D  |  4294927149 |
|     511 | 0x0083      |         131 |
|     512 | 0x0032      |          50 |
|     513 | 0x25CA      |        9674 |
|     514 | 0x25CB      |        9675 |
|     515 | 0x25CC      |        9676 |
|     516 | 0x002D      |          45 |
|     517 | 0x25CD      |        9677 |
|     518 | 0x0023      |          35 |
|     519 | 0x25CE      |        9678 |
|     520 | 0x25CF      |        9679 |
|     521 | 0x0044      |          68 |
|     522 | 0x25D0      |        9680 |
|     523 | 0x25D1      |        9681 |
|     524 | 0x02E8      |         744 |
|     525 | 0x25D3      |        9683 |
|     526 | 0x25D4      |        9684 |
|     527 | 0x25D5      |        9685 |
|     528 | 0x25D6      |        9686 |
|     529 | 0xFFFF3876  |  4294916214 |
|     530 | 0xFFFFC972  |  4294953330 |
|     531 | 0x0810      |        2064 |
|     532 | 0xFFFF0D54  |  4294905172 |
|     533 | 0xFFFFB213  |  4294947347 |
|     534 | 0x0DE2      |        3554 |
|     535 | 0xFFFF112F  |  4294906159 |
|     536 | 0xFFFFB239  |  4294947385 |
|     537 | 0xFFFFFA02  |  4294965762 |
|     538 | 0xFFFF3963  |  4294916451 |
|     539 | 0xFFFFC970  |  4294953328 |
|     540 | 0xFFFF27F6  |  4294911990 |
|     541 | 0xFFFFC8FE  |  4294953214 |
|     542 | 0x0140      |         320 |
|     543 | 0x0D6C      |        3436 |
|     544 | 0x25D7      |        9687 |
|     545 | 0x007E      |         126 |
|     546 | 0x0064      |         100 |
|     547 | 0x25D8      |        9688 |
|     548 | 0x0CEC      |        3308 |
|     549 | 0x25D9      |        9689 |
|     550 | 0x25DA      |        9690 |
|     551 | 0xFFFF0B5D  |  4294904669 |
|     552 | 0xFFFFB7C1  |  4294948801 |
|     553 | 0x0112      |         274 |
|     554 | 0xFFFF15BC  |  4294907324 |
|     555 | 0xFFFFB784  |  4294948740 |
|     556 | 0x059E      |        1438 |
|     557 | 0x25DB      |        9691 |
|     558 | 0x25DC      |        9692 |
|     559 | 0x25DD      |        9693 |
|     560 | 0xFFFF0E44  |  4294905412 |
|     561 | 0xFFFFB4B1  |  4294948017 |
|     562 | 0x0EE5      |        3813 |
|     563 | 0x0955      |        2389 |
|     564 | 0x25DE      |        9694 |
|     565 | 0x25DF      |        9695 |
|     566 | 0x25E0      |        9696 |
|     567 | 0xFFFF0D53  |  4294905171 |
|     568 | 0xFFFFB429  |  4294947881 |
|     569 | 0x25E1      |        9697 |
|     570 | 0x006F      |         111 |
|     571 | 0x25E2      |        9698 |
|     572 | 0x25E3      |        9699 |
|     573 | 0x25E4      |        9700 |
|     574 | 0x0EC0      |        3776 |
|     575 | 0x25E5      |        9701 |
|     576 | 0x0046      |          70 |
|     577 | 0x011D      |         285 |
|     578 | 0x01E0      |         480 |
|     579 | 0x25E6      |        9702 |
|     580 | 0x25E7      |        9703 |
|     581 | 0x25E8      |        9704 |
|     582 | 0x0EC5      |        3781 |
|     583 | 0x00DB      |         219 |
|     584 | 0x25E9      |        9705 |
|     585 | 0x00D2      |         210 |
|     586 | 0x0EC1      |        3777 |
|     587 | 0x25EA      |        9706 |
|     588 | 0x0084      |         132 |
|     589 | 0x25EB      |        9707 |
|     590 | 0x25EC      |        9708 |
|     591 | 0x25ED      |        9709 |
|     592 | 0x0190      |         400 |
|     593 | 0x25EE      |        9710 |
|     594 | 0x25EF      |        9711 |
|     595 | 0x25F0      |        9712 |
|     596 | 0x25F1      |        9713 |
|     597 | 0x25F2      |        9714 |
|     598 | 0x25F3      |        9715 |
|     599 | 0x25F4      |        9716 |
|     600 | 0xFFFF0B2A  |  4294904618 |
|     601 | 0xFFFFCE15  |  4294954517 |
|     602 | 0x0A68      |        2664 |
|     603 | 0x0EC2      |        3778 |
|     604 | 0x25F5      |        9717 |
|     605 | 0x25F6      |        9718 |
|     606 | 0x25F7      |        9719 |
|     607 | 0x00E6      |         230 |
|     608 | 0x25F8      |        9720 |
|     609 | 0x017C      |         380 |
|     610 | 0x0EC3      |        3779 |
|     611 | 0x25F9      |        9721 |
|     612 | 0x25FA      |        9722 |
|     613 | 0x25FB      |        9723 |
|     614 | 0x0EC4      |        3780 |
|     615 | 0x25FC      |        9724 |
|     616 | 0x25FD      |        9725 |
|     617 | 0xFFFF010E  |  4294902030 |
|     618 | 0xFFFFD76B  |  4294956907 |
|     619 | 0x0C00      |        3072 |
|     620 | 0x0EF8      |        3832 |
|     621 | 0x25FE      |        9726 |
|     622 | 0x25FF      |        9727 |
|     623 | 0x2600      |        9728 |
|     624 | 0x0EC6      |        3782 |
|     625 | 0x0186      |         390 |
|     626 | 0xFFFFDAFD  |  4294957821 |
|     627 | 0x2601      |        9729 |
|     628 | 0x2602      |        9730 |
|     629 | 0x0012      |          18 |
|     630 | 0x2603      |        9731 |
|     631 | 0x2604      |        9732 |
|     632 | 0x2605      |        9733 |
|     633 | 0x2606      |        9734 |
|     634 | 0x2607      |        9735 |
|     635 | 0xFFFF00F1  |  4294902001 |
|     636 | 0xFFFFDE93  |  4294958739 |
|     637 | 0x01D2      |         466 |
|     638 | 0x0C9A      |        3226 |
|     639 | 0x018A      |         394 |
|     640 | 0xFFFF18C9  |  4294908105 |
|     641 | 0xFFFFC9DC  |  4294953436 |
|     642 | 0x2608      |        9736 |
|     643 | 0x2609      |        9737 |
|     644 | 0x260A      |        9738 |
|     645 | 0x260B      |        9739 |
|     646 | 0x260C      |        9740 |
|     647 | 0x260D      |        9741 |
|     648 | 0xFFFF103E  |  4294905918 |
|     649 | 0xFFFFCDDF  |  4294954463 |
|     650 | 0x0116      |         278 |
|     651 | 0x260E      |        9742 |
|     652 | 0x260F      |        9743 |
|     653 | 0x2610      |        9744 |
|     654 | 0x2611      |        9745 |
|     655 | 0x2612      |        9746 |
|     656 | 0x2613      |        9747 |
|     657 | 0x2614      |        9748 |
|     658 | 0x2615      |        9749 |
|     659 | 0x2616      |        9750 |
|     660 | 0x2617      |        9751 |
|     661 | 0x0EF6      |        3830 |
|     662 | 0x2618      |        9752 |
|     663 | 0x2619      |        9753 |
|     664 | 0x0EF7      |        3831 |
|     665 | 0x261A      |        9754 |
|     666 | 0x0172      |         370 |
|     667 | 0x261B      |        9755 |
|     668 | 0x261C      |        9756 |
|     669 | 0x261D      |        9757 |
|     670 | 0x261E      |        9758 |
|     671 | 0x261F      |        9759 |
|     672 | 0xFFFF10F2  |  4294906098 |
|     673 | 0xFFFFCF6B  |  4294954859 |
|     674 | 0x2620      |        9760 |
|     675 | 0x2621      |        9761 |
|     676 | 0x2622      |        9762 |
|     677 | 0x2623      |        9763 |
|     678 | 0x2624      |        9764 |
|     679 | 0xFFFFFFC8  |  4294967240 |
|     680 | 0xFFFFF7B0  |  4294965168 |
|     681 | 0xFFFFB94C  |  4294949196 |
|     682 | 0xFFFFF7CB  |  4294965195 |
|     683 | 0xFFFFB7E0  |  4294948832 |
|     684 | 0x0CE8      |        3304 |
|     685 | 0x0E1B      |        3611 |
|     686 | 0xFFFFC365  |  4294951781 |
|     687 | 0x094A      |        2378 |
|     688 | 0xFFFFF2BC  |  4294963900 |
|     689 | 0xFFFFB444  |  4294947908 |
|     690 | 0x0D77      |        3447 |
|     691 | 0xFFFFF4E7  |  4294964455 |
|     692 | 0xFFFFBD95  |  4294950293 |
|     693 | 0xFFFFFC15  |  4294966293 |
|     694 | 0xFFFFB9F4  |  4294949364 |
|     695 | 0x0C83      |        3203 |
|     696 | 0x0709      |        1801 |
|     697 | 0xFFFFB7CE  |  4294948814 |
|     698 | 0x083A      |        2106 |
|     699 | 0xFFFFBE6A  |  4294950506 |
|     700 | 0x0AD3      |        2771 |
|     701 | 0x0F1B      |        3867 |
|     702 | 0xFFFFBC2C  |  4294949932 |
|     703 | 0xFFFFF8AA  |  4294965418 |
|     704 | 0xFFFFBE5F  |  4294950495 |
|     705 | 0x0D37      |        3383 |
|     706 | 0xFFFF6B7A  |  4294929274 |
|     707 | 0xFFFFCC27  |  4294954023 |
|     708 | 0x001C      |          28 |
|     709 | 0xFFFF6A35  |  4294928949 |
|     710 | 0xFFFFC5F5  |  4294952437 |
|     711 | 0x03C0      |         960 |
|     712 | 0x063E      |        1598 |
|     713 | 0x03E2      |         994 |
|     714 | 0x151D      |        5405 |
|     715 | 0xFFFF98E1  |  4294940897 |
|     716 | 0x0237      |         567 |
|     717 | 0xFFFFF448  |  4294964296 |
|     718 | 0xFFFFEA84  |  4294961796 |
|     719 | 0x0BB8      |        3000 |
|     720 | 0xFFFFE16B  |  4294959467 |
|     721 | 0x0417      |        1047 |
|     722 | 0x0EAF      |        3759 |
|     723 | 0x02E9      |         745 |
|     724 | 0x0EC7      |        3783 |
|     725 | 0xFFFFFFE9  |  4294967273 |
|     726 | 0xFFFFC7DA  |  4294952922 |
|     727 | 0x09F1      |        2545 |
|     728 | 0x0E15      |        3605 |
|     729 | 0xFFFFF75A  |  4294965082 |
|     730 | 0xFFFFBFC6  |  4294950854 |
|     731 | 0xFFFFF396  |  4294964118 |
|     732 | 0xFFFFBE70  |  4294950512 |
|     733 | 0x0E0E      |        3598 |
|     734 | 0xFFFFF763  |  4294965091 |
|     735 | 0xFFFFB5BC  |  4294948284 |
|     736 | 0x2625      |        9765 |
|     737 | 0x2626      |        9766 |
|     738 | 0x2627      |        9767 |
|     739 | 0x0ED7      |        3799 |
|     740 | 0x0DD1      |        3537 |
|     741 | 0x2628      |        9768 |
|     742 | 0x2629      |        9769 |
|     743 | 0x262A      |        9770 |
|     744 | 0x007A      |         122 |
|     745 | 0x262B      |        9771 |
|     746 | 0x262C      |        9772 |
|     747 | 0x010E      |         270 |
|     748 | 0x262D      |        9773 |
|     749 | 0x262E      |        9774 |
|     750 | 0x262F      |        9775 |
|     751 | 0x2630      |        9776 |
|     752 | 0x2631      |        9777 |
|     753 | 0x2632      |        9778 |
|     754 | 0x0816      |        2070 |
|     755 | 0xFFFFCF55  |  4294954837 |
|     756 | 0x05AD      |        1453 |
|     757 | 0x0D19      |        3353 |
|     758 | 0x2633      |        9779 |
|     759 | 0x0060      |          96 |
|     760 | 0x2634      |        9780 |
|     761 | 0x2635      |        9781 |
|     762 | 0x2636      |        9782 |
|     763 | 0x0010      |          16 |
|     764 | 0x2637      |        9783 |
|     765 | 0x2638      |        9784 |
|     766 | 0x2639      |        9785 |
|     767 | 0x263A      |        9786 |
|     768 | 0x263B      |        9787 |
|     769 | 0x263C      |        9788 |
|     770 | 0x263D      |        9789 |
|     771 | 0x263E      |        9790 |
|     772 | 0x263F      |        9791 |
|     773 | 0x2640      |        9792 |
|     774 | 0x2641      |        9793 |
|     775 | 0x2642      |        9794 |
|     776 | 0x2643      |        9795 |
|     777 | 0x2644      |        9796 |
|     778 | 0x2645      |        9797 |
|     779 | 0x0082      |         130 |
|     780 | 0x0E67      |        3687 |
|     781 | 0x003D      |          61 |
|     782 | 0x2646      |        9798 |
|     783 | 0xFFFFF567  |  4294964583 |
|     784 | 0xFFFFB995  |  4294949269 |
|     785 | 0x0DC4      |        3524 |
|     786 | 0x2647      |        9799 |
|     787 | 0x014A      |         330 |
|     788 | 0x2648      |        9800 |
|     789 | 0x2649      |        9801 |
|     790 | 0x264A      |        9802 |
|     791 | 0x0019      |          25 |
|     792 | 0x264B      |        9803 |
|     793 | 0x264C      |        9804 |
|     794 | 0x264D      |        9805 |
|     795 | 0x264E      |        9806 |
|     796 | 0xFFFFFDFC  |  4294966780 |
|     797 | 0xFFFFBA99  |  4294949529 |
|     798 | 0x0EE1      |        3809 |
|     799 | 0x264F      |        9807 |
|     800 | 0x2650      |        9808 |
|     801 | 0x2651      |        9809 |
|     802 | 0xFFFFF8C4  |  4294965444 |
|     803 | 0xFFFFC38D  |  4294951821 |
|     804 | 0xFFFFFA22  |  4294965794 |
|     805 | 0x0EBD      |        3773 |
|     806 | 0xFFFFFA5C  |  4294965852 |
|     807 | 0xFFFFBF6D  |  4294950765 |
|     808 | 0x0E7C      |        3708 |
|     809 | 0xFFFFF011  |  4294963217 |
|     810 | 0xFFFFBC67  |  4294949991 |
|     811 | 0x0DBC      |        3516 |
|     812 | 0xFFFFF2D4  |  4294963924 |
|     813 | 0xFFFFC287  |  4294951559 |
|     814 | 0x0ED1      |        3793 |
|     815 | 0x02EC      |         748 |
|     816 | 0x0045      |          69 |
|     817 | 0x2652      |        9810 |
|     818 | 0x2653      |        9811 |
|     819 | 0xFFFFF686  |  4294964870 |
|     820 | 0xFFFFC6B4  |  4294952628 |
|     821 | 0xFFFFFA18  |  4294965784 |
|     822 | 0x01E4      |         484 |
|     823 | 0xFFFFF626  |  4294964774 |
|     824 | 0xFFFFC2D0  |  4294951632 |
|     825 | 0x0FE2      |        4066 |
|     826 | 0xFFFFC2CA  |  4294951626 |
|     827 | 0x0833      |        2099 |
|     828 | 0x0654      |        1620 |
|     829 | 0xFFFFBC5B  |  4294949979 |
|     830 | 0x0896      |        2198 |
|     831 | 0x0A22      |        2594 |
|     832 | 0xFFFFC86A  |  4294953066 |
|     833 | 0x05BC      |        1468 |
|     834 | 0x0ECA      |        3786 |
|     835 | 0xFFFFF2F3  |  4294963955 |
|     836 | 0xFFFFC274  |  4294951540 |
|     837 | 0x0EC8      |        3784 |
|     838 | 0xFFFFF5CF  |  4294964687 |
|     839 | 0xFFFFCB57  |  4294953815 |
|     840 | 0x022A      |         554 |
|     841 | 0x1505      |        5381 |
|     842 | 0xFFFF9921  |  4294940961 |
|     843 | 0xFFFFF560  |  4294964576 |
|     844 | 0xFFFFBDFE  |  4294950398 |
|     845 | 0x0EAE      |        3758 |
|     846 | 0x006E      |         110 |
|     847 | 0xFFFFA359  |  4294943577 |
|     848 | 0x0BE5      |        3045 |
|     849 | 0x04BB      |        1211 |
|     850 | 0xFFFF9FC3  |  4294942659 |
|     851 | 0x2654      |        9812 |
|     852 | 0x0D51      |        3409 |
|     853 | 0x0AC3      |        2755 |
|     854 | 0xFFFFD25C  |  4294955612 |
|     855 | 0x2655      |        9813 |
|     856 | 0x2656      |        9814 |
|     857 | 0x2657      |        9815 |
|     858 | 0xFFFFBE6F  |  4294950511 |
|     859 | 0x03D8      |         984 |
|     860 | 0x0292      |         658 |
|     861 | 0xFFFFB364  |  4294947684 |
|     862 | 0xFFFFFB01  |  4294966017 |
|     863 | 0xFFFFBBC1  |  4294949825 |
|     864 | 0x00B3      |         179 |
|     865 | 0xFFFFFFC9  |  4294967241 |
|     866 | 0xFFFFBA5F  |  4294949471 |
|     867 | 0x0203      |         515 |
|     868 | 0x0D98      |        3480 |
|     869 | 0xFFFFB952  |  4294949202 |
|     870 | 0x03C4      |         964 |
|     871 | 0x008C      |         140 |
|     872 | 0x2658      |        9816 |
|     873 | 0x2659      |        9817 |
|     874 | 0x0374      |         884 |
|     875 | 0xFFFFD466  |  4294956134 |
|     876 | 0x03B5      |         949 |
|     877 | 0x265A      |        9818 |
|     878 | 0xFFFF957B  |  4294940027 |
|     879 | 0xFFFFF1A7  |  4294963623 |
|     880 | 0x03EC      |        1004 |
|     881 | 0xFFFF9AD5  |  4294941397 |
|     882 | 0xFFFFEC18  |  4294962200 |
|     883 | 0xFFFF8A62  |  4294937186 |
|     884 | 0xFFFFE196  |  4294959510 |
|     885 | 0x0DFB      |        3579 |
|     886 | 0x0EE6      |        3814 |
|     887 | 0x265B      |        9819 |
|     888 | 0x265C      |        9820 |
|     889 | 0x074B      |        1867 |
|     890 | 0xFFFFB152  |  4294947154 |
|     891 | 0x0AAD      |        2733 |
|     892 | 0x265D      |        9821 |
|     893 | 0x265E      |        9822 |
|     894 | 0x265F      |        9823 |
|     895 | 0x2660      |        9824 |
|     896 | 0x2661      |        9825 |
|     897 | 0x2662      |        9826 |
|     898 | 0x0CB9      |        3257 |
|     899 | 0x2663      |        9827 |
|     900 | 0x06C3      |        1731 |
|     901 | 0xFFFFBC9D  |  4294950045 |
|     902 | 0x09E5      |        2533 |
|     903 | 0x0B84      |        2948 |
|     904 | 0xFFFFCFFA  |  4294955002 |
|     905 | 0x0675      |        1653 |
|     906 | 0x08D9      |        2265 |
|     907 | 0xFFFFCBBC  |  4294953916 |
|     908 | 0x0764      |        1892 |
|     909 | 0xFFFFF8F1  |  4294965489 |
|     910 | 0xFFFFC7DD  |  4294952925 |
|     911 | 0xFFFFF9E9  |  4294965737 |
|     912 | 0x009D      |         157 |
|     913 | 0x2664      |        9828 |
|     914 | 0x2665      |        9829 |
|     915 | 0x2666      |        9830 |
|     916 | 0x2667      |        9831 |
|     917 | 0x2668      |        9832 |
|     918 | 0x1168      |        4456 |
|     919 | 0xFFFFC7A4  |  4294952868 |
|     920 | 0x0EB4      |        3764 |
|     921 | 0x0CBA      |        3258 |
|     922 | 0x2669      |        9833 |
|     923 | 0x266A      |        9834 |
|     924 | 0xFFFFF670  |  4294964848 |
|     925 | 0xFFFFCB83  |  4294953859 |
|     926 | 0xFFFFFA2B  |  4294965803 |
|     927 | 0x0124      |         292 |
|     928 | 0xFFFFF84C  |  4294965324 |
|     929 | 0xFFFFC531  |  4294952241 |
|     930 | 0x266B      |        9835 |
|     931 | 0xFFFFF879  |  4294965369 |
|     932 | 0xFFFFC0AC  |  4294951084 |
|     933 | 0x0E6B      |        3691 |
|     934 | 0xFFFFF6BA  |  4294964922 |
|     935 | 0xFFFFC46A  |  4294952042 |
|     936 | 0x266C      |        9836 |
|     937 | 0x266D      |        9837 |
|     938 | 0x266E      |        9838 |
|     939 | 0x266F      |        9839 |
|     940 | 0x2670      |        9840 |
|     941 | 0x2671      |        9841 |
|     942 | 0x0ECD      |        3789 |
|     943 | 0x0FAB      |        4011 |
|     944 | 0x2672      |        9842 |
|     945 | 0x2673      |        9843 |
|     946 | 0x2674      |        9844 |
|     947 | 0x2675      |        9845 |
|     948 | 0x2676      |        9846 |
|     949 | 0x0020      |          32 |
|     950 | 0xFFFFFD67  |  4294966631 |
|     951 | 0xFFFFBFB2  |  4294950834 |
|     952 | 0x0133      |         307 |
|     953 | 0xFFFFBBFA  |  4294949882 |
|     954 | 0x0BE4      |        3044 |
|     955 | 0x0384      |         900 |
|     956 | 0x0708      |        1800 |
|     957 | 0x2677      |        9847 |
|     958 | 0x0A5D      |        2653 |
|     959 | 0xFFFFC330  |  4294951728 |
|     960 | 0x0885      |        2181 |
|     961 | 0x0F30      |        3888 |
|     962 | 0xFFFFBB25  |  4294949669 |
|     963 | 0x0A55      |        2645 |
|     964 | 0xFFFFF843  |  4294965315 |
|     965 | 0xFFFFBFB6  |  4294950838 |
|     966 | 0x0DE7      |        3559 |
|     967 | 0x2678      |        9848 |
|     968 | 0x2679      |        9849 |
|     969 | 0x096B      |        2411 |
|     970 | 0xFFFFCA8B  |  4294953611 |
|     971 | 0x06F9      |        1785 |
|     972 | 0xFFFFF513  |  4294964499 |
|     973 | 0xFFFFC6F4  |  4294952692 |
|     974 | 0x0FCE      |        4046 |
|     975 | 0x07C9      |        1993 |
|     976 | 0x267A      |        9850 |
|     977 | 0x267B      |        9851 |
|     978 | 0x267C      |        9852 |
|     979 | 0x267D      |        9853 |
|     980 | 0x267E      |        9854 |
|     981 | 0x267F      |        9855 |
|     982 | 0x2680      |        9856 |
|     983 | 0x2681      |        9857 |
|     984 | 0x2682      |        9858 |
|     985 | 0x2683      |        9859 |
|     986 | 0x2684      |        9860 |
|     987 | 0x09D7      |        2519 |
|     988 | 0xFFFFD721  |  4294956833 |
|     989 | 0x05DB      |        1499 |
|     990 | 0x2685      |        9861 |
|     991 | 0x2686      |        9862 |
|     992 | 0x2687      |        9863 |
|     993 | 0x2688      |        9864 |
|     994 | 0x2689      |        9865 |
|     995 | 0x268A      |        9866 |
|     996 | 0x268B      |        9867 |
|     997 | 0x268C      |        9868 |
|     998 | 0x268D      |        9869 |
|     999 | 0x268E      |        9870 |
|    1000 | 0x268F      |        9871 |
|    1001 | 0x2690      |        9872 |
|    1002 | 0x2691      |        9873 |
|    1003 | 0x2692      |        9874 |
|    1004 | 0x2693      |        9875 |
|    1005 | 0x2694      |        9876 |
|    1006 | 0x2695      |        9877 |
|    1007 | 0x2696      |        9878 |
|    1008 | 0x2697      |        9879 |
|    1009 | 0x0095      |         149 |
|    1010 | 0x2698      |        9880 |
|    1011 | 0x2699      |        9881 |
|    1012 | 0x269A      |        9882 |
|    1013 | 0x269B      |        9883 |
|    1014 | 0x269C      |        9884 |
|    1015 | 0x269D      |        9885 |
|    1016 | 0x0258      |         600 |
|    1017 | 0x01C2      |         450 |
|    1018 | 0x0E6C      |        3692 |
|    1019 | 0x269E      |        9886 |
|    1020 | 0x269F      |        9887 |
|    1021 | 0x003A      |          58 |
|    1022 | 0x26A0      |        9888 |
|    1023 | 0x26A1      |        9889 |
|    1024 | 0x26A2      |        9890 |
|    1025 | 0x000B      |          11 |
|    1026 | 0x26A3      |        9891 |
|    1027 | 0x01B5      |         437 |
|    1028 | 0xFFFFC824  |  4294952996 |
|    1029 | 0x06A4      |        1700 |
|    1030 | 0x0CED      |        3309 |
|    1031 | 0x26A4      |        9892 |
|    1032 | 0x26A5      |        9893 |
|    1033 | 0x26A6      |        9894 |
|    1034 | 0x26A7      |        9895 |
|    1035 | 0x26A8      |        9896 |
|    1036 | 0x0798      |        1944 |
|    1037 | 0xFFFFF9E4  |  4294965732 |
|    1038 | 0xFFFFC16C  |  4294951276 |
|    1039 | 0xFFFFFDD1  |  4294966737 |
|    1040 | 0xFFFFC132  |  4294951218 |
|    1041 | 0x05C6      |        1478 |
|    1042 | 0xFFFFBD87  |  4294950279 |
|    1043 | 0xFFFFFBD2  |  4294966226 |
|    1044 | 0xFFFFC83E  |  4294953022 |
|    1045 | 0xFFFFF998  |  4294965656 |
|    1046 | 0xFFFFFCB8  |  4294966456 |
|    1047 | 0xFFFFC538  |  4294952248 |
|    1048 | 0x07F8      |        2040 |
|    1049 | 0xFFFFCD85  |  4294954373 |
|    1050 | 0xFFFFF783  |  4294965123 |
|    1051 | 0xFFFFC724  |  4294952740 |
|    1052 | 0xFFFFF940  |  4294965568 |
|    1053 | 0xFFFFCA2D  |  4294953517 |
|    1054 | 0xFFFFFA03  |  4294965763 |
|    1055 | 0x079B      |        1947 |
|    1056 | 0xFFFFC3C2  |  4294951874 |
|    1057 | 0xFFFFBDFD  |  4294950397 |
|    1058 | 0x0168      |         360 |
|    1059 | 0x26A9      |        9897 |
|    1060 | 0x26AA      |        9898 |
|    1061 | 0x26AB      |        9899 |
|    1062 | 0x26AC      |        9900 |
|    1063 | 0x26AD      |        9901 |
|    1064 | 0x26AE      |        9902 |
|    1065 | 0x26AF      |        9903 |
|    1066 | 0x26B0      |        9904 |
|    1067 | 0x26B1      |        9905 |
|    1068 | 0x26B2      |        9906 |
|    1069 | 0x26B3      |        9907 |
|    1070 | 0x26B4      |        9908 |
|    1071 | 0x0E68      |        3688 |
|    1072 | 0x021C      |         540 |
|    1073 | 0x1119      |        4377 |
|    1074 | 0xFFFFD7A4  |  4294956964 |
|    1075 | 0x0586      |        1414 |
|    1076 | 0x26B5      |        9909 |
|    1077 | 0x26B6      |        9910 |
|    1078 | 0x0E69      |        3689 |
|    1079 | 0x26B7      |        9911 |
|    1080 | 0x098F      |        2447 |
|    1081 | 0xFFFFD8DF  |  4294957279 |
|    1082 | 0x053A      |        1338 |
|    1083 | 0x26B8      |        9912 |
|    1084 | 0x0D95      |        3477 |
|    1085 | 0x26B9      |        9913 |
|    1086 | 0xFFFFD740  |  4294956864 |
|    1087 | 0x0FFA      |        4090 |
|    1088 | 0x0C4D      |        3149 |
|    1089 | 0xFFFFBE63  |  4294950499 |
|    1090 | 0x26BA      |        9914 |
|    1091 | 0x26BB      |        9915 |
|    1092 | 0x26BC      |        9916 |
|    1093 | 0x04B0      |        1200 |
|    1094 | 0x0960      |        2400 |
|    1095 | 0x0DAD      |        3501 |
|    1096 | 0xFFFFDA82  |  4294957698 |
|    1097 | 0x0A73      |        2675 |
|    1098 | 0x09DE      |        2526 |
|    1099 | 0xFFFFDE42  |  4294958658 |
|    1100 | 0x02E5      |         741 |
|    1101 | 0x26D6      |        9942 |
|    1102 | 0x26BE      |        9918 |
|    1103 | 0x26BF      |        9919 |
|    1104 | 0x26C0      |        9920 |
|    1105 | 0x26C1      |        9921 |
|    1106 | 0x0CD3      |        3283 |
|    1107 | 0x26C2      |        9922 |
|    1108 | 0x26C3      |        9923 |
|    1109 | 0x26C4      |        9924 |
|    1110 | 0x26C5      |        9925 |
|    1111 | 0x26C6      |        9926 |
|    1112 | 0x26C7      |        9927 |
|    1113 | 0x26C8      |        9928 |
|    1114 | 0x26C9      |        9929 |
|    1115 | 0x26CA      |        9930 |
|    1116 | 0x0E14      |        3604 |
|    1117 | 0x26CB      |        9931 |
|    1118 | 0x6BBC      |       27580 |
|    1119 | 0x6BBD      |       27581 |
|    1120 | 0x6BBE      |       27582 |
|    1121 | 0x6BBF      |       27583 |
|    1122 | 0x6BC0      |       27584 |
|    1123 | 0x6BC1      |       27585 |
|    1124 | 0x6BC2      |       27586 |
|    1125 | 0x6BC3      |       27587 |
|    1126 | 0x6BC4      |       27588 |
|    1127 | 0x6BC5      |       27589 |
|    1128 | 0x6BC6      |       27590 |
|    1129 | 0x6BC7      |       27591 |
|    1130 | 0x26CC      |        9932 |
|    1131 | 0x26CD      |        9933 |
|    1132 | 0x26CE      |        9934 |
|    1133 | 0x26CF      |        9935 |
|    1134 | 0x26D0      |        9936 |
|    1135 | 0x26D1      |        9937 |
|    1136 | 0x26D2      |        9938 |
|    1137 | 0x26D3      |        9939 |
|    1138 | 0x26D4      |        9940 |
|    1139 | 0x26D5      |        9941 |
|    1140 | 0x000C      |          12 |
|    1141 | 0x26D7      |        9943 |
|    1142 | 0x26D8      |        9944 |
|    1143 | 0x26D9      |        9945 |
|    1144 | 0x26DA      |        9946 |
|    1145 | 0x26DB      |        9947 |
|    1146 | 0x26DC      |        9948 |
|    1147 | 0x26E1      |        9953 |
|    1148 | 0x26E2      |        9954 |
|    1149 | 0x26E4      |        9956 |
|    1150 | 0x26E5      |        9957 |
|    1151 | 0x26E6      |        9958 |
|    1152 | 0x26E7      |        9959 |
|    1153 | 0x26E8      |        9960 |

## String References

- **6387**: You cannot obtain the item. Come back after sorting your inventory.
- **8289**: @@
- **9102**: Are you sure? [Yes./No.]
- **9178**: How do you respond? [The Order of Renaye?/Of course I'll be there.]
- **9203**: How do you respond? [Make him shut up./Give him a kick to the rump.]
- **9222**: Should Hildebert repeat his explanation? [No need./Please. I didn't quite catch everything.]
- **9273**: How do you respond? [I'll do all I can./I've no time for such nonsense.]
- **9304**: Any questions? [So it now draws in monsters?/What are you implying?]
- **9318**: Will you assist Arciela? [Certainly./I would never disappoint you.]
- **9559**: You want me to... [Give back the necklace?/Do what with what?]
- **9564**: How will you respond? [Is there something you want to discuss?/What brings you here?]
- **9590**: What will you say to her? [...Are you all right?/Arciela...?]
- **9602**: How will you console her? [You did the best you could./You're not weak in the least./This isn't the Arciela I know.]
- **9605**: Any words of encouragement? [You're not alone in this./Nothing will happen to me./I think that we're all weak.]
- **9612**: ......... [@/@/@]
- **9615**: How will you respond? [Never say that again!/That's a terrible thing to say./...Sorry.]
- **9620**: Anything to add? [Let's look for Balamor./It's time to go settle the score.]
- **9622**: Your rebuttal? [Doing nothing will help us even less./We're going to undo that curse!]
- **9632**: What is your reply? [That's the spirit!/Of course.]
- **9660**: Which would you like? [This is all very sudden.../The $0./The $1./The $2.]
- **9675**: How do you react? ["Proper authorization"?/I just want to see Arciela.]
- **9696**: What is your frank opinion? [It's really sweet./Ugh!/Eew...now I've got cooties.]
- **9700**: How do you respond? [You poisoned it./I was just playing around./<Mutter>]
- **9704**: What do you have to say for yourself? [...I was just playing around./Play the fool./Say nothing.]
- **9723**: Anything to say? [Does it still hurt?/Was I too forceful?/I'm so sorry.]
- **9734**: How do you react? ["Like the wind"?/Say nothing.]
- **9932**: Receive which gift? [I need some time to think./The $0./The $1./The $2./The $3./The $4./The $5./The $6./The $7./The $8./The $9./The $10./The $11.]
- **9957**: Exchange your gift? ($2 bayld) [Yes./No.]

## Events

### Event 65535

#### Metadata

| Field        | Value   |
|--------------|---------|
| Entrypoint   | 0x0000  |
| Data Size    | 1 bytes |
| Instructions | 1       |

```
      00 01 02 03 04 05 06 07  08 09 0A 0B 0C 0D 0E 0F
      -- -- -- -- -- -- -- --  -- -- -- -- -- -- -- --
0000: 00                                                .               
```

#### Opcodes

```
  0: 0x0000 [0x00] END_REQSTACK()
```

### Event 1533

#### Metadata

| Field        | Value      |
|--------------|------------|
| Entrypoint   | 0x0001     |
| Data Size    | 8322 bytes |
| Instructions | 983        |

```
      00 01 02 03 04 05 06 07  08 09 0A 0B 0C 0D 0E 0F
      -- -- -- -- -- -- -- --  -- -- -- -- -- -- -- --
0000:    42 1A 3D C4 46 01 38  00 80 34 01 80 77 02 80   B.=.F.8..4..w..
0010: 03 80 1C 04 80 2F 00 90  10 10 01 2F 00 A0 10 10  ...../...../....
0020: 01 4E 00 90 10 10 01 4E  00 A0 10 10 01 92 01 90  .N.....N........
0030: 10 10 01 94 01 F0 FF FF  7F 94 01 90 10 10 01 94  ................
0040: 01 A0 10 10 01 BA F0 FF  FF 7F 05 80 06 80 07 80  ................
0050: 08 80 BA 90 10 10 01 09  80 0A 80 0B 80 0C 80 BA  ................
0060: A0 10 10 01 0D 80 0E 80  0B 80 0C 80 80 90 10 10  ................
0070: 01 80 F0 FF FF 7F 80 A0  10 10 01 4A 90 10 10 01  ...........J....
0080: A0 10 10 01 4A A0 10 10  01 90 10 10 01 27 05 F0  ....J........'..
0090: FF FF 7F 41 45 0F 80 F8  FF FF 7F F8 FF FF 7F 73  ...AE..........s
00A0: 31 33 38 03 80 1C 10 80  1A 1C C4 1C 11 80 52 0F  138...........R.
00B0: 80 F8 FF FF 7F F8 FF FF  7F 73 31 33 38 45 0F 80  .........s138E..
00C0: F8 FF FF 7F F8 FF FF 7F  73 31 33 39 03 80 4A A0  ........s139..J.
00D0: 10 10 01 F0 FF FF 7F 1C  12 80 4A 90 10 10 01 F0  ..........J.....
00E0: FF FF 7F 2B 90 10 10 01  13 80 23 2A 05 F0 FF FF  ...+......#*....
00F0: 7F 52 0F 80 F8 FF FF 7F  F8 FF FF 7F 73 31 33 39  .R..........s139
0100: 45 0F 80 F8 FF FF 7F F8  FF FF 7F 73 31 34 30 03  E..........s140.
0110: 80 5B 14 80 90 10 10 01  90 10 10 01 74 6C 6B 30  .[..........tlk0
0120: 2B 90 10 10 01 15 80 23  2B 90 10 10 01 16 80 23  +......#+......#
0130: 5B 14 80 90 10 10 01 90  10 10 01 74 6C 6B 31 52  [..........tlk1R
0140: 0F 80 F8 FF FF 7F F8 FF  FF 7F 73 31 34 30 45 0F  ..........s140E.
0150: 80 F8 FF FF 7F F8 FF FF  7F 73 31 34 31 03 80 27  .........s141..'
0160: 05 F0 FF FF 7F 10 1C 17  80 27 05 F0 FF FF 7F 11  .........'......
0170: 1C 18 80 52 0F 80 F8 FF  FF 7F F8 FF FF 7F 73 31  ...R..........s1
0180: 34 31 45 0F 80 F8 FF FF  7F F8 FF FF 7F 73 31 38  41E..........s18
0190: 32 03 80 2B 90 10 10 01  19 80 23 5B 1A 80 90 10  2..+......#[....
01A0: 10 01 90 10 10 01 6E 6F  30 30 2B 90 10 10 01 1B  ......no00+.....
01B0: 80 23 52 0F 80 F8 FF FF  7F F8 FF FF 7F 73 31 38  .#R..........s18
01C0: 32 45 0F 80 F8 FF FF 7F  F8 FF FF 7F 73 31 38 33  2E..........s183
01D0: 03 80 5B 14 80 90 10 10  01 90 10 10 01 74 6C 6B  ..[..........tlk
01E0: 30 2B 90 10 10 01 1C 80  23 5B 14 80 90 10 10 01  0+......#[......
01F0: 90 10 10 01 74 6C 6B 31  24 1D 80 03 80 03 80 25  ....tlk1$......%
0200: 02 00 10 03 80 00 51 02  52 0F 80 F8 FF FF 7F F8  ......Q.R.......
0210: FF FF 7F 73 31 38 33 45  0F 80 F8 FF FF 7F F8 FF  ...s183E........
0220: FF 7F 73 31 38 34 03 80  5B 1A 80 90 10 10 01 90  ..s184..[.......
0230: 10 10 01 79 65 73 30 2B  90 10 10 01 1E 80 23 52  ...yes0+......#R
0240: 0F 80 F8 FF FF 7F F8 FF  FF 7F 73 31 38 34 01 6B  ..........s184.k
0250: 02 02 00 10 04 80 00 6B  02 6E F0 FF FF 7F 1F 80  .......k.n......
0260: 99 F0 FF FF 7F 1C 11 80  01 6B 02 52 0F 80 F8 FF  .........k.R....
0270: FF 7F F8 FF FF 7F 73 31  38 33 45 0F 80 F8 FF FF  ......s183E.....
0280: 7F F8 FF FF 7F 73 31 36  32 03 80 5B 14 80 90 10  .....s162..[....
0290: 10 01 90 10 10 01 74 6C  6B 30 2B 90 10 10 01 20  ......tlk0+.... 
02A0: 80 23 2B 90 10 10 01 21  80 23 52 0F 80 F8 FF FF  .#+....!.#R.....
02B0: 7F F8 FF FF 7F 73 31 36  32 45 0F 80 F8 FF FF 7F  .....s162E......
02C0: F8 FF FF 7F 73 31 36 33  03 80 5B 14 80 90 10 10  ....s163..[.....
02D0: 01 90 10 10 01 74 6C 6B  31 2B 90 10 10 01 22 80  .....tlk1+....".
02E0: 23 7B 90 10 10 01 5B 23  80 90 10 10 01 90 10 10  #{....[#........
02F0: 01 64 79 6F 30 2B 90 10  10 01 24 80 23 2B 90 10  .dyo0+....$.#+..
0300: 10 01 25 80 23 52 0F 80  F8 FF FF 7F F8 FF FF 7F  ..%.#R..........
0310: 73 31 36 33 45 0F 80 F8  FF FF 7F F8 FF FF 7F 73  s163E..........s
0320: 31 36 39 03 80 5B 23 80  90 10 10 01 90 10 10 01  169..[#.........
0330: 64 79 6F 31 2B 90 10 10  01 26 80 23 5B 1A 80 90  dyo1+....&.#[...
0340: 10 10 01 90 10 10 01 6E  6F 30 30 52 0F 80 F8 FF  .......no00R....
0350: FF 7F F8 FF FF 7F 73 31  36 39 45 0F 80 F8 FF FF  ......s169E.....
0360: 7F F8 FF FF 7F 73 31 34  32 03 80 2B 90 10 10 01  .....s142..+....
0370: 27 80 23 52 0F 80 F8 FF  FF 7F F8 FF FF 7F 73 31  '.#R..........s1
0380: 34 32 45 0F 80 F8 FF FF  7F F8 FF FF 7F 73 31 38  42E..........s18
0390: 35 03 80 27 05 90 10 10  01 2F 1C 10 80 27 05 F0  5..'...../...'..
03A0: FF FF 7F 42 1C 28 80 27  05 A0 10 10 01 22 1C 28  ...B.(.'.....".(
03B0: 80 1A 3D C4 1C 12 80 52  0F 80 F8 FF FF 7F F8 FF  ..=....R........
03C0: FF 7F 73 31 38 35 7A 00  90 10 10 01 7A 00 F0 FF  ..s185z.....z...
03D0: FF 7F 7A 00 A0 10 10 01  7B A0 10 10 01 2F 00 95  ..z.....{..../..
03E0: 10 10 01 2F 00 94 10 10  01 2F 00 93 10 10 01 2F  .../...../...../
03F0: 00 96 10 10 01 2F 00 97  10 10 01 2F 00 98 10 10  ...../...../....
0400: 01 2F 00 99 10 10 01 2F  00 9F 10 10 01 2F 00 A1  ./...../...../..
0410: 10 10 01 4E 00 95 10 10  01 4E 00 94 10 10 01 4E  ...N.....N.....N
0420: 00 93 10 10 01 4E 00 96  10 10 01 4E 00 97 10 10  .....N.....N....
0430: 01 4E 00 98 10 10 01 4E  00 99 10 10 01 4E 00 9F  .N.....N.....N..
0440: 10 10 01 4E 00 A1 10 10  01 92 01 95 10 10 01 92  ...N............
0450: 01 94 10 10 01 92 01 93  10 10 01 92 01 96 10 10  ................
0460: 01 92 01 97 10 10 01 92  01 98 10 10 01 92 01 99  ................
0470: 10 10 01 94 01 95 10 10  01 94 01 94 10 10 01 94  ................
0480: 01 93 10 10 01 94 01 96  10 10 01 94 01 97 10 10  ................
0490: 01 94 01 98 10 10 01 94  01 99 10 10 01 94 01 A1  ................
04A0: 10 10 01 59 05 A1 10 10  01 01 BA 90 10 10 01 29  ...Y...........)
04B0: 80 2A 80 2B 80 0C 80 BA  F0 FF FF 7F 2C 80 2D 80  .*.+........,.-.
04C0: 2E 80 2F 80 BA 95 10 10  01 30 80 31 80 2B 80 0C  ../......0.1.+..
04D0: 80 BA 96 10 10 01 32 80  33 80 2E 80 0C 80 BA 94  ......2.3.......
04E0: 10 10 01 34 80 35 80 2E  80 0C 80 BA 93 10 10 01  ...4.5..........
04F0: 36 80 37 80 2B 80 0C 80  BA A0 10 10 01 38 80 39  6.7.+........8.9
0500: 80 2E 80 03 80 BA 9F 10  10 01 3A 80 3B 80 2E 80  ..........:.;...
0510: 3C 80 BA A1 10 10 01 3A  80 3B 80 3D 80 3C 80 BA  <......:.;.=.<..
0520: 97 10 10 01 3E 80 3F 80  2E 80 40 80 BA 98 10 10  ....>.?...@.....
0530: 01 41 80 42 80 2E 80 40  80 BA 99 10 10 01 43 80  .A.B...@......C.
0540: 44 80 2E 80 45 80 80 90  10 10 01 80 F0 FF FF 7F  D...E...........
0550: 80 96 10 10 01 80 94 10  10 01 80 93 10 10 01 80  ................
0560: 95 10 10 01 80 A0 10 10  01 80 9F 10 10 01 80 A1  ................
0570: 10 10 01 80 97 10 10 01  80 98 10 10 01 80 99 10  ................
0580: 10 01 4A 95 10 10 01 90  10 10 01 4A 90 10 10 01  ..J........J....
0590: 95 10 10 01 4A 96 10 10  01 95 10 10 01 4A 93 10  ....J........J..
05A0: 10 01 95 10 10 01 4A 94  10 10 01 95 10 10 01 4A  ......J........J
05B0: F0 FF FF 7F 95 10 10 01  4A 97 10 10 01 95 10 10  ........J.......
05C0: 01 4A 98 10 10 01 95 10  10 01 4A 99 10 10 01 95  .J........J.....
05D0: 10 10 01 48 46 80 23 1C  12 80 81 00 A0 10 10 01  ...HF.#.........
05E0: 7C 00 A0 10 10 01 5B 47  80 A0 10 10 01 A0 10 10  |.....[G........
05F0: 01 66 61 30 30 45 0F 80  F8 FF FF 7F F8 FF FF 7F  .fa00E..........
0600: 73 31 37 30 03 80 1C 10  80 1A 1C C4 1C 48 80 52  s170.........H.R
0610: 0F 80 F8 FF FF 7F F8 FF  FF 7F 73 31 37 30 45 0F  ..........s170E.
0620: 80 F8 FF FF 7F F8 FF FF  7F 73 31 38 36 03 80 5B  .........s186..[
0630: 49 80 98 10 10 01 98 10  10 01 74 6C 6B 30 2B 98  I.........tlk0+.
0640: 10 10 01 4A 80 23 5B 49  80 98 10 10 01 98 10 10  ...J.#[I........
0650: 01 74 6C 6B 31 52 0F 80  F8 FF FF 7F F8 FF FF 7F  .tlk1R..........
0660: 73 31 38 36 45 0F 80 F8  FF FF 7F F8 FF FF 7F 73  s186E..........s
0670: 31 38 37 03 80 79 00 97  10 10 01 98 10 10 01 66  187..y.........f
0680: 4B 80 97 10 10 01 97 10  10 01 74 6C 6B 30 2B 97  K.........tlk0+.
0690: 10 10 01 4C 80 23 66 4B  80 97 10 10 01 97 10 10  ...L.#fK........
06A0: 01 74 6C 6B 31 5B 4D 80  98 10 10 01 98 10 10 01  .tlk1[M.........
06B0: 68 65 6E 30 2B 98 10 10  01 4E 80 23 52 0F 80 F8  hen0+....N.#R...
06C0: FF FF 7F F8 FF FF 7F 73  31 38 37 45 0F 80 F8 FF  .......s187E....
06D0: FF 7F F8 FF FF 7F 73 31  34 33 03 80 5B 14 80 90  ......s143..[...
06E0: 10 10 01 90 10 10 01 74  6C 6B 30 2B 90 10 10 01  .......tlk0+....
06F0: 4F 80 23 5B 14 80 90 10  10 01 90 10 10 01 74 6C  O.#[..........tl
0700: 6B 31 52 0F 80 F8 FF FF  7F F8 FF FF 7F 73 31 34  k1R..........s14
0710: 33 45 0F 80 F8 FF FF 7F  F8 FF FF 7F 73 31 34 34  3E..........s144
0720: 03 80 5B 50 80 95 10 10  01 95 10 10 01 74 6C 6B  ..[P.........tlk
0730: 30 2B 95 10 10 01 51 80  23 5B 50 80 95 10 10 01  0+....Q.#[P.....
0740: 95 10 10 01 74 6C 6B 31  52 0F 80 F8 FF FF 7F F8  ....tlk1R.......
0750: FF FF 7F 73 31 34 34 45  0F 80 F8 FF FF 7F F8 FF  ...s144E........
0760: FF 7F 73 31 34 35 03 80  66 52 80 96 10 10 01 96  ..s145..fR......
0770: 10 10 01 74 6C 6B 30 2B  96 10 10 01 53 80 23 2B  ...tlk0+....S.#+
0780: 96 10 10 01 54 80 23 66  52 80 96 10 10 01 96 10  ....T.#fR.......
0790: 10 01 74 6C 6B 31 52 0F  80 F8 FF FF 7F F8 FF FF  ..tlk1R.........
07A0: 7F 73 31 34 35 45 0F 80  F8 FF FF 7F F8 FF FF 7F  .s145E..........
07B0: 73 31 34 36 03 80 79 00  95 10 10 01 96 10 10 01  s146..y.........
07C0: 5B 50 80 95 10 10 01 95  10 10 01 6E 6F 6E 30 2B  [P.........non0+
07D0: 95 10 10 01 55 80 23 2B  95 10 10 01 56 80 23 66  ....U.#+....V.#f
07E0: 57 80 96 10 10 01 96 10  10 01 6D 73 75 30 52 0F  W.........msu0R.
07F0: 80 F8 FF FF 7F F8 FF FF  7F 73 31 34 36 45 0F 80  .........s146E..
0800: F8 FF FF 7F F8 FF FF 7F  73 31 34 37 03 80 2B 96  ........s147..+.
0810: 10 10 01 58 80 23 2B 96  10 10 01 59 80 23 66 57  ...X.#+....Y.#fW
0820: 80 96 10 10 01 96 10 10  01 6D 73 75 31 52 0F 80  .........msu1R..
0830: F8 FF FF 7F F8 FF FF 7F  73 31 34 37 45 0F 80 F8  ........s147E...
0840: FF FF 7F F8 FF FF 7F 73  31 34 38 03 80 79 00 F0  .......s148..y..
0850: FF FF 7F 96 10 10 01 2B  95 10 10 01 5A 80 23 52  .......+....Z.#R
0860: 0F 80 F8 FF FF 7F F8 FF  FF 7F 73 31 34 38 45 0F  ..........s148E.
0870: 80 F8 FF FF 7F F8 FF FF  7F 73 31 34 39 03 80 66  .........s149..f
0880: 57 80 96 10 10 01 96 10  10 01 6E 6D 6F 30 2B 96  W.........nmo0+.
0890: 10 10 01 5B 80 23 66 18  80 96 10 10 01 96 10 10  ...[.#f.........
08A0: 01 69 72 6F 30 2B 96 10  10 01 5C 80 23 52 0F 80  .iro0+....\.#R..
08B0: F8 FF FF 7F F8 FF FF 7F  73 31 34 39 45 0F 80 F8  ........s149E...
08C0: FF FF 7F F8 FF FF 7F 73  31 35 30 03 80 66 18 80  .......s150..f..
08D0: 96 10 10 01 96 10 10 01  70 6F 69 30 79 00 99 10  ........poi0y...
08E0: 10 01 96 10 10 01 79 00  93 10 10 01 96 10 10 01  ......y.........
08F0: 79 00 98 10 10 01 96 10  10 01 79 00 97 10 10 01  y.........y.....
0900: 96 10 10 01 79 00 94 10  10 01 96 10 10 01 2B 96  ....y.........+.
0910: 10 10 01 5D 80 23 52 0F  80 F8 FF FF 7F F8 FF FF  ...].#R.........
0920: 7F 73 31 35 30 45 0F 80  F8 FF FF 7F F8 FF FF 7F  .s150E..........
0930: 73 31 35 31 03 80 66 18  80 96 10 10 01 96 10 10  s151..f.........
0940: 01 73 79 75 30 2B 96 10  10 01 5E 80 23 52 0F 80  .syu0+....^.#R..
0950: F8 FF FF 7F F8 FF FF 7F  73 31 35 31 03 00 00 03  ........s151....
0960: 80 45 0F 80 F8 FF FF 7F  F8 FF FF 7F 73 31 35 32  .E..........s152
0970: 03 80 24 5F 80 03 80 03  80 25 02 00 10 04 80 00  ..$_.....%......
0980: A4 0A 02 00 00 03 80 00  91 09 29 05 F0 FF FF 7F  ..........).....
0990: 43 52 0F 80 F8 FF FF 7F  F8 FF FF 7F 73 31 35 32  CR..........s152
09A0: 52 0F 80 F8 FF FF 7F F8  FF FF 7F 73 31 39 31 02  R..........s191.
09B0: 87 7F 60 80 80 CB 09 45  0F 80 F8 FF FF 7F F8 FF  ..`....E........
09C0: FF 7F 73 31 38 39 03 80  01 F8 09 02 87 7F 61 80  ..s189........a.
09D0: 80 E7 09 45 0F 80 F8 FF  FF 7F F8 FF FF 7F 73 31  ...E..........s1
09E0: 38 39 03 80 01 F8 09 45  0F 80 F8 FF FF 7F F8 FF  89.....E........
09F0: FF 7F 73 31 38 38 03 80  4A 90 10 10 01 F0 FF FF  ..s188..J.......
0A00: 7F 1C 12 80 5B 14 80 90  10 10 01 90 10 10 01 74  ....[..........t
0A10: 6C 6B 30 2B 90 10 10 01  62 80 23 5B 14 80 90 10  lk0+....b.#[....
0A20: 10 01 90 10 10 01 74 6C  6B 31 4A 96 10 10 01 F0  ......tlk1J.....
0A30: FF FF 7F 1C 12 80 52 0F  80 F8 FF FF 7F F8 FF FF  ......R.........
0A40: 7F 73 31 38 38 52 0F 80  F8 FF FF 7F F8 FF FF 7F  .s188R..........
0A50: 73 31 38 39 45 0F 80 F8  FF FF 7F F8 FF FF 7F 73  s189E..........s
0A60: 31 39 30 03 80 6E 96 10  10 01 03 80 99 96 10 10  190..n..........
0A70: 01 2B 96 10 10 01 63 80  23 03 00 00 04 80 52 0F  .+....c.#.....R.
0A80: 80 F8 FF FF 7F F8 FF FF  7F 73 31 39 30 45 0F 80  .........s190E..
0A90: F8 FF FF 7F F8 FF FF 7F  73 31 39 31 03 80 01 72  ........s191...r
0AA0: 09 01 A4 0A 02 00 00 03  80 00 B3 0A 27 05 F0 FF  ............'...
0AB0: FF 7F 43 1A 3D C4 1C 12  80 52 0F 80 F8 FF FF 7F  ..C.=....R......
0AC0: F8 FF FF 7F 73 31 35 32  52 0F 80 F8 FF FF 7F F8  ....s152R.......
0AD0: FF FF 7F 73 31 39 31 7A  00 F0 FF FF 7F 2B 96 10  ...s191z.....+..
0AE0: 10 01 64 80 23 2B 96 10  10 01 65 80 23 4A 96 10  ..d.#+....e.#J..
0AF0: 10 01 95 10 10 01 1C 12  80 2B 96 10 10 01 66 80  .........+....f.
0B00: 23 BA F0 FF FF 7F 2C 80  2D 80 2E 80 2F 80 80 F0  #.....,.-.../...
0B10: FF FF 7F 4A 95 10 10 01  93 10 10 01 4A 90 10 10  ...J........J...
0B20: 01 93 10 10 01 4A F0 FF  FF 7F 93 10 10 01 4A 94  .....J........J.
0B30: 10 10 01 93 10 10 01 4A  A1 10 10 01 93 10 10 01  .......J........
0B40: 79 00 99 10 10 01 95 10  10 01 79 00 93 10 10 01  y.........y.....
0B50: 95 10 10 01 79 00 98 10  10 01 95 10 10 01 79 00  ....y.........y.
0B60: 97 10 10 01 93 10 10 01  66 67 80 96 10 10 01 96  ........fg......
0B70: 10 10 01 6F 72 7A 30 1C  12 80 45 0F 80 F8 FF FF  ...orz0...E.....
0B80: 7F F8 FF FF 7F 73 31 35  33 03 80 1C 10 80 1A 1C  .....s153.......
0B90: C4 66 68 80 93 10 10 01  93 10 10 01 74 6C 6B 30  .fh.........tlk0
0BA0: 2B 93 10 10 01 69 80 23  66 68 80 93 10 10 01 93  +....i.#fh......
0BB0: 10 10 01 74 6C 6B 31 52  0F 80 F8 FF FF 7F F8 FF  ...tlk1R........
0BC0: FF 7F 73 31 35 33 45 0F  80 F8 FF FF 7F F8 FF FF  ..s153E.........
0BD0: 7F 73 31 35 34 03 80 5B  50 80 95 10 10 01 95 10  .s154..[P.......
0BE0: 10 01 79 65 73 30 1C 6A  80 52 0F 80 F8 FF FF 7F  ..yes0.j.R......
0BF0: F8 FF FF 7F 73 31 35 34  45 0F 80 F8 FF FF 7F F8  ....s154E.......
0C00: FF FF 7F 73 31 35 35 03  80 5B 14 80 90 10 10 01  ...s155..[......
0C10: 90 10 10 01 74 6C 6B 30  66 6B 80 96 10 10 01 96  ....tlk0fk......
0C20: 10 10 01 73 77 61 30 4A  95 10 10 01 90 10 10 01  ...swa0J........
0C30: 2B 90 10 10 01 6C 80 23  5B 14 80 90 10 10 01 90  +....l.#[.......
0C40: 10 10 01 74 6C 6B 31 52  0F 80 F8 FF FF 7F F8 FF  ...tlk1R........
0C50: FF 7F 73 31 35 35 45 0F  80 F8 FF FF 7F F8 FF FF  ..s155E.........
0C60: 7F 73 31 35 36 03 80 4A  93 10 10 01 90 10 10 01  .s156..J........
0C70: 1C 12 80 6E 93 10 10 01  61 80 99 93 10 10 01 2B  ...n....a......+
0C80: 93 10 10 01 6D 80 23 79  00 93 10 10 01 95 10 10  ....m.#y........
0C90: 01 2B 93 10 10 01 6E 80  23 5B 50 80 95 10 10 01  .+....n.#[P.....
0CA0: 95 10 10 01 79 65 73 30  1C 48 80 52 0F 80 F8 FF  ....yes0.H.R....
0CB0: FF 7F F8 FF FF 7F 73 31  35 36 45 0F 80 F8 FF FF  ......s156E.....
0CC0: 7F F8 FF FF 7F 73 31 35  37 03 80 79 00 93 10 10  .....s157..y....
0CD0: 01 90 10 10 01 66 68 80  93 10 10 01 93 10 10 01  .....fh.........
0CE0: 74 6C 6B 30 2B 93 10 10  01 6F 80 23 66 68 80 93  tlk0+....o.#fh..
0CF0: 10 10 01 93 10 10 01 74  6C 6B 31 5B 1A 80 90 10  .......tlk1[....
0D00: 10 01 90 10 10 01 79 65  73 30 2B 90 10 10 01 70  ......yes0+....p
0D10: 80 23 1A 3D C4 1C 12 80  52 0F 80 F8 FF FF 7F F8  .#.=....R.......
0D20: FF FF 7F 73 31 35 37 2F  00 AC 10 10 01 4E 00 AC  ...s157/.....N..
0D30: 10 10 01 27 05 95 10 10  01 09 27 05 9F 10 10 01  ...'......'.....
0D40: 1D 27 05 A0 10 10 01 23  27 05 90 10 10 01 1B 27  .'.....#'......'
0D50: 05 A1 10 10 01 21 59 05  AC 10 10 01 01 BA 90 10  .....!Y.........
0D60: 10 01 71 80 72 80 2E 80  73 80 BA A1 10 10 01 71  ..q.r...s......q
0D70: 80 72 80 74 80 75 80 BA  93 10 10 01 76 80 77 80  .r.t.u......v.w.
0D80: 2B 80 78 80 BA 96 10 10  01 79 80 7A 80 2B 80 78  +.x......y.z.+.x
0D90: 80 BA 95 10 10 01 7B 80  7C 80 2B 80 7D 80 BA 94  ......{.|.+.}...
0DA0: 10 10 01 7E 80 7F 80 2B  80 78 80 BA 9F 10 10 01  ...~...+.x......
0DB0: 71 80 72 80 2E 80 75 80  BA A0 10 10 01 80 80 81  q.r...u.........
0DC0: 80 2B 80 82 80 BA AC 10  10 01 71 80 72 80 74 80  .+........q.r.t.
0DD0: 75 80 BA 99 10 10 01 83  80 84 80 2B 80 82 80 80  u..........+....
0DE0: 96 10 10 01 80 93 10 10  01 80 9F 10 10 01 80 A1  ................
0DF0: 10 10 01 80 95 10 10 01  80 90 10 10 01 80 94 10  ................
0E00: 10 01 80 9F 10 10 01 80  A0 10 10 01 80 AC 10 10  ................
0E10: 01 80 99 10 10 01 4A 96  10 10 01 90 10 10 01 4A  ......J........J
0E20: 93 10 10 01 90 10 10 01  4A 95 10 10 01 A1 10 10  ........J.......
0E30: 01 4A 94 10 10 01 90 10  10 01 4A A0 10 10 01 A1  .J........J.....
0E40: 10 10 01 4A 99 10 10 01  A1 10 10 01 1C 12 80 66  ...J...........f
0E50: 57 80 96 10 10 01 96 10  10 01 62 69 6B 30 5B 85  W.........bik0[.
0E60: 80 A1 10 10 01 A1 10 10  01 6D 61 6E 32 5B 86 80  .........man2[..
0E70: AC 10 10 01 AC 10 10 01  62 65 64 31 1C 28 80 5B  ........bed1.(.[
0E80: 87 80 9F 10 10 01 9F 10  10 01 62 65 64 32 1C 28  ..........bed2.(
0E90: 80 45 88 80 F8 FF FF 7F  F8 FF FF 7F 73 30 39 38  .E..........s098
0EA0: 03 80 1C 10 80 45 89 80  F0 FF FF 7F F0 FF FF 7F  .....E..........
0EB0: 65 66 6F 6E 03 80 7C 00  93 10 10 01 2B 93 10 10  efon..|.....+...
0EC0: 01 8A 80 23 52 88 80 F8  FF FF 7F F8 FF FF 7F 73  ...#R..........s
0ED0: 30 39 38 45 88 80 F8 FF  FF 7F F8 FF FF 7F 73 30  098E..........s0
0EE0: 34 31 03 80 2B 93 10 10  01 8B 80 23 7C 01 93 10  41..+......#|...
0EF0: 10 01 1A 3D C4 1C 12 80  52 88 80 F8 FF FF 7F F8  ...=....R.......
0F00: FF FF 7F 73 30 34 31 6B  69 64 6C 30 A1 10 10 01  ...s041kidl0....
0F10: 7B A0 10 10 01 27 05 95  10 10 01 0A 27 05 9F 10  {....'......'...
0F20: 10 01 1E 27 05 A0 10 10  01 20 27 05 A1 10 10 01  ...'..... '.....
0F30: 14 BA A0 10 10 01 38 80  39 80 2E 80 03 80 BA A1  ......8.9.......
0F40: 10 10 01 3A 80 3B 80 3D  80 3C 80 BA 96 10 10 01  ...:.;.=.<......
0F50: 32 80 33 80 2E 80 0C 80  BA 93 10 10 01 36 80 37  2.3..........6.7
0F60: 80 2B 80 0C 80 BA 95 10  10 01 30 80 31 80 2B 80  .+........0.1.+.
0F70: 0C 80 BA 90 10 10 01 29  80 2A 80 2B 80 0C 80 BA  .......).*.+....
0F80: 94 10 10 01 34 80 35 80  2E 80 0C 80 BA A0 10 10  ....4.5.........
0F90: 01 38 80 39 80 2E 80 03  80 BA 9F 10 10 01 3A 80  .8.9..........:.
0FA0: 3B 80 2E 80 3C 80 BA A1  10 10 01 3A 80 3B 80 3D  ;...<......:.;.=
0FB0: 80 3C 80 BA 99 10 10 01  43 80 44 80 2E 80 45 80  .<......C.D...E.
0FC0: 80 96 10 10 01 80 93 10  10 01 80 9F 10 10 01 80  ................
0FD0: A0 10 10 01 80 A1 10 10  01 80 95 10 10 01 80 90  ................
0FE0: 10 10 01 80 94 10 10 01  80 99 10 10 01 4A 96 10  .............J..
0FF0: 10 01 93 10 10 01 4A 93  10 10 01 90 10 10 01 4A  ......J........J
1000: 95 10 10 01 90 10 10 01  4A 98 10 10 01 93 10 10  ........J.......
1010: 01 4A 90 10 10 01 93 10  10 01 4A 94 10 10 01 93  .J........J.....
1020: 10 10 01 4A 99 10 10 01  93 10 10 01 7B 95 10 10  ...J........{...
1030: 01 1C 12 80 81 00 A0 10  10 01 7C 00 A0 10 10 01  ..........|.....
1040: 5B 47 80 A0 10 10 01 A0  10 10 01 66 61 30 30 66  [G.........fa00f
1050: 6B 80 96 10 10 01 96 10  10 01 73 77 61 30 1A E4  k.........swa0..
1060: C5 89 8C 80 1C 28 80 B4  14 8D 80 8E 80 8F 80 03  .....(..........
1070: 80 04 80 1C 28 80 B4 14  8D 80 90 80 91 80 92 80  ....(...........
1080: 04 80 03 02 10 93 80 27  10 72 10 10 01 01 1A D2  .......'.r......
1090: C5 1C 28 80 2B 93 10 10  01 94 80 23 2B 93 10 10  ..(.+......#+...
10A0: 01 95 80 23 2A 10 72 10  10 01 1A E4 C5 8A B4 15  ...#*.r.........
10B0: 1A D2 C5 66 68 80 93 10  10 01 93 10 10 01 74 6C  ...fh.........tl
10C0: 6B 30 45 0F 80 F8 FF FF  7F F8 FF FF 7F 73 31 35  k0E..........s15
10D0: 38 03 80 1C 10 80 1A 1C  C4 2B 93 10 10 01 96 80  8........+......
10E0: 23 52 0F 80 F8 FF FF 7F  F8 FF FF 7F 73 31 35 38  #R..........s158
10F0: 45 0F 80 F8 FF FF 7F F8  FF FF 7F 73 31 35 39 03  E..........s159.
1100: 80 2B 93 10 10 01 97 80  23 66 68 80 93 10 10 01  .+......#fh.....
1110: 93 10 10 01 74 6C 6B 31  5B 1A 80 90 10 10 01 90  ....tlk1[.......
1120: 10 10 01 79 65 73 30 5B  98 80 94 10 10 01 94 10  ...yes0[........
1130: 10 01 79 65 73 30 1C 48  80 52 0F 80 F8 FF FF 7F  ..yes0.H.R......
1140: F8 FF FF 7F 73 31 35 39  45 0F 80 F8 FF FF 7F F8  ....s159E.......
1150: FF FF 7F 73 31 36 30 03  80 79 00 93 10 10 01 F0  ...s160..y......
1160: FF FF 7F 66 68 80 93 10  10 01 93 10 10 01 74 6C  ...fh.........tl
1170: 6B 30 2B 93 10 10 01 99  80 23 66 68 80 93 10 10  k0+......#fh....
1180: 01 93 10 10 01 74 6C 6B  31 24 9A 80 03 80 03 80  .....tlk1$......
1190: 25 02 00 10 03 80 00 AB  11 52 0F 80 F8 FF FF 7F  %........R......
11A0: F8 FF FF 7F 73 31 36 30  01 02 12 02 00 10 04 80  ....s160........
11B0: 00 02 12 52 0F 80 F8 FF  FF 7F F8 FF FF 7F 73 31  ...R..........s1
11C0: 36 30 45 0F 80 F8 FF FF  7F F8 FF FF 7F 73 31 36  60E..........s16
11D0: 31 03 80 6E 93 10 10 01  1F 80 99 93 10 10 01 2B  1..n...........+
11E0: 93 10 10 01 9B 80 23 1A  3D C4 1C 12 80 52 0F 80  ......#.=....R..
11F0: F8 FF FF 7F F8 FF FF 7F  73 31 36 31 01 27 0D 01  ........s161.'..
1200: 02 12 45 0F 80 F8 FF FF  7F F8 FF FF 7F 73 31 36  ..E..........s16
1210: 34 03 80 66 68 80 93 10  10 01 93 10 10 01 74 6C  4..fh.........tl
1220: 6B 30 2B 93 10 10 01 9C  80 23 2B 93 10 10 01 9D  k0+......#+.....
1230: 80 23 2B 93 10 10 01 9E  80 23 52 0F 80 F8 FF FF  .#+......#R.....
1240: 7F F8 FF FF 7F 73 31 36  34 45 0F 80 F8 FF FF 7F  .....s164E......
1250: F8 FF FF 7F 73 31 36 35  03 80 79 00 93 10 10 01  ....s165..y.....
1260: F0 FF FF 7F 2B 93 10 10  01 9F 80 23 66 68 80 93  ....+......#fh..
1270: 10 10 01 93 10 10 01 74  6C 6B 31 03 02 10 8B 7F  .......tlk1.....
1280: 5B 14 80 90 10 10 01 90  10 10 01 74 6C 6B 30 2B  [..........tlk0+
1290: 90 10 10 01 A0 80 23 5B  14 80 90 10 10 01 90 10  ......#[........
12A0: 10 01 74 6C 6B 31 6E 93  10 10 01 1F 80 99 93 10  ..tlk1n.........
12B0: 10 01 1C 11 80 52 0F 80  F8 FF FF 7F F8 FF FF 7F  .....R..........
12C0: 73 31 36 35 45 0F 80 F8  FF FF 7F F8 FF FF 7F 73  s165E..........s
12D0: 31 36 36 03 80 5B 98 80  94 10 10 01 94 10 10 01  166..[..........
12E0: 74 6C 6B 30 2B 94 10 10  01 A1 80 23 5B 98 80 94  tlk0+......#[...
12F0: 10 10 01 94 10 10 01 74  6C 6B 31 52 0F 80 F8 FF  .......tlk1R....
1300: FF 7F F8 FF FF 7F 73 31  36 36 45 0F 80 F8 FF FF  ......s166E.....
1310: 7F F8 FF FF 7F 73 31 36  37 03 80 79 00 93 10 10  .....s167..y....
1320: 01 94 10 10 01 66 68 80  93 10 10 01 93 10 10 01  .....fh.........
1330: 74 6C 6B 30 2B 93 10 10  01 A2 80 23 66 68 80 93  tlk0+......#fh..
1340: 10 10 01 93 10 10 01 74  6C 6B 31 5B A3 80 90 10  .......tlk1[....
1350: 10 01 90 10 10 01 62 69  6B 30 52 0F 80 F8 FF FF  ......bik0R.....
1360: 7F F8 FF FF 7F 73 31 36  37 45 0F 80 F8 FF FF 7F  .....s167E......
1370: F8 FF FF 7F 73 31 36 38  03 80 79 00 93 10 10 01  ....s168..y.....
1380: 90 10 10 01 2B 90 10 10  01 A4 80 23 1A 3D C4 1C  ....+......#.=..
1390: 12 80 52 0F 80 F8 FF FF  7F F8 FF FF 7F 73 31 36  ..R..........s16
13A0: 38 6B 69 64 6C 30 90 10  10 01 1A E4 C5 89 A5 80  8kidl0..........
13B0: 1C 28 80 B4 14 A6 80 A7  80 A8 80 03 80 04 80 1C  .(..............
13C0: 28 80 B4 14 A6 80 A9 80  AA 80 92 80 04 80 03 02  (...............
13D0: 10 93 80 27 10 72 10 10  01 01 1A D2 C5 1C 28 80  ...'.r........(.
13E0: 2B 93 10 10 01 AB 80 23  2B 93 10 10 01 AC 80 23  +......#+......#
13F0: 2A 10 72 10 10 01 1A E4  C5 8A B4 15 1A D2 C5 4E  *.r............N
1400: 01 F0 FF FF 7F 45 0F 80  F8 FF FF 7F F8 FF FF 7F  .....E..........
1410: 73 31 37 31 03 80 1C 10  80 1A 1C C4 66 68 80 93  s171........fh..
1420: 10 10 01 93 10 10 01 74  6C 6B 30 2B 93 10 10 01  .......tlk0+....
1430: AD 80 23 2B 93 10 10 01  AE 80 23 52 0F 80 F8 FF  ..#+......#R....
1440: FF 7F F8 FF FF 7F 73 31  37 31 45 0F 80 F8 FF FF  ......s171E.....
1450: 7F F8 FF FF 7F 73 31 39  32 03 80 2B 93 10 10 01  .....s192..+....
1460: AF 80 23 66 68 80 93 10  10 01 93 10 10 01 74 6C  ..#fh.........tl
1470: 6B 31 52 0F 80 F8 FF FF  7F F8 FF FF 7F 73 31 39  k1R..........s19
1480: 32 45 0F 80 F8 FF FF 7F  F8 FF FF 7F 73 31 37 32  2E..........s172
1490: 03 80 2B 90 10 10 01 B0  80 23 52 0F 80 F8 FF FF  ..+......#R.....
14A0: 7F F8 FF FF 7F 73 31 37  32 45 0F 80 F8 FF FF 7F  .....s172E......
14B0: F8 FF FF 7F 73 31 39 33  03 80 66 68 80 93 10 10  ....s193..fh....
14C0: 01 93 10 10 01 74 6C 6B  30 2B 93 10 10 01 B1 80  .....tlk0+......
14D0: 23 2B 93 10 10 01 B2 80  23 1A 3D C4 1C 12 80 52  #+......#.=....R
14E0: 0F 80 F8 FF FF 7F F8 FF  FF 7F 73 31 39 33 6B 69  ..........s193ki
14F0: 64 6C 30 93 10 10 01 4E  00 F0 FF FF 7F 1A E4 C5  dl0....N........
1500: 89 B3 80 1C 28 80 B4 14  A6 80 A7 80 A8 80 03 80  ....(...........
1510: 04 80 1C 28 80 B4 14 A6  80 A9 80 AA 80 92 80 04  ...(............
1520: 80 03 02 10 93 80 27 10  72 10 10 01 01 1A D2 C5  ......'.r.......
1530: 1C 28 80 2B 93 10 10 01  B4 80 23 2A 10 72 10 10  .(.+......#*.r..
1540: 01 1A E4 C5 8A B4 15 1A  D2 C5 45 0F 80 F8 FF FF  ..........E.....
1550: 7F F8 FF FF 7F 73 31 37  33 03 80 1C 10 80 1A 1C  .....s173.......
1560: C4 5B B5 80 90 10 10 01  90 10 10 01 74 68 6B 30  .[..........thk0
1570: 2B 90 10 10 01 B6 80 23  5B B5 80 90 10 10 01 90  +......#[.......
1580: 10 10 01 74 68 6B 31 52  0F 80 F8 FF FF 7F F8 FF  ...thk1R........
1590: FF 7F 73 31 37 33 45 0F  80 F8 FF FF 7F F8 FF FF  ..s173E.........
15A0: 7F 73 31 37 34 03 80 66  68 80 93 10 10 01 93 10  .s174..fh.......
15B0: 10 01 74 6C 6B 30 2B 93  10 10 01 B7 80 23 52 0F  ..tlk0+......#R.
15C0: 80 F8 FF FF 7F F8 FF FF  7F 73 31 37 34 45 0F 80  .........s174E..
15D0: F8 FF FF 7F F8 FF FF 7F  73 31 37 35 03 80 2B 93  ........s175..+.
15E0: 10 10 01 B8 80 23 2B 93  10 10 01 B9 80 23 1A 3D  .....#+......#.=
15F0: C4 1C 12 80 52 0F 80 F8  FF FF 7F F8 FF FF 7F 73  ....R..........s
1600: 31 37 35 1A E4 C5 89 A5  80 1C 28 80 B4 14 BA 80  175.......(.....
1610: BB 80 BC 80 03 80 04 80  1C 28 80 B4 14 BD 80 BB  .........(......
1620: 80 BC 80 92 80 04 80 03  02 10 6A 80 27 10 72 10  ..........j.'.r.
1630: 10 01 01 1A D2 C5 1C 28  80 2B 90 10 10 01 BE 80  .......(.+......
1640: 23 2A 10 72 10 10 01 1A  E4 C5 8A B4 15 1A D2 C5  #*.r............
1650: 45 0F 80 F8 FF FF 7F F8  FF FF 7F 73 31 37 36 03  E..........s176.
1660: 80 1C 10 80 1A 1C C4 2B  93 10 10 01 BF 80 23 2B  .......+......#+
1670: 93 10 10 01 C0 80 23 66  68 80 93 10 10 01 93 10  ......#fh.......
1680: 10 01 74 6C 6B 31 52 0F  80 F8 FF FF 7F F8 FF FF  ..tlk1R.........
1690: 7F 73 31 37 36 45 0F 80  F8 FF FF 7F F8 FF FF 7F  .s176E..........
16A0: 73 31 37 37 03 80 4A 94  10 10 01 96 10 10 01 5B  s177..J........[
16B0: 50 80 95 10 10 01 95 10  10 01 74 6C 6B 30 2B 95  P.........tlk0+.
16C0: 10 10 01 C1 80 23 5B 50  80 95 10 10 01 95 10 10  .....#[P........
16D0: 01 74 6C 6B 31 52 0F 80  F8 FF FF 7F F8 FF FF 7F  .tlk1R..........
16E0: 73 31 37 37 45 0F 80 F8  FF FF 7F F8 FF FF 7F 73  s177E..........s
16F0: 31 37 38 03 80 66 6B 80  96 10 10 01 96 10 10 01  178..fk.........
1700: 73 77 61 31 79 00 99 10  10 01 96 10 10 01 79 00  swa1y.........y.
1710: 98 10 10 01 96 10 10 01  79 00 93 10 10 01 96 10  ........y.......
1720: 10 01 79 00 97 10 10 01  96 10 10 01 79 00 95 10  ..y.........y...
1730: 10 01 96 10 10 01 2B 96  10 10 01 C2 80 23 66 18  ......+......#f.
1740: 80 96 10 10 01 96 10 10  01 64 69 73 30 2B 96 10  .........dis0+..
1750: 10 01 C3 80 23 52 0F 80  F8 FF FF 7F F8 FF FF 7F  ....#R..........
1760: 73 31 37 38 45 0F 80 F8  FF FF 7F F8 FF FF 7F 73  s178E..........s
1770: 31 39 34 03 80 7C 00 99  10 10 01 2B 99 10 10 01  194..|.....+....
1780: C4 80 23 7C 01 99 10 10  01 52 0F 80 F8 FF FF 7F  ..#|.....R......
1790: F8 FF FF 7F 73 31 39 34  45 0F 80 F8 FF FF 7F F8  ....s194E.......
17A0: FF FF 7F 73 31 35 30 03  80 66 18 80 96 10 10 01  ...s150..f......
17B0: 96 10 10 01 70 6F 69 30  4A F0 FF FF 7F 96 10 10  ....poi0J.......
17C0: 01 2B 96 10 10 01 C5 80  23 52 0F 80 F8 FF FF 7F  .+......#R......
17D0: F8 FF FF 7F 73 31 35 30  45 0F 80 F8 FF FF 7F F8  ....s150E.......
17E0: FF FF 7F 73 31 35 31 03  80 66 18 80 96 10 10 01  ...s151..f......
17F0: 96 10 10 01 73 79 75 30  2B 96 10 10 01 C6 80 23  ....syu0+......#
1800: 52 0F 80 F8 FF FF 7F F8  FF FF 7F 73 31 35 31 03  R..........s151.
1810: 00 00 03 80 45 0F 80 F8  FF FF 7F F8 FF FF 7F 73  ....E..........s
1820: 31 35 32 03 80 24 5F 80  03 80 03 80 25 02 00 10  152..$_.....%...
1830: 04 80 00 57 19 02 00 00  03 80 00 44 18 29 05 F0  ...W.......D.)..
1840: FF FF 7F 43 52 0F 80 F8  FF FF 7F F8 FF FF 7F 73  ...CR..........s
1850: 31 35 32 52 0F 80 F8 FF  FF 7F F8 FF FF 7F 73 31  152R..........s1
1860: 39 31 02 87 7F 60 80 80  7E 18 45 0F 80 F8 FF FF  91...`..~.E.....
1870: 7F F8 FF FF 7F 73 31 38  39 03 80 01 AB 18 02 87  .....s189.......
1880: 7F 61 80 80 9A 18 45 0F  80 F8 FF FF 7F F8 FF FF  .a....E.........
1890: 7F 73 31 38 39 03 80 01  AB 18 45 0F 80 F8 FF FF  .s189.....E.....
18A0: 7F F8 FF FF 7F 73 31 38  38 03 80 4A 90 10 10 01  .....s188..J....
18B0: F0 FF FF 7F 1C 12 80 5B  14 80 90 10 10 01 90 10  .......[........
18C0: 10 01 74 6C 6B 30 2B 90  10 10 01 62 80 23 5B 14  ..tlk0+....b.#[.
18D0: 80 90 10 10 01 90 10 10  01 74 6C 6B 31 4A 96 10  .........tlk1J..
18E0: 10 01 F0 FF FF 7F 1C 12  80 52 0F 80 F8 FF FF 7F  .........R......
18F0: F8 FF FF 7F 73 31 38 38  52 0F 80 F8 FF FF 7F F8  ....s188R.......
1900: FF FF 7F 73 31 38 39 45  0F 80 F8 FF FF 7F F8 FF  ...s189E........
1910: FF 7F 73 31 39 30 03 80  6E 96 10 10 01 03 80 99  ..s190..n.......
1920: 96 10 10 01 2B 96 10 10  01 63 80 23 03 00 00 04  ....+....c.#....
1930: 80 52 0F 80 F8 FF FF 7F  F8 FF FF 7F 73 31 39 30  .R..........s190
1940: 45 0F 80 F8 FF FF 7F F8  FF FF 7F 73 31 39 31 03  E..........s191.
1950: 80 01 25 18 01 57 19 02  00 00 03 80 00 66 19 27  ..%..W.......f.'
1960: 05 F0 FF FF 7F 43 1A 3D  C4 1C 12 80 52 0F 80 F8  .....C.=....R...
1970: FF FF 7F F8 FF FF 7F 73  31 35 32 2B 96 10 10 01  .......s152+....
1980: C7 80 23 4A 96 10 10 01  93 10 10 01 1C 12 80 2B  ..#J...........+
1990: 96 10 10 01 66 80 23 BA  F0 FF FF 7F 2C 80 2D 80  ....f.#.....,.-.
19A0: 2E 80 2F 80 80 F0 FF FF  7F 66 67 80 96 10 10 01  ../......fg.....
19B0: 96 10 10 01 6F 72 7A 30  4A F0 FF FF 7F 95 10 10  ....orz0J.......
19C0: 01 4A 90 10 10 01 95 10  10 01 4A 94 10 10 01 95  .J........J.....
19D0: 10 10 01 4A 93 10 10 01  95 10 10 01 4A 95 10 10  ...J........J...
19E0: 01 90 10 10 01 79 00 99  10 10 01 95 10 10 01 79  .....y.........y
19F0: 00 98 10 10 01 95 10 10  01 79 00 97 10 10 01 95  .........y......
1A00: 10 10 01 1C 12 80 45 0F  80 F8 FF FF 7F F8 FF FF  ......E.........
1A10: 7F 73 31 37 39 03 80 1C  10 80 1A 1C C4 2B 95 10  .s179........+..
1A20: 10 01 C8 80 23 7C 00 90  10 10 01 2B 90 10 10 01  ....#|.....+....
1A30: C9 80 23 7C 01 90 10 10  01 52 0F 80 F8 FF FF 7F  ..#|.....R......
1A40: F8 FF FF 7F 73 31 37 39  45 0F 80 F8 FF FF 7F F8  ....s179E.......
1A50: FF FF 7F 73 31 38 30 03  80 5B 50 80 95 10 10 01  ...s180..[P.....
1A60: 95 10 10 01 74 6C 6B 30  2B 95 10 10 01 CA 80 23  ....tlk0+......#
1A70: 5B 50 80 95 10 10 01 95  10 10 01 74 6C 6B 31 5B  [P.........tlk1[
1A80: A3 80 90 10 10 01 90 10  10 01 62 69 6B 30 52 0F  ..........bik0R.
1A90: 80 F8 FF FF 7F F8 FF FF  7F 73 31 38 30 45 0F 80  .........s180E..
1AA0: F8 FF FF 7F F8 FF FF 7F  73 31 38 31 03 80 2B 90  ........s181..+.
1AB0: 10 10 01 CB 80 23 52 0F  80 F8 FF FF 7F F8 FF FF  .....#R.........
1AC0: 7F 73 31 38 31 45 0F 80  F8 FF FF 7F F8 FF FF 7F  .s181E..........
1AD0: 73 31 39 35 03 80 2B 95  10 10 01 CC 80 23 1A 3D  s195..+......#.=
1AE0: C4 1C 12 80 52 0F 80 F8  FF FF 7F F8 FF FF 7F 73  ....R..........s
1AF0: 31 39 35 6B 69 64 6C 30  90 10 10 01 6B 69 64 6C  195kidl0....kidl
1B00: 30 96 10 10 01 7B 95 10  10 01 2F 00 A2 10 10 01  0....{..../.....
1B10: 4E 00 A2 10 10 01 29 05  95 10 10 01 09 94 01 A2  N.....).........
1B20: 10 10 01 BA 95 10 10 01  30 80 31 80 2B 80 0C 80  ........0.1.+...
1B30: BA A2 10 10 01 30 80 31  80 2B 80 0C 80 80 95 10  .....0.1.+......
1B40: 10 01 80 A2 10 10 01 4A  96 10 10 01 95 10 10 01  .......J........
1B50: 4A 98 10 10 01 95 10 10  01 4A 99 10 10 01 95 10  J........J......
1B60: 10 01 4A A1 10 10 01 95  10 10 01 7B 98 10 10 01  ..J........{....
1B70: 7B 97 10 10 01 7B 99 10  10 01 1C 12 80 27 10 73  {....{.......'.s
1B80: 10 10 01 20 1C 12 80 AE  05 95 10 10 01 A2 10 10  ... ............
1B90: 01 5B CD 80 95 10 10 01  95 10 10 01 66 75 73 6C  .[..........fusl
1BA0: 5B CE 80 A2 10 10 01 A2  10 10 01 66 75 73 6C 48  [..........fuslH
1BB0: 46 80 23 1C 12 80 45 0F  80 F8 FF FF 7F F8 FF FF  F.#...E.........
1BC0: 7F 73 31 39 36 03 80 1C  10 80 1A 1C C4 2B 95 10  .s196........+..
1BD0: 10 01 CF 80 23 52 0F 80  F8 FF FF 7F F8 FF FF 7F  ....#R..........
1BE0: 73 31 39 36 45 0F 80 F8  FF FF 7F F8 FF FF 7F 73  s196E..........s
1BF0: 32 31 30 03 80 2B 95 10  10 01 D0 80 23 52 0F 80  210..+......#R..
1C00: F8 FF FF 7F F8 FF FF 7F  73 32 31 30 45 0F 80 F8  ........s210E...
1C10: FF FF 7F F8 FF FF 7F 73  31 39 37 03 80 1C 28 80  .......s197...(.
1C20: 6B 69 64 6C 30 95 10 10  01 59 05 95 10 10 01 01  kidl0....Y......
1C30: 59 05 A2 10 10 01 01 BA  95 10 10 01 D1 80 D2 80  Y...............
1C40: 2E 80 D3 80 BA A2 10 10  01 D1 80 D2 80 2E 80 D3  ................
1C50: 80 80 95 10 10 01 80 A2  10 10 01 4A A1 10 10 01  ...........J....
1C60: A2 10 10 01 1C 12 80 5B  CD 80 95 10 10 01 95 10  .......[........
1C70: 10 01 66 75 73 30 5B CE  80 A2 10 10 01 A2 10 10  ..fus0[.........
1C80: 01 66 75 73 30 1C 12 80  52 0F 80 F8 FF FF 7F F8  .fus0...R.......
1C90: FF FF 7F 73 31 39 37 45  0F 80 F8 FF FF 7F F8 FF  ...s197E........
1CA0: FF 7F 73 31 39 38 03 80  1C D4 80 52 0F 80 F8 FF  ..s198.....R....
1CB0: FF 7F F8 FF FF 7F 73 31  39 38 45 0F 80 F8 FF FF  ......s198E.....
1CC0: 7F F8 FF FF 7F 73 31 39  39 03 80 CD D5 80 A2 10  .....s199.......
1CD0: 10 01 A2 10 10 01 6B 65  69 30 03 80 2B 95 10 10  ......kei0..+...
1CE0: 01 D6 80 23 2B 95 10 10  01 D7 80 23 52 0F 80 F8  ...#+......#R...
1CF0: FF FF 7F F8 FF FF 7F 73  31 39 39 45 0F 80 F8 FF  .......s199E....
1D00: FF 7F F8 FF FF 7F 73 32  30 30 03 80 2B 95 10 10  ......s200..+...
1D10: 01 D8 80 23 5B 14 80 90  10 10 01 90 10 10 01 74  ...#[..........t
1D20: 6C 6B 30 2B 90 10 10 01  D9 80 23 5B 14 80 90 10  lk0+......#[....
1D30: 10 01 90 10 10 01 74 6C  6B 31 52 0F 80 F8 FF FF  ......tlk1R.....
1D40: 7F F8 FF FF 7F 73 32 30  30 45 0F 80 F8 FF FF 7F  .....s200E......
1D50: F8 FF FF 7F 73 32 30 31  03 80 79 00 94 10 10 01  ....s201..y.....
1D60: 90 10 10 01 1C 10 80 AE  06 A2 10 10 01 6B 69 64  .............kid
1D70: 6C 30 95 10 10 01 BA 95  10 10 01 DA 80 DB 80 2E  l0..............
1D80: 80 40 80 4A 95 10 10 01  F0 FF FF 7F 4A 93 10 10  .@.J........J...
1D90: 01 F0 FF FF 7F 4A 98 10  10 01 F0 FF FF 7F 4A 96  .....J........J.
1DA0: 10 10 01 F0 FF FF 7F 4A  99 10 10 01 F0 FF FF 7F  .......J........
1DB0: 4A 97 10 10 01 F0 FF FF  7F 4A A1 10 10 01 F0 FF  J........J......
1DC0: FF 7F 4A F0 FF FF 7F 90  10 10 01 1C 12 80 5B 98  ..J...........[.
1DD0: 80 94 10 10 01 94 10 10  01 74 6C 6B 30 03 02 10  .........tlk0...
1DE0: 8B 7F 2B 94 10 10 01 DC  80 23 5B 98 80 94 10 10  ..+......#[.....
1DF0: 01 94 10 10 01 74 6C 6B  31 52 0F 80 F8 FF FF 7F  .....tlk1R......
1E00: F8 FF FF 7F 73 32 30 31  45 0F 80 F8 FF FF 7F F8  ....s201E.......
1E10: FF FF 7F 73 32 30 32 03  80 4A 90 10 10 01 F0 FF  ...s202..J......
1E20: FF 7F 4A 94 10 10 01 F0  FF FF 7F 1C 48 80 52 0F  ..J.........H.R.
1E30: 80 F8 FF FF 7F F8 FF FF  7F 73 32 30 32 45 0F 80  .........s202E..
1E40: F8 FF FF 7F F8 FF FF 7F  73 32 30 33 03 80 6E 93  ........s203..n.
1E50: 10 10 01 1F 80 99 93 10  10 01 2B 93 10 10 01 DD  ..........+.....
1E60: 80 23 52 0F 80 F8 FF FF  7F F8 FF FF 7F 73 32 30  .#R..........s20
1E70: 33 45 0F 80 F8 FF FF 7F  F8 FF FF 7F 73 32 30 34  3E..........s204
1E80: 03 80 5B 98 80 94 10 10  01 94 10 10 01 79 65 73  ..[..........yes
1E90: 30 2B 94 10 10 01 DE 80  23 52 0F 80 F8 FF FF 7F  0+......#R......
1EA0: F8 FF FF 7F 73 32 30 34  45 0F 80 F8 FF FF 7F F8  ....s204E.......
1EB0: FF FF 7F 73 32 30 35 03  80 5B 98 80 94 10 10 01  ...s205..[......
1EC0: 94 10 10 01 74 6C 6B 30  2B 94 10 10 01 DF 80 23  ....tlk0+......#
1ED0: 2B 94 10 10 01 E0 80 23  5B 98 80 94 10 10 01 94  +......#[.......
1EE0: 10 10 01 74 6C 6B 31 52  0F 80 F8 FF FF 7F F8 FF  ...tlk1R........
1EF0: FF 7F 73 32 30 35 45 0F  80 F8 FF FF 7F F8 FF FF  ..s205E.........
1F00: 7F 73 32 30 36 03 80 6E  97 10 10 01 1F 80 99 97  .s206..n........
1F10: 10 10 01 6E 99 10 10 01  1F 80 99 99 10 10 01 5B  ...n...........[
1F20: 4D 80 98 10 10 01 98 10  10 01 68 65 6E 30 1C 48  M.........hen0.H
1F30: 80 52 0F 80 F8 FF FF 7F  F8 FF FF 7F 73 32 30 36  .R..........s206
1F40: 45 0F 80 F8 FF FF 7F F8  FF FF 7F 73 32 30 37 03  E..........s207.
1F50: 80 66 68 80 93 10 10 01  93 10 10 01 74 6C 6B 30  .fh.........tlk0
1F60: 2B 93 10 10 01 E1 80 23  2B 93 10 10 01 E2 80 23  +......#+......#
1F70: 66 68 80 93 10 10 01 93  10 10 01 74 6C 6B 31 52  fh.........tlk1R
1F80: 0F 80 F8 FF FF 7F F8 FF  FF 7F 73 32 30 37 45 0F  ..........s207E.
1F90: 80 F8 FF FF 7F F8 FF FF  7F 73 32 30 38 03 80 24  .........s208..$
1FA0: E3 80 03 80 03 80 25 02  00 10 04 80 00 0A 20 52  ......%....... R
1FB0: 0F 80 F8 FF FF 7F F8 FF  FF 7F 73 32 30 38 45 0F  ..........s208E.
1FC0: 80 F8 FF FF 7F F8 FF FF  7F 73 32 30 39 03 80 5B  .........s209..[
1FD0: 98 80 94 10 10 01 94 10  10 01 74 6C 6B 30 2B 94  ..........tlk0+.
1FE0: 10 10 01 E4 80 23 5B 98  80 94 10 10 01 94 10 10  .....#[.........
1FF0: 01 74 6C 6B 31 52 0F 80  F8 FF FF 7F F8 FF FF 7F  .tlk1R..........
2000: 73 32 30 39 01 8E 1F 01  0A 20 6E F0 FF FF 7F 1F  s209..... n.....
2010: 80 99 F0 FF FF 7F 1C 11  80 1A 3D C4 1C 12 80 52  ..........=....R
2020: 0F 80 F8 FF FF 7F F8 FF  FF 7F 73 32 30 38 CD D5  ..........s208..
2030: 80 A2 10 10 01 A2 10 10  01 6B 65 6B 6C 03 80 27  .........kekl..'
2040: 05 9F 10 10 01 0C 27 05  A0 10 10 01 0B 27 05 A1  ......'......'..
2050: 10 10 01 0A 27 05 A2 10  10 01 09 1C 10 80 AB 11  ....'...........
2060: 03 80 1C 04 80 35 E5 80  78 1C 10 80 AB 0A 46 00  .....5..x.....F.
2070: 45 D4 80 F0 FF FF 7F F0  FF FF 7F 66 64 69 32 03  E..........fdi2.
2080: 80 21 00                                          .!.             
```

#### Opcodes

```
  0: 0x0001 [0x42] SET_CLI_EVENT_CANCEL_DATA()
  1: 0x0002 [0x1A] CALL_SUBROUTINE(address=0xC43D)
  2: 0x0005 [0x46] CAMERA_CONTROL: Disable user control
  3: 0x0007 [0x38] SET_CLIENT_EVENT_MODE(mode=147*)
  4: 0x000A [0x34] LOAD_UNLOAD_ZONE(zone_id=584*)
  5: 0x000D [0x77] SET_EVENT_TIME_WEATHER(hour=255*, weather=0*)
  6: 0x0012 [0x1C] WAIT(1* ticks)
  7: 0x0015 [0x2F] Arciela (ID: 17830032/0x01101090)->Render.Flags0 &= ~0x80000 // Bit 19
  8: 0x001B [0x2F] Unnamed NPC (ID: 17830048/0x011010A0)->Render.Flags0 &= ~0x80000 // Bit 19
  9: 0x0021 [0x4E] SET_ENTITY_HIDE_FLAG: Show Arciela (ID: 17830032/0x01101090)
 10: 0x0027 [0x4E] SET_ENTITY_HIDE_FLAG: Show Unnamed NPC (ID: 17830048/0x011010A0)
 11: 0x002D [0x92] Arciela (ID: 17830032/0x01101090)->Render.Flags3 ^= 0x01
 12: 0x0033 [0x94] LocalPlayer->Render.Flags3 ^= 0x01
 13: 0x0039 [0x94] Arciela (ID: 17830032/0x01101090)->Render.Flags3 ^= 0x01
 14: 0x003F [0x94] Unnamed NPC (ID: 17830048/0x011010A0)->Render.Flags3 ^= 0x01
 15: 0x0045 [0xBA] SET_ENTITY_POSITION(entity_id=LocalPlayer, pos_x=0.008*, pos_z=20.505*, pos_y=-1.499*, direction=90.3*)
 16: 0x0052 [0xBA] SET_ENTITY_POSITION(entity_id=Arciela (ID: 17830032/0x01101090), pos_x=-0.029*, pos_z=13.858*, pos_y=-1.500*, direction=264.3*)
 17: 0x005F [0xBA] SET_ENTITY_POSITION(entity_id=Unnamed NPC (ID: 17830048/0x011010A0), pos_x=2.207*, pos_z=12.494*, pos_y=-1.500*, direction=264.3*)
 18: 0x006C [0x80] LOAD_WAIT(entity=Arciela (ID: 17830032/0x01101090))
 19: 0x0071 [0x80] LOAD_WAIT(entity=LocalPlayer)
 20: 0x0076 [0x80] LOAD_WAIT(entity=Unnamed NPC (ID: 17830048/0x011010A0))
 21: 0x007B [0x4A] Arciela (ID: 17830032/0x01101090) looks at Unnamed NPC (ID: 17830048/0x011010A0)
 22: 0x0084 [0x4A] Unnamed NPC (ID: 17830048/0x011010A0) looks at Arciela (ID: 17830032/0x01101090)
 23: 0x008D [0x27] REQ_SET(priority=0x05, entity_id=LocalPlayer, tag_num=0x41)
 24: 0x0094 [0x45] LOAD_SCHEDULED_TASK: Load scheduler "s138" with entities [EventEntity, EventEntity], work=[630*, 0*]
 25: 0x00A5 [0x1C] WAIT(15* ticks)
 26: 0x00A8 [0x1A] CALL_SUBROUTINE(address=0xC41C)
 27: 0x00AB [0x1C] WAIT(90* ticks)
 28: 0x00AE [0x52] END_LOAD_SCHEDULER: End scheduler "s138" with entities [EventEntity, EventEntity], work=630*
 29: 0x00BD [0x45] LOAD_SCHEDULED_TASK: Load scheduler "s139" with entities [EventEntity, EventEntity], work=[630*, 0*]
 30: 0x00CE [0x4A] Unnamed NPC (ID: 17830048/0x011010A0) looks at LocalPlayer
 31: 0x00D7 [0x1C] WAIT(30* ticks)
 32: 0x00DA [0x4A] Arciela (ID: 17830032/0x01101090) looks at LocalPlayer
 33: 0x00E3 [0x2B] Arciela (ID: 17830032/0x01101090) [9172*]:
     "<Player>! You came! Thank goodness Fremilla reached you in time."
 34: 0x00EA [0x23] WAIT_FOR_DIALOG_INTERACTION
 35: 0x00EB [0x2A] GET_REQ_LEVEL(level=5, entity_id=LocalPlayer)
 36: 0x00F1 [0x52] END_LOAD_SCHEDULER: End scheduler "s139" with entities [EventEntity, EventEntity], work=630*
 37: 0x0100 [0x45] LOAD_SCHEDULED_TASK: Load scheduler "s140" with entities [EventEntity, EventEntity], work=[630*, 0*]
 38: 0x0111 [0x5B] LOAD_EXT_SCHEDULER: Load scheduler "tlk0" with entities [Arciela (ID: 17830032/0x01101090), Arciela (ID: 17830032/0x01101090)], work=3217*
 39: 0x0120 [0x2B] Arciela (ID: 17830032/0x01101090) [9173*]:
     "That strong landshiver caused some grave damage to various sections of Rala Waterways, and the Order of Renaye is in utter disarray."
 40: 0x0127 [0x23] WAIT_FOR_DIALOG_INTERACTION
 41: 0x0128 [0x2B] Arciela (ID: 17830032/0x01101090) [9174*]:
     "They claim, "the currents have shifted.""
 42: 0x012F [0x23] WAIT_FOR_DIALOG_INTERACTION
 43: 0x0130 [0x5B] LOAD_EXT_SCHEDULER: Load scheduler "tlk1" with entities [Arciela (ID: 17830032/0x01101090), Arciela (ID: 17830032/0x01101090)], work=3217*
 44: 0x013F [0x52] END_LOAD_SCHEDULER: End scheduler "s140" with entities [EventEntity, EventEntity], work=630*
 45: 0x014E [0x45] LOAD_SCHEDULED_TASK: Load scheduler "s141" with entities [EventEntity, EventEntity], work=[630*, 0*]
 46: 0x015F [0x27] REQ_SET(priority=0x05, entity_id=LocalPlayer, tag_num=0x10)
 47: 0x0166 [0x1C] WAIT(80* ticks)
 48: 0x0169 [0x27] REQ_SET(priority=0x05, entity_id=LocalPlayer, tag_num=0x11)
 49: 0x0170 [0x1C] WAIT(40* ticks)
 50: 0x0173 [0x52] END_LOAD_SCHEDULER: End scheduler "s141" with entities [EventEntity, EventEntity], work=630*
 51: 0x0182 [0x45] LOAD_SCHEDULED_TASK: Load scheduler "s182" with entities [EventEntity, EventEntity], work=[630*, 0*]
 52: 0x0193 [0x2B] Arciela (ID: 17830032/0x01101090) [9175*]:
     "This cannot bode well."
 53: 0x019A [0x23] WAIT_FOR_DIALOG_INTERACTION
 54: 0x019B [0x5B] LOAD_EXT_SCHEDULER: Load scheduler "no00" with entities [Arciela (ID: 17830032/0x01101090), Arciela (ID: 17830032/0x01101090)], work=3231*
 55: 0x01AA [0x2B] Arciela (ID: 17830032/0x01101090) [9176*]:
     "I wish I knew more, but I learned only the fundaments of geomancy from my tutors."
 56: 0x01B1 [0x23] WAIT_FOR_DIALOG_INTERACTION
 57: 0x01B2 [0x52] END_LOAD_SCHEDULER: End scheduler "s182" with entities [EventEntity, EventEntity], work=630*
 58: 0x01C1 [0x45] LOAD_SCHEDULED_TASK: Load scheduler "s183" with entities [EventEntity, EventEntity], work=[630*, 0*]
 59: 0x01D2 [0x5B] LOAD_EXT_SCHEDULER: Load scheduler "tlk0" with entities [Arciela (ID: 17830032/0x01101090), Arciela (ID: 17830032/0x01101090)], work=3217*
 60: 0x01E1 [0x2B] Arciela (ID: 17830032/0x01101090) [9177*]:
     "Someone more versed in the issue from the Order of Renaye will be visiting the castle shortly, and I want you to be there with me."
 61: 0x01E8 [0x23] WAIT_FOR_DIALOG_INTERACTION
 62: 0x01E9 [0x5B] LOAD_EXT_SCHEDULER: Load scheduler "tlk1" with entities [Arciela (ID: 17830032/0x01101090), Arciela (ID: 17830032/0x01101090)], work=3217*
 63: 0x01F8 [0x24] CREATE_DIALOG(message_id=9178*, default_option=0*, option_flags=0*)
     "How do you respond? [The Order of Renaye?/Of course I'll be there.]"
 64: 0x01FF [0x25] WAIT_DIALOG_SELECT()
 65: 0x0200 [0x02] IF !(Work_Zone[0] == 0*) GOTO 0x0251
 66: 0x0208 [0x52] END_LOAD_SCHEDULER: End scheduler "s183" with entities [EventEntity, EventEntity], work=630*
 67: 0x0217 [0x45] LOAD_SCHEDULED_TASK: Load scheduler "s184" with entities [EventEntity, EventEntity], work=[630*, 0*]
 68: 0x0228 [0x5B] LOAD_EXT_SCHEDULER: Load scheduler "yes0" with entities [Arciela (ID: 17830032/0x01101090), Arciela (ID: 17830032/0x01101090)], work=3231*
 69: 0x0237 [0x2B] Arciela (ID: 17830032/0x01101090) [9179*]:
     "Surely you are aware of their geomantic activities here in Ulbuka. The order's head and minister of education, Ikhi Askamot, will come to proffer her opinion."
 70: 0x023E [0x23] WAIT_FOR_DIALOG_INTERACTION
 71: 0x023F [0x52] END_LOAD_SCHEDULER: End scheduler "s184" with entities [EventEntity, EventEntity], work=630*
 72: 0x024E [0x01] GOTO 0x026B
 73: 0x0251 [0x02] IF !(Work_Zone[0] == 1*) GOTO 0x026B
 74: 0x0259 [0x6E] LocalPlayer uses emote 7*
 75: 0x0260 [0x99] Wait for LocalPlayer animation to complete
 76: 0x0265 [0x1C] WAIT(90* ticks)
 77: 0x0268 [0x01] GOTO 0x026B

SUBROUTINE_026B:
 78: 0x026B [0x52] END_LOAD_SCHEDULER: End scheduler "s183" with entities [EventEntity, EventEntity], work=630*
 79: 0x027A [0x45] LOAD_SCHEDULED_TASK: Load scheduler "s162" with entities [EventEntity, EventEntity], work=[630*, 0*]
 80: 0x028B [0x5B] LOAD_EXT_SCHEDULER: Load scheduler "tlk0" with entities [Arciela (ID: 17830032/0x01101090), Arciela (ID: 17830032/0x01101090)], work=3217*
 81: 0x029A [0x2B] Arciela (ID: 17830032/0x01101090) [9180*]:
     "I felt a duty to accompany Ikhi to Leafallia in light of the events that transpired in Kamihr Drifts."
 82: 0x02A1 [0x23] WAIT_FOR_DIALOG_INTERACTION
 83: 0x02A2 [0x2B] Arciela (ID: 17830032/0x01101090) [9181*]:
     "Some things are easier to understand in person."
 84: 0x02A9 [0x23] WAIT_FOR_DIALOG_INTERACTION
 85: 0x02AA [0x52] END_LOAD_SCHEDULER: End scheduler "s162" with entities [EventEntity, EventEntity], work=630*
 86: 0x02B9 [0x45] LOAD_SCHEDULED_TASK: Load scheduler "s163" with entities [EventEntity, EventEntity], work=[630*, 0*]
 87: 0x02CA [0x5B] LOAD_EXT_SCHEDULER: Load scheduler "tlk1" with entities [Arciela (ID: 17830032/0x01101090), Arciela (ID: 17830032/0x01101090)], work=3217*
 88: 0x02D9 [0x2B] Arciela (ID: 17830032/0x01101090) [9182*]:
     "Since that time, Ikhi has approached me with increasing frequency."
 89: 0x02E0 [0x23] WAIT_FOR_DIALOG_INTERACTION
 90: 0x02E1 [0x7B] Arciela (ID: 17830032/0x01101090) stops talking
 91: 0x02E6 [0x5B] LOAD_EXT_SCHEDULER: Load scheduler "dyo0" with entities [Arciela (ID: 17830032/0x01101090), Arciela (ID: 17830032/0x01101090)], work=3233*
 92: 0x02F5 [0x2B] Arciela (ID: 17830032/0x01101090) [9183*]:
     "She has always been a bit...well, I hesitate to say "standoffish," because that implies a lack of concern...but she is a woman of few words."
 93: 0x02FC [0x23] WAIT_FOR_DIALOG_INTERACTION
 94: 0x02FD [0x2B] Arciela (ID: 17830032/0x01101090) [9184*]:
     "That makes approaching her a bit of a task, and one that I shied away from until recently--a failing of mine as one of the prominent faces of Adoulin."
 95: 0x0304 [0x23] WAIT_FOR_DIALOG_INTERACTION
 96: 0x0305 [0x52] END_LOAD_SCHEDULER: End scheduler "s163" with entities [EventEntity, EventEntity], work=630*
 97: 0x0314 [0x45] LOAD_SCHEDULED_TASK: Load scheduler "s169" with entities [EventEntity, EventEntity], work=[630*, 0*]
 98: 0x0325 [0x5B] LOAD_EXT_SCHEDULER: Load scheduler "dyo1" with entities [Arciela (ID: 17830032/0x01101090), Arciela (ID: 17830032/0x01101090)], work=3233*
 99: 0x0334 [0x2B] Arciela (ID: 17830032/0x01101090) [9185*]:
     "But ever since we met, I have learned so much. About myself, about the world..."
100: 0x033B [0x23] WAIT_FOR_DIALOG_INTERACTION
101: 0x033C [0x5B] LOAD_EXT_SCHEDULER: Load scheduler "no00" with entities [Arciela (ID: 17830032/0x01101090), Arciela (ID: 17830032/0x01101090)], work=3231*
102: 0x034B [0x52] END_LOAD_SCHEDULER: End scheduler "s169" with entities [EventEntity, EventEntity], work=630*
103: 0x035A [0x45] LOAD_SCHEDULED_TASK: Load scheduler "s142" with entities [EventEntity, EventEntity], work=[630*, 0*]
104: 0x036B [0x2B] Arciela (ID: 17830032/0x01101090) [9186*]:
     "...But we've no time for musings. Come. The council awaits."
105: 0x0372 [0x23] WAIT_FOR_DIALOG_INTERACTION
106: 0x0373 [0x52] END_LOAD_SCHEDULER: End scheduler "s142" with entities [EventEntity, EventEntity], work=630*
107: 0x0382 [0x45] LOAD_SCHEDULED_TASK: Load scheduler "s185" with entities [EventEntity, EventEntity], work=[630*, 0*]
108: 0x0393 [0x27] REQ_SET(priority=0x05, entity_id=Arciela (ID: 17830032/0x01101090), tag_num=0x2F)
109: 0x039A [0x1C] WAIT(15* ticks)
110: 0x039D [0x27] REQ_SET(priority=0x05, entity_id=LocalPlayer, tag_num=0x42)
111: 0x03A4 [0x1C] WAIT(60* ticks)
112: 0x03A7 [0x27] REQ_SET(priority=0x05, entity_id=Unnamed NPC (ID: 17830048/0x011010A0), tag_num=0x22)
113: 0x03AE [0x1C] WAIT(60* ticks)
114: 0x03B1 [0x1A] CALL_SUBROUTINE(address=0xC43D)
115: 0x03B4 [0x1C] WAIT(30* ticks)
116: 0x03B7 [0x52] END_LOAD_SCHEDULER: End scheduler "s185" with entities [EventEntity, EventEntity], work=630*
117: 0x03C6 [0x7A] VM_CONTROL: Reset VM for Arciela (ID: 17830032/0x01101090)
118: 0x03CC [0x7A] VM_CONTROL: Reset VM for LocalPlayer
