# 17830100 - Fostaig

## Common Data

| Field            | Value                     |
|------------------|---------------------------|
| Zone             | Eastern Adoulin (ID: 257) |
| Block Size       | 208 bytes                 |
| Total Events     | 4                         |
| References Count | 7                         |

## List of Events

| Event ID              | Entrypoint   |   Size |   Instructions |
|-----------------------|--------------|--------|----------------|
| [65535](#event-65535) | 0x0000       |      1 |              1 |
| [519](#event-519)     | 0x0001       |     47 |             11 |
| [513](#event-513)     | 0x0030       |     43 |              9 |
| [2513](#event-2513)   | 0x005B       |     56 |             16 |

## DAT References (imed_data)

|   Index | Hex Value   |   Dec Value |
|---------|-------------|-------------|
|       0 | 0x0000      |           0 |
|       1 | 0x28C7      |       10439 |
|       2 | 0x28C8      |       10440 |
|       3 | 0x1EC9      |        7881 |
|       4 | 0x1ECA      |        7882 |
|       5 | 0x1ECB      |        7883 |
|       6 | 0x1ECC      |        7884 |

## String References

- **7881**: Not another pioneer come to bother me...
- **7882**: You're making the rounds!? Don't tell me that lazy good-for-nothing pawned his job off on you!
- **7883**: <Sigh> You made your own bed, now lie in it. For what it's worth, nothing out of the ordinary here.
- **7884**: Don't go making any trouble for us, or we'll have to turn our swords on you.
- **10439**: This fine edifice houses what's known as the Peacekeepers' Coalition. I'll let your imagination run wild trying to figure out what our particular group does.
- **10440**: I know you're from the Middle Lands, but don't go being all buddy-buddy with the Pioneers' Coalition. The tangled webs they weave have ensnared many.

## Events

### Event 65535

#### Metadata

| Field        | Value   |
|--------------|---------|
| Entrypoint   | 0x0000  |
| Data Size    | 1 bytes |
| Instructions | 1       |

```
      00 01 02 03 04 05 06 07  08 09 0A 0B 0C 0D 0E 0F
      -- -- -- -- -- -- -- --  -- -- -- -- -- -- -- --
0000: 00                                                .               
```

#### Opcodes

```
  0: 0x0000 [0x00] END_REQSTACK()
```

### Event 519

#### Metadata

| Field        | Value    |
|--------------|----------|
| Entrypoint   | 0x0001   |
| Data Size    | 47 bytes |
| Instructions | 11       |

```
      00 01 02 03 04 05 06 07  08 09 0A 0B 0C 0D 0E 0F
      -- -- -- -- -- -- -- --  -- -- -- -- -- -- -- --
0000:    1E F0 FF FF 7F 6F 70  66 00 80 F8 FF FF 7F F8   .....opf.......
0010: FF FF 7F 74 6C 6B 30 1D  01 80 23 1D 02 80 23 66  ...tlk0...#...#f
0020: 00 80 F8 FF FF 7F F8 FF  FF 7F 74 65 6E 30 21 00  ..........ten0!.
```

#### Opcodes

```
  0: 0x0001 [0x1E] EventEntity looks at LocalPlayer and starts talking
  1: 0x0006 [0x6F] WAIT_FRAME_DELAY: Yield until WaitTime reaches zero
  2: 0x0007 [0x70] WAIT_ENTITY_RENDER_FLAG: Wait while EventEntity->Render.Flags3 bit 2 is set (cancel turn if not)
  3: 0x0008 [0x66] LOAD_EXT_SCHEDULER_MAIN: Load scheduler "tlk0" with entities [EventEntity, EventEntity], work=0*
  4: 0x0017 [0x1D] PRINT_EVENT_MESSAGE(message_id=10439*)
    → "This fine edifice houses what's known as the Peacekeepers' Coalition. I'll let your imagination run wild trying to figure out what our particular group does."
  5: 0x001A [0x23] WAIT_FOR_DIALOG_INTERACTION
  6: 0x001B [0x1D] PRINT_EVENT_MESSAGE(message_id=10440*)
    → "I know you're from the Middle Lands, but don't go being all buddy-buddy with the Pioneers' Coalition. The tangled webs they weave have ensnared many."
  7: 0x001E [0x23] WAIT_FOR_DIALOG_INTERACTION
  8: 0x001F [0x66] LOAD_EXT_SCHEDULER_MAIN: Load scheduler "ten0" with entities [EventEntity, EventEntity], work=0*
  9: 0x002E [0x21] END_EVENT
 10: 0x002F [0x00] END_REQSTACK()
```

### Event 513

#### Metadata

| Field        | Value    |
|--------------|----------|
| Entrypoint   | 0x0030   |
| Data Size    | 43 bytes |
| Instructions | 9        |

```
      00 01 02 03 04 05 06 07  08 09 0A 0B 0C 0D 0E 0F
      -- -- -- -- -- -- -- --  -- -- -- -- -- -- -- --
0030: 1E F0 FF FF 7F 6F 70 66  00 80 F8 FF FF 7F F8 FF  .....opf........
0040: FF 7F 74 6C 6B 30 1D 01  80 23 66 00 80 F8 FF FF  ..tlk0...#f.....
0050: 7F F8 FF FF 7F 74 65 6E  30 21 00                 .....ten0!.     
```

#### Opcodes

```
  0: 0x0030 [0x1E] EventEntity looks at LocalPlayer and starts talking
  1: 0x0035 [0x6F] WAIT_FRAME_DELAY: Yield until WaitTime reaches zero
  2: 0x0036 [0x70] WAIT_ENTITY_RENDER_FLAG: Wait while EventEntity->Render.Flags3 bit 2 is set (cancel turn if not)
  3: 0x0037 [0x66] LOAD_EXT_SCHEDULER_MAIN: Load scheduler "tlk0" with entities [EventEntity, EventEntity], work=0*
  4: 0x0046 [0x1D] PRINT_EVENT_MESSAGE(message_id=10439*)
    → "This fine edifice houses what's known as the Peacekeepers' Coalition. I'll let your imagination run wild trying to figure out what our particular group does."
  5: 0x0049 [0x23] WAIT_FOR_DIALOG_INTERACTION
  6: 0x004A [0x66] LOAD_EXT_SCHEDULER_MAIN: Load scheduler "ten0" with entities [EventEntity, EventEntity], work=0*
  7: 0x0059 [0x21] END_EVENT
  8: 0x005A [0x00] END_REQSTACK()
```

### Event 2513

#### Metadata

| Field        | Value    |
|--------------|----------|
| Entrypoint   | 0x005B   |
| Data Size    | 56 bytes |
| Instructions | 16       |

```
      00 01 02 03 04 05 06 07  08 09 0A 0B 0C 0D 0E 0F
      -- -- -- -- -- -- -- --  -- -- -- -- -- -- -- --
0050:                                   1E F0 FF FF 7F             .....
0060: 42 6F 70 66 00 80 F8 FF  FF 7F F8 FF FF 7F 74 6C  Bopf..........tl
0070: 6B 30 1D 03 80 23 1D 04  80 23 1D 05 80 23 1D 06  k0...#...#...#..
0080: 80 23 66 00 80 F8 FF FF  7F F8 FF FF 7F 74 65 6E  .#f..........ten
0090: 30 21 00                                          0!.             
```

#### Opcodes

```
  0: 0x005B [0x1E] EventEntity looks at LocalPlayer and starts talking
  1: 0x0060 [0x42] SET_CLI_EVENT_CANCEL_DATA()
  2: 0x0061 [0x6F] WAIT_FRAME_DELAY: Yield until WaitTime reaches zero
  3: 0x0062 [0x70] WAIT_ENTITY_RENDER_FLAG: Wait while EventEntity->Render.Flags3 bit 2 is set (cancel turn if not)
  4: 0x0063 [0x66] LOAD_EXT_SCHEDULER_MAIN: Load scheduler "tlk0" with entities [EventEntity, EventEntity], work=0*
  5: 0x0072 [0x1D] PRINT_EVENT_MESSAGE(message_id=7881*)
    → "Not another pioneer come to bother me..."
  6: 0x0075 [0x23] WAIT_FOR_DIALOG_INTERACTION
  7: 0x0076 [0x1D] PRINT_EVENT_MESSAGE(message_id=7882*)
    → "You're making the rounds!? Don't tell me that lazy good-for-nothing pawned his job off on you!"
  8: 0x0079 [0x23] WAIT_FOR_DIALOG_INTERACTION
  9: 0x007A [0x1D] PRINT_EVENT_MESSAGE(message_id=7883*)
    → "<Sigh> You made your own bed, now lie in it. For what it's worth, nothing out of the ordinary here."
 10: 0x007D [0x23] WAIT_FOR_DIALOG_INTERACTION
 11: 0x007E [0x1D] PRINT_EVENT_MESSAGE(message_id=7884*)
    → "Don't go making any trouble for us, or we'll have to turn our swords on you."
 12: 0x0081 [0x23] WAIT_FOR_DIALOG_INTERACTION
 13: 0x0082 [0x66] LOAD_EXT_SCHEDULER_MAIN: Load scheduler "ten0" with entities [EventEntity, EventEntity], work=0*
 14: 0x0091 [0x21] END_EVENT
 15: 0x0092 [0x00] END_REQSTACK()
```
