# 17830187 - Winrix

## Common Data

| Field            | Value                     |
|------------------|---------------------------|
| Zone             | Eastern Adoulin (ID: 257) |
| Block Size       | 2176 bytes                |
| Total Events     | 15                        |
| References Count | 65                        |

## List of Events

| Event ID                 | Entrypoint   |   Size |   Instructions |
|--------------------------|--------------|--------|----------------|
| [65535](#event-65535)    | 0x0000       |      1 |              1 |
| [5135](#event-5135)      | 0x0001       |     45 |             13 |
| [5136](#event-5136)      | 0x002E       |    393 |             86 |
| [5137](#event-5137)      | 0x01B7       |     33 |             11 |
| [5144](#event-5144)      | 0x01D8       |    829 |            167 |
| [5138](#event-5138)      | 0x0515       |    147 |             29 |
| [5139](#event-5139)      | 0x05A8       |     30 |             10 |
| [5140](#event-5140)      | 0x05C6       |     28 |              8 |
| [5141](#event-5141)      | 0x05E2       |     28 |              8 |
| [65535.1](#event-655351) | 0x05FE       |     28 |              8 |
| [5145](#event-5145)      | 0x061A       |    155 |             37 |
| [5146](#event-5146)      | 0x06B5       |     33 |             11 |
| [5147](#event-5147)      | 0x06D6       |     28 |              8 |
| [5148](#event-5148)      | 0x06F2       |     28 |              8 |
| [5149](#event-5149)      | 0x070E       |     33 |             11 |

## DAT References (imed_data)

|   Index | Hex Value   |   Dec Value |
|---------|-------------|-------------|
|       0 | 0x00D7      |         215 |
|       1 | 0x35A9      |       13737 |
|       2 | 0x35AA      |       13738 |
|       3 | 0x0001      |           1 |
|       4 | 0x35BE      |       13758 |
|       5 | 0x35BF      |       13759 |
|       6 | 0x0004      |           4 |
|       7 | 0x0000      |           0 |
|       8 | 0x35C0      |       13760 |
|       9 | 0x0002      |           2 |
|      10 | 0x0005      |           5 |
|      11 | 0x6E00      |       28160 |
|      12 | 0x000A      |          10 |
|      13 | 0x0032      |          50 |
|      14 | 0x35C2      |       13762 |
|      15 | 0x0003      |           3 |
|      16 | 0x0006      |           6 |
|      17 | 0x35CC      |       13772 |
|      18 | 0x35CD      |       13773 |
|      19 | 0x35CE      |       13774 |
|      20 | 0x35C7      |       13767 |
|      21 | 0x35B7      |       13751 |
|      22 | 0x35B8      |       13752 |
|      23 | 0x35B9      |       13753 |
|      24 | 0x35BA      |       13754 |
|      25 | 0x35BC      |       13756 |
|      26 | 0x35BD      |       13757 |
|      27 | 0x35B6      |       13750 |
|      28 | 0x35AB      |       13739 |
|      29 | 0x35AC      |       13740 |
|      30 | 0x35AF      |       13743 |
|      31 | 0x35B0      |       13744 |
|      32 | 0x35B1      |       13745 |
|      33 | 0x35B2      |       13746 |
|      34 | 0x35B3      |       13747 |
|      35 | 0x35B4      |       13748 |
|      36 | 0x35B5      |       13749 |
|      37 | 0x35BB      |       13755 |
|      38 | 0x35C4      |       13764 |
|      39 | 0x0007      |           7 |
|      40 | 0x0008      |           8 |
|      41 | 0x000C      |          12 |
|      42 | 0x35D9      |       13785 |
|      43 | 0x00D8      |         216 |
|      44 | 0x35C5      |       13765 |
|      45 | 0x005A      |          90 |
|      46 | 0x35C6      |       13766 |
|      47 | 0x35C3      |       13763 |
|      48 | 0x35D8      |       13784 |
|      49 | 0x35DA      |       13786 |
|      50 | 0x000E      |          14 |
|      51 | 0x35E0      |       13792 |
|      52 | 0x003C      |          60 |
|      53 | 0x35CF      |       13775 |
|      54 | 0x35D0      |       13776 |
|      55 | 0x35D1      |       13777 |
|      56 | 0x35D2      |       13778 |
|      57 | 0x35D3      |       13779 |
|      58 | 0x35D4      |       13780 |
|      59 | 0x35D7      |       13783 |
|      60 | 0x35DB      |       13787 |
|      61 | 0x001E      |          30 |
|      62 | 0x35DC      |       13788 |
|      63 | 0x35DD      |       13789 |
|      64 | 0x35DE      |       13790 |

## String References

- **13737**: Don'tcha think dat furrowed brow and cocked head o' yers escaped me. Yer int'rested in dis chest, ain'tcha? Well, ya gots good right tah be, 'cause even us Gobbies is fascimanated wit' it. It's some sorta myst'ry box salvaged from a shipwreck in da Gugru Blue! Da mysterious part is dat what goes in don't necessarilies come out!
- **13738**: While I may tout its amazin'ness, don'tcha think fer even a second dat I's at liberty tah divulge hows we came by it. Still, I likes yer face. It's a kind face, one dat says ya won't stabs me in da back, which is more'n I can say fer my own mum. Lemme shows ya how to use dis myst'ry box.
- **13739**: Bah-dah-bah-dahm dah-daaahm! Ya open da chest. Dat's it. And da kicker be dat I'm da one doin' da openin'. Ya just gets tah stand dere gawkin' in astonishmament. Easy gig, no?
- **13740**: Oh yeah, 'fore I forget. What good's a chest if ya ain't gots da key? Well, da key to dis chest is da fine art o' waitin'.
- **13743**: Also, I calls da amount o' time ya's waited yer circa...circama...circamadamian...ugh, yer "daily tally." It ain't just da name dat's catchy, though. Da higher yer tally, da gooder yer goods get! Can't get much good--er, simpler dan dat.
- **13744**: Finally, ya opens da chest. Oooh, I can barely contain m'self thinkin' o' all da riches I--er, ya could have!
- **13745**: Oh, dat's right! Heyheyhey, got any items ya won't be needin'? If so, fork 'em over 'n yer daily tally'll increase! Mebbe not by much, but dat's better'n nothin', am I right?
- **13746**: And dere's no better feelin' dan takin' trash and turnin' it into treasure. It's pramactically a new kind o' alchemy! But don't go gung ho 'n overfills da thing 'til its hinges break. Myst'ry boxes don't grow on goobbues, y'know.
- **13747**: Plus, I'll be here tah stops ya if I sees ya stuffin' whole Gobbiebags worth o' possessions in dere, so don't worry yer oversized noggin' over and over over it. Whats was I sayin' again? Ugh, never mind.
- **13748**: Sadly, howsever, anodda myst'ry 'bout dis chest is dat it won't takes just any ol' bauble. It has da taste o' a picky peiste--it feasts upon nothin' but da rarest and unique-est o' artifacts.
- **13749**: Lastly, since we don't knows where da items go once inside, ya ain't gettin' nothin' back datcha put in. Ya reap whatcha sow, and da weather ain't always condusimasive to a good harvest, am I right? My condolemances in advance for any losses ya mights incur from da myst'ry box's fickle nature.
- **13750**: Dat all make 'nough sense tah ya? Just say da woid when ya wanna use my services. I's more'n happy tah help.
- **13751**: Hey! I rem'mber seein' yer foice 'round here. Take a looksie. I's taken' it upon myself tah jigger 'round wit' dese all-new myst'ry boxes, found straight from an ol' capsized vessel in the Gugru Blue.
- **13752**: I's nevah gonna say how we gots our hands on 'em, so dun even ask! But, still, I gots tah say dat dese're somet'in' special! Now try yer hand 'fore I smack ya!
- **13753**: Just select yer desir'd dial and plug 'way at it. Will ya win somethin' super special? Or will't be da booby proize?
- **13754**: Dese're some "special dials," an' I gots no inklin' what's inside. Ya gots tah open 'em yerself tah find out what treasures lie within!
- **13755**: Oh ho, I's forgettin' tah explain somethin' to ya. See dese "special dials"? Dey're super primo, but I still no know wut's gonna be in dere.
- **13756**: So I's not be takin' no responsibility if somethin' weird 'n wacky comes out. Got it? Ya open it, ya keep it.
- **13757**: 'N openin' 'em requires some kinda secret technique. Maybe it'll succeed, maybe tha box'll break. 'Sif I know. But ya can only try 'em once a day.
- **13758**: Oho, ya feelin' lucky 'nough tah takes a stab at da myst'ry box?
- **13759**: Whatcha gonna do? ($7 tally) [Open the box and profit!/Listen to the explanation./Inquire about my daily tally. /Peek at some possibilities./Nothing right now.]
- **13760**: Ya wanna open dat sucker up? Okay, but which dial ya be wantin'?
- **13762**: So, what dial ya gonna pick? ($7 tally) [I got cold feet, so none./Dial 1 (Materials): $8 tally./Dial 2 (Food): $8 tally./Dial 3 (Medicine): $8 tally./Dial 4 (Sundries 1): $8 tally./Dial 5 (Sundries 2): $8 tally./Special dial: $9 tally [/ (already opened)]./Adoulin dial: $10 tally[/ (already opened)]./Pictlogica dial: $11 tally[/ (already opened)]./@/@/@/Wanted dial: $12 tally[/ (already opened)]./@/@]
- **13763**: Yer goin' wit' dial $1, huh? Whatchu tryin' ta pull!? Yer daily tally's too low.
- **13764**: Yer goin' wit' dial $1, huh? Lessee what myst'ries await!
- **13765**: Dis box is full o' myst'ries,t Dat span da realm's his'try,t So whatcha gonna get from da chest...o'...uh, fortunery?t
- **13766**: Oooh, looks at what popped out! I hopes it makes yer adventures dat much more adventumarous!
- **13767**: Ya's thought I threw yer prize away?! Prepostamarous! I's just tucked it away for safekeepin' is all.
- **13772**: Lemme check for ya! Well, it coulda been $0, $1, or mebbe even $2. What? Ya thinks ya could do better wit' one o' dese Gobbie masks on!?
- **13773**: Anywise, where'd da myst'ry be if ya's knew da answer 'fore ya opens it?
- **13774**: Some things is better left unknown. Gotta leave a little room fer romanchismo in da woild, y'know.
- **13775**: Dere we goes. Da myst'ry box seems tah like yer offerin'...but it wants more. Got anythin' else ya wanna throw away?
- **13776**: Dere we goes. Oho, looks like it don't wants no more. Guess ya gotta come back tomorrow if ya's wanna keep gettin' rid o' stuff.
- **13777**: Yer daily tally's increased [a smidge./someamawhats./a Gobby-fold!/a ginormagantic amount!]
- **13778**: Sorrah, but it won't lemme put dis in. Got anythin' it mights like better?
- **13779**: Sorrah, but da chest has dat look. Y'know, da one dat says, "I'll kills ya if ya tries tah give me dat." I guess alls ya can do is comes back some odda time.
- **13780**: Nah, it just won't woik. I's did my best, but yer daily tally just won't go no higher. Ya ain't gonna get no prizes by hoardin' yer points, so stop bein' such a Greedalox and use 'em.
- **13783**: Whoawhoawhoa! If ya's got business wit' da box, ya foist gots business wit' me. Whatcha need?
- **13784**: So ya be wantin' the special dial? Whoawhoawhoa! Get yer grubby hands offa that! Ya don't have enough daily tally, and I's not 'bout tah let ya cheat me!
- **13785**: So ya be wantin' the [special/Adoulin/pictlogica/Wanted/campaign] dial? M'kay, get yerself all steeled up, 'cause here we go! 'Member, no complaints!
- **13786**: So ya be wantin' the [special/Adoulin/pictlogica/Wanted] dial? Whoawhoawhoa! Get yer grubby hands offa that! I's already opened one fer ya today! Haul that keister outta here and come back t'morrow.
- **13787**: Oy, would ya get a look at yer $0! I guess I can let ya open [/Dial 1/Dial 2/Dial 3/Dial 4/Dial 5/the special dial///the abjuration dial/the fortune dial/the furnishings dial//the Vana'versary dial/the festival dial] whenever ya want fer not a single onz o' daily tally!
- **13788**: Dun think that I's be a gil-grubbin' good-fer-nuthin'. If'n ya dun wanna open any dial, then I gives ya back yer $0.
- **13789**: Yer eyes be bigger'n yer stomach. If'n ya wanna open [/Dial 1/Dial 2/Dial 3/Dial 4/Dial 5/the Special Dial///the abjuration dial/the fortune dial/the furnishings dial//the Vana'versary dial/the festival diaal] usin' yer $0, then ya gotta make room in yer bags!
- **13790**: What's be dis? $0? What'm I 'pposed ta do wit it? I dun have any clue how ta use it, so take it home wit ya.
- **13792**: Urk!

## Events

### Event 65535

#### Metadata

| Field        | Value   |
|--------------|---------|
| Entrypoint   | 0x0000  |
| Data Size    | 1 bytes |
| Instructions | 1       |

```
      00 01 02 03 04 05 06 07  08 09 0A 0B 0C 0D 0E 0F
      -- -- -- -- -- -- -- --  -- -- -- -- -- -- -- --
0000: 00                                                .               
```

#### Opcodes

```
  0: 0x0000 [0x00] END_REQSTACK()
```

### Event 5135

#### Metadata

| Field        | Value    |
|--------------|----------|
| Entrypoint   | 0x0001   |
| Data Size    | 45 bytes |
| Instructions | 13       |

```
      00 01 02 03 04 05 06 07  08 09 0A 0B 0C 0D 0E 0F
      -- -- -- -- -- -- -- --  -- -- -- -- -- -- -- --
0000:    1E F0 FF FF 7F 6F 70  5B 00 80 F8 FF FF 7F F8   .....op[.......
0010: FF FF 7F 74 6C 6B 30 1D  01 80 23 1D 02 80 23 1A  ...tlk0...#...#.
0020: 16 02 5E 69 64 6C 30 03  01 10 03 80 21 00        ..^idl0.....!.  
```

#### Opcodes

```
  0: 0x0001 [0x1E] EventEntity looks at LocalPlayer and starts talking
  1: 0x0006 [0x6F] WAIT_FRAME_DELAY: Yield until WaitTime reaches zero
  2: 0x0007 [0x70] WAIT_ENTITY_RENDER_FLAG: Wait while EventEntity->Render.Flags3 bit 2 is set (cancel turn if not)
  3: 0x0008 [0x5B] LOAD_EXT_SCHEDULER: Load scheduler "tlk0" with entities [EventEntity, EventEntity], work=215*
  4: 0x0017 [0x1D] PRINT_EVENT_MESSAGE(message_id=13737*)
    → "Don'tcha think dat furrowed brow and cocked head o' yers escaped me. Yer int'rested in dis chest, ain'tcha? Well, ya gots good right tah be, 'cause even us Gobbies is fascimanated wit' it. It's some sorta myst'ry box salvaged from a shipwreck in da Gugru Blue! Da mysterious part is dat what goes in don't necessarilies come out!"
  5: 0x001A [0x23] WAIT_FOR_DIALOG_INTERACTION
  6: 0x001B [0x1D] PRINT_EVENT_MESSAGE(message_id=13738*)
    → "While I may tout its amazin'ness, don'tcha think fer even a second dat I's at liberty tah divulge hows we came by it. Still, I likes yer face. It's a kind face, one dat says ya won't stabs me in da back, which is more'n I can say fer my own mum. Lemme shows ya how to use dis myst'ry box."
  7: 0x001E [0x23] WAIT_FOR_DIALOG_INTERACTION
  8: 0x001F [0x1A] CALL_SUBROUTINE(address=0x0216)
  9: 0x0022 [0x5E] EventEntity goes idle (kills current action) (animation: "idl0")
 10: 0x0027 [0x03] Work_Zone[1] = 1*
 11: 0x002C [0x21] END_EVENT
 12: 0x002D [0x00] END_REQSTACK()
```

### Event 5136

#### Metadata

| Field        | Value     |
|--------------|-----------|
| Entrypoint   | 0x002E    |
| Data Size    | 393 bytes |
| Instructions | 67        |

```
      00 01 02 03 04 05 06 07  08 09 0A 0B 0C 0D 0E 0F
      -- -- -- -- -- -- -- --  -- -- -- -- -- -- -- --
0020:                                            7A 04                z.
0030: 80 2C 11 10 01 02 1E F0  FF FF 7F 6F 70 5B 00 80  .,.........op[..
0040: F8 FF FF 7F F8 FF FF 7F  74 6C 6B 30 1D 04 80 23  ........tlk0...#
0050: 5E 69 64 6C 30 06 01 00  24 05 80 01 00 06 80 25  ^idl0...$......%
0060: 02 00 10 07 80 00 4B 01  5B 00 80 F8 FF FF 7F F8  ......K.[.......
0070: FF FF 7F 74 6C 6B 30 1D  08 80 23 5E 69 64 6C 30  ...tlk0...#^idl0
0080: 06 03 00 06 02 00 40 07  80 09 80 01 10 0A 80 43  ......@........C
0090: 00 43 01 03 00 00 0B 80  0E 00 00 08 10 03 00 17  .C..............
00A0: 0C 80 03 01 17 0D 80 03  02 17 07 80 03 03 17 07  ................
00B0: 80 03 04 17 07 80 24 0E  80 02 00 00 00 25 02 00  ......$......%..
00C0: 10 07 80 00 CB 00 21 00  01 D9 00 40 0F 80 10 80  ......!....@....
00D0: 01 10 00 10 03 02 00 00  10 40 07 80 09 80 01 10  .........@......
00E0: 03 80 42 43 00 43 01 03  00 00 04 10 02 02 00 10  ..BC.C..........
00F0: 80 05 24 01 02 02 00 10  80 01 10 01 02 03 00 10  ..$.............
0100: 80 04 0A 01 05 04 00 01  0D 01 06 04 00 01 21 01  ..............!.
0110: 02 02 00 03 00 01 1E 01  05 04 00 01 21 01 06 04  ............!...
0120: 00 01 35 01 02 03 00 10  80 05 32 01 05 04 00 01  ..5.......2.....
0130: 35 01 06 04 00 03 03 00  02 00 1A 4B 02 02 00 00  5..........K....
0140: 07 80 00 48 01 01 86 00  01 B5 01 02 00 10 03 80  ...H............
0150: 00 75 01 03 01 00 00 10  5B 00 80 F8 FF FF 7F F8  .u......[.......
0160: FF FF 7F 74 6C 6B 30 1A  16 02 5E 69 64 6C 30 01  ...tlk0...^idl0.
0170: 58 00 01 B5 01 02 00 10  0F 80 00 B5 01 03 01 00  X...............
0180: 00 10 5B 00 80 F8 FF FF  7F F8 FF FF 7F 74 6C 6B  ..[..........tlk
0190: 30 40 07 80 09 80 01 10  06 80 43 00 43 01 1D 11  0@........C.C...
01A0: 80 23 1D 12 80 23 1D 13  80 23 5E 69 64 6C 30 01  .#...#...#^idl0.
01B0: 58 00 01 B5 01 21 00                              X....!.         
```

#### Opcodes

```
  0: 0x002E [0x7A] VM_CONTROL: Copy data from Unknown NPC (ID: 269560960/0x10112C80) (params=1, 2)
  1: 0x0036 [0x1E] EventEntity looks at LocalPlayer and starts talking
  2: 0x003B [0x6F] WAIT_FRAME_DELAY: Yield until WaitTime reaches zero
  3: 0x003C [0x70] WAIT_ENTITY_RENDER_FLAG: Wait while EventEntity->Render.Flags3 bit 2 is set (cancel turn if not)
  4: 0x003D [0x5B] LOAD_EXT_SCHEDULER: Load scheduler "tlk0" with entities [EventEntity, EventEntity], work=215*
  5: 0x004C [0x1D] PRINT_EVENT_MESSAGE(message_id=13758*)
    → "Oho, ya feelin' lucky 'nough tah takes a stab at da myst'ry box?"
  6: 0x004F [0x23] WAIT_FOR_DIALOG_INTERACTION
  7: 0x0050 [0x5E] EventEntity goes idle (kills current action) (animation: "idl0")
  8: 0x0055 [0x06] ExtData[1]->WorkLocal[1] = 0
  9: 0x0058 [0x24] CREATE_DIALOG(message_id=13759*, default_option=ExtData[1]->WorkLocal[1], option_flags=4*)
    → "Whatcha gonna do? ($7 tally) [Open the box and profit!/Listen to the explanation./Inquire about my daily tally. /Peek at some possibilities./Nothing right now.]"
 10: 0x005F [0x25] WAIT_DIALOG_SELECT()
 11: 0x0060 [0x02] IF !(Work_Zone[0] == 0*) GOTO 0x014B
 12: 0x0068 [0x5B] LOAD_EXT_SCHEDULER: Load scheduler "tlk0" with entities [EventEntity, EventEntity], work=215*
 13: 0x0077 [0x1D] PRINT_EVENT_MESSAGE(message_id=13760*)
    → "Ya wanna open dat sucker up? Okay, but which dial ya be wantin'?"
 14: 0x007A [0x23] WAIT_FOR_DIALOG_INTERACTION
 15: 0x007B [0x5E] EventEntity goes idle (kills current action) (animation: "idl0")
 16: 0x0080 [0x06] ExtData[1]->WorkLocal[3] = 0
 17: 0x0083 [0x06] ExtData[1]->WorkLocal[2] = 0
 18: 0x0086 [0x40] SET_BIT_WORK_RANGE(start_bit=0*, end_bit=2*, target=Work_Zone[1], source=5*)
 19: 0x008F [0x43] SEND_EVENT_UPDATE: Send pending tag to server (packet 0x005B)
 20: 0x0091 [0x43] SEND_EVENT_UPDATE: Check pending flag (skip if not pending)
 21: 0x0093 [0x03] ExtData[1]->WorkLocal[0] = 28160*
 22: 0x0098 [0x0E] ExtData[1]->WorkLocal[0] |= Work_Zone[8]
 23: 0x009D [0x03] Work_Zone_1700[0] = 10*
 24: 0x00A2 [0x03] Work_Zone_1700[1] = 50*
 25: 0x00A7 [0x03] Work_Zone_1700[2] = 0*
 26: 0x00AC [0x03] Work_Zone_1700[3] = 0*
 27: 0x00B1 [0x03] Work_Zone_1700[4] = 0*
 28: 0x00B6 [0x24] CREATE_DIALOG(message_id=13762*, default_option=ExtData[1]->WorkLocal[2], option_flags=ExtData[1]->WorkLocal[0])
    → "So, what dial ya gonna pick? ($7 tally) [I got cold feet, so none./Dial 1 (Materials): $8 tally./Dial 2 (Food): $8 tally./Dial 3 (Medicine): $8 tally./Dial 4 (Sundries 1): $8 tally./Dial 5 (Sundries 2): $8 tally./Special dial: $9 tally [/ (already opened)]./Adoulin dial: $10 tally[/ (already opened)]./Pictlogica dial: $11 tally[/ (already opened)]./@/@/@/Wanted dial: $12 tally[/ (already opened)]./@/@]"
 29: 0x00BD [0x25] WAIT_DIALOG_SELECT()
 30: 0x00BE [0x02] IF !(Work_Zone[0] == 0*) GOTO 0x00CB
 31: 0x00C6 [0x21] END_EVENT
 32: 0x00C7 [0x00] END_REQSTACK()

SUBROUTINE_00D9:
 33: 0x00D9 [0x40] SET_BIT_WORK_RANGE(start_bit=0*, end_bit=2*, target=Work_Zone[1], source=1*)
 34: 0x00E2 [0x42] SET_CLI_EVENT_CANCEL_DATA()
 35: 0x00E3 [0x43] SEND_EVENT_UPDATE: Send pending tag to server (packet 0x005B)
 36: 0x00E5 [0x43] SEND_EVENT_UPDATE: Check pending flag (skip if not pending)
 37: 0x00E7 [0x03] ExtData[1]->WorkLocal[0] = Work_Zone[4]
 38: 0x00EC [0x02] IF !(ExtData[1]->WorkLocal[2] > 6*) GOTO 0x0124
 39: 0x00F4 [0x02] IF !(ExtData[1]->WorkLocal[2] == 6*) GOTO 0x0110
 40: 0x00FC [0x02] IF !(ExtData[1]->WorkLocal[3] < 6*) GOTO 0x010A
 41: 0x0104 [0x05] ExtData[1]->WorkLocal[4] = 1
 42: 0x0107 [0x01] GOTO 0x010D
 43: 0x010A [0x06] ExtData[1]->WorkLocal[4] = 0

SUBROUTINE_010D:
 44: 0x010D [0x01] GOTO 0x0121
 45: 0x0110 [0x02] IF !(ExtData[1]->WorkLocal[2] == ExtData[1]->WorkLocal[3]) GOTO 0x011E
 46: 0x0118 [0x05] ExtData[1]->WorkLocal[4] = 1
 47: 0x011B [0x01] GOTO 0x0121
 48: 0x011E [0x06] ExtData[1]->WorkLocal[4] = 0

SUBROUTINE_0121:
 49: 0x0121 [0x01] GOTO 0x0135
 50: 0x0124 [0x02] IF !(ExtData[1]->WorkLocal[3] > 6*) GOTO 0x0132
 51: 0x012C [0x05] ExtData[1]->WorkLocal[4] = 1
 52: 0x012F [0x01] GOTO 0x0135
 53: 0x0132 [0x06] ExtData[1]->WorkLocal[4] = 0

SUBROUTINE_0135:
 54: 0x0135 [0x03] ExtData[1]->WorkLocal[3] = ExtData[1]->WorkLocal[2]
 55: 0x013A [0x1A] CALL_SUBROUTINE(address=0x024B)
 56: 0x013D [0x02] IF !(ExtData[1]->WorkLocal[0] == 0*) GOTO 0x0148
 57: 0x0145 [0x01] GOTO 0x0086
 58: 0x0148 [0x01] GOTO 0x01B5
 59: 0x014B [0x02] IF !(Work_Zone[0] == 1*) GOTO 0x0175
 60: 0x0153 [0x03] ExtData[1]->WorkLocal[1] = Work_Zone[0]
 61: 0x0158 [0x5B] LOAD_EXT_SCHEDULER: Load scheduler "tlk0" with entities [EventEntity, EventEntity], work=215*
 62: 0x0167 [0x1A] CALL_SUBROUTINE(address=0x0216)
 63: 0x016A [0x5E] EventEntity goes idle (kills current action) (animation: "idl0")
 64: 0x016F [0x01] GOTO 0x0058

SUBROUTINE_01B5:
 65: 0x01B5 [0x21] END_EVENT
 66: 0x01B6 [0x00] END_REQSTACK()
```

#### Data or dead code:

```
# Dead code (unreachable instructions):
     0x00C8 [0x01] GOTO 0x00D9
# Dead code (unreachable instructions):
     0x0172 [0x01] GOTO 0x01B5
     0x01B2 [0x01] GOTO 0x01B5
```

### Event 5137

#### Metadata

| Field        | Value    |
|--------------|----------|
| Entrypoint   | 0x01B7   |
| Data Size    | 33 bytes |
| Instructions | 11       |

```
      00 01 02 03 04 05 06 07  08 09 0A 0B 0C 0D 0E 0F
      -- -- -- -- -- -- -- --  -- -- -- -- -- -- -- --
01B0:                      42  1E F0 FF FF 7F 6F 70 5B         B.....op[
01C0: 00 80 F8 FF FF 7F F8 FF  FF 7F 74 6C 6B 30 1D 14  ..........tlk0..
01D0: 80 23 43 00 43 01 21 00                           .#C.C.!.        
```

#### Opcodes

```
  0: 0x01B7 [0x42] SET_CLI_EVENT_CANCEL_DATA()
  1: 0x01B8 [0x1E] EventEntity looks at LocalPlayer and starts talking
  2: 0x01BD [0x6F] WAIT_FRAME_DELAY: Yield until WaitTime reaches zero
  3: 0x01BE [0x70] WAIT_ENTITY_RENDER_FLAG: Wait while EventEntity->Render.Flags3 bit 2 is set (cancel turn if not)
  4: 0x01BF [0x5B] LOAD_EXT_SCHEDULER: Load scheduler "tlk0" with entities [EventEntity, EventEntity], work=215*
  5: 0x01CE [0x1D] PRINT_EVENT_MESSAGE(message_id=13767*)
    → "Ya's thought I threw yer prize away?! Prepostamarous! I's just tucked it away for safekeepin' is all."
  6: 0x01D1 [0x23] WAIT_FOR_DIALOG_INTERACTION
  7: 0x01D2 [0x43] SEND_EVENT_UPDATE: Send pending tag to server (packet 0x005B)
  8: 0x01D4 [0x43] SEND_EVENT_UPDATE: Check pending flag (skip if not pending)
  9: 0x01D6 [0x21] END_EVENT
 10: 0x01D7 [0x00] END_REQSTACK()
```

### Event 5144

#### Metadata

| Field        | Value     |
|--------------|-----------|
| Entrypoint   | 0x01D8    |
| Data Size    | 829 bytes |
| Instructions | 22        |

```
      00 01 02 03 04 05 06 07  08 09 0A 0B 0C 0D 0E 0F
      -- -- -- -- -- -- -- --  -- -- -- -- -- -- -- --
01D0:                          1E F0 FF FF 7F 6F 70 5B          .....op[
01E0: 00 80 F8 FF FF 7F F8 FF  FF 7F 74 6C 6B 30 1D 15  ..........tlk0..
01F0: 80 23 1D 16 80 23 1D 17  80 23 1D 18 80 23 1D 19  .#...#...#...#..
0200: 80 23 1D 1A 80 23 1D 1B  80 23 5E 69 64 6C 30 03  .#...#...#^idl0.
0210: 01 10 03 80 21 00 1D 1C  80 23 1D 1D 80 23 1D 1E  ....!....#...#..
0220: 80 23 1D 1F 80 23 1D 20  80 23 1D 21 80 23 1D 22  .#...#. .#.!.#."
0230: 80 23 1D 23 80 23 1D 24  80 23 1D 25 80 23 1D 19  .#.#.#.$.#.%.#..
0240: 80 23 1D 1A 80 23 1D 1B  80 23 1B 02 00 00 07 80  .#...#...#......
0250: 80 70 03 5B 00 80 F8 FF  FF 7F F8 FF FF 7F 74 6C  .p.[..........tl
0260: 6B 30 02 02 00 10 80 03  71 02 1D 26 80 23 01 B5  k0......q..&.#..
0270: 02 02 02 00 10 80 80 81  02 03 02 10 07 80 01 B1  ................
0280: 02 02 02 00 27 80 80 91  02 03 02 10 03 80 01 B1  ....'...........
0290: 02 02 02 00 28 80 80 A1  02 03 02 10 09 80 01 B1  ....(...........
02A0: 02 02 02 00 29 80 80 B1  02 03 02 10 0F 80 01 B1  ....)...........
02B0: 02 1D 2A 80 23 5E 69 64  6C 30 1E 2C 11 10 01 6F  ..*.#^idl0.,...o
02C0: 70 5B 2B 80 F8 FF FF 7F  F8 FF FF 7F 68 61 70 30  p[+.........hap0
02D0: 1D 2C 80 23 02 04 00 03  80 00 EB 02 03 03 10 02  .,.#............
02E0: 00 29 80 2C 11 10 01 01  1C 2D 80 2C 2C 11 10 01  .).,.....-.,,...
02F0: 2C 11 10 01 6F 70 65 6E  1C 2D 80 50 2C 11 10 01  ,...open.-.P,...
0300: 2C 11 10 01 6F 70 65 6E  5B 2B 80 F8 FF FF 7F F8  ,...open[+......
0310: FF FF 7F 68 61 70 31 2C  2C 11 10 01 2C 11 10 01  ...hap1,,...,...
0320: 63 6C 6F 73 1E F0 FF FF  7F 6F 70 5B 00 80 F8 FF  clos.....op[....
0330: FF 7F F8 FF FF 7F 74 6C  6B 30 1D 2E 80 23 5B 00  ......tlk0...#[.
0340: 80 F8 FF FF 7F F8 FF FF  7F 70 61 73 30 53 F8 FF  .........pas0S..
0350: FF 7F F8 FF FF 7F 70 61  73 30 40 07 80 09 80 01  ......pas0@.....
0360: 10 09 80 43 00 43 01 03  00 00 05 10 2E 01 14 05  ...C.C..........
0370: 02 00 00 03 80 80 9D 03  5B 00 80 F8 FF FF 7F F8  ........[.......
0380: FF FF 7F 74 6C 6B 30 02  02 00 10 80 01 96 03 1D  ...tlk0.........
0390: 2F 80 23 01 9A 03 1D 30  80 23 01 14 05 02 00 00  /.#....0.#......
03A0: 09 80 80 FB 03 5B 00 80  F8 FF FF 7F F8 FF FF 7F  .....[..........
03B0: 74 6C 6B 30 02 02 00 10  80 80 C4 03 03 02 10 07  tlk0............
03C0: 80 01 F4 03 02 02 00 27  80 80 D4 03 03 02 10 03  .......'........
03D0: 80 01 F4 03 02 02 00 28  80 80 E4 03 03 02 10 09  .......(........
03E0: 80 01 F4 03 02 02 00 29  80 80 F4 03 03 02 10 0F  .......)........
03F0: 80 01 F4 03 1D 31 80 23  01 14 05 02 00 00 0F 80  .....1.#........
0400: 80 14 05 02 03 00 07 80  00 25 04 1E 2C 11 10 01  .........%..,...
0410: 6F 70 5B 2B 80 F8 FF FF  7F F8 FF FF 7F 68 61 70  op[+.........hap
0420: 30 1D 2C 80 23 02 02 00  32 80 00 39 04 02 09 10  0.,.#...2..9....
0430: 0C 80 00 39 04 1D 33 80  23 02 04 00 03 80 00 50  ...9..3.#......P
0440: 04 03 03 10 02 00 29 80  2C 11 10 01 01 1C 2D 80  ......).,.....-.
0450: 02 03 00 07 80 00 CA 04  2C 2C 11 10 01 2C 11 10  ........,,...,..
0460: 01 6F 70 65 6E 1C 2D 80  50 2C 11 10 01 2C 11 10  .open.-.P,...,..
0470: 01 6F 70 65 6E 5B 2B 80  F8 FF FF 7F F8 FF FF 7F  .open[+.........
0480: 68 61 70 31 2C 2C 11 10  01 2C 11 10 01 63 6C 6F  hap1,,...,...clo
0490: 73 1E F0 FF FF 7F 6F 70  5B 00 80 F8 FF FF 7F F8  s.....op[.......
04A0: FF FF 7F 74 6C 6B 30 1D  2E 80 23 5B 00 80 F8 FF  ...tlk0...#[....
04B0: FF 7F F8 FF FF 7F 70 61  73 30 53 F8 FF FF 7F F8  ......pas0S.....
04C0: FF FF 7F 70 61 73 30 01  04 05 02 02 00 32 80 00  ...pas0......2..
04D0: 04 05 02 04 00 03 80 00  04 05 2C 2C 11 10 01 2C  ..........,,...,
04E0: 11 10 01 6F 70 65 6E 1C  2D 80 50 2C 11 10 01 2C  ...open.-.P,...,
04F0: 11 10 01 6F 70 65 6E 2C  2C 11 10 01 2C 11 10 01  ...open,,...,...
0500: 63 6C 6F 73 40 07 80 09  80 01 10 09 80 43 00 43  clos@........C.C
0510: 01 01 14 05 1B                                    .....           
```

#### Opcodes

```
  0: 0x01D8 [0x1E] EventEntity looks at LocalPlayer and starts talking
  1: 0x01DD [0x6F] WAIT_FRAME_DELAY: Yield until WaitTime reaches zero
  2: 0x01DE [0x70] WAIT_ENTITY_RENDER_FLAG: Wait while EventEntity->Render.Flags3 bit 2 is set (cancel turn if not)
  3: 0x01DF [0x5B] LOAD_EXT_SCHEDULER: Load scheduler "tlk0" with entities [EventEntity, EventEntity], work=215*
  4: 0x01EE [0x1D] PRINT_EVENT_MESSAGE(message_id=13751*)
    → "Hey! I rem'mber seein' yer foice 'round here. Take a looksie. I's taken' it upon myself tah jigger 'round wit' dese all-new myst'ry boxes, found straight from an ol' capsized vessel in the Gugru Blue."
  5: 0x01F1 [0x23] WAIT_FOR_DIALOG_INTERACTION
  6: 0x01F2 [0x1D] PRINT_EVENT_MESSAGE(message_id=13752*)
    → "I's nevah gonna say how we gots our hands on 'em, so dun even ask! But, still, I gots tah say dat dese're somet'in' special! Now try yer hand 'fore I smack ya!"
  7: 0x01F5 [0x23] WAIT_FOR_DIALOG_INTERACTION
  8: 0x01F6 [0x1D] PRINT_EVENT_MESSAGE(message_id=13753*)
    → "Just select yer desir'd dial and plug 'way at it. Will ya win somethin' super special? Or will't be da booby proize?"
  9: 0x01F9 [0x23] WAIT_FOR_DIALOG_INTERACTION
 10: 0x01FA [0x1D] PRINT_EVENT_MESSAGE(message_id=13754*)
    → "Dese're some "special dials," an' I gots no inklin' what's inside. Ya gots tah open 'em yerself tah find out what treasures lie within!"
 11: 0x01FD [0x23] WAIT_FOR_DIALOG_INTERACTION
 12: 0x01FE [0x1D] PRINT_EVENT_MESSAGE(message_id=13756*)
    → "So I's not be takin' no responsibility if somethin' weird 'n wacky comes out. Got it? Ya open it, ya keep it."
 13: 0x0201 [0x23] WAIT_FOR_DIALOG_INTERACTION
 14: 0x0202 [0x1D] PRINT_EVENT_MESSAGE(message_id=13757*)
    → "'N openin' 'em requires some kinda secret technique. Maybe it'll succeed, maybe tha box'll break. 'Sif I know. But ya can only try 'em once a day."
 15: 0x0205 [0x23] WAIT_FOR_DIALOG_INTERACTION
 16: 0x0206 [0x1D] PRINT_EVENT_MESSAGE(message_id=13750*)
    → "Dat all make 'nough sense tah ya? Just say da woid when ya wanna use my services. I's more'n happy tah help."
 17: 0x0209 [0x23] WAIT_FOR_DIALOG_INTERACTION
 18: 0x020A [0x5E] EventEntity goes idle (kills current action) (animation: "idl0")
 19: 0x020F [0x03] Work_Zone[1] = 1*
 20: 0x0214 [0x21] END_EVENT
 21: 0x0215 [0x00] END_REQSTACK()
```

#### Data or dead code:

```
# Dead code (unreachable instructions):
     0x0216 [0x1D] PRINT_EVENT_MESSAGE(message_id=13739*)
    → "Bah-dah-bah-dahm dah-daaahm! Ya open da chest. Dat's it. And da kicker be dat I'm da one doin' da openin'. Ya just gets tah stand dere gawkin' in astonishmament. Easy gig, no?"
     0x0219 [0x23] WAIT_FOR_DIALOG_INTERACTION
     0x021A [0x1D] PRINT_EVENT_MESSAGE(message_id=13740*)
    → "Oh yeah, 'fore I forget. What good's a chest if ya ain't gots da key? Well, da key to dis chest is da fine art o' waitin'."
     0x021D [0x23] WAIT_FOR_DIALOG_INTERACTION
     0x021E [0x1D] PRINT_EVENT_MESSAGE(message_id=13743*)
    → "Also, I calls da amount o' time ya's waited yer circa...circama...circamadamian...ugh, yer "daily tally." It ain't just da name dat's catchy, though. Da higher yer tally, da gooder yer goods get! Can't get much good--er, simpler dan dat."
     0x0221 [0x23] WAIT_FOR_DIALOG_INTERACTION
     0x0222 [0x1D] PRINT_EVENT_MESSAGE(message_id=13744*)
    → "Finally, ya opens da chest. Oooh, I can barely contain m'self thinkin' o' all da riches I--er, ya could have!"
     0x0225 [0x23] WAIT_FOR_DIALOG_INTERACTION
     0x0226 [0x1D] PRINT_EVENT_MESSAGE(message_id=13745*)
    → "Oh, dat's right! Heyheyhey, got any items ya won't be needin'? If so, fork 'em over 'n yer daily tally'll increase! Mebbe not by much, but dat's better'n nothin', am I right?"
     0x0229 [0x23] WAIT_FOR_DIALOG_INTERACTION
     0x022A [0x1D] PRINT_EVENT_MESSAGE(message_id=13746*)
    → "And dere's no better feelin' dan takin' trash and turnin' it into treasure. It's pramactically a new kind o' alchemy! But don't go gung ho 'n overfills da thing 'til its hinges break. Myst'ry boxes don't grow on goobbues, y'know."
     0x022D [0x23] WAIT_FOR_DIALOG_INTERACTION
     0x022E [0x1D] PRINT_EVENT_MESSAGE(message_id=13747*)
    → "Plus, I'll be here tah stops ya if I sees ya stuffin' whole Gobbiebags worth o' possessions in dere, so don't worry yer oversized noggin' over and over over it. Whats was I sayin' again? Ugh, never mind."
     0x0231 [0x23] WAIT_FOR_DIALOG_INTERACTION
     0x0232 [0x1D] PRINT_EVENT_MESSAGE(message_id=13748*)
    → "Sadly, howsever, anodda myst'ry 'bout dis chest is dat it won't takes just any ol' bauble. It has da taste o' a picky peiste--it feasts upon nothin' but da rarest and unique-est o' artifacts."
     0x0235 [0x23] WAIT_FOR_DIALOG_INTERACTION
     0x0236 [0x1D] PRINT_EVENT_MESSAGE(message_id=13749*)
    → "Lastly, since we don't knows where da items go once inside, ya ain't gettin' nothin' back datcha put in. Ya reap whatcha sow, and da weather ain't always condusimasive to a good harvest, am I right? My condolemances in advance for any losses ya mights incur from da myst'ry box's fickle nature."
     0x0239 [0x23] WAIT_FOR_DIALOG_INTERACTION
     0x023A [0x1D] PRINT_EVENT_MESSAGE(message_id=13755*)
    → "Oh ho, I's forgettin' tah explain somethin' to ya. See dese "special dials"? Dey're super primo, but I still no know wut's gonna be in dere."
     0x023D [0x23] WAIT_FOR_DIALOG_INTERACTION
     0x023E [0x1D] PRINT_EVENT_MESSAGE(message_id=13756*)
    → "So I's not be takin' no responsibility if somethin' weird 'n wacky comes out. Got it? Ya open it, ya keep it."
     0x0241 [0x23] WAIT_FOR_DIALOG_INTERACTION
     0x0242 [0x1D] PRINT_EVENT_MESSAGE(message_id=13757*)
    → "'N openin' 'em requires some kinda secret technique. Maybe it'll succeed, maybe tha box'll break. 'Sif I know. But ya can only try 'em once a day."
     0x0245 [0x23] WAIT_FOR_DIALOG_INTERACTION
     0x0246 [0x1D] PRINT_EVENT_MESSAGE(message_id=13750*)
    → "Dat all make 'nough sense tah ya? Just say da woid when ya wanna use my services. I's more'n happy tah help."
     0x0249 [0x23] WAIT_FOR_DIALOG_INTERACTION
     0x024A [0x1B] RETURN
     0x024B [0x02] IF !(ExtData[1]->WorkLocal[0] == 0*) GOTO 0x0370
     0x0253 [0x5B] LOAD_EXT_SCHEDULER: Load scheduler "tlk0" with entities [EventEntity, EventEntity], work=215*
     0x0262 [0x02] IF !(ExtData[1]->WorkLocal[2] >= 6*) GOTO 0x0271
     0x026A [0x1D] PRINT_EVENT_MESSAGE(message_id=13764*)
    → "Yer goin' wit' dial $1, huh? Lessee what myst'ries await!"
     0x026D [0x23] WAIT_FOR_DIALOG_INTERACTION
     0x026E [0x01] GOTO 0x02B5
     0x0271 [0x02] IF !(ExtData[1]->WorkLocal[2] == 6*) GOTO 0x0281
     0x0279 [0x03] Work_Zone[2] = 0*
     0x027E [0x01] GOTO 0x02B1
     0x0281 [0x02] IF !(ExtData[1]->WorkLocal[2] == 7*) GOTO 0x0291
     0x0289 [0x03] Work_Zone[2] = 1*
     0x028E [0x01] GOTO 0x02B1
     0x0291 [0x02] IF !(ExtData[1]->WorkLocal[2] == 8*) GOTO 0x02A1
     0x0299 [0x03] Work_Zone[2] = 2*
     0x029E [0x01] GOTO 0x02B1
     0x02A1 [0x02] IF !(ExtData[1]->WorkLocal[2] == 12*) GOTO 0x02B1
     0x02A9 [0x03] Work_Zone[2] = 3*
     0x02AE [0x01] GOTO 0x02B1
     0x02B1 [0x1D] PRINT_EVENT_MESSAGE(message_id=13785*)
    → "So ya be wantin' the [special/Adoulin/pictlogica/Wanted/campaign] dial? M'kay, get yerself all steeled up, 'cause here we go! 'Member, no complaints!"
     0x02B4 [0x23] WAIT_FOR_DIALOG_INTERACTION
     0x02B5 [0x5E] EventEntity goes idle (kills current action) (animation: "idl0")
     0x02BA [0x1E] EventEntity looks at Treasure Coffer (ID: 17830188/0x0110112C) and starts talking
     0x02BF [0x6F] WAIT_FRAME_DELAY: Yield until WaitTime reaches zero
     0x02C0 [0x70] WAIT_ENTITY_RENDER_FLAG: Wait while EventEntity->Render.Flags3 bit 2 is set (cancel turn if not)
     0x02C1 [0x5B] LOAD_EXT_SCHEDULER: Load scheduler "hap0" with entities [EventEntity, EventEntity], work=216*
     0x02D0 [0x1D] PRINT_EVENT_MESSAGE(message_id=13765*)
    → "Dis box is full o' myst'ries,t Dat span da realm's his'try,t So whatcha gonna get from da chest...o'...uh, fortunery?t"
     0x02D3 [0x23] WAIT_FOR_DIALOG_INTERACTION
     0x02D4 [0x02] IF !(ExtData[1]->WorkLocal[4] == 1*) GOTO 0x02EB
     0x02DC [0x03] Work_Zone[3] = ExtData[1]->WorkLocal[2]
     0x02E1 [0x29] REQ_SET_WAIT(priority=0x80, entity_id=Treasure Coffer (ID: 17830188/0x0110112C), tag_num=0x01)
     0x02E8 [0x1C] WAIT(90* ticks)
     0x02EB [0x2C] CREATE_SCHEDULER_TASK: Create scheduler "open" with entities [Treasure Coffer (ID: 17830188/0x0110112C), Treasure Coffer (ID: 17830188/0x0110112C)]
     0x02F8 [0x1C] WAIT(90* ticks)
     0x02FB [0x50] END_SCHEDULER_TASK: End scheduler "op" with entities [Work_Zone_Memorize[44], Work_Zone_Memorize[44]], work=[272, 272]
     0x0308 [0x5B] LOAD_EXT_SCHEDULER: Load scheduler "hap1" with entities [EventEntity, EventEntity], work=216*
     0x0317 [0x2C] CREATE_SCHEDULER_TASK: Create scheduler "clos" with entities [Treasure Coffer (ID: 17830188/0x0110112C), Treasure Coffer (ID: 17830188/0x0110112C)]
     0x0324 [0x1E] EventEntity looks at LocalPlayer and starts talking
     0x0329 [0x6F] WAIT_FRAME_DELAY: Yield until WaitTime reaches zero
     0x032A [0x70] WAIT_ENTITY_RENDER_FLAG: Wait while EventEntity->Render.Flags3 bit 2 is set (cancel turn if not)
     0x032B [0x5B] LOAD_EXT_SCHEDULER: Load scheduler "tlk0" with entities [EventEntity, EventEntity], work=215*
     0x033A [0x1D] PRINT_EVENT_MESSAGE(message_id=13766*)
    → "Oooh, looks at what popped out! I hopes it makes yer adventures dat much more adventumarous!"
     0x033D [0x23] WAIT_FOR_DIALOG_INTERACTION
     0x033E [0x5B] LOAD_EXT_SCHEDULER: Load scheduler "pas0" with entities [EventEntity, EventEntity], work=215*
     0x034D [0x53] WAIT_SCHEDULER_TASK: Wait for scheduler "pas0" with entities [EventEntity, EventEntity]
     0x035A [0x40] SET_BIT_WORK_RANGE(start_bit=0*, end_bit=2*, target=Work_Zone[1], source=2*)
     0x0363 [0x43] SEND_EVENT_UPDATE: Send pending tag to server (packet 0x005B)
     0x0365 [0x43] SEND_EVENT_UPDATE: Check pending flag (skip if not pending)
     0x0367 [0x03] ExtData[1]->WorkLocal[0] = Work_Zone[5]
     0x036C [0x2E] SET_CLI_EVENT_CANCEL_FLAGS()
     0x036D [0x01] GOTO 0x0514
     0x0370 [0x02] IF !(ExtData[1]->WorkLocal[0] == 1*) GOTO 0x039D
     0x0378 [0x5B] LOAD_EXT_SCHEDULER: Load scheduler "tlk0" with entities [EventEntity, EventEntity], work=215*
     0x0387 [0x02] IF !(ExtData[1]->WorkLocal[2] == 6*) GOTO 0x0396
     0x038F [0x1D] PRINT_EVENT_MESSAGE(message_id=13763*)
    → "Yer goin' wit' dial $1, huh? Whatchu tryin' ta pull!? Yer daily tally's too low."
     0x0392 [0x23] WAIT_FOR_DIALOG_INTERACTION
     0x0393 [0x01] GOTO 0x039A
     0x0396 [0x1D] PRINT_EVENT_MESSAGE(message_id=13784*)
    → "So ya be wantin' the special dial? Whoawhoawhoa! Get yer grubby hands offa that! Ya don't have enough daily tally, and I's not 'bout tah let ya cheat me!"
     0x0399 [0x23] WAIT_FOR_DIALOG_INTERACTION
     0x039A [0x01] GOTO 0x0514
     0x039D [0x02] IF !(ExtData[1]->WorkLocal[0] == 2*) GOTO 0x03FB
     0x03A5 [0x5B] LOAD_EXT_SCHEDULER: Load scheduler "tlk0" with entities [EventEntity, EventEntity], work=215*
     0x03B4 [0x02] IF !(ExtData[1]->WorkLocal[2] == 6*) GOTO 0x03C4
     0x03BC [0x03] Work_Zone[2] = 0*
     0x03C1 [0x01] GOTO 0x03F4
     0x03C4 [0x02] IF !(ExtData[1]->WorkLocal[2] == 7*) GOTO 0x03D4
     0x03CC [0x03] Work_Zone[2] = 1*
     0x03D1 [0x01] GOTO 0x03F4
     0x03D4 [0x02] IF !(ExtData[1]->WorkLocal[2] == 8*) GOTO 0x03E4
     0x03DC [0x03] Work_Zone[2] = 2*
     0x03E1 [0x01] GOTO 0x03F4
     0x03E4 [0x02] IF !(ExtData[1]->WorkLocal[2] == 12*) GOTO 0x03F4
     0x03EC [0x03] Work_Zone[2] = 3*
     0x03F1 [0x01] GOTO 0x03F4
     0x03F4 [0x1D] PRINT_EVENT_MESSAGE(message_id=13786*)
    → "So ya be wantin' the [special/Adoulin/pictlogica/Wanted] dial? Whoawhoawhoa! Get yer grubby hands offa that! I's already opened one fer ya today! Haul that keister outta here and come back t'morrow."
     0x03F7 [0x23] WAIT_FOR_DIALOG_INTERACTION
     0x03F8 [0x01] GOTO 0x0514
     0x03FB [0x02] IF !(ExtData[1]->WorkLocal[0] == 3*) GOTO 0x0514
     0x0403 [0x02] IF !(ExtData[1]->WorkLocal[3] == 0*) GOTO 0x0425
     0x040B [0x1E] EventEntity looks at Treasure Coffer (ID: 17830188/0x0110112C) and starts talking
     0x0410 [0x6F] WAIT_FRAME_DELAY: Yield until WaitTime reaches zero
     0x0411 [0x70] WAIT_ENTITY_RENDER_FLAG: Wait while EventEntity->Render.Flags3 bit 2 is set (cancel turn if not)
     0x0412 [0x5B] LOAD_EXT_SCHEDULER: Load scheduler "hap0" with entities [EventEntity, EventEntity], work=216*
     0x0421 [0x1D] PRINT_EVENT_MESSAGE(message_id=13765*)
    → "Dis box is full o' myst'ries,t Dat span da realm's his'try,t So whatcha gonna get from da chest...o'...uh, fortunery?t"
     0x0424 [0x23] WAIT_FOR_DIALOG_INTERACTION
     0x0425 [0x02] IF !(ExtData[1]->WorkLocal[2] == 14*) GOTO 0x0439
     0x042D [0x02] IF !(Work_Zone[9] == 10*) GOTO 0x0439
     0x0435 [0x1D] PRINT_EVENT_MESSAGE(message_id=13792*)
    → "Urk!"
     0x0438 [0x23] WAIT_FOR_DIALOG_INTERACTION
     0x0439 [0x02] IF !(ExtData[1]->WorkLocal[4] == 1*) GOTO 0x0450
     0x0441 [0x03] Work_Zone[3] = ExtData[1]->WorkLocal[2]
     0x0446 [0x29] REQ_SET_WAIT(priority=0x80, entity_id=Treasure Coffer (ID: 17830188/0x0110112C), tag_num=0x01)
     0x044D [0x1C] WAIT(90* ticks)
     0x0450 [0x02] IF !(ExtData[1]->WorkLocal[3] == 0*) GOTO 0x04CA
     0x0458 [0x2C] CREATE_SCHEDULER_TASK: Create scheduler "open" with entities [Treasure Coffer (ID: 17830188/0x0110112C), Treasure Coffer (ID: 17830188/0x0110112C)]
     0x0465 [0x1C] WAIT(90* ticks)
     0x0468 [0x50] END_SCHEDULER_TASK: End scheduler "op" with entities [Work_Zone_Memorize[44], Work_Zone_Memorize[44]], work=[272, 272]
     0x0475 [0x5B] LOAD_EXT_SCHEDULER: Load scheduler "hap1" with entities [EventEntity, EventEntity], work=216*
     0x0484 [0x2C] CREATE_SCHEDULER_TASK: Create scheduler "clos" with entities [Treasure Coffer (ID: 17830188/0x0110112C), Treasure Coffer (ID: 17830188/0x0110112C)]
     0x0491 [0x1E] EventEntity looks at LocalPlayer and starts talking
     0x0496 [0x6F] WAIT_FRAME_DELAY: Yield until WaitTime reaches zero
     0x0497 [0x70] WAIT_ENTITY_RENDER_FLAG: Wait while EventEntity->Render.Flags3 bit 2 is set (cancel turn if not)
     0x0498 [0x5B] LOAD_EXT_SCHEDULER: Load scheduler "tlk0" with entities [EventEntity, EventEntity], work=215*
     0x04A7 [0x1D] PRINT_EVENT_MESSAGE(message_id=13766*)
    → "Oooh, looks at what popped out! I hopes it makes yer adventures dat much more adventumarous!"
     0x04AA [0x23] WAIT_FOR_DIALOG_INTERACTION
     0x04AB [0x5B] LOAD_EXT_SCHEDULER: Load scheduler "pas0" with entities [EventEntity, EventEntity], work=215*
     0x04BA [0x53] WAIT_SCHEDULER_TASK: Wait for scheduler "pas0" with entities [EventEntity, EventEntity]
     0x04C7 [0x01] GOTO 0x0504
     0x04CA [0x02] IF !(ExtData[1]->WorkLocal[2] == 14*) GOTO 0x0504
     0x04D2 [0x02] IF !(ExtData[1]->WorkLocal[4] == 1*) GOTO 0x0504
     0x04DA [0x2C] CREATE_SCHEDULER_TASK: Create scheduler "open" with entities [Treasure Coffer (ID: 17830188/0x0110112C), Treasure Coffer (ID: 17830188/0x0110112C)]
     0x04E7 [0x1C] WAIT(90* ticks)
     0x04EA [0x50] END_SCHEDULER_TASK: End scheduler "op" with entities [Work_Zone_Memorize[44], Work_Zone_Memorize[44]], work=[272, 272]
     0x04F7 [0x2C] CREATE_SCHEDULER_TASK: Create scheduler "clos" with entities [Treasure Coffer (ID: 17830188/0x0110112C), Treasure Coffer (ID: 17830188/0x0110112C)]
     0x0504 [0x40] SET_BIT_WORK_RANGE(start_bit=0*, end_bit=2*, target=Work_Zone[1], source=2*)
     0x050D [0x43] SEND_EVENT_UPDATE: Send pending tag to server (packet 0x005B)
     0x050F [0x43] SEND_EVENT_UPDATE: Check pending flag (skip if not pending)
     0x0511 [0x01] GOTO 0x0514
     0x0514 [0x1B] RETURN
```

### Event 5138

#### Metadata

| Field        | Value     |
|--------------|-----------|
| Entrypoint   | 0x0515    |
| Data Size    | 147 bytes |
| Instructions | 29        |

```
      00 01 02 03 04 05 06 07  08 09 0A 0B 0C 0D 0E 0F
      -- -- -- -- -- -- -- --  -- -- -- -- -- -- -- --
0510:                03 00 00  08 10 42 1E 2C 11 10 01       .....B.,...
0520: 6F 70 2C 2C 11 10 01 2C  11 10 01 6F 70 65 32 5B  op,,...,...ope2[
0530: 00 80 F8 FF FF 7F F8 FF  FF 7F 70 61 73 30 53 F8  ..........pas0S.
0540: FF FF 7F F8 FF FF 7F 70  61 73 30 2C 2C 11 10 01  .......pas0,,...
0550: 2C 11 10 01 63 6C 6F 73  53 2C 11 10 01 2C 11 10  ,...closS,...,..
0560: 01 63 6C 6F 73 1C 34 80  1E F0 FF FF 7F 6F 70 5B  .clos.4......op[
0570: 00 80 F8 FF FF 7F F8 FF  FF 7F 74 6C 6B 30 02 00  ..........tlk0..
0580: 00 07 80 80 8D 05 1D 35  80 23 01 9C 05 02 00 00  .......5.#......
0590: 03 80 80 9C 05 1D 36 80  23 01 9C 05 5E 69 64 6C  ......6.#...^idl
05A0: 30 2E 48 37 80 23 21 00                           0.H7.#!.        
```

#### Opcodes

```
  0: 0x0515 [0x03] ExtData[1]->WorkLocal[0] = Work_Zone[8]
  1: 0x051A [0x42] SET_CLI_EVENT_CANCEL_DATA()
  2: 0x051B [0x1E] EventEntity looks at Treasure Coffer (ID: 17830188/0x0110112C) and starts talking
  3: 0x0520 [0x6F] WAIT_FRAME_DELAY: Yield until WaitTime reaches zero
  4: 0x0521 [0x70] WAIT_ENTITY_RENDER_FLAG: Wait while EventEntity->Render.Flags3 bit 2 is set (cancel turn if not)
  5: 0x0522 [0x2C] CREATE_SCHEDULER_TASK: Create scheduler "ope2" with entities [Treasure Coffer (ID: 17830188/0x0110112C), Treasure Coffer (ID: 17830188/0x0110112C)]
  6: 0x052F [0x5B] LOAD_EXT_SCHEDULER: Load scheduler "pas0" with entities [EventEntity, EventEntity], work=215*
  7: 0x053E [0x53] WAIT_SCHEDULER_TASK: Wait for scheduler "pas0" with entities [EventEntity, EventEntity]
  8: 0x054B [0x2C] CREATE_SCHEDULER_TASK: Create scheduler "clos" with entities [Treasure Coffer (ID: 17830188/0x0110112C), Treasure Coffer (ID: 17830188/0x0110112C)]
  9: 0x0558 [0x53] WAIT_SCHEDULER_TASK: Wait for scheduler "clos" with entities [Treasure Coffer (ID: 17830188/0x0110112C), Treasure Coffer (ID: 17830188/0x0110112C)]
 10: 0x0565 [0x1C] WAIT(60* ticks)
 11: 0x0568 [0x1E] EventEntity looks at LocalPlayer and starts talking
 12: 0x056D [0x6F] WAIT_FRAME_DELAY: Yield until WaitTime reaches zero
 13: 0x056E [0x70] WAIT_ENTITY_RENDER_FLAG: Wait while EventEntity->Render.Flags3 bit 2 is set (cancel turn if not)
 14: 0x056F [0x5B] LOAD_EXT_SCHEDULER: Load scheduler "tlk0" with entities [EventEntity, EventEntity], work=215*
 15: 0x057E [0x02] IF !(ExtData[1]->WorkLocal[0] == 0*) GOTO 0x058D
 16: 0x0586 [0x1D] PRINT_EVENT_MESSAGE(message_id=13775*)
    → "Dere we goes. Da myst'ry box seems tah like yer offerin'...but it wants more. Got anythin' else ya wanna throw away?"
 17: 0x0589 [0x23] WAIT_FOR_DIALOG_INTERACTION
 18: 0x058A [0x01] GOTO 0x059C
 19: 0x058D [0x02] IF !(ExtData[1]->WorkLocal[0] == 1*) GOTO 0x059C
 20: 0x0595 [0x1D] PRINT_EVENT_MESSAGE(message_id=13776*)
    → "Dere we goes. Oho, looks like it don't wants no more. Guess ya gotta come back tomorrow if ya's wanna keep gettin' rid o' stuff."
 21: 0x0598 [0x23] WAIT_FOR_DIALOG_INTERACTION
 22: 0x0599 [0x01] GOTO 0x059C

SUBROUTINE_059C:
 23: 0x059C [0x5E] EventEntity goes idle (kills current action) (animation: "idl0")
 24: 0x05A1 [0x2E] SET_CLI_EVENT_CANCEL_FLAGS()
 25: 0x05A2 [0x48] [System] [13777*]:
    → "Yer daily tally's increased [a smidge./someamawhats./a Gobby-fold!/a ginormagantic amount!]"
 26: 0x05A5 [0x23] WAIT_FOR_DIALOG_INTERACTION
 27: 0x05A6 [0x21] END_EVENT
 28: 0x05A7 [0x00] END_REQSTACK()
```

### Event 5139

#### Metadata

| Field        | Value    |
|--------------|----------|
| Entrypoint   | 0x05A8   |
| Data Size    | 30 bytes |
| Instructions | 10       |

```
      00 01 02 03 04 05 06 07  08 09 0A 0B 0C 0D 0E 0F
      -- -- -- -- -- -- -- --  -- -- -- -- -- -- -- --
05A0:                          42 1E 2C 11 10 01 6F 70          B.,...op
05B0: 5B 00 80 F8 FF FF 7F F8  FF FF 7F 74 6C 6B 30 2E  [..........tlk0.
05C0: 1D 38 80 23 21 00                                 .8.#!.          
```

#### Opcodes

```
  0: 0x05A8 [0x42] SET_CLI_EVENT_CANCEL_DATA()
  1: 0x05A9 [0x1E] EventEntity looks at Treasure Coffer (ID: 17830188/0x0110112C) and starts talking
  2: 0x05AE [0x6F] WAIT_FRAME_DELAY: Yield until WaitTime reaches zero
  3: 0x05AF [0x70] WAIT_ENTITY_RENDER_FLAG: Wait while EventEntity->Render.Flags3 bit 2 is set (cancel turn if not)
  4: 0x05B0 [0x5B] LOAD_EXT_SCHEDULER: Load scheduler "tlk0" with entities [EventEntity, EventEntity], work=215*
  5: 0x05BF [0x2E] SET_CLI_EVENT_CANCEL_FLAGS()
  6: 0x05C0 [0x1D] PRINT_EVENT_MESSAGE(message_id=13778*)
    → "Sorrah, but it won't lemme put dis in. Got anythin' it mights like better?"
  7: 0x05C3 [0x23] WAIT_FOR_DIALOG_INTERACTION
  8: 0x05C4 [0x21] END_EVENT
  9: 0x05C5 [0x00] END_REQSTACK()
```

### Event 5140

#### Metadata

| Field        | Value    |
|--------------|----------|
| Entrypoint   | 0x05C6   |
| Data Size    | 28 bytes |
| Instructions | 8        |

```
      00 01 02 03 04 05 06 07  08 09 0A 0B 0C 0D 0E 0F
      -- -- -- -- -- -- -- --  -- -- -- -- -- -- -- --
05C0:                   1E F0  FF FF 7F 6F 70 5B 00 80        .....op[..
05D0: F8 FF FF 7F F8 FF FF 7F  74 6C 6B 30 1D 39 80 23  ........tlk0.9.#
05E0: 21 00                                             !.              
```

#### Opcodes

```
  0: 0x05C6 [0x1E] EventEntity looks at LocalPlayer and starts talking
  1: 0x05CB [0x6F] WAIT_FRAME_DELAY: Yield until WaitTime reaches zero
  2: 0x05CC [0x70] WAIT_ENTITY_RENDER_FLAG: Wait while EventEntity->Render.Flags3 bit 2 is set (cancel turn if not)
  3: 0x05CD [0x5B] LOAD_EXT_SCHEDULER: Load scheduler "tlk0" with entities [EventEntity, EventEntity], work=215*
  4: 0x05DC [0x1D] PRINT_EVENT_MESSAGE(message_id=13779*)
    → "Sorrah, but da chest has dat look. Y'know, da one dat says, "I'll kills ya if ya tries tah give me dat." I guess alls ya can do is comes back some odda time."
  5: 0x05DF [0x23] WAIT_FOR_DIALOG_INTERACTION
  6: 0x05E0 [0x21] END_EVENT
  7: 0x05E1 [0x00] END_REQSTACK()
```

### Event 5141

#### Metadata

| Field        | Value    |
|--------------|----------|
| Entrypoint   | 0x05E2   |
| Data Size    | 28 bytes |
| Instructions | 8        |

```
      00 01 02 03 04 05 06 07  08 09 0A 0B 0C 0D 0E 0F
      -- -- -- -- -- -- -- --  -- -- -- -- -- -- -- --
05E0:       1E F0 FF FF 7F 6F  70 5B 00 80 F8 FF FF 7F    .....op[......
05F0: F8 FF FF 7F 74 6C 6B 30  1D 3A 80 23 21 00        ....tlk0.:.#!.  
```

#### Opcodes

```
  0: 0x05E2 [0x1E] EventEntity looks at LocalPlayer and starts talking
  1: 0x05E7 [0x6F] WAIT_FRAME_DELAY: Yield until WaitTime reaches zero
  2: 0x05E8 [0x70] WAIT_ENTITY_RENDER_FLAG: Wait while EventEntity->Render.Flags3 bit 2 is set (cancel turn if not)
  3: 0x05E9 [0x5B] LOAD_EXT_SCHEDULER: Load scheduler "tlk0" with entities [EventEntity, EventEntity], work=215*
  4: 0x05F8 [0x1D] PRINT_EVENT_MESSAGE(message_id=13780*)
    → "Nah, it just won't woik. I's did my best, but yer daily tally just won't go no higher. Ya ain't gonna get no prizes by hoardin' yer points, so stop bein' such a Greedalox and use 'em."
  5: 0x05FB [0x23] WAIT_FOR_DIALOG_INTERACTION
  6: 0x05FC [0x21] END_EVENT
  7: 0x05FD [0x00] END_REQSTACK()
```

### Event 65535.1

#### Metadata

| Field        | Value    |
|--------------|----------|
| Entrypoint   | 0x05FE   |
| Data Size    | 28 bytes |
| Instructions | 8        |

```
      00 01 02 03 04 05 06 07  08 09 0A 0B 0C 0D 0E 0F
      -- -- -- -- -- -- -- --  -- -- -- -- -- -- -- --
05F0:                                            1E F0                ..
0600: FF FF 7F 6F 70 5B 00 80  F8 FF FF 7F F8 FF FF 7F  ...op[..........
0610: 74 6C 6B 30 1D 3B 80 23  21 00                    tlk0.;.#!.      
```

#### Opcodes

```
  0: 0x05FE [0x1E] EventEntity looks at LocalPlayer and starts talking
  1: 0x0603 [0x6F] WAIT_FRAME_DELAY: Yield until WaitTime reaches zero
  2: 0x0604 [0x70] WAIT_ENTITY_RENDER_FLAG: Wait while EventEntity->Render.Flags3 bit 2 is set (cancel turn if not)
  3: 0x0605 [0x5B] LOAD_EXT_SCHEDULER: Load scheduler "tlk0" with entities [EventEntity, EventEntity], work=215*
  4: 0x0614 [0x1D] PRINT_EVENT_MESSAGE(message_id=13783*)
    → "Whoawhoawhoa! If ya's got business wit' da box, ya foist gots business wit' me. Whatcha need?"
  5: 0x0617 [0x23] WAIT_FOR_DIALOG_INTERACTION
  6: 0x0618 [0x21] END_EVENT
  7: 0x0619 [0x00] END_REQSTACK()
```

### Event 5145

#### Metadata

| Field        | Value     |
|--------------|-----------|
| Entrypoint   | 0x061A    |
| Data Size    | 155 bytes |
| Instructions | 35        |

```
      00 01 02 03 04 05 06 07  08 09 0A 0B 0C 0D 0E 0F
      -- -- -- -- -- -- -- --  -- -- -- -- -- -- -- --
0610:                                42 03 03 00 07 80            B.....
0620: 7A 04 80 2C 11 10 01 02  1E F0 FF FF 7F 6F 70 5B  z..,.........op[
0630: 00 80 F8 FF FF 7F F8 FF  FF 7F 74 6C 6B 30 1D 3C  ..........tlk0.<
0640: 80 23 1C 3D 80 5E 69 64  6C 30 40 07 80 09 80 01  .#.=.^idl0@.....
0650: 10 03 80 43 00 43 01 03  02 00 03 10 03 00 00 04  ...C.C..........
0660: 10 02 02 00 10 80 04 99  06 02 03 00 02 00 01 77  ...............w
0670: 06 05 04 00 01 96 06 02  09 10 0C 80 00 85 06 05  ................
0680: 04 00 01 96 06 02 09 10  03 80 00 93 06 05 04 00  ................
0690: 01 96 06 06 04 00 01 9C  06 06 04 00 1A 4B 02 03  .............K..
06A0: 03 00 02 00 02 09 10 07  80 02 B2 06 01 4A 06 01  .............J..
06B0: B3 06 2E 21 00                                    ...!.           
```

#### Opcodes

```
  0: 0x061A [0x42] SET_CLI_EVENT_CANCEL_DATA()
  1: 0x061B [0x03] ExtData[1]->WorkLocal[3] = 0*
  2: 0x0620 [0x7A] VM_CONTROL: Copy data from Unknown NPC (ID: 269560960/0x10112C80) (params=1, 2)
  3: 0x0628 [0x1E] EventEntity looks at LocalPlayer and starts talking
  4: 0x062D [0x6F] WAIT_FRAME_DELAY: Yield until WaitTime reaches zero
  5: 0x062E [0x70] WAIT_ENTITY_RENDER_FLAG: Wait while EventEntity->Render.Flags3 bit 2 is set (cancel turn if not)
  6: 0x062F [0x5B] LOAD_EXT_SCHEDULER: Load scheduler "tlk0" with entities [EventEntity, EventEntity], work=215*
  7: 0x063E [0x1D] PRINT_EVENT_MESSAGE(message_id=13787*)
    → "Oy, would ya get a look at yer $0! I guess I can let ya open [/Dial 1/Dial 2/Dial 3/Dial 4/Dial 5/the special dial///the abjuration dial/the fortune dial/the furnishings dial//the Vana'versary dial/the festival dial] whenever ya want fer not a single onz o' daily tally!"
  8: 0x0641 [0x23] WAIT_FOR_DIALOG_INTERACTION
  9: 0x0642 [0x1C] WAIT(30* ticks)
 10: 0x0645 [0x5E] EventEntity goes idle (kills current action) (animation: "idl0")
 11: 0x064A [0x40] SET_BIT_WORK_RANGE(start_bit=0*, end_bit=2*, target=Work_Zone[1], source=1*)
 12: 0x0653 [0x43] SEND_EVENT_UPDATE: Send pending tag to server (packet 0x005B)
 13: 0x0655 [0x43] SEND_EVENT_UPDATE: Check pending flag (skip if not pending)
 14: 0x0657 [0x03] ExtData[1]->WorkLocal[2] = Work_Zone[3]
 15: 0x065C [0x03] ExtData[1]->WorkLocal[0] = Work_Zone[4]
 16: 0x0661 [0x02] IF !(ExtData[1]->WorkLocal[2] < 6*) GOTO 0x0699
 17: 0x0669 [0x02] IF !(ExtData[1]->WorkLocal[3] == ExtData[1]->WorkLocal[2]) GOTO 0x0677
 18: 0x0671 [0x05] ExtData[1]->WorkLocal[4] = 1
 19: 0x0674 [0x01] GOTO 0x0696
 20: 0x0677 [0x02] IF !(Work_Zone[9] == 10*) GOTO 0x0685
 21: 0x067F [0x05] ExtData[1]->WorkLocal[4] = 1
 22: 0x0682 [0x01] GOTO 0x0696
 23: 0x0685 [0x02] IF !(Work_Zone[9] == 1*) GOTO 0x0693
 24: 0x068D [0x05] ExtData[1]->WorkLocal[4] = 1
 25: 0x0690 [0x01] GOTO 0x0696
 26: 0x0693 [0x06] ExtData[1]->WorkLocal[4] = 0

SUBROUTINE_0696:
 27: 0x0696 [0x01] GOTO 0x069C
 28: 0x0699 [0x06] ExtData[1]->WorkLocal[4] = 0

SUBROUTINE_069C:
 29: 0x069C [0x1A] CALL_SUBROUTINE(address=0x024B)
 30: 0x069F [0x03] ExtData[1]->WorkLocal[3] = ExtData[1]->WorkLocal[2]
 31: 0x06A4 [0x02] IF !(Work_Zone[9] <= 0*) GOTO 0x06B2
 32: 0x06AC [0x01] GOTO 0x064A

SUBROUTINE_06B3:
 33: 0x06B3 [0x21] END_EVENT
 34: 0x06B4 [0x00] END_REQSTACK()
```

#### Data or dead code:

```
# Dead code (unreachable instructions):
     0x06AF [0x01] GOTO 0x06B3
```

### Event 5146

#### Metadata

| Field        | Value    |
|--------------|----------|
| Entrypoint   | 0x06B5   |
| Data Size    | 33 bytes |
| Instructions | 11       |

```
      00 01 02 03 04 05 06 07  08 09 0A 0B 0C 0D 0E 0F
      -- -- -- -- -- -- -- --  -- -- -- -- -- -- -- --
06B0:                42 1E F0  FF FF 7F 6F 70 5B 00 80       B.....op[..
06C0: F8 FF FF 7F F8 FF FF 7F  74 6C 6B 30 1D 3E 80 23  ........tlk0.>.#
06D0: 43 00 43 01 21 00                                 C.C.!.          
```

#### Opcodes

```
  0: 0x06B5 [0x42] SET_CLI_EVENT_CANCEL_DATA()
  1: 0x06B6 [0x1E] EventEntity looks at LocalPlayer and starts talking
  2: 0x06BB [0x6F] WAIT_FRAME_DELAY: Yield until WaitTime reaches zero
  3: 0x06BC [0x70] WAIT_ENTITY_RENDER_FLAG: Wait while EventEntity->Render.Flags3 bit 2 is set (cancel turn if not)
  4: 0x06BD [0x5B] LOAD_EXT_SCHEDULER: Load scheduler "tlk0" with entities [EventEntity, EventEntity], work=215*
  5: 0x06CC [0x1D] PRINT_EVENT_MESSAGE(message_id=13788*)
    → "Dun think that I's be a gil-grubbin' good-fer-nuthin'. If'n ya dun wanna open any dial, then I gives ya back yer $0."
  6: 0x06CF [0x23] WAIT_FOR_DIALOG_INTERACTION
  7: 0x06D0 [0x43] SEND_EVENT_UPDATE: Send pending tag to server (packet 0x005B)
  8: 0x06D2 [0x43] SEND_EVENT_UPDATE: Check pending flag (skip if not pending)
  9: 0x06D4 [0x21] END_EVENT
 10: 0x06D5 [0x00] END_REQSTACK()
```

### Event 5147

#### Metadata

| Field        | Value    |
|--------------|----------|
| Entrypoint   | 0x06D6   |
| Data Size    | 28 bytes |
| Instructions | 8        |

```
      00 01 02 03 04 05 06 07  08 09 0A 0B 0C 0D 0E 0F
      -- -- -- -- -- -- -- --  -- -- -- -- -- -- -- --
06D0:                   1E F0  FF FF 7F 6F 70 5B 00 80        .....op[..
06E0: F8 FF FF 7F F8 FF FF 7F  74 6C 6B 30 1D 3F 80 23  ........tlk0.?.#
06F0: 21 00                                             !.              
```

#### Opcodes

```
  0: 0x06D6 [0x1E] EventEntity looks at LocalPlayer and starts talking
  1: 0x06DB [0x6F] WAIT_FRAME_DELAY: Yield until WaitTime reaches zero
  2: 0x06DC [0x70] WAIT_ENTITY_RENDER_FLAG: Wait while EventEntity->Render.Flags3 bit 2 is set (cancel turn if not)
  3: 0x06DD [0x5B] LOAD_EXT_SCHEDULER: Load scheduler "tlk0" with entities [EventEntity, EventEntity], work=215*
  4: 0x06EC [0x1D] PRINT_EVENT_MESSAGE(message_id=13789*)
    → "Yer eyes be bigger'n yer stomach. If'n ya wanna open [/Dial 1/Dial 2/Dial 3/Dial 4/Dial 5/the Special Dial///the abjuration dial/the fortune dial/the furnishings dial//the Vana'versary dial/the festival diaal] usin' yer $0, then ya gotta make room in yer bags!"
  5: 0x06EF [0x23] WAIT_FOR_DIALOG_INTERACTION
  6: 0x06F0 [0x21] END_EVENT
  7: 0x06F1 [0x00] END_REQSTACK()
```

### Event 5148

#### Metadata

| Field        | Value    |
|--------------|----------|
| Entrypoint   | 0x06F2   |
| Data Size    | 28 bytes |
| Instructions | 8        |

```
      00 01 02 03 04 05 06 07  08 09 0A 0B 0C 0D 0E 0F
      -- -- -- -- -- -- -- --  -- -- -- -- -- -- -- --
06F0:       1E F0 FF FF 7F 6F  70 5B 00 80 F8 FF FF 7F    .....op[......
0700: F8 FF FF 7F 74 6C 6B 30  1D 40 80 23 21 00        ....tlk0.@.#!.  
```

#### Opcodes

```
  0: 0x06F2 [0x1E] EventEntity looks at LocalPlayer and starts talking
  1: 0x06F7 [0x6F] WAIT_FRAME_DELAY: Yield until WaitTime reaches zero
  2: 0x06F8 [0x70] WAIT_ENTITY_RENDER_FLAG: Wait while EventEntity->Render.Flags3 bit 2 is set (cancel turn if not)
  3: 0x06F9 [0x5B] LOAD_EXT_SCHEDULER: Load scheduler "tlk0" with entities [EventEntity, EventEntity], work=215*
  4: 0x0708 [0x1D] PRINT_EVENT_MESSAGE(message_id=13790*)
    → "What's be dis? $0? What'm I 'pposed ta do wit it? I dun have any clue how ta use it, so take it home wit ya."
  5: 0x070B [0x23] WAIT_FOR_DIALOG_INTERACTION
  6: 0x070C [0x21] END_EVENT
  7: 0x070D [0x00] END_REQSTACK()
```

### Event 5149

#### Metadata

| Field        | Value    |
|--------------|----------|
| Entrypoint   | 0x070E   |
| Data Size    | 33 bytes |
| Instructions | 11       |

```
      00 01 02 03 04 05 06 07  08 09 0A 0B 0C 0D 0E 0F
      -- -- -- -- -- -- -- --  -- -- -- -- -- -- -- --
0700:                                            42 1E                B.
0710: F0 FF FF 7F 6F 70 5B 00  80 F8 FF FF 7F F8 FF FF  ....op[.........
0720: 7F 74 6C 6B 30 1D 14 80  23 43 00 43 01 21 00     .tlk0...#C.C.!. 
```

#### Opcodes

```
  0: 0x070E [0x42] SET_CLI_EVENT_CANCEL_DATA()
  1: 0x070F [0x1E] EventEntity looks at LocalPlayer and starts talking
  2: 0x0714 [0x6F] WAIT_FRAME_DELAY: Yield until WaitTime reaches zero
  3: 0x0715 [0x70] WAIT_ENTITY_RENDER_FLAG: Wait while EventEntity->Render.Flags3 bit 2 is set (cancel turn if not)
  4: 0x0716 [0x5B] LOAD_EXT_SCHEDULER: Load scheduler "tlk0" with entities [EventEntity, EventEntity], work=215*
  5: 0x0725 [0x1D] PRINT_EVENT_MESSAGE(message_id=13767*)
    → "Ya's thought I threw yer prize away?! Prepostamarous! I's just tucked it away for safekeepin' is all."
  6: 0x0728 [0x23] WAIT_FOR_DIALOG_INTERACTION
  7: 0x0729 [0x43] SEND_EVENT_UPDATE: Send pending tag to server (packet 0x005B)
  8: 0x072B [0x43] SEND_EVENT_UPDATE: Check pending flag (skip if not pending)
  9: 0x072D [0x21] END_EVENT
 10: 0x072E [0x00] END_REQSTACK()
```
