# 17830025

## Common Data

| Field            | Value                     |
|------------------|---------------------------|
| Zone             | Eastern Adoulin (ID: 257) |
| Block Size       | 59900 bytes               |
| Total Events     | 17                        |
| References Count | 1107                      |

## List of Events

| Event ID              | Entrypoint   |   Size |   Instructions |
|-----------------------|--------------|--------|----------------|
| [65535](#event-65535) | 0x0000       |      1 |              1 |
| [1509](#event-1509)   | 0x0001       |   8473 |            977 |
| [1521](#event-1521)   | 0x211A       |   1244 |            162 |
| [1510](#event-1510)   | 0x25F6       |   6806 |            753 |
| [1511](#event-1511)   | 0x408C       |   9431 |           1046 |
| [1512](#event-1512)   | 0x6563       |    284 |             45 |
| [1513](#event-1513)   | 0x667F       |   3497 |            433 |
| [1514](#event-1514)   | 0x7428       |   4542 |            570 |
| [1515](#event-1515)   | 0x85E6       |   5081 |            581 |
| [1516](#event-1516)   | 0x99BF       |    343 |             54 |
| [1517](#event-1517)   | 0x9B16       |   1322 |            166 |
| [1518](#event-1518)   | 0xA040       |    411 |             63 |
| [1528](#event-1528)   | 0xA1DB       |   4044 |            468 |
| [1529](#event-1529)   | 0xB1A7       |   2677 |            367 |
| [1531](#event-1531)   | 0xBC1C       |    979 |            158 |
| [1532](#event-1532)   | 0xBFEF       |   3399 |            401 |
| [1550](#event-1550)   | 0xCD36       |   2851 |            307 |

## DAT References (imed_data)

|   Index | Hex Value   |   Dec Value |
|---------|-------------|-------------|
|       0 | 0x0093      |         147 |
|       1 | 0x0248      |         584 |
|       2 | 0x00FF      |         255 |
|       3 | 0x0000      |           0 |
|       4 | 0x0001      |           1 |
|       5 | 0xFFFF597B  |  4294924667 |
|       6 | 0xFFFFF74F  |  4294965071 |
|       7 | 0x0DA8      |        3496 |
|       8 | 0xFFFF0A4C  |  4294904396 |
|       9 | 0xFFFFC8E7  |  4294953191 |
|      10 | 0xFFFFFE0C  |  4294966796 |
|      11 | 0x07B0      |        1968 |
|      12 | 0xFFFF0AE7  |  4294904551 |
|      13 | 0xFFFFD0DD  |  4294955229 |
|      14 | 0xFFFFFE0D  |  4294966797 |
|      15 | 0xFFFEFE60  |  4294901344 |
|      16 | 0xFFFFC513  |  4294952211 |
|      17 | 0xFFFEFECB  |  4294901451 |
|      18 | 0xFFFFD1B9  |  4294955449 |
|      19 | 0xFFFF127B  |  4294906491 |
|      20 | 0xFFFFCC41  |  4294954049 |
|      21 | 0xFFFF55F6  |  4294923766 |
|      22 | 0xFFFFFFE1  |  4294967265 |
|      23 | 0xFFFF01DB  |  4294902235 |
|      24 | 0xFFFFDCB9  |  4294958265 |
|      25 | 0x03E8      |        1000 |
|      26 | 0xFFFF0229  |  4294902313 |
|      27 | 0xFFFFE27B  |  4294959739 |
|      28 | 0xFFFFFAAB  |  4294965931 |
|      29 | 0x03E5      |         997 |
|      30 | 0x0003      |           3 |
|      31 | 0xFFFF0E18  |  4294905368 |
|      32 | 0xFFFFE17E  |  4294959486 |
|      33 | 0xFFFFF95C  |  4294965596 |
|      34 | 0x084E      |        2126 |
|      35 | 0x0004      |           4 |
|      36 | 0x0005      |           5 |
|      37 | 0xFFFFFCE0  |  4294966496 |
|      38 | 0x0006      |           6 |
|      39 | 0x0008      |           8 |
|      40 | 0xFFFFE1E2  |  4294959586 |
|      41 | 0xFFFFFA24  |  4294965796 |
|      42 | 0x001E      |          30 |
|      43 | 0x0CB1      |        3249 |
|      44 | 0x0270      |         624 |
|      45 | 0x000F      |          15 |
|      46 | 0x001D      |          29 |
|      47 | 0x2135      |        8501 |
|      48 | 0x2136      |        8502 |
|      49 | 0x2137      |        8503 |
|      50 | 0x0CDE      |        3294 |
|      51 | 0x005A      |          90 |
|      52 | 0x008C      |         140 |
|      53 | 0x2138      |        8504 |
|      54 | 0x2139      |        8505 |
|      55 | 0x0CBD      |        3261 |
|      56 | 0x213A      |        8506 |
|      57 | 0xFFFF02EA  |  4294902506 |
|      58 | 0xFFFFDD3C  |  4294958396 |
|      59 | 0x0C15      |        3093 |
|      60 | 0xFFFF0E96  |  4294905494 |
|      61 | 0xFFFFDBB8  |  4294958008 |
|      62 | 0x05EB      |        1515 |
|      63 | 0xFFFF0751  |  4294903633 |
|      64 | 0xFFFFCB80  |  4294953856 |
|      65 | 0x0CAE      |        3246 |
|      66 | 0x00A1      |         161 |
|      67 | 0x0097      |         151 |
|      68 | 0x00D7      |         215 |
|      69 | 0x096A      |        2410 |
|      70 | 0x213B      |        8507 |
|      71 | 0x213C      |        8508 |
|      72 | 0x213D      |        8509 |
|      73 | 0xFFFF0E97  |  4294905495 |
|      74 | 0xFFFFDBB9  |  4294958009 |
|      75 | 0x0855      |        2133 |
|      76 | 0x213E      |        8510 |
|      77 | 0x213F      |        8511 |
|      78 | 0x2140      |        8512 |
|      79 | 0x0002      |           2 |
|      80 | 0x2141      |        8513 |
|      81 | 0x2142      |        8514 |
|      82 | 0x0007      |           7 |
|      83 | 0x2143      |        8515 |
|      84 | 0x2144      |        8516 |
|      85 | 0xFFFF54D7  |  4294923479 |
|      86 | 0xFFFF4FE5  |  4294922213 |
|      87 | 0xFFFFF7E5  |  4294965221 |
|      88 | 0x0C86      |        3206 |
|      89 | 0x2145      |        8517 |
|      90 | 0x2146      |        8518 |
|      91 | 0x2147      |        8519 |
|      92 | 0x0C89      |        3209 |
|      93 | 0x2148      |        8520 |
|      94 | 0x2149      |        8521 |
|      95 | 0x214A      |        8522 |
|      96 | 0x0C8A      |        3210 |
|      97 | 0x214B      |        8523 |
|      98 | 0x214C      |        8524 |
|      99 | 0x214D      |        8525 |
|     100 | 0x214E      |        8526 |
|     101 | 0x214F      |        8527 |
|     102 | 0x2150      |        8528 |
|     103 | 0x2151      |        8529 |
|     104 | 0x2152      |        8530 |
|     105 | 0x2153      |        8531 |
|     106 | 0x2154      |        8532 |
|     107 | 0x2155      |        8533 |
|     108 | 0x2156      |        8534 |
|     109 | 0x2157      |        8535 |
|     110 | 0x2158      |        8536 |
|     111 | 0x2159      |        8537 |
|     112 | 0x215A      |        8538 |
|     113 | 0x215B      |        8539 |
|     114 | 0x0CDB      |        3291 |
|     115 | 0x215C      |        8540 |
|     116 | 0x215D      |        8541 |
|     117 | 0x215E      |        8542 |
|     118 | 0xFFFF395C  |  4294916444 |
|     119 | 0xFFFFCD3B  |  4294954299 |
|     120 | 0xFFFF3A1A  |  4294916634 |
|     121 | 0xFFFFC67B  |  4294952571 |
|     122 | 0x0096      |         150 |
|     123 | 0x0014      |          20 |
|     124 | 0x0082      |         130 |
|     125 | 0x0CDD      |        3293 |
|     126 | 0x215F      |        8543 |
|     127 | 0x2160      |        8544 |
|     128 | 0x0078      |         120 |
|     129 | 0xFFFF0167  |  4294902119 |
|     130 | 0xFFFFDC66  |  4294958182 |
|     131 | 0x01F4      |         500 |
|     132 | 0xFFFF0E16  |  4294905366 |
|     133 | 0xFFFFE10E  |  4294959374 |
|     134 | 0x2161      |        8545 |
|     135 | 0x2162      |        8546 |
|     136 | 0x2163      |        8547 |
|     137 | 0x2164      |        8548 |
|     138 | 0x003D      |          61 |
|     139 | 0x026E      |         622 |
|     140 | 0x0020      |          32 |
|     141 | 0x0064      |         100 |
|     142 | 0x2165      |        8549 |
|     143 | 0x2166      |        8550 |
|     144 | 0x0CF7      |        3319 |
|     145 | 0x2167      |        8551 |
|     146 | 0x2168      |        8552 |
|     147 | 0x2169      |        8553 |
|     148 | 0x216A      |        8554 |
|     149 | 0x216B      |        8555 |
|     150 | 0x003C      |          60 |
|     151 | 0x216C      |        8556 |
|     152 | 0x216D      |        8557 |
|     153 | 0x216E      |        8558 |
|     154 | 0x0CDC      |        3292 |
|     155 | 0x216F      |        8559 |
|     156 | 0x2170      |        8560 |
|     157 | 0x2171      |        8561 |
|     158 | 0x2172      |        8562 |
|     159 | 0x2173      |        8563 |
|     160 | 0x0050      |          80 |
|     161 | 0x000A      |          10 |
|     162 | 0x2174      |        8564 |
|     163 | 0x2175      |        8565 |
|     164 | 0x2176      |        8566 |
|     165 | 0x2177      |        8567 |
|     166 | 0x2178      |        8568 |
|     167 | 0x2179      |        8569 |
|     168 | 0x217A      |        8570 |
|     169 | 0x217B      |        8571 |
|     170 | 0x217C      |        8572 |
|     171 | 0x0024      |          36 |
|     172 | 0x217D      |        8573 |
|     173 | 0x217E      |        8574 |
|     174 | 0x217F      |        8575 |
|     175 | 0x2180      |        8576 |
|     176 | 0x2181      |        8577 |
|     177 | 0x2182      |        8578 |
|     178 | 0x2183      |        8579 |
|     179 | 0x2184      |        8580 |
|     180 | 0x2185      |        8581 |
|     181 | 0x0C87      |        3207 |
|     182 | 0x0016      |          22 |
|     183 | 0xFFFF1683  |  4294907523 |
|     184 | 0xFFFFD109  |  4294955273 |
|     185 | 0x081C      |        2076 |
|     186 | 0x00B4      |         180 |
|     187 | 0x2186      |        8582 |
|     188 | 0x2187      |        8583 |
|     189 | 0x2188      |        8584 |
|     190 | 0xFFFF529E  |  4294922910 |
|     191 | 0xFFFFFA75  |  4294965877 |
|     192 | 0x03ED      |        1005 |
|     193 | 0xFFFF526F  |  4294922863 |
|     194 | 0xFFFFEC14  |  4294962196 |
|     195 | 0x03FB      |        1019 |
|     196 | 0xFFFF5297  |  4294922903 |
|     197 | 0xFFFFD3D1  |  4294955985 |
|     198 | 0x0BEE      |        3054 |
|     199 | 0x2061      |        8289 |
|     200 | 0x0028      |          40 |
|     201 | 0x2189      |        8585 |
|     202 | 0x0C91      |        3217 |
|     203 | 0x218A      |        8586 |
|     204 | 0x218B      |        8587 |
|     205 | 0x218C      |        8588 |
|     206 | 0x0C99      |        3225 |
|     207 | 0x218D      |        8589 |
|     208 | 0x218E      |        8590 |
|     209 | 0x00DC      |         220 |
|     210 | 0x218F      |        8591 |
|     211 | 0x2190      |        8592 |
|     212 | 0x0C90      |        3216 |
|     213 | 0x2191      |        8593 |
|     214 | 0x2192      |        8594 |
|     215 | 0xFFFF1F95  |  4294909845 |
|     216 | 0xFFFFE5D5  |  4294960597 |
|     217 | 0xFFFFFE70  |  4294966896 |
|     218 | 0x0154      |         340 |
|     219 | 0xFFFF2386  |  4294910854 |
|     220 | 0xFFFFE39C  |  4294960028 |
|     221 | 0x08AC      |        2220 |
|     222 | 0xFFFF1C70  |  4294909040 |
|     223 | 0xFFFFE74D  |  4294960973 |
|     224 | 0xFFFFFC18  |  4294966296 |
|     225 | 0x0094      |         148 |
|     226 | 0x2193      |        8595 |
|     227 | 0x0C9F      |        3231 |
|     228 | 0x2194      |        8596 |
|     229 | 0xFFFF528A  |  4294922890 |
|     230 | 0xFFFFE002  |  4294959106 |
|     231 | 0x0CA1      |        3233 |
|     232 | 0x2195      |        8597 |
|     233 | 0x2196      |        8598 |
|     234 | 0x2197      |        8599 |
|     235 | 0x2198      |        8600 |
|     236 | 0x2199      |        8601 |
|     237 | 0x219A      |        8602 |
|     238 | 0x219B      |        8603 |
|     239 | 0x02BD      |         701 |
|     240 | 0x003F      |          63 |
|     241 | 0x00C8      |         200 |
|     242 | 0x0013      |          19 |
|     243 | 0x029D      |         669 |
|     244 | 0x21A2      |        8610 |
|     245 | 0x21A3      |        8611 |
|     246 | 0x0998      |        2456 |
|     247 | 0x21A4      |        8612 |
|     248 | 0x21A5      |        8613 |
|     249 | 0x21A6      |        8614 |
|     250 | 0x21A7      |        8615 |
|     251 | 0x0046      |          70 |
|     252 | 0x0032      |          50 |
|     253 | 0x21A8      |        8616 |
|     254 | 0x21A9      |        8617 |
|     255 | 0x21AA      |        8618 |
|     256 | 0x21AB      |        8619 |
|     257 | 0x21AC      |        8620 |
|     258 | 0x21AD      |        8621 |
|     259 | 0x21AE      |        8622 |
|     260 | 0x21AF      |        8623 |
|     261 | 0xFFFF0A10  |  4294904336 |
|     262 | 0xFFFFDCEF  |  4294958319 |
|     263 | 0x084F      |        2127 |
|     264 | 0xFFFF0518  |  4294903064 |
|     265 | 0xFFFFCAA3  |  4294953635 |
|     266 | 0x0BF6      |        3062 |
|     267 | 0x0CF8      |        3320 |
|     268 | 0x0271      |         625 |
|     269 | 0x21BD      |        8637 |
|     270 | 0x21BE      |        8638 |
|     271 | 0x21BF      |        8639 |
|     272 | 0xFFFF0225  |  4294902309 |
|     273 | 0xFFFFDD4F  |  4294958415 |
|     274 | 0x00A6      |         166 |
|     275 | 0x00A0      |         160 |
|     276 | 0x0CA2      |        3234 |
|     277 | 0x0CDF      |        3295 |
|     278 | 0x00AC      |         172 |
|     279 | 0x007F      |         127 |
|     280 | 0x21C0      |        8640 |
|     281 | 0x0C9E      |        3230 |
|     282 | 0x21C1      |        8641 |
|     283 | 0xFFFF1200  |  4294906368 |
|     284 | 0xFFFFE2AB  |  4294959787 |
|     285 | 0x04FD      |        1277 |
|     286 | 0xFFFF0D76  |  4294905206 |
|     287 | 0xFFFFE6D2  |  4294960850 |
|     288 | 0x01CD      |         461 |
|     289 | 0x0CD3      |        3283 |
|     290 | 0x0CD5      |        3285 |
|     291 | 0x0CFD      |        3325 |
|     292 | 0x21C2      |        8642 |
|     293 | 0x21C3      |        8643 |
|     294 | 0x21C4      |        8644 |
|     295 | 0x21C5      |        8645 |
|     296 | 0x21C6      |        8646 |
|     297 | 0xFFFF5768  |  4294924136 |
|     298 | 0x9BE7      |       39911 |
|     299 | 0x0FC8      |        4040 |
|     300 | 0xFFFF635C  |  4294927196 |
|     301 | 0xB8BE      |       47294 |
|     302 | 0x03C7      |         967 |
|     303 | 0x21C7      |        8647 |
|     304 | 0x21C8      |        8648 |
|     305 | 0x0CB8      |        3256 |
|     306 | 0x0CB9      |        3257 |
|     307 | 0x21C9      |        8649 |
|     308 | 0x21CA      |        8650 |
|     309 | 0x21CB      |        8651 |
|     310 | 0x21CC      |        8652 |
|     311 | 0x21CD      |        8653 |
|     312 | 0x21CE      |        8654 |
|     313 | 0x21CF      |        8655 |
|     314 | 0x21D0      |        8656 |
|     315 | 0x21D1      |        8657 |
|     316 | 0x21D2      |        8658 |
|     317 | 0x21D3      |        8659 |
|     318 | 0x21D4      |        8660 |
|     319 | 0x21D5      |        8661 |
|     320 | 0x21D6      |        8662 |
|     321 | 0x21D7      |        8663 |
|     322 | 0x21D8      |        8664 |
|     323 | 0x21D9      |        8665 |
|     324 | 0x21DA      |        8666 |
|     325 | 0x21DB      |        8667 |
|     326 | 0x0B90      |        2960 |
|     327 | 0xFFFF0266  |  4294902374 |
|     328 | 0xFFFFE4B4  |  4294960308 |
|     329 | 0x21DC      |        8668 |
|     330 | 0x21DD      |        8669 |
|     331 | 0x21DE      |        8670 |
|     332 | 0x21DF      |        8671 |
|     333 | 0x21E0      |        8672 |
|     334 | 0x21E1      |        8673 |
|     335 | 0x0BC3      |        3011 |
|     336 | 0x21E2      |        8674 |
|     337 | 0x3350      |       13136 |
|     338 | 0x21E3      |        8675 |
|     339 | 0x21E4      |        8676 |
|     340 | 0x21E5      |        8677 |
|     341 | 0x21E6      |        8678 |
|     342 | 0x21E7      |        8679 |
|     343 | 0x21E8      |        8680 |
|     344 | 0x21E9      |        8681 |
|     345 | 0x03EF      |        1007 |
|     346 | 0x21EA      |        8682 |
|     347 | 0x21EB      |        8683 |
|     348 | 0x21EC      |        8684 |
|     349 | 0x21ED      |        8685 |
|     350 | 0x21EE      |        8686 |
|     351 | 0x21EF      |        8687 |
|     352 | 0x21F0      |        8688 |
|     353 | 0x21F1      |        8689 |
|     354 | 0x21F2      |        8690 |
|     355 | 0x21F3      |        8691 |
|     356 | 0x21F4      |        8692 |
|     357 | 0x21F5      |        8693 |
|     358 | 0x21F6      |        8694 |
|     359 | 0x21F7      |        8695 |
|     360 | 0x21F8      |        8696 |
|     361 | 0x21F9      |        8697 |
|     362 | 0x21FA      |        8698 |
|     363 | 0x0019      |          25 |
|     364 | 0x21FB      |        8699 |
|     365 | 0x0D30      |        3376 |
|     366 | 0x21FC      |        8700 |
|     367 | 0x0CE1      |        3297 |
|     368 | 0x21FD      |        8701 |
|     369 | 0x21FE      |        8702 |
|     370 | 0x21FF      |        8703 |
|     371 | 0x2200      |        8704 |
|     372 | 0x2201      |        8705 |
|     373 | 0x2202      |        8706 |
|     374 | 0x2203      |        8707 |
|     375 | 0x2204      |        8708 |
|     376 | 0x0CE3      |        3299 |
|     377 | 0x2205      |        8709 |
|     378 | 0x2206      |        8710 |
|     379 | 0x0251      |         593 |
|     380 | 0x0075      |         117 |
|     381 | 0x087B      |        2171 |
|     382 | 0x040B      |        1035 |
|     383 | 0x006C      |         108 |
|     384 | 0xFFFFE299  |  4294959769 |
|     385 | 0x0C13      |        3091 |
|     386 | 0x0292      |         658 |
|     387 | 0xFFFFFB55  |  4294966101 |
|     388 | 0x0810      |        2064 |
|     389 | 0xFFFFFB13  |  4294966035 |
|     390 | 0x0294      |         660 |
|     391 | 0x07F0      |        2032 |
|     392 | 0x005C      |          92 |
|     393 | 0xFFFFFFCA  |  4294967242 |
|     394 | 0xFFFFB1E1  |  4294947297 |
|     395 | 0x0588      |        1416 |
|     396 | 0x023C      |         572 |
|     397 | 0xFFFFFCCD  |  4294966477 |
|     398 | 0xFFFFEE58  |  4294962776 |
|     399 | 0x02AD      |         685 |
|     400 | 0xFFFFEE7C  |  4294962812 |
|     401 | 0x00D5      |         213 |
|     402 | 0x00F0      |         240 |
|     403 | 0x2207      |        8711 |
|     404 | 0x2208      |        8712 |
|     405 | 0x2209      |        8713 |
|     406 | 0x220A      |        8714 |
|     407 | 0x220B      |        8715 |
|     408 | 0x220C      |        8716 |
|     409 | 0x220D      |        8717 |
|     410 | 0x220E      |        8718 |
|     411 | 0x220F      |        8719 |
|     412 | 0x2210      |        8720 |
|     413 | 0x2211      |        8721 |
|     414 | 0x2212      |        8722 |
|     415 | 0x2213      |        8723 |
|     416 | 0x2214      |        8724 |
|     417 | 0x2215      |        8725 |
|     418 | 0x2216      |        8726 |
|     419 | 0x2218      |        8728 |
|     420 | 0x2217      |        8727 |
|     421 | 0x2219      |        8729 |
|     422 | 0x221A      |        8730 |
|     423 | 0x221B      |        8731 |
|     424 | 0x221C      |        8732 |
|     425 | 0x221D      |        8733 |
|     426 | 0x0CA3      |        3235 |
|     427 | 0x221E      |        8734 |
|     428 | 0x221F      |        8735 |
|     429 | 0x2220      |        8736 |
|     430 | 0x0D1F      |        3359 |
|     431 | 0x2221      |        8737 |
|     432 | 0x010E      |         270 |
|     433 | 0x2222      |        8738 |
|     434 | 0x2223      |        8739 |
|     435 | 0x2224      |        8740 |
|     436 | 0x2225      |        8741 |
|     437 | 0x2226      |        8742 |
|     438 | 0x2227      |        8743 |
|     439 | 0x2228      |        8744 |
|     440 | 0x2229      |        8745 |
|     441 | 0x222A      |        8746 |
|     442 | 0x222B      |        8747 |
|     443 | 0x222C      |        8748 |
|     444 | 0x222D      |        8749 |
|     445 | 0x222E      |        8750 |
|     446 | 0x222F      |        8751 |
|     447 | 0x2230      |        8752 |
|     448 | 0x2231      |        8753 |
|     449 | 0x2232      |        8754 |
|     450 | 0x2233      |        8755 |
|     451 | 0x2234      |        8756 |
|     452 | 0x2235      |        8757 |
|     453 | 0x2236      |        8758 |
|     454 | 0x2237      |        8759 |
|     455 | 0x0015      |          21 |
|     456 | 0x2238      |        8760 |
|     457 | 0xFFFFFDAD  |  4294966701 |
|     458 | 0x0336      |         822 |
|     459 | 0x009F      |         159 |
|     460 | 0xFFFFFB96  |  4294966166 |
|     461 | 0xFFFFF802  |  4294965250 |
|     462 | 0xFFFFFB12  |  4294966034 |
|     463 | 0x06E7      |        1767 |
|     464 | 0x2239      |        8761 |
|     465 | 0x223A      |        8762 |
|     466 | 0x223B      |        8763 |
|     467 | 0x223C      |        8764 |
|     468 | 0x223D      |        8765 |
|     469 | 0x223E      |        8766 |
|     470 | 0x223F      |        8767 |
|     471 | 0x2240      |        8768 |
|     472 | 0x2241      |        8769 |
|     473 | 0x2242      |        8770 |
|     474 | 0x2243      |        8771 |
|     475 | 0x2244      |        8772 |
|     476 | 0x2245      |        8773 |
|     477 | 0x2246      |        8774 |
|     478 | 0x2247      |        8775 |
|     479 | 0x2248      |        8776 |
|     480 | 0x2249      |        8777 |
|     481 | 0x224A      |        8778 |
|     482 | 0x224B      |        8779 |
|     483 | 0x224C      |        8780 |
|     484 | 0x224D      |        8781 |
|     485 | 0x224E      |        8782 |
|     486 | 0x0C93      |        3219 |
|     487 | 0x224F      |        8783 |
|     488 | 0x2250      |        8784 |
|     489 | 0x2251      |        8785 |
|     490 | 0x2252      |        8786 |
|     491 | 0x0C98      |        3224 |
|     492 | 0x2253      |        8787 |
|     493 | 0x2254      |        8788 |
|     494 | 0x2255      |        8789 |
|     495 | 0x2256      |        8790 |
|     496 | 0x2257      |        8791 |
|     497 | 0x2258      |        8792 |
|     498 | 0x2259      |        8793 |
|     499 | 0x225A      |        8794 |
|     500 | 0x225B      |        8795 |
|     501 | 0x225C      |        8796 |
|     502 | 0x225D      |        8797 |
|     503 | 0x225E      |        8798 |
|     504 | 0x225F      |        8799 |
|     505 | 0x2260      |        8800 |
|     506 | 0x00AA      |         170 |
|     507 | 0x2261      |        8801 |
|     508 | 0x2262      |        8802 |
|     509 | 0x2263      |        8803 |
|     510 | 0x2264      |        8804 |
|     511 | 0x2265      |        8805 |
|     512 | 0x2266      |        8806 |
|     513 | 0x2267      |        8807 |
|     514 | 0x2268      |        8808 |
|     515 | 0x2269      |        8809 |
|     516 | 0x226A      |        8810 |
|     517 | 0x226B      |        8811 |
|     518 | 0x226C      |        8812 |
|     519 | 0x226D      |        8813 |
|     520 | 0x0570      |        1392 |
|     521 | 0xFFFFFB8D  |  4294966157 |
|     522 | 0x226E      |        8814 |
|     523 | 0x226F      |        8815 |
|     524 | 0x2270      |        8816 |
|     525 | 0x2271      |        8817 |
|     526 | 0x2272      |        8818 |
|     527 | 0x2273      |        8819 |
|     528 | 0x2274      |        8820 |
|     529 | 0x2275      |        8821 |
|     530 | 0x2276      |        8822 |
|     531 | 0x0039      |          57 |
|     532 | 0x2277      |        8823 |
|     533 | 0x2278      |        8824 |
|     534 | 0x2279      |        8825 |
|     535 | 0x227A      |        8826 |
|     536 | 0x227B      |        8827 |
|     537 | 0x227C      |        8828 |
|     538 | 0x227D      |        8829 |
|     539 | 0x227F      |        8831 |
|     540 | 0x2280      |        8832 |
|     541 | 0x2281      |        8833 |
|     542 | 0x2282      |        8834 |
|     543 | 0x227E      |        8830 |
|     544 | 0x2283      |        8835 |
|     545 | 0x2284      |        8836 |
|     546 | 0x2285      |        8837 |
|     547 | 0x2286      |        8838 |
|     548 | 0x2287      |        8839 |
|     549 | 0x2288      |        8840 |
|     550 | 0x026F      |         623 |
|     551 | 0x2289      |        8841 |
|     552 | 0x228A      |        8842 |
|     553 | 0xFFFFF94E  |  4294965582 |
|     554 | 0x099F      |        2463 |
|     555 | 0x01D5      |         469 |
|     556 | 0x228B      |        8843 |
|     557 | 0x228C      |        8844 |
|     558 | 0x228D      |        8845 |
|     559 | 0x228E      |        8846 |
|     560 | 0x228F      |        8847 |
|     561 | 0x2290      |        8848 |
|     562 | 0x2291      |        8849 |
|     563 | 0x2292      |        8850 |
|     564 | 0x2293      |        8851 |
|     565 | 0x2294      |        8852 |
|     566 | 0x2295      |        8853 |
|     567 | 0x2296      |        8854 |
|     568 | 0x2297      |        8855 |
|     569 | 0x2298      |        8856 |
|     570 | 0x2299      |        8857 |
|     571 | 0x229A      |        8858 |
|     572 | 0x229B      |        8859 |
|     573 | 0x229C      |        8860 |
|     574 | 0x229D      |        8861 |
|     575 | 0xFFFF287C  |  4294912124 |
|     576 | 0xFFFF9116  |  4294938902 |
|     577 | 0x02C4      |         708 |
|     578 | 0xFFFF19DE  |  4294908382 |
|     579 | 0xFFFFACAA  |  4294945962 |
|     580 | 0xFFFFFFB6  |  4294967222 |
|     581 | 0x0B10      |        2832 |
|     582 | 0xFFFF19AE  |  4294908334 |
|     583 | 0xFFFFB88C  |  4294949004 |
|     584 | 0x035A      |         858 |
|     585 | 0xFFFF0D25  |  4294905125 |
|     586 | 0xBFF5      |       49141 |
|     587 | 0xFFFFFD77  |  4294966647 |
|     588 | 0x07FD      |        2045 |
|     589 | 0x229E      |        8862 |
|     590 | 0x229F      |        8863 |
|     591 | 0x22A0      |        8864 |
|     592 | 0x22A1      |        8865 |
|     593 | 0x22A2      |        8866 |
|     594 | 0x22A3      |        8867 |
|     595 | 0x22A4      |        8868 |
|     596 | 0x22A5      |        8869 |
|     597 | 0x22A6      |        8870 |
|     598 | 0x22A7      |        8871 |
|     599 | 0x22A8      |        8872 |
|     600 | 0x22A9      |        8873 |
|     601 | 0x22AA      |        8874 |
|     602 | 0x22AB      |        8875 |
|     603 | 0x22AC      |        8876 |
|     604 | 0x22AD      |        8877 |
|     605 | 0x22AE      |        8878 |
|     606 | 0x22AF      |        8879 |
|     607 | 0x22B0      |        8880 |
|     608 | 0x22B1      |        8881 |
|     609 | 0x22B2      |        8882 |
|     610 | 0x0CF1      |        3313 |
|     611 | 0x22B3      |        8883 |
|     612 | 0x22B4      |        8884 |
|     613 | 0x22B5      |        8885 |
|     614 | 0x22B6      |        8886 |
|     615 | 0x0D2B      |        3371 |
|     616 | 0x22B7      |        8887 |
|     617 | 0x22B8      |        8888 |
|     618 | 0x22B9      |        8889 |
|     619 | 0x22BA      |        8890 |
|     620 | 0x22BB      |        8891 |
|     621 | 0x22BC      |        8892 |
|     622 | 0x22BD      |        8893 |
|     623 | 0x1716A     |       94570 |
|     624 | 0xFFFF0603  |  4294903299 |
|     625 | 0xFFFF632C  |  4294927148 |
|     626 | 0x0053      |          83 |
|     627 | 0x188E4     |      100580 |
|     628 | 0xFFFF06AA  |  4294903466 |
|     629 | 0xFFFF632A  |  4294927146 |
|     630 | 0x0800      |        2048 |
|     631 | 0x1885E     |      100446 |
|     632 | 0xFFFF004E  |  4294901838 |
|     633 | 0x0FEA      |        4074 |
|     634 | 0x0CD1      |        3281 |
|     635 | 0x028C      |         652 |
|     636 | 0x22BE      |        8894 |
|     637 | 0x22BF      |        8895 |
|     638 | 0x22C0      |        8896 |
|     639 | 0x22C1      |        8897 |
|     640 | 0x22C2      |        8898 |
|     641 | 0x0018      |          24 |
|     642 | 0x0CD2      |        3282 |
|     643 | 0x22C3      |        8899 |
|     644 | 0x22C4      |        8900 |
|     645 | 0x22C5      |        8901 |
|     646 | 0x22C6      |        8902 |
|     647 | 0x22C7      |        8903 |
|     648 | 0x22C8      |        8904 |
|     649 | 0x22CA      |        8906 |
|     650 | 0x22CB      |        8907 |
|     651 | 0x22CC      |        8908 |
|     652 | 0x22C9      |        8905 |
|     653 | 0x22CD      |        8909 |
|     654 | 0x22CE      |        8910 |
|     655 | 0x22CF      |        8911 |
|     656 | 0x0D66      |        3430 |
|     657 | 0x0CD6      |        3286 |
|     658 | 0x22D0      |        8912 |
|     659 | 0x0CD7      |        3287 |
|     660 | 0x22D1      |        8913 |
|     661 | 0x0198      |         408 |
|     662 | 0x0090      |         144 |
|     663 | 0x22D2      |        8914 |
|     664 | 0x0CD8      |        3288 |
|     665 | 0x22D3      |        8915 |
|     666 | 0x22D4      |        8916 |
|     667 | 0x22D5      |        8917 |
|     668 | 0x22D6      |        8918 |
|     669 | 0x22D7      |        8919 |
|     670 | 0x22D8      |        8920 |
|     671 | 0x22D9      |        8921 |
|     672 | 0x22DA      |        8922 |
|     673 | 0x22DB      |        8923 |
|     674 | 0x0044      |          68 |
|     675 | 0xFFFFFF8B  |  4294967179 |
|     676 | 0xFFFFFCCC  |  4294966476 |
|     677 | 0x267A      |        9850 |
|     678 | 0x07C6      |        1990 |
|     679 | 0xFFFEAEA8  |  4294880936 |
|     680 | 0x012C      |         300 |
|     681 | 0x22DC      |        8924 |
|     682 | 0x22DD      |        8925 |
|     683 | 0xFFFD8334  |  4294804276 |
|     684 | 0xFFFD693A  |  4294797626 |
|     685 | 0xFFFE85B8  |  4294870456 |
|     686 | 0x22DE      |        8926 |
|     687 | 0x22DF      |        8927 |
|     688 | 0x22E0      |        8928 |
|     689 | 0xFFFFFF8A  |  4294967178 |
|     690 | 0xFFFFCD6A  |  4294954346 |
|     691 | 0x0C58      |        3160 |
|     692 | 0x0A0A      |        2570 |
|     693 | 0x22E1      |        8929 |
|     694 | 0x22E2      |        8930 |
|     695 | 0x22E3      |        8931 |
|     696 | 0x151D2     |       86482 |
|     697 | 0xFFFEE0FE  |  4294893822 |
|     698 | 0xFFFE55A4  |  4294858148 |
|     699 | 0x22E4      |        8932 |
|     700 | 0x22E5      |        8933 |
|     701 | 0x22E6      |        8934 |
|     702 | 0x22E7      |        8935 |
|     703 | 0x22EA      |        8938 |
|     704 | 0x22E8      |        8936 |
|     705 | 0x22E9      |        8937 |
|     706 | 0x22EB      |        8939 |
|     707 | 0x22EC      |        8940 |
|     708 | 0x22ED      |        8941 |
|     709 | 0x2AD46     |      175430 |
|     710 | 0xFFFE85AE  |  4294870446 |
|     711 | 0x0DA2      |        3490 |
|     712 | 0xFFFDA904  |  4294813956 |
|     713 | 0x22EE      |        8942 |
|     714 | 0x22EF      |        8943 |
|     715 | 0x07D0      |        2000 |
|     716 | 0xCF62      |       53090 |
|     717 | 0x0460      |        1120 |
|     718 | 0xFFFF3486  |  4294915206 |
|     719 | 0x22F0      |        8944 |
|     720 | 0x22F1      |        8945 |
|     721 | 0x22F2      |        8946 |
|     722 | 0x13464     |       78948 |
|     723 | 0xFFFEF977  |  4294900087 |
|     724 | 0xFFFF63C0  |  4294927296 |
|     725 | 0x22F3      |        8947 |
|     726 | 0x22F4      |        8948 |
|     727 | 0x22F5      |        8949 |
|     728 | 0x22F6      |        8950 |
|     729 | 0x22F7      |        8951 |
|     730 | 0x22F8      |        8952 |
|     731 | 0x22F9      |        8953 |
|     732 | 0x22FA      |        8954 |
|     733 | 0x22FB      |        8955 |
|     734 | 0x22FC      |        8956 |
|     735 | 0x22FD      |        8957 |
|     736 | 0x22FE      |        8958 |
|     737 | 0x22FF      |        8959 |
|     738 | 0x2300      |        8960 |
|     739 | 0x2301      |        8961 |
|     740 | 0x2302      |        8962 |
|     741 | 0x2303      |        8963 |
|     742 | 0x002D      |          45 |
|     743 | 0x2305      |        8965 |
|     744 | 0x2304      |        8964 |
|     745 | 0x0045      |          69 |
|     746 | 0x2306      |        8966 |
|     747 | 0x2307      |        8967 |
|     748 | 0x2308      |        8968 |
|     749 | 0xFFFF31E2  |  4294914530 |
|     750 | 0xFFFFCBA5  |  4294953893 |
|     751 | 0xFFFF282F  |  4294912047 |
|     752 | 0xFFFFC5BF  |  4294952383 |
|     753 | 0xFFFF09B7  |  4294904247 |
|     754 | 0xFFFFC2B7  |  4294951607 |
|     755 | 0xFFFF347B  |  4294915195 |
|     756 | 0xFFFFCA11  |  4294953489 |
|     757 | 0x07AF      |        1967 |
|     758 | 0xFFFF15F1  |  4294907377 |
|     759 | 0xFFFFCAE2  |  4294953698 |
|     760 | 0x0A3A      |        2618 |
|     761 | 0xFFFF164F  |  4294907471 |
|     762 | 0xFFFFCB7A  |  4294953850 |
|     763 | 0x08BC      |        2236 |
|     764 | 0xFFFFFDF8  |  4294966776 |
|     765 | 0xFFFF160E  |  4294907406 |
|     766 | 0xFFFFCAC2  |  4294953666 |
|     767 | 0xFFFFFE2A  |  4294966826 |
|     768 | 0xFFFF1604  |  4294907396 |
|     769 | 0xFFFFCB44  |  4294953796 |
|     770 | 0xFFFFFE3E  |  4294966846 |
|     771 | 0xFFFFFE34  |  4294966836 |
|     772 | 0x0272      |         626 |
|     773 | 0x230A      |        8970 |
|     774 | 0x230B      |        8971 |
|     775 | 0x230C      |        8972 |
|     776 | 0x230D      |        8973 |
|     777 | 0x230E      |        8974 |
|     778 | 0x230F      |        8975 |
|     779 | 0x2310      |        8976 |
|     780 | 0x0031      |          49 |
|     781 | 0x2311      |        8977 |
|     782 | 0x2312      |        8978 |
|     783 | 0x2313      |        8979 |
|     784 | 0x2314      |        8980 |
|     785 | 0x2315      |        8981 |
|     786 | 0x2316      |        8982 |
|     787 | 0x2317      |        8983 |
|     788 | 0x2318      |        8984 |
|     789 | 0x2319      |        8985 |
|     790 | 0x231A      |        8986 |
|     791 | 0x231B      |        8987 |
|     792 | 0x231C      |        8988 |
|     793 | 0x231D      |        8989 |
|     794 | 0x231E      |        8990 |
|     795 | 0xFFFF1947  |  4294908231 |
|     796 | 0xFFFFCDFE  |  4294954494 |
|     797 | 0x067F      |        1663 |
|     798 | 0x231F      |        8991 |
|     799 | 0x2320      |        8992 |
|     800 | 0x2321      |        8993 |
|     801 | 0xFFFF15F0  |  4294907376 |
|     802 | 0xFFFFCAE1  |  4294953697 |
|     803 | 0x008D      |         141 |
|     804 | 0x00AB      |         171 |
|     805 | 0x00B5      |         181 |
|     806 | 0x00BF      |         191 |
|     807 | 0x00C9      |         201 |
|     808 | 0x2322      |        8994 |
|     809 | 0x2323      |        8995 |
|     810 | 0x2324      |        8996 |
|     811 | 0x2325      |        8997 |
|     812 | 0x2326      |        8998 |
|     813 | 0x2327      |        8999 |
|     814 | 0x2328      |        9000 |
|     815 | 0x2329      |        9001 |
|     816 | 0x232A      |        9002 |
|     817 | 0x232F      |        9007 |
|     818 | 0xFFFF14C6  |  4294907078 |
|     819 | 0xFFFFD508  |  4294956296 |
|     820 | 0x0680      |        1664 |
|     821 | 0xFFFF2978  |  4294912376 |
|     822 | 0xFFFFD28C  |  4294955660 |
|     823 | 0x2330      |        9008 |
|     824 | 0x232B      |        9003 |
|     825 | 0x232C      |        9004 |
|     826 | 0x232D      |        9005 |
|     827 | 0x232E      |        9006 |
|     828 | 0x2331      |        9009 |
|     829 | 0x2332      |        9010 |
|     830 | 0x2333      |        9011 |
|     831 | 0x2335      |        9013 |
|     832 | 0x2336      |        9014 |
|     833 | 0x2337      |        9015 |
|     834 | 0x2334      |        9012 |
|     835 | 0xFFFFA1E7  |  4294943207 |
|     836 | 0xFFFFF39C  |  4294964124 |
|     837 | 0x03D7      |         983 |
|     838 | 0xFFFFA9C6  |  4294945222 |
|     839 | 0xFFFFF300  |  4294963968 |
|     840 | 0x2338      |        9016 |
|     841 | 0x2339      |        9017 |
|     842 | 0x233A      |        9018 |
|     843 | 0x233B      |        9019 |
|     844 | 0x233C      |        9020 |
|     845 | 0x024E      |         590 |
|     846 | 0xFFFE7819  |  4294866969 |
|     847 | 0xFFFF416B  |  4294918507 |
|     848 | 0x0FE9      |        4073 |
|     849 | 0xFFFE8E92  |  4294872722 |
|     850 | 0xFFFF406F  |  4294918255 |
|     851 | 0x03A2      |         930 |
|     852 | 0x233D      |        9021 |
|     853 | 0x2340      |        9024 |
|     854 | 0x2341      |        9025 |
|     855 | 0x2342      |        9026 |
|     856 | 0x2343      |        9027 |
|     857 | 0x2346      |        9030 |
|     858 | 0x2347      |        9031 |
|     859 | 0x2348      |        9032 |
|     860 | 0x2349      |        9033 |
|     861 | 0x234A      |        9034 |
|     862 | 0x234B      |        9035 |
|     863 | 0x234C      |        9036 |
|     864 | 0x234D      |        9037 |
|     865 | 0x234E      |        9038 |
|     866 | 0x234F      |        9039 |
|     867 | 0x2350      |        9040 |
|     868 | 0x2351      |        9041 |
|     869 | 0x2355      |        9045 |
|     870 | 0xFFFE90EE  |  4294873326 |
|     871 | 0xFFFF3B1E  |  4294916894 |
|     872 | 0xFFFFFD76  |  4294966646 |
|     873 | 0x0BA6      |        2982 |
|     874 | 0x2356      |        9046 |
|     875 | 0x099C      |        2460 |
|     876 | 0x2357      |        9047 |
|     877 | 0x2358      |        9048 |
|     878 | 0x2359      |        9049 |
|     879 | 0x235A      |        9050 |
|     880 | 0x235B      |        9051 |
|     881 | 0x235C      |        9052 |
|     882 | 0x235D      |        9053 |
|     883 | 0x235E      |        9054 |
|     884 | 0x235F      |        9055 |
|     885 | 0x2360      |        9056 |
|     886 | 0x2361      |        9057 |
|     887 | 0xFFFF4B5B  |  4294921051 |
|     888 | 0xFFFFC0B3  |  4294951091 |
|     889 | 0x0720      |        1824 |
|     890 | 0xFFFF4C55  |  4294921301 |
|     891 | 0xFFFFD281  |  4294955649 |
|     892 | 0xFFFF086C  |  4294903916 |
|     893 | 0xFFFFD8FA  |  4294957306 |
|     894 | 0x0A78      |        2680 |
|     895 | 0xFFFFD95E  |  4294957406 |
|     896 | 0x0279      |         633 |
|     897 | 0x2362      |        9058 |
|     898 | 0x2363      |        9059 |
|     899 | 0xFFFF3D7B  |  4294917499 |
|     900 | 0xFFFFCC04  |  4294953988 |
|     901 | 0xFFFFFF06  |  4294967046 |
|     902 | 0x0894      |        2196 |
|     903 | 0xFFFF382D  |  4294916141 |
|     904 | 0xFFFFC77F  |  4294952831 |
|     905 | 0xFFFF0D60  |  4294905184 |
|     906 | 0xFFFFD5CC  |  4294956492 |
|     907 | 0xFFFF07DD  |  4294903773 |
|     908 | 0xFFFFD4A8  |  4294956200 |
|     909 | 0x2364      |        9060 |
|     910 | 0x2365      |        9061 |
|     911 | 0x2366      |        9062 |
|     912 | 0x2367      |        9063 |
|     913 | 0x2368      |        9064 |
|     914 | 0xFFFF0511  |  4294903057 |
|     915 | 0xFFFFDCDD  |  4294958301 |
|     916 | 0x00CC      |         204 |
|     917 | 0x09FE      |        2558 |
|     918 | 0x2369      |        9065 |
|     919 | 0x236A      |        9066 |
|     920 | 0x236B      |        9067 |
|     921 | 0x236C      |        9068 |
|     922 | 0x236D      |        9069 |
|     923 | 0x236E      |        9070 |
|     924 | 0x236F      |        9071 |
|     925 | 0x2370      |        9072 |
|     926 | 0x2371      |        9073 |
|     927 | 0x2372      |        9074 |
|     928 | 0x2373      |        9075 |
|     929 | 0x2374      |        9076 |
|     930 | 0x2375      |        9077 |
|     931 | 0x2376      |        9078 |
|     932 | 0x2377      |        9079 |
|     933 | 0x00A8      |         168 |
|     934 | 0x2378      |        9080 |
|     935 | 0x2379      |        9081 |
|     936 | 0x237A      |        9082 |
|     937 | 0x00DD      |         221 |
|     938 | 0x0CEC      |        3308 |
|     939 | 0xFFFF02A4  |  4294902436 |
|     940 | 0xFFFFD7F6  |  4294957046 |
|     941 | 0x0C0B      |        3083 |
|     942 | 0xFFFFFF95  |  4294967189 |
|     943 | 0xFFFFEA3E  |  4294961726 |
|     944 | 0xFFFE51EC  |  4294857196 |
|     945 | 0x0B5E      |        2910 |
|     946 | 0x33B8      |       13240 |
|     947 | 0x044C      |        1100 |
|     948 | 0x0140      |         320 |
|     949 | 0x237B      |        9083 |
|     950 | 0x237C      |        9084 |
|     951 | 0x237D      |        9085 |
|     952 | 0x237E      |        9086 |
|     953 | 0x237F      |        9087 |
|     954 | 0x000C      |          12 |
|     955 | 0xFFFF0C41  |  4294904897 |
|     956 | 0xFFFFCFEE  |  4294954990 |
|     957 | 0x09CF      |        2511 |
|     958 | 0xFFFF00B1  |  4294901937 |
|     959 | 0xFFFFDB65  |  4294957925 |
|     960 | 0x0C24      |        3108 |
|     961 | 0x0042      |          66 |
|     962 | 0x028E      |         654 |
|     963 | 0x2381      |        9089 |
|     964 | 0x2382      |        9090 |
|     965 | 0x2383      |        9091 |
|     966 | 0x2384      |        9092 |
|     967 | 0x2385      |        9093 |
|     968 | 0x2386      |        9094 |
|     969 | 0x2387      |        9095 |
|     970 | 0x2388      |        9096 |
|     971 | 0x2389      |        9097 |
|     972 | 0x238A      |        9098 |
|     973 | 0x238B      |        9099 |
|     974 | 0x6ED8      |       28376 |
|     975 | 0x6ED9      |       28377 |
|     976 | 0x6EDA      |       28378 |
|     977 | 0x238C      |        9100 |
|     978 | 0x238D      |        9101 |
|     979 | 0x238E      |        9102 |
|     980 | 0x238F      |        9103 |
|     981 | 0x2390      |        9104 |
|     982 | 0x2391      |        9105 |
|     983 | 0x0D8A      |        3466 |
|     984 | 0x2392      |        9106 |
|     985 | 0x2393      |        9107 |
|     986 | 0x2394      |        9108 |
|     987 | 0x2395      |        9109 |
|     988 | 0x2396      |        9110 |
|     989 | 0x0D8B      |        3467 |
|     990 | 0x2397      |        9111 |
|     991 | 0x003A      |          58 |
|     992 | 0x2398      |        9112 |
|     993 | 0x2399      |        9113 |
|     994 | 0x239A      |        9114 |
|     995 | 0x1869F     |       99999 |
|     996 | 0xFFFF09E9  |  4294904297 |
|     997 | 0x239B      |        9115 |
|     998 | 0x0168      |         360 |
|     999 | 0x239C      |        9116 |
|    1000 | 0x00D6      |         214 |
|    1001 | 0x0009      |           9 |
|    1002 | 0x0041      |          65 |
|    1003 | 0x04D8      |        1240 |
|    1004 | 0x01E0      |         480 |
|    1005 | 0x18F3      |        6387 |
|    1006 | 0xFFFF0629  |  4294903337 |
|    1007 | 0xFFFFD5A1  |  4294956449 |
|    1008 | 0x0A27      |        2599 |
|    1009 | 0x17F71     |       98161 |
|    1010 | 0xFFFF0656  |  4294903382 |
|    1011 | 0xFFFF632D  |  4294927149 |
|    1012 | 0x0083      |         131 |
|    1013 | 0x19493     |      103571 |
|    1014 | 0xFFFF0724  |  4294903588 |
|    1015 | 0x0F85      |        3973 |
|    1016 | 0x239D      |        9117 |
|    1017 | 0x239E      |        9118 |
|    1018 | 0x239F      |        9119 |
|    1019 | 0x23A0      |        9120 |
|    1020 | 0x19626     |      103974 |
|    1021 | 0xFFFF3093  |  4294914195 |
|    1022 | 0x03F3      |        1011 |
|    1023 | 0x19618     |      103960 |
|    1024 | 0xFFFF2863  |  4294912099 |
|    1025 | 0x0BE0      |        3040 |
|    1026 | 0x23A1      |        9121 |
|    1027 | 0x23A2      |        9122 |
|    1028 | 0x23A3      |        9123 |
|    1029 | 0xFFFF83A3  |  4294935459 |
|    1030 | 0xFFFFBFC8  |  4294950856 |
|    1031 | 0x0BBF      |        3007 |
|    1032 | 0xFFFF7D65  |  4294933861 |
|    1033 | 0xFFFFC47A  |  4294952058 |
|    1034 | 0x0199      |         409 |
|    1035 | 0xFFFF8B9E  |  4294937502 |
|    1036 | 0xFFFFC42F  |  4294951983 |
|    1037 | 0xFFFF8BAF  |  4294937519 |
|    1038 | 0xFFFFCD4A  |  4294954314 |
|    1039 | 0xFFFF8555  |  4294935893 |
|    1040 | 0xFFFFD02C  |  4294955052 |
|    1041 | 0x000D      |          13 |
|    1042 | 0xFFFF7EB7  |  4294934199 |
|    1043 | 0xFFFFD23C  |  4294955580 |
|    1044 | 0xFFFF7E06  |  4294934022 |
|    1045 | 0xFFFFCE0F  |  4294954511 |
|    1046 | 0xFFFF81CD  |  4294934989 |
|    1047 | 0xFFFFC7E9  |  4294952937 |
|    1048 | 0xFFFF884E  |  4294936654 |
|    1049 | 0xFFFFD400  |  4294956032 |
|    1050 | 0x0E98      |        3736 |
|    1051 | 0xFFFF7936  |  4294932790 |
|    1052 | 0xFFFFC058  |  4294951000 |
|    1053 | 0x0E13      |        3603 |
|    1054 | 0x23A4      |        9124 |
|    1055 | 0x23A5      |        9125 |
|    1056 | 0x0CCD      |        3277 |
|    1057 | 0x23A6      |        9126 |
|    1058 | 0x23A7      |        9127 |
|    1059 | 0x23A8      |        9128 |
|    1060 | 0x23A9      |        9129 |
|    1061 | 0x0CD0      |        3280 |
|    1062 | 0x23AA      |        9130 |
|    1063 | 0x23AB      |        9131 |
|    1064 | 0x23AC      |        9132 |
|    1065 | 0x0CCC      |        3276 |
|    1066 | 0x23AD      |        9133 |
|    1067 | 0x23AE      |        9134 |
|    1068 | 0x23AF      |        9135 |
|    1069 | 0x23B0      |        9136 |
|    1070 | 0x23B1      |        9137 |
|    1071 | 0x23B2      |        9138 |
|    1072 | 0x0A68      |        2664 |
|    1073 | 0x23B3      |        9139 |
|    1074 | 0x23B4      |        9140 |
|    1075 | 0x0D21      |        3361 |
|    1076 | 0x23B5      |        9141 |
|    1077 | 0x23B6      |        9142 |
|    1078 | 0x23B7      |        9143 |
|    1079 | 0x23B8      |        9144 |
|    1080 | 0x23B9      |        9145 |
|    1081 | 0x23BA      |        9146 |
|    1082 | 0x23BB      |        9147 |
|    1083 | 0x23BC      |        9148 |
|    1084 | 0x23BD      |        9149 |
|    1085 | 0x23BE      |        9150 |
|    1086 | 0x23BF      |        9151 |
|    1087 | 0x0CCE      |        3278 |
|    1088 | 0x23C0      |        9152 |
|    1089 | 0x23C1      |        9153 |
|    1090 | 0x23C2      |        9154 |
|    1091 | 0x23C3      |        9155 |
|    1092 | 0x23C4      |        9156 |
|    1093 | 0x23C5      |        9157 |
|    1094 | 0x23C6      |        9158 |
|    1095 | 0x23C7      |        9159 |
|    1096 | 0x23C8      |        9160 |
|    1097 | 0x0955      |        2389 |
|    1098 | 0x23C9      |        9161 |
|    1099 | 0x23CA      |        9162 |
|    1100 | 0x23CB      |        9163 |
|    1101 | 0x23CC      |        9164 |
|    1102 | 0x23CD      |        9165 |
|    1103 | 0x23CE      |        9166 |
|    1104 | 0x23CF      |        9167 |
|    1105 | 0x23D0      |        9168 |
|    1106 | 0x23D1      |        9169 |

## String References

- **6387**: You cannot obtain the item. Come back after sorting your inventory.
- **8289**: @@
- **8563**: What do you say? [There's no need to break the curse./Nothing.]
- **8588**: What will you say to her? [Tell her about the curse and purging./Tell her that Ygnas's voice faltered./...Arciela?]
- **8678**: The $3 begins to fade, taking Ygnas's voice along with it!
- **8725**: What will you do? [Comfort Arciela./Shut the Weatherspooners up.]
- **8781**: What will you tell them? [It might be the work of forest sprites./I don't know what she's on about.]
- **8803**: Your $3 exhibits no reaction whatsoever.
- **8829**: Where will you look for Nyline? [The forest./All over town./The chest of drawers.]
- **8866**: Got anything to say? [I can't take credit for this./Yeah, you're rather sloppy.]
- **8870**: He had... [Black hair and a beard./Spindly gray hair and looked decrepit.]
- **8871**: His clothes were.. [White as Velkk slobber./Black as a mourning veil.]
- **8872**: He wore... [A mysterious mantle./The daintiest skirt I've ever seen.]
- **8873**: He had with him... [A sword that could pierce the heavens./A jewel-encrusted staff.]
- **8904**: About what will you inquire? [Where Arciela is./Why she would go to the forest.]
- **8919**: What will you ask? ["Back then"?/Can you explain?]
- **8935**: Inquire about what? [The torn piece of cloth./The sigil.]
- **8954**: How will you respond? [Of course I will./I'm afraid I can't do that.]
- **8994**: Your $3 glows brightly, grabbing your attention.
- **8995**: Its deep red hue can only be interpreted as a warning of ominous events to come.
- **9001**: What will you do? [Accept the offer./Back down.]
- **9011**: Any questions for Melvien? [How do I do that?/Can you acquaint me with the tiger?]
- **9053**: What brings you here? [I was supposed to meet someone./Where's Ingrid?]
- **9065**: You show Ygnas the $3.
- **9074**: Ygnas's voice grows soft and is beyond comprehension.
- **9075**: Even your $3 only echoes back the same cryptic passage.
- **9077**: What did Ygnas mean? [Green rafting./Grating cheese chaff./Tree grafting./Affixing grey eels./Bleeding afore greatness./Seeping granite afflatus.]
- **9090**: How do you respond? [You must have had your hands full./I suppose not.]
- **9100**: Which would you like? [The $0./The $1./The $2.]
- **9102**: Are you sure? [Yes./No.]
- **9112**: Though storms may brew and threaten the land, There is one shining star that shall help us to stand.
- **9113**: It remains resolute before man, before beast, And brings with it a song, a bright hope when fortune has ceased.
- **9114**: This ally is just, its eyes raised to the sky...
- **9115**: ...Protecting us from our foes...
- **9116**: ...A blessing from on high.
- **9163**: Who brought the tomatoes back? [The effervescent Fremilla./The intrepid Arciela.]

## Events

### Event 65535

#### Metadata

| Field        | Value   |
|--------------|---------|
| Entrypoint   | 0x0000  |
| Data Size    | 1 bytes |
| Instructions | 1       |

```
      00 01 02 03 04 05 06 07  08 09 0A 0B 0C 0D 0E 0F
      -- -- -- -- -- -- -- --  -- -- -- -- -- -- -- --
0000: 00                                                .               
```

#### Opcodes

```
  0: 0x0000 [0x00] END_REQSTACK()
```

### Event 1509

#### Metadata

| Field        | Value      |
|--------------|------------|
| Entrypoint   | 0x0001     |
| Data Size    | 8473 bytes |
| Instructions | 939        |

```
      00 01 02 03 04 05 06 07  08 09 0A 0B 0C 0D 0E 0F
      -- -- -- -- -- -- -- --  -- -- -- -- -- -- -- --
0000:    42 1A 2B D6 46 01 38  00 80 34 01 80 77 02 80   B.+.F.8..4..w..
0010: 03 80 1C 04 80 2F 00 93  10 10 01 2F 00 94 10 10  ...../...../....
0020: 01 2F 00 99 10 10 01 2F  00 92 10 10 01 2F 00 9D  ./...../...../..
0030: 10 10 01 2F 00 9E 10 10  01 2F 00 9F 10 10 01 2F  .../...../...../
0040: 00 A0 10 10 01 2F 00 A1  10 10 01 2F 00 A3 10 10  ...../...../....
0050: 01 4E 00 93 10 10 01 4E  00 94 10 10 01 4E 00 99  .N.....N.....N..
0060: 10 10 01 4E 00 92 10 10  01 4E 00 9D 10 10 01 4E  ...N.....N.....N
0070: 00 9E 10 10 01 4E 00 9F  10 10 01 4E 00 A0 10 10  .....N.....N....
0080: 01 4E 00 A1 10 10 01 4E  00 A3 10 10 01 92 01 93  .N.....N........
0090: 10 10 01 92 01 94 10 10  01 92 01 99 10 10 01 92  ................
00A0: 01 92 10 10 01 92 01 9D  10 10 01 92 01 9E 10 10  ................
00B0: 01 92 01 A1 10 10 01 94  01 F0 FF FF 7F 94 01 93  ................
00C0: 10 10 01 94 01 94 10 10  01 94 01 99 10 10 01 94  ................
00D0: 01 92 10 10 01 94 01 9D  10 10 01 94 01 9E 10 10  ................
00E0: 01 94 01 9F 10 10 01 94  01 A0 10 10 01 94 01 A1  ................
00F0: 10 10 01 94 01 A3 10 10  01 27 05 F0 FF FF 7F 32  .........'.....2
0100: 59 05 A3 10 10 01 01 BA  F0 FF FF 7F 05 80 06 80  Y...............
0110: 03 80 07 80 BA 93 10 10  01 08 80 09 80 0A 80 0B  ................
0120: 80 BA 94 10 10 01 0C 80  0D 80 0E 80 0B 80 BA 99  ................
0130: 10 10 01 0F 80 10 80 0E  80 0B 80 BA 92 10 10 01  ................
0140: 11 80 12 80 0E 80 0B 80  BA 9D 10 10 01 13 80 14  ................
0150: 80 0E 80 0B 80 BA 9E 10  10 01 15 80 16 80 03 80  ................
0160: 0B 80 BA 9F 10 10 01 17  80 18 80 0A 80 19 80 BA  ................
0170: A0 10 10 01 17 80 18 80  0A 80 19 80 BA A1 10 10  ................
0180: 01 1A 80 1B 80 1C 80 1D  80 02 87 7F 1E 80 80 A1  ................
0190: 01 BA A3 10 10 01 1F 80  20 80 21 80 22 80 01 0E  ........ .!."...
01A0: 02 02 87 7F 23 80 80 B9  01 BA A3 10 10 01 1F 80  ....#...........
01B0: 20 80 21 80 22 80 01 0E  02 02 87 7F 24 80 80 D1   .!.".......$...
01C0: 01 BA A3 10 10 01 1F 80  20 80 25 80 22 80 01 0E  ........ .%."...
01D0: 02 02 87 7F 26 80 80 E9  01 BA A3 10 10 01 1F 80  ....&...........
01E0: 20 80 25 80 22 80 01 0E  02 02 87 7F 27 80 80 01   .%.".......'...
01F0: 02 BA A3 10 10 01 1F 80  28 80 21 80 22 80 01 0E  ........(.!."...
0200: 02 BA A3 10 10 01 1F 80  20 80 29 80 22 80 80 F0  ........ .)."...
0210: FF FF 7F 80 93 10 10 01  80 94 10 10 01 80 99 10  ................
0220: 10 01 80 92 10 10 01 80  9D 10 10 01 80 9E 10 10  ................
0230: 01 80 9F 10 10 01 80 A0  10 10 01 80 A1 10 10 01  ................
0240: 80 A3 10 10 01 4A F0 FF  FF 7F 9E 10 10 01 4A 94  .....J........J.
0250: 10 10 01 93 10 10 01 4A  93 10 10 01 94 10 10 01  .......J........
0260: 4A 92 10 10 01 94 10 10  01 4A 99 10 10 01 94 10  J........J......
0270: 10 01 4A 9D 10 10 01 94  10 10 01 1C 2A 80 5B 2B  ..J.........*.[+
0280: 80 9F 10 10 01 9F 10 10  01 62 65 64 32 5B 2B 80  .........bed2[+.
0290: A0 10 10 01 A0 10 10 01  62 65 64 33 45 2C 80 F8  ........bed3E,..
02A0: FF FF 7F F8 FF FF 7F 73  30 31 30 03 80 1C 2D 80  .......s010...-.
02B0: 1A 0A D6 66 2E 80 93 10  10 01 93 10 10 01 74 6C  ...f..........tl
02C0: 6B 30 2B 93 10 10 01 2F  80 23 52 2C 80 F8 FF FF  k0+..../.#R,....
02D0: 7F F8 FF FF 7F 73 30 31  30 45 2C 80 F8 FF FF 7F  .....s010E,.....
02E0: F8 FF FF 7F 73 30 31 31  03 80 2B 93 10 10 01 30  ....s011..+....0
02F0: 80 23 2B 93 10 10 01 31  80 23 66 2E 80 93 10 10  .#+....1.#f.....
0300: 01 93 10 10 01 74 6C 6B  31 5B 32 80 9E 10 10 01  .....tlk1[2.....
0310: 9E 10 10 01 64 6F 72 30  1C 2A 80 52 2C 80 F8 FF  ....dor0.*.R,...
0320: FF 7F F8 FF FF 7F 73 30  31 31 45 2C 80 F8 FF FF  ......s011E,....
0330: 7F F8 FF FF 7F 73 30 31  32 03 80 1C 33 80 52 2C  .....s012...3.R,
0340: 80 F8 FF FF 7F F8 FF FF  7F 73 30 31 32 45 2C 80  .........s012E,.
0350: F8 FF FF 7F F8 FF FF 7F  73 32 30 36 03 80 1C 34  ........s206...4
0360: 80 52 2C 80 F8 FF FF 7F  F8 FF FF 7F 73 32 30 36  .R,.........s206
0370: 45 2C 80 F8 FF FF 7F F8  FF FF 7F 73 30 31 33 03  E,.........s013.
0380: 80 5B 32 80 9E 10 10 01  9E 10 10 01 64 6F 72 31  .[2.........dor1
0390: 2B 9E 10 10 01 35 80 23  52 2C 80 F8 FF FF 7F F8  +....5.#R,......
03A0: FF FF 7F 73 30 31 33 45  2C 80 F8 FF FF 7F F8 FF  ...s013E,.......
03B0: FF 7F 73 30 31 34 03 80  2B 9E 10 10 01 36 80 23  ..s014..+....6.#
03C0: 53 9E 10 10 01 9E 10 10  01 64 6F 72 31 5B 37 80  S........dor1[7.
03D0: 94 10 10 01 94 10 10 01  74 6C 6B 30 52 2C 80 F8  ........tlk0R,..
03E0: FF FF 7F F8 FF FF 7F 73  30 31 34 45 2C 80 F8 FF  .......s014E,...
03F0: FF 7F F8 FF FF 7F 73 30  31 35 03 80 2B 94 10 10  ......s015..+...
0400: 01 38 80 23 1A 2B D6 1C  2A 80 52 2C 80 F8 FF FF  .8.#.+..*.R,....
0410: 7F F8 FF FF 7F 73 30 31  35 6B 69 64 6C 30 94 10  .....s015kidl0..
0420: 10 01 6B 69 64 6C 30 9E  10 10 01 2F 00 90 10 10  ..kidl0..../....
0430: 01 2F 00 A2 10 10 01 4E  00 90 10 10 01 4E 00 A2  ./.....N.....N..
0440: 10 10 01 92 01 90 10 10  01 94 01 90 10 10 01 94  ................
0450: 01 A2 10 10 01 BA 93 10  10 01 39 80 3A 80 0A 80  ..........9.:...
0460: 3B 80 BA A2 10 10 01 39  80 3A 80 0A 80 3B 80 BA  ;......9.:...;..
0470: F0 FF FF 7F 3C 80 3D 80  0A 80 3E 80 BA 90 10 10  ....<.=...>.....
0480: 01 3F 80 40 80 0E 80 0B  80 80 93 10 10 01 80 A2  .?.@............
0490: 10 10 01 80 F0 FF FF 7F  80 90 10 10 01 4A 90 10  .............J..
04A0: 10 01 93 10 10 01 4A F0  FF FF 7F 93 10 10 01 4A  ......J........J
04B0: 92 10 10 01 93 10 10 01  4A 99 10 10 01 93 10 10  ........J.......
04C0: 01 4A 9D 10 10 01 93 10  10 01 4A 94 10 10 01 93  .J........J.....
04D0: 10 10 01 1C 2A 80 5B 41  80 A2 10 10 01 A2 10 10  ....*.[A........
04E0: 01 65 6D 6C 6C 66 42 80  93 10 10 01 93 10 10 01  .emllfB.........
04F0: 6B 69 7A 6C CD 43 80 A2  10 10 01 A2 10 10 01 73  kizl.C.........s
0500: 74 61 72 03 80 45 2C 80  F8 FF FF 7F F8 FF FF 7F  tar..E,.........
0510: 73 30 31 36 03 80 1C 2D  80 45 44 80 F0 FF FF 7F  s016...-.ED.....
0520: F0 FF FF 7F 65 66 6F 6E  03 80 55 44 80 F0 FF FF  ....efon..UD....
0530: 7F F0 FF FF 7F 65 66 6F  6E 7C 00 94 10 10 01 03  .....efon|......
0540: 02 10 45 80 2B 94 10 10  01 46 80 23 52 2C 80 F8  ..E.+....F.#R,..
0550: FF FF 7F F8 FF FF 7F 73  30 31 36 45 2C 80 F8 FF  .......s016E,...
0560: FF 7F F8 FF FF 7F 73 30  31 37 03 80 2B 94 10 10  ......s017..+...
0570: 01 47 80 23 52 2C 80 F8  FF FF 7F F8 FF FF 7F 73  .G.#R,.........s
0580: 30 31 37 45 2C 80 F8 FF  FF 7F F8 FF FF 7F 73 30  017E,.........s0
0590: 31 38 03 80 2B 94 10 10  01 48 80 23 1A 2B D6 1C  18..+....H.#.+..
05A0: 2A 80 52 2C 80 F8 FF FF  7F F8 FF FF 7F 73 30 31  *.R,.........s01
05B0: 38 7B F0 FF FF 7F 6B 69  64 6C 30 93 10 10 01 BA  8{....kidl0.....
05C0: 93 10 10 01 3F 80 40 80  0E 80 0B 80 BA 90 10 10  ....?.@.........
05D0: 01 39 80 3A 80 0A 80 3B  80 BA A2 10 10 01 49 80  .9.:...;......I.
05E0: 4A 80 0E 80 4B 80 80 93  10 10 01 80 90 10 10 01  J...K...........
05F0: 80 A2 10 10 01 4A 90 10  10 01 F0 FF FF 7F 4A 92  .....J........J.
0600: 10 10 01 F0 FF FF 7F 4A  99 10 10 01 F0 FF FF 7F  .......J........
0610: 4A 9D 10 10 01 F0 FF FF  7F 4A 94 10 10 01 F0 FF  J........J......
0620: FF 7F 4A 93 10 10 01 F0  FF FF 7F 1A 7F D4 45 2C  ..J...........E,
0630: 80 F8 FF FF 7F F8 FF FF  7F 73 30 31 39 03 80 1C  .........s019...
0640: 2D 80 45 44 80 F0 FF FF  7F F0 FF FF 7F 65 66 6F  -.ED.........efo
0650: 6E 03 80 55 44 80 F0 FF  FF 7F F0 FF FF 7F 65 66  n..UD.........ef
0660: 6F 6E 1A 36 D3 7C 00 93  10 10 01 2B 93 10 10 01  on.6.|.....+....
0670: 4C 80 23 52 2C 80 F8 FF  FF 7F F8 FF FF 7F 73 30  L.#R,.........s0
0680: 31 39 45 2C 80 F8 FF FF  7F F8 FF FF 7F 73 31 33  19E,.........s13
0690: 32 03 80 2B 94 10 10 01  4D 80 23 52 2C 80 F8 FF  2..+....M.#R,...
06A0: FF 7F F8 FF FF 7F 73 31  33 32 02 87 7F 04 80 80  ......s132......
06B0: CE 06 45 2C 80 F8 FF FF  7F F8 FF FF 7F 73 31 33  ..E,.........s13
06C0: 33 03 80 2B 94 10 10 01  4E 80 23 01 CA 07 02 87  3..+....N.#.....
06D0: 7F 4F 80 80 F2 06 45 2C  80 F8 FF FF 7F F8 FF FF  .O....E,........
06E0: 7F 73 31 33 33 03 80 2B  94 10 10 01 4E 80 23 01  .s133..+....N.#.
06F0: CA 07 02 87 7F 1E 80 80  16 07 45 2C 80 F8 FF FF  ..........E,....
0700: 7F F8 FF FF 7F 73 31 33  34 03 80 2B 94 10 10 01  .....s134..+....
0710: 50 80 23 01 CA 07 02 87  7F 23 80 80 3A 07 45 2C  P.#......#..:.E,
0720: 80 F8 FF FF 7F F8 FF FF  7F 73 31 33 34 03 80 2B  .........s134..+
0730: 94 10 10 01 50 80 23 01  CA 07 02 87 7F 24 80 80  ....P.#......$..
0740: 5E 07 45 2C 80 F8 FF FF  7F F8 FF FF 7F 73 31 33  ^.E,.........s13
0750: 35 03 80 2B 94 10 10 01  51 80 23 01 CA 07 02 87  5..+....Q.#.....
0760: 7F 26 80 80 82 07 45 2C  80 F8 FF FF 7F F8 FF FF  .&....E,........
0770: 7F 73 31 33 35 03 80 2B  94 10 10 01 51 80 23 01  .s135..+....Q.#.
0780: CA 07 02 87 7F 52 80 80  A6 07 45 2C 80 F8 FF FF  .....R....E,....
0790: 7F F8 FF FF 7F 73 31 33  33 03 80 2B 94 10 10 01  .....s133..+....
07A0: 53 80 23 01 CA 07 02 87  7F 27 80 80 CA 07 45 2C  S.#......'....E,
07B0: 80 F8 FF FF 7F F8 FF FF  7F 73 31 33 34 03 80 2B  .........s134..+
07C0: 94 10 10 01 54 80 23 01  CA 07 1A 2B D6 1C 2A 80  ....T.#....+..*.
07D0: 52 2C 80 F8 FF FF 7F F8  FF FF 7F 73 31 33 33 52  R,.........s133R
07E0: 2C 80 F8 FF FF 7F F8 FF  FF 7F 73 31 33 34 52 2C  ,.........s134R,
07F0: 80 F8 FF FF 7F F8 FF FF  7F 73 31 33 35 CD 43 80  .........s135.C.
0800: A2 10 10 01 A2 10 10 01  6B 69 6C 6C 03 80 4E 01  ........kill..N.
0810: 90 10 10 01 6B 69 64 6C  30 F0 FF FF 7F 7C 01 94  ....kidl0....|..
0820: 10 10 01 7C 01 93 10 10  01 4E 01 A2 10 10 01 BA  ...|.....N......
0830: 93 10 10 01 08 80 09 80  0A 80 0B 80 BA 9E 10 10  ................
0840: 01 55 80 2E 80 03 80 0B  80 BA F0 FF FF 7F 56 80  .U............V.
0850: 57 80 03 80 0B 80 80 F0  FF FF 7F 80 93 10 10 01  W...............
0860: 80 9E 10 10 01 4A F0 FF  FF 7F 9E 10 10 01 4A 9E  .....J........J.
0870: 10 10 01 F0 FF FF 7F 4A  93 10 10 01 94 10 10 01  .......J........
0880: 4A 92 10 10 01 94 10 10  01 4A 99 10 10 01 94 10  J........J......
0890: 10 01 4A 9D 10 10 01 94  10 10 01 4A 94 10 10 01  ..J........J....
08A0: 99 10 10 01 1C 2A 80 45  2C 80 F8 FF FF 7F F8 FF  .....*.E,.......
08B0: FF 7F 73 31 33 36 03 80  1C 2D 80 1A 0A D6 5B 58  ..s136...-....[X
08C0: 80 92 10 10 01 92 10 10  01 74 6C 61 30 2B 92 10  .........tla0+..
08D0: 10 01 59 80 23 52 2C 80  F8 FF FF 7F F8 FF FF 7F  ..Y.#R,.........
08E0: 73 31 33 36 45 2C 80 F8  FF FF 7F F8 FF FF 7F 73  s136E,.........s
08F0: 31 33 39 03 80 79 00 94  10 10 01 92 10 10 01 02  139..y..........
0900: 8B 7F 03 80 00 0F 09 03  02 10 03 80 01 14 09 03  ................
0910: 02 10 04 80 2B 92 10 10  01 5A 80 23 5B 58 80 92  ....+....Z.#[X..
0920: 10 10 01 92 10 10 01 74  6C 61 31 2B 92 10 10 01  .......tla1+....
0930: 5B 80 23 5B 5C 80 92 10  10 01 92 10 10 01 75 64  [.#[\.........ud
0940: 65 30 1C 2D 80 52 2C 80  F8 FF FF 7F F8 FF FF 7F  e0.-.R,.........
0950: 73 31 33 39 45 2C 80 F8  FF FF 7F F8 FF FF 7F 73  s139E,.........s
0960: 31 34 30 03 80 2B 92 10  10 01 5D 80 23 2B 92 10  140..+....].#+..
0970: 10 01 5E 80 23 5B 5C 80  92 10 10 01 92 10 10 01  ..^.#[\.........
0980: 75 64 65 31 52 2C 80 F8  FF FF 7F F8 FF FF 7F 73  ude1R,.........s
0990: 31 34 30 45 2C 80 F8 FF  FF 7F F8 FF FF 7F 73 31  140E,.........s1
09A0: 34 31 03 80 5B 37 80 94  10 10 01 94 10 10 01 6E  41..[7.........n
09B0: 6F 6E 30 2B 94 10 10 01  5F 80 23 81 00 92 10 10  on0+...._.#.....
09C0: 01 7C 00 92 10 10 01 5B  60 80 92 10 10 01 92 10  .|.....[`.......
09D0: 10 01 6B 62 69 30 2B 92  10 10 01 61 80 23 52 2C  ..kbi0+....a.#R,
09E0: 80 F8 FF FF 7F F8 FF FF  7F 73 31 34 31 45 2C 80  .........s141E,.
09F0: F8 FF FF 7F F8 FF FF 7F  73 31 34 32 03 80 5B 37  ........s142..[7
0A00: 80 94 10 10 01 94 10 10  01 74 6C 6B 30 2B 94 10  .........tlk0+..
0A10: 10 01 62 80 23 2B 94 10  10 01 63 80 23 2B 94 10  ..b.#+....c.#+..
0A20: 10 01 64 80 23 5B 37 80  94 10 10 01 94 10 10 01  ..d.#[7.........
0A30: 74 6C 6B 31 52 2C 80 F8  FF FF 7F F8 FF FF 7F 73  tlk1R,.........s
0A40: 31 34 32 45 2C 80 F8 FF  FF 7F F8 FF FF 7F 73 31  142E,.........s1
0A50: 34 33 03 80 2B 93 10 10  01 65 80 23 52 2C 80 F8  43..+....e.#R,..
0A60: FF FF 7F F8 FF FF 7F 73  31 34 33 45 2C 80 F8 FF  .......s143E,...
0A70: FF 7F F8 FF FF 7F 73 31  34 34 03 80 5B 37 80 94  ......s144..[7..
0A80: 10 10 01 94 10 10 01 74  6C 6B 30 2B 94 10 10 01  .......tlk0+....
0A90: 66 80 23 2B 94 10 10 01  67 80 23 52 2C 80 F8 FF  f.#+....g.#R,...
0AA0: FF 7F F8 FF FF 7F 73 31  34 34 45 2C 80 F8 FF FF  ......s144E,....
0AB0: 7F F8 FF FF 7F 73 31 34  35 03 80 79 00 94 10 10  .....s145..y....
0AC0: 01 93 10 10 01 2B 94 10  10 01 68 80 23 5B 37 80  .....+....h.#[7.
0AD0: 94 10 10 01 94 10 10 01  74 6C 6B 31 2B 94 10 10  ........tlk1+...
0AE0: 01 69 80 23 7B 94 10 10  01 52 2C 80 F8 FF FF 7F  .i.#{....R,.....
0AF0: F8 FF FF 7F 73 31 34 35  45 2C 80 F8 FF FF 7F F8  ....s145E,......
0B00: FF FF 7F 73 31 34 36 03  80 5B 37 80 94 10 10 01  ...s146..[7.....
0B10: 94 10 10 01 74 68 6B 30  2B 94 10 10 01 6A 80 23  ....thk0+....j.#
0B20: 2B 94 10 10 01 6B 80 23  5B 37 80 94 10 10 01 94  +....k.#[7......
0B30: 10 10 01 74 68 6B 31 52  2C 80 F8 FF FF 7F F8 FF  ...thk1R,.......
0B40: FF 7F 73 31 34 36 45 2C  80 F8 FF FF 7F F8 FF FF  ..s146E,........
0B50: 7F 73 31 34 37 03 80 81  01 92 10 10 01 7C 01 92  .s147........|..
0B60: 10 10 01 5B 60 80 92 10  10 01 92 10 10 01 6B 62  ...[`.........kb
0B70: 69 31 2B 94 10 10 01 6C  80 23 5B 37 80 94 10 10  i1+....l.#[7....
0B80: 01 94 10 10 01 74 6C 6B  30 2B 94 10 10 01 6D 80  .....tlk0+....m.
0B90: 23 2B 94 10 10 01 6E 80  23 52 2C 80 F8 FF FF 7F  #+....n.#R,.....
0BA0: F8 FF FF 7F 73 31 34 37  45 2C 80 F8 FF FF 7F F8  ....s147E,......
0BB0: FF FF 7F 73 31 34 38 03  80 5B 37 80 94 10 10 01  ...s148..[7.....
0BC0: 94 10 10 01 74 6C 6B 31  5B 58 80 92 10 10 01 92  ....tlk1[X......
0BD0: 10 10 01 74 6C 6B 30 2B  92 10 10 01 6F 80 23 5B  ...tlk0+....o.#[
0BE0: 58 80 92 10 10 01 92 10  10 01 74 6C 6B 31 79 00  X.........tlk1y.
0BF0: 94 10 10 01 92 10 10 01  2B 94 10 10 01 70 80 23  ........+....p.#
0C00: 52 2C 80 F8 FF FF 7F F8  FF FF 7F 73 31 34 38 45  R,.........s148E
0C10: 2C 80 F8 FF FF 7F F8 FF  FF 7F 73 31 34 39 03 80  ,.........s149..
0C20: 2B 94 10 10 01 71 80 23  5B 72 80 9E 10 10 01 9E  +....q.#[r......
0C30: 10 10 01 74 68 6B 30 52  2C 80 F8 FF FF 7F F8 FF  ...thk0R,.......
0C40: FF 7F 73 31 34 39 45 2C  80 F8 FF FF 7F F8 FF FF  ..s149E,........
0C50: 7F 73 31 35 30 03 80 2B  9E 10 10 01 73 80 23 2B  .s150..+....s.#+
0C60: 9E 10 10 01 74 80 23 52  2C 80 F8 FF FF 7F F8 FF  ....t.#R,.......
0C70: FF 7F 73 31 35 30 45 2C  80 F8 FF FF 7F F8 FF FF  ..s150E,........
0C80: 7F 73 31 35 31 03 80 5B  72 80 9E 10 10 01 9E 10  .s151..[r.......
0C90: 10 01 74 68 6B 31 2B 9E  10 10 01 75 80 23 52 2C  ..thk1+....u.#R,
0CA0: 80 F8 FF FF 7F F8 FF FF  7F 73 31 35 31 45 2C 80  .........s151E,.
0CB0: F8 FF FF 7F F8 FF FF 7F  73 31 35 32 03 80 2C B1  ........s152..,.
0CC0: 10 10 01 B1 10 10 01 6F  70 65 6E 7B F0 FF FF 7F  .......open{....
0CD0: 1C 2D 80 BA 9E 10 10 01  76 80 77 80 0E 80 0B 80  .-......v.w.....
0CE0: BA F0 FF FF 7F 78 80 79  80 0E 80 0B 80 1C 2D 80  .....x.y......-.
0CF0: 27 05 9E 10 10 01 03 1C  2A 80 27 05 F0 FF FF 7F  '.......*.'.....
0D00: 34 4A 9D 10 10 01 9E 10  10 01 79 00 92 10 10 01  4J........y.....
0D10: 9E 10 10 01 79 00 99 10  10 01 9E 10 10 01 79 00  ....y.........y.
0D20: 93 10 10 01 9E 10 10 01  1C 7A 80 52 2C 80 F8 FF  .........z.R,...
0D30: FF 7F F8 FF FF 7F 73 31  35 32 45 2C 80 F8 FF FF  ......s152E,....
0D40: 7F F8 FF FF 7F 73 31 35  33 03 80 1C 7B 80 2C B1  .....s153...{.,.
0D50: 10 10 01 B1 10 10 01 63  6C 6F 73 4A 94 10 10 01  .......closJ....
0D60: 9E 10 10 01 1C 7C 80 52  2C 80 F8 FF FF 7F F8 FF  .....|.R,.......
0D70: FF 7F 73 31 35 33 45 2C  80 F8 FF FF 7F F8 FF FF  ..s153E,........
0D80: 7F 73 31 35 34 03 80 5B  7D 80 9E 10 10 01 9E 10  .s154..[}.......
0D90: 10 01 6B 65 69 30 2B 9E  10 10 01 7E 80 23 53 9E  ..kei0+....~.#S.
0DA0: 10 10 01 9E 10 10 01 6B  65 69 30 52 2C 80 F8 FF  .......kei0R,...
0DB0: FF 7F F8 FF FF 7F 73 31  35 34 45 2C 80 F8 FF FF  ......s154E,....
0DC0: 7F F8 FF FF 7F 73 31 35  35 03 80 79 00 9E 10 10  .....s155..y....
0DD0: 01 A1 10 10 01 2B 9E 10  10 01 7F 80 23 52 2C 80  .....+......#R,.
0DE0: F8 FF FF 7F F8 FF FF 7F  73 31 35 35 45 2C 80 F8  ........s155E,..
0DF0: FF FF 7F F8 FF FF 7F 73  31 35 36 03 80 27 05 9E  .......s156..'..
0E00: 10 10 01 04 1C 80 80 5D  03 80 80 80 1A 2B D6 1C  .......].....+..
0E10: 2A 80 52 2C 80 F8 FF FF  7F F8 FF FF 7F 73 31 35  *.R,.........s15
0E20: 36 7B 9E 10 10 01 7A 00  9E 10 10 01 BA 9E 10 10  6{....z.........
0E30: 01 81 80 82 80 0A 80 83  80 BA F0 FF FF 7F 84 80  ................
0E40: 85 80 0A 80 22 80 80 9E  10 10 01 80 F0 FF FF 7F  ...."...........
0E50: 4A 9D 10 10 01 9E 10 10  01 4A 94 10 10 01 9E 10  J........J......
0E60: 10 01 4A 92 10 10 01 9E  10 10 01 4A 99 10 10 01  ..J........J....
0E70: 9E 10 10 01 4A 93 10 10  01 9E 10 10 01 1C 2A 80  ....J.........*.
0E80: 81 00 9E 10 10 01 5B 32  80 9E 10 10 01 9E 10 10  ......[2........
0E90: 01 6B 61 7A 30 45 2C 80  F8 FF FF 7F F8 FF FF 7F  .kaz0E,.........
0EA0: 73 31 35 37 03 80 1C 2D  80 1A 0A D6 1C 7A 80 52  s157...-.....z.R
0EB0: 2C 80 F8 FF FF 7F F8 FF  FF 7F 73 31 35 37 45 2C  ,.........s157E,
0EC0: 80 F8 FF FF 7F F8 FF FF  7F 73 31 35 38 03 80 66  .........s158..f
0ED0: 2E 80 93 10 10 01 93 10  10 01 74 6C 6B 30 2B 93  ..........tlk0+.
0EE0: 10 10 01 86 80 23 66 2E  80 93 10 10 01 93 10 10  .....#f.........
0EF0: 01 74 6C 6B 31 52 2C 80  F8 FF FF 7F F8 FF FF 7F  .tlk1R,.........
0F00: 73 31 35 38 45 2C 80 F8  FF FF 7F F8 FF FF 7F 73  s158E,.........s
0F10: 31 35 39 03 80 2B 9E 10  10 01 87 80 23 52 2C 80  159..+......#R,.
0F20: F8 FF FF 7F F8 FF FF 7F  73 31 35 39 45 2C 80 F8  ........s159E,..
0F30: FF FF 7F F8 FF FF 7F 73  31 36 30 03 80 5B 32 80  .......s160..[2.
0F40: 9E 10 10 01 9E 10 10 01  6B 61 7A 31 2B 9E 10 10  ........kaz1+...
0F50: 01 88 80 23 53 9E 10 10  01 9E 10 10 01 6B 61 7A  ...#S........kaz
0F60: 31 52 2C 80 F8 FF FF 7F  F8 FF FF 7F 73 31 36 30  1R,.........s160
0F70: 45 2C 80 F8 FF FF 7F F8  FF FF 7F 73 31 36 31 03  E,.........s161.
0F80: 80 2B 9E 10 10 01 89 80  23 5C 00 8A 80 5C 01 8A  .+......#\...\..
0F90: 80 9A 5B 5C 80 92 10 10  01 92 10 10 01 75 64 65  ..[\.........ude
0FA0: 30 52 2C 80 F8 FF FF 7F  F8 FF FF 7F 73 31 36 31  0R,.........s161
0FB0: 45 2C 80 F8 FF FF 7F F8  FF FF 7F 73 31 36 32 03  E,.........s162.
0FC0: 80 45 8B 80 F8 FF FF 7F  F8 FF FF 7F 31 30 36 34  .E..........1064
0FD0: 03 80 6E 99 10 10 01 8C  80 99 99 10 10 01 1C 7B  ..n............{
0FE0: 80 BA 9E 10 10 01 39 80  3A 80 0A 80 3B 80 4A 9E  ......9.:...;.J.
0FF0: 10 10 01 94 10 10 01 1C  8D 80 52 2C 80 F8 FF FF  ..........R,....
1000: 7F F8 FF FF 7F 73 31 36  32 45 2C 80 F8 FF FF 7F  .....s162E,.....
1010: F8 FF FF 7F 73 31 36 33  03 80 5B 37 80 94 10 10  ....s163..[7....
1020: 01 94 10 10 01 79 65 73  30 2B 94 10 10 01 8E 80  .....yes0+......
1030: 23 5B 72 80 9E 10 10 01  9E 10 10 01 74 6C 6B 30  #[r.........tlk0
1040: 2B 9E 10 10 01 8F 80 23  5B 72 80 9E 10 10 01 9E  +......#[r......
1050: 10 10 01 74 6C 6B 31 52  2C 80 F8 FF FF 7F F8 FF  ...tlk1R,.......
1060: FF 7F 73 31 36 33 02 87  7F 1E 80 80 82 10 45 2C  ..s163........E,
1070: 80 F8 FF FF 7F F8 FF FF  7F 73 30 30 39 03 80 01  .........s009...
1080: 03 11 02 87 7F 23 80 80  9E 10 45 2C 80 F8 FF FF  .....#....E,....
1090: 7F F8 FF FF 7F 73 30 30  39 03 80 01 03 11 02 87  .....s009.......
10A0: 7F 24 80 80 BA 10 45 2C  80 F8 FF FF 7F F8 FF FF  .$....E,........
10B0: 7F 73 30 30 38 03 80 01  03 11 02 87 7F 26 80 80  .s008........&..
10C0: D6 10 45 2C 80 F8 FF FF  7F F8 FF FF 7F 73 30 30  ..E,.........s00
10D0: 38 03 80 01 03 11 02 87  7F 27 80 80 F2 10 45 2C  8........'....E,
10E0: 80 F8 FF FF 7F F8 FF FF  7F 73 30 30 39 03 80 01  .........s009...
10F0: 03 11 45 2C 80 F8 FF FF  7F F8 FF FF 7F 73 30 30  ..E,.........s00
1100: 37 03 80 CD 43 80 A3 10  10 01 A3 10 10 01 73 74  7...C.........st
1110: 61 31 03 80 45 2C 80 F8  FF FF 7F F8 FF FF 7F 31  a1..E,.........1
1120: 30 37 39 03 80 1C 7B 80  4A A1 10 10 01 F0 FF FF  079...{.J.......
1130: 7F 1C 8D 80 52 2C 80 F8  FF FF 7F F8 FF FF 7F 73  ....R,.........s
1140: 30 30 37 52 2C 80 F8 FF  FF 7F F8 FF FF 7F 73 30  007R,.........s0
1150: 30 38 52 2C 80 F8 FF FF  7F F8 FF FF 7F 73 30 30  08R,.........s00
1160: 39 45 2C 80 F8 FF FF 7F  F8 FF FF 7F 73 31 36 34  9E,.........s164
1170: 03 80 5B 90 80 A1 10 10  01 A1 10 10 01 74 6C 61  ..[..........tla
1180: 30 2B A1 10 10 01 91 80  23 2B A1 10 10 01 92 80  0+......#+......
1190: 23 2B A1 10 10 01 93 80  23 52 2C 80 F8 FF FF 7F  #+......#R,.....
11A0: F8 FF FF 7F 73 31 36 34  45 2C 80 F8 FF FF 7F F8  ....s164E,......
11B0: FF FF 7F 73 31 36 35 03  80 2B A1 10 10 01 94 80  ...s165..+......
11C0: 23 CD 43 80 A3 10 10 01  A3 10 10 01 6B 69 6C 31  #.C.........kil1
11D0: 03 80 45 2C 80 F8 FF FF  7F F8 FF FF 7F 6B 30 37  ..E,.........k07
11E0: 39 03 80 2B A1 10 10 01  95 80 23 5B 90 80 A1 10  9..+......#[....
11F0: 10 01 A1 10 10 01 74 6C  61 31 52 2C 80 F8 FF FF  ......tla1R,....
1200: 7F F8 FF FF 7F 73 31 36  35 45 2C 80 F8 FF FF 7F  .....s165E,.....
1210: F8 FF FF 7F 73 31 36 36  03 80 29 05 F0 FF FF 7F  ....s166..).....
1220: 35 4A A1 10 10 01 9E 10  10 01 6E F0 FF FF 7F 26  5J........n....&
1230: 80 99 F0 FF FF 7F 1C 96  80 52 2C 80 F8 FF FF 7F  .........R,.....
1240: F8 FF FF 7F 73 31 36 36  45 2C 80 F8 FF FF 7F F8  ....s166E,......
1250: FF FF 7F 73 31 36 37 03  80 4A 9E 10 10 01 F0 FF  ...s167..J......
1260: FF 7F 1C 2A 80 2B 9E 10  10 01 97 80 23 52 2C 80  ...*.+......#R,.
1270: F8 FF FF 7F F8 FF FF 7F  73 31 36 37 45 2C 80 F8  ........s167E,..
1280: FF FF 7F F8 FF FF 7F 73  31 36 38 03 80 5B 72 80  .......s168..[r.
1290: 9E 10 10 01 9E 10 10 01  74 6C 6B 30 2B 9E 10 10  ........tlk0+...
12A0: 01 98 80 23 5B 72 80 9E  10 10 01 9E 10 10 01 74  ...#[r.........t
12B0: 6C 6B 31 52 2C 80 F8 FF  FF 7F F8 FF FF 7F 73 31  lk1R,.........s1
12C0: 36 38 45 2C 80 F8 FF FF  7F F8 FF FF 7F 73 31 36  68E,.........s16
12D0: 39 03 80 66 2E 80 93 10  10 01 93 10 10 01 74 6C  9..f..........tl
12E0: 6B 30 2B 93 10 10 01 99  80 23 66 2E 80 93 10 10  k0+......#f.....
12F0: 01 93 10 10 01 74 6C 6B  31 52 2C 80 F8 FF FF 7F  .....tlk1R,.....
1300: F8 FF FF 7F 73 31 36 39  45 2C 80 F8 FF FF 7F F8  ....s169E,......
1310: FF FF 7F 73 31 37 30 03  80 4A 9E 10 10 01 93 10  ...s170..J......
1320: 10 01 1C 2A 80 5B 9A 80  9E 10 10 01 9E 10 10 01  ...*.[..........
1330: 79 72 61 30 2B 9E 10 10  01 9B 80 23 52 2C 80 F8  yra0+......#R,..
1340: FF FF 7F F8 FF FF 7F 73  31 37 30 45 2C 80 F8 FF  .......s170E,...
1350: FF 7F F8 FF FF 7F 73 31  37 31 03 80 1C 2D 80 6B  ......s171...-.k
1360: 69 64 6C 30 9E 10 10 01  2B 93 10 10 01 9C 80 23  idl0....+......#
1370: 5B 9A 80 9E 10 10 01 9E  10 10 01 79 72 62 30 52  [..........yrb0R
1380: 2C 80 F8 FF FF 7F F8 FF  FF 7F 73 31 37 31 45 2C  ,.........s171E,
1390: 80 F8 FF FF 7F F8 FF FF  7F 73 31 37 32 03 80 2B  .........s172..+
13A0: 9E 10 10 01 9D 80 23 66  2E 80 93 10 10 01 93 10  ......#f........
13B0: 10 01 74 6C 6B 30 2B 93  10 10 01 9E 80 23 66 2E  ..tlk0+......#f.
13C0: 80 93 10 10 01 93 10 10  01 74 6C 6B 31 5B 9A 80  .........tlk1[..
13D0: 9E 10 10 01 9E 10 10 01  79 72 62 31 52 2C 80 F8  ........yrb1R,..
13E0: FF FF 7F F8 FF FF 7F 73  31 37 32 45 2C 80 F8 FF  .......s172E,...
13F0: FF 7F F8 FF FF 7F 73 32  30 37 03 80 24 9F 80 03  ......s207..$...
1400: 80 03 80 25 02 00 10 03  80 00 A1 14 27 05 F0 FF  ...%........'...
1410: FF 7F 10 1C A0 80 27 05  F0 FF FF 7F 11 1C A1 80  ......'.........
1420: 4A 9E 10 10 01 F0 FF FF  7F 1C 2A 80 52 2C 80 F8  J.........*.R,..
1430: FF FF 7F F8 FF FF 7F 73  32 30 37 45 2C 80 F8 FF  .......s207E,...
1440: FF 7F F8 FF FF 7F 73 32  30 38 03 80 5B 72 80 9E  ......s208..[r..
1450: 10 10 01 9E 10 10 01 74  6C 6B 30 2B 9E 10 10 01  .......tlk0+....
1460: A2 80 23 5B 72 80 9E 10  10 01 9E 10 10 01 74 6C  ..#[r.........tl
1470: 6B 31 52 2C 80 F8 FF FF  7F F8 FF FF 7F 73 32 30  k1R,.........s20
1480: 38 45 2C 80 F8 FF FF 7F  F8 FF FF 7F 73 31 37 33  8E,.........s173
1490: 03 80 4A 9E 10 10 01 93  10 10 01 1C 2A 80 01 BD  ..J.........*...
14A0: 14 02 00 10 04 80 00 BD  14 45 2C 80 F8 FF FF 7F  .........E,.....
14B0: F8 FF FF 7F 73 31 37 33  03 80 01 BD 14 2B 9E 10  ....s173.....+..
14C0: 10 01 A3 80 23 5B 72 80  9E 10 10 01 9E 10 10 01  ....#[r.........
14D0: 74 68 6B 30 2B 9E 10 10  01 A4 80 23 52 2C 80 F8  thk0+......#R,..
14E0: FF FF 7F F8 FF FF 7F 73  31 37 33 45 2C 80 F8 FF  .......s173E,...
14F0: FF 7F F8 FF FF 7F 73 31  37 34 03 80 5B 37 80 94  ......s174..[7..
1500: 10 10 01 94 10 10 01 74  6C 6B 30 2B 94 10 10 01  .......tlk0+....
1510: A5 80 23 5B 37 80 94 10  10 01 94 10 10 01 74 6C  ..#[7.........tl
1520: 6B 31 5B 72 80 9E 10 10  01 9E 10 10 01 74 68 6B  k1[r.........thk
1530: 31 2B 9E 10 10 01 A6 80  23 52 2C 80 F8 FF FF 7F  1+......#R,.....
1540: F8 FF FF 7F 73 31 37 34  45 2C 80 F8 FF FF 7F F8  ....s174E,......
1550: FF FF 7F 73 31 37 35 03  80 5B 72 80 9E 10 10 01  ...s175..[r.....
1560: 9E 10 10 01 74 6C 6B 30  2B 9E 10 10 01 A7 80 23  ....tlk0+......#
1570: 2B 9E 10 10 01 A8 80 23  5B 72 80 9E 10 10 01 9E  +......#[r......
1580: 10 10 01 74 6C 6B 31 52  2C 80 F8 FF FF 7F F8 FF  ...tlk1R,.......
1590: FF 7F 73 31 37 35 45 2C  80 F8 FF FF 7F F8 FF FF  ..s175E,........
15A0: 7F 73 31 37 36 03 80 5B  37 80 94 10 10 01 94 10  .s176..[7.......
15B0: 10 01 74 6C 6B 30 2B 94  10 10 01 A9 80 23 5B 37  ..tlk0+......#[7
15C0: 80 94 10 10 01 94 10 10  01 74 6C 6B 31 52 2C 80  .........tlk1R,.
15D0: F8 FF FF 7F F8 FF FF 7F  73 31 37 36 45 2C 80 F8  ........s176E,..
15E0: FF FF 7F F8 FF FF 7F 73  31 37 37 03 80 5B 72 80  .......s177..[r.
15F0: 9E 10 10 01 9E 10 10 01  74 6C 6B 30 2B 9E 10 10  ........tlk0+...
1600: 01 AA 80 23 52 2C 80 F8  FF FF 7F F8 FF FF 7F 73  ...#R,.........s
1610: 31 37 37 45 2C 80 F8 FF  FF 7F F8 FF FF 7F 73 31  177E,.........s1
1620: 37 38 03 80 6E 99 10 10  01 AB 80 99 99 10 10 01  78..n...........
1630: 2B 9E 10 10 01 AC 80 23  2B 9E 10 10 01 AD 80 23  +......#+......#
1640: 52 2C 80 F8 FF FF 7F F8  FF FF 7F 73 31 37 38 45  R,.........s178E
1650: 2C 80 F8 FF FF 7F F8 FF  FF 7F 73 31 37 39 03 80  ,.........s179..
1660: 66 2E 80 93 10 10 01 93  10 10 01 74 68 6B 31 2B  f..........thk1+
1670: 9E 10 10 01 AE 80 23 2B  9E 10 10 01 AF 80 23 52  ......#+......#R
1680: 2C 80 F8 FF FF 7F F8 FF  FF 7F 73 31 37 39 45 2C  ,.........s179E,
1690: 80 F8 FF FF 7F F8 FF FF  7F 73 31 38 30 03 80 66  .........s180..f
16A0: 2E 80 93 10 10 01 93 10  10 01 74 68 6B 32 5B 72  ..........thk2[r
16B0: 80 9E 10 10 01 9E 10 10  01 74 6C 6B 31 2B 9E 10  .........tlk1+..
16C0: 10 01 B0 80 23 52 2C 80  F8 FF FF 7F F8 FF FF 7F  ....#R,.........
16D0: 73 31 38 30 45 2C 80 F8  FF FF 7F F8 FF FF 7F 73  s180E,.........s
16E0: 31 38 31 03 80 79 00 9E  10 10 01 F0 FF FF 7F 2B  181..y.........+
16F0: 9E 10 10 01 B1 80 23 5B  72 80 9E 10 10 01 9E 10  ......#[r.......
1700: 10 01 79 65 73 30 2B 9E  10 10 01 B2 80 23 52 2C  ..yes0+......#R,
1710: 80 F8 FF FF 7F F8 FF FF  7F 73 31 38 31 45 2C 80  .........s181E,.
1720: F8 FF FF 7F F8 FF FF 7F  73 31 38 32 03 80 7B 9E  ........s182..{.
1730: 10 10 01 2B 9E 10 10 01  B3 80 23 52 2C 80 F8 FF  ...+......#R,...
1740: FF 7F F8 FF FF 7F 73 31  38 32 45 2C 80 F8 FF FF  ......s182E,....
1750: 7F F8 FF FF 7F 73 31 38  33 03 80 5B 7D 80 9E 10  .....s183..[}...
1760: 10 01 9E 10 10 01 6B 65  69 30 79 00 99 10 10 01  ......kei0y.....
1770: 94 10 10 01 79 00 92 10  10 01 94 10 10 01 2B 9E  ....y.........+.
1780: 10 10 01 B4 80 23 5B B5  80 92 10 10 01 92 10 10  .....#[.........
1790: 01 79 61 72 30 1C 96 80  52 2C 80 F8 FF FF 7F F8  .yar0...R,......
17A0: FF FF 7F 73 31 38 33 45  2C 80 F8 FF FF 7F F8 FF  ...s183E,.......
17B0: FF 7F 73 31 38 36 03 80  6E 99 10 10 01 B6 80 99  ..s186..n.......
17C0: 99 10 10 01 1C 7B 80 BA  9E 10 10 01 B7 80 B8 80  .....{..........
17D0: 0A 80 B9 80 1C 96 80 27  05 9E 10 10 01 05 1C 7B  .......'.......{
17E0: 80 52 2C 80 F8 FF FF 7F  F8 FF FF 7F 73 31 38 36  .R,.........s186
17F0: 45 2C 80 F8 FF FF 7F F8  FF FF 7F 73 31 38 34 03  E,.........s184.
1800: 80 1C BA 80 52 2C 80 F8  FF FF 7F F8 FF FF 7F 73  ....R,.........s
1810: 31 38 34 45 2C 80 F8 FF  FF 7F F8 FF FF 7F 73 31  184E,.........s1
1820: 38 35 03 80 2B 93 10 10  01 BB 80 23 52 2C 80 F8  85..+......#R,..
1830: FF FF 7F F8 FF FF 7F 73  31 38 35 45 2C 80 F8 FF  .......s185E,...
1840: FF 7F F8 FF FF 7F 73 31  38 37 03 80 27 05 94 10  ......s187..'...
1850: 10 01 13 1C 96 80 4A F0  FF FF 7F 94 10 10 01 2A  ......J........*
1860: 05 94 10 10 01 5B 37 80  94 10 10 01 94 10 10 01  .....[7.........
1870: 74 6C 6B 30 2B 94 10 10  01 BC 80 23 52 2C 80 F8  tlk0+......#R,..
1880: FF FF 7F F8 FF FF 7F 73  31 38 37 45 2C 80 F8 FF  .......s187E,...
1890: FF 7F F8 FF FF 7F 73 31  38 38 03 80 2B 94 10 10  ......s188..+...
18A0: 01 BD 80 23 5B 37 80 94  10 10 01 94 10 10 01 74  ...#[7.........t
18B0: 6C 6B 31 52 2C 80 F8 FF  FF 7F F8 FF FF 7F 73 31  lk1R,.........s1
18C0: 38 38 45 2C 80 F8 FF FF  7F F8 FF FF 7F 73 31 38  88E,.........s18
18D0: 39 03 80 6E F0 FF FF 7F  52 80 99 F0 FF FF 7F 1C  9..n....R.......
18E0: 33 80 1A 2B D6 1C 2A 80  52 2C 80 F8 FF FF 7F F8  3..+..*.R,......
18F0: FF FF 7F 73 31 38 39 4E  01 9E 10 10 01 4E 01 94  ...s189N.....N..
1900: 10 10 01 4E 01 92 10 10  01 4E 01 93 10 10 01 4E  ...N.....N.....N
1910: 01 99 10 10 01 4E 01 9D  10 10 01 4E 01 9F 10 10  .....N.....N....
1920: 01 4E 01 A0 10 10 01 7B  F0 FF FF 7F 4E 00 A2 10  .N.....{....N...
1930: 10 01 4E 00 90 10 10 01  BA F0 FF FF 7F BE 80 BF  ..N.............
1940: 80 03 80 C0 80 BA A2 10  10 01 C1 80 C2 80 03 80  ................
1950: C3 80 BA 90 10 10 01 C4  80 C5 80 03 80 C6 80 80  ................
1960: F0 FF FF 7F 80 A2 10 10  01 80 90 10 10 01 1C 2A  ...............*
1970: 80 02 87 7F 04 80 80 92  19 27 10 A2 10 10 01 11  .........'......
1980: 5B 41 80 A2 10 10 01 A2  10 10 01 68 6D 6C 30 01  [A.........hml0.
1990: 8E 1A 02 87 7F 4F 80 80  B3 19 27 10 A2 10 10 01  .....O....'.....
19A0: 11 5B 41 80 A2 10 10 01  A2 10 10 01 68 66 6C 30  .[A.........hfl0
19B0: 01 8E 1A 02 87 7F 1E 80  80 D4 19 27 10 A2 10 10  ...........'....
19C0: 01 11 5B 41 80 A2 10 10  01 A2 10 10 01 65 6D 6C  ..[A.........eml
19D0: 30 01 8E 1A 02 87 7F 23  80 80 F5 19 27 10 A2 10  0......#....'...
19E0: 10 01 11 5B 41 80 A2 10  10 01 A2 10 10 01 65 66  ...[A.........ef
19F0: 6C 30 01 8E 1A 02 87 7F  24 80 80 1D 1A 27 10 F0  l0......$....'..
1A00: FF FF 7F 2F 27 10 A2 10  10 01 0E 5B 41 80 A2 10  .../'......[A...
1A10: 10 01 A2 10 10 01 74 72  6C 30 01 8E 1A 02 87 7F  ......trl0......
1A20: 26 80 80 45 1A 27 10 F0  FF FF 7F 2F 27 10 A2 10  &..E.'...../'...
1A30: 10 01 0E 5B 41 80 A2 10  10 01 A2 10 10 01 74 72  ...[A.........tr
1A40: 6C 30 01 8E 1A 02 87 7F  52 80 80 6D 1A 27 10 F0  l0......R..m.'..
1A50: FF FF 7F 30 27 10 A2 10  10 01 0F 5B 41 80 A2 10  ...0'......[A...
1A60: 10 01 A2 10 10 01 6D 66  6C 30 01 8E 1A 02 87 7F  ......mfl0......
1A70: 27 80 80 8E 1A 27 10 A2  10 10 01 10 5B 41 80 A2  '....'......[A..
1A80: 10 10 01 A2 10 10 01 67  6D 6C 30 01 8E 1A 48 C7  .......gml0...H.
1A90: 80 23 27 05 F0 FF FF 7F  36 45 2C 80 F8 FF FF 7F  .#'.....6E,.....
1AA0: F8 FF FF 7F 73 31 39 30  03 80 1C 2D 80 1A 0A D6  ....s190...-....
1AB0: 1C C8 80 27 05 90 10 10  01 1E 1C 7B 80 52 2C 80  ...'.......{.R,.
1AC0: F8 FF FF 7F F8 FF FF 7F  73 31 39 30 45 2C 80 F8  ........s190E,..
1AD0: FF FF 7F F8 FF FF 7F 73  31 39 31 03 80 2B 90 10  .......s191..+..
1AE0: 10 01 C9 80 23 2A 05 90  10 10 01 52 2C 80 F8 FF  ....#*.....R,...
1AF0: FF 7F F8 FF FF 7F 73 31  39 31 45 2C 80 F8 FF FF  ......s191E,....
1B00: 7F F8 FF FF 7F 73 31 39  32 03 80 5B CA 80 90 10  .....s192..[....
1B10: 10 01 90 10 10 01 74 6C  6B 30 2B 90 10 10 01 CB  ......tlk0+.....
1B20: 80 23 2B 90 10 10 01 CC  80 23 5B CA 80 90 10 10  .#+......#[.....
1B30: 01 90 10 10 01 74 6C 6B  31 52 2C 80 F8 FF FF 7F  .....tlk1R,.....
1B40: F8 FF FF 7F 73 31 39 32  03 03 00 26 80 45 2C 80  ....s192...&.E,.
1B50: F8 FF FF 7F F8 FF FF 7F  73 31 39 33 03 80 24 CD  ........s193..$.
1B60: 80 03 80 03 00 25 02 00  10 03 80 00 1E 1C 27 05  .....%........'.
1B70: F0 FF FF 7F 10 1C A0 80  27 05 F0 FF FF 7F 11 1C  ........'.......
1B80: C8 80 81 00 90 10 10 01  5B CE 80 90 10 10 01 90  ........[.......
1B90: 10 10 01 62 69 6B 30 52  2C 80 F8 FF FF 7F F8 FF  ...bik0R,.......
1BA0: FF 7F 73 31 39 33 45 2C  80 F8 FF FF 7F F8 FF FF  ..s193E,........
1BB0: 7F 73 31 39 34 03 80 2B  90 10 10 01 CF 80 23 52  .s194..+......#R
1BC0: 2C 80 F8 FF FF 7F F8 FF  FF 7F 73 31 39 34 45 2C  ,.........s194E,
1BD0: 80 F8 FF FF 7F F8 FF FF  7F 73 31 39 35 03 80 81  .........s195...
1BE0: 01 90 10 10 01 5B CE 80  90 10 10 01 90 10 10 01  .....[..........
1BF0: 62 69 6B 31 2B 90 10 10  01 D0 80 23 02 03 00 26  bik1+......#...&
1C00: 80 00 09 1C 03 03 00 23  80 52 2C 80 F8 FF FF 7F  .......#.R,.....
1C10: F8 FF FF 7F 73 31 39 35  01 4D 1B 01 87 1D 02 00  ....s195.M......
1C20: 10 04 80 00 87 1D 1A A4  D0 1C D1 80 1A ED D1 1C  ................
1C30: 80 80 81 00 90 10 10 01  5B CE 80 90 10 10 01 90  ........[.......
1C40: 10 10 01 62 69 6B 30 52  2C 80 F8 FF FF 7F F8 FF  ...bik0R,.......
1C50: FF 7F 73 31 39 33 45 2C  80 F8 FF FF 7F F8 FF FF  ..s193E,........
1C60: 7F 73 31 39 36 03 80 2B  90 10 10 01 D2 80 23 6B  .s196..+......#k
1C70: 69 64 6C 30 F0 FF FF 7F  02 87 7F 04 80 80 92 1C  idl0............
1C80: 5B 41 80 A2 10 10 01 A2  10 10 01 68 6D 6C 30 01  [A.........hml0.
1C90: 48 1D 02 87 7F 4F 80 80  AC 1C 5B 41 80 A2 10 10  H....O....[A....
1CA0: 01 A2 10 10 01 68 66 6C  30 01 48 1D 02 87 7F 1E  .....hfl0.H.....
1CB0: 80 80 C6 1C 5B 41 80 A2  10 10 01 A2 10 10 01 65  ....[A.........e
1CC0: 6D 6C 30 01 48 1D 02 87  7F 23 80 80 E0 1C 5B 41  ml0.H....#....[A
1CD0: 80 A2 10 10 01 A2 10 10  01 65 66 6C 30 01 48 1D  .........efl0.H.
1CE0: 02 87 7F 24 80 80 FA 1C  5B 41 80 A2 10 10 01 A2  ...$....[A......
1CF0: 10 10 01 74 72 6C 30 01  48 1D 02 87 7F 26 80 80  ...trl0.H....&..
1D00: 14 1D 5B 41 80 A2 10 10  01 A2 10 10 01 74 72 6C  ..[A.........trl
1D10: 30 01 48 1D 02 87 7F 52  80 80 2E 1D 5B 41 80 A2  0.H....R....[A..
1D20: 10 10 01 A2 10 10 01 6D  66 6C 30 01 48 1D 02 87  .......mfl0.H...
1D30: 7F 27 80 80 48 1D 5B 41  80 A2 10 10 01 A2 10 10  .'..H.[A........
1D40: 01 67 6D 6C 30 01 48 1D  2B 90 10 10 01 D3 80 23  .gml0.H.+......#
1D50: 81 01 90 10 10 01 5B CE  80 90 10 10 01 90 10 10  ......[.........
1D60: 01 62 69 6B 31 02 03 00  23 80 00 72 1D 03 03 00  .bik1...#..r....
1D70: 03 80 52 2C 80 F8 FF FF  7F F8 FF FF 7F 73 31 39  ..R,.........s19
1D80: 36 01 4D 1B 01 87 1D 81  00 90 10 10 01 7C 00 90  6.M..........|..
1D90: 10 10 01 5B D4 80 90 10  10 01 90 10 10 01 66 69  ...[..........fi
1DA0: 30 31 1C 2A 80 52 2C 80  F8 FF FF 7F F8 FF FF 7F  01.*.R,.........
1DB0: 73 31 39 33 45 2C 80 F8  FF FF 7F F8 FF FF 7F 73  s193E,.........s
1DC0: 31 39 37 03 80 5B CA 80  90 10 10 01 90 10 10 01  197..[..........
1DD0: 74 6C 6B 30 2B 90 10 10  01 D5 80 23 2B 90 10 10  tlk0+......#+...
1DE0: 01 D6 80 23 1A 2B D6 1C  2A 80 52 2C 80 F8 FF FF  ...#.+..*.R,....
1DF0: 7F F8 FF FF 7F 73 31 39  37 7B 90 10 10 01 81 01  .....s197{......
1E00: 90 10 10 01 7C 01 90 10  10 01 6B 69 64 6C 30 90  ....|.....kidl0.
1E10: 10 10 01 2F 00 AE 10 10  01 4E 00 AE 10 10 01 27  .../.....N.....'
1E20: 05 A1 10 10 01 18 27 05  F0 FF FF 7F 32 59 05 AE  ......'.....2Y..
1E30: 10 10 01 01 BA AE 10 10  01 D7 80 D8 80 D9 80 DA  ................
1E40: 80 BA 90 10 10 01 DB 80  DC 80 0A 80 DD 80 BA A1  ................
1E50: 10 10 01 DE 80 DF 80 E0  80 DA 80 80 AE 10 10 01  ................
1E60: 80 90 10 10 01 80 A1 10  10 01 1C 2A 80 66 E1 80  ...........*.f..
1E70: AE 10 10 01 AE 10 10 01  62 65 64 30 45 2C 80 F8  ........bed0E,..
1E80: FF FF 7F F8 FF FF 7F 73  31 39 38 03 80 1C 2D 80  .......s198...-.
1E90: 45 44 80 F0 FF FF 7F F0  FF FF 7F 65 66 6F 6E 03  ED.........efon.
1EA0: 80 55 44 80 F0 FF FF 7F  F0 FF FF 7F 65 66 6F 6E  .UD.........efon
1EB0: 66 E1 80 AE 10 10 01 AE  10 10 01 62 65 64 31 2B  f..........bed1+
1EC0: 90 10 10 01 E2 80 1C 96  80 5B E3 80 90 10 10 01  .........[......
1ED0: 90 10 10 01 79 65 73 30  1C 96 80 23 52 2C 80 F8  ....yes0...#R,..
1EE0: FF FF 7F F8 FF FF 7F 73  31 39 38 45 2C 80 F8 FF  .......s198E,...
1EF0: FF 7F F8 FF FF 7F 73 31  39 39 03 80 27 05 AE 10  ......s199..'...
1F00: 10 01 06 27 05 A1 10 10  01 17 2B 90 10 10 01 E4  ...'......+.....
1F10: 80 23 1A 2B D6 1C 2A 80  52 2C 80 F8 FF FF 7F F8  .#.+..*.R,......
1F20: FF FF 7F 73 31 39 39 BA  90 10 10 01 E5 80 E6 80  ...s199.........
1F30: 03 80 B9 80 80 90 10 10  01 4A 90 10 10 01 F0 FF  .........J......
1F40: FF 7F 1C 2A 80 45 2C 80  F8 FF FF 7F F8 FF FF 7F  ...*.E,.........
1F50: 73 32 30 30 03 80 1C 2D  80 1A 0A D6 5B E7 80 90  s200...-....[...
1F60: 10 10 01 90 10 10 01 64  79 6F 30 2B 90 10 10 01  .......dyo0+....
1F70: E8 80 23 2B 90 10 10 01  E9 80 23 52 2C 80 F8 FF  ..#+......#R,...
1F80: FF 7F F8 FF FF 7F 73 32  30 30 45 2C 80 F8 FF FF  ......s200E,....
1F90: 7F F8 FF FF 7F 73 32 30  31 03 80 2B 90 10 10 01  .....s201..+....
1FA0: EA 80 23 53 90 10 10 01  90 10 10 01 64 79 6F 30  ..#S........dyo0
1FB0: 52 2C 80 F8 FF FF 7F F8  FF FF 7F 73 32 30 31 45  R,.........s201E
1FC0: 2C 80 F8 FF FF 7F F8 FF  FF 7F 73 32 30 32 03 80  ,.........s202..
1FD0: 6E F0 FF FF 7F 7B 80 99  F0 FF FF 7F 1C 2A 80 5B  n....{.......*.[
1FE0: D4 80 90 10 10 01 90 10  10 01 66 30 30 30 1C 96  ..........f000..
1FF0: 80 52 2C 80 F8 FF FF 7F  F8 FF FF 7F 73 32 30 32  .R,.........s202
2000: 45 2C 80 F8 FF FF 7F F8  FF FF 7F 73 32 30 33 03  E,.........s203.
2010: 80 5B E7 80 90 10 10 01  90 10 10 01 64 79 6F 31  .[..........dyo1
2020: 2B 90 10 10 01 EB 80 23  52 2C 80 F8 FF FF 7F F8  +......#R,......
2030: FF FF 7F 73 32 30 33 45  2C 80 F8 FF FF 7F F8 FF  ...s203E,.......
2040: FF 7F 73 32 30 34 03 80  5B CA 80 90 10 10 01 90  ..s204..[.......
2050: 10 10 01 74 6C 6B 30 2B  90 10 10 01 EC 80 23 2B  ...tlk0+......#+
2060: 90 10 10 01 ED 80 23 52  2C 80 F8 FF FF 7F F8 FF  ......#R,.......
2070: FF 7F 73 32 30 34 45 2C  80 F8 FF FF 7F F8 FF FF  ..s204E,........
2080: 7F 73 32 30 35 03 80 5B  CA 80 90 10 10 01 90 10  .s205..[........
2090: 10 01 74 6C 6B 31 2B 90  10 10 01 EE 80 23 5D 03  ..tlk1+......#].
20A0: 80 80 80 1A 2B D6 1C 2A  80 52 2C 80 F8 FF FF 7F  ....+..*.R,.....
20B0: F8 FF FF 7F 73 32 30 35  27 05 9F 10 10 01 0C 27  ....s205'......'
20C0: 05 A0 10 10 01 0B 27 05  A1 10 10 01 0A 27 05 A1  ......'......'..
20D0: 10 10 01 13 27 05 A2 10  10 01 09 27 05 A3 10 10  ....'......'....
20E0: 01 09 27 05 AE 10 10 01  07 1C 2D 80 AB 11 03 80  ..'.......-.....
20F0: 1C 04 80 35 EF 80 78 5C  00 F0 80 5C 01 F0 80 9A  ...5..x\...\....
2100: 1C 2D 80 AB 0A 46 00 45  F1 80 F0 FF FF 7F F0 FF  .-...F.E........
2110: FF 7F 66 64 69 32 03 80  21 00                    ..fdi2..!.      
```

#### Opcodes

```
  0: 0x0001 [0x42] SET_CLI_EVENT_CANCEL_DATA()
  1: 0x0002 [0x1A] CALL_SUBROUTINE(address=0xD62B)
  2: 0x0005 [0x46] CAMERA_CONTROL: Disable user control
  3: 0x0007 [0x38] SET_CLIENT_EVENT_MODE(mode=147*)
  4: 0x000A [0x34] LOAD_UNLOAD_ZONE(zone_id=584*)
  5: 0x000D [0x77] SET_EVENT_TIME_WEATHER(hour=255*, weather=0*)
  6: 0x0012 [0x1C] WAIT(1* ticks)
  7: 0x0015 [0x2F] Hildebert (ID: 17830035/0x01101093)->Render.Flags0 &= ~0x80000 // Bit 19
  8: 0x001B [0x2F] Svenja (ID: 17830036/0x01101094)->Render.Flags0 &= ~0x80000 // Bit 19
  9: 0x0021 [0x2F] Gratzigg (ID: 17830041/0x01101099)->Render.Flags0 &= ~0x80000 // Bit 19
 10: 0x0027 [0x2F] Melvien (ID: 17830034/0x01101092)->Render.Flags0 &= ~0x80000 // Bit 19
 11: 0x002D [0x2F] Vortimere (ID: 17830045/0x0110109D)->Render.Flags0 &= ~0x80000 // Bit 19
 12: 0x0033 [0x2F] Ingrid (ID: 17830046/0x0110109E)->Render.Flags0 &= ~0x80000 // Bit 19
 13: 0x0039 [0x2F] Unnamed NPC (ID: 17830047/0x0110109F)->Render.Flags0 &= ~0x80000 // Bit 19
 14: 0x003F [0x2F] Unnamed NPC (ID: 17830048/0x011010A0)->Render.Flags0 &= ~0x80000 // Bit 19
 15: 0x0045 [0x2F] Unnamed NPC (ID: 17830049/0x011010A1)->Render.Flags0 &= ~0x80000 // Bit 19
 16: 0x004B [0x2F] Unnamed NPC (ID: 17830051/0x011010A3)->Render.Flags0 &= ~0x80000 // Bit 19
 17: 0x0051 [0x4E] SET_ENTITY_HIDE_FLAG: Show Hildebert (ID: 17830035/0x01101093)
 18: 0x0057 [0x4E] SET_ENTITY_HIDE_FLAG: Show Svenja (ID: 17830036/0x01101094)
 19: 0x005D [0x4E] SET_ENTITY_HIDE_FLAG: Show Gratzigg (ID: 17830041/0x01101099)
 20: 0x0063 [0x4E] SET_ENTITY_HIDE_FLAG: Show Melvien (ID: 17830034/0x01101092)
 21: 0x0069 [0x4E] SET_ENTITY_HIDE_FLAG: Show Vortimere (ID: 17830045/0x0110109D)
 22: 0x006F [0x4E] SET_ENTITY_HIDE_FLAG: Show Ingrid (ID: 17830046/0x0110109E)
 23: 0x0075 [0x4E] SET_ENTITY_HIDE_FLAG: Show Unnamed NPC (ID: 17830047/0x0110109F)
 24: 0x007B [0x4E] SET_ENTITY_HIDE_FLAG: Show Unnamed NPC (ID: 17830048/0x011010A0)
 25: 0x0081 [0x4E] SET_ENTITY_HIDE_FLAG: Show Unnamed NPC (ID: 17830049/0x011010A1)
 26: 0x0087 [0x4E] SET_ENTITY_HIDE_FLAG: Show Unnamed NPC (ID: 17830051/0x011010A3)
 27: 0x008D [0x92] Hildebert (ID: 17830035/0x01101093)->Render.Flags3 ^= 0x01
 28: 0x0093 [0x92] Svenja (ID: 17830036/0x01101094)->Render.Flags3 ^= 0x01
 29: 0x0099 [0x92] Gratzigg (ID: 17830041/0x01101099)->Render.Flags3 ^= 0x01
 30: 0x009F [0x92] Melvien (ID: 17830034/0x01101092)->Render.Flags3 ^= 0x01
 31: 0x00A5 [0x92] Vortimere (ID: 17830045/0x0110109D)->Render.Flags3 ^= 0x01
 32: 0x00AB [0x92] Ingrid (ID: 17830046/0x0110109E)->Render.Flags3 ^= 0x01
 33: 0x00B1 [0x92] Unnamed NPC (ID: 17830049/0x011010A1)->Render.Flags3 ^= 0x01
 34: 0x00B7 [0x94] LocalPlayer->Render.Flags3 ^= 0x01
 35: 0x00BD [0x94] Hildebert (ID: 17830035/0x01101093)->Render.Flags3 ^= 0x01
 36: 0x00C3 [0x94] Svenja (ID: 17830036/0x01101094)->Render.Flags3 ^= 0x01
 37: 0x00C9 [0x94] Gratzigg (ID: 17830041/0x01101099)->Render.Flags3 ^= 0x01
 38: 0x00CF [0x94] Melvien (ID: 17830034/0x01101092)->Render.Flags3 ^= 0x01
 39: 0x00D5 [0x94] Vortimere (ID: 17830045/0x0110109D)->Render.Flags3 ^= 0x01
 40: 0x00DB [0x94] Ingrid (ID: 17830046/0x0110109E)->Render.Flags3 ^= 0x01
 41: 0x00E1 [0x94] Unnamed NPC (ID: 17830047/0x0110109F)->Render.Flags3 ^= 0x01
 42: 0x00E7 [0x94] Unnamed NPC (ID: 17830048/0x011010A0)->Render.Flags3 ^= 0x01
 43: 0x00ED [0x94] Unnamed NPC (ID: 17830049/0x011010A1)->Render.Flags3 ^= 0x01
 44: 0x00F3 [0x94] Unnamed NPC (ID: 17830051/0x011010A3)->Render.Flags3 ^= 0x01
 45: 0x00F9 [0x27] REQ_SET(priority=0x05, entity_id=LocalPlayer, tag_num=0x32)
 46: 0x0100 [0x59] UPDATE_ENTITY_DATA: Unnamed NPC (ID: 17830051/0x011010A3)->Render.Flags0 |= 0x200000
 47: 0x0107 [0xBA] SET_ENTITY_POSITION(entity_id=LocalPlayer, pos_x=-42.629*, pos_z=-2.225*, pos_y=0.000*, direction=307.3*)
 48: 0x0114 [0xBA] SET_ENTITY_POSITION(entity_id=Hildebert (ID: 17830035/0x01101093), pos_x=-62.900*, pos_z=-14.105*, pos_y=-0.500*, direction=173.0*)
 49: 0x0121 [0xBA] SET_ENTITY_POSITION(entity_id=Svenja (ID: 17830036/0x01101094), pos_x=-62.745*, pos_z=-12.067*, pos_y=-0.499*, direction=173.0*)
 50: 0x012E [0xBA] SET_ENTITY_POSITION(entity_id=Gratzigg (ID: 17830041/0x01101099), pos_x=-65.952*, pos_z=-15.085*, pos_y=-0.499*, direction=173.0*)
 51: 0x013B [0xBA] SET_ENTITY_POSITION(entity_id=Melvien (ID: 17830034/0x01101092), pos_x=-65.845*, pos_z=-11.847*, pos_y=-0.499*, direction=173.0*)
 52: 0x0148 [0xBA] SET_ENTITY_POSITION(entity_id=Vortimere (ID: 17830045/0x0110109D), pos_x=-60.805*, pos_z=-13.247*, pos_y=-0.499*, direction=173.0*)
 53: 0x0155 [0xBA] SET_ENTITY_POSITION(entity_id=Ingrid (ID: 17830046/0x0110109E), pos_x=-43.530*, pos_z=-0.031*, pos_y=0.000*, direction=173.0*)
 54: 0x0162 [0xBA] SET_ENTITY_POSITION(entity_id=Unnamed NPC (ID: 17830047/0x0110109F), pos_x=-65.061*, pos_z=-9.031*, pos_y=-0.500*, direction=87.9*)
 55: 0x016F [0xBA] SET_ENTITY_POSITION(entity_id=Unnamed NPC (ID: 17830048/0x011010A0), pos_x=-65.061*, pos_z=-9.031*, pos_y=-0.500*, direction=87.9*)
 56: 0x017C [0xBA] SET_ENTITY_POSITION(entity_id=Unnamed NPC (ID: 17830049/0x011010A1), pos_x=-64.983*, pos_z=-7.557*, pos_y=-1.365*, direction=87.6*)
 57: 0x0189 [0x02] IF !(LocalPlayer->Race == 3*) GOTO 0x01A1
 58: 0x0191 [0xBA] SET_ENTITY_POSITION(entity_id=Unnamed NPC (ID: 17830051/0x011010A3), pos_x=-61.928*, pos_z=-7.810*, pos_y=-1.700*, direction=186.8*)
 59: 0x019E [0x01] GOTO 0x020E
 60: 0x01A1 [0x02] IF !(LocalPlayer->Race == 4*) GOTO 0x01B9
 61: 0x01A9 [0xBA] SET_ENTITY_POSITION(entity_id=Unnamed NPC (ID: 17830051/0x011010A3), pos_x=-61.928*, pos_z=-7.810*, pos_y=-1.700*, direction=186.8*)
 62: 0x01B6 [0x01] GOTO 0x020E
 63: 0x01B9 [0x02] IF !(LocalPlayer->Race == 5*) GOTO 0x01D1
 64: 0x01C1 [0xBA] SET_ENTITY_POSITION(entity_id=Unnamed NPC (ID: 17830051/0x011010A3), pos_x=-61.928*, pos_z=-7.810*, pos_y=-0.800*, direction=186.8*)
 65: 0x01CE [0x01] GOTO 0x020E
 66: 0x01D1 [0x02] IF !(LocalPlayer->Race == 6*) GOTO 0x01E9
 67: 0x01D9 [0xBA] SET_ENTITY_POSITION(entity_id=Unnamed NPC (ID: 17830051/0x011010A3), pos_x=-61.928*, pos_z=-7.810*, pos_y=-0.800*, direction=186.8*)
 68: 0x01E6 [0x01] GOTO 0x020E
 69: 0x01E9 [0x02] IF !(LocalPlayer->Race == 8*) GOTO 0x0201
 70: 0x01F1 [0xBA] SET_ENTITY_POSITION(entity_id=Unnamed NPC (ID: 17830051/0x011010A3), pos_x=-61.928*, pos_z=-7.710*, pos_y=-1.700*, direction=186.8*)
 71: 0x01FE [0x01] GOTO 0x020E
 72: 0x0201 [0xBA] SET_ENTITY_POSITION(entity_id=Unnamed NPC (ID: 17830051/0x011010A3), pos_x=-61.928*, pos_z=-7.810*, pos_y=-1.500*, direction=186.8*)

SUBROUTINE_020E:
 73: 0x020E [0x80] LOAD_WAIT(entity=LocalPlayer)
 74: 0x0213 [0x80] LOAD_WAIT(entity=Hildebert (ID: 17830035/0x01101093))
 75: 0x0218 [0x80] LOAD_WAIT(entity=Svenja (ID: 17830036/0x01101094))
 76: 0x021D [0x80] LOAD_WAIT(entity=Gratzigg (ID: 17830041/0x01101099))
 77: 0x0222 [0x80] LOAD_WAIT(entity=Melvien (ID: 17830034/0x01101092))
 78: 0x0227 [0x80] LOAD_WAIT(entity=Vortimere (ID: 17830045/0x0110109D))
 79: 0x022C [0x80] LOAD_WAIT(entity=Ingrid (ID: 17830046/0x0110109E))
 80: 0x0231 [0x80] LOAD_WAIT(entity=Unnamed NPC (ID: 17830047/0x0110109F))
 81: 0x0236 [0x80] LOAD_WAIT(entity=Unnamed NPC (ID: 17830048/0x011010A0))
 82: 0x023B [0x80] LOAD_WAIT(entity=Unnamed NPC (ID: 17830049/0x011010A1))
 83: 0x0240 [0x80] LOAD_WAIT(entity=Unnamed NPC (ID: 17830051/0x011010A3))
 84: 0x0245 [0x4A] LocalPlayer looks at Ingrid (ID: 17830046/0x0110109E)
 85: 0x024E [0x4A] Svenja (ID: 17830036/0x01101094) looks at Hildebert (ID: 17830035/0x01101093)
 86: 0x0257 [0x4A] Hildebert (ID: 17830035/0x01101093) looks at Svenja (ID: 17830036/0x01101094)
 87: 0x0260 [0x4A] Melvien (ID: 17830034/0x01101092) looks at Svenja (ID: 17830036/0x01101094)
 88: 0x0269 [0x4A] Gratzigg (ID: 17830041/0x01101099) looks at Svenja (ID: 17830036/0x01101094)
 89: 0x0272 [0x4A] Vortimere (ID: 17830045/0x0110109D) looks at Svenja (ID: 17830036/0x01101094)
 90: 0x027B [0x1C] WAIT(30* ticks)
 91: 0x027E [0x5B] LOAD_EXT_SCHEDULER: Load scheduler "bed2" with entities [Unnamed NPC (ID: 17830047/0x0110109F), Unnamed NPC (ID: 17830047/0x0110109F)], work=3249*
 92: 0x028D [0x5B] LOAD_EXT_SCHEDULER: Load scheduler "bed3" with entities [Unnamed NPC (ID: 17830048/0x011010A0), Unnamed NPC (ID: 17830048/0x011010A0)], work=3249*
 93: 0x029C [0x45] LOAD_SCHEDULED_TASK: Load scheduler "s010" with entities [EventEntity, EventEntity], work=[624*, 0*]
 94: 0x02AD [0x1C] WAIT(15* ticks)
 95: 0x02B0 [0x1A] CALL_SUBROUTINE(address=0xD60A)
 96: 0x02B3 [0x66] LOAD_EXT_SCHEDULER_MAIN: Load scheduler "tlk0" with entities [Hildebert (ID: 17830035/0x01101093), Hildebert (ID: 17830035/0x01101093)], work=29*
 97: 0x02C2 [0x2B] Hildebert (ID: 17830035/0x01101093) [8501*]:
     "<Player>... Why bring someone of such questionable moral character to this assembly?"
 98: 0x02C9 [0x23] WAIT_FOR_DIALOG_INTERACTION
 99: 0x02CA [0x52] END_LOAD_SCHEDULER: End scheduler "s010" with entities [EventEntity, EventEntity], work=624*
100: 0x02D9 [0x45] LOAD_SCHEDULED_TASK: Load scheduler "s011" with entities [EventEntity, EventEntity], work=[624*, 0*]
101: 0x02EA [0x2B] Hildebert (ID: 17830035/0x01101093) [8502*]:
     "The Order of Adoulin remains yet the leader of our alliance, with a strong lineage tracing back to the founder king."
102: 0x02F1 [0x23] WAIT_FOR_DIALOG_INTERACTION
103: 0x02F2 [0x2B] Hildebert (ID: 17830035/0x01101093) [8503*]:
     "Why would you summon a mere commoner--and one from a foreign land, at that!?"
104: 0x02F9 [0x23] WAIT_FOR_DIALOG_INTERACTION
105: 0x02FA [0x66] LOAD_EXT_SCHEDULER_MAIN: Load scheduler "tlk1" with entities [Hildebert (ID: 17830035/0x01101093), Hildebert (ID: 17830035/0x01101093)], work=29*
106: 0x0309 [0x5B] LOAD_EXT_SCHEDULER: Load scheduler "dor0" with entities [Ingrid (ID: 17830046/0x0110109E), Ingrid (ID: 17830046/0x0110109E)], work=3294*
107: 0x0318 [0x1C] WAIT(30* ticks)
108: 0x031B [0x52] END_LOAD_SCHEDULER: End scheduler "s011" with entities [EventEntity, EventEntity], work=624*
109: 0x032A [0x45] LOAD_SCHEDULED_TASK: Load scheduler "s012" with entities [EventEntity, EventEntity], work=[624*, 0*]
110: 0x033B [0x1C] WAIT(90* ticks)
111: 0x033E [0x52] END_LOAD_SCHEDULER: End scheduler "s012" with entities [EventEntity, EventEntity], work=624*
112: 0x034D [0x45] LOAD_SCHEDULED_TASK: Load scheduler "s206" with entities [EventEntity, EventEntity], work=[624*, 0*]
113: 0x035E [0x1C] WAIT(140* ticks)
114: 0x0361 [0x52] END_LOAD_SCHEDULER: End scheduler "s206" with entities [EventEntity, EventEntity], work=624*
115: 0x0370 [0x45] LOAD_SCHEDULED_TASK: Load scheduler "s013" with entities [EventEntity, EventEntity], work=[624*, 0*]
116: 0x0381 [0x5B] LOAD_EXT_SCHEDULER: Load scheduler "dor1" with entities [Ingrid (ID: 17830046/0x0110109E), Ingrid (ID: 17830046/0x0110109E)], work=3294*
117: 0x0390 [0x2B] Ingrid (ID: 17830046/0x0110109E) [8504*]:
     "You seem to have won over the hearts of the nobility, hmm?"
118: 0x0397 [0x23] WAIT_FOR_DIALOG_INTERACTION
119: 0x0398 [0x52] END_LOAD_SCHEDULER: End scheduler "s013" with entities [EventEntity, EventEntity], work=624*
120: 0x03A7 [0x45] LOAD_SCHEDULED_TASK: Load scheduler "s014" with entities [EventEntity, EventEntity], work=[624*, 0*]
121: 0x03B8 [0x2B] Ingrid (ID: 17830046/0x0110109E) [8505*]:
     "Take a brief moment to listen away from their eyes."
122: 0x03BF [0x23] WAIT_FOR_DIALOG_INTERACTION
123: 0x03C0 [0x53] WAIT_SCHEDULER_TASK: Wait for scheduler "dor1" with entities [Ingrid (ID: 17830046/0x0110109E), Ingrid (ID: 17830046/0x0110109E)]
124: 0x03CD [0x5B] LOAD_EXT_SCHEDULER: Load scheduler "tlk0" with entities [Svenja (ID: 17830036/0x01101094), Svenja (ID: 17830036/0x01101094)], work=3261*
