# 17830108 - Lamaron

## Common Data

| Field            | Value                     |
|------------------|---------------------------|
| Zone             | Eastern Adoulin (ID: 257) |
| Block Size       | 244 bytes                 |
| Total Events     | 4                         |
| References Count | 11                        |

## List of Events

| Event ID              | Entrypoint   |   Size |   Instructions |
|-----------------------|--------------|--------|----------------|
| [65535](#event-65535) | 0x0000       |      1 |              1 |
| [531](#event-531)     | 0x0001       |     28 |              8 |
| [590](#event-590)     | 0x001D       |    101 |             19 |
| [2514](#event-2514)   | 0x0082       |     37 |             13 |

## DAT References (imed_data)

|   Index | Hex Value   |   Dec Value |
|---------|-------------|-------------|
|       0 | 0x0041      |          65 |
|       1 | 0x28E9      |       10473 |
|       2 | 0x28E7      |       10471 |
|       3 | 0x28E8      |       10472 |
|       4 | 0x0000      |           0 |
|       5 | 0x0001      |           1 |
|       6 | 0x00C8      |         200 |
|       7 | 0x0002      |           2 |
|       8 | 0x1ECD      |        7885 |
|       9 | 0x1ECE      |        7886 |
|      10 | 0x1ECF      |        7887 |

## String References

- **7885**: Hey, whippersnapper, you preparin' for your trip to the Yahse Hunting Grounds?
- **7886**: "Not today"? I can barely hear you! Oh ho, so you're checking things out here in Eastern Adoulin!
- **7887**: Everythin' here's shipshape! Hohoho! Let me know if you ever want to head to Yahse!
- **10471**: You're about to board a ferry bound for the Yahse Hunting Grounds. This ain't some noble's backyard, though. Many a good man has died right off the boat there, so make sure you're prepared before you board.
- **10472**: Set sail for the Yahse Hunting Grounds? [Aye aye, Cap'n!/Let me test the waters more.]
- **10473**: A wharf be lying beyond here, but the vessel ain't quite ready yet. Amazing what one sea monster can do to a ship that size, I swear. It'll probably be fit to sail once you register with the Pioneers' Coalition, though.

## Events

### Event 65535

#### Metadata

| Field        | Value   |
|--------------|---------|
| Entrypoint   | 0x0000  |
| Data Size    | 1 bytes |
| Instructions | 1       |

```
      00 01 02 03 04 05 06 07  08 09 0A 0B 0C 0D 0E 0F
      -- -- -- -- -- -- -- --  -- -- -- -- -- -- -- --
0000: 00                                                .               
```

#### Opcodes

```
  0: 0x0000 [0x00] END_REQSTACK()
```

### Event 531

#### Metadata

| Field        | Value    |
|--------------|----------|
| Entrypoint   | 0x0001   |
| Data Size    | 28 bytes |
| Instructions | 8        |

```
      00 01 02 03 04 05 06 07  08 09 0A 0B 0C 0D 0E 0F
      -- -- -- -- -- -- -- --  -- -- -- -- -- -- -- --
0000:    1E F0 FF FF 7F 6F 70  5B 00 80 F8 FF FF 7F F8   .....op[.......
0010: FF FF 7F 74 6C 6B 30 1D  01 80 23 21 00           ...tlk0...#!.   
```

#### Opcodes

```
  0: 0x0001 [0x1E] EventEntity looks at LocalPlayer and starts talking
  1: 0x0006 [0x6F] WAIT_FRAME_DELAY: Yield until WaitTime reaches zero
  2: 0x0007 [0x70] WAIT_ENTITY_RENDER_FLAG: Wait while EventEntity->Render.Flags3 bit 2 is set (cancel turn if not)
  3: 0x0008 [0x5B] LOAD_EXT_SCHEDULER: Load scheduler "tlk0" with entities [EventEntity, EventEntity], work=65*
  4: 0x0017 [0x1D] PRINT_EVENT_MESSAGE(message_id=10473*)
    → "A wharf be lying beyond here, but the vessel ain't quite ready yet. Amazing what one sea monster can do to a ship that size, I swear. It'll probably be fit to sail once you register with the Pioneers' Coalition, though."
  5: 0x001A [0x23] WAIT_FOR_DIALOG_INTERACTION
  6: 0x001B [0x21] END_EVENT
  7: 0x001C [0x00] END_REQSTACK()
```

### Event 590

#### Metadata

| Field        | Value     |
|--------------|-----------|
| Entrypoint   | 0x001D    |
| Data Size    | 101 bytes |
| Instructions | 19        |

```
      00 01 02 03 04 05 06 07  08 09 0A 0B 0C 0D 0E 0F
      -- -- -- -- -- -- -- --  -- -- -- -- -- -- -- --
0010:                                         1E F0 FF               ...
0020: FF 7F 6F 70 5B 00 80 F8  FF FF 7F F8 FF FF 7F 74  ..op[..........t
0030: 6C 6B 30 1D 02 80 23 24  03 80 04 80 04 80 25 02  lk0...#$......%.
0040: 00 10 04 80 00 70 00 42  03 01 10 05 80 45 06 80  .....p.B.....E..
0050: F0 FF FF 7F F0 FF FF 7F  66 64 6F 31 04 80 55 06  ........fdo1..U.
0060: 80 F0 FF FF 7F F0 FF FF  7F 66 64 6F 31 01 80 00  .........fdo1...
0070: 02 00 10 05 80 00 80 00  03 01 10 07 80 01 80 00  ................
0080: 21 00                                             !.              
```

#### Opcodes

```
  0: 0x001D [0x1E] EventEntity looks at LocalPlayer and starts talking
  1: 0x0022 [0x6F] WAIT_FRAME_DELAY: Yield until WaitTime reaches zero
  2: 0x0023 [0x70] WAIT_ENTITY_RENDER_FLAG: Wait while EventEntity->Render.Flags3 bit 2 is set (cancel turn if not)
  3: 0x0024 [0x5B] LOAD_EXT_SCHEDULER: Load scheduler "tlk0" with entities [EventEntity, EventEntity], work=65*
  4: 0x0033 [0x1D] PRINT_EVENT_MESSAGE(message_id=10471*)
    → "You're about to board a ferry bound for the Yahse Hunting Grounds. This ain't some noble's backyard, though. Many a good man has died right off the boat there, so make sure you're prepared before you board."
  5: 0x0036 [0x23] WAIT_FOR_DIALOG_INTERACTION
  6: 0x0037 [0x24] CREATE_DIALOG(message_id=10472*, default_option=0*, option_flags=0*)
    → "Set sail for the Yahse Hunting Grounds? [Aye aye, Cap'n!/Let me test the waters more.]"
  7: 0x003E [0x25] WAIT_DIALOG_SELECT()
  8: 0x003F [0x02] IF !(Work_Zone[0] == 0*) GOTO 0x0070
  9: 0x0047 [0x42] SET_CLI_EVENT_CANCEL_DATA()
 10: 0x0048 [0x03] Work_Zone[1] = 1*
 11: 0x004D [0x45] LOAD_SCHEDULED_TASK: Load scheduler "fdo1" with entities [LocalPlayer, LocalPlayer], work=[200*, 0*]
 12: 0x005E [0x55] WAIT_LOAD_SCHEDULER: Wait for scheduler "fdo1" with entities [LocalPlayer, LocalPlayer], work=200*
 13: 0x006D [0x01] GOTO 0x0080
 14: 0x0070 [0x02] IF !(Work_Zone[0] == 1*) GOTO 0x0080
 15: 0x0078 [0x03] Work_Zone[1] = 2*
 16: 0x007D [0x01] GOTO 0x0080

SUBROUTINE_0080:
 17: 0x0080 [0x21] END_EVENT
 18: 0x0081 [0x00] END_REQSTACK()
```

### Event 2514

#### Metadata

| Field        | Value    |
|--------------|----------|
| Entrypoint   | 0x0082   |
| Data Size    | 37 bytes |
| Instructions | 13       |

```
      00 01 02 03 04 05 06 07  08 09 0A 0B 0C 0D 0E 0F
      -- -- -- -- -- -- -- --  -- -- -- -- -- -- -- --
0080:       1E F0 FF FF 7F 42  6F 70 5B 00 80 F8 FF FF    .....Bop[.....
0090: 7F F8 FF FF 7F 74 6C 6B  30 1D 08 80 23 1D 09 80  .....tlk0...#...
00A0: 23 1D 0A 80 23 21 00                              #...#!.         
```

#### Opcodes

```
  0: 0x0082 [0x1E] EventEntity looks at LocalPlayer and starts talking
  1: 0x0087 [0x42] SET_CLI_EVENT_CANCEL_DATA()
  2: 0x0088 [0x6F] WAIT_FRAME_DELAY: Yield until WaitTime reaches zero
  3: 0x0089 [0x70] WAIT_ENTITY_RENDER_FLAG: Wait while EventEntity->Render.Flags3 bit 2 is set (cancel turn if not)
  4: 0x008A [0x5B] LOAD_EXT_SCHEDULER: Load scheduler "tlk0" with entities [EventEntity, EventEntity], work=65*
  5: 0x0099 [0x1D] PRINT_EVENT_MESSAGE(message_id=7885*)
    → "Hey, whippersnapper, you preparin' for your trip to the Yahse Hunting Grounds?"
  6: 0x009C [0x23] WAIT_FOR_DIALOG_INTERACTION
  7: 0x009D [0x1D] PRINT_EVENT_MESSAGE(message_id=7886*)
    → ""Not today"? I can barely hear you! Oh ho, so you're checking things out here in Eastern Adoulin!"
  8: 0x00A0 [0x23] WAIT_FOR_DIALOG_INTERACTION
  9: 0x00A1 [0x1D] PRINT_EVENT_MESSAGE(message_id=7887*)
    → "Everythin' here's shipshape! Hohoho! Let me know if you ever want to head to Yahse!"
 10: 0x00A4 [0x23] WAIT_FOR_DIALOG_INTERACTION
 11: 0x00A5 [0x21] END_EVENT
 12: 0x00A6 [0x00] END_REQSTACK()
```
