# 17830132 - Behsa Alehgo

## Common Data

| Field            | Value                     |
|------------------|---------------------------|
| Zone             | Eastern Adoulin (ID: 257) |
| Block Size       | 812 bytes                 |
| Total Events     | 37                        |
| References Count | 17                        |

## List of Events

| Event ID                   | Entrypoint   |   Size |   Instructions |
|----------------------------|--------------|--------|----------------|
| [65535](#event-65535)      | 0x0000       |      1 |              1 |
| [65535.1](#event-655351)   | 0x0001       |     16 |              2 |
| [65535.2](#event-655352)   | 0x0011       |     14 |              2 |
| [65535.3](#event-655353)   | 0x001F       |     16 |              2 |
| [65535.4](#event-655354)   | 0x002F       |     14 |              2 |
| [65535.5](#event-655355)   | 0x003D       |     16 |              2 |
| [65535.6](#event-655356)   | 0x004D       |     14 |              2 |
| [65535.7](#event-655357)   | 0x005B       |     16 |              2 |
| [65535.8](#event-655358)   | 0x006B       |     14 |              2 |
| [65535.9](#event-655359)   | 0x0079       |     16 |              2 |
| [65535.10](#event-6553510) | 0x0089       |     14 |              2 |
| [65535.11](#event-6553511) | 0x0097       |     16 |              2 |
| [65535.12](#event-6553512) | 0x00A7       |     14 |              2 |
| [65535.13](#event-6553513) | 0x00B5       |     16 |              2 |
| [65535.14](#event-6553514) | 0x00C5       |     14 |              2 |
| [65535.15](#event-6553515) | 0x00D3       |     16 |              2 |
| [65535.16](#event-6553516) | 0x00E3       |     14 |              2 |
| [560](#event-560)          | 0x00F1       |     47 |             11 |
| [31](#event-31)            | 0x0120       |      7 |              2 |
| [32](#event-32)            | 0x0127       |      7 |              2 |
| [5054](#event-5054)        | 0x012E       |      7 |              2 |
| [5055](#event-5055)        | 0x0135       |      7 |              2 |
| [5057](#event-5057)        | 0x013C       |      1 |              1 |
| [5058](#event-5058)        | 0x013D       |     59 |              9 |
| [5061](#event-5061)        | 0x0178       |      1 |              1 |
| [1521](#event-1521)        | 0x0179       |      1 |              1 |
| [1523](#event-1523)        | 0x017A       |     51 |             13 |
| [5062](#event-5062)        | 0x01AD       |      1 |              1 |
| [5122](#event-5122)        | 0x01AE       |      1 |              1 |
| [5123](#event-5123)        | 0x01AF       |     29 |              7 |
| [5209](#event-5209)        | 0x01CC       |      1 |              1 |
| [5210](#event-5210)        | 0x01CD       |     33 |              9 |
| [5211](#event-5211)        | 0x01EE       |     74 |             10 |
| [5229](#event-5229)        | 0x0238       |      1 |              1 |
| [89](#event-89)            | 0x0239       |      1 |              1 |
| [92](#event-92)            | 0x023A       |      1 |              1 |
| [128](#event-128)          | 0x023B       |      7 |              2 |

## DAT References (imed_data)

|   Index | Hex Value   |   Dec Value |
|---------|-------------|-------------|
|       0 | 0x00C7      |         199 |
|       1 | 0x007F      |         127 |
|       2 | 0x003B      |          59 |
|       3 | 0x2926      |       10534 |
|       4 | 0x2927      |       10535 |
|       5 | 0x27FE      |       10238 |
|       6 | 0x00B3      |         179 |
|       7 | 0x27FF      |       10239 |
|       8 | 0x21AA      |        8618 |
|       9 | 0x21AB      |        8619 |
|      10 | 0x21B1      |        8625 |
|      11 | 0x001E      |          30 |
|      12 | 0x2830      |       10288 |
|      13 | 0x285E      |       10334 |
|      14 | 0x285D      |       10333 |
|      15 | 0x285F      |       10335 |
|      16 | 0x2860      |       10336 |

## String References

- **8618**: Our research suggests that the "stone wall touched by the light of dawn" has something to do with Adoulin's porrrt district.
- **8619**: Sailors and captains of our fair city have a custom of honorrring the morning sun, and as such many of our vessels contain the word "dawn" in their names.
- **8625**: We have also enlisted the aid of some scouts to help us investigate furrrther. Head first to the fountain to get the water, or find the stone in question.
- **10238**: I heard the Scouts' Coalition is wrrriting a piece on Robertioux.
- **10288**: Even though Rrrobertioux vanquished the immediate threat, Yorcia Weald is no place to let your guard down. Stay safe.
- **10333**: I'm a little worrried, actually. If you're headed back down there, would you mind checking in on her?
- **10334**: Erfimia's been cooped up in Celennia Memorial Library for days. I hope she's still eating.
- **10335**: A shame to hear that Robertioux turrrned down the title of high exorcist.
- **10534**: With the advancement of the colonization effort, people have begun reporting sightings of crrryptic fiends darker than the most ominous shadow and often said to be harrrbingers of disaster.
- **10535**: These crrreatures, named umbrils, may just be the entities that the exorcists have been trrraining to combat all these years. At least that's what Vortimere tells us.

## Events

### Event 65535

#### Metadata

| Field        | Value   |
|--------------|---------|
| Entrypoint   | 0x0000  |
| Data Size    | 1 bytes |
| Instructions | 1       |

```
      00 01 02 03 04 05 06 07  08 09 0A 0B 0C 0D 0E 0F
      -- -- -- -- -- -- -- --  -- -- -- -- -- -- -- --
0000: 00                                                .               
```

#### Opcodes

```
  0: 0x0000 [0x00] END_REQSTACK()
```

### Event 65535.1

#### Metadata

| Field        | Value    |
|--------------|----------|
| Entrypoint   | 0x0001   |
| Data Size    | 16 bytes |
| Instructions | 2        |

```
      00 01 02 03 04 05 06 07  08 09 0A 0B 0C 0D 0E 0F
      -- -- -- -- -- -- -- --  -- -- -- -- -- -- -- --
0000:    66 00 80 F8 FF FF 7F  F8 FF FF 7F 74 6C 6B 30   f..........tlk0
0010: 00                                                .               
```

#### Opcodes

```
  0: 0x0001 [0x66] LOAD_EXT_SCHEDULER_MAIN: Load scheduler "tlk0" with entities [EventEntity, EventEntity], work=199*
  1: 0x0010 [0x00] END_REQSTACK()
```

### Event 65535.2

#### Metadata

| Field        | Value    |
|--------------|----------|
| Entrypoint   | 0x0011   |
| Data Size    | 14 bytes |
| Instructions | 2        |

```
      00 01 02 03 04 05 06 07  08 09 0A 0B 0C 0D 0E 0F
      -- -- -- -- -- -- -- --  -- -- -- -- -- -- -- --
0010:    53 F8 FF FF 7F F8 FF  FF 7F 74 6C 6B 30 00      S........tlk0. 
```

#### Opcodes

```
  0: 0x0011 [0x53] WAIT_SCHEDULER_TASK: Wait for scheduler "tlk0" with entities [EventEntity, EventEntity]
  1: 0x001E [0x00] END_REQSTACK()
```

### Event 65535.3

#### Metadata

| Field        | Value    |
|--------------|----------|
| Entrypoint   | 0x001F   |
| Data Size    | 16 bytes |
| Instructions | 2        |

```
      00 01 02 03 04 05 06 07  08 09 0A 0B 0C 0D 0E 0F
      -- -- -- -- -- -- -- --  -- -- -- -- -- -- -- --
0010:                                               66                 f
0020: 00 80 F8 FF FF 7F F8 FF  FF 7F 74 6C 6B 31 00     ..........tlk1. 
```

#### Opcodes

```
  0: 0x001F [0x66] LOAD_EXT_SCHEDULER_MAIN: Load scheduler "tlk1" with entities [EventEntity, EventEntity], work=199*
  1: 0x002E [0x00] END_REQSTACK()
```

### Event 65535.4

#### Metadata

| Field        | Value    |
|--------------|----------|
| Entrypoint   | 0x002F   |
| Data Size    | 14 bytes |
| Instructions | 2        |

```
      00 01 02 03 04 05 06 07  08 09 0A 0B 0C 0D 0E 0F
      -- -- -- -- -- -- -- --  -- -- -- -- -- -- -- --
0020:                                               53                 S
0030: F8 FF FF 7F F8 FF FF 7F  74 6C 6B 31 00           ........tlk1.   
```

#### Opcodes

```
  0: 0x002F [0x53] WAIT_SCHEDULER_TASK: Wait for scheduler "tlk1" with entities [EventEntity, EventEntity]
  1: 0x003C [0x00] END_REQSTACK()
```

### Event 65535.5

#### Metadata

| Field        | Value    |
|--------------|----------|
| Entrypoint   | 0x003D   |
| Data Size    | 16 bytes |
| Instructions | 2        |

```
      00 01 02 03 04 05 06 07  08 09 0A 0B 0C 0D 0E 0F
      -- -- -- -- -- -- -- --  -- -- -- -- -- -- -- --
0030:                                         66 01 80               f..
0040: F8 FF FF 7F F8 FF FF 7F  70 61 73 30 00           ........pas0.   
```

#### Opcodes

```
  0: 0x003D [0x66] LOAD_EXT_SCHEDULER_MAIN: Load scheduler "pas0" with entities [EventEntity, EventEntity], work=127*
  1: 0x004C [0x00] END_REQSTACK()
```

### Event 65535.6

#### Metadata

| Field        | Value    |
|--------------|----------|
| Entrypoint   | 0x004D   |
| Data Size    | 14 bytes |
| Instructions | 2        |

```
      00 01 02 03 04 05 06 07  08 09 0A 0B 0C 0D 0E 0F
      -- -- -- -- -- -- -- --  -- -- -- -- -- -- -- --
0040:                                         53 F8 FF               S..
0050: FF 7F F8 FF FF 7F 70 61  73 30 00                 ......pas0.     
```

#### Opcodes

```
  0: 0x004D [0x53] WAIT_SCHEDULER_TASK: Wait for scheduler "pas0" with entities [EventEntity, EventEntity]
  1: 0x005A [0x00] END_REQSTACK()
```

### Event 65535.7

#### Metadata

| Field        | Value    |
|--------------|----------|
| Entrypoint   | 0x005B   |
| Data Size    | 16 bytes |
| Instructions | 2        |

```
      00 01 02 03 04 05 06 07  08 09 0A 0B 0C 0D 0E 0F
      -- -- -- -- -- -- -- --  -- -- -- -- -- -- -- --
0050:                                   66 01 80 F8 FF             f....
0060: FF 7F F8 FF FF 7F 73 69  6E 62 00                 ......sinb.     
```

#### Opcodes

```
  0: 0x005B [0x66] LOAD_EXT_SCHEDULER_MAIN: Load scheduler "sinb" with entities [EventEntity, EventEntity], work=127*
  1: 0x006A [0x00] END_REQSTACK()
```

### Event 65535.8

#### Metadata

| Field        | Value    |
|--------------|----------|
| Entrypoint   | 0x006B   |
| Data Size    | 14 bytes |
| Instructions | 2        |

```
      00 01 02 03 04 05 06 07  08 09 0A 0B 0C 0D 0E 0F
      -- -- -- -- -- -- -- --  -- -- -- -- -- -- -- --
0060:                                   53 F8 FF FF 7F             S....
0070: F8 FF FF 7F 73 69 6E 62  00                       ....sinb.       
```

#### Opcodes

```
  0: 0x006B [0x53] WAIT_SCHEDULER_TASK: Wait for scheduler "sinb" with entities [EventEntity, EventEntity]
  1: 0x0078 [0x00] END_REQSTACK()
```

### Event 65535.9

#### Metadata

| Field        | Value    |
|--------------|----------|
| Entrypoint   | 0x0079   |
| Data Size    | 16 bytes |
| Instructions | 2        |

```
      00 01 02 03 04 05 06 07  08 09 0A 0B 0C 0D 0E 0F
      -- -- -- -- -- -- -- --  -- -- -- -- -- -- -- --
0070:                             66 02 80 F8 FF FF 7F           f......
0080: F8 FF FF 7F 74 6C 6B 30  00                       ....tlk0.       
```

#### Opcodes

```
  0: 0x0079 [0x66] LOAD_EXT_SCHEDULER_MAIN: Load scheduler "tlk0" with entities [EventEntity, EventEntity], work=59*
  1: 0x0088 [0x00] END_REQSTACK()
```

### Event 65535.10

#### Metadata

| Field        | Value    |
|--------------|----------|
| Entrypoint   | 0x0089   |
| Data Size    | 14 bytes |
| Instructions | 2        |

```
      00 01 02 03 04 05 06 07  08 09 0A 0B 0C 0D 0E 0F
      -- -- -- -- -- -- -- --  -- -- -- -- -- -- -- --
0080:                             53 F8 FF FF 7F F8 FF           S......
0090: FF 7F 74 6C 6B 30 00                              ..tlk0.         
```

#### Opcodes

```
  0: 0x0089 [0x53] WAIT_SCHEDULER_TASK: Wait for scheduler "tlk0" with entities [EventEntity, EventEntity]
  1: 0x0096 [0x00] END_REQSTACK()
```

### Event 65535.11

#### Metadata

| Field        | Value    |
|--------------|----------|
| Entrypoint   | 0x0097   |
| Data Size    | 16 bytes |
| Instructions | 2        |

```
      00 01 02 03 04 05 06 07  08 09 0A 0B 0C 0D 0E 0F
      -- -- -- -- -- -- -- --  -- -- -- -- -- -- -- --
0090:                      66  02 80 F8 FF FF 7F F8 FF         f........
00A0: FF 7F 74 6C 6B 31 00                              ..tlk1.         
```

#### Opcodes

```
  0: 0x0097 [0x66] LOAD_EXT_SCHEDULER_MAIN: Load scheduler "tlk1" with entities [EventEntity, EventEntity], work=59*
  1: 0x00A6 [0x00] END_REQSTACK()
```

### Event 65535.12

#### Metadata

| Field        | Value    |
|--------------|----------|
| Entrypoint   | 0x00A7   |
| Data Size    | 14 bytes |
| Instructions | 2        |

```
      00 01 02 03 04 05 06 07  08 09 0A 0B 0C 0D 0E 0F
      -- -- -- -- -- -- -- --  -- -- -- -- -- -- -- --
00A0:                      53  F8 FF FF 7F F8 FF FF 7F         S........
00B0: 74 6C 6B 31 00                                    tlk1.           
```

#### Opcodes

```
  0: 0x00A7 [0x53] WAIT_SCHEDULER_TASK: Wait for scheduler "tlk1" with entities [EventEntity, EventEntity]
  1: 0x00B4 [0x00] END_REQSTACK()
```

### Event 65535.13

#### Metadata

| Field        | Value    |
|--------------|----------|
| Entrypoint   | 0x00B5   |
| Data Size    | 16 bytes |
| Instructions | 2        |

```
      00 01 02 03 04 05 06 07  08 09 0A 0B 0C 0D 0E 0F
      -- -- -- -- -- -- -- --  -- -- -- -- -- -- -- --
00B0:                66 02 80  F8 FF FF 7F F8 FF FF 7F       f..........
00C0: 74 68 6B 31 00                                    thk1.           
```

#### Opcodes

```
  0: 0x00B5 [0x66] LOAD_EXT_SCHEDULER_MAIN: Load scheduler "thk1" with entities [EventEntity, EventEntity], work=59*
  1: 0x00C4 [0x00] END_REQSTACK()
```

### Event 65535.14

#### Metadata

| Field        | Value    |
|--------------|----------|
| Entrypoint   | 0x00C5   |
| Data Size    | 14 bytes |
| Instructions | 2        |

```
      00 01 02 03 04 05 06 07  08 09 0A 0B 0C 0D 0E 0F
      -- -- -- -- -- -- -- --  -- -- -- -- -- -- -- --
00C0:                53 F8 FF  FF 7F F8 FF FF 7F 74 68       S........th
00D0: 6B 31 00                                          k1.             
```

#### Opcodes

```
  0: 0x00C5 [0x53] WAIT_SCHEDULER_TASK: Wait for scheduler "thk1" with entities [EventEntity, EventEntity]
  1: 0x00D2 [0x00] END_REQSTACK()
```

### Event 65535.15

#### Metadata

| Field        | Value    |
|--------------|----------|
| Entrypoint   | 0x00D3   |
| Data Size    | 16 bytes |
| Instructions | 2        |

```
      00 01 02 03 04 05 06 07  08 09 0A 0B 0C 0D 0E 0F
      -- -- -- -- -- -- -- --  -- -- -- -- -- -- -- --
00D0:          66 02 80 F8 FF  FF 7F F8 FF FF 7F 74 68     f..........th
00E0: 6B 32 00                                          k2.             
```

#### Opcodes

```
  0: 0x00D3 [0x66] LOAD_EXT_SCHEDULER_MAIN: Load scheduler "thk2" with entities [EventEntity, EventEntity], work=59*
  1: 0x00E2 [0x00] END_REQSTACK()
```

### Event 65535.16

#### Metadata

| Field        | Value    |
|--------------|----------|
| Entrypoint   | 0x00E3   |
| Data Size    | 14 bytes |
| Instructions | 2        |

```
      00 01 02 03 04 05 06 07  08 09 0A 0B 0C 0D 0E 0F
      -- -- -- -- -- -- -- --  -- -- -- -- -- -- -- --
00E0:          53 F8 FF FF 7F  F8 FF FF 7F 74 68 6B 32     S........thk2
00F0: 00                                                .               
```

#### Opcodes

```
  0: 0x00E3 [0x53] WAIT_SCHEDULER_TASK: Wait for scheduler "thk2" with entities [EventEntity, EventEntity]
  1: 0x00F0 [0x00] END_REQSTACK()
```

### Event 560

#### Metadata

| Field        | Value    |
|--------------|----------|
| Entrypoint   | 0x00F1   |
| Data Size    | 47 bytes |
| Instructions | 11       |

```
      00 01 02 03 04 05 06 07  08 09 0A 0B 0C 0D 0E 0F
      -- -- -- -- -- -- -- --  -- -- -- -- -- -- -- --
00F0:    1E F0 FF FF 7F 6F 70  66 00 80 F8 FF FF 7F F8   .....opf.......
0100: FF FF 7F 74 6C 6B 30 1D  03 80 23 66 00 80 F8 FF  ...tlk0...#f....
0110: FF 7F F8 FF FF 7F 74 6C  6B 31 1D 04 80 23 21 00  ......tlk1...#!.
```

#### Opcodes

```
  0: 0x00F1 [0x1E] EventEntity looks at LocalPlayer and starts talking
  1: 0x00F6 [0x6F] WAIT_FRAME_DELAY: Yield until WaitTime reaches zero
  2: 0x00F7 [0x70] WAIT_ENTITY_RENDER_FLAG: Wait while EventEntity->Render.Flags3 bit 2 is set (cancel turn if not)
  3: 0x00F8 [0x66] LOAD_EXT_SCHEDULER_MAIN: Load scheduler "tlk0" with entities [EventEntity, EventEntity], work=199*
  4: 0x0107 [0x1D] PRINT_EVENT_MESSAGE(message_id=10534*)
    → "With the advancement of the colonization effort, people have begun reporting sightings of crrryptic fiends darker than the most ominous shadow and often said to be harrrbingers of disaster."
  5: 0x010A [0x23] WAIT_FOR_DIALOG_INTERACTION
  6: 0x010B [0x66] LOAD_EXT_SCHEDULER_MAIN: Load scheduler "tlk1" with entities [EventEntity, EventEntity], work=199*
  7: 0x011A [0x1D] PRINT_EVENT_MESSAGE(message_id=10535*)
    → "These crrreatures, named umbrils, may just be the entities that the exorcists have been trrraining to combat all these years. At least that's what Vortimere tells us."
  8: 0x011D [0x23] WAIT_FOR_DIALOG_INTERACTION
  9: 0x011E [0x21] END_EVENT
 10: 0x011F [0x00] END_REQSTACK()
```

### Event 31

#### Metadata

| Field        | Value   |
|--------------|---------|
| Entrypoint   | 0x0120  |
| Data Size    | 7 bytes |
| Instructions | 2       |

```
      00 01 02 03 04 05 06 07  08 09 0A 0B 0C 0D 0E 0F
      -- -- -- -- -- -- -- --  -- -- -- -- -- -- -- --
0120: 92 01 F8 FF FF 7F 00                              .......         
```

#### Opcodes

```
  0: 0x0120 [0x92] EventEntity->Render.Flags3 ^= 0x01
  1: 0x0126 [0x00] END_REQSTACK()
```

### Event 32

#### Metadata

| Field        | Value   |
|--------------|---------|
| Entrypoint   | 0x0127  |
| Data Size    | 7 bytes |
| Instructions | 2       |

```
      00 01 02 03 04 05 06 07  08 09 0A 0B 0C 0D 0E 0F
      -- -- -- -- -- -- -- --  -- -- -- -- -- -- -- --
0120:                      92  01 F8 FF FF 7F 00               .......  
```

#### Opcodes

```
  0: 0x0127 [0x92] EventEntity->Render.Flags3 ^= 0x01
  1: 0x012D [0x00] END_REQSTACK()
```

### Event 5054

#### Metadata

| Field        | Value   |
|--------------|---------|
| Entrypoint   | 0x012E  |
| Data Size    | 7 bytes |
| Instructions | 2       |

```
      00 01 02 03 04 05 06 07  08 09 0A 0B 0C 0D 0E 0F
      -- -- -- -- -- -- -- --  -- -- -- -- -- -- -- --
0120:                                            92 01                ..
0130: F8 FF FF 7F 00                                    .....           
```

#### Opcodes

```
  0: 0x012E [0x92] EventEntity->Render.Flags3 ^= 0x01
  1: 0x0134 [0x00] END_REQSTACK()
```

### Event 5055

#### Metadata

| Field        | Value   |
|--------------|---------|
| Entrypoint   | 0x0135  |
| Data Size    | 7 bytes |
| Instructions | 2       |

```
      00 01 02 03 04 05 06 07  08 09 0A 0B 0C 0D 0E 0F
      -- -- -- -- -- -- -- --  -- -- -- -- -- -- -- --
0130:                92 01 F8  FF FF 7F 00                   .......    
```

#### Opcodes

```
  0: 0x0135 [0x92] EventEntity->Render.Flags3 ^= 0x01
  1: 0x013B [0x00] END_REQSTACK()
```

### Event 5057

#### Metadata

| Field        | Value   |
|--------------|---------|
| Entrypoint   | 0x013C  |
| Data Size    | 1 bytes |
| Instructions | 1       |

```
      00 01 02 03 04 05 06 07  08 09 0A 0B 0C 0D 0E 0F
      -- -- -- -- -- -- -- --  -- -- -- -- -- -- -- --
0130:                                      00                       .   
```

#### Opcodes

```
  0: 0x013C [0x00] END_REQSTACK()
```

### Event 5058

#### Metadata

| Field        | Value    |
|--------------|----------|
| Entrypoint   | 0x013D   |
| Data Size    | 59 bytes |
| Instructions | 9        |

```
      00 01 02 03 04 05 06 07  08 09 0A 0B 0C 0D 0E 0F
      -- -- -- -- -- -- -- --  -- -- -- -- -- -- -- --
0130:                                         66 00 80               f..
0140: F8 FF FF 7F F8 FF FF 7F  74 6C 6B 30 1D 05 80 23  ........tlk0...#
0150: 66 00 80 F8 FF FF 7F F8  FF FF 7F 74 6C 6B 31 66  f..........tlk1f
0160: 06 80 F5 10 10 01 F5 10  10 01 74 6C 6B 30 2B F2  ..........tlk0+.
0170: 10 10 01 07 80 23 21 00                           .....#!.        
```

#### Opcodes

```
  0: 0x013D [0x66] LOAD_EXT_SCHEDULER_MAIN: Load scheduler "tlk0" with entities [EventEntity, EventEntity], work=199*
  1: 0x014C [0x1D] PRINT_EVENT_MESSAGE(message_id=10238*)
    → "I heard the Scouts' Coalition is wrrriting a piece on Robertioux."
  2: 0x014F [0x23] WAIT_FOR_DIALOG_INTERACTION
  3: 0x0150 [0x66] LOAD_EXT_SCHEDULER_MAIN: Load scheduler "tlk1" with entities [EventEntity, EventEntity], work=199*
  4: 0x015F [0x66] LOAD_EXT_SCHEDULER_MAIN: Load scheduler "tlk0" with entities [Adelise (ID: 17830133/0x011010F5), Adelise (ID: 17830133/0x011010F5)], work=179*
  5: 0x016E [0x2B] Rigobertine (ID: 17830130/0x011010F2) [10239*]:
    → "That is simply wonderful! I cannot recall the last time that one of us Weatherspoon members was featured in any publication."
  6: 0x0175 [0x23] WAIT_FOR_DIALOG_INTERACTION
  7: 0x0176 [0x21] END_EVENT
  8: 0x0177 [0x00] END_REQSTACK()
```

### Event 5061

#### Metadata

| Field        | Value   |
|--------------|---------|
| Entrypoint   | 0x0178  |
| Data Size    | 1 bytes |
| Instructions | 1       |

```
      00 01 02 03 04 05 06 07  08 09 0A 0B 0C 0D 0E 0F
      -- -- -- -- -- -- -- --  -- -- -- -- -- -- -- --
0170:                          00                               .       
```

#### Opcodes

```
  0: 0x0178 [0x00] END_REQSTACK()
```

### Event 1521

#### Metadata

| Field        | Value   |
|--------------|---------|
| Entrypoint   | 0x0179  |
| Data Size    | 1 bytes |
| Instructions | 1       |

```
      00 01 02 03 04 05 06 07  08 09 0A 0B 0C 0D 0E 0F
      -- -- -- -- -- -- -- --  -- -- -- -- -- -- -- --
0170:                             00                             .      
```

#### Opcodes

```
  0: 0x0179 [0x00] END_REQSTACK()
```

### Event 1523

#### Metadata

| Field        | Value    |
|--------------|----------|
| Entrypoint   | 0x017A   |
| Data Size    | 51 bytes |
| Instructions | 13       |

```
      00 01 02 03 04 05 06 07  08 09 0A 0B 0C 0D 0E 0F
      -- -- -- -- -- -- -- --  -- -- -- -- -- -- -- --
0170:                                1E F0 FF FF 7F 6F            .....o
0180: 70 66 00 80 F8 FF FF 7F  F8 FF FF 7F 74 6C 6B 30  pf..........tlk0
0190: 1D 08 80 23 1D 09 80 23  1D 0A 80 23 66 00 80 F8  ...#...#...#f...
01A0: FF FF 7F F8 FF FF 7F 74  6C 6B 31 21 00           .......tlk1!.   
```

#### Opcodes

```
  0: 0x017A [0x1E] EventEntity looks at LocalPlayer and starts talking
  1: 0x017F [0x6F] WAIT_FRAME_DELAY: Yield until WaitTime reaches zero
  2: 0x0180 [0x70] WAIT_ENTITY_RENDER_FLAG: Wait while EventEntity->Render.Flags3 bit 2 is set (cancel turn if not)
  3: 0x0181 [0x66] LOAD_EXT_SCHEDULER_MAIN: Load scheduler "tlk0" with entities [EventEntity, EventEntity], work=199*
  4: 0x0190 [0x1D] PRINT_EVENT_MESSAGE(message_id=8618*)
    → "Our research suggests that the "stone wall touched by the light of dawn" has something to do with Adoulin's porrrt district."
  5: 0x0193 [0x23] WAIT_FOR_DIALOG_INTERACTION
  6: 0x0194 [0x1D] PRINT_EVENT_MESSAGE(message_id=8619*)
    → "Sailors and captains of our fair city have a custom of honorrring the morning sun, and as such many of our vessels contain the word "dawn" in their names."
  7: 0x0197 [0x23] WAIT_FOR_DIALOG_INTERACTION
  8: 0x0198 [0x1D] PRINT_EVENT_MESSAGE(message_id=8625*)
    → "We have also enlisted the aid of some scouts to help us investigate furrrther. Head first to the fountain to get the water, or find the stone in question."
  9: 0x019B [0x23] WAIT_FOR_DIALOG_INTERACTION
 10: 0x019C [0x66] LOAD_EXT_SCHEDULER_MAIN: Load scheduler "tlk1" with entities [EventEntity, EventEntity], work=199*
 11: 0x01AB [0x21] END_EVENT
 12: 0x01AC [0x00] END_REQSTACK()
```

### Event 5062

#### Metadata

| Field        | Value   |
|--------------|---------|
| Entrypoint   | 0x01AD  |
| Data Size    | 1 bytes |
| Instructions | 1       |

```
      00 01 02 03 04 05 06 07  08 09 0A 0B 0C 0D 0E 0F
      -- -- -- -- -- -- -- --  -- -- -- -- -- -- -- --
01A0:                                         00                     .  
```

#### Opcodes

```
  0: 0x01AD [0x00] END_REQSTACK()
```

### Event 5122

#### Metadata

| Field        | Value   |
|--------------|---------|
| Entrypoint   | 0x01AE  |
| Data Size    | 1 bytes |
| Instructions | 1       |

```
      00 01 02 03 04 05 06 07  08 09 0A 0B 0C 0D 0E 0F
      -- -- -- -- -- -- -- --  -- -- -- -- -- -- -- --
01A0:                                            00                   . 
```

#### Opcodes

```
  0: 0x01AE [0x00] END_REQSTACK()
```

### Event 5123

#### Metadata

| Field        | Value    |
|--------------|----------|
| Entrypoint   | 0x01AF   |
| Data Size    | 29 bytes |
| Instructions | 7        |

```
      00 01 02 03 04 05 06 07  08 09 0A 0B 0C 0D 0E 0F
      -- -- -- -- -- -- -- --  -- -- -- -- -- -- -- --
01A0:                                               1E                 .
01B0: F0 FF FF 7F 1C 0B 80 66  00 80 F8 FF FF 7F F8 FF  .......f........
01C0: FF 7F 74 6C 6B 30 1D 0C  80 23 21 00              ..tlk0...#!.    
```

#### Opcodes

```
  0: 0x01AF [0x1E] EventEntity looks at LocalPlayer and starts talking
  1: 0x01B4 [0x1C] WAIT(30* ticks)
  2: 0x01B7 [0x66] LOAD_EXT_SCHEDULER_MAIN: Load scheduler "tlk0" with entities [EventEntity, EventEntity], work=199*
  3: 0x01C6 [0x1D] PRINT_EVENT_MESSAGE(message_id=10288*)
    → "Even though Rrrobertioux vanquished the immediate threat, Yorcia Weald is no place to let your guard down. Stay safe."
  4: 0x01C9 [0x23] WAIT_FOR_DIALOG_INTERACTION
  5: 0x01CA [0x21] END_EVENT
  6: 0x01CB [0x00] END_REQSTACK()
```

### Event 5209

#### Metadata

| Field        | Value   |
|--------------|---------|
| Entrypoint   | 0x01CC  |
| Data Size    | 1 bytes |
| Instructions | 1       |

```
      00 01 02 03 04 05 06 07  08 09 0A 0B 0C 0D 0E 0F
      -- -- -- -- -- -- -- --  -- -- -- -- -- -- -- --
01C0:                                      00                       .   
```

#### Opcodes

```
  0: 0x01CC [0x00] END_REQSTACK()
```

### Event 5210

#### Metadata

| Field        | Value    |
|--------------|----------|
| Entrypoint   | 0x01CD   |
| Data Size    | 33 bytes |
| Instructions | 9        |

```
      00 01 02 03 04 05 06 07  08 09 0A 0B 0C 0D 0E 0F
      -- -- -- -- -- -- -- --  -- -- -- -- -- -- -- --
01C0:                                         1E F0 FF               ...
01D0: FF 7F 1C 0B 80 66 00 80  F8 FF FF 7F F8 FF FF 7F  .....f..........
01E0: 74 6C 6B 30 1D 0D 80 23  1D 0E 80 23 21 00        tlk0...#...#!.  
```

#### Opcodes

```
  0: 0x01CD [0x1E] EventEntity looks at LocalPlayer and starts talking
  1: 0x01D2 [0x1C] WAIT(30* ticks)
  2: 0x01D5 [0x66] LOAD_EXT_SCHEDULER_MAIN: Load scheduler "tlk0" with entities [EventEntity, EventEntity], work=199*
  3: 0x01E4 [0x1D] PRINT_EVENT_MESSAGE(message_id=10334*)
    → "Erfimia's been cooped up in Celennia Memorial Library for days. I hope she's still eating."
  4: 0x01E7 [0x23] WAIT_FOR_DIALOG_INTERACTION
  5: 0x01E8 [0x1D] PRINT_EVENT_MESSAGE(message_id=10333*)
    → "I'm a little worrried, actually. If you're headed back down there, would you mind checking in on her?"
  6: 0x01EB [0x23] WAIT_FOR_DIALOG_INTERACTION
  7: 0x01EC [0x21] END_EVENT
  8: 0x01ED [0x00] END_REQSTACK()
```

### Event 5211

#### Metadata

| Field        | Value    |
|--------------|----------|
| Entrypoint   | 0x01EE   |
| Data Size    | 74 bytes |
| Instructions | 10       |

```
      00 01 02 03 04 05 06 07  08 09 0A 0B 0C 0D 0E 0F
      -- -- -- -- -- -- -- --  -- -- -- -- -- -- -- --
01E0:                                            66 00                f.
01F0: 80 F8 FF FF 7F F8 FF FF  7F 74 6C 6B 30 1D 0F 80  .........tlk0...
0200: 23 66 00 80 F8 FF FF 7F  F8 FF FF 7F 74 6C 6B 31  #f..........tlk1
0210: 66 0B 80 F2 10 10 01 F2  10 10 01 74 6C 6B 30 2B  f..........tlk0+
0220: F2 10 10 01 10 80 23 66  0B 80 F2 10 10 01 F2 10  ......#f........
0230: 10 01 74 6C 6B 31 21 00                           ..tlk1!.        
```

#### Opcodes

```
  0: 0x01EE [0x66] LOAD_EXT_SCHEDULER_MAIN: Load scheduler "tlk0" with entities [EventEntity, EventEntity], work=199*
  1: 0x01FD [0x1D] PRINT_EVENT_MESSAGE(message_id=10335*)
    → "A shame to hear that Robertioux turrrned down the title of high exorcist."
  2: 0x0200 [0x23] WAIT_FOR_DIALOG_INTERACTION
  3: 0x0201 [0x66] LOAD_EXT_SCHEDULER_MAIN: Load scheduler "tlk1" with entities [EventEntity, EventEntity], work=199*
  4: 0x0210 [0x66] LOAD_EXT_SCHEDULER_MAIN: Load scheduler "tlk0" with entities [Rigobertine (ID: 17830130/0x011010F2), Rigobertine (ID: 17830130/0x011010F2)], work=30*
  5: 0x021F [0x2B] Rigobertine (ID: 17830130/0x011010F2) [10336*]:
    → "What a waste. I would have accepted in the blink of an eye."
  6: 0x0226 [0x23] WAIT_FOR_DIALOG_INTERACTION
  7: 0x0227 [0x66] LOAD_EXT_SCHEDULER_MAIN: Load scheduler "tlk1" with entities [Rigobertine (ID: 17830130/0x011010F2), Rigobertine (ID: 17830130/0x011010F2)], work=30*
  8: 0x0236 [0x21] END_EVENT
  9: 0x0237 [0x00] END_REQSTACK()
```

### Event 5229

#### Metadata

| Field        | Value   |
|--------------|---------|
| Entrypoint   | 0x0238  |
| Data Size    | 1 bytes |
| Instructions | 1       |

```
      00 01 02 03 04 05 06 07  08 09 0A 0B 0C 0D 0E 0F
      -- -- -- -- -- -- -- --  -- -- -- -- -- -- -- --
0230:                          00                               .       
```

#### Opcodes

```
  0: 0x0238 [0x00] END_REQSTACK()
```

### Event 89

#### Metadata

| Field        | Value   |
|--------------|---------|
| Entrypoint   | 0x0239  |
| Data Size    | 1 bytes |
| Instructions | 1       |

```
      00 01 02 03 04 05 06 07  08 09 0A 0B 0C 0D 0E 0F
      -- -- -- -- -- -- -- --  -- -- -- -- -- -- -- --
0230:                             00                             .      
```

#### Opcodes

```
  0: 0x0239 [0x00] END_REQSTACK()
```

### Event 92

#### Metadata

| Field        | Value   |
|--------------|---------|
| Entrypoint   | 0x023A  |
| Data Size    | 1 bytes |
| Instructions | 1       |

```
      00 01 02 03 04 05 06 07  08 09 0A 0B 0C 0D 0E 0F
      -- -- -- -- -- -- -- --  -- -- -- -- -- -- -- --
0230:                                00                           .     
```

#### Opcodes

```
  0: 0x023A [0x00] END_REQSTACK()
```

### Event 128

#### Metadata

| Field        | Value   |
|--------------|---------|
| Entrypoint   | 0x023B  |
| Data Size    | 7 bytes |
| Instructions | 2       |

```
      00 01 02 03 04 05 06 07  08 09 0A 0B 0C 0D 0E 0F
      -- -- -- -- -- -- -- --  -- -- -- -- -- -- -- --
0230:                                   92 01 F8 FF FF             .....
0240: 7F 00                                             ..              
```

#### Opcodes

```
  0: 0x023B [0x92] EventEntity->Render.Flags3 ^= 0x01
  1: 0x0241 [0x00] END_REQSTACK()
```
