# 17830055

## Common Data

| Field            | Value                     |
|------------------|---------------------------|
| Zone             | Eastern Adoulin (ID: 257) |
| Block Size       | 1936 bytes                |
| Total Events     | 70                        |
| References Count | 80                        |

## List of Events

| Event ID                   | Entrypoint   |   Size |   Instructions |
|----------------------------|--------------|--------|----------------|
| [65535](#event-65535)      | 0x0000       |      1 |              1 |
| [1511](#event-1511)        | 0x0001       |     21 |              2 |
| [65535.1](#event-655351)   | 0x0016       |     21 |              2 |
| [1549](#event-1549)        | 0x002B       |     45 |              4 |
| [65535.2](#event-655352)   | 0x0058       |     25 |              3 |
| [65535.3](#event-655353)   | 0x0071       |     14 |              4 |
| [65535.4](#event-655354)   | 0x007F       |     22 |              6 |
| [65535.5](#event-655355)   | 0x0095       |     16 |              2 |
| [65535.6](#event-655356)   | 0x00A5       |     14 |              2 |
| [65535.7](#event-655357)   | 0x00B3       |     16 |              2 |
| [65535.8](#event-655358)   | 0x00C3       |     14 |              2 |
| [65535.9](#event-655359)   | 0x00D1       |     16 |              2 |
| [65535.10](#event-6553510) | 0x00E1       |     14 |              2 |
| [65535.11](#event-6553511) | 0x00EF       |     16 |              2 |
| [65535.12](#event-6553512) | 0x00FF       |     14 |              2 |
| [65535.13](#event-6553513) | 0x010D       |     16 |              2 |
| [65535.14](#event-6553514) | 0x011D       |     14 |              2 |
| [65535.15](#event-6553515) | 0x012B       |     16 |              2 |
| [65535.16](#event-6553516) | 0x013B       |     14 |              2 |
| [65535.17](#event-6553517) | 0x0149       |     16 |              2 |
| [65535.18](#event-6553518) | 0x0159       |     14 |              2 |
| [65535.19](#event-6553519) | 0x0167       |     16 |              2 |
| [65535.20](#event-6553520) | 0x0177       |     14 |              2 |
| [65535.21](#event-6553521) | 0x0185       |     16 |              2 |
| [65535.22](#event-6553522) | 0x0195       |     14 |              2 |
| [65535.23](#event-6553523) | 0x01A3       |     16 |              4 |
| [65535.24](#event-6553524) | 0x01B3       |     16 |              4 |
| [65535.25](#event-6553525) | 0x01C3       |     16 |              4 |
| [65535.26](#event-6553526) | 0x01D3       |     16 |              4 |
| [65535.27](#event-6553527) | 0x01E3       |     16 |              4 |
| [65535.28](#event-6553528) | 0x01F3       |     16 |              4 |
| [65535.29](#event-6553529) | 0x0203       |     16 |              4 |
| [65535.30](#event-6553530) | 0x0213       |     16 |              4 |
| [65535.31](#event-6553531) | 0x0223       |     16 |              4 |
| [65535.32](#event-6553532) | 0x0233       |     16 |              4 |
| [65535.33](#event-6553533) | 0x0243       |      9 |              3 |
| [89](#event-89)            | 0x024C       |      1 |              1 |
| [65535.34](#event-6553534) | 0x024D       |     45 |              4 |
| [65535.35](#event-6553535) | 0x027A       |     25 |              3 |
| [65535.36](#event-6553536) | 0x0293       |     22 |              3 |
| [90](#event-90)            | 0x02A9       |      1 |              1 |
| [65535.37](#event-6553537) | 0x02AA       |     45 |              4 |
| [65535.38](#event-6553538) | 0x02D7       |     24 |              3 |
| [65535.39](#event-6553539) | 0x02EF       |     14 |              4 |
| [65535.40](#event-6553540) | 0x02FD       |     24 |              6 |
| [65535.41](#event-6553541) | 0x0315       |     34 |              8 |
| [91](#event-91)            | 0x0337       |      1 |              1 |
| [65535.42](#event-6553542) | 0x0338       |     30 |              3 |
| [92](#event-92)            | 0x0356       |      1 |              1 |
| [65535.43](#event-6553543) | 0x0357       |     14 |              4 |
| [65535.44](#event-6553544) | 0x0365       |     14 |              4 |
| [65535.45](#event-6553545) | 0x0373       |     14 |              4 |
| [110](#event-110)          | 0x0381       |     51 |              5 |
| [111](#event-111)          | 0x03B4       |     51 |              5 |
| [112](#event-112)          | 0x03E7       |     51 |              5 |
| [133](#event-133)          | 0x041A       |      1 |              1 |
| [65535.46](#event-6553546) | 0x041B       |     21 |              2 |
| [65535.47](#event-6553547) | 0x0430       |     21 |              2 |
| [65535.48](#event-6553548) | 0x0445       |     21 |              2 |
| [65535.49](#event-6553549) | 0x045A       |     21 |              2 |
| [65535.50](#event-6553550) | 0x046F       |     21 |              2 |
| [65535.51](#event-6553551) | 0x0484       |     21 |              2 |
| [65535.52](#event-6553552) | 0x0499       |     21 |              2 |
| [65535.53](#event-6553553) | 0x04AE       |     21 |              2 |
| [65535.54](#event-6553554) | 0x04C3       |     21 |              2 |
| [65535.55](#event-6553555) | 0x04D8       |     21 |              2 |
| [65535.56](#event-6553556) | 0x04ED       |     21 |              2 |
| [65535.57](#event-6553557) | 0x0502       |     21 |              2 |
| [65535.58](#event-6553558) | 0x0517       |      7 |              3 |
| [65535.59](#event-6553559) | 0x051E       |      7 |              3 |

## DAT References (imed_data)

|   Index | Hex Value   |   Dec Value |
|---------|-------------|-------------|
|       0 | 0x0004      |           4 |
|       1 | 0x0000      |           0 |
|       2 | 0x00B5      |         181 |
|       3 | 0x0012      |          18 |
|       4 | 0x0046      |          70 |
|       5 | 0x0066      |         102 |
|       6 | 0x0032      |          50 |
|       7 | 0x0001      |           1 |
|       8 | 0x0019      |          25 |
|       9 | 0x0039      |          57 |
|      10 | 0x008E      |         142 |
|      11 | 0x0003      |           3 |
|      12 | 0x000D      |          13 |
|      13 | 0xFFFFFFDD  |  4294967261 |
|      14 | 0xFFFFD2C6  |  4294955718 |
|      15 | 0xFFFFFA24  |  4294965796 |
|      16 | 0xFFFFCD34  |  4294954292 |
|      17 | 0x001E      |          30 |
|      18 | 0x001D      |          29 |
|      19 | 0x005B      |          91 |
|      20 | 0x00A9      |         169 |
|      21 | 0x0015      |          21 |
|      22 | 0x003C      |          60 |
|      23 | 0x0007      |           7 |
|      24 | 0x0006      |           6 |
|      25 | 0x000B      |          11 |
|      26 | 0x000E      |          14 |
|      27 | 0x0013      |          19 |
|      28 | 0x000C      |          12 |
|      29 | 0x0105      |         261 |
|      30 | 0x0008      |           8 |
|      31 | 0x0156      |         342 |
|      32 | 0x0140      |         320 |
|      33 | 0x0144      |         324 |
|      34 | 0x00EF      |         239 |
|      35 | 0x0002      |           2 |
|      36 | 0x00E6      |         230 |
|      37 | 0xFFFE8E3C  |  4294872636 |
|      38 | 0x2B43      |       11075 |
|      39 | 0xFFFFFD77  |  4294966647 |
|      40 | 0x0028      |          40 |
|      41 | 0xFFFEBEA8  |  4294885032 |
|      42 | 0x21C1      |        8641 |
|      43 | 0xFFFEC703  |  4294887171 |
|      44 | 0x08F0      |        2288 |
|      45 | 0xFFFE40DF  |  4294852831 |
|      46 | 0x4B33      |       19251 |
|      47 | 0xFFFFFD63  |  4294966627 |
|      48 | 0x0D34      |        3380 |
|      49 | 0x10928     |       67880 |
|      50 | 0x20E7      |        8423 |
|      51 | 0xFFFF632C  |  4294927148 |
|      52 | 0x10E32     |       69170 |
|      53 | 0x1FD2      |        8146 |
|      54 | 0x10D86     |       68998 |
|      55 | 0xFFFFEC31  |  4294962225 |
|      56 | 0xFFFF63C1  |  4294927297 |
|      57 | 0x0089      |         137 |
|      58 | 0x00DC      |         220 |
|      59 | 0x001F      |          31 |
|      60 | 0x0005      |           5 |
|      61 | 0x0073      |         115 |
|      62 | 0x0067      |         103 |
|      63 | 0x00AB      |         171 |
|      64 | 0x000A      |          10 |
|      65 | 0x0157      |         343 |
|      66 | 0x014E      |         334 |
|      67 | 0x0131      |         305 |
|      68 | 0x0198      |         408 |
|      69 | 0x01E0      |         480 |
|      70 | 0x00A0      |         160 |
|      71 | 0x009D      |         157 |
|      72 | 0x007C      |         124 |
|      73 | 0x0137      |         311 |
|      74 | 0x00CD      |         205 |
|      75 | 0x00EB      |         235 |
|      76 | 0x0076      |         118 |
|      77 | 0x00B1      |         177 |
|      78 | 0x0014      |          20 |
|      79 | 0x0273      |         627 |

## Events

### Event 65535

#### Metadata

| Field        | Value   |
|--------------|---------|
| Entrypoint   | 0x0000  |
| Data Size    | 1 bytes |
| Instructions | 1       |

```
      00 01 02 03 04 05 06 07  08 09 0A 0B 0C 0D 0E 0F
      -- -- -- -- -- -- -- --  -- -- -- -- -- -- -- --
0000: 00                                                .               
```

#### Opcodes

```
  0: 0x0000 [0x00] END_REQSTACK()
```

### Event 1511

#### Metadata

| Field        | Value    |
|--------------|----------|
| Entrypoint   | 0x0001   |
| Data Size    | 21 bytes |
| Instructions | 2        |

```
      00 01 02 03 04 05 06 07  08 09 0A 0B 0C 0D 0E 0F
      -- -- -- -- -- -- -- --  -- -- -- -- -- -- -- --
0000:    B6 0B 00 80 01 80 02  80 03 80 04 80 05 80 06   ...............
0010: 80 01 80 01 80 00                                 ......          
```

#### Opcodes

```
  0: 0x0001 [0xB6] ENTITY_APPEARANCE_HANDLER(case=Full entity look, race=4*, hair=0*, head=181*, body=18*, hands=70*, legs=102*, feet=50*, main=0*, sub=0*)
  1: 0x0015 [0x00] END_REQSTACK()
```

### Event 65535.1

#### Metadata

| Field        | Value    |
|--------------|----------|
| Entrypoint   | 0x0016   |
| Data Size    | 21 bytes |
| Instructions | 2        |

```
      00 01 02 03 04 05 06 07  08 09 0A 0B 0C 0D 0E 0F
      -- -- -- -- -- -- -- --  -- -- -- -- -- -- -- --
0010:                   B6 0B  07 80 01 80 01 80 01 80        ..........
0020: 01 80 01 80 01 80 01 80  01 80 00                 ...........     
```

#### Opcodes

```
  0: 0x0016 [0xB6] ENTITY_APPEARANCE_HANDLER(case=Full entity look, race=1*, hair=0*, head=0*, body=0*, hands=0*, legs=0*, feet=0*, main=0*, sub=0*)
  1: 0x002A [0x00] END_REQSTACK()
```

### Event 1549

#### Metadata

| Field        | Value    |
|--------------|----------|
| Entrypoint   | 0x002B   |
| Data Size    | 45 bytes |
| Instructions | 4        |

```
      00 01 02 03 04 05 06 07  08 09 0A 0B 0C 0D 0E 0F
      -- -- -- -- -- -- -- --  -- -- -- -- -- -- -- --
0020:                                   B4 00 00 00 3F             ....?
0030: 3F 3F 00 00 00 00 00 00  00 00 00 00 00 00 00 B5  ??..............
0040: 00 00 00 B6 0B 07 80 08  80 01 80 09 80 01 80 0A  ................
0050: 80 0B 80 01 80 01 80 00                           ........        
```

#### Opcodes

```
  0: 0x002B [0xB4] UI_WINDOW_STRING_HANDLER(case=0x00 - Copy string from opcode, work_offset=ExtData[1]->WorkLocal[0], string="???")
  1: 0x003F [0xB5] SET_EVENT_ENTITY_NAME: Change EventEntity name to ExtData[1]->WorkLocal[0]
  2: 0x0043 [0xB6] ENTITY_APPEARANCE_HANDLER(case=Full entity look, race=1*, hair=25*, head=0*, body=57*, hands=0*, legs=142*, feet=3*, main=0*, sub=0*)
  3: 0x0057 [0x00] END_REQSTACK()
```

### Event 65535.2

#### Metadata

| Field        | Value    |
|--------------|----------|
| Entrypoint   | 0x0058   |
| Data Size    | 25 bytes |
| Instructions | 3        |

```
      00 01 02 03 04 05 06 07  08 09 0A 0B 0C 0D 0E 0F
      -- -- -- -- -- -- -- --  -- -- -- -- -- -- -- --
0050:                          B4 00 00 00 59 67 6E 61          ....Ygna
0060: 73 00 00 00 00 00 00 00  00 00 00 00 B5 00 00 00  s...............
0070: 00                                                .               
```

#### Opcodes

```
  0: 0x0058 [0xB4] UI_WINDOW_STRING_HANDLER(case=0x00 - Copy string from opcode, work_offset=ExtData[1]->WorkLocal[0], string="Ygnas")
  1: 0x006C [0xB5] SET_EVENT_ENTITY_NAME: Change EventEntity name to ExtData[1]->WorkLocal[0]
  2: 0x0070 [0x00] END_REQSTACK()
```

### Event 65535.3

#### Metadata

| Field        | Value    |
|--------------|----------|
| Entrypoint   | 0x0071   |
| Data Size    | 14 bytes |
| Instructions | 4        |

```
      00 01 02 03 04 05 06 07  08 09 0A 0B 0C 0D 0E 0F
      -- -- -- -- -- -- -- --  -- -- -- -- -- -- -- --
0070:    32 0C 80 1F 00 0D 80  0E 80 0F 80 1F 01 00      2............. 
```

#### Opcodes

```
  0: 0x0071 [0x32] ExtData[1]->MainSpeed = 13* * 0.1
  1: 0x0074 [0x1F] MOVE_ENTITY: EventEntity moves to X=-0.035*, Z=-11.578*, Y=-1.500*
  2: 0x007C [0x1F] MOVE_ENTITY: Update entity position (mode=1)
  3: 0x007E [0x00] END_REQSTACK()
```

### Event 65535.4

#### Metadata

| Field        | Value    |
|--------------|----------|
| Entrypoint   | 0x007F   |
| Data Size    | 22 bytes |
| Instructions | 6        |

```
      00 01 02 03 04 05 06 07  08 09 0A 0B 0C 0D 0E 0F
      -- -- -- -- -- -- -- --  -- -- -- -- -- -- -- --
0070:                                               32                 2
0080: 0C 80 1F 00 0D 80 10 80  0F 80 1F 01 1E 90 10 10  ................
0090: 01 1C 11 80 00                                    .....           
```

#### Opcodes

```
  0: 0x007F [0x32] ExtData[1]->MainSpeed = 13* * 0.1
  1: 0x0082 [0x1F] MOVE_ENTITY: EventEntity moves to X=-0.035*, Z=-13.004*, Y=-1.500*
  2: 0x008A [0x1F] MOVE_ENTITY: Update entity position (mode=1)
  3: 0x008C [0x1E] EventEntity looks at Arciela (ID: 17830032/0x01101090) and starts talking
  4: 0x0091 [0x1C] WAIT(30* ticks)
  5: 0x0094 [0x00] END_REQSTACK()
```

### Event 65535.5

#### Metadata

| Field        | Value    |
|--------------|----------|
| Entrypoint   | 0x0095   |
| Data Size    | 16 bytes |
| Instructions | 2        |

```
      00 01 02 03 04 05 06 07  08 09 0A 0B 0C 0D 0E 0F
      -- -- -- -- -- -- -- --  -- -- -- -- -- -- -- --
0090:                66 12 80  F8 FF FF 7F F8 FF FF 7F       f..........
00A0: 74 68 6B 31 00                                    thk1.           
```

#### Opcodes

```
  0: 0x0095 [0x66] LOAD_EXT_SCHEDULER_MAIN: Load scheduler "thk1" with entities [EventEntity, EventEntity], work=29*
  1: 0x00A4 [0x00] END_REQSTACK()
```

### Event 65535.6

#### Metadata

| Field        | Value    |
|--------------|----------|
| Entrypoint   | 0x00A5   |
| Data Size    | 14 bytes |
| Instructions | 2        |

```
      00 01 02 03 04 05 06 07  08 09 0A 0B 0C 0D 0E 0F
      -- -- -- -- -- -- -- --  -- -- -- -- -- -- -- --
00A0:                53 F8 FF  FF 7F F8 FF FF 7F 74 68       S........th
00B0: 6B 31 00                                          k1.             
```

#### Opcodes

```
  0: 0x00A5 [0x53] WAIT_SCHEDULER_TASK: Wait for scheduler "thk1" with entities [EventEntity, EventEntity]
  1: 0x00B2 [0x00] END_REQSTACK()
```

### Event 65535.7

#### Metadata

| Field        | Value    |
|--------------|----------|
| Entrypoint   | 0x00B3   |
| Data Size    | 16 bytes |
| Instructions | 2        |

```
      00 01 02 03 04 05 06 07  08 09 0A 0B 0C 0D 0E 0F
      -- -- -- -- -- -- -- --  -- -- -- -- -- -- -- --
00B0:          66 12 80 F8 FF  FF 7F F8 FF FF 7F 74 68     f..........th
00C0: 6B 32 00                                          k2.             
```

#### Opcodes

```
  0: 0x00B3 [0x66] LOAD_EXT_SCHEDULER_MAIN: Load scheduler "thk2" with entities [EventEntity, EventEntity], work=29*
  1: 0x00C2 [0x00] END_REQSTACK()
```

### Event 65535.8

#### Metadata

| Field        | Value    |
|--------------|----------|
| Entrypoint   | 0x00C3   |
| Data Size    | 14 bytes |
| Instructions | 2        |

```
      00 01 02 03 04 05 06 07  08 09 0A 0B 0C 0D 0E 0F
      -- -- -- -- -- -- -- --  -- -- -- -- -- -- -- --
00C0:          53 F8 FF FF 7F  F8 FF FF 7F 74 68 6B 32     S........thk2
00D0: 00                                                .               
```

#### Opcodes

```
  0: 0x00C3 [0x53] WAIT_SCHEDULER_TASK: Wait for scheduler "thk2" with entities [EventEntity, EventEntity]
  1: 0x00D0 [0x00] END_REQSTACK()
```

### Event 65535.9

#### Metadata

| Field        | Value    |
|--------------|----------|
| Entrypoint   | 0x00D1   |
| Data Size    | 16 bytes |
| Instructions | 2        |

```
      00 01 02 03 04 05 06 07  08 09 0A 0B 0C 0D 0E 0F
      -- -- -- -- -- -- -- --  -- -- -- -- -- -- -- --
00D0:    66 12 80 F8 FF FF 7F  F8 FF FF 7F 74 6C 6B 30   f..........tlk0
00E0: 00                                                .               
```

#### Opcodes

```
  0: 0x00D1 [0x66] LOAD_EXT_SCHEDULER_MAIN: Load scheduler "tlk0" with entities [EventEntity, EventEntity], work=29*
  1: 0x00E0 [0x00] END_REQSTACK()
```

### Event 65535.10

#### Metadata

| Field        | Value    |
|--------------|----------|
| Entrypoint   | 0x00E1   |
| Data Size    | 14 bytes |
| Instructions | 2        |

```
      00 01 02 03 04 05 06 07  08 09 0A 0B 0C 0D 0E 0F
      -- -- -- -- -- -- -- --  -- -- -- -- -- -- -- --
00E0:    53 F8 FF FF 7F F8 FF  FF 7F 74 6C 6B 30 00      S........tlk0. 
```

#### Opcodes

```
  0: 0x00E1 [0x53] WAIT_SCHEDULER_TASK: Wait for scheduler "tlk0" with entities [EventEntity, EventEntity]
  1: 0x00EE [0x00] END_REQSTACK()
```

### Event 65535.11

#### Metadata

| Field        | Value    |
|--------------|----------|
| Entrypoint   | 0x00EF   |
| Data Size    | 16 bytes |
| Instructions | 2        |

```
      00 01 02 03 04 05 06 07  08 09 0A 0B 0C 0D 0E 0F
      -- -- -- -- -- -- -- --  -- -- -- -- -- -- -- --
00E0:                                               66                 f
00F0: 12 80 F8 FF FF 7F F8 FF  FF 7F 74 6C 6B 31 00     ..........tlk1. 
```

#### Opcodes

```
  0: 0x00EF [0x66] LOAD_EXT_SCHEDULER_MAIN: Load scheduler "tlk1" with entities [EventEntity, EventEntity], work=29*
  1: 0x00FE [0x00] END_REQSTACK()
```

### Event 65535.12

#### Metadata

| Field        | Value    |
|--------------|----------|
| Entrypoint   | 0x00FF   |
| Data Size    | 14 bytes |
| Instructions | 2        |

```
      00 01 02 03 04 05 06 07  08 09 0A 0B 0C 0D 0E 0F
      -- -- -- -- -- -- -- --  -- -- -- -- -- -- -- --
00F0:                                               53                 S
0100: F8 FF FF 7F F8 FF FF 7F  74 6C 6B 31 00           ........tlk1.   
```

#### Opcodes

```
  0: 0x00FF [0x53] WAIT_SCHEDULER_TASK: Wait for scheduler "tlk1" with entities [EventEntity, EventEntity]
  1: 0x010C [0x00] END_REQSTACK()
```

### Event 65535.13

#### Metadata

| Field        | Value    |
|--------------|----------|
| Entrypoint   | 0x010D   |
| Data Size    | 16 bytes |
| Instructions | 2        |

```
      00 01 02 03 04 05 06 07  08 09 0A 0B 0C 0D 0E 0F
      -- -- -- -- -- -- -- --  -- -- -- -- -- -- -- --
0100:                                         66 12 80               f..
0110: F8 FF FF 7F F8 FF FF 7F  73 68 61 30 00           ........sha0.   
```

#### Opcodes

```
  0: 0x010D [0x66] LOAD_EXT_SCHEDULER_MAIN: Load scheduler "sha0" with entities [EventEntity, EventEntity], work=29*
  1: 0x011C [0x00] END_REQSTACK()
```

### Event 65535.14

#### Metadata

| Field        | Value    |
|--------------|----------|
| Entrypoint   | 0x011D   |
| Data Size    | 14 bytes |
| Instructions | 2        |

```
      00 01 02 03 04 05 06 07  08 09 0A 0B 0C 0D 0E 0F
      -- -- -- -- -- -- -- --  -- -- -- -- -- -- -- --
0110:                                         53 F8 FF               S..
0120: FF 7F F8 FF FF 7F 73 68  61 30 00                 ......sha0.     
```

#### Opcodes

```
  0: 0x011D [0x53] WAIT_SCHEDULER_TASK: Wait for scheduler "sha0" with entities [EventEntity, EventEntity]
  1: 0x012A [0x00] END_REQSTACK()
```

### Event 65535.15

#### Metadata

| Field        | Value    |
|--------------|----------|
| Entrypoint   | 0x012B   |
| Data Size    | 16 bytes |
| Instructions | 2        |

```
      00 01 02 03 04 05 06 07  08 09 0A 0B 0C 0D 0E 0F
      -- -- -- -- -- -- -- --  -- -- -- -- -- -- -- --
0120:                                   66 12 80 F8 FF             f....
0130: FF 7F F8 FF FF 7F 73 68  61 31 00                 ......sha1.     
```

#### Opcodes

```
  0: 0x012B [0x66] LOAD_EXT_SCHEDULER_MAIN: Load scheduler "sha1" with entities [EventEntity, EventEntity], work=29*
  1: 0x013A [0x00] END_REQSTACK()
```

### Event 65535.16

#### Metadata

| Field        | Value    |
|--------------|----------|
| Entrypoint   | 0x013B   |
| Data Size    | 14 bytes |
| Instructions | 2        |

```
      00 01 02 03 04 05 06 07  08 09 0A 0B 0C 0D 0E 0F
      -- -- -- -- -- -- -- --  -- -- -- -- -- -- -- --
0130:                                   53 F8 FF FF 7F             S....
0140: F8 FF FF 7F 73 68 61 31  00                       ....sha1.       
```

#### Opcodes

```
  0: 0x013B [0x53] WAIT_SCHEDULER_TASK: Wait for scheduler "sha1" with entities [EventEntity, EventEntity]
  1: 0x0148 [0x00] END_REQSTACK()
```

### Event 65535.17

#### Metadata

| Field        | Value    |
|--------------|----------|
| Entrypoint   | 0x0149   |
| Data Size    | 16 bytes |
| Instructions | 2        |

```
      00 01 02 03 04 05 06 07  08 09 0A 0B 0C 0D 0E 0F
      -- -- -- -- -- -- -- --  -- -- -- -- -- -- -- --
0140:                             66 13 80 F8 FF FF 7F           f......
0150: F8 FF FF 7F 70 61 73 30  00                       ....pas0.       
```

#### Opcodes

```
  0: 0x0149 [0x66] LOAD_EXT_SCHEDULER_MAIN: Load scheduler "pas0" with entities [EventEntity, EventEntity], work=91*
  1: 0x0158 [0x00] END_REQSTACK()
```

### Event 65535.18

#### Metadata

| Field        | Value    |
|--------------|----------|
| Entrypoint   | 0x0159   |
| Data Size    | 14 bytes |
| Instructions | 2        |

```
      00 01 02 03 04 05 06 07  08 09 0A 0B 0C 0D 0E 0F
      -- -- -- -- -- -- -- --  -- -- -- -- -- -- -- --
0150:                             53 F8 FF FF 7F F8 FF           S......
0160: FF 7F 70 61 73 30 00                              ..pas0.         
```

#### Opcodes

```
  0: 0x0159 [0x53] WAIT_SCHEDULER_TASK: Wait for scheduler "pas0" with entities [EventEntity, EventEntity]
  1: 0x0166 [0x00] END_REQSTACK()
```

### Event 65535.19

#### Metadata

| Field        | Value    |
|--------------|----------|
| Entrypoint   | 0x0167   |
| Data Size    | 16 bytes |
| Instructions | 2        |

```
      00 01 02 03 04 05 06 07  08 09 0A 0B 0C 0D 0E 0F
      -- -- -- -- -- -- -- --  -- -- -- -- -- -- -- --
0160:                      66  14 80 F8 FF FF 7F F8 FF         f........
0170: FF 7F 74 6C 6B 30 00                              ..tlk0.         
```

#### Opcodes

```
  0: 0x0167 [0x66] LOAD_EXT_SCHEDULER_MAIN: Load scheduler "tlk0" with entities [EventEntity, EventEntity], work=169*
  1: 0x0176 [0x00] END_REQSTACK()
```

### Event 65535.20

#### Metadata

| Field        | Value    |
|--------------|----------|
| Entrypoint   | 0x0177   |
| Data Size    | 14 bytes |
| Instructions | 2        |

```
      00 01 02 03 04 05 06 07  08 09 0A 0B 0C 0D 0E 0F
      -- -- -- -- -- -- -- --  -- -- -- -- -- -- -- --
0170:                      53  F8 FF FF 7F F8 FF FF 7F         S........
0180: 74 6C 6B 30 00                                    tlk0.           
```

#### Opcodes

```
  0: 0x0177 [0x53] WAIT_SCHEDULER_TASK: Wait for scheduler "tlk0" with entities [EventEntity, EventEntity]
  1: 0x0184 [0x00] END_REQSTACK()
```

### Event 65535.21

#### Metadata

| Field        | Value    |
|--------------|----------|
| Entrypoint   | 0x0185   |
| Data Size    | 16 bytes |
| Instructions | 2        |

```
      00 01 02 03 04 05 06 07  08 09 0A 0B 0C 0D 0E 0F
      -- -- -- -- -- -- -- --  -- -- -- -- -- -- -- --
0180:                66 14 80  F8 FF FF 7F F8 FF FF 7F       f..........
0190: 74 6C 6B 31 00                                    tlk1.           
```

#### Opcodes

```
  0: 0x0185 [0x66] LOAD_EXT_SCHEDULER_MAIN: Load scheduler "tlk1" with entities [EventEntity, EventEntity], work=169*
  1: 0x0194 [0x00] END_REQSTACK()
```

### Event 65535.22

#### Metadata

| Field        | Value    |
|--------------|----------|
| Entrypoint   | 0x0195   |
| Data Size    | 14 bytes |
| Instructions | 2        |

```
      00 01 02 03 04 05 06 07  08 09 0A 0B 0C 0D 0E 0F
      -- -- -- -- -- -- -- --  -- -- -- -- -- -- -- --
0190:                53 F8 FF  FF 7F F8 FF FF 7F 74 6C       S........tl
01A0: 6B 31 00                                          k1.             
```

#### Opcodes

```
  0: 0x0195 [0x53] WAIT_SCHEDULER_TASK: Wait for scheduler "tlk1" with entities [EventEntity, EventEntity]
  1: 0x01A2 [0x00] END_REQSTACK()
```

### Event 65535.23

#### Metadata

| Field        | Value    |
|--------------|----------|
| Entrypoint   | 0x01A3   |
| Data Size    | 16 bytes |
| Instructions | 4        |

```
      00 01 02 03 04 05 06 07  08 09 0A 0B 0C 0D 0E 0F
      -- -- -- -- -- -- -- --  -- -- -- -- -- -- -- --
01A0:          6E F8 FF FF 7F  15 80 99 F8 FF FF 7F 1C     n............
01B0: 16 80 00                                          ...             
```

#### Opcodes

```
  0: 0x01A3 [0x6E] EventEntity uses emote 21*
  1: 0x01AA [0x99] Wait for EventEntity animation to complete
  2: 0x01AF [0x1C] WAIT(60* ticks)
  3: 0x01B2 [0x00] END_REQSTACK()
```

### Event 65535.24

#### Metadata

| Field        | Value    |
|--------------|----------|
| Entrypoint   | 0x01B3   |
| Data Size    | 16 bytes |
| Instructions | 4        |

```
      00 01 02 03 04 05 06 07  08 09 0A 0B 0C 0D 0E 0F
      -- -- -- -- -- -- -- --  -- -- -- -- -- -- -- --
01B0:          6E F8 FF FF 7F  17 80 99 F8 FF FF 7F 1C     n............
01C0: 16 80 00                                          ...             
```

#### Opcodes

```
  0: 0x01B3 [0x6E] EventEntity uses emote 7*
  1: 0x01BA [0x99] Wait for EventEntity animation to complete
  2: 0x01BF [0x1C] WAIT(60* ticks)
  3: 0x01C2 [0x00] END_REQSTACK()
```

### Event 65535.25

#### Metadata

| Field        | Value    |
|--------------|----------|
| Entrypoint   | 0x01C3   |
| Data Size    | 16 bytes |
| Instructions | 4        |

```
      00 01 02 03 04 05 06 07  08 09 0A 0B 0C 0D 0E 0F
      -- -- -- -- -- -- -- --  -- -- -- -- -- -- -- --
01C0:          6E F8 FF FF 7F  18 80 99 F8 FF FF 7F 1C     n............
01D0: 16 80 00                                          ...             
```

#### Opcodes

```
  0: 0x01C3 [0x6E] EventEntity uses emote 6*
  1: 0x01CA [0x99] Wait for EventEntity animation to complete
  2: 0x01CF [0x1C] WAIT(60* ticks)
  3: 0x01D2 [0x00] END_REQSTACK()
```

### Event 65535.26

#### Metadata

| Field        | Value    |
|--------------|----------|
| Entrypoint   | 0x01D3   |
| Data Size    | 16 bytes |
| Instructions | 4        |

```
      00 01 02 03 04 05 06 07  08 09 0A 0B 0C 0D 0E 0F
      -- -- -- -- -- -- -- --  -- -- -- -- -- -- -- --
01D0:          6E F8 FF FF 7F  19 80 99 F8 FF FF 7F 1C     n............
01E0: 16 80 00                                          ...             
```

#### Opcodes

```
  0: 0x01D3 [0x6E] EventEntity uses emote 11*
  1: 0x01DA [0x99] Wait for EventEntity animation to complete
  2: 0x01DF [0x1C] WAIT(60* ticks)
  3: 0x01E2 [0x00] END_REQSTACK()
```

### Event 65535.27

#### Metadata

| Field        | Value    |
|--------------|----------|
| Entrypoint   | 0x01E3   |
| Data Size    | 16 bytes |
| Instructions | 4        |

```
      00 01 02 03 04 05 06 07  08 09 0A 0B 0C 0D 0E 0F
      -- -- -- -- -- -- -- --  -- -- -- -- -- -- -- --
01E0:          6E F8 FF FF 7F  1A 80 99 F8 FF FF 7F 1C     n............
01F0: 16 80 00                                          ...             
```

#### Opcodes

```
  0: 0x01E3 [0x6E] EventEntity uses emote 14*
  1: 0x01EA [0x99] Wait for EventEntity animation to complete
  2: 0x01EF [0x1C] WAIT(60* ticks)
  3: 0x01F2 [0x00] END_REQSTACK()
```

### Event 65535.28

#### Metadata

| Field        | Value    |
|--------------|----------|
| Entrypoint   | 0x01F3   |
| Data Size    | 16 bytes |
| Instructions | 4        |

```
      00 01 02 03 04 05 06 07  08 09 0A 0B 0C 0D 0E 0F
      -- -- -- -- -- -- -- --  -- -- -- -- -- -- -- --
01F0:          6E F8 FF FF 7F  00 80 99 F8 FF FF 7F 1C     n............
0200: 16 80 00                                          ...             
```

#### Opcodes

```
  0: 0x01F3 [0x6E] EventEntity uses emote 4*
  1: 0x01FA [0x99] Wait for EventEntity animation to complete
  2: 0x01FF [0x1C] WAIT(60* ticks)
  3: 0x0202 [0x00] END_REQSTACK()
```

### Event 65535.29

#### Metadata

| Field        | Value    |
|--------------|----------|
| Entrypoint   | 0x0203   |
| Data Size    | 16 bytes |
| Instructions | 4        |

```
      00 01 02 03 04 05 06 07  08 09 0A 0B 0C 0D 0E 0F
      -- -- -- -- -- -- -- --  -- -- -- -- -- -- -- --
0200:          6E F8 FF FF 7F  1B 80 99 F8 FF FF 7F 1C     n............
0210: 16 80 00                                          ...             
```

#### Opcodes

```
  0: 0x0203 [0x6E] EventEntity uses emote 19*
  1: 0x020A [0x99] Wait for EventEntity animation to complete
  2: 0x020F [0x1C] WAIT(60* ticks)
  3: 0x0212 [0x00] END_REQSTACK()
```

### Event 65535.30

#### Metadata

| Field        | Value    |
|--------------|----------|
| Entrypoint   | 0x0213   |
| Data Size    | 16 bytes |
| Instructions | 4        |

```
      00 01 02 03 04 05 06 07  08 09 0A 0B 0C 0D 0E 0F
      -- -- -- -- -- -- -- --  -- -- -- -- -- -- -- --
0210:          6E F8 FF FF 7F  1C 80 99 F8 FF FF 7F 1C     n............
0220: 16 80 00                                          ...             
```

#### Opcodes

```
  0: 0x0213 [0x6E] EventEntity uses emote 12*
  1: 0x021A [0x99] Wait for EventEntity animation to complete
  2: 0x021F [0x1C] WAIT(60* ticks)
  3: 0x0222 [0x00] END_REQSTACK()
```

### Event 65535.31

#### Metadata

| Field        | Value    |
|--------------|----------|
| Entrypoint   | 0x0223   |
| Data Size    | 16 bytes |
| Instructions | 4        |

```
      00 01 02 03 04 05 06 07  08 09 0A 0B 0C 0D 0E 0F
      -- -- -- -- -- -- -- --  -- -- -- -- -- -- -- --
0220:          6E F8 FF FF 7F  1C 80 99 F8 FF FF 7F 1C     n............
0230: 16 80 00                                          ...             
```

#### Opcodes

```
  0: 0x0223 [0x6E] EventEntity uses emote 12*
  1: 0x022A [0x99] Wait for EventEntity animation to complete
  2: 0x022F [0x1C] WAIT(60* ticks)
  3: 0x0232 [0x00] END_REQSTACK()
```

### Event 65535.32

#### Metadata

| Field        | Value    |
|--------------|----------|
| Entrypoint   | 0x0233   |
| Data Size    | 16 bytes |
| Instructions | 4        |

```
      00 01 02 03 04 05 06 07  08 09 0A 0B 0C 0D 0E 0F
      -- -- -- -- -- -- -- --  -- -- -- -- -- -- -- --
0230:          6E F8 FF FF 7F  12 80 99 F8 FF FF 7F 1C     n............
0240: 16 80 00                                          ...             
```

#### Opcodes

```
  0: 0x0233 [0x6E] EventEntity uses emote 29*
  1: 0x023A [0x99] Wait for EventEntity animation to complete
  2: 0x023F [0x1C] WAIT(60* ticks)
  3: 0x0242 [0x00] END_REQSTACK()
```

### Event 65535.33

#### Metadata

| Field        | Value   |
|--------------|---------|
| Entrypoint   | 0x0243  |
| Data Size    | 9 bytes |
| Instructions | 3       |

```
      00 01 02 03 04 05 06 07  08 09 0A 0B 0C 0D 0E 0F
      -- -- -- -- -- -- -- --  -- -- -- -- -- -- -- --
0240:          5E 69 64 6C 30  1C 16 80 00                 ^idl0....    
```

#### Opcodes

```
  0: 0x0243 [0x5E] EventEntity goes idle (kills current action) (animation: "idl0")
  1: 0x0248 [0x1C] WAIT(60* ticks)
  2: 0x024B [0x00] END_REQSTACK()
```

### Event 89

#### Metadata

| Field        | Value   |
|--------------|---------|
| Entrypoint   | 0x024C  |
| Data Size    | 1 bytes |
| Instructions | 1       |

```
      00 01 02 03 04 05 06 07  08 09 0A 0B 0C 0D 0E 0F
      -- -- -- -- -- -- -- --  -- -- -- -- -- -- -- --
0240:                                      00                       .   
```

#### Opcodes

```
  0: 0x024C [0x00] END_REQSTACK()
```

### Event 65535.34

#### Metadata

| Field        | Value    |
|--------------|----------|
| Entrypoint   | 0x024D   |
| Data Size    | 45 bytes |
| Instructions | 4        |

```
      00 01 02 03 04 05 06 07  08 09 0A 0B 0C 0D 0E 0F
      -- -- -- -- -- -- -- --  -- -- -- -- -- -- -- --
0240:                                         B6 0B 0B               ...
0250: 80 01 80 1D 80 03 80 04  80 05 80 06 80 01 80 01  ................
0260: 80 B4 00 00 00 4D 61 72  63 65 6C 6C 75 72 69 6E  .....Marcellurin
0270: 00 00 00 00 00 B5 00 00  00 00                    ..........      
```

#### Opcodes

```
  0: 0x024D [0xB6] ENTITY_APPEARANCE_HANDLER(case=Full entity look, race=3*, hair=0*, head=261*, body=18*, hands=70*, legs=102*, feet=50*, main=0*, sub=0*)
  1: 0x0261 [0xB4] UI_WINDOW_STRING_HANDLER(case=0x00 - Copy string from opcode, work_offset=ExtData[1]->WorkLocal[0], string="Marcellurin")
  2: 0x0275 [0xB5] SET_EVENT_ENTITY_NAME: Change EventEntity name to ExtData[1]->WorkLocal[0]
  3: 0x0279 [0x00] END_REQSTACK()
```

### Event 65535.35

#### Metadata

| Field        | Value    |
|--------------|----------|
| Entrypoint   | 0x027A   |
| Data Size    | 25 bytes |
| Instructions | 3        |

```
      00 01 02 03 04 05 06 07  08 09 0A 0B 0C 0D 0E 0F
      -- -- -- -- -- -- -- --  -- -- -- -- -- -- -- --
0270:                                B4 00 00 00 00 00            ......
0280: 00 00 00 00 00 00 00 00  00 00 00 00 00 00 B5 00  ................
0290: 00 00 00                                          ...             
```

#### Opcodes

```
  0: 0x027A [0xB4] UI_WINDOW_STRING_HANDLER(case=0x00 - Copy string from opcode, work_offset=ExtData[1]->WorkLocal[0], string="")
  1: 0x028E [0xB5] SET_EVENT_ENTITY_NAME: Change EventEntity name to ExtData[1]->WorkLocal[0]
  2: 0x0292 [0x00] END_REQSTACK()
```

### Event 65535.36

#### Metadata

| Field        | Value    |
|--------------|----------|
| Entrypoint   | 0x0293   |
| Data Size    | 22 bytes |
| Instructions | 3        |

```
      00 01 02 03 04 05 06 07  08 09 0A 0B 0C 0D 0E 0F
      -- -- -- -- -- -- -- --  -- -- -- -- -- -- -- --
0290:          B6 0B 07 80 01  80 01 80 01 80 01 80 01     .............
02A0: 80 01 80 01 80 01 80 96  00                       .........       
```

#### Opcodes

```
  0: 0x0293 [0xB6] ENTITY_APPEARANCE_HANDLER(case=Full entity look, race=1*, hair=0*, head=0*, body=0*, hands=0*, legs=0*, feet=0*, main=0*, sub=0*)
  1: 0x02A7 [0x96] UNSET_EVENT_NPC: Restore NPC after event (removes event NPC status)
  2: 0x02A8 [0x00] END_REQSTACK()
```

### Event 90

#### Metadata

| Field        | Value   |
|--------------|---------|
| Entrypoint   | 0x02A9  |
| Data Size    | 1 bytes |
| Instructions | 1       |

```
      00 01 02 03 04 05 06 07  08 09 0A 0B 0C 0D 0E 0F
      -- -- -- -- -- -- -- --  -- -- -- -- -- -- -- --
02A0:                             00                             .      
```

#### Opcodes

```
  0: 0x02A9 [0x00] END_REQSTACK()
```

### Event 65535.37

#### Metadata

| Field        | Value    |
|--------------|----------|
| Entrypoint   | 0x02AA   |
| Data Size    | 45 bytes |
| Instructions | 4        |

```
      00 01 02 03 04 05 06 07  08 09 0A 0B 0C 0D 0E 0F
      -- -- -- -- -- -- -- --  -- -- -- -- -- -- -- --
02A0:                                B6 0B 0B 80 1E 80            ......
02B0: 1F 80 1F 80 20 80 21 80  22 80 01 80 01 80 B4 00  .... .!.".......
02C0: 00 00 47 61 72 65 6D 62  65 72 74 00 00 00 00 00  ..Garembert.....
02D0: 00 00 B5 00 00 00 00                              .......         
```

#### Opcodes

```
  0: 0x02AA [0xB6] ENTITY_APPEARANCE_HANDLER(case=Full entity look, race=3*, hair=8*, head=342*, body=342*, hands=320*, legs=324*, feet=239*, main=0*, sub=0*)
  1: 0x02BE [0xB4] UI_WINDOW_STRING_HANDLER(case=0x00 - Copy string from opcode, work_offset=ExtData[1]->WorkLocal[0], string="Garembert")
  2: 0x02D2 [0xB5] SET_EVENT_ENTITY_NAME: Change EventEntity name to ExtData[1]->WorkLocal[0]
  3: 0x02D6 [0x00] END_REQSTACK()
```

### Event 65535.38

#### Metadata

| Field        | Value    |
|--------------|----------|
| Entrypoint   | 0x02D7   |
| Data Size    | 24 bytes |
| Instructions | 3        |

```
      00 01 02 03 04 05 06 07  08 09 0A 0B 0C 0D 0E 0F
      -- -- -- -- -- -- -- --  -- -- -- -- -- -- -- --
02D0:                      B6  0B 0B 80 23 80 01 80 24         ....#...$
02E0: 80 24 80 24 80 24 80 01  80 01 80 95 07 80 00     .$.$.$......... 
```

#### Opcodes

```
  0: 0x02D7 [0xB6] ENTITY_APPEARANCE_HANDLER(case=Full entity look, race=3*, hair=2*, head=0*, body=230*, hands=230*, legs=230*, feet=230*, main=0*, sub=0*)
  1: 0x02EB [0x95] SETUP_EVENT_NPC: Prepare NPC for event (Render.Flags3 = 1*)
  2: 0x02EE [0x00] END_REQSTACK()
```

### Event 65535.39

#### Metadata

| Field        | Value    |
|--------------|----------|
| Entrypoint   | 0x02EF   |
| Data Size    | 14 bytes |
| Instructions | 4        |

```
      00 01 02 03 04 05 06 07  08 09 0A 0B 0C 0D 0E 0F
      -- -- -- -- -- -- -- --  -- -- -- -- -- -- -- --
02E0:                                               32                 2
02F0: 0C 80 1F 00 25 80 26 80  27 80 1F 01 00           ....%.&.'....   
```

#### Opcodes

```
  0: 0x02EF [0x32] ExtData[1]->MainSpeed = 13* * 0.1
  1: 0x02F2 [0x1F] MOVE_ENTITY: EventEntity moves to X=-94.660*, Z=11.075*, Y=-0.649*
  2: 0x02FA [0x1F] MOVE_ENTITY: Update entity position (mode=1)
  3: 0x02FC [0x00] END_REQSTACK()
```

### Event 65535.40

#### Metadata

| Field        | Value    |
|--------------|----------|
| Entrypoint   | 0x02FD   |
| Data Size    | 24 bytes |
| Instructions | 6        |

```
      00 01 02 03 04 05 06 07  08 09 0A 0B 0C 0D 0E 0F
      -- -- -- -- -- -- -- --  -- -- -- -- -- -- -- --
02F0:                                         32 28 80               2(.
0300: 1F 00 29 80 2A 80 01 80  1F 01 1F 00 2B 80 2C 80  ..).*.......+.,.
0310: 01 80 1F 01 00                                    .....           
```

#### Opcodes

```
  0: 0x02FD [0x32] ExtData[1]->MainSpeed = 40* * 0.1
  1: 0x0300 [0x1F] MOVE_ENTITY: EventEntity moves to X=-82.264*, Z=8.641*, Y=0.000*
  2: 0x0308 [0x1F] MOVE_ENTITY: Update entity position (mode=1)
  3: 0x030A [0x1F] MOVE_ENTITY: EventEntity moves to X=-80.125*, Z=2.288*, Y=0.000*
  4: 0x0312 [0x1F] MOVE_ENTITY: Update entity position (mode=1)
  5: 0x0314 [0x00] END_REQSTACK()
```

### Event 65535.41

#### Metadata

| Field        | Value    |
|--------------|----------|
| Entrypoint   | 0x0315   |
| Data Size    | 34 bytes |
| Instructions | 8        |

```
      00 01 02 03 04 05 06 07  08 09 0A 0B 0C 0D 0E 0F
      -- -- -- -- -- -- -- --  -- -- -- -- -- -- -- --
0310:                32 28 80  1F 00 25 80 26 80 27 80       2(...%.&.'.
0320: 1F 01 1F 00 29 80 2A 80  01 80 1F 01 1F 00 2B 80  ....).*.......+.
0330: 2C 80 01 80 1F 01 00                              ,......         
```

#### Opcodes

```
  0: 0x0315 [0x32] ExtData[1]->MainSpeed = 40* * 0.1
  1: 0x0318 [0x1F] MOVE_ENTITY: EventEntity moves to X=-94.660*, Z=11.075*, Y=-0.649*
  2: 0x0320 [0x1F] MOVE_ENTITY: Update entity position (mode=1)
  3: 0x0322 [0x1F] MOVE_ENTITY: EventEntity moves to X=-82.264*, Z=8.641*, Y=0.000*
  4: 0x032A [0x1F] MOVE_ENTITY: Update entity position (mode=1)
  5: 0x032C [0x1F] MOVE_ENTITY: EventEntity moves to X=-80.125*, Z=2.288*, Y=0.000*
  6: 0x0334 [0x1F] MOVE_ENTITY: Update entity position (mode=1)
  7: 0x0336 [0x00] END_REQSTACK()
```

### Event 91

#### Metadata

| Field        | Value   |
|--------------|---------|
| Entrypoint   | 0x0337  |
| Data Size    | 1 bytes |
| Instructions | 1       |

```
      00 01 02 03 04 05 06 07  08 09 0A 0B 0C 0D 0E 0F
      -- -- -- -- -- -- -- --  -- -- -- -- -- -- -- --
0330:                      00                                  .        
```

#### Opcodes

```
  0: 0x0337 [0x00] END_REQSTACK()
```

### Event 65535.42

#### Metadata

| Field        | Value    |
|--------------|----------|
| Entrypoint   | 0x0338   |
| Data Size    | 30 bytes |
| Instructions | 3        |

```
      00 01 02 03 04 05 06 07  08 09 0A 0B 0C 0D 0E 0F
      -- -- -- -- -- -- -- --  -- -- -- -- -- -- -- --
0330:                          B6 0B 23 80 0B 80 1F 80          ..#.....
0340: 1F 80 20 80 1F 80 22 80  01 80 01 80 37 2D 80 2E  .. ...".....7-..
0350: 80 2F 80 30 80 00                                 ./.0..          
```

#### Opcodes

```
  0: 0x0338 [0xB6] ENTITY_APPEARANCE_HANDLER(case=Full entity look, race=2*, hair=3*, head=342*, body=342*, hands=320*, legs=342*, feet=239*, main=0*, sub=0*)
  1: 0x034C [0x37] UPDATE_EVENT_POSITION_AND_DIR: x=-114.465*, z=19.251*, y=-0.669*, direction=297.1°*
  2: 0x0355 [0x00] END_REQSTACK()
```

### Event 92

#### Metadata

| Field        | Value   |
|--------------|---------|
| Entrypoint   | 0x0356  |
| Data Size    | 1 bytes |
| Instructions | 1       |

```
      00 01 02 03 04 05 06 07  08 09 0A 0B 0C 0D 0E 0F
      -- -- -- -- -- -- -- --  -- -- -- -- -- -- -- --
0350:                   00                                    .         
```

#### Opcodes

```
  0: 0x0356 [0x00] END_REQSTACK()
```

### Event 65535.43

#### Metadata

| Field        | Value    |
|--------------|----------|
| Entrypoint   | 0x0357   |
| Data Size    | 14 bytes |
| Instructions | 4        |

```
      00 01 02 03 04 05 06 07  08 09 0A 0B 0C 0D 0E 0F
      -- -- -- -- -- -- -- --  -- -- -- -- -- -- -- --
0350:                      32  28 80 1F 00 31 80 32 80         2(...1.2.
0360: 33 80 1F 01 00                                    3....           
```

#### Opcodes

```
  0: 0x0357 [0x32] ExtData[1]->MainSpeed = 40* * 0.1
  1: 0x035A [0x1F] MOVE_ENTITY: EventEntity moves to X=67.880*, Z=8.423*, Y=-40.148*
  2: 0x0362 [0x1F] MOVE_ENTITY: Update entity position (mode=1)
  3: 0x0364 [0x00] END_REQSTACK()
```

### Event 65535.44

#### Metadata

| Field        | Value    |
|--------------|----------|
| Entrypoint   | 0x0365   |
| Data Size    | 14 bytes |
| Instructions | 4        |

```
      00 01 02 03 04 05 06 07  08 09 0A 0B 0C 0D 0E 0F
      -- -- -- -- -- -- -- --  -- -- -- -- -- -- -- --
0360:                32 0C 80  1F 00 34 80 35 80 33 80       2....4.5.3.
0370: 1F 01 00                                          ...             
```

#### Opcodes

```
  0: 0x0365 [0x32] ExtData[1]->MainSpeed = 13* * 0.1
  1: 0x0368 [0x1F] MOVE_ENTITY: EventEntity moves to X=69.170*, Z=8.146*, Y=-40.148*
  2: 0x0370 [0x1F] MOVE_ENTITY: Update entity position (mode=1)
  3: 0x0372 [0x00] END_REQSTACK()
```

### Event 65535.45

#### Metadata

| Field        | Value    |
|--------------|----------|
| Entrypoint   | 0x0373   |
| Data Size    | 14 bytes |
| Instructions | 4        |

```
      00 01 02 03 04 05 06 07  08 09 0A 0B 0C 0D 0E 0F
      -- -- -- -- -- -- -- --  -- -- -- -- -- -- -- --
0370:          32 28 80 1F 00  36 80 37 80 38 80 1F 01     2(...6.7.8...
0380: 00                                                .               
```

#### Opcodes

```
  0: 0x0373 [0x32] ExtData[1]->MainSpeed = 40* * 0.1
  1: 0x0376 [0x1F] MOVE_ENTITY: EventEntity moves to X=68.998*, Z=-5.071*, Y=-39.999*
  2: 0x037E [0x1F] MOVE_ENTITY: Update entity position (mode=1)
  3: 0x0380 [0x00] END_REQSTACK()
```

### Event 110

#### Metadata

| Field        | Value    |
|--------------|----------|
| Entrypoint   | 0x0381   |
| Data Size    | 51 bytes |
| Instructions | 5        |

```
      00 01 02 03 04 05 06 07  08 09 0A 0B 0C 0D 0E 0F
      -- -- -- -- -- -- -- --  -- -- -- -- -- -- -- --
0380:    B6 0B 1E 80 01 80 39  80 3A 80 1E 80 3B 80 1E   ......9.:...;..
0390: 80 01 80 01 80 B4 13 00  00 45 74 65 72 6E 61 6C  .........Eternal
03A0: 40 46 6C 61 6D 65 00 00  00 B5 00 00 00 92 01 F8  @Flame..........
03B0: FF FF 7F 00                                       ....            
```

#### Opcodes

```
  0: 0x0381 [0xB6] ENTITY_APPEARANCE_HANDLER(case=Full entity look, race=8*, hair=0*, head=137*, body=220*, hands=8*, legs=31*, feet=8*, main=0*, sub=0*)
  1: 0x0395 [0xB4] UI_WINDOW_STRING_HANDLER(case=0x13 - Copy string and replace @ with space, work_offset=ExtData[1]->WorkLocal[0], string="Eternal@Flame")
  2: 0x03A9 [0xB5] SET_EVENT_ENTITY_NAME: Change EventEntity name to ExtData[1]->WorkLocal[0]
  3: 0x03AD [0x92] EventEntity->Render.Flags3 ^= 0x01
  4: 0x03B3 [0x00] END_REQSTACK()
```

### Event 111

#### Metadata

| Field        | Value    |
|--------------|----------|
| Entrypoint   | 0x03B4   |
| Data Size    | 51 bytes |
| Instructions | 5        |

```
      00 01 02 03 04 05 06 07  08 09 0A 0B 0C 0D 0E 0F
      -- -- -- -- -- -- -- --  -- -- -- -- -- -- -- --
03B0:             B6 0B 1E 80  01 80 39 80 3A 80 1E 80      ......9.:...
03C0: 3B 80 1E 80 01 80 01 80  B4 13 00 00 45 74 65 72  ;...........Eter
03D0: 6E 61 6C 40 46 6C 61 6D  65 00 00 00 B5 00 00 00  nal@Flame.......
03E0: 92 01 F8 FF FF 7F 00                              .......         
```

#### Opcodes

```
  0: 0x03B4 [0xB6] ENTITY_APPEARANCE_HANDLER(case=Full entity look, race=8*, hair=0*, head=137*, body=220*, hands=8*, legs=31*, feet=8*, main=0*, sub=0*)
  1: 0x03C8 [0xB4] UI_WINDOW_STRING_HANDLER(case=0x13 - Copy string and replace @ with space, work_offset=ExtData[1]->WorkLocal[0], string="Eternal@Flame")
  2: 0x03DC [0xB5] SET_EVENT_ENTITY_NAME: Change EventEntity name to ExtData[1]->WorkLocal[0]
  3: 0x03E0 [0x92] EventEntity->Render.Flags3 ^= 0x01
  4: 0x03E6 [0x00] END_REQSTACK()
```

### Event 112

#### Metadata

| Field        | Value    |
|--------------|----------|
| Entrypoint   | 0x03E7   |
| Data Size    | 51 bytes |
| Instructions | 5        |

```
      00 01 02 03 04 05 06 07  08 09 0A 0B 0C 0D 0E 0F
      -- -- -- -- -- -- -- --  -- -- -- -- -- -- -- --
03E0:                      B6  0B 1E 80 01 80 39 80 3A         ......9.:
03F0: 80 1E 80 3B 80 1E 80 01  80 01 80 B4 13 00 00 45  ...;...........E
0400: 74 65 72 6E 61 6C 40 46  6C 61 6D 65 00 00 00 B5  ternal@Flame....
0410: 00 00 00 92 01 F8 FF FF  7F 00                    ..........      
```

#### Opcodes

```
  0: 0x03E7 [0xB6] ENTITY_APPEARANCE_HANDLER(case=Full entity look, race=8*, hair=0*, head=137*, body=220*, hands=8*, legs=31*, feet=8*, main=0*, sub=0*)
  1: 0x03FB [0xB4] UI_WINDOW_STRING_HANDLER(case=0x13 - Copy string and replace @ with space, work_offset=ExtData[1]->WorkLocal[0], string="Eternal@Flame")
  2: 0x040F [0xB5] SET_EVENT_ENTITY_NAME: Change EventEntity name to ExtData[1]->WorkLocal[0]
  3: 0x0413 [0x92] EventEntity->Render.Flags3 ^= 0x01
  4: 0x0419 [0x00] END_REQSTACK()
```

### Event 133

#### Metadata

| Field        | Value   |
|--------------|---------|
| Entrypoint   | 0x041A  |
| Data Size    | 1 bytes |
| Instructions | 1       |

```
      00 01 02 03 04 05 06 07  08 09 0A 0B 0C 0D 0E 0F
      -- -- -- -- -- -- -- --  -- -- -- -- -- -- -- --
0410:                                00                           .     
```

#### Opcodes

```
  0: 0x041A [0x00] END_REQSTACK()
```

### Event 65535.46

#### Metadata

| Field        | Value    |
|--------------|----------|
| Entrypoint   | 0x041B   |
| Data Size    | 21 bytes |
| Instructions | 2        |

```
      00 01 02 03 04 05 06 07  08 09 0A 0B 0C 0D 0E 0F
      -- -- -- -- -- -- -- --  -- -- -- -- -- -- -- --
0410:                                   B6 0B 18 80 3C             ....<
0420: 80 3D 80 3E 80 01 80 3F  80 0B 80 01 80 01 80 00  .=.>...?........
```

#### Opcodes

```
  0: 0x041B [0xB6] ENTITY_APPEARANCE_HANDLER(case=Full entity look, race=6*, hair=5*, head=115*, body=103*, hands=0*, legs=171*, feet=3*, main=0*, sub=0*)
  1: 0x042F [0x00] END_REQSTACK()
```

### Event 65535.47

#### Metadata

| Field        | Value    |
|--------------|----------|
| Entrypoint   | 0x0430   |
| Data Size    | 21 bytes |
| Instructions | 2        |

```
      00 01 02 03 04 05 06 07  08 09 0A 0B 0C 0D 0E 0F
      -- -- -- -- -- -- -- --  -- -- -- -- -- -- -- --
0430: B6 0B 3C 80 0C 80 01 80  01 80 01 80 19 80 01 80  ..<.............
0440: 01 80 01 80 00                                    .....           
```

#### Opcodes

```
  0: 0x0430 [0xB6] ENTITY_APPEARANCE_HANDLER(case=Full entity look, race=5*, hair=13*, head=0*, body=0*, hands=0*, legs=11*, feet=0*, main=0*, sub=0*)
  1: 0x0444 [0x00] END_REQSTACK()
```

### Event 65535.48

#### Metadata

| Field        | Value    |
|--------------|----------|
| Entrypoint   | 0x0445   |
| Data Size    | 21 bytes |
| Instructions | 2        |

```
      00 01 02 03 04 05 06 07  08 09 0A 0B 0C 0D 0E 0F
      -- -- -- -- -- -- -- --  -- -- -- -- -- -- -- --
0440:                B6 0B 0B  80 40 80 41 80 42 80 42       ....@.A.B.B
0450: 80 41 80 41 80 01 80 01  80 00                    .A.A......      
```

#### Opcodes

```
  0: 0x0445 [0xB6] ENTITY_APPEARANCE_HANDLER(case=Full entity look, race=3*, hair=10*, head=343*, body=334*, hands=334*, legs=343*, feet=343*, main=0*, sub=0*)
  1: 0x0459 [0x00] END_REQSTACK()
```

### Event 65535.49

#### Metadata

| Field        | Value    |
|--------------|----------|
| Entrypoint   | 0x045A   |
| Data Size    | 21 bytes |
| Instructions | 2        |

```
      00 01 02 03 04 05 06 07  08 09 0A 0B 0C 0D 0E 0F
      -- -- -- -- -- -- -- --  -- -- -- -- -- -- -- --
0450:                                B6 0B 23 80 1A 80            ..#...
0460: 43 80 44 80 44 80 44 80  44 80 01 80 01 80 00     C.D.D.D.D...... 
```

#### Opcodes

```
  0: 0x045A [0xB6] ENTITY_APPEARANCE_HANDLER(case=Full entity look, race=2*, hair=14*, head=305*, body=408*, hands=408*, legs=408*, feet=408*, main=0*, sub=0*)
  1: 0x046E [0x00] END_REQSTACK()
```

### Event 65535.50

#### Metadata

| Field        | Value    |
|--------------|----------|
| Entrypoint   | 0x046F   |
| Data Size    | 21 bytes |
| Instructions | 2        |

```
      00 01 02 03 04 05 06 07  08 09 0A 0B 0C 0D 0E 0F
      -- -- -- -- -- -- -- --  -- -- -- -- -- -- -- --
0460:                                               B6                 .
0470: 0B 17 80 0B 80 45 80 46  80 01 80 3B 80 39 80 01  .....E.F...;.9..
0480: 80 01 80 00                                       ....            
```

#### Opcodes

```
  0: 0x046F [0xB6] ENTITY_APPEARANCE_HANDLER(case=Full entity look, race=7*, hair=3*, head=480*, body=160*, hands=0*, legs=31*, feet=137*, main=0*, sub=0*)
  1: 0x0483 [0x00] END_REQSTACK()
```

### Event 65535.51

#### Metadata

| Field        | Value    |
|--------------|----------|
| Entrypoint   | 0x0484   |
| Data Size    | 21 bytes |
| Instructions | 2        |

```
      00 01 02 03 04 05 06 07  08 09 0A 0B 0C 0D 0E 0F
      -- -- -- -- -- -- -- --  -- -- -- -- -- -- -- --
0480:             B6 0B 1E 80  00 80 01 80 47 80 47 80      ........G.G.
0490: 3F 80 39 80 01 80 01 80  00                       ?.9......       
```

#### Opcodes

```
  0: 0x0484 [0xB6] ENTITY_APPEARANCE_HANDLER(case=Full entity look, race=8*, hair=4*, head=0*, body=157*, hands=157*, legs=171*, feet=137*, main=0*, sub=0*)
  1: 0x0498 [0x00] END_REQSTACK()
```

### Event 65535.52

#### Metadata

| Field        | Value    |
|--------------|----------|
| Entrypoint   | 0x0499   |
| Data Size    | 21 bytes |
| Instructions | 2        |

```
      00 01 02 03 04 05 06 07  08 09 0A 0B 0C 0D 0E 0F
      -- -- -- -- -- -- -- --  -- -- -- -- -- -- -- --
0490:                             B6 0B 23 80 07 80 01           ..#....
04A0: 80 48 80 01 80 40 80 40  80 01 80 01 80 00        .H...@.@......  
```

#### Opcodes

```
  0: 0x0499 [0xB6] ENTITY_APPEARANCE_HANDLER(case=Full entity look, race=2*, hair=1*, head=0*, body=124*, hands=0*, legs=10*, feet=10*, main=0*, sub=0*)
  1: 0x04AD [0x00] END_REQSTACK()
```

### Event 65535.53

#### Metadata

| Field        | Value    |
|--------------|----------|
| Entrypoint   | 0x04AE   |
| Data Size    | 21 bytes |
| Instructions | 2        |

```
      00 01 02 03 04 05 06 07  08 09 0A 0B 0C 0D 0E 0F
      -- -- -- -- -- -- -- --  -- -- -- -- -- -- -- --
04A0:                                            B6 0B                ..
04B0: 0B 80 07 80 01 80 49 80  01 80 49 80 49 80 01 80  ......I...I.I...
04C0: 01 80 00                                          ...             
```

#### Opcodes

```
  0: 0x04AE [0xB6] ENTITY_APPEARANCE_HANDLER(case=Full entity look, race=3*, hair=1*, head=0*, body=311*, hands=0*, legs=311*, feet=311*, main=0*, sub=0*)
  1: 0x04C2 [0x00] END_REQSTACK()
```

### Event 65535.54

#### Metadata

| Field        | Value    |
|--------------|----------|
| Entrypoint   | 0x04C3   |
| Data Size    | 21 bytes |
| Instructions | 2        |

```
      00 01 02 03 04 05 06 07  08 09 0A 0B 0C 0D 0E 0F
      -- -- -- -- -- -- -- --  -- -- -- -- -- -- -- --
04C0:          B6 0B 07 80 40  80 4A 80 24 80 24 80 4B     ....@.J.$.$.K
04D0: 80 4B 80 01 80 01 80 00                           .K......        
```

#### Opcodes

```
  0: 0x04C3 [0xB6] ENTITY_APPEARANCE_HANDLER(case=Full entity look, race=1*, hair=10*, head=205*, body=230*, hands=230*, legs=235*, feet=235*, main=0*, sub=0*)
  1: 0x04D7 [0x00] END_REQSTACK()
```

### Event 65535.55

#### Metadata

| Field        | Value    |
|--------------|----------|
| Entrypoint   | 0x04D8   |
| Data Size    | 21 bytes |
| Instructions | 2        |

```
      00 01 02 03 04 05 06 07  08 09 0A 0B 0C 0D 0E 0F
      -- -- -- -- -- -- -- --  -- -- -- -- -- -- -- --
04D0:                          B6 0B 18 80 40 80 24 80          ....@.$.
04E0: 4C 80 4C 80 23 80 23 80  01 80 01 80 00           L.L.#.#......   
```

#### Opcodes

```
  0: 0x04D8 [0xB6] ENTITY_APPEARANCE_HANDLER(case=Full entity look, race=6*, hair=10*, head=230*, body=118*, hands=118*, legs=2*, feet=2*, main=0*, sub=0*)
  1: 0x04EC [0x00] END_REQSTACK()
```

### Event 65535.56

#### Metadata

| Field        | Value    |
|--------------|----------|
| Entrypoint   | 0x04ED   |
| Data Size    | 21 bytes |
| Instructions | 2        |

```
      00 01 02 03 04 05 06 07  08 09 0A 0B 0C 0D 0E 0F
      -- -- -- -- -- -- -- --  -- -- -- -- -- -- -- --
04E0:                                         B6 0B 07               ...
04F0: 80 3C 80 4B 80 4C 80 1E  80 3F 80 3D 80 01 80 01  .<.K.L...?.=....
0500: 80 00                                             ..              
```

#### Opcodes

```
  0: 0x04ED [0xB6] ENTITY_APPEARANCE_HANDLER(case=Full entity look, race=1*, hair=5*, head=235*, body=118*, hands=8*, legs=171*, feet=115*, main=0*, sub=0*)
  1: 0x0501 [0x00] END_REQSTACK()
```

### Event 65535.57

#### Metadata

| Field        | Value    |
|--------------|----------|
| Entrypoint   | 0x0502   |
| Data Size    | 21 bytes |
| Instructions | 2        |

```
      00 01 02 03 04 05 06 07  08 09 0A 0B 0C 0D 0E 0F
      -- -- -- -- -- -- -- --  -- -- -- -- -- -- -- --
0500:       B6 0B 07 80 18 80  01 80 4D 80 01 80 4E 80    ........M...N.
0510: 4E 80 4F 80 01 80 00                              N.O....         
```

#### Opcodes

```
  0: 0x0502 [0xB6] ENTITY_APPEARANCE_HANDLER(case=Full entity look, race=1*, hair=6*, head=0*, body=177*, hands=0*, legs=20*, feet=20*, main=627*, sub=0*)
  1: 0x0516 [0x00] END_REQSTACK()
```

### Event 65535.58

#### Metadata

| Field        | Value   |
|--------------|---------|
| Entrypoint   | 0x0517  |
| Data Size    | 7 bytes |
| Instructions | 3       |

```
      00 01 02 03 04 05 06 07  08 09 0A 0B 0C 0D 0E 0F
      -- -- -- -- -- -- -- --  -- -- -- -- -- -- -- --
0510:                      AB  03 AC 01 07 80 00               .......  
```

#### Opcodes

```
  0: 0x0517 [0xAB] EventEntity->Render.Flags0 ^= 0x20000 // Toggle bit 17
  1: 0x0519 [0xAC] EventEntity->StatusEvent = 1*
  2: 0x051D [0x00] END_REQSTACK()
```

### Event 65535.59

#### Metadata

| Field        | Value   |
|--------------|---------|
| Entrypoint   | 0x051E  |
| Data Size    | 7 bytes |
| Instructions | 3       |

```
      00 01 02 03 04 05 06 07  08 09 0A 0B 0C 0D 0E 0F
      -- -- -- -- -- -- -- --  -- -- -- -- -- -- -- --
0510:                                            AC 01                ..
0520: 01 80 AB 04 00                                    .....           
```

#### Opcodes

```
  0: 0x051E [0xAC] EventEntity->StatusEvent = 0*
  1: 0x0522 [0xAB] EventEntity->Render.Flags0 |= 0x40000 // Set bit 18
  2: 0x0524 [0x00] END_REQSTACK()
```
