# 17830057

## Common Data

| Field            | Value                     |
|------------------|---------------------------|
| Zone             | Eastern Adoulin (ID: 257) |
| Block Size       | 192 bytes                 |
| Total Events     | 6                         |
| References Count | 16                        |

## List of Events

| Event ID                 | Entrypoint   |   Size |   Instructions |
|--------------------------|--------------|--------|----------------|
| [65535](#event-65535)    | 0x0000       |      1 |              1 |
| [1511](#event-1511)      | 0x0001       |     21 |              2 |
| [65535.1](#event-655351) | 0x0016       |     21 |              2 |
| [133](#event-133)        | 0x002B       |      1 |              1 |
| [65535.2](#event-655352) | 0x002C       |     21 |              2 |
| [65535.3](#event-655353) | 0x0041       |     21 |              2 |

## DAT References (imed_data)

|   Index | Hex Value   |   Dec Value |
|---------|-------------|-------------|
|       0 | 0x0002      |           2 |
|       1 | 0x000F      |          15 |
|       2 | 0x00B5      |         181 |
|       3 | 0x0012      |          18 |
|       4 | 0x0015      |          21 |
|       5 | 0x0039      |          57 |
|       6 | 0x0073      |         115 |
|       7 | 0x0000      |           0 |
|       8 | 0x0001      |           1 |
|       9 | 0x0005      |           5 |
|      10 | 0x002C      |          44 |
|      11 | 0x003A      |          58 |
|      12 | 0x0156      |         342 |
|      13 | 0x0006      |           6 |
|      14 | 0x006B      |         107 |
|      15 | 0x0017      |          23 |

## Events

### Event 65535

#### Metadata

| Field        | Value   |
|--------------|---------|
| Entrypoint   | 0x0000  |
| Data Size    | 1 bytes |
| Instructions | 1       |

```
      00 01 02 03 04 05 06 07  08 09 0A 0B 0C 0D 0E 0F
      -- -- -- -- -- -- -- --  -- -- -- -- -- -- -- --
0000: 00                                                .               
```

#### Opcodes

```
  0: 0x0000 [0x00] END_REQSTACK()
```

### Event 1511

#### Metadata

| Field        | Value    |
|--------------|----------|
| Entrypoint   | 0x0001   |
| Data Size    | 21 bytes |
| Instructions | 2        |

```
      00 01 02 03 04 05 06 07  08 09 0A 0B 0C 0D 0E 0F
      -- -- -- -- -- -- -- --  -- -- -- -- -- -- -- --
0000:    B6 0B 00 80 01 80 02  80 03 80 04 80 05 80 06   ...............
0010: 80 07 80 07 80 00                                 ......          
```

#### Opcodes

```
  0: 0x0001 [0xB6] ENTITY_APPEARANCE_HANDLER(case=Full entity look, race=2*, hair=15*, head=181*, body=18*, hands=21*, legs=57*, feet=115*, main=0*, sub=0*)
  1: 0x0015 [0x00] END_REQSTACK()
```

### Event 65535.1

#### Metadata

| Field        | Value    |
|--------------|----------|
| Entrypoint   | 0x0016   |
| Data Size    | 21 bytes |
| Instructions | 2        |

```
      00 01 02 03 04 05 06 07  08 09 0A 0B 0C 0D 0E 0F
      -- -- -- -- -- -- -- --  -- -- -- -- -- -- -- --
0010:                   B6 0B  08 80 07 80 07 80 07 80        ..........
0020: 07 80 07 80 07 80 07 80  07 80 00                 ...........     
```

#### Opcodes

```
  0: 0x0016 [0xB6] ENTITY_APPEARANCE_HANDLER(case=Full entity look, race=1*, hair=0*, head=0*, body=0*, hands=0*, legs=0*, feet=0*, main=0*, sub=0*)
  1: 0x002A [0x00] END_REQSTACK()
```

### Event 133

#### Metadata

| Field        | Value   |
|--------------|---------|
| Entrypoint   | 0x002B  |
| Data Size    | 1 bytes |
| Instructions | 1       |

```
      00 01 02 03 04 05 06 07  08 09 0A 0B 0C 0D 0E 0F
      -- -- -- -- -- -- -- --  -- -- -- -- -- -- -- --
0020:                                   00                         .    
```

#### Opcodes

```
  0: 0x002B [0x00] END_REQSTACK()
```

### Event 65535.2

#### Metadata

| Field        | Value    |
|--------------|----------|
| Entrypoint   | 0x002C   |
| Data Size    | 21 bytes |
| Instructions | 2        |

```
      00 01 02 03 04 05 06 07  08 09 0A 0B 0C 0D 0E 0F
      -- -- -- -- -- -- -- --  -- -- -- -- -- -- -- --
0020:                                      B6 0B 08 80              ....
0030: 09 80 07 80 0A 80 0B 80  0C 80 0C 80 07 80 07 80  ................
0040: 00                                                .               
```

#### Opcodes

```
  0: 0x002C [0xB6] ENTITY_APPEARANCE_HANDLER(case=Full entity look, race=1*, hair=5*, head=0*, body=44*, hands=58*, legs=342*, feet=342*, main=0*, sub=0*)
  1: 0x0040 [0x00] END_REQSTACK()
```

### Event 65535.3

#### Metadata

| Field        | Value    |
|--------------|----------|
| Entrypoint   | 0x0041   |
| Data Size    | 21 bytes |
| Instructions | 2        |

```
      00 01 02 03 04 05 06 07  08 09 0A 0B 0C 0D 0E 0F
      -- -- -- -- -- -- -- --  -- -- -- -- -- -- -- --
0040:    B6 0B 0D 80 01 80 07  80 0E 80 07 80 04 80 0F   ...............
0050: 80 07 80 07 80 00                                 ......          
```

#### Opcodes

```
  0: 0x0041 [0xB6] ENTITY_APPEARANCE_HANDLER(case=Full entity look, race=6*, hair=15*, head=0*, body=107*, hands=0*, legs=21*, feet=23*, main=0*, sub=0*)
  1: 0x0055 [0x00] END_REQSTACK()
```
