# 17830126 - Chelidoine

## Common Data

| Field            | Value                     |
|------------------|---------------------------|
| Zone             | Eastern Adoulin (ID: 257) |
| Block Size       | 932 bytes                 |
| Total Events     | 6                         |
| References Count | 49                        |

## List of Events

| Event ID              | Entrypoint   |   Size |   Instructions |
|-----------------------|--------------|--------|----------------|
| [65535](#event-65535) | 0x0000       |      1 |              1 |
| [551](#event-551)     | 0x0001       |     47 |             11 |
| [2540](#event-2540)   | 0x0030       |    387 |            106 |
| [2541](#event-2541)   | 0x01B3       |     73 |             17 |
| [2542](#event-2542)   | 0x01FC       |    145 |             41 |
| [2543](#event-2543)   | 0x028D       |     43 |              9 |

## DAT References (imed_data)

|   Index | Hex Value   |   Dec Value |
|---------|-------------|-------------|
|       0 | 0x0014      |          20 |
|       1 | 0x290E      |       10510 |
|       2 | 0x290F      |       10511 |
|       3 | 0x0000      |           0 |
|       4 | 0x1F8D      |        8077 |
|       5 | 0x1F8E      |        8078 |
|       6 | 0x1F8F      |        8079 |
|       7 | 0x1F90      |        8080 |
|       8 | 0x1F91      |        8081 |
|       9 | 0x1F95      |        8085 |
|      10 | 0x1F92      |        8082 |
|      11 | 0x0001      |           1 |
|      12 | 0x1F93      |        8083 |
|      13 | 0x1F94      |        8084 |
|      14 | 0x001F      |          31 |
|      15 | 0x1F96      |        8086 |
|      16 | 0x1F97      |        8087 |
|      17 | 0x1F98      |        8088 |
|      18 | 0x1F99      |        8089 |
|      19 | 0x1F9A      |        8090 |
|      20 | 0x0002      |           2 |
|      21 | 0x0003      |           3 |
|      22 | 0x0004      |           4 |
|      23 | 0x0005      |           5 |
|      24 | 0x0006      |           6 |
|      25 | 0x0007      |           7 |
|      26 | 0x0008      |           8 |
|      27 | 0x0009      |           9 |
|      28 | 0x1F9B      |        8091 |
|      29 | 0x000A      |          10 |
|      30 | 0x000B      |          11 |
|      31 | 0x1F9E      |        8094 |
|      32 | 0x1F9C      |        8092 |
|      33 | 0x1F9D      |        8093 |
|      34 | 0x1FA0      |        8096 |
|      35 | 0x1FA1      |        8097 |
|      36 | 0x1FA2      |        8098 |
|      37 | 0x1FA3      |        8099 |
|      38 | 0x00C9      |         201 |
|      39 | 0x1FA4      |        8100 |
|      40 | 0x1FA5      |        8101 |
|      41 | 0x1FA6      |        8102 |
|      42 | 0x1FA8      |        8104 |
|      43 | 0x1FA9      |        8105 |
|      44 | 0x1FAA      |        8106 |
|      45 | 0x1FB0      |        8112 |
|      46 | 0x1FB1      |        8113 |
|      47 | 0x1FA7      |        8103 |
|      48 | 0x1F9F      |        8095 |

## String References

- **8077**: <Sigh> Now what do I do?
- **8078**: Oh ho! Hello, stranger. Care to lend a hand?
- **8079**: I've heard about those like you and the good work you do opening up the land.
- **8080**: I've tried my hand at it myself, but I can't get the hang of it no matter what I do!
- **8081**: Is there some trick that I'm missing? Some way to make good progress? Please, let me know if you have any wisdom to share!
- **8082**: Do you have time to explain? [Sure. Poor guy needs some help./Why would I help the competition?]
- **8083**: I had hoped you would lend me a hand, but...I guess I understand.
- **8084**: I'll be right here if you ever change your mind.
- **8085**: Have you come back to tell me more about pioneering?
- **8086**: Really? You're a lifesaver!
- **8087**: Okay, let's start with the Pioneers' Coalition.
- **8088**: Any tips for [Colonization Reives/supply shipping/material procurement/ergon locus surveys/Lair Reives/morale boosting]? [[Assist other pioneers/Do not engage in battle while delivering/Gather things yourself/Find a good angle of approach/Attack from the back/Check what the target wants]./[Attack from specific locations/Using waypoints is acceptable/Buy from the auction house or pioneers/Swiftly destroy ergon loci/Don't forget gathering tools/Stay as far away as possible]./[Lure enemies away from the area/Walk slowly to avoid dropping/It's acceptable to deliver similar items/Acquire results from someone else/Assist other pioneers/Fight enemies together].]
- **8089**: Hang on, let me take some notes.
- **8090**: Next, could you help me with the [n/Couriers'/Inventors'/Scouts'/Peacekeepers'/n] Coalition?
- **8091**: And last, but not least, the Mummers' Coalition.
- **8092**: Wow, that's a lot to take in! But I'm sure what you've told me will come in handy.
- **8093**: Next time we meet, I'll let you know how things are going.
- **8094**: Are you satisfied with your responses? [Definitely./Let me reconsider.]
- **8095**: Time to turn my past failures into future successes!
- **8096**: I don't think I can possibly thank you enough!
- **8097**: I did it!!! Now I'm finally a full-fledged pioneer!
- **8098**: I don't know what I'd've done if you hadn't come along!
- **8099**: But a pioneer's work is never done. Time to get back to it!
- **8100**: Oh...hello again.
- **8101**: It was a complete and utter disaster. I don't know if I'm cut out for pioneering after all...
- **8102**: <Sigh>...
- **8103**: Let me know when you have a free minute. I'd like to go over it all again.
- **8104**: Well, I tried following your advice from earlier.
- **8105**: My efforts with the [Pioneers'/Couriers'/Inventors'/Scouts'/Peacekeepers'/Mummers'] Coalition were a [success/failure].
- **8112**: I just wish I was able to succeed in all my tasks, instead of just a couple.
- **8113**: <Sigh>...
- **10510**: This hotel's staff is the absolute paragon of hospitality, I must say. What's more, the architecture and interior design surpass even the most opulent facilities I've previously had the pleasure of visiting.
- **10511**: The only downside to surrounding oneself in such luxury is that it depletes your life savings. With not a gil to my name, I must prowl the streets like a common beggar in search of suitable employment.

## Events

### Event 65535

#### Metadata

| Field        | Value   |
|--------------|---------|
| Entrypoint   | 0x0000  |
| Data Size    | 1 bytes |
| Instructions | 1       |

```
      00 01 02 03 04 05 06 07  08 09 0A 0B 0C 0D 0E 0F
      -- -- -- -- -- -- -- --  -- -- -- -- -- -- -- --
0000: 00                                                .               
```

#### Opcodes

```
  0: 0x0000 [0x00] END_REQSTACK()
```

### Event 551

#### Metadata

| Field        | Value    |
|--------------|----------|
| Entrypoint   | 0x0001   |
| Data Size    | 47 bytes |
| Instructions | 11       |

```
      00 01 02 03 04 05 06 07  08 09 0A 0B 0C 0D 0E 0F
      -- -- -- -- -- -- -- --  -- -- -- -- -- -- -- --
0000:    1E F0 FF FF 7F 6F 70  66 00 80 F8 FF FF 7F F8   .....opf.......
0010: FF FF 7F 74 68 6B 31 1D  01 80 23 66 00 80 F8 FF  ...thk1...#f....
0020: FF 7F F8 FF FF 7F 74 68  6B 32 1D 02 80 23 21 00  ......thk2...#!.
```

#### Opcodes

```
  0: 0x0001 [0x1E] EventEntity looks at LocalPlayer and starts talking
  1: 0x0006 [0x6F] WAIT_FRAME_DELAY: Yield until WaitTime reaches zero
  2: 0x0007 [0x70] WAIT_ENTITY_RENDER_FLAG: Wait while EventEntity->Render.Flags3 bit 2 is set (cancel turn if not)
  3: 0x0008 [0x66] LOAD_EXT_SCHEDULER_MAIN: Load scheduler "thk1" with entities [EventEntity, EventEntity], work=20*
  4: 0x0017 [0x1D] PRINT_EVENT_MESSAGE(message_id=10510*)
    → "This hotel's staff is the absolute paragon of hospitality, I must say. What's more, the architecture and interior design surpass even the most opulent facilities I've previously had the pleasure of visiting."
  5: 0x001A [0x23] WAIT_FOR_DIALOG_INTERACTION
  6: 0x001B [0x66] LOAD_EXT_SCHEDULER_MAIN: Load scheduler "thk2" with entities [EventEntity, EventEntity], work=20*
  7: 0x002A [0x1D] PRINT_EVENT_MESSAGE(message_id=10511*)
    → "The only downside to surrounding oneself in such luxury is that it depletes your life savings. With not a gil to my name, I must prowl the streets like a common beggar in search of suitable employment."
  8: 0x002D [0x23] WAIT_FOR_DIALOG_INTERACTION
  9: 0x002E [0x21] END_EVENT
 10: 0x002F [0x00] END_REQSTACK()
```

### Event 2540

#### Metadata

| Field        | Value     |
|--------------|-----------|
| Entrypoint   | 0x0030    |
| Data Size    | 387 bytes |
| Instructions | 104       |

```
      00 01 02 03 04 05 06 07  08 09 0A 0B 0C 0D 0E 0F
      -- -- -- -- -- -- -- --  -- -- -- -- -- -- -- --
0030: 1E F0 FF FF 7F 42 6F 70  66 00 80 F8 FF FF 7F F8  .....Bopf.......
0040: FF FF 7F 74 6C 6B 30 02  02 10 03 80 00 66 00 1D  ...tlk0......f..
0050: 04 80 23 1D 05 80 23 1D  06 80 23 1D 07 80 23 1D  ..#...#...#...#.
0060: 08 80 23 01 6A 00 1D 09  80 23 03 01 10 03 80 24  ..#.j....#.....$
0070: 0A 80 03 80 03 80 25 02  00 10 0B 80 00 8C 00 1D  ......%.........
0080: 0C 80 23 1D 0D 80 23 21  00 01 8C 00 42 3C 01 10  ..#...#!....B<..
0090: 0E 80 0B 80 1D 0F 80 23  03 02 10 03 80 1D 10 80  .......#........
00A0: 23 24 11 80 03 80 03 80  25 02 00 10 03 80 00 B4  #$......%.......
00B0: 00 01 B4 00 40 03 80 0B  80 01 10 00 10 1D 12 80  ....@...........
00C0: 23 0B 02 10 1D 13 80 23  24 11 80 03 80 03 80 25  #......#$......%
00D0: 02 00 10 03 80 00 DB 00  01 DB 00 40 14 80 15 80  ...........@....
00E0: 01 10 00 10 1D 12 80 23  0B 02 10 1D 13 80 23 24  .......#......#$
00F0: 11 80 03 80 03 80 25 02  00 10 03 80 00 02 01 01  ......%.........
0100: 02 01 40 16 80 17 80 01  10 00 10 1D 12 80 23 0B  ..@...........#.
0110: 02 10 1D 13 80 23 24 11  80 03 80 03 80 25 02 00  .....#$......%..
0120: 10 03 80 00 29 01 01 29  01 40 18 80 19 80 01 10  ....)..).@......
0130: 00 10 1D 12 80 23 0B 02  10 1D 13 80 23 24 11 80  .....#......#$..
0140: 03 80 03 80 25 02 00 10  03 80 00 50 01 01 50 01  ....%......P..P.
0150: 40 1A 80 1B 80 01 10 00  10 1D 12 80 23 0B 02 10  @...........#...
0160: 1D 1C 80 23 24 11 80 03  80 03 80 25 02 00 10 03  ...#$......%....
0170: 80 00 77 01 01 77 01 40  1D 80 1E 80 01 10 00 10  ..w..w.@........
0180: 1D 12 80 23 24 1F 80 0B  80 03 80 25 02 00 10 0B  ...#$......%....
0190: 80 00 9A 01 01 98 00 01  9A 01 1D 20 80 23 1D 21  ........... .#.!
01A0: 80 23 66 00 80 F8 FF FF  7F F8 FF FF 7F 74 6C 6B  .#f..........tlk
01B0: 31 21 00                                          1!.             
```

#### Opcodes

```
  0: 0x0030 [0x1E] EventEntity looks at LocalPlayer and starts talking
  1: 0x0035 [0x42] SET_CLI_EVENT_CANCEL_DATA()
  2: 0x0036 [0x6F] WAIT_FRAME_DELAY: Yield until WaitTime reaches zero
  3: 0x0037 [0x70] WAIT_ENTITY_RENDER_FLAG: Wait while EventEntity->Render.Flags3 bit 2 is set (cancel turn if not)
  4: 0x0038 [0x66] LOAD_EXT_SCHEDULER_MAIN: Load scheduler "tlk0" with entities [EventEntity, EventEntity], work=20*
  5: 0x0047 [0x02] IF !(Work_Zone[2] == 0*) GOTO 0x0066
  6: 0x004F [0x1D] PRINT_EVENT_MESSAGE(message_id=8077*)
    → "<Sigh> Now what do I do?"
  7: 0x0052 [0x23] WAIT_FOR_DIALOG_INTERACTION
  8: 0x0053 [0x1D] PRINT_EVENT_MESSAGE(message_id=8078*)
    → "Oh ho! Hello, stranger. Care to lend a hand?"
  9: 0x0056 [0x23] WAIT_FOR_DIALOG_INTERACTION
 10: 0x0057 [0x1D] PRINT_EVENT_MESSAGE(message_id=8079*)
    → "I've heard about those like you and the good work you do opening up the land."
 11: 0x005A [0x23] WAIT_FOR_DIALOG_INTERACTION
 12: 0x005B [0x1D] PRINT_EVENT_MESSAGE(message_id=8080*)
    → "I've tried my hand at it myself, but I can't get the hang of it no matter what I do!"
 13: 0x005E [0x23] WAIT_FOR_DIALOG_INTERACTION
 14: 0x005F [0x1D] PRINT_EVENT_MESSAGE(message_id=8081*)
    → "Is there some trick that I'm missing? Some way to make good progress? Please, let me know if you have any wisdom to share!"
 15: 0x0062 [0x23] WAIT_FOR_DIALOG_INTERACTION
 16: 0x0063 [0x01] GOTO 0x006A
 17: 0x0066 [0x1D] PRINT_EVENT_MESSAGE(message_id=8085*)
    → "Have you come back to tell me more about pioneering?"
 18: 0x0069 [0x23] WAIT_FOR_DIALOG_INTERACTION

SUBROUTINE_006A:
 19: 0x006A [0x03] Work_Zone[1] = 0*
 20: 0x006F [0x24] CREATE_DIALOG(message_id=8082*, default_option=0*, option_flags=0*)
    → "Do you have time to explain? [Sure. Poor guy needs some help./Why would I help the competition?]"
 21: 0x0076 [0x25] WAIT_DIALOG_SELECT()
 22: 0x0077 [0x02] IF !(Work_Zone[0] == 1*) GOTO 0x008C
 23: 0x007F [0x1D] PRINT_EVENT_MESSAGE(message_id=8083*)
    → "I had hoped you would lend me a hand, but...I guess I understand."
 24: 0x0082 [0x23] WAIT_FOR_DIALOG_INTERACTION
 25: 0x0083 [0x1D] PRINT_EVENT_MESSAGE(message_id=8084*)
    → "I'll be right here if you ever change your mind."
 26: 0x0086 [0x23] WAIT_FOR_DIALOG_INTERACTION
 27: 0x0087 [0x21] END_EVENT
 28: 0x0088 [0x00] END_REQSTACK()

SUBROUTINE_008C:
 29: 0x008C [0x42] SET_CLI_EVENT_CANCEL_DATA()
 30: 0x008D [0x3C] SET_BIT_FLAG_CONDITIONAL(target_work_offset=Work_Zone[1], bit_index_work_offset=31*, condition_work_offset=1*)
 31: 0x0094 [0x1D] PRINT_EVENT_MESSAGE(message_id=8086*)
    → "Really? You're a lifesaver!"
 32: 0x0097 [0x23] WAIT_FOR_DIALOG_INTERACTION

SUBROUTINE_0098:
 33: 0x0098 [0x03] Work_Zone[2] = 0*
 34: 0x009D [0x1D] PRINT_EVENT_MESSAGE(message_id=8087*)
    → "Okay, let's start with the Pioneers' Coalition."
 35: 0x00A0 [0x23] WAIT_FOR_DIALOG_INTERACTION
 36: 0x00A1 [0x24] CREATE_DIALOG(message_id=8088*, default_option=0*, option_flags=0*)
    → "Any tips for [Colonization Reives/supply shipping/material procurement/ergon locus surveys/Lair Reives/morale boosting]? [[Assist other pioneers/Do not engage in battle while delivering/Gather things yourself/Find a good angle of approach/Attack from the back/Check what the target wants]./[Attack from specific locations/Using waypoints is acceptable/Buy from the auction house or pioneers/Swiftly destroy ergon loci/Don't forget gathering tools/Stay as far away as possible]./[Lure enemies away from the area/Walk slowly to avoid dropping/It's acceptable to deliver similar items/Acquire results from someone else/Assist other pioneers/Fight enemies together].]"
 37: 0x00A8 [0x25] WAIT_DIALOG_SELECT()
 38: 0x00A9 [0x02] IF !(Work_Zone[0] == 0*) GOTO 0x00B4
 39: 0x00B1 [0x01] GOTO 0x00B4

SUBROUTINE_00B4:
 40: 0x00B4 [0x40] SET_BIT_WORK_RANGE(start_bit=0*, end_bit=1*, target=Work_Zone[1], source=Work_Zone[0])
 41: 0x00BD [0x1D] PRINT_EVENT_MESSAGE(message_id=8089*)
    → "Hang on, let me take some notes."
 42: 0x00C0 [0x23] WAIT_FOR_DIALOG_INTERACTION
 43: 0x00C1 [0x0B] Work_Zone[2]++
 44: 0x00C4 [0x1D] PRINT_EVENT_MESSAGE(message_id=8090*)
    → "Next, could you help me with the [n/Couriers'/Inventors'/Scouts'/Peacekeepers'/n] Coalition?"
 45: 0x00C7 [0x23] WAIT_FOR_DIALOG_INTERACTION
 46: 0x00C8 [0x24] CREATE_DIALOG(message_id=8088*, default_option=0*, option_flags=0*)
    → "Any tips for [Colonization Reives/supply shipping/material procurement/ergon locus surveys/Lair Reives/morale boosting]? [[Assist other pioneers/Do not engage in battle while delivering/Gather things yourself/Find a good angle of approach/Attack from the back/Check what the target wants]./[Attack from specific locations/Using waypoints is acceptable/Buy from the auction house or pioneers/Swiftly destroy ergon loci/Don't forget gathering tools/Stay as far away as possible]./[Lure enemies away from the area/Walk slowly to avoid dropping/It's acceptable to deliver similar items/Acquire results from someone else/Assist other pioneers/Fight enemies together].]"
 47: 0x00CF [0x25] WAIT_DIALOG_SELECT()
 48: 0x00D0 [0x02] IF !(Work_Zone[0] == 0*) GOTO 0x00DB
 49: 0x00D8 [0x01] GOTO 0x00DB

SUBROUTINE_00DB:
 50: 0x00DB [0x40] SET_BIT_WORK_RANGE(start_bit=2*, end_bit=3*, target=Work_Zone[1], source=Work_Zone[0])
 51: 0x00E4 [0x1D] PRINT_EVENT_MESSAGE(message_id=8089*)
    → "Hang on, let me take some notes."
 52: 0x00E7 [0x23] WAIT_FOR_DIALOG_INTERACTION
 53: 0x00E8 [0x0B] Work_Zone[2]++
 54: 0x00EB [0x1D] PRINT_EVENT_MESSAGE(message_id=8090*)
    → "Next, could you help me with the [n/Couriers'/Inventors'/Scouts'/Peacekeepers'/n] Coalition?"
 55: 0x00EE [0x23] WAIT_FOR_DIALOG_INTERACTION
 56: 0x00EF [0x24] CREATE_DIALOG(message_id=8088*, default_option=0*, option_flags=0*)
    → "Any tips for [Colonization Reives/supply shipping/material procurement/ergon locus surveys/Lair Reives/morale boosting]? [[Assist other pioneers/Do not engage in battle while delivering/Gather things yourself/Find a good angle of approach/Attack from the back/Check what the target wants]./[Attack from specific locations/Using waypoints is acceptable/Buy from the auction house or pioneers/Swiftly destroy ergon loci/Don't forget gathering tools/Stay as far away as possible]./[Lure enemies away from the area/Walk slowly to avoid dropping/It's acceptable to deliver similar items/Acquire results from someone else/Assist other pioneers/Fight enemies together].]"
 57: 0x00F6 [0x25] WAIT_DIALOG_SELECT()
 58: 0x00F7 [0x02] IF !(Work_Zone[0] == 0*) GOTO 0x0102
 59: 0x00FF [0x01] GOTO 0x0102

SUBROUTINE_0102:
 60: 0x0102 [0x40] SET_BIT_WORK_RANGE(start_bit=4*, end_bit=5*, target=Work_Zone[1], source=Work_Zone[0])
 61: 0x010B [0x1D] PRINT_EVENT_MESSAGE(message_id=8089*)
    → "Hang on, let me take some notes."
 62: 0x010E [0x23] WAIT_FOR_DIALOG_INTERACTION
 63: 0x010F [0x0B] Work_Zone[2]++
 64: 0x0112 [0x1D] PRINT_EVENT_MESSAGE(message_id=8090*)
    → "Next, could you help me with the [n/Couriers'/Inventors'/Scouts'/Peacekeepers'/n] Coalition?"
 65: 0x0115 [0x23] WAIT_FOR_DIALOG_INTERACTION
 66: 0x0116 [0x24] CREATE_DIALOG(message_id=8088*, default_option=0*, option_flags=0*)
    → "Any tips for [Colonization Reives/supply shipping/material procurement/ergon locus surveys/Lair Reives/morale boosting]? [[Assist other pioneers/Do not engage in battle while delivering/Gather things yourself/Find a good angle of approach/Attack from the back/Check what the target wants]./[Attack from specific locations/Using waypoints is acceptable/Buy from the auction house or pioneers/Swiftly destroy ergon loci/Don't forget gathering tools/Stay as far away as possible]./[Lure enemies away from the area/Walk slowly to avoid dropping/It's acceptable to deliver similar items/Acquire results from someone else/Assist other pioneers/Fight enemies together].]"
 67: 0x011D [0x25] WAIT_DIALOG_SELECT()
 68: 0x011E [0x02] IF !(Work_Zone[0] == 0*) GOTO 0x0129
 69: 0x0126 [0x01] GOTO 0x0129

SUBROUTINE_0129:
 70: 0x0129 [0x40] SET_BIT_WORK_RANGE(start_bit=6*, end_bit=7*, target=Work_Zone[1], source=Work_Zone[0])
 71: 0x0132 [0x1D] PRINT_EVENT_MESSAGE(message_id=8089*)
    → "Hang on, let me take some notes."
 72: 0x0135 [0x23] WAIT_FOR_DIALOG_INTERACTION
 73: 0x0136 [0x0B] Work_Zone[2]++
 74: 0x0139 [0x1D] PRINT_EVENT_MESSAGE(message_id=8090*)
    → "Next, could you help me with the [n/Couriers'/Inventors'/Scouts'/Peacekeepers'/n] Coalition?"
 75: 0x013C [0x23] WAIT_FOR_DIALOG_INTERACTION
 76: 0x013D [0x24] CREATE_DIALOG(message_id=8088*, default_option=0*, option_flags=0*)
    → "Any tips for [Colonization Reives/supply shipping/material procurement/ergon locus surveys/Lair Reives/morale boosting]? [[Assist other pioneers/Do not engage in battle while delivering/Gather things yourself/Find a good angle of approach/Attack from the back/Check what the target wants]./[Attack from specific locations/Using waypoints is acceptable/Buy from the auction house or pioneers/Swiftly destroy ergon loci/Don't forget gathering tools/Stay as far away as possible]./[Lure enemies away from the area/Walk slowly to avoid dropping/It's acceptable to deliver similar items/Acquire results from someone else/Assist other pioneers/Fight enemies together].]"
 77: 0x0144 [0x25] WAIT_DIALOG_SELECT()
 78: 0x0145 [0x02] IF !(Work_Zone[0] == 0*) GOTO 0x0150
 79: 0x014D [0x01] GOTO 0x0150

SUBROUTINE_0150:
 80: 0x0150 [0x40] SET_BIT_WORK_RANGE(start_bit=8*, end_bit=9*, target=Work_Zone[1], source=Work_Zone[0])
 81: 0x0159 [0x1D] PRINT_EVENT_MESSAGE(message_id=8089*)
    → "Hang on, let me take some notes."
 82: 0x015C [0x23] WAIT_FOR_DIALOG_INTERACTION
 83: 0x015D [0x0B] Work_Zone[2]++
 84: 0x0160 [0x1D] PRINT_EVENT_MESSAGE(message_id=8091*)
    → "And last, but not least, the Mummers' Coalition."
 85: 0x0163 [0x23] WAIT_FOR_DIALOG_INTERACTION
 86: 0x0164 [0x24] CREATE_DIALOG(message_id=8088*, default_option=0*, option_flags=0*)
    → "Any tips for [Colonization Reives/supply shipping/material procurement/ergon locus surveys/Lair Reives/morale boosting]? [[Assist other pioneers/Do not engage in battle while delivering/Gather things yourself/Find a good angle of approach/Attack from the back/Check what the target wants]./[Attack from specific locations/Using waypoints is acceptable/Buy from the auction house or pioneers/Swiftly destroy ergon loci/Don't forget gathering tools/Stay as far away as possible]./[Lure enemies away from the area/Walk slowly to avoid dropping/It's acceptable to deliver similar items/Acquire results from someone else/Assist other pioneers/Fight enemies together].]"
 87: 0x016B [0x25] WAIT_DIALOG_SELECT()
 88: 0x016C [0x02] IF !(Work_Zone[0] == 0*) GOTO 0x0177
 89: 0x0174 [0x01] GOTO 0x0177

SUBROUTINE_0177:
 90: 0x0177 [0x40] SET_BIT_WORK_RANGE(start_bit=10*, end_bit=11*, target=Work_Zone[1], source=Work_Zone[0])
 91: 0x0180 [0x1D] PRINT_EVENT_MESSAGE(message_id=8089*)
    → "Hang on, let me take some notes."
 92: 0x0183 [0x23] WAIT_FOR_DIALOG_INTERACTION
 93: 0x0184 [0x24] CREATE_DIALOG(message_id=8094*, default_option=1*, option_flags=0*)
    → "Are you satisfied with your responses? [Definitely./Let me reconsider.]"
 94: 0x018B [0x25] WAIT_DIALOG_SELECT()
 95: 0x018C [0x02] IF !(Work_Zone[0] == 1*) GOTO 0x019A
 96: 0x0194 [0x01] GOTO 0x0098

SUBROUTINE_019A:
 97: 0x019A [0x1D] PRINT_EVENT_MESSAGE(message_id=8092*)
    → "Wow, that's a lot to take in! But I'm sure what you've told me will come in handy."
 98: 0x019D [0x23] WAIT_FOR_DIALOG_INTERACTION
 99: 0x019E [0x1D] PRINT_EVENT_MESSAGE(message_id=8093*)
    → "Next time we meet, I'll let you know how things are going."
100: 0x01A1 [0x23] WAIT_FOR_DIALOG_INTERACTION
101: 0x01A2 [0x66] LOAD_EXT_SCHEDULER_MAIN: Load scheduler "tlk1" with entities [EventEntity, EventEntity], work=20*
102: 0x01B1 [0x21] END_EVENT
103: 0x01B2 [0x00] END_REQSTACK()
```

#### Data or dead code:

```
# Dead code (unreachable instructions):
     0x0089 [0x01] GOTO 0x008C
# Dead code (unreachable instructions):
     0x0197 [0x01] GOTO 0x019A
```

### Event 2541

#### Metadata

| Field        | Value    |
|--------------|----------|
| Entrypoint   | 0x01B3   |
| Data Size    | 73 bytes |
| Instructions | 17       |

```
      00 01 02 03 04 05 06 07  08 09 0A 0B 0C 0D 0E 0F
      -- -- -- -- -- -- -- --  -- -- -- -- -- -- -- --
01B0:          1E F0 FF FF 7F  42 6F 70 66 00 80 F8 FF     .....Bopf....
01C0: FF 7F F8 FF FF 7F 74 6C  6B 30 1D 22 80 23 1D 23  ......tlk0.".#.#
01D0: 80 23 1D 24 80 23 1D 25  80 23 45 26 80 F8 FF FF  .#.$.#.%.#E&....
01E0: 7F F8 FF FF 7F 71 73 74  63 03 80 66 00 80 F8 FF  .....qstc..f....
01F0: FF 7F F8 FF FF 7F 74 6C  6B 31 21 00              ......tlk1!.    
```

#### Opcodes

```
  0: 0x01B3 [0x1E] EventEntity looks at LocalPlayer and starts talking
  1: 0x01B8 [0x42] SET_CLI_EVENT_CANCEL_DATA()
  2: 0x01B9 [0x6F] WAIT_FRAME_DELAY: Yield until WaitTime reaches zero
  3: 0x01BA [0x70] WAIT_ENTITY_RENDER_FLAG: Wait while EventEntity->Render.Flags3 bit 2 is set (cancel turn if not)
  4: 0x01BB [0x66] LOAD_EXT_SCHEDULER_MAIN: Load scheduler "tlk0" with entities [EventEntity, EventEntity], work=20*
  5: 0x01CA [0x1D] PRINT_EVENT_MESSAGE(message_id=8096*)
    → "I don't think I can possibly thank you enough!"
  6: 0x01CD [0x23] WAIT_FOR_DIALOG_INTERACTION
  7: 0x01CE [0x1D] PRINT_EVENT_MESSAGE(message_id=8097*)
    → "I did it!!! Now I'm finally a full-fledged pioneer!"
  8: 0x01D1 [0x23] WAIT_FOR_DIALOG_INTERACTION
  9: 0x01D2 [0x1D] PRINT_EVENT_MESSAGE(message_id=8098*)
    → "I don't know what I'd've done if you hadn't come along!"
 10: 0x01D5 [0x23] WAIT_FOR_DIALOG_INTERACTION
 11: 0x01D6 [0x1D] PRINT_EVENT_MESSAGE(message_id=8099*)
    → "But a pioneer's work is never done. Time to get back to it!"
 12: 0x01D9 [0x23] WAIT_FOR_DIALOG_INTERACTION
 13: 0x01DA [0x45] LOAD_SCHEDULED_TASK: Load scheduler "qstc" with entities [EventEntity, EventEntity], work=[201*, 0*]
 14: 0x01EB [0x66] LOAD_EXT_SCHEDULER_MAIN: Load scheduler "tlk1" with entities [EventEntity, EventEntity], work=20*
 15: 0x01FA [0x21] END_EVENT
 16: 0x01FB [0x00] END_REQSTACK()
```

### Event 2542

#### Metadata

| Field        | Value     |
|--------------|-----------|
| Entrypoint   | 0x01FC    |
| Data Size    | 145 bytes |
| Instructions | 41        |

```
      00 01 02 03 04 05 06 07  08 09 0A 0B 0C 0D 0E 0F
      -- -- -- -- -- -- -- --  -- -- -- -- -- -- -- --
01F0:                                      1E F0 FF FF              ....
0200: 7F 42 6F 70 66 00 80 F8  FF FF 7F F8 FF FF 7F 74  .Bopf..........t
0210: 6C 6B 30 03 00 00 02 10  1D 27 80 23 02 02 10 03  lk0......'.#....
0220: 80 00 2F 02 1D 28 80 23  1D 29 80 23 01 78 02 1D  ../..(.#.).#.x..
0230: 2A 80 23 03 02 10 03 80  02 02 10 18 80 03 70 02  *.#...........p.
0240: 3E 00 00 02 10 61 02 03  03 10 03 80 1D 2B 80 23  >....a.......+.#
0250: 03 04 10 2C 80 07 04 10  02 10 1D 04 10 23 01 6A  ...,.........#.j
0260: 02 03 03 10 0B 80 1D 2B  80 23 0B 02 10 01 38 02  .......+.#....8.
0270: 1D 2D 80 23 1D 2E 80 23  1D 2F 80 23 66 00 80 F8  .-.#...#./.#f...
0280: FF FF 7F F8 FF FF 7F 74  6C 6B 31 21 00           .......tlk1!.   
```

#### Opcodes

```
  0: 0x01FC [0x1E] EventEntity looks at LocalPlayer and starts talking
  1: 0x0201 [0x42] SET_CLI_EVENT_CANCEL_DATA()
  2: 0x0202 [0x6F] WAIT_FRAME_DELAY: Yield until WaitTime reaches zero
  3: 0x0203 [0x70] WAIT_ENTITY_RENDER_FLAG: Wait while EventEntity->Render.Flags3 bit 2 is set (cancel turn if not)
  4: 0x0204 [0x66] LOAD_EXT_SCHEDULER_MAIN: Load scheduler "tlk0" with entities [EventEntity, EventEntity], work=20*
  5: 0x0213 [0x03] ExtData[1]->WorkLocal[0] = Work_Zone[2]
  6: 0x0218 [0x1D] PRINT_EVENT_MESSAGE(message_id=8100*)
    → "Oh...hello again."
  7: 0x021B [0x23] WAIT_FOR_DIALOG_INTERACTION
  8: 0x021C [0x02] IF !(Work_Zone[2] == 0*) GOTO 0x022F
  9: 0x0224 [0x1D] PRINT_EVENT_MESSAGE(message_id=8101*)
    → "It was a complete and utter disaster. I don't know if I'm cut out for pioneering after all..."
 10: 0x0227 [0x23] WAIT_FOR_DIALOG_INTERACTION
 11: 0x0228 [0x1D] PRINT_EVENT_MESSAGE(message_id=8102*)
    → "<Sigh>..."
 12: 0x022B [0x23] WAIT_FOR_DIALOG_INTERACTION
 13: 0x022C [0x01] GOTO 0x0278
 14: 0x022F [0x1D] PRINT_EVENT_MESSAGE(message_id=8104*)
    → "Well, I tried following your advice from earlier."
 15: 0x0232 [0x23] WAIT_FOR_DIALOG_INTERACTION
 16: 0x0233 [0x03] Work_Zone[2] = 0*

SUBROUTINE_0238:
 17: 0x0238 [0x02] IF !(Work_Zone[2] >= 6*) GOTO 0x0270
 18: 0x0240 [0x3E] IF !(ExtData[1]->WorkLocal[0] bit Work_Zone[2]) GOTO 0x0261
 19: 0x0247 [0x03] Work_Zone[3] = 0*
 20: 0x024C [0x1D] PRINT_EVENT_MESSAGE(message_id=8105*)
    → "My efforts with the [Pioneers'/Couriers'/Inventors'/Scouts'/Peacekeepers'/Mummers'] Coalition were a [success/failure]."
 21: 0x024F [0x23] WAIT_FOR_DIALOG_INTERACTION
 22: 0x0250 [0x03] Work_Zone[4] = 8106*
 23: 0x0255 [0x07] Work_Zone[4] += Work_Zone[2]
 24: 0x025A [0x1D] PRINT_EVENT_MESSAGE(message_id=Work_Zone[4])
 25: 0x025D [0x23] WAIT_FOR_DIALOG_INTERACTION
 26: 0x025E [0x01] GOTO 0x026A
 27: 0x0261 [0x03] Work_Zone[3] = 1*
 28: 0x0266 [0x1D] PRINT_EVENT_MESSAGE(message_id=8105*)
    → "My efforts with the [Pioneers'/Couriers'/Inventors'/Scouts'/Peacekeepers'/Mummers'] Coalition were a [success/failure]."
 29: 0x0269 [0x23] WAIT_FOR_DIALOG_INTERACTION

SUBROUTINE_026A:
 30: 0x026A [0x0B] Work_Zone[2]++
 31: 0x026D [0x01] GOTO 0x0238
 32: 0x0270 [0x1D] PRINT_EVENT_MESSAGE(message_id=8112*)
    → "I just wish I was able to succeed in all my tasks, instead of just a couple."
 33: 0x0273 [0x23] WAIT_FOR_DIALOG_INTERACTION
 34: 0x0274 [0x1D] PRINT_EVENT_MESSAGE(message_id=8113*)
    → "<Sigh>..."
 35: 0x0277 [0x23] WAIT_FOR_DIALOG_INTERACTION

SUBROUTINE_0278:
 36: 0x0278 [0x1D] PRINT_EVENT_MESSAGE(message_id=8103*)
    → "Let me know when you have a free minute. I'd like to go over it all again."
 37: 0x027B [0x23] WAIT_FOR_DIALOG_INTERACTION
 38: 0x027C [0x66] LOAD_EXT_SCHEDULER_MAIN: Load scheduler "tlk1" with entities [EventEntity, EventEntity], work=20*
 39: 0x028B [0x21] END_EVENT
 40: 0x028C [0x00] END_REQSTACK()
```

### Event 2543

#### Metadata

| Field        | Value    |
|--------------|----------|
| Entrypoint   | 0x028D   |
| Data Size    | 43 bytes |
| Instructions | 9        |

```
      00 01 02 03 04 05 06 07  08 09 0A 0B 0C 0D 0E 0F
      -- -- -- -- -- -- -- --  -- -- -- -- -- -- -- --
0280:                                         1E F0 FF               ...
0290: FF 7F 6F 70 66 00 80 F8  FF FF 7F F8 FF FF 7F 74  ..opf..........t
02A0: 6C 6B 30 1D 30 80 23 66  00 80 F8 FF FF 7F F8 FF  lk0.0.#f........
02B0: FF 7F 74 6C 6B 31 21 00                           ..tlk1!.        
```

#### Opcodes

```
  0: 0x028D [0x1E] EventEntity looks at LocalPlayer and starts talking
  1: 0x0292 [0x6F] WAIT_FRAME_DELAY: Yield until WaitTime reaches zero
  2: 0x0293 [0x70] WAIT_ENTITY_RENDER_FLAG: Wait while EventEntity->Render.Flags3 bit 2 is set (cancel turn if not)
  3: 0x0294 [0x66] LOAD_EXT_SCHEDULER_MAIN: Load scheduler "tlk0" with entities [EventEntity, EventEntity], work=20*
  4: 0x02A3 [0x1D] PRINT_EVENT_MESSAGE(message_id=8095*)
    → "Time to turn my past failures into future successes!"
  5: 0x02A6 [0x23] WAIT_FOR_DIALOG_INTERACTION
  6: 0x02A7 [0x66] LOAD_EXT_SCHEDULER_MAIN: Load scheduler "tlk1" with entities [EventEntity, EventEntity], work=20*
  7: 0x02B6 [0x21] END_EVENT
  8: 0x02B7 [0x00] END_REQSTACK()
```
