# 17830075 - Dworvigg

## Common Data

| Field            | Value                     |
|------------------|---------------------------|
| Zone             | Eastern Adoulin (ID: 257) |
| Block Size       | 200 bytes                 |
| Total Events     | 6                         |
| References Count | 15                        |

## List of Events

| Event ID                 | Entrypoint   |   Size |   Instructions |
|--------------------------|--------------|--------|----------------|
| [65535](#event-65535)    | 0x0000       |      1 |              1 |
| [5026](#event-5026)      | 0x0001       |      7 |              2 |
| [65535.1](#event-655351) | 0x0008       |     19 |              5 |
| [65535.2](#event-655352) | 0x001B       |     34 |              8 |
| [65535.3](#event-655353) | 0x003D       |     14 |              4 |
| [65535.4](#event-655354) | 0x004B       |     22 |              6 |

## DAT References (imed_data)

|   Index | Hex Value   |   Dec Value |
|---------|-------------|-------------|
|       0 | 0x000D      |          13 |
|       1 | 0x02B6      |         694 |
|       2 | 0xFFFFA3B5  |  4294943669 |
|       3 | 0x0000      |           0 |
|       4 | 0x0028      |          40 |
|       5 | 0xFFFFFDD2  |  4294966738 |
|       6 | 0xFFFFA949  |  4294945097 |
|       7 | 0x000A      |          10 |
|       8 | 0xFFFFB185  |  4294947205 |
|       9 | 0xFFFFFFDA  |  4294967258 |
|      10 | 0xFFFFE478  |  4294960248 |
|      11 | 0xFFFFB22A  |  4294947370 |
|      12 | 0x053A      |        1338 |
|      13 | 0xFFFFA96B  |  4294945131 |
|      14 | 0x001E      |          30 |

## Events

### Event 65535

#### Metadata

| Field        | Value   |
|--------------|---------|
| Entrypoint   | 0x0000  |
| Data Size    | 1 bytes |
| Instructions | 1       |

```
      00 01 02 03 04 05 06 07  08 09 0A 0B 0C 0D 0E 0F
      -- -- -- -- -- -- -- --  -- -- -- -- -- -- -- --
0000: 00                                                .               
```

#### Opcodes

```
  0: 0x0000 [0x00] END_REQSTACK()
```

### Event 5026

#### Metadata

| Field        | Value   |
|--------------|---------|
| Entrypoint   | 0x0001  |
| Data Size    | 7 bytes |
| Instructions | 2       |

```
      00 01 02 03 04 05 06 07  08 09 0A 0B 0C 0D 0E 0F
      -- -- -- -- -- -- -- --  -- -- -- -- -- -- -- --
0000:    92 01 F8 FF FF 7F 00                            .......        
```

#### Opcodes

```
  0: 0x0001 [0x92] EventEntity->Render.Flags3 ^= 0x01
  1: 0x0007 [0x00] END_REQSTACK()
```

### Event 65535.1

#### Metadata

| Field        | Value    |
|--------------|----------|
| Entrypoint   | 0x0008   |
| Data Size    | 19 bytes |
| Instructions | 5        |

```
      00 01 02 03 04 05 06 07  08 09 0A 0B 0C 0D 0E 0F
      -- -- -- -- -- -- -- --  -- -- -- -- -- -- -- --
0000:                          32 00 80 1F 00 01 80 02          2.......
0010: 80 03 80 1F 01 1E B9 10  10 01 00                 ...........     
```

#### Opcodes

```
  0: 0x0008 [0x32] ExtData[1]->MainSpeed = 13* * 0.1
  1: 0x000B [0x1F] MOVE_ENTITY: EventEntity moves to X=0.694*, Z=-23.627*, Y=0.000*
  2: 0x0013 [0x1F] MOVE_ENTITY: Update entity position (mode=1)
  3: 0x0015 [0x1E] EventEntity looks at Yvermain (ID: 17830073/0x011010B9) and starts talking
  4: 0x001A [0x00] END_REQSTACK()
```

### Event 65535.2

#### Metadata

| Field        | Value    |
|--------------|----------|
| Entrypoint   | 0x001B   |
| Data Size    | 34 bytes |
| Instructions | 8        |

```
      00 01 02 03 04 05 06 07  08 09 0A 0B 0C 0D 0E 0F
      -- -- -- -- -- -- -- --  -- -- -- -- -- -- -- --
0010:                                   32 04 80 1F 00             2....
0020: 05 80 06 80 03 80 1F 01  1F 00 07 80 08 80 03 80  ................
0030: 1F 01 1F 00 09 80 0A 80  03 80 1F 01 00           .............   
```

#### Opcodes

```
  0: 0x001B [0x32] ExtData[1]->MainSpeed = 40* * 0.1
  1: 0x001E [0x1F] MOVE_ENTITY: EventEntity moves to X=-0.558*, Z=-22.199*, Y=0.000*
  2: 0x0026 [0x1F] MOVE_ENTITY: Update entity position (mode=1)
  3: 0x0028 [0x1F] MOVE_ENTITY: EventEntity moves to X=0.010*, Z=-20.091*, Y=0.000*
  4: 0x0030 [0x1F] MOVE_ENTITY: Update entity position (mode=1)
  5: 0x0032 [0x1F] MOVE_ENTITY: EventEntity moves to X=-0.038*, Z=-7.048*, Y=0.000*
  6: 0x003A [0x1F] MOVE_ENTITY: Update entity position (mode=1)
  7: 0x003C [0x00] END_REQSTACK()
```

### Event 65535.3

#### Metadata

| Field        | Value    |
|--------------|----------|
| Entrypoint   | 0x003D   |
| Data Size    | 14 bytes |
| Instructions | 4        |

```
      00 01 02 03 04 05 06 07  08 09 0A 0B 0C 0D 0E 0F
      -- -- -- -- -- -- -- --  -- -- -- -- -- -- -- --
0030:                                         32 04 80               2..
0040: 1F 00 00 80 0B 80 03 80  1F 01 00                 ...........     
```

#### Opcodes

```
  0: 0x003D [0x32] ExtData[1]->MainSpeed = 40* * 0.1
  1: 0x0040 [0x1F] MOVE_ENTITY: EventEntity moves to X=0.013*, Z=-19.926*, Y=0.000*
  2: 0x0048 [0x1F] MOVE_ENTITY: Update entity position (mode=1)
  3: 0x004A [0x00] END_REQSTACK()
```

### Event 65535.4

#### Metadata

| Field        | Value    |
|--------------|----------|
| Entrypoint   | 0x004B   |
| Data Size    | 22 bytes |
| Instructions | 6        |

```
      00 01 02 03 04 05 06 07  08 09 0A 0B 0C 0D 0E 0F
      -- -- -- -- -- -- -- --  -- -- -- -- -- -- -- --
0040:                                   32 04 80 1F 00             2....
0050: 0C 80 0D 80 03 80 1F 01  1E B9 10 10 01 1C 0E 80  ................
0060: 00                                                .               
```

#### Opcodes

```
  0: 0x004B [0x32] ExtData[1]->MainSpeed = 40* * 0.1
  1: 0x004E [0x1F] MOVE_ENTITY: EventEntity moves to X=1.338*, Z=-22.165*, Y=0.000*
  2: 0x0056 [0x1F] MOVE_ENTITY: Update entity position (mode=1)
  3: 0x0058 [0x1E] EventEntity looks at Yvermain (ID: 17830073/0x011010B9) and starts talking
  4: 0x005D [0x1C] WAIT(30* ticks)
  5: 0x0060 [0x00] END_REQSTACK()
```
