# 17830144 - Geosuke

## Common Data

| Field            | Value                     |
|------------------|---------------------------|
| Zone             | Eastern Adoulin (ID: 257) |
| Block Size       | 2972 bytes                |
| Total Events     | 21                        |
| References Count | 69                        |

## List of Events

| Event ID                 | Entrypoint   |   Size |   Instructions |
|--------------------------|--------------|--------|----------------|
| [65535](#event-65535)    | 0x0000       |   2155 |            311 |
| [5071](#event-5071)      | 0x086B       |     88 |             14 |
| [5065](#event-5065)      | 0x08C3       |      1 |              1 |
| [5068](#event-5068)      | 0x08C4       |      1 |              1 |
| [5066](#event-5066)      | 0x08C5       |      1 |              1 |
| [5067](#event-5067)      | 0x08C6       |      1 |              1 |
| [5083](#event-5083)      | 0x08C7       |     76 |             20 |
| [5084](#event-5084)      | 0x0913       |     76 |             20 |
| [5085](#event-5085)      | 0x095F       |     76 |             20 |
| [5086](#event-5086)      | 0x09AB       |     76 |             20 |
| [5087](#event-5087)      | 0x09F7       |      1 |              1 |
| [5088](#event-5088)      | 0x09F8       |      1 |              1 |
| [5089](#event-5089)      | 0x09F9       |      1 |              1 |
| [5090](#event-5090)      | 0x09FA       |      1 |              1 |
| [5072](#event-5072)      | 0x09FB       |      1 |              1 |
| [5070](#event-5070)      | 0x09FC       |      1 |              1 |
| [117](#event-117)        | 0x09FD       |      7 |              2 |
| [119](#event-119)        | 0x0A04       |      7 |              2 |
| [120](#event-120)        | 0x0A0B       |      7 |              2 |
| [65535.1](#event-655351) | 0x0A12       |     14 |              4 |
| [132](#event-132)        | 0x0A20       |      1 |              1 |

## DAT References (imed_data)

|   Index | Hex Value   |   Dec Value |
|---------|-------------|-------------|
|       0 | 0x00C8      |         200 |
|       1 | 0x0000      |           0 |
|       2 | 0x00C9      |         201 |
|       3 | 0x0001      |           1 |
|       4 | 0x002D      |          45 |
|       5 | 0x0002      |           2 |
|       6 | 0x001E      |          30 |
|       7 | 0x00D7      |         215 |
|       8 | 0x2A21      |       10785 |
|       9 | 0x0005      |           5 |
|      10 | 0x225E      |        8798 |
|      11 | 0x0F8C      |        3980 |
|      12 | 0x0F8D      |        3981 |
|      13 | 0x0F8B      |        3979 |
|      14 | 0x0F8A      |        3978 |
|      15 | 0x0003      |           3 |
|      16 | 0x17B4      |        6068 |
|      17 | 0x0F89      |        3977 |
|      18 | 0x0004      |           4 |
|      19 | 0x0F72      |        3954 |
|      20 | 0x0FAE      |        4014 |
|      21 | 0x0FAF      |        4015 |
|      22 | 0x0FAD      |        4013 |
|      23 | 0x0FAC      |        4012 |
|      24 | 0x2232      |        8754 |
|      25 | 0x2230      |        8752 |
|      26 | 0x0FC1      |        4033 |
|      27 | 0x225D      |        8797 |
|      28 | 0x0F6F      |        3951 |
|      29 | 0x0032      |          50 |
|      30 | 0x2A22      |       10786 |
|      31 | 0x1904      |        6404 |
|      32 | 0x0578      |        1400 |
|      33 | 0x013C      |         316 |
|      34 | 0x000A      |          10 |
|      35 | 0x0CB7      |        3255 |
|      36 | 0x000F      |          15 |
|      37 | 0x2A23      |       10787 |
|      38 | 0x0876      |        2166 |
|      39 | 0x00C2      |         194 |
|      40 | 0x007F      |         127 |
|      41 | 0x012C      |         300 |
|      42 | 0x0028      |          40 |
|      43 | 0x0008      |           8 |
|      44 | 0x2A58      |       10840 |
|      45 | 0x0079      |         121 |
|      46 | 0x2A2C      |       10796 |
|      47 | 0x2A59      |       10841 |
|      48 | 0x2A5A      |       10842 |
|      49 | 0x2A7B      |       10875 |
|      50 | 0x2A29      |       10793 |
|      51 | 0x0096      |         150 |
|      52 | 0x00F0      |         240 |
|      53 | 0x2A2A      |       10794 |
|      54 | 0x2A7C      |       10876 |
|      55 | 0x2A7D      |       10877 |
|      56 | 0x2A7E      |       10878 |
|      57 | 0x2A24      |       10788 |
|      58 | 0x2A25      |       10789 |
|      59 | 0x2A26      |       10790 |
|      60 | 0x0034      |          52 |
|      61 | 0x2A27      |       10791 |
|      62 | 0x2A28      |       10792 |
|      63 | 0x2A2B      |       10795 |
|      64 | 0x0CFD      |        3325 |
|      65 | 0x29D0      |       10704 |
|      66 | 0x000D      |          13 |
|      67 | 0xFFFEEE90  |  4294897296 |
|      68 | 0xFFFFD8F0  |  4294957296 |

## String References

- **6404**: The $1 $0 are returned to you.

## Events

### Event 65535

#### Metadata

| Field        | Value      |
|--------------|------------|
| Entrypoint   | 0x0000     |
| Data Size    | 2155 bytes |
| Instructions | 1          |

```
      00 01 02 03 04 05 06 07  08 09 0A 0B 0C 0D 0E 0F
      -- -- -- -- -- -- -- --  -- -- -- -- -- -- -- --
0000: 00 45 00 80 F0 FF FF 7F  F0 FF FF 7F 66 64 69 30  .E..........fdi0
0010: 01 80 55 00 80 F0 FF FF  7F F0 FF FF 7F 66 64 69  ..U..........fdi
0020: 30 1B 45 00 80 F0 FF FF  7F F0 FF FF 7F 66 64 6F  0.E..........fdo
0030: 30 01 80 55 00 80 F0 FF  FF 7F F0 FF FF 7F 66 64  0..U..........fd
0040: 6F 30 1B 45 00 80 F0 FF  FF 7F F0 FF FF 7F 66 64  o0.E..........fd
0050: 69 31 01 80 55 00 80 F0  FF FF 7F F0 FF FF 7F 66  i1..U..........f
0060: 64 69 31 1B 45 00 80 F0  FF FF 7F F0 FF FF 7F 66  di1.E..........f
0070: 64 6F 31 01 80 55 00 80  F0 FF FF 7F F0 FF FF 7F  do1..U..........
0080: 66 64 6F 31 1B 45 02 80  F0 FF FF 7F F0 FF FF 7F  fdo1.E..........
0090: 77 68 69 31 01 80 55 02  80 F0 FF FF 7F F0 FF FF  whi1..U.........
00A0: 7F 77 68 69 31 1B 45 02  80 F0 FF FF 7F F0 FF FF  .whi1.E.........
00B0: 7F 77 68 6F 31 01 80 55  02 80 F0 FF FF 7F F0 FF  .who1..U........
00C0: FF 7F 77 68 6F 31 1B 45  02 80 F0 FF FF 7F F0 FF  ..who1.E........
00D0: FF 7F 77 68 6F 32 01 80  55 02 80 F0 FF FF 7F F0  ..who2..U.......
00E0: FF FF 7F 77 68 6F 32 1B  45 02 80 F0 FF FF 7F F0  ...who2.E.......
00F0: FF FF 7F 77 68 6F 33 01  80 55 02 80 F0 FF FF 7F  ...who3..U......
0100: F0 FF FF 7F 77 68 6F 33  1B 62 03 80 F0 FF FF 7F  ....who3.b......
0110: F0 FF FF 7F 6D 61 69 6E  01 80 1C 04 80 45 00 80  ....main.....E..
0120: F0 FF FF 7F F0 FF FF 7F  66 64 6F 31 01 80 55 00  ........fdo1..U.
0130: 80 F0 FF FF 7F F0 FF FF  7F 66 64 6F 31 1B 45 00  .........fdo1.E.
0140: 80 F0 FF FF 7F F0 FF FF  7F 66 64 69 31 01 80 62  .........fdi1..b
0150: 05 80 F0 FF FF 7F F0 FF  FF 7F 6D 61 69 6E 01 80  ..........main..
0160: 1C 06 80 55 00 80 F0 FF  FF 7F F0 FF FF 7F 66 64  ...U..........fd
0170: 69 31 1B 45 00 80 F0 FF  FF 7F F0 FF FF 7F 62 6C  i1.E..........bl
0180: 6F 6E 01 80 45 02 80 F0  FF FF 7F F0 FF FF 7F 62  on..E..........b
0190: 6C 6F 6E 01 80 1B 45 02  80 F0 FF FF 7F F0 FF FF  lon...E.........
01A0: 7F 77 68 69 30 01 80 55  02 80 F0 FF FF 7F F0 FF  .whi0..U........
01B0: FF 7F 77 68 69 30 1B 45  02 80 F0 FF FF 7F F0 FF  ..whi0.E........
01C0: FF 7F 77 68 6F 30 01 80  55 02 80 F0 FF FF 7F F0  ..who0..U.......
01D0: FF FF 7F 77 68 6F 30 1B  45 07 80 F0 FF FF 7F F0  ...who0.E.......
01E0: FF FF 7F 65 66 6F 6E 01  80 55 07 80 F0 FF FF 7F  ...efon..U......
01F0: F0 FF FF 7F 65 66 6F 6E  1B 45 00 80 F0 FF FF 7F  ....efon.E......
0200: F0 FF FF 7F 66 64 69 73  01 80 1B 45 00 80 F0 FF  ....fdis...E....
0210: FF 7F F0 FF FF 7F 66 64  6F 73 01 80 55 00 80 F0  ......fdos..U...
0220: FF FF 7F F0 FF FF 7F 66  64 6F 73 1B 45 00 80 F0  .......fdos.E...
0230: FF FF 7F F0 FF FF 7F 66  64 69 66 01 80 1B 45 00  .......fdif...E.
0240: 80 F0 FF FF 7F F0 FF FF  7F 66 64 6F 66 01 80 55  .........fdof..U
0250: 00 80 F0 FF FF 7F F0 FF  FF 7F 66 64 6F 66 1B 45  ..........fdof.E
0260: 00 80 F0 FF FF 7F F0 FF  FF 7F 66 64 69 70 01 80  ..........fdip..
0270: 1B 45 00 80 F0 FF FF 7F  F0 FF FF 7F 66 64 6F 70  .E..........fdop
0280: 01 80 55 00 80 F0 FF FF  7F F0 FF FF 7F 66 64 6F  ..U..........fdo
0290: 70 1B 02 0E 00 03 80 00  9D 02 01 17 05 2B FF 10  p............+..
02A0: 10 01 08 80 23 02 04 00  03 80 80 C5 02 02 06 00  ....#...........
02B0: 09 80 80 C2 02 03 03 10  0A 80 03 04 10 0B 00 01  ................
02C0: C2 02 01 AD 04 02 04 00  05 80 80 99 03 02 06 00  ................
02D0: 03 80 80 02 03 02 05 00  03 80 80 EA 02 03 03 10  ................
02E0: 0B 80 03 04 10 03 80 01  FF 02 02 05 00 05 80 80  ................
02F0: FF 02 03 03 10 0C 80 03  04 10 03 80 01 FF 02 01  ................
0300: 96 03 02 06 00 05 80 80  37 03 02 05 00 03 80 80  ........7.......
0310: 1F 03 03 03 10 0D 80 03  04 10 03 80 01 34 03 02  .............4..
0320: 05 00 05 80 80 34 03 03  03 10 0E 80 03 04 10 03  .....4..........
0330: 80 01 34 03 01 96 03 02  06 00 0F 80 80 6C 03 02  ..4..........l..
0340: 05 00 03 80 80 54 03 03  03 10 10 80 03 04 10 03  .....T..........
0350: 80 01 69 03 02 05 00 05  80 80 69 03 03 03 10 11  ..i.......i.....
0360: 80 03 04 10 03 80 01 69  03 01 96 03 02 06 00 12  .......i........
0370: 80 80 81 03 03 03 10 13  80 03 04 10 0B 00 01 96  ................
0380: 03 02 06 00 09 80 80 96  03 03 03 10 0A 80 03 04  ................
0390: 10 0B 00 01 96 03 01 AD  04 02 04 00 0F 80 80 6D  ...............m
03A0: 04 02 06 00 03 80 80 D6  03 02 05 00 03 80 80 BE  ................
03B0: 03 03 03 10 14 80 03 04  10 03 80 01 D3 03 02 05  ................
03C0: 00 05 80 80 D3 03 03 03  10 15 80 03 04 10 03 80  ................
03D0: 01 D3 03 01 6A 04 02 06  00 05 80 80 0B 04 02 05  ....j...........
03E0: 00 03 80 80 F3 03 03 03  10 16 80 03 04 10 03 80  ................
03F0: 01 08 04 02 05 00 05 80  80 08 04 03 03 10 17 80  ................
0400: 03 04 10 03 80 01 08 04  01 6A 04 02 06 00 0F 80  .........j......
0410: 80 40 04 02 05 00 03 80  80 28 04 03 03 10 18 80  .@.......(......
0420: 03 04 10 03 80 01 3D 04  02 05 00 05 80 80 3D 04  ......=.......=.
0430: 03 03 10 19 80 03 04 10  03 80 01 3D 04 01 6A 04  ...........=..j.
0440: 02 06 00 12 80 80 55 04  03 03 10 1A 80 03 04 10  ......U.........
0450: 0B 00 01 6A 04 02 06 00  09 80 80 6A 04 03 03 10  ...j.......j....
0460: 0A 80 03 04 10 0B 00 01  6A 04 01 AD 04 02 04 00  ........j.......
0470: 12 80 80 AD 04 02 06 00  03 80 80 8A 04 03 03 10  ................
0480: 1B 80 03 04 10 03 80 01  AA 04 02 06 00 12 80 80  ................
0490: 9A 04 03 03 10 1C 80 01  AA 04 02 06 00 09 80 80  ................
04A0: AA 04 03 03 10 0A 80 01  AA 04 01 AD 04 02 0C 00  ................
04B0: 01 80 01 07 05 66 1D 80  FF 10 10 01 FF 10 10 01  .....f..........
04C0: 70 61 73 30 2B FF 10 10  01 1E 80 23 03 02 10 03  pas0+......#....
04D0: 10 02 06 00 12 80 80 E1  04 03 03 10 0C 00 01 F6  ................
04E0: 04 02 06 00 09 80 80 F1  04 03 03 10 0C 00 01 F6  ................
04F0: 04 03 03 10 03 80 48 1F  80 23 53 FF 10 10 01 FF  ......H..#S.....
0500: 10 10 01 70 61 73 30 02  0D 00 03 80 00 15 05 01  ...pas0.........
0510: 17 05 01 17 05 21 00 5D  01 80 20 80 1C 06 80 AD  .....!.].. .....
0520: 02 21 80 00 11 10 01 00  11 10 01 1C 22 80 5B 23  .!..........".[#
0530: 80 00 11 10 01 00 11 10  01 6D 67 6B 30 1C 24 80  .........mgk0.$.
0540: 4A FF 10 10 01 00 11 10  01 6F 76 FF 10 10 01 1C  J........ov.....
0550: 24 80 2B FF 10 10 01 25  80 1C 22 80 C4 02 26 80  $.+....%.."...&.
0560: 00 11 10 01 00 11 10 01  1C 27 80 23 1A A6 00 5D  .........'.#...]
0570: 28 80 29 80 1C 2A 80 6B  69 64 6C 30 00 11 10 01  (.)..*.kidl0....
0580: 1C 2A 80 1A 85 00 4A 00  11 10 01 FF 10 10 01 6F  .*....J........o
0590: 76 00 11 10 01 02 04 00  03 80 00 55 07 02 05 00  v..........U....
05A0: 03 80 80 56 06 66 2B 80  FF 10 10 01 FF 10 10 01  ...V.f+.........
05B0: 75 72 65 30 2B FF 10 10  01 2C 80 23 53 FF 10 10  ure0+....,.#S...
05C0: 01 FF 10 10 01 75 72 65  30 4A FF 10 10 01 F0 FF  .....ure0J......
05D0: FF 7F 6F 76 FF 10 10 01  66 2D 80 FF 10 10 01 FF  ..ov....f-......
05E0: 10 10 01 70 61 73 30 2B  FF 10 10 01 2E 80 23 4A  ...pas0+......#J
05F0: 00 11 10 01 F0 FF FF 7F  6F 76 00 11 10 01 53 FF  ........ov....S.
0600: 10 10 01 FF 10 10 01 70  61 73 30 66 1D 80 FF 10  .......pas0f....
0610: 10 01 FF 10 10 01 74 68  6B 31 2B FF 10 10 01 2F  ......thk1+..../
0620: 80 23 53 FF 10 10 01 FF  10 10 01 74 68 6B 31 66  .#S........thk1f
0630: 1D 80 FF 10 10 01 FF 10  10 01 74 68 6B 32 2B FF  ..........thk2+.
0640: 10 10 01 30 80 23 53 FF  10 10 01 FF 10 10 01 74  ...0.#S........t
0650: 68 6B 32 01 52 07 02 05  00 05 80 80 52 07 66 2B  hk2.R.......R.f+
0660: 80 FF 10 10 01 FF 10 10  01 75 72 65 30 2B FF 10  .........ure0+..
0670: 10 01 31 80 23 53 FF 10  10 01 FF 10 10 01 75 72  ..1.#S........ur
0680: 65 30 2B FF 10 10 01 32  80 23 1C 06 80 9F 27 80  e0+....2.#....'.
0690: FF 10 10 01 FF 10 10 01  66 72 73 74 01 80 1C 33  ........frst...3
06A0: 80 9F 27 80 FF 10 10 01  FF 10 10 01 6F 6B 65 78  ..'.........okex
06B0: 01 80 1C 34 80 2B FF 10  10 01 35 80 23 4A FF 10  ...4.+....5.#J..
06C0: 10 01 F0 FF FF 7F 6F 76  FF 10 10 01 66 2D 80 FF  ......ov....f-..
06D0: 10 10 01 FF 10 10 01 70  61 73 30 2B FF 10 10 01  .......pas0+....
06E0: 2E 80 23 4A 00 11 10 01  F0 FF FF 7F 6F 76 00 11  ..#J........ov..
06F0: 10 01 53 FF 10 10 01 FF  10 10 01 70 61 73 30 66  ..S........pas0f
0700: 1D 80 FF 10 10 01 FF 10  10 01 74 68 6B 31 2B FF  ..........thk1+.
0710: 10 10 01 36 80 23 2B FF  10 10 01 37 80 23 53 FF  ...6.#+....7.#S.
0720: 10 10 01 FF 10 10 01 74  68 6B 31 66 1D 80 FF 10  .......thk1f....
0730: 10 01 FF 10 10 01 74 68  6B 32 2B FF 10 10 01 38  ......thk2+....8
0740: 80 23 53 FF 10 10 01 FF  10 10 01 74 68 6B 32 01  .#S........thk2.
0750: 52 07 01 63 08 66 2B 80  FF 10 10 01 FF 10 10 01  R..c.f+.........
0760: 61 77 77 30 2B FF 10 10  01 39 80 23 53 FF 10 10  aww0+....9.#S...
0770: 01 FF 10 10 01 61 77 77  30 2B FF 10 10 01 3A 80  .....aww0+....:.
0780: 23 66 2B 80 FF 10 10 01  FF 10 10 01 75 72 65 30  #f+.........ure0
0790: 2B FF 10 10 01 3B 80 23  53 FF 10 10 01 FF 10 10  +....;.#S.......
07A0: 01 75 72 65 30 1C 22 80  4A FF 10 10 01 F0 FF FF  .ure0.".J.......
07B0: 7F 6F 76 FF 10 10 01 1C  06 80 66 3C 80 FF 10 10  .ov.......f<....
07C0: 01 FF 10 10 01 77 61 76  30 2B FF 10 10 01 3D 80  .....wav0+....=.
07D0: 23 53 FF 10 10 01 FF 10  10 01 77 61 76 30 02 05  #S........wav0..
07E0: 00 03 80 80 F1 07 2B FF  10 10 01 3E 80 23 01 3F  ......+....>.#.?
07F0: 08 02 05 00 05 80 80 3F  08 2B FF 10 10 01 32 80  .......?.+....2.
0800: 23 1C 06 80 9F 27 80 FF  10 10 01 FF 10 10 01 66  #....'.........f
0810: 72 73 74 01 80 1C 33 80  9F 27 80 FF 10 10 01 FF  rst...3..'......
0820: 10 10 01 6F 6B 65 78 01  80 1C 34 80 2B FF 10 10  ...okex...4.+...
0830: 01 35 80 23 2B FF 10 10  01 3F 80 23 01 3F 08 66  .5.#+....?.#.?.f
0840: 1D 80 FF 10 10 01 FF 10  10 01 70 61 73 30 2B FF  ..........pas0+.
0850: 10 10 01 2E 80 23 53 FF  10 10 01 FF 10 10 01 70  .....#S........p
0860: 61 73 30 3C 01 10 12 80  03 80 1B                 as0<.......     
```

#### Opcodes

```
  0: 0x0000 [0x00] END_REQSTACK()
```

#### Data or dead code:

```
# Dead code (unreachable instructions):
     0x0001 [0x45] LOAD_SCHEDULED_TASK: Load scheduler "fdi0" with entities [LocalPlayer, LocalPlayer], work=[200*, 0*]
     0x0012 [0x55] WAIT_LOAD_SCHEDULER: Wait for scheduler "fdi0" with entities [LocalPlayer, LocalPlayer], work=200*
     0x0021 [0x1B] RETURN
     0x0022 [0x45] LOAD_SCHEDULED_TASK: Load scheduler "fdo0" with entities [LocalPlayer, LocalPlayer], work=[200*, 0*]
     0x0033 [0x55] WAIT_LOAD_SCHEDULER: Wait for scheduler "fdo0" with entities [LocalPlayer, LocalPlayer], work=200*
     0x0042 [0x1B] RETURN
     0x0043 [0x45] LOAD_SCHEDULED_TASK: Load scheduler "fdi1" with entities [LocalPlayer, LocalPlayer], work=[200*, 0*]
     0x0054 [0x55] WAIT_LOAD_SCHEDULER: Wait for scheduler "fdi1" with entities [LocalPlayer, LocalPlayer], work=200*
     0x0063 [0x1B] RETURN
     0x0064 [0x45] LOAD_SCHEDULED_TASK: Load scheduler "fdo1" with entities [LocalPlayer, LocalPlayer], work=[200*, 0*]
     0x0075 [0x55] WAIT_LOAD_SCHEDULER: Wait for scheduler "fdo1" with entities [LocalPlayer, LocalPlayer], work=200*
     0x0084 [0x1B] RETURN
     0x0085 [0x45] LOAD_SCHEDULED_TASK: Load scheduler "whi1" with entities [LocalPlayer, LocalPlayer], work=[201*, 0*]
     0x0096 [0x55] WAIT_LOAD_SCHEDULER: Wait for scheduler "whi1" with entities [LocalPlayer, LocalPlayer], work=201*
     0x00A5 [0x1B] RETURN
     0x00A6 [0x45] LOAD_SCHEDULED_TASK: Load scheduler "who1" with entities [LocalPlayer, LocalPlayer], work=[201*, 0*]
     0x00B7 [0x55] WAIT_LOAD_SCHEDULER: Wait for scheduler "who1" with entities [LocalPlayer, LocalPlayer], work=201*
     0x00C6 [0x1B] RETURN
     0x00C7 [0x45] LOAD_SCHEDULED_TASK: Load scheduler "who2" with entities [LocalPlayer, LocalPlayer], work=[201*, 0*]
     0x00D8 [0x55] WAIT_LOAD_SCHEDULER: Wait for scheduler "who2" with entities [LocalPlayer, LocalPlayer], work=201*
     0x00E7 [0x1B] RETURN
     0x00E8 [0x45] LOAD_SCHEDULED_TASK: Load scheduler "who3" with entities [LocalPlayer, LocalPlayer], work=[201*, 0*]
     0x00F9 [0x55] WAIT_LOAD_SCHEDULER: Wait for scheduler "who3" with entities [LocalPlayer, LocalPlayer], work=201*
     0x0108 [0x1B] RETURN
     0x0109 [0x62] LOAD_EVENT_SCHEDULER: Load scheduler "main" with entities [LocalPlayer, LocalPlayer], work=[1*, 0*]
     0x011A [0x1C] WAIT(45* ticks)
     0x011D [0x45] LOAD_SCHEDULED_TASK: Load scheduler "fdo1" with entities [LocalPlayer, LocalPlayer], work=[200*, 0*]
     0x012E [0x55] WAIT_LOAD_SCHEDULER: Wait for scheduler "fdo1" with entities [LocalPlayer, LocalPlayer], work=200*
     0x013D [0x1B] RETURN
     0x013E [0x45] LOAD_SCHEDULED_TASK: Load scheduler "fdi1" with entities [LocalPlayer, LocalPlayer], work=[200*, 0*]
     0x014F [0x62] LOAD_EVENT_SCHEDULER: Load scheduler "main" with entities [LocalPlayer, LocalPlayer], work=[2*, 0*]
     0x0160 [0x1C] WAIT(30* ticks)
     0x0163 [0x55] WAIT_LOAD_SCHEDULER: Wait for scheduler "fdi1" with entities [LocalPlayer, LocalPlayer], work=200*
     0x0172 [0x1B] RETURN
     0x0173 [0x45] LOAD_SCHEDULED_TASK: Load scheduler "blon" with entities [LocalPlayer, LocalPlayer], work=[200*, 0*]
     0x0184 [0x45] LOAD_SCHEDULED_TASK: Load scheduler "blon" with entities [LocalPlayer, LocalPlayer], work=[201*, 0*]
     0x0195 [0x1B] RETURN
     0x0196 [0x45] LOAD_SCHEDULED_TASK: Load scheduler "whi0" with entities [LocalPlayer, LocalPlayer], work=[201*, 0*]
     0x01A7 [0x55] WAIT_LOAD_SCHEDULER: Wait for scheduler "whi0" with entities [LocalPlayer, LocalPlayer], work=201*
     0x01B6 [0x1B] RETURN
     0x01B7 [0x45] LOAD_SCHEDULED_TASK: Load scheduler "who0" with entities [LocalPlayer, LocalPlayer], work=[201*, 0*]
     0x01C8 [0x55] WAIT_LOAD_SCHEDULER: Wait for scheduler "who0" with entities [LocalPlayer, LocalPlayer], work=201*
     0x01D7 [0x1B] RETURN
     0x01D8 [0x45] LOAD_SCHEDULED_TASK: Load scheduler "efon" with entities [LocalPlayer, LocalPlayer], work=[215*, 0*]
     0x01E9 [0x55] WAIT_LOAD_SCHEDULER: Wait for scheduler "efon" with entities [LocalPlayer, LocalPlayer], work=215*
     0x01F8 [0x1B] RETURN
     0x01F9 [0x45] LOAD_SCHEDULED_TASK: Load scheduler "fdis" with entities [LocalPlayer, LocalPlayer], work=[200*, 0*]
     0x020A [0x1B] RETURN
     0x020B [0x45] LOAD_SCHEDULED_TASK: Load scheduler "fdos" with entities [LocalPlayer, LocalPlayer], work=[200*, 0*]
     0x021C [0x55] WAIT_LOAD_SCHEDULER: Wait for scheduler "fdos" with entities [LocalPlayer, LocalPlayer], work=200*
     0x022B [0x1B] RETURN
     0x022C [0x45] LOAD_SCHEDULED_TASK: Load scheduler "fdif" with entities [LocalPlayer, LocalPlayer], work=[200*, 0*]
     0x023D [0x1B] RETURN
     0x023E [0x45] LOAD_SCHEDULED_TASK: Load scheduler "fdof" with entities [LocalPlayer, LocalPlayer], work=[200*, 0*]
     0x024F [0x55] WAIT_LOAD_SCHEDULER: Wait for scheduler "fdof" with entities [LocalPlayer, LocalPlayer], work=200*
     0x025E [0x1B] RETURN
     0x025F [0x45] LOAD_SCHEDULED_TASK: Load scheduler "fdip" with entities [LocalPlayer, LocalPlayer], work=[200*, 0*]
     0x0270 [0x1B] RETURN
     0x0271 [0x45] LOAD_SCHEDULED_TASK: Load scheduler "fdop" with entities [LocalPlayer, LocalPlayer], work=[200*, 0*]
     0x0282 [0x55] WAIT_LOAD_SCHEDULER: Wait for scheduler "fdop" with entities [LocalPlayer, LocalPlayer], work=200*
     0x0291 [0x1B] RETURN
     0x0292 [0x02] IF !(ExtData[1]->WorkLocal[14] == 1*) GOTO 0x029D
     0x029A [0x01] GOTO 0x0517
     0x029D [0x2B] Runje Desaali (ID: 17830143/0x011010FF) [10785*]:
    → "Grrreat!"
     0x02A4 [0x23] WAIT_FOR_DIALOG_INTERACTION
     0x02A5 [0x02] IF !(ExtData[1]->WorkLocal[4] == 1*) GOTO 0x02C5
     0x02AD [0x02] IF !(ExtData[1]->WorkLocal[6] == 5*) GOTO 0x02C2
     0x02B5 [0x03] Work_Zone[3] = 8798*
     0x02BA [0x03] Work_Zone[4] = ExtData[1]->WorkLocal[11]
     0x02BF [0x01] GOTO 0x02C2
     0x02C2 [0x01] GOTO 0x04AD
     0x02C5 [0x02] IF !(ExtData[1]->WorkLocal[4] == 2*) GOTO 0x0399
     0x02CD [0x02] IF !(ExtData[1]->WorkLocal[6] == 1*) GOTO 0x0302
     0x02D5 [0x02] IF !(ExtData[1]->WorkLocal[5] == 1*) GOTO 0x02EA
     0x02DD [0x03] Work_Zone[3] = 3980*
     0x02E2 [0x03] Work_Zone[4] = 1*
     0x02E7 [0x01] GOTO 0x02FF
     0x02EA [0x02] IF !(ExtData[1]->WorkLocal[5] == 2*) GOTO 0x02FF
     0x02F2 [0x03] Work_Zone[3] = 3981*
     0x02F7 [0x03] Work_Zone[4] = 1*
     0x02FC [0x01] GOTO 0x02FF
     0x02FF [0x01] GOTO 0x0396
     0x0302 [0x02] IF !(ExtData[1]->WorkLocal[6] == 2*) GOTO 0x0337
     0x030A [0x02] IF !(ExtData[1]->WorkLocal[5] == 1*) GOTO 0x031F
     0x0312 [0x03] Work_Zone[3] = 3979*
     0x0317 [0x03] Work_Zone[4] = 1*
     0x031C [0x01] GOTO 0x0334
     0x031F [0x02] IF !(ExtData[1]->WorkLocal[5] == 2*) GOTO 0x0334
     0x0327 [0x03] Work_Zone[3] = 3978*
     0x032C [0x03] Work_Zone[4] = 1*
     0x0331 [0x01] GOTO 0x0334
     0x0334 [0x01] GOTO 0x0396
     0x0337 [0x02] IF !(ExtData[1]->WorkLocal[6] == 3*) GOTO 0x036C
     0x033F [0x02] IF !(ExtData[1]->WorkLocal[5] == 1*) GOTO 0x0354
     0x0347 [0x03] Work_Zone[3] = 6068*
     0x034C [0x03] Work_Zone[4] = 1*
     0x0351 [0x01] GOTO 0x0369
     0x0354 [0x02] IF !(ExtData[1]->WorkLocal[5] == 2*) GOTO 0x0369
     0x035C [0x03] Work_Zone[3] = 3977*
     0x0361 [0x03] Work_Zone[4] = 1*
     0x0366 [0x01] GOTO 0x0369
     0x0369 [0x01] GOTO 0x0396
     0x036C [0x02] IF !(ExtData[1]->WorkLocal[6] == 4*) GOTO 0x0381
     0x0374 [0x03] Work_Zone[3] = 3954*
     0x0379 [0x03] Work_Zone[4] = ExtData[1]->WorkLocal[11]
     0x037E [0x01] GOTO 0x0396
     0x0381 [0x02] IF !(ExtData[1]->WorkLocal[6] == 5*) GOTO 0x0396
     0x0389 [0x03] Work_Zone[3] = 8798*
     0x038E [0x03] Work_Zone[4] = ExtData[1]->WorkLocal[11]
     0x0393 [0x01] GOTO 0x0396
     0x0396 [0x01] GOTO 0x04AD
     0x0399 [0x02] IF !(ExtData[1]->WorkLocal[4] == 3*) GOTO 0x046D
     0x03A1 [0x02] IF !(ExtData[1]->WorkLocal[6] == 1*) GOTO 0x03D6
     0x03A9 [0x02] IF !(ExtData[1]->WorkLocal[5] == 1*) GOTO 0x03BE
     0x03B1 [0x03] Work_Zone[3] = 4014*
     0x03B6 [0x03] Work_Zone[4] = 1*
     0x03BB [0x01] GOTO 0x03D3
     0x03BE [0x02] IF !(ExtData[1]->WorkLocal[5] == 2*) GOTO 0x03D3
     0x03C6 [0x03] Work_Zone[3] = 4015*
     0x03CB [0x03] Work_Zone[4] = 1*
     0x03D0 [0x01] GOTO 0x03D3
     0x03D3 [0x01] GOTO 0x046A
     0x03D6 [0x02] IF !(ExtData[1]->WorkLocal[6] == 2*) GOTO 0x040B
     0x03DE [0x02] IF !(ExtData[1]->WorkLocal[5] == 1*) GOTO 0x03F3
     0x03E6 [0x03] Work_Zone[3] = 4013*
     0x03EB [0x03] Work_Zone[4] = 1*
     0x03F0 [0x01] GOTO 0x0408
     0x03F3 [0x02] IF !(ExtData[1]->WorkLocal[5] == 2*) GOTO 0x0408
     0x03FB [0x03] Work_Zone[3] = 4012*
     0x0400 [0x03] Work_Zone[4] = 1*
     0x0405 [0x01] GOTO 0x0408
     0x0408 [0x01] GOTO 0x046A
     0x040B [0x02] IF !(ExtData[1]->WorkLocal[6] == 3*) GOTO 0x0440
     0x0413 [0x02] IF !(ExtData[1]->WorkLocal[5] == 1*) GOTO 0x0428
     0x041B [0x03] Work_Zone[3] = 8754*
     0x0420 [0x03] Work_Zone[4] = 1*
     0x0425 [0x01] GOTO 0x043D
     0x0428 [0x02] IF !(ExtData[1]->WorkLocal[5] == 2*) GOTO 0x043D
     0x0430 [0x03] Work_Zone[3] = 8752*
     0x0435 [0x03] Work_Zone[4] = 1*
     0x043A [0x01] GOTO 0x043D
     0x043D [0x01] GOTO 0x046A
     0x0440 [0x02] IF !(ExtData[1]->WorkLocal[6] == 4*) GOTO 0x0455
     0x0448 [0x03] Work_Zone[3] = 4033*
     0x044D [0x03] Work_Zone[4] = ExtData[1]->WorkLocal[11]
     0x0452 [0x01] GOTO 0x046A
     0x0455 [0x02] IF !(ExtData[1]->WorkLocal[6] == 5*) GOTO 0x046A
     0x045D [0x03] Work_Zone[3] = 8798*
     0x0462 [0x03] Work_Zone[4] = ExtData[1]->WorkLocal[11]
     0x0467 [0x01] GOTO 0x046A
     0x046A [0x01] GOTO 0x04AD
     0x046D [0x02] IF !(ExtData[1]->WorkLocal[4] == 4*) GOTO 0x04AD
     0x0475 [0x02] IF !(ExtData[1]->WorkLocal[6] == 1*) GOTO 0x048A
     0x047D [0x03] Work_Zone[3] = 8797*
     0x0482 [0x03] Work_Zone[4] = 1*
     0x0487 [0x01] GOTO 0x04AA
     0x048A [0x02] IF !(ExtData[1]->WorkLocal[6] == 4*) GOTO 0x049A
     0x0492 [0x03] Work_Zone[3] = 3951*
     0x0497 [0x01] GOTO 0x04AA
     0x049A [0x02] IF !(ExtData[1]->WorkLocal[6] == 5*) GOTO 0x04AA
     0x04A2 [0x03] Work_Zone[3] = 8798*
     0x04A7 [0x01] GOTO 0x04AA
     0x04AA [0x01] GOTO 0x04AD
     0x04AD [0x02] IF !(ExtData[1]->WorkLocal[12] == 0*) GOTO 0x0507
     0x04B5 [0x66] LOAD_EXT_SCHEDULER_MAIN: Load scheduler "pas0" with entities [Runje Desaali (ID: 17830143/0x011010FF), Runje Desaali (ID: 17830143/0x011010FF)], work=50*
     0x04C4 [0x2B] Runje Desaali (ID: 17830143/0x011010FF) [10786*]:
    → "I's after rrriches like the next Mithra, but I ain't no booster, see? Here's the extra ya gave me."
     0x04CB [0x23] WAIT_FOR_DIALOG_INTERACTION
     0x04CC [0x03] Work_Zone[2] = Work_Zone[3]
     0x04D1 [0x02] IF !(ExtData[1]->WorkLocal[6] == 4*) GOTO 0x04E1
     0x04D9 [0x03] Work_Zone[3] = ExtData[1]->WorkLocal[12]
     0x04DE [0x01] GOTO 0x04F6
     0x04E1 [0x02] IF !(ExtData[1]->WorkLocal[6] == 5*) GOTO 0x04F1
     0x04E9 [0x03] Work_Zone[3] = ExtData[1]->WorkLocal[12]
     0x04EE [0x01] GOTO 0x04F6
     0x04F1 [0x03] Work_Zone[3] = 1*
     0x04F6 [0x48] [System] [6404*]:
    → "The $1 $0 are returned to you."
     0x04F9 [0x23] WAIT_FOR_DIALOG_INTERACTION
     0x04FA [0x53] WAIT_SCHEDULER_TASK: Wait for scheduler "pas0" with entities [Runje Desaali (ID: 17830143/0x011010FF), Runje Desaali (ID: 17830143/0x011010FF)]
     0x0507 [0x02] IF !(ExtData[1]->WorkLocal[13] == 1*) GOTO 0x0515
     0x050F [0x01] GOTO 0x0517
     0x0512 [0x01] GOTO 0x0517
     0x0515 [0x21] END_EVENT
     0x0516 [0x00] END_REQSTACK()
     0x0517 [0x5D] SET_MUSIC_VOLUME(volume=0*, fade_time=1400*)
     0x051C [0x1C] WAIT(30* ticks)
     0x051F [0xAD] DUAL_ENTITY_SCHEDULER_HANDLER: Execute sub-case 2 with entities [Geosuke (ID: 17830144/0x01101100), Geosuke (ID: 17830144/0x01101100)], work=316*
     0x052B [0x1C] WAIT(10* ticks)
     0x052E [0x5B] LOAD_EXT_SCHEDULER: Load scheduler "mgk0" with entities [Geosuke (ID: 17830144/0x01101100), Geosuke (ID: 17830144/0x01101100)], work=3255*
     0x053D [0x1C] WAIT(15* ticks)
     0x0540 [0x4A] Runje Desaali (ID: 17830143/0x011010FF) looks at Geosuke (ID: 17830144/0x01101100)
     0x0549 [0x6F] WAIT_FRAME_DELAY: Yield until WaitTime reaches zero
     0x054A [0x76] CHECK_ENTITY_RENDER_FLAGS: Wait until Runje Desaali (ID: 17830143/0x011010FF) Render.Flags0 and Render.Flags3 conditions are met
     0x054F [0x1C] WAIT(15* ticks)
     0x0552 [0x2B] Runje Desaali (ID: 17830143/0x011010FF) [10787*]:
    → "G-Geosuke? What're ya up ta over there?"
     0x0559 [0x1C] WAIT(10* ticks)
     0x055C [0xC4] SCHEDULE_MAGIC_CASTING_ALT (arg=18): Geosuke (ID: 17830144/0x01101100) casts magic 2166* on Geosuke (ID: 17830144/0x01101100)
     0x0568 [0x1C] WAIT(194* ticks)
     0x056B [0x23] WAIT_FOR_DIALOG_INTERACTION
     0x056C [0x1A] CALL_SUBROUTINE(address=0x00A6)
     0x056F [0x5D] SET_MUSIC_VOLUME(volume=127*, fade_time=300*)
     0x0574 [0x1C] WAIT(40* ticks)
     0x0577 [0x6B] STOP_AND_IDLE: Geosuke (ID: 17830144/0x01101100) stops current action and resets to idle (animation="idl0")
     0x0580 [0x1C] WAIT(40* ticks)
     0x0583 [0x1A] CALL_SUBROUTINE(address=0x0085)
     0x0586 [0x4A] Geosuke (ID: 17830144/0x01101100) looks at Runje Desaali (ID: 17830143/0x011010FF)
     0x058F [0x6F] WAIT_FRAME_DELAY: Yield until WaitTime reaches zero
     0x0590 [0x76] CHECK_ENTITY_RENDER_FLAGS: Wait until Geosuke (ID: 17830144/0x01101100) Render.Flags0 and Render.Flags3 conditions are met
     0x0595 [0x02] IF !(ExtData[1]->WorkLocal[4] == 1*) GOTO 0x0755
     0x059D [0x02] IF !(ExtData[1]->WorkLocal[5] == 1*) GOTO 0x0656
     0x05A5 [0x66] LOAD_EXT_SCHEDULER_MAIN: Load scheduler "ure0" with entities [Runje Desaali (ID: 17830143/0x011010FF), Runje Desaali (ID: 17830143/0x011010FF)], work=8*
     0x05B4 [0x2B] Runje Desaali (ID: 17830143/0x011010FF) [10840*]:
    → "If I says I can get the worrrk done, then I does it!"
     0x05BB [0x23] WAIT_FOR_DIALOG_INTERACTION
     0x05BC [0x53] WAIT_SCHEDULER_TASK: Wait for scheduler "ure0" with entities [Runje Desaali (ID: 17830143/0x011010FF), Runje Desaali (ID: 17830143/0x011010FF)]
     0x05C9 [0x4A] Runje Desaali (ID: 17830143/0x011010FF) looks at LocalPlayer
     0x05D2 [0x6F] WAIT_FRAME_DELAY: Yield until WaitTime reaches zero
     0x05D3 [0x76] CHECK_ENTITY_RENDER_FLAGS: Wait until Runje Desaali (ID: 17830143/0x011010FF) Render.Flags0 and Render.Flags3 conditions are met
     0x05D8 [0x66] LOAD_EXT_SCHEDULER_MAIN: Load scheduler "pas0" with entities [Runje Desaali (ID: 17830143/0x011010FF), Runje Desaali (ID: 17830143/0x011010FF)], work=121*
     0x05E7 [0x2B] Runje Desaali (ID: 17830143/0x011010FF) [10796*]:
    → "Now, scrrram!"
     0x05EE [0x23] WAIT_FOR_DIALOG_INTERACTION
     0x05EF [0x4A] Geosuke (ID: 17830144/0x01101100) looks at LocalPlayer
     0x05F8 [0x6F] WAIT_FRAME_DELAY: Yield until WaitTime reaches zero
     0x05F9 [0x76] CHECK_ENTITY_RENDER_FLAGS: Wait until Geosuke (ID: 17830144/0x01101100) Render.Flags0 and Render.Flags3 conditions are met
     0x05FE [0x53] WAIT_SCHEDULER_TASK: Wait for scheduler "pas0" with entities [Runje Desaali (ID: 17830143/0x011010FF), Runje Desaali (ID: 17830143/0x011010FF)]
     0x060B [0x66] LOAD_EXT_SCHEDULER_MAIN: Load scheduler "thk1" with entities [Runje Desaali (ID: 17830143/0x011010FF), Runje Desaali (ID: 17830143/0x011010FF)], work=50*
     0x061A [0x2B] Runje Desaali (ID: 17830143/0x011010FF) [10841*]:
    → "But I ain't no fence, see? So don' even think of askin' me how ta use it."
     0x0621 [0x23] WAIT_FOR_DIALOG_INTERACTION
     0x0622 [0x53] WAIT_SCHEDULER_TASK: Wait for scheduler "thk1" with entities [Runje Desaali (ID: 17830143/0x011010FF), Runje Desaali (ID: 17830143/0x011010FF)]
     0x062F [0x66] LOAD_EXT_SCHEDULER_MAIN: Load scheduler "thk2" with entities [Runje Desaali (ID: 17830143/0x011010FF), Runje Desaali (ID: 17830143/0x011010FF)], work=50*
     0x063E [0x2B] Runje Desaali (ID: 17830143/0x011010FF) [10842*]:
    → "Ya know who ya gotta ask? The dons over at the Order of Renaye. Ya got a beef with geomancy, ya go to them."
     0x0645 [0x23] WAIT_FOR_DIALOG_INTERACTION
     0x0646 [0x53] WAIT_SCHEDULER_TASK: Wait for scheduler "thk2" with entities [Runje Desaali (ID: 17830143/0x011010FF), Runje Desaali (ID: 17830143/0x011010FF)]
     0x0653 [0x01] GOTO 0x0752
     0x0656 [0x02] IF !(ExtData[1]->WorkLocal[5] == 2*) GOTO 0x0752
     0x065E [0x66] LOAD_EXT_SCHEDULER_MAIN: Load scheduler "ure0" with entities [Runje Desaali (ID: 17830143/0x011010FF), Runje Desaali (ID: 17830143/0x011010FF)], work=8*
     0x066D [0x2B] Runje Desaali (ID: 17830143/0x011010FF) [10875*]:
    → "Holy moly, what a brrrilliant success!"
     0x0674 [0x23] WAIT_FOR_DIALOG_INTERACTION
     0x0675 [0x53] WAIT_SCHEDULER_TASK: Wait for scheduler "ure0" with entities [Runje Desaali (ID: 17830143/0x011010FF), Runje Desaali (ID: 17830143/0x011010FF)]
     0x0682 [0x2B] Runje Desaali (ID: 17830143/0x011010FF) [10793*]:
    → "Now, if we just tinker with this here crystal..."
     0x0689 [0x23] WAIT_FOR_DIALOG_INTERACTION
     0x068A [0x1C] WAIT(30* ticks)
     0x068D [0x9F] LOAD_SCHEDULED_TASK_ALT: Load scheduler "frst" with entities [Runje Desaali (ID: 17830143/0x011010FF), Runje Desaali (ID: 17830143/0x011010FF)], work=[194*, 0*]
     0x069E [0x1C] WAIT(150* ticks)
     0x06A1 [0x9F] LOAD_SCHEDULED_TASK_ALT: Load scheduler "okex" with entities [Runje Desaali (ID: 17830143/0x011010FF), Runje Desaali (ID: 17830143/0x011010FF)], work=[194*, 0*]
     0x06B2 [0x1C] WAIT(240* ticks)
     0x06B5 [0x2B] Runje Desaali (ID: 17830143/0x011010FF) [10794*]:
    → "Poifect."
     0x06BC [0x23] WAIT_FOR_DIALOG_INTERACTION
     0x06BD [0x4A] Runje Desaali (ID: 17830143/0x011010FF) looks at LocalPlayer
     0x06C6 [0x6F] WAIT_FRAME_DELAY: Yield until WaitTime reaches zero
     0x06C7 [0x76] CHECK_ENTITY_RENDER_FLAGS: Wait until Runje Desaali (ID: 17830143/0x011010FF) Render.Flags0 and Render.Flags3 conditions are met
     0x06CC [0x66] LOAD_EXT_SCHEDULER_MAIN: Load scheduler "pas0" with entities [Runje Desaali (ID: 17830143/0x011010FF), Runje Desaali (ID: 17830143/0x011010FF)], work=121*
     0x06DB [0x2B] Runje Desaali (ID: 17830143/0x011010FF) [10796*]:
    → "Now, scrrram!"
     0x06E2 [0x23] WAIT_FOR_DIALOG_INTERACTION
     0x06E3 [0x4A] Geosuke (ID: 17830144/0x01101100) looks at LocalPlayer
     0x06EC [0x6F] WAIT_FRAME_DELAY: Yield until WaitTime reaches zero
     0x06ED [0x76] CHECK_ENTITY_RENDER_FLAGS: Wait until Geosuke (ID: 17830144/0x01101100) Render.Flags0 and Render.Flags3 conditions are met
     0x06F2 [0x53] WAIT_SCHEDULER_TASK: Wait for scheduler "pas0" with entities [Runje Desaali (ID: 17830143/0x011010FF), Runje Desaali (ID: 17830143/0x011010FF)]
     0x06FF [0x66] LOAD_EXT_SCHEDULER_MAIN: Load scheduler "thk1" with entities [Runje Desaali (ID: 17830143/0x011010FF), Runje Desaali (ID: 17830143/0x011010FF)], work=50*
     0x070E [0x2B] Runje Desaali (ID: 17830143/0x011010FF) [10876*]:
    → "This might be the foist time in all my nine lives I's ever laid my peepers on a catalyst with such prrristine magic."
     0x0715 [0x23] WAIT_FOR_DIALOG_INTERACTION
     0x0716 [0x2B] Runje Desaali (ID: 17830143/0x011010FF) [10877*]:
    → "Although... After mullin' it over, I'd say it's closer to rrrunic energy than normal, old magic."
     0x071D [0x23] WAIT_FOR_DIALOG_INTERACTION
     0x071E [0x53] WAIT_SCHEDULER_TASK: Wait for scheduler "thk1" with entities [Runje Desaali (ID: 17830143/0x011010FF), Runje Desaali (ID: 17830143/0x011010FF)]
     0x072B [0x66] LOAD_EXT_SCHEDULER_MAIN: Load scheduler "thk2" with entities [Runje Desaali (ID: 17830143/0x011010FF), Runje Desaali (ID: 17830143/0x011010FF)], work=50*
     0x073A [0x2B] Runje Desaali (ID: 17830143/0x011010FF) [10878*]:
    → "I can't quite make heads or tails outta this. Ya might hafta ask someone who comprrrehends runes a bit better'n me."
     0x0741 [0x23] WAIT_FOR_DIALOG_INTERACTION
     0x0742 [0x53] WAIT_SCHEDULER_TASK: Wait for scheduler "thk2" with entities [Runje Desaali (ID: 17830143/0x011010FF), Runje Desaali (ID: 17830143/0x011010FF)]
     0x074F [0x01] GOTO 0x0752
     0x0752 [0x01] GOTO 0x0863
     0x0755 [0x66] LOAD_EXT_SCHEDULER_MAIN: Load scheduler "aww0" with entities [Runje Desaali (ID: 17830143/0x011010FF), Runje Desaali (ID: 17830143/0x011010FF)], work=8*
     0x0764 [0x2B] Runje Desaali (ID: 17830143/0x011010FF) [10788*]:
    → "Ya dirty rat! I's scared half to death!"
     0x076B [0x23] WAIT_FOR_DIALOG_INTERACTION
     0x076C [0x53] WAIT_SCHEDULER_TASK: Wait for scheduler "aww0" with entities [Runje Desaali (ID: 17830143/0x011010FF), Runje Desaali (ID: 17830143/0x011010FF)]
     0x0779 [0x2B] Runje Desaali (ID: 17830143/0x011010FF) [10789*]:
    → "C'mon, show mama what ya got there."
     0x0780 [0x23] WAIT_FOR_DIALOG_INTERACTION
     0x0781 [0x66] LOAD_EXT_SCHEDULER_MAIN: Load scheduler "ure0" with entities [Runje Desaali (ID: 17830143/0x011010FF), Runje Desaali (ID: 17830143/0x011010FF)], work=8*
     0x0790 [0x2B] Runje Desaali (ID: 17830143/0x011010FF) [10790*]:
    → "Wh-whoa! Where'd ya ever learn to make..."
     0x0797 [0x23] WAIT_FOR_DIALOG_INTERACTION
     0x0798 [0x53] WAIT_SCHEDULER_TASK: Wait for scheduler "ure0" with entities [Runje Desaali (ID: 17830143/0x011010FF), Runje Desaali (ID: 17830143/0x011010FF)]
     0x07A5 [0x1C] WAIT(10* ticks)
     0x07A8 [0x4A] Runje Desaali (ID: 17830143/0x011010FF) looks at LocalPlayer
     0x07B1 [0x6F] WAIT_FRAME_DELAY: Yield until WaitTime reaches zero
     0x07B2 [0x76] CHECK_ENTITY_RENDER_FLAGS: Wait until Runje Desaali (ID: 17830143/0x011010FF) Render.Flags0 and Render.Flags3 conditions are met
     0x07B7 [0x1C] WAIT(30* ticks)
     0x07BA [0x66] LOAD_EXT_SCHEDULER_MAIN: Load scheduler "wav0" with entities [Runje Desaali (ID: 17830143/0x011010FF), Runje Desaali (ID: 17830143/0x011010FF)], work=52*
     0x07C9 [0x2B] Runje Desaali (ID: 17830143/0x011010FF) [10791*]:
    → "Ahem. No, I's not skeptical. A shark like him sure knows how to fix up some sugar!"
     0x07D0 [0x23] WAIT_FOR_DIALOG_INTERACTION
     0x07D1 [0x53] WAIT_SCHEDULER_TASK: Wait for scheduler "wav0" with entities [Runje Desaali (ID: 17830143/0x011010FF), Runje Desaali (ID: 17830143/0x011010FF)]
     0x07DE [0x02] IF !(ExtData[1]->WorkLocal[5] == 1*) GOTO 0x07F1
     0x07E6 [0x2B] Runje Desaali (ID: 17830143/0x011010FF) [10792*]:
    → "Just dip that ol' wand of yours inta the right ergon locus, and it'll be done faster'n ol' Gratzigg can put the screws on the Mummers' Coalition."
     0x07ED [0x23] WAIT_FOR_DIALOG_INTERACTION
     0x07EE [0x01] GOTO 0x083F
     0x07F1 [0x02] IF !(ExtData[1]->WorkLocal[5] == 2*) GOTO 0x083F
     0x07F9 [0x2B] Runje Desaali (ID: 17830143/0x011010FF) [10793*]:
    → "Now, if we just tinker with this here crystal..."
     0x0800 [0x23] WAIT_FOR_DIALOG_INTERACTION
     0x0801 [0x1C] WAIT(30* ticks)
     0x0804 [0x9F] LOAD_SCHEDULED_TASK_ALT: Load scheduler "frst" with entities [Runje Desaali (ID: 17830143/0x011010FF), Runje Desaali (ID: 17830143/0x011010FF)], work=[194*, 0*]
     0x0815 [0x1C] WAIT(150* ticks)
     0x0818 [0x9F] LOAD_SCHEDULED_TASK_ALT: Load scheduler "okex" with entities [Runje Desaali (ID: 17830143/0x011010FF), Runje Desaali (ID: 17830143/0x011010FF)], work=[194*, 0*]
     0x0829 [0x1C] WAIT(240* ticks)
     0x082C [0x2B] Runje Desaali (ID: 17830143/0x011010FF) [10794*]:
    → "Poifect."
     0x0833 [0x23] WAIT_FOR_DIALOG_INTERACTION
     0x0834 [0x2B] Runje Desaali (ID: 17830143/0x011010FF) [10795*]:
    → "Just find a place filled with runic enerrrgies and it'll be done before I can think up my next racket!"
     0x083B [0x23] WAIT_FOR_DIALOG_INTERACTION
     0x083C [0x01] GOTO 0x083F
     0x083F [0x66] LOAD_EXT_SCHEDULER_MAIN: Load scheduler "pas0" with entities [Runje Desaali (ID: 17830143/0x011010FF), Runje Desaali (ID: 17830143/0x011010FF)], work=50*
     0x084E [0x2B] Runje Desaali (ID: 17830143/0x011010FF) [10796*]:
    → "Now, scrrram!"
     0x0855 [0x23] WAIT_FOR_DIALOG_INTERACTION
     0x0856 [0x53] WAIT_SCHEDULER_TASK: Wait for scheduler "pas0" with entities [Runje Desaali (ID: 17830143/0x011010FF), Runje Desaali (ID: 17830143/0x011010FF)]
     0x0863 [0x3C] SET_BIT_FLAG_CONDITIONAL(target_work_offset=Work_Zone[1], bit_index_work_offset=4*, condition_work_offset=1*)
     0x086A [0x1B] RETURN
```

### Event 5071

#### Metadata

| Field        | Value    |
|--------------|----------|
| Entrypoint   | 0x086B   |
| Data Size    | 88 bytes |
| Instructions | 14       |

```
      00 01 02 03 04 05 06 07  08 09 0A 0B 0C 0D 0E 0F
      -- -- -- -- -- -- -- --  -- -- -- -- -- -- -- --
0860:                                   1E F0 FF FF 7F             .....
0870: 6F 70 4A F0 FF FF 7F 00  11 10 01 6F 76 F0 FF FF  opJ........ov...
0880: 7F 5B 40 80 00 11 10 01  00 11 10 01 74 6C 6B 30  .[@.........tlk0
0890: 2B 00 11 10 01 41 80 23  53 00 11 10 01 00 11 10  +....A.#S.......
08A0: 01 74 6C 6B 30 5B 40 80  00 11 10 01 00 11 10 01  .tlk0[@.........
08B0: 74 6C 6B 31 53 00 11 10  01 00 11 10 01 74 6C 6B  tlk1S........tlk
08C0: 31 21 00                                          1!.             
```

#### Opcodes

```
  0: 0x086B [0x1E] EventEntity looks at LocalPlayer and starts talking
  1: 0x0870 [0x6F] WAIT_FRAME_DELAY: Yield until WaitTime reaches zero
  2: 0x0871 [0x70] WAIT_ENTITY_RENDER_FLAG: Wait while EventEntity->Render.Flags3 bit 2 is set (cancel turn if not)
  3: 0x0872 [0x4A] LocalPlayer looks at Geosuke (ID: 17830144/0x01101100)
  4: 0x087B [0x6F] WAIT_FRAME_DELAY: Yield until WaitTime reaches zero
  5: 0x087C [0x76] CHECK_ENTITY_RENDER_FLAGS: Wait until LocalPlayer Render.Flags0 and Render.Flags3 conditions are met
  6: 0x0881 [0x5B] LOAD_EXT_SCHEDULER: Load scheduler "tlk0" with entities [Geosuke (ID: 17830144/0x01101100), Geosuke (ID: 17830144/0x01101100)], work=3325*
  7: 0x0890 [0x2B] Geosuke (ID: 17830144/0x01101100) [10704*]:
    → "Gwrk."
  8: 0x0897 [0x23] WAIT_FOR_DIALOG_INTERACTION
  9: 0x0898 [0x53] WAIT_SCHEDULER_TASK: Wait for scheduler "tlk0" with entities [Geosuke (ID: 17830144/0x01101100), Geosuke (ID: 17830144/0x01101100)]
 10: 0x08A5 [0x5B] LOAD_EXT_SCHEDULER: Load scheduler "tlk1" with entities [Geosuke (ID: 17830144/0x01101100), Geosuke (ID: 17830144/0x01101100)], work=3325*
 11: 0x08B4 [0x53] WAIT_SCHEDULER_TASK: Wait for scheduler "tlk1" with entities [Geosuke (ID: 17830144/0x01101100), Geosuke (ID: 17830144/0x01101100)]
 12: 0x08C1 [0x21] END_EVENT
 13: 0x08C2 [0x00] END_REQSTACK()
```

### Event 5065

#### Metadata

| Field        | Value   |
|--------------|---------|
| Entrypoint   | 0x08C3  |
| Data Size    | 1 bytes |
| Instructions | 1       |

```
      00 01 02 03 04 05 06 07  08 09 0A 0B 0C 0D 0E 0F
      -- -- -- -- -- -- -- --  -- -- -- -- -- -- -- --
08C0:          00                                          .            
```

#### Opcodes

```
  0: 0x08C3 [0x00] END_REQSTACK()
```

### Event 5068

#### Metadata

| Field        | Value   |
|--------------|---------|
| Entrypoint   | 0x08C4  |
| Data Size    | 1 bytes |
| Instructions | 1       |

```
      00 01 02 03 04 05 06 07  08 09 0A 0B 0C 0D 0E 0F
      -- -- -- -- -- -- -- --  -- -- -- -- -- -- -- --
08C0:             00                                        .           
```

#### Opcodes

```
  0: 0x08C4 [0x00] END_REQSTACK()
```

### Event 5066

#### Metadata

| Field        | Value   |
|--------------|---------|
| Entrypoint   | 0x08C5  |
| Data Size    | 1 bytes |
| Instructions | 1       |

```
      00 01 02 03 04 05 06 07  08 09 0A 0B 0C 0D 0E 0F
      -- -- -- -- -- -- -- --  -- -- -- -- -- -- -- --
08C0:                00                                      .          
```

#### Opcodes

```
  0: 0x08C5 [0x00] END_REQSTACK()
```

### Event 5067

#### Metadata

| Field        | Value   |
|--------------|---------|
| Entrypoint   | 0x08C6  |
| Data Size    | 1 bytes |
| Instructions | 1       |

```
      00 01 02 03 04 05 06 07  08 09 0A 0B 0C 0D 0E 0F
      -- -- -- -- -- -- -- --  -- -- -- -- -- -- -- --
08C0:                   00                                    .         
```

#### Opcodes

```
  0: 0x08C6 [0x00] END_REQSTACK()
```

### Event 5083

#### Metadata

| Field        | Value    |
|--------------|----------|
| Entrypoint   | 0x08C7   |
| Data Size    | 76 bytes |
| Instructions | 20       |

```
      00 01 02 03 04 05 06 07  08 09 0A 0B 0C 0D 0E 0F
      -- -- -- -- -- -- -- --  -- -- -- -- -- -- -- --
08C0:                      42  03 06 00 02 10 03 0B 00         B........
08D0: 05 10 03 0C 00 06 10 03  0D 00 07 10 03 0E 00 09  ................
08E0: 10 06 01 10 06 05 00 06  04 00 4A FF 10 10 01 F0  ..........J.....
08F0: FF FF 7F 6F 70 4A F0 FF  FF 7F FF 10 10 01 6F 76  ...opJ........ov
0900: F0 FF FF 7F 03 05 00 03  80 03 04 00 03 80 1A 92  ................
0910: 02 21 00                                          .!.             
```

#### Opcodes

```
  0: 0x08C7 [0x42] SET_CLI_EVENT_CANCEL_DATA()
  1: 0x08C8 [0x03] ExtData[1]->WorkLocal[6] = Work_Zone[2]
  2: 0x08CD [0x03] ExtData[1]->WorkLocal[11] = Work_Zone[5]
  3: 0x08D2 [0x03] ExtData[1]->WorkLocal[12] = Work_Zone[6]
  4: 0x08D7 [0x03] ExtData[1]->WorkLocal[13] = Work_Zone[7]
  5: 0x08DC [0x03] ExtData[1]->WorkLocal[14] = Work_Zone[9]
  6: 0x08E1 [0x06] Work_Zone[1] = 0
  7: 0x08E4 [0x06] ExtData[1]->WorkLocal[5] = 0
  8: 0x08E7 [0x06] ExtData[1]->WorkLocal[4] = 0
  9: 0x08EA [0x4A] Runje Desaali (ID: 17830143/0x011010FF) looks at LocalPlayer
 10: 0x08F3 [0x6F] WAIT_FRAME_DELAY: Yield until WaitTime reaches zero
 11: 0x08F4 [0x70] WAIT_ENTITY_RENDER_FLAG: Wait while EventEntity->Render.Flags3 bit 2 is set (cancel turn if not)
 12: 0x08F5 [0x4A] LocalPlayer looks at Runje Desaali (ID: 17830143/0x011010FF)
 13: 0x08FE [0x6F] WAIT_FRAME_DELAY: Yield until WaitTime reaches zero
 14: 0x08FF [0x76] CHECK_ENTITY_RENDER_FLAGS: Wait until LocalPlayer Render.Flags0 and Render.Flags3 conditions are met
 15: 0x0904 [0x03] ExtData[1]->WorkLocal[5] = 1*
 16: 0x0909 [0x03] ExtData[1]->WorkLocal[4] = 1*
 17: 0x090E [0x1A] CALL_SUBROUTINE(address=0x0292)
 18: 0x0911 [0x21] END_EVENT
 19: 0x0912 [0x00] END_REQSTACK()
```

### Event 5084

#### Metadata

| Field        | Value    |
|--------------|----------|
| Entrypoint   | 0x0913   |
| Data Size    | 76 bytes |
| Instructions | 20       |

```
      00 01 02 03 04 05 06 07  08 09 0A 0B 0C 0D 0E 0F
      -- -- -- -- -- -- -- --  -- -- -- -- -- -- -- --
0910:          42 03 06 00 02  10 03 0B 00 05 10 03 0C     B............
0920: 00 06 10 03 0D 00 07 10  03 0E 00 09 10 06 01 10  ................
0930: 06 05 00 06 04 00 4A FF  10 10 01 F0 FF FF 7F 6F  ......J........o
0940: 70 4A F0 FF FF 7F FF 10  10 01 6F 76 F0 FF FF 7F  pJ........ov....
0950: 03 05 00 03 80 03 04 00  05 80 1A 92 02 21 00     .............!. 
```

#### Opcodes

```
  0: 0x0913 [0x42] SET_CLI_EVENT_CANCEL_DATA()
  1: 0x0914 [0x03] ExtData[1]->WorkLocal[6] = Work_Zone[2]
  2: 0x0919 [0x03] ExtData[1]->WorkLocal[11] = Work_Zone[5]
  3: 0x091E [0x03] ExtData[1]->WorkLocal[12] = Work_Zone[6]
  4: 0x0923 [0x03] ExtData[1]->WorkLocal[13] = Work_Zone[7]
  5: 0x0928 [0x03] ExtData[1]->WorkLocal[14] = Work_Zone[9]
  6: 0x092D [0x06] Work_Zone[1] = 0
  7: 0x0930 [0x06] ExtData[1]->WorkLocal[5] = 0
  8: 0x0933 [0x06] ExtData[1]->WorkLocal[4] = 0
  9: 0x0936 [0x4A] Runje Desaali (ID: 17830143/0x011010FF) looks at LocalPlayer
 10: 0x093F [0x6F] WAIT_FRAME_DELAY: Yield until WaitTime reaches zero
 11: 0x0940 [0x70] WAIT_ENTITY_RENDER_FLAG: Wait while EventEntity->Render.Flags3 bit 2 is set (cancel turn if not)
 12: 0x0941 [0x4A] LocalPlayer looks at Runje Desaali (ID: 17830143/0x011010FF)
 13: 0x094A [0x6F] WAIT_FRAME_DELAY: Yield until WaitTime reaches zero
 14: 0x094B [0x76] CHECK_ENTITY_RENDER_FLAGS: Wait until LocalPlayer Render.Flags0 and Render.Flags3 conditions are met
 15: 0x0950 [0x03] ExtData[1]->WorkLocal[5] = 1*
 16: 0x0955 [0x03] ExtData[1]->WorkLocal[4] = 2*
 17: 0x095A [0x1A] CALL_SUBROUTINE(address=0x0292)
 18: 0x095D [0x21] END_EVENT
 19: 0x095E [0x00] END_REQSTACK()
```

### Event 5085

#### Metadata

| Field        | Value    |
|--------------|----------|
| Entrypoint   | 0x095F   |
| Data Size    | 76 bytes |
| Instructions | 20       |

```
      00 01 02 03 04 05 06 07  08 09 0A 0B 0C 0D 0E 0F
      -- -- -- -- -- -- -- --  -- -- -- -- -- -- -- --
0950:                                               42                 B
0960: 03 06 00 02 10 03 0B 00  05 10 03 0C 00 06 10 03  ................
0970: 0D 00 07 10 03 0E 00 09  10 06 01 10 06 05 00 06  ................
0980: 04 00 4A FF 10 10 01 F0  FF FF 7F 6F 70 4A F0 FF  ..J........opJ..
0990: FF 7F FF 10 10 01 6F 76  F0 FF FF 7F 03 05 00 03  ......ov........
09A0: 80 03 04 00 0F 80 1A 92  02 21 00                 .........!.     
```

#### Opcodes

```
  0: 0x095F [0x42] SET_CLI_EVENT_CANCEL_DATA()
  1: 0x0960 [0x03] ExtData[1]->WorkLocal[6] = Work_Zone[2]
  2: 0x0965 [0x03] ExtData[1]->WorkLocal[11] = Work_Zone[5]
  3: 0x096A [0x03] ExtData[1]->WorkLocal[12] = Work_Zone[6]
  4: 0x096F [0x03] ExtData[1]->WorkLocal[13] = Work_Zone[7]
  5: 0x0974 [0x03] ExtData[1]->WorkLocal[14] = Work_Zone[9]
  6: 0x0979 [0x06] Work_Zone[1] = 0
  7: 0x097C [0x06] ExtData[1]->WorkLocal[5] = 0
  8: 0x097F [0x06] ExtData[1]->WorkLocal[4] = 0
  9: 0x0982 [0x4A] Runje Desaali (ID: 17830143/0x011010FF) looks at LocalPlayer
 10: 0x098B [0x6F] WAIT_FRAME_DELAY: Yield until WaitTime reaches zero
 11: 0x098C [0x70] WAIT_ENTITY_RENDER_FLAG: Wait while EventEntity->Render.Flags3 bit 2 is set (cancel turn if not)
 12: 0x098D [0x4A] LocalPlayer looks at Runje Desaali (ID: 17830143/0x011010FF)
 13: 0x0996 [0x6F] WAIT_FRAME_DELAY: Yield until WaitTime reaches zero
 14: 0x0997 [0x76] CHECK_ENTITY_RENDER_FLAGS: Wait until LocalPlayer Render.Flags0 and Render.Flags3 conditions are met
 15: 0x099C [0x03] ExtData[1]->WorkLocal[5] = 1*
 16: 0x09A1 [0x03] ExtData[1]->WorkLocal[4] = 3*
 17: 0x09A6 [0x1A] CALL_SUBROUTINE(address=0x0292)
 18: 0x09A9 [0x21] END_EVENT
 19: 0x09AA [0x00] END_REQSTACK()
```

### Event 5086

#### Metadata

| Field        | Value    |
|--------------|----------|
| Entrypoint   | 0x09AB   |
| Data Size    | 76 bytes |
| Instructions | 20       |

```
      00 01 02 03 04 05 06 07  08 09 0A 0B 0C 0D 0E 0F
      -- -- -- -- -- -- -- --  -- -- -- -- -- -- -- --
09A0:                                   42 03 06 00 02             B....
09B0: 10 03 0B 00 05 10 03 0C  00 06 10 03 0D 00 07 10  ................
09C0: 03 0E 00 09 10 06 01 10  06 05 00 06 04 00 4A FF  ..............J.
09D0: 10 10 01 F0 FF FF 7F 6F  70 4A F0 FF FF 7F FF 10  .......opJ......
09E0: 10 01 6F 76 F0 FF FF 7F  03 05 00 03 80 03 04 00  ..ov............
09F0: 12 80 1A 92 02 21 00                              .....!.         
```

#### Opcodes

```
  0: 0x09AB [0x42] SET_CLI_EVENT_CANCEL_DATA()
  1: 0x09AC [0x03] ExtData[1]->WorkLocal[6] = Work_Zone[2]
  2: 0x09B1 [0x03] ExtData[1]->WorkLocal[11] = Work_Zone[5]
  3: 0x09B6 [0x03] ExtData[1]->WorkLocal[12] = Work_Zone[6]
  4: 0x09BB [0x03] ExtData[1]->WorkLocal[13] = Work_Zone[7]
  5: 0x09C0 [0x03] ExtData[1]->WorkLocal[14] = Work_Zone[9]
  6: 0x09C5 [0x06] Work_Zone[1] = 0
  7: 0x09C8 [0x06] ExtData[1]->WorkLocal[5] = 0
  8: 0x09CB [0x06] ExtData[1]->WorkLocal[4] = 0
  9: 0x09CE [0x4A] Runje Desaali (ID: 17830143/0x011010FF) looks at LocalPlayer
 10: 0x09D7 [0x6F] WAIT_FRAME_DELAY: Yield until WaitTime reaches zero
 11: 0x09D8 [0x70] WAIT_ENTITY_RENDER_FLAG: Wait while EventEntity->Render.Flags3 bit 2 is set (cancel turn if not)
 12: 0x09D9 [0x4A] LocalPlayer looks at Runje Desaali (ID: 17830143/0x011010FF)
 13: 0x09E2 [0x6F] WAIT_FRAME_DELAY: Yield until WaitTime reaches zero
 14: 0x09E3 [0x76] CHECK_ENTITY_RENDER_FLAGS: Wait until LocalPlayer Render.Flags0 and Render.Flags3 conditions are met
 15: 0x09E8 [0x03] ExtData[1]->WorkLocal[5] = 1*
 16: 0x09ED [0x03] ExtData[1]->WorkLocal[4] = 4*
 17: 0x09F2 [0x1A] CALL_SUBROUTINE(address=0x0292)
 18: 0x09F5 [0x21] END_EVENT
 19: 0x09F6 [0x00] END_REQSTACK()
```

### Event 5087

#### Metadata

| Field        | Value   |
|--------------|---------|
| Entrypoint   | 0x09F7  |
| Data Size    | 1 bytes |
| Instructions | 1       |

```
      00 01 02 03 04 05 06 07  08 09 0A 0B 0C 0D 0E 0F
      -- -- -- -- -- -- -- --  -- -- -- -- -- -- -- --
09F0:                      00                                  .        
```

#### Opcodes

```
  0: 0x09F7 [0x00] END_REQSTACK()
```

### Event 5088

#### Metadata

| Field        | Value   |
|--------------|---------|
| Entrypoint   | 0x09F8  |
| Data Size    | 1 bytes |
| Instructions | 1       |

```
      00 01 02 03 04 05 06 07  08 09 0A 0B 0C 0D 0E 0F
      -- -- -- -- -- -- -- --  -- -- -- -- -- -- -- --
09F0:                          00                               .       
```

#### Opcodes

```
  0: 0x09F8 [0x00] END_REQSTACK()
```

### Event 5089

#### Metadata

| Field        | Value   |
|--------------|---------|
| Entrypoint   | 0x09F9  |
| Data Size    | 1 bytes |
| Instructions | 1       |

```
      00 01 02 03 04 05 06 07  08 09 0A 0B 0C 0D 0E 0F
      -- -- -- -- -- -- -- --  -- -- -- -- -- -- -- --
09F0:                             00                             .      
```

#### Opcodes

```
  0: 0x09F9 [0x00] END_REQSTACK()
```

### Event 5090

#### Metadata

| Field        | Value   |
|--------------|---------|
| Entrypoint   | 0x09FA  |
| Data Size    | 1 bytes |
| Instructions | 1       |

```
      00 01 02 03 04 05 06 07  08 09 0A 0B 0C 0D 0E 0F
      -- -- -- -- -- -- -- --  -- -- -- -- -- -- -- --
09F0:                                00                           .     
```

#### Opcodes

```
  0: 0x09FA [0x00] END_REQSTACK()
```

### Event 5072

#### Metadata

| Field        | Value   |
|--------------|---------|
| Entrypoint   | 0x09FB  |
| Data Size    | 1 bytes |
| Instructions | 1       |

```
      00 01 02 03 04 05 06 07  08 09 0A 0B 0C 0D 0E 0F
      -- -- -- -- -- -- -- --  -- -- -- -- -- -- -- --
09F0:                                   00                         .    
```

#### Opcodes

```
  0: 0x09FB [0x00] END_REQSTACK()
```

### Event 5070

#### Metadata

| Field        | Value   |
|--------------|---------|
| Entrypoint   | 0x09FC  |
| Data Size    | 1 bytes |
| Instructions | 1       |

```
      00 01 02 03 04 05 06 07  08 09 0A 0B 0C 0D 0E 0F
      -- -- -- -- -- -- -- --  -- -- -- -- -- -- -- --
09F0:                                      00                       .   
```

#### Opcodes

```
  0: 0x09FC [0x00] END_REQSTACK()
```

### Event 117

#### Metadata

| Field        | Value   |
|--------------|---------|
| Entrypoint   | 0x09FD  |
| Data Size    | 7 bytes |
| Instructions | 2       |

```
      00 01 02 03 04 05 06 07  08 09 0A 0B 0C 0D 0E 0F
      -- -- -- -- -- -- -- --  -- -- -- -- -- -- -- --
09F0:                                         92 01 F8               ...
0A00: FF FF 7F 00                                       ....            
```

#### Opcodes

```
  0: 0x09FD [0x92] EventEntity->Render.Flags3 ^= 0x01
  1: 0x0A03 [0x00] END_REQSTACK()
```

### Event 119

#### Metadata

| Field        | Value   |
|--------------|---------|
| Entrypoint   | 0x0A04  |
| Data Size    | 7 bytes |
| Instructions | 2       |

```
      00 01 02 03 04 05 06 07  08 09 0A 0B 0C 0D 0E 0F
      -- -- -- -- -- -- -- --  -- -- -- -- -- -- -- --
0A00:             92 01 F8 FF  FF 7F 00                     .......     
```

#### Opcodes

```
  0: 0x0A04 [0x92] EventEntity->Render.Flags3 ^= 0x01
  1: 0x0A0A [0x00] END_REQSTACK()
```

### Event 120

#### Metadata

| Field        | Value   |
|--------------|---------|
| Entrypoint   | 0x0A0B  |
| Data Size    | 7 bytes |
| Instructions | 2       |

```
      00 01 02 03 04 05 06 07  08 09 0A 0B 0C 0D 0E 0F
      -- -- -- -- -- -- -- --  -- -- -- -- -- -- -- --
0A00:                                   92 01 F8 FF FF             .....
0A10: 7F 00                                             ..              
```

#### Opcodes

```
  0: 0x0A0B [0x92] EventEntity->Render.Flags3 ^= 0x01
  1: 0x0A11 [0x00] END_REQSTACK()
```

### Event 65535.1

#### Metadata

| Field        | Value    |
|--------------|----------|
| Entrypoint   | 0x0A12   |
| Data Size    | 14 bytes |
| Instructions | 4        |

```
      00 01 02 03 04 05 06 07  08 09 0A 0B 0C 0D 0E 0F
      -- -- -- -- -- -- -- --  -- -- -- -- -- -- -- --
0A10:       32 42 80 1F 00 43  80 44 80 01 80 1F 01 00    2B...C.D......
```

#### Opcodes

```
  0: 0x0A12 [0x32] ExtData[1]->MainSpeed = 13* * 0.1
  1: 0x0A15 [0x1F] MOVE_ENTITY: EventEntity moves to X=-70.000*, Z=-10.000*, Y=0.000*
  2: 0x0A1D [0x1F] MOVE_ENTITY: Update entity position (mode=1)
  3: 0x0A1F [0x00] END_REQSTACK()
```

### Event 132

#### Metadata

| Field        | Value   |
|--------------|---------|
| Entrypoint   | 0x0A20  |
| Data Size    | 1 bytes |
| Instructions | 1       |

```
      00 01 02 03 04 05 06 07  08 09 0A 0B 0C 0D 0E 0F
      -- -- -- -- -- -- -- --  -- -- -- -- -- -- -- --
0A20: 00                                                .               
```

#### Opcodes

```
  0: 0x0A20 [0x00] END_REQSTACK()
```
