# 17830008

## Common Data

| Field            | Value                     |
|------------------|---------------------------|
| Zone             | Eastern Adoulin (ID: 257) |
| Block Size       | 500 bytes                 |
| Total Events     | 15                        |
| References Count | 11                        |

## List of Events

| Event ID                   | Entrypoint   |   Size |   Instructions |
|----------------------------|--------------|--------|----------------|
| [65535](#event-65535)      | 0x0000       |      1 |              1 |
| [65535.1](#event-655351)   | 0x0001       |      1 |              1 |
| [65535.2](#event-655352)   | 0x0002       |     18 |              4 |
| [65535.3](#event-655353)   | 0x0014       |     10 |              2 |
| [65535.4](#event-655354)   | 0x001E       |      9 |              3 |
| [65535.5](#event-655355)   | 0x0027       |      9 |              3 |
| [65535.6](#event-655356)   | 0x0030       |     10 |              2 |
| [65535.7](#event-655357)   | 0x003A       |     10 |              2 |
| [1500](#event-1500)        | 0x0044       |      1 |              1 |
| [65535.8](#event-655358)   | 0x0045       |     13 |              3 |
| [65535.9](#event-655359)   | 0x0052       |     24 |              3 |
| [65535.10](#event-6553510) | 0x006A       |     94 |             12 |
| [65535.11](#event-6553511) | 0x00C8       |    148 |             26 |
| [65535.12](#event-6553512) | 0x015C       |     15 |              5 |
| [65535.13](#event-6553513) | 0x016B       |     15 |              5 |

## DAT References (imed_data)

|   Index | Hex Value   |   Dec Value |
|---------|-------------|-------------|
|       0 | 0x0000      |           0 |
|       1 | 0x0001      |           1 |
|       2 | 0x0080      |         128 |
|       3 | 0x0005      |           5 |
|       4 | 0x001E      |          30 |
|       5 | 0x0C00      |        3072 |
|       6 | 0x000D      |          13 |
|       7 | 0x01F4      |         500 |
|       8 | 0xFFFFD314  |  4294955796 |
|       9 | 0xFFFFFA24  |  4294965796 |
|      10 | 0xFFFFCFF4  |  4294954996 |

## Events

### Event 65535

#### Metadata

| Field        | Value   |
|--------------|---------|
| Entrypoint   | 0x0000  |
| Data Size    | 1 bytes |
| Instructions | 1       |

```
      00 01 02 03 04 05 06 07  08 09 0A 0B 0C 0D 0E 0F
      -- -- -- -- -- -- -- --  -- -- -- -- -- -- -- --
0000: 00                                                .               
```

#### Opcodes

```
  0: 0x0000 [0x00] END_REQSTACK()
```

### Event 65535.1

#### Metadata

| Field        | Value   |
|--------------|---------|
| Entrypoint   | 0x0001  |
| Data Size    | 1 bytes |
| Instructions | 1       |

```
      00 01 02 03 04 05 06 07  08 09 0A 0B 0C 0D 0E 0F
      -- -- -- -- -- -- -- --  -- -- -- -- -- -- -- --
0000:    00                                              .              
```

#### Opcodes

```
  0: 0x0001 [0x00] END_REQSTACK()
```

### Event 65535.2

#### Metadata

| Field        | Value    |
|--------------|----------|
| Entrypoint   | 0x0002   |
| Data Size    | 18 bytes |
| Instructions | 4        |

```
      00 01 02 03 04 05 06 07  08 09 0A 0B 0C 0D 0E 0F
      -- -- -- -- -- -- -- --  -- -- -- -- -- -- -- --
0000:       22 00 2F 00 F8 FF  FF 7F 6C F8 FF FF 7F 00    "./.....l.....
0010: 80 01 80 00                                       ....            
```

#### Opcodes

```
  0: 0x0002 [0x22] ENTITY_HIDE_FLAG(enabled=0x00)
  1: 0x0004 [0x2F] EventEntity->Render.Flags0 &= ~0x80000 // Bit 19
  2: 0x000A [0x6C] FADE_ENTITY_COLOR(entity_id=EventEntity, end_alpha=0*, fade_time=1*)
  3: 0x0013 [0x00] END_REQSTACK()
```

### Event 65535.3

#### Metadata

| Field        | Value    |
|--------------|----------|
| Entrypoint   | 0x0014   |
| Data Size    | 10 bytes |
| Instructions | 2        |

```
      00 01 02 03 04 05 06 07  08 09 0A 0B 0C 0D 0E 0F
      -- -- -- -- -- -- -- --  -- -- -- -- -- -- -- --
0010:             6C F8 FF FF  7F 02 80 01 80 00            l.........  
```

#### Opcodes

```
  0: 0x0014 [0x6C] FADE_ENTITY_COLOR(entity_id=EventEntity, end_alpha=128*, fade_time=1*)
  1: 0x001D [0x00] END_REQSTACK()
```

### Event 65535.4

#### Metadata

| Field        | Value   |
|--------------|---------|
| Entrypoint   | 0x001E  |
| Data Size    | 9 bytes |
| Instructions | 3       |

```
      00 01 02 03 04 05 06 07  08 09 0A 0B 0C 0D 0E 0F
      -- -- -- -- -- -- -- --  -- -- -- -- -- -- -- --
0010:                                            22 00                ".
0020: 2F 00 F8 FF FF 7F 00                              /......         
```

#### Opcodes

```
  0: 0x001E [0x22] ENTITY_HIDE_FLAG(enabled=0x00)
  1: 0x0020 [0x2F] EventEntity->Render.Flags0 &= ~0x80000 // Bit 19
  2: 0x0026 [0x00] END_REQSTACK()
```

### Event 65535.5

#### Metadata

| Field        | Value   |
|--------------|---------|
| Entrypoint   | 0x0027  |
| Data Size    | 9 bytes |
| Instructions | 3       |

```
      00 01 02 03 04 05 06 07  08 09 0A 0B 0C 0D 0E 0F
      -- -- -- -- -- -- -- --  -- -- -- -- -- -- -- --
0020:                      22  01 2F 01 F8 FF FF 7F 00         "./......
```

#### Opcodes

```
  0: 0x0027 [0x22] ENTITY_HIDE_FLAG(enabled=0x01)
  1: 0x0029 [0x2F] EventEntity->Render.Flags0 |= 0x80000 // Bit 19
  2: 0x002F [0x00] END_REQSTACK()
```

### Event 65535.6

#### Metadata

| Field        | Value    |
|--------------|----------|
| Entrypoint   | 0x0030   |
| Data Size    | 10 bytes |
| Instructions | 2        |

```
      00 01 02 03 04 05 06 07  08 09 0A 0B 0C 0D 0E 0F
      -- -- -- -- -- -- -- --  -- -- -- -- -- -- -- --
0030: 6C F8 FF FF 7F 00 80 01  80 00                    l.........      
```

#### Opcodes

```
  0: 0x0030 [0x6C] FADE_ENTITY_COLOR(entity_id=EventEntity, end_alpha=0*, fade_time=1*)
  1: 0x0039 [0x00] END_REQSTACK()
```

### Event 65535.7

#### Metadata

| Field        | Value    |
|--------------|----------|
| Entrypoint   | 0x003A   |
| Data Size    | 10 bytes |
| Instructions | 2        |

```
      00 01 02 03 04 05 06 07  08 09 0A 0B 0C 0D 0E 0F
      -- -- -- -- -- -- -- --  -- -- -- -- -- -- -- --
0030:                                6C F8 FF FF 7F 02            l.....
0040: 80 01 80 00                                       ....            
```

#### Opcodes

```
  0: 0x003A [0x6C] FADE_ENTITY_COLOR(entity_id=EventEntity, end_alpha=128*, fade_time=1*)
  1: 0x0043 [0x00] END_REQSTACK()
```

### Event 1500

#### Metadata

| Field        | Value   |
|--------------|---------|
| Entrypoint   | 0x0044  |
| Data Size    | 1 bytes |
| Instructions | 1       |

```
      00 01 02 03 04 05 06 07  08 09 0A 0B 0C 0D 0E 0F
      -- -- -- -- -- -- -- --  -- -- -- -- -- -- -- --
0040:             00                                        .           
```

#### Opcodes

```
  0: 0x0044 [0x00] END_REQSTACK()
```

### Event 65535.8

#### Metadata

| Field        | Value    |
|--------------|----------|
| Entrypoint   | 0x0045   |
| Data Size    | 13 bytes |
| Instructions | 3        |

```
      00 01 02 03 04 05 06 07  08 09 0A 0B 0C 0D 0E 0F
      -- -- -- -- -- -- -- --  -- -- -- -- -- -- -- --
0040:                92 01 F8  FF FF 7F 94 01 F8 FF FF       ...........
0050: 7F 00                                             ..              
```

#### Opcodes

```
  0: 0x0045 [0x92] EventEntity->Render.Flags3 ^= 0x01
  1: 0x004B [0x94] EventEntity->Render.Flags3 ^= 0x01
  2: 0x0051 [0x00] END_REQSTACK()
```

### Event 65535.9

#### Metadata

| Field        | Value    |
|--------------|----------|
| Entrypoint   | 0x0052   |
| Data Size    | 24 bytes |
| Instructions | 3        |

```
      00 01 02 03 04 05 06 07  08 09 0A 0B 0C 0D 0E 0F
      -- -- -- -- -- -- -- --  -- -- -- -- -- -- -- --
0050:       B6 0B 03 80 00 80  00 80 00 80 00 80 00 80    ..............
0060: 00 80 00 80 00 80 C0 01  80 00                    ..........      
```

#### Opcodes

```
  0: 0x0052 [0xB6] ENTITY_APPEARANCE_HANDLER(case=Full entity look, race=5*, hair=0*, head=0*, body=0*, hands=0*, legs=0*, feet=0*, main=0*, sub=0*)
  1: 0x0066 [0xC0] EventEntity->Render.Flags3 |= 0x1000 // Set bit 12 (from 1*)
  2: 0x0069 [0x00] END_REQSTACK()
```

### Event 65535.10

#### Metadata

| Field        | Value    |
|--------------|----------|
| Entrypoint   | 0x006A   |
| Data Size    | 94 bytes |
| Instructions | 12       |

```
      00 01 02 03 04 05 06 07  08 09 0A 0B 0C 0D 0E 0F
      -- -- -- -- -- -- -- --  -- -- -- -- -- -- -- --
0060:                                4A F0 FF FF 7F 9F            J.....
0070: 10 10 01 4A 92 10 10 01  9F 10 10 01 4A 93 10 10  ...J........J...
0080: 01 9F 10 10 01 4A 94 10  10 01 9F 10 10 01 4A 97  .....J........J.
0090: 10 10 01 9F 10 10 01 4A  9C 10 10 01 9F 10 10 01  .......J........
00A0: 4A 9A 10 10 01 9F 10 10  01 4A 98 10 10 01 9F 10  J........J......
00B0: 10 01 4A 9D 10 10 01 9F  10 10 01 1C 04 80 4A 95  ..J...........J.
00C0: 10 10 01 9F 10 10 01 00                           ........        
```

#### Opcodes

```
  0: 0x006A [0x4A] LocalPlayer looks at Unnamed NPC (ID: 17830047/0x0110109F)
  1: 0x0073 [0x4A] Melvien (ID: 17830034/0x01101092) looks at Unnamed NPC (ID: 17830047/0x0110109F)
  2: 0x007C [0x4A] Hildebert (ID: 17830035/0x01101093) looks at Unnamed NPC (ID: 17830047/0x0110109F)
  3: 0x0085 [0x4A] Svenja (ID: 17830036/0x01101094) looks at Unnamed NPC (ID: 17830047/0x0110109F)
  4: 0x008E [0x4A] Margret (ID: 17830039/0x01101097) looks at Unnamed NPC (ID: 17830047/0x0110109F)
  5: 0x0097 [0x4A] Amchuchu (ID: 17830044/0x0110109C) looks at Unnamed NPC (ID: 17830047/0x0110109F)
  6: 0x00A0 [0x4A] Flaviria (ID: 17830042/0x0110109A) looks at Unnamed NPC (ID: 17830047/0x0110109F)
  7: 0x00A9 [0x4A] Lhe Lhangavo (ID: 17830040/0x01101098) looks at Unnamed NPC (ID: 17830047/0x0110109F)
  8: 0x00B2 [0x4A] Vortimere (ID: 17830045/0x0110109D) looks at Unnamed NPC (ID: 17830047/0x0110109F)
  9: 0x00BB [0x1C] WAIT(30* ticks)
 10: 0x00BE [0x4A] Ikhi Askamot (ID: 17830037/0x01101095) looks at Unnamed NPC (ID: 17830047/0x0110109F)
 11: 0x00C7 [0x00] END_REQSTACK()
```

### Event 65535.11

#### Metadata

| Field        | Value     |
|--------------|-----------|
| Entrypoint   | 0x00C8    |
| Data Size    | 148 bytes |
| Instructions | 26        |

```
      00 01 02 03 04 05 06 07  08 09 0A 0B 0C 0D 0E 0F
      -- -- -- -- -- -- -- --  -- -- -- -- -- -- -- --
00C0:                          1C 04 80 7B F0 FF FF 7F          ...{....
00D0: 7B 92 10 10 01 7B 93 10  10 01 7B 94 10 10 01 7B  {....{....{....{
00E0: 99 10 10 01 7B 97 10 10  01 7B 9C 10 10 01 7B 9A  ....{....{....{.
00F0: 10 10 01 7B 98 10 10 01  7B 9D 10 10 01 7B 95 10  ...{....{....{..
0100: 10 01 7B 9F 10 10 01 4B  F0 FF FF 7F 05 80 4B 92  ..{....K......K.
0110: 10 10 01 05 80 4B 93 10  10 01 05 80 4B 94 10 10  .....K......K...
0120: 01 05 80 4B 99 10 10 01  05 80 4B 9C 10 10 01 05  ...K......K.....
0130: 80 4B 9A 10 10 01 05 80  4B 98 10 10 01 05 80 4B  .K......K......K
0140: 9D 10 10 01 05 80 4B 95  10 10 01 05 80 4B 9F 10  ......K......K..
0150: 10 01 05 80 4B 97 10 10  01 00 80 00              ....K.......    
```

#### Opcodes

```
  0: 0x00C8 [0x1C] WAIT(30* ticks)
  1: 0x00CB [0x7B] LocalPlayer stops talking
  2: 0x00D0 [0x7B] Melvien (ID: 17830034/0x01101092) stops talking
  3: 0x00D5 [0x7B] Hildebert (ID: 17830035/0x01101093) stops talking
  4: 0x00DA [0x7B] Svenja (ID: 17830036/0x01101094) stops talking
  5: 0x00DF [0x7B] Gratzigg (ID: 17830041/0x01101099) stops talking
  6: 0x00E4 [0x7B] Margret (ID: 17830039/0x01101097) stops talking
  7: 0x00E9 [0x7B] Amchuchu (ID: 17830044/0x0110109C) stops talking
  8: 0x00EE [0x7B] Flaviria (ID: 17830042/0x0110109A) stops talking
  9: 0x00F3 [0x7B] Lhe Lhangavo (ID: 17830040/0x01101098) stops talking
 10: 0x00F8 [0x7B] Vortimere (ID: 17830045/0x0110109D) stops talking
 11: 0x00FD [0x7B] Ikhi Askamot (ID: 17830037/0x01101095) stops talking
 12: 0x0102 [0x7B] Unnamed NPC (ID: 17830047/0x0110109F) stops talking
 13: 0x0107 [0x4B] UPDATE_ENTITY_YAW(entity=LocalPlayer, yaw=16.9°*)
 14: 0x010E [0x4B] UPDATE_ENTITY_YAW(entity=Melvien (ID: 17830034/0x01101092), yaw=16.9°*)
 15: 0x0115 [0x4B] UPDATE_ENTITY_YAW(entity=Hildebert (ID: 17830035/0x01101093), yaw=16.9°*)
 16: 0x011C [0x4B] UPDATE_ENTITY_YAW(entity=Svenja (ID: 17830036/0x01101094), yaw=16.9°*)
 17: 0x0123 [0x4B] UPDATE_ENTITY_YAW(entity=Gratzigg (ID: 17830041/0x01101099), yaw=16.9°*)
 18: 0x012A [0x4B] UPDATE_ENTITY_YAW(entity=Amchuchu (ID: 17830044/0x0110109C), yaw=16.9°*)
 19: 0x0131 [0x4B] UPDATE_ENTITY_YAW(entity=Flaviria (ID: 17830042/0x0110109A), yaw=16.9°*)
 20: 0x0138 [0x4B] UPDATE_ENTITY_YAW(entity=Lhe Lhangavo (ID: 17830040/0x01101098), yaw=16.9°*)
 21: 0x013F [0x4B] UPDATE_ENTITY_YAW(entity=Vortimere (ID: 17830045/0x0110109D), yaw=16.9°*)
 22: 0x0146 [0x4B] UPDATE_ENTITY_YAW(entity=Ikhi Askamot (ID: 17830037/0x01101095), yaw=16.9°*)
 23: 0x014D [0x4B] UPDATE_ENTITY_YAW(entity=Unnamed NPC (ID: 17830047/0x0110109F), yaw=16.9°*)
 24: 0x0154 [0x4B] UPDATE_ENTITY_YAW(entity=Margret (ID: 17830039/0x01101097), yaw=0.0°*)
 25: 0x015B [0x00] END_REQSTACK()
```

### Event 65535.12

#### Metadata

| Field        | Value    |
|--------------|----------|
| Entrypoint   | 0x015C   |
| Data Size    | 15 bytes |
| Instructions | 5        |

```
      00 01 02 03 04 05 06 07  08 09 0A 0B 0C 0D 0E 0F
      -- -- -- -- -- -- -- --  -- -- -- -- -- -- -- --
0150:                                      32 06 80 1F              2...
0160: 00 07 80 08 80 09 80 1F  01 6F 00                 .........o.     
```

#### Opcodes

```
  0: 0x015C [0x32] ExtData[1]->MainSpeed = 13* * 0.1
  1: 0x015F [0x1F] MOVE_ENTITY: EventEntity moves to X=0.500*, Z=-11.500*, Y=-1.500*
  2: 0x0167 [0x1F] MOVE_ENTITY: Update entity position (mode=1)
  3: 0x0169 [0x6F] WAIT_FRAME_DELAY: Yield until WaitTime reaches zero
  4: 0x016A [0x00] END_REQSTACK()
```

### Event 65535.13

#### Metadata

| Field        | Value    |
|--------------|----------|
| Entrypoint   | 0x016B   |
| Data Size    | 15 bytes |
| Instructions | 5        |

```
      00 01 02 03 04 05 06 07  08 09 0A 0B 0C 0D 0E 0F
      -- -- -- -- -- -- -- --  -- -- -- -- -- -- -- --
0160:                                   32 06 80 1F 00             2....
0170: 00 80 0A 80 09 80 1F 01  6F 00                    ........o.      
```

#### Opcodes

```
  0: 0x016B [0x32] ExtData[1]->MainSpeed = 13* * 0.1
  1: 0x016E [0x1F] MOVE_ENTITY: EventEntity moves to X=0.000*, Z=-12.300*, Y=-1.500*
  2: 0x0176 [0x1F] MOVE_ENTITY: Update entity position (mode=1)
  3: 0x0178 [0x6F] WAIT_FRAME_DELAY: Yield until WaitTime reaches zero
  4: 0x0179 [0x00] END_REQSTACK()
```
