# 17830078 - Nashu

## Common Data

| Field            | Value                     |
|------------------|---------------------------|
| Zone             | Eastern Adoulin (ID: 257) |
| Block Size       | 356 bytes                 |
| Total Events     | 16                        |
| References Count | 13                        |

## List of Events

| Event ID                 | Entrypoint   |   Size |   Instructions |
|--------------------------|--------------|--------|----------------|
| [65535](#event-65535)    | 0x0000       |      1 |              1 |
| [31](#event-31)          | 0x0001       |     31 |              4 |
| [65535.1](#event-655351) | 0x0020       |     25 |              3 |
| [65535.2](#event-655352) | 0x0039       |     22 |              6 |
| [32](#event-32)          | 0x004F       |      7 |              2 |
| [5047](#event-5047)      | 0x0056       |      1 |              1 |
| [65535.3](#event-655353) | 0x0057       |     27 |              7 |
| [5048](#event-5048)      | 0x0072       |      1 |              1 |
| [65535.4](#event-655354) | 0x0073       |     22 |              6 |
| [5054](#event-5054)      | 0x0089       |      1 |              1 |
| [5055](#event-5055)      | 0x008A       |      1 |              1 |
| [5207](#event-5207)      | 0x008B       |      1 |              1 |
| [65535.5](#event-655355) | 0x008C       |     17 |              5 |
| [128](#event-128)        | 0x009D       |     31 |              4 |
| [65535.6](#event-655356) | 0x00BC       |     14 |              4 |
| [65535.7](#event-655357) | 0x00CA       |     20 |              6 |

## DAT References (imed_data)

|   Index | Hex Value   |   Dec Value |
|---------|-------------|-------------|
|       0 | 0x000D      |          13 |
|       1 | 0x10A90     |       68240 |
|       2 | 0xFFFFB985  |  4294949253 |
|       3 | 0xFFFF63C0  |  4294927296 |
|       4 | 0x001E      |          30 |
|       5 | 0x0028      |          40 |
|       6 | 0x1058E     |       66958 |
|       7 | 0xFFFFB26B  |  4294947435 |
|       8 | 0x109A0     |       68000 |
|       9 | 0xFFFFB1E0  |  4294947296 |
|      10 | 0x03FF      |        1023 |
|      11 | 0x0005      |           5 |
|      12 | 0xFFFF0DD0  |  4294905296 |

## Events

### Event 65535

#### Metadata

| Field        | Value   |
|--------------|---------|
| Entrypoint   | 0x0000  |
| Data Size    | 1 bytes |
| Instructions | 1       |

```
      00 01 02 03 04 05 06 07  08 09 0A 0B 0C 0D 0E 0F
      -- -- -- -- -- -- -- --  -- -- -- -- -- -- -- --
0000: 00                                                .               
```

#### Opcodes

```
  0: 0x0000 [0x00] END_REQSTACK()
```

### Event 31

#### Metadata

| Field        | Value    |
|--------------|----------|
| Entrypoint   | 0x0001   |
| Data Size    | 31 bytes |
| Instructions | 4        |

```
      00 01 02 03 04 05 06 07  08 09 0A 0B 0C 0D 0E 0F
      -- -- -- -- -- -- -- --  -- -- -- -- -- -- -- --
0000:    92 01 F8 FF FF 7F B4  00 00 00 3F 3F 3F 00 00   ..........???..
0010: 00 00 00 00 00 00 00 00  00 00 00 B5 00 00 00 00  ................
```

#### Opcodes

```
  0: 0x0001 [0x92] EventEntity->Render.Flags3 ^= 0x01
  1: 0x0007 [0xB4] UI_WINDOW_STRING_HANDLER(case=0x00 - Copy string from opcode, work_offset=ExtData[1]->WorkLocal[0], string="???")
  2: 0x001B [0xB5] SET_EVENT_ENTITY_NAME: Change EventEntity name to ExtData[1]->WorkLocal[0]
  3: 0x001F [0x00] END_REQSTACK()
```

### Event 65535.1

#### Metadata

| Field        | Value    |
|--------------|----------|
| Entrypoint   | 0x0020   |
| Data Size    | 25 bytes |
| Instructions | 3        |

```
      00 01 02 03 04 05 06 07  08 09 0A 0B 0C 0D 0E 0F
      -- -- -- -- -- -- -- --  -- -- -- -- -- -- -- --
0020: B4 00 00 00 4E 61 73 68  75 00 00 00 00 00 00 00  ....Nashu.......
0030: 00 00 00 00 B5 00 00 00  00                       .........       
```

#### Opcodes

```
  0: 0x0020 [0xB4] UI_WINDOW_STRING_HANDLER(case=0x00 - Copy string from opcode, work_offset=ExtData[1]->WorkLocal[0], string="Nashu")
  1: 0x0034 [0xB5] SET_EVENT_ENTITY_NAME: Change EventEntity name to ExtData[1]->WorkLocal[0]
  2: 0x0038 [0x00] END_REQSTACK()
```

### Event 65535.2

#### Metadata

| Field        | Value    |
|--------------|----------|
| Entrypoint   | 0x0039   |
| Data Size    | 22 bytes |
| Instructions | 6        |

```
      00 01 02 03 04 05 06 07  08 09 0A 0B 0C 0D 0E 0F
      -- -- -- -- -- -- -- --  -- -- -- -- -- -- -- --
0030:                             32 00 80 1F 00 01 80           2......
0040: 02 80 03 80 1F 01 1E F0  FF FF 7F 1C 04 80 00     ............... 
```

#### Opcodes

```
  0: 0x0039 [0x32] ExtData[1]->MainSpeed = 13* * 0.1
  1: 0x003C [0x1F] MOVE_ENTITY: EventEntity moves to X=68.240*, Z=-18.043*, Y=-40.000*
  2: 0x0044 [0x1F] MOVE_ENTITY: Update entity position (mode=1)
  3: 0x0046 [0x1E] EventEntity looks at LocalPlayer and starts talking
  4: 0x004B [0x1C] WAIT(30* ticks)
  5: 0x004E [0x00] END_REQSTACK()
```

### Event 32

#### Metadata

| Field        | Value   |
|--------------|---------|
| Entrypoint   | 0x004F  |
| Data Size    | 7 bytes |
| Instructions | 2       |

```
      00 01 02 03 04 05 06 07  08 09 0A 0B 0C 0D 0E 0F
      -- -- -- -- -- -- -- --  -- -- -- -- -- -- -- --
0040:                                               92                 .
0050: 01 F8 FF FF 7F 00                                 ......          
```

#### Opcodes

```
  0: 0x004F [0x92] EventEntity->Render.Flags3 ^= 0x01
  1: 0x0055 [0x00] END_REQSTACK()
```

### Event 5047

#### Metadata

| Field        | Value   |
|--------------|---------|
| Entrypoint   | 0x0056  |
| Data Size    | 1 bytes |
| Instructions | 1       |

```
      00 01 02 03 04 05 06 07  08 09 0A 0B 0C 0D 0E 0F
      -- -- -- -- -- -- -- --  -- -- -- -- -- -- -- --
0050:                   00                                    .         
```

#### Opcodes

```
  0: 0x0056 [0x00] END_REQSTACK()
```

### Event 65535.3

#### Metadata

| Field        | Value    |
|--------------|----------|
| Entrypoint   | 0x0057   |
| Data Size    | 27 bytes |
| Instructions | 7        |

```
      00 01 02 03 04 05 06 07  08 09 0A 0B 0C 0D 0E 0F
      -- -- -- -- -- -- -- --  -- -- -- -- -- -- -- --
0050:                      32  05 80 1F 00 01 80 02 80         2........
0060: 03 80 1F 01 1E F0 FF FF  7F 7B BE 10 10 01 1C 04  .........{......
0070: 80 00                                             ..              
```

#### Opcodes

```
  0: 0x0057 [0x32] ExtData[1]->MainSpeed = 40* * 0.1
  1: 0x005A [0x1F] MOVE_ENTITY: EventEntity moves to X=68.240*, Z=-18.043*, Y=-40.000*
  2: 0x0062 [0x1F] MOVE_ENTITY: Update entity position (mode=1)
  3: 0x0064 [0x1E] EventEntity looks at LocalPlayer and starts talking
  4: 0x0069 [0x7B] Nashu (ID: 17830078/0x011010BE) stops talking
  5: 0x006E [0x1C] WAIT(30* ticks)
  6: 0x0071 [0x00] END_REQSTACK()
```

### Event 5048

#### Metadata

| Field        | Value   |
|--------------|---------|
| Entrypoint   | 0x0072  |
| Data Size    | 1 bytes |
| Instructions | 1       |

```
      00 01 02 03 04 05 06 07  08 09 0A 0B 0C 0D 0E 0F
      -- -- -- -- -- -- -- --  -- -- -- -- -- -- -- --
0070:       00                                            .             
```

#### Opcodes

```
  0: 0x0072 [0x00] END_REQSTACK()
```

### Event 65535.4

#### Metadata

| Field        | Value    |
|--------------|----------|
| Entrypoint   | 0x0073   |
| Data Size    | 22 bytes |
| Instructions | 6        |

```
      00 01 02 03 04 05 06 07  08 09 0A 0B 0C 0D 0E 0F
      -- -- -- -- -- -- -- --  -- -- -- -- -- -- -- --
0070:          32 05 80 1F 00  01 80 02 80 03 80 1F 01     2............
0080: 1E F0 FF FF 7F 1C 04 80  00                       .........       
```

#### Opcodes

```
  0: 0x0073 [0x32] ExtData[1]->MainSpeed = 40* * 0.1
  1: 0x0076 [0x1F] MOVE_ENTITY: EventEntity moves to X=68.240*, Z=-18.043*, Y=-40.000*
  2: 0x007E [0x1F] MOVE_ENTITY: Update entity position (mode=1)
  3: 0x0080 [0x1E] EventEntity looks at LocalPlayer and starts talking
  4: 0x0085 [0x1C] WAIT(30* ticks)
  5: 0x0088 [0x00] END_REQSTACK()
```

### Event 5054

#### Metadata

| Field        | Value   |
|--------------|---------|
| Entrypoint   | 0x0089  |
| Data Size    | 1 bytes |
| Instructions | 1       |

```
      00 01 02 03 04 05 06 07  08 09 0A 0B 0C 0D 0E 0F
      -- -- -- -- -- -- -- --  -- -- -- -- -- -- -- --
0080:                             00                             .      
```

#### Opcodes

```
  0: 0x0089 [0x00] END_REQSTACK()
```

### Event 5055

#### Metadata

| Field        | Value   |
|--------------|---------|
| Entrypoint   | 0x008A  |
| Data Size    | 1 bytes |
| Instructions | 1       |

```
      00 01 02 03 04 05 06 07  08 09 0A 0B 0C 0D 0E 0F
      -- -- -- -- -- -- -- --  -- -- -- -- -- -- -- --
0080:                                00                           .     
```

#### Opcodes

```
  0: 0x008A [0x00] END_REQSTACK()
```

### Event 5207

#### Metadata

| Field        | Value   |
|--------------|---------|
| Entrypoint   | 0x008B  |
| Data Size    | 1 bytes |
| Instructions | 1       |

```
      00 01 02 03 04 05 06 07  08 09 0A 0B 0C 0D 0E 0F
      -- -- -- -- -- -- -- --  -- -- -- -- -- -- -- --
0080:                                   00                         .    
```

#### Opcodes

```
  0: 0x008B [0x00] END_REQSTACK()
```

### Event 65535.5

#### Metadata

| Field        | Value    |
|--------------|----------|
| Entrypoint   | 0x008C   |
| Data Size    | 17 bytes |
| Instructions | 5        |

```
      00 01 02 03 04 05 06 07  08 09 0A 0B 0C 0D 0E 0F
      -- -- -- -- -- -- -- --  -- -- -- -- -- -- -- --
0080:                                      32 00 80 1F              2...
0090: 00 06 80 07 80 03 80 1F  01 1C 04 80 00           .............   
```

#### Opcodes

```
  0: 0x008C [0x32] ExtData[1]->MainSpeed = 13* * 0.1
  1: 0x008F [0x1F] MOVE_ENTITY: EventEntity moves to X=66.958*, Z=-19.861*, Y=-40.000*
  2: 0x0097 [0x1F] MOVE_ENTITY: Update entity position (mode=1)
  3: 0x0099 [0x1C] WAIT(30* ticks)
  4: 0x009C [0x00] END_REQSTACK()
```

### Event 128

#### Metadata

| Field        | Value    |
|--------------|----------|
| Entrypoint   | 0x009D   |
| Data Size    | 31 bytes |
| Instructions | 4        |

```
      00 01 02 03 04 05 06 07  08 09 0A 0B 0C 0D 0E 0F
      -- -- -- -- -- -- -- --  -- -- -- -- -- -- -- --
0090:                                         92 01 F8               ...
00A0: FF FF 7F B4 00 00 00 3F  3F 3F 00 00 00 00 00 00  .......???......
00B0: 00 00 00 00 00 00 00 B5  00 00 00 00              ............    
```

#### Opcodes

```
  0: 0x009D [0x92] EventEntity->Render.Flags3 ^= 0x01
  1: 0x00A3 [0xB4] UI_WINDOW_STRING_HANDLER(case=0x00 - Copy string from opcode, work_offset=ExtData[1]->WorkLocal[0], string="???")
  2: 0x00B7 [0xB5] SET_EVENT_ENTITY_NAME: Change EventEntity name to ExtData[1]->WorkLocal[0]
  3: 0x00BB [0x00] END_REQSTACK()
```

### Event 65535.6

#### Metadata

| Field        | Value    |
|--------------|----------|
| Entrypoint   | 0x00BC   |
| Data Size    | 14 bytes |
| Instructions | 4        |

```
      00 01 02 03 04 05 06 07  08 09 0A 0B 0C 0D 0E 0F
      -- -- -- -- -- -- -- --  -- -- -- -- -- -- -- --
00B0:                                      32 05 80 1F              2...
00C0: 00 08 80 09 80 03 80 1F  01 00                    ..........      
```

#### Opcodes

```
  0: 0x00BC [0x32] ExtData[1]->MainSpeed = 40* * 0.1
  1: 0x00BF [0x1F] MOVE_ENTITY: EventEntity moves to X=68.000*, Z=-20.000*, Y=-40.000*
  2: 0x00C7 [0x1F] MOVE_ENTITY: Update entity position (mode=1)
  3: 0x00C9 [0x00] END_REQSTACK()
```

### Event 65535.7

#### Metadata

| Field        | Value    |
|--------------|----------|
| Entrypoint   | 0x00CA   |
| Data Size    | 20 bytes |
| Instructions | 6        |

```
      00 01 02 03 04 05 06 07  08 09 0A 0B 0C 0D 0E 0F
      -- -- -- -- -- -- -- --  -- -- -- -- -- -- -- --
00C0:                                39 0A 80 1C 0B 80            9.....
00D0: 32 05 80 1F 00 08 80 0C  80 03 80 1F 01 00        2.............  
```

#### Opcodes

```
  0: 0x00CA [0x39] SET_ENTITY_DIRECTION(direction=5.6°*)
  1: 0x00CD [0x1C] WAIT(5* ticks)
  2: 0x00D0 [0x32] ExtData[1]->MainSpeed = 40* * 0.1
  3: 0x00D3 [0x1F] MOVE_ENTITY: EventEntity moves to X=68.000*, Z=-62.000*, Y=-40.000*
  4: 0x00DB [0x1F] MOVE_ENTITY: Update entity position (mode=1)
  5: 0x00DD [0x00] END_REQSTACK()
```
