# 17830133 - Adelise

## Common Data

| Field            | Value                     |
|------------------|---------------------------|
| Zone             | Eastern Adoulin (ID: 257) |
| Block Size       | 96 bytes                  |
| Total Events     | 4                         |
| References Count | 3                         |

## List of Events

| Event ID              | Entrypoint   |   Size |   Instructions |
|-----------------------|--------------|--------|----------------|
| [65535](#event-65535) | 0x0000       |      1 |              1 |
| [561](#event-561)     | 0x0001       |     47 |             11 |
| [89](#event-89)       | 0x0030       |      1 |              1 |
| [92](#event-92)       | 0x0031       |      1 |              1 |

## DAT References (imed_data)

|   Index | Hex Value   |   Dec Value |
|---------|-------------|-------------|
|       0 | 0x00B3      |         179 |
|       1 | 0x2922      |       10530 |
|       2 | 0x2923      |       10531 |

## String References

- **10530**: I had always longed to become an exorcist at this priory. Ever since I was but a babe suckling on my mother's teat, I knew that this was my calling.
- **10531**: And I finally realized that dream recently! I have been completely absorbed in my training. No evil spirits will be spraying our citizenry with pea soup, not while I'm around!

## Events

### Event 65535

#### Metadata

| Field        | Value   |
|--------------|---------|
| Entrypoint   | 0x0000  |
| Data Size    | 1 bytes |
| Instructions | 1       |

```
      00 01 02 03 04 05 06 07  08 09 0A 0B 0C 0D 0E 0F
      -- -- -- -- -- -- -- --  -- -- -- -- -- -- -- --
0000: 00                                                .               
```

#### Opcodes

```
  0: 0x0000 [0x00] END_REQSTACK()
```

### Event 561

#### Metadata

| Field        | Value    |
|--------------|----------|
| Entrypoint   | 0x0001   |
| Data Size    | 47 bytes |
| Instructions | 11       |

```
      00 01 02 03 04 05 06 07  08 09 0A 0B 0C 0D 0E 0F
      -- -- -- -- -- -- -- --  -- -- -- -- -- -- -- --
0000:    1E F0 FF FF 7F 6F 70  66 00 80 F8 FF FF 7F F8   .....opf.......
0010: FF FF 7F 74 6C 6B 30 1D  01 80 23 66 00 80 F8 FF  ...tlk0...#f....
0020: FF 7F F8 FF FF 7F 74 6C  6B 31 1D 02 80 23 21 00  ......tlk1...#!.
```

#### Opcodes

```
  0: 0x0001 [0x1E] EventEntity looks at LocalPlayer and starts talking
  1: 0x0006 [0x6F] WAIT_FRAME_DELAY: Yield until WaitTime reaches zero
  2: 0x0007 [0x70] WAIT_ENTITY_RENDER_FLAG: Wait while EventEntity->Render.Flags3 bit 2 is set (cancel turn if not)
  3: 0x0008 [0x66] LOAD_EXT_SCHEDULER_MAIN: Load scheduler "tlk0" with entities [EventEntity, EventEntity], work=179*
  4: 0x0017 [0x1D] PRINT_EVENT_MESSAGE(message_id=10530*)
    → "I had always longed to become an exorcist at this priory. Ever since I was but a babe suckling on my mother's teat, I knew that this was my calling."
  5: 0x001A [0x23] WAIT_FOR_DIALOG_INTERACTION
  6: 0x001B [0x66] LOAD_EXT_SCHEDULER_MAIN: Load scheduler "tlk1" with entities [EventEntity, EventEntity], work=179*
  7: 0x002A [0x1D] PRINT_EVENT_MESSAGE(message_id=10531*)
    → "And I finally realized that dream recently! I have been completely absorbed in my training. No evil spirits will be spraying our citizenry with pea soup, not while I'm around!"
  8: 0x002D [0x23] WAIT_FOR_DIALOG_INTERACTION
  9: 0x002E [0x21] END_EVENT
 10: 0x002F [0x00] END_REQSTACK()
```

### Event 89

#### Metadata

| Field        | Value   |
|--------------|---------|
| Entrypoint   | 0x0030  |
| Data Size    | 1 bytes |
| Instructions | 1       |

```
      00 01 02 03 04 05 06 07  08 09 0A 0B 0C 0D 0E 0F
      -- -- -- -- -- -- -- --  -- -- -- -- -- -- -- --
0030: 00                                                .               
```

#### Opcodes

```
  0: 0x0030 [0x00] END_REQSTACK()
```

### Event 92

#### Metadata

| Field        | Value   |
|--------------|---------|
| Entrypoint   | 0x0031  |
| Data Size    | 1 bytes |
| Instructions | 1       |

```
      00 01 02 03 04 05 06 07  08 09 0A 0B 0C 0D 0E 0F
      -- -- -- -- -- -- -- --  -- -- -- -- -- -- -- --
0030:    00                                              .              
```

#### Opcodes

```
  0: 0x0031 [0x00] END_REQSTACK()
```
