# 17830032 - Arciela

## Common Data

| Field            | Value                     |
|------------------|---------------------------|
| Zone             | Eastern Adoulin (ID: 257) |
| Block Size       | 1372 bytes                |
| Total Events     | 71                        |
| References Count | 79                        |

## List of Events

| Event ID                   | Entrypoint   |   Size |   Instructions |
|----------------------------|--------------|--------|----------------|
| [65535](#event-65535)      | 0x0000       |      1 |              1 |
| [65535.1](#event-655351)   | 0x0001       |      1 |              1 |
| [65535.2](#event-655352)   | 0x0002       |     18 |              4 |
| [65535.3](#event-655353)   | 0x0014       |     10 |              2 |
| [65535.4](#event-655354)   | 0x001E       |      9 |              3 |
| [65535.5](#event-655355)   | 0x0027       |      9 |              3 |
| [65535.6](#event-655356)   | 0x0030       |     10 |              2 |
| [65535.7](#event-655357)   | 0x003A       |     10 |              2 |
| [65535.8](#event-655358)   | 0x0044       |     18 |              4 |
| [65535.9](#event-655359)   | 0x0056       |     15 |              5 |
| [65535.10](#event-6553510) | 0x0065       |     24 |              6 |
| [65535.11](#event-6553511) | 0x007D       |     24 |              6 |
| [1500](#event-1500)        | 0x0095       |      7 |              3 |
| [65535.12](#event-6553512) | 0x009C       |      3 |              2 |
| [65535.13](#event-6553513) | 0x009F       |      3 |              2 |
| [65535.14](#event-6553514) | 0x00A2       |      5 |              2 |
| [1506](#event-1506)        | 0x00A7       |      1 |              1 |
| [65535.15](#event-6553515) | 0x00A8       |     17 |              5 |
| [65535.16](#event-6553516) | 0x00B9       |     22 |              6 |
| [65535.17](#event-6553517) | 0x00CF       |     14 |              4 |
| [65535.18](#event-6553518) | 0x00DD       |     14 |              4 |
| [65535.19](#event-6553519) | 0x00EB       |     14 |              4 |
| [65535.20](#event-6553520) | 0x00F9       |     28 |              8 |
| [65535.21](#event-6553521) | 0x0115       |     14 |              4 |
| [1507](#event-1507)        | 0x0123       |      1 |              1 |
| [65535.22](#event-6553522) | 0x0124       |     19 |              5 |
| [65535.23](#event-6553523) | 0x0137       |      4 |              2 |
| [65535.24](#event-6553524) | 0x013B       |      4 |              2 |
| [65535.25](#event-6553525) | 0x013F       |     15 |              5 |
| [1509](#event-1509)        | 0x014E       |      1 |              1 |
| [65535.26](#event-6553526) | 0x014F       |     22 |              6 |
| [1510](#event-1510)        | 0x0165       |      1 |              1 |
| [1511](#event-1511)        | 0x0166       |      1 |              1 |
| [65535.27](#event-6553527) | 0x0167       |     22 |              6 |
| [1513](#event-1513)        | 0x017D       |      1 |              1 |
| [65535.28](#event-6553528) | 0x017E       |     22 |              6 |
| [65535.29](#event-6553529) | 0x0194       |     14 |              4 |
| [65535.30](#event-6553530) | 0x01A2       |     14 |              4 |
| [1528](#event-1528)        | 0x01B0       |      1 |              1 |
| [65535.31](#event-6553531) | 0x01B1       |     14 |              4 |
| [65535.32](#event-6553532) | 0x01BF       |     24 |              6 |
| [65535.33](#event-6553533) | 0x01D7       |     22 |              6 |
| [65535.34](#event-6553534) | 0x01ED       |     14 |              4 |
| [1529](#event-1529)        | 0x01FB       |      1 |              1 |
| [1531](#event-1531)        | 0x01FC       |      1 |              1 |
| [1532](#event-1532)        | 0x01FD       |      1 |              1 |
| [1533](#event-1533)        | 0x01FE       |      1 |              1 |
| [65535.35](#event-6553535) | 0x01FF       |     14 |              4 |
| [1534](#event-1534)        | 0x020D       |      1 |              1 |
| [65535.36](#event-6553536) | 0x020E       |     17 |              5 |
| [65535.37](#event-6553537) | 0x021F       |     24 |              6 |
| [1535](#event-1535)        | 0x0237       |      1 |              1 |
| [1551](#event-1551)        | 0x0238       |      1 |              1 |
| [1552](#event-1552)        | 0x0239       |      1 |              1 |
| [65535.38](#event-6553538) | 0x023A       |     32 |              8 |
| [65535.39](#event-6553539) | 0x025A       |      3 |              2 |
| [65535.40](#event-6553540) | 0x025D       |      3 |              2 |
| [1538](#event-1538)        | 0x0260       |      1 |              1 |
| [1548](#event-1548)        | 0x0261       |      1 |              1 |
| [1549](#event-1549)        | 0x0262       |      3 |              2 |
| [65535.41](#event-6553541) | 0x0265       |     14 |              4 |
| [108](#event-108)          | 0x0273       |      1 |              1 |
| [65535.42](#event-6553542) | 0x0274       |     14 |              4 |
| [110](#event-110)          | 0x0282       |      7 |              2 |
| [65535.43](#event-6553543) | 0x0289       |     19 |              5 |
| [114](#event-114)          | 0x029C       |      7 |              2 |
| [65535.44](#event-6553544) | 0x02A3       |     19 |              5 |
| [126](#event-126)          | 0x02B6       |      7 |              2 |
| [65535.45](#event-6553545) | 0x02BD       |     39 |              9 |
| [5230](#event-5230)        | 0x02E4       |      7 |              2 |
| [5232](#event-5232)        | 0x02EB       |      7 |              2 |

## DAT References (imed_data)

|   Index | Hex Value   |   Dec Value |
|---------|-------------|-------------|
|       0 | 0x0000      |           0 |
|       1 | 0x0001      |           1 |
|       2 | 0x0080      |         128 |
|       3 | 0x000D      |          13 |
|       4 | 0xFFFFE4A8  |  4294960296 |
|       5 | 0xFFFFFA24  |  4294965796 |
|       6 | 0xFFFFD120  |  4294955296 |
|       7 | 0xFFFFCF2C  |  4294954796 |
|       8 | 0x0A8F      |        2703 |
|       9 | 0x0A8C      |        2700 |
|      10 | 0x172C7     |       94919 |
|      11 | 0xFFFF09E6  |  4294904294 |
|      12 | 0xFFFF63C0  |  4294927296 |
|      13 | 0x001E      |          30 |
|      14 | 0x17CB6     |       97462 |
|      15 | 0xFFFF0D03  |  4294905091 |
|      16 | 0xFFFF632C  |  4294927148 |
|      17 | 0x19E14     |      106004 |
|      18 | 0xFFFF091C  |  4294904092 |
|      19 | 0x0028      |          40 |
|      20 | 0x03AA      |         938 |
|      21 | 0x617F      |       24959 |
|      22 | 0xFFFFFA25  |  4294965797 |
|      23 | 0xFFFF20CD  |  4294910157 |
|      24 | 0xFFFFCB7E  |  4294953854 |
|      25 | 0xFFFFFE0C  |  4294966796 |
|      26 | 0xFFFF18A6  |  4294908070 |
|      27 | 0xFFFFC614  |  4294952468 |
|      28 | 0xFFFF32BA  |  4294914746 |
|      29 | 0xFFFFCC3D  |  4294954045 |
|      30 | 0xFFFEFDCF  |  4294901199 |
|      31 | 0xFFFFDD7C  |  4294958460 |
|      32 | 0x033D      |         829 |
|      33 | 0x35FF      |       13823 |
|      34 | 0xFFFF528A  |  4294922890 |
|      35 | 0xFFFFE002  |  4294959106 |
|      36 | 0xFFFFFCE0  |  4294966496 |
|      37 | 0xFFFFFB78  |  4294966136 |
|      38 | 0xFFFFFDD6  |  4294966742 |
|      39 | 0xFFFFF7B2  |  4294965170 |
|      40 | 0xFFFF2D55  |  4294913365 |
|      41 | 0xFFFF8CE7  |  4294937831 |
|      42 | 0xFFFF195F  |  4294908255 |
|      43 | 0xFFFFD03D  |  4294955069 |
|      44 | 0xFFFF4C96  |  4294921366 |
|      45 | 0xFFFFC80F  |  4294952975 |
|      46 | 0xFFFF2961  |  4294912353 |
|      47 | 0xFFFFC9D0  |  4294953424 |
|      48 | 0xFFFF17BF  |  4294907839 |
|      49 | 0xFFFFD2CB  |  4294955723 |
|      50 | 0xFFFF02A3  |  4294902435 |
|      51 | 0xFFFFDAB3  |  4294957747 |
|      52 | 0xFFFF026C  |  4294902380 |
|      53 | 0xFFFFDD98  |  4294958488 |
|      54 | 0xFFFFFFFC  |  4294967292 |
|      55 | 0x0398      |         920 |
|      56 | 0xFFFF8ED6  |  4294938326 |
|      57 | 0xFFFFCF97  |  4294954903 |
|      58 | 0xFFFF6B1F  |  4294929183 |
|      59 | 0xFFFFC98D  |  4294953357 |
|      60 | 0xFFFFFE0D  |  4294966797 |
|      61 | 0xFFFF5A07  |  4294924807 |
|      62 | 0xFFFFC95F  |  4294953311 |
|      63 | 0xFFFF7EC8  |  4294934216 |
|      64 | 0xFFFFCC8F  |  4294954127 |
|      65 | 0xFFFF869F  |  4294936223 |
|      66 | 0xFFFFDD03  |  4294958339 |
|      67 | 0xFFFFFFE9  |  4294967273 |
|      68 | 0xFFFFC7DA  |  4294952922 |
|      69 | 0x1720B     |       94731 |
|      70 | 0xFFFF0A4E  |  4294904398 |
|      71 | 0xFFFF63C1  |  4294927297 |
|      72 | 0xFFFF2158  |  4294910296 |
|      73 | 0xFFFFE2B4  |  4294959796 |
|      74 | 0xFFFFD8F0  |  4294957296 |
|      75 | 0xFFFF27FC  |  4294911996 |
|      76 | 0xFFFFCD38  |  4294954296 |
|      77 | 0xFFFF2414  |  4294910996 |
|      78 | 0xFFFFD2B0  |  4294955696 |

## Events

### Event 65535

#### Metadata

| Field        | Value   |
|--------------|---------|
| Entrypoint   | 0x0000  |
| Data Size    | 1 bytes |
| Instructions | 1       |

```
      00 01 02 03 04 05 06 07  08 09 0A 0B 0C 0D 0E 0F
      -- -- -- -- -- -- -- --  -- -- -- -- -- -- -- --
0000: 00                                                .               
```

#### Opcodes

```
  0: 0x0000 [0x00] END_REQSTACK()
```

### Event 65535.1

#### Metadata

| Field        | Value   |
|--------------|---------|
| Entrypoint   | 0x0001  |
| Data Size    | 1 bytes |
| Instructions | 1       |

```
      00 01 02 03 04 05 06 07  08 09 0A 0B 0C 0D 0E 0F
      -- -- -- -- -- -- -- --  -- -- -- -- -- -- -- --
0000:    00                                              .              
```

#### Opcodes

```
  0: 0x0001 [0x00] END_REQSTACK()
```

### Event 65535.2

#### Metadata

| Field        | Value    |
|--------------|----------|
| Entrypoint   | 0x0002   |
| Data Size    | 18 bytes |
| Instructions | 4        |

```
      00 01 02 03 04 05 06 07  08 09 0A 0B 0C 0D 0E 0F
      -- -- -- -- -- -- -- --  -- -- -- -- -- -- -- --
0000:       22 00 2F 00 F8 FF  FF 7F 6C F8 FF FF 7F 00    "./.....l.....
0010: 80 01 80 00                                       ....            
```

#### Opcodes

```
  0: 0x0002 [0x22] ENTITY_HIDE_FLAG(enabled=0x00)
  1: 0x0004 [0x2F] EventEntity->Render.Flags0 &= ~0x80000 // Bit 19
  2: 0x000A [0x6C] FADE_ENTITY_COLOR(entity_id=EventEntity, end_alpha=0*, fade_time=1*)
  3: 0x0013 [0x00] END_REQSTACK()
```

### Event 65535.3

#### Metadata

| Field        | Value    |
|--------------|----------|
| Entrypoint   | 0x0014   |
| Data Size    | 10 bytes |
| Instructions | 2        |

```
      00 01 02 03 04 05 06 07  08 09 0A 0B 0C 0D 0E 0F
      -- -- -- -- -- -- -- --  -- -- -- -- -- -- -- --
0010:             6C F8 FF FF  7F 02 80 01 80 00            l.........  
```

#### Opcodes

```
  0: 0x0014 [0x6C] FADE_ENTITY_COLOR(entity_id=EventEntity, end_alpha=128*, fade_time=1*)
  1: 0x001D [0x00] END_REQSTACK()
```

### Event 65535.4

#### Metadata

| Field        | Value   |
|--------------|---------|
| Entrypoint   | 0x001E  |
| Data Size    | 9 bytes |
| Instructions | 3       |

```
      00 01 02 03 04 05 06 07  08 09 0A 0B 0C 0D 0E 0F
      -- -- -- -- -- -- -- --  -- -- -- -- -- -- -- --
0010:                                            22 00                ".
0020: 2F 00 F8 FF FF 7F 00                              /......         
```

#### Opcodes

```
  0: 0x001E [0x22] ENTITY_HIDE_FLAG(enabled=0x00)
  1: 0x0020 [0x2F] EventEntity->Render.Flags0 &= ~0x80000 // Bit 19
  2: 0x0026 [0x00] END_REQSTACK()
```

### Event 65535.5

#### Metadata

| Field        | Value   |
|--------------|---------|
| Entrypoint   | 0x0027  |
| Data Size    | 9 bytes |
| Instructions | 3       |

```
      00 01 02 03 04 05 06 07  08 09 0A 0B 0C 0D 0E 0F
      -- -- -- -- -- -- -- --  -- -- -- -- -- -- -- --
0020:                      22  01 2F 01 F8 FF FF 7F 00         "./......
```

#### Opcodes

```
  0: 0x0027 [0x22] ENTITY_HIDE_FLAG(enabled=0x01)
  1: 0x0029 [0x2F] EventEntity->Render.Flags0 |= 0x80000 // Bit 19
  2: 0x002F [0x00] END_REQSTACK()
```

### Event 65535.6

#### Metadata

| Field        | Value    |
|--------------|----------|
| Entrypoint   | 0x0030   |
| Data Size    | 10 bytes |
| Instructions | 2        |

```
      00 01 02 03 04 05 06 07  08 09 0A 0B 0C 0D 0E 0F
      -- -- -- -- -- -- -- --  -- -- -- -- -- -- -- --
0030: 6C F8 FF FF 7F 00 80 01  80 00                    l.........      
```

#### Opcodes

```
  0: 0x0030 [0x6C] FADE_ENTITY_COLOR(entity_id=EventEntity, end_alpha=0*, fade_time=1*)
  1: 0x0039 [0x00] END_REQSTACK()
```

### Event 65535.7

#### Metadata

| Field        | Value    |
|--------------|----------|
| Entrypoint   | 0x003A   |
| Data Size    | 10 bytes |
| Instructions | 2        |

```
      00 01 02 03 04 05 06 07  08 09 0A 0B 0C 0D 0E 0F
      -- -- -- -- -- -- -- --  -- -- -- -- -- -- -- --
0030:                                6C F8 FF FF 7F 02            l.....
0040: 80 01 80 00                                       ....            
```

#### Opcodes

```
  0: 0x003A [0x6C] FADE_ENTITY_COLOR(entity_id=EventEntity, end_alpha=128*, fade_time=1*)
  1: 0x0043 [0x00] END_REQSTACK()
```

### Event 65535.8

#### Metadata

| Field        | Value    |
|--------------|----------|
| Entrypoint   | 0x0044   |
| Data Size    | 18 bytes |
| Instructions | 4        |

```
      00 01 02 03 04 05 06 07  08 09 0A 0B 0C 0D 0E 0F
      -- -- -- -- -- -- -- --  -- -- -- -- -- -- -- --
0040:             92 01 F8 FF  FF 7F 80 F8 FF FF 7F 94      ............
0050: 01 F8 FF FF 7F 00                                 ......          
```

#### Opcodes

```
  0: 0x0044 [0x92] EventEntity->Render.Flags3 ^= 0x01
  1: 0x004A [0x80] LOAD_WAIT(entity=EventEntity)
  2: 0x004F [0x94] EventEntity->Render.Flags3 ^= 0x01
  3: 0x0055 [0x00] END_REQSTACK()
```

### Event 65535.9

#### Metadata

| Field        | Value    |
|--------------|----------|
| Entrypoint   | 0x0056   |
| Data Size    | 15 bytes |
| Instructions | 5        |

```
      00 01 02 03 04 05 06 07  08 09 0A 0B 0C 0D 0E 0F
      -- -- -- -- -- -- -- --  -- -- -- -- -- -- -- --
0050:                   32 03  80 1F 00 00 80 04 80 05        2.........
0060: 80 1F 01 6F 00                                    ...o.           
```

#### Opcodes

```
  0: 0x0056 [0x32] ExtData[1]->MainSpeed = 13* * 0.1
  1: 0x0059 [0x1F] MOVE_ENTITY: EventEntity moves to X=0.000*, Z=-7.000*, Y=-1.500*
  2: 0x0061 [0x1F] MOVE_ENTITY: Update entity position (mode=1)
  3: 0x0063 [0x6F] WAIT_FRAME_DELAY: Yield until WaitTime reaches zero
  4: 0x0064 [0x00] END_REQSTACK()
```

### Event 65535.10

#### Metadata

| Field        | Value    |
|--------------|----------|
| Entrypoint   | 0x0065   |
| Data Size    | 24 bytes |
| Instructions | 6        |

```
      00 01 02 03 04 05 06 07  08 09 0A 0B 0C 0D 0E 0F
      -- -- -- -- -- -- -- --  -- -- -- -- -- -- -- --
0060:                32 03 80  1F 00 00 80 06 80 05 80       2..........
0070: 1F 01 6F 4A 90 10 10 01  9F 10 10 01 00           ..oJ.........   
```

#### Opcodes

```
  0: 0x0065 [0x32] ExtData[1]->MainSpeed = 13* * 0.1
  1: 0x0068 [0x1F] MOVE_ENTITY: EventEntity moves to X=0.000*, Z=-12.000*, Y=-1.500*
  2: 0x0070 [0x1F] MOVE_ENTITY: Update entity position (mode=1)
  3: 0x0072 [0x6F] WAIT_FRAME_DELAY: Yield until WaitTime reaches zero
  4: 0x0073 [0x4A] Arciela (ID: 17830032/0x01101090) looks at Unnamed NPC (ID: 17830047/0x0110109F)
  5: 0x007C [0x00] END_REQSTACK()
```

### Event 65535.11

#### Metadata

| Field        | Value    |
|--------------|----------|
| Entrypoint   | 0x007D   |
| Data Size    | 24 bytes |
| Instructions | 6        |

```
      00 01 02 03 04 05 06 07  08 09 0A 0B 0C 0D 0E 0F
      -- -- -- -- -- -- -- --  -- -- -- -- -- -- -- --
0070:                                         32 03 80               2..
0080: 1F 00 00 80 07 80 05 80  1F 01 6F 4A 90 10 10 01  ..........oJ....
0090: 99 10 10 01 00                                    .....           
```

#### Opcodes

```
  0: 0x007D [0x32] ExtData[1]->MainSpeed = 13* * 0.1
  1: 0x0080 [0x1F] MOVE_ENTITY: EventEntity moves to X=0.000*, Z=-12.500*, Y=-1.500*
  2: 0x0088 [0x1F] MOVE_ENTITY: Update entity position (mode=1)
  3: 0x008A [0x6F] WAIT_FRAME_DELAY: Yield until WaitTime reaches zero
  4: 0x008B [0x4A] Arciela (ID: 17830032/0x01101090) looks at Gratzigg (ID: 17830041/0x01101099)
  5: 0x0094 [0x00] END_REQSTACK()
```

### Event 1500

#### Metadata

| Field        | Value   |
|--------------|---------|
| Entrypoint   | 0x0095  |
| Data Size    | 7 bytes |
| Instructions | 3       |

```
      00 01 02 03 04 05 06 07  08 09 0A 0B 0C 0D 0E 0F
      -- -- -- -- -- -- -- --  -- -- -- -- -- -- -- --
0090:                A5 01 B6  00 08 80 00                   .......    
```

#### Opcodes

```
  0: 0x0095 [0xA5] EventEntity->Flags3.BallistaTeam |= 0x08  // Set bit 3 of BallistaTeam
  1: 0x0097 [0xB6] ENTITY_APPEARANCE_HANDLER(case=Hair style, value=2703*)
  2: 0x009B [0x00] END_REQSTACK()
```

### Event 65535.12

#### Metadata

| Field        | Value   |
|--------------|---------|
| Entrypoint   | 0x009C  |
| Data Size    | 3 bytes |
| Instructions | 2       |

```
      00 01 02 03 04 05 06 07  08 09 0A 0B 0C 0D 0E 0F
      -- -- -- -- -- -- -- --  -- -- -- -- -- -- -- --
0090:                                      A5 01 00                 ... 
```

#### Opcodes

```
  0: 0x009C [0xA5] EventEntity->Flags3.BallistaTeam |= 0x08  // Set bit 3 of BallistaTeam
  1: 0x009E [0x00] END_REQSTACK()
```

### Event 65535.13

#### Metadata

| Field        | Value   |
|--------------|---------|
| Entrypoint   | 0x009F  |
| Data Size    | 3 bytes |
| Instructions | 2       |

```
      00 01 02 03 04 05 06 07  08 09 0A 0B 0C 0D 0E 0F
      -- -- -- -- -- -- -- --  -- -- -- -- -- -- -- --
0090:                                               A5                 .
00A0: 00 00                                             ..              
```

#### Opcodes

```
  0: 0x009F [0xA5] EventEntity->Flags3.BallistaTeam &= ~0x08  // Clear bit 3 of BallistaTeam
  1: 0x00A1 [0x00] END_REQSTACK()
```

### Event 65535.14

#### Metadata

| Field        | Value   |
|--------------|---------|
| Entrypoint   | 0x00A2  |
| Data Size    | 5 bytes |
| Instructions | 2       |

```
      00 01 02 03 04 05 06 07  08 09 0A 0B 0C 0D 0E 0F
      -- -- -- -- -- -- -- --  -- -- -- -- -- -- -- --
00A0:       B6 00 09 80 00                                .....         
```

#### Opcodes

```
  0: 0x00A2 [0xB6] ENTITY_APPEARANCE_HANDLER(case=Hair style, value=2700*)
  1: 0x00A6 [0x00] END_REQSTACK()
```

### Event 1506

#### Metadata

| Field        | Value   |
|--------------|---------|
| Entrypoint   | 0x00A7  |
| Data Size    | 1 bytes |
| Instructions | 1       |

```
      00 01 02 03 04 05 06 07  08 09 0A 0B 0C 0D 0E 0F
      -- -- -- -- -- -- -- --  -- -- -- -- -- -- -- --
00A0:                      00                                  .        
```

#### Opcodes

```
  0: 0x00A7 [0x00] END_REQSTACK()
```

### Event 65535.15

#### Metadata

| Field        | Value    |
|--------------|----------|
| Entrypoint   | 0x00A8   |
| Data Size    | 17 bytes |
| Instructions | 5        |

```
      00 01 02 03 04 05 06 07  08 09 0A 0B 0C 0D 0E 0F
      -- -- -- -- -- -- -- --  -- -- -- -- -- -- -- --
00A0:                          32 03 80 1F 00 0A 80 0B          2.......
00B0: 80 0C 80 1F 01 1C 0D 80  00                       .........       
```

#### Opcodes

```
  0: 0x00A8 [0x32] ExtData[1]->MainSpeed = 13* * 0.1
  1: 0x00AB [0x1F] MOVE_ENTITY: EventEntity moves to X=94.919*, Z=-63.002*, Y=-40.000*
  2: 0x00B3 [0x1F] MOVE_ENTITY: Update entity position (mode=1)
  3: 0x00B5 [0x1C] WAIT(30* ticks)
  4: 0x00B8 [0x00] END_REQSTACK()
```

### Event 65535.16

#### Metadata

| Field        | Value    |
|--------------|----------|
| Entrypoint   | 0x00B9   |
| Data Size    | 22 bytes |
| Instructions | 6        |

```
      00 01 02 03 04 05 06 07  08 09 0A 0B 0C 0D 0E 0F
      -- -- -- -- -- -- -- --  -- -- -- -- -- -- -- --
00B0:                             32 03 80 1F 00 0E 80           2......
00C0: 0F 80 10 80 1F 01 1E F0  FF FF 7F 1C 0D 80 00     ............... 
```

#### Opcodes

```
  0: 0x00B9 [0x32] ExtData[1]->MainSpeed = 13* * 0.1
  1: 0x00BC [0x1F] MOVE_ENTITY: EventEntity moves to X=97.462*, Z=-62.205*, Y=-40.148*
  2: 0x00C4 [0x1F] MOVE_ENTITY: Update entity position (mode=1)
  3: 0x00C6 [0x1E] EventEntity looks at LocalPlayer and starts talking
  4: 0x00CB [0x1C] WAIT(30* ticks)
  5: 0x00CE [0x00] END_REQSTACK()
```

### Event 65535.17

#### Metadata

| Field        | Value    |
|--------------|----------|
| Entrypoint   | 0x00CF   |
| Data Size    | 14 bytes |
| Instructions | 4        |

```
      00 01 02 03 04 05 06 07  08 09 0A 0B 0C 0D 0E 0F
      -- -- -- -- -- -- -- --  -- -- -- -- -- -- -- --
00C0:                                               32                 2
00D0: 03 80 1F 00 11 80 12 80  10 80 1F 01 00           .............   
```

#### Opcodes

```
  0: 0x00CF [0x32] ExtData[1]->MainSpeed = 13* * 0.1
  1: 0x00D2 [0x1F] MOVE_ENTITY: EventEntity moves to X=106.004*, Z=-63.204*, Y=-40.148*
  2: 0x00DA [0x1F] MOVE_ENTITY: Update entity position (mode=1)
  3: 0x00DC [0x00] END_REQSTACK()
```

### Event 65535.18

#### Metadata

| Field        | Value    |
|--------------|----------|
| Entrypoint   | 0x00DD   |
| Data Size    | 14 bytes |
| Instructions | 4        |

```
      00 01 02 03 04 05 06 07  08 09 0A 0B 0C 0D 0E 0F
      -- -- -- -- -- -- -- --  -- -- -- -- -- -- -- --
00D0:                                         32 13 80               2..
00E0: 1F 00 14 80 15 80 16 80  1F 01 00                 ...........     
```

#### Opcodes

```
  0: 0x00DD [0x32] ExtData[1]->MainSpeed = 40* * 0.1
  1: 0x00E0 [0x1F] MOVE_ENTITY: EventEntity moves to X=0.938*, Z=24.959*, Y=-1.499*
  2: 0x00E8 [0x1F] MOVE_ENTITY: Update entity position (mode=1)
  3: 0x00EA [0x00] END_REQSTACK()
```

### Event 65535.19

#### Metadata

| Field        | Value    |
|--------------|----------|
| Entrypoint   | 0x00EB   |
| Data Size    | 14 bytes |
| Instructions | 4        |

```
      00 01 02 03 04 05 06 07  08 09 0A 0B 0C 0D 0E 0F
      -- -- -- -- -- -- -- --  -- -- -- -- -- -- -- --
00E0:                                   32 13 80 1F 00             2....
00F0: 17 80 18 80 19 80 1F 01  00                       .........       
```

#### Opcodes

```
  0: 0x00EB [0x32] ExtData[1]->MainSpeed = 40* * 0.1
  1: 0x00EE [0x1F] MOVE_ENTITY: EventEntity moves to X=-57.139*, Z=-13.442*, Y=-0.500*
  2: 0x00F6 [0x1F] MOVE_ENTITY: Update entity position (mode=1)
  3: 0x00F8 [0x00] END_REQSTACK()
```

### Event 65535.20

#### Metadata

| Field        | Value    |
|--------------|----------|
| Entrypoint   | 0x00F9   |
| Data Size    | 28 bytes |
| Instructions | 8        |

```
      00 01 02 03 04 05 06 07  08 09 0A 0B 0C 0D 0E 0F
      -- -- -- -- -- -- -- --  -- -- -- -- -- -- -- --
00F0:                             32 03 80 1F 00 1A 80           2......
0100: 1B 80 19 80 1F 01 6F 1E  F0 FF FF 7F 7B 90 10 10  ......o.....{...
0110: 01 1C 0D 80 00                                    .....           
```

#### Opcodes

```
  0: 0x00F9 [0x32] ExtData[1]->MainSpeed = 13* * 0.1
  1: 0x00FC [0x1F] MOVE_ENTITY: EventEntity moves to X=-59.226*, Z=-14.828*, Y=-0.500*
  2: 0x0104 [0x1F] MOVE_ENTITY: Update entity position (mode=1)
  3: 0x0106 [0x6F] WAIT_FRAME_DELAY: Yield until WaitTime reaches zero
  4: 0x0107 [0x1E] EventEntity looks at LocalPlayer and starts talking
  5: 0x010C [0x7B] Arciela (ID: 17830032/0x01101090) stops talking
  6: 0x0111 [0x1C] WAIT(30* ticks)
  7: 0x0114 [0x00] END_REQSTACK()
```

### Event 65535.21

#### Metadata

| Field        | Value    |
|--------------|----------|
| Entrypoint   | 0x0115   |
| Data Size    | 14 bytes |
| Instructions | 4        |

```
      00 01 02 03 04 05 06 07  08 09 0A 0B 0C 0D 0E 0F
      -- -- -- -- -- -- -- --  -- -- -- -- -- -- -- --
0110:                32 13 80  1F 00 1C 80 1D 80 19 80       2..........
0120: 1F 01 00                                          ...             
```

#### Opcodes

```
  0: 0x0115 [0x32] ExtData[1]->MainSpeed = 40* * 0.1
  1: 0x0118 [0x1F] MOVE_ENTITY: EventEntity moves to X=-52.550*, Z=-13.251*, Y=-0.500*
  2: 0x0120 [0x1F] MOVE_ENTITY: Update entity position (mode=1)
  3: 0x0122 [0x00] END_REQSTACK()
```

### Event 1507

#### Metadata

| Field        | Value   |
|--------------|---------|
| Entrypoint   | 0x0123  |
| Data Size    | 1 bytes |
| Instructions | 1       |

```
      00 01 02 03 04 05 06 07  08 09 0A 0B 0C 0D 0E 0F
      -- -- -- -- -- -- -- --  -- -- -- -- -- -- -- --
0120:          00                                          .            
```

#### Opcodes

```
  0: 0x0123 [0x00] END_REQSTACK()
```

### Event 65535.22

#### Metadata

| Field        | Value    |
|--------------|----------|
| Entrypoint   | 0x0124   |
| Data Size    | 19 bytes |
| Instructions | 5        |

```
      00 01 02 03 04 05 06 07  08 09 0A 0B 0C 0D 0E 0F
      -- -- -- -- -- -- -- --  -- -- -- -- -- -- -- --
0120:             32 03 80 1F  00 1E 80 1F 80 19 80 1F      2...........
0130: 01 1E 94 10 10 01 00                              .......         
```

#### Opcodes

```
  0: 0x0124 [0x32] ExtData[1]->MainSpeed = 13* * 0.1
  1: 0x0127 [0x1F] MOVE_ENTITY: EventEntity moves to X=-66.097*, Z=-8.836*, Y=-0.500*
  2: 0x012F [0x1F] MOVE_ENTITY: Update entity position (mode=1)
  3: 0x0131 [0x1E] EventEntity looks at Svenja (ID: 17830036/0x01101094) and starts talking
  4: 0x0136 [0x00] END_REQSTACK()
```

### Event 65535.23

#### Metadata

| Field        | Value   |
|--------------|---------|
| Entrypoint   | 0x0137  |
| Data Size    | 4 bytes |
| Instructions | 2       |

```
      00 01 02 03 04 05 06 07  08 09 0A 0B 0C 0D 0E 0F
      -- -- -- -- -- -- -- --  -- -- -- -- -- -- -- --
0130:                      C0  01 80 00                        ....     
```

#### Opcodes

```
  0: 0x0137 [0xC0] EventEntity->Render.Flags3 |= 0x1000 // Set bit 12 (from 1*)
  1: 0x013A [0x00] END_REQSTACK()
```

### Event 65535.24

#### Metadata

| Field        | Value   |
|--------------|---------|
| Entrypoint   | 0x013B  |
| Data Size    | 4 bytes |
| Instructions | 2       |

```
      00 01 02 03 04 05 06 07  08 09 0A 0B 0C 0D 0E 0F
      -- -- -- -- -- -- -- --  -- -- -- -- -- -- -- --
0130:                                   C0 00 80 00                .... 
```

#### Opcodes

```
  0: 0x013B [0xC0] EventEntity->Render.Flags3 &= ~0x1000 // Clear bit 12 (from 0*)
  1: 0x013E [0x00] END_REQSTACK()
```

### Event 65535.25

#### Metadata

| Field        | Value    |
|--------------|----------|
| Entrypoint   | 0x013F   |
| Data Size    | 15 bytes |
| Instructions | 5        |

```
      00 01 02 03 04 05 06 07  08 09 0A 0B 0C 0D 0E 0F
      -- -- -- -- -- -- -- --  -- -- -- -- -- -- -- --
0130:                                               32                 2
0140: 03 80 1F 00 20 80 21 80  05 80 1F 01 6F 00        .... .!.....o.  
```

#### Opcodes

```
  0: 0x013F [0x32] ExtData[1]->MainSpeed = 13* * 0.1
  1: 0x0142 [0x1F] MOVE_ENTITY: EventEntity moves to X=0.829*, Z=13.823*, Y=-1.500*
  2: 0x014A [0x1F] MOVE_ENTITY: Update entity position (mode=1)
  3: 0x014C [0x6F] WAIT_FRAME_DELAY: Yield until WaitTime reaches zero
  4: 0x014D [0x00] END_REQSTACK()
```

### Event 1509

#### Metadata

| Field        | Value   |
|--------------|---------|
| Entrypoint   | 0x014E  |
| Data Size    | 1 bytes |
| Instructions | 1       |

```
      00 01 02 03 04 05 06 07  08 09 0A 0B 0C 0D 0E 0F
      -- -- -- -- -- -- -- --  -- -- -- -- -- -- -- --
0140:                                            00                   . 
```

#### Opcodes

```
  0: 0x014E [0x00] END_REQSTACK()
```

### Event 65535.26

#### Metadata

| Field        | Value    |
|--------------|----------|
| Entrypoint   | 0x014F   |
| Data Size    | 22 bytes |
| Instructions | 6        |

```
      00 01 02 03 04 05 06 07  08 09 0A 0B 0C 0D 0E 0F
      -- -- -- -- -- -- -- --  -- -- -- -- -- -- -- --
0140:                                               32                 2
0150: 03 80 1F 00 22 80 23 80  00 80 1F 01 1E F0 FF FF  ....".#.........
0160: 7F 1C 0D 80 00                                    .....           
```

#### Opcodes

```
  0: 0x014F [0x32] ExtData[1]->MainSpeed = 13* * 0.1
  1: 0x0152 [0x1F] MOVE_ENTITY: EventEntity moves to X=-44.406*, Z=-8.190*, Y=0.000*
  2: 0x015A [0x1F] MOVE_ENTITY: Update entity position (mode=1)
  3: 0x015C [0x1E] EventEntity looks at LocalPlayer and starts talking
  4: 0x0161 [0x1C] WAIT(30* ticks)
  5: 0x0164 [0x00] END_REQSTACK()
```

### Event 1510

#### Metadata

| Field        | Value   |
|--------------|---------|
| Entrypoint   | 0x0165  |
| Data Size    | 1 bytes |
| Instructions | 1       |

```
      00 01 02 03 04 05 06 07  08 09 0A 0B 0C 0D 0E 0F
      -- -- -- -- -- -- -- --  -- -- -- -- -- -- -- --
0160:                00                                      .          
```

#### Opcodes

```
  0: 0x0165 [0x00] END_REQSTACK()
```

### Event 1511

#### Metadata

| Field        | Value   |
|--------------|---------|
| Entrypoint   | 0x0166  |
| Data Size    | 1 bytes |
| Instructions | 1       |

```
      00 01 02 03 04 05 06 07  08 09 0A 0B 0C 0D 0E 0F
      -- -- -- -- -- -- -- --  -- -- -- -- -- -- -- --
0160:                   00                                    .         
```

#### Opcodes

```
  0: 0x0166 [0x00] END_REQSTACK()
```

### Event 65535.27

#### Metadata

| Field        | Value    |
|--------------|----------|
| Entrypoint   | 0x0167   |
| Data Size    | 22 bytes |
| Instructions | 6        |

```
      00 01 02 03 04 05 06 07  08 09 0A 0B 0C 0D 0E 0F
      -- -- -- -- -- -- -- --  -- -- -- -- -- -- -- --
0160:                      32  03 80 1F 00 24 80 25 80         2....$.%.
0170: 00 80 1F 01 1E AC 10 10  01 1C 0D 80 00           .............   
```

#### Opcodes

```
  0: 0x0167 [0x32] ExtData[1]->MainSpeed = 13* * 0.1
  1: 0x016A [0x1F] MOVE_ENTITY: EventEntity moves to X=-0.800*, Z=-1.160*, Y=0.000*
  2: 0x0172 [0x1F] MOVE_ENTITY: Update entity position (mode=1)
  3: 0x0174 [0x1E] EventEntity looks at Unnamed NPC (ID: 17830060/0x011010AC) and starts talking
  4: 0x0179 [0x1C] WAIT(30* ticks)
  5: 0x017C [0x00] END_REQSTACK()
```

### Event 1513

#### Metadata

| Field        | Value   |
|--------------|---------|
| Entrypoint   | 0x017D  |
| Data Size    | 1 bytes |
| Instructions | 1       |

```
      00 01 02 03 04 05 06 07  08 09 0A 0B 0C 0D 0E 0F
      -- -- -- -- -- -- -- --  -- -- -- -- -- -- -- --
0170:                                         00                     .  
```

#### Opcodes

```
  0: 0x017D [0x00] END_REQSTACK()
```

### Event 65535.28

#### Metadata

| Field        | Value    |
|--------------|----------|
| Entrypoint   | 0x017E   |
| Data Size    | 22 bytes |
| Instructions | 6        |

```
      00 01 02 03 04 05 06 07  08 09 0A 0B 0C 0D 0E 0F
      -- -- -- -- -- -- -- --  -- -- -- -- -- -- -- --
0170:                                            32 03                2.
0180: 80 1F 00 26 80 27 80 00  80 1F 01 1E AF 10 10 01  ...&.'..........
0190: 1C 0D 80 00                                       ....            
```

#### Opcodes

```
  0: 0x017E [0x32] ExtData[1]->MainSpeed = 13* * 0.1
  1: 0x0181 [0x1F] MOVE_ENTITY: EventEntity moves to X=-0.554*, Z=-2.126*, Y=0.000*
  2: 0x0189 [0x1F] MOVE_ENTITY: Update entity position (mode=1)
  3: 0x018B [0x1E] EventEntity looks at Pollimio (ID: 17830063/0x011010AF) and starts talking
  4: 0x0190 [0x1C] WAIT(30* ticks)
  5: 0x0193 [0x00] END_REQSTACK()
```

### Event 65535.29

#### Metadata

| Field        | Value    |
|--------------|----------|
| Entrypoint   | 0x0194   |
| Data Size    | 14 bytes |
| Instructions | 4        |

```
      00 01 02 03 04 05 06 07  08 09 0A 0B 0C 0D 0E 0F
      -- -- -- -- -- -- -- --  -- -- -- -- -- -- -- --
0190:             32 03 80 1F  00 28 80 29 80 00 80 1F      2....(.)....
01A0: 01 00                                             ..              
```

#### Opcodes

```
  0: 0x0194 [0x32] ExtData[1]->MainSpeed = 13* * 0.1
  1: 0x0197 [0x1F] MOVE_ENTITY: EventEntity moves to X=-53.931*, Z=-29.465*, Y=0.000*
  2: 0x019F [0x1F] MOVE_ENTITY: Update entity position (mode=1)
  3: 0x01A1 [0x00] END_REQSTACK()
```

### Event 65535.30

#### Metadata

| Field        | Value    |
|--------------|----------|
| Entrypoint   | 0x01A2   |
| Data Size    | 14 bytes |
| Instructions | 4        |

```
      00 01 02 03 04 05 06 07  08 09 0A 0B 0C 0D 0E 0F
      -- -- -- -- -- -- -- --  -- -- -- -- -- -- -- --
01A0:       32 03 80 1F 00 2A  80 2B 80 19 80 1F 01 00    2....*.+......
```

#### Opcodes

```
  0: 0x01A2 [0x32] ExtData[1]->MainSpeed = 13* * 0.1
  1: 0x01A5 [0x1F] MOVE_ENTITY: EventEntity moves to X=-59.041*, Z=-12.227*, Y=-0.500*
  2: 0x01AD [0x1F] MOVE_ENTITY: Update entity position (mode=1)
  3: 0x01AF [0x00] END_REQSTACK()
```

### Event 1528

#### Metadata

| Field        | Value   |
|--------------|---------|
| Entrypoint   | 0x01B0  |
| Data Size    | 1 bytes |
| Instructions | 1       |

```
      00 01 02 03 04 05 06 07  08 09 0A 0B 0C 0D 0E 0F
      -- -- -- -- -- -- -- --  -- -- -- -- -- -- -- --
01B0: 00                                                .               
```

#### Opcodes

```
  0: 0x01B0 [0x00] END_REQSTACK()
```

### Event 65535.31

#### Metadata

| Field        | Value    |
|--------------|----------|
| Entrypoint   | 0x01B1   |
| Data Size    | 14 bytes |
| Instructions | 4        |

```
      00 01 02 03 04 05 06 07  08 09 0A 0B 0C 0D 0E 0F
      -- -- -- -- -- -- -- --  -- -- -- -- -- -- -- --
01B0:    32 03 80 1F 00 2C 80  2D 80 00 80 1F 01 00      2....,.-...... 
```

#### Opcodes

```
  0: 0x01B1 [0x32] ExtData[1]->MainSpeed = 13* * 0.1
  1: 0x01B4 [0x1F] MOVE_ENTITY: EventEntity moves to X=-45.930*, Z=-14.321*, Y=0.000*
  2: 0x01BC [0x1F] MOVE_ENTITY: Update entity position (mode=1)
  3: 0x01BE [0x00] END_REQSTACK()
```

### Event 65535.32

#### Metadata

| Field        | Value    |
|--------------|----------|
| Entrypoint   | 0x01BF   |
| Data Size    | 24 bytes |
| Instructions | 6        |

```
      00 01 02 03 04 05 06 07  08 09 0A 0B 0C 0D 0E 0F
      -- -- -- -- -- -- -- --  -- -- -- -- -- -- -- --
01B0:                                               32                 2
01C0: 03 80 1F 00 2E 80 2F 80  19 80 1F 01 1F 00 30 80  ....../.......0.
01D0: 31 80 19 80 1F 01 00                              1......         
```

#### Opcodes

```
  0: 0x01BF [0x32] ExtData[1]->MainSpeed = 13* * 0.1
  1: 0x01C2 [0x1F] MOVE_ENTITY: EventEntity moves to X=-54.943*, Z=-13.872*, Y=-0.500*
  2: 0x01CA [0x1F] MOVE_ENTITY: Update entity position (mode=1)
  3: 0x01CC [0x1F] MOVE_ENTITY: EventEntity moves to X=-59.457*, Z=-11.573*, Y=-0.500*
  4: 0x01D4 [0x1F] MOVE_ENTITY: Update entity position (mode=1)
  5: 0x01D6 [0x00] END_REQSTACK()
```

### Event 65535.33

#### Metadata

| Field        | Value    |
|--------------|----------|
| Entrypoint   | 0x01D7   |
| Data Size    | 22 bytes |
| Instructions | 6        |

```
      00 01 02 03 04 05 06 07  08 09 0A 0B 0C 0D 0E 0F
      -- -- -- -- -- -- -- --  -- -- -- -- -- -- -- --
01D0:                      32  03 80 1F 00 32 80 33 80         2....2.3.
01E0: 19 80 1F 01 1E A1 10 10  01 1C 0D 80 00           .............   
```

#### Opcodes

```
  0: 0x01D7 [0x32] ExtData[1]->MainSpeed = 13* * 0.1
  1: 0x01DA [0x1F] MOVE_ENTITY: EventEntity moves to X=-64.861*, Z=-9.549*, Y=-0.500*
  2: 0x01E2 [0x1F] MOVE_ENTITY: Update entity position (mode=1)
  3: 0x01E4 [0x1E] EventEntity looks at Unnamed NPC (ID: 17830049/0x011010A1) and starts talking
  4: 0x01E9 [0x1C] WAIT(30* ticks)
  5: 0x01EC [0x00] END_REQSTACK()
```

### Event 65535.34

#### Metadata

| Field        | Value    |
|--------------|----------|
| Entrypoint   | 0x01ED   |
| Data Size    | 14 bytes |
| Instructions | 4        |

```
      00 01 02 03 04 05 06 07  08 09 0A 0B 0C 0D 0E 0F
      -- -- -- -- -- -- -- --  -- -- -- -- -- -- -- --
01E0:                                         32 13 80               2..
01F0: 1F 00 34 80 35 80 19 80  1F 01 00                 ..4.5......     
```

#### Opcodes

```
  0: 0x01ED [0x32] ExtData[1]->MainSpeed = 40* * 0.1
  1: 0x01F0 [0x1F] MOVE_ENTITY: EventEntity moves to X=-64.916*, Z=-8.808*, Y=-0.500*
  2: 0x01F8 [0x1F] MOVE_ENTITY: Update entity position (mode=1)
  3: 0x01FA [0x00] END_REQSTACK()
```

### Event 1529

#### Metadata

| Field        | Value   |
|--------------|---------|
| Entrypoint   | 0x01FB  |
| Data Size    | 1 bytes |
| Instructions | 1       |

```
      00 01 02 03 04 05 06 07  08 09 0A 0B 0C 0D 0E 0F
      -- -- -- -- -- -- -- --  -- -- -- -- -- -- -- --
01F0:                                   00                         .    
```

#### Opcodes

```
  0: 0x01FB [0x00] END_REQSTACK()
```

### Event 1531

#### Metadata

| Field        | Value   |
|--------------|---------|
| Entrypoint   | 0x01FC  |
| Data Size    | 1 bytes |
| Instructions | 1       |

```
      00 01 02 03 04 05 06 07  08 09 0A 0B 0C 0D 0E 0F
      -- -- -- -- -- -- -- --  -- -- -- -- -- -- -- --
01F0:                                      00                       .   
```

#### Opcodes

```
  0: 0x01FC [0x00] END_REQSTACK()
```

### Event 1532

#### Metadata

| Field        | Value   |
|--------------|---------|
| Entrypoint   | 0x01FD  |
| Data Size    | 1 bytes |
| Instructions | 1       |

```
      00 01 02 03 04 05 06 07  08 09 0A 0B 0C 0D 0E 0F
      -- -- -- -- -- -- -- --  -- -- -- -- -- -- -- --
01F0:                                         00                     .  
```

#### Opcodes

```
  0: 0x01FD [0x00] END_REQSTACK()
```

### Event 1533

#### Metadata

| Field        | Value   |
|--------------|---------|
| Entrypoint   | 0x01FE  |
| Data Size    | 1 bytes |
| Instructions | 1       |

```
      00 01 02 03 04 05 06 07  08 09 0A 0B 0C 0D 0E 0F
      -- -- -- -- -- -- -- --  -- -- -- -- -- -- -- --
01F0:                                            00                   . 
```

#### Opcodes

```
  0: 0x01FE [0x00] END_REQSTACK()
```

### Event 65535.35

#### Metadata

| Field        | Value    |
|--------------|----------|
| Entrypoint   | 0x01FF   |
| Data Size    | 14 bytes |
| Instructions | 4        |

```
      00 01 02 03 04 05 06 07  08 09 0A 0B 0C 0D 0E 0F
      -- -- -- -- -- -- -- --  -- -- -- -- -- -- -- --
01F0:                                               32                 2
0200: 03 80 1F 00 36 80 37 80  05 80 1F 01 00           ....6.7......   
```

#### Opcodes

```
  0: 0x01FF [0x32] ExtData[1]->MainSpeed = 13* * 0.1
  1: 0x0202 [0x1F] MOVE_ENTITY: EventEntity moves to X=-0.004*, Z=0.920*, Y=-1.500*
  2: 0x020A [0x1F] MOVE_ENTITY: Update entity position (mode=1)
  3: 0x020C [0x00] END_REQSTACK()
```

### Event 1534

#### Metadata

| Field        | Value   |
|--------------|---------|
| Entrypoint   | 0x020D  |
| Data Size    | 1 bytes |
| Instructions | 1       |

```
      00 01 02 03 04 05 06 07  08 09 0A 0B 0C 0D 0E 0F
      -- -- -- -- -- -- -- --  -- -- -- -- -- -- -- --
0200:                                         00                     .  
```

#### Opcodes

```
  0: 0x020D [0x00] END_REQSTACK()
```

### Event 65535.36

#### Metadata

| Field        | Value    |
|--------------|----------|
| Entrypoint   | 0x020E   |
| Data Size    | 17 bytes |
| Instructions | 5        |

```
      00 01 02 03 04 05 06 07  08 09 0A 0B 0C 0D 0E 0F
      -- -- -- -- -- -- -- --  -- -- -- -- -- -- -- --
0200:                                            32 03                2.
0210: 80 1F 00 38 80 39 80 19  80 1F 01 1C 0D 80 00     ...8.9......... 
```

#### Opcodes

```
  0: 0x020E [0x32] ExtData[1]->MainSpeed = 13* * 0.1
  1: 0x0211 [0x1F] MOVE_ENTITY: EventEntity moves to X=-28.970*, Z=-12.393*, Y=-0.500*
  2: 0x0219 [0x1F] MOVE_ENTITY: Update entity position (mode=1)
  3: 0x021B [0x1C] WAIT(30* ticks)
  4: 0x021E [0x00] END_REQSTACK()
```

### Event 65535.37

#### Metadata

| Field        | Value    |
|--------------|----------|
| Entrypoint   | 0x021F   |
| Data Size    | 24 bytes |
| Instructions | 6        |

```
      00 01 02 03 04 05 06 07  08 09 0A 0B 0C 0D 0E 0F
      -- -- -- -- -- -- -- --  -- -- -- -- -- -- -- --
0210:                                               32                 2
0220: 13 80 1F 00 3A 80 3B 80  3C 80 1F 01 1F 00 3D 80  ....:.;.<.....=.
0230: 3E 80 00 80 1F 01 00                              >......         
```

#### Opcodes

```
  0: 0x021F [0x32] ExtData[1]->MainSpeed = 40* * 0.1
  1: 0x0222 [0x1F] MOVE_ENTITY: EventEntity moves to X=-38.113*, Z=-13.939*, Y=-0.499*
  2: 0x022A [0x1F] MOVE_ENTITY: Update entity position (mode=1)
  3: 0x022C [0x1F] MOVE_ENTITY: EventEntity moves to X=-42.489*, Z=-13.985*, Y=0.000*
  4: 0x0234 [0x1F] MOVE_ENTITY: Update entity position (mode=1)
  5: 0x0236 [0x00] END_REQSTACK()
```

### Event 1535

#### Metadata

| Field        | Value   |
|--------------|---------|
| Entrypoint   | 0x0237  |
| Data Size    | 1 bytes |
| Instructions | 1       |

```
      00 01 02 03 04 05 06 07  08 09 0A 0B 0C 0D 0E 0F
      -- -- -- -- -- -- -- --  -- -- -- -- -- -- -- --
0230:                      00                                  .        
```

#### Opcodes

```
  0: 0x0237 [0x00] END_REQSTACK()
```

### Event 1551

#### Metadata

| Field        | Value   |
|--------------|---------|
| Entrypoint   | 0x0238  |
| Data Size    | 1 bytes |
| Instructions | 1       |

```
      00 01 02 03 04 05 06 07  08 09 0A 0B 0C 0D 0E 0F
      -- -- -- -- -- -- -- --  -- -- -- -- -- -- -- --
0230:                          00                               .       
```

#### Opcodes

```
  0: 0x0238 [0x00] END_REQSTACK()
```

### Event 1552

#### Metadata

| Field        | Value   |
|--------------|---------|
| Entrypoint   | 0x0239  |
| Data Size    | 1 bytes |
| Instructions | 1       |

```
      00 01 02 03 04 05 06 07  08 09 0A 0B 0C 0D 0E 0F
      -- -- -- -- -- -- -- --  -- -- -- -- -- -- -- --
0230:                             00                             .      
```

#### Opcodes

```
  0: 0x0239 [0x00] END_REQSTACK()
```

### Event 65535.38

#### Metadata

| Field        | Value    |
|--------------|----------|
| Entrypoint   | 0x023A   |
| Data Size    | 32 bytes |
| Instructions | 8        |

```
      00 01 02 03 04 05 06 07  08 09 0A 0B 0C 0D 0E 0F
      -- -- -- -- -- -- -- --  -- -- -- -- -- -- -- --
0230:                                32 03 80 1F 00 3F            2....?
0240: 80 40 80 3C 80 1F 01 1F  00 41 80 42 80 19 80 1F  .@.<.....A.B....
0250: 01 1E 99 10 10 01 1C 0D  80 00                    ..........      
```

#### Opcodes

```
  0: 0x023A [0x32] ExtData[1]->MainSpeed = 13* * 0.1
  1: 0x023D [0x1F] MOVE_ENTITY: EventEntity moves to X=-33.080*, Z=-13.169*, Y=-0.499*
  2: 0x0245 [0x1F] MOVE_ENTITY: Update entity position (mode=1)
  3: 0x0247 [0x1F] MOVE_ENTITY: EventEntity moves to X=-31.073*, Z=-8.957*, Y=-0.500*
  4: 0x024F [0x1F] MOVE_ENTITY: Update entity position (mode=1)
  5: 0x0251 [0x1E] EventEntity looks at Gratzigg (ID: 17830041/0x01101099) and starts talking
  6: 0x0256 [0x1C] WAIT(30* ticks)
  7: 0x0259 [0x00] END_REQSTACK()
```

### Event 65535.39

#### Metadata

| Field        | Value   |
|--------------|---------|
| Entrypoint   | 0x025A  |
| Data Size    | 3 bytes |
| Instructions | 2       |

```
      00 01 02 03 04 05 06 07  08 09 0A 0B 0C 0D 0E 0F
      -- -- -- -- -- -- -- --  -- -- -- -- -- -- -- --
0250:                                AB 08 00                     ...   
```

#### Opcodes

```
  0: 0x025A [0xAB] EventEntity->Render.Flags2 |= 0x02 // Set bit 1
  1: 0x025C [0x00] END_REQSTACK()
```

### Event 65535.40

#### Metadata

| Field        | Value   |
|--------------|---------|
| Entrypoint   | 0x025D  |
| Data Size    | 3 bytes |
| Instructions | 2       |

```
      00 01 02 03 04 05 06 07  08 09 0A 0B 0C 0D 0E 0F
      -- -- -- -- -- -- -- --  -- -- -- -- -- -- -- --
0250:                                         AB 07 00               ...
```

#### Opcodes

```
  0: 0x025D [0xAB] EventEntity->Render.Flags2 |= 0x01 // Set bit 0
  1: 0x025F [0x00] END_REQSTACK()
```

### Event 1538

#### Metadata

| Field        | Value   |
|--------------|---------|
| Entrypoint   | 0x0260  |
| Data Size    | 1 bytes |
| Instructions | 1       |

```
      00 01 02 03 04 05 06 07  08 09 0A 0B 0C 0D 0E 0F
      -- -- -- -- -- -- -- --  -- -- -- -- -- -- -- --
0260: 00                                                .               
```

#### Opcodes

```
  0: 0x0260 [0x00] END_REQSTACK()
```

### Event 1548

#### Metadata

| Field        | Value   |
|--------------|---------|
| Entrypoint   | 0x0261  |
| Data Size    | 1 bytes |
| Instructions | 1       |

```
      00 01 02 03 04 05 06 07  08 09 0A 0B 0C 0D 0E 0F
      -- -- -- -- -- -- -- --  -- -- -- -- -- -- -- --
0260:    00                                              .              
```

#### Opcodes

```
  0: 0x0261 [0x00] END_REQSTACK()
```

### Event 1549

#### Metadata

| Field        | Value   |
|--------------|---------|
| Entrypoint   | 0x0262  |
| Data Size    | 3 bytes |
| Instructions | 2       |

```
      00 01 02 03 04 05 06 07  08 09 0A 0B 0C 0D 0E 0F
      -- -- -- -- -- -- -- --  -- -- -- -- -- -- -- --
0260:       A4 01 00                                      ...           
```

#### Opcodes

```
  0: 0x0262 [0xA4] EventEntity->Flags3.unknown_3_2 = 1
  1: 0x0264 [0x00] END_REQSTACK()
```

### Event 65535.41

#### Metadata

| Field        | Value    |
|--------------|----------|
| Entrypoint   | 0x0265   |
| Data Size    | 14 bytes |
| Instructions | 4        |

```
      00 01 02 03 04 05 06 07  08 09 0A 0B 0C 0D 0E 0F
      -- -- -- -- -- -- -- --  -- -- -- -- -- -- -- --
0260:                32 03 80  1F 00 43 80 44 80 05 80       2....C.D...
0270: 1F 01 00                                          ...             
```

#### Opcodes

```
  0: 0x0265 [0x32] ExtData[1]->MainSpeed = 13* * 0.1
  1: 0x0268 [0x1F] MOVE_ENTITY: EventEntity moves to X=-0.023*, Z=-14.374*, Y=-1.500*
  2: 0x0270 [0x1F] MOVE_ENTITY: Update entity position (mode=1)
  3: 0x0272 [0x00] END_REQSTACK()
```

### Event 108

#### Metadata

| Field        | Value   |
|--------------|---------|
| Entrypoint   | 0x0273  |
| Data Size    | 1 bytes |
| Instructions | 1       |

```
      00 01 02 03 04 05 06 07  08 09 0A 0B 0C 0D 0E 0F
      -- -- -- -- -- -- -- --  -- -- -- -- -- -- -- --
0270:          00                                          .            
```

#### Opcodes

```
  0: 0x0273 [0x00] END_REQSTACK()
```

### Event 65535.42

#### Metadata

| Field        | Value    |
|--------------|----------|
| Entrypoint   | 0x0274   |
| Data Size    | 14 bytes |
| Instructions | 4        |

```
      00 01 02 03 04 05 06 07  08 09 0A 0B 0C 0D 0E 0F
      -- -- -- -- -- -- -- --  -- -- -- -- -- -- -- --
0270:             32 03 80 1F  00 45 80 46 80 47 80 1F      2....E.F.G..
0280: 01 00                                             ..              
```

#### Opcodes

```
  0: 0x0274 [0x32] ExtData[1]->MainSpeed = 13* * 0.1
  1: 0x0277 [0x1F] MOVE_ENTITY: EventEntity moves to X=94.731*, Z=-62.898*, Y=-39.999*
  2: 0x027F [0x1F] MOVE_ENTITY: Update entity position (mode=1)
  3: 0x0281 [0x00] END_REQSTACK()
```

### Event 110

#### Metadata

| Field        | Value   |
|--------------|---------|
| Entrypoint   | 0x0282  |
| Data Size    | 7 bytes |
| Instructions | 2       |

```
      00 01 02 03 04 05 06 07  08 09 0A 0B 0C 0D 0E 0F
      -- -- -- -- -- -- -- --  -- -- -- -- -- -- -- --
0280:       92 01 F8 FF FF 7F  00                         .......       
```

#### Opcodes

```
  0: 0x0282 [0x92] EventEntity->Render.Flags3 ^= 0x01
  1: 0x0288 [0x00] END_REQSTACK()
```

### Event 65535.43

#### Metadata

| Field        | Value    |
|--------------|----------|
| Entrypoint   | 0x0289   |
| Data Size    | 19 bytes |
| Instructions | 5        |

```
      00 01 02 03 04 05 06 07  08 09 0A 0B 0C 0D 0E 0F
      -- -- -- -- -- -- -- --  -- -- -- -- -- -- -- --
0280:                             32 03 80 1F 00 48 80           2....H.
0290: 49 80 19 80 1F 01 1E AC  10 10 01 00              I...........    
```

#### Opcodes

```
  0: 0x0289 [0x32] ExtData[1]->MainSpeed = 13* * 0.1
  1: 0x028C [0x1F] MOVE_ENTITY: EventEntity moves to X=-57.000*, Z=-7.500*, Y=-0.500*
  2: 0x0294 [0x1F] MOVE_ENTITY: Update entity position (mode=1)
  3: 0x0296 [0x1E] EventEntity looks at Unnamed NPC (ID: 17830060/0x011010AC) and starts talking
  4: 0x029B [0x00] END_REQSTACK()
```

### Event 114

#### Metadata

| Field        | Value   |
|--------------|---------|
| Entrypoint   | 0x029C  |
| Data Size    | 7 bytes |
| Instructions | 2       |

```
      00 01 02 03 04 05 06 07  08 09 0A 0B 0C 0D 0E 0F
      -- -- -- -- -- -- -- --  -- -- -- -- -- -- -- --
0290:                                      92 01 F8 FF              ....
02A0: FF 7F 00                                          ...             
```

#### Opcodes

```
  0: 0x029C [0x92] EventEntity->Render.Flags3 ^= 0x01
  1: 0x02A2 [0x00] END_REQSTACK()
```

### Event 65535.44

#### Metadata

| Field        | Value    |
|--------------|----------|
| Entrypoint   | 0x02A3   |
| Data Size    | 19 bytes |
| Instructions | 5        |

```
      00 01 02 03 04 05 06 07  08 09 0A 0B 0C 0D 0E 0F
      -- -- -- -- -- -- -- --  -- -- -- -- -- -- -- --
02A0:          32 03 80 1F 00  48 80 4A 80 19 80 1F 01     2....H.J.....
02B0: 1E A3 10 10 01 00                                 ......          
```

#### Opcodes

```
  0: 0x02A3 [0x32] ExtData[1]->MainSpeed = 13* * 0.1
  1: 0x02A6 [0x1F] MOVE_ENTITY: EventEntity moves to X=-57.000*, Z=-10.000*, Y=-0.500*
  2: 0x02AE [0x1F] MOVE_ENTITY: Update entity position (mode=1)
  3: 0x02B0 [0x1E] EventEntity looks at Unnamed NPC (ID: 17830051/0x011010A3) and starts talking
  4: 0x02B5 [0x00] END_REQSTACK()
```

### Event 126

#### Metadata

| Field        | Value   |
|--------------|---------|
| Entrypoint   | 0x02B6  |
| Data Size    | 7 bytes |
| Instructions | 2       |

```
      00 01 02 03 04 05 06 07  08 09 0A 0B 0C 0D 0E 0F
      -- -- -- -- -- -- -- --  -- -- -- -- -- -- -- --
02B0:                   92 01  F8 FF FF 7F 00                 .......   
```

#### Opcodes

```
  0: 0x02B6 [0x92] EventEntity->Render.Flags3 ^= 0x01
  1: 0x02BC [0x00] END_REQSTACK()
```

### Event 65535.45

#### Metadata

| Field        | Value    |
|--------------|----------|
| Entrypoint   | 0x02BD   |
| Data Size    | 39 bytes |
| Instructions | 9        |

```
      00 01 02 03 04 05 06 07  08 09 0A 0B 0C 0D 0E 0F
      -- -- -- -- -- -- -- --  -- -- -- -- -- -- -- --
02B0:                                         32 03 80               2..
02C0: 1F 00 4B 80 4C 80 19 80  1F 01 1F 00 4D 80 4E 80  ..K.L.......M.N.
02D0: 19 80 1F 01 1F 00 48 80  4A 80 19 80 1F 01 1E A3  ......H.J.......
02E0: 10 10 01 00                                       ....            
```

#### Opcodes

```
  0: 0x02BD [0x32] ExtData[1]->MainSpeed = 13* * 0.1
  1: 0x02C0 [0x1F] MOVE_ENTITY: EventEntity moves to X=-55.300*, Z=-13.000*, Y=-0.500*
  2: 0x02C8 [0x1F] MOVE_ENTITY: Update entity position (mode=1)
  3: 0x02CA [0x1F] MOVE_ENTITY: EventEntity moves to X=-56.300*, Z=-11.600*, Y=-0.500*
  4: 0x02D2 [0x1F] MOVE_ENTITY: Update entity position (mode=1)
  5: 0x02D4 [0x1F] MOVE_ENTITY: EventEntity moves to X=-57.000*, Z=-10.000*, Y=-0.500*
  6: 0x02DC [0x1F] MOVE_ENTITY: Update entity position (mode=1)
  7: 0x02DE [0x1E] EventEntity looks at Unnamed NPC (ID: 17830051/0x011010A3) and starts talking
  8: 0x02E3 [0x00] END_REQSTACK()
```

### Event 5230

#### Metadata

| Field        | Value   |
|--------------|---------|
| Entrypoint   | 0x02E4  |
| Data Size    | 7 bytes |
| Instructions | 2       |

```
      00 01 02 03 04 05 06 07  08 09 0A 0B 0C 0D 0E 0F
      -- -- -- -- -- -- -- --  -- -- -- -- -- -- -- --
02E0:             92 01 F8 FF  FF 7F 00                     .......     
```

#### Opcodes

```
  0: 0x02E4 [0x92] EventEntity->Render.Flags3 ^= 0x01
  1: 0x02EA [0x00] END_REQSTACK()
```

### Event 5232

#### Metadata

| Field        | Value   |
|--------------|---------|
| Entrypoint   | 0x02EB  |
| Data Size    | 7 bytes |
| Instructions | 2       |

```
      00 01 02 03 04 05 06 07  08 09 0A 0B 0C 0D 0E 0F
      -- -- -- -- -- -- -- --  -- -- -- -- -- -- -- --
02E0:                                   92 01 F8 FF FF             .....
02F0: 7F 00                                             ..              
```

#### Opcodes

```
  0: 0x02EB [0x92] EventEntity->Render.Flags3 ^= 0x01
  1: 0x02F1 [0x00] END_REQSTACK()
```
