# 17830014 - Yocile

## Common Data

| Field            | Value                     |
|------------------|---------------------------|
| Zone             | Eastern Adoulin (ID: 257) |
| Block Size       | 952 bytes                 |
| Total Events     | 23                        |
| References Count | 36                        |

## List of Events

| Event ID                 | Entrypoint   |   Size |   Instructions |
|--------------------------|--------------|--------|----------------|
| [65535](#event-65535)    | 0x0000       |      1 |              1 |
| [3019](#event-3019)      | 0x0001       |     43 |              9 |
| [3020](#event-3020)      | 0x002C       |    130 |             38 |
| [3022](#event-3022)      | 0x00AE       |    101 |             25 |
| [3021](#event-3021)      | 0x0113       |     88 |             16 |
| [3023](#event-3023)      | 0x016B       |     53 |             11 |
| [5032](#event-5032)      | 0x01A0       |      7 |              2 |
| [5097](#event-5097)      | 0x01A7       |      7 |              2 |
| [5099](#event-5099)      | 0x01AE       |      7 |              2 |
| [5102](#event-5102)      | 0x01B5       |      7 |              2 |
| [5124](#event-5124)      | 0x01BC       |      7 |              2 |
| [5130](#event-5130)      | 0x01C3       |      7 |              2 |
| [5202](#event-5202)      | 0x01CA       |      7 |              2 |
| [106](#event-106)        | 0x01D1       |      7 |              2 |
| [5212](#event-5212)      | 0x01D8       |      7 |              2 |
| [5214](#event-5214)      | 0x01DF       |      7 |              2 |
| [5217](#event-5217)      | 0x01E6       |      7 |              2 |
| [5222](#event-5222)      | 0x01ED       |      7 |              2 |
| [5108](#event-5108)      | 0x01F4       |     61 |             13 |
| [65535.1](#event-655351) | 0x0231       |     40 |             10 |
| [115](#event-115)        | 0x0259       |      7 |              2 |
| [120](#event-120)        | 0x0260       |      7 |              2 |
| [123](#event-123)        | 0x0267       |     82 |             20 |

## DAT References (imed_data)

|   Index | Hex Value   |   Dec Value |
|---------|-------------|-------------|
|       0 | 0x0013      |          19 |
|       1 | 0x1F7E      |        8062 |
|       2 | 0x1F6D      |        8045 |
|       3 | 0x1F6E      |        8046 |
|       4 | 0x0001      |           1 |
|       5 | 0x0000      |           0 |
|       6 | 0x1F70      |        8048 |
|       7 | 0x1F71      |        8049 |
|       8 | 0x1F72      |        8050 |
|       9 | 0x1443      |        5187 |
|      10 | 0x0002      |           2 |
|      11 | 0x1F73      |        8051 |
|      12 | 0x1F74      |        8052 |
|      13 | 0x174E      |        5966 |
|      14 | 0x1F75      |        8053 |
|      15 | 0x1F76      |        8054 |
|      16 | 0x1F77      |        8055 |
|      17 | 0x1F6F      |        8047 |
|      18 | 0x1F7A      |        8058 |
|      19 | 0x1F7B      |        8059 |
|      20 | 0x1F7C      |        8060 |
|      21 | 0x1758      |        5976 |
|      22 | 0x1F78      |        8056 |
|      23 | 0x1F79      |        8057 |
|      24 | 0x000A      |          10 |
|      25 | 0x0078      |         120 |
|      26 | 0x00C9      |         201 |
|      27 | 0x1F7D      |        8061 |
|      28 | 0x2B20      |       11040 |
|      29 | 0x001E      |          30 |
|      30 | 0x00B4      |         180 |
|      31 | 0x0514      |        1300 |
|      32 | 0x2E3C      |       11836 |
|      33 | 0x003C      |          60 |
|      34 | 0x2E9C      |       11932 |
|      35 | 0x2E9D      |       11933 |

## String References

- **8045**: Welcome to our humble caf<Player>i. I...have to apologize for bringing this matter before a customer, but do you have time to hear my story?
- **8046**: Listen to her story? [Yes./I've got enough on my plate.]
- **8047**: Of course. I understand. May I take your order, [sir/ma'am]?
- **8048**: Really? Well... We're having trouble getting supplies in from the Couriers' Coalition.
- **8049**: To be frank, I used to work for them, but...with all their resources being poured into pioneering, they can't spare much--even with my connections.
- **8050**: During my time there, I had the opportunity to travel all throughout the world, you know? New places, new foods, new ingredients and recipes...and that's when I chose to open this candy shop.
- **8051**: Recently, though, I can't get ahold of any $0.
- **8052**: So that's why I'd like to ask you to gather $1 $0 for me.
- **8053**: I mean, of course $1 work in a pinch, but I can't get that exotic flavor without $0.
- **8054**: I'll make it worth your time, I swear!
- **8055**: Come back soon, my pioneer friend!
- **8056**: Oh, how lovely! You got some for me! Now I'll be able to make those $0 I've been wanting to!
- **8057**: If I run out, I can count on you to go get me some more, right?
- **8058**: Welcome back! I bet you can guess what I'm going to ask you...
- **8059**: Help out the poor soul? [I suppose./Not again...]
- **8060**: It's pretty much the same as before. Bring me $1 $0 .
- **8061**: Remember, I won't have enough until you bring me $1 $0 .
- **8062**: Welcome to the Caf<Player>i des Larmes! Please, pull up a seat and make yourself comfortable.
- **11040**: Lately, I feel like someone is constantly undressing me with their eyes while I work. It's so disturbing.
- **11836**: Recently, I've been feeling someone staring at me from the shadows again. How creepy...
- **11932**: Hm? You're looking for Master Sangy?
- **11933**: In that case, you should check with the Mummers' Coalition. I've seen him around there before.

## Events

### Event 65535

#### Metadata

| Field        | Value   |
|--------------|---------|
| Entrypoint   | 0x0000  |
| Data Size    | 1 bytes |
| Instructions | 1       |

```
      00 01 02 03 04 05 06 07  08 09 0A 0B 0C 0D 0E 0F
      -- -- -- -- -- -- -- --  -- -- -- -- -- -- -- --
0000: 00                                                .               
```

#### Opcodes

```
  0: 0x0000 [0x00] END_REQSTACK()
```

### Event 3019

#### Metadata

| Field        | Value    |
|--------------|----------|
| Entrypoint   | 0x0001   |
| Data Size    | 43 bytes |
| Instructions | 9        |

```
      00 01 02 03 04 05 06 07  08 09 0A 0B 0C 0D 0E 0F
      -- -- -- -- -- -- -- --  -- -- -- -- -- -- -- --
0000:    1E F0 FF FF 7F 6F 70  66 00 80 F8 FF FF 7F F8   .....opf.......
0010: FF FF 7F 74 6C 6B 30 1D  01 80 23 66 00 80 F8 FF  ...tlk0...#f....
0020: FF 7F F8 FF FF 7F 73 74  64 30 21 00              ......std0!.    
```

#### Opcodes

```
  0: 0x0001 [0x1E] EventEntity looks at LocalPlayer and starts talking
  1: 0x0006 [0x6F] WAIT_FRAME_DELAY: Yield until WaitTime reaches zero
  2: 0x0007 [0x70] WAIT_ENTITY_RENDER_FLAG: Wait while EventEntity->Render.Flags3 bit 2 is set (cancel turn if not)
  3: 0x0008 [0x66] LOAD_EXT_SCHEDULER_MAIN: Load scheduler "tlk0" with entities [EventEntity, EventEntity], work=19*
  4: 0x0017 [0x1D] PRINT_EVENT_MESSAGE(message_id=8062*)
    → "Welcome to the Caf<Player>i des Larmes! Please, pull up a seat and make yourself comfortable."
  5: 0x001A [0x23] WAIT_FOR_DIALOG_INTERACTION
  6: 0x001B [0x66] LOAD_EXT_SCHEDULER_MAIN: Load scheduler "std0" with entities [EventEntity, EventEntity], work=19*
  7: 0x002A [0x21] END_EVENT
  8: 0x002B [0x00] END_REQSTACK()
```

### Event 3020

#### Metadata

| Field        | Value     |
|--------------|-----------|
| Entrypoint   | 0x002C    |
| Data Size    | 130 bytes |
| Instructions | 38        |

```
      00 01 02 03 04 05 06 07  08 09 0A 0B 0C 0D 0E 0F
      -- -- -- -- -- -- -- --  -- -- -- -- -- -- -- --
0020:                                      1E F0 FF FF              ....
0030: 7F 6F 70 66 00 80 F8 FF  FF 7F F8 FF FF 7F 74 6C  .opf..........tl
0040: 6B 30 1D 02 80 23 24 03  80 04 80 05 80 25 02 00  k0...#$......%..
0050: 10 05 80 00 8E 00 42 1D  06 80 23 1D 07 80 23 1D  ......B...#...#.
0060: 08 80 23 03 02 10 09 80  03 03 10 0A 80 1D 0B 80  ..#.............
0070: 23 1D 0C 80 23 03 03 10  0D 80 1D 0E 80 23 1D 0F  #...#........#..
0080: 80 23 1D 10 80 23 03 01  10 04 80 01 9D 00 02 00  .#...#..........
0090: 10 04 80 00 9D 00 1D 11  80 23 01 9D 00 66 00 80  .........#...f..
00A0: F8 FF FF 7F F8 FF FF 7F  73 74 64 30 21 00        ........std0!.  
```

#### Opcodes

```
  0: 0x002C [0x1E] EventEntity looks at LocalPlayer and starts talking
  1: 0x0031 [0x6F] WAIT_FRAME_DELAY: Yield until WaitTime reaches zero
  2: 0x0032 [0x70] WAIT_ENTITY_RENDER_FLAG: Wait while EventEntity->Render.Flags3 bit 2 is set (cancel turn if not)
  3: 0x0033 [0x66] LOAD_EXT_SCHEDULER_MAIN: Load scheduler "tlk0" with entities [EventEntity, EventEntity], work=19*
  4: 0x0042 [0x1D] PRINT_EVENT_MESSAGE(message_id=8045*)
    → "Welcome to our humble caf<Player>i. I...have to apologize for bringing this matter before a customer, but do you have time to hear my story?"
  5: 0x0045 [0x23] WAIT_FOR_DIALOG_INTERACTION
  6: 0x0046 [0x24] CREATE_DIALOG(message_id=8046*, default_option=1*, option_flags=0*)
    → "Listen to her story? [Yes./I've got enough on my plate.]"
  7: 0x004D [0x25] WAIT_DIALOG_SELECT()
  8: 0x004E [0x02] IF !(Work_Zone[0] == 0*) GOTO 0x008E
  9: 0x0056 [0x42] SET_CLI_EVENT_CANCEL_DATA()
 10: 0x0057 [0x1D] PRINT_EVENT_MESSAGE(message_id=8048*)
    → "Really? Well... We're having trouble getting supplies in from the Couriers' Coalition."
 11: 0x005A [0x23] WAIT_FOR_DIALOG_INTERACTION
 12: 0x005B [0x1D] PRINT_EVENT_MESSAGE(message_id=8049*)
    → "To be frank, I used to work for them, but...with all their resources being poured into pioneering, they can't spare much--even with my connections."
 13: 0x005E [0x23] WAIT_FOR_DIALOG_INTERACTION
 14: 0x005F [0x1D] PRINT_EVENT_MESSAGE(message_id=8050*)
    → "During my time there, I had the opportunity to travel all throughout the world, you know? New places, new foods, new ingredients and recipes...and that's when I chose to open this candy shop."
 15: 0x0062 [0x23] WAIT_FOR_DIALOG_INTERACTION
 16: 0x0063 [0x03] Work_Zone[2] = 5187*
 17: 0x0068 [0x03] Work_Zone[3] = 2*
 18: 0x006D [0x1D] PRINT_EVENT_MESSAGE(message_id=8051*)
    → "Recently, though, I can't get ahold of any $0."
 19: 0x0070 [0x23] WAIT_FOR_DIALOG_INTERACTION
 20: 0x0071 [0x1D] PRINT_EVENT_MESSAGE(message_id=8052*)
    → "So that's why I'd like to ask you to gather $1 $0 for me."
 21: 0x0074 [0x23] WAIT_FOR_DIALOG_INTERACTION
 22: 0x0075 [0x03] Work_Zone[3] = 5966*
 23: 0x007A [0x1D] PRINT_EVENT_MESSAGE(message_id=8053*)
    → "I mean, of course $1 work in a pinch, but I can't get that exotic flavor without $0."
 24: 0x007D [0x23] WAIT_FOR_DIALOG_INTERACTION
 25: 0x007E [0x1D] PRINT_EVENT_MESSAGE(message_id=8054*)
    → "I'll make it worth your time, I swear!"
 26: 0x0081 [0x23] WAIT_FOR_DIALOG_INTERACTION
 27: 0x0082 [0x1D] PRINT_EVENT_MESSAGE(message_id=8055*)
    → "Come back soon, my pioneer friend!"
 28: 0x0085 [0x23] WAIT_FOR_DIALOG_INTERACTION
 29: 0x0086 [0x03] Work_Zone[1] = 1*
 30: 0x008B [0x01] GOTO 0x009D
 31: 0x008E [0x02] IF !(Work_Zone[0] == 1*) GOTO 0x009D
 32: 0x0096 [0x1D] PRINT_EVENT_MESSAGE(message_id=8047*)
    → "Of course. I understand. May I take your order, [sir/ma'am]?"
 33: 0x0099 [0x23] WAIT_FOR_DIALOG_INTERACTION
 34: 0x009A [0x01] GOTO 0x009D

SUBROUTINE_009D:
 35: 0x009D [0x66] LOAD_EXT_SCHEDULER_MAIN: Load scheduler "std0" with entities [EventEntity, EventEntity], work=19*
 36: 0x00AC [0x21] END_EVENT
 37: 0x00AD [0x00] END_REQSTACK()
```

### Event 3022

#### Metadata

| Field        | Value     |
|--------------|-----------|
| Entrypoint   | 0x00AE    |
| Data Size    | 101 bytes |
| Instructions | 25        |

```
      00 01 02 03 04 05 06 07  08 09 0A 0B 0C 0D 0E 0F
      -- -- -- -- -- -- -- --  -- -- -- -- -- -- -- --
00A0:                                            1E F0                ..
00B0: FF FF 7F 6F 70 66 00 80  F8 FF FF 7F F8 FF FF 7F  ...opf..........
00C0: 74 6C 6B 30 1D 12 80 23  24 13 80 04 80 05 80 25  tlk0...#$......%
00D0: 02 00 10 05 80 00 F3 00  42 03 02 10 09 80 03 03  ........B.......
00E0: 10 0A 80 1D 14 80 23 1D  10 80 23 03 01 10 04 80  ......#...#.....
00F0: 01 02 01 02 00 10 04 80  00 02 01 1D 11 80 23 01  ..............#.
0100: 02 01 66 00 80 F8 FF FF  7F F8 FF FF 7F 73 74 64  ..f..........std
0110: 30 21 00                                          0!.             
```

#### Opcodes

```
  0: 0x00AE [0x1E] EventEntity looks at LocalPlayer and starts talking
  1: 0x00B3 [0x6F] WAIT_FRAME_DELAY: Yield until WaitTime reaches zero
  2: 0x00B4 [0x70] WAIT_ENTITY_RENDER_FLAG: Wait while EventEntity->Render.Flags3 bit 2 is set (cancel turn if not)
  3: 0x00B5 [0x66] LOAD_EXT_SCHEDULER_MAIN: Load scheduler "tlk0" with entities [EventEntity, EventEntity], work=19*
  4: 0x00C4 [0x1D] PRINT_EVENT_MESSAGE(message_id=8058*)
    → "Welcome back! I bet you can guess what I'm going to ask you..."
  5: 0x00C7 [0x23] WAIT_FOR_DIALOG_INTERACTION
  6: 0x00C8 [0x24] CREATE_DIALOG(message_id=8059*, default_option=1*, option_flags=0*)
    → "Help out the poor soul? [I suppose./Not again...]"
  7: 0x00CF [0x25] WAIT_DIALOG_SELECT()
  8: 0x00D0 [0x02] IF !(Work_Zone[0] == 0*) GOTO 0x00F3
  9: 0x00D8 [0x42] SET_CLI_EVENT_CANCEL_DATA()
 10: 0x00D9 [0x03] Work_Zone[2] = 5187*
 11: 0x00DE [0x03] Work_Zone[3] = 2*
 12: 0x00E3 [0x1D] PRINT_EVENT_MESSAGE(message_id=8060*)
    → "It's pretty much the same as before. Bring me $1 $0 ."
 13: 0x00E6 [0x23] WAIT_FOR_DIALOG_INTERACTION
 14: 0x00E7 [0x1D] PRINT_EVENT_MESSAGE(message_id=8055*)
    → "Come back soon, my pioneer friend!"
 15: 0x00EA [0x23] WAIT_FOR_DIALOG_INTERACTION
 16: 0x00EB [0x03] Work_Zone[1] = 1*
 17: 0x00F0 [0x01] GOTO 0x0102
 18: 0x00F3 [0x02] IF !(Work_Zone[0] == 1*) GOTO 0x0102
 19: 0x00FB [0x1D] PRINT_EVENT_MESSAGE(message_id=8047*)
    → "Of course. I understand. May I take your order, [sir/ma'am]?"
 20: 0x00FE [0x23] WAIT_FOR_DIALOG_INTERACTION
 21: 0x00FF [0x01] GOTO 0x0102

SUBROUTINE_0102:
 22: 0x0102 [0x66] LOAD_EXT_SCHEDULER_MAIN: Load scheduler "std0" with entities [EventEntity, EventEntity], work=19*
 23: 0x0111 [0x21] END_EVENT
 24: 0x0112 [0x00] END_REQSTACK()
```

### Event 3021

#### Metadata

| Field        | Value    |
|--------------|----------|
| Entrypoint   | 0x0113   |
| Data Size    | 88 bytes |
| Instructions | 16       |

```
      00 01 02 03 04 05 06 07  08 09 0A 0B 0C 0D 0E 0F
      -- -- -- -- -- -- -- --  -- -- -- -- -- -- -- --
0110:          1E F0 FF FF 7F  42 6F 70 66 00 80 F8 FF     .....Bopf....
0120: FF 7F F8 FF FF 7F 74 6C  6B 30 03 02 10 15 80 1D  ......tlk0......
0130: 16 80 23 1D 17 80 23 66  18 80 F8 FF FF 7F F8 FF  ..#...#f........
0140: FF 7F 70 61 73 30 1C 19  80 66 00 80 F8 FF FF 7F  ..pas0...f......
0150: F8 FF FF 7F 73 74 64 30  45 1A 80 F8 FF FF 7F F8  ....std0E.......
0160: FF FF 7F 71 73 74 63 05  80 21 00                 ...qstc..!.     
```

#### Opcodes

```
  0: 0x0113 [0x1E] EventEntity looks at LocalPlayer and starts talking
  1: 0x0118 [0x42] SET_CLI_EVENT_CANCEL_DATA()
  2: 0x0119 [0x6F] WAIT_FRAME_DELAY: Yield until WaitTime reaches zero
  3: 0x011A [0x70] WAIT_ENTITY_RENDER_FLAG: Wait while EventEntity->Render.Flags3 bit 2 is set (cancel turn if not)
  4: 0x011B [0x66] LOAD_EXT_SCHEDULER_MAIN: Load scheduler "tlk0" with entities [EventEntity, EventEntity], work=19*
  5: 0x012A [0x03] Work_Zone[2] = 5976*
  6: 0x012F [0x1D] PRINT_EVENT_MESSAGE(message_id=8056*)
    → "Oh, how lovely! You got some for me! Now I'll be able to make those $0 I've been wanting to!"
  7: 0x0132 [0x23] WAIT_FOR_DIALOG_INTERACTION
  8: 0x0133 [0x1D] PRINT_EVENT_MESSAGE(message_id=8057*)
    → "If I run out, I can count on you to go get me some more, right?"
  9: 0x0136 [0x23] WAIT_FOR_DIALOG_INTERACTION
 10: 0x0137 [0x66] LOAD_EXT_SCHEDULER_MAIN: Load scheduler "pas0" with entities [EventEntity, EventEntity], work=10*
 11: 0x0146 [0x1C] WAIT(120* ticks)
 12: 0x0149 [0x66] LOAD_EXT_SCHEDULER_MAIN: Load scheduler "std0" with entities [EventEntity, EventEntity], work=19*
 13: 0x0158 [0x45] LOAD_SCHEDULED_TASK: Load scheduler "qstc" with entities [EventEntity, EventEntity], work=[201*, 0*]
 14: 0x0169 [0x21] END_EVENT
 15: 0x016A [0x00] END_REQSTACK()
```

### Event 3023

#### Metadata

| Field        | Value    |
|--------------|----------|
| Entrypoint   | 0x016B   |
| Data Size    | 53 bytes |
| Instructions | 11       |

```
      00 01 02 03 04 05 06 07  08 09 0A 0B 0C 0D 0E 0F
      -- -- -- -- -- -- -- --  -- -- -- -- -- -- -- --
0160:                                   1E F0 FF FF 7F             .....
0170: 6F 70 66 00 80 F8 FF FF  7F F8 FF FF 7F 74 6C 6B  opf..........tlk
0180: 30 03 02 10 09 80 03 03  10 0A 80 1D 1B 80 23 66  0.............#f
0190: 00 80 F8 FF FF 7F F8 FF  FF 7F 73 74 64 30 21 00  ..........std0!.
```

#### Opcodes

```
  0: 0x016B [0x1E] EventEntity looks at LocalPlayer and starts talking
  1: 0x0170 [0x6F] WAIT_FRAME_DELAY: Yield until WaitTime reaches zero
  2: 0x0171 [0x70] WAIT_ENTITY_RENDER_FLAG: Wait while EventEntity->Render.Flags3 bit 2 is set (cancel turn if not)
  3: 0x0172 [0x66] LOAD_EXT_SCHEDULER_MAIN: Load scheduler "tlk0" with entities [EventEntity, EventEntity], work=19*
  4: 0x0181 [0x03] Work_Zone[2] = 5187*
  5: 0x0186 [0x03] Work_Zone[3] = 2*
  6: 0x018B [0x1D] PRINT_EVENT_MESSAGE(message_id=8061*)
    → "Remember, I won't have enough until you bring me $1 $0 ."
  7: 0x018E [0x23] WAIT_FOR_DIALOG_INTERACTION
  8: 0x018F [0x66] LOAD_EXT_SCHEDULER_MAIN: Load scheduler "std0" with entities [EventEntity, EventEntity], work=19*
  9: 0x019E [0x21] END_EVENT
 10: 0x019F [0x00] END_REQSTACK()
```

### Event 5032

#### Metadata

| Field        | Value   |
|--------------|---------|
| Entrypoint   | 0x01A0  |
| Data Size    | 7 bytes |
| Instructions | 2       |

```
      00 01 02 03 04 05 06 07  08 09 0A 0B 0C 0D 0E 0F
      -- -- -- -- -- -- -- --  -- -- -- -- -- -- -- --
01A0: 92 01 F8 FF FF 7F 00                              .......         
```

#### Opcodes

```
  0: 0x01A0 [0x92] EventEntity->Render.Flags3 ^= 0x01
  1: 0x01A6 [0x00] END_REQSTACK()
```

### Event 5097

#### Metadata

| Field        | Value   |
|--------------|---------|
| Entrypoint   | 0x01A7  |
| Data Size    | 7 bytes |
| Instructions | 2       |

```
      00 01 02 03 04 05 06 07  08 09 0A 0B 0C 0D 0E 0F
      -- -- -- -- -- -- -- --  -- -- -- -- -- -- -- --
01A0:                      92  01 F8 FF FF 7F 00               .......  
```

#### Opcodes

```
  0: 0x01A7 [0x92] EventEntity->Render.Flags3 ^= 0x01
  1: 0x01AD [0x00] END_REQSTACK()
```

### Event 5099

#### Metadata

| Field        | Value   |
|--------------|---------|
| Entrypoint   | 0x01AE  |
| Data Size    | 7 bytes |
| Instructions | 2       |

```
      00 01 02 03 04 05 06 07  08 09 0A 0B 0C 0D 0E 0F
      -- -- -- -- -- -- -- --  -- -- -- -- -- -- -- --
01A0:                                            92 01                ..
01B0: F8 FF FF 7F 00                                    .....           
```

#### Opcodes

```
  0: 0x01AE [0x92] EventEntity->Render.Flags3 ^= 0x01
  1: 0x01B4 [0x00] END_REQSTACK()
```

### Event 5102

#### Metadata

| Field        | Value   |
|--------------|---------|
| Entrypoint   | 0x01B5  |
| Data Size    | 7 bytes |
| Instructions | 2       |

```
      00 01 02 03 04 05 06 07  08 09 0A 0B 0C 0D 0E 0F
      -- -- -- -- -- -- -- --  -- -- -- -- -- -- -- --
01B0:                92 01 F8  FF FF 7F 00                   .......    
```

#### Opcodes

```
  0: 0x01B5 [0x92] EventEntity->Render.Flags3 ^= 0x01
  1: 0x01BB [0x00] END_REQSTACK()
```

### Event 5124

#### Metadata

| Field        | Value   |
|--------------|---------|
| Entrypoint   | 0x01BC  |
| Data Size    | 7 bytes |
| Instructions | 2       |

```
      00 01 02 03 04 05 06 07  08 09 0A 0B 0C 0D 0E 0F
      -- -- -- -- -- -- -- --  -- -- -- -- -- -- -- --
01B0:                                      92 01 F8 FF              ....
01C0: FF 7F 00                                          ...             
```

#### Opcodes

```
  0: 0x01BC [0x92] EventEntity->Render.Flags3 ^= 0x01
  1: 0x01C2 [0x00] END_REQSTACK()
```

### Event 5130

#### Metadata

| Field        | Value   |
|--------------|---------|
| Entrypoint   | 0x01C3  |
| Data Size    | 7 bytes |
| Instructions | 2       |

```
      00 01 02 03 04 05 06 07  08 09 0A 0B 0C 0D 0E 0F
      -- -- -- -- -- -- -- --  -- -- -- -- -- -- -- --
01C0:          92 01 F8 FF FF  7F 00                       .......      
```

#### Opcodes

```
  0: 0x01C3 [0x92] EventEntity->Render.Flags3 ^= 0x01
  1: 0x01C9 [0x00] END_REQSTACK()
```

### Event 5202

#### Metadata

| Field        | Value   |
|--------------|---------|
| Entrypoint   | 0x01CA  |
| Data Size    | 7 bytes |
| Instructions | 2       |

```
      00 01 02 03 04 05 06 07  08 09 0A 0B 0C 0D 0E 0F
      -- -- -- -- -- -- -- --  -- -- -- -- -- -- -- --
01C0:                                92 01 F8 FF FF 7F            ......
01D0: 00                                                .               
```

#### Opcodes

```
  0: 0x01CA [0x92] EventEntity->Render.Flags3 ^= 0x01
  1: 0x01D0 [0x00] END_REQSTACK()
```

### Event 106

#### Metadata

| Field        | Value   |
|--------------|---------|
| Entrypoint   | 0x01D1  |
| Data Size    | 7 bytes |
| Instructions | 2       |

```
      00 01 02 03 04 05 06 07  08 09 0A 0B 0C 0D 0E 0F
      -- -- -- -- -- -- -- --  -- -- -- -- -- -- -- --
01D0:    92 01 F8 FF FF 7F 00                            .......        
```

#### Opcodes

```
  0: 0x01D1 [0x92] EventEntity->Render.Flags3 ^= 0x01
  1: 0x01D7 [0x00] END_REQSTACK()
```

### Event 5212

#### Metadata

| Field        | Value   |
|--------------|---------|
| Entrypoint   | 0x01D8  |
| Data Size    | 7 bytes |
| Instructions | 2       |

```
      00 01 02 03 04 05 06 07  08 09 0A 0B 0C 0D 0E 0F
      -- -- -- -- -- -- -- --  -- -- -- -- -- -- -- --
01D0:                          92 01 F8 FF FF 7F 00             ....... 
```

#### Opcodes

```
  0: 0x01D8 [0x92] EventEntity->Render.Flags3 ^= 0x01
  1: 0x01DE [0x00] END_REQSTACK()
```

### Event 5214

#### Metadata

| Field        | Value   |
|--------------|---------|
| Entrypoint   | 0x01DF  |
| Data Size    | 7 bytes |
| Instructions | 2       |

```
      00 01 02 03 04 05 06 07  08 09 0A 0B 0C 0D 0E 0F
      -- -- -- -- -- -- -- --  -- -- -- -- -- -- -- --
01D0:                                               92                 .
01E0: 01 F8 FF FF 7F 00                                 ......          
```

#### Opcodes

```
  0: 0x01DF [0x92] EventEntity->Render.Flags3 ^= 0x01
  1: 0x01E5 [0x00] END_REQSTACK()
```

### Event 5217

#### Metadata

| Field        | Value   |
|--------------|---------|
| Entrypoint   | 0x01E6  |
| Data Size    | 7 bytes |
| Instructions | 2       |

```
      00 01 02 03 04 05 06 07  08 09 0A 0B 0C 0D 0E 0F
      -- -- -- -- -- -- -- --  -- -- -- -- -- -- -- --
01E0:                   92 01  F8 FF FF 7F 00                 .......   
```

#### Opcodes

```
  0: 0x01E6 [0x92] EventEntity->Render.Flags3 ^= 0x01
  1: 0x01EC [0x00] END_REQSTACK()
```

### Event 5222

#### Metadata

| Field        | Value   |
|--------------|---------|
| Entrypoint   | 0x01ED  |
| Data Size    | 7 bytes |
| Instructions | 2       |

```
      00 01 02 03 04 05 06 07  08 09 0A 0B 0C 0D 0E 0F
      -- -- -- -- -- -- -- --  -- -- -- -- -- -- -- --
01E0:                                         92 01 F8               ...
01F0: FF FF 7F 00                                       ....            
```

#### Opcodes

```
  0: 0x01ED [0x92] EventEntity->Render.Flags3 ^= 0x01
  1: 0x01F3 [0x00] END_REQSTACK()
```

### Event 5108

#### Metadata

| Field        | Value    |
|--------------|----------|
| Entrypoint   | 0x01F4   |
| Data Size    | 61 bytes |
| Instructions | 13       |

```
      00 01 02 03 04 05 06 07  08 09 0A 0B 0C 0D 0E 0F
      -- -- -- -- -- -- -- --  -- -- -- -- -- -- -- --
01F0:             1E F0 FF FF  7F 6F 70 4A F0 FF FF 7F      .....opJ....
0200: F8 FF FF 7F 6F 76 F0 FF  FF 7F 66 00 80 F8 FF FF  ....ov....f.....
0210: 7F F8 FF FF 7F 74 6C 6B  30 1D 1C 80 23 66 00 80  .....tlk0...#f..
0220: F8 FF FF 7F F8 FF FF 7F  73 74 64 30 1C 1D 80 21  ........std0...!
0230: 00                                                .               
```

#### Opcodes

```
  0: 0x01F4 [0x1E] EventEntity looks at LocalPlayer and starts talking
  1: 0x01F9 [0x6F] WAIT_FRAME_DELAY: Yield until WaitTime reaches zero
  2: 0x01FA [0x70] WAIT_ENTITY_RENDER_FLAG: Wait while EventEntity->Render.Flags3 bit 2 is set (cancel turn if not)
  3: 0x01FB [0x4A] LocalPlayer looks at EventEntity
  4: 0x0204 [0x6F] WAIT_FRAME_DELAY: Yield until WaitTime reaches zero
  5: 0x0205 [0x76] CHECK_ENTITY_RENDER_FLAGS: Wait until LocalPlayer Render.Flags0 and Render.Flags3 conditions are met
  6: 0x020A [0x66] LOAD_EXT_SCHEDULER_MAIN: Load scheduler "tlk0" with entities [EventEntity, EventEntity], work=19*
  7: 0x0219 [0x1D] PRINT_EVENT_MESSAGE(message_id=11040*)
    → "Lately, I feel like someone is constantly undressing me with their eyes while I work. It's so disturbing."
  8: 0x021C [0x23] WAIT_FOR_DIALOG_INTERACTION
  9: 0x021D [0x66] LOAD_EXT_SCHEDULER_MAIN: Load scheduler "std0" with entities [EventEntity, EventEntity], work=19*
 10: 0x022C [0x1C] WAIT(30* ticks)
 11: 0x022F [0x21] END_EVENT
 12: 0x0230 [0x00] END_REQSTACK()
```

### Event 65535.1

#### Metadata

| Field        | Value    |
|--------------|----------|
| Entrypoint   | 0x0231   |
| Data Size    | 40 bytes |
| Instructions | 10       |

```
      00 01 02 03 04 05 06 07  08 09 0A 0B 0C 0D 0E 0F
      -- -- -- -- -- -- -- --  -- -- -- -- -- -- -- --
0230:    6E F8 FF FF 7F 18 80  99 F8 FF FF 7F 1C 1E 80   n..............
0240: 4B F8 FF FF 7F 1F 80 6F  70 6E F8 FF FF 7F 04 80  K......opn......
0250: 99 F8 FF FF 7F 1C 19 80  00                       .........       
```

#### Opcodes

```
  0: 0x0231 [0x6E] EventEntity uses emote 10*
  1: 0x0238 [0x99] Wait for EventEntity animation to complete
  2: 0x023D [0x1C] WAIT(180* ticks)
  3: 0x0240 [0x4B] UPDATE_ENTITY_YAW(entity=EventEntity, yaw=7.1°*)
  4: 0x0247 [0x6F] WAIT_FRAME_DELAY: Yield until WaitTime reaches zero
  5: 0x0248 [0x70] WAIT_ENTITY_RENDER_FLAG: Wait while EventEntity->Render.Flags3 bit 2 is set (cancel turn if not)
  6: 0x0249 [0x6E] EventEntity uses emote 1*
  7: 0x0250 [0x99] Wait for EventEntity animation to complete
  8: 0x0255 [0x1C] WAIT(120* ticks)
  9: 0x0258 [0x00] END_REQSTACK()
```

### Event 115

#### Metadata

| Field        | Value   |
|--------------|---------|
| Entrypoint   | 0x0259  |
| Data Size    | 7 bytes |
| Instructions | 2       |

```
      00 01 02 03 04 05 06 07  08 09 0A 0B 0C 0D 0E 0F
      -- -- -- -- -- -- -- --  -- -- -- -- -- -- -- --
0250:                             92 01 F8 FF FF 7F 00           .......
```

#### Opcodes

```
  0: 0x0259 [0x92] EventEntity->Render.Flags3 ^= 0x01
  1: 0x025F [0x00] END_REQSTACK()
```

### Event 120

#### Metadata

| Field        | Value   |
|--------------|---------|
| Entrypoint   | 0x0260  |
| Data Size    | 7 bytes |
| Instructions | 2       |

```
      00 01 02 03 04 05 06 07  08 09 0A 0B 0C 0D 0E 0F
      -- -- -- -- -- -- -- --  -- -- -- -- -- -- -- --
0260: 92 01 F8 FF FF 7F 00                              .......         
```

#### Opcodes

```
  0: 0x0260 [0x92] EventEntity->Render.Flags3 ^= 0x01
  1: 0x0266 [0x00] END_REQSTACK()
```

### Event 123

#### Metadata

| Field        | Value    |
|--------------|----------|
| Entrypoint   | 0x0267   |
| Data Size    | 82 bytes |
| Instructions | 20       |

```
      00 01 02 03 04 05 06 07  08 09 0A 0B 0C 0D 0E 0F
      -- -- -- -- -- -- -- --  -- -- -- -- -- -- -- --
0260:                      1E  F0 FF FF 7F 6F 70 66 00         .....opf.
0270: 80 F8 FF FF 7F F8 FF FF  7F 74 6C 6B 30 02 02 10  .........tlk0...
0280: 05 80 80 8F 02 1D 20 80  1C 21 80 23 01 A5 02 02  ...... ..!.#....
0290: 02 10 04 80 80 A5 02 1D  22 80 23 1D 23 80 1C 21  ........".#.#..!
02A0: 80 23 01 A5 02 66 00 80  F8 FF FF 7F F8 FF FF 7F  .#...f..........
02B0: 73 74 64 30 1C 1D 80 21  00                       std0...!.       
```

#### Opcodes

```
  0: 0x0267 [0x1E] EventEntity looks at LocalPlayer and starts talking
  1: 0x026C [0x6F] WAIT_FRAME_DELAY: Yield until WaitTime reaches zero
  2: 0x026D [0x70] WAIT_ENTITY_RENDER_FLAG: Wait while EventEntity->Render.Flags3 bit 2 is set (cancel turn if not)
  3: 0x026E [0x66] LOAD_EXT_SCHEDULER_MAIN: Load scheduler "tlk0" with entities [EventEntity, EventEntity], work=19*
  4: 0x027D [0x02] IF !(Work_Zone[2] == 0*) GOTO 0x028F
  5: 0x0285 [0x1D] PRINT_EVENT_MESSAGE(message_id=11836*)
    → "Recently, I've been feeling someone staring at me from the shadows again. How creepy..."
  6: 0x0288 [0x1C] WAIT(60* ticks)
  7: 0x028B [0x23] WAIT_FOR_DIALOG_INTERACTION
  8: 0x028C [0x01] GOTO 0x02A5
  9: 0x028F [0x02] IF !(Work_Zone[2] == 1*) GOTO 0x02A5
 10: 0x0297 [0x1D] PRINT_EVENT_MESSAGE(message_id=11932*)
    → "Hm? You're looking for Master Sangy?"
 11: 0x029A [0x23] WAIT_FOR_DIALOG_INTERACTION
 12: 0x029B [0x1D] PRINT_EVENT_MESSAGE(message_id=11933*)
    → "In that case, you should check with the Mummers' Coalition. I've seen him around there before."
 13: 0x029E [0x1C] WAIT(60* ticks)
 14: 0x02A1 [0x23] WAIT_FOR_DIALOG_INTERACTION
 15: 0x02A2 [0x01] GOTO 0x02A5

SUBROUTINE_02A5:
 16: 0x02A5 [0x66] LOAD_EXT_SCHEDULER_MAIN: Load scheduler "std0" with entities [EventEntity, EventEntity], work=19*
 17: 0x02B4 [0x1C] WAIT(30* ticks)
 18: 0x02B7 [0x21] END_EVENT
 19: 0x02B8 [0x00] END_REQSTACK()
```
