# 0x7FFFFFF0 - Zone Events

## Common Data

| Field            | Value                     |
|------------------|---------------------------|
| Zone             | Eastern Adoulin (ID: 257) |
| Block Size       | 5060 bytes                |
| Total Events     | 153                       |
| References Count | 290                       |

## List of Events

| Event ID                     | Entrypoint   |   Size |   Instructions |
|------------------------------|--------------|--------|----------------|
| [65535](#event-65535)        | 0x0000       |      1 |              1 |
| [65534](#event-65534)        | 0x0001       |      1 |              1 |
| [65535.1](#event-655351)     | 0x0002       |      6 |              2 |
| [65535.2](#event-655352)     | 0x0008       |      6 |              2 |
| [65535.3](#event-655353)     | 0x000E       |     29 |              5 |
| [65535.4](#event-655354)     | 0x002B       |     29 |              5 |
| [65535.5](#event-655355)     | 0x0048       |     37 |              5 |
| [65535.6](#event-655356)     | 0x006D       |     37 |              5 |
| [65535.7](#event-655357)     | 0x0092       |      7 |              3 |
| [65535.8](#event-655358)     | 0x0099       |      7 |              3 |
| [65535.9](#event-655359)     | 0x00A0       |     24 |              4 |
| [65535.10](#event-6553510)   | 0x00B8       |     24 |              4 |
| [65535.11](#event-6553511)   | 0x00D0       |     10 |              2 |
| [65535.12](#event-6553512)   | 0x00DA       |     10 |              2 |
| [65535.13](#event-6553513)   | 0x00E4       |     14 |              4 |
| [65535.14](#event-6553514)   | 0x00F2       |     24 |              6 |
| [65535.15](#event-6553515)   | 0x010A       |     24 |              4 |
| [65535.16](#event-6553516)   | 0x0122       |     24 |              4 |
| [65535.17](#event-6553517)   | 0x013A       |     38 |              5 |
| [65535.18](#event-6553518)   | 0x0160       |     38 |              5 |
| [65535.19](#event-6553519)   | 0x0186       |     38 |              5 |
| [65535.20](#event-6553520)   | 0x01AC       |     37 |              5 |
| [65535.21](#event-6553521)   | 0x01D1       |     37 |              5 |
| [65535.22](#event-6553522)   | 0x01F6       |     42 |              6 |
| [65535.23](#event-6553523)   | 0x0220       |     29 |              5 |
| [65535.24](#event-6553524)   | 0x023D       |     29 |              5 |
| [65535.25](#event-6553525)   | 0x025A       |     24 |              4 |
| [65535.26](#event-6553526)   | 0x0272       |     27 |              5 |
| [65535.27](#event-6553527)   | 0x028D       |     26 |              8 |
| [65535.28](#event-6553528)   | 0x02A7       |     26 |              8 |
| [65535.29](#event-6553529)   | 0x02C1       |     29 |              5 |
| [65535.30](#event-6553530)   | 0x02DE       |     29 |              5 |
| [65535.31](#event-6553531)   | 0x02FB       |     29 |              5 |
| [65535.32](#event-6553532)   | 0x0318       |     15 |              5 |
| [65535.33](#event-6553533)   | 0x0327       |     22 |              6 |
| [65535.34](#event-6553534)   | 0x033D       |    166 |             38 |
| [65535.35](#event-6553535)   | 0x03E3       |     14 |              4 |
| [65535.36](#event-6553536)   | 0x03F1       |     29 |              6 |
| [65535.37](#event-6553537)   | 0x040E       |     14 |              4 |
| [65535.38](#event-6553538)   | 0x041C       |     14 |              4 |
| [65535.39](#event-6553539)   | 0x042A       |     18 |              6 |
| [65535.40](#event-6553540)   | 0x043C       |     19 |              5 |
| [65535.41](#event-6553541)   | 0x044F       |     14 |              4 |
| [65535.42](#event-6553542)   | 0x045D       |     14 |              4 |
| [65535.43](#event-6553543)   | 0x046B       |     14 |              4 |
| [65535.44](#event-6553544)   | 0x0479       |     17 |              5 |
| [65535.45](#event-6553545)   | 0x048A       |     14 |              4 |
| [65535.46](#event-6553546)   | 0x0498       |      5 |              2 |
| [65535.47](#event-6553547)   | 0x049D       |      5 |              2 |
| [65535.48](#event-6553548)   | 0x04A2       |      5 |              2 |
| [65535.49](#event-6553549)   | 0x04A7       |      5 |              2 |
| [65535.50](#event-6553550)   | 0x04AC       |     14 |              4 |
| [65535.51](#event-6553551)   | 0x04BA       |     14 |              4 |
| [65535.52](#event-6553552)   | 0x04C8       |     22 |              6 |
| [65535.53](#event-6553553)   | 0x04DE       |     19 |              5 |
| [65535.54](#event-6553554)   | 0x04F1       |     22 |              6 |
| [65535.55](#event-6553555)   | 0x0507       |     22 |              6 |
| [65535.56](#event-6553556)   | 0x051D       |     14 |              4 |
| [65535.57](#event-6553557)   | 0x052B       |     19 |              5 |
| [65535.58](#event-6553558)   | 0x053E       |     22 |              6 |
| [65535.59](#event-6553559)   | 0x0554       |     22 |              6 |
| [65535.60](#event-6553560)   | 0x056A       |     24 |              6 |
| [65535.61](#event-6553561)   | 0x0582       |     22 |              6 |
| [65535.62](#event-6553562)   | 0x0598       |     14 |              4 |
| [65535.63](#event-6553563)   | 0x05A6       |     24 |              6 |
| [65535.64](#event-6553564)   | 0x05BE       |     22 |              6 |
| [65535.65](#event-6553565)   | 0x05D4       |     14 |              4 |
| [65535.66](#event-6553566)   | 0x05E2       |     22 |              6 |
| [65535.67](#event-6553567)   | 0x05F8       |     22 |              6 |
| [65535.68](#event-6553568)   | 0x060E       |     17 |              5 |
| [65535.69](#event-6553569)   | 0x061F       |     30 |              8 |
| [65535.70](#event-6553570)   | 0x063D       |     14 |              4 |
| [65535.71](#event-6553571)   | 0x064B       |     22 |              6 |
| [65535.72](#event-6553572)   | 0x0661       |     22 |              6 |
| [65535.73](#event-6553573)   | 0x0677       |     22 |              6 |
| [65535.74](#event-6553574)   | 0x068D       |     14 |              4 |
| [65535.75](#event-6553575)   | 0x069B       |     17 |              5 |
| [65535.76](#event-6553576)   | 0x06AC       |     22 |              6 |
| [65535.77](#event-6553577)   | 0x06C2       |     14 |              4 |
| [65535.78](#event-6553578)   | 0x06D0       |     14 |              4 |
| [65535.79](#event-6553579)   | 0x06DE       |     14 |              4 |
| [65535.80](#event-6553580)   | 0x06EC       |     24 |              6 |
| [65535.81](#event-6553581)   | 0x0704       |     16 |              5 |
| [65535.82](#event-6553582)   | 0x0714       |     24 |              6 |
| [65535.83](#event-6553583)   | 0x072C       |     22 |              6 |
| [65535.84](#event-6553584)   | 0x0742       |     14 |              4 |
| [65535.85](#event-6553585)   | 0x0750       |     14 |              4 |
| [65535.86](#event-6553586)   | 0x075E       |     21 |              7 |
| [65535.87](#event-6553587)   | 0x0773       |     21 |              7 |
| [65535.88](#event-6553588)   | 0x0788       |     21 |              7 |
| [65535.89](#event-6553589)   | 0x079D       |     14 |              4 |
| [65535.90](#event-6553590)   | 0x07AB       |     19 |              5 |
| [65535.91](#event-6553591)   | 0x07BE       |     21 |              7 |
| [65535.92](#event-6553592)   | 0x07D3       |     19 |              5 |
| [65535.93](#event-6553593)   | 0x07E6       |     14 |              4 |
| [65535.94](#event-6553594)   | 0x07F4       |     14 |              4 |
| [65535.95](#event-6553595)   | 0x0802       |     14 |              4 |
| [65535.96](#event-6553596)   | 0x0810       |     14 |              4 |
| [65535.97](#event-6553597)   | 0x081E       |     19 |              5 |
| [65535.98](#event-6553598)   | 0x0831       |     16 |              4 |
| [65535.99](#event-6553599)   | 0x0841       |     24 |              6 |
| [65535.100](#event-65535100) | 0x0859       |     14 |              4 |
| [65535.101](#event-65535101) | 0x0867       |     27 |              3 |
| [65535.102](#event-65535102) | 0x0882       |     13 |              3 |
| [65535.103](#event-65535103) | 0x088F       |     14 |              4 |
| [65535.104](#event-65535104) | 0x089D       |     14 |              4 |
| [65535.105](#event-65535105) | 0x08AB       |      6 |              2 |
| [65535.106](#event-65535106) | 0x08B1       |      6 |              2 |
| [65535.107](#event-65535107) | 0x08B7       |      6 |              2 |
| [65535.108](#event-65535108) | 0x08BD       |      6 |              2 |
| [65535.109](#event-65535109) | 0x08C3       |     55 |              9 |
| [65535.110](#event-65535110) | 0x08FA       |     12 |              3 |
| [65535.111](#event-65535111) | 0x0906       |     16 |              5 |
| [65535.112](#event-65535112) | 0x0916       |     10 |              2 |
| [65535.113](#event-65535113) | 0x0920       |     10 |              2 |
| [37](#event-37)              | 0x092A       |      1 |              1 |
| [65535.114](#event-65535114) | 0x092B       |     12 |              3 |
| [65535.115](#event-65535115) | 0x0937       |     16 |              5 |
| [65535.116](#event-65535116) | 0x0947       |     14 |              4 |
| [39](#event-39)              | 0x0955       |      1 |              1 |
| [65535.117](#event-65535117) | 0x0956       |     10 |              2 |
| [65535.118](#event-65535118) | 0x0960       |     14 |              4 |
| [65535.119](#event-65535119) | 0x096E       |     14 |              4 |
| [65535.120](#event-65535120) | 0x097C       |     10 |              2 |
| [65535.121](#event-65535121) | 0x0986       |     13 |              3 |
| [65535.122](#event-65535122) | 0x0993       |     14 |              4 |
| [65535.123](#event-65535123) | 0x09A1       |     14 |              4 |
| [1521](#event-1521)          | 0x09AF       |      1 |              1 |
| [65535.124](#event-65535124) | 0x09B0       |     10 |              2 |
| [65535.125](#event-65535125) | 0x09BA       |     14 |              4 |
| [65535.126](#event-65535126) | 0x09C8       |     21 |              7 |
| [65535.127](#event-65535127) | 0x09DD       |     14 |              4 |
| [65535.128](#event-65535128) | 0x09EB       |     14 |              4 |
| [65535.129](#event-65535129) | 0x09F9       |     14 |              4 |
| [65535.130](#event-65535130) | 0x0A07       |     14 |              4 |
| [65535.131](#event-65535131) | 0x0A15       |     30 |              8 |
| [65535.132](#event-65535132) | 0x0A33       |     14 |              4 |
| [65535.133](#event-65535133) | 0x0A41       |     14 |              4 |
| [65535.134](#event-65535134) | 0x0A4F       |     14 |              4 |
| [65535.135](#event-65535135) | 0x0A5D       |     14 |              4 |
| [65535.136](#event-65535136) | 0x0A6B       |    353 |             41 |
| [65535.137](#event-65535137) | 0x0BCC       |     19 |              5 |
| [65535.138](#event-65535138) | 0x0BDF       |     20 |              6 |
| [65535.139](#event-65535139) | 0x0BF3       |     14 |              4 |
| [65535.140](#event-65535140) | 0x0C01       |     26 |              8 |
| [65535.141](#event-65535141) | 0x0C1B       |     14 |              4 |
| [65535.142](#event-65535142) | 0x0C29       |     14 |              4 |
| [65535.143](#event-65535143) | 0x0C37       |     14 |              4 |
| [65535.144](#event-65535144) | 0x0C45       |     18 |              6 |
| [65535.145](#event-65535145) | 0x0C57       |     40 |              8 |
| [65535.146](#event-65535146) | 0x0C7F       |     14 |              4 |
| [65535.147](#event-65535147) | 0x0C8D       |     47 |              7 |
| [65535.148](#event-65535148) | 0x0CBC       |     10 |              2 |

## DAT References (imed_data)

|   Index | Hex Value   |   Dec Value |
|---------|-------------|-------------|
|       0 | 0x0009      |           9 |
|       1 | 0x0001      |           1 |
|       2 | 0x0000      |           0 |
|       3 | 0x0080      |         128 |
|       4 | 0x000D      |          13 |
|       5 | 0xFFFF4C0D  |  4294921229 |
|       6 | 0xD0FB      |       53499 |
|       7 | 0xFFFFFF6C  |  4294967148 |
|       8 | 0xFFFF61EC  |  4294926828 |
|       9 | 0xAE21      |       44577 |
|      10 | 0xFFFFFD77  |  4294966647 |
|      11 | 0xFFFF62D4  |  4294927060 |
|      12 | 0x9BFB      |       39931 |
|      13 | 0x0545      |        1349 |
|      14 | 0x0008      |           8 |
|      15 | 0x0007      |           7 |
|      16 | 0x0091      |         145 |
|      17 | 0x004F      |          79 |
|      18 | 0x004C      |          76 |
|      19 | 0x00C9      |         201 |
|      20 | 0x0018      |          24 |
|      21 | 0x0020      |          32 |
|      22 | 0x0030      |          48 |
|      23 | 0x0005      |           5 |
|      24 | 0x0040      |          64 |
|      25 | 0x003C      |          60 |
|      26 | 0x000C      |          12 |
|      27 | 0x17B6D     |       97133 |
|      28 | 0xFFFF07C5  |  4294903749 |
|      29 | 0xFFFF632C  |  4294927148 |
|      30 | 0xFFFFFD01  |  4294966529 |
|      31 | 0x30A7      |       12455 |
|      32 | 0xFFFFFA24  |  4294965796 |
|      33 | 0x000A      |          10 |
|      34 | 0xFFFFEB5D  |  4294962013 |
|      35 | 0xFFFFC947  |  4294953287 |
|      36 | 0xFFFFF46E  |  4294964334 |
|      37 | 0xFFFFC5DA  |  4294952410 |
|      38 | 0xFFFFBD98  |  4294950296 |
|      39 | 0x0002      |           2 |
|      40 | 0x0046      |          70 |
|      41 | 0x008C      |         140 |
|      42 | 0x00D2      |         210 |
|      43 | 0x009C      |         156 |
|      44 | 0xFFFFC569  |  4294952297 |
|      45 | 0xFFFFFA3C  |  4294965820 |
|      46 | 0xFFFFA751  |  4294944593 |
|      47 | 0x03AE      |         942 |
|      48 | 0xFFFFD152  |  4294955346 |
|      49 | 0x10A55     |       68181 |
|      50 | 0xFFFFC17D  |  4294951293 |
|      51 | 0xFFFF63C0  |  4294927296 |
|      52 | 0x17F71     |       98161 |
|      53 | 0xFFFF0656  |  4294903382 |
|      54 | 0xFFFF632D  |  4294927149 |
|      55 | 0x0028      |          40 |
|      56 | 0xFFFEC1FF  |  4294885887 |
|      57 | 0x5F17      |       24343 |
|      58 | 0x19AB5     |      105141 |
|      59 | 0xFFFF04D9  |  4294903001 |
|      60 | 0xFFFFFCE3  |  4294966499 |
|      61 | 0x6044      |       24644 |
|      62 | 0xFFFFFA25  |  4294965797 |
|      63 | 0xFFFF20BD  |  4294910141 |
|      64 | 0xFFFFC518  |  4294952216 |
|      65 | 0xFFFFFE0C  |  4294966796 |
|      66 | 0xFFFF1417  |  4294906903 |
|      67 | 0xFFFFC23C  |  4294951484 |
|      68 | 0x001E      |          30 |
|      69 | 0xFFFF3140  |  4294914368 |
|      70 | 0xFFFFC532  |  4294952242 |
|      71 | 0x0057      |          87 |
|      72 | 0x005D      |          93 |
|      73 | 0x0060      |          96 |
|      74 | 0x0064      |         100 |
|      75 | 0xFFFFFE25  |  4294966821 |
|      76 | 0x32CB      |       13003 |
|      77 | 0xFFFF28CC  |  4294912204 |
|      78 | 0xFFFFC5FC  |  4294952444 |
|      79 | 0xFFFF0A10  |  4294904336 |
|      80 | 0xFFFFDCEF  |  4294958319 |
|      81 | 0xFFFF526E  |  4294922862 |
|      82 | 0xFFFFEC13  |  4294962195 |
|      83 | 0x0292      |         658 |
|      84 | 0xFFFFFB55  |  4294966101 |
|      85 | 0x03D4      |         980 |
|      86 | 0xFFFFF6EB  |  4294964971 |
|      87 | 0xFFFF10F6  |  4294906102 |
|      88 | 0xFFFFBF49  |  4294950729 |
|      89 | 0xFFFFFFB6  |  4294967222 |
|      90 | 0xFFFF15EC  |  4294907372 |
|      91 | 0xFFFFCAE0  |  4294953696 |
|      92 | 0xFFFFFE0D  |  4294966797 |
|      93 | 0xFFFE855D  |  4294870365 |
|      94 | 0xFFFF4108  |  4294918408 |
|      95 | 0xFFFF2CBE  |  4294913214 |
|      96 | 0xFFFFCCD8  |  4294954200 |
|      97 | 0xFFFF1ADC  |  4294908636 |
|      98 | 0xFFFFD487  |  4294956167 |
|      99 | 0xFFFF086C  |  4294903916 |
|     100 | 0xFFFFD95E  |  4294957406 |
|     101 | 0xFFFF0629  |  4294903337 |
|     102 | 0xFFFFD5A1  |  4294956449 |
|     103 | 0x1917A     |      102778 |
|     104 | 0xFFFF0BEC  |  4294904812 |
|     105 | 0x19618     |      103960 |
|     106 | 0xFFFF2863  |  4294912099 |
|     107 | 0xFFFFFFF6  |  4294967286 |
|     108 | 0x411E      |       16670 |
|     109 | 0xFFFFFFFC  |  4294967292 |
|     110 | 0x0398      |         920 |
|     111 | 0xFFFF801C  |  4294934556 |
|     112 | 0xFFFFC041  |  4294950977 |
|     113 | 0xFFFF809D  |  4294934685 |
|     114 | 0xFFFFCA99  |  4294953625 |
|     115 | 0xFFFF83B9  |  4294935481 |
|     116 | 0xFFFFCDF5  |  4294954485 |
|     117 | 0xFFFF7CD0  |  4294933712 |
|     118 | 0xFFFFCB3C  |  4294953788 |
|     119 | 0xFFFF89D6  |  4294937046 |
|     120 | 0xFFFFD6F2  |  4294956786 |
|     121 | 0xFFFF7EC0  |  4294934208 |
|     122 | 0xFFFFD555  |  4294956373 |
|     123 | 0x0031      |          49 |
|     124 | 0x47A1      |       18337 |
|     125 | 0x17A47     |       96839 |
|     126 | 0xFFFF0585  |  4294903173 |
|     127 | 0x16803     |       92163 |
|     128 | 0xFFFF0742  |  4294903618 |
|     129 | 0xFFFF63C1  |  4294927297 |
|     130 | 0xFFFF05B8  |  4294903224 |
|     131 | 0xFFFFD90F  |  4294957327 |
|     132 | 0x111B6     |       70070 |
|     133 | 0x09D6      |        2518 |
|     134 | 0x1698E     |       92558 |
|     135 | 0xFFFF053C  |  4294903100 |
|     136 | 0x0556      |        1366 |
|     137 | 0xFFFFD110  |  4294955280 |
|     138 | 0x034C      |         844 |
|     139 | 0xFFFFEC0D  |  4294962189 |
|     140 | 0x03C0      |         960 |
|     141 | 0x063E      |        1598 |
|     142 | 0x1B88D     |      112781 |
|     143 | 0xFFFF0543  |  4294903107 |
|     144 | 0xFFFF23D4  |  4294910932 |
|     145 | 0xFFFFC940  |  4294953280 |
|     146 | 0x0ABD      |        2749 |
|     147 | 0xFFFF1D33  |  4294909235 |
|     148 | 0xFFFFC13D  |  4294951229 |
|     149 | 0xFFFF010E  |  4294902030 |
|     150 | 0xFFFFDAFD  |  4294957821 |
|     151 | 0xFFFF148A  |  4294907018 |
|     152 | 0xFFFFCDC9  |  4294954441 |
|     153 | 0xFFFEC36F  |  4294886255 |
|     154 | 0xFFFF3206  |  4294914566 |
|     155 | 0xFFFF726E  |  4294931054 |
|     156 | 0xFFFFA526  |  4294944038 |
|     157 | 0xFFFF59A2  |  4294924706 |
|     158 | 0xFFFFCA4B  |  4294953547 |
|     159 | 0xFFFF5038  |  4294922296 |
|     160 | 0xFFFFDDC8  |  4294958536 |
|     161 | 0xFFFF5A3C  |  4294924860 |
|     162 | 0xFFFFB513  |  4294948115 |
|     163 | 0xFFFF5E61  |  4294925921 |
|     164 | 0xFFFFA204  |  4294943236 |
|     165 | 0xFFFF7220  |  4294930976 |
|     166 | 0xFFFFA326  |  4294943526 |
|     167 | 0xFFFFFF6A  |  4294967146 |
|     168 | 0x0098      |         152 |
|     169 | 0xFFFFB1CB  |  4294947275 |
|     170 | 0xFFFFD351  |  4294955857 |
|     171 | 0x0CAA      |        3242 |
|     172 | 0xFFFFB203  |  4294947331 |
|     173 | 0x57C0      |       22464 |
|     174 | 0x7959      |       31065 |
|     175 | 0xFFFFAA10  |  4294945296 |
|     176 | 0x0050      |          80 |
|     177 | 0x0015      |          21 |
|     178 | 0x001A      |          26 |
|     179 | 0xFFFF6B01  |  4294929153 |
|     180 | 0xFFFFB615  |  4294948373 |
|     181 | 0xFFFF7418  |  4294931480 |
|     182 | 0xFFFFA7D9  |  4294944729 |
|     183 | 0x0032      |          50 |
|     184 | 0xFFFFFFD3  |  4294967251 |
|     185 | 0xFFFFF833  |  4294965299 |
|     186 | 0xFFFFF3DA  |  4294964186 |
|     187 | 0xFFFF6FA0  |  4294930336 |
|     188 | 0x5E9C      |       24220 |
|     189 | 0x7F6D      |       32621 |
|     190 | 0xFFFFA97C  |  4294945148 |
|     191 | 0x0ABC      |        2748 |
|     192 | 0x0006      |           6 |
|     193 | 0x6148      |       24904 |
|     194 | 0x7F40      |       32576 |
|     195 | 0xFFFFA97A  |  4294945146 |
|     196 | 0xFFFFFC00  |  4294966272 |
|     197 | 0xFFFFFFF1  |  4294967281 |
|     198 | 0xFFFFA89C  |  4294944924 |
|     199 | 0x0C2D      |        3117 |
|     200 | 0x0051      |          81 |
|     201 | 0xFFFFCC95  |  4294954133 |
|     202 | 0x041A      |        1050 |
|     203 | 0xFFFFCD77  |  4294954359 |
|     204 | 0x078E      |        1934 |
|     205 | 0x5D9B      |       23963 |
|     206 | 0x78ED      |       30957 |
|     207 | 0x03EB      |        1003 |
|     208 | 0xFFFFFF8E  |  4294967182 |
|     209 | 0xFFFFD889  |  4294957193 |
|     210 | 0x0BCC      |        3020 |
|     211 | 0xFFFFF02D  |  4294963245 |
|     212 | 0xFFFFFF44  |  4294967108 |
|     213 | 0x019A      |         410 |
|     214 | 0x6131      |       24881 |
|     215 | 0x7D51      |       32081 |
|     216 | 0x0C23      |        3107 |
|     217 | 0x60EB      |       24811 |
|     218 | 0x82FD      |       33533 |
|     219 | 0xFFFFFE7C  |  4294966908 |
|     220 | 0xFFFFFD48  |  4294966600 |
|     221 | 0x61DE      |       25054 |
|     222 | 0x7FA3      |       32675 |
|     223 | 0x0AAE      |        2734 |
|     224 | 0xFFFFFDAC  |  4294966700 |
|     225 | 0xFFFFFE9F  |  4294966943 |
|     226 | 0x002F      |          47 |
|     227 | 0x108EC     |       67820 |
|     228 | 0x1BF8      |        7160 |
|     229 | 0x0BBE      |        3006 |
|     230 | 0x1096C     |       67948 |
|     231 | 0x22E8      |        8936 |
|     232 | 0x10B1D     |       68381 |
|     233 | 0x083D      |        2109 |
|     234 | 0xFFFEC32C  |  4294886188 |
|     235 | 0x5F98      |       24472 |
|     236 | 0xFFFE8658  |  4294870616 |
|     237 | 0x302A      |       12330 |
|     238 | 0xFFFEA8B6  |  4294879414 |
|     239 | 0x23C5      |        9157 |
|     240 | 0xFFFFFE70  |  4294966896 |
|     241 | 0xFFFE4AD1  |  4294855377 |
|     242 | 0x4055      |       16469 |
|     243 | 0x0FE9      |        4073 |
|     244 | 0xFFFE6C2D  |  4294863917 |
|     245 | 0x426C      |       17004 |
|     246 | 0xFFFEB794  |  4294883220 |
|     247 | 0x2B1D      |       11037 |
|     248 | 0x106D5     |       67285 |
|     249 | 0x155A      |        5466 |
|     250 | 0x107CC     |       67532 |
|     251 | 0x1984      |        6532 |
|     252 | 0x0095      |         149 |
|     253 | 0x0078      |         120 |
|     254 | 0x009F      |         159 |
|     255 | 0x0003      |           3 |
|     256 | 0x00A9      |         169 |
|     257 | 0x0004      |           4 |
|     258 | 0x00B3      |         179 |
|     259 | 0x00BD      |         189 |
|     260 | 0x00C7      |         199 |
|     261 | 0x00D1      |         209 |
|     262 | 0x17ED0     |       98000 |
|     263 | 0xFFFEFF34  |  4294901556 |
|     264 | 0xFFFF632A  |  4294927146 |
|     265 | 0x0403      |        1027 |
|     266 | 0x000F      |          15 |
|     267 | 0x177B4     |       96180 |
|     268 | 0xFFFEE206  |  4294894086 |
|     269 | 0xFFFF75FE  |  4294931966 |
|     270 | 0xFFFFA4CA  |  4294943946 |
|     271 | 0xFFFF5FD8  |  4294926296 |
|     272 | 0xFFFFB5C8  |  4294948296 |
|     273 | 0x10B94     |       68500 |
|     274 | 0xFFFFBEC4  |  4294950596 |
|     275 | 0x17A20     |       96800 |
|     276 | 0xFFFF1154  |  4294906196 |
|     277 | 0xFFFF5DE4  |  4294925796 |
|     278 | 0x17C14     |       97300 |
|     279 | 0xFFFF06C8  |  4294903496 |
|     280 | 0x1A3EC     |      107500 |
|     281 | 0xFFFF2B1C  |  4294912796 |
|     282 | 0xFFFFC950  |  4294953296 |
|     283 | 0x005A      |          90 |
|     284 | 0xFFFF1D70  |  4294909296 |
|     285 | 0xFFFFDCD8  |  4294958296 |
|     286 | 0x00B4      |         180 |
|     287 | 0x009A      |         154 |
|     288 | 0xFFFFF98B  |  4294965643 |
|     289 | 0x0B83      |        2947 |

## Events

### Event 65535

#### Metadata

| Field        | Value   |
|--------------|---------|
| Entrypoint   | 0x0000  |
| Data Size    | 1 bytes |
| Instructions | 1       |

```
      00 01 02 03 04 05 06 07  08 09 0A 0B 0C 0D 0E 0F
      -- -- -- -- -- -- -- --  -- -- -- -- -- -- -- --
0000: 00                                                .               
```

#### Opcodes

```
  0: 0x0000 [0x00] END_REQSTACK()
```

### Event 65534

#### Metadata

| Field        | Value   |
|--------------|---------|
| Entrypoint   | 0x0001  |
| Data Size    | 1 bytes |
| Instructions | 1       |

```
      00 01 02 03 04 05 06 07  08 09 0A 0B 0C 0D 0E 0F
      -- -- -- -- -- -- -- --  -- -- -- -- -- -- -- --
0000:    00                                              .              
```

#### Opcodes

```
  0: 0x0001 [0x00] END_REQSTACK()
```

### Event 65535.1

#### Metadata

| Field        | Value   |
|--------------|---------|
| Entrypoint   | 0x0002  |
| Data Size    | 6 bytes |
| Instructions | 2       |

```
      00 01 02 03 04 05 06 07  08 09 0A 0B 0C 0D 0E 0F
      -- -- -- -- -- -- -- --  -- -- -- -- -- -- -- --
0000:       03 02 10 07 7F 00                             ......        
```

#### Opcodes

```
  0: 0x0002 [0x03] Work_Zone[2] = Entity->Race
  1: 0x0007 [0x00] END_REQSTACK()
```

### Event 65535.2

#### Metadata

| Field        | Value   |
|--------------|---------|
| Entrypoint   | 0x0008  |
| Data Size    | 6 bytes |
| Instructions | 2       |

```
      00 01 02 03 04 05 06 07  08 09 0A 0B 0C 0D 0E 0F
      -- -- -- -- -- -- -- --  -- -- -- -- -- -- -- --
0000:                          03 02 10 0B 7F 00                ......  
```

#### Opcodes

```
  0: 0x0008 [0x03] Work_Zone[2] = (Entity->Render.Flags01 >> 25) & 1
  1: 0x000D [0x00] END_REQSTACK()
```

### Event 65535.3

#### Metadata

| Field        | Value    |
|--------------|----------|
| Entrypoint   | 0x000E   |
| Data Size    | 29 bytes |
| Instructions | 5        |

```
      00 01 02 03 04 05 06 07  08 09 0A 0B 0C 0D 0E 0F
      -- -- -- -- -- -- -- --  -- -- -- -- -- -- -- --
0000:                                            03 00                ..
0010: 00 07 7F 1A 99 03 07 01  00 00 80 66 01 00 F8 FF  ...........f....
0020: FF 7F F8 FF FF 7F 74 6C  6B 30 00                 ......tlk0.     
```

#### Opcodes

```
  0: 0x000E [0x03] ExtData[1]->WorkLocal[0] = Entity->Race
  1: 0x0013 [0x1A] CALL_SUBROUTINE(address=0x0399)
  2: 0x0016 [0x07] ExtData[1]->WorkLocal[1] += 9*
  3: 0x001B [0x66] LOAD_EXT_SCHEDULER_MAIN: Load scheduler "tlk0" with entities [EventEntity, EventEntity], work=ExtData[1]->WorkLocal[1]
  4: 0x002A [0x00] END_REQSTACK()
```

### Event 65535.4

#### Metadata

| Field        | Value    |
|--------------|----------|
| Entrypoint   | 0x002B   |
| Data Size    | 29 bytes |
| Instructions | 5        |

```
      00 01 02 03 04 05 06 07  08 09 0A 0B 0C 0D 0E 0F
      -- -- -- -- -- -- -- --  -- -- -- -- -- -- -- --
0020:                                   03 00 00 07 7F             .....
0030: 1A 99 03 07 01 00 00 80  66 01 00 F8 FF FF 7F F8  ........f.......
0040: FF FF 7F 74 6C 6B 31 00                           ...tlk1.        
```

#### Opcodes

```
  0: 0x002B [0x03] ExtData[1]->WorkLocal[0] = Entity->Race
  1: 0x0030 [0x1A] CALL_SUBROUTINE(address=0x0399)
  2: 0x0033 [0x07] ExtData[1]->WorkLocal[1] += 9*
  3: 0x0038 [0x66] LOAD_EXT_SCHEDULER_MAIN: Load scheduler "tlk1" with entities [EventEntity, EventEntity], work=ExtData[1]->WorkLocal[1]
  4: 0x0047 [0x00] END_REQSTACK()
```

### Event 65535.5

#### Metadata

| Field        | Value    |
|--------------|----------|
| Entrypoint   | 0x0048   |
| Data Size    | 37 bytes |
| Instructions | 5        |

```
      00 01 02 03 04 05 06 07  08 09 0A 0B 0C 0D 0E 0F
      -- -- -- -- -- -- -- --  -- -- -- -- -- -- -- --
0040:                          03 00 00 07 7F 1A 4F 03          ......O.
0050: 66 01 00 F8 FF FF 7F F8  FF FF 7F 73 68 61 30 53  f..........sha0S
0060: F8 FF FF 7F F8 FF FF 7F  73 68 61 30 00           ........sha0.   
```

#### Opcodes

```
  0: 0x0048 [0x03] ExtData[1]->WorkLocal[0] = Entity->Race
  1: 0x004D [0x1A] CALL_SUBROUTINE(address=0x034F)
  2: 0x0050 [0x66] LOAD_EXT_SCHEDULER_MAIN: Load scheduler "sha0" with entities [EventEntity, EventEntity], work=ExtData[1]->WorkLocal[1]
  3: 0x005F [0x53] WAIT_SCHEDULER_TASK: Wait for scheduler "sha0" with entities [EventEntity, EventEntity]
  4: 0x006C [0x00] END_REQSTACK()
```

### Event 65535.6

#### Metadata

| Field        | Value    |
|--------------|----------|
| Entrypoint   | 0x006D   |
| Data Size    | 37 bytes |
| Instructions | 5        |

```
      00 01 02 03 04 05 06 07  08 09 0A 0B 0C 0D 0E 0F
      -- -- -- -- -- -- -- --  -- -- -- -- -- -- -- --
0060:                                         03 00 00               ...
0070: 07 7F 1A 4F 03 66 01 00  F8 FF FF 7F F8 FF FF 7F  ...O.f..........
0080: 73 68 61 31 53 F8 FF FF  7F F8 FF FF 7F 73 68 61  sha1S........sha
0090: 31 00                                             1.              
```

#### Opcodes

```
  0: 0x006D [0x03] ExtData[1]->WorkLocal[0] = Entity->Race
  1: 0x0072 [0x1A] CALL_SUBROUTINE(address=0x034F)
  2: 0x0075 [0x66] LOAD_EXT_SCHEDULER_MAIN: Load scheduler "sha1" with entities [EventEntity, EventEntity], work=ExtData[1]->WorkLocal[1]
  3: 0x0084 [0x53] WAIT_SCHEDULER_TASK: Wait for scheduler "sha1" with entities [EventEntity, EventEntity]
  4: 0x0091 [0x00] END_REQSTACK()
```

### Event 65535.7

#### Metadata

| Field        | Value   |
|--------------|---------|
| Entrypoint   | 0x0092  |
| Data Size    | 7 bytes |
| Instructions | 3       |

```
      00 01 02 03 04 05 06 07  08 09 0A 0B 0C 0D 0E 0F
      -- -- -- -- -- -- -- --  -- -- -- -- -- -- -- --
0090:       AB 03 AC 01 01 80  00                         .......       
```

#### Opcodes

```
  0: 0x0092 [0xAB] EventEntity->Render.Flags0 ^= 0x20000 // Toggle bit 17
  1: 0x0094 [0xAC] EventEntity->StatusEvent = 1*
  2: 0x0098 [0x00] END_REQSTACK()
```

### Event 65535.8

#### Metadata

| Field        | Value   |
|--------------|---------|
| Entrypoint   | 0x0099  |
| Data Size    | 7 bytes |
| Instructions | 3       |

```
      00 01 02 03 04 05 06 07  08 09 0A 0B 0C 0D 0E 0F
      -- -- -- -- -- -- -- --  -- -- -- -- -- -- -- --
0090:                             AC 01 02 80 AB 04 00           .......
```

#### Opcodes

```
  0: 0x0099 [0xAC] EventEntity->StatusEvent = 0*
  1: 0x009D [0xAB] EventEntity->Render.Flags0 |= 0x40000 // Set bit 18
  2: 0x009F [0x00] END_REQSTACK()
```

### Event 65535.9

#### Metadata

| Field        | Value    |
|--------------|----------|
| Entrypoint   | 0x00A0   |
| Data Size    | 24 bytes |
| Instructions | 4        |

```
      00 01 02 03 04 05 06 07  08 09 0A 0B 0C 0D 0E 0F
      -- -- -- -- -- -- -- --  -- -- -- -- -- -- -- --
00A0: 03 00 00 07 7F 1A 4F 03  66 01 00 F8 FF FF 7F F8  ......O.f.......
00B0: FF FF 7F 74 68 6B 31 00                           ...thk1.        
```

#### Opcodes

```
  0: 0x00A0 [0x03] ExtData[1]->WorkLocal[0] = Entity->Race
  1: 0x00A5 [0x1A] CALL_SUBROUTINE(address=0x034F)
  2: 0x00A8 [0x66] LOAD_EXT_SCHEDULER_MAIN: Load scheduler "thk1" with entities [EventEntity, EventEntity], work=ExtData[1]->WorkLocal[1]
  3: 0x00B7 [0x00] END_REQSTACK()
```

### Event 65535.10

#### Metadata

| Field        | Value    |
|--------------|----------|
| Entrypoint   | 0x00B8   |
| Data Size    | 24 bytes |
| Instructions | 4        |

```
      00 01 02 03 04 05 06 07  08 09 0A 0B 0C 0D 0E 0F
      -- -- -- -- -- -- -- --  -- -- -- -- -- -- -- --
00B0:                          03 00 00 07 7F 1A 4F 03          ......O.
00C0: 66 01 00 F8 FF FF 7F F8  FF FF 7F 74 68 6B 32 00  f..........thk2.
```

#### Opcodes

```
  0: 0x00B8 [0x03] ExtData[1]->WorkLocal[0] = Entity->Race
  1: 0x00BD [0x1A] CALL_SUBROUTINE(address=0x034F)
  2: 0x00C0 [0x66] LOAD_EXT_SCHEDULER_MAIN: Load scheduler "thk2" with entities [EventEntity, EventEntity], work=ExtData[1]->WorkLocal[1]
  3: 0x00CF [0x00] END_REQSTACK()
```

### Event 65535.11

#### Metadata

| Field        | Value    |
|--------------|----------|
| Entrypoint   | 0x00D0   |
| Data Size    | 10 bytes |
| Instructions | 2        |

```
      00 01 02 03 04 05 06 07  08 09 0A 0B 0C 0D 0E 0F
      -- -- -- -- -- -- -- --  -- -- -- -- -- -- -- --
00D0: 6C F8 FF FF 7F 02 80 01  80 00                    l.........      
```

#### Opcodes

```
  0: 0x00D0 [0x6C] FADE_ENTITY_COLOR(entity_id=EventEntity, end_alpha=0*, fade_time=1*)
  1: 0x00D9 [0x00] END_REQSTACK()
```

### Event 65535.12

#### Metadata

| Field        | Value    |
|--------------|----------|
| Entrypoint   | 0x00DA   |
| Data Size    | 10 bytes |
| Instructions | 2        |

```
      00 01 02 03 04 05 06 07  08 09 0A 0B 0C 0D 0E 0F
      -- -- -- -- -- -- -- --  -- -- -- -- -- -- -- --
00D0:                                6C F8 FF FF 7F 03            l.....
00E0: 80 01 80 00                                       ....            
```

#### Opcodes

```
  0: 0x00DA [0x6C] FADE_ENTITY_COLOR(entity_id=EventEntity, end_alpha=128*, fade_time=1*)
  1: 0x00E3 [0x00] END_REQSTACK()
```

### Event 65535.13

#### Metadata

| Field        | Value    |
|--------------|----------|
| Entrypoint   | 0x00E4   |
| Data Size    | 14 bytes |
| Instructions | 4        |

```
      00 01 02 03 04 05 06 07  08 09 0A 0B 0C 0D 0E 0F
      -- -- -- -- -- -- -- --  -- -- -- -- -- -- -- --
00E0:             32 04 80 1F  00 05 80 06 80 07 80 1F      2...........
00F0: 01 00                                             ..              
```

#### Opcodes

```
  0: 0x00E4 [0x32] ExtData[1]->MainSpeed = 13* * 0.1
  1: 0x00E7 [0x1F] MOVE_ENTITY: EventEntity moves to X=-46.067*, Z=53.499*, Y=-0.148*
  2: 0x00EF [0x1F] MOVE_ENTITY: Update entity position (mode=1)
  3: 0x00F1 [0x00] END_REQSTACK()
```

### Event 65535.14

#### Metadata

| Field        | Value    |
|--------------|----------|
| Entrypoint   | 0x00F2   |
| Data Size    | 24 bytes |
| Instructions | 6        |

```
      00 01 02 03 04 05 06 07  08 09 0A 0B 0C 0D 0E 0F
      -- -- -- -- -- -- -- --  -- -- -- -- -- -- -- --
00F0:       32 04 80 1F 00 08  80 09 80 0A 80 1F 01 1F    2.............
0100: 00 0B 80 0C 80 0D 80 1F  01 00                    ..........      
```

#### Opcodes

```
  0: 0x00F2 [0x32] ExtData[1]->MainSpeed = 13* * 0.1
  1: 0x00F5 [0x1F] MOVE_ENTITY: EventEntity moves to X=-40.468*, Z=44.577*, Y=-0.649*
  2: 0x00FD [0x1F] MOVE_ENTITY: Update entity position (mode=1)
  3: 0x00FF [0x1F] MOVE_ENTITY: EventEntity moves to X=-40.236*, Z=39.931*, Y=1.349*
  4: 0x0107 [0x1F] MOVE_ENTITY: Update entity position (mode=1)
  5: 0x0109 [0x00] END_REQSTACK()
```

### Event 65535.15

#### Metadata

| Field        | Value    |
|--------------|----------|
| Entrypoint   | 0x010A   |
| Data Size    | 24 bytes |
| Instructions | 4        |

```
      00 01 02 03 04 05 06 07  08 09 0A 0B 0C 0D 0E 0F
      -- -- -- -- -- -- -- --  -- -- -- -- -- -- -- --
0100:                                03 00 00 07 7F 1A            ......
0110: 4F 03 66 01 00 F8 FF FF  7F F8 FF FF 7F 74 6C 6B  O.f..........tlk
0120: 30 00                                             0.              
```

#### Opcodes

```
  0: 0x010A [0x03] ExtData[1]->WorkLocal[0] = Entity->Race
  1: 0x010F [0x1A] CALL_SUBROUTINE(address=0x034F)
  2: 0x0112 [0x66] LOAD_EXT_SCHEDULER_MAIN: Load scheduler "tlk0" with entities [EventEntity, EventEntity], work=ExtData[1]->WorkLocal[1]
  3: 0x0121 [0x00] END_REQSTACK()
```

### Event 65535.16

#### Metadata

| Field        | Value    |
|--------------|----------|
| Entrypoint   | 0x0122   |
| Data Size    | 24 bytes |
| Instructions | 4        |

```
      00 01 02 03 04 05 06 07  08 09 0A 0B 0C 0D 0E 0F
      -- -- -- -- -- -- -- --  -- -- -- -- -- -- -- --
0120:       03 00 00 07 7F 1A  4F 03 66 01 00 F8 FF FF    ......O.f.....
0130: 7F F8 FF FF 7F 74 6C 6B  31 00                    .....tlk1.      
```

#### Opcodes

```
  0: 0x0122 [0x03] ExtData[1]->WorkLocal[0] = Entity->Race
  1: 0x0127 [0x1A] CALL_SUBROUTINE(address=0x034F)
  2: 0x012A [0x66] LOAD_EXT_SCHEDULER_MAIN: Load scheduler "tlk1" with entities [EventEntity, EventEntity], work=ExtData[1]->WorkLocal[1]
  3: 0x0139 [0x00] END_REQSTACK()
```

### Event 65535.17

#### Metadata

| Field        | Value    |
|--------------|----------|
| Entrypoint   | 0x013A   |
| Data Size    | 38 bytes |
| Instructions | 5        |

```
      00 01 02 03 04 05 06 07  08 09 0A 0B 0C 0D 0E 0F
      -- -- -- -- -- -- -- --  -- -- -- -- -- -- -- --
0130:                                22 00 2F 00 F8 FF            "./...
0140: FF 7F B6 0B 0E 80 0F 80  10 80 11 80 12 80 12 80  ................
0150: 12 80 13 80 14 80 6C F8  FF FF 7F 15 80 01 80 00  ......l.........
```

#### Opcodes

```
  0: 0x013A [0x22] ENTITY_HIDE_FLAG(enabled=0x00)
  1: 0x013C [0x2F] EventEntity->Render.Flags0 &= ~0x80000 // Bit 19
  2: 0x0142 [0xB6] ENTITY_APPEARANCE_HANDLER(case=Full entity look, race=8*, hair=7*, head=145*, body=79*, hands=76*, legs=76*, feet=76*, main=201*, sub=24*)
  3: 0x0156 [0x6C] FADE_ENTITY_COLOR(entity_id=EventEntity, end_alpha=32*, fade_time=1*)
  4: 0x015F [0x00] END_REQSTACK()
```

### Event 65535.18

#### Metadata

| Field        | Value    |
|--------------|----------|
| Entrypoint   | 0x0160   |
| Data Size    | 38 bytes |
| Instructions | 5        |

```
      00 01 02 03 04 05 06 07  08 09 0A 0B 0C 0D 0E 0F
      -- -- -- -- -- -- -- --  -- -- -- -- -- -- -- --
0160: 22 00 2F 00 F8 FF FF 7F  B6 0B 0F 80 0F 80 10 80  "./.............
0170: 11 80 12 80 12 80 12 80  13 80 14 80 6C F8 FF FF  ............l...
0180: 7F 16 80 01 80 00                                 ......          
```

#### Opcodes

```
  0: 0x0160 [0x22] ENTITY_HIDE_FLAG(enabled=0x00)
  1: 0x0162 [0x2F] EventEntity->Render.Flags0 &= ~0x80000 // Bit 19
  2: 0x0168 [0xB6] ENTITY_APPEARANCE_HANDLER(case=Full entity look, race=7*, hair=7*, head=145*, body=79*, hands=76*, legs=76*, feet=76*, main=201*, sub=24*)
  3: 0x017C [0x6C] FADE_ENTITY_COLOR(entity_id=EventEntity, end_alpha=48*, fade_time=1*)
  4: 0x0185 [0x00] END_REQSTACK()
```

### Event 65535.19

#### Metadata

| Field        | Value    |
|--------------|----------|
| Entrypoint   | 0x0186   |
| Data Size    | 38 bytes |
| Instructions | 5        |

```
      00 01 02 03 04 05 06 07  08 09 0A 0B 0C 0D 0E 0F
      -- -- -- -- -- -- -- --  -- -- -- -- -- -- -- --
0180:                   22 00  2F 00 F8 FF FF 7F B6 0B        "./.......
0190: 17 80 0F 80 10 80 11 80  12 80 12 80 12 80 13 80  ................
01A0: 14 80 6C F8 FF FF 7F 18  80 01 80 00              ..l.........    
```

#### Opcodes

```
  0: 0x0186 [0x22] ENTITY_HIDE_FLAG(enabled=0x00)
  1: 0x0188 [0x2F] EventEntity->Render.Flags0 &= ~0x80000 // Bit 19
  2: 0x018E [0xB6] ENTITY_APPEARANCE_HANDLER(case=Full entity look, race=5*, hair=7*, head=145*, body=79*, hands=76*, legs=76*, feet=76*, main=201*, sub=24*)
  3: 0x01A2 [0x6C] FADE_ENTITY_COLOR(entity_id=EventEntity, end_alpha=64*, fade_time=1*)
  4: 0x01AB [0x00] END_REQSTACK()
```

### Event 65535.20

#### Metadata

| Field        | Value    |
|--------------|----------|
| Entrypoint   | 0x01AC   |
| Data Size    | 37 bytes |
| Instructions | 5        |

```
      00 01 02 03 04 05 06 07  08 09 0A 0B 0C 0D 0E 0F
      -- -- -- -- -- -- -- --  -- -- -- -- -- -- -- --
01A0:                                      03 00 00 07              ....
01B0: 7F 1A 4F 03 66 01 00 F8  FF FF 7F F8 FF FF 7F 73  ..O.f..........s
01C0: 69 74 30 53 F8 FF FF 7F  F8 FF FF 7F 73 69 74 30  it0S........sit0
01D0: 00                                                .               
```

#### Opcodes

```
  0: 0x01AC [0x03] ExtData[1]->WorkLocal[0] = Entity->Race
  1: 0x01B1 [0x1A] CALL_SUBROUTINE(address=0x034F)
  2: 0x01B4 [0x66] LOAD_EXT_SCHEDULER_MAIN: Load scheduler "sit0" with entities [EventEntity, EventEntity], work=ExtData[1]->WorkLocal[1]
  3: 0x01C3 [0x53] WAIT_SCHEDULER_TASK: Wait for scheduler "sit0" with entities [EventEntity, EventEntity]
  4: 0x01D0 [0x00] END_REQSTACK()
```

### Event 65535.21

#### Metadata

| Field        | Value    |
|--------------|----------|
| Entrypoint   | 0x01D1   |
| Data Size    | 37 bytes |
| Instructions | 5        |

```
      00 01 02 03 04 05 06 07  08 09 0A 0B 0C 0D 0E 0F
      -- -- -- -- -- -- -- --  -- -- -- -- -- -- -- --
01D0:    03 00 00 07 7F 1A 4F  03 66 01 00 F8 FF FF 7F   ......O.f......
01E0: F8 FF FF 7F 73 69 74 31  53 F8 FF FF 7F F8 FF FF  ....sit1S.......
01F0: 7F 73 69 74 31 00                                 .sit1.          
```

#### Opcodes

```
  0: 0x01D1 [0x03] ExtData[1]->WorkLocal[0] = Entity->Race
  1: 0x01D6 [0x1A] CALL_SUBROUTINE(address=0x034F)
  2: 0x01D9 [0x66] LOAD_EXT_SCHEDULER_MAIN: Load scheduler "sit1" with entities [EventEntity, EventEntity], work=ExtData[1]->WorkLocal[1]
  3: 0x01E8 [0x53] WAIT_SCHEDULER_TASK: Wait for scheduler "sit1" with entities [EventEntity, EventEntity]
  4: 0x01F5 [0x00] END_REQSTACK()
```

### Event 65535.22

#### Metadata

| Field        | Value    |
|--------------|----------|
| Entrypoint   | 0x01F6   |
| Data Size    | 42 bytes |
| Instructions | 6        |

```
      00 01 02 03 04 05 06 07  08 09 0A 0B 0C 0D 0E 0F
      -- -- -- -- -- -- -- --  -- -- -- -- -- -- -- --
01F0:                   03 00  00 07 7F 1A 4F 03 66 01        ......O.f.
0200: 00 F8 FF FF 7F F8 FF FF  7F 74 6C 6B 30 1C 19 80  .........tlk0...
0210: 66 01 00 F8 FF FF 7F F8  FF FF 7F 74 6C 6B 31 00  f..........tlk1.
```

#### Opcodes

```
  0: 0x01F6 [0x03] ExtData[1]->WorkLocal[0] = Entity->Race
  1: 0x01FB [0x1A] CALL_SUBROUTINE(address=0x034F)
  2: 0x01FE [0x66] LOAD_EXT_SCHEDULER_MAIN: Load scheduler "tlk0" with entities [EventEntity, EventEntity], work=ExtData[1]->WorkLocal[1]
  3: 0x020D [0x1C] WAIT(60* ticks)
  4: 0x0210 [0x66] LOAD_EXT_SCHEDULER_MAIN: Load scheduler "tlk1" with entities [EventEntity, EventEntity], work=ExtData[1]->WorkLocal[1]
  5: 0x021F [0x00] END_REQSTACK()
```

### Event 65535.23

#### Metadata

| Field        | Value    |
|--------------|----------|
| Entrypoint   | 0x0220   |
| Data Size    | 29 bytes |
| Instructions | 5        |

```
      00 01 02 03 04 05 06 07  08 09 0A 0B 0C 0D 0E 0F
      -- -- -- -- -- -- -- --  -- -- -- -- -- -- -- --
0220: 03 00 00 07 7F 1A 74 03  07 01 00 01 80 66 01 00  ......t......f..
0230: F8 FF FF 7F F8 FF FF 7F  70 61 73 30 00           ........pas0.   
```

#### Opcodes

```
  0: 0x0220 [0x03] ExtData[1]->WorkLocal[0] = Entity->Race
  1: 0x0225 [0x1A] CALL_SUBROUTINE(address=0x0374)
  2: 0x0228 [0x07] ExtData[1]->WorkLocal[1] += 1*
  3: 0x022D [0x66] LOAD_EXT_SCHEDULER_MAIN: Load scheduler "pas0" with entities [EventEntity, EventEntity], work=ExtData[1]->WorkLocal[1]
  4: 0x023C [0x00] END_REQSTACK()
```

### Event 65535.24

#### Metadata

| Field        | Value    |
|--------------|----------|
| Entrypoint   | 0x023D   |
| Data Size    | 29 bytes |
| Instructions | 5        |

```
      00 01 02 03 04 05 06 07  08 09 0A 0B 0C 0D 0E 0F
      -- -- -- -- -- -- -- --  -- -- -- -- -- -- -- --
0230:                                         03 00 00               ...
0240: 07 7F 1A 74 03 07 01 00  0F 80 66 01 00 F8 FF FF  ...t......f.....
0250: 7F F8 FF FF 7F 62 6F 6F  30 00                    .....boo0.      
```

#### Opcodes

```
  0: 0x023D [0x03] ExtData[1]->WorkLocal[0] = Entity->Race
  1: 0x0242 [0x1A] CALL_SUBROUTINE(address=0x0374)
  2: 0x0245 [0x07] ExtData[1]->WorkLocal[1] += 7*
  3: 0x024A [0x66] LOAD_EXT_SCHEDULER_MAIN: Load scheduler "boo0" with entities [EventEntity, EventEntity], work=ExtData[1]->WorkLocal[1]
  4: 0x0259 [0x00] END_REQSTACK()
```

### Event 65535.25

#### Metadata

| Field        | Value    |
|--------------|----------|
| Entrypoint   | 0x025A   |
| Data Size    | 24 bytes |
| Instructions | 4        |

```
      00 01 02 03 04 05 06 07  08 09 0A 0B 0C 0D 0E 0F
      -- -- -- -- -- -- -- --  -- -- -- -- -- -- -- --
0250:                                03 00 00 07 7F 1A            ......
0260: 99 03 66 01 00 F8 FF FF  7F F8 FF FF 7F 6F 72 7A  ..f..........orz
0270: 30 00                                             0.              
```

#### Opcodes

```
  0: 0x025A [0x03] ExtData[1]->WorkLocal[0] = Entity->Race
  1: 0x025F [0x1A] CALL_SUBROUTINE(address=0x0399)
  2: 0x0262 [0x66] LOAD_EXT_SCHEDULER_MAIN: Load scheduler "orz0" with entities [EventEntity, EventEntity], work=ExtData[1]->WorkLocal[1]
  3: 0x0271 [0x00] END_REQSTACK()
```

### Event 65535.26

#### Metadata

| Field        | Value    |
|--------------|----------|
| Entrypoint   | 0x0272   |
| Data Size    | 27 bytes |
| Instructions | 5        |

```
      00 01 02 03 04 05 06 07  08 09 0A 0B 0C 0D 0E 0F
      -- -- -- -- -- -- -- --  -- -- -- -- -- -- -- --
0270:       03 00 00 07 7F 1A  74 03 0B 01 00 66 01 00    ......t....f..
0280: F8 FF FF 7F F8 FF FF 7F  70 61 73 30 00           ........pas0.   
```

#### Opcodes

```
  0: 0x0272 [0x03] ExtData[1]->WorkLocal[0] = Entity->Race
  1: 0x0277 [0x1A] CALL_SUBROUTINE(address=0x0374)
  2: 0x027A [0x0B] ExtData[1]->WorkLocal[1]++
  3: 0x027D [0x66] LOAD_EXT_SCHEDULER_MAIN: Load scheduler "pas0" with entities [EventEntity, EventEntity], work=ExtData[1]->WorkLocal[1]
  4: 0x028C [0x00] END_REQSTACK()
```

### Event 65535.27

#### Metadata

| Field        | Value    |
|--------------|----------|
| Entrypoint   | 0x028D   |
| Data Size    | 26 bytes |
| Instructions | 8        |

```
      00 01 02 03 04 05 06 07  08 09 0A 0B 0C 0D 0E 0F
      -- -- -- -- -- -- -- --  -- -- -- -- -- -- -- --
0280:                                         32 1A 80               2..
0290: 1F 00 1B 80 1C 80 1D 80  1F 01 6F 1E 90 10 10 01  ..........o.....
02A0: 6F 76 F8 FF FF 7F 00                              ov.....         
```

#### Opcodes

```
  0: 0x028D [0x32] ExtData[1]->MainSpeed = 12* * 0.1
  1: 0x0290 [0x1F] MOVE_ENTITY: EventEntity moves to X=97.133*, Z=-63.547*, Y=-40.148*
  2: 0x0298 [0x1F] MOVE_ENTITY: Update entity position (mode=1)
  3: 0x029A [0x6F] WAIT_FRAME_DELAY: Yield until WaitTime reaches zero
  4: 0x029B [0x1E] EventEntity looks at Arciela (ID: 17830032/0x01101090) and starts talking
  5: 0x02A0 [0x6F] WAIT_FRAME_DELAY: Yield until WaitTime reaches zero
  6: 0x02A1 [0x76] CHECK_ENTITY_RENDER_FLAGS: Wait until EventEntity Render.Flags0 and Render.Flags3 conditions are met
  7: 0x02A6 [0x00] END_REQSTACK()
```

### Event 65535.28

#### Metadata

| Field        | Value    |
|--------------|----------|
| Entrypoint   | 0x02A7   |
| Data Size    | 26 bytes |
| Instructions | 8        |

```
      00 01 02 03 04 05 06 07  08 09 0A 0B 0C 0D 0E 0F
      -- -- -- -- -- -- -- --  -- -- -- -- -- -- -- --
02A0:                      32  04 80 1F 00 1E 80 1F 80         2........
02B0: 20 80 1F 01 6F 1E 90 10  10 01 6F 76 F8 FF FF 7F   ...o.....ov....
02C0: 00                                                .               
```

#### Opcodes

```
  0: 0x02A7 [0x32] ExtData[1]->MainSpeed = 13* * 0.1
  1: 0x02AA [0x1F] MOVE_ENTITY: EventEntity moves to X=-0.767*, Z=12.455*, Y=-1.500*
  2: 0x02B2 [0x1F] MOVE_ENTITY: Update entity position (mode=1)
  3: 0x02B4 [0x6F] WAIT_FRAME_DELAY: Yield until WaitTime reaches zero
  4: 0x02B5 [0x1E] EventEntity looks at Arciela (ID: 17830032/0x01101090) and starts talking
  5: 0x02BA [0x6F] WAIT_FRAME_DELAY: Yield until WaitTime reaches zero
  6: 0x02BB [0x76] CHECK_ENTITY_RENDER_FLAGS: Wait until EventEntity Render.Flags0 and Render.Flags3 conditions are met
  7: 0x02C0 [0x00] END_REQSTACK()
```

### Event 65535.29

#### Metadata

| Field        | Value    |
|--------------|----------|
| Entrypoint   | 0x02C1   |
| Data Size    | 29 bytes |
| Instructions | 5        |

```
      00 01 02 03 04 05 06 07  08 09 0A 0B 0C 0D 0E 0F
      -- -- -- -- -- -- -- --  -- -- -- -- -- -- -- --
02C0:    03 00 00 07 7F 1A 99  03 07 01 00 01 80 66 01   .............f.
02D0: 00 F8 FF FF 7F F8 FF FF  7F 6F 6F 75 30 00        .........oou0.  
```

#### Opcodes

```
  0: 0x02C1 [0x03] ExtData[1]->WorkLocal[0] = Entity->Race
  1: 0x02C6 [0x1A] CALL_SUBROUTINE(address=0x0399)
  2: 0x02C9 [0x07] ExtData[1]->WorkLocal[1] += 1*
  3: 0x02CE [0x66] LOAD_EXT_SCHEDULER_MAIN: Load scheduler "oou0" with entities [EventEntity, EventEntity], work=ExtData[1]->WorkLocal[1]
  4: 0x02DD [0x00] END_REQSTACK()
```

### Event 65535.30

#### Metadata

| Field        | Value    |
|--------------|----------|
| Entrypoint   | 0x02DE   |
| Data Size    | 29 bytes |
| Instructions | 5        |

```
      00 01 02 03 04 05 06 07  08 09 0A 0B 0C 0D 0E 0F
      -- -- -- -- -- -- -- --  -- -- -- -- -- -- -- --
02D0:                                            03 00                ..
02E0: 00 07 7F 1A 99 03 07 01  00 01 80 66 01 00 F8 FF  ...........f....
02F0: FF 7F F8 FF FF 7F 6F 6F  75 32 00                 ......oou2.     
```

#### Opcodes

```
  0: 0x02DE [0x03] ExtData[1]->WorkLocal[0] = Entity->Race
  1: 0x02E3 [0x1A] CALL_SUBROUTINE(address=0x0399)
  2: 0x02E6 [0x07] ExtData[1]->WorkLocal[1] += 1*
  3: 0x02EB [0x66] LOAD_EXT_SCHEDULER_MAIN: Load scheduler "oou2" with entities [EventEntity, EventEntity], work=ExtData[1]->WorkLocal[1]
  4: 0x02FA [0x00] END_REQSTACK()
```

### Event 65535.31

#### Metadata

| Field        | Value    |
|--------------|----------|
| Entrypoint   | 0x02FB   |
| Data Size    | 29 bytes |
| Instructions | 5        |

```
      00 01 02 03 04 05 06 07  08 09 0A 0B 0C 0D 0E 0F
      -- -- -- -- -- -- -- --  -- -- -- -- -- -- -- --
02F0:                                   03 00 00 07 7F             .....
0300: 1A 99 03 07 01 00 01 80  66 01 00 F8 FF FF 7F F8  ........f.......
0310: FF FF 7F 6B 69 7A 30 00                           ...kiz0.        
```

#### Opcodes

```
  0: 0x02FB [0x03] ExtData[1]->WorkLocal[0] = Entity->Race
  1: 0x0300 [0x1A] CALL_SUBROUTINE(address=0x0399)
  2: 0x0303 [0x07] ExtData[1]->WorkLocal[1] += 1*
  3: 0x0308 [0x66] LOAD_EXT_SCHEDULER_MAIN: Load scheduler "kiz0" with entities [EventEntity, EventEntity], work=ExtData[1]->WorkLocal[1]
  4: 0x0317 [0x00] END_REQSTACK()
```

### Event 65535.32

#### Metadata

| Field        | Value    |
|--------------|----------|
| Entrypoint   | 0x0318   |
| Data Size    | 15 bytes |
| Instructions | 5        |

```
      00 01 02 03 04 05 06 07  08 09 0A 0B 0C 0D 0E 0F
      -- -- -- -- -- -- -- --  -- -- -- -- -- -- -- --
0310:                          32 21 80 1F 00 22 80 23          2!...".#
0320: 80 20 80 1F 01 6F 00                              . ...o.         
```

#### Opcodes

```
  0: 0x0318 [0x32] ExtData[1]->MainSpeed = 10* * 0.1
  1: 0x031B [0x1F] MOVE_ENTITY: EventEntity moves to X=-5.283*, Z=-14.009*, Y=-1.500*
  2: 0x0323 [0x1F] MOVE_ENTITY: Update entity position (mode=1)
  3: 0x0325 [0x6F] WAIT_FRAME_DELAY: Yield until WaitTime reaches zero
  4: 0x0326 [0x00] END_REQSTACK()
```

### Event 65535.33

#### Metadata

| Field        | Value    |
|--------------|----------|
| Entrypoint   | 0x0327   |
| Data Size    | 22 bytes |
| Instructions | 6        |

```
      00 01 02 03 04 05 06 07  08 09 0A 0B 0C 0D 0E 0F
      -- -- -- -- -- -- -- --  -- -- -- -- -- -- -- --
0320:                      32  21 80 1F 00 24 80 25 80         2!...$.%.
0330: 20 80 1F 01 6F 4B F8 FF  FF 7F 02 80 00            ...oK.......   
```

#### Opcodes

```
  0: 0x0327 [0x32] ExtData[1]->MainSpeed = 10* * 0.1
  1: 0x032A [0x1F] MOVE_ENTITY: EventEntity moves to X=-2.962*, Z=-14.886*, Y=-1.500*
  2: 0x0332 [0x1F] MOVE_ENTITY: Update entity position (mode=1)
  3: 0x0334 [0x6F] WAIT_FRAME_DELAY: Yield until WaitTime reaches zero
  4: 0x0335 [0x4B] UPDATE_ENTITY_YAW(entity=EventEntity, yaw=0.0*)
  5: 0x033C [0x00] END_REQSTACK()
```

### Event 65535.34

#### Metadata

| Field        | Value     |
|--------------|-----------|
| Entrypoint   | 0x033D    |
| Data Size    | 166 bytes |
| Instructions | 6         |

```
      00 01 02 03 04 05 06 07  08 09 0A 0B 0C 0D 0E 0F
      -- -- -- -- -- -- -- --  -- -- -- -- -- -- -- --
0330:                                         1C 19 80               ...
0340: 32 04 80 1F 00 02 80 26  80 20 80 1F 01 6F 00 03  2......&. ...o..
0350: 01 00 00 00 02 01 00 17  80 05 64 03 08 01 00 01  ..........d.....
0360: 80 01 69 03 08 01 00 27  80 14 01 00 21 80 07 01  ..i....'....!...
0370: 00 00 80 1B 03 01 00 00  00 02 01 00 17 80 05 89  ................
0380: 03 08 01 00 01 80 01 8E  03 08 01 00 27 80 14 01  ............'...
0390: 00 21 80 07 01 00 28 80  1B 03 01 00 00 00 02 01  .!....(.........
03A0: 00 17 80 05 AE 03 08 01  00 01 80 01 B3 03 08 01  ................
03B0: 00 27 80 14 01 00 21 80  07 01 00 29 80 1B 03 01  .'....!....)....
03C0: 00 00 00 02 01 00 17 80  05 D3 03 08 01 00 01 80  ................
03D0: 01 D8 03 08 01 00 27 80  14 01 00 21 80 07 01 00  ......'....!....
03E0: 2A 80 1B                                          *..             
```

#### Opcodes

```
  0: 0x033D [0x1C] WAIT(60* ticks)
  1: 0x0340 [0x32] ExtData[1]->MainSpeed = 13* * 0.1
  2: 0x0343 [0x1F] MOVE_ENTITY: EventEntity moves to X=0.000*, Z=-17.000*, Y=-1.500*
  3: 0x034B [0x1F] MOVE_ENTITY: Update entity position (mode=1)
  4: 0x034D [0x6F] WAIT_FRAME_DELAY: Yield until WaitTime reaches zero
  5: 0x034E [0x00] END_REQSTACK()
```

#### Data or dead code:

```
# Dead code (unreachable instructions):
     0x034F [0x03] ExtData[1]->WorkLocal[1] = ExtData[1]->WorkLocal[0]
     0x0354 [0x02] IF !(ExtData[1]->WorkLocal[1] > 5*) GOTO 0x0364
     0x035C [0x08] ExtData[1]->WorkLocal[1] -= 1*
     0x0361 [0x01] GOTO 0x0369
     0x0364 [0x08] ExtData[1]->WorkLocal[1] -= 2*
     0x0369 [0x14] ExtData[1]->WorkLocal[1] *= 10*
     0x036E [0x07] ExtData[1]->WorkLocal[1] += 9*
     0x0373 [0x1B] RETURN
     0x0374 [0x03] ExtData[1]->WorkLocal[1] = ExtData[1]->WorkLocal[0]
     0x0379 [0x02] IF !(ExtData[1]->WorkLocal[1] > 5*) GOTO 0x0389
     0x0381 [0x08] ExtData[1]->WorkLocal[1] -= 1*
     0x0386 [0x01] GOTO 0x038E
     0x0389 [0x08] ExtData[1]->WorkLocal[1] -= 2*
     0x038E [0x14] ExtData[1]->WorkLocal[1] *= 10*
     0x0393 [0x07] ExtData[1]->WorkLocal[1] += 70*
     0x0398 [0x1B] RETURN
     0x0399 [0x03] ExtData[1]->WorkLocal[1] = ExtData[1]->WorkLocal[0]
     0x039E [0x02] IF !(ExtData[1]->WorkLocal[1] > 5*) GOTO 0x03AE
     0x03A6 [0x08] ExtData[1]->WorkLocal[1] -= 1*
     0x03AB [0x01] GOTO 0x03B3
     0x03AE [0x08] ExtData[1]->WorkLocal[1] -= 2*
     0x03B3 [0x14] ExtData[1]->WorkLocal[1] *= 10*
     0x03B8 [0x07] ExtData[1]->WorkLocal[1] += 140*
     0x03BD [0x1B] RETURN
     0x03BE [0x03] ExtData[1]->WorkLocal[1] = ExtData[1]->WorkLocal[0]
     0x03C3 [0x02] IF !(ExtData[1]->WorkLocal[1] > 5*) GOTO 0x03D3
     0x03CB [0x08] ExtData[1]->WorkLocal[1] -= 1*
     0x03D0 [0x01] GOTO 0x03D8
     0x03D3 [0x08] ExtData[1]->WorkLocal[1] -= 2*
     0x03D8 [0x14] ExtData[1]->WorkLocal[1] *= 10*
     0x03DD [0x07] ExtData[1]->WorkLocal[1] += 210*
     0x03E2 [0x1B] RETURN
```

### Event 65535.35

#### Metadata

| Field        | Value    |
|--------------|----------|
| Entrypoint   | 0x03E3   |
| Data Size    | 14 bytes |
| Instructions | 4        |

```
      00 01 02 03 04 05 06 07  08 09 0A 0B 0C 0D 0E 0F
      -- -- -- -- -- -- -- --  -- -- -- -- -- -- -- --
03E0:          32 04 80 1F 00  2B 80 2C 80 02 80 1F 01     2....+.,.....
03F0: 00                                                .               
```

#### Opcodes

```
  0: 0x03E3 [0x32] ExtData[1]->MainSpeed = 13* * 0.1
  1: 0x03E6 [0x1F] MOVE_ENTITY: EventEntity moves to X=0.156*, Z=-14.999*, Y=0.000*
  2: 0x03EE [0x1F] MOVE_ENTITY: Update entity position (mode=1)
  3: 0x03F0 [0x00] END_REQSTACK()
```

### Event 65535.36

#### Metadata

| Field        | Value    |
|--------------|----------|
| Entrypoint   | 0x03F1   |
| Data Size    | 29 bytes |
| Instructions | 6        |

```
      00 01 02 03 04 05 06 07  08 09 0A 0B 0C 0D 0E 0F
      -- -- -- -- -- -- -- --  -- -- -- -- -- -- -- --
03F0:    32 04 80 1F 00 2D 80  2E 80 02 80 1F 01 1E B9   2....-.........
0400: 10 10 01 79 00 F0 FF FF  7F BB 10 10 01 00        ...y..........  
```

#### Opcodes

```
  0: 0x03F1 [0x32] ExtData[1]->MainSpeed = 13* * 0.1
  1: 0x03F4 [0x1F] MOVE_ENTITY: EventEntity moves to X=-1.476*, Z=-22.703*, Y=0.000*
  2: 0x03FC [0x1F] MOVE_ENTITY: Update entity position (mode=1)
  3: 0x03FE [0x1E] EventEntity looks at Yvermain (ID: 17830073/0x011010B9) and starts talking
  4: 0x0403 [0x79] LocalPlayer looks at Dworvigg (ID: 17830075/0x011010BB) (Basic look)
  5: 0x040D [0x00] END_REQSTACK()
```

### Event 65535.37

#### Metadata

| Field        | Value    |
|--------------|----------|
| Entrypoint   | 0x040E   |
| Data Size    | 14 bytes |
| Instructions | 4        |

```
      00 01 02 03 04 05 06 07  08 09 0A 0B 0C 0D 0E 0F
      -- -- -- -- -- -- -- --  -- -- -- -- -- -- -- --
0400:                                            32 04                2.
0410: 80 1F 00 2F 80 30 80 02  80 1F 01 00              .../.0......    
```

#### Opcodes

```
  0: 0x040E [0x32] ExtData[1]->MainSpeed = 13* * 0.1
  1: 0x0411 [0x1F] MOVE_ENTITY: EventEntity moves to X=0.942*, Z=-11.950*, Y=0.000*
  2: 0x0419 [0x1F] MOVE_ENTITY: Update entity position (mode=1)
  3: 0x041B [0x00] END_REQSTACK()
```

### Event 65535.38

#### Metadata

| Field        | Value    |
|--------------|----------|
| Entrypoint   | 0x041C   |
| Data Size    | 14 bytes |
| Instructions | 4        |

```
      00 01 02 03 04 05 06 07  08 09 0A 0B 0C 0D 0E 0F
      -- -- -- -- -- -- -- --  -- -- -- -- -- -- -- --
0410:                                      32 04 80 1F              2...
0420: 00 31 80 32 80 33 80 1F  01 00                    .1.2.3....      
```

#### Opcodes

```
  0: 0x041C [0x32] ExtData[1]->MainSpeed = 13* * 0.1
  1: 0x041F [0x1F] MOVE_ENTITY: EventEntity moves to X=68.181*, Z=-16.003*, Y=-40.000*
  2: 0x0427 [0x1F] MOVE_ENTITY: Update entity position (mode=1)
  3: 0x0429 [0x00] END_REQSTACK()
```

### Event 65535.39

#### Metadata

| Field        | Value    |
|--------------|----------|
| Entrypoint   | 0x042A   |
| Data Size    | 18 bytes |
| Instructions | 6        |

```
      00 01 02 03 04 05 06 07  08 09 0A 0B 0C 0D 0E 0F
      -- -- -- -- -- -- -- --  -- -- -- -- -- -- -- --
0420:                                32 00 80 1F 00 34            2....4
0430: 80 35 80 36 80 1F 01 6F  32 37 80 00              .5.6...o27..    
```

#### Opcodes

```
  0: 0x042A [0x32] ExtData[1]->MainSpeed = 9* * 0.1
  1: 0x042D [0x1F] MOVE_ENTITY: EventEntity moves to X=98.161*, Z=-63.914*, Y=-40.147*
  2: 0x0435 [0x1F] MOVE_ENTITY: Update entity position (mode=1)
  3: 0x0437 [0x6F] WAIT_FRAME_DELAY: Yield until WaitTime reaches zero
  4: 0x0438 [0x32] ExtData[1]->MainSpeed = 40* * 0.1
  5: 0x043B [0x00] END_REQSTACK()
```

### Event 65535.40

#### Metadata

| Field        | Value    |
|--------------|----------|
| Entrypoint   | 0x043C   |
| Data Size    | 19 bytes |
| Instructions | 5        |

```
      00 01 02 03 04 05 06 07  08 09 0A 0B 0C 0D 0E 0F
      -- -- -- -- -- -- -- --  -- -- -- -- -- -- -- --
0430:                                      32 04 80 1F              2...
0440: 00 38 80 39 80 02 80 1F  01 1E 99 10 10 01 00     .8.9........... 
```

#### Opcodes

```
  0: 0x043C [0x32] ExtData[1]->MainSpeed = 13* * 0.1
  1: 0x043F [0x1F] MOVE_ENTITY: EventEntity moves to X=-81.409*, Z=24.343*, Y=0.000*
  2: 0x0447 [0x1F] MOVE_ENTITY: Update entity position (mode=1)
  3: 0x0449 [0x1E] EventEntity looks at Gratzigg (ID: 17830041/0x01101099) and starts talking
  4: 0x044E [0x00] END_REQSTACK()
```

### Event 65535.41

#### Metadata

| Field        | Value    |
|--------------|----------|
| Entrypoint   | 0x044F   |
| Data Size    | 14 bytes |
| Instructions | 4        |

```
      00 01 02 03 04 05 06 07  08 09 0A 0B 0C 0D 0E 0F
      -- -- -- -- -- -- -- --  -- -- -- -- -- -- -- --
0440:                                               32                 2
0450: 04 80 1F 00 3A 80 3B 80  1D 80 1F 01 00           ....:.;......   
```

#### Opcodes

```
  0: 0x044F [0x32] ExtData[1]->MainSpeed = 13* * 0.1
  1: 0x0452 [0x1F] MOVE_ENTITY: EventEntity moves to X=105.141*, Z=-64.295*, Y=-40.148*
  2: 0x045A [0x1F] MOVE_ENTITY: Update entity position (mode=1)
  3: 0x045C [0x00] END_REQSTACK()
```

### Event 65535.42

#### Metadata

| Field        | Value    |
|--------------|----------|
| Entrypoint   | 0x045D   |
| Data Size    | 14 bytes |
| Instructions | 4        |

```
      00 01 02 03 04 05 06 07  08 09 0A 0B 0C 0D 0E 0F
      -- -- -- -- -- -- -- --  -- -- -- -- -- -- -- --
0450:                                         32 37 80               27.
0460: 1F 00 3C 80 3D 80 3E 80  1F 01 00                 ..<.=.>....     
```

#### Opcodes

```
  0: 0x045D [0x32] ExtData[1]->MainSpeed = 40* * 0.1
  1: 0x0460 [0x1F] MOVE_ENTITY: EventEntity moves to X=-0.797*, Z=24.644*, Y=-1.499*
  2: 0x0468 [0x1F] MOVE_ENTITY: Update entity position (mode=1)
  3: 0x046A [0x00] END_REQSTACK()
```

### Event 65535.43

#### Metadata

| Field        | Value    |
|--------------|----------|
| Entrypoint   | 0x046B   |
| Data Size    | 14 bytes |
| Instructions | 4        |

```
      00 01 02 03 04 05 06 07  08 09 0A 0B 0C 0D 0E 0F
      -- -- -- -- -- -- -- --  -- -- -- -- -- -- -- --
0460:                                   32 37 80 1F 00             27...
0470: 3F 80 40 80 41 80 1F 01  00                       ?.@.A....       
```

#### Opcodes

```
  0: 0x046B [0x32] ExtData[1]->MainSpeed = 40* * 0.1
  1: 0x046E [0x1F] MOVE_ENTITY: EventEntity moves to X=-57.155*, Z=-15.080*, Y=-0.500*
  2: 0x0476 [0x1F] MOVE_ENTITY: Update entity position (mode=1)
  3: 0x0478 [0x00] END_REQSTACK()
```

### Event 65535.44

#### Metadata

| Field        | Value    |
|--------------|----------|
| Entrypoint   | 0x0479   |
| Data Size    | 17 bytes |
| Instructions | 5        |

```
      00 01 02 03 04 05 06 07  08 09 0A 0B 0C 0D 0E 0F
      -- -- -- -- -- -- -- --  -- -- -- -- -- -- -- --
0470:                             32 37 80 1F 00 42 80           27...B.
0480: 43 80 41 80 1F 01 1C 44  80 00                    C.A....D..      
```

#### Opcodes

```
  0: 0x0479 [0x32] ExtData[1]->MainSpeed = 40* * 0.1
  1: 0x047C [0x1F] MOVE_ENTITY: EventEntity moves to X=-60.393*, Z=-15.812*, Y=-0.500*
  2: 0x0484 [0x1F] MOVE_ENTITY: Update entity position (mode=1)
  3: 0x0486 [0x1C] WAIT(30* ticks)
  4: 0x0489 [0x00] END_REQSTACK()
```

### Event 65535.45

#### Metadata

| Field        | Value    |
|--------------|----------|
| Entrypoint   | 0x048A   |
| Data Size    | 14 bytes |
| Instructions | 4        |

```
      00 01 02 03 04 05 06 07  08 09 0A 0B 0C 0D 0E 0F
      -- -- -- -- -- -- -- --  -- -- -- -- -- -- -- --
0480:                                32 37 80 1F 00 45            27...E
0490: 80 46 80 41 80 1F 01 00                           .F.A....        
```

#### Opcodes

```
  0: 0x048A [0x32] ExtData[1]->MainSpeed = 40* * 0.1
  1: 0x048D [0x1F] MOVE_ENTITY: EventEntity moves to X=-52.928*, Z=-15.054*, Y=-0.500*
  2: 0x0495 [0x1F] MOVE_ENTITY: Update entity position (mode=1)
  3: 0x0497 [0x00] END_REQSTACK()
```

### Event 65535.46

#### Metadata

| Field        | Value   |
|--------------|---------|
| Entrypoint   | 0x0498  |
| Data Size    | 5 bytes |
| Instructions | 2       |

```
      00 01 02 03 04 05 06 07  08 09 0A 0B 0C 0D 0E 0F
      -- -- -- -- -- -- -- --  -- -- -- -- -- -- -- --
0490:                          B6 0F 47 80 00                   ..G..   
```

#### Opcodes

```
  0: 0x0498 [0xB6] ENTITY_APPEARANCE_HANDLER(case=Model size, value=87*)
  1: 0x049C [0x00] END_REQSTACK()
```

### Event 65535.47

#### Metadata

| Field        | Value   |
|--------------|---------|
| Entrypoint   | 0x049D  |
| Data Size    | 5 bytes |
| Instructions | 2       |

```
      00 01 02 03 04 05 06 07  08 09 0A 0B 0C 0D 0E 0F
      -- -- -- -- -- -- -- --  -- -- -- -- -- -- -- --
0490:                                         B6 0F 48               ..H
04A0: 80 00                                             ..              
```

#### Opcodes

```
  0: 0x049D [0xB6] ENTITY_APPEARANCE_HANDLER(case=Model size, value=93*)
  1: 0x04A1 [0x00] END_REQSTACK()
```

### Event 65535.48

#### Metadata

| Field        | Value   |
|--------------|---------|
| Entrypoint   | 0x04A2  |
| Data Size    | 5 bytes |
| Instructions | 2       |

```
      00 01 02 03 04 05 06 07  08 09 0A 0B 0C 0D 0E 0F
      -- -- -- -- -- -- -- --  -- -- -- -- -- -- -- --
04A0:       B6 0F 49 80 00                                ..I..         
```

#### Opcodes

```
  0: 0x04A2 [0xB6] ENTITY_APPEARANCE_HANDLER(case=Model size, value=96*)
  1: 0x04A6 [0x00] END_REQSTACK()
```

### Event 65535.49

#### Metadata

| Field        | Value   |
|--------------|---------|
| Entrypoint   | 0x04A7  |
| Data Size    | 5 bytes |
| Instructions | 2       |

```
      00 01 02 03 04 05 06 07  08 09 0A 0B 0C 0D 0E 0F
      -- -- -- -- -- -- -- --  -- -- -- -- -- -- -- --
04A0:                      B6  0F 4A 80 00                     ..J..    
```

#### Opcodes

```
  0: 0x04A7 [0xB6] ENTITY_APPEARANCE_HANDLER(case=Model size, value=100*)
  1: 0x04AB [0x00] END_REQSTACK()
```

### Event 65535.50

#### Metadata

| Field        | Value    |
|--------------|----------|
| Entrypoint   | 0x04AC   |
| Data Size    | 14 bytes |
| Instructions | 4        |

```
      00 01 02 03 04 05 06 07  08 09 0A 0B 0C 0D 0E 0F
      -- -- -- -- -- -- -- --  -- -- -- -- -- -- -- --
04A0:                                      32 04 80 1F              2...
04B0: 00 4B 80 4C 80 3E 80 1F  01 00                    .K.L.>....      
```

#### Opcodes

```
  0: 0x04AC [0x32] ExtData[1]->MainSpeed = 13* * 0.1
  1: 0x04AF [0x1F] MOVE_ENTITY: EventEntity moves to X=-0.475*, Z=13.003*, Y=-1.499*
  2: 0x04B7 [0x1F] MOVE_ENTITY: Update entity position (mode=1)
  3: 0x04B9 [0x00] END_REQSTACK()
```

### Event 65535.51

#### Metadata

| Field        | Value    |
|--------------|----------|
| Entrypoint   | 0x04BA   |
| Data Size    | 14 bytes |
| Instructions | 4        |

```
      00 01 02 03 04 05 06 07  08 09 0A 0B 0C 0D 0E 0F
      -- -- -- -- -- -- -- --  -- -- -- -- -- -- -- --
04B0:                                32 04 80 1F 00 4D            2....M
04C0: 80 4E 80 41 80 1F 01 00                           .N.A....        
```

#### Opcodes

```
  0: 0x04BA [0x32] ExtData[1]->MainSpeed = 13* * 0.1
  1: 0x04BD [0x1F] MOVE_ENTITY: EventEntity moves to X=-55.092*, Z=-14.852*, Y=-0.500*
  2: 0x04C5 [0x1F] MOVE_ENTITY: Update entity position (mode=1)
  3: 0x04C7 [0x00] END_REQSTACK()
```

### Event 65535.52

#### Metadata

| Field        | Value    |
|--------------|----------|
| Entrypoint   | 0x04C8   |
| Data Size    | 22 bytes |
| Instructions | 6        |

```
      00 01 02 03 04 05 06 07  08 09 0A 0B 0C 0D 0E 0F
      -- -- -- -- -- -- -- --  -- -- -- -- -- -- -- --
04C0:                          32 04 80 1F 00 4F 80 50          2....O.P
04D0: 80 41 80 1F 01 1E 9E 10  10 01 1C 44 80 00        .A.........D..  
```

#### Opcodes

```
  0: 0x04C8 [0x32] ExtData[1]->MainSpeed = 13* * 0.1
  1: 0x04CB [0x1F] MOVE_ENTITY: EventEntity moves to X=-62.960*, Z=-8.977*, Y=-0.500*
  2: 0x04D3 [0x1F] MOVE_ENTITY: Update entity position (mode=1)
  3: 0x04D5 [0x1E] EventEntity looks at Ingrid (ID: 17830046/0x0110109E) and starts talking
  4: 0x04DA [0x1C] WAIT(30* ticks)
  5: 0x04DD [0x00] END_REQSTACK()
```

### Event 65535.53

#### Metadata

| Field        | Value    |
|--------------|----------|
| Entrypoint   | 0x04DE   |
| Data Size    | 19 bytes |
| Instructions | 5        |

```
      00 01 02 03 04 05 06 07  08 09 0A 0B 0C 0D 0E 0F
      -- -- -- -- -- -- -- --  -- -- -- -- -- -- -- --
04D0:                                            32 04                2.
04E0: 80 1F 00 51 80 52 80 02  80 1F 01 1E 90 10 10 01  ...Q.R..........
04F0: 00                                                .               
```

#### Opcodes

```
  0: 0x04DE [0x32] ExtData[1]->MainSpeed = 13* * 0.1
  1: 0x04E1 [0x1F] MOVE_ENTITY: EventEntity moves to X=-44.434*, Z=-5.101*, Y=0.000*
  2: 0x04E9 [0x1F] MOVE_ENTITY: Update entity position (mode=1)
  3: 0x04EB [0x1E] EventEntity looks at Arciela (ID: 17830032/0x01101090) and starts talking
  4: 0x04F0 [0x00] END_REQSTACK()
```

### Event 65535.54

#### Metadata

| Field        | Value    |
|--------------|----------|
| Entrypoint   | 0x04F1   |
| Data Size    | 22 bytes |
| Instructions | 6        |

```
      00 01 02 03 04 05 06 07  08 09 0A 0B 0C 0D 0E 0F
      -- -- -- -- -- -- -- --  -- -- -- -- -- -- -- --
04F0:    32 04 80 1F 00 53 80  54 80 02 80 1F 01 1E AC   2....S.T.......
0500: 10 10 01 1C 44 80 00                              ....D..         
```

#### Opcodes

```
  0: 0x04F1 [0x32] ExtData[1]->MainSpeed = 13* * 0.1
  1: 0x04F4 [0x1F] MOVE_ENTITY: EventEntity moves to X=0.658*, Z=-1.195*, Y=0.000*
  2: 0x04FC [0x1F] MOVE_ENTITY: Update entity position (mode=1)
  3: 0x04FE [0x1E] EventEntity looks at Unnamed NPC (ID: 17830060/0x011010AC) and starts talking
  4: 0x0503 [0x1C] WAIT(30* ticks)
  5: 0x0506 [0x00] END_REQSTACK()
```

### Event 65535.55

#### Metadata

| Field        | Value    |
|--------------|----------|
| Entrypoint   | 0x0507   |
| Data Size    | 22 bytes |
| Instructions | 6        |

```
      00 01 02 03 04 05 06 07  08 09 0A 0B 0C 0D 0E 0F
      -- -- -- -- -- -- -- --  -- -- -- -- -- -- -- --
0500:                      32  04 80 1F 00 55 80 56 80         2....U.V.
0510: 02 80 1F 01 1E AF 10 10  01 1C 44 80 00           ..........D..   
```

#### Opcodes

```
  0: 0x0507 [0x32] ExtData[1]->MainSpeed = 13* * 0.1
  1: 0x050A [0x1F] MOVE_ENTITY: EventEntity moves to X=0.980*, Z=-2.325*, Y=0.000*
  2: 0x0512 [0x1F] MOVE_ENTITY: Update entity position (mode=1)
  3: 0x0514 [0x1E] EventEntity looks at Pollimio (ID: 17830063/0x011010AF) and starts talking
  4: 0x0519 [0x1C] WAIT(30* ticks)
  5: 0x051C [0x00] END_REQSTACK()
```

### Event 65535.56

#### Metadata

| Field        | Value    |
|--------------|----------|
| Entrypoint   | 0x051D   |
| Data Size    | 14 bytes |
| Instructions | 4        |

```
      00 01 02 03 04 05 06 07  08 09 0A 0B 0C 0D 0E 0F
      -- -- -- -- -- -- -- --  -- -- -- -- -- -- -- --
0510:                                         32 04 80               2..
0520: 1F 00 57 80 58 80 59 80  1F 01 00                 ..W.X.Y....     
```

#### Opcodes

```
  0: 0x051D [0x32] ExtData[1]->MainSpeed = 13* * 0.1
  1: 0x0520 [0x1F] MOVE_ENTITY: EventEntity moves to X=-61.194*, Z=-16.567*, Y=-0.074*
  2: 0x0528 [0x1F] MOVE_ENTITY: Update entity position (mode=1)
  3: 0x052A [0x00] END_REQSTACK()
```

### Event 65535.57

#### Metadata

| Field        | Value    |
|--------------|----------|
| Entrypoint   | 0x052B   |
| Data Size    | 19 bytes |
| Instructions | 5        |

```
      00 01 02 03 04 05 06 07  08 09 0A 0B 0C 0D 0E 0F
      -- -- -- -- -- -- -- --  -- -- -- -- -- -- -- --
0520:                                   32 04 80 1F 00             2....
0530: 34 80 35 80 36 80 1F 01  1E A0 10 10 01 00        4.5.6.........  
```

#### Opcodes

```
  0: 0x052B [0x32] ExtData[1]->MainSpeed = 13* * 0.1
  1: 0x052E [0x1F] MOVE_ENTITY: EventEntity moves to X=98.161*, Z=-63.914*, Y=-40.147*
  2: 0x0536 [0x1F] MOVE_ENTITY: Update entity position (mode=1)
  3: 0x0538 [0x1E] EventEntity looks at Unnamed NPC (ID: 17830048/0x011010A0) and starts talking
  4: 0x053D [0x00] END_REQSTACK()
```

### Event 65535.58

#### Metadata

| Field        | Value    |
|--------------|----------|
| Entrypoint   | 0x053E   |
| Data Size    | 22 bytes |
| Instructions | 6        |

```
      00 01 02 03 04 05 06 07  08 09 0A 0B 0C 0D 0E 0F
      -- -- -- -- -- -- -- --  -- -- -- -- -- -- -- --
0530:                                            32 04                2.
0540: 80 1F 00 5A 80 5B 80 5C  80 1F 01 1E 92 10 10 01  ...Z.[.\........
0550: 1C 44 80 00                                       .D..            
```

#### Opcodes

```
  0: 0x053E [0x32] ExtData[1]->MainSpeed = 13* * 0.1
  1: 0x0541 [0x1F] MOVE_ENTITY: EventEntity moves to X=-59.924*, Z=-13.600*, Y=-0.499*
  2: 0x0549 [0x1F] MOVE_ENTITY: Update entity position (mode=1)
  3: 0x054B [0x1E] EventEntity looks at Melvien (ID: 17830034/0x01101092) and starts talking
  4: 0x0550 [0x1C] WAIT(30* ticks)
  5: 0x0553 [0x00] END_REQSTACK()
```

### Event 65535.59

#### Metadata

| Field        | Value    |
|--------------|----------|
| Entrypoint   | 0x0554   |
| Data Size    | 22 bytes |
| Instructions | 6        |

```
      00 01 02 03 04 05 06 07  08 09 0A 0B 0C 0D 0E 0F
      -- -- -- -- -- -- -- --  -- -- -- -- -- -- -- --
0550:             32 04 80 1F  00 5D 80 5E 80 0A 80 1F      2....].^....
0560: 01 1E 97 10 10 01 1C 44  80 00                    .......D..      
```

#### Opcodes

```
  0: 0x0554 [0x32] ExtData[1]->MainSpeed = 13* * 0.1
  1: 0x0557 [0x1F] MOVE_ENTITY: EventEntity moves to X=-96.931*, Z=-48.888*, Y=-0.649*
  2: 0x055F [0x1F] MOVE_ENTITY: Update entity position (mode=1)
  3: 0x0561 [0x1E] EventEntity looks at Margret (ID: 17830039/0x01101097) and starts talking
  4: 0x0566 [0x1C] WAIT(30* ticks)
  5: 0x0569 [0x00] END_REQSTACK()
```

### Event 65535.60

#### Metadata

| Field        | Value    |
|--------------|----------|
| Entrypoint   | 0x056A   |
| Data Size    | 24 bytes |
| Instructions | 6        |

```
      00 01 02 03 04 05 06 07  08 09 0A 0B 0C 0D 0E 0F
      -- -- -- -- -- -- -- --  -- -- -- -- -- -- -- --
0560:                                32 04 80 1F 00 5F            2...._
0570: 80 60 80 41 80 1F 01 1F  00 61 80 62 80 41 80 1F  .`.A.....a.b.A..
0580: 01 00                                             ..              
```

#### Opcodes

```
  0: 0x056A [0x32] ExtData[1]->MainSpeed = 13* * 0.1
  1: 0x056D [0x1F] MOVE_ENTITY: EventEntity moves to X=-54.082*, Z=-13.096*, Y=-0.500*
  2: 0x0575 [0x1F] MOVE_ENTITY: Update entity position (mode=1)
  3: 0x0577 [0x1F] MOVE_ENTITY: EventEntity moves to X=-58.660*, Z=-11.129*, Y=-0.500*
  4: 0x057F [0x1F] MOVE_ENTITY: Update entity position (mode=1)
  5: 0x0581 [0x00] END_REQSTACK()
```

### Event 65535.61

#### Metadata

| Field        | Value    |
|--------------|----------|
| Entrypoint   | 0x0582   |
| Data Size    | 22 bytes |
| Instructions | 6        |

```
      00 01 02 03 04 05 06 07  08 09 0A 0B 0C 0D 0E 0F
      -- -- -- -- -- -- -- --  -- -- -- -- -- -- -- --
0580:       32 04 80 1F 00 63  80 64 80 41 80 1F 01 1E    2....c.d.A....
0590: A1 10 10 01 1C 44 80 00                           .....D..        
```

#### Opcodes

```
  0: 0x0582 [0x32] ExtData[1]->MainSpeed = 13* * 0.1
  1: 0x0585 [0x1F] MOVE_ENTITY: EventEntity moves to X=-63.380*, Z=-9.890*, Y=-0.500*
  2: 0x058D [0x1F] MOVE_ENTITY: Update entity position (mode=1)
  3: 0x058F [0x1E] EventEntity looks at Unnamed NPC (ID: 17830049/0x011010A1) and starts talking
  4: 0x0594 [0x1C] WAIT(30* ticks)
  5: 0x0597 [0x00] END_REQSTACK()
```

### Event 65535.62

#### Metadata

| Field        | Value    |
|--------------|----------|
| Entrypoint   | 0x0598   |
| Data Size    | 14 bytes |
| Instructions | 4        |

```
      00 01 02 03 04 05 06 07  08 09 0A 0B 0C 0D 0E 0F
      -- -- -- -- -- -- -- --  -- -- -- -- -- -- -- --
0590:                          32 04 80 1F 00 65 80 66          2....e.f
05A0: 80 41 80 1F 01 00                                 .A....          
```

#### Opcodes

```
  0: 0x0598 [0x32] ExtData[1]->MainSpeed = 13* * 0.1
  1: 0x059B [0x1F] MOVE_ENTITY: EventEntity moves to X=-63.959*, Z=-10.847*, Y=-0.500*
  2: 0x05A3 [0x1F] MOVE_ENTITY: Update entity position (mode=1)
  3: 0x05A5 [0x00] END_REQSTACK()
```

### Event 65535.63

#### Metadata

| Field        | Value    |
|--------------|----------|
| Entrypoint   | 0x05A6   |
| Data Size    | 24 bytes |
| Instructions | 6        |

```
      00 01 02 03 04 05 06 07  08 09 0A 0B 0C 0D 0E 0F
      -- -- -- -- -- -- -- --  -- -- -- -- -- -- -- --
05A0:                   32 37  80 1F 00 67 80 68 80 1D        27...g.h..
05B0: 80 1F 01 1F 00 69 80 6A  80 1D 80 1F 01 00        .....i.j......  
```

#### Opcodes

```
  0: 0x05A6 [0x32] ExtData[1]->MainSpeed = 40* * 0.1
  1: 0x05A9 [0x1F] MOVE_ENTITY: EventEntity moves to X=102.778*, Z=-62.484*, Y=-40.148*
  2: 0x05B1 [0x1F] MOVE_ENTITY: Update entity position (mode=1)
  3: 0x05B3 [0x1F] MOVE_ENTITY: EventEntity moves to X=103.960*, Z=-55.197*, Y=-40.148*
  4: 0x05BB [0x1F] MOVE_ENTITY: Update entity position (mode=1)
  5: 0x05BD [0x00] END_REQSTACK()
```

### Event 65535.64

#### Metadata

| Field        | Value    |
|--------------|----------|
| Entrypoint   | 0x05BE   |
| Data Size    | 22 bytes |
| Instructions | 6        |

```
      00 01 02 03 04 05 06 07  08 09 0A 0B 0C 0D 0E 0F
      -- -- -- -- -- -- -- --  -- -- -- -- -- -- -- --
05B0:                                            32 04                2.
05C0: 80 1F 00 6B 80 6C 80 20  80 1F 01 1E 90 10 10 01  ...k.l. ........
05D0: 1C 44 80 00                                       .D..            
```

#### Opcodes

```
  0: 0x05BE [0x32] ExtData[1]->MainSpeed = 13* * 0.1
  1: 0x05C1 [0x1F] MOVE_ENTITY: EventEntity moves to X=-0.010*, Z=16.670*, Y=-1.500*
  2: 0x05C9 [0x1F] MOVE_ENTITY: Update entity position (mode=1)
  3: 0x05CB [0x1E] EventEntity looks at Arciela (ID: 17830032/0x01101090) and starts talking
  4: 0x05D0 [0x1C] WAIT(30* ticks)
  5: 0x05D3 [0x00] END_REQSTACK()
```

### Event 65535.65

#### Metadata

| Field        | Value    |
|--------------|----------|
| Entrypoint   | 0x05D4   |
| Data Size    | 14 bytes |
| Instructions | 4        |

```
      00 01 02 03 04 05 06 07  08 09 0A 0B 0C 0D 0E 0F
      -- -- -- -- -- -- -- --  -- -- -- -- -- -- -- --
05D0:             32 04 80 1F  00 6D 80 6E 80 20 80 1F      2....m.n. ..
05E0: 01 00                                             ..              
```

#### Opcodes

```
  0: 0x05D4 [0x32] ExtData[1]->MainSpeed = 13* * 0.1
  1: 0x05D7 [0x1F] MOVE_ENTITY: EventEntity moves to X=-0.004*, Z=0.920*, Y=-1.500*
  2: 0x05DF [0x1F] MOVE_ENTITY: Update entity position (mode=1)
  3: 0x05E1 [0x00] END_REQSTACK()
```

### Event 65535.66

#### Metadata

| Field        | Value    |
|--------------|----------|
| Entrypoint   | 0x05E2   |
| Data Size    | 22 bytes |
| Instructions | 6        |

```
      00 01 02 03 04 05 06 07  08 09 0A 0B 0C 0D 0E 0F
      -- -- -- -- -- -- -- --  -- -- -- -- -- -- -- --
05E0:       32 04 80 1F 00 6F  80 70 80 41 80 1F 01 1E    2....o.p.A....
05F0: 96 10 10 01 1C 44 80 00                           .....D..        
```

#### Opcodes

```
  0: 0x05E2 [0x32] ExtData[1]->MainSpeed = 13* * 0.1
  1: 0x05E5 [0x1F] MOVE_ENTITY: EventEntity moves to X=-32.740*, Z=-16.319*, Y=-0.500*
  2: 0x05ED [0x1F] MOVE_ENTITY: Update entity position (mode=1)
  3: 0x05EF [0x1E] EventEntity looks at Chero-Machero (ID: 17830038/0x01101096) and starts talking
  4: 0x05F4 [0x1C] WAIT(30* ticks)
  5: 0x05F7 [0x00] END_REQSTACK()
```

### Event 65535.67

#### Metadata

| Field        | Value    |
|--------------|----------|
| Entrypoint   | 0x05F8   |
| Data Size    | 22 bytes |
| Instructions | 6        |

```
      00 01 02 03 04 05 06 07  08 09 0A 0B 0C 0D 0E 0F
      -- -- -- -- -- -- -- --  -- -- -- -- -- -- -- --
05F0:                          32 04 80 1F 00 71 80 72          2....q.r
0600: 80 41 80 1F 01 1E 90 10  10 01 1C 44 80 00        .A.........D..  
```

#### Opcodes

```
  0: 0x05F8 [0x32] ExtData[1]->MainSpeed = 13* * 0.1
  1: 0x05FB [0x1F] MOVE_ENTITY: EventEntity moves to X=-32.611*, Z=-13.671*, Y=-0.500*
  2: 0x0603 [0x1F] MOVE_ENTITY: Update entity position (mode=1)
  3: 0x0605 [0x1E] EventEntity looks at Arciela (ID: 17830032/0x01101090) and starts talking
  4: 0x060A [0x1C] WAIT(30* ticks)
  5: 0x060D [0x00] END_REQSTACK()
```

### Event 65535.68

#### Metadata

| Field        | Value    |
|--------------|----------|
| Entrypoint   | 0x060E   |
| Data Size    | 17 bytes |
| Instructions | 5        |

```
      00 01 02 03 04 05 06 07  08 09 0A 0B 0C 0D 0E 0F
      -- -- -- -- -- -- -- --  -- -- -- -- -- -- -- --
0600:                                            32 04                2.
0610: 80 1F 00 73 80 74 80 41  80 1F 01 1C 44 80 00     ...s.t.A....D.. 
```

#### Opcodes

```
  0: 0x060E [0x32] ExtData[1]->MainSpeed = 13* * 0.1
  1: 0x0611 [0x1F] MOVE_ENTITY: EventEntity moves to X=-31.815*, Z=-12.811*, Y=-0.500*
  2: 0x0619 [0x1F] MOVE_ENTITY: Update entity position (mode=1)
  3: 0x061B [0x1C] WAIT(30* ticks)
  4: 0x061E [0x00] END_REQSTACK()
```

### Event 65535.69

#### Metadata

| Field        | Value    |
|--------------|----------|
| Entrypoint   | 0x061F   |
| Data Size    | 30 bytes |
| Instructions | 8        |

```
      00 01 02 03 04 05 06 07  08 09 0A 0B 0C 0D 0E 0F
      -- -- -- -- -- -- -- --  -- -- -- -- -- -- -- --
0610:                                               32                 2
0620: 04 80 1F 00 75 80 76 80  5C 80 1F 01 1F 00 77 80  ....u.v.\.....w.
0630: 78 80 41 80 1F 01 6F 1E  93 10 10 01 00           x.A...o......   
```

#### Opcodes

```
  0: 0x061F [0x32] ExtData[1]->MainSpeed = 13* * 0.1
  1: 0x0622 [0x1F] MOVE_ENTITY: EventEntity moves to X=-33.584*, Z=-13.508*, Y=-0.499*
  2: 0x062A [0x1F] MOVE_ENTITY: Update entity position (mode=1)
  3: 0x062C [0x1F] MOVE_ENTITY: EventEntity moves to X=-30.250*, Z=-10.510*, Y=-0.500*
  4: 0x0634 [0x1F] MOVE_ENTITY: Update entity position (mode=1)
  5: 0x0636 [0x6F] WAIT_FRAME_DELAY: Yield until WaitTime reaches zero
  6: 0x0637 [0x1E] EventEntity looks at Hildebert (ID: 17830035/0x01101093) and starts talking
  7: 0x063C [0x00] END_REQSTACK()
```

### Event 65535.70

#### Metadata

| Field        | Value    |
|--------------|----------|
| Entrypoint   | 0x063D   |
| Data Size    | 14 bytes |
| Instructions | 4        |

```
      00 01 02 03 04 05 06 07  08 09 0A 0B 0C 0D 0E 0F
      -- -- -- -- -- -- -- --  -- -- -- -- -- -- -- --
0630:                                         32 37 80               27.
0640: 1F 00 79 80 7A 80 41 80  1F 01 00                 ..y.z.A....     
```

#### Opcodes

```
  0: 0x063D [0x32] ExtData[1]->MainSpeed = 40* * 0.1
  1: 0x0640 [0x1F] MOVE_ENTITY: EventEntity moves to X=-33.088*, Z=-10.923*, Y=-0.500*
  2: 0x0648 [0x1F] MOVE_ENTITY: Update entity position (mode=1)
  3: 0x064A [0x00] END_REQSTACK()
```

### Event 65535.71

#### Metadata

| Field        | Value    |
|--------------|----------|
| Entrypoint   | 0x064B   |
| Data Size    | 22 bytes |
| Instructions | 6        |

```
      00 01 02 03 04 05 06 07  08 09 0A 0B 0C 0D 0E 0F
      -- -- -- -- -- -- -- --  -- -- -- -- -- -- -- --
0640:                                   32 04 80 1F 00             2....
0650: 6B 80 6C 80 20 80 1F 01  1E A0 10 10 01 1C 44 80  k.l. .........D.
0660: 00                                                .               
```

#### Opcodes

```
  0: 0x064B [0x32] ExtData[1]->MainSpeed = 13* * 0.1
  1: 0x064E [0x1F] MOVE_ENTITY: EventEntity moves to X=-0.010*, Z=16.670*, Y=-1.500*
  2: 0x0656 [0x1F] MOVE_ENTITY: Update entity position (mode=1)
  3: 0x0658 [0x1E] EventEntity looks at Unnamed NPC (ID: 17830048/0x011010A0) and starts talking
  4: 0x065D [0x1C] WAIT(30* ticks)
  5: 0x0660 [0x00] END_REQSTACK()
```

### Event 65535.72

#### Metadata

| Field        | Value    |
|--------------|----------|
| Entrypoint   | 0x0661   |
| Data Size    | 22 bytes |
| Instructions | 6        |

```
      00 01 02 03 04 05 06 07  08 09 0A 0B 0C 0D 0E 0F
      -- -- -- -- -- -- -- --  -- -- -- -- -- -- -- --
0660:    32 04 80 1F 00 7B 80  7C 80 20 80 1F 01 1E A1   2....{.|. .....
0670: 10 10 01 1C 44 80 00                              ....D..         
```

#### Opcodes

```
  0: 0x0661 [0x32] ExtData[1]->MainSpeed = 13* * 0.1
  1: 0x0664 [0x1F] MOVE_ENTITY: EventEntity moves to X=0.049*, Z=18.337*, Y=-1.500*
  2: 0x066C [0x1F] MOVE_ENTITY: Update entity position (mode=1)
  3: 0x066E [0x1E] EventEntity looks at Unnamed NPC (ID: 17830049/0x011010A1) and starts talking
  4: 0x0673 [0x1C] WAIT(30* ticks)
  5: 0x0676 [0x00] END_REQSTACK()
```

### Event 65535.73

#### Metadata

| Field        | Value    |
|--------------|----------|
| Entrypoint   | 0x0677   |
| Data Size    | 22 bytes |
| Instructions | 6        |

```
      00 01 02 03 04 05 06 07  08 09 0A 0B 0C 0D 0E 0F
      -- -- -- -- -- -- -- --  -- -- -- -- -- -- -- --
0670:                      32  04 80 1F 00 7D 80 7E 80         2....}.~.
0680: 1D 80 1F 01 1E 9E 10 10  01 1C 44 80 00           ..........D..   
```

#### Opcodes

```
  0: 0x0677 [0x32] ExtData[1]->MainSpeed = 13* * 0.1
  1: 0x067A [0x1F] MOVE_ENTITY: EventEntity moves to X=96.839*, Z=-64.123*, Y=-40.148*
  2: 0x0682 [0x1F] MOVE_ENTITY: Update entity position (mode=1)
  3: 0x0684 [0x1E] EventEntity looks at Ingrid (ID: 17830046/0x0110109E) and starts talking
  4: 0x0689 [0x1C] WAIT(30* ticks)
  5: 0x068C [0x00] END_REQSTACK()
```

### Event 65535.74

#### Metadata

| Field        | Value    |
|--------------|----------|
| Entrypoint   | 0x068D   |
| Data Size    | 14 bytes |
| Instructions | 4        |

```
      00 01 02 03 04 05 06 07  08 09 0A 0B 0C 0D 0E 0F
      -- -- -- -- -- -- -- --  -- -- -- -- -- -- -- --
0680:                                         32 04 80               2..
0690: 1F 00 7F 80 80 80 81 80  1F 01 00                 ...........     
```

#### Opcodes

```
  0: 0x068D [0x32] ExtData[1]->MainSpeed = 13* * 0.1
  1: 0x0690 [0x1F] MOVE_ENTITY: EventEntity moves to X=92.163*, Z=-63.678*, Y=-39.999*
  2: 0x0698 [0x1F] MOVE_ENTITY: Update entity position (mode=1)
  3: 0x069A [0x00] END_REQSTACK()
```

### Event 65535.75

#### Metadata

| Field        | Value    |
|--------------|----------|
| Entrypoint   | 0x069B   |
| Data Size    | 17 bytes |
| Instructions | 5        |

```
      00 01 02 03 04 05 06 07  08 09 0A 0B 0C 0D 0E 0F
      -- -- -- -- -- -- -- --  -- -- -- -- -- -- -- --
0690:                                   32 04 80 1F 00             2....
06A0: 82 80 83 80 41 80 1F 01  1C 44 80 00              ....A....D..    
```

#### Opcodes

```
  0: 0x069B [0x32] ExtData[1]->MainSpeed = 13* * 0.1
  1: 0x069E [0x1F] MOVE_ENTITY: EventEntity moves to X=-64.072*, Z=-9.969*, Y=-0.500*
  2: 0x06A6 [0x1F] MOVE_ENTITY: Update entity position (mode=1)
  3: 0x06A8 [0x1C] WAIT(30* ticks)
  4: 0x06AB [0x00] END_REQSTACK()
```

### Event 65535.76

#### Metadata

| Field        | Value    |
|--------------|----------|
| Entrypoint   | 0x06AC   |
| Data Size    | 22 bytes |
| Instructions | 6        |

```
      00 01 02 03 04 05 06 07  08 09 0A 0B 0C 0D 0E 0F
      -- -- -- -- -- -- -- --  -- -- -- -- -- -- -- --
06A0:                                      32 04 80 1F              2...
06B0: 00 02 80 02 80 02 80 1F  01 1E 97 10 10 01 1C 44  ...............D
06C0: 80 00                                             ..              
```

#### Opcodes

```
  0: 0x06AC [0x32] ExtData[1]->MainSpeed = 13* * 0.1
  1: 0x06AF [0x1F] MOVE_ENTITY: EventEntity moves to X=0.000*, Z=0.000*, Y=0.000*
  2: 0x06B7 [0x1F] MOVE_ENTITY: Update entity position (mode=1)
  3: 0x06B9 [0x1E] EventEntity looks at Margret (ID: 17830039/0x01101097) and starts talking
  4: 0x06BE [0x1C] WAIT(30* ticks)
  5: 0x06C1 [0x00] END_REQSTACK()
```

### Event 65535.77

#### Metadata

| Field        | Value    |
|--------------|----------|
| Entrypoint   | 0x06C2   |
| Data Size    | 14 bytes |
| Instructions | 4        |

```
      00 01 02 03 04 05 06 07  08 09 0A 0B 0C 0D 0E 0F
      -- -- -- -- -- -- -- --  -- -- -- -- -- -- -- --
06C0:       32 04 80 1F 00 84  80 85 80 33 80 1F 01 00    2........3....
```

#### Opcodes

```
  0: 0x06C2 [0x32] ExtData[1]->MainSpeed = 13* * 0.1
  1: 0x06C5 [0x1F] MOVE_ENTITY: EventEntity moves to X=70.070*, Z=2.518*, Y=-40.000*
  2: 0x06CD [0x1F] MOVE_ENTITY: Update entity position (mode=1)
  3: 0x06CF [0x00] END_REQSTACK()
```

### Event 65535.78

#### Metadata

| Field        | Value    |
|--------------|----------|
| Entrypoint   | 0x06D0   |
| Data Size    | 14 bytes |
| Instructions | 4        |

```
      00 01 02 03 04 05 06 07  08 09 0A 0B 0C 0D 0E 0F
      -- -- -- -- -- -- -- --  -- -- -- -- -- -- -- --
06D0: 32 04 80 1F 00 86 80 87  80 81 80 1F 01 00        2.............  
```

#### Opcodes

```
  0: 0x06D0 [0x32] ExtData[1]->MainSpeed = 13* * 0.1
  1: 0x06D3 [0x1F] MOVE_ENTITY: EventEntity moves to X=92.558*, Z=-64.196*, Y=-39.999*
  2: 0x06DB [0x1F] MOVE_ENTITY: Update entity position (mode=1)
  3: 0x06DD [0x00] END_REQSTACK()
```

### Event 65535.79

#### Metadata

| Field        | Value    |
|--------------|----------|
| Entrypoint   | 0x06DE   |
| Data Size    | 14 bytes |
| Instructions | 4        |

```
      00 01 02 03 04 05 06 07  08 09 0A 0B 0C 0D 0E 0F
      -- -- -- -- -- -- -- --  -- -- -- -- -- -- -- --
06D0:                                            32 04                2.
06E0: 80 1F 00 88 80 89 80 20  80 1F 01 00              ....... ....    
```

#### Opcodes

```
  0: 0x06DE [0x32] ExtData[1]->MainSpeed = 13* * 0.1
  1: 0x06E1 [0x1F] MOVE_ENTITY: EventEntity moves to X=1.366*, Z=-12.016*, Y=-1.500*
  2: 0x06E9 [0x1F] MOVE_ENTITY: Update entity position (mode=1)
  3: 0x06EB [0x00] END_REQSTACK()
```

### Event 65535.80

#### Metadata

| Field        | Value    |
|--------------|----------|
| Entrypoint   | 0x06EC   |
| Data Size    | 24 bytes |
| Instructions | 6        |

```
      00 01 02 03 04 05 06 07  08 09 0A 0B 0C 0D 0E 0F
      -- -- -- -- -- -- -- --  -- -- -- -- -- -- -- --
06E0:                                      32 04 80 1F              2...
06F0: 00 8A 80 8B 80 20 80 1F  01 1F 00 8C 80 8D 80 20  ..... ......... 
0700: 80 1F 01 00                                       ....            
```

#### Opcodes

```
  0: 0x06EC [0x32] ExtData[1]->MainSpeed = 13* * 0.1
  1: 0x06EF [0x1F] MOVE_ENTITY: EventEntity moves to X=0.844*, Z=-5.107*, Y=-1.500*
  2: 0x06F7 [0x1F] MOVE_ENTITY: Update entity position (mode=1)
  3: 0x06F9 [0x1F] MOVE_ENTITY: EventEntity moves to X=0.960*, Z=1.598*, Y=-1.500*
  4: 0x0701 [0x1F] MOVE_ENTITY: Update entity position (mode=1)
  5: 0x0703 [0x00] END_REQSTACK()
```

### Event 65535.81

#### Metadata

| Field        | Value    |
|--------------|----------|
| Entrypoint   | 0x0704   |
| Data Size    | 16 bytes |
| Instructions | 5        |

```
      00 01 02 03 04 05 06 07  08 09 0A 0B 0C 0D 0E 0F
      -- -- -- -- -- -- -- --  -- -- -- -- -- -- -- --
0700:             33 01 32 04  80 5A 00 8E 80 8F 80 33      3.2..Z.....3
0710: 80 5A 01 00                                       .Z..            
```

#### Opcodes

```
  0: 0x0704 [0x33] EventEntity->Render.Flags0 |= 0x200000 // Bit 21 (flag=0x01)
  1: 0x0706 [0x32] ExtData[1]->MainSpeed = 13* * 0.1
  2: 0x0709 [0x5A] UPDATE_EVENT_POSITION: Set EventEntity MovePosition to X=112.781*, Z=-64.189*, Y=-40.000*
  3: 0x0711 [0x5A] UPDATE_EVENT_POSITION: Move EventEntity incrementally towards MovePosition
  4: 0x0713 [0x00] END_REQSTACK()
```

### Event 65535.82

#### Metadata

| Field        | Value    |
|--------------|----------|
| Entrypoint   | 0x0714   |
| Data Size    | 24 bytes |
| Instructions | 6        |

```
      00 01 02 03 04 05 06 07  08 09 0A 0B 0C 0D 0E 0F
      -- -- -- -- -- -- -- --  -- -- -- -- -- -- -- --
0710:             32 04 80 1F  00 90 80 91 80 5C 80 1F      2........\..
0720: 01 4B F8 FF FF 7F 92 80  1C 19 80 00              .K..........    
```

#### Opcodes

```
  0: 0x0714 [0x32] ExtData[1]->MainSpeed = 13* * 0.1
  1: 0x0717 [0x1F] MOVE_ENTITY: EventEntity moves to X=-56.364*, Z=-14.016*, Y=-0.499*
  2: 0x071F [0x1F] MOVE_ENTITY: Update entity position (mode=1)
  3: 0x0721 [0x4B] UPDATE_ENTITY_YAW(entity=EventEntity, yaw=15.1*)
  4: 0x0728 [0x1C] WAIT(60* ticks)
  5: 0x072B [0x00] END_REQSTACK()
```

### Event 65535.83

#### Metadata

| Field        | Value    |
|--------------|----------|
| Entrypoint   | 0x072C   |
| Data Size    | 22 bytes |
| Instructions | 6        |

```
      00 01 02 03 04 05 06 07  08 09 0A 0B 0C 0D 0E 0F
      -- -- -- -- -- -- -- --  -- -- -- -- -- -- -- --
0720:                                      32 04 80 1F              2...
0730: 00 93 80 94 80 41 80 1F  01 1E 8F 10 10 01 1C 44  .....A.........D
0740: 80 00                                             ..              
```

#### Opcodes

```
  0: 0x072C [0x32] ExtData[1]->MainSpeed = 13* * 0.1
  1: 0x072F [0x1F] MOVE_ENTITY: EventEntity moves to X=-58.061*, Z=-16.067*, Y=-0.500*
  2: 0x0737 [0x1F] MOVE_ENTITY: Update entity position (mode=1)
  3: 0x0739 [0x1E] EventEntity looks at Arciela (ID: 17830031/0x0110108F) and starts talking
  4: 0x073E [0x1C] WAIT(30* ticks)
  5: 0x0741 [0x00] END_REQSTACK()
```

### Event 65535.84

#### Metadata

| Field        | Value    |
|--------------|----------|
| Entrypoint   | 0x0742   |
| Data Size    | 14 bytes |
| Instructions | 4        |

```
      00 01 02 03 04 05 06 07  08 09 0A 0B 0C 0D 0E 0F
      -- -- -- -- -- -- -- --  -- -- -- -- -- -- -- --
0740:       32 04 80 1F 00 95  80 96 80 41 80 1F 01 00    2........A....
```

#### Opcodes

```
  0: 0x0742 [0x32] ExtData[1]->MainSpeed = 13* * 0.1
  1: 0x0745 [0x1F] MOVE_ENTITY: EventEntity moves to X=-65.266*, Z=-9.475*, Y=-0.500*
  2: 0x074D [0x1F] MOVE_ENTITY: Update entity position (mode=1)
  3: 0x074F [0x00] END_REQSTACK()
```

### Event 65535.85

#### Metadata

| Field        | Value    |
|--------------|----------|
| Entrypoint   | 0x0750   |
| Data Size    | 14 bytes |
| Instructions | 4        |

```
      00 01 02 03 04 05 06 07  08 09 0A 0B 0C 0D 0E 0F
      -- -- -- -- -- -- -- --  -- -- -- -- -- -- -- --
0750: 32 04 80 1F 00 97 80 98  80 41 80 1F 01 00        2........A....  
```

#### Opcodes

```
  0: 0x0750 [0x32] ExtData[1]->MainSpeed = 13* * 0.1
  1: 0x0753 [0x1F] MOVE_ENTITY: EventEntity moves to X=-60.278*, Z=-12.855*, Y=-0.500*
  2: 0x075B [0x1F] MOVE_ENTITY: Update entity position (mode=1)
  3: 0x075D [0x00] END_REQSTACK()
```

### Event 65535.86

#### Metadata

| Field        | Value    |
|--------------|----------|
| Entrypoint   | 0x075E   |
| Data Size    | 21 bytes |
| Instructions | 7        |

```
      00 01 02 03 04 05 06 07  08 09 0A 0B 0C 0D 0E 0F
      -- -- -- -- -- -- -- --  -- -- -- -- -- -- -- --
0750:                                            32 04                2.
0760: 80 1F 00 99 80 9A 80 02  80 1F 01 1E C3 10 10 01  ................
0770: 6F 70 00                                          op.             
```

#### Opcodes

```
  0: 0x075E [0x32] ExtData[1]->MainSpeed = 13* * 0.1
  1: 0x0761 [0x1F] MOVE_ENTITY: EventEntity moves to X=-81.041*, Z=-52.730*, Y=0.000*
  2: 0x0769 [0x1F] MOVE_ENTITY: Update entity position (mode=1)
  3: 0x076B [0x1E] EventEntity looks at Roskin (ID: 17830083/0x011010C3) and starts talking
  4: 0x0770 [0x6F] WAIT_FRAME_DELAY: Yield until WaitTime reaches zero
  5: 0x0771 [0x70] WAIT_ENTITY_RENDER_FLAG: Wait while EventEntity->Render.Flags3 bit 2 is set (cancel turn if not)
  6: 0x0772 [0x00] END_REQSTACK()
```

### Event 65535.87

#### Metadata

| Field        | Value    |
|--------------|----------|
| Entrypoint   | 0x0773   |
| Data Size    | 21 bytes |
| Instructions | 7        |

```
      00 01 02 03 04 05 06 07  08 09 0A 0B 0C 0D 0E 0F
      -- -- -- -- -- -- -- --  -- -- -- -- -- -- -- --
0770:          32 04 80 1F 00  9B 80 9C 80 07 80 1F 01     2............
0780: 1E C3 10 10 01 6F 70 00                           .....op.        
```

#### Opcodes

```
  0: 0x0773 [0x32] ExtData[1]->MainSpeed = 13* * 0.1
  1: 0x0776 [0x1F] MOVE_ENTITY: EventEntity moves to X=-36.242*, Z=-23.258*, Y=-0.148*
  2: 0x077E [0x1F] MOVE_ENTITY: Update entity position (mode=1)
  3: 0x0780 [0x1E] EventEntity looks at Roskin (ID: 17830083/0x011010C3) and starts talking
  4: 0x0785 [0x6F] WAIT_FRAME_DELAY: Yield until WaitTime reaches zero
  5: 0x0786 [0x70] WAIT_ENTITY_RENDER_FLAG: Wait while EventEntity->Render.Flags3 bit 2 is set (cancel turn if not)
  6: 0x0787 [0x00] END_REQSTACK()
```

### Event 65535.88

#### Metadata

| Field        | Value    |
|--------------|----------|
| Entrypoint   | 0x0788   |
| Data Size    | 21 bytes |
| Instructions | 7        |

```
      00 01 02 03 04 05 06 07  08 09 0A 0B 0C 0D 0E 0F
      -- -- -- -- -- -- -- --  -- -- -- -- -- -- -- --
0780:                          32 37 80 1F 00 9D 80 9E          27......
0790: 80 07 80 1F 01 1E 97 10  10 01 6F 70 00           ..........op.   
```

#### Opcodes

```
  0: 0x0788 [0x32] ExtData[1]->MainSpeed = 40* * 0.1
  1: 0x078B [0x1F] MOVE_ENTITY: EventEntity moves to X=-42.590*, Z=-13.749*, Y=-0.148*
  2: 0x0793 [0x1F] MOVE_ENTITY: Update entity position (mode=1)
  3: 0x0795 [0x1E] EventEntity looks at Margret (ID: 17830039/0x01101097) and starts talking
  4: 0x079A [0x6F] WAIT_FRAME_DELAY: Yield until WaitTime reaches zero
  5: 0x079B [0x70] WAIT_ENTITY_RENDER_FLAG: Wait while EventEntity->Render.Flags3 bit 2 is set (cancel turn if not)
  6: 0x079C [0x00] END_REQSTACK()
```

### Event 65535.89

#### Metadata

| Field        | Value    |
|--------------|----------|
| Entrypoint   | 0x079D   |
| Data Size    | 14 bytes |
| Instructions | 4        |

```
      00 01 02 03 04 05 06 07  08 09 0A 0B 0C 0D 0E 0F
      -- -- -- -- -- -- -- --  -- -- -- -- -- -- -- --
0790:                                         32 04 80               2..
07A0: 1F 00 9F 80 A0 80 02 80  1F 01 00                 ...........     
```

#### Opcodes

```
  0: 0x079D [0x32] ExtData[1]->MainSpeed = 13* * 0.1
  1: 0x07A0 [0x1F] MOVE_ENTITY: EventEntity moves to X=-45.000*, Z=-8.760*, Y=0.000*
  2: 0x07A8 [0x1F] MOVE_ENTITY: Update entity position (mode=1)
  3: 0x07AA [0x00] END_REQSTACK()
```

### Event 65535.90

#### Metadata

| Field        | Value    |
|--------------|----------|
| Entrypoint   | 0x07AB   |
| Data Size    | 19 bytes |
| Instructions | 5        |

```
      00 01 02 03 04 05 06 07  08 09 0A 0B 0C 0D 0E 0F
      -- -- -- -- -- -- -- --  -- -- -- -- -- -- -- --
07A0:                                   1C 4A 80 6E F0             .J.n.
07B0: FF FF 7F 0F 80 99 F0 FF  FF 7F 1C 28 80 00        ...........(..  
```

#### Opcodes

```
  0: 0x07AB [0x1C] WAIT(100* ticks)
  1: 0x07AE [0x6E] LocalPlayer uses emote 7*
  2: 0x07B5 [0x99] Wait for LocalPlayer animation to complete
  3: 0x07BA [0x1C] WAIT(70* ticks)
  4: 0x07BD [0x00] END_REQSTACK()
```

### Event 65535.91

#### Metadata

| Field        | Value    |
|--------------|----------|
| Entrypoint   | 0x07BE   |
| Data Size    | 21 bytes |
| Instructions | 7        |

```
      00 01 02 03 04 05 06 07  08 09 0A 0B 0C 0D 0E 0F
      -- -- -- -- -- -- -- --  -- -- -- -- -- -- -- --
07B0:                                            32 04                2.
07C0: 80 1F 00 A1 80 A2 80 07  80 1F 01 1E C3 10 10 01  ................
07D0: 6F 70 00                                          op.             
```

#### Opcodes

```
  0: 0x07BE [0x32] ExtData[1]->MainSpeed = 13* * 0.1
  1: 0x07C1 [0x1F] MOVE_ENTITY: EventEntity moves to X=-42.436*, Z=-19.181*, Y=-0.148*
  2: 0x07C9 [0x1F] MOVE_ENTITY: Update entity position (mode=1)
  3: 0x07CB [0x1E] EventEntity looks at Roskin (ID: 17830083/0x011010C3) and starts talking
  4: 0x07D0 [0x6F] WAIT_FRAME_DELAY: Yield until WaitTime reaches zero
  5: 0x07D1 [0x70] WAIT_ENTITY_RENDER_FLAG: Wait while EventEntity->Render.Flags3 bit 2 is set (cancel turn if not)
  6: 0x07D2 [0x00] END_REQSTACK()
```

### Event 65535.92

#### Metadata

| Field        | Value    |
|--------------|----------|
| Entrypoint   | 0x07D3   |
| Data Size    | 19 bytes |
| Instructions | 5        |

```
      00 01 02 03 04 05 06 07  08 09 0A 0B 0C 0D 0E 0F
      -- -- -- -- -- -- -- --  -- -- -- -- -- -- -- --
07D0:          32 04 80 1F 00  A3 80 A4 80 07 80 1F 01     2............
07E0: 1E C3 10 10 01 00                                 ......          
```

#### Opcodes

```
  0: 0x07D3 [0x32] ExtData[1]->MainSpeed = 13* * 0.1
  1: 0x07D6 [0x1F] MOVE_ENTITY: EventEntity moves to X=-41.375*, Z=-24.060*, Y=-0.148*
  2: 0x07DE [0x1F] MOVE_ENTITY: Update entity position (mode=1)
  3: 0x07E0 [0x1E] EventEntity looks at Roskin (ID: 17830083/0x011010C3) and starts talking
  4: 0x07E5 [0x00] END_REQSTACK()
```

### Event 65535.93

#### Metadata

| Field        | Value    |
|--------------|----------|
| Entrypoint   | 0x07E6   |
| Data Size    | 14 bytes |
| Instructions | 4        |

```
      00 01 02 03 04 05 06 07  08 09 0A 0B 0C 0D 0E 0F
      -- -- -- -- -- -- -- --  -- -- -- -- -- -- -- --
07E0:                   32 04  80 1F 00 A5 80 A6 80 A7        2.........
07F0: 80 1F 01 00                                       ....            
```

#### Opcodes

```
