# Event 80

## Metadata

| Field           | Value    |
|-----------------|----------|
| Event Index     | 12/30    |
| Offset          | 0x0279   |
| Data Size       | 53 bytes |
| Calculated Size | 53 bytes |
| Instructions    | 12       |

```
      00 01 02 03 04 05 06 07  08 09 0A 0B 0C 0D 0E 0F
      -- -- -- -- -- -- -- --  -- -- -- -- -- -- -- --
0270:                             20 01 42 1E F0 FF FF            .B....
0280: 7F 6F 70 66 00 80 F8 FF  FF 7F F8 FF FF 7F 74 6C  .opf..........tl
0290: 6B 30 1D 1C 80 23 03 01  10 1D 80 45 13 80 F0 FF  k0...#.....E....
02A0: FF 7F F0 FF FF 7F 71 73  74 63 00 80 21 00        ......qstc..!.  
```

## Opcodes

```
  0: 0x0279 [0x20] SET_CLI_EVENT_UC_FLAG: Lock player control
  1: 0x027B [0x42] SET_CLI_EVENT_CANCEL_DATA()
  2: 0x027C [0x1E] EventEntity looks at LocalPlayer and starts talking
  3: 0x0281 [0x6F] WAIT_FRAME_DELAY: Yield until WaitTime reaches zero
  4: 0x0282 [0x70] WAIT_ENTITY_RENDER_FLAG: Wait while EventEntity->Render.Flags3 bit 2 is set (cancel turn if not)
  5: 0x0283 [0x66] LOAD_EXT_SCHEDULER_MAIN(work_offset=0*, entity1=EventEntity, entity2=EventEntity, action="tlk0")
  6: 0x0292 [0x1D] PRINT_EVENT_MESSAGE(message_id=6894*)
    → "You got them! They're still fresh, too!\u0007Thanks so much! Now I know who to ask when I need something!\u007F1\u0000\u0007"
  7: 0x0295 [0x23] WAIT_FOR_DIALOG_INTERACTION
  8: 0x0296 [0x03] Work_Zone[1] = 75*
  9: 0x029B [0x45] LOAD_SCHEDULED_TASK(work_offset1=201*, entity1=LocalPlayer, entity2=LocalPlayer, scheduler_id="qstc", work_offset2=0*)
 10: 0x02AC [0x21] END_EVENT
 11: 0x02AD [0x00] END_REQSTACK()
```
