# Event 92

## Metadata

| Field           | Value    |
|-----------------|----------|
| Event Index     | 24/30    |
| Offset          | 0x0724   |
| Data Size       | 57 bytes |
| Calculated Size | 57 bytes |
| Instructions    | 14       |

```
      00 01 02 03 04 05 06 07  08 09 0A 0B 0C 0D 0E 0F
      -- -- -- -- -- -- -- --  -- -- -- -- -- -- -- --
0720:             20 01 42 1E  F0 FF FF 7F 6F 70 66 00       .B.....opf.
0730: 80 F8 FF FF 7F F8 FF FF  7F 74 6C 6B 30 1D 48 80  .........tlk0.H.
0740: 23 1D 49 80 23 03 01 10  4A 80 45 13 80 F0 FF FF  #.I.#...J.E.....
0750: 7F F0 FF FF 7F 71 73 74  63 00 80 21 00           .....qstc..!.   
```

## Opcodes

```
  0: 0x0724 [0x20] SET_CLI_EVENT_UC_FLAG: Lock player control
  1: 0x0726 [0x42] SET_CLI_EVENT_CANCEL_DATA()
  2: 0x0727 [0x1E] EventEntity looks at LocalPlayer and starts talking
  3: 0x072C [0x6F] WAIT_FRAME_DELAY: Yield until WaitTime reaches zero
  4: 0x072D [0x70] WAIT_ENTITY_RENDER_FLAG: Wait while EventEntity->Render.Flags3 bit 2 is set (cancel turn if not)
  5: 0x072E [0x66] LOAD_EXT_SCHEDULER_MAIN: Load scheduler "tlk0" with entities [EventEntity, EventEntity], work=0*
  6: 0x073D [0x1D] PRINT_EVENT_MESSAGE(message_id=6939*)
    → "Wow! Thank you!\u0007I knew you wouldn't let me down!\u007F1\u0000\u0007"
  7: 0x0740 [0x23] WAIT_FOR_DIALOG_INTERACTION
  8: 0x0741 [0x1D] PRINT_EVENT_MESSAGE(message_id=6940*)
    → "Here, take this, you earned it!\u0007All right! Now I'll show that old man!\u007F1\u0000\u0007"
  9: 0x0744 [0x23] WAIT_FOR_DIALOG_INTERACTION
 10: 0x0745 [0x03] Work_Zone[1] = 84*
 11: 0x074A [0x45] LOAD_SCHEDULED_TASK: Load scheduler "qstc" with entities [LocalPlayer, LocalPlayer], work=[201*, 0*]
 12: 0x075B [0x21] END_EVENT
 13: 0x075C [0x00] END_REQSTACK()
```
