# Event 65535

## Metadata

| Field           | Value    |
|-----------------|----------|
| Event Index     | 96/144   |
| Offset          | 0x090B   |
| Data Size       | 44 bytes |
| Calculated Size | 44 bytes |
| Instructions    | 14       |

```
      00 01 02 03 04 05 06 07  08 09 0A 0B 0C 0D 0E 0F
      -- -- -- -- -- -- -- --  -- -- -- -- -- -- -- --
0900:                                   32 BB 80 1F 00             2....
0910: 1F 81 20 81 9D 80 1F 01  6F 1F 00 1F 81 21 81 9A  .. .....o....!..
0920: 80 1F 01 6F 1F 00 22 81  23 81 17 81 1F 01 6F 1E  ...o..".#.....o.
0930: D8 20 03 01 6F 70 00                              . ..op.         
```

## Opcodes

```
  0: 0x090B [0x32] ExtData[1]->MainSpeed = 40* * 0.1
  1: 0x090E [0x1F] MOVE_ENTITY: EventEntity moves to X=35.706*, Z=-51.616*, Y=-6.601*
  2: 0x0916 [0x1F] MOVE_ENTITY: Update entity position (mode=1)
  3: 0x0918 [0x6F] WAIT_FRAME_DELAY: Yield until WaitTime reaches zero
  4: 0x0919 [0x1F] MOVE_ENTITY: EventEntity moves to X=35.706*, Z=-48.342*, Y=-7.199*
  5: 0x0921 [0x1F] MOVE_ENTITY: Update entity position (mode=1)
  6: 0x0923 [0x6F] WAIT_FRAME_DELAY: Yield until WaitTime reaches zero
  7: 0x0924 [0x1F] MOVE_ENTITY: EventEntity moves to X=26.444*, Z=-46.659*, Y=-7.804*
  8: 0x092C [0x1F] MOVE_ENTITY: Update entity position (mode=1)
  9: 0x092E [0x6F] WAIT_FRAME_DELAY: Yield until WaitTime reaches zero
 10: 0x092F [0x1E] EventEntity looks at Naja Salaheem (ID: 16982232/0x010320D8) and starts talking
 11: 0x0934 [0x6F] WAIT_FRAME_DELAY: Yield until WaitTime reaches zero
 12: 0x0935 [0x70] WAIT_ENTITY_RENDER_FLAG: Wait while EventEntity->Render.Flags3 bit 2 is set (cancel turn if not)
 13: 0x0936 [0x00] END_REQSTACK()
```
