# Event 994

## Metadata

| Field           | Value    |
|-----------------|----------|
| Event Index     | 3/6      |
| Offset          | 0x0B31   |
| Data Size       | 49 bytes |
| Calculated Size | 49 bytes |
| Instructions    | 13       |

```
      00 01 02 03 04 05 06 07  08 09 0A 0B 0C 0D 0E 0F
      -- -- -- -- -- -- -- --  -- -- -- -- -- -- -- --
0B30:    4A F0 FF FF 7F F8 FF  FF 7F 4A F8 FF FF 7F F0   J........J.....
0B40: FF FF 7F 6F 76 F8 FF FF  7F 6E F8 FF FF 7F 1A 80  ...ov....n......
0B50: 99 F8 FF FF 7F 1D 55 80  23 1C 16 80 1D 56 80 23  ......U.#....V.#
0B60: 21 00                                             !.              
```

## Opcodes

```
  0: 0x0B31 [0x4A] LocalPlayer looks at EventEntity
  1: 0x0B3A [0x4A] EventEntity looks at LocalPlayer
  2: 0x0B43 [0x6F] WAIT_FRAME_DELAY: Yield until WaitTime reaches zero
  3: 0x0B44 [0x76] CHECK_ENTITY_RENDER_FLAGS: Wait until EventEntity Render.Flags0 and Render.Flags3 conditions are met
  4: 0x0B49 [0x6E] EventEntity uses emote 35*
  5: 0x0B50 [0x99] Wait for EventEntity animation to complete
  6: 0x0B55 [0x1D] PRINT_EVENT_MESSAGE(message_id=15375*)
    → "I had no idea just how unprepared most adventurers in these parts are...\u007F1\u0000\u0007"
  7: 0x0B58 [0x23] WAIT_FOR_DIALOG_INTERACTION
  8: 0x0B59 [0x1C] WAIT(60* ticks)
  9: 0x0B5C [0x1D] PRINT_EVENT_MESSAGE(message_id=15376*)
    → "My superior told me to \u00072meet an adventurer who has set the first objective from the 'Objective List' under the 'Records of Eminence' section of the Quests menu,\u00073 but I feel I will wither and die before that ever happens. What the heck is a \u00072quest menu,\u00073 anyway?\u007F1\u0000\u0007"
 10: 0x0B5F [0x23] WAIT_FOR_DIALOG_INTERACTION
 11: 0x0B60 [0x21] END_EVENT
 12: 0x0B61 [0x00] END_REQSTACK()
```
