# Event 65535

## Metadata

| Field           | Value    |
|-----------------|----------|
| Event Index     | 81/84    |
| Offset          | 0x0470   |
| Data Size       | 73 bytes |
| Calculated Size | 73 bytes |
| Instructions    | 9        |

```
      00 01 02 03 04 05 06 07  08 09 0A 0B 0C 0D 0E 0F
      -- -- -- -- -- -- -- --  -- -- -- -- -- -- -- --
0470: 32 06 80 1F 00 07 80 08  80 09 80 1F 01 6F 5B 02  2............o[.
0480: 80 F8 FF FF 7F F8 FF FF  7F 66 6E 64 30 5B 02 80  .........fnd0[..
0490: F8 FF FF 7F F8 FF FF 7F  66 6E 64 30 5B 02 80 F8  ........fnd0[...
04A0: FF FF 7F F8 FF FF 7F 66  6E 64 31 53 F8 FF FF 7F  .......fnd1S....
04B0: F8 FF FF 7F 66 6E 64 31  00                       ....fnd1.       
```

## Opcodes

```
  0: 0x0470 [0x32] ExtData[1]->MainSpeed = 40* * 0.1
  1: 0x0473 [0x1F] MOVE_ENTITY: EventEntity moves to X=-452.360*, Z=-602.804*, Y=8.270*
  2: 0x047B [0x1F] MOVE_ENTITY: Update entity position (mode=1)
  3: 0x047D [0x6F] WAIT_FRAME_DELAY: Yield until WaitTime reaches zero
  4: 0x047E [0x5B] LOAD_EXT_SCHEDULER(work_offset=216*, entity1=EventEntity, entity2=EventEntity, action="fnd0")
  5: 0x048D [0x5B] LOAD_EXT_SCHEDULER(work_offset=216*, entity1=EventEntity, entity2=EventEntity, action="fnd0")
  6: 0x049C [0x5B] LOAD_EXT_SCHEDULER(work_offset=216*, entity1=EventEntity, entity2=EventEntity, action="fnd1")
  7: 0x04AB [0x53] WAIT_SCHEDULER_TASK(entity1=EventEntity, entity2=EventEntity, action_id="fnd1")
  8: 0x04B8 [0x00] END_REQSTACK()
```
