# Event 249

## Metadata

| Field           | Value    |
|-----------------|----------|
| Event Index     | 25/60    |
| Offset          | 0x0174   |
| Data Size       | 40 bytes |
| Calculated Size | 40 bytes |
| Instructions    | 11       |

```
      00 01 02 03 04 05 06 07  08 09 0A 0B 0C 0D 0E 0F
      -- -- -- -- -- -- -- --  -- -- -- -- -- -- -- --
0170:             29 08 4A E0  0E 01 15 1D 03 80 23 29      ).J.......#)
0180: 08 4A E0 0E 01 16 29 08  4A E0 0E 01 01 1D 04 80  .J....).J.......
0190: 23 29 08 4A E0 0E 01 02  20 00 21 00              #).J.... .!.    
```

## Opcodes

```
  0: 0x0174 [0x29] REQ_SET_WAIT(priority=0x08, entity_id=Ranpi-Monpi (ID: 17752138/0x010EE04A), tag_num=0x15)
  1: 0x017B [0x1D] PRINT_EVENT_MESSAGE(message_id=7874*)
    → "La piece de resistance\u0001`\u0001t\u0007Mes secrets ingr\u0008idients\u0001`\u0001t\u007F1\u0000\u0007"
  2: 0x017E [0x23] WAIT_FOR_DIALOG_INTERACTION
  3: 0x017F [0x29] REQ_SET_WAIT(priority=0x08, entity_id=Ranpi-Monpi (ID: 17752138/0x010EE04A), tag_num=0x16)
  4: 0x0186 [0x29] REQ_SET_WAIT(priority=0x08, entity_id=Ranpi-Monpi (ID: 17752138/0x010EE04A), tag_num=0x01)
  5: 0x018D [0x1D] PRINT_EVENT_MESSAGE(message_id=7875*)
    → "Nutmegs, beans and jalape\u0008qos too\u0001`\u0001t\u0007Zat's how we make Martha Stew\u0001`\u0001t\u007F1\u0000\u0007"
  6: 0x0190 [0x23] WAIT_FOR_DIALOG_INTERACTION
  7: 0x0191 [0x29] REQ_SET_WAIT(priority=0x08, entity_id=Ranpi-Monpi (ID: 17752138/0x010EE04A), tag_num=0x02)
  8: 0x0198 [0x20] SET_CLI_EVENT_UC_FLAG: Unlock player control
  9: 0x019A [0x21] END_EVENT
 10: 0x019B [0x00] END_REQSTACK()
```
