# Event 554

## Metadata

| Field           | Value    |
|-----------------|----------|
| Event Index     | 41/60    |
| Offset          | 0x0474   |
| Data Size       | 39 bytes |
| Calculated Size | 39 bytes |
| Instructions    | 10       |

```
      00 01 02 03 04 05 06 07  08 09 0A 0B 0C 0D 0E 0F
      -- -- -- -- -- -- -- --  -- -- -- -- -- -- -- --
0470:             1E F0 FF FF  7F 6F 70 29 0B 4A E0 0E      .....op).J..
0480: 01 29 29 0B 4A E0 0E 01  2A 29 0B 4A E0 0E 01 2B  .)).J...*).J...+
0490: 29 0B 4A E0 0E 01 2C 20  00 21 00                 ).J..., .!.     
```

## Opcodes

```
  0: 0x0474 [0x1E] EventEntity looks at LocalPlayer and starts talking
  1: 0x0479 [0x6F] WAIT_FRAME_DELAY: Yield until WaitTime reaches zero
  2: 0x047A [0x70] WAIT_ENTITY_RENDER_FLAG: Wait while EventEntity->Render.Flags3 bit 2 is set (cancel turn if not)
  3: 0x047B [0x29] REQ_SET_WAIT(priority=0x0B, entity_id=Ranpi-Monpi (ID: 17752138/0x010EE04A), tag_num=0x29)
  4: 0x0482 [0x29] REQ_SET_WAIT(priority=0x0B, entity_id=Ranpi-Monpi (ID: 17752138/0x010EE04A), tag_num=0x2A)
  5: 0x0489 [0x29] REQ_SET_WAIT(priority=0x0B, entity_id=Ranpi-Monpi (ID: 17752138/0x010EE04A), tag_num=0x2B)
  6: 0x0490 [0x29] REQ_SET_WAIT(priority=0x0B, entity_id=Ranpi-Monpi (ID: 17752138/0x010EE04A), tag_num=0x2C)
  7: 0x0497 [0x20] SET_CLI_EVENT_UC_FLAG: Unlock player control
  8: 0x0499 [0x21] END_EVENT
  9: 0x049A [0x00] END_REQSTACK()
```
