# Event 556

## Metadata

| Field           | Value    |
|-----------------|----------|
| Event Index     | 47/60    |
| Offset          | 0x04CA   |
| Data Size       | 35 bytes |
| Calculated Size | 35 bytes |
| Instructions    | 11       |

```
      00 01 02 03 04 05 06 07  08 09 0A 0B 0C 0D 0E 0F
      -- -- -- -- -- -- -- --  -- -- -- -- -- -- -- --
04C0:                                20 01 42 1E F0 FF             .B...
04D0: FF 7F 6F 70 29 0B 4A E0  0E 01 2F 29 0B 4A E0 0E  ..op).J.../).J..
04E0: 01 30 29 0B 4A E0 0E 01  31 20 00 21 00           .0).J...1 .!.   
```

## Opcodes

```
  0: 0x04CA [0x20] SET_CLI_EVENT_UC_FLAG: Lock player control
  1: 0x04CC [0x42] SET_CLI_EVENT_CANCEL_DATA()
  2: 0x04CD [0x1E] EventEntity looks at LocalPlayer and starts talking
  3: 0x04D2 [0x6F] WAIT_FRAME_DELAY: Yield until WaitTime reaches zero
  4: 0x04D3 [0x70] WAIT_ENTITY_RENDER_FLAG: Wait while EventEntity->Render.Flags3 bit 2 is set (cancel turn if not)
  5: 0x04D4 [0x29] REQ_SET_WAIT(priority=0x0B, entity_id=Ranpi-Monpi (ID: 17752138/0x010EE04A), tag_num=0x2F)
  6: 0x04DB [0x29] REQ_SET_WAIT(priority=0x0B, entity_id=Ranpi-Monpi (ID: 17752138/0x010EE04A), tag_num=0x30)
  7: 0x04E2 [0x29] REQ_SET_WAIT(priority=0x0B, entity_id=Ranpi-Monpi (ID: 17752138/0x010EE04A), tag_num=0x31)
  8: 0x04E9 [0x20] SET_CLI_EVENT_UC_FLAG: Unlock player control
  9: 0x04EB [0x21] END_EVENT
 10: 0x04EC [0x00] END_REQSTACK()
```
