# Event 65535

## Metadata

| Field           | Value    |
|-----------------|----------|
| Event Index     | 35/60    |
| Offset          | 0x038E   |
| Data Size       | 37 bytes |
| Calculated Size | 37 bytes |
| Instructions    | 9        |

```
      00 01 02 03 04 05 06 07  08 09 0A 0B 0C 0D 0E 0F
      -- -- -- -- -- -- -- --  -- -- -- -- -- -- -- --
0380:                                            29 08                ).
0390: 4A E0 0E 01 0F 1D 1A 80  23 29 08 4A E0 0E 01 10  J.......#).J....
03A0: 29 08 4A E0 0E 01 01 1D  1B 80 23 29 08 4A E0 0E  ).J.......#).J..
03B0: 01 02 00                                          ...             
```

## Opcodes

```
  0: 0x038E [0x29] REQ_SET_WAIT(priority=0x08, entity_id=Ranpi-Monpi (ID: 17752138/0x010EE04A), tag_num=0x0F)
  1: 0x0395 [0x1D] PRINT_EVENT_MESSAGE(message_id=7895*)
    → "Sacrebleu!\u0007Not again!?\u007F1\u0000\u0007"
  2: 0x0398 [0x23] WAIT_FOR_DIALOG_INTERACTION
  3: 0x0399 [0x29] REQ_SET_WAIT(priority=0x08, entity_id=Ranpi-Monpi (ID: 17752138/0x010EE04A), tag_num=0x10)
  4: 0x03A0 [0x29] REQ_SET_WAIT(priority=0x08, entity_id=Ranpi-Monpi (ID: 17752138/0x010EE04A), tag_num=0x01)
  5: 0x03A7 [0x1D] PRINT_EVENT_MESSAGE(message_id=7896*)
    → "Oh, you're back...and just in time! \u0007Au secour!\u0007Pleeze save Windurst one more time!\u007F1\u0000\u0007"
  6: 0x03AA [0x23] WAIT_FOR_DIALOG_INTERACTION
  7: 0x03AB [0x29] REQ_SET_WAIT(priority=0x08, entity_id=Ranpi-Monpi (ID: 17752138/0x010EE04A), tag_num=0x02)
  8: 0x03B2 [0x00] END_REQSTACK()
```
