# Event 979

## Metadata

| Field           | Value    |
|-----------------|----------|
| Event Index     | 56/60    |
| Offset          | 0x0AC2   |
| Data Size       | 38 bytes |
| Calculated Size | 38 bytes |
| Instructions    | 10       |

```
      00 01 02 03 04 05 06 07  08 09 0A 0B 0C 0D 0E 0F
      -- -- -- -- -- -- -- --  -- -- -- -- -- -- -- --
0AC0:       1E F0 FF FF 7F 1C  01 80 03 02 10 3E 80 03    ...........>..
0AD0: 03 10 3F 80 03 04 10 40  80 03 05 10 41 80 2B 4A  ..?....@....A.+J
0AE0: E0 0E 01 57 80 23 21 00                           ...W.#!.        
```

## Opcodes

```
  0: 0x0AC2 [0x1E] EventEntity looks at LocalPlayer and starts talking
  1: 0x0AC7 [0x1C] WAIT(30* ticks)
  2: 0x0ACA [0x03] Work_Zone[2] = 5473*
  3: 0x0ACF [0x03] Work_Zone[3] = 5661*
  4: 0x0AD4 [0x03] Work_Zone[4] = 5662*
  5: 0x0AD9 [0x03] Work_Zone[5] = 5660*
  6: 0x0ADE [0x2B] Ranpi-Monpi (ID: 17752138/0x010EE04A) [12376*]:
    → "Do not forget zee ingredients! I require \u0001\u0001\u0001 \u0001\u0005$\u0002\u0000\u0000\u0000, \u0001\u0001\u0001 \u0001\u0005$\u0002\u0001\u0000\u0000, \u0001\u0001\u0001 \u0001\u0005$\u0002\u0002\u0000\u0000, and \u0001\u0001\u0001 \u0001\u0005$\u0002\u0003\u0000\u0000.\u007F1\u0000\u0007"
  7: 0x0AE5 [0x23] WAIT_FOR_DIALOG_INTERACTION
  8: 0x0AE6 [0x21] END_EVENT
  9: 0x0AE7 [0x00] END_REQSTACK()
```
