# 16843087

## Common Data

| Field            | Value                      |
|------------------|----------------------------|
| Zone             | Promyvion - Holla (ID: 16) |
| Block Size       | 28952 bytes                |
| Total Events     | 7                          |
| References Count | 369                        |

## List of Events

| Event ID              | Entrypoint   |   Size |   Instructions |
|-----------------------|--------------|--------|----------------|
| [65535](#event-65535) | 0x0000       |      1 |              1 |
| [54](#event-54)       | 0x0001       |   1661 |            424 |
| [55](#event-55)       | 0x067E       |   1661 |            424 |
| [56](#event-56)       | 0x0CFB       |   1661 |            424 |
| [57](#event-57)       | 0x1378       |   1661 |            424 |
| [58](#event-58)       | 0x19F5       |   1661 |            424 |
| [53](#event-53)       | 0x2072       |  19125 |           3278 |

## DAT References (imed_data)

|   Index | Hex Value   |   Dec Value |
|---------|-------------|-------------|
|       0 | 0xFFFF2A9F  |  4294912671 |
|       1 | 0x1C645     |      116293 |
|       2 | 0xFFFFFFDC  |  4294967260 |
|       3 | 0x0835      |        2101 |
|       4 | 0x0001      |           1 |
|       5 | 0x0000      |           0 |
|       6 | 0x0002      |           2 |
|       7 | 0x1C67      |        7271 |
|       8 | 0x1C73      |        7283 |
|       9 | 0x1C7F      |        7295 |
|      10 | 0x1C68      |        7272 |
|      11 | 0x1C74      |        7284 |
|      12 | 0x1C80      |        7296 |
|      13 | 0x0003      |           3 |
|      14 | 0x1C69      |        7273 |
|      15 | 0x1C75      |        7285 |
|      16 | 0x1C81      |        7297 |
|      17 | 0x0004      |           4 |
|      18 | 0x1C6A      |        7274 |
|      19 | 0x1C76      |        7286 |
|      20 | 0x1C82      |        7298 |
|      21 | 0x0005      |           5 |
|      22 | 0x1C6D      |        7277 |
|      23 | 0x1C79      |        7289 |
|      24 | 0x1C85      |        7301 |
|      25 | 0x0006      |           6 |
|      26 | 0x1C6E      |        7278 |
|      27 | 0x1C7A      |        7290 |
|      28 | 0x1C86      |        7302 |
|      29 | 0x0007      |           7 |
|      30 | 0x1C6F      |        7279 |
|      31 | 0x1C7B      |        7291 |
|      32 | 0x1C87      |        7303 |
|      33 | 0x0008      |           8 |
|      34 | 0x1C70      |        7280 |
|      35 | 0x1C7C      |        7292 |
|      36 | 0x1C88      |        7304 |
|      37 | 0x0009      |           9 |
|      38 | 0x1C71      |        7281 |
|      39 | 0x1C7D      |        7293 |
|      40 | 0x1C89      |        7305 |
|      41 | 0x000A      |          10 |
|      42 | 0x1C6B      |        7275 |
|      43 | 0x1C77      |        7287 |
|      44 | 0x1C83      |        7299 |
|      45 | 0x000B      |          11 |
|      46 | 0x1C6C      |        7276 |
|      47 | 0x1C78      |        7288 |
|      48 | 0x1C84      |        7300 |
|      49 | 0x000C      |          12 |
|      50 | 0x1C72      |        7282 |
|      51 | 0x1C7E      |        7294 |
|      52 | 0x1C8A      |        7306 |
|      53 | 0x1C8B      |        7307 |
|      54 | 0x1C8C      |        7308 |
|      55 | 0x1C8D      |        7309 |
|      56 | 0x1C8E      |        7310 |
|      57 | 0x1C91      |        7313 |
|      58 | 0x1C92      |        7314 |
|      59 | 0x1C93      |        7315 |
|      60 | 0x1C94      |        7316 |
|      61 | 0x1C95      |        7317 |
|      62 | 0x1C8F      |        7311 |
|      63 | 0x1C90      |        7312 |
|      64 | 0x1C96      |        7318 |
|      65 | 0x1C97      |        7319 |
|      66 | 0x1C98      |        7320 |
|      67 | 0x1CB0      |        7344 |
|      68 | 0x1C99      |        7321 |
|      69 | 0x1CB1      |        7345 |
|      70 | 0x1C9A      |        7322 |
|      71 | 0x1CB2      |        7346 |
|      72 | 0x1C9B      |        7323 |
|      73 | 0x1CB3      |        7347 |
|      74 | 0x1C9E      |        7326 |
|      75 | 0x1CB6      |        7350 |
|      76 | 0x1C9F      |        7327 |
|      77 | 0x1CB7      |        7351 |
|      78 | 0x1CA0      |        7328 |
|      79 | 0x1CB8      |        7352 |
|      80 | 0x1CA1      |        7329 |
|      81 | 0x1CB9      |        7353 |
|      82 | 0x1CA2      |        7330 |
|      83 | 0x1CBA      |        7354 |
|      84 | 0x1C9C      |        7324 |
|      85 | 0x1CB4      |        7348 |
|      86 | 0x1C9D      |        7325 |
|      87 | 0x1CB5      |        7349 |
|      88 | 0x1CA3      |        7331 |
|      89 | 0x1CBB      |        7355 |
|      90 | 0x1CBC      |        7356 |
|      91 | 0x1CBD      |        7357 |
|      92 | 0x1CBE      |        7358 |
|      93 | 0x1CBF      |        7359 |
|      94 | 0x1CC0      |        7360 |
|      95 | 0x1CC3      |        7363 |
|      96 | 0x1CC4      |        7364 |
|      97 | 0x1CC5      |        7365 |
|      98 | 0x1CC6      |        7366 |
|      99 | 0x1CC7      |        7367 |
|     100 | 0x1CC1      |        7361 |
|     101 | 0x1CC2      |        7362 |
|     102 | 0x1CC8      |        7368 |
|     103 | 0x0019      |          25 |
|     104 | 0xFFFD5029  |  4294791209 |
|     105 | 0xFFFF46AB  |  4294919851 |
|     106 | 0xFFFFFE90  |  4294966928 |
|     107 | 0x06A2      |        1698 |
|     108 | 0x39739     |      235321 |
|     109 | 0x39EC6     |      237254 |
|     110 | 0xFFFFFEED  |  4294967021 |
|     111 | 0x06C2      |        1730 |
|     112 | 0xFFFB07E3  |  4294641635 |
|     113 | 0x2F114     |      192788 |
|     114 | 0xFFFFFFA6  |  4294967206 |
|     115 | 0x07B7      |        1975 |
|     116 | 0x35064     |      217188 |
|     117 | 0xFFFCFC93  |  4294769811 |
|     118 | 0xFFFFF8FA  |  4294965498 |
|     119 | 0x0853      |        2131 |
|     120 | 0x00C8      |         200 |
|     121 | 0x0013      |          19 |
|     122 | 0x14C03     |       84995 |
|     123 | 0x17285     |       94853 |
|     124 | 0x0027      |          39 |
|     125 | 0x01AD      |         429 |
|     126 | 0x00C4      |         196 |
|     127 | 0x1C50      |        7248 |
|     128 | 0x1C51      |        7249 |
|     129 | 0x1C52      |        7250 |
|     130 | 0x1C53      |        7251 |
|     131 | 0x1C56      |        7254 |
|     132 | 0x1C57      |        7255 |
|     133 | 0x1C58      |        7256 |
|     134 | 0x1C59      |        7257 |
|     135 | 0x1C5A      |        7258 |
|     136 | 0x1C54      |        7252 |
|     137 | 0x1C55      |        7253 |
|     138 | 0x1C5B      |        7259 |
|     139 | 0x005F      |          95 |
|     140 | 0x0064      |         100 |
|     141 | 0x0069      |         105 |
|     142 | 0x0052      |          82 |
|     143 | 0x0057      |          87 |
|     144 | 0x005C      |          92 |
|     145 | 0x0059      |          89 |
|     146 | 0x005D      |          93 |
|     147 | 0x0061      |          97 |
|     148 | 0x0060      |          96 |
|     149 | 0x000D      |          13 |
|     150 | 0x0012      |          18 |
|     151 | 0x0014      |          20 |
|     152 | 0x0017      |          23 |
|     153 | 0x000F      |          15 |
|     154 | 0x000E      |          14 |
|     155 | 0x0018      |          24 |
|     156 | 0x001F      |          31 |
|     157 | 0x001B      |          27 |
|     158 | 0x0010      |          16 |
|     159 | 0x0015      |          21 |
|     160 | 0x018D      |         397 |
|     161 | 0x0175      |         373 |
|     162 | 0x0170      |         368 |
|     163 | 0x0171      |         369 |
|     164 | 0x014C      |         332 |
|     165 | 0x01C1      |         449 |
|     166 | 0x027C      |         636 |
|     167 | 0x027B      |         635 |
|     168 | 0x027D      |         637 |
|     169 | 0x02D3      |         723 |
|     170 | 0x0321      |         801 |
|     171 | 0x0326      |         806 |
|     172 | 0x01E1      |         481 |
|     173 | 0x0343      |         835 |
|     174 | 0x0386      |         902 |
|     175 | 0x0388      |         904 |
|     176 | 0x0361      |         865 |
|     177 | 0x0387      |         903 |
|     178 | 0x038A      |         906 |
|     179 | 0x003F      |          63 |
|     180 | 0x0282      |         642 |
|     181 | 0x0283      |         643 |
|     182 | 0x0288      |         648 |
|     183 | 0x0289      |         649 |
|     184 | 0x028A      |         650 |
|     185 | 0x028B      |         651 |
|     186 | 0x029E      |         670 |
|     187 | 0x00C6      |         198 |
|     188 | 0x0032      |          50 |
|     189 | 0x00B5      |         181 |
|     190 | 0x008C      |         140 |
|     191 | 0x008E      |         142 |
|     192 | 0x007A      |         122 |
|     193 | 0x014B      |         331 |
|     194 | 0x0148      |         328 |
|     195 | 0x0166      |         358 |
|     196 | 0x017A      |         378 |
|     197 | 0x0182      |         386 |
|     198 | 0x0183      |         387 |
|     199 | 0x0192      |         402 |
|     200 | 0x01DF      |         479 |
|     201 | 0x01E9      |         489 |
|     202 | 0x001C      |          28 |
|     203 | 0x00E6      |         230 |
|     204 | 0x00EB      |         235 |
|     205 | 0x00F5      |         245 |
|     206 | 0x007E      |         126 |
|     207 | 0x007F      |         127 |
|     208 | 0x00F3      |         243 |
|     209 | 0x00F4      |         244 |
|     210 | 0x00E0      |         224 |
|     211 | 0x00E9      |         233 |
|     212 | 0x009E      |         158 |
|     213 | 0x009D      |         157 |
|     214 | 0x00E2      |         226 |
|     215 | 0x00E1      |         225 |
|     216 | 0x014F      |         335 |
|     217 | 0x014E      |         334 |
|     218 | 0x0167      |         359 |
|     219 | 0x00E5      |         229 |
|     220 | 0x0169      |         361 |
|     221 | 0x016A      |         362 |
|     222 | 0x0168      |         360 |
|     223 | 0x0133      |         307 |
|     224 | 0x0174      |         372 |
|     225 | 0x018C      |         396 |
|     226 | 0x0194      |         404 |
|     227 | 0x0195      |         405 |
|     228 | 0x0178      |         376 |
|     229 | 0x0240      |         576 |
|     230 | 0x0197      |         407 |
|     231 | 0x0198      |         408 |
|     232 | 0x01A3      |         419 |
|     233 | 0x019E      |         414 |
|     234 | 0x0246      |         582 |
|     235 | 0x0247      |         583 |
|     236 | 0x0248      |         584 |
|     237 | 0x024B      |         587 |
|     238 | 0x024A      |         586 |
|     239 | 0x0011      |          17 |
|     240 | 0x024F      |         591 |
|     241 | 0x01C3      |         451 |
|     242 | 0x01C4      |         452 |
|     243 | 0x01EF      |         495 |
|     244 | 0x01F0      |         496 |
|     245 | 0x001A      |          26 |
|     246 | 0x0095      |         149 |
|     247 | 0x001D      |          29 |
|     248 | 0x0073      |         115 |
|     249 | 0x0034      |          52 |
|     250 | 0x0024      |          36 |
|     251 | 0x005E      |          94 |
|     252 | 0x0072      |         114 |
|     253 | 0x0031      |          49 |
|     254 | 0x006C      |         108 |
|     255 | 0x003A      |          58 |
|     256 | 0x0096      |         150 |
|     257 | 0x0016      |          22 |
|     258 | 0x0035      |          53 |
|     259 | 0x0085      |         133 |
|     260 | 0x0081      |         129 |
|     261 | 0x0023      |          35 |
|     262 | 0x0033      |          51 |
|     263 | 0x0082      |         130 |
|     264 | 0x0039      |          57 |
|     265 | 0x0020      |          32 |
|     266 | 0x0038      |          56 |
|     267 | 0x0036      |          54 |
|     268 | 0x0083      |         131 |
|     269 | 0x00A2      |         162 |
|     270 | 0x0022      |          34 |
|     271 | 0x0021      |          33 |
|     272 | 0x0065      |         101 |
|     273 | 0x0086      |         134 |
|     274 | 0x0062      |          98 |
|     275 | 0x008D      |         141 |
|     276 | 0x0037      |          55 |
|     277 | 0x008A      |         138 |
|     278 | 0x008B      |         139 |
|     279 | 0x002B      |          43 |
|     280 | 0x0067      |         103 |
|     281 | 0x0030      |          48 |
|     282 | 0x002D      |          45 |
|     283 | 0x00A1      |         161 |
|     284 | 0x0066      |         102 |
|     285 | 0x0075      |         117 |
|     286 | 0x0068      |         104 |
|     287 | 0x007B      |         123 |
|     288 | 0x0077      |         119 |
|     289 | 0x01FE      |         510 |
|     290 | 0x009F      |         159 |
|     291 | 0x00A4      |         164 |
|     292 | 0x00A9      |         169 |
|     293 | 0x00AC      |         172 |
|     294 | 0x00B2      |         178 |
|     295 | 0x00B0      |         176 |
|     296 | 0x013D      |         317 |
|     297 | 0x0108      |         264 |
|     298 | 0x010C      |         268 |
|     299 | 0x0100      |         256 |
|     300 | 0x00FB      |         251 |
|     301 | 0x00B8      |         184 |
|     302 | 0x011C      |         284 |
|     303 | 0x0041      |          65 |
|     304 | 0x0042      |          66 |
|     305 | 0x0047      |          71 |
|     306 | 0x0160      |         352 |
|     307 | 0x0043      |          67 |
|     308 | 0x0048      |          72 |
|     309 | 0x004B      |          75 |
|     310 | 0x004C      |          76 |
|     311 | 0x004D      |          77 |
|     312 | 0x005B      |          91 |
|     313 | 0x0058      |          88 |
|     314 | 0x0053      |          83 |
|     315 | 0x0054      |          84 |
|     316 | 0x0161      |         353 |
|     317 | 0x015C      |         348 |
|     318 | 0x016D      |         365 |
|     319 | 0x00C5      |         197 |
|     320 | 0x00C3      |         195 |
|     321 | 0x00C7      |         199 |
|     322 | 0x015E      |         350 |
|     323 | 0x016E      |         366 |
|     324 | 0x00D0      |         208 |
|     325 | 0x00CD      |         205 |
|     326 | 0x00CA      |         202 |
|     327 | 0x00D2      |         210 |
|     328 | 0x00D8      |         216 |
|     329 | 0x00D5      |         213 |
|     330 | 0x00D6      |         214 |
|     331 | 0x013B      |         315 |
|     332 | 0x0136      |         310 |
|     333 | 0x013A      |         314 |
|     334 | 0x0137      |         311 |
|     335 | 0x016F      |         367 |
|     336 | 0x0138      |         312 |
|     337 | 0x0139      |         313 |
|     338 | 0x009A      |         154 |
|     339 | 0x0091      |         145 |
|     340 | 0x009B      |         155 |
|     341 | 0x0099      |         153 |
|     342 | 0x0093      |         147 |
|     343 | 0x0092      |         146 |
|     344 | 0x0098      |         152 |
|     345 | 0x0071      |         113 |
|     346 | 0x00E8      |         232 |
|     347 | 0x00DD      |         221 |
|     348 | 0x00F8      |         248 |
|     349 | 0x00F1      |         241 |
|     350 | 0x0124      |         292 |
|     351 | 0x012E      |         302 |
|     352 | 0x0129      |         297 |
|     353 | 0x0122      |         290 |
|     354 | 0x0132      |         306 |
|     355 | 0x0126      |         294 |
|     356 | 0x0155      |         341 |
|     357 | 0x0025      |          37 |
|     358 | 0x0029      |          41 |
|     359 | 0x0028      |          40 |
|     360 | 0x007D      |         125 |
|     361 | 0x0079      |         121 |
|     362 | 0x007C      |         124 |
|     363 | 0x0074      |         116 |
|     364 | 0x00EC      |         236 |
|     365 | 0x019C      |         412 |
|     366 | 0x0193      |         403 |
|     367 | 0x01C6      |         454 |
|     368 | 0x01C7      |         455 |

## String References

- **7248**: Oh, thanks for coming. Well, let's start by checking any suspicious-looking place we can find.
- **7249**: You really came! Let's go! Hurry! Let's check out anything that looks out of place!
- **7250**: Hey. Let's look for any suspicious places and get this over with.
- **7251**: Thank you for deciding to accompany me. I propose that we begin by searching for anything suspicious.
- **7252**: I'm so happy you came! Now, let's go and search for anything suspicious.
- **7253**: It's good to see you here! Why don't we start by checking for things that look suspicious?
- **7254**: You're here! Shall we go investigate, then? Let's begin by looking for anything suspicious.
- **7255**: Ohhh, it's <Player>! Come on, let's go see if we can find anything suspicious!
- **7256**: Hm, you came after all. Well then, shall we go investigate? Be on the lookout for anything suspicious.
- **7257**: Oh, hey, <Player>! Come on, let's go! Let's check out aaall the weird places we can find!
- **7258**: Thank you for deciding to accompany me. I propose that we begin by searching for anything suspicious.
- **7259**: What took you so long? We commence the investigation immediately. Tell me if you notice anything suspicious.
- **7271**: Hm... I've seen this strange place a few times already now, but what could it possibly be?
- **7272**: Something is definitely weird here! Let's check it out!
- **7273**: What's this...? The scenery looks familiar, but kind of creepy...
- **7274**: What could this be? The outside world appears to be reflected in it.
- **7275**: This place gives me the creeps. Sometimes I'm not sure whether I'm really here or not...
- **7276**: Wh...what's this...? The scenary looks strangely familiar...
- **7277**: What is this? Why are some spots clear, and others are not?
- **7278**: Hm? This looks like...the outside world!? It looks like it, but it's different somehow! How could that be?
- **7279**: What could this be? It looks like the outside world, but why here...?
- **7280**: Eh? What's this? It's kind of different from everything else around here, huh?
- **7281**: What could this be? The outside world appears to be reflected in it.
- **7282**: A truly disturbing sight. It's as though parts of our world have been ripped out and left here in this darkness...
- **7283**: What in Vana'diel is this made of? I have a feeling we should check this out...
- **7284**: Something from outside made it in here!? Let's check it out!
- **7285**: ...Something from outside? Maybe not. It seems the same as everything else here.
- **7286**: There is something here. Is this not from outside? How did it come to be in such a place?
- **7287**: There's something here. But why would it be in a place like this? Everything feels out of place.
- **7288**: Isn't this something from outside...or not? What could it be...?
- **7289**: I've seen this before in the Emptiness... What could it be? Strange, isn't it?
- **7290**: Everything here is so creepy! I can't figure out if things in front of me are real or not! I don't get it at all!
- **7291**: Hm? This looks like something from outside. No, it's somehow...different.
- **7292**: Hmmm, I wonder what the stuff here is made out of.
- **7293**: There is something here. Is this not from outside? How did it come to be in such a place?
- **7294**: There is something here. It's similar to, but clearly not what we have in our own world...
- **7295**: What is this? Maybe if we examine it, we'll get some kind of hint...
- **7296**: There's something weird about this place! I can see it perfectly, but it somehow looks hazy! Let's check it out!
- **7297**: The outside world is somehow being reflected in this? Strange...
- **7298**: Everything here seems to be made of a peculiar substance. Let us find out as much about it as possible.
- **7299**: What could this be? I think it might be worth checking.
- **7300**: Now, what substance could this possibly be made from? Let's take a closer look, shall we?
- **7301**: There's something here. I'm not sure what it is, but I think we should check it out. Or rather I should say, I'm not sure what it is, and that's why we should check it out!
- **7302**: Hmmm! What could this be? Let's find out!
- **7303**: Did you find something? ...How strange. I'm not sure what to make of it.
- **7304**: What's that? I think I'm having deva ju, or whatever you call it! Anyway, it looks like something I saw outside, but somehow more...hazy...?
- **7305**: Everything here seems to be made of a peculiar substance. Let us find out as much about it as possible.
- **7306**: Hmmm... I've never seen anything like it before. This warrants close examination.
- **7307**: Anyway, we've learned all we can here. Want to go now?
- **7308**: Well, I think that's enough! Wanna go now?
- **7309**: I guess that's enough for now. Ready to go?
- **7310**: I suppose that completes our research for now. Shall we return?
- **7311**: I think we've found out all we could. How about we leave this creepy place behind?
- **7312**: We've collected enough information, don't you think? Time to head back?
- **7313**: Well, our research is complete. If there is nothing else you want to look at, we should head back now.
- **7314**: Well, I think that's about it! Want to go now?
- **7315**: I think that's enough, now. Shall we return?
- **7316**: Well, we found some weird stuff, alright! Wanna go back now?
- **7317**: I suppose that completes our research for now. Shall we return?
- **7318**: I'm satisfied with the information obtained. If there is nothing else, I say we return now.
- **7319**: Head back? [Yes, we're done./Not just yet.]
- **7320**: Thanks to you, I was able to gather a lot of information today. I appreciate it.
- **7321**: Thanks for your help today!
- **7322**: Well, let's head back then. I discovered a lot today.
- **7323**: Thank you very much for your assistance today. I was able to gather much valuable data.
- **7324**: Thanks, <Player>. With your help, I was able to learn a lot.
- **7325**: Great! Good job today, <Player>. We've got a lot to show for.
- **7326**: Okay, let's go, then! Thanks for all your help today. I learned some interesting things.
- **7327**: Well then, let's go! Thanks for everything today! I learned a lot!
- **7328**: I gathered a lot of valuable data today, thanks to you.
- **7329**: Yep, let's go home! I saw some strange stuff today! Thanks for everything!
- **7330**: Thank you very much for your assistance today. I was able to gather much valuable data.
- **7331**: Then, let us leave this place. You did well today.
- **7344**: I will warp you to the entrance if you wish to go. Well?
- **7345**: I'll warp you to the entrance if you wanna leave now! How about it?
- **7346**: If you do want to go, I will warp you to the entrance. Well?
- **7347**: If you desire to leave, I will warp you to the entrance.
- **7348**: Do you want me to warp you to the entrance?
- **7349**: I can warp you to the entrance if you like. Interested?
- **7350**: I can warp you to the entrance if you want. Well?
- **7351**: I'll warp you to the entrance if you want! How about it?
- **7352**: If you wish to leave, I can warp you to the entrance. Well?
- **7353**: If you wanna leave, I can warp you to the entrance! What do you want to do?
- **7354**: If you desire to leave, I will warp you to the entrance.
- **7355**: If you wish to be warped to the entrance, tell me.
- **7356**: Return to the entrance? [Yes./Not yet.]
- **7357**: See you later.
- **7358**: Later!
- **7359**: Later, then.
- **7360**: Until we meet again.
- **7361**: See you.
- **7362**: Take it easy!
- **7363**: I will see you later.
- **7364**: See ya later!
- **7365**: See you later, then.
- **7366**: Bye-bye!
- **7367**: Until we meet again.
- **7368**: Don't let me catch you slacking off.

## Events

### Event 65535

#### Metadata

| Field        | Value   |
|--------------|---------|
| Entrypoint   | 0x0000  |
| Data Size    | 1 bytes |
| Instructions | 1       |

```
      00 01 02 03 04 05 06 07  08 09 0A 0B 0C 0D 0E 0F
      -- -- -- -- -- -- -- --  -- -- -- -- -- -- -- --
0000: 00                                                .               
```

#### Opcodes

```
  0: 0x0000 [0x00] END_REQSTACK()
```

### Event 54

#### Metadata

| Field        | Value      |
|--------------|------------|
| Entrypoint   | 0x0001     |
| Data Size    | 1661 bytes |
| Instructions | 424        |

```
      00 01 02 03 04 05 06 07  08 09 0A 0B 0C 0D 0E 0F
      -- -- -- -- -- -- -- --  -- -- -- -- -- -- -- --
0000:    37 00 80 01 80 02 80  03 80 03 02 00 04 80 03   7..............
0010: 00 00 03 10 03 01 10 05  80 80 F8 FF FF 7F 1A CC  ................
0020: 22 1A 02 38 13 01 00 06  80 02 0B 00 04 80 80 61  "..8...........a
0030: 00 02 01 00 05 80 80 40  00 1D 07 80 23 01 5E 00  .......@....#.^.
0040: 02 01 00 04 80 80 4F 00  1D 08 80 23 01 5E 00 02  ......O....#.^..
0050: 01 00 06 80 80 5E 00 1D  09 80 23 01 5E 00 01 C9  .....^....#.^...
0060: 02 02 0B 00 06 80 80 99  00 02 01 00 05 80 80 78  ...............x
0070: 00 1D 0A 80 23 01 96 00  02 01 00 04 80 80 87 00  ....#...........
0080: 1D 0B 80 23 01 96 00 02  01 00 06 80 80 96 00 1D  ...#............
0090: 0C 80 23 01 96 00 01 C9  02 02 0B 00 0D 80 80 D1  ..#.............
00A0: 00 02 01 00 05 80 80 B0  00 1D 0E 80 23 01 CE 00  ............#...
00B0: 02 01 00 04 80 80 BF 00  1D 0F 80 23 01 CE 00 02  ...........#....
00C0: 01 00 06 80 80 CE 00 1D  10 80 23 01 CE 00 01 C9  ..........#.....
00D0: 02 02 0B 00 11 80 80 09  01 02 01 00 05 80 80 E8  ................
00E0: 00 1D 12 80 23 01 06 01  02 01 00 04 80 80 F7 00  ....#...........
00F0: 1D 13 80 23 01 06 01 02  01 00 06 80 80 06 01 1D  ...#............
0100: 14 80 23 01 06 01 01 C9  02 02 0B 00 15 80 80 41  ..#............A
0110: 01 02 01 00 05 80 80 20  01 1D 16 80 23 01 3E 01  ....... ....#.>.
0120: 02 01 00 04 80 80 2F 01  1D 17 80 23 01 3E 01 02  ....../....#.>..
0130: 01 00 06 80 80 3E 01 1D  18 80 23 01 3E 01 01 C9  .....>....#.>...
0140: 02 02 0B 00 19 80 80 79  01 02 01 00 05 80 80 58  .......y.......X
0150: 01 1D 1A 80 23 01 76 01  02 01 00 04 80 80 67 01  ....#.v.......g.
0160: 1D 1B 80 23 01 76 01 02  01 00 06 80 80 76 01 1D  ...#.v.......v..
0170: 1C 80 23 01 76 01 01 C9  02 02 0B 00 1D 80 80 B1  ..#.v...........
0180: 01 02 01 00 05 80 80 90  01 1D 1E 80 23 01 AE 01  ............#...
0190: 02 01 00 04 80 80 9F 01  1D 1F 80 23 01 AE 01 02  ...........#....
01A0: 01 00 06 80 80 AE 01 1D  20 80 23 01 AE 01 01 C9  ........ .#.....
01B0: 02 02 0B 00 21 80 80 E9  01 02 01 00 05 80 80 C8  ....!...........
01C0: 01 1D 22 80 23 01 E6 01  02 01 00 04 80 80 D7 01  ..".#...........
01D0: 1D 23 80 23 01 E6 01 02  01 00 06 80 80 E6 01 1D  .#.#............
01E0: 24 80 23 01 E6 01 01 C9  02 02 0B 00 25 80 80 21  $.#.........%..!
01F0: 02 02 01 00 05 80 80 00  02 1D 26 80 23 01 1E 02  ..........&.#...
0200: 02 01 00 04 80 80 0F 02  1D 27 80 23 01 1E 02 02  .........'.#....
0210: 01 00 06 80 80 1E 02 1D  28 80 23 01 1E 02 01 C9  ........(.#.....
0220: 02 02 0B 00 29 80 80 59  02 02 01 00 05 80 80 38  ....)..Y.......8
0230: 02 1D 2A 80 23 01 56 02  02 01 00 04 80 80 47 02  ..*.#.V.......G.
0240: 1D 2B 80 23 01 56 02 02  01 00 06 80 80 56 02 1D  .+.#.V.......V..
0250: 2C 80 23 01 56 02 01 C9  02 02 0B 00 2D 80 80 91  ,.#.V.......-...
0260: 02 02 01 00 05 80 80 70  02 1D 2E 80 23 01 8E 02  .......p....#...
0270: 02 01 00 04 80 80 7F 02  1D 2F 80 23 01 8E 02 02  ........./.#....
0280: 01 00 06 80 80 8E 02 1D  30 80 23 01 8E 02 01 C9  ........0.#.....
0290: 02 02 0B 00 31 80 80 C9  02 02 01 00 05 80 80 A8  ....1...........
02A0: 02 1D 32 80 23 01 C6 02  02 01 00 04 80 80 B7 02  ..2.#...........
02B0: 1D 33 80 23 01 C6 02 02  01 00 06 80 80 C6 02 1D  .3.#............
02C0: 34 80 23 01 C6 02 01 C9  02 02 0B 00 04 80 80 D8  4.#.............
02D0: 02 1D 35 80 23 01 7D 03  02 0B 00 06 80 80 E7 02  ..5.#.}.........
02E0: 1D 36 80 23 01 7D 03 02  0B 00 0D 80 80 F6 02 1D  .6.#.}..........
02F0: 37 80 23 01 7D 03 02 0B  00 11 80 80 05 03 1D 38  7.#.}..........8
0300: 80 23 01 7D 03 02 0B 00  15 80 80 14 03 1D 39 80  .#.}..........9.
0310: 23 01 7D 03 02 0B 00 19  80 80 23 03 1D 3A 80 23  #.}.......#..:.#
0320: 01 7D 03 02 0B 00 1D 80  80 32 03 1D 3B 80 23 01  .}.......2..;.#.
0330: 7D 03 02 0B 00 21 80 80  41 03 1D 3C 80 23 01 7D  }....!..A..<.#.}
0340: 03 02 0B 00 25 80 80 50  03 1D 3D 80 23 01 7D 03  ....%..P..=.#.}.
0350: 02 0B 00 29 80 80 5F 03  1D 3E 80 23 01 7D 03 02  ...).._..>.#.}..
0360: 0B 00 2D 80 80 6E 03 1D  3F 80 23 01 7D 03 02 0B  ..-..n..?.#.}...
0370: 00 31 80 80 7D 03 1D 40  80 23 01 7D 03 24 41 80  .1..}..@.#.}.$A.
0380: 04 80 05 80 25 02 00 10  05 80 00 7C 06 43 00 43  ....%......|.C.C
0390: 01 42 02 0B 00 04 80 80  A5 03 1D 42 80 23 1D 43  .B.........B.#.C
03A0: 80 23 01 76 04 02 0B 00  06 80 80 B8 03 1D 44 80  .#.v..........D.
03B0: 23 1D 45 80 23 01 76 04  02 0B 00 0D 80 80 CB 03  #.E.#.v.........
03C0: 1D 46 80 23 1D 47 80 23  01 76 04 02 0B 00 11 80  .F.#.G.#.v......
03D0: 80 DE 03 1D 48 80 23 1D  49 80 23 01 76 04 02 0B  ....H.#.I.#.v...
03E0: 00 15 80 80 F1 03 1D 4A  80 23 1D 4B 80 23 01 76  .......J.#.K.#.v
03F0: 04 02 0B 00 19 80 80 04  04 1D 4C 80 23 1D 4D 80  ..........L.#.M.
0400: 23 01 76 04 02 0B 00 1D  80 80 17 04 1D 4E 80 23  #.v..........N.#
0410: 1D 4F 80 23 01 76 04 02  0B 00 21 80 80 2A 04 1D  .O.#.v....!..*..
0420: 50 80 23 1D 51 80 23 01  76 04 02 0B 00 25 80 80  P.#.Q.#.v....%..
0430: 3D 04 1D 52 80 23 1D 53  80 23 01 76 04 02 0B 00  =..R.#.S.#.v....
0440: 29 80 80 50 04 1D 54 80  23 1D 55 80 23 01 76 04  )..P..T.#.U.#.v.
0450: 02 0B 00 2D 80 80 63 04  1D 56 80 23 1D 57 80 23  ...-..c..V.#.W.#
0460: 01 76 04 02 0B 00 31 80  80 76 04 1D 58 80 23 1D  .v....1..v..X.#.
0470: 59 80 23 01 76 04 24 5A  80 04 80 05 80 25 02 00  Y.#.v.$Z.....%..
0480: 10 05 80 00 B5 05 02 0B  00 04 80 80 95 04 1D 5B  ...............[
0490: 80 23 01 3A 05 02 0B 00  06 80 80 A4 04 1D 5C 80  .#.:..........\.
04A0: 23 01 3A 05 02 0B 00 0D  80 80 B3 04 1D 5D 80 23  #.:..........].#
04B0: 01 3A 05 02 0B 00 11 80  80 C2 04 1D 5E 80 23 01  .:..........^.#.
04C0: 3A 05 02 0B 00 15 80 80  D1 04 1D 5F 80 23 01 3A  :.........._.#.:
04D0: 05 02 0B 00 19 80 80 E0  04 1D 60 80 23 01 3A 05  ..........`.#.:.
04E0: 02 0B 00 1D 80 80 EF 04  1D 61 80 23 01 3A 05 02  .........a.#.:..
04F0: 0B 00 21 80 80 FE 04 1D  62 80 23 01 3A 05 02 0B  ..!.....b.#.:...
0500: 00 25 80 80 0D 05 1D 63  80 23 01 3A 05 02 0B 00  .%.....c.#.:....
0510: 29 80 80 1C 05 1D 64 80  23 01 3A 05 02 0B 00 2D  ).....d.#.:....-
0520: 80 80 2B 05 1D 65 80 23  01 3A 05 02 0B 00 31 80  ..+..e.#.:....1.
0530: 80 3A 05 1D 66 80 23 01  3A 05 02 02 00 04 80 80  .:..f.#.:.......
0540: 51 05 AD 00 67 80 4A 01  01 01 F0 FF FF 7F 01 AD  Q...g.J.........
0550: 05 02 02 00 06 80 80 68  05 AD 00 67 80 4B 01 01  .......h...g.K..
0560: 01 F0 FF FF 7F 01 AD 05  02 02 00 0D 80 80 7F 05  ................
0570: AD 00 67 80 4C 01 01 01  F0 FF FF 7F 01 AD 05 02  ..g.L...........
0580: 02 00 11 80 80 96 05 AD  00 67 80 4D 01 01 01 F0  .........g.M....
0590: FF FF 7F 01 AD 05 02 02  00 15 80 80 AD 05 AD 00  ................
05A0: 67 80 4E 01 01 01 F0 FF  FF 7F 01 AD 05 03 01 10  g.N.............
05B0: 04 80 01 79 06 02 00 10  04 80 00 79 06 02 0B 00  ...y.......y....
05C0: 04 80 80 CC 05 1D 5B 80  23 01 71 06 02 0B 00 06  ......[.#.q.....
05D0: 80 80 DB 05 1D 5C 80 23  01 71 06 02 0B 00 0D 80  .....\.#.q......
05E0: 80 EA 05 1D 5D 80 23 01  71 06 02 0B 00 11 80 80  ....].#.q.......
05F0: F9 05 1D 5E 80 23 01 71  06 02 0B 00 15 80 80 08  ...^.#.q........
0600: 06 1D 5F 80 23 01 71 06  02 0B 00 19 80 80 17 06  .._.#.q.........
0610: 1D 60 80 23 01 71 06 02  0B 00 1D 80 80 26 06 1D  .`.#.q.......&..
0620: 61 80 23 01 71 06 02 0B  00 21 80 80 35 06 1D 62  a.#.q....!..5..b
0630: 80 23 01 71 06 02 0B 00  25 80 80 44 06 1D 63 80  .#.q....%..D..c.
0640: 23 01 71 06 02 0B 00 29  80 80 53 06 1D 64 80 23  #.q....)..S..d.#
0650: 01 71 06 02 0B 00 2D 80  80 62 06 1D 65 80 23 01  .q....-..b..e.#.
0660: 71 06 02 0B 00 31 80 80  71 06 1D 66 80 23 01 71  q....1..q..f.#.q
0670: 06 03 01 10 06 80 01 79  06 01 7C 06 21 00        .......y..|.!.  
```

#### Opcodes

```
  0: 0x0001 [0x37] UPDATE_EVENT_POSITION_AND_DIR: x=-54.625*, z=116.293*, y=-0.036*, direction=184.7°*
  1: 0x000A [0x03] ExtData[1]->WorkLocal[2] = 1*
  2: 0x000F [0x03] ExtData[1]->WorkLocal[0] = Work_Zone[3]
  3: 0x0014 [0x03] Work_Zone[1] = 0*
  4: 0x0019 [0x80] LOAD_WAIT(entity=EventEntity)
  5: 0x001E [0x1A] CALL_SUBROUTINE(address=0x22CC)
  6: 0x0021 [0x1A] CALL_SUBROUTINE(address=0x3802)
  7: 0x0024 [0x13] ExtData[1]->WorkLocal[1] = rand() % 2*
  8: 0x0029 [0x02] IF !(ExtData[1]->WorkLocal[11] == 1*) GOTO 0x0061
  9: 0x0031 [0x02] IF !(ExtData[1]->WorkLocal[1] == 0*) GOTO 0x0040
 10: 0x0039 [0x1D] PRINT_EVENT_MESSAGE(message_id=7271*)
    → "Hm... I've seen this strange place a few times already now, but what could it possibly be?"
 11: 0x003C [0x23] WAIT_FOR_DIALOG_INTERACTION
 12: 0x003D [0x01] GOTO 0x005E
 13: 0x0040 [0x02] IF !(ExtData[1]->WorkLocal[1] == 1*) GOTO 0x004F
 14: 0x0048 [0x1D] PRINT_EVENT_MESSAGE(message_id=7283*)
    → "What in Vana'diel is this made of? I have a feeling we should check this out..."
 15: 0x004B [0x23] WAIT_FOR_DIALOG_INTERACTION
 16: 0x004C [0x01] GOTO 0x005E
 17: 0x004F [0x02] IF !(ExtData[1]->WorkLocal[1] == 2*) GOTO 0x005E
 18: 0x0057 [0x1D] PRINT_EVENT_MESSAGE(message_id=7295*)
    → "What is this? Maybe if we examine it, we'll get some kind of hint..."
 19: 0x005A [0x23] WAIT_FOR_DIALOG_INTERACTION
 20: 0x005B [0x01] GOTO 0x005E

SUBROUTINE_005E:
 21: 0x005E [0x01] GOTO 0x02C9
 22: 0x0061 [0x02] IF !(ExtData[1]->WorkLocal[11] == 2*) GOTO 0x0099
 23: 0x0069 [0x02] IF !(ExtData[1]->WorkLocal[1] == 0*) GOTO 0x0078
 24: 0x0071 [0x1D] PRINT_EVENT_MESSAGE(message_id=7272*)
    → "Something is definitely weird here! Let's check it out!"
 25: 0x0074 [0x23] WAIT_FOR_DIALOG_INTERACTION
 26: 0x0075 [0x01] GOTO 0x0096
 27: 0x0078 [0x02] IF !(ExtData[1]->WorkLocal[1] == 1*) GOTO 0x0087
 28: 0x0080 [0x1D] PRINT_EVENT_MESSAGE(message_id=7284*)
    → "Something from outside made it in here!? Let's check it out!"
 29: 0x0083 [0x23] WAIT_FOR_DIALOG_INTERACTION
 30: 0x0084 [0x01] GOTO 0x0096
 31: 0x0087 [0x02] IF !(ExtData[1]->WorkLocal[1] == 2*) GOTO 0x0096
 32: 0x008F [0x1D] PRINT_EVENT_MESSAGE(message_id=7296*)
    → "There's something weird about this place! I can see it perfectly, but it somehow looks hazy! Let's check it out!"
 33: 0x0092 [0x23] WAIT_FOR_DIALOG_INTERACTION
 34: 0x0093 [0x01] GOTO 0x0096

SUBROUTINE_0096:
 35: 0x0096 [0x01] GOTO 0x02C9
 36: 0x0099 [0x02] IF !(ExtData[1]->WorkLocal[11] == 3*) GOTO 0x00D1
 37: 0x00A1 [0x02] IF !(ExtData[1]->WorkLocal[1] == 0*) GOTO 0x00B0
 38: 0x00A9 [0x1D] PRINT_EVENT_MESSAGE(message_id=7273*)
    → "What's this...? The scenery looks familiar, but kind of creepy..."
 39: 0x00AC [0x23] WAIT_FOR_DIALOG_INTERACTION
 40: 0x00AD [0x01] GOTO 0x00CE
 41: 0x00B0 [0x02] IF !(ExtData[1]->WorkLocal[1] == 1*) GOTO 0x00BF
 42: 0x00B8 [0x1D] PRINT_EVENT_MESSAGE(message_id=7285*)
    → "...Something from outside? Maybe not. It seems the same as everything else here."
 43: 0x00BB [0x23] WAIT_FOR_DIALOG_INTERACTION
 44: 0x00BC [0x01] GOTO 0x00CE
 45: 0x00BF [0x02] IF !(ExtData[1]->WorkLocal[1] == 2*) GOTO 0x00CE
 46: 0x00C7 [0x1D] PRINT_EVENT_MESSAGE(message_id=7297*)
    → "The outside world is somehow being reflected in this? Strange..."
 47: 0x00CA [0x23] WAIT_FOR_DIALOG_INTERACTION
 48: 0x00CB [0x01] GOTO 0x00CE

SUBROUTINE_00CE:
 49: 0x00CE [0x01] GOTO 0x02C9
 50: 0x00D1 [0x02] IF !(ExtData[1]->WorkLocal[11] == 4*) GOTO 0x0109
 51: 0x00D9 [0x02] IF !(ExtData[1]->WorkLocal[1] == 0*) GOTO 0x00E8
 52: 0x00E1 [0x1D] PRINT_EVENT_MESSAGE(message_id=7274*)
    → "What could this be? The outside world appears to be reflected in it."
 53: 0x00E4 [0x23] WAIT_FOR_DIALOG_INTERACTION
 54: 0x00E5 [0x01] GOTO 0x0106
 55: 0x00E8 [0x02] IF !(ExtData[1]->WorkLocal[1] == 1*) GOTO 0x00F7
 56: 0x00F0 [0x1D] PRINT_EVENT_MESSAGE(message_id=7286*)
    → "There is something here. Is this not from outside? How did it come to be in such a place?"
 57: 0x00F3 [0x23] WAIT_FOR_DIALOG_INTERACTION
 58: 0x00F4 [0x01] GOTO 0x0106
 59: 0x00F7 [0x02] IF !(ExtData[1]->WorkLocal[1] == 2*) GOTO 0x0106
 60: 0x00FF [0x1D] PRINT_EVENT_MESSAGE(message_id=7298*)
    → "Everything here seems to be made of a peculiar substance. Let us find out as much about it as possible."
 61: 0x0102 [0x23] WAIT_FOR_DIALOG_INTERACTION
 62: 0x0103 [0x01] GOTO 0x0106

SUBROUTINE_0106:
 63: 0x0106 [0x01] GOTO 0x02C9
 64: 0x0109 [0x02] IF !(ExtData[1]->WorkLocal[11] == 5*) GOTO 0x0141
 65: 0x0111 [0x02] IF !(ExtData[1]->WorkLocal[1] == 0*) GOTO 0x0120
 66: 0x0119 [0x1D] PRINT_EVENT_MESSAGE(message_id=7277*)
    → "What is this? Why are some spots clear, and others are not?"
 67: 0x011C [0x23] WAIT_FOR_DIALOG_INTERACTION
 68: 0x011D [0x01] GOTO 0x013E
 69: 0x0120 [0x02] IF !(ExtData[1]->WorkLocal[1] == 1*) GOTO 0x012F
 70: 0x0128 [0x1D] PRINT_EVENT_MESSAGE(message_id=7289*)
    → "I've seen this before in the Emptiness... What could it be? Strange, isn't it?"
 71: 0x012B [0x23] WAIT_FOR_DIALOG_INTERACTION
 72: 0x012C [0x01] GOTO 0x013E
 73: 0x012F [0x02] IF !(ExtData[1]->WorkLocal[1] == 2*) GOTO 0x013E
 74: 0x0137 [0x1D] PRINT_EVENT_MESSAGE(message_id=7301*)
    → "There's something here. I'm not sure what it is, but I think we should check it out. Or rather I should say, I'm not sure what it is, and that's why we should check it out!"
 75: 0x013A [0x23] WAIT_FOR_DIALOG_INTERACTION
 76: 0x013B [0x01] GOTO 0x013E

SUBROUTINE_013E:
 77: 0x013E [0x01] GOTO 0x02C9
 78: 0x0141 [0x02] IF !(ExtData[1]->WorkLocal[11] == 6*) GOTO 0x0179
 79: 0x0149 [0x02] IF !(ExtData[1]->WorkLocal[1] == 0*) GOTO 0x0158
 80: 0x0151 [0x1D] PRINT_EVENT_MESSAGE(message_id=7278*)
    → "Hm? This looks like...the outside world!? It looks like it, but it's different somehow! How could that be?"
 81: 0x0154 [0x23] WAIT_FOR_DIALOG_INTERACTION
 82: 0x0155 [0x01] GOTO 0x0176
 83: 0x0158 [0x02] IF !(ExtData[1]->WorkLocal[1] == 1*) GOTO 0x0167
 84: 0x0160 [0x1D] PRINT_EVENT_MESSAGE(message_id=7290*)
    → "Everything here is so creepy! I can't figure out if things in front of me are real or not! I don't get it at all!"
 85: 0x0163 [0x23] WAIT_FOR_DIALOG_INTERACTION
 86: 0x0164 [0x01] GOTO 0x0176
 87: 0x0167 [0x02] IF !(ExtData[1]->WorkLocal[1] == 2*) GOTO 0x0176
 88: 0x016F [0x1D] PRINT_EVENT_MESSAGE(message_id=7302*)
    → "Hmmm! What could this be? Let's find out!"
 89: 0x0172 [0x23] WAIT_FOR_DIALOG_INTERACTION
 90: 0x0173 [0x01] GOTO 0x0176

SUBROUTINE_0176:
 91: 0x0176 [0x01] GOTO 0x02C9
 92: 0x0179 [0x02] IF !(ExtData[1]->WorkLocal[11] == 7*) GOTO 0x01B1
 93: 0x0181 [0x02] IF !(ExtData[1]->WorkLocal[1] == 0*) GOTO 0x0190
 94: 0x0189 [0x1D] PRINT_EVENT_MESSAGE(message_id=7279*)
    → "What could this be? It looks like the outside world, but why here...?"
 95: 0x018C [0x23] WAIT_FOR_DIALOG_INTERACTION
 96: 0x018D [0x01] GOTO 0x01AE
 97: 0x0190 [0x02] IF !(ExtData[1]->WorkLocal[1] == 1*) GOTO 0x019F
 98: 0x0198 [0x1D] PRINT_EVENT_MESSAGE(message_id=7291*)
    → "Hm? This looks like something from outside. No, it's somehow...different."
 99: 0x019B [0x23] WAIT_FOR_DIALOG_INTERACTION
100: 0x019C [0x01] GOTO 0x01AE
101: 0x019F [0x02] IF !(ExtData[1]->WorkLocal[1] == 2*) GOTO 0x01AE
102: 0x01A7 [0x1D] PRINT_EVENT_MESSAGE(message_id=7303*)
    → "Did you find something? ...How strange. I'm not sure what to make of it."
103: 0x01AA [0x23] WAIT_FOR_DIALOG_INTERACTION
104: 0x01AB [0x01] GOTO 0x01AE

SUBROUTINE_01AE:
105: 0x01AE [0x01] GOTO 0x02C9
106: 0x01B1 [0x02] IF !(ExtData[1]->WorkLocal[11] == 8*) GOTO 0x01E9
107: 0x01B9 [0x02] IF !(ExtData[1]->WorkLocal[1] == 0*) GOTO 0x01C8
108: 0x01C1 [0x1D] PRINT_EVENT_MESSAGE(message_id=7280*)
    → "Eh? What's this? It's kind of different from everything else around here, huh?"
109: 0x01C4 [0x23] WAIT_FOR_DIALOG_INTERACTION
110: 0x01C5 [0x01] GOTO 0x01E6
111: 0x01C8 [0x02] IF !(ExtData[1]->WorkLocal[1] == 1*) GOTO 0x01D7
112: 0x01D0 [0x1D] PRINT_EVENT_MESSAGE(message_id=7292*)
    → "Hmmm, I wonder what the stuff here is made out of."
113: 0x01D3 [0x23] WAIT_FOR_DIALOG_INTERACTION
114: 0x01D4 [0x01] GOTO 0x01E6
115: 0x01D7 [0x02] IF !(ExtData[1]->WorkLocal[1] == 2*) GOTO 0x01E6
116: 0x01DF [0x1D] PRINT_EVENT_MESSAGE(message_id=7304*)
    → "What's that? I think I'm having deva ju, or whatever you call it! Anyway, it looks like something I saw outside, but somehow more...hazy...?"
117: 0x01E2 [0x23] WAIT_FOR_DIALOG_INTERACTION
118: 0x01E3 [0x01] GOTO 0x01E6

SUBROUTINE_01E6:
119: 0x01E6 [0x01] GOTO 0x02C9
120: 0x01E9 [0x02] IF !(ExtData[1]->WorkLocal[11] == 9*) GOTO 0x0221
121: 0x01F1 [0x02] IF !(ExtData[1]->WorkLocal[1] == 0*) GOTO 0x0200
122: 0x01F9 [0x1D] PRINT_EVENT_MESSAGE(message_id=7281*)
    → "What could this be? The outside world appears to be reflected in it."
123: 0x01FC [0x23] WAIT_FOR_DIALOG_INTERACTION
124: 0x01FD [0x01] GOTO 0x021E
125: 0x0200 [0x02] IF !(ExtData[1]->WorkLocal[1] == 1*) GOTO 0x020F
126: 0x0208 [0x1D] PRINT_EVENT_MESSAGE(message_id=7293*)
    → "There is something here. Is this not from outside? How did it come to be in such a place?"
127: 0x020B [0x23] WAIT_FOR_DIALOG_INTERACTION
128: 0x020C [0x01] GOTO 0x021E
129: 0x020F [0x02] IF !(ExtData[1]->WorkLocal[1] == 2*) GOTO 0x021E
130: 0x0217 [0x1D] PRINT_EVENT_MESSAGE(message_id=7305*)
    → "Everything here seems to be made of a peculiar substance. Let us find out as much about it as possible."
131: 0x021A [0x23] WAIT_FOR_DIALOG_INTERACTION
132: 0x021B [0x01] GOTO 0x021E

SUBROUTINE_021E:
133: 0x021E [0x01] GOTO 0x02C9
134: 0x0221 [0x02] IF !(ExtData[1]->WorkLocal[11] == 10*) GOTO 0x0259
135: 0x0229 [0x02] IF !(ExtData[1]->WorkLocal[1] == 0*) GOTO 0x0238
136: 0x0231 [0x1D] PRINT_EVENT_MESSAGE(message_id=7275*)
    → "This place gives me the creeps. Sometimes I'm not sure whether I'm really here or not..."
137: 0x0234 [0x23] WAIT_FOR_DIALOG_INTERACTION
138: 0x0235 [0x01] GOTO 0x0256
139: 0x0238 [0x02] IF !(ExtData[1]->WorkLocal[1] == 1*) GOTO 0x0247
140: 0x0240 [0x1D] PRINT_EVENT_MESSAGE(message_id=7287*)
    → "There's something here. But why would it be in a place like this? Everything feels out of place."
141: 0x0243 [0x23] WAIT_FOR_DIALOG_INTERACTION
142: 0x0244 [0x01] GOTO 0x0256
143: 0x0247 [0x02] IF !(ExtData[1]->WorkLocal[1] == 2*) GOTO 0x0256
144: 0x024F [0x1D] PRINT_EVENT_MESSAGE(message_id=7299*)
    → "What could this be? I think it might be worth checking."
145: 0x0252 [0x23] WAIT_FOR_DIALOG_INTERACTION
146: 0x0253 [0x01] GOTO 0x0256

SUBROUTINE_0256:
147: 0x0256 [0x01] GOTO 0x02C9
148: 0x0259 [0x02] IF !(ExtData[1]->WorkLocal[11] == 11*) GOTO 0x0291
149: 0x0261 [0x02] IF !(ExtData[1]->WorkLocal[1] == 0*) GOTO 0x0270
150: 0x0269 [0x1D] PRINT_EVENT_MESSAGE(message_id=7276*)
    → "Wh...what's this...? The scenary looks strangely familiar..."
151: 0x026C [0x23] WAIT_FOR_DIALOG_INTERACTION
152: 0x026D [0x01] GOTO 0x028E
153: 0x0270 [0x02] IF !(ExtData[1]->WorkLocal[1] == 1*) GOTO 0x027F
154: 0x0278 [0x1D] PRINT_EVENT_MESSAGE(message_id=7288*)
    → "Isn't this something from outside...or not? What could it be...?"
155: 0x027B [0x23] WAIT_FOR_DIALOG_INTERACTION
156: 0x027C [0x01] GOTO 0x028E
157: 0x027F [0x02] IF !(ExtData[1]->WorkLocal[1] == 2*) GOTO 0x028E
158: 0x0287 [0x1D] PRINT_EVENT_MESSAGE(message_id=7300*)
    → "Now, what substance could this possibly be made from? Let's take a closer look, shall we?"
159: 0x028A [0x23] WAIT_FOR_DIALOG_INTERACTION
160: 0x028B [0x01] GOTO 0x028E

SUBROUTINE_028E:
161: 0x028E [0x01] GOTO 0x02C9
162: 0x0291 [0x02] IF !(ExtData[1]->WorkLocal[11] == 12*) GOTO 0x02C9
163: 0x0299 [0x02] IF !(ExtData[1]->WorkLocal[1] == 0*) GOTO 0x02A8
164: 0x02A1 [0x1D] PRINT_EVENT_MESSAGE(message_id=7282*)
    → "A truly disturbing sight. It's as though parts of our world have been ripped out and left here in this darkness..."
165: 0x02A4 [0x23] WAIT_FOR_DIALOG_INTERACTION
166: 0x02A5 [0x01] GOTO 0x02C6
167: 0x02A8 [0x02] IF !(ExtData[1]->WorkLocal[1] == 1*) GOTO 0x02B7
168: 0x02B0 [0x1D] PRINT_EVENT_MESSAGE(message_id=7294*)
    → "There is something here. It's similar to, but clearly not what we have in our own world..."
169: 0x02B3 [0x23] WAIT_FOR_DIALOG_INTERACTION
170: 0x02B4 [0x01] GOTO 0x02C6
171: 0x02B7 [0x02] IF !(ExtData[1]->WorkLocal[1] == 2*) GOTO 0x02C6
172: 0x02BF [0x1D] PRINT_EVENT_MESSAGE(message_id=7306*)
    → "Hmmm... I've never seen anything like it before. This warrants close examination."
173: 0x02C2 [0x23] WAIT_FOR_DIALOG_INTERACTION
174: 0x02C3 [0x01] GOTO 0x02C6

SUBROUTINE_02C6:
175: 0x02C6 [0x01] GOTO 0x02C9

SUBROUTINE_02C9:
176: 0x02C9 [0x02] IF !(ExtData[1]->WorkLocal[11] == 1*) GOTO 0x02D8
177: 0x02D1 [0x1D] PRINT_EVENT_MESSAGE(message_id=7307*)
    → "Anyway, we've learned all we can here. Want to go now?"
178: 0x02D4 [0x23] WAIT_FOR_DIALOG_INTERACTION
179: 0x02D5 [0x01] GOTO 0x037D
180: 0x02D8 [0x02] IF !(ExtData[1]->WorkLocal[11] == 2*) GOTO 0x02E7
181: 0x02E0 [0x1D] PRINT_EVENT_MESSAGE(message_id=7308*)
    → "Well, I think that's enough! Wanna go now?"
182: 0x02E3 [0x23] WAIT_FOR_DIALOG_INTERACTION
183: 0x02E4 [0x01] GOTO 0x037D
184: 0x02E7 [0x02] IF !(ExtData[1]->WorkLocal[11] == 3*) GOTO 0x02F6
185: 0x02EF [0x1D] PRINT_EVENT_MESSAGE(message_id=7309*)
    → "I guess that's enough for now. Ready to go?"
186: 0x02F2 [0x23] WAIT_FOR_DIALOG_INTERACTION
187: 0x02F3 [0x01] GOTO 0x037D
188: 0x02F6 [0x02] IF !(ExtData[1]->WorkLocal[11] == 4*) GOTO 0x0305
189: 0x02FE [0x1D] PRINT_EVENT_MESSAGE(message_id=7310*)
    → "I suppose that completes our research for now. Shall we return?"
190: 0x0301 [0x23] WAIT_FOR_DIALOG_INTERACTION
191: 0x0302 [0x01] GOTO 0x037D
192: 0x0305 [0x02] IF !(ExtData[1]->WorkLocal[11] == 5*) GOTO 0x0314
193: 0x030D [0x1D] PRINT_EVENT_MESSAGE(message_id=7313*)
    → "Well, our research is complete. If there is nothing else you want to look at, we should head back now."
194: 0x0310 [0x23] WAIT_FOR_DIALOG_INTERACTION
195: 0x0311 [0x01] GOTO 0x037D
196: 0x0314 [0x02] IF !(ExtData[1]->WorkLocal[11] == 6*) GOTO 0x0323
197: 0x031C [0x1D] PRINT_EVENT_MESSAGE(message_id=7314*)
    → "Well, I think that's about it! Want to go now?"
198: 0x031F [0x23] WAIT_FOR_DIALOG_INTERACTION
199: 0x0320 [0x01] GOTO 0x037D
200: 0x0323 [0x02] IF !(ExtData[1]->WorkLocal[11] == 7*) GOTO 0x0332
201: 0x032B [0x1D] PRINT_EVENT_MESSAGE(message_id=7315*)
    → "I think that's enough, now. Shall we return?"
202: 0x032E [0x23] WAIT_FOR_DIALOG_INTERACTION
203: 0x032F [0x01] GOTO 0x037D
204: 0x0332 [0x02] IF !(ExtData[1]->WorkLocal[11] == 8*) GOTO 0x0341
205: 0x033A [0x1D] PRINT_EVENT_MESSAGE(message_id=7316*)
    → "Well, we found some weird stuff, alright! Wanna go back now?"
206: 0x033D [0x23] WAIT_FOR_DIALOG_INTERACTION
207: 0x033E [0x01] GOTO 0x037D
208: 0x0341 [0x02] IF !(ExtData[1]->WorkLocal[11] == 9*) GOTO 0x0350
209: 0x0349 [0x1D] PRINT_EVENT_MESSAGE(message_id=7317*)
    → "I suppose that completes our research for now. Shall we return?"
210: 0x034C [0x23] WAIT_FOR_DIALOG_INTERACTION
211: 0x034D [0x01] GOTO 0x037D
212: 0x0350 [0x02] IF !(ExtData[1]->WorkLocal[11] == 10*) GOTO 0x035F
213: 0x0358 [0x1D] PRINT_EVENT_MESSAGE(message_id=7311*)
    → "I think we've found out all we could. How about we leave this creepy place behind?"
214: 0x035B [0x23] WAIT_FOR_DIALOG_INTERACTION
215: 0x035C [0x01] GOTO 0x037D
216: 0x035F [0x02] IF !(ExtData[1]->WorkLocal[11] == 11*) GOTO 0x036E
217: 0x0367 [0x1D] PRINT_EVENT_MESSAGE(message_id=7312*)
    → "We've collected enough information, don't you think? Time to head back?"
218: 0x036A [0x23] WAIT_FOR_DIALOG_INTERACTION
219: 0x036B [0x01] GOTO 0x037D
220: 0x036E [0x02] IF !(ExtData[1]->WorkLocal[11] == 12*) GOTO 0x037D
221: 0x0376 [0x1D] PRINT_EVENT_MESSAGE(message_id=7318*)
    → "I'm satisfied with the information obtained. If there is nothing else, I say we return now."
222: 0x0379 [0x23] WAIT_FOR_DIALOG_INTERACTION
223: 0x037A [0x01] GOTO 0x037D

SUBROUTINE_037D:
224: 0x037D [0x24] CREATE_DIALOG(message_id=7319*, default_option=1*, option_flags=0*)
    → "Head back? [Yes, we're done./Not just yet.]"
225: 0x0384 [0x25] WAIT_DIALOG_SELECT()
226: 0x0385 [0x02] IF !(Work_Zone[0] == 0*) GOTO 0x067C
227: 0x038D [0x43] SEND_EVENT_UPDATE: Send pending tag to server (packet 0x005B)
228: 0x038F [0x43] SEND_EVENT_UPDATE: Check pending flag (skip if not pending)
229: 0x0391 [0x42] SET_CLI_EVENT_CANCEL_DATA()
230: 0x0392 [0x02] IF !(ExtData[1]->WorkLocal[11] == 1*) GOTO 0x03A5
231: 0x039A [0x1D] PRINT_EVENT_MESSAGE(message_id=7320*)
    → "Thanks to you, I was able to gather a lot of information today. I appreciate it."
232: 0x039D [0x23] WAIT_FOR_DIALOG_INTERACTION
233: 0x039E [0x1D] PRINT_EVENT_MESSAGE(message_id=7344*)
    → "I will warp you to the entrance if you wish to go. Well?"
234: 0x03A1 [0x23] WAIT_FOR_DIALOG_INTERACTION
235: 0x03A2 [0x01] GOTO 0x0476
236: 0x03A5 [0x02] IF !(ExtData[1]->WorkLocal[11] == 2*) GOTO 0x03B8
237: 0x03AD [0x1D] PRINT_EVENT_MESSAGE(message_id=7321*)
    → "Thanks for your help today!"
238: 0x03B0 [0x23] WAIT_FOR_DIALOG_INTERACTION
239: 0x03B1 [0x1D] PRINT_EVENT_MESSAGE(message_id=7345*)
    → "I'll warp you to the entrance if you wanna leave now! How about it?"
240: 0x03B4 [0x23] WAIT_FOR_DIALOG_INTERACTION
241: 0x03B5 [0x01] GOTO 0x0476
242: 0x03B8 [0x02] IF !(ExtData[1]->WorkLocal[11] == 3*) GOTO 0x03CB
243: 0x03C0 [0x1D] PRINT_EVENT_MESSAGE(message_id=7322*)
    → "Well, let's head back then. I discovered a lot today."
244: 0x03C3 [0x23] WAIT_FOR_DIALOG_INTERACTION
245: 0x03C4 [0x1D] PRINT_EVENT_MESSAGE(message_id=7346*)
    → "If you do want to go, I will warp you to the entrance. Well?"
246: 0x03C7 [0x23] WAIT_FOR_DIALOG_INTERACTION
247: 0x03C8 [0x01] GOTO 0x0476
248: 0x03CB [0x02] IF !(ExtData[1]->WorkLocal[11] == 4*) GOTO 0x03DE
249: 0x03D3 [0x1D] PRINT_EVENT_MESSAGE(message_id=7323*)
    → "Thank you very much for your assistance today. I was able to gather much valuable data."
250: 0x03D6 [0x23] WAIT_FOR_DIALOG_INTERACTION
251: 0x03D7 [0x1D] PRINT_EVENT_MESSAGE(message_id=7347*)
    → "If you desire to leave, I will warp you to the entrance."
252: 0x03DA [0x23] WAIT_FOR_DIALOG_INTERACTION
253: 0x03DB [0x01] GOTO 0x0476
254: 0x03DE [0x02] IF !(ExtData[1]->WorkLocal[11] == 5*) GOTO 0x03F1
255: 0x03E6 [0x1D] PRINT_EVENT_MESSAGE(message_id=7326*)
    → "Okay, let's go, then! Thanks for all your help today. I learned some interesting things."
256: 0x03E9 [0x23] WAIT_FOR_DIALOG_INTERACTION
257: 0x03EA [0x1D] PRINT_EVENT_MESSAGE(message_id=7350*)
    → "I can warp you to the entrance if you want. Well?"
258: 0x03ED [0x23] WAIT_FOR_DIALOG_INTERACTION
259: 0x03EE [0x01] GOTO 0x0476
260: 0x03F1 [0x02] IF !(ExtData[1]->WorkLocal[11] == 6*) GOTO 0x0404
261: 0x03F9 [0x1D] PRINT_EVENT_MESSAGE(message_id=7327*)
    → "Well then, let's go! Thanks for everything today! I learned a lot!"
262: 0x03FC [0x23] WAIT_FOR_DIALOG_INTERACTION
263: 0x03FD [0x1D] PRINT_EVENT_MESSAGE(message_id=7351*)
    → "I'll warp you to the entrance if you want! How about it?"
264: 0x0400 [0x23] WAIT_FOR_DIALOG_INTERACTION
265: 0x0401 [0x01] GOTO 0x0476
266: 0x0404 [0x02] IF !(ExtData[1]->WorkLocal[11] == 7*) GOTO 0x0417
267: 0x040C [0x1D] PRINT_EVENT_MESSAGE(message_id=7328*)
    → "I gathered a lot of valuable data today, thanks to you."
268: 0x040F [0x23] WAIT_FOR_DIALOG_INTERACTION
269: 0x0410 [0x1D] PRINT_EVENT_MESSAGE(message_id=7352*)
    → "If you wish to leave, I can warp you to the entrance. Well?"
270: 0x0413 [0x23] WAIT_FOR_DIALOG_INTERACTION
271: 0x0414 [0x01] GOTO 0x0476
272: 0x0417 [0x02] IF !(ExtData[1]->WorkLocal[11] == 8*) GOTO 0x042A
273: 0x041F [0x1D] PRINT_EVENT_MESSAGE(message_id=7329*)
    → "Yep, let's go home! I saw some strange stuff today! Thanks for everything!"
274: 0x0422 [0x23] WAIT_FOR_DIALOG_INTERACTION
275: 0x0423 [0x1D] PRINT_EVENT_MESSAGE(message_id=7353*)
    → "If you wanna leave, I can warp you to the entrance! What do you want to do?"
276: 0x0426 [0x23] WAIT_FOR_DIALOG_INTERACTION
277: 0x0427 [0x01] GOTO 0x0476
278: 0x042A [0x02] IF !(ExtData[1]->WorkLocal[11] == 9*) GOTO 0x043D
279: 0x0432 [0x1D] PRINT_EVENT_MESSAGE(message_id=7330*)
    → "Thank you very much for your assistance today. I was able to gather much valuable data."
280: 0x0435 [0x23] WAIT_FOR_DIALOG_INTERACTION
281: 0x0436 [0x1D] PRINT_EVENT_MESSAGE(message_id=7354*)
    → "If you desire to leave, I will warp you to the entrance."
282: 0x0439 [0x23] WAIT_FOR_DIALOG_INTERACTION
283: 0x043A [0x01] GOTO 0x0476
284: 0x043D [0x02] IF !(ExtData[1]->WorkLocal[11] == 10*) GOTO 0x0450
285: 0x0445 [0x1D] PRINT_EVENT_MESSAGE(message_id=7324*)
    → "Thanks, <Player>. With your help, I was able to learn a lot."
286: 0x0448 [0x23] WAIT_FOR_DIALOG_INTERACTION
287: 0x0449 [0x1D] PRINT_EVENT_MESSAGE(message_id=7348*)
    → "Do you want me to warp you to the entrance?"
288: 0x044C [0x23] WAIT_FOR_DIALOG_INTERACTION
289: 0x044D [0x01] GOTO 0x0476
290: 0x0450 [0x02] IF !(ExtData[1]->WorkLocal[11] == 11*) GOTO 0x0463
291: 0x0458 [0x1D] PRINT_EVENT_MESSAGE(message_id=7325*)
    → "Great! Good job today, <Player>. We've got a lot to show for."
292: 0x045B [0x23] WAIT_FOR_DIALOG_INTERACTION
293: 0x045C [0x1D] PRINT_EVENT_MESSAGE(message_id=7349*)
    → "I can warp you to the entrance if you like. Interested?"
294: 0x045F [0x23] WAIT_FOR_DIALOG_INTERACTION
295: 0x0460 [0x01] GOTO 0x0476
296: 0x0463 [0x02] IF !(ExtData[1]->WorkLocal[11] == 12*) GOTO 0x0476
297: 0x046B [0x1D] PRINT_EVENT_MESSAGE(message_id=7331*)
    → "Then, let us leave this place. You did well today."
298: 0x046E [0x23] WAIT_FOR_DIALOG_INTERACTION
299: 0x046F [0x1D] PRINT_EVENT_MESSAGE(message_id=7355*)
    → "If you wish to be warped to the entrance, tell me."
300: 0x0472 [0x23] WAIT_FOR_DIALOG_INTERACTION
301: 0x0473 [0x01] GOTO 0x0476

SUBROUTINE_0476:
302: 0x0476 [0x24] CREATE_DIALOG(message_id=7356*, default_option=1*, option_flags=0*)
    → "Return to the entrance? [Yes./Not yet.]"
303: 0x047D [0x25] WAIT_DIALOG_SELECT()
304: 0x047E [0x02] IF !(Work_Zone[0] == 0*) GOTO 0x05B5
305: 0x0486 [0x02] IF !(ExtData[1]->WorkLocal[11] == 1*) GOTO 0x0495
306: 0x048E [0x1D] PRINT_EVENT_MESSAGE(message_id=7357*)
    → "See you later."
307: 0x0491 [0x23] WAIT_FOR_DIALOG_INTERACTION
308: 0x0492 [0x01] GOTO 0x053A
309: 0x0495 [0x02] IF !(ExtData[1]->WorkLocal[11] == 2*) GOTO 0x04A4
310: 0x049D [0x1D] PRINT_EVENT_MESSAGE(message_id=7358*)
    → "Later!"
311: 0x04A0 [0x23] WAIT_FOR_DIALOG_INTERACTION
312: 0x04A1 [0x01] GOTO 0x053A
313: 0x04A4 [0x02] IF !(ExtData[1]->WorkLocal[11] == 3*) GOTO 0x04B3
314: 0x04AC [0x1D] PRINT_EVENT_MESSAGE(message_id=7359*)
    → "Later, then."
315: 0x04AF [0x23] WAIT_FOR_DIALOG_INTERACTION
316: 0x04B0 [0x01] GOTO 0x053A
317: 0x04B3 [0x02] IF !(ExtData[1]->WorkLocal[11] == 4*) GOTO 0x04C2
318: 0x04BB [0x1D] PRINT_EVENT_MESSAGE(message_id=7360*)
    → "Until we meet again."
319: 0x04BE [0x23] WAIT_FOR_DIALOG_INTERACTION
320: 0x04BF [0x01] GOTO 0x053A
321: 0x04C2 [0x02] IF !(ExtData[1]->WorkLocal[11] == 5*) GOTO 0x04D1
322: 0x04CA [0x1D] PRINT_EVENT_MESSAGE(message_id=7363*)
    → "I will see you later."
323: 0x04CD [0x23] WAIT_FOR_DIALOG_INTERACTION
324: 0x04CE [0x01] GOTO 0x053A
325: 0x04D1 [0x02] IF !(ExtData[1]->WorkLocal[11] == 6*) GOTO 0x04E0
326: 0x04D9 [0x1D] PRINT_EVENT_MESSAGE(message_id=7364*)
    → "See ya later!"
327: 0x04DC [0x23] WAIT_FOR_DIALOG_INTERACTION
328: 0x04DD [0x01] GOTO 0x053A
329: 0x04E0 [0x02] IF !(ExtData[1]->WorkLocal[11] == 7*) GOTO 0x04EF
330: 0x04E8 [0x1D] PRINT_EVENT_MESSAGE(message_id=7365*)
    → "See you later, then."
331: 0x04EB [0x23] WAIT_FOR_DIALOG_INTERACTION
332: 0x04EC [0x01] GOTO 0x053A
333: 0x04EF [0x02] IF !(ExtData[1]->WorkLocal[11] == 8*) GOTO 0x04FE
334: 0x04F7 [0x1D] PRINT_EVENT_MESSAGE(message_id=7366*)
    → "Bye-bye!"
335: 0x04FA [0x23] WAIT_FOR_DIALOG_INTERACTION
336: 0x04FB [0x01] GOTO 0x053A
337: 0x04FE [0x02] IF !(ExtData[1]->WorkLocal[11] == 9*) GOTO 0x050D
338: 0x0506 [0x1D] PRINT_EVENT_MESSAGE(message_id=7367*)
    → "Until we meet again."
339: 0x0509 [0x23] WAIT_FOR_DIALOG_INTERACTION
340: 0x050A [0x01] GOTO 0x053A
341: 0x050D [0x02] IF !(ExtData[1]->WorkLocal[11] == 10*) GOTO 0x051C
342: 0x0515 [0x1D] PRINT_EVENT_MESSAGE(message_id=7361*)
    → "See you."
343: 0x0518 [0x23] WAIT_FOR_DIALOG_INTERACTION
344: 0x0519 [0x01] GOTO 0x053A
345: 0x051C [0x02] IF !(ExtData[1]->WorkLocal[11] == 11*) GOTO 0x052B
346: 0x0524 [0x1D] PRINT_EVENT_MESSAGE(message_id=7362*)
    → "Take it easy!"
347: 0x0527 [0x23] WAIT_FOR_DIALOG_INTERACTION
348: 0x0528 [0x01] GOTO 0x053A
349: 0x052B [0x02] IF !(ExtData[1]->WorkLocal[11] == 12*) GOTO 0x053A
350: 0x0533 [0x1D] PRINT_EVENT_MESSAGE(message_id=7368*)
    → "Don't let me catch you slacking off."
351: 0x0536 [0x23] WAIT_FOR_DIALOG_INTERACTION
352: 0x0537 [0x01] GOTO 0x053A

SUBROUTINE_053A:
353: 0x053A [0x02] IF !(ExtData[1]->WorkLocal[2] == 1*) GOTO 0x0551
354: 0x0542 [0xAD] DUAL_ENTITY_SCHEDULER_HANDLER: Execute sub-case 0 with entities [??? (ID: 16843082/0x0101014A), LocalPlayer], work=25*
355: 0x054E [0x01] GOTO 0x05AD
356: 0x0551 [0x02] IF !(ExtData[1]->WorkLocal[2] == 2*) GOTO 0x0568
357: 0x0559 [0xAD] DUAL_ENTITY_SCHEDULER_HANDLER: Execute sub-case 0 with entities [??? (ID: 16843083/0x0101014B), LocalPlayer], work=25*
358: 0x0565 [0x01] GOTO 0x05AD
359: 0x0568 [0x02] IF !(ExtData[1]->WorkLocal[2] == 3*) GOTO 0x057F
360: 0x0570 [0xAD] DUAL_ENTITY_SCHEDULER_HANDLER: Execute sub-case 0 with entities [??? (ID: 16843084/0x0101014C), LocalPlayer], work=25*
361: 0x057C [0x01] GOTO 0x05AD
362: 0x057F [0x02] IF !(ExtData[1]->WorkLocal[2] == 4*) GOTO 0x0596
363: 0x0587 [0xAD] DUAL_ENTITY_SCHEDULER_HANDLER: Execute sub-case 0 with entities [??? (ID: 16843085/0x0101014D), LocalPlayer], work=25*
364: 0x0593 [0x01] GOTO 0x05AD
365: 0x0596 [0x02] IF !(ExtData[1]->WorkLocal[2] == 5*) GOTO 0x05AD
366: 0x059E [0xAD] DUAL_ENTITY_SCHEDULER_HANDLER: Execute sub-case 0 with entities [??? (ID: 16843086/0x0101014E), LocalPlayer], work=25*
367: 0x05AA [0x01] GOTO 0x05AD

SUBROUTINE_05AD:
368: 0x05AD [0x03] Work_Zone[1] = 1*
369: 0x05B2 [0x01] GOTO 0x0679
370: 0x05B5 [0x02] IF !(Work_Zone[0] == 1*) GOTO 0x0679
371: 0x05BD [0x02] IF !(ExtData[1]->WorkLocal[11] == 1*) GOTO 0x05CC
372: 0x05C5 [0x1D] PRINT_EVENT_MESSAGE(message_id=7357*)
    → "See you later."
373: 0x05C8 [0x23] WAIT_FOR_DIALOG_INTERACTION
374: 0x05C9 [0x01] GOTO 0x0671
375: 0x05CC [0x02] IF !(ExtData[1]->WorkLocal[11] == 2*) GOTO 0x05DB
376: 0x05D4 [0x1D] PRINT_EVENT_MESSAGE(message_id=7358*)
    → "Later!"
377: 0x05D7 [0x23] WAIT_FOR_DIALOG_INTERACTION
378: 0x05D8 [0x01] GOTO 0x0671
379: 0x05DB [0x02] IF !(ExtData[1]->WorkLocal[11] == 3*) GOTO 0x05EA
380: 0x05E3 [0x1D] PRINT_EVENT_MESSAGE(message_id=7359*)
    → "Later, then."
381: 0x05E6 [0x23] WAIT_FOR_DIALOG_INTERACTION
382: 0x05E7 [0x01] GOTO 0x0671
383: 0x05EA [0x02] IF !(ExtData[1]->WorkLocal[11] == 4*) GOTO 0x05F9
384: 0x05F2 [0x1D] PRINT_EVENT_MESSAGE(message_id=7360*)
    → "Until we meet again."
385: 0x05F5 [0x23] WAIT_FOR_DIALOG_INTERACTION
386: 0x05F6 [0x01] GOTO 0x0671
387: 0x05F9 [0x02] IF !(ExtData[1]->WorkLocal[11] == 5*) GOTO 0x0608
388: 0x0601 [0x1D] PRINT_EVENT_MESSAGE(message_id=7363*)
    → "I will see you later."
389: 0x0604 [0x23] WAIT_FOR_DIALOG_INTERACTION
390: 0x0605 [0x01] GOTO 0x0671
391: 0x0608 [0x02] IF !(ExtData[1]->WorkLocal[11] == 6*) GOTO 0x0617
392: 0x0610 [0x1D] PRINT_EVENT_MESSAGE(message_id=7364*)
    → "See ya later!"
393: 0x0613 [0x23] WAIT_FOR_DIALOG_INTERACTION
394: 0x0614 [0x01] GOTO 0x0671
395: 0x0617 [0x02] IF !(ExtData[1]->WorkLocal[11] == 7*) GOTO 0x0626
396: 0x061F [0x1D] PRINT_EVENT_MESSAGE(message_id=7365*)
    → "See you later, then."
397: 0x0622 [0x23] WAIT_FOR_DIALOG_INTERACTION
398: 0x0623 [0x01] GOTO 0x0671
399: 0x0626 [0x02] IF !(ExtData[1]->WorkLocal[11] == 8*) GOTO 0x0635
400: 0x062E [0x1D] PRINT_EVENT_MESSAGE(message_id=7366*)
    → "Bye-bye!"
401: 0x0631 [0x23] WAIT_FOR_DIALOG_INTERACTION
402: 0x0632 [0x01] GOTO 0x0671
403: 0x0635 [0x02] IF !(ExtData[1]->WorkLocal[11] == 9*) GOTO 0x0644
404: 0x063D [0x1D] PRINT_EVENT_MESSAGE(message_id=7367*)
    → "Until we meet again."
405: 0x0640 [0x23] WAIT_FOR_DIALOG_INTERACTION
406: 0x0641 [0x01] GOTO 0x0671
407: 0x0644 [0x02] IF !(ExtData[1]->WorkLocal[11] == 10*) GOTO 0x0653
408: 0x064C [0x1D] PRINT_EVENT_MESSAGE(message_id=7361*)
    → "See you."
409: 0x064F [0x23] WAIT_FOR_DIALOG_INTERACTION
410: 0x0650 [0x01] GOTO 0x0671
411: 0x0653 [0x02] IF !(ExtData[1]->WorkLocal[11] == 11*) GOTO 0x0662
412: 0x065B [0x1D] PRINT_EVENT_MESSAGE(message_id=7362*)
    → "Take it easy!"
413: 0x065E [0x23] WAIT_FOR_DIALOG_INTERACTION
414: 0x065F [0x01] GOTO 0x0671
415: 0x0662 [0x02] IF !(ExtData[1]->WorkLocal[11] == 12*) GOTO 0x0671
416: 0x066A [0x1D] PRINT_EVENT_MESSAGE(message_id=7368*)
    → "Don't let me catch you slacking off."
417: 0x066D [0x23] WAIT_FOR_DIALOG_INTERACTION
418: 0x066E [0x01] GOTO 0x0671

SUBROUTINE_0671:
419: 0x0671 [0x03] Work_Zone[1] = 2*
420: 0x0676 [0x01] GOTO 0x0679

SUBROUTINE_0679:
421: 0x0679 [0x01] GOTO 0x067C

SUBROUTINE_067C:
422: 0x067C [0x21] END_EVENT
423: 0x067D [0x00] END_REQSTACK()
```

### Event 55

#### Metadata

| Field        | Value      |
|--------------|------------|
| Entrypoint   | 0x067E     |
| Data Size    | 1661 bytes |
| Instructions | 424        |

```
      00 01 02 03 04 05 06 07  08 09 0A 0B 0C 0D 0E 0F
      -- -- -- -- -- -- -- --  -- -- -- -- -- -- -- --
0670:                                            37 68                7h
0680: 80 69 80 6A 80 6B 80 03  02 00 06 80 03 00 00 03  .i.j.k..........
0690: 10 03 01 10 05 80 80 F8  FF FF 7F 1A CC 22 1A 02  ............."..
06A0: 38 13 01 00 06 80 02 0B  00 04 80 80 DE 06 02 01  8...............
06B0: 00 05 80 80 BD 06 1D 07  80 23 01 DB 06 02 01 00  .........#......
06C0: 04 80 80 CC 06 1D 08 80  23 01 DB 06 02 01 00 06  ........#.......
06D0: 80 80 DB 06 1D 09 80 23  01 DB 06 01 46 09 02 0B  .......#....F...
06E0: 00 06 80 80 16 07 02 01  00 05 80 80 F5 06 1D 0A  ................
06F0: 80 23 01 13 07 02 01 00  04 80 80 04 07 1D 0B 80  .#..............
0700: 23 01 13 07 02 01 00 06  80 80 13 07 1D 0C 80 23  #..............#
0710: 01 13 07 01 46 09 02 0B  00 0D 80 80 4E 07 02 01  ....F.......N...
0720: 00 05 80 80 2D 07 1D 0E  80 23 01 4B 07 02 01 00  ....-....#.K....
0730: 04 80 80 3C 07 1D 0F 80  23 01 4B 07 02 01 00 06  ...<....#.K.....
0740: 80 80 4B 07 1D 10 80 23  01 4B 07 01 46 09 02 0B  ..K....#.K..F...
0750: 00 11 80 80 86 07 02 01  00 05 80 80 65 07 1D 12  ............e...
0760: 80 23 01 83 07 02 01 00  04 80 80 74 07 1D 13 80  .#.........t....
0770: 23 01 83 07 02 01 00 06  80 80 83 07 1D 14 80 23  #..............#
0780: 01 83 07 01 46 09 02 0B  00 15 80 80 BE 07 02 01  ....F...........
0790: 00 05 80 80 9D 07 1D 16  80 23 01 BB 07 02 01 00  .........#......
07A0: 04 80 80 AC 07 1D 17 80  23 01 BB 07 02 01 00 06  ........#.......
07B0: 80 80 BB 07 1D 18 80 23  01 BB 07 01 46 09 02 0B  .......#....F...
07C0: 00 19 80 80 F6 07 02 01  00 05 80 80 D5 07 1D 1A  ................
07D0: 80 23 01 F3 07 02 01 00  04 80 80 E4 07 1D 1B 80  .#..............
07E0: 23 01 F3 07 02 01 00 06  80 80 F3 07 1D 1C 80 23  #..............#
07F0: 01 F3 07 01 46 09 02 0B  00 1D 80 80 2E 08 02 01  ....F...........
0800: 00 05 80 80 0D 08 1D 1E  80 23 01 2B 08 02 01 00  .........#.+....
0810: 04 80 80 1C 08 1D 1F 80  23 01 2B 08 02 01 00 06  ........#.+.....
0820: 80 80 2B 08 1D 20 80 23  01 2B 08 01 46 09 02 0B  ..+.. .#.+..F...
0830: 00 21 80 80 66 08 02 01  00 05 80 80 45 08 1D 22  .!..f.......E.."
0840: 80 23 01 63 08 02 01 00  04 80 80 54 08 1D 23 80  .#.c.......T..#.
0850: 23 01 63 08 02 01 00 06  80 80 63 08 1D 24 80 23  #.c.......c..$.#
0860: 01 63 08 01 46 09 02 0B  00 25 80 80 9E 08 02 01  .c..F....%......
0870: 00 05 80 80 7D 08 1D 26  80 23 01 9B 08 02 01 00  ....}..&.#......
0880: 04 80 80 8C 08 1D 27 80  23 01 9B 08 02 01 00 06  ......'.#.......
0890: 80 80 9B 08 1D 28 80 23  01 9B 08 01 46 09 02 0B  .....(.#....F...
08A0: 00 29 80 80 D6 08 02 01  00 05 80 80 B5 08 1D 2A  .).............*
08B0: 80 23 01 D3 08 02 01 00  04 80 80 C4 08 1D 2B 80  .#............+.
08C0: 23 01 D3 08 02 01 00 06  80 80 D3 08 1D 2C 80 23  #............,.#
08D0: 01 D3 08 01 46 09 02 0B  00 2D 80 80 0E 09 02 01  ....F....-......
08E0: 00 05 80 80 ED 08 1D 2E  80 23 01 0B 09 02 01 00  .........#......
08F0: 04 80 80 FC 08 1D 2F 80  23 01 0B 09 02 01 00 06  ....../.#.......
0900: 80 80 0B 09 1D 30 80 23  01 0B 09 01 46 09 02 0B  .....0.#....F...
0910: 00 31 80 80 46 09 02 01  00 05 80 80 25 09 1D 32  .1..F.......%..2
0920: 80 23 01 43 09 02 01 00  04 80 80 34 09 1D 33 80  .#.C.......4..3.
0930: 23 01 43 09 02 01 00 06  80 80 43 09 1D 34 80 23  #.C.......C..4.#
0940: 01 43 09 01 46 09 02 0B  00 04 80 80 55 09 1D 35  .C..F.......U..5
0950: 80 23 01 FA 09 02 0B 00  06 80 80 64 09 1D 36 80  .#.........d..6.
0960: 23 01 FA 09 02 0B 00 0D  80 80 73 09 1D 37 80 23  #.........s..7.#
0970: 01 FA 09 02 0B 00 11 80  80 82 09 1D 38 80 23 01  ............8.#.
0980: FA 09 02 0B 00 15 80 80  91 09 1D 39 80 23 01 FA  ...........9.#..
0990: 09 02 0B 00 19 80 80 A0  09 1D 3A 80 23 01 FA 09  ..........:.#...
09A0: 02 0B 00 1D 80 80 AF 09  1D 3B 80 23 01 FA 09 02  .........;.#....
09B0: 0B 00 21 80 80 BE 09 1D  3C 80 23 01 FA 09 02 0B  ..!.....<.#.....
09C0: 00 25 80 80 CD 09 1D 3D  80 23 01 FA 09 02 0B 00  .%.....=.#......
09D0: 29 80 80 DC 09 1D 3E 80  23 01 FA 09 02 0B 00 2D  ).....>.#......-
09E0: 80 80 EB 09 1D 3F 80 23  01 FA 09 02 0B 00 31 80  .....?.#......1.
09F0: 80 FA 09 1D 40 80 23 01  FA 09 24 41 80 04 80 05  ....@.#...$A....
0A00: 80 25 02 00 10 05 80 00  F9 0C 43 00 43 01 42 02  .%........C.C.B.
0A10: 0B 00 04 80 80 22 0A 1D  42 80 23 1D 43 80 23 01  ....."..B.#.C.#.
0A20: F3 0A 02 0B 00 06 80 80  35 0A 1D 44 80 23 1D 45  ........5..D.#.E
0A30: 80 23 01 F3 0A 02 0B 00  0D 80 80 48 0A 1D 46 80  .#.........H..F.
0A40: 23 1D 47 80 23 01 F3 0A  02 0B 00 11 80 80 5B 0A  #.G.#.........[.
0A50: 1D 48 80 23 1D 49 80 23  01 F3 0A 02 0B 00 15 80  .H.#.I.#........
0A60: 80 6E 0A 1D 4A 80 23 1D  4B 80 23 01 F3 0A 02 0B  .n..J.#.K.#.....
0A70: 00 19 80 80 81 0A 1D 4C  80 23 1D 4D 80 23 01 F3  .......L.#.M.#..
0A80: 0A 02 0B 00 1D 80 80 94  0A 1D 4E 80 23 1D 4F 80  ..........N.#.O.
0A90: 23 01 F3 0A 02 0B 00 21  80 80 A7 0A 1D 50 80 23  #......!.....P.#
0AA0: 1D 51 80 23 01 F3 0A 02  0B 00 25 80 80 BA 0A 1D  .Q.#......%.....
0AB0: 52 80 23 1D 53 80 23 01  F3 0A 02 0B 00 29 80 80  R.#.S.#......)..
0AC0: CD 0A 1D 54 80 23 1D 55  80 23 01 F3 0A 02 0B 00  ...T.#.U.#......
0AD0: 2D 80 80 E0 0A 1D 56 80  23 1D 57 80 23 01 F3 0A  -.....V.#.W.#...
0AE0: 02 0B 00 31 80 80 F3 0A  1D 58 80 23 1D 59 80 23  ...1.....X.#.Y.#
0AF0: 01 F3 0A 24 5A 80 04 80  05 80 25 02 00 10 05 80  ...$Z.....%.....
0B00: 00 32 0C 02 0B 00 04 80  80 12 0B 1D 5B 80 23 01  .2..........[.#.
0B10: B7 0B 02 0B 00 06 80 80  21 0B 1D 5C 80 23 01 B7  ........!..\.#..
0B20: 0B 02 0B 00 0D 80 80 30  0B 1D 5D 80 23 01 B7 0B  .......0..].#...
0B30: 02 0B 00 11 80 80 3F 0B  1D 5E 80 23 01 B7 0B 02  ......?..^.#....
0B40: 0B 00 15 80 80 4E 0B 1D  5F 80 23 01 B7 0B 02 0B  .....N.._.#.....
0B50: 00 19 80 80 5D 0B 1D 60  80 23 01 B7 0B 02 0B 00  ....]..`.#......
0B60: 1D 80 80 6C 0B 1D 61 80  23 01 B7 0B 02 0B 00 21  ...l..a.#......!
0B70: 80 80 7B 0B 1D 62 80 23  01 B7 0B 02 0B 00 25 80  ..{..b.#......%.
0B80: 80 8A 0B 1D 63 80 23 01  B7 0B 02 0B 00 29 80 80  ....c.#......)..
0B90: 99 0B 1D 64 80 23 01 B7  0B 02 0B 00 2D 80 80 A8  ...d.#......-...
0BA0: 0B 1D 65 80 23 01 B7 0B  02 0B 00 31 80 80 B7 0B  ..e.#......1....
0BB0: 1D 66 80 23 01 B7 0B 02  02 00 04 80 80 CE 0B AD  .f.#............
0BC0: 00 67 80 4A 01 01 01 F0  FF FF 7F 01 2A 0C 02 02  .g.J........*...
0BD0: 00 06 80 80 E5 0B AD 00  67 80 4B 01 01 01 F0 FF  ........g.K.....
0BE0: FF 7F 01 2A 0C 02 02 00  0D 80 80 FC 0B AD 00 67  ...*...........g
0BF0: 80 4C 01 01 01 F0 FF FF  7F 01 2A 0C 02 02 00 11  .L........*.....
0C00: 80 80 13 0C AD 00 67 80  4D 01 01 01 F0 FF FF 7F  ......g.M.......
0C10: 01 2A 0C 02 02 00 15 80  80 2A 0C AD 00 67 80 4E  .*.......*...g.N
0C20: 01 01 01 F0 FF FF 7F 01  2A 0C 03 01 10 04 80 01  ........*.......
0C30: F6 0C 02 00 10 04 80 00  F6 0C 02 0B 00 04 80 80  ................
0C40: 49 0C 1D 5B 80 23 01 EE  0C 02 0B 00 06 80 80 58  I..[.#.........X
0C50: 0C 1D 5C 80 23 01 EE 0C  02 0B 00 0D 80 80 67 0C  ..\.#.........g.
0C60: 1D 5D 80 23 01 EE 0C 02  0B 00 11 80 80 76 0C 1D  .].#.........v..
0C70: 5E 80 23 01 EE 0C 02 0B  00 15 80 80 85 0C 1D 5F  ^.#............_
0C80: 80 23 01 EE 0C 02 0B 00  19 80 80 94 0C 1D 60 80  .#............`.
0C90: 23 01 EE 0C 02 0B 00 1D  80 80 A3 0C 1D 61 80 23  #............a.#
0CA0: 01 EE 0C 02 0B 00 21 80  80 B2 0C 1D 62 80 23 01  ......!.....b.#.
0CB0: EE 0C 02 0B 00 25 80 80  C1 0C 1D 63 80 23 01 EE  .....%.....c.#..
0CC0: 0C 02 0B 00 29 80 80 D0  0C 1D 64 80 23 01 EE 0C  ....).....d.#...
0CD0: 02 0B 00 2D 80 80 DF 0C  1D 65 80 23 01 EE 0C 02  ...-.....e.#....
0CE0: 0B 00 31 80 80 EE 0C 1D  66 80 23 01 EE 0C 03 01  ..1.....f.#.....
0CF0: 10 06 80 01 F6 0C 01 F9  0C 21 00                 .........!.     
```

#### Opcodes

```
  0: 0x067E [0x37] UPDATE_EVENT_POSITION_AND_DIR: x=-176.087*, z=-47.445*, y=-0.368*, direction=149.2°*
  1: 0x0687 [0x03] ExtData[1]->WorkLocal[2] = 2*
  2: 0x068C [0x03] ExtData[1]->WorkLocal[0] = Work_Zone[3]
  3: 0x0691 [0x03] Work_Zone[1] = 0*
  4: 0x0696 [0x80] LOAD_WAIT(entity=EventEntity)
  5: 0x069B [0x1A] CALL_SUBROUTINE(address=0x22CC)
  6: 0x069E [0x1A] CALL_SUBROUTINE(address=0x3802)
  7: 0x06A1 [0x13] ExtData[1]->WorkLocal[1] = rand() % 2*
  8: 0x06A6 [0x02] IF !(ExtData[1]->WorkLocal[11] == 1*) GOTO 0x06DE
  9: 0x06AE [0x02] IF !(ExtData[1]->WorkLocal[1] == 0*) GOTO 0x06BD
 10: 0x06B6 [0x1D] PRINT_EVENT_MESSAGE(message_id=7271*)
    → "Hm... I've seen this strange place a few times already now, but what could it possibly be?"
 11: 0x06B9 [0x23] WAIT_FOR_DIALOG_INTERACTION
 12: 0x06BA [0x01] GOTO 0x06DB
 13: 0x06BD [0x02] IF !(ExtData[1]->WorkLocal[1] == 1*) GOTO 0x06CC
 14: 0x06C5 [0x1D] PRINT_EVENT_MESSAGE(message_id=7283*)
    → "What in Vana'diel is this made of? I have a feeling we should check this out..."
 15: 0x06C8 [0x23] WAIT_FOR_DIALOG_INTERACTION
 16: 0x06C9 [0x01] GOTO 0x06DB
 17: 0x06CC [0x02] IF !(ExtData[1]->WorkLocal[1] == 2*) GOTO 0x06DB
 18: 0x06D4 [0x1D] PRINT_EVENT_MESSAGE(message_id=7295*)
    → "What is this? Maybe if we examine it, we'll get some kind of hint..."
 19: 0x06D7 [0x23] WAIT_FOR_DIALOG_INTERACTION
 20: 0x06D8 [0x01] GOTO 0x06DB

SUBROUTINE_06DB:
 21: 0x06DB [0x01] GOTO 0x0946
 22: 0x06DE [0x02] IF !(ExtData[1]->WorkLocal[11] == 2*) GOTO 0x0716
 23: 0x06E6 [0x02] IF !(ExtData[1]->WorkLocal[1] == 0*) GOTO 0x06F5
 24: 0x06EE [0x1D] PRINT_EVENT_MESSAGE(message_id=7272*)
    → "Something is definitely weird here! Let's check it out!"
 25: 0x06F1 [0x23] WAIT_FOR_DIALOG_INTERACTION
 26: 0x06F2 [0x01] GOTO 0x0713
 27: 0x06F5 [0x02] IF !(ExtData[1]->WorkLocal[1] == 1*) GOTO 0x0704
 28: 0x06FD [0x1D] PRINT_EVENT_MESSAGE(message_id=7284*)
    → "Something from outside made it in here!? Let's check it out!"
 29: 0x0700 [0x23] WAIT_FOR_DIALOG_INTERACTION
 30: 0x0701 [0x01] GOTO 0x0713
 31: 0x0704 [0x02] IF !(ExtData[1]->WorkLocal[1] == 2*) GOTO 0x0713
 32: 0x070C [0x1D] PRINT_EVENT_MESSAGE(message_id=7296*)
    → "There's something weird about this place! I can see it perfectly, but it somehow looks hazy! Let's check it out!"
 33: 0x070F [0x23] WAIT_FOR_DIALOG_INTERACTION
 34: 0x0710 [0x01] GOTO 0x0713

SUBROUTINE_0713:
 35: 0x0713 [0x01] GOTO 0x0946
 36: 0x0716 [0x02] IF !(ExtData[1]->WorkLocal[11] == 3*) GOTO 0x074E
 37: 0x071E [0x02] IF !(ExtData[1]->WorkLocal[1] == 0*) GOTO 0x072D
 38: 0x0726 [0x1D] PRINT_EVENT_MESSAGE(message_id=7273*)
    → "What's this...? The scenery looks familiar, but kind of creepy..."
 39: 0x0729 [0x23] WAIT_FOR_DIALOG_INTERACTION
 40: 0x072A [0x01] GOTO 0x074B
 41: 0x072D [0x02] IF !(ExtData[1]->WorkLocal[1] == 1*) GOTO 0x073C
 42: 0x0735 [0x1D] PRINT_EVENT_MESSAGE(message_id=7285*)
    → "...Something from outside? Maybe not. It seems the same as everything else here."
 43: 0x0738 [0x23] WAIT_FOR_DIALOG_INTERACTION
 44: 0x0739 [0x01] GOTO 0x074B
 45: 0x073C [0x02] IF !(ExtData[1]->WorkLocal[1] == 2*) GOTO 0x074B
 46: 0x0744 [0x1D] PRINT_EVENT_MESSAGE(message_id=7297*)
    → "The outside world is somehow being reflected in this? Strange..."
 47: 0x0747 [0x23] WAIT_FOR_DIALOG_INTERACTION
 48: 0x0748 [0x01] GOTO 0x074B

SUBROUTINE_074B:
 49: 0x074B [0x01] GOTO 0x0946
 50: 0x074E [0x02] IF !(ExtData[1]->WorkLocal[11] == 4*) GOTO 0x0786
 51: 0x0756 [0x02] IF !(ExtData[1]->WorkLocal[1] == 0*) GOTO 0x0765
 52: 0x075E [0x1D] PRINT_EVENT_MESSAGE(message_id=7274*)
    → "What could this be? The outside world appears to be reflected in it."
 53: 0x0761 [0x23] WAIT_FOR_DIALOG_INTERACTION
 54: 0x0762 [0x01] GOTO 0x0783
 55: 0x0765 [0x02] IF !(ExtData[1]->WorkLocal[1] == 1*) GOTO 0x0774
 56: 0x076D [0x1D] PRINT_EVENT_MESSAGE(message_id=7286*)
    → "There is something here. Is this not from outside? How did it come to be in such a place?"
 57: 0x0770 [0x23] WAIT_FOR_DIALOG_INTERACTION
 58: 0x0771 [0x01] GOTO 0x0783
 59: 0x0774 [0x02] IF !(ExtData[1]->WorkLocal[1] == 2*) GOTO 0x0783
 60: 0x077C [0x1D] PRINT_EVENT_MESSAGE(message_id=7298*)
    → "Everything here seems to be made of a peculiar substance. Let us find out as much about it as possible."
 61: 0x077F [0x23] WAIT_FOR_DIALOG_INTERACTION
 62: 0x0780 [0x01] GOTO 0x0783

SUBROUTINE_0783:
 63: 0x0783 [0x01] GOTO 0x0946
 64: 0x0786 [0x02] IF !(ExtData[1]->WorkLocal[11] == 5*) GOTO 0x07BE
 65: 0x078E [0x02] IF !(ExtData[1]->WorkLocal[1] == 0*) GOTO 0x079D
 66: 0x0796 [0x1D] PRINT_EVENT_MESSAGE(message_id=7277*)
    → "What is this? Why are some spots clear, and others are not?"
 67: 0x0799 [0x23] WAIT_FOR_DIALOG_INTERACTION
 68: 0x079A [0x01] GOTO 0x07BB
 69: 0x079D [0x02] IF !(ExtData[1]->WorkLocal[1] == 1*) GOTO 0x07AC
 70: 0x07A5 [0x1D] PRINT_EVENT_MESSAGE(message_id=7289*)
    → "I've seen this before in the Emptiness... What could it be? Strange, isn't it?"
 71: 0x07A8 [0x23] WAIT_FOR_DIALOG_INTERACTION
 72: 0x07A9 [0x01] GOTO 0x07BB
 73: 0x07AC [0x02] IF !(ExtData[1]->WorkLocal[1] == 2*) GOTO 0x07BB
 74: 0x07B4 [0x1D] PRINT_EVENT_MESSAGE(message_id=7301*)
    → "There's something here. I'm not sure what it is, but I think we should check it out. Or rather I should say, I'm not sure what it is, and that's why we should check it out!"
 75: 0x07B7 [0x23] WAIT_FOR_DIALOG_INTERACTION
 76: 0x07B8 [0x01] GOTO 0x07BB

SUBROUTINE_07BB:
 77: 0x07BB [0x01] GOTO 0x0946
 78: 0x07BE [0x02] IF !(ExtData[1]->WorkLocal[11] == 6*) GOTO 0x07F6
 79: 0x07C6 [0x02] IF !(ExtData[1]->WorkLocal[1] == 0*) GOTO 0x07D5
 80: 0x07CE [0x1D] PRINT_EVENT_MESSAGE(message_id=7278*)
    → "Hm? This looks like...the outside world!? It looks like it, but it's different somehow! How could that be?"
 81: 0x07D1 [0x23] WAIT_FOR_DIALOG_INTERACTION
 82: 0x07D2 [0x01] GOTO 0x07F3
 83: 0x07D5 [0x02] IF !(ExtData[1]->WorkLocal[1] == 1*) GOTO 0x07E4
 84: 0x07DD [0x1D] PRINT_EVENT_MESSAGE(message_id=7290*)
    → "Everything here is so creepy! I can't figure out if things in front of me are real or not! I don't get it at all!"
 85: 0x07E0 [0x23] WAIT_FOR_DIALOG_INTERACTION
 86: 0x07E1 [0x01] GOTO 0x07F3
 87: 0x07E4 [0x02] IF !(ExtData[1]->WorkLocal[1] == 2*) GOTO 0x07F3
 88: 0x07EC [0x1D] PRINT_EVENT_MESSAGE(message_id=7302*)
    → "Hmmm! What could this be? Let's find out!"
 89: 0x07EF [0x23] WAIT_FOR_DIALOG_INTERACTION
 90: 0x07F0 [0x01] GOTO 0x07F3

SUBROUTINE_07F3:
 91: 0x07F3 [0x01] GOTO 0x0946
 92: 0x07F6 [0x02] IF !(ExtData[1]->WorkLocal[11] == 7*) GOTO 0x082E
 93: 0x07FE [0x02] IF !(ExtData[1]->WorkLocal[1] == 0*) GOTO 0x080D
 94: 0x0806 [0x1D] PRINT_EVENT_MESSAGE(message_id=7279*)
    → "What could this be? It looks like the outside world, but why here...?"
 95: 0x0809 [0x23] WAIT_FOR_DIALOG_INTERACTION
 96: 0x080A [0x01] GOTO 0x082B
 97: 0x080D [0x02] IF !(ExtData[1]->WorkLocal[1] == 1*) GOTO 0x081C
 98: 0x0815 [0x1D] PRINT_EVENT_MESSAGE(message_id=7291*)
    → "Hm? This looks like something from outside. No, it's somehow...different."
 99: 0x0818 [0x23] WAIT_FOR_DIALOG_INTERACTION
100: 0x0819 [0x01] GOTO 0x082B
101: 0x081C [0x02] IF !(ExtData[1]->WorkLocal[1] == 2*) GOTO 0x082B
102: 0x0824 [0x1D] PRINT_EVENT_MESSAGE(message_id=7303*)
    → "Did you find something? ...How strange. I'm not sure what to make of it."
103: 0x0827 [0x23] WAIT_FOR_DIALOG_INTERACTION
104: 0x0828 [0x01] GOTO 0x082B

SUBROUTINE_082B:
105: 0x082B [0x01] GOTO 0x0946
106: 0x082E [0x02] IF !(ExtData[1]->WorkLocal[11] == 8*) GOTO 0x0866
107: 0x0836 [0x02] IF !(ExtData[1]->WorkLocal[1] == 0*) GOTO 0x0845
108: 0x083E [0x1D] PRINT_EVENT_MESSAGE(message_id=7280*)
    → "Eh? What's this? It's kind of different from everything else around here, huh?"
109: 0x0841 [0x23] WAIT_FOR_DIALOG_INTERACTION
110: 0x0842 [0x01] GOTO 0x0863
111: 0x0845 [0x02] IF !(ExtData[1]->WorkLocal[1] == 1*) GOTO 0x0854
112: 0x084D [0x1D] PRINT_EVENT_MESSAGE(message_id=7292*)
    → "Hmmm, I wonder what the stuff here is made out of."
113: 0x0850 [0x23] WAIT_FOR_DIALOG_INTERACTION
114: 0x0851 [0x01] GOTO 0x0863
115: 0x0854 [0x02] IF !(ExtData[1]->WorkLocal[1] == 2*) GOTO 0x0863
116: 0x085C [0x1D] PRINT_EVENT_MESSAGE(message_id=7304*)
    → "What's that? I think I'm having deva ju, or whatever you call it! Anyway, it looks like something I saw outside, but somehow more...hazy...?"
117: 0x085F [0x23] WAIT_FOR_DIALOG_INTERACTION
118: 0x0860 [0x01] GOTO 0x0863

SUBROUTINE_0863:
119: 0x0863 [0x01] GOTO 0x0946
120: 0x0866 [0x02] IF !(ExtData[1]->WorkLocal[11] == 9*) GOTO 0x089E
121: 0x086E [0x02] IF !(ExtData[1]->WorkLocal[1] == 0*) GOTO 0x087D
122: 0x0876 [0x1D] PRINT_EVENT_MESSAGE(message_id=7281*)
    → "What could this be? The outside world appears to be reflected in it."
123: 0x0879 [0x23] WAIT_FOR_DIALOG_INTERACTION
124: 0x087A [0x01] GOTO 0x089B
125: 0x087D [0x02] IF !(ExtData[1]->WorkLocal[1] == 1*) GOTO 0x088C
126: 0x0885 [0x1D] PRINT_EVENT_MESSAGE(message_id=7293*)
    → "There is something here. Is this not from outside? How did it come to be in such a place?"
127: 0x0888 [0x23] WAIT_FOR_DIALOG_INTERACTION
128: 0x0889 [0x01] GOTO 0x089B
129: 0x088C [0x02] IF !(ExtData[1]->WorkLocal[1] == 2*) GOTO 0x089B
130: 0x0894 [0x1D] PRINT_EVENT_MESSAGE(message_id=7305*)
    → "Everything here seems to be made of a peculiar substance. Let us find out as much about it as possible."
131: 0x0897 [0x23] WAIT_FOR_DIALOG_INTERACTION
132: 0x0898 [0x01] GOTO 0x089B

SUBROUTINE_089B:
133: 0x089B [0x01] GOTO 0x0946
134: 0x089E [0x02] IF !(ExtData[1]->WorkLocal[11] == 10*) GOTO 0x08D6
135: 0x08A6 [0x02] IF !(ExtData[1]->WorkLocal[1] == 0*) GOTO 0x08B5
136: 0x08AE [0x1D] PRINT_EVENT_MESSAGE(message_id=7275*)
    → "This place gives me the creeps. Sometimes I'm not sure whether I'm really here or not..."
137: 0x08B1 [0x23] WAIT_FOR_DIALOG_INTERACTION
138: 0x08B2 [0x01] GOTO 0x08D3
139: 0x08B5 [0x02] IF !(ExtData[1]->WorkLocal[1] == 1*) GOTO 0x08C4
140: 0x08BD [0x1D] PRINT_EVENT_MESSAGE(message_id=7287*)
    → "There's something here. But why would it be in a place like this? Everything feels out of place."
141: 0x08C0 [0x23] WAIT_FOR_DIALOG_INTERACTION
142: 0x08C1 [0x01] GOTO 0x08D3
143: 0x08C4 [0x02] IF !(ExtData[1]->WorkLocal[1] == 2*) GOTO 0x08D3
144: 0x08CC [0x1D] PRINT_EVENT_MESSAGE(message_id=7299*)
    → "What could this be? I think it might be worth checking."
145: 0x08CF [0x23] WAIT_FOR_DIALOG_INTERACTION
146: 0x08D0 [0x01] GOTO 0x08D3

SUBROUTINE_08D3:
147: 0x08D3 [0x01] GOTO 0x0946
148: 0x08D6 [0x02] IF !(ExtData[1]->WorkLocal[11] == 11*) GOTO 0x090E
149: 0x08DE [0x02] IF !(ExtData[1]->WorkLocal[1] == 0*) GOTO 0x08ED
150: 0x08E6 [0x1D] PRINT_EVENT_MESSAGE(message_id=7276*)
    → "Wh...what's this...? The scenary looks strangely familiar..."
151: 0x08E9 [0x23] WAIT_FOR_DIALOG_INTERACTION
152: 0x08EA [0x01] GOTO 0x090B
153: 0x08ED [0x02] IF !(ExtData[1]->WorkLocal[1] == 1*) GOTO 0x08FC
154: 0x08F5 [0x1D] PRINT_EVENT_MESSAGE(message_id=7288*)
    → "Isn't this something from outside...or not? What could it be...?"
155: 0x08F8 [0x23] WAIT_FOR_DIALOG_INTERACTION
156: 0x08F9 [0x01] GOTO 0x090B
157: 0x08FC [0x02] IF !(ExtData[1]->WorkLocal[1] == 2*) GOTO 0x090B
158: 0x0904 [0x1D] PRINT_EVENT_MESSAGE(message_id=7300*)
    → "Now, what substance could this possibly be made from? Let's take a closer look, shall we?"
159: 0x0907 [0x23] WAIT_FOR_DIALOG_INTERACTION
160: 0x0908 [0x01] GOTO 0x090B

SUBROUTINE_090B:
161: 0x090B [0x01] GOTO 0x0946
162: 0x090E [0x02] IF !(ExtData[1]->WorkLocal[11] == 12*) GOTO 0x0946
163: 0x0916 [0x02] IF !(ExtData[1]->WorkLocal[1] == 0*) GOTO 0x0925
164: 0x091E [0x1D] PRINT_EVENT_MESSAGE(message_id=7282*)
    → "A truly disturbing sight. It's as though parts of our world have been ripped out and left here in this darkness..."
165: 0x0921 [0x23] WAIT_FOR_DIALOG_INTERACTION
166: 0x0922 [0x01] GOTO 0x0943
167: 0x0925 [0x02] IF !(ExtData[1]->WorkLocal[1] == 1*) GOTO 0x0934
168: 0x092D [0x1D] PRINT_EVENT_MESSAGE(message_id=7294*)
    → "There is something here. It's similar to, but clearly not what we have in our own world..."
169: 0x0930 [0x23] WAIT_FOR_DIALOG_INTERACTION
170: 0x0931 [0x01] GOTO 0x0943
171: 0x0934 [0x02] IF !(ExtData[1]->WorkLocal[1] == 2*) GOTO 0x0943
172: 0x093C [0x1D] PRINT_EVENT_MESSAGE(message_id=7306*)
    → "Hmmm... I've never seen anything like it before. This warrants close examination."
173: 0x093F [0x23] WAIT_FOR_DIALOG_INTERACTION
174: 0x0940 [0x01] GOTO 0x0943

SUBROUTINE_0943:
175: 0x0943 [0x01] GOTO 0x0946

SUBROUTINE_0946:
176: 0x0946 [0x02] IF !(ExtData[1]->WorkLocal[11] == 1*) GOTO 0x0955
177: 0x094E [0x1D] PRINT_EVENT_MESSAGE(message_id=7307*)
    → "Anyway, we've learned all we can here. Want to go now?"
178: 0x0951 [0x23] WAIT_FOR_DIALOG_INTERACTION
179: 0x0952 [0x01] GOTO 0x09FA
180: 0x0955 [0x02] IF !(ExtData[1]->WorkLocal[11] == 2*) GOTO 0x0964
181: 0x095D [0x1D] PRINT_EVENT_MESSAGE(message_id=7308*)
    → "Well, I think that's enough! Wanna go now?"
182: 0x0960 [0x23] WAIT_FOR_DIALOG_INTERACTION
183: 0x0961 [0x01] GOTO 0x09FA
184: 0x0964 [0x02] IF !(ExtData[1]->WorkLocal[11] == 3*) GOTO 0x0973
185: 0x096C [0x1D] PRINT_EVENT_MESSAGE(message_id=7309*)
    → "I guess that's enough for now. Ready to go?"
186: 0x096F [0x23] WAIT_FOR_DIALOG_INTERACTION
187: 0x0970 [0x01] GOTO 0x09FA
188: 0x0973 [0x02] IF !(ExtData[1]->WorkLocal[11] == 4*) GOTO 0x0982
189: 0x097B [0x1D] PRINT_EVENT_MESSAGE(message_id=7310*)
    → "I suppose that completes our research for now. Shall we return?"
190: 0x097E [0x23] WAIT_FOR_DIALOG_INTERACTION
191: 0x097F [0x01] GOTO 0x09FA
192: 0x0982 [0x02] IF !(ExtData[1]->WorkLocal[11] == 5*) GOTO 0x0991
193: 0x098A [0x1D] PRINT_EVENT_MESSAGE(message_id=7313*)
    → "Well, our research is complete. If there is nothing else you want to look at, we should head back now."
194: 0x098D [0x23] WAIT_FOR_DIALOG_INTERACTION
195: 0x098E [0x01] GOTO 0x09FA
196: 0x0991 [0x02] IF !(ExtData[1]->WorkLocal[11] == 6*) GOTO 0x09A0
197: 0x0999 [0x1D] PRINT_EVENT_MESSAGE(message_id=7314*)
    → "Well, I think that's about it! Want to go now?"
198: 0x099C [0x23] WAIT_FOR_DIALOG_INTERACTION
199: 0x099D [0x01] GOTO 0x09FA
200: 0x09A0 [0x02] IF !(ExtData[1]->WorkLocal[11] == 7*) GOTO 0x09AF
201: 0x09A8 [0x1D] PRINT_EVENT_MESSAGE(message_id=7315*)
    → "I think that's enough, now. Shall we return?"
202: 0x09AB [0x23] WAIT_FOR_DIALOG_INTERACTION
203: 0x09AC [0x01] GOTO 0x09FA
204: 0x09AF [0x02] IF !(ExtData[1]->WorkLocal[11] == 8*) GOTO 0x09BE
205: 0x09B7 [0x1D] PRINT_EVENT_MESSAGE(message_id=7316*)
    → "Well, we found some weird stuff, alright! Wanna go back now?"
206: 0x09BA [0x23] WAIT_FOR_DIALOG_INTERACTION
207: 0x09BB [0x01] GOTO 0x09FA
208: 0x09BE [0x02] IF !(ExtData[1]->WorkLocal[11] == 9*) GOTO 0x09CD
209: 0x09C6 [0x1D] PRINT_EVENT_MESSAGE(message_id=7317*)
    → "I suppose that completes our research for now. Shall we return?"
210: 0x09C9 [0x23] WAIT_FOR_DIALOG_INTERACTION
211: 0x09CA [0x01] GOTO 0x09FA
212: 0x09CD [0x02] IF !(ExtData[1]->WorkLocal[11] == 10*) GOTO 0x09DC
213: 0x09D5 [0x1D] PRINT_EVENT_MESSAGE(message_id=7311*)
    → "I think we've found out all we could. How about we leave this creepy place behind?"
214: 0x09D8 [0x23] WAIT_FOR_DIALOG_INTERACTION
215: 0x09D9 [0x01] GOTO 0x09FA
216: 0x09DC [0x02] IF !(ExtData[1]->WorkLocal[11] == 11*) GOTO 0x09EB
217: 0x09E4 [0x1D] PRINT_EVENT_MESSAGE(message_id=7312*)
    → "We've collected enough information, don't you think? Time to head back?"
218: 0x09E7 [0x23] WAIT_FOR_DIALOG_INTERACTION
219: 0x09E8 [0x01] GOTO 0x09FA
220: 0x09EB [0x02] IF !(ExtData[1]->WorkLocal[11] == 12*) GOTO 0x09FA
221: 0x09F3 [0x1D] PRINT_EVENT_MESSAGE(message_id=7318*)
    → "I'm satisfied with the information obtained. If there is nothing else, I say we return now."
222: 0x09F6 [0x23] WAIT_FOR_DIALOG_INTERACTION
223: 0x09F7 [0x01] GOTO 0x09FA

SUBROUTINE_09FA:
224: 0x09FA [0x24] CREATE_DIALOG(message_id=7319*, default_option=1*, option_flags=0*)
    → "Head back? [Yes, we're done./Not just yet.]"
225: 0x0A01 [0x25] WAIT_DIALOG_SELECT()
226: 0x0A02 [0x02] IF !(Work_Zone[0] == 0*) GOTO 0x0CF9
227: 0x0A0A [0x43] SEND_EVENT_UPDATE: Send pending tag to server (packet 0x005B)
228: 0x0A0C [0x43] SEND_EVENT_UPDATE: Check pending flag (skip if not pending)
229: 0x0A0E [0x42] SET_CLI_EVENT_CANCEL_DATA()
230: 0x0A0F [0x02] IF !(ExtData[1]->WorkLocal[11] == 1*) GOTO 0x0A22
231: 0x0A17 [0x1D] PRINT_EVENT_MESSAGE(message_id=7320*)
    → "Thanks to you, I was able to gather a lot of information today. I appreciate it."
232: 0x0A1A [0x23] WAIT_FOR_DIALOG_INTERACTION
233: 0x0A1B [0x1D] PRINT_EVENT_MESSAGE(message_id=7344*)
    → "I will warp you to the entrance if you wish to go. Well?"
234: 0x0A1E [0x23] WAIT_FOR_DIALOG_INTERACTION
235: 0x0A1F [0x01] GOTO 0x0AF3
236: 0x0A22 [0x02] IF !(ExtData[1]->WorkLocal[11] == 2*) GOTO 0x0A35
237: 0x0A2A [0x1D] PRINT_EVENT_MESSAGE(message_id=7321*)
    → "Thanks for your help today!"
238: 0x0A2D [0x23] WAIT_FOR_DIALOG_INTERACTION
239: 0x0A2E [0x1D] PRINT_EVENT_MESSAGE(message_id=7345*)
    → "I'll warp you to the entrance if you wanna leave now! How about it?"
240: 0x0A31 [0x23] WAIT_FOR_DIALOG_INTERACTION
241: 0x0A32 [0x01] GOTO 0x0AF3
242: 0x0A35 [0x02] IF !(ExtData[1]->WorkLocal[11] == 3*) GOTO 0x0A48
243: 0x0A3D [0x1D] PRINT_EVENT_MESSAGE(message_id=7322*)
    → "Well, let's head back then. I discovered a lot today."
244: 0x0A40 [0x23] WAIT_FOR_DIALOG_INTERACTION
245: 0x0A41 [0x1D] PRINT_EVENT_MESSAGE(message_id=7346*)
    → "If you do want to go, I will warp you to the entrance. Well?"
246: 0x0A44 [0x23] WAIT_FOR_DIALOG_INTERACTION
247: 0x0A45 [0x01] GOTO 0x0AF3
248: 0x0A48 [0x02] IF !(ExtData[1]->WorkLocal[11] == 4*) GOTO 0x0A5B
249: 0x0A50 [0x1D] PRINT_EVENT_MESSAGE(message_id=7323*)
    → "Thank you very much for your assistance today. I was able to gather much valuable data."
250: 0x0A53 [0x23] WAIT_FOR_DIALOG_INTERACTION
251: 0x0A54 [0x1D] PRINT_EVENT_MESSAGE(message_id=7347*)
    → "If you desire to leave, I will warp you to the entrance."
252: 0x0A57 [0x23] WAIT_FOR_DIALOG_INTERACTION
253: 0x0A58 [0x01] GOTO 0x0AF3
254: 0x0A5B [0x02] IF !(ExtData[1]->WorkLocal[11] == 5*) GOTO 0x0A6E
255: 0x0A63 [0x1D] PRINT_EVENT_MESSAGE(message_id=7326*)
    → "Okay, let's go, then! Thanks for all your help today. I learned some interesting things."
256: 0x0A66 [0x23] WAIT_FOR_DIALOG_INTERACTION
257: 0x0A67 [0x1D] PRINT_EVENT_MESSAGE(message_id=7350*)
    → "I can warp you to the entrance if you want. Well?"
258: 0x0A6A [0x23] WAIT_FOR_DIALOG_INTERACTION
259: 0x0A6B [0x01] GOTO 0x0AF3
260: 0x0A6E [0x02] IF !(ExtData[1]->WorkLocal[11] == 6*) GOTO 0x0A81
261: 0x0A76 [0x1D] PRINT_EVENT_MESSAGE(message_id=7327*)
    → "Well then, let's go! Thanks for everything today! I learned a lot!"
262: 0x0A79 [0x23] WAIT_FOR_DIALOG_INTERACTION
263: 0x0A7A [0x1D] PRINT_EVENT_MESSAGE(message_id=7351*)
    → "I'll warp you to the entrance if you want! How about it?"
264: 0x0A7D [0x23] WAIT_FOR_DIALOG_INTERACTION
265: 0x0A7E [0x01] GOTO 0x0AF3
266: 0x0A81 [0x02] IF !(ExtData[1]->WorkLocal[11] == 7*) GOTO 0x0A94
267: 0x0A89 [0x1D] PRINT_EVENT_MESSAGE(message_id=7328*)
    → "I gathered a lot of valuable data today, thanks to you."
268: 0x0A8C [0x23] WAIT_FOR_DIALOG_INTERACTION
269: 0x0A8D [0x1D] PRINT_EVENT_MESSAGE(message_id=7352*)
    → "If you wish to leave, I can warp you to the entrance. Well?"
270: 0x0A90 [0x23] WAIT_FOR_DIALOG_INTERACTION
271: 0x0A91 [0x01] GOTO 0x0AF3
272: 0x0A94 [0x02] IF !(ExtData[1]->WorkLocal[11] == 8*) GOTO 0x0AA7
273: 0x0A9C [0x1D] PRINT_EVENT_MESSAGE(message_id=7329*)
    → "Yep, let's go home! I saw some strange stuff today! Thanks for everything!"
274: 0x0A9F [0x23] WAIT_FOR_DIALOG_INTERACTION
275: 0x0AA0 [0x1D] PRINT_EVENT_MESSAGE(message_id=7353*)
    → "If you wanna leave, I can warp you to the entrance! What do you want to do?"
276: 0x0AA3 [0x23] WAIT_FOR_DIALOG_INTERACTION
277: 0x0AA4 [0x01] GOTO 0x0AF3
278: 0x0AA7 [0x02] IF !(ExtData[1]->WorkLocal[11] == 9*) GOTO 0x0ABA
279: 0x0AAF [0x1D] PRINT_EVENT_MESSAGE(message_id=7330*)
    → "Thank you very much for your assistance today. I was able to gather much valuable data."
280: 0x0AB2 [0x23] WAIT_FOR_DIALOG_INTERACTION
281: 0x0AB3 [0x1D] PRINT_EVENT_MESSAGE(message_id=7354*)
    → "If you desire to leave, I will warp you to the entrance."
282: 0x0AB6 [0x23] WAIT_FOR_DIALOG_INTERACTION
283: 0x0AB7 [0x01] GOTO 0x0AF3
284: 0x0ABA [0x02] IF !(ExtData[1]->WorkLocal[11] == 10*) GOTO 0x0ACD
285: 0x0AC2 [0x1D] PRINT_EVENT_MESSAGE(message_id=7324*)
    → "Thanks, <Player>. With your help, I was able to learn a lot."
286: 0x0AC5 [0x23] WAIT_FOR_DIALOG_INTERACTION
287: 0x0AC6 [0x1D] PRINT_EVENT_MESSAGE(message_id=7348*)
    → "Do you want me to warp you to the entrance?"
288: 0x0AC9 [0x23] WAIT_FOR_DIALOG_INTERACTION
289: 0x0ACA [0x01] GOTO 0x0AF3
290: 0x0ACD [0x02] IF !(ExtData[1]->WorkLocal[11] == 11*) GOTO 0x0AE0
291: 0x0AD5 [0x1D] PRINT_EVENT_MESSAGE(message_id=7325*)
    → "Great! Good job today, <Player>. We've got a lot to show for."
292: 0x0AD8 [0x23] WAIT_FOR_DIALOG_INTERACTION
293: 0x0AD9 [0x1D] PRINT_EVENT_MESSAGE(message_id=7349*)
    → "I can warp you to the entrance if you like. Interested?"
294: 0x0ADC [0x23] WAIT_FOR_DIALOG_INTERACTION
295: 0x0ADD [0x01] GOTO 0x0AF3
296: 0x0AE0 [0x02] IF !(ExtData[1]->WorkLocal[11] == 12*) GOTO 0x0AF3
297: 0x0AE8 [0x1D] PRINT_EVENT_MESSAGE(message_id=7331*)
    → "Then, let us leave this place. You did well today."
298: 0x0AEB [0x23] WAIT_FOR_DIALOG_INTERACTION
299: 0x0AEC [0x1D] PRINT_EVENT_MESSAGE(message_id=7355*)
    → "If you wish to be warped to the entrance, tell me."
300: 0x0AEF [0x23] WAIT_FOR_DIALOG_INTERACTION
301: 0x0AF0 [0x01] GOTO 0x0AF3

SUBROUTINE_0AF3:
302: 0x0AF3 [0x24] CREATE_DIALOG(message_id=7356*, default_option=1*, option_flags=0*)
    → "Return to the entrance? [Yes./Not yet.]"
303: 0x0AFA [0x25] WAIT_DIALOG_SELECT()
304: 0x0AFB [0x02] IF !(Work_Zone[0] == 0*) GOTO 0x0C32
305: 0x0B03 [0x02] IF !(ExtData[1]->WorkLocal[11] == 1*) GOTO 0x0B12
306: 0x0B0B [0x1D] PRINT_EVENT_MESSAGE(message_id=7357*)
    → "See you later."
307: 0x0B0E [0x23] WAIT_FOR_DIALOG_INTERACTION
308: 0x0B0F [0x01] GOTO 0x0BB7
309: 0x0B12 [0x02] IF !(ExtData[1]->WorkLocal[11] == 2*) GOTO 0x0B21
310: 0x0B1A [0x1D] PRINT_EVENT_MESSAGE(message_id=7358*)
    → "Later!"
311: 0x0B1D [0x23] WAIT_FOR_DIALOG_INTERACTION
312: 0x0B1E [0x01] GOTO 0x0BB7
313: 0x0B21 [0x02] IF !(ExtData[1]->WorkLocal[11] == 3*) GOTO 0x0B30
314: 0x0B29 [0x1D] PRINT_EVENT_MESSAGE(message_id=7359*)
    → "Later, then."
315: 0x0B2C [0x23] WAIT_FOR_DIALOG_INTERACTION
316: 0x0B2D [0x01] GOTO 0x0BB7
317: 0x0B30 [0x02] IF !(ExtData[1]->WorkLocal[11] == 4*) GOTO 0x0B3F
318: 0x0B38 [0x1D] PRINT_EVENT_MESSAGE(message_id=7360*)
    → "Until we meet again."
319: 0x0B3B [0x23] WAIT_FOR_DIALOG_INTERACTION
320: 0x0B3C [0x01] GOTO 0x0BB7
321: 0x0B3F [0x02] IF !(ExtData[1]->WorkLocal[11] == 5*) GOTO 0x0B4E
322: 0x0B47 [0x1D] PRINT_EVENT_MESSAGE(message_id=7363*)
    → "I will see you later."
323: 0x0B4A [0x23] WAIT_FOR_DIALOG_INTERACTION
324: 0x0B4B [0x01] GOTO 0x0BB7
325: 0x0B4E [0x02] IF !(ExtData[1]->WorkLocal[11] == 6*) GOTO 0x0B5D
326: 0x0B56 [0x1D] PRINT_EVENT_MESSAGE(message_id=7364*)
    → "See ya later!"
327: 0x0B59 [0x23] WAIT_FOR_DIALOG_INTERACTION
328: 0x0B5A [0x01] GOTO 0x0BB7
329: 0x0B5D [0x02] IF !(ExtData[1]->WorkLocal[11] == 7*) GOTO 0x0B6C
330: 0x0B65 [0x1D] PRINT_EVENT_MESSAGE(message_id=7365*)
    → "See you later, then."
331: 0x0B68 [0x23] WAIT_FOR_DIALOG_INTERACTION
332: 0x0B69 [0x01] GOTO 0x0BB7
333: 0x0B6C [0x02] IF !(ExtData[1]->WorkLocal[11] == 8*) GOTO 0x0B7B
334: 0x0B74 [0x1D] PRINT_EVENT_MESSAGE(message_id=7366*)
    → "Bye-bye!"
335: 0x0B77 [0x23] WAIT_FOR_DIALOG_INTERACTION
336: 0x0B78 [0x01] GOTO 0x0BB7
337: 0x0B7B [0x02] IF !(ExtData[1]->WorkLocal[11] == 9*) GOTO 0x0B8A
338: 0x0B83 [0x1D] PRINT_EVENT_MESSAGE(message_id=7367*)
    → "Until we meet again."
339: 0x0B86 [0x23] WAIT_FOR_DIALOG_INTERACTION
340: 0x0B87 [0x01] GOTO 0x0BB7
341: 0x0B8A [0x02] IF !(ExtData[1]->WorkLocal[11] == 10*) GOTO 0x0B99
342: 0x0B92 [0x1D] PRINT_EVENT_MESSAGE(message_id=7361*)
    → "See you."
343: 0x0B95 [0x23] WAIT_FOR_DIALOG_INTERACTION
344: 0x0B96 [0x01] GOTO 0x0BB7
345: 0x0B99 [0x02] IF !(ExtData[1]->WorkLocal[11] == 11*) GOTO 0x0BA8
346: 0x0BA1 [0x1D] PRINT_EVENT_MESSAGE(message_id=7362*)
    → "Take it easy!"
347: 0x0BA4 [0x23] WAIT_FOR_DIALOG_INTERACTION
348: 0x0BA5 [0x01] GOTO 0x0BB7
349: 0x0BA8 [0x02] IF !(ExtData[1]->WorkLocal[11] == 12*) GOTO 0x0BB7
350: 0x0BB0 [0x1D] PRINT_EVENT_MESSAGE(message_id=7368*)
    → "Don't let me catch you slacking off."
351: 0x0BB3 [0x23] WAIT_FOR_DIALOG_INTERACTION
352: 0x0BB4 [0x01] GOTO 0x0BB7

SUBROUTINE_0BB7:
353: 0x0BB7 [0x02] IF !(ExtData[1]->WorkLocal[2] == 1*) GOTO 0x0BCE
354: 0x0BBF [0xAD] DUAL_ENTITY_SCHEDULER_HANDLER: Execute sub-case 0 with entities [??? (ID: 16843082/0x0101014A), LocalPlayer], work=25*
355: 0x0BCB [0x01] GOTO 0x0C2A
356: 0x0BCE [0x02] IF !(ExtData[1]->WorkLocal[2] == 2*) GOTO 0x0BE5
357: 0x0BD6 [0xAD] DUAL_ENTITY_SCHEDULER_HANDLER: Execute sub-case 0 with entities [??? (ID: 16843083/0x0101014B), LocalPlayer], work=25*
358: 0x0BE2 [0x01] GOTO 0x0C2A
359: 0x0BE5 [0x02] IF !(ExtData[1]->WorkLocal[2] == 3*) GOTO 0x0BFC
360: 0x0BED [0xAD] DUAL_ENTITY_SCHEDULER_HANDLER: Execute sub-case 0 with entities [??? (ID: 16843084/0x0101014C), LocalPlayer], work=25*
361: 0x0BF9 [0x01] GOTO 0x0C2A
362: 0x0BFC [0x02] IF !(ExtData[1]->WorkLocal[2] == 4*) GOTO 0x0C13
363: 0x0C04 [0xAD] DUAL_ENTITY_SCHEDULER_HANDLER: Execute sub-case 0 with entities [??? (ID: 16843085/0x0101014D), LocalPlayer], work=25*
364: 0x0C10 [0x01] GOTO 0x0C2A
365: 0x0C13 [0x02] IF !(ExtData[1]->WorkLocal[2] == 5*) GOTO 0x0C2A
366: 0x0C1B [0xAD] DUAL_ENTITY_SCHEDULER_HANDLER: Execute sub-case 0 with entities [??? (ID: 16843086/0x0101014E), LocalPlayer], work=25*
367: 0x0C27 [0x01] GOTO 0x0C2A

SUBROUTINE_0C2A:
368: 0x0C2A [0x03] Work_Zone[1] = 1*
369: 0x0C2F [0x01] GOTO 0x0CF6
370: 0x0C32 [0x02] IF !(Work_Zone[0] == 1*) GOTO 0x0CF6
371: 0x0C3A [0x02] IF !(ExtData[1]->WorkLocal[11] == 1*) GOTO 0x0C49
372: 0x0C42 [0x1D] PRINT_EVENT_MESSAGE(message_id=7357*)
    → "See you later."
373: 0x0C45 [0x23] WAIT_FOR_DIALOG_INTERACTION
374: 0x0C46 [0x01] GOTO 0x0CEE
375: 0x0C49 [0x02] IF !(ExtData[1]->WorkLocal[11] == 2*) GOTO 0x0C58
376: 0x0C51 [0x1D] PRINT_EVENT_MESSAGE(message_id=7358*)
    → "Later!"
377: 0x0C54 [0x23] WAIT_FOR_DIALOG_INTERACTION
378: 0x0C55 [0x01] GOTO 0x0CEE
379: 0x0C58 [0x02] IF !(ExtData[1]->WorkLocal[11] == 3*) GOTO 0x0C67
380: 0x0C60 [0x1D] PRINT_EVENT_MESSAGE(message_id=7359*)
    → "Later, then."
381: 0x0C63 [0x23] WAIT_FOR_DIALOG_INTERACTION
382: 0x0C64 [0x01] GOTO 0x0CEE
383: 0x0C67 [0x02] IF !(ExtData[1]->WorkLocal[11] == 4*) GOTO 0x0C76
384: 0x0C6F [0x1D] PRINT_EVENT_MESSAGE(message_id=7360*)
    → "Until we meet again."
385: 0x0C72 [0x23] WAIT_FOR_DIALOG_INTERACTION
386: 0x0C73 [0x01] GOTO 0x0CEE
387: 0x0C76 [0x02] IF !(ExtData[1]->WorkLocal[11] == 5*) GOTO 0x0C85
388: 0x0C7E [0x1D] PRINT_EVENT_MESSAGE(message_id=7363*)
    → "I will see you later."
389: 0x0C81 [0x23] WAIT_FOR_DIALOG_INTERACTION
390: 0x0C82 [0x01] GOTO 0x0CEE
391: 0x0C85 [0x02] IF !(ExtData[1]->WorkLocal[11] == 6*) GOTO 0x0C94
392: 0x0C8D [0x1D] PRINT_EVENT_MESSAGE(message_id=7364*)
    → "See ya later!"
393: 0x0C90 [0x23] WAIT_FOR_DIALOG_INTERACTION
394: 0x0C91 [0x01] GOTO 0x0CEE
395: 0x0C94 [0x02] IF !(ExtData[1]->WorkLocal[11] == 7*) GOTO 0x0CA3
396: 0x0C9C [0x1D] PRINT_EVENT_MESSAGE(message_id=7365*)
    → "See you later, then."
397: 0x0C9F [0x23] WAIT_FOR_DIALOG_INTERACTION
398: 0x0CA0 [0x01] GOTO 0x0CEE
399: 0x0CA3 [0x02] IF !(ExtData[1]->WorkLocal[11] == 8*) GOTO 0x0CB2
400: 0x0CAB [0x1D] PRINT_EVENT_MESSAGE(message_id=7366*)
    → "Bye-bye!"
401: 0x0CAE [0x23] WAIT_FOR_DIALOG_INTERACTION
402: 0x0CAF [0x01] GOTO 0x0CEE
403: 0x0CB2 [0x02] IF !(ExtData[1]->WorkLocal[11] == 9*) GOTO 0x0CC1
404: 0x0CBA [0x1D] PRINT_EVENT_MESSAGE(message_id=7367*)
    → "Until we meet again."
405: 0x0CBD [0x23] WAIT_FOR_DIALOG_INTERACTION
406: 0x0CBE [0x01] GOTO 0x0CEE
407: 0x0CC1 [0x02] IF !(ExtData[1]->WorkLocal[11] == 10*) GOTO 0x0CD0
408: 0x0CC9 [0x1D] PRINT_EVENT_MESSAGE(message_id=7361*)
    → "See you."
409: 0x0CCC [0x23] WAIT_FOR_DIALOG_INTERACTION
410: 0x0CCD [0x01] GOTO 0x0CEE
411: 0x0CD0 [0x02] IF !(ExtData[1]->WorkLocal[11] == 11*) GOTO 0x0CDF
412: 0x0CD8 [0x1D] PRINT_EVENT_MESSAGE(message_id=7362*)
    → "Take it easy!"
413: 0x0CDB [0x23] WAIT_FOR_DIALOG_INTERACTION
414: 0x0CDC [0x01] GOTO 0x0CEE
415: 0x0CDF [0x02] IF !(ExtData[1]->WorkLocal[11] == 12*) GOTO 0x0CEE
416: 0x0CE7 [0x1D] PRINT_EVENT_MESSAGE(message_id=7368*)
    → "Don't let me catch you slacking off."
417: 0x0CEA [0x23] WAIT_FOR_DIALOG_INTERACTION
418: 0x0CEB [0x01] GOTO 0x0CEE

SUBROUTINE_0CEE:
419: 0x0CEE [0x03] Work_Zone[1] = 2*
420: 0x0CF3 [0x01] GOTO 0x0CF6

SUBROUTINE_0CF6:
421: 0x0CF6 [0x01] GOTO 0x0CF9

SUBROUTINE_0CF9:
422: 0x0CF9 [0x21] END_EVENT
423: 0x0CFA [0x00] END_REQSTACK()
```

### Event 56

#### Metadata

| Field        | Value      |
|--------------|------------|
| Entrypoint   | 0x0CFB     |
| Data Size    | 1661 bytes |
| Instructions | 424        |

```
      00 01 02 03 04 05 06 07  08 09 0A 0B 0C 0D 0E 0F
      -- -- -- -- -- -- -- --  -- -- -- -- -- -- -- --
0CF0:                                   37 6C 80 6D 80             7l.m.
0D00: 6E 80 6F 80 03 02 00 0D  80 03 00 00 03 10 03 01  n.o.............
0D10: 10 05 80 80 F8 FF FF 7F  1A CC 22 1A 02 38 13 01  .........."..8..
0D20: 00 06 80 02 0B 00 04 80  80 5B 0D 02 01 00 05 80  .........[......
0D30: 80 3A 0D 1D 07 80 23 01  58 0D 02 01 00 04 80 80  .:....#.X.......
0D40: 49 0D 1D 08 80 23 01 58  0D 02 01 00 06 80 80 58  I....#.X.......X
0D50: 0D 1D 09 80 23 01 58 0D  01 C3 0F 02 0B 00 06 80  ....#.X.........
0D60: 80 93 0D 02 01 00 05 80  80 72 0D 1D 0A 80 23 01  .........r....#.
0D70: 90 0D 02 01 00 04 80 80  81 0D 1D 0B 80 23 01 90  .............#..
0D80: 0D 02 01 00 06 80 80 90  0D 1D 0C 80 23 01 90 0D  ............#...
0D90: 01 C3 0F 02 0B 00 0D 80  80 CB 0D 02 01 00 05 80  ................
0DA0: 80 AA 0D 1D 0E 80 23 01  C8 0D 02 01 00 04 80 80  ......#.........
0DB0: B9 0D 1D 0F 80 23 01 C8  0D 02 01 00 06 80 80 C8  .....#..........
0DC0: 0D 1D 10 80 23 01 C8 0D  01 C3 0F 02 0B 00 11 80  ....#...........
0DD0: 80 03 0E 02 01 00 05 80  80 E2 0D 1D 12 80 23 01  ..............#.
0DE0: 00 0E 02 01 00 04 80 80  F1 0D 1D 13 80 23 01 00  .............#..
0DF0: 0E 02 01 00 06 80 80 00  0E 1D 14 80 23 01 00 0E  ............#...
0E00: 01 C3 0F 02 0B 00 15 80  80 3B 0E 02 01 00 05 80  .........;......
0E10: 80 1A 0E 1D 16 80 23 01  38 0E 02 01 00 04 80 80  ......#.8.......
0E20: 29 0E 1D 17 80 23 01 38  0E 02 01 00 06 80 80 38  )....#.8.......8
0E30: 0E 1D 18 80 23 01 38 0E  01 C3 0F 02 0B 00 19 80  ....#.8.........
0E40: 80 73 0E 02 01 00 05 80  80 52 0E 1D 1A 80 23 01  .s.......R....#.
0E50: 70 0E 02 01 00 04 80 80  61 0E 1D 1B 80 23 01 70  p.......a....#.p
