# Event 65535

## Metadata

| Field           | Value    |
|-----------------|----------|
| Event Index     | 2/13     |
| Offset          | 0x0001   |
| Data Size       | 69 bytes |
| Calculated Size | 69 bytes |
| Instructions    | 12       |

```
      00 01 02 03 04 05 06 07  08 09 0A 0B 0C 0D 0E 0F
      -- -- -- -- -- -- -- --  -- -- -- -- -- -- -- --
0000:    1E F0 FF FF 7F 79 00  81 32 07 01 F0 FF FF 7F   .....y..2......
0010: 66 00 80 81 32 07 01 81  32 07 01 74 6C 6B 30 2B  f...2...2..tlk0+
0020: 81 32 07 01 01 80 23 2B  81 32 07 01 02 80 23 1C  .2....#+.2....#.
0030: 03 80 66 00 80 81 32 07  01 81 32 07 01 74 6C 6B  ..f...2...2..tlk
0040: 31 1C 04 80 21 00                                 1...!.          
```

## Opcodes

```
  0: 0x0001 [0x1E] EventEntity looks at LocalPlayer and starts talking
  1: 0x0006 [0x79] Khoto Rokkorah (ID: 17248897/0x01073281) looks at LocalPlayer (Basic look)
  2: 0x0010 [0x66] LOAD_EXT_SCHEDULER_MAIN: Load scheduler "tlk0" with entities [Khoto Rokkorah (ID: 17248897/0x01073281), Khoto Rokkorah (ID: 17248897/0x01073281)], work=59*
  3: 0x001F [0x2B] Khoto Rokkorah (ID: 17248897/0x01073281) [11391*]:
    → "Hello! Have you come to hear a tale?\u007F1\u0000\u0007"
  4: 0x0026 [0x23] WAIT_FOR_DIALOG_INTERACTION
  5: 0x0027 [0x2B] Khoto Rokkorah (ID: 17248897/0x01073281) [11392*]:
    → "I'm a storyteller, and I often entertain the children here with fantastic yarns and magical myths.\u007F1\u0000\u0007"
  6: 0x002E [0x23] WAIT_FOR_DIALOG_INTERACTION
  7: 0x002F [0x1C] WAIT(40* ticks)
  8: 0x0032 [0x66] LOAD_EXT_SCHEDULER_MAIN: Load scheduler "tlk1" with entities [Khoto Rokkorah (ID: 17248897/0x01073281), Khoto Rokkorah (ID: 17248897/0x01073281)], work=59*
  9: 0x0041 [0x1C] WAIT(90* ticks)
 10: 0x0044 [0x21] END_EVENT
 11: 0x0045 [0x00] END_REQSTACK()
```
