# Event 65535

## Metadata

| Field           | Value    |
|-----------------|----------|
| Event Index     | 9/13     |
| Offset          | 0x00E6   |
| Data Size       | 81 bytes |
| Calculated Size | 81 bytes |
| Instructions    | 10       |

```
      00 01 02 03 04 05 06 07  08 09 0A 0B 0C 0D 0E 0F
      -- -- -- -- -- -- -- --  -- -- -- -- -- -- -- --
00E0:                   45 0B  80 F0 FF FF 7F F0 FF FF        E.........
00F0: 7F 62 6C 6F 66 0C 80 1C  0D 80 80 80 32 07 01 80  .blof.......2...
0100: 81 32 07 01 5B 06 80 80  32 07 01 80 32 07 01 68  .2..[...2...2..h
0110: 6F 6E 30 5B 05 80 81 32  07 01 81 32 07 01 68 6F  on0[...2...2..ho
0120: 6C 32 5B 06 80 80 32 07  01 80 32 07 01 68 6F 6C  l2[...2...2..hol
0130: 32 1C 0D 80 AB 0A 00                              2......         
```

## Opcodes

```
  0: 0x00E6 [0x45] LOAD_SCHEDULED_TASK: Load scheduler "blof" with entities [LocalPlayer, LocalPlayer], work=[200*, 0*]
  1: 0x00F7 [0x1C] WAIT(15* ticks)
  2: 0x00FA [0x80] LOAD_WAIT(entity=Unnamed NPC (ID: 17248896/0x01073280))
  3: 0x00FF [0x80] LOAD_WAIT(entity=Khoto Rokkorah (ID: 17248897/0x01073281))
  4: 0x0104 [0x5B] LOAD_EXT_SCHEDULER: Load scheduler "hon0" with entities [Unnamed NPC (ID: 17248896/0x01073280), Unnamed NPC (ID: 17248896/0x01073280)], work=1323*
  5: 0x0113 [0x5B] LOAD_EXT_SCHEDULER: Load scheduler "hol2" with entities [Khoto Rokkorah (ID: 17248897/0x01073281), Khoto Rokkorah (ID: 17248897/0x01073281)], work=1529*
  6: 0x0122 [0x5B] LOAD_EXT_SCHEDULER: Load scheduler "hol2" with entities [Unnamed NPC (ID: 17248896/0x01073280), Unnamed NPC (ID: 17248896/0x01073280)], work=1323*
  7: 0x0131 [0x1C] WAIT(15* ticks)
  8: 0x0134 [0xAB] EventEntity->UnknownFlag = 0 // Disable unknown flag
  9: 0x0136 [0x00] END_REQSTACK()
```
