# Event 65535

## Metadata

| Field           | Value    |
|-----------------|----------|
| Event Index     | 8/13     |
| Offset          | 0x00A9   |
| Data Size       | 61 bytes |
| Calculated Size | 61 bytes |
| Instructions    | 5        |

```
      00 01 02 03 04 05 06 07  08 09 0A 0B 0C 0D 0E 0F
      -- -- -- -- -- -- -- --  -- -- -- -- -- -- -- --
00A0:                             5B 06 80 80 32 07 01           [...2..
00B0: 80 32 07 01 68 6F 6E 31  5B 05 80 81 32 07 01 81  .2..hon1[...2...
00C0: 32 07 01 68 6F 6E 31 5B  06 80 80 32 07 01 80 32  2..hon1[...2...2
00D0: 07 01 68 6F 6E 32 5B 05  80 81 32 07 01 81 32 07  ..hon2[...2...2.
00E0: 01 68 6F 6E 32 00                                 .hon2.          
```

## Opcodes

```
  0: 0x00A9 [0x5B] LOAD_EXT_SCHEDULER: Load scheduler "hon1" with entities [Unnamed NPC (ID: 17248896/0x01073280), Unnamed NPC (ID: 17248896/0x01073280)], work=1323*
  1: 0x00B8 [0x5B] LOAD_EXT_SCHEDULER: Load scheduler "hon1" with entities [Khoto Rokkorah (ID: 17248897/0x01073281), Khoto Rokkorah (ID: 17248897/0x01073281)], work=1529*
  2: 0x00C7 [0x5B] LOAD_EXT_SCHEDULER: Load scheduler "hon2" with entities [Unnamed NPC (ID: 17248896/0x01073280), Unnamed NPC (ID: 17248896/0x01073280)], work=1323*
  3: 0x00D6 [0x5B] LOAD_EXT_SCHEDULER: Load scheduler "hon2" with entities [Khoto Rokkorah (ID: 17248897/0x01073281), Khoto Rokkorah (ID: 17248897/0x01073281)], work=1529*
  4: 0x00E5 [0x00] END_REQSTACK()
```
