# Event 102

## Metadata

| Field           | Value    |
|-----------------|----------|
| Event Index     | 5/6      |
| Offset          | 0x01F5   |
| Data Size       | 35 bytes |
| Calculated Size | 35 bytes |
| Instructions    | 13       |

```
      00 01 02 03 04 05 06 07  08 09 0A 0B 0C 0D 0E 0F
      -- -- -- -- -- -- -- --  -- -- -- -- -- -- -- --
01F0:                4A F0 FF  FF 7F F8 FF FF 7F 1C 00       J..........
0200: 80 6F 76 F0 FF FF 7F 1E  F0 FF FF 7F 6F 70 1D 1D  .ov.........op..
0210: 80 23 1D 1F 80 23 21 00                           .#...#!.        
```

## Opcodes

```
  0: 0x01F5 [0x4A] LocalPlayer looks at EventEntity
  1: 0x01FE [0x1C] WAIT(60* ticks)
  2: 0x0201 [0x6F] WAIT_FRAME_DELAY: Yield until WaitTime reaches zero
  3: 0x0202 [0x76] CHECK_ENTITY_RENDER_FLAGS: Wait until LocalPlayer Render.Flags0 and Render.Flags3 conditions are met
  4: 0x0207 [0x1E] EventEntity looks at LocalPlayer and starts talking
  5: 0x020C [0x6F] WAIT_FRAME_DELAY: Yield until WaitTime reaches zero
  6: 0x020D [0x70] WAIT_ENTITY_RENDER_FLAG: Wait while EventEntity->Render.Flags3 bit 2 is set (cancel turn if not)
  7: 0x020E [0x1D] PRINT_EVENT_MESSAGE(message_id=11489*)
    → "A hidden message appears when you submerge it in a particular type of acid.\u007F1\u0000\u0007"
  8: 0x0211 [0x23] WAIT_FOR_DIALOG_INTERACTION
  9: 0x0212 [0x1D] PRINT_EVENT_MESSAGE(message_id=11490*)
    → "The path from here on is for you to decide.\u007F1\u0000\u0007"
 10: 0x0215 [0x23] WAIT_FOR_DIALOG_INTERACTION
 11: 0x0216 [0x21] END_EVENT
 12: 0x0217 [0x00] END_REQSTACK()
```
