# Event 134

## Metadata

| Field           | Value    |
|-----------------|----------|
| Event Index     | 6/12     |
| Offset          | 0x0229   |
| Data Size       | 55 bytes |
| Calculated Size | 55 bytes |
| Instructions    | 9        |

```
      00 01 02 03 04 05 06 07  08 09 0A 0B 0C 0D 0E 0F
      -- -- -- -- -- -- -- --  -- -- -- -- -- -- -- --
0220:                             42 1E F0 FF FF 7F 5B           B.....[
0230: 00 80 06 32 09 01 06 32  09 01 74 6C 6B 30 1D 21  ...2...2..tlk0.!
0240: 80 23 5B 00 80 06 32 09  01 06 32 09 01 70 61 73  .#[...2...2..pas
0250: 30 53 06 32 09 01 06 32  09 01 70 61 73 30 21 00  0S.2...2..pas0!.
```

## Opcodes

```
  0: 0x0229 [0x42] SET_CLI_EVENT_CANCEL_DATA()
  1: 0x022A [0x1E] EventEntity looks at LocalPlayer and starts talking
  2: 0x022F [0x5B] LOAD_EXT_SCHEDULER(work_offset=215*, entity1=Haggleblix (ID: 17379846/0x01093206), entity2=Haggleblix (ID: 17379846/0x01093206), action="tlk0")
  3: 0x023E [0x1D] PRINT_EVENT_MESSAGE(message_id=7451*)
    → "I didn't think there were people who loved this sorta stuff as much as I do. You really understand what things are worth. \u0007I don't give discounts, but you're welcome back anytime.\u007F1\u0000\u0007"
  4: 0x0241 [0x23] WAIT_FOR_DIALOG_INTERACTION
  5: 0x0242 [0x5B] LOAD_EXT_SCHEDULER(work_offset=215*, entity1=Haggleblix (ID: 17379846/0x01093206), entity2=Haggleblix (ID: 17379846/0x01093206), action="pas0")
  6: 0x0251 [0x53] WAIT_SCHEDULER_TASK(entity1=Haggleblix (ID: 17379846/0x01093206), entity2=Haggleblix (ID: 17379846/0x01093206), action_id="pas0")
  7: 0x025E [0x21] END_EVENT
  8: 0x025F [0x00] END_REQSTACK()
```
