# Event 152

## Metadata

| Field           | Value    |
|-----------------|----------|
| Event Index     | 7/12     |
| Offset          | 0x0260   |
| Data Size       | 55 bytes |
| Calculated Size | 55 bytes |
| Instructions    | 9        |

```
      00 01 02 03 04 05 06 07  08 09 0A 0B 0C 0D 0E 0F
      -- -- -- -- -- -- -- --  -- -- -- -- -- -- -- --
0260: 42 1E F0 FF FF 7F 5B 00  80 06 32 09 01 06 32 09  B.....[...2...2.
0270: 01 74 6C 6B 30 1D 21 80  23 5B 00 80 06 32 09 01  .tlk0.!.#[...2..
0280: 06 32 09 01 70 61 73 30  53 06 32 09 01 06 32 09  .2..pas0S.2...2.
0290: 01 70 61 73 30 21 00                              .pas0!.         
```

## Opcodes

```
  0: 0x0260 [0x42] SET_CLI_EVENT_CANCEL_DATA()
  1: 0x0261 [0x1E] EventEntity looks at LocalPlayer and starts talking
  2: 0x0266 [0x5B] LOAD_EXT_SCHEDULER: Load scheduler "tlk0" with entities [Haggleblix (ID: 17379846/0x01093206), Haggleblix (ID: 17379846/0x01093206)], work=215*
  3: 0x0275 [0x1D] PRINT_EVENT_MESSAGE(message_id=7451*)
    → "I didn't think there were people who loved this sorta stuff as much as I do. You really understand what things are worth. \u0007I don't give discounts, but you're welcome back anytime.\u007F1\u0000\u0007"
  4: 0x0278 [0x23] WAIT_FOR_DIALOG_INTERACTION
  5: 0x0279 [0x5B] LOAD_EXT_SCHEDULER: Load scheduler "pas0" with entities [Haggleblix (ID: 17379846/0x01093206), Haggleblix (ID: 17379846/0x01093206)], work=215*
  6: 0x0288 [0x53] WAIT_SCHEDULER_TASK: Wait for scheduler "pas0" with entities [Haggleblix (ID: 17379846/0x01093206), Haggleblix (ID: 17379846/0x01093206)]
  7: 0x0295 [0x21] END_EVENT
  8: 0x0296 [0x00] END_REQSTACK()
```
