# Event 65535

## Metadata

| Field           | Value    |
|-----------------|----------|
| Event Index     | 16/16    |
| Offset          | 0x009E   |
| Data Size       | 45 bytes |
| Calculated Size | 45 bytes |
| Instructions    | 11       |

```
      00 01 02 03 04 05 06 07  08 09 0A 0B 0C 0D 0E 0F
      -- -- -- -- -- -- -- --  -- -- -- -- -- -- -- --
0090:                                            32 07                2.
00A0: 80 1F 00 1C 80 1D 80 1E  80 1F 01 1F 00 1F 80 20  ............... 
00B0: 80 1E 80 1F 01 1F 00 21  80 22 80 23 80 1F 01 1F  .......!.".#....
00C0: 00 24 80 25 80 05 80 1F  01 6F 00                 .$.%.....o.     
```

## Opcodes

```
  0: 0x009E [0x32] ExtData[1]->MainSpeed = 40* * 0.1
  1: 0x00A1 [0x1F] MOVE_ENTITY: EventEntity moves to X=-465.627*, Z=11.736*, Y=121.999*
  2: 0x00A9 [0x1F] MOVE_ENTITY: Update entity position (mode=1)
  3: 0x00AB [0x1F] MOVE_ENTITY: EventEntity moves to X=-463.228*, Z=7.465*, Y=121.999*
  4: 0x00B3 [0x1F] MOVE_ENTITY: Update entity position (mode=1)
  5: 0x00B5 [0x1F] MOVE_ENTITY: EventEntity moves to X=-461.479*, Z=-0.206*, Y=119.906*
  6: 0x00BD [0x1F] MOVE_ENTITY: Update entity position (mode=1)
  7: 0x00BF [0x1F] MOVE_ENTITY: EventEntity moves to X=-460.458*, Z=-10.311*, Y=119.999*
  8: 0x00C7 [0x1F] MOVE_ENTITY: Update entity position (mode=1)
  9: 0x00C9 [0x6F] WAIT_FRAME_DELAY: Yield until WaitTime reaches zero
 10: 0x00CA [0x00] END_REQSTACK()
```
