# Event 65535

## Metadata

| Field           | Value    |
|-----------------|----------|
| Event Index     | 12/14    |
| Offset          | 0x004C   |
| Data Size       | 47 bytes |
| Calculated Size | 47 bytes |
| Instructions    | 8        |

```
      00 01 02 03 04 05 06 07  08 09 0A 0B 0C 0D 0E 0F
      -- -- -- -- -- -- -- --  -- -- -- -- -- -- -- --
0040:                                      79 00 5A 03              y.Z.
0050: 06 01 59 03 06 01 32 0C  80 1F 00 0D 80 0E 80 0F  ..Y...2.........
0060: 80 1F 01 1E 59 03 06 01  1C 03 80 5B 10 80 5A 03  ....Y......[..Z.
0070: 06 01 5A 03 06 01 67 75  75 30 00                 ..Z...guu0.     
```

## Opcodes

```
  0: 0x004C [0x79] Syu Befrathi (ID: 17171290/0x0106035A) looks at Nhev Befrathi (ID: 17171289/0x01060359) (Basic look)
  1: 0x0056 [0x32] ExtData[1]->MainSpeed = 40* * 0.1
  2: 0x0059 [0x1F] MOVE_ENTITY: EventEntity moves to X=-449.486*, Z=340.306*, Y=-26.997*
  3: 0x0061 [0x1F] MOVE_ENTITY: Update entity position (mode=1)
  4: 0x0063 [0x1E] EventEntity looks at Nhev Befrathi (ID: 17171289/0x01060359) and starts talking
  5: 0x0068 [0x1C] WAIT(30* ticks)
  6: 0x006B [0x5B] LOAD_EXT_SCHEDULER: Load scheduler "guu0" with entities [Syu Befrathi (ID: 17171290/0x0106035A), Syu Befrathi (ID: 17171290/0x0106035A)], work=1284*
  7: 0x007A [0x00] END_REQSTACK()
```
