# Event 65535

## Metadata

| Field           | Value    |
|-----------------|----------|
| Event Index     | 7/14     |
| Offset          | 0x007C   |
| Data Size       | 53 bytes |
| Calculated Size | 53 bytes |
| Instructions    | 7        |

```
      00 01 02 03 04 05 06 07  08 09 0A 0B 0C 0D 0E 0F
      -- -- -- -- -- -- -- --  -- -- -- -- -- -- -- --
0070:                                      7C 00 F8 FF              |...
0080: FF 7F 81 00 F8 FF FF 7F  5B 02 80 F8 FF FF 7F F8  ........[.......
0090: FF FF 7F 68 61 69 30 53  F8 FF FF 7F F8 FF FF 7F  ...hai0S........
00A0: 68 61 69 30 7C 01 F8 FF  FF 7F 81 01 F8 FF FF 7F  hai0|...........
00B0: 00                                                .               
```

## Opcodes

```
  0: 0x007C [0x7C] EventEntity->Render.Flags2 |= 0x00
  1: 0x0082 [0x81] SET_ENTITY_BLINKING(blink_flag=0x00, entity=EventEntity)
  2: 0x0088 [0x5B] LOAD_EXT_SCHEDULER(work_offset=81*, entity1=EventEntity, entity2=EventEntity, action="hai0")
  3: 0x0097 [0x53] WAIT_SCHEDULER_TASK(entity1=EventEntity, entity2=EventEntity, action_id="hai0")
  4: 0x00A4 [0x7C] EventEntity->Render.Flags2 |= 0x01
  5: 0x00AA [0x81] SET_ENTITY_BLINKING(blink_flag=0x01, entity=EventEntity)
  6: 0x00B0 [0x00] END_REQSTACK()
```
