# Event 395

## Metadata

| Field           | Value    |
|-----------------|----------|
| Event Index     | 38/133   |
| Offset          | 0x025C   |
| Data Size       | 33 bytes |
| Calculated Size | 33 bytes |
| Instructions    | 12       |

```
      00 01 02 03 04 05 06 07  08 09 0A 0B 0C 0D 0E 0F
      -- -- -- -- -- -- -- --  -- -- -- -- -- -- -- --
0250:                                      1E F0 FF FF              ....
0260: 7F 6F 70 29 08 55 00 0F  01 01 1D 16 80 23 1D 17  .op).U.......#..
0270: 80 23 29 08 55 00 0F 01  02 20 00 21 00           .#).U.... .!.   
```

## Opcodes

```
  0: 0x025C [0x1E] EventEntity looks at LocalPlayer and starts talking
  1: 0x0261 [0x6F] WAIT_FRAME_DELAY: Yield until WaitTime reaches zero
  2: 0x0262 [0x70] WAIT_ENTITY_RENDER_FLAG: Wait while EventEntity->Render.Flags3 bit 2 is set (cancel turn if not)
  3: 0x0263 [0x29] REQ_SET_WAIT(priority=0x08, entity_id=Pichichi (ID: 17760341/0x010F0055), tag_num=0x01)
  4: 0x026A [0x1D] PRINT_EVENT_MESSAGE(message_id=4275*)
    → "I wonder if I athk Mommy nithely, she'll make me a weapon?\u007F1\u0000\u0007"
  5: 0x026D [0x23] WAIT_FOR_DIALOG_INTERACTION
  6: 0x026E [0x1D] PRINT_EVENT_MESSAGE(message_id=4276*)
    → "The ultimate killing machine would be cool, but a pretty staff of tranthformation would altho be thweet...\u007F1\u0000\u0007"
  7: 0x0271 [0x23] WAIT_FOR_DIALOG_INTERACTION
  8: 0x0272 [0x29] REQ_SET_WAIT(priority=0x08, entity_id=Pichichi (ID: 17760341/0x010F0055), tag_num=0x02)
  9: 0x0279 [0x20] SET_CLI_EVENT_UC_FLAG: Unlock player control
 10: 0x027B [0x21] END_EVENT
 11: 0x027C [0x00] END_REQSTACK()
```
