# Event 503

## Metadata

| Field           | Value    |
|-----------------|----------|
| Event Index     | 101/133  |
| Offset          | 0x05E8   |
| Data Size       | 33 bytes |
| Calculated Size | 33 bytes |
| Instructions    | 12       |

```
      00 01 02 03 04 05 06 07  08 09 0A 0B 0C 0D 0E 0F
      -- -- -- -- -- -- -- --  -- -- -- -- -- -- -- --
05E0:                          1E F0 FF FF 7F 6F 70 29          .....op)
05F0: 08 55 00 0F 01 07 1D 8C  80 23 1D 8D 80 23 29 08  .U.......#...#).
0600: 55 00 0F 01 08 20 00 21  00                       U.... .!.       
```

## Opcodes

```
  0: 0x05E8 [0x1E] EventEntity looks at LocalPlayer and starts talking
  1: 0x05ED [0x6F] WAIT_FRAME_DELAY: Yield until WaitTime reaches zero
  2: 0x05EE [0x70] WAIT_ENTITY_RENDER_FLAG: Wait while EventEntity->Render.Flags3 bit 2 is set (cancel turn if not)
  3: 0x05EF [0x29] REQ_SET_WAIT(priority=0x08, entity_id=Pichichi (ID: 17760341/0x010F0055), tag_num=0x07)
  4: 0x05F6 [0x1D] PRINT_EVENT_MESSAGE(message_id=12435*)
    → "They thay that Honoi-Gomoi ith a bad man 'cos hith grandfather'th, grandfather'th, grandfather wath a bad man too.\u007F1\u0000\u0007"
  5: 0x05F9 [0x23] WAIT_FOR_DIALOG_INTERACTION
  6: 0x05FA [0x1D] PRINT_EVENT_MESSAGE(message_id=12436*)
    → "It'th very confuthing, but it'th the truth.\u0007My mom told me tho.\u007F1\u0000\u0007"
  7: 0x05FD [0x23] WAIT_FOR_DIALOG_INTERACTION
  8: 0x05FE [0x29] REQ_SET_WAIT(priority=0x08, entity_id=Pichichi (ID: 17760341/0x010F0055), tag_num=0x08)
  9: 0x0605 [0x20] SET_CLI_EVENT_UC_FLAG: Unlock player control
 10: 0x0607 [0x21] END_EVENT
 11: 0x0608 [0x00] END_REQSTACK()
```
