# Event 511

## Metadata

| Field           | Value    |
|-----------------|----------|
| Event Index     | 102/133  |
| Offset          | 0x0609   |
| Data Size       | 33 bytes |
| Calculated Size | 33 bytes |
| Instructions    | 12       |

```
      00 01 02 03 04 05 06 07  08 09 0A 0B 0C 0D 0E 0F
      -- -- -- -- -- -- -- --  -- -- -- -- -- -- -- --
0600:                             1E F0 FF FF 7F 6F 70           .....op
0610: 29 08 55 00 0F 01 07 1D  8E 80 23 29 08 55 00 0F  ).U.......#).U..
0620: 01 08 1D 8F 80 23 20 00  21 00                    .....# .!.      
```

## Opcodes

```
  0: 0x0609 [0x1E] EventEntity looks at LocalPlayer and starts talking
  1: 0x060E [0x6F] WAIT_FRAME_DELAY: Yield until WaitTime reaches zero
  2: 0x060F [0x70] WAIT_ENTITY_RENDER_FLAG: Wait while EventEntity->Render.Flags3 bit 2 is set (cancel turn if not)
  3: 0x0610 [0x29] REQ_SET_WAIT(priority=0x08, entity_id=Pichichi (ID: 17760341/0x010F0055), tag_num=0x07)
  4: 0x0617 [0x1D] PRINT_EVENT_MESSAGE(message_id=12470*)
    → "They thay that Honoi-Gomoi ith a bad perthon 'cos hith grandmother'th, grandmother'th, grandmother wath a bad perthon too.\u007F1\u0000\u0007"
  5: 0x061A [0x23] WAIT_FOR_DIALOG_INTERACTION
  6: 0x061B [0x29] REQ_SET_WAIT(priority=0x08, entity_id=Pichichi (ID: 17760341/0x010F0055), tag_num=0x08)
  7: 0x0622 [0x1D] PRINT_EVENT_MESSAGE(message_id=12471*)
    → "Huh? Grandmother?\u0007It wath hith grandmother right?\u007F1\u0000\u0007"
  8: 0x0625 [0x23] WAIT_FOR_DIALOG_INTERACTION
  9: 0x0626 [0x20] SET_CLI_EVENT_UC_FLAG: Unlock player control
 10: 0x0628 [0x21] END_EVENT
 11: 0x0629 [0x00] END_REQSTACK()
```
