# Event 524

## Metadata

| Field           | Value    |
|-----------------|----------|
| Event Index     | 112/133  |
| Offset          | 0x066B   |
| Data Size       | 33 bytes |
| Calculated Size | 33 bytes |
| Instructions    | 12       |

```
      00 01 02 03 04 05 06 07  08 09 0A 0B 0C 0D 0E 0F
      -- -- -- -- -- -- -- --  -- -- -- -- -- -- -- --
0660:                                   1E F0 FF FF 7F             .....
0670: 6F 70 1D 98 80 23 29 08  55 00 0F 01 01 1D 99 80  op...#).U.......
0680: 23 29 08 55 00 0F 01 02  20 00 21 00              #).U.... .!.    
```

## Opcodes

```
  0: 0x066B [0x1E] EventEntity looks at LocalPlayer and starts talking
  1: 0x0670 [0x6F] WAIT_FRAME_DELAY: Yield until WaitTime reaches zero
  2: 0x0671 [0x70] WAIT_ENTITY_RENDER_FLAG: Wait while EventEntity->Render.Flags3 bit 2 is set (cancel turn if not)
  3: 0x0672 [0x1D] PRINT_EVENT_MESSAGE(message_id=12541*)
    → "The ghostie is gone.\u007F1\u0000\u0007"
  4: 0x0675 [0x23] WAIT_FOR_DIALOG_INTERACTION
  5: 0x0676 [0x29] REQ_SET_WAIT(priority=0x08, entity_id=Pichichi (ID: 17760341/0x010F0055), tag_num=0x01)
  6: 0x067D [0x1D] PRINT_EVENT_MESSAGE(message_id=12542*)
    → "He thaid he would come back, tho I gueth he'll come back.\u0007...I wonder if he'll come back tomorrow?\u007F1\u0000\u0007"
  7: 0x0680 [0x23] WAIT_FOR_DIALOG_INTERACTION
  8: 0x0681 [0x29] REQ_SET_WAIT(priority=0x08, entity_id=Pichichi (ID: 17760341/0x010F0055), tag_num=0x02)
  9: 0x0688 [0x20] SET_CLI_EVENT_UC_FLAG: Unlock player control
 10: 0x068A [0x21] END_EVENT
 11: 0x068B [0x00] END_REQSTACK()
```
