# Event 530

## Metadata

| Field           | Value    |
|-----------------|----------|
| Event Index     | 108/133  |
| Offset          | 0x063F   |
| Data Size       | 33 bytes |
| Calculated Size | 33 bytes |
| Instructions    | 12       |

```
      00 01 02 03 04 05 06 07  08 09 0A 0B 0C 0D 0E 0F
      -- -- -- -- -- -- -- --  -- -- -- -- -- -- -- --
0630:                                               1E                 .
0640: F0 FF FF 7F 6F 70 29 08  55 00 0F 01 07 1D 94 80  ....op).U.......
0650: 23 1D 95 80 23 29 08 55  00 0F 01 08 20 00 21 00  #...#).U.... .!.
```

## Opcodes

```
  0: 0x063F [0x1E] EventEntity looks at LocalPlayer and starts talking
  1: 0x0644 [0x6F] WAIT_FRAME_DELAY: Yield until WaitTime reaches zero
  2: 0x0645 [0x70] WAIT_ENTITY_RENDER_FLAG: Wait while EventEntity->Render.Flags3 bit 2 is set (cancel turn if not)
  3: 0x0646 [0x29] REQ_SET_WAIT(priority=0x08, entity_id=Pichichi (ID: 17760341/0x010F0055), tag_num=0x07)
  4: 0x064D [0x1D] PRINT_EVENT_MESSAGE(message_id=12504*)
    → "I wonder where that Cardian that I helped went to?\u007F1\u0000\u0007"
  5: 0x0650 [0x23] WAIT_FOR_DIALOG_INTERACTION
  6: 0x0651 [0x1D] PRINT_EVENT_MESSAGE(message_id=12505*)
    → "He thaid he wath going on patrol, tho I gueth he'th traveling all over the plathe. Thoundth like fun.\u007F1\u0000\u0007"
  7: 0x0654 [0x23] WAIT_FOR_DIALOG_INTERACTION
  8: 0x0655 [0x29] REQ_SET_WAIT(priority=0x08, entity_id=Pichichi (ID: 17760341/0x010F0055), tag_num=0x08)
  9: 0x065C [0x20] SET_CLI_EVENT_UC_FLAG: Unlock player control
 10: 0x065E [0x21] END_EVENT
 11: 0x065F [0x00] END_REQSTACK()
```
