# Event 65535

## Metadata

| Field           | Value    |
|-----------------|----------|
| Event Index     | 9/9      |
| Offset          | 0x00C8   |
| Data Size       | 24 bytes |
| Calculated Size | 24 bytes |
| Instructions    | 10       |

```
      00 01 02 03 04 05 06 07  08 09 0A 0B 0C 0D 0E 0F
      -- -- -- -- -- -- -- --  -- -- -- -- -- -- -- --
00C0:                          1D 0D 80 23 1D 0E 80 23          ...#...#
00D0: 02 00 00 05 80 00 DC 00  1D 0F 80 23 20 00 21 00  ...........# .!.
```

## Opcodes

```
  0: 0x00C8 [0x1D] PRINT_EVENT_MESSAGE(message_id=7958*)
    → "Windurst's residential area is northeast of here. To get there, first head north and cross the bridge to the east that leads to the Aurastery and Windurst Walls.\u007F1\u0000\u0007"
  1: 0x00CB [0x23] WAIT_FOR_DIALOG_INTERACTION
  2: 0x00CC [0x1D] PRINT_EVENT_MESSAGE(message_id=7959*)
    → "On the way, you'll come across a Cardian automaton guard. Turn right when you see him and you'll easily find your way there.\u007F1\u0000\u0007"
  3: 0x00CF [0x23] WAIT_FOR_DIALOG_INTERACTION
  4: 0x00D0 [0x02] IF !(ExtData[1]->WorkLocal[0] == 1*) GOTO 0x00DC
  5: 0x00D8 [0x1D] PRINT_EVENT_MESSAGE(message_id=7960*)
    → "You know about the residential area's Mog Houses, rightaru? If not, just ask the guards at the entrance to the residential area for information.\u007F1\u0000\u0007"
  6: 0x00DB [0x23] WAIT_FOR_DIALOG_INTERACTION
  7: 0x00DC [0x20] SET_CLI_EVENT_UC_FLAG: Unlock player control
  8: 0x00DE [0x21] END_EVENT
  9: 0x00DF [0x00] END_REQSTACK()
```
