# Event 65535

## Metadata

| Field           | Value    |
|-----------------|----------|
| Event Index     | 6/9      |
| Offset          | 0x00A8   |
| Data Size       | 12 bytes |
| Calculated Size | 12 bytes |
| Instructions    | 7        |

```
      00 01 02 03 04 05 06 07  08 09 0A 0B 0C 0D 0E 0F
      -- -- -- -- -- -- -- --  -- -- -- -- -- -- -- --
00A0:                          1D 08 80 23 1D 09 80 23          ...#...#
00B0: 20 00 21 00                                        .!.            
```

## Opcodes

```
  0: 0x00A8 [0x1D] PRINT_EVENT_MESSAGE(message_id=7950*)
    → "Well, if you ever need help, feel free to ask one of us guards.\u007F1\u0000\u0007"
  1: 0x00AB [0x23] WAIT_FOR_DIALOG_INTERACTION
  2: 0x00AC [0x1D] PRINT_EVENT_MESSAGE(message_id=7951*)
    → "Helping out people in need is the calling of us guards in Windurst Waters's \u00072North Winds\u00073 troupey-woupey.\u007F1\u0000\u0007"
  3: 0x00AF [0x23] WAIT_FOR_DIALOG_INTERACTION
  4: 0x00B0 [0x20] SET_CLI_EVENT_UC_FLAG: Unlock player control
  5: 0x00B2 [0x21] END_EVENT
  6: 0x00B3 [0x00] END_REQSTACK()
```
