# Event 103

## Metadata

| Field           | Value    |
|-----------------|----------|
| Event Index     | 6/8      |
| Offset          | 0x0053   |
| Data Size       | 56 bytes |
| Calculated Size | 56 bytes |
| Instructions    | 18       |

```
      00 01 02 03 04 05 06 07  08 09 0A 0B 0C 0D 0E 0F
      -- -- -- -- -- -- -- --  -- -- -- -- -- -- -- --
0050:          20 01 24 06 80  05 80 01 80 25 02 00 10      .$......%...
0060: 01 80 00 72 00 43 00 43  01 42 03 01 10 05 80 01  ...r.C.C.B......
0070: 87 00 02 00 10 05 80 00  87 00 43 00 43 01 42 03  ..........C.C.B.
0080: 01 10 07 80 01 87 00 20  00 21 00                 ....... .!.     
```

## Opcodes

```
  0: 0x0053 [0x20] SET_CLI_EVENT_UC_FLAG: Lock player control
  1: 0x0055 [0x24] CREATE_DIALOG(message_id=7456*, default_option=1*, option_flags=0*)
    → "Take this male apkallu with you?\u0007\u000BYes.\u0007Not this one.\u007F1\u0000\u0007"
  2: 0x005C [0x25] WAIT_DIALOG_SELECT()
  3: 0x005D [0x02] IF !(Work_Zone[0] == 0*) GOTO 0x0072
  4: 0x0065 [0x43] SEND_EVENT_UPDATE: Send pending tag to server (packet 0x005B)
  5: 0x0067 [0x43] SEND_EVENT_UPDATE: Check pending flag (skip if not pending)
  6: 0x0069 [0x42] SET_CLI_EVENT_CANCEL_DATA()
  7: 0x006A [0x03] Work_Zone[1] = 1*
  8: 0x006F [0x01] GOTO 0x0087

SUBROUTINE_0072:
  9: 0x0072 [0x02] IF !(Work_Zone[0] == 1*) GOTO 0x0087
 10: 0x007A [0x43] SEND_EVENT_UPDATE: Send pending tag to server (packet 0x005B)
 11: 0x007C [0x43] SEND_EVENT_UPDATE: Check pending flag (skip if not pending)
 12: 0x007E [0x42] SET_CLI_EVENT_CANCEL_DATA()
 13: 0x007F [0x03] Work_Zone[1] = 2*
 14: 0x0084 [0x01] GOTO 0x0087

SUBROUTINE_0087:
 15: 0x0087 [0x20] SET_CLI_EVENT_UC_FLAG: Unlock player control
 16: 0x0089 [0x21] END_EVENT
 17: 0x008A [0x00] END_REQSTACK()
```
