# Event 104

## Metadata

| Field           | Value    |
|-----------------|----------|
| Event Index     | 7/8      |
| Offset          | 0x008B   |
| Data Size       | 35 bytes |
| Calculated Size | 35 bytes |
| Instructions    | 12       |

```
      00 01 02 03 04 05 06 07  08 09 0A 0B 0C 0D 0E 0F
      -- -- -- -- -- -- -- --  -- -- -- -- -- -- -- --
0080:                                   20 01 24 08 80              .$..
0090: 05 80 01 80 25 02 00 10  01 80 00 AA 00 43 00 43  ....%........C.C
00A0: 01 42 03 01 10 05 80 01  AA 00 20 00 21 00        .B........ .!.  
```

## Opcodes

```
  0: 0x008B [0x20] SET_CLI_EVENT_UC_FLAG: Lock player control
  1: 0x008D [0x24] CREATE_DIALOG(message_id=7457*, default_option=1*, option_flags=0*)
    → "Choose this female apkallu as a partner?\u0007\u000BThis is the one!\u0007Not this one.\u007F1\u0000\u0007"
  2: 0x0094 [0x25] WAIT_DIALOG_SELECT()
  3: 0x0095 [0x02] IF !(Work_Zone[0] == 0*) GOTO 0x00AA
  4: 0x009D [0x43] SEND_EVENT_UPDATE: Send pending tag to server (packet 0x005B)
  5: 0x009F [0x43] SEND_EVENT_UPDATE: Check pending flag (skip if not pending)
  6: 0x00A1 [0x42] SET_CLI_EVENT_CANCEL_DATA()
  7: 0x00A2 [0x03] Work_Zone[1] = 1*
  8: 0x00A7 [0x01] GOTO 0x00AA

SUBROUTINE_00AA:
  9: 0x00AA [0x20] SET_CLI_EVENT_UC_FLAG: Unlock player control
 10: 0x00AC [0x21] END_EVENT
 11: 0x00AD [0x00] END_REQSTACK()
```
