# Event 45

## Metadata

| Field           | Value    |
|-----------------|----------|
| Event Index     | 36/38    |
| Offset          | 0x0BDC   |
| Data Size       | 53 bytes |
| Calculated Size | 53 bytes |
| Instructions    | 15       |

```
      00 01 02 03 04 05 06 07  08 09 0A 0B 0C 0D 0E 0F
      -- -- -- -- -- -- -- --  -- -- -- -- -- -- -- --
0BD0:                                      20 01 24 46               .$F
0BE0: 80 2C 80 02 80 25 02 00  10 02 80 00 02 0C 42 43  .,...%........BC
0BF0: 00 43 01 03 01 10 2C 80  29 01 F0 FF FF 7F 24 01  .C....,.).....$.
0C00: 0D 0C 02 00 10 2C 80 00  0D 0C 01 0D 0C 20 00 21  .....,....... .!
0C10: 00                                                .               
```

## Opcodes

```
  0: 0x0BDC [0x20] SET_CLI_EVENT_UC_FLAG: Lock player control
  1: 0x0BDE [0x24] CREATE_DIALOG(message_id=7229*, default_option=1*, option_flags=0*)
    → "Leave Promyvion?\u0007\u000BYes.\u0007No.\u007F1\u0000\u0007"
  2: 0x0BE5 [0x25] WAIT_DIALOG_SELECT()
  3: 0x0BE6 [0x02] IF !(Work_Zone[0] == 0*) GOTO 0x0C02
  4: 0x0BEE [0x42] SET_CLI_EVENT_CANCEL_DATA()
  5: 0x0BEF [0x43] SEND_EVENT_UPDATE: Send pending tag to server (packet 0x005B)
  6: 0x0BF1 [0x43] SEND_EVENT_UPDATE: Check pending flag (skip if not pending)
  7: 0x0BF3 [0x03] Work_Zone[1] = 1*
  8: 0x0BF8 [0x29] REQ_SET_WAIT(priority=0x01, entity_id=LocalPlayer, tag_num=0x24)
  9: 0x0BFF [0x01] GOTO 0x0C0D
 10: 0x0C02 [0x02] IF !(Work_Zone[0] == 1*) GOTO 0x0C0D
 11: 0x0C0A [0x01] GOTO 0x0C0D

SUBROUTINE_0C0D:
 12: 0x0C0D [0x20] SET_CLI_EVENT_UC_FLAG: Unlock player control
 13: 0x0C0F [0x21] END_EVENT
 14: 0x0C10 [0x00] END_REQSTACK()
```
