# Event 1046

## Metadata

| Field           | Value      |
|-----------------|------------|
| Event Index     | 95/97      |
| Offset          | 0x2F55     |
| Data Size       | 1109 bytes |
| Calculated Size | 1109 bytes |
| Instructions    | 14         |

```
      00 01 02 03 04 05 06 07  08 09 0A 0B 0C 0D 0E 0F
      -- -- -- -- -- -- -- --  -- -- -- -- -- -- -- --
2F50:                01 FC 31  00 45 03 80 F0 FF FF 7F       ..1.E......
2F60: F0 FF FF 7F 66 64 6F 32  04 80 55 03 80 F0 FF FF  ....fdo2..U.....
2F70: 7F F0 FF FF 7F 66 64 6F  32 46 00 45 03 80 F0 FF  .....fdo2F.E....
2F80: FF 7F F0 FF FF 7F 66 64  69 32 04 80 1B 1A 26 33  ......fdi2....&3
2F90: 1D D0 80 23 1D D1 80 23  1A 36 33 24 3A 80 04 80  ...#...#.63$:...
2FA0: 04 80 25 02 00 10 04 80  00 BA 2F 1A 26 33 1D D2  ..%......./.&3..
2FB0: 80 23 03 01 10 2D 80 01  D1 2F 02 00 10 17 80 00  .#...-.../......
2FC0: D1 2F 1A 26 33 1D D3 80  23 03 01 10 19 80 01 D1  ./.&3...#.......
2FD0: 2F 1A 36 33 45 03 80 F0  FF FF 7F F0 FF FF 7F 66  /.63E..........f
2FE0: 64 6F 32 04 80 55 03 80  F0 FF FF 7F F0 FF FF 7F  do2..U..........
2FF0: 66 64 6F 32 46 00 45 03  80 F0 FF FF 7F F0 FF FF  fdo2F.E.........
3000: 7F 66 64 69 32 04 80 21  00 1A 26 33 1D D4 80 23  .fdi2..!..&3...#
3010: 1A 36 33 24 3A 80 04 80  04 80 25 02 00 10 04 80  .63$:.....%.....
3020: 00 32 30 1A 26 33 1D D5  80 23 03 01 10 2E 80 01  .20.&3...#......
3030: 49 30 02 00 10 17 80 00  49 30 1A 26 33 1D D6 80  I0......I0.&3...
3040: 23 03 01 10 19 80 01 49  30 1A 36 33 1A 59 2F 21  #......I0.63.Y/!
3050: 00 1A 5C 33 1A 26 33 1D  D7 80 23 1A 36 33 1A 59  ..\3.&3...#.63.Y
3060: 2F 21 00 1E F0 FF FF 7F  6F 70 1A 26 33 03 02 10  /!......op.&3...
3070: D8 80 1D D9 80 23 1A 36  33 21 00 1E F0 FF FF 7F  .....#.63!......
3080: 6F 70 1A 26 33 03 02 10  D8 80 1D DA 80 23 1A 36  op.&3........#.6
3090: 33 21 00 1A 5C 33 1A 26  33 1D DB 80 23 1D DC 80  3!..\3.&3...#...
30A0: 23 1A 36 33 7D DD 80 45  1D 80 F0 FF FF 7F F0 FF  #.63}..E........
30B0: FF 7F 71 73 74 63 04 80  1C 03 80 1A 59 2F 21 00  ..qstc......Y/!.
30C0: 1A 26 33 1D DE 80 23 1A  36 33 24 3A 80 04 80 04  .&3...#.63$:....
30D0: 80 25 02 00 10 04 80 00  E9 30 1A 26 33 1D DF 80  .%.......0.&3...
30E0: 23 03 01 10 2F 80 01 00  31 02 00 10 17 80 00 00  #.../...1.......
30F0: 31 1A 26 33 1D E0 80 23  03 01 10 19 80 01 00 31  1.&3...#.......1
3100: 1A 36 33 1A 59 2F 21 00  1A 5C 33 1A 26 33 1D E1  .63.Y/!..\3.&3..
3110: 80 23 1D E2 80 23 1D E3  80 23 1A 36 33 1A 59 2F  .#...#...#.63.Y/
3120: 21 00 1A 26 33 1D E4 80  23 1D E5 80 23 1D E6 80  !..&3...#...#...
3130: 23 1D E7 80 23 1A 36 33  24 3A 80 04 80 04 80 25  #...#.63$:.....%
3140: 02 00 10 04 80 00 57 31  1A 26 33 1D E8 80 23 03  ......W1.&3...#.
3150: 01 10 30 80 01 6E 31 02  00 10 17 80 00 6E 31 1A  ..0..n1......n1.
3160: 26 33 1D E9 80 23 03 01  10 19 80 01 6E 31 1A 36  &3...#......n1.6
3170: 33 1A 59 2F 21 00 1A 5C  33 1A 26 33 1D EA 80 23  3.Y/!..\3.&3...#
3180: 03 02 10 EB 80 1D EC 80  23 1D ED 80 23 1D EE 80  ........#...#...
3190: 23 1A 36 33 7D EF 80 45  1D 80 F0 FF FF 7F F0 FF  #.63}..E........
31A0: FF 7F 71 73 74 63 04 80  1C 03 80 1A 59 2F 21 00  ..qstc......Y/!.
31B0: 1A 26 33 1D F0 80 23 1D  F1 80 23 1A 36 33 24 3A  .&3...#...#.63$:
31C0: 80 04 80 04 80 25 02 00  10 04 80 00 DD 31 1A 26  .....%.......1.&
31D0: 33 1D F2 80 23 03 01 10  00 80 01 F4 31 02 00 10  3...#.......1...
31E0: 17 80 00 F4 31 1A 26 33  1D F3 80 23 03 01 10 19  ....1.&3...#....
31F0: 80 01 F4 31 1A 36 33 1A  59 2F 21 00 1E F0 FF FF  ...1.63.Y/!.....
3200: 7F 6F 70 1A 26 33 1D F4  80 23 1A 36 33 21 00 1A  .op.&3...#.63!..
3210: 26 33 1D F5 80 23 1A 36  33 24 3A 80 04 80 04 80  &3...#.63$:.....
3220: 25 02 00 10 04 80 00 38  32 1A 26 33 1D F6 80 23  %......82.&3...#
3230: 03 01 10 31 80 01 4F 32  02 00 10 17 80 00 4F 32  ...1..O2......O2
3240: 1A 26 33 1D F7 80 23 03  01 10 19 80 01 4F 32 1A  .&3...#......O2.
3250: 36 33 1A 59 2F 21 00 1A  26 33 1D F8 80 23 1A 36  63.Y/!..&3...#.6
3260: 33 24 3A 80 04 80 04 80  25 02 00 10 04 80 00 80  3$:.....%.......
3270: 32 1A 26 33 1D F9 80 23  03 01 10 32 80 01 97 32  2.&3...#...2...2
3280: 02 00 10 17 80 00 97 32  1A 26 33 1D FA 80 23 03  .......2.&3...#.
3290: 01 10 19 80 01 97 32 1A  36 33 1A 59 2F 21 00 1A  ......2.63.Y/!..
32A0: 26 33 1D FB 80 23 1D FC  80 23 1D FD 80 23 1D FE  &3...#...#...#..
32B0: 80 23 1A 36 33 24 3A 80  04 80 04 80 25 02 00 10  .#.63$:.....%...
32C0: 04 80 00 07 33 1A 26 33  1D FF 80 23 1A 36 33 24  ....3.&3...#.63$
32D0: 00 81 04 80 04 80 25 1A  3C 33 02 00 10 04 80 00  ......%.<3......
32E0: E9 32 1D 01 81 23 01 F8  32 02 00 10 17 80 00 F8  .2...#..2.......
32F0: 32 1D 02 81 23 01 F8 32  1A 4C 33 1D 03 81 23 03  2...#..2.L3...#.
3300: 01 10 33 80 01 1E 33 02  00 10 17 80 00 1E 33 1A  ..3...3.......3.
3310: 26 33 1D 04 81 23 03 01  10 19 80 01 1E 33 1A 36  &3...#.......3.6
3320: 33 1A 59 2F 21 00 66 00  80 F8 FF FF 7F F8 FF FF  3.Y/!.f.........
3330: 7F 74 6C 6B 30 1B 5E 69  64 6C 30 1B 66 00 80 F8  .tlk0.^idl0.f...
3340: FF FF 7F F8 FF FF 7F 74  68 6B 31 1B 66 00 80 F8  .......thk1.f...
3350: FF FF 7F F8 FF FF 7F 74  68 6B 32 1B 42 46 01 45  .......thk2.BF.E
3360: 03 80 F8 FF FF 7F F8 FF  FF 7F 66 64 6F 31 04 80  ..........fdo1..
3370: 1C 05 80 38 06 80 79 00  F8 FF FF 7F F0 FF FF 7F  ...8..y.........
3380: 29 64 F0 FF FF 7F 19 45  0A 80 F0 FF FF 7F F0 FF  )d.....E........
3390: FF 7F 67 72 64 30 04 80  45 03 80 F8 FF FF 7F F8  ..grd0..E.......
33A0: FF FF 7F 66 64 69 31 04  80 1B                    ...fdi1...      
```

## Opcodes

```
  0: 0x2F55 [0x01] GOTO 0x31FC

SUBROUTINE_31FC:
  1: 0x31FC [0x1E] EventEntity looks at LocalPlayer and starts talking
  2: 0x3201 [0x6F] WAIT_FRAME_DELAY: Yield until WaitTime reaches zero
  3: 0x3202 [0x70] WAIT_ENTITY_RENDER_FLAG: Wait while EventEntity->Render.Flags3 bit 2 is set (cancel turn if not)
  4: 0x3203 [0x1A] CALL_SUBROUTINE(address=0x3326)
  5: 0x3206 [0x1D] PRINT_EVENT_MESSAGE(message_id=7372*)
    → "Princess Claidie's coming-of-age ceremony is about to begin at the cathedral. I must remain at my post, but why don't you attend?\u007F1\u0000\u0007"
  6: 0x3209 [0x23] WAIT_FOR_DIALOG_INTERACTION
  7: 0x320A [0x1A] CALL_SUBROUTINE(address=0x3336)
  8: 0x320D [0x21] END_EVENT
  9: 0x320E [0x00] END_REQSTACK()

SUBROUTINE_3326:
 10: 0x3326 [0x66] LOAD_EXT_SCHEDULER_MAIN: Load scheduler "tlk0" with entities [EventEntity, EventEntity], work=20*
 11: 0x3335 [0x1B] RETURN

SUBROUTINE_3336:
 12: 0x3336 [0x5E] EventEntity goes idle (kills current action) (animation: "idl0")
 13: 0x333B [0x1B] RETURN
```

## Data or dead code:

```
# Dead code (unreachable instructions):
     0x2F58 [0x00] END_REQSTACK()
     0x2F59 [0x45] LOAD_SCHEDULED_TASK: Load scheduler "fdo2" with entities [LocalPlayer, LocalPlayer], work=[200*, 0*]
     0x2F6A [0x55] WAIT_LOAD_SCHEDULER: Wait for scheduler "fdo2" with entities [LocalPlayer, LocalPlayer], work=200*
     0x2F79 [0x46] CAMERA_CONTROL: Restore default settings
     0x2F7B [0x45] LOAD_SCHEDULED_TASK: Load scheduler "fdi2" with entities [LocalPlayer, LocalPlayer], work=[200*, 0*]
     0x2F8C [0x1B] RETURN
     0x2F8D [0x1A] CALL_SUBROUTINE(address=0x3326)
     0x2F90 [0x1D] PRINT_EVENT_MESSAGE(message_id=7338*)
    → "Well, if it isn't \u0008!\u0007Your timing is perfect. The chateau just sent a request for an adventurer.\u007F1\u0000\u0007"
     0x2F93 [0x23] WAIT_FOR_DIALOG_INTERACTION
     0x2F94 [0x1D] PRINT_EVENT_MESSAGE(message_id=7339*)
    → "It looks as if this next mission has something to do with the late queen. You should feel honored. It's not every day that an adventurer gets to work directly with the royal family.\u007F1\u0000\u0007"
     0x2F97 [0x23] WAIT_FOR_DIALOG_INTERACTION
     0x2F98 [0x1A] CALL_SUBROUTINE(address=0x3336)
     0x2F9B [0x24] CREATE_DIALOG(message_id=7233*, default_option=0*, option_flags=0*)
    → "Accept this mission?\u0007\u000BYes.\u0007No.\u007F1\u0000\u0007"
     0x2FA2 [0x25] WAIT_DIALOG_SELECT()
     0x2FA3 [0x02] IF !(Work_Zone[0] == 0*) GOTO 0x2FBA
     0x2FAB [0x1A] CALL_SUBROUTINE(address=0x3326)
     0x2FAE [0x1D] PRINT_EVENT_MESSAGE(message_id=7340*)
    → "Spoken like a true San d'Orian!\u0007Now hurry off to Chateau d'Oraguille and get the details on the mission from Monarlais Halver.\u007F1\u0000\u0007"
     0x2FB1 [0x23] WAIT_FOR_DIALOG_INTERACTION
     0x2FB2 [0x03] Work_Zone[1] = 16*
     0x2FB7 [0x01] GOTO 0x2FD1
     0x2FBA [0x02] IF !(Work_Zone[0] == 1*) GOTO 0x2FD1
     0x2FC2 [0x1A] CALL_SUBROUTINE(address=0x3326)
     0x2FC5 [0x1D] PRINT_EVENT_MESSAGE(message_id=7341*)
    → "What's wrong? Dealing with royalty is not your cup of tea? Well, think about it and come back when you've come to your senses.\u007F1\u0000\u0007"
     0x2FC8 [0x23] WAIT_FOR_DIALOG_INTERACTION
     0x2FC9 [0x03] Work_Zone[1] = 1073741824*
     0x2FCE [0x01] GOTO 0x2FD1
     0x2FD1 [0x1A] CALL_SUBROUTINE(address=0x3336)
     0x2FD4 [0x45] LOAD_SCHEDULED_TASK: Load scheduler "fdo2" with entities [LocalPlayer, LocalPlayer], work=[200*, 0*]
     0x2FE5 [0x55] WAIT_LOAD_SCHEDULER: Wait for scheduler "fdo2" with entities [LocalPlayer, LocalPlayer], work=200*
     0x2FF4 [0x46] CAMERA_CONTROL: Restore default settings
     0x2FF6 [0x45] LOAD_SCHEDULED_TASK: Load scheduler "fdi2" with entities [LocalPlayer, LocalPlayer], work=[200*, 0*]
     0x3007 [0x21] END_EVENT
     0x3008 [0x00] END_REQSTACK()
     0x3009 [0x1A] CALL_SUBROUTINE(address=0x3326)
     0x300C [0x1D] PRINT_EVENT_MESSAGE(message_id=7342*)
    → "Prince Trion is requesting the aid of an adventurer. How about it?\u007F1\u0000\u0007"
     0x300F [0x23] WAIT_FOR_DIALOG_INTERACTION
     0x3010 [0x1A] CALL_SUBROUTINE(address=0x3336)
     0x3013 [0x24] CREATE_DIALOG(message_id=7233*, default_option=0*, option_flags=0*)
    → "Accept this mission?\u0007\u000BYes.\u0007No.\u007F1\u0000\u0007"
     0x301A [0x25] WAIT_DIALOG_SELECT()
     0x301B [0x02] IF !(Work_Zone[0] == 0*) GOTO 0x3032
     0x3023 [0x1A] CALL_SUBROUTINE(address=0x3326)
     0x3026 [0x1D] PRINT_EVENT_MESSAGE(message_id=7343*)
    → "It looks fairly urgent, so you should hurry to the chateau. The prince is waiting in his chambers.\u007F1\u0000\u0007"
     0x3029 [0x23] WAIT_FOR_DIALOG_INTERACTION
     0x302A [0x03] Work_Zone[1] = 17*
     0x302F [0x01] GOTO 0x3049
     0x3032 [0x02] IF !(Work_Zone[0] == 1*) GOTO 0x3049
     0x303A [0x1A] CALL_SUBROUTINE(address=0x3326)
     0x303D [0x1D] PRINT_EVENT_MESSAGE(message_id=7344*)
    → "I expected more from you, \u0008. If you change your mind, return here. I'll be waiting.\u007F1\u0000\u0007"
     0x3040 [0x23] WAIT_FOR_DIALOG_INTERACTION
     0x3041 [0x03] Work_Zone[1] = 1073741824*
     0x3046 [0x01] GOTO 0x3049
     0x3049 [0x1A] CALL_SUBROUTINE(address=0x3336)
     0x304C [0x1A] CALL_SUBROUTINE(address=0x2F59)
     0x304F [0x21] END_EVENT
     0x3050 [0x00] END_REQSTACK()
     0x3051 [0x1A] CALL_SUBROUTINE(address=0x335C)
     0x3054 [0x1A] CALL_SUBROUTINE(address=0x3326)
     0x3057 [0x1D] PRINT_EVENT_MESSAGE(message_id=7345*)
    → "I have received the details of your mission from Prince Trion. I will deliver this book to the scholars for deciphering.\u007F1\u0000\u0007"
     0x305A [0x23] WAIT_FOR_DIALOG_INTERACTION
     0x305B [0x1A] CALL_SUBROUTINE(address=0x3336)
     0x305E [0x1A] CALL_SUBROUTINE(address=0x2F59)
     0x3061 [0x21] END_EVENT
     0x3062 [0x00] END_REQSTACK()
     0x3063 [0x1E] EventEntity looks at LocalPlayer and starts talking
     0x3068 [0x6F] WAIT_FRAME_DELAY: Yield until WaitTime reaches zero
     0x3069 [0x70] WAIT_ENTITY_RENDER_FLAG: Wait while EventEntity->Render.Flags3 bit 2 is set (cancel turn if not)
     0x306A [0x1A] CALL_SUBROUTINE(address=0x3326)
     0x306D [0x03] Work_Zone[2] = 269*
     0x3072 [0x1D] PRINT_EVENT_MESSAGE(message_id=7346*)
    → "The deciphering of the \u0001\u00053\u0002\u0000\u0000\u0000 will take a considerable amount of time. Return later for a report.\u007F1\u0000\u0007"
     0x3075 [0x23] WAIT_FOR_DIALOG_INTERACTION
     0x3076 [0x1A] CALL_SUBROUTINE(address=0x3336)
     0x3079 [0x21] END_EVENT
     0x307A [0x00] END_REQSTACK()
     0x307B [0x1E] EventEntity looks at LocalPlayer and starts talking
     0x3080 [0x6F] WAIT_FRAME_DELAY: Yield until WaitTime reaches zero
     0x3081 [0x70] WAIT_ENTITY_RENDER_FLAG: Wait while EventEntity->Render.Flags3 bit 2 is set (cancel turn if not)
     0x3082 [0x1A] CALL_SUBROUTINE(address=0x3326)
     0x3085 [0x03] Work_Zone[2] = 269*
     0x308A [0x1D] PRINT_EVENT_MESSAGE(message_id=7348*)
    → "Ah, \u0008. We've been waiting.\u0007Prince Trion is calling for you. I wonder if this means the \u0001\u00053\u0002\u0000\u0000\u0000 has been completely deciphered.\u007F1\u0000\u0007"
     0x308D [0x23] WAIT_FOR_DIALOG_INTERACTION
     0x308E [0x1A] CALL_SUBROUTINE(address=0x3336)
     0x3091 [0x21] END_EVENT
     0x3092 [0x00] END_REQSTACK()
     0x3093 [0x1A] CALL_SUBROUTINE(address=0x335C)
     0x3096 [0x1A] CALL_SUBROUTINE(address=0x3326)
     0x3099 [0x1D] PRINT_EVENT_MESSAGE(message_id=7349*)
    → "Well done, \u0008! I knew you would not let the Kingdom down.\u007F1\u0000\u0007"
     0x309C [0x23] WAIT_FOR_DIALOG_INTERACTION
     0x309D [0x1D] PRINT_EVENT_MESSAGE(message_id=7350*)
    → "I'm proud to increase your rank to 7!\u007F1\u0000\u0007"
     0x30A0 [0x23] WAIT_FOR_DIALOG_INTERACTION
     0x30A1 [0x1A] CALL_SUBROUTINE(address=0x3336)
     0x30A4 [0x7D] LOAD_START_SCHEDULER_PLAYER: Load scheduler with animation_id 32989
     0x30A7 [0x45] LOAD_SCHEDULED_TASK: Load scheduler "qstc" with entities [LocalPlayer, LocalPlayer], work=[201*, 0*]
     0x30B8 [0x1C] WAIT(200* ticks)
     0x30BB [0x1A] CALL_SUBROUTINE(address=0x2F59)
     0x30BE [0x21] END_EVENT
     0x30BF [0x00] END_REQSTACK()
     0x30C0 [0x1A] CALL_SUBROUTINE(address=0x3326)
     0x30C3 [0x1D] PRINT_EVENT_MESSAGE(message_id=7351*)
    → "The papsque has work for you, \u0008. Are you willing to take on the task?\u007F1\u0000\u0007"
     0x30C6 [0x23] WAIT_FOR_DIALOG_INTERACTION
     0x30C7 [0x1A] CALL_SUBROUTINE(address=0x3336)
     0x30CA [0x24] CREATE_DIALOG(message_id=7233*, default_option=0*, option_flags=0*)
    → "Accept this mission?\u0007\u000BYes.\u0007No.\u007F1\u0000\u0007"
     0x30D1 [0x25] WAIT_DIALOG_SELECT()
     0x30D2 [0x02] IF !(Work_Zone[0] == 0*) GOTO 0x30E9
     0x30DA [0x1A] CALL_SUBROUTINE(address=0x3326)
     0x30DD [0x1D] PRINT_EVENT_MESSAGE(message_id=7352*)
    → "Excellent. Proceed to the papsque's chambers on the third floor of the cathedral.\u007F1\u0000\u0007"
     0x30E0 [0x23] WAIT_FOR_DIALOG_INTERACTION
     0x30E1 [0x03] Work_Zone[1] = 18*
     0x30E6 [0x01] GOTO 0x3100
     0x30E9 [0x02] IF !(Work_Zone[0] == 1*) GOTO 0x3100
     0x30F1 [0x1A] CALL_SUBROUTINE(address=0x3326)
     0x30F4 [0x1D] PRINT_EVENT_MESSAGE(message_id=7353*)
    → "The papsque often comes across as a difficult man, but he is actually very kindhearted and compassionate. If you change your mind, I'll be waiting here.\u007F1\u0000\u0007"
     0x30F7 [0x23] WAIT_FOR_DIALOG_INTERACTION
     0x30F8 [0x03] Work_Zone[1] = 1073741824*
     0x30FD [0x01] GOTO 0x3100
     0x3100 [0x1A] CALL_SUBROUTINE(address=0x3336)
     0x3103 [0x1A] CALL_SUBROUTINE(address=0x2F59)
     0x3106 [0x21] END_EVENT
     0x3107 [0x00] END_REQSTACK()
     0x3108 [0x1A] CALL_SUBROUTINE(address=0x335C)
     0x310B [0x1A] CALL_SUBROUTINE(address=0x3326)
     0x310E [0x1D] PRINT_EVENT_MESSAGE(message_id=7354*)
    → "The fair Claidie I d'Oraguille has invited you to the chateau. She wishes for you to see the flowers that have bloomed from the seeds you brought back from Altepa.\u007F1\u0000\u0007"
     0x3111 [0x23] WAIT_FOR_DIALOG_INTERACTION
     0x3112 [0x1D] PRINT_EVENT_MESSAGE(message_id=7355*)
    → "It is an honor to be invited to the chateau garden. One day you may even have the opportunity to attend one of their royal garden parties.\u007F1\u0000\u0007"
     0x3115 [0x23] WAIT_FOR_DIALOG_INTERACTION
     0x3116 [0x1D] PRINT_EVENT_MESSAGE(message_id=7356*)
    → "We cannot keep the princess waiting. Now, off to the chateau!\u007F1\u0000\u0007"
     0x3119 [0x23] WAIT_FOR_DIALOG_INTERACTION
     0x311A [0x1A] CALL_SUBROUTINE(address=0x3336)
     0x311D [0x1A] CALL_SUBROUTINE(address=0x2F59)
     0x3120 [0x21] END_EVENT
     0x3121 [0x00] END_REQSTACK()
     0x3122 [0x1A] CALL_SUBROUTINE(address=0x3326)
     0x3125 [0x1D] PRINT_EVENT_MESSAGE(message_id=7357*)
    → "A party of Royal Knights stationed in Ghelsba Outpost have reported strange activity by Orcs deep within Yughott Grotto.\u007F1\u0000\u0007"
     0x3128 [0x23] WAIT_FOR_DIALOG_INTERACTION
     0x3129 [0x1D] PRINT_EVENT_MESSAGE(message_id=7358*)
    → "From your reports, we already know that the beastmen have built a giant portal, but their motives remain unclear.\u007F1\u0000\u0007"
     0x312C [0x23] WAIT_FOR_DIALOG_INTERACTION
     0x312D [0x1D] PRINT_EVENT_MESSAGE(message_id=7359*)
    → "It makes me shudder to think of what those Orcs are planning with that portal...\u007F1\u0000\u0007"
     0x3130 [0x23] WAIT_FOR_DIALOG_INTERACTION
     0x3131 [0x1D] PRINT_EVENT_MESSAGE(message_id=7360*)
    → "\u0008, your next mission is to travel to Ghelsba and continue your investigation into the Orcs' activities.\u007F1\u0000\u0007"
     0x3134 [0x23] WAIT_FOR_DIALOG_INTERACTION
     0x3135 [0x1A] CALL_SUBROUTINE(address=0x3336)
     0x3138 [0x24] CREATE_DIALOG(message_id=7233*, default_option=0*, option_flags=0*)
    → "Accept this mission?\u0007\u000BYes.\u0007No.\u007F1\u0000\u0007"
     0x313F [0x25] WAIT_DIALOG_SELECT()
     0x3140 [0x02] IF !(Work_Zone[0] == 0*) GOTO 0x3157
     0x3148 [0x1A] CALL_SUBROUTINE(address=0x3326)
     0x314B [0x1D] PRINT_EVENT_MESSAGE(message_id=7361*)
    → "Be on your guard when traveling deep into Yughott Grotto. Losing an adventurer such as yourself would deal a great blow to all of San d'Oria.\u007F1\u0000\u0007"
     0x314E [0x23] WAIT_FOR_DIALOG_INTERACTION
     0x314F [0x03] Work_Zone[1] = 19*
     0x3154 [0x01] GOTO 0x316E
     0x3157 [0x02] IF !(Work_Zone[0] == 1*) GOTO 0x316E
     0x315F [0x1A] CALL_SUBROUTINE(address=0x3326)
     0x3162 [0x1D] PRINT_EVENT_MESSAGE(message_id=7362*)
    → "I see you need more time for preparations. When you are ready, I'll be waiting.\u007F1\u0000\u0007"
     0x3165 [0x23] WAIT_FOR_DIALOG_INTERACTION
     0x3166 [0x03] Work_Zone[1] = 1073741824*
     0x316B [0x01] GOTO 0x316E
     0x316E [0x1A] CALL_SUBROUTINE(address=0x3336)
     0x3171 [0x1A] CALL_SUBROUTINE(address=0x2F59)
     0x3174 [0x21] END_EVENT
     0x3175 [0x00] END_REQSTACK()
     0x3176 [0x1A] CALL_SUBROUTINE(address=0x335C)
     0x3179 [0x1A] CALL_SUBROUTINE(address=0x3326)
     0x317C [0x1D] PRINT_EVENT_MESSAGE(message_id=7363*)
    → "It's hard to believe Orcs have their hands on such dangerous equipment. More patrols will have to be sent out to prevent any new developments in their evil plans.\u007F1\u0000\u0007"
     0x317F [0x23] WAIT_FOR_DIALOG_INTERACTION
     0x3180 [0x03] Work_Zone[2] = 284*
     0x3185 [0x1D] PRINT_EVENT_MESSAGE(message_id=7364*)
    → "And this \u0001\u00053\u0002\u0000\u0000\u0000... We will have to analyze it and begin reproduction for our forces. We cannot let Orcs get the Treasure of the Dragon King before San d'Oria does.\u007F1\u0000\u0007"
     0x3188 [0x23] WAIT_FOR_DIALOG_INTERACTION
     0x3189 [0x1D] PRINT_EVENT_MESSAGE(message_id=7365*)
    → "Well, congratulations on the completion of your mission. Hmmm? Do I know of an adventurer named Eideialc? Never heard of him.\u007F1\u0000\u0007"
     0x318C [0x23] WAIT_FOR_DIALOG_INTERACTION
     0x318D [0x1D] PRINT_EVENT_MESSAGE(message_id=7366*)
    → "But you need not worry about some petty traveler. You are in a different league. You are now rank 8!\u007F1\u0000\u0007"
     0x3190 [0x23] WAIT_FOR_DIALOG_INTERACTION
     0x3191 [0x1A] CALL_SUBROUTINE(address=0x3336)
     0x3194 [0x7D] LOAD_START_SCHEDULER_PLAYER: Load scheduler with animation_id 33007
     0x3197 [0x45] LOAD_SCHEDULED_TASK: Load scheduler "qstc" with entities [LocalPlayer, LocalPlayer], work=[201*, 0*]
     0x31A8 [0x1C] WAIT(200* ticks)
     0x31AB [0x1A] CALL_SUBROUTINE(address=0x2F59)
     0x31AE [0x21] END_EVENT
     0x31AF [0x00] END_REQSTACK()
     0x31B0 [0x1A] CALL_SUBROUTINE(address=0x3326)
     0x31B3 [0x1D] PRINT_EVENT_MESSAGE(message_id=7367*)
    → "Princess Claidie's coming-of-age ceremony is drawing near. This ceremony is an important facet of d'Oraguille tradition.\u007F1\u0000\u0007"
     0x31B6 [0x23] WAIT_FOR_DIALOG_INTERACTION
     0x31B7 [0x1D] PRINT_EVENT_MESSAGE(message_id=7368*)
    → "Monarlais Halver has put out a call to high-ranking adventurers for their assistance in Chateau d'Oraguille.\u007F1\u0000\u0007"
     0x31BA [0x23] WAIT_FOR_DIALOG_INTERACTION
     0x31BB [0x1A] CALL_SUBROUTINE(address=0x3336)
     0x31BE [0x24] CREATE_DIALOG(message_id=7233*, default_option=0*, option_flags=0*)
    → "Accept this mission?\u0007\u000BYes.\u0007No.\u007F1\u0000\u0007"
     0x31C5 [0x25] WAIT_DIALOG_SELECT()
     0x31C6 [0x02] IF !(Work_Zone[0] == 0*) GOTO 0x31DD
     0x31CE [0x1A] CALL_SUBROUTINE(address=0x3326)
     0x31D1 [0x1D] PRINT_EVENT_MESSAGE(message_id=7369*)
    → "Ah, the young princess has finally become a lady... Oh, I'm sorry. You can get the details of your next mission from Sir Halver.\u007F1\u0000\u0007"
     0x31D4 [0x23] WAIT_FOR_DIALOG_INTERACTION
     0x31D5 [0x03] Work_Zone[1] = 20*
     0x31DA [0x01] GOTO 0x31F4
     0x31DD [0x02] IF !(Work_Zone[0] == 1*) GOTO 0x31F4
     0x31E5 [0x1A] CALL_SUBROUTINE(address=0x3326)
     0x31E8 [0x1D] PRINT_EVENT_MESSAGE(message_id=7370*)
    → "What? You do not wish to repay the kindness the princess has shown to you in the past months? As you wish...but if you change your mind, you know where to find me.\u007F1\u0000\u0007"
     0x31EB [0x23] WAIT_FOR_DIALOG_INTERACTION
     0x31EC [0x03] Work_Zone[1] = 1073741824*
     0x31F1 [0x01] GOTO 0x31F4
     0x31F4 [0x1A] CALL_SUBROUTINE(address=0x3336)
     0x31F7 [0x1A] CALL_SUBROUTINE(address=0x2F59)
     0x31FA [0x21] END_EVENT
     0x31FB [0x00] END_REQSTACK()
# Dead code (unreachable instructions):
     0x320F [0x1A] CALL_SUBROUTINE(address=0x3326)
     0x3212 [0x1D] PRINT_EVENT_MESSAGE(message_id=7373*)
    → "The king has requested your audience. He has selected you from the mountain of adventurers in San d'Oria. You should feel honored!\u007F1\u0000\u0007"
     0x3215 [0x23] WAIT_FOR_DIALOG_INTERACTION
     0x3216 [0x1A] CALL_SUBROUTINE(address=0x3336)
     0x3219 [0x24] CREATE_DIALOG(message_id=7233*, default_option=0*, option_flags=0*)
    → "Accept this mission?\u0007\u000BYes.\u0007No.\u007F1\u0000\u0007"
     0x3220 [0x25] WAIT_DIALOG_SELECT()
     0x3221 [0x02] IF !(Work_Zone[0] == 0*) GOTO 0x3238
     0x3229 [0x1A] CALL_SUBROUTINE(address=0x3326)
     0x322C [0x1D] PRINT_EVENT_MESSAGE(message_id=7374*)
    → "You have matured from a fledgling adventurer into a great asset to our kingdom. Do not let us down.\u007F1\u0000\u0007"
     0x322F [0x23] WAIT_FOR_DIALOG_INTERACTION
     0x3230 [0x03] Work_Zone[1] = 21*
     0x3235 [0x01] GOTO 0x324F
     0x3238 [0x02] IF !(Work_Zone[0] == 1*) GOTO 0x324F
     0x3240 [0x1A] CALL_SUBROUTINE(address=0x3326)
     0x3243 [0x1D] PRINT_EVENT_MESSAGE(message_id=7375*)
    → "There is no need for modesty at a time like this. The fate of San d'Oria is at stake!\u007F1\u0000\u0007"
     0x3246 [0x23] WAIT_FOR_DIALOG_INTERACTION
     0x3247 [0x03] Work_Zone[1] = 1073741824*
     0x324C [0x01] GOTO 0x324F
     0x324F [0x1A] CALL_SUBROUTINE(address=0x3336)
     0x3252 [0x1A] CALL_SUBROUTINE(address=0x2F59)
     0x3255 [0x21] END_EVENT
     0x3256 [0x00] END_REQSTACK()
     0x3257 [0x1A] CALL_SUBROUTINE(address=0x3326)
     0x325A [0x1D] PRINT_EVENT_MESSAGE(message_id=7376*)
    → "The authorities are saying that a dark cloud of despair is looming over the Kingdom. They are asking for the assistance of only the best adventurers.\u007F1\u0000\u0007"
     0x325D [0x23] WAIT_FOR_DIALOG_INTERACTION
     0x325E [0x1A] CALL_SUBROUTINE(address=0x3336)
     0x3261 [0x24] CREATE_DIALOG(message_id=7233*, default_option=0*, option_flags=0*)
    → "Accept this mission?\u0007\u000BYes.\u0007No.\u007F1\u0000\u0007"
     0x3268 [0x25] WAIT_DIALOG_SELECT()
     0x3269 [0x02] IF !(Work_Zone[0] == 0*) GOTO 0x3280
     0x3271 [0x1A] CALL_SUBROUTINE(address=0x3326)
     0x3274 [0x1D] PRINT_EVENT_MESSAGE(message_id=7378*)
    → "Then proceed to the Audience Chamber in the Chateau d'Oraguille.\u0007Word has it that His Highness is not feeling that well. He may not be present for your briefing.\u007F1\u0000\u0007"
     0x3277 [0x23] WAIT_FOR_DIALOG_INTERACTION
     0x3278 [0x03] Work_Zone[1] = 22*
     0x327D [0x01] GOTO 0x3297
     0x3280 [0x02] IF !(Work_Zone[0] == 1*) GOTO 0x3297
     0x3288 [0x1A] CALL_SUBROUTINE(address=0x3326)
     0x328B [0x1D] PRINT_EVENT_MESSAGE(message_id=7379*)
    → "\u007F\u0005[Sir/Lady] \u0008! The Kingdom is counting on you. Who else, I ask you, is worthy for this task?\u007F1\u0000\u0007"
     0x328E [0x23] WAIT_FOR_DIALOG_INTERACTION
     0x328F [0x03] Work_Zone[1] = 1073741824*
     0x3294 [0x01] GOTO 0x3297
     0x3297 [0x1A] CALL_SUBROUTINE(address=0x3336)
     0x329A [0x1A] CALL_SUBROUTINE(address=0x2F59)
     0x329D [0x21] END_EVENT
     0x329E [0x00] END_REQSTACK()
     0x329F [0x1A] CALL_SUBROUTINE(address=0x3326)
     0x32A2 [0x1D] PRINT_EVENT_MESSAGE(message_id=7380*)
    → "Ah, a time of great change is upon us. In a matter of days, the Rites of Succession will be held at the cathedral in Northern San d'Oria. It is then that the new heir to the throne will be decided.\u007F1\u0000\u0007"
     0x32A5 [0x23] WAIT_FOR_DIALOG_INTERACTION
     0x32A6 [0x1D] PRINT_EVENT_MESSAGE(message_id=7381*)
    → "Due to the unpredictable circumstances that took place at the princess's coming-of-age ceremony, this time, only authorized personnel will be allowed near the proceedings. However, the royal family has requested your services as a guard.\u007F1\u0000\u0007"
     0x32A9 [0x23] WAIT_FOR_DIALOG_INTERACTION
     0x32AA [0x1D] PRINT_EVENT_MESSAGE(message_id=7382*)
    → "Even we Royal Knights have not been granted permission to attend... You must be held in high regard by His Highness. I envy you, \u007F\u0005[Sir/Ma'am].\u007F1\u0000\u0007"
     0x32AD [0x23] WAIT_FOR_DIALOG_INTERACTION
     0x32AE [0x1D] PRINT_EVENT_MESSAGE(message_id=7383*)
    → "When you have finished your preparations, proceed directly to the cathedral to report.\u007F1\u0000\u0007"
     0x32B1 [0x23] WAIT_FOR_DIALOG_INTERACTION
     0x32B2 [0x1A] CALL_SUBROUTINE(address=0x3336)
     0x32B5 [0x24] CREATE_DIALOG(message_id=7233*, default_option=0*, option_flags=0*)
    → "Accept this mission?\u0007\u000BYes.\u0007No.\u007F1\u0000\u0007"
     0x32BC [0x25] WAIT_DIALOG_SELECT()
     0x32BD [0x02] IF !(Work_Zone[0] == 0*) GOTO 0x3307
     0x32C5 [0x1A] CALL_SUBROUTINE(address=0x3326)
     0x32C8 [0x1D] PRINT_EVENT_MESSAGE(message_id=7384*)
    → "Off the record, which of the two princes do you think should be the next heir to the throne?\u007F1\u0000\u0007"
     0x32CB [0x23] WAIT_FOR_DIALOG_INTERACTION
     0x32CC [0x1A] CALL_SUBROUTINE(address=0x3336)
     0x32CF [0x24] CREATE_DIALOG(message_id=7385*, default_option=0*, option_flags=0*)
    → "It is a difficult decision, but...\u0007\u000BTrion is better suited.\u0007Pieuje is better suited.\u007F1\u0000\u0007"
     0x32D6 [0x25] WAIT_DIALOG_SELECT()
     0x32D7 [0x1A] CALL_SUBROUTINE(address=0x333C)
     0x32DA [0x02] IF !(Work_Zone[0] == 0*) GOTO 0x32E9
     0x32E2 [0x1D] PRINT_EVENT_MESSAGE(message_id=7386*)
    → "Hm...\u0007Being the oldest, he is the true heir, and many people believe he is the most suited to rule the Kingdom. However, Prince Pieuje's prudent ways may be what this country is lacking.\u007F1\u0000\u0007"
     0x32E5 [0x23] WAIT_FOR_DIALOG_INTERACTION
     0x32E6 [0x01] GOTO 0x32F8
     0x32E9 [0x02] IF !(Work_Zone[0] == 1*) GOTO 0x32F8
     0x32F1 [0x1D] PRINT_EVENT_MESSAGE(message_id=7387*)
    → "Many think as you do, \u007F\u0005[Sir/Lady] \u0008. However, what this country may need is someone who will not back down in the face of a threat--someone who will stand up for the pride of the Kingdom.\u007F1\u0000\u0007"
     0x32F4 [0x23] WAIT_FOR_DIALOG_INTERACTION
     0x32F5 [0x01] GOTO 0x32F8
     0x32F8 [0x1A] CALL_SUBROUTINE(address=0x334C)
     0x32FB [0x1D] PRINT_EVENT_MESSAGE(message_id=7388*)
    → "But our opinion is of no matter. Lightbringer will decide who is the most suited to stand over our fine nation. And do not speak a word of today's exchange, for the monarlais will have our heads if he finds out.\u007F1\u0000\u0007"
     0x32FE [0x23] WAIT_FOR_DIALOG_INTERACTION
     0x32FF [0x03] Work_Zone[1] = 23*
     0x3304 [0x01] GOTO 0x331E
     0x3307 [0x02] IF !(Work_Zone[0] == 1*) GOTO 0x331E
     0x330F [0x1A] CALL_SUBROUTINE(address=0x3326)
     0x3312 [0x1D] PRINT_EVENT_MESSAGE(message_id=7389*)
    → "I realize that you must have many preparations before taking on such an important mission. Take your time and return here when you are ready.\u007F1\u0000\u0007"
     0x3315 [0x23] WAIT_FOR_DIALOG_INTERACTION
     0x3316 [0x03] Work_Zone[1] = 1073741824*
     0x331B [0x01] GOTO 0x331E
     0x331E [0x1A] CALL_SUBROUTINE(address=0x3336)
     0x3321 [0x1A] CALL_SUBROUTINE(address=0x2F59)
     0x3324 [0x21] END_EVENT
     0x3325 [0x00] END_REQSTACK()
# Dead code (unreachable instructions):
     0x333C [0x66] LOAD_EXT_SCHEDULER_MAIN: Load scheduler "thk1" with entities [EventEntity, EventEntity], work=20*
     0x334B [0x1B] RETURN
     0x334C [0x66] LOAD_EXT_SCHEDULER_MAIN: Load scheduler "thk2" with entities [EventEntity, EventEntity], work=20*
     0x335B [0x1B] RETURN
     0x335C [0x42] SET_CLI_EVENT_CANCEL_DATA()
     0x335D [0x46] CAMERA_CONTROL: Disable user control
     0x335F [0x45] LOAD_SCHEDULED_TASK: Load scheduler "fdo1" with entities [EventEntity, EventEntity], work=[200*, 0*]
     0x3370 [0x1C] WAIT(60* ticks)
     0x3373 [0x38] SET_CLIENT_EVENT_MODE(mode=3*)
     0x3376 [0x79] EventEntity looks at LocalPlayer (Basic look)
     0x3380 [0x29] REQ_SET_WAIT(priority=0x64, entity_id=LocalPlayer, tag_num=0x19)
     0x3387 [0x45] LOAD_SCHEDULED_TASK: Load scheduler "grd0" with entities [LocalPlayer, LocalPlayer], work=[130*, 0*]
     0x3398 [0x45] LOAD_SCHEDULED_TASK: Load scheduler "fdi1" with entities [EventEntity, EventEntity], work=[200*, 0*]
     0x33A9 [0x1B] RETURN
```