# Event 2003

## Metadata

| Field           | Value     |
|-----------------|-----------|
| Event Index     | 10/97     |
| Offset          | 0x0946    |
| Data Size       | 888 bytes |
| Calculated Size | 888 bytes |
| Instructions    | 32        |

```
      00 01 02 03 04 05 06 07  08 09 0A 0B 0C 0D 0E 0F
      -- -- -- -- -- -- -- --  -- -- -- -- -- -- -- --
0940:                   42 46  01 45 03 80 F8 FF FF 7F        BF.E......
0950: F8 FF FF 7F 66 64 6F 31  04 80 1C 05 80 38 06 80  ....fdo1.....8..
0960: 29 64 F0 FF FF 7F 19 29  08 F0 FF FF 7F 39 45 0A  )d.....).....9E.
0970: 80 F0 FF FF 7F F0 FF FF  7F 73 30 32 34 04 80 45  .........s024..E
0980: 03 80 F8 FF FF 7F F8 FF  FF 7F 66 64 69 31 04 80  ..........fdi1..
0990: 02 06 10 17 80 00 B3 09  03 05 10 3F 80 66 00 80  ...........?.f..
09A0: F8 FF FF 7F F8 FF FF 7F  74 6C 6B 30 1D 1A 80 23  ........tlk0...#
09B0: 01 E0 09 66 00 80 F8 FF  FF 7F F8 FF FF 7F 74 6C  ...f..........tl
09C0: 6B 30 1D 42 80 23 45 0A  80 F0 FF FF 7F F0 FF FF  k0.B.#E.........
09D0: 7F 73 30 32 30 04 80 03  05 10 3F 80 1D 43 80 23  .s020.....?..C.#
09E0: 45 03 80 F8 FF FF 7F F8  FF FF 7F 66 64 6F 31 04  E..........fdo1.
09F0: 80 1C 05 80 5E 69 64 6C  30 1C 02 80 46 00 45 03  ....^idl0...F.E.
0A00: 80 F8 FF FF 7F F8 FF FF  7F 66 64 69 31 04 80 45  .........fdi1..E
0A10: 1D 80 F0 FF FF 7F F0 FF  FF 7F 71 73 74 63 04 80  ..........qstc..
0A20: 20 00 21 00 45 03 80 F0  FF FF 7F F0 FF FF 7F 6F   .!.E..........o
0A30: 76 6C 31 04 80 45 07 80  F8 FF FF 7F F8 FF FF 7F  vl1..E..........
0A40: 73 30 39 32 04 80 66 00  80 F8 FF FF 7F F8 FF FF  s092..f.........
0A50: 7F 74 6C 6B 30 1D 44 80  23 5E 69 64 6C 30 1D 45  .tlk0.D.#^idl0.E
0A60: 80 23 52 07 80 F8 FF FF  7F F8 FF FF 7F 73 30 39  .#R..........s09
0A70: 32 45 07 80 F8 FF FF 7F  F8 FF FF 7F 73 31 30 39  2E..........s109
0A80: 04 80 66 00 80 F8 FF FF  7F F8 FF FF 7F 74 68 6B  ..f..........thk
0A90: 31 1D 46 80 23 1D 47 80  23 1D 48 80 23 52 07 80  1.F.#.G.#.H.#R..
0AA0: F8 FF FF 7F F8 FF FF 7F  73 31 30 39 45 07 80 F8  ........s109E...
0AB0: FF FF 7F F8 FF FF 7F 73  30 39 32 04 80 1D 49 80  .......s092...I.
0AC0: 23 66 00 80 F8 FF FF 7F  F8 FF FF 7F 74 68 6B 32  #f..........thk2
0AD0: 53 F8 FF FF 7F F8 FF FF  7F 74 68 6B 32 1C 02 80  S........thk2...
0AE0: 52 07 80 F8 FF FF 7F F8  FF FF 7F 73 30 39 32 45  R..........s092E
0AF0: 03 80 F0 FF FF 7F F0 FF  FF 7F 6F 76 6C 31 04 80  ..........ovl1..
0B00: 45 0A 80 F0 FF FF 7F F0  FF FF 7F 73 30 32 30 04  E..........s020.
0B10: 80 66 00 80 F8 FF FF 7F  F8 FF FF 7F 70 6F 69 31  .f..........poi1
0B20: 1D 4A 80 23 66 00 80 F8  FF FF 7F F8 FF FF 7F 70  .J.#f..........p
0B30: 6F 69 32 53 F8 FF FF 7F  F8 FF FF 7F 70 6F 69 32  oi2S........poi2
0B40: 1C 02 80 66 00 80 F8 FF  FF 7F F8 FF FF 7F 74 6C  ...f..........tl
0B50: 6B 30 1D 4B 80 23 5E 69  64 6C 30 24 0E 80 04 80  k0.K.#^idl0$....
0B60: 04 80 25 02 00 10 04 80  00 6E 0C 45 07 80 F8 FF  ..%......n.E....
0B70: FF 7F F8 FF FF 7F 73 31  30 37 04 80 66 00 80 F8  ......s107..f...
0B80: FF FF 7F F8 FF FF 7F 74  6C 6B 30 1D 4C 80 23 1D  .......tlk0.L.#.
0B90: 4D 80 23 52 07 80 F8 FF  FF 7F F8 FF FF 7F 73 31  M.#R..........s1
0BA0: 30 37 45 03 80 F0 FF FF  7F F0 FF FF 7F 6F 76 6C  07E..........ovl
0BB0: 31 04 80 02 09 10 12 80  00 CF 0B 45 07 80 F8 FF  1..........E....
0BC0: FF 7F F8 FF FF 7F 73 31  30 38 04 80 01 FC 0B 02  ......s108......
0BD0: 09 10 13 80 00 EB 0B 45  07 80 F8 FF FF 7F F8 FF  .......E........
0BE0: FF 7F 73 31 30 38 04 80  01 FC 0B 45 0A 80 F0 FF  ..s108.....E....
0BF0: FF 7F F0 FF FF 7F 73 30  32 33 04 80 1D 4E 80 23  ......s023...N.#
0C00: 1D 14 80 23 5E 69 64 6C  30 24 15 80 04 80 04 80  ...#^idl0$......
0C10: 25 02 00 10 04 80 00 4D  0C 45 07 80 F8 FF FF 7F  %......M.E......
0C20: F8 FF FF 7F 73 31 31 30  04 80 66 00 80 F8 FF FF  ....s110..f.....
0C30: 7F F8 FF FF 7F 74 6C 6B  30 1D 4F 80 23 5E 69 64  .....tlk0.O.#^id
0C40: 6C 30 1C 02 80 03 01 10  18 80 01 6B 0C 02 00 10  l0.........k....
0C50: 17 80 00 5B 0C 1A 6B 0B  01 6B 0C 02 00 10 18 80  ...[..k..k......
0C60: 00 6B 0C 03 01 10 19 80  01 6B 0C 01 7E 0C 02 00  .k.......k..~...
0C70: 10 17 80 00 7E 0C 03 01  10 19 80 01 7E 0C 45 03  ....~.......~.E.
0C80: 80 F8 FF FF 7F F8 FF FF  7F 66 64 6F 31 04 80 1C  .........fdo1...
0C90: 05 80 52 07 80 F8 FF FF  7F F8 FF FF 7F 73 31 31  ..R..........s11
0CA0: 30 46 00 45 03 80 F8 FF  FF 7F F8 FF FF 7F 66 64  0F.E..........fd
0CB0: 69 31 04 80 21 00 29 0F  62 60 0E 01 3D 00        i1..!.).b`..=.  
```

## Opcodes

```
  0: 0x0946 [0x42] SET_CLI_EVENT_CANCEL_DATA()
  1: 0x0947 [0x46] CAMERA_CONTROL: Disable user control
  2: 0x0949 [0x45] LOAD_SCHEDULED_TASK: Load scheduler "fdo1" with entities [EventEntity, EventEntity], work=[200*, 0*]
  3: 0x095A [0x1C] WAIT(60* ticks)
  4: 0x095D [0x38] SET_CLIENT_EVENT_MODE(mode=3*)
  5: 0x0960 [0x29] REQ_SET_WAIT(priority=0x64, entity_id=LocalPlayer, tag_num=0x19)
  6: 0x0967 [0x29] REQ_SET_WAIT(priority=0x08, entity_id=LocalPlayer, tag_num=0x39)
  7: 0x096E [0x45] LOAD_SCHEDULED_TASK: Load scheduler "s024" with entities [LocalPlayer, LocalPlayer], work=[130*, 0*]
  8: 0x097F [0x45] LOAD_SCHEDULED_TASK: Load scheduler "fdi1" with entities [EventEntity, EventEntity], work=[200*, 0*]
  9: 0x0990 [0x02] IF !(Work_Zone[6] == 1*) GOTO 0x09B3
 10: 0x0998 [0x03] Work_Zone[5] = 891*
 11: 0x099D [0x66] LOAD_EXT_SCHEDULER_MAIN: Load scheduler "tlk0" with entities [EventEntity, EventEntity], work=20*
 12: 0x09AC [0x1D] PRINT_EVENT_MESSAGE(message_id=9213*)
    → "I knew you'd return safely, and with the \u0001\u0005#\u0002\u0003\u0000\u0000. Mission completed!\u007F1\u0000\u0007"
 13: 0x09AF [0x23] WAIT_FOR_DIALOG_INTERACTION
 14: 0x09B0 [0x01] GOTO 0x09E0
 15: 0x09B3 [0x66] LOAD_EXT_SCHEDULER_MAIN: Load scheduler "tlk0" with entities [EventEntity, EventEntity], work=20*
 16: 0x09C2 [0x1D] PRINT_EVENT_MESSAGE(message_id=7256*)
    → "Ah, you've returned! I was afraid that Goblins got you.\u007F1\u0000\u0007"
 17: 0x09C5 [0x23] WAIT_FOR_DIALOG_INTERACTION
 18: 0x09C6 [0x45] LOAD_SCHEDULED_TASK: Load scheduler "s020" with entities [LocalPlayer, LocalPlayer], work=[130*, 0*]
 19: 0x09D7 [0x03] Work_Zone[5] = 891*
 20: 0x09DC [0x1D] PRINT_EVENT_MESSAGE(message_id=7257*)
    → "That's one \u0001\u0005#\u0002\u0003\u0000\u0000 for the gatehouse, then. Mission complete. Not bad for a new recruit.\u007F1\u0000\u0007"
 21: 0x09DF [0x23] WAIT_FOR_DIALOG_INTERACTION

SUBROUTINE_09E0:
 22: 0x09E0 [0x45] LOAD_SCHEDULED_TASK: Load scheduler "fdo1" with entities [EventEntity, EventEntity], work=[200*, 0*]
 23: 0x09F1 [0x1C] WAIT(60* ticks)
 24: 0x09F4 [0x5E] EventEntity goes idle (kills current action) (animation: "idl0")
 25: 0x09F9 [0x1C] WAIT(30* ticks)
 26: 0x09FC [0x46] CAMERA_CONTROL: Restore default settings
 27: 0x09FE [0x45] LOAD_SCHEDULED_TASK: Load scheduler "fdi1" with entities [EventEntity, EventEntity], work=[200*, 0*]
 28: 0x0A0F [0x45] LOAD_SCHEDULED_TASK: Load scheduler "qstc" with entities [LocalPlayer, LocalPlayer], work=[201*, 0*]
 29: 0x0A20 [0x20] SET_CLI_EVENT_UC_FLAG: Unlock player control
 30: 0x0A22 [0x21] END_EVENT
 31: 0x0A23 [0x00] END_REQSTACK()
```

## Data or dead code:

```
# Dead code (unreachable instructions):
     0x0A24 [0x45] LOAD_SCHEDULED_TASK: Load scheduler "ovl1" with entities [LocalPlayer, LocalPlayer], work=[200*, 0*]
     0x0A35 [0x45] LOAD_SCHEDULED_TASK: Load scheduler "s092" with entities [EventEntity, EventEntity], work=[90*, 0*]
     0x0A46 [0x66] LOAD_EXT_SCHEDULER_MAIN: Load scheduler "tlk0" with entities [EventEntity, EventEntity], work=20*
     0x0A55 [0x1D] PRINT_EVENT_MESSAGE(message_id=7258*)
    → "Ah, the recruit's back again? I'm sorry, but I've no time for you today.\u007F1\u0000\u0007"
     0x0A58 [0x23] WAIT_FOR_DIALOG_INTERACTION
     0x0A59 [0x5E] EventEntity goes idle (kills current action) (animation: "idl0")
     0x0A5E [0x1D] PRINT_EVENT_MESSAGE(message_id=7259*)
    → "Well, perhaps you can be of some help. Many of our children have disappeared mysteriously, and I've no doubt the Ghelsba Orcs are behind it.\u007F1\u0000\u0007"
     0x0A61 [0x23] WAIT_FOR_DIALOG_INTERACTION
     0x0A62 [0x52] END_LOAD_SCHEDULER: End scheduler "s092" with entities [EventEntity, EventEntity], work=90*
     0x0A71 [0x45] LOAD_SCHEDULED_TASK: Load scheduler "s109" with entities [EventEntity, EventEntity], work=[90*, 0*]
     0x0A82 [0x66] LOAD_EXT_SCHEDULER_MAIN: Load scheduler "thk1" with entities [EventEntity, EventEntity], work=20*
     0x0A91 [0x1D] PRINT_EVENT_MESSAGE(message_id=7260*)
    → "The Royal Knights should be on the job by now, but the two princes are at each other's throats.\u007F1\u0000\u0007"
     0x0A94 [0x23] WAIT_FOR_DIALOG_INTERACTION
     0x0A95 [0x1D] PRINT_EVENT_MESSAGE(message_id=7261*)
    → "Prince Trion, the eldest, says we should launch a full attack, with all haste.\u007F1\u0000\u0007"
     0x0A98 [0x23] WAIT_FOR_DIALOG_INTERACTION
     0x0A99 [0x1D] PRINT_EVENT_MESSAGE(message_id=7262*)
    → "While his younger brother, Prince Pieuje says the safety of the children comes first, and he won't authorize an attack.\u007F1\u0000\u0007"
     0x0A9C [0x23] WAIT_FOR_DIALOG_INTERACTION
     0x0A9D [0x52] END_LOAD_SCHEDULER: End scheduler "s109" with entities [EventEntity, EventEntity], work=90*
     0x0AAC [0x45] LOAD_SCHEDULED_TASK: Load scheduler "s092" with entities [EventEntity, EventEntity], work=[90*, 0*]
     0x0ABD [0x1D] PRINT_EVENT_MESSAGE(message_id=7263*)
    → "They've been arguing this back and forth for days. The knights' hands are tied, and frankly, nobody knows what to do.\u007F1\u0000\u0007"
     0x0AC0 [0x23] WAIT_FOR_DIALOG_INTERACTION
     0x0AC1 [0x66] LOAD_EXT_SCHEDULER_MAIN: Load scheduler "thk2" with entities [EventEntity, EventEntity], work=20*
     0x0AD0 [0x53] WAIT_SCHEDULER_TASK: Wait for scheduler "thk2" with entities [EventEntity, EventEntity]
     0x0ADD [0x1C] WAIT(30* ticks)
     0x0AE0 [0x52] END_LOAD_SCHEDULER: End scheduler "s092" with entities [EventEntity, EventEntity], work=90*
     0x0AEF [0x45] LOAD_SCHEDULED_TASK: Load scheduler "ovl1" with entities [LocalPlayer, LocalPlayer], work=[200*, 0*]
     0x0B00 [0x45] LOAD_SCHEDULED_TASK: Load scheduler "s020" with entities [LocalPlayer, LocalPlayer], work=[130*, 0*]
     0x0B11 [0x66] LOAD_EXT_SCHEDULER_MAIN: Load scheduler "poi1" with entities [EventEntity, EventEntity], work=20*
     0x0B20 [0x1D] PRINT_EVENT_MESSAGE(message_id=7264*)
    → "If you really want to make a name for yourself, go to Ghelsba, and rescue those kidnapped children!\u007F1\u0000\u0007"
     0x0B23 [0x23] WAIT_FOR_DIALOG_INTERACTION
     0x0B24 [0x66] LOAD_EXT_SCHEDULER_MAIN: Load scheduler "poi2" with entities [EventEntity, EventEntity], work=20*
     0x0B33 [0x53] WAIT_SCHEDULER_TASK: Wait for scheduler "poi2" with entities [EventEntity, EventEntity]
     0x0B40 [0x1C] WAIT(30* ticks)
     0x0B43 [0x66] LOAD_EXT_SCHEDULER_MAIN: Load scheduler "tlk0" with entities [EventEntity, EventEntity], work=20*
     0x0B52 [0x1D] PRINT_EVENT_MESSAGE(message_id=7265*)
    → "What say you? Will you go?\u007F1\u0000\u0007"
     0x0B55 [0x23] WAIT_FOR_DIALOG_INTERACTION
     0x0B56 [0x5E] EventEntity goes idle (kills current action) (animation: "idl0")
     0x0B5B [0x24] CREATE_DIALOG(message_id=7240*, default_option=0*, option_flags=0*)
    → "Interested?\u0007\u000BTell me more.\u0007Never mind.\u007F1\u0000\u0007"
     0x0B62 [0x25] WAIT_DIALOG_SELECT()
     0x0B63 [0x02] IF !(Work_Zone[0] == 0*) GOTO 0x0C6E
     0x0B6B [0x45] LOAD_SCHEDULED_TASK: Load scheduler "s107" with entities [EventEntity, EventEntity], work=[90*, 0*]
     0x0B7C [0x66] LOAD_EXT_SCHEDULER_MAIN: Load scheduler "tlk0" with entities [EventEntity, EventEntity], work=20*
     0x0B8B [0x1D] PRINT_EVENT_MESSAGE(message_id=7266*)
    → "Here's your mission, then. Rescue the two children kidnapped by the Orcs of Ghelsba Outpost.\u007F1\u0000\u0007"
     0x0B8E [0x23] WAIT_FOR_DIALOG_INTERACTION
     0x0B8F [0x1D] PRINT_EVENT_MESSAGE(message_id=7267*)
    → "Ghelsba Outpost is northwest of West Ronfaure. Take the path before the Westgate, then turn right when the path splits in the forest. You'll find the entrance up in the hills.\u007F1\u0000\u0007"
     0x0B92 [0x23] WAIT_FOR_DIALOG_INTERACTION
     0x0B93 [0x52] END_LOAD_SCHEDULER: End scheduler "s107" with entities [EventEntity, EventEntity], work=90*
     0x0BA2 [0x45] LOAD_SCHEDULED_TASK: Load scheduler "ovl1" with entities [LocalPlayer, LocalPlayer], work=[200*, 0*]
     0x0BB3 [0x02] IF !(Work_Zone[9] == 5*) GOTO 0x0BCF
     0x0BBB [0x45] LOAD_SCHEDULED_TASK: Load scheduler "s108" with entities [EventEntity, EventEntity], work=[90*, 0*]
     0x0BCC [0x01] GOTO 0x0BFC
     0x0BCF [0x02] IF !(Work_Zone[9] == 6*) GOTO 0x0BEB
     0x0BD7 [0x45] LOAD_SCHEDULED_TASK: Load scheduler "s108" with entities [EventEntity, EventEntity], work=[90*, 0*]
     0x0BE8 [0x01] GOTO 0x0BFC
     0x0BEB [0x45] LOAD_SCHEDULED_TASK: Load scheduler "s023" with entities [LocalPlayer, LocalPlayer], work=[130*, 0*]
     0x0BFC [0x1D] PRINT_EVENT_MESSAGE(message_id=7268*)
    → "If you have trouble finding the way, just follow one of the soldiers on patrol.\u007F1\u0000\u0007"
     0x0BFF [0x23] WAIT_FOR_DIALOG_INTERACTION
     0x0C00 [0x1D] PRINT_EVENT_MESSAGE(message_id=7243*)
    → "That is all. You'll take the mission then?\u007F1\u0000\u0007"
     0x0C03 [0x23] WAIT_FOR_DIALOG_INTERACTION
     0x0C04 [0x5E] EventEntity goes idle (kills current action) (animation: "idl0")
     0x0C09 [0x24] CREATE_DIALOG(message_id=7244*, default_option=0*, option_flags=0*)
    → "Do you accept the mission?\u0007\u000BI accept.\u0007Could you explain again?\u0007No, thank you.\u007F1\u0000\u0007"
     0x0C10 [0x25] WAIT_DIALOG_SELECT()
     0x0C11 [0x02] IF !(Work_Zone[0] == 0*) GOTO 0x0C4D
     0x0C19 [0x45] LOAD_SCHEDULED_TASK: Load scheduler "s110" with entities [EventEntity, EventEntity], work=[90*, 0*]
     0x0C2A [0x66] LOAD_EXT_SCHEDULER_MAIN: Load scheduler "tlk0" with entities [EventEntity, EventEntity], work=20*
     0x0C39 [0x1D] PRINT_EVENT_MESSAGE(message_id=7269*)
    → "Orcs tend to keep their hostages in tents or small huts. Once you're inside the compound, check them first.\u007F1\u0000\u0007"
     0x0C3C [0x23] WAIT_FOR_DIALOG_INTERACTION
     0x0C3D [0x5E] EventEntity goes idle (kills current action) (animation: "idl0")
     0x0C42 [0x1C] WAIT(30* ticks)
     0x0C45 [0x03] Work_Zone[1] = 2*
     0x0C4A [0x01] GOTO 0x0C6B
     0x0C4D [0x02] IF !(Work_Zone[0] == 1*) GOTO 0x0C5B
     0x0C55 [0x1A] CALL_SUBROUTINE(address=0x0B6B)
     0x0C58 [0x01] GOTO 0x0C6B
     0x0C5B [0x02] IF !(Work_Zone[0] == 2*) GOTO 0x0C6B
     0x0C63 [0x03] Work_Zone[1] = 1073741824*
     0x0C68 [0x01] GOTO 0x0C6B
     0x0C6B [0x01] GOTO 0x0C7E
     0x0C6E [0x02] IF !(Work_Zone[0] == 1*) GOTO 0x0C7E
     0x0C76 [0x03] Work_Zone[1] = 1073741824*
     0x0C7B [0x01] GOTO 0x0C7E
     0x0C7E [0x45] LOAD_SCHEDULED_TASK: Load scheduler "fdo1" with entities [EventEntity, EventEntity], work=[200*, 0*]
     0x0C8F [0x1C] WAIT(60* ticks)
     0x0C92 [0x52] END_LOAD_SCHEDULER: End scheduler "s110" with entities [EventEntity, EventEntity], work=90*
     0x0CA1 [0x46] CAMERA_CONTROL: Restore default settings
     0x0CA3 [0x45] LOAD_SCHEDULED_TASK: Load scheduler "fdi1" with entities [EventEntity, EventEntity], work=[200*, 0*]
     0x0CB4 [0x21] END_EVENT
     0x0CB5 [0x00] END_REQSTACK()
     0x0CB6 [0x29] REQ_SET_WAIT(priority=0x0F, entity_id=Ambrotien (ID: 17719394/0x010E6062), tag_num=0x3D)
     0x0CBD [0x00] END_REQSTACK()
```