# Event 2012

## Metadata

| Field           | Value     |
|-----------------|-----------|
| Event Index     | 16/97     |
| Offset          | 0x17EA    |
| Data Size       | 566 bytes |
| Calculated Size | 566 bytes |
| Instructions    | 24        |

```
      00 01 02 03 04 05 06 07  08 09 0A 0B 0C 0D 0E 0F
      -- -- -- -- -- -- -- --  -- -- -- -- -- -- -- --
17E0:                                42 46 01 45 03 80            BF.E..
17F0: F8 FF FF 7F F8 FF FF 7F  66 64 6F 31 04 80 1C 05  ........fdo1....
1800: 80 38 06 80 29 64 F0 FF  FF 7F 19 29 08 F0 FF FF  .8..)d.....)....
1810: 7F 39 45 07 80 F8 FF FF  7F F8 FF FF 7F 73 31 30  .9E..........s10
1820: 39 04 80 45 03 80 F8 FF  FF 7F F8 FF FF 7F 66 64  9..E..........fd
1830: 69 31 04 80 66 00 80 F8  FF FF 7F F8 FF FF 7F 74  i1..f..........t
1840: 6C 6B 30 1D 78 80 23 1D  79 80 23 45 03 80 F8 FF  lk0.x.#.y.#E....
1850: FF 7F F8 FF FF 7F 66 64  6F 31 04 80 1C 05 80 52  ......fdo1.....R
1860: 07 80 F8 FF FF 7F F8 FF  FF 7F 73 31 30 39 5E 69  ..........s109^i
1870: 64 6C 30 46 00 45 03 80  F8 FF FF 7F F8 FF FF 7F  dl0F.E..........
1880: 66 64 69 31 04 80 45 1D  80 F0 FF FF 7F F0 FF FF  fdi1..E.........
1890: 7F 71 73 74 63 04 80 21  00 45 03 80 F0 FF FF 7F  .qstc..!.E......
18A0: F0 FF FF 7F 6F 76 6C 31  04 80 45 07 80 F8 FF FF  ....ovl1..E.....
18B0: 7F F8 FF FF 7F 73 30 39  32 04 80 66 00 80 F8 FF  .....s092..f....
18C0: FF 7F F8 FF FF 7F 74 6C  6B 30 1D 7A 80 23 5E 69  ......tlk0.z.#^i
18D0: 64 6C 30 52 07 80 F8 FF  FF 7F F8 FF FF 7F 73 30  dl0R..........s0
18E0: 39 32 24 0E 80 04 80 04  80 25 02 00 10 04 80 00  92$......%......
18F0: E7 19 45 07 80 F8 FF FF  7F F8 FF FF 7F 73 31 30  ..E..........s10
1900: 37 04 80 66 00 80 F8 FF  FF 7F F8 FF FF 7F 74 6C  7..f..........tl
1910: 6B 30 1D 7B 80 23 03 02  10 7C 80 1D 7D 80 23 1D  k0.{.#...|..}.#.
1920: 14 80 23 5E 69 64 6C 30  52 07 80 F8 FF FF 7F F8  ..#^idl0R.......
1930: FF FF 7F 73 31 30 37 24  15 80 04 80 04 80 25 02  ...s107$......%.
1940: 00 10 04 80 00 C6 19 02  09 10 12 80 00 63 19 45  .............c.E
1950: 07 80 F8 FF FF 7F F8 FF  FF 7F 73 31 30 38 04 80  ..........s108..
1960: 01 90 19 02 09 10 13 80  00 7F 19 45 07 80 F8 FF  ...........E....
1970: FF 7F F8 FF FF 7F 73 31  30 38 04 80 01 90 19 45  ......s108.....E
1980: 0A 80 F0 FF FF 7F F0 FF  FF 7F 73 30 32 33 04 80  ..........s023..
1990: 66 00 80 F8 FF FF 7F F8  FF FF 7F 74 6C 6B 30 1D  f..........tlk0.
19A0: 7E 80 23 1D 7F 80 23 5E  69 64 6C 30 1C 02 80 3E  ~.#...#^idl0...>
19B0: 07 10 30 80 BE 19 03 01  10 29 80 01 C3 19 03 01  ..0......)......
19C0: 10 80 80 01 E4 19 02 00  10 17 80 00 D4 19 1A F2  ................
19D0: 18 01 E4 19 02 00 10 18  80 00 E4 19 03 01 10 19  ................
19E0: 80 01 E4 19 01 F7 19 02  00 10 17 80 00 F7 19 03  ................
19F0: 01 10 19 80 01 F7 19 45  03 80 F8 FF FF 7F F8 FF  .......E........
1A00: FF 7F 66 64 6F 31 04 80  1C 05 80 46 00 45 03 80  ..fdo1.....F.E..
1A10: F8 FF FF 7F F8 FF FF 7F  66 64 69 31 04 80 21 00  ........fdi1..!.
```

## Opcodes

```
  0: 0x17EA [0x42] SET_CLI_EVENT_CANCEL_DATA()
  1: 0x17EB [0x46] CAMERA_CONTROL: Disable user control
  2: 0x17ED [0x45] LOAD_SCHEDULED_TASK(work_offset1=200*, entity1=EventEntity, entity2=EventEntity, scheduler_id="fdo1", work_offset2=0*)
  3: 0x17FE [0x1C] WAIT(60* ticks)
  4: 0x1801 [0x38] SET_CLIENT_EVENT_MODE(mode=3*)
  5: 0x1804 [0x29] REQ_SET_WAIT(priority=0x64, entity_id=LocalPlayer, tag_num=0x19)
  6: 0x180B [0x29] REQ_SET_WAIT(priority=0x08, entity_id=LocalPlayer, tag_num=0x39)
  7: 0x1812 [0x45] LOAD_SCHEDULED_TASK(work_offset1=90*, entity1=EventEntity, entity2=EventEntity, scheduler_id="s109", work_offset2=0*)
  8: 0x1823 [0x45] LOAD_SCHEDULED_TASK(work_offset1=200*, entity1=EventEntity, entity2=EventEntity, scheduler_id="fdi1", work_offset2=0*)
  9: 0x1834 [0x66] LOAD_EXT_SCHEDULER_MAIN(work_offset=20*, entity1=EventEntity, entity2=EventEntity, action="tlk0")
 10: 0x1843 [0x1D] PRINT_EVENT_MESSAGE(message_id=7306*)
    → "You've returned! Zantaviat told me everything. Congratulations on a job well done!\u007F1\u0000\u0007"
 11: 0x1846 [0x23] WAIT_FOR_DIALOG_INTERACTION
 12: 0x1847 [0x1D] PRINT_EVENT_MESSAGE(message_id=7307*)
    → "But we can't let down our guard yet. Those Orcs will not just sit there. We must keep constant vigil, and move before they do!\u007F1\u0000\u0007"
 13: 0x184A [0x23] WAIT_FOR_DIALOG_INTERACTION
 14: 0x184B [0x45] LOAD_SCHEDULED_TASK(work_offset1=200*, entity1=EventEntity, entity2=EventEntity, scheduler_id="fdo1", work_offset2=0*)
 15: 0x185C [0x1C] WAIT(60* ticks)
 16: 0x185F [0x52] END_LOAD_SCHEDULER: End scheduler "s109" with entities [EventEntity, EventEntity], work=90*
 17: 0x186E [0x5E] EventEntity goes idle (kills current action) (animation: "idl0")
 18: 0x1873 [0x46] CAMERA_CONTROL: Restore default settings
 19: 0x1875 [0x45] LOAD_SCHEDULED_TASK(work_offset1=200*, entity1=EventEntity, entity2=EventEntity, scheduler_id="fdi1", work_offset2=0*)
 20: 0x1886 [0x45] LOAD_SCHEDULED_TASK(work_offset1=201*, entity1=LocalPlayer, entity2=LocalPlayer, scheduler_id="qstc", work_offset2=0*)
 21: 0x1897 [0x21] END_EVENT
 22: 0x1898 [0x00] END_REQSTACK()
```

## Data or dead code:

```
# Data Section: 0x1899 (391 bytes)
     0x1899: 45 03 80 F0 FF FF 7F F0 FF FF 7F 6F 76 6C 31 04
     0x18A9: 80 45 07 80 F8 FF FF 7F F8 FF FF 7F 73 30 39 32
     0x18B9: 04 80 66 00 80 F8 FF FF 7F F8 FF FF 7F 74 6C 6B
     0x18C9: 30 1D 7A 80 23 5E 69 64 6C 30 52 07 80 F8 FF FF
     0x18D9: 7F F8 FF FF 7F 73 30 39 32 24 0E 80 04 80 04 80
     0x18E9: 25 02 00 10 04 80 00 E7 19 45 07 80 F8 FF FF 7F
     0x18F9: F8 FF FF 7F 73 31 30 37 04 80 66 00 80 F8 FF FF
     0x1909: 7F F8 FF FF 7F 74 6C 6B 30 1D 7B 80 23 03 02 10
     0x1919: 7C 80 1D 7D 80 23 1D 14 80 23 5E 69 64 6C 30 52
     0x1929: 07 80 F8 FF FF 7F F8 FF FF 7F 73 31 30 37 24 15
     0x1939: 80 04 80 04 80 25 02 00 10 04 80 00 C6 19 02 09
     0x1949: 10 12 80 00 63 19 45 07 80 F8 FF FF 7F F8 FF FF
     0x1959: 7F 73 31 30 38 04 80 01 90 19 02 09 10 13 80 00
     0x1969: 7F 19 45 07 80 F8 FF FF 7F F8 FF FF 7F 73 31 30
     0x1979: 38 04 80 01 90 19 45 0A 80 F0 FF FF 7F F0 FF FF
     0x1989: 7F 73 30 32 33 04 80 66 00 80 F8 FF FF 7F F8 FF
     0x1999: FF 7F 74 6C 6B 30 1D 7E 80 23 1D 7F 80 23 5E 69
     0x19A9: 64 6C 30 1C 02 80 3E 07 10 30 80 BE 19 03 01 10
     0x19B9: 29 80 01 C3 19 03 01 10 80 80 01 E4 19 02 00 10
     0x19C9: 17 80 00 D4 19 1A F2 18 01 E4 19 02 00 10 18 80
     0x19D9: 00 E4 19 03 01 10 19 80 01 E4 19 01 F7 19 02 00
     0x19E9: 10 17 80 00 F7 19 03 01 10 19 80 01 F7 19 45 03
     0x19F9: 80 F8 FF FF 7F F8 FF FF 7F 66 64 6F 31 04 80 1C
     0x1A09: 05 80 46 00 45 03 80 F8 FF FF 7F F8 FF FF 7F 66
     0x1A19: 64 69 31 04 80 21 00
```