# Event 2013

## Metadata

| Field           | Value     |
|-----------------|-----------|
| Event Index     | 17/97     |
| Offset          | 0x1A20    |
| Data Size       | 810 bytes |
| Calculated Size | 810 bytes |
| Instructions    | 35        |

```
      00 01 02 03 04 05 06 07  08 09 0A 0B 0C 0D 0E 0F
      -- -- -- -- -- -- -- --  -- -- -- -- -- -- -- --
1A20: 42 20 01 46 01 45 03 80  F8 FF FF 7F F8 FF FF 7F  B .F.E..........
1A30: 66 64 6F 31 04 80 1C 05  80 38 06 80 29 64 F0 FF  fdo1.....8..)d..
1A40: FF 7F 19 29 08 F0 FF FF  7F 39 45 07 80 F8 FF FF  ...).....9E.....
1A50: 7F F8 FF FF 7F 73 31 30  39 04 80 45 03 80 F8 FF  .....s109..E....
1A60: FF 7F F8 FF FF 7F 66 64  69 31 04 80 66 00 80 F8  ......fdi1..f...
1A70: FF FF 7F F8 FF FF 7F 74  6C 6B 30 1D 81 80 23 1D  .......tlk0...#.
1A80: 82 80 23 52 07 80 F8 FF  FF 7F F8 FF FF 7F 73 31  ..#R..........s1
1A90: 30 39 45 03 80 F0 FF FF  7F F0 FF FF 7F 6F 76 6C  09E..........ovl
1AA0: 31 04 80 02 09 10 12 80  00 BF 1A 45 07 80 F8 FF  1..........E....
1AB0: FF 7F F8 FF FF 7F 73 31  30 38 04 80 01 EC 1A 02  ......s108......
1AC0: 09 10 13 80 00 DB 1A 45  07 80 F8 FF FF 7F F8 FF  .......E........
1AD0: FF 7F 73 31 30 38 04 80  01 EC 1A 45 0A 80 F0 FF  ..s108.....E....
1AE0: FF 7F F0 FF FF 7F 73 30  32 33 04 80 1D 83 80 23  ......s023.....#
1AF0: 45 03 80 F8 FF FF 7F F8  FF FF 7F 66 64 6F 31 04  E..........fdo1.
1B00: 80 1C 05 80 5E 69 64 6C  30 46 00 45 03 80 F8 FF  ....^idl0F.E....
1B10: FF 7F F8 FF FF 7F 66 64  69 31 04 80 45 1D 80 F0  ......fdi1..E...
1B20: FF FF 7F F0 FF FF 7F 71  73 74 63 04 80 20 00 21  .......qstc.. .!
1B30: 00 45 03 80 F0 FF FF 7F  F0 FF FF 7F 6F 76 6C 31  .E..........ovl1
1B40: 04 80 45 07 80 F8 FF FF  7F F8 FF FF 7F 73 30 39  ..E..........s09
1B50: 32 04 80 66 00 80 F8 FF  FF 7F F8 FF FF 7F 74 6C  2..f..........tl
1B60: 6B 30 1D 84 80 23 1D 85  80 23 1D 14 80 23 52 07  k0...#...#...#R.
1B70: 80 F8 FF FF 7F F8 FF FF  7F 73 30 39 32 5E 69 64  .........s092^id
1B80: 6C 30 24 6F 80 04 80 04  80 25 02 00 10 04 80 00  l0$o.....%......
1B90: D5 1B 45 07 80 F8 FF FF  7F F8 FF FF 7F 73 30 39  ..E..........s09
1BA0: 35 04 80 66 00 80 F8 FF  FF 7F F8 FF FF 7F 74 6C  5..f..........tl
1BB0: 6B 30 1D 86 80 23 5E 69  64 6C 30 1C 02 80 03 01  k0...#^idl0.....
1BC0: 10 2A 80 52 07 80 F8 FF  FF 7F F8 FF FF 7F 73 30  .*.R..........s0
1BD0: 39 35 01 E5 1B 02 00 10  17 80 00 E5 1B 03 01 10  95..............
1BE0: 19 80 01 E5 1B 45 03 80  F8 FF FF 7F F8 FF FF 7F  .....E..........
1BF0: 66 64 6F 31 04 80 1C 05  80 46 00 45 03 80 F8 FF  fdo1.....F.E....
1C00: FF 7F F8 FF FF 7F 66 64  69 31 04 80 21 00 45 03  ......fdi1..!.E.
1C10: 80 F0 FF FF 7F F0 FF FF  7F 6F 76 6C 31 04 80 45  .........ovl1..E
1C20: 07 80 F8 FF FF 7F F8 FF  FF 7F 73 30 39 32 04 80  ..........s092..
1C30: 66 00 80 F8 FF FF 7F F8  FF FF 7F 74 6C 6B 30 1D  f..........tlk0.
1C40: 87 80 23 1D 88 80 23 24  3A 80 04 80 04 80 25 02  ..#...#$:.....%.
1C50: 00 10 04 80 00 63 1C 1D  89 80 23 03 01 10 2C 80  .....c....#...,.
1C60: 01 73 1C 02 00 10 17 80  00 73 1C 03 01 10 19 80  .s.......s......
1C70: 01 73 1C 5E 69 64 6C 30  45 03 80 F8 FF FF 7F F8  .s.^idl0E.......
1C80: FF FF 7F 66 64 6F 31 04  80 1C 05 80 52 07 80 F8  ...fdo1.....R...
1C90: FF FF 7F F8 FF FF 7F 73  30 39 32 46 00 45 03 80  .......s092F.E..
1CA0: F8 FF FF 7F F8 FF FF 7F  66 64 69 31 04 80 21 00  ........fdi1..!.
1CB0: 45 03 80 F0 FF FF 7F F0  FF FF 7F 6F 76 6C 31 04  E..........ovl1.
1CC0: 80 45 0A 80 F0 FF FF 7F  F0 FF FF 7F 73 30 32 30  .E..........s020
1CD0: 04 80 27 64 F0 FF FF 7F  19 66 00 80 F8 FF FF 7F  ..'d.....f......
1CE0: F8 FF FF 7F 74 6C 6B 30  1D 8A 80 23 1D 8B 80 23  ....tlk0...#...#
1CF0: 24 3A 80 04 80 04 80 25  02 00 10 04 80 00 0C 1D  $:.....%........
1D00: 1D 8C 80 23 03 01 10 28  80 01 1C 1D 02 00 10 17  ...#...(........
1D10: 80 00 1C 1D 03 01 10 19  80 01 1C 1D 5E 69 64 6C  ............^idl
1D20: 30 45 03 80 F8 FF FF 7F  F8 FF FF 7F 66 64 6F 31  0E..........fdo1
1D30: 04 80 1C 05 80 46 00 45  03 80 F8 FF FF 7F F8 FF  .....F.E........
1D40: FF 7F 66 64 69 31 04 80  21 00                    ..fdi1..!.      
```

## Opcodes

```
  0: 0x1A20 [0x42] SET_CLI_EVENT_CANCEL_DATA()
  1: 0x1A21 [0x20] SET_CLI_EVENT_UC_FLAG: Lock player control
  2: 0x1A23 [0x46] CAMERA_CONTROL: Disable user control
  3: 0x1A25 [0x45] LOAD_SCHEDULED_TASK: Load scheduler "fdo1" with entities [EventEntity, EventEntity], work=[200*, 0*]
  4: 0x1A36 [0x1C] WAIT(60* ticks)
  5: 0x1A39 [0x38] SET_CLIENT_EVENT_MODE(mode=3*)
  6: 0x1A3C [0x29] REQ_SET_WAIT(priority=0x64, entity_id=LocalPlayer, tag_num=0x19)
  7: 0x1A43 [0x29] REQ_SET_WAIT(priority=0x08, entity_id=LocalPlayer, tag_num=0x39)
  8: 0x1A4A [0x45] LOAD_SCHEDULED_TASK: Load scheduler "s109" with entities [EventEntity, EventEntity], work=[90*, 0*]
  9: 0x1A5B [0x45] LOAD_SCHEDULED_TASK: Load scheduler "fdi1" with entities [EventEntity, EventEntity], work=[200*, 0*]
 10: 0x1A6C [0x66] LOAD_EXT_SCHEDULER_MAIN: Load scheduler "tlk0" with entities [EventEntity, EventEntity], work=20*
 11: 0x1A7B [0x1D] PRINT_EVENT_MESSAGE(message_id=7314*)
    → "Ah, the great angler returns! I was worried, to be honest. All you hear these days is the massing of beasts, the erosion of the Crystal Lines, and now...\u007F1\u0000\u0007"
 12: 0x1A7E [0x23] WAIT_FOR_DIALOG_INTERACTION
 13: 0x1A7F [0x1D] PRINT_EVENT_MESSAGE(message_id=7315*)
    → "...rumors that the Shadow Lord himself has returned!\u007F1\u0000\u0007"
 14: 0x1A82 [0x23] WAIT_FOR_DIALOG_INTERACTION
 15: 0x1A83 [0x52] END_LOAD_SCHEDULER: End scheduler "s109" with entities [EventEntity, EventEntity], work=90*
 16: 0x1A92 [0x45] LOAD_SCHEDULED_TASK: Load scheduler "ovl1" with entities [LocalPlayer, LocalPlayer], work=[200*, 0*]
 17: 0x1AA3 [0x02] IF !(Work_Zone[9] == 5*) GOTO 0x1ABF
 18: 0x1AAB [0x45] LOAD_SCHEDULED_TASK: Load scheduler "s108" with entities [EventEntity, EventEntity], work=[90*, 0*]
 19: 0x1ABC [0x01] GOTO 0x1AEC
 20: 0x1ABF [0x02] IF !(Work_Zone[9] == 6*) GOTO 0x1ADB
 21: 0x1AC7 [0x45] LOAD_SCHEDULED_TASK: Load scheduler "s108" with entities [EventEntity, EventEntity], work=[90*, 0*]
 22: 0x1AD8 [0x01] GOTO 0x1AEC
 23: 0x1ADB [0x45] LOAD_SCHEDULED_TASK: Load scheduler "s023" with entities [LocalPlayer, LocalPlayer], work=[130*, 0*]
 24: 0x1AEC [0x1D] PRINT_EVENT_MESSAGE(message_id=7316*)
    → "We will examine the fish you brought. Depending on the results, we may need to act! I'll let you know if we need your help.\u007F1\u0000\u0007"
 25: 0x1AEF [0x23] WAIT_FOR_DIALOG_INTERACTION
 26: 0x1AF0 [0x45] LOAD_SCHEDULED_TASK: Load scheduler "fdo1" with entities [EventEntity, EventEntity], work=[200*, 0*]
 27: 0x1B01 [0x1C] WAIT(60* ticks)
 28: 0x1B04 [0x5E] EventEntity goes idle (kills current action) (animation: "idl0")
 29: 0x1B09 [0x46] CAMERA_CONTROL: Restore default settings
 30: 0x1B0B [0x45] LOAD_SCHEDULED_TASK: Load scheduler "fdi1" with entities [EventEntity, EventEntity], work=[200*, 0*]
 31: 0x1B1C [0x45] LOAD_SCHEDULED_TASK: Load scheduler "qstc" with entities [LocalPlayer, LocalPlayer], work=[201*, 0*]
 32: 0x1B2D [0x20] SET_CLI_EVENT_UC_FLAG: Unlock player control
 33: 0x1B2F [0x21] END_EVENT
 34: 0x1B30 [0x00] END_REQSTACK()
```

## Data or dead code:

```
# Dead code (unreachable instructions):
     0x1B31 [0x45] LOAD_SCHEDULED_TASK: Load scheduler "ovl1" with entities [LocalPlayer, LocalPlayer], work=[200*, 0*]
     0x1B42 [0x45] LOAD_SCHEDULED_TASK: Load scheduler "s092" with entities [EventEntity, EventEntity], work=[90*, 0*]
     0x1B53 [0x66] LOAD_EXT_SCHEDULER_MAIN: Load scheduler "tlk0" with entities [EventEntity, EventEntity], work=20*
     0x1B62 [0x1D] PRINT_EVENT_MESSAGE(message_id=7317*)
    → "Ah, it's you, \u0008. You've come at a good time. I've news for you.\u007F1\u0000\u0007"
     0x1B65 [0x23] WAIT_FOR_DIALOG_INTERACTION
     0x1B66 [0x1D] PRINT_EVENT_MESSAGE(message_id=7318*)
    → "By order of the Kingdom of San d'Oria, you're to head to Jeuno as an ambassadorial attach\u0008i.\u007F1\u0000\u0007"
     0x1B69 [0x23] WAIT_FOR_DIALOG_INTERACTION
     0x1B6A [0x1D] PRINT_EVENT_MESSAGE(message_id=7243*)
    → "That is all. You'll take the mission then?\u007F1\u0000\u0007"
     0x1B6D [0x23] WAIT_FOR_DIALOG_INTERACTION
     0x1B6E [0x52] END_LOAD_SCHEDULER: End scheduler "s092" with entities [EventEntity, EventEntity], work=90*
     0x1B7D [0x5E] EventEntity goes idle (kills current action) (animation: "idl0")
     0x1B82 [0x24] CREATE_DIALOG(message_id=8453*, default_option=0*, option_flags=0*)
    → "Accept mission?\u0007\u000BAccept.\u0007No, thanks.\u007F1\u0000\u0007"
     0x1B89 [0x25] WAIT_DIALOG_SELECT()
     0x1B8A [0x02] IF !(Work_Zone[0] == 0*) GOTO 0x1BD5
     0x1B92 [0x45] LOAD_SCHEDULED_TASK: Load scheduler "s095" with entities [EventEntity, EventEntity], work=[90*, 0*]
     0x1BA3 [0x66] LOAD_EXT_SCHEDULER_MAIN: Load scheduler "tlk0" with entities [EventEntity, EventEntity], work=20*
     0x1BB2 [0x1D] PRINT_EVENT_MESSAGE(message_id=7319*)
    → "Go to Chateau d'Oraguille. Monarlais Halver will tell you all you need to know.\u007F1\u0000\u0007"
     0x1BB5 [0x23] WAIT_FOR_DIALOG_INTERACTION
     0x1BB6 [0x5E] EventEntity goes idle (kills current action) (animation: "idl0")
     0x1BBB [0x1C] WAIT(30* ticks)
     0x1BBE [0x03] Work_Zone[1] = 12*
     0x1BC3 [0x52] END_LOAD_SCHEDULER: End scheduler "s095" with entities [EventEntity, EventEntity], work=90*
     0x1BD2 [0x01] GOTO 0x1BE5
     0x1BD5 [0x02] IF !(Work_Zone[0] == 1*) GOTO 0x1BE5
     0x1BDD [0x03] Work_Zone[1] = 1073741824*
     0x1BE2 [0x01] GOTO 0x1BE5
     0x1BE5 [0x45] LOAD_SCHEDULED_TASK: Load scheduler "fdo1" with entities [EventEntity, EventEntity], work=[200*, 0*]
     0x1BF6 [0x1C] WAIT(60* ticks)
     0x1BF9 [0x46] CAMERA_CONTROL: Restore default settings
     0x1BFB [0x45] LOAD_SCHEDULED_TASK: Load scheduler "fdi1" with entities [EventEntity, EventEntity], work=[200*, 0*]
     0x1C0C [0x21] END_EVENT
     0x1C0D [0x00] END_REQSTACK()
     0x1C0E [0x45] LOAD_SCHEDULED_TASK: Load scheduler "ovl1" with entities [LocalPlayer, LocalPlayer], work=[200*, 0*]
     0x1C1F [0x45] LOAD_SCHEDULED_TASK: Load scheduler "s092" with entities [EventEntity, EventEntity], work=[90*, 0*]
     0x1C30 [0x66] LOAD_EXT_SCHEDULER_MAIN: Load scheduler "tlk0" with entities [EventEntity, EventEntity], work=20*
     0x1C3F [0x1D] PRINT_EVENT_MESSAGE(message_id=7328*)
    → "There you are! I've been looking for you. Monarlais Halver requests your presence at the chateau immediately.\u007F1\u0000\u0007"
     0x1C42 [0x23] WAIT_FOR_DIALOG_INTERACTION
     0x1C43 [0x1D] PRINT_EVENT_MESSAGE(message_id=7329*)
    → "It sounds as if this is a fairly important mission. I need not remind you that you should take care to properly equip yourself before embarking on this journey.\u007F1\u0000\u0007"
     0x1C46 [0x23] WAIT_FOR_DIALOG_INTERACTION
     0x1C47 [0x24] CREATE_DIALOG(message_id=7233*, default_option=0*, option_flags=0*)
    → "Accept this mission?\u0007\u000BYes.\u0007No.\u007F1\u0000\u0007"
     0x1C4E [0x25] WAIT_DIALOG_SELECT()
     0x1C4F [0x02] IF !(Work_Zone[0] == 0*) GOTO 0x1C63
     0x1C57 [0x1D] PRINT_EVENT_MESSAGE(message_id=7330*)
    → "I'm not sure what it's about, but you'd best make haste. The monarlais is not to be kept waiting!\u007F1\u0000\u0007"
     0x1C5A [0x23] WAIT_FOR_DIALOG_INTERACTION
     0x1C5B [0x03] Work_Zone[1] = 14*
     0x1C60 [0x01] GOTO 0x1C73
     0x1C63 [0x02] IF !(Work_Zone[0] == 1*) GOTO 0x1C73
     0x1C6B [0x03] Work_Zone[1] = 1073741824*
     0x1C70 [0x01] GOTO 0x1C73
     0x1C73 [0x5E] EventEntity goes idle (kills current action) (animation: "idl0")
     0x1C78 [0x45] LOAD_SCHEDULED_TASK: Load scheduler "fdo1" with entities [EventEntity, EventEntity], work=[200*, 0*]
     0x1C89 [0x1C] WAIT(60* ticks)
     0x1C8C [0x52] END_LOAD_SCHEDULER: End scheduler "s092" with entities [EventEntity, EventEntity], work=90*
     0x1C9B [0x46] CAMERA_CONTROL: Restore default settings
     0x1C9D [0x45] LOAD_SCHEDULED_TASK: Load scheduler "fdi1" with entities [EventEntity, EventEntity], work=[200*, 0*]
     0x1CAE [0x21] END_EVENT
     0x1CAF [0x00] END_REQSTACK()
     0x1CB0 [0x45] LOAD_SCHEDULED_TASK: Load scheduler "ovl1" with entities [LocalPlayer, LocalPlayer], work=[200*, 0*]
     0x1CC1 [0x45] LOAD_SCHEDULED_TASK: Load scheduler "s020" with entities [LocalPlayer, LocalPlayer], work=[130*, 0*]
     0x1CD2 [0x27] REQ_SET(priority=0x64, entity_id=LocalPlayer, tag_num=0x19)
     0x1CD9 [0x66] LOAD_EXT_SCHEDULER_MAIN: Load scheduler "tlk0" with entities [EventEntity, EventEntity], work=20*
     0x1CE8 [0x1D] PRINT_EVENT_MESSAGE(message_id=7331*)
    → "Why, if it isn't \u0008! This is no time for loafing around, friend! Prince Trion is looking for you.\u007F1\u0000\u0007"
     0x1CEB [0x23] WAIT_FOR_DIALOG_INTERACTION
     0x1CEC [0x1D] PRINT_EVENT_MESSAGE(message_id=7332*)
    → "For this next mission, he's requested you personally. You should be honored!\u007F1\u0000\u0007"
     0x1CEF [0x23] WAIT_FOR_DIALOG_INTERACTION
     0x1CF0 [0x24] CREATE_DIALOG(message_id=7233*, default_option=0*, option_flags=0*)
    → "Accept this mission?\u0007\u000BYes.\u0007No.\u007F1\u0000\u0007"
     0x1CF7 [0x25] WAIT_DIALOG_SELECT()
     0x1CF8 [0x02] IF !(Work_Zone[0] == 0*) GOTO 0x1D0C
     0x1D00 [0x1D] PRINT_EVENT_MESSAGE(message_id=7333*)
    → "As for the details of the mission, I've no idea what he wants, but he was in a hurry. You'd best be off to Chateau d'Oraguille!\u007F1\u0000\u0007"
     0x1D03 [0x23] WAIT_FOR_DIALOG_INTERACTION
     0x1D04 [0x03] Work_Zone[1] = 15*
     0x1D09 [0x01] GOTO 0x1D1C
     0x1D0C [0x02] IF !(Work_Zone[0] == 1*) GOTO 0x1D1C
     0x1D14 [0x03] Work_Zone[1] = 1073741824*
     0x1D19 [0x01] GOTO 0x1D1C
     0x1D1C [0x5E] EventEntity goes idle (kills current action) (animation: "idl0")
     0x1D21 [0x45] LOAD_SCHEDULED_TASK: Load scheduler "fdo1" with entities [EventEntity, EventEntity], work=[200*, 0*]
     0x1D32 [0x1C] WAIT(60* ticks)
     0x1D35 [0x46] CAMERA_CONTROL: Restore default settings
     0x1D37 [0x45] LOAD_SCHEDULED_TASK: Load scheduler "fdi1" with entities [EventEntity, EventEntity], work=[200*, 0*]
     0x1D48 [0x21] END_EVENT
     0x1D49 [0x00] END_REQSTACK()
```