# Event 2021

## Metadata

| Field           | Value    |
|-----------------|----------|
| Event Index     | 57/97    |
| Offset          | 0x26FE   |
| Data Size       | 33 bytes |
| Calculated Size | 33 bytes |
| Instructions    | 12       |

```
      00 01 02 03 04 05 06 07  08 09 0A 0B 0C 0D 0E 0F
      -- -- -- -- -- -- -- --  -- -- -- -- -- -- -- --
26F0:                                            1E F0                ..
2700: FF FF 7F 6F 70 29 08 62  60 0E 01 12 1D AF 80 23  ...op).b`......#
2710: 1D B0 80 23 29 08 62 60  0E 01 13 20 00 21 00     ...#).b`... .!. 
```

## Opcodes

```
  0: 0x26FE [0x1E] EventEntity looks at LocalPlayer and starts talking
  1: 0x2703 [0x6F] WAIT_FRAME_DELAY: Yield until WaitTime reaches zero
  2: 0x2704 [0x70] WAIT_ENTITY_RENDER_FLAG: Wait while EventEntity->Render.Flags3 bit 2 is set (cancel turn if not)
  3: 0x2705 [0x29] REQ_SET_WAIT(priority=0x08, entity_id=Ambrotien (ID: 17719394/0x010E6062), tag_num=0x12)
  4: 0x270C [0x1D] PRINT_EVENT_MESSAGE(message_id=9223*)
    → "Visitors report missing gravestones and shadows twisting in the caverns. Scour the tomb and determine if they speak the truth.\u007F1\u0000\u0007"
  5: 0x270F [0x23] WAIT_FOR_DIALOG_INTERACTION
  6: 0x2710 [0x1D] PRINT_EVENT_MESSAGE(message_id=9224*)
    → "Make haste to King Ranperre's Tomb. You may find proof of grave-robbers there.\u007F1\u0000\u0007"
  7: 0x2713 [0x23] WAIT_FOR_DIALOG_INTERACTION
  8: 0x2714 [0x29] REQ_SET_WAIT(priority=0x08, entity_id=Ambrotien (ID: 17719394/0x010E6062), tag_num=0x13)
  9: 0x271B [0x20] SET_CLI_EVENT_UC_FLAG: Unlock player control
 10: 0x271D [0x21] END_EVENT
 11: 0x271E [0x00] END_REQSTACK()
```
