# Event 2025

## Metadata

| Field           | Value    |
|-----------------|----------|
| Event Index     | 70/97    |
| Offset          | 0x2A97   |
| Data Size       | 33 bytes |
| Calculated Size | 33 bytes |
| Instructions    | 12       |

```
      00 01 02 03 04 05 06 07  08 09 0A 0B 0C 0D 0E 0F
      -- -- -- -- -- -- -- --  -- -- -- -- -- -- -- --
2A90:                      1E  F0 FF FF 7F 6F 70 29 08         .....op).
2AA0: 62 60 0E 01 12 1D BD 80  23 1D BE 80 23 29 08 62  b`......#...#).b
2AB0: 60 0E 01 13 20 00 21 00                           `... .!.        
```

## Opcodes

```
  0: 0x2A97 [0x1E] EventEntity looks at LocalPlayer and starts talking
  1: 0x2A9C [0x6F] WAIT_FRAME_DELAY: Yield until WaitTime reaches zero
  2: 0x2A9D [0x70] WAIT_ENTITY_RENDER_FLAG: Wait while EventEntity->Render.Flags3 bit 2 is set (cancel turn if not)
  3: 0x2A9E [0x29] REQ_SET_WAIT(priority=0x08, entity_id=Ambrotien (ID: 17719394/0x010E6062), tag_num=0x12)
  4: 0x2AA5 [0x1D] PRINT_EVENT_MESSAGE(message_id=9237*)
    → "A boy training to be a friar went near Ghelsba and did not return. His name was Tedimout.\u007F1\u0000\u0007"
  5: 0x2AA8 [0x23] WAIT_FOR_DIALOG_INTERACTION
  6: 0x2AA9 [0x1D] PRINT_EVENT_MESSAGE(message_id=9238*)
    → "The Temple Knights may be mobilized soon. You must visit the cathedral and ask what this boy looks like.\u007F1\u0000\u0007"
  7: 0x2AAC [0x23] WAIT_FOR_DIALOG_INTERACTION
  8: 0x2AAD [0x29] REQ_SET_WAIT(priority=0x08, entity_id=Ambrotien (ID: 17719394/0x010E6062), tag_num=0x13)
  9: 0x2AB4 [0x20] SET_CLI_EVENT_UC_FLAG: Unlock player control
 10: 0x2AB6 [0x21] END_EVENT
 11: 0x2AB7 [0x00] END_REQSTACK()
```
