# Event 2028

## Metadata

| Field           | Value    |
|-----------------|----------|
| Event Index     | 78/97    |
| Offset          | 0x2D2D   |
| Data Size       | 33 bytes |
| Calculated Size | 33 bytes |
| Instructions    | 12       |

```
      00 01 02 03 04 05 06 07  08 09 0A 0B 0C 0D 0E 0F
      -- -- -- -- -- -- -- --  -- -- -- -- -- -- -- --
2D20:                                         1E F0 FF               ...
2D30: FF 7F 6F 70 29 08 62 60  0E 01 12 1D C5 80 23 1D  ..op).b`......#.
2D40: C6 80 23 29 08 62 60 0E  01 13 20 00 21 00        ..#).b`... .!.  
```

## Opcodes

```
  0: 0x2D2D [0x1E] EventEntity looks at LocalPlayer and starts talking
  1: 0x2D32 [0x6F] WAIT_FRAME_DELAY: Yield until WaitTime reaches zero
  2: 0x2D33 [0x70] WAIT_ENTITY_RENDER_FLAG: Wait while EventEntity->Render.Flags3 bit 2 is set (cancel turn if not)
  3: 0x2D34 [0x29] REQ_SET_WAIT(priority=0x08, entity_id=Ambrotien (ID: 17719394/0x010E6062), tag_num=0x12)
  4: 0x2D3B [0x1D] PRINT_EVENT_MESSAGE(message_id=9249*)
    → "What? You were told to hand the \u0001\u00053\u0002\u0003\u0000\u0000 to Prince Pieuje personally?\u007F1\u0000\u0007"
  5: 0x2D3E [0x23] WAIT_FOR_DIALOG_INTERACTION
  6: 0x2D3F [0x1D] PRINT_EVENT_MESSAGE(message_id=9250*)
    → "Well, you should find His Highness in the cathedral.\u007F1\u0000\u0007"
  7: 0x2D42 [0x23] WAIT_FOR_DIALOG_INTERACTION
  8: 0x2D43 [0x29] REQ_SET_WAIT(priority=0x08, entity_id=Ambrotien (ID: 17719394/0x010E6062), tag_num=0x13)
  9: 0x2D4A [0x20] SET_CLI_EVENT_UC_FLAG: Unlock player control
 10: 0x2D4C [0x21] END_EVENT
 11: 0x2D4D [0x00] END_REQSTACK()
```
