# Event 65535

## Metadata

| Field           | Value    |
|-----------------|----------|
| Event Index     | 15/20    |
| Offset          | 0x01B9   |
| Data Size       | 57 bytes |
| Calculated Size | 57 bytes |
| Instructions    | 7        |

```
      00 01 02 03 04 05 06 07  08 09 0A 0B 0C 0D 0E 0F
      -- -- -- -- -- -- -- --  -- -- -- -- -- -- -- --
01B0:                             81 00 F8 FF FF 7F 7C           ......|
01C0: 00 F8 FF FF 7F 5F 05 19  80 F8 FF FF 7F F8 FF FF  ....._..........
01D0: 7F 79 67 6F 30 1A 80 5F  07 F8 FF FF 7F F8 FF FF  .ygo0.._........
01E0: 7F 79 67 6F 30 81 01 F8  FF FF 7F 7C 01 F8 FF FF  .ygo0......|....
01F0: 7F 00                                             ..              
```

## Opcodes

```
  0: 0x01B9 [0x81] SET_ENTITY_BLINKING(blink_flag=0x00, entity=EventEntity)
  1: 0x01BF [0x7C] EventEntity->Render.Flags2 |= 0x00
  2: 0x01C5 [0x5F] MULTI_HANDLER_COMPLEX(mode=0x05 - Load ext scheduler with flag (OpCode 0x5B mode 0, flag 1), ref=2049*, entity1=EventEntity, entity2=EventEntity, string="ygo0", extra=176*)
  3: 0x01D7 [0x5F] MULTI_HANDLER_COMPLEX(mode=0x07 - Wait scheduler task (OpCode 0x53))
  4: 0x01E5 [0x81] SET_ENTITY_BLINKING(blink_flag=0x01, entity=EventEntity)
  5: 0x01EB [0x7C] EventEntity->Render.Flags2 |= 0x01
  6: 0x01F1 [0x00] END_REQSTACK()
```
