# Event 65535

## Metadata

| Field           | Value    |
|-----------------|----------|
| Event Index     | 25/63    |
| Offset          | 0x0199   |
| Data Size       | 58 bytes |
| Calculated Size | 58 bytes |
| Instructions    | 14       |

```
      00 01 02 03 04 05 06 07  08 09 0A 0B 0C 0D 0E 0F
      -- -- -- -- -- -- -- --  -- -- -- -- -- -- -- --
0190:                             1C 2D 80 1C 2E 80 6E           .-....n
01A0: 0E 03 05 01 2F 80 99 0E  03 05 01 1C 0E 80 6E 12  ..../.........n.
01B0: 03 05 01 2F 80 99 12 03  05 01 1C 30 80 1C 31 80  .../.......0..1.
01C0: 6E 18 03 05 01 32 80 99  18 03 05 01 1C 33 80 1C  n....2.......3..
01D0: 2D 80 00                                          -..             
```

## Opcodes

```
  0: 0x0199 [0x1C] WAIT(180* ticks)
  1: 0x019C [0x1C] WAIT(30* ticks)
  2: 0x019F [0x6E] Leonoyne (ID: 17105678/0x0105030E) uses emote 7*
  3: 0x01A6 [0x99] Wait for Leonoyne (ID: 17105678/0x0105030E) animation to complete
  4: 0x01AB [0x1C] WAIT(60* ticks)
  5: 0x01AE [0x6E] Febrenard C Brunnaut (ID: 17105682/0x01050312) uses emote 7*
  6: 0x01B5 [0x99] Wait for Febrenard C Brunnaut (ID: 17105682/0x01050312) animation to complete
  7: 0x01BA [0x1C] WAIT(90* ticks)
  8: 0x01BD [0x1C] WAIT(80* ticks)
  9: 0x01C0 [0x6E] 04 (ID: 17105688/0x01050318) uses emote 36*
 10: 0x01C7 [0x99] Wait for 04 (ID: 17105688/0x01050318) animation to complete
 11: 0x01CC [0x1C] WAIT(100* ticks)
 12: 0x01CF [0x1C] WAIT(180* ticks)
 13: 0x01D2 [0x00] END_REQSTACK()
```
