# 17629752 - Goblin Geologist

## Common Data

| Field            | Value                     |
|------------------|---------------------------|
| Zone             | Quicksand Caves (ID: 208) |
| Block Size       | 1844 bytes                |
| Total Events     | 3                         |
| References Count | 85                        |

## List of Events

| Event ID              | Entrypoint   |   Size |   Instructions |
|-----------------------|--------------|--------|----------------|
| [65535](#event-65535) | 0x0000       |      1 |              1 |
| [100](#event-100)     | 0x0001       |    159 |             52 |
| [102](#event-102)     | 0x00A0       |   1314 |            163 |

## DAT References (imed_data)

|   Index | Hex Value   |   Dec Value |
|---------|-------------|-------------|
|       0 | 0x0000      |           0 |
|       1 | 0x1CEF      |        7407 |
|       2 | 0x1CF0      |        7408 |
|       3 | 0x1CF1      |        7409 |
|       4 | 0x0486      |        1158 |
|       5 | 0x1CF2      |        7410 |
|       6 | 0x1CF3      |        7411 |
|       7 | 0x01A9      |         425 |
|       8 | 0x0001      |           1 |
|       9 | 0x1CF4      |        7412 |
|      10 | 0x1CF5      |        7413 |
|      11 | 0x1CF6      |        7414 |
|      12 | 0x1CF7      |        7415 |
|      13 | 0x1CF8      |        7416 |
|      14 | 0x1CF9      |        7417 |
|      15 | 0x000B      |          11 |
|      16 | 0x1CFB      |        7419 |
|      17 | 0x0002      |           2 |
|      18 | 0x0003      |           3 |
|      19 | 0x0004      |           4 |
|      20 | 0x0005      |           5 |
|      21 | 0x0006      |           6 |
|      22 | 0x0007      |           7 |
|      23 | 0x0008      |           8 |
|      24 | 0x0009      |           9 |
|      25 | 0x000A      |          10 |
|      26 | 0x000C      |          12 |
|      27 | 0xE1269     |      922217 |
|      28 | 0x1CA96     |      117398 |
|      29 | 0xC2571     |      796017 |
|      30 | 0x381CE     |      229838 |
|      31 | 0x86E25     |      552485 |
|      32 | 0x710DA     |      463066 |
|      33 | 0xE729      |       59177 |
|      34 | 0xA9856     |      694358 |
|      35 | 0x543A5     |      344997 |
|      36 | 0x93C1A     |      605210 |
|      37 | 0x00D0      |         208 |
|      38 | 0xFFFABC58  |  4294622296 |
|      39 | 0xC9A90     |      826000 |
|      40 | 0x128E0     |       76000 |
|      41 | 0xFFFF9688  |  4294940296 |
|      42 | 0x42680     |      272000 |
|      43 | 0x5DC0      |       24000 |
|      44 | 0x18A88     |      101000 |
|      45 | 0xFFFE7960  |  4294867296 |
|      46 | 0xFFFFADF8  |  4294946296 |
|      47 | 0xFFFFB9B0  |  4294949296 |
|      48 | 0xFFFF15A0  |  4294907296 |
|      49 | 0xFFFD6BD8  |  4294798296 |
|      50 | 0xFFFD3CF8  |  4294786296 |
|      51 | 0xFFFE5E08  |  4294860296 |
|      52 | 0xFFFCC7C8  |  4294756296 |
|      53 | 0xFFFE0818  |  4294838296 |
|      54 | 0xFFFE5A20  |  4294859296 |
|      55 | 0xFFFD67F0  |  4294797296 |
|      56 | 0xFFFDD550  |  4294825296 |
|      57 | 0xFFFBDD68  |  4294696296 |
|      58 | 0xFFFF0218  |  4294902296 |
|      59 | 0xFFFBE150  |  4294697296 |
|      60 | 0xC7380     |      816000 |
|      61 | 0xFFF75540  |  4294399296 |
|      62 | 0x000D      |          13 |
|      63 | 0x9A0D8     |      631000 |
|      64 | 0xFFF99B48  |  4294548296 |
|      65 | 0x000E      |          14 |
|      66 | 0xD2730     |      862000 |
|      67 | 0xFFF9AAE8  |  4294552296 |
|      68 | 0x000F      |          15 |
|      69 | 0x95A88     |      613000 |
|      70 | 0xFFF7CE58  |  4294430296 |
|      71 | 0x0010      |          16 |
|      72 | 0xBBFD0     |      770000 |
|      73 | 0xFFF5CEA0  |  4294299296 |
|      74 | 0x85CA0     |      548000 |
|      75 | 0xFFF190B0  |  4294021296 |
|      76 | 0x0011      |          17 |
|      77 | 0x900B0     |      590000 |
|      78 | 0xFFF5E228  |  4294304296 |
|      79 | 0x0012      |          18 |
|      80 | 0x78D98     |      495000 |
|      81 | 0xFFF34630  |  4294133296 |
|      82 | 0x0013      |          19 |
|      83 | 0xBE6E0     |      780000 |
|      84 | 0xFFF48E50  |  4294217296 |

## String References

- **7407**: Hmm? Searching for the entrance to a hideout most heinous, you say?
- **7408**: Oh ho! How astute of you to turn to me. I am, after all, the foremost researcher of these Quicksand Caves in the area.
- **7409**: ...Well, the only researcher, actually. But who's quibbling about details? Anyhow, you'll be pleased to know that I uncovered a promising passage not too long ago!
- **7410**: But here's the rub: those hoodlums are smarter than they look. They've locked the door, and not only have they thrown away the key--the $3, they call it--they've blasted it into nine pieces.
- **7411**: The upshot of this, of course, is that if you can find the nine stones and reconstruct the talisman, there'll be nothing stopping you from waltzing right in to their den of depravity.
- **7412**: But let me guess. You're thinking, "But where I going to find nine tiny gems in this cavernous lair?" Oh ho! How soon you forget that you're speaking to the world's foremost Quicksand Caves spelunker!
- **7413**: I've got the locations of each and every stone right up here in my noggin', and I can mark them on your map--voila!--just like so. Bring all nine gems back here and I'll patch up the key for you as good as new.
- **7414**: What's this? You don't have a $3? You're not seriously expecting to navigate these confounding caves without a map, are you? Come back when you have one, then we'll talk!
- **7415**: Oh ho...found all the stones, have we? Excellent! You may very well have stamped yourself as the world's second-leading expert on these Quicksand Caves.
- **7416**: Now let's see here... The Shukra stone's connected to the...Chandra stone!t The Rahu stone's connected to the...Shani stone!t Da-da...da-daaa-da-da-dat
- **7417**: There you have it! One talisman, good as new.
- **7419**: $3f$3o$3b$3O%p [b_i/$3p$3^$1T/$3p$3^$2T/$3p$3^$3T/$3p$3^$4T/$3p$3^$5T/$3p$3^$6T/$3p$3^$7T/$3p$3^$8T/$3p$3^$9T/$3p$3^$0T/$3I$3t$3@$7540556$P11TI/$3}[$3J[$3N$3$3A]

## Events

### Event 65535

#### Metadata

| Field        | Value   |
|--------------|---------|
| Entrypoint   | 0x0000  |
| Data Size    | 1 bytes |
| Instructions | 1       |

```
      00 01 02 03 04 05 06 07  08 09 0A 0B 0C 0D 0E 0F
      -- -- -- -- -- -- -- --  -- -- -- -- -- -- -- --
0000: 00                                                .               
```

#### Opcodes

```
  0: 0x0000 [0x00] END_REQSTACK()
```

### Event 100

#### Metadata

| Field        | Value     |
|--------------|-----------|
| Entrypoint   | 0x0001    |
| Data Size    | 159 bytes |
| Instructions | 52        |

```
      00 01 02 03 04 05 06 07  08 09 0A 0B 0C 0D 0E 0F
      -- -- -- -- -- -- -- --  -- -- -- -- -- -- -- --
0000:    20 01 42 1E F0 FF FF  7F 03 01 10 00 80 03 00    .B............
0010: 00 02 10 03 01 00 03 10  03 02 00 04 10 02 00 00  ................
0020: 00 80 00 6E 00 1D 01 80  23 1D 02 80 23 1D 03 80  ...n....#...#...
0030: 23 03 02 10 04 80 1D 05  80 23 1D 06 80 23 03 02  #........#...#..
0040: 10 07 80 02 01 00 08 80  00 61 00 1D 09 80 23 1D  .........a....#.
0050: 0A 80 23 03 01 10 02 00  1A 21 05 1A 7E 01 01 6B  ..#......!..~..k
0060: 00 1D 0B 80 23 03 01 10  00 80 21 01 9C 00 02 00  ....#.....!.....
0070: 00 08 80 00 8D 00 1D 0C  80 23 1D 0D 80 23 1D 0E  .........#...#..
0080: 80 23 03 01 10 0F 80 1A  21 05 01 9C 00 1D 0A 80  .#......!.......
0090: 23 03 01 10 00 80 1A 21  05 1A 7E 01 20 00 21 00  #......!..~. .!.
```

#### Opcodes

```
  0: 0x0001 [0x20] SET_CLI_EVENT_UC_FLAG: Lock player control
  1: 0x0003 [0x42] SET_CLI_EVENT_CANCEL_DATA()
  2: 0x0004 [0x1E] EventEntity looks at LocalPlayer and starts talking
  3: 0x0009 [0x03] Work_Zone[1] = 0*
  4: 0x000E [0x03] ExtData[1]->WorkLocal[0] = Work_Zone[2]
  5: 0x0013 [0x03] ExtData[1]->WorkLocal[1] = Work_Zone[3]
  6: 0x0018 [0x03] ExtData[1]->WorkLocal[2] = Work_Zone[4]
  7: 0x001D [0x02] IF !(ExtData[1]->WorkLocal[0] == 0*) GOTO 0x006E
  8: 0x0025 [0x1D] PRINT_EVENT_MESSAGE(message_id=7407*)
    → "Hmm? Searching for the entrance to a hideout most heinous, you say?"
  9: 0x0028 [0x23] WAIT_FOR_DIALOG_INTERACTION
 10: 0x0029 [0x1D] PRINT_EVENT_MESSAGE(message_id=7408*)
    → "Oh ho! How astute of you to turn to me. I am, after all, the foremost researcher of these Quicksand Caves in the area."
 11: 0x002C [0x23] WAIT_FOR_DIALOG_INTERACTION
 12: 0x002D [0x1D] PRINT_EVENT_MESSAGE(message_id=7409*)
    → "...Well, the only researcher, actually. But who's quibbling about details? Anyhow, you'll be pleased to know that I uncovered a promising passage not too long ago!"
 13: 0x0030 [0x23] WAIT_FOR_DIALOG_INTERACTION
 14: 0x0031 [0x03] Work_Zone[2] = 1158*
 15: 0x0036 [0x1D] PRINT_EVENT_MESSAGE(message_id=7410*)
    → "But here's the rub: those hoodlums are smarter than they look. They've locked the door, and not only have they thrown away the key--the $3, they call it--they've blasted it into nine pieces."
 16: 0x0039 [0x23] WAIT_FOR_DIALOG_INTERACTION
 17: 0x003A [0x1D] PRINT_EVENT_MESSAGE(message_id=7411*)
    → "The upshot of this, of course, is that if you can find the nine stones and reconstruct the talisman, there'll be nothing stopping you from waltzing right in to their den of depravity."
 18: 0x003D [0x23] WAIT_FOR_DIALOG_INTERACTION
 19: 0x003E [0x03] Work_Zone[2] = 425*
 20: 0x0043 [0x02] IF !(ExtData[1]->WorkLocal[1] == 1*) GOTO 0x0061
 21: 0x004B [0x1D] PRINT_EVENT_MESSAGE(message_id=7412*)
    → "But let me guess. You're thinking, "But where I going to find nine tiny gems in this cavernous lair?" Oh ho! How soon you forget that you're speaking to the world's foremost Quicksand Caves spelunker!"
 22: 0x004E [0x23] WAIT_FOR_DIALOG_INTERACTION
 23: 0x004F [0x1D] PRINT_EVENT_MESSAGE(message_id=7413*)
    → "I've got the locations of each and every stone right up here in my noggin', and I can mark them on your map--voila!--just like so. Bring all nine gems back here and I'll patch up the key for you as good as new."
 24: 0x0052 [0x23] WAIT_FOR_DIALOG_INTERACTION
 25: 0x0053 [0x03] Work_Zone[1] = ExtData[1]->WorkLocal[2]
 26: 0x0058 [0x1A] CALL_SUBROUTINE(address=0x0521)
 27: 0x005B [0x1A] CALL_SUBROUTINE(address=0x017E)
 28: 0x005E [0x01] GOTO 0x006B
 29: 0x0061 [0x1D] PRINT_EVENT_MESSAGE(message_id=7414*)
    → "What's this? You don't have a $3? You're not seriously expecting to navigate these confounding caves without a map, are you? Come back when you have one, then we'll talk!"
 30: 0x0064 [0x23] WAIT_FOR_DIALOG_INTERACTION
 31: 0x0065 [0x03] Work_Zone[1] = 0*
 32: 0x006A [0x21] END_EVENT

SUBROUTINE_006B:
 33: 0x006B [0x01] GOTO 0x009C
 34: 0x006E [0x02] IF !(ExtData[1]->WorkLocal[0] == 1*) GOTO 0x008D
 35: 0x0076 [0x1D] PRINT_EVENT_MESSAGE(message_id=7415*)
    → "Oh ho...found all the stones, have we? Excellent! You may very well have stamped yourself as the world's second-leading expert on these Quicksand Caves."
 36: 0x0079 [0x23] WAIT_FOR_DIALOG_INTERACTION
 37: 0x007A [0x1D] PRINT_EVENT_MESSAGE(message_id=7416*)
    → "Now let's see here... The Shukra stone's connected to the...Chandra stone!t The Rahu stone's connected to the...Shani stone!t Da-da...da-daaa-da-da-dat"
 38: 0x007D [0x23] WAIT_FOR_DIALOG_INTERACTION
 39: 0x007E [0x1D] PRINT_EVENT_MESSAGE(message_id=7417*)
    → "There you have it! One talisman, good as new."
 40: 0x0081 [0x23] WAIT_FOR_DIALOG_INTERACTION
 41: 0x0082 [0x03] Work_Zone[1] = 11*
 42: 0x0087 [0x1A] CALL_SUBROUTINE(address=0x0521)
 43: 0x008A [0x01] GOTO 0x009C
 44: 0x008D [0x1D] PRINT_EVENT_MESSAGE(message_id=7413*)
    → "I've got the locations of each and every stone right up here in my noggin', and I can mark them on your map--voila!--just like so. Bring all nine gems back here and I'll patch up the key for you as good as new."
 45: 0x0090 [0x23] WAIT_FOR_DIALOG_INTERACTION
 46: 0x0091 [0x03] Work_Zone[1] = 0*
 47: 0x0096 [0x1A] CALL_SUBROUTINE(address=0x0521)
 48: 0x0099 [0x1A] CALL_SUBROUTINE(address=0x017E)

SUBROUTINE_009C:
 49: 0x009C [0x20] SET_CLI_EVENT_UC_FLAG: Unlock player control
 50: 0x009E [0x21] END_EVENT
 51: 0x009F [0x00] END_REQSTACK()
```

### Event 102

#### Metadata

| Field        | Value      |
|--------------|------------|
| Entrypoint   | 0x00A0     |
| Data Size    | 1314 bytes |
| Instructions | 28         |

```
      00 01 02 03 04 05 06 07  08 09 0A 0B 0C 0D 0E 0F
      -- -- -- -- -- -- -- --  -- -- -- -- -- -- -- --
00A0: 24 10 80 00 80 00 80 25  02 00 10 00 80 00 B9 00  $......%........
00B0: 03 01 10 00 80 21 01 7C  01 02 00 10 08 80 00 C9  .....!.|........
00C0: 00 03 01 10 08 80 01 7C  01 02 00 10 11 80 00 D9  .......|........
00D0: 00 03 01 10 11 80 01 7C  01 02 00 10 12 80 00 E9  .......|........
00E0: 00 03 01 10 12 80 01 7C  01 02 00 10 13 80 00 F9  .......|........
00F0: 00 03 01 10 13 80 01 7C  01 02 00 10 14 80 00 09  .......|........
0100: 01 03 01 10 14 80 01 7C  01 02 00 10 15 80 00 19  .......|........
0110: 01 03 01 10 15 80 01 7C  01 02 00 10 16 80 00 29  .......|.......)
0120: 01 03 01 10 16 80 01 7C  01 02 00 10 17 80 00 39  .......|.......9
0130: 01 03 01 10 17 80 01 7C  01 02 00 10 18 80 00 49  .......|.......I
0140: 01 03 01 10 18 80 01 7C  01 02 00 10 19 80 00 59  .......|.......Y
0150: 01 03 01 10 19 80 01 7C  01 02 00 10 0F 80 00 69  .......|.......i
0160: 01 03 01 10 0F 80 01 7C  01 02 00 10 1A 80 00 7C  .......|.......|
0170: 01 1A 21 05 03 01 10 00  80 01 7C 01 21 00 02 02  ..!.......|.!...
0180: 00 08 80 80 8E 01 03 03  00 1B 80 01 1E 02 02 02  ................
0190: 00 11 80 80 9E 01 03 03  00 1C 80 01 1E 02 02 02  ................
01A0: 00 12 80 80 AE 01 03 03  00 1D 80 01 1E 02 02 02  ................
01B0: 00 13 80 80 BE 01 03 03  00 1E 80 01 1E 02 02 02  ................
01C0: 00 14 80 80 CE 01 03 03  00 1F 80 01 1E 02 02 02  ................
01D0: 00 15 80 80 DE 01 03 03  00 20 80 01 1E 02 02 02  ......... ......
01E0: 00 16 80 80 EE 01 03 03  00 21 80 01 1E 02 02 02  .........!......
01F0: 00 17 80 80 FE 01 03 03  00 22 80 01 1E 02 02 02  ........."......
0200: 00 18 80 80 0E 02 03 03  00 23 80 01 1E 02 02 02  .........#......
0210: 00 19 80 80 1E 02 03 03  00 24 80 01 1E 02 03 04  .........$......
0220: 00 00 80 3E 03 00 00 80  48 02 B8 25 80 14 80 04  ...>....H..%....
0230: 00 26 80 27 80 3F 3F 3F  00 00 00 00 00 00 00 00  .&.'.???........
0240: 00 00 00 00 00 0B 04 00  03 04 00 00 80 03 04 00  ................
0250: 00 80 3E 03 00 08 80 77  02 B8 25 80 12 80 04 00  ..>....w..%.....
0260: 28 80 29 80 3F 3F 3F 00  00 00 00 00 00 00 00 00  (.).???.........
0270: 00 00 00 00 0B 04 00 3E  03 00 15 80 9C 02 B8 25  .......>.......%
0280: 80 12 80 04 00 2A 80 2B  80 3F 3F 3F 00 00 00 00  .....*.+.???....
0290: 00 00 00 00 00 00 00 00  00 0B 04 00 3E 03 00 16  ............>...
02A0: 80 C1 02 B8 25 80 12 80  04 00 2C 80 2D 80 3F 3F  ....%.....,.-.??
02B0: 3F 00 00 00 00 00 00 00  00 00 00 00 00 00 0B 04  ?...............
02C0: 00 3E 03 00 17 80 E6 02  B8 25 80 12 80 04 00 2E  .>.......%......
02D0: 80 2F 80 3F 3F 3F 00 00  00 00 00 00 00 00 00 00  ./.???..........
02E0: 00 00 00 0B 04 00 03 04  00 00 80 3E 03 00 11 80  ...........>....
02F0: 10 03 B8 25 80 17 80 04  00 30 80 31 80 3F 3F 3F  ...%.....0.1.???
0300: 00 00 00 00 00 00 00 00  00 00 00 00 00 0B 04 00  ................
0310: 3E 03 00 12 80 35 03 B8  25 80 17 80 04 00 32 80  >....5..%.....2.
0320: 33 80 3F 3F 3F 00 00 00  00 00 00 00 00 00 00 00  3.???...........
0330: 00 00 0B 04 00 3E 03 00  18 80 5A 03 B8 25 80 17  .....>....Z..%..
0340: 80 04 00 34 80 35 80 3F  3F 3F 00 00 00 00 00 00  ...4.5.???......
0350: 00 00 00 00 00 00 00 0B  04 00 3E 03 00 19 80 7F  ..........>.....
0360: 03 B8 25 80 17 80 04 00  36 80 37 80 3F 3F 3F 00  ..%.....6.7.???.
0370: 00 00 00 00 00 00 00 00  00 00 00 00 0B 04 00 3E  ...............>
0380: 03 00 0F 80 A4 03 B8 25  80 17 80 04 00 38 80 39  .......%.....8.9
0390: 80 3F 3F 3F 00 00 00 00  00 00 00 00 00 00 00 00  .???............
03A0: 00 0B 04 00 3E 03 00 1A  80 C9 03 B8 25 80 17 80  ....>.......%...
03B0: 04 00 3A 80 3B 80 3F 3F  3F 00 00 00 00 00 00 00  ..:.;.???.......
03C0: 00 00 00 00 00 00 0B 04  00 03 04 00 00 80 3E 03  ..............>.
03D0: 00 13 80 F3 03 B8 25 80  08 80 04 00 3C 80 3D 80  ......%.....<.=.
03E0: 3F 3F 3F 00 00 00 00 00  00 00 00 00 00 00 00 00  ???.............
03F0: 0B 04 00 3E 03 00 3E 80  18 04 B8 25 80 08 80 04  ...>..>....%....
0400: 00 3F 80 40 80 3F 3F 3F  00 00 00 00 00 00 00 00  .?.@.???........
0410: 00 00 00 00 00 0B 04 00  3E 03 00 41 80 3D 04 B8  ........>..A.=..
0420: 25 80 08 80 04 00 42 80  43 80 3F 3F 3F 00 00 00  %.....B.C.???...
0430: 00 00 00 00 00 00 00 00  00 00 0B 04 00 3E 03 00  .............>..
0440: 44 80 62 04 B8 25 80 08  80 04 00 45 80 46 80 3F  D.b..%.....E.F.?
0450: 3F 3F 00 00 00 00 00 00  00 00 00 00 00 00 00 0B  ??..............
0460: 04 00 3E 03 00 47 80 87  04 B8 25 80 08 80 04 00  ..>..G....%.....
0470: 48 80 49 80 3F 3F 3F 00  00 00 00 00 00 00 00 00  H.I.???.........
0480: 00 00 00 00 0B 04 00 03  04 00 00 80 3E 03 00 14  ............>...
0490: 80 B1 04 B8 25 80 11 80  04 00 4A 80 4B 80 3F 3F  ....%.....J.K.??
04A0: 3F 00 00 00 00 00 00 00  00 00 00 00 00 00 0B 04  ?...............
04B0: 00 3E 03 00 4C 80 D6 04  B8 25 80 11 80 04 00 4D  .>..L....%.....M
04C0: 80 4E 80 3F 3F 3F 00 00  00 00 00 00 00 00 00 00  .N.???..........
04D0: 00 00 00 0B 04 00 3E 03  00 4F 80 FB 04 B8 25 80  ......>..O....%.
04E0: 11 80 04 00 50 80 51 80  3F 3F 3F 00 00 00 00 00  ....P.Q.???.....
04F0: 00 00 00 00 00 00 00 00  0B 04 00 3E 03 00 52 80  ...........>..R.
0500: 20 05 B8 25 80 11 80 04  00 53 80 54 80 3F 3F 3F   ..%.....S.T.???
0510: 00 00 00 00 00 00 00 00  00 00 00 00 00 0B 04 00  ................
0520: 1B B9 00 25 80 14 80 00  80 B9 00 25 80 12 80 00  ...%.......%....
0530: 80 B9 00 25 80 12 80 08  80 B9 00 25 80 12 80 11  ...%.......%....
0540: 80 B9 00 25 80 12 80 12  80 B9 00 25 80 17 80 00  ...%.......%....
0550: 80 B9 00 25 80 17 80 08  80 B9 00 25 80 17 80 11  ...%.......%....
0560: 80 B9 00 25 80 17 80 12  80 B9 00 25 80 17 80 13  ...%.......%....
0570: 80 B9 00 25 80 17 80 14  80 B9 00 25 80 08 80 00  ...%.......%....
0580: 80 B9 00 25 80 08 80 08  80 B9 00 25 80 08 80 11  ...%.......%....
0590: 80 B9 00 25 80 08 80 12  80 B9 00 25 80 08 80 13  ...%.......%....
05A0: 80 B9 00 25 80 11 80 00  80 B9 00 25 80 11 80 08  ...%.......%....
05B0: 80 B9 00 25 80 11 80 11  80 B9 00 25 80 11 80 12  ...%.......%....
05C0: 80 1B                                             ..              
```

#### Opcodes

```
  0: 0x00A0 [0x24] CREATE_DIALOG(message_id=7419*, default_option=0*, option_flags=0*)
    → "$3f$3o$3b$3O%p [b_i/$3p$3^$1T/$3p$3^$2T/$3p$3^$3T/$3p$3^$4T/$3p$3^$5T/$3p$3^$6T/$3p$3^$7T/$3p$3^$8T/$3p$3^$9T/$3p$3^$0T/$3I$3t$3@$7540556$P11TI/$3}[$3J[$3N$3$3A]"
  1: 0x00A7 [0x25] WAIT_DIALOG_SELECT()
  2: 0x00A8 [0x02] IF !(Work_Zone[0] == 0*) GOTO 0x00B9
  3: 0x00B0 [0x03] Work_Zone[1] = 0*
  4: 0x00B5 [0x21] END_EVENT

SUBROUTINE_017C:
  5: 0x017C [0x21] END_EVENT
  6: 0x017D [0x00] END_REQSTACK()

SUBROUTINE_0521:
  7: 0x0521 [0xB9] MAP_EDIT_MARKER_FROM_BUFFER(map_flag=0x00 (Open/close map), zone=208*, submap=5*, marker_id=0*)
  8: 0x0529 [0xB9] MAP_EDIT_MARKER_FROM_BUFFER(map_flag=0x00 (Open/close map), zone=208*, submap=3*, marker_id=0*)
  9: 0x0531 [0xB9] MAP_EDIT_MARKER_FROM_BUFFER(map_flag=0x00 (Open/close map), zone=208*, submap=3*, marker_id=1*)
 10: 0x0539 [0xB9] MAP_EDIT_MARKER_FROM_BUFFER(map_flag=0x00 (Open/close map), zone=208*, submap=3*, marker_id=2*)
 11: 0x0541 [0xB9] MAP_EDIT_MARKER_FROM_BUFFER(map_flag=0x00 (Open/close map), zone=208*, submap=3*, marker_id=3*)
 12: 0x0549 [0xB9] MAP_EDIT_MARKER_FROM_BUFFER(map_flag=0x00 (Open/close map), zone=208*, submap=8*, marker_id=0*)
 13: 0x0551 [0xB9] MAP_EDIT_MARKER_FROM_BUFFER(map_flag=0x00 (Open/close map), zone=208*, submap=8*, marker_id=1*)
 14: 0x0559 [0xB9] MAP_EDIT_MARKER_FROM_BUFFER(map_flag=0x00 (Open/close map), zone=208*, submap=8*, marker_id=2*)
 15: 0x0561 [0xB9] MAP_EDIT_MARKER_FROM_BUFFER(map_flag=0x00 (Open/close map), zone=208*, submap=8*, marker_id=3*)
 16: 0x0569 [0xB9] MAP_EDIT_MARKER_FROM_BUFFER(map_flag=0x00 (Open/close map), zone=208*, submap=8*, marker_id=4*)
 17: 0x0571 [0xB9] MAP_EDIT_MARKER_FROM_BUFFER(map_flag=0x00 (Open/close map), zone=208*, submap=8*, marker_id=5*)
 18: 0x0579 [0xB9] MAP_EDIT_MARKER_FROM_BUFFER(map_flag=0x00 (Open/close map), zone=208*, submap=1*, marker_id=0*)
 19: 0x0581 [0xB9] MAP_EDIT_MARKER_FROM_BUFFER(map_flag=0x00 (Open/close map), zone=208*, submap=1*, marker_id=1*)
 20: 0x0589 [0xB9] MAP_EDIT_MARKER_FROM_BUFFER(map_flag=0x00 (Open/close map), zone=208*, submap=1*, marker_id=2*)
 21: 0x0591 [0xB9] MAP_EDIT_MARKER_FROM_BUFFER(map_flag=0x00 (Open/close map), zone=208*, submap=1*, marker_id=3*)
 22: 0x0599 [0xB9] MAP_EDIT_MARKER_FROM_BUFFER(map_flag=0x00 (Open/close map), zone=208*, submap=1*, marker_id=4*)
 23: 0x05A1 [0xB9] MAP_EDIT_MARKER_FROM_BUFFER(map_flag=0x00 (Open/close map), zone=208*, submap=2*, marker_id=0*)
 24: 0x05A9 [0xB9] MAP_EDIT_MARKER_FROM_BUFFER(map_flag=0x00 (Open/close map), zone=208*, submap=2*, marker_id=1*)
 25: 0x05B1 [0xB9] MAP_EDIT_MARKER_FROM_BUFFER(map_flag=0x00 (Open/close map), zone=208*, submap=2*, marker_id=2*)
 26: 0x05B9 [0xB9] MAP_EDIT_MARKER_FROM_BUFFER(map_flag=0x00 (Open/close map), zone=208*, submap=2*, marker_id=3*)
 27: 0x05C1 [0x1B] RETURN
```

#### Data or dead code:

```
# Dead code (unreachable instructions):
     0x00B6 [0x01] GOTO 0x017C
# Dead code (unreachable instructions):
     0x017E [0x02] IF !(ExtData[1]->WorkLocal[2] == 1*) GOTO 0x018E
     0x0186 [0x03] ExtData[1]->WorkLocal[3] = 922217*
     0x018B [0x01] GOTO 0x021E
     0x018E [0x02] IF !(ExtData[1]->WorkLocal[2] == 2*) GOTO 0x019E
     0x0196 [0x03] ExtData[1]->WorkLocal[3] = 117398*
     0x019B [0x01] GOTO 0x021E
     0x019E [0x02] IF !(ExtData[1]->WorkLocal[2] == 3*) GOTO 0x01AE
     0x01A6 [0x03] ExtData[1]->WorkLocal[3] = 796017*
     0x01AB [0x01] GOTO 0x021E
     0x01AE [0x02] IF !(ExtData[1]->WorkLocal[2] == 4*) GOTO 0x01BE
     0x01B6 [0x03] ExtData[1]->WorkLocal[3] = 229838*
     0x01BB [0x01] GOTO 0x021E
     0x01BE [0x02] IF !(ExtData[1]->WorkLocal[2] == 5*) GOTO 0x01CE
     0x01C6 [0x03] ExtData[1]->WorkLocal[3] = 552485*
     0x01CB [0x01] GOTO 0x021E
     0x01CE [0x02] IF !(ExtData[1]->WorkLocal[2] == 6*) GOTO 0x01DE
     0x01D6 [0x03] ExtData[1]->WorkLocal[3] = 463066*
     0x01DB [0x01] GOTO 0x021E
     0x01DE [0x02] IF !(ExtData[1]->WorkLocal[2] == 7*) GOTO 0x01EE
     0x01E6 [0x03] ExtData[1]->WorkLocal[3] = 59177*
     0x01EB [0x01] GOTO 0x021E
     0x01EE [0x02] IF !(ExtData[1]->WorkLocal[2] == 8*) GOTO 0x01FE
     0x01F6 [0x03] ExtData[1]->WorkLocal[3] = 694358*
     0x01FB [0x01] GOTO 0x021E
     0x01FE [0x02] IF !(ExtData[1]->WorkLocal[2] == 9*) GOTO 0x020E
     0x0206 [0x03] ExtData[1]->WorkLocal[3] = 344997*
     0x020B [0x01] GOTO 0x021E
     0x020E [0x02] IF !(ExtData[1]->WorkLocal[2] == 10*) GOTO 0x021E
     0x0216 [0x03] ExtData[1]->WorkLocal[3] = 605210*
     0x021B [0x01] GOTO 0x021E
     0x021E [0x03] ExtData[1]->WorkLocal[4] = 0*
     0x0223 [0x3E] IF !(ExtData[1]->WorkLocal[3] bit 0*) GOTO 0x0248
     0x022A [0xB8] MAP_ADD_MARKER_WITH_NAME(zone=208*, submap=5*, marker_id=ExtData[1]->WorkLocal[4], x_pos=-345.000*, y_pos=826.000*, marker_name="???")
     0x0245 [0x0B] ExtData[1]->WorkLocal[4]++
     0x0248 [0x03] ExtData[1]->WorkLocal[4] = 0*
     0x024D [0x03] ExtData[1]->WorkLocal[4] = 0*
     0x0252 [0x3E] IF !(ExtData[1]->WorkLocal[3] bit 1*) GOTO 0x0277
     0x0259 [0xB8] MAP_ADD_MARKER_WITH_NAME(zone=208*, submap=3*, marker_id=ExtData[1]->WorkLocal[4], x_pos=76.000*, y_pos=-27.000*, marker_name="???")
     0x0274 [0x0B] ExtData[1]->WorkLocal[4]++
     0x0277 [0x3E] IF !(ExtData[1]->WorkLocal[3] bit 6*) GOTO 0x029C
     0x027E [0xB8] MAP_ADD_MARKER_WITH_NAME(zone=208*, submap=3*, marker_id=ExtData[1]->WorkLocal[4], x_pos=272.000*, y_pos=24.000*, marker_name="???")
     0x0299 [0x0B] ExtData[1]->WorkLocal[4]++
     0x029C [0x3E] IF !(ExtData[1]->WorkLocal[3] bit 7*) GOTO 0x02C1
     0x02A3 [0xB8] MAP_ADD_MARKER_WITH_NAME(zone=208*, submap=3*, marker_id=ExtData[1]->WorkLocal[4], x_pos=101.000*, y_pos=-100.000*, marker_name="???")
     0x02BE [0x0B] ExtData[1]->WorkLocal[4]++
     0x02C1 [0x3E] IF !(ExtData[1]->WorkLocal[3] bit 8*) GOTO 0x02E6
     0x02C8 [0xB8] MAP_ADD_MARKER_WITH_NAME(zone=208*, submap=3*, marker_id=ExtData[1]->WorkLocal[4], x_pos=-21.000*, y_pos=-18.000*, marker_name="???")
     0x02E3 [0x0B] ExtData[1]->WorkLocal[4]++
     0x02E6 [0x03] ExtData[1]->WorkLocal[4] = 0*
     0x02EB [0x3E] IF !(ExtData[1]->WorkLocal[3] bit 2*) GOTO 0x0310
     0x02F2 [0xB8] MAP_ADD_MARKER_WITH_NAME(zone=208*, submap=8*, marker_id=ExtData[1]->WorkLocal[4], x_pos=-60.000*, y_pos=-169.000*, marker_name="???")
     0x030D [0x0B] ExtData[1]->WorkLocal[4]++
     0x0310 [0x3E] IF !(ExtData[1]->WorkLocal[3] bit 3*) GOTO 0x0335
     0x0317 [0xB8] MAP_ADD_MARKER_WITH_NAME(zone=208*, submap=8*, marker_id=ExtData[1]->WorkLocal[4], x_pos=-181.000*, y_pos=-107.000*, marker_name="???")
     0x0332 [0x0B] ExtData[1]->WorkLocal[4]++
     0x0335 [0x3E] IF !(ExtData[1]->WorkLocal[3] bit 9*) GOTO 0x035A
     0x033C [0xB8] MAP_ADD_MARKER_WITH_NAME(zone=208*, submap=8*, marker_id=ExtData[1]->WorkLocal[4], x_pos=-211.000*, y_pos=-129.000*, marker_name="???")
     0x0357 [0x0B] ExtData[1]->WorkLocal[4]++
     0x035A [0x3E] IF !(ExtData[1]->WorkLocal[3] bit 10*) GOTO 0x037F
     0x0361 [0xB8] MAP_ADD_MARKER_WITH_NAME(zone=208*, submap=8*, marker_id=ExtData[1]->WorkLocal[4], x_pos=-108.000*, y_pos=-170.000*, marker_name="???")
     0x037C [0x0B] ExtData[1]->WorkLocal[4]++
     0x037F [0x3E] IF !(ExtData[1]->WorkLocal[3] bit 11*) GOTO 0x03A4
     0x0386 [0xB8] MAP_ADD_MARKER_WITH_NAME(zone=208*, submap=8*, marker_id=ExtData[1]->WorkLocal[4], x_pos=-142.000*, y_pos=-271.000*, marker_name="???")
     0x03A1 [0x0B] ExtData[1]->WorkLocal[4]++
     0x03A4 [0x3E] IF !(ExtData[1]->WorkLocal[3] bit 12*) GOTO 0x03C9
     0x03AB [0xB8] MAP_ADD_MARKER_WITH_NAME(zone=208*, submap=8*, marker_id=ExtData[1]->WorkLocal[4], x_pos=-65.000*, y_pos=-270.000*, marker_name="???")
     0x03C6 [0x0B] ExtData[1]->WorkLocal[4]++
     0x03C9 [0x03] ExtData[1]->WorkLocal[4] = 0*
     0x03CE [0x3E] IF !(ExtData[1]->WorkLocal[3] bit 4*) GOTO 0x03F3
     0x03D5 [0xB8] MAP_ADD_MARKER_WITH_NAME(zone=208*, submap=1*, marker_id=ExtData[1]->WorkLocal[4], x_pos=816.000*, y_pos=-568.000*, marker_name="???")
     0x03F0 [0x0B] ExtData[1]->WorkLocal[4]++
     0x03F3 [0x3E] IF !(ExtData[1]->WorkLocal[3] bit 13*) GOTO 0x0418
     0x03FA [0xB8] MAP_ADD_MARKER_WITH_NAME(zone=208*, submap=1*, marker_id=ExtData[1]->WorkLocal[4], x_pos=631.000*, y_pos=-419.000*, marker_name="???")
     0x0415 [0x0B] ExtData[1]->WorkLocal[4]++
     0x0418 [0x3E] IF !(ExtData[1]->WorkLocal[3] bit 14*) GOTO 0x043D
     0x041F [0xB8] MAP_ADD_MARKER_WITH_NAME(zone=208*, submap=1*, marker_id=ExtData[1]->WorkLocal[4], x_pos=862.000*, y_pos=-415.000*, marker_name="???")
     0x043A [0x0B] ExtData[1]->WorkLocal[4]++
     0x043D [0x3E] IF !(ExtData[1]->WorkLocal[3] bit 15*) GOTO 0x0462
     0x0444 [0xB8] MAP_ADD_MARKER_WITH_NAME(zone=208*, submap=1*, marker_id=ExtData[1]->WorkLocal[4], x_pos=613.000*, y_pos=-537.000*, marker_name="???")
     0x045F [0x0B] ExtData[1]->WorkLocal[4]++
     0x0462 [0x3E] IF !(ExtData[1]->WorkLocal[3] bit 16*) GOTO 0x0487
     0x0469 [0xB8] MAP_ADD_MARKER_WITH_NAME(zone=208*, submap=1*, marker_id=ExtData[1]->WorkLocal[4], x_pos=770.000*, y_pos=-668.000*, marker_name="???")
     0x0484 [0x0B] ExtData[1]->WorkLocal[4]++
     0x0487 [0x03] ExtData[1]->WorkLocal[4] = 0*
     0x048C [0x3E] IF !(ExtData[1]->WorkLocal[3] bit 5*) GOTO 0x04B1
     0x0493 [0xB8] MAP_ADD_MARKER_WITH_NAME(zone=208*, submap=2*, marker_id=ExtData[1]->WorkLocal[4], x_pos=548.000*, y_pos=-946.000*, marker_name="???")
     0x04AE [0x0B] ExtData[1]->WorkLocal[4]++
     0x04B1 [0x3E] IF !(ExtData[1]->WorkLocal[3] bit 17*) GOTO 0x04D6
     0x04B8 [0xB8] MAP_ADD_MARKER_WITH_NAME(zone=208*, submap=2*, marker_id=ExtData[1]->WorkLocal[4], x_pos=590.000*, y_pos=-663.000*, marker_name="???")
     0x04D3 [0x0B] ExtData[1]->WorkLocal[4]++
     0x04D6 [0x3E] IF !(ExtData[1]->WorkLocal[3] bit 18*) GOTO 0x04FB
     0x04DD [0xB8] MAP_ADD_MARKER_WITH_NAME(zone=208*, submap=2*, marker_id=ExtData[1]->WorkLocal[4], x_pos=495.000*, y_pos=-834.000*, marker_name="???")
     0x04F8 [0x0B] ExtData[1]->WorkLocal[4]++
     0x04FB [0x3E] IF !(ExtData[1]->WorkLocal[3] bit 19*) GOTO 0x0520
     0x0502 [0xB8] MAP_ADD_MARKER_WITH_NAME(zone=208*, submap=2*, marker_id=ExtData[1]->WorkLocal[4], x_pos=780.000*, y_pos=-750.000*, marker_name="???")
     0x051D [0x0B] ExtData[1]->WorkLocal[4]++
     0x0520 [0x1B] RETURN
```
