# 17629734 - Zeid

## Common Data

| Field            | Value                     |
|------------------|---------------------------|
| Zone             | Quicksand Caves (ID: 208) |
| Block Size       | 380 bytes                 |
| Total Events     | 10                        |
| References Count | 24                        |

## List of Events

| Event ID                 | Entrypoint   |   Size |   Instructions |
|--------------------------|--------------|--------|----------------|
| [65535](#event-65535)    | 0x0000       |      1 |              1 |
| [10](#event-10)          | 0x0001       |      1 |              1 |
| [65535.1](#event-655351) | 0x0002       |     36 |              8 |
| [65535.2](#event-655352) | 0x0026       |     24 |              6 |
| [65535.3](#event-655353) | 0x003E       |     80 |             10 |
| [65535.4](#event-655354) | 0x008E       |     30 |              6 |
| [65535.5](#event-655355) | 0x00AC       |     14 |              4 |
| [11](#event-11)          | 0x00BA       |      1 |              1 |
| [65535.6](#event-655356) | 0x00BB       |     25 |              6 |
| [65535.7](#event-655357) | 0x00D4       |     14 |              4 |

## DAT References (imed_data)

|   Index | Hex Value   |   Dec Value |
|---------|-------------|-------------|
|       0 | 0x000D      |          13 |
|       1 | 0xFFF7C651  |  4294428241 |
|       2 | 0xFFF99DD8  |  4294548952 |
|       3 | 0x0000      |           0 |
|       4 | 0x0EBD      |        3773 |
|       5 | 0xFFF7D09F  |  4294430879 |
|       6 | 0xFFF9A417  |  4294550551 |
|       7 | 0xFFF7DB71  |  4294433649 |
|       8 | 0xFFF9C578  |  4294559096 |
|       9 | 0xFFFFFD12  |  4294966546 |
|      10 | 0xFFF7EB65  |  4294437733 |
|      11 | 0xFFF8099F  |  4294445471 |
|      12 | 0xFFF815A9  |  4294448553 |
|      13 | 0x020A      |         522 |
|      14 | 0xFFF83990  |  4294457744 |
|      15 | 0xFFF832E5  |  4294456037 |
|      16 | 0xFFF9980E  |  4294547470 |
|      17 | 0xFFF8ED31  |  4294503729 |
|      18 | 0x97951     |      620881 |
|      19 | 0x07AE      |        1966 |
|      20 | 0xFFF8E162  |  4294500706 |
|      21 | 0x97C5C     |      621660 |
|      22 | 0xFFF8F678  |  4294506104 |
|      23 | 0x97953     |      620883 |

## Events

### Event 65535

#### Metadata

| Field        | Value   |
|--------------|---------|
| Entrypoint   | 0x0000  |
| Data Size    | 1 bytes |
| Instructions | 1       |

```
      00 01 02 03 04 05 06 07  08 09 0A 0B 0C 0D 0E 0F
      -- -- -- -- -- -- -- --  -- -- -- -- -- -- -- --
0000: 00                                                .               
```

#### Opcodes

```
  0: 0x0000 [0x00] END_REQSTACK()
```

### Event 10

#### Metadata

| Field        | Value   |
|--------------|---------|
| Entrypoint   | 0x0001  |
| Data Size    | 1 bytes |
| Instructions | 1       |

```
      00 01 02 03 04 05 06 07  08 09 0A 0B 0C 0D 0E 0F
      -- -- -- -- -- -- -- --  -- -- -- -- -- -- -- --
0000:    00                                              .              
```

#### Opcodes

```
  0: 0x0001 [0x00] END_REQSTACK()
```

### Event 65535.1

#### Metadata

| Field        | Value    |
|--------------|----------|
| Entrypoint   | 0x0002   |
| Data Size    | 36 bytes |
| Instructions | 8        |

```
      00 01 02 03 04 05 06 07  08 09 0A 0B 0C 0D 0E 0F
      -- -- -- -- -- -- -- --  -- -- -- -- -- -- -- --
0000:       22 00 32 00 80 79  00 F8 FF FF 7F F0 FF FF    ".2..y........
0010: 7F 37 01 80 02 80 03 80  04 80 1F 00 05 80 06 80  .7..............
0020: 03 80 1F 01 6F 00                                 ....o.          
```

#### Opcodes

```
  0: 0x0002 [0x22] ENTITY_HIDE_FLAG(enabled=0x00)
  1: 0x0004 [0x32] ExtData[1]->MainSpeed = 13* * 0.1
  2: 0x0007 [0x79] EventEntity looks at LocalPlayer (Basic look)
  3: 0x0011 [0x37] UPDATE_EVENT_POSITION_AND_DIR: x=-539.055*, z=-418.344*, y=0.000*, direction=331.6째*
  4: 0x001A [0x1F] MOVE_ENTITY: EventEntity moves to X=-536.417*, Z=-416.745*, Y=0.000*
  5: 0x0022 [0x1F] MOVE_ENTITY: Update entity position (mode=1)
  6: 0x0024 [0x6F] WAIT_FRAME_DELAY: Yield until WaitTime reaches zero
  7: 0x0025 [0x00] END_REQSTACK()
```

### Event 65535.2

#### Metadata

| Field        | Value    |
|--------------|----------|
| Entrypoint   | 0x0026   |
| Data Size    | 24 bytes |
| Instructions | 6        |

```
      00 01 02 03 04 05 06 07  08 09 0A 0B 0C 0D 0E 0F
      -- -- -- -- -- -- -- --  -- -- -- -- -- -- -- --
0020:                   32 00  80 37 07 80 08 80 09 80        2..7......
0030: 03 80 1F 00 0A 80 08 80  09 80 1F 01 6F 00        ............o.  
```

#### Opcodes

```
  0: 0x0026 [0x32] ExtData[1]->MainSpeed = 13* * 0.1
  1: 0x0029 [0x37] UPDATE_EVENT_POSITION_AND_DIR: x=-533.647*, z=-408.200*, y=-0.750*, direction=0.0째*
  2: 0x0032 [0x1F] MOVE_ENTITY: EventEntity moves to X=-529.563*, Z=-408.200*, Y=-0.750*
  3: 0x003A [0x1F] MOVE_ENTITY: Update entity position (mode=1)
  4: 0x003C [0x6F] WAIT_FRAME_DELAY: Yield until WaitTime reaches zero
  5: 0x003D [0x00] END_REQSTACK()
```

### Event 65535.3

#### Metadata

| Field        | Value    |
|--------------|----------|
| Entrypoint   | 0x003E   |
| Data Size    | 80 bytes |
| Instructions | 10       |

```
      00 01 02 03 04 05 06 07  08 09 0A 0B 0C 0D 0E 0F
      -- -- -- -- -- -- -- --  -- -- -- -- -- -- -- --
0030:                                            32 00                2.
0040: 80 37 0B 80 08 80 09 80  03 80 1F 00 0C 80 08 80  .7..............
0050: 09 80 1F 01 6F 5B 0D 80  26 02 0D 01 26 02 0D 01  ....o[..&...&...
0060: 68 65 6B 30 53 26 02 0D  01 26 02 0D 01 68 65 6B  hek0S&...&...hek
0070: 30 5B 0D 80 26 02 0D 01  26 02 0D 01 68 65 6B 31  0[..&...&...hek1
0080: 53 26 02 0D 01 26 02 0D  01 68 65 6B 31 00        S&...&...hek1.  
```

#### Opcodes

```
  0: 0x003E [0x32] ExtData[1]->MainSpeed = 13* * 0.1
  1: 0x0041 [0x37] UPDATE_EVENT_POSITION_AND_DIR: x=-521.825*, z=-408.200*, y=-0.750*, direction=0.0째*
  2: 0x004A [0x1F] MOVE_ENTITY: EventEntity moves to X=-518.743*, Z=-408.200*, Y=-0.750*
  3: 0x0052 [0x1F] MOVE_ENTITY: Update entity position (mode=1)
  4: 0x0054 [0x6F] WAIT_FRAME_DELAY: Yield until WaitTime reaches zero
  5: 0x0055 [0x5B] LOAD_EXT_SCHEDULER: Load scheduler "hek0" with entities [Zeid (ID: 17629734/0x010D0226), Zeid (ID: 17629734/0x010D0226)], work=522*
  6: 0x0064 [0x53] WAIT_SCHEDULER_TASK: Wait for scheduler "hek0" with entities [Zeid (ID: 17629734/0x010D0226), Zeid (ID: 17629734/0x010D0226)]
  7: 0x0071 [0x5B] LOAD_EXT_SCHEDULER: Load scheduler "hek1" with entities [Zeid (ID: 17629734/0x010D0226), Zeid (ID: 17629734/0x010D0226)], work=522*
  8: 0x0080 [0x53] WAIT_SCHEDULER_TASK: Wait for scheduler "hek1" with entities [Zeid (ID: 17629734/0x010D0226), Zeid (ID: 17629734/0x010D0226)]
  9: 0x008D [0x00] END_REQSTACK()
```

### Event 65535.4

#### Metadata

| Field        | Value    |
|--------------|----------|
| Entrypoint   | 0x008E   |
| Data Size    | 30 bytes |
| Instructions | 6        |

```
      00 01 02 03 04 05 06 07  08 09 0A 0B 0C 0D 0E 0F
      -- -- -- -- -- -- -- --  -- -- -- -- -- -- -- --
0080:                                            32 00                2.
0090: 80 1F 00 0E 80 08 80 09  80 1F 01 6F 5B 0D 80 26  ...........o[..&
00A0: 02 0D 01 26 02 0D 01 68  65 6B 30 00              ...&...hek0.    
```

#### Opcodes

```
  0: 0x008E [0x32] ExtData[1]->MainSpeed = 13* * 0.1
  1: 0x0091 [0x1F] MOVE_ENTITY: EventEntity moves to X=-509.552*, Z=-408.200*, Y=-0.750*
  2: 0x0099 [0x1F] MOVE_ENTITY: Update entity position (mode=1)
  3: 0x009B [0x6F] WAIT_FRAME_DELAY: Yield until WaitTime reaches zero
  4: 0x009C [0x5B] LOAD_EXT_SCHEDULER: Load scheduler "hek0" with entities [Zeid (ID: 17629734/0x010D0226), Zeid (ID: 17629734/0x010D0226)], work=522*
  5: 0x00AB [0x00] END_REQSTACK()
```

### Event 65535.5

#### Metadata

| Field        | Value    |
|--------------|----------|
| Entrypoint   | 0x00AC   |
| Data Size    | 14 bytes |
| Instructions | 4        |

```
      00 01 02 03 04 05 06 07  08 09 0A 0B 0C 0D 0E 0F
      -- -- -- -- -- -- -- --  -- -- -- -- -- -- -- --
00A0:                                      32 00 80 1F              2...
00B0: 00 0F 80 10 80 03 80 1F  01 00                    ..........      
```

#### Opcodes

```
  0: 0x00AC [0x32] ExtData[1]->MainSpeed = 13* * 0.1
  1: 0x00AF [0x1F] MOVE_ENTITY: EventEntity moves to X=-511.259*, Z=-419.826*, Y=0.000*
  2: 0x00B7 [0x1F] MOVE_ENTITY: Update entity position (mode=1)
  3: 0x00B9 [0x00] END_REQSTACK()
```

### Event 11

#### Metadata

| Field        | Value   |
|--------------|---------|
| Entrypoint   | 0x00BA  |
| Data Size    | 1 bytes |
| Instructions | 1       |

```
      00 01 02 03 04 05 06 07  08 09 0A 0B 0C 0D 0E 0F
      -- -- -- -- -- -- -- --  -- -- -- -- -- -- -- --
00B0:                                00                           .     
```

#### Opcodes

```
  0: 0x00BA [0x00] END_REQSTACK()
```

### Event 65535.6

#### Metadata

| Field        | Value    |
|--------------|----------|
| Entrypoint   | 0x00BB   |
| Data Size    | 25 bytes |
| Instructions | 6        |

```
      00 01 02 03 04 05 06 07  08 09 0A 0B 0C 0D 0E 0F
      -- -- -- -- -- -- -- --  -- -- -- -- -- -- -- --
00B0:                                   22 00 32 00 80             ".2..
00C0: 37 11 80 12 80 03 80 13  80 1F 00 14 80 15 80 03  7...............
00D0: 80 1F 01 00                                       ....            
```

#### Opcodes

```
  0: 0x00BB [0x22] ENTITY_HIDE_FLAG(enabled=0x00)
  1: 0x00BD [0x32] ExtData[1]->MainSpeed = 13* * 0.1
  2: 0x00C0 [0x37] UPDATE_EVENT_POSITION_AND_DIR: x=-463.567*, z=620.881*, y=0.000*, direction=172.8째*
  3: 0x00C9 [0x1F] MOVE_ENTITY: EventEntity moves to X=-466.590*, Z=621.660*, Y=0.000*
  4: 0x00D1 [0x1F] MOVE_ENTITY: Update entity position (mode=1)
  5: 0x00D3 [0x00] END_REQSTACK()
```

### Event 65535.7

#### Metadata

| Field        | Value    |
|--------------|----------|
| Entrypoint   | 0x00D4   |
| Data Size    | 14 bytes |
| Instructions | 4        |

```
      00 01 02 03 04 05 06 07  08 09 0A 0B 0C 0D 0E 0F
      -- -- -- -- -- -- -- --  -- -- -- -- -- -- -- --
00D0:             32 00 80 1F  00 16 80 17 80 03 80 1F      2...........
00E0: 01 00                                             ..              
```

#### Opcodes

```
  0: 0x00D4 [0x32] ExtData[1]->MainSpeed = 13* * 0.1
  1: 0x00D7 [0x1F] MOVE_ENTITY: EventEntity moves to X=-461.192*, Z=620.883*, Y=0.000*
  2: 0x00DF [0x1F] MOVE_ENTITY: Update entity position (mode=1)
  3: 0x00E1 [0x00] END_REQSTACK()
```
