# 17629794

## Common Data

| Field            | Value                     |
|------------------|---------------------------|
| Zone             | Quicksand Caves (ID: 208) |
| Block Size       | 32480 bytes               |
| Total Events     | 5                         |
| References Count | 567                       |

## List of Events

| Event ID              | Entrypoint   |   Size |   Instructions |
|-----------------------|--------------|--------|----------------|
| [65535](#event-65535) | 0x0000       |    658 |             62 |
| [104](#event-104)     | 0x0292       |   5667 |            766 |
| [105](#event-105)     | 0x18B5       |   8570 |           1161 |
| [106](#event-106)     | 0x3A2F       |   5956 |            767 |
| [107](#event-107)     | 0x5173       |   9323 |           1183 |

## DAT References (imed_data)

|   Index | Hex Value   |   Dec Value |
|---------|-------------|-------------|
|       0 | 0x00C8      |         200 |
|       1 | 0x0000      |           0 |
|       2 | 0x00C9      |         201 |
|       3 | 0x0001      |           1 |
|       4 | 0x002D      |          45 |
|       5 | 0x0002      |           2 |
|       6 | 0x001E      |          30 |
|       7 | 0x00D7      |         215 |
|       8 | 0x012C      |         300 |
|       9 | 0x0093      |         147 |
|      10 | 0xFFF8E291  |  4294501009 |
|      11 | 0x973B2     |      619442 |
|      12 | 0x0807      |        2055 |
|      13 | 0xFFF914CE  |  4294513870 |
|      14 | 0x976C7     |      620231 |
|      15 | 0xFFFFFEA2  |  4294966946 |
|      16 | 0x0867      |        2151 |
|      17 | 0xFFF8C90C  |  4294494476 |
|      18 | 0x98CD7     |      625879 |
|      19 | 0x0E5A      |        3674 |
|      20 | 0xFFF8D380  |  4294497152 |
|      21 | 0x9754E     |      619854 |
|      22 | 0xFFFFE6DC  |  4294960860 |
|      23 | 0x07AC      |        1964 |
|      24 | 0xFFF8E5F9  |  4294501881 |
|      25 | 0x976BD     |      620221 |
|      26 | 0xFFFF96B6  |  4294940342 |
|      27 | 0x0142      |         322 |
|      28 | 0x002A      |          42 |
|      29 | 0x000F      |          15 |
|      30 | 0x002E      |          46 |
|      31 | 0x00C7      |         199 |
|      32 | 0x007F      |         127 |
|      33 | 0x037C      |         892 |
|      34 | 0x008C      |         140 |
|      35 | 0x0014      |          20 |
|      36 | 0x2D03      |       11523 |
|      37 | 0x2D04      |       11524 |
|      38 | 0x0B27      |        2855 |
|      39 | 0x0005      |           5 |
|      40 | 0x0006      |           6 |
|      41 | 0x2D05      |       11525 |
|      42 | 0x0D1B      |        3355 |
|      43 | 0x2D06      |       11526 |
|      44 | 0x0007      |           7 |
|      45 | 0x003C      |          60 |
|      46 | 0x2D0B      |       11531 |
|      47 | 0x005A      |          90 |
|      48 | 0x2D07      |       11527 |
|      49 | 0x2D08      |       11528 |
|      50 | 0x2D09      |       11529 |
|      51 | 0x2D0A      |       11530 |
|      52 | 0x2D0C      |       11532 |
|      53 | 0x2D0D      |       11533 |
|      54 | 0x0064      |         100 |
|      55 | 0x2D0E      |       11534 |
|      56 | 0x0080      |         128 |
|      57 | 0x2D0F      |       11535 |
|      58 | 0x0015      |          21 |
|      59 | 0x0078      |         120 |
|      60 | 0x2D10      |       11536 |
|      61 | 0x2D11      |       11537 |
|      62 | 0x0FA0      |        4000 |
|      63 | 0x2D12      |       11538 |
|      64 | 0x001B      |          27 |
|      65 | 0x2D13      |       11539 |
|      66 | 0x2D14      |       11540 |
|      67 | 0x2D15      |       11541 |
|      68 | 0x2D16      |       11542 |
|      69 | 0x2D17      |       11543 |
|      70 | 0x0032      |          50 |
|      71 | 0x00D5      |         213 |
|      72 | 0x2D18      |       11544 |
|      73 | 0x2D19      |       11545 |
|      74 | 0x2D1A      |       11546 |
|      75 | 0xFFF8D07F  |  4294496383 |
|      76 | 0x98CEF     |      625903 |
|      77 | 0x0A9D      |        2717 |
|      78 | 0xFFF8D735  |  4294498101 |
|      79 | 0x98B00     |      625408 |
|      80 | 0x09FB      |        2555 |
|      81 | 0xFFF8D707  |  4294498055 |
|      82 | 0x98568     |      623976 |
|      83 | 0x0E89      |        3721 |
|      84 | 0x2D1B      |       11547 |
|      85 | 0x2D1C      |       11548 |
|      86 | 0x2D1D      |       11549 |
|      87 | 0x2D1E      |       11550 |
|      88 | 0x2D1F      |       11551 |
|      89 | 0x2D20      |       11552 |
|      90 | 0x2D21      |       11553 |
|      91 | 0x2D22      |       11554 |
|      92 | 0x2D23      |       11555 |
|      93 | 0x2D24      |       11556 |
|      94 | 0x2D25      |       11557 |
|      95 | 0x2D26      |       11558 |
|      96 | 0xFFF8D6D8  |  4294498008 |
|      97 | 0x9835C     |      623452 |
|      98 | 0x0B83      |        2947 |
|      99 | 0x2D27      |       11559 |
|     100 | 0x0003      |           3 |
|     101 | 0x0008      |           8 |
|     102 | 0x2D28      |       11560 |
|     103 | 0x2D29      |       11561 |
|     104 | 0x2D2D      |       11565 |
|     105 | 0x2D2A      |       11562 |
|     106 | 0x2D2B      |       11563 |
|     107 | 0x2D2C      |       11564 |
|     108 | 0x2D2E      |       11566 |
|     109 | 0x2D2F      |       11567 |
|     110 | 0x2D30      |       11568 |
|     111 | 0x2D31      |       11569 |
|     112 | 0x2D32      |       11570 |
|     113 | 0x2D33      |       11571 |
|     114 | 0x0322      |         802 |
|     115 | 0x2D34      |       11572 |
|     116 | 0x2D35      |       11573 |
|     117 | 0x2D36      |       11574 |
|     118 | 0x2D37      |       11575 |
|     119 | 0x2D38      |       11576 |
|     120 | 0x2D39      |       11577 |
|     121 | 0xFFF8E03F  |  4294500415 |
|     122 | 0x98C02     |      625666 |
|     123 | 0x0D17      |        3351 |
|     124 | 0x2D3A      |       11578 |
|     125 | 0x2D3B      |       11579 |
|     126 | 0x2D3C      |       11580 |
|     127 | 0x2D3D      |       11581 |
|     128 | 0x2D3E      |       11582 |
|     129 | 0x0073      |         115 |
|     130 | 0x00C0      |         192 |
|     131 | 0x001F      |          31 |
|     132 | 0xFFF80CC0  |  4294446272 |
|     133 | 0xFFF999BC  |  4294547900 |
|     134 | 0x0800      |        2048 |
|     135 | 0xFFF7F841  |  4294441025 |
|     136 | 0xFFF995E2  |  4294546914 |
|     137 | 0x0FEB      |        4075 |
|     138 | 0xFFF7FCB9  |  4294442169 |
|     139 | 0xFFF990FB  |  4294545659 |
|     140 | 0x0FC9      |        4041 |
|     141 | 0xFFF87DDE  |  4294475230 |
|     142 | 0xFFF99939  |  4294547769 |
|     143 | 0x07FA      |        2042 |
|     144 | 0xFFF8880F  |  4294477839 |
|     145 | 0xFFF9AC27  |  4294552615 |
|     146 | 0xFFFFFE0D  |  4294966797 |
|     147 | 0x07ED      |        2029 |
|     148 | 0xFFF7CEA3  |  4294430371 |
|     149 | 0xFFF9A0AD  |  4294549677 |
|     150 | 0x096F      |        2415 |
|     151 | 0xFFF7F656  |  4294440534 |
|     152 | 0xFFF99D4F  |  4294548815 |
|     153 | 0x0176      |         374 |
|     154 | 0xFFF7CBC5  |  4294429637 |
|     155 | 0xFFF991B2  |  4294545842 |
|     156 | 0x0EC0      |        3776 |
|     157 | 0xFFFB9A82  |  4294679170 |
|     158 | 0xC2CBD     |      797885 |
|     159 | 0x040F      |        1039 |
|     160 | 0x03E7      |         999 |
|     161 | 0x0028      |          40 |
|     162 | 0x2D43      |       11587 |
|     163 | 0x2D44      |       11588 |
|     164 | 0x001C      |          28 |
|     165 | 0x2D45      |       11589 |
|     166 | 0x2D46      |       11590 |
|     167 | 0x2D47      |       11591 |
|     168 | 0x2D48      |       11592 |
|     169 | 0x044B      |        1099 |
|     170 | 0x2D49      |       11593 |
|     171 | 0x0004      |           4 |
|     172 | 0x0BB8      |        3000 |
|     173 | 0x2D4A      |       11594 |
|     174 | 0x2D4B      |       11595 |
|     175 | 0x2D4C      |       11596 |
|     176 | 0x2D4D      |       11597 |
|     177 | 0x2D4E      |       11598 |
|     178 | 0x2D4F      |       11599 |
|     179 | 0x2D50      |       11600 |
|     180 | 0x2D51      |       11601 |
|     181 | 0x2D52      |       11602 |
|     182 | 0x2D53      |       11603 |
|     183 | 0x2D54      |       11604 |
|     184 | 0x2D55      |       11605 |
|     185 | 0x2D56      |       11606 |
|     186 | 0x2D57      |       11607 |
|     187 | 0x2D58      |       11608 |
|     188 | 0x2D59      |       11609 |
|     189 | 0x2D5A      |       11610 |
|     190 | 0x2D5B      |       11611 |
|     191 | 0x2D5C      |       11612 |
|     192 | 0x2D5D      |       11613 |
|     193 | 0x2D5E      |       11614 |
|     194 | 0x2D5F      |       11615 |
|     195 | 0x2D60      |       11616 |
|     196 | 0x01F4      |         500 |
|     197 | 0x2D61      |       11617 |
|     198 | 0x2D62      |       11618 |
|     199 | 0x0EFC      |        3836 |
|     200 | 0x0DD0      |        3536 |
|     201 | 0x0BDC      |        3036 |
|     202 | 0x2D63      |       11619 |
|     203 | 0x2D64      |       11620 |
|     204 | 0x2D65      |       11621 |
|     205 | 0x2D66      |       11622 |
|     206 | 0x0021      |          33 |
|     207 | 0x2D67      |       11623 |
|     208 | 0x2D68      |       11624 |
|     209 | 0x2D69      |       11625 |
|     210 | 0x2D6A      |       11626 |
|     211 | 0x2D6B      |       11627 |
|     212 | 0x2D6C      |       11628 |
|     213 | 0x2D6D      |       11629 |
|     214 | 0x2D6E      |       11630 |
|     215 | 0x2D6F      |       11631 |
|     216 | 0x2D70      |       11632 |
|     217 | 0x2D71      |       11633 |
|     218 | 0x2D72      |       11634 |
|     219 | 0x2D73      |       11635 |
|     220 | 0x2D74      |       11636 |
|     221 | 0x2D75      |       11637 |
|     222 | 0x2D76      |       11638 |
|     223 | 0x2D77      |       11639 |
|     224 | 0x2D78      |       11640 |
|     225 | 0x2D79      |       11641 |
|     226 | 0x2D7A      |       11642 |
|     227 | 0x2D7B      |       11643 |
|     228 | 0x2D7C      |       11644 |
|     229 | 0xFFFB9A14  |  4294679060 |
|     230 | 0xC21BA     |      795066 |
|     231 | 0x0BE3      |        3043 |
|     232 | 0xFFFB9897  |  4294678679 |
|     233 | 0xC4550     |      804176 |
|     234 | 0xFFFFFCB8  |  4294966456 |
|     235 | 0x07A6      |        1958 |
|     236 | 0xFFFB9B08  |  4294679304 |
|     237 | 0xC43DC     |      803804 |
|     238 | 0xFFFFFCAF  |  4294966447 |
|     239 | 0x0400      |        1024 |
|     240 | 0x0340      |         832 |
|     241 | 0x2D7D      |       11645 |
|     242 | 0x2D7E      |       11646 |
|     243 | 0x2D7F      |       11647 |
|     244 | 0x2D80      |       11648 |
|     245 | 0x2D81      |       11649 |
|     246 | 0x2D82      |       11650 |
|     247 | 0x2D9B      |       11675 |
|     248 | 0xFFFFFF1B  |  4294967067 |
|     249 | 0x186A0     |      100000 |
|     250 | 0x03E8      |        1000 |
|     251 | 0xFFFE7960  |  4294867296 |
|     252 | 0x2D83      |       11651 |
|     253 | 0x2D84      |       11652 |
|     254 | 0x2D85      |       11653 |
|     255 | 0x2D86      |       11654 |
|     256 | 0x2D87      |       11655 |
|     257 | 0xFFFFFF1A  |  4294967066 |
|     258 | 0x4E20      |       20000 |
|     259 | 0x19A28     |      105000 |
|     260 | 0x006E      |         110 |
|     261 | 0x2D88      |       11656 |
|     262 | 0x2D89      |       11657 |
|     263 | 0x2D8A      |       11658 |
|     264 | 0x2D8B      |       11659 |
|     265 | 0x2D8C      |       11660 |
|     266 | 0xFFFB9A2A  |  4294679082 |
|     267 | 0xC43F4     |      803828 |
|     268 | 0xFFFFFCBA  |  4294966458 |
|     269 | 0x03FF      |        1023 |
|     270 | 0x2D8D      |       11661 |
|     271 | 0x2D8E      |       11662 |
|     272 | 0x2D8F      |       11663 |
|     273 | 0x2D90      |       11664 |
|     274 | 0xFFF83308  |  4294456072 |
|     275 | 0xFFF998DC  |  4294547676 |
|     276 | 0x00C2      |         194 |
|     277 | 0xFFF82E81  |  4294454913 |
|     278 | 0xFFF993F0  |  4294546416 |
|     279 | 0x044A      |        1098 |
|     280 | 0xFFF8376B  |  4294457195 |
|     281 | 0xFFF991F2  |  4294545906 |
|     282 | 0x0FA9      |        4009 |
|     283 | 0xFFF87BA5  |  4294474661 |
|     284 | 0xFFF9A0B4  |  4294549684 |
|     285 | 0x0291      |         657 |
|     286 | 0x2D91      |       11665 |
|     287 | 0x2D92      |       11666 |
|     288 | 0x2D93      |       11667 |
|     289 | 0x2D94      |       11668 |
|     290 | 0x000A      |          10 |
|     291 | 0x2D95      |       11669 |
|     292 | 0x2D96      |       11670 |
|     293 | 0x0050      |          80 |
|     294 | 0x2D97      |       11671 |
|     295 | 0x0EEF      |        3823 |
|     296 | 0x2D98      |       11672 |
|     297 | 0x2D99      |       11673 |
|     298 | 0x2D9A      |       11674 |
|     299 | 0xFFFF032B  |  4294902571 |
|     300 | 0x45A71     |      285297 |
|     301 | 0xFFFFC015  |  4294950933 |
|     302 | 0x0D77      |        3447 |
|     303 | 0xFFFF18FF  |  4294908159 |
|     304 | 0x49D03     |      302339 |
|     305 | 0xFFFFC180  |  4294951296 |
|     306 | 0x07D0      |        2000 |
|     307 | 0xFFFF12FA  |  4294906618 |
|     308 | 0x49B80     |      301952 |
|     309 | 0x0CE4      |        3300 |
|     310 | 0xFFFF2A2D  |  4294912557 |
|     311 | 0x447A8     |      280488 |
|     312 | 0x0BDE      |        3038 |
|     313 | 0xFFFF2839  |  4294912057 |
|     314 | 0x438C7     |      276679 |
|     315 | 0xFFFFC229  |  4294951465 |
|     316 | 0x0BCE      |        3022 |
|     317 | 0xFFFF14AC  |  4294907052 |
|     318 | 0x4B14E     |      307534 |
|     319 | 0xFFFFC21F  |  4294951455 |
|     320 | 0x0BB3      |        2995 |
|     321 | 0xFFFF1159  |  4294906201 |
|     322 | 0x49987     |      301447 |
|     323 | 0x03FC      |        1020 |
|     324 | 0x0039      |          57 |
|     325 | 0x0026      |          38 |
|     326 | 0x0379      |         889 |
|     327 | 0x0FD4      |        4052 |
|     328 | 0x2D9C      |       11676 |
|     329 | 0x2D9D      |       11677 |
|     330 | 0x2D9E      |       11678 |
|     331 | 0x2D9F      |       11679 |
|     332 | 0x2DA0      |       11680 |
|     333 | 0x2DA1      |       11681 |
|     334 | 0xFFFF15B1  |  4294907313 |
|     335 | 0x492D3     |      299731 |
|     336 | 0xFFFFC0B8  |  4294951096 |
|     337 | 0x0C21      |        3105 |
|     338 | 0x2DA2      |       11682 |
|     339 | 0x2DA3      |       11683 |
|     340 | 0x2DA4      |       11684 |
|     341 | 0x2DA5      |       11685 |
|     342 | 0x2DA6      |       11686 |
|     343 | 0x2DA7      |       11687 |
|     344 | 0x2DA8      |       11688 |
|     345 | 0x2DA9      |       11689 |
|     346 | 0x2DAA      |       11690 |
|     347 | 0x2DAB      |       11691 |
|     348 | 0x2DAC      |       11692 |
|     349 | 0x2DAD      |       11693 |
|     350 | 0x2DAE      |       11694 |
|     351 | 0x2DAF      |       11695 |
|     352 | 0x2DB0      |       11696 |
|     353 | 0x2DB1      |       11697 |
|     354 | 0x0010      |          16 |
|     355 | 0x2DB2      |       11698 |
|     356 | 0x2DB3      |       11699 |
|     357 | 0x2DB4      |       11700 |
|     358 | 0x2DB5      |       11701 |
|     359 | 0x2DB6      |       11702 |
|     360 | 0x2DB7      |       11703 |
|     361 | 0x2DB8      |       11704 |
|     362 | 0x2DB9      |       11705 |
|     363 | 0x2DBA      |       11706 |
|     364 | 0x2DBB      |       11707 |
|     365 | 0xFFFF0597  |  4294903191 |
|     366 | 0x43B94     |      277396 |
|     367 | 0xFFFF4CD0  |  4294921424 |
|     368 | 0xFFFF0D67  |  4294905191 |
|     369 | 0x4203C     |      270396 |
|     370 | 0xFFFF11FD  |  4294906365 |
|     371 | 0x487CE     |      296910 |
|     372 | 0x0170      |         368 |
|     373 | 0x0C94      |        3220 |
|     374 | 0xFFFF192D  |  4294908205 |
|     375 | 0x499A1     |      301473 |
|     376 | 0x0CD4      |        3284 |
|     377 | 0xFFFF1A26  |  4294908454 |
|     378 | 0x489EE     |      297454 |
|     379 | 0xFFFF17C7  |  4294907847 |
|     380 | 0x483F8     |      295928 |
|     381 | 0x0C88      |        3208 |
|     382 | 0x2DBC      |       11708 |
|     383 | 0x2DBD      |       11709 |
|     384 | 0x2DBE      |       11710 |
|     385 | 0xFFFF17CA  |  4294907850 |
|     386 | 0x4BFF1     |      311281 |
|     387 | 0xFFFFC3E6  |  4294951910 |
|     388 | 0x0C12      |        3090 |
|     389 | 0x0559      |        1369 |
|     390 | 0x2DBF      |       11711 |
|     391 | 0x2DC0      |       11712 |
|     392 | 0x003F      |          63 |
|     393 | 0x2DC1      |       11713 |
|     394 | 0x002C      |          44 |
|     395 | 0x2DC2      |       11714 |
|     396 | 0x2DC3      |       11715 |
|     397 | 0x2DC4      |       11716 |
|     398 | 0x2DC5      |       11717 |
|     399 | 0x2DC6      |       11718 |
|     400 | 0xFFFF4500  |  4294919424 |
|     401 | 0x2DC7      |       11719 |
|     402 | 0x2DC8      |       11720 |
|     403 | 0x2DC9      |       11721 |
|     404 | 0x2DCA      |       11722 |
|     405 | 0x0049      |          73 |
|     406 | 0x0096      |         150 |
|     407 | 0x2DCB      |       11723 |
|     408 | 0x2DCC      |       11724 |
|     409 | 0x2DCD      |       11725 |
|     410 | 0x2DCE      |       11726 |
|     411 | 0x00EA      |         234 |
|     412 | 0x2DCF      |       11727 |
|     413 | 0x2DD0      |       11728 |
|     414 | 0x2DD1      |       11729 |
|     415 | 0x2DD2      |       11730 |
|     416 | 0x2DD3      |       11731 |
|     417 | 0x2DD4      |       11732 |
|     418 | 0x2DD5      |       11733 |
|     419 | 0x0018      |          24 |
|     420 | 0xFFFF1003  |  4294905859 |
|     421 | 0x48609     |      296457 |
|     422 | 0x0CD3      |        3283 |
|     423 | 0xFFFF0B8D  |  4294904717 |
|     424 | 0x4A92D     |      305453 |
|     425 | 0xFFFFC181  |  4294951297 |
|     426 | 0x2DD6      |       11734 |
|     427 | 0x2DD7      |       11735 |
|     428 | 0x04B0      |        1200 |
|     429 | 0x2DD8      |       11736 |
|     430 | 0xFFFF11FE  |  4294906366 |
|     431 | 0x487C9     |      296905 |
|     432 | 0x2DD9      |       11737 |
|     433 | 0xFFFF224D  |  4294910541 |
|     434 | 0x49335     |      299829 |
|     435 | 0x03E1      |         993 |
|     436 | 0xFFFF13D4  |  4294906836 |
|     437 | 0x48B20     |      297760 |
|     438 | 0x0BB4      |        2996 |
|     439 | 0xFFFF1931  |  4294908209 |
|     440 | 0x46EB9     |      290489 |
|     441 | 0x0BEB      |        3051 |
|     442 | 0xFFFF095D  |  4294904157 |
|     443 | 0x47A47     |      293447 |
|     444 | 0x0C1F      |        3103 |
|     445 | 0xFFFF146B  |  4294906987 |
|     446 | 0x4798C     |      293260 |
|     447 | 0x0C1E      |        3102 |
|     448 | 0xFFFF15A0  |  4294907296 |
|     449 | 0x4AB50     |      306000 |
|     450 | 0xFFFFB9B0  |  4294949296 |
|     451 | 0xFFFF12F4  |  4294906612 |
|     452 | 0x485DA     |      296410 |
|     453 | 0x0403      |        1027 |
|     454 | 0x4A380     |      304000 |
|     455 | 0xFFFFB758  |  4294948696 |
|     456 | 0x49BB0     |      302000 |
|     457 | 0x0A18      |        2584 |
|     458 | 0x0B8E      |        2958 |
|     459 | 0x001A      |          26 |
|     460 | 0x0017      |          23 |
|     461 | 0x2DDA      |       11738 |
|     462 | 0x2DDB      |       11739 |
|     463 | 0x2DDC      |       11740 |
|     464 | 0x2DDD      |       11741 |
|     465 | 0x2DDE      |       11742 |
|     466 | 0x2DDF      |       11743 |
|     467 | 0x2DE0      |       11744 |
|     468 | 0x49F98     |      303000 |
|     469 | 0x2DE1      |       11745 |
|     470 | 0x00D2      |         210 |
|     471 | 0x495D4     |      300500 |
|     472 | 0x2DE2      |       11746 |
|     473 | 0x2DE3      |       11747 |
|     474 | 0x2DE4      |       11748 |
|     475 | 0x2DE5      |       11749 |
|     476 | 0x2DE6      |       11750 |
|     477 | 0x2DE7      |       11751 |
|     478 | 0x00B0      |         176 |
|     479 | 0x2DE8      |       11752 |
|     480 | 0xFFFF15C4  |  4294907332 |
|     481 | 0x48E82     |      298626 |
|     482 | 0x0FAB      |        4011 |
|     483 | 0x2DE9      |       11753 |
|     484 | 0x00AD      |         173 |
|     485 | 0x0030      |          48 |
|     486 | 0xFFFF1658  |  4294907480 |
|     487 | 0x48B0B     |      297739 |
|     488 | 0x0ABE      |        2750 |
|     489 | 0xFFFF0B2B  |  4294904619 |
|     490 | 0x48156     |      295254 |
|     491 | 0x1068      |        4200 |
|     492 | 0x02BC      |         700 |
|     493 | 0xFFFF2D86  |  4294913414 |
|     494 | 0x4799D     |      293277 |
|     495 | 0x0B66      |        2918 |
|     496 | 0x0DAC      |        3500 |
|     497 | 0x2DEA      |       11754 |
|     498 | 0x2DEB      |       11755 |
|     499 | 0x2DEC      |       11756 |
|     500 | 0x2DED      |       11757 |
|     501 | 0x2DEE      |       11758 |
|     502 | 0x09C4      |        2500 |
|     503 | 0x2DEF      |       11759 |
|     504 | 0x2DF0      |       11760 |
|     505 | 0x2DF1      |       11761 |
|     506 | 0x2DF2      |       11762 |
|     507 | 0x2DF3      |       11763 |
|     508 | 0x0105      |         261 |
|     509 | 0x2DF4      |       11764 |
|     510 | 0x2DF5      |       11765 |
|     511 | 0xFFFF1852  |  4294907986 |
|     512 | 0x482BF     |      295615 |
|     513 | 0x03F5      |        1013 |
|     514 | 0x2DF6      |       11766 |
|     515 | 0x2DF7      |       11767 |
|     516 | 0x2DF8      |       11768 |
|     517 | 0x2DF9      |       11769 |
|     518 | 0x2DFA      |       11770 |
|     519 | 0x2DFB      |       11771 |
|     520 | 0x2DFC      |       11772 |
|     521 | 0x2DFD      |       11773 |
|     522 | 0xFFFFFF24  |  4294967076 |
|     523 | 0xFFFF3CB0  |  4294917296 |
|     524 | 0xC350      |       50000 |
|     525 | 0x2DFE      |       11774 |
|     526 | 0x0190      |         400 |
|     527 | 0x2DFF      |       11775 |
|     528 | 0x2E00      |       11776 |
|     529 | 0xFFFF1A12  |  4294908434 |
|     530 | 0x4776F     |      292719 |
|     531 | 0x0CFD      |        3325 |
|     532 | 0x2E01      |       11777 |
|     533 | 0x2E02      |       11778 |
|     534 | 0x2E03      |       11779 |
|     535 | 0x2E04      |       11780 |
|     536 | 0x2E05      |       11781 |
|     537 | 0x2E06      |       11782 |
|     538 | 0x2E07      |       11783 |
|     539 | 0x2E08      |       11784 |
|     540 | 0x2E09      |       11785 |
|     541 | 0x2E0A      |       11786 |
|     542 | 0x2E0B      |       11787 |
|     543 | 0x2E0C      |       11788 |
|     544 | 0x2E0D      |       11789 |
|     545 | 0x2E0E      |       11790 |
|     546 | 0x2E0F      |       11791 |
|     547 | 0x2E10      |       11792 |
|     548 | 0x0BF8      |        3064 |
|     549 | 0x003A      |          58 |
|     550 | 0x2E11      |       11793 |
|     551 | 0xFFFF1D57  |  4294909271 |
|     552 | 0x45E3B     |      286267 |
|     553 | 0xFFFFC168  |  4294951272 |
|     554 | 0x0DD9      |        3545 |
|     555 | 0xFFFF130A  |  4294906634 |
|     556 | 0x4754D     |      292173 |
|     557 | 0x0D05      |        3333 |
|     558 | 0x0ABC      |        2748 |
|     559 | 0x0019      |          25 |
|     560 | 0x2E12      |       11794 |
|     561 | 0x2E13      |       11795 |
|     562 | 0x2E14      |       11796 |
|     563 | 0x2E15      |       11797 |
|     564 | 0x2E16      |       11798 |
|     565 | 0x2E17      |       11799 |
|     566 | 0x2E18      |       11800 |

## String References

- **11526**: Do you know about the Talekeeper? [Of course I do./No, not really.]
- **11561**: Will you help the Destiny Destroyers? [Yes, I can help you./Sorry, it's none of my business.]
- **11589**: Are you with Uran-Mafran? [Yeah, so what?/No way.]
- **11600**: What else is different? [A bandage on your face./A bandage on the back of your head./Your legs look longer.]
- **11675**: 

## Events

### Event 65535

#### Metadata

| Field        | Value     |
|--------------|-----------|
| Entrypoint   | 0x0000    |
| Data Size    | 658 bytes |
| Instructions | 1         |

```
      00 01 02 03 04 05 06 07  08 09 0A 0B 0C 0D 0E 0F
      -- -- -- -- -- -- -- --  -- -- -- -- -- -- -- --
0000: 00 45 00 80 F0 FF FF 7F  F0 FF FF 7F 66 64 69 30  .E..........fdi0
0010: 01 80 55 00 80 F0 FF FF  7F F0 FF FF 7F 66 64 69  ..U..........fdi
0020: 30 1B 45 00 80 F0 FF FF  7F F0 FF FF 7F 66 64 6F  0.E..........fdo
0030: 30 01 80 55 00 80 F0 FF  FF 7F F0 FF FF 7F 66 64  0..U..........fd
0040: 6F 30 1B 45 00 80 F0 FF  FF 7F F0 FF FF 7F 66 64  o0.E..........fd
0050: 69 31 01 80 55 00 80 F0  FF FF 7F F0 FF FF 7F 66  i1..U..........f
0060: 64 69 31 1B 45 00 80 F0  FF FF 7F F0 FF FF 7F 66  di1.E..........f
0070: 64 6F 31 01 80 55 00 80  F0 FF FF 7F F0 FF FF 7F  do1..U..........
0080: 66 64 6F 31 1B 45 02 80  F0 FF FF 7F F0 FF FF 7F  fdo1.E..........
0090: 77 68 69 31 01 80 55 02  80 F0 FF FF 7F F0 FF FF  whi1..U.........
00A0: 7F 77 68 69 31 1B 45 02  80 F0 FF FF 7F F0 FF FF  .whi1.E.........
00B0: 7F 77 68 6F 31 01 80 55  02 80 F0 FF FF 7F F0 FF  .who1..U........
00C0: FF 7F 77 68 6F 31 1B 45  02 80 F0 FF FF 7F F0 FF  ..who1.E........
00D0: FF 7F 77 68 6F 32 01 80  55 02 80 F0 FF FF 7F F0  ..who2..U.......
00E0: FF FF 7F 77 68 6F 32 1B  45 02 80 F0 FF FF 7F F0  ...who2.E.......
00F0: FF FF 7F 77 68 6F 33 01  80 55 02 80 F0 FF FF 7F  ...who3..U......
0100: F0 FF FF 7F 77 68 6F 33  1B 62 03 80 F0 FF FF 7F  ....who3.b......
0110: F0 FF FF 7F 6D 61 69 6E  01 80 1C 04 80 45 00 80  ....main.....E..
0120: F0 FF FF 7F F0 FF FF 7F  66 64 6F 31 01 80 55 00  ........fdo1..U.
0130: 80 F0 FF FF 7F F0 FF FF  7F 66 64 6F 31 1B 45 00  .........fdo1.E.
0140: 80 F0 FF FF 7F F0 FF FF  7F 66 64 69 31 01 80 62  .........fdi1..b
0150: 05 80 F0 FF FF 7F F0 FF  FF 7F 6D 61 69 6E 01 80  ..........main..
0160: 1C 06 80 55 00 80 F0 FF  FF 7F F0 FF FF 7F 66 64  ...U..........fd
0170: 69 31 1B 45 00 80 F0 FF  FF 7F F0 FF FF 7F 62 6C  i1.E..........bl
0180: 6F 6E 01 80 45 02 80 F0  FF FF 7F F0 FF FF 7F 62  on..E..........b
0190: 6C 6F 6E 01 80 1B 45 02  80 F0 FF FF 7F F0 FF FF  lon...E.........
01A0: 7F 77 68 69 30 01 80 55  02 80 F0 FF FF 7F F0 FF  .whi0..U........
01B0: FF 7F 77 68 69 30 1B 45  02 80 F0 FF FF 7F F0 FF  ..whi0.E........
01C0: FF 7F 77 68 6F 30 01 80  55 02 80 F0 FF FF 7F F0  ..who0..U.......
01D0: FF FF 7F 77 68 6F 30 1B  45 07 80 F0 FF FF 7F F0  ...who0.E.......
01E0: FF FF 7F 65 66 6F 6E 01  80 55 07 80 F0 FF FF 7F  ...efon..U......
01F0: F0 FF FF 7F 65 66 6F 6E  1B 45 00 80 F0 FF FF 7F  ....efon.E......
0200: F0 FF FF 7F 66 64 69 73  01 80 1B 45 00 80 F0 FF  ....fdis...E....
0210: FF 7F F0 FF FF 7F 66 64  6F 73 01 80 55 00 80 F0  ......fdos..U...
0220: FF FF 7F F0 FF FF 7F 66  64 6F 73 1B 45 00 80 F0  .......fdos.E...
0230: FF FF 7F F0 FF FF 7F 66  64 69 66 01 80 1B 45 00  .......fdif...E.
0240: 80 F0 FF FF 7F F0 FF FF  7F 66 64 6F 66 01 80 55  .........fdof..U
0250: 00 80 F0 FF FF 7F F0 FF  FF 7F 66 64 6F 66 1B 45  ..........fdof.E
0260: 00 80 F0 FF FF 7F F0 FF  FF 7F 66 64 69 70 01 80  ..........fdip..
0270: 1B 45 00 80 F0 FF FF 7F  F0 FF FF 7F 66 64 6F 70  .E..........fdop
0280: 01 80 55 00 80 F0 FF FF  7F F0 FF FF 7F 66 64 6F  ..U..........fdo
0290: 70 1B                                             p.              
```

#### Opcodes

```
  0: 0x0000 [0x00] END_REQSTACK()
```

#### Data or dead code:

```
# Dead code (unreachable instructions):
     0x0001 [0x45] LOAD_SCHEDULED_TASK: Load scheduler "fdi0" with entities [LocalPlayer, LocalPlayer], work=[200*, 0*]
     0x0012 [0x55] WAIT_LOAD_SCHEDULER: Wait for scheduler "fdi0" with entities [LocalPlayer, LocalPlayer], work=200*
     0x0021 [0x1B] RETURN
     0x0022 [0x45] LOAD_SCHEDULED_TASK: Load scheduler "fdo0" with entities [LocalPlayer, LocalPlayer], work=[200*, 0*]
     0x0033 [0x55] WAIT_LOAD_SCHEDULER: Wait for scheduler "fdo0" with entities [LocalPlayer, LocalPlayer], work=200*
     0x0042 [0x1B] RETURN
     0x0043 [0x45] LOAD_SCHEDULED_TASK: Load scheduler "fdi1" with entities [LocalPlayer, LocalPlayer], work=[200*, 0*]
     0x0054 [0x55] WAIT_LOAD_SCHEDULER: Wait for scheduler "fdi1" with entities [LocalPlayer, LocalPlayer], work=200*
     0x0063 [0x1B] RETURN
     0x0064 [0x45] LOAD_SCHEDULED_TASK: Load scheduler "fdo1" with entities [LocalPlayer, LocalPlayer], work=[200*, 0*]
     0x0075 [0x55] WAIT_LOAD_SCHEDULER: Wait for scheduler "fdo1" with entities [LocalPlayer, LocalPlayer], work=200*
     0x0084 [0x1B] RETURN
     0x0085 [0x45] LOAD_SCHEDULED_TASK: Load scheduler "whi1" with entities [LocalPlayer, LocalPlayer], work=[201*, 0*]
     0x0096 [0x55] WAIT_LOAD_SCHEDULER: Wait for scheduler "whi1" with entities [LocalPlayer, LocalPlayer], work=201*
     0x00A5 [0x1B] RETURN
     0x00A6 [0x45] LOAD_SCHEDULED_TASK: Load scheduler "who1" with entities [LocalPlayer, LocalPlayer], work=[201*, 0*]
     0x00B7 [0x55] WAIT_LOAD_SCHEDULER: Wait for scheduler "who1" with entities [LocalPlayer, LocalPlayer], work=201*
     0x00C6 [0x1B] RETURN
     0x00C7 [0x45] LOAD_SCHEDULED_TASK: Load scheduler "who2" with entities [LocalPlayer, LocalPlayer], work=[201*, 0*]
     0x00D8 [0x55] WAIT_LOAD_SCHEDULER: Wait for scheduler "who2" with entities [LocalPlayer, LocalPlayer], work=201*
     0x00E7 [0x1B] RETURN
     0x00E8 [0x45] LOAD_SCHEDULED_TASK: Load scheduler "who3" with entities [LocalPlayer, LocalPlayer], work=[201*, 0*]
     0x00F9 [0x55] WAIT_LOAD_SCHEDULER: Wait for scheduler "who3" with entities [LocalPlayer, LocalPlayer], work=201*
     0x0108 [0x1B] RETURN
     0x0109 [0x62] LOAD_EVENT_SCHEDULER: Load scheduler "main" with entities [LocalPlayer, LocalPlayer], work=[1*, 0*]
     0x011A [0x1C] WAIT(45* ticks)
     0x011D [0x45] LOAD_SCHEDULED_TASK: Load scheduler "fdo1" with entities [LocalPlayer, LocalPlayer], work=[200*, 0*]
     0x012E [0x55] WAIT_LOAD_SCHEDULER: Wait for scheduler "fdo1" with entities [LocalPlayer, LocalPlayer], work=200*
     0x013D [0x1B] RETURN
     0x013E [0x45] LOAD_SCHEDULED_TASK: Load scheduler "fdi1" with entities [LocalPlayer, LocalPlayer], work=[200*, 0*]
     0x014F [0x62] LOAD_EVENT_SCHEDULER: Load scheduler "main" with entities [LocalPlayer, LocalPlayer], work=[2*, 0*]
     0x0160 [0x1C] WAIT(30* ticks)
     0x0163 [0x55] WAIT_LOAD_SCHEDULER: Wait for scheduler "fdi1" with entities [LocalPlayer, LocalPlayer], work=200*
     0x0172 [0x1B] RETURN
     0x0173 [0x45] LOAD_SCHEDULED_TASK: Load scheduler "blon" with entities [LocalPlayer, LocalPlayer], work=[200*, 0*]
     0x0184 [0x45] LOAD_SCHEDULED_TASK: Load scheduler "blon" with entities [LocalPlayer, LocalPlayer], work=[201*, 0*]
     0x0195 [0x1B] RETURN
     0x0196 [0x45] LOAD_SCHEDULED_TASK: Load scheduler "whi0" with entities [LocalPlayer, LocalPlayer], work=[201*, 0*]
     0x01A7 [0x55] WAIT_LOAD_SCHEDULER: Wait for scheduler "whi0" with entities [LocalPlayer, LocalPlayer], work=201*
     0x01B6 [0x1B] RETURN
     0x01B7 [0x45] LOAD_SCHEDULED_TASK: Load scheduler "who0" with entities [LocalPlayer, LocalPlayer], work=[201*, 0*]
     0x01C8 [0x55] WAIT_LOAD_SCHEDULER: Wait for scheduler "who0" with entities [LocalPlayer, LocalPlayer], work=201*
     0x01D7 [0x1B] RETURN
     0x01D8 [0x45] LOAD_SCHEDULED_TASK: Load scheduler "efon" with entities [LocalPlayer, LocalPlayer], work=[215*, 0*]
     0x01E9 [0x55] WAIT_LOAD_SCHEDULER: Wait for scheduler "efon" with entities [LocalPlayer, LocalPlayer], work=215*
     0x01F8 [0x1B] RETURN
     0x01F9 [0x45] LOAD_SCHEDULED_TASK: Load scheduler "fdis" with entities [LocalPlayer, LocalPlayer], work=[200*, 0*]
     0x020A [0x1B] RETURN
     0x020B [0x45] LOAD_SCHEDULED_TASK: Load scheduler "fdos" with entities [LocalPlayer, LocalPlayer], work=[200*, 0*]
     0x021C [0x55] WAIT_LOAD_SCHEDULER: Wait for scheduler "fdos" with entities [LocalPlayer, LocalPlayer], work=200*
     0x022B [0x1B] RETURN
     0x022C [0x45] LOAD_SCHEDULED_TASK: Load scheduler "fdif" with entities [LocalPlayer, LocalPlayer], work=[200*, 0*]
     0x023D [0x1B] RETURN
     0x023E [0x45] LOAD_SCHEDULED_TASK: Load scheduler "fdof" with entities [LocalPlayer, LocalPlayer], work=[200*, 0*]
     0x024F [0x55] WAIT_LOAD_SCHEDULER: Wait for scheduler "fdof" with entities [LocalPlayer, LocalPlayer], work=200*
     0x025E [0x1B] RETURN
     0x025F [0x45] LOAD_SCHEDULED_TASK: Load scheduler "fdip" with entities [LocalPlayer, LocalPlayer], work=[200*, 0*]
     0x0270 [0x1B] RETURN
     0x0271 [0x45] LOAD_SCHEDULED_TASK: Load scheduler "fdop" with entities [LocalPlayer, LocalPlayer], work=[200*, 0*]
     0x0282 [0x55] WAIT_LOAD_SCHEDULER: Wait for scheduler "fdop" with entities [LocalPlayer, LocalPlayer], work=200*
     0x0291 [0x1B] RETURN
```

### Event 104

#### Metadata

| Field        | Value      |
|--------------|------------|
| Entrypoint   | 0x0292     |
| Data Size    | 5667 bytes |
| Instructions | 766        |

```
      00 01 02 03 04 05 06 07  08 09 0A 0B 0C 0D 0E 0F
      -- -- -- -- -- -- -- --  -- -- -- -- -- -- -- --
0290:       42 03 01 00 03 10  03 02 00 01 80 5D 01 80    B..........]..
02A0: 08 80 1A 64 00 46 01 38  09 80 2F 00 63 02 0D 01  ...d.F.8../.c...
02B0: 2F 00 66 02 0D 01 2F 00  67 02 0D 01 4E 00 63 02  /.f.../.g...N.c.
02C0: 0D 01 4E 00 66 02 0D 01  4E 00 67 02 0D 01 92 01  ..N.f...N.g.....
02D0: 66 02 0D 01 92 01 63 02  0D 01 92 01 67 02 0D 01  f.....c.....g...
02E0: 29 10 66 02 0D 01 10 BA  F0 FF FF 7F 0A 80 0B 80  ).f.............
02F0: 01 80 0C 80 BA 63 02 0D  01 0D 80 0E 80 0F 80 10  .....c..........
0300: 80 BA 66 02 0D 01 11 80  12 80 01 80 13 80 59 05  ..f...........Y.
0310: F8 FF FF 7F 01 59 05 67  02 0D 01 01 BA F8 FF FF  .....Y.g........
0320: 7F 14 80 15 80 16 80 17  80 BA 67 02 0D 01 18 80  ..........g.....
0330: 19 80 1A 80 1B 80 59 05  F8 FF FF 7F 01 80 63 02  ......Y.......c.
0340: 0D 01 80 66 02 0D 01 80  67 02 0D 01 29 0F F0 FF  ...f....g...)...
0350: FF 7F 04 02 02 00 05 80  03 69 03 29 0F 66 02 0D  .........i.).f..
0360: 01 01 29 0F 66 02 0D 01  02 02 02 00 01 80 00 DE  ..).f...........
0370: 0B 66 1C 80 67 02 0D 01  67 02 0D 01 77 6F 66 32  .f..g...g...wof2
0380: 9F 1D 80 67 02 0D 01 67  02 0D 01 00 FE FE FE 01  ...g...g........
0390: 80 66 1E 80 67 02 0D 01  67 02 0D 01 00 FE FE FE  .f..g...g.......
03A0: 6C 66 02 0D 01 01 80 03  80 6C 67 02 0D 01 01 80  lf.......lg.....
03B0: 03 80 5C 00 1F 80 5C 01  1F 80 9A 5D 20 80 03 80  ..\...\....] ...
03C0: 45 21 80 F8 FF FF 7F F8  FF FF 7F 73 30 30 30 01  E!.........s000.
03D0: 80 1A 43 00 79 00 F0 FF  FF 7F F8 FF FF 7F 1C 22  ..C.y.........."
03E0: 80 52 21 80 F8 FF FF 7F  F8 FF FF 7F 73 30 30 30  .R!.........s000
03F0: 45 21 80 F8 FF FF 7F F8  FF FF 7F 73 30 30 31 01  E!.........s001.
0400: 80 1C 00 80 29 0F 1F 02  0D 01 02 52 21 80 F8 FF  ....)......R!...
0410: FF 7F F8 FF FF 7F 73 30  30 31 45 21 80 F8 FF FF  ......s001E!....
0420: 7F F8 FF FF 7F 73 30 30  32 01 80 27 0F 63 02 0D  .....s002..'.c..
0430: 01 1B 79 00 63 02 0D 01  F0 FF FF 7F 1C 06 80 4A  ..y.c..........J
0440: F0 FF FF 7F 63 02 0D 01  6F 76 F0 FF FF 7F 1C 23  ....c...ov.....#
0450: 80 1C 23 80 52 21 80 F8  FF FF 7F F8 FF FF 7F 73  ..#.R!.........s
0460: 30 30 32 45 21 80 F8 FF  FF 7F F8 FF FF 7F 73 30  002E!.........s0
0470: 30 33 01 80 29 0F 1F 02  0D 01 03 2A 0F 63 02 0D  03..)......*.c..
0480: 01 2B 63 02 0D 01 24 80  23 52 21 80 F8 FF FF 7F  .+c...$.#R!.....
0490: F8 FF FF 7F 73 30 30 33  45 21 80 F8 FF FF 7F F8  ....s003E!......
04A0: FF FF 7F 73 30 30 34 01  80 79 00 63 02 0D 01 F8  ...s004..y.c....
04B0: FF FF 7F 2B 63 02 0D 01  25 80 1C 06 80 4B F0 FF  ...+c...%....K..
04C0: FF 7F 26 80 6F 76 F0 FF  FF 7F 79 00 F0 FF FF 7F  ..&.ov....y.....
04D0: F8 FF FF 7F 23 4A 63 02  0D 01 F0 FF FF 7F 6F 76  ....#Jc.......ov
04E0: 63 02 0D 01 52 21 80 F8  FF FF 7F F8 FF FF 7F 73  c...R!.........s
04F0: 30 30 34 02 09 10 27 80  00 18 05 45 21 80 F8 FF  004...'....E!...
0500: FF 7F F8 FF FF 7F 73 30  34 32 01 80 4A F0 FF FF  ......s042..J...
0510: 7F 63 02 0D 01 01 4E 05  02 09 10 28 80 00 3D 05  .c....N....(..=.
0520: 45 21 80 F8 FF FF 7F F8  FF FF 7F 73 30 34 32 01  E!.........s042.
0530: 80 4A F0 FF FF 7F 63 02  0D 01 01 4E 05 45 21 80  .J....c....N.E!.
0540: F8 FF FF 7F F8 FF FF 7F  73 30 30 35 01 80 2B 63  ........s005..+c
0550: 02 0D 01 29 80 1C 23 80  4B F0 FF FF 7F 2A 80 6F  ...)..#.K....*.o
0560: 76 F0 FF FF 7F 79 00 F0  FF FF 7F 63 02 0D 01 23  v....y.....c...#
0570: 24 2B 80 01 80 01 80 25  02 00 10 01 80 00 52 06  $+.....%......R.
0580: 6E F0 FF FF 7F 2C 80 99  F0 FF FF 7F 1C 2D 80 02  n....,.......-..
0590: 09 10 27 80 00 AF 05 52  21 80 F8 FF FF 7F F8 FF  ..'....R!.......
05A0: FF 7F 73 30 34 32 6F 76  F0 FF FF 7F 01 DE 05 02  ..s042ov........
05B0: 09 10 28 80 00 CF 05 52  21 80 F8 FF FF 7F F8 FF  ..(....R!.......
05C0: FF 7F 73 30 34 32 6F 76  F0 FF FF 7F 01 DE 05 52  ..s042ov.......R
05D0: 21 80 F8 FF FF 7F F8 FF  FF 7F 73 30 30 35 45 21  !.........s005E!
05E0: 80 F8 FF FF 7F F8 FF FF  7F 73 30 30 36 01 80 2B  .........s006..+
05F0: 63 02 0D 01 2E 80 23 52  21 80 F8 FF FF 7F F8 FF  c.....#R!.......
0600: FF 7F 73 30 30 36 02 09  10 27 80 00 22 06 45 21  ..s006...'..".E!
0610: 80 F8 FF FF 7F F8 FF FF  7F 73 30 34 34 01 80 01  .........s044...
0620: 4F 06 02 09 10 28 80 00  3E 06 45 21 80 F8 FF FF  O....(..>.E!....
0630: 7F F8 FF FF 7F 73 30 34  34 01 80 01 4F 06 45 21  .....s044...O.E!
0640: 80 F8 FF FF 7F F8 FF FF  7F 73 30 30 37 01 80 01  .........s007...
0650: 31 07 02 00 10 03 80 00  31 07 6E F0 FF FF 7F 28  1.......1.n....(
0660: 80 99 F0 FF FF 7F 1C 2F  80 45 21 80 F8 FF FF 7F  ......./.E!.....
0670: F8 FF FF 7F 73 30 30 36  01 80 29 0F 63 02 0D 01  ....s006..).c...
0680: 01 2B 63 02 0D 01 30 80  23 2B 63 02 0D 01 31 80  .+c...0.#+c...1.
0690: 23 29 0F 63 02 0D 01 02  52 21 80 F8 FF FF 7F F8  #).c....R!......
06A0: FF FF 7F 73 30 30 36 45  21 80 F8 FF FF 7F F8 FF  ...s006E!.......
06B0: FF 7F 73 30 31 30 01 80  29 0F 63 02 0D 01 03 2B  ..s010..).c....+
06C0: 63 02 0D 01 32 80 23 29  0F 63 02 0D 01 04 2B 63  c...2.#).c....+c
06D0: 02 0D 01 33 80 23 52 21  80 F8 FF FF 7F F8 FF FF  ...3.#R!........
06E0: 7F 73 30 31 30 02 09 10  27 80 00 01 07 45 21 80  .s010...'....E!.
06F0: F8 FF FF 7F F8 FF FF 7F  73 30 34 34 01 80 01 2E  ........s044....
0700: 07 02 09 10 28 80 00 1D  07 45 21 80 F8 FF FF 7F  ....(....E!.....
0710: F8 FF FF 7F 73 30 34 34  01 80 01 2E 07 45 21 80  ....s044.....E!.
0720: F8 FF FF 7F F8 FF FF 7F  73 30 30 37 01 80 01 31  ........s007...1
0730: 07 7B 63 02 0D 01 29 0F  63 02 0D 01 13 02 01 00  .{c...).c.......
0740: 01 80 00 50 07 2B 63 02  0D 01 34 80 23 01 58 07  ...P.+c...4.#.X.
0750: 2B 63 02 0D 01 35 80 23  29 0F 63 02 0D 01 14 02  +c...5.#).c.....
0760: 09 10 27 80 00 79 07 52  21 80 F8 FF FF 7F F8 FF  ..'..y.R!.......
0770: FF 7F 73 30 34 34 01 A2  07 02 09 10 28 80 00 93  ..s044......(...
0780: 07 52 21 80 F8 FF FF 7F  F8 FF FF 7F 73 30 34 34  .R!.........s044
0790: 01 A2 07 52 21 80 F8 FF  FF 7F F8 FF FF 7F 73 30  ...R!.........s0
07A0: 30 37 45 21 80 F8 FF FF  7F F8 FF FF 7F 73 30 31  07E!.........s01
07B0: 32 01 80 5D 01 80 36 80  7B 63 02 0D 01 29 0F 63  2..]..6.{c...).c
07C0: 02 0D 01 11 2B 63 02 0D  01 37 80 23 29 0F 63 02  ....+c...7.#).c.
07D0: 0D 01 12 52 21 80 F8 FF  FF 7F F8 FF FF 7F 73 30  ...R!.........s0
07E0: 31 32 45 21 80 F8 FF FF  7F F8 FF FF 7F 73 30 30  12E!.........s00
07F0: 38 01 80 6C 66 02 0D 01  38 80 03 80 45 21 80 F8  8..lf...8...E!..
0800: FF FF 7F F8 FF FF 7F 38  31 36 30 01 80 45 21 80  .......8160..E!.
0810: F8 FF FF 7F F8 FF FF 7F  31 30 31 34 01 80 2B 66  ........1014..+f
0820: 02 0D 01 39 80 23 1C 06  80 6E F0 FF FF 7F 3A 80  ...9.#...n....:.
0830: 99 F0 FF FF 7F 29 0F 63  02 0D 01 11 1C 3B 80 52  .....).c.....;.R
0840: 21 80 F8 FF FF 7F F8 FF  FF 7F 73 30 30 38 45 21  !.........s008E!
0850: 80 F8 FF FF 7F F8 FF FF  7F 73 30 30 39 01 80 4A  .........s009..J
0860: 63 02 0D 01 66 02 0D 01  27 0F 63 02 0D 01 19 4A  c...f...'.c....J
0870: F0 FF FF 7F 66 02 0D 01  2A 0F 63 02 0D 01 6F 76  ....f...*.c...ov
0880: 63 02 0D 01 27 0F 63 02  0D 01 1C 6F 76 F0 FF FF  c...'.c....ov...
0890: 7F 1C 2D 80 52 21 80 F8  FF FF 7F F8 FF FF 7F 73  ..-.R!.........s
08A0: 30 30 39 45 21 80 F8 FF  FF 7F F8 FF FF 7F 73 30  009E!.........s0
08B0: 31 31 01 80 2A 0F 63 02  0D 01 4A 63 02 0D 01 66  11..*.c...Jc...f
08C0: 02 0D 01 6F 76 63 02 0D  01 2B 63 02 0D 01 3C 80  ...ovc...+c...<.
08D0: 23 52 21 80 F8 FF FF 7F  F8 FF FF 7F 73 30 31 31  #R!.........s011
08E0: 45 21 80 F8 FF FF 7F F8  FF FF 7F 73 30 31 33 01  E!.........s013.
08F0: 80 4A 63 02 0D 01 F0 FF  FF 7F 6F 76 63 02 0D 01  .Jc.......ovc...
0900: 29 0F 63 02 0D 01 09 2B  63 02 0D 01 3D 80 27 0F  ).c....+c...=.'.
0910: F0 FF FF 7F 07 29 0F 66  02 0D 01 03 29 0F 63 02  .....).f....).c.
0920: 0D 01 0A 52 21 80 F8 FF  FF 7F F8 FF FF 7F 73 30  ...R!.........s0
0930: 31 33 45 21 80 F8 FF FF  7F F8 FF FF 7F 73 30 31  13E!.........s01
0940: 34 01 80 29 0F 66 02 0D  01 04 4B 66 02 0D 01 3E  4..).f....Kf...>
0950: 80 6F 76 66 02 0D 01 23  29 0F 63 02 0D 01 0B 45  .ovf...#).c....E
0960: 21 80 F8 FF FF 7F F8 FF  FF 7F 38 31 36 30 01 80  !.........8160..
0970: 2B 66 02 0D 01 3F 80 4A  63 02 0D 01 66 02 0D 01  +f...?.Jc...f...
0980: 6F 76 63 02 0D 01 23 2A  0F F0 FF FF 7F 52 21 80  ovc...#*.....R!.
0990: F8 FF FF 7F F8 FF FF 7F  73 30 31 34 45 21 80 F8  ........s014E!..
09A0: FF FF 7F F8 FF FF 7F 73  30 31 35 01 80 29 10 66  .......s015..).f
09B0: 02 0D 01 11 27 0F 66 02  0D 01 13 5C 00 40 80 5C  ....'.f....\.@.\
09C0: 01 40 80 9A 5D 20 80 03  80 2A 0F 66 02 0D 01 4A  .@..] ...*.f...J
09D0: 63 02 0D 01 66 02 0D 01  29 0F 66 02 0D 01 0A 2B  c...f...).f....+
09E0: 66 02 0D 01 41 80 23 6F  76 63 02 0D 01 52 21 80  f...A.#ovc...R!.
09F0: F8 FF FF 7F F8 FF FF 7F  73 30 31 35 45 21 80 F8  ........s015E!..
0A00: FF FF 7F F8 FF FF 7F 73  30 31 36 01 80 4A F0 FF  .......s016..J..
0A10: FF 7F 66 02 0D 01 2B 66  02 0D 01 42 80 23 29 0F  ..f...+f...B.#).
0A20: 66 02 0D 01 0B 29 0F 63  02 0D 01 0C 2B 63 02 0D  f....).c....+c..
0A30: 01 43 80 23 6F 76 F0 FF  FF 7F 52 21 80 F8 FF FF  .C.#ov....R!....
0A40: 7F F8 FF FF 7F 73 30 31  36 02 09 10 27 80 00 65  .....s016...'..e
0A50: 0A 45 21 80 F8 FF FF 7F  F8 FF FF 7F 73 30 34 33  .E!.........s043
0A60: 01 80 01 92 0A 02 09 10  28 80 00 81 0A 45 21 80  ........(....E!.
0A70: F8 FF FF 7F F8 FF FF 7F  73 30 34 33 01 80 01 92  ........s043....
0A80: 0A 45 21 80 F8 FF FF 7F  F8 FF FF 7F 73 30 31 37  .E!.........s017
0A90: 01 80 29 0F 66 02 0D 01  01 45 21 80 F8 FF FF 7F  ..).f....E!.....
0AA0: F8 FF FF 7F 31 30 31 34  01 80 2B 66 02 0D 01 44  ....1014..+f...D
0AB0: 80 23 2B 66 02 0D 01 45  80 23 29 0F 66 02 0D 01  .#+f...E.#).f...
0AC0: 02 5D 46 80 08 80 1A 64  00 02 09 10 27 80 00 E3  .]F....d....'...
0AD0: 0A 52 21 80 F8 FF FF 7F  F8 FF FF 7F 73 30 34 33  .R!.........s043
0AE0: 01 0C 0B 02 09 10 28 80  00 FD 0A 52 21 80 F8 FF  ......(....R!...
0AF0: FF 7F F8 FF FF 7F 73 30  34 33 01 0C 0B 52 21 80  ......s043...R!.
0B00: F8 FF FF 7F F8 FF FF 7F  73 30 31 37 6C 67 02 0D  ........s017lg..
0B10: 01 38 80 03 80 C5 47 80  67 02 0D 01 67 02 0D 01  .8....G.g...g...
0B20: 73 30 30 30 01 80 9F 1D  80 67 02 0D 01 67 02 0D  s000.....g...g..
0B30: 01 00 FE FE FE 01 80 66  1E 80 67 02 0D 01 67 02  .......f..g...g.
0B40: 0D 01 00 FE FE FE 1C 03  80 27 0F 67 02 0D 01 5C  .........'.g...\
0B50: 45 21 80 F8 FF FF 7F F8  FF FF 7F 73 30 31 38 01  E!.........s018.
0B60: 80 1C 27 80 1A 43 00 2B  66 02 0D 01 48 80 23 2A  ..'..C.+f...H.#*
0B70: 0F 67 02 0D 01 9F 1D 80  67 02 0D 01 67 02 0D 01  .g......g...g...
0B80: 6D 61 69 6E 01 80 1C 03  80 27 0F 67 02 0D 01 1B  main.....'.g....
0B90: 2B 66 02 0D 01 49 80 2A  0F 67 02 0D 01 1A B7 01  +f...I.*.g......
0BA0: 1C 2D 80 1A 64 00 1A 85  00 23 52 21 80 F8 FF FF  .-..d....#R!....
0BB0: 7F F8 FF FF 7F 73 30 31  38 C5 47 80 67 02 0D 01  .....s018.G.g...
0BC0: 67 02 0D 01 6B 69 6C 30  01 80 6C 67 02 0D 01 01  g...kil0..lg....
0BD0: 80 03 80 2B 66 02 0D 01  4A 80 23 01 3A 0C 02 02  ...+f...J.#.:...
0BE0: 00 03 80 00 3A 0C BA 66  02 0D 01 4B 80 4C 80 01  ....:..f...K.L..
0BF0: 80 4D 80 BA 63 02 0D 01  4E 80 4F 80 01 80 50 80  .M..c...N.O...P.
0C00: BA F0 FF FF 7F 51 80 52  80 01 80 53 80 4A 63 02  .....Q.R...S.Jc.
0C10: 0D 01 66 02 0D 01 4A 66  02 0D 01 63 02 0D 01 4A  ..f...Jf...c...J
0C20: F0 FF FF 7F 66 02 0D 01  6F 76 63 02 0D 01 6F 76  ....f...ovc...ov
0C30: 66 02 0D 01 6F 76 F0 FF  FF 7F 02 02 00 05 80 03  f...ov..........
0C40: 41 15 5D 20 80 08 80 45  21 80 F8 FF FF 7F F8 FF  A.] ...E!.......
0C50: FF 7F 73 30 31 39 01 80  1A 43 00 29 0F 66 02 0D  ..s019...C.).f..
0C60: 01 08 2B 66 02 0D 01 54  80 23 2B 66 02 0D 01 55  ..+f...T.#+f...U
0C70: 80 23 29 0F 66 02 0D 01  09 29 0F 63 02 0D 01 11  .#).f....).c....
0C80: 2B 63 02 0D 01 56 80 23  52 21 80 F8 FF FF 7F F8  +c...V.#R!......
0C90: FF FF 7F 73 30 31 39 45  21 80 F8 FF FF 7F F8 FF  ...s019E!.......
0CA0: FF 7F 73 30 32 30 01 80  2B 66 02 0D 01 57 80 29  ..s020..+f...W.)
0CB0: 0F 63 02 0D 01 12 27 0F  63 02 0D 01 19 23 52 21  .c....'.c....#R!
0CC0: 80 F8 FF FF 7F F8 FF FF  7F 73 30 32 30 02 09 10  .........s020...
0CD0: 27 80 00 E9 0C 45 21 80  F8 FF FF 7F F8 FF FF 7F  '....E!.........
0CE0: 73 30 34 35 01 80 01 16  0D 02 09 10 28 80 00 05  s045........(...
0CF0: 0D 45 21 80 F8 FF FF 7F  F8 FF FF 7F 73 30 34 35  .E!.........s045
0D00: 01 80 01 16 0D 45 21 80  F8 FF FF 7F F8 FF FF 7F  .....E!.........
0D10: 73 30 32 31 01 80 2B 63  02 0D 01 58 80 23 2A 0F  s021..+c...X.#*.
0D20: 63 02 0D 01 02 09 10 27  80 00 3E 0D 52 21 80 F8  c......'..>.R!..
0D30: FF FF 7F F8 FF FF 7F 73  30 34 35 01 67 0D 02 09  .......s045.g...
0D40: 10 28 80 00 58 0D 52 21  80 F8 FF FF 7F F8 FF FF  .(..X.R!........
0D50: 7F 73 30 34 35 01 67 0D  52 21 80 F8 FF FF 7F F8  .s045.g.R!......
0D60: FF FF 7F 73 30 32 31 45  21 80 F8 FF FF 7F F8 FF  ...s021E!.......
0D70: FF 7F 73 30 32 32 01 80  29 0F 66 02 0D 01 03 2B  ..s022..).f....+
0D80: 66 02 0D 01 59 80 23 29  0F 66 02 0D 01 04 7B 63  f...Y.#).f....{c
0D90: 02 0D 01 29 0F 63 02 0D  01 13 2B 63 02 0D 01 5A  ...).c....+c...Z
0DA0: 80 1C 23 80 79 00 F0 FF  FF 7F 63 02 0D 01 23 52  ..#.y.....c...#R
0DB0: 21 80 F8 FF FF 7F F8 FF  FF 7F 73 30 32 32 45 21  !.........s022E!
0DC0: 80 F8 FF FF 7F F8 FF FF  7F 73 30 32 33 01 80 27  .........s023..'
0DD0: 0F 66 02 0D 01 14 79 00  F0 FF FF 7F 66 02 0D 01  .f....y.....f...
0DE0: 2B 66 02 0D 01 5B 80 23  2A 0F 66 02 0D 01 29 0F  +f...[.#*.f...).
0DF0: 63 02 0D 01 14 29 0F 63  02 0D 01 15 29 0F 66 02  c....).c....).f.
0E00: 0D 01 0A 2B 66 02 0D 01  5C 80 29 0F 63 02 0D 01  ...+f...\.).c...
0E10: 16 4A F0 FF FF 7F 66 02  0D 01 4A 63 02 0D 01 66  .J....f...Jc...f
0E20: 02 0D 01 6F 76 63 02 0D  01 6F 76 F0 FF FF 7F 23  ...ovc...ov....#
0E30: 29 0F 66 02 0D 01 0B 52  21 80 F8 FF FF 7F F8 FF  ).f....R!.......
0E40: FF 7F 73 30 32 33 45 21  80 F8 FF FF 7F F8 FF FF  ..s023E!........
0E50: 7F 73 30 32 34 01 80 29  0F 66 02 0D 01 0C 2B 66  .s024..).f....+f
0E60: 02 0D 01 5D 80 29 0F 66  02 0D 01 0D 4A 66 02 0D  ...].).f....Jf..
0E70: 01 63 02 0D 01 6F 76 66  02 0D 01 23 2B 66 02 0D  .c...ovf...#+f..
0E80: 01 5E 80 23 27 0F 66 02  0D 01 15 1C 06 80 52 21  .^.#'.f.......R!
0E90: 80 F8 FF FF 7F F8 FF FF  7F 73 30 32 34 45 21 80  .........s024E!.
0EA0: F8 FF FF 7F F8 FF FF 7F  73 30 32 35 01 80 2B 66  ........s025..+f
0EB0: 02 0D 01 5F 80 1C 46 80  4A F0 FF FF 7F 66 02 0D  ..._..F.J....f..
0EC0: 01 1C 23 80 4A 63 02 0D  01 66 02 0D 01 6F 76 63  ..#.Jc...f...ovc
0ED0: 02 0D 01 6F 76 F0 FF FF  7F 23 2A 0F 66 02 0D 01  ...ov....#*.f...
0EE0: 52 21 80 F8 FF FF 7F F8  FF FF 7F 73 30 32 35 45  R!.........s025E
0EF0: 21 80 F8 FF FF 7F F8 FF  FF 7F 73 30 33 31 01 80  !.........s031..
0F00: 1C 03 80 BA F0 FF FF 7F  60 80 61 80 01 80 62 80  ........`.a...b.
0F10: 4A F0 FF FF 7F 66 02 0D  01 2B 66 02 0D 01 63 80  J....f...+f...c.
0F20: 23 6F 76 F0 FF FF 7F 52  21 80 F8 FF FF 7F F8 FF  #ov....R!.......
0F30: FF 7F 73 30 33 31 02 09  10 64 80 00 52 0F 45 21  ..s031...d..R.E!
0F40: 80 F8 FF FF 7F F8 FF FF  7F 73 30 32 36 01 80 01  .........s026...
0F50: B7 0F 02 09 10 27 80 00  6E 0F 45 21 80 F8 FF FF  .....'..n.E!....
0F60: 7F F8 FF FF 7F 73 30 34  36 01 80 01 B7 0F 02 09  .....s046.......
0F70: 10 28 80 00 8A 0F 45 21  80 F8 FF FF 7F F8 FF FF  .(....E!........
0F80: 7F 73 30 34 36 01 80 01  B7 0F 02 09 10 65 80 00  .s046........e..
0F90: A6 0F 45 21 80 F8 FF FF  7F F8 FF FF 7F 73 30 32  ..E!.........s02
0FA0: 36 01 80 01 B7 0F 45 21  80 F8 FF FF 7F F8 FF FF  6.....E!........
0FB0: 7F 73 30 35 30 01 80 4A  66 02 0D 01 F0 FF FF 7F  .s050..Jf.......
0FC0: 6F 76 66 02 0D 01 2B 66  02 0D 01 66 80 23 03 00  ovf...+f...f.#..
0FD0: 10 03 80 02 00 10 01 80  01 C3 12 24 67 80 01 80  ...........$g...
0FE0: 01 80 25 02 00 10 01 80  00 E1 10 4A 63 02 0D 01  ..%........Jc...
0FF0: F0 FF FF 7F 6E F0 FF FF  7F 2C 80 99 F0 FF FF 7F  ....n....,......
1000: 1C 2D 80 6F 76 63 02 0D  01 02 09 10 64 80 00 23  .-.ovc......d..#
1010: 10 52 21 80 F8 FF FF 7F  F8 FF FF 7F 73 30 32 36  .R!.........s026
1020: 01 80 10 02 09 10 27 80  00 3D 10 52 21 80 F8 FF  ......'..=.R!...
1030: FF 7F F8 FF FF 7F 73 30  34 36 01 80 10 02 09 10  ......s046......
1040: 28 80 00 57 10 52 21 80  F8 FF FF 7F F8 FF FF 7F  (..W.R!.........
1050: 73 30 34 36 01 80 10 02  09 10 65 80 00 71 10 52  s046......e..q.R
1060: 21 80 F8 FF FF 7F F8 FF  FF 7F 73 30 32 36 01 80  !.........s026..
1070: 10 52 21 80 F8 FF FF 7F  F8 FF FF 7F 73 30 35 30  .R!.........s050
1080: 02 09 10 27 80 00 9C 10  45 21 80 F8 FF FF 7F F8  ...'....E!......
1090: FF FF 7F 73 30 34 39 01  80 01 C9 10 02 09 10 28  ...s049........(
10A0: 80 00 B8 10 45 21 80 F8  FF FF 7F F8 FF FF 7F 73  ....E!.........s
10B0: 30 34 39 01 80 01 C9 10  45 21 80 F8 FF FF 7F F8  049.....E!......
10C0: FF FF 7F 73 30 32 38 01  80 2B 63 02 0D 01 68 80  ...s028..+c...h.
10D0: 1C 06 80 79 00 F0 FF FF  7F 63 02 0D 01 23 01 C0  ...y.....c...#..
10E0: 12 02 00 10 03 80 00 C0  12 4A 63 02 0D 01 F0 FF  .........Jc.....
10F0: FF 7F 6E F0 FF FF 7F 28  80 99 F0 FF FF 7F 1C 06  ..n....(........
1100: 80 29 0F 66 02 0D 01 0A  1C 06 80 6F 76 63 02 0D  .).f.......ovc..
1110: 01 02 09 10 27 80 00 2B  11 52 21 80 F8 FF FF 7F  ....'..+.R!.....
1120: F8 FF FF 7F 73 30 34 36  01 54 11 02 09 10 28 80  ....s046.T....(.
1130: 00 45 11 52 21 80 F8 FF  FF 7F F8 FF FF 7F 73 30  .E.R!.........s0
1140: 34 36 01 54 11 52 21 80  F8 FF FF 7F F8 FF FF 7F  46.T.R!.........
1150: 73 30 32 36 02 09 10 27  80 00 70 11 45 21 80 F8  s026...'..p.E!..
1160: FF FF 7F F8 FF FF 7F 73  30 34 37 01 80 01 9D 11  .......s047.....
1170: 02 09 10 28 80 00 8C 11  45 21 80 F8 FF FF 7F F8  ...(....E!......
1180: FF FF 7F 73 30 34 37 01  80 01 9D 11 45 21 80 F8  ...s047.....E!..
1190: FF FF 7F F8 FF FF 7F 73  30 32 37 01 80 29 0F 63  .......s027..).c
11A0: 02 0D 01 01 2B 63 02 0D  01 69 80 1C 06 80 4A F0  ....+c...i....J.
11B0: FF FF 7F 63 02 0D 01 6F  76 F0 FF FF 7F 23 2B 63  ...c...ov....#+c
11C0: 02 0D 01 6A 80 23 2B 63  02 0D 01 6B 80 23 29 0F  ...j.#+c...k.#).
11D0: 63 02 0D 01 02 29 0F 63  02 0D 01 03 29 0F 63 02  c....).c....).c.
11E0: 0D 01 04 29 0F 66 02 0D  01 0B 02 09 10 27 80 00  ...).f.......'..
11F0: 04 12 52 21 80 F8 FF FF  7F F8 FF FF 7F 73 30 34  ..R!.........s04
1200: 37 01 2D 12 02 09 10 28  80 00 1E 12 52 21 80 F8  7.-....(....R!..
1210: FF FF 7F F8 FF FF 7F 73  30 34 37 01 2D 12 52 21  .......s047.-.R!
1220: 80 F8 FF FF 7F F8 FF FF  7F 73 30 32 37 02 09 10  .........s027...
1230: 64 80 00 49 12 45 21 80  F8 FF FF 7F F8 FF FF 7F  d..I.E!.........
1240: 73 30 32 36 01 80 01 AE  12 02 09 10 27 80 00 65  s026........'..e
1250: 12 45 21 80 F8 FF FF 7F  F8 FF FF 7F 73 30 34 36  .E!.........s046
1260: 01 80 01 AE 12 02 09 10  28 80 00 81 12 45 21 80  ........(....E!.
1270: F8 FF FF 7F F8 FF FF 7F  73 30 34 36 01 80 01 AE  ........s046....
1280: 12 02 09 10 65 80 00 9D  12 45 21 80 F8 FF FF 7F  ....e....E!.....
1290: F8 FF FF 7F 73 30 32 36  01 80 01 AE 12 45 21 80  ....s026.....E!.
12A0: F8 FF FF 7F F8 FF FF 7F  73 30 35 30 01 80 4A F0  ........s050..J.
12B0: FF FF 7F 66 02 0D 01 6F  76 F0 FF FF 7F 01 C0 12  ...f...ov.......
12C0: 01 D3 0F 4A 66 02 0D 01  63 02 0D 01 2B 63 02 0D  ...Jf...c...+c..
12D0: 01 6C 80 23 6F 76 66 02  0D 01 02 09 10 27 80 00  .l.#ovf......'..
12E0: F4 12 52 21 80 F8 FF FF  7F F8 FF FF 7F 73 30 34  ..R!.........s04
12F0: 39 01 1D 13 02 09 10 28  80 00 0E 13 52 21 80 F8  9......(....R!..
1300: FF FF 7F F8 FF FF 7F 73  30 34 39 01 1D 13 52 21  .......s049...R!
1310: 80 F8 FF FF 7F F8 FF FF  7F 73 30 32 38 45 21 80  .........s028E!.
1320: F8 FF FF 7F F8 FF FF 7F  73 30 32 39 01 80 4A 63  ........s029..Jc
1330: 02 0D 01 66 02 0D 01 6F  76 63 02 0D 01 29 0F 63  ...f...ovc...).c
1340: 02 0D 01 01 4A F0 FF FF  7F 66 02 0D 01 2B 63 02  ....J....f...+c.
1350: 0D 01 6D 80 23 2B 63 02  0D 01 6E 80 23 6F 76 F0  ..m.#+c...n.#ov.
1360: FF FF 7F 29 0F 63 02 0D  01 02 52 21 80 F8 FF FF  ...).c....R!....
1370: 7F F8 FF FF 7F 73 30 32  39 45 21 80 F8 FF FF 7F  .....s029E!.....
1380: F8 FF FF 7F 73 30 33 30  01 80 29 0F 63 02 0D 01  ....s030..).c...
1390: 03 2B 66 02 0D 01 6F 80  23 BA F0 FF FF 7F 51 80  .+f...o.#.....Q.
13A0: 52 80 01 80 53 80 29 0F  63 02 0D 01 04 29 0F 66  R...S.).c....).f
13B0: 02 0D 01 0A 2B 66 02 0D  01 70 80 23 29 0F 66 02  ....+f...p.#).f.
13C0: 0D 01 0B 52 21 80 F8 FF  FF 7F F8 FF FF 7F 73 30  ...R!.........s0
13D0: 33 30 45 21 80 F8 FF FF  7F F8 FF FF 7F 73 30 33  30E!.........s03
13E0: 32 01 80 29 0F 63 02 0D  01 11 2B 63 02 0D 01 71  2..).c....+c...q
13F0: 80 23 52 21 80 F8 FF FF  7F F8 FF FF 7F 73 30 33  .#R!.........s03
1400: 32 45 21 80 F8 FF FF 7F  F8 FF FF 7F 73 30 33 33  2E!.........s033
1410: 01 80 27 0F 63 02 0D 01  19 4B 66 02 0D 01 72 80  ..'.c....Kf...r.
1420: 6F 76 66 02 0D 01 2B 66  02 0D 01 73 80 23 29 0F  ovf...+f...s.#).
1430: 63 02 0D 01 12 2A 0F 63  02 0D 01 29 0F 66 02 0D  c....*.c...).f..
1440: 01 01 2B 66 02 0D 01 74  80 23 29 0F 66 02 0D 01  ..+f...t.#).f...
1450: 02 52 21 80 F8 FF FF 7F  F8 FF FF 7F 73 30 33 33  .R!.........s033
1460: 45 21 80 F8 FF FF 7F F8  FF FF 7F 73 30 33 34 01  E!.........s034.
1470: 80 4A 63 02 0D 01 F0 FF  FF 7F 6F 76 63 02 0D 01  .Jc.......ovc...
1480: 29 0F 63 02 0D 01 05 2B  63 02 0D 01 75 80 1C 06  ).c....+c...u...
1490: 80 79 00 F0 FF FF 7F 63  02 0D 01 27 0F 66 02 0D  .y.....c...'.f..
14A0: 01 05 23 29 0F 63 02 0D  01 06 29 0F 63 02 0D 01  ..#).c....).c...
14B0: 07 2B 66 02 0D 01 76 80  1C 06 80 79 00 F0 FF FF  .+f...v....y....
14C0: 7F 66 02 0D 01 4A 63 02  0D 01 66 02 0D 01 6F 76  .f...Jc...f...ov
14D0: 63 02 0D 01 23 2A 0F 66  02 0D 01 52 21 80 F8 FF  c...#*.f...R!...
14E0: FF 7F F8 FF FF 7F 73 30  33 34 45 21 80 F8 FF FF  ......s034E!....
14F0: 7F F8 FF FF 7F 73 30 33  35 01 80 29 0F 63 02 0D  .....s035..).c..
1500: 01 08 7B 63 02 0D 01 29  0F 63 02 0D 01 13 79 00  ..{c...).c....y.
1510: F0 FF FF 7F 63 02 0D 01  2B 63 02 0D 01 77 80 23  ....c...+c...w.#
1520: 2B 63 02 0D 01 78 80 23  29 0F 63 02 0D 01 14 52  +c...x.#).c....R
1530: 21 80 F8 FF FF 7F F8 FF  FF 7F 73 30 33 35 01 98  !.........s035..
1540: 15 BA 66 02 0D 01 79 80  7A 80 01 80 7B 80 BA 63  ..f...y.z...{..c
1550: 02 0D 01 4E 80 4F 80 01  80 50 80 BA F0 FF FF 7F  ...N.O...P......
1560: 51 80 52 80 01 80 53 80  4A 63 02 0D 01 66 02 0D  Q.R...S.Jc...f..
1570: 01 4A 66 02 0D 01 F0 FF  FF 7F 4A F0 FF FF 7F 66  .Jf.......J....f
1580: 02 0D 01 6F 76 63 02 0D  01 6F 76 66 02 0D 01 6F  ...ovc...ovf...o
1590: 76 F0 FF FF 7F 1A 43 00  45 21 80 F8 FF FF 7F F8  v.....C.E!......
15A0: FF FF 7F 73 30 33 36 01  80 29 0F 63 02 0D 01 15  ...s036..).c....
15B0: 2B 66 02 0D 01 7C 80 1C  23 80 79 00 F0 FF FF 7F  +f...|..#.y.....
15C0: 66 02 0D 01 29 0F 63 02  0D 01 16 79 00 63 02 0D  f...).c....y.c..
15D0: 01 66 02 0D 01 23 4A 63  02 0D 01 F0 FF FF 7F 6F  .f...#Jc.......o
15E0: 76 63 02 0D 01 29 0F 63  02 0D 01 09 2B 63 02 0D  vc...).c....+c..
15F0: 01 7D 80 1C 06 80 4A F0  FF FF 7F 63 02 0D 01 6F  .}....J....c...o
1600: 76 F0 FF FF 7F 4A 66 02  0D 01 63 02 0D 01 6F 76  v....Jf...c...ov
1610: 66 02 0D 01 23 29 0F 63  02 0D 01 0A 29 0F 63 02  f...#).c....).c.
1620: 0D 01 0B 29 0F 63 02 0D  01 0C 52 21 80 F8 FF FF  ...).c....R!....
1630: 7F F8 FF FF 7F 73 30 33  36 45 21 80 F8 FF FF 7F  .....s036E!.....
1640: F8 FF FF 7F 73 30 33 37  01 80 7B 63 02 0D 01 27  ....s037..{c...'
1650: 0F 63 02 0D 01 1D 1C 06  80 4A F0 FF FF 7F 63 02  .c.......J....c.
1660: 0D 01 1C 06 80 4A 66 02  0D 01 63 02 0D 01 6F 76  .....Jf...c...ov
1670: 66 02 0D 01 6F 76 F0 FF  FF 7F 4A F0 FF FF 7F 63  f...ov....J....c
1680: 02 0D 01 1C 06 80 7B 66  02 0D 01 27 0F 66 02 0D  ......{f...'.f..
1690: 01 16 2A 0F 66 02 0D 01  2C 66 02 0D 01 66 02 0D  ..*.f...,f...f..
16A0: 01 64 65 61 64 45 21 80  F8 FF FF 7F F8 FF FF 7F  .deadE!.........
16B0: 31 30 31 34 01 80 2A 0F  63 02 0D 01 52 21 80 F8  1014..*.c...R!..
16C0: FF FF 7F F8 FF FF 7F 73  30 33 37 45 21 80 F8 FF  .......s037E!...
16D0: FF 7F F8 FF FF 7F 73 30  33 38 01 80 1C 06 80 4A  ......s038.....J
16E0: 63 02 0D 01 66 02 0D 01  6F 76 63 02 0D 01 1C 46  c...f...ovc....F
16F0: 80 27 0F 63 02 0D 01 1E  2A 0F 63 02 0D 01 29 0F  .'.c....*.c...).
1700: 63 02 0D 01 09 2B 63 02  0D 01 7E 80 23 1C 2D 80  c....+c...~.#.-.
1710: 29 0F 63 02 0D 01 0A 6F  76 F0 FF FF 7F 27 0F F0  ).c....ov....'..
1720: FF FF 7F 08 52 21 80 F8  FF FF 7F F8 FF FF 7F 73  ....R!.........s
1730: 30 33 38 45 21 80 F8 FF  FF 7F F8 FF FF 7F 73 30  038E!.........s0
1740: 33 39 01 80 29 0F 63 02  0D 01 0B 29 0F 63 02 0D  39..).c....).c..
1750: 01 0C 4A 63 02 0D 01 F0  FF FF 7F 6F 76 63 02 0D  ..Jc.......ovc..
1760: 01 29 0F 63 02 0D 01 05  2B 63 02 0D 01 7F 80 23  .).c....+c.....#
1770: 2A 0F F0 FF FF 7F 52 21  80 F8 FF FF 7F F8 FF FF  *.....R!........
1780: 7F 73 30 33 39 02 09 10  27 80 00 A1 17 45 21 80  .s039...'....E!.
1790: F8 FF FF 7F F8 FF FF 7F  73 30 34 38 01 80 01 CE  ........s048....
17A0: 17 02 09 10 28 80 00 BD  17 45 21 80 F8 FF FF 7F  ....(....E!.....
17B0: F8 FF FF 7F 73 30 34 38  01 80 01 CE 17 45 21 80  ....s048.....E!.
17C0: F8 FF FF 7F F8 FF FF 7F  73 30 34 30 01 80 2B 63  ........s040..+c
17D0: 02 0D 01 80 80 23 29 0F  63 02 0D 01 06 29 0F 63  .....#).c....).c
17E0: 02 0D 01 07 7B F0 FF FF  7F 6E F0 FF FF 7F 2C 80  ....{....n....,.
17F0: 99 F0 FF FF 7F 1C 2F 80  02 09 10 27 80 00 12 18  ....../....'....
1800: 52 21 80 F8 FF FF 7F F8  FF FF 7F 73 30 34 38 01  R!.........s048.
1810: 3B 18 02 09 10 28 80 00  2C 18 52 21 80 F8 FF FF  ;....(..,.R!....
1820: 7F F8 FF FF 7F 73 30 34  38 01 3B 18 52 21 80 F8  .....s048.;.R!..
1830: FF FF 7F F8 FF FF 7F 73  30 34 30 45 21 80 F8 FF  .......s040E!...
1840: FF 7F F8 FF FF 7F 73 30  34 31 01 80 7B F0 FF FF  ......s041..{...
1850: 7F 5D 01 80 08 80 27 0F  F0 FF FF 7F 09 79 00 63  .]....'......y.c
1860: 02 0D 01 66 02 0D 01 1C  06 80 1C 06 80 1C 06 80  ...f............
1870: 1A 64 00 2A 0F F0 FF FF  7F 29 0F 63 02 0D 01 08  .d.*.....).c....
1880: 5C 00 01 80 5C 01 01 80  5C 02 81 80 5C 03 82 80  \...\...\...\...
1890: 9A 5D 20 80 03 80 1C 1D  80 AB 11 01 80 1C 03 80  .] .............
18A0: 46 00 45 00 80 F8 FF FF  7F F8 FF FF 7F 66 64 69  F.E..........fdi
18B0: 32 01 80 21 00                                    2..!.           
```

#### Opcodes

```
  0: 0x0292 [0x42] SET_CLI_EVENT_CANCEL_DATA()
  1: 0x0293 [0x03] ExtData[1]->WorkLocal[1] = Work_Zone[3]
  2: 0x0298 [0x03] ExtData[1]->WorkLocal[2] = 0*
  3: 0x029D [0x5D] SET_MUSIC_VOLUME(volume=0*, fade_time=300*)
  4: 0x02A2 [0x1A] CALL_SUBROUTINE(address=0x0064)
  5: 0x02A5 [0x46] CAMERA_CONTROL: Disable user control
  6: 0x02A7 [0x38] SET_CLIENT_EVENT_MODE(mode=147*)
  7: 0x02AA [0x2F] Raebrimm (ID: 17629795/0x010D0263)->Render.Flags0 &= ~0x80000 // Bit 19
  8: 0x02B0 [0x2F] Dazbog (ID: 17629798/0x010D0266)->Render.Flags0 &= ~0x80000 // Bit 19
  9: 0x02B6 [0x2F] Uran-Mafran (ID: 17629799/0x010D0267)->Render.Flags0 &= ~0x80000 // Bit 19
 10: 0x02BC [0x4E] SET_ENTITY_HIDE_FLAG: Show Raebrimm (ID: 17629795/0x010D0263)
 11: 0x02C2 [0x4E] SET_ENTITY_HIDE_FLAG: Show Dazbog (ID: 17629798/0x010D0266)
 12: 0x02C8 [0x4E] SET_ENTITY_HIDE_FLAG: Show Uran-Mafran (ID: 17629799/0x010D0267)
 13: 0x02CE [0x92] Dazbog (ID: 17629798/0x010D0266)->Render.Flags3 ^= 0x01
 14: 0x02D4 [0x92] Raebrimm (ID: 17629795/0x010D0263)->Render.Flags3 ^= 0x01
 15: 0x02DA [0x92] Uran-Mafran (ID: 17629799/0x010D0267)->Render.Flags3 ^= 0x01
 16: 0x02E0 [0x29] REQ_SET_WAIT(priority=0x10, entity_id=Dazbog (ID: 17629798/0x010D0266), tag_num=0x10)
 17: 0x02E7 [0xBA] SET_ENTITY_POSITION(entity_id=LocalPlayer, pos_x=-466.287*, pos_z=619.442*, pos_y=0.000*, direction=180.6*)
 18: 0x02F4 [0xBA] SET_ENTITY_POSITION(entity_id=Raebrimm (ID: 17629795/0x010D0263), pos_x=-453.426*, pos_z=620.231*, pos_y=-0.350*, direction=189.0*)
 19: 0x0301 [0xBA] SET_ENTITY_POSITION(entity_id=Dazbog (ID: 17629798/0x010D0266), pos_x=-472.820*, pos_z=625.879*, pos_y=0.000*, direction=322.9*)
 20: 0x030E [0x59] UPDATE_ENTITY_DATA: EventEntity->Render.Flags0 |= 0x200000
 21: 0x0315 [0x59] UPDATE_ENTITY_DATA: Uran-Mafran (ID: 17629799/0x010D0267)->Render.Flags0 |= 0x200000
 22: 0x031C [0xBA] SET_ENTITY_POSITION(entity_id=EventEntity, pos_x=-470.144*, pos_z=619.854*, pos_y=-6.436*, direction=172.6*)
 23: 0x0329 [0xBA] SET_ENTITY_POSITION(entity_id=Uran-Mafran (ID: 17629799/0x010D0267), pos_x=-465.415*, pos_z=620.221*, pos_y=-26.954*, direction=28.3*)
 24: 0x0336 [0x59] UPDATE_ENTITY_DATA: EventEntity->Render.Flags0 |= 0x200000
 25: 0x033D [0x80] LOAD_WAIT(entity=Raebrimm (ID: 17629795/0x010D0263))
 26: 0x0342 [0x80] LOAD_WAIT(entity=Dazbog (ID: 17629798/0x010D0266))
 27: 0x0347 [0x80] LOAD_WAIT(entity=Uran-Mafran (ID: 17629799/0x010D0267))
 28: 0x034C [0x29] REQ_SET_WAIT(priority=0x0F, entity_id=LocalPlayer, tag_num=0x04)
 29: 0x0353 [0x02] IF !(ExtData[1]->WorkLocal[2] >= 2*) GOTO 0x0369
 30: 0x035B [0x29] REQ_SET_WAIT(priority=0x0F, entity_id=Dazbog (ID: 17629798/0x010D0266), tag_num=0x01)
 31: 0x0362 [0x29] REQ_SET_WAIT(priority=0x0F, entity_id=Dazbog (ID: 17629798/0x010D0266), tag_num=0x02)
 32: 0x0369 [0x02] IF !(ExtData[1]->WorkLocal[2] == 0*) GOTO 0x0BDE
 33: 0x0371 [0x66] LOAD_EXT_SCHEDULER_MAIN: Load scheduler "wof2" with entities [Uran-Mafran (ID: 17629799/0x010D0267), Uran-Mafran (ID: 17629799/0x010D0267)], work=42*
 34: 0x0380 [0x9F] LOAD_SCHEDULED_TASK_ALT: Load scheduler 0xFEFEFE00 with entities [Uran-Mafran (ID: 17629799/0x010D0267), Uran-Mafran (ID: 17629799/0x010D0267)], work=[15*, 0*]
 35: 0x0391 [0x66] LOAD_EXT_SCHEDULER_MAIN: Load scheduler 0xFEFEFE00 with entities [Uran-Mafran (ID: 17629799/0x010D0267), Uran-Mafran (ID: 17629799/0x010D0267)], work=46*
 36: 0x03A0 [0x6C] FADE_ENTITY_COLOR(entity_id=Dazbog (ID: 17629798/0x010D0266), end_alpha=0*, fade_time=1*)
 37: 0x03A9 [0x6C] FADE_ENTITY_COLOR(entity_id=Uran-Mafran (ID: 17629799/0x010D0267), end_alpha=0*, fade_time=1*)
 38: 0x03B2 [0x5C] MUSIC_CONTROL: Set Idle (Day) music to song 199*
 39: 0x03B6 [0x5C] MUSIC_CONTROL: Set Idle (Night) music to song 199*
 40: 0x03BA [0x9A] WAIT_MUSIC_SERVER()
 41: 0x03BB [0x5D] SET_MUSIC_VOLUME(volume=127*, fade_time=1*)
 42: 0x03C0 [0x45] LOAD_SCHEDULED_TASK: Load scheduler "s000" with entities [EventEntity, EventEntity], work=[892*, 0*]
 43: 0x03D1 [0x1A] CALL_SUBROUTINE(address=0x0043)
 44: 0x03D4 [0x79] LocalPlayer looks at EventEntity (Basic look)
 45: 0x03DE [0x1C] WAIT(140* ticks)
 46: 0x03E1 [0x52] END_LOAD_SCHEDULER: End scheduler "s000" with entities [EventEntity, EventEntity], work=892*
 47: 0x03F0 [0x45] LOAD_SCHEDULED_TASK: Load scheduler "s001" with entities [EventEntity, EventEntity], work=[892*, 0*]
 48: 0x0401 [0x1C] WAIT(200* ticks)
 49: 0x0404 [0x29] REQ_SET_WAIT(priority=0x0F, entity_id=Sandstone Door (ID: 17629727/0x010D021F), tag_num=0x02)
 50: 0x040B [0x52] END_LOAD_SCHEDULER: End scheduler "s001" with entities [EventEntity, EventEntity], work=892*
 51: 0x041A [0x45] LOAD_SCHEDULED_TASK: Load scheduler "s002" with entities [EventEntity, EventEntity], work=[892*, 0*]
 52: 0x042B [0x27] REQ_SET(priority=0x0F, entity_id=Raebrimm (ID: 17629795/0x010D0263), tag_num=0x1B)
 53: 0x0432 [0x79] Raebrimm (ID: 17629795/0x010D0263) looks at LocalPlayer (Basic look)
 54: 0x043C [0x1C] WAIT(30* ticks)
 55: 0x043F [0x4A] LocalPlayer looks at Raebrimm (ID: 17629795/0x010D0263)
 56: 0x0448 [0x6F] WAIT_FRAME_DELAY: Yield until WaitTime reaches zero
 57: 0x0449 [0x76] CHECK_ENTITY_RENDER_FLAGS: Wait until LocalPlayer Render.Flags0 and Render.Flags3 conditions are met
 58: 0x044E [0x1C] WAIT(20* ticks)
 59: 0x0451 [0x1C] WAIT(20* ticks)
 60: 0x0454 [0x52] END_LOAD_SCHEDULER: End scheduler "s002" with entities [EventEntity, EventEntity], work=892*
 61: 0x0463 [0x45] LOAD_SCHEDULED_TASK: Load scheduler "s003" with entities [EventEntity, EventEntity], work=[892*, 0*]
 62: 0x0474 [0x29] REQ_SET_WAIT(priority=0x0F, entity_id=Sandstone Door (ID: 17629727/0x010D021F), tag_num=0x03)
 63: 0x047B [0x2A] GET_REQ_LEVEL(level=15, entity_id=Raebrimm (ID: 17629795/0x010D0263))
 64: 0x0481 [0x2B] Raebrimm (ID: 17629795/0x010D0263) [11523*]:
     "<Player>... Isn't this amazing?"
 65: 0x0488 [0x23] WAIT_FOR_DIALOG_INTERACTION
 66: 0x0489 [0x52] END_LOAD_SCHEDULER: End scheduler "s003" with entities [EventEntity, EventEntity], work=892*
 67: 0x0498 [0x45] LOAD_SCHEDULED_TASK: Load scheduler "s004" with entities [EventEntity, EventEntity], work=[892*, 0*]
 68: 0x04A9 [0x79] Raebrimm (ID: 17629795/0x010D0263) looks at EventEntity (Basic look)
 69: 0x04B3 [0x2B] Raebrimm (ID: 17629795/0x010D0263) [11524*]:
     "This is no ordinary Galka. I believe it's a statue of the Talekeeper."
 70: 0x04BA [0x1C] WAIT(30* ticks)
 71: 0x04BD [0x4B] UPDATE_ENTITY_YAW(entity=LocalPlayer, yaw=15.7*)
 72: 0x04C4 [0x6F] WAIT_FRAME_DELAY: Yield until WaitTime reaches zero
 73: 0x04C5 [0x76] CHECK_ENTITY_RENDER_FLAGS: Wait until LocalPlayer Render.Flags0 and Render.Flags3 conditions are met
 74: 0x04CA [0x79] LocalPlayer looks at EventEntity (Basic look)
 75: 0x04D4 [0x23] WAIT_FOR_DIALOG_INTERACTION
 76: 0x04D5 [0x4A] Raebrimm (ID: 17629795/0x010D0263) looks at LocalPlayer
 77: 0x04DE [0x6F] WAIT_FRAME_DELAY: Yield until WaitTime reaches zero
 78: 0x04DF [0x76] CHECK_ENTITY_RENDER_FLAGS: Wait until Raebrimm (ID: 17629795/0x010D0263) Render.Flags0 and Render.Flags3 conditions are met
 79: 0x04E4 [0x52] END_LOAD_SCHEDULER: End scheduler "s004" with entities [EventEntity, EventEntity], work=892*
 80: 0x04F3 [0x02] IF !(Work_Zone[9] == 5*) GOTO 0x0518
 81: 0x04FB [0x45] LOAD_SCHEDULED_TASK: Load scheduler "s042" with entities [EventEntity, EventEntity], work=[892*, 0*]
 82: 0x050C [0x4A] LocalPlayer looks at Raebrimm (ID: 17629795/0x010D0263)
 83: 0x0515 [0x01] GOTO 0x054E
 84: 0x0518 [0x02] IF !(Work_Zone[9] == 6*) GOTO 0x053D
 85: 0x0520 [0x45] LOAD_SCHEDULED_TASK: Load scheduler "s042" with entities [EventEntity, EventEntity], work=[892*, 0*]
 86: 0x0531 [0x4A] LocalPlayer looks at Raebrimm (ID: 17629795/0x010D0263)
 87: 0x053A [0x01] GOTO 0x054E
 88: 0x053D [0x45] LOAD_SCHEDULED_TASK: Load scheduler "s005" with entities [EventEntity, EventEntity], work=[892*, 0*]

SUBROUTINE_054E:
 89: 0x054E [0x2B] Raebrimm (ID: 17629795/0x010D0263) [11525*]:
     "Actually, do you know the story of the Talekeeper, <Player>?"
 90: 0x0555 [0x1C] WAIT(20* ticks)
 91: 0x0558 [0x4B] UPDATE_ENTITY_YAW(entity=LocalPlayer, yaw=18.4*)
 92: 0x055F [0x6F] WAIT_FRAME_DELAY: Yield until WaitTime reaches zero
 93: 0x0560 [0x76] CHECK_ENTITY_RENDER_FLAGS: Wait until LocalPlayer Render.Flags0 and Render.Flags3 conditions are met
 94: 0x0565 [0x79] LocalPlayer looks at Raebrimm (ID: 17629795/0x010D0263) (Basic look)
 95: 0x056F [0x23] WAIT_FOR_DIALOG_INTERACTION
 96: 0x0570 [0x24] CREATE_DIALOG(message_id=11526*, default_option=0*, option_flags=0*)
     "Do you know about the Talekeeper? [Of course I do./No, not really.]"
 97: 0x0577 [0x25] WAIT_DIALOG_SELECT()
 98: 0x0578 [0x02] IF !(Work_Zone[0] == 0*) GOTO 0x0652
 99: 0x0580 [0x6E] LocalPlayer uses emote 7*
100: 0x0587 [0x99] Wait for LocalPlayer animation to complete
101: 0x058C [0x1C] WAIT(60* ticks)
102: 0x058F [0x02] IF !(Work_Zone[9] == 5*) GOTO 0x05AF
103: 0x0597 [0x52] END_LOAD_SCHEDULER: End scheduler "s042" with entities [EventEntity, EventEntity], work=892*
104: 0x05A6 [0x6F] WAIT_FRAME_DELAY: Yield until WaitTime reaches zero
105: 0x05A7 [0x76] CHECK_ENTITY_RENDER_FLAGS: Wait until LocalPlayer Render.Flags0 and Render.Flags3 conditions are met
106: 0x05AC [0x01] GOTO 0x05DE
107: 0x05AF [0x02] IF !(Work_Zone[9] == 6*) GOTO 0x05CF
108: 0x05B7 [0x52] END_LOAD_SCHEDULER: End scheduler "s042" with entities [EventEntity, EventEntity], work=892*
109: 0x05C6 [0x6F] WAIT_FRAME_DELAY: Yield until WaitTime reaches zero
110: 0x05C7 [0x76] CHECK_ENTITY_RENDER_FLAGS: Wait until LocalPlayer Render.Flags0 and Render.Flags3 conditions are met
111: 0x05CC [0x01] GOTO 0x05DE
112: 0x05CF [0x52] END_LOAD_SCHEDULER: End scheduler "s005" with entities [EventEntity, EventEntity], work=892*

SUBROUTINE_05DE:
113: 0x05DE [0x45] LOAD_SCHEDULED_TASK: Load scheduler "s006" with entities [EventEntity, EventEntity], work=[892*, 0*]
114: 0x05EF [0x2B] Raebrimm (ID: 17629795/0x010D0263) [11531*]:
     "I knew you were smart. It's a special Galka who is destined to guide our people."
115: 0x05F6 [0x23] WAIT_FOR_DIALOG_INTERACTION
116: 0x05F7 [0x52] END_LOAD_SCHEDULER: End scheduler "s006" with entities [EventEntity, EventEntity], work=892*
117: 0x0606 [0x02] IF !(Work_Zone[9] == 5*) GOTO 0x0622
118: 0x060E [0x45] LOAD_SCHEDULED_TASK: Load scheduler "s044" with entities [EventEntity, EventEntity], work=[892*, 0*]
119: 0x061F [0x01] GOTO 0x064F
120: 0x0622 [0x02] IF !(Work_Zone[9] == 6*) GOTO 0x063E
121: 0x062A [0x45] LOAD_SCHEDULED_TASK: Load scheduler "s044" with entities [EventEntity, EventEntity], work=[892*, 0*]
122: 0x063B [0x01] GOTO 0x064F
123: 0x063E [0x45] LOAD_SCHEDULED_TASK: Load scheduler "s007" with entities [EventEntity, EventEntity], work=[892*, 0*]

SUBROUTINE_064F:
124: 0x064F [0x01] GOTO 0x0731
125: 0x0652 [0x02] IF !(Work_Zone[0] == 1*) GOTO 0x0731
126: 0x065A [0x6E] LocalPlayer uses emote 6*
127: 0x0661 [0x99] Wait for LocalPlayer animation to complete
128: 0x0666 [0x1C] WAIT(90* ticks)
129: 0x0669 [0x45] LOAD_SCHEDULED_TASK: Load scheduler "s006" with entities [EventEntity, EventEntity], work=[892*, 0*]
130: 0x067A [0x29] REQ_SET_WAIT(priority=0x0F, entity_id=Raebrimm (ID: 17629795/0x010D0263), tag_num=0x01)
131: 0x0681 [0x2B] Raebrimm (ID: 17629795/0x010D0263) [11527*]:
     "The Talekeeper is a special Galka that is responsible for preserving our people's memories."
132: 0x0688 [0x23] WAIT_FOR_DIALOG_INTERACTION
133: 0x0689 [0x2B] Raebrimm (ID: 17629795/0x010D0263) [11528*]:
     "Before they die, Galka set out on a journey of rebirth and are reborn as children. At that time, they forget all about their previous lives."
134: 0x0690 [0x23] WAIT_FOR_DIALOG_INTERACTION
135: 0x0691 [0x29] REQ_SET_WAIT(priority=0x0F, entity_id=Raebrimm (ID: 17629795/0x010D0263), tag_num=0x02)
136: 0x0698 [0x52] END_LOAD_SCHEDULER: End scheduler "s006" with entities [EventEntity, EventEntity], work=892*
137: 0x06A7 [0x45] LOAD_SCHEDULED_TASK: Load scheduler "s010" with entities [EventEntity, EventEntity], work=[892*, 0*]
138: 0x06B8 [0x29] REQ_SET_WAIT(priority=0x0F, entity_id=Raebrimm (ID: 17629795/0x010D0263), tag_num=0x03)
139: 0x06BF [0x2B] Raebrimm (ID: 17629795/0x010D0263) [11529*]:
     "However, at that moment, there is one special Galka who takes on the memories of an entire generation."
140: 0x06C6 [0x23] WAIT_FOR_DIALOG_INTERACTION
141: 0x06C7 [0x29] REQ_SET_WAIT(priority=0x0F, entity_id=Raebrimm (ID: 17629795/0x010D0263), tag_num=0x04)
142: 0x06CE [0x2B] Raebrimm (ID: 17629795/0x010D0263) [11530*]:
     "That Galka is known as the Talekeeper, and is responsible for teaching everyone what is important to our people."
143: 0x06D5 [0x23] WAIT_FOR_DIALOG_INTERACTION
144: 0x06D6 [0x52] END_LOAD_SCHEDULER: End scheduler "s010" with entities [EventEntity, EventEntity], work=892*
145: 0x06E5 [0x02] IF !(Work_Zone[9] == 5*) GOTO 0x0701
146: 0x06ED [0x45] LOAD_SCHEDULED_TASK: Load scheduler "s044" with entities [EventEntity, EventEntity], work=[892*, 0*]
147: 0x06FE [0x01] GOTO 0x072E
148: 0x0701 [0x02] IF !(Work_Zone[9] == 6*) GOTO 0x071D
149: 0x0709 [0x45] LOAD_SCHEDULED_TASK: Load scheduler "s044" with entities [EventEntity, EventEntity], work=[892*, 0*]
150: 0x071A [0x01] GOTO 0x072E
151: 0x071D [0x45] LOAD_SCHEDULED_TASK: Load scheduler "s007" with entities [EventEntity, EventEntity], work=[892*, 0*]

SUBROUTINE_072E:
152: 0x072E [0x01] GOTO 0x0731

SUBROUTINE_0731:
153: 0x0731 [0x7B] Raebrimm (ID: 17629795/0x010D0263) stops talking
154: 0x0736 [0x29] REQ_SET_WAIT(priority=0x0F, entity_id=Raebrimm (ID: 17629795/0x010D0263), tag_num=0x13)
155: 0x073D [0x02] IF !(ExtData[1]->WorkLocal[1] == 0*) GOTO 0x0750
156: 0x0745 [0x2B] Raebrimm (ID: 17629795/0x010D0263) [11532*]:
     "Unfortunately, the Talekeeper is nowhere to be found..."
157: 0x074C [0x23] WAIT_FOR_DIALOG_INTERACTION
158: 0x074D [0x01] GOTO 0x0758
159: 0x0750 [0x2B] Raebrimm (ID: 17629795/0x010D0263) [11533*]:
     "You see, the Talekeeper is shrouded in mystery, so that's pretty much all I know about him."
160: 0x0757 [0x23] WAIT_FOR_DIALOG_INTERACTION

SUBROUTINE_0758:
161: 0x0758 [0x29] REQ_SET_WAIT(priority=0x0F, entity_id=Raebrimm (ID: 17629795/0x010D0263), tag_num=0x14)
162: 0x075F [0x02] IF !(Work_Zone[9] == 5*) GOTO 0x0779
163: 0x0767 [0x52] END_LOAD_SCHEDULER: End scheduler "s044" with entities [EventEntity, EventEntity], work=892*
164: 0x0776 [0x01] GOTO 0x07A2
165: 0x0779 [0x02] IF !(Work_Zone[9] == 6*) GOTO 0x0793
166: 0x0781 [0x52] END_LOAD_SCHEDULER: End scheduler "s044" with entities [EventEntity, EventEntity], work=892*
167: 0x0790 [0x01] GOTO 0x07A2
168: 0x0793 [0x52] END_LOAD_SCHEDULER: End scheduler "s007" with entities [EventEntity, EventEntity], work=892*

SUBROUTINE_07A2:
169: 0x07A2 [0x45] LOAD_SCHEDULED_TASK: Load scheduler "s012" with entities [EventEntity, EventEntity], work=[892*, 0*]
170: 0x07B3 [0x5D] SET_MUSIC_VOLUME(volume=0*, fade_time=100*)
171: 0x07B8 [0x7B] Raebrimm (ID: 17629795/0x010D0263) stops talking
172: 0x07BD [0x29] REQ_SET_WAIT(priority=0x0F, entity_id=Raebrimm (ID: 17629795/0x010D0263), tag_num=0x11)
173: 0x07C4 [0x2B] Raebrimm (ID: 17629795/0x010D0263) [11534*]:
     "Ah! That reminds me... That god mentioned something..."
174: 0x07CB [0x23] WAIT_FOR_DIALOG_INTERACTION
175: 0x07CC [0x29] REQ_SET_WAIT(priority=0x0F, entity_id=Raebrimm (ID: 17629795/0x010D0263), tag_num=0x12)
176: 0x07D3 [0x52] END_LOAD_SCHEDULER: End scheduler "s012" with entities [EventEntity, EventEntity], work=892*
177: 0x07E2 [0x45] LOAD_SCHEDULED_TASK: Load scheduler "s008" with entities [EventEntity, EventEntity], work=[892*, 0*]
178: 0x07F3 [0x6C] FADE_ENTITY_COLOR(entity_id=Dazbog (ID: 17629798/0x010D0266), end_alpha=128*, fade_time=1*)
179: 0x07FC [0x45] LOAD_SCHEDULED_TASK: Load scheduler "8160" with entities [EventEntity, EventEntity], work=[892*, 0*]
180: 0x080D [0x45] LOAD_SCHEDULED_TASK: Load scheduler "1014" with entities [EventEntity, EventEntity], work=[892*, 0*]
181: 0x081E [0x2B] Dazbog (ID: 17629798/0x010D0266) [11535*]:
     "Mrrr..."
182: 0x0825 [0x23] WAIT_FOR_DIALOG_INTERACTION
183: 0x0826 [0x1C] WAIT(30* ticks)
184: 0x0829 [0x6E] LocalPlayer uses emote 21*
185: 0x0830 [0x99] Wait for LocalPlayer animation to complete
186: 0x0835 [0x29] REQ_SET_WAIT(priority=0x0F, entity_id=Raebrimm (ID: 17629795/0x010D0263), tag_num=0x11)
187: 0x083C [0x1C] WAIT(120* ticks)
188: 0x083F [0x52] END_LOAD_SCHEDULER: End scheduler "s008" with entities [EventEntity, EventEntity], work=892*
189: 0x084E [0x45] LOAD_SCHEDULED_TASK: Load scheduler "s009" with entities [EventEntity, EventEntity], work=[892*, 0*]
190: 0x085F [0x4A] Raebrimm (ID: 17629795/0x010D0263) looks at Dazbog (ID: 17629798/0x010D0266)
191: 0x0868 [0x27] REQ_SET(priority=0x0F, entity_id=Raebrimm (ID: 17629795/0x010D0263), tag_num=0x19)
192: 0x086F [0x4A] LocalPlayer looks at Dazbog (ID: 17629798/0x010D0266)
193: 0x0878 [0x2A] GET_REQ_LEVEL(level=15, entity_id=Raebrimm (ID: 17629795/0x010D0263))
194: 0x087E [0x6F] WAIT_FRAME_DELAY: Yield until WaitTime reaches zero
195: 0x087F [0x76] CHECK_ENTITY_RENDER_FLAGS: Wait until Raebrimm (ID: 17629795/0x010D0263) Render.Flags0 and Render.Flags3 conditions are met
196: 0x0884 [0x27] REQ_SET(priority=0x0F, entity_id=Raebrimm (ID: 17629795/0x010D0263), tag_num=0x1C)
197: 0x088B [0x6F] WAIT_FRAME_DELAY: Yield until WaitTime reaches zero
198: 0x088C [0x76] CHECK_ENTITY_RENDER_FLAGS: Wait until LocalPlayer Render.Flags0 and Render.Flags3 conditions are met
199: 0x0891 [0x1C] WAIT(60* ticks)
200: 0x0894 [0x52] END_LOAD_SCHEDULER: End scheduler "s009" with entities [EventEntity, EventEntity], work=892*
201: 0x08A3 [0x45] LOAD_SCHEDULED_TASK: Load scheduler "s011" with entities [EventEntity, EventEntity], work=[892*, 0*]
202: 0x08B4 [0x2A] GET_REQ_LEVEL(level=15, entity_id=Raebrimm (ID: 17629795/0x010D0263))
203: 0x08BA [0x4A] Raebrimm (ID: 17629795/0x010D0263) looks at Dazbog (ID: 17629798/0x010D0266)
204: 0x08C3 [0x6F] WAIT_FRAME_DELAY: Yield until WaitTime reaches zero
205: 0x08C4 [0x76] CHECK_ENTITY_RENDER_FLAGS: Wait until Raebrimm (ID: 17629795/0x010D0263) Render.Flags0 and Render.Flags3 conditions are met
206: 0x08C9 [0x2B] Raebrimm (ID: 17629795/0x010D0263) [11536*]:
     "Huh!? Is that a Meeble!?"
207: 0x08D0 [0x23] WAIT_FOR_DIALOG_INTERACTION
208: 0x08D1 [0x52] END_LOAD_SCHEDULER: End scheduler "s011" with entities [EventEntity, EventEntity], work=892*
209: 0x08E0 [0x45] LOAD_SCHEDULED_TASK: Load scheduler "s013" with entities [EventEntity, EventEntity], work=[892*, 0*]
210: 0x08F1 [0x4A] Raebrimm (ID: 17629795/0x010D0263) looks at LocalPlayer
211: 0x08FA [0x6F] WAIT_FRAME_DELAY: Yield until WaitTime reaches zero
212: 0x08FB [0x76] CHECK_ENTITY_RENDER_FLAGS: Wait until Raebrimm (ID: 17629795/0x010D0263) Render.Flags0 and Render.Flags3 conditions are met
213: 0x0900 [0x29] REQ_SET_WAIT(priority=0x0F, entity_id=Raebrimm (ID: 17629795/0x010D0263), tag_num=0x09)
214: 0x0907 [0x2B] Raebrimm (ID: 17629795/0x010D0263) [11537*]:
     "<Player>! What are the Destiny Destroyers doing here!?"
215: 0x090E [0x27] REQ_SET(priority=0x0F, entity_id=LocalPlayer, tag_num=0x07)
216: 0x0915 [0x29] REQ_SET_WAIT(priority=0x0F, entity_id=Dazbog (ID: 17629798/0x010D0266), tag_num=0x03)
217: 0x091C [0x29] REQ_SET_WAIT(priority=0x0F, entity_id=Raebrimm (ID: 17629795/0x010D0263), tag_num=0x0A)
218: 0x0923 [0x52] END_LOAD_SCHEDULER: End scheduler "s013" with entities [EventEntity, EventEntity], work=892*
219: 0x0932 [0x45] LOAD_SCHEDULED_TASK: Load scheduler "s014" with entities [EventEntity, EventEntity], work=[892*, 0*]
220: 0x0943 [0x29] REQ_SET_WAIT(priority=0x0F, entity_id=Dazbog (ID: 17629798/0x010D0266), tag_num=0x04)
221: 0x094A [0x4B] UPDATE_ENTITY_YAW(entity=Dazbog (ID: 17629798/0x010D0266), yaw=22.0*)
222: 0x0951 [0x6F] WAIT_FRAME_DELAY: Yield until WaitTime reaches zero
223: 0x0952 [0x76] CHECK_ENTITY_RENDER_FLAGS: Wait until Dazbog (ID: 17629798/0x010D0266) Render.Flags0 and Render.Flags3 conditions are met
224: 0x0957 [0x23] WAIT_FOR_DIALOG_INTERACTION
225: 0x0958 [0x29] REQ_SET_WAIT(priority=0x0F, entity_id=Raebrimm (ID: 17629795/0x010D0263), tag_num=0x0B)
226: 0x095F [0x45] LOAD_SCHEDULED_TASK: Load scheduler "8160" with entities [EventEntity, EventEntity], work=[892*, 0*]
227: 0x0970 [0x2B] Dazbog (ID: 17629798/0x010D0266) [11538*]:
     "Dazbog!"
228: 0x0977 [0x4A] Raebrimm (ID: 17629795/0x010D0263) looks at Dazbog (ID: 17629798/0x010D0266)
229: 0x0980 [0x6F] WAIT_FRAME_DELAY: Yield until WaitTime reaches zero
230: 0x0981 [0x76] CHECK_ENTITY_RENDER_FLAGS: Wait until Raebrimm (ID: 17629795/0x010D0263) Render.Flags0 and Render.Flags3 conditions are met
231: 0x0986 [0x23] WAIT_FOR_DIALOG_INTERACTION
232: 0x0987 [0x2A] GET_REQ_LEVEL(level=15, entity_id=LocalPlayer)
233: 0x098D [0x52] END_LOAD_SCHEDULER: End scheduler "s014" with entities [EventEntity, EventEntity], work=892*
234: 0x099C [0x45] LOAD_SCHEDULED_TASK: Load scheduler "s015" with entities [EventEntity, EventEntity], work=[892*, 0*]
235: 0x09AD [0x29] REQ_SET_WAIT(priority=0x10, entity_id=Dazbog (ID: 17629798/0x010D0266), tag_num=0x11)
236: 0x09B4 [0x27] REQ_SET(priority=0x0F, entity_id=Dazbog (ID: 17629798/0x010D0266), tag_num=0x13)
237: 0x09BB [0x5C] MUSIC_CONTROL: Set Idle (Day) music to song 27*
238: 0x09BF [0x5C] MUSIC_CONTROL: Set Idle (Night) music to song 27*
239: 0x09C3 [0x9A] WAIT_MUSIC_SERVER()
240: 0x09C4 [0x5D] SET_MUSIC_VOLUME(volume=127*, fade_time=1*)
241: 0x09C9 [0x2A] GET_REQ_LEVEL(level=15, entity_id=Dazbog (ID: 17629798/0x010D0266))
242: 0x09CF [0x4A] Raebrimm (ID: 17629795/0x010D0263) looks at Dazbog (ID: 17629798/0x010D0266)
243: 0x09D8 [0x29] REQ_SET_WAIT(priority=0x0F, entity_id=Dazbog (ID: 17629798/0x010D0266), tag_num=0x0A)
244: 0x09DF [0x2B] Dazbog (ID: 17629798/0x010D0266) [11539*]:
     "Th-this smell... Y-you are a powerful human..."
245: 0x09E6 [0x23] WAIT_FOR_DIALOG_INTERACTION
246: 0x09E7 [0x6F] WAIT_FRAME_DELAY: Yield until WaitTime reaches zero
247: 0x09E8 [0x76] CHECK_ENTITY_RENDER_FLAGS: Wait until Raebrimm (ID: 17629795/0x010D0263) Render.Flags0 and Render.Flags3 conditions are met
248: 0x09ED [0x52] END_LOAD_SCHEDULER: End scheduler "s015" with entities [EventEntity, EventEntity], work=892*
249: 0x09FC [0x45] LOAD_SCHEDULED_TASK: Load scheduler "s016" with entities [EventEntity, EventEntity], work=[892*, 0*]
250: 0x0A0D [0x4A] LocalPlayer looks at Dazbog (ID: 17629798/0x010D0266)
251: 0x0A16 [0x2B] Dazbog (ID: 17629798/0x010D0266) [11540*]:
     "A-and you... You're the Galka who had the eggshell..."
252: 0x0A1D [0x23] WAIT_FOR_DIALOG_INTERACTION
253: 0x0A1E [0x29] REQ_SET_WAIT(priority=0x0F, entity_id=Dazbog (ID: 17629798/0x010D0266), tag_num=0x0B)
254: 0x0A25 [0x29] REQ_SET_WAIT(priority=0x0F, entity_id=Raebrimm (ID: 17629795/0x010D0263), tag_num=0x0C)
255: 0x0A2C [0x2B] Raebrimm (ID: 17629795/0x010D0263) [11541*]:
     "Yes, that was me. It looks like you're hurt pretty bad. What happened?"
256: 0x0A33 [0x23] WAIT_FOR_DIALOG_INTERACTION
257: 0x0A34 [0x6F] WAIT_FRAME_DELAY: Yield until WaitTime reaches zero
258: 0x0A35 [0x76] CHECK_ENTITY_RENDER_FLAGS: Wait until LocalPlayer Render.Flags0 and Render.Flags3 conditions are met
259: 0x0A3A [0x52] END_LOAD_SCHEDULER: End scheduler "s016" with entities [EventEntity, EventEntity], work=892*
260: 0x0A49 [0x02] IF !(Work_Zone[9] == 5*) GOTO 0x0A65
261: 0x0A51 [0x45] LOAD_SCHEDULED_TASK: Load scheduler "s043" with entities [EventEntity, EventEntity], work=[892*, 0*]
262: 0x0A62 [0x01] GOTO 0x0A92
263: 0x0A65 [0x02] IF !(Work_Zone[9] == 6*) GOTO 0x0A81
264: 0x0A6D [0x45] LOAD_SCHEDULED_TASK: Load scheduler "s043" with entities [EventEntity, EventEntity], work=[892*, 0*]
265: 0x0A7E [0x01] GOTO 0x0A92
266: 0x0A81 [0x45] LOAD_SCHEDULED_TASK: Load scheduler "s017" with entities [EventEntity, EventEntity], work=[892*, 0*]

SUBROUTINE_0A92:
267: 0x0A92 [0x29] REQ_SET_WAIT(priority=0x0F, entity_id=Dazbog (ID: 17629798/0x010D0266), tag_num=0x01)
268: 0x0A99 [0x45] LOAD_SCHEDULED_TASK: Load scheduler "1014" with entities [EventEntity, EventEntity], work=[892*, 0*]
269: 0x0AAA [0x2B] Dazbog (ID: 17629798/0x010D0266) [11542*]:
     "Mrrr... H-hey, listen to what I've got to say."
270: 0x0AB1 [0x23] WAIT_FOR_DIALOG_INTERACTION
271: 0x0AB2 [0x2B] Dazbog (ID: 17629798/0x010D0266) [11543*]:
     "Th-the Destiny Destroyers...went to Arrapago... V-visited the apkallu elder..."
272: 0x0AB9 [0x23] WAIT_FOR_DIALOG_INTERACTION
273: 0x0ABA [0x29] REQ_SET_WAIT(priority=0x0F, entity_id=Dazbog (ID: 17629798/0x010D0266), tag_num=0x02)
274: 0x0AC1 [0x5D] SET_MUSIC_VOLUME(volume=50*, fade_time=300*)
275: 0x0AC6 [0x1A] CALL_SUBROUTINE(address=0x0064)
276: 0x0AC9 [0x02] IF !(Work_Zone[9] == 5*) GOTO 0x0AE3
277: 0x0AD1 [0x52] END_LOAD_SCHEDULER: End scheduler "s043" with entities [EventEntity, EventEntity], work=892*
278: 0x0AE0 [0x01] GOTO 0x0B0C
279: 0x0AE3 [0x02] IF !(Work_Zone[9] == 6*) GOTO 0x0AFD
280: 0x0AEB [0x52] END_LOAD_SCHEDULER: End scheduler "s043" with entities [EventEntity, EventEntity], work=892*
281: 0x0AFA [0x01] GOTO 0x0B0C
282: 0x0AFD [0x52] END_LOAD_SCHEDULER: End scheduler "s017" with entities [EventEntity, EventEntity], work=892*

SUBROUTINE_0B0C:
283: 0x0B0C [0x6C] FADE_ENTITY_COLOR(entity_id=Uran-Mafran (ID: 17629799/0x010D0267), end_alpha=128*, fade_time=1*)
284: 0x0B15 [0xC5] LOAD_SCHEDULED_TASK_ALT3: Load scheduler 0x80013030 for entities [Uran-Mafran (ID: 17629799/0x010D0267), Uran-Mafran (ID: 17629799/0x010D0267)], work=213*, param=12403
285: 0x0B26 [0x9F] LOAD_SCHEDULED_TASK_ALT: Load scheduler 0xFEFEFE00 with entities [Uran-Mafran (ID: 17629799/0x010D0267), Uran-Mafran (ID: 17629799/0x010D0267)], work=[15*, 0*]
286: 0x0B37 [0x66] LOAD_EXT_SCHEDULER_MAIN: Load scheduler 0xFEFEFE00 with entities [Uran-Mafran (ID: 17629799/0x010D0267), Uran-Mafran (ID: 17629799/0x010D0267)], work=46*
287: 0x0B46 [0x1C] WAIT(1* ticks)
288: 0x0B49 [0x27] REQ_SET(priority=0x0F, entity_id=Uran-Mafran (ID: 17629799/0x010D0267), tag_num=0x5C)
289: 0x0B50 [0x45] LOAD_SCHEDULED_TASK: Load scheduler "s018" with entities [EventEntity, EventEntity], work=[892*, 0*]
290: 0x0B61 [0x1C] WAIT(5* ticks)
291: 0x0B64 [0x1A] CALL_SUBROUTINE(address=0x0043)
292: 0x0B67 [0x2B] Dazbog (ID: 17629798/0x010D0266) [11544*]:
     "B-but suddenly, the mage Uran-Mafran, who was collecting...the power of the egg, was there..."
293: 0x0B6E [0x23] WAIT_FOR_DIALOG_INTERACTION
294: 0x0B6F [0x2A] GET_REQ_LEVEL(level=15, entity_id=Uran-Mafran (ID: 17629799/0x010D0267))
295: 0x0B75 [0x9F] LOAD_SCHEDULED_TASK_ALT: Load scheduler "main" with entities [Uran-Mafran (ID: 17629799/0x010D0267), Uran-Mafran (ID: 17629799/0x010D0267)], work=[15*, 0*]
296: 0x0B86 [0x1C] WAIT(1* ticks)
297: 0x0B89 [0x27] REQ_SET(priority=0x0F, entity_id=Uran-Mafran (ID: 17629799/0x010D0267), tag_num=0x1B)
298: 0x0B90 [0x2B] Dazbog (ID: 17629798/0x010D0266) [11545*]:
     "H-he had this orb...and it was flashing... M-my head started spinning...all of my memories are fuzzy..."
299: 0x0B97 [0x2A] GET_REQ_LEVEL(level=15, entity_id=Uran-Mafran (ID: 17629799/0x010D0267))
300: 0x0B9D [0x1A] CALL_SUBROUTINE(address=0x01B7)
301: 0x0BA0 [0x1C] WAIT(60* ticks)
302: 0x0BA3 [0x1A] CALL_SUBROUTINE(address=0x0064)
303: 0x0BA6 [0x1A] CALL_SUBROUTINE(address=0x0085)
304: 0x0BA9 [0x23] WAIT_FOR_DIALOG_INTERACTION
305: 0x0BAA [0x52] END_LOAD_SCHEDULER: End scheduler "s018" with entities [EventEntity, EventEntity], work=892*
306: 0x0BB9 [0xC5] LOAD_SCHEDULED_TASK_ALT3: Load scheduler 0x8001306C for entities [Uran-Mafran (ID: 17629799/0x010D0267), Uran-Mafran (ID: 17629799/0x010D0267)], work=213*, param=26987
307: 0x0BCA [0x6C] FADE_ENTITY_COLOR(entity_id=Uran-Mafran (ID: 17629799/0x010D0267), end_alpha=0*, fade_time=1*)
308: 0x0BD3 [0x2B] Dazbog (ID: 17629798/0x010D0266) [11546*]:
     "Wh-when I came to... I was tied up and unable to move."
309: 0x0BDA [0x23] WAIT_FOR_DIALOG_INTERACTION
310: 0x0BDB [0x01] GOTO 0x0C3A
311: 0x0BDE [0x02] IF !(ExtData[1]->WorkLocal[2] == 1*) GOTO 0x0C3A
312: 0x0BE6 [0xBA] SET_ENTITY_POSITION(entity_id=Dazbog (ID: 17629798/0x010D0266), pos_x=-470.913*, pos_z=625.903*, pos_y=0.000*, direction=238.8*)
313: 0x0BF3 [0xBA] SET_ENTITY_POSITION(entity_id=Raebrimm (ID: 17629795/0x010D0263), pos_x=-469.195*, pos_z=625.408*, pos_y=0.000*, direction=224.6*)
314: 0x0C00 [0xBA] SET_ENTITY_POSITION(entity_id=LocalPlayer, pos_x=-469.241*, pos_z=623.976*, pos_y=0.000*, direction=327.0*)
315: 0x0C0D [0x4A] Raebrimm (ID: 17629795/0x010D0263) looks at Dazbog (ID: 17629798/0x010D0266)
316: 0x0C16 [0x4A] Dazbog (ID: 17629798/0x010D0266) looks at Raebrimm (ID: 17629795/0x010D0263)
317: 0x0C1F [0x4A] LocalPlayer looks at Dazbog (ID: 17629798/0x010D0266)
318: 0x0C28 [0x6F] WAIT_FRAME_DELAY: Yield until WaitTime reaches zero
319: 0x0C29 [0x76] CHECK_ENTITY_RENDER_FLAGS: Wait until Raebrimm (ID: 17629795/0x010D0263) Render.Flags0 and Render.Flags3 conditions are met
320: 0x0C2E [0x6F] WAIT_FRAME_DELAY: Yield until WaitTime reaches zero
321: 0x0C2F [0x76] CHECK_ENTITY_RENDER_FLAGS: Wait until Dazbog (ID: 17629798/0x010D0266) Render.Flags0 and Render.Flags3 conditions are met
322: 0x0C34 [0x6F] WAIT_FRAME_DELAY: Yield until WaitTime reaches zero
323: 0x0C35 [0x76] CHECK_ENTITY_RENDER_FLAGS: Wait until LocalPlayer Render.Flags0 and Render.Flags3 conditions are met

SUBROUTINE_0C3A:
324: 0x0C3A [0x02] IF !(ExtData[1]->WorkLocal[2] >= 2*) GOTO 0x1541
325: 0x0C42 [0x5D] SET_MUSIC_VOLUME(volume=127*, fade_time=300*)
326: 0x0C47 [0x45] LOAD_SCHEDULED_TASK: Load scheduler "s019" with entities [EventEntity, EventEntity], work=[892*, 0*]
327: 0x0C58 [0x1A] CALL_SUBROUTINE(address=0x0043)
328: 0x0C5B [0x29] REQ_SET_WAIT(priority=0x0F, entity_id=Dazbog (ID: 17629798/0x010D0266), tag_num=0x08)
329: 0x0C62 [0x2B] Dazbog (ID: 17629798/0x010D0266) [11547*]:
     "H-he wanted to know what I knew... About the egg, about Valhalla, about Chaos, the past..."
330: 0x0C69 [0x23] WAIT_FOR_DIALOG_INTERACTION
331: 0x0C6A [0x2B] Dazbog (ID: 17629798/0x010D0266) [11548*]:
     "H-he forced me to talk, using magic and some kind of weapon..."
332: 0x0C71 [0x23] WAIT_FOR_DIALOG_INTERACTION
333: 0x0C72 [0x29] REQ_SET_WAIT(priority=0x0F, entity_id=Dazbog (ID: 17629798/0x010D0266), tag_num=0x09)
334: 0x0C79 [0x29] REQ_SET_WAIT(priority=0x0F, entity_id=Raebrimm (ID: 17629795/0x010D0263), tag_num=0x11)
335: 0x0C80 [0x2B] Raebrimm (ID: 17629795/0x010D0263) [11549*]:
     "What!? Why would he do such a thing!?"
336: 0x0C87 [0x23] WAIT_FOR_DIALOG_INTERACTION
337: 0x0C88 [0x52] END_LOAD_SCHEDULER: End scheduler "s019" with entities [EventEntity, EventEntity], work=892*
338: 0x0C97 [0x45] LOAD_SCHEDULED_TASK: Load scheduler "s020" with entities [EventEntity, EventEntity], work=[892*, 0*]
339: 0x0CA8 [0x2B] Dazbog (ID: 17629798/0x010D0266) [11550*]:
     "H-he is trying to resurrect his master. Or so he said..."
340: 0x0CAF [0x29] REQ_SET_WAIT(priority=0x0F, entity_id=Raebrimm (ID: 17629795/0x010D0263), tag_num=0x12)
341: 0x0CB6 [0x27] REQ_SET(priority=0x0F, entity_id=Raebrimm (ID: 17629795/0x010D0263), tag_num=0x19)
342: 0x0CBD [0x23] WAIT_FOR_DIALOG_INTERACTION
343: 0x0CBE [0x52] END_LOAD_SCHEDULER: End scheduler "s020" with entities [EventEntity, EventEntity], work=892*
344: 0x0CCD [0x02] IF !(Work_Zone[9] == 5*) GOTO 0x0CE9
345: 0x0CD5 [0x45] LOAD_SCHEDULED_TASK: Load scheduler "s045" with entities [EventEntity, EventEntity], work=[892*, 0*]
346: 0x0CE6 [0x01] GOTO 0x0D16
347: 0x0CE9 [0x02] IF !(Work_Zone[9] == 6*) GOTO 0x0D05
348: 0x0CF1 [0x45] LOAD_SCHEDULED_TASK: Load scheduler "s045" with entities [EventEntity, EventEntity], work=[892*, 0*]
349: 0x0D02 [0x01] GOTO 0x0D16
350: 0x0D05 [0x45] LOAD_SCHEDULED_TASK: Load scheduler "s021" with entities [EventEntity, EventEntity], work=[892*, 0*]

SUBROUTINE_0D16:
351: 0x0D16 [0x2B] Raebrimm (ID: 17629795/0x010D0263) [11551*]:
     "Resurrect his master? Is such a thing even possible?"
352: 0x0D1D [0x23] WAIT_FOR_DIALOG_INTERACTION
353: 0x0D1E [0x2A] GET_REQ_LEVEL(level=15, entity_id=Raebrimm (ID: 17629795/0x010D0263))
354: 0x0D24 [0x02] IF !(Work_Zone[9] == 5*) GOTO 0x0D3E
355: 0x0D2C [0x52] END_LOAD_SCHEDULER: End scheduler "s045" with entities [EventEntity, EventEntity], work=892*
356: 0x0D3B [0x01] GOTO 0x0D67
357: 0x0D3E [0x02] IF !(Work_Zone[9] == 6*) GOTO 0x0D58
358: 0x0D46 [0x52] END_LOAD_SCHEDULER: End scheduler "s045" with entities [EventEntity, EventEntity], work=892*
359: 0x0D55 [0x01] GOTO 0x0D67
360: 0x0D58 [0x52] END_LOAD_SCHEDULER: End scheduler "s021" with entities [EventEntity, EventEntity], work=892*

SUBROUTINE_0D67:
361: 0x0D67 [0x45] LOAD_SCHEDULED_TASK: Load scheduler "s022" with entities [EventEntity, EventEntity], work=[892*, 0*]
362: 0x0D78 [0x29] REQ_SET_WAIT(priority=0x0F, entity_id=Dazbog (ID: 17629798/0x010D0266), tag_num=0x03)
363: 0x0D7F [0x2B] Dazbog (ID: 17629798/0x010D0266) [11552*]:
     "H-his master is in the underworld known as Valhalla."
364: 0x0D86 [0x23] WAIT_FOR_DIALOG_INTERACTION
365: 0x0D87 [0x29] REQ_SET_WAIT(priority=0x0F, entity_id=Dazbog (ID: 17629798/0x010D0266), tag_num=0x04)
366: 0x0D8E [0x7B] Raebrimm (ID: 17629795/0x010D0263) stops talking
367: 0x0D93 [0x29] REQ_SET_WAIT(priority=0x0F, entity_id=Raebrimm (ID: 17629795/0x010D0263), tag_num=0x13)
368: 0x0D9A [0x2B] Raebrimm (ID: 17629795/0x010D0263) [11553*]:
     "Hm? Valhalla? Where have I heard that name before..."
369: 0x0DA1 [0x1C] WAIT(20* ticks)
370: 0x0DA4 [0x79] LocalPlayer looks at Raebrimm (ID: 17629795/0x010D0263) (Basic look)
371: 0x0DAE [0x23] WAIT_FOR_DIALOG_INTERACTION
372: 0x0DAF [0x52] END_LOAD_SCHEDULER: End scheduler "s022" with entities [EventEntity, EventEntity], work=892*
373: 0x0DBE [0x45] LOAD_SCHEDULED_TASK: Load scheduler "s023" with entities [EventEntity, EventEntity], work=[892*, 0*]
374: 0x0DCF [0x27] REQ_SET(priority=0x0F, entity_id=Dazbog (ID: 17629798/0x010D0266), tag_num=0x14)
375: 0x0DD6 [0x79] LocalPlayer looks at Dazbog (ID: 17629798/0x010D0266) (Basic look)
376: 0x0DE0 [0x2B] Dazbog (ID: 17629798/0x010D0266) [11554*]:
     "H-however, nobody knows where the gate to the underworld is..."
377: 0x0DE7 [0x23] WAIT_FOR_DIALOG_INTERACTION
378: 0x0DE8 [0x2A] GET_REQ_LEVEL(level=15, entity_id=Dazbog (ID: 17629798/0x010D0266))
379: 0x0DEE [0x29] REQ_SET_WAIT(priority=0x0F, entity_id=Raebrimm (ID: 17629795/0x010D0263), tag_num=0x14)
380: 0x0DF5 [0x29] REQ_SET_WAIT(priority=0x0F, entity_id=Raebrimm (ID: 17629795/0x010D0263), tag_num=0x15)
381: 0x0DFC [0x29] REQ_SET_WAIT(priority=0x0F, entity_id=Dazbog (ID: 17629798/0x010D0266), tag_num=0x0A)
382: 0x0E03 [0x2B] Dazbog (ID: 17629798/0x010D0266) [11555*]:
     "S-so he decided he had no need for the Destiny Destroyers anymore..."
383: 0x0E0A [0x29] REQ_SET_WAIT(priority=0x0F, entity_id=Raebrimm (ID: 17629795/0x010D0263), tag_num=0x16)
384: 0x0E11 [0x4A] LocalPlayer looks at Dazbog (ID: 17629798/0x010D0266)
385: 0x0E1A [0x4A] Raebrimm (ID: 17629795/0x010D0263) looks at Dazbog (ID: 17629798/0x010D0266)
386: 0x0E23 [0x6F] WAIT_FRAME_DELAY: Yield until WaitTime reaches zero
387: 0x0E24 [0x76] CHECK_ENTITY_RENDER_FLAGS: Wait until Raebrimm (ID: 17629795/0x010D0263) Render.Flags0 and Render.Flags3 conditions are met
388: 0x0E29 [0x6F] WAIT_FRAME_DELAY: Yield until WaitTime reaches zero
389: 0x0E2A [0x76] CHECK_ENTITY_RENDER_FLAGS: Wait until LocalPlayer Render.Flags0 and Render.Flags3 conditions are met
390: 0x0E2F [0x23] WAIT_FOR_DIALOG_INTERACTION
391: 0x0E30 [0x29] REQ_SET_WAIT(priority=0x0F, entity_id=Dazbog (ID: 17629798/0x010D0266), tag_num=0x0B)
392: 0x0E37 [0x52] END_LOAD_SCHEDULER: End scheduler "s023" with entities [EventEntity, EventEntity], work=892*
393: 0x0E46 [0x45] LOAD_SCHEDULED_TASK: Load scheduler "s024" with entities [EventEntity, EventEntity], work=[892*, 0*]
394: 0x0E57 [0x29] REQ_SET_WAIT(priority=0x0F, entity_id=Dazbog (ID: 17629798/0x010D0266), tag_num=0x0C)
395: 0x0E5E [0x2B] Dazbog (ID: 17629798/0x010D0266) [11556*]:
     "I... I got lost, and then was attacked by some spider... I started running, but then I fell..."
396: 0x0E65 [0x29] REQ_SET_WAIT(priority=0x0F, entity_id=Dazbog (ID: 17629798/0x010D0266), tag_num=0x0D)
397: 0x0E6C [0x4A] Dazbog (ID: 17629798/0x010D0266) looks at Raebrimm (ID: 17629795/0x010D0263)
398: 0x0E75 [0x6F] WAIT_FRAME_DELAY: Yield until WaitTime reaches zero
399: 0x0E76 [0x76] CHECK_ENTITY_RENDER_FLAGS: Wait until Dazbog (ID: 17629798/0x010D0266) Render.Flags0 and Render.Flags3 conditions are met
400: 0x0E7B [0x23] WAIT_FOR_DIALOG_INTERACTION
401: 0x0E7C [0x2B] Dazbog (ID: 17629798/0x010D0266) [11557*]:
     "B-but I was in charge of carrying our gear... The xhifhut made a sound that drew the Antica..."
402: 0x0E83 [0x23] WAIT_FOR_DIALOG_INTERACTION
403: 0x0E84 [0x27] REQ_SET(priority=0x0F, entity_id=Dazbog (ID: 17629798/0x010D0266), tag_num=0x15)
404: 0x0E8B [0x1C] WAIT(30* ticks)
405: 0x0E8E [0x52] END_LOAD_SCHEDULER: End scheduler "s024" with entities [EventEntity, EventEntity], work=892*
406: 0x0E9D [0x45] LOAD_SCHEDULED_TASK: Load scheduler "s025" with entities [EventEntity, EventEntity], work=[892*, 0*]
407: 0x0EAE [0x2B] Dazbog (ID: 17629798/0x010D0266) [11558*]:
     "O-only I managed to escape to here..."
408: 0x0EB5 [0x1C] WAIT(50* ticks)
409: 0x0EB8 [0x4A] LocalPlayer looks at Dazbog (ID: 17629798/0x010D0266)
410: 0x0EC1 [0x1C] WAIT(20* ticks)
411: 0x0EC4 [0x4A] Raebrimm (ID: 17629795/0x010D0263) looks at Dazbog (ID: 17629798/0x010D0266)
412: 0x0ECD [0x6F] WAIT_FRAME_DELAY: Yield until WaitTime reaches zero
413: 0x0ECE [0x76] CHECK_ENTITY_RENDER_FLAGS: Wait until Raebrimm (ID: 17629795/0x010D0263) Render.Flags0 and Render.Flags3 conditions are met
414: 0x0ED3 [0x6F] WAIT_FRAME_DELAY: Yield until WaitTime reaches zero
415: 0x0ED4 [0x76] CHECK_ENTITY_RENDER_FLAGS: Wait until LocalPlayer Render.Flags0 and Render.Flags3 conditions are met
416: 0x0ED9 [0x23] WAIT_FOR_DIALOG_INTERACTION
417: 0x0EDA [0x2A] GET_REQ_LEVEL(level=15, entity_id=Dazbog (ID: 17629798/0x010D0266))
418: 0x0EE0 [0x52] END_LOAD_SCHEDULER: End scheduler "s025" with entities [EventEntity, EventEntity], work=892*
419: 0x0EEF [0x45] LOAD_SCHEDULED_TASK: Load scheduler "s031" with entities [EventEntity, EventEntity], work=[892*, 0*]
420: 0x0F00 [0x1C] WAIT(1* ticks)
421: 0x0F03 [0xBA] SET_ENTITY_POSITION(entity_id=LocalPlayer, pos_x=-469.288*, pos_z=623.452*, pos_y=0.000*, direction=259.0*)
422: 0x0F10 [0x4A] LocalPlayer looks at Dazbog (ID: 17629798/0x010D0266)
423: 0x0F19 [0x2B] Dazbog (ID: 17629798/0x010D0266) [11559*]:
     "B-but everyone else, they..."
424: 0x0F20 [0x23] WAIT_FOR_DIALOG_INTERACTION
425: 0x0F21 [0x6F] WAIT_FRAME_DELAY: Yield until WaitTime reaches zero
426: 0x0F22 [0x76] CHECK_ENTITY_RENDER_FLAGS: Wait until LocalPlayer Render.Flags0 and Render.Flags3 conditions are met
427: 0x0F27 [0x52] END_LOAD_SCHEDULER: End scheduler "s031" with entities [EventEntity, EventEntity], work=892*
428: 0x0F36 [0x02] IF !(Work_Zone[9] == 3*) GOTO 0x0F52
429: 0x0F3E [0x45] LOAD_SCHEDULED_TASK: Load scheduler "s026" with entities [EventEntity, EventEntity], work=[892*, 0*]
430: 0x0F4F [0x01] GOTO 0x0FB7
431: 0x0F52 [0x02] IF !(Work_Zone[9] == 5*) GOTO 0x0F6E
432: 0x0F5A [0x45] LOAD_SCHEDULED_TASK: Load scheduler "s046" with entities [EventEntity, EventEntity], work=[892*, 0*]
433: 0x0F6B [0x01] GOTO 0x0FB7
434: 0x0F6E [0x02] IF !(Work_Zone[9] == 6*) GOTO 0x0F8A
435: 0x0F76 [0x45] LOAD_SCHEDULED_TASK: Load scheduler "s046" with entities [EventEntity, EventEntity], work=[892*, 0*]
436: 0x0F87 [0x01] GOTO 0x0FB7
437: 0x0F8A [0x02] IF !(Work_Zone[9] == 8*) GOTO 0x0FA6
438: 0x0F92 [0x45] LOAD_SCHEDULED_TASK: Load scheduler "s026" with entities [EventEntity, EventEntity], work=[892*, 0*]
439: 0x0FA3 [0x01] GOTO 0x0FB7
440: 0x0FA6 [0x45] LOAD_SCHEDULED_TASK: Load scheduler "s050" with entities [EventEntity, EventEntity], work=[892*, 0*]

SUBROUTINE_0FB7:
441: 0x0FB7 [0x4A] Dazbog (ID: 17629798/0x010D0266) looks at LocalPlayer
442: 0x0FC0 [0x6F] WAIT_FRAME_DELAY: Yield until WaitTime reaches zero
443: 0x0FC1 [0x76] CHECK_ENTITY_RENDER_FLAGS: Wait until Dazbog (ID: 17629798/0x010D0266) Render.Flags0 and Render.Flags3 conditions are met
444: 0x0FC6 [0x2B] Dazbog (ID: 17629798/0x010D0266) [11560*]:
     "Y-you're a powerful warrior... P-please, you must help my friends!"
445: 0x0FCD [0x23] WAIT_FOR_DIALOG_INTERACTION
446: 0x0FCE [0x03] Work_Zone[0] = 1*

SUBROUTINE_0FD3:
447: 0x0FD3 [0x02] IF !(Work_Zone[0] == 0*) GOTO 0x12C3
448: 0x0FDB [0x24] CREATE_DIALOG(message_id=11561*, default_option=0*, option_flags=0*)
     "Will you help the Destiny Destroyers? [Yes, I can help you./Sorry, it's none of my business.]"
449: 0x0FE2 [0x25] WAIT_DIALOG_SELECT()
450: 0x0FE3 [0x02] IF !(Work_Zone[0] == 0*) GOTO 0x10E1
451: 0x0FEB [0x4A] Raebrimm (ID: 17629795/0x010D0263) looks at LocalPlayer
452: 0x0FF4 [0x6E] LocalPlayer uses emote 7*
453: 0x0FFB [0x99] Wait for LocalPlayer animation to complete
454: 0x1000 [0x1C] WAIT(60* ticks)
455: 0x1003 [0x6F] WAIT_FRAME_DELAY: Yield until WaitTime reaches zero
456: 0x1004 [0x76] CHECK_ENTITY_RENDER_FLAGS: Wait until Raebrimm (ID: 17629795/0x010D0263) Render.Flags0 and Render.Flags3 conditions are met
457: 0x1009 [0x02] IF !(Work_Zone[9] == 3*) GOTO 0x1023
