# 0x7FFFFFF0 - Zone Events

## Common Data

| Field            | Value                     |
|------------------|---------------------------|
| Zone             | Quicksand Caves (ID: 208) |
| Block Size       | 2100 bytes                |
| Total Events     | 13                        |
| References Count | 85                        |

## List of Events

| Event ID                 | Entrypoint   |   Size |   Instructions |
|--------------------------|--------------|--------|----------------|
| [65535](#event-65535)    | 0x0000       |      1 |              1 |
| [65534](#event-65534)    | 0x0001       |      1 |              1 |
| [10](#event-10)          | 0x0002       |   1129 |            142 |
| [11](#event-11)          | 0x046B       |    426 |             55 |
| [65535.1](#event-655351) | 0x0615       |      6 |              2 |
| [65535.2](#event-655352) | 0x061B       |      7 |              3 |
| [65535.3](#event-655353) | 0x0622       |      7 |              3 |
| [65535.4](#event-655354) | 0x0629       |     15 |              5 |
| [65535.5](#event-655355) | 0x0638       |     15 |              5 |
| [65535.6](#event-655356) | 0x0647       |     25 |              7 |
| [65535.7](#event-655357) | 0x0660       |     15 |              5 |
| [65535.8](#event-655358) | 0x066F       |     22 |              8 |
| [65535.9](#event-655359) | 0x0685       |     22 |              8 |

## DAT References (imed_data)

|   Index | Hex Value   |   Dec Value |
|---------|-------------|-------------|
|       0 | 0x00C8      |         200 |
|       1 | 0x0000      |           0 |
|       2 | 0x001E      |          30 |
|       3 | 0xFFF7DC19  |  4294433817 |
|       4 | 0xFFF9AC0C  |  4294552588 |
|       5 | 0xFFFFFCAD  |  4294966445 |
|       6 | 0x018C      |         396 |
|       7 | 0x0013      |          19 |
|       8 | 0x00DB      |         219 |
|       9 | 0x0001      |           1 |
|      10 | 0x0009      |           9 |
|      11 | 0x0002      |           2 |
|      12 | 0x0003      |           3 |
|      13 | 0x001D      |          29 |
|      14 | 0x0004      |           4 |
|      15 | 0x0027      |          39 |
|      16 | 0x0005      |           5 |
|      17 | 0x0031      |          49 |
|      18 | 0x0006      |           6 |
|      19 | 0x0007      |           7 |
|      20 | 0x003B      |          59 |
|      21 | 0x0008      |           8 |
|      22 | 0x0045      |          69 |
|      23 | 0x1CB8      |        7352 |
|      24 | 0x1CB9      |        7353 |
|      25 | 0x00C7      |         199 |
|      26 | 0x1CBA      |        7354 |
|      27 | 0x003C      |          60 |
|      28 | 0x0014      |          20 |
|      29 | 0x1CBB      |        7355 |
|      30 | 0x1CBC      |        7356 |
|      31 | 0x1CBD      |        7357 |
|      32 | 0x1CBE      |        7358 |
|      33 | 0x1CBF      |        7359 |
|      34 | 0x1CC0      |        7360 |
|      35 | 0x020A      |         522 |
|      36 | 0x1CC1      |        7361 |
|      37 | 0x1CC2      |        7362 |
|      38 | 0x1CC3      |        7363 |
|      39 | 0x1CC4      |        7364 |
|      40 | 0x1CC5      |        7365 |
|      41 | 0xFFF82AB8  |  4294453944 |
|      42 | 0xFFF9BB18  |  4294556440 |
|      43 | 0xFFFFFD13  |  4294966547 |
|      44 | 0x0DAA      |        3498 |
|      45 | 0x1CC6      |        7366 |
|      46 | 0x1CC7      |        7367 |
|      47 | 0x0032      |          50 |
|      48 | 0x000A      |          10 |
|      49 | 0x1CC8      |        7368 |
|      50 | 0x1CC9      |        7369 |
|      51 | 0x00F4      |         244 |
|      52 | 0x1CCA      |        7370 |
|      53 | 0x1CCB      |        7371 |
|      54 | 0x1CCC      |        7372 |
|      55 | 0x0078      |         120 |
|      56 | 0xFFF8DC4D  |  4294499405 |
|      57 | 0x9738E     |      619406 |
|      58 | 0x08AD      |        2221 |
|      59 | 0x00C2      |         194 |
|      60 | 0x1CB0      |        7344 |
|      61 | 0x1CB1      |        7345 |
|      62 | 0x1CB2      |        7346 |
|      63 | 0x1CB3      |        7347 |
|      64 | 0x1CB4      |        7348 |
|      65 | 0x1CB5      |        7349 |
|      66 | 0x1CB6      |        7350 |
|      67 | 0x1CB7      |        7351 |
|      68 | 0x0028      |          40 |
|      69 | 0xFFF8D707  |  4294498055 |
|      70 | 0x98568     |      623976 |
|      71 | 0x000D      |          13 |
|      72 | 0xFFF8E6BB  |  4294502075 |
|      73 | 0x9807D     |      622717 |
|      74 | 0xFFF8E7FF  |  4294502399 |
|      75 | 0x97D61     |      621921 |
|      76 | 0xFFF8F54E  |  4294505806 |
|      77 | 0x9769A     |      620186 |
|      78 | 0xFFF83308  |  4294456072 |
|      79 | 0xFFF998DC  |  4294547676 |
|      80 | 0xFFFF06EF  |  4294903535 |
|      81 | 0x4671A     |      288538 |
|      82 | 0xFFFFC180  |  4294951296 |
|      83 | 0xFFFF11FD  |  4294906365 |
|      84 | 0x487CE     |      296910 |

## String References

- **7352**: Ancient letters are carved here, but you are unable to read them.

## Events

### Event 65535

#### Metadata

| Field        | Value   |
|--------------|---------|
| Entrypoint   | 0x0000  |
| Data Size    | 1 bytes |
| Instructions | 1       |

```
      00 01 02 03 04 05 06 07  08 09 0A 0B 0C 0D 0E 0F
      -- -- -- -- -- -- -- --  -- -- -- -- -- -- -- --
0000: 00                                                .               
```

#### Opcodes

```
  0: 0x0000 [0x00] END_REQSTACK()
```

### Event 65534

#### Metadata

| Field        | Value   |
|--------------|---------|
| Entrypoint   | 0x0001  |
| Data Size    | 1 bytes |
| Instructions | 1       |

```
      00 01 02 03 04 05 06 07  08 09 0A 0B 0C 0D 0E 0F
      -- -- -- -- -- -- -- --  -- -- -- -- -- -- -- --
0000:    00                                              .              
```

#### Opcodes

```
  0: 0x0001 [0x00] END_REQSTACK()
```

### Event 10

#### Metadata

| Field        | Value      |
|--------------|------------|
| Entrypoint   | 0x0002     |
| Data Size    | 1129 bytes |
| Instructions | 142        |

```
      00 01 02 03 04 05 06 07  08 09 0A 0B 0C 0D 0E 0F
      -- -- -- -- -- -- -- --  -- -- -- -- -- -- -- --
0000:       42 45 00 80 F8 FF  FF 7F F8 FF FF 7F 66 64    BE..........fd
0010: 6F 30 01 80 1C 02 80 37  03 80 04 80 05 80 06 80  o0.....7........
0020: 46 01 38 07 80 45 00 80  F8 FF FF 7F F8 FF FF 7F  F.8..E..........
0030: 66 64 69 31 01 80 45 08  80 F8 FF FF 7F F8 FF FF  fdi1..E.........
0040: 7F 73 30 30 30 01 80 02  87 7F 09 80 80 57 00 03  .s000........W..
0050: 00 00 0A 80 01 C7 00 02  87 7F 0B 80 80 67 00 03  .............g..
0060: 00 00 07 80 01 C7 00 02  87 7F 0C 80 80 77 00 03  .............w..
0070: 00 00 0D 80 01 C7 00 02  87 7F 0E 80 80 87 00 03  ................
0080: 00 00 0F 80 01 C7 00 02  87 7F 10 80 80 97 00 03  ................
0090: 00 00 11 80 01 C7 00 02  87 7F 12 80 80 A7 00 03  ................
00A0: 00 00 11 80 01 C7 00 02  87 7F 13 80 80 B7 00 03  ................
00B0: 00 00 14 80 01 C7 00 02  87 7F 15 80 80 C7 00 03  ................
00C0: 00 00 16 80 01 C7 00 66  00 00 F0 FF FF 7F F0 FF  .......f........
00D0: FF 7F 73 68 61 30 53 F0  FF FF 7F F0 FF FF 7F 73  ..sha0S........s
00E0: 68 61 30 66 00 00 F0 FF  FF 7F F0 FF FF 7F 73 69  ha0f..........si
00F0: 72 30 48 17 80 23 66 00  00 F0 FF FF 7F F0 FF FF  r0H..#f.........
0100: 7F 73 68 61 31 52 08 80  F8 FF FF 7F F8 FF FF 7F  .sha1R..........
0110: 73 30 30 30 45 00 80 F8  FF FF 7F F8 FF FF 7F 6F  s000E..........o
0120: 76 6C 31 01 80 45 08 80  F8 FF FF 7F F8 FF FF 7F  vl1..E..........
0130: 73 30 30 31 01 80 27 0A  26 02 0D 01 02 2B 26 02  s001..'.&....+&.
0140: 0D 01 18 80 23 53 F0 FF  FF 7F F0 FF FF 7F 73 68  ....#S........sh
0150: 61 31 1E 26 02 0D 01 5C  00 19 80 5C 01 19 80 2B  a1.&...\...\...+
0160: 26 02 0D 01 1A 80 23 45  00 80 F8 FF FF 7F F8 FF  &.....#E........
0170: FF 7F 66 64 6F 31 01 80  1C 1B 80 2A 0A 26 02 0D  ..fdo1.....*.&..
0180: 01 27 0A 26 02 0D 01 03  52 08 80 F8 FF FF 7F F8  .'.&....R.......
0190: FF FF 7F 73 30 30 31 45  00 80 F8 FF FF 7F F8 FF  ...s001E........
01A0: FF 7F 66 64 69 31 01 80  45 08 80 F8 FF FF 7F F8  ..fdi1..E.......
01B0: FF FF 7F 73 30 30 33 01  80 1C 1C 80 2B 26 02 0D  ...s003.....+&..
01C0: 01 1D 80 23 2A 0A 26 02  0D 01 52 08 80 F8 FF FF  ...#*.&...R.....
01D0: 7F F8 FF FF 7F 73 30 30  33 45 08 80 F8 FF FF 7F  .....s003E......
01E0: F8 FF FF 7F 73 30 30 32  01 80 2B 26 02 0D 01 1E  ....s002..+&....
01F0: 80 23 2B 26 02 0D 01 1F  80 23 52 08 80 F8 FF FF  .#+&.....#R.....
0200: 7F F8 FF FF 7F 73 30 30  32 45 00 80 F8 FF FF 7F  .....s002E......
0210: F8 FF FF 7F 66 64 6F 30  01 80 1C 02 80 45 08 80  ....fdo0.....E..
0220: F8 FF FF 7F F8 FF FF 7F  73 30 30 34 01 80 45 00  ........s004..E.
0230: 80 F8 FF FF 7F F8 FF FF  7F 66 64 69 31 01 80 27  .........fdi1..'
0240: 0A 26 02 0D 01 04 2B 26  02 0D 01 20 80 23 2B 26  .&....+&... .#+&
0250: 02 0D 01 21 80 23 2B 26  02 0D 01 22 80 23 2A 0A  ...!.#+&...".#*.
0260: 26 02 0D 01 5B 23 80 26  02 0D 01 26 02 0D 01 68  &...[#.&...&...h
0270: 65 6B 32 2B 26 02 0D 01  24 80 23 52 08 80 F8 FF  ek2+&...$.#R....
0280: FF 7F F8 FF FF 7F 73 30  30 34 45 00 80 F8 FF FF  ......s004E.....
0290: 7F F8 FF FF 7F 6F 76 6C  31 01 80 45 08 80 F8 FF  .....ovl1..E....
02A0: FF 7F F8 FF FF 7F 73 30  30 35 01 80 6B 69 64 6C  ......s005..kidl
02B0: 30 26 02 0D 01 27 0A 26  02 0D 01 05 2B 26 02 0D  0&...'.&....+&..
02C0: 01 25 80 23 2A 0A 26 02  0D 01 2B 26 02 0D 01 26  .%.#*.&...+&...&
02D0: 80 23 52 08 80 F8 FF FF  7F F8 FF FF 7F 73 30 30  .#R..........s00
02E0: 35 45 08 80 F8 FF FF 7F  F8 FF FF 7F 73 30 30 36  5E..........s006
02F0: 01 80 2B 26 02 0D 01 27  80 23 53 26 02 0D 01 26  ..+&...'.#S&...&
0300: 02 0D 01 68 65 6B 30 5B  23 80 26 02 0D 01 26 02  ...hek0[#.&...&.
0310: 0D 01 68 65 6B 31 2B 26  02 0D 01 28 80 23 37 29  ..hek1+&...(.#7)
0320: 80 2A 80 2B 80 2C 80 79  00 F0 FF FF 7F 26 02 0D  .*.+.,.y.....&..
0330: 01 52 08 80 F8 FF FF 7F  F8 FF FF 7F 73 30 30 36  .R..........s006
0340: 45 08 80 F8 FF FF 7F F8  FF FF 7F 73 30 31 31 01  E..........s011.
0350: 80 2B 26 02 0D 01 2D 80  23 5B 23 80 26 02 0D 01  .+&...-.#[#.&...
0360: 26 02 0D 01 68 65 6B 32  2B 26 02 0D 01 2E 80 23  &...hek2+&.....#
0370: 45 00 80 F8 FF FF 7F F8  FF FF 7F 66 64 6F 31 01  E..........fdo1.
0380: 80 1C 2F 80 6B 69 64 6C  30 26 02 0D 01 1C 30 80  ../.kidl0&....0.
0390: 45 08 80 F8 FF FF 7F F8  FF FF 7F 73 30 31 32 01  E..........s012.
03A0: 80 45 00 80 F8 FF FF 7F  F8 FF FF 7F 66 64 69 31  .E..........fdi1
03B0: 01 80 2B 26 02 0D 01 31  80 23 4A 26 02 0D 01 F0  ..+&...1.#J&....
03C0: FF FF 7F 2B 26 02 0D 01  32 80 23 5B 33 80 26 02  ...+&...2.#[3.&.
03D0: 0D 01 26 02 0D 01 74 6B  62 30 2B 26 02 0D 01 34  ..&...tkb0+&...4
03E0: 80 23 52 08 80 F8 FF FF  7F F8 FF FF 7F 73 30 31  .#R..........s01
03F0: 32 45 08 80 F8 FF FF 7F  F8 FF FF 7F 73 30 31 33  2E..........s013
0400: 01 80 2B 26 02 0D 01 35  80 23 5B 33 80 26 02 0D  ..+&...5.#[3.&..
0410: 01 26 02 0D 01 74 6B 62  31 2B 26 02 0D 01 36 80  .&...tkb1+&...6.
0420: 23 53 26 02 0D 01 26 02  0D 01 74 6B 62 31 27 0A  #S&...&...tkb1'.
0430: 26 02 0D 01 06 5D 01 80  37 80 45 00 80 F8 FF FF  &....]..7.E.....
0440: 7F F8 FF FF 7F 66 64 6F  32 01 80 1C 37 80 46 00  .....fdo2...7.F.
0450: 45 00 80 F8 FF FF 7F F8  FF FF 7F 66 64 69 31 01  E..........fdi1.
0460: 80 5C 00 01 80 5C 01 01  80 21 00                 .\...\...!.     
```

#### Opcodes

```
  0: 0x0002 [0x42] SET_CLI_EVENT_CANCEL_DATA()
  1: 0x0003 [0x45] LOAD_SCHEDULED_TASK: Load scheduler "fdo0" with entities [EventEntity, EventEntity], work=[200*, 0*]
  2: 0x0014 [0x1C] WAIT(30* ticks)
  3: 0x0017 [0x37] UPDATE_EVENT_POSITION_AND_DIR: x=-533.479*, z=-414.708*, y=-0.851*, direction=34.8°*
  4: 0x0020 [0x46] CAMERA_CONTROL: Disable user control
  5: 0x0022 [0x38] SET_CLIENT_EVENT_MODE(mode=19*)
  6: 0x0025 [0x45] LOAD_SCHEDULED_TASK: Load scheduler "fdi1" with entities [EventEntity, EventEntity], work=[200*, 0*]
  7: 0x0036 [0x45] LOAD_SCHEDULED_TASK: Load scheduler "s000" with entities [EventEntity, EventEntity], work=[219*, 0*]
  8: 0x0047 [0x02] IF !(LocalPlayer->Race == 1*) GOTO 0x0057
  9: 0x004F [0x03] ExtData[1]->WorkLocal[0] = 9*
 10: 0x0054 [0x01] GOTO 0x00C7
 11: 0x0057 [0x02] IF !(LocalPlayer->Race == 2*) GOTO 0x0067
 12: 0x005F [0x03] ExtData[1]->WorkLocal[0] = 19*
 13: 0x0064 [0x01] GOTO 0x00C7
 14: 0x0067 [0x02] IF !(LocalPlayer->Race == 3*) GOTO 0x0077
 15: 0x006F [0x03] ExtData[1]->WorkLocal[0] = 29*
 16: 0x0074 [0x01] GOTO 0x00C7
 17: 0x0077 [0x02] IF !(LocalPlayer->Race == 4*) GOTO 0x0087
 18: 0x007F [0x03] ExtData[1]->WorkLocal[0] = 39*
 19: 0x0084 [0x01] GOTO 0x00C7
 20: 0x0087 [0x02] IF !(LocalPlayer->Race == 5*) GOTO 0x0097
 21: 0x008F [0x03] ExtData[1]->WorkLocal[0] = 49*
 22: 0x0094 [0x01] GOTO 0x00C7
 23: 0x0097 [0x02] IF !(LocalPlayer->Race == 6*) GOTO 0x00A7
 24: 0x009F [0x03] ExtData[1]->WorkLocal[0] = 49*
 25: 0x00A4 [0x01] GOTO 0x00C7
 26: 0x00A7 [0x02] IF !(LocalPlayer->Race == 7*) GOTO 0x00B7
 27: 0x00AF [0x03] ExtData[1]->WorkLocal[0] = 59*
 28: 0x00B4 [0x01] GOTO 0x00C7
 29: 0x00B7 [0x02] IF !(LocalPlayer->Race == 8*) GOTO 0x00C7
 30: 0x00BF [0x03] ExtData[1]->WorkLocal[0] = 69*
 31: 0x00C4 [0x01] GOTO 0x00C7

SUBROUTINE_00C7:
 32: 0x00C7 [0x66] LOAD_EXT_SCHEDULER_MAIN: Load scheduler "sha0" with entities [LocalPlayer, LocalPlayer], work=ExtData[1]->WorkLocal[0]
 33: 0x00D6 [0x53] WAIT_SCHEDULER_TASK: Wait for scheduler "sha0" with entities [LocalPlayer, LocalPlayer]
 34: 0x00E3 [0x66] LOAD_EXT_SCHEDULER_MAIN: Load scheduler "sir0" with entities [LocalPlayer, LocalPlayer], work=ExtData[1]->WorkLocal[0]
 35: 0x00F2 [0x48] [System] [7352*]:
    → "Ancient letters are carved here, but you are unable to read them."
 36: 0x00F5 [0x23] WAIT_FOR_DIALOG_INTERACTION
 37: 0x00F6 [0x66] LOAD_EXT_SCHEDULER_MAIN: Load scheduler "sha1" with entities [LocalPlayer, LocalPlayer], work=ExtData[1]->WorkLocal[0]
 38: 0x0105 [0x52] END_LOAD_SCHEDULER: End scheduler "s000" with entities [EventEntity, EventEntity], work=219*
 39: 0x0114 [0x45] LOAD_SCHEDULED_TASK: Load scheduler "ovl1" with entities [EventEntity, EventEntity], work=[200*, 0*]
 40: 0x0125 [0x45] LOAD_SCHEDULED_TASK: Load scheduler "s001" with entities [EventEntity, EventEntity], work=[219*, 0*]
 41: 0x0136 [0x27] REQ_SET(priority=0x0A, entity_id=Zeid (ID: 17629734/0x010D0226), tag_num=0x02)
 42: 0x013D [0x2B] Zeid (ID: 17629734/0x010D0226) [7353*]:
    → "This...this mural softly whispers the history of Altepa."
 43: 0x0144 [0x23] WAIT_FOR_DIALOG_INTERACTION
 44: 0x0145 [0x53] WAIT_SCHEDULER_TASK: Wait for scheduler "sha1" with entities [LocalPlayer, LocalPlayer]
 45: 0x0152 [0x1E] EventEntity looks at Zeid (ID: 17629734/0x010D0226) and starts talking
 46: 0x0157 [0x5C] MUSIC_CONTROL: Set Idle (Day) music to song 199*
 47: 0x015B [0x5C] MUSIC_CONTROL: Set Idle (Night) music to song 199*
 48: 0x015F [0x2B] Zeid (ID: 17629734/0x010D0226) [7354*]:
    → "This may appear to be ancient ruins, but these buildings were used up until a mere three generations ago."
 49: 0x0166 [0x23] WAIT_FOR_DIALOG_INTERACTION
 50: 0x0167 [0x45] LOAD_SCHEDULED_TASK: Load scheduler "fdo1" with entities [EventEntity, EventEntity], work=[200*, 0*]
 51: 0x0178 [0x1C] WAIT(60* ticks)
 52: 0x017B [0x2A] GET_REQ_LEVEL(level=10, entity_id=Zeid (ID: 17629734/0x010D0226))
 53: 0x0181 [0x27] REQ_SET(priority=0x0A, entity_id=Zeid (ID: 17629734/0x010D0226), tag_num=0x03)
 54: 0x0188 [0x52] END_LOAD_SCHEDULER: End scheduler "s001" with entities [EventEntity, EventEntity], work=219*
 55: 0x0197 [0x45] LOAD_SCHEDULED_TASK: Load scheduler "fdi1" with entities [EventEntity, EventEntity], work=[200*, 0*]
 56: 0x01A8 [0x45] LOAD_SCHEDULED_TASK: Load scheduler "s003" with entities [EventEntity, EventEntity], work=[219*, 0*]
 57: 0x01B9 [0x1C] WAIT(20* ticks)
 58: 0x01BC [0x2B] Zeid (ID: 17629734/0x010D0226) [7355*]:
    → "One force battles another...a situation necessary in any country's history. And, as you may have already guessed, there were two forces in Altepa as well."
 59: 0x01C3 [0x23] WAIT_FOR_DIALOG_INTERACTION
 60: 0x01C4 [0x2A] GET_REQ_LEVEL(level=10, entity_id=Zeid (ID: 17629734/0x010D0226))
 61: 0x01CA [0x52] END_LOAD_SCHEDULER: End scheduler "s003" with entities [EventEntity, EventEntity], work=219*
 62: 0x01D9 [0x45] LOAD_SCHEDULED_TASK: Load scheduler "s002" with entities [EventEntity, EventEntity], work=[219*, 0*]
 63: 0x01EA [0x2B] Zeid (ID: 17629734/0x010D0226) [7356*]:
    → "The Galka mistakenly disturbed the Antica, who lived deep beneath Vana'diel. In the early stages of their battles, the Galka used their strength to gain the upper hand."
 64: 0x01F1 [0x23] WAIT_FOR_DIALOG_INTERACTION
 65: 0x01F2 [0x2B] Zeid (ID: 17629734/0x010D0226) [7357*]:
    → "However, it was not strength that decided the outcome of this conflict. The Antica, with their amazing reproductive ability, simply outnumbered the Galka."
 66: 0x01F9 [0x23] WAIT_FOR_DIALOG_INTERACTION
 67: 0x01FA [0x52] END_LOAD_SCHEDULER: End scheduler "s002" with entities [EventEntity, EventEntity], work=219*
 68: 0x0209 [0x45] LOAD_SCHEDULED_TASK: Load scheduler "fdo0" with entities [EventEntity, EventEntity], work=[200*, 0*]
 69: 0x021A [0x1C] WAIT(30* ticks)
 70: 0x021D [0x45] LOAD_SCHEDULED_TASK: Load scheduler "s004" with entities [EventEntity, EventEntity], work=[219*, 0*]
 71: 0x022E [0x45] LOAD_SCHEDULED_TASK: Load scheduler "fdi1" with entities [EventEntity, EventEntity], work=[200*, 0*]
 72: 0x023F [0x27] REQ_SET(priority=0x0A, entity_id=Zeid (ID: 17629734/0x010D0226), tag_num=0x04)
 73: 0x0246 [0x2B] Zeid (ID: 17629734/0x010D0226) [7358*]:
    → "When a Galka senses his death, he sets out on a journey to climb a high mountain and await his final moments. There, guided by a magnificent light, he gains a new body, and with that body climbs down from the mountain."
 74: 0x024D [0x23] WAIT_FOR_DIALOG_INTERACTION
 75: 0x024E [0x2B] Zeid (ID: 17629734/0x010D0226) [7359*]:
    → "However, no one has ever seen this miracle take place. It may just be simple folklore."
 76: 0x0255 [0x23] WAIT_FOR_DIALOG_INTERACTION
 77: 0x0256 [0x2B] Zeid (ID: 17629734/0x010D0226) [7360*]:
    → "All we Galka see is one of our brothers setting off on a journey. Then, less than a year later, a new Galka child arrives in our camps."
 78: 0x025D [0x23] WAIT_FOR_DIALOG_INTERACTION
 79: 0x025E [0x2A] GET_REQ_LEVEL(level=10, entity_id=Zeid (ID: 17629734/0x010D0226))
 80: 0x0264 [0x5B] LOAD_EXT_SCHEDULER: Load scheduler "hek2" with entities [Zeid (ID: 17629734/0x010D0226), Zeid (ID: 17629734/0x010D0226)], work=522*
 81: 0x0273 [0x2B] Zeid (ID: 17629734/0x010D0226) [7361*]:
    → "If they carry something with them from their previous life, they may be given their old name, but other than that, no reborn Galka have any recollection of their former selves."
 82: 0x027A [0x23] WAIT_FOR_DIALOG_INTERACTION
 83: 0x027B [0x52] END_LOAD_SCHEDULER: End scheduler "s004" with entities [EventEntity, EventEntity], work=219*
 84: 0x028A [0x45] LOAD_SCHEDULED_TASK: Load scheduler "ovl1" with entities [EventEntity, EventEntity], work=[200*, 0*]
 85: 0x029B [0x45] LOAD_SCHEDULED_TASK: Load scheduler "s005" with entities [EventEntity, EventEntity], work=[219*, 0*]
 86: 0x02AC [0x6B] STOP_AND_IDLE: Zeid (ID: 17629734/0x010D0226) stops current action and resets to idle (animation="idl0")
 87: 0x02B5 [0x27] REQ_SET(priority=0x0A, entity_id=Zeid (ID: 17629734/0x010D0226), tag_num=0x05)
 88: 0x02BC [0x2B] Zeid (ID: 17629734/0x010D0226) [7362*]:
    → "That is, all except one--one every generation."
 89: 0x02C3 [0x23] WAIT_FOR_DIALOG_INTERACTION
 90: 0x02C4 [0x2A] GET_REQ_LEVEL(level=10, entity_id=Zeid (ID: 17629734/0x010D0226))
 91: 0x02CA [0x2B] Zeid (ID: 17629734/0x010D0226) [7363*]:
    → "That one we call the Talekeeper. After proving he truly holds two hundred years of memories, he is then appointed new leader of the Galka."
 92: 0x02D1 [0x23] WAIT_FOR_DIALOG_INTERACTION
 93: 0x02D2 [0x52] END_LOAD_SCHEDULER: End scheduler "s005" with entities [EventEntity, EventEntity], work=219*
 94: 0x02E1 [0x45] LOAD_SCHEDULED_TASK: Load scheduler "s006" with entities [EventEntity, EventEntity], work=[219*, 0*]
 95: 0x02F2 [0x2B] Zeid (ID: 17629734/0x010D0226) [7364*]:
    → "Tradition binds this keeper of memories to his new position, and it is this tradition that the Galka have blindly followed for generations."
 96: 0x02F9 [0x23] WAIT_FOR_DIALOG_INTERACTION
 97: 0x02FA [0x53] WAIT_SCHEDULER_TASK: Wait for scheduler "hek0" with entities [Zeid (ID: 17629734/0x010D0226), Zeid (ID: 17629734/0x010D0226)]
 98: 0x0307 [0x5B] LOAD_EXT_SCHEDULER: Load scheduler "hek1" with entities [Zeid (ID: 17629734/0x010D0226), Zeid (ID: 17629734/0x010D0226)], work=522*
 99: 0x0316 [0x2B] Zeid (ID: 17629734/0x010D0226) [7365*]:
    → "This tradition is a great burden for those who must bear it. As you may already know, not one Talekeeper has ever lived long enough to set out on his journey of rebirth."
100: 0x031D [0x23] WAIT_FOR_DIALOG_INTERACTION
101: 0x031E [0x37] UPDATE_EVENT_POSITION_AND_DIR: x=-513.352*, z=-410.856*, y=-0.749*, direction=307.4°*
102: 0x0327 [0x79] LocalPlayer looks at Zeid (ID: 17629734/0x010D0226) (Basic look)
103: 0x0331 [0x52] END_LOAD_SCHEDULER: End scheduler "s006" with entities [EventEntity, EventEntity], work=219*
104: 0x0340 [0x45] LOAD_SCHEDULED_TASK: Load scheduler "s011" with entities [EventEntity, EventEntity], work=[219*, 0*]
105: 0x0351 [0x2B] Zeid (ID: 17629734/0x010D0226) [7366*]:
    → "One suffered from the fear that one day, he would lose hundreds of years of memories... Another could not handle the responsibility heaped upon him, and disappeared...never to be seen again."
106: 0x0358 [0x23] WAIT_FOR_DIALOG_INTERACTION
107: 0x0359 [0x5B] LOAD_EXT_SCHEDULER: Load scheduler "hek2" with entities [Zeid (ID: 17629734/0x010D0226), Zeid (ID: 17629734/0x010D0226)], work=522*
108: 0x0368 [0x2B] Zeid (ID: 17629734/0x010D0226) [7367*]:
    → "And one...one felt the anger of our race multiply within his heart until he could no longer control it, and finally became the Shadow Lord."
109: 0x036F [0x23] WAIT_FOR_DIALOG_INTERACTION
110: 0x0370 [0x45] LOAD_SCHEDULED_TASK: Load scheduler "fdo1" with entities [EventEntity, EventEntity], work=[200*, 0*]
111: 0x0381 [0x1C] WAIT(50* ticks)
112: 0x0384 [0x6B] STOP_AND_IDLE: Zeid (ID: 17629734/0x010D0226) stops current action and resets to idle (animation="idl0")
113: 0x038D [0x1C] WAIT(10* ticks)
114: 0x0390 [0x45] LOAD_SCHEDULED_TASK: Load scheduler "s012" with entities [EventEntity, EventEntity], work=[219*, 0*]
115: 0x03A1 [0x45] LOAD_SCHEDULED_TASK: Load scheduler "fdi1" with entities [EventEntity, EventEntity], work=[200*, 0*]
116: 0x03B2 [0x2B] Zeid (ID: 17629734/0x010D0226) [7368*]:
    → "The Galka need not be chained to this destiny. However, I feel the only one that can break these chains is the Talekeeper."
117: 0x03B9 [0x23] WAIT_FOR_DIALOG_INTERACTION
118: 0x03BA [0x4A] Zeid (ID: 17629734/0x010D0226) looks at LocalPlayer
119: 0x03C3 [0x2B] Zeid (ID: 17629734/0x010D0226) [7369*]:
    → "The new Talekeeper will soon come forth of his own will. He will know when the time is right."
120: 0x03CA [0x23] WAIT_FOR_DIALOG_INTERACTION
121: 0x03CB [0x5B] LOAD_EXT_SCHEDULER: Load scheduler "tkb0" with entities [Zeid (ID: 17629734/0x010D0226), Zeid (ID: 17629734/0x010D0226)], work=244*
122: 0x03DA [0x2B] Zeid (ID: 17629734/0x010D0226) [7370*]:
    → "Tell Iron Eater to look after him when that time comes."
123: 0x03E1 [0x23] WAIT_FOR_DIALOG_INTERACTION
124: 0x03E2 [0x52] END_LOAD_SCHEDULER: End scheduler "s012" with entities [EventEntity, EventEntity], work=219*
125: 0x03F1 [0x45] LOAD_SCHEDULED_TASK: Load scheduler "s013" with entities [EventEntity, EventEntity], work=[219*, 0*]
126: 0x0402 [0x2B] Zeid (ID: 17629734/0x010D0226) [7371*]:
    → "Only at that time will I finally be released from the responsibilities that bind me."
127: 0x0409 [0x23] WAIT_FOR_DIALOG_INTERACTION
128: 0x040A [0x5B] LOAD_EXT_SCHEDULER: Load scheduler "tkb1" with entities [Zeid (ID: 17629734/0x010D0226), Zeid (ID: 17629734/0x010D0226)], work=244*
129: 0x0419 [0x2B] Zeid (ID: 17629734/0x010D0226) [7372*]:
    → "And at that time, we Galka must swallow our pride and face the Humes, as I must face my old comrade, Volker..."
130: 0x0420 [0x23] WAIT_FOR_DIALOG_INTERACTION
131: 0x0421 [0x53] WAIT_SCHEDULER_TASK: Wait for scheduler "tkb1" with entities [Zeid (ID: 17629734/0x010D0226), Zeid (ID: 17629734/0x010D0226)]
132: 0x042E [0x27] REQ_SET(priority=0x0A, entity_id=Zeid (ID: 17629734/0x010D0226), tag_num=0x06)
133: 0x0435 [0x5D] SET_MUSIC_VOLUME(volume=0*, fade_time=120*)
134: 0x043A [0x45] LOAD_SCHEDULED_TASK: Load scheduler "fdo2" with entities [EventEntity, EventEntity], work=[200*, 0*]
135: 0x044B [0x1C] WAIT(120* ticks)
136: 0x044E [0x46] CAMERA_CONTROL: Restore default settings
137: 0x0450 [0x45] LOAD_SCHEDULED_TASK: Load scheduler "fdi1" with entities [EventEntity, EventEntity], work=[200*, 0*]
138: 0x0461 [0x5C] MUSIC_CONTROL: Set Idle (Day) music to song 0*
139: 0x0465 [0x5C] MUSIC_CONTROL: Set Idle (Night) music to song 0*
140: 0x0469 [0x21] END_EVENT
141: 0x046A [0x00] END_REQSTACK()
```

### Event 11

#### Metadata

| Field        | Value     |
|--------------|-----------|
| Entrypoint   | 0x046B    |
| Data Size    | 426 bytes |
| Instructions | 55        |

```
      00 01 02 03 04 05 06 07  08 09 0A 0B 0C 0D 0E 0F
      -- -- -- -- -- -- -- --  -- -- -- -- -- -- -- --
0460:                                   42 45 00 80 F8             BE...
0470: FF FF 7F F8 FF FF 7F 66  64 6F 30 01 80 1C 02 80  .......fdo0.....
0480: 37 38 80 39 80 01 80 3A  80 46 01 79 00 F0 FF FF  78.9...:.F.y....
0490: 7F 33 02 0D 01 79 00 26  02 0D 01 33 02 0D 01 38  .3...y.&...3...8
04A0: 07 80 27 0A 26 02 0D 01  08 5C 00 3B 80 5C 01 3B  ..'.&....\.;.\.;
04B0: 80 45 00 80 F8 FF FF 7F  F8 FF FF 7F 66 64 69 31  .E..........fdi1
04C0: 01 80 45 08 80 F8 FF FF  7F F8 FF FF 7F 73 30 30  ..E..........s00
04D0: 37 01 80 2B 26 02 0D 01  3C 80 23 2A 0A 26 02 0D  7..+&...<.#*.&..
04E0: 01 4A F0 FF FF 7F 26 02  0D 01 1C 30 80 45 08 80  .J....&....0.E..
04F0: F8 FF FF 7F F8 FF FF 7F  73 30 30 38 01 80 2B 26  ........s008..+&
0500: 02 0D 01 3D 80 23 4A F0  FF FF 7F 33 02 0D 01 5B  ...=.#J....3...[
0510: 33 80 26 02 0D 01 26 02  0D 01 74 6B 62 30 2B 26  3.&...&...tkb0+&
0520: 02 0D 01 3E 80 23 52 08  80 F8 FF FF 7F F8 FF FF  ...>.#R.........
0530: 7F 73 30 30 38 45 00 80  F8 FF FF 7F F8 FF FF 7F  .s008E..........
0540: 6F 76 6C 31 01 80 45 08  80 F8 FF FF 7F F8 FF FF  ovl1..E.........
0550: 7F 73 30 30 39 01 80 2B  26 02 0D 01 3F 80 23 2B  .s009..+&...?.#+
0560: 26 02 0D 01 40 80 23 2B  26 02 0D 01 41 80 23 52  &...@.#+&...A.#R
0570: 08 80 F8 FF FF 7F F8 FF  FF 7F 73 30 30 39 45 08  ..........s009E.
0580: 80 F8 FF FF 7F F8 FF FF  7F 73 30 31 30 01 80 7B  .........s010..{
0590: 26 02 0D 01 5B 33 80 26  02 0D 01 26 02 0D 01 74  &...[3.&...&...t
05A0: 6B 62 31 2B 26 02 0D 01  42 80 23 4A 26 02 0D 01  kb1+&...B.#J&...
05B0: F0 FF FF 7F 2B 26 02 0D  01 43 80 23 53 26 02 0D  ....+&...C.#S&..
05C0: 01 26 02 0D 01 74 6B 62  31 27 0A 26 02 0D 01 09  .&...tkb1'.&....
05D0: 5D 01 80 37 80 45 00 80  F8 FF FF 7F F8 FF FF 7F  ]..7.E..........
05E0: 66 64 6F 32 01 80 1C 37  80 52 08 80 F8 FF FF 7F  fdo2...7.R......
05F0: F8 FF FF 7F 73 30 31 30  46 00 45 00 80 F8 FF FF  ....s010F.E.....
0600: 7F F8 FF FF 7F 66 64 69  31 01 80 5C 00 01 80 5C  .....fdi1..\...\
0610: 01 01 80 21 00                                    ...!.           
```

#### Opcodes

```
  0: 0x046B [0x42] SET_CLI_EVENT_CANCEL_DATA()
  1: 0x046C [0x45] LOAD_SCHEDULED_TASK: Load scheduler "fdo0" with entities [EventEntity, EventEntity], work=[200*, 0*]
  2: 0x047D [0x1C] WAIT(30* ticks)
  3: 0x0480 [0x37] UPDATE_EVENT_POSITION_AND_DIR: x=-467.891*, z=619.406*, y=0.000*, direction=195.2°*
  4: 0x0489 [0x46] CAMERA_CONTROL: Disable user control
  5: 0x048B [0x79] LocalPlayer looks at ??? (ID: 17629747/0x010D0233) (Basic look)
  6: 0x0495 [0x79] Zeid (ID: 17629734/0x010D0226) looks at ??? (ID: 17629747/0x010D0233) (Basic look)
  7: 0x049F [0x38] SET_CLIENT_EVENT_MODE(mode=19*)
  8: 0x04A2 [0x27] REQ_SET(priority=0x0A, entity_id=Zeid (ID: 17629734/0x010D0226), tag_num=0x08)
  9: 0x04A9 [0x5C] MUSIC_CONTROL: Set Idle (Day) music to song 194*
 10: 0x04AD [0x5C] MUSIC_CONTROL: Set Idle (Night) music to song 194*
 11: 0x04B1 [0x45] LOAD_SCHEDULED_TASK: Load scheduler "fdi1" with entities [EventEntity, EventEntity], work=[200*, 0*]
 12: 0x04C2 [0x45] LOAD_SCHEDULED_TASK: Load scheduler "s007" with entities [EventEntity, EventEntity], work=[219*, 0*]
 13: 0x04D3 [0x2B] Zeid (ID: 17629734/0x010D0226) [7344*]:
    → "Well done, <Player>."
 14: 0x04DA [0x23] WAIT_FOR_DIALOG_INTERACTION
 15: 0x04DB [0x2A] GET_REQ_LEVEL(level=10, entity_id=Zeid (ID: 17629734/0x010D0226))
 16: 0x04E1 [0x4A] LocalPlayer looks at Zeid (ID: 17629734/0x010D0226)
 17: 0x04EA [0x1C] WAIT(10* ticks)
 18: 0x04ED [0x45] LOAD_SCHEDULED_TASK: Load scheduler "s008" with entities [EventEntity, EventEntity], work=[219*, 0*]
 19: 0x04FE [0x2B] Zeid (ID: 17629734/0x010D0226) [7345*]:
    → "The statue that stands before us is that of a Talekeeper who lived centuries ago."
 20: 0x0505 [0x23] WAIT_FOR_DIALOG_INTERACTION
 21: 0x0506 [0x4A] LocalPlayer looks at ??? (ID: 17629747/0x010D0233)
 22: 0x050F [0x5B] LOAD_EXT_SCHEDULER: Load scheduler "tkb0" with entities [Zeid (ID: 17629734/0x010D0226), Zeid (ID: 17629734/0x010D0226)], work=244*
 23: 0x051E [0x2B] Zeid (ID: 17629734/0x010D0226) [7346*]:
    → "The Galkan Talekeeper is our prophet, our elder, our king. He embodies everything that makes us Galka."
 24: 0x0525 [0x23] WAIT_FOR_DIALOG_INTERACTION
 25: 0x0526 [0x52] END_LOAD_SCHEDULER: End scheduler "s008" with entities [EventEntity, EventEntity], work=219*
 26: 0x0535 [0x45] LOAD_SCHEDULED_TASK: Load scheduler "ovl1" with entities [EventEntity, EventEntity], work=[200*, 0*]
 27: 0x0546 [0x45] LOAD_SCHEDULED_TASK: Load scheduler "s009" with entities [EventEntity, EventEntity], work=[219*, 0*]
 28: 0x0557 [0x2B] Zeid (ID: 17629734/0x010D0226) [7347*]:
    → "Not the memories of all eternity, but the memories of a mere two hundred years. With this, a young Galka must travel forth and bear the burden of his people."
 29: 0x055E [0x23] WAIT_FOR_DIALOG_INTERACTION
 30: 0x055F [0x2B] Zeid (ID: 17629734/0x010D0226) [7348*]:
    → "After leaving this place, I feel that Raogrimm was troubled by the constant reminders of the anger and grief of the Galkan people."
 31: 0x0566 [0x23] WAIT_FOR_DIALOG_INTERACTION
 32: 0x0567 [0x2B] Zeid (ID: 17629734/0x010D0226) [7349*]:
    → "However, while he could not run from those things, he also could not just stand there and do nothing."
 33: 0x056E [0x23] WAIT_FOR_DIALOG_INTERACTION
 34: 0x056F [0x52] END_LOAD_SCHEDULER: End scheduler "s009" with entities [EventEntity, EventEntity], work=219*
 35: 0x057E [0x45] LOAD_SCHEDULED_TASK: Load scheduler "s010" with entities [EventEntity, EventEntity], work=[219*, 0*]
 36: 0x058F [0x7B] Zeid (ID: 17629734/0x010D0226) stops talking
 37: 0x0594 [0x5B] LOAD_EXT_SCHEDULER: Load scheduler "tkb1" with entities [Zeid (ID: 17629734/0x010D0226), Zeid (ID: 17629734/0x010D0226)], work=244*
 38: 0x05A3 [0x2B] Zeid (ID: 17629734/0x010D0226) [7350*]:
    → "To break the chains binding the Talekeeper to this endless agony, we Galka must search out the truth that the Talekeeper holds within."
 39: 0x05AA [0x23] WAIT_FOR_DIALOG_INTERACTION
 40: 0x05AB [0x4A] Zeid (ID: 17629734/0x010D0226) looks at LocalPlayer
 41: 0x05B4 [0x2B] Zeid (ID: 17629734/0x010D0226) [7351*]:
    → "Located on H-8 of your map is a mural painted on the walls of these ruins. I will be waiting for you there with words to take back with you to Bastok."
 42: 0x05BB [0x23] WAIT_FOR_DIALOG_INTERACTION
 43: 0x05BC [0x53] WAIT_SCHEDULER_TASK: Wait for scheduler "tkb1" with entities [Zeid (ID: 17629734/0x010D0226), Zeid (ID: 17629734/0x010D0226)]
 44: 0x05C9 [0x27] REQ_SET(priority=0x0A, entity_id=Zeid (ID: 17629734/0x010D0226), tag_num=0x09)
 45: 0x05D0 [0x5D] SET_MUSIC_VOLUME(volume=0*, fade_time=120*)
 46: 0x05D5 [0x45] LOAD_SCHEDULED_TASK: Load scheduler "fdo2" with entities [EventEntity, EventEntity], work=[200*, 0*]
 47: 0x05E6 [0x1C] WAIT(120* ticks)
 48: 0x05E9 [0x52] END_LOAD_SCHEDULER: End scheduler "s010" with entities [EventEntity, EventEntity], work=219*
 49: 0x05F8 [0x46] CAMERA_CONTROL: Restore default settings
 50: 0x05FA [0x45] LOAD_SCHEDULED_TASK: Load scheduler "fdi1" with entities [EventEntity, EventEntity], work=[200*, 0*]
 51: 0x060B [0x5C] MUSIC_CONTROL: Set Idle (Day) music to song 0*
 52: 0x060F [0x5C] MUSIC_CONTROL: Set Idle (Night) music to song 0*
 53: 0x0613 [0x21] END_EVENT
 54: 0x0614 [0x00] END_REQSTACK()
```

### Event 65535.1

#### Metadata

| Field        | Value   |
|--------------|---------|
| Entrypoint   | 0x0615  |
| Data Size    | 6 bytes |
| Instructions | 2       |

```
      00 01 02 03 04 05 06 07  08 09 0A 0B 0C 0D 0E 0F
      -- -- -- -- -- -- -- --  -- -- -- -- -- -- -- --
0610:                03 09 10  07 7F 00                      ......     
```

#### Opcodes

```
  0: 0x0615 [0x03] Work_Zone[9] = Entity->Race
  1: 0x061A [0x00] END_REQSTACK()
```

### Event 65535.2

#### Metadata

| Field        | Value   |
|--------------|---------|
| Entrypoint   | 0x061B  |
| Data Size    | 7 bytes |
| Instructions | 3       |

```
      00 01 02 03 04 05 06 07  08 09 0A 0B 0C 0D 0E 0F
      -- -- -- -- -- -- -- --  -- -- -- -- -- -- -- --
0610:                                   AB 03 AC 01 09             .....
0620: 80 00                                             ..              
```

#### Opcodes

```
  0: 0x061B [0xAB] EventEntity->Render.Flags0 ^= 0x20000 // Toggle bit 17
  1: 0x061D [0xAC] EventEntity->StatusEvent = 1*
  2: 0x0621 [0x00] END_REQSTACK()
```

### Event 65535.3

#### Metadata

| Field        | Value   |
|--------------|---------|
| Entrypoint   | 0x0622  |
| Data Size    | 7 bytes |
| Instructions | 3       |

```
      00 01 02 03 04 05 06 07  08 09 0A 0B 0C 0D 0E 0F
      -- -- -- -- -- -- -- --  -- -- -- -- -- -- -- --
0620:       AC 01 01 80 AB 04  00                         .......       
```

#### Opcodes

```
  0: 0x0622 [0xAC] EventEntity->StatusEvent = 0*
  1: 0x0626 [0xAB] EventEntity->Render.Flags0 |= 0x40000 // Set bit 18
  2: 0x0628 [0x00] END_REQSTACK()
```

### Event 65535.4

#### Metadata

| Field        | Value    |
|--------------|----------|
| Entrypoint   | 0x0629   |
| Data Size    | 15 bytes |
| Instructions | 5        |

```
      00 01 02 03 04 05 06 07  08 09 0A 0B 0C 0D 0E 0F
      -- -- -- -- -- -- -- --  -- -- -- -- -- -- -- --
0620:                             32 44 80 1F 00 45 80           2D...E.
0630: 46 80 01 80 1F 01 6F 00                           F.....o.        
```

#### Opcodes

```
  0: 0x0629 [0x32] ExtData[1]->MainSpeed = 40* * 0.1
  1: 0x062C [0x1F] MOVE_ENTITY: EventEntity moves to X=-469.241*, Z=623.976*, Y=0.000*
  2: 0x0634 [0x1F] MOVE_ENTITY: Update entity position (mode=1)
  3: 0x0636 [0x6F] WAIT_FRAME_DELAY: Yield until WaitTime reaches zero
  4: 0x0637 [0x00] END_REQSTACK()
```

### Event 65535.5

#### Metadata

| Field        | Value    |
|--------------|----------|
| Entrypoint   | 0x0638   |
| Data Size    | 15 bytes |
| Instructions | 5        |

```
      00 01 02 03 04 05 06 07  08 09 0A 0B 0C 0D 0E 0F
      -- -- -- -- -- -- -- --  -- -- -- -- -- -- -- --
0630:                          32 47 80 1F 00 48 80 49          2G...H.I
0640: 80 01 80 1F 01 6F 00                              .....o.         
```

#### Opcodes

```
  0: 0x0638 [0x32] ExtData[1]->MainSpeed = 13* * 0.1
  1: 0x063B [0x1F] MOVE_ENTITY: EventEntity moves to X=-465.221*, Z=622.717*, Y=0.000*
  2: 0x0643 [0x1F] MOVE_ENTITY: Update entity position (mode=1)
  3: 0x0645 [0x6F] WAIT_FRAME_DELAY: Yield until WaitTime reaches zero
  4: 0x0646 [0x00] END_REQSTACK()
```

### Event 65535.6

#### Metadata

| Field        | Value    |
|--------------|----------|
| Entrypoint   | 0x0647   |
| Data Size    | 25 bytes |
| Instructions | 7        |

```
      00 01 02 03 04 05 06 07  08 09 0A 0B 0C 0D 0E 0F
      -- -- -- -- -- -- -- --  -- -- -- -- -- -- -- --
0640:                      32  47 80 1F 00 4A 80 4B 80         2G...J.K.
0650: 01 80 1F 01 1F 00 4C 80  4D 80 01 80 1F 01 6F 00  ......L.M.....o.
```

#### Opcodes

```
  0: 0x0647 [0x32] ExtData[1]->MainSpeed = 13* * 0.1
  1: 0x064A [0x1F] MOVE_ENTITY: EventEntity moves to X=-464.897*, Z=621.921*, Y=0.000*
  2: 0x0652 [0x1F] MOVE_ENTITY: Update entity position (mode=1)
  3: 0x0654 [0x1F] MOVE_ENTITY: EventEntity moves to X=-461.490*, Z=620.186*, Y=0.000*
  4: 0x065C [0x1F] MOVE_ENTITY: Update entity position (mode=1)
  5: 0x065E [0x6F] WAIT_FRAME_DELAY: Yield until WaitTime reaches zero
  6: 0x065F [0x00] END_REQSTACK()
```

### Event 65535.7

#### Metadata

| Field        | Value    |
|--------------|----------|
| Entrypoint   | 0x0660   |
| Data Size    | 15 bytes |
| Instructions | 5        |

```
      00 01 02 03 04 05 06 07  08 09 0A 0B 0C 0D 0E 0F
      -- -- -- -- -- -- -- --  -- -- -- -- -- -- -- --
0660: 32 44 80 1F 00 4E 80 4F  80 01 80 1F 01 6F 00     2D...N.O.....o. 
```

#### Opcodes

```
  0: 0x0660 [0x32] ExtData[1]->MainSpeed = 40* * 0.1
  1: 0x0663 [0x1F] MOVE_ENTITY: EventEntity moves to X=-511.224*, Z=-419.620*, Y=0.000*
  2: 0x066B [0x1F] MOVE_ENTITY: Update entity position (mode=1)
  3: 0x066D [0x6F] WAIT_FRAME_DELAY: Yield until WaitTime reaches zero
  4: 0x066E [0x00] END_REQSTACK()
```

### Event 65535.8

#### Metadata

| Field        | Value    |
|--------------|----------|
| Entrypoint   | 0x066F   |
| Data Size    | 22 bytes |
| Instructions | 8        |

```
      00 01 02 03 04 05 06 07  08 09 0A 0B 0C 0D 0E 0F
      -- -- -- -- -- -- -- --  -- -- -- -- -- -- -- --
0660:                                               32                 2
0670: 44 80 1F 00 50 80 51 80  52 80 1F 01 6F 1E 67 02  D...P.Q.R...o.g.
0680: 0D 01 6F 70 00                                    ..op.           
```

#### Opcodes

```
  0: 0x066F [0x32] ExtData[1]->MainSpeed = 40* * 0.1
  1: 0x0672 [0x1F] MOVE_ENTITY: EventEntity moves to X=-63.761*, Z=288.538*, Y=-16.000*
  2: 0x067A [0x1F] MOVE_ENTITY: Update entity position (mode=1)
  3: 0x067C [0x6F] WAIT_FRAME_DELAY: Yield until WaitTime reaches zero
  4: 0x067D [0x1E] EventEntity looks at Uran-Mafran (ID: 17629799/0x010D0267) and starts talking
  5: 0x0682 [0x6F] WAIT_FRAME_DELAY: Yield until WaitTime reaches zero
  6: 0x0683 [0x70] WAIT_ENTITY_RENDER_FLAG: Wait while EventEntity->Render.Flags3 bit 2 is set (cancel turn if not)
  7: 0x0684 [0x00] END_REQSTACK()
```

### Event 65535.9

#### Metadata

| Field        | Value    |
|--------------|----------|
| Entrypoint   | 0x0685   |
| Data Size    | 22 bytes |
| Instructions | 8        |

```
      00 01 02 03 04 05 06 07  08 09 0A 0B 0C 0D 0E 0F
      -- -- -- -- -- -- -- --  -- -- -- -- -- -- -- --
0680:                32 44 80  1F 00 53 80 54 80 52 80       2D...S.T.R.
0690: 1F 01 6F 1E 67 02 0D 01  6F 70 00                 ..o.g...op.     
```

#### Opcodes

```
  0: 0x0685 [0x32] ExtData[1]->MainSpeed = 40* * 0.1
  1: 0x0688 [0x1F] MOVE_ENTITY: EventEntity moves to X=-60.931*, Z=296.910*, Y=-16.000*
  2: 0x0690 [0x1F] MOVE_ENTITY: Update entity position (mode=1)
  3: 0x0692 [0x6F] WAIT_FRAME_DELAY: Yield until WaitTime reaches zero
  4: 0x0693 [0x1E] EventEntity looks at Uran-Mafran (ID: 17629799/0x010D0267) and starts talking
  5: 0x0698 [0x6F] WAIT_FRAME_DELAY: Yield until WaitTime reaches zero
  6: 0x0699 [0x70] WAIT_ENTITY_RENDER_FLAG: Wait while EventEntity->Render.Flags3 bit 2 is set (cancel turn if not)
  7: 0x069A [0x00] END_REQSTACK()
```
