# Event 54

## Metadata

| Field           | Value    |
|-----------------|----------|
| Event Index     | 23/142   |
| Offset          | 0x1A1A   |
| Data Size       | 39 bytes |
| Calculated Size | 39 bytes |
| Instructions    | 10       |

```
      00 01 02 03 04 05 06 07  08 09 0A 0B 0C 0D 0E 0F
      -- -- -- -- -- -- -- --  -- -- -- -- -- -- -- --
1A10:                                20 01 42 4A 06 70             .BJ.p
1A20: 0E 01 F0 FF FF 7F 1E 06  70 0E 01 47 00 A5 80 BD  ........p..G....
1A30: 80 BE 80 BF 80 47 01 2B  06 70 0E 01 C1 80 23 21  .....G.+.p....#!
1A40: 00                                                .               
```

## Opcodes

```
  0: 0x1A1A [0x20] SET_CLI_EVENT_UC_FLAG: Lock player control
  1: 0x1A1C [0x42] SET_CLI_EVENT_CANCEL_DATA()
  2: 0x1A1D [0x4A] Bacherume (ID: 17723398/0x010E7006) looks at LocalPlayer
  3: 0x1A26 [0x1E] EventEntity looks at Bacherume (ID: 17723398/0x010E7006) and starts talking
  4: 0x1A2B [0x47] UPDATE_PLAYER_POS(0.100*, 108.646*, -1.999*, yaw=90.0°*)
  5: 0x1A35 [0x47] WAIT_PLAYER_POS_UPDATE
  6: 0x1A37 [0x2B] Bacherume (ID: 17723398/0x010E7006) [12951*]:
    → "I'm sorry \u007F\u0005[Lord/Lady] \u0008, but due to matters of security, I am not to allow anyone into the chateau until the Rites of Succession have taken place.\u007F1\u0000\u0007"
  7: 0x1A3E [0x23] WAIT_FOR_DIALOG_INTERACTION
  8: 0x1A3F [0x21] END_EVENT
  9: 0x1A40 [0x00] END_REQSTACK()
```
