# Event 65535

## Metadata

| Field           | Value    |
|-----------------|----------|
| Event Index     | 135/142  |
| Offset          | 0x5C7D   |
| Data Size       | 41 bytes |
| Calculated Size | 41 bytes |
| Instructions    | 10       |

```
      00 01 02 03 04 05 06 07  08 09 0A 0B 0C 0D 0E 0F
      -- -- -- -- -- -- -- --  -- -- -- -- -- -- -- --
5C70:                                         03 07 00               ...
5C80: BB 82 06 08 00 B4 0A 07  00 02 07 00 02 80 02 98  ................
5C90: 5C B4 0C 07 00 01 89 5C  B4 0B 02 08 00 02 80 00  \......\........
5CA0: A5 5C B4 06 00 00                                 .\....          
```

## Opcodes

```
  0: 0x5C7D [0x03] ExtData[1]->WorkLocal[7] = 3600*
  1: 0x5C82 [0x06] ExtData[1]->WorkLocal[8] = 0
  2: 0x5C85 [0xB4] UI_WINDOW_STRING_HANDLER(case=0x0A - Open event time window, work_offset=ExtData[1]->WorkLocal[7])
  3: 0x5C89 [0x02] IF !(ExtData[1]->WorkLocal[7] <= 0*) GOTO 0x5C98
  4: 0x5C91 [0xB4] UI_WINDOW_STRING_HANDLER(case=0x0C - Get event time count value, work_offset=ExtData[1]->WorkLocal[7])
  5: 0x5C95 [0x01] GOTO 0x5C89
  6: 0x5C98 [0xB4] UI_WINDOW_STRING_HANDLER(case=0x0B - Destroy event time window)
  7: 0x5C9A [0x02] IF !(ExtData[1]->WorkLocal[8] == 0*) GOTO 0x5CA5
  8: 0x5CA2 [0xB4] UI_WINDOW_STRING_HANDLER(case=0x06 - Toggle query message flag, flag_value=0x00)
  9: 0x5CA5 [0x00] END_REQSTACK()
```
