# Event 65535

## Metadata

| Field           | Value    |
|-----------------|----------|
| Event Index     | 60/142   |
| Offset          | 0x21D9   |
| Data Size       | 70 bytes |
| Calculated Size | 70 bytes |
| Instructions    | 6        |

```
      00 01 02 03 04 05 06 07  08 09 0A 0B 0C 0D 0E 0F
      -- -- -- -- -- -- -- --  -- -- -- -- -- -- -- --
21D0:                             45 86 80 F8 FF FF 7F           E......
21E0: F8 FF FF 7F 73 30 30 35  02 80 1C 04 80 52 86 80  ....s005.....R..
21F0: F8 FF FF 7F F8 FF FF 7F  73 30 30 35 45 04 80 F0  ........s005E...
2200: FF FF 7F F0 FF FF 7F 6F  76 6C 31 02 80 45 86 80  .......ovl1..E..
2210: F0 FF FF 7F F0 FF FF 7F  73 30 30 36 02 80 00     ........s006... 
```

## Opcodes

```
  0: 0x21D9 [0x45] LOAD_SCHEDULED_TASK: Load scheduler "s005" with entities [EventEntity, EventEntity], work=[90*, 0*]
  1: 0x21EA [0x1C] WAIT(200* ticks)
  2: 0x21ED [0x52] END_LOAD_SCHEDULER: End scheduler "s005" with entities [EventEntity, EventEntity], work=90*
  3: 0x21FC [0x45] LOAD_SCHEDULED_TASK: Load scheduler "ovl1" with entities [LocalPlayer, LocalPlayer], work=[200*, 0*]
  4: 0x220D [0x45] LOAD_SCHEDULED_TASK: Load scheduler "s006" with entities [LocalPlayer, LocalPlayer], work=[90*, 0*]
  5: 0x221E [0x00] END_REQSTACK()
```
