# Event 65535

## Metadata

| Field           | Value    |
|-----------------|----------|
| Event Index     | 10/16    |
| Offset          | 0x0061   |
| Data Size       | 97 bytes |
| Calculated Size | 97 bytes |
| Instructions    | 19       |

```
      00 01 02 03 04 05 06 07  08 09 0A 0B 0C 0D 0E 0F
      -- -- -- -- -- -- -- --  -- -- -- -- -- -- -- --
0060:    02 22 10 04 80 80 71  00 03 03 00 0C 80 01 C1   ."....q........
0070: 00 02 22 10 00 80 80 81  00 03 03 00 0D 80 01 C1  ..".............
0080: 00 02 22 10 0E 80 80 91  00 03 03 00 0F 80 01 C1  ..".............
0090: 00 02 22 10 0C 80 80 A1  00 03 03 00 10 80 01 C1  ..".............
00A0: 00 02 22 10 0D 80 80 B1  00 03 03 00 11 80 01 C1  ..".............
00B0: 00 02 22 10 0F 80 80 C1  00 03 03 00 12 80 01 C1  ..".............
00C0: 00 00                                             ..              
```

## Opcodes

```
  0: 0x0061 [0x02] IF !(Work_Zone[34] == 0*) GOTO 0x0071
  1: 0x0069 [0x03] ExtData[1]->WorkLocal[3] = 3*
  2: 0x006E [0x01] GOTO 0x00C1
  3: 0x0071 [0x02] IF !(Work_Zone[34] == 1*) GOTO 0x0081
  4: 0x0079 [0x03] ExtData[1]->WorkLocal[3] = 4*
  5: 0x007E [0x01] GOTO 0x00C1
  6: 0x0081 [0x02] IF !(Work_Zone[34] == 2*) GOTO 0x0091
  7: 0x0089 [0x03] ExtData[1]->WorkLocal[3] = 5*
  8: 0x008E [0x01] GOTO 0x00C1
  9: 0x0091 [0x02] IF !(Work_Zone[34] == 3*) GOTO 0x00A1
 10: 0x0099 [0x03] ExtData[1]->WorkLocal[3] = 6*
 11: 0x009E [0x01] GOTO 0x00C1
 12: 0x00A1 [0x02] IF !(Work_Zone[34] == 4*) GOTO 0x00B1
 13: 0x00A9 [0x03] ExtData[1]->WorkLocal[3] = 7*
 14: 0x00AE [0x01] GOTO 0x00C1
 15: 0x00B1 [0x02] IF !(Work_Zone[34] == 5*) GOTO 0x00C1
 16: 0x00B9 [0x03] ExtData[1]->WorkLocal[3] = 8*
 17: 0x00BE [0x01] GOTO 0x00C1

SUBROUTINE_00C1:
 18: 0x00C1 [0x00] END_REQSTACK()
```
