# Event 65535

## Metadata

| Field           | Value    |
|-----------------|----------|
| Event Index     | 11/21    |
| Offset          | 0x00B3   |
| Data Size       | 56 bytes |
| Calculated Size | 56 bytes |
| Instructions    | 12       |

```
      00 01 02 03 04 05 06 07  08 09 0A 0B 0C 0D 0E 0F
      -- -- -- -- -- -- -- --  -- -- -- -- -- -- -- --
00B0:          32 1E 80 1C 1F  80 6C F8 FF FF 7F 20 80     2.....l.... .
00C0: 08 80 1F 00 21 80 22 80  23 80 1F 01 1F 00 24 80  ....!.".#.....$.
00D0: 25 80 23 80 1F 01 1F 00  26 80 27 80 23 80 1F 01  %.#.....&.'.#...
00E0: 1F 00 28 80 29 80 23 80  1F 01 00                 ..(.).#....     
```

## Opcodes

```
  0: 0x00B3 [0x32] ExtData[1]->MainSpeed = 75* * 0.1
  1: 0x00B6 [0x1C] WAIT(250* ticks)
  2: 0x00B9 [0x6C] FADE_ENTITY_COLOR(entity_id=EventEntity, end_alpha=128*, fade_time=1*)
  3: 0x00C2 [0x1F] MOVE_ENTITY: EventEntity moves to X=-305.482*, Z=-11.921*, Y=-47.999*
  4: 0x00CA [0x1F] MOVE_ENTITY: Update entity position (mode=1)
  5: 0x00CC [0x1F] MOVE_ENTITY: EventEntity moves to X=-298.745*, Z=-4.030*, Y=-47.999*
  6: 0x00D4 [0x1F] MOVE_ENTITY: Update entity position (mode=1)
  7: 0x00D6 [0x1F] MOVE_ENTITY: EventEntity moves to X=-295.994*, Z=1.838*, Y=-47.999*
  8: 0x00DE [0x1F] MOVE_ENTITY: Update entity position (mode=1)
  9: 0x00E0 [0x1F] MOVE_ENTITY: EventEntity moves to X=-295.260*, Z=10.680*, Y=-47.999*
 10: 0x00E8 [0x1F] MOVE_ENTITY: Update entity position (mode=1)
 11: 0x00EA [0x00] END_REQSTACK()
```
