# Event 65535

## Metadata

| Field           | Value    |
|-----------------|----------|
| Event Index     | 12/21    |
| Offset          | 0x00EB   |
| Data Size       | 54 bytes |
| Calculated Size | 54 bytes |
| Instructions    | 12       |

```
      00 01 02 03 04 05 06 07  08 09 0A 0B 0C 0D 0E 0F
      -- -- -- -- -- -- -- --  -- -- -- -- -- -- -- --
00E0:                                   32 2A 80 1F 00             2*...
00F0: 2B 80 2C 80 23 80 1F 01  1F 00 2D 80 2E 80 23 80  +.,.#.....-...#.
0100: 1F 01 1F 00 2F 80 30 80  23 80 1F 01 1F 00 31 80  ..../.0.#.....1.
0110: 32 80 23 80 1F 01 1F 00  33 80 34 80 23 80 1F 01  2.#.....3.4.#...
0120: 00                                                .               
```

## Opcodes

```
  0: 0x00EB [0x32] ExtData[1]->MainSpeed = 80* * 0.1
  1: 0x00EE [0x1F] MOVE_ENTITY: EventEntity moves to X=-292.520*, Z=-13.074*, Y=-47.999*
  2: 0x00F6 [0x1F] MOVE_ENTITY: Update entity position (mode=1)
  3: 0x00F8 [0x1F] MOVE_ENTITY: EventEntity moves to X=-294.259*, Z=-11.623*, Y=-47.999*
  4: 0x0100 [0x1F] MOVE_ENTITY: Update entity position (mode=1)
  5: 0x0102 [0x1F] MOVE_ENTITY: EventEntity moves to X=-294.725*, Z=-7.673*, Y=-47.999*
  6: 0x010A [0x1F] MOVE_ENTITY: Update entity position (mode=1)
  7: 0x010C [0x1F] MOVE_ENTITY: EventEntity moves to X=-298.746*, Z=5.768*, Y=-47.999*
  8: 0x0114 [0x1F] MOVE_ENTITY: Update entity position (mode=1)
  9: 0x0116 [0x1F] MOVE_ENTITY: EventEntity moves to X=-297.394*, Z=9.983*, Y=-47.999*
 10: 0x011E [0x1F] MOVE_ENTITY: Update entity position (mode=1)
 11: 0x0120 [0x00] END_REQSTACK()
```
