# Event 14

## Metadata

| Field           | Value    |
|-----------------|----------|
| Event Index     | 4/6      |
| Offset          | 0x0043   |
| Data Size       | 35 bytes |
| Calculated Size | 35 bytes |
| Instructions    | 11       |

```
      00 01 02 03 04 05 06 07  08 09 0A 0B 0C 0D 0E 0F
      -- -- -- -- -- -- -- --  -- -- -- -- -- -- -- --
0040:          42 1E F0 FF FF  7F 66 03 80 F8 FF FF 7F     B.....f......
0050: F8 FF FF 7F 74 6C 6B 30  1D 08 80 23 1D 09 80 23  ....tlk0...#...#
0060: 1D 0A 80 23 21 00                                 ...#!.          
```

## Opcodes

```
  0: 0x0043 [0x42] SET_CLI_EVENT_CANCEL_DATA()
  1: 0x0044 [0x1E] EventEntity looks at LocalPlayer and starts talking
  2: 0x0049 [0x66] LOAD_EXT_SCHEDULER_MAIN(work_offset=69*, entity1=EventEntity, entity2=EventEntity, action="tlk0")
  3: 0x0058 [0x1D] PRINT_EVENT_MESSAGE(message_id=7396*)
    → "You've heard of Bearclaw Pinnacle, right? It's just beyond Thousandfall Ridge...but I don't think that you've got what it takes to make it into the deeper parts.\u007F1\u0000\u0007"
  4: 0x005B [0x23] WAIT_FOR_DIALOG_INTERACTION
  5: 0x005C [0x1D] PRINT_EVENT_MESSAGE(message_id=7397*)
    → "Now, if you fill this bag with the Chamnaet ice found in those caves throughout the ridge, I might consider helping you out. What do you say?\u007F1\u0000\u0007"
  6: 0x005F [0x23] WAIT_FOR_DIALOG_INTERACTION
  7: 0x0060 [0x1D] PRINT_EVENT_MESSAGE(message_id=7398*)
    → "Eh? Why do I need so much ice?\u0007You don't go worrying yourself with the details, \u007F\u0005[mister/lady]. You fetch some, you're in. You don't, you're out in the cold. Gwah hah har haw!\u007F1\u0000\u0007"
  8: 0x0063 [0x23] WAIT_FOR_DIALOG_INTERACTION
  9: 0x0064 [0x21] END_EVENT
 10: 0x0065 [0x00] END_REQSTACK()
```
