# Event 15

## Metadata

| Field           | Value    |
|-----------------|----------|
| Event Index     | 5/6      |
| Offset          | 0x0066   |
| Data Size       | 34 bytes |
| Calculated Size | 34 bytes |
| Instructions    | 10       |

```
      00 01 02 03 04 05 06 07  08 09 0A 0B 0C 0D 0E 0F
      -- -- -- -- -- -- -- --  -- -- -- -- -- -- -- --
0060:                   1E F0  FF FF 7F 66 03 80 F8 FF        .....f....
0070: FF 7F F8 FF FF 7F 74 6C  6B 30 1D 0B 80 23 1D 0C  ......tlk0...#..
0080: 80 23 1D 0D 80 23 21 00                           .#...#!.        
```

## Opcodes

```
  0: 0x0066 [0x1E] EventEntity looks at LocalPlayer and starts talking
  1: 0x006B [0x66] LOAD_EXT_SCHEDULER_MAIN(work_offset=69*, entity1=EventEntity, entity2=EventEntity, action="tlk0")
  2: 0x007A [0x1D] PRINT_EVENT_MESSAGE(message_id=7403*)
    → "Hm? You want to go back to Bearclaw Pinnacle? I don't know why you would. There's nothing to see there now.\u007F1\u0000\u0007"
  3: 0x007D [0x23] WAIT_FOR_DIALOG_INTERACTION
  4: 0x007E [0x1D] PRINT_EVENT_MESSAGE(message_id=7404*)
    → "That beast probably won't come out of its cave until \u007F,\u0000 (\u007F+\u0000 Earth time), if it even comes out at all!\u007F1\u0000\u0007"
  5: 0x0081 [0x23] WAIT_FOR_DIALOG_INTERACTION
  6: 0x0082 [0x1D] PRINT_EVENT_MESSAGE(message_id=7405*)
    → "Of course, if you're not going there for fun, but for \u00072business,\u00073 then you probably don't need my help to get in anyway!\u007F1\u0000\u0007"
  7: 0x0085 [0x23] WAIT_FOR_DIALOG_INTERACTION
  8: 0x0086 [0x21] END_EVENT
  9: 0x0087 [0x00] END_REQSTACK()
```
