# 17167287 - M05

## Common Data

| Field            | Value                          |
|------------------|--------------------------------|
| Zone             | West Sarutabaruta [S] (ID: 95) |
| Block Size       | 1108 bytes                     |
| Total Events     | 52                             |
| References Count | 77                             |

## List of Events

| Event ID                   | Entrypoint   |   Size |   Instructions |
|----------------------------|--------------|--------|----------------|
| [65535](#event-65535)      | 0x0000       |      1 |              1 |
| [105](#event-105)          | 0x0001       |      1 |              1 |
| [106](#event-106)          | 0x0002       |      1 |              1 |
| [65535.1](#event-655351)   | 0x0003       |      5 |              2 |
| [65535.2](#event-655352)   | 0x0008       |     14 |              4 |
| [65535.3](#event-655353)   | 0x0016       |     14 |              4 |
| [65535.4](#event-655354)   | 0x0024       |     14 |              4 |
| [65535.5](#event-655355)   | 0x0032       |     14 |              4 |
| [65535.6](#event-655356)   | 0x0040       |      5 |              2 |
| [65535.7](#event-655357)   | 0x0045       |      5 |              2 |
| [65535.8](#event-655358)   | 0x004A       |      5 |              2 |
| [65535.9](#event-655359)   | 0x004F       |      5 |              2 |
| [65535.10](#event-6553510) | 0x0054       |      5 |              2 |
| [65535.11](#event-6553511) | 0x0059       |     34 |              8 |
| [65535.12](#event-6553512) | 0x007B       |     14 |              4 |
| [65535.13](#event-6553513) | 0x0089       |     14 |              4 |
| [65535.14](#event-6553514) | 0x0097       |     24 |              6 |
| [65535.15](#event-6553515) | 0x00AF       |     24 |              6 |
| [65535.16](#event-6553516) | 0x00C7       |     21 |              2 |
| [65535.17](#event-6553517) | 0x00DC       |     21 |              2 |
| [65535.18](#event-6553518) | 0x00F1       |     21 |              2 |
| [65535.19](#event-6553519) | 0x0106       |     25 |              3 |
| [65535.20](#event-6553520) | 0x011F       |      7 |              2 |
| [65535.21](#event-6553521) | 0x0126       |     21 |              2 |
| [65535.22](#event-6553522) | 0x013B       |     21 |              2 |
| [65535.23](#event-6553523) | 0x0150       |     21 |              2 |
| [65535.24](#event-6553524) | 0x0165       |     14 |              4 |
| [65535.25](#event-6553525) | 0x0173       |     17 |              5 |
| [65535.26](#event-6553526) | 0x0184       |     17 |              5 |
| [107](#event-107)          | 0x0195       |      1 |              1 |
| [112](#event-112)          | 0x0196       |      1 |              1 |
| [113](#event-113)          | 0x0197       |      1 |              1 |
| [65535.27](#event-6553527) | 0x0198       |     15 |              5 |
| [65535.28](#event-6553528) | 0x01A7       |     18 |              6 |
| [65535.29](#event-6553529) | 0x01B9       |     18 |              6 |
| [65535.30](#event-6553530) | 0x01CB       |      5 |              2 |
| [65535.31](#event-6553531) | 0x01D0       |      5 |              2 |
| [65535.32](#event-6553532) | 0x01D5       |      5 |              2 |
| [65535.33](#event-6553533) | 0x01DA       |      5 |              2 |
| [65535.34](#event-6553534) | 0x01DF       |      5 |              2 |
| [65535.35](#event-6553535) | 0x01E4       |      5 |              2 |
| [65535.36](#event-6553536) | 0x01E9       |      5 |              2 |
| [65535.37](#event-6553537) | 0x01EE       |      5 |              2 |
| [65535.38](#event-6553538) | 0x01F3       |      5 |              2 |
| [65535.39](#event-6553539) | 0x01F8       |      5 |              2 |
| [65535.40](#event-6553540) | 0x01FD       |      1 |              1 |
| [65535.41](#event-6553541) | 0x01FE       |     18 |              4 |
| [65535.42](#event-6553542) | 0x0210       |     10 |              2 |
| [65535.43](#event-6553543) | 0x021A       |      9 |              3 |
| [65535.44](#event-6553544) | 0x0223       |      9 |              3 |
| [65535.45](#event-6553545) | 0x022C       |     10 |              2 |
| [65535.46](#event-6553546) | 0x0236       |     10 |              2 |

## DAT References (imed_data)

|   Index | Hex Value   |   Dec Value |
|---------|-------------|-------------|
|       0 | 0x08DC      |        2268 |
|       1 | 0x0010      |          16 |
|       2 | 0x3F426     |      259110 |
|       3 | 0x2ECBE     |      191678 |
|       4 | 0xFFFFBBA4  |  4294949796 |
|       5 | 0x000C      |          12 |
|       6 | 0x3C7E7     |      247783 |
|       7 | 0x239DE     |      145886 |
|       8 | 0xFFFFC5A0  |  4294952352 |
|       9 | 0x3DD9A     |      253338 |
|      10 | 0x280A4     |      164004 |
|      11 | 0xFFFFC3C0  |  4294951872 |
|      12 | 0x0028      |          40 |
|      13 | 0x4D83B     |      317499 |
|      14 | 0xFFFFF65C  |  4294964828 |
|      15 | 0xFFFFF060  |  4294963296 |
|      16 | 0x054F      |        1359 |
|      17 | 0x081C      |        2076 |
|      18 | 0x043C      |        1084 |
|      19 | 0x02F0      |         752 |
|      20 | 0x0875      |        2165 |
|      21 | 0xFFFFAB4C  |  4294945612 |
|      22 | 0x14301     |       82689 |
|      23 | 0xFFFFEC79  |  4294962297 |
|      24 | 0xFFFF804D  |  4294934605 |
|      25 | 0x15B9A     |       88986 |
|      26 | 0xFFFF6D53  |  4294929747 |
|      27 | 0x16D56     |       93526 |
|      28 | 0xFFFF8B4A  |  4294937418 |
|      29 | 0x14C64     |       85092 |
|      30 | 0xFFFFECE5  |  4294962405 |
|      31 | 0xFFFF6C64  |  4294929508 |
|      32 | 0x11D22     |       72994 |
|      33 | 0xFFFFF254  |  4294963796 |
|      34 | 0xFFFF969B  |  4294940315 |
|      35 | 0x150B8     |       86200 |
|      36 | 0xFFFFD871  |  4294957169 |
|      37 | 0x15626     |       87590 |
|      38 | 0x0005      |           5 |
|      39 | 0x0003      |           3 |
|      40 | 0x006D      |         109 |
|      41 | 0x0118      |         280 |
|      42 | 0x0000      |           0 |
|      43 | 0x0007      |           7 |
|      44 | 0x000A      |          10 |
|      45 | 0x0004      |           4 |
|      46 | 0x0001      |           1 |
|      47 | 0x0089      |         137 |
|      48 | 0x000E      |          14 |
|      49 | 0x006E      |         110 |
|      50 | 0x0081      |         129 |
|      51 | 0x0115      |         277 |
|      52 | 0x0002      |           2 |
|      53 | 0x011C      |         284 |
|      54 | 0x0050      |          80 |
|      55 | 0xFFFF5FAB  |  4294926251 |
|      56 | 0x1C4F8     |      115960 |
|      57 | 0x001E      |          30 |
|      58 | 0x000F      |          15 |
|      59 | 0xFFFF6986  |  4294928774 |
|      60 | 0x1C1E2     |      115170 |
|      61 | 0x0906      |        2310 |
|      62 | 0xB5F5      |       46581 |
|      63 | 0xFFFFFC18  |  4294966296 |
|      64 | 0x002A      |          42 |
|      65 | 0x0F00      |        3840 |
|      66 | 0xBE12      |       48658 |
|      67 | 0x0027      |          39 |
|      68 | 0x1261      |        4705 |
|      69 | 0xC5BE      |       50622 |
|      70 | 0xFFFFFBBB  |  4294966203 |
|      71 | 0x024D      |         589 |
|      72 | 0x024B      |         587 |
|      73 | 0x02E4      |         740 |
|      74 | 0x08DB      |        2267 |
|      75 | 0x08D9      |        2265 |
|      76 | 0x0080      |         128 |

## Events

### Event 65535

#### Metadata

| Field        | Value   |
|--------------|---------|
| Entrypoint   | 0x0000  |
| Data Size    | 1 bytes |
| Instructions | 1       |

```
      00 01 02 03 04 05 06 07  08 09 0A 0B 0C 0D 0E 0F
      -- -- -- -- -- -- -- --  -- -- -- -- -- -- -- --
0000: 00                                                .               
```

#### Opcodes

```
  0: 0x0000 [0x00] END_REQSTACK()
```

### Event 105

#### Metadata

| Field        | Value   |
|--------------|---------|
| Entrypoint   | 0x0001  |
| Data Size    | 1 bytes |
| Instructions | 1       |

```
      00 01 02 03 04 05 06 07  08 09 0A 0B 0C 0D 0E 0F
      -- -- -- -- -- -- -- --  -- -- -- -- -- -- -- --
0000:    00                                              .              
```

#### Opcodes

```
  0: 0x0001 [0x00] END_REQSTACK()
```

### Event 106

#### Metadata

| Field        | Value   |
|--------------|---------|
| Entrypoint   | 0x0002  |
| Data Size    | 1 bytes |
| Instructions | 1       |

```
      00 01 02 03 04 05 06 07  08 09 0A 0B 0C 0D 0E 0F
      -- -- -- -- -- -- -- --  -- -- -- -- -- -- -- --
0000:       00                                            .             
```

#### Opcodes

```
  0: 0x0002 [0x00] END_REQSTACK()
```

### Event 65535.1

#### Metadata

| Field        | Value   |
|--------------|---------|
| Entrypoint   | 0x0003  |
| Data Size    | 5 bytes |
| Instructions | 2       |

```
      00 01 02 03 04 05 06 07  08 09 0A 0B 0C 0D 0E 0F
      -- -- -- -- -- -- -- --  -- -- -- -- -- -- -- --
0000:          B6 00 00 80 00                              .....        
```

#### Opcodes

```
  0: 0x0003 [0xB6] ENTITY_APPEARANCE_HANDLER(case=Hair style, value=2268*)
  1: 0x0007 [0x00] END_REQSTACK()
```

### Event 65535.2

#### Metadata

| Field        | Value    |
|--------------|----------|
| Entrypoint   | 0x0008   |
| Data Size    | 14 bytes |
| Instructions | 4        |

```
      00 01 02 03 04 05 06 07  08 09 0A 0B 0C 0D 0E 0F
      -- -- -- -- -- -- -- --  -- -- -- -- -- -- -- --
0000:                          32 01 80 1F 00 02 80 03          2.......
0010: 80 04 80 1F 01 00                                 ......          
```

#### Opcodes

```
  0: 0x0008 [0x32] ExtData[1]->MainSpeed = 16* * 0.1
  1: 0x000B [0x1F] MOVE_ENTITY: EventEntity moves to X=259.110*, Z=191.678*, Y=-17.500*
  2: 0x0013 [0x1F] MOVE_ENTITY: Update entity position (mode=1)
  3: 0x0015 [0x00] END_REQSTACK()
```

### Event 65535.3

#### Metadata

| Field        | Value    |
|--------------|----------|
| Entrypoint   | 0x0016   |
| Data Size    | 14 bytes |
| Instructions | 4        |

```
      00 01 02 03 04 05 06 07  08 09 0A 0B 0C 0D 0E 0F
      -- -- -- -- -- -- -- --  -- -- -- -- -- -- -- --
0010:                   32 05  80 1F 00 06 80 07 80 08        2.........
0020: 80 1F 01 00                                       ....            
```

#### Opcodes

```
  0: 0x0016 [0x32] ExtData[1]->MainSpeed = 12* * 0.1
  1: 0x0019 [0x1F] MOVE_ENTITY: EventEntity moves to X=247.783*, Z=145.886*, Y=-14.944*
  2: 0x0021 [0x1F] MOVE_ENTITY: Update entity position (mode=1)
  3: 0x0023 [0x00] END_REQSTACK()
```

### Event 65535.4

#### Metadata

| Field        | Value    |
|--------------|----------|
| Entrypoint   | 0x0024   |
| Data Size    | 14 bytes |
| Instructions | 4        |

```
      00 01 02 03 04 05 06 07  08 09 0A 0B 0C 0D 0E 0F
      -- -- -- -- -- -- -- --  -- -- -- -- -- -- -- --
0020:             32 05 80 1F  00 09 80 0A 80 0B 80 1F      2...........
0030: 01 00                                             ..              
```

#### Opcodes

```
  0: 0x0024 [0x32] ExtData[1]->MainSpeed = 12* * 0.1
  1: 0x0027 [0x1F] MOVE_ENTITY: EventEntity moves to X=253.338*, Z=164.004*, Y=-15.424*
  2: 0x002F [0x1F] MOVE_ENTITY: Update entity position (mode=1)
  3: 0x0031 [0x00] END_REQSTACK()
```

### Event 65535.5

#### Metadata

| Field        | Value    |
|--------------|----------|
| Entrypoint   | 0x0032   |
| Data Size    | 14 bytes |
| Instructions | 4        |

```
      00 01 02 03 04 05 06 07  08 09 0A 0B 0C 0D 0E 0F
      -- -- -- -- -- -- -- --  -- -- -- -- -- -- -- --
0030:       32 0C 80 1F 00 0D  80 0E 80 0F 80 1F 01 00    2.............
```

#### Opcodes

```
  0: 0x0032 [0x32] ExtData[1]->MainSpeed = 40* * 0.1
  1: 0x0035 [0x1F] MOVE_ENTITY: EventEntity moves to X=317.499*, Z=-2.468*, Y=-4.000*
  2: 0x003D [0x1F] MOVE_ENTITY: Update entity position (mode=1)
  3: 0x003F [0x00] END_REQSTACK()
```

### Event 65535.6

#### Metadata

| Field        | Value   |
|--------------|---------|
| Entrypoint   | 0x0040  |
| Data Size    | 5 bytes |
| Instructions | 2       |

```
      00 01 02 03 04 05 06 07  08 09 0A 0B 0C 0D 0E 0F
      -- -- -- -- -- -- -- --  -- -- -- -- -- -- -- --
0040: B6 00 10 80 00                                    .....           
```

#### Opcodes

```
  0: 0x0040 [0xB6] ENTITY_APPEARANCE_HANDLER(case=Hair style, value=1359*)
  1: 0x0044 [0x00] END_REQSTACK()
```

### Event 65535.7

#### Metadata

| Field        | Value   |
|--------------|---------|
| Entrypoint   | 0x0045  |
| Data Size    | 5 bytes |
| Instructions | 2       |

```
      00 01 02 03 04 05 06 07  08 09 0A 0B 0C 0D 0E 0F
      -- -- -- -- -- -- -- --  -- -- -- -- -- -- -- --
0040:                B6 00 11  80 00                         .....      
```

#### Opcodes

```
  0: 0x0045 [0xB6] ENTITY_APPEARANCE_HANDLER(case=Hair style, value=2076*)
  1: 0x0049 [0x00] END_REQSTACK()
```

### Event 65535.8

#### Metadata

| Field        | Value   |
|--------------|---------|
| Entrypoint   | 0x004A  |
| Data Size    | 5 bytes |
| Instructions | 2       |

```
      00 01 02 03 04 05 06 07  08 09 0A 0B 0C 0D 0E 0F
      -- -- -- -- -- -- -- --  -- -- -- -- -- -- -- --
0040:                                B6 00 12 80 00               ..... 
```

#### Opcodes

```
  0: 0x004A [0xB6] ENTITY_APPEARANCE_HANDLER(case=Hair style, value=1084*)
  1: 0x004E [0x00] END_REQSTACK()
```

### Event 65535.9

#### Metadata

| Field        | Value   |
|--------------|---------|
| Entrypoint   | 0x004F  |
| Data Size    | 5 bytes |
| Instructions | 2       |

```
      00 01 02 03 04 05 06 07  08 09 0A 0B 0C 0D 0E 0F
      -- -- -- -- -- -- -- --  -- -- -- -- -- -- -- --
0040:                                               B6                 .
0050: 00 13 80 00                                       ....            
```

#### Opcodes

```
  0: 0x004F [0xB6] ENTITY_APPEARANCE_HANDLER(case=Hair style, value=752*)
  1: 0x0053 [0x00] END_REQSTACK()
```

### Event 65535.10

#### Metadata

| Field        | Value   |
|--------------|---------|
| Entrypoint   | 0x0054  |
| Data Size    | 5 bytes |
| Instructions | 2       |

```
      00 01 02 03 04 05 06 07  08 09 0A 0B 0C 0D 0E 0F
      -- -- -- -- -- -- -- --  -- -- -- -- -- -- -- --
0050:             B6 00 14 80  00                           .....       
```

#### Opcodes

```
  0: 0x0054 [0xB6] ENTITY_APPEARANCE_HANDLER(case=Hair style, value=2165*)
  1: 0x0058 [0x00] END_REQSTACK()
```

### Event 65535.11

#### Metadata

| Field        | Value    |
|--------------|----------|
| Entrypoint   | 0x0059   |
| Data Size    | 34 bytes |
| Instructions | 8        |

```
      00 01 02 03 04 05 06 07  08 09 0A 0B 0C 0D 0E 0F
      -- -- -- -- -- -- -- --  -- -- -- -- -- -- -- --
0050:                             32 0C 80 1F 00 15 80           2......
0060: 16 80 17 80 1F 01 1F 00  18 80 19 80 17 80 1F 01  ................
0070: 1F 00 1A 80 1B 80 17 80  1F 01 00                 ...........     
```

#### Opcodes

```
  0: 0x0059 [0x32] ExtData[1]->MainSpeed = 40* * 0.1
  1: 0x005C [0x1F] MOVE_ENTITY: EventEntity moves to X=-21.684*, Z=82.689*, Y=-4.999*
  2: 0x0064 [0x1F] MOVE_ENTITY: Update entity position (mode=1)
  3: 0x0066 [0x1F] MOVE_ENTITY: EventEntity moves to X=-32.691*, Z=88.986*, Y=-4.999*
  4: 0x006E [0x1F] MOVE_ENTITY: Update entity position (mode=1)
  5: 0x0070 [0x1F] MOVE_ENTITY: EventEntity moves to X=-37.549*, Z=93.526*, Y=-4.999*
  6: 0x0078 [0x1F] MOVE_ENTITY: Update entity position (mode=1)
  7: 0x007A [0x00] END_REQSTACK()
```

### Event 65535.12

#### Metadata

| Field        | Value    |
|--------------|----------|
| Entrypoint   | 0x007B   |
| Data Size    | 14 bytes |
| Instructions | 4        |

```
      00 01 02 03 04 05 06 07  08 09 0A 0B 0C 0D 0E 0F
      -- -- -- -- -- -- -- --  -- -- -- -- -- -- -- --
0070:                                   32 0C 80 1F 00             2....
0080: 1C 80 1D 80 1E 80 1F 01  00                       .........       
```

#### Opcodes

```
  0: 0x007B [0x32] ExtData[1]->MainSpeed = 40* * 0.1
  1: 0x007E [0x1F] MOVE_ENTITY: EventEntity moves to X=-29.878*, Z=85.092*, Y=-4.891*
  2: 0x0086 [0x1F] MOVE_ENTITY: Update entity position (mode=1)
  3: 0x0088 [0x00] END_REQSTACK()
```

### Event 65535.13

#### Metadata

| Field        | Value    |
|--------------|----------|
| Entrypoint   | 0x0089   |
| Data Size    | 14 bytes |
| Instructions | 4        |

```
      00 01 02 03 04 05 06 07  08 09 0A 0B 0C 0D 0E 0F
      -- -- -- -- -- -- -- --  -- -- -- -- -- -- -- --
0080:                             32 0C 80 1F 00 1F 80           2......
0090: 20 80 21 80 1F 01 00                               .!....         
```

#### Opcodes

```
  0: 0x0089 [0x32] ExtData[1]->MainSpeed = 40* * 0.1
  1: 0x008C [0x1F] MOVE_ENTITY: EventEntity moves to X=-37.788*, Z=72.994*, Y=-3.500*
  2: 0x0094 [0x1F] MOVE_ENTITY: Update entity position (mode=1)
  3: 0x0096 [0x00] END_REQSTACK()
```

### Event 65535.14

#### Metadata

| Field        | Value    |
|--------------|----------|
| Entrypoint   | 0x0097   |
| Data Size    | 24 bytes |
| Instructions | 6        |

```
      00 01 02 03 04 05 06 07  08 09 0A 0B 0C 0D 0E 0F
      -- -- -- -- -- -- -- --  -- -- -- -- -- -- -- --
0090:                      32  0C 80 1F 00 22 80 23 80         2....".#.
00A0: 17 80 1F 01 1F 00 24 80  25 80 17 80 1F 01 00     ......$.%...... 
```

#### Opcodes

```
  0: 0x0097 [0x32] ExtData[1]->MainSpeed = 40* * 0.1
  1: 0x009A [0x1F] MOVE_ENTITY: EventEntity moves to X=-26.981*, Z=86.200*, Y=-4.999*
  2: 0x00A2 [0x1F] MOVE_ENTITY: Update entity position (mode=1)
  3: 0x00A4 [0x1F] MOVE_ENTITY: EventEntity moves to X=-10.127*, Z=87.590*, Y=-4.999*
  4: 0x00AC [0x1F] MOVE_ENTITY: Update entity position (mode=1)
  5: 0x00AE [0x00] END_REQSTACK()
```

### Event 65535.15

#### Metadata

| Field        | Value    |
|--------------|----------|
| Entrypoint   | 0x00AF   |
| Data Size    | 24 bytes |
| Instructions | 6        |

```
      00 01 02 03 04 05 06 07  08 09 0A 0B 0C 0D 0E 0F
      -- -- -- -- -- -- -- --  -- -- -- -- -- -- -- --
00A0:                                               32                 2
00B0: 0C 80 1F 00 22 80 23 80  17 80 1F 01 1F 00 24 80  ....".#.......$.
00C0: 25 80 17 80 1F 01 00                              %......         
```

#### Opcodes

```
  0: 0x00AF [0x32] ExtData[1]->MainSpeed = 40* * 0.1
  1: 0x00B2 [0x1F] MOVE_ENTITY: EventEntity moves to X=-26.981*, Z=86.200*, Y=-4.999*
  2: 0x00BA [0x1F] MOVE_ENTITY: Update entity position (mode=1)
  3: 0x00BC [0x1F] MOVE_ENTITY: EventEntity moves to X=-10.127*, Z=87.590*, Y=-4.999*
  4: 0x00C4 [0x1F] MOVE_ENTITY: Update entity position (mode=1)
  5: 0x00C6 [0x00] END_REQSTACK()
```

### Event 65535.16

#### Metadata

| Field        | Value    |
|--------------|----------|
| Entrypoint   | 0x00C7   |
| Data Size    | 21 bytes |
| Instructions | 2        |

```
      00 01 02 03 04 05 06 07  08 09 0A 0B 0C 0D 0E 0F
      -- -- -- -- -- -- -- --  -- -- -- -- -- -- -- --
00C0:                      B6  0B 26 80 27 80 28 80 28         ..&.'.(.(
00D0: 80 28 80 28 80 28 80 29  80 2A 80 00              .(.(.(.).*..    
```

#### Opcodes

```
  0: 0x00C7 [0xB6] ENTITY_APPEARANCE_HANDLER(case=Full entity look, race=5*, hair=3*, head=109*, body=109*, hands=109*, legs=109*, feet=109*, main=280*, sub=0*)
  1: 0x00DB [0x00] END_REQSTACK()
```

### Event 65535.17

#### Metadata

| Field        | Value    |
|--------------|----------|
| Entrypoint   | 0x00DC   |
| Data Size    | 21 bytes |
| Instructions | 2        |

```
      00 01 02 03 04 05 06 07  08 09 0A 0B 0C 0D 0E 0F
      -- -- -- -- -- -- -- --  -- -- -- -- -- -- -- --
00D0:                                      B6 0B 26 80              ..&.
00E0: 2B 80 28 80 28 80 28 80  28 80 28 80 29 80 2A 80  +.(.(.(.(.(.).*.
00F0: 00                                                .               
```

#### Opcodes

```
  0: 0x00DC [0xB6] ENTITY_APPEARANCE_HANDLER(case=Full entity look, race=5*, hair=7*, head=109*, body=109*, hands=109*, legs=109*, feet=109*, main=280*, sub=0*)
  1: 0x00F0 [0x00] END_REQSTACK()
```

### Event 65535.18

#### Metadata

| Field        | Value    |
|--------------|----------|
| Entrypoint   | 0x00F1   |
| Data Size    | 21 bytes |
| Instructions | 2        |

```
      00 01 02 03 04 05 06 07  08 09 0A 0B 0C 0D 0E 0F
      -- -- -- -- -- -- -- --  -- -- -- -- -- -- -- --
00F0:    B6 0B 26 80 2C 80 28  80 28 80 28 80 28 80 28   ..&.,.(.(.(.(.(
0100: 80 29 80 2A 80 00                                 .).*..          
```

#### Opcodes

```
  0: 0x00F1 [0xB6] ENTITY_APPEARANCE_HANDLER(case=Full entity look, race=5*, hair=10*, head=109*, body=109*, hands=109*, legs=109*, feet=109*, main=280*, sub=0*)
  1: 0x0105 [0x00] END_REQSTACK()
```

### Event 65535.19

#### Metadata

| Field        | Value    |
|--------------|----------|
| Entrypoint   | 0x0106   |
| Data Size    | 25 bytes |
| Instructions | 3        |

```
      00 01 02 03 04 05 06 07  08 09 0A 0B 0C 0D 0E 0F
      -- -- -- -- -- -- -- --  -- -- -- -- -- -- -- --
0100:                   7E 06  F8 FF FF 7F 2D 80 2A 80        ~.....-.*.
0110: 2E 80 2E 80 2E 80 2E 80  7E 04 F8 FF FF 7F 00     ........~...... 
```

#### Opcodes

```
  0: 0x0106 [0x7E] CHOCOBO_MOUNT: Mode 6 (custom mount) on EventEntity
  1: 0x0118 [0x7E] CHOCOBO_MOUNT: Mode 4 on EventEntity
  2: 0x011E [0x00] END_REQSTACK()
```

### Event 65535.20

#### Metadata

| Field        | Value   |
|--------------|---------|
| Entrypoint   | 0x011F  |
| Data Size    | 7 bytes |
| Instructions | 2       |

```
      00 01 02 03 04 05 06 07  08 09 0A 0B 0C 0D 0E 0F
      -- -- -- -- -- -- -- --  -- -- -- -- -- -- -- --
0110:                                               7E                 ~
0120: 05 F8 FF FF 7F 00                                 ......          
```

#### Opcodes

```
  0: 0x011F [0x7E] CHOCOBO_MOUNT: Dismount EventEntity (status = 0)
  1: 0x0125 [0x00] END_REQSTACK()
```

### Event 65535.21

#### Metadata

| Field        | Value    |
|--------------|----------|
| Entrypoint   | 0x0126   |
| Data Size    | 21 bytes |
| Instructions | 2        |

```
      00 01 02 03 04 05 06 07  08 09 0A 0B 0C 0D 0E 0F
      -- -- -- -- -- -- -- --  -- -- -- -- -- -- -- --
0120:                   B6 0B  2B 80 26 80 2F 80 2F 80        ..+.&././.
0130: 01 80 30 80 30 80 31 80  2A 80 00                 ..0.0.1.*..     
```

#### Opcodes

```
  0: 0x0126 [0xB6] ENTITY_APPEARANCE_HANDLER(case=Full entity look, race=7*, hair=5*, head=137*, body=137*, hands=16*, legs=14*, feet=14*, main=110*, sub=0*)
  1: 0x013A [0x00] END_REQSTACK()
```

### Event 65535.22

#### Metadata

| Field        | Value    |
|--------------|----------|
| Entrypoint   | 0x013B   |
| Data Size    | 21 bytes |
| Instructions | 2        |

```
      00 01 02 03 04 05 06 07  08 09 0A 0B 0C 0D 0E 0F
      -- -- -- -- -- -- -- --  -- -- -- -- -- -- -- --
0130:                                   B6 0B 2B 80 05             ..+..
0140: 80 2F 80 2F 80 01 80 30  80 32 80 33 80 2A 80 00  ././...0.2.3.*..
```

#### Opcodes

```
  0: 0x013B [0xB6] ENTITY_APPEARANCE_HANDLER(case=Full entity look, race=7*, hair=12*, head=137*, body=137*, hands=16*, legs=14*, feet=129*, main=277*, sub=0*)
  1: 0x014F [0x00] END_REQSTACK()
```

### Event 65535.23

#### Metadata

| Field        | Value    |
|--------------|----------|
| Entrypoint   | 0x0150   |
| Data Size    | 21 bytes |
| Instructions | 2        |

```
      00 01 02 03 04 05 06 07  08 09 0A 0B 0C 0D 0E 0F
      -- -- -- -- -- -- -- --  -- -- -- -- -- -- -- --
0150: B6 0B 2B 80 34 80 2F 80  2F 80 01 80 30 80 32 80  ..+.4././...0.2.
0160: 35 80 2A 80 00                                    5.*..           
```

#### Opcodes

```
  0: 0x0150 [0xB6] ENTITY_APPEARANCE_HANDLER(case=Full entity look, race=7*, hair=2*, head=137*, body=137*, hands=16*, legs=14*, feet=129*, main=284*, sub=0*)
  1: 0x0164 [0x00] END_REQSTACK()
```

### Event 65535.24

#### Metadata

| Field        | Value    |
|--------------|----------|
| Entrypoint   | 0x0165   |
| Data Size    | 14 bytes |
| Instructions | 4        |

```
      00 01 02 03 04 05 06 07  08 09 0A 0B 0C 0D 0E 0F
      -- -- -- -- -- -- -- --  -- -- -- -- -- -- -- --
0160:                32 36 80  1F 00 37 80 38 80 17 80       26...7.8...
0170: 1F 01 00                                          ...             
```

#### Opcodes

```
  0: 0x0165 [0x32] ExtData[1]->MainSpeed = 80* * 0.1
  1: 0x0168 [0x1F] MOVE_ENTITY: EventEntity moves to X=-41.045*, Z=115.960*, Y=-4.999*
  2: 0x0170 [0x1F] MOVE_ENTITY: Update entity position (mode=1)
  3: 0x0172 [0x00] END_REQSTACK()
```

### Event 65535.25

#### Metadata

| Field        | Value    |
|--------------|----------|
| Entrypoint   | 0x0173   |
| Data Size    | 17 bytes |
| Instructions | 5        |

```
      00 01 02 03 04 05 06 07  08 09 0A 0B 0C 0D 0E 0F
      -- -- -- -- -- -- -- --  -- -- -- -- -- -- -- --
0170:          32 36 80 1C 39  80 1F 00 37 80 38 80 17     26..9...7.8..
0180: 80 1F 01 00                                       ....            
```

#### Opcodes

```
  0: 0x0173 [0x32] ExtData[1]->MainSpeed = 80* * 0.1
  1: 0x0176 [0x1C] WAIT(30* ticks)
  2: 0x0179 [0x1F] MOVE_ENTITY: EventEntity moves to X=-41.045*, Z=115.960*, Y=-4.999*
  3: 0x0181 [0x1F] MOVE_ENTITY: Update entity position (mode=1)
  4: 0x0183 [0x00] END_REQSTACK()
```

### Event 65535.26

#### Metadata

| Field        | Value    |
|--------------|----------|
| Entrypoint   | 0x0184   |
| Data Size    | 17 bytes |
| Instructions | 5        |

```
      00 01 02 03 04 05 06 07  08 09 0A 0B 0C 0D 0E 0F
      -- -- -- -- -- -- -- --  -- -- -- -- -- -- -- --
0180:             1C 3A 80 32  36 80 1F 00 3B 80 3C 80      .:.26...;.<.
0190: 17 80 1F 01 00                                    .....           
```

#### Opcodes

```
  0: 0x0184 [0x1C] WAIT(15* ticks)
  1: 0x0187 [0x32] ExtData[1]->MainSpeed = 80* * 0.1
  2: 0x018A [0x1F] MOVE_ENTITY: EventEntity moves to X=-38.522*, Z=115.170*, Y=-4.999*
  3: 0x0192 [0x1F] MOVE_ENTITY: Update entity position (mode=1)
  4: 0x0194 [0x00] END_REQSTACK()
```

### Event 107

#### Metadata

| Field        | Value   |
|--------------|---------|
| Entrypoint   | 0x0195  |
| Data Size    | 1 bytes |
| Instructions | 1       |

```
      00 01 02 03 04 05 06 07  08 09 0A 0B 0C 0D 0E 0F
      -- -- -- -- -- -- -- --  -- -- -- -- -- -- -- --
0190:                00                                      .          
```

#### Opcodes

```
  0: 0x0195 [0x00] END_REQSTACK()
```

### Event 112

#### Metadata

| Field        | Value   |
|--------------|---------|
| Entrypoint   | 0x0196  |
| Data Size    | 1 bytes |
| Instructions | 1       |

```
      00 01 02 03 04 05 06 07  08 09 0A 0B 0C 0D 0E 0F
      -- -- -- -- -- -- -- --  -- -- -- -- -- -- -- --
0190:                   00                                    .         
```

#### Opcodes

```
  0: 0x0196 [0x00] END_REQSTACK()
```

### Event 113

#### Metadata

| Field        | Value   |
|--------------|---------|
| Entrypoint   | 0x0197  |
| Data Size    | 1 bytes |
| Instructions | 1       |

```
      00 01 02 03 04 05 06 07  08 09 0A 0B 0C 0D 0E 0F
      -- -- -- -- -- -- -- --  -- -- -- -- -- -- -- --
0190:                      00                                  .        
```

#### Opcodes

```
  0: 0x0197 [0x00] END_REQSTACK()
```

### Event 65535.27

#### Metadata

| Field        | Value    |
|--------------|----------|
| Entrypoint   | 0x0198   |
| Data Size    | 15 bytes |
| Instructions | 5        |

```
      00 01 02 03 04 05 06 07  08 09 0A 0B 0C 0D 0E 0F
      -- -- -- -- -- -- -- --  -- -- -- -- -- -- -- --
0190:                          32 0C 80 1F 00 3D 80 3E          2....=.>
01A0: 80 3F 80 1F 01 6F 00                              .?...o.         
```

#### Opcodes

```
  0: 0x0198 [0x32] ExtData[1]->MainSpeed = 40* * 0.1
  1: 0x019B [0x1F] MOVE_ENTITY: EventEntity moves to X=2.310*, Z=46.581*, Y=-1.000*
  2: 0x01A3 [0x1F] MOVE_ENTITY: Update entity position (mode=1)
  3: 0x01A5 [0x6F] WAIT_FRAME_DELAY: Yield until WaitTime reaches zero
  4: 0x01A6 [0x00] END_REQSTACK()
```

### Event 65535.28

#### Metadata

| Field        | Value    |
|--------------|----------|
| Entrypoint   | 0x01A7   |
| Data Size    | 18 bytes |
| Instructions | 6        |

```
      00 01 02 03 04 05 06 07  08 09 0A 0B 0C 0D 0E 0F
      -- -- -- -- -- -- -- --  -- -- -- -- -- -- -- --
01A0:                      1C  39 80 32 40 80 1F 00 41         .9.2@...A
01B0: 80 42 80 3F 80 1F 01 6F  00                       .B.?...o.       
```

#### Opcodes

```
  0: 0x01A7 [0x1C] WAIT(30* ticks)
  1: 0x01AA [0x32] ExtData[1]->MainSpeed = 42* * 0.1
  2: 0x01AD [0x1F] MOVE_ENTITY: EventEntity moves to X=3.840*, Z=48.658*, Y=-1.000*
  3: 0x01B5 [0x1F] MOVE_ENTITY: Update entity position (mode=1)
  4: 0x01B7 [0x6F] WAIT_FRAME_DELAY: Yield until WaitTime reaches zero
  5: 0x01B8 [0x00] END_REQSTACK()
```

### Event 65535.29

#### Metadata

| Field        | Value    |
|--------------|----------|
| Entrypoint   | 0x01B9   |
| Data Size    | 18 bytes |
| Instructions | 6        |

```
      00 01 02 03 04 05 06 07  08 09 0A 0B 0C 0D 0E 0F
      -- -- -- -- -- -- -- --  -- -- -- -- -- -- -- --
01B0:                             1C 3A 80 32 43 80 1F           .:.2C..
01C0: 00 44 80 45 80 46 80 1F  01 6F 00                 .D.E.F...o.     
```

#### Opcodes

```
  0: 0x01B9 [0x1C] WAIT(15* ticks)
  1: 0x01BC [0x32] ExtData[1]->MainSpeed = 39* * 0.1
  2: 0x01BF [0x1F] MOVE_ENTITY: EventEntity moves to X=4.705*, Z=50.622*, Y=-1.093*
  3: 0x01C7 [0x1F] MOVE_ENTITY: Update entity position (mode=1)
  4: 0x01C9 [0x6F] WAIT_FRAME_DELAY: Yield until WaitTime reaches zero
  5: 0x01CA [0x00] END_REQSTACK()
```

### Event 65535.30

#### Metadata

| Field        | Value   |
|--------------|---------|
| Entrypoint   | 0x01CB  |
| Data Size    | 5 bytes |
| Instructions | 2       |

```
      00 01 02 03 04 05 06 07  08 09 0A 0B 0C 0D 0E 0F
      -- -- -- -- -- -- -- --  -- -- -- -- -- -- -- --
01C0:                                   B6 00 47 80 00             ..G..
```

#### Opcodes

```
  0: 0x01CB [0xB6] ENTITY_APPEARANCE_HANDLER(case=Hair style, value=589*)
  1: 0x01CF [0x00] END_REQSTACK()
```

### Event 65535.31

#### Metadata

| Field        | Value   |
|--------------|---------|
| Entrypoint   | 0x01D0  |
| Data Size    | 5 bytes |
| Instructions | 2       |

```
      00 01 02 03 04 05 06 07  08 09 0A 0B 0C 0D 0E 0F
      -- -- -- -- -- -- -- --  -- -- -- -- -- -- -- --
01D0: B6 00 48 80 00                                    ..H..           
```

#### Opcodes

```
  0: 0x01D0 [0xB6] ENTITY_APPEARANCE_HANDLER(case=Hair style, value=587*)
  1: 0x01D4 [0x00] END_REQSTACK()
```

### Event 65535.32

#### Metadata

| Field        | Value   |
|--------------|---------|
| Entrypoint   | 0x01D5  |
| Data Size    | 5 bytes |
| Instructions | 2       |

```
      00 01 02 03 04 05 06 07  08 09 0A 0B 0C 0D 0E 0F
      -- -- -- -- -- -- -- --  -- -- -- -- -- -- -- --
01D0:                B6 00 12  80 00                         .....      
```

#### Opcodes

```
  0: 0x01D5 [0xB6] ENTITY_APPEARANCE_HANDLER(case=Hair style, value=1084*)
  1: 0x01D9 [0x00] END_REQSTACK()
```

### Event 65535.33

#### Metadata

| Field        | Value   |
|--------------|---------|
| Entrypoint   | 0x01DA  |
| Data Size    | 5 bytes |
| Instructions | 2       |

```
      00 01 02 03 04 05 06 07  08 09 0A 0B 0C 0D 0E 0F
      -- -- -- -- -- -- -- --  -- -- -- -- -- -- -- --
01D0:                                B6 00 49 80 00               ..I.. 
```

#### Opcodes

```
  0: 0x01DA [0xB6] ENTITY_APPEARANCE_HANDLER(case=Hair style, value=740*)
  1: 0x01DE [0x00] END_REQSTACK()
```

### Event 65535.34

#### Metadata

| Field        | Value   |
|--------------|---------|
| Entrypoint   | 0x01DF  |
| Data Size    | 5 bytes |
| Instructions | 2       |

```
      00 01 02 03 04 05 06 07  08 09 0A 0B 0C 0D 0E 0F
      -- -- -- -- -- -- -- --  -- -- -- -- -- -- -- --
01D0:                                               B6                 .
01E0: 00 4A 80 00                                       .J..            
```

#### Opcodes

```
  0: 0x01DF [0xB6] ENTITY_APPEARANCE_HANDLER(case=Hair style, value=2267*)
  1: 0x01E3 [0x00] END_REQSTACK()
```

### Event 65535.35

#### Metadata

| Field        | Value   |
|--------------|---------|
| Entrypoint   | 0x01E4  |
| Data Size    | 5 bytes |
| Instructions | 2       |

```
      00 01 02 03 04 05 06 07  08 09 0A 0B 0C 0D 0E 0F
      -- -- -- -- -- -- -- --  -- -- -- -- -- -- -- --
01E0:             B6 00 4B 80  00                           ..K..       
```

#### Opcodes

```
  0: 0x01E4 [0xB6] ENTITY_APPEARANCE_HANDLER(case=Hair style, value=2265*)
  1: 0x01E8 [0x00] END_REQSTACK()
```

### Event 65535.36

#### Metadata

| Field        | Value   |
|--------------|---------|
| Entrypoint   | 0x01E9  |
| Data Size    | 5 bytes |
| Instructions | 2       |

```
      00 01 02 03 04 05 06 07  08 09 0A 0B 0C 0D 0E 0F
      -- -- -- -- -- -- -- --  -- -- -- -- -- -- -- --
01E0:                             B6 00 00 80 00                 .....  
```

#### Opcodes

```
  0: 0x01E9 [0xB6] ENTITY_APPEARANCE_HANDLER(case=Hair style, value=2268*)
  1: 0x01ED [0x00] END_REQSTACK()
```

### Event 65535.37

#### Metadata

| Field        | Value   |
|--------------|---------|
| Entrypoint   | 0x01EE  |
| Data Size    | 5 bytes |
| Instructions | 2       |

```
      00 01 02 03 04 05 06 07  08 09 0A 0B 0C 0D 0E 0F
      -- -- -- -- -- -- -- --  -- -- -- -- -- -- -- --
01E0:                                            B6 00                ..
01F0: 4A 80 00                                          J..             
```

#### Opcodes

```
  0: 0x01EE [0xB6] ENTITY_APPEARANCE_HANDLER(case=Hair style, value=2267*)
  1: 0x01F2 [0x00] END_REQSTACK()
```

### Event 65535.38

#### Metadata

| Field        | Value   |
|--------------|---------|
| Entrypoint   | 0x01F3  |
| Data Size    | 5 bytes |
| Instructions | 2       |

```
      00 01 02 03 04 05 06 07  08 09 0A 0B 0C 0D 0E 0F
      -- -- -- -- -- -- -- --  -- -- -- -- -- -- -- --
01F0:          B6 00 00 80 00                              .....        
```

#### Opcodes

```
  0: 0x01F3 [0xB6] ENTITY_APPEARANCE_HANDLER(case=Hair style, value=2268*)
  1: 0x01F7 [0x00] END_REQSTACK()
```

### Event 65535.39

#### Metadata

| Field        | Value   |
|--------------|---------|
| Entrypoint   | 0x01F8  |
| Data Size    | 5 bytes |
| Instructions | 2       |

```
      00 01 02 03 04 05 06 07  08 09 0A 0B 0C 0D 0E 0F
      -- -- -- -- -- -- -- --  -- -- -- -- -- -- -- --
01F0:                          B6 00 4B 80 00                   ..K..   
```

#### Opcodes

```
  0: 0x01F8 [0xB6] ENTITY_APPEARANCE_HANDLER(case=Hair style, value=2265*)
  1: 0x01FC [0x00] END_REQSTACK()
```

### Event 65535.40

#### Metadata

| Field        | Value   |
|--------------|---------|
| Entrypoint   | 0x01FD  |
| Data Size    | 1 bytes |
| Instructions | 1       |

```
      00 01 02 03 04 05 06 07  08 09 0A 0B 0C 0D 0E 0F
      -- -- -- -- -- -- -- --  -- -- -- -- -- -- -- --
01F0:                                         00                     .  
```

#### Opcodes

```
  0: 0x01FD [0x00] END_REQSTACK()
```

### Event 65535.41

#### Metadata

| Field        | Value    |
|--------------|----------|
| Entrypoint   | 0x01FE   |
| Data Size    | 18 bytes |
| Instructions | 4        |

```
      00 01 02 03 04 05 06 07  08 09 0A 0B 0C 0D 0E 0F
      -- -- -- -- -- -- -- --  -- -- -- -- -- -- -- --
01F0:                                            22 00                ".
0200: 2F 00 F8 FF FF 7F 6C F8  FF FF 7F 2A 80 2E 80 00  /.....l....*....
```

#### Opcodes

```
  0: 0x01FE [0x22] ENTITY_HIDE_FLAG(enabled=0x00)
  1: 0x0200 [0x2F] EventEntity->Render.Flags0 &= ~0x80000 // Bit 19
  2: 0x0206 [0x6C] FADE_ENTITY_COLOR(entity_id=EventEntity, end_alpha=0*, fade_time=1*)
  3: 0x020F [0x00] END_REQSTACK()
```

### Event 65535.42

#### Metadata

| Field        | Value    |
|--------------|----------|
| Entrypoint   | 0x0210   |
| Data Size    | 10 bytes |
| Instructions | 2        |

```
      00 01 02 03 04 05 06 07  08 09 0A 0B 0C 0D 0E 0F
      -- -- -- -- -- -- -- --  -- -- -- -- -- -- -- --
0210: 6C F8 FF FF 7F 4C 80 2E  80 00                    l....L....      
```

#### Opcodes

```
  0: 0x0210 [0x6C] FADE_ENTITY_COLOR(entity_id=EventEntity, end_alpha=128*, fade_time=1*)
  1: 0x0219 [0x00] END_REQSTACK()
```

### Event 65535.43

#### Metadata

| Field        | Value   |
|--------------|---------|
| Entrypoint   | 0x021A  |
| Data Size    | 9 bytes |
| Instructions | 3       |

```
      00 01 02 03 04 05 06 07  08 09 0A 0B 0C 0D 0E 0F
      -- -- -- -- -- -- -- --  -- -- -- -- -- -- -- --
0210:                                22 00 2F 00 F8 FF            "./...
0220: FF 7F 00                                          ...             
```

#### Opcodes

```
  0: 0x021A [0x22] ENTITY_HIDE_FLAG(enabled=0x00)
  1: 0x021C [0x2F] EventEntity->Render.Flags0 &= ~0x80000 // Bit 19
  2: 0x0222 [0x00] END_REQSTACK()
```

### Event 65535.44

#### Metadata

| Field        | Value   |
|--------------|---------|
| Entrypoint   | 0x0223  |
| Data Size    | 9 bytes |
| Instructions | 3       |

```
      00 01 02 03 04 05 06 07  08 09 0A 0B 0C 0D 0E 0F
      -- -- -- -- -- -- -- --  -- -- -- -- -- -- -- --
0220:          22 01 2F 01 F8  FF FF 7F 00                 "./......    
```

#### Opcodes

```
  0: 0x0223 [0x22] ENTITY_HIDE_FLAG(enabled=0x01)
  1: 0x0225 [0x2F] EventEntity->Render.Flags0 |= 0x80000 // Bit 19
  2: 0x022B [0x00] END_REQSTACK()
```

### Event 65535.45

#### Metadata

| Field        | Value    |
|--------------|----------|
| Entrypoint   | 0x022C   |
| Data Size    | 10 bytes |
| Instructions | 2        |

```
      00 01 02 03 04 05 06 07  08 09 0A 0B 0C 0D 0E 0F
      -- -- -- -- -- -- -- --  -- -- -- -- -- -- -- --
0220:                                      6C F8 FF FF              l...
0230: 7F 2A 80 2E 80 00                                 .*....          
```

#### Opcodes

```
  0: 0x022C [0x6C] FADE_ENTITY_COLOR(entity_id=EventEntity, end_alpha=0*, fade_time=1*)
  1: 0x0235 [0x00] END_REQSTACK()
```

### Event 65535.46

#### Metadata

| Field        | Value    |
|--------------|----------|
| Entrypoint   | 0x0236   |
| Data Size    | 10 bytes |
| Instructions | 2        |

```
      00 01 02 03 04 05 06 07  08 09 0A 0B 0C 0D 0E 0F
      -- -- -- -- -- -- -- --  -- -- -- -- -- -- -- --
0230:                   6C F8  FF FF 7F 4C 80 2E 80 00        l....L....
```

#### Opcodes

```
  0: 0x0236 [0x6C] FADE_ENTITY_COLOR(entity_id=EventEntity, end_alpha=128*, fade_time=1*)
  1: 0x023F [0x00] END_REQSTACK()
```
