# 17167269 - kakashi1

## Common Data

| Field            | Value                          |
|------------------|--------------------------------|
| Zone             | West Sarutabaruta [S] (ID: 95) |
| Block Size       | 624 bytes                      |
| Total Events     | 19                             |
| References Count | 49                             |

## List of Events

| Event ID                   | Entrypoint   |   Size |   Instructions |
|----------------------------|--------------|--------|----------------|
| [65535](#event-65535)      | 0x0000       |      1 |              1 |
| [105](#event-105)          | 0x0001       |      1 |              1 |
| [65535.1](#event-655351)   | 0x0002       |     16 |              2 |
| [65535.2](#event-655352)   | 0x0012       |     86 |             18 |
| [65535.3](#event-655353)   | 0x0068       |     50 |             10 |
| [110](#event-110)          | 0x009A       |      1 |              1 |
| [65535.4](#event-655354)   | 0x009B       |      5 |              2 |
| [65535.5](#event-655355)   | 0x00A0       |      5 |              2 |
| [65535.6](#event-655356)   | 0x00A5       |     56 |             12 |
| [65535.7](#event-655357)   | 0x00DD       |     27 |              7 |
| [65535.8](#event-655358)   | 0x00F8       |     10 |              2 |
| [65535.9](#event-655359)   | 0x0102       |     10 |              2 |
| [65535.10](#event-6553510) | 0x010C       |      1 |              1 |
| [65535.11](#event-6553511) | 0x010D       |     18 |              4 |
| [65535.12](#event-6553512) | 0x011F       |     10 |              2 |
| [65535.13](#event-6553513) | 0x0129       |      9 |              3 |
| [65535.14](#event-6553514) | 0x0132       |      9 |              3 |
| [65535.15](#event-6553515) | 0x013B       |     10 |              2 |
| [65535.16](#event-6553516) | 0x0145       |     10 |              2 |

## DAT References (imed_data)

|   Index | Hex Value   |   Dec Value |
|---------|-------------|-------------|
|       0 | 0x00B5      |         181 |
|       1 | 0x0027      |          39 |
|       2 | 0xFFFF4D45  |  4294921541 |
|       3 | 0x14D13     |       85267 |
|       4 | 0xFFFFEC79  |  4294962297 |
|       5 | 0xFFFF590A  |  4294924554 |
|       6 | 0x14FD5     |       85973 |
|       7 | 0xFFFF6353  |  4294927187 |
|       8 | 0x15DB1     |       89521 |
|       9 | 0xFFFF636A  |  4294927210 |
|      10 | 0x16D77     |       93559 |
|      11 | 0xFFFFEC78  |  4294962296 |
|      12 | 0x0001      |           1 |
|      13 | 0xFFFF7DE6  |  4294933990 |
|      14 | 0x130B8     |       78008 |
|      15 | 0xFFFFF20C  |  4294963724 |
|      16 | 0x0A28      |        2600 |
|      17 | 0x0028      |          40 |
|      18 | 0xFFFF6A2A  |  4294928938 |
|      19 | 0x1590B     |       88331 |
|      20 | 0xFFFF6395  |  4294927253 |
|      21 | 0x1BF85     |      114565 |
|      22 | 0xFFFF5EC0  |  4294926016 |
|      23 | 0x33771     |      210801 |
|      24 | 0xFFFFEB7D  |  4294962045 |
|      25 | 0xFFFF56B8  |  4294923960 |
|      26 | 0x34B87     |      215943 |
|      27 | 0x0BB8      |        3000 |
|      28 | 0x000F      |          15 |
|      29 | 0x0108      |         264 |
|      30 | 0x0348      |         840 |
|      31 | 0x00FA      |         250 |
|      32 | 0x002A      |          42 |
|      33 | 0xFFFB4285  |  4294656645 |
|      34 | 0xFFFFCAE7  |  4294953703 |
|      35 | 0xFFFF4480  |  4294919296 |
|      36 | 0xFFFB6318  |  4294664984 |
|      37 | 0xFFFFC08C  |  4294951052 |
|      38 | 0xFFFF4170  |  4294918512 |
|      39 | 0xFFFB6E4A  |  4294667850 |
|      40 | 0xFFFFA86E  |  4294944878 |
|      41 | 0xFFFF4027  |  4294918183 |
|      42 | 0xFFFB744D  |  4294669389 |
|      43 | 0xFFFF357B  |  4294915451 |
|      44 | 0x0046      |          70 |
|      45 | 0xFFFBA62A  |  4294682154 |
|      46 | 0xFFFFCC86  |  4294954118 |
|      47 | 0x0000      |           0 |
|      48 | 0x0080      |         128 |

## Events

### Event 65535

#### Metadata

| Field        | Value   |
|--------------|---------|
| Entrypoint   | 0x0000  |
| Data Size    | 1 bytes |
| Instructions | 1       |

```
      00 01 02 03 04 05 06 07  08 09 0A 0B 0C 0D 0E 0F
      -- -- -- -- -- -- -- --  -- -- -- -- -- -- -- --
0000: 00                                                .               
```

#### Opcodes

```
  0: 0x0000 [0x00] END_REQSTACK()
```

### Event 105

#### Metadata

| Field        | Value   |
|--------------|---------|
| Entrypoint   | 0x0001  |
| Data Size    | 1 bytes |
| Instructions | 1       |

```
      00 01 02 03 04 05 06 07  08 09 0A 0B 0C 0D 0E 0F
      -- -- -- -- -- -- -- --  -- -- -- -- -- -- -- --
0000:    00                                              .              
```

#### Opcodes

```
  0: 0x0001 [0x00] END_REQSTACK()
```

### Event 65535.1

#### Metadata

| Field        | Value    |
|--------------|----------|
| Entrypoint   | 0x0002   |
| Data Size    | 16 bytes |
| Instructions | 2        |

```
      00 01 02 03 04 05 06 07  08 09 0A 0B 0C 0D 0E 0F
      -- -- -- -- -- -- -- --  -- -- -- -- -- -- -- --
0000:       5B 00 80 F8 FF FF  7F F8 FF FF 7F 6B 61 61    [..........kaa
0010: 30 00                                             0.              
```

#### Opcodes

```
  0: 0x0002 [0x5B] LOAD_EXT_SCHEDULER: Load scheduler "kaa0" with entities [EventEntity, EventEntity], work=181*
  1: 0x0011 [0x00] END_REQSTACK()
```

### Event 65535.2

#### Metadata

| Field        | Value    |
|--------------|----------|
| Entrypoint   | 0x0012   |
| Data Size    | 86 bytes |
| Instructions | 18       |

```
      00 01 02 03 04 05 06 07  08 09 0A 0B 0C 0D 0E 0F
      -- -- -- -- -- -- -- --  -- -- -- -- -- -- -- --
0010:       32 01 80 1F 00 02  80 03 80 04 80 1F 01 1F    2.............
0020: 00 05 80 06 80 04 80 1F  01 1F 00 07 80 08 80 04  ................
0030: 80 1F 01 1F 00 09 80 0A  80 0B 80 1F 01 1C 0C 80  ................
0040: BA F8 FF FF 7F 0D 80 0E  80 0F 80 10 80 32 11 80  .............2..
0050: 1C 0C 80 1F 00 12 80 13  80 0B 80 1F 01 1F 00 14  ................
0060: 80 15 80 0B 80 1F 01 00                           ........        
```

#### Opcodes

```
  0: 0x0012 [0x32] ExtData[1]->MainSpeed = 39* * 0.1
  1: 0x0015 [0x1F] MOVE_ENTITY: EventEntity moves to X=-45.755*, Z=85.267*, Y=-4.999*
  2: 0x001D [0x1F] MOVE_ENTITY: Update entity position (mode=1)
  3: 0x001F [0x1F] MOVE_ENTITY: EventEntity moves to X=-42.742*, Z=85.973*, Y=-4.999*
  4: 0x0027 [0x1F] MOVE_ENTITY: Update entity position (mode=1)
  5: 0x0029 [0x1F] MOVE_ENTITY: EventEntity moves to X=-40.109*, Z=89.521*, Y=-4.999*
  6: 0x0031 [0x1F] MOVE_ENTITY: Update entity position (mode=1)
  7: 0x0033 [0x1F] MOVE_ENTITY: EventEntity moves to X=-40.086*, Z=93.559*, Y=-5.000*
  8: 0x003B [0x1F] MOVE_ENTITY: Update entity position (mode=1)
  9: 0x003D [0x1C] WAIT(1* ticks)
 10: 0x0040 [0xBA] SET_ENTITY_POSITION(entity_id=EventEntity, pos_x=-33.306*, pos_z=78.008*, pos_y=-3.572*, direction=228.5°*)
 11: 0x004D [0x32] ExtData[1]->MainSpeed = 40* * 0.1
 12: 0x0050 [0x1C] WAIT(1* ticks)
 13: 0x0053 [0x1F] MOVE_ENTITY: EventEntity moves to X=-38.358*, Z=88.331*, Y=-5.000*
 14: 0x005B [0x1F] MOVE_ENTITY: Update entity position (mode=1)
 15: 0x005D [0x1F] MOVE_ENTITY: EventEntity moves to X=-40.043*, Z=114.565*, Y=-5.000*
 16: 0x0065 [0x1F] MOVE_ENTITY: Update entity position (mode=1)
 17: 0x0067 [0x00] END_REQSTACK()
```

### Event 65535.3

#### Metadata

| Field        | Value    |
|--------------|----------|
| Entrypoint   | 0x0068   |
| Data Size    | 50 bytes |
| Instructions | 10       |

```
      00 01 02 03 04 05 06 07  08 09 0A 0B 0C 0D 0E 0F
      -- -- -- -- -- -- -- --  -- -- -- -- -- -- -- --
0060:                          32 01 80 1F 00 16 80 17          2.......
0070: 80 18 80 1F 01 1F 00 19  80 1A 80 0B 80 1F 01 6F  ...............o
0080: 4B F8 FF FF 7F 1B 80 1C  1C 80 5B 00 80 F8 FF FF  K.........[.....
0090: 7F F8 FF FF 7F 6B 61 61  30 00                    .....kaa0.      
```

#### Opcodes

```
  0: 0x0068 [0x32] ExtData[1]->MainSpeed = 39* * 0.1
  1: 0x006B [0x1F] MOVE_ENTITY: EventEntity moves to X=-41.280*, Z=210.801*, Y=-5.251*
  2: 0x0073 [0x1F] MOVE_ENTITY: Update entity position (mode=1)
  3: 0x0075 [0x1F] MOVE_ENTITY: EventEntity moves to X=-43.336*, Z=215.943*, Y=-5.000*
  4: 0x007D [0x1F] MOVE_ENTITY: Update entity position (mode=1)
  5: 0x007F [0x6F] WAIT_FRAME_DELAY: Yield until WaitTime reaches zero
  6: 0x0080 [0x4B] UPDATE_ENTITY_YAW(entity=EventEntity, yaw=16.5°*)
  7: 0x0087 [0x1C] WAIT(15* ticks)
  8: 0x008A [0x5B] LOAD_EXT_SCHEDULER: Load scheduler "kaa0" with entities [EventEntity, EventEntity], work=181*
  9: 0x0099 [0x00] END_REQSTACK()
```

### Event 110

#### Metadata

| Field        | Value   |
|--------------|---------|
| Entrypoint   | 0x009A  |
| Data Size    | 1 bytes |
| Instructions | 1       |

```
      00 01 02 03 04 05 06 07  08 09 0A 0B 0C 0D 0E 0F
      -- -- -- -- -- -- -- --  -- -- -- -- -- -- -- --
0090:                                00                           .     
```

#### Opcodes

```
  0: 0x009A [0x00] END_REQSTACK()
```

### Event 65535.4

#### Metadata

| Field        | Value   |
|--------------|---------|
| Entrypoint   | 0x009B  |
| Data Size    | 5 bytes |
| Instructions | 2       |

```
      00 01 02 03 04 05 06 07  08 09 0A 0B 0C 0D 0E 0F
      -- -- -- -- -- -- -- --  -- -- -- -- -- -- -- --
0090:                                   B6 00 1D 80 00             .....
```

#### Opcodes

```
  0: 0x009B [0xB6] ENTITY_APPEARANCE_HANDLER(case=Hair style, value=264*)
  1: 0x009F [0x00] END_REQSTACK()
```

### Event 65535.5

#### Metadata

| Field        | Value   |
|--------------|---------|
| Entrypoint   | 0x00A0  |
| Data Size    | 5 bytes |
| Instructions | 2       |

```
      00 01 02 03 04 05 06 07  08 09 0A 0B 0C 0D 0E 0F
      -- -- -- -- -- -- -- --  -- -- -- -- -- -- -- --
00A0: B6 00 1E 80 00                                    .....           
```

#### Opcodes

```
  0: 0x00A0 [0xB6] ENTITY_APPEARANCE_HANDLER(case=Hair style, value=840*)
  1: 0x00A4 [0x00] END_REQSTACK()
```

### Event 65535.6

#### Metadata

| Field        | Value    |
|--------------|----------|
| Entrypoint   | 0x00A5   |
| Data Size    | 56 bytes |
| Instructions | 12       |

```
      00 01 02 03 04 05 06 07  08 09 0A 0B 0C 0D 0E 0F
      -- -- -- -- -- -- -- --  -- -- -- -- -- -- -- --
00A0:                1C 1F 80  6B 69 64 6C 30 F8 FF FF       ...kidl0...
00B0: 7F 32 20 80 1F 00 21 80  22 80 23 80 1F 01 1F 00  .2 ...!.".#.....
00C0: 24 80 25 80 26 80 1F 01  1F 00 27 80 28 80 29 80  $.%.&.....'.(.).
00D0: 1F 01 1F 00 2A 80 2B 80  23 80 1F 01 00           ....*.+.#....   
```

#### Opcodes

```
  0: 0x00A5 [0x1C] WAIT(250* ticks)
  1: 0x00A8 [0x6B] STOP_AND_IDLE: EventEntity stops current action and resets to idle (animation="idl0")
  2: 0x00B1 [0x32] ExtData[1]->MainSpeed = 42* * 0.1
  3: 0x00B4 [0x1F] MOVE_ENTITY: EventEntity moves to X=-310.651*, Z=-13.593*, Y=-48.000*
  4: 0x00BC [0x1F] MOVE_ENTITY: Update entity position (mode=1)
  5: 0x00BE [0x1F] MOVE_ENTITY: EventEntity moves to X=-302.312*, Z=-16.244*, Y=-48.784*
  6: 0x00C6 [0x1F] MOVE_ENTITY: Update entity position (mode=1)
  7: 0x00C8 [0x1F] MOVE_ENTITY: EventEntity moves to X=-299.446*, Z=-22.418*, Y=-49.113*
  8: 0x00D0 [0x1F] MOVE_ENTITY: Update entity position (mode=1)
  9: 0x00D2 [0x1F] MOVE_ENTITY: EventEntity moves to X=-297.907*, Z=-51.845*, Y=-48.000*
 10: 0x00DA [0x1F] MOVE_ENTITY: Update entity position (mode=1)
 11: 0x00DC [0x00] END_REQSTACK()
```

### Event 65535.7

#### Metadata

| Field        | Value    |
|--------------|----------|
| Entrypoint   | 0x00DD   |
| Data Size    | 27 bytes |
| Instructions | 7        |

```
      00 01 02 03 04 05 06 07  08 09 0A 0B 0C 0D 0E 0F
      -- -- -- -- -- -- -- --  -- -- -- -- -- -- -- --
00D0:                                         1C 1C 80               ...
00E0: 32 2C 80 1F 00 21 80 22  80 23 80 1F 01 1F 00 2D  2,...!.".#.....-
00F0: 80 2E 80 23 80 1F 01 00                           ...#....        
```

#### Opcodes

```
  0: 0x00DD [0x1C] WAIT(15* ticks)
  1: 0x00E0 [0x32] ExtData[1]->MainSpeed = 70* * 0.1
  2: 0x00E3 [0x1F] MOVE_ENTITY: EventEntity moves to X=-310.651*, Z=-13.593*, Y=-48.000*
  3: 0x00EB [0x1F] MOVE_ENTITY: Update entity position (mode=1)
  4: 0x00ED [0x1F] MOVE_ENTITY: EventEntity moves to X=-285.142*, Z=-13.178*, Y=-48.000*
  5: 0x00F5 [0x1F] MOVE_ENTITY: Update entity position (mode=1)
  6: 0x00F7 [0x00] END_REQSTACK()
```

### Event 65535.8

#### Metadata

| Field        | Value    |
|--------------|----------|
| Entrypoint   | 0x00F8   |
| Data Size    | 10 bytes |
| Instructions | 2        |

```
      00 01 02 03 04 05 06 07  08 09 0A 0B 0C 0D 0E 0F
      -- -- -- -- -- -- -- --  -- -- -- -- -- -- -- --
00F0:                          6C F8 FF FF 7F 2F 80 0C          l..../..
0100: 80 00                                             ..              
```

#### Opcodes

```
  0: 0x00F8 [0x6C] FADE_ENTITY_COLOR(entity_id=EventEntity, end_alpha=0*, fade_time=1*)
  1: 0x0101 [0x00] END_REQSTACK()
```

### Event 65535.9

#### Metadata

| Field        | Value    |
|--------------|----------|
| Entrypoint   | 0x0102   |
| Data Size    | 10 bytes |
| Instructions | 2        |

```
      00 01 02 03 04 05 06 07  08 09 0A 0B 0C 0D 0E 0F
      -- -- -- -- -- -- -- --  -- -- -- -- -- -- -- --
0100:       6C F8 FF FF 7F 30  80 0C 80 00                l....0....    
```

#### Opcodes

```
  0: 0x0102 [0x6C] FADE_ENTITY_COLOR(entity_id=EventEntity, end_alpha=128*, fade_time=1*)
  1: 0x010B [0x00] END_REQSTACK()
```

### Event 65535.10

#### Metadata

| Field        | Value   |
|--------------|---------|
| Entrypoint   | 0x010C  |
| Data Size    | 1 bytes |
| Instructions | 1       |

```
      00 01 02 03 04 05 06 07  08 09 0A 0B 0C 0D 0E 0F
      -- -- -- -- -- -- -- --  -- -- -- -- -- -- -- --
0100:                                      00                       .   
```

#### Opcodes

```
  0: 0x010C [0x00] END_REQSTACK()
```

### Event 65535.11

#### Metadata

| Field        | Value    |
|--------------|----------|
| Entrypoint   | 0x010D   |
| Data Size    | 18 bytes |
| Instructions | 4        |

```
      00 01 02 03 04 05 06 07  08 09 0A 0B 0C 0D 0E 0F
      -- -- -- -- -- -- -- --  -- -- -- -- -- -- -- --
0100:                                         22 00 2F               "./
0110: 00 F8 FF FF 7F 6C F8 FF  FF 7F 2F 80 0C 80 00     .....l..../.... 
```

#### Opcodes

```
  0: 0x010D [0x22] ENTITY_HIDE_FLAG(enabled=0x00)
  1: 0x010F [0x2F] EventEntity->Render.Flags0 &= ~0x80000 // Bit 19
  2: 0x0115 [0x6C] FADE_ENTITY_COLOR(entity_id=EventEntity, end_alpha=0*, fade_time=1*)
  3: 0x011E [0x00] END_REQSTACK()
```

### Event 65535.12

#### Metadata

| Field        | Value    |
|--------------|----------|
| Entrypoint   | 0x011F   |
| Data Size    | 10 bytes |
| Instructions | 2        |

```
      00 01 02 03 04 05 06 07  08 09 0A 0B 0C 0D 0E 0F
      -- -- -- -- -- -- -- --  -- -- -- -- -- -- -- --
0110:                                               6C                 l
0120: F8 FF FF 7F 30 80 0C 80  00                       ....0....       
```

#### Opcodes

```
  0: 0x011F [0x6C] FADE_ENTITY_COLOR(entity_id=EventEntity, end_alpha=128*, fade_time=1*)
  1: 0x0128 [0x00] END_REQSTACK()
```

### Event 65535.13

#### Metadata

| Field        | Value   |
|--------------|---------|
| Entrypoint   | 0x0129  |
| Data Size    | 9 bytes |
| Instructions | 3       |

```
      00 01 02 03 04 05 06 07  08 09 0A 0B 0C 0D 0E 0F
      -- -- -- -- -- -- -- --  -- -- -- -- -- -- -- --
0120:                             22 00 2F 00 F8 FF FF           "./....
0130: 7F 00                                             ..              
```

#### Opcodes

```
  0: 0x0129 [0x22] ENTITY_HIDE_FLAG(enabled=0x00)
  1: 0x012B [0x2F] EventEntity->Render.Flags0 &= ~0x80000 // Bit 19
  2: 0x0131 [0x00] END_REQSTACK()
```

### Event 65535.14

#### Metadata

| Field        | Value   |
|--------------|---------|
| Entrypoint   | 0x0132  |
| Data Size    | 9 bytes |
| Instructions | 3       |

```
      00 01 02 03 04 05 06 07  08 09 0A 0B 0C 0D 0E 0F
      -- -- -- -- -- -- -- --  -- -- -- -- -- -- -- --
0130:       22 01 2F 01 F8 FF  FF 7F 00                   "./......     
```

#### Opcodes

```
  0: 0x0132 [0x22] ENTITY_HIDE_FLAG(enabled=0x01)
  1: 0x0134 [0x2F] EventEntity->Render.Flags0 |= 0x80000 // Bit 19
  2: 0x013A [0x00] END_REQSTACK()
```

### Event 65535.15

#### Metadata

| Field        | Value    |
|--------------|----------|
| Entrypoint   | 0x013B   |
| Data Size    | 10 bytes |
| Instructions | 2        |

```
      00 01 02 03 04 05 06 07  08 09 0A 0B 0C 0D 0E 0F
      -- -- -- -- -- -- -- --  -- -- -- -- -- -- -- --
0130:                                   6C F8 FF FF 7F             l....
0140: 2F 80 0C 80 00                                    /....           
```

#### Opcodes

```
  0: 0x013B [0x6C] FADE_ENTITY_COLOR(entity_id=EventEntity, end_alpha=0*, fade_time=1*)
  1: 0x0144 [0x00] END_REQSTACK()
```

### Event 65535.16

#### Metadata

| Field        | Value    |
|--------------|----------|
| Entrypoint   | 0x0145   |
| Data Size    | 10 bytes |
| Instructions | 2        |

```
      00 01 02 03 04 05 06 07  08 09 0A 0B 0C 0D 0E 0F
      -- -- -- -- -- -- -- --  -- -- -- -- -- -- -- --
0140:                6C F8 FF  FF 7F 30 80 0C 80 00          l....0.... 
```

#### Opcodes

```
  0: 0x0145 [0x6C] FADE_ENTITY_COLOR(entity_id=EventEntity, end_alpha=128*, fade_time=1*)
  1: 0x014E [0x00] END_REQSTACK()
```
