# 17167189 - Lilisette

## Common Data

| Field            | Value                          |
|------------------|--------------------------------|
| Zone             | West Sarutabaruta [S] (ID: 95) |
| Block Size       | 616 bytes                      |
| Total Events     | 22                             |
| References Count | 47                             |

## List of Events

| Event ID                   | Entrypoint   |   Size |   Instructions |
|----------------------------|--------------|--------|----------------|
| [65535](#event-65535)      | 0x0000       |      1 |              1 |
| [114](#event-114)          | 0x0001       |      1 |              1 |
| [115](#event-115)          | 0x0002       |      1 |              1 |
| [116](#event-116)          | 0x0003       |      1 |              1 |
| [65535.1](#event-655351)   | 0x0004       |     31 |              9 |
| [65535.2](#event-655352)   | 0x0023       |     15 |              5 |
| [65535.3](#event-655353)   | 0x0032       |     24 |              6 |
| [65535.4](#event-655354)   | 0x004A       |     10 |              2 |
| [65535.5](#event-655355)   | 0x0054       |     10 |              2 |
| [65535.6](#event-655356)   | 0x005E       |     31 |              9 |
| [65535.7](#event-655357)   | 0x007D       |     15 |              5 |
| [65535.8](#event-655358)   | 0x008C       |     34 |              8 |
| [65535.9](#event-655359)   | 0x00AE       |     31 |              9 |
| [65535.10](#event-6553510) | 0x00CD       |     15 |              5 |
| [65535.11](#event-6553511) | 0x00DC       |     34 |              8 |
| [65535.12](#event-6553512) | 0x00FE       |      1 |              1 |
| [65535.13](#event-6553513) | 0x00FF       |     18 |              4 |
| [65535.14](#event-6553514) | 0x0111       |     10 |              2 |
| [65535.15](#event-6553515) | 0x011B       |      9 |              3 |
| [65535.16](#event-6553516) | 0x0124       |      9 |              3 |
| [65535.17](#event-6553517) | 0x012D       |     10 |              2 |
| [65535.18](#event-6553518) | 0x0137       |     10 |              2 |

## DAT References (imed_data)

|   Index | Hex Value   |   Dec Value |
|---------|-------------|-------------|
|       0 | 0x000B      |          11 |
|       1 | 0xFFFC501A  |  4294725658 |
|       2 | 0xA018B     |      655755 |
|       3 | 0xFFFFBDA6  |  4294950310 |
|       4 | 0xFFFC4B5B  |  4294724443 |
|       5 | 0xA1173     |      659827 |
|       6 | 0xFFFFBC9E  |  4294950046 |
|       7 | 0x0028      |          40 |
|       8 | 0xFFFC65E9  |  4294731241 |
|       9 | 0x9ED2F     |      650543 |
|      10 | 0xFFFFBFE6  |  4294950886 |
|      11 | 0xFFFCB5B2  |  4294751666 |
|      12 | 0x9D011     |      643089 |
|      13 | 0xFFFFB788  |  4294948744 |
|      14 | 0x0000      |           0 |
|      15 | 0x0001      |           1 |
|      16 | 0x0080      |         128 |
|      17 | 0x419AE     |      268718 |
|      18 | 0x851A      |       34074 |
|      19 | 0xFFFFEC60  |  4294962272 |
|      20 | 0x40FFC     |      266236 |
|      21 | 0x9CF5      |       40181 |
|      22 | 0xFFFFEAA3  |  4294961827 |
|      23 | 0x41968     |      268648 |
|      24 | 0xA431      |       42033 |
|      25 | 0xFFFFEC07  |  4294962183 |
|      26 | 0x43861     |      276577 |
|      27 | 0xB17D      |       45437 |
|      28 | 0xFFFFF005  |  4294963205 |
|      29 | 0x45950     |      285008 |
|      30 | 0xBFF7      |       49143 |
|      31 | 0xFFFFEE99  |  4294962841 |
|      32 | 0xFFFADFAF  |  4294631343 |
|      33 | 0xFFFA808B  |  4294606987 |
|      34 | 0x0BB9      |        3001 |
|      35 | 0xFFFACE92  |  4294626962 |
|      36 | 0xFFFA78D7  |  4294605015 |
|      37 | 0x0ABE      |        2750 |
|      38 | 0xFFFAE962  |  4294633826 |
|      39 | 0xFFFA887B  |  4294609019 |
|      40 | 0x0CED      |        3309 |
|      41 | 0xFFFB1475  |  4294644853 |
|      42 | 0xFFFAB76D  |  4294621037 |
|      43 | 0x08E4      |        2276 |
|      44 | 0xFFFB2257  |  4294648407 |
|      45 | 0xFFFAD2F4  |  4294628084 |
|      46 | 0x0767      |        1895 |

## Events

### Event 65535

#### Metadata

| Field        | Value   |
|--------------|---------|
| Entrypoint   | 0x0000  |
| Data Size    | 1 bytes |
| Instructions | 1       |

```
      00 01 02 03 04 05 06 07  08 09 0A 0B 0C 0D 0E 0F
      -- -- -- -- -- -- -- --  -- -- -- -- -- -- -- --
0000: 00                                                .               
```

#### Opcodes

```
  0: 0x0000 [0x00] END_REQSTACK()
```

### Event 114

#### Metadata

| Field        | Value   |
|--------------|---------|
| Entrypoint   | 0x0001  |
| Data Size    | 1 bytes |
| Instructions | 1       |

```
      00 01 02 03 04 05 06 07  08 09 0A 0B 0C 0D 0E 0F
      -- -- -- -- -- -- -- --  -- -- -- -- -- -- -- --
0000:    00                                              .              
```

#### Opcodes

```
  0: 0x0001 [0x00] END_REQSTACK()
```

### Event 115

#### Metadata

| Field        | Value   |
|--------------|---------|
| Entrypoint   | 0x0002  |
| Data Size    | 1 bytes |
| Instructions | 1       |

```
      00 01 02 03 04 05 06 07  08 09 0A 0B 0C 0D 0E 0F
      -- -- -- -- -- -- -- --  -- -- -- -- -- -- -- --
0000:       00                                            .             
```

#### Opcodes

```
  0: 0x0002 [0x00] END_REQSTACK()
```

### Event 116

#### Metadata

| Field        | Value   |
|--------------|---------|
| Entrypoint   | 0x0003  |
| Data Size    | 1 bytes |
| Instructions | 1       |

```
      00 01 02 03 04 05 06 07  08 09 0A 0B 0C 0D 0E 0F
      -- -- -- -- -- -- -- --  -- -- -- -- -- -- -- --
0000:          00                                          .            
```

#### Opcodes

```
  0: 0x0003 [0x00] END_REQSTACK()
```

### Event 65535.1

#### Metadata

| Field        | Value    |
|--------------|----------|
| Entrypoint   | 0x0004   |
| Data Size    | 31 bytes |
| Instructions | 9        |

```
      00 01 02 03 04 05 06 07  08 09 0A 0B 0C 0D 0E 0F
      -- -- -- -- -- -- -- --  -- -- -- -- -- -- -- --
0000:             32 00 80 1F  00 01 80 02 80 03 80 1F      2...........
0010: 01 6F 1E 83 F3 05 01 7B  F8 FF FF 7F 6F 76 F8 FF  .o.....{....ov..
0020: FF 7F 00                                          ...             
```

#### Opcodes

```
  0: 0x0004 [0x32] ExtData[1]->MainSpeed = 11* * 0.1
  1: 0x0007 [0x1F] MOVE_ENTITY: EventEntity moves to X=-241.638*, Z=655.755*, Y=-16.986*
  2: 0x000F [0x1F] MOVE_ENTITY: Update entity position (mode=1)
  3: 0x0011 [0x6F] WAIT_FRAME_DELAY: Yield until WaitTime reaches zero
  4: 0x0012 [0x1E] EventEntity looks at Unnamed NPC (ID: 17167235/0x0105F383) and starts talking
  5: 0x0017 [0x7B] EventEntity stops talking
  6: 0x001C [0x6F] WAIT_FRAME_DELAY: Yield until WaitTime reaches zero
  7: 0x001D [0x76] CHECK_ENTITY_RENDER_FLAGS: Wait until EventEntity Render.Flags0 and Render.Flags3 conditions are met
  8: 0x0022 [0x00] END_REQSTACK()
```

### Event 65535.2

#### Metadata

| Field        | Value    |
|--------------|----------|
| Entrypoint   | 0x0023   |
| Data Size    | 15 bytes |
| Instructions | 5        |

```
      00 01 02 03 04 05 06 07  08 09 0A 0B 0C 0D 0E 0F
      -- -- -- -- -- -- -- --  -- -- -- -- -- -- -- --
0020:          32 00 80 1F 00  04 80 05 80 06 80 1F 01     2............
0030: 6F 00                                             o.              
```

#### Opcodes

```
  0: 0x0023 [0x32] ExtData[1]->MainSpeed = 11* * 0.1
  1: 0x0026 [0x1F] MOVE_ENTITY: EventEntity moves to X=-242.853*, Z=659.827*, Y=-17.250*
  2: 0x002E [0x1F] MOVE_ENTITY: Update entity position (mode=1)
  3: 0x0030 [0x6F] WAIT_FRAME_DELAY: Yield until WaitTime reaches zero
  4: 0x0031 [0x00] END_REQSTACK()
```

### Event 65535.3

#### Metadata

| Field        | Value    |
|--------------|----------|
| Entrypoint   | 0x0032   |
| Data Size    | 24 bytes |
| Instructions | 6        |

```
      00 01 02 03 04 05 06 07  08 09 0A 0B 0C 0D 0E 0F
      -- -- -- -- -- -- -- --  -- -- -- -- -- -- -- --
0030:       32 07 80 1F 00 08  80 09 80 0A 80 1F 01 1F    2.............
0040: 00 0B 80 0C 80 0D 80 1F  01 00                    ..........      
```

#### Opcodes

```
  0: 0x0032 [0x32] ExtData[1]->MainSpeed = 40* * 0.1
  1: 0x0035 [0x1F] MOVE_ENTITY: EventEntity moves to X=-236.055*, Z=650.543*, Y=-16.410*
  2: 0x003D [0x1F] MOVE_ENTITY: Update entity position (mode=1)
  3: 0x003F [0x1F] MOVE_ENTITY: EventEntity moves to X=-215.630*, Z=643.089*, Y=-18.552*
  4: 0x0047 [0x1F] MOVE_ENTITY: Update entity position (mode=1)
  5: 0x0049 [0x00] END_REQSTACK()
```

### Event 65535.4

#### Metadata

| Field        | Value    |
|--------------|----------|
| Entrypoint   | 0x004A   |
| Data Size    | 10 bytes |
| Instructions | 2        |

```
      00 01 02 03 04 05 06 07  08 09 0A 0B 0C 0D 0E 0F
      -- -- -- -- -- -- -- --  -- -- -- -- -- -- -- --
0040:                                6C F8 FF FF 7F 0E            l.....
0050: 80 0F 80 00                                       ....            
```

#### Opcodes

```
  0: 0x004A [0x6C] FADE_ENTITY_COLOR(entity_id=EventEntity, end_alpha=0*, fade_time=1*)
  1: 0x0053 [0x00] END_REQSTACK()
```

### Event 65535.5

#### Metadata

| Field        | Value    |
|--------------|----------|
| Entrypoint   | 0x0054   |
| Data Size    | 10 bytes |
| Instructions | 2        |

```
      00 01 02 03 04 05 06 07  08 09 0A 0B 0C 0D 0E 0F
      -- -- -- -- -- -- -- --  -- -- -- -- -- -- -- --
0050:             6C F8 FF FF  7F 10 80 0F 80 00            l.........  
```

#### Opcodes

```
  0: 0x0054 [0x6C] FADE_ENTITY_COLOR(entity_id=EventEntity, end_alpha=128*, fade_time=1*)
  1: 0x005D [0x00] END_REQSTACK()
```

### Event 65535.6

#### Metadata

| Field        | Value    |
|--------------|----------|
| Entrypoint   | 0x005E   |
| Data Size    | 31 bytes |
| Instructions | 9        |

```
      00 01 02 03 04 05 06 07  08 09 0A 0B 0C 0D 0E 0F
      -- -- -- -- -- -- -- --  -- -- -- -- -- -- -- --
0050:                                            32 00                2.
0060: 80 1F 00 11 80 12 80 13  80 1F 01 6F 1E 83 F3 05  ...........o....
0070: 01 7B F8 FF FF 7F 6F 76  F8 FF FF 7F 00           .{....ov.....   
```

#### Opcodes

```
  0: 0x005E [0x32] ExtData[1]->MainSpeed = 11* * 0.1
  1: 0x0061 [0x1F] MOVE_ENTITY: EventEntity moves to X=268.718*, Z=34.074*, Y=-5.024*
  2: 0x0069 [0x1F] MOVE_ENTITY: Update entity position (mode=1)
  3: 0x006B [0x6F] WAIT_FRAME_DELAY: Yield until WaitTime reaches zero
  4: 0x006C [0x1E] EventEntity looks at Unnamed NPC (ID: 17167235/0x0105F383) and starts talking
  5: 0x0071 [0x7B] EventEntity stops talking
  6: 0x0076 [0x6F] WAIT_FRAME_DELAY: Yield until WaitTime reaches zero
  7: 0x0077 [0x76] CHECK_ENTITY_RENDER_FLAGS: Wait until EventEntity Render.Flags0 and Render.Flags3 conditions are met
  8: 0x007C [0x00] END_REQSTACK()
```

### Event 65535.7

#### Metadata

| Field        | Value    |
|--------------|----------|
| Entrypoint   | 0x007D   |
| Data Size    | 15 bytes |
| Instructions | 5        |

```
      00 01 02 03 04 05 06 07  08 09 0A 0B 0C 0D 0E 0F
      -- -- -- -- -- -- -- --  -- -- -- -- -- -- -- --
0070:                                         32 00 80               2..
0080: 1F 00 14 80 15 80 16 80  1F 01 6F 00              ..........o.    
```

#### Opcodes

```
  0: 0x007D [0x32] ExtData[1]->MainSpeed = 11* * 0.1
  1: 0x0080 [0x1F] MOVE_ENTITY: EventEntity moves to X=266.236*, Z=40.181*, Y=-5.469*
  2: 0x0088 [0x1F] MOVE_ENTITY: Update entity position (mode=1)
  3: 0x008A [0x6F] WAIT_FRAME_DELAY: Yield until WaitTime reaches zero
  4: 0x008B [0x00] END_REQSTACK()
```

### Event 65535.8

#### Metadata

| Field        | Value    |
|--------------|----------|
| Entrypoint   | 0x008C   |
| Data Size    | 34 bytes |
| Instructions | 8        |

```
      00 01 02 03 04 05 06 07  08 09 0A 0B 0C 0D 0E 0F
      -- -- -- -- -- -- -- --  -- -- -- -- -- -- -- --
0080:                                      32 07 80 1F              2...
0090: 00 17 80 18 80 19 80 1F  01 1F 00 1A 80 1B 80 1C  ................
00A0: 80 1F 01 1F 00 1D 80 1E  80 1F 80 1F 01 00        ..............  
```

#### Opcodes

```
  0: 0x008C [0x32] ExtData[1]->MainSpeed = 40* * 0.1
  1: 0x008F [0x1F] MOVE_ENTITY: EventEntity moves to X=268.648*, Z=42.033*, Y=-5.113*
  2: 0x0097 [0x1F] MOVE_ENTITY: Update entity position (mode=1)
  3: 0x0099 [0x1F] MOVE_ENTITY: EventEntity moves to X=276.577*, Z=45.437*, Y=-4.091*
  4: 0x00A1 [0x1F] MOVE_ENTITY: Update entity position (mode=1)
  5: 0x00A3 [0x1F] MOVE_ENTITY: EventEntity moves to X=285.008*, Z=49.143*, Y=-4.455*
  6: 0x00AB [0x1F] MOVE_ENTITY: Update entity position (mode=1)
  7: 0x00AD [0x00] END_REQSTACK()
```

### Event 65535.9

#### Metadata

| Field        | Value    |
|--------------|----------|
| Entrypoint   | 0x00AE   |
| Data Size    | 31 bytes |
| Instructions | 9        |

```
      00 01 02 03 04 05 06 07  08 09 0A 0B 0C 0D 0E 0F
      -- -- -- -- -- -- -- --  -- -- -- -- -- -- -- --
00A0:                                            32 00                2.
00B0: 80 1F 00 20 80 21 80 22  80 1F 01 6F 1E 83 F3 05  ... .!."...o....
00C0: 01 7B F8 FF FF 7F 6F 76  F8 FF FF 7F 00           .{....ov.....   
```

#### Opcodes

```
  0: 0x00AE [0x32] ExtData[1]->MainSpeed = 11* * 0.1
  1: 0x00B1 [0x1F] MOVE_ENTITY: EventEntity moves to X=-335.953*, Z=-360.309*, Y=3.001*
  2: 0x00B9 [0x1F] MOVE_ENTITY: Update entity position (mode=1)
  3: 0x00BB [0x6F] WAIT_FRAME_DELAY: Yield until WaitTime reaches zero
  4: 0x00BC [0x1E] EventEntity looks at Unnamed NPC (ID: 17167235/0x0105F383) and starts talking
  5: 0x00C1 [0x7B] EventEntity stops talking
  6: 0x00C6 [0x6F] WAIT_FRAME_DELAY: Yield until WaitTime reaches zero
  7: 0x00C7 [0x76] CHECK_ENTITY_RENDER_FLAGS: Wait until EventEntity Render.Flags0 and Render.Flags3 conditions are met
  8: 0x00CC [0x00] END_REQSTACK()
```

### Event 65535.10

#### Metadata

| Field        | Value    |
|--------------|----------|
| Entrypoint   | 0x00CD   |
| Data Size    | 15 bytes |
| Instructions | 5        |

```
      00 01 02 03 04 05 06 07  08 09 0A 0B 0C 0D 0E 0F
      -- -- -- -- -- -- -- --  -- -- -- -- -- -- -- --
00C0:                                         32 00 80               2..
00D0: 1F 00 23 80 24 80 25 80  1F 01 6F 00              ..#.$.%...o.    
```

#### Opcodes

```
  0: 0x00CD [0x32] ExtData[1]->MainSpeed = 11* * 0.1
  1: 0x00D0 [0x1F] MOVE_ENTITY: EventEntity moves to X=-340.334*, Z=-362.281*, Y=2.750*
  2: 0x00D8 [0x1F] MOVE_ENTITY: Update entity position (mode=1)
  3: 0x00DA [0x6F] WAIT_FRAME_DELAY: Yield until WaitTime reaches zero
  4: 0x00DB [0x00] END_REQSTACK()
```

### Event 65535.11

#### Metadata

| Field        | Value    |
|--------------|----------|
| Entrypoint   | 0x00DC   |
| Data Size    | 34 bytes |
| Instructions | 8        |

```
      00 01 02 03 04 05 06 07  08 09 0A 0B 0C 0D 0E 0F
      -- -- -- -- -- -- -- --  -- -- -- -- -- -- -- --
00D0:                                      32 07 80 1F              2...
00E0: 00 26 80 27 80 28 80 1F  01 1F 00 29 80 2A 80 2B  .&.'.(.....).*.+
00F0: 80 1F 01 1F 00 2C 80 2D  80 2E 80 1F 01 00        .....,.-......  
```

#### Opcodes

```
  0: 0x00DC [0x32] ExtData[1]->MainSpeed = 40* * 0.1
  1: 0x00DF [0x1F] MOVE_ENTITY: EventEntity moves to X=-333.470*, Z=-358.277*, Y=3.309*
  2: 0x00E7 [0x1F] MOVE_ENTITY: Update entity position (mode=1)
  3: 0x00E9 [0x1F] MOVE_ENTITY: EventEntity moves to X=-322.443*, Z=-346.259*, Y=2.276*
  4: 0x00F1 [0x1F] MOVE_ENTITY: Update entity position (mode=1)
  5: 0x00F3 [0x1F] MOVE_ENTITY: EventEntity moves to X=-318.889*, Z=-339.212*, Y=1.895*
  6: 0x00FB [0x1F] MOVE_ENTITY: Update entity position (mode=1)
  7: 0x00FD [0x00] END_REQSTACK()
```

### Event 65535.12

#### Metadata

| Field        | Value   |
|--------------|---------|
| Entrypoint   | 0x00FE  |
| Data Size    | 1 bytes |
| Instructions | 1       |

```
      00 01 02 03 04 05 06 07  08 09 0A 0B 0C 0D 0E 0F
      -- -- -- -- -- -- -- --  -- -- -- -- -- -- -- --
00F0:                                            00                   . 
```

#### Opcodes

```
  0: 0x00FE [0x00] END_REQSTACK()
```

### Event 65535.13

#### Metadata

| Field        | Value    |
|--------------|----------|
| Entrypoint   | 0x00FF   |
| Data Size    | 18 bytes |
| Instructions | 4        |

```
      00 01 02 03 04 05 06 07  08 09 0A 0B 0C 0D 0E 0F
      -- -- -- -- -- -- -- --  -- -- -- -- -- -- -- --
00F0:                                               22                 "
0100: 00 2F 00 F8 FF FF 7F 6C  F8 FF FF 7F 0E 80 0F 80  ./.....l........
0110: 00                                                .               
```

#### Opcodes

```
  0: 0x00FF [0x22] ENTITY_HIDE_FLAG(enabled=0x00)
  1: 0x0101 [0x2F] EventEntity->Render.Flags0 &= ~0x80000 // Bit 19
  2: 0x0107 [0x6C] FADE_ENTITY_COLOR(entity_id=EventEntity, end_alpha=0*, fade_time=1*)
  3: 0x0110 [0x00] END_REQSTACK()
```

### Event 65535.14

#### Metadata

| Field        | Value    |
|--------------|----------|
| Entrypoint   | 0x0111   |
| Data Size    | 10 bytes |
| Instructions | 2        |

```
      00 01 02 03 04 05 06 07  08 09 0A 0B 0C 0D 0E 0F
      -- -- -- -- -- -- -- --  -- -- -- -- -- -- -- --
0110:    6C F8 FF FF 7F 10 80  0F 80 00                  l.........     
```

#### Opcodes

```
  0: 0x0111 [0x6C] FADE_ENTITY_COLOR(entity_id=EventEntity, end_alpha=128*, fade_time=1*)
  1: 0x011A [0x00] END_REQSTACK()
```

### Event 65535.15

#### Metadata

| Field        | Value   |
|--------------|---------|
| Entrypoint   | 0x011B  |
| Data Size    | 9 bytes |
| Instructions | 3       |

```
      00 01 02 03 04 05 06 07  08 09 0A 0B 0C 0D 0E 0F
      -- -- -- -- -- -- -- --  -- -- -- -- -- -- -- --
0110:                                   22 00 2F 00 F8             "./..
0120: FF FF 7F 00                                       ....            
```

#### Opcodes

```
  0: 0x011B [0x22] ENTITY_HIDE_FLAG(enabled=0x00)
  1: 0x011D [0x2F] EventEntity->Render.Flags0 &= ~0x80000 // Bit 19
  2: 0x0123 [0x00] END_REQSTACK()
```

### Event 65535.16

#### Metadata

| Field        | Value   |
|--------------|---------|
| Entrypoint   | 0x0124  |
| Data Size    | 9 bytes |
| Instructions | 3       |

```
      00 01 02 03 04 05 06 07  08 09 0A 0B 0C 0D 0E 0F
      -- -- -- -- -- -- -- --  -- -- -- -- -- -- -- --
0120:             22 01 2F 01  F8 FF FF 7F 00               "./......   
```

#### Opcodes

```
  0: 0x0124 [0x22] ENTITY_HIDE_FLAG(enabled=0x01)
  1: 0x0126 [0x2F] EventEntity->Render.Flags0 |= 0x80000 // Bit 19
  2: 0x012C [0x00] END_REQSTACK()
```

### Event 65535.17

#### Metadata

| Field        | Value    |
|--------------|----------|
| Entrypoint   | 0x012D   |
| Data Size    | 10 bytes |
| Instructions | 2        |

```
      00 01 02 03 04 05 06 07  08 09 0A 0B 0C 0D 0E 0F
      -- -- -- -- -- -- -- --  -- -- -- -- -- -- -- --
0120:                                         6C F8 FF               l..
0130: FF 7F 0E 80 0F 80 00                              .......         
```

#### Opcodes

```
  0: 0x012D [0x6C] FADE_ENTITY_COLOR(entity_id=EventEntity, end_alpha=0*, fade_time=1*)
  1: 0x0136 [0x00] END_REQSTACK()
```

### Event 65535.18

#### Metadata

| Field        | Value    |
|--------------|----------|
| Entrypoint   | 0x0137   |
| Data Size    | 10 bytes |
| Instructions | 2        |

```
      00 01 02 03 04 05 06 07  08 09 0A 0B 0C 0D 0E 0F
      -- -- -- -- -- -- -- --  -- -- -- -- -- -- -- --
0130:                      6C  F8 FF FF 7F 10 80 0F 80         l........
0140: 00                                                .               
```

#### Opcodes

```
  0: 0x0137 [0x6C] FADE_ENTITY_COLOR(entity_id=EventEntity, end_alpha=128*, fade_time=1*)
  1: 0x0140 [0x00] END_REQSTACK()
```
