# 17167307 - ari02

## Common Data

| Field            | Value                          |
|------------------|--------------------------------|
| Zone             | West Sarutabaruta [S] (ID: 95) |
| Block Size       | 508 bytes                      |
| Total Events     | 20                             |
| References Count | 38                             |

## List of Events

| Event ID                   | Entrypoint   |   Size |   Instructions |
|----------------------------|--------------|--------|----------------|
| [65535](#event-65535)      | 0x0000       |      1 |              1 |
| [106](#event-106)          | 0x0001       |      1 |              1 |
| [110](#event-110)          | 0x0002       |      1 |              1 |
| [65535.1](#event-655351)   | 0x0003       |     56 |             12 |
| [65535.2](#event-655352)   | 0x003B       |     27 |              7 |
| [65535.3](#event-655353)   | 0x0056       |     14 |              4 |
| [65535.4](#event-655354)   | 0x0064       |     14 |              4 |
| [65535.5](#event-655355)   | 0x0072       |     14 |              4 |
| [65535.6](#event-655356)   | 0x0080       |     14 |              4 |
| [65535.7](#event-655357)   | 0x008E       |     14 |              4 |
| [65535.8](#event-655358)   | 0x009C       |     14 |              4 |
| [65535.9](#event-655359)   | 0x00AA       |     10 |              2 |
| [65535.10](#event-6553510) | 0x00B4       |     10 |              2 |
| [65535.11](#event-6553511) | 0x00BE       |      1 |              1 |
| [65535.12](#event-6553512) | 0x00BF       |     18 |              4 |
| [65535.13](#event-6553513) | 0x00D1       |     10 |              2 |
| [65535.14](#event-6553514) | 0x00DB       |      9 |              3 |
| [65535.15](#event-6553515) | 0x00E4       |      9 |              3 |
| [65535.16](#event-6553516) | 0x00ED       |     10 |              2 |
| [65535.17](#event-6553517) | 0x00F7       |     10 |              2 |

## DAT References (imed_data)

|   Index | Hex Value   |   Dec Value |
|---------|-------------|-------------|
|       0 | 0x00FA      |         250 |
|       1 | 0x002A      |          42 |
|       2 | 0xFFFB4285  |  4294656645 |
|       3 | 0xFFFFCAE7  |  4294953703 |
|       4 | 0xFFFF4480  |  4294919296 |
|       5 | 0xFFFB6318  |  4294664984 |
|       6 | 0xFFFFC08C  |  4294951052 |
|       7 | 0xFFFF4170  |  4294918512 |
|       8 | 0xFFFB6E4A  |  4294667850 |
|       9 | 0xFFFFA86E  |  4294944878 |
|      10 | 0xFFFF4027  |  4294918183 |
|      11 | 0xFFFB744D  |  4294669389 |
|      12 | 0xFFFF357B  |  4294915451 |
|      13 | 0x000F      |          15 |
|      14 | 0x0046      |          70 |
|      15 | 0xFFFBA62A  |  4294682154 |
|      16 | 0xFFFFCC86  |  4294954118 |
|      17 | 0x000C      |          12 |
|      18 | 0x37C6C     |      228460 |
|      19 | 0x22DBE     |      142782 |
|      20 | 0xFFFFB6CA  |  4294948554 |
|      21 | 0x3C0E9     |      245993 |
|      22 | 0x24201     |      147969 |
|      23 | 0xFFFFBAB2  |  4294949554 |
|      24 | 0x3C111     |      246033 |
|      25 | 0x2561C     |      153116 |
|      26 | 0xFFFFB346  |  4294947654 |
|      27 | 0x3EA59     |      256601 |
|      28 | 0x252AE     |      152238 |
|      29 | 0x3D85A     |      251994 |
|      30 | 0x2651C     |      156956 |
|      31 | 0xFFFFB5C3  |  4294948291 |
|      32 | 0x3EA53     |      256595 |
|      33 | 0x28D5C     |      167260 |
|      34 | 0xFFFFB3B1  |  4294947761 |
|      35 | 0x0000      |           0 |
|      36 | 0x0001      |           1 |
|      37 | 0x0080      |         128 |

## Events

### Event 65535

#### Metadata

| Field        | Value   |
|--------------|---------|
| Entrypoint   | 0x0000  |
| Data Size    | 1 bytes |
| Instructions | 1       |

```
      00 01 02 03 04 05 06 07  08 09 0A 0B 0C 0D 0E 0F
      -- -- -- -- -- -- -- --  -- -- -- -- -- -- -- --
0000: 00                                                .               
```

#### Opcodes

```
  0: 0x0000 [0x00] END_REQSTACK()
```

### Event 106

#### Metadata

| Field        | Value   |
|--------------|---------|
| Entrypoint   | 0x0001  |
| Data Size    | 1 bytes |
| Instructions | 1       |

```
      00 01 02 03 04 05 06 07  08 09 0A 0B 0C 0D 0E 0F
      -- -- -- -- -- -- -- --  -- -- -- -- -- -- -- --
0000:    00                                              .              
```

#### Opcodes

```
  0: 0x0001 [0x00] END_REQSTACK()
```

### Event 110

#### Metadata

| Field        | Value   |
|--------------|---------|
| Entrypoint   | 0x0002  |
| Data Size    | 1 bytes |
| Instructions | 1       |

```
      00 01 02 03 04 05 06 07  08 09 0A 0B 0C 0D 0E 0F
      -- -- -- -- -- -- -- --  -- -- -- -- -- -- -- --
0000:       00                                            .             
```

#### Opcodes

```
  0: 0x0002 [0x00] END_REQSTACK()
```

### Event 65535.1

#### Metadata

| Field        | Value    |
|--------------|----------|
| Entrypoint   | 0x0003   |
| Data Size    | 56 bytes |
| Instructions | 12       |

```
      00 01 02 03 04 05 06 07  08 09 0A 0B 0C 0D 0E 0F
      -- -- -- -- -- -- -- --  -- -- -- -- -- -- -- --
0000:          1C 00 80 6B 69  64 6C 30 F8 FF FF 7F 32     ...kidl0....2
0010: 01 80 1F 00 02 80 03 80  04 80 1F 01 1F 00 05 80  ................
0020: 06 80 07 80 1F 01 1F 00  08 80 09 80 0A 80 1F 01  ................
0030: 1F 00 0B 80 0C 80 04 80  1F 01 00                 ...........     
```

#### Opcodes

```
  0: 0x0003 [0x1C] WAIT(250* ticks)
  1: 0x0006 [0x6B] STOP_AND_IDLE: EventEntity stops current action and resets to idle (animation="idl0")
  2: 0x000F [0x32] ExtData[1]->MainSpeed = 42* * 0.1
  3: 0x0012 [0x1F] MOVE_ENTITY: EventEntity moves to X=-310.651*, Z=-13.593*, Y=-48.000*
  4: 0x001A [0x1F] MOVE_ENTITY: Update entity position (mode=1)
  5: 0x001C [0x1F] MOVE_ENTITY: EventEntity moves to X=-302.312*, Z=-16.244*, Y=-48.784*
  6: 0x0024 [0x1F] MOVE_ENTITY: Update entity position (mode=1)
  7: 0x0026 [0x1F] MOVE_ENTITY: EventEntity moves to X=-299.446*, Z=-22.418*, Y=-49.113*
  8: 0x002E [0x1F] MOVE_ENTITY: Update entity position (mode=1)
  9: 0x0030 [0x1F] MOVE_ENTITY: EventEntity moves to X=-297.907*, Z=-51.845*, Y=-48.000*
 10: 0x0038 [0x1F] MOVE_ENTITY: Update entity position (mode=1)
 11: 0x003A [0x00] END_REQSTACK()
```

### Event 65535.2

#### Metadata

| Field        | Value    |
|--------------|----------|
| Entrypoint   | 0x003B   |
| Data Size    | 27 bytes |
| Instructions | 7        |

```
      00 01 02 03 04 05 06 07  08 09 0A 0B 0C 0D 0E 0F
      -- -- -- -- -- -- -- --  -- -- -- -- -- -- -- --
0030:                                   1C 0D 80 32 0E             ...2.
0040: 80 1F 00 02 80 03 80 04  80 1F 01 1F 00 0F 80 10  ................
0050: 80 04 80 1F 01 00                                 ......          
```

#### Opcodes

```
  0: 0x003B [0x1C] WAIT(15* ticks)
  1: 0x003E [0x32] ExtData[1]->MainSpeed = 70* * 0.1
  2: 0x0041 [0x1F] MOVE_ENTITY: EventEntity moves to X=-310.651*, Z=-13.593*, Y=-48.000*
  3: 0x0049 [0x1F] MOVE_ENTITY: Update entity position (mode=1)
  4: 0x004B [0x1F] MOVE_ENTITY: EventEntity moves to X=-285.142*, Z=-13.178*, Y=-48.000*
  5: 0x0053 [0x1F] MOVE_ENTITY: Update entity position (mode=1)
  6: 0x0055 [0x00] END_REQSTACK()
```

### Event 65535.3

#### Metadata

| Field        | Value    |
|--------------|----------|
| Entrypoint   | 0x0056   |
| Data Size    | 14 bytes |
| Instructions | 4        |

```
      00 01 02 03 04 05 06 07  08 09 0A 0B 0C 0D 0E 0F
      -- -- -- -- -- -- -- --  -- -- -- -- -- -- -- --
0050:                   32 11  80 5A 00 12 80 13 80 14        2..Z......
0060: 80 5A 01 00                                       .Z..            
```

#### Opcodes

```
  0: 0x0056 [0x32] ExtData[1]->MainSpeed = 12* * 0.1
  1: 0x0059 [0x5A] UPDATE_EVENT_POSITION: Set EventEntity MovePosition to X=228.460*, Z=142.782*, Y=-18.742*
  2: 0x0061 [0x5A] UPDATE_EVENT_POSITION: Move EventEntity incrementally towards MovePosition
  3: 0x0063 [0x00] END_REQSTACK()
```

### Event 65535.4

#### Metadata

| Field        | Value    |
|--------------|----------|
| Entrypoint   | 0x0064   |
| Data Size    | 14 bytes |
| Instructions | 4        |

```
      00 01 02 03 04 05 06 07  08 09 0A 0B 0C 0D 0E 0F
      -- -- -- -- -- -- -- --  -- -- -- -- -- -- -- --
0060:             32 11 80 5A  00 15 80 16 80 17 80 5A      2..Z.......Z
0070: 01 00                                             ..              
```

#### Opcodes

```
  0: 0x0064 [0x32] ExtData[1]->MainSpeed = 12* * 0.1
  1: 0x0067 [0x5A] UPDATE_EVENT_POSITION: Set EventEntity MovePosition to X=245.993*, Z=147.969*, Y=-17.742*
  2: 0x006F [0x5A] UPDATE_EVENT_POSITION: Move EventEntity incrementally towards MovePosition
  3: 0x0071 [0x00] END_REQSTACK()
```

### Event 65535.5

#### Metadata

| Field        | Value    |
|--------------|----------|
| Entrypoint   | 0x0072   |
| Data Size    | 14 bytes |
| Instructions | 4        |

```
      00 01 02 03 04 05 06 07  08 09 0A 0B 0C 0D 0E 0F
      -- -- -- -- -- -- -- --  -- -- -- -- -- -- -- --
0070:       32 11 80 5A 00 18  80 19 80 1A 80 5A 01 00    2..Z.......Z..
```

#### Opcodes

```
  0: 0x0072 [0x32] ExtData[1]->MainSpeed = 12* * 0.1
  1: 0x0075 [0x5A] UPDATE_EVENT_POSITION: Set EventEntity MovePosition to X=246.033*, Z=153.116*, Y=-19.642*
  2: 0x007D [0x5A] UPDATE_EVENT_POSITION: Move EventEntity incrementally towards MovePosition
  3: 0x007F [0x00] END_REQSTACK()
```

### Event 65535.6

#### Metadata

| Field        | Value    |
|--------------|----------|
| Entrypoint   | 0x0080   |
| Data Size    | 14 bytes |
| Instructions | 4        |

```
      00 01 02 03 04 05 06 07  08 09 0A 0B 0C 0D 0E 0F
      -- -- -- -- -- -- -- --  -- -- -- -- -- -- -- --
0080: 32 11 80 5A 00 1B 80 1C  80 14 80 5A 01 00        2..Z.......Z..  
```

#### Opcodes

```
  0: 0x0080 [0x32] ExtData[1]->MainSpeed = 12* * 0.1
  1: 0x0083 [0x5A] UPDATE_EVENT_POSITION: Set EventEntity MovePosition to X=256.601*, Z=152.238*, Y=-18.742*
  2: 0x008B [0x5A] UPDATE_EVENT_POSITION: Move EventEntity incrementally towards MovePosition
  3: 0x008D [0x00] END_REQSTACK()
```

### Event 65535.7

#### Metadata

| Field        | Value    |
|--------------|----------|
| Entrypoint   | 0x008E   |
| Data Size    | 14 bytes |
| Instructions | 4        |

```
      00 01 02 03 04 05 06 07  08 09 0A 0B 0C 0D 0E 0F
      -- -- -- -- -- -- -- --  -- -- -- -- -- -- -- --
0080:                                            32 11                2.
0090: 80 5A 00 1D 80 1E 80 1F  80 5A 01 00              .Z.......Z..    
```

#### Opcodes

```
  0: 0x008E [0x32] ExtData[1]->MainSpeed = 12* * 0.1
  1: 0x0091 [0x5A] UPDATE_EVENT_POSITION: Set EventEntity MovePosition to X=251.994*, Z=156.956*, Y=-19.005*
  2: 0x0099 [0x5A] UPDATE_EVENT_POSITION: Move EventEntity incrementally towards MovePosition
  3: 0x009B [0x00] END_REQSTACK()
```

### Event 65535.8

#### Metadata

| Field        | Value    |
|--------------|----------|
| Entrypoint   | 0x009C   |
| Data Size    | 14 bytes |
| Instructions | 4        |

```
      00 01 02 03 04 05 06 07  08 09 0A 0B 0C 0D 0E 0F
      -- -- -- -- -- -- -- --  -- -- -- -- -- -- -- --
0090:                                      32 11 80 5A              2..Z
00A0: 00 20 80 21 80 22 80 5A  01 00                    . .!.".Z..      
```

#### Opcodes

```
  0: 0x009C [0x32] ExtData[1]->MainSpeed = 12* * 0.1
  1: 0x009F [0x5A] UPDATE_EVENT_POSITION: Set EventEntity MovePosition to X=256.595*, Z=167.260*, Y=-19.535*
  2: 0x00A7 [0x5A] UPDATE_EVENT_POSITION: Move EventEntity incrementally towards MovePosition
  3: 0x00A9 [0x00] END_REQSTACK()
```

### Event 65535.9

#### Metadata

| Field        | Value    |
|--------------|----------|
| Entrypoint   | 0x00AA   |
| Data Size    | 10 bytes |
| Instructions | 2        |

```
      00 01 02 03 04 05 06 07  08 09 0A 0B 0C 0D 0E 0F
      -- -- -- -- -- -- -- --  -- -- -- -- -- -- -- --
00A0:                                6C F8 FF FF 7F 23            l....#
00B0: 80 24 80 00                                       .$..            
```

#### Opcodes

```
  0: 0x00AA [0x6C] FADE_ENTITY_COLOR(entity_id=EventEntity, end_alpha=0*, fade_time=1*)
  1: 0x00B3 [0x00] END_REQSTACK()
```

### Event 65535.10

#### Metadata

| Field        | Value    |
|--------------|----------|
| Entrypoint   | 0x00B4   |
| Data Size    | 10 bytes |
| Instructions | 2        |

```
      00 01 02 03 04 05 06 07  08 09 0A 0B 0C 0D 0E 0F
      -- -- -- -- -- -- -- --  -- -- -- -- -- -- -- --
00B0:             6C F8 FF FF  7F 25 80 24 80 00            l....%.$..  
```

#### Opcodes

```
  0: 0x00B4 [0x6C] FADE_ENTITY_COLOR(entity_id=EventEntity, end_alpha=128*, fade_time=1*)
  1: 0x00BD [0x00] END_REQSTACK()
```

### Event 65535.11

#### Metadata

| Field        | Value   |
|--------------|---------|
| Entrypoint   | 0x00BE  |
| Data Size    | 1 bytes |
| Instructions | 1       |

```
      00 01 02 03 04 05 06 07  08 09 0A 0B 0C 0D 0E 0F
      -- -- -- -- -- -- -- --  -- -- -- -- -- -- -- --
00B0:                                            00                   . 
```

#### Opcodes

```
  0: 0x00BE [0x00] END_REQSTACK()
```

### Event 65535.12

#### Metadata

| Field        | Value    |
|--------------|----------|
| Entrypoint   | 0x00BF   |
| Data Size    | 18 bytes |
| Instructions | 4        |

```
      00 01 02 03 04 05 06 07  08 09 0A 0B 0C 0D 0E 0F
      -- -- -- -- -- -- -- --  -- -- -- -- -- -- -- --
00B0:                                               22                 "
00C0: 00 2F 00 F8 FF FF 7F 6C  F8 FF FF 7F 23 80 24 80  ./.....l....#.$.
00D0: 00                                                .               
```

#### Opcodes

```
  0: 0x00BF [0x22] ENTITY_HIDE_FLAG(enabled=0x00)
  1: 0x00C1 [0x2F] EventEntity->Render.Flags0 &= ~0x80000 // Bit 19
  2: 0x00C7 [0x6C] FADE_ENTITY_COLOR(entity_id=EventEntity, end_alpha=0*, fade_time=1*)
  3: 0x00D0 [0x00] END_REQSTACK()
```

### Event 65535.13

#### Metadata

| Field        | Value    |
|--------------|----------|
| Entrypoint   | 0x00D1   |
| Data Size    | 10 bytes |
| Instructions | 2        |

```
      00 01 02 03 04 05 06 07  08 09 0A 0B 0C 0D 0E 0F
      -- -- -- -- -- -- -- --  -- -- -- -- -- -- -- --
00D0:    6C F8 FF FF 7F 25 80  24 80 00                  l....%.$..     
```

#### Opcodes

```
  0: 0x00D1 [0x6C] FADE_ENTITY_COLOR(entity_id=EventEntity, end_alpha=128*, fade_time=1*)
  1: 0x00DA [0x00] END_REQSTACK()
```

### Event 65535.14

#### Metadata

| Field        | Value   |
|--------------|---------|
| Entrypoint   | 0x00DB  |
| Data Size    | 9 bytes |
| Instructions | 3       |

```
      00 01 02 03 04 05 06 07  08 09 0A 0B 0C 0D 0E 0F
      -- -- -- -- -- -- -- --  -- -- -- -- -- -- -- --
00D0:                                   22 00 2F 00 F8             "./..
00E0: FF FF 7F 00                                       ....            
```

#### Opcodes

```
  0: 0x00DB [0x22] ENTITY_HIDE_FLAG(enabled=0x00)
  1: 0x00DD [0x2F] EventEntity->Render.Flags0 &= ~0x80000 // Bit 19
  2: 0x00E3 [0x00] END_REQSTACK()
```

### Event 65535.15

#### Metadata

| Field        | Value   |
|--------------|---------|
| Entrypoint   | 0x00E4  |
| Data Size    | 9 bytes |
| Instructions | 3       |

```
      00 01 02 03 04 05 06 07  08 09 0A 0B 0C 0D 0E 0F
      -- -- -- -- -- -- -- --  -- -- -- -- -- -- -- --
00E0:             22 01 2F 01  F8 FF FF 7F 00               "./......   
```

#### Opcodes

```
  0: 0x00E4 [0x22] ENTITY_HIDE_FLAG(enabled=0x01)
  1: 0x00E6 [0x2F] EventEntity->Render.Flags0 |= 0x80000 // Bit 19
  2: 0x00EC [0x00] END_REQSTACK()
```

### Event 65535.16

#### Metadata

| Field        | Value    |
|--------------|----------|
| Entrypoint   | 0x00ED   |
| Data Size    | 10 bytes |
| Instructions | 2        |

```
      00 01 02 03 04 05 06 07  08 09 0A 0B 0C 0D 0E 0F
      -- -- -- -- -- -- -- --  -- -- -- -- -- -- -- --
00E0:                                         6C F8 FF               l..
00F0: FF 7F 23 80 24 80 00                              ..#.$..         
```

#### Opcodes

```
  0: 0x00ED [0x6C] FADE_ENTITY_COLOR(entity_id=EventEntity, end_alpha=0*, fade_time=1*)
  1: 0x00F6 [0x00] END_REQSTACK()
```

### Event 65535.17

#### Metadata

| Field        | Value    |
|--------------|----------|
| Entrypoint   | 0x00F7   |
| Data Size    | 10 bytes |
| Instructions | 2        |

```
      00 01 02 03 04 05 06 07  08 09 0A 0B 0C 0D 0E 0F
      -- -- -- -- -- -- -- --  -- -- -- -- -- -- -- --
00F0:                      6C  F8 FF FF 7F 25 80 24 80         l....%.$.
0100: 00                                                .               
```

#### Opcodes

```
  0: 0x00F7 [0x6C] FADE_ENTITY_COLOR(entity_id=EventEntity, end_alpha=128*, fade_time=1*)
  1: 0x0100 [0x00] END_REQSTACK()
```
