# 17167238 - mith1

## Common Data

| Field            | Value                          |
|------------------|--------------------------------|
| Zone             | West Sarutabaruta [S] (ID: 95) |
| Block Size       | 524 bytes                      |
| Total Events     | 19                             |
| References Count | 34                             |

## List of Events

| Event ID                   | Entrypoint   |   Size |   Instructions |
|----------------------------|--------------|--------|----------------|
| [65535](#event-65535)      | 0x0000       |      1 |              1 |
| [110](#event-110)          | 0x0001       |      1 |              1 |
| [65535.1](#event-655351)   | 0x0002       |     53 |              9 |
| [65535.2](#event-655352)   | 0x0037       |     63 |             13 |
| [65535.3](#event-655353)   | 0x0076       |      5 |              2 |
| [65535.4](#event-655354)   | 0x007B       |      5 |              2 |
| [65535.5](#event-655355)   | 0x0080       |      5 |              2 |
| [65535.6](#event-655356)   | 0x0085       |     26 |              6 |
| [65535.7](#event-655357)   | 0x009F       |     34 |              8 |
| [65535.8](#event-655358)   | 0x00C1       |     13 |              3 |
| [65535.9](#event-655359)   | 0x00CE       |     10 |              2 |
| [65535.10](#event-6553510) | 0x00D8       |     10 |              2 |
| [65535.11](#event-6553511) | 0x00E2       |      1 |              1 |
| [65535.12](#event-6553512) | 0x00E3       |     18 |              4 |
| [65535.13](#event-6553513) | 0x00F5       |     10 |              2 |
| [65535.14](#event-6553514) | 0x00FF       |      9 |              3 |
| [65535.15](#event-6553515) | 0x0108       |      9 |              3 |
| [65535.16](#event-6553516) | 0x0111       |     10 |              2 |
| [65535.17](#event-6553517) | 0x011B       |     10 |              2 |

## DAT References (imed_data)

|   Index | Hex Value   |   Dec Value |
|---------|-------------|-------------|
|       0 | 0x0028      |          40 |
|       1 | 0x2071      |        8305 |
|       2 | 0xFFFF0636  |  4294903350 |
|       3 | 0xFFFFF0EB  |  4294963435 |
|       4 | 0x0055      |          85 |
|       5 | 0x0023      |          35 |
|       6 | 0x0504      |        1284 |
|       7 | 0x000A      |          10 |
|       8 | 0xFFFF68A8  |  4294928552 |
|       9 | 0x20442     |      132162 |
|      10 | 0xFFFFC180  |  4294951296 |
|      11 | 0x0051      |          81 |
|      12 | 0x0000      |           0 |
|      13 | 0x02F0      |         752 |
|      14 | 0x08C7      |        2247 |
|      15 | 0x00B6      |         182 |
|      16 | 0x00FA      |         250 |
|      17 | 0x0035      |          53 |
|      18 | 0xFFFB94FB  |  4294677755 |
|      19 | 0xFFFFCADF  |  4294953695 |
|      20 | 0xFFFF4481  |  4294919297 |
|      21 | 0x0020      |          32 |
|      22 | 0x239DA     |      145882 |
|      23 | 0x4C50F     |      312591 |
|      24 | 0xFFFF6A4E  |  4294928974 |
|      25 | 0x2399B     |      145819 |
|      26 | 0x4D60E     |      316942 |
|      27 | 0xFFFF68B3  |  4294928563 |
|      28 | 0x246A9     |      149161 |
|      29 | 0x4F124     |      323876 |
|      30 | 0xFFFF6711  |  4294928145 |
|      31 | 0xFFFFFCE0  |  4294966496 |
|      32 | 0x0001      |           1 |
|      33 | 0x0080      |         128 |

## Events

### Event 65535

#### Metadata

| Field        | Value   |
|--------------|---------|
| Entrypoint   | 0x0000  |
| Data Size    | 1 bytes |
| Instructions | 1       |

```
      00 01 02 03 04 05 06 07  08 09 0A 0B 0C 0D 0E 0F
      -- -- -- -- -- -- -- --  -- -- -- -- -- -- -- --
0000: 00                                                .               
```

#### Opcodes

```
  0: 0x0000 [0x00] END_REQSTACK()
```

### Event 110

#### Metadata

| Field        | Value   |
|--------------|---------|
| Entrypoint   | 0x0001  |
| Data Size    | 1 bytes |
| Instructions | 1       |

```
      00 01 02 03 04 05 06 07  08 09 0A 0B 0C 0D 0E 0F
      -- -- -- -- -- -- -- --  -- -- -- -- -- -- -- --
0000:    00                                              .              
```

#### Opcodes

```
  0: 0x0001 [0x00] END_REQSTACK()
```

### Event 65535.1

#### Metadata

| Field        | Value    |
|--------------|----------|
| Entrypoint   | 0x0002   |
| Data Size    | 53 bytes |
| Instructions | 9        |

```
      00 01 02 03 04 05 06 07  08 09 0A 0B 0C 0D 0E 0F
      -- -- -- -- -- -- -- --  -- -- -- -- -- -- -- --
0000:       32 00 80 1F 00 01  80 02 80 03 80 1F 01 6F    2............o
0010: 1E A0 F3 05 01 5B 04 80  84 F3 05 01 84 F3 05 01  .....[..........
0020: 74 6C 6B 32 1C 05 80 5B  06 80 F8 FF FF 7F F8 FF  tlk2...[........
0030: FF 7F 68 69 61 30 00                              ..hia0.         
```

#### Opcodes

```
  0: 0x0002 [0x32] ExtData[1]->MainSpeed = 40* * 0.1
  1: 0x0005 [0x1F] MOVE_ENTITY: EventEntity moves to X=8.305*, Z=-63.946*, Y=-3.861*
  2: 0x000D [0x1F] MOVE_ENTITY: Update entity position (mode=1)
  3: 0x000F [0x6F] WAIT_FRAME_DELAY: Yield until WaitTime reaches zero
  4: 0x0010 [0x1E] EventEntity looks at Ajido-Marujido (ID: 17167264/0x0105F3A0) and starts talking
  5: 0x0015 [0x5B] LOAD_EXT_SCHEDULER: Load scheduler "tlk2" with entities [taru1 (ID: 17167236/0x0105F384), taru1 (ID: 17167236/0x0105F384)], work=85*
  6: 0x0024 [0x1C] WAIT(35* ticks)
  7: 0x0027 [0x5B] LOAD_EXT_SCHEDULER: Load scheduler "hia0" with entities [EventEntity, EventEntity], work=1284*
  8: 0x0036 [0x00] END_REQSTACK()
```

### Event 65535.2

#### Metadata

| Field        | Value    |
|--------------|----------|
| Entrypoint   | 0x0037   |
| Data Size    | 63 bytes |
| Instructions | 13       |

```
      00 01 02 03 04 05 06 07  08 09 0A 0B 0C 0D 0E 0F
      -- -- -- -- -- -- -- --  -- -- -- -- -- -- -- --
0030:                      32  00 80 1C 07 80 1F 00 08         2........
0040: 80 09 80 0A 80 1F 01 6F  4A BA F3 05 01 F8 FF FF  .......oJ.......
0050: 7F 1C 07 80 5B 0B 80 F8  FF FF 7F F8 FF FF 7F 68  ....[..........h
0060: 61 69 30 6F 76 BA F3 05  01 6E BA F3 05 01 0C 80  ai0ov....n......
0070: 99 BA F3 05 01 00                                 ......          
```

#### Opcodes

```
  0: 0x0037 [0x32] ExtData[1]->MainSpeed = 40* * 0.1
  1: 0x003A [0x1C] WAIT(10* ticks)
  2: 0x003D [0x1F] MOVE_ENTITY: EventEntity moves to X=-38.744*, Z=132.162*, Y=-16.000*
  3: 0x0045 [0x1F] MOVE_ENTITY: Update entity position (mode=1)
  4: 0x0047 [0x6F] WAIT_FRAME_DELAY: Yield until WaitTime reaches zero
  5: 0x0048 [0x4A] Nhiko Rhaabel (ID: 17167290/0x0105F3BA) looks at EventEntity
  6: 0x0051 [0x1C] WAIT(10* ticks)
  7: 0x0054 [0x5B] LOAD_EXT_SCHEDULER: Load scheduler "hai0" with entities [EventEntity, EventEntity], work=81*
  8: 0x0063 [0x6F] WAIT_FRAME_DELAY: Yield until WaitTime reaches zero
  9: 0x0064 [0x76] CHECK_ENTITY_RENDER_FLAGS: Wait until Nhiko Rhaabel (ID: 17167290/0x0105F3BA) Render.Flags0 and Render.Flags3 conditions are met
 10: 0x0069 [0x6E] Nhiko Rhaabel (ID: 17167290/0x0105F3BA) uses emote 0*
 11: 0x0070 [0x99] Wait for Nhiko Rhaabel (ID: 17167290/0x0105F3BA) animation to complete
 12: 0x0075 [0x00] END_REQSTACK()
```

### Event 65535.3

#### Metadata

| Field        | Value   |
|--------------|---------|
| Entrypoint   | 0x0076  |
| Data Size    | 5 bytes |
| Instructions | 2       |

```
      00 01 02 03 04 05 06 07  08 09 0A 0B 0C 0D 0E 0F
      -- -- -- -- -- -- -- --  -- -- -- -- -- -- -- --
0070:                   B6 00  0D 80 00                       .....     
```

#### Opcodes

```
  0: 0x0076 [0xB6] ENTITY_APPEARANCE_HANDLER(case=Hair style, value=752*)
  1: 0x007A [0x00] END_REQSTACK()
```

### Event 65535.4

#### Metadata

| Field        | Value   |
|--------------|---------|
| Entrypoint   | 0x007B  |
| Data Size    | 5 bytes |
| Instructions | 2       |

```
      00 01 02 03 04 05 06 07  08 09 0A 0B 0C 0D 0E 0F
      -- -- -- -- -- -- -- --  -- -- -- -- -- -- -- --
0070:                                   B6 00 0E 80 00             .....
```

#### Opcodes

```
  0: 0x007B [0xB6] ENTITY_APPEARANCE_HANDLER(case=Hair style, value=2247*)
  1: 0x007F [0x00] END_REQSTACK()
```

### Event 65535.5

#### Metadata

| Field        | Value   |
|--------------|---------|
| Entrypoint   | 0x0080  |
| Data Size    | 5 bytes |
| Instructions | 2       |

```
      00 01 02 03 04 05 06 07  08 09 0A 0B 0C 0D 0E 0F
      -- -- -- -- -- -- -- --  -- -- -- -- -- -- -- --
0080: B6 00 0F 80 00                                    .....           
```

#### Opcodes

```
  0: 0x0080 [0xB6] ENTITY_APPEARANCE_HANDLER(case=Hair style, value=182*)
  1: 0x0084 [0x00] END_REQSTACK()
```

### Event 65535.6

#### Metadata

| Field        | Value    |
|--------------|----------|
| Entrypoint   | 0x0085   |
| Data Size    | 26 bytes |
| Instructions | 6        |

```
      00 01 02 03 04 05 06 07  08 09 0A 0B 0C 0D 0E 0F
      -- -- -- -- -- -- -- --  -- -- -- -- -- -- -- --
0080:                1C 10 80  6B 69 64 6C 30 F8 FF FF       ...kidl0...
0090: 7F 32 11 80 1F 00 12 80  13 80 14 80 1F 01 00     .2............. 
```

#### Opcodes

```
  0: 0x0085 [0x1C] WAIT(250* ticks)
  1: 0x0088 [0x6B] STOP_AND_IDLE: EventEntity stops current action and resets to idle (animation="idl0")
  2: 0x0091 [0x32] ExtData[1]->MainSpeed = 53* * 0.1
  3: 0x0094 [0x1F] MOVE_ENTITY: EventEntity moves to X=-289.541*, Z=-13.601*, Y=-47.999*
  4: 0x009C [0x1F] MOVE_ENTITY: Update entity position (mode=1)
  5: 0x009E [0x00] END_REQSTACK()
```

### Event 65535.7

#### Metadata

| Field        | Value    |
|--------------|----------|
| Entrypoint   | 0x009F   |
| Data Size    | 34 bytes |
| Instructions | 8        |

```
      00 01 02 03 04 05 06 07  08 09 0A 0B 0C 0D 0E 0F
      -- -- -- -- -- -- -- --  -- -- -- -- -- -- -- --
0090:                                               32                 2
00A0: 15 80 1F 00 16 80 17 80  18 80 1F 01 1F 00 19 80  ................
00B0: 1A 80 1B 80 1F 01 1F 00  1C 80 1D 80 1E 80 1F 01  ................
00C0: 00                                                .               
```

#### Opcodes

```
  0: 0x009F [0x32] ExtData[1]->MainSpeed = 32* * 0.1
  1: 0x00A2 [0x1F] MOVE_ENTITY: EventEntity moves to X=145.882*, Z=312.591*, Y=-38.322*
  2: 0x00AA [0x1F] MOVE_ENTITY: Update entity position (mode=1)
  3: 0x00AC [0x1F] MOVE_ENTITY: EventEntity moves to X=145.819*, Z=316.942*, Y=-38.733*
  4: 0x00B4 [0x1F] MOVE_ENTITY: Update entity position (mode=1)
  5: 0x00B6 [0x1F] MOVE_ENTITY: EventEntity moves to X=149.161*, Z=323.876*, Y=-39.151*
  6: 0x00BE [0x1F] MOVE_ENTITY: Update entity position (mode=1)
  7: 0x00C0 [0x00] END_REQSTACK()
```

### Event 65535.8

#### Metadata

| Field        | Value    |
|--------------|----------|
| Entrypoint   | 0x00C1   |
| Data Size    | 13 bytes |
| Instructions | 3        |

```
      00 01 02 03 04 05 06 07  08 09 0A 0B 0C 0D 0E 0F
      -- -- -- -- -- -- -- --  -- -- -- -- -- -- -- --
00C0:    39 1F 80 6C F8 FF FF  7F 0C 80 20 80 00         9..l...... ..  
```

#### Opcodes

```
  0: 0x00C1 [0x39] SET_ENTITY_DIRECTION(direction=355.6°*)
  1: 0x00C4 [0x6C] FADE_ENTITY_COLOR(entity_id=EventEntity, end_alpha=0*, fade_time=1*)
  2: 0x00CD [0x00] END_REQSTACK()
```

### Event 65535.9

#### Metadata

| Field        | Value    |
|--------------|----------|
| Entrypoint   | 0x00CE   |
| Data Size    | 10 bytes |
| Instructions | 2        |

```
      00 01 02 03 04 05 06 07  08 09 0A 0B 0C 0D 0E 0F
      -- -- -- -- -- -- -- --  -- -- -- -- -- -- -- --
00C0:                                            6C F8                l.
00D0: FF FF 7F 0C 80 20 80 00                           ..... ..        
```

#### Opcodes

```
  0: 0x00CE [0x6C] FADE_ENTITY_COLOR(entity_id=EventEntity, end_alpha=0*, fade_time=1*)
  1: 0x00D7 [0x00] END_REQSTACK()
```

### Event 65535.10

#### Metadata

| Field        | Value    |
|--------------|----------|
| Entrypoint   | 0x00D8   |
| Data Size    | 10 bytes |
| Instructions | 2        |

```
      00 01 02 03 04 05 06 07  08 09 0A 0B 0C 0D 0E 0F
      -- -- -- -- -- -- -- --  -- -- -- -- -- -- -- --
00D0:                          6C F8 FF FF 7F 21 80 20          l....!. 
00E0: 80 00                                             ..              
```

#### Opcodes

```
  0: 0x00D8 [0x6C] FADE_ENTITY_COLOR(entity_id=EventEntity, end_alpha=128*, fade_time=1*)
  1: 0x00E1 [0x00] END_REQSTACK()
```

### Event 65535.11

#### Metadata

| Field        | Value   |
|--------------|---------|
| Entrypoint   | 0x00E2  |
| Data Size    | 1 bytes |
| Instructions | 1       |

```
      00 01 02 03 04 05 06 07  08 09 0A 0B 0C 0D 0E 0F
      -- -- -- -- -- -- -- --  -- -- -- -- -- -- -- --
00E0:       00                                            .             
```

#### Opcodes

```
  0: 0x00E2 [0x00] END_REQSTACK()
```

### Event 65535.12

#### Metadata

| Field        | Value    |
|--------------|----------|
| Entrypoint   | 0x00E3   |
| Data Size    | 18 bytes |
| Instructions | 4        |

```
      00 01 02 03 04 05 06 07  08 09 0A 0B 0C 0D 0E 0F
      -- -- -- -- -- -- -- --  -- -- -- -- -- -- -- --
00E0:          22 00 2F 00 F8  FF FF 7F 6C F8 FF FF 7F     "./.....l....
00F0: 0C 80 20 80 00                                    .. ..           
```

#### Opcodes

```
  0: 0x00E3 [0x22] ENTITY_HIDE_FLAG(enabled=0x00)
  1: 0x00E5 [0x2F] EventEntity->Render.Flags0 &= ~0x80000 // Bit 19
  2: 0x00EB [0x6C] FADE_ENTITY_COLOR(entity_id=EventEntity, end_alpha=0*, fade_time=1*)
  3: 0x00F4 [0x00] END_REQSTACK()
```

### Event 65535.13

#### Metadata

| Field        | Value    |
|--------------|----------|
| Entrypoint   | 0x00F5   |
| Data Size    | 10 bytes |
| Instructions | 2        |

```
      00 01 02 03 04 05 06 07  08 09 0A 0B 0C 0D 0E 0F
      -- -- -- -- -- -- -- --  -- -- -- -- -- -- -- --
00F0:                6C F8 FF  FF 7F 21 80 20 80 00          l....!. .. 
```

#### Opcodes

```
  0: 0x00F5 [0x6C] FADE_ENTITY_COLOR(entity_id=EventEntity, end_alpha=128*, fade_time=1*)
  1: 0x00FE [0x00] END_REQSTACK()
```

### Event 65535.14

#### Metadata

| Field        | Value   |
|--------------|---------|
| Entrypoint   | 0x00FF  |
| Data Size    | 9 bytes |
| Instructions | 3       |

```
      00 01 02 03 04 05 06 07  08 09 0A 0B 0C 0D 0E 0F
      -- -- -- -- -- -- -- --  -- -- -- -- -- -- -- --
00F0:                                               22                 "
0100: 00 2F 00 F8 FF FF 7F 00                           ./......        
```

#### Opcodes

```
  0: 0x00FF [0x22] ENTITY_HIDE_FLAG(enabled=0x00)
  1: 0x0101 [0x2F] EventEntity->Render.Flags0 &= ~0x80000 // Bit 19
  2: 0x0107 [0x00] END_REQSTACK()
```

### Event 65535.15

#### Metadata

| Field        | Value   |
|--------------|---------|
| Entrypoint   | 0x0108  |
| Data Size    | 9 bytes |
| Instructions | 3       |

```
      00 01 02 03 04 05 06 07  08 09 0A 0B 0C 0D 0E 0F
      -- -- -- -- -- -- -- --  -- -- -- -- -- -- -- --
0100:                          22 01 2F 01 F8 FF FF 7F          "./.....
0110: 00                                                .               
```

#### Opcodes

```
  0: 0x0108 [0x22] ENTITY_HIDE_FLAG(enabled=0x01)
  1: 0x010A [0x2F] EventEntity->Render.Flags0 |= 0x80000 // Bit 19
  2: 0x0110 [0x00] END_REQSTACK()
```

### Event 65535.16

#### Metadata

| Field        | Value    |
|--------------|----------|
| Entrypoint   | 0x0111   |
| Data Size    | 10 bytes |
| Instructions | 2        |

```
      00 01 02 03 04 05 06 07  08 09 0A 0B 0C 0D 0E 0F
      -- -- -- -- -- -- -- --  -- -- -- -- -- -- -- --
0110:    6C F8 FF FF 7F 0C 80  20 80 00                  l...... ..     
```

#### Opcodes

```
  0: 0x0111 [0x6C] FADE_ENTITY_COLOR(entity_id=EventEntity, end_alpha=0*, fade_time=1*)
  1: 0x011A [0x00] END_REQSTACK()
```

### Event 65535.17

#### Metadata

| Field        | Value    |
|--------------|----------|
| Entrypoint   | 0x011B   |
| Data Size    | 10 bytes |
| Instructions | 2        |

```
      00 01 02 03 04 05 06 07  08 09 0A 0B 0C 0D 0E 0F
      -- -- -- -- -- -- -- --  -- -- -- -- -- -- -- --
0110:                                   6C F8 FF FF 7F             l....
0120: 21 80 20 80 00                                    !. ..           
```

#### Opcodes

```
  0: 0x011B [0x6C] FADE_ENTITY_COLOR(entity_id=EventEntity, end_alpha=128*, fade_time=1*)
  1: 0x0124 [0x00] END_REQSTACK()
```
