# 17167237 - taru2

## Common Data

| Field            | Value                          |
|------------------|--------------------------------|
| Zone             | West Sarutabaruta [S] (ID: 95) |
| Block Size       | 496 bytes                      |
| Total Events     | 16                             |
| References Count | 34                             |

## List of Events

| Event ID                   | Entrypoint   |   Size |   Instructions |
|----------------------------|--------------|--------|----------------|
| [65535](#event-65535)      | 0x0000       |      1 |              1 |
| [110](#event-110)          | 0x0001       |      1 |              1 |
| [65535.1](#event-655351)   | 0x0002       |     69 |             15 |
| [65535.2](#event-655352)   | 0x0047       |     64 |             14 |
| [65535.3](#event-655353)   | 0x0087       |      5 |              2 |
| [65535.4](#event-655354)   | 0x008C       |      5 |              2 |
| [65535.5](#event-655355)   | 0x0091       |     46 |             10 |
| [65535.6](#event-655356)   | 0x00BF       |     10 |              2 |
| [65535.7](#event-655357)   | 0x00C9       |     10 |              2 |
| [65535.8](#event-655358)   | 0x00D3       |      1 |              1 |
| [65535.9](#event-655359)   | 0x00D4       |     18 |              4 |
| [65535.10](#event-6553510) | 0x00E6       |     10 |              2 |
| [65535.11](#event-6553511) | 0x00F0       |      9 |              3 |
| [65535.12](#event-6553512) | 0x00F9       |      9 |              3 |
| [65535.13](#event-6553513) | 0x0102       |     10 |              2 |
| [65535.14](#event-6553514) | 0x010C       |     10 |              2 |

## DAT References (imed_data)

|   Index | Hex Value   |   Dec Value |
|---------|-------------|-------------|
|       0 | 0x0028      |          40 |
|       1 | 0xFFFEA756  |  4294879062 |
|       2 | 0x196DA     |      104154 |
|       3 | 0xFFFFDADA  |  4294957786 |
|       4 | 0xFFFE9CEC  |  4294876396 |
|       5 | 0x19E6D     |      106093 |
|       6 | 0xFFFFDB98  |  4294957976 |
|       7 | 0x0055      |          85 |
|       8 | 0x000F      |          15 |
|       9 | 0x008C      |         140 |
|      10 | 0x0023      |          35 |
|      11 | 0xFFFF65CB  |  4294927819 |
|      12 | 0x1FFD8     |      131032 |
|      13 | 0xFFFFC248  |  4294951496 |
|      14 | 0xFFFF6DFE  |  4294929918 |
|      15 | 0x1FF38     |      130872 |
|      16 | 0xFFFFC180  |  4294951296 |
|      17 | 0xFFFF711F  |  4294930719 |
|      18 | 0x2023F     |      131647 |
|      19 | 0x08BD      |        2237 |
|      20 | 0x00AA      |         170 |
|      21 | 0x006E      |         110 |
|      22 | 0x003C      |          60 |
|      23 | 0xFFFB5BB9  |  4294663097 |
|      24 | 0xFFFFD14B  |  4294955339 |
|      25 | 0xFFFF4480  |  4294919296 |
|      26 | 0xFFFB6DD1  |  4294667729 |
|      27 | 0xFFFFB176  |  4294947190 |
|      28 | 0xFFFF4027  |  4294918183 |
|      29 | 0xFFFB738F  |  4294669199 |
|      30 | 0xFFFF7371  |  4294931313 |
|      31 | 0x0000      |           0 |
|      32 | 0x0001      |           1 |
|      33 | 0x0080      |         128 |

## Events

### Event 65535

#### Metadata

| Field        | Value   |
|--------------|---------|
| Entrypoint   | 0x0000  |
| Data Size    | 1 bytes |
| Instructions | 1       |

```
      00 01 02 03 04 05 06 07  08 09 0A 0B 0C 0D 0E 0F
      -- -- -- -- -- -- -- --  -- -- -- -- -- -- -- --
0000: 00                                                .               
```

#### Opcodes

```
  0: 0x0000 [0x00] END_REQSTACK()
```

### Event 110

#### Metadata

| Field        | Value   |
|--------------|---------|
| Entrypoint   | 0x0001  |
| Data Size    | 1 bytes |
| Instructions | 1       |

```
      00 01 02 03 04 05 06 07  08 09 0A 0B 0C 0D 0E 0F
      -- -- -- -- -- -- -- --  -- -- -- -- -- -- -- --
0000:    00                                              .              
```

#### Opcodes

```
  0: 0x0001 [0x00] END_REQSTACK()
```

### Event 65535.1

#### Metadata

| Field        | Value    |
|--------------|----------|
| Entrypoint   | 0x0002   |
| Data Size    | 69 bytes |
| Instructions | 15       |

```
      00 01 02 03 04 05 06 07  08 09 0A 0B 0C 0D 0E 0F
      -- -- -- -- -- -- -- --  -- -- -- -- -- -- -- --
0000:       32 00 80 1F 00 01  80 02 80 03 80 1F 01 1F    2.............
0010: 00 04 80 05 80 06 80 1F  01 6F 1E A2 F3 05 01 6F  .........o.....o
0020: 76 F8 FF FF 7F 5B 07 80  F8 FF FF 7F F8 FF FF 7F  v....[..........
0030: 74 6C 6B 30 1C 08 80 4A  A2 F3 05 01 F8 FF FF 7F  tlk0...J........
0040: 6F 76 A2 F3 05 01 00                              ov.....         
```

#### Opcodes

```
  0: 0x0002 [0x32] ExtData[1]->MainSpeed = 40* * 0.1
  1: 0x0005 [0x1F] MOVE_ENTITY: EventEntity moves to X=-88.234*, Z=104.154*, Y=-9.510*
  2: 0x000D [0x1F] MOVE_ENTITY: Update entity position (mode=1)
  3: 0x000F [0x1F] MOVE_ENTITY: EventEntity moves to X=-90.900*, Z=106.093*, Y=-9.320*
  4: 0x0017 [0x1F] MOVE_ENTITY: Update entity position (mode=1)
  5: 0x0019 [0x6F] WAIT_FRAME_DELAY: Yield until WaitTime reaches zero
  6: 0x001A [0x1E] EventEntity looks at Kayeel-Payeel (ID: 17167266/0x0105F3A2) and starts talking
  7: 0x001F [0x6F] WAIT_FRAME_DELAY: Yield until WaitTime reaches zero
  8: 0x0020 [0x76] CHECK_ENTITY_RENDER_FLAGS: Wait until EventEntity Render.Flags0 and Render.Flags3 conditions are met
  9: 0x0025 [0x5B] LOAD_EXT_SCHEDULER: Load scheduler "tlk0" with entities [EventEntity, EventEntity], work=85*
 10: 0x0034 [0x1C] WAIT(15* ticks)
 11: 0x0037 [0x4A] Kayeel-Payeel (ID: 17167266/0x0105F3A2) looks at EventEntity
 12: 0x0040 [0x6F] WAIT_FRAME_DELAY: Yield until WaitTime reaches zero
 13: 0x0041 [0x76] CHECK_ENTITY_RENDER_FLAGS: Wait until Kayeel-Payeel (ID: 17167266/0x0105F3A2) Render.Flags0 and Render.Flags3 conditions are met
 14: 0x0046 [0x00] END_REQSTACK()
```

### Event 65535.2

#### Metadata

| Field        | Value    |
|--------------|----------|
| Entrypoint   | 0x0047   |
| Data Size    | 64 bytes |
| Instructions | 14       |

```
      00 01 02 03 04 05 06 07  08 09 0A 0B 0C 0D 0E 0F
      -- -- -- -- -- -- -- --  -- -- -- -- -- -- -- --
0040:                      1C  09 80 32 0A 80 1F 00 0B         ...2.....
0050: 80 0C 80 0D 80 1F 01 1F  00 0E 80 0F 80 10 80 1F  ................
0060: 01 1F 00 11 80 12 80 10  80 1F 01 6F 1E 9E F3 05  ...........o....
0070: 01 6F 76 F8 FF FF 7F 5B  07 80 F8 FF FF 7F F8 FF  .ov....[........
0080: FF 7F 74 6C 6B 30 00                              ..tlk0.         
```

#### Opcodes

```
  0: 0x0047 [0x1C] WAIT(140* ticks)
  1: 0x004A [0x32] ExtData[1]->MainSpeed = 35* * 0.1
  2: 0x004D [0x1F] MOVE_ENTITY: EventEntity moves to X=-39.477*, Z=131.032*, Y=-15.800*
  3: 0x0055 [0x1F] MOVE_ENTITY: Update entity position (mode=1)
  4: 0x0057 [0x1F] MOVE_ENTITY: EventEntity moves to X=-37.378*, Z=130.872*, Y=-16.000*
  5: 0x005F [0x1F] MOVE_ENTITY: Update entity position (mode=1)
  6: 0x0061 [0x1F] MOVE_ENTITY: EventEntity moves to X=-36.577*, Z=131.647*, Y=-16.000*
  7: 0x0069 [0x1F] MOVE_ENTITY: Update entity position (mode=1)
  8: 0x006B [0x6F] WAIT_FRAME_DELAY: Yield until WaitTime reaches zero
  9: 0x006C [0x1E] EventEntity looks at Star Sibyl (ID: 17167262/0x0105F39E) and starts talking
 10: 0x0071 [0x6F] WAIT_FRAME_DELAY: Yield until WaitTime reaches zero
 11: 0x0072 [0x76] CHECK_ENTITY_RENDER_FLAGS: Wait until EventEntity Render.Flags0 and Render.Flags3 conditions are met
 12: 0x0077 [0x5B] LOAD_EXT_SCHEDULER: Load scheduler "tlk0" with entities [EventEntity, EventEntity], work=85*
 13: 0x0086 [0x00] END_REQSTACK()
```

### Event 65535.3

#### Metadata

| Field        | Value   |
|--------------|---------|
| Entrypoint   | 0x0087  |
| Data Size    | 5 bytes |
| Instructions | 2       |

```
      00 01 02 03 04 05 06 07  08 09 0A 0B 0C 0D 0E 0F
      -- -- -- -- -- -- -- --  -- -- -- -- -- -- -- --
0080:                      B6  00 13 80 00                     .....    
```

#### Opcodes

```
  0: 0x0087 [0xB6] ENTITY_APPEARANCE_HANDLER(case=Hair style, value=2237*)
  1: 0x008B [0x00] END_REQSTACK()
```

### Event 65535.4

#### Metadata

| Field        | Value   |
|--------------|---------|
| Entrypoint   | 0x008C  |
| Data Size    | 5 bytes |
| Instructions | 2       |

```
      00 01 02 03 04 05 06 07  08 09 0A 0B 0C 0D 0E 0F
      -- -- -- -- -- -- -- --  -- -- -- -- -- -- -- --
0080:                                      B6 00 14 80              ....
0090: 00                                                .               
```

#### Opcodes

```
  0: 0x008C [0xB6] ENTITY_APPEARANCE_HANDLER(case=Hair style, value=170*)
  1: 0x0090 [0x00] END_REQSTACK()
```

### Event 65535.5

#### Metadata

| Field        | Value    |
|--------------|----------|
| Entrypoint   | 0x0091   |
| Data Size    | 46 bytes |
| Instructions | 10       |

```
      00 01 02 03 04 05 06 07  08 09 0A 0B 0C 0D 0E 0F
      -- -- -- -- -- -- -- --  -- -- -- -- -- -- -- --
0090:    1C 15 80 6B 69 64 6C  30 F8 FF FF 7F 32 16 80   ...kidl0....2..
00A0: 1F 00 17 80 18 80 19 80  1F 01 1F 00 1A 80 1B 80  ................
00B0: 1C 80 1F 01 1F 00 1D 80  1E 80 19 80 1F 01 00     ............... 
```

#### Opcodes

```
  0: 0x0091 [0x1C] WAIT(110* ticks)
  1: 0x0094 [0x6B] STOP_AND_IDLE: EventEntity stops current action and resets to idle (animation="idl0")
  2: 0x009D [0x32] ExtData[1]->MainSpeed = 60* * 0.1
  3: 0x00A0 [0x1F] MOVE_ENTITY: EventEntity moves to X=-304.199*, Z=-11.957*, Y=-48.000*
  4: 0x00A8 [0x1F] MOVE_ENTITY: Update entity position (mode=1)
  5: 0x00AA [0x1F] MOVE_ENTITY: EventEntity moves to X=-299.567*, Z=-20.106*, Y=-49.113*
  6: 0x00B2 [0x1F] MOVE_ENTITY: Update entity position (mode=1)
  7: 0x00B4 [0x1F] MOVE_ENTITY: EventEntity moves to X=-298.097*, Z=-35.983*, Y=-48.000*
  8: 0x00BC [0x1F] MOVE_ENTITY: Update entity position (mode=1)
  9: 0x00BE [0x00] END_REQSTACK()
```

### Event 65535.6

#### Metadata

| Field        | Value    |
|--------------|----------|
| Entrypoint   | 0x00BF   |
| Data Size    | 10 bytes |
| Instructions | 2        |

```
      00 01 02 03 04 05 06 07  08 09 0A 0B 0C 0D 0E 0F
      -- -- -- -- -- -- -- --  -- -- -- -- -- -- -- --
00B0:                                               6C                 l
00C0: F8 FF FF 7F 1F 80 20 80  00                       ...... ..       
```

#### Opcodes

```
  0: 0x00BF [0x6C] FADE_ENTITY_COLOR(entity_id=EventEntity, end_alpha=0*, fade_time=1*)
  1: 0x00C8 [0x00] END_REQSTACK()
```

### Event 65535.7

#### Metadata

| Field        | Value    |
|--------------|----------|
| Entrypoint   | 0x00C9   |
| Data Size    | 10 bytes |
| Instructions | 2        |

```
      00 01 02 03 04 05 06 07  08 09 0A 0B 0C 0D 0E 0F
      -- -- -- -- -- -- -- --  -- -- -- -- -- -- -- --
00C0:                             6C F8 FF FF 7F 21 80           l....!.
00D0: 20 80 00                                           ..             
```

#### Opcodes

```
  0: 0x00C9 [0x6C] FADE_ENTITY_COLOR(entity_id=EventEntity, end_alpha=128*, fade_time=1*)
  1: 0x00D2 [0x00] END_REQSTACK()
```

### Event 65535.8

#### Metadata

| Field        | Value   |
|--------------|---------|
| Entrypoint   | 0x00D3  |
| Data Size    | 1 bytes |
| Instructions | 1       |

```
      00 01 02 03 04 05 06 07  08 09 0A 0B 0C 0D 0E 0F
      -- -- -- -- -- -- -- --  -- -- -- -- -- -- -- --
00D0:          00                                          .            
```

#### Opcodes

```
  0: 0x00D3 [0x00] END_REQSTACK()
```

### Event 65535.9

#### Metadata

| Field        | Value    |
|--------------|----------|
| Entrypoint   | 0x00D4   |
| Data Size    | 18 bytes |
| Instructions | 4        |

```
      00 01 02 03 04 05 06 07  08 09 0A 0B 0C 0D 0E 0F
      -- -- -- -- -- -- -- --  -- -- -- -- -- -- -- --
00D0:             22 00 2F 00  F8 FF FF 7F 6C F8 FF FF      "./.....l...
00E0: 7F 1F 80 20 80 00                                 ... ..          
```

#### Opcodes

```
  0: 0x00D4 [0x22] ENTITY_HIDE_FLAG(enabled=0x00)
  1: 0x00D6 [0x2F] EventEntity->Render.Flags0 &= ~0x80000 // Bit 19
  2: 0x00DC [0x6C] FADE_ENTITY_COLOR(entity_id=EventEntity, end_alpha=0*, fade_time=1*)
  3: 0x00E5 [0x00] END_REQSTACK()
```

### Event 65535.10

#### Metadata

| Field        | Value    |
|--------------|----------|
| Entrypoint   | 0x00E6   |
| Data Size    | 10 bytes |
| Instructions | 2        |

```
      00 01 02 03 04 05 06 07  08 09 0A 0B 0C 0D 0E 0F
      -- -- -- -- -- -- -- --  -- -- -- -- -- -- -- --
00E0:                   6C F8  FF FF 7F 21 80 20 80 00        l....!. ..
```

#### Opcodes

```
  0: 0x00E6 [0x6C] FADE_ENTITY_COLOR(entity_id=EventEntity, end_alpha=128*, fade_time=1*)
  1: 0x00EF [0x00] END_REQSTACK()
```

### Event 65535.11

#### Metadata

| Field        | Value   |
|--------------|---------|
| Entrypoint   | 0x00F0  |
| Data Size    | 9 bytes |
| Instructions | 3       |

```
      00 01 02 03 04 05 06 07  08 09 0A 0B 0C 0D 0E 0F
      -- -- -- -- -- -- -- --  -- -- -- -- -- -- -- --
00F0: 22 00 2F 00 F8 FF FF 7F  00                       "./......       
```

#### Opcodes

```
  0: 0x00F0 [0x22] ENTITY_HIDE_FLAG(enabled=0x00)
  1: 0x00F2 [0x2F] EventEntity->Render.Flags0 &= ~0x80000 // Bit 19
  2: 0x00F8 [0x00] END_REQSTACK()
```

### Event 65535.12

#### Metadata

| Field        | Value   |
|--------------|---------|
| Entrypoint   | 0x00F9  |
| Data Size    | 9 bytes |
| Instructions | 3       |

```
      00 01 02 03 04 05 06 07  08 09 0A 0B 0C 0D 0E 0F
      -- -- -- -- -- -- -- --  -- -- -- -- -- -- -- --
00F0:                             22 01 2F 01 F8 FF FF           "./....
0100: 7F 00                                             ..              
```

#### Opcodes

```
  0: 0x00F9 [0x22] ENTITY_HIDE_FLAG(enabled=0x01)
  1: 0x00FB [0x2F] EventEntity->Render.Flags0 |= 0x80000 // Bit 19
  2: 0x0101 [0x00] END_REQSTACK()
```

### Event 65535.13

#### Metadata

| Field        | Value    |
|--------------|----------|
| Entrypoint   | 0x0102   |
| Data Size    | 10 bytes |
| Instructions | 2        |

```
      00 01 02 03 04 05 06 07  08 09 0A 0B 0C 0D 0E 0F
      -- -- -- -- -- -- -- --  -- -- -- -- -- -- -- --
0100:       6C F8 FF FF 7F 1F  80 20 80 00                l...... ..    
```

#### Opcodes

```
  0: 0x0102 [0x6C] FADE_ENTITY_COLOR(entity_id=EventEntity, end_alpha=0*, fade_time=1*)
  1: 0x010B [0x00] END_REQSTACK()
```

### Event 65535.14

#### Metadata

| Field        | Value    |
|--------------|----------|
| Entrypoint   | 0x010C   |
| Data Size    | 10 bytes |
| Instructions | 2        |

```
      00 01 02 03 04 05 06 07  08 09 0A 0B 0C 0D 0E 0F
      -- -- -- -- -- -- -- --  -- -- -- -- -- -- -- --
0100:                                      6C F8 FF FF              l...
0110: 7F 21 80 20 80 00                                 .!. ..          
```

#### Opcodes

```
  0: 0x010C [0x6C] FADE_ENTITY_COLOR(entity_id=EventEntity, end_alpha=128*, fade_time=1*)
  1: 0x0115 [0x00] END_REQSTACK()
```
