# 17167233

## Common Data

| Field            | Value                          |
|------------------|--------------------------------|
| Zone             | West Sarutabaruta [S] (ID: 95) |
| Block Size       | 736 bytes                      |
| Total Events     | 5                              |
| References Count | 8                              |

## List of Events

| Event ID                 | Entrypoint   |   Size |   Instructions |
|--------------------------|--------------|--------|----------------|
| [65535](#event-65535)    | 0x0000       |      1 |              1 |
| [105](#event-105)        | 0x0001       |      1 |              1 |
| [106](#event-106)        | 0x0002       |      1 |              1 |
| [65535.1](#event-655351) | 0x0003       |      1 |              1 |
| [65535.2](#event-655352) | 0x0004       |    661 |             63 |

## DAT References (imed_data)

|   Index | Hex Value   |   Dec Value |
|---------|-------------|-------------|
|       0 | 0x00C8      |         200 |
|       1 | 0x0000      |           0 |
|       2 | 0x00C9      |         201 |
|       3 | 0x0001      |           1 |
|       4 | 0x002D      |          45 |
|       5 | 0x0002      |           2 |
|       6 | 0x001E      |          30 |
|       7 | 0x00D7      |         215 |

## Events

### Event 65535

#### Metadata

| Field        | Value   |
|--------------|---------|
| Entrypoint   | 0x0000  |
| Data Size    | 1 bytes |
| Instructions | 1       |

```
      00 01 02 03 04 05 06 07  08 09 0A 0B 0C 0D 0E 0F
      -- -- -- -- -- -- -- --  -- -- -- -- -- -- -- --
0000: 00                                                .               
```

#### Opcodes

```
  0: 0x0000 [0x00] END_REQSTACK()
```

### Event 105

#### Metadata

| Field        | Value   |
|--------------|---------|
| Entrypoint   | 0x0001  |
| Data Size    | 1 bytes |
| Instructions | 1       |

```
      00 01 02 03 04 05 06 07  08 09 0A 0B 0C 0D 0E 0F
      -- -- -- -- -- -- -- --  -- -- -- -- -- -- -- --
0000:    00                                              .              
```

#### Opcodes

```
  0: 0x0001 [0x00] END_REQSTACK()
```

### Event 106

#### Metadata

| Field        | Value   |
|--------------|---------|
| Entrypoint   | 0x0002  |
| Data Size    | 1 bytes |
| Instructions | 1       |

```
      00 01 02 03 04 05 06 07  08 09 0A 0B 0C 0D 0E 0F
      -- -- -- -- -- -- -- --  -- -- -- -- -- -- -- --
0000:       00                                            .             
```

#### Opcodes

```
  0: 0x0002 [0x00] END_REQSTACK()
```

### Event 65535.1

#### Metadata

| Field        | Value   |
|--------------|---------|
| Entrypoint   | 0x0003  |
| Data Size    | 1 bytes |
| Instructions | 1       |

```
      00 01 02 03 04 05 06 07  08 09 0A 0B 0C 0D 0E 0F
      -- -- -- -- -- -- -- --  -- -- -- -- -- -- -- --
0000:          00                                          .            
```

#### Opcodes

```
  0: 0x0003 [0x00] END_REQSTACK()
```

### Event 65535.2

#### Metadata

| Field        | Value     |
|--------------|-----------|
| Entrypoint   | 0x0004    |
| Data Size    | 661 bytes |
| Instructions | 2         |

```
      00 01 02 03 04 05 06 07  08 09 0A 0B 0C 0D 0E 0F
      -- -- -- -- -- -- -- --  -- -- -- -- -- -- -- --
0000:             1C 02 10 00  45 00 80 F0 FF FF 7F F0      ....E.......
0010: FF FF 7F 66 64 69 30 01  80 55 00 80 F0 FF FF 7F  ...fdi0..U......
0020: F0 FF FF 7F 66 64 69 30  1B 45 00 80 F0 FF FF 7F  ....fdi0.E......
0030: F0 FF FF 7F 66 64 6F 30  01 80 55 00 80 F0 FF FF  ....fdo0..U.....
0040: 7F F0 FF FF 7F 66 64 6F  30 1B 45 00 80 F0 FF FF  .....fdo0.E.....
0050: 7F F0 FF FF 7F 66 64 69  31 01 80 55 00 80 F0 FF  .....fdi1..U....
0060: FF 7F F0 FF FF 7F 66 64  69 31 1B 45 00 80 F0 FF  ......fdi1.E....
0070: FF 7F F0 FF FF 7F 66 64  6F 31 01 80 55 00 80 F0  ......fdo1..U...
0080: FF FF 7F F0 FF FF 7F 66  64 6F 31 1B 45 02 80 F0  .......fdo1.E...
0090: FF FF 7F F0 FF FF 7F 77  68 69 31 01 80 55 02 80  .......whi1..U..
00A0: F0 FF FF 7F F0 FF FF 7F  77 68 69 31 1B 45 02 80  ........whi1.E..
00B0: F0 FF FF 7F F0 FF FF 7F  77 68 6F 31 01 80 55 02  ........who1..U.
00C0: 80 F0 FF FF 7F F0 FF FF  7F 77 68 6F 31 1B 45 02  .........who1.E.
00D0: 80 F0 FF FF 7F F0 FF FF  7F 77 68 6F 32 01 80 55  .........who2..U
00E0: 02 80 F0 FF FF 7F F0 FF  FF 7F 77 68 6F 32 1B 45  ..........who2.E
00F0: 02 80 F0 FF FF 7F F0 FF  FF 7F 77 68 6F 33 01 80  ..........who3..
0100: 55 02 80 F0 FF FF 7F F0  FF FF 7F 77 68 6F 33 1B  U..........who3.
0110: 62 03 80 F0 FF FF 7F F0  FF FF 7F 6D 61 69 6E 01  b..........main.
0120: 80 1C 04 80 45 00 80 F0  FF FF 7F F0 FF FF 7F 66  ....E..........f
0130: 64 6F 31 01 80 55 00 80  F0 FF FF 7F F0 FF FF 7F  do1..U..........
0140: 66 64 6F 31 1B 45 00 80  F0 FF FF 7F F0 FF FF 7F  fdo1.E..........
0150: 66 64 69 31 01 80 62 05  80 F0 FF FF 7F F0 FF FF  fdi1..b.........
0160: 7F 6D 61 69 6E 01 80 1C  06 80 55 00 80 F0 FF FF  .main.....U.....
0170: 7F F0 FF FF 7F 66 64 69  31 1B 45 00 80 F0 FF FF  .....fdi1.E.....
0180: 7F F0 FF FF 7F 62 6C 6F  6E 01 80 45 02 80 F0 FF  .....blon..E....
0190: FF 7F F0 FF FF 7F 62 6C  6F 6E 01 80 1B 45 02 80  ......blon...E..
01A0: F0 FF FF 7F F0 FF FF 7F  77 68 69 30 01 80 55 02  ........whi0..U.
01B0: 80 F0 FF FF 7F F0 FF FF  7F 77 68 69 30 1B 45 02  .........whi0.E.
01C0: 80 F0 FF FF 7F F0 FF FF  7F 77 68 6F 30 01 80 55  .........who0..U
01D0: 02 80 F0 FF FF 7F F0 FF  FF 7F 77 68 6F 30 1B 45  ..........who0.E
01E0: 07 80 F0 FF FF 7F F0 FF  FF 7F 65 66 6F 6E 01 80  ..........efon..
01F0: 55 07 80 F0 FF FF 7F F0  FF FF 7F 65 66 6F 6E 1B  U..........efon.
0200: 45 00 80 F0 FF FF 7F F0  FF FF 7F 66 64 69 73 01  E..........fdis.
0210: 80 1B 45 00 80 F0 FF FF  7F F0 FF FF 7F 66 64 6F  ..E..........fdo
0220: 73 01 80 55 00 80 F0 FF  FF 7F F0 FF FF 7F 66 64  s..U..........fd
0230: 6F 73 1B 45 00 80 F0 FF  FF 7F F0 FF FF 7F 66 64  os.E..........fd
0240: 69 66 01 80 1B 45 00 80  F0 FF FF 7F F0 FF FF 7F  if...E..........
0250: 66 64 6F 66 01 80 55 00  80 F0 FF FF 7F F0 FF FF  fdof..U.........
0260: 7F 66 64 6F 66 1B 45 00  80 F0 FF FF 7F F0 FF FF  .fdof.E.........
0270: 7F 66 64 69 70 01 80 1B  45 00 80 F0 FF FF 7F F0  .fdip...E.......
0280: FF FF 7F 66 64 6F 70 01  80 55 00 80 F0 FF FF 7F  ...fdop..U......
0290: F0 FF FF 7F 66 64 6F 70  1B                       ....fdop.       
```

#### Opcodes

```
  0: 0x0004 [0x1C] WAIT(Work_Zone[2] ticks)
  1: 0x0007 [0x00] END_REQSTACK()
```

#### Data or dead code:

```
# Dead code (unreachable instructions):
     0x0008 [0x45] LOAD_SCHEDULED_TASK: Load scheduler "fdi0" with entities [LocalPlayer, LocalPlayer], work=[200*, 0*]
     0x0019 [0x55] WAIT_LOAD_SCHEDULER: Wait for scheduler "fdi0" with entities [LocalPlayer, LocalPlayer], work=200*
     0x0028 [0x1B] RETURN
     0x0029 [0x45] LOAD_SCHEDULED_TASK: Load scheduler "fdo0" with entities [LocalPlayer, LocalPlayer], work=[200*, 0*]
     0x003A [0x55] WAIT_LOAD_SCHEDULER: Wait for scheduler "fdo0" with entities [LocalPlayer, LocalPlayer], work=200*
     0x0049 [0x1B] RETURN
     0x004A [0x45] LOAD_SCHEDULED_TASK: Load scheduler "fdi1" with entities [LocalPlayer, LocalPlayer], work=[200*, 0*]
     0x005B [0x55] WAIT_LOAD_SCHEDULER: Wait for scheduler "fdi1" with entities [LocalPlayer, LocalPlayer], work=200*
     0x006A [0x1B] RETURN
     0x006B [0x45] LOAD_SCHEDULED_TASK: Load scheduler "fdo1" with entities [LocalPlayer, LocalPlayer], work=[200*, 0*]
     0x007C [0x55] WAIT_LOAD_SCHEDULER: Wait for scheduler "fdo1" with entities [LocalPlayer, LocalPlayer], work=200*
     0x008B [0x1B] RETURN
     0x008C [0x45] LOAD_SCHEDULED_TASK: Load scheduler "whi1" with entities [LocalPlayer, LocalPlayer], work=[201*, 0*]
     0x009D [0x55] WAIT_LOAD_SCHEDULER: Wait for scheduler "whi1" with entities [LocalPlayer, LocalPlayer], work=201*
     0x00AC [0x1B] RETURN
     0x00AD [0x45] LOAD_SCHEDULED_TASK: Load scheduler "who1" with entities [LocalPlayer, LocalPlayer], work=[201*, 0*]
     0x00BE [0x55] WAIT_LOAD_SCHEDULER: Wait for scheduler "who1" with entities [LocalPlayer, LocalPlayer], work=201*
     0x00CD [0x1B] RETURN
     0x00CE [0x45] LOAD_SCHEDULED_TASK: Load scheduler "who2" with entities [LocalPlayer, LocalPlayer], work=[201*, 0*]
     0x00DF [0x55] WAIT_LOAD_SCHEDULER: Wait for scheduler "who2" with entities [LocalPlayer, LocalPlayer], work=201*
     0x00EE [0x1B] RETURN
     0x00EF [0x45] LOAD_SCHEDULED_TASK: Load scheduler "who3" with entities [LocalPlayer, LocalPlayer], work=[201*, 0*]
     0x0100 [0x55] WAIT_LOAD_SCHEDULER: Wait for scheduler "who3" with entities [LocalPlayer, LocalPlayer], work=201*
     0x010F [0x1B] RETURN
     0x0110 [0x62] LOAD_EVENT_SCHEDULER: Load scheduler "main" with entities [LocalPlayer, LocalPlayer], work=[1*, 0*]
     0x0121 [0x1C] WAIT(45* ticks)
     0x0124 [0x45] LOAD_SCHEDULED_TASK: Load scheduler "fdo1" with entities [LocalPlayer, LocalPlayer], work=[200*, 0*]
     0x0135 [0x55] WAIT_LOAD_SCHEDULER: Wait for scheduler "fdo1" with entities [LocalPlayer, LocalPlayer], work=200*
     0x0144 [0x1B] RETURN
     0x0145 [0x45] LOAD_SCHEDULED_TASK: Load scheduler "fdi1" with entities [LocalPlayer, LocalPlayer], work=[200*, 0*]
     0x0156 [0x62] LOAD_EVENT_SCHEDULER: Load scheduler "main" with entities [LocalPlayer, LocalPlayer], work=[2*, 0*]
     0x0167 [0x1C] WAIT(30* ticks)
     0x016A [0x55] WAIT_LOAD_SCHEDULER: Wait for scheduler "fdi1" with entities [LocalPlayer, LocalPlayer], work=200*
     0x0179 [0x1B] RETURN
     0x017A [0x45] LOAD_SCHEDULED_TASK: Load scheduler "blon" with entities [LocalPlayer, LocalPlayer], work=[200*, 0*]
     0x018B [0x45] LOAD_SCHEDULED_TASK: Load scheduler "blon" with entities [LocalPlayer, LocalPlayer], work=[201*, 0*]
     0x019C [0x1B] RETURN
     0x019D [0x45] LOAD_SCHEDULED_TASK: Load scheduler "whi0" with entities [LocalPlayer, LocalPlayer], work=[201*, 0*]
     0x01AE [0x55] WAIT_LOAD_SCHEDULER: Wait for scheduler "whi0" with entities [LocalPlayer, LocalPlayer], work=201*
     0x01BD [0x1B] RETURN
     0x01BE [0x45] LOAD_SCHEDULED_TASK: Load scheduler "who0" with entities [LocalPlayer, LocalPlayer], work=[201*, 0*]
     0x01CF [0x55] WAIT_LOAD_SCHEDULER: Wait for scheduler "who0" with entities [LocalPlayer, LocalPlayer], work=201*
     0x01DE [0x1B] RETURN
     0x01DF [0x45] LOAD_SCHEDULED_TASK: Load scheduler "efon" with entities [LocalPlayer, LocalPlayer], work=[215*, 0*]
     0x01F0 [0x55] WAIT_LOAD_SCHEDULER: Wait for scheduler "efon" with entities [LocalPlayer, LocalPlayer], work=215*
     0x01FF [0x1B] RETURN
     0x0200 [0x45] LOAD_SCHEDULED_TASK: Load scheduler "fdis" with entities [LocalPlayer, LocalPlayer], work=[200*, 0*]
     0x0211 [0x1B] RETURN
     0x0212 [0x45] LOAD_SCHEDULED_TASK: Load scheduler "fdos" with entities [LocalPlayer, LocalPlayer], work=[200*, 0*]
     0x0223 [0x55] WAIT_LOAD_SCHEDULER: Wait for scheduler "fdos" with entities [LocalPlayer, LocalPlayer], work=200*
     0x0232 [0x1B] RETURN
     0x0233 [0x45] LOAD_SCHEDULED_TASK: Load scheduler "fdif" with entities [LocalPlayer, LocalPlayer], work=[200*, 0*]
     0x0244 [0x1B] RETURN
     0x0245 [0x45] LOAD_SCHEDULED_TASK: Load scheduler "fdof" with entities [LocalPlayer, LocalPlayer], work=[200*, 0*]
     0x0256 [0x55] WAIT_LOAD_SCHEDULER: Wait for scheduler "fdof" with entities [LocalPlayer, LocalPlayer], work=200*
     0x0265 [0x1B] RETURN
     0x0266 [0x45] LOAD_SCHEDULED_TASK: Load scheduler "fdip" with entities [LocalPlayer, LocalPlayer], work=[200*, 0*]
     0x0277 [0x1B] RETURN
     0x0278 [0x45] LOAD_SCHEDULED_TASK: Load scheduler "fdop" with entities [LocalPlayer, LocalPlayer], work=[200*, 0*]
     0x0289 [0x55] WAIT_LOAD_SCHEDULER: Wait for scheduler "fdop" with entities [LocalPlayer, LocalPlayer], work=200*
     0x0298 [0x1B] RETURN
```
