# 17167243 - Mikhe Aryohcha

## Common Data

| Field            | Value                          |
|------------------|--------------------------------|
| Zone             | West Sarutabaruta [S] (ID: 95) |
| Block Size       | 688 bytes                      |
| Total Events     | 21                             |
| References Count | 53                             |

## List of Events

| Event ID                   | Entrypoint   |   Size |   Instructions |
|----------------------------|--------------|--------|----------------|
| [65535](#event-65535)      | 0x0000       |      1 |              1 |
| [110](#event-110)          | 0x0001       |      1 |              1 |
| [65535.1](#event-655351)   | 0x0002       |     19 |              3 |
| [65535.2](#event-655352)   | 0x0015       |     16 |              4 |
| [65535.3](#event-655353)   | 0x0025       |     21 |              2 |
| [65535.4](#event-655354)   | 0x003A       |     21 |              2 |
| [65535.5](#event-655355)   | 0x004F       |     21 |              2 |
| [65535.6](#event-655356)   | 0x0064       |     21 |              2 |
| [65535.7](#event-655357)   | 0x0079       |     21 |              2 |
| [65535.8](#event-655358)   | 0x008E       |     37 |              9 |
| [65535.9](#event-655359)   | 0x00B3       |     56 |             12 |
| [65535.10](#event-6553510) | 0x00EB       |     54 |             12 |
| [65535.11](#event-6553511) | 0x0121       |     10 |              2 |
| [65535.12](#event-6553512) | 0x012B       |     10 |              2 |
| [65535.13](#event-6553513) | 0x0135       |      1 |              1 |
| [65535.14](#event-6553514) | 0x0136       |     18 |              4 |
| [65535.15](#event-6553515) | 0x0148       |     10 |              2 |
| [65535.16](#event-6553516) | 0x0152       |      9 |              3 |
| [65535.17](#event-6553517) | 0x015B       |      9 |              3 |
| [65535.18](#event-6553518) | 0x0164       |     10 |              2 |
| [65535.19](#event-6553519) | 0x016E       |     10 |              2 |

## DAT References (imed_data)

|   Index | Hex Value   |   Dec Value |
|---------|-------------|-------------|
|       0 | 0x0190      |         400 |
|       1 | 0x0530      |        1328 |
|       2 | 0x003C      |          60 |
|       3 | 0x001A      |          26 |
|       4 | 0x0007      |           7 |
|       5 | 0x000F      |          15 |
|       6 | 0x0064      |         100 |
|       7 | 0x0000      |           0 |
|       8 | 0x0001      |           1 |
|       9 | 0x000B      |          11 |
|      10 | 0x00A2      |         162 |
|      11 | 0x0002      |           2 |
|      12 | 0x0091      |         145 |
|      13 | 0x00DB      |         219 |
|      14 | 0x008C      |         140 |
|      15 | 0x0005      |           5 |
|      16 | 0x001D      |          29 |
|      17 | 0x000D      |          13 |
|      18 | 0x002D      |          45 |
|      19 | 0x0010      |          16 |
|      20 | 0x000E      |          14 |
|      21 | 0x006E      |         110 |
|      22 | 0x002B      |          43 |
|      23 | 0xFFFB7848  |  4294670408 |
|      24 | 0xFFFFCD01  |  4294954241 |
|      25 | 0xFFFF4480  |  4294919296 |
|      26 | 0xFFFB66BA  |  4294665914 |
|      27 | 0xFFFFCEF9  |  4294954745 |
|      28 | 0xFFFB4444  |  4294657092 |
|      29 | 0xFFFFCC9E  |  4294954142 |
|      30 | 0x004B      |          75 |
|      31 | 0x00FA      |         250 |
|      32 | 0x0080      |         128 |
|      33 | 0xFFFB56B6  |  4294661814 |
|      34 | 0xFFFFD16F  |  4294955375 |
|      35 | 0xFFFF4481  |  4294919297 |
|      36 | 0xFFFB7107  |  4294668551 |
|      37 | 0xFFFFF042  |  4294963266 |
|      38 | 0xFFFB7BC6  |  4294671302 |
|      39 | 0x072E      |        1838 |
|      40 | 0xFFFB7EA4  |  4294672036 |
|      41 | 0x29B8      |       10680 |
|      42 | 0x0050      |          80 |
|      43 | 0xFFFB8958  |  4294674776 |
|      44 | 0xFFFFCCEE  |  4294954222 |
|      45 | 0xFFFB828D  |  4294673037 |
|      46 | 0xFFFFD299  |  4294955673 |
|      47 | 0xFFFB80BB  |  4294672571 |
|      48 | 0xFFFFE207  |  4294959623 |
|      49 | 0xFFFB7106  |  4294668550 |
|      50 | 0x1688      |        5768 |
|      51 | 0xFFFB764E  |  4294669902 |
|      52 | 0x26FF      |        9983 |

## Events

### Event 65535

#### Metadata

| Field        | Value   |
|--------------|---------|
| Entrypoint   | 0x0000  |
| Data Size    | 1 bytes |
| Instructions | 1       |

```
      00 01 02 03 04 05 06 07  08 09 0A 0B 0C 0D 0E 0F
      -- -- -- -- -- -- -- --  -- -- -- -- -- -- -- --
0000: 00                                                .               
```

#### Opcodes

```
  0: 0x0000 [0x00] END_REQSTACK()
```

### Event 110

#### Metadata

| Field        | Value   |
|--------------|---------|
| Entrypoint   | 0x0001  |
| Data Size    | 1 bytes |
| Instructions | 1       |

```
      00 01 02 03 04 05 06 07  08 09 0A 0B 0C 0D 0E 0F
      -- -- -- -- -- -- -- --  -- -- -- -- -- -- -- --
0000:    00                                              .              
```

#### Opcodes

```
  0: 0x0001 [0x00] END_REQSTACK()
```

### Event 65535.1

#### Metadata

| Field        | Value    |
|--------------|----------|
| Entrypoint   | 0x0002   |
| Data Size    | 19 bytes |
| Instructions | 3        |

```
      00 01 02 03 04 05 06 07  08 09 0A 0B 0C 0D 0E 0F
      -- -- -- -- -- -- -- --  -- -- -- -- -- -- -- --
0000:       1C 00 80 5B 01 80  F8 FF FF 7F F8 FF FF 7F    ...[..........
0010: 69 72 6F 30 00                                    iro0.           
```

#### Opcodes

```
  0: 0x0002 [0x1C] WAIT(400* ticks)
  1: 0x0005 [0x5B] LOAD_EXT_SCHEDULER: Load scheduler "iro0" with entities [EventEntity, EventEntity], work=1328*
  2: 0x0014 [0x00] END_REQSTACK()
```

### Event 65535.2

#### Metadata

| Field        | Value    |
|--------------|----------|
| Entrypoint   | 0x0015   |
| Data Size    | 16 bytes |
| Instructions | 4        |

```
      00 01 02 03 04 05 06 07  08 09 0A 0B 0C 0D 0E 0F
      -- -- -- -- -- -- -- --  -- -- -- -- -- -- -- --
0010:                1C 02 80  6E F8 FF FF 7F 03 80 99       ...n.......
0020: F8 FF FF 7F 00                                    .....           
```

#### Opcodes

```
  0: 0x0015 [0x1C] WAIT(60* ticks)
  1: 0x0018 [0x6E] EventEntity uses emote 26*
  2: 0x001F [0x99] Wait for EventEntity animation to complete
  3: 0x0024 [0x00] END_REQSTACK()
```

### Event 65535.3

#### Metadata

| Field        | Value    |
|--------------|----------|
| Entrypoint   | 0x0025   |
| Data Size    | 21 bytes |
| Instructions | 2        |

```
      00 01 02 03 04 05 06 07  08 09 0A 0B 0C 0D 0E 0F
      -- -- -- -- -- -- -- --  -- -- -- -- -- -- -- --
0020:                B6 0B 04  80 05 80 03 80 03 80 03       ...........
0030: 80 03 80 03 80 06 80 07  80 00                    ..........      
```

#### Opcodes

```
  0: 0x0025 [0xB6] ENTITY_APPEARANCE_HANDLER(case=Full entity look, race=7*, hair=15*, head=26*, body=26*, hands=26*, legs=26*, feet=26*, main=100*, sub=0*)
  1: 0x0039 [0x00] END_REQSTACK()
```

### Event 65535.4

#### Metadata

| Field        | Value    |
|--------------|----------|
| Entrypoint   | 0x003A   |
| Data Size    | 21 bytes |
| Instructions | 2        |

```
      00 01 02 03 04 05 06 07  08 09 0A 0B 0C 0D 0E 0F
      -- -- -- -- -- -- -- --  -- -- -- -- -- -- -- --
0030:                                B6 0B 04 80 08 80            ......
0040: 07 80 09 80 09 80 0A 80  0A 80 07 80 07 80 00     ............... 
```

#### Opcodes

```
  0: 0x003A [0xB6] ENTITY_APPEARANCE_HANDLER(case=Full entity look, race=7*, hair=1*, head=0*, body=11*, hands=11*, legs=162*, feet=162*, main=0*, sub=0*)
  1: 0x004E [0x00] END_REQSTACK()
```

### Event 65535.5

#### Metadata

| Field        | Value    |
|--------------|----------|
| Entrypoint   | 0x004F   |
| Data Size    | 21 bytes |
| Instructions | 2        |

```
      00 01 02 03 04 05 06 07  08 09 0A 0B 0C 0D 0E 0F
      -- -- -- -- -- -- -- --  -- -- -- -- -- -- -- --
0040:                                               B6                 .
0050: 0B 04 80 0B 80 0C 80 0D  80 0D 80 0D 80 0D 80 0E  ................
0060: 80 0E 80 00                                       ....            
```

#### Opcodes

```
  0: 0x004F [0xB6] ENTITY_APPEARANCE_HANDLER(case=Full entity look, race=7*, hair=2*, head=145*, body=219*, hands=219*, legs=219*, feet=219*, main=140*, sub=140*)
  1: 0x0063 [0x00] END_REQSTACK()
```

### Event 65535.6

#### Metadata

| Field        | Value    |
|--------------|----------|
| Entrypoint   | 0x0064   |
| Data Size    | 21 bytes |
| Instructions | 2        |

```
      00 01 02 03 04 05 06 07  08 09 0A 0B 0C 0D 0E 0F
      -- -- -- -- -- -- -- --  -- -- -- -- -- -- -- --
0060:             B6 0B 0F 80  08 80 07 80 10 80 10 80      ............
0070: 10 80 10 80 07 80 07 80  00                       .........       
```

#### Opcodes

```
  0: 0x0064 [0xB6] ENTITY_APPEARANCE_HANDLER(case=Full entity look, race=5*, hair=1*, head=0*, body=29*, hands=29*, legs=29*, feet=29*, main=0*, sub=0*)
  1: 0x0078 [0x00] END_REQSTACK()
```

### Event 65535.7

#### Metadata

| Field        | Value    |
|--------------|----------|
| Entrypoint   | 0x0079   |
| Data Size    | 21 bytes |
| Instructions | 2        |

```
      00 01 02 03 04 05 06 07  08 09 0A 0B 0C 0D 0E 0F
      -- -- -- -- -- -- -- --  -- -- -- -- -- -- -- --
0070:                             B6 0B 04 80 11 80 07           .......
0080: 80 12 80 13 80 14 80 14  80 15 80 07 80 00        ..............  
```

#### Opcodes

```
  0: 0x0079 [0xB6] ENTITY_APPEARANCE_HANDLER(case=Full entity look, race=7*, hair=13*, head=0*, body=45*, hands=16*, legs=14*, feet=14*, main=110*, sub=0*)
  1: 0x008D [0x00] END_REQSTACK()
```

### Event 65535.8

#### Metadata

| Field        | Value    |
|--------------|----------|
| Entrypoint   | 0x008E   |
| Data Size    | 37 bytes |
| Instructions | 9        |

```
      00 01 02 03 04 05 06 07  08 09 0A 0B 0C 0D 0E 0F
      -- -- -- -- -- -- -- --  -- -- -- -- -- -- -- --
0080:                                            32 16                2.
0090: 80 1C 0F 80 1F 00 17 80  18 80 19 80 1F 01 1F 00  ................
00A0: 1A 80 1B 80 19 80 1F 01  1F 00 1C 80 1D 80 19 80  ................
00B0: 1F 01 00                                          ...             
```

#### Opcodes

```
  0: 0x008E [0x32] ExtData[1]->MainSpeed = 43* * 0.1
  1: 0x0091 [0x1C] WAIT(5* ticks)
  2: 0x0094 [0x1F] MOVE_ENTITY: EventEntity moves to X=-296.888*, Z=-13.055*, Y=-48.000*
  3: 0x009C [0x1F] MOVE_ENTITY: Update entity position (mode=1)
  4: 0x009E [0x1F] MOVE_ENTITY: EventEntity moves to X=-301.382*, Z=-12.551*, Y=-48.000*
  5: 0x00A6 [0x1F] MOVE_ENTITY: Update entity position (mode=1)
  6: 0x00A8 [0x1F] MOVE_ENTITY: EventEntity moves to X=-310.204*, Z=-13.154*, Y=-48.000*
  7: 0x00B0 [0x1F] MOVE_ENTITY: Update entity position (mode=1)
  8: 0x00B2 [0x00] END_REQSTACK()
```

### Event 65535.9

#### Metadata

| Field        | Value    |
|--------------|----------|
| Entrypoint   | 0x00B3   |
| Data Size    | 56 bytes |
| Instructions | 12       |

```
      00 01 02 03 04 05 06 07  08 09 0A 0B 0C 0D 0E 0F
      -- -- -- -- -- -- -- --  -- -- -- -- -- -- -- --
00B0:          32 1E 80 1C 1F  80 6C F8 FF FF 7F 20 80     2.....l.... .
00C0: 08 80 1F 00 21 80 22 80  23 80 1F 01 1F 00 24 80  ....!.".#.....$.
00D0: 25 80 23 80 1F 01 1F 00  26 80 27 80 23 80 1F 01  %.#.....&.'.#...
00E0: 1F 00 28 80 29 80 23 80  1F 01 00                 ..(.).#....     
```

#### Opcodes

```
  0: 0x00B3 [0x32] ExtData[1]->MainSpeed = 75* * 0.1
  1: 0x00B6 [0x1C] WAIT(250* ticks)
  2: 0x00B9 [0x6C] FADE_ENTITY_COLOR(entity_id=EventEntity, end_alpha=128*, fade_time=1*)
  3: 0x00C2 [0x1F] MOVE_ENTITY: EventEntity moves to X=-305.482*, Z=-11.921*, Y=-47.999*
  4: 0x00CA [0x1F] MOVE_ENTITY: Update entity position (mode=1)
  5: 0x00CC [0x1F] MOVE_ENTITY: EventEntity moves to X=-298.745*, Z=-4.030*, Y=-47.999*
  6: 0x00D4 [0x1F] MOVE_ENTITY: Update entity position (mode=1)
  7: 0x00D6 [0x1F] MOVE_ENTITY: EventEntity moves to X=-295.994*, Z=1.838*, Y=-47.999*
  8: 0x00DE [0x1F] MOVE_ENTITY: Update entity position (mode=1)
  9: 0x00E0 [0x1F] MOVE_ENTITY: EventEntity moves to X=-295.260*, Z=10.680*, Y=-47.999*
 10: 0x00E8 [0x1F] MOVE_ENTITY: Update entity position (mode=1)
 11: 0x00EA [0x00] END_REQSTACK()
```

### Event 65535.10

#### Metadata

| Field        | Value    |
|--------------|----------|
| Entrypoint   | 0x00EB   |
| Data Size    | 54 bytes |
| Instructions | 12       |

```
      00 01 02 03 04 05 06 07  08 09 0A 0B 0C 0D 0E 0F
      -- -- -- -- -- -- -- --  -- -- -- -- -- -- -- --
00E0:                                   32 2A 80 1F 00             2*...
00F0: 2B 80 2C 80 23 80 1F 01  1F 00 2D 80 2E 80 23 80  +.,.#.....-...#.
0100: 1F 01 1F 00 2F 80 30 80  23 80 1F 01 1F 00 31 80  ..../.0.#.....1.
0110: 32 80 23 80 1F 01 1F 00  33 80 34 80 23 80 1F 01  2.#.....3.4.#...
0120: 00                                                .               
```

#### Opcodes

```
  0: 0x00EB [0x32] ExtData[1]->MainSpeed = 80* * 0.1
  1: 0x00EE [0x1F] MOVE_ENTITY: EventEntity moves to X=-292.520*, Z=-13.074*, Y=-47.999*
  2: 0x00F6 [0x1F] MOVE_ENTITY: Update entity position (mode=1)
  3: 0x00F8 [0x1F] MOVE_ENTITY: EventEntity moves to X=-294.259*, Z=-11.623*, Y=-47.999*
  4: 0x0100 [0x1F] MOVE_ENTITY: Update entity position (mode=1)
  5: 0x0102 [0x1F] MOVE_ENTITY: EventEntity moves to X=-294.725*, Z=-7.673*, Y=-47.999*
  6: 0x010A [0x1F] MOVE_ENTITY: Update entity position (mode=1)
  7: 0x010C [0x1F] MOVE_ENTITY: EventEntity moves to X=-298.746*, Z=5.768*, Y=-47.999*
  8: 0x0114 [0x1F] MOVE_ENTITY: Update entity position (mode=1)
  9: 0x0116 [0x1F] MOVE_ENTITY: EventEntity moves to X=-297.394*, Z=9.983*, Y=-47.999*
 10: 0x011E [0x1F] MOVE_ENTITY: Update entity position (mode=1)
 11: 0x0120 [0x00] END_REQSTACK()
```

### Event 65535.11

#### Metadata

| Field        | Value    |
|--------------|----------|
| Entrypoint   | 0x0121   |
| Data Size    | 10 bytes |
| Instructions | 2        |

```
      00 01 02 03 04 05 06 07  08 09 0A 0B 0C 0D 0E 0F
      -- -- -- -- -- -- -- --  -- -- -- -- -- -- -- --
0120:    6C F8 FF FF 7F 07 80  08 80 00                  l.........     
```

#### Opcodes

```
  0: 0x0121 [0x6C] FADE_ENTITY_COLOR(entity_id=EventEntity, end_alpha=0*, fade_time=1*)
  1: 0x012A [0x00] END_REQSTACK()
```

### Event 65535.12

#### Metadata

| Field        | Value    |
|--------------|----------|
| Entrypoint   | 0x012B   |
| Data Size    | 10 bytes |
| Instructions | 2        |

```
      00 01 02 03 04 05 06 07  08 09 0A 0B 0C 0D 0E 0F
      -- -- -- -- -- -- -- --  -- -- -- -- -- -- -- --
0120:                                   6C F8 FF FF 7F             l....
0130: 20 80 08 80 00                                     ....           
```

#### Opcodes

```
  0: 0x012B [0x6C] FADE_ENTITY_COLOR(entity_id=EventEntity, end_alpha=128*, fade_time=1*)
  1: 0x0134 [0x00] END_REQSTACK()
```

### Event 65535.13

#### Metadata

| Field        | Value   |
|--------------|---------|
| Entrypoint   | 0x0135  |
| Data Size    | 1 bytes |
| Instructions | 1       |

```
      00 01 02 03 04 05 06 07  08 09 0A 0B 0C 0D 0E 0F
      -- -- -- -- -- -- -- --  -- -- -- -- -- -- -- --
0130:                00                                      .          
```

#### Opcodes

```
  0: 0x0135 [0x00] END_REQSTACK()
```

### Event 65535.14

#### Metadata

| Field        | Value    |
|--------------|----------|
| Entrypoint   | 0x0136   |
| Data Size    | 18 bytes |
| Instructions | 4        |

```
      00 01 02 03 04 05 06 07  08 09 0A 0B 0C 0D 0E 0F
      -- -- -- -- -- -- -- --  -- -- -- -- -- -- -- --
0130:                   22 00  2F 00 F8 FF FF 7F 6C F8        "./.....l.
0140: FF FF 7F 07 80 08 80 00                           ........        
```

#### Opcodes

```
  0: 0x0136 [0x22] ENTITY_HIDE_FLAG(enabled=0x00)
  1: 0x0138 [0x2F] EventEntity->Render.Flags0 &= ~0x80000 // Bit 19
  2: 0x013E [0x6C] FADE_ENTITY_COLOR(entity_id=EventEntity, end_alpha=0*, fade_time=1*)
  3: 0x0147 [0x00] END_REQSTACK()
```

### Event 65535.15

#### Metadata

| Field        | Value    |
|--------------|----------|
| Entrypoint   | 0x0148   |
| Data Size    | 10 bytes |
| Instructions | 2        |

```
      00 01 02 03 04 05 06 07  08 09 0A 0B 0C 0D 0E 0F
      -- -- -- -- -- -- -- --  -- -- -- -- -- -- -- --
0140:                          6C F8 FF FF 7F 20 80 08          l.... ..
0150: 80 00                                             ..              
```

#### Opcodes

```
  0: 0x0148 [0x6C] FADE_ENTITY_COLOR(entity_id=EventEntity, end_alpha=128*, fade_time=1*)
  1: 0x0151 [0x00] END_REQSTACK()
```

### Event 65535.16

#### Metadata

| Field        | Value   |
|--------------|---------|
| Entrypoint   | 0x0152  |
| Data Size    | 9 bytes |
| Instructions | 3       |

```
      00 01 02 03 04 05 06 07  08 09 0A 0B 0C 0D 0E 0F
      -- -- -- -- -- -- -- --  -- -- -- -- -- -- -- --
0150:       22 00 2F 00 F8 FF  FF 7F 00                   "./......     
```

#### Opcodes

```
  0: 0x0152 [0x22] ENTITY_HIDE_FLAG(enabled=0x00)
  1: 0x0154 [0x2F] EventEntity->Render.Flags0 &= ~0x80000 // Bit 19
  2: 0x015A [0x00] END_REQSTACK()
```

### Event 65535.17

#### Metadata

| Field        | Value   |
|--------------|---------|
| Entrypoint   | 0x015B  |
| Data Size    | 9 bytes |
| Instructions | 3       |

```
      00 01 02 03 04 05 06 07  08 09 0A 0B 0C 0D 0E 0F
      -- -- -- -- -- -- -- --  -- -- -- -- -- -- -- --
0150:                                   22 01 2F 01 F8             "./..
0160: FF FF 7F 00                                       ....            
```

#### Opcodes

```
  0: 0x015B [0x22] ENTITY_HIDE_FLAG(enabled=0x01)
  1: 0x015D [0x2F] EventEntity->Render.Flags0 |= 0x80000 // Bit 19
  2: 0x0163 [0x00] END_REQSTACK()
```

### Event 65535.18

#### Metadata

| Field        | Value    |
|--------------|----------|
| Entrypoint   | 0x0164   |
| Data Size    | 10 bytes |
| Instructions | 2        |

```
      00 01 02 03 04 05 06 07  08 09 0A 0B 0C 0D 0E 0F
      -- -- -- -- -- -- -- --  -- -- -- -- -- -- -- --
0160:             6C F8 FF FF  7F 07 80 08 80 00            l.........  
```

#### Opcodes

```
  0: 0x0164 [0x6C] FADE_ENTITY_COLOR(entity_id=EventEntity, end_alpha=0*, fade_time=1*)
  1: 0x016D [0x00] END_REQSTACK()
```

### Event 65535.19

#### Metadata

| Field        | Value    |
|--------------|----------|
| Entrypoint   | 0x016E   |
| Data Size    | 10 bytes |
| Instructions | 2        |

```
      00 01 02 03 04 05 06 07  08 09 0A 0B 0C 0D 0E 0F
      -- -- -- -- -- -- -- --  -- -- -- -- -- -- -- --
0160:                                            6C F8                l.
0170: FF FF 7F 20 80 08 80 00                           ... ....        
```

#### Opcodes

```
  0: 0x016E [0x6C] FADE_ENTITY_COLOR(entity_id=EventEntity, end_alpha=128*, fade_time=1*)
  1: 0x0177 [0x00] END_REQSTACK()
```
