# 17167289 - Ghyo Molkot

## Common Data

| Field            | Value                          |
|------------------|--------------------------------|
| Zone             | West Sarutabaruta [S] (ID: 95) |
| Block Size       | 1704 bytes                     |
| Total Events     | 60                             |
| References Count | 107                            |

## List of Events

| Event ID                   | Entrypoint   |   Size |   Instructions |
|----------------------------|--------------|--------|----------------|
| [65535](#event-65535)      | 0x0000       |      1 |              1 |
| [105](#event-105)          | 0x0001       |      1 |              1 |
| [110](#event-110)          | 0x0002       |      1 |              1 |
| [65535.1](#event-655351)   | 0x0003       |     10 |              2 |
| [65535.2](#event-655352)   | 0x000D       |     10 |              2 |
| [65535.3](#event-655353)   | 0x0017       |     14 |              4 |
| [65535.4](#event-655354)   | 0x0025       |     21 |              2 |
| [65535.5](#event-655355)   | 0x003A       |    129 |             23 |
| [65535.6](#event-655356)   | 0x00BB       |     21 |              2 |
| [65535.7](#event-655357)   | 0x00D0       |     21 |              2 |
| [65535.8](#event-655358)   | 0x00E5       |      5 |              2 |
| [65535.9](#event-655359)   | 0x00EA       |      5 |              2 |
| [65535.10](#event-6553510) | 0x00EF       |      5 |              2 |
| [65535.11](#event-6553511) | 0x00F4       |      5 |              2 |
| [65535.12](#event-6553512) | 0x00F9       |      5 |              2 |
| [65535.13](#event-6553513) | 0x00FE       |     34 |              8 |
| [65535.14](#event-6553514) | 0x0120       |     14 |              4 |
| [65535.15](#event-6553515) | 0x012E       |     14 |              4 |
| [65535.16](#event-6553516) | 0x013C       |     24 |              6 |
| [65535.17](#event-6553517) | 0x0154       |     24 |              6 |
| [65535.18](#event-6553518) | 0x016C       |     21 |              2 |
| [65535.19](#event-6553519) | 0x0181       |     21 |              2 |
| [65535.20](#event-6553520) | 0x0196       |     21 |              2 |
| [65535.21](#event-6553521) | 0x01AB       |     25 |              3 |
| [65535.22](#event-6553522) | 0x01C4       |      7 |              2 |
| [65535.23](#event-6553523) | 0x01CB       |     21 |              2 |
| [65535.24](#event-6553524) | 0x01E0       |     21 |              2 |
| [65535.25](#event-6553525) | 0x01F5       |     21 |              2 |
| [65535.26](#event-6553526) | 0x020A       |     14 |              4 |
| [65535.27](#event-6553527) | 0x0218       |     17 |              5 |
| [65535.28](#event-6553528) | 0x0229       |     17 |              5 |
| [107](#event-107)          | 0x023A       |      1 |              1 |
| [112](#event-112)          | 0x023B       |      1 |              1 |
| [65535.29](#event-6553529) | 0x023C       |     21 |              2 |
| [65535.30](#event-6553530) | 0x0251       |     21 |              2 |
| [65535.31](#event-6553531) | 0x0266       |     21 |              2 |
| [65535.32](#event-6553532) | 0x027B       |     21 |              2 |
| [65535.33](#event-6553533) | 0x0290       |     21 |              2 |
| [65535.34](#event-6553534) | 0x02A5       |     21 |              2 |
| [65535.35](#event-6553535) | 0x02BA       |     21 |              2 |
| [65535.36](#event-6553536) | 0x02CF       |     21 |              2 |
| [65535.37](#event-6553537) | 0x02E4       |     21 |              2 |
| [65535.38](#event-6553538) | 0x02F9       |     21 |              2 |
| [65535.39](#event-6553539) | 0x030E       |     18 |              6 |
| [65535.40](#event-6553540) | 0x0320       |     15 |              5 |
| [65535.41](#event-6553541) | 0x032F       |     18 |              6 |
| [65535.42](#event-6553542) | 0x0341       |     18 |              6 |
| [65535.43](#event-6553543) | 0x0353       |     15 |              5 |
| [65535.44](#event-6553544) | 0x0362       |     18 |              6 |
| [65535.45](#event-6553545) | 0x0374       |     15 |              5 |
| [65535.46](#event-6553546) | 0x0383       |     18 |              6 |
| [65535.47](#event-6553547) | 0x0395       |     18 |              6 |
| [65535.48](#event-6553548) | 0x03A7       |     18 |              6 |
| [65535.49](#event-6553549) | 0x03B9       |      1 |              1 |
| [65535.50](#event-6553550) | 0x03BA       |     18 |              4 |
| [65535.51](#event-6553551) | 0x03CC       |     10 |              2 |
| [65535.52](#event-6553552) | 0x03D6       |      9 |              3 |
| [65535.53](#event-6553553) | 0x03DF       |      9 |              3 |
| [65535.54](#event-6553554) | 0x03E8       |     10 |              2 |
| [65535.55](#event-6553555) | 0x03F2       |     10 |              2 |

## DAT References (imed_data)

|   Index | Hex Value   |   Dec Value |
|---------|-------------|-------------|
|       0 | 0x0000      |           0 |
|       1 | 0x0001      |           1 |
|       2 | 0x0080      |         128 |
|       3 | 0x000D      |          13 |
|       4 | 0x8648      |       34376 |
|       5 | 0xFFFF0F93  |  4294905747 |
|       6 | 0xFFFFF63C  |  4294964796 |
|       7 | 0x0005      |           5 |
|       8 | 0x0003      |           3 |
|       9 | 0x0011      |          17 |
|      10 | 0x0031      |          49 |
|      11 | 0x0024      |          36 |
|      12 | 0x0078      |         120 |
|      13 | 0x0019      |          25 |
|      14 | 0x008C      |         140 |
|      15 | 0x0016      |          22 |
|      16 | 0x0028      |          40 |
|      17 | 0x0050      |          80 |
|      18 | 0x00A0      |         160 |
|      19 | 0x0007      |           7 |
|      20 | 0x00B7      |         183 |
|      21 | 0x0089      |         137 |
|      22 | 0x000F      |          15 |
|      23 | 0x00AC      |         172 |
|      24 | 0x002D      |          45 |
|      25 | 0x0010      |          16 |
|      26 | 0x000E      |          14 |
|      27 | 0x006E      |         110 |
|      28 | 0x054F      |        1359 |
|      29 | 0x081C      |        2076 |
|      30 | 0x043C      |        1084 |
|      31 | 0x02F0      |         752 |
|      32 | 0x0875      |        2165 |
|      33 | 0xFFFFAB4C  |  4294945612 |
|      34 | 0x14301     |       82689 |
|      35 | 0xFFFFEC79  |  4294962297 |
|      36 | 0xFFFF804D  |  4294934605 |
|      37 | 0x15B9A     |       88986 |
|      38 | 0xFFFF6D53  |  4294929747 |
|      39 | 0x16D56     |       93526 |
|      40 | 0xFFFF8B4A  |  4294937418 |
|      41 | 0x14C64     |       85092 |
|      42 | 0xFFFFECE5  |  4294962405 |
|      43 | 0xFFFF6C64  |  4294929508 |
|      44 | 0x11D22     |       72994 |
|      45 | 0xFFFFF254  |  4294963796 |
|      46 | 0xFFFF969B  |  4294940315 |
|      47 | 0x150B8     |       86200 |
|      48 | 0xFFFFD871  |  4294957169 |
|      49 | 0x15626     |       87590 |
|      50 | 0x006D      |         109 |
|      51 | 0x0118      |         280 |
|      52 | 0x000A      |          10 |
|      53 | 0x0004      |           4 |
|      54 | 0x000C      |          12 |
|      55 | 0x0081      |         129 |
|      56 | 0x0115      |         277 |
|      57 | 0x0002      |           2 |
|      58 | 0x011C      |         284 |
|      59 | 0xFFFF5FAB  |  4294926251 |
|      60 | 0x1C4F8     |      115960 |
|      61 | 0x001E      |          30 |
|      62 | 0xFFFF6986  |  4294928774 |
|      63 | 0x1C1E2     |      115170 |
|      64 | 0x0064      |         100 |
|      65 | 0x000B      |          11 |
|      66 | 0x011B      |         283 |
|      67 | 0x0072      |         114 |
|      68 | 0x0012      |          18 |
|      69 | 0x0014      |          20 |
|      70 | 0x00E3      |         227 |
|      71 | 0x0027      |          39 |
|      72 | 0x0006      |           6 |
|      73 | 0x0013      |          19 |
|      74 | 0x0025      |          37 |
|      75 | 0x4C744     |      313156 |
|      76 | 0x0B28      |        2856 |
|      77 | 0xFFFFEFAD  |  4294963117 |
|      78 | 0x002A      |          42 |
|      79 | 0x4B998     |      309656 |
|      80 | 0x03DA      |         986 |
|      81 | 0xFFFFEED3  |  4294962899 |
|      82 | 0x4BD92     |      310674 |
|      83 | 0xFFFFFDB5  |  4294966709 |
|      84 | 0xFFFFEF12  |  4294962962 |
|      85 | 0x4C68E     |      312974 |
|      86 | 0x07D3      |        2003 |
|      87 | 0xFFFFEFA2  |  4294963106 |
|      88 | 0x0029      |          41 |
|      89 | 0x4CDBD     |      314813 |
|      90 | 0x01D2      |         466 |
|      91 | 0xFFFFF015  |  4294963221 |
|      92 | 0x4CB7A     |      314234 |
|      93 | 0x1254      |        4692 |
|      94 | 0xFFFFEFC4  |  4294963140 |
|      95 | 0x258D6     |      153814 |
|      96 | 0xFFFFE4AB  |  4294960299 |
|      97 | 0xFFFFF1D3  |  4294963667 |
|      98 | 0x25DB7     |      155063 |
|      99 | 0xFFFFEA66  |  4294961766 |
|     100 | 0xFFFFF0D6  |  4294963414 |
|     101 | 0x29D65     |      171365 |
|     102 | 0xFFFFD074  |  4294955124 |
|     103 | 0xFFFFF485  |  4294964357 |
|     104 | 0x298B3     |      170163 |
|     105 | 0xFFFFCDBE  |  4294954430 |
|     106 | 0xFFFFF580  |  4294964608 |

## Events

### Event 65535

#### Metadata

| Field        | Value   |
|--------------|---------|
| Entrypoint   | 0x0000  |
| Data Size    | 1 bytes |
| Instructions | 1       |

```
      00 01 02 03 04 05 06 07  08 09 0A 0B 0C 0D 0E 0F
      -- -- -- -- -- -- -- --  -- -- -- -- -- -- -- --
0000: 00                                                .               
```

#### Opcodes

```
  0: 0x0000 [0x00] END_REQSTACK()
```

### Event 105

#### Metadata

| Field        | Value   |
|--------------|---------|
| Entrypoint   | 0x0001  |
| Data Size    | 1 bytes |
| Instructions | 1       |

```
      00 01 02 03 04 05 06 07  08 09 0A 0B 0C 0D 0E 0F
      -- -- -- -- -- -- -- --  -- -- -- -- -- -- -- --
0000:    00                                              .              
```

#### Opcodes

```
  0: 0x0001 [0x00] END_REQSTACK()
```

### Event 110

#### Metadata

| Field        | Value   |
|--------------|---------|
| Entrypoint   | 0x0002  |
| Data Size    | 1 bytes |
| Instructions | 1       |

```
      00 01 02 03 04 05 06 07  08 09 0A 0B 0C 0D 0E 0F
      -- -- -- -- -- -- -- --  -- -- -- -- -- -- -- --
0000:       00                                            .             
```

#### Opcodes

```
  0: 0x0002 [0x00] END_REQSTACK()
```

### Event 65535.1

#### Metadata

| Field        | Value    |
|--------------|----------|
| Entrypoint   | 0x0003   |
| Data Size    | 10 bytes |
| Instructions | 2        |

```
      00 01 02 03 04 05 06 07  08 09 0A 0B 0C 0D 0E 0F
      -- -- -- -- -- -- -- --  -- -- -- -- -- -- -- --
0000:          6C F8 FF FF 7F  00 80 01 80 00              l.........   
```

#### Opcodes

```
  0: 0x0003 [0x6C] FADE_ENTITY_COLOR(entity_id=EventEntity, end_alpha=0*, fade_time=1*)
  1: 0x000C [0x00] END_REQSTACK()
```

### Event 65535.2

#### Metadata

| Field        | Value    |
|--------------|----------|
| Entrypoint   | 0x000D   |
| Data Size    | 10 bytes |
| Instructions | 2        |

```
      00 01 02 03 04 05 06 07  08 09 0A 0B 0C 0D 0E 0F
      -- -- -- -- -- -- -- --  -- -- -- -- -- -- -- --
0000:                                         6C F8 FF               l..
0010: FF 7F 02 80 01 80 00                              .......         
```

#### Opcodes

```
  0: 0x000D [0x6C] FADE_ENTITY_COLOR(entity_id=EventEntity, end_alpha=128*, fade_time=1*)
  1: 0x0016 [0x00] END_REQSTACK()
```

### Event 65535.3

#### Metadata

| Field        | Value    |
|--------------|----------|
| Entrypoint   | 0x0017   |
| Data Size    | 14 bytes |
| Instructions | 4        |

```
      00 01 02 03 04 05 06 07  08 09 0A 0B 0C 0D 0E 0F
      -- -- -- -- -- -- -- --  -- -- -- -- -- -- -- --
0010:                      32  03 80 1F 00 04 80 05 80         2........
0020: 06 80 1F 01 00                                    .....           
```

#### Opcodes

```
  0: 0x0017 [0x32] ExtData[1]->MainSpeed = 13* * 0.1
  1: 0x001A [0x1F] MOVE_ENTITY: EventEntity moves to X=34.376*, Z=-61.549*, Y=-2.500*
  2: 0x0022 [0x1F] MOVE_ENTITY: Update entity position (mode=1)
  3: 0x0024 [0x00] END_REQSTACK()
```

### Event 65535.4

#### Metadata

| Field        | Value    |
|--------------|----------|
| Entrypoint   | 0x0025   |
| Data Size    | 21 bytes |
| Instructions | 2        |

```
      00 01 02 03 04 05 06 07  08 09 0A 0B 0C 0D 0E 0F
      -- -- -- -- -- -- -- --  -- -- -- -- -- -- -- --
0020:                B6 0B 07  80 08 80 00 80 09 80 09       ...........
0030: 80 09 80 09 80 00 80 00  80 00                    ..........      
```

#### Opcodes

```
  0: 0x0025 [0xB6] ENTITY_APPEARANCE_HANDLER(case=Full entity look, race=5*, hair=3*, head=0*, body=17*, hands=17*, legs=17*, feet=17*, main=0*, sub=0*)
  1: 0x0039 [0x00] END_REQSTACK()
```

### Event 65535.5

#### Metadata

| Field        | Value     |
|--------------|-----------|
| Entrypoint   | 0x003A    |
| Data Size    | 129 bytes |
| Instructions | 23        |

```
      00 01 02 03 04 05 06 07  08 09 0A 0B 0C 0D 0E 0F
      -- -- -- -- -- -- -- --  -- -- -- -- -- -- -- --
0030:                                66 0A 80 F8 FF FF            f.....
0040: 7F F8 FF FF 7F 74 6C 6B  31 53 F8 FF FF 7F F8 FF  .....tlk1S......
0050: FF 7F 74 6C 6B 31 6E F8  FF FF 7F 0B 80 99 F8 FF  ..tlk1n.........
0060: FF 7F 1C 0C 80 1E 8B F3  05 01 6F 76 F8 FF FF 7F  ..........ov....
0070: 6E F8 FF FF 7F 0D 80 99  F8 FF FF 7F 1C 0E 80 6E  n..............n
0080: 8F F3 05 01 0F 80 99 8F  F3 05 01 1C 10 80 1E 8F  ................
0090: F3 05 01 6F 76 F8 FF FF  7F 1C 11 80 6E F8 FF FF  ...ov.......n...
00A0: 7F 00 80 99 F8 FF FF 7F  1C 12 80 66 0A 80 F8 FF  ...........f....
00B0: FF 7F F8 FF FF 7F 74 6C  6B 30 00                 ......tlk0.     
```

#### Opcodes

```
  0: 0x003A [0x66] LOAD_EXT_SCHEDULER_MAIN: Load scheduler "tlk1" with entities [EventEntity, EventEntity], work=49*
  1: 0x0049 [0x53] WAIT_SCHEDULER_TASK: Wait for scheduler "tlk1" with entities [EventEntity, EventEntity]
  2: 0x0056 [0x6E] EventEntity uses emote 36*
  3: 0x005D [0x99] Wait for EventEntity animation to complete
  4: 0x0062 [0x1C] WAIT(120* ticks)
  5: 0x0065 [0x1E] EventEntity looks at Mikhe Aryohcha (ID: 17167243/0x0105F38B) and starts talking
  6: 0x006A [0x6F] WAIT_FRAME_DELAY: Yield until WaitTime reaches zero
  7: 0x006B [0x76] CHECK_ENTITY_RENDER_FLAGS: Wait until EventEntity Render.Flags0 and Render.Flags3 conditions are met
  8: 0x0070 [0x6E] EventEntity uses emote 25*
  9: 0x0077 [0x99] Wait for EventEntity animation to complete
 10: 0x007C [0x1C] WAIT(140* ticks)
 11: 0x007F [0x6E] Lutete (ID: 17167247/0x0105F38F) uses emote 22*
 12: 0x0086 [0x99] Wait for Lutete (ID: 17167247/0x0105F38F) animation to complete
 13: 0x008B [0x1C] WAIT(40* ticks)
 14: 0x008E [0x1E] EventEntity looks at Lutete (ID: 17167247/0x0105F38F) and starts talking
 15: 0x0093 [0x6F] WAIT_FRAME_DELAY: Yield until WaitTime reaches zero
 16: 0x0094 [0x76] CHECK_ENTITY_RENDER_FLAGS: Wait until EventEntity Render.Flags0 and Render.Flags3 conditions are met
 17: 0x0099 [0x1C] WAIT(80* ticks)
 18: 0x009C [0x6E] EventEntity uses emote 0*
 19: 0x00A3 [0x99] Wait for EventEntity animation to complete
 20: 0x00A8 [0x1C] WAIT(160* ticks)
 21: 0x00AB [0x66] LOAD_EXT_SCHEDULER_MAIN: Load scheduler "tlk0" with entities [EventEntity, EventEntity], work=49*
 22: 0x00BA [0x00] END_REQSTACK()
```

### Event 65535.6

#### Metadata

| Field        | Value    |
|--------------|----------|
| Entrypoint   | 0x00BB   |
| Data Size    | 21 bytes |
| Instructions | 2        |

```
      00 01 02 03 04 05 06 07  08 09 0A 0B 0C 0D 0E 0F
      -- -- -- -- -- -- -- --  -- -- -- -- -- -- -- --
00B0:                                   B6 0B 13 80 01             .....
00C0: 80 14 80 15 80 14 80 16  80 17 80 10 80 00 80 00  ................
```

#### Opcodes

```
  0: 0x00BB [0xB6] ENTITY_APPEARANCE_HANDLER(case=Full entity look, race=7*, hair=1*, head=183*, body=137*, hands=183*, legs=15*, feet=172*, main=40*, sub=0*)
  1: 0x00CF [0x00] END_REQSTACK()
```

### Event 65535.7

#### Metadata

| Field        | Value    |
|--------------|----------|
| Entrypoint   | 0x00D0   |
| Data Size    | 21 bytes |
| Instructions | 2        |

```
      00 01 02 03 04 05 06 07  08 09 0A 0B 0C 0D 0E 0F
      -- -- -- -- -- -- -- --  -- -- -- -- -- -- -- --
00D0: B6 0B 13 80 03 80 00 80  18 80 19 80 1A 80 1A 80  ................
00E0: 1B 80 00 80 00                                    .....           
```

#### Opcodes

```
  0: 0x00D0 [0xB6] ENTITY_APPEARANCE_HANDLER(case=Full entity look, race=7*, hair=13*, head=0*, body=45*, hands=16*, legs=14*, feet=14*, main=110*, sub=0*)
  1: 0x00E4 [0x00] END_REQSTACK()
```

### Event 65535.8

#### Metadata

| Field        | Value   |
|--------------|---------|
| Entrypoint   | 0x00E5  |
| Data Size    | 5 bytes |
| Instructions | 2       |

```
      00 01 02 03 04 05 06 07  08 09 0A 0B 0C 0D 0E 0F
      -- -- -- -- -- -- -- --  -- -- -- -- -- -- -- --
00E0:                B6 00 1C  80 00                         .....      
```

#### Opcodes

```
  0: 0x00E5 [0xB6] ENTITY_APPEARANCE_HANDLER(case=Hair style, value=1359*)
  1: 0x00E9 [0x00] END_REQSTACK()
```

### Event 65535.9

#### Metadata

| Field        | Value   |
|--------------|---------|
| Entrypoint   | 0x00EA  |
| Data Size    | 5 bytes |
| Instructions | 2       |

```
      00 01 02 03 04 05 06 07  08 09 0A 0B 0C 0D 0E 0F
      -- -- -- -- -- -- -- --  -- -- -- -- -- -- -- --
00E0:                                B6 00 1D 80 00               ..... 
```

#### Opcodes

```
  0: 0x00EA [0xB6] ENTITY_APPEARANCE_HANDLER(case=Hair style, value=2076*)
  1: 0x00EE [0x00] END_REQSTACK()
```

### Event 65535.10

#### Metadata

| Field        | Value   |
|--------------|---------|
| Entrypoint   | 0x00EF  |
| Data Size    | 5 bytes |
| Instructions | 2       |

```
      00 01 02 03 04 05 06 07  08 09 0A 0B 0C 0D 0E 0F
      -- -- -- -- -- -- -- --  -- -- -- -- -- -- -- --
00E0:                                               B6                 .
00F0: 00 1E 80 00                                       ....            
```

#### Opcodes

```
  0: 0x00EF [0xB6] ENTITY_APPEARANCE_HANDLER(case=Hair style, value=1084*)
  1: 0x00F3 [0x00] END_REQSTACK()
```

### Event 65535.11

#### Metadata

| Field        | Value   |
|--------------|---------|
| Entrypoint   | 0x00F4  |
| Data Size    | 5 bytes |
| Instructions | 2       |

```
      00 01 02 03 04 05 06 07  08 09 0A 0B 0C 0D 0E 0F
      -- -- -- -- -- -- -- --  -- -- -- -- -- -- -- --
00F0:             B6 00 1F 80  00                           .....       
```

#### Opcodes

```
  0: 0x00F4 [0xB6] ENTITY_APPEARANCE_HANDLER(case=Hair style, value=752*)
  1: 0x00F8 [0x00] END_REQSTACK()
```

### Event 65535.12

#### Metadata

| Field        | Value   |
|--------------|---------|
| Entrypoint   | 0x00F9  |
| Data Size    | 5 bytes |
| Instructions | 2       |

```
      00 01 02 03 04 05 06 07  08 09 0A 0B 0C 0D 0E 0F
      -- -- -- -- -- -- -- --  -- -- -- -- -- -- -- --
00F0:                             B6 00 20 80 00                 .. ..  
```

#### Opcodes

```
  0: 0x00F9 [0xB6] ENTITY_APPEARANCE_HANDLER(case=Hair style, value=2165*)
  1: 0x00FD [0x00] END_REQSTACK()
```

### Event 65535.13

#### Metadata

| Field        | Value    |
|--------------|----------|
| Entrypoint   | 0x00FE   |
| Data Size    | 34 bytes |
| Instructions | 8        |

```
      00 01 02 03 04 05 06 07  08 09 0A 0B 0C 0D 0E 0F
      -- -- -- -- -- -- -- --  -- -- -- -- -- -- -- --
00F0:                                            32 10                2.
0100: 80 1F 00 21 80 22 80 23  80 1F 01 1F 00 24 80 25  ...!.".#.....$.%
0110: 80 23 80 1F 01 1F 00 26  80 27 80 23 80 1F 01 00  .#.....&.'.#....
```

#### Opcodes

```
  0: 0x00FE [0x32] ExtData[1]->MainSpeed = 40* * 0.1
  1: 0x0101 [0x1F] MOVE_ENTITY: EventEntity moves to X=-21.684*, Z=82.689*, Y=-4.999*
  2: 0x0109 [0x1F] MOVE_ENTITY: Update entity position (mode=1)
  3: 0x010B [0x1F] MOVE_ENTITY: EventEntity moves to X=-32.691*, Z=88.986*, Y=-4.999*
  4: 0x0113 [0x1F] MOVE_ENTITY: Update entity position (mode=1)
  5: 0x0115 [0x1F] MOVE_ENTITY: EventEntity moves to X=-37.549*, Z=93.526*, Y=-4.999*
  6: 0x011D [0x1F] MOVE_ENTITY: Update entity position (mode=1)
  7: 0x011F [0x00] END_REQSTACK()
```

### Event 65535.14

#### Metadata

| Field        | Value    |
|--------------|----------|
| Entrypoint   | 0x0120   |
| Data Size    | 14 bytes |
| Instructions | 4        |

```
      00 01 02 03 04 05 06 07  08 09 0A 0B 0C 0D 0E 0F
      -- -- -- -- -- -- -- --  -- -- -- -- -- -- -- --
0120: 32 10 80 1F 00 28 80 29  80 2A 80 1F 01 00        2....(.).*....  
```

#### Opcodes

```
  0: 0x0120 [0x32] ExtData[1]->MainSpeed = 40* * 0.1
  1: 0x0123 [0x1F] MOVE_ENTITY: EventEntity moves to X=-29.878*, Z=85.092*, Y=-4.891*
  2: 0x012B [0x1F] MOVE_ENTITY: Update entity position (mode=1)
  3: 0x012D [0x00] END_REQSTACK()
```

### Event 65535.15

#### Metadata

| Field        | Value    |
|--------------|----------|
| Entrypoint   | 0x012E   |
| Data Size    | 14 bytes |
| Instructions | 4        |

```
      00 01 02 03 04 05 06 07  08 09 0A 0B 0C 0D 0E 0F
      -- -- -- -- -- -- -- --  -- -- -- -- -- -- -- --
0120:                                            32 10                2.
0130: 80 1F 00 2B 80 2C 80 2D  80 1F 01 00              ...+.,.-....    
```

#### Opcodes

```
  0: 0x012E [0x32] ExtData[1]->MainSpeed = 40* * 0.1
  1: 0x0131 [0x1F] MOVE_ENTITY: EventEntity moves to X=-37.788*, Z=72.994*, Y=-3.500*
  2: 0x0139 [0x1F] MOVE_ENTITY: Update entity position (mode=1)
  3: 0x013B [0x00] END_REQSTACK()
```

### Event 65535.16

#### Metadata

| Field        | Value    |
|--------------|----------|
| Entrypoint   | 0x013C   |
| Data Size    | 24 bytes |
| Instructions | 6        |

```
      00 01 02 03 04 05 06 07  08 09 0A 0B 0C 0D 0E 0F
      -- -- -- -- -- -- -- --  -- -- -- -- -- -- -- --
0130:                                      32 10 80 1F              2...
0140: 00 2E 80 2F 80 23 80 1F  01 1F 00 30 80 31 80 23  .../.#.....0.1.#
0150: 80 1F 01 00                                       ....            
```

#### Opcodes

```
  0: 0x013C [0x32] ExtData[1]->MainSpeed = 40* * 0.1
  1: 0x013F [0x1F] MOVE_ENTITY: EventEntity moves to X=-26.981*, Z=86.200*, Y=-4.999*
  2: 0x0147 [0x1F] MOVE_ENTITY: Update entity position (mode=1)
  3: 0x0149 [0x1F] MOVE_ENTITY: EventEntity moves to X=-10.127*, Z=87.590*, Y=-4.999*
  4: 0x0151 [0x1F] MOVE_ENTITY: Update entity position (mode=1)
  5: 0x0153 [0x00] END_REQSTACK()
```

### Event 65535.17

#### Metadata

| Field        | Value    |
|--------------|----------|
| Entrypoint   | 0x0154   |
| Data Size    | 24 bytes |
| Instructions | 6        |

```
      00 01 02 03 04 05 06 07  08 09 0A 0B 0C 0D 0E 0F
      -- -- -- -- -- -- -- --  -- -- -- -- -- -- -- --
0150:             32 10 80 1F  00 2E 80 2F 80 23 80 1F      2....../.#..
0160: 01 1F 00 30 80 31 80 23  80 1F 01 00              ...0.1.#....    
```

#### Opcodes

```
  0: 0x0154 [0x32] ExtData[1]->MainSpeed = 40* * 0.1
  1: 0x0157 [0x1F] MOVE_ENTITY: EventEntity moves to X=-26.981*, Z=86.200*, Y=-4.999*
  2: 0x015F [0x1F] MOVE_ENTITY: Update entity position (mode=1)
  3: 0x0161 [0x1F] MOVE_ENTITY: EventEntity moves to X=-10.127*, Z=87.590*, Y=-4.999*
  4: 0x0169 [0x1F] MOVE_ENTITY: Update entity position (mode=1)
  5: 0x016B [0x00] END_REQSTACK()
```

### Event 65535.18

#### Metadata

| Field        | Value    |
|--------------|----------|
| Entrypoint   | 0x016C   |
| Data Size    | 21 bytes |
| Instructions | 2        |

```
      00 01 02 03 04 05 06 07  08 09 0A 0B 0C 0D 0E 0F
      -- -- -- -- -- -- -- --  -- -- -- -- -- -- -- --
0160:                                      B6 0B 07 80              ....
0170: 08 80 32 80 32 80 32 80  32 80 32 80 33 80 00 80  ..2.2.2.2.2.3...
0180: 00                                                .               
```

#### Opcodes

```
  0: 0x016C [0xB6] ENTITY_APPEARANCE_HANDLER(case=Full entity look, race=5*, hair=3*, head=109*, body=109*, hands=109*, legs=109*, feet=109*, main=280*, sub=0*)
  1: 0x0180 [0x00] END_REQSTACK()
```

### Event 65535.19

#### Metadata

| Field        | Value    |
|--------------|----------|
| Entrypoint   | 0x0181   |
| Data Size    | 21 bytes |
| Instructions | 2        |

```
      00 01 02 03 04 05 06 07  08 09 0A 0B 0C 0D 0E 0F
      -- -- -- -- -- -- -- --  -- -- -- -- -- -- -- --
0180:    B6 0B 07 80 13 80 32  80 32 80 32 80 32 80 32   ......2.2.2.2.2
0190: 80 33 80 00 80 00                                 .3....          
```

#### Opcodes

```
  0: 0x0181 [0xB6] ENTITY_APPEARANCE_HANDLER(case=Full entity look, race=5*, hair=7*, head=109*, body=109*, hands=109*, legs=109*, feet=109*, main=280*, sub=0*)
  1: 0x0195 [0x00] END_REQSTACK()
```

### Event 65535.20

#### Metadata

| Field        | Value    |
|--------------|----------|
| Entrypoint   | 0x0196   |
| Data Size    | 21 bytes |
| Instructions | 2        |

```
      00 01 02 03 04 05 06 07  08 09 0A 0B 0C 0D 0E 0F
      -- -- -- -- -- -- -- --  -- -- -- -- -- -- -- --
0190:                   B6 0B  07 80 34 80 32 80 32 80        ....4.2.2.
01A0: 32 80 32 80 32 80 33 80  00 80 00                 2.2.2.3....     
```

#### Opcodes

```
  0: 0x0196 [0xB6] ENTITY_APPEARANCE_HANDLER(case=Full entity look, race=5*, hair=10*, head=109*, body=109*, hands=109*, legs=109*, feet=109*, main=280*, sub=0*)
  1: 0x01AA [0x00] END_REQSTACK()
```

### Event 65535.21

#### Metadata

| Field        | Value    |
|--------------|----------|
| Entrypoint   | 0x01AB   |
| Data Size    | 25 bytes |
| Instructions | 3        |

```
      00 01 02 03 04 05 06 07  08 09 0A 0B 0C 0D 0E 0F
      -- -- -- -- -- -- -- --  -- -- -- -- -- -- -- --
01A0:                                   7E 06 F8 FF FF             ~....
01B0: 7F 35 80 00 80 01 80 01  80 01 80 01 80 7E 04 F8  .5...........~..
01C0: FF FF 7F 00                                       ....            
```

#### Opcodes

```
  0: 0x01AB [0x7E] CHOCOBO_MOUNT: Mode 6 (custom mount) on EventEntity
  1: 0x01BD [0x7E] CHOCOBO_MOUNT: Mode 4 on EventEntity
  2: 0x01C3 [0x00] END_REQSTACK()
```

### Event 65535.22

#### Metadata

| Field        | Value   |
|--------------|---------|
| Entrypoint   | 0x01C4  |
| Data Size    | 7 bytes |
| Instructions | 2       |

```
      00 01 02 03 04 05 06 07  08 09 0A 0B 0C 0D 0E 0F
      -- -- -- -- -- -- -- --  -- -- -- -- -- -- -- --
01C0:             7E 05 F8 FF  FF 7F 00                     ~......     
```

#### Opcodes

```
  0: 0x01C4 [0x7E] CHOCOBO_MOUNT: Dismount EventEntity (status = 0)
  1: 0x01CA [0x00] END_REQSTACK()
```

### Event 65535.23

#### Metadata

| Field        | Value    |
|--------------|----------|
| Entrypoint   | 0x01CB   |
| Data Size    | 21 bytes |
| Instructions | 2        |

```
      00 01 02 03 04 05 06 07  08 09 0A 0B 0C 0D 0E 0F
      -- -- -- -- -- -- -- --  -- -- -- -- -- -- -- --
01C0:                                   B6 0B 13 80 07             .....
01D0: 80 15 80 15 80 19 80 1A  80 1A 80 1B 80 00 80 00  ................
```

#### Opcodes

```
  0: 0x01CB [0xB6] ENTITY_APPEARANCE_HANDLER(case=Full entity look, race=7*, hair=5*, head=137*, body=137*, hands=16*, legs=14*, feet=14*, main=110*, sub=0*)
  1: 0x01DF [0x00] END_REQSTACK()
```

### Event 65535.24

#### Metadata

| Field        | Value    |
|--------------|----------|
| Entrypoint   | 0x01E0   |
| Data Size    | 21 bytes |
| Instructions | 2        |

```
      00 01 02 03 04 05 06 07  08 09 0A 0B 0C 0D 0E 0F
      -- -- -- -- -- -- -- --  -- -- -- -- -- -- -- --
01E0: B6 0B 13 80 36 80 15 80  15 80 19 80 1A 80 37 80  ....6.........7.
01F0: 38 80 00 80 00                                    8....           
```

#### Opcodes

```
  0: 0x01E0 [0xB6] ENTITY_APPEARANCE_HANDLER(case=Full entity look, race=7*, hair=12*, head=137*, body=137*, hands=16*, legs=14*, feet=129*, main=277*, sub=0*)
  1: 0x01F4 [0x00] END_REQSTACK()
```

### Event 65535.25

#### Metadata

| Field        | Value    |
|--------------|----------|
| Entrypoint   | 0x01F5   |
| Data Size    | 21 bytes |
| Instructions | 2        |

```
      00 01 02 03 04 05 06 07  08 09 0A 0B 0C 0D 0E 0F
      -- -- -- -- -- -- -- --  -- -- -- -- -- -- -- --
01F0:                B6 0B 13  80 39 80 15 80 15 80 19       ....9......
0200: 80 1A 80 37 80 3A 80 00  80 00                    ...7.:....      
```

#### Opcodes

```
  0: 0x01F5 [0xB6] ENTITY_APPEARANCE_HANDLER(case=Full entity look, race=7*, hair=2*, head=137*, body=137*, hands=16*, legs=14*, feet=129*, main=284*, sub=0*)
  1: 0x0209 [0x00] END_REQSTACK()
```

### Event 65535.26

#### Metadata

| Field        | Value    |
|--------------|----------|
| Entrypoint   | 0x020A   |
| Data Size    | 14 bytes |
| Instructions | 4        |

```
      00 01 02 03 04 05 06 07  08 09 0A 0B 0C 0D 0E 0F
      -- -- -- -- -- -- -- --  -- -- -- -- -- -- -- --
0200:                                32 11 80 1F 00 3B            2....;
0210: 80 3C 80 23 80 1F 01 00                           .<.#....        
```

#### Opcodes

```
  0: 0x020A [0x32] ExtData[1]->MainSpeed = 80* * 0.1
  1: 0x020D [0x1F] MOVE_ENTITY: EventEntity moves to X=-41.045*, Z=115.960*, Y=-4.999*
  2: 0x0215 [0x1F] MOVE_ENTITY: Update entity position (mode=1)
  3: 0x0217 [0x00] END_REQSTACK()
```

### Event 65535.27

#### Metadata

| Field        | Value    |
|--------------|----------|
| Entrypoint   | 0x0218   |
| Data Size    | 17 bytes |
| Instructions | 5        |

```
      00 01 02 03 04 05 06 07  08 09 0A 0B 0C 0D 0E 0F
      -- -- -- -- -- -- -- --  -- -- -- -- -- -- -- --
0210:                          32 11 80 1C 3D 80 1F 00          2...=...
0220: 3B 80 3C 80 23 80 1F 01  00                       ;.<.#....       
```

#### Opcodes

```
  0: 0x0218 [0x32] ExtData[1]->MainSpeed = 80* * 0.1
  1: 0x021B [0x1C] WAIT(30* ticks)
  2: 0x021E [0x1F] MOVE_ENTITY: EventEntity moves to X=-41.045*, Z=115.960*, Y=-4.999*
  3: 0x0226 [0x1F] MOVE_ENTITY: Update entity position (mode=1)
  4: 0x0228 [0x00] END_REQSTACK()
```

### Event 65535.28

#### Metadata

| Field        | Value    |
|--------------|----------|
| Entrypoint   | 0x0229   |
| Data Size    | 17 bytes |
| Instructions | 5        |

```
      00 01 02 03 04 05 06 07  08 09 0A 0B 0C 0D 0E 0F
      -- -- -- -- -- -- -- --  -- -- -- -- -- -- -- --
0220:                             1C 16 80 32 11 80 1F           ...2...
0230: 00 3E 80 3F 80 23 80 1F  01 00                    .>.?.#....      
```

#### Opcodes

```
  0: 0x0229 [0x1C] WAIT(15* ticks)
  1: 0x022C [0x32] ExtData[1]->MainSpeed = 80* * 0.1
  2: 0x022F [0x1F] MOVE_ENTITY: EventEntity moves to X=-38.522*, Z=115.170*, Y=-4.999*
  3: 0x0237 [0x1F] MOVE_ENTITY: Update entity position (mode=1)
  4: 0x0239 [0x00] END_REQSTACK()
```

### Event 107

#### Metadata

| Field        | Value   |
|--------------|---------|
| Entrypoint   | 0x023A  |
| Data Size    | 1 bytes |
| Instructions | 1       |

```
      00 01 02 03 04 05 06 07  08 09 0A 0B 0C 0D 0E 0F
      -- -- -- -- -- -- -- --  -- -- -- -- -- -- -- --
0230:                                00                           .     
```

#### Opcodes

```
  0: 0x023A [0x00] END_REQSTACK()
```

### Event 112

#### Metadata

| Field        | Value   |
|--------------|---------|
| Entrypoint   | 0x023B  |
| Data Size    | 1 bytes |
| Instructions | 1       |

```
      00 01 02 03 04 05 06 07  08 09 0A 0B 0C 0D 0E 0F
      -- -- -- -- -- -- -- --  -- -- -- -- -- -- -- --
0230:                                   00                         .    
```

#### Opcodes

```
  0: 0x023B [0x00] END_REQSTACK()
```

### Event 65535.29

#### Metadata

| Field        | Value    |
|--------------|----------|
| Entrypoint   | 0x023C   |
| Data Size    | 21 bytes |
| Instructions | 2        |

```
      00 01 02 03 04 05 06 07  08 09 0A 0B 0C 0D 0E 0F
      -- -- -- -- -- -- -- --  -- -- -- -- -- -- -- --
0230:                                      B6 0B 13 80              ....
0240: 07 80 15 80 19 80 19 80  1A 80 03 80 40 80 00 80  ............@...
0250: 00                                                .               
```

#### Opcodes

```
  0: 0x023C [0xB6] ENTITY_APPEARANCE_HANDLER(case=Full entity look, race=7*, hair=5*, head=137*, body=16*, hands=16*, legs=14*, feet=13*, main=100*, sub=0*)
  1: 0x0250 [0x00] END_REQSTACK()
```

### Event 65535.30

#### Metadata

| Field        | Value    |
|--------------|----------|
| Entrypoint   | 0x0251   |
| Data Size    | 21 bytes |
| Instructions | 2        |

```
      00 01 02 03 04 05 06 07  08 09 0A 0B 0C 0D 0E 0F
      -- -- -- -- -- -- -- --  -- -- -- -- -- -- -- --
0250:    B6 0B 13 80 41 80 15  80 19 80 19 80 1A 80 19   ....A..........
0260: 80 42 80 00 80 00                                 .B....          
```

#### Opcodes

```
  0: 0x0251 [0xB6] ENTITY_APPEARANCE_HANDLER(case=Full entity look, race=7*, hair=11*, head=137*, body=16*, hands=16*, legs=14*, feet=16*, main=283*, sub=0*)
  1: 0x0265 [0x00] END_REQSTACK()
```

### Event 65535.31

#### Metadata

| Field        | Value    |
|--------------|----------|
| Entrypoint   | 0x0266   |
| Data Size    | 21 bytes |
| Instructions | 2        |

```
      00 01 02 03 04 05 06 07  08 09 0A 0B 0C 0D 0E 0F
      -- -- -- -- -- -- -- --  -- -- -- -- -- -- -- --
0260:                   B6 0B  13 80 16 80 43 80 16 80        ......C...
0270: 19 80 1A 80 03 80 40 80  00 80 00                 ......@....     
```

#### Opcodes

```
  0: 0x0266 [0xB6] ENTITY_APPEARANCE_HANDLER(case=Full entity look, race=7*, hair=15*, head=114*, body=15*, hands=16*, legs=14*, feet=13*, main=100*, sub=0*)
  1: 0x027A [0x00] END_REQSTACK()
```

### Event 65535.32

#### Metadata

| Field        | Value    |
|--------------|----------|
| Entrypoint   | 0x027B   |
| Data Size    | 21 bytes |
| Instructions | 2        |

```
      00 01 02 03 04 05 06 07  08 09 0A 0B 0C 0D 0E 0F
      -- -- -- -- -- -- -- --  -- -- -- -- -- -- -- --
0270:                                   B6 0B 13 80 08             .....
0280: 80 43 80 16 80 19 80 19  80 03 80 42 80 00 80 00  .C.........B....
```

#### Opcodes

```
  0: 0x027B [0xB6] ENTITY_APPEARANCE_HANDLER(case=Full entity look, race=7*, hair=3*, head=114*, body=15*, hands=16*, legs=16*, feet=13*, main=283*, sub=0*)
  1: 0x028F [0x00] END_REQSTACK()
```

### Event 65535.33

#### Metadata

| Field        | Value    |
|--------------|----------|
| Entrypoint   | 0x0290   |
| Data Size    | 21 bytes |
| Instructions | 2        |

```
      00 01 02 03 04 05 06 07  08 09 0A 0B 0C 0D 0E 0F
      -- -- -- -- -- -- -- --  -- -- -- -- -- -- -- --
0290: B6 0B 13 80 39 80 15 80  1B 80 19 80 19 80 03 80  ....9...........
02A0: 40 80 00 80 00                                    @....           
```

#### Opcodes

```
  0: 0x0290 [0xB6] ENTITY_APPEARANCE_HANDLER(case=Full entity look, race=7*, hair=2*, head=137*, body=110*, hands=16*, legs=16*, feet=13*, main=100*, sub=0*)
  1: 0x02A4 [0x00] END_REQSTACK()
```

### Event 65535.34

#### Metadata

| Field        | Value    |
|--------------|----------|
| Entrypoint   | 0x02A5   |
| Data Size    | 21 bytes |
| Instructions | 2        |

```
      00 01 02 03 04 05 06 07  08 09 0A 0B 0C 0D 0E 0F
      -- -- -- -- -- -- -- --  -- -- -- -- -- -- -- --
02A0:                B6 0B 07  80 07 80 44 80 45 80 45       ......D.E.E
02B0: 80 45 80 45 80 46 80 47  80 00                    .E.E.F.G..      
```

#### Opcodes

```
  0: 0x02A5 [0xB6] ENTITY_APPEARANCE_HANDLER(case=Full entity look, race=5*, hair=5*, head=18*, body=20*, hands=20*, legs=20*, feet=20*, main=227*, sub=39*)
  1: 0x02B9 [0x00] END_REQSTACK()
```

### Event 65535.35

#### Metadata

| Field        | Value    |
|--------------|----------|
| Entrypoint   | 0x02BA   |
| Data Size    | 21 bytes |
| Instructions | 2        |

```
      00 01 02 03 04 05 06 07  08 09 0A 0B 0C 0D 0E 0F
      -- -- -- -- -- -- -- --  -- -- -- -- -- -- -- --
02B0:                                B6 0B 48 80 41 80            ..H.A.
02C0: 44 80 45 80 45 80 45 80  45 80 46 80 47 80 00     D.E.E.E.E.F.G.. 
```

#### Opcodes

```
  0: 0x02BA [0xB6] ENTITY_APPEARANCE_HANDLER(case=Full entity look, race=6*, hair=11*, head=18*, body=20*, hands=20*, legs=20*, feet=20*, main=227*, sub=39*)
  1: 0x02CE [0x00] END_REQSTACK()
```

### Event 65535.36

#### Metadata

| Field        | Value    |
|--------------|----------|
| Entrypoint   | 0x02CF   |
| Data Size    | 21 bytes |
| Instructions | 2        |

```
      00 01 02 03 04 05 06 07  08 09 0A 0B 0C 0D 0E 0F
      -- -- -- -- -- -- -- --  -- -- -- -- -- -- -- --
02C0:                                               B6                 .
02D0: 0B 07 80 16 80 44 80 45  80 45 80 45 80 45 80 46  .....D.E.E.E.E.F
02E0: 80 47 80 00                                       .G..            
```

#### Opcodes

```
  0: 0x02CF [0xB6] ENTITY_APPEARANCE_HANDLER(case=Full entity look, race=5*, hair=15*, head=18*, body=20*, hands=20*, legs=20*, feet=20*, main=227*, sub=39*)
  1: 0x02E3 [0x00] END_REQSTACK()
```

### Event 65535.37

#### Metadata

| Field        | Value    |
|--------------|----------|
| Entrypoint   | 0x02E4   |
| Data Size    | 21 bytes |
| Instructions | 2        |

```
      00 01 02 03 04 05 06 07  08 09 0A 0B 0C 0D 0E 0F
      -- -- -- -- -- -- -- --  -- -- -- -- -- -- -- --
02E0:             B6 0B 07 80  08 80 00 80 41 80 49 80      ........A.I.
02F0: 49 80 49 80 00 80 00 80  00                       I.I......       
```

#### Opcodes

```
  0: 0x02E4 [0xB6] ENTITY_APPEARANCE_HANDLER(case=Full entity look, race=5*, hair=3*, head=0*, body=11*, hands=19*, legs=19*, feet=19*, main=0*, sub=0*)
  1: 0x02F8 [0x00] END_REQSTACK()
```

### Event 65535.38

#### Metadata

| Field        | Value    |
|--------------|----------|
| Entrypoint   | 0x02F9   |
| Data Size    | 21 bytes |
| Instructions | 2        |

```
      00 01 02 03 04 05 06 07  08 09 0A 0B 0C 0D 0E 0F
      -- -- -- -- -- -- -- --  -- -- -- -- -- -- -- --
02F0:                             B6 0B 48 80 39 80 00           ..H.9..
0300: 80 41 80 49 80 49 80 49  80 00 80 00 80 00        .A.I.I.I......  
```

#### Opcodes

```
  0: 0x02F9 [0xB6] ENTITY_APPEARANCE_HANDLER(case=Full entity look, race=6*, hair=2*, head=0*, body=11*, hands=19*, legs=19*, feet=19*, main=0*, sub=0*)
  1: 0x030D [0x00] END_REQSTACK()
```

### Event 65535.39

#### Metadata

| Field        | Value    |
|--------------|----------|
| Entrypoint   | 0x030E   |
| Data Size    | 18 bytes |
| Instructions | 6        |

```
      00 01 02 03 04 05 06 07  08 09 0A 0B 0C 0D 0E 0F
      -- -- -- -- -- -- -- --  -- -- -- -- -- -- -- --
0300:                                            1C 34                .4
0310: 80 32 4A 80 1F 00 4B 80  4C 80 4D 80 1F 01 6F 00  .2J...K.L.M...o.
```

#### Opcodes

```
  0: 0x030E [0x1C] WAIT(10* ticks)
  1: 0x0311 [0x32] ExtData[1]->MainSpeed = 37* * 0.1
  2: 0x0314 [0x1F] MOVE_ENTITY: EventEntity moves to X=313.156*, Z=2.856*, Y=-4.179*
  3: 0x031C [0x1F] MOVE_ENTITY: Update entity position (mode=1)
  4: 0x031E [0x6F] WAIT_FRAME_DELAY: Yield until WaitTime reaches zero
  5: 0x031F [0x00] END_REQSTACK()
```

### Event 65535.40

#### Metadata

| Field        | Value    |
|--------------|----------|
| Entrypoint   | 0x0320   |
| Data Size    | 15 bytes |
| Instructions | 5        |

```
      00 01 02 03 04 05 06 07  08 09 0A 0B 0C 0D 0E 0F
      -- -- -- -- -- -- -- --  -- -- -- -- -- -- -- --
0320: 32 4E 80 1F 00 4F 80 50  80 51 80 1F 01 6F 00     2N...O.P.Q...o. 
```

#### Opcodes

```
  0: 0x0320 [0x32] ExtData[1]->MainSpeed = 42* * 0.1
  1: 0x0323 [0x1F] MOVE_ENTITY: EventEntity moves to X=309.656*, Z=0.986*, Y=-4.397*
  2: 0x032B [0x1F] MOVE_ENTITY: Update entity position (mode=1)
  3: 0x032D [0x6F] WAIT_FRAME_DELAY: Yield until WaitTime reaches zero
  4: 0x032E [0x00] END_REQSTACK()
```

### Event 65535.41

#### Metadata

| Field        | Value    |
|--------------|----------|
| Entrypoint   | 0x032F   |
| Data Size    | 18 bytes |
| Instructions | 6        |

```
      00 01 02 03 04 05 06 07  08 09 0A 0B 0C 0D 0E 0F
      -- -- -- -- -- -- -- --  -- -- -- -- -- -- -- --
0320:                                               1C                 .
0330: 16 80 32 10 80 1F 00 52  80 53 80 54 80 1F 01 6F  ..2....R.S.T...o
0340: 00                                                .               
```

#### Opcodes

```
  0: 0x032F [0x1C] WAIT(15* ticks)
  1: 0x0332 [0x32] ExtData[1]->MainSpeed = 40* * 0.1
  2: 0x0335 [0x1F] MOVE_ENTITY: EventEntity moves to X=310.674*, Z=-0.587*, Y=-4.334*
  3: 0x033D [0x1F] MOVE_ENTITY: Update entity position (mode=1)
  4: 0x033F [0x6F] WAIT_FRAME_DELAY: Yield until WaitTime reaches zero
  5: 0x0340 [0x00] END_REQSTACK()
```

### Event 65535.42

#### Metadata

| Field        | Value    |
|--------------|----------|
| Entrypoint   | 0x0341   |
| Data Size    | 18 bytes |
| Instructions | 6        |

```
      00 01 02 03 04 05 06 07  08 09 0A 0B 0C 0D 0E 0F
      -- -- -- -- -- -- -- --  -- -- -- -- -- -- -- --
0340:    1C 16 80 32 4A 80 1F  00 55 80 56 80 57 80 1F   ...2J...U.V.W..
0350: 01 6F 00                                          .o.             
```

#### Opcodes

```
  0: 0x0341 [0x1C] WAIT(15* ticks)
  1: 0x0344 [0x32] ExtData[1]->MainSpeed = 37* * 0.1
  2: 0x0347 [0x1F] MOVE_ENTITY: EventEntity moves to X=312.974*, Z=2.003*, Y=-4.190*
  3: 0x034F [0x1F] MOVE_ENTITY: Update entity position (mode=1)
  4: 0x0351 [0x6F] WAIT_FRAME_DELAY: Yield until WaitTime reaches zero
  5: 0x0352 [0x00] END_REQSTACK()
```

### Event 65535.43

#### Metadata

| Field        | Value    |
|--------------|----------|
| Entrypoint   | 0x0353   |
| Data Size    | 15 bytes |
| Instructions | 5        |

```
      00 01 02 03 04 05 06 07  08 09 0A 0B 0C 0D 0E 0F
      -- -- -- -- -- -- -- --  -- -- -- -- -- -- -- --
0350:          32 58 80 1F 00  59 80 5A 80 5B 80 1F 01     2X...Y.Z.[...
0360: 6F 00                                             o.              
```

#### Opcodes

```
  0: 0x0353 [0x32] ExtData[1]->MainSpeed = 41* * 0.1
  1: 0x0356 [0x1F] MOVE_ENTITY: EventEntity moves to X=314.813*, Z=0.466*, Y=-4.075*
  2: 0x035E [0x1F] MOVE_ENTITY: Update entity position (mode=1)
  3: 0x0360 [0x6F] WAIT_FRAME_DELAY: Yield until WaitTime reaches zero
  4: 0x0361 [0x00] END_REQSTACK()
```

### Event 65535.44

#### Metadata

| Field        | Value    |
|--------------|----------|
| Entrypoint   | 0x0362   |
| Data Size    | 18 bytes |
| Instructions | 6        |

```
      00 01 02 03 04 05 06 07  08 09 0A 0B 0C 0D 0E 0F
      -- -- -- -- -- -- -- --  -- -- -- -- -- -- -- --
0360:       1C 34 80 32 47 80  1F 00 5C 80 5D 80 5E 80    .4.2G...\.].^.
0370: 1F 01 6F 00                                       ..o.            
```

#### Opcodes

```
  0: 0x0362 [0x1C] WAIT(10* ticks)
  1: 0x0365 [0x32] ExtData[1]->MainSpeed = 39* * 0.1
  2: 0x0368 [0x1F] MOVE_ENTITY: EventEntity moves to X=314.234*, Z=4.692*, Y=-4.156*
  3: 0x0370 [0x1F] MOVE_ENTITY: Update entity position (mode=1)
  4: 0x0372 [0x6F] WAIT_FRAME_DELAY: Yield until WaitTime reaches zero
  5: 0x0373 [0x00] END_REQSTACK()
```

### Event 65535.45

#### Metadata

| Field        | Value    |
|--------------|----------|
| Entrypoint   | 0x0374   |
| Data Size    | 15 bytes |
| Instructions | 5        |

```
      00 01 02 03 04 05 06 07  08 09 0A 0B 0C 0D 0E 0F
      -- -- -- -- -- -- -- --  -- -- -- -- -- -- -- --
0370:             32 58 80 1F  00 5F 80 60 80 61 80 1F      2X..._.`.a..
0380: 01 6F 00                                          .o.             
```

#### Opcodes

```
  0: 0x0374 [0x32] ExtData[1]->MainSpeed = 41* * 0.1
  1: 0x0377 [0x1F] MOVE_ENTITY: EventEntity moves to X=153.814*, Z=-6.997*, Y=-3.629*
  2: 0x037F [0x1F] MOVE_ENTITY: Update entity position (mode=1)
  3: 0x0381 [0x6F] WAIT_FRAME_DELAY: Yield until WaitTime reaches zero
  4: 0x0382 [0x00] END_REQSTACK()
```

### Event 65535.46

#### Metadata

| Field        | Value    |
|--------------|----------|
| Entrypoint   | 0x0383   |
| Data Size    | 18 bytes |
| Instructions | 6        |

```
      00 01 02 03 04 05 06 07  08 09 0A 0B 0C 0D 0E 0F
      -- -- -- -- -- -- -- --  -- -- -- -- -- -- -- --
0380:          1C 16 80 32 47  80 1F 00 62 80 63 80 64     ...2G...b.c.d
0390: 80 1F 01 6F 00                                    ...o.           
```

#### Opcodes

```
  0: 0x0383 [0x1C] WAIT(15* ticks)
  1: 0x0386 [0x32] ExtData[1]->MainSpeed = 39* * 0.1
  2: 0x0389 [0x1F] MOVE_ENTITY: EventEntity moves to X=155.063*, Z=-5.530*, Y=-3.882*
  3: 0x0391 [0x1F] MOVE_ENTITY: Update entity position (mode=1)
  4: 0x0393 [0x6F] WAIT_FRAME_DELAY: Yield until WaitTime reaches zero
  5: 0x0394 [0x00] END_REQSTACK()
```

### Event 65535.47

#### Metadata

| Field        | Value    |
|--------------|----------|
| Entrypoint   | 0x0395   |
| Data Size    | 18 bytes |
| Instructions | 6        |

```
      00 01 02 03 04 05 06 07  08 09 0A 0B 0C 0D 0E 0F
      -- -- -- -- -- -- -- --  -- -- -- -- -- -- -- --
0390:                1C 45 80  32 4A 80 1F 00 65 80 66       .E.2J...e.f
03A0: 80 67 80 1F 01 6F 00                              .g...o.         
```

#### Opcodes

```
  0: 0x0395 [0x1C] WAIT(20* ticks)
  1: 0x0398 [0x32] ExtData[1]->MainSpeed = 37* * 0.1
  2: 0x039B [0x1F] MOVE_ENTITY: EventEntity moves to X=171.365*, Z=-12.172*, Y=-2.939*
  3: 0x03A3 [0x1F] MOVE_ENTITY: Update entity position (mode=1)
  4: 0x03A5 [0x6F] WAIT_FRAME_DELAY: Yield until WaitTime reaches zero
  5: 0x03A6 [0x00] END_REQSTACK()
```

### Event 65535.48

#### Metadata

| Field        | Value    |
|--------------|----------|
| Entrypoint   | 0x03A7   |
| Data Size    | 18 bytes |
| Instructions | 6        |

```
      00 01 02 03 04 05 06 07  08 09 0A 0B 0C 0D 0E 0F
      -- -- -- -- -- -- -- --  -- -- -- -- -- -- -- --
03A0:                      1C  34 80 32 10 80 1F 00 68         .4.2....h
03B0: 80 69 80 6A 80 1F 01 6F  00                       .i.j...o.       
```

#### Opcodes

```
  0: 0x03A7 [0x1C] WAIT(10* ticks)
  1: 0x03AA [0x32] ExtData[1]->MainSpeed = 40* * 0.1
  2: 0x03AD [0x1F] MOVE_ENTITY: EventEntity moves to X=170.163*, Z=-12.866*, Y=-2.688*
  3: 0x03B5 [0x1F] MOVE_ENTITY: Update entity position (mode=1)
  4: 0x03B7 [0x6F] WAIT_FRAME_DELAY: Yield until WaitTime reaches zero
  5: 0x03B8 [0x00] END_REQSTACK()
```

### Event 65535.49

#### Metadata

| Field        | Value   |
|--------------|---------|
| Entrypoint   | 0x03B9  |
| Data Size    | 1 bytes |
| Instructions | 1       |

```
      00 01 02 03 04 05 06 07  08 09 0A 0B 0C 0D 0E 0F
      -- -- -- -- -- -- -- --  -- -- -- -- -- -- -- --
03B0:                             00                             .      
```

#### Opcodes

```
  0: 0x03B9 [0x00] END_REQSTACK()
```

### Event 65535.50

#### Metadata

| Field        | Value    |
|--------------|----------|
| Entrypoint   | 0x03BA   |
| Data Size    | 18 bytes |
| Instructions | 4        |

```
      00 01 02 03 04 05 06 07  08 09 0A 0B 0C 0D 0E 0F
      -- -- -- -- -- -- -- --  -- -- -- -- -- -- -- --
03B0:                                22 00 2F 00 F8 FF            "./...
03C0: FF 7F 6C F8 FF FF 7F 00  80 01 80 00              ..l.........    
```

#### Opcodes

```
  0: 0x03BA [0x22] ENTITY_HIDE_FLAG(enabled=0x00)
  1: 0x03BC [0x2F] EventEntity->Render.Flags0 &= ~0x80000 // Bit 19
  2: 0x03C2 [0x6C] FADE_ENTITY_COLOR(entity_id=EventEntity, end_alpha=0*, fade_time=1*)
  3: 0x03CB [0x00] END_REQSTACK()
```

### Event 65535.51

#### Metadata

| Field        | Value    |
|--------------|----------|
| Entrypoint   | 0x03CC   |
| Data Size    | 10 bytes |
| Instructions | 2        |

```
      00 01 02 03 04 05 06 07  08 09 0A 0B 0C 0D 0E 0F
      -- -- -- -- -- -- -- --  -- -- -- -- -- -- -- --
03C0:                                      6C F8 FF FF              l...
03D0: 7F 02 80 01 80 00                                 ......          
```

#### Opcodes

```
  0: 0x03CC [0x6C] FADE_ENTITY_COLOR(entity_id=EventEntity, end_alpha=128*, fade_time=1*)
  1: 0x03D5 [0x00] END_REQSTACK()
```

### Event 65535.52

#### Metadata

| Field        | Value   |
|--------------|---------|
| Entrypoint   | 0x03D6  |
| Data Size    | 9 bytes |
| Instructions | 3       |

```
      00 01 02 03 04 05 06 07  08 09 0A 0B 0C 0D 0E 0F
      -- -- -- -- -- -- -- --  -- -- -- -- -- -- -- --
03D0:                   22 00  2F 00 F8 FF FF 7F 00           "./...... 
```

#### Opcodes

```
  0: 0x03D6 [0x22] ENTITY_HIDE_FLAG(enabled=0x00)
  1: 0x03D8 [0x2F] EventEntity->Render.Flags0 &= ~0x80000 // Bit 19
  2: 0x03DE [0x00] END_REQSTACK()
```

### Event 65535.53

#### Metadata

| Field        | Value   |
|--------------|---------|
| Entrypoint   | 0x03DF  |
| Data Size    | 9 bytes |
| Instructions | 3       |

```
      00 01 02 03 04 05 06 07  08 09 0A 0B 0C 0D 0E 0F
      -- -- -- -- -- -- -- --  -- -- -- -- -- -- -- --
03D0:                                               22                 "
03E0: 01 2F 01 F8 FF FF 7F 00                           ./......        
```

#### Opcodes

```
  0: 0x03DF [0x22] ENTITY_HIDE_FLAG(enabled=0x01)
  1: 0x03E1 [0x2F] EventEntity->Render.Flags0 |= 0x80000 // Bit 19
  2: 0x03E7 [0x00] END_REQSTACK()
```

### Event 65535.54

#### Metadata

| Field        | Value    |
|--------------|----------|
| Entrypoint   | 0x03E8   |
| Data Size    | 10 bytes |
| Instructions | 2        |

```
      00 01 02 03 04 05 06 07  08 09 0A 0B 0C 0D 0E 0F
      -- -- -- -- -- -- -- --  -- -- -- -- -- -- -- --
03E0:                          6C F8 FF FF 7F 00 80 01          l.......
03F0: 80 00                                             ..              
```

#### Opcodes

```
  0: 0x03E8 [0x6C] FADE_ENTITY_COLOR(entity_id=EventEntity, end_alpha=0*, fade_time=1*)
  1: 0x03F1 [0x00] END_REQSTACK()
```

### Event 65535.55

#### Metadata

| Field        | Value    |
|--------------|----------|
| Entrypoint   | 0x03F2   |
| Data Size    | 10 bytes |
| Instructions | 2        |

```
      00 01 02 03 04 05 06 07  08 09 0A 0B 0C 0D 0E 0F
      -- -- -- -- -- -- -- --  -- -- -- -- -- -- -- --
03F0:       6C F8 FF FF 7F 02  80 01 80 00                l.........    
```

#### Opcodes

```
  0: 0x03F2 [0x6C] FADE_ENTITY_COLOR(entity_id=EventEntity, end_alpha=128*, fade_time=1*)
  1: 0x03FB [0x00] END_REQSTACK()
```
