# 17167306 - ari01

## Common Data

| Field            | Value                          |
|------------------|--------------------------------|
| Zone             | West Sarutabaruta [S] (ID: 95) |
| Block Size       | 484 bytes                      |
| Total Events     | 20                             |
| References Count | 35                             |

## List of Events

| Event ID                   | Entrypoint   |   Size |   Instructions |
|----------------------------|--------------|--------|----------------|
| [65535](#event-65535)      | 0x0000       |      1 |              1 |
| [106](#event-106)          | 0x0001       |      1 |              1 |
| [110](#event-110)          | 0x0002       |      1 |              1 |
| [65535.1](#event-655351)   | 0x0003       |     26 |              6 |
| [65535.2](#event-655352)   | 0x001D       |     46 |             10 |
| [65535.3](#event-655353)   | 0x004B       |     14 |              4 |
| [65535.4](#event-655354)   | 0x0059       |     14 |              4 |
| [65535.5](#event-655355)   | 0x0067       |     14 |              4 |
| [65535.6](#event-655356)   | 0x0075       |     14 |              4 |
| [65535.7](#event-655357)   | 0x0083       |     14 |              4 |
| [65535.8](#event-655358)   | 0x0091       |     14 |              4 |
| [65535.9](#event-655359)   | 0x009F       |     10 |              2 |
| [65535.10](#event-6553510) | 0x00A9       |     10 |              2 |
| [65535.11](#event-6553511) | 0x00B3       |      1 |              1 |
| [65535.12](#event-6553512) | 0x00B4       |     18 |              4 |
| [65535.13](#event-6553513) | 0x00C6       |     10 |              2 |
| [65535.14](#event-6553514) | 0x00D0       |      9 |              3 |
| [65535.15](#event-6553515) | 0x00D9       |      9 |              3 |
| [65535.16](#event-6553516) | 0x00E2       |     10 |              2 |
| [65535.17](#event-6553517) | 0x00EC       |     10 |              2 |

## DAT References (imed_data)

|   Index | Hex Value   |   Dec Value |
|---------|-------------|-------------|
|       0 | 0x00C8      |         200 |
|       1 | 0x002A      |          42 |
|       2 | 0xFFFB428D  |  4294656653 |
|       3 | 0xFFFFC8E8  |  4294953192 |
|       4 | 0xFFFF4480  |  4294919296 |
|       5 | 0x0014      |          20 |
|       6 | 0x0000      |           0 |
|       7 | 0x0001      |           1 |
|       8 | 0x0046      |          70 |
|       9 | 0xFFFB4E6C  |  4294659692 |
|      10 | 0xFFFFC76F  |  4294952815 |
|      11 | 0xFFFF4481  |  4294919297 |
|      12 | 0xFFFB6BE8  |  4294667240 |
|      13 | 0xFFFFEA35  |  4294961717 |
|      14 | 0xFFFB8399  |  4294673305 |
|      15 | 0x20D1      |        8401 |
|      16 | 0x000C      |          12 |
|      17 | 0x37C6C     |      228460 |
|      18 | 0x22DBE     |      142782 |
|      19 | 0xFFFFB6CA  |  4294948554 |
|      20 | 0x3C0E9     |      245993 |
|      21 | 0x24201     |      147969 |
|      22 | 0xFFFFBAB2  |  4294949554 |
|      23 | 0x3C111     |      246033 |
|      24 | 0x2561C     |      153116 |
|      25 | 0xFFFFB346  |  4294947654 |
|      26 | 0x3EA59     |      256601 |
|      27 | 0x252AE     |      152238 |
|      28 | 0x3D85A     |      251994 |
|      29 | 0x2651C     |      156956 |
|      30 | 0xFFFFB5C3  |  4294948291 |
|      31 | 0x3EA53     |      256595 |
|      32 | 0x28D5C     |      167260 |
|      33 | 0xFFFFB3B1  |  4294947761 |
|      34 | 0x0080      |         128 |

## Events

### Event 65535

#### Metadata

| Field        | Value   |
|--------------|---------|
| Entrypoint   | 0x0000  |
| Data Size    | 1 bytes |
| Instructions | 1       |

```
      00 01 02 03 04 05 06 07  08 09 0A 0B 0C 0D 0E 0F
      -- -- -- -- -- -- -- --  -- -- -- -- -- -- -- --
0000: 00                                                .               
```

#### Opcodes

```
  0: 0x0000 [0x00] END_REQSTACK()
```

### Event 106

#### Metadata

| Field        | Value   |
|--------------|---------|
| Entrypoint   | 0x0001  |
| Data Size    | 1 bytes |
| Instructions | 1       |

```
      00 01 02 03 04 05 06 07  08 09 0A 0B 0C 0D 0E 0F
      -- -- -- -- -- -- -- --  -- -- -- -- -- -- -- --
0000:    00                                              .              
```

#### Opcodes

```
  0: 0x0001 [0x00] END_REQSTACK()
```

### Event 110

#### Metadata

| Field        | Value   |
|--------------|---------|
| Entrypoint   | 0x0002  |
| Data Size    | 1 bytes |
| Instructions | 1       |

```
      00 01 02 03 04 05 06 07  08 09 0A 0B 0C 0D 0E 0F
      -- -- -- -- -- -- -- --  -- -- -- -- -- -- -- --
0000:       00                                            .             
```

#### Opcodes

```
  0: 0x0002 [0x00] END_REQSTACK()
```

### Event 65535.1

#### Metadata

| Field        | Value    |
|--------------|----------|
| Entrypoint   | 0x0003   |
| Data Size    | 26 bytes |
| Instructions | 6        |

```
      00 01 02 03 04 05 06 07  08 09 0A 0B 0C 0D 0E 0F
      -- -- -- -- -- -- -- --  -- -- -- -- -- -- -- --
0000:          1C 00 80 6B 69  64 6C 30 F8 FF FF 7F 32     ...kidl0....2
0010: 01 80 1F 00 02 80 03 80  04 80 1F 01 00           .............   
```

#### Opcodes

```
  0: 0x0003 [0x1C] WAIT(200* ticks)
  1: 0x0006 [0x6B] STOP_AND_IDLE: EventEntity stops current action and resets to idle (animation="idl0")
  2: 0x000F [0x32] ExtData[1]->MainSpeed = 42* * 0.1
  3: 0x0012 [0x1F] MOVE_ENTITY: EventEntity moves to X=-310.643*, Z=-14.104*, Y=-48.000*
  4: 0x001A [0x1F] MOVE_ENTITY: Update entity position (mode=1)
  5: 0x001C [0x00] END_REQSTACK()
```

### Event 65535.2

#### Metadata

| Field        | Value    |
|--------------|----------|
| Entrypoint   | 0x001D   |
| Data Size    | 46 bytes |
| Instructions | 10       |

```
      00 01 02 03 04 05 06 07  08 09 0A 0B 0C 0D 0E 0F
      -- -- -- -- -- -- -- --  -- -- -- -- -- -- -- --
0010:                                         1C 05 80               ...
0020: 6C F8 FF FF 7F 06 80 07  80 32 08 80 1F 00 09 80  l........2......
0030: 0A 80 0B 80 1F 01 1F 00  0C 80 0D 80 0B 80 1F 01  ................
0040: 1F 00 0E 80 0F 80 0B 80  1F 01 00                 ...........     
```

#### Opcodes

```
  0: 0x001D [0x1C] WAIT(20* ticks)
  1: 0x0020 [0x6C] FADE_ENTITY_COLOR(entity_id=EventEntity, end_alpha=0*, fade_time=1*)
  2: 0x0029 [0x32] ExtData[1]->MainSpeed = 70* * 0.1
  3: 0x002C [0x1F] MOVE_ENTITY: EventEntity moves to X=-307.604*, Z=-14.481*, Y=-47.999*
  4: 0x0034 [0x1F] MOVE_ENTITY: Update entity position (mode=1)
  5: 0x0036 [0x1F] MOVE_ENTITY: EventEntity moves to X=-300.056*, Z=-5.579*, Y=-47.999*
  6: 0x003E [0x1F] MOVE_ENTITY: Update entity position (mode=1)
  7: 0x0040 [0x1F] MOVE_ENTITY: EventEntity moves to X=-293.991*, Z=8.401*, Y=-47.999*
  8: 0x0048 [0x1F] MOVE_ENTITY: Update entity position (mode=1)
  9: 0x004A [0x00] END_REQSTACK()
```

### Event 65535.3

#### Metadata

| Field        | Value    |
|--------------|----------|
| Entrypoint   | 0x004B   |
| Data Size    | 14 bytes |
| Instructions | 4        |

```
      00 01 02 03 04 05 06 07  08 09 0A 0B 0C 0D 0E 0F
      -- -- -- -- -- -- -- --  -- -- -- -- -- -- -- --
0040:                                   32 10 80 5A 00             2..Z.
0050: 11 80 12 80 13 80 5A 01  00                       ......Z..       
```

#### Opcodes

```
  0: 0x004B [0x32] ExtData[1]->MainSpeed = 12* * 0.1
  1: 0x004E [0x5A] UPDATE_EVENT_POSITION: Set EventEntity MovePosition to X=228.460*, Z=142.782*, Y=-18.742*
  2: 0x0056 [0x5A] UPDATE_EVENT_POSITION: Move EventEntity incrementally towards MovePosition
  3: 0x0058 [0x00] END_REQSTACK()
```

### Event 65535.4

#### Metadata

| Field        | Value    |
|--------------|----------|
| Entrypoint   | 0x0059   |
| Data Size    | 14 bytes |
| Instructions | 4        |

```
      00 01 02 03 04 05 06 07  08 09 0A 0B 0C 0D 0E 0F
      -- -- -- -- -- -- -- --  -- -- -- -- -- -- -- --
0050:                             32 10 80 5A 00 14 80           2..Z...
0060: 15 80 16 80 5A 01 00                              ....Z..         
```

#### Opcodes

```
  0: 0x0059 [0x32] ExtData[1]->MainSpeed = 12* * 0.1
  1: 0x005C [0x5A] UPDATE_EVENT_POSITION: Set EventEntity MovePosition to X=245.993*, Z=147.969*, Y=-17.742*
  2: 0x0064 [0x5A] UPDATE_EVENT_POSITION: Move EventEntity incrementally towards MovePosition
  3: 0x0066 [0x00] END_REQSTACK()
```

### Event 65535.5

#### Metadata

| Field        | Value    |
|--------------|----------|
| Entrypoint   | 0x0067   |
| Data Size    | 14 bytes |
| Instructions | 4        |

```
      00 01 02 03 04 05 06 07  08 09 0A 0B 0C 0D 0E 0F
      -- -- -- -- -- -- -- --  -- -- -- -- -- -- -- --
0060:                      32  10 80 5A 00 17 80 18 80         2..Z.....
0070: 19 80 5A 01 00                                    ..Z..           
```

#### Opcodes

```
  0: 0x0067 [0x32] ExtData[1]->MainSpeed = 12* * 0.1
  1: 0x006A [0x5A] UPDATE_EVENT_POSITION: Set EventEntity MovePosition to X=246.033*, Z=153.116*, Y=-19.642*
  2: 0x0072 [0x5A] UPDATE_EVENT_POSITION: Move EventEntity incrementally towards MovePosition
  3: 0x0074 [0x00] END_REQSTACK()
```

### Event 65535.6

#### Metadata

| Field        | Value    |
|--------------|----------|
| Entrypoint   | 0x0075   |
| Data Size    | 14 bytes |
| Instructions | 4        |

```
      00 01 02 03 04 05 06 07  08 09 0A 0B 0C 0D 0E 0F
      -- -- -- -- -- -- -- --  -- -- -- -- -- -- -- --
0070:                32 10 80  5A 00 1A 80 1B 80 13 80       2..Z.......
0080: 5A 01 00                                          Z..             
```

#### Opcodes

```
  0: 0x0075 [0x32] ExtData[1]->MainSpeed = 12* * 0.1
  1: 0x0078 [0x5A] UPDATE_EVENT_POSITION: Set EventEntity MovePosition to X=256.601*, Z=152.238*, Y=-18.742*
  2: 0x0080 [0x5A] UPDATE_EVENT_POSITION: Move EventEntity incrementally towards MovePosition
  3: 0x0082 [0x00] END_REQSTACK()
```

### Event 65535.7

#### Metadata

| Field        | Value    |
|--------------|----------|
| Entrypoint   | 0x0083   |
| Data Size    | 14 bytes |
| Instructions | 4        |

```
      00 01 02 03 04 05 06 07  08 09 0A 0B 0C 0D 0E 0F
      -- -- -- -- -- -- -- --  -- -- -- -- -- -- -- --
0080:          32 10 80 5A 00  1C 80 1D 80 1E 80 5A 01     2..Z.......Z.
0090: 00                                                .               
```

#### Opcodes

```
  0: 0x0083 [0x32] ExtData[1]->MainSpeed = 12* * 0.1
  1: 0x0086 [0x5A] UPDATE_EVENT_POSITION: Set EventEntity MovePosition to X=251.994*, Z=156.956*, Y=-19.005*
  2: 0x008E [0x5A] UPDATE_EVENT_POSITION: Move EventEntity incrementally towards MovePosition
  3: 0x0090 [0x00] END_REQSTACK()
```

### Event 65535.8

#### Metadata

| Field        | Value    |
|--------------|----------|
| Entrypoint   | 0x0091   |
| Data Size    | 14 bytes |
| Instructions | 4        |

```
      00 01 02 03 04 05 06 07  08 09 0A 0B 0C 0D 0E 0F
      -- -- -- -- -- -- -- --  -- -- -- -- -- -- -- --
0090:    32 10 80 5A 00 1F 80  20 80 21 80 5A 01 00      2..Z... .!.Z.. 
```

#### Opcodes

```
  0: 0x0091 [0x32] ExtData[1]->MainSpeed = 12* * 0.1
  1: 0x0094 [0x5A] UPDATE_EVENT_POSITION: Set EventEntity MovePosition to X=256.595*, Z=167.260*, Y=-19.535*
  2: 0x009C [0x5A] UPDATE_EVENT_POSITION: Move EventEntity incrementally towards MovePosition
  3: 0x009E [0x00] END_REQSTACK()
```

### Event 65535.9

#### Metadata

| Field        | Value    |
|--------------|----------|
| Entrypoint   | 0x009F   |
| Data Size    | 10 bytes |
| Instructions | 2        |

```
      00 01 02 03 04 05 06 07  08 09 0A 0B 0C 0D 0E 0F
      -- -- -- -- -- -- -- --  -- -- -- -- -- -- -- --
0090:                                               6C                 l
00A0: F8 FF FF 7F 06 80 07 80  00                       .........       
```

#### Opcodes

```
  0: 0x009F [0x6C] FADE_ENTITY_COLOR(entity_id=EventEntity, end_alpha=0*, fade_time=1*)
  1: 0x00A8 [0x00] END_REQSTACK()
```

### Event 65535.10

#### Metadata

| Field        | Value    |
|--------------|----------|
| Entrypoint   | 0x00A9   |
| Data Size    | 10 bytes |
| Instructions | 2        |

```
      00 01 02 03 04 05 06 07  08 09 0A 0B 0C 0D 0E 0F
      -- -- -- -- -- -- -- --  -- -- -- -- -- -- -- --
00A0:                             6C F8 FF FF 7F 22 80           l....".
00B0: 07 80 00                                          ...             
```

#### Opcodes

```
  0: 0x00A9 [0x6C] FADE_ENTITY_COLOR(entity_id=EventEntity, end_alpha=128*, fade_time=1*)
  1: 0x00B2 [0x00] END_REQSTACK()
```

### Event 65535.11

#### Metadata

| Field        | Value   |
|--------------|---------|
| Entrypoint   | 0x00B3  |
| Data Size    | 1 bytes |
| Instructions | 1       |

```
      00 01 02 03 04 05 06 07  08 09 0A 0B 0C 0D 0E 0F
      -- -- -- -- -- -- -- --  -- -- -- -- -- -- -- --
00B0:          00                                          .            
```

#### Opcodes

```
  0: 0x00B3 [0x00] END_REQSTACK()
```

### Event 65535.12

#### Metadata

| Field        | Value    |
|--------------|----------|
| Entrypoint   | 0x00B4   |
| Data Size    | 18 bytes |
| Instructions | 4        |

```
      00 01 02 03 04 05 06 07  08 09 0A 0B 0C 0D 0E 0F
      -- -- -- -- -- -- -- --  -- -- -- -- -- -- -- --
00B0:             22 00 2F 00  F8 FF FF 7F 6C F8 FF FF      "./.....l...
00C0: 7F 06 80 07 80 00                                 ......          
```

#### Opcodes

```
  0: 0x00B4 [0x22] ENTITY_HIDE_FLAG(enabled=0x00)
  1: 0x00B6 [0x2F] EventEntity->Render.Flags0 &= ~0x80000 // Bit 19
  2: 0x00BC [0x6C] FADE_ENTITY_COLOR(entity_id=EventEntity, end_alpha=0*, fade_time=1*)
  3: 0x00C5 [0x00] END_REQSTACK()
```

### Event 65535.13

#### Metadata

| Field        | Value    |
|--------------|----------|
| Entrypoint   | 0x00C6   |
| Data Size    | 10 bytes |
| Instructions | 2        |

```
      00 01 02 03 04 05 06 07  08 09 0A 0B 0C 0D 0E 0F
      -- -- -- -- -- -- -- --  -- -- -- -- -- -- -- --
00C0:                   6C F8  FF FF 7F 22 80 07 80 00        l...."....
```

#### Opcodes

```
  0: 0x00C6 [0x6C] FADE_ENTITY_COLOR(entity_id=EventEntity, end_alpha=128*, fade_time=1*)
  1: 0x00CF [0x00] END_REQSTACK()
```

### Event 65535.14

#### Metadata

| Field        | Value   |
|--------------|---------|
| Entrypoint   | 0x00D0  |
| Data Size    | 9 bytes |
| Instructions | 3       |

```
      00 01 02 03 04 05 06 07  08 09 0A 0B 0C 0D 0E 0F
      -- -- -- -- -- -- -- --  -- -- -- -- -- -- -- --
00D0: 22 00 2F 00 F8 FF FF 7F  00                       "./......       
```

#### Opcodes

```
  0: 0x00D0 [0x22] ENTITY_HIDE_FLAG(enabled=0x00)
  1: 0x00D2 [0x2F] EventEntity->Render.Flags0 &= ~0x80000 // Bit 19
  2: 0x00D8 [0x00] END_REQSTACK()
```

### Event 65535.15

#### Metadata

| Field        | Value   |
|--------------|---------|
| Entrypoint   | 0x00D9  |
| Data Size    | 9 bytes |
| Instructions | 3       |

```
      00 01 02 03 04 05 06 07  08 09 0A 0B 0C 0D 0E 0F
      -- -- -- -- -- -- -- --  -- -- -- -- -- -- -- --
00D0:                             22 01 2F 01 F8 FF FF           "./....
00E0: 7F 00                                             ..              
```

#### Opcodes

```
  0: 0x00D9 [0x22] ENTITY_HIDE_FLAG(enabled=0x01)
  1: 0x00DB [0x2F] EventEntity->Render.Flags0 |= 0x80000 // Bit 19
  2: 0x00E1 [0x00] END_REQSTACK()
```

### Event 65535.16

#### Metadata

| Field        | Value    |
|--------------|----------|
| Entrypoint   | 0x00E2   |
| Data Size    | 10 bytes |
| Instructions | 2        |

```
      00 01 02 03 04 05 06 07  08 09 0A 0B 0C 0D 0E 0F
      -- -- -- -- -- -- -- --  -- -- -- -- -- -- -- --
00E0:       6C F8 FF FF 7F 06  80 07 80 00                l.........    
```

#### Opcodes

```
  0: 0x00E2 [0x6C] FADE_ENTITY_COLOR(entity_id=EventEntity, end_alpha=0*, fade_time=1*)
  1: 0x00EB [0x00] END_REQSTACK()
```

### Event 65535.17

#### Metadata

| Field        | Value    |
|--------------|----------|
| Entrypoint   | 0x00EC   |
| Data Size    | 10 bytes |
| Instructions | 2        |

```
      00 01 02 03 04 05 06 07  08 09 0A 0B 0C 0D 0E 0F
      -- -- -- -- -- -- -- --  -- -- -- -- -- -- -- --
00E0:                                      6C F8 FF FF              l...
00F0: 7F 22 80 07 80 00                                 ."....          
```

#### Opcodes

```
  0: 0x00EC [0x6C] FADE_ENTITY_COLOR(entity_id=EventEntity, end_alpha=128*, fade_time=1*)
  1: 0x00F5 [0x00] END_REQSTACK()
```
