# 17167245 - Lhu Mhakaracca

## Common Data

| Field            | Value                          |
|------------------|--------------------------------|
| Zone             | West Sarutabaruta [S] (ID: 95) |
| Block Size       | 556 bytes                      |
| Total Events     | 18                             |
| References Count | 45                             |

## List of Events

| Event ID                   | Entrypoint   |   Size |   Instructions |
|----------------------------|--------------|--------|----------------|
| [65535](#event-65535)      | 0x0000       |      1 |              1 |
| [110](#event-110)          | 0x0001       |      1 |              1 |
| [65535.1](#event-655351)   | 0x0002       |     21 |              2 |
| [65535.2](#event-655352)   | 0x0017       |     19 |              3 |
| [65535.3](#event-655353)   | 0x002A       |     21 |              2 |
| [65535.4](#event-655354)   | 0x003F       |     21 |              2 |
| [65535.5](#event-655355)   | 0x0054       |     37 |              9 |
| [65535.6](#event-655356)   | 0x0079       |     46 |             10 |
| [65535.7](#event-655357)   | 0x00A7       |     34 |              8 |
| [65535.8](#event-655358)   | 0x00C9       |     10 |              2 |
| [65535.9](#event-655359)   | 0x00D3       |     10 |              2 |
| [65535.10](#event-6553510) | 0x00DD       |      1 |              1 |
| [65535.11](#event-6553511) | 0x00DE       |     18 |              4 |
| [65535.12](#event-6553512) | 0x00F0       |     10 |              2 |
| [65535.13](#event-6553513) | 0x00FA       |      9 |              3 |
| [65535.14](#event-6553514) | 0x0103       |      9 |              3 |
| [65535.15](#event-6553515) | 0x010C       |     10 |              2 |
| [65535.16](#event-6553516) | 0x0116       |     10 |              2 |

## DAT References (imed_data)

|   Index | Hex Value   |   Dec Value |
|---------|-------------|-------------|
|       0 | 0x0007      |           7 |
|       1 | 0x000C      |          12 |
|       2 | 0x0089      |         137 |
|       3 | 0x0010      |          16 |
|       4 | 0x000E      |          14 |
|       5 | 0x0081      |         129 |
|       6 | 0x0115      |         277 |
|       7 | 0x0000      |           0 |
|       8 | 0x00C8      |         200 |
|       9 | 0x052F      |        1327 |
|      10 | 0x000D      |          13 |
|      11 | 0x0051      |          81 |
|      12 | 0x015B      |         347 |
|      13 | 0x0035      |          53 |
|      14 | 0x0006      |           6 |
|      15 | 0x0015      |          21 |
|      16 | 0x0018      |          24 |
|      17 | 0x0017      |          23 |
|      18 | 0x002B      |          43 |
|      19 | 0x0016      |          22 |
|      20 | 0xFFFB7848  |  4294670408 |
|      21 | 0xFFFFCD01  |  4294954241 |
|      22 | 0xFFFF4480  |  4294919296 |
|      23 | 0xFFFB66BA  |  4294665914 |
|      24 | 0xFFFFCEF9  |  4294954745 |
|      25 | 0xFFFB4444  |  4294657092 |
|      26 | 0xFFFFCC9E  |  4294954142 |
|      27 | 0x004B      |          75 |
|      28 | 0x0104      |         260 |
|      29 | 0x0080      |         128 |
|      30 | 0x0001      |           1 |
|      31 | 0xFFFB516E  |  4294660462 |
|      32 | 0xFFFFC531  |  4294952241 |
|      33 | 0xFFFF4481  |  4294919297 |
|      34 | 0xFFFB5CFC  |  4294663420 |
|      35 | 0xFFFFEECB  |  4294962891 |
|      36 | 0xFFFB5CE0  |  4294663392 |
|      37 | 0x268A      |        9866 |
|      38 | 0x0050      |          80 |
|      39 | 0xFFFB8870  |  4294674544 |
|      40 | 0xFFFFCC97  |  4294954135 |
|      41 | 0xFFFB7F58  |  4294672216 |
|      42 | 0xFFFFD9D2  |  4294957522 |
|      43 | 0xFFFB5AFE  |  4294662910 |
|      44 | 0x276C      |       10092 |

## Events

### Event 65535

#### Metadata

| Field        | Value   |
|--------------|---------|
| Entrypoint   | 0x0000  |
| Data Size    | 1 bytes |
| Instructions | 1       |

```
      00 01 02 03 04 05 06 07  08 09 0A 0B 0C 0D 0E 0F
      -- -- -- -- -- -- -- --  -- -- -- -- -- -- -- --
0000: 00                                                .               
```

#### Opcodes

```
  0: 0x0000 [0x00] END_REQSTACK()
```

### Event 110

#### Metadata

| Field        | Value   |
|--------------|---------|
| Entrypoint   | 0x0001  |
| Data Size    | 1 bytes |
| Instructions | 1       |

```
      00 01 02 03 04 05 06 07  08 09 0A 0B 0C 0D 0E 0F
      -- -- -- -- -- -- -- --  -- -- -- -- -- -- -- --
0000:    00                                              .              
```

#### Opcodes

```
  0: 0x0001 [0x00] END_REQSTACK()
```

### Event 65535.1

#### Metadata

| Field        | Value    |
|--------------|----------|
| Entrypoint   | 0x0002   |
| Data Size    | 21 bytes |
| Instructions | 2        |

```
      00 01 02 03 04 05 06 07  08 09 0A 0B 0C 0D 0E 0F
      -- -- -- -- -- -- -- --  -- -- -- -- -- -- -- --
0000:       B6 0B 00 80 01 80  02 80 02 80 03 80 04 80    ..............
0010: 05 80 06 80 07 80 00                              .......         
```

#### Opcodes

```
  0: 0x0002 [0xB6] ENTITY_APPEARANCE_HANDLER(case=Full entity look, race=7*, hair=12*, head=137*, body=137*, hands=16*, legs=14*, feet=129*, main=277*, sub=0*)
  1: 0x0016 [0x00] END_REQSTACK()
```

### Event 65535.2

#### Metadata

| Field        | Value    |
|--------------|----------|
| Entrypoint   | 0x0017   |
| Data Size    | 19 bytes |
| Instructions | 3        |

```
      00 01 02 03 04 05 06 07  08 09 0A 0B 0C 0D 0E 0F
      -- -- -- -- -- -- -- --  -- -- -- -- -- -- -- --
0010:                      1C  08 80 5B 09 80 F8 FF FF         ...[.....
0020: 7F F8 FF FF 7F 73 74 61  30 00                    .....sta0.      
```

#### Opcodes

```
  0: 0x0017 [0x1C] WAIT(200* ticks)
  1: 0x001A [0x5B] LOAD_EXT_SCHEDULER: Load scheduler "sta0" with entities [EventEntity, EventEntity], work=1327*
  2: 0x0029 [0x00] END_REQSTACK()
```

### Event 65535.3

#### Metadata

| Field        | Value    |
|--------------|----------|
| Entrypoint   | 0x002A   |
| Data Size    | 21 bytes |
| Instructions | 2        |

```
      00 01 02 03 04 05 06 07  08 09 0A 0B 0C 0D 0E 0F
      -- -- -- -- -- -- -- --  -- -- -- -- -- -- -- --
0020:                                B6 0B 00 80 0A 80            ......
0030: 0B 80 0B 80 0B 80 0B 80  0B 80 0C 80 0D 80 00     ............... 
```

#### Opcodes

```
  0: 0x002A [0xB6] ENTITY_APPEARANCE_HANDLER(case=Full entity look, race=7*, hair=13*, head=81*, body=81*, hands=81*, legs=81*, feet=81*, main=347*, sub=53*)
  1: 0x003E [0x00] END_REQSTACK()
```

### Event 65535.4

#### Metadata

| Field        | Value    |
|--------------|----------|
| Entrypoint   | 0x003F   |
| Data Size    | 21 bytes |
| Instructions | 2        |

```
      00 01 02 03 04 05 06 07  08 09 0A 0B 0C 0D 0E 0F
      -- -- -- -- -- -- -- --  -- -- -- -- -- -- -- --
0030:                                               B6                 .
0040: 0B 0E 80 01 80 0F 80 10  80 10 80 11 80 0F 80 07  ................
0050: 80 07 80 00                                       ....            
```

#### Opcodes

```
  0: 0x003F [0xB6] ENTITY_APPEARANCE_HANDLER(case=Full entity look, race=6*, hair=12*, head=21*, body=24*, hands=24*, legs=23*, feet=21*, main=0*, sub=0*)
  1: 0x0053 [0x00] END_REQSTACK()
```

### Event 65535.5

#### Metadata

| Field        | Value    |
|--------------|----------|
| Entrypoint   | 0x0054   |
| Data Size    | 37 bytes |
| Instructions | 9        |

```
      00 01 02 03 04 05 06 07  08 09 0A 0B 0C 0D 0E 0F
      -- -- -- -- -- -- -- --  -- -- -- -- -- -- -- --
0050:             32 12 80 1C  13 80 1F 00 14 80 15 80      2...........
0060: 16 80 1F 01 1F 00 17 80  18 80 16 80 1F 01 1F 00  ................
0070: 19 80 1A 80 16 80 1F 01  00                       .........       
```

#### Opcodes

```
  0: 0x0054 [0x32] ExtData[1]->MainSpeed = 43* * 0.1
  1: 0x0057 [0x1C] WAIT(22* ticks)
  2: 0x005A [0x1F] MOVE_ENTITY: EventEntity moves to X=-296.888*, Z=-13.055*, Y=-48.000*
  3: 0x0062 [0x1F] MOVE_ENTITY: Update entity position (mode=1)
  4: 0x0064 [0x1F] MOVE_ENTITY: EventEntity moves to X=-301.382*, Z=-12.551*, Y=-48.000*
  5: 0x006C [0x1F] MOVE_ENTITY: Update entity position (mode=1)
  6: 0x006E [0x1F] MOVE_ENTITY: EventEntity moves to X=-310.204*, Z=-13.154*, Y=-48.000*
  7: 0x0076 [0x1F] MOVE_ENTITY: Update entity position (mode=1)
  8: 0x0078 [0x00] END_REQSTACK()
```

### Event 65535.6

#### Metadata

| Field        | Value    |
|--------------|----------|
| Entrypoint   | 0x0079   |
| Data Size    | 46 bytes |
| Instructions | 10       |

```
      00 01 02 03 04 05 06 07  08 09 0A 0B 0C 0D 0E 0F
      -- -- -- -- -- -- -- --  -- -- -- -- -- -- -- --
0070:                             32 1B 80 1C 1C 80 6C           2.....l
0080: F8 FF FF 7F 1D 80 1E 80  1F 00 1F 80 20 80 21 80  ............ .!.
0090: 1F 01 1F 00 22 80 23 80  21 80 1F 01 1F 00 24 80  ....".#.!.....$.
00A0: 25 80 21 80 1F 01 00                              %.!....         
```

#### Opcodes

```
  0: 0x0079 [0x32] ExtData[1]->MainSpeed = 75* * 0.1
  1: 0x007C [0x1C] WAIT(260* ticks)
  2: 0x007F [0x6C] FADE_ENTITY_COLOR(entity_id=EventEntity, end_alpha=128*, fade_time=1*)
  3: 0x0088 [0x1F] MOVE_ENTITY: EventEntity moves to X=-306.834*, Z=-15.055*, Y=-47.999*
  4: 0x0090 [0x1F] MOVE_ENTITY: Update entity position (mode=1)
  5: 0x0092 [0x1F] MOVE_ENTITY: EventEntity moves to X=-303.876*, Z=-4.405*, Y=-47.999*
  6: 0x009A [0x1F] MOVE_ENTITY: Update entity position (mode=1)
  7: 0x009C [0x1F] MOVE_ENTITY: EventEntity moves to X=-303.904*, Z=9.866*, Y=-47.999*
  8: 0x00A4 [0x1F] MOVE_ENTITY: Update entity position (mode=1)
  9: 0x00A6 [0x00] END_REQSTACK()
```

### Event 65535.7

#### Metadata

| Field        | Value    |
|--------------|----------|
| Entrypoint   | 0x00A7   |
| Data Size    | 34 bytes |
| Instructions | 8        |

```
      00 01 02 03 04 05 06 07  08 09 0A 0B 0C 0D 0E 0F
      -- -- -- -- -- -- -- --  -- -- -- -- -- -- -- --
00A0:                      32  26 80 1F 00 27 80 28 80         2&...'.(.
00B0: 21 80 1F 01 1F 00 29 80  2A 80 21 80 1F 01 1F 00  !.....).*.!.....
00C0: 2B 80 2C 80 21 80 1F 01  00                       +.,.!....       
```

#### Opcodes

```
  0: 0x00A7 [0x32] ExtData[1]->MainSpeed = 80* * 0.1
  1: 0x00AA [0x1F] MOVE_ENTITY: EventEntity moves to X=-292.752*, Z=-13.161*, Y=-47.999*
  2: 0x00B2 [0x1F] MOVE_ENTITY: Update entity position (mode=1)
  3: 0x00B4 [0x1F] MOVE_ENTITY: EventEntity moves to X=-295.080*, Z=-9.774*, Y=-47.999*
  4: 0x00BC [0x1F] MOVE_ENTITY: Update entity position (mode=1)
  5: 0x00BE [0x1F] MOVE_ENTITY: EventEntity moves to X=-304.386*, Z=10.092*, Y=-47.999*
  6: 0x00C6 [0x1F] MOVE_ENTITY: Update entity position (mode=1)
  7: 0x00C8 [0x00] END_REQSTACK()
```

### Event 65535.8

#### Metadata

| Field        | Value    |
|--------------|----------|
| Entrypoint   | 0x00C9   |
| Data Size    | 10 bytes |
| Instructions | 2        |

```
      00 01 02 03 04 05 06 07  08 09 0A 0B 0C 0D 0E 0F
      -- -- -- -- -- -- -- --  -- -- -- -- -- -- -- --
00C0:                             6C F8 FF FF 7F 07 80           l......
00D0: 1E 80 00                                          ...             
```

#### Opcodes

```
  0: 0x00C9 [0x6C] FADE_ENTITY_COLOR(entity_id=EventEntity, end_alpha=0*, fade_time=1*)
  1: 0x00D2 [0x00] END_REQSTACK()
```

### Event 65535.9

#### Metadata

| Field        | Value    |
|--------------|----------|
| Entrypoint   | 0x00D3   |
| Data Size    | 10 bytes |
| Instructions | 2        |

```
      00 01 02 03 04 05 06 07  08 09 0A 0B 0C 0D 0E 0F
      -- -- -- -- -- -- -- --  -- -- -- -- -- -- -- --
00D0:          6C F8 FF FF 7F  1D 80 1E 80 00              l.........   
```

#### Opcodes

```
  0: 0x00D3 [0x6C] FADE_ENTITY_COLOR(entity_id=EventEntity, end_alpha=128*, fade_time=1*)
  1: 0x00DC [0x00] END_REQSTACK()
```

### Event 65535.10

#### Metadata

| Field        | Value   |
|--------------|---------|
| Entrypoint   | 0x00DD  |
| Data Size    | 1 bytes |
| Instructions | 1       |

```
      00 01 02 03 04 05 06 07  08 09 0A 0B 0C 0D 0E 0F
      -- -- -- -- -- -- -- --  -- -- -- -- -- -- -- --
00D0:                                         00                     .  
```

#### Opcodes

```
  0: 0x00DD [0x00] END_REQSTACK()
```

### Event 65535.11

#### Metadata

| Field        | Value    |
|--------------|----------|
| Entrypoint   | 0x00DE   |
| Data Size    | 18 bytes |
| Instructions | 4        |

```
      00 01 02 03 04 05 06 07  08 09 0A 0B 0C 0D 0E 0F
      -- -- -- -- -- -- -- --  -- -- -- -- -- -- -- --
00D0:                                            22 00                ".
00E0: 2F 00 F8 FF FF 7F 6C F8  FF FF 7F 07 80 1E 80 00  /.....l.........
```

#### Opcodes

```
  0: 0x00DE [0x22] ENTITY_HIDE_FLAG(enabled=0x00)
  1: 0x00E0 [0x2F] EventEntity->Render.Flags0 &= ~0x80000 // Bit 19
  2: 0x00E6 [0x6C] FADE_ENTITY_COLOR(entity_id=EventEntity, end_alpha=0*, fade_time=1*)
  3: 0x00EF [0x00] END_REQSTACK()
```

### Event 65535.12

#### Metadata

| Field        | Value    |
|--------------|----------|
| Entrypoint   | 0x00F0   |
| Data Size    | 10 bytes |
| Instructions | 2        |

```
      00 01 02 03 04 05 06 07  08 09 0A 0B 0C 0D 0E 0F
      -- -- -- -- -- -- -- --  -- -- -- -- -- -- -- --
00F0: 6C F8 FF FF 7F 1D 80 1E  80 00                    l.........      
```

#### Opcodes

```
  0: 0x00F0 [0x6C] FADE_ENTITY_COLOR(entity_id=EventEntity, end_alpha=128*, fade_time=1*)
  1: 0x00F9 [0x00] END_REQSTACK()
```

### Event 65535.13

#### Metadata

| Field        | Value   |
|--------------|---------|
| Entrypoint   | 0x00FA  |
| Data Size    | 9 bytes |
| Instructions | 3       |

```
      00 01 02 03 04 05 06 07  08 09 0A 0B 0C 0D 0E 0F
      -- -- -- -- -- -- -- --  -- -- -- -- -- -- -- --
00F0:                                22 00 2F 00 F8 FF            "./...
0100: FF 7F 00                                          ...             
```

#### Opcodes

```
  0: 0x00FA [0x22] ENTITY_HIDE_FLAG(enabled=0x00)
  1: 0x00FC [0x2F] EventEntity->Render.Flags0 &= ~0x80000 // Bit 19
  2: 0x0102 [0x00] END_REQSTACK()
```

### Event 65535.14

#### Metadata

| Field        | Value   |
|--------------|---------|
| Entrypoint   | 0x0103  |
| Data Size    | 9 bytes |
| Instructions | 3       |

```
      00 01 02 03 04 05 06 07  08 09 0A 0B 0C 0D 0E 0F
      -- -- -- -- -- -- -- --  -- -- -- -- -- -- -- --
0100:          22 01 2F 01 F8  FF FF 7F 00                 "./......    
```

#### Opcodes

```
  0: 0x0103 [0x22] ENTITY_HIDE_FLAG(enabled=0x01)
  1: 0x0105 [0x2F] EventEntity->Render.Flags0 |= 0x80000 // Bit 19
  2: 0x010B [0x00] END_REQSTACK()
```

### Event 65535.15

#### Metadata

| Field        | Value    |
|--------------|----------|
| Entrypoint   | 0x010C   |
| Data Size    | 10 bytes |
| Instructions | 2        |

```
      00 01 02 03 04 05 06 07  08 09 0A 0B 0C 0D 0E 0F
      -- -- -- -- -- -- -- --  -- -- -- -- -- -- -- --
0100:                                      6C F8 FF FF              l...
0110: 7F 07 80 1E 80 00                                 ......          
```

#### Opcodes

```
  0: 0x010C [0x6C] FADE_ENTITY_COLOR(entity_id=EventEntity, end_alpha=0*, fade_time=1*)
  1: 0x0115 [0x00] END_REQSTACK()
```

### Event 65535.16

#### Metadata

| Field        | Value    |
|--------------|----------|
| Entrypoint   | 0x0116   |
| Data Size    | 10 bytes |
| Instructions | 2        |

```
      00 01 02 03 04 05 06 07  08 09 0A 0B 0C 0D 0E 0F
      -- -- -- -- -- -- -- --  -- -- -- -- -- -- -- --
0110:                   6C F8  FF FF 7F 1D 80 1E 80 00        l.........
```

#### Opcodes

```
  0: 0x0116 [0x6C] FADE_ENTITY_COLOR(entity_id=EventEntity, end_alpha=128*, fade_time=1*)
  1: 0x011F [0x00] END_REQSTACK()
```
