# 17167277 - 03

## Common Data

| Field            | Value                          |
|------------------|--------------------------------|
| Zone             | West Sarutabaruta [S] (ID: 95) |
| Block Size       | 936 bytes                      |
| Total Events     | 35                             |
| References Count | 69                             |

## List of Events

| Event ID                   | Entrypoint   |   Size |   Instructions |
|----------------------------|--------------|--------|----------------|
| [65535](#event-65535)      | 0x0000       |      1 |              1 |
| [105](#event-105)          | 0x0001       |      1 |              1 |
| [106](#event-106)          | 0x0002       |      1 |              1 |
| [65535.1](#event-655351)   | 0x0003       |     41 |              9 |
| [65535.2](#event-655352)   | 0x002C       |      5 |              2 |
| [65535.3](#event-655353)   | 0x0031       |      5 |              2 |
| [107](#event-107)          | 0x0036       |      1 |              1 |
| [112](#event-112)          | 0x0037       |      1 |              1 |
| [65535.4](#event-655354)   | 0x0038       |     21 |              2 |
| [65535.5](#event-655355)   | 0x004D       |     21 |              2 |
| [65535.6](#event-655356)   | 0x0062       |     21 |              2 |
| [65535.7](#event-655357)   | 0x0077       |     21 |              2 |
| [65535.8](#event-655358)   | 0x008C       |     21 |              2 |
| [65535.9](#event-655359)   | 0x00A1       |     21 |              2 |
| [65535.10](#event-6553510) | 0x00B6       |     21 |              2 |
| [65535.11](#event-6553511) | 0x00CB       |     21 |              2 |
| [65535.12](#event-6553512) | 0x00E0       |     21 |              2 |
| [65535.13](#event-6553513) | 0x00F5       |     21 |              2 |
| [65535.14](#event-6553514) | 0x010A       |     18 |              6 |
| [65535.15](#event-6553515) | 0x011C       |     15 |              5 |
| [65535.16](#event-6553516) | 0x012B       |     18 |              6 |
| [65535.17](#event-6553517) | 0x013D       |     18 |              6 |
| [65535.18](#event-6553518) | 0x014F       |     15 |              5 |
| [65535.19](#event-6553519) | 0x015E       |     18 |              6 |
| [65535.20](#event-6553520) | 0x0170       |     15 |              5 |
| [65535.21](#event-6553521) | 0x017F       |     18 |              6 |
| [65535.22](#event-6553522) | 0x0191       |     18 |              6 |
| [65535.23](#event-6553523) | 0x01A3       |     18 |              6 |
| [65535.24](#event-6553524) | 0x01B5       |      1 |              1 |
| [65535.25](#event-6553525) | 0x01B6       |     18 |              4 |
| [65535.26](#event-6553526) | 0x01C8       |     10 |              2 |
| [65535.27](#event-6553527) | 0x01D2       |      9 |              3 |
| [65535.28](#event-6553528) | 0x01DB       |      9 |              3 |
| [65535.29](#event-6553529) | 0x01E4       |     10 |              2 |
| [65535.30](#event-6553530) | 0x01EE       |     10 |              2 |

## DAT References (imed_data)

|   Index | Hex Value   |   Dec Value |
|---------|-------------|-------------|
|       0 | 0x000D      |          13 |
|       1 | 0x4E261     |      320097 |
|       2 | 0xFFFFD970  |  4294957424 |
|       3 | 0xFFFFEEF0  |  4294962928 |
|       4 | 0x4FDAE     |      327086 |
|       5 | 0xFFFFDCC4  |  4294958276 |
|       6 | 0xFFFFEEA4  |  4294962852 |
|       7 | 0x4FC83     |      326787 |
|       8 | 0xFFFFE52B  |  4294960427 |
|       9 | 0xFFFFEEFC  |  4294962940 |
|      10 | 0x0BB8      |        3000 |
|      11 | 0x0030      |          48 |
|      12 | 0x0000      |           0 |
|      13 | 0x0007      |           7 |
|      14 | 0x0005      |           5 |
|      15 | 0x0089      |         137 |
|      16 | 0x0010      |          16 |
|      17 | 0x000E      |          14 |
|      18 | 0x0064      |         100 |
|      19 | 0x000B      |          11 |
|      20 | 0x011B      |         283 |
|      21 | 0x000F      |          15 |
|      22 | 0x0072      |         114 |
|      23 | 0x0003      |           3 |
|      24 | 0x0002      |           2 |
|      25 | 0x006E      |         110 |
|      26 | 0x0012      |          18 |
|      27 | 0x0014      |          20 |
|      28 | 0x00E3      |         227 |
|      29 | 0x0027      |          39 |
|      30 | 0x0006      |           6 |
|      31 | 0x0013      |          19 |
|      32 | 0x000A      |          10 |
|      33 | 0x0025      |          37 |
|      34 | 0x4C744     |      313156 |
|      35 | 0x0B28      |        2856 |
|      36 | 0xFFFFEFAD  |  4294963117 |
|      37 | 0x002A      |          42 |
|      38 | 0x4B998     |      309656 |
|      39 | 0x03DA      |         986 |
|      40 | 0xFFFFEED3  |  4294962899 |
|      41 | 0x0028      |          40 |
|      42 | 0x4BD92     |      310674 |
|      43 | 0xFFFFFDB5  |  4294966709 |
|      44 | 0xFFFFEF12  |  4294962962 |
|      45 | 0x4C68E     |      312974 |
|      46 | 0x07D3      |        2003 |
|      47 | 0xFFFFEFA2  |  4294963106 |
|      48 | 0x0029      |          41 |
|      49 | 0x4CDBD     |      314813 |
|      50 | 0x01D2      |         466 |
|      51 | 0xFFFFF015  |  4294963221 |
|      52 | 0x4CB7A     |      314234 |
|      53 | 0x1254      |        4692 |
|      54 | 0xFFFFEFC4  |  4294963140 |
|      55 | 0x258D6     |      153814 |
|      56 | 0xFFFFE4AB  |  4294960299 |
|      57 | 0xFFFFF1D3  |  4294963667 |
|      58 | 0x25DB7     |      155063 |
|      59 | 0xFFFFEA66  |  4294961766 |
|      60 | 0xFFFFF0D6  |  4294963414 |
|      61 | 0x29D65     |      171365 |
|      62 | 0xFFFFD074  |  4294955124 |
|      63 | 0xFFFFF485  |  4294964357 |
|      64 | 0x298B3     |      170163 |
|      65 | 0xFFFFCDBE  |  4294954430 |
|      66 | 0xFFFFF580  |  4294964608 |
|      67 | 0x0001      |           1 |
|      68 | 0x0080      |         128 |

## Events

### Event 65535

#### Metadata

| Field        | Value   |
|--------------|---------|
| Entrypoint   | 0x0000  |
| Data Size    | 1 bytes |
| Instructions | 1       |

```
      00 01 02 03 04 05 06 07  08 09 0A 0B 0C 0D 0E 0F
      -- -- -- -- -- -- -- --  -- -- -- -- -- -- -- --
0000: 00                                                .               
```

#### Opcodes

```
  0: 0x0000 [0x00] END_REQSTACK()
```

### Event 105

#### Metadata

| Field        | Value   |
|--------------|---------|
| Entrypoint   | 0x0001  |
| Data Size    | 1 bytes |
| Instructions | 1       |

```
      00 01 02 03 04 05 06 07  08 09 0A 0B 0C 0D 0E 0F
      -- -- -- -- -- -- -- --  -- -- -- -- -- -- -- --
0000:    00                                              .              
```

#### Opcodes

```
  0: 0x0001 [0x00] END_REQSTACK()
```

### Event 106

#### Metadata

| Field        | Value   |
|--------------|---------|
| Entrypoint   | 0x0002  |
| Data Size    | 1 bytes |
| Instructions | 1       |

```
      00 01 02 03 04 05 06 07  08 09 0A 0B 0C 0D 0E 0F
      -- -- -- -- -- -- -- --  -- -- -- -- -- -- -- --
0000:       00                                            .             
```

#### Opcodes

```
  0: 0x0002 [0x00] END_REQSTACK()
```

### Event 65535.1

#### Metadata

| Field        | Value    |
|--------------|----------|
| Entrypoint   | 0x0003   |
| Data Size    | 41 bytes |
| Instructions | 9        |

```
      00 01 02 03 04 05 06 07  08 09 0A 0B 0C 0D 0E 0F
      -- -- -- -- -- -- -- --  -- -- -- -- -- -- -- --
0000:          32 00 80 1F 00  01 80 02 80 03 80 1F 01     2............
0010: 1F 00 04 80 05 80 06 80  1F 01 1F 00 07 80 08 80  ................
0020: 09 80 1F 01 4B F8 FF FF  7F 0A 80 00              ....K.......    
```

#### Opcodes

```
  0: 0x0003 [0x32] ExtData[1]->MainSpeed = 13* * 0.1
  1: 0x0006 [0x1F] MOVE_ENTITY: EventEntity moves to X=320.097*, Z=-9.872*, Y=-4.368*
  2: 0x000E [0x1F] MOVE_ENTITY: Update entity position (mode=1)
  3: 0x0010 [0x1F] MOVE_ENTITY: EventEntity moves to X=327.086*, Z=-9.020*, Y=-4.444*
  4: 0x0018 [0x1F] MOVE_ENTITY: Update entity position (mode=1)
  5: 0x001A [0x1F] MOVE_ENTITY: EventEntity moves to X=326.787*, Z=-6.869*, Y=-4.356*
  6: 0x0022 [0x1F] MOVE_ENTITY: Update entity position (mode=1)
  7: 0x0024 [0x4B] UPDATE_ENTITY_YAW(entity=EventEntity, yaw=16.5°*)
  8: 0x002B [0x00] END_REQSTACK()
```

### Event 65535.2

#### Metadata

| Field        | Value   |
|--------------|---------|
| Entrypoint   | 0x002C  |
| Data Size    | 5 bytes |
| Instructions | 2       |

```
      00 01 02 03 04 05 06 07  08 09 0A 0B 0C 0D 0E 0F
      -- -- -- -- -- -- -- --  -- -- -- -- -- -- -- --
0020:                                      B6 0A 0B 80              ....
0030: 00                                                .               
```

#### Opcodes

```
  0: 0x002C [0xB6] ENTITY_APPEARANCE_HANDLER(case=Ranged, value=48*)
  1: 0x0030 [0x00] END_REQSTACK()
```

### Event 65535.3

#### Metadata

| Field        | Value   |
|--------------|---------|
| Entrypoint   | 0x0031  |
| Data Size    | 5 bytes |
| Instructions | 2       |

```
      00 01 02 03 04 05 06 07  08 09 0A 0B 0C 0D 0E 0F
      -- -- -- -- -- -- -- --  -- -- -- -- -- -- -- --
0030:    B6 0A 0C 80 00                                  .....          
```

#### Opcodes

```
  0: 0x0031 [0xB6] ENTITY_APPEARANCE_HANDLER(case=Ranged, value=0*)
  1: 0x0035 [0x00] END_REQSTACK()
```

### Event 107

#### Metadata

| Field        | Value   |
|--------------|---------|
| Entrypoint   | 0x0036  |
| Data Size    | 1 bytes |
| Instructions | 1       |

```
      00 01 02 03 04 05 06 07  08 09 0A 0B 0C 0D 0E 0F
      -- -- -- -- -- -- -- --  -- -- -- -- -- -- -- --
0030:                   00                                    .         
```

#### Opcodes

```
  0: 0x0036 [0x00] END_REQSTACK()
```

### Event 112

#### Metadata

| Field        | Value   |
|--------------|---------|
| Entrypoint   | 0x0037  |
| Data Size    | 1 bytes |
| Instructions | 1       |

```
      00 01 02 03 04 05 06 07  08 09 0A 0B 0C 0D 0E 0F
      -- -- -- -- -- -- -- --  -- -- -- -- -- -- -- --
0030:                      00                                  .        
```

#### Opcodes

```
  0: 0x0037 [0x00] END_REQSTACK()
```

### Event 65535.4

#### Metadata

| Field        | Value    |
|--------------|----------|
| Entrypoint   | 0x0038   |
| Data Size    | 21 bytes |
| Instructions | 2        |

```
      00 01 02 03 04 05 06 07  08 09 0A 0B 0C 0D 0E 0F
      -- -- -- -- -- -- -- --  -- -- -- -- -- -- -- --
0030:                          B6 0B 0D 80 0E 80 0F 80          ........
0040: 10 80 10 80 11 80 00 80  12 80 0C 80 00           .............   
```

#### Opcodes

```
  0: 0x0038 [0xB6] ENTITY_APPEARANCE_HANDLER(case=Full entity look, race=7*, hair=5*, head=137*, body=16*, hands=16*, legs=14*, feet=13*, main=100*, sub=0*)
  1: 0x004C [0x00] END_REQSTACK()
```

### Event 65535.5

#### Metadata

| Field        | Value    |
|--------------|----------|
| Entrypoint   | 0x004D   |
| Data Size    | 21 bytes |
| Instructions | 2        |

```
      00 01 02 03 04 05 06 07  08 09 0A 0B 0C 0D 0E 0F
      -- -- -- -- -- -- -- --  -- -- -- -- -- -- -- --
0040:                                         B6 0B 0D               ...
0050: 80 13 80 0F 80 10 80 10  80 11 80 10 80 14 80 0C  ................
0060: 80 00                                             ..              
```

#### Opcodes

```
  0: 0x004D [0xB6] ENTITY_APPEARANCE_HANDLER(case=Full entity look, race=7*, hair=11*, head=137*, body=16*, hands=16*, legs=14*, feet=16*, main=283*, sub=0*)
  1: 0x0061 [0x00] END_REQSTACK()
```

### Event 65535.6

#### Metadata

| Field        | Value    |
|--------------|----------|
| Entrypoint   | 0x0062   |
| Data Size    | 21 bytes |
| Instructions | 2        |

```
      00 01 02 03 04 05 06 07  08 09 0A 0B 0C 0D 0E 0F
      -- -- -- -- -- -- -- --  -- -- -- -- -- -- -- --
0060:       B6 0B 0D 80 15 80  16 80 15 80 10 80 11 80    ..............
0070: 00 80 12 80 0C 80 00                              .......         
```

#### Opcodes

```
  0: 0x0062 [0xB6] ENTITY_APPEARANCE_HANDLER(case=Full entity look, race=7*, hair=15*, head=114*, body=15*, hands=16*, legs=14*, feet=13*, main=100*, sub=0*)
  1: 0x0076 [0x00] END_REQSTACK()
```

### Event 65535.7

#### Metadata

| Field        | Value    |
|--------------|----------|
| Entrypoint   | 0x0077   |
| Data Size    | 21 bytes |
| Instructions | 2        |

```
      00 01 02 03 04 05 06 07  08 09 0A 0B 0C 0D 0E 0F
      -- -- -- -- -- -- -- --  -- -- -- -- -- -- -- --
0070:                      B6  0B 0D 80 17 80 16 80 15         .........
0080: 80 10 80 10 80 00 80 14  80 0C 80 00              ............    
```

#### Opcodes

```
  0: 0x0077 [0xB6] ENTITY_APPEARANCE_HANDLER(case=Full entity look, race=7*, hair=3*, head=114*, body=15*, hands=16*, legs=16*, feet=13*, main=283*, sub=0*)
  1: 0x008B [0x00] END_REQSTACK()
```

### Event 65535.8

#### Metadata

| Field        | Value    |
|--------------|----------|
| Entrypoint   | 0x008C   |
| Data Size    | 21 bytes |
| Instructions | 2        |

```
      00 01 02 03 04 05 06 07  08 09 0A 0B 0C 0D 0E 0F
      -- -- -- -- -- -- -- --  -- -- -- -- -- -- -- --
0080:                                      B6 0B 0D 80              ....
0090: 18 80 0F 80 19 80 10 80  10 80 00 80 12 80 0C 80  ................
00A0: 00                                                .               
```

#### Opcodes

```
  0: 0x008C [0xB6] ENTITY_APPEARANCE_HANDLER(case=Full entity look, race=7*, hair=2*, head=137*, body=110*, hands=16*, legs=16*, feet=13*, main=100*, sub=0*)
  1: 0x00A0 [0x00] END_REQSTACK()
```

### Event 65535.9

#### Metadata

| Field        | Value    |
|--------------|----------|
| Entrypoint   | 0x00A1   |
| Data Size    | 21 bytes |
| Instructions | 2        |

```
      00 01 02 03 04 05 06 07  08 09 0A 0B 0C 0D 0E 0F
      -- -- -- -- -- -- -- --  -- -- -- -- -- -- -- --
00A0:    B6 0B 0E 80 0E 80 1A  80 1B 80 1B 80 1B 80 1B   ...............
00B0: 80 1C 80 1D 80 00                                 ......          
```

#### Opcodes

```
  0: 0x00A1 [0xB6] ENTITY_APPEARANCE_HANDLER(case=Full entity look, race=5*, hair=5*, head=18*, body=20*, hands=20*, legs=20*, feet=20*, main=227*, sub=39*)
  1: 0x00B5 [0x00] END_REQSTACK()
```

### Event 65535.10

#### Metadata

| Field        | Value    |
|--------------|----------|
| Entrypoint   | 0x00B6   |
| Data Size    | 21 bytes |
| Instructions | 2        |

```
      00 01 02 03 04 05 06 07  08 09 0A 0B 0C 0D 0E 0F
      -- -- -- -- -- -- -- --  -- -- -- -- -- -- -- --
00B0:                   B6 0B  1E 80 13 80 1A 80 1B 80        ..........
00C0: 1B 80 1B 80 1B 80 1C 80  1D 80 00                 ...........     
```

#### Opcodes

```
  0: 0x00B6 [0xB6] ENTITY_APPEARANCE_HANDLER(case=Full entity look, race=6*, hair=11*, head=18*, body=20*, hands=20*, legs=20*, feet=20*, main=227*, sub=39*)
  1: 0x00CA [0x00] END_REQSTACK()
```

### Event 65535.11

#### Metadata

| Field        | Value    |
|--------------|----------|
| Entrypoint   | 0x00CB   |
| Data Size    | 21 bytes |
| Instructions | 2        |

```
      00 01 02 03 04 05 06 07  08 09 0A 0B 0C 0D 0E 0F
      -- -- -- -- -- -- -- --  -- -- -- -- -- -- -- --
00C0:                                   B6 0B 0E 80 15             .....
00D0: 80 1A 80 1B 80 1B 80 1B  80 1B 80 1C 80 1D 80 00  ................
```

#### Opcodes

```
  0: 0x00CB [0xB6] ENTITY_APPEARANCE_HANDLER(case=Full entity look, race=5*, hair=15*, head=18*, body=20*, hands=20*, legs=20*, feet=20*, main=227*, sub=39*)
  1: 0x00DF [0x00] END_REQSTACK()
```

### Event 65535.12

#### Metadata

| Field        | Value    |
|--------------|----------|
| Entrypoint   | 0x00E0   |
| Data Size    | 21 bytes |
| Instructions | 2        |

```
      00 01 02 03 04 05 06 07  08 09 0A 0B 0C 0D 0E 0F
      -- -- -- -- -- -- -- --  -- -- -- -- -- -- -- --
00E0: B6 0B 0E 80 17 80 0C 80  13 80 1F 80 1F 80 1F 80  ................
00F0: 0C 80 0C 80 00                                    .....           
```

#### Opcodes

```
  0: 0x00E0 [0xB6] ENTITY_APPEARANCE_HANDLER(case=Full entity look, race=5*, hair=3*, head=0*, body=11*, hands=19*, legs=19*, feet=19*, main=0*, sub=0*)
  1: 0x00F4 [0x00] END_REQSTACK()
```

### Event 65535.13

#### Metadata

| Field        | Value    |
|--------------|----------|
| Entrypoint   | 0x00F5   |
| Data Size    | 21 bytes |
| Instructions | 2        |

```
      00 01 02 03 04 05 06 07  08 09 0A 0B 0C 0D 0E 0F
      -- -- -- -- -- -- -- --  -- -- -- -- -- -- -- --
00F0:                B6 0B 1E  80 18 80 0C 80 13 80 1F       ...........
0100: 80 1F 80 1F 80 0C 80 0C  80 00                    ..........      
```

#### Opcodes

```
  0: 0x00F5 [0xB6] ENTITY_APPEARANCE_HANDLER(case=Full entity look, race=6*, hair=2*, head=0*, body=11*, hands=19*, legs=19*, feet=19*, main=0*, sub=0*)
  1: 0x0109 [0x00] END_REQSTACK()
```

### Event 65535.14

#### Metadata

| Field        | Value    |
|--------------|----------|
| Entrypoint   | 0x010A   |
| Data Size    | 18 bytes |
| Instructions | 6        |

```
      00 01 02 03 04 05 06 07  08 09 0A 0B 0C 0D 0E 0F
      -- -- -- -- -- -- -- --  -- -- -- -- -- -- -- --
0100:                                1C 20 80 32 21 80            . .2!.
0110: 1F 00 22 80 23 80 24 80  1F 01 6F 00              ..".#.$...o.    
```

#### Opcodes

```
  0: 0x010A [0x1C] WAIT(10* ticks)
  1: 0x010D [0x32] ExtData[1]->MainSpeed = 37* * 0.1
  2: 0x0110 [0x1F] MOVE_ENTITY: EventEntity moves to X=313.156*, Z=2.856*, Y=-4.179*
  3: 0x0118 [0x1F] MOVE_ENTITY: Update entity position (mode=1)
  4: 0x011A [0x6F] WAIT_FRAME_DELAY: Yield until WaitTime reaches zero
  5: 0x011B [0x00] END_REQSTACK()
```

### Event 65535.15

#### Metadata

| Field        | Value    |
|--------------|----------|
| Entrypoint   | 0x011C   |
| Data Size    | 15 bytes |
| Instructions | 5        |

```
      00 01 02 03 04 05 06 07  08 09 0A 0B 0C 0D 0E 0F
      -- -- -- -- -- -- -- --  -- -- -- -- -- -- -- --
0110:                                      32 25 80 1F              2%..
0120: 00 26 80 27 80 28 80 1F  01 6F 00                 .&.'.(...o.     
```

#### Opcodes

```
  0: 0x011C [0x32] ExtData[1]->MainSpeed = 42* * 0.1
  1: 0x011F [0x1F] MOVE_ENTITY: EventEntity moves to X=309.656*, Z=0.986*, Y=-4.397*
  2: 0x0127 [0x1F] MOVE_ENTITY: Update entity position (mode=1)
  3: 0x0129 [0x6F] WAIT_FRAME_DELAY: Yield until WaitTime reaches zero
  4: 0x012A [0x00] END_REQSTACK()
```

### Event 65535.16

#### Metadata

| Field        | Value    |
|--------------|----------|
| Entrypoint   | 0x012B   |
| Data Size    | 18 bytes |
| Instructions | 6        |

```
      00 01 02 03 04 05 06 07  08 09 0A 0B 0C 0D 0E 0F
      -- -- -- -- -- -- -- --  -- -- -- -- -- -- -- --
0120:                                   1C 15 80 32 29             ...2)
0130: 80 1F 00 2A 80 2B 80 2C  80 1F 01 6F 00           ...*.+.,...o.   
```

#### Opcodes

```
  0: 0x012B [0x1C] WAIT(15* ticks)
  1: 0x012E [0x32] ExtData[1]->MainSpeed = 40* * 0.1
  2: 0x0131 [0x1F] MOVE_ENTITY: EventEntity moves to X=310.674*, Z=-0.587*, Y=-4.334*
  3: 0x0139 [0x1F] MOVE_ENTITY: Update entity position (mode=1)
  4: 0x013B [0x6F] WAIT_FRAME_DELAY: Yield until WaitTime reaches zero
  5: 0x013C [0x00] END_REQSTACK()
```

### Event 65535.17

#### Metadata

| Field        | Value    |
|--------------|----------|
| Entrypoint   | 0x013D   |
| Data Size    | 18 bytes |
| Instructions | 6        |

```
      00 01 02 03 04 05 06 07  08 09 0A 0B 0C 0D 0E 0F
      -- -- -- -- -- -- -- --  -- -- -- -- -- -- -- --
0130:                                         1C 15 80               ...
0140: 32 21 80 1F 00 2D 80 2E  80 2F 80 1F 01 6F 00     2!...-.../...o. 
```

#### Opcodes

```
  0: 0x013D [0x1C] WAIT(15* ticks)
  1: 0x0140 [0x32] ExtData[1]->MainSpeed = 37* * 0.1
  2: 0x0143 [0x1F] MOVE_ENTITY: EventEntity moves to X=312.974*, Z=2.003*, Y=-4.190*
  3: 0x014B [0x1F] MOVE_ENTITY: Update entity position (mode=1)
  4: 0x014D [0x6F] WAIT_FRAME_DELAY: Yield until WaitTime reaches zero
  5: 0x014E [0x00] END_REQSTACK()
```

### Event 65535.18

#### Metadata

| Field        | Value    |
|--------------|----------|
| Entrypoint   | 0x014F   |
| Data Size    | 15 bytes |
| Instructions | 5        |

```
      00 01 02 03 04 05 06 07  08 09 0A 0B 0C 0D 0E 0F
      -- -- -- -- -- -- -- --  -- -- -- -- -- -- -- --
0140:                                               32                 2
0150: 30 80 1F 00 31 80 32 80  33 80 1F 01 6F 00        0...1.2.3...o.  
```

#### Opcodes

```
  0: 0x014F [0x32] ExtData[1]->MainSpeed = 41* * 0.1
  1: 0x0152 [0x1F] MOVE_ENTITY: EventEntity moves to X=314.813*, Z=0.466*, Y=-4.075*
  2: 0x015A [0x1F] MOVE_ENTITY: Update entity position (mode=1)
  3: 0x015C [0x6F] WAIT_FRAME_DELAY: Yield until WaitTime reaches zero
  4: 0x015D [0x00] END_REQSTACK()
```

### Event 65535.19

#### Metadata

| Field        | Value    |
|--------------|----------|
| Entrypoint   | 0x015E   |
| Data Size    | 18 bytes |
| Instructions | 6        |

```
      00 01 02 03 04 05 06 07  08 09 0A 0B 0C 0D 0E 0F
      -- -- -- -- -- -- -- --  -- -- -- -- -- -- -- --
0150:                                            1C 20                . 
0160: 80 32 1D 80 1F 00 34 80  35 80 36 80 1F 01 6F 00  .2....4.5.6...o.
```

#### Opcodes

```
  0: 0x015E [0x1C] WAIT(10* ticks)
  1: 0x0161 [0x32] ExtData[1]->MainSpeed = 39* * 0.1
  2: 0x0164 [0x1F] MOVE_ENTITY: EventEntity moves to X=314.234*, Z=4.692*, Y=-4.156*
  3: 0x016C [0x1F] MOVE_ENTITY: Update entity position (mode=1)
  4: 0x016E [0x6F] WAIT_FRAME_DELAY: Yield until WaitTime reaches zero
  5: 0x016F [0x00] END_REQSTACK()
```

### Event 65535.20

#### Metadata

| Field        | Value    |
|--------------|----------|
| Entrypoint   | 0x0170   |
| Data Size    | 15 bytes |
| Instructions | 5        |

```
      00 01 02 03 04 05 06 07  08 09 0A 0B 0C 0D 0E 0F
      -- -- -- -- -- -- -- --  -- -- -- -- -- -- -- --
0170: 32 30 80 1F 00 37 80 38  80 39 80 1F 01 6F 00     20...7.8.9...o. 
```

#### Opcodes

```
  0: 0x0170 [0x32] ExtData[1]->MainSpeed = 41* * 0.1
  1: 0x0173 [0x1F] MOVE_ENTITY: EventEntity moves to X=153.814*, Z=-6.997*, Y=-3.629*
  2: 0x017B [0x1F] MOVE_ENTITY: Update entity position (mode=1)
  3: 0x017D [0x6F] WAIT_FRAME_DELAY: Yield until WaitTime reaches zero
  4: 0x017E [0x00] END_REQSTACK()
```

### Event 65535.21

#### Metadata

| Field        | Value    |
|--------------|----------|
| Entrypoint   | 0x017F   |
| Data Size    | 18 bytes |
| Instructions | 6        |

```
      00 01 02 03 04 05 06 07  08 09 0A 0B 0C 0D 0E 0F
      -- -- -- -- -- -- -- --  -- -- -- -- -- -- -- --
0170:                                               1C                 .
0180: 15 80 32 1D 80 1F 00 3A  80 3B 80 3C 80 1F 01 6F  ..2....:.;.<...o
0190: 00                                                .               
```

#### Opcodes

```
  0: 0x017F [0x1C] WAIT(15* ticks)
  1: 0x0182 [0x32] ExtData[1]->MainSpeed = 39* * 0.1
  2: 0x0185 [0x1F] MOVE_ENTITY: EventEntity moves to X=155.063*, Z=-5.530*, Y=-3.882*
  3: 0x018D [0x1F] MOVE_ENTITY: Update entity position (mode=1)
  4: 0x018F [0x6F] WAIT_FRAME_DELAY: Yield until WaitTime reaches zero
  5: 0x0190 [0x00] END_REQSTACK()
```

### Event 65535.22

#### Metadata

| Field        | Value    |
|--------------|----------|
| Entrypoint   | 0x0191   |
| Data Size    | 18 bytes |
| Instructions | 6        |

```
      00 01 02 03 04 05 06 07  08 09 0A 0B 0C 0D 0E 0F
      -- -- -- -- -- -- -- --  -- -- -- -- -- -- -- --
0190:    1C 1B 80 32 21 80 1F  00 3D 80 3E 80 3F 80 1F   ...2!...=.>.?..
01A0: 01 6F 00                                          .o.             
```

#### Opcodes

```
  0: 0x0191 [0x1C] WAIT(20* ticks)
  1: 0x0194 [0x32] ExtData[1]->MainSpeed = 37* * 0.1
  2: 0x0197 [0x1F] MOVE_ENTITY: EventEntity moves to X=171.365*, Z=-12.172*, Y=-2.939*
  3: 0x019F [0x1F] MOVE_ENTITY: Update entity position (mode=1)
  4: 0x01A1 [0x6F] WAIT_FRAME_DELAY: Yield until WaitTime reaches zero
  5: 0x01A2 [0x00] END_REQSTACK()
```

### Event 65535.23

#### Metadata

| Field        | Value    |
|--------------|----------|
| Entrypoint   | 0x01A3   |
| Data Size    | 18 bytes |
| Instructions | 6        |

```
      00 01 02 03 04 05 06 07  08 09 0A 0B 0C 0D 0E 0F
      -- -- -- -- -- -- -- --  -- -- -- -- -- -- -- --
01A0:          1C 20 80 32 29  80 1F 00 40 80 41 80 42     . .2)...@.A.B
01B0: 80 1F 01 6F 00                                    ...o.           
```

#### Opcodes

```
  0: 0x01A3 [0x1C] WAIT(10* ticks)
  1: 0x01A6 [0x32] ExtData[1]->MainSpeed = 40* * 0.1
  2: 0x01A9 [0x1F] MOVE_ENTITY: EventEntity moves to X=170.163*, Z=-12.866*, Y=-2.688*
  3: 0x01B1 [0x1F] MOVE_ENTITY: Update entity position (mode=1)
  4: 0x01B3 [0x6F] WAIT_FRAME_DELAY: Yield until WaitTime reaches zero
  5: 0x01B4 [0x00] END_REQSTACK()
```

### Event 65535.24

#### Metadata

| Field        | Value   |
|--------------|---------|
| Entrypoint   | 0x01B5  |
| Data Size    | 1 bytes |
| Instructions | 1       |

```
      00 01 02 03 04 05 06 07  08 09 0A 0B 0C 0D 0E 0F
      -- -- -- -- -- -- -- --  -- -- -- -- -- -- -- --
01B0:                00                                      .          
```

#### Opcodes

```
  0: 0x01B5 [0x00] END_REQSTACK()
```

### Event 65535.25

#### Metadata

| Field        | Value    |
|--------------|----------|
| Entrypoint   | 0x01B6   |
| Data Size    | 18 bytes |
| Instructions | 4        |

```
      00 01 02 03 04 05 06 07  08 09 0A 0B 0C 0D 0E 0F
      -- -- -- -- -- -- -- --  -- -- -- -- -- -- -- --
01B0:                   22 00  2F 00 F8 FF FF 7F 6C F8        "./.....l.
01C0: FF FF 7F 0C 80 43 80 00                           .....C..        
```

#### Opcodes

```
  0: 0x01B6 [0x22] ENTITY_HIDE_FLAG(enabled=0x00)
  1: 0x01B8 [0x2F] EventEntity->Render.Flags0 &= ~0x80000 // Bit 19
  2: 0x01BE [0x6C] FADE_ENTITY_COLOR(entity_id=EventEntity, end_alpha=0*, fade_time=1*)
  3: 0x01C7 [0x00] END_REQSTACK()
```

### Event 65535.26

#### Metadata

| Field        | Value    |
|--------------|----------|
| Entrypoint   | 0x01C8   |
| Data Size    | 10 bytes |
| Instructions | 2        |

```
      00 01 02 03 04 05 06 07  08 09 0A 0B 0C 0D 0E 0F
      -- -- -- -- -- -- -- --  -- -- -- -- -- -- -- --
01C0:                          6C F8 FF FF 7F 44 80 43          l....D.C
01D0: 80 00                                             ..              
```

#### Opcodes

```
  0: 0x01C8 [0x6C] FADE_ENTITY_COLOR(entity_id=EventEntity, end_alpha=128*, fade_time=1*)
  1: 0x01D1 [0x00] END_REQSTACK()
```

### Event 65535.27

#### Metadata

| Field        | Value   |
|--------------|---------|
| Entrypoint   | 0x01D2  |
| Data Size    | 9 bytes |
| Instructions | 3       |

```
      00 01 02 03 04 05 06 07  08 09 0A 0B 0C 0D 0E 0F
      -- -- -- -- -- -- -- --  -- -- -- -- -- -- -- --
01D0:       22 00 2F 00 F8 FF  FF 7F 00                   "./......     
```

#### Opcodes

```
  0: 0x01D2 [0x22] ENTITY_HIDE_FLAG(enabled=0x00)
  1: 0x01D4 [0x2F] EventEntity->Render.Flags0 &= ~0x80000 // Bit 19
  2: 0x01DA [0x00] END_REQSTACK()
```

### Event 65535.28

#### Metadata

| Field        | Value   |
|--------------|---------|
| Entrypoint   | 0x01DB  |
| Data Size    | 9 bytes |
| Instructions | 3       |

```
      00 01 02 03 04 05 06 07  08 09 0A 0B 0C 0D 0E 0F
      -- -- -- -- -- -- -- --  -- -- -- -- -- -- -- --
01D0:                                   22 01 2F 01 F8             "./..
01E0: FF FF 7F 00                                       ....            
```

#### Opcodes

```
  0: 0x01DB [0x22] ENTITY_HIDE_FLAG(enabled=0x01)
  1: 0x01DD [0x2F] EventEntity->Render.Flags0 |= 0x80000 // Bit 19
  2: 0x01E3 [0x00] END_REQSTACK()
```

### Event 65535.29

#### Metadata

| Field        | Value    |
|--------------|----------|
| Entrypoint   | 0x01E4   |
| Data Size    | 10 bytes |
| Instructions | 2        |

```
      00 01 02 03 04 05 06 07  08 09 0A 0B 0C 0D 0E 0F
      -- -- -- -- -- -- -- --  -- -- -- -- -- -- -- --
01E0:             6C F8 FF FF  7F 0C 80 43 80 00            l......C..  
```

#### Opcodes

```
  0: 0x01E4 [0x6C] FADE_ENTITY_COLOR(entity_id=EventEntity, end_alpha=0*, fade_time=1*)
  1: 0x01ED [0x00] END_REQSTACK()
```

### Event 65535.30

#### Metadata

| Field        | Value    |
|--------------|----------|
| Entrypoint   | 0x01EE   |
| Data Size    | 10 bytes |
| Instructions | 2        |

```
      00 01 02 03 04 05 06 07  08 09 0A 0B 0C 0D 0E 0F
      -- -- -- -- -- -- -- --  -- -- -- -- -- -- -- --
01E0:                                            6C F8                l.
01F0: FF FF 7F 44 80 43 80 00                           ...D.C..        
```

#### Opcodes

```
  0: 0x01EE [0x6C] FADE_ENTITY_COLOR(entity_id=EventEntity, end_alpha=128*, fade_time=1*)
  1: 0x01F7 [0x00] END_REQSTACK()
```
