# 17167234

## Common Data

| Field            | Value                          |
|------------------|--------------------------------|
| Zone             | West Sarutabaruta [S] (ID: 95) |
| Block Size       | 1144 bytes                     |
| Total Events     | 31                             |
| References Count | 58                             |

## List of Events

| Event ID                   | Entrypoint   |   Size |   Instructions |
|----------------------------|--------------|--------|----------------|
| [65535](#event-65535)      | 0x0000       |      1 |              1 |
| [65535.1](#event-655351)   | 0x0001       |      1 |              1 |
| [65535.2](#event-655352)   | 0x0002       |     18 |              4 |
| [65535.3](#event-655353)   | 0x0014       |     10 |              2 |
| [65535.4](#event-655354)   | 0x001E       |      9 |              3 |
| [65535.5](#event-655355)   | 0x0027       |      9 |              3 |
| [65535.6](#event-655356)   | 0x0030       |     10 |              2 |
| [65535.7](#event-655357)   | 0x003A       |     10 |              2 |
| [114](#event-114)          | 0x0044       |      1 |              1 |
| [115](#event-115)          | 0x0045       |      1 |              1 |
| [116](#event-116)          | 0x0046       |      1 |              1 |
| [106](#event-106)          | 0x0047       |      1 |              1 |
| [65535.8](#event-655358)   | 0x0048       |      4 |              2 |
| [65535.9](#event-655359)   | 0x004C       |    223 |             31 |
| [65535.10](#event-6553510) | 0x012B       |     37 |              7 |
| [65535.11](#event-6553511) | 0x0150       |     43 |              8 |
| [65535.12](#event-6553512) | 0x017B       |     50 |              8 |
| [65535.13](#event-6553513) | 0x01AD       |     50 |              8 |
| [65535.14](#event-6553514) | 0x01DF       |    171 |             24 |
| [65535.15](#event-6553515) | 0x028A       |     11 |              5 |
| [65535.16](#event-6553516) | 0x0295       |     11 |              5 |
| [65535.17](#event-6553517) | 0x02A0       |     11 |              5 |
| [65535.18](#event-6553518) | 0x02AB       |     11 |              5 |
| [65535.19](#event-6553519) | 0x02B6       |     11 |              5 |
| [65535.20](#event-6553520) | 0x02C1       |     11 |              5 |
| [65535.21](#event-6553521) | 0x02CC       |     11 |              5 |
| [65535.22](#event-6553522) | 0x02D7       |     11 |              5 |
| [65535.23](#event-6553523) | 0x02E2       |     11 |              5 |
| [65535.24](#event-6553524) | 0x02ED       |     11 |              5 |
| [65535.25](#event-6553525) | 0x02F8       |     11 |              5 |
| [110](#event-110)          | 0x0303       |      1 |              1 |

## DAT References (imed_data)

|   Index | Hex Value   |   Dec Value |
|---------|-------------|-------------|
|       0 | 0x0000      |           0 |
|       1 | 0x0001      |           1 |
|       2 | 0x0080      |         128 |
|       3 | 0x4C579     |      312697 |
|       4 | 0xFFFF86F5  |  4294936309 |
|       5 | 0xFFFFBBA4  |  4294949796 |
|       6 | 0x0BB9      |        3001 |
|       7 | 0x4C71D     |      313117 |
|       8 | 0xFFFF7917  |  4294932759 |
|       9 | 0x0BB8      |        3000 |
|      10 | 0x4B43E     |      308286 |
|      11 | 0xFFFF7C94  |  4294933652 |
|      12 | 0x4B212     |      307730 |
|      13 | 0xFFFF74EA  |  4294931690 |
|      14 | 0x4C482     |      312450 |
|      15 | 0xFFFF8205  |  4294935045 |
|      16 | 0xFFFFBBA5  |  4294949797 |
|      17 | 0x4C944     |      313668 |
|      18 | 0xFFFF8118  |  4294934808 |
|      19 | 0x3E37D     |      254845 |
|      20 | 0x27B9B     |      162715 |
|      21 | 0xFFFFC424  |  4294951972 |
|      22 | 0x0190      |         400 |
|      23 | 0x3EA8D     |      256653 |
|      24 | 0x283FF     |      164863 |
|      25 | 0xFFFFC47E  |  4294952062 |
|      26 | 0x018F      |         399 |
|      27 | 0x3E4DC     |      255196 |
|      28 | 0x25A14     |      154132 |
|      29 | 0xFFFFC634  |  4294952500 |
|      30 | 0x3EA21     |      256545 |
|      31 | 0x264A8     |      156840 |
|      32 | 0xFFFFC521  |  4294952225 |
|      33 | 0x401DC     |      262620 |
|      34 | 0x2BC73     |      179315 |
|      35 | 0xFFFFBD53  |  4294950227 |
|      36 | 0x3D1ED     |      250349 |
|      37 | 0x2702D     |      159789 |
|      38 | 0xFFFFC2A0  |  4294951584 |
|      39 | 0x0050      |          80 |
|      40 | 0x2008      |        8200 |
|      41 | 0x00C8      |         200 |
|      42 | 0x0140      |         320 |
|      43 | 0x2009      |        8201 |
|      44 | 0x200A      |        8202 |
|      45 | 0x00DC      |         220 |
|      46 | 0x200B      |        8203 |
|      47 | 0x0078      |         120 |
|      48 | 0x200C      |        8204 |
|      49 | 0x008C      |         140 |
|      50 | 0x0154      |         340 |
|      51 | 0x200D      |        8205 |
|      52 | 0x200E      |        8206 |
|      53 | 0x200F      |        8207 |
|      54 | 0x2010      |        8208 |
|      55 | 0x2011      |        8209 |
|      56 | 0x00A0      |         160 |
|      57 | 0x2012      |        8210 |

## String References

- **8200**: The Federation of Windurst... An ancient capital nurtured by the boughs of a great tree, blessed by magical waters, and protected by the moon and stars...
- **8201**: In a time forgotten, a people forced to wander by starvation and cold were led to this land by a wondrous star...
- **8202**: Lost souls, adrift in time, found themselves within these walls, and many a tear was shed...
- **8203**: Those tears nourished the soil, and today, a sapling of hope peeks through the earth to meet a bright new sun...
- **8204**: Shrink not from your future, my friend...
- **8205**: For even the longest, darkest night must eventually give way to the dawn.
- **8206**: And though your body may return to the earth, your memory shall live on. In the wind, the trees, and the hearts of those whose lives you shared...
- **8207**: Your destiny is yours alone to forge. For this is neither the beginning nor the end, but merely one stop on a journey of limitless possibilities...
- **8208**: The sapling shall grow into a great tree. Its leaves will take to the wind, carrying hopes and dreams with them, and a new chapter of history will be written.
- **8209**: ...But that is a story for another time.
- **8210**: Another day, when the stars in the heavens align to bring our paths together once more...

## Events

### Event 65535

#### Metadata

| Field        | Value   |
|--------------|---------|
| Entrypoint   | 0x0000  |
| Data Size    | 1 bytes |
| Instructions | 1       |

```
      00 01 02 03 04 05 06 07  08 09 0A 0B 0C 0D 0E 0F
      -- -- -- -- -- -- -- --  -- -- -- -- -- -- -- --
0000: 00                                                .               
```

#### Opcodes

```
  0: 0x0000 [0x00] END_REQSTACK()
```

### Event 65535.1

#### Metadata

| Field        | Value   |
|--------------|---------|
| Entrypoint   | 0x0001  |
| Data Size    | 1 bytes |
| Instructions | 1       |

```
      00 01 02 03 04 05 06 07  08 09 0A 0B 0C 0D 0E 0F
      -- -- -- -- -- -- -- --  -- -- -- -- -- -- -- --
0000:    00                                              .              
```

#### Opcodes

```
  0: 0x0001 [0x00] END_REQSTACK()
```

### Event 65535.2

#### Metadata

| Field        | Value    |
|--------------|----------|
| Entrypoint   | 0x0002   |
| Data Size    | 18 bytes |
| Instructions | 4        |

```
      00 01 02 03 04 05 06 07  08 09 0A 0B 0C 0D 0E 0F
      -- -- -- -- -- -- -- --  -- -- -- -- -- -- -- --
0000:       22 00 2F 00 F8 FF  FF 7F 6C F8 FF FF 7F 00    "./.....l.....
0010: 80 01 80 00                                       ....            
```

#### Opcodes

```
  0: 0x0002 [0x22] ENTITY_HIDE_FLAG(enabled=0x00)
  1: 0x0004 [0x2F] EventEntity->Render.Flags0 &= ~0x80000 // Bit 19
  2: 0x000A [0x6C] FADE_ENTITY_COLOR(entity_id=EventEntity, end_alpha=0*, fade_time=1*)
  3: 0x0013 [0x00] END_REQSTACK()
```

### Event 65535.3

#### Metadata

| Field        | Value    |
|--------------|----------|
| Entrypoint   | 0x0014   |
| Data Size    | 10 bytes |
| Instructions | 2        |

```
      00 01 02 03 04 05 06 07  08 09 0A 0B 0C 0D 0E 0F
      -- -- -- -- -- -- -- --  -- -- -- -- -- -- -- --
0010:             6C F8 FF FF  7F 02 80 01 80 00            l.........  
```

#### Opcodes

```
  0: 0x0014 [0x6C] FADE_ENTITY_COLOR(entity_id=EventEntity, end_alpha=128*, fade_time=1*)
  1: 0x001D [0x00] END_REQSTACK()
```

### Event 65535.4

#### Metadata

| Field        | Value   |
|--------------|---------|
| Entrypoint   | 0x001E  |
| Data Size    | 9 bytes |
| Instructions | 3       |

```
      00 01 02 03 04 05 06 07  08 09 0A 0B 0C 0D 0E 0F
      -- -- -- -- -- -- -- --  -- -- -- -- -- -- -- --
0010:                                            22 00                ".
0020: 2F 00 F8 FF FF 7F 00                              /......         
```

#### Opcodes

```
  0: 0x001E [0x22] ENTITY_HIDE_FLAG(enabled=0x00)
  1: 0x0020 [0x2F] EventEntity->Render.Flags0 &= ~0x80000 // Bit 19
  2: 0x0026 [0x00] END_REQSTACK()
```

### Event 65535.5

#### Metadata

| Field        | Value   |
|--------------|---------|
| Entrypoint   | 0x0027  |
| Data Size    | 9 bytes |
| Instructions | 3       |

```
      00 01 02 03 04 05 06 07  08 09 0A 0B 0C 0D 0E 0F
      -- -- -- -- -- -- -- --  -- -- -- -- -- -- -- --
0020:                      22  01 2F 01 F8 FF FF 7F 00         "./......
```

#### Opcodes

```
  0: 0x0027 [0x22] ENTITY_HIDE_FLAG(enabled=0x01)
  1: 0x0029 [0x2F] EventEntity->Render.Flags0 |= 0x80000 // Bit 19
  2: 0x002F [0x00] END_REQSTACK()
```

### Event 65535.6

#### Metadata

| Field        | Value    |
|--------------|----------|
| Entrypoint   | 0x0030   |
| Data Size    | 10 bytes |
| Instructions | 2        |

```
      00 01 02 03 04 05 06 07  08 09 0A 0B 0C 0D 0E 0F
      -- -- -- -- -- -- -- --  -- -- -- -- -- -- -- --
0030: 6C F8 FF FF 7F 00 80 01  80 00                    l.........      
```

#### Opcodes

```
  0: 0x0030 [0x6C] FADE_ENTITY_COLOR(entity_id=EventEntity, end_alpha=0*, fade_time=1*)
  1: 0x0039 [0x00] END_REQSTACK()
```

### Event 65535.7

#### Metadata

| Field        | Value    |
|--------------|----------|
| Entrypoint   | 0x003A   |
| Data Size    | 10 bytes |
| Instructions | 2        |

```
      00 01 02 03 04 05 06 07  08 09 0A 0B 0C 0D 0E 0F
      -- -- -- -- -- -- -- --  -- -- -- -- -- -- -- --
0030:                                6C F8 FF FF 7F 02            l.....
0040: 80 01 80 00                                       ....            
```

#### Opcodes

```
  0: 0x003A [0x6C] FADE_ENTITY_COLOR(entity_id=EventEntity, end_alpha=128*, fade_time=1*)
  1: 0x0043 [0x00] END_REQSTACK()
```

### Event 114

#### Metadata

| Field        | Value   |
|--------------|---------|
| Entrypoint   | 0x0044  |
| Data Size    | 1 bytes |
| Instructions | 1       |

```
      00 01 02 03 04 05 06 07  08 09 0A 0B 0C 0D 0E 0F
      -- -- -- -- -- -- -- --  -- -- -- -- -- -- -- --
0040:             00                                        .           
```

#### Opcodes

```
  0: 0x0044 [0x00] END_REQSTACK()
```

### Event 115

#### Metadata

| Field        | Value   |
|--------------|---------|
| Entrypoint   | 0x0045  |
| Data Size    | 1 bytes |
| Instructions | 1       |

```
      00 01 02 03 04 05 06 07  08 09 0A 0B 0C 0D 0E 0F
      -- -- -- -- -- -- -- --  -- -- -- -- -- -- -- --
0040:                00                                      .          
```

#### Opcodes

```
  0: 0x0045 [0x00] END_REQSTACK()
```

### Event 116

#### Metadata

| Field        | Value   |
|--------------|---------|
| Entrypoint   | 0x0046  |
| Data Size    | 1 bytes |
| Instructions | 1       |

```
      00 01 02 03 04 05 06 07  08 09 0A 0B 0C 0D 0E 0F
      -- -- -- -- -- -- -- --  -- -- -- -- -- -- -- --
0040:                   00                                    .         
```

#### Opcodes

```
  0: 0x0046 [0x00] END_REQSTACK()
```

### Event 106

#### Metadata

| Field        | Value   |
|--------------|---------|
| Entrypoint   | 0x0047  |
| Data Size    | 1 bytes |
| Instructions | 1       |

```
      00 01 02 03 04 05 06 07  08 09 0A 0B 0C 0D 0E 0F
      -- -- -- -- -- -- -- --  -- -- -- -- -- -- -- --
0040:                      00                                  .        
```

#### Opcodes

```
  0: 0x0047 [0x00] END_REQSTACK()
```

### Event 65535.8

#### Metadata

| Field        | Value   |
|--------------|---------|
| Entrypoint   | 0x0048  |
| Data Size    | 4 bytes |
| Instructions | 2       |

```
      00 01 02 03 04 05 06 07  08 09 0A 0B 0C 0D 0E 0F
      -- -- -- -- -- -- -- --  -- -- -- -- -- -- -- --
0040:                          1C 02 10 00                      ....    
```

#### Opcodes

```
  0: 0x0048 [0x1C] WAIT(Work_Zone[2] ticks)
  1: 0x004B [0x00] END_REQSTACK()
```

### Event 65535.9

#### Metadata

| Field        | Value     |
|--------------|-----------|
| Entrypoint   | 0x004C    |
| Data Size    | 223 bytes |
| Instructions | 31        |

```
      00 01 02 03 04 05 06 07  08 09 0A 0B 0C 0D 0E 0F
      -- -- -- -- -- -- -- --  -- -- -- -- -- -- -- --
0040:                                      27 10 98 F3              '...
0050: 05 01 0F 27 10 AB F3 05  01 20 27 10 AC F3 05 01  ...'..... '.....
0060: 20 27 10 AD F3 05 01 1F  27 10 A9 F3 05 01 06 27   '......'......'
0070: 10 AA F3 05 01 06 92 01  98 F3 05 01 92 01 AB F3  ................
0080: 05 01 92 01 AC F3 05 01  92 01 AD F3 05 01 92 01  ................
0090: A9 F3 05 01 92 01 AA F3  05 01 94 01 98 F3 05 01  ................
00A0: 94 01 AB F3 05 01 94 01  AC F3 05 01 94 01 AD F3  ................
00B0: 05 01 94 01 A9 F3 05 01  94 01 AA F3 05 01 BA 98  ................
00C0: F3 05 01 03 80 04 80 05  80 06 80 BA AB F3 05 01  ................
00D0: 07 80 08 80 05 80 09 80  BA AC F3 05 01 0A 80 0B  ................
00E0: 80 05 80 06 80 BA AD F3  05 01 0C 80 0D 80 05 80  ................
00F0: 09 80 BA A9 F3 05 01 0E  80 0F 80 10 80 09 80 BA  ................
0100: AA F3 05 01 11 80 12 80  10 80 09 80 80 98 F3 05  ................
0110: 01 80 AB F3 05 01 80 AC  F3 05 01 80 AD F3 05 01  ................
0120: 80 A9 F3 05 01 80 AA F3  05 01 00                 ...........     
```

#### Opcodes

```
  0: 0x004C [0x27] REQ_SET(priority=0x10, entity_id=Perih Vashai (ID: 17167256/0x0105F398), tag_num=0x0F)
  1: 0x0053 [0x27] REQ_SET(priority=0x10, entity_id=01 (ID: 17167275/0x0105F3AB), tag_num=0x20)
  2: 0x005A [0x27] REQ_SET(priority=0x10, entity_id=02 (ID: 17167276/0x0105F3AC), tag_num=0x20)
  3: 0x0061 [0x27] REQ_SET(priority=0x10, entity_id=03 (ID: 17167277/0x0105F3AD), tag_num=0x1F)
  4: 0x0068 [0x27] REQ_SET(priority=0x10, entity_id=Livura-Novora (ID: 17167273/0x0105F3A9), tag_num=0x06)
  5: 0x006F [0x27] REQ_SET(priority=0x10, entity_id=Kindel-Bandel (ID: 17167274/0x0105F3AA), tag_num=0x06)
  6: 0x0076 [0x92] Perih Vashai (ID: 17167256/0x0105F398)->Render.Flags3 ^= 0x01
  7: 0x007C [0x92] 01 (ID: 17167275/0x0105F3AB)->Render.Flags3 ^= 0x01
  8: 0x0082 [0x92] 02 (ID: 17167276/0x0105F3AC)->Render.Flags3 ^= 0x01
  9: 0x0088 [0x92] 03 (ID: 17167277/0x0105F3AD)->Render.Flags3 ^= 0x01
 10: 0x008E [0x92] Livura-Novora (ID: 17167273/0x0105F3A9)->Render.Flags3 ^= 0x01
 11: 0x0094 [0x92] Kindel-Bandel (ID: 17167274/0x0105F3AA)->Render.Flags3 ^= 0x01
 12: 0x009A [0x94] Perih Vashai (ID: 17167256/0x0105F398)->Render.Flags3 ^= 0x01
 13: 0x00A0 [0x94] 01 (ID: 17167275/0x0105F3AB)->Render.Flags3 ^= 0x01
 14: 0x00A6 [0x94] 02 (ID: 17167276/0x0105F3AC)->Render.Flags3 ^= 0x01
 15: 0x00AC [0x94] 03 (ID: 17167277/0x0105F3AD)->Render.Flags3 ^= 0x01
 16: 0x00B2 [0x94] Livura-Novora (ID: 17167273/0x0105F3A9)->Render.Flags3 ^= 0x01
 17: 0x00B8 [0x94] Kindel-Bandel (ID: 17167274/0x0105F3AA)->Render.Flags3 ^= 0x01
 18: 0x00BE [0xBA] SET_ENTITY_POSITION(entity_id=Perih Vashai (ID: 17167256/0x0105F398), pos_x=312.697*, pos_z=-30.987*, pos_y=-17.500*, direction=263.8°*)
 19: 0x00CB [0xBA] SET_ENTITY_POSITION(entity_id=01 (ID: 17167275/0x0105F3AB), pos_x=313.117*, pos_z=-34.537*, pos_y=-17.500*, direction=263.7°*)
 20: 0x00D8 [0xBA] SET_ENTITY_POSITION(entity_id=02 (ID: 17167276/0x0105F3AC), pos_x=308.286*, pos_z=-33.644*, pos_y=-17.500*, direction=263.8°*)
 21: 0x00E5 [0xBA] SET_ENTITY_POSITION(entity_id=03 (ID: 17167277/0x0105F3AD), pos_x=307.730*, pos_z=-35.606*, pos_y=-17.500*, direction=263.7°*)
 22: 0x00F2 [0xBA] SET_ENTITY_POSITION(entity_id=Livura-Novora (ID: 17167273/0x0105F3A9), pos_x=312.450*, pos_z=-32.251*, pos_y=-17.499*, direction=263.7°*)
 23: 0x00FF [0xBA] SET_ENTITY_POSITION(entity_id=Kindel-Bandel (ID: 17167274/0x0105F3AA), pos_x=313.668*, pos_z=-32.488*, pos_y=-17.499*, direction=263.7°*)
 24: 0x010C [0x80] LOAD_WAIT(entity=Perih Vashai (ID: 17167256/0x0105F398))
 25: 0x0111 [0x80] LOAD_WAIT(entity=01 (ID: 17167275/0x0105F3AB))
 26: 0x0116 [0x80] LOAD_WAIT(entity=02 (ID: 17167276/0x0105F3AC))
 27: 0x011B [0x80] LOAD_WAIT(entity=03 (ID: 17167277/0x0105F3AD))
 28: 0x0120 [0x80] LOAD_WAIT(entity=Livura-Novora (ID: 17167273/0x0105F3A9))
 29: 0x0125 [0x80] LOAD_WAIT(entity=Kindel-Bandel (ID: 17167274/0x0105F3AA))
 30: 0x012A [0x00] END_REQSTACK()
```

### Event 65535.10

#### Metadata

| Field        | Value    |
|--------------|----------|
| Entrypoint   | 0x012B   |
| Data Size    | 37 bytes |
| Instructions | 7        |

```
      00 01 02 03 04 05 06 07  08 09 0A 0B 0C 0D 0E 0F
      -- -- -- -- -- -- -- --  -- -- -- -- -- -- -- --
0120:                                   4E 01 98 F3 05             N....
0130: 01 4E 01 AB F3 05 01 4E  01 AC F3 05 01 4E 01 AD  .N.....N.....N..
0140: F3 05 01 4E 01 A9 F3 05  01 4E 01 AA F3 05 01 00  ...N.....N......
```

#### Opcodes

```
  0: 0x012B [0x4E] SET_ENTITY_HIDE_FLAG: Hide Perih Vashai (ID: 17167256/0x0105F398)
  1: 0x0131 [0x4E] SET_ENTITY_HIDE_FLAG: Hide 01 (ID: 17167275/0x0105F3AB)
  2: 0x0137 [0x4E] SET_ENTITY_HIDE_FLAG: Hide 02 (ID: 17167276/0x0105F3AC)
  3: 0x013D [0x4E] SET_ENTITY_HIDE_FLAG: Hide 03 (ID: 17167277/0x0105F3AD)
  4: 0x0143 [0x4E] SET_ENTITY_HIDE_FLAG: Hide Livura-Novora (ID: 17167273/0x0105F3A9)
  5: 0x0149 [0x4E] SET_ENTITY_HIDE_FLAG: Hide Kindel-Bandel (ID: 17167274/0x0105F3AA)
  6: 0x014F [0x00] END_REQSTACK()
```

### Event 65535.11

#### Metadata

| Field        | Value    |
|--------------|----------|
| Entrypoint   | 0x0150   |
| Data Size    | 43 bytes |
| Instructions | 8        |

```
      00 01 02 03 04 05 06 07  08 09 0A 0B 0C 0D 0E 0F
      -- -- -- -- -- -- -- --  -- -- -- -- -- -- -- --
0150: 4E 01 BF F3 05 01 4E 01  C0 F3 05 01 4E 01 C1 F3  N.....N.....N...
0160: 05 01 4E 01 C2 F3 05 01  4E 01 C3 F3 05 01 4E 01  ..N.....N.....N.
0170: C8 F3 05 01 4E 01 C9 F3  05 01 00                 ....N......     
```

#### Opcodes

```
  0: 0x0150 [0x4E] SET_ENTITY_HIDE_FLAG: Hide Y01 (ID: 17167295/0x0105F3BF)
  1: 0x0156 [0x4E] SET_ENTITY_HIDE_FLAG: Hide Y02 (ID: 17167296/0x0105F3C0)
  2: 0x015C [0x4E] SET_ENTITY_HIDE_FLAG: Hide Y03 (ID: 17167297/0x0105F3C1)
  3: 0x0162 [0x4E] SET_ENTITY_HIDE_FLAG: Hide Y04 (ID: 17167298/0x0105F3C2)
  4: 0x0168 [0x4E] SET_ENTITY_HIDE_FLAG: Hide Y05 (ID: 17167299/0x0105F3C3)
  5: 0x016E [0x4E] SET_ENTITY_HIDE_FLAG: Hide D10 (ID: 17167304/0x0105F3C8)
  6: 0x0174 [0x4E] SET_ENTITY_HIDE_FLAG: Hide D11 (ID: 17167305/0x0105F3C9)
  7: 0x017A [0x00] END_REQSTACK()
```

### Event 65535.12

#### Metadata

| Field        | Value    |
|--------------|----------|
| Entrypoint   | 0x017B   |
| Data Size    | 50 bytes |
| Instructions | 8        |

```
      00 01 02 03 04 05 06 07  08 09 0A 0B 0C 0D 0E 0F
      -- -- -- -- -- -- -- --  -- -- -- -- -- -- -- --
0170:                                   27 10 BF F3 05             '....
0180: 01 07 27 10 C0 F3 05 01  07 27 10 C1 F3 05 01 09  ..'......'......
0190: 27 10 C2 F3 05 01 06 27  10 C3 F3 05 01 09 27 10  '......'......'.
01A0: C8 F3 05 01 06 27 10 C9  F3 05 01 06 00           .....'.......   
```

#### Opcodes

```
  0: 0x017B [0x27] REQ_SET(priority=0x10, entity_id=Y01 (ID: 17167295/0x0105F3BF), tag_num=0x07)
  1: 0x0182 [0x27] REQ_SET(priority=0x10, entity_id=Y02 (ID: 17167296/0x0105F3C0), tag_num=0x07)
  2: 0x0189 [0x27] REQ_SET(priority=0x10, entity_id=Y03 (ID: 17167297/0x0105F3C1), tag_num=0x09)
  3: 0x0190 [0x27] REQ_SET(priority=0x10, entity_id=Y04 (ID: 17167298/0x0105F3C2), tag_num=0x06)
  4: 0x0197 [0x27] REQ_SET(priority=0x10, entity_id=Y05 (ID: 17167299/0x0105F3C3), tag_num=0x09)
  5: 0x019E [0x27] REQ_SET(priority=0x10, entity_id=D10 (ID: 17167304/0x0105F3C8), tag_num=0x06)
  6: 0x01A5 [0x27] REQ_SET(priority=0x10, entity_id=D11 (ID: 17167305/0x0105F3C9), tag_num=0x06)
  7: 0x01AC [0x00] END_REQSTACK()
```

### Event 65535.13

#### Metadata

| Field        | Value    |
|--------------|----------|
| Entrypoint   | 0x01AD   |
| Data Size    | 50 bytes |
| Instructions | 8        |

```
      00 01 02 03 04 05 06 07  08 09 0A 0B 0C 0D 0E 0F
      -- -- -- -- -- -- -- --  -- -- -- -- -- -- -- --
01A0:                                         27 10 BF               '..
01B0: F3 05 01 08 27 10 C0 F3  05 01 08 27 10 C1 F3 05  ....'......'....
01C0: 01 0A 27 10 C2 F3 05 01  07 27 10 C3 F3 05 01 0A  ..'......'......
01D0: 27 10 C8 F3 05 01 07 27  10 C9 F3 05 01 07 00     '......'....... 
```

#### Opcodes

```
  0: 0x01AD [0x27] REQ_SET(priority=0x10, entity_id=Y01 (ID: 17167295/0x0105F3BF), tag_num=0x08)
  1: 0x01B4 [0x27] REQ_SET(priority=0x10, entity_id=Y02 (ID: 17167296/0x0105F3C0), tag_num=0x08)
  2: 0x01BB [0x27] REQ_SET(priority=0x10, entity_id=Y03 (ID: 17167297/0x0105F3C1), tag_num=0x0A)
  3: 0x01C2 [0x27] REQ_SET(priority=0x10, entity_id=Y04 (ID: 17167298/0x0105F3C2), tag_num=0x07)
  4: 0x01C9 [0x27] REQ_SET(priority=0x10, entity_id=Y05 (ID: 17167299/0x0105F3C3), tag_num=0x0A)
  5: 0x01D0 [0x27] REQ_SET(priority=0x10, entity_id=D10 (ID: 17167304/0x0105F3C8), tag_num=0x07)
  6: 0x01D7 [0x27] REQ_SET(priority=0x10, entity_id=D11 (ID: 17167305/0x0105F3C9), tag_num=0x07)
  7: 0x01DE [0x00] END_REQSTACK()
```

### Event 65535.14

#### Metadata

| Field        | Value     |
|--------------|-----------|
| Entrypoint   | 0x01DF    |
| Data Size    | 171 bytes |
| Instructions | 24        |

```
      00 01 02 03 04 05 06 07  08 09 0A 0B 0C 0D 0E 0F
      -- -- -- -- -- -- -- --  -- -- -- -- -- -- -- --
01D0:                                               4E                 N
01E0: 00 BF F3 05 01 4E 00 C0  F3 05 01 4E 00 C1 F3 05  .....N.....N....
01F0: 01 4E 00 C2 F3 05 01 4E  00 C3 F3 05 01 4E 00 C8  .N.....N.....N..
0200: F3 05 01 4E 00 C9 F3 05  01 80 BF F3 05 01 80 C0  ...N............
0210: F3 05 01 80 C1 F3 05 01  80 C2 F3 05 01 80 C3 F3  ................
0220: 05 01 80 C8 F3 05 01 80  C9 F3 05 01 1C 01 80 27  ...............'
0230: 10 C3 F3 05 01 07 80 C3  F3 05 01 BA BF F3 05 01  ................
0240: 13 80 14 80 15 80 16 80  BA C0 F3 05 01 17 80 18  ................
0250: 80 19 80 1A 80 BA C1 F3  05 01 1B 80 1C 80 1D 80  ................
0260: 16 80 BA C2 F3 05 01 1E  80 1F 80 20 80 16 80 BA  ........... ....
0270: C9 F3 05 01 21 80 22 80  23 80 1A 80 BA C3 F3 05  ....!.".#.......
0280: 01 24 80 25 80 26 80 16  80 00                    .$.%.&....      
```

#### Opcodes

```
  0: 0x01DF [0x4E] SET_ENTITY_HIDE_FLAG: Show Y01 (ID: 17167295/0x0105F3BF)
  1: 0x01E5 [0x4E] SET_ENTITY_HIDE_FLAG: Show Y02 (ID: 17167296/0x0105F3C0)
  2: 0x01EB [0x4E] SET_ENTITY_HIDE_FLAG: Show Y03 (ID: 17167297/0x0105F3C1)
  3: 0x01F1 [0x4E] SET_ENTITY_HIDE_FLAG: Show Y04 (ID: 17167298/0x0105F3C2)
  4: 0x01F7 [0x4E] SET_ENTITY_HIDE_FLAG: Show Y05 (ID: 17167299/0x0105F3C3)
  5: 0x01FD [0x4E] SET_ENTITY_HIDE_FLAG: Show D10 (ID: 17167304/0x0105F3C8)
  6: 0x0203 [0x4E] SET_ENTITY_HIDE_FLAG: Show D11 (ID: 17167305/0x0105F3C9)
  7: 0x0209 [0x80] LOAD_WAIT(entity=Y01 (ID: 17167295/0x0105F3BF))
  8: 0x020E [0x80] LOAD_WAIT(entity=Y02 (ID: 17167296/0x0105F3C0))
  9: 0x0213 [0x80] LOAD_WAIT(entity=Y03 (ID: 17167297/0x0105F3C1))
 10: 0x0218 [0x80] LOAD_WAIT(entity=Y04 (ID: 17167298/0x0105F3C2))
 11: 0x021D [0x80] LOAD_WAIT(entity=Y05 (ID: 17167299/0x0105F3C3))
 12: 0x0222 [0x80] LOAD_WAIT(entity=D10 (ID: 17167304/0x0105F3C8))
 13: 0x0227 [0x80] LOAD_WAIT(entity=D11 (ID: 17167305/0x0105F3C9))
 14: 0x022C [0x1C] WAIT(1* ticks)
 15: 0x022F [0x27] REQ_SET(priority=0x10, entity_id=Y05 (ID: 17167299/0x0105F3C3), tag_num=0x07)
 16: 0x0236 [0x80] LOAD_WAIT(entity=Y05 (ID: 17167299/0x0105F3C3))
 17: 0x023B [0xBA] SET_ENTITY_POSITION(entity_id=Y01 (ID: 17167295/0x0105F3BF), pos_x=254.845*, pos_z=162.715*, pos_y=-15.324*, direction=35.2°*)
 18: 0x0248 [0xBA] SET_ENTITY_POSITION(entity_id=Y02 (ID: 17167296/0x0105F3C0), pos_x=256.653*, pos_z=164.863*, pos_y=-15.234*, direction=35.1°*)
 19: 0x0255 [0xBA] SET_ENTITY_POSITION(entity_id=Y03 (ID: 17167297/0x0105F3C1), pos_x=255.196*, pos_z=154.132*, pos_y=-14.796*, direction=35.2°*)
 20: 0x0262 [0xBA] SET_ENTITY_POSITION(entity_id=Y04 (ID: 17167298/0x0105F3C2), pos_x=256.545*, pos_z=156.840*, pos_y=-15.071*, direction=35.2°*)
 21: 0x026F [0xBA] SET_ENTITY_POSITION(entity_id=D11 (ID: 17167305/0x0105F3C9), pos_x=262.620*, pos_z=179.315*, pos_y=-17.069*, direction=35.1°*)
 22: 0x027C [0xBA] SET_ENTITY_POSITION(entity_id=Y05 (ID: 17167299/0x0105F3C3), pos_x=250.349*, pos_z=159.789*, pos_y=-15.712*, direction=35.2°*)
 23: 0x0289 [0x00] END_REQSTACK()
```

### Event 65535.15

#### Metadata

| Field        | Value    |
|--------------|----------|
| Entrypoint   | 0x028A   |
| Data Size    | 11 bytes |
| Instructions | 5        |

```
      00 01 02 03 04 05 06 07  08 09 0A 0B 0C 0D 0E 0F
      -- -- -- -- -- -- -- --  -- -- -- -- -- -- -- --
0280:                                67 27 80 27 80 48            g'.'.H
0290: 28 80 23 23 00                                    (.##.           
```

#### Opcodes

```
  0: 0x028A [0x67] HIDE_HUD_ELEMENTS(param1=0x8027, param2=0x8027)
  1: 0x028F [0x48] [System] [8200*]:
    → "The Federation of Windurst... An ancient capital nurtured by the boughs of a great tree, blessed by magical waters, and protected by the moon and stars..."
  2: 0x0292 [0x23] WAIT_FOR_DIALOG_INTERACTION
  3: 0x0293 [0x23] WAIT_FOR_DIALOG_INTERACTION
  4: 0x0294 [0x00] END_REQSTACK()
```

### Event 65535.16

#### Metadata

| Field        | Value    |
|--------------|----------|
| Entrypoint   | 0x0295   |
| Data Size    | 11 bytes |
| Instructions | 5        |

```
      00 01 02 03 04 05 06 07  08 09 0A 0B 0C 0D 0E 0F
      -- -- -- -- -- -- -- --  -- -- -- -- -- -- -- --
0290:                67 29 80  2A 80 48 2B 80 23 23 00       g).*.H+.##.
```

#### Opcodes

```
  0: 0x0295 [0x67] HIDE_HUD_ELEMENTS(param1=0x8029, param2=0x802A)
  1: 0x029A [0x48] [System] [8201*]:
    → "In a time forgotten, a people forced to wander by starvation and cold were led to this land by a wondrous star..."
  2: 0x029D [0x23] WAIT_FOR_DIALOG_INTERACTION
  3: 0x029E [0x23] WAIT_FOR_DIALOG_INTERACTION
  4: 0x029F [0x00] END_REQSTACK()
```

### Event 65535.17

#### Metadata

| Field        | Value    |
|--------------|----------|
| Entrypoint   | 0x02A0   |
| Data Size    | 11 bytes |
| Instructions | 5        |

```
      00 01 02 03 04 05 06 07  08 09 0A 0B 0C 0D 0E 0F
      -- -- -- -- -- -- -- --  -- -- -- -- -- -- -- --
02A0: 67 29 80 27 80 48 2C 80  23 23 00                 g).'.H,.##.     
```

#### Opcodes

```
  0: 0x02A0 [0x67] HIDE_HUD_ELEMENTS(param1=0x8029, param2=0x8027)
  1: 0x02A5 [0x48] [System] [8202*]:
    → "Lost souls, adrift in time, found themselves within these walls, and many a tear was shed..."
  2: 0x02A8 [0x23] WAIT_FOR_DIALOG_INTERACTION
  3: 0x02A9 [0x23] WAIT_FOR_DIALOG_INTERACTION
  4: 0x02AA [0x00] END_REQSTACK()
```

### Event 65535.18

#### Metadata

| Field        | Value    |
|--------------|----------|
| Entrypoint   | 0x02AB   |
| Data Size    | 11 bytes |
| Instructions | 5        |

```
      00 01 02 03 04 05 06 07  08 09 0A 0B 0C 0D 0E 0F
      -- -- -- -- -- -- -- --  -- -- -- -- -- -- -- --
02A0:                                   67 2D 80 2A 80             g-.*.
02B0: 48 2E 80 23 23 00                                 H..##.          
```

#### Opcodes

```
  0: 0x02AB [0x67] HIDE_HUD_ELEMENTS(param1=0x802D, param2=0x802A)
  1: 0x02B0 [0x48] [System] [8203*]:
    → "Those tears nourished the soil, and today, a sapling of hope peeks through the earth to meet a bright new sun..."
  2: 0x02B3 [0x23] WAIT_FOR_DIALOG_INTERACTION
  3: 0x02B4 [0x23] WAIT_FOR_DIALOG_INTERACTION
  4: 0x02B5 [0x00] END_REQSTACK()
```

### Event 65535.19

#### Metadata

| Field        | Value    |
|--------------|----------|
| Entrypoint   | 0x02B6   |
| Data Size    | 11 bytes |
| Instructions | 5        |

```
      00 01 02 03 04 05 06 07  08 09 0A 0B 0C 0D 0E 0F
      -- -- -- -- -- -- -- --  -- -- -- -- -- -- -- --
02B0:                   67 2F  80 27 80 48 30 80 23 23        g/.'.H0.##
02C0: 00                                                .               
```

#### Opcodes

```
  0: 0x02B6 [0x67] HIDE_HUD_ELEMENTS(param1=0x802F, param2=0x8027)
  1: 0x02BB [0x48] [System] [8204*]:
    → "Shrink not from your future, my friend..."
  2: 0x02BE [0x23] WAIT_FOR_DIALOG_INTERACTION
  3: 0x02BF [0x23] WAIT_FOR_DIALOG_INTERACTION
  4: 0x02C0 [0x00] END_REQSTACK()
```

### Event 65535.20

#### Metadata

| Field        | Value    |
|--------------|----------|
| Entrypoint   | 0x02C1   |
| Data Size    | 11 bytes |
| Instructions | 5        |

```
      00 01 02 03 04 05 06 07  08 09 0A 0B 0C 0D 0E 0F
      -- -- -- -- -- -- -- --  -- -- -- -- -- -- -- --
02C0:    67 31 80 32 80 48 33  80 23 23 00               g1.2.H3.##.    
```

#### Opcodes

```
  0: 0x02C1 [0x67] HIDE_HUD_ELEMENTS(param1=0x8031, param2=0x8032)
  1: 0x02C6 [0x48] [System] [8205*]:
    → "For even the longest, darkest night must eventually give way to the dawn."
  2: 0x02C9 [0x23] WAIT_FOR_DIALOG_INTERACTION
  3: 0x02CA [0x23] WAIT_FOR_DIALOG_INTERACTION
  4: 0x02CB [0x00] END_REQSTACK()
```

### Event 65535.21

#### Metadata

| Field        | Value    |
|--------------|----------|
| Entrypoint   | 0x02CC   |
| Data Size    | 11 bytes |
| Instructions | 5        |

```
      00 01 02 03 04 05 06 07  08 09 0A 0B 0C 0D 0E 0F
      -- -- -- -- -- -- -- --  -- -- -- -- -- -- -- --
02C0:                                      67 27 80 2A              g'.*
02D0: 80 48 34 80 23 23 00                              .H4.##.         
```

#### Opcodes

```
  0: 0x02CC [0x67] HIDE_HUD_ELEMENTS(param1=0x8027, param2=0x802A)
  1: 0x02D1 [0x48] [System] [8206*]:
    → "And though your body may return to the earth, your memory shall live on. In the wind, the trees, and the hearts of those whose lives you shared..."
  2: 0x02D4 [0x23] WAIT_FOR_DIALOG_INTERACTION
  3: 0x02D5 [0x23] WAIT_FOR_DIALOG_INTERACTION
  4: 0x02D6 [0x00] END_REQSTACK()
```

### Event 65535.22

#### Metadata

| Field        | Value    |
|--------------|----------|
| Entrypoint   | 0x02D7   |
| Data Size    | 11 bytes |
| Instructions | 5        |

```
      00 01 02 03 04 05 06 07  08 09 0A 0B 0C 0D 0E 0F
      -- -- -- -- -- -- -- --  -- -- -- -- -- -- -- --
02D0:                      67  27 80 32 80 48 35 80 23         g'.2.H5.#
02E0: 23 00                                             #.              
```

#### Opcodes

```
  0: 0x02D7 [0x67] HIDE_HUD_ELEMENTS(param1=0x8027, param2=0x8032)
  1: 0x02DC [0x48] [System] [8207*]:
    → "Your destiny is yours alone to forge. For this is neither the beginning nor the end, but merely one stop on a journey of limitless possibilities..."
  2: 0x02DF [0x23] WAIT_FOR_DIALOG_INTERACTION
  3: 0x02E0 [0x23] WAIT_FOR_DIALOG_INTERACTION
  4: 0x02E1 [0x00] END_REQSTACK()
```

### Event 65535.23

#### Metadata

| Field        | Value    |
|--------------|----------|
| Entrypoint   | 0x02E2   |
| Data Size    | 11 bytes |
| Instructions | 5        |

```
      00 01 02 03 04 05 06 07  08 09 0A 0B 0C 0D 0E 0F
      -- -- -- -- -- -- -- --  -- -- -- -- -- -- -- --
02E0:       67 27 80 27 80 48  36 80 23 23 00             g'.'.H6.##.   
```

#### Opcodes

```
  0: 0x02E2 [0x67] HIDE_HUD_ELEMENTS(param1=0x8027, param2=0x8027)
  1: 0x02E7 [0x48] [System] [8208*]:
    → "The sapling shall grow into a great tree. Its leaves will take to the wind, carrying hopes and dreams with them, and a new chapter of history will be written."
  2: 0x02EA [0x23] WAIT_FOR_DIALOG_INTERACTION
  3: 0x02EB [0x23] WAIT_FOR_DIALOG_INTERACTION
  4: 0x02EC [0x00] END_REQSTACK()
```

### Event 65535.24

#### Metadata

| Field        | Value    |
|--------------|----------|
| Entrypoint   | 0x02ED   |
| Data Size    | 11 bytes |
| Instructions | 5        |

```
      00 01 02 03 04 05 06 07  08 09 0A 0B 0C 0D 0E 0F
      -- -- -- -- -- -- -- --  -- -- -- -- -- -- -- --
02E0:                                         67 27 80               g'.
02F0: 27 80 48 37 80 23 23 00                           '.H7.##.        
```

#### Opcodes

```
  0: 0x02ED [0x67] HIDE_HUD_ELEMENTS(param1=0x8027, param2=0x8027)
  1: 0x02F2 [0x48] [System] [8209*]:
    → "...But that is a story for another time."
  2: 0x02F5 [0x23] WAIT_FOR_DIALOG_INTERACTION
  3: 0x02F6 [0x23] WAIT_FOR_DIALOG_INTERACTION
  4: 0x02F7 [0x00] END_REQSTACK()
```

### Event 65535.25

#### Metadata

| Field        | Value    |
|--------------|----------|
| Entrypoint   | 0x02F8   |
| Data Size    | 11 bytes |
| Instructions | 5        |

```
      00 01 02 03 04 05 06 07  08 09 0A 0B 0C 0D 0E 0F
      -- -- -- -- -- -- -- --  -- -- -- -- -- -- -- --
02F0:                          67 38 80 38 80 48 39 80          g8.8.H9.
0300: 23 23 00                                          ##.             
```

#### Opcodes

```
  0: 0x02F8 [0x67] HIDE_HUD_ELEMENTS(param1=0x8038, param2=0x8038)
  1: 0x02FD [0x48] [System] [8210*]:
    → "Another day, when the stars in the heavens align to bring our paths together once more..."
  2: 0x0300 [0x23] WAIT_FOR_DIALOG_INTERACTION
  3: 0x0301 [0x23] WAIT_FOR_DIALOG_INTERACTION
  4: 0x0302 [0x00] END_REQSTACK()
```

### Event 110

#### Metadata

| Field        | Value   |
|--------------|---------|
| Entrypoint   | 0x0303  |
| Data Size    | 1 bytes |
| Instructions | 1       |

```
      00 01 02 03 04 05 06 07  08 09 0A 0B 0C 0D 0E 0F
      -- -- -- -- -- -- -- --  -- -- -- -- -- -- -- --
0300:          00                                          .            
```

#### Opcodes

```
  0: 0x0303 [0x00] END_REQSTACK()
```
