# 17167260 - Robel-Akbel

## Common Data

| Field            | Value                          |
|------------------|--------------------------------|
| Zone             | West Sarutabaruta [S] (ID: 95) |
| Block Size       | 960 bytes                      |
| Total Events     | 24                             |
| References Count | 63                             |

## List of Events

| Event ID                   | Entrypoint   |   Size |   Instructions |
|----------------------------|--------------|--------|----------------|
| [65535](#event-65535)      | 0x0000       |      1 |              1 |
| [105](#event-105)          | 0x0001       |      1 |              1 |
| [106](#event-106)          | 0x0002       |      1 |              1 |
| [65535.1](#event-655351)   | 0x0003       |     15 |              5 |
| [65535.2](#event-655352)   | 0x0012       |     11 |              3 |
| [65535.3](#event-655353)   | 0x001D       |     11 |              3 |
| [65535.4](#event-655354)   | 0x0028       |     31 |              7 |
| [65535.5](#event-655355)   | 0x0047       |     14 |              4 |
| [65535.6](#event-655356)   | 0x0055       |     21 |              2 |
| [65535.7](#event-655357)   | 0x006A       |     21 |              2 |
| [65535.8](#event-655358)   | 0x007F       |     21 |              2 |
| [65535.9](#event-655359)   | 0x0094       |    293 |             40 |
| [65535.10](#event-6553510) | 0x01B9       |     31 |              6 |
| [65535.11](#event-6553511) | 0x01D8       |      4 |              2 |
| [107](#event-107)          | 0x01DC       |      1 |              1 |
| [112](#event-112)          | 0x01DD       |      1 |              1 |
| [65535.12](#event-6553512) | 0x01DE       |     51 |             13 |
| [65535.13](#event-6553513) | 0x0211       |      1 |              1 |
| [65535.14](#event-6553514) | 0x0212       |     18 |              4 |
| [65535.15](#event-6553515) | 0x0224       |     10 |              2 |
| [65535.16](#event-6553516) | 0x022E       |      9 |              3 |
| [65535.17](#event-6553517) | 0x0237       |      9 |              3 |
| [65535.18](#event-6553518) | 0x0240       |     10 |              2 |
| [65535.19](#event-6553519) | 0x024A       |     10 |              2 |

## DAT References (imed_data)

|   Index | Hex Value   |   Dec Value |
|---------|-------------|-------------|
|       0 | 0x000C      |          12 |
|       1 | 0x2CA5      |       11429 |
|       2 | 0x0BC0      |        3008 |
|       3 | 0xFFFF9C64  |  4294941796 |
|       4 | 0x49A5      |       18853 |
|       5 | 0x0A1E      |        2590 |
|       6 | 0xFFFF9A70  |  4294941296 |
|       7 | 0xFFFFFF6E  |  4294967150 |
|       8 | 0x4326      |       17190 |
|       9 | 0x0251      |         593 |
|      10 | 0xFFFFFF9E  |  4294967198 |
|      11 | 0x3A27      |       14887 |
|      12 | 0x02ED      |         749 |
|      13 | 0x181D      |        6173 |
|      14 | 0x3059      |       12377 |
|      15 | 0x277E      |       10110 |
|      16 | 0x2278      |        8824 |
|      17 | 0x027C      |         636 |
|      18 | 0x0027      |          39 |
|      19 | 0xFFFF291A  |  4294912282 |
|      20 | 0x1BCCA     |      113866 |
|      21 | 0xFFFFD602  |  4294956546 |
|      22 | 0x0007      |           7 |
|      23 | 0x0009      |           9 |
|      24 | 0x0089      |         137 |
|      25 | 0x006E      |         110 |
|      26 | 0x0010      |          16 |
|      27 | 0x000D      |          13 |
|      28 | 0x017D      |         381 |
|      29 | 0x0000      |           0 |
|      30 | 0x0005      |           5 |
|      31 | 0x00DC      |         220 |
|      32 | 0x0156      |         342 |
|      33 | 0x001A      |          26 |
|      34 | 0x0131      |         305 |
|      35 | 0x4C88C     |      313484 |
|      36 | 0xFFFF884B  |  4294936651 |
|      37 | 0xFFFFBBA4  |  4294949796 |
|      38 | 0x0BB9      |        3001 |
|      39 | 0x4C71D     |      313117 |
|      40 | 0xFFFF7917  |  4294932759 |
|      41 | 0x0BB8      |        3000 |
|      42 | 0x4B8E3     |      309475 |
|      43 | 0xFFFF7FA6  |  4294934438 |
|      44 | 0x4BFF0     |      311280 |
|      45 | 0xFFFF78C3  |  4294932675 |
|      46 | 0x4C416     |      312342 |
|      47 | 0xFFFF7FB1  |  4294934449 |
|      48 | 0xFFFFBBA5  |  4294949797 |
|      49 | 0x4C944     |      313668 |
|      50 | 0xFFFF8118  |  4294934808 |
|      51 | 0x056F      |        1391 |
|      52 | 0x000B      |          11 |
|      53 | 0x4C5FB     |      312827 |
|      54 | 0xFFFF869F  |  4294936223 |
|      55 | 0x4C460     |      312416 |
|      56 | 0xFFFF8B53  |  4294937427 |
|      57 | 0x4BED6     |      310998 |
|      58 | 0xFFFF8F6D  |  4294938477 |
|      59 | 0x0C00      |        3072 |
|      60 | 0x003C      |          60 |
|      61 | 0x0001      |           1 |
|      62 | 0x0080      |         128 |

## Events

### Event 65535

#### Metadata

| Field        | Value   |
|--------------|---------|
| Entrypoint   | 0x0000  |
| Data Size    | 1 bytes |
| Instructions | 1       |

```
      00 01 02 03 04 05 06 07  08 09 0A 0B 0C 0D 0E 0F
      -- -- -- -- -- -- -- --  -- -- -- -- -- -- -- --
0000: 00                                                .               
```

#### Opcodes

```
  0: 0x0000 [0x00] END_REQSTACK()
```

### Event 105

#### Metadata

| Field        | Value   |
|--------------|---------|
| Entrypoint   | 0x0001  |
| Data Size    | 1 bytes |
| Instructions | 1       |

```
      00 01 02 03 04 05 06 07  08 09 0A 0B 0C 0D 0E 0F
      -- -- -- -- -- -- -- --  -- -- -- -- -- -- -- --
0000:    00                                              .              
```

#### Opcodes

```
  0: 0x0001 [0x00] END_REQSTACK()
```

### Event 106

#### Metadata

| Field        | Value   |
|--------------|---------|
| Entrypoint   | 0x0002  |
| Data Size    | 1 bytes |
| Instructions | 1       |

```
      00 01 02 03 04 05 06 07  08 09 0A 0B 0C 0D 0E 0F
      -- -- -- -- -- -- -- --  -- -- -- -- -- -- -- --
0000:       00                                            .             
```

#### Opcodes

```
  0: 0x0002 [0x00] END_REQSTACK()
```

### Event 65535.1

#### Metadata

| Field        | Value    |
|--------------|----------|
| Entrypoint   | 0x0003   |
| Data Size    | 15 bytes |
| Instructions | 5        |

```
      00 01 02 03 04 05 06 07  08 09 0A 0B 0C 0D 0E 0F
      -- -- -- -- -- -- -- --  -- -- -- -- -- -- -- --
0000:          32 00 80 1F 00  01 80 02 80 03 80 1F 01     2............
0010: 6F 00                                             o.              
```

#### Opcodes

```
  0: 0x0003 [0x32] ExtData[1]->MainSpeed = 12* * 0.1
  1: 0x0006 [0x1F] MOVE_ENTITY: EventEntity moves to X=11.429*, Z=3.008*, Y=-25.500*
  2: 0x000E [0x1F] MOVE_ENTITY: Update entity position (mode=1)
  3: 0x0010 [0x6F] WAIT_FRAME_DELAY: Yield until WaitTime reaches zero
  4: 0x0011 [0x00] END_REQSTACK()
```

### Event 65535.2

#### Metadata

| Field        | Value    |
|--------------|----------|
| Entrypoint   | 0x0012   |
| Data Size    | 11 bytes |
| Instructions | 3        |

```
      00 01 02 03 04 05 06 07  08 09 0A 0B 0C 0D 0E 0F
      -- -- -- -- -- -- -- --  -- -- -- -- -- -- -- --
0010:       1F 00 04 80 05 80  06 80 1F 01 00             ...........   
```

#### Opcodes

```
  0: 0x0012 [0x1F] MOVE_ENTITY: EventEntity moves to X=18.853*, Z=2.590*, Y=-26.000*
  1: 0x001A [0x1F] MOVE_ENTITY: Update entity position (mode=1)
  2: 0x001C [0x00] END_REQSTACK()
```

### Event 65535.3

#### Metadata

| Field        | Value    |
|--------------|----------|
| Entrypoint   | 0x001D   |
| Data Size    | 11 bytes |
| Instructions | 3        |

```
      00 01 02 03 04 05 06 07  08 09 0A 0B 0C 0D 0E 0F
      -- -- -- -- -- -- -- --  -- -- -- -- -- -- -- --
0010:                                         1F 00 07               ...
0020: 80 08 80 09 80 1F 01 00                           ........        
```

#### Opcodes

```
  0: 0x001D [0x1F] MOVE_ENTITY: EventEntity moves to X=-0.146*, Z=17.190*, Y=0.593*
  1: 0x0025 [0x1F] MOVE_ENTITY: Update entity position (mode=1)
  2: 0x0027 [0x00] END_REQSTACK()
```

### Event 65535.4

#### Metadata

| Field        | Value    |
|--------------|----------|
| Entrypoint   | 0x0028   |
| Data Size    | 31 bytes |
| Instructions | 7        |

```
      00 01 02 03 04 05 06 07  08 09 0A 0B 0C 0D 0E 0F
      -- -- -- -- -- -- -- --  -- -- -- -- -- -- -- --
0020:                          1F 00 0A 80 0B 80 0C 80          ........
0030: 1F 01 1F 00 0D 80 0E 80  0C 80 1F 01 1F 00 0F 80  ................
0040: 10 80 11 80 1F 01 00                              .......         
```

#### Opcodes

```
  0: 0x0028 [0x1F] MOVE_ENTITY: EventEntity moves to X=-0.098*, Z=14.887*, Y=0.749*
  1: 0x0030 [0x1F] MOVE_ENTITY: Update entity position (mode=1)
  2: 0x0032 [0x1F] MOVE_ENTITY: EventEntity moves to X=6.173*, Z=12.377*, Y=0.749*
  3: 0x003A [0x1F] MOVE_ENTITY: Update entity position (mode=1)
  4: 0x003C [0x1F] MOVE_ENTITY: EventEntity moves to X=10.110*, Z=8.824*, Y=0.636*
  5: 0x0044 [0x1F] MOVE_ENTITY: Update entity position (mode=1)
  6: 0x0046 [0x00] END_REQSTACK()
```

### Event 65535.5

#### Metadata

| Field        | Value    |
|--------------|----------|
| Entrypoint   | 0x0047   |
| Data Size    | 14 bytes |
| Instructions | 4        |

```
      00 01 02 03 04 05 06 07  08 09 0A 0B 0C 0D 0E 0F
      -- -- -- -- -- -- -- --  -- -- -- -- -- -- -- --
0040:                      32  12 80 1F 00 13 80 14 80         2........
0050: 15 80 1F 01 00                                    .....           
```

#### Opcodes

```
  0: 0x0047 [0x32] ExtData[1]->MainSpeed = 39* * 0.1
  1: 0x004A [0x1F] MOVE_ENTITY: EventEntity moves to X=-55.014*, Z=113.866*, Y=-10.750*
  2: 0x0052 [0x1F] MOVE_ENTITY: Update entity position (mode=1)
  3: 0x0054 [0x00] END_REQSTACK()
```

### Event 65535.6

#### Metadata

| Field        | Value    |
|--------------|----------|
| Entrypoint   | 0x0055   |
| Data Size    | 21 bytes |
| Instructions | 2        |

```
      00 01 02 03 04 05 06 07  08 09 0A 0B 0C 0D 0E 0F
      -- -- -- -- -- -- -- --  -- -- -- -- -- -- -- --
0050:                B6 0B 16  80 17 80 18 80 19 80 1A       ...........
0060: 80 19 80 1B 80 1C 80 1D  80 00                    ..........      
```

#### Opcodes

```
  0: 0x0055 [0xB6] ENTITY_APPEARANCE_HANDLER(case=Full entity look, race=7*, hair=9*, head=137*, body=110*, hands=16*, legs=110*, feet=13*, main=381*, sub=0*)
  1: 0x0069 [0x00] END_REQSTACK()
```

### Event 65535.7

#### Metadata

| Field        | Value    |
|--------------|----------|
| Entrypoint   | 0x006A   |
| Data Size    | 21 bytes |
| Instructions | 2        |

```
      00 01 02 03 04 05 06 07  08 09 0A 0B 0C 0D 0E 0F
      -- -- -- -- -- -- -- --  -- -- -- -- -- -- -- --
0060:                                B6 0B 1E 80 17 80            ......
0070: 1F 80 1F 80 1F 80 1F 80  1F 80 20 80 1D 80 00     .......... .... 
```

#### Opcodes

```
  0: 0x006A [0xB6] ENTITY_APPEARANCE_HANDLER(case=Full entity look, race=5*, hair=9*, head=220*, body=220*, hands=220*, legs=220*, feet=220*, main=342*, sub=0*)
  1: 0x007E [0x00] END_REQSTACK()
```

### Event 65535.8

#### Metadata

| Field        | Value    |
|--------------|----------|
| Entrypoint   | 0x007F   |
| Data Size    | 21 bytes |
| Instructions | 2        |

```
      00 01 02 03 04 05 06 07  08 09 0A 0B 0C 0D 0E 0F
      -- -- -- -- -- -- -- --  -- -- -- -- -- -- -- --
0070:                                               B6                 .
0080: 0B 1E 80 21 80 1F 80 1F  80 1F 80 1F 80 1F 80 22  ...!..........."
0090: 80 1D 80 00                                       ....            
```

#### Opcodes

```
  0: 0x007F [0xB6] ENTITY_APPEARANCE_HANDLER(case=Full entity look, race=5*, hair=26*, head=220*, body=220*, hands=220*, legs=220*, feet=220*, main=305*, sub=0*)
  1: 0x0093 [0x00] END_REQSTACK()
```

### Event 65535.9

#### Metadata

| Field        | Value     |
|--------------|-----------|
| Entrypoint   | 0x0094    |
| Data Size    | 293 bytes |
| Instructions | 40        |

```
      00 01 02 03 04 05 06 07  08 09 0A 0B 0C 0D 0E 0F
      -- -- -- -- -- -- -- --  -- -- -- -- -- -- -- --
0090:             27 10 98 F3  05 01 0F 27 10 AB F3 05      '......'....
00A0: 01 20 27 10 AC F3 05 01  20 27 10 AD F3 05 01 1F  . '..... '......
00B0: 27 10 A9 F3 05 01 06 27  10 AA F3 05 01 06 92 01  '......'........
00C0: 98 F3 05 01 92 01 AB F3  05 01 92 01 AC F3 05 01  ................
00D0: 92 01 AD F3 05 01 92 01  A9 F3 05 01 92 01 AA F3  ................
00E0: 05 01 94 01 98 F3 05 01  94 01 AB F3 05 01 94 01  ................
00F0: AC F3 05 01 94 01 AD F3  05 01 94 01 A9 F3 05 01  ................
0100: 94 01 AA F3 05 01 59 05  98 F3 05 01 01 59 05 AB  ......Y......Y..
0110: F3 05 01 01 59 05 AC F3  05 01 01 59 05 AD F3 05  ....Y......Y....
0120: 01 01 59 05 A9 F3 05 01  01 59 05 AA F3 05 01 01  ..Y......Y......
0130: BA 98 F3 05 01 23 80 24  80 25 80 26 80 BA AB F3  .....#.$.%.&....
0140: 05 01 27 80 28 80 25 80  29 80 BA AC F3 05 01 2A  ..'.(.%.)......*
0150: 80 2B 80 25 80 26 80 BA  AD F3 05 01 2C 80 2D 80  .+.%.&......,.-.
0160: 25 80 26 80 BA A9 F3 05  01 2E 80 2F 80 30 80 29  %.&......../.0.)
0170: 80 BA AA F3 05 01 31 80  32 80 30 80 29 80 80 98  ......1.2.0.)...
0180: F3 05 01 80 AB F3 05 01  80 AC F3 05 01 80 AD F3  ................
0190: 05 01 80 A9 F3 05 01 80  AA F3 05 01 1C 1E 80 79  ...............y
01A0: 00 98 F3 05 01 96 F3 05  01 5B 33 80 98 F3 05 01  .........[3.....
01B0: 98 F3 05 01 74 65 65 30  00                       ....tee0.       
```

#### Opcodes

```
  0: 0x0094 [0x27] REQ_SET(priority=0x10, entity_id=Perih Vashai (ID: 17167256/0x0105F398), tag_num=0x0F)
  1: 0x009B [0x27] REQ_SET(priority=0x10, entity_id=01 (ID: 17167275/0x0105F3AB), tag_num=0x20)
  2: 0x00A2 [0x27] REQ_SET(priority=0x10, entity_id=02 (ID: 17167276/0x0105F3AC), tag_num=0x20)
  3: 0x00A9 [0x27] REQ_SET(priority=0x10, entity_id=03 (ID: 17167277/0x0105F3AD), tag_num=0x1F)
  4: 0x00B0 [0x27] REQ_SET(priority=0x10, entity_id=Livura-Novora (ID: 17167273/0x0105F3A9), tag_num=0x06)
  5: 0x00B7 [0x27] REQ_SET(priority=0x10, entity_id=Kindel-Bandel (ID: 17167274/0x0105F3AA), tag_num=0x06)
  6: 0x00BE [0x92] Perih Vashai (ID: 17167256/0x0105F398)->Render.Flags3 ^= 0x01
  7: 0x00C4 [0x92] 01 (ID: 17167275/0x0105F3AB)->Render.Flags3 ^= 0x01
  8: 0x00CA [0x92] 02 (ID: 17167276/0x0105F3AC)->Render.Flags3 ^= 0x01
  9: 0x00D0 [0x92] 03 (ID: 17167277/0x0105F3AD)->Render.Flags3 ^= 0x01
 10: 0x00D6 [0x92] Livura-Novora (ID: 17167273/0x0105F3A9)->Render.Flags3 ^= 0x01
 11: 0x00DC [0x92] Kindel-Bandel (ID: 17167274/0x0105F3AA)->Render.Flags3 ^= 0x01
 12: 0x00E2 [0x94] Perih Vashai (ID: 17167256/0x0105F398)->Render.Flags3 ^= 0x01
 13: 0x00E8 [0x94] 01 (ID: 17167275/0x0105F3AB)->Render.Flags3 ^= 0x01
 14: 0x00EE [0x94] 02 (ID: 17167276/0x0105F3AC)->Render.Flags3 ^= 0x01
 15: 0x00F4 [0x94] 03 (ID: 17167277/0x0105F3AD)->Render.Flags3 ^= 0x01
 16: 0x00FA [0x94] Livura-Novora (ID: 17167273/0x0105F3A9)->Render.Flags3 ^= 0x01
 17: 0x0100 [0x94] Kindel-Bandel (ID: 17167274/0x0105F3AA)->Render.Flags3 ^= 0x01
 18: 0x0106 [0x59] UPDATE_ENTITY_DATA: Perih Vashai (ID: 17167256/0x0105F398)->Render.Flags0 |= 0x200000
 19: 0x010D [0x59] UPDATE_ENTITY_DATA: 01 (ID: 17167275/0x0105F3AB)->Render.Flags0 |= 0x200000
 20: 0x0114 [0x59] UPDATE_ENTITY_DATA: 02 (ID: 17167276/0x0105F3AC)->Render.Flags0 |= 0x200000
 21: 0x011B [0x59] UPDATE_ENTITY_DATA: 03 (ID: 17167277/0x0105F3AD)->Render.Flags0 |= 0x200000
 22: 0x0122 [0x59] UPDATE_ENTITY_DATA: Livura-Novora (ID: 17167273/0x0105F3A9)->Render.Flags0 |= 0x200000
 23: 0x0129 [0x59] UPDATE_ENTITY_DATA: Kindel-Bandel (ID: 17167274/0x0105F3AA)->Render.Flags0 |= 0x200000
 24: 0x0130 [0xBA] SET_ENTITY_POSITION(entity_id=Perih Vashai (ID: 17167256/0x0105F398), pos_x=313.484*, pos_z=-30.645*, pos_y=-17.500*, direction=263.8°*)
 25: 0x013D [0xBA] SET_ENTITY_POSITION(entity_id=01 (ID: 17167275/0x0105F3AB), pos_x=313.117*, pos_z=-34.537*, pos_y=-17.500*, direction=263.7°*)
 26: 0x014A [0xBA] SET_ENTITY_POSITION(entity_id=02 (ID: 17167276/0x0105F3AC), pos_x=309.475*, pos_z=-32.858*, pos_y=-17.500*, direction=263.8°*)
 27: 0x0157 [0xBA] SET_ENTITY_POSITION(entity_id=03 (ID: 17167277/0x0105F3AD), pos_x=311.280*, pos_z=-34.621*, pos_y=-17.500*, direction=263.8°*)
 28: 0x0164 [0xBA] SET_ENTITY_POSITION(entity_id=Livura-Novora (ID: 17167273/0x0105F3A9), pos_x=312.342*, pos_z=-32.847*, pos_y=-17.499*, direction=263.7°*)
 29: 0x0171 [0xBA] SET_ENTITY_POSITION(entity_id=Kindel-Bandel (ID: 17167274/0x0105F3AA), pos_x=313.668*, pos_z=-32.488*, pos_y=-17.499*, direction=263.7°*)
 30: 0x017E [0x80] LOAD_WAIT(entity=Perih Vashai (ID: 17167256/0x0105F398))
 31: 0x0183 [0x80] LOAD_WAIT(entity=01 (ID: 17167275/0x0105F3AB))
 32: 0x0188 [0x80] LOAD_WAIT(entity=02 (ID: 17167276/0x0105F3AC))
 33: 0x018D [0x80] LOAD_WAIT(entity=03 (ID: 17167277/0x0105F3AD))
 34: 0x0192 [0x80] LOAD_WAIT(entity=Livura-Novora (ID: 17167273/0x0105F3A9))
 35: 0x0197 [0x80] LOAD_WAIT(entity=Kindel-Bandel (ID: 17167274/0x0105F3AA))
 36: 0x019C [0x1C] WAIT(5* ticks)
 37: 0x019F [0x79] Perih Vashai (ID: 17167256/0x0105F398) looks at Romaa Mihgo (ID: 17167254/0x0105F396) (Basic look)
 38: 0x01A9 [0x5B] LOAD_EXT_SCHEDULER: Load scheduler "tee0" with entities [Perih Vashai (ID: 17167256/0x0105F398), Perih Vashai (ID: 17167256/0x0105F398)], work=1391*
 39: 0x01B8 [0x00] END_REQSTACK()
```

### Event 65535.10

#### Metadata

| Field        | Value    |
|--------------|----------|
| Entrypoint   | 0x01B9   |
| Data Size    | 31 bytes |
| Instructions | 6        |

```
      00 01 02 03 04 05 06 07  08 09 0A 0B 0C 0D 0E 0F
      -- -- -- -- -- -- -- --  -- -- -- -- -- -- -- --
01B0:                             4E 01 AB F3 05 01 4E           N.....N
01C0: 01 AC F3 05 01 4E 01 AD  F3 05 01 4E 01 A9 F3 05  .....N.....N....
01D0: 01 4E 01 AA F3 05 01 00                           .N......        
```

#### Opcodes

```
  0: 0x01B9 [0x4E] SET_ENTITY_HIDE_FLAG: Hide 01 (ID: 17167275/0x0105F3AB)
  1: 0x01BF [0x4E] SET_ENTITY_HIDE_FLAG: Hide 02 (ID: 17167276/0x0105F3AC)
  2: 0x01C5 [0x4E] SET_ENTITY_HIDE_FLAG: Hide 03 (ID: 17167277/0x0105F3AD)
  3: 0x01CB [0x4E] SET_ENTITY_HIDE_FLAG: Hide Livura-Novora (ID: 17167273/0x0105F3A9)
  4: 0x01D1 [0x4E] SET_ENTITY_HIDE_FLAG: Hide Kindel-Bandel (ID: 17167274/0x0105F3AA)
  5: 0x01D7 [0x00] END_REQSTACK()
```

### Event 65535.11

#### Metadata

| Field        | Value   |
|--------------|---------|
| Entrypoint   | 0x01D8  |
| Data Size    | 4 bytes |
| Instructions | 2       |

```
      00 01 02 03 04 05 06 07  08 09 0A 0B 0C 0D 0E 0F
      -- -- -- -- -- -- -- --  -- -- -- -- -- -- -- --
01D0:                          39 03 10 00                      9...    
```

#### Opcodes

```
  0: 0x01D8 [0x39] SET_ENTITY_DIRECTION(direction=Work_Zone[3])
  1: 0x01DB [0x00] END_REQSTACK()
```

### Event 107

#### Metadata

| Field        | Value   |
|--------------|---------|
| Entrypoint   | 0x01DC  |
| Data Size    | 1 bytes |
| Instructions | 1       |

```
      00 01 02 03 04 05 06 07  08 09 0A 0B 0C 0D 0E 0F
      -- -- -- -- -- -- -- --  -- -- -- -- -- -- -- --
01D0:                                      00                       .   
```

#### Opcodes

```
  0: 0x01DC [0x00] END_REQSTACK()
```

### Event 112

#### Metadata

| Field        | Value   |
|--------------|---------|
| Entrypoint   | 0x01DD  |
| Data Size    | 1 bytes |
| Instructions | 1       |

```
      00 01 02 03 04 05 06 07  08 09 0A 0B 0C 0D 0E 0F
      -- -- -- -- -- -- -- --  -- -- -- -- -- -- -- --
01D0:                                         00                     .  
```

#### Opcodes

```
  0: 0x01DD [0x00] END_REQSTACK()
```

### Event 65535.12

#### Metadata

| Field        | Value    |
|--------------|----------|
| Entrypoint   | 0x01DE   |
| Data Size    | 51 bytes |
| Instructions | 13       |

```
      00 01 02 03 04 05 06 07  08 09 0A 0B 0C 0D 0E 0F
      -- -- -- -- -- -- -- --  -- -- -- -- -- -- -- --
01D0:                                            32 34                24
01E0: 80 1F 00 35 80 36 80 25  80 1F 01 1F 00 37 80 38  ...5.6.%.....7.8
01F0: 80 25 80 1F 01 1F 00 39  80 3A 80 25 80 1F 01 6F  .%.....9.:.%...o
0200: 4B F8 FF FF 7F 3B 80 6F  76 F8 FF FF 7F 1C 3C 80  K....;.ov.....<.
0210: 00                                                .               
```

#### Opcodes

```
  0: 0x01DE [0x32] ExtData[1]->MainSpeed = 11* * 0.1
  1: 0x01E1 [0x1F] MOVE_ENTITY: EventEntity moves to X=312.827*, Z=-31.073*, Y=-17.500*
  2: 0x01E9 [0x1F] MOVE_ENTITY: Update entity position (mode=1)
  3: 0x01EB [0x1F] MOVE_ENTITY: EventEntity moves to X=312.416*, Z=-29.869*, Y=-17.500*
  4: 0x01F3 [0x1F] MOVE_ENTITY: Update entity position (mode=1)
  5: 0x01F5 [0x1F] MOVE_ENTITY: EventEntity moves to X=310.998*, Z=-28.819*, Y=-17.500*
  6: 0x01FD [0x1F] MOVE_ENTITY: Update entity position (mode=1)
  7: 0x01FF [0x6F] WAIT_FRAME_DELAY: Yield until WaitTime reaches zero
  8: 0x0200 [0x4B] UPDATE_ENTITY_YAW(entity=EventEntity, yaw=16.9°*)
  9: 0x0207 [0x6F] WAIT_FRAME_DELAY: Yield until WaitTime reaches zero
 10: 0x0208 [0x76] CHECK_ENTITY_RENDER_FLAGS: Wait until EventEntity Render.Flags0 and Render.Flags3 conditions are met
 11: 0x020D [0x1C] WAIT(60* ticks)
 12: 0x0210 [0x00] END_REQSTACK()
```

### Event 65535.13

#### Metadata

| Field        | Value   |
|--------------|---------|
| Entrypoint   | 0x0211  |
| Data Size    | 1 bytes |
| Instructions | 1       |

```
      00 01 02 03 04 05 06 07  08 09 0A 0B 0C 0D 0E 0F
      -- -- -- -- -- -- -- --  -- -- -- -- -- -- -- --
0210:    00                                              .              
```

#### Opcodes

```
  0: 0x0211 [0x00] END_REQSTACK()
```

### Event 65535.14

#### Metadata

| Field        | Value    |
|--------------|----------|
| Entrypoint   | 0x0212   |
| Data Size    | 18 bytes |
| Instructions | 4        |

```
      00 01 02 03 04 05 06 07  08 09 0A 0B 0C 0D 0E 0F
      -- -- -- -- -- -- -- --  -- -- -- -- -- -- -- --
0210:       22 00 2F 00 F8 FF  FF 7F 6C F8 FF FF 7F 1D    "./.....l.....
0220: 80 3D 80 00                                       .=..            
```

#### Opcodes

```
  0: 0x0212 [0x22] ENTITY_HIDE_FLAG(enabled=0x00)
  1: 0x0214 [0x2F] EventEntity->Render.Flags0 &= ~0x80000 // Bit 19
  2: 0x021A [0x6C] FADE_ENTITY_COLOR(entity_id=EventEntity, end_alpha=0*, fade_time=1*)
  3: 0x0223 [0x00] END_REQSTACK()
```

### Event 65535.15

#### Metadata

| Field        | Value    |
|--------------|----------|
| Entrypoint   | 0x0224   |
| Data Size    | 10 bytes |
| Instructions | 2        |

```
      00 01 02 03 04 05 06 07  08 09 0A 0B 0C 0D 0E 0F
      -- -- -- -- -- -- -- --  -- -- -- -- -- -- -- --
0220:             6C F8 FF FF  7F 3E 80 3D 80 00            l....>.=..  
```

#### Opcodes

```
  0: 0x0224 [0x6C] FADE_ENTITY_COLOR(entity_id=EventEntity, end_alpha=128*, fade_time=1*)
  1: 0x022D [0x00] END_REQSTACK()
```

### Event 65535.16

#### Metadata

| Field        | Value   |
|--------------|---------|
| Entrypoint   | 0x022E  |
| Data Size    | 9 bytes |
| Instructions | 3       |

```
      00 01 02 03 04 05 06 07  08 09 0A 0B 0C 0D 0E 0F
      -- -- -- -- -- -- -- --  -- -- -- -- -- -- -- --
0220:                                            22 00                ".
0230: 2F 00 F8 FF FF 7F 00                              /......         
```

#### Opcodes

```
  0: 0x022E [0x22] ENTITY_HIDE_FLAG(enabled=0x00)
  1: 0x0230 [0x2F] EventEntity->Render.Flags0 &= ~0x80000 // Bit 19
  2: 0x0236 [0x00] END_REQSTACK()
```

### Event 65535.17

#### Metadata

| Field        | Value   |
|--------------|---------|
| Entrypoint   | 0x0237  |
| Data Size    | 9 bytes |
| Instructions | 3       |

```
      00 01 02 03 04 05 06 07  08 09 0A 0B 0C 0D 0E 0F
      -- -- -- -- -- -- -- --  -- -- -- -- -- -- -- --
0230:                      22  01 2F 01 F8 FF FF 7F 00         "./......
```

#### Opcodes

```
  0: 0x0237 [0x22] ENTITY_HIDE_FLAG(enabled=0x01)
  1: 0x0239 [0x2F] EventEntity->Render.Flags0 |= 0x80000 // Bit 19
  2: 0x023F [0x00] END_REQSTACK()
```

### Event 65535.18

#### Metadata

| Field        | Value    |
|--------------|----------|
| Entrypoint   | 0x0240   |
| Data Size    | 10 bytes |
| Instructions | 2        |

```
      00 01 02 03 04 05 06 07  08 09 0A 0B 0C 0D 0E 0F
      -- -- -- -- -- -- -- --  -- -- -- -- -- -- -- --
0240: 6C F8 FF FF 7F 1D 80 3D  80 00                    l......=..      
```

#### Opcodes

```
  0: 0x0240 [0x6C] FADE_ENTITY_COLOR(entity_id=EventEntity, end_alpha=0*, fade_time=1*)
  1: 0x0249 [0x00] END_REQSTACK()
```

### Event 65535.19

#### Metadata

| Field        | Value    |
|--------------|----------|
| Entrypoint   | 0x024A   |
| Data Size    | 10 bytes |
| Instructions | 2        |

```
      00 01 02 03 04 05 06 07  08 09 0A 0B 0C 0D 0E 0F
      -- -- -- -- -- -- -- --  -- -- -- -- -- -- -- --
0240:                                6C F8 FF FF 7F 3E            l....>
0250: 80 3D 80 00                                       .=..            
```

#### Opcodes

```
  0: 0x024A [0x6C] FADE_ENTITY_COLOR(entity_id=EventEntity, end_alpha=128*, fade_time=1*)
  1: 0x0253 [0x00] END_REQSTACK()
```
