# 17167232

## Common Data

| Field            | Value                          |
|------------------|--------------------------------|
| Zone             | West Sarutabaruta [S] (ID: 95) |
| Block Size       | 34988 bytes                    |
| Total Events     | 6                              |
| References Count | 949                            |

## List of Events

| Event ID              | Entrypoint   |   Size |   Instructions |
|-----------------------|--------------|--------|----------------|
| [65535](#event-65535) | 0x0000       |      1 |              1 |
| [105](#event-105)     | 0x0001       |   7792 |            935 |
| [106](#event-106)     | 0x1E71       |   6357 |            735 |
| [108](#event-108)     | 0x3746       |   6284 |            666 |
| [110](#event-110)     | 0x4FD2       |   5440 |            706 |
| [111](#event-111)     | 0x6512       |   5275 |            633 |

## DAT References (imed_data)

|   Index | Hex Value   |   Dec Value |
|---------|-------------|-------------|
|       0 | 0x0013      |          19 |
|       1 | 0x0000      |           0 |
|       2 | 0x00C8      |         200 |
|       3 | 0x4E082     |      319618 |
|       4 | 0xFFFFCD14  |  4294954260 |
|       5 | 0xFFFFEDE5  |  4294962661 |
|       6 | 0x0C54      |        3156 |
|       7 | 0x4DEFE     |      319230 |
|       8 | 0xFFFFC430  |  4294951984 |
|       9 | 0xFFFFECC9  |  4294962377 |
|      10 | 0x4E86E     |      321646 |
|      11 | 0xFFFFD632  |  4294956594 |
|      12 | 0xFFFFEEBC  |  4294962876 |
|      13 | 0x0C53      |        3155 |
|      14 | 0x4EB5F     |      322399 |
|      15 | 0xFFFFD236  |  4294955574 |
|      16 | 0xFFFFEE7C  |  4294962812 |
|      17 | 0x0BB8      |        3000 |
|      18 | 0x4E321     |      320289 |
|      19 | 0xFFFFD1A8  |  4294955432 |
|      20 | 0xFFFFEE73  |  4294962803 |
|      21 | 0x4F346     |      324422 |
|      22 | 0xFFFFD870  |  4294957168 |
|      23 | 0xFFFFEEE0  |  4294962912 |
|      24 | 0x0BB9      |        3001 |
|      25 | 0x4E318     |      320280 |
|      26 | 0xFFFFC928  |  4294953256 |
|      27 | 0xFFFFED67  |  4294962535 |
|      28 | 0x4DA51     |      318033 |
|      29 | 0xFFFFC359  |  4294951769 |
|      30 | 0xFFFFECAD  |  4294962349 |
|      31 | 0x4D2E6     |      316134 |
|      32 | 0xFFFFC6BC  |  4294952636 |
|      33 | 0xFFFFED19  |  4294962457 |
|      34 | 0x000F      |          15 |
|      35 | 0x0B94      |        2964 |
|      36 | 0x080D      |        2061 |
|      37 | 0x0005      |           5 |
|      38 | 0x0204      |         516 |
|      39 | 0x008C      |         140 |
|      40 | 0x0001      |           1 |
|      41 | 0x00AA      |         170 |
|      42 | 0x0078      |         120 |
|      43 | 0x0028      |          40 |
|      44 | 0x00DE      |         222 |
|      45 | 0x00FA      |         250 |
|      46 | 0x000A      |          10 |
|      47 | 0x052F      |        1327 |
|      48 | 0x003C      |          60 |
|      49 | 0x0064      |         100 |
|      50 | 0x0A9B      |        2715 |
|      51 | 0x1F5C      |        8028 |
|      52 | 0x0046      |          70 |
|      53 | 0x002D      |          45 |
|      54 | 0x0006      |           6 |
|      55 | 0x1F5D      |        8029 |
|      56 | 0x0B95      |        2965 |
|      57 | 0x001E      |          30 |
|      58 | 0x1F5E      |        8030 |
|      59 | 0x0168      |         360 |
|      60 | 0x00F2      |         242 |
|      61 | 0x00FF      |         255 |
|      62 | 0x01AB      |         427 |
|      63 | 0x112A      |        4394 |
|      64 | 0x1BFA      |        7162 |
|      65 | 0xFFFF9C65  |  4294941797 |
|      66 | 0x0206      |         518 |
|      67 | 0x18D5      |        6357 |
|      68 | 0x1D8A      |        7562 |
|      69 | 0x01F4      |         500 |
|      70 | 0x07F9      |        2041 |
|      71 | 0x2A24      |       10788 |
|      72 | 0x0136      |         310 |
|      73 | 0xFFFFE746  |  4294960966 |
|      74 | 0x4B5E      |       19294 |
|      75 | 0x01F3      |         499 |
|      76 | 0x0499      |        1177 |
|      77 | 0x00A2      |         162 |
|      78 | 0x1F5F      |        8031 |
|      79 | 0x1F60      |        8032 |
|      80 | 0x1F61      |        8033 |
|      81 | 0x1F62      |        8034 |
|      82 | 0x1F63      |        8035 |
|      83 | 0x0082      |         130 |
|      84 | 0x01AA      |         426 |
|      85 | 0x61FF      |       25087 |
|      86 | 0x0408      |        1032 |
|      87 | 0x00A0      |         160 |
|      88 | 0xFFFFFE61  |  4294966881 |
|      89 | 0x4E28      |       20008 |
|      90 | 0x1F64      |        8036 |
|      91 | 0x1F65      |        8037 |
|      92 | 0x0014      |          20 |
|      93 | 0x05A3      |        1443 |
|      94 | 0x1F66      |        8038 |
|      95 | 0x055D      |        1373 |
|      96 | 0x1F67      |        8039 |
|      97 | 0x1F68      |        8040 |
|      98 | 0x0032      |          50 |
|      99 | 0x0104      |         260 |
|     100 | 0xFFFFF42F  |  4294964271 |
|     101 | 0x1B83      |        7043 |
|     102 | 0xFFFF9C64  |  4294941796 |
|     103 | 0xFFFFFF05  |  4294967045 |
|     104 | 0x1C81      |        7297 |
|     105 | 0x0803      |        2051 |
|     106 | 0x1F69      |        8041 |
|     107 | 0x1F6A      |        8042 |
|     108 | 0x1F6B      |        8043 |
|     109 | 0x00ED      |         237 |
|     110 | 0x00AD      |         173 |
|     111 | 0x1F6C      |        8044 |
|     112 | 0x1F6D      |        8045 |
|     113 | 0x00D2      |         210 |
|     114 | 0x1F6E      |        8046 |
|     115 | 0x1F6F      |        8047 |
|     116 | 0x017C      |         380 |
|     117 | 0x0050      |          80 |
|     118 | 0x1F70      |        8048 |
|     119 | 0x010E      |         270 |
|     120 | 0x1F71      |        8049 |
|     121 | 0x1F72      |        8050 |
|     122 | 0x014A      |         330 |
|     123 | 0x1F73      |        8051 |
|     124 | 0x0037      |          55 |
|     125 | 0x005A      |          90 |
|     126 | 0x1F74      |        8052 |
|     127 | 0x00E1      |         225 |
|     128 | 0x00B4      |         180 |
|     129 | 0x1F75      |        8053 |
|     130 | 0x1F76      |        8054 |
|     131 | 0x1F77      |        8055 |
|     132 | 0x012C      |         300 |
|     133 | 0x1F78      |        8056 |
|     134 | 0x1F79      |        8057 |
|     135 | 0x007F      |         127 |
|     136 | 0x0096      |         150 |
|     137 | 0x005E      |          94 |
|     138 | 0xFFFF7302  |  4294931202 |
|     139 | 0x163E3     |       91107 |
|     140 | 0xFFFFEC79  |  4294962297 |
|     141 | 0x047E      |        1150 |
|     142 | 0xFFFF434B  |  4294918987 |
|     143 | 0x15AC7     |       88775 |
|     144 | 0x03C7      |         967 |
|     145 | 0xFFFF8FBA  |  4294938554 |
|     146 | 0x13D40     |       81216 |
|     147 | 0xFFFFED5C  |  4294962524 |
|     148 | 0x07F8      |        2040 |
|     149 | 0xFFFF88D8  |  4294936792 |
|     150 | 0x38420     |      230432 |
|     151 | 0xFFFFB8CF  |  4294949071 |
|     152 | 0x062D      |        1581 |
|     153 | 0xFFFF0051  |  4294901841 |
|     154 | 0xFFFD14E0  |  4294776032 |
|     155 | 0xFFFFD4FD  |  4294956285 |
|     156 | 0x03E1      |         993 |
|     157 | 0xFFFF36E4  |  4294915812 |
|     158 | 0xFFFD16D3  |  4294776531 |
|     159 | 0xFFFFD412  |  4294956050 |
|     160 | 0x0514      |        1300 |
|     161 | 0xFFFF5737  |  4294924087 |
|     162 | 0x36375     |      222069 |
|     163 | 0xFFFFECC6  |  4294962374 |
|     164 | 0xFFFF5F8C  |  4294926220 |
|     165 | 0x3644D     |      222285 |
|     166 | 0xFFFFEC78  |  4294962296 |
|     167 | 0xFFFF6999  |  4294928793 |
|     168 | 0x363E1     |      222177 |
|     169 | 0xFFFFECD5  |  4294962389 |
|     170 | 0xFFFF729A  |  4294931098 |
|     171 | 0x36381     |      222081 |
|     172 | 0xFFFFED65  |  4294962533 |
|     173 | 0xFFFF09FB  |  4294904315 |
|     174 | 0xFFFCFE0E  |  4294770190 |
|     175 | 0xFFFFF634  |  4294964788 |
|     176 | 0x0441      |        1089 |
|     177 | 0xFFFF2592  |  4294911378 |
|     178 | 0xFFFCFCAE  |  4294769838 |
|     179 | 0xFFFFF636  |  4294964790 |
|     180 | 0x0440      |        1088 |
|     181 | 0xFFFF6957  |  4294928727 |
|     182 | 0x322CE     |      205518 |
|     183 | 0xFFFFEB73  |  4294962035 |
|     184 | 0xFFFF6AE7  |  4294929127 |
|     185 | 0x31BF4     |      203764 |
|     186 | 0xFFFFEB0A  |  4294961930 |
|     187 | 0xFFFF5C1F  |  4294925343 |
|     188 | 0x31FC7     |      204743 |
|     189 | 0xFFFFEBC5  |  4294962117 |
|     190 | 0xFFFF57C1  |  4294924225 |
|     191 | 0x31732     |      202546 |
|     192 | 0xFFFFEB08  |  4294961928 |
|     193 | 0x056F      |        1391 |
|     194 | 0x080E      |        2062 |
|     195 | 0x055C      |        1372 |
|     196 | 0x052E      |        1326 |
|     197 | 0x00F9      |         249 |
|     198 | 0x006E      |         110 |
|     199 | 0xFFFF189D  |  4294908061 |
|     200 | 0xFFFCF44C  |  4294767692 |
|     201 | 0xFFFFF655  |  4294964821 |
|     202 | 0xFFFF1081  |  4294905985 |
|     203 | 0xFFFCFEB4  |  4294770356 |
|     204 | 0xFFFFF6AC  |  4294964908 |
|     205 | 0xFFFF1752  |  4294907730 |
|     206 | 0xFFFCFE5F  |  4294770271 |
|     207 | 0xFFFFF6FE  |  4294964990 |
|     208 | 0xFFFF1ED4  |  4294909652 |
|     209 | 0xFFFCFE0F  |  4294770191 |
|     210 | 0xFFFFF6A7  |  4294964903 |
|     211 | 0xFFFF1747  |  4294907719 |
|     212 | 0x14D79     |       85369 |
|     213 | 0x0FA0      |        4000 |
|     214 | 0xFFFF2933  |  4294912307 |
|     215 | 0x1768D     |       95885 |
|     216 | 0xFFFFD602  |  4294956546 |
|     217 | 0x03EF      |        1007 |
|     218 | 0xFFFFAFDD  |  4294946781 |
|     219 | 0x11FEB     |       73707 |
|     220 | 0xFFFFF220  |  4294963744 |
|     221 | 0xFFFFC475  |  4294952053 |
|     222 | 0x155A7     |       87463 |
|     223 | 0xFFFF7DFA  |  4294934010 |
|     224 | 0x177D8     |       96216 |
|     225 | 0x06A4      |        1700 |
|     226 | 0xFFFF8680  |  4294936192 |
|     227 | 0x16CF0     |       93424 |
|     228 | 0x05A2      |        1442 |
|     229 | 0x0073      |         115 |
|     230 | 0xFFFF8482  |  4294935682 |
|     231 | 0x15FCE     |       90062 |
|     232 | 0xFFFF61FF  |  4294926847 |
|     233 | 0x16A57     |       92759 |
|     234 | 0x0C30      |        3120 |
|     235 | 0xFFFF6953  |  4294928723 |
|     236 | 0x16BBD     |       93117 |
|     237 | 0xFFFF2A85  |  4294912645 |
|     238 | 0x165C6     |       91590 |
|     239 | 0xFFFFD21A  |  4294955546 |
|     240 | 0x03B5      |         949 |
|     241 | 0x0087      |         135 |
|     242 | 0xFFFF80FF  |  4294934783 |
|     243 | 0x15E2B     |       89643 |
|     244 | 0x0442      |        1090 |
|     245 | 0xFFFF8935  |  4294936885 |
|     246 | 0x1539C     |       86940 |
|     247 | 0xFFFFEC67  |  4294962279 |
|     248 | 0x05DC      |        1500 |
|     249 | 0xFFFF713F  |  4294930751 |
|     250 | 0x161F2     |       90610 |
|     251 | 0xFFFF5E1E  |  4294925854 |
|     252 | 0x15016     |       86038 |
|     253 | 0x0C2F      |        3119 |
|     254 | 0xFFFF6AC0  |  4294929088 |
|     255 | 0x14F6F     |       85871 |
|     256 | 0xFFFFECB5  |  4294962357 |
|     257 | 0xFFFF75DE  |  4294931934 |
|     258 | 0x14F91     |       85905 |
|     259 | 0xFFFFED78  |  4294962552 |
|     260 | 0xFFFF7F9B  |  4294934427 |
|     261 | 0x14EE8     |       85736 |
|     262 | 0xFFFFEDAB  |  4294962603 |
|     263 | 0xFFFF9F51  |  4294942545 |
|     264 | 0x10C69     |       68713 |
|     265 | 0xFFFFF22E  |  4294963758 |
|     266 | 0x0AC5      |        2757 |
|     267 | 0x0023      |          35 |
|     268 | 0xFFFF59C3  |  4294924739 |
|     269 | 0x178D6     |       96470 |
|     270 | 0xFFFF58CE  |  4294924494 |
|     271 | 0x16E53     |       93779 |
|     272 | 0x032A      |         810 |
|     273 | 0x0640      |        1600 |
|     274 | 0xFFFF55A1  |  4294923681 |
|     275 | 0x15609     |       87561 |
|     276 | 0x07D0      |        2000 |
|     277 | 0xFFFF7190  |  4294930832 |
|     278 | 0x15B7D     |       88957 |
|     279 | 0x0055      |          85 |
|     280 | 0x1F7A      |        8058 |
|     281 | 0xFFFF7520  |  4294931744 |
|     282 | 0x166AA     |       91818 |
|     283 | 0x1F7B      |        8059 |
|     284 | 0x1F7C      |        8060 |
|     285 | 0x0508      |        1288 |
|     286 | 0x0031      |          49 |
|     287 | 0x1F7D      |        8061 |
|     288 | 0x0805      |        2053 |
|     289 | 0x1F7E      |        8062 |
|     290 | 0x1F7F      |        8063 |
|     291 | 0x1F80      |        8064 |
|     292 | 0x1F81      |        8065 |
|     293 | 0x0190      |         400 |
|     294 | 0x1F82      |        8066 |
|     295 | 0x00F0      |         240 |
|     296 | 0x00EB      |         235 |
|     297 | 0xFFFF26AD  |  4294911661 |
|     298 | 0x1700E     |       94222 |
|     299 | 0x0C80      |        3200 |
|     300 | 0x1F83      |        8067 |
|     301 | 0x00D7      |         215 |
|     302 | 0x1F84      |        8068 |
|     303 | 0x1F85      |        8069 |
|     304 | 0x005F      |          95 |
|     305 | 0x4DFFD     |      319485 |
|     306 | 0xFFFFDBAF  |  4294957999 |
|     307 | 0xFFFFEF14  |  4294962964 |
|     308 | 0x0BFC      |        3068 |
|     309 | 0x4E7DC     |      321500 |
|     310 | 0xFFFFD4DF  |  4294956255 |
|     311 | 0xFFFFEEA7  |  4294962855 |
|     312 | 0x508B4     |      329908 |
|     313 | 0xFFFF8D36  |  4294937910 |
|     314 | 0xFFFFBBA4  |  4294949796 |
|     315 | 0x0B71      |        2929 |
|     316 | 0x505C2     |      329154 |
|     317 | 0xFFFF8E7A  |  4294938234 |
|     318 | 0x4DA49     |      318025 |
|     319 | 0xFFFFD6AE  |  4294956718 |
|     320 | 0xFFFFEEC4  |  4294962884 |
|     321 | 0x41CD8     |      269528 |
|     322 | 0x3513A     |      217402 |
|     323 | 0xFFFFBF2C  |  4294950700 |
|     324 | 0x035F      |         863 |
|     325 | 0x4344B     |      275531 |
|     326 | 0x3644F     |      222287 |
|     327 | 0xFFFFBD61  |  4294950241 |
|     328 | 0x422B5     |      271029 |
|     329 | 0x35A47     |      219719 |
|     330 | 0xFFFFBEBB  |  4294950587 |
|     331 | 0x42BE8     |      273384 |
|     332 | 0x35F65     |      221029 |
|     333 | 0xFFFFBE1E  |  4294950430 |
|     334 | 0x39BFA     |      236538 |
|     335 | 0x37D92     |      228754 |
|     336 | 0xFFFFB564  |  4294948196 |
|     337 | 0x035E      |         862 |
|     338 | 0x42882     |      272514 |
|     339 | 0x36C1D     |      224285 |
|     340 | 0xFFFFBF57  |  4294950743 |
|     341 | 0x0360      |         864 |
|     342 | 0x41CBF     |      269503 |
|     343 | 0x36284     |      221828 |
|     344 | 0xFFFFBF75  |  4294950773 |
|     345 | 0x1F86      |        8070 |
|     346 | 0x0079      |         121 |
|     347 | 0x3A051     |      237649 |
|     348 | 0x36AE6     |      223974 |
|     349 | 0xFFFFB7BA  |  4294948794 |
|     350 | 0x39971     |      235889 |
|     351 | 0x36CA9     |      224425 |
|     352 | 0xFFFFB76F  |  4294948719 |
|     353 | 0x035D      |         861 |
|     354 | 0x3A8C8     |      239816 |
|     355 | 0x37099     |      225433 |
|     356 | 0xFFFFB703  |  4294948611 |
|     357 | 0x3B9EE     |      244206 |
|     358 | 0x38991     |      231825 |
|     359 | 0xFFFFB3E4  |  4294947812 |
|     360 | 0x398A5     |      235685 |
|     361 | 0x38575     |      230773 |
|     362 | 0xFFFFB43C  |  4294947900 |
|     363 | 0x3AC42     |      240706 |
|     364 | 0x378F1     |      227569 |
|     365 | 0xFFFFB5F8  |  4294948344 |
|     366 | 0x38F4A     |      233290 |
|     367 | 0x3734C     |      226124 |
|     368 | 0xFFFFB554  |  4294948180 |
|     369 | 0x1F87      |        8071 |
|     370 | 0x00EF      |         239 |
|     371 | 0x0003      |           3 |
|     372 | 0x38157     |      229719 |
|     373 | 0x22622     |      140834 |
|     374 | 0xFFFFC2DD  |  4294951645 |
|     375 | 0x3EE78     |      257656 |
|     376 | 0x255EE     |      153070 |
|     377 | 0xFFFFC7FF  |  4294952959 |
|     378 | 0x3B9AD     |      244141 |
|     379 | 0x25572     |      152946 |
|     380 | 0xFFFFC181  |  4294951297 |
|     381 | 0x3FEDF     |      261855 |
|     382 | 0x35035     |      217141 |
|     383 | 0xFFFFBE93  |  4294950547 |
|     384 | 0x3EB00     |      256768 |
|     385 | 0x3430E     |      213774 |
|     386 | 0xFFFFBE0A  |  4294950410 |
|     387 | 0x3B615     |      243221 |
|     388 | 0x35184     |      217476 |
|     389 | 0xFFFFB9B0  |  4294949296 |
|     390 | 0x1F88      |        8072 |
|     391 | 0x3E46B     |      255083 |
|     392 | 0x23ED2     |      147154 |
|     393 | 0xFFFFC919  |  4294953241 |
|     394 | 0x3F6FD     |      259837 |
|     395 | 0x23E9B     |      147099 |
|     396 | 0xFFFFCA45  |  4294953541 |
|     397 | 0x3B5B8     |      243128 |
|     398 | 0x23B7D     |      146301 |
|     399 | 0xFFFFC3DD  |  4294951901 |
|     400 | 0x39576     |      234870 |
|     401 | 0x2308B     |      143499 |
|     402 | 0xFFFFC41C  |  4294951964 |
|     403 | 0x3859A     |      230810 |
|     404 | 0x2464C     |      149068 |
|     405 | 0xFFFFC1E5  |  4294951397 |
|     406 | 0x3A1C2     |      238018 |
|     407 | 0x236A6     |      145062 |
|     408 | 0xFFFFC42B  |  4294951979 |
|     409 | 0x3C0F4     |      246004 |
|     410 | 0x252A5     |      152229 |
|     411 | 0xFFFFC337  |  4294951735 |
|     412 | 0x0372      |         882 |
|     413 | 0x3AC3B     |      240699 |
|     414 | 0x26270     |      156272 |
|     415 | 0x36341     |      222017 |
|     416 | 0x22B2F     |      142127 |
|     417 | 0xFFFFC26E  |  4294951534 |
|     418 | 0x3D49E     |      251038 |
|     419 | 0x24CD8     |      150744 |
|     420 | 0xFFFFC631  |  4294952497 |
|     421 | 0x38772     |      231282 |
|     422 | 0x23A4C     |      145996 |
|     423 | 0xFFFFC2A8  |  4294951592 |
|     424 | 0x4E758     |      321368 |
|     425 | 0xFFFFD9C8  |  4294957512 |
|     426 | 0xFFFFEEF6  |  4294962934 |
|     427 | 0x0A97      |        2711 |
|     428 | 0x3750A     |      226570 |
|     429 | 0x24CB7     |      150711 |
|     430 | 0xFFFFB2E2  |  4294947554 |
|     431 | 0x3BAC9     |      244425 |
|     432 | 0x25041     |      151617 |
|     433 | 0xFFFFB6CA  |  4294948554 |
|     434 | 0x3B51C     |      242972 |
|     435 | 0x2748B     |      160907 |
|     436 | 0xFFFFB1B6  |  4294947254 |
|     437 | 0x3D0D1     |      250065 |
|     438 | 0x2512C     |      151852 |
|     439 | 0xFFFFC573  |  4294952307 |
|     440 | 0x3B97E     |      244094 |
|     441 | 0x26C11     |      158737 |
|     442 | 0xFFFFC180  |  4294951296 |
|     443 | 0x3BA48     |      244296 |
|     444 | 0x25764     |      153444 |
|     445 | 0x3985B     |      235611 |
|     446 | 0x2AD9D     |      175517 |
|     447 | 0xFFFFBD57  |  4294950231 |
|     448 | 0x3C3A7     |      246695 |
|     449 | 0x25A6A     |      154218 |
|     450 | 0xFFFFC259  |  4294951513 |
|     451 | 0x3C5E5     |      247269 |
|     452 | 0x260B7     |      155831 |
|     453 | 0x3EA37     |      256567 |
|     454 | 0x261F9     |      156153 |
|     455 | 0xFFFFB976  |  4294949238 |
|     456 | 0x3EAC4     |      256708 |
|     457 | 0x24772     |      149362 |
|     458 | 0xFFFFC845  |  4294953029 |
|     459 | 0x035C      |         860 |
|     460 | 0x3E0D1     |      254161 |
|     461 | 0x248AF     |      149679 |
|     462 | 0xFFFFC7A4  |  4294952868 |
|     463 | 0x3DA3C     |      252476 |
|     464 | 0x267C4     |      157636 |
|     465 | 0xFFFFC391  |  4294951825 |
|     466 | 0x3ACE3     |      240867 |
|     467 | 0x2EEEE     |      192238 |
|     468 | 0xFFFFC094  |  4294951060 |
|     469 | 0x3EDCD     |      257485 |
|     470 | 0x29351     |      168785 |
|     471 | 0xFFFFC34B  |  4294951755 |
|     472 | 0x3EF24     |      257828 |
|     473 | 0x2B4C1     |      177345 |
|     474 | 0xFFFFBBBC  |  4294949820 |
|     475 | 0x3CF51     |      249681 |
|     476 | 0x2B472     |      177266 |
|     477 | 0xFFFFBCF5  |  4294950133 |
|     478 | 0x3E057     |      254039 |
|     479 | 0x338DC     |      211164 |
|     480 | 0xFFFFBED0  |  4294950608 |
|     481 | 0x3E13B     |      254267 |
|     482 | 0x27DA1     |      163233 |
|     483 | 0xFFFFC3FE  |  4294951934 |
|     484 | 0x3CCEC     |      249068 |
|     485 | 0x29132     |      168242 |
|     486 | 0xFFFFC0CF  |  4294951119 |
|     487 | 0x3E8AB     |      256171 |
|     488 | 0x2BCCC     |      179404 |
|     489 | 0xFFFFBACA  |  4294949578 |
|     490 | 0x3C9F2     |      248306 |
|     491 | 0x2BBDF     |      179167 |
|     492 | 0xFFFFBBF3  |  4294949875 |
|     493 | 0x3D727     |      251687 |
|     494 | 0x2A402     |      173058 |
|     495 | 0xFFFFBDF4  |  4294950388 |
|     496 | 0x3F849     |      260169 |
|     497 | 0x2C418     |      181272 |
|     498 | 0xFFFFBBAE  |  4294949806 |
|     499 | 0x3D92E     |      252206 |
|     500 | 0x2892A     |      166186 |
|     501 | 0xFFFFB749  |  4294948681 |
|     502 | 0x3EE19     |      257561 |
|     503 | 0x2C246     |      180806 |
|     504 | 0xFFFFB6D4  |  4294948564 |
|     505 | 0x3C608     |      247304 |
|     506 | 0x2E124     |      188708 |
|     507 | 0xFFFF99E6  |  4294941158 |
|     508 | 0x1F89      |        8073 |
|     509 | 0x1F8A      |        8074 |
|     510 | 0x5023C     |      328252 |
|     511 | 0xFFFF8DC9  |  4294938057 |
|     512 | 0x0A8A      |        2698 |
|     513 | 0x0A96      |        2710 |
|     514 | 0x4EC34     |      322612 |
|     515 | 0xFFFFC506  |  4294952198 |
|     516 | 0xFFFFECE4  |  4294962404 |
|     517 | 0x4F44A     |      324682 |
|     518 | 0xFFFFC121  |  4294951201 |
|     519 | 0xFFFFEC68  |  4294962280 |
|     520 | 0x4E01A     |      319514 |
|     521 | 0xFFFFE235  |  4294959669 |
|     522 | 0xFFFFEF7C  |  4294963068 |
|     523 | 0x4D87B     |      317563 |
|     524 | 0xFFFFD7D9  |  4294957017 |
|     525 | 0xFFFFEED7  |  4294962903 |
|     526 | 0x1F8B      |        8075 |
|     527 | 0x1F8C      |        8076 |
|     528 | 0x1F8D      |        8077 |
|     529 | 0x1F8E      |        8078 |
|     530 | 0x0A8B      |        2699 |
|     531 | 0x1F8F      |        8079 |
|     532 | 0x1F90      |        8080 |
|     533 | 0x007A      |         122 |
|     534 | 0x0B93      |        2963 |
|     535 | 0x4DA7A     |      318074 |
|     536 | 0xFFFFD8F9  |  4294957305 |
|     537 | 0xFFFFEEE9  |  4294962921 |
|     538 | 0x1F91      |        8081 |
|     539 | 0x1F92      |        8082 |
|     540 | 0x0007      |           7 |
|     541 | 0x1F93      |        8083 |
|     542 | 0x4F070     |      323696 |
|     543 | 0xFFFFC81E  |  4294952990 |
|     544 | 0xFFFFED47  |  4294962503 |
|     545 | 0x00BE      |         190 |
|     546 | 0x1F94      |        8084 |
|     547 | 0x099C      |        2460 |
|     548 | 0x4EAFC     |      322300 |
|     549 | 0xFFFFB54B  |  4294948171 |
|     550 | 0xFFFFEBB4  |  4294962100 |
|     551 | 0x1F95      |        8085 |
|     552 | 0x0016      |          22 |
|     553 | 0x1F96      |        8086 |
|     554 | 0x0002      |           2 |
|     555 | 0x096C      |        2412 |
|     556 | 0x1F97      |        8087 |
|     557 | 0x1F98      |        8088 |
|     558 | 0x0359      |         857 |
|     559 | 0x0456      |        1110 |
|     560 | 0x3D8E9     |      252137 |
|     561 | 0x25B63     |      154467 |
|     562 | 0xFFFFC4E3  |  4294952163 |
|     563 | 0x0025      |          37 |
|     564 | 0x3DA00     |      252416 |
|     565 | 0x282E6     |      164582 |
|     566 | 0xFFFFC366  |  4294951782 |
|     567 | 0x3D208     |      250376 |
|     568 | 0x259D6     |      154070 |
|     569 | 0xFFFFC447  |  4294952007 |
|     570 | 0x1F99      |        8089 |
|     571 | 0x04FB      |        1275 |
|     572 | 0x004B      |          75 |
|     573 | 0xFFFAF8BA  |  4294637754 |
|     574 | 0xFFF9F2C7  |  4294570695 |
|     575 | 0x0E44      |        3652 |
|     576 | 0x0C98      |        3224 |
|     577 | 0xFFFABC1E  |  4294622238 |
|     578 | 0xFFFA113A  |  4294578490 |
|     579 | 0xFFFFA2DD  |  4294943453 |
|     580 | 0xFFFAE81D  |  4294633501 |
|     581 | 0xFFF9F024  |  4294570020 |
|     582 | 0x0CC5      |        3269 |
|     583 | 0xFFFFE890  |  4294961296 |
|     584 | 0xFFFE7960  |  4294867296 |
|     585 | 0x0401      |        1025 |
|     586 | 0xFFFFFE70  |  4294966896 |
|     587 | 0xFFFFE7C8  |  4294961096 |
|     588 | 0xFFFFF448  |  4294964296 |
|     589 | 0xFFFE71F4  |  4294865396 |
|     590 | 0x0848      |        2120 |
|     591 | 0x0C4B      |        3147 |
|     592 | 0x00A7      |         167 |
|     593 | 0x01FE      |         510 |
|     594 | 0x00D5      |         213 |
|     595 | 0x0004      |           4 |
|     596 | 0x0846      |        2118 |
|     597 | 0x051F      |        1311 |
|     598 | 0x00DB      |         219 |
|     599 | 0x1388      |        5000 |
|     600 | 0x00E6      |         230 |
|     601 | 0x0C4A      |        3146 |
|     602 | 0xFFFAA61B  |  4294616603 |
|     603 | 0xFFF9E3E0  |  4294566880 |
|     604 | 0x0E52      |        3666 |
|     605 | 0x08E9      |        2281 |
|     606 | 0xFFFA9EEA  |  4294614762 |
|     607 | 0xFFF9E8BA  |  4294568122 |
|     608 | 0x0EC5      |        3781 |
|     609 | 0x1FC6      |        8134 |
|     610 | 0x008D      |         141 |
|     611 | 0x0905      |        2309 |
|     612 | 0xFFFA8F9A  |  4294610842 |
|     613 | 0xFFF9ECE6  |  4294569190 |
|     614 | 0x0F9F      |        3999 |
|     615 | 0x0E42      |        3650 |
|     616 | 0x1FC7      |        8135 |
|     617 | 0x1FC8      |        8136 |
|     618 | 0xFFFABCF6  |  4294622454 |
|     619 | 0xFFFA1227  |  4294578727 |
|     620 | 0x0B7D      |        2941 |
|     621 | 0x002A      |          42 |
|     622 | 0x0BE1      |        3041 |
|     623 | 0x0015      |          21 |
|     624 | 0x084A      |        2122 |
|     625 | 0x00F8      |         248 |
|     626 | 0xFFFAAE5A  |  4294618714 |
|     627 | 0xFFFA09D4  |  4294576596 |
|     628 | 0x0BB5      |        2997 |
|     629 | 0x0834      |        2100 |
|     630 | 0x1FC9      |        8137 |
|     631 | 0xFFFAA792  |  4294616978 |
|     632 | 0xFFFA0507  |  4294575367 |
|     633 | 0x0CBB      |        3259 |
|     634 | 0x0653      |        1619 |
|     635 | 0x1FCA      |        8138 |
|     636 | 0x00F3      |         243 |
|     637 | 0x1FCB      |        8139 |
|     638 | 0xFFFA8EFA  |  4294610682 |
|     639 | 0xFFF9F33E  |  4294570814 |
|     640 | 0x0A5A      |        2650 |
|     641 | 0x1FCC      |        8140 |
|     642 | 0x0BE2      |        3042 |
|     643 | 0x1FCD      |        8141 |
|     644 | 0x1FCE      |        8142 |
|     645 | 0x1FCF      |        8143 |
|     646 | 0x1FD0      |        8144 |
|     647 | 0xFFFA8270  |  4294607472 |
|     648 | 0xFFF9F883  |  4294572163 |
|     649 | 0x0F68      |        3944 |
|     650 | 0x0AB0      |        2736 |
|     651 | 0x1FD1      |        8145 |
|     652 | 0x05A6      |        1446 |
|     653 | 0x1FD2      |        8146 |
|     654 | 0x1FD3      |        8147 |
|     655 | 0x1FD4      |        8148 |
|     656 | 0x1FD5      |        8149 |
|     657 | 0x1FD6      |        8150 |
|     658 | 0x0BE3      |        3043 |
|     659 | 0x1FD7      |        8151 |
|     660 | 0x0942      |        2370 |
|     661 | 0x1FD8      |        8152 |
|     662 | 0x1FD9      |        8153 |
|     663 | 0x1FDA      |        8154 |
|     664 | 0x1FDB      |        8155 |
|     665 | 0x1FDC      |        8156 |
|     666 | 0x1FDD      |        8157 |
|     667 | 0x1FDE      |        8158 |
|     668 | 0xFFFA6A54  |  4294601300 |
|     669 | 0xFFF9E542  |  4294567234 |
|     670 | 0x1093      |        4243 |
|     671 | 0x1FDF      |        8159 |
|     672 | 0x0008      |           8 |
|     673 | 0x1FE1      |        8161 |
|     674 | 0x1FE2      |        8162 |
|     675 | 0x0C49      |        3145 |
|     676 | 0x0BE4      |        3044 |
|     677 | 0x1FE0      |        8160 |
|     678 | 0x1FE3      |        8163 |
|     679 | 0x1FE4      |        8164 |
|     680 | 0xFFFA81B9  |  4294607289 |
|     681 | 0xFFFA1DAD  |  4294581677 |
|     682 | 0x0C7C      |        3196 |
|     683 | 0x0BF9      |        3065 |
|     684 | 0x1FE5      |        8165 |
|     685 | 0x1FE6      |        8166 |
|     686 | 0x0BE5      |        3045 |
|     687 | 0xFFFA8428  |  4294607912 |
|     688 | 0xFFFA33D4  |  4294587348 |
|     689 | 0x0AB9      |        2745 |
|     690 | 0x0C13      |        3091 |
|     691 | 0x1FE7      |        8167 |
|     692 | 0x1FE8      |        8168 |
|     693 | 0x1FE9      |        8169 |
|     694 | 0x0B7E      |        2942 |
|     695 | 0x1FEA      |        8170 |
|     696 | 0x01C1      |         449 |
|     697 | 0x000E      |          14 |
|     698 | 0xB174      |       45428 |
|     699 | 0xFFFEFD8A  |  4294901130 |
|     700 | 0xFFFFF757  |  4294965079 |
|     701 | 0x05E3      |        1507 |
|     702 | 0xC21A      |       49690 |
|     703 | 0xFFFEF8CA  |  4294899914 |
|     704 | 0xFFFFF6C3  |  4294964931 |
|     705 | 0x0A64      |        2660 |
|     706 | 0x16E6      |        5862 |
|     707 | 0xFFFF0767  |  4294903655 |
|     708 | 0xFFFFF0E0  |  4294963424 |
|     709 | 0x01A0      |         416 |
|     710 | 0x1B33      |        6963 |
|     711 | 0xFFFF0B29  |  4294904617 |
|     712 | 0xFFFFF0BE  |  4294963390 |
|     713 | 0x0550      |        1360 |
|     714 | 0x114A      |        4426 |
|     715 | 0xFFFEF606  |  4294899206 |
|     716 | 0xFFFFEBD1  |  4294962129 |
|     717 | 0x0D48      |        3400 |
|     718 | 0xB1F0      |       45552 |
|     719 | 0xFFFF0D30  |  4294905136 |
|     720 | 0xFFFFF63D  |  4294964797 |
|     721 | 0x05EF      |        1519 |
|     722 | 0xB1E7      |       45543 |
|     723 | 0xFFFF07CC  |  4294903756 |
|     724 | 0xFFFFF63C  |  4294964796 |
|     725 | 0x07DE      |        2014 |
|     726 | 0x803E      |       32830 |
|     727 | 0xFFFF14BF  |  4294907071 |
|     728 | 0x09D0      |        2512 |
|     729 | 0xCD6E      |       52590 |
|     730 | 0xFFFF146E  |  4294906990 |
|     731 | 0x07DC      |        2012 |
|     732 | 0xC6D4      |       50900 |
|     733 | 0xFFFF19DA  |  4294908378 |
|     734 | 0x6800      |       26624 |
|     735 | 0xFFFF1AE8  |  4294908648 |
|     736 | 0x03F4      |        1012 |
|     737 | 0x63A0      |       25504 |
|     738 | 0xFFFF1AE7  |  4294908647 |
|     739 | 0x6F03      |       28419 |
|     740 | 0xFFFF16A3  |  4294907555 |
|     741 | 0x0221      |         545 |
|     742 | 0x003B      |          59 |
|     743 | 0x0907      |        2311 |
|     744 | 0x081E      |        2078 |
|     745 | 0x0506      |        1286 |
|     746 | 0x0504      |        1284 |
|     747 | 0x009A      |         154 |
|     748 | 0x0011      |          17 |
|     749 | 0xFFFE9811  |  4294875153 |
|     750 | 0x1AE3D     |      110141 |
|     751 | 0xFFFFD42C  |  4294956076 |
|     752 | 0x0142      |         322 |
|     753 | 0xFFFF77C8  |  4294932424 |
|     754 | 0x20CA0     |      134304 |
|     755 | 0x0914      |        2324 |
|     756 | 0xFFFEA28E  |  4294877838 |
|     757 | 0x1AB8D     |      109453 |
|     758 | 0xFFFFDAD9  |  4294957785 |
|     759 | 0x0912      |        2322 |
|     760 | 0xFFFEAB17  |  4294880023 |
|     761 | 0x1AF45     |      110405 |
|     762 | 0xFFFFDC1D  |  4294958109 |
|     763 | 0x0911      |        2321 |
|     764 | 0xFFFEA8DE  |  4294879454 |
|     765 | 0x1A5DF     |      107999 |
|     766 | 0xFFFFDAE2  |  4294957794 |
|     767 | 0xFFFE97E7  |  4294875111 |
|     768 | 0x19BDF     |      105439 |
|     769 | 0xFFFFDBDE  |  4294958046 |
|     770 | 0xFFFE9D7F  |  4294876543 |
|     771 | 0x19930     |      104752 |
|     772 | 0xFFFFDB8F  |  4294957967 |
|     773 | 0xFFFE9F91  |  4294877073 |
|     774 | 0x1A00D     |      106509 |
|     775 | 0xFFFFDB6E  |  4294957934 |
|     776 | 0xFFFEA169  |  4294877545 |
|     777 | 0x1A1FA     |      107002 |
|     778 | 0xFFFFDB51  |  4294957905 |
|     779 | 0xFFFE94D6  |  4294874326 |
|     780 | 0x1A221     |      107041 |
|     781 | 0xFFFEAA5C  |  4294879836 |
|     782 | 0x19BF2     |      105458 |
|     783 | 0xFFFFDAFB  |  4294957819 |
|     784 | 0x0913      |        2323 |
|     785 | 0xFFFEB530  |  4294882608 |
|     786 | 0x19636     |      103990 |
|     787 | 0xFFFFDB72  |  4294957938 |
|     788 | 0xFFFEB3A0  |  4294882208 |
|     789 | 0x19A7E     |      105086 |
|     790 | 0xFFFFDB61  |  4294957921 |
|     791 | 0x0E74      |        3700 |
|     792 | 0xFFFF76DB  |  4294932187 |
|     793 | 0x2089F     |      133279 |
|     794 | 0x0051      |          81 |
|     795 | 0x00B5      |         181 |
|     796 | 0x0056      |          86 |
|     797 | 0x0A04      |        2564 |
|     798 | 0x0579      |        1401 |
|     799 | 0x00B9      |         185 |
|     800 | 0x009B      |         155 |
|     801 | 0xFFFF4A6E  |  4294920814 |
|     802 | 0x1F3F9     |      127993 |
|     803 | 0xFFFFCB44  |  4294953796 |
|     804 | 0xFFFF425D  |  4294918749 |
|     805 | 0x1F163     |      127331 |
|     806 | 0xFFFF4830  |  4294920240 |
|     807 | 0x1F059     |      127065 |
|     808 | 0xFFFF8B65  |  4294937445 |
|     809 | 0x3E700     |      255744 |
|     810 | 0xFFFFCF60  |  4294954848 |
|     811 | 0x02A8      |         680 |
|     812 | 0x0824      |        2084 |
|     813 | 0x0012      |          18 |
|     814 | 0xFFFB8FD0  |  4294676432 |
|     815 | 0xFFFFCE29  |  4294954537 |
|     816 | 0xFFFF4480  |  4294919296 |
|     817 | 0x0870      |        2160 |
|     818 | 0xFFFB9F96  |  4294680470 |
|     819 | 0xFFFFC932  |  4294953266 |
|     820 | 0xFFFB9FDF  |  4294680543 |
|     821 | 0xFFFFCD18  |  4294954264 |
|     822 | 0xFFFBAF5B  |  4294684507 |
|     823 | 0xFFFFCB78  |  4294953848 |
|     824 | 0xFFFF4481  |  4294919297 |
|     825 | 0x0894      |        2196 |
|     826 | 0xFFFBB572  |  4294686066 |
|     827 | 0xFFFFC733  |  4294952755 |
|     828 | 0xFFFBACA7  |  4294683815 |
|     829 | 0xFFFFCA6A  |  4294953578 |
|     830 | 0x07C1      |        1985 |
|     831 | 0xFFFBA62A  |  4294682154 |
|     832 | 0xFFFFCC86  |  4294954118 |
|     833 | 0x0839      |        2105 |
|     834 | 0xFFFBA70C  |  4294682380 |
|     835 | 0xFFFFC6A6  |  4294952614 |
|     836 | 0x0892      |        2194 |
|     837 | 0xFFFB6531  |  4294665521 |
|     838 | 0x1DD9      |        7641 |
|     839 | 0x0E10      |        3600 |
|     840 | 0xFFFB7302  |  4294669058 |
|     841 | 0x006D      |         109 |
|     842 | 0x08BF      |        2239 |
|     843 | 0xFFFB4444  |  4294657092 |
|     844 | 0xFFFFCC9E  |  4294954142 |
|     845 | 0x0C7B      |        3195 |
|     846 | 0xFFFB481A  |  4294658074 |
|     847 | 0xFFFFCE13  |  4294954515 |
|     848 | 0x0C6C      |        3180 |
|     849 | 0xFFFB481B  |  4294658075 |
|     850 | 0xFFFF43B8  |  4294919096 |
|     851 | 0x0ABA      |        2746 |
|     852 | 0xFFFB4D2A  |  4294659370 |
|     853 | 0xFFFFD018  |  4294955032 |
|     854 | 0xFFFF3626  |  4294915622 |
|     855 | 0x0258      |         600 |
|     856 | 0x0560      |        1376 |
|     857 | 0x23CF9     |      146681 |
|     858 | 0x4B741     |      309057 |
|     859 | 0xFFFF6DAD  |  4294929837 |
|     860 | 0x0CB1      |        3249 |
|     861 | 0xFFFDAEB9  |  4294815417 |
|     862 | 0xFFFDE728  |  4294829864 |
|     863 | 0xFFFFC8A6  |  4294953126 |
|     864 | 0xFFFAA387  |  4294615943 |
|     865 | 0xFFFA033B  |  4294574907 |
|     866 | 0x0D1D      |        3357 |
|     867 | 0xFFFB8910  |  4294674704 |
|     868 | 0xFFF8F521  |  4294505761 |
|     869 | 0x2D1D      |       11549 |
|     870 | 0x0A8E      |        2702 |
|     871 | 0x006A      |         106 |
|     872 | 0xFFFDA7E1  |  4294813665 |
|     873 | 0xFFFDE691  |  4294829713 |
|     874 | 0xFFFFC7D9  |  4294952921 |
|     875 | 0x02BC      |         700 |
|     876 | 0x0140      |         320 |
|     877 | 0x0A94      |        2708 |
|     878 | 0x00DC      |         220 |
|     879 | 0x019B      |         411 |
|     880 | 0xFFFFF791  |  4294965137 |
|     881 | 0xFFFFBC4C  |  4294949964 |
|     882 | 0x0C2D      |        3117 |
|     883 | 0x0118      |         280 |
|     884 | 0x0080      |         128 |
|     885 | 0x00C9      |         201 |
|     886 | 0x21655     |      136789 |
|     887 | 0xED11      |       60689 |
|     888 | 0xFFFFF811  |  4294965265 |
|     889 | 0x0E9F      |        3743 |
|     890 | 0x21D87     |      138631 |
|     891 | 0xF0DA      |       61658 |
|     892 | 0xFFFFF7C0  |  4294965184 |
|     893 | 0x0793      |        1939 |
|     894 | 0x00B6      |         182 |
|     895 | 0x0215      |         533 |
|     896 | 0x202E      |        8238 |
|     897 | 0x202F      |        8239 |
|     898 | 0x1C47      |        7239 |
|     899 | 0x017E      |         382 |
|     900 | 0xFFFFFEC5  |  4294966981 |
|     901 | 0x0368      |         872 |
|     902 | 0x015E      |         350 |
|     903 | 0x2030      |        8240 |
|     904 | 0x2031      |        8241 |
|     905 | 0x2032      |        8242 |
|     906 | 0x0154      |         340 |
|     907 | 0x000B      |          11 |
|     908 | 0x2033      |        8243 |
|     909 | 0x2034      |        8244 |
|     910 | 0x0060      |          96 |
|     911 | 0xFFF99E96  |  4294549142 |
|     912 | 0x55EED     |      351981 |
|     913 | 0xFFFF954B  |  4294939979 |
|     914 | 0x0E30      |        3632 |
|     915 | 0xFFF98E9E  |  4294545054 |
|     916 | 0x54F93     |      348051 |
|     917 | 0xFFFF9367  |  4294939495 |
|     918 | 0x0EA0      |        3744 |
|     919 | 0x2035      |        8245 |
|     920 | 0x2036      |        8246 |
|     921 | 0x2037      |        8247 |
|     922 | 0xFFF9B419  |  4294554649 |
|     923 | 0x56151     |      352593 |
|     924 | 0xFFFF94C0  |  4294939840 |
|     925 | 0x2038      |        8248 |
|     926 | 0x1C7A      |        7290 |
|     927 | 0x1D09      |        7433 |
|     928 | 0x0218      |         536 |
|     929 | 0x08E5      |        2277 |
|     930 | 0x0996      |        2454 |
|     931 | 0x2039      |        8249 |
|     932 | 0x203A      |        8250 |
|     933 | 0x203B      |        8251 |
|     934 | 0x203D      |        8253 |
|     935 | 0x203C      |        8252 |
|     936 | 0x203E      |        8254 |
|     937 | 0x203F      |        8255 |
|     938 | 0x2040      |        8256 |
|     939 | 0x2041      |        8257 |
|     940 | 0x2042      |        8258 |
|     941 | 0x2043      |        8259 |
|     942 | 0x010C      |         268 |
|     943 | 0xFFFFB0EC  |  4294947052 |
|     944 | 0x0BC6      |        3014 |
|     945 | 0x28A0      |       10400 |
|     946 | 0x1433      |        5171 |
|     947 | 0x02ED      |         749 |
|     948 | 0x0A35      |        2613 |

## Events

### Event 65535

#### Metadata

| Field        | Value   |
|--------------|---------|
| Entrypoint   | 0x0000  |
| Data Size    | 1 bytes |
| Instructions | 1       |

```
      00 01 02 03 04 05 06 07  08 09 0A 0B 0C 0D 0E 0F
      -- -- -- -- -- -- -- --  -- -- -- -- -- -- -- --
0000: 00                                                .               
```

#### Opcodes

```
  0: 0x0000 [0x00] END_REQSTACK()
```

### Event 105

#### Metadata

| Field        | Value      |
|--------------|------------|
| Entrypoint   | 0x0001     |
| Data Size    | 7792 bytes |
| Instructions | 935        |

```
      00 01 02 03 04 05 06 07  08 09 0A 0B 0C 0D 0E 0F
      -- -- -- -- -- -- -- --  -- -- -- -- -- -- -- --
0000:    42 1A 7F 77 46 01 38  00 80 4E 00 F0 FF FF 7F   B..wF.8..N.....
0010: 5D 01 80 02 80 27 10 96  F3 05 01 11 27 10 99 F3  ]....'......'...
0020: 05 01 10 27 10 B3 F3 05  01 2E 27 10 B4 F3 05 01  ...'......'.....
0030: 2F 27 10 B5 F3 05 01 2F  27 10 B6 F3 05 01 2F 27  /'...../'...../'
0040: 10 B7 F3 05 01 30 27 10  B8 F3 05 01 30 92 01 96  .....0'.....0...
0050: F3 05 01 92 01 99 F3 05  01 92 01 B3 F3 05 01 92  ................
0060: 01 B4 F3 05 01 92 01 B5  F3 05 01 92 01 B6 F3 05  ................
0070: 01 92 01 B7 F3 05 01 92  01 B8 F3 05 01 94 01 F0  ................
0080: FF FF 7F 94 01 96 F3 05  01 94 01 99 F3 05 01 94  ................
0090: 01 B3 F3 05 01 94 01 B4  F3 05 01 94 01 B5 F3 05  ................
00A0: 01 94 01 B6 F3 05 01 94  01 B7 F3 05 01 94 01 B8  ................
00B0: F3 05 01 BA 96 F3 05 01  03 80 04 80 05 80 06 80  ................
00C0: BA F0 FF FF 7F 07 80 08  80 09 80 06 80 BA 99 F3  ................
00D0: 05 01 0A 80 0B 80 0C 80  0D 80 BA B3 F3 05 01 0E  ................
00E0: 80 0F 80 10 80 11 80 BA  B4 F3 05 01 12 80 13 80  ................
00F0: 14 80 11 80 BA B5 F3 05  01 15 80 16 80 17 80 18  ................
0100: 80 BA B6 F3 05 01 19 80  1A 80 1B 80 11 80 BA B7  ................
0110: F3 05 01 1C 80 1D 80 1E  80 18 80 BA B8 F3 05 01  ................
0120: 1F 80 20 80 21 80 18 80  80 F0 FF FF 7F 80 96 F3  .. .!...........
0130: 05 01 80 99 F3 05 01 80  B3 F3 05 01 80 B4 F3 05  ................
0140: 01 80 B5 F3 05 01 80 B6  F3 05 01 80 B7 F3 05 01  ................
0150: 80 B8 F3 05 01 1C 22 80  5B 23 80 99 F3 05 01 99  ......".[#......
0160: F3 05 01 63 6F 62 6D 5B  24 80 B3 F3 05 01 B3 F3  ...cobm[$.......
0170: 05 01 63 6F 62 30 5B 24  80 B4 F3 05 01 B4 F3 05  ..cob0[$........
0180: 01 63 6F 62 30 5B 24 80  B5 F3 05 01 B5 F3 05 01  .cob0[$.........
0190: 63 6F 62 30 5B 24 80 B6  F3 05 01 B6 F3 05 01 63  cob0[$.........c
01A0: 6F 62 30 5B 24 80 B7 F3  05 01 B7 F3 05 01 63 6F  ob0[$.........co
01B0: 62 30 5B 24 80 B8 F3 05  01 B8 F3 05 01 63 6F 62  b0[$.........cob
01C0: 30 5C 00 01 80 5C 01 01  80 9A 92 01 F0 FF FF 7F  0\...\..........
01D0: 27 10 96 F3 05 01 05 29  10 F0 FF FF 7F 21 81 00  '......).....!..
01E0: 96 F3 05 01 1C 25 80 45  26 80 F0 FF FF 7F F0 FF  .....%.E&.......
01F0: FF 7F 7A 30 30 30 01 80  1A 5E 77 27 10 F0 FF FF  ..z000...^w'....
0200: 7F 02 1C 27 80 2A 10 F0  FF FF 7F 1C 28 80 03 00  ...'.*......(...
0210: 00 02 10 52 26 80 F0 FF  FF 7F F0 FF FF 7F 7A 30  ...R&.........z0
0220: 30 30 45 26 80 F0 FF FF  7F F0 FF FF 7F 6F 76 34  00E&.........ov4
0230: 30 01 80 45 26 80 F0 FF  FF 7F F0 FF FF 7F 7A 30  0..E&.........z0
0240: 30 31 01 80 1C 29 80 52  26 80 F0 FF FF 7F F0 FF  01...).R&.......
0250: FF 7F 7A 30 30 31 45 26  80 F0 FF FF 7F F0 FF FF  ..z001E&........
0260: 7F 7A 30 30 32 01 80 1C  2A 80 52 26 80 F0 FF FF  .z002...*.R&....
0270: 7F F0 FF FF 7F 7A 30 30  32 45 26 80 F0 FF FF 7F  .....z002E&.....
0280: F0 FF FF 7F 6F 76 36 30  01 80 45 26 80 F0 FF FF  ....ov60..E&....
0290: 7F F0 FF FF 7F 7A 30 30  33 01 80 1C 2B 80 27 10  .....z003...+.'.
02A0: 96 F3 05 01 06 C5 2C 80  F8 FF FF 7F F8 FF FF 7F  ......,.........
02B0: 73 30 30 30 01 80 1C 2D  80 27 10 96 F3 05 01 04  s000...-.'......
02C0: 1C 2B 80 52 26 80 F0 FF  FF 7F F0 FF FF 7F 7A 30  .+.R&.........z0
02D0: 30 33 45 26 80 F0 FF FF  7F F0 FF FF 7F 6F 76 34  03E&.........ov4
02E0: 30 01 80 45 26 80 F0 FF  FF 7F F0 FF FF 7F 7A 30  0..E&.........z0
02F0: 30 34 01 80 2A 10 96 F3  05 01 1C 2E 80 5B 2F 80  04..*........[/.
0300: 96 F3 05 01 96 F3 05 01  73 74 62 30 1C 30 80 52  ........stb0.0.R
0310: 26 80 F0 FF FF 7F F0 FF  FF 7F 7A 30 30 34 45 26  &.........z004E&
0320: 80 F0 FF FF 7F F0 FF FF  7F 7A 30 30 35 01 80 1C  .........z005...
0330: 31 80 92 00 F0 FF FF 7F  27 10 F0 FF FF 7F 22 7C  1.......'....."|
0340: 00 96 F3 05 01 5B 32 80  96 F3 05 01 96 F3 05 01  .....[2.........
0350: 6B 75 6E 30 2B 96 F3 05  01 33 80 1C 34 80 27 10  kun0+....3..4.'.
0360: F0 FF FF 7F 25 1C 35 80  02 00 00 25 80 80 93 03  ....%.5....%....
0370: 52 26 80 F0 FF FF 7F F0  FF FF 7F 7A 30 30 35 45  R&.........z005E
0380: 26 80 F0 FF FF 7F F0 FF  FF 7F 7A 74 30 36 01 80  &.........zt06..
0390: 01 DE 03 02 00 00 36 80  80 BE 03 52 26 80 F0 FF  ......6....R&...
03A0: FF 7F F0 FF FF 7F 7A 30  30 35 45 26 80 F0 FF FF  ......z005E&....
03B0: 7F F0 FF FF 7F 7A 74 30  36 01 80 01 DE 03 52 26  .....zt06.....R&
03C0: 80 F0 FF FF 7F F0 FF FF  7F 7A 30 30 35 45 26 80  .........z005E&.
03D0: F0 FF FF 7F F0 FF FF 7F  7A 30 30 36 01 80 2B 96  ........z006..+.
03E0: F3 05 01 37 80 1C 30 80  2A 10 F0 FF FF 7F 27 10  ...7..0.*.....'.
03F0: F0 FF FF 7F 04 1C 2A 80  23 5B 38 80 96 F3 05 01  ......*.#[8.....
0400: 96 F3 05 01 6B 75 6E 31  1C 39 80 52 26 80 F0 FF  ....kun1.9.R&...
0410: FF 7F F0 FF FF 7F 7A 30  30 36 52 26 80 F0 FF FF  ......z006R&....
0420: 7F F0 FF FF 7F 7A 74 30  36 45 26 80 F0 FF FF 7F  .....zt06E&.....
0430: F0 FF FF 7F 6F 76 34 30  01 80 45 26 80 F0 FF FF  ....ov40..E&....
0440: 7F F0 FF FF 7F 7A 30 30  37 01 80 7C 01 96 F3 05  .....z007..|....
0450: 01 1C 30 80 2B 96 F3 05  01 3A 80 1C 34 80 52 26  ..0.+....:..4.R&
0460: 80 F0 FF FF 7F F0 FF FF  7F 7A 30 30 37 45 26 80  .........z007E&.
0470: F0 FF FF 7F F0 FF FF 7F  6F 76 34 30 01 80 45 26  ........ov40..E&
0480: 80 F0 FF FF 7F F0 FF FF  7F 7A 30 30 38 01 80 C5  .........z008...
0490: 2C 80 F8 FF FF 7F F8 FF  FF 7F 73 30 30 31 01 80  ,.........s001..
04A0: 1C 3B 80 1A 7F 77 1C 39  80 52 26 80 F0 FF FF 7F  .;...w.9.R&.....
04B0: F0 FF FF 7F 7A 30 30 38  C5 2C 80 F8 FF FF 7F F8  ....z008.,......
04C0: FF FF 7F 6B 69 6C 30 01  80 4E 01 F0 FF FF 7F 4E  ...kil0..N.....N
04D0: 01 96 F3 05 01 4E 01 99  F3 05 01 4E 01 AB F3 05  .....N.....N....
04E0: 01 4E 01 AC F3 05 01 4E  01 AD F3 05 01 4E 01 AE  .N.....N.....N..
04F0: F3 05 01 4E 01 AF F3 05  01 4E 01 B0 F3 05 01 1C  ...N.....N......
0500: 28 80 34 3C 80 77 3D 80  28 80 AB 09 1C 28 80 75  (.4<.w=.(....(.u
0510: 00 3E 80 75 01 27 10 9C  F3 05 01 14 27 10 9D F3  .>.u.'......'...
0520: 05 01 0C 27 10 9B F3 05  01 41 27 10 9E F3 05 01  ...'.....A'.....
0530: 0F 92 01 9C F3 05 01 92  01 9D F3 05 01 92 01 9B  ................
0540: F3 05 01 92 01 9E F3 05  01 94 01 9C F3 05 01 94  ................
0550: 01 9D F3 05 01 94 01 9B  F3 05 01 94 01 9E F3 05  ................
0560: 01 BA 9D F3 05 01 3F 80  40 80 41 80 42 80 BA 9C  ......?.@.A.B...
0570: F3 05 01 43 80 44 80 41  80 45 80 BA 9E F3 05 01  ...C.D.A.E......
0580: 46 80 47 80 41 80 48 80  BA 9B F3 05 01 49 80 4A  F.G.A.H......I.J
0590: 80 4B 80 4C 80 80 9C F3  05 01 80 9D F3 05 01 80  .K.L............
05A0: 9B F3 05 01 80 9E F3 05  01 5C 80 4D 80 30 80 5C  .........\.M.0.\
05B0: 81 4D 80 30 80 9A 2C 9E  F3 05 01 9E F3 05 01 6F  .M.0..,........o
05C0: 62 6F 66 59 01 9C F3 05  01 34 80 59 01 9D F3 05  bofY.....4.Y....
05D0: 01 34 80 59 01 9E F3 05  01 34 80 1C 22 80 45 26  .4.Y.....4..".E&
05E0: 80 F0 FF FF 7F F0 FF FF  7F 79 30 30 30 01 80 1A  .........y000...
05F0: 5E 77 1C 2A 80 27 10 9C  F3 05 01 03 1C 2E 80 27  ^w.*.'.........'
0600: 10 9D F3 05 01 02 52 26  80 F0 FF FF 7F F0 FF FF  ......R&........
0610: 7F 79 30 30 30 45 26 80  F0 FF FF 7F F0 FF FF 7F  .y000E&.........
0620: 79 30 30 31 01 80 1C 30  80 27 10 9E F3 05 01 08  y001...0.'......
0630: 1C 34 80 52 26 80 F0 FF  FF 7F F0 FF FF 7F 79 30  .4.R&.........y0
0640: 30 31 45 26 80 F0 FF FF  7F F0 FF FF 7F 79 30 30  01E&.........y00
0650: 32 01 80 1C 27 80 52 26  80 F0 FF FF 7F F0 FF FF  2...'.R&........
0660: 7F 79 30 30 32 45 26 80  F0 FF FF 7F F0 FF FF 7F  .y002E&.........
0670: 79 30 30 33 01 80 2B 9E  F3 05 01 4E 80 23 2A 10  y003..+....N.#*.
0680: 9D F3 05 01 2A 10 9C F3  05 01 2A 10 9E F3 05 01  ....*.....*.....
0690: 1C 39 80 2B 9D F3 05 01  4F 80 23 1C 39 80 52 26  .9.+....O.#.9.R&
06A0: 80 F0 FF FF 7F F0 FF FF  7F 79 30 30 33 45 26 80  .........y003E&.
06B0: F0 FF FF 7F F0 FF FF 7F  79 30 30 35 01 80 2B 9D  ........y005..+.
06C0: F3 05 01 50 80 23 7C 00  9E F3 05 01 81 00 9E F3  ...P.#|.........
06D0: 05 01 5B 29 80 9E F3 05  01 9E F3 05 01 74 6C 63  ..[).........tlc
06E0: 30 2B 9E F3 05 01 51 80  23 7C 01 9E F3 05 01 52  0+....Q.#|.....R
06F0: 26 80 F0 FF FF 7F F0 FF  FF 7F 79 30 30 35 45 26  &.........y005E&
0700: 80 F0 FF FF 7F F0 FF FF  7F 79 30 30 36 01 80 7B  .........y006..{
0710: 9C F3 05 01 4B 9C F3 05  01 02 80 1C 2B 80 2B 9C  ....K.......+.+.
0720: F3 05 01 52 80 1C 2B 80  4A 9D F3 05 01 9C F3 05  ...R..+.J.......
0730: 01 23 6F 76 9C F3 05 01  27 10 9C F3 05 01 04 1C  .#ov....'.......
0740: 53 80 1A 7F 77 1C 39 80  52 26 80 F0 FF FF 7F F0  S...w.9.R&......
0750: FF FF 7F 79 30 30 34 7A  00 9C F3 05 01 1C 28 80  ...y004z......(.
0760: 75 00 54 80 75 01 1C 28  80 BA 9C F3 05 01 2D 80  u.T.u..(......-.
0770: 55 80 4B 80 56 80 45 26  80 F0 FF FF 7F F0 FF FF  U.K.V.E&........
0780: 7F 78 30 30 30 01 80 27  10 9F F3 05 01 01 1A 5E  .x000..'.......^
0790: 77 1C 2E 80 27 10 9C F3  05 01 05 1C 57 80 52 26  w...'.......W.R&
07A0: 80 F0 FF FF 7F F0 FF FF  7F 78 30 30 30 45 26 80  .........x000E&.
07B0: F0 FF FF 7F F0 FF FF 7F  78 30 30 31 01 80 1C 28  ........x001...(
07C0: 80 BA 9C F3 05 01 58 80  59 80 4B 80 56 80 27 10  ......X.Y.K.V.'.
07D0: 9F F3 05 01 02 1C 30 80  2B 9B F3 05 01 5A 80 23  ......0.+....Z.#
07E0: 2A 10 9C F3 05 01 1C 39  80 2B 9C F3 05 01 5B 80  *......9.+....[.
07F0: 23 27 10 9B F3 05 01 1D  1C 5C 80 52 26 80 F0 FF  #'.......\.R&...
0800: FF 7F F0 FF FF 7F 78 30  30 31 45 26 80 F0 FF FF  ......x001E&....
0810: 7F F0 FF FF 7F 78 30 30  32 01 80 2A 10 9B F3 05  .....x002..*....
0820: 01 5B 5D 80 9B F3 05 01  9B F3 05 01 74 6C 61 30  .[].........tla0
0830: 2B 9B F3 05 01 5E 80 23  5B 5D 80 9B F3 05 01 9B  +....^.#[]......
0840: F3 05 01 74 6C 61 31 5B  5F 80 9C F3 05 01 9C F3  ...tla1[_.......
0850: 05 01 67 75 64 30 2B 9C  F3 05 01 60 80 23 52 26  ..gud0+....`.#R&
0860: 80 F0 FF FF 7F F0 FF FF  7F 78 30 30 32 45 26 80  .........x002E&.
0870: F0 FF FF 7F F0 FF FF 7F  78 30 30 35 01 80 2B 9C  ........x005..+.
0880: F3 05 01 61 80 1C 30 80  53 9C F3 05 01 9C F3 05  ...a..0.S.......
0890: 01 67 75 64 30 5B 5F 80  9C F3 05 01 9C F3 05 01  .gud0[_.........
08A0: 67 75 64 31 53 9C F3 05  01 9C F3 05 01 67 75 64  gud1S........gud
08B0: 31 27 10 9C F3 05 01 06  1C 62 80 52 26 80 F0 FF  1'.......b.R&...
08C0: FF 7F F0 FF FF 7F 78 30  30 35 45 26 80 F0 FF FF  ......x005E&....
08D0: 7F F0 FF FF 7F 78 30 30  33 01 80 1C 39 80 27 10  .....x003...9.'.
08E0: 9B F3 05 01 1E 1C 27 80  52 26 80 F0 FF FF 7F F0  ......'.R&......
08F0: FF FF 7F 78 30 30 33 45  26 80 F0 FF FF 7F F0 FF  ...x003E&.......
0900: FF 7F 78 30 30 34 01 80  1C 63 80 1A 7F 77 1C 39  ..x004...c...w.9
0910: 80 52 26 80 F0 FF FF 7F  F0 FF FF 7F 78 30 30 34  .R&.........x004
0920: 7A 00 9C F3 05 01 7A 00  9B F3 05 01 1C 28 80 75  z.....z......(.u
0930: 00 3E 80 75 01 6B 69 64  6C 30 9E F3 05 01 81 01  .>.u.kidl0......
0940: 9E F3 05 01 7C 01 9E F3  05 01 BA 9E F3 05 01 64  ....|..........d
0950: 80 65 80 66 80 01 80 BA  9D F3 05 01 67 80 68 80  .e.f........g.h.
0960: 66 80 01 80 27 10 9D F3  05 01 05 7B 9E F3 05 01  f...'......{....
0970: 7B 9D F3 05 01 81 00 9D  F3 05 01 5B 69 80 9D F3  {..........[i...
0980: 05 01 9D F3 05 01 6C 6F  76 6C 27 10 9E F3 05 01  ......lovl'.....
0990: 09 45 26 80 F0 FF FF 7F  F0 FF FF 7F 77 30 30 30  .E&.........w000
09A0: 01 80 1C 25 80 1A 5E 77  1C 2B 80 2B 9E F3 05 01  ...%..^w.+.+....
09B0: 6A 80 1C 35 80 52 26 80  F0 FF FF 7F F0 FF FF 7F  j..5.R&.........
09C0: 77 30 30 30 45 26 80 F0  FF FF 7F F0 FF FF 7F 77  w000E&.........w
09D0: 31 30 30 01 80 23 2A 10  9E F3 05 01 2B 9D F3 05  100..#*.....+...
09E0: 01 6B 80 23 52 26 80 F0  FF FF 7F F0 FF FF 7F 77  .k.#R&.........w
09F0: 31 30 30 45 26 80 F0 FF  FF 7F F0 FF FF 7F 77 30  100E&.........w0
0A00: 30 31 01 80 BA 9E F3 05  01 67 80 68 80 66 80 01  01.......g.h.f..
0A10: 80 2B 9D F3 05 01 6C 80  23 81 00 9E F3 05 01 C5  .+....l.#.......
0A20: 6D 80 9E F3 05 01 9E F3  05 01 73 30 30 30 01 80  m.........s000..
0A30: 5B 6E 80 9E F3 05 01 9E  F3 05 01 6C 6F 76 30 52  [n.........lov0R
0A40: 26 80 F0 FF FF 7F F0 FF  FF 7F 77 30 30 31 45 26  &.........w001E&
0A50: 80 F0 FF FF 7F F0 FF FF  7F 77 30 30 32 01 80 2B  .........w002..+
0A60: 9E F3 05 01 6F 80 23 52  26 80 F0 FF FF 7F F0 FF  ....o.#R&.......
0A70: FF 7F 77 30 30 32 45 26  80 F0 FF FF 7F F0 FF FF  ..w002E&........
0A80: 7F 77 30 30 33 01 80 2B  9E F3 05 01 70 80 1C 53  .w003..+....p..S
0A90: 80 52 26 80 F0 FF FF 7F  F0 FF FF 7F 77 30 30 33  .R&.........w003
0AA0: 45 26 80 F0 FF FF 7F F0  FF FF 7F 77 30 30 34 01  E&.........w004.
0AB0: 80 1C 53 80 5B 69 80 9D  F3 05 01 9D F3 05 01 6C  ..S.[i.........l
0AC0: 6F 76 30 1C 2B 80 52 26  80 F0 FF FF 7F F0 FF FF  ov0.+.R&........
0AD0: 7F 77 30 30 34 45 26 80  F0 FF FF 7F F0 FF FF 7F  .w004E&.........
0AE0: 77 31 30 34 01 80 1C 28  80 27 10 9E F3 05 01 0A  w104...(.'......
0AF0: 1C 71 80 2B 9D F3 05 01  72 80 1C 30 80 23 52 26  .q.+....r..0.#R&
0B00: 80 F0 FF FF 7F F0 FF FF  7F 77 31 30 34 45 26 80  .........w104E&.
0B10: F0 FF FF 7F F0 FF FF 7F  77 30 30 37 01 80 1C 28  ........w007...(
0B20: 80 27 10 9E F3 05 01 0B  1C 30 80 2B 9D F3 05 01  .'.......0.+....
0B30: 73 80 1C 74 80 23 52 26  80 F0 FF FF 7F F0 FF FF  s..t.#R&........
0B40: 7F 77 30 30 37 45 26 80  F0 FF FF 7F F0 FF FF 7F  .w007E&.........
0B50: 77 30 30 38 01 80 1C 2A  80 C5 6D 80 9E F3 05 01  w008...*..m.....
0B60: 9E F3 05 01 6E 61 6D 32  01 80 1C 75 80 52 26 80  ....nam2...u.R&.
0B70: F0 FF FF 7F F0 FF FF 7F  77 30 30 38 45 26 80 F0  ........w008E&..
0B80: FF FF 7F F0 FF FF 7F 77  30 30 35 01 80 1C 2B 80  .......w005...+.
0B90: 1C 2B 80 7C 00 9E F3 05  01 C5 6D 80 9E F3 05 01  .+.|......m.....
0BA0: 9E F3 05 01 73 30 30 31  01 80 5B 6E 80 9E F3 05  ....s001..[n....
0BB0: 01 9E F3 05 01 6C 6F 76  31 1C 2B 80 2B 9E F3 05  .....lov1.+.+...
0BC0: 01 76 80 1C 2A 80 52 26  80 F0 FF FF 7F F0 FF FF  .v..*.R&........
0BD0: 7F 77 30 30 35 45 26 80  F0 FF FF 7F F0 FF FF 7F  .w005E&.........
0BE0: 77 30 30 36 01 80 1C 77  80 5B 69 80 9D F3 05 01  w006...w.[i.....
0BF0: 9D F3 05 01 6C 6F 76 31  52 26 80 F0 FF FF 7F F0  ....lov1R&......
0C00: FF FF 7F 77 30 30 36 45  26 80 F0 FF FF 7F F0 FF  ...w006E&.......
0C10: FF 7F 77 30 30 39 01 80  1C 75 80 2B 9D F3 05 01  ..w009...u.+....
0C20: 78 80 23 2B 9D F3 05 01  79 80 23 C5 6D 80 9E F3  x.#+....y.#.m...
0C30: 05 01 9E F3 05 01 73 30  30 32 01 80 5B 6E 80 9E  ......s002..[n..
0C40: F3 05 01 9E F3 05 01 6C  6F 76 32 03 02 10 7A 80  .......lov2...z.
0C50: 27 10 9B F3 05 01 27 1C  2B 80 52 26 80 F0 FF FF  '.....'.+.R&....
0C60: 7F F0 FF FF 7F 77 30 30  39 45 26 80 F0 FF FF 7F  .....w009E&.....
0C70: F0 FF FF 7F 77 30 31 30  01 80 1C 5C 80 2B 9E F3  ....w010...\.+..
0C80: 05 01 7B 80 1C 53 80 52  26 80 F0 FF FF 7F F0 FF  ..{..S.R&.......
0C90: FF 7F 77 30 31 30 45 26  80 F0 FF FF 7F F0 FF FF  ..w010E&........
0CA0: 7F 77 30 31 31 01 80 1C  53 80 2A 10 9B F3 05 01  .w011...S.*.....
0CB0: 1C 7C 80 23 52 26 80 F0  FF FF 7F F0 FF FF 7F 77  .|.#R&.........w
0CC0: 30 31 31 45 26 80 F0 FF  FF 7F F0 FF FF 7F 77 30  011E&.........w0
0CD0: 31 32 01 80 1C 75 80 5B  69 80 9D F3 05 01 9D F3  12...u.[i.......
0CE0: 05 01 6C 6F 76 32 1C 7D  80 52 26 80 F0 FF FF 7F  ..lov2.}.R&.....
0CF0: F0 FF FF 7F 77 30 31 32  45 26 80 F0 FF FF 7F F0  ....w012E&......
0D00: FF FF 7F 77 30 31 33 01  80 1C 62 80 C5 6D 80 9E  ...w013...b..m..
0D10: F3 05 01 9E F3 05 01 6E  61 6D 33 01 80 1C 62 80  .......nam3...b.
0D20: 2B 9D F3 05 01 7E 80 23  1C 7D 80 C5 6D 80 9E F3  +....~.#.}..m...
0D30: 05 01 9E F3 05 01 73 30  30 33 01 80 5B 6E 80 9E  ......s003..[n..
0D40: F3 05 01 9E F3 05 01 6C  6F 76 33 5B 69 80 9D F3  .......lov3[i...
0D50: 05 01 9D F3 05 01 6C 6F  76 33 03 02 10 7F 80 27  ......lov3.....'
0D60: 10 9B F3 05 01 27 1C 2A  80 52 26 80 F0 FF FF 7F  .....'.*.R&.....
0D70: F0 FF FF 7F 77 30 31 33  45 26 80 F0 FF FF 7F F0  ....w013E&......
0D80: FF FF 7F 77 30 31 34 01  80 1C 80 80 7C 01 9E F3  ...w014.....|...
0D90: 05 01 1C 30 80 52 26 80  F0 FF FF 7F F0 FF FF 7F  ...0.R&.........
0DA0: 77 30 31 34 45 26 80 F0  FF FF 7F F0 FF FF 7F 77  w014E&.........w
0DB0: 30 31 35 01 80 1C 30 80  2B 9E F3 05 01 81 80 1C  015...0.+.......
0DC0: 2B 80 1C 75 80 23 2A 10  9B F3 05 01 C5 6D 80 9E  +..u.#*......m..
0DD0: F3 05 01 9E F3 05 01 73  30 30 34 01 80 5B 6E 80  .......s004..[n.
0DE0: 9E F3 05 01 9E F3 05 01  6C 6F 76 34 5B 69 80 9D  ........lov4[i..
0DF0: F3 05 01 9D F3 05 01 6C  6F 76 34 1C 34 80 52 26  .......lov4.4.R&
0E00: 80 F0 FF FF 7F F0 FF FF  7F 77 30 31 35 45 26 80  .........w015E&.
0E10: F0 FF FF 7F F0 FF FF 7F  77 30 31 36 01 80 1C 2B  ........w016...+
0E20: 80 2B 9E F3 05 01 82 80  1C 2A 80 52 26 80 F0 FF  .+.......*.R&...
0E30: FF 7F F0 FF FF 7F 77 30  31 36 45 26 80 F0 FF FF  ......w016E&....
0E40: 7F F0 FF FF 7F 77 31 31  35 01 80 1C 7D 80 C5 6D  .....w115...}..m
0E50: 80 9E F3 05 01 9E F3 05  01 73 30 30 35 01 80 5B  .........s005..[
0E60: 6E 80 9E F3 05 01 9E F3  05 01 6C 6F 76 35 5B 69  n.........lov5[i
0E70: 80 9D F3 05 01 9D F3 05  01 6C 6F 76 35 1C 2A 80  .........lov5.*.
0E80: 52 26 80 F0 FF FF 7F F0  FF FF 7F 77 31 31 35 45  R&.........w115E
0E90: 26 80 F0 FF FF 7F F0 FF  FF 7F 77 30 31 39 01 80  &.........w019..
0EA0: 2B 9E F3 05 01 83 80 1C  31 80 52 26 80 F0 FF FF  +.......1.R&....
0EB0: 7F F0 FF FF 7F 77 30 31  39 45 26 80 F0 FF FF 7F  .....w019E&.....
0EC0: F0 FF FF 7F 77 30 31 38  01 80 1C 84 80 52 26 80  ....w018.....R&.
0ED0: F0 FF FF 7F F0 FF FF 7F  77 30 31 38 45 26 80 F0  ........w018E&..
0EE0: FF FF 7F F0 FF FF 7F 77  30 31 37 01 80 1C 63 80  .......w017...c.
0EF0: 52 26 80 F0 FF FF 7F F0  FF FF 7F 77 30 31 37 45  R&.........w017E
0F00: 26 80 F0 FF FF 7F F0 FF  FF 7F 77 30 32 32 01 80  &.........w022..
0F10: 1C 39 80 C5 6D 80 9E F3  05 01 9E F3 05 01 6E 61  .9..m.........na
0F20: 6D 32 01 80 1C 7D 80 2B  9D F3 05 01 85 80 1C 7D  m2...}.+.......}
0F30: 80 23 52 26 80 F0 FF FF  7F F0 FF FF 7F 77 30 32  .#R&.........w02
0F40: 32 45 26 80 F0 FF FF 7F  F0 FF FF 7F 77 30 32 31  2E&.........w021
0F50: 01 80 2B 9D F3 05 01 86  80 1C 75 80 5D 87 80 80  ..+.......u.]...
0F60: 80 1C 7D 80 52 26 80 F0  FF FF 7F F0 FF FF 7F 77  ..}.R&.........w
0F70: 30 32 31 45 26 80 F0 FF  FF 7F F0 FF FF 7F 77 30  021E&.........w0
0F80: 32 30 01 80 1C 3B 80 1A  7F 77 5D 01 80 80 80 1C  20...;...w].....
0F90: 39 80 52 26 80 F0 FF FF  7F F0 FF FF 7F 77 30 32  9.R&.........w02
0FA0: 30 C5 6D 80 9E F3 05 01  9E F3 05 01 6B 69 6C 6C  0.m.........kill
0FB0: 01 80 1C 88 80 2C 9E F3  05 01 9E F3 05 01 6F 62  .....,........ob
0FC0: 6F 6E 4E 01 F0 FF FF 7F  4E 01 9E F3 05 01 4E 01  onN.....N.....N.
0FD0: 9D F3 05 01 1C 28 80 34  89 80 77 3D 80 28 80 AB  .....(.4..w=.(..
0FE0: 09 1C 28 80 5D 01 80 02  80 27 10 A1 F3 05 01 0C  ..(.]....'......
0FF0: 27 10 9A F3 05 01 06 27  10 A0 F3 05 01 13 27 10  '......'......'.
1000: A3 F3 05 01 05 27 10 9C  F3 05 01 14 27 10 9B F3  .....'......'...
1010: 05 01 41 27 10 B9 F3 05  01 38 27 10 BA F3 05 01  ..A'.....8'.....
1020: 39 27 10 BB F3 05 01 30  27 10 BC F3 05 01 30 27  9'.....0'.....0'
1030: 10 BD F3 05 01 30 27 10  BE F3 05 01 30 27 10 A5  .....0'.....0'..
1040: F3 05 01 0F 27 10 A6 F3  05 01 08 27 10 A7 F3 05  ....'......'....
1050: 01 08 27 10 A8 F3 05 01  08 92 01 A1 F3 05 01 92  ..'.............
1060: 01 9A F3 05 01 92 01 A0  F3 05 01 92 01 A3 F3 05  ................
1070: 01 92 01 9C F3 05 01 92  01 9B F3 05 01 92 01 B9  ................
1080: F3 05 01 92 01 BA F3 05  01 92 01 BB F3 05 01 92  ................
1090: 01 BC F3 05 01 92 01 BD  F3 05 01 92 01 BE F3 05  ................
10A0: 01 92 01 A5 F3 05 01 92  01 A6 F3 05 01 92 01 A7  ................
10B0: F3 05 01 92 01 A8 F3 05  01 94 01 A1 F3 05 01 94  ................
10C0: 01 9A F3 05 01 94 01 A0  F3 05 01 94 01 A3 F3 05  ................
10D0: 01 94 01 9C F3 05 01 94  01 9B F3 05 01 94 01 B9  ................
10E0: F3 05 01 94 01 BA F3 05  01 94 01 BB F3 05 01 94  ................
10F0: 01 BC F3 05 01 94 01 BD  F3 05 01 94 01 BE F3 05  ................
1100: 01 94 01 A5 F3 05 01 94  01 A6 F3 05 01 94 01 A7  ................
1110: F3 05 01 94 01 A8 F3 05  01 59 05 9B F3 05 01 01  .........Y......
1120: 59 05 9A F3 05 01 01 BA  A1 F3 05 01 8A 80 8B 80  Y...............
1130: 8C 80 8D 80 BA A3 F3 05  01 8E 80 8F 80 8C 80 90  ................
1140: 80 BA A0 F3 05 01 91 80  92 80 93 80 94 80 BA 9B  ................
1150: F3 05 01 95 80 96 80 97  80 98 80 BA 9A F3 05 01  ................
1160: 99 80 9A 80 9B 80 9C 80  BA 9C F3 05 01 9D 80 9E  ................
1170: 80 9F 80 A0 80 BA B9 F3  05 01 A1 80 A2 80 A3 80  ................
1180: 11 80 BA BA F3 05 01 A4  80 A5 80 A6 80 11 80 BA  ................
1190: BB F3 05 01 A7 80 A8 80  A9 80 11 80 BA BC F3 05  ................
11A0: 01 AA 80 AB 80 AC 80 11  80 BA BD F3 05 01 AD 80  ................
11B0: AE 80 AF 80 B0 80 BA BE  F3 05 01 B1 80 B2 80 B3  ................
11C0: 80 B4 80 BA A5 F3 05 01  B5 80 B6 80 B7 80 11 80  ................
11D0: BA A6 F3 05 01 B8 80 B9  80 BA 80 11 80 BA A7 F3  ................
11E0: 05 01 BB 80 BC 80 BD 80  11 80 BA A8 F3 05 01 BE  ................
11F0: 80 BF 80 C0 80 11 80 80  9C F3 05 01 80 9B F3 05  ................
1200: 01 80 A1 F3 05 01 80 9A  F3 05 01 80 A0 F3 05 01  ................
1210: 80 A3 F3 05 01 80 B9 F3  05 01 80 BA F3 05 01 80  ................
1220: BB F3 05 01 80 BC F3 05  01 80 BD F3 05 01 80 BE  ................
1230: F3 05 01 80 A5 F3 05 01  80 A6 F3 05 01 80 A7 F3  ................
1240: 05 01 80 A8 F3 05 01 27  10 9B F3 05 01 25 27 10  .......'.....%'.
1250: 9C F3 05 01 09 27 10 BC  F3 05 01 11 27 10 BD F3  .....'......'...
1260: 05 01 12 27 10 BE F3 05  01 13 1C 22 80 27 10 A0  ...'.......".'..
1270: F3 05 01 09 27 10 A1 F3  05 01 04 80 BC F3 05 01  ....'...........
1280: 80 BD F3 05 01 80 BE F3  05 01 80 9B F3 05 01 80  ................
1290: 9C F3 05 01 1C 22 80 5B  C1 80 9B F3 05 01 9B F3  .....".[........
12A0: 05 01 74 65 65 30 5B C2  80 9A F3 05 01 9A F3 05  ..tee0[.........
12B0: 01 68 69 6C 31 5B C3 80  9C F3 05 01 9C F3 05 01  .hil1[..........
12C0: 32 73 74 30 5B C4 80 B9  F3 05 01 B9 F3 05 01 6E  2st0[..........n
12D0: 79 61 30 5B C4 80 BA F3  05 01 BA F3 05 01 6E 79  ya0[..........ny
12E0: 61 30 5B C4 80 BB F3 05  01 BB F3 05 01 6E 79 61  a0[..........nya
12F0: 30 5B C4 80 BC F3 05 01  BC F3 05 01 6E 79 61 30  0[..........nya0
1300: 5B C4 80 BD F3 05 01 BD  F3 05 01 6E 79 61 30 5B  [..........nya0[
1310: C4 80 BE F3 05 01 BE F3  05 01 6E 79 61 30 1C 25  ..........nya0.%
1320: 80 5C 00 C5 80 5C 01 C5  80 9A 27 10 A5 F3 05 01  .\...\....'.....
1330: 04 27 10 A6 F3 05 01 04  27 10 A7 F3 05 01 04 27  .'......'......'
1340: 10 A8 F3 05 01 04 1C 28  80 45 26 80 F0 FF FF 7F  .......(.E&.....
1350: F0 FF FF 7F 76 30 30 31  01 80 1A 5E 77 1C C6 80  ....v001...^w...
1360: 52 26 80 F0 FF FF 7F F0  FF FF 7F 76 30 30 31 45  R&.........v001E
1370: 26 80 F0 FF FF 7F F0 FF  FF 7F 76 30 30 30 01 80  &.........v000..
1380: 2A 10 A5 F3 05 01 2A 10  A6 F3 05 01 2A 10 A7 F3  *.....*.....*...
1390: 05 01 2A 10 A8 F3 05 01  1C 53 80 52 26 80 F0 FF  ..*......S.R&...
13A0: FF 7F F0 FF FF 7F 76 30  30 30 45 26 80 F0 FF FF  ......v000E&....
13B0: 7F F0 FF FF 7F 76 30 30  32 01 80 1C 31 80 BA B9  .....v002...1...
13C0: F3 05 01 C7 80 C8 80 C9  80 B0 80 BA BA F3 05 01  ................
13D0: CA 80 CB 80 CC 80 B4 80  BA BB F3 05 01 CD 80 CE  ................
13E0: 80 CF 80 B0 80 BA BC F3  05 01 D0 80 D1 80 D2 80  ................
13F0: B0 80 BA BD F3 05 01 AD  80 AE 80 AF 80 B0 80 BA  ................
1400: BE F3 05 01 B1 80 B2 80  B3 80 B4 80 7A 00 A5 F3  ............z...
1410: 05 01 7A 00 A6 F3 05 01  7A 00 A7 F3 05 01 7A 00  ..z.....z.....z.
1420: A8 F3 05 01 1C 28 80 6B  69 64 6C 30 A5 F3 05 01  .....(.kidl0....
1430: 6B 69 64 6C 30 A6 F3 05  01 6B 69 64 6C 30 A7 F3  kidl0....kidl0..
1440: 05 01 6B 69 64 6C 30 A8  F3 05 01 1C 28 80 BA A5  ..kidl0.....(...
1450: F3 05 01 D3 80 D4 80 8C  80 D5 80 BA A6 F3 05 01  ................
1460: D3 80 D4 80 8C 80 D5 80  BA A7 F3 05 01 D3 80 D4  ................
1470: 80 8C 80 D5 80 BA A8 F3  05 01 D3 80 D4 80 8C 80  ................
1480: D5 80 1C 31 80 52 26 80  F0 FF FF 7F F0 FF FF 7F  ...1.R&.........
1490: 76 30 30 32 45 26 80 F0  FF FF 7F F0 FF FF 7F 76  v002E&.........v
14A0: 30 30 33 01 80 1C 34 80  6B 69 64 6C 30 9B F3 05  003...4.kidl0...
14B0: 01 1C 2E 80 BA 9B F3 05  01 D6 80 D7 80 D8 80 D9  ................
14C0: 80 27 10 9B F3 05 01 03  1C 31 80 52 26 80 F0 FF  .'.......1.R&...
14D0: FF 7F F0 FF FF 7F 76 30  30 33 45 26 80 F0 FF FF  ......v003E&....
14E0: 7F F0 FF FF 7F 76 30 30  34 01 80 1C 2E 80 BA BA  .....v004.......
14F0: F3 05 01 DA 80 DB 80 DC  80 B0 80 BA BB F3 05 01  ................
1500: DD 80 DE 80 8C 80 B0 80  BA BC F3 05 01 DF 80 E0  ................
1510: 80 8C 80 E1 80 BA BD F3  05 01 E2 80 E3 80 8C 80  ................
1520: E1 80 80 9B F3 05 01 1C  2E 80 27 10 BC F3 05 01  ..........'.....
1530: 0C 27 10 BD F3 05 01 0D  27 10 BE F3 05 01 0E 03  .'......'.......
1540: 02 10 53 80 27 10 9B F3  05 01 27 80 BC F3 05 01  ..S.'.....'.....
1550: 80 BD F3 05 01 80 BE F3  05 01 5B E4 80 9B F3 05  ..........[.....
1560: 01 9B F3 05 01 66 63 30  30 27 10 BC F3 05 01 0F  .....fc00'......
1570: 27 10 BD F3 05 01 0F 27  10 BE F3 05 01 0F 80 BC  '......'........
1580: F3 05 01 80 BD F3 05 01  80 BE F3 05 01 2A 10 9B  .............*..
1590: F3 05 01 27 10 BA F3 05  01 10 1C 22 80 27 10 BB  ...'.......".'..
15A0: F3 05 01 08 1C 25 80 52  26 80 F0 FF FF 7F F0 FF  .....%.R&.......
15B0: FF 7F 76 30 30 34 45 26  80 F0 FF FF 7F F0 FF FF  ..v004E&........
15C0: 7F 76 30 30 35 01 80 1C  25 80 6B 69 64 6C 30 9C  .v005...%.kidl0.
15D0: F3 05 01 27 10 9C F3 05  01 0A 1C E5 80 80 9C F3  ...'............
15E0: 05 01 27 10 A5 F3 05 01  03 27 10 A6 F3 05 01 03  ..'......'......
15F0: 27 10 A7 F3 05 01 03 27  10 A8 F3 05 01 03 1C 75  '......'.......u
1600: 80 52 26 80 F0 FF FF 7F  F0 FF FF 7F 76 30 30 35  .R&.........v005
1610: 45 26 80 F0 FF FF 7F F0  FF FF 7F 76 31 30 35 01  E&.........v105.
1620: 80 7A 00 BA F3 05 01 7A  00 BB F3 05 01 4E 01 BB  .z.....z.....N..
1630: F3 05 01 BA BA F3 05 01  E6 80 E7 80 8C 80 B0 80  ................
1640: BA BC F3 05 01 E8 80 E9  80 8C 80 EA 80 BA BD F3  ................
1650: 05 01 E8 80 E9 80 8C 80  EA 80 BA BE F3 05 01 EB  ................
1660: 80 EC 80 8C 80 EA 80 BA  9C F3 05 01 ED 80 EE 80  ................
1670: EF 80 F0 80 5B 5F 80 9C  F3 05 01 9C F3 05 01 67  ....[_.........g
1680: 65 6E 30 1C C6 80 27 10  BC F3 05 01 14 27 10 BD  en0...'......'..
1690: F3 05 01 15 27 10 BE F3  05 01 16 1C 2B 80 5B 5F  ....'.......+.[_
16A0: 80 A3 F3 05 01 A3 F3 05  01 67 61 68 32 52 26 80  .........gah2R&.
16B0: F0 FF FF 7F F0 FF FF 7F  76 31 30 35 45 26 80 F0  ........v105E&..
16C0: FF FF 7F F0 FF FF 7F 76  31 30 36 01 80 27 10 A1  .......v106..'..
16D0: F3 05 01 05 1C F1 80 27  10 A1 F3 05 01 02 27 10  .......'......'.
16E0: BA F3 05 01 12 1C 25 80  52 26 80 F0 FF FF 7F F0  ......%.R&......
16F0: FF FF 7F 76 31 30 36 45  26 80 F0 FF FF 7F F0 FF  ...v106E&.......
1700: FF 7F 76 31 30 37 01 80  1C C6 80 27 10 9B F3 05  ..v107.....'....
1710: 01 1F 1C 30 80 52 26 80  F0 FF FF 7F F0 FF FF 7F  ...0.R&.........
1720: 76 31 30 37 45 26 80 F0  FF FF 7F F0 FF FF 7F 76  v107E&.........v
1730: 31 30 38 01 80 4E 00 BB  F3 05 01 1C 28 80 7A 00  108..N......(.z.
1740: BA F3 05 01 BA BB F3 05  01 F2 80 F3 80 8C 80 F4  ................
1750: 80 BA BA F3 05 01 F5 80  F6 80 F7 80 B0 80 1C 28  ...............(
1760: 80 4B A3 F3 05 01 F8 80  7A 00 A1 F3 05 01 7A 00  .K......z.....z.
1770: A5 F3 05 01 7A 00 A6 F3  05 01 7A 00 A7 F3 05 01  ....z.....z.....
1780: 7A 00 A8 F3 05 01 7A 00  BC F3 05 01 7A 00 BD F3  z.....z.....z...
1790: 05 01 7A 00 BE F3 05 01  1C 28 80 BA A1 F3 05 01  ..z......(......
17A0: F9 80 FA 80 8C 80 B0 80  BA A5 F3 05 01 FB 80 FC  ................
17B0: 80 A6 80 FD 80 BA A6 F3  05 01 FE 80 FF 80 00 81  ................
17C0: FD 80 BA A7 F3 05 01 01  81 02 81 03 81 FD 80 BA  ................
17D0: A8 F3 05 01 04 81 05 81  06 81 FD 80 BA BC F3 05  ................
17E0: 01 DF 80 E0 80 8C 80 E1  80 BA BD F3 05 01 E2 80  ................
17F0: E3 80 8C 80 E1 80 BA BE  F3 05 01 07 81 08 81 09  ................
1800: 81 0A 81 27 10 A0 F3 05  01 0A 2A 10 9B F3 05 01  ...'......*.....
1810: 4B 9B F3 05 01 45 80 1C  0B 81 27 10 BB F3 05 01  K....E....'.....
1820: 0A 1C 2E 80 27 10 BA F3  05 01 14 1C 22 80 52 26  ....'.......".R&
1830: 80 F0 FF FF 7F F0 FF FF  7F 76 31 30 38 45 26 80  .........v108E&.
1840: F0 FF FF 7F F0 FF FF 7F  76 30 30 36 01 80 1C 80  ........v006....
1850: 80 27 10 A0 F3 05 01 07  1C 39 80 52 26 80 F0 FF  .'.......9.R&...
1860: FF 7F F0 FF FF 7F 76 30  30 36 45 26 80 F0 FF FF  ......v006E&....
1870: 7F F0 FF FF 7F 76 31 30  39 01 80 BA BC F3 05 01  .....v109.......
1880: 0C 81 0D 81 8C 80 62 80  BA BD F3 05 01 0E 81 0F  ......b.........
1890: 81 8C 80 62 80 1C 75 80  52 26 80 F0 FF FF 7F F0  ...b..u.R&......
18A0: FF FF 7F 76 31 30 39 45  26 80 F0 FF FF 7F F0 FF  ...v109E&.......
18B0: FF 7F 76 30 30 37 01 80  7A 00 BA F3 05 01 7A 00  ..v007..z.....z.
18C0: BB F3 05 01 4E 01 BA F3  05 01 4E 01 BB F3 05 01  ....N.....N.....
18D0: 4E 01 A3 F3 05 01 79 00  A1 F3 05 01 A0 F3 05 01  N.....y.........
18E0: 1C 5C 80 4B A1 F3 05 01  10 81 1C 0B 81 4B A1 F3  .\.K.........K..
18F0: 05 01 11 81 1C 0B 81 52  26 80 F0 FF FF 7F F0 FF  .......R&.......
1900: FF 7F 76 30 30 37 45 26  80 F0 FF FF 7F F0 FF FF  ..v007E&........
1910: 7F 76 30 30 38 01 80 7A  00 A0 F3 05 01 BA A0 F3  .v008..z........
1920: 05 01 12 81 13 81 A6 80  14 81 1C 28 80 29 10 A0  ...........(.)..
1930: F3 05 01 08 BA A1 F3 05  01 15 81 16 81 8C 80 14  ................
1940: 81 BA BC F3 05 01 DF 80  E0 80 8C 80 E1 80 BA BE  ................
1950: F3 05 01 E2 80 E3 80 8C  80 E1 80 1C 39 80 4A A1  ............9.J.
1960: F3 05 01 A0 F3 05 01 4A  A0 F3 05 01 9C F3 05 01  .......J........
1970: 6F 76 A0 F3 05 01 1C 39  80 5B 17 81 A0 F3 05 01  ov.....9.[......
1980: A0 F3 05 01 74 6C 6B 30  52 26 80 F0 FF FF 7F F0  ....tlk0R&......
1990: FF FF 7F 76 30 30 38 45  26 80 F0 FF FF 7F F0 FF  ...v008E&.......
19A0: FF 7F 76 30 30 39 01 80  2B A0 F3 05 01 18 81 1C  ..v009..+.......
19B0: 30 80 23 4E 00 A3 F3 05  01 52 26 80 F0 FF FF 7F  0.#N.....R&.....
19C0: F0 FF FF 7F 76 30 30 39  45 26 80 F0 FF FF 7F F0  ....v009E&......
19D0: FF FF 7F 76 30 31 38 01  80 BA BD F3 05 01 19 81  ...v018.........
19E0: 1A 81 8C 80 E1 80 2B A0  F3 05 01 1B 81 23 27 10  ......+......#'.
19F0: A1 F3 05 01 03 1C 25 80  52 26 80 F0 FF FF 7F F0  ......%.R&......
1A00: FF FF 7F 76 30 31 38 45  26 80 F0 FF FF 7F F0 FF  ...v018E&.......
1A10: FF 7F 76 30 31 30 01 80  5B 17 81 A0 F3 05 01 A0  ..v010..[.......
1A20: F3 05 01 74 6C 6B 65 2B  A1 F3 05 01 1C 81 1C 2B  ...tlke+.......+
1A30: 80 5B 1D 81 A0 F3 05 01  A0 F3 05 01 73 74 64 32  .[..........std2
1A40: 2A 10 A1 F3 05 01 1C 2B  80 4A A1 F3 05 01 A3 F3  *......+.J......
1A50: 05 01 66 1E 81 A1 F3 05  01 A1 F3 05 01 74 6C 6B  ..f..........tlk
1A60: 30 5B 5F 80 A3 F3 05 01  A3 F3 05 01 67 61 68 32  0[_.........gah2
1A70: 1C 34 80 52 26 80 F0 FF  FF 7F F0 FF FF 7F 76 30  .4.R&.........v0
1A80: 31 30 45 26 80 F0 FF FF  7F F0 FF FF 7F 76 30 31  10E&.........v01
1A90: 31 01 80 4A 9C F3 05 01  A0 F3 05 01 7B 9C F3 05  1..J........{...
1AA0: 01 1C 75 80 66 1E 81 A1  F3 05 01 A1 F3 05 01 74  ..u.f..........t
1AB0: 6C 6B 31 53 A3 F3 05 01  A3 F3 05 01 67 61 68 32  lk1S........gah2
1AC0: 4A A0 F3 05 01 A3 F3 05  01 4A A3 F3 05 01 A1 F3  J........J......
1AD0: 05 01 5B 1D 81 A0 F3 05  01 A0 F3 05 01 73 74 64  ..[..........std
1AE0: 32 2B A3 F3 05 01 1F 81  23 66 1E 81 A3 F3 05 01  2+......#f......
1AF0: A3 F3 05 01 74 68 6B 31  52 26 80 F0 FF FF 7F F0  ....thk1R&......
1B00: FF FF 7F 76 30 31 31 45  26 80 F0 FF FF 7F F0 FF  ...v011E&.......
1B10: FF 7F 76 31 31 30 01 80  5B 20 81 9C F3 05 01 9C  ..v110..[ ......
1B20: F3 05 01 6B 69 7A 6C 81  00 A3 F3 05 01 2B A3 F3  ...kizl......+..
1B30: 05 01 21 81 23 7B A0 F3  05 01 5B 1D 81 A0 F3 05  ..!.#{....[.....
1B40: 01 A0 F3 05 01 65 68 6E  30 52 26 80 F0 FF FF 7F  .....ehn0R&.....
1B50: F0 FF FF 7F 76 31 31 30  45 26 80 F0 FF FF 7F F0  ....v110E&......
1B60: FF FF 7F 76 31 31 31 01  80 2B A0 F3 05 01 22 81  ...v111..+....".
1B70: 23 5B 1D 81 A0 F3 05 01  A0 F3 05 01 65 68 6E 31  #[..........ehn1
1B80: 52 26 80 F0 FF FF 7F F0  FF FF 7F 76 31 31 31 45  R&.........v111E
1B90: 26 80 F0 FF FF 7F F0 FF  FF 7F 76 30 31 32 01 80  &.........v012..
1BA0: 66 1E 81 A3 F3 05 01 A3  F3 05 01 74 68 6B 32 4A  f..........thk2J
1BB0: A1 F3 05 01 9C F3 05 01  1C 2B 80 2B 9C F3 05 01  .........+.+....
1BC0: 23 81 53 A0 F3 05 01 A0  F3 05 01 65 68 6E 31 5B  #.S........ehn1[
1BD0: 1D 81 A0 F3 05 01 A0 F3  05 01 73 74 64 32 4A A0  ..........std2J.
1BE0: F3 05 01 9C F3 05 01 23  52 26 80 F0 FF FF 7F F0  .......#R&......
1BF0: FF FF 7F 76 30 31 32 45  26 80 F0 FF FF 7F F0 FF  ...v012E&.......
1C00: FF 7F 76 30 31 33 01 80  1C 2B 80 2B 9C F3 05 01  ..v013...+.+....
1C10: 24 81 23 52 26 80 F0 FF  FF 7F F0 FF FF 7F 76 30  $.#R&.........v0
1C20: 31 33 45 26 80 F0 FF FF  7F F0 FF FF 7F 76 30 31  13E&.........v01
1C30: 34 01 80 1C 28 80 7B 9C  F3 05 01 03 03 10 25 81  4...(.{.......%.
1C40: 27 10 9C F3 05 01 0D 5B  20 81 9C F3 05 01 9C F3  '......[ .......
1C50: 05 01 6B 69 7A 6C 5B 17  81 A0 F3 05 01 A0 F3 05  ..kizl[.........
1C60: 01 74 6C 6B 32 2B A0 F3  05 01 26 81 23 53 A0 F3  .tlk2+....&.#S..
1C70: 05 01 A0 F3 05 01 74 6C  6B 32 5D 01 80 27 81 52  ......tlk2]..'.R
1C80: 26 80 F0 FF FF 7F F0 FF  FF 7F 76 30 31 34 45 26  &.........v014E&
1C90: 80 F0 FF FF 7F F0 FF FF  7F 76 30 31 35 01 80 1C  .........v015...
1CA0: 25 80 BA A0 F3 05 01 95  80 96 80 97 80 98 80 1C  %...............
1CB0: 28 80 27 10 A0 F3 05 01  0B 1C 28 81 5B 20 81 9C  (.'.......(.[ ..
1CC0: F3 05 01 9C F3 05 01 6B  69 7A 30 52 26 80 F0 FF  .......kiz0R&...
1CD0: FF 7F F0 FF FF 7F 76 30  31 35 45 26 80 F0 FF FF  ......v015E&....
1CE0: 7F F0 FF FF 7F 76 30 31  36 01 80 BA A0 F3 05 01  .....v016.......
1CF0: 29 81 2A 81 D8 80 2B 81  03 03 10 2B 81 27 10 9B  ).*...+....+.'..
1D00: F3 05 01 26 5B 5D 80 9B  F3 05 01 9B F3 05 01 74  ...&[].........t
1D10: 68 61 30 7C 00 9C F3 05  01 2B 9C F3 05 01 2C 81  ha0|.....+....,.
1D20: 1C 2A 80 23 5C 00 2D 81  5C 01 2D 81 9A 80 A0 F3  .*.#\.-.\.-.....
1D30: 05 01 7C 01 9C F3 05 01  52 26 80 F0 FF FF 7F F0  ..|.....R&......
1D40: FF FF 7F 76 30 31 36 45  26 80 F0 FF FF 7F F0 FF  ...v016E&.......
1D50: FF 7F 76 30 31 37 01 80  5B E4 80 9B F3 05 01 9B  ..v017..[.......
1D60: F3 05 01 66 63 30 31 5B  5D 80 9B F3 05 01 9B F3  ...fc01[].......
1D70: 05 01 74 68 61 31 2B 9B  F3 05 01 2E 81 1C 31 80  ..tha1+.......1.
1D80: 53 9B F3 05 01 9B F3 05  01 74 68 61 31 5B E4 80  S........tha1[..
1D90: 9B F3 05 01 9B F3 05 01  66 63 30 30 23 1C 2B 80  ........fc00#.+.
1DA0: 29 10 9B F3 05 01 20 52  26 80 F0 FF FF 7F F0 FF  )..... R&.......
1DB0: FF 7F 76 30 31 37 45 26  80 F0 FF FF 7F F0 FF FF  ..v017E&........
1DC0: 7F 76 30 31 39 01 80 2B  9C F3 05 01 2F 81 27 10  .v019..+..../.'.
1DD0: 9C F3 05 01 07 1C 02 80  1A 7F 77 1C 39 80 52 26  ..........w.9.R&
1DE0: 80 F0 FF FF 7F F0 FF FF  7F 76 30 31 39 45 26 80  .........v019E&.
1DF0: F0 FF FF 7F F0 FF FF 7F  30 62 6C 72 01 80 1C 28  ........0blr...(
1E00: 80 27 10 9B F3 05 01 24  7A 00 A0 F3 05 01 1C 28  .'.....$z......(
1E10: 80 27 10 BC F3 05 01 11  27 10 BD F3 05 01 12 27  .'......'......'
1E20: 10 BE F3 05 01 13 27 10  A0 F3 05 01 0C 80 BC F3  ......'.........
1E30: 05 01 80 BD F3 05 01 80  BE F3 05 01 80 A0 F3 05  ................
1E40: 01 5D 01 80 57 80 1C 57  80 35 30 81 78 1C 22 80  .]..W..W.50.x.".
1E50: AB 0A 1C 39 80 AB 11 01  80 1C 28 80 46 00 45 02  ...9......(.F.E.
1E60: 80 F0 FF FF 7F F0 FF FF  7F 66 64 69 32 01 80 21  .........fdi2..!
1E70: 00                                                .               
```

#### Opcodes

```
  0: 0x0001 [0x42] SET_CLI_EVENT_CANCEL_DATA()
  1: 0x0002 [0x1A] CALL_SUBROUTINE(address=0x777F)
  2: 0x0005 [0x46] CAMERA_CONTROL: Disable user control
  3: 0x0007 [0x38] SET_CLIENT_EVENT_MODE(mode=19*)
  4: 0x000A [0x4E] SET_ENTITY_HIDE_FLAG: Show LocalPlayer
  5: 0x0010 [0x5D] SET_MUSIC_VOLUME(volume=0*, fade_time=200*)
  6: 0x0015 [0x27] REQ_SET(priority=0x10, entity_id=Romaa Mihgo (ID: 17167254/0x0105F396), tag_num=0x11)
  7: 0x001C [0x27] REQ_SET(priority=0x10, entity_id=Mihl Pakorhma (ID: 17167257/0x0105F399), tag_num=0x10)
  8: 0x0023 [0x27] REQ_SET(priority=0x10, entity_id=M01 (ID: 17167283/0x0105F3B3), tag_num=0x2E)
  9: 0x002A [0x27] REQ_SET(priority=0x10, entity_id=M02 (ID: 17167284/0x0105F3B4), tag_num=0x2F)
 10: 0x0031 [0x27] REQ_SET(priority=0x10, entity_id=M03 (ID: 17167285/0x0105F3B5), tag_num=0x2F)
 11: 0x0038 [0x27] REQ_SET(priority=0x10, entity_id=M04 (ID: 17167286/0x0105F3B6), tag_num=0x2F)
 12: 0x003F [0x27] REQ_SET(priority=0x10, entity_id=M05 (ID: 17167287/0x0105F3B7), tag_num=0x30)
 13: 0x0046 [0x27] REQ_SET(priority=0x10, entity_id=M06 (ID: 17167288/0x0105F3B8), tag_num=0x30)
 14: 0x004D [0x92] Romaa Mihgo (ID: 17167254/0x0105F396)->Render.Flags3 ^= 0x01
 15: 0x0053 [0x92] Mihl Pakorhma (ID: 17167257/0x0105F399)->Render.Flags3 ^= 0x01
 16: 0x0059 [0x92] M01 (ID: 17167283/0x0105F3B3)->Render.Flags3 ^= 0x01
 17: 0x005F [0x92] M02 (ID: 17167284/0x0105F3B4)->Render.Flags3 ^= 0x01
 18: 0x0065 [0x92] M03 (ID: 17167285/0x0105F3B5)->Render.Flags3 ^= 0x01
 19: 0x006B [0x92] M04 (ID: 17167286/0x0105F3B6)->Render.Flags3 ^= 0x01
 20: 0x0071 [0x92] M05 (ID: 17167287/0x0105F3B7)->Render.Flags3 ^= 0x01
 21: 0x0077 [0x92] M06 (ID: 17167288/0x0105F3B8)->Render.Flags3 ^= 0x01
 22: 0x007D [0x94] LocalPlayer->Render.Flags3 ^= 0x01
 23: 0x0083 [0x94] Romaa Mihgo (ID: 17167254/0x0105F396)->Render.Flags3 ^= 0x01
 24: 0x0089 [0x94] Mihl Pakorhma (ID: 17167257/0x0105F399)->Render.Flags3 ^= 0x01
 25: 0x008F [0x94] M01 (ID: 17167283/0x0105F3B3)->Render.Flags3 ^= 0x01
 26: 0x0095 [0x94] M02 (ID: 17167284/0x0105F3B4)->Render.Flags3 ^= 0x01
 27: 0x009B [0x94] M03 (ID: 17167285/0x0105F3B5)->Render.Flags3 ^= 0x01
 28: 0x00A1 [0x94] M04 (ID: 17167286/0x0105F3B6)->Render.Flags3 ^= 0x01
 29: 0x00A7 [0x94] M05 (ID: 17167287/0x0105F3B7)->Render.Flags3 ^= 0x01
 30: 0x00AD [0x94] M06 (ID: 17167288/0x0105F3B8)->Render.Flags3 ^= 0x01
 31: 0x00B3 [0xBA] SET_ENTITY_POSITION(entity_id=Romaa Mihgo (ID: 17167254/0x0105F396), pos_x=319.618*, pos_z=-13.036*, pos_y=-4.635*, direction=277.4*)
 32: 0x00C0 [0xBA] SET_ENTITY_POSITION(entity_id=LocalPlayer, pos_x=319.230*, pos_z=-15.312*, pos_y=-4.919*, direction=277.4*)
 33: 0x00CD [0xBA] SET_ENTITY_POSITION(entity_id=Mihl Pakorhma (ID: 17167257/0x0105F399), pos_x=321.646*, pos_z=-10.702*, pos_y=-4.420*, direction=277.3*)
 34: 0x00DA [0xBA] SET_ENTITY_POSITION(entity_id=M01 (ID: 17167283/0x0105F3B3), pos_x=322.399*, pos_z=-11.722*, pos_y=-4.484*, direction=263.7*)
 35: 0x00E7 [0xBA] SET_ENTITY_POSITION(entity_id=M02 (ID: 17167284/0x0105F3B4), pos_x=320.289*, pos_z=-11.864*, pos_y=-4.493*, direction=263.7*)
 36: 0x00F4 [0xBA] SET_ENTITY_POSITION(entity_id=M03 (ID: 17167285/0x0105F3B5), pos_x=324.422*, pos_z=-10.128*, pos_y=-4.384*, direction=263.8*)
 37: 0x0101 [0xBA] SET_ENTITY_POSITION(entity_id=M04 (ID: 17167286/0x0105F3B6), pos_x=320.280*, pos_z=-14.040*, pos_y=-4.761*, direction=263.7*)
 38: 0x010E [0xBA] SET_ENTITY_POSITION(entity_id=M05 (ID: 17167287/0x0105F3B7), pos_x=318.033*, pos_z=-15.527*, pos_y=-4.947*, direction=263.8*)
 39: 0x011B [0xBA] SET_ENTITY_POSITION(entity_id=M06 (ID: 17167288/0x0105F3B8), pos_x=316.134*, pos_z=-14.660*, pos_y=-4.839*, direction=263.8*)
 40: 0x0128 [0x80] LOAD_WAIT(entity=LocalPlayer)
 41: 0x012D [0x80] LOAD_WAIT(entity=Romaa Mihgo (ID: 17167254/0x0105F396))
 42: 0x0132 [0x80] LOAD_WAIT(entity=Mihl Pakorhma (ID: 17167257/0x0105F399))
 43: 0x0137 [0x80] LOAD_WAIT(entity=M01 (ID: 17167283/0x0105F3B3))
 44: 0x013C [0x80] LOAD_WAIT(entity=M02 (ID: 17167284/0x0105F3B4))
 45: 0x0141 [0x80] LOAD_WAIT(entity=M03 (ID: 17167285/0x0105F3B5))
 46: 0x0146 [0x80] LOAD_WAIT(entity=M04 (ID: 17167286/0x0105F3B6))
 47: 0x014B [0x80] LOAD_WAIT(entity=M05 (ID: 17167287/0x0105F3B7))
 48: 0x0150 [0x80] LOAD_WAIT(entity=M06 (ID: 17167288/0x0105F3B8))
 49: 0x0155 [0x1C] WAIT(15* ticks)
 50: 0x0158 [0x5B] LOAD_EXT_SCHEDULER: Load scheduler "cobm" with entities [Mihl Pakorhma (ID: 17167257/0x0105F399), Mihl Pakorhma (ID: 17167257/0x0105F399)], work=2964*
 51: 0x0167 [0x5B] LOAD_EXT_SCHEDULER: Load scheduler "cob0" with entities [M01 (ID: 17167283/0x0105F3B3), M01 (ID: 17167283/0x0105F3B3)], work=2061*
 52: 0x0176 [0x5B] LOAD_EXT_SCHEDULER: Load scheduler "cob0" with entities [M02 (ID: 17167284/0x0105F3B4), M02 (ID: 17167284/0x0105F3B4)], work=2061*
 53: 0x0185 [0x5B] LOAD_EXT_SCHEDULER: Load scheduler "cob0" with entities [M03 (ID: 17167285/0x0105F3B5), M03 (ID: 17167285/0x0105F3B5)], work=2061*
 54: 0x0194 [0x5B] LOAD_EXT_SCHEDULER: Load scheduler "cob0" with entities [M04 (ID: 17167286/0x0105F3B6), M04 (ID: 17167286/0x0105F3B6)], work=2061*
 55: 0x01A3 [0x5B] LOAD_EXT_SCHEDULER: Load scheduler "cob0" with entities [M05 (ID: 17167287/0x0105F3B7), M05 (ID: 17167287/0x0105F3B7)], work=2061*
 56: 0x01B2 [0x5B] LOAD_EXT_SCHEDULER: Load scheduler "cob0" with entities [M06 (ID: 17167288/0x0105F3B8), M06 (ID: 17167288/0x0105F3B8)], work=2061*
 57: 0x01C1 [0x5C] MUSIC_CONTROL: Set Idle (Day) music to song 0*
 58: 0x01C5 [0x5C] MUSIC_CONTROL: Set Idle (Night) music to song 0*
 59: 0x01C9 [0x9A] WAIT_MUSIC_SERVER()
 60: 0x01CA [0x92] LocalPlayer->Render.Flags3 ^= 0x01
 61: 0x01D0 [0x27] REQ_SET(priority=0x10, entity_id=Romaa Mihgo (ID: 17167254/0x0105F396), tag_num=0x05)
 62: 0x01D7 [0x29] REQ_SET_WAIT(priority=0x10, entity_id=LocalPlayer, tag_num=0x21)
 63: 0x01DE [0x81] SET_ENTITY_BLINKING(blink_flag=0x00, entity=Romaa Mihgo (ID: 17167254/0x0105F396))
 64: 0x01E4 [0x1C] WAIT(5* ticks)
 65: 0x01E7 [0x45] LOAD_SCHEDULED_TASK: Load scheduler "z000" with entities [LocalPlayer, LocalPlayer], work=[516*, 0*]
 66: 0x01F8 [0x1A] CALL_SUBROUTINE(address=0x775E)
 67: 0x01FB [0x27] REQ_SET(priority=0x10, entity_id=LocalPlayer, tag_num=0x02)
 68: 0x0202 [0x1C] WAIT(140* ticks)
 69: 0x0205 [0x2A] GET_REQ_LEVEL(level=16, entity_id=LocalPlayer)
 70: 0x020B [0x1C] WAIT(1* ticks)
 71: 0x020E [0x03] ExtData[1]->WorkLocal[0] = Work_Zone[2]
 72: 0x0213 [0x52] END_LOAD_SCHEDULER: End scheduler "z000" with entities [LocalPlayer, LocalPlayer], work=516*
 73: 0x0222 [0x45] LOAD_SCHEDULED_TASK: Load scheduler "ov40" with entities [LocalPlayer, LocalPlayer], work=[516*, 0*]
 74: 0x0233 [0x45] LOAD_SCHEDULED_TASK: Load scheduler "z001" with entities [LocalPlayer, LocalPlayer], work=[516*, 0*]
 75: 0x0244 [0x1C] WAIT(170* ticks)
 76: 0x0247 [0x52] END_LOAD_SCHEDULER: End scheduler "z001" with entities [LocalPlayer, LocalPlayer], work=516*
 77: 0x0256 [0x45] LOAD_SCHEDULED_TASK: Load scheduler "z002" with entities [LocalPlayer, LocalPlayer], work=[516*, 0*]
 78: 0x0267 [0x1C] WAIT(120* ticks)
 79: 0x026A [0x52] END_LOAD_SCHEDULER: End scheduler "z002" with entities [LocalPlayer, LocalPlayer], work=516*
 80: 0x0279 [0x45] LOAD_SCHEDULED_TASK: Load scheduler "ov60" with entities [LocalPlayer, LocalPlayer], work=[516*, 0*]
 81: 0x028A [0x45] LOAD_SCHEDULED_TASK: Load scheduler "z003" with entities [LocalPlayer, LocalPlayer], work=[516*, 0*]
 82: 0x029B [0x1C] WAIT(40* ticks)
 83: 0x029E [0x27] REQ_SET(priority=0x10, entity_id=Romaa Mihgo (ID: 17167254/0x0105F396), tag_num=0x06)
 84: 0x02A5 [0xC5] LOAD_SCHEDULED_TASK_ALT3: Load scheduler 0x80013030 for entities [EventEntity, EventEntity], work=222*, param=12403
 85: 0x02B6 [0x1C] WAIT(250* ticks)
 86: 0x02B9 [0x27] REQ_SET(priority=0x10, entity_id=Romaa Mihgo (ID: 17167254/0x0105F396), tag_num=0x04)
 87: 0x02C0 [0x1C] WAIT(40* ticks)
 88: 0x02C3 [0x52] END_LOAD_SCHEDULER: End scheduler "z003" with entities [LocalPlayer, LocalPlayer], work=516*
 89: 0x02D2 [0x45] LOAD_SCHEDULED_TASK: Load scheduler "ov40" with entities [LocalPlayer, LocalPlayer], work=[516*, 0*]
 90: 0x02E3 [0x45] LOAD_SCHEDULED_TASK: Load scheduler "z004" with entities [LocalPlayer, LocalPlayer], work=[516*, 0*]
 91: 0x02F4 [0x2A] GET_REQ_LEVEL(level=16, entity_id=Romaa Mihgo (ID: 17167254/0x0105F396))
 92: 0x02FA [0x1C] WAIT(10* ticks)
 93: 0x02FD [0x5B] LOAD_EXT_SCHEDULER: Load scheduler "stb0" with entities [Romaa Mihgo (ID: 17167254/0x0105F396), Romaa Mihgo (ID: 17167254/0x0105F396)], work=1327*
 94: 0x030C [0x1C] WAIT(60* ticks)
 95: 0x030F [0x52] END_LOAD_SCHEDULER: End scheduler "z004" with entities [LocalPlayer, LocalPlayer], work=516*
 96: 0x031E [0x45] LOAD_SCHEDULED_TASK: Load scheduler "z005" with entities [LocalPlayer, LocalPlayer], work=[516*, 0*]
 97: 0x032F [0x1C] WAIT(100* ticks)
 98: 0x0332 [0x92] LocalPlayer->Render.Flags3 = Flags3  // No change (flag=0)
 99: 0x0338 [0x27] REQ_SET(priority=0x10, entity_id=LocalPlayer, tag_num=0x22)
100: 0x033F [0x7C] Romaa Mihgo (ID: 17167254/0x0105F396)->Render.Flags2 |= 0x00
101: 0x0345 [0x5B] LOAD_EXT_SCHEDULER: Load scheduler "kun0" with entities [Romaa Mihgo (ID: 17167254/0x0105F396), Romaa Mihgo (ID: 17167254/0x0105F396)], work=2715*
102: 0x0354 [0x2B] Romaa Mihgo (ID: 17167254/0x0105F396) [8028*]:
     "<Sniff, sniff>..."
103: 0x035B [0x1C] WAIT(70* ticks)
104: 0x035E [0x27] REQ_SET(priority=0x10, entity_id=LocalPlayer, tag_num=0x25)
105: 0x0365 [0x1C] WAIT(45* ticks)
106: 0x0368 [0x02] IF !(ExtData[1]->WorkLocal[0] == 5*) GOTO 0x0393
107: 0x0370 [0x52] END_LOAD_SCHEDULER: End scheduler "z005" with entities [LocalPlayer, LocalPlayer], work=516*
108: 0x037F [0x45] LOAD_SCHEDULED_TASK: Load scheduler "zt06" with entities [LocalPlayer, LocalPlayer], work=[516*, 0*]
109: 0x0390 [0x01] GOTO 0x03DE
110: 0x0393 [0x02] IF !(ExtData[1]->WorkLocal[0] == 6*) GOTO 0x03BE
111: 0x039B [0x52] END_LOAD_SCHEDULER: End scheduler "z005" with entities [LocalPlayer, LocalPlayer], work=516*
112: 0x03AA [0x45] LOAD_SCHEDULED_TASK: Load scheduler "zt06" with entities [LocalPlayer, LocalPlayer], work=[516*, 0*]
113: 0x03BB [0x01] GOTO 0x03DE
114: 0x03BE [0x52] END_LOAD_SCHEDULER: End scheduler "z005" with entities [LocalPlayer, LocalPlayer], work=516*
115: 0x03CD [0x45] LOAD_SCHEDULED_TASK: Load scheduler "z006" with entities [LocalPlayer, LocalPlayer], work=[516*, 0*]

SUBROUTINE_03DE:
116: 0x03DE [0x2B] Romaa Mihgo (ID: 17167254/0x0105F396) [8029*]:
     "What's this foul stench? It reeks of something burrrning..."
117: 0x03E5 [0x1C] WAIT(60* ticks)
118: 0x03E8 [0x2A] GET_REQ_LEVEL(level=16, entity_id=LocalPlayer)
119: 0x03EE [0x27] REQ_SET(priority=0x10, entity_id=LocalPlayer, tag_num=0x04)
120: 0x03F5 [0x1C] WAIT(120* ticks)
121: 0x03F8 [0x23] WAIT_FOR_DIALOG_INTERACTION
122: 0x03F9 [0x5B] LOAD_EXT_SCHEDULER: Load scheduler "kun1" with entities [Romaa Mihgo (ID: 17167254/0x0105F396), Romaa Mihgo (ID: 17167254/0x0105F396)], work=2965*
123: 0x0408 [0x1C] WAIT(30* ticks)
124: 0x040B [0x52] END_LOAD_SCHEDULER: End scheduler "z006" with entities [LocalPlayer, LocalPlayer], work=516*
125: 0x041A [0x52] END_LOAD_SCHEDULER: End scheduler "zt06" with entities [LocalPlayer, LocalPlayer], work=516*
126: 0x0429 [0x45] LOAD_SCHEDULED_TASK: Load scheduler "ov40" with entities [LocalPlayer, LocalPlayer], work=[516*, 0*]
127: 0x043A [0x45] LOAD_SCHEDULED_TASK: Load scheduler "z007" with entities [LocalPlayer, LocalPlayer], work=[516*, 0*]
128: 0x044B [0x7C] Romaa Mihgo (ID: 17167254/0x0105F396)->Render.Flags2 |= 0x01
129: 0x0451 [0x1C] WAIT(60* ticks)
130: 0x0454 [0x2B] Romaa Mihgo (ID: 17167254/0x0105F396) [8030*]:
     "Stand ready, Cobras. I have the feeling we're in for a rrrude surprise..."
131: 0x045B [0x1C] WAIT(70* ticks)
132: 0x045E [0x52] END_LOAD_SCHEDULER: End scheduler "z007" with entities [LocalPlayer, LocalPlayer], work=516*
133: 0x046D [0x45] LOAD_SCHEDULED_TASK: Load scheduler "ov40" with entities [LocalPlayer, LocalPlayer], work=[516*, 0*]
134: 0x047E [0x45] LOAD_SCHEDULED_TASK: Load scheduler "z008" with entities [LocalPlayer, LocalPlayer], work=[516*, 0*]
135: 0x048F [0xC5] LOAD_SCHEDULED_TASK_ALT3: Load scheduler 0x80013130 for entities [EventEntity, EventEntity], work=222*, param=12403
136: 0x04A0 [0x1C] WAIT(360* ticks)
137: 0x04A3 [0x1A] CALL_SUBROUTINE(address=0x777F)
138: 0x04A6 [0x1C] WAIT(30* ticks)
139: 0x04A9 [0x52] END_LOAD_SCHEDULER: End scheduler "z008" with entities [LocalPlayer, LocalPlayer], work=516*
140: 0x04B8 [0xC5] LOAD_SCHEDULED_TASK_ALT3: Load scheduler 0x8001306C for entities [EventEntity, EventEntity], work=222*, param=26987
141: 0x04C9 [0x4E] SET_ENTITY_HIDE_FLAG: Hide LocalPlayer
142: 0x04CF [0x4E] SET_ENTITY_HIDE_FLAG: Hide Romaa Mihgo (ID: 17167254/0x0105F396)
143: 0x04D5 [0x4E] SET_ENTITY_HIDE_FLAG: Hide Mihl Pakorhma (ID: 17167257/0x0105F399)
144: 0x04DB [0x4E] SET_ENTITY_HIDE_FLAG: Hide 01 (ID: 17167275/0x0105F3AB)
145: 0x04E1 [0x4E] SET_ENTITY_HIDE_FLAG: Hide 02 (ID: 17167276/0x0105F3AC)
146: 0x04E7 [0x4E] SET_ENTITY_HIDE_FLAG: Hide 03 (ID: 17167277/0x0105F3AD)
147: 0x04ED [0x4E] SET_ENTITY_HIDE_FLAG: Hide 04 (ID: 17167278/0x0105F3AE)
148: 0x04F3 [0x4E] SET_ENTITY_HIDE_FLAG: Hide 05 (ID: 17167279/0x0105F3AF)
149: 0x04F9 [0x4E] SET_ENTITY_HIDE_FLAG: Hide 06 (ID: 17167280/0x0105F3B0)
150: 0x04FF [0x1C] WAIT(1* ticks)
151: 0x0502 [0x34] LOAD_UNLOAD_ZONE(zone_id=242*)
152: 0x0505 [0x77] SET_EVENT_TIME_WEATHER(hour=255*, weather=1*)
153: 0x050A [0xAB] EventEntity->UnknownFlag = 1 // Enable unknown flag
154: 0x050C [0x1C] WAIT(1* ticks)
155: 0x050F [0x75] LOAD_ROOM(Load indoor room, room=427*)
156: 0x0513 [0x75] LOAD_ROOM(No action)
157: 0x0515 [0x27] REQ_SET(priority=0x10, entity_id=Robel-Akbel (ID: 17167260/0x0105F39C), tag_num=0x14)
158: 0x051C [0x27] REQ_SET(priority=0x10, entity_id=Karaha-Baruha (ID: 17167261/0x0105F39D), tag_num=0x0C)
159: 0x0523 [0x27] REQ_SET(priority=0x10, entity_id=Lehko Habhoka (ID: 17167259/0x0105F39B), tag_num=0x41)
160: 0x052A [0x27] REQ_SET(priority=0x10, entity_id=Star Sibyl (ID: 17167262/0x0105F39E), tag_num=0x0F)
161: 0x0531 [0x92] Robel-Akbel (ID: 17167260/0x0105F39C)->Render.Flags3 ^= 0x01
162: 0x0537 [0x92] Karaha-Baruha (ID: 17167261/0x0105F39D)->Render.Flags3 ^= 0x01
163: 0x053D [0x92] Lehko Habhoka (ID: 17167259/0x0105F39B)->Render.Flags3 ^= 0x01
164: 0x0543 [0x92] Star Sibyl (ID: 17167262/0x0105F39E)->Render.Flags3 ^= 0x01
165: 0x0549 [0x94] Robel-Akbel (ID: 17167260/0x0105F39C)->Render.Flags3 ^= 0x01
166: 0x054F [0x94] Karaha-Baruha (ID: 17167261/0x0105F39D)->Render.Flags3 ^= 0x01
167: 0x0555 [0x94] Lehko Habhoka (ID: 17167259/0x0105F39B)->Render.Flags3 ^= 0x01
168: 0x055B [0x94] Star Sibyl (ID: 17167262/0x0105F39E)->Render.Flags3 ^= 0x01
169: 0x0561 [0xBA] SET_ENTITY_POSITION(entity_id=Karaha-Baruha (ID: 17167261/0x0105F39D), pos_x=4.394*, pos_z=7.162*, pos_y=-25.499*, direction=45.5*)
170: 0x056E [0xBA] SET_ENTITY_POSITION(entity_id=Robel-Akbel (ID: 17167260/0x0105F39C), pos_x=6.357*, pos_z=7.562*, pos_y=-25.499*, direction=43.9*)
171: 0x057B [0xBA] SET_ENTITY_POSITION(entity_id=Star Sibyl (ID: 17167262/0x0105F39E), pos_x=2.041*, pos_z=10.788*, pos_y=-25.499*, direction=27.2*)
172: 0x0588 [0xBA] SET_ENTITY_POSITION(entity_id=Lehko Habhoka (ID: 17167259/0x0105F39B), pos_x=-6.330*, pos_z=19.294*, pos_y=0.499*, direction=103.4*)
173: 0x0595 [0x80] LOAD_WAIT(entity=Robel-Akbel (ID: 17167260/0x0105F39C))
174: 0x059A [0x80] LOAD_WAIT(entity=Karaha-Baruha (ID: 17167261/0x0105F39D))
175: 0x059F [0x80] LOAD_WAIT(entity=Lehko Habhoka (ID: 17167259/0x0105F39B))
176: 0x05A4 [0x80] LOAD_WAIT(entity=Star Sibyl (ID: 17167262/0x0105F39E))
177: 0x05A9 [0x5C] MUSIC_CONTROL: Set Idle (Day) music to song 162*, volume=60*
178: 0x05AF [0x5C] MUSIC_CONTROL: Set Idle (Night) music to song 162*, volume=60*
179: 0x05B5 [0x9A] WAIT_MUSIC_SERVER()
180: 0x05B6 [0x2C] CREATE_SCHEDULER_TASK: Create scheduler "obof" with entities [Star Sibyl (ID: 17167262/0x0105F39E), Star Sibyl (ID: 17167262/0x0105F39E)]
181: 0x05C3 [0x59] UPDATE_ENTITY_DATA: Set Robel-Akbel (ID: 17167260/0x0105F39C) turn speed = 70*
182: 0x05CB [0x59] UPDATE_ENTITY_DATA: Set Karaha-Baruha (ID: 17167261/0x0105F39D) turn speed = 70*
183: 0x05D3 [0x59] UPDATE_ENTITY_DATA: Set Star Sibyl (ID: 17167262/0x0105F39E) turn speed = 70*
184: 0x05DB [0x1C] WAIT(15* ticks)
185: 0x05DE [0x45] LOAD_SCHEDULED_TASK: Load scheduler "y000" with entities [LocalPlayer, LocalPlayer], work=[516*, 0*]
186: 0x05EF [0x1A] CALL_SUBROUTINE(address=0x775E)
187: 0x05F2 [0x1C] WAIT(120* ticks)
188: 0x05F5 [0x27] REQ_SET(priority=0x10, entity_id=Robel-Akbel (ID: 17167260/0x0105F39C), tag_num=0x03)
189: 0x05FC [0x1C] WAIT(10* ticks)
190: 0x05FF [0x27] REQ_SET(priority=0x10, entity_id=Karaha-Baruha (ID: 17167261/0x0105F39D), tag_num=0x02)
191: 0x0606 [0x52] END_LOAD_SCHEDULER: End scheduler "y000" with entities [LocalPlayer, LocalPlayer], work=516*
192: 0x0615 [0x45] LOAD_SCHEDULED_TASK: Load scheduler "y001" with entities [LocalPlayer, LocalPlayer], work=[516*, 0*]
193: 0x0626 [0x1C] WAIT(60* ticks)
194: 0x0629 [0x27] REQ_SET(priority=0x10, entity_id=Star Sibyl (ID: 17167262/0x0105F39E), tag_num=0x08)
195: 0x0630 [0x1C] WAIT(70* ticks)
196: 0x0633 [0x52] END_LOAD_SCHEDULER: End scheduler "y001" with entities [LocalPlayer, LocalPlayer], work=516*
197: 0x0642 [0x45] LOAD_SCHEDULED_TASK: Load scheduler "y002" with entities [LocalPlayer, LocalPlayer], work=[516*, 0*]
198: 0x0653 [0x1C] WAIT(140* ticks)
199: 0x0656 [0x52] END_LOAD_SCHEDULER: End scheduler "y002" with entities [LocalPlayer, LocalPlayer], work=516*
200: 0x0665 [0x45] LOAD_SCHEDULED_TASK: Load scheduler "y003" with entities [LocalPlayer, LocalPlayer], work=[516*, 0*]
201: 0x0676 [0x2B] Star Sibyl (ID: 17167262/0x0105F39E) [8031*]:
     "Karaha-Baruha...! You leave...so soon?"
202: 0x067D [0x23] WAIT_FOR_DIALOG_INTERACTION
203: 0x067E [0x2A] GET_REQ_LEVEL(level=16, entity_id=Karaha-Baruha (ID: 17167261/0x0105F39D))
204: 0x0684 [0x2A] GET_REQ_LEVEL(level=16, entity_id=Robel-Akbel (ID: 17167260/0x0105F39C))
205: 0x068A [0x2A] GET_REQ_LEVEL(level=16, entity_id=Star Sibyl (ID: 17167262/0x0105F39E))
206: 0x0690 [0x1C] WAIT(30* ticks)
207: 0x0693 [0x2B] Karaha-Baruha (ID: 17167261/0x0105F39D) [8032*]:
     "The hour is nigh, Your Holiness."
208: 0x069A [0x23] WAIT_FOR_DIALOG_INTERACTION
209: 0x069B [0x1C] WAIT(30* ticks)
210: 0x069E [0x52] END_LOAD_SCHEDULER: End scheduler "y003" with entities [LocalPlayer, LocalPlayer], work=516*
211: 0x06AD [0x45] LOAD_SCHEDULED_TASK: Load scheduler "y005" with entities [LocalPlayer, LocalPlayer], work=[516*, 0*]
212: 0x06BE [0x2B] Karaha-Baruha (ID: 17167261/0x0105F39D) [8033*]:
     "I must see to the final preparations at the Manustery. After that, we depart for the Waters."
213: 0x06C5 [0x23] WAIT_FOR_DIALOG_INTERACTION
214: 0x06C6 [0x7C] Star Sibyl (ID: 17167262/0x0105F39E)->Render.Flags2 |= 0x00
215: 0x06CC [0x81] SET_ENTITY_BLINKING(blink_flag=0x00, entity=Star Sibyl (ID: 17167262/0x0105F39E))
216: 0x06D2 [0x5B] LOAD_EXT_SCHEDULER: Load scheduler "tlc0" with entities [Star Sibyl (ID: 17167262/0x0105F39E), Star Sibyl (ID: 17167262/0x0105F39E)], work=170*
217: 0x06E1 [0x2B] Star Sibyl (ID: 17167262/0x0105F39E) [8034*]:
     "..."
218: 0x06E8 [0x23] WAIT_FOR_DIALOG_INTERACTION
219: 0x06E9 [0x7C] Star Sibyl (ID: 17167262/0x0105F39E)->Render.Flags2 |= 0x01
220: 0x06EF [0x52] END_LOAD_SCHEDULER: End scheduler "y005" with entities [LocalPlayer, LocalPlayer], work=516*
221: 0x06FE [0x45] LOAD_SCHEDULED_TASK: Load scheduler "y006" with entities [LocalPlayer, LocalPlayer], work=[516*, 0*]
222: 0x070F [0x7B] Robel-Akbel (ID: 17167260/0x0105F39C) stops talking
223: 0x0714 [0x4B] UPDATE_ENTITY_YAW(entity=Robel-Akbel (ID: 17167260/0x0105F39C), yaw=1.1*)
224: 0x071B [0x1C] WAIT(40* ticks)
225: 0x071E [0x2B] Robel-Akbel (ID: 17167260/0x0105F39C) [8035*]:
     "I take my leave of you now, Minister. I trust you won't be long."
226: 0x0725 [0x1C] WAIT(40* ticks)
227: 0x0728 [0x4A] Karaha-Baruha (ID: 17167261/0x0105F39D) looks at Robel-Akbel (ID: 17167260/0x0105F39C)
228: 0x0731 [0x23] WAIT_FOR_DIALOG_INTERACTION
229: 0x0732 [0x6F] WAIT_FRAME_DELAY: Yield until WaitTime reaches zero
230: 0x0733 [0x76] CHECK_ENTITY_RENDER_FLAGS: Wait until Robel-Akbel (ID: 17167260/0x0105F39C) Render.Flags0 and Render.Flags3 conditions are met
231: 0x0738 [0x27] REQ_SET(priority=0x10, entity_id=Robel-Akbel (ID: 17167260/0x0105F39C), tag_num=0x04)
232: 0x073F [0x1C] WAIT(130* ticks)
233: 0x0742 [0x1A] CALL_SUBROUTINE(address=0x777F)
234: 0x0745 [0x1C] WAIT(30* ticks)
235: 0x0748 [0x52] END_LOAD_SCHEDULER: End scheduler "y004" with entities [LocalPlayer, LocalPlayer], work=516*
236: 0x0757 [0x7A] VM_CONTROL: Reset VM for Robel-Akbel (ID: 17167260/0x0105F39C)
237: 0x075D [0x1C] WAIT(1* ticks)
238: 0x0760 [0x75] LOAD_ROOM(Load indoor room, room=426*)
239: 0x0764 [0x75] LOAD_ROOM(No action)
240: 0x0766 [0x1C] WAIT(1* ticks)
241: 0x0769 [0xBA] SET_ENTITY_POSITION(entity_id=Robel-Akbel (ID: 17167260/0x0105F39C), pos_x=0.250*, pos_z=25.087*, pos_y=0.499*, direction=90.7*)
242: 0x0776 [0x45] LOAD_SCHEDULED_TASK: Load scheduler "x000" with entities [LocalPlayer, LocalPlayer], work=[516*, 0*]
243: 0x0787 [0x27] REQ_SET(priority=0x10, entity_id=Door:Clerical Chamber (ID: 17167263/0x0105F39F), tag_num=0x01)
244: 0x078E [0x1A] CALL_SUBROUTINE(address=0x775E)
245: 0x0791 [0x1C] WAIT(10* ticks)
246: 0x0794 [0x27] REQ_SET(priority=0x10, entity_id=Robel-Akbel (ID: 17167260/0x0105F39C), tag_num=0x05)
247: 0x079B [0x1C] WAIT(160* ticks)
248: 0x079E [0x52] END_LOAD_SCHEDULER: End scheduler "x000" with entities [LocalPlayer, LocalPlayer], work=516*
249: 0x07AD [0x45] LOAD_SCHEDULED_TASK: Load scheduler "x001" with entities [LocalPlayer, LocalPlayer], work=[516*, 0*]
250: 0x07BE [0x1C] WAIT(1* ticks)
251: 0x07C1 [0xBA] SET_ENTITY_POSITION(entity_id=Robel-Akbel (ID: 17167260/0x0105F39C), pos_x=-0.415*, pos_z=20.008*, pos_y=0.499*, direction=90.7*)
252: 0x07CE [0x27] REQ_SET(priority=0x10, entity_id=Door:Clerical Chamber (ID: 17167263/0x0105F39F), tag_num=0x02)
253: 0x07D5 [0x1C] WAIT(60* ticks)
254: 0x07D8 [0x2B] Lehko Habhoka (ID: 17167259/0x0105F39B) [8036*]:
     "You'll exchange no parrrting words with the Star Sibyl?"
255: 0x07DF [0x23] WAIT_FOR_DIALOG_INTERACTION
256: 0x07E0 [0x2A] GET_REQ_LEVEL(level=16, entity_id=Robel-Akbel (ID: 17167260/0x0105F39C))
257: 0x07E6 [0x1C] WAIT(30* ticks)
258: 0x07E9 [0x2B] Robel-Akbel (ID: 17167260/0x0105F39C) [8037*]:
     "I will not."
259: 0x07F0 [0x23] WAIT_FOR_DIALOG_INTERACTION
260: 0x07F1 [0x27] REQ_SET(priority=0x10, entity_id=Lehko Habhoka (ID: 17167259/0x0105F39B), tag_num=0x1D)
261: 0x07F8 [0x1C] WAIT(20* ticks)
262: 0x07FB [0x52] END_LOAD_SCHEDULER: End scheduler "x001" with entities [LocalPlayer, LocalPlayer], work=516*
263: 0x080A [0x45] LOAD_SCHEDULED_TASK: Load scheduler "x002" with entities [LocalPlayer, LocalPlayer], work=[516*, 0*]
264: 0x081B [0x2A] GET_REQ_LEVEL(level=16, entity_id=Lehko Habhoka (ID: 17167259/0x0105F39B))
265: 0x0821 [0x5B] LOAD_EXT_SCHEDULER: Load scheduler "tla0" with entities [Lehko Habhoka (ID: 17167259/0x0105F39B), Lehko Habhoka (ID: 17167259/0x0105F39B)], work=1443*
266: 0x0830 [0x2B] Lehko Habhoka (ID: 17167259/0x0105F39B) [8038*]:
     "But...you intend never to return. Surrrely a simple farewell would be in--"
267: 0x0837 [0x23] WAIT_FOR_DIALOG_INTERACTION
268: 0x0838 [0x5B] LOAD_EXT_SCHEDULER: Load scheduler "tla1" with entities [Lehko Habhoka (ID: 17167259/0x0105F39B), Lehko Habhoka (ID: 17167259/0x0105F39B)], work=1443*
269: 0x0847 [0x5B] LOAD_EXT_SCHEDULER: Load scheduler "gud0" with entities [Robel-Akbel (ID: 17167260/0x0105F39C), Robel-Akbel (ID: 17167260/0x0105F39C)], work=1373*
270: 0x0856 [0x2B] Robel-Akbel (ID: 17167260/0x0105F39C) [8039*]:
     "For what end, Lehko?"
271: 0x085D [0x23] WAIT_FOR_DIALOG_INTERACTION
272: 0x085E [0x52] END_LOAD_SCHEDULER: End scheduler "x002" with entities [LocalPlayer, LocalPlayer], work=516*
273: 0x086D [0x45] LOAD_SCHEDULED_TASK: Load scheduler "x005" with entities [LocalPlayer, LocalPlayer], work=[516*, 0*]
274: 0x087E [0x2B] Robel-Akbel (ID: 17167260/0x0105F39C) [8040*]:
     "My actions in battle shall speak louder than any words. I shall right that which I allowed to go so terribly wrong. This, and nothing else, remains for me."
275: 0x0885 [0x1C] WAIT(60* ticks)
276: 0x0888 [0x53] WAIT_SCHEDULER_TASK: Wait for scheduler "gud0" with entities [Robel-Akbel (ID: 17167260/0x0105F39C), Robel-Akbel (ID: 17167260/0x0105F39C)]
277: 0x0895 [0x5B] LOAD_EXT_SCHEDULER: Load scheduler "gud1" with entities [Robel-Akbel (ID: 17167260/0x0105F39C), Robel-Akbel (ID: 17167260/0x0105F39C)], work=1373*
