# 17167279 - 05

## Common Data

| Field            | Value                          |
|------------------|--------------------------------|
| Zone             | West Sarutabaruta [S] (ID: 95) |
| Block Size       | 888 bytes                      |
| Total Events     | 32                             |
| References Count | 65                             |

## List of Events

| Event ID                   | Entrypoint   |   Size |   Instructions |
|----------------------------|--------------|--------|----------------|
| [65535](#event-65535)      | 0x0000       |      1 |              1 |
| [105](#event-105)          | 0x0001       |      1 |              1 |
| [65535.1](#event-655351)   | 0x0002       |     31 |              7 |
| [107](#event-107)          | 0x0021       |      1 |              1 |
| [112](#event-112)          | 0x0022       |      1 |              1 |
| [65535.2](#event-655352)   | 0x0023       |     21 |              2 |
| [65535.3](#event-655353)   | 0x0038       |     21 |              2 |
| [65535.4](#event-655354)   | 0x004D       |     21 |              2 |
| [65535.5](#event-655355)   | 0x0062       |     21 |              2 |
| [65535.6](#event-655356)   | 0x0077       |     21 |              2 |
| [65535.7](#event-655357)   | 0x008C       |     21 |              2 |
| [65535.8](#event-655358)   | 0x00A1       |     21 |              2 |
| [65535.9](#event-655359)   | 0x00B6       |     21 |              2 |
| [65535.10](#event-6553510) | 0x00CB       |     21 |              2 |
| [65535.11](#event-6553511) | 0x00E0       |     21 |              2 |
| [65535.12](#event-6553512) | 0x00F5       |     18 |              6 |
| [65535.13](#event-6553513) | 0x0107       |     15 |              5 |
| [65535.14](#event-6553514) | 0x0116       |     18 |              6 |
| [65535.15](#event-6553515) | 0x0128       |     18 |              6 |
| [65535.16](#event-6553516) | 0x013A       |     15 |              5 |
| [65535.17](#event-6553517) | 0x0149       |     18 |              6 |
| [65535.18](#event-6553518) | 0x015B       |     15 |              5 |
| [65535.19](#event-6553519) | 0x016A       |     18 |              6 |
| [65535.20](#event-6553520) | 0x017C       |     18 |              6 |
| [65535.21](#event-6553521) | 0x018E       |     18 |              6 |
| [65535.22](#event-6553522) | 0x01A0       |      1 |              1 |
| [65535.23](#event-6553523) | 0x01A1       |     18 |              4 |
| [65535.24](#event-6553524) | 0x01B3       |     10 |              2 |
| [65535.25](#event-6553525) | 0x01BD       |      9 |              3 |
| [65535.26](#event-6553526) | 0x01C6       |      9 |              3 |
| [65535.27](#event-6553527) | 0x01CF       |     10 |              2 |
| [65535.28](#event-6553528) | 0x01D9       |     10 |              2 |

## DAT References (imed_data)

|   Index | Hex Value   |   Dec Value |
|---------|-------------|-------------|
|       0 | 0x000D      |          13 |
|       1 | 0x4D7AE     |      317358 |
|       2 | 0xFFFFDAAC  |  4294957740 |
|       3 | 0xFFFFEF04  |  4294962948 |
|       4 | 0x4BF2A     |      311082 |
|       5 | 0xFFFFDE92  |  4294958738 |
|       6 | 0xFFFFEE6C  |  4294962796 |
|       7 | 0x0BB8      |        3000 |
|       8 | 0x0007      |           7 |
|       9 | 0x0005      |           5 |
|      10 | 0x0089      |         137 |
|      11 | 0x0010      |          16 |
|      12 | 0x000E      |          14 |
|      13 | 0x0064      |         100 |
|      14 | 0x0000      |           0 |
|      15 | 0x000B      |          11 |
|      16 | 0x011B      |         283 |
|      17 | 0x000F      |          15 |
|      18 | 0x0072      |         114 |
|      19 | 0x0003      |           3 |
|      20 | 0x0002      |           2 |
|      21 | 0x006E      |         110 |
|      22 | 0x0012      |          18 |
|      23 | 0x0014      |          20 |
|      24 | 0x00E3      |         227 |
|      25 | 0x0027      |          39 |
|      26 | 0x0006      |           6 |
|      27 | 0x0013      |          19 |
|      28 | 0x000A      |          10 |
|      29 | 0x0025      |          37 |
|      30 | 0x4C744     |      313156 |
|      31 | 0x0B28      |        2856 |
|      32 | 0xFFFFEFAD  |  4294963117 |
|      33 | 0x002A      |          42 |
|      34 | 0x4B998     |      309656 |
|      35 | 0x03DA      |         986 |
|      36 | 0xFFFFEED3  |  4294962899 |
|      37 | 0x0028      |          40 |
|      38 | 0x4BD92     |      310674 |
|      39 | 0xFFFFFDB5  |  4294966709 |
|      40 | 0xFFFFEF12  |  4294962962 |
|      41 | 0x4C68E     |      312974 |
|      42 | 0x07D3      |        2003 |
|      43 | 0xFFFFEFA2  |  4294963106 |
|      44 | 0x0029      |          41 |
|      45 | 0x4CDBD     |      314813 |
|      46 | 0x01D2      |         466 |
|      47 | 0xFFFFF015  |  4294963221 |
|      48 | 0x4CB7A     |      314234 |
|      49 | 0x1254      |        4692 |
|      50 | 0xFFFFEFC4  |  4294963140 |
|      51 | 0x258D6     |      153814 |
|      52 | 0xFFFFE4AB  |  4294960299 |
|      53 | 0xFFFFF1D3  |  4294963667 |
|      54 | 0x25DB7     |      155063 |
|      55 | 0xFFFFEA66  |  4294961766 |
|      56 | 0xFFFFF0D6  |  4294963414 |
|      57 | 0x29D65     |      171365 |
|      58 | 0xFFFFD074  |  4294955124 |
|      59 | 0xFFFFF485  |  4294964357 |
|      60 | 0x298B3     |      170163 |
|      61 | 0xFFFFCDBE  |  4294954430 |
|      62 | 0xFFFFF580  |  4294964608 |
|      63 | 0x0001      |           1 |
|      64 | 0x0080      |         128 |

## Events

### Event 65535

#### Metadata

| Field        | Value   |
|--------------|---------|
| Entrypoint   | 0x0000  |
| Data Size    | 1 bytes |
| Instructions | 1       |

```
      00 01 02 03 04 05 06 07  08 09 0A 0B 0C 0D 0E 0F
      -- -- -- -- -- -- -- --  -- -- -- -- -- -- -- --
0000: 00                                                .               
```

#### Opcodes

```
  0: 0x0000 [0x00] END_REQSTACK()
```

### Event 105

#### Metadata

| Field        | Value   |
|--------------|---------|
| Entrypoint   | 0x0001  |
| Data Size    | 1 bytes |
| Instructions | 1       |

```
      00 01 02 03 04 05 06 07  08 09 0A 0B 0C 0D 0E 0F
      -- -- -- -- -- -- -- --  -- -- -- -- -- -- -- --
0000:    00                                              .              
```

#### Opcodes

```
  0: 0x0001 [0x00] END_REQSTACK()
```

### Event 65535.1

#### Metadata

| Field        | Value    |
|--------------|----------|
| Entrypoint   | 0x0002   |
| Data Size    | 31 bytes |
| Instructions | 7        |

```
      00 01 02 03 04 05 06 07  08 09 0A 0B 0C 0D 0E 0F
      -- -- -- -- -- -- -- --  -- -- -- -- -- -- -- --
0000:       32 00 80 1F 00 01  80 02 80 03 80 1F 01 1F    2.............
0010: 00 04 80 05 80 06 80 1F  01 4B F8 FF FF 7F 07 80  .........K......
0020: 00                                                .               
```

#### Opcodes

```
  0: 0x0002 [0x32] ExtData[1]->MainSpeed = 13* * 0.1
  1: 0x0005 [0x1F] MOVE_ENTITY: EventEntity moves to X=317.358*, Z=-9.556*, Y=-4.348*
  2: 0x000D [0x1F] MOVE_ENTITY: Update entity position (mode=1)
  3: 0x000F [0x1F] MOVE_ENTITY: EventEntity moves to X=311.082*, Z=-8.558*, Y=-4.500*
  4: 0x0017 [0x1F] MOVE_ENTITY: Update entity position (mode=1)
  5: 0x0019 [0x4B] UPDATE_ENTITY_YAW(entity=EventEntity, yaw=16.5°*)
  6: 0x0020 [0x00] END_REQSTACK()
```

### Event 107

#### Metadata

| Field        | Value   |
|--------------|---------|
| Entrypoint   | 0x0021  |
| Data Size    | 1 bytes |
| Instructions | 1       |

```
      00 01 02 03 04 05 06 07  08 09 0A 0B 0C 0D 0E 0F
      -- -- -- -- -- -- -- --  -- -- -- -- -- -- -- --
0020:    00                                              .              
```

#### Opcodes

```
  0: 0x0021 [0x00] END_REQSTACK()
```

### Event 112

#### Metadata

| Field        | Value   |
|--------------|---------|
| Entrypoint   | 0x0022  |
| Data Size    | 1 bytes |
| Instructions | 1       |

```
      00 01 02 03 04 05 06 07  08 09 0A 0B 0C 0D 0E 0F
      -- -- -- -- -- -- -- --  -- -- -- -- -- -- -- --
0020:       00                                            .             
```

#### Opcodes

```
  0: 0x0022 [0x00] END_REQSTACK()
```

### Event 65535.2

#### Metadata

| Field        | Value    |
|--------------|----------|
| Entrypoint   | 0x0023   |
| Data Size    | 21 bytes |
| Instructions | 2        |

```
      00 01 02 03 04 05 06 07  08 09 0A 0B 0C 0D 0E 0F
      -- -- -- -- -- -- -- --  -- -- -- -- -- -- -- --
0020:          B6 0B 08 80 09  80 0A 80 0B 80 0B 80 0C     .............
0030: 80 00 80 0D 80 0E 80 00                           ........        
```

#### Opcodes

```
  0: 0x0023 [0xB6] ENTITY_APPEARANCE_HANDLER(case=Full entity look, race=7*, hair=5*, head=137*, body=16*, hands=16*, legs=14*, feet=13*, main=100*, sub=0*)
  1: 0x0037 [0x00] END_REQSTACK()
```

### Event 65535.3

#### Metadata

| Field        | Value    |
|--------------|----------|
| Entrypoint   | 0x0038   |
| Data Size    | 21 bytes |
| Instructions | 2        |

```
      00 01 02 03 04 05 06 07  08 09 0A 0B 0C 0D 0E 0F
      -- -- -- -- -- -- -- --  -- -- -- -- -- -- -- --
0030:                          B6 0B 08 80 0F 80 0A 80          ........
0040: 0B 80 0B 80 0C 80 0B 80  10 80 0E 80 00           .............   
```

#### Opcodes

```
  0: 0x0038 [0xB6] ENTITY_APPEARANCE_HANDLER(case=Full entity look, race=7*, hair=11*, head=137*, body=16*, hands=16*, legs=14*, feet=16*, main=283*, sub=0*)
  1: 0x004C [0x00] END_REQSTACK()
```

### Event 65535.4

#### Metadata

| Field        | Value    |
|--------------|----------|
| Entrypoint   | 0x004D   |
| Data Size    | 21 bytes |
| Instructions | 2        |

```
      00 01 02 03 04 05 06 07  08 09 0A 0B 0C 0D 0E 0F
      -- -- -- -- -- -- -- --  -- -- -- -- -- -- -- --
0040:                                         B6 0B 08               ...
0050: 80 11 80 12 80 11 80 0B  80 0C 80 00 80 0D 80 0E  ................
0060: 80 00                                             ..              
```

#### Opcodes

```
  0: 0x004D [0xB6] ENTITY_APPEARANCE_HANDLER(case=Full entity look, race=7*, hair=15*, head=114*, body=15*, hands=16*, legs=14*, feet=13*, main=100*, sub=0*)
  1: 0x0061 [0x00] END_REQSTACK()
```

### Event 65535.5

#### Metadata

| Field        | Value    |
|--------------|----------|
| Entrypoint   | 0x0062   |
| Data Size    | 21 bytes |
| Instructions | 2        |

```
      00 01 02 03 04 05 06 07  08 09 0A 0B 0C 0D 0E 0F
      -- -- -- -- -- -- -- --  -- -- -- -- -- -- -- --
0060:       B6 0B 08 80 13 80  12 80 11 80 0B 80 0B 80    ..............
0070: 00 80 10 80 0E 80 00                              .......         
```

#### Opcodes

```
  0: 0x0062 [0xB6] ENTITY_APPEARANCE_HANDLER(case=Full entity look, race=7*, hair=3*, head=114*, body=15*, hands=16*, legs=16*, feet=13*, main=283*, sub=0*)
  1: 0x0076 [0x00] END_REQSTACK()
```

### Event 65535.6

#### Metadata

| Field        | Value    |
|--------------|----------|
| Entrypoint   | 0x0077   |
| Data Size    | 21 bytes |
| Instructions | 2        |

```
      00 01 02 03 04 05 06 07  08 09 0A 0B 0C 0D 0E 0F
      -- -- -- -- -- -- -- --  -- -- -- -- -- -- -- --
0070:                      B6  0B 08 80 14 80 0A 80 15         .........
0080: 80 0B 80 0B 80 00 80 0D  80 0E 80 00              ............    
```

#### Opcodes

```
  0: 0x0077 [0xB6] ENTITY_APPEARANCE_HANDLER(case=Full entity look, race=7*, hair=2*, head=137*, body=110*, hands=16*, legs=16*, feet=13*, main=100*, sub=0*)
  1: 0x008B [0x00] END_REQSTACK()
```

### Event 65535.7

#### Metadata

| Field        | Value    |
|--------------|----------|
| Entrypoint   | 0x008C   |
| Data Size    | 21 bytes |
| Instructions | 2        |

```
      00 01 02 03 04 05 06 07  08 09 0A 0B 0C 0D 0E 0F
      -- -- -- -- -- -- -- --  -- -- -- -- -- -- -- --
0080:                                      B6 0B 09 80              ....
0090: 09 80 16 80 17 80 17 80  17 80 17 80 18 80 19 80  ................
00A0: 00                                                .               
```

#### Opcodes

```
  0: 0x008C [0xB6] ENTITY_APPEARANCE_HANDLER(case=Full entity look, race=5*, hair=5*, head=18*, body=20*, hands=20*, legs=20*, feet=20*, main=227*, sub=39*)
  1: 0x00A0 [0x00] END_REQSTACK()
```

### Event 65535.8

#### Metadata

| Field        | Value    |
|--------------|----------|
| Entrypoint   | 0x00A1   |
| Data Size    | 21 bytes |
| Instructions | 2        |

```
      00 01 02 03 04 05 06 07  08 09 0A 0B 0C 0D 0E 0F
      -- -- -- -- -- -- -- --  -- -- -- -- -- -- -- --
00A0:    B6 0B 1A 80 0F 80 16  80 17 80 17 80 17 80 17   ...............
00B0: 80 18 80 19 80 00                                 ......          
```

#### Opcodes

```
  0: 0x00A1 [0xB6] ENTITY_APPEARANCE_HANDLER(case=Full entity look, race=6*, hair=11*, head=18*, body=20*, hands=20*, legs=20*, feet=20*, main=227*, sub=39*)
  1: 0x00B5 [0x00] END_REQSTACK()
```

### Event 65535.9

#### Metadata

| Field        | Value    |
|--------------|----------|
| Entrypoint   | 0x00B6   |
| Data Size    | 21 bytes |
| Instructions | 2        |

```
      00 01 02 03 04 05 06 07  08 09 0A 0B 0C 0D 0E 0F
      -- -- -- -- -- -- -- --  -- -- -- -- -- -- -- --
00B0:                   B6 0B  09 80 11 80 16 80 17 80        ..........
00C0: 17 80 17 80 17 80 18 80  19 80 00                 ...........     
```

#### Opcodes

```
  0: 0x00B6 [0xB6] ENTITY_APPEARANCE_HANDLER(case=Full entity look, race=5*, hair=15*, head=18*, body=20*, hands=20*, legs=20*, feet=20*, main=227*, sub=39*)
  1: 0x00CA [0x00] END_REQSTACK()
```

### Event 65535.10

#### Metadata

| Field        | Value    |
|--------------|----------|
| Entrypoint   | 0x00CB   |
| Data Size    | 21 bytes |
| Instructions | 2        |

```
      00 01 02 03 04 05 06 07  08 09 0A 0B 0C 0D 0E 0F
      -- -- -- -- -- -- -- --  -- -- -- -- -- -- -- --
00C0:                                   B6 0B 09 80 13             .....
00D0: 80 0E 80 0F 80 1B 80 1B  80 1B 80 0E 80 0E 80 00  ................
```

#### Opcodes

```
  0: 0x00CB [0xB6] ENTITY_APPEARANCE_HANDLER(case=Full entity look, race=5*, hair=3*, head=0*, body=11*, hands=19*, legs=19*, feet=19*, main=0*, sub=0*)
  1: 0x00DF [0x00] END_REQSTACK()
```

### Event 65535.11

#### Metadata

| Field        | Value    |
|--------------|----------|
| Entrypoint   | 0x00E0   |
| Data Size    | 21 bytes |
| Instructions | 2        |

```
      00 01 02 03 04 05 06 07  08 09 0A 0B 0C 0D 0E 0F
      -- -- -- -- -- -- -- --  -- -- -- -- -- -- -- --
00E0: B6 0B 1A 80 14 80 0E 80  0F 80 1B 80 1B 80 1B 80  ................
00F0: 0E 80 0E 80 00                                    .....           
```

#### Opcodes

```
  0: 0x00E0 [0xB6] ENTITY_APPEARANCE_HANDLER(case=Full entity look, race=6*, hair=2*, head=0*, body=11*, hands=19*, legs=19*, feet=19*, main=0*, sub=0*)
  1: 0x00F4 [0x00] END_REQSTACK()
```

### Event 65535.12

#### Metadata

| Field        | Value    |
|--------------|----------|
| Entrypoint   | 0x00F5   |
| Data Size    | 18 bytes |
| Instructions | 6        |

```
      00 01 02 03 04 05 06 07  08 09 0A 0B 0C 0D 0E 0F
      -- -- -- -- -- -- -- --  -- -- -- -- -- -- -- --
00F0:                1C 1C 80  32 1D 80 1F 00 1E 80 1F       ...2.......
0100: 80 20 80 1F 01 6F 00                              . ...o.         
```

#### Opcodes

```
  0: 0x00F5 [0x1C] WAIT(10* ticks)
  1: 0x00F8 [0x32] ExtData[1]->MainSpeed = 37* * 0.1
  2: 0x00FB [0x1F] MOVE_ENTITY: EventEntity moves to X=313.156*, Z=2.856*, Y=-4.179*
  3: 0x0103 [0x1F] MOVE_ENTITY: Update entity position (mode=1)
  4: 0x0105 [0x6F] WAIT_FRAME_DELAY: Yield until WaitTime reaches zero
  5: 0x0106 [0x00] END_REQSTACK()
```

### Event 65535.13

#### Metadata

| Field        | Value    |
|--------------|----------|
| Entrypoint   | 0x0107   |
| Data Size    | 15 bytes |
| Instructions | 5        |

```
      00 01 02 03 04 05 06 07  08 09 0A 0B 0C 0D 0E 0F
      -- -- -- -- -- -- -- --  -- -- -- -- -- -- -- --
0100:                      32  21 80 1F 00 22 80 23 80         2!...".#.
0110: 24 80 1F 01 6F 00                                 $...o.          
```

#### Opcodes

```
  0: 0x0107 [0x32] ExtData[1]->MainSpeed = 42* * 0.1
  1: 0x010A [0x1F] MOVE_ENTITY: EventEntity moves to X=309.656*, Z=0.986*, Y=-4.397*
  2: 0x0112 [0x1F] MOVE_ENTITY: Update entity position (mode=1)
  3: 0x0114 [0x6F] WAIT_FRAME_DELAY: Yield until WaitTime reaches zero
  4: 0x0115 [0x00] END_REQSTACK()
```

### Event 65535.14

#### Metadata

| Field        | Value    |
|--------------|----------|
| Entrypoint   | 0x0116   |
| Data Size    | 18 bytes |
| Instructions | 6        |

```
      00 01 02 03 04 05 06 07  08 09 0A 0B 0C 0D 0E 0F
      -- -- -- -- -- -- -- --  -- -- -- -- -- -- -- --
0110:                   1C 11  80 32 25 80 1F 00 26 80        ...2%...&.
0120: 27 80 28 80 1F 01 6F 00                           '.(...o.        
```

#### Opcodes

```
  0: 0x0116 [0x1C] WAIT(15* ticks)
  1: 0x0119 [0x32] ExtData[1]->MainSpeed = 40* * 0.1
  2: 0x011C [0x1F] MOVE_ENTITY: EventEntity moves to X=310.674*, Z=-0.587*, Y=-4.334*
  3: 0x0124 [0x1F] MOVE_ENTITY: Update entity position (mode=1)
  4: 0x0126 [0x6F] WAIT_FRAME_DELAY: Yield until WaitTime reaches zero
  5: 0x0127 [0x00] END_REQSTACK()
```

### Event 65535.15

#### Metadata

| Field        | Value    |
|--------------|----------|
| Entrypoint   | 0x0128   |
| Data Size    | 18 bytes |
| Instructions | 6        |

```
      00 01 02 03 04 05 06 07  08 09 0A 0B 0C 0D 0E 0F
      -- -- -- -- -- -- -- --  -- -- -- -- -- -- -- --
0120:                          1C 11 80 32 1D 80 1F 00          ...2....
0130: 29 80 2A 80 2B 80 1F 01  6F 00                    ).*.+...o.      
```

#### Opcodes

```
  0: 0x0128 [0x1C] WAIT(15* ticks)
  1: 0x012B [0x32] ExtData[1]->MainSpeed = 37* * 0.1
  2: 0x012E [0x1F] MOVE_ENTITY: EventEntity moves to X=312.974*, Z=2.003*, Y=-4.190*
  3: 0x0136 [0x1F] MOVE_ENTITY: Update entity position (mode=1)
  4: 0x0138 [0x6F] WAIT_FRAME_DELAY: Yield until WaitTime reaches zero
  5: 0x0139 [0x00] END_REQSTACK()
```

### Event 65535.16

#### Metadata

| Field        | Value    |
|--------------|----------|
| Entrypoint   | 0x013A   |
| Data Size    | 15 bytes |
| Instructions | 5        |

```
      00 01 02 03 04 05 06 07  08 09 0A 0B 0C 0D 0E 0F
      -- -- -- -- -- -- -- --  -- -- -- -- -- -- -- --
0130:                                32 2C 80 1F 00 2D            2,...-
0140: 80 2E 80 2F 80 1F 01 6F  00                       .../...o.       
```

#### Opcodes

```
  0: 0x013A [0x32] ExtData[1]->MainSpeed = 41* * 0.1
  1: 0x013D [0x1F] MOVE_ENTITY: EventEntity moves to X=314.813*, Z=0.466*, Y=-4.075*
  2: 0x0145 [0x1F] MOVE_ENTITY: Update entity position (mode=1)
  3: 0x0147 [0x6F] WAIT_FRAME_DELAY: Yield until WaitTime reaches zero
  4: 0x0148 [0x00] END_REQSTACK()
```

### Event 65535.17

#### Metadata

| Field        | Value    |
|--------------|----------|
| Entrypoint   | 0x0149   |
| Data Size    | 18 bytes |
| Instructions | 6        |

```
      00 01 02 03 04 05 06 07  08 09 0A 0B 0C 0D 0E 0F
      -- -- -- -- -- -- -- --  -- -- -- -- -- -- -- --
0140:                             1C 1C 80 32 19 80 1F           ...2...
0150: 00 30 80 31 80 32 80 1F  01 6F 00                 .0.1.2...o.     
```

#### Opcodes

```
  0: 0x0149 [0x1C] WAIT(10* ticks)
  1: 0x014C [0x32] ExtData[1]->MainSpeed = 39* * 0.1
  2: 0x014F [0x1F] MOVE_ENTITY: EventEntity moves to X=314.234*, Z=4.692*, Y=-4.156*
  3: 0x0157 [0x1F] MOVE_ENTITY: Update entity position (mode=1)
  4: 0x0159 [0x6F] WAIT_FRAME_DELAY: Yield until WaitTime reaches zero
  5: 0x015A [0x00] END_REQSTACK()
```

### Event 65535.18

#### Metadata

| Field        | Value    |
|--------------|----------|
| Entrypoint   | 0x015B   |
| Data Size    | 15 bytes |
| Instructions | 5        |

```
      00 01 02 03 04 05 06 07  08 09 0A 0B 0C 0D 0E 0F
      -- -- -- -- -- -- -- --  -- -- -- -- -- -- -- --
0150:                                   32 2C 80 1F 00             2,...
0160: 33 80 34 80 35 80 1F 01  6F 00                    3.4.5...o.      
```

#### Opcodes

```
  0: 0x015B [0x32] ExtData[1]->MainSpeed = 41* * 0.1
  1: 0x015E [0x1F] MOVE_ENTITY: EventEntity moves to X=153.814*, Z=-6.997*, Y=-3.629*
  2: 0x0166 [0x1F] MOVE_ENTITY: Update entity position (mode=1)
  3: 0x0168 [0x6F] WAIT_FRAME_DELAY: Yield until WaitTime reaches zero
  4: 0x0169 [0x00] END_REQSTACK()
```

### Event 65535.19

#### Metadata

| Field        | Value    |
|--------------|----------|
| Entrypoint   | 0x016A   |
| Data Size    | 18 bytes |
| Instructions | 6        |

```
      00 01 02 03 04 05 06 07  08 09 0A 0B 0C 0D 0E 0F
      -- -- -- -- -- -- -- --  -- -- -- -- -- -- -- --
0160:                                1C 11 80 32 19 80            ...2..
0170: 1F 00 36 80 37 80 38 80  1F 01 6F 00              ..6.7.8...o.    
```

#### Opcodes

```
  0: 0x016A [0x1C] WAIT(15* ticks)
  1: 0x016D [0x32] ExtData[1]->MainSpeed = 39* * 0.1
  2: 0x0170 [0x1F] MOVE_ENTITY: EventEntity moves to X=155.063*, Z=-5.530*, Y=-3.882*
  3: 0x0178 [0x1F] MOVE_ENTITY: Update entity position (mode=1)
  4: 0x017A [0x6F] WAIT_FRAME_DELAY: Yield until WaitTime reaches zero
  5: 0x017B [0x00] END_REQSTACK()
```

### Event 65535.20

#### Metadata

| Field        | Value    |
|--------------|----------|
| Entrypoint   | 0x017C   |
| Data Size    | 18 bytes |
| Instructions | 6        |

```
      00 01 02 03 04 05 06 07  08 09 0A 0B 0C 0D 0E 0F
      -- -- -- -- -- -- -- --  -- -- -- -- -- -- -- --
0170:                                      1C 17 80 32              ...2
0180: 1D 80 1F 00 39 80 3A 80  3B 80 1F 01 6F 00        ....9.:.;...o.  
```

#### Opcodes

```
  0: 0x017C [0x1C] WAIT(20* ticks)
  1: 0x017F [0x32] ExtData[1]->MainSpeed = 37* * 0.1
  2: 0x0182 [0x1F] MOVE_ENTITY: EventEntity moves to X=171.365*, Z=-12.172*, Y=-2.939*
  3: 0x018A [0x1F] MOVE_ENTITY: Update entity position (mode=1)
  4: 0x018C [0x6F] WAIT_FRAME_DELAY: Yield until WaitTime reaches zero
  5: 0x018D [0x00] END_REQSTACK()
```

### Event 65535.21

#### Metadata

| Field        | Value    |
|--------------|----------|
| Entrypoint   | 0x018E   |
| Data Size    | 18 bytes |
| Instructions | 6        |

```
      00 01 02 03 04 05 06 07  08 09 0A 0B 0C 0D 0E 0F
      -- -- -- -- -- -- -- --  -- -- -- -- -- -- -- --
0180:                                            1C 1C                ..
0190: 80 32 25 80 1F 00 3C 80  3D 80 3E 80 1F 01 6F 00  .2%...<.=.>...o.
```

#### Opcodes

```
  0: 0x018E [0x1C] WAIT(10* ticks)
  1: 0x0191 [0x32] ExtData[1]->MainSpeed = 40* * 0.1
  2: 0x0194 [0x1F] MOVE_ENTITY: EventEntity moves to X=170.163*, Z=-12.866*, Y=-2.688*
  3: 0x019C [0x1F] MOVE_ENTITY: Update entity position (mode=1)
  4: 0x019E [0x6F] WAIT_FRAME_DELAY: Yield until WaitTime reaches zero
  5: 0x019F [0x00] END_REQSTACK()
```

### Event 65535.22

#### Metadata

| Field        | Value   |
|--------------|---------|
| Entrypoint   | 0x01A0  |
| Data Size    | 1 bytes |
| Instructions | 1       |

```
      00 01 02 03 04 05 06 07  08 09 0A 0B 0C 0D 0E 0F
      -- -- -- -- -- -- -- --  -- -- -- -- -- -- -- --
01A0: 00                                                .               
```

#### Opcodes

```
  0: 0x01A0 [0x00] END_REQSTACK()
```

### Event 65535.23

#### Metadata

| Field        | Value    |
|--------------|----------|
| Entrypoint   | 0x01A1   |
| Data Size    | 18 bytes |
| Instructions | 4        |

```
      00 01 02 03 04 05 06 07  08 09 0A 0B 0C 0D 0E 0F
      -- -- -- -- -- -- -- --  -- -- -- -- -- -- -- --
01A0:    22 00 2F 00 F8 FF FF  7F 6C F8 FF FF 7F 0E 80   "./.....l......
01B0: 3F 80 00                                          ?..             
```

#### Opcodes

```
  0: 0x01A1 [0x22] ENTITY_HIDE_FLAG(enabled=0x00)
  1: 0x01A3 [0x2F] EventEntity->Render.Flags0 &= ~0x80000 // Bit 19
  2: 0x01A9 [0x6C] FADE_ENTITY_COLOR(entity_id=EventEntity, end_alpha=0*, fade_time=1*)
  3: 0x01B2 [0x00] END_REQSTACK()
```

### Event 65535.24

#### Metadata

| Field        | Value    |
|--------------|----------|
| Entrypoint   | 0x01B3   |
| Data Size    | 10 bytes |
| Instructions | 2        |

```
      00 01 02 03 04 05 06 07  08 09 0A 0B 0C 0D 0E 0F
      -- -- -- -- -- -- -- --  -- -- -- -- -- -- -- --
01B0:          6C F8 FF FF 7F  40 80 3F 80 00              l....@.?..   
```

#### Opcodes

```
  0: 0x01B3 [0x6C] FADE_ENTITY_COLOR(entity_id=EventEntity, end_alpha=128*, fade_time=1*)
  1: 0x01BC [0x00] END_REQSTACK()
```

### Event 65535.25

#### Metadata

| Field        | Value   |
|--------------|---------|
| Entrypoint   | 0x01BD  |
| Data Size    | 9 bytes |
| Instructions | 3       |

```
      00 01 02 03 04 05 06 07  08 09 0A 0B 0C 0D 0E 0F
      -- -- -- -- -- -- -- --  -- -- -- -- -- -- -- --
01B0:                                         22 00 2F               "./
01C0: 00 F8 FF FF 7F 00                                 ......          
```

#### Opcodes

```
  0: 0x01BD [0x22] ENTITY_HIDE_FLAG(enabled=0x00)
  1: 0x01BF [0x2F] EventEntity->Render.Flags0 &= ~0x80000 // Bit 19
  2: 0x01C5 [0x00] END_REQSTACK()
```

### Event 65535.26

#### Metadata

| Field        | Value   |
|--------------|---------|
| Entrypoint   | 0x01C6  |
| Data Size    | 9 bytes |
| Instructions | 3       |

```
      00 01 02 03 04 05 06 07  08 09 0A 0B 0C 0D 0E 0F
      -- -- -- -- -- -- -- --  -- -- -- -- -- -- -- --
01C0:                   22 01  2F 01 F8 FF FF 7F 00           "./...... 
```

#### Opcodes

```
  0: 0x01C6 [0x22] ENTITY_HIDE_FLAG(enabled=0x01)
  1: 0x01C8 [0x2F] EventEntity->Render.Flags0 |= 0x80000 // Bit 19
  2: 0x01CE [0x00] END_REQSTACK()
```

### Event 65535.27

#### Metadata

| Field        | Value    |
|--------------|----------|
| Entrypoint   | 0x01CF   |
| Data Size    | 10 bytes |
| Instructions | 2        |

```
      00 01 02 03 04 05 06 07  08 09 0A 0B 0C 0D 0E 0F
      -- -- -- -- -- -- -- --  -- -- -- -- -- -- -- --
01C0:                                               6C                 l
01D0: F8 FF FF 7F 0E 80 3F 80  00                       ......?..       
```

#### Opcodes

```
  0: 0x01CF [0x6C] FADE_ENTITY_COLOR(entity_id=EventEntity, end_alpha=0*, fade_time=1*)
  1: 0x01D8 [0x00] END_REQSTACK()
```

### Event 65535.28

#### Metadata

| Field        | Value    |
|--------------|----------|
| Entrypoint   | 0x01D9   |
| Data Size    | 10 bytes |
| Instructions | 2        |

```
      00 01 02 03 04 05 06 07  08 09 0A 0B 0C 0D 0E 0F
      -- -- -- -- -- -- -- --  -- -- -- -- -- -- -- --
01D0:                             6C F8 FF FF 7F 40 80           l....@.
01E0: 3F 80 00                                          ?..             
```

#### Opcodes

```
  0: 0x01D9 [0x6C] FADE_ENTITY_COLOR(entity_id=EventEntity, end_alpha=128*, fade_time=1*)
  1: 0x01E2 [0x00] END_REQSTACK()
```
