# 17167227

## Common Data

| Field            | Value                          |
|------------------|--------------------------------|
| Zone             | West Sarutabaruta [S] (ID: 95) |
| Block Size       | 232 bytes                      |
| Total Events     | 14                             |
| References Count | 6                              |

## List of Events

| Event ID                   | Entrypoint   |   Size |   Instructions |
|----------------------------|--------------|--------|----------------|
| [65535](#event-65535)      | 0x0000       |      1 |              1 |
| [107](#event-107)          | 0x0001       |      1 |              1 |
| [112](#event-112)          | 0x0002       |      1 |              1 |
| [113](#event-113)          | 0x0003       |      1 |              1 |
| [65535.1](#event-655351)   | 0x0004       |     10 |              2 |
| [65535.2](#event-655352)   | 0x000E       |     10 |              2 |
| [65535.3](#event-655353)   | 0x0018       |     10 |              2 |
| [65535.4](#event-655354)   | 0x0022       |     10 |              2 |
| [65535.5](#event-655355)   | 0x002C       |     10 |              2 |
| [65535.6](#event-655356)   | 0x0036       |     10 |              2 |
| [65535.7](#event-655357)   | 0x0040       |     10 |              2 |
| [65535.8](#event-655358)   | 0x004A       |     10 |              2 |
| [65535.9](#event-655359)   | 0x0054       |     11 |              3 |
| [65535.10](#event-6553510) | 0x005F       |     38 |              4 |

## DAT References (imed_data)

|   Index | Hex Value   |   Dec Value |
|---------|-------------|-------------|
|       0 | 0x0080      |         128 |
|       1 | 0x0001      |           1 |
|       2 | 0x003C      |          60 |
|       3 | 0x0000      |           0 |
|       4 | 0x007F      |         127 |
|       5 | 0x005A      |          90 |

## Events

### Event 65535

#### Metadata

| Field        | Value   |
|--------------|---------|
| Entrypoint   | 0x0000  |
| Data Size    | 1 bytes |
| Instructions | 1       |

```
      00 01 02 03 04 05 06 07  08 09 0A 0B 0C 0D 0E 0F
      -- -- -- -- -- -- -- --  -- -- -- -- -- -- -- --
0000: 00                                                .               
```

#### Opcodes

```
  0: 0x0000 [0x00] END_REQSTACK()
```

### Event 107

#### Metadata

| Field        | Value   |
|--------------|---------|
| Entrypoint   | 0x0001  |
| Data Size    | 1 bytes |
| Instructions | 1       |

```
      00 01 02 03 04 05 06 07  08 09 0A 0B 0C 0D 0E 0F
      -- -- -- -- -- -- -- --  -- -- -- -- -- -- -- --
0000:    00                                              .              
```

#### Opcodes

```
  0: 0x0001 [0x00] END_REQSTACK()
```

### Event 112

#### Metadata

| Field        | Value   |
|--------------|---------|
| Entrypoint   | 0x0002  |
| Data Size    | 1 bytes |
| Instructions | 1       |

```
      00 01 02 03 04 05 06 07  08 09 0A 0B 0C 0D 0E 0F
      -- -- -- -- -- -- -- --  -- -- -- -- -- -- -- --
0000:       00                                            .             
```

#### Opcodes

```
  0: 0x0002 [0x00] END_REQSTACK()
```

### Event 113

#### Metadata

| Field        | Value   |
|--------------|---------|
| Entrypoint   | 0x0003  |
| Data Size    | 1 bytes |
| Instructions | 1       |

```
      00 01 02 03 04 05 06 07  08 09 0A 0B 0C 0D 0E 0F
      -- -- -- -- -- -- -- --  -- -- -- -- -- -- -- --
0000:          00                                          .            
```

#### Opcodes

```
  0: 0x0003 [0x00] END_REQSTACK()
```

### Event 65535.1

#### Metadata

| Field        | Value    |
|--------------|----------|
| Entrypoint   | 0x0004   |
| Data Size    | 10 bytes |
| Instructions | 2        |

```
      00 01 02 03 04 05 06 07  08 09 0A 0B 0C 0D 0E 0F
      -- -- -- -- -- -- -- --  -- -- -- -- -- -- -- --
0000:             6C 9D F3 05  01 00 80 01 80 00            l.........  
```

#### Opcodes

```
  0: 0x0004 [0x6C] FADE_ENTITY_COLOR(entity_id=Karaha-Baruha (ID: 17167261/0x0105F39D), end_alpha=128*, fade_time=1*)
  1: 0x000D [0x00] END_REQSTACK()
```

### Event 65535.2

#### Metadata

| Field        | Value    |
|--------------|----------|
| Entrypoint   | 0x000E   |
| Data Size    | 10 bytes |
| Instructions | 2        |

```
      00 01 02 03 04 05 06 07  08 09 0A 0B 0C 0D 0E 0F
      -- -- -- -- -- -- -- --  -- -- -- -- -- -- -- --
0000:                                            6C 9C                l.
0010: F3 05 01 00 80 01 80 00                           ........        
```

#### Opcodes

```
  0: 0x000E [0x6C] FADE_ENTITY_COLOR(entity_id=Robel-Akbel (ID: 17167260/0x0105F39C), end_alpha=128*, fade_time=1*)
  1: 0x0017 [0x00] END_REQSTACK()
```

### Event 65535.3

#### Metadata

| Field        | Value    |
|--------------|----------|
| Entrypoint   | 0x0018   |
| Data Size    | 10 bytes |
| Instructions | 2        |

```
      00 01 02 03 04 05 06 07  08 09 0A 0B 0C 0D 0E 0F
      -- -- -- -- -- -- -- --  -- -- -- -- -- -- -- --
0010:                          6C CD F3 05 01 00 80 01          l.......
0020: 80 00                                             ..              
```

#### Opcodes

```
  0: 0x0018 [0x6C] FADE_ENTITY_COLOR(entity_id=Fenrir (ID: 17167309/0x0105F3CD), end_alpha=128*, fade_time=1*)
  1: 0x0021 [0x00] END_REQSTACK()
```

### Event 65535.4

#### Metadata

| Field        | Value    |
|--------------|----------|
| Entrypoint   | 0x0022   |
| Data Size    | 10 bytes |
| Instructions | 2        |

```
      00 01 02 03 04 05 06 07  08 09 0A 0B 0C 0D 0E 0F
      -- -- -- -- -- -- -- --  -- -- -- -- -- -- -- --
0020:       6C CD F3 05 01 00  80 02 80 00                l.........    
```

#### Opcodes

```
  0: 0x0022 [0x6C] FADE_ENTITY_COLOR(entity_id=Fenrir (ID: 17167309/0x0105F3CD), end_alpha=128*, fade_time=60*)
  1: 0x002B [0x00] END_REQSTACK()
```

### Event 65535.5

#### Metadata

| Field        | Value    |
|--------------|----------|
| Entrypoint   | 0x002C   |
| Data Size    | 10 bytes |
| Instructions | 2        |

```
      00 01 02 03 04 05 06 07  08 09 0A 0B 0C 0D 0E 0F
      -- -- -- -- -- -- -- --  -- -- -- -- -- -- -- --
0020:                                      6C CD F3 05              l...
0030: 01 03 80 01 80 00                                 ......          
```

#### Opcodes

```
  0: 0x002C [0x6C] FADE_ENTITY_COLOR(entity_id=Fenrir (ID: 17167309/0x0105F3CD), end_alpha=0*, fade_time=1*)
  1: 0x0035 [0x00] END_REQSTACK()
```

### Event 65535.6

#### Metadata

| Field        | Value    |
|--------------|----------|
| Entrypoint   | 0x0036   |
| Data Size    | 10 bytes |
| Instructions | 2        |

```
      00 01 02 03 04 05 06 07  08 09 0A 0B 0C 0D 0E 0F
      -- -- -- -- -- -- -- --  -- -- -- -- -- -- -- --
0030:                   6C C2  F3 05 01 00 80 01 80 00        l.........
```

#### Opcodes

```
  0: 0x0036 [0x6C] FADE_ENTITY_COLOR(entity_id=Y04 (ID: 17167298/0x0105F3C2), end_alpha=128*, fade_time=1*)
  1: 0x003F [0x00] END_REQSTACK()
```

### Event 65535.7

#### Metadata

| Field        | Value    |
|--------------|----------|
| Entrypoint   | 0x0040   |
| Data Size    | 10 bytes |
| Instructions | 2        |

```
      00 01 02 03 04 05 06 07  08 09 0A 0B 0C 0D 0E 0F
      -- -- -- -- -- -- -- --  -- -- -- -- -- -- -- --
0040: 6C C2 F3 05 01 03 80 01  80 00                    l.........      
```

#### Opcodes

```
  0: 0x0040 [0x6C] FADE_ENTITY_COLOR(entity_id=Y04 (ID: 17167298/0x0105F3C2), end_alpha=0*, fade_time=1*)
  1: 0x0049 [0x00] END_REQSTACK()
```

### Event 65535.8

#### Metadata

| Field        | Value    |
|--------------|----------|
| Entrypoint   | 0x004A   |
| Data Size    | 10 bytes |
| Instructions | 2        |

```
      00 01 02 03 04 05 06 07  08 09 0A 0B 0C 0D 0E 0F
      -- -- -- -- -- -- -- --  -- -- -- -- -- -- -- --
0040:                                6C B5 F3 05 01 00            l.....
0050: 80 01 80 00                                       ....            
```

#### Opcodes

```
  0: 0x004A [0x6C] FADE_ENTITY_COLOR(entity_id=M03 (ID: 17167285/0x0105F3B5), end_alpha=128*, fade_time=1*)
  1: 0x0053 [0x00] END_REQSTACK()
```

### Event 65535.9

#### Metadata

| Field        | Value    |
|--------------|----------|
| Entrypoint   | 0x0054   |
| Data Size    | 11 bytes |
| Instructions | 2        |

```
      00 01 02 03 04 05 06 07  08 09 0A 0B 0C 0D 0E 0F
      -- -- -- -- -- -- -- --  -- -- -- -- -- -- -- --
0050:             6C B5 F3 05  01 03 80 01 80 00 00         l.......... 
```

#### Opcodes

```
  0: 0x0054 [0x6C] FADE_ENTITY_COLOR(entity_id=M03 (ID: 17167285/0x0105F3B5), end_alpha=0*, fade_time=1*)
  1: 0x005D [0x00] END_REQSTACK()
```

#### Data or dead code:

```
# Dead code (unreachable instructions):
     0x005E [0x00] END_REQSTACK()
```

### Event 65535.10

#### Metadata

| Field        | Value    |
|--------------|----------|
| Entrypoint   | 0x005F   |
| Data Size    | 38 bytes |
| Instructions | 4        |

```
      00 01 02 03 04 05 06 07  08 09 0A 0B 0C 0D 0E 0F
      -- -- -- -- -- -- -- --  -- -- -- -- -- -- -- --
0050:                                               9F                 .
0060: 04 80 F8 FF FF 7F F8 FF  FF 7F 73 74 72 30 03 80  ..........str0..
0070: 1C 05 80 9F 04 80 F8 FF  FF 7F F8 FF FF 7F 6B 69  ..............ki
0080: 6C 6C 03 80 00                                    ll...           
```

#### Opcodes

```
  0: 0x005F [0x9F] LOAD_SCHEDULED_TASK_ALT: Load scheduler "str0" with entities [EventEntity, EventEntity], work=[127*, 0*]
  1: 0x0070 [0x1C] WAIT(90* ticks)
  2: 0x0073 [0x9F] LOAD_SCHEDULED_TASK_ALT: Load scheduler "kill" with entities [EventEntity, EventEntity], work=[127*, 0*]
  3: 0x0084 [0x00] END_REQSTACK()
```
