# 17167224 - Jubilant Pixie

## Common Data

| Field            | Value                          |
|------------------|--------------------------------|
| Zone             | West Sarutabaruta [S] (ID: 95) |
| Block Size       | 10240 bytes                    |
| Total Events     | 6                              |
| References Count | 194                            |

## List of Events

| Event ID              | Entrypoint   |   Size |   Instructions |
|-----------------------|--------------|--------|----------------|
| [65535](#event-65535) | 0x0000       |      1 |              1 |
| [4003](#event-4003)   | 0x0001       |    590 |            124 |
| [4004](#event-4004)   | 0x024F       |     33 |             14 |
| [114](#event-114)     | 0x0270       |   2719 |            338 |
| [115](#event-115)     | 0x0D0F       |   2681 |            334 |
| [116](#event-116)     | 0x1788       |   3400 |            401 |

## DAT References (imed_data)

|   Index | Hex Value   |   Dec Value |
|---------|-------------|-------------|
|       0 | 0x0008      |           8 |
|       1 | 0x0000      |           0 |
|       2 | 0x0001      |           1 |
|       3 | 0x0006      |           6 |
|       4 | 0x0007      |           7 |
|       5 | 0x0009      |           9 |
|       6 | 0x0005      |           5 |
|       7 | 0x000A      |          10 |
|       8 | 0x1F3B      |        7995 |
|       9 | 0x4849      |       18505 |
|      10 | 0x0002      |           2 |
|      11 | 0x494C      |       18764 |
|      12 | 0x0003      |           3 |
|      13 | 0x49B6      |       18870 |
|      14 | 0x0004      |           4 |
|      15 | 0x4A0A      |       18954 |
|      16 | 0x4561      |       17761 |
|      17 | 0x4AAB      |       19115 |
|      18 | 0x4562      |       17762 |
|      19 | 0x4A0B      |       18955 |
|      20 | 0x462E      |       17966 |
|      21 | 0x4AAC      |       19116 |
|      22 | 0x000B      |          11 |
|      23 | 0x4930      |       18736 |
|      24 | 0x000C      |          12 |
|      25 | 0x4814      |       18452 |
|      26 | 0x000D      |          13 |
|      27 | 0x4B4B      |       19275 |
|      28 | 0x000E      |          14 |
|      29 | 0x4B67      |       19303 |
|      30 | 0x000F      |          15 |
|      31 | 0x48A9      |       18601 |
|      32 | 0x0010      |          16 |
|      33 | 0x4563      |       17763 |
|      34 | 0x0011      |          17 |
|      35 | 0x4931      |       18737 |
|      36 | 0x0012      |          18 |
|      37 | 0x494D      |       18765 |
|      38 | 0x0013      |          19 |
|      39 | 0x4AAD      |       19117 |
|      40 | 0x0014      |          20 |
|      41 | 0x48AA      |       18602 |
|      42 | 0x1F3C      |        7996 |
|      43 | 0x1F3D      |        7997 |
|      44 | 0x00C9      |         201 |
|      45 | 0x1F3E      |        7998 |
|      46 | 0x0065      |         101 |
|      47 | 0x03E7      |         999 |
|      48 | 0x00CA      |         202 |
|      49 | 0x1F40      |        8000 |
|      50 | 0x1F41      |        8001 |
|      51 | 0x0066      |         102 |
|      52 | 0x1F42      |        8002 |
|      53 | 0x1F43      |        8003 |
|      54 | 0x1F44      |        8004 |
|      55 | 0x1F45      |        8005 |
|      56 | 0x1F46      |        8006 |
|      57 | 0x008D      |         141 |
|      58 | 0xFFFC42F8  |  4294722296 |
|      59 | 0xA1220     |      660000 |
|      60 | 0xFFFFB94C  |  4294949196 |
|      61 | 0x00C8      |         200 |
|      62 | 0xFFFC5028  |  4294725672 |
|      63 | 0xA117F     |      659839 |
|      64 | 0xFFFFBC93  |  4294950035 |
|      65 | 0x0782      |        1922 |
|      66 | 0xFFFC5C7D  |  4294728829 |
|      67 | 0x9F5EA     |      652778 |
|      68 | 0xFFFFBF25  |  4294950693 |
|      69 | 0x0A26      |        2598 |
|      70 | 0xFFFC40F3  |  4294721779 |
|      71 | 0xA003B     |      655419 |
|      72 | 0xFFFF3CB0  |  4294917296 |
|      73 | 0x08E5      |        2277 |
|      74 | 0x001E      |          30 |
|      75 | 0x0223      |         547 |
|      76 | 0x03B3      |         947 |
|      77 | 0x209B      |        8347 |
|      78 | 0x0078      |         120 |
|      79 | 0x003C      |          60 |
|      80 | 0x0028      |          40 |
|      81 | 0x0856      |        2134 |
|      82 | 0x209C      |        8348 |
|      83 | 0x0064      |         100 |
|      84 | 0x0032      |          50 |
|      85 | 0x085C      |        2140 |
|      86 | 0x0050      |          80 |
|      87 | 0x209D      |        8349 |
|      88 | 0xFFFC59F4  |  4294728180 |
|      89 | 0xA0A25     |      657957 |
|      90 | 0xFFFFBD1C  |  4294950172 |
|      91 | 0x092E      |        2350 |
|      92 | 0x00AA      |         170 |
|      93 | 0x209E      |        8350 |
|      94 | 0x0096      |         150 |
|      95 | 0x0854      |        2132 |
|      96 | 0x209F      |        8351 |
|      97 | 0x005A      |          90 |
|      98 | 0xFFFC4B5B  |  4294724443 |
|      99 | 0xA1173     |      659827 |
|     100 | 0xFFFFBC9E  |  4294950046 |
|     101 | 0xFFFC5A57  |  4294728279 |
|     102 | 0xA14F0     |      660720 |
|     103 | 0xFFFFBCCA  |  4294950090 |
|     104 | 0x07D0      |        2000 |
|     105 | 0x20A0      |        8352 |
|     106 | 0x006E      |         110 |
|     107 | 0x0857      |        2135 |
|     108 | 0x20A1      |        8353 |
|     109 | 0x0855      |        2133 |
|     110 | 0x20A2      |        8354 |
|     111 | 0x008C      |         140 |
|     112 | 0x08C0      |        2240 |
|     113 | 0x20A3      |        8355 |
|     114 | 0x0041      |          65 |
|     115 | 0x0015      |          21 |
|     116 | 0x0091      |         145 |
|     117 | 0x0850      |        2128 |
|     118 | 0x0046      |          70 |
|     119 | 0x20A4      |        8356 |
|     120 | 0x08C5      |        2245 |
|     121 | 0x20A5      |        8357 |
|     122 | 0x0087      |         135 |
|     123 | 0x20A6      |        8358 |
|     124 | 0x08C2      |        2242 |
|     125 | 0x20A7      |        8359 |
|     126 | 0x00A0      |         160 |
|     127 | 0x20A8      |        8360 |
|     128 | 0x20A9      |        8361 |
|     129 | 0x0154      |         340 |
|     130 | 0x20AA      |        8362 |
|     131 | 0x20AB      |        8363 |
|     132 | 0x20AC      |        8364 |
|     133 | 0x20AD      |        8365 |
|     134 | 0x20AE      |        8366 |
|     135 | 0x001D      |          29 |
|     136 | 0x20AF      |        8367 |
|     137 | 0x20B0      |        8368 |
|     138 | 0x20B1      |        8369 |
|     139 | 0x00B4      |         180 |
|     140 | 0x405B0     |      263600 |
|     141 | 0x9C40      |       40000 |
|     142 | 0xFFFFE690  |  4294960784 |
|     143 | 0x41340     |      267072 |
|     144 | 0x9B69      |       39785 |
|     145 | 0xFFFFEB09  |  4294961929 |
|     146 | 0x0806      |        2054 |
|     147 | 0x41F59     |      270169 |
|     148 | 0x790F      |       30991 |
|     149 | 0xFFFFED85  |  4294962565 |
|     150 | 0x0829      |        2089 |
|     151 | 0x0224      |         548 |
|     152 | 0x422B4     |      271028 |
|     153 | 0x9887      |       39047 |
|     154 | 0xFFFFEE59  |  4294962777 |
|     155 | 0x0833      |        2099 |
|     156 | 0x40EC7     |      265927 |
|     157 | 0x9B95      |       39829 |
|     158 | 0xFFFFEA85  |  4294961797 |
|     159 | 0x086A      |        2154 |
|     160 | 0x41FBA     |      270266 |
|     161 | 0x9FC4      |       40900 |
|     162 | 0xFFFFED9B  |  4294962587 |
|     163 | 0x081A      |        2074 |
|     164 | 0xFFFACFE0  |  4294627296 |
|     165 | 0xFFFA6EE7  |  4294602471 |
|     166 | 0x0721      |        1825 |
|     167 | 0xFFFACFFC  |  4294627324 |
|     168 | 0xFFFA7EF0  |  4294606576 |
|     169 | 0x0ABA      |        2746 |
|     170 | 0x0475      |        1141 |
|     171 | 0xFFFAF1CC  |  4294635980 |
|     172 | 0xFFFA8AA3  |  4294609571 |
|     173 | 0x0DD5      |        3541 |
|     174 | 0x05E2      |        1506 |
|     175 | 0xFFFACFF3  |  4294627315 |
|     176 | 0xFFFA7487  |  4294603911 |
|     177 | 0x0ABD      |        2749 |
|     178 | 0x0343      |         835 |
|     179 | 0xFFFACBAE  |  4294626222 |
|     180 | 0xFFFA8461  |  4294607969 |
|     181 | 0x0AFF      |        2815 |
|     182 | 0x0402      |        1026 |
|     183 | 0xFFFACE33  |  4294626867 |
|     184 | 0xFFFA8951  |  4294609233 |
|     185 | 0x0AD7      |        2775 |
|     186 | 0x0354      |         852 |
|     187 | 0x012C      |         300 |
|     188 | 0xFFFAD074  |  4294627444 |
|     189 | 0xFFFA77CF  |  4294604751 |
|     190 | 0x0AAA      |        2730 |
|     191 | 0x03E8      |        1000 |
|     192 | 0x002D      |          45 |
|     193 | 0x00D7      |         215 |

## String References

- **7995**: By my troth, what a thrilling battle! When thou landed the felling blow, a shiver ran down my wings! As promised, here is thy reward.
- **7996**: Dost thou find this enchantment to thy liking?
- **7997**: Accept the item? [Accept./Refuse. ($0 times remaining)]
- **7998**: Splendid! May it serve thee well.
- **8000**: Ah, 'tis unfortunate. Sadly, my folk are not well-versed in the penchants of adventurers these days...
- **8001**: In that event, we shall prepare thy weapon to be enchanted anew. May thou be once more triumphant in battle anon!
- **8002**: What's this? 'Twould appear that thy weapon can endure no further enchantments.
- **8003**: Though it may fall short of thy expectations, pray accept it.
- **8004**: Otherwise, we shall have no choice but to dispose of it.
- **8005**: Many thanks for thine assistance!
- **8006**: Pray accept this $0 as but a humble token of our gratitude.
- **8347**: This door has already been repaired with $3.
- **8350**: Lilisette applies $3 to the cracks on the entrance.
- **8358**: This door has already been repaired with $3, although perhaps not quite to the highest standard.
- **8363**: Lilisette prods testily at $3.
- **8365**: 3 became dislodged!

## Events

### Event 65535

#### Metadata

| Field        | Value   |
|--------------|---------|
| Entrypoint   | 0x0000  |
| Data Size    | 1 bytes |
| Instructions | 1       |

```
      00 01 02 03 04 05 06 07  08 09 0A 0B 0C 0D 0E 0F
      -- -- -- -- -- -- -- --  -- -- -- -- -- -- -- --
0000: 00                                                .               
```

#### Opcodes

```
  0: 0x0000 [0x00] END_REQSTACK()
```

### Event 4003

#### Metadata

| Field        | Value     |
|--------------|-----------|
| Entrypoint   | 0x0001    |
| Data Size    | 590 bytes |
| Instructions | 124       |

```
      00 01 02 03 04 05 06 07  08 09 0A 0B 0C 0D 0E 0F
      -- -- -- -- -- -- -- --  -- -- -- -- -- -- -- --
0000:    03 00 00 00 80 41 01  80 01 80 02 10 01 00 41   .....A........A
0010: 02 80 03 80 02 10 02 00  41 04 80 05 80 02 10 09  ........A.......
0020: 00 03 03 00 06 80 08 03  00 09 00 03 05 00 03 10  ................
0030: 03 06 00 04 10 03 07 00  05 10 41 01 80 01 80 06  ..........A.....
0040: 10 08 00 20 01 1C 07 80  1E F0 FF FF 7F 6F 70 1D  ... .........op.
0050: 08 80 23 02 02 00 02 80  80 63 00 03 04 00 09 80  ..#......c......
0060: 01 93 01 02 02 00 0A 80  80 73 00 03 04 00 0B 80  .........s......
0070: 01 93 01 02 02 00 0C 80  80 83 00 03 04 00 0D 80  ................
0080: 01 93 01 02 02 00 0E 80  80 93 00 03 04 00 0F 80  ................
0090: 01 93 01 02 02 00 06 80  80 A3 00 03 04 00 10 80  ................
00A0: 01 93 01 02 02 00 03 80  80 B3 00 03 04 00 11 80  ................
00B0: 01 93 01 02 02 00 04 80  80 C3 00 03 04 00 12 80  ................
00C0: 01 93 01 02 02 00 00 80  80 D3 00 03 04 00 13 80  ................
00D0: 01 93 01 02 02 00 05 80  80 E3 00 03 04 00 14 80  ................
00E0: 01 93 01 02 02 00 07 80  80 F3 00 03 04 00 15 80  ................
00F0: 01 93 01 02 02 00 16 80  80 03 01 03 04 00 17 80  ................
0100: 01 93 01 02 02 00 18 80  80 13 01 03 04 00 19 80  ................
0110: 01 93 01 02 02 00 1A 80  80 23 01 03 04 00 1B 80  .........#......
0120: 01 93 01 02 02 00 1C 80  80 33 01 03 04 00 1D 80  .........3......
0130: 01 93 01 02 02 00 1E 80  80 43 01 03 04 00 1F 80  .........C......
0140: 01 93 01 02 02 00 20 80  80 53 01 03 04 00 21 80  ...... ..S....!.
0150: 01 93 01 02 02 00 22 80  80 63 01 03 04 00 23 80  ......"..c....#.
0160: 01 93 01 02 02 00 24 80  80 73 01 03 04 00 25 80  ......$..s....%.
0170: 01 93 01 02 02 00 26 80  80 83 01 03 04 00 27 80  ......&.......'.
0180: 01 93 01 02 02 00 28 80  80 93 01 03 04 00 29 80  ......(.......).
0190: 01 93 01 CC 01 04 00 05  00 06 00 07 00 1D 2A 80  ..............*.
01A0: 23 93 01 80 03 02 10 03  00 24 2B 80 01 80 01 80  #........$+.....
01B0: 25 02 00 10 01 80 00 FC  01 03 01 10 2C 80 43 00  %...........,.C.
01C0: 43 01 03 0A 00 02 10 02  0A 00 0C 80 00 F4 01 1D  C...............
01D0: 2D 80 23 03 01 10 2E 80  02 08 00 01 80 00 F1 01  -.#.............
01E0: 45 2C 80 F8 FF FF 7F F8  FF FF 7F 71 73 74 63 01  E,.........qstc.
01F0: 80 01 F9 01 03 01 10 2F  80 01 4C 02 02 00 10 02  ......./..L.....
0200: 80 00 4C 02 03 01 10 30  80 43 00 43 01 03 0A 00  ..L....0.C.C....
0210: 02 10 02 0A 00 0C 80 00  44 02 02 03 00 01 80 02  ........D.......
0220: 32 02 1D 31 80 23 1D 32  80 23 03 01 10 33 80 01  2..1.#.2.#...3..
0230: 41 02 1D 34 80 23 1D 35  80 23 1D 36 80 23 01 A4  A..4.#.5.#.6.#..
0240: 01 01 49 02 03 01 10 2F  80 01 4C 02 42 21 00     ..I..../..L.B!. 
```

#### Opcodes

```
  0: 0x0001 [0x03] ExtData[1]->WorkLocal[0] = 8*
  1: 0x0006 [0x41] ExtData[1]->WorkLocal[1] = Work_Zone[2] (bits 0*-0*)
  2: 0x000F [0x41] ExtData[1]->WorkLocal[2] = Work_Zone[2] (bits 1*-6*)
  3: 0x0018 [0x41] ExtData[1]->WorkLocal[9] = Work_Zone[2] (bits 7*-9*)
  4: 0x0021 [0x03] ExtData[1]->WorkLocal[3] = 5*
  5: 0x0026 [0x08] ExtData[1]->WorkLocal[3] -= ExtData[1]->WorkLocal[9]
  6: 0x002B [0x03] ExtData[1]->WorkLocal[5] = Work_Zone[3]
  7: 0x0030 [0x03] ExtData[1]->WorkLocal[6] = Work_Zone[4]
  8: 0x0035 [0x03] ExtData[1]->WorkLocal[7] = Work_Zone[5]
  9: 0x003A [0x41] ExtData[1]->WorkLocal[8] = Work_Zone[6] (bits 0*-0*)
 10: 0x0043 [0x20] SET_CLI_EVENT_UC_FLAG: Lock player control
 11: 0x0045 [0x1C] WAIT(10* ticks)
 12: 0x0048 [0x1E] EventEntity looks at LocalPlayer and starts talking
 13: 0x004D [0x6F] WAIT_FRAME_DELAY: Yield until WaitTime reaches zero
 14: 0x004E [0x70] WAIT_ENTITY_RENDER_FLAG: Wait while EventEntity->Render.Flags3 bit 2 is set (cancel turn if not)
 15: 0x004F [0x1D] PRINT_EVENT_MESSAGE(message_id=7995*)
    → "By my troth, what a thrilling battle! When thou landed the felling blow, a shiver ran down my wings! As promised, here is thy reward."
 16: 0x0052 [0x23] WAIT_FOR_DIALOG_INTERACTION
 17: 0x0053 [0x02] IF !(ExtData[1]->WorkLocal[2] == 1*) GOTO 0x0063
 18: 0x005B [0x03] ExtData[1]->WorkLocal[4] = 18505*
 19: 0x0060 [0x01] GOTO 0x0193
 20: 0x0063 [0x02] IF !(ExtData[1]->WorkLocal[2] == 2*) GOTO 0x0073
 21: 0x006B [0x03] ExtData[1]->WorkLocal[4] = 18764*
 22: 0x0070 [0x01] GOTO 0x0193
 23: 0x0073 [0x02] IF !(ExtData[1]->WorkLocal[2] == 3*) GOTO 0x0083
 24: 0x007B [0x03] ExtData[1]->WorkLocal[4] = 18870*
 25: 0x0080 [0x01] GOTO 0x0193
 26: 0x0083 [0x02] IF !(ExtData[1]->WorkLocal[2] == 4*) GOTO 0x0093
 27: 0x008B [0x03] ExtData[1]->WorkLocal[4] = 18954*
 28: 0x0090 [0x01] GOTO 0x0193
 29: 0x0093 [0x02] IF !(ExtData[1]->WorkLocal[2] == 5*) GOTO 0x00A3
 30: 0x009B [0x03] ExtData[1]->WorkLocal[4] = 17761*
 31: 0x00A0 [0x01] GOTO 0x0193
 32: 0x00A3 [0x02] IF !(ExtData[1]->WorkLocal[2] == 6*) GOTO 0x00B3
 33: 0x00AB [0x03] ExtData[1]->WorkLocal[4] = 19115*
 34: 0x00B0 [0x01] GOTO 0x0193
 35: 0x00B3 [0x02] IF !(ExtData[1]->WorkLocal[2] == 7*) GOTO 0x00C3
 36: 0x00BB [0x03] ExtData[1]->WorkLocal[4] = 17762*
 37: 0x00C0 [0x01] GOTO 0x0193
 38: 0x00C3 [0x02] IF !(ExtData[1]->WorkLocal[2] == 8*) GOTO 0x00D3
 39: 0x00CB [0x03] ExtData[1]->WorkLocal[4] = 18955*
 40: 0x00D0 [0x01] GOTO 0x0193
 41: 0x00D3 [0x02] IF !(ExtData[1]->WorkLocal[2] == 9*) GOTO 0x00E3
 42: 0x00DB [0x03] ExtData[1]->WorkLocal[4] = 17966*
 43: 0x00E0 [0x01] GOTO 0x0193
 44: 0x00E3 [0x02] IF !(ExtData[1]->WorkLocal[2] == 10*) GOTO 0x00F3
 45: 0x00EB [0x03] ExtData[1]->WorkLocal[4] = 19116*
 46: 0x00F0 [0x01] GOTO 0x0193
 47: 0x00F3 [0x02] IF !(ExtData[1]->WorkLocal[2] == 11*) GOTO 0x0103
 48: 0x00FB [0x03] ExtData[1]->WorkLocal[4] = 18736*
 49: 0x0100 [0x01] GOTO 0x0193
 50: 0x0103 [0x02] IF !(ExtData[1]->WorkLocal[2] == 12*) GOTO 0x0113
 51: 0x010B [0x03] ExtData[1]->WorkLocal[4] = 18452*
 52: 0x0110 [0x01] GOTO 0x0193
 53: 0x0113 [0x02] IF !(ExtData[1]->WorkLocal[2] == 13*) GOTO 0x0123
 54: 0x011B [0x03] ExtData[1]->WorkLocal[4] = 19275*
 55: 0x0120 [0x01] GOTO 0x0193
 56: 0x0123 [0x02] IF !(ExtData[1]->WorkLocal[2] == 14*) GOTO 0x0133
 57: 0x012B [0x03] ExtData[1]->WorkLocal[4] = 19303*
 58: 0x0130 [0x01] GOTO 0x0193
 59: 0x0133 [0x02] IF !(ExtData[1]->WorkLocal[2] == 15*) GOTO 0x0143
 60: 0x013B [0x03] ExtData[1]->WorkLocal[4] = 18601*
 61: 0x0140 [0x01] GOTO 0x0193
 62: 0x0143 [0x02] IF !(ExtData[1]->WorkLocal[2] == 16*) GOTO 0x0153
 63: 0x014B [0x03] ExtData[1]->WorkLocal[4] = 17763*
 64: 0x0150 [0x01] GOTO 0x0193
 65: 0x0153 [0x02] IF !(ExtData[1]->WorkLocal[2] == 17*) GOTO 0x0163
 66: 0x015B [0x03] ExtData[1]->WorkLocal[4] = 18737*
 67: 0x0160 [0x01] GOTO 0x0193
 68: 0x0163 [0x02] IF !(ExtData[1]->WorkLocal[2] == 18*) GOTO 0x0173
 69: 0x016B [0x03] ExtData[1]->WorkLocal[4] = 18765*
 70: 0x0170 [0x01] GOTO 0x0193
 71: 0x0173 [0x02] IF !(ExtData[1]->WorkLocal[2] == 19*) GOTO 0x0183
 72: 0x017B [0x03] ExtData[1]->WorkLocal[4] = 19117*
 73: 0x0180 [0x01] GOTO 0x0193
 74: 0x0183 [0x02] IF !(ExtData[1]->WorkLocal[2] == 20*) GOTO 0x0193
 75: 0x018B [0x03] ExtData[1]->WorkLocal[4] = 18602*
 76: 0x0190 [0x01] GOTO 0x0193

SUBROUTINE_0193:
 77: 0x0193 [0xCC] ITEM_INFO_WINDOW_HANDLER(case=0x01 - Open item info window (with chase), check_value=ExtData[1]->WorkLocal[4], buffer1=ExtData[1]->WorkLocal[5], buffer2=ExtData[1]->WorkLocal[6], buffer3=ExtData[1]->WorkLocal[7])
 78: 0x019D [0x1D] PRINT_EVENT_MESSAGE(message_id=7996*)
    → "Dost thou find this enchantment to thy liking?"
 79: 0x01A0 [0x23] WAIT_FOR_DIALOG_INTERACTION
 80: 0x01A1 [0x93] DISPLAY_ITEM_INFO(item_id=0*)

SUBROUTINE_01A4:
 81: 0x01A4 [0x03] Work_Zone[2] = ExtData[1]->WorkLocal[3]
 82: 0x01A9 [0x24] CREATE_DIALOG(message_id=7997*, default_option=0*, option_flags=0*)
    → "Accept the item? [Accept./Refuse. ($0 times remaining)]"
 83: 0x01B0 [0x25] WAIT_DIALOG_SELECT()
 84: 0x01B1 [0x02] IF !(Work_Zone[0] == 0*) GOTO 0x01FC
 85: 0x01B9 [0x03] Work_Zone[1] = 201*
 86: 0x01BE [0x43] SEND_EVENT_UPDATE: Send pending tag to server (packet 0x005B)
 87: 0x01C0 [0x43] SEND_EVENT_UPDATE: Check pending flag (skip if not pending)
 88: 0x01C2 [0x03] ExtData[1]->WorkLocal[10] = Work_Zone[2]
 89: 0x01C7 [0x02] IF !(ExtData[1]->WorkLocal[10] == 3*) GOTO 0x01F4
 90: 0x01CF [0x1D] PRINT_EVENT_MESSAGE(message_id=7998*)
    → "Splendid! May it serve thee well."
 91: 0x01D2 [0x23] WAIT_FOR_DIALOG_INTERACTION
 92: 0x01D3 [0x03] Work_Zone[1] = 101*
 93: 0x01D8 [0x02] IF !(ExtData[1]->WorkLocal[8] == 0*) GOTO 0x01F1
 94: 0x01E0 [0x45] LOAD_SCHEDULED_TASK: Load scheduler "qstc" with entities [EventEntity, EventEntity], work=[201*, 0*]
 95: 0x01F1 [0x01] GOTO 0x01F9
 96: 0x01F4 [0x03] Work_Zone[1] = 999*

SUBROUTINE_01F9:
 97: 0x01F9 [0x01] GOTO 0x024C
 98: 0x01FC [0x02] IF !(Work_Zone[0] == 1*) GOTO 0x024C
 99: 0x0204 [0x03] Work_Zone[1] = 202*
100: 0x0209 [0x43] SEND_EVENT_UPDATE: Send pending tag to server (packet 0x005B)
101: 0x020B [0x43] SEND_EVENT_UPDATE: Check pending flag (skip if not pending)
102: 0x020D [0x03] ExtData[1]->WorkLocal[10] = Work_Zone[2]
103: 0x0212 [0x02] IF !(ExtData[1]->WorkLocal[10] == 3*) GOTO 0x0244
104: 0x021A [0x02] IF !(ExtData[1]->WorkLocal[3] <= 0*) GOTO 0x0232
105: 0x0222 [0x1D] PRINT_EVENT_MESSAGE(message_id=8000*)
    → "Ah, 'tis unfortunate. Sadly, my folk are not well-versed in the penchants of adventurers these days..."
106: 0x0225 [0x23] WAIT_FOR_DIALOG_INTERACTION
107: 0x0226 [0x1D] PRINT_EVENT_MESSAGE(message_id=8001*)
    → "In that event, we shall prepare thy weapon to be enchanted anew. May thou be once more triumphant in battle anon!"
108: 0x0229 [0x23] WAIT_FOR_DIALOG_INTERACTION
109: 0x022A [0x03] Work_Zone[1] = 102*
110: 0x022F [0x01] GOTO 0x0241
111: 0x0232 [0x1D] PRINT_EVENT_MESSAGE(message_id=8002*)
    → "What's this? 'Twould appear that thy weapon can endure no further enchantments."
112: 0x0235 [0x23] WAIT_FOR_DIALOG_INTERACTION
113: 0x0236 [0x1D] PRINT_EVENT_MESSAGE(message_id=8003*)
    → "Though it may fall short of thy expectations, pray accept it."
114: 0x0239 [0x23] WAIT_FOR_DIALOG_INTERACTION
115: 0x023A [0x1D] PRINT_EVENT_MESSAGE(message_id=8004*)
    → "Otherwise, we shall have no choice but to dispose of it."
116: 0x023D [0x23] WAIT_FOR_DIALOG_INTERACTION
117: 0x023E [0x01] GOTO 0x01A4

SUBROUTINE_0241:
118: 0x0241 [0x01] GOTO 0x0249
119: 0x0244 [0x03] Work_Zone[1] = 999*

SUBROUTINE_0249:
120: 0x0249 [0x01] GOTO 0x024C

SUBROUTINE_024C:
121: 0x024C [0x42] SET_CLI_EVENT_CANCEL_DATA()
122: 0x024D [0x21] END_EVENT
123: 0x024E [0x00] END_REQSTACK()
```

### Event 4004

#### Metadata

| Field        | Value    |
|--------------|----------|
| Entrypoint   | 0x024F   |
| Data Size    | 33 bytes |
| Instructions | 14       |

```
      00 01 02 03 04 05 06 07  08 09 0A 0B 0C 0D 0E 0F
      -- -- -- -- -- -- -- --  -- -- -- -- -- -- -- --
0240:                                               03                 .
0250: 0B 00 02 10 20 01 1C 07  80 1E F0 FF FF 7F 6F 70  .... .........op
0260: 1D 37 80 23 03 02 10 0B  00 1D 38 80 23 42 21 00  .7.#......8.#B!.
```

#### Opcodes

```
  0: 0x024F [0x03] ExtData[1]->WorkLocal[11] = Work_Zone[2]
  1: 0x0254 [0x20] SET_CLI_EVENT_UC_FLAG: Lock player control
  2: 0x0256 [0x1C] WAIT(10* ticks)
  3: 0x0259 [0x1E] EventEntity looks at LocalPlayer and starts talking
  4: 0x025E [0x6F] WAIT_FRAME_DELAY: Yield until WaitTime reaches zero
  5: 0x025F [0x70] WAIT_ENTITY_RENDER_FLAG: Wait while EventEntity->Render.Flags3 bit 2 is set (cancel turn if not)
  6: 0x0260 [0x1D] PRINT_EVENT_MESSAGE(message_id=8005*)
    → "Many thanks for thine assistance!"
  7: 0x0263 [0x23] WAIT_FOR_DIALOG_INTERACTION
  8: 0x0264 [0x03] Work_Zone[2] = ExtData[1]->WorkLocal[11]
  9: 0x0269 [0x1D] PRINT_EVENT_MESSAGE(message_id=8006*)
    → "Pray accept this $0 as but a humble token of our gratitude."
 10: 0x026C [0x23] WAIT_FOR_DIALOG_INTERACTION
 11: 0x026D [0x42] SET_CLI_EVENT_CANCEL_DATA()
 12: 0x026E [0x21] END_EVENT
 13: 0x026F [0x00] END_REQSTACK()
```

### Event 114

#### Metadata

| Field        | Value      |
|--------------|------------|
| Entrypoint   | 0x0270     |
| Data Size    | 2719 bytes |
| Instructions | 338        |

```
      00 01 02 03 04 05 06 07  08 09 0A 0B 0C 0D 0E 0F
      -- -- -- -- -- -- -- --  -- -- -- -- -- -- -- --
0270: 42 1A A2 22 46 01 38 26  80 03 0D 00 03 10 27 10  B.."F.8&......'.
0280: 82 F3 05 01 02 27 10 83  F3 05 01 02 27 10 55 F3  .....'......'.U.
0290: 05 01 10 92 01 82 F3 05  01 92 01 83 F3 05 01 92  ................
02A0: 01 55 F3 05 01 94 01 82  F3 05 01 94 01 83 F3 05  .U..............
02B0: 01 94 01 55 F3 05 01 94  01 F0 FF FF 7F 80 82 F3  ...U............
02C0: 05 01 80 83 F3 05 01 80  55 F3 05 01 80 F0 FF FF  ........U.......
02D0: 7F 29 10 F0 FF FF 7F 02  03 0C 00 02 10 5C 00 39  .)...........\.9
02E0: 80 5C 01 39 80 9A 59 05  83 F3 05 01 01 BA 83 F3  .\.9..Y.........
02F0: 05 01 3A 80 3B 80 3C 80  01 80 02 0D 00 02 80 80  ..:.;.<.........
0300: 08 03 1A 43 03 01 24 03  02 0D 00 0A 80 80 16 03  ...C..$.........
0310: 1A 14 06 01 24 03 02 0D  00 0C 80 80 24 03 1A 0A  ....$.......$...
0320: 09 01 24 03 28 10 F0 FF  FF 7F 20 1C 06 80 46 00  ..$.(..... ...F.
0330: 45 3D 80 F0 FF FF 7F F0  FF FF 7F 66 64 69 32 01  E=.........fdi2.
0340: 80 21 00 BA F0 FF FF 7F  3E 80 3F 80 40 80 41 80  .!......>.?.@.A.
0350: BA 55 F3 05 01 42 80 43  80 44 80 45 80 59 05 82  .U...B.C.D.E.Y..
0360: F3 05 01 01 BA 82 F3 05  01 46 80 47 80 48 80 49  .........F.G.H.I
0370: 80 4A F0 FF FF 7F 83 F3  05 01 1C 4A 80 45 4B 80  .J.........J.EK.
0380: F8 FF FF 7F F8 FF FF 7F  77 30 33 30 01 80 1A 81  ........w030....
0390: 22 03 02 10 4C 80 48 4D  80 1C 4E 80 23 1A E4 22  "...L.HM..N.#.."
03A0: 1C 4A 80 52 4B 80 F8 FF  FF 7F F8 FF FF 7F 77 30  .J.RK.........w0
03B0: 33 30 27 10 55 F3 05 01  08 27 10 F0 FF FF 7F 1D  30'.U....'......
03C0: 1C 4F 80 27 10 55 F3 05  01 04 45 4B 80 F8 FF FF  .O.'.U....EK....
03D0: 7F F8 FF FF 7F 77 30 33  31 01 80 1A FD 21 1C 50  .....w031....!.P
03E0: 80 1C 4E 80 4A F0 FF FF  7F 55 F3 05 01 2A 10 55  ..N.J....U...*.U
03F0: F3 05 01 1C 50 80 5B 51  80 55 F3 05 01 55 F3 05  ....P.[Q.U...U..
0400: 01 74 68 61 30 52 4B 80  F8 FF FF 7F F8 FF FF 7F  .tha0RK.........
0410: 77 30 33 31 45 4B 80 F8  FF FF 7F F8 FF FF 7F 6F  w031EK.........o
0420: 76 34 30 01 80 45 4B 80  F8 FF FF 7F F8 FF FF 7F  v40..EK.........
0430: 77 30 33 32 01 80 2B 55  F3 05 01 52 80 1C 53 80  w032..+U...R..S.
0440: 23 5B 51 80 55 F3 05 01  55 F3 05 01 74 68 61 31  #[Q.U...U...tha1
0450: 1C 4E 80 27 10 55 F3 05  01 05 1C 50 80 52 4B 80  .N.'.U.....P.RK.
0460: F8 FF FF 7F F8 FF FF 7F  77 30 33 32 45 4B 80 F8  ........w032EK..
0470: FF FF 7F F8 FF FF 7F 6F  76 34 30 01 80 45 4B 80  .......ov40..EK.
0480: F8 FF FF 7F F8 FF FF 7F  77 30 33 33 01 80 1C 54  ........w033...T
0490: 80 27 10 F0 FF FF 7F 1E  2A 10 55 F3 05 01 4A 55  .'......*.U...JU
04A0: F3 05 01 83 F3 05 01 1C  4A 80 4A F0 FF FF 7F 55  ........J.J....U
04B0: F3 05 01 1C 4A 80 7B 55  F3 05 01 5B 55 80 55 F3  ....J.{U...[U.U.
04C0: 05 01 55 F3 05 01 61 61  6E 30 1C 56 80 2B 55 F3  ..U...aan0.V.+U.
04D0: 05 01 57 80 1C 28 80 52  4B 80 F8 FF FF 7F F8 FF  ..W..(.RK.......
04E0: FF 7F 77 30 33 33 45 4B  80 F8 FF FF 7F F8 FF FF  ..w033EK........
04F0: 7F 6F 76 34 30 01 80 45  4B 80 F8 FF FF 7F F8 FF  .ov40..EK.......
0500: FF 7F 77 30 33 34 01 80  1C 02 80 BA F0 FF FF 7F  ..w034..........
0510: 58 80 59 80 5A 80 5B 80  1C 5C 80 23 52 4B 80 F8  X.Y.Z.[..\.#RK..
0520: FF FF 7F F8 FF FF 7F 77  30 33 34 45 4B 80 F8 FF  .......w034EK...
0530: FF 7F F8 FF FF 7F 6F 76  34 30 01 80 45 4B 80 F8  ......ov40..EK..
0540: FF FF 7F F8 FF FF 7F 77  30 33 35 01 80 03 02 10  .......w035.....
0550: 4C 80 48 5D 80 23 1C 53  80 5B 55 80 55 F3 05 01  L.H].#.S.[U.U...
0560: 55 F3 05 01 61 61 6E 31  1C 5E 80 5B 5F 80 55 F3  U...aan1.^.[_.U.
0570: 05 01 55 F3 05 01 74 6C  63 30 52 4B 80 F8 FF FF  ..U...tlc0RK....
0580: 7F F8 FF FF 7F 77 30 33  35 45 4B 80 F8 FF FF 7F  .....w035EK.....
0590: F8 FF FF 7F 77 30 33 36  01 80 2B 55 F3 05 01 60  ....w036..+U...`
05A0: 80 1C 61 80 23 52 4B 80  F8 FF FF 7F F8 FF FF 7F  ..a.#RK.........
05B0: 77 30 33 36 45 4B 80 F8  FF FF 7F F8 FF FF 7F 6F  w036EK.........o
05C0: 76 34 30 01 80 45 4B 80  F8 FF FF 7F F8 FF FF 7F  v40..EK.........
05D0: 77 30 33 37 01 80 27 10  55 F3 05 01 06 1C 56 80  w037..'.U.....V.
05E0: 4A F0 FF FF 7F 55 F3 05  01 1C 56 80 4A F0 FF FF  J....U....V.J...
05F0: 7F 55 F3 05 01 1C 4F 80  1A A2 22 1C 4A 80 52 4B  .U....O...".J.RK
0600: 80 F8 FF FF 7F F8 FF FF  7F 77 30 33 37 7A 00 55  .........w037z.U
0610: F3 05 01 1B 5B 5F 80 55  F3 05 01 55 F3 05 01 00  ....[_.U...U....
0620: FE FE FE 1C 06 80 BA F0  FF FF 7F 3E 80 3F 80 40  ...........>.?.@
0630: 80 41 80 BA 55 F3 05 01  62 80 63 80 64 80 41 80  .A..U...b.c.d.A.
0640: 59 05 82 F3 05 01 01 BA  82 F3 05 01 46 80 47 80  Y...........F.G.
0650: 48 80 49 80 4A F0 FF FF  7F 83 F3 05 01 4A 55 F3  H.I.J........JU.
0660: 05 01 83 F3 05 01 7B 55  F3 05 01 5B 55 80 55 F3  ......{U...[U.U.
0670: 05 01 55 F3 05 01 61 61  6E 6C 1C 4A 80 45 4B 80  ..U...aanl.J.EK.
0680: F8 FF FF 7F F8 FF FF 7F  77 30 33 30 01 80 1A 81  ........w030....
0690: 22 03 02 10 4C 80 48 4D  80 1C 4E 80 23 1A E4 22  "...L.HM..N.#.."
06A0: 1C 4A 80 52 4B 80 F8 FF  FF 7F F8 FF FF 7F 77 30  .J.RK.........w0
06B0: 33 30 27 10 55 F3 05 01  08 27 10 F0 FF FF 7F 1D  30'.U....'......
06C0: BA F0 FF FF 7F 65 80 66  80 67 80 68 80 4A F0 FF  .....e.f.g.h.J..
06D0: FF 7F 55 F3 05 01 1C 4F  80 5B 55 80 55 F3 05 01  ..U....O.[U.U...
06E0: 55 F3 05 01 61 61 6E 31  45 4B 80 F8 FF FF 7F F8  U...aan1EK......
06F0: FF FF 7F 77 32 33 31 01  80 1A FD 21 03 02 10 4C  ...w231....!...L
0700: 80 48 5D 80 23 1C 5C 80  52 4B 80 F8 FF FF 7F F8  .H].#.\.RK......
0710: FF FF 7F 77 32 33 31 45  4B 80 F8 FF FF 7F F8 FF  ...w231EK.......
0720: FF 7F 77 32 33 32 01 80  5B 5F 80 55 F3 05 01 55  ..w232..[_.U...U
0730: F3 05 01 74 6C 63 30 2B  55 F3 05 01 69 80 1C 6A  ...tlc0+U...i..j
0740: 80 23 81 00 55 F3 05 01  7C 00 55 F3 05 01 5B 6B  .#..U...|.U...[k
0750: 80 55 F3 05 01 55 F3 05  01 66 61 30 31 5B 5F 80  .U...U...fa01[_.
0760: 55 F3 05 01 55 F3 05 01  74 6C 63 31 52 4B 80 F8  U...U...tlc1RK..
0770: FF FF 7F F8 FF FF 7F 77  32 33 32 45 4B 80 F8 FF  .......w232EK...
0780: FF 7F F8 FF FF 7F 6F 76  34 30 01 80 45 4B 80 F8  ......ov40..EK..
0790: FF FF 7F F8 FF FF 7F 77  32 33 34 01 80 2B 55 F3  .......w234..+U.
07A0: 05 01 6C 80 1C 53 80 23  5B 6B 80 55 F3 05 01 55  ..l..S.#[k.U...U
07B0: F3 05 01 66 61 30 30 5B  6D 80 55 F3 05 01 55 F3  ...fa00[m.U...U.
07C0: 05 01 74 68 62 30 1C 4A  80 52 4B 80 F8 FF FF 7F  ..thb0.J.RK.....
07D0: F8 FF FF 7F 77 32 33 34  45 4B 80 F8 FF FF 7F F8  ....w234EK......
07E0: FF FF 7F 77 32 33 35 01  80 2B 55 F3 05 01 6E 80  ...w235..+U...n.
07F0: 1C 6F 80 23 5B 6B 80 55  F3 05 01 55 F3 05 01 66  .o.#[k.U...U...f
0800: 61 30 31 5B 70 80 55 F3  05 01 55 F3 05 01 6B 61  a01[p.U...U...ka
0810: 69 30 52 4B 80 F8 FF FF  7F F8 FF FF 7F 77 32 33  i0RK.........w23
0820: 35 45 4B 80 F8 FF FF 7F  F8 FF FF 7F 6F 76 33 30  5EK.........ov30
0830: 01 80 45 4B 80 F8 FF FF  7F F8 FF FF 7F 77 32 33  ..EK.........w23
0840: 36 01 80 1C 4A 80 2B 55  F3 05 01 71 80 1C 72 80  6...J.+U...q..r.
0850: 6E F0 FF FF 7F 73 80 99  F0 FF FF 7F 1C 74 80 23  n....s.......t.#
0860: 5B 6B 80 55 F3 05 01 55  F3 05 01 66 32 30 31 5B  [k.U...U...f201[
0870: 75 80 55 F3 05 01 55 F3  05 01 68 64 62 31 52 4B  u.U...U...hdb1RK
0880: 80 F8 FF FF 7F F8 FF FF  7F 77 32 33 36 45 4B 80  .........w236EK.
0890: F8 FF FF 7F F8 FF FF 7F  6F 76 34 30 01 80 45 4B  ........ov40..EK
08A0: 80 F8 FF FF 7F F8 FF FF  7F 77 32 33 37 01 80 1C  .........w237...
08B0: 76 80 2B 55 F3 05 01 77  80 23 5B 78 80 55 F3 05  v.+U...w.#[x.U..
08C0: 01 55 F3 05 01 6B 69 61  30 52 4B 80 F8 FF FF 7F  .U...kia0RK.....
08D0: F8 FF FF 7F 77 32 33 37  45 4B 80 F8 FF FF 7F F8  ....w237EK......
08E0: FF FF 7F 77 32 33 38 01  80 2B 55 F3 05 01 79 80  ...w238..+U...y.
08F0: 1C 7A 80 23 52 4B 80 F8  FF FF 7F F8 FF FF 7F 77  .z.#RK.........w
0900: 32 33 38 1A A2 22 1C 4A  80 1B BA F0 FF FF 7F 3E  238..".J.......>
0910: 80 3F 80 40 80 41 80 BA  55 F3 05 01 62 80 63 80  .?.@.A..U...b.c.
0920: 64 80 41 80 59 05 82 F3  05 01 01 BA 82 F3 05 01  d.A.Y...........
0930: 46 80 47 80 48 80 49 80  4A F0 FF FF 7F 83 F3 05  F.G.H.I.J.......
0940: 01 4A 55 F3 05 01 83 F3  05 01 7B 55 F3 05 01 1C  .JU.......{U....
0950: 4A 80 45 4B 80 F8 FF FF  7F F8 FF FF 7F 77 30 33  J.EK.........w03
0960: 30 01 80 1A 81 22 03 02  10 4C 80 48 7B 80 1C 4E  0...."...L.H{..N
0970: 80 23 1A E4 22 1C 4A 80  52 4B 80 F8 FF FF 7F F8  .#..".J.RK......
0980: FF FF 7F 77 30 33 30 27  10 55 F3 05 01 08 27 10  ...w030'.U....'.
0990: F0 FF FF 7F 1D BA F0 FF  FF 7F 65 80 66 80 67 80  ..........e.f.g.
09A0: 68 80 4A F0 FF FF 7F 55  F3 05 01 1C 4F 80 5B 7C  h.J....U....O.[|
09B0: 80 55 F3 05 01 55 F3 05  01 68 64 63 30 1C 4F 80  .U...U...hdc0.O.
09C0: 45 4B 80 F8 FF FF 7F F8  FF FF 7F 77 34 33 31 01  EK.........w431.
09D0: 80 1A FD 21 2B 55 F3 05  01 7D 80 23 52 4B 80 F8  ...!+U...}.#RK..
09E0: FF FF 7F F8 FF FF 7F 77  34 33 31 45 4B 80 F8 FF  .......w431EK...
09F0: FF 7F F8 FF FF 7F 6F 76  34 30 01 80 45 4B 80 F8  ......ov40..EK..
0A00: FF FF 7F F8 FF FF 7F 77  34 33 32 01 80 03 02 10  .......w432.....
0A10: 4C 80 48 5D 80 1C 56 80  5B 7C 80 55 F3 05 01 55  L.H]..V.[|.U...U
0A20: F3 05 01 68 64 63 31 1C  7E 80 81 00 55 F3 05 01  ...hdc1.~...U...
0A30: 5B 75 80 55 F3 05 01 55  F3 05 01 79 61 68 30 52  [u.U...U...yah0R
0A40: 4B 80 F8 FF FF 7F F8 FF  FF 7F 77 34 33 32 45 4B  K.........w432EK
0A50: 80 F8 FF FF 7F F8 FF FF  7F 77 34 33 33 01 80 2B  .........w433..+
0A60: 55 F3 05 01 7F 80 1C 6A  80 23 5B 75 80 55 F3 05  U......j.#[u.U..
0A70: 01 55 F3 05 01 79 61 68  31 52 4B 80 F8 FF FF 7F  .U...yah1RK.....
0A80: F8 FF FF 7F 77 34 33 33  45 4B 80 F8 FF FF 7F F8  ....w433EK......
0A90: FF FF 7F 6F 76 34 30 01  80 45 4B 80 F8 FF FF 7F  ...ov40..EK.....
0AA0: F8 FF FF 7F 77 34 33 34  01 80 1C 53 80 5B 6D 80  ....w434...S.[m.
0AB0: 55 F3 05 01 55 F3 05 01  74 68 62 30 1C 4F 80 52  U...U...thb0.O.R
0AC0: 4B 80 F8 FF FF 7F F8 FF  FF 7F 77 34 33 34 45 4B  K.........w434EK
0AD0: 80 F8 FF FF 7F F8 FF FF  7F 6F 76 34 30 01 80 45  .........ov40..E
0AE0: 4B 80 F8 FF FF 7F F8 FF  FF 7F 77 34 33 35 01 80  K.........w435..
0AF0: 2B 55 F3 05 01 80 80 1C  81 80 23 52 4B 80 F8 FF  +U........#RK...
0B00: FF 7F F8 FF FF 7F 77 34  33 35 45 4B 80 F8 FF FF  ......w435EK....
0B10: 7F F8 FF FF 7F 6F 76 34  30 01 80 45 4B 80 F8 FF  .....ov40..EK...
0B20: FF 7F F8 FF FF 7F 77 34  33 36 01 80 5B 6D 80 55  ......w436..[m.U
0B30: F3 05 01 55 F3 05 01 74  68 62 31 1C 4E 80 5B 55  ...U...thb1.N.[U
0B40: 80 55 F3 05 01 55 F3 05  01 61 61 6E 30 2B 55 F3  .U...U...aan0+U.
0B50: 05 01 82 80 1C 3D 80 23  52 4B 80 F8 FF FF 7F F8  .....=.#RK......
0B60: FF FF 7F 77 34 33 36 45  4B 80 F8 FF FF 7F F8 FF  ...w436EK.......
0B70: FF 7F 6F 76 34 30 01 80  45 4B 80 F8 FF FF 7F F8  ..ov40..EK......
0B80: FF FF 7F 77 34 33 37 01  80 48 83 80 1C 4E 80 2B  ...w437..H...N.+
0B90: 55 F3 05 01 84 80 23 48  83 80 1C 4E 80 48 85 80  U.....#H...N.H..
0BA0: 6E F0 FF FF 7F 73 80 99  F0 FF FF 7F 1C 6F 80 7C  n....s.......o.|
0BB0: 00 55 F3 05 01 81 00 55  F3 05 01 5B 6B 80 55 F3  .U.....U...[k.U.
0BC0: 05 01 55 F3 05 01 66 66  30 31 1C 02 80 52 4B 80  ..U...ff01...RK.
0BD0: F8 FF FF 7F F8 FF FF 7F  77 34 33 37 45 4B 80 F8  ........w437EK..
0BE0: FF FF 7F F8 FF FF 7F 77  34 33 38 01 80 2B 55 F3  .......w438..+U.
0BF0: 05 01 86 80 1C 54 80 5B  6B 80 55 F3 05 01 55 F3  .....T.[k.U...U.
0C00: 05 01 66 66 30 30 23 52  4B 80 F8 FF FF 7F F8 FF  ..ff00#RK.......
0C10: FF 7F 77 34 33 38 45 4B  80 F8 FF FF 7F F8 FF FF  ..w438EK........
0C20: 7F 6F 76 34 30 01 80 45  4B 80 F8 FF FF 7F F8 FF  .ov40..EK.......
0C30: FF 7F 77 34 33 39 01 80  6E F0 FF FF 7F 87 80 99  ..w439..n.......
0C40: F0 FF FF 7F 1C 4F 80 2B  55 F3 05 01 88 80 1C 7E  .....O.+U......~
0C50: 80 23 1A A2 22 52 4B 80  F8 FF FF 7F F8 FF FF 7F  .#.."RK.........
0C60: 77 34 33 39 1C 61 80 48  5D 80 23 1C 5E 80 81 01  w439.a.H].#.^...
0C70: 55 F3 05 01 7C 01 55 F3  05 01 5B 6B 80 55 F3 05  U...|.U...[k.U..
0C80: 01 55 F3 05 01 66 30 30  30 5B 55 80 55 F3 05 01  .U...f000[U.U...
0C90: 55 F3 05 01 61 61 6E 31  45 4B 80 F8 FF FF 7F F8  U...aan1EK......
0CA0: FF FF 7F 77 34 34 30 01  80 1A 16 24 1C 4F 80 2B  ...w440....$.O.+
0CB0: 55 F3 05 01 89 80 23 5B  7C 80 55 F3 05 01 55 F3  U.....#[|.U...U.
0CC0: 05 01 68 64 63 30 52 4B  80 F8 FF FF 7F F8 FF FF  ..hdc0RK........
0CD0: 7F 77 34 34 30 45 4B 80  F8 FF FF 7F F8 FF FF 7F  .w440EK.........
0CE0: 77 34 34 31 01 80 2B 55  F3 05 01 8A 80 1C 8B 80  w441..+U........
0CF0: 1C 53 80 1A A2 22 7A 00  55 F3 05 01 52 4B 80 F8  .S..."z.U...RK..
0D00: FF FF 7F F8 FF FF 7F 77  34 34 31 1C 4A 80 1B     .......w441.J.. 
```

#### Opcodes

```
  0: 0x0270 [0x42] SET_CLI_EVENT_CANCEL_DATA()
  1: 0x0271 [0x1A] CALL_SUBROUTINE(address=0x22A2)
  2: 0x0274 [0x46] CAMERA_CONTROL: Disable user control
  3: 0x0276 [0x38] SET_CLIENT_EVENT_MODE(mode=19*)
  4: 0x0279 [0x03] ExtData[1]->WorkLocal[13] = Work_Zone[3]
  5: 0x027E [0x27] REQ_SET(priority=0x10, entity_id=Unnamed NPC (ID: 17167234/0x0105F382), tag_num=0x02)
  6: 0x0285 [0x27] REQ_SET(priority=0x10, entity_id=Unnamed NPC (ID: 17167235/0x0105F383), tag_num=0x02)
  7: 0x028C [0x27] REQ_SET(priority=0x10, entity_id=Lilisette (ID: 17167189/0x0105F355), tag_num=0x10)
  8: 0x0293 [0x92] Unnamed NPC (ID: 17167234/0x0105F382)->Render.Flags3 ^= 0x01
  9: 0x0299 [0x92] Unnamed NPC (ID: 17167235/0x0105F383)->Render.Flags3 ^= 0x01
 10: 0x029F [0x92] Lilisette (ID: 17167189/0x0105F355)->Render.Flags3 ^= 0x01
 11: 0x02A5 [0x94] Unnamed NPC (ID: 17167234/0x0105F382)->Render.Flags3 ^= 0x01
 12: 0x02AB [0x94] Unnamed NPC (ID: 17167235/0x0105F383)->Render.Flags3 ^= 0x01
 13: 0x02B1 [0x94] Lilisette (ID: 17167189/0x0105F355)->Render.Flags3 ^= 0x01
 14: 0x02B7 [0x94] LocalPlayer->Render.Flags3 ^= 0x01
 15: 0x02BD [0x80] LOAD_WAIT(entity=Unnamed NPC (ID: 17167234/0x0105F382))
 16: 0x02C2 [0x80] LOAD_WAIT(entity=Unnamed NPC (ID: 17167235/0x0105F383))
 17: 0x02C7 [0x80] LOAD_WAIT(entity=Lilisette (ID: 17167189/0x0105F355))
 18: 0x02CC [0x80] LOAD_WAIT(entity=LocalPlayer)
 19: 0x02D1 [0x29] REQ_SET_WAIT(priority=0x10, entity_id=LocalPlayer, tag_num=0x02)
 20: 0x02D8 [0x03] ExtData[1]->WorkLocal[12] = Work_Zone[2]
 21: 0x02DD [0x5C] MUSIC_CONTROL: Set Idle (Day) music to song 141*
 22: 0x02E1 [0x5C] MUSIC_CONTROL: Set Idle (Night) music to song 141*
 23: 0x02E5 [0x9A] WAIT_MUSIC_SERVER()
 24: 0x02E6 [0x59] UPDATE_ENTITY_DATA: Unnamed NPC (ID: 17167235/0x0105F383)->Render.Flags0 |= 0x200000
 25: 0x02ED [0xBA] SET_ENTITY_POSITION(entity_id=Unnamed NPC (ID: 17167235/0x0105F383), pos_x=-245.000*, pos_z=660.000*, pos_y=-18.100*, direction=0.0°*)
 26: 0x02FA [0x02] IF !(ExtData[1]->WorkLocal[13] == 1*) GOTO 0x0308
 27: 0x0302 [0x1A] CALL_SUBROUTINE(address=0x0343)
 28: 0x0305 [0x01] GOTO 0x0324
 29: 0x0308 [0x02] IF !(ExtData[1]->WorkLocal[13] == 2*) GOTO 0x0316
 30: 0x0310 [0x1A] CALL_SUBROUTINE(address=0x0614)
 31: 0x0313 [0x01] GOTO 0x0324
 32: 0x0316 [0x02] IF !(ExtData[1]->WorkLocal[13] == 3*) GOTO 0x0324
 33: 0x031E [0x1A] CALL_SUBROUTINE(address=0x090A)
 34: 0x0321 [0x01] GOTO 0x0324

SUBROUTINE_0324:
 35: 0x0324 [0x28] REQ_SET_WITH_CONDITIONS(priority=0x10, target_entity=LocalPlayer, tag_num=0x20)
 36: 0x032B [0x1C] WAIT(5* ticks)
 37: 0x032E [0x46] CAMERA_CONTROL: Restore default settings
 38: 0x0330 [0x45] LOAD_SCHEDULED_TASK: Load scheduler "fdi2" with entities [LocalPlayer, LocalPlayer], work=[200*, 0*]
 39: 0x0341 [0x21] END_EVENT
 40: 0x0342 [0x00] END_REQSTACK()

SUBROUTINE_0343:
 41: 0x0343 [0xBA] SET_ENTITY_POSITION(entity_id=LocalPlayer, pos_x=-241.624*, pos_z=659.839*, pos_y=-17.261*, direction=168.9°*)
 42: 0x0350 [0xBA] SET_ENTITY_POSITION(entity_id=Lilisette (ID: 17167189/0x0105F355), pos_x=-238.467*, pos_z=652.778*, pos_y=-16.603*, direction=228.3°*)
 43: 0x035D [0x59] UPDATE_ENTITY_DATA: Unnamed NPC (ID: 17167234/0x0105F382)->Render.Flags0 |= 0x200000
 44: 0x0364 [0xBA] SET_ENTITY_POSITION(entity_id=Unnamed NPC (ID: 17167234/0x0105F382), pos_x=-245.517*, pos_z=655.419*, pos_y=-50.000*, direction=200.1°*)
 45: 0x0371 [0x4A] LocalPlayer looks at Unnamed NPC (ID: 17167235/0x0105F383)
 46: 0x037A [0x1C] WAIT(30* ticks)
 47: 0x037D [0x45] LOAD_SCHEDULED_TASK: Load scheduler "w030" with entities [EventEntity, EventEntity], work=[547*, 0*]
 48: 0x038E [0x1A] CALL_SUBROUTINE(address=0x2281)
 49: 0x0391 [0x03] Work_Zone[2] = 947*
 50: 0x0396 [0x48] [System] [8347*]:
    → "This door has already been repaired with $3."
 51: 0x0399 [0x1C] WAIT(120* ticks)
 52: 0x039C [0x23] WAIT_FOR_DIALOG_INTERACTION
 53: 0x039D [0x1A] CALL_SUBROUTINE(address=0x22E4)
 54: 0x03A0 [0x1C] WAIT(30* ticks)
 55: 0x03A3 [0x52] END_LOAD_SCHEDULER: End scheduler "w030" with entities [EventEntity, EventEntity], work=547*
 56: 0x03B2 [0x27] REQ_SET(priority=0x10, entity_id=Lilisette (ID: 17167189/0x0105F355), tag_num=0x08)
 57: 0x03B9 [0x27] REQ_SET(priority=0x10, entity_id=LocalPlayer, tag_num=0x1D)
 58: 0x03C0 [0x1C] WAIT(60* ticks)
 59: 0x03C3 [0x27] REQ_SET(priority=0x10, entity_id=Lilisette (ID: 17167189/0x0105F355), tag_num=0x04)
 60: 0x03CA [0x45] LOAD_SCHEDULED_TASK: Load scheduler "w031" with entities [EventEntity, EventEntity], work=[547*, 0*]
 61: 0x03DB [0x1A] CALL_SUBROUTINE(address=0x21FD)
 62: 0x03DE [0x1C] WAIT(40* ticks)
 63: 0x03E1 [0x1C] WAIT(120* ticks)
 64: 0x03E4 [0x4A] LocalPlayer looks at Lilisette (ID: 17167189/0x0105F355)
 65: 0x03ED [0x2A] GET_REQ_LEVEL(level=16, entity_id=Lilisette (ID: 17167189/0x0105F355))
 66: 0x03F3 [0x1C] WAIT(40* ticks)
 67: 0x03F6 [0x5B] LOAD_EXT_SCHEDULER: Load scheduler "tha0" with entities [Lilisette (ID: 17167189/0x0105F355), Lilisette (ID: 17167189/0x0105F355)], work=2134*
 68: 0x0405 [0x52] END_LOAD_SCHEDULER: End scheduler "w031" with entities [EventEntity, EventEntity], work=547*
 69: 0x0414 [0x45] LOAD_SCHEDULED_TASK: Load scheduler "ov40" with entities [EventEntity, EventEntity], work=[547*, 0*]
 70: 0x0425 [0x45] LOAD_SCHEDULED_TASK: Load scheduler "w032" with entities [EventEntity, EventEntity], work=[547*, 0*]
 71: 0x0436 [0x2B] Lilisette (ID: 17167189/0x0105F355) [8348*]:
    → "So here is where the magic towers are found."
 72: 0x043D [0x1C] WAIT(100* ticks)
 73: 0x0440 [0x23] WAIT_FOR_DIALOG_INTERACTION
 74: 0x0441 [0x5B] LOAD_EXT_SCHEDULER: Load scheduler "tha1" with entities [Lilisette (ID: 17167189/0x0105F355), Lilisette (ID: 17167189/0x0105F355)], work=2134*
 75: 0x0450 [0x1C] WAIT(120* ticks)
 76: 0x0453 [0x27] REQ_SET(priority=0x10, entity_id=Lilisette (ID: 17167189/0x0105F355), tag_num=0x05)
 77: 0x045A [0x1C] WAIT(40* ticks)
 78: 0x045D [0x52] END_LOAD_SCHEDULER: End scheduler "w032" with entities [EventEntity, EventEntity], work=547*
 79: 0x046C [0x45] LOAD_SCHEDULED_TASK: Load scheduler "ov40" with entities [EventEntity, EventEntity], work=[547*, 0*]
 80: 0x047D [0x45] LOAD_SCHEDULED_TASK: Load scheduler "w033" with entities [EventEntity, EventEntity], work=[547*, 0*]
 81: 0x048E [0x1C] WAIT(50* ticks)
 82: 0x0491 [0x27] REQ_SET(priority=0x10, entity_id=LocalPlayer, tag_num=0x1E)
 83: 0x0498 [0x2A] GET_REQ_LEVEL(level=16, entity_id=Lilisette (ID: 17167189/0x0105F355))
 84: 0x049E [0x4A] Lilisette (ID: 17167189/0x0105F355) looks at Unnamed NPC (ID: 17167235/0x0105F383)
 85: 0x04A7 [0x1C] WAIT(30* ticks)
 86: 0x04AA [0x4A] LocalPlayer looks at Lilisette (ID: 17167189/0x0105F355)
 87: 0x04B3 [0x1C] WAIT(30* ticks)
 88: 0x04B6 [0x7B] Lilisette (ID: 17167189/0x0105F355) stops talking
 89: 0x04BB [0x5B] LOAD_EXT_SCHEDULER: Load scheduler "aan0" with entities [Lilisette (ID: 17167189/0x0105F355), Lilisette (ID: 17167189/0x0105F355)], work=2140*
 90: 0x04CA [0x1C] WAIT(80* ticks)
 91: 0x04CD [0x2B] Lilisette (ID: 17167189/0x0105F355) [8349*]:
    → "And all I'm required to do is mend cracks using the putty..."
 92: 0x04D4 [0x1C] WAIT(20* ticks)
 93: 0x04D7 [0x52] END_LOAD_SCHEDULER: End scheduler "w033" with entities [EventEntity, EventEntity], work=547*
 94: 0x04E6 [0x45] LOAD_SCHEDULED_TASK: Load scheduler "ov40" with entities [EventEntity, EventEntity], work=[547*, 0*]
 95: 0x04F7 [0x45] LOAD_SCHEDULED_TASK: Load scheduler "w034" with entities [EventEntity, EventEntity], work=[547*, 0*]
 96: 0x0508 [0x1C] WAIT(1* ticks)
 97: 0x050B [0xBA] SET_ENTITY_POSITION(entity_id=LocalPlayer, pos_x=-239.116*, pos_z=657.957*, pos_y=-17.124*, direction=206.5°*)
 98: 0x0518 [0x1C] WAIT(170* ticks)
 99: 0x051B [0x23] WAIT_FOR_DIALOG_INTERACTION
100: 0x051C [0x52] END_LOAD_SCHEDULER: End scheduler "w034" with entities [EventEntity, EventEntity], work=547*
101: 0x052B [0x45] LOAD_SCHEDULED_TASK: Load scheduler "ov40" with entities [EventEntity, EventEntity], work=[547*, 0*]
102: 0x053C [0x45] LOAD_SCHEDULED_TASK: Load scheduler "w035" with entities [EventEntity, EventEntity], work=[547*, 0*]
103: 0x054D [0x03] Work_Zone[2] = 947*
104: 0x0552 [0x48] [System] [8350*]:
    → "Lilisette applies $3 to the cracks on the entrance."
105: 0x0555 [0x23] WAIT_FOR_DIALOG_INTERACTION
106: 0x0556 [0x1C] WAIT(100* ticks)
107: 0x0559 [0x5B] LOAD_EXT_SCHEDULER: Load scheduler "aan1" with entities [Lilisette (ID: 17167189/0x0105F355), Lilisette (ID: 17167189/0x0105F355)], work=2140*
108: 0x0568 [0x1C] WAIT(150* ticks)
109: 0x056B [0x5B] LOAD_EXT_SCHEDULER: Load scheduler "tlc0" with entities [Lilisette (ID: 17167189/0x0105F355), Lilisette (ID: 17167189/0x0105F355)], work=2132*
110: 0x057A [0x52] END_LOAD_SCHEDULER: End scheduler "w035" with entities [EventEntity, EventEntity], work=547*
111: 0x0589 [0x45] LOAD_SCHEDULED_TASK: Load scheduler "w036" with entities [EventEntity, EventEntity], work=[547*, 0*]
112: 0x059A [0x2B] Lilisette (ID: 17167189/0x0105F355) [8351*]:
    → "Well, that was a piece of cake. I didn't even break a single bead of sweat!"
113: 0x05A1 [0x1C] WAIT(90* ticks)
114: 0x05A4 [0x23] WAIT_FOR_DIALOG_INTERACTION
115: 0x05A5 [0x52] END_LOAD_SCHEDULER: End scheduler "w036" with entities [EventEntity, EventEntity], work=547*
116: 0x05B4 [0x45] LOAD_SCHEDULED_TASK: Load scheduler "ov40" with entities [EventEntity, EventEntity], work=[547*, 0*]
117: 0x05C5 [0x45] LOAD_SCHEDULED_TASK: Load scheduler "w037" with entities [EventEntity, EventEntity], work=[547*, 0*]
118: 0x05D6 [0x27] REQ_SET(priority=0x10, entity_id=Lilisette (ID: 17167189/0x0105F355), tag_num=0x06)
119: 0x05DD [0x1C] WAIT(80* ticks)
120: 0x05E0 [0x4A] LocalPlayer looks at Lilisette (ID: 17167189/0x0105F355)
121: 0x05E9 [0x1C] WAIT(80* ticks)
122: 0x05EC [0x4A] LocalPlayer looks at Lilisette (ID: 17167189/0x0105F355)
123: 0x05F5 [0x1C] WAIT(60* ticks)
124: 0x05F8 [0x1A] CALL_SUBROUTINE(address=0x22A2)
125: 0x05FB [0x1C] WAIT(30* ticks)
126: 0x05FE [0x52] END_LOAD_SCHEDULER: End scheduler "w037" with entities [EventEntity, EventEntity], work=547*
127: 0x060D [0x7A] VM_CONTROL: Reset VM for Lilisette (ID: 17167189/0x0105F355)
128: 0x0613 [0x1B] RETURN

SUBROUTINE_0614:
129: 0x0614 [0x5B] LOAD_EXT_SCHEDULER: Load scheduler 0xFEFEFE00 with entities [Lilisette (ID: 17167189/0x0105F355), Lilisette (ID: 17167189/0x0105F355)], work=2132*
130: 0x0623 [0x1C] WAIT(5* ticks)
131: 0x0626 [0xBA] SET_ENTITY_POSITION(entity_id=LocalPlayer, pos_x=-241.624*, pos_z=659.839*, pos_y=-17.261*, direction=168.9°*)
132: 0x0633 [0xBA] SET_ENTITY_POSITION(entity_id=Lilisette (ID: 17167189/0x0105F355), pos_x=-242.853*, pos_z=659.827*, pos_y=-17.250*, direction=168.9°*)
133: 0x0640 [0x59] UPDATE_ENTITY_DATA: Unnamed NPC (ID: 17167234/0x0105F382)->Render.Flags0 |= 0x200000
134: 0x0647 [0xBA] SET_ENTITY_POSITION(entity_id=Unnamed NPC (ID: 17167234/0x0105F382), pos_x=-245.517*, pos_z=655.419*, pos_y=-50.000*, direction=200.1°*)
135: 0x0654 [0x4A] LocalPlayer looks at Unnamed NPC (ID: 17167235/0x0105F383)
136: 0x065D [0x4A] Lilisette (ID: 17167189/0x0105F355) looks at Unnamed NPC (ID: 17167235/0x0105F383)
137: 0x0666 [0x7B] Lilisette (ID: 17167189/0x0105F355) stops talking
138: 0x066B [0x5B] LOAD_EXT_SCHEDULER: Load scheduler "aanl" with entities [Lilisette (ID: 17167189/0x0105F355), Lilisette (ID: 17167189/0x0105F355)], work=2140*
139: 0x067A [0x1C] WAIT(30* ticks)
140: 0x067D [0x45] LOAD_SCHEDULED_TASK: Load scheduler "w030" with entities [EventEntity, EventEntity], work=[547*, 0*]
141: 0x068E [0x1A] CALL_SUBROUTINE(address=0x2281)
142: 0x0691 [0x03] Work_Zone[2] = 947*
143: 0x0696 [0x48] [System] [8347*]:
    → "This door has already been repaired with $3."
144: 0x0699 [0x1C] WAIT(120* ticks)
145: 0x069C [0x23] WAIT_FOR_DIALOG_INTERACTION
146: 0x069D [0x1A] CALL_SUBROUTINE(address=0x22E4)
147: 0x06A0 [0x1C] WAIT(30* ticks)
148: 0x06A3 [0x52] END_LOAD_SCHEDULER: End scheduler "w030" with entities [EventEntity, EventEntity], work=547*
149: 0x06B2 [0x27] REQ_SET(priority=0x10, entity_id=Lilisette (ID: 17167189/0x0105F355), tag_num=0x08)
150: 0x06B9 [0x27] REQ_SET(priority=0x10, entity_id=LocalPlayer, tag_num=0x1D)
151: 0x06C0 [0xBA] SET_ENTITY_POSITION(entity_id=LocalPlayer, pos_x=-239.017*, pos_z=660.720*, pos_y=-17.206*, direction=175.8°*)
152: 0x06CD [0x4A] LocalPlayer looks at Lilisette (ID: 17167189/0x0105F355)
153: 0x06D6 [0x1C] WAIT(60* ticks)
154: 0x06D9 [0x5B] LOAD_EXT_SCHEDULER: Load scheduler "aan1" with entities [Lilisette (ID: 17167189/0x0105F355), Lilisette (ID: 17167189/0x0105F355)], work=2140*
155: 0x06E8 [0x45] LOAD_SCHEDULED_TASK: Load scheduler "w231" with entities [EventEntity, EventEntity], work=[547*, 0*]
156: 0x06F9 [0x1A] CALL_SUBROUTINE(address=0x21FD)
157: 0x06FC [0x03] Work_Zone[2] = 947*
158: 0x0701 [0x48] [System] [8350*]:
    → "Lilisette applies $3 to the cracks on the entrance."
159: 0x0704 [0x23] WAIT_FOR_DIALOG_INTERACTION
160: 0x0705 [0x1C] WAIT(170* ticks)
161: 0x0708 [0x52] END_LOAD_SCHEDULER: End scheduler "w231" with entities [EventEntity, EventEntity], work=547*
162: 0x0717 [0x45] LOAD_SCHEDULED_TASK: Load scheduler "w232" with entities [EventEntity, EventEntity], work=[547*, 0*]
163: 0x0728 [0x5B] LOAD_EXT_SCHEDULER: Load scheduler "tlc0" with entities [Lilisette (ID: 17167189/0x0105F355), Lilisette (ID: 17167189/0x0105F355)], work=2132*
164: 0x0737 [0x2B] Lilisette (ID: 17167189/0x0105F355) [8352*]:
    → "Phew... One thing's for certain: Sarutabaruta's vastness is not to be mocked."
165: 0x073E [0x1C] WAIT(110* ticks)
166: 0x0741 [0x23] WAIT_FOR_DIALOG_INTERACTION
167: 0x0742 [0x81] SET_ENTITY_BLINKING(blink_flag=0x00, entity=Lilisette (ID: 17167189/0x0105F355))
168: 0x0748 [0x7C] Lilisette (ID: 17167189/0x0105F355)->Render.Flags2 |= 0x00
169: 0x074E [0x5B] LOAD_EXT_SCHEDULER: Load scheduler "fa01" with entities [Lilisette (ID: 17167189/0x0105F355), Lilisette (ID: 17167189/0x0105F355)], work=2135*
170: 0x075D [0x5B] LOAD_EXT_SCHEDULER: Load scheduler "tlc1" with entities [Lilisette (ID: 17167189/0x0105F355), Lilisette (ID: 17167189/0x0105F355)], work=2132*
171: 0x076C [0x52] END_LOAD_SCHEDULER: End scheduler "w232" with entities [EventEntity, EventEntity], work=547*
172: 0x077B [0x45] LOAD_SCHEDULED_TASK: Load scheduler "ov40" with entities [EventEntity, EventEntity], work=[547*, 0*]
173: 0x078C [0x45] LOAD_SCHEDULED_TASK: Load scheduler "w234" with entities [EventEntity, EventEntity], work=[547*, 0*]
174: 0x079D [0x2B] Lilisette (ID: 17167189/0x0105F355) [8353*]:
    → "To think about it, though, isn't this more akin to household drudgery than a test of fighting prowess?"
175: 0x07A4 [0x1C] WAIT(100* ticks)
176: 0x07A7 [0x23] WAIT_FOR_DIALOG_INTERACTION
177: 0x07A8 [0x5B] LOAD_EXT_SCHEDULER: Load scheduler "fa00" with entities [Lilisette (ID: 17167189/0x0105F355), Lilisette (ID: 17167189/0x0105F355)], work=2135*
178: 0x07B7 [0x5B] LOAD_EXT_SCHEDULER: Load scheduler "thb0" with entities [Lilisette (ID: 17167189/0x0105F355), Lilisette (ID: 17167189/0x0105F355)], work=2133*
179: 0x07C6 [0x1C] WAIT(30* ticks)
180: 0x07C9 [0x52] END_LOAD_SCHEDULER: End scheduler "w234" with entities [EventEntity, EventEntity], work=547*
181: 0x07D8 [0x45] LOAD_SCHEDULED_TASK: Load scheduler "w235" with entities [EventEntity, EventEntity], work=[547*, 0*]
182: 0x07E9 [0x2B] Lilisette (ID: 17167189/0x0105F355) [8354*]:
    → "..."
183: 0x07F0 [0x1C] WAIT(140* ticks)
184: 0x07F3 [0x23] WAIT_FOR_DIALOG_INTERACTION
185: 0x07F4 [0x5B] LOAD_EXT_SCHEDULER: Load scheduler "fa01" with entities [Lilisette (ID: 17167189/0x0105F355), Lilisette (ID: 17167189/0x0105F355)], work=2135*
186: 0x0803 [0x5B] LOAD_EXT_SCHEDULER: Load scheduler "kai0" with entities [Lilisette (ID: 17167189/0x0105F355), Lilisette (ID: 17167189/0x0105F355)], work=2240*
187: 0x0812 [0x52] END_LOAD_SCHEDULER: End scheduler "w235" with entities [EventEntity, EventEntity], work=547*
188: 0x0821 [0x45] LOAD_SCHEDULED_TASK: Load scheduler "ov30" with entities [EventEntity, EventEntity], work=[547*, 0*]
189: 0x0832 [0x45] LOAD_SCHEDULED_TASK: Load scheduler "w236" with entities [EventEntity, EventEntity], work=[547*, 0*]
190: 0x0843 [0x1C] WAIT(30* ticks)
191: 0x0846 [0x2B] Lilisette (ID: 17167189/0x0105F355) [8355*]:
    → "Grrr! If only <Player> were here to share the workload, we'd be finished and sipping Windurstian tea by now. But then again, that would sort of defeat the purpose..."
192: 0x084D [0x1C] WAIT(65* ticks)
193: 0x0850 [0x6E] LocalPlayer uses emote 21*
194: 0x0857 [0x99] Wait for LocalPlayer animation to complete
195: 0x085C [0x1C] WAIT(145* ticks)
196: 0x085F [0x23] WAIT_FOR_DIALOG_INTERACTION
197: 0x0860 [0x5B] LOAD_EXT_SCHEDULER: Load scheduler "f201" with entities [Lilisette (ID: 17167189/0x0105F355), Lilisette (ID: 17167189/0x0105F355)], work=2135*
198: 0x086F [0x5B] LOAD_EXT_SCHEDULER: Load scheduler "hdb1" with entities [Lilisette (ID: 17167189/0x0105F355), Lilisette (ID: 17167189/0x0105F355)], work=2128*
199: 0x087E [0x52] END_LOAD_SCHEDULER: End scheduler "w236" with entities [EventEntity, EventEntity], work=547*
200: 0x088D [0x45] LOAD_SCHEDULED_TASK: Load scheduler "ov40" with entities [EventEntity, EventEntity], work=[547*, 0*]
201: 0x089E [0x45] LOAD_SCHEDULED_TASK: Load scheduler "w237" with entities [EventEntity, EventEntity], work=[547*, 0*]
202: 0x08AF [0x1C] WAIT(70* ticks)
203: 0x08B2 [0x2B] Lilisette (ID: 17167189/0x0105F355) [8356*]:
    → "Hehehe... I can't wait to see the surprised look on <Player>'s face when [he/she] sees me lined up among the Cobras!"
204: 0x08B9 [0x23] WAIT_FOR_DIALOG_INTERACTION
205: 0x08BA [0x5B] LOAD_EXT_SCHEDULER: Load scheduler "kia0" with entities [Lilisette (ID: 17167189/0x0105F355), Lilisette (ID: 17167189/0x0105F355)], work=2245*
206: 0x08C9 [0x52] END_LOAD_SCHEDULER: End scheduler "w237" with entities [EventEntity, EventEntity], work=547*
207: 0x08D8 [0x45] LOAD_SCHEDULED_TASK: Load scheduler "w238" with entities [EventEntity, EventEntity], work=[547*, 0*]
208: 0x08E9 [0x2B] Lilisette (ID: 17167189/0x0105F355) [8357*]:
    → "Just a little bit further and I'll be home free!"
209: 0x08F0 [0x1C] WAIT(135* ticks)
210: 0x08F3 [0x23] WAIT_FOR_DIALOG_INTERACTION
211: 0x08F4 [0x52] END_LOAD_SCHEDULER: End scheduler "w238" with entities [EventEntity, EventEntity], work=547*
212: 0x0903 [0x1A] CALL_SUBROUTINE(address=0x22A2)
213: 0x0906 [0x1C] WAIT(30* ticks)
214: 0x0909 [0x1B] RETURN

SUBROUTINE_090A:
215: 0x090A [0xBA] SET_ENTITY_POSITION(entity_id=LocalPlayer, pos_x=-241.624*, pos_z=659.839*, pos_y=-17.261*, direction=168.9°*)
216: 0x0917 [0xBA] SET_ENTITY_POSITION(entity_id=Lilisette (ID: 17167189/0x0105F355), pos_x=-242.853*, pos_z=659.827*, pos_y=-17.250*, direction=168.9°*)
217: 0x0924 [0x59] UPDATE_ENTITY_DATA: Unnamed NPC (ID: 17167234/0x0105F382)->Render.Flags0 |= 0x200000
218: 0x092B [0xBA] SET_ENTITY_POSITION(entity_id=Unnamed NPC (ID: 17167234/0x0105F382), pos_x=-245.517*, pos_z=655.419*, pos_y=-50.000*, direction=200.1°*)
219: 0x0938 [0x4A] LocalPlayer looks at Unnamed NPC (ID: 17167235/0x0105F383)
220: 0x0941 [0x4A] Lilisette (ID: 17167189/0x0105F355) looks at Unnamed NPC (ID: 17167235/0x0105F383)
221: 0x094A [0x7B] Lilisette (ID: 17167189/0x0105F355) stops talking
222: 0x094F [0x1C] WAIT(30* ticks)
223: 0x0952 [0x45] LOAD_SCHEDULED_TASK: Load scheduler "w030" with entities [EventEntity, EventEntity], work=[547*, 0*]
224: 0x0963 [0x1A] CALL_SUBROUTINE(address=0x2281)
225: 0x0966 [0x03] Work_Zone[2] = 947*
226: 0x096B [0x48] [System] [8358*]:
    → "This door has already been repaired with $3, although perhaps not quite to the highest standard."
227: 0x096E [0x1C] WAIT(120* ticks)
228: 0x0971 [0x23] WAIT_FOR_DIALOG_INTERACTION
229: 0x0972 [0x1A] CALL_SUBROUTINE(address=0x22E4)
230: 0x0975 [0x1C] WAIT(30* ticks)
231: 0x0978 [0x52] END_LOAD_SCHEDULER: End scheduler "w030" with entities [EventEntity, EventEntity], work=547*
232: 0x0987 [0x27] REQ_SET(priority=0x10, entity_id=Lilisette (ID: 17167189/0x0105F355), tag_num=0x08)
233: 0x098E [0x27] REQ_SET(priority=0x10, entity_id=LocalPlayer, tag_num=0x1D)
234: 0x0995 [0xBA] SET_ENTITY_POSITION(entity_id=LocalPlayer, pos_x=-239.017*, pos_z=660.720*, pos_y=-17.206*, direction=175.8°*)
235: 0x09A2 [0x4A] LocalPlayer looks at Lilisette (ID: 17167189/0x0105F355)
236: 0x09AB [0x1C] WAIT(60* ticks)
237: 0x09AE [0x5B] LOAD_EXT_SCHEDULER: Load scheduler "hdc0" with entities [Lilisette (ID: 17167189/0x0105F355), Lilisette (ID: 17167189/0x0105F355)], work=2242*
238: 0x09BD [0x1C] WAIT(60* ticks)
239: 0x09C0 [0x45] LOAD_SCHEDULED_TASK: Load scheduler "w431" with entities [EventEntity, EventEntity], work=[547*, 0*]
240: 0x09D1 [0x1A] CALL_SUBROUTINE(address=0x21FD)
241: 0x09D4 [0x2B] Lilisette (ID: 17167189/0x0105F355) [8359*]:
    → "Yaaargh! Take this, you detestable crack!"
242: 0x09DB [0x23] WAIT_FOR_DIALOG_INTERACTION
243: 0x09DC [0x52] END_LOAD_SCHEDULER: End scheduler "w431" with entities [EventEntity, EventEntity], work=547*
244: 0x09EB [0x45] LOAD_SCHEDULED_TASK: Load scheduler "ov40" with entities [EventEntity, EventEntity], work=[547*, 0*]
245: 0x09FC [0x45] LOAD_SCHEDULED_TASK: Load scheduler "w432" with entities [EventEntity, EventEntity], work=[547*, 0*]
246: 0x0A0D [0x03] Work_Zone[2] = 947*
247: 0x0A12 [0x48] [System] [8350*]:
    → "Lilisette applies $3 to the cracks on the entrance."
248: 0x0A15 [0x1C] WAIT(80* ticks)
249: 0x0A18 [0x5B] LOAD_EXT_SCHEDULER: Load scheduler "hdc1" with entities [Lilisette (ID: 17167189/0x0105F355), Lilisette (ID: 17167189/0x0105F355)], work=2242*
250: 0x0A27 [0x1C] WAIT(160* ticks)
251: 0x0A2A [0x81] SET_ENTITY_BLINKING(blink_flag=0x00, entity=Lilisette (ID: 17167189/0x0105F355))
252: 0x0A30 [0x5B] LOAD_EXT_SCHEDULER: Load scheduler "yah0" with entities [Lilisette (ID: 17167189/0x0105F355), Lilisette (ID: 17167189/0x0105F355)], work=2128*
253: 0x0A3F [0x52] END_LOAD_SCHEDULER: End scheduler "w432" with entities [EventEntity, EventEntity], work=547*
254: 0x0A4E [0x45] LOAD_SCHEDULED_TASK: Load scheduler "w433" with entities [EventEntity, EventEntity], work=[547*, 0*]
255: 0x0A5F [0x2B] Lilisette (ID: 17167189/0x0105F355) [8360*]:
    → "Ta-da! Mission accomplished!"
256: 0x0A66 [0x1C] WAIT(110* ticks)
257: 0x0A69 [0x23] WAIT_FOR_DIALOG_INTERACTION
258: 0x0A6A [0x5B] LOAD_EXT_SCHEDULER: Load scheduler "yah1" with entities [Lilisette (ID: 17167189/0x0105F355), Lilisette (ID: 17167189/0x0105F355)], work=2128*
259: 0x0A79 [0x52] END_LOAD_SCHEDULER: End scheduler "w433" with entities [EventEntity, EventEntity], work=547*
260: 0x0A88 [0x45] LOAD_SCHEDULED_TASK: Load scheduler "ov40" with entities [EventEntity, EventEntity], work=[547*, 0*]
261: 0x0A99 [0x45] LOAD_SCHEDULED_TASK: Load scheduler "w434" with entities [EventEntity, EventEntity], work=[547*, 0*]
262: 0x0AAA [0x1C] WAIT(100* ticks)
263: 0x0AAD [0x5B] LOAD_EXT_SCHEDULER: Load scheduler "thb0" with entities [Lilisette (ID: 17167189/0x0105F355), Lilisette (ID: 17167189/0x0105F355)], work=2133*
264: 0x0ABC [0x1C] WAIT(60* ticks)
265: 0x0ABF [0x52] END_LOAD_SCHEDULER: End scheduler "w434" with entities [EventEntity, EventEntity], work=547*
266: 0x0ACE [0x45] LOAD_SCHEDULED_TASK: Load scheduler "ov40" with entities [EventEntity, EventEntity], work=[547*, 0*]
267: 0x0ADF [0x45] LOAD_SCHEDULED_TASK: Load scheduler "w435" with entities [EventEntity, EventEntity], work=[547*, 0*]
268: 0x0AF0 [0x2B] Lilisette (ID: 17167189/0x0105F355) [8361*]:
    → "Hmmm... For a structure that's vital to the Federation's defense, I can't help but feel that this repair method lacks...substance."
269: 0x0AF7 [0x1C] WAIT(340* ticks)
270: 0x0AFA [0x23] WAIT_FOR_DIALOG_INTERACTION
271: 0x0AFB [0x52] END_LOAD_SCHEDULER: End scheduler "w435" with entities [EventEntity, EventEntity], work=547*
272: 0x0B0A [0x45] LOAD_SCHEDULED_TASK: Load scheduler "ov40" with entities [EventEntity, EventEntity], work=[547*, 0*]
273: 0x0B1B [0x45] LOAD_SCHEDULED_TASK: Load scheduler "w436" with entities [EventEntity, EventEntity], work=[547*, 0*]
274: 0x0B2C [0x5B] LOAD_EXT_SCHEDULER: Load scheduler "thb1" with entities [Lilisette (ID: 17167189/0x0105F355), Lilisette (ID: 17167189/0x0105F355)], work=2133*
275: 0x0B3B [0x1C] WAIT(120* ticks)
276: 0x0B3E [0x5B] LOAD_EXT_SCHEDULER: Load scheduler "aan0" with entities [Lilisette (ID: 17167189/0x0105F355), Lilisette (ID: 17167189/0x0105F355)], work=2140*
277: 0x0B4D [0x2B] Lilisette (ID: 17167189/0x0105F355) [8362*]:
    → "Hmmm..."
278: 0x0B54 [0x1C] WAIT(200* ticks)
279: 0x0B57 [0x23] WAIT_FOR_DIALOG_INTERACTION
280: 0x0B58 [0x52] END_LOAD_SCHEDULER: End scheduler "w436" with entities [EventEntity, EventEntity], work=547*
281: 0x0B67 [0x45] LOAD_SCHEDULED_TASK: Load scheduler "ov40" with entities [EventEntity, EventEntity], work=[547*, 0*]
282: 0x0B78 [0x45] LOAD_SCHEDULED_TASK: Load scheduler "w437" with entities [EventEntity, EventEntity], work=[547*, 0*]
283: 0x0B89 [0x48] [System] [8363*]:
    → "Lilisette prods testily at $3."
284: 0x0B8C [0x1C] WAIT(120* ticks)
285: 0x0B8F [0x2B] Lilisette (ID: 17167189/0x0105F355) [8364*]:
    → "Considering the Windurstian predilection for magic, I wonder if I could find someone well-versed in curses..."
286: 0x0B96 [0x23] WAIT_FOR_DIALOG_INTERACTION
287: 0x0B97 [0x48] [System] [8363*]:
    → "Lilisette prods testily at $3."
288: 0x0B9A [0x1C] WAIT(120* ticks)
289: 0x0B9D [0x48] [System] [8365*]:
    → "3 became dislodged!"
290: 0x0BA0 [0x6E] LocalPlayer uses emote 21*
291: 0x0BA7 [0x99] Wait for LocalPlayer animation to complete
292: 0x0BAC [0x1C] WAIT(140* ticks)
293: 0x0BAF [0x7C] Lilisette (ID: 17167189/0x0105F355)->Render.Flags2 |= 0x00
294: 0x0BB5 [0x81] SET_ENTITY_BLINKING(blink_flag=0x00, entity=Lilisette (ID: 17167189/0x0105F355))
295: 0x0BBB [0x5B] LOAD_EXT_SCHEDULER: Load scheduler "ff01" with entities [Lilisette (ID: 17167189/0x0105F355), Lilisette (ID: 17167189/0x0105F355)], work=2135*
296: 0x0BCA [0x1C] WAIT(1* ticks)
297: 0x0BCD [0x52] END_LOAD_SCHEDULER: End scheduler "w437" with entities [EventEntity, EventEntity], work=547*
298: 0x0BDC [0x45] LOAD_SCHEDULED_TASK: Load scheduler "w438" with entities [EventEntity, EventEntity], work=[547*, 0*]
299: 0x0BED [0x2B] Lilisette (ID: 17167189/0x0105F355) [8366*]:
    → "Whoops."
300: 0x0BF4 [0x1C] WAIT(50* ticks)
301: 0x0BF7 [0x5B] LOAD_EXT_SCHEDULER: Load scheduler "ff00" with entities [Lilisette (ID: 17167189/0x0105F355), Lilisette (ID: 17167189/0x0105F355)], work=2135*
302: 0x0C06 [0x23] WAIT_FOR_DIALOG_INTERACTION
303: 0x0C07 [0x52] END_LOAD_SCHEDULER: End scheduler "w438" with entities [EventEntity, EventEntity], work=547*
304: 0x0C16 [0x45] LOAD_SCHEDULED_TASK: Load scheduler "ov40" with entities [EventEntity, EventEntity], work=[547*, 0*]
305: 0x0C27 [0x45] LOAD_SCHEDULED_TASK: Load scheduler "w439" with entities [EventEntity, EventEntity], work=[547*, 0*]
306: 0x0C38 [0x6E] LocalPlayer uses emote 29*
307: 0x0C3F [0x99] Wait for LocalPlayer animation to complete
308: 0x0C44 [0x1C] WAIT(60* ticks)
309: 0x0C47 [0x2B] Lilisette (ID: 17167189/0x0105F355) [8367*]:
    → "..."
310: 0x0C4E [0x1C] WAIT(160* ticks)
311: 0x0C51 [0x23] WAIT_FOR_DIALOG_INTERACTION
312: 0x0C52 [0x1A] CALL_SUBROUTINE(address=0x22A2)
313: 0x0C55 [0x52] END_LOAD_SCHEDULER: End scheduler "w439" with entities [EventEntity, EventEntity], work=547*
314: 0x0C64 [0x1C] WAIT(90* ticks)
315: 0x0C67 [0x48] [System] [8350*]:
    → "Lilisette applies $3 to the cracks on the entrance."
316: 0x0C6A [0x23] WAIT_FOR_DIALOG_INTERACTION
317: 0x0C6B [0x1C] WAIT(150* ticks)
318: 0x0C6E [0x81] SET_ENTITY_BLINKING(blink_flag=0x01, entity=Lilisette (ID: 17167189/0x0105F355))
319: 0x0C74 [0x7C] Lilisette (ID: 17167189/0x0105F355)->Render.Flags2 |= 0x01
320: 0x0C7A [0x5B] LOAD_EXT_SCHEDULER: Load scheduler "f000" with entities [Lilisette (ID: 17167189/0x0105F355), Lilisette (ID: 17167189/0x0105F355)], work=2135*
321: 0x0C89 [0x5B] LOAD_EXT_SCHEDULER: Load scheduler "aan1" with entities [Lilisette (ID: 17167189/0x0105F355), Lilisette (ID: 17167189/0x0105F355)], work=2140*
322: 0x0C98 [0x45] LOAD_SCHEDULED_TASK: Load scheduler "w440" with entities [EventEntity, EventEntity], work=[547*, 0*]
323: 0x0CA9 [0x1A] CALL_SUBROUTINE(address=0x2416)
324: 0x0CAC [0x1C] WAIT(60* ticks)
325: 0x0CAF [0x2B] Lilisette (ID: 17167189/0x0105F355) [8368*]:
    → "This shouldn't pose any problems...right?"
326: 0x0CB6 [0x23] WAIT_FOR_DIALOG_INTERACTION
327: 0x0CB7 [0x5B] LOAD_EXT_SCHEDULER: Load scheduler "hdc0" with entities [Lilisette (ID: 17167189/0x0105F355), Lilisette (ID: 17167189/0x0105F355)], work=2242*
328: 0x0CC6 [0x52] END_LOAD_SCHEDULER: End scheduler "w440" with entities [EventEntity, EventEntity], work=547*
329: 0x0CD5 [0x45] LOAD_SCHEDULED_TASK: Load scheduler "w441" with entities [EventEntity, EventEntity], work=[547*, 0*]
330: 0x0CE6 [0x2B] Lilisette (ID: 17167189/0x0105F355) [8369*]:
    → "Of course it's fine! I'm just overthinking, is all! Now then, time to head back and claim my hard-earned reward!"
331: 0x0CED [0x1C] WAIT(180* ticks)
332: 0x0CF0 [0x1C] WAIT(100* ticks)
333: 0x0CF3 [0x1A] CALL_SUBROUTINE(address=0x22A2)
334: 0x0CF6 [0x7A] VM_CONTROL: Reset VM for Lilisette (ID: 17167189/0x0105F355)
335: 0x0CFC [0x52] END_LOAD_SCHEDULER: End scheduler "w441" with entities [EventEntity, EventEntity], work=547*
336: 0x0D0B [0x1C] WAIT(30* ticks)
337: 0x0D0E [0x1B] RETURN
```

### Event 115

#### Metadata

| Field        | Value      |
|--------------|------------|
| Entrypoint   | 0x0D0F     |
| Data Size    | 2681 bytes |
| Instructions | 334        |

```
      00 01 02 03 04 05 06 07  08 09 0A 0B 0C 0D 0E 0F
      -- -- -- -- -- -- -- --  -- -- -- -- -- -- -- --
0D00:                                               42                 B
0D10: 1A A2 22 46 01 38 26 80  03 0D 00 03 10 27 10 82  .."F.8&......'..
0D20: F3 05 01 02 27 10 83 F3  05 01 02 27 10 55 F3 05  ....'......'.U..
0D30: 01 10 92 01 82 F3 05 01  92 01 83 F3 05 01 92 01  ................
0D40: 55 F3 05 01 94 01 82 F3  05 01 94 01 83 F3 05 01  U...............
0D50: 94 01 55 F3 05 01 94 01  F0 FF FF 7F 80 82 F3 05  ..U.............
0D60: 01 80 83 F3 05 01 80 55  F3 05 01 80 F0 FF FF 7F  .......U........
0D70: 29 10 F0 FF FF 7F 02 03  0C 00 02 10 5C 00 39 80  )...........\.9.
0D80: 5C 01 39 80 9A 59 05 83  F3 05 01 01 59 05 83 F3  \.9..Y......Y...
0D90: 05 01 01 BA 83 F3 05 01  8C 80 8D 80 8E 80 01 80  ................
0DA0: 02 0D 00 02 80 80 AE 0D  1A E9 0D 01 CA 0D 02 0D  ................
0DB0: 00 0A 80 80 BC 0D 1A A6  10 01 CA 0D 02 0D 00 0C  ................
0DC0: 80 80 CA 0D 1A 88 13 01  CA 0D 28 10 F0 FF FF 7F  ..........(.....
0DD0: 20 1C 06 80 46 00 45 3D  80 F0 FF FF 7F F0 FF FF   ...F.E=........
0DE0: 7F 66 64 69 32 01 80 21  00 BA F0 FF FF 7F 8F 80  .fdi2..!........
0DF0: 90 80 91 80 92 80 BA 55  F3 05 01 93 80 94 80 95  .......U........
0E00: 80 96 80 4A F0 FF FF 7F  83 F3 05 01 1C 4A 80 45  ...J.........J.E
0E10: 97 80 F8 FF FF 7F F8 FF  FF 7F 77 30 33 30 01 80  ..........w030..
0E20: 1A 81 22 03 02 10 4C 80  48 4D 80 1C 4E 80 23 1A  .."...L.HM..N.#.
0E30: E4 22 1C 4A 80 52 97 80  F8 FF FF 7F F8 FF FF 7F  .".J.R..........
0E40: 77 30 33 30 27 10 55 F3  05 01 08 27 10 F0 FF FF  w030'.U....'....
0E50: 7F 1D 1C 4F 80 27 10 55  F3 05 01 09 45 97 80 F8  ...O.'.U....E...
0E60: FF FF 7F F8 FF FF 7F 77  30 33 31 01 80 1A FD 21  .......w031....!
0E70: 1C 50 80 1C 4E 80 4A F0  FF FF 7F 55 F3 05 01 2A  .P..N.J....U...*
0E80: 10 55 F3 05 01 1C 50 80  5B 51 80 55 F3 05 01 55  .U....P.[Q.U...U
0E90: F3 05 01 74 68 61 30 52  97 80 F8 FF FF 7F F8 FF  ...tha0R........
0EA0: FF 7F 77 30 33 31 45 97  80 F8 FF FF 7F F8 FF FF  ..w031E.........
0EB0: 7F 6F 76 34 30 01 80 45  97 80 F8 FF FF 7F F8 FF  .ov40..E........
0EC0: FF 7F 77 30 33 32 01 80  2B 55 F3 05 01 52 80 1C  ..w032..+U...R..
0ED0: 53 80 23 5B 51 80 55 F3  05 01 55 F3 05 01 74 68  S.#[Q.U...U...th
0EE0: 61 31 1C 4E 80 27 10 55  F3 05 01 0A 1C 50 80 52  a1.N.'.U.....P.R
0EF0: 97 80 F8 FF FF 7F F8 FF  FF 7F 77 30 33 32 45 97  ..........w032E.
0F00: 80 F8 FF FF 7F F8 FF FF  7F 6F 76 34 30 01 80 45  .........ov40..E
0F10: 97 80 F8 FF FF 7F F8 FF  FF 7F 77 30 33 33 01 80  ..........w033..
0F20: 1C 54 80 27 10 F0 FF FF  7F 1C 2A 10 55 F3 05 01  .T.'......*.U...
0F30: 4A 55 F3 05 01 83 F3 05  01 1C 4A 80 4A F0 FF FF  JU........J.J...
0F40: 7F 55 F3 05 01 1C 4A 80  7B 55 F3 05 01 5B 55 80  .U....J.{U...[U.
0F50: 55 F3 05 01 55 F3 05 01  61 61 6E 30 1C 56 80 2B  U...U...aan0.V.+
0F60: 55 F3 05 01 57 80 1C 28  80 52 97 80 F8 FF FF 7F  U...W..(.R......
0F70: F8 FF FF 7F 77 30 33 33  45 97 80 F8 FF FF 7F F8  ....w033E.......
0F80: FF FF 7F 6F 76 34 30 01  80 45 97 80 F8 FF FF 7F  ...ov40..E......
0F90: F8 FF FF 7F 77 30 33 34  01 80 1C 02 80 BA F0 FF  ....w034........
0FA0: FF 7F 98 80 99 80 9A 80  9B 80 1C 5C 80 23 52 97  ...........\.#R.
0FB0: 80 F8 FF FF 7F F8 FF FF  7F 77 30 33 34 45 97 80  .........w034E..
0FC0: F8 FF FF 7F F8 FF FF 7F  6F 76 34 30 01 80 45 97  ........ov40..E.
0FD0: 80 F8 FF FF 7F F8 FF FF  7F 77 30 33 35 01 80 03  .........w035...
0FE0: 02 10 4C 80 48 5D 80 23  1C 53 80 5B 55 80 55 F3  ..L.H].#.S.[U.U.
0FF0: 05 01 55 F3 05 01 61 61  6E 31 1C 5E 80 5B 5F 80  ..U...aan1.^.[_.
1000: 55 F3 05 01 55 F3 05 01  74 6C 63 30 52 97 80 F8  U...U...tlc0R...
1010: FF FF 7F F8 FF FF 7F 77  30 33 35 45 97 80 F8 FF  .......w035E....
1020: FF 7F F8 FF FF 7F 77 30  33 36 01 80 2B 55 F3 05  ......w036..+U..
1030: 01 60 80 1C 61 80 23 52  97 80 F8 FF FF 7F F8 FF  .`..a.#R........
1040: FF 7F 77 30 33 36 45 97  80 F8 FF FF 7F F8 FF FF  ..w036E.........
1050: 7F 6F 76 34 30 01 80 45  97 80 F8 FF FF 7F F8 FF  .ov40..E........
1060: FF 7F 77 30 33 37 01 80  27 10 55 F3 05 01 0B 1C  ..w037..'.U.....
1070: 56 80 4A F0 FF FF 7F 55  F3 05 01 1C 56 80 4A F0  V.J....U....V.J.
1080: FF FF 7F 55 F3 05 01 1C  4F 80 1A A2 22 7A 00 55  ...U....O..."z.U
1090: F3 05 01 1C 4A 80 52 97  80 F8 FF FF 7F F8 FF FF  ....J.R.........
10A0: 7F 77 30 33 37 1B 5B 5F  80 55 F3 05 01 55 F3 05  .w037.[_.U...U..
10B0: 01 00 FE FE FE 1C 06 80  BA F0 FF FF 7F 8F 80 90  ................
10C0: 80 91 80 92 80 BA 55 F3  05 01 9C 80 9D 80 9E 80  ......U.........
10D0: 9F 80 4A F0 FF FF 7F 83  F3 05 01 4A 55 F3 05 01  ..J........JU...
10E0: 83 F3 05 01 7B 55 F3 05  01 1C 4A 80 5B 55 80 55  ....{U....J.[U.U
10F0: F3 05 01 55 F3 05 01 61  61 6E 6C 45 97 80 F8 FF  ...U...aanlE....
1100: FF 7F F8 FF FF 7F 77 30  33 30 01 80 1A 81 22 03  ......w030....".
1110: 02 10 4C 80 48 4D 80 1C  4E 80 23 1A E4 22 1C 4A  ..L.HM..N.#..".J
1120: 80 52 97 80 F8 FF FF 7F  F8 FF FF 7F 77 30 33 30  .R..........w030
1130: 27 10 55 F3 05 01 08 27  10 F0 FF FF 7F 1D BA F0  '.U....'........
1140: FF FF 7F A0 80 A1 80 A2  80 A3 80 4A F0 FF FF 7F  ...........J....
1150: 55 F3 05 01 1C 4F 80 5B  55 80 55 F3 05 01 55 F3  U....O.[U.U...U.
1160: 05 01 61 61 6E 31 45 97  80 F8 FF FF 7F F8 FF FF  ..aan1E.........
1170: 7F 77 32 33 31 01 80 1A  FD 21 03 02 10 4C 80 48  .w231....!...L.H
1180: 5D 80 23 1C 5C 80 5B 5F  80 55 F3 05 01 55 F3 05  ].#.\.[_.U...U..
1190: 01 74 6C 63 30 52 97 80  F8 FF FF 7F F8 FF FF 7F  .tlc0R..........
11A0: 77 32 33 31 45 97 80 F8  FF FF 7F F8 FF FF 7F 77  w231E..........w
11B0: 32 33 32 01 80 2B 55 F3  05 01 69 80 1C 6A 80 23  232..+U...i..j.#
11C0: 81 00 55 F3 05 01 7C 00  55 F3 05 01 5B 6B 80 55  ..U...|.U...[k.U
11D0: F3 05 01 55 F3 05 01 66  61 30 31 5B 5F 80 55 F3  ...U...fa01[_.U.
11E0: 05 01 55 F3 05 01 74 6C  63 31 52 97 80 F8 FF FF  ..U...tlc1R.....
11F0: 7F F8 FF FF 7F 77 32 33  32 45 97 80 F8 FF FF 7F  .....w232E......
1200: F8 FF FF 7F 6F 76 34 30  01 80 45 97 80 F8 FF FF  ....ov40..E.....
1210: 7F F8 FF FF 7F 77 32 33  34 01 80 2B 55 F3 05 01  .....w234..+U...
1220: 6C 80 1C 53 80 23 5B 6B  80 55 F3 05 01 55 F3 05  l..S.#[k.U...U..
1230: 01 66 61 30 30 5B 6D 80  55 F3 05 01 55 F3 05 01  .fa00[m.U...U...
1240: 74 68 62 30 1C 4A 80 52  97 80 F8 FF FF 7F F8 FF  thb0.J.R........
1250: FF 7F 77 32 33 34 45 97  80 F8 FF FF 7F F8 FF FF  ..w234E.........
1260: 7F 77 32 33 35 01 80 2B  55 F3 05 01 6E 80 1C 6F  .w235..+U...n..o
1270: 80 23 5B 6B 80 55 F3 05  01 55 F3 05 01 66 61 30  .#[k.U...U...fa0
1280: 31 5B 70 80 55 F3 05 01  55 F3 05 01 6B 61 69 30  1[p.U...U...kai0
1290: 52 97 80 F8 FF FF 7F F8  FF FF 7F 77 32 33 35 45  R..........w235E
12A0: 97 80 F8 FF FF 7F F8 FF  FF 7F 6F 76 33 30 01 80  ..........ov30..
12B0: 45 97 80 F8 FF FF 7F F8  FF FF 7F 77 32 33 36 01  E..........w236.
12C0: 80 1C 4A 80 2B 55 F3 05  01 71 80 1C 72 80 6E F0  ..J.+U...q..r.n.
12D0: FF FF 7F 73 80 99 F0 FF  FF 7F 1C 74 80 23 5B 6B  ...s.......t.#[k
12E0: 80 55 F3 05 01 55 F3 05  01 66 32 30 31 5B 75 80  .U...U...f201[u.
12F0: 55 F3 05 01 55 F3 05 01  68 64 62 31 52 4B 80 F8  U...U...hdb1RK..
1300: FF FF 7F F8 FF FF 7F 77  32 33 36 45 97 80 F8 FF  .......w236E....
1310: FF 7F F8 FF FF 7F 6F 76  34 30 01 80 45 97 80 F8  ......ov40..E...
1320: FF FF 7F F8 FF FF 7F 77  32 33 37 01 80 1C 76 80  .......w237...v.
1330: 2B 55 F3 05 01 77 80 23  5B 78 80 55 F3 05 01 55  +U...w.#[x.U...U
1340: F3 05 01 6B 69 61 30 52  97 80 F8 FF FF 7F F8 FF  ...kia0R........
1350: FF 7F 77 32 33 37 45 97  80 F8 FF FF 7F F8 FF FF  ..w237E.........
1360: 7F 77 32 33 38 01 80 2B  55 F3 05 01 79 80 1C 7A  .w238..+U...y..z
1370: 80 23 1A A2 22 52 97 80  F8 FF FF 7F F8 FF FF 7F  .#.."R..........
1380: 77 32 33 38 1C 4A 80 1B  BA F0 FF FF 7F 8F 80 90  w238.J..........
1390: 80 91 80 92 80 BA 55 F3  05 01 9C 80 9D 80 9E 80  ......U.........
13A0: 9F 80 4A F0 FF FF 7F 83  F3 05 01 4A 55 F3 05 01  ..J........JU...
13B0: 83 F3 05 01 5B 55 80 55  F3 05 01 55 F3 05 01 00  ....[U.U...U....
13C0: FE FE FE 7B 55 F3 05 01  1C 4A 80 45 97 80 F8 FF  ...{U....J.E....
13D0: FF 7F F8 FF FF 7F 77 30  33 30 01 80 1A 81 22 03  ......w030....".
13E0: 02 10 4C 80 48 7B 80 1C  4E 80 23 1A E4 22 1C 4A  ..L.H{..N.#..".J
13F0: 80 52 97 80 F8 FF FF 7F  F8 FF FF 7F 77 30 33 30  .R..........w030
1400: 27 10 55 F3 05 01 08 27  10 F0 FF FF 7F 1D BA F0  '.U....'........
1410: FF FF 7F A0 80 A1 80 A2  80 A3 80 4A F0 FF FF 7F  ...........J....
1420: 55 F3 05 01 1C 4F 80 5B  7C 80 55 F3 05 01 55 F3  U....O.[|.U...U.
1430: 05 01 68 64 63 30 1C 4F  80 45 97 80 F8 FF FF 7F  ..hdc0.O.E......
1440: F8 FF FF 7F 77 34 33 31  01 80 1A FD 21 2B 55 F3  ....w431....!+U.
1450: 05 01 7D 80 23 52 97 80  F8 FF FF 7F F8 FF FF 7F  ..}.#R..........
1460: 77 34 33 31 45 97 80 F8  FF FF 7F F8 FF FF 7F 6F  w431E..........o
1470: 76 34 30 01 80 45 97 80  F8 FF FF 7F F8 FF FF 7F  v40..E..........
1480: 77 34 33 32 01 80 03 02  10 4C 80 48 5D 80 1C 56  w432.....L.H]..V
1490: 80 5B 7C 80 55 F3 05 01  55 F3 05 01 68 64 63 31  .[|.U...U...hdc1
14A0: 1C 7E 80 81 00 55 F3 05  01 5B 75 80 55 F3 05 01  .~...U...[u.U...
14B0: 55 F3 05 01 79 61 68 30  52 97 80 F8 FF FF 7F F8  U...yah0R.......
14C0: FF FF 7F 77 34 33 32 45  97 80 F8 FF FF 7F F8 FF  ...w432E........
14D0: FF 7F 77 34 33 33 01 80  2B 55 F3 05 01 7F 80 1C  ..w433..+U......
14E0: 6A 80 23 5B 75 80 55 F3  05 01 55 F3 05 01 79 61  j.#[u.U...U...ya
14F0: 68 31 52 97 80 F8 FF FF  7F F8 FF FF 7F 77 34 33  h1R..........w43
1500: 33 45 97 80 F8 FF FF 7F  F8 FF FF 7F 6F 76 34 30  3E..........ov40
1510: 01 80 45 97 80 F8 FF FF  7F F8 FF FF 7F 77 34 33  ..E..........w43
1520: 34 01 80 1C 53 80 5B 6D  80 55 F3 05 01 55 F3 05  4...S.[m.U...U..
1530: 01 74 68 62 30 1C 4F 80  52 97 80 F8 FF FF 7F F8  .thb0.O.R.......
1540: FF FF 7F 77 34 33 34 45  97 80 F8 FF FF 7F F8 FF  ...w434E........
1550: FF 7F 6F 76 34 30 01 80  45 97 80 F8 FF FF 7F F8  ..ov40..E.......
1560: FF FF 7F 77 34 33 35 01  80 2B 55 F3 05 01 80 80  ...w435..+U.....
1570: 1C 81 80 23 52 97 80 F8  FF FF 7F F8 FF FF 7F 77  ...#R..........w
1580: 34 33 35 45 97 80 F8 FF  FF 7F F8 FF FF 7F 6F 76  435E..........ov
1590: 34 30 01 80 45 97 80 F8  FF FF 7F F8 FF FF 7F 77  40..E..........w
15A0: 34 33 36 01 80 5B 6D 80  55 F3 05 01 55 F3 05 01  436..[m.U...U...
15B0: 74 68 62 31 1C 4E 80 5B  55 80 55 F3 05 01 55 F3  thb1.N.[U.U...U.
15C0: 05 01 61 61 6E 30 2B 55  F3 05 01 82 80 1C 3D 80  ..aan0+U......=.
15D0: 23 52 97 80 F8 FF FF 7F  F8 FF FF 7F 77 34 33 36  #R..........w436
15E0: 45 97 80 F8 FF FF 7F F8  FF FF 7F 6F 76 34 30 01  E..........ov40.
15F0: 80 45 97 80 F8 FF FF 7F  F8 FF FF 7F 77 34 33 37  .E..........w437
1600: 01 80 48 83 80 1C 4E 80  2B 55 F3 05 01 84 80 23  ..H...N.+U.....#
1610: 48 83 80 1C 4E 80 48 85  80 6E F0 FF FF 7F 73 80  H...N.H..n....s.
1620: 99 F0 FF FF 7F 1C 6F 80  7C 00 55 F3 05 01 81 00  ......o.|.U.....
1630: 55 F3 05 01 5B 6B 80 55  F3 05 01 55 F3 05 01 66  U...[k.U...U...f
1640: 66 30 31 1C 02 80 52 97  80 F8 FF FF 7F F8 FF FF  f01...R.........
1650: 7F 77 34 33 37 45 97 80  F8 FF FF 7F F8 FF FF 7F  .w437E..........
1660: 77 34 33 38 01 80 2B 55  F3 05 01 86 80 1C 54 80  w438..+U......T.
1670: 5B 6B 80 55 F3 05 01 55  F3 05 01 66 66 30 30 23  [k.U...U...ff00#
1680: 52 97 80 F8 FF FF 7F F8  FF FF 7F 77 34 33 38 45  R..........w438E
1690: 97 80 F8 FF FF 7F F8 FF  FF 7F 6F 76 34 30 01 80  ..........ov40..
16A0: 45 97 80 F8 FF FF 7F F8  FF FF 7F 77 34 33 39 01  E..........w439.
16B0: 80 6E F0 FF FF 7F 87 80  99 F0 FF FF 7F 1C 4F 80  .n............O.
16C0: 2B 55 F3 05 01 88 80 1C  7E 80 23 1A A2 22 52 97  +U......~.#.."R.
16D0: 80 F8 FF FF 7F F8 FF FF  7F 77 34 33 39 1C 61 80  .........w439.a.
16E0: 48 5D 80 23 1C 5E 80 81  01 55 F3 05 01 7C 01 55  H].#.^...U...|.U
16F0: F3 05 01 5B 6B 80 55 F3  05 01 55 F3 05 01 66 30  ...[k.U...U...f0
1700: 30 30 5B 55 80 55 F3 05  01 55 F3 05 01 61 61 6E  00[U.U...U...aan
1710: 31 45 97 80 F8 FF FF 7F  F8 FF FF 7F 77 34 34 30  1E..........w440
1720: 01 80 1A 16 24 1C 4F 80  2B 55 F3 05 01 89 80 23  ....$.O.+U.....#
1730: 5B 7C 80 55 F3 05 01 55  F3 05 01 68 64 63 30 52  [|.U...U...hdc0R
1740: 97 80 F8 FF FF 7F F8 FF  FF 7F 77 34 34 30 45 97  ..........w440E.
1750: 80 F8 FF FF 7F F8 FF FF  7F 77 34 34 31 01 80 2B  .........w441..+
1760: 55 F3 05 01 8A 80 1C 8B  80 1C 53 80 1A A2 22 7A  U.........S..."z
1770: 00 55 F3 05 01 52 97 80  F8 FF FF 7F F8 FF FF 7F  .U...R..........
1780: 77 34 34 31 1C 4A 80 1B                           w441.J..        
```

#### Opcodes

```
  0: 0x0D0F [0x42] SET_CLI_EVENT_CANCEL_DATA()
  1: 0x0D10 [0x1A] CALL_SUBROUTINE(address=0x22A2)
  2: 0x0D13 [0x46] CAMERA_CONTROL: Disable user control
  3: 0x0D15 [0x38] SET_CLIENT_EVENT_MODE(mode=19*)
  4: 0x0D18 [0x03] ExtData[1]->WorkLocal[13] = Work_Zone[3]
  5: 0x0D1D [0x27] REQ_SET(priority=0x10, entity_id=Unnamed NPC (ID: 17167234/0x0105F382), tag_num=0x02)
  6: 0x0D24 [0x27] REQ_SET(priority=0x10, entity_id=Unnamed NPC (ID: 17167235/0x0105F383), tag_num=0x02)
  7: 0x0D2B [0x27] REQ_SET(priority=0x10, entity_id=Lilisette (ID: 17167189/0x0105F355), tag_num=0x10)
  8: 0x0D32 [0x92] Unnamed NPC (ID: 17167234/0x0105F382)->Render.Flags3 ^= 0x01
  9: 0x0D38 [0x92] Unnamed NPC (ID: 17167235/0x0105F383)->Render.Flags3 ^= 0x01
 10: 0x0D3E [0x92] Lilisette (ID: 17167189/0x0105F355)->Render.Flags3 ^= 0x01
 11: 0x0D44 [0x94] Unnamed NPC (ID: 17167234/0x0105F382)->Render.Flags3 ^= 0x01
 12: 0x0D4A [0x94] Unnamed NPC (ID: 17167235/0x0105F383)->Render.Flags3 ^= 0x01
 13: 0x0D50 [0x94] Lilisette (ID: 17167189/0x0105F355)->Render.Flags3 ^= 0x01
 14: 0x0D56 [0x94] LocalPlayer->Render.Flags3 ^= 0x01
 15: 0x0D5C [0x80] LOAD_WAIT(entity=Unnamed NPC (ID: 17167234/0x0105F382))
 16: 0x0D61 [0x80] LOAD_WAIT(entity=Unnamed NPC (ID: 17167235/0x0105F383))
 17: 0x0D66 [0x80] LOAD_WAIT(entity=Lilisette (ID: 17167189/0x0105F355))
 18: 0x0D6B [0x80] LOAD_WAIT(entity=LocalPlayer)
 19: 0x0D70 [0x29] REQ_SET_WAIT(priority=0x10, entity_id=LocalPlayer, tag_num=0x02)
 20: 0x0D77 [0x03] ExtData[1]->WorkLocal[12] = Work_Zone[2]
 21: 0x0D7C [0x5C] MUSIC_CONTROL: Set Idle (Day) music to song 141*
 22: 0x0D80 [0x5C] MUSIC_CONTROL: Set Idle (Night) music to song 141*
 23: 0x0D84 [0x9A] WAIT_MUSIC_SERVER()
 24: 0x0D85 [0x59] UPDATE_ENTITY_DATA: Unnamed NPC (ID: 17167235/0x0105F383)->Render.Flags0 |= 0x200000
 25: 0x0D8C [0x59] UPDATE_ENTITY_DATA: Unnamed NPC (ID: 17167235/0x0105F383)->Render.Flags0 |= 0x200000
 26: 0x0D93 [0xBA] SET_ENTITY_POSITION(entity_id=Unnamed NPC (ID: 17167235/0x0105F383), pos_x=263.600*, pos_z=40.000*, pos_y=-6.512*, direction=0.0°*)
 27: 0x0DA0 [0x02] IF !(ExtData[1]->WorkLocal[13] == 1*) GOTO 0x0DAE
 28: 0x0DA8 [0x1A] CALL_SUBROUTINE(address=0x0DE9)
 29: 0x0DAB [0x01] GOTO 0x0DCA
 30: 0x0DAE [0x02] IF !(ExtData[1]->WorkLocal[13] == 2*) GOTO 0x0DBC
 31: 0x0DB6 [0x1A] CALL_SUBROUTINE(address=0x10A6)
 32: 0x0DB9 [0x01] GOTO 0x0DCA
 33: 0x0DBC [0x02] IF !(ExtData[1]->WorkLocal[13] == 3*) GOTO 0x0DCA
 34: 0x0DC4 [0x1A] CALL_SUBROUTINE(address=0x1388)
 35: 0x0DC7 [0x01] GOTO 0x0DCA

SUBROUTINE_0DCA:
 36: 0x0DCA [0x28] REQ_SET_WITH_CONDITIONS(priority=0x10, target_entity=LocalPlayer, tag_num=0x20)
 37: 0x0DD1 [0x1C] WAIT(5* ticks)
 38: 0x0DD4 [0x46] CAMERA_CONTROL: Restore default settings
 39: 0x0DD6 [0x45] LOAD_SCHEDULED_TASK: Load scheduler "fdi2" with entities [LocalPlayer, LocalPlayer], work=[200*, 0*]
 40: 0x0DE7 [0x21] END_EVENT
 41: 0x0DE8 [0x00] END_REQSTACK()

SUBROUTINE_0DE9:
 42: 0x0DE9 [0xBA] SET_ENTITY_POSITION(entity_id=LocalPlayer, pos_x=267.072*, pos_z=39.785*, pos_y=-5.367*, direction=180.5°*)
 43: 0x0DF6 [0xBA] SET_ENTITY_POSITION(entity_id=Lilisette (ID: 17167189/0x0105F355), pos_x=270.169*, pos_z=30.991*, pos_y=-4.731*, direction=183.6°*)
 44: 0x0E03 [0x4A] LocalPlayer looks at Unnamed NPC (ID: 17167235/0x0105F383)
 45: 0x0E0C [0x1C] WAIT(30* ticks)
 46: 0x0E0F [0x45] LOAD_SCHEDULED_TASK: Load scheduler "w030" with entities [EventEntity, EventEntity], work=[548*, 0*]
 47: 0x0E20 [0x1A] CALL_SUBROUTINE(address=0x2281)
 48: 0x0E23 [0x03] Work_Zone[2] = 947*
 49: 0x0E28 [0x48] [System] [8347*]:
    → "This door has already been repaired with $3."
 50: 0x0E2B [0x1C] WAIT(120* ticks)
 51: 0x0E2E [0x23] WAIT_FOR_DIALOG_INTERACTION
 52: 0x0E2F [0x1A] CALL_SUBROUTINE(address=0x22E4)
 53: 0x0E32 [0x1C] WAIT(30* ticks)
 54: 0x0E35 [0x52] END_LOAD_SCHEDULER: End scheduler "w030" with entities [EventEntity, EventEntity], work=548*
 55: 0x0E44 [0x27] REQ_SET(priority=0x10, entity_id=Lilisette (ID: 17167189/0x0105F355), tag_num=0x08)
 56: 0x0E4B [0x27] REQ_SET(priority=0x10, entity_id=LocalPlayer, tag_num=0x1D)
 57: 0x0E52 [0x1C] WAIT(60* ticks)
 58: 0x0E55 [0x27] REQ_SET(priority=0x10, entity_id=Lilisette (ID: 17167189/0x0105F355), tag_num=0x09)
 59: 0x0E5C [0x45] LOAD_SCHEDULED_TASK: Load scheduler "w031" with entities [EventEntity, EventEntity], work=[548*, 0*]
 60: 0x0E6D [0x1A] CALL_SUBROUTINE(address=0x21FD)
 61: 0x0E70 [0x1C] WAIT(40* ticks)
 62: 0x0E73 [0x1C] WAIT(120* ticks)
 63: 0x0E76 [0x4A] LocalPlayer looks at Lilisette (ID: 17167189/0x0105F355)
 64: 0x0E7F [0x2A] GET_REQ_LEVEL(level=16, entity_id=Lilisette (ID: 17167189/0x0105F355))
 65: 0x0E85 [0x1C] WAIT(40* ticks)
 66: 0x0E88 [0x5B] LOAD_EXT_SCHEDULER: Load scheduler "tha0" with entities [Lilisette (ID: 17167189/0x0105F355), Lilisette (ID: 17167189/0x0105F355)], work=2134*
 67: 0x0E97 [0x52] END_LOAD_SCHEDULER: End scheduler "w031" with entities [EventEntity, EventEntity], work=548*
 68: 0x0EA6 [0x45] LOAD_SCHEDULED_TASK: Load scheduler "ov40" with entities [EventEntity, EventEntity], work=[548*, 0*]
 69: 0x0EB7 [0x45] LOAD_SCHEDULED_TASK: Load scheduler "w032" with entities [EventEntity, EventEntity], work=[548*, 0*]
 70: 0x0EC8 [0x2B] Lilisette (ID: 17167189/0x0105F355) [8348*]:
    → "So here is where the magic towers are found."
 71: 0x0ECF [0x1C] WAIT(100* ticks)
 72: 0x0ED2 [0x23] WAIT_FOR_DIALOG_INTERACTION
 73: 0x0ED3 [0x5B] LOAD_EXT_SCHEDULER: Load scheduler "tha1" with entities [Lilisette (ID: 17167189/0x0105F355), Lilisette (ID: 17167189/0x0105F355)], work=2134*
 74: 0x0EE2 [0x1C] WAIT(120* ticks)
 75: 0x0EE5 [0x27] REQ_SET(priority=0x10, entity_id=Lilisette (ID: 17167189/0x0105F355), tag_num=0x0A)
 76: 0x0EEC [0x1C] WAIT(40* ticks)
 77: 0x0EEF [0x52] END_LOAD_SCHEDULER: End scheduler "w032" with entities [EventEntity, EventEntity], work=548*
 78: 0x0EFE [0x45] LOAD_SCHEDULED_TASK: Load scheduler "ov40" with entities [EventEntity, EventEntity], work=[548*, 0*]
 79: 0x0F0F [0x45] LOAD_SCHEDULED_TASK: Load scheduler "w033" with entities [EventEntity, EventEntity], work=[548*, 0*]
 80: 0x0F20 [0x1C] WAIT(50* ticks)
 81: 0x0F23 [0x27] REQ_SET(priority=0x10, entity_id=LocalPlayer, tag_num=0x1C)
 82: 0x0F2A [0x2A] GET_REQ_LEVEL(level=16, entity_id=Lilisette (ID: 17167189/0x0105F355))
 83: 0x0F30 [0x4A] Lilisette (ID: 17167189/0x0105F355) looks at Unnamed NPC (ID: 17167235/0x0105F383)
 84: 0x0F39 [0x1C] WAIT(30* ticks)
 85: 0x0F3C [0x4A] LocalPlayer looks at Lilisette (ID: 17167189/0x0105F355)
 86: 0x0F45 [0x1C] WAIT(30* ticks)
 87: 0x0F48 [0x7B] Lilisette (ID: 17167189/0x0105F355) stops talking
 88: 0x0F4D [0x5B] LOAD_EXT_SCHEDULER: Load scheduler "aan0" with entities [Lilisette (ID: 17167189/0x0105F355), Lilisette (ID: 17167189/0x0105F355)], work=2140*
 89: 0x0F5C [0x1C] WAIT(80* ticks)
 90: 0x0F5F [0x2B] Lilisette (ID: 17167189/0x0105F355) [8349*]:
    → "And all I'm required to do is mend cracks using the putty..."
 91: 0x0F66 [0x1C] WAIT(20* ticks)
 92: 0x0F69 [0x52] END_LOAD_SCHEDULER: End scheduler "w033" with entities [EventEntity, EventEntity], work=548*
 93: 0x0F78 [0x45] LOAD_SCHEDULED_TASK: Load scheduler "ov40" with entities [EventEntity, EventEntity], work=[548*, 0*]
 94: 0x0F89 [0x45] LOAD_SCHEDULED_TASK: Load scheduler "w034" with entities [EventEntity, EventEntity], work=[548*, 0*]
 95: 0x0F9A [0x1C] WAIT(1* ticks)
 96: 0x0F9D [0xBA] SET_ENTITY_POSITION(entity_id=LocalPlayer, pos_x=271.028*, pos_z=39.047*, pos_y=-4.519*, direction=184.5°*)
 97: 0x0FAA [0x1C] WAIT(170* ticks)
 98: 0x0FAD [0x23] WAIT_FOR_DIALOG_INTERACTION
 99: 0x0FAE [0x52] END_LOAD_SCHEDULER: End scheduler "w034" with entities [EventEntity, EventEntity], work=548*
100: 0x0FBD [0x45] LOAD_SCHEDULED_TASK: Load scheduler "ov40" with entities [EventEntity, EventEntity], work=[548*, 0*]
101: 0x0FCE [0x45] LOAD_SCHEDULED_TASK: Load scheduler "w035" with entities [EventEntity, EventEntity], work=[548*, 0*]
102: 0x0FDF [0x03] Work_Zone[2] = 947*
103: 0x0FE4 [0x48] [System] [8350*]:
    → "Lilisette applies $3 to the cracks on the entrance."
104: 0x0FE7 [0x23] WAIT_FOR_DIALOG_INTERACTION
105: 0x0FE8 [0x1C] WAIT(100* ticks)
106: 0x0FEB [0x5B] LOAD_EXT_SCHEDULER: Load scheduler "aan1" with entities [Lilisette (ID: 17167189/0x0105F355), Lilisette (ID: 17167189/0x0105F355)], work=2140*
107: 0x0FFA [0x1C] WAIT(150* ticks)
108: 0x0FFD [0x5B] LOAD_EXT_SCHEDULER: Load scheduler "tlc0" with entities [Lilisette (ID: 17167189/0x0105F355), Lilisette (ID: 17167189/0x0105F355)], work=2132*
109: 0x100C [0x52] END_LOAD_SCHEDULER: End scheduler "w035" with entities [EventEntity, EventEntity], work=548*
110: 0x101B [0x45] LOAD_SCHEDULED_TASK: Load scheduler "w036" with entities [EventEntity, EventEntity], work=[548*, 0*]
111: 0x102C [0x2B] Lilisette (ID: 17167189/0x0105F355) [8351*]:
    → "Well, that was a piece of cake. I didn't even break a single bead of sweat!"
112: 0x1033 [0x1C] WAIT(90* ticks)
113: 0x1036 [0x23] WAIT_FOR_DIALOG_INTERACTION
114: 0x1037 [0x52] END_LOAD_SCHEDULER: End scheduler "w036" with entities [EventEntity, EventEntity], work=548*
115: 0x1046 [0x45] LOAD_SCHEDULED_TASK: Load scheduler "ov40" with entities [EventEntity, EventEntity], work=[548*, 0*]
116: 0x1057 [0x45] LOAD_SCHEDULED_TASK: Load scheduler "w037" with entities [EventEntity, EventEntity], work=[548*, 0*]
117: 0x1068 [0x27] REQ_SET(priority=0x10, entity_id=Lilisette (ID: 17167189/0x0105F355), tag_num=0x0B)
118: 0x106F [0x1C] WAIT(80* ticks)
119: 0x1072 [0x4A] LocalPlayer looks at Lilisette (ID: 17167189/0x0105F355)
120: 0x107B [0x1C] WAIT(80* ticks)
121: 0x107E [0x4A] LocalPlayer looks at Lilisette (ID: 17167189/0x0105F355)
122: 0x1087 [0x1C] WAIT(60* ticks)
123: 0x108A [0x1A] CALL_SUBROUTINE(address=0x22A2)
124: 0x108D [0x7A] VM_CONTROL: Reset VM for Lilisette (ID: 17167189/0x0105F355)
125: 0x1093 [0x1C] WAIT(30* ticks)
126: 0x1096 [0x52] END_LOAD_SCHEDULER: End scheduler "w037" with entities [EventEntity, EventEntity], work=548*
127: 0x10A5 [0x1B] RETURN

SUBROUTINE_10A6:
128: 0x10A6 [0x5B] LOAD_EXT_SCHEDULER: Load scheduler 0xFEFEFE00 with entities [Lilisette (ID: 17167189/0x0105F355), Lilisette (ID: 17167189/0x0105F355)], work=2132*
129: 0x10B5 [0x1C] WAIT(5* ticks)
130: 0x10B8 [0xBA] SET_ENTITY_POSITION(entity_id=LocalPlayer, pos_x=267.072*, pos_z=39.785*, pos_y=-5.367*, direction=180.5°*)
131: 0x10C5 [0xBA] SET_ENTITY_POSITION(entity_id=Lilisette (ID: 17167189/0x0105F355), pos_x=265.927*, pos_z=39.829*, pos_y=-5.499*, direction=189.3°*)
132: 0x10D2 [0x4A] LocalPlayer looks at Unnamed NPC (ID: 17167235/0x0105F383)
133: 0x10DB [0x4A] Lilisette (ID: 17167189/0x0105F355) looks at Unnamed NPC (ID: 17167235/0x0105F383)
134: 0x10E4 [0x7B] Lilisette (ID: 17167189/0x0105F355) stops talking
135: 0x10E9 [0x1C] WAIT(30* ticks)
136: 0x10EC [0x5B] LOAD_EXT_SCHEDULER: Load scheduler "aanl" with entities [Lilisette (ID: 17167189/0x0105F355), Lilisette (ID: 17167189/0x0105F355)], work=2140*
137: 0x10FB [0x45] LOAD_SCHEDULED_TASK: Load scheduler "w030" with entities [EventEntity, EventEntity], work=[548*, 0*]
138: 0x110C [0x1A] CALL_SUBROUTINE(address=0x2281)
139: 0x110F [0x03] Work_Zone[2] = 947*
140: 0x1114 [0x48] [System] [8347*]:
    → "This door has already been repaired with $3."
141: 0x1117 [0x1C] WAIT(120* ticks)
142: 0x111A [0x23] WAIT_FOR_DIALOG_INTERACTION
143: 0x111B [0x1A] CALL_SUBROUTINE(address=0x22E4)
144: 0x111E [0x1C] WAIT(30* ticks)
145: 0x1121 [0x52] END_LOAD_SCHEDULER: End scheduler "w030" with entities [EventEntity, EventEntity], work=548*
146: 0x1130 [0x27] REQ_SET(priority=0x10, entity_id=Lilisette (ID: 17167189/0x0105F355), tag_num=0x08)
147: 0x1137 [0x27] REQ_SET(priority=0x10, entity_id=LocalPlayer, tag_num=0x1D)
148: 0x113E [0xBA] SET_ENTITY_POSITION(entity_id=LocalPlayer, pos_x=270.266*, pos_z=40.900*, pos_y=-4.709*, direction=182.3°*)
149: 0x114B [0x4A] LocalPlayer looks at Lilisette (ID: 17167189/0x0105F355)
150: 0x1154 [0x1C] WAIT(60* ticks)
151: 0x1157 [0x5B] LOAD_EXT_SCHEDULER: Load scheduler "aan1" with entities [Lilisette (ID: 17167189/0x0105F355), Lilisette (ID: 17167189/0x0105F355)], work=2140*
152: 0x1166 [0x45] LOAD_SCHEDULED_TASK: Load scheduler "w231" with entities [EventEntity, EventEntity], work=[548*, 0*]
153: 0x1177 [0x1A] CALL_SUBROUTINE(address=0x21FD)
154: 0x117A [0x03] Work_Zone[2] = 947*
155: 0x117F [0x48] [System] [8350*]:
    → "Lilisette applies $3 to the cracks on the entrance."
156: 0x1182 [0x23] WAIT_FOR_DIALOG_INTERACTION
157: 0x1183 [0x1C] WAIT(170* ticks)
158: 0x1186 [0x5B] LOAD_EXT_SCHEDULER: Load scheduler "tlc0" with entities [Lilisette (ID: 17167189/0x0105F355), Lilisette (ID: 17167189/0x0105F355)], work=2132*
159: 0x1195 [0x52] END_LOAD_SCHEDULER: End scheduler "w231" with entities [EventEntity, EventEntity], work=548*
160: 0x11A4 [0x45] LOAD_SCHEDULED_TASK: Load scheduler "w232" with entities [EventEntity, EventEntity], work=[548*, 0*]
161: 0x11B5 [0x2B] Lilisette (ID: 17167189/0x0105F355) [8352*]:
    → "Phew... One thing's for certain: Sarutabaruta's vastness is not to be mocked."
162: 0x11BC [0x1C] WAIT(110* ticks)
163: 0x11BF [0x23] WAIT_FOR_DIALOG_INTERACTION
164: 0x11C0 [0x81] SET_ENTITY_BLINKING(blink_flag=0x00, entity=Lilisette (ID: 17167189/0x0105F355))
165: 0x11C6 [0x7C] Lilisette (ID: 17167189/0x0105F355)->Render.Flags2 |= 0x00
166: 0x11CC [0x5B] LOAD_EXT_SCHEDULER: Load scheduler "fa01" with entities [Lilisette (ID: 17167189/0x0105F355), Lilisette (ID: 17167189/0x0105F355)], work=2135*
167: 0x11DB [0x5B] LOAD_EXT_SCHEDULER: Load scheduler "tlc1" with entities [Lilisette (ID: 17167189/0x0105F355), Lilisette (ID: 17167189/0x0105F355)], work=2132*
168: 0x11EA [0x52] END_LOAD_SCHEDULER: End scheduler "w232" with entities [EventEntity, EventEntity], work=548*
169: 0x11F9 [0x45] LOAD_SCHEDULED_TASK: Load scheduler "ov40" with entities [EventEntity, EventEntity], work=[548*, 0*]
170: 0x120A [0x45] LOAD_SCHEDULED_TASK: Load scheduler "w234" with entities [EventEntity, EventEntity], work=[548*, 0*]
171: 0x121B [0x2B] Lilisette (ID: 17167189/0x0105F355) [8353*]:
    → "To think about it, though, isn't this more akin to household drudgery than a test of fighting prowess?"
172: 0x1222 [0x1C] WAIT(100* ticks)
173: 0x1225 [0x23] WAIT_FOR_DIALOG_INTERACTION
174: 0x1226 [0x5B] LOAD_EXT_SCHEDULER: Load scheduler "fa00" with entities [Lilisette (ID: 17167189/0x0105F355), Lilisette (ID: 17167189/0x0105F355)], work=2135*
175: 0x1235 [0x5B] LOAD_EXT_SCHEDULER: Load scheduler "thb0" with entities [Lilisette (ID: 17167189/0x0105F355), Lilisette (ID: 17167189/0x0105F355)], work=2133*
176: 0x1244 [0x1C] WAIT(30* ticks)
177: 0x1247 [0x52] END_LOAD_SCHEDULER: End scheduler "w234" with entities [EventEntity, EventEntity], work=548*
178: 0x1256 [0x45] LOAD_SCHEDULED_TASK: Load scheduler "w235" with entities [EventEntity, EventEntity], work=[548*, 0*]
179: 0x1267 [0x2B] Lilisette (ID: 17167189/0x0105F355) [8354*]:
    → "..."
180: 0x126E [0x1C] WAIT(140* ticks)
181: 0x1271 [0x23] WAIT_FOR_DIALOG_INTERACTION
182: 0x1272 [0x5B] LOAD_EXT_SCHEDULER: Load scheduler "fa01" with entities [Lilisette (ID: 17167189/0x0105F355), Lilisette (ID: 17167189/0x0105F355)], work=2135*
183: 0x1281 [0x5B] LOAD_EXT_SCHEDULER: Load scheduler "kai0" with entities [Lilisette (ID: 17167189/0x0105F355), Lilisette (ID: 17167189/0x0105F355)], work=2240*
184: 0x1290 [0x52] END_LOAD_SCHEDULER: End scheduler "w235" with entities [EventEntity, EventEntity], work=548*
185: 0x129F [0x45] LOAD_SCHEDULED_TASK: Load scheduler "ov30" with entities [EventEntity, EventEntity], work=[548*, 0*]
186: 0x12B0 [0x45] LOAD_SCHEDULED_TASK: Load scheduler "w236" with entities [EventEntity, EventEntity], work=[548*, 0*]
187: 0x12C1 [0x1C] WAIT(30* ticks)
188: 0x12C4 [0x2B] Lilisette (ID: 17167189/0x0105F355) [8355*]:
    → "Grrr! If only <Player> were here to share the workload, we'd be finished and sipping Windurstian tea by now. But then again, that would sort of defeat the purpose..."
189: 0x12CB [0x1C] WAIT(65* ticks)
190: 0x12CE [0x6E] LocalPlayer uses emote 21*
191: 0x12D5 [0x99] Wait for LocalPlayer animation to complete
192: 0x12DA [0x1C] WAIT(145* ticks)
193: 0x12DD [0x23] WAIT_FOR_DIALOG_INTERACTION
194: 0x12DE [0x5B] LOAD_EXT_SCHEDULER: Load scheduler "f201" with entities [Lilisette (ID: 17167189/0x0105F355), Lilisette (ID: 17167189/0x0105F355)], work=2135*
195: 0x12ED [0x5B] LOAD_EXT_SCHEDULER: Load scheduler "hdb1" with entities [Lilisette (ID: 17167189/0x0105F355), Lilisette (ID: 17167189/0x0105F355)], work=2128*
196: 0x12FC [0x52] END_LOAD_SCHEDULER: End scheduler "w236" with entities [EventEntity, EventEntity], work=547*
197: 0x130B [0x45] LOAD_SCHEDULED_TASK: Load scheduler "ov40" with entities [EventEntity, EventEntity], work=[548*, 0*]
198: 0x131C [0x45] LOAD_SCHEDULED_TASK: Load scheduler "w237" with entities [EventEntity, EventEntity], work=[548*, 0*]
199: 0x132D [0x1C] WAIT(70* ticks)
200: 0x1330 [0x2B] Lilisette (ID: 17167189/0x0105F355) [8356*]:
    → "Hehehe... I can't wait to see the surprised look on <Player>'s face when [he/she] sees me lined up among the Cobras!"
201: 0x1337 [0x23] WAIT_FOR_DIALOG_INTERACTION
202: 0x1338 [0x5B] LOAD_EXT_SCHEDULER: Load scheduler "kia0" with entities [Lilisette (ID: 17167189/0x0105F355), Lilisette (ID: 17167189/0x0105F355)], work=2245*
203: 0x1347 [0x52] END_LOAD_SCHEDULER: End scheduler "w237" with entities [EventEntity, EventEntity], work=548*
204: 0x1356 [0x45] LOAD_SCHEDULED_TASK: Load scheduler "w238" with entities [EventEntity, EventEntity], work=[548*, 0*]
205: 0x1367 [0x2B] Lilisette (ID: 17167189/0x0105F355) [8357*]:
    → "Just a little bit further and I'll be home free!"
206: 0x136E [0x1C] WAIT(135* ticks)
207: 0x1371 [0x23] WAIT_FOR_DIALOG_INTERACTION
208: 0x1372 [0x1A] CALL_SUBROUTINE(address=0x22A2)
209: 0x1375 [0x52] END_LOAD_SCHEDULER: End scheduler "w238" with entities [EventEntity, EventEntity], work=548*
210: 0x1384 [0x1C] WAIT(30* ticks)
211: 0x1387 [0x1B] RETURN

SUBROUTINE_1388:
212: 0x1388 [0xBA] SET_ENTITY_POSITION(entity_id=LocalPlayer, pos_x=267.072*, pos_z=39.785*, pos_y=-5.367*, direction=180.5°*)
213: 0x1395 [0xBA] SET_ENTITY_POSITION(entity_id=Lilisette (ID: 17167189/0x0105F355), pos_x=265.927*, pos_z=39.829*, pos_y=-5.499*, direction=189.3°*)
214: 0x13A2 [0x4A] LocalPlayer looks at Unnamed NPC (ID: 17167235/0x0105F383)
215: 0x13AB [0x4A] Lilisette (ID: 17167189/0x0105F355) looks at Unnamed NPC (ID: 17167235/0x0105F383)
216: 0x13B4 [0x5B] LOAD_EXT_SCHEDULER: Load scheduler 0xFEFEFE00 with entities [Lilisette (ID: 17167189/0x0105F355), Lilisette (ID: 17167189/0x0105F355)], work=2140*
217: 0x13C3 [0x7B] Lilisette (ID: 17167189/0x0105F355) stops talking
218: 0x13C8 [0x1C] WAIT(30* ticks)
219: 0x13CB [0x45] LOAD_SCHEDULED_TASK: Load scheduler "w030" with entities [EventEntity, EventEntity], work=[548*, 0*]
220: 0x13DC [0x1A] CALL_SUBROUTINE(address=0x2281)
221: 0x13DF [0x03] Work_Zone[2] = 947*
222: 0x13E4 [0x48] [System] [8358*]:
    → "This door has already been repaired with $3, although perhaps not quite to the highest standard."
223: 0x13E7 [0x1C] WAIT(120* ticks)
224: 0x13EA [0x23] WAIT_FOR_DIALOG_INTERACTION
225: 0x13EB [0x1A] CALL_SUBROUTINE(address=0x22E4)
226: 0x13EE [0x1C] WAIT(30* ticks)
227: 0x13F1 [0x52] END_LOAD_SCHEDULER: End scheduler "w030" with entities [EventEntity, EventEntity], work=548*
228: 0x1400 [0x27] REQ_SET(priority=0x10, entity_id=Lilisette (ID: 17167189/0x0105F355), tag_num=0x08)
229: 0x1407 [0x27] REQ_SET(priority=0x10, entity_id=LocalPlayer, tag_num=0x1D)
230: 0x140E [0xBA] SET_ENTITY_POSITION(entity_id=LocalPlayer, pos_x=270.266*, pos_z=40.900*, pos_y=-4.709*, direction=182.3°*)
231: 0x141B [0x4A] LocalPlayer looks at Lilisette (ID: 17167189/0x0105F355)
232: 0x1424 [0x1C] WAIT(60* ticks)
233: 0x1427 [0x5B] LOAD_EXT_SCHEDULER: Load scheduler "hdc0" with entities [Lilisette (ID: 17167189/0x0105F355), Lilisette (ID: 17167189/0x0105F355)], work=2242*
234: 0x1436 [0x1C] WAIT(60* ticks)
235: 0x1439 [0x45] LOAD_SCHEDULED_TASK: Load scheduler "w431" with entities [EventEntity, EventEntity], work=[548*, 0*]
236: 0x144A [0x1A] CALL_SUBROUTINE(address=0x21FD)
237: 0x144D [0x2B] Lilisette (ID: 17167189/0x0105F355) [8359*]:
    → "Yaaargh! Take this, you detestable crack!"
238: 0x1454 [0x23] WAIT_FOR_DIALOG_INTERACTION
239: 0x1455 [0x52] END_LOAD_SCHEDULER: End scheduler "w431" with entities [EventEntity, EventEntity], work=548*
240: 0x1464 [0x45] LOAD_SCHEDULED_TASK: Load scheduler "ov40" with entities [EventEntity, EventEntity], work=[548*, 0*]
241: 0x1475 [0x45] LOAD_SCHEDULED_TASK: Load scheduler "w432" with entities [EventEntity, EventEntity], work=[548*, 0*]
242: 0x1486 [0x03] Work_Zone[2] = 947*
243: 0x148B [0x48] [System] [8350*]:
    → "Lilisette applies $3 to the cracks on the entrance."
244: 0x148E [0x1C] WAIT(80* ticks)
245: 0x1491 [0x5B] LOAD_EXT_SCHEDULER: Load scheduler "hdc1" with entities [Lilisette (ID: 17167189/0x0105F355), Lilisette (ID: 17167189/0x0105F355)], work=2242*
246: 0x14A0 [0x1C] WAIT(160* ticks)
247: 0x14A3 [0x81] SET_ENTITY_BLINKING(blink_flag=0x00, entity=Lilisette (ID: 17167189/0x0105F355))
248: 0x14A9 [0x5B] LOAD_EXT_SCHEDULER: Load scheduler "yah0" with entities [Lilisette (ID: 17167189/0x0105F355), Lilisette (ID: 17167189/0x0105F355)], work=2128*
249: 0x14B8 [0x52] END_LOAD_SCHEDULER: End scheduler "w432" with entities [EventEntity, EventEntity], work=548*
250: 0x14C7 [0x45] LOAD_SCHEDULED_TASK: Load scheduler "w433" with entities [EventEntity, EventEntity], work=[548*, 0*]
251: 0x14D8 [0x2B] Lilisette (ID: 17167189/0x0105F355) [8360*]:
    → "Ta-da! Mission accomplished!"
252: 0x14DF [0x1C] WAIT(110* ticks)
253: 0x14E2 [0x23] WAIT_FOR_DIALOG_INTERACTION
254: 0x14E3 [0x5B] LOAD_EXT_SCHEDULER: Load scheduler "yah1" with entities [Lilisette (ID: 17167189/0x0105F355), Lilisette (ID: 17167189/0x0105F355)], work=2128*
255: 0x14F2 [0x52] END_LOAD_SCHEDULER: End scheduler "w433" with entities [EventEntity, EventEntity], work=548*
256: 0x1501 [0x45] LOAD_SCHEDULED_TASK: Load scheduler "ov40" with entities [EventEntity, EventEntity], work=[548*, 0*]
257: 0x1512 [0x45] LOAD_SCHEDULED_TASK: Load scheduler "w434" with entities [EventEntity, EventEntity], work=[548*, 0*]
258: 0x1523 [0x1C] WAIT(100* ticks)
259: 0x1526 [0x5B] LOAD_EXT_SCHEDULER: Load scheduler "thb0" with entities [Lilisette (ID: 17167189/0x0105F355), Lilisette (ID: 17167189/0x0105F355)], work=2133*
260: 0x1535 [0x1C] WAIT(60* ticks)
261: 0x1538 [0x52] END_LOAD_SCHEDULER: End scheduler "w434" with entities [EventEntity, EventEntity], work=548*
262: 0x1547 [0x45] LOAD_SCHEDULED_TASK: Load scheduler "ov40" with entities [EventEntity, EventEntity], work=[548*, 0*]
263: 0x1558 [0x45] LOAD_SCHEDULED_TASK: Load scheduler "w435" with entities [EventEntity, EventEntity], work=[548*, 0*]
264: 0x1569 [0x2B] Lilisette (ID: 17167189/0x0105F355) [8361*]:
