# 17167235

## Common Data

| Field            | Value                          |
|------------------|--------------------------------|
| Zone             | West Sarutabaruta [S] (ID: 95) |
| Block Size       | 692 bytes                      |
| Total Events     | 19                             |
| References Count | 23                             |

## List of Events

| Event ID                   | Entrypoint   |   Size |   Instructions |
|----------------------------|--------------|--------|----------------|
| [65535](#event-65535)      | 0x0000       |      1 |              1 |
| [65535.1](#event-655351)   | 0x0001       |      1 |              1 |
| [65535.2](#event-655352)   | 0x0002       |     18 |              4 |
| [65535.3](#event-655353)   | 0x0014       |     10 |              2 |
| [65535.4](#event-655354)   | 0x001E       |      9 |              3 |
| [65535.5](#event-655355)   | 0x0027       |      9 |              3 |
| [65535.6](#event-655356)   | 0x0030       |     10 |              2 |
| [65535.7](#event-655357)   | 0x003A       |     10 |              2 |
| [114](#event-114)          | 0x0044       |      1 |              1 |
| [115](#event-115)          | 0x0045       |      1 |              1 |
| [116](#event-116)          | 0x0046       |      1 |              1 |
| [65535.8](#event-655358)   | 0x0047       |      1 |              1 |
| [110](#event-110)          | 0x0048       |      1 |              1 |
| [65535.9](#event-655359)   | 0x0049       |     55 |              7 |
| [65535.10](#event-6553510) | 0x0080       |    307 |             36 |
| [65535.11](#event-6553511) | 0x01B3       |     22 |              4 |
| [65535.12](#event-6553512) | 0x01C9       |     10 |              2 |
| [65535.13](#event-6553513) | 0x01D3       |     10 |              2 |
| [65535.14](#event-6553514) | 0x01DD       |     28 |              4 |

## DAT References (imed_data)

|   Index | Hex Value   |   Dec Value |
|---------|-------------|-------------|
|       0 | 0x0000      |           0 |
|       1 | 0x0001      |           1 |
|       2 | 0x0080      |         128 |
|       3 | 0xFFFB45AD  |  4294657453 |
|       4 | 0xFFFFCD67  |  4294954343 |
|       5 | 0xFFFF4480  |  4294919296 |
|       6 | 0x0C7B      |        3195 |
|       7 | 0xFFFB4444  |  4294657092 |
|       8 | 0xFFFFCC9E  |  4294954142 |
|       9 | 0xFFFB428D  |  4294656653 |
|      10 | 0xFFFFC8E8  |  4294953192 |
|      11 | 0x0C7C      |        3196 |
|      12 | 0xFFFB225E  |  4294648414 |
|      13 | 0xFFFFC7C9  |  4294952905 |
|      14 | 0xFFFF4481  |  4294919297 |
|      15 | 0x0C6C      |        3180 |
|      16 | 0xFFFB2902  |  4294650114 |
|      17 | 0xFFFFC5EE  |  4294952430 |
|      18 | 0xFFFB4213  |  4294656531 |
|      19 | 0xFFFFC245  |  4294951493 |
|      20 | 0xFFFB2A29  |  4294650409 |
|      21 | 0xFFFFC361  |  4294951777 |
|      22 | 0x0067      |         103 |

## Events

### Event 65535

#### Metadata

| Field        | Value   |
|--------------|---------|
| Entrypoint   | 0x0000  |
| Data Size    | 1 bytes |
| Instructions | 1       |

```
      00 01 02 03 04 05 06 07  08 09 0A 0B 0C 0D 0E 0F
      -- -- -- -- -- -- -- --  -- -- -- -- -- -- -- --
0000: 00                                                .               
```

#### Opcodes

```
  0: 0x0000 [0x00] END_REQSTACK()
```

### Event 65535.1

#### Metadata

| Field        | Value   |
|--------------|---------|
| Entrypoint   | 0x0001  |
| Data Size    | 1 bytes |
| Instructions | 1       |

```
      00 01 02 03 04 05 06 07  08 09 0A 0B 0C 0D 0E 0F
      -- -- -- -- -- -- -- --  -- -- -- -- -- -- -- --
0000:    00                                              .              
```

#### Opcodes

```
  0: 0x0001 [0x00] END_REQSTACK()
```

### Event 65535.2

#### Metadata

| Field        | Value    |
|--------------|----------|
| Entrypoint   | 0x0002   |
| Data Size    | 18 bytes |
| Instructions | 4        |

```
      00 01 02 03 04 05 06 07  08 09 0A 0B 0C 0D 0E 0F
      -- -- -- -- -- -- -- --  -- -- -- -- -- -- -- --
0000:       22 00 2F 00 F8 FF  FF 7F 6C F8 FF FF 7F 00    "./.....l.....
0010: 80 01 80 00                                       ....            
```

#### Opcodes

```
  0: 0x0002 [0x22] ENTITY_HIDE_FLAG(enabled=0x00)
  1: 0x0004 [0x2F] EventEntity->Render.Flags0 &= ~0x80000 // Bit 19
  2: 0x000A [0x6C] FADE_ENTITY_COLOR(entity_id=EventEntity, end_alpha=0*, fade_time=1*)
  3: 0x0013 [0x00] END_REQSTACK()
```

### Event 65535.3

#### Metadata

| Field        | Value    |
|--------------|----------|
| Entrypoint   | 0x0014   |
| Data Size    | 10 bytes |
| Instructions | 2        |

```
      00 01 02 03 04 05 06 07  08 09 0A 0B 0C 0D 0E 0F
      -- -- -- -- -- -- -- --  -- -- -- -- -- -- -- --
0010:             6C F8 FF FF  7F 02 80 01 80 00            l.........  
```

#### Opcodes

```
  0: 0x0014 [0x6C] FADE_ENTITY_COLOR(entity_id=EventEntity, end_alpha=128*, fade_time=1*)
  1: 0x001D [0x00] END_REQSTACK()
```

### Event 65535.4

#### Metadata

| Field        | Value   |
|--------------|---------|
| Entrypoint   | 0x001E  |
| Data Size    | 9 bytes |
| Instructions | 3       |

```
      00 01 02 03 04 05 06 07  08 09 0A 0B 0C 0D 0E 0F
      -- -- -- -- -- -- -- --  -- -- -- -- -- -- -- --
0010:                                            22 00                ".
0020: 2F 00 F8 FF FF 7F 00                              /......         
```

#### Opcodes

```
  0: 0x001E [0x22] ENTITY_HIDE_FLAG(enabled=0x00)
  1: 0x0020 [0x2F] EventEntity->Render.Flags0 &= ~0x80000 // Bit 19
  2: 0x0026 [0x00] END_REQSTACK()
```

### Event 65535.5

#### Metadata

| Field        | Value   |
|--------------|---------|
| Entrypoint   | 0x0027  |
| Data Size    | 9 bytes |
| Instructions | 3       |

```
      00 01 02 03 04 05 06 07  08 09 0A 0B 0C 0D 0E 0F
      -- -- -- -- -- -- -- --  -- -- -- -- -- -- -- --
0020:                      22  01 2F 01 F8 FF FF 7F 00         "./......
```

#### Opcodes

```
  0: 0x0027 [0x22] ENTITY_HIDE_FLAG(enabled=0x01)
  1: 0x0029 [0x2F] EventEntity->Render.Flags0 |= 0x80000 // Bit 19
  2: 0x002F [0x00] END_REQSTACK()
```

### Event 65535.6

#### Metadata

| Field        | Value    |
|--------------|----------|
| Entrypoint   | 0x0030   |
| Data Size    | 10 bytes |
| Instructions | 2        |

```
      00 01 02 03 04 05 06 07  08 09 0A 0B 0C 0D 0E 0F
      -- -- -- -- -- -- -- --  -- -- -- -- -- -- -- --
0030: 6C F8 FF FF 7F 00 80 01  80 00                    l.........      
```

#### Opcodes

```
  0: 0x0030 [0x6C] FADE_ENTITY_COLOR(entity_id=EventEntity, end_alpha=0*, fade_time=1*)
  1: 0x0039 [0x00] END_REQSTACK()
```

### Event 65535.7

#### Metadata

| Field        | Value    |
|--------------|----------|
| Entrypoint   | 0x003A   |
| Data Size    | 10 bytes |
| Instructions | 2        |

```
      00 01 02 03 04 05 06 07  08 09 0A 0B 0C 0D 0E 0F
      -- -- -- -- -- -- -- --  -- -- -- -- -- -- -- --
0030:                                6C F8 FF FF 7F 02            l.....
0040: 80 01 80 00                                       ....            
```

#### Opcodes

```
  0: 0x003A [0x6C] FADE_ENTITY_COLOR(entity_id=EventEntity, end_alpha=128*, fade_time=1*)
  1: 0x0043 [0x00] END_REQSTACK()
```

### Event 114

#### Metadata

| Field        | Value   |
|--------------|---------|
| Entrypoint   | 0x0044  |
| Data Size    | 1 bytes |
| Instructions | 1       |

```
      00 01 02 03 04 05 06 07  08 09 0A 0B 0C 0D 0E 0F
      -- -- -- -- -- -- -- --  -- -- -- -- -- -- -- --
0040:             00                                        .           
```

#### Opcodes

```
  0: 0x0044 [0x00] END_REQSTACK()
```

### Event 115

#### Metadata

| Field        | Value   |
|--------------|---------|
| Entrypoint   | 0x0045  |
| Data Size    | 1 bytes |
| Instructions | 1       |

```
      00 01 02 03 04 05 06 07  08 09 0A 0B 0C 0D 0E 0F
      -- -- -- -- -- -- -- --  -- -- -- -- -- -- -- --
0040:                00                                      .          
```

#### Opcodes

```
  0: 0x0045 [0x00] END_REQSTACK()
```

### Event 116

#### Metadata

| Field        | Value   |
|--------------|---------|
| Entrypoint   | 0x0046  |
| Data Size    | 1 bytes |
| Instructions | 1       |

```
      00 01 02 03 04 05 06 07  08 09 0A 0B 0C 0D 0E 0F
      -- -- -- -- -- -- -- --  -- -- -- -- -- -- -- --
0040:                   00                                    .         
```

#### Opcodes

```
  0: 0x0046 [0x00] END_REQSTACK()
```

### Event 65535.8

#### Metadata

| Field        | Value   |
|--------------|---------|
| Entrypoint   | 0x0047  |
| Data Size    | 1 bytes |
| Instructions | 1       |

```
      00 01 02 03 04 05 06 07  08 09 0A 0B 0C 0D 0E 0F
      -- -- -- -- -- -- -- --  -- -- -- -- -- -- -- --
0040:                      00                                  .        
```

#### Opcodes

```
  0: 0x0047 [0x00] END_REQSTACK()
```

### Event 110

#### Metadata

| Field        | Value   |
|--------------|---------|
| Entrypoint   | 0x0048  |
| Data Size    | 1 bytes |
| Instructions | 1       |

```
      00 01 02 03 04 05 06 07  08 09 0A 0B 0C 0D 0E 0F
      -- -- -- -- -- -- -- --  -- -- -- -- -- -- -- --
0040:                          00                               .       
```

#### Opcodes

```
  0: 0x0048 [0x00] END_REQSTACK()
```

### Event 65535.9

#### Metadata

| Field        | Value    |
|--------------|----------|
| Entrypoint   | 0x0049   |
| Data Size    | 55 bytes |
| Instructions | 7        |

```
      00 01 02 03 04 05 06 07  08 09 0A 0B 0C 0D 0E 0F
      -- -- -- -- -- -- -- --  -- -- -- -- -- -- -- --
0040:                             6C C8 F3 05 01 02 80           l......
0050: 01 80 6C C9 F3 05 01 02  80 01 80 6C 9E F3 05 01  ..l........l....
0060: 02 80 01 80 6C A5 F3 05  01 02 80 01 80 6C 84 F3  ....l........l..
0070: 05 01 02 80 01 80 6C 98  F3 05 01 02 80 01 80 00  ......l.........
```

#### Opcodes

```
  0: 0x0049 [0x6C] FADE_ENTITY_COLOR(entity_id=D10 (ID: 17167304/0x0105F3C8), end_alpha=128*, fade_time=1*)
  1: 0x0052 [0x6C] FADE_ENTITY_COLOR(entity_id=D11 (ID: 17167305/0x0105F3C9), end_alpha=128*, fade_time=1*)
  2: 0x005B [0x6C] FADE_ENTITY_COLOR(entity_id=Star Sibyl (ID: 17167262/0x0105F39E), end_alpha=128*, fade_time=1*)
  3: 0x0064 [0x6C] FADE_ENTITY_COLOR(entity_id=kakashi1 (ID: 17167269/0x0105F3A5), end_alpha=128*, fade_time=1*)
  4: 0x006D [0x6C] FADE_ENTITY_COLOR(entity_id=taru1 (ID: 17167236/0x0105F384), end_alpha=128*, fade_time=1*)
  5: 0x0076 [0x6C] FADE_ENTITY_COLOR(entity_id=Perih Vashai (ID: 17167256/0x0105F398), end_alpha=128*, fade_time=1*)
  6: 0x007F [0x00] END_REQSTACK()
```

### Event 65535.10

#### Metadata

| Field        | Value     |
|--------------|-----------|
| Entrypoint   | 0x0080    |
| Data Size    | 307 bytes |
| Instructions | 36        |

```
      00 01 02 03 04 05 06 07  08 09 0A 0B 0C 0D 0E 0F
      -- -- -- -- -- -- -- --  -- -- -- -- -- -- -- --
0080: 7A 00 8A F3 05 01 7A 00  8B F3 05 01 7A 00 8D F3  z.....z.....z...
0090: 05 01 7A 00 8C F3 05 01  7A 00 8F F3 05 01 7A 00  ..z.....z.....z.
00A0: C8 F3 05 01 7A 00 C9 F3  05 01 7A 00 9E F3 05 01  ....z.....z.....
00B0: 7A 00 A5 F3 05 01 7A 00  98 F3 05 01 7A 00 84 F3  z.....z.....z...
00C0: 05 01 7A 00 A0 F3 05 01  7A 00 89 F3 05 01 1C 01  ..z.....z.......
00D0: 80 27 10 8A F3 05 01 08  27 10 8B F3 05 01 0C 27  .'......'......'
00E0: 10 8D F3 05 01 09 27 10  8C F3 05 01 09 27 10 8F  ......'......'..
00F0: F3 05 01 0F 27 10 A0 F3  05 01 09 27 10 84 F3 05  ....'......'....
0100: 01 09 27 10 85 F3 05 01  07 BA 8A F3 05 01 03 80  ..'.............
0110: 04 80 05 80 06 80 BA 8B  F3 05 01 07 80 08 80 05  ................
0120: 80 06 80 BA 8D F3 05 01  07 80 08 80 05 80 06 80  ................
0130: BA 8C F3 05 01 03 80 04  80 05 80 06 80 BA 8F F3  ................
0140: 05 01 07 80 08 80 05 80  06 80 BA C8 F3 05 01 03  ................
0150: 80 04 80 05 80 06 80 BA  C9 F3 05 01 07 80 08 80  ................
0160: 05 80 06 80 BA 9E F3 05  01 09 80 0A 80 05 80 0B  ................
0170: 80 BA A5 F3 05 01 0C 80  0D 80 0E 80 0F 80 BA 98  ................
0180: F3 05 01 10 80 11 80 0E  80 0F 80 BA A0 F3 05 01  ................
0190: 12 80 13 80 0E 80 06 80  BA 89 F3 05 01 14 80 15  ................
01A0: 80 0E 80 0F 80 BA 84 F3  05 01 07 80 08 80 05 80  ................
01B0: 06 80 00                                          ...             
```

#### Opcodes

```
  0: 0x0080 [0x7A] VM_CONTROL: Reset VM for Haja Zhwan (ID: 17167242/0x0105F38A)
  1: 0x0086 [0x7A] VM_CONTROL: Reset VM for Mikhe Aryohcha (ID: 17167243/0x0105F38B)
  2: 0x008C [0x7A] VM_CONTROL: Reset VM for Lhu Mhakaracca (ID: 17167245/0x0105F38D)
  3: 0x0092 [0x7A] VM_CONTROL: Reset VM for Vhino Delkahngo (ID: 17167244/0x0105F38C)
  4: 0x0098 [0x7A] VM_CONTROL: Reset VM for Lutete (ID: 17167247/0x0105F38F)
  5: 0x009E [0x7A] VM_CONTROL: Reset VM for D10 (ID: 17167304/0x0105F3C8)
  6: 0x00A4 [0x7A] VM_CONTROL: Reset VM for D11 (ID: 17167305/0x0105F3C9)
  7: 0x00AA [0x7A] VM_CONTROL: Reset VM for Star Sibyl (ID: 17167262/0x0105F39E)
  8: 0x00B0 [0x7A] VM_CONTROL: Reset VM for kakashi1 (ID: 17167269/0x0105F3A5)
  9: 0x00B6 [0x7A] VM_CONTROL: Reset VM for Perih Vashai (ID: 17167256/0x0105F398)
 10: 0x00BC [0x7A] VM_CONTROL: Reset VM for taru1 (ID: 17167236/0x0105F384)
 11: 0x00C2 [0x7A] VM_CONTROL: Reset VM for Ajido-Marujido (ID: 17167264/0x0105F3A0)
 12: 0x00C8 [0x7A] VM_CONTROL: Reset VM for imp02 (ID: 17167241/0x0105F389)
 13: 0x00CE [0x1C] WAIT(1* ticks)
 14: 0x00D1 [0x27] REQ_SET(priority=0x10, entity_id=Haja Zhwan (ID: 17167242/0x0105F38A), tag_num=0x08)
 15: 0x00D8 [0x27] REQ_SET(priority=0x10, entity_id=Mikhe Aryohcha (ID: 17167243/0x0105F38B), tag_num=0x0C)
 16: 0x00DF [0x27] REQ_SET(priority=0x10, entity_id=Lhu Mhakaracca (ID: 17167245/0x0105F38D), tag_num=0x09)
 17: 0x00E6 [0x27] REQ_SET(priority=0x10, entity_id=Vhino Delkahngo (ID: 17167244/0x0105F38C), tag_num=0x09)
 18: 0x00ED [0x27] REQ_SET(priority=0x10, entity_id=Lutete (ID: 17167247/0x0105F38F), tag_num=0x0F)
 19: 0x00F4 [0x27] REQ_SET(priority=0x10, entity_id=Ajido-Marujido (ID: 17167264/0x0105F3A0), tag_num=0x09)
 20: 0x00FB [0x27] REQ_SET(priority=0x10, entity_id=taru1 (ID: 17167236/0x0105F384), tag_num=0x09)
 21: 0x0102 [0x27] REQ_SET(priority=0x10, entity_id=taru2 (ID: 17167237/0x0105F385), tag_num=0x07)
 22: 0x0109 [0xBA] SET_ENTITY_POSITION(entity_id=Haja Zhwan (ID: 17167242/0x0105F38A), pos_x=-309.843*, pos_z=-12.953*, pos_y=-48.000*, direction=280.8°*)
 23: 0x0116 [0xBA] SET_ENTITY_POSITION(entity_id=Mikhe Aryohcha (ID: 17167243/0x0105F38B), pos_x=-310.204*, pos_z=-13.154*, pos_y=-48.000*, direction=280.8°*)
 24: 0x0123 [0xBA] SET_ENTITY_POSITION(entity_id=Lhu Mhakaracca (ID: 17167245/0x0105F38D), pos_x=-310.204*, pos_z=-13.154*, pos_y=-48.000*, direction=280.8°*)
 25: 0x0130 [0xBA] SET_ENTITY_POSITION(entity_id=Vhino Delkahngo (ID: 17167244/0x0105F38C), pos_x=-309.843*, pos_z=-12.953*, pos_y=-48.000*, direction=280.8°*)
 26: 0x013D [0xBA] SET_ENTITY_POSITION(entity_id=Lutete (ID: 17167247/0x0105F38F), pos_x=-310.204*, pos_z=-13.154*, pos_y=-48.000*, direction=280.8°*)
 27: 0x014A [0xBA] SET_ENTITY_POSITION(entity_id=D10 (ID: 17167304/0x0105F3C8), pos_x=-309.843*, pos_z=-12.953*, pos_y=-48.000*, direction=280.8°*)
 28: 0x0157 [0xBA] SET_ENTITY_POSITION(entity_id=D11 (ID: 17167305/0x0105F3C9), pos_x=-310.204*, pos_z=-13.154*, pos_y=-48.000*, direction=280.8°*)
 29: 0x0164 [0xBA] SET_ENTITY_POSITION(entity_id=Star Sibyl (ID: 17167262/0x0105F39E), pos_x=-310.643*, pos_z=-14.104*, pos_y=-48.000*, direction=280.9°*)
 30: 0x0171 [0xBA] SET_ENTITY_POSITION(entity_id=kakashi1 (ID: 17167269/0x0105F3A5), pos_x=-318.882*, pos_z=-14.391*, pos_y=-47.999*, direction=279.5°*)
 31: 0x017E [0xBA] SET_ENTITY_POSITION(entity_id=Perih Vashai (ID: 17167256/0x0105F398), pos_x=-317.182*, pos_z=-14.866*, pos_y=-47.999*, direction=279.5°*)
 32: 0x018B [0xBA] SET_ENTITY_POSITION(entity_id=Ajido-Marujido (ID: 17167264/0x0105F3A0), pos_x=-310.765*, pos_z=-15.803*, pos_y=-47.999*, direction=280.8°*)
 33: 0x0198 [0xBA] SET_ENTITY_POSITION(entity_id=imp02 (ID: 17167241/0x0105F389), pos_x=-316.887*, pos_z=-15.519*, pos_y=-47.999*, direction=279.5°*)
 34: 0x01A5 [0xBA] SET_ENTITY_POSITION(entity_id=taru1 (ID: 17167236/0x0105F384), pos_x=-310.204*, pos_z=-13.154*, pos_y=-48.000*, direction=280.8°*)
 35: 0x01B2 [0x00] END_REQSTACK()
```

### Event 65535.11

#### Metadata

| Field        | Value    |
|--------------|----------|
| Entrypoint   | 0x01B3   |
| Data Size    | 22 bytes |
| Instructions | 4        |

```
      00 01 02 03 04 05 06 07  08 09 0A 0B 0C 0D 0E 0F
      -- -- -- -- -- -- -- --  -- -- -- -- -- -- -- --
01B0:          1C 16 80 6C 84  F3 05 01 02 80 01 80 6C     ...l........l
01C0: 85 F3 05 01 02 80 01 80  00                       .........       
```

#### Opcodes

```
  0: 0x01B3 [0x1C] WAIT(103* ticks)
  1: 0x01B6 [0x6C] FADE_ENTITY_COLOR(entity_id=taru1 (ID: 17167236/0x0105F384), end_alpha=128*, fade_time=1*)
  2: 0x01BF [0x6C] FADE_ENTITY_COLOR(entity_id=taru2 (ID: 17167237/0x0105F385), end_alpha=128*, fade_time=1*)
  3: 0x01C8 [0x00] END_REQSTACK()
```

### Event 65535.12

#### Metadata

| Field        | Value    |
|--------------|----------|
| Entrypoint   | 0x01C9   |
| Data Size    | 10 bytes |
| Instructions | 2        |

```
      00 01 02 03 04 05 06 07  08 09 0A 0B 0C 0D 0E 0F
      -- -- -- -- -- -- -- --  -- -- -- -- -- -- -- --
01C0:                             6C 9E F3 05 01 02 80           l......
01D0: 01 80 00                                          ...             
```

#### Opcodes

```
  0: 0x01C9 [0x6C] FADE_ENTITY_COLOR(entity_id=Star Sibyl (ID: 17167262/0x0105F39E), end_alpha=128*, fade_time=1*)
  1: 0x01D2 [0x00] END_REQSTACK()
```

### Event 65535.13

#### Metadata

| Field        | Value    |
|--------------|----------|
| Entrypoint   | 0x01D3   |
| Data Size    | 10 bytes |
| Instructions | 2        |

```
      00 01 02 03 04 05 06 07  08 09 0A 0B 0C 0D 0E 0F
      -- -- -- -- -- -- -- --  -- -- -- -- -- -- -- --
01D0:          6C 9E F3 05 01  00 80 01 80 00              l.........   
```

#### Opcodes

```
  0: 0x01D3 [0x6C] FADE_ENTITY_COLOR(entity_id=Star Sibyl (ID: 17167262/0x0105F39E), end_alpha=0*, fade_time=1*)
  1: 0x01DC [0x00] END_REQSTACK()
```

### Event 65535.14

#### Metadata

| Field        | Value    |
|--------------|----------|
| Entrypoint   | 0x01DD   |
| Data Size    | 28 bytes |
| Instructions | 4        |

```
      00 01 02 03 04 05 06 07  08 09 0A 0B 0C 0D 0E 0F
      -- -- -- -- -- -- -- --  -- -- -- -- -- -- -- --
01D0:                                         6C C9 F3               l..
01E0: 05 01 02 80 01 80 6C 87  F3 05 01 02 80 01 80 6C  ......l........l
01F0: 86 F3 05 01 02 80 01 80  00                       .........       
```

#### Opcodes

```
  0: 0x01DD [0x6C] FADE_ENTITY_COLOR(entity_id=D11 (ID: 17167305/0x0105F3C9), end_alpha=128*, fade_time=1*)
  1: 0x01E6 [0x6C] FADE_ENTITY_COLOR(entity_id=mith2 (ID: 17167239/0x0105F387), end_alpha=128*, fade_time=1*)
  2: 0x01EF [0x6C] FADE_ENTITY_COLOR(entity_id=mith1 (ID: 17167238/0x0105F386), end_alpha=128*, fade_time=1*)
  3: 0x01F8 [0x00] END_REQSTACK()
```
