# 0x7FFFFFF0 - Zone Events

## Common Data

| Field            | Value                          |
|------------------|--------------------------------|
| Zone             | West Sarutabaruta [S] (ID: 95) |
| Block Size       | 3768 bytes                     |
| Total Events     | 57                             |
| References Count | 157                            |

## List of Events

| Event ID                   | Entrypoint   |   Size |   Instructions |
|----------------------------|--------------|--------|----------------|
| [65535](#event-65535)      | 0x0000       |      1 |              1 |
| [65534](#event-65534)      | 0x0001       |      1 |              1 |
| [65535.1](#event-655351)   | 0x0002       |      6 |              2 |
| [65535.2](#event-655352)   | 0x0008       |      6 |              2 |
| [65535.3](#event-655353)   | 0x000E       |     37 |              5 |
| [65535.4](#event-655354)   | 0x0033       |     37 |              5 |
| [65535.5](#event-655355)   | 0x0058       |     37 |              5 |
| [65535.6](#event-655356)   | 0x007D       |     37 |              5 |
| [65535.7](#event-655357)   | 0x00A2       |     16 |              3 |
| [65535.8](#event-655358)   | 0x00B2       |    189 |             37 |
| [65535.9](#event-655359)   | 0x016F       |     20 |              6 |
| [65535.10](#event-6553510) | 0x0183       |     20 |              6 |
| [65535.11](#event-6553511) | 0x0197       |     20 |              6 |
| [65535.12](#event-6553512) | 0x01AB       |     20 |              6 |
| [65535.13](#event-6553513) | 0x01BF       |     20 |              6 |
| [65535.14](#event-6553514) | 0x01D3       |     18 |              6 |
| [65535.15](#event-6553515) | 0x01E5       |     32 |              8 |
| [65535.16](#event-6553516) | 0x0205       |     24 |              6 |
| [65535.17](#event-6553517) | 0x021D       |     15 |              5 |
| [65535.18](#event-6553518) | 0x022C       |      4 |              2 |
| [65535.19](#event-6553519) | 0x0230       |     24 |              4 |
| [65535.20](#event-6553520) | 0x0248       |     24 |              4 |
| [65535.21](#event-6553521) | 0x0260       |     38 |              5 |
| [65535.22](#event-6553522) | 0x0286       |     38 |              5 |
| [65535.23](#event-6553523) | 0x02AC       |     38 |              5 |
| [65535.24](#event-6553524) | 0x02D2       |     12 |              3 |
| [65535.25](#event-6553525) | 0x02DE       |     12 |              3 |
| [65535.26](#event-6553526) | 0x02EA       |     20 |              6 |
| [65535.27](#event-6553527) | 0x02FE       |     20 |              6 |
| [65535.28](#event-6553528) | 0x0312       |     10 |              2 |
| [65535.29](#event-6553529) | 0x031C       |     20 |              6 |
| [65535.30](#event-6553530) | 0x0330       |     16 |              3 |
| [65535.31](#event-6553531) | 0x0340       |     16 |              3 |
| [65535.32](#event-6553532) | 0x0350       |     10 |              2 |
| [65535.33](#event-6553533) | 0x035A       |     10 |              2 |
| [65535.34](#event-6553534) | 0x0364       |     10 |              2 |
| [65535.35](#event-6553535) | 0x036E       |     10 |              2 |
| [65535.36](#event-6553536) | 0x0378       |     36 |              9 |
| [65535.37](#event-6553537) | 0x039C       |     14 |              4 |
| [65535.38](#event-6553538) | 0x03AA       |    103 |             11 |
| [65535.39](#event-6553539) | 0x0411       |      7 |              3 |
| [65535.40](#event-6553540) | 0x0418       |      7 |              3 |
| [65535.41](#event-6553541) | 0x041F       |      4 |              2 |
| [65535.42](#event-6553542) | 0x0423       |     75 |             15 |
| [65535.43](#event-6553543) | 0x046E       |    103 |             15 |
| [65535.44](#event-6553544) | 0x04D5       |     49 |             10 |
| [65535.45](#event-6553545) | 0x0506       |     61 |             14 |
| [65535.46](#event-6553546) | 0x0543       |     16 |              3 |
| [65535.47](#event-6553547) | 0x0553       |     16 |              3 |
| [65535.48](#event-6553548) | 0x0563       |     38 |              5 |
| [65535.49](#event-6553549) | 0x0589       |     38 |              5 |
| [65535.50](#event-6553550) | 0x05AF       |     38 |              5 |
| [65535.51](#event-6553551) | 0x05D5       |     34 |              8 |
| [65535.52](#event-6553552) | 0x05F7       |    177 |             35 |
| [201](#event-201)          | 0x06A8       |    102 |             15 |
| [264](#event-264)          | 0x070E       |     29 |              7 |
| [265](#event-265)          | 0x072B       |   1061 |            204 |

## DAT References (imed_data)

|   Index | Hex Value   |   Dec Value |
|---------|-------------|-------------|
|       0 | 0x0173      |         371 |
|       1 | 0xFFFD79DC  |  4294801884 |
|       2 | 0xFFFFFFA7  |  4294967207 |
|       3 | 0x0A0C      |        2572 |
|       4 | 0x0094      |         148 |
|       5 | 0x0000      |           0 |
|       6 | 0x00F0      |         240 |
|       7 | 0x00C8      |         200 |
|       8 | 0x003C      |          60 |
|       9 | 0x0005      |           5 |
|      10 | 0x0001      |           1 |
|      11 | 0x0002      |           2 |
|      12 | 0x000A      |          10 |
|      13 | 0x0009      |           9 |
|      14 | 0x0046      |          70 |
|      15 | 0x008C      |         140 |
|      16 | 0x00D2      |         210 |
|      17 | 0x0028      |          40 |
|      18 | 0xFFFA896F  |  4294609263 |
|      19 | 0xFFFA06C5  |  4294575813 |
|      20 | 0x0E84      |        3716 |
|      21 | 0xFFFA8C16  |  4294609942 |
|      22 | 0xFFF9E8B7  |  4294568119 |
|      23 | 0x0F9F      |        3999 |
|      24 | 0xFFFAB9FF  |  4294621695 |
|      25 | 0xFFFA01E9  |  4294574569 |
|      26 | 0x0C06      |        3078 |
|      27 | 0xFFFABEDB  |  4294622939 |
|      28 | 0xFFFA00A2  |  4294574242 |
|      29 | 0x0BB5      |        2997 |
|      30 | 0xFFFAB2FB  |  4294619899 |
|      31 | 0xFFFA6783  |  4294600579 |
|      32 | 0x0CB3      |        3251 |
|      33 | 0x002D      |          45 |
|      34 | 0x000D      |          13 |
|      35 | 0xFFFAAB71  |  4294617969 |
|      36 | 0xFFFA6DF5  |  4294602229 |
|      37 | 0x0DAB      |        3499 |
|      38 | 0xFFFA3DAB  |  4294589867 |
|      39 | 0xFFF98B36  |  4294544182 |
|      40 | 0x1F42      |        8002 |
|      41 | 0x058D      |        1421 |
|      42 | 0xFFFA2D0A  |  4294585610 |
|      43 | 0xFFF98000  |  4294541312 |
|      44 | 0x23EA      |        9194 |
|      45 | 0x241E0     |      147936 |
|      46 | 0x509E0     |      330208 |
|      47 | 0xFFFF682E  |  4294928430 |
|      48 | 0x070C      |        1804 |
|      49 | 0x2271C     |      141084 |
|      50 | 0x50847     |      329799 |
|      51 | 0xFFFF6C6B  |  4294929515 |
|      52 | 0x21845     |      137285 |
|      53 | 0x50BE4     |      330724 |
|      54 | 0xFFFF6DDB  |  4294929883 |
|      55 | 0x0CE4      |        3300 |
|      56 | 0x0008      |           8 |
|      57 | 0x0007      |           7 |
|      58 | 0x0091      |         145 |
|      59 | 0x004F      |          79 |
|      60 | 0x004C      |          76 |
|      61 | 0x00C9      |         201 |
|      62 | 0x0018      |          24 |
|      63 | 0x0020      |          32 |
|      64 | 0x0004      |           4 |
|      65 | 0x0030      |          48 |
|      66 | 0x0006      |           6 |
|      67 | 0x0040      |          64 |
|      68 | 0xFFFF6E8B  |  4294930059 |
|      69 | 0x13743     |       79683 |
|      70 | 0xFFFFEE91  |  4294962833 |
|      71 | 0x0312      |         786 |
|      72 | 0xFFFF8291  |  4294935185 |
|      73 | 0xFB84      |       64388 |
|      74 | 0xFFFFF255  |  4294963797 |
|      75 | 0x07F8      |        2040 |
|      76 | 0xFFFAD124  |  4294627620 |
|      77 | 0xFFFA8829  |  4294608937 |
|      78 | 0x0AD0      |        2768 |
|      79 | 0x41F21     |      270113 |
|      80 | 0x9BC5      |       39877 |
|      81 | 0xFFFFED75  |  4294962549 |
|      82 | 0x0056      |          86 |
|      83 | 0xFFFC56B6  |  4294727350 |
|      84 | 0xA109A     |      659610 |
|      85 | 0xFFFFBCB5  |  4294950069 |
|      86 | 0x0080      |         128 |
|      87 | 0x000C      |          12 |
|      88 | 0x4DD5D     |      318813 |
|      89 | 0xFFFFCF5E  |  4294954846 |
|      90 | 0xFFFFEE2E  |  4294962734 |
|      91 | 0x0C80      |        3200 |
|      92 | 0x4D83A     |      317498 |
|      93 | 0xFFFFF65C  |  4294964828 |
|      94 | 0xFFFFF060  |  4294963296 |
|      95 | 0x052E      |        1326 |
|      96 | 0x000F      |          15 |
|      97 | 0x0581      |        1409 |
|      98 | 0xFFFFC064  |  4294951012 |
|      99 | 0x02B6      |         694 |
|     100 | 0x09C0      |        2496 |
|     101 | 0xFFFFCB3F  |  4294953791 |
|     102 | 0x02ED      |         749 |
|     103 | 0x0FD1      |        4049 |
|     104 | 0xFFFFD1E1  |  4294955489 |
|     105 | 0x17D4      |        6100 |
|     106 | 0xFFFFDE0F  |  4294958607 |
|     107 | 0x0096      |         150 |
|     108 | 0xFFFFFFF6  |  4294967286 |
|     109 | 0xFFFFFC18  |  4294966296 |
|     110 | 0x0064      |         100 |
|     111 | 0x012C      |         300 |
|     112 | 0x0384      |         900 |
|     113 | 0x0050      |          80 |
|     114 | 0x21F8      |        8696 |
|     115 | 0xFFFFE9DE  |  4294961630 |
|     116 | 0x25E9      |        9705 |
|     117 | 0xFFFFF32A  |  4294964010 |
|     118 | 0x23A3      |        9123 |
|     119 | 0xFFFFF8CF  |  4294965455 |
|     120 | 0x27B6      |       10166 |
|     121 | 0x175D      |        5981 |
|     122 | 0x1CD8      |        7384 |
|     123 | 0x1DC7      |        7623 |
|     124 | 0x0212      |         530 |
|     125 | 0x144D      |        5197 |
|     126 | 0x2336      |        9014 |
|     127 | 0x0060      |          96 |
|     128 | 0xFFFADE2F  |  4294630959 |
|     129 | 0xFFF9E4AA  |  4294567082 |
|     130 | 0x0BA1      |        2977 |
|     131 | 0xFFFACACE  |  4294625998 |
|     132 | 0xFFF9E0EF  |  4294566127 |
|     133 | 0x0B0D      |        2829 |
|     134 | 0xFFFAB0BE  |  4294619326 |
|     135 | 0xFFF9DF85  |  4294565765 |
|     136 | 0x0DA2      |        3490 |
|     137 | 0xFFFA8F99  |  4294610841 |
|     138 | 0xFFF9ECE5  |  4294569189 |
|     139 | 0x0003      |           3 |
|     140 | 0xFFFA9044  |  4294611012 |
|     141 | 0xFFF9EC19  |  4294568985 |
|     142 | 0x1D14      |        7444 |
|     143 | 0x005A      |          90 |
|     144 | 0x1F12      |        7954 |
|     145 | 0x00EA      |         234 |
|     146 | 0x0013      |          19 |
|     147 | 0x0090      |         144 |
|     148 | 0x00B4      |         180 |
|     149 | 0x1DC3      |        7619 |
|     150 | 0x1DC4      |        7620 |
|     151 | 0x1DC6      |        7622 |
|     152 | 0x1DC8      |        7624 |
|     153 | 0x1DC9      |        7625 |
|     154 | 0x0102      |         258 |
|     155 | 0x0202      |         514 |
|     156 | 0x0156      |         342 |

## String References

- **7444**: The order has been given by your party leader to enter [Everbloom Hollow/the Ruhotz Silvermines/Ghoyu's Reverie].
- **7954**: The sandworm swallows you whole!

## Events

### Event 65535

#### Metadata

| Field        | Value   |
|--------------|---------|
| Entrypoint   | 0x0000  |
| Data Size    | 1 bytes |
| Instructions | 1       |

```
      00 01 02 03 04 05 06 07  08 09 0A 0B 0C 0D 0E 0F
      -- -- -- -- -- -- -- --  -- -- -- -- -- -- -- --
0000: 00                                                .               
```

#### Opcodes

```
  0: 0x0000 [0x00] END_REQSTACK()
```

### Event 65534

#### Metadata

| Field        | Value   |
|--------------|---------|
| Entrypoint   | 0x0001  |
| Data Size    | 1 bytes |
| Instructions | 1       |

```
      00 01 02 03 04 05 06 07  08 09 0A 0B 0C 0D 0E 0F
      -- -- -- -- -- -- -- --  -- -- -- -- -- -- -- --
0000:    00                                              .              
```

#### Opcodes

```
  0: 0x0001 [0x00] END_REQSTACK()
```

### Event 65535.1

#### Metadata

| Field        | Value   |
|--------------|---------|
| Entrypoint   | 0x0002  |
| Data Size    | 6 bytes |
| Instructions | 2       |

```
      00 01 02 03 04 05 06 07  08 09 0A 0B 0C 0D 0E 0F
      -- -- -- -- -- -- -- --  -- -- -- -- -- -- -- --
0000:       03 02 10 07 7F 00                             ......        
```

#### Opcodes

```
  0: 0x0002 [0x03] Work_Zone[2] = Entity->Race
  1: 0x0007 [0x00] END_REQSTACK()
```

### Event 65535.2

#### Metadata

| Field        | Value   |
|--------------|---------|
| Entrypoint   | 0x0008  |
| Data Size    | 6 bytes |
| Instructions | 2       |

```
      00 01 02 03 04 05 06 07  08 09 0A 0B 0C 0D 0E 0F
      -- -- -- -- -- -- -- --  -- -- -- -- -- -- -- --
0000:                          03 02 10 0B 7F 00                ......  
```

#### Opcodes

```
  0: 0x0008 [0x03] Work_Zone[2] = (Entity->Render.Flags01 >> 25) & 1
  1: 0x000D [0x00] END_REQSTACK()
```

### Event 65535.3

#### Metadata

| Field        | Value    |
|--------------|----------|
| Entrypoint   | 0x000E   |
| Data Size    | 37 bytes |
| Instructions | 5        |

```
      00 01 02 03 04 05 06 07  08 09 0A 0B 0C 0D 0E 0F
      -- -- -- -- -- -- -- --  -- -- -- -- -- -- -- --
0000:                                            03 00                ..
0010: 00 07 7F 1A DB 00 66 01  00 F8 FF FF 7F F8 FF FF  ......f.........
0020: 7F 73 68 61 30 53 F8 FF  FF 7F F8 FF FF 7F 73 68  .sha0S........sh
0030: 61 30 00                                          a0.             
```

#### Opcodes

```
  0: 0x000E [0x03] ExtData[1]->WorkLocal[0] = Entity->Race
  1: 0x0013 [0x1A] CALL_SUBROUTINE(address=0x00DB)
  2: 0x0016 [0x66] LOAD_EXT_SCHEDULER_MAIN: Load scheduler "sha0" with entities [EventEntity, EventEntity], work=ExtData[1]->WorkLocal[1]
  3: 0x0025 [0x53] WAIT_SCHEDULER_TASK: Wait for scheduler "sha0" with entities [EventEntity, EventEntity]
  4: 0x0032 [0x00] END_REQSTACK()
```

### Event 65535.4

#### Metadata

| Field        | Value    |
|--------------|----------|
| Entrypoint   | 0x0033   |
| Data Size    | 37 bytes |
| Instructions | 5        |

```
      00 01 02 03 04 05 06 07  08 09 0A 0B 0C 0D 0E 0F
      -- -- -- -- -- -- -- --  -- -- -- -- -- -- -- --
0030:          03 00 00 07 7F  1A DB 00 66 01 00 F8 FF     ........f....
0040: FF 7F F8 FF FF 7F 73 68  61 31 53 F8 FF FF 7F F8  ......sha1S.....
0050: FF FF 7F 73 68 61 31 00                           ...sha1.        
```

#### Opcodes

```
  0: 0x0033 [0x03] ExtData[1]->WorkLocal[0] = Entity->Race
  1: 0x0038 [0x1A] CALL_SUBROUTINE(address=0x00DB)
  2: 0x003B [0x66] LOAD_EXT_SCHEDULER_MAIN: Load scheduler "sha1" with entities [EventEntity, EventEntity], work=ExtData[1]->WorkLocal[1]
  3: 0x004A [0x53] WAIT_SCHEDULER_TASK: Wait for scheduler "sha1" with entities [EventEntity, EventEntity]
  4: 0x0057 [0x00] END_REQSTACK()
```

### Event 65535.5

#### Metadata

| Field        | Value    |
|--------------|----------|
| Entrypoint   | 0x0058   |
| Data Size    | 37 bytes |
| Instructions | 5        |

```
      00 01 02 03 04 05 06 07  08 09 0A 0B 0C 0D 0E 0F
      -- -- -- -- -- -- -- --  -- -- -- -- -- -- -- --
0050:                          03 00 00 07 7F 1A DB 00          ........
0060: 66 01 00 F8 FF FF 7F F8  FF FF 7F 73 69 74 30 53  f..........sit0S
0070: F8 FF FF 7F F8 FF FF 7F  73 69 74 30 00           ........sit0.   
```

#### Opcodes

```
  0: 0x0058 [0x03] ExtData[1]->WorkLocal[0] = Entity->Race
  1: 0x005D [0x1A] CALL_SUBROUTINE(address=0x00DB)
  2: 0x0060 [0x66] LOAD_EXT_SCHEDULER_MAIN: Load scheduler "sit0" with entities [EventEntity, EventEntity], work=ExtData[1]->WorkLocal[1]
  3: 0x006F [0x53] WAIT_SCHEDULER_TASK: Wait for scheduler "sit0" with entities [EventEntity, EventEntity]
  4: 0x007C [0x00] END_REQSTACK()
```

### Event 65535.6

#### Metadata

| Field        | Value    |
|--------------|----------|
| Entrypoint   | 0x007D   |
| Data Size    | 37 bytes |
| Instructions | 5        |

```
      00 01 02 03 04 05 06 07  08 09 0A 0B 0C 0D 0E 0F
      -- -- -- -- -- -- -- --  -- -- -- -- -- -- -- --
0070:                                         03 00 00               ...
0080: 07 7F 1A DB 00 66 01 00  F8 FF FF 7F F8 FF FF 7F  .....f..........
0090: 73 69 74 31 53 F8 FF FF  7F F8 FF FF 7F 73 69 74  sit1S........sit
00A0: 31 00                                             1.              
```

#### Opcodes

```
  0: 0x007D [0x03] ExtData[1]->WorkLocal[0] = Entity->Race
  1: 0x0082 [0x1A] CALL_SUBROUTINE(address=0x00DB)
  2: 0x0085 [0x66] LOAD_EXT_SCHEDULER_MAIN: Load scheduler "sit1" with entities [EventEntity, EventEntity], work=ExtData[1]->WorkLocal[1]
  3: 0x0094 [0x53] WAIT_SCHEDULER_TASK: Wait for scheduler "sit1" with entities [EventEntity, EventEntity]
  4: 0x00A1 [0x00] END_REQSTACK()
```

### Event 65535.7

#### Metadata

| Field        | Value    |
|--------------|----------|
| Entrypoint   | 0x00A2   |
| Data Size    | 16 bytes |
| Instructions | 3        |

```
      00 01 02 03 04 05 06 07  08 09 0A 0B 0C 0D 0E 0F
      -- -- -- -- -- -- -- --  -- -- -- -- -- -- -- --
00A0:       92 01 F0 FF FF 7F  37 00 80 01 80 02 80 03    ......7.......
00B0: 80 00                                             ..              
```

#### Opcodes

```
  0: 0x00A2 [0x92] LocalPlayer->Render.Flags3 ^= 0x01
  1: 0x00A8 [0x37] UPDATE_EVENT_POSITION_AND_DIR: x=0.371*, z=-165.412*, y=-0.089*, direction=226.0°*
  2: 0x00B1 [0x00] END_REQSTACK()
```

### Event 65535.8

#### Metadata

| Field        | Value     |
|--------------|-----------|
| Entrypoint   | 0x00B2    |
| Data Size    | 189 bytes |
| Instructions | 5         |

```
      00 01 02 03 04 05 06 07  08 09 0A 0B 0C 0D 0E 0F
      -- -- -- -- -- -- -- --  -- -- -- -- -- -- -- --
00B0:       BB 04 80 F0 FF FF  7F 4A F3 05 01 6D 61 69    .......J...mai
00C0: 6E 05 80 1C 06 80 45 07  80 F0 FF FF 7F F0 FF FF  n.....E.........
00D0: 7F 66 64 6F 31 05 80 1C  08 80 00 03 01 00 00 00  .fdo1...........
00E0: 02 01 00 09 80 05 F0 00  08 01 00 0A 80 01 F5 00  ................
00F0: 08 01 00 0B 80 14 01 00  0C 80 07 01 00 0D 80 1B  ................
0100: 03 01 00 00 00 02 01 00  09 80 05 15 01 08 01 00  ................
0110: 0A 80 01 1A 01 08 01 00  0B 80 14 01 00 0C 80 07  ................
0120: 01 00 0E 80 1B 03 01 00  00 00 02 01 00 09 80 05  ................
0130: 3A 01 08 01 00 0A 80 01  3F 01 08 01 00 0B 80 14  :.......?.......
0140: 01 00 0C 80 07 01 00 0F  80 1B 03 01 00 00 00 02  ................
0150: 01 00 09 80 05 5F 01 08  01 00 0A 80 01 64 01 08  ....._.......d..
0160: 01 00 0B 80 14 01 00 0C  80 07 01 00 10 80 1B     ............... 
```

#### Opcodes

```
  0: 0x00B2 [0xBB] LOAD_EVENT_SCHEDULER_ALT: Load scheduler "main" with entities [LocalPlayer, Cavernous Maw (ID: 17167178/0x0105F34A)], work=[148*, 0*]
  1: 0x00C3 [0x1C] WAIT(240* ticks)
  2: 0x00C6 [0x45] LOAD_SCHEDULED_TASK: Load scheduler "fdo1" with entities [LocalPlayer, LocalPlayer], work=[200*, 0*]
  3: 0x00D7 [0x1C] WAIT(60* ticks)
  4: 0x00DA [0x00] END_REQSTACK()
```

#### Data or dead code:

```
# Dead code (unreachable instructions):
     0x00DB [0x03] ExtData[1]->WorkLocal[1] = ExtData[1]->WorkLocal[0]
     0x00E0 [0x02] IF !(ExtData[1]->WorkLocal[1] > 5*) GOTO 0x00F0
     0x00E8 [0x08] ExtData[1]->WorkLocal[1] -= 1*
     0x00ED [0x01] GOTO 0x00F5
     0x00F0 [0x08] ExtData[1]->WorkLocal[1] -= 2*
     0x00F5 [0x14] ExtData[1]->WorkLocal[1] *= 10*
     0x00FA [0x07] ExtData[1]->WorkLocal[1] += 9*
     0x00FF [0x1B] RETURN
     0x0100 [0x03] ExtData[1]->WorkLocal[1] = ExtData[1]->WorkLocal[0]
     0x0105 [0x02] IF !(ExtData[1]->WorkLocal[1] > 5*) GOTO 0x0115
     0x010D [0x08] ExtData[1]->WorkLocal[1] -= 1*
     0x0112 [0x01] GOTO 0x011A
     0x0115 [0x08] ExtData[1]->WorkLocal[1] -= 2*
     0x011A [0x14] ExtData[1]->WorkLocal[1] *= 10*
     0x011F [0x07] ExtData[1]->WorkLocal[1] += 70*
     0x0124 [0x1B] RETURN
     0x0125 [0x03] ExtData[1]->WorkLocal[1] = ExtData[1]->WorkLocal[0]
     0x012A [0x02] IF !(ExtData[1]->WorkLocal[1] > 5*) GOTO 0x013A
     0x0132 [0x08] ExtData[1]->WorkLocal[1] -= 1*
     0x0137 [0x01] GOTO 0x013F
     0x013A [0x08] ExtData[1]->WorkLocal[1] -= 2*
     0x013F [0x14] ExtData[1]->WorkLocal[1] *= 10*
     0x0144 [0x07] ExtData[1]->WorkLocal[1] += 140*
     0x0149 [0x1B] RETURN
     0x014A [0x03] ExtData[1]->WorkLocal[1] = ExtData[1]->WorkLocal[0]
     0x014F [0x02] IF !(ExtData[1]->WorkLocal[1] > 5*) GOTO 0x015F
     0x0157 [0x08] ExtData[1]->WorkLocal[1] -= 1*
     0x015C [0x01] GOTO 0x0164
     0x015F [0x08] ExtData[1]->WorkLocal[1] -= 2*
     0x0164 [0x14] ExtData[1]->WorkLocal[1] *= 10*
     0x0169 [0x07] ExtData[1]->WorkLocal[1] += 210*
     0x016E [0x1B] RETURN
```

### Event 65535.9

#### Metadata

| Field        | Value    |
|--------------|----------|
| Entrypoint   | 0x016F   |
| Data Size    | 20 bytes |
| Instructions | 6        |

```
      00 01 02 03 04 05 06 07  08 09 0A 0B 0C 0D 0E 0F
      -- -- -- -- -- -- -- --  -- -- -- -- -- -- -- --
0160:                                               32                 2
0170: 11 80 1F 00 12 80 13 80  14 80 1F 01 6F 1E 52 F3  ............o.R.
0180: 05 01 00                                          ...             
```

#### Opcodes

```
  0: 0x016F [0x32] ExtData[1]->MainSpeed = 40* * 0.1
  1: 0x0172 [0x1F] MOVE_ENTITY: EventEntity moves to X=-358.033*, Z=-391.483*, Y=3.716*
  2: 0x017A [0x1F] MOVE_ENTITY: Update entity position (mode=1)
  3: 0x017C [0x6F] WAIT_FRAME_DELAY: Yield until WaitTime reaches zero
  4: 0x017D [0x1E] EventEntity looks at Lehko Habhoka (ID: 17167186/0x0105F352) and starts talking
  5: 0x0182 [0x00] END_REQSTACK()
```

### Event 65535.10

#### Metadata

| Field        | Value    |
|--------------|----------|
| Entrypoint   | 0x0183   |
| Data Size    | 20 bytes |
| Instructions | 6        |

```
      00 01 02 03 04 05 06 07  08 09 0A 0B 0C 0D 0E 0F
      -- -- -- -- -- -- -- --  -- -- -- -- -- -- -- --
0180:          32 11 80 1F 00  15 80 16 80 17 80 1F 01     2............
0190: 6F 1E 52 F3 05 01 00                              o.R....         
```

#### Opcodes

```
  0: 0x0183 [0x32] ExtData[1]->MainSpeed = 40* * 0.1
  1: 0x0186 [0x1F] MOVE_ENTITY: EventEntity moves to X=-357.354*, Z=-399.177*, Y=3.999*
  2: 0x018E [0x1F] MOVE_ENTITY: Update entity position (mode=1)
  3: 0x0190 [0x6F] WAIT_FRAME_DELAY: Yield until WaitTime reaches zero
  4: 0x0191 [0x1E] EventEntity looks at Lehko Habhoka (ID: 17167186/0x0105F352) and starts talking
  5: 0x0196 [0x00] END_REQSTACK()
```

### Event 65535.11

#### Metadata

| Field        | Value    |
|--------------|----------|
| Entrypoint   | 0x0197   |
| Data Size    | 20 bytes |
| Instructions | 6        |

```
      00 01 02 03 04 05 06 07  08 09 0A 0B 0C 0D 0E 0F
      -- -- -- -- -- -- -- --  -- -- -- -- -- -- -- --
0190:                      32  11 80 1F 00 18 80 19 80         2........
01A0: 1A 80 1F 01 6F 1E 52 F3  05 01 00                 ....o.R....     
```

#### Opcodes

```
  0: 0x0197 [0x32] ExtData[1]->MainSpeed = 40* * 0.1
  1: 0x019A [0x1F] MOVE_ENTITY: EventEntity moves to X=-345.601*, Z=-392.727*, Y=3.078*
  2: 0x01A2 [0x1F] MOVE_ENTITY: Update entity position (mode=1)
  3: 0x01A4 [0x6F] WAIT_FRAME_DELAY: Yield until WaitTime reaches zero
  4: 0x01A5 [0x1E] EventEntity looks at Lehko Habhoka (ID: 17167186/0x0105F352) and starts talking
  5: 0x01AA [0x00] END_REQSTACK()
```

### Event 65535.12

#### Metadata

| Field        | Value    |
|--------------|----------|
| Entrypoint   | 0x01AB   |
| Data Size    | 20 bytes |
| Instructions | 6        |

```
      00 01 02 03 04 05 06 07  08 09 0A 0B 0C 0D 0E 0F
      -- -- -- -- -- -- -- --  -- -- -- -- -- -- -- --
01A0:                                   32 11 80 1F 00             2....
01B0: 1B 80 1C 80 1D 80 1F 01  6F 1E 52 F3 05 01 00     ........o.R.... 
```

#### Opcodes

```
  0: 0x01AB [0x32] ExtData[1]->MainSpeed = 40* * 0.1
  1: 0x01AE [0x1F] MOVE_ENTITY: EventEntity moves to X=-344.357*, Z=-393.054*, Y=2.997*
  2: 0x01B6 [0x1F] MOVE_ENTITY: Update entity position (mode=1)
  3: 0x01B8 [0x6F] WAIT_FRAME_DELAY: Yield until WaitTime reaches zero
  4: 0x01B9 [0x1E] EventEntity looks at Lehko Habhoka (ID: 17167186/0x0105F352) and starts talking
  5: 0x01BE [0x00] END_REQSTACK()
```

### Event 65535.13

#### Metadata

| Field        | Value    |
|--------------|----------|
| Entrypoint   | 0x01BF   |
| Data Size    | 20 bytes |
| Instructions | 6        |

```
      00 01 02 03 04 05 06 07  08 09 0A 0B 0C 0D 0E 0F
      -- -- -- -- -- -- -- --  -- -- -- -- -- -- -- --
01B0:                                               32                 2
01C0: 11 80 1F 00 1E 80 1F 80  20 80 1F 01 6F 1E 52 F3  ........ ...o.R.
01D0: 05 01 00                                          ...             
```

#### Opcodes

```
  0: 0x01BF [0x32] ExtData[1]->MainSpeed = 40* * 0.1
  1: 0x01C2 [0x1F] MOVE_ENTITY: EventEntity moves to X=-347.397*, Z=-366.717*, Y=3.251*
  2: 0x01CA [0x1F] MOVE_ENTITY: Update entity position (mode=1)
  3: 0x01CC [0x6F] WAIT_FRAME_DELAY: Yield until WaitTime reaches zero
  4: 0x01CD [0x1E] EventEntity looks at Lehko Habhoka (ID: 17167186/0x0105F352) and starts talking
  5: 0x01D2 [0x00] END_REQSTACK()
```

### Event 65535.14

#### Metadata

| Field        | Value    |
|--------------|----------|
| Entrypoint   | 0x01D3   |
| Data Size    | 18 bytes |
| Instructions | 6        |

```
      00 01 02 03 04 05 06 07  08 09 0A 0B 0C 0D 0E 0F
      -- -- -- -- -- -- -- --  -- -- -- -- -- -- -- --
01D0:          1C 21 80 32 22  80 1F 00 23 80 24 80 25     .!.2"...#.$.%
01E0: 80 1F 01 6F 00                                    ...o.           
```

#### Opcodes

```
  0: 0x01D3 [0x1C] WAIT(45* ticks)
  1: 0x01D6 [0x32] ExtData[1]->MainSpeed = 13* * 0.1
  2: 0x01D9 [0x1F] MOVE_ENTITY: EventEntity moves to X=-349.327*, Z=-365.067*, Y=3.499*
  3: 0x01E1 [0x1F] MOVE_ENTITY: Update entity position (mode=1)
  4: 0x01E3 [0x6F] WAIT_FRAME_DELAY: Yield until WaitTime reaches zero
  5: 0x01E4 [0x00] END_REQSTACK()
```

### Event 65535.15

#### Metadata

| Field        | Value    |
|--------------|----------|
| Entrypoint   | 0x01E5   |
| Data Size    | 32 bytes |
| Instructions | 8        |

```
      00 01 02 03 04 05 06 07  08 09 0A 0B 0C 0D 0E 0F
      -- -- -- -- -- -- -- --  -- -- -- -- -- -- -- --
01E0:                37 26 80  27 80 28 80 29 80 1C 08       7&.'.(.)...
01F0: 80 32 22 80 1F 00 2A 80  2B 80 2C 80 1F 01 6F 1E  .2"...*.+.,...o.
0200: 52 F3 05 01 00                                    R....           
```

#### Opcodes

```
  0: 0x01E5 [0x37] UPDATE_EVENT_POSITION_AND_DIR: x=-377.429*, z=-423.114*, y=8.002*, direction=124.9°*
  1: 0x01EE [0x1C] WAIT(60* ticks)
  2: 0x01F1 [0x32] ExtData[1]->MainSpeed = 13* * 0.1
  3: 0x01F4 [0x1F] MOVE_ENTITY: EventEntity moves to X=-381.686*, Z=-425.984*, Y=9.194*
  4: 0x01FC [0x1F] MOVE_ENTITY: Update entity position (mode=1)
  5: 0x01FE [0x6F] WAIT_FRAME_DELAY: Yield until WaitTime reaches zero
  6: 0x01FF [0x1E] EventEntity looks at Lehko Habhoka (ID: 17167186/0x0105F352) and starts talking
  7: 0x0204 [0x00] END_REQSTACK()
```

### Event 65535.16

#### Metadata

| Field        | Value    |
|--------------|----------|
| Entrypoint   | 0x0205   |
| Data Size    | 24 bytes |
| Instructions | 6        |

```
      00 01 02 03 04 05 06 07  08 09 0A 0B 0C 0D 0E 0F
      -- -- -- -- -- -- -- --  -- -- -- -- -- -- -- --
0200:                37 2D 80  2E 80 2F 80 30 80 32 22       7-.../.0.2"
0210: 80 1F 00 31 80 32 80 33  80 1F 01 6F 00           ...1.2.3...o.   
```

#### Opcodes

```
  0: 0x0205 [0x37] UPDATE_EVENT_POSITION_AND_DIR: x=147.936*, z=330.208*, y=-38.866*, direction=158.6°*
  1: 0x020E [0x32] ExtData[1]->MainSpeed = 13* * 0.1
  2: 0x0211 [0x1F] MOVE_ENTITY: EventEntity moves to X=141.084*, Z=329.799*, Y=-37.781*
  3: 0x0219 [0x1F] MOVE_ENTITY: Update entity position (mode=1)
  4: 0x021B [0x6F] WAIT_FRAME_DELAY: Yield until WaitTime reaches zero
  5: 0x021C [0x00] END_REQSTACK()
```

### Event 65535.17

#### Metadata

| Field        | Value    |
|--------------|----------|
| Entrypoint   | 0x021D   |
| Data Size    | 15 bytes |
| Instructions | 5        |

```
      00 01 02 03 04 05 06 07  08 09 0A 0B 0C 0D 0E 0F
      -- -- -- -- -- -- -- --  -- -- -- -- -- -- -- --
0210:                                         32 22 80               2".
0220: 1F 00 34 80 35 80 36 80  1F 01 6F 00              ..4.5.6...o.    
```

#### Opcodes

```
  0: 0x021D [0x32] ExtData[1]->MainSpeed = 13* * 0.1
  1: 0x0220 [0x1F] MOVE_ENTITY: EventEntity moves to X=137.285*, Z=330.724*, Y=-37.413*
  2: 0x0228 [0x1F] MOVE_ENTITY: Update entity position (mode=1)
  3: 0x022A [0x6F] WAIT_FRAME_DELAY: Yield until WaitTime reaches zero
  4: 0x022B [0x00] END_REQSTACK()
```

### Event 65535.18

#### Metadata

| Field        | Value   |
|--------------|---------|
| Entrypoint   | 0x022C  |
| Data Size    | 4 bytes |
| Instructions | 2       |

```
      00 01 02 03 04 05 06 07  08 09 0A 0B 0C 0D 0E 0F
      -- -- -- -- -- -- -- --  -- -- -- -- -- -- -- --
0220:                                      39 37 80 00              97..
```

#### Opcodes

```
  0: 0x022C [0x39] SET_ENTITY_DIRECTION(direction=18.1°*)
  1: 0x022F [0x00] END_REQSTACK()
```

### Event 65535.19

#### Metadata

| Field        | Value    |
|--------------|----------|
| Entrypoint   | 0x0230   |
| Data Size    | 24 bytes |
| Instructions | 4        |

```
      00 01 02 03 04 05 06 07  08 09 0A 0B 0C 0D 0E 0F
      -- -- -- -- -- -- -- --  -- -- -- -- -- -- -- --
0230: 03 00 00 07 7F 1A DB 00  66 01 00 F8 FF FF 7F F8  ........f.......
0240: FF FF 7F 74 6C 6B 30 00                           ...tlk0.        
```

#### Opcodes

```
  0: 0x0230 [0x03] ExtData[1]->WorkLocal[0] = Entity->Race
  1: 0x0235 [0x1A] CALL_SUBROUTINE(address=0x00DB)
  2: 0x0238 [0x66] LOAD_EXT_SCHEDULER_MAIN: Load scheduler "tlk0" with entities [EventEntity, EventEntity], work=ExtData[1]->WorkLocal[1]
  3: 0x0247 [0x00] END_REQSTACK()
```

### Event 65535.20

#### Metadata

| Field        | Value    |
|--------------|----------|
| Entrypoint   | 0x0248   |
| Data Size    | 24 bytes |
| Instructions | 4        |

```
      00 01 02 03 04 05 06 07  08 09 0A 0B 0C 0D 0E 0F
      -- -- -- -- -- -- -- --  -- -- -- -- -- -- -- --
0240:                          03 00 00 07 7F 1A DB 00          ........
0250: 66 01 00 F8 FF FF 7F F8  FF FF 7F 74 6C 6B 31 00  f..........tlk1.
```

#### Opcodes

```
  0: 0x0248 [0x03] ExtData[1]->WorkLocal[0] = Entity->Race
  1: 0x024D [0x1A] CALL_SUBROUTINE(address=0x00DB)
  2: 0x0250 [0x66] LOAD_EXT_SCHEDULER_MAIN: Load scheduler "tlk1" with entities [EventEntity, EventEntity], work=ExtData[1]->WorkLocal[1]
  3: 0x025F [0x00] END_REQSTACK()
```

### Event 65535.21

#### Metadata

| Field        | Value    |
|--------------|----------|
| Entrypoint   | 0x0260   |
| Data Size    | 38 bytes |
| Instructions | 5        |

```
      00 01 02 03 04 05 06 07  08 09 0A 0B 0C 0D 0E 0F
      -- -- -- -- -- -- -- --  -- -- -- -- -- -- -- --
0260: 22 00 2F 00 F8 FF FF 7F  B6 0B 38 80 39 80 3A 80  "./.......8.9.:.
0270: 3B 80 3C 80 3C 80 3C 80  3D 80 3E 80 6C F8 FF FF  ;.<.<.<.=.>.l...
0280: 7F 3F 80 0A 80 00                                 .?....          
```

#### Opcodes

```
  0: 0x0260 [0x22] ENTITY_HIDE_FLAG(enabled=0x00)
  1: 0x0262 [0x2F] EventEntity->Render.Flags0 &= ~0x80000 // Bit 19
  2: 0x0268 [0xB6] ENTITY_APPEARANCE_HANDLER(case=Full entity look, race=8*, hair=7*, head=145*, body=79*, hands=76*, legs=76*, feet=76*, main=201*, sub=24*)
  3: 0x027C [0x6C] FADE_ENTITY_COLOR(entity_id=EventEntity, end_alpha=32*, fade_time=1*)
  4: 0x0285 [0x00] END_REQSTACK()
```

### Event 65535.22

#### Metadata

| Field        | Value    |
|--------------|----------|
| Entrypoint   | 0x0286   |
| Data Size    | 38 bytes |
| Instructions | 5        |

```
      00 01 02 03 04 05 06 07  08 09 0A 0B 0C 0D 0E 0F
      -- -- -- -- -- -- -- --  -- -- -- -- -- -- -- --
0280:                   22 00  2F 00 F8 FF FF 7F B6 0B        "./.......
0290: 40 80 39 80 3A 80 3B 80  3C 80 3C 80 3C 80 3D 80  @.9.:.;.<.<.<.=.
02A0: 3E 80 6C F8 FF FF 7F 41  80 0A 80 00              >.l....A....    
```

#### Opcodes

```
  0: 0x0286 [0x22] ENTITY_HIDE_FLAG(enabled=0x00)
  1: 0x0288 [0x2F] EventEntity->Render.Flags0 &= ~0x80000 // Bit 19
  2: 0x028E [0xB6] ENTITY_APPEARANCE_HANDLER(case=Full entity look, race=4*, hair=7*, head=145*, body=79*, hands=76*, legs=76*, feet=76*, main=201*, sub=24*)
  3: 0x02A2 [0x6C] FADE_ENTITY_COLOR(entity_id=EventEntity, end_alpha=48*, fade_time=1*)
  4: 0x02AB [0x00] END_REQSTACK()
```

### Event 65535.23

#### Metadata

| Field        | Value    |
|--------------|----------|
| Entrypoint   | 0x02AC   |
| Data Size    | 38 bytes |
| Instructions | 5        |

```
      00 01 02 03 04 05 06 07  08 09 0A 0B 0C 0D 0E 0F
      -- -- -- -- -- -- -- --  -- -- -- -- -- -- -- --
02A0:                                      22 00 2F 00              "./.
02B0: F8 FF FF 7F B6 0B 42 80  39 80 3A 80 3B 80 3C 80  ......B.9.:.;.<.
02C0: 3C 80 3C 80 3D 80 3E 80  6C F8 FF FF 7F 43 80 0A  <.<.=.>.l....C..
02D0: 80 00                                             ..              
```

#### Opcodes

```
  0: 0x02AC [0x22] ENTITY_HIDE_FLAG(enabled=0x00)
  1: 0x02AE [0x2F] EventEntity->Render.Flags0 &= ~0x80000 // Bit 19
  2: 0x02B4 [0xB6] ENTITY_APPEARANCE_HANDLER(case=Full entity look, race=6*, hair=7*, head=145*, body=79*, hands=76*, legs=76*, feet=76*, main=201*, sub=24*)
  3: 0x02C8 [0x6C] FADE_ENTITY_COLOR(entity_id=EventEntity, end_alpha=64*, fade_time=1*)
  4: 0x02D1 [0x00] END_REQSTACK()
```

### Event 65535.24

#### Metadata

| Field        | Value    |
|--------------|----------|
| Entrypoint   | 0x02D2   |
| Data Size    | 12 bytes |
| Instructions | 3        |

```
      00 01 02 03 04 05 06 07  08 09 0A 0B 0C 0D 0E 0F
      -- -- -- -- -- -- -- --  -- -- -- -- -- -- -- --
02D0:       33 01 37 44 80 45  80 46 80 47 80 00          3.7D.E.F.G..  
```

#### Opcodes

```
  0: 0x02D2 [0x33] EventEntity->Render.Flags0 |= 0x200000 // Bit 21 (flag=0x01)
  1: 0x02D4 [0x37] UPDATE_EVENT_POSITION_AND_DIR: x=-37.237*, z=79.683*, y=-4.463*, direction=69.1°*
  2: 0x02DD [0x00] END_REQSTACK()
```

### Event 65535.25

#### Metadata

| Field        | Value    |
|--------------|----------|
| Entrypoint   | 0x02DE   |
| Data Size    | 12 bytes |
| Instructions | 3        |

```
      00 01 02 03 04 05 06 07  08 09 0A 0B 0C 0D 0E 0F
      -- -- -- -- -- -- -- --  -- -- -- -- -- -- -- --
02D0:                                            33 00                3.
02E0: 37 48 80 49 80 4A 80 4B  80 00                    7H.I.J.K..      
```

#### Opcodes

```
  0: 0x02DE [0x33] EventEntity->Render.Flags0 &= ~ 0x200000 // Bit 21 (flag=0x00)
  1: 0x02E0 [0x37] UPDATE_EVENT_POSITION_AND_DIR: x=-32.111*, z=64.388*, y=-3.499*, direction=179.3°*
  2: 0x02E9 [0x00] END_REQSTACK()
```

### Event 65535.26

#### Metadata

| Field        | Value    |
|--------------|----------|
| Entrypoint   | 0x02EA   |
| Data Size    | 20 bytes |
| Instructions | 6        |

```
      00 01 02 03 04 05 06 07  08 09 0A 0B 0C 0D 0E 0F
      -- -- -- -- -- -- -- --  -- -- -- -- -- -- -- --
02E0:                                32 22 80 1F 00 4C            2"...L
02F0: 80 4D 80 4E 80 1F 01 6F  1E 55 F3 05 01 00        .M.N...o.U....  
```

#### Opcodes

```
  0: 0x02EA [0x32] ExtData[1]->MainSpeed = 13* * 0.1
  1: 0x02ED [0x1F] MOVE_ENTITY: EventEntity moves to X=-339.676*, Z=-358.359*, Y=2.768*
  2: 0x02F5 [0x1F] MOVE_ENTITY: Update entity position (mode=1)
  3: 0x02F7 [0x6F] WAIT_FRAME_DELAY: Yield until WaitTime reaches zero
  4: 0x02F8 [0x1E] EventEntity looks at Lilisette (ID: 17167189/0x0105F355) and starts talking
  5: 0x02FD [0x00] END_REQSTACK()
```

### Event 65535.27

#### Metadata

| Field        | Value    |
|--------------|----------|
| Entrypoint   | 0x02FE   |
| Data Size    | 20 bytes |
| Instructions | 6        |

```
      00 01 02 03 04 05 06 07  08 09 0A 0B 0C 0D 0E 0F
      -- -- -- -- -- -- -- --  -- -- -- -- -- -- -- --
02F0:                                            32 22                2"
0300: 80 1F 00 4F 80 50 80 51  80 1F 01 6F 1E 55 F3 05  ...O.P.Q...o.U..
0310: 01 00                                             ..              
```

#### Opcodes

```
  0: 0x02FE [0x32] ExtData[1]->MainSpeed = 13* * 0.1
  1: 0x0301 [0x1F] MOVE_ENTITY: EventEntity moves to X=270.113*, Z=39.877*, Y=-4.747*
  2: 0x0309 [0x1F] MOVE_ENTITY: Update entity position (mode=1)
  3: 0x030B [0x6F] WAIT_FRAME_DELAY: Yield until WaitTime reaches zero
  4: 0x030C [0x1E] EventEntity looks at Lilisette (ID: 17167189/0x0105F355) and starts talking
  5: 0x0311 [0x00] END_REQSTACK()
```

### Event 65535.28

#### Metadata

| Field        | Value    |
|--------------|----------|
| Entrypoint   | 0x0312   |
| Data Size    | 10 bytes |
| Instructions | 2        |

```
      00 01 02 03 04 05 06 07  08 09 0A 0B 0C 0D 0E 0F
      -- -- -- -- -- -- -- --  -- -- -- -- -- -- -- --
0310:       6C F8 FF FF 7F 52  80 0A 80 00                l....R....    
```

#### Opcodes

```
  0: 0x0312 [0x6C] FADE_ENTITY_COLOR(entity_id=EventEntity, end_alpha=86*, fade_time=1*)
  1: 0x031B [0x00] END_REQSTACK()
```

### Event 65535.29

#### Metadata

| Field        | Value    |
|--------------|----------|
| Entrypoint   | 0x031C   |
| Data Size    | 20 bytes |
| Instructions | 6        |

```
      00 01 02 03 04 05 06 07  08 09 0A 0B 0C 0D 0E 0F
      -- -- -- -- -- -- -- --  -- -- -- -- -- -- -- --
0310:                                      32 22 80 1F              2"..
0320: 00 53 80 54 80 55 80 1F  01 6F 1E 55 F3 05 01 00  .S.T.U...o.U....
```

#### Opcodes

```
  0: 0x031C [0x32] ExtData[1]->MainSpeed = 13* * 0.1
  1: 0x031F [0x1F] MOVE_ENTITY: EventEntity moves to X=-239.946*, Z=659.610*, Y=-17.227*
  2: 0x0327 [0x1F] MOVE_ENTITY: Update entity position (mode=1)
  3: 0x0329 [0x6F] WAIT_FRAME_DELAY: Yield until WaitTime reaches zero
  4: 0x032A [0x1E] EventEntity looks at Lilisette (ID: 17167189/0x0105F355) and starts talking
  5: 0x032F [0x00] END_REQSTACK()
```

### Event 65535.30

#### Metadata

| Field        | Value    |
|--------------|----------|
| Entrypoint   | 0x0330   |
| Data Size    | 16 bytes |
| Instructions | 3        |

```
      00 01 02 03 04 05 06 07  08 09 0A 0B 0C 0D 0E 0F
      -- -- -- -- -- -- -- --  -- -- -- -- -- -- -- --
0330: 92 01 F8 FF FF 7F 6C F8  FF FF 7F 05 80 0A 80 00  ......l.........
```

#### Opcodes

```
  0: 0x0330 [0x92] EventEntity->Render.Flags3 ^= 0x01
  1: 0x0336 [0x6C] FADE_ENTITY_COLOR(entity_id=EventEntity, end_alpha=0*, fade_time=1*)
  2: 0x033F [0x00] END_REQSTACK()
```

### Event 65535.31

#### Metadata

| Field        | Value    |
|--------------|----------|
| Entrypoint   | 0x0340   |
| Data Size    | 16 bytes |
| Instructions | 3        |

```
      00 01 02 03 04 05 06 07  08 09 0A 0B 0C 0D 0E 0F
      -- -- -- -- -- -- -- --  -- -- -- -- -- -- -- --
0340: 92 00 F8 FF FF 7F 6C F8  FF FF 7F 56 80 0A 80 00  ......l....V....
```

#### Opcodes

```
  0: 0x0340 [0x92] EventEntity->Render.Flags3 = Flags3  // No change (flag=0)
  1: 0x0346 [0x6C] FADE_ENTITY_COLOR(entity_id=EventEntity, end_alpha=128*, fade_time=1*)
  2: 0x034F [0x00] END_REQSTACK()
```

### Event 65535.32

#### Metadata

| Field        | Value    |
|--------------|----------|
| Entrypoint   | 0x0350   |
| Data Size    | 10 bytes |
| Instructions | 2        |

```
      00 01 02 03 04 05 06 07  08 09 0A 0B 0C 0D 0E 0F
      -- -- -- -- -- -- -- --  -- -- -- -- -- -- -- --
0350: 6C F8 FF FF 7F 05 80 0A  80 00                    l.........      
```

#### Opcodes

```
  0: 0x0350 [0x6C] FADE_ENTITY_COLOR(entity_id=EventEntity, end_alpha=0*, fade_time=1*)
  1: 0x0359 [0x00] END_REQSTACK()
```

### Event 65535.33

#### Metadata

| Field        | Value    |
|--------------|----------|
| Entrypoint   | 0x035A   |
| Data Size    | 10 bytes |
| Instructions | 2        |

```
      00 01 02 03 04 05 06 07  08 09 0A 0B 0C 0D 0E 0F
      -- -- -- -- -- -- -- --  -- -- -- -- -- -- -- --
0350:                                6C F8 FF FF 7F 56            l....V
0360: 80 0A 80 00                                       ....            
```

#### Opcodes

```
  0: 0x035A [0x6C] FADE_ENTITY_COLOR(entity_id=EventEntity, end_alpha=128*, fade_time=1*)
  1: 0x0363 [0x00] END_REQSTACK()
```

### Event 65535.34

#### Metadata

| Field        | Value    |
|--------------|----------|
| Entrypoint   | 0x0364   |
| Data Size    | 10 bytes |
| Instructions | 2        |

```
      00 01 02 03 04 05 06 07  08 09 0A 0B 0C 0D 0E 0F
      -- -- -- -- -- -- -- --  -- -- -- -- -- -- -- --
0360:             6C F8 FF FF  7F 11 80 0A 80 00            l.........  
```

#### Opcodes

```
  0: 0x0364 [0x6C] FADE_ENTITY_COLOR(entity_id=EventEntity, end_alpha=40*, fade_time=1*)
  1: 0x036D [0x00] END_REQSTACK()
```

### Event 65535.35

#### Metadata

| Field        | Value    |
|--------------|----------|
| Entrypoint   | 0x036E   |
| Data Size    | 10 bytes |
| Instructions | 2        |

```
      00 01 02 03 04 05 06 07  08 09 0A 0B 0C 0D 0E 0F
      -- -- -- -- -- -- -- --  -- -- -- -- -- -- -- --
0360:                                            6C 96                l.
0370: F3 05 01 56 80 0A 80 00                           ...V....        
```

#### Opcodes

```
  0: 0x036E [0x6C] FADE_ENTITY_COLOR(entity_id=Romaa Mihgo (ID: 17167254/0x0105F396), end_alpha=128*, fade_time=1*)
  1: 0x0377 [0x00] END_REQSTACK()
```

### Event 65535.36

#### Metadata

| Field        | Value    |
|--------------|----------|
| Entrypoint   | 0x0378   |
| Data Size    | 36 bytes |
| Instructions | 9        |

```
      00 01 02 03 04 05 06 07  08 09 0A 0B 0C 0D 0E 0F
      -- -- -- -- -- -- -- --  -- -- -- -- -- -- -- --
0370:                          32 57 80 1F 00 58 80 59          2W...X.Y
0380: 80 5A 80 1F 01 6F 59 01  F8 FF FF 7F 08 80 4B F8  .Z...oY.......K.
0390: FF FF 7F 5B 80 6F 76 F8  FF FF 7F 00              ...[.ov.....    
```

#### Opcodes

```
  0: 0x0378 [0x32] ExtData[1]->MainSpeed = 12* * 0.1
  1: 0x037B [0x1F] MOVE_ENTITY: EventEntity moves to X=318.813*, Z=-12.450*, Y=-4.562*
  2: 0x0383 [0x1F] MOVE_ENTITY: Update entity position (mode=1)
  3: 0x0385 [0x6F] WAIT_FRAME_DELAY: Yield until WaitTime reaches zero
  4: 0x0386 [0x59] UPDATE_ENTITY_DATA: Set EventEntity turn speed = 60*
  5: 0x038E [0x4B] UPDATE_ENTITY_YAW(entity=EventEntity, yaw=17.6°*)
  6: 0x0395 [0x6F] WAIT_FRAME_DELAY: Yield until WaitTime reaches zero
  7: 0x0396 [0x76] CHECK_ENTITY_RENDER_FLAGS: Wait until EventEntity Render.Flags0 and Render.Flags3 conditions are met
  8: 0x039B [0x00] END_REQSTACK()
```

### Event 65535.37

#### Metadata

| Field        | Value    |
|--------------|----------|
| Entrypoint   | 0x039C   |
| Data Size    | 14 bytes |
| Instructions | 4        |

```
      00 01 02 03 04 05 06 07  08 09 0A 0B 0C 0D 0E 0F
      -- -- -- -- -- -- -- --  -- -- -- -- -- -- -- --
0390:                                      32 11 80 1F              2...
03A0: 00 5C 80 5D 80 5E 80 1F  01 00                    .\.].^....      
```

#### Opcodes

```
  0: 0x039C [0x32] ExtData[1]->MainSpeed = 40* * 0.1
  1: 0x039F [0x1F] MOVE_ENTITY: EventEntity moves to X=317.498*, Z=-2.468*, Y=-4.000*
  2: 0x03A7 [0x1F] MOVE_ENTITY: Update entity position (mode=1)
  3: 0x03A9 [0x00] END_REQSTACK()
```

### Event 65535.38

#### Metadata

| Field        | Value     |
|--------------|-----------|
| Entrypoint   | 0x03AA    |
| Data Size    | 103 bytes |
| Instructions | 11        |

```
      00 01 02 03 04 05 06 07  08 09 0A 0B 0C 0D 0E 0F
      -- -- -- -- -- -- -- --  -- -- -- -- -- -- -- --
03A0:                                5B 5F 80 B3 F3 05            [_....
03B0: 01 B3 F3 05 01 6E 79 61  31 1C 09 80 5B 5F 80 B4  .....nya1...[_..
03C0: F3 05 01 B4 F3 05 01 6E  79 61 31 1C 09 80 5B 5F  .......nya1...[_
03D0: 80 B5 F3 05 01 B5 F3 05  01 6E 79 61 31 5B 5F 80  .........nya1[_.
03E0: B6 F3 05 01 B6 F3 05 01  6E 79 61 31 1C 0C 80 5B  ........nya1...[
03F0: 5F 80 B8 F3 05 01 B8 F3  05 01 6E 79 61 31 1C 0C  _.........nya1..
0400: 80 5B 5F 80 B7 F3 05 01  B7 F3 05 01 6E 79 61 31  .[_.........nya1
0410: 00                                                .               
```

#### Opcodes

```
  0: 0x03AA [0x5B] LOAD_EXT_SCHEDULER: Load scheduler "nya1" with entities [M01 (ID: 17167283/0x0105F3B3), M01 (ID: 17167283/0x0105F3B3)], work=1326*
  1: 0x03B9 [0x1C] WAIT(5* ticks)
  2: 0x03BC [0x5B] LOAD_EXT_SCHEDULER: Load scheduler "nya1" with entities [M02 (ID: 17167284/0x0105F3B4), M02 (ID: 17167284/0x0105F3B4)], work=1326*
  3: 0x03CB [0x1C] WAIT(5* ticks)
  4: 0x03CE [0x5B] LOAD_EXT_SCHEDULER: Load scheduler "nya1" with entities [M03 (ID: 17167285/0x0105F3B5), M03 (ID: 17167285/0x0105F3B5)], work=1326*
  5: 0x03DD [0x5B] LOAD_EXT_SCHEDULER: Load scheduler "nya1" with entities [M04 (ID: 17167286/0x0105F3B6), M04 (ID: 17167286/0x0105F3B6)], work=1326*
  6: 0x03EC [0x1C] WAIT(10* ticks)
  7: 0x03EF [0x5B] LOAD_EXT_SCHEDULER: Load scheduler "nya1" with entities [M06 (ID: 17167288/0x0105F3B8), M06 (ID: 17167288/0x0105F3B8)], work=1326*
  8: 0x03FE [0x1C] WAIT(10* ticks)
  9: 0x0401 [0x5B] LOAD_EXT_SCHEDULER: Load scheduler "nya1" with entities [M05 (ID: 17167287/0x0105F3B7), M05 (ID: 17167287/0x0105F3B7)], work=1326*
 10: 0x0410 [0x00] END_REQSTACK()
```

### Event 65535.39

#### Metadata

| Field        | Value   |
|--------------|---------|
| Entrypoint   | 0x0411  |
| Data Size    | 7 bytes |
| Instructions | 3       |

```
      00 01 02 03 04 05 06 07  08 09 0A 0B 0C 0D 0E 0F
      -- -- -- -- -- -- -- --  -- -- -- -- -- -- -- --
0410:    AB 03 AC 01 0A 80 00                            .......        
```

#### Opcodes

```
  0: 0x0411 [0xAB] EventEntity->Render.Flags0 ^= 0x20000 // Toggle bit 17
  1: 0x0413 [0xAC] EventEntity->StatusEvent = 1*
  2: 0x0417 [0x00] END_REQSTACK()
```

### Event 65535.40

#### Metadata

| Field        | Value   |
|--------------|---------|
| Entrypoint   | 0x0418  |
| Data Size    | 7 bytes |
| Instructions | 3       |

```
      00 01 02 03 04 05 06 07  08 09 0A 0B 0C 0D 0E 0F
      -- -- -- -- -- -- -- --  -- -- -- -- -- -- -- --
0410:                          AC 01 05 80 AB 04 00             ....... 
```

#### Opcodes

```
  0: 0x0418 [0xAC] EventEntity->StatusEvent = 0*
  1: 0x041C [0xAB] EventEntity->Render.Flags0 |= 0x40000 // Set bit 18
  2: 0x041E [0x00] END_REQSTACK()
```

### Event 65535.41

#### Metadata

| Field        | Value   |
|--------------|---------|
| Entrypoint   | 0x041F  |
| Data Size    | 4 bytes |
| Instructions | 2       |

```
      00 01 02 03 04 05 06 07  08 09 0A 0B 0C 0D 0E 0F
      -- -- -- -- -- -- -- --  -- -- -- -- -- -- -- --
0410:                                               1C                 .
0420: 02 10 00                                          ...             
```

#### Opcodes

```
  0: 0x041F [0x1C] WAIT(Work_Zone[2] ticks)
  1: 0x0422 [0x00] END_REQSTACK()
```

### Event 65535.42

#### Metadata

| Field        | Value    |
|--------------|----------|
| Entrypoint   | 0x0423   |
| Data Size    | 75 bytes |
| Instructions | 15       |

```
      00 01 02 03 04 05 06 07  08 09 0A 0B 0C 0D 0E 0F
      -- -- -- -- -- -- -- --  -- -- -- -- -- -- -- --
0420:          06 09 10 59 04  F8 FF FF 7F 60 80 1F 00     ...Y.....`...
0430: 61 80 62 80 63 80 1F 01  1F 00 64 80 65 80 66 80  a.b.c.....d.e.f.
0440: 1F 01 79 00 F0 FF FF 7F  9B F3 05 01 1F 00 67 80  ..y...........g.
0450: 68 80 66 80 1F 01 1F 00  69 80 6A 80 66 80 1F 01  h.f.....i.j.f...
0460: 6F 05 09 10 4A F0 FF FF  7F 9B F3 05 01 00        o...J.........  
```

#### Opcodes

```
  0: 0x0423 [0x06] Work_Zone[9] = 0
  1: 0x0426 [0x59] UPDATE_ENTITY_DATA: Set EventEntity main speed = 15* * 0.1
  2: 0x042E [0x1F] MOVE_ENTITY: EventEntity moves to X=1.409*, Z=-16.284*, Y=0.694*
  3: 0x0436 [0x1F] MOVE_ENTITY: Update entity position (mode=1)
  4: 0x0438 [0x1F] MOVE_ENTITY: EventEntity moves to X=2.496*, Z=-13.505*, Y=0.749*
  5: 0x0440 [0x1F] MOVE_ENTITY: Update entity position (mode=1)
  6: 0x0442 [0x79] LocalPlayer looks at Lehko Habhoka (ID: 17167259/0x0105F39B) (Basic look)
  7: 0x044C [0x1F] MOVE_ENTITY: EventEntity moves to X=4.049*, Z=-11.807*, Y=0.749*
  8: 0x0454 [0x1F] MOVE_ENTITY: Update entity position (mode=1)
  9: 0x0456 [0x1F] MOVE_ENTITY: EventEntity moves to X=6.100*, Z=-8.689*, Y=0.749*
 10: 0x045E [0x1F] MOVE_ENTITY: Update entity position (mode=1)
 11: 0x0460 [0x6F] WAIT_FRAME_DELAY: Yield until WaitTime reaches zero
 12: 0x0461 [0x05] Work_Zone[9] = 1
 13: 0x0464 [0x4A] LocalPlayer looks at Lehko Habhoka (ID: 17167259/0x0105F39B)
 14: 0x046D [0x00] END_REQSTACK()
```

### Event 65535.43

#### Metadata

| Field        | Value     |
|--------------|-----------|
| Entrypoint   | 0x046E    |
| Data Size    | 103 bytes |
| Instructions | 15        |

```
      00 01 02 03 04 05 06 07  08 09 0A 0B 0C 0D 0E 0F
      -- -- -- -- -- -- -- --  -- -- -- -- -- -- -- --
0460:                                            59 03                Y.
0470: F0 FF FF 7F 6B 80 02 07  10 42 80 80 8B 04 79 02  ....k....B....y.
0480: F0 FF FF 7F 6C 80 6D 80  01 95 04 79 02 F0 FF FF  ....l.m....y....
0490: 7F 6E 80 6D 80 1C 08 80  59 03 F0 FF FF 7F 6F 80  .n.m....Y.....o.
04A0: 02 07 10 42 80 80 B5 04  79 02 F0 FF FF 7F 6C 80  ...B....y.....l.
04B0: 70 80 01 BF 04 79 02 F0  FF FF 7F 6E 80 70 80 1C  p....y.....n.p..
04C0: 71 80 59 03 F0 FF FF 7F  6E 80 79 00 F0 FF FF 7F  q.Y.....n.y.....
04D0: 9B F3 05 01 00                                    .....           
```

#### Opcodes

```
  0: 0x046E [0x59] UPDATE_ENTITY_DATA: Set LocalPlayer turn speed head = 150*
  1: 0x0476 [0x02] IF !(Work_Zone[7] == 6*) GOTO 0x048B
  2: 0x047E [0x79] LocalPlayer looks at Unknown NPC (ID: 2154659948/0x806D806C) (Direct axis set)
  3: 0x0488 [0x01] GOTO 0x0495
  4: 0x048B [0x79] LocalPlayer looks at Unknown NPC (ID: 2154659950/0x806D806E) (Direct axis set)

SUBROUTINE_0495:
  5: 0x0495 [0x1C] WAIT(60* ticks)
  6: 0x0498 [0x59] UPDATE_ENTITY_DATA: Set LocalPlayer turn speed head = 300*
  7: 0x04A0 [0x02] IF !(Work_Zone[7] == 6*) GOTO 0x04B5
  8: 0x04A8 [0x79] LocalPlayer looks at Unknown NPC (ID: 2154856556/0x8070806C) (Direct axis set)
  9: 0x04B2 [0x01] GOTO 0x04BF
 10: 0x04B5 [0x79] LocalPlayer looks at Unknown NPC (ID: 2154856558/0x8070806E) (Direct axis set)

SUBROUTINE_04BF:
 11: 0x04BF [0x1C] WAIT(80* ticks)
 12: 0x04C2 [0x59] UPDATE_ENTITY_DATA: Set LocalPlayer turn speed head = 100*
 13: 0x04CA [0x79] LocalPlayer looks at Lehko Habhoka (ID: 17167259/0x0105F39B) (Basic look)
 14: 0x04D4 [0x00] END_REQSTACK()
```

### Event 65535.44

#### Metadata

| Field        | Value    |
|--------------|----------|
| Entrypoint   | 0x04D5   |
| Data Size    | 49 bytes |
| Instructions | 10       |

```
      00 01 02 03 04 05 06 07  08 09 0A 0B 0C 0D 0E 0F
      -- -- -- -- -- -- -- --  -- -- -- -- -- -- -- --
04D0:                59 04 F8  FF FF 7F 22 80 1F 00 72       Y....."...r
04E0: 80 73 80 66 80 1F 01 1F  00 74 80 75 80 66 80 1F  .s.f.....t.u.f..
04F0: 01 1F 00 76 80 77 80 66  80 1F 01 6F 4A F0 FF FF  ...v.w.f...oJ...
0500: 7F 9B F3 05 01 00                                 ......          
```

#### Opcodes

```
  0: 0x04D5 [0x59] UPDATE_ENTITY_DATA: Set EventEntity main speed = 13* * 0.1
  1: 0x04DD [0x1F] MOVE_ENTITY: EventEntity moves to X=8.696*, Z=-5.666*, Y=0.749*
  2: 0x04E5 [0x1F] MOVE_ENTITY: Update entity position (mode=1)
  3: 0x04E7 [0x1F] MOVE_ENTITY: EventEntity moves to X=9.705*, Z=-3.286*, Y=0.749*
  4: 0x04EF [0x1F] MOVE_ENTITY: Update entity position (mode=1)
  5: 0x04F1 [0x1F] MOVE_ENTITY: EventEntity moves to X=9.123*, Z=-1.841*, Y=0.749*
  6: 0x04F9 [0x1F] MOVE_ENTITY: Update entity position (mode=1)
  7: 0x04FB [0x6F] WAIT_FRAME_DELAY: Yield until WaitTime reaches zero
  8: 0x04FC [0x4A] LocalPlayer looks at Lehko Habhoka (ID: 17167259/0x0105F39B)
  9: 0x0505 [0x00] END_REQSTACK()
```

### Event 65535.45

#### Metadata

| Field        | Value    |
|--------------|----------|
| Entrypoint   | 0x0506   |
| Data Size    | 61 bytes |
| Instructions | 14       |

```
      00 01 02 03 04 05 06 07  08 09 0A 0B 0C 0D 0E 0F
      -- -- -- -- -- -- -- --  -- -- -- -- -- -- -- --
0500:                   06 09  10 59 04 F8 FF FF 7F 22        ...Y....."
0510: 80 1F 00 78 80 79 80 66  80 1F 01 1F 00 7A 80 7B  ...x.y.f.....z.{
0520: 80 7C 80 1F 01 1F 00 7D  80 7E 80 66 80 1F 01 6F  .|.....}.~.f...o
0530: 4A F0 FF FF 7F 9B F3 05  01 6F 76 F0 FF FF 7F 05  J........ov.....
0540: 09 10 00                                          ...             
```

#### Opcodes

```
  0: 0x0506 [0x06] Work_Zone[9] = 0
  1: 0x0509 [0x59] UPDATE_ENTITY_DATA: Set EventEntity main speed = 13* * 0.1
  2: 0x0511 [0x1F] MOVE_ENTITY: EventEntity moves to X=10.166*, Z=5.981*, Y=0.749*
  3: 0x0519 [0x1F] MOVE_ENTITY: Update entity position (mode=1)
  4: 0x051B [0x1F] MOVE_ENTITY: EventEntity moves to X=7.384*, Z=7.623*, Y=0.530*
  5: 0x0523 [0x1F] MOVE_ENTITY: Update entity position (mode=1)
  6: 0x0525 [0x1F] MOVE_ENTITY: EventEntity moves to X=5.197*, Z=9.014*, Y=0.749*
  7: 0x052D [0x1F] MOVE_ENTITY: Update entity position (mode=1)
  8: 0x052F [0x6F] WAIT_FRAME_DELAY: Yield until WaitTime reaches zero
  9: 0x0530 [0x4A] LocalPlayer looks at Lehko Habhoka (ID: 17167259/0x0105F39B)
 10: 0x0539 [0x6F] WAIT_FRAME_DELAY: Yield until WaitTime reaches zero
 11: 0x053A [0x76] CHECK_ENTITY_RENDER_FLAGS: Wait until LocalPlayer Render.Flags0 and Render.Flags3 conditions are met
 12: 0x053F [0x05] Work_Zone[9] = 1
 13: 0x0542 [0x00] END_REQSTACK()
```

### Event 65535.46

#### Metadata

| Field        | Value    |
|--------------|----------|
| Entrypoint   | 0x0543   |
| Data Size    | 16 bytes |
| Instructions | 3        |

```
      00 01 02 03 04 05 06 07  08 09 0A 0B 0C 0D 0E 0F
      -- -- -- -- -- -- -- --  -- -- -- -- -- -- -- --
0540:          6C F0 FF FF 7F  05 80 0A 80 92 01 F0 FF     l............
0550: FF 7F 00                                          ...             
```

#### Opcodes

```
  0: 0x0543 [0x6C] FADE_ENTITY_COLOR(entity_id=LocalPlayer, end_alpha=0*, fade_time=1*)
  1: 0x054C [0x92] LocalPlayer->Render.Flags3 ^= 0x01
  2: 0x0552 [0x00] END_REQSTACK()
```

### Event 65535.47

#### Metadata

| Field        | Value    |
|--------------|----------|
| Entrypoint   | 0x0553   |
| Data Size    | 16 bytes |
| Instructions | 3        |

```
      00 01 02 03 04 05 06 07  08 09 0A 0B 0C 0D 0E 0F
      -- -- -- -- -- -- -- --  -- -- -- -- -- -- -- --
0550:          6C F0 FF FF 7F  56 80 0A 80 92 00 F0 FF     l....V.......
0560: FF 7F 00                                          ...             
```

#### Opcodes

```
  0: 0x0553 [0x6C] FADE_ENTITY_COLOR(entity_id=LocalPlayer, end_alpha=128*, fade_time=1*)
  1: 0x055C [0x92] LocalPlayer->Render.Flags3 = Flags3  // No change (flag=0)
  2: 0x0562 [0x00] END_REQSTACK()
```

### Event 65535.48

#### Metadata

| Field        | Value    |
|--------------|----------|
| Entrypoint   | 0x0563   |
| Data Size    | 38 bytes |
| Instructions | 5        |

```
      00 01 02 03 04 05 06 07  08 09 0A 0B 0C 0D 0E 0F
      -- -- -- -- -- -- -- --  -- -- -- -- -- -- -- --
0560:          22 00 2F 00 F8  FF FF 7F B6 0B 38 80 05     "./.......8..
0570: 80 3A 80 3B 80 3C 80 3C  80 3C 80 3D 80 3E 80 6C  .:.;.<.<.<.=.>.l
0580: F8 FF FF 7F 43 80 0A 80  00                       ....C....       
```

#### Opcodes

```
  0: 0x0563 [0x22] ENTITY_HIDE_FLAG(enabled=0x00)
  1: 0x0565 [0x2F] EventEntity->Render.Flags0 &= ~0x80000 // Bit 19
  2: 0x056B [0xB6] ENTITY_APPEARANCE_HANDLER(case=Full entity look, race=8*, hair=0*, head=145*, body=79*, hands=76*, legs=76*, feet=76*, main=201*, sub=24*)
  3: 0x057F [0x6C] FADE_ENTITY_COLOR(entity_id=EventEntity, end_alpha=64*, fade_time=1*)
  4: 0x0588 [0x00] END_REQSTACK()
```

### Event 65535.49

#### Metadata

| Field        | Value    |
|--------------|----------|
| Entrypoint   | 0x0589   |
| Data Size    | 38 bytes |
| Instructions | 5        |

```
      00 01 02 03 04 05 06 07  08 09 0A 0B 0C 0D 0E 0F
      -- -- -- -- -- -- -- --  -- -- -- -- -- -- -- --
0580:                             22 00 2F 00 F8 FF FF           "./....
0590: 7F B6 0B 40 80 05 80 3A  80 3B 80 3C 80 3C 80 3C  ...@...:.;.<.<.<
05A0: 80 3D 80 3E 80 6C F8 FF  FF 7F 71 80 0A 80 00     .=.>.l....q.... 
```

#### Opcodes

```
  0: 0x0589 [0x22] ENTITY_HIDE_FLAG(enabled=0x00)
  1: 0x058B [0x2F] EventEntity->Render.Flags0 &= ~0x80000 // Bit 19
  2: 0x0591 [0xB6] ENTITY_APPEARANCE_HANDLER(case=Full entity look, race=4*, hair=0*, head=145*, body=79*, hands=76*, legs=76*, feet=76*, main=201*, sub=24*)
  3: 0x05A5 [0x6C] FADE_ENTITY_COLOR(entity_id=EventEntity, end_alpha=80*, fade_time=1*)
  4: 0x05AE [0x00] END_REQSTACK()
```

### Event 65535.50

#### Metadata

| Field        | Value    |
|--------------|----------|
| Entrypoint   | 0x05AF   |
| Data Size    | 38 bytes |
| Instructions | 5        |

```
      00 01 02 03 04 05 06 07  08 09 0A 0B 0C 0D 0E 0F
      -- -- -- -- -- -- -- --  -- -- -- -- -- -- -- --
05A0:                                               22                 "
05B0: 00 2F 00 F8 FF FF 7F B6  0B 09 80 05 80 3A 80 3B  ./...........:.;
05C0: 80 3C 80 3C 80 3C 80 3D  80 3E 80 6C F8 FF FF 7F  .<.<.<.=.>.l....
05D0: 7F 80 0A 80 00                                    .....           
```

#### Opcodes

```
  0: 0x05AF [0x22] ENTITY_HIDE_FLAG(enabled=0x00)
  1: 0x05B1 [0x2F] EventEntity->Render.Flags0 &= ~0x80000 // Bit 19
  2: 0x05B7 [0xB6] ENTITY_APPEARANCE_HANDLER(case=Full entity look, race=5*, hair=0*, head=145*, body=79*, hands=76*, legs=76*, feet=76*, main=201*, sub=24*)
  3: 0x05CB [0x6C] FADE_ENTITY_COLOR(entity_id=EventEntity, end_alpha=96*, fade_time=1*)
  4: 0x05D4 [0x00] END_REQSTACK()
```

### Event 65535.51

#### Metadata

| Field        | Value    |
|--------------|----------|
| Entrypoint   | 0x05D5   |
| Data Size    | 34 bytes |
| Instructions | 8        |

```
      00 01 02 03 04 05 06 07  08 09 0A 0B 0C 0D 0E 0F
      -- -- -- -- -- -- -- --  -- -- -- -- -- -- -- --
05D0:                32 11 80  1F 00 80 80 81 80 82 80       2..........
05E0: 1F 01 1F 00 83 80 84 80  85 80 1F 01 1F 00 86 80  ................
05F0: 87 80 88 80 1F 01 00                              .......         
```

#### Opcodes

```
  0: 0x05D5 [0x32] ExtData[1]->MainSpeed = 40* * 0.1
  1: 0x05D8 [0x1F] MOVE_ENTITY: EventEntity moves to X=-336.337*, Z=-400.214*, Y=2.977*
  2: 0x05E0 [0x1F] MOVE_ENTITY: Update entity position (mode=1)
  3: 0x05E2 [0x1F] MOVE_ENTITY: EventEntity moves to X=-341.298*, Z=-401.169*, Y=2.829*
  4: 0x05EA [0x1F] MOVE_ENTITY: Update entity position (mode=1)
  5: 0x05EC [0x1F] MOVE_ENTITY: EventEntity moves to X=-347.970*, Z=-401.531*, Y=3.490*
  6: 0x05F4 [0x1F] MOVE_ENTITY: Update entity position (mode=1)
  7: 0x05F6 [0x00] END_REQSTACK()
```

### Event 65535.52

#### Metadata

| Field        | Value     |
|--------------|-----------|
| Entrypoint   | 0x05F7    |
| Data Size    | 177 bytes |
| Instructions | 35        |

```
      00 01 02 03 04 05 06 07  08 09 0A 0B 0C 0D 0E 0F
      -- -- -- -- -- -- -- --  -- -- -- -- -- -- -- --
05F0:                      32  11 80 02 02 10 0A 80 80         2........
0600: 0F 06 1F 00 89 80 8A 80  17 80 1F 01 01 A2 06 02  ................
0610: 02 10 0B 80 80 24 06 1F  00 89 80 8A 80 17 80 1F  .....$..........
0620: 01 01 A2 06 02 02 10 8B  80 80 39 06 1F 00 89 80  ..........9.....
0630: 8A 80 17 80 1F 01 01 A2  06 02 02 10 40 80 80 4E  ............@..N
0640: 06 1F 00 89 80 8A 80 17  80 1F 01 01 A2 06 02 02  ................
0650: 10 09 80 80 63 06 1F 00  89 80 8A 80 17 80 1F 01  ....c...........
0660: 01 A2 06 02 02 10 42 80  80 78 06 1F 00 89 80 8A  ......B..x......
0670: 80 17 80 1F 01 01 A2 06  02 02 10 39 80 80 8D 06  ...........9....
0680: 1F 00 89 80 8A 80 17 80  1F 01 01 A2 06 02 02 10  ................
0690: 38 80 80 A2 06 1F 00 8C  80 8D 80 17 80 1F 01 01  8...............
06A0: A2 06 1E 9B F3 05 01 00                           ........        
```

#### Opcodes

```
  0: 0x05F7 [0x32] ExtData[1]->MainSpeed = 40* * 0.1
  1: 0x05FA [0x02] IF !(Work_Zone[2] == 1*) GOTO 0x060F
  2: 0x0602 [0x1F] MOVE_ENTITY: EventEntity moves to X=-356.455*, Z=-398.107*, Y=3.999*
  3: 0x060A [0x1F] MOVE_ENTITY: Update entity position (mode=1)
  4: 0x060C [0x01] GOTO 0x06A2
  5: 0x060F [0x02] IF !(Work_Zone[2] == 2*) GOTO 0x0624
  6: 0x0617 [0x1F] MOVE_ENTITY: EventEntity moves to X=-356.455*, Z=-398.107*, Y=3.999*
  7: 0x061F [0x1F] MOVE_ENTITY: Update entity position (mode=1)
  8: 0x0621 [0x01] GOTO 0x06A2
  9: 0x0624 [0x02] IF !(Work_Zone[2] == 3*) GOTO 0x0639
 10: 0x062C [0x1F] MOVE_ENTITY: EventEntity moves to X=-356.455*, Z=-398.107*, Y=3.999*
 11: 0x0634 [0x1F] MOVE_ENTITY: Update entity position (mode=1)
 12: 0x0636 [0x01] GOTO 0x06A2
 13: 0x0639 [0x02] IF !(Work_Zone[2] == 4*) GOTO 0x064E
 14: 0x0641 [0x1F] MOVE_ENTITY: EventEntity moves to X=-356.455*, Z=-398.107*, Y=3.999*
 15: 0x0649 [0x1F] MOVE_ENTITY: Update entity position (mode=1)
 16: 0x064B [0x01] GOTO 0x06A2
 17: 0x064E [0x02] IF !(Work_Zone[2] == 5*) GOTO 0x0663
 18: 0x0656 [0x1F] MOVE_ENTITY: EventEntity moves to X=-356.455*, Z=-398.107*, Y=3.999*
 19: 0x065E [0x1F] MOVE_ENTITY: Update entity position (mode=1)
 20: 0x0660 [0x01] GOTO 0x06A2
 21: 0x0663 [0x02] IF !(Work_Zone[2] == 6*) GOTO 0x0678
 22: 0x066B [0x1F] MOVE_ENTITY: EventEntity moves to X=-356.455*, Z=-398.107*, Y=3.999*
 23: 0x0673 [0x1F] MOVE_ENTITY: Update entity position (mode=1)
 24: 0x0675 [0x01] GOTO 0x06A2
 25: 0x0678 [0x02] IF !(Work_Zone[2] == 7*) GOTO 0x068D
 26: 0x0680 [0x1F] MOVE_ENTITY: EventEntity moves to X=-356.455*, Z=-398.107*, Y=3.999*
 27: 0x0688 [0x1F] MOVE_ENTITY: Update entity position (mode=1)
 28: 0x068A [0x01] GOTO 0x06A2
 29: 0x068D [0x02] IF !(Work_Zone[2] == 8*) GOTO 0x06A2
 30: 0x0695 [0x1F] MOVE_ENTITY: EventEntity moves to X=-356.284*, Z=-398.311*, Y=3.999*
 31: 0x069D [0x1F] MOVE_ENTITY: Update entity position (mode=1)
 32: 0x069F [0x01] GOTO 0x06A2

SUBROUTINE_06A2:
 33: 0x06A2 [0x1E] EventEntity looks at Lehko Habhoka (ID: 17167259/0x0105F39B) and starts talking
 34: 0x06A7 [0x00] END_REQSTACK()
```

### Event 201

#### Metadata

| Field        | Value     |
|--------------|-----------|
| Entrypoint   | 0x06A8    |
| Data Size    | 102 bytes |
| Instructions | 15        |

```
      00 01 02 03 04 05 06 07  08 09 0A 0B 0C 0D 0E 0F
      -- -- -- -- -- -- -- --  -- -- -- -- -- -- -- --
06A0:                          42 48 8E 80 45 07 80 F0          BH..E...
06B0: FF FF 7F F0 FF FF 7F 66  64 6F 31 05 80 02 03 10  .......fdo1.....
06C0: 05 80 00 D9 06 62 0A 80  F0 FF FF 7F F0 FF FF 7F  .....b..........
06D0: 6D 61 69 6E 05 80 1C 8F  80 1C 08 80 83 1E 17 AA  main............
06E0: 1E 17 1E 17 1E 17 1E 17  1E 17 1F 17 1E 17 1E 17  ................
06F0: 03 02 00 05 80 77 1F 17  02 00 78 45 3D 80 F0 FF  .....w....xE=...
0700: FF 7F F0 FF FF 7F 77 68  69 31 05 80 21 00        ......whi1..!.  
```

#### Opcodes

```
  0: 0x06A8 [0x42] SET_CLI_EVENT_CANCEL_DATA()
  1: 0x06A9 [0x48] [System] [7444*]:
    → "The order has been given by your party leader to enter [Everbloom Hollow/the Ruhotz Silvermines/Ghoyu's Reverie]."
  2: 0x06AC [0x45] LOAD_SCHEDULED_TASK: Load scheduler "fdo1" with entities [LocalPlayer, LocalPlayer], work=[200*, 0*]
  3: 0x06BD [0x02] IF !(Work_Zone[3] == 0*) GOTO 0x06D9
  4: 0x06C5 [0x62] LOAD_EVENT_SCHEDULER: Load scheduler "main" with entities [LocalPlayer, LocalPlayer], work=[1*, 0*]
  5: 0x06D6 [0x1C] WAIT(90* ticks)
  6: 0x06D9 [0x1C] WAIT(60* ticks)
  7: 0x06DC [0x83] Work_Zone_1700[30] = GetGameTime()
  8: 0x06DF [0xAA] VANA_DIEL_TIMESTAMP_CONVERTER(timestamp=Work_Zone_1700[30], year=Work_Zone_1700[30], month=Work_Zone_1700[30], day=Work_Zone_1700[30], weekday=Work_Zone_1700[30], hour=Work_Zone_1700[31], minute=Work_Zone_1700[30], moon=Work_Zone_1700[30])
  9: 0x06F0 [0x03] ExtData[1]->WorkLocal[2] = 0*
 10: 0x06F5 [0x77] SET_EVENT_TIME_WEATHER(hour=Work_Zone_1700[31], weather=ExtData[1]->WorkLocal[2])
 11: 0x06FA [0x78] ENABLE_GAME_TIMER_RESET_WEATHER()
 12: 0x06FB [0x45] LOAD_SCHEDULED_TASK: Load scheduler "whi1" with entities [LocalPlayer, LocalPlayer], work=[201*, 0*]
 13: 0x070C [0x21] END_EVENT
 14: 0x070D [0x00] END_REQSTACK()
```

### Event 264

#### Metadata

| Field        | Value    |
|--------------|----------|
| Entrypoint   | 0x070E   |
| Data Size    | 29 bytes |
| Instructions | 7        |

```
      00 01 02 03 04 05 06 07  08 09 0A 0B 0C 0D 0E 0F
      -- -- -- -- -- -- -- --  -- -- -- -- -- -- -- --
0700:                                            42 48                BH
0710: 90 80 BB 91 80 F0 FF FF  7F F0 FF FF 7F 6D 61 69  .............mai
0720: 6E 05 80 1C 08 80 1C 08  80 21 00                 n........!.     
```

#### Opcodes

```
  0: 0x070E [0x42] SET_CLI_EVENT_CANCEL_DATA()
  1: 0x070F [0x48] [System] [7954*]:
    → "The sandworm swallows you whole!"
  2: 0x0712 [0xBB] LOAD_EVENT_SCHEDULER_ALT: Load scheduler "main" with entities [LocalPlayer, LocalPlayer], work=[234*, 0*]
  3: 0x0723 [0x1C] WAIT(60* ticks)
  4: 0x0726 [0x1C] WAIT(60* ticks)
  5: 0x0729 [0x21] END_EVENT
  6: 0x072A [0x00] END_REQSTACK()
```

### Event 265

#### Metadata

| Field        | Value      |
|--------------|------------|
| Entrypoint   | 0x072B     |
| Data Size    | 1061 bytes |
| Instructions | 204        |

```
      00 01 02 03 04 05 06 07  08 09 0A 0B 0C 0D 0E 0F
      -- -- -- -- -- -- -- --  -- -- -- -- -- -- -- --
0720:                                   42 46 01 3E 04             BF.>.
0730: 10 05 80 3D 07 03 03 00  0A 80 01 42 07 03 03 00  ...=.......B....
0740: 05 80 3E 04 10 0A 80 51  07 03 04 00 0A 80 01 56  ..>....Q.......V
0750: 07 03 04 00 05 80 41 0B  80 8B 80 04 10 05 00 45  ......A........E
0760: 07 80 F8 FF FF 7F F8 FF  FF 7F 66 64 6F 30 05 80  ..........fdo0..
0770: 55 07 80 F8 FF FF 7F F8  FF FF 7F 66 64 6F 30 BA  U..........fdo0.
0780: F0 FF FF 7F 05 10 06 10  07 10 08 10 1A 6C 08 1A  .............l..
0790: CA 08 38 92 80 1A 0F 09  03 05 10 02 10 03 06 10  ..8.............
07A0: 02 10 03 07 10 02 10 15  05 10 93 80 15 06 10 08  ................
07B0: 80 3F 07 10 07 10 08 80  1A 2E 0B 1A 4F 09 45 07  .?..........O.E.
07C0: 80 F8 FF FF 7F F8 FF FF  7F 66 64 69 31 05 80 1C  .........fdi1...
07D0: 94 80 1A E8 0A 1A 8C 09  1C 08 80 1A C6 09 02 04  ................
07E0: 00 05 80 00 EF 07 1C 08  80 1A 00 0A 01 31 08 1C  .............1..
07F0: 08 80 1A 3A 0A 02 03 10  05 80 01 31 08 03 05 10  ...:.......1....
0800: 03 10 03 06 10 03 10 03  07 10 03 10 15 05 10 93  ................
0810: 80 15 06 10 08 80 3F 07  10 07 10 08 80 1C 08 80  ......?.........
0820: 02 03 00 05 80 00 2E 08  1A 74 0A 01 31 08 1A AE  .........t..1...
0830: 0A 1C 08 80 1A 40 0B 45  07 80 F8 FF FF 7F F8 FF  .....@.E........
0840: FF 7F 66 64 6F 31 05 80  55 07 80 F8 FF FF 7F F8  ..fdo1..U.......
0850: FF FF 7F 66 64 6F 31 46  00 45 07 80 F8 FF FF 7F  ...fdo1F.E......
0860: F8 FF FF 7F 66 64 69 32  05 80 21 00 02 05 00 0A  ....fdi2..!.....
0870: 80 80 89 08 4E 00 41 F3  05 01 92 01 41 F3 05 01  ....N.A.....A...
0880: 4E 00 44 F3 05 01 01 C3  08 02 05 00 0B 80 80 A6  N.D.............
0890: 08 4E 00 42 F3 05 01 92  01 42 F3 05 01 4E 00 45  .N.B.....B...N.E
08A0: F3 05 01 01 C3 08 02 05  00 8B 80 80 C3 08 4E 00  ..............N.
08B0: 43 F3 05 01 92 01 43 F3  05 01 4E 00 46 F3 05 01  C.....C...N.F...
08C0: 01 C3 08 4E 00 65 F3 05  01 1B 02 05 00 0A 80 80  ...N.e..........
08D0: DF 08 80 41 F3 05 01 80  44 F3 05 01 01 09 09 02  ...A....D.......
08E0: 05 00 0B 80 80 F4 08 80  42 F3 05 01 80 45 F3 05  ........B....E..
08F0: 01 01 09 09 02 05 00 8B  80 80 09 09 80 43 F3 05  .............C..
0900: 01 80 46 F3 05 01 01 09  09 80 65 F3 05 01 1B 02  ..F.......e.....
0910: 05 00 0B 80 80 24 09 79  00 F0 FF FF 7F 41 F3 05  .....$.y.....A..
0920: 01 01 4E 09 02 05 00 8B  80 80 39 09 79 00 F0 FF  ..N.......9.y...
0930: FF 7F 42 F3 05 01 01 4E  09 02 05 00 40 80 80 4E  ..B....N....@..N
0940: 09 79 00 F0 FF FF 7F 43  F3 05 01 01 4E 09 1B 02  .y.....C....N...
0950: 05 00 0A 80 80 63 09 4A  41 F3 05 01 F0 FF FF 7F  .....c.JA.......
0960: 01 8B 09 02 05 00 0B 80  80 77 09 4A 42 F3 05 01  .........w.JB...
0970: F0 FF FF 7F 01 8B 09 02  05 00 8B 80 80 8B 09 4A  ...............J
0980: 43 F3 05 01 F0 FF FF 7F  01 8B 09 1B 02 05 00 0A  C...............
0990: 80 80 9F 09 2B 41 F3 05  01 95 80 23 01 C5 09 02  ....+A.....#....
09A0: 05 00 0B 80 80 B2 09 2B  42 F3 05 01 95 80 23 01  .......+B.....#.
09B0: C5 09 02 05 00 8B 80 80  C5 09 2B 43 F3 05 01 95  ..........+C....
09C0: 80 23 01 C5 09 1B 02 05  00 0A 80 80 D9 09 2B 41  .#............+A
09D0: F3 05 01 96 80 23 01 FF  09 02 05 00 0B 80 80 EC  .....#..........
09E0: 09 2B 42 F3 05 01 96 80  23 01 FF 09 02 05 00 8B  .+B.....#.......
09F0: 80 80 FF 09 2B 43 F3 05  01 96 80 23 01 FF 09 1B  ....+C.....#....
0A00: 02 05 00 0A 80 80 13 0A  2B 41 F3 05 01 97 80 23  ........+A.....#
0A10: 01 39 0A 02 05 00 0B 80  80 26 0A 2B 42 F3 05 01  .9.......&.+B...
0A20: 97 80 23 01 39 0A 02 05  00 8B 80 80 39 0A 2B 43  ..#.9.......9.+C
0A30: F3 05 01 97 80 23 01 39  0A 1B 02 05 00 0A 80 80  .....#.9........
0A40: 4D 0A 2B 41 F3 05 01 7B  80 23 01 73 0A 02 05 00  M.+A...{.#.s....
0A50: 0B 80 80 60 0A 2B 42 F3  05 01 7B 80 23 01 73 0A  ...`.+B...{.#.s.
0A60: 02 05 00 8B 80 80 73 0A  2B 43 F3 05 01 7B 80 23  ......s.+C...{.#
0A70: 01 73 0A 1B 02 05 00 0A  80 80 87 0A 2B 41 F3 05  .s..........+A..
0A80: 01 98 80 23 01 AD 0A 02  05 00 0B 80 80 9A 0A 2B  ...#...........+
0A90: 42 F3 05 01 98 80 23 01  AD 0A 02 05 00 8B 80 80  B.....#.........
0AA0: AD 0A 2B 43 F3 05 01 98  80 23 01 AD 0A 1B 02 05  ..+C.....#......
0AB0: 00 0A 80 80 C1 0A 2B 41  F3 05 01 99 80 23 01 E7  ......+A.....#..
0AC0: 0A 02 05 00 0B 80 80 D4  0A 2B 42 F3 05 01 99 80  .........+B.....
0AD0: 23 01 E7 0A 02 05 00 8B  80 80 E7 0A 2B 43 F3 05  #...........+C..
0AE0: 01 99 80 23 01 E7 0A 1B  02 05 00 0A 80 80 FF 0A  ...#............
0AF0: 6E 41 F3 05 01 0B 80 99  41 F3 05 01 01 2D 0B 02  nA......A....-..
0B00: 05 00 0B 80 80 16 0B 6E  42 F3 05 01 9A 80 99 42  .......nB......B
0B10: F3 05 01 01 2D 0B 02 05  00 8B 80 80 2D 0B 6E 43  ....-.......-.nC
0B20: F3 05 01 9B 80 99 43 F3  05 01 01 2D 0B 1B 45 9C  ......C....-..E.
0B30: 80 F0 FF FF 7F F0 FF FF  7F 63 30 39 35 05 80 1B  .........c095...
0B40: 52 9C 80 F0 FF FF 7F F0  FF FF 7F 63 30 39 35 1B  R..........c095.
```

#### Opcodes

```
  0: 0x072B [0x42] SET_CLI_EVENT_CANCEL_DATA()
  1: 0x072C [0x46] CAMERA_CONTROL: Disable user control
  2: 0x072E [0x3E] IF !(Work_Zone[4] bit 0*) GOTO 0x073D
  3: 0x0735 [0x03] ExtData[1]->WorkLocal[3] = 1*
  4: 0x073A [0x01] GOTO 0x0742
  5: 0x073D [0x03] ExtData[1]->WorkLocal[3] = 0*

SUBROUTINE_0742:
  6: 0x0742 [0x3E] IF !(Work_Zone[4] bit 1*) GOTO 0x0751
  7: 0x0749 [0x03] ExtData[1]->WorkLocal[4] = 1*
  8: 0x074E [0x01] GOTO 0x0756
  9: 0x0751 [0x03] ExtData[1]->WorkLocal[4] = 0*

SUBROUTINE_0756:
 10: 0x0756 [0x41] ExtData[1]->WorkLocal[5] = Work_Zone[4] (bits 2*-3*)
 11: 0x075F [0x45] LOAD_SCHEDULED_TASK: Load scheduler "fdo0" with entities [EventEntity, EventEntity], work=[200*, 0*]
 12: 0x0770 [0x55] WAIT_LOAD_SCHEDULER: Wait for scheduler "fdo0" with entities [EventEntity, EventEntity], work=200*
 13: 0x077F [0xBA] SET_ENTITY_POSITION(entity_id=LocalPlayer, pos_x=Work_Zone[5], pos_z=Work_Zone[6], pos_y=Work_Zone[7], direction=Work_Zone[8])
 14: 0x078C [0x1A] CALL_SUBROUTINE(address=0x086C)
 15: 0x078F [0x1A] CALL_SUBROUTINE(address=0x08CA)
 16: 0x0792 [0x38] SET_CLIENT_EVENT_MODE(mode=19*)
 17: 0x0795 [0x1A] CALL_SUBROUTINE(address=0x090F)
 18: 0x0798 [0x03] Work_Zone[5] = Work_Zone[2]
 19: 0x079D [0x03] Work_Zone[6] = Work_Zone[2]
 20: 0x07A2 [0x03] Work_Zone[7] = Work_Zone[2]
 21: 0x07A7 [0x15] Work_Zone[5] /= 144*
 22: 0x07AC [0x15] Work_Zone[6] /= 60*
 23: 0x07B1 [0x3F] Work_Zone[7] = Work_Zone[7] % 60*
 24: 0x07B8 [0x1A] CALL_SUBROUTINE(address=0x0B2E)
 25: 0x07BB [0x1A] CALL_SUBROUTINE(address=0x094F)
 26: 0x07BE [0x45] LOAD_SCHEDULED_TASK: Load scheduler "fdi1" with entities [EventEntity, EventEntity], work=[200*, 0*]
 27: 0x07CF [0x1C] WAIT(180* ticks)
 28: 0x07D2 [0x1A] CALL_SUBROUTINE(address=0x0AE8)
 29: 0x07D5 [0x1A] CALL_SUBROUTINE(address=0x098C)
 30: 0x07D8 [0x1C] WAIT(60* ticks)
 31: 0x07DB [0x1A] CALL_SUBROUTINE(address=0x09C6)
 32: 0x07DE [0x02] IF !(ExtData[1]->WorkLocal[4] == 0*) GOTO 0x07EF
 33: 0x07E6 [0x1C] WAIT(60* ticks)
 34: 0x07E9 [0x1A] CALL_SUBROUTINE(address=0x0A00)
 35: 0x07EC [0x01] GOTO 0x0831
 36: 0x07EF [0x1C] WAIT(60* ticks)
 37: 0x07F2 [0x1A] CALL_SUBROUTINE(address=0x0A3A)
 38: 0x07F5 [0x02] IF !(Work_Zone[3] == 0*) GOTO 0x0831
 39: 0x07FD [0x03] Work_Zone[5] = Work_Zone[3]
 40: 0x0802 [0x03] Work_Zone[6] = Work_Zone[3]
 41: 0x0807 [0x03] Work_Zone[7] = Work_Zone[3]
 42: 0x080C [0x15] Work_Zone[5] /= 144*
 43: 0x0811 [0x15] Work_Zone[6] /= 60*
 44: 0x0816 [0x3F] Work_Zone[7] = Work_Zone[7] % 60*
 45: 0x081D [0x1C] WAIT(60* ticks)
 46: 0x0820 [0x02] IF !(ExtData[1]->WorkLocal[3] == 0*) GOTO 0x082E
 47: 0x0828 [0x1A] CALL_SUBROUTINE(address=0x0A74)
 48: 0x082B [0x01] GOTO 0x0831
 49: 0x082E [0x1A] CALL_SUBROUTINE(address=0x0AAE)

SUBROUTINE_0831:
 50: 0x0831 [0x1C] WAIT(60* ticks)
 51: 0x0834 [0x1A] CALL_SUBROUTINE(address=0x0B40)
 52: 0x0837 [0x45] LOAD_SCHEDULED_TASK: Load scheduler "fdo1" with entities [EventEntity, EventEntity], work=[200*, 0*]
 53: 0x0848 [0x55] WAIT_LOAD_SCHEDULER: Wait for scheduler "fdo1" with entities [EventEntity, EventEntity], work=200*
 54: 0x0857 [0x46] CAMERA_CONTROL: Restore default settings
 55: 0x0859 [0x45] LOAD_SCHEDULED_TASK: Load scheduler "fdi2" with entities [EventEntity, EventEntity], work=[200*, 0*]
 56: 0x086A [0x21] END_EVENT
 57: 0x086B [0x00] END_REQSTACK()

SUBROUTINE_086C:
 58: 0x086C [0x02] IF !(ExtData[1]->WorkLocal[5] == 1*) GOTO 0x0889
 59: 0x0874 [0x4E] SET_ENTITY_HIDE_FLAG: Show Madelleon, R.K. (ID: 17167169/0x0105F341)
 60: 0x087A [0x92] Madelleon, R.K. (ID: 17167169/0x0105F341)->Render.Flags3 ^= 0x01
 61: 0x0880 [0x4E] SET_ENTITY_HIDE_FLAG: Show Unnamed NPC (ID: 17167172/0x0105F344)
 62: 0x0886 [0x01] GOTO 0x08C3
 63: 0x0889 [0x02] IF !(ExtData[1]->WorkLocal[5] == 2*) GOTO 0x08A6
 64: 0x0891 [0x4E] SET_ENTITY_HIDE_FLAG: Show Tenacious Fool, L.C. (ID: 17167170/0x0105F342)
 65: 0x0897 [0x92] Tenacious Fool, L.C. (ID: 17167170/0x0105F342)->Render.Flags3 ^= 0x01
 66: 0x089D [0x4E] SET_ENTITY_HIDE_FLAG: Show Unnamed NPC (ID: 17167173/0x0105F345)
 67: 0x08A3 [0x01] GOTO 0x08C3
 68: 0x08A6 [0x02] IF !(ExtData[1]->WorkLocal[5] == 3*) GOTO 0x08C3
 69: 0x08AE [0x4E] SET_ENTITY_HIDE_FLAG: Show Mhik Liusihlo, M.C. (ID: 17167171/0x0105F343)
 70: 0x08B4 [0x92] Mhik Liusihlo, M.C. (ID: 17167171/0x0105F343)->Render.Flags3 ^= 0x01
 71: 0x08BA [0x4E] SET_ENTITY_HIDE_FLAG: Show Unnamed NPC (ID: 17167174/0x0105F346)
 72: 0x08C0 [0x01] GOTO 0x08C3

SUBROUTINE_08C3:
 73: 0x08C3 [0x4E] SET_ENTITY_HIDE_FLAG: Show Unnamed NPC (ID: 17167205/0x0105F365)
 74: 0x08C9 [0x1B] RETURN

SUBROUTINE_08CA:
 75: 0x08CA [0x02] IF !(ExtData[1]->WorkLocal[5] == 1*) GOTO 0x08DF
 76: 0x08D2 [0x80] LOAD_WAIT(entity=Madelleon, R.K. (ID: 17167169/0x0105F341))
 77: 0x08D7 [0x80] LOAD_WAIT(entity=Unnamed NPC (ID: 17167172/0x0105F344))
 78: 0x08DC [0x01] GOTO 0x0909
 79: 0x08DF [0x02] IF !(ExtData[1]->WorkLocal[5] == 2*) GOTO 0x08F4
 80: 0x08E7 [0x80] LOAD_WAIT(entity=Tenacious Fool, L.C. (ID: 17167170/0x0105F342))
 81: 0x08EC [0x80] LOAD_WAIT(entity=Unnamed NPC (ID: 17167173/0x0105F345))
 82: 0x08F1 [0x01] GOTO 0x0909
 83: 0x08F4 [0x02] IF !(ExtData[1]->WorkLocal[5] == 3*) GOTO 0x0909
 84: 0x08FC [0x80] LOAD_WAIT(entity=Mhik Liusihlo, M.C. (ID: 17167171/0x0105F343))
 85: 0x0901 [0x80] LOAD_WAIT(entity=Unnamed NPC (ID: 17167174/0x0105F346))
 86: 0x0906 [0x01] GOTO 0x0909

SUBROUTINE_0909:
 87: 0x0909 [0x80] LOAD_WAIT(entity=Unnamed NPC (ID: 17167205/0x0105F365))
 88: 0x090E [0x1B] RETURN

SUBROUTINE_090F:
 89: 0x090F [0x02] IF !(ExtData[1]->WorkLocal[5] == 2*) GOTO 0x0924
 90: 0x0917 [0x79] LocalPlayer looks at Madelleon, R.K. (ID: 17167169/0x0105F341) (Basic look)
 91: 0x0921 [0x01] GOTO 0x094E
 92: 0x0924 [0x02] IF !(ExtData[1]->WorkLocal[5] == 3*) GOTO 0x0939
 93: 0x092C [0x79] LocalPlayer looks at Tenacious Fool, L.C. (ID: 17167170/0x0105F342) (Basic look)
 94: 0x0936 [0x01] GOTO 0x094E
 95: 0x0939 [0x02] IF !(ExtData[1]->WorkLocal[5] == 4*) GOTO 0x094E
 96: 0x0941 [0x79] LocalPlayer looks at Mhik Liusihlo, M.C. (ID: 17167171/0x0105F343) (Basic look)
 97: 0x094B [0x01] GOTO 0x094E

SUBROUTINE_094E:
 98: 0x094E [0x1B] RETURN

SUBROUTINE_094F:
 99: 0x094F [0x02] IF !(ExtData[1]->WorkLocal[5] == 1*) GOTO 0x0963
100: 0x0957 [0x4A] Madelleon, R.K. (ID: 17167169/0x0105F341) looks at LocalPlayer
101: 0x0960 [0x01] GOTO 0x098B
102: 0x0963 [0x02] IF !(ExtData[1]->WorkLocal[5] == 2*) GOTO 0x0977
103: 0x096B [0x4A] Tenacious Fool, L.C. (ID: 17167170/0x0105F342) looks at LocalPlayer
104: 0x0974 [0x01] GOTO 0x098B
105: 0x0977 [0x02] IF !(ExtData[1]->WorkLocal[5] == 3*) GOTO 0x098B
106: 0x097F [0x4A] Mhik Liusihlo, M.C. (ID: 17167171/0x0105F343) looks at LocalPlayer
107: 0x0988 [0x01] GOTO 0x098B

SUBROUTINE_098B:
108: 0x098B [0x1B] RETURN

SUBROUTINE_098C:
109: 0x098C [0x02] IF !(ExtData[1]->WorkLocal[5] == 1*) GOTO 0x099F
110: 0x0994 [0x2B] Madelleon, R.K. (ID: 17167169/0x0105F341) [7619*]:
    → "Ah, you must be <Player>. We've been expecting you."
111: 0x099B [0x23] WAIT_FOR_DIALOG_INTERACTION
112: 0x099C [0x01] GOTO 0x09C5
113: 0x099F [0x02] IF !(ExtData[1]->WorkLocal[5] == 2*) GOTO 0x09B2
114: 0x09A7 [0x2B] Tenacious Fool, L.C. (ID: 17167170/0x0105F342) [7619*]:
    → "Ah, you must be <Player>. We've been expecting you."
115: 0x09AE [0x23] WAIT_FOR_DIALOG_INTERACTION
116: 0x09AF [0x01] GOTO 0x09C5
117: 0x09B2 [0x02] IF !(ExtData[1]->WorkLocal[5] == 3*) GOTO 0x09C5
118: 0x09BA [0x2B] Mhik Liusihlo, M.C. (ID: 17167171/0x0105F343) [7619*]:
    → "Ah, you must be <Player>. We've been expecting you."
119: 0x09C1 [0x23] WAIT_FOR_DIALOG_INTERACTION
120: 0x09C2 [0x01] GOTO 0x09C5

SUBROUTINE_09C5:
121: 0x09C5 [0x1B] RETURN

SUBROUTINE_09C6:
122: 0x09C6 [0x02] IF !(ExtData[1]->WorkLocal[5] == 1*) GOTO 0x09D9
123: 0x09CE [0x2B] Madelleon, R.K. (ID: 17167169/0x0105F341) [7620*]:
    → "The delivery took you $3 [hour/hours] ($4 [minute/minutes] and $5 [second/seconds] Earth time)."
124: 0x09D5 [0x23] WAIT_FOR_DIALOG_INTERACTION
125: 0x09D6 [0x01] GOTO 0x09FF
126: 0x09D9 [0x02] IF !(ExtData[1]->WorkLocal[5] == 2*) GOTO 0x09EC
127: 0x09E1 [0x2B] Tenacious Fool, L.C. (ID: 17167170/0x0105F342) [7620*]:
    → "The delivery took you $3 [hour/hours] ($4 [minute/minutes] and $5 [second/seconds] Earth time)."
128: 0x09E8 [0x23] WAIT_FOR_DIALOG_INTERACTION
129: 0x09E9 [0x01] GOTO 0x09FF
130: 0x09EC [0x02] IF !(ExtData[1]->WorkLocal[5] == 3*) GOTO 0x09FF
131: 0x09F4 [0x2B] Mhik Liusihlo, M.C. (ID: 17167171/0x0105F343) [7620*]:
    → "The delivery took you $3 [hour/hours] ($4 [minute/minutes] and $5 [second/seconds] Earth time)."
132: 0x09FB [0x23] WAIT_FOR_DIALOG_INTERACTION
133: 0x09FC [0x01] GOTO 0x09FF

SUBROUTINE_09FF:
134: 0x09FF [0x1B] RETURN

SUBROUTINE_0A00:
135: 0x0A00 [0x02] IF !(ExtData[1]->WorkLocal[5] == 1*) GOTO 0x0A13
136: 0x0A08 [0x2B] Madelleon, R.K. (ID: 17167169/0x0105F341) [7622*]:
    → "While you were dawdling your way here, a separate shipment of construction materials was delivered to us. We shan't be requiring anymore."
137: 0x0A0F [0x23] WAIT_FOR_DIALOG_INTERACTION
138: 0x0A10 [0x01] GOTO 0x0A39
139: 0x0A13 [0x02] IF !(ExtData[1]->WorkLocal[5] == 2*) GOTO 0x0A26
140: 0x0A1B [0x2B] Tenacious Fool, L.C. (ID: 17167170/0x0105F342) [7622*]:
    → "While you were dawdling your way here, a separate shipment of construction materials was delivered to us. We shan't be requiring anymore."
141: 0x0A22 [0x23] WAIT_FOR_DIALOG_INTERACTION
142: 0x0A23 [0x01] GOTO 0x0A39
143: 0x0A26 [0x02] IF !(ExtData[1]->WorkLocal[5] == 3*) GOTO 0x0A39
144: 0x0A2E [0x2B] Mhik Liusihlo, M.C. (ID: 17167171/0x0105F343) [7622*]:
    → "While you were dawdling your way here, a separate shipment of construction materials was delivered to us. We shan't be requiring anymore."
145: 0x0A35 [0x23] WAIT_FOR_DIALOG_INTERACTION
146: 0x0A36 [0x01] GOTO 0x0A39

SUBROUTINE_0A39:
147: 0x0A39 [0x1B] RETURN

SUBROUTINE_0A3A:
148: 0x0A3A [0x02] IF !(ExtData[1]->WorkLocal[5] == 1*) GOTO 0x0A4D
149: 0x0A42 [0x2B] Madelleon, R.K. (ID: 17167169/0x0105F341) [7623*]:
    → "I commend you on your expeditiousness. Thanks to you, the construction work on our provision storehouse here can proceed as planned."
150: 0x0A49 [0x23] WAIT_FOR_DIALOG_INTERACTION
151: 0x0A4A [0x01] GOTO 0x0A73
152: 0x0A4D [0x02] IF !(ExtData[1]->WorkLocal[5] == 2*) GOTO 0x0A60
153: 0x0A55 [0x2B] Tenacious Fool, L.C. (ID: 17167170/0x0105F342) [7623*]:
    → "I commend you on your expeditiousness. Thanks to you, the construction work on our provision storehouse here can proceed as planned."
154: 0x0A5C [0x23] WAIT_FOR_DIALOG_INTERACTION
155: 0x0A5D [0x01] GOTO 0x0A73
156: 0x0A60 [0x02] IF !(ExtData[1]->WorkLocal[5] == 3*) GOTO 0x0A73
157: 0x0A68 [0x2B] Mhik Liusihlo, M.C. (ID: 17167171/0x0105F343) [7623*]:
    → "I commend you on your expeditiousness. Thanks to you, the construction work on our provision storehouse here can proceed as planned."
158: 0x0A6F [0x23] WAIT_FOR_DIALOG_INTERACTION
159: 0x0A70 [0x01] GOTO 0x0A73

SUBROUTINE_0A73:
160: 0x0A73 [0x1B] RETURN

SUBROUTINE_0A74:
161: 0x0A74 [0x02] IF !(ExtData[1]->WorkLocal[5] == 1*) GOTO 0x0A87
162: 0x0A7C [0x2B] Madelleon, R.K. (ID: 17167169/0x0105F341) [7624*]:
    → "So you have something to aspire to, the quickest delivery thus far was made by %0. That indefatigable soldier traversed the same course as you in just $3 [hour/hours] ($4 [minute/minutes] and $5 [second/seconds] Earth time)."
163: 0x0A83 [0x23] WAIT_FOR_DIALOG_INTERACTION
164: 0x0A84 [0x01] GOTO 0x0AAD
165: 0x0A87 [0x02] IF !(ExtData[1]->WorkLocal[5] == 2*) GOTO 0x0A9A
166: 0x0A8F [0x2B] Tenacious Fool, L.C. (ID: 17167170/0x0105F342) [7624*]:
    → "So you have something to aspire to, the quickest delivery thus far was made by %0. That indefatigable soldier traversed the same course as you in just $3 [hour/hours] ($4 [minute/minutes] and $5 [second/seconds] Earth time)."
167: 0x0A96 [0x23] WAIT_FOR_DIALOG_INTERACTION
168: 0x0A97 [0x01] GOTO 0x0AAD
169: 0x0A9A [0x02] IF !(ExtData[1]->WorkLocal[5] == 3*) GOTO 0x0AAD
170: 0x0AA2 [0x2B] Mhik Liusihlo, M.C. (ID: 17167171/0x0105F343) [7624*]:
    → "So you have something to aspire to, the quickest delivery thus far was made by %0. That indefatigable soldier traversed the same course as you in just $3 [hour/hours] ($4 [minute/minutes] and $5 [second/seconds] Earth time)."
171: 0x0AA9 [0x23] WAIT_FOR_DIALOG_INTERACTION
172: 0x0AAA [0x01] GOTO 0x0AAD

SUBROUTINE_0AAD:
173: 0x0AAD [0x1B] RETURN

SUBROUTINE_0AAE:
174: 0x0AAE [0x02] IF !(ExtData[1]->WorkLocal[5] == 1*) GOTO 0x0AC1
175: 0x0AB6 [0x2B] Madelleon, R.K. (ID: 17167169/0x0105F341) [7625*]:
    → "You're the current quickest delivery record holder, with a lightning-fast time of $3 [hour/hours] ($4 [minute/minutes] and $5 [second/seconds] Earth time). But that's no excuse to slack off, you hear?"
176: 0x0ABD [0x23] WAIT_FOR_DIALOG_INTERACTION
177: 0x0ABE [0x01] GOTO 0x0AE7
178: 0x0AC1 [0x02] IF !(ExtData[1]->WorkLocal[5] == 2*) GOTO 0x0AD4
179: 0x0AC9 [0x2B] Tenacious Fool, L.C. (ID: 17167170/0x0105F342) [7625*]:
    → "You're the current quickest delivery record holder, with a lightning-fast time of $3 [hour/hours] ($4 [minute/minutes] and $5 [second/seconds] Earth time). But that's no excuse to slack off, you hear?"
180: 0x0AD0 [0x23] WAIT_FOR_DIALOG_INTERACTION
181: 0x0AD1 [0x01] GOTO 0x0AE7
182: 0x0AD4 [0x02] IF !(ExtData[1]->WorkLocal[5] == 3*) GOTO 0x0AE7
183: 0x0ADC [0x2B] Mhik Liusihlo, M.C. (ID: 17167171/0x0105F343) [7625*]:
    → "You're the current quickest delivery record holder, with a lightning-fast time of $3 [hour/hours] ($4 [minute/minutes] and $5 [second/seconds] Earth time). But that's no excuse to slack off, you hear?"
184: 0x0AE3 [0x23] WAIT_FOR_DIALOG_INTERACTION
185: 0x0AE4 [0x01] GOTO 0x0AE7

SUBROUTINE_0AE7:
186: 0x0AE7 [0x1B] RETURN

SUBROUTINE_0AE8:
187: 0x0AE8 [0x02] IF !(ExtData[1]->WorkLocal[5] == 1*) GOTO 0x0AFF
188: 0x0AF0 [0x6E] Madelleon, R.K. (ID: 17167169/0x0105F341) uses emote 2*
189: 0x0AF7 [0x99] Wait for Madelleon, R.K. (ID: 17167169/0x0105F341) animation to complete
190: 0x0AFC [0x01] GOTO 0x0B2D
191: 0x0AFF [0x02] IF !(ExtData[1]->WorkLocal[5] == 2*) GOTO 0x0B16
192: 0x0B07 [0x6E] Tenacious Fool, L.C. (ID: 17167170/0x0105F342) uses emote 258*
193: 0x0B0E [0x99] Wait for Tenacious Fool, L.C. (ID: 17167170/0x0105F342) animation to complete
194: 0x0B13 [0x01] GOTO 0x0B2D
195: 0x0B16 [0x02] IF !(ExtData[1]->WorkLocal[5] == 3*) GOTO 0x0B2D
196: 0x0B1E [0x6E] Mhik Liusihlo, M.C. (ID: 17167171/0x0105F343) uses emote 514*
197: 0x0B25 [0x99] Wait for Mhik Liusihlo, M.C. (ID: 17167171/0x0105F343) animation to complete
198: 0x0B2A [0x01] GOTO 0x0B2D

SUBROUTINE_0B2D:
199: 0x0B2D [0x1B] RETURN

SUBROUTINE_0B2E:
200: 0x0B2E [0x45] LOAD_SCHEDULED_TASK: Load scheduler "c095" with entities [LocalPlayer, LocalPlayer], work=[342*, 0*]
201: 0x0B3F [0x1B] RETURN

SUBROUTINE_0B40:
202: 0x0B40 [0x52] END_LOAD_SCHEDULER: End scheduler "c095" with entities [LocalPlayer, LocalPlayer], work=342*
203: 0x0B4F [0x1B] RETURN
```
