# Event 65535

## Metadata

| Field           | Value    |
|-----------------|----------|
| Event Index     | 12/89    |
| Offset          | 0x0103   |
| Data Size       | 74 bytes |
| Calculated Size | 74 bytes |
| Instructions    | 9        |

```
      00 01 02 03 04 05 06 07  08 09 0A 0B 0C 0D 0E 0F
      -- -- -- -- -- -- -- --  -- -- -- -- -- -- -- --
0100:          7C 00 F8 FF FF  7F 81 00 F8 FF FF 7F 5B     |...........[
0110: 02 80 F8 FF FF 7F F8 FF  FF 7F 62 69 6B 30 53 F8  ..........bik0S.
0120: FF FF 7F F8 FF FF 7F 62  69 6B 30 7C 01 F8 FF FF  .......bik0|....
0130: 7F 81 01 F8 FF FF 7F 81  00 F8 FF FF 7F 5B 00 80  .............[..
0140: F8 FF FF 7F F8 FF FF 7F  61 77 77 30 00           ........aww0.   
```

## Opcodes

```
  0: 0x0103 [0x7C] EventEntity->Render.Flags2 |= 0x00
  1: 0x0109 [0x81] SET_ENTITY_BLINKING(blink_flag=0x00, entity=EventEntity)
  2: 0x010F [0x5B] LOAD_EXT_SCHEDULER(work_offset=81*, entity1=EventEntity, entity2=EventEntity, action="bik0")
  3: 0x011E [0x53] WAIT_SCHEDULER_TASK(entity1=EventEntity, entity2=EventEntity, action_id="bik0")
  4: 0x012B [0x7C] EventEntity->Render.Flags2 |= 0x01
  5: 0x0131 [0x81] SET_ENTITY_BLINKING(blink_flag=0x01, entity=EventEntity)
  6: 0x0137 [0x81] SET_ENTITY_BLINKING(blink_flag=0x00, entity=EventEntity)
  7: 0x013D [0x5B] LOAD_EXT_SCHEDULER(work_offset=80*, entity1=EventEntity, entity2=EventEntity, action="aww0")
  8: 0x014C [0x00] END_REQSTACK()
```
