# Event 65535

## Metadata

| Field           | Value    |
|-----------------|----------|
| Event Index     | 54/89    |
| Offset          | 0x03E9   |
| Data Size       | 50 bytes |
| Calculated Size | 50 bytes |
| Instructions    | 11       |

```
      00 01 02 03 04 05 06 07  08 09 0A 0B 0C 0D 0E 0F
      -- -- -- -- -- -- -- --  -- -- -- -- -- -- -- --
03E0:                             4A 56 00 0F 01 57 00           JV...W.
03F0: 0F 01 4A 56 00 0F 01 55  00 0F 01 1C 41 80 4A 56  ..JV...U....A.JV
0400: 00 0F 01 57 00 0F 01 1C  41 80 32 13 80 1F 00 42  ...W....A.2....B
0410: 80 43 80 44 80 1F 01 6F  22 01 00                 .C.D...o"..     
```

## Opcodes

```
  0: 0x03E9 [0x4A] Yafa Yaa (ID: 17760342/0x010F0056) looks at Pyo Nzon (ID: 17760343/0x010F0057)
  1: 0x03F2 [0x4A] Yafa Yaa (ID: 17760342/0x010F0056) looks at Pichichi (ID: 17760341/0x010F0055)
  2: 0x03FB [0x1C] WAIT(60* ticks)
  3: 0x03FE [0x4A] Yafa Yaa (ID: 17760342/0x010F0056) looks at Pyo Nzon (ID: 17760343/0x010F0057)
  4: 0x0407 [0x1C] WAIT(60* ticks)
  5: 0x040A [0x32] ExtData[1]->MainSpeed = 40* * 0.1
  6: 0x040D [0x1F] MOVE_ENTITY: EventEntity moves to X=-37.973*, Z=244.602*, Y=-12.499*
  7: 0x0415 [0x1F] MOVE_ENTITY: Update entity position (mode=1)
  8: 0x0417 [0x6F] WAIT_FRAME_DELAY: Yield until WaitTime reaches zero
  9: 0x0418 [0x22] ENTITY_HIDE_FLAG(enabled=0x01)
 10: 0x041A [0x00] END_REQSTACK()
```
