# Event 65535

## Metadata

| Field           | Value    |
|-----------------|----------|
| Event Index     | 53/89    |
| Offset          | 0x03AE   |
| Data Size       | 59 bytes |
| Calculated Size | 59 bytes |
| Instructions    | 9        |

```
      00 01 02 03 04 05 06 07  08 09 0A 0B 0C 0D 0E 0F
      -- -- -- -- -- -- -- --  -- -- -- -- -- -- -- --
03A0:                                            1C 38                .8
03B0: 80 45 39 80 09 00 0F 01  09 00 0F 01 73 30 34 32  .E9.........s042
03C0: 3A 80 37 3B 80 3C 80 2A  80 3D 80 32 13 80 1F 00  :.7;.<.*.=.2....
03D0: 3E 80 3F 80 40 80 1F 01  6F 55 39 80 09 00 0F 01  >.?.@...oU9.....
03E0: 09 00 0F 01 73 30 34 32  00                       ....s042.       
```

## Opcodes

```
  0: 0x03AE [0x1C] WAIT(220* ticks)
  1: 0x03B1 [0x45] LOAD_SCHEDULED_TASK: Load scheduler "s042" with entities [PRODUCER (ID: 17760265/0x010F0009), PRODUCER (ID: 17760265/0x010F0009)], work=[139*, 0*]
  2: 0x03C2 [0x37] UPDATE_EVENT_POSITION_AND_DIR: x=-25.544*, z=261.180*, y=-12.999*, direction=67.2°*
  3: 0x03CB [0x32] ExtData[1]->MainSpeed = 40* * 0.1
  4: 0x03CE [0x1F] MOVE_ENTITY: EventEntity moves to X=-25.429*, Z=254.825*, Y=-12.411*
  5: 0x03D6 [0x1F] MOVE_ENTITY: Update entity position (mode=1)
  6: 0x03D8 [0x6F] WAIT_FRAME_DELAY: Yield until WaitTime reaches zero
  7: 0x03D9 [0x55] WAIT_LOAD_SCHEDULER: Wait for scheduler "s042" with entities [PRODUCER (ID: 17760265/0x010F0009), PRODUCER (ID: 17760265/0x010F0009)], work=139*
  8: 0x03E8 [0x00] END_REQSTACK()
```
