# Event 25

## Metadata

| Field           | Value    |
|-----------------|----------|
| Event Index     | 5/6      |
| Offset          | 0x0021   |
| Data Size       | 70 bytes |
| Calculated Size | 70 bytes |
| Instructions    | 13       |

```
      00 01 02 03 04 05 06 07  08 09 0A 0B 0C 0D 0E 0F
      -- -- -- -- -- -- -- --  -- -- -- -- -- -- -- --
0020:    42 1E F0 FF FF 7F 6F  70 45 02 80 F0 FF FF 7F   B.....opE......
0030: F0 FF FF 7F 66 64 6F 31  03 80 1C 04 80 45 02 80  ....fdo1.....E..
0040: F0 FF FF 7F F0 FF FF 7F  66 64 69 31 03 80 1D 05  ........fdi1....
0050: 80 23 45 06 80 F0 FF FF  7F F0 FF FF 7F 71 73 74  .#E..........qst
0060: 63 03 80 20 00 21 00                              c.. .!.         
```

## Opcodes

```
  0: 0x0021 [0x42] SET_CLI_EVENT_CANCEL_DATA()
  1: 0x0022 [0x1E] EventEntity looks at LocalPlayer and starts talking
  2: 0x0027 [0x6F] WAIT_FRAME_DELAY: Yield until WaitTime reaches zero
  3: 0x0028 [0x70] WAIT_ENTITY_RENDER_FLAG: Wait while EventEntity->Render.Flags3 bit 2 is set (cancel turn if not)
  4: 0x0029 [0x45] LOAD_SCHEDULED_TASK: Load scheduler "fdo1" with entities [LocalPlayer, LocalPlayer], work=[200*, 0*]
  5: 0x003A [0x1C] WAIT(120* ticks)
  6: 0x003D [0x45] LOAD_SCHEDULED_TASK: Load scheduler "fdi1" with entities [LocalPlayer, LocalPlayer], work=[200*, 0*]
  7: 0x004E [0x1D] PRINT_EVENT_MESSAGE(message_id=7436*)
    → "...Done...\u007F1\u0000\u0007"
  8: 0x0051 [0x23] WAIT_FOR_DIALOG_INTERACTION
  9: 0x0052 [0x45] LOAD_SCHEDULED_TASK: Load scheduler "qstc" with entities [LocalPlayer, LocalPlayer], work=[201*, 0*]
 10: 0x0063 [0x20] SET_CLI_EVENT_UC_FLAG: Unlock player control
 11: 0x0065 [0x21] END_EVENT
 12: 0x0066 [0x00] END_REQSTACK()
```
