# Event 65535

## Metadata

| Field           | Value    |
|-----------------|----------|
| Event Index     | 15/20    |
| Offset          | 0x0099   |
| Data Size       | 67 bytes |
| Calculated Size | 67 bytes |
| Instructions    | 10       |

```
      00 01 02 03 04 05 06 07  08 09 0A 0B 0C 0D 0E 0F
      -- -- -- -- -- -- -- --  -- -- -- -- -- -- -- --
0090:                             33 01 3B F8 FF FF 7F           3.;....
00A0: 01 00 02 00 03 00 06 06  00 16 05 00 06 00 04 80  ................
00B0: 07 03 00 05 00 3A F8 FF  FF 7F 04 00 37 01 00 02  .....:......7...
00C0: 00 03 00 04 00 07 06 00  05 80 1C 01 80 01 A9 00  ................
00D0: 02 06 00 06 80 04 DB 00  06 06 00 00              ............    
```

## Opcodes

```
  0: 0x0099 [0x33] EventEntity->Render.Flags0 |= 0x200000 // Bit 21 (flag=0x01)
  1: 0x009B [0x3B] GET_ENTITY_POSITION(entity=EventEntity, x_destination=ExtData[1]->WorkLocal[1], y_destination=ExtData[1]->WorkLocal[2], z_destination=ExtData[1]->WorkLocal[3])
  2: 0x00A6 [0x06] ExtData[1]->WorkLocal[6] = 0
  3: 0x00A9 [0x16] ExtData[1]->WorkLocal[5] = sin(ExtData[1]->WorkLocal[6]) * 3*
  4: 0x00B0 [0x07] ExtData[1]->WorkLocal[3] += ExtData[1]->WorkLocal[5]
  5: 0x00B5 [0x3A] CONVERT_YAW_TO_BYTE(entity=EventEntity, result_destination=ExtData[1]->WorkLocal[4])
  6: 0x00BC [0x37] UPDATE_EVENT_POSITION_AND_DIR: x=ExtData[1]->WorkLocal[1], z=ExtData[1]->WorkLocal[2], y=ExtData[1]->WorkLocal[3], direction=ExtData[1]->WorkLocal[4]
  7: 0x00C5 [0x07] ExtData[1]->WorkLocal[6] += 64*
  8: 0x00CA [0x1C] WAIT(1* ticks)
  9: 0x00CD [0x01] GOTO 0x00A9
```

## Data or dead code:

```
# Dead code (unreachable instructions):
     0x00D0 [0x02] IF !(ExtData[1]->WorkLocal[6] < 2048*) GOTO 0x00DB
     0x00D8 [0x06] ExtData[1]->WorkLocal[6] = 0
     0x00DB [0x00] END_REQSTACK()
```