# Event 573

## Metadata

| Field           | Value    |
|-----------------|----------|
| Event Index     | 6/6      |
| Offset          | 0x015B   |
| Data Size       | 46 bytes |
| Calculated Size | 46 bytes |
| Instructions    | 14       |

```
      00 01 02 03 04 05 06 07  08 09 0A 0B 0C 0D 0E 0F
      -- -- -- -- -- -- -- --  -- -- -- -- -- -- -- --
0150:                                   42 20 01 1E F0             B ...
0160: FF FF 7F 6F 70 5B 00 80  F8 FF FF 7F F8 FF FF 7F  ...op[..........
0170: 74 6C 6B 30 03 02 10 04  80 1D 11 80 23 5E 69 64  tlk0........#^id
0180: 6C 30 1C 02 80 20 00 21  00                       l0... .!.       
```

## Opcodes

```
  0: 0x015B [0x42] SET_CLI_EVENT_CANCEL_DATA()
  1: 0x015C [0x20] SET_CLI_EVENT_UC_FLAG: Lock player control
  2: 0x015E [0x1E] EventEntity looks at LocalPlayer and starts talking
  3: 0x0163 [0x6F] WAIT_FRAME_DELAY: Yield until WaitTime reaches zero
  4: 0x0164 [0x70] WAIT_ENTITY_RENDER_FLAG: Wait while EventEntity->Render.Flags3 bit 2 is set (cancel turn if not)
  5: 0x0165 [0x5B] LOAD_EXT_SCHEDULER(work_offset=35*, entity1=EventEntity, entity2=EventEntity, action="tlk0")
  6: 0x0174 [0x03] Work_Zone[2] = 884*
  7: 0x0179 [0x1D] PRINT_EVENT_MESSAGE(message_id=7996*)
    → "What's this, then? I need three \u0001\u0005%\u0002\u0000\u0000\u0000 before I'll buy them off you. Store policy, you see.\u007F1\u0000\u0007"
  8: 0x017C [0x23] WAIT_FOR_DIALOG_INTERACTION
  9: 0x017D [0x5E] EventEntity goes idle (kills current action) (animation: "idl0")
 10: 0x0182 [0x1C] WAIT(30* ticks)
 11: 0x0185 [0x20] SET_CLI_EVENT_UC_FLAG: Unlock player control
 12: 0x0187 [0x21] END_EVENT
 13: 0x0188 [0x00] END_REQSTACK()
```
