# Event 65535

## Metadata

| Field           | Value    |
|-----------------|----------|
| Event Index     | 5/7      |
| Offset          | 0x001B   |
| Data Size       | 89 bytes |
| Calculated Size | 89 bytes |
| Instructions    | 9        |

```
      00 01 02 03 04 05 06 07  08 09 0A 0B 0C 0D 0E 0F
      -- -- -- -- -- -- -- --  -- -- -- -- -- -- -- --
0010:                                   73 01 80 F8 FF             s....
0020: FF 7F E7 E1 07 01 73 01  80 F8 FF FF 7F E8 E1 07  ......s.........
0030: 01 73 01 80 F8 FF FF 7F  E9 E1 07 01 73 01 80 F8  .s..........s...
0040: FF FF 7F EA E1 07 01 73  01 80 F8 FF FF 7F EB E1  .......s........
0050: 07 01 73 01 80 F8 FF FF  7F EC E1 07 01 73 01 80  ..s..........s..
0060: F8 FF FF 7F ED E1 07 01  73 01 80 F8 FF FF 7F EE  ........s.......
0070: E1 07 01 00                                       ....            
```

## Opcodes

```
  0: 0x001B [0x73] EventEntity casts magic 512* on 1 (ID: 17293799/0x0107E1E7)
  1: 0x0026 [0x73] EventEntity casts magic 512* on 2 (ID: 17293800/0x0107E1E8)
  2: 0x0031 [0x73] EventEntity casts magic 512* on 3 (ID: 17293801/0x0107E1E9)
  3: 0x003C [0x73] EventEntity casts magic 512* on 4 (ID: 17293802/0x0107E1EA)
  4: 0x0047 [0x73] EventEntity casts magic 512* on 5 (ID: 17293803/0x0107E1EB)
  5: 0x0052 [0x73] EventEntity casts magic 512* on 6 (ID: 17293804/0x0107E1EC)
  6: 0x005D [0x73] EventEntity casts magic 512* on 7 (ID: 17293805/0x0107E1ED)
  7: 0x0068 [0x73] EventEntity casts magic 512* on 8 (ID: 17293806/0x0107E1EE)
  8: 0x0073 [0x00] END_REQSTACK()
```
