# Event 3023

## Metadata

| Field           | Value    |
|-----------------|----------|
| Event Index     | 6/23     |
| Offset          | 0x016B   |
| Data Size       | 53 bytes |
| Calculated Size | 53 bytes |
| Instructions    | 11       |

```
      00 01 02 03 04 05 06 07  08 09 0A 0B 0C 0D 0E 0F
      -- -- -- -- -- -- -- --  -- -- -- -- -- -- -- --
0160:                                   1E F0 FF FF 7F             .....
0170: 6F 70 66 00 80 F8 FF FF  7F F8 FF FF 7F 74 6C 6B  opf..........tlk
0180: 30 03 02 10 09 80 03 03  10 0A 80 1D 1B 80 23 66  0.............#f
0190: 00 80 F8 FF FF 7F F8 FF  FF 7F 73 74 64 30 21 00  ..........std0!.
```

## Opcodes

```
  0: 0x016B [0x1E] EventEntity looks at LocalPlayer and starts talking
  1: 0x0170 [0x6F] WAIT_FRAME_DELAY: Yield until WaitTime reaches zero
  2: 0x0171 [0x70] WAIT_ENTITY_RENDER_FLAG: Wait while EventEntity->Render.Flags3 bit 2 is set (cancel turn if not)
  3: 0x0172 [0x66] LOAD_EXT_SCHEDULER_MAIN(work_offset=19*, entity1=EventEntity, entity2=EventEntity, action="tlk0")
  4: 0x0181 [0x03] Work_Zone[2] = 5187*
  5: 0x0186 [0x03] Work_Zone[3] = 2*
  6: 0x018B [0x1D] PRINT_EVENT_MESSAGE(message_id=8061*)
    → "Remember, I won't have enough until you bring me 
\u0001 \u0001	)\u0002\u0001\u0000\u0000\u0002\u0000\u0000\u0000.\u007F1\u0000\u0007"
  7: 0x018E [0x23] WAIT_FOR_DIALOG_INTERACTION
  8: 0x018F [0x66] LOAD_EXT_SCHEDULER_MAIN(work_offset=19*, entity1=EventEntity, entity2=EventEntity, action="std0")
  9: 0x019E [0x21] END_EVENT
 10: 0x019F [0x00] END_REQSTACK()
```
