# Event 5108

## Metadata

| Field           | Value    |
|-----------------|----------|
| Event Index     | 19/23    |
| Offset          | 0x01F4   |
| Data Size       | 61 bytes |
| Calculated Size | 61 bytes |
| Instructions    | 13       |

```
      00 01 02 03 04 05 06 07  08 09 0A 0B 0C 0D 0E 0F
      -- -- -- -- -- -- -- --  -- -- -- -- -- -- -- --
01F0:             1E F0 FF FF  7F 6F 70 4A F0 FF FF 7F      .....opJ....
0200: F8 FF FF 7F 6F 76 F0 FF  FF 7F 66 00 80 F8 FF FF  ....ov....f.....
0210: 7F F8 FF FF 7F 74 6C 6B  30 1D 1C 80 23 66 00 80  .....tlk0...#f..
0220: F8 FF FF 7F F8 FF FF 7F  73 74 64 30 1C 1D 80 21  ........std0...!
0230: 00                                                .               
```

## Opcodes

```
  0: 0x01F4 [0x1E] EventEntity looks at LocalPlayer and starts talking
  1: 0x01F9 [0x6F] WAIT_FRAME_DELAY: Yield until WaitTime reaches zero
  2: 0x01FA [0x70] WAIT_ENTITY_RENDER_FLAG: Wait while EventEntity->Render.Flags3 bit 2 is set (cancel turn if not)
  3: 0x01FB [0x4A] LocalPlayer looks at EventEntity
  4: 0x0204 [0x6F] WAIT_FRAME_DELAY: Yield until WaitTime reaches zero
  5: 0x0205 [0x76] CHECK_ENTITY_RENDER_FLAGS: Wait until LocalPlayer Render.Flags0 and Render.Flags3 conditions are met
  6: 0x020A [0x66] LOAD_EXT_SCHEDULER_MAIN(work_offset=19*, entity1=EventEntity, entity2=EventEntity, action="tlk0")
  7: 0x0219 [0x1D] PRINT_EVENT_MESSAGE(message_id=11040*)
    → "Lately, I feel like someone is constantly undressing me with their eyes while I work. It's so disturbing.\u007F1\u0000\u0007"
  8: 0x021C [0x23] WAIT_FOR_DIALOG_INTERACTION
  9: 0x021D [0x66] LOAD_EXT_SCHEDULER_MAIN(work_offset=19*, entity1=EventEntity, entity2=EventEntity, action="std0")
 10: 0x022C [0x1C] WAIT(30* ticks)
 11: 0x022F [0x21] END_EVENT
 12: 0x0230 [0x00] END_REQSTACK()
```
