# 17797231 - Fyi Chalmwoh

## Common Data

| Field            | Value            |
|------------------|------------------|
| Zone             | Mhaura (ID: 249) |
| Block Size       | 5540 bytes       |
| Total Events     | 13               |
| References Count | 99               |

## List of Events

| Event ID              | Entrypoint   |   Size |   Instructions |
|-----------------------|--------------|--------|----------------|
| [65535](#event-65535) | 0x0000       |    103 |             11 |
| [305](#event-305)     | 0x0067       |    170 |             35 |
| [306](#event-306)     | 0x0111       |     30 |              8 |
| [307](#event-307)     | 0x012F       |     53 |             13 |
| [308](#event-308)     | 0x0164       |     30 |              8 |
| [309](#event-309)     | 0x0182       |     31 |              9 |
| [310](#event-310)     | 0x01A1       |     11 |              5 |
| [311](#event-311)     | 0x01AC       |    109 |             24 |
| [312](#event-312)     | 0x0219       |     11 |              5 |
| [318](#event-318)     | 0x0224       |    376 |             91 |
| [319](#event-319)     | 0x039C       |    386 |             89 |
| [321](#event-321)     | 0x051E       |   3765 |            719 |
| [320](#event-320)     | 0x13D3       |      1 |              1 |

## DAT References (imed_data)

|   Index | Hex Value   |   Dec Value |
|---------|-------------|-------------|
|       0 | 0x00C8      |         200 |
|       1 | 0x0000      |           0 |
|       2 | 0x01E8      |         488 |
|       3 | 0x0003      |           3 |
|       4 | 0x1D86      |        7558 |
|       5 | 0x0032      |          50 |
|       6 | 0x1D87      |        7559 |
|       7 | 0x1D88      |        7560 |
|       8 | 0x1D89      |        7561 |
|       9 | 0x1D8A      |        7562 |
|      10 | 0x1D8B      |        7563 |
|      11 | 0x1D8C      |        7564 |
|      12 | 0x1D8D      |        7565 |
|      13 | 0x1D8E      |        7566 |
|      14 | 0x1D8F      |        7567 |
|      15 | 0x1D90      |        7568 |
|      16 | 0x1D91      |        7569 |
|      17 | 0x1D92      |        7570 |
|      18 | 0x1D93      |        7571 |
|      19 | 0x1D94      |        7572 |
|      20 | 0x1D95      |        7573 |
|      21 | 0x1D96      |        7574 |
|      22 | 0x1D97      |        7575 |
|      23 | 0x1D98      |        7576 |
|      24 | 0x00C9      |         201 |
|      25 | 0x1D99      |        7577 |
|      26 | 0x1DAF      |        7599 |
|      27 | 0x1DB0      |        7600 |
|      28 | 0x1DB1      |        7601 |
|      29 | 0x1DB2      |        7602 |
|      30 | 0x1DB3      |        7603 |
|      31 | 0x1DB4      |        7604 |
|      32 | 0x0002      |           2 |
|      33 | 0x1DB5      |        7605 |
|      34 | 0x0100      |         256 |
|      35 | 0x0101      |         257 |
|      36 | 0x0102      |         258 |
|      37 | 0x0103      |         259 |
|      38 | 0x0104      |         260 |
|      39 | 0x0105      |         261 |
|      40 | 0x0106      |         262 |
|      41 | 0x0107      |         263 |
|      42 | 0x1DB6      |        7606 |
|      43 | 0x0001      |           1 |
|      44 | 0x0004      |           4 |
|      45 | 0x0005      |           5 |
|      46 | 0x0006      |           6 |
|      47 | 0x0007      |           7 |
|      48 | 0x0008      |           8 |
|      49 | 0x1DBB      |        7611 |
|      50 | 0x1DBC      |        7612 |
|      51 | 0x1DBE      |        7614 |
|      52 | 0x1DD1      |        7633 |
|      53 | 0x1DBF      |        7615 |
|      54 | 0x1DBD      |        7613 |
|      55 | 0x1DD0      |        7632 |
|      56 | 0x02C9      |         713 |
|      57 | 0x1DD8      |        7640 |
|      58 | 0x1DD9      |        7641 |
|      59 | 0x1DDA      |        7642 |
|      60 | 0x1DDB      |        7643 |
|      61 | 0x1DDC      |        7644 |
|      62 | 0x1DDD      |        7645 |
|      63 | 0x1DC9      |        7625 |
|      64 | 0x1DCA      |        7626 |
|      65 | 0x1DCB      |        7627 |
|      66 | 0x1DCC      |        7628 |
|      67 | 0x1DCD      |        7629 |
|      68 | 0x00FF      |         255 |
|      69 | 0x1DDE      |        7646 |
|      70 | 0x1DCE      |        7630 |
|      71 | 0x1DCF      |        7631 |
|      72 | 0x1DD2      |        7634 |
|      73 | 0xFFFFFFFF  |  4294967295 |
|      74 | 0x000B      |          11 |
|      75 | 0x000C      |          12 |
|      76 | 0x000D      |          13 |
|      77 | 0x000E      |          14 |
|      78 | 0x000F      |          15 |
|      79 | 0x0010      |          16 |
|      80 | 0x0011      |          17 |
|      81 | 0x0012      |          18 |
|      82 | 0x1DB9      |        7609 |
|      83 | 0x1DB7      |        7607 |
|      84 | 0x1DB8      |        7608 |
|      85 | 0x1DBA      |        7610 |
|      86 | 0x1DD3      |        7635 |
|      87 | 0x1DD4      |        7636 |
|      88 | 0x1DD6      |        7638 |
|      89 | 0x0009      |           9 |
|      90 | 0x1DD7      |        7639 |
|      91 | 0x0030      |          48 |
|      92 | 0x0031      |          49 |
|      93 | 0x0033      |          51 |
|      94 | 0x0034      |          52 |
|      95 | 0x60038     |      393272 |
|      96 | 0x0039      |          57 |
|      97 | 0x0023      |          35 |
|      98 | 0x1DD5      |        7637 |

## String References

- **7558**: Hey! You look like a well-trrraveled [guy/lady]. Have you ever heard of a thing called a mannequin?
- **7559**: You know, they're these life-sized dolls that are used to display clothes and armor. I heard that up until a few years back, you couldn't walk into a guild or tailor shop without running into one. They were all overrr the place!
- **7560**: According to my mentor, it wasn't just the looks of a mannequin that set it apart from other dolls, but the crrraftsmanship of the joints that held the parts together.
- **7561**: Supposedly, the joints were all crafted by a single master goldsmith whose skills were years ahead of her time. Thanks to her work, the mannequins could be posed in any way thinkable--they were more human than a Hume!
- **7562**: Whether it be a stiff suit of armor or a complicated tunic, there wasn't a thing that didn't look naturrral on one of those works of art. Just the thought of making one of my own gets my goldsmithing heart racing.
- **7563**: However, as you can see, there's not a mannequin to be found within five thousand malms of this place. Nobody's making 'em and nobody's using 'em. What I can't figure out is why all of 'em disappeared...
- **7564**: So! You're gonna help me find out how I can make the display dolls. Don't give me that look! You'll get your reward. How about I make you your own mannequin? How does that sound?
- **7565**: Hmm... I already checked the Weavers' Guild in Windurst and they didn't have any mannequins left...
- **7566**: But maybe they still have one lying arrround the guild in Selbina!
- **7567**: Ah-ha! So there must be some deep, darrrk reason why people stopped crafting mannequins...
- **7568**: Good work, <Player>. But I'm still not satisfied. Hearing all this talk about curses and beastmen just gets me morrre excited! Now I just have to have one of my own!
- **7569**: Looking at this catalog you brought back gives a fairrrly good idea of what a mannequin looks like, but it tells me nothing about what materials I'm gonna need.
- **7570**: I think we should go on that lead the old lady at the Weavers' Guild gave us. Go on! Get your tail over to the Carpenters' Guild in San d'Oria!
- **7571**: Diagrrrams! With these, I think I'll be able to reproduce the joints.
- **7572**: However, without the wooden body parts, we're still in the darrrk. I wonder where we could find some...
- **7573**: Unbelievable! You've found all the parts!
- **7574**: I'll start on the joints rrright away. This might take me a while, but I guarantee you won't be disappointed with the final product.
- **7575**: Ta-dah! I've done it! I've successfully reproduced the master goldsmith's finest work...well, almost. You can't actually move the joints, but the mannequin still looks great standing strrraight. And just think how marrrvelous a suit of armor will look resting on it!
- **7576**: I've learned a lot from making this, and my next work is surrre to be a masterpiece! I still have a ways to go, but soon everyone will be calling me a master goldsmith! Oh yeah, you can take this mannequin as your reward. Thanks for all your help!
- **7577**: So, how's my mannequin holding up? [He/She] looks prrretty good, doesn't [he/she]?
- **7599**: Thanks to the hard work of you adventurers, my workshop has been overrrflowing with mannequin parts. Unfortunately, as you can see, I don't have much in the way of storage space here. That's why I've decided to start putting the pieces together and sell the finished prrroducts!
- **7600**: I was thinking about asking $2 gil a mannequin. Quite a barrrgain, if you ask me.
- **7601**: What? A few yalms over your head? Well, you could always exchange your old one for one of my brand-spankin'-new masterrrpieces.
- **7602**: I'd still have to charrrge you $3 gil, though. Hey! How do you expect a lady to make a living?
- **7603**: Well, what do you say?
- **7604**: Well...? [Buy ($2 gil)./Exchange./Forget it.]
- **7605**: And which type of mannequin would you like?
- **7606**: Well...? [$0./$1./$2./$3./$4./$5./$6./$7./Never mind.]
- **7607**: Are you surrre that's the one you want?
- **7608**: Well...? [I'm sure./I don't know...]
- **7609**: Alrrright! Here you... Wait a minute. Are you trying to pull a fast one on me? That's not enough gil to feed my dog his supperrr!
- **7610**: Alrrright! Here you go. Sorry that I couldn't ship it to your Mog House.
- **7611**: Okay. Well, if you change your mind, you know where I'll be!
- **7612**: Trrrade me the goods and I'll see if it's worth exchanging. Oh, and don't forget to have your $3 gil rrready to pay the difference.
- **7613**: Hmmm... It's still in prrretty good condition. I'd have no problem exchanging this for a new mannequin...if you had the $3 gil I was asking for.
- **7614**: Hmmm... It's still in prrretty good condition. For $3 gil, you can exchange it for a new mannequin.
- **7615**: What do you say? [Let's do it./Forget it.]
- **7625**: Hey hey! It's my best customer, <Player>. No, and I'm not just saying that!
- **7626**: Thanks to you and your frrriends, my business is booming! You want a new mannequin, I have all shapes and sizes! You want to trrrade in your old mannequin? I'll give you a grrreat deal!
- **7627**: And now, for a limited time only, I'll even customize your mannequin! That's right, for a nominal fee, I'll brrring that piece of wood to life by changing its pose!
- **7628**: My price list is as follows... 1 new mannequin (without trade-in): $2 gil. 1 new mannequin (with trade-in): $3 gil. Pose change: $4 gil.
- **7629**: So, what do you say?
- **7630**: Which transaction do you request? [Nothing./Buy ($2 gil)./Trade ($3 gil)./Pose ($4 gil).]
- **7631**: Alright! Just trrrade me your mannequin and I can begin! Oh, and don't forget to be carrying the rrremarkably rrreasonable fee of $3 gil.
- **7632**: I can only accept your trrrade-in after you've paid the $3-gil difference. Don't worry, I'll be waiting rrright here for you!
- **7633**: Trrrading in your old mannequin for a new one? Rrremember, I'll need a $3-gil fee.
- **7634**: Now let's see... Which of your mannequins' poses would you like to change?
- **7635**: Ah, so you'd like to change your $0's pose. Here, now choose a new look for your companion from this list.
- **7636**: Which pose do you want? [Normal.//sit.//salute (San d'Oria).//salute (Bastok).//salute (Windurst).//hurray./Special order./None of these.]
- **7637**: Hmmm... Your mannequin will look something like this. Is that what you rrreally want?
- **7638**: Is it? [Yes./No.]
- **7639**: Okay! My work is done. Oh, and if you ever get tirrred of that pose, you know where to come!
- **7640**: Hm? Hm? Hm? Could that be what I think it is...?
- **7641**: It is! It is! A copy of $3! I've been looking all over for one of these!
- **7642**: Let's see... ... ... ...
- **7643**: ... ... Wow... I neverrr would have thought of that...
- **7644**: What? You'rrre still here? Okay, okay. To thank you for the magazine, here's what I'll do. For the low, low price of $4 gil, I'll change the pose of any of your mannequins to match these sketches.
- **7645**: Huh? You want me to do it for frrree? Hey, a lady's got to make a living, you know!
- **7646**: Oh, and while you'rrre here, why not buy one of my high-quality mannequins to add to your collection!?

## Events

### Event 65535

#### Metadata

| Field        | Value     |
|--------------|-----------|
| Entrypoint   | 0x0000    |
| Data Size    | 103 bytes |
| Instructions | 1         |

```
      00 01 02 03 04 05 06 07  08 09 0A 0B 0C 0D 0E 0F
      -- -- -- -- -- -- -- --  -- -- -- -- -- -- -- --
0000: 00 45 00 80 F8 FF FF 7F  F8 FF FF 7F 66 64 6F 30  .E..........fdo0
0010: 01 80 55 00 80 F8 FF FF  7F F8 FF FF 7F 66 64 6F  ..U..........fdo
0020: 30 1B 45 00 80 F8 FF FF  7F F8 FF FF 7F 66 64 6F  0.E..........fdo
0030: 31 01 80 55 00 80 F8 FF  FF 7F F8 FF FF 7F 66 64  1..U..........fd
0040: 6F 31 1B 45 00 80 F8 FF  FF 7F F8 FF FF 7F 66 64  o1.E..........fd
0050: 69 30 01 80 1B 45 00 80  F8 FF FF 7F F8 FF FF 7F  i0...E..........
0060: 66 64 69 31 01 80 1B                              fdi1...         
```

#### Opcodes

```
  0: 0x0000 [0x00] END_REQSTACK()
```

#### Data or dead code:

```
# Dead code (unreachable instructions):
     0x0001 [0x45] LOAD_SCHEDULED_TASK: Load scheduler "fdo0" with entities [EventEntity, EventEntity], work=[200*, 0*]
     0x0012 [0x55] WAIT_LOAD_SCHEDULER: Wait for scheduler "fdo0" with entities [EventEntity, EventEntity], work=200*
     0x0021 [0x1B] RETURN
     0x0022 [0x45] LOAD_SCHEDULED_TASK: Load scheduler "fdo1" with entities [EventEntity, EventEntity], work=[200*, 0*]
     0x0033 [0x55] WAIT_LOAD_SCHEDULER: Wait for scheduler "fdo1" with entities [EventEntity, EventEntity], work=200*
     0x0042 [0x1B] RETURN
     0x0043 [0x45] LOAD_SCHEDULED_TASK: Load scheduler "fdi0" with entities [EventEntity, EventEntity], work=[200*, 0*]
     0x0054 [0x1B] RETURN
     0x0055 [0x45] LOAD_SCHEDULED_TASK: Load scheduler "fdi1" with entities [EventEntity, EventEntity], work=[200*, 0*]
     0x0066 [0x1B] RETURN
```

### Event 305

#### Metadata

| Field        | Value     |
|--------------|-----------|
| Entrypoint   | 0x0067    |
| Data Size    | 170 bytes |
| Instructions | 35        |

```
      00 01 02 03 04 05 06 07  08 09 0A 0B 0C 0D 0E 0F
      -- -- -- -- -- -- -- --  -- -- -- -- -- -- -- --
0060:                      42  75 00 02 80 75 01 1A 01         Bu...u...
0070: 00 38 03 80 46 01 29 0A  F0 FF FF 7F 26 79 00 F0  .8..F.).....&y..
0080: FF FF 7F F8 FF FF 7F 45  03 80 F8 FF FF 7F F8 FF  .......E........
0090: FF 7F 73 30 34 30 01 80  1A 43 00 1E F0 FF FF 7F  ..s040...C......
00A0: 1D 04 80 23 66 05 80 F8  FF FF 7F F8 FF FF 7F 74  ...#f..........t
00B0: 6C 6B 30 1D 06 80 23 1D  07 80 23 66 05 80 F8 FF  lk0...#...#f....
00C0: FF 7F F8 FF FF 7F 74 6C  6B 32 1D 08 80 23 66 05  ......tlk2...#f.
00D0: 80 F8 FF FF 7F F8 FF FF  7F 74 68 6B 31 1D 09 80  .........thk1...
00E0: 23 1D 0A 80 23 66 05 80  F8 FF FF 7F F8 FF FF 7F  #...#f..........
00F0: 74 68 6B 32 1D 0B 80 23  1A 22 00 52 03 80 F8 FF  thk2...#.".R....
0100: FF 7F F8 FF FF 7F 73 30  34 30 46 00 1A 55 00 21  ......s040F..U.!
0110: 00                                                .               
```

#### Opcodes

```
  0: 0x0067 [0x42] SET_CLI_EVENT_CANCEL_DATA()
  1: 0x0068 [0x75] LOAD_ROOM(Load indoor room, room=488*)
  2: 0x006C [0x75] LOAD_ROOM(No action)
  3: 0x006E [0x1A] CALL_SUBROUTINE(address=0x0001)
  4: 0x0071 [0x38] SET_CLIENT_EVENT_MODE(mode=3*)
  5: 0x0074 [0x46] CAMERA_CONTROL: Disable user control
  6: 0x0076 [0x29] REQ_SET_WAIT(priority=0x0A, entity_id=LocalPlayer, tag_num=0x26)
  7: 0x007D [0x79] LocalPlayer looks at EventEntity (Basic look)
  8: 0x0087 [0x45] LOAD_SCHEDULED_TASK: Load scheduler "s040" with entities [EventEntity, EventEntity], work=[3*, 0*]
  9: 0x0098 [0x1A] CALL_SUBROUTINE(address=0x0043)
 10: 0x009B [0x1E] EventEntity looks at LocalPlayer and starts talking
 11: 0x00A0 [0x1D] PRINT_EVENT_MESSAGE(message_id=7558*)
    → "Hey! You look like a well-trrraveled [guy/lady]. Have you ever heard of a thing called a mannequin?"
 12: 0x00A3 [0x23] WAIT_FOR_DIALOG_INTERACTION
 13: 0x00A4 [0x66] LOAD_EXT_SCHEDULER_MAIN: Load scheduler "tlk0" with entities [EventEntity, EventEntity], work=50*
 14: 0x00B3 [0x1D] PRINT_EVENT_MESSAGE(message_id=7559*)
    → "You know, they're these life-sized dolls that are used to display clothes and armor. I heard that up until a few years back, you couldn't walk into a guild or tailor shop without running into one. They were all overrr the place!"
 15: 0x00B6 [0x23] WAIT_FOR_DIALOG_INTERACTION
 16: 0x00B7 [0x1D] PRINT_EVENT_MESSAGE(message_id=7560*)
    → "According to my mentor, it wasn't just the looks of a mannequin that set it apart from other dolls, but the crrraftsmanship of the joints that held the parts together."
 17: 0x00BA [0x23] WAIT_FOR_DIALOG_INTERACTION
 18: 0x00BB [0x66] LOAD_EXT_SCHEDULER_MAIN: Load scheduler "tlk2" with entities [EventEntity, EventEntity], work=50*
 19: 0x00CA [0x1D] PRINT_EVENT_MESSAGE(message_id=7561*)
    → "Supposedly, the joints were all crafted by a single master goldsmith whose skills were years ahead of her time. Thanks to her work, the mannequins could be posed in any way thinkable--they were more human than a Hume!"
 20: 0x00CD [0x23] WAIT_FOR_DIALOG_INTERACTION
 21: 0x00CE [0x66] LOAD_EXT_SCHEDULER_MAIN: Load scheduler "thk1" with entities [EventEntity, EventEntity], work=50*
 22: 0x00DD [0x1D] PRINT_EVENT_MESSAGE(message_id=7562*)
    → "Whether it be a stiff suit of armor or a complicated tunic, there wasn't a thing that didn't look naturrral on one of those works of art. Just the thought of making one of my own gets my goldsmithing heart racing."
 23: 0x00E0 [0x23] WAIT_FOR_DIALOG_INTERACTION
 24: 0x00E1 [0x1D] PRINT_EVENT_MESSAGE(message_id=7563*)
    → "However, as you can see, there's not a mannequin to be found within five thousand malms of this place. Nobody's making 'em and nobody's using 'em. What I can't figure out is why all of 'em disappeared..."
 25: 0x00E4 [0x23] WAIT_FOR_DIALOG_INTERACTION
 26: 0x00E5 [0x66] LOAD_EXT_SCHEDULER_MAIN: Load scheduler "thk2" with entities [EventEntity, EventEntity], work=50*
 27: 0x00F4 [0x1D] PRINT_EVENT_MESSAGE(message_id=7564*)
    → "So! You're gonna help me find out how I can make the display dolls. Don't give me that look! You'll get your reward. How about I make you your own mannequin? How does that sound?"
 28: 0x00F7 [0x23] WAIT_FOR_DIALOG_INTERACTION
 29: 0x00F8 [0x1A] CALL_SUBROUTINE(address=0x0022)
 30: 0x00FB [0x52] END_LOAD_SCHEDULER: End scheduler "s040" with entities [EventEntity, EventEntity], work=3*
 31: 0x010A [0x46] CAMERA_CONTROL: Restore default settings
 32: 0x010C [0x1A] CALL_SUBROUTINE(address=0x0055)
 33: 0x010F [0x21] END_EVENT
 34: 0x0110 [0x00] END_REQSTACK()
```

### Event 306

#### Metadata

| Field        | Value    |
|--------------|----------|
| Entrypoint   | 0x0111   |
| Data Size    | 30 bytes |
| Instructions | 8        |

```
      00 01 02 03 04 05 06 07  08 09 0A 0B 0C 0D 0E 0F
      -- -- -- -- -- -- -- --  -- -- -- -- -- -- -- --
0110:    1E F0 FF FF 7F 1D 0C  80 23 66 05 80 F8 FF FF   ........#f.....
0120: 7F F8 FF FF 7F 74 6C 6B  30 1D 0D 80 23 21 00     .....tlk0...#!. 
```

#### Opcodes

```
  0: 0x0111 [0x1E] EventEntity looks at LocalPlayer and starts talking
  1: 0x0116 [0x1D] PRINT_EVENT_MESSAGE(message_id=7565*)
    → "Hmm... I already checked the Weavers' Guild in Windurst and they didn't have any mannequins left..."
  2: 0x0119 [0x23] WAIT_FOR_DIALOG_INTERACTION
  3: 0x011A [0x66] LOAD_EXT_SCHEDULER_MAIN: Load scheduler "tlk0" with entities [EventEntity, EventEntity], work=50*
  4: 0x0129 [0x1D] PRINT_EVENT_MESSAGE(message_id=7566*)
    → "But maybe they still have one lying arrround the guild in Selbina!"
  5: 0x012C [0x23] WAIT_FOR_DIALOG_INTERACTION
  6: 0x012D [0x21] END_EVENT
  7: 0x012E [0x00] END_REQSTACK()
```

### Event 307

#### Metadata

| Field        | Value    |
|--------------|----------|
| Entrypoint   | 0x012F   |
| Data Size    | 53 bytes |
| Instructions | 13       |

```
      00 01 02 03 04 05 06 07  08 09 0A 0B 0C 0D 0E 0F
      -- -- -- -- -- -- -- --  -- -- -- -- -- -- -- --
0120:                                               1E                 .
0130: F0 FF FF 7F 1D 0E 80 23  66 05 80 F8 FF FF 7F F8  .......#f.......
0140: FF FF 7F 74 68 6B 31 1D  0F 80 23 1D 10 80 23 66  ...thk1...#...#f
0150: 05 80 F8 FF FF 7F F8 FF  FF 7F 74 68 6B 32 1D 11  ..........thk2..
0160: 80 23 21 00                                       .#!.            
```

#### Opcodes

```
  0: 0x012F [0x1E] EventEntity looks at LocalPlayer and starts talking
  1: 0x0134 [0x1D] PRINT_EVENT_MESSAGE(message_id=7567*)
    → "Ah-ha! So there must be some deep, darrrk reason why people stopped crafting mannequins..."
  2: 0x0137 [0x23] WAIT_FOR_DIALOG_INTERACTION
  3: 0x0138 [0x66] LOAD_EXT_SCHEDULER_MAIN: Load scheduler "thk1" with entities [EventEntity, EventEntity], work=50*
  4: 0x0147 [0x1D] PRINT_EVENT_MESSAGE(message_id=7568*)
    → "Good work, <Player>. But I'm still not satisfied. Hearing all this talk about curses and beastmen just gets me morrre excited! Now I just have to have one of my own!"
  5: 0x014A [0x23] WAIT_FOR_DIALOG_INTERACTION
  6: 0x014B [0x1D] PRINT_EVENT_MESSAGE(message_id=7569*)
    → "Looking at this catalog you brought back gives a fairrrly good idea of what a mannequin looks like, but it tells me nothing about what materials I'm gonna need."
  7: 0x014E [0x23] WAIT_FOR_DIALOG_INTERACTION
  8: 0x014F [0x66] LOAD_EXT_SCHEDULER_MAIN: Load scheduler "thk2" with entities [EventEntity, EventEntity], work=50*
  9: 0x015E [0x1D] PRINT_EVENT_MESSAGE(message_id=7570*)
    → "I think we should go on that lead the old lady at the Weavers' Guild gave us. Go on! Get your tail over to the Carpenters' Guild in San d'Oria!"
 10: 0x0161 [0x23] WAIT_FOR_DIALOG_INTERACTION
 11: 0x0162 [0x21] END_EVENT
 12: 0x0163 [0x00] END_REQSTACK()
```

### Event 308

#### Metadata

| Field        | Value    |
|--------------|----------|
| Entrypoint   | 0x0164   |
| Data Size    | 30 bytes |
| Instructions | 8        |

```
      00 01 02 03 04 05 06 07  08 09 0A 0B 0C 0D 0E 0F
      -- -- -- -- -- -- -- --  -- -- -- -- -- -- -- --
0160:             1E F0 FF FF  7F 1D 12 80 23 66 05 80      ........#f..
0170: F8 FF FF 7F F8 FF FF 7F  74 6C 6B 30 1D 13 80 23  ........tlk0...#
0180: 21 00                                             !.              
```

#### Opcodes

```
  0: 0x0164 [0x1E] EventEntity looks at LocalPlayer and starts talking
  1: 0x0169 [0x1D] PRINT_EVENT_MESSAGE(message_id=7571*)
    → "Diagrrrams! With these, I think I'll be able to reproduce the joints."
  2: 0x016C [0x23] WAIT_FOR_DIALOG_INTERACTION
  3: 0x016D [0x66] LOAD_EXT_SCHEDULER_MAIN: Load scheduler "tlk0" with entities [EventEntity, EventEntity], work=50*
  4: 0x017C [0x1D] PRINT_EVENT_MESSAGE(message_id=7572*)
    → "However, without the wooden body parts, we're still in the darrrk. I wonder where we could find some..."
  5: 0x017F [0x23] WAIT_FOR_DIALOG_INTERACTION
  6: 0x0180 [0x21] END_EVENT
  7: 0x0181 [0x00] END_REQSTACK()
```

### Event 309

#### Metadata

| Field        | Value    |
|--------------|----------|
| Entrypoint   | 0x0182   |
| Data Size    | 31 bytes |
| Instructions | 9        |

```
      00 01 02 03 04 05 06 07  08 09 0A 0B 0C 0D 0E 0F
      -- -- -- -- -- -- -- --  -- -- -- -- -- -- -- --
0180:       42 1E F0 FF FF 7F  1D 14 80 23 66 05 80 F8    B........#f...
0190: FF FF 7F F8 FF FF 7F 74  6C 6B 30 1D 15 80 23 21  .......tlk0...#!
01A0: 00                                                .               
```

#### Opcodes

```
  0: 0x0182 [0x42] SET_CLI_EVENT_CANCEL_DATA()
  1: 0x0183 [0x1E] EventEntity looks at LocalPlayer and starts talking
  2: 0x0188 [0x1D] PRINT_EVENT_MESSAGE(message_id=7573*)
    → "Unbelievable! You've found all the parts!"
  3: 0x018B [0x23] WAIT_FOR_DIALOG_INTERACTION
  4: 0x018C [0x66] LOAD_EXT_SCHEDULER_MAIN: Load scheduler "tlk0" with entities [EventEntity, EventEntity], work=50*
  5: 0x019B [0x1D] PRINT_EVENT_MESSAGE(message_id=7574*)
    → "I'll start on the joints rrright away. This might take me a while, but I guarantee you won't be disappointed with the final product."
  6: 0x019E [0x23] WAIT_FOR_DIALOG_INTERACTION
  7: 0x019F [0x21] END_EVENT
  8: 0x01A0 [0x00] END_REQSTACK()
```

### Event 310

#### Metadata

| Field        | Value    |
|--------------|----------|
| Entrypoint   | 0x01A1   |
| Data Size    | 11 bytes |
| Instructions | 5        |

```
      00 01 02 03 04 05 06 07  08 09 0A 0B 0C 0D 0E 0F
      -- -- -- -- -- -- -- --  -- -- -- -- -- -- -- --
01A0:    1E F0 FF FF 7F 1D 15  80 23 21 00               ........#!.    
```

#### Opcodes

```
  0: 0x01A1 [0x1E] EventEntity looks at LocalPlayer and starts talking
  1: 0x01A6 [0x1D] PRINT_EVENT_MESSAGE(message_id=7574*)
    → "I'll start on the joints rrright away. This might take me a while, but I guarantee you won't be disappointed with the final product."
  2: 0x01A9 [0x23] WAIT_FOR_DIALOG_INTERACTION
  3: 0x01AA [0x21] END_EVENT
  4: 0x01AB [0x00] END_REQSTACK()
```

### Event 311

#### Metadata

| Field        | Value     |
|--------------|-----------|
| Entrypoint   | 0x01AC    |
| Data Size    | 109 bytes |
| Instructions | 24        |

```
      00 01 02 03 04 05 06 07  08 09 0A 0B 0C 0D 0E 0F
      -- -- -- -- -- -- -- --  -- -- -- -- -- -- -- --
01A0:                                      42 75 00 02              Bu..
01B0: 80 75 01 1A 01 00 38 03  80 46 01 29 0A F0 FF FF  .u....8..F.)....
01C0: 7F 26 79 00 F0 FF FF 7F  F8 FF FF 7F 45 03 80 F8  .&y.........E...
01D0: FF FF 7F F8 FF FF 7F 73  30 34 31 01 80 1A 43 00  .......s041...C.
01E0: 1E F0 FF FF 7F 1D 16 80  23 6F 70 66 05 80 F8 FF  ........#opf....
01F0: FF 7F F8 FF FF 7F 70 61  73 30 1D 17 80 23 45 18  ......pas0...#E.
0200: 80 F8 FF FF 7F F8 FF FF  7F 71 73 74 63 01 80 1A  .........qstc...
0210: 22 00 46 00 1A 55 00 21  00                       ".F..U.!.       
```

#### Opcodes

```
  0: 0x01AC [0x42] SET_CLI_EVENT_CANCEL_DATA()
  1: 0x01AD [0x75] LOAD_ROOM(Load indoor room, room=488*)
  2: 0x01B1 [0x75] LOAD_ROOM(No action)
  3: 0x01B3 [0x1A] CALL_SUBROUTINE(address=0x0001)
  4: 0x01B6 [0x38] SET_CLIENT_EVENT_MODE(mode=3*)
  5: 0x01B9 [0x46] CAMERA_CONTROL: Disable user control
  6: 0x01BB [0x29] REQ_SET_WAIT(priority=0x0A, entity_id=LocalPlayer, tag_num=0x26)
  7: 0x01C2 [0x79] LocalPlayer looks at EventEntity (Basic look)
  8: 0x01CC [0x45] LOAD_SCHEDULED_TASK: Load scheduler "s041" with entities [EventEntity, EventEntity], work=[3*, 0*]
  9: 0x01DD [0x1A] CALL_SUBROUTINE(address=0x0043)
 10: 0x01E0 [0x1E] EventEntity looks at LocalPlayer and starts talking
 11: 0x01E5 [0x1D] PRINT_EVENT_MESSAGE(message_id=7575*)
    → "Ta-dah! I've done it! I've successfully reproduced the master goldsmith's finest work...well, almost. You can't actually move the joints, but the mannequin still looks great standing strrraight. And just think how marrrvelous a suit of armor will look resting on it!"
 12: 0x01E8 [0x23] WAIT_FOR_DIALOG_INTERACTION
 13: 0x01E9 [0x6F] WAIT_FRAME_DELAY: Yield until WaitTime reaches zero
 14: 0x01EA [0x70] WAIT_ENTITY_RENDER_FLAG: Wait while EventEntity->Render.Flags3 bit 2 is set (cancel turn if not)
 15: 0x01EB [0x66] LOAD_EXT_SCHEDULER_MAIN: Load scheduler "pas0" with entities [EventEntity, EventEntity], work=50*
 16: 0x01FA [0x1D] PRINT_EVENT_MESSAGE(message_id=7576*)
    → "I've learned a lot from making this, and my next work is surrre to be a masterpiece! I still have a ways to go, but soon everyone will be calling me a master goldsmith! Oh yeah, you can take this mannequin as your reward. Thanks for all your help!"
 17: 0x01FD [0x23] WAIT_FOR_DIALOG_INTERACTION
 18: 0x01FE [0x45] LOAD_SCHEDULED_TASK: Load scheduler "qstc" with entities [EventEntity, EventEntity], work=[201*, 0*]
 19: 0x020F [0x1A] CALL_SUBROUTINE(address=0x0022)
 20: 0x0212 [0x46] CAMERA_CONTROL: Restore default settings
 21: 0x0214 [0x1A] CALL_SUBROUTINE(address=0x0055)
 22: 0x0217 [0x21] END_EVENT
 23: 0x0218 [0x00] END_REQSTACK()
```

### Event 312

#### Metadata

| Field        | Value    |
|--------------|----------|
| Entrypoint   | 0x0219   |
| Data Size    | 11 bytes |
| Instructions | 5        |

```
      00 01 02 03 04 05 06 07  08 09 0A 0B 0C 0D 0E 0F
      -- -- -- -- -- -- -- --  -- -- -- -- -- -- -- --
0210:                             1E F0 FF FF 7F 1D 19           .......
0220: 80 23 21 00                                       .#!.            
```

#### Opcodes

```
  0: 0x0219 [0x1E] EventEntity looks at LocalPlayer and starts talking
  1: 0x021E [0x1D] PRINT_EVENT_MESSAGE(message_id=7577*)
    → "So, how's my mannequin holding up? [He/She] looks prrretty good, doesn't [he/she]?"
  2: 0x0221 [0x23] WAIT_FOR_DIALOG_INTERACTION
  3: 0x0222 [0x21] END_EVENT
  4: 0x0223 [0x00] END_REQSTACK()
```

### Event 318

#### Metadata

| Field        | Value     |
|--------------|-----------|
| Entrypoint   | 0x0224    |
| Data Size    | 376 bytes |
| Instructions | 91        |

```
      00 01 02 03 04 05 06 07  08 09 0A 0B 0C 0D 0E 0F
      -- -- -- -- -- -- -- --  -- -- -- -- -- -- -- --
0220:             1E F0 FF FF  7F 1D 19 80 23 1D 1A 80      ........#...
0230: 23 1D 1B 80 23 1D 1C 80  23 1D 1D 80 23 1D 1E 80  #...#...#...#...
0240: 23 24 1F 80 20 80 01 80  25 02 00 10 01 80 00 72  #$.. ...%......r
0250: 03 42 1D 21 80 23 03 02  00 03 10 03 02 10 22 80  .B.!.#........".
0260: 03 03 10 23 80 03 04 10  24 80 03 05 10 25 80 03  ...#....$....%..
0270: 06 10 26 80 03 07 10 27  80 03 08 10 28 80 03 09  ..&....'....(...
0280: 10 29 80 24 2A 80 01 80  02 00 25 02 00 10 01 80  .).$*.....%.....
0290: 00 A3 02 03 00 00 22 80  03 01 00 2B 80 1A 91 08  ......"....+....
02A0: 01 64 03 02 00 10 2B 80  00 BB 02 03 00 00 23 80  .d....+.......#.
02B0: 03 01 00 20 80 1A 91 08  01 64 03 02 00 10 20 80  ... .....d.... .
02C0: 00 D3 02 03 00 00 24 80  03 01 00 03 80 1A 91 08  ......$.........
02D0: 01 64 03 02 00 10 03 80  00 EB 02 03 00 00 25 80  .d............%.
02E0: 03 01 00 2C 80 1A 91 08  01 64 03 02 00 10 2C 80  ...,.....d....,.
02F0: 00 03 03 03 00 00 26 80  03 01 00 2D 80 1A 91 08  ......&....-....
0300: 01 64 03 02 00 10 2D 80  00 1B 03 03 00 00 27 80  .d....-.......'.
0310: 03 01 00 2E 80 1A 91 08  01 64 03 02 00 10 2E 80  .........d......
0320: 00 33 03 03 00 00 28 80  03 01 00 2F 80 1A 91 08  .3....(..../....
0330: 01 64 03 02 00 10 2F 80  00 4B 03 03 00 00 29 80  .d..../..K....).
0340: 03 01 00 30 80 1A 91 08  01 64 03 02 00 10 30 80  ...0.....d....0.
0350: 00 64 03 1D 31 80 23 03  01 10 01 80 03 00 00 01  .d..1.#.........
0360: 80 01 64 03 02 00 00 01  80 01 6F 03 01 83 02 01  ..d.......o.....
0370: 9A 03 02 00 10 2B 80 00  86 03 1D 32 80 23 03 01  .....+.....2.#..
0380: 10 01 80 01 9A 03 02 00  10 20 80 00 9A 03 1D 31  ......... .....1
0390: 80 23 03 01 10 01 80 01  9A 03 21 00              .#........!.    
```

#### Opcodes

```
  0: 0x0224 [0x1E] EventEntity looks at LocalPlayer and starts talking
  1: 0x0229 [0x1D] PRINT_EVENT_MESSAGE(message_id=7577*)
    → "So, how's my mannequin holding up? [He/She] looks prrretty good, doesn't [he/she]?"
  2: 0x022C [0x23] WAIT_FOR_DIALOG_INTERACTION
  3: 0x022D [0x1D] PRINT_EVENT_MESSAGE(message_id=7599*)
    → "Thanks to the hard work of you adventurers, my workshop has been overrrflowing with mannequin parts. Unfortunately, as you can see, I don't have much in the way of storage space here. That's why I've decided to start putting the pieces together and sell the finished prrroducts!"
  4: 0x0230 [0x23] WAIT_FOR_DIALOG_INTERACTION
  5: 0x0231 [0x1D] PRINT_EVENT_MESSAGE(message_id=7600*)
    → "I was thinking about asking $2 gil a mannequin. Quite a barrrgain, if you ask me."
  6: 0x0234 [0x23] WAIT_FOR_DIALOG_INTERACTION
  7: 0x0235 [0x1D] PRINT_EVENT_MESSAGE(message_id=7601*)
    → "What? A few yalms over your head? Well, you could always exchange your old one for one of my brand-spankin'-new masterrrpieces."
  8: 0x0238 [0x23] WAIT_FOR_DIALOG_INTERACTION
  9: 0x0239 [0x1D] PRINT_EVENT_MESSAGE(message_id=7602*)
    → "I'd still have to charrrge you $3 gil, though. Hey! How do you expect a lady to make a living?"
 10: 0x023C [0x23] WAIT_FOR_DIALOG_INTERACTION
 11: 0x023D [0x1D] PRINT_EVENT_MESSAGE(message_id=7603*)
    → "Well, what do you say?"
 12: 0x0240 [0x23] WAIT_FOR_DIALOG_INTERACTION
 13: 0x0241 [0x24] CREATE_DIALOG(message_id=7604*, default_option=2*, option_flags=0*)
    → "Well...? [Buy ($2 gil)./Exchange./Forget it.]"
 14: 0x0248 [0x25] WAIT_DIALOG_SELECT()
 15: 0x0249 [0x02] IF !(Work_Zone[0] == 0*) GOTO 0x0372
 16: 0x0251 [0x42] SET_CLI_EVENT_CANCEL_DATA()
 17: 0x0252 [0x1D] PRINT_EVENT_MESSAGE(message_id=7605*)
    → "And which type of mannequin would you like?"
 18: 0x0255 [0x23] WAIT_FOR_DIALOG_INTERACTION
 19: 0x0256 [0x03] ExtData[1]->WorkLocal[2] = Work_Zone[3]
 20: 0x025B [0x03] Work_Zone[2] = 256*
 21: 0x0260 [0x03] Work_Zone[3] = 257*
 22: 0x0265 [0x03] Work_Zone[4] = 258*
 23: 0x026A [0x03] Work_Zone[5] = 259*
 24: 0x026F [0x03] Work_Zone[6] = 260*
 25: 0x0274 [0x03] Work_Zone[7] = 261*
 26: 0x0279 [0x03] Work_Zone[8] = 262*
 27: 0x027E [0x03] Work_Zone[9] = 263*
 28: 0x0283 [0x24] CREATE_DIALOG(message_id=7606*, default_option=0*, option_flags=ExtData[1]->WorkLocal[2])
    → "Well...? [$0./$1./$2./$3./$4./$5./$6./$7./Never mind.]"
 29: 0x028A [0x25] WAIT_DIALOG_SELECT()
 30: 0x028B [0x02] IF !(Work_Zone[0] == 0*) GOTO 0x02A3
 31: 0x0293 [0x03] ExtData[1]->WorkLocal[0] = 256*
 32: 0x0298 [0x03] ExtData[1]->WorkLocal[1] = 1*
 33: 0x029D [0x1A] CALL_SUBROUTINE(address=0x0891)
 34: 0x02A0 [0x01] GOTO 0x0364
 35: 0x02A3 [0x02] IF !(Work_Zone[0] == 1*) GOTO 0x02BB
 36: 0x02AB [0x03] ExtData[1]->WorkLocal[0] = 257*
 37: 0x02B0 [0x03] ExtData[1]->WorkLocal[1] = 2*
 38: 0x02B5 [0x1A] CALL_SUBROUTINE(address=0x0891)
 39: 0x02B8 [0x01] GOTO 0x0364
 40: 0x02BB [0x02] IF !(Work_Zone[0] == 2*) GOTO 0x02D3
 41: 0x02C3 [0x03] ExtData[1]->WorkLocal[0] = 258*
 42: 0x02C8 [0x03] ExtData[1]->WorkLocal[1] = 3*
 43: 0x02CD [0x1A] CALL_SUBROUTINE(address=0x0891)
 44: 0x02D0 [0x01] GOTO 0x0364
 45: 0x02D3 [0x02] IF !(Work_Zone[0] == 3*) GOTO 0x02EB
 46: 0x02DB [0x03] ExtData[1]->WorkLocal[0] = 259*
 47: 0x02E0 [0x03] ExtData[1]->WorkLocal[1] = 4*
 48: 0x02E5 [0x1A] CALL_SUBROUTINE(address=0x0891)
 49: 0x02E8 [0x01] GOTO 0x0364
 50: 0x02EB [0x02] IF !(Work_Zone[0] == 4*) GOTO 0x0303
 51: 0x02F3 [0x03] ExtData[1]->WorkLocal[0] = 260*
 52: 0x02F8 [0x03] ExtData[1]->WorkLocal[1] = 5*
 53: 0x02FD [0x1A] CALL_SUBROUTINE(address=0x0891)
 54: 0x0300 [0x01] GOTO 0x0364
 55: 0x0303 [0x02] IF !(Work_Zone[0] == 5*) GOTO 0x031B
 56: 0x030B [0x03] ExtData[1]->WorkLocal[0] = 261*
 57: 0x0310 [0x03] ExtData[1]->WorkLocal[1] = 6*
 58: 0x0315 [0x1A] CALL_SUBROUTINE(address=0x0891)
 59: 0x0318 [0x01] GOTO 0x0364
 60: 0x031B [0x02] IF !(Work_Zone[0] == 6*) GOTO 0x0333
 61: 0x0323 [0x03] ExtData[1]->WorkLocal[0] = 262*
 62: 0x0328 [0x03] ExtData[1]->WorkLocal[1] = 7*
 63: 0x032D [0x1A] CALL_SUBROUTINE(address=0x0891)
 64: 0x0330 [0x01] GOTO 0x0364
 65: 0x0333 [0x02] IF !(Work_Zone[0] == 7*) GOTO 0x034B
 66: 0x033B [0x03] ExtData[1]->WorkLocal[0] = 263*
 67: 0x0340 [0x03] ExtData[1]->WorkLocal[1] = 8*
 68: 0x0345 [0x1A] CALL_SUBROUTINE(address=0x0891)
 69: 0x0348 [0x01] GOTO 0x0364
 70: 0x034B [0x02] IF !(Work_Zone[0] == 8*) GOTO 0x0364
 71: 0x0353 [0x1D] PRINT_EVENT_MESSAGE(message_id=7611*)
    → "Okay. Well, if you change your mind, you know where I'll be!"
 72: 0x0356 [0x23] WAIT_FOR_DIALOG_INTERACTION
 73: 0x0357 [0x03] Work_Zone[1] = 0*
 74: 0x035C [0x03] ExtData[1]->WorkLocal[0] = 0*
 75: 0x0361 [0x01] GOTO 0x0364

SUBROUTINE_0364:
 76: 0x0364 [0x02] IF !(ExtData[1]->WorkLocal[0] == 0*) GOTO 0x036F
 77: 0x036C [0x01] GOTO 0x0283
 78: 0x036F [0x01] GOTO 0x039A
 79: 0x0372 [0x02] IF !(Work_Zone[0] == 1*) GOTO 0x0386
 80: 0x037A [0x1D] PRINT_EVENT_MESSAGE(message_id=7612*)
    → "Trrrade me the goods and I'll see if it's worth exchanging. Oh, and don't forget to have your $3 gil rrready to pay the difference."
 81: 0x037D [0x23] WAIT_FOR_DIALOG_INTERACTION
 82: 0x037E [0x03] Work_Zone[1] = 0*
 83: 0x0383 [0x01] GOTO 0x039A
 84: 0x0386 [0x02] IF !(Work_Zone[0] == 2*) GOTO 0x039A
 85: 0x038E [0x1D] PRINT_EVENT_MESSAGE(message_id=7611*)
    → "Okay. Well, if you change your mind, you know where I'll be!"
 86: 0x0391 [0x23] WAIT_FOR_DIALOG_INTERACTION
 87: 0x0392 [0x03] Work_Zone[1] = 0*
 88: 0x0397 [0x01] GOTO 0x039A

SUBROUTINE_039A:
 89: 0x039A [0x21] END_EVENT
 90: 0x039B [0x00] END_REQSTACK()
```

### Event 319

#### Metadata

| Field        | Value     |
|--------------|-----------|
| Entrypoint   | 0x039C    |
| Data Size    | 386 bytes |
| Instructions | 89        |

```
      00 01 02 03 04 05 06 07  08 09 0A 0B 0C 0D 0E 0F
      -- -- -- -- -- -- -- --  -- -- -- -- -- -- -- --
0390:                                      42 1E F0 FF              B...
03A0: FF 7F 02 02 10 20 80 00  04 05 03 02 00 03 10 02  ..... ..........
03B0: 06 10 01 80 00 BE 03 1D  33 80 23 01 C2 03 1D 34  ........3.#....4
03C0: 80 23 24 35 80 2B 80 01  80 25 02 00 10 01 80 00  .#$5.+...%......
03D0: ED 04 1D 21 80 23 03 02  10 22 80 03 03 10 23 80  ...!.#..."....#.
03E0: 03 04 10 24 80 03 05 10  25 80 03 06 10 26 80 03  ...$....%....&..
03F0: 07 10 27 80 03 08 10 28  80 03 09 10 29 80 24 2A  ..'....(....).$*
0400: 80 01 80 02 00 25 02 00  10 01 80 00 1E 04 03 00  .....%..........
0410: 00 22 80 1A E5 08 03 01  10 2B 80 01 DF 04 02 00  .".......+......
0420: 10 2B 80 00 36 04 03 00  00 23 80 1A E5 08 03 01  .+..6....#......
0430: 10 20 80 01 DF 04 02 00  10 20 80 00 4E 04 03 00  . ....... ..N...
0440: 00 24 80 1A E5 08 03 01  10 03 80 01 DF 04 02 00  .$..............
0450: 10 03 80 00 66 04 03 00  00 25 80 1A E5 08 03 01  ....f....%......
0460: 10 2C 80 01 DF 04 02 00  10 2C 80 00 7E 04 03 00  .,.......,..~...
0470: 00 26 80 1A E5 08 03 01  10 2D 80 01 DF 04 02 00  .&.......-......
0480: 10 2D 80 00 96 04 03 00  00 27 80 1A E5 08 03 01  .-.......'......
0490: 10 2E 80 01 DF 04 02 00  10 2E 80 00 AE 04 03 00  ................
04A0: 00 28 80 1A E5 08 03 01  10 2F 80 01 DF 04 02 00  .(......./......
04B0: 10 2F 80 00 C6 04 03 00  00 29 80 1A E5 08 03 01  ./.......)......
04C0: 10 30 80 01 DF 04 02 00  10 30 80 00 DF 04 1D 31  .0.......0.....1
04D0: 80 23 03 01 10 01 80 03  00 00 01 80 01 DF 04 02  .#..............
04E0: 00 00 01 80 01 EA 04 01  FE 03 01 01 05 02 00 10  ................
04F0: 2B 80 00 01 05 1D 31 80  23 03 01 10 01 80 01 01  +.....1.#.......
0500: 05 01 1C 05 02 06 10 01  80 00 13 05 1D 36 80 23  .............6.#
0510: 01 17 05 1D 37 80 23 03  01 10 01 80 21 00        ....7.#.....!.  
```

#### Opcodes

```
  0: 0x039C [0x42] SET_CLI_EVENT_CANCEL_DATA()
  1: 0x039D [0x1E] EventEntity looks at LocalPlayer and starts talking
  2: 0x03A2 [0x02] IF !(Work_Zone[2] == 2*) GOTO 0x0504
  3: 0x03AA [0x03] ExtData[1]->WorkLocal[2] = Work_Zone[3]
  4: 0x03AF [0x02] IF !(Work_Zone[6] == 0*) GOTO 0x03BE
  5: 0x03B7 [0x1D] PRINT_EVENT_MESSAGE(message_id=7614*)
    → "Hmmm... It's still in prrretty good condition. For $3 gil, you can exchange it for a new mannequin."
  6: 0x03BA [0x23] WAIT_FOR_DIALOG_INTERACTION
  7: 0x03BB [0x01] GOTO 0x03C2
  8: 0x03BE [0x1D] PRINT_EVENT_MESSAGE(message_id=7633*)
    → "Trrrading in your old mannequin for a new one? Rrremember, I'll need a $3-gil fee."
  9: 0x03C1 [0x23] WAIT_FOR_DIALOG_INTERACTION

SUBROUTINE_03C2:
 10: 0x03C2 [0x24] CREATE_DIALOG(message_id=7615*, default_option=1*, option_flags=0*)
    → "What do you say? [Let's do it./Forget it.]"
 11: 0x03C9 [0x25] WAIT_DIALOG_SELECT()
 12: 0x03CA [0x02] IF !(Work_Zone[0] == 0*) GOTO 0x04ED
 13: 0x03D2 [0x1D] PRINT_EVENT_MESSAGE(message_id=7605*)
    → "And which type of mannequin would you like?"
 14: 0x03D5 [0x23] WAIT_FOR_DIALOG_INTERACTION
 15: 0x03D6 [0x03] Work_Zone[2] = 256*
 16: 0x03DB [0x03] Work_Zone[3] = 257*
 17: 0x03E0 [0x03] Work_Zone[4] = 258*
 18: 0x03E5 [0x03] Work_Zone[5] = 259*
 19: 0x03EA [0x03] Work_Zone[6] = 260*
 20: 0x03EF [0x03] Work_Zone[7] = 261*
 21: 0x03F4 [0x03] Work_Zone[8] = 262*
 22: 0x03F9 [0x03] Work_Zone[9] = 263*

SUBROUTINE_03FE:
 23: 0x03FE [0x24] CREATE_DIALOG(message_id=7606*, default_option=0*, option_flags=ExtData[1]->WorkLocal[2])
    → "Well...? [$0./$1./$2./$3./$4./$5./$6./$7./Never mind.]"
 24: 0x0405 [0x25] WAIT_DIALOG_SELECT()
 25: 0x0406 [0x02] IF !(Work_Zone[0] == 0*) GOTO 0x041E
 26: 0x040E [0x03] ExtData[1]->WorkLocal[0] = 256*
 27: 0x0413 [0x1A] CALL_SUBROUTINE(address=0x08E5)
 28: 0x0416 [0x03] Work_Zone[1] = 1*
 29: 0x041B [0x01] GOTO 0x04DF
 30: 0x041E [0x02] IF !(Work_Zone[0] == 1*) GOTO 0x0436
 31: 0x0426 [0x03] ExtData[1]->WorkLocal[0] = 257*
 32: 0x042B [0x1A] CALL_SUBROUTINE(address=0x08E5)
 33: 0x042E [0x03] Work_Zone[1] = 2*
 34: 0x0433 [0x01] GOTO 0x04DF
 35: 0x0436 [0x02] IF !(Work_Zone[0] == 2*) GOTO 0x044E
 36: 0x043E [0x03] ExtData[1]->WorkLocal[0] = 258*
 37: 0x0443 [0x1A] CALL_SUBROUTINE(address=0x08E5)
 38: 0x0446 [0x03] Work_Zone[1] = 3*
 39: 0x044B [0x01] GOTO 0x04DF
 40: 0x044E [0x02] IF !(Work_Zone[0] == 3*) GOTO 0x0466
 41: 0x0456 [0x03] ExtData[1]->WorkLocal[0] = 259*
 42: 0x045B [0x1A] CALL_SUBROUTINE(address=0x08E5)
 43: 0x045E [0x03] Work_Zone[1] = 4*
 44: 0x0463 [0x01] GOTO 0x04DF
 45: 0x0466 [0x02] IF !(Work_Zone[0] == 4*) GOTO 0x047E
 46: 0x046E [0x03] ExtData[1]->WorkLocal[0] = 260*
 47: 0x0473 [0x1A] CALL_SUBROUTINE(address=0x08E5)
 48: 0x0476 [0x03] Work_Zone[1] = 5*
 49: 0x047B [0x01] GOTO 0x04DF
 50: 0x047E [0x02] IF !(Work_Zone[0] == 5*) GOTO 0x0496
 51: 0x0486 [0x03] ExtData[1]->WorkLocal[0] = 261*
 52: 0x048B [0x1A] CALL_SUBROUTINE(address=0x08E5)
 53: 0x048E [0x03] Work_Zone[1] = 6*
 54: 0x0493 [0x01] GOTO 0x04DF
 55: 0x0496 [0x02] IF !(Work_Zone[0] == 6*) GOTO 0x04AE
 56: 0x049E [0x03] ExtData[1]->WorkLocal[0] = 262*
 57: 0x04A3 [0x1A] CALL_SUBROUTINE(address=0x08E5)
 58: 0x04A6 [0x03] Work_Zone[1] = 7*
 59: 0x04AB [0x01] GOTO 0x04DF
 60: 0x04AE [0x02] IF !(Work_Zone[0] == 7*) GOTO 0x04C6
 61: 0x04B6 [0x03] ExtData[1]->WorkLocal[0] = 263*
 62: 0x04BB [0x1A] CALL_SUBROUTINE(address=0x08E5)
 63: 0x04BE [0x03] Work_Zone[1] = 8*
 64: 0x04C3 [0x01] GOTO 0x04DF
 65: 0x04C6 [0x02] IF !(Work_Zone[0] == 8*) GOTO 0x04DF
 66: 0x04CE [0x1D] PRINT_EVENT_MESSAGE(message_id=7611*)
    → "Okay. Well, if you change your mind, you know where I'll be!"
 67: 0x04D1 [0x23] WAIT_FOR_DIALOG_INTERACTION
 68: 0x04D2 [0x03] Work_Zone[1] = 0*
 69: 0x04D7 [0x03] ExtData[1]->WorkLocal[0] = 0*
 70: 0x04DC [0x01] GOTO 0x04DF

SUBROUTINE_04DF:
 71: 0x04DF [0x02] IF !(ExtData[1]->WorkLocal[0] == 0*) GOTO 0x04EA
 72: 0x04E7 [0x01] GOTO 0x03FE
 73: 0x04EA [0x01] GOTO 0x0501
 74: 0x04ED [0x02] IF !(Work_Zone[0] == 1*) GOTO 0x0501
 75: 0x04F5 [0x1D] PRINT_EVENT_MESSAGE(message_id=7611*)
    → "Okay. Well, if you change your mind, you know where I'll be!"
 76: 0x04F8 [0x23] WAIT_FOR_DIALOG_INTERACTION
 77: 0x04F9 [0x03] Work_Zone[1] = 0*
 78: 0x04FE [0x01] GOTO 0x0501

SUBROUTINE_0501:
 79: 0x0501 [0x01] GOTO 0x051C
 80: 0x0504 [0x02] IF !(Work_Zone[6] == 0*) GOTO 0x0513
 81: 0x050C [0x1D] PRINT_EVENT_MESSAGE(message_id=7613*)
    → "Hmmm... It's still in prrretty good condition. I'd have no problem exchanging this for a new mannequin...if you had the $3 gil I was asking for."
 82: 0x050F [0x23] WAIT_FOR_DIALOG_INTERACTION
 83: 0x0510 [0x01] GOTO 0x0517
 84: 0x0513 [0x1D] PRINT_EVENT_MESSAGE(message_id=7632*)
    → "I can only accept your trrrade-in after you've paid the $3-gil difference. Don't worry, I'll be waiting rrright here for you!"
 85: 0x0516 [0x23] WAIT_FOR_DIALOG_INTERACTION

SUBROUTINE_0517:
 86: 0x0517 [0x03] Work_Zone[1] = 0*

SUBROUTINE_051C:
 87: 0x051C [0x21] END_EVENT
 88: 0x051D [0x00] END_REQSTACK()
```

### Event 321

#### Metadata

| Field        | Value      |
|--------------|------------|
| Entrypoint   | 0x051E     |
| Data Size    | 3765 bytes |
| Instructions | 699        |

```
      00 01 02 03 04 05 06 07  08 09 0A 0B 0C 0D 0E 0F
      -- -- -- -- -- -- -- --  -- -- -- -- -- -- -- --
0510:                                            1E F0                ..
0520: FF FF 7F 02 08 10 38 80  00 A0 05 1D 39 80 23 66  ......8.....9.#f
0530: 05 80 F8 FF FF 7F F8 FF  FF 7F 74 6C 6B 30 1D 3A  ..........tlk0.:
0540: 80 23 66 05 80 F8 FF FF  7F F8 FF FF 7F 74 6C 6B  .#f..........tlk
0550: 32 66 05 80 F8 FF FF 7F  F8 FF FF 7F 74 68 6B 31  2f..........thk1
0560: 1D 3B 80 23 1D 3C 80 23  66 05 80 F8 FF FF 7F F8  .;.#.<.#f.......
0570: FF FF 7F 74 68 6B 32 1D  3D 80 23 66 05 80 F8 FF  ...thk2.=.#f....
0580: FF 7F F8 FF FF 7F 74 6C  6B 30 1D 3E 80 23 66 05  ......tlk0.>.#f.
0590: 80 F8 FF FF 7F F8 FF FF  7F 74 6C 6B 32 01 B0 05  .........tlk2...
05A0: 1D 3F 80 23 1D 40 80 23  1D 41 80 23 1D 42 80 23  .?.#.@.#.A.#.B.#
05B0: 1D 43 80 23 06 00 00 02  03 10 01 80 00 C9 05 3C  .C.#...........<
05C0: 00 00 03 80 2B 80 01 D8  05 02 03 10 44 80 00 D8  ....+.......D...
05D0: 05 3C 00 00 2B 80 2B 80  02 08 10 38 80 00 FD 05  .<..+.+....8....
05E0: 02 03 10 01 80 00 EF 05  1D 45 80 23 01 F6 05 3C  .........E.#...<
05F0: 00 00 2B 80 2B 80 3C 00  00 20 80 2B 80 24 46 80  ..+.+.<.. .+.$F.
0600: 01 80 00 00 25 02 00 10  01 80 00 19 06 1D 31 80  ....%.........1.
0610: 23 03 01 10 01 80 01 8F  08 02 00 10 2B 80 00 42  #...........+..B
0620: 07 42 1D 21 80 23 03 02  00 03 10 03 02 10 22 80  .B.!.#........".
0630: 03 03 10 23 80 03 04 10  24 80 03 05 10 25 80 03  ...#....$....%..
0640: 06 10 26 80 03 07 10 27  80 03 08 10 28 80 03 09  ..&....'....(...
0650: 10 29 80 24 2A 80 01 80  02 00 25 02 00 10 01 80  .).$*.....%.....
0660: 00 73 06 03 00 00 22 80  03 01 00 2B 80 1A 91 08  .s...."....+....
0670: 01 34 07 02 00 10 2B 80  00 8B 06 03 00 00 23 80  .4....+.......#.
0680: 03 01 00 20 80 1A 91 08  01 34 07 02 00 10 20 80  ... .....4.... .
0690: 00 A3 06 03 00 00 24 80  03 01 00 03 80 1A 91 08  ......$.........
06A0: 01 34 07 02 00 10 03 80  00 BB 06 03 00 00 25 80  .4............%.
06B0: 03 01 00 2C 80 1A 91 08  01 34 07 02 00 10 2C 80  ...,.....4....,.
06C0: 00 D3 06 03 00 00 26 80  03 01 00 2D 80 1A 91 08  ......&....-....
06D0: 01 34 07 02 00 10 2D 80  00 EB 06 03 00 00 27 80  .4....-.......'.
06E0: 03 01 00 2E 80 1A 91 08  01 34 07 02 00 10 2E 80  .........4......
06F0: 00 03 07 03 00 00 28 80  03 01 00 2F 80 1A 91 08  ......(..../....
0700: 01 34 07 02 00 10 2F 80  00 1B 07 03 00 00 29 80  .4..../.......).
0710: 03 01 00 30 80 1A 91 08  01 34 07 02 00 10 30 80  ...0.....4....0.
0720: 00 34 07 1D 31 80 23 03  01 10 01 80 03 00 00 01  .4..1.#.........
0730: 80 01 34 07 02 00 00 01  80 01 3F 07 01 53 06 01  ..4.......?..S..
0740: 8F 08 02 00 10 20 80 00  56 07 1D 47 80 23 03 01  ..... ..V..G.#..
0750: 10 01 80 01 8F 08 02 00  10 03 80 00 8F 08 02 07  ................
0760: 10 06 10 04 83 08 42 1D  48 80 23 03 02 00 03 10  ......B.H.#.....
0770: 0F 02 00 49 80 3D 02 00  30 80 2B 80 03 02 10 22  ...I.=..0.+...."
0780: 80 03 03 10 23 80 03 04  10 24 80 03 05 10 25 80  ....#....$....%.
0790: 03 06 10 26 80 03 07 10  27 80 03 08 10 28 80 03  ...&....'....(..
07A0: 09 10 29 80 24 2A 80 01  80 02 00 25 02 00 10 01  ..).$*.....%....
07B0: 80 00 C4 07 03 02 10 22  80 03 01 10 4A 80 1A 18  ......."....J...
07C0: 09 01 80 08 02 00 10 2B  80 00 DC 07 03 02 10 23  .......+.......#
07D0: 80 03 01 10 4B 80 1A 18  09 01 80 08 02 00 10 20  ....K.......... 
07E0: 80 00 F4 07 03 02 10 24  80 03 01 10 4C 80 1A 18  .......$....L...
07F0: 09 01 80 08 02 00 10 03  80 00 0C 08 03 02 10 25  ...............%
0800: 80 03 01 10 4D 80 1A 18  09 01 80 08 02 00 10 2C  ....M..........,
0810: 80 00 24 08 03 02 10 26  80 03 01 10 4E 80 1A 18  ..$....&....N...
0820: 09 01 80 08 02 00 10 2D  80 00 3C 08 03 02 10 27  .......-..<....'
0830: 80 03 01 10 4F 80 1A 18  09 01 80 08 02 00 10 2E  ....O...........
0840: 80 00 54 08 03 02 10 28  80 03 01 10 50 80 1A 18  ..T....(....P...
0850: 09 01 80 08 02 00 10 2F  80 00 6C 08 03 02 10 29  ......./..l....)
0860: 80 03 01 10 51 80 1A 18  09 01 80 08 02 00 10 30  ....Q..........0
0870: 80 00 80 08 1D 31 80 23  03 01 10 01 80 01 80 08  .....1.#........
0880: 01 8C 08 1D 52 80 23 03  01 10 01 80 01 8F 08 21  ....R.#........!
0890: 00 93 00 00 1D 53 80 23  93 01 80 24 54 80 2B 80  .....S.#...$T.+.
08A0: 01 80 25 02 00 10 01 80  00 D4 08 43 00 43 01 02  ..%........C.C..
08B0: 02 10 2B 80 00 C3 08 1D  55 80 23 03 01 10 01 00  ..+.....U.#.....
08C0: 01 CC 08 1D 52 80 23 03  01 10 01 80 03 00 00 01  ....R.#.........
08D0: 80 01 E4 08 02 00 10 2B  80 00 E4 08 03 00 00 2B  .......+.......+
08E0: 80 01 E4 08 1B 93 00 00  1D 53 80 23 93 01 80 24  .........S.#...$
08F0: 54 80 2B 80 01 80 25 02  00 10 01 80 00 07 09 03  T.+...%.........
0900: 00 00 01 80 01 17 09 02  00 10 2B 80 00 17 09 03  ..........+.....
0910: 00 00 2B 80 01 17 09 1B  06 03 00 1D 56 80 23 43  ..+.........V.#C
0920: 00 43 01 03 01 10 04 10  03 02 00 01 80 02 05 10  .C..............
0930: 01 80 80 3F 09 3C 02 00  01 80 2B 80 01 AB 09 02  ...?.<....+.....
0940: 05 10 2B 80 80 51 09 3C  02 00 2B 80 2B 80 01 AB  ..+..Q.<..+.+...
0950: 09 02 05 10 20 80 80 63  09 3C 02 00 20 80 2B 80  .... ..c.<.. .+.
0960: 01 AB 09 02 05 10 03 80  80 75 09 3C 02 00 03 80  .........u.<....
0970: 2B 80 01 AB 09 02 05 10  2C 80 80 87 09 3C 02 00  +.......,....<..
0980: 2C 80 2B 80 01 AB 09 02  05 10 30 80 80 99 09 3C  ,.+.......0....<
0990: 02 00 2D 80 2B 80 01 AB  09 02 05 10 4F 80 80 AB  ..-.+.......O...
09A0: 09 3C 02 00 2E 80 2B 80  01 AB 09 24 57 80 01 80  .<....+....$W...
09B0: 02 00 25 02 00 10 01 80  00 F2 09 1A 9E 0B 24 58  ..%...........$X
09C0: 80 2B 80 01 80 25 02 00  10 01 80 00 E1 09 1A 4B  .+...%.........K
09D0: 13 40 2D 80 59 80 01 10  01 80 1D 5A 80 23 01 EF  .@-.Y......Z.#..
09E0: 09 02 00 10 2B 80 00 EF  09 01 AB 09 01 EF 09 01  ....+...........
09F0: 9D 0B 02 00 10 2B 80 00  34 0A 05 03 00 1A 9E 0B  .....+..4.......
0A00: 24 58 80 2B 80 01 80 25  02 00 10 01 80 00 23 0A  $X.+...%......#.
0A10: 1A 4B 13 40 2D 80 59 80  01 10 2B 80 1D 5A 80 23  .K.@-.Y...+..Z.#
0A20: 01 31 0A 02 00 10 2B 80  00 31 0A 01 AB 09 01 31  .1....+..1.....1
0A30: 0A 01 9D 0B 02 00 10 20  80 00 76 0A 05 03 00 1A  ....... ..v.....
0A40: 9E 0B 24 58 80 2B 80 01  80 25 02 00 10 01 80 00  ..$X.+...%......
0A50: 65 0A 1A 4B 13 40 2D 80  59 80 01 10 20 80 1D 5A  e..K.@-.Y... ..Z
0A60: 80 23 01 73 0A 02 00 10  2B 80 00 73 0A 01 AB 09  .#.s....+..s....
0A70: 01 73 0A 01 9D 0B 02 00  10 03 80 00 B8 0A 05 03  .s..............
0A80: 00 1A 9E 0B 24 58 80 2B  80 01 80 25 02 00 10 01  ....$X.+...%....
0A90: 80 00 A7 0A 1A 4B 13 40  2D 80 59 80 01 10 03 80  .....K.@-.Y.....
0AA0: 1D 5A 80 23 01 B5 0A 02  00 10 2B 80 00 B5 0A 01  .Z.#......+.....
0AB0: AB 09 01 B5 0A 01 9D 0B  02 00 10 2C 80 00 FA 0A  ...........,....
0AC0: 05 03 00 1A 9E 0B 24 58  80 2B 80 01 80 25 02 00  ......$X.+...%..
0AD0: 10 01 80 00 E9 0A 1A 4B  13 40 2D 80 59 80 01 10  .......K.@-.Y...
0AE0: 2C 80 1D 5A 80 23 01 F7  0A 02 00 10 2B 80 00 F7  ,..Z.#......+...
0AF0: 0A 01 AB 09 01 F7 0A 01  9D 0B 02 00 10 2D 80 00  .............-..
0B00: 3C 0B 05 03 00 1A 9E 0B  24 58 80 2B 80 01 80 25  <.......$X.+...%
0B10: 02 00 10 01 80 00 2B 0B  1A 4B 13 40 2D 80 59 80  ......+..K.@-.Y.
0B20: 01 10 30 80 1D 5A 80 23  01 39 0B 02 00 10 2B 80  ..0..Z.#.9....+.
0B30: 00 39 0B 01 AB 09 01 39  0B 01 9D 0B 02 00 10 2E  .9.....9........
0B40: 80 00 7E 0B 05 03 00 1A  9E 0B 24 58 80 2B 80 01  ..~.......$X.+..
0B50: 80 25 02 00 10 01 80 00  6D 0B 1A 4B 13 40 2D 80  .%......m..K.@-.
0B60: 59 80 01 10 4F 80 1D 5A  80 23 01 7B 0B 02 00 10  Y...O..Z.#.{....
0B70: 2B 80 00 7B 0B 01 AB 09  01 7B 0B 01 9D 0B 02 00  +..{.....{......
0B80: 10 2F 80 00 9D 0B 02 03  00 01 80 01 91 0B 1A 4B  ./.............K
0B90: 13 1D 31 80 23 03 01 10  01 80 01 9D 0B 1B 05 03  ..1.#...........
0BA0: 00 45 00 80 F8 FF FF 7F  F8 FF FF 7F 66 64 6F 31  .E..........fdo1
0BB0: 01 80 55 00 80 F8 FF FF  7F F8 FF FF 7F 66 64 6F  ..U..........fdo
0BC0: 31 38 20 80 22 01 46 01  02 01 10 4A 80 80 B3 0C  18 .".F....J....
0BD0: 02 00 10 01 80 80 EC 0B  6E 71 90 0F 01 5B 80 99  ........nq...[..
0BE0: 71 90 0F 01 99 F8 FF FF  7F 01 94 0C 02 00 10 2B  q..............+
0BF0: 80 80 08 0C 6E 71 90 0F  01 5C 80 99 71 90 0F 01  ....nq...\..q...
0C00: 99 F8 FF FF 7F 01 94 0C  02 00 10 20 80 80 24 0C  ........... ..$.
0C10: 6E 71 90 0F 01 05 80 99  71 90 0F 01 99 F8 FF FF  nq......q.......
0C20: 7F 01 94 0C 02 00 10 03  80 80 40 0C 6E 71 90 0F  ..........@.nq..
0C30: 01 5D 80 99 71 90 0F 01  99 F8 FF FF 7F 01 94 0C  .]..q...........
0C40: 02 00 10 2C 80 80 5C 0C  6E 71 90 0F 01 5E 80 99  ...,..\.nq...^..
0C50: 71 90 0F 01 99 F8 FF FF  7F 01 94 0C 02 00 10 2D  q..............-
0C60: 80 80 78 0C 6E 71 90 0F  01 5F 80 99 71 90 0F 01  ..x.nq..._..q...
0C70: 99 F8 FF FF 7F 01 94 0C  02 00 10 2E 80 80 94 0C  ................
0C80: 6E 71 90 0F 01 60 80 99  71 90 0F 01 99 F8 FF FF  nq...`..q.......
0C90: 7F 01 94 0C 45 61 80 F8  FF FF 7F F8 FF FF 7F 73  ....Ea.........s
0CA0: 6D 61 6D 01 80 4E 00 71  90 0F 01 80 71 90 0F 01  mam..N.q....q...
0CB0: 01 20 13 02 01 10 4B 80  80 9E 0D 02 00 10 01 80  . ....K.........
0CC0: 80 D7 0C 6E 72 90 0F 01  5B 80 99 72 90 0F 01 99  ...nr...[..r....
0CD0: F8 FF FF 7F 01 7F 0D 02  00 10 2B 80 80 F3 0C 6E  ..........+....n
0CE0: 72 90 0F 01 5C 80 99 72  90 0F 01 99 F8 FF FF 7F  r...\..r........
0CF0: 01 7F 0D 02 00 10 20 80  80 0F 0D 6E 72 90 0F 01  ...... ....nr...
0D00: 05 80 99 72 90 0F 01 99  F8 FF FF 7F 01 7F 0D 02  ...r............
0D10: 00 10 03 80 80 2B 0D 6E  72 90 0F 01 5D 80 99 72  .....+.nr...]..r
0D20: 90 0F 01 99 F8 FF FF 7F  01 7F 0D 02 00 10 2C 80  ..............,.
0D30: 80 47 0D 6E 72 90 0F 01  5E 80 99 72 90 0F 01 99  .G.nr...^..r....
0D40: F8 FF FF 7F 01 7F 0D 02  00 10 2D 80 80 63 0D 6E  ..........-..c.n
0D50: 72 90 0F 01 5F 80 99 72  90 0F 01 99 F8 FF FF 7F  r..._..r........
0D60: 01 7F 0D 02 00 10 2E 80  80 7F 0D 6E 72 90 0F 01  ...........nr...
0D70: 60 80 99 72 90 0F 01 99  F8 FF FF 7F 01 7F 0D 45  `..r...........E
0D80: 61 80 F8 FF FF 7F F8 FF  FF 7F 73 6D 61 6D 01 80  a.........smam..
0D90: 4E 00 72 90 0F 01 80 72  90 0F 01 01 20 13 02 01  N.r....r.... ...
0DA0: 10 4C 80 80 89 0E 02 00  10 01 80 80 C2 0D 6E 73  .L............ns
0DB0: 90 0F 01 5B 80 99 73 90  0F 01 99 F8 FF FF 7F 01  ...[..s.........
0DC0: 6A 0E 02 00 10 2B 80 80  DE 0D 6E 73 90 0F 01 5C  j....+....ns...\
0DD0: 80 99 73 90 0F 01 99 F8  FF FF 7F 01 6A 0E 02 00  ..s.........j...
0DE0: 10 20 80 80 FA 0D 6E 73  90 0F 01 05 80 99 73 90  . ....ns......s.
0DF0: 0F 01 99 F8 FF FF 7F 01  6A 0E 02 00 10 03 80 80  ........j.......
0E00: 16 0E 6E 73 90 0F 01 5D  80 99 73 90 0F 01 99 F8  ..ns...]..s.....
0E10: FF FF 7F 01 6A 0E 02 00  10 2C 80 80 32 0E 6E 73  ....j....,..2.ns
0E20: 90 0F 01 5E 80 99 73 90  0F 01 99 F8 FF FF 7F 01  ...^..s.........
0E30: 6A 0E 02 00 10 2D 80 80  4E 0E 6E 73 90 0F 01 5F  j....-..N.ns..._
0E40: 80 99 73 90 0F 01 99 F8  FF FF 7F 01 6A 0E 02 00  ..s.........j...
0E50: 10 2E 80 80 6A 0E 6E 73  90 0F 01 60 80 99 73 90  ....j.ns...`..s.
0E60: 0F 01 99 F8 FF FF 7F 01  6A 0E 45 61 80 F8 FF FF  ........j.Ea....
0E70: 7F F8 FF FF 7F 73 6D 61  6D 01 80 4E 00 73 90 0F  .....smam..N.s..
0E80: 01 80 73 90 0F 01 01 20  13 02 01 10 4D 80 80 74  ..s.... ....M..t
0E90: 0F 02 00 10 01 80 80 AD  0E 6E 74 90 0F 01 5B 80  .........nt...[.
0EA0: 99 74 90 0F 01 99 F8 FF  FF 7F 01 55 0F 02 00 10  .t.........U....
0EB0: 2B 80 80 C9 0E 6E 74 90  0F 01 5C 80 99 74 90 0F  +....nt...\..t..
0EC0: 01 99 F8 FF FF 7F 01 55  0F 02 00 10 20 80 80 E5  .......U.... ...
0ED0: 0E 6E 74 90 0F 01 05 80  99 74 90 0F 01 99 F8 FF  .nt......t......
0EE0: FF 7F 01 55 0F 02 00 10  03 80 80 01 0F 6E 74 90  ...U.........nt.
0EF0: 0F 01 5D 80 99 74 90 0F  01 99 F8 FF FF 7F 01 55  ..]..t.........U
0F00: 0F 02 00 10 2C 80 80 1D  0F 6E 74 90 0F 01 5E 80  ....,....nt...^.
0F10: 99 74 90 0F 01 99 F8 FF  FF 7F 01 55 0F 02 00 10  .t.........U....
0F20: 2D 80 80 39 0F 6E 74 90  0F 01 5F 80 99 74 90 0F  -..9.nt..._..t..
0F30: 01 99 F8 FF FF 7F 01 55  0F 02 00 10 2E 80 80 55  .......U.......U
0F40: 0F 6E 74 90 0F 01 60 80  99 74 90 0F 01 99 F8 FF  .nt...`..t......
0F50: FF 7F 01 55 0F 45 61 80  F8 FF FF 7F F8 FF FF 7F  ...U.Ea.........
0F60: 73 6D 61 6D 01 80 4E 00  74 90 0F 01 80 74 90 0F  smam..N.t....t..
0F70: 01 01 20 13 02 01 10 4E  80 80 5F 10 02 00 10 01  .. ....N.._.....
0F80: 80 80 98 0F 6E 75 90 0F  01 5B 80 99 75 90 0F 01  ....nu...[..u...
0F90: 99 F8 FF FF 7F 01 40 10  02 00 10 2B 80 80 B4 0F  ......@....+....
0FA0: 6E 75 90 0F 01 5C 80 99  75 90 0F 01 99 F8 FF FF  nu...\..u.......
0FB0: 7F 01 40 10 02 00 10 20  80 80 D0 0F 6E 75 90 0F  ..@.... ....nu..
0FC0: 01 05 80 99 75 90 0F 01  99 F8 FF FF 7F 01 40 10  ....u.........@.
0FD0: 02 00 10 03 80 80 EC 0F  6E 75 90 0F 01 5D 80 99  ........nu...]..
0FE0: 75 90 0F 01 99 F8 FF FF  7F 01 40 10 02 00 10 2C  u.........@....,
0FF0: 80 80 08 10 6E 75 90 0F  01 5E 80 99 75 90 0F 01  ....nu...^..u...
1000: 99 F8 FF FF 7F 01 40 10  02 00 10 2D 80 80 24 10  ......@....-..$.
1010: 6E 75 90 0F 01 5F 80 99  75 90 0F 01 99 F8 FF FF  nu..._..u.......
1020: 7F 01 40 10 02 00 10 2E  80 80 40 10 6E 75 90 0F  ..@.......@.nu..
1030: 01 60 80 99 75 90 0F 01  99 F8 FF FF 7F 01 40 10  .`..u.........@.
1040: 45 61 80 F8 FF FF 7F F8  FF FF 7F 73 6D 61 73 01  Ea.........smas.
1050: 80 4E 00 75 90 0F 01 80  75 90 0F 01 01 20 13 02  .N.u....u.... ..
1060: 01 10 4F 80 80 4A 11 02  00 10 01 80 80 83 10 6E  ..O..J.........n
1070: 76 90 0F 01 5B 80 99 76  90 0F 01 99 F8 FF FF 7F  v...[..v........
1080: 01 2B 11 02 00 10 2B 80  80 9F 10 6E 76 90 0F 01  .+....+....nv...
1090: 5C 80 99 76 90 0F 01 99  F8 FF FF 7F 01 2B 11 02  \..v.........+..
10A0: 00 10 20 80 80 BB 10 6E  76 90 0F 01 05 80 99 76  .. ....nv......v
10B0: 90 0F 01 99 F8 FF FF 7F  01 2B 11 02 00 10 03 80  .........+......
10C0: 80 D7 10 6E 76 90 0F 01  5D 80 99 76 90 0F 01 99  ...nv...]..v....
10D0: F8 FF FF 7F 01 2B 11 02  00 10 2C 80 80 F3 10 6E  .....+....,....n
10E0: 76 90 0F 01 5E 80 99 76  90 0F 01 99 F8 FF FF 7F  v...^..v........
10F0: 01 2B 11 02 00 10 2D 80  80 0F 11 6E 76 90 0F 01  .+....-....nv...
1100: 5F 80 99 76 90 0F 01 99  F8 FF FF 7F 01 2B 11 02  _..v.........+..
1110: 00 10 2E 80 80 2B 11 6E  76 90 0F 01 60 80 99 76  .....+.nv...`..v
1120: 90 0F 01 99 F8 FF FF 7F  01 2B 11 45 61 80 F8 FF  .........+.Ea...
1130: FF 7F F8 FF FF 7F 73 6D  61 73 01 80 4E 00 76 90  ......smas..N.v.
1140: 0F 01 80 76 90 0F 01 01  20 13 02 01 10 50 80 80  ...v.... ....P..
1150: 35 12 02 00 10 01 80 80  6E 11 6E 77 90 0F 01 5B  5.......n.nw...[
1160: 80 99 77 90 0F 01 99 F8  FF FF 7F 01 16 12 02 00  ..w.............
1170: 10 2B 80 80 8A 11 6E 77  90 0F 01 5C 80 99 77 90  .+....nw...\..w.
1180: 0F 01 99 F8 FF FF 7F 01  16 12 02 00 10 20 80 80  ............. ..
1190: A6 11 6E 77 90 0F 01 05  80 99 77 90 0F 01 99 F8  ..nw......w.....
11A0: FF FF 7F 01 16 12 02 00  10 03 80 80 C2 11 6E 77  ..............nw
11B0: 90 0F 01 5D 80 99 77 90  0F 01 99 F8 FF FF 7F 01  ...]..w.........
11C0: 16 12 02 00 10 2C 80 80  DE 11 6E 77 90 0F 01 5E  .....,....nw...^
11D0: 80 99 77 90 0F 01 99 F8  FF FF 7F 01 16 12 02 00  ..w.............
11E0: 10 2D 80 80 FA 11 6E 77  90 0F 01 5F 80 99 77 90  .-....nw..._..w.
11F0: 0F 01 99 F8 FF FF 7F 01  16 12 02 00 10 2E 80 80  ................
1200: 16 12 6E 77 90 0F 01 60  80 99 77 90 0F 01 99 F8  ..nw...`..w.....
1210: FF FF 7F 01 16 12 45 61  80 F8 FF FF 7F F8 FF FF  ......Ea........
1220: 7F 73 6D 61 6D 01 80 4E  00 77 90 0F 01 80 77 90  .smam..N.w....w.
1230: 0F 01 01 20 13 02 01 10  51 80 80 20 13 02 00 10  ... ....Q.. ....
1240: 01 80 80 59 12 6E 78 90  0F 01 5B 80 99 78 90 0F  ...Y.nx...[..x..
1250: 01 99 F8 FF FF 7F 01 01  13 02 00 10 2B 80 80 75  ............+..u
1260: 12 6E 78 90 0F 01 5C 80  99 78 90 0F 01 99 F8 FF  .nx...\..x......
1270: FF 7F 01 01 13 02 00 10  20 80 80 91 12 6E 78 90  ........ ....nx.
1280: 0F 01 05 80 99 78 90 0F  01 99 F8 FF FF 7F 01 01  .....x..........
1290: 13 02 00 10 03 80 80 AD  12 6E 78 90 0F 01 5D 80  .........nx...].
12A0: 99 78 90 0F 01 99 F8 FF  FF 7F 01 01 13 02 00 10  .x..............
12B0: 2C 80 80 C9 12 6E 78 90  0F 01 5E 80 99 78 90 0F  ,....nx...^..x..
12C0: 01 99 F8 FF FF 7F 01 01  13 02 00 10 2D 80 80 E5  ............-...
12D0: 12 6E 78 90 0F 01 5F 80  99 78 90 0F 01 99 F8 FF  .nx..._..x......
12E0: FF 7F 01 01 13 02 00 10  2E 80 80 01 13 6E 78 90  .............nx.
12F0: 0F 01 60 80 99 78 90 0F  01 99 F8 FF FF 7F 01 01  ..`..x..........
1300: 13 45 61 80 F8 FF FF 7F  F8 FF FF 7F 73 6D 61 6C  .Ea.........smal
1310: 01 80 4E 00 78 90 0F 01  80 78 90 0F 01 01 20 13  ..N.x....x.... .
1320: 4E 01 F0 FF FF 7F 45 00  80 F8 FF FF 7F F8 FF FF  N.....E.........
1330: 7F 66 64 69 31 01 80 55  00 80 F8 FF FF 7F F8 FF  .fdi1..U........
1340: FF 7F 66 64 69 31 1D 62  80 23 1B 45 00 80 F8 FF  ..fdi1.b.#.E....
1350: FF 7F F8 FF FF 7F 66 64  6F 31 01 80 55 00 80 F8  ......fdo1..U...
1360: FF FF 7F F8 FF FF 7F 66  64 6F 31 38 01 80 22 00  .......fdo18..".
1370: 4E 01 71 90 0F 01 4E 01  72 90 0F 01 4E 01 73 90  N.q...N.r...N.s.
1380: 0F 01 4E 01 74 90 0F 01  4E 01 75 90 0F 01 4E 01  ..N.t...N.u...N.
1390: 76 90 0F 01 4E 01 77 90  0F 01 4E 01 78 90 0F 01  v...N.w...N.x...
13A0: 4E 00 F0 FF FF 7F 80 F8  FF FF 7F 80 F0 FF FF 7F  N...............
13B0: 46 00 45 00 80 F8 FF FF  7F F8 FF FF 7F 66 64 69  F.E..........fdi
13C0: 31 01 80 55 00 80 F8 FF  FF 7F F8 FF FF 7F 66 64  1..U..........fd
13D0: 69 31 1B                                          i1.             
```

#### Opcodes

```
  0: 0x051E [0x1E] EventEntity looks at LocalPlayer and starts talking
  1: 0x0523 [0x02] IF !(Work_Zone[8] == 713*) GOTO 0x05A0
  2: 0x052B [0x1D] PRINT_EVENT_MESSAGE(message_id=7640*)
    → "Hm? Hm? Hm? Could that be what I think it is...?"
  3: 0x052E [0x23] WAIT_FOR_DIALOG_INTERACTION
  4: 0x052F [0x66] LOAD_EXT_SCHEDULER_MAIN: Load scheduler "tlk0" with entities [EventEntity, EventEntity], work=50*
  5: 0x053E [0x1D] PRINT_EVENT_MESSAGE(message_id=7641*)
    → "It is! It is! A copy of $3! I've been looking all over for one of these!"
  6: 0x0541 [0x23] WAIT_FOR_DIALOG_INTERACTION
  7: 0x0542 [0x66] LOAD_EXT_SCHEDULER_MAIN: Load scheduler "tlk2" with entities [EventEntity, EventEntity], work=50*
  8: 0x0551 [0x66] LOAD_EXT_SCHEDULER_MAIN: Load scheduler "thk1" with entities [EventEntity, EventEntity], work=50*
  9: 0x0560 [0x1D] PRINT_EVENT_MESSAGE(message_id=7642*)
    → "Let's see... ... ... ..."
 10: 0x0563 [0x23] WAIT_FOR_DIALOG_INTERACTION
 11: 0x0564 [0x1D] PRINT_EVENT_MESSAGE(message_id=7643*)
    → "... ... Wow... I neverrr would have thought of that..."
 12: 0x0567 [0x23] WAIT_FOR_DIALOG_INTERACTION
 13: 0x0568 [0x66] LOAD_EXT_SCHEDULER_MAIN: Load scheduler "thk2" with entities [EventEntity, EventEntity], work=50*
 14: 0x0577 [0x1D] PRINT_EVENT_MESSAGE(message_id=7644*)
    → "What? You'rrre still here? Okay, okay. To thank you for the magazine, here's what I'll do. For the low, low price of $4 gil, I'll change the pose of any of your mannequins to match these sketches."
 15: 0x057A [0x23] WAIT_FOR_DIALOG_INTERACTION
 16: 0x057B [0x66] LOAD_EXT_SCHEDULER_MAIN: Load scheduler "tlk0" with entities [EventEntity, EventEntity], work=50*
 17: 0x058A [0x1D] PRINT_EVENT_MESSAGE(message_id=7645*)
    → "Huh? You want me to do it for frrree? Hey, a lady's got to make a living, you know!"
 18: 0x058D [0x23] WAIT_FOR_DIALOG_INTERACTION
 19: 0x058E [0x66] LOAD_EXT_SCHEDULER_MAIN: Load scheduler "tlk2" with entities [EventEntity, EventEntity], work=50*
 20: 0x059D [0x01] GOTO 0x05B0
 21: 0x05A0 [0x1D] PRINT_EVENT_MESSAGE(message_id=7625*)
    → "Hey hey! It's my best customer, <Player>. No, and I'm not just saying that!"
 22: 0x05A3 [0x23] WAIT_FOR_DIALOG_INTERACTION
 23: 0x05A4 [0x1D] PRINT_EVENT_MESSAGE(message_id=7626*)
    → "Thanks to you and your frrriends, my business is booming! You want a new mannequin, I have all shapes and sizes! You want to trrrade in your old mannequin? I'll give you a grrreat deal!"
 24: 0x05A7 [0x23] WAIT_FOR_DIALOG_INTERACTION
 25: 0x05A8 [0x1D] PRINT_EVENT_MESSAGE(message_id=7627*)
    → "And now, for a limited time only, I'll even customize your mannequin! That's right, for a nominal fee, I'll brrring that piece of wood to life by changing its pose!"
 26: 0x05AB [0x23] WAIT_FOR_DIALOG_INTERACTION
 27: 0x05AC [0x1D] PRINT_EVENT_MESSAGE(message_id=7628*)
    → "My price list is as follows... 1 new mannequin (without trade-in): $2 gil. 1 new mannequin (with trade-in): $3 gil. Pose change: $4 gil."
 28: 0x05AF [0x23] WAIT_FOR_DIALOG_INTERACTION

SUBROUTINE_05B0:
 29: 0x05B0 [0x1D] PRINT_EVENT_MESSAGE(message_id=7629*)
    → "So, what do you say?"
 30: 0x05B3 [0x23] WAIT_FOR_DIALOG_INTERACTION
 31: 0x05B4 [0x06] ExtData[1]->WorkLocal[0] = 0
 32: 0x05B7 [0x02] IF !(Work_Zone[3] == 0*) GOTO 0x05C9
 33: 0x05BF [0x3C] SET_BIT_FLAG_CONDITIONAL(target_work_offset=ExtData[1]->WorkLocal[0], bit_index_work_offset=3*, condition_work_offset=1*)
 34: 0x05C6 [0x01] GOTO 0x05D8
 35: 0x05C9 [0x02] IF !(Work_Zone[3] == 255*) GOTO 0x05D8
 36: 0x05D1 [0x3C] SET_BIT_FLAG_CONDITIONAL(target_work_offset=ExtData[1]->WorkLocal[0], bit_index_work_offset=1*, condition_work_offset=1*)

SUBROUTINE_05D8:
 37: 0x05D8 [0x02] IF !(Work_Zone[8] == 713*) GOTO 0x05FD
 38: 0x05E0 [0x02] IF !(Work_Zone[3] == 0*) GOTO 0x05EF
 39: 0x05E8 [0x1D] PRINT_EVENT_MESSAGE(message_id=7646*)
    → "Oh, and while you'rrre here, why not buy one of my high-quality mannequins to add to your collection!?"
 40: 0x05EB [0x23] WAIT_FOR_DIALOG_INTERACTION
 41: 0x05EC [0x01] GOTO 0x05F6
 42: 0x05EF [0x3C] SET_BIT_FLAG_CONDITIONAL(target_work_offset=ExtData[1]->WorkLocal[0], bit_index_work_offset=1*, condition_work_offset=1*)

SUBROUTINE_05F6:
 43: 0x05F6 [0x3C] SET_BIT_FLAG_CONDITIONAL(target_work_offset=ExtData[1]->WorkLocal[0], bit_index_work_offset=2*, condition_work_offset=1*)
 44: 0x05FD [0x24] CREATE_DIALOG(message_id=7630*, default_option=0*, option_flags=ExtData[1]->WorkLocal[0])
    → "Which transaction do you request? [Nothing./Buy ($2 gil)./Trade ($3 gil)./Pose ($4 gil).]"
 45: 0x0604 [0x25] WAIT_DIALOG_SELECT()
 46: 0x0605 [0x02] IF !(Work_Zone[0] == 0*) GOTO 0x0619
 47: 0x060D [0x1D] PRINT_EVENT_MESSAGE(message_id=7611*)
    → "Okay. Well, if you change your mind, you know where I'll be!"
 48: 0x0610 [0x23] WAIT_FOR_DIALOG_INTERACTION
 49: 0x0611 [0x03] Work_Zone[1] = 0*
 50: 0x0616 [0x01] GOTO 0x088F
 51: 0x0619 [0x02] IF !(Work_Zone[0] == 1*) GOTO 0x0742
 52: 0x0621 [0x42] SET_CLI_EVENT_CANCEL_DATA()
 53: 0x0622 [0x1D] PRINT_EVENT_MESSAGE(message_id=7605*)
    → "And which type of mannequin would you like?"
 54: 0x0625 [0x23] WAIT_FOR_DIALOG_INTERACTION
 55: 0x0626 [0x03] ExtData[1]->WorkLocal[2] = Work_Zone[3]
 56: 0x062B [0x03] Work_Zone[2] = 256*
 57: 0x0630 [0x03] Work_Zone[3] = 257*
 58: 0x0635 [0x03] Work_Zone[4] = 258*
 59: 0x063A [0x03] Work_Zone[5] = 259*
 60: 0x063F [0x03] Work_Zone[6] = 260*
 61: 0x0644 [0x03] Work_Zone[7] = 261*
 62: 0x0649 [0x03] Work_Zone[8] = 262*
 63: 0x064E [0x03] Work_Zone[9] = 263*

SUBROUTINE_0653:
 64: 0x0653 [0x24] CREATE_DIALOG(message_id=7606*, default_option=0*, option_flags=ExtData[1]->WorkLocal[2])
    → "Well...? [$0./$1./$2./$3./$4./$5./$6./$7./Never mind.]"
 65: 0x065A [0x25] WAIT_DIALOG_SELECT()
 66: 0x065B [0x02] IF !(Work_Zone[0] == 0*) GOTO 0x0673
 67: 0x0663 [0x03] ExtData[1]->WorkLocal[0] = 256*
 68: 0x0668 [0x03] ExtData[1]->WorkLocal[1] = 1*
 69: 0x066D [0x1A] CALL_SUBROUTINE(address=0x0891)
 70: 0x0670 [0x01] GOTO 0x0734
 71: 0x0673 [0x02] IF !(Work_Zone[0] == 1*) GOTO 0x068B
 72: 0x067B [0x03] ExtData[1]->WorkLocal[0] = 257*
 73: 0x0680 [0x03] ExtData[1]->WorkLocal[1] = 2*
 74: 0x0685 [0x1A] CALL_SUBROUTINE(address=0x0891)
 75: 0x0688 [0x01] GOTO 0x0734
 76: 0x068B [0x02] IF !(Work_Zone[0] == 2*) GOTO 0x06A3
 77: 0x0693 [0x03] ExtData[1]->WorkLocal[0] = 258*
 78: 0x0698 [0x03] ExtData[1]->WorkLocal[1] = 3*
 79: 0x069D [0x1A] CALL_SUBROUTINE(address=0x0891)
 80: 0x06A0 [0x01] GOTO 0x0734
 81: 0x06A3 [0x02] IF !(Work_Zone[0] == 3*) GOTO 0x06BB
 82: 0x06AB [0x03] ExtData[1]->WorkLocal[0] = 259*
 83: 0x06B0 [0x03] ExtData[1]->WorkLocal[1] = 4*
 84: 0x06B5 [0x1A] CALL_SUBROUTINE(address=0x0891)
 85: 0x06B8 [0x01] GOTO 0x0734
 86: 0x06BB [0x02] IF !(Work_Zone[0] == 4*) GOTO 0x06D3
 87: 0x06C3 [0x03] ExtData[1]->WorkLocal[0] = 260*
 88: 0x06C8 [0x03] ExtData[1]->WorkLocal[1] = 5*
 89: 0x06CD [0x1A] CALL_SUBROUTINE(address=0x0891)
 90: 0x06D0 [0x01] GOTO 0x0734
 91: 0x06D3 [0x02] IF !(Work_Zone[0] == 5*) GOTO 0x06EB
 92: 0x06DB [0x03] ExtData[1]->WorkLocal[0] = 261*
 93: 0x06E0 [0x03] ExtData[1]->WorkLocal[1] = 6*
 94: 0x06E5 [0x1A] CALL_SUBROUTINE(address=0x0891)
 95: 0x06E8 [0x01] GOTO 0x0734
 96: 0x06EB [0x02] IF !(Work_Zone[0] == 6*) GOTO 0x0703
 97: 0x06F3 [0x03] ExtData[1]->WorkLocal[0] = 262*
 98: 0x06F8 [0x03] ExtData[1]->WorkLocal[1] = 7*
 99: 0x06FD [0x1A] CALL_SUBROUTINE(address=0x0891)
100: 0x0700 [0x01] GOTO 0x0734
101: 0x0703 [0x02] IF !(Work_Zone[0] == 7*) GOTO 0x071B
102: 0x070B [0x03] ExtData[1]->WorkLocal[0] = 263*
103: 0x0710 [0x03] ExtData[1]->WorkLocal[1] = 8*
104: 0x0715 [0x1A] CALL_SUBROUTINE(address=0x0891)
105: 0x0718 [0x01] GOTO 0x0734
106: 0x071B [0x02] IF !(Work_Zone[0] == 8*) GOTO 0x0734
107: 0x0723 [0x1D] PRINT_EVENT_MESSAGE(message_id=7611*)
    → "Okay. Well, if you change your mind, you know where I'll be!"
108: 0x0726 [0x23] WAIT_FOR_DIALOG_INTERACTION
109: 0x0727 [0x03] Work_Zone[1] = 0*
110: 0x072C [0x03] ExtData[1]->WorkLocal[0] = 0*
111: 0x0731 [0x01] GOTO 0x0734

SUBROUTINE_0734:
112: 0x0734 [0x02] IF !(ExtData[1]->WorkLocal[0] == 0*) GOTO 0x073F
113: 0x073C [0x01] GOTO 0x0653
114: 0x073F [0x01] GOTO 0x088F
115: 0x0742 [0x02] IF !(Work_Zone[0] == 2*) GOTO 0x0756
116: 0x074A [0x1D] PRINT_EVENT_MESSAGE(message_id=7631*)
    → "Alright! Just trrrade me your mannequin and I can begin! Oh, and don't forget to be carrying the rrremarkably rrreasonable fee of $3 gil."
117: 0x074D [0x23] WAIT_FOR_DIALOG_INTERACTION
118: 0x074E [0x03] Work_Zone[1] = 0*
119: 0x0753 [0x01] GOTO 0x088F
120: 0x0756 [0x02] IF !(Work_Zone[0] == 3*) GOTO 0x088F
121: 0x075E [0x02] IF !(Work_Zone[7] < Work_Zone[6]) GOTO 0x0883
122: 0x0766 [0x42] SET_CLI_EVENT_CANCEL_DATA()
123: 0x0767 [0x1D] PRINT_EVENT_MESSAGE(message_id=7634*)
    → "Now let's see... Which of your mannequins' poses would you like to change?"
124: 0x076A [0x23] WAIT_FOR_DIALOG_INTERACTION
125: 0x076B [0x03] ExtData[1]->WorkLocal[2] = Work_Zone[3]
126: 0x0770 [0x0F] ExtData[1]->WorkLocal[2] ^= 4294967295*
127: 0x0775 [0x3D] CLEAR_BIT_FLAG_CONDITIONAL(target_work_offset=ExtData[1]->WorkLocal[2], bit_index_work_offset=8*, condition_work_offset=1*)
128: 0x077C [0x03] Work_Zone[2] = 256*
129: 0x0781 [0x03] Work_Zone[3] = 257*
130: 0x0786 [0x03] Work_Zone[4] = 258*
131: 0x078B [0x03] Work_Zone[5] = 259*
132: 0x0790 [0x03] Work_Zone[6] = 260*
133: 0x0795 [0x03] Work_Zone[7] = 261*
134: 0x079A [0x03] Work_Zone[8] = 262*
135: 0x079F [0x03] Work_Zone[9] = 263*
136: 0x07A4 [0x24] CREATE_DIALOG(message_id=7606*, default_option=0*, option_flags=ExtData[1]->WorkLocal[2])
    → "Well...? [$0./$1./$2./$3./$4./$5./$6./$7./Never mind.]"
137: 0x07AB [0x25] WAIT_DIALOG_SELECT()
138: 0x07AC [0x02] IF !(Work_Zone[0] == 0*) GOTO 0x07C4
139: 0x07B4 [0x03] Work_Zone[2] = 256*
140: 0x07B9 [0x03] Work_Zone[1] = 11*
141: 0x07BE [0x1A] CALL_SUBROUTINE(address=0x0918)
142: 0x07C1 [0x01] GOTO 0x0880
143: 0x07C4 [0x02] IF !(Work_Zone[0] == 1*) GOTO 0x07DC
144: 0x07CC [0x03] Work_Zone[2] = 257*
145: 0x07D1 [0x03] Work_Zone[1] = 12*
146: 0x07D6 [0x1A] CALL_SUBROUTINE(address=0x0918)
147: 0x07D9 [0x01] GOTO 0x0880
148: 0x07DC [0x02] IF !(Work_Zone[0] == 2*) GOTO 0x07F4
149: 0x07E4 [0x03] Work_Zone[2] = 258*
150: 0x07E9 [0x03] Work_Zone[1] = 13*
151: 0x07EE [0x1A] CALL_SUBROUTINE(address=0x0918)
152: 0x07F1 [0x01] GOTO 0x0880
153: 0x07F4 [0x02] IF !(Work_Zone[0] == 3*) GOTO 0x080C
154: 0x07FC [0x03] Work_Zone[2] = 259*
155: 0x0801 [0x03] Work_Zone[1] = 14*
156: 0x0806 [0x1A] CALL_SUBROUTINE(address=0x0918)
157: 0x0809 [0x01] GOTO 0x0880
158: 0x080C [0x02] IF !(Work_Zone[0] == 4*) GOTO 0x0824
159: 0x0814 [0x03] Work_Zone[2] = 260*
160: 0x0819 [0x03] Work_Zone[1] = 15*
161: 0x081E [0x1A] CALL_SUBROUTINE(address=0x0918)
162: 0x0821 [0x01] GOTO 0x0880
163: 0x0824 [0x02] IF !(Work_Zone[0] == 5*) GOTO 0x083C
164: 0x082C [0x03] Work_Zone[2] = 261*
165: 0x0831 [0x03] Work_Zone[1] = 16*
166: 0x0836 [0x1A] CALL_SUBROUTINE(address=0x0918)
167: 0x0839 [0x01] GOTO 0x0880
168: 0x083C [0x02] IF !(Work_Zone[0] == 6*) GOTO 0x0854
169: 0x0844 [0x03] Work_Zone[2] = 262*
170: 0x0849 [0x03] Work_Zone[1] = 17*
171: 0x084E [0x1A] CALL_SUBROUTINE(address=0x0918)
172: 0x0851 [0x01] GOTO 0x0880
173: 0x0854 [0x02] IF !(Work_Zone[0] == 7*) GOTO 0x086C
174: 0x085C [0x03] Work_Zone[2] = 263*
175: 0x0861 [0x03] Work_Zone[1] = 18*
176: 0x0866 [0x1A] CALL_SUBROUTINE(address=0x0918)
177: 0x0869 [0x01] GOTO 0x0880
178: 0x086C [0x02] IF !(Work_Zone[0] == 8*) GOTO 0x0880
179: 0x0874 [0x1D] PRINT_EVENT_MESSAGE(message_id=7611*)
    → "Okay. Well, if you change your mind, you know where I'll be!"
180: 0x0877 [0x23] WAIT_FOR_DIALOG_INTERACTION
181: 0x0878 [0x03] Work_Zone[1] = 0*
182: 0x087D [0x01] GOTO 0x0880

SUBROUTINE_0880:
183: 0x0880 [0x01] GOTO 0x088C
184: 0x0883 [0x1D] PRINT_EVENT_MESSAGE(message_id=7609*)
    → "Alrrright! Here you... Wait a minute. Are you trying to pull a fast one on me? That's not enough gil to feed my dog his supperrr!"
185: 0x0886 [0x23] WAIT_FOR_DIALOG_INTERACTION
186: 0x0887 [0x03] Work_Zone[1] = 0*

SUBROUTINE_088C:
187: 0x088C [0x01] GOTO 0x088F

SUBROUTINE_088F:
188: 0x088F [0x21] END_EVENT
189: 0x0890 [0x00] END_REQSTACK()

SUBROUTINE_0891:
190: 0x0891 [0x93] DISPLAY_ITEM_INFO(item_id=ExtData[1]->WorkLocal[0])
191: 0x0894 [0x1D] PRINT_EVENT_MESSAGE(message_id=7607*)
    → "Are you surrre that's the one you want?"
192: 0x0897 [0x23] WAIT_FOR_DIALOG_INTERACTION
193: 0x0898 [0x93] DISPLAY_ITEM_INFO(item_id=0*)
194: 0x089B [0x24] CREATE_DIALOG(message_id=7608*, default_option=1*, option_flags=0*)
    → "Well...? [I'm sure./I don't know...]"
195: 0x08A2 [0x25] WAIT_DIALOG_SELECT()
196: 0x08A3 [0x02] IF !(Work_Zone[0] == 0*) GOTO 0x08D4
197: 0x08AB [0x43] SEND_EVENT_UPDATE: Send pending tag to server (packet 0x005B)
198: 0x08AD [0x43] SEND_EVENT_UPDATE: Check pending flag (skip if not pending)
199: 0x08AF [0x02] IF !(Work_Zone[2] == 1*) GOTO 0x08C3
200: 0x08B7 [0x1D] PRINT_EVENT_MESSAGE(message_id=7610*)
    → "Alrrright! Here you go. Sorry that I couldn't ship it to your Mog House."
201: 0x08BA [0x23] WAIT_FOR_DIALOG_INTERACTION
202: 0x08BB [0x03] Work_Zone[1] = ExtData[1]->WorkLocal[1]
203: 0x08C0 [0x01] GOTO 0x08CC
204: 0x08C3 [0x1D] PRINT_EVENT_MESSAGE(message_id=7609*)
    → "Alrrright! Here you... Wait a minute. Are you trying to pull a fast one on me? That's not enough gil to feed my dog his supperrr!"
205: 0x08C6 [0x23] WAIT_FOR_DIALOG_INTERACTION
206: 0x08C7 [0x03] Work_Zone[1] = 0*

SUBROUTINE_08CC:
207: 0x08CC [0x03] ExtData[1]->WorkLocal[0] = 0*
208: 0x08D1 [0x01] GOTO 0x08E4
209: 0x08D4 [0x02] IF !(Work_Zone[0] == 1*) GOTO 0x08E4
210: 0x08DC [0x03] ExtData[1]->WorkLocal[0] = 1*
211: 0x08E1 [0x01] GOTO 0x08E4

SUBROUTINE_08E4:
212: 0x08E4 [0x1B] RETURN

SUBROUTINE_0918:
213: 0x0918 [0x06] ExtData[1]->WorkLocal[3] = 0
214: 0x091B [0x1D] PRINT_EVENT_MESSAGE(message_id=7635*)
    → "Ah, so you'd like to change your $0's pose. Here, now choose a new look for your companion from this list."
215: 0x091E [0x23] WAIT_FOR_DIALOG_INTERACTION
216: 0x091F [0x43] SEND_EVENT_UPDATE: Send pending tag to server (packet 0x005B)
217: 0x0921 [0x43] SEND_EVENT_UPDATE: Check pending flag (skip if not pending)
218: 0x0923 [0x03] Work_Zone[1] = Work_Zone[4]
219: 0x0928 [0x03] ExtData[1]->WorkLocal[2] = 0*
220: 0x092D [0x02] IF !(Work_Zone[5] == 0*) GOTO 0x093F
221: 0x0935 [0x3C] SET_BIT_FLAG_CONDITIONAL(target_work_offset=ExtData[1]->WorkLocal[2], bit_index_work_offset=0*, condition_work_offset=1*)
222: 0x093C [0x01] GOTO 0x09AB
223: 0x093F [0x02] IF !(Work_Zone[5] == 1*) GOTO 0x0951
224: 0x0947 [0x3C] SET_BIT_FLAG_CONDITIONAL(target_work_offset=ExtData[1]->WorkLocal[2], bit_index_work_offset=1*, condition_work_offset=1*)
225: 0x094E [0x01] GOTO 0x09AB
226: 0x0951 [0x02] IF !(Work_Zone[5] == 2*) GOTO 0x0963
227: 0x0959 [0x3C] SET_BIT_FLAG_CONDITIONAL(target_work_offset=ExtData[1]->WorkLocal[2], bit_index_work_offset=2*, condition_work_offset=1*)
228: 0x0960 [0x01] GOTO 0x09AB
229: 0x0963 [0x02] IF !(Work_Zone[5] == 3*) GOTO 0x0975
230: 0x096B [0x3C] SET_BIT_FLAG_CONDITIONAL(target_work_offset=ExtData[1]->WorkLocal[2], bit_index_work_offset=3*, condition_work_offset=1*)
231: 0x0972 [0x01] GOTO 0x09AB
232: 0x0975 [0x02] IF !(Work_Zone[5] == 4*) GOTO 0x0987
233: 0x097D [0x3C] SET_BIT_FLAG_CONDITIONAL(target_work_offset=ExtData[1]->WorkLocal[2], bit_index_work_offset=4*, condition_work_offset=1*)
234: 0x0984 [0x01] GOTO 0x09AB
235: 0x0987 [0x02] IF !(Work_Zone[5] == 8*) GOTO 0x0999
236: 0x098F [0x3C] SET_BIT_FLAG_CONDITIONAL(target_work_offset=ExtData[1]->WorkLocal[2], bit_index_work_offset=5*, condition_work_offset=1*)
237: 0x0996 [0x01] GOTO 0x09AB
238: 0x0999 [0x02] IF !(Work_Zone[5] == 16*) GOTO 0x09AB
239: 0x09A1 [0x3C] SET_BIT_FLAG_CONDITIONAL(target_work_offset=ExtData[1]->WorkLocal[2], bit_index_work_offset=6*, condition_work_offset=1*)
240: 0x09A8 [0x01] GOTO 0x09AB

SUBROUTINE_09AB:
241: 0x09AB [0x24] CREATE_DIALOG(message_id=7636*, default_option=0*, option_flags=ExtData[1]->WorkLocal[2])
    → "Which pose do you want? [Normal.//sit.//salute (San d'Oria).//salute (Bastok).//salute (Windurst).//hurray./Special order./None of these.]"
242: 0x09B2 [0x25] WAIT_DIALOG_SELECT()
243: 0x09B3 [0x02] IF !(Work_Zone[0] == 0*) GOTO 0x09F2
244: 0x09BB [0x1A] CALL_SUBROUTINE(address=0x0B9E)
245: 0x09BE [0x24] CREATE_DIALOG(message_id=7638*, default_option=1*, option_flags=0*)
    → "Is it? [Yes./No.]"
246: 0x09C5 [0x25] WAIT_DIALOG_SELECT()
247: 0x09C6 [0x02] IF !(Work_Zone[0] == 0*) GOTO 0x09E1
248: 0x09CE [0x1A] CALL_SUBROUTINE(address=0x134B)
249: 0x09D1 [0x40] SET_BIT_WORK_RANGE(start_bit=5*, end_bit=9*, target=Work_Zone[1], source=0*)
250: 0x09DA [0x1D] PRINT_EVENT_MESSAGE(message_id=7639*)
    → "Okay! My work is done. Oh, and if you ever get tirrred of that pose, you know where to come!"
251: 0x09DD [0x23] WAIT_FOR_DIALOG_INTERACTION
252: 0x09DE [0x01] GOTO 0x09EF
253: 0x09E1 [0x02] IF !(Work_Zone[0] == 1*) GOTO 0x09EF
254: 0x09E9 [0x01] GOTO 0x09AB

SUBROUTINE_09EF:
255: 0x09EF [0x01] GOTO 0x0B9D
256: 0x09F2 [0x02] IF !(Work_Zone[0] == 1*) GOTO 0x0A34
257: 0x09FA [0x05] ExtData[1]->WorkLocal[3] = 1
258: 0x09FD [0x1A] CALL_SUBROUTINE(address=0x0B9E)
259: 0x0A00 [0x24] CREATE_DIALOG(message_id=7638*, default_option=1*, option_flags=0*)
    → "Is it? [Yes./No.]"
260: 0x0A07 [0x25] WAIT_DIALOG_SELECT()
261: 0x0A08 [0x02] IF !(Work_Zone[0] == 0*) GOTO 0x0A23
262: 0x0A10 [0x1A] CALL_SUBROUTINE(address=0x134B)
263: 0x0A13 [0x40] SET_BIT_WORK_RANGE(start_bit=5*, end_bit=9*, target=Work_Zone[1], source=1*)
264: 0x0A1C [0x1D] PRINT_EVENT_MESSAGE(message_id=7639*)
    → "Okay! My work is done. Oh, and if you ever get tirrred of that pose, you know where to come!"
265: 0x0A1F [0x23] WAIT_FOR_DIALOG_INTERACTION
266: 0x0A20 [0x01] GOTO 0x0A31
267: 0x0A23 [0x02] IF !(Work_Zone[0] == 1*) GOTO 0x0A31
268: 0x0A2B [0x01] GOTO 0x09AB

SUBROUTINE_0A31:
269: 0x0A31 [0x01] GOTO 0x0B9D
270: 0x0A34 [0x02] IF !(Work_Zone[0] == 2*) GOTO 0x0A76
271: 0x0A3C [0x05] ExtData[1]->WorkLocal[3] = 1
272: 0x0A3F [0x1A] CALL_SUBROUTINE(address=0x0B9E)
273: 0x0A42 [0x24] CREATE_DIALOG(message_id=7638*, default_option=1*, option_flags=0*)
    → "Is it? [Yes./No.]"
274: 0x0A49 [0x25] WAIT_DIALOG_SELECT()
275: 0x0A4A [0x02] IF !(Work_Zone[0] == 0*) GOTO 0x0A65
276: 0x0A52 [0x1A] CALL_SUBROUTINE(address=0x134B)
277: 0x0A55 [0x40] SET_BIT_WORK_RANGE(start_bit=5*, end_bit=9*, target=Work_Zone[1], source=2*)
278: 0x0A5E [0x1D] PRINT_EVENT_MESSAGE(message_id=7639*)
    → "Okay! My work is done. Oh, and if you ever get tirrred of that pose, you know where to come!"
279: 0x0A61 [0x23] WAIT_FOR_DIALOG_INTERACTION
280: 0x0A62 [0x01] GOTO 0x0A73
281: 0x0A65 [0x02] IF !(Work_Zone[0] == 1*) GOTO 0x0A73
282: 0x0A6D [0x01] GOTO 0x09AB

SUBROUTINE_0A73:
283: 0x0A73 [0x01] GOTO 0x0B9D
284: 0x0A76 [0x02] IF !(Work_Zone[0] == 3*) GOTO 0x0AB8
285: 0x0A7E [0x05] ExtData[1]->WorkLocal[3] = 1
286: 0x0A81 [0x1A] CALL_SUBROUTINE(address=0x0B9E)
287: 0x0A84 [0x24] CREATE_DIALOG(message_id=7638*, default_option=1*, option_flags=0*)
    → "Is it? [Yes./No.]"
288: 0x0A8B [0x25] WAIT_DIALOG_SELECT()
289: 0x0A8C [0x02] IF !(Work_Zone[0] == 0*) GOTO 0x0AA7
290: 0x0A94 [0x1A] CALL_SUBROUTINE(address=0x134B)
291: 0x0A97 [0x40] SET_BIT_WORK_RANGE(start_bit=5*, end_bit=9*, target=Work_Zone[1], source=3*)
292: 0x0AA0 [0x1D] PRINT_EVENT_MESSAGE(message_id=7639*)
    → "Okay! My work is done. Oh, and if you ever get tirrred of that pose, you know where to come!"
293: 0x0AA3 [0x23] WAIT_FOR_DIALOG_INTERACTION
294: 0x0AA4 [0x01] GOTO 0x0AB5
295: 0x0AA7 [0x02] IF !(Work_Zone[0] == 1*) GOTO 0x0AB5
296: 0x0AAF [0x01] GOTO 0x09AB

SUBROUTINE_0AB5:
297: 0x0AB5 [0x01] GOTO 0x0B9D
298: 0x0AB8 [0x02] IF !(Work_Zone[0] == 4*) GOTO 0x0AFA
299: 0x0AC0 [0x05] ExtData[1]->WorkLocal[3] = 1
300: 0x0AC3 [0x1A] CALL_SUBROUTINE(address=0x0B9E)
301: 0x0AC6 [0x24] CREATE_DIALOG(message_id=7638*, default_option=1*, option_flags=0*)
    → "Is it? [Yes./No.]"
302: 0x0ACD [0x25] WAIT_DIALOG_SELECT()
303: 0x0ACE [0x02] IF !(Work_Zone[0] == 0*) GOTO 0x0AE9
304: 0x0AD6 [0x1A] CALL_SUBROUTINE(address=0x134B)
305: 0x0AD9 [0x40] SET_BIT_WORK_RANGE(start_bit=5*, end_bit=9*, target=Work_Zone[1], source=4*)
306: 0x0AE2 [0x1D] PRINT_EVENT_MESSAGE(message_id=7639*)
    → "Okay! My work is done. Oh, and if you ever get tirrred of that pose, you know where to come!"
307: 0x0AE5 [0x23] WAIT_FOR_DIALOG_INTERACTION
308: 0x0AE6 [0x01] GOTO 0x0AF7
309: 0x0AE9 [0x02] IF !(Work_Zone[0] == 1*) GOTO 0x0AF7
310: 0x0AF1 [0x01] GOTO 0x09AB

SUBROUTINE_0AF7:
311: 0x0AF7 [0x01] GOTO 0x0B9D
312: 0x0AFA [0x02] IF !(Work_Zone[0] == 5*) GOTO 0x0B3C
313: 0x0B02 [0x05] ExtData[1]->WorkLocal[3] = 1
314: 0x0B05 [0x1A] CALL_SUBROUTINE(address=0x0B9E)
315: 0x0B08 [0x24] CREATE_DIALOG(message_id=7638*, default_option=1*, option_flags=0*)
    → "Is it? [Yes./No.]"
316: 0x0B0F [0x25] WAIT_DIALOG_SELECT()
317: 0x0B10 [0x02] IF !(Work_Zone[0] == 0*) GOTO 0x0B2B
318: 0x0B18 [0x1A] CALL_SUBROUTINE(address=0x134B)
319: 0x0B1B [0x40] SET_BIT_WORK_RANGE(start_bit=5*, end_bit=9*, target=Work_Zone[1], source=8*)
320: 0x0B24 [0x1D] PRINT_EVENT_MESSAGE(message_id=7639*)
    → "Okay! My work is done. Oh, and if you ever get tirrred of that pose, you know where to come!"
321: 0x0B27 [0x23] WAIT_FOR_DIALOG_INTERACTION
322: 0x0B28 [0x01] GOTO 0x0B39
323: 0x0B2B [0x02] IF !(Work_Zone[0] == 1*) GOTO 0x0B39
324: 0x0B33 [0x01] GOTO 0x09AB

SUBROUTINE_0B39:
325: 0x0B39 [0x01] GOTO 0x0B9D
326: 0x0B3C [0x02] IF !(Work_Zone[0] == 6*) GOTO 0x0B7E
327: 0x0B44 [0x05] ExtData[1]->WorkLocal[3] = 1
328: 0x0B47 [0x1A] CALL_SUBROUTINE(address=0x0B9E)
329: 0x0B4A [0x24] CREATE_DIALOG(message_id=7638*, default_option=1*, option_flags=0*)
    → "Is it? [Yes./No.]"
330: 0x0B51 [0x25] WAIT_DIALOG_SELECT()
331: 0x0B52 [0x02] IF !(Work_Zone[0] == 0*) GOTO 0x0B6D
332: 0x0B5A [0x1A] CALL_SUBROUTINE(address=0x134B)
333: 0x0B5D [0x40] SET_BIT_WORK_RANGE(start_bit=5*, end_bit=9*, target=Work_Zone[1], source=16*)
334: 0x0B66 [0x1D] PRINT_EVENT_MESSAGE(message_id=7639*)
    → "Okay! My work is done. Oh, and if you ever get tirrred of that pose, you know where to come!"
335: 0x0B69 [0x23] WAIT_FOR_DIALOG_INTERACTION
336: 0x0B6A [0x01] GOTO 0x0B7B
337: 0x0B6D [0x02] IF !(Work_Zone[0] == 1*) GOTO 0x0B7B
338: 0x0B75 [0x01] GOTO 0x09AB

SUBROUTINE_0B7B:
339: 0x0B7B [0x01] GOTO 0x0B9D
340: 0x0B7E [0x02] IF !(Work_Zone[0] == 7*) GOTO 0x0B9D
341: 0x0B86 [0x02] IF !(ExtData[1]->WorkLocal[3] == 0*) GOTO 0x0B91
342: 0x0B8E [0x1A] CALL_SUBROUTINE(address=0x134B)
343: 0x0B91 [0x1D] PRINT_EVENT_MESSAGE(message_id=7611*)
    → "Okay. Well, if you change your mind, you know where I'll be!"
344: 0x0B94 [0x23] WAIT_FOR_DIALOG_INTERACTION
345: 0x0B95 [0x03] Work_Zone[1] = 0*
346: 0x0B9A [0x01] GOTO 0x0B9D

SUBROUTINE_0B9D:
347: 0x0B9D [0x1B] RETURN

SUBROUTINE_0B9E:
348: 0x0B9E [0x05] ExtData[1]->WorkLocal[3] = 1
349: 0x0BA1 [0x45] LOAD_SCHEDULED_TASK: Load scheduler "fdo1" with entities [EventEntity, EventEntity], work=[200*, 0*]
350: 0x0BB2 [0x55] WAIT_LOAD_SCHEDULER: Wait for scheduler "fdo1" with entities [EventEntity, EventEntity], work=200*
351: 0x0BC1 [0x38] SET_CLIENT_EVENT_MODE(mode=2*)
352: 0x0BC4 [0x22] ENTITY_HIDE_FLAG(enabled=0x01)
353: 0x0BC6 [0x46] CAMERA_CONTROL: Disable user control
354: 0x0BC8 [0x02] IF !(Work_Zone[1] == 11*) GOTO 0x0CB3
355: 0x0BD0 [0x02] IF !(Work_Zone[0] == 0*) GOTO 0x0BEC
356: 0x0BD8 [0x6E] Unnamed NPC (ID: 17797233/0x010F9071) uses emote 48*
357: 0x0BDF [0x99] Wait for Unnamed NPC (ID: 17797233/0x010F9071) animation to complete
358: 0x0BE4 [0x99] Wait for EventEntity animation to complete
359: 0x0BE9 [0x01] GOTO 0x0C94
360: 0x0BEC [0x02] IF !(Work_Zone[0] == 1*) GOTO 0x0C08
361: 0x0BF4 [0x6E] Unnamed NPC (ID: 17797233/0x010F9071) uses emote 49*
362: 0x0BFB [0x99] Wait for Unnamed NPC (ID: 17797233/0x010F9071) animation to complete
363: 0x0C00 [0x99] Wait for EventEntity animation to complete
364: 0x0C05 [0x01] GOTO 0x0C94
365: 0x0C08 [0x02] IF !(Work_Zone[0] == 2*) GOTO 0x0C24
366: 0x0C10 [0x6E] Unnamed NPC (ID: 17797233/0x010F9071) uses emote 50*
367: 0x0C17 [0x99] Wait for Unnamed NPC (ID: 17797233/0x010F9071) animation to complete
368: 0x0C1C [0x99] Wait for EventEntity animation to complete
369: 0x0C21 [0x01] GOTO 0x0C94
370: 0x0C24 [0x02] IF !(Work_Zone[0] == 3*) GOTO 0x0C40
371: 0x0C2C [0x6E] Unnamed NPC (ID: 17797233/0x010F9071) uses emote 51*
372: 0x0C33 [0x99] Wait for Unnamed NPC (ID: 17797233/0x010F9071) animation to complete
373: 0x0C38 [0x99] Wait for EventEntity animation to complete
374: 0x0C3D [0x01] GOTO 0x0C94
375: 0x0C40 [0x02] IF !(Work_Zone[0] == 4*) GOTO 0x0C5C
376: 0x0C48 [0x6E] Unnamed NPC (ID: 17797233/0x010F9071) uses emote 52*
377: 0x0C4F [0x99] Wait for Unnamed NPC (ID: 17797233/0x010F9071) animation to complete
378: 0x0C54 [0x99] Wait for EventEntity animation to complete
379: 0x0C59 [0x01] GOTO 0x0C94
380: 0x0C5C [0x02] IF !(Work_Zone[0] == 5*) GOTO 0x0C78
381: 0x0C64 [0x6E] Unnamed NPC (ID: 17797233/0x010F9071) uses emote 393272*
382: 0x0C6B [0x99] Wait for Unnamed NPC (ID: 17797233/0x010F9071) animation to complete
383: 0x0C70 [0x99] Wait for EventEntity animation to complete
384: 0x0C75 [0x01] GOTO 0x0C94
385: 0x0C78 [0x02] IF !(Work_Zone[0] == 6*) GOTO 0x0C94
386: 0x0C80 [0x6E] Unnamed NPC (ID: 17797233/0x010F9071) uses emote 57*
387: 0x0C87 [0x99] Wait for Unnamed NPC (ID: 17797233/0x010F9071) animation to complete
388: 0x0C8C [0x99] Wait for EventEntity animation to complete
389: 0x0C91 [0x01] GOTO 0x0C94

SUBROUTINE_0C94:
390: 0x0C94 [0x45] LOAD_SCHEDULED_TASK: Load scheduler "smam" with entities [EventEntity, EventEntity], work=[35*, 0*]
391: 0x0CA5 [0x4E] SET_ENTITY_HIDE_FLAG: Show Unnamed NPC (ID: 17797233/0x010F9071)
392: 0x0CAB [0x80] LOAD_WAIT(entity=Unnamed NPC (ID: 17797233/0x010F9071))
393: 0x0CB0 [0x01] GOTO 0x1320
394: 0x0CB3 [0x02] IF !(Work_Zone[1] == 12*) GOTO 0x0D9E
395: 0x0CBB [0x02] IF !(Work_Zone[0] == 0*) GOTO 0x0CD7
396: 0x0CC3 [0x6E] Unnamed NPC (ID: 17797234/0x010F9072) uses emote 48*
397: 0x0CCA [0x99] Wait for Unnamed NPC (ID: 17797234/0x010F9072) animation to complete
398: 0x0CCF [0x99] Wait for EventEntity animation to complete
399: 0x0CD4 [0x01] GOTO 0x0D7F
400: 0x0CD7 [0x02] IF !(Work_Zone[0] == 1*) GOTO 0x0CF3
401: 0x0CDF [0x6E] Unnamed NPC (ID: 17797234/0x010F9072) uses emote 49*
402: 0x0CE6 [0x99] Wait for Unnamed NPC (ID: 17797234/0x010F9072) animation to complete
403: 0x0CEB [0x99] Wait for EventEntity animation to complete
404: 0x0CF0 [0x01] GOTO 0x0D7F
405: 0x0CF3 [0x02] IF !(Work_Zone[0] == 2*) GOTO 0x0D0F
406: 0x0CFB [0x6E] Unnamed NPC (ID: 17797234/0x010F9072) uses emote 50*
407: 0x0D02 [0x99] Wait for Unnamed NPC (ID: 17797234/0x010F9072) animation to complete
408: 0x0D07 [0x99] Wait for EventEntity animation to complete
409: 0x0D0C [0x01] GOTO 0x0D7F
410: 0x0D0F [0x02] IF !(Work_Zone[0] == 3*) GOTO 0x0D2B
411: 0x0D17 [0x6E] Unnamed NPC (ID: 17797234/0x010F9072) uses emote 51*
412: 0x0D1E [0x99] Wait for Unnamed NPC (ID: 17797234/0x010F9072) animation to complete
413: 0x0D23 [0x99] Wait for EventEntity animation to complete
414: 0x0D28 [0x01] GOTO 0x0D7F
415: 0x0D2B [0x02] IF !(Work_Zone[0] == 4*) GOTO 0x0D47
416: 0x0D33 [0x6E] Unnamed NPC (ID: 17797234/0x010F9072) uses emote 52*
417: 0x0D3A [0x99] Wait for Unnamed NPC (ID: 17797234/0x010F9072) animation to complete
418: 0x0D3F [0x99] Wait for EventEntity animation to complete
419: 0x0D44 [0x01] GOTO 0x0D7F
420: 0x0D47 [0x02] IF !(Work_Zone[0] == 5*) GOTO 0x0D63
421: 0x0D4F [0x6E] Unnamed NPC (ID: 17797234/0x010F9072) uses emote 393272*
422: 0x0D56 [0x99] Wait for Unnamed NPC (ID: 17797234/0x010F9072) animation to complete
423: 0x0D5B [0x99] Wait for EventEntity animation to complete
424: 0x0D60 [0x01] GOTO 0x0D7F
425: 0x0D63 [0x02] IF !(Work_Zone[0] == 6*) GOTO 0x0D7F
426: 0x0D6B [0x6E] Unnamed NPC (ID: 17797234/0x010F9072) uses emote 57*
427: 0x0D72 [0x99] Wait for Unnamed NPC (ID: 17797234/0x010F9072) animation to complete
428: 0x0D77 [0x99] Wait for EventEntity animation to complete
429: 0x0D7C [0x01] GOTO 0x0D7F

SUBROUTINE_0D7F:
430: 0x0D7F [0x45] LOAD_SCHEDULED_TASK: Load scheduler "smam" with entities [EventEntity, EventEntity], work=[35*, 0*]
431: 0x0D90 [0x4E] SET_ENTITY_HIDE_FLAG: Show Unnamed NPC (ID: 17797234/0x010F9072)
432: 0x0D96 [0x80] LOAD_WAIT(entity=Unnamed NPC (ID: 17797234/0x010F9072))
433: 0x0D9B [0x01] GOTO 0x1320
434: 0x0D9E [0x02] IF !(Work_Zone[1] == 13*) GOTO 0x0E89
435: 0x0DA6 [0x02] IF !(Work_Zone[0] == 0*) GOTO 0x0DC2
436: 0x0DAE [0x6E] Unnamed NPC (ID: 17797235/0x010F9073) uses emote 48*
437: 0x0DB5 [0x99] Wait for Unnamed NPC (ID: 17797235/0x010F9073) animation to complete
438: 0x0DBA [0x99] Wait for EventEntity animation to complete
439: 0x0DBF [0x01] GOTO 0x0E6A
440: 0x0DC2 [0x02] IF !(Work_Zone[0] == 1*) GOTO 0x0DDE
441: 0x0DCA [0x6E] Unnamed NPC (ID: 17797235/0x010F9073) uses emote 49*
442: 0x0DD1 [0x99] Wait for Unnamed NPC (ID: 17797235/0x010F9073) animation to complete
443: 0x0DD6 [0x99] Wait for EventEntity animation to complete
444: 0x0DDB [0x01] GOTO 0x0E6A
445: 0x0DDE [0x02] IF !(Work_Zone[0] == 2*) GOTO 0x0DFA
446: 0x0DE6 [0x6E] Unnamed NPC (ID: 17797235/0x010F9073) uses emote 50*
447: 0x0DED [0x99] Wait for Unnamed NPC (ID: 17797235/0x010F9073) animation to complete
448: 0x0DF2 [0x99] Wait for EventEntity animation to complete
449: 0x0DF7 [0x01] GOTO 0x0E6A
450: 0x0DFA [0x02] IF !(Work_Zone[0] == 3*) GOTO 0x0E16
451: 0x0E02 [0x6E] Unnamed NPC (ID: 17797235/0x010F9073) uses emote 51*
452: 0x0E09 [0x99] Wait for Unnamed NPC (ID: 17797235/0x010F9073) animation to complete
453: 0x0E0E [0x99] Wait for EventEntity animation to complete
454: 0x0E13 [0x01] GOTO 0x0E6A
455: 0x0E16 [0x02] IF !(Work_Zone[0] == 4*) GOTO 0x0E32
456: 0x0E1E [0x6E] Unnamed NPC (ID: 17797235/0x010F9073) uses emote 52*
457: 0x0E25 [0x99] Wait for Unnamed NPC (ID: 17797235/0x010F9073) animation to complete
458: 0x0E2A [0x99] Wait for EventEntity animation to complete
459: 0x0E2F [0x01] GOTO 0x0E6A
460: 0x0E32 [0x02] IF !(Work_Zone[0] == 5*) GOTO 0x0E4E
461: 0x0E3A [0x6E] Unnamed NPC (ID: 17797235/0x010F9073) uses emote 393272*
462: 0x0E41 [0x99] Wait for Unnamed NPC (ID: 17797235/0x010F9073) animation to complete
463: 0x0E46 [0x99] Wait for EventEntity animation to complete
464: 0x0E4B [0x01] GOTO 0x0E6A
465: 0x0E4E [0x02] IF !(Work_Zone[0] == 6*) GOTO 0x0E6A
466: 0x0E56 [0x6E] Unnamed NPC (ID: 17797235/0x010F9073) uses emote 57*
467: 0x0E5D [0x99] Wait for Unnamed NPC (ID: 17797235/0x010F9073) animation to complete
468: 0x0E62 [0x99] Wait for EventEntity animation to complete
469: 0x0E67 [0x01] GOTO 0x0E6A

SUBROUTINE_0E6A:
470: 0x0E6A [0x45] LOAD_SCHEDULED_TASK: Load scheduler "smam" with entities [EventEntity, EventEntity], work=[35*, 0*]
471: 0x0E7B [0x4E] SET_ENTITY_HIDE_FLAG: Show Unnamed NPC (ID: 17797235/0x010F9073)
472: 0x0E81 [0x80] LOAD_WAIT(entity=Unnamed NPC (ID: 17797235/0x010F9073))
473: 0x0E86 [0x01] GOTO 0x1320
474: 0x0E89 [0x02] IF !(Work_Zone[1] == 14*) GOTO 0x0F74
475: 0x0E91 [0x02] IF !(Work_Zone[0] == 0*) GOTO 0x0EAD
476: 0x0E99 [0x6E] Unnamed NPC (ID: 17797236/0x010F9074) uses emote 48*
477: 0x0EA0 [0x99] Wait for Unnamed NPC (ID: 17797236/0x010F9074) animation to complete
478: 0x0EA5 [0x99] Wait for EventEntity animation to complete
479: 0x0EAA [0x01] GOTO 0x0F55
480: 0x0EAD [0x02] IF !(Work_Zone[0] == 1*) GOTO 0x0EC9
481: 0x0EB5 [0x6E] Unnamed NPC (ID: 17797236/0x010F9074) uses emote 49*
482: 0x0EBC [0x99] Wait for Unnamed NPC (ID: 17797236/0x010F9074) animation to complete
483: 0x0EC1 [0x99] Wait for EventEntity animation to complete
484: 0x0EC6 [0x01] GOTO 0x0F55
485: 0x0EC9 [0x02] IF !(Work_Zone[0] == 2*) GOTO 0x0EE5
486: 0x0ED1 [0x6E] Unnamed NPC (ID: 17797236/0x010F9074) uses emote 50*
487: 0x0ED8 [0x99] Wait for Unnamed NPC (ID: 17797236/0x010F9074) animation to complete
488: 0x0EDD [0x99] Wait for EventEntity animation to complete
489: 0x0EE2 [0x01] GOTO 0x0F55
490: 0x0EE5 [0x02] IF !(Work_Zone[0] == 3*) GOTO 0x0F01
491: 0x0EED [0x6E] Unnamed NPC (ID: 17797236/0x010F9074) uses emote 51*
492: 0x0EF4 [0x99] Wait for Unnamed NPC (ID: 17797236/0x010F9074) animation to complete
493: 0x0EF9 [0x99] Wait for EventEntity animation to complete
494: 0x0EFE [0x01] GOTO 0x0F55
495: 0x0F01 [0x02] IF !(Work_Zone[0] == 4*) GOTO 0x0F1D
496: 0x0F09 [0x6E] Unnamed NPC (ID: 17797236/0x010F9074) uses emote 52*
497: 0x0F10 [0x99] Wait for Unnamed NPC (ID: 17797236/0x010F9074) animation to complete
498: 0x0F15 [0x99] Wait for EventEntity animation to complete
499: 0x0F1A [0x01] GOTO 0x0F55
500: 0x0F1D [0x02] IF !(Work_Zone[0] == 5*) GOTO 0x0F39
501: 0x0F25 [0x6E] Unnamed NPC (ID: 17797236/0x010F9074) uses emote 393272*
502: 0x0F2C [0x99] Wait for Unnamed NPC (ID: 17797236/0x010F9074) animation to complete
503: 0x0F31 [0x99] Wait for EventEntity animation to complete
504: 0x0F36 [0x01] GOTO 0x0F55
505: 0x0F39 [0x02] IF !(Work_Zone[0] == 6*) GOTO 0x0F55
506: 0x0F41 [0x6E] Unnamed NPC (ID: 17797236/0x010F9074) uses emote 57*
507: 0x0F48 [0x99] Wait for Unnamed NPC (ID: 17797236/0x010F9074) animation to complete
508: 0x0F4D [0x99] Wait for EventEntity animation to complete
509: 0x0F52 [0x01] GOTO 0x0F55

SUBROUTINE_0F55:
510: 0x0F55 [0x45] LOAD_SCHEDULED_TASK: Load scheduler "smam" with entities [EventEntity, EventEntity], work=[35*, 0*]
511: 0x0F66 [0x4E] SET_ENTITY_HIDE_FLAG: Show Unnamed NPC (ID: 17797236/0x010F9074)
512: 0x0F6C [0x80] LOAD_WAIT(entity=Unnamed NPC (ID: 17797236/0x010F9074))
513: 0x0F71 [0x01] GOTO 0x1320
514: 0x0F74 [0x02] IF !(Work_Zone[1] == 15*) GOTO 0x105F
515: 0x0F7C [0x02] IF !(Work_Zone[0] == 0*) GOTO 0x0F98
516: 0x0F84 [0x6E] Unnamed NPC (ID: 17797237/0x010F9075) uses emote 48*
517: 0x0F8B [0x99] Wait for Unnamed NPC (ID: 17797237/0x010F9075) animation to complete
518: 0x0F90 [0x99] Wait for EventEntity animation to complete
519: 0x0F95 [0x01] GOTO 0x1040
520: 0x0F98 [0x02] IF !(Work_Zone[0] == 1*) GOTO 0x0FB4
521: 0x0FA0 [0x6E] Unnamed NPC (ID: 17797237/0x010F9075) uses emote 49*
522: 0x0FA7 [0x99] Wait for Unnamed NPC (ID: 17797237/0x010F9075) animation to complete
523: 0x0FAC [0x99] Wait for EventEntity animation to complete
524: 0x0FB1 [0x01] GOTO 0x1040
525: 0x0FB4 [0x02] IF !(Work_Zone[0] == 2*) GOTO 0x0FD0
526: 0x0FBC [0x6E] Unnamed NPC (ID: 17797237/0x010F9075) uses emote 50*
527: 0x0FC3 [0x99] Wait for Unnamed NPC (ID: 17797237/0x010F9075) animation to complete
528: 0x0FC8 [0x99] Wait for EventEntity animation to complete
529: 0x0FCD [0x01] GOTO 0x1040
530: 0x0FD0 [0x02] IF !(Work_Zone[0] == 3*) GOTO 0x0FEC
531: 0x0FD8 [0x6E] Unnamed NPC (ID: 17797237/0x010F9075) uses emote 51*
532: 0x0FDF [0x99] Wait for Unnamed NPC (ID: 17797237/0x010F9075) animation to complete
533: 0x0FE4 [0x99] Wait for EventEntity animation to complete
534: 0x0FE9 [0x01] GOTO 0x1040
535: 0x0FEC [0x02] IF !(Work_Zone[0] == 4*) GOTO 0x1008
536: 0x0FF4 [0x6E] Unnamed NPC (ID: 17797237/0x010F9075) uses emote 52*
537: 0x0FFB [0x99] Wait for Unnamed NPC (ID: 17797237/0x010F9075) animation to complete
538: 0x1000 [0x99] Wait for EventEntity animation to complete
539: 0x1005 [0x01] GOTO 0x1040
540: 0x1008 [0x02] IF !(Work_Zone[0] == 5*) GOTO 0x1024
541: 0x1010 [0x6E] Unnamed NPC (ID: 17797237/0x010F9075) uses emote 393272*
542: 0x1017 [0x99] Wait for Unnamed NPC (ID: 17797237/0x010F9075) animation to complete
543: 0x101C [0x99] Wait for EventEntity animation to complete
544: 0x1021 [0x01] GOTO 0x1040
545: 0x1024 [0x02] IF !(Work_Zone[0] == 6*) GOTO 0x1040
546: 0x102C [0x6E] Unnamed NPC (ID: 17797237/0x010F9075) uses emote 57*
547: 0x1033 [0x99] Wait for Unnamed NPC (ID: 17797237/0x010F9075) animation to complete
548: 0x1038 [0x99] Wait for EventEntity animation to complete
549: 0x103D [0x01] GOTO 0x1040

SUBROUTINE_1040:
550: 0x1040 [0x45] LOAD_SCHEDULED_TASK: Load scheduler "smas" with entities [EventEntity, EventEntity], work=[35*, 0*]
551: 0x1051 [0x4E] SET_ENTITY_HIDE_FLAG: Show Unnamed NPC (ID: 17797237/0x010F9075)
552: 0x1057 [0x80] LOAD_WAIT(entity=Unnamed NPC (ID: 17797237/0x010F9075))
553: 0x105C [0x01] GOTO 0x1320
554: 0x105F [0x02] IF !(Work_Zone[1] == 16*) GOTO 0x114A
555: 0x1067 [0x02] IF !(Work_Zone[0] == 0*) GOTO 0x1083
556: 0x106F [0x6E] Unnamed NPC (ID: 17797238/0x010F9076) uses emote 48*
557: 0x1076 [0x99] Wait for Unnamed NPC (ID: 17797238/0x010F9076) animation to complete
558: 0x107B [0x99] Wait for EventEntity animation to complete
559: 0x1080 [0x01] GOTO 0x112B
560: 0x1083 [0x02] IF !(Work_Zone[0] == 1*) GOTO 0x109F
561: 0x108B [0x6E] Unnamed NPC (ID: 17797238/0x010F9076) uses emote 49*
562: 0x1092 [0x99] Wait for Unnamed NPC (ID: 17797238/0x010F9076) animation to complete
563: 0x1097 [0x99] Wait for EventEntity animation to complete
564: 0x109C [0x01] GOTO 0x112B
565: 0x109F [0x02] IF !(Work_Zone[0] == 2*) GOTO 0x10BB
566: 0x10A7 [0x6E] Unnamed NPC (ID: 17797238/0x010F9076) uses emote 50*
567: 0x10AE [0x99] Wait for Unnamed NPC (ID: 17797238/0x010F9076) animation to complete
568: 0x10B3 [0x99] Wait for EventEntity animation to complete
569: 0x10B8 [0x01] GOTO 0x112B
570: 0x10BB [0x02] IF !(Work_Zone[0] == 3*) GOTO 0x10D7
571: 0x10C3 [0x6E] Unnamed NPC (ID: 17797238/0x010F9076) uses emote 51*
572: 0x10CA [0x99] Wait for Unnamed NPC (ID: 17797238/0x010F9076) animation to complete
573: 0x10CF [0x99] Wait for EventEntity animation to complete
574: 0x10D4 [0x01] GOTO 0x112B
575: 0x10D7 [0x02] IF !(Work_Zone[0] == 4*) GOTO 0x10F3
576: 0x10DF [0x6E] Unnamed NPC (ID: 17797238/0x010F9076) uses emote 52*
577: 0x10E6 [0x99] Wait for Unnamed NPC (ID: 17797238/0x010F9076) animation to complete
578: 0x10EB [0x99] Wait for EventEntity animation to complete
579: 0x10F0 [0x01] GOTO 0x112B
580: 0x10F3 [0x02] IF !(Work_Zone[0] == 5*) GOTO 0x110F
581: 0x10FB [0x6E] Unnamed NPC (ID: 17797238/0x010F9076) uses emote 393272*
582: 0x1102 [0x99] Wait for Unnamed NPC (ID: 17797238/0x010F9076) animation to complete
583: 0x1107 [0x99] Wait for EventEntity animation to complete
584: 0x110C [0x01] GOTO 0x112B
585: 0x110F [0x02] IF !(Work_Zone[0] == 6*) GOTO 0x112B
586: 0x1117 [0x6E] Unnamed NPC (ID: 17797238/0x010F9076) uses emote 57*
587: 0x111E [0x99] Wait for Unnamed NPC (ID: 17797238/0x010F9076) animation to complete
