# 17797149 - Galdo

## Common Data

| Field            | Value            |
|------------------|------------------|
| Zone             | Mhaura (ID: 249) |
| Block Size       | 124 bytes        |
| Total Events     | 2                |
| References Count | 6                |

## List of Events

| Event ID              | Entrypoint   |   Size |   Instructions |
|-----------------------|--------------|--------|----------------|
| [65535](#event-65535) | 0x0000       |      1 |              1 |
| [650](#event-650)     | 0x0001       |     74 |             19 |

## DAT References (imed_data)

|   Index | Hex Value   |   Dec Value |
|---------|-------------|-------------|
|       0 | 0x0037      |          55 |
|       1 | 0x0002      |           2 |
|       2 | 0x0000      |           0 |
|       3 | 0x1C01      |        7169 |
|       4 | 0x0001      |           1 |
|       5 | 0x1C02      |        7170 |

## String References

- **7169**: As you can see, ceramics is one of Mhaura's main exports. I'm glad I always have work as a longshoreman, but I wish they'd stop making me carry all the heavy ones...
- **7170**: Hm? If you're looking for the item seller, he's in that warehouse right over there.

## Events

### Event 65535

#### Metadata

| Field        | Value   |
|--------------|---------|
| Entrypoint   | 0x0000  |
| Data Size    | 1 bytes |
| Instructions | 1       |

```
      00 01 02 03 04 05 06 07  08 09 0A 0B 0C 0D 0E 0F
      -- -- -- -- -- -- -- --  -- -- -- -- -- -- -- --
0000: 00                                                .               
```

#### Opcodes

```
  0: 0x0000 [0x00] END_REQSTACK()
```

### Event 650

#### Metadata

| Field        | Value    |
|--------------|----------|
| Entrypoint   | 0x0001   |
| Data Size    | 74 bytes |
| Instructions | 19       |

```
      00 01 02 03 04 05 06 07  08 09 0A 0B 0C 0D 0E 0F
      -- -- -- -- -- -- -- --  -- -- -- -- -- -- -- --
0000:    1E F0 FF FF 7F 6F 70  5B 00 80 F8 FF FF 7F F8   .....op[.......
0010: FF FF 7F 74 6C 6B 30 13  00 00 01 80 02 00 00 02  ...tlk0.........
0020: 80 80 2B 00 1D 03 80 23  01 49 00 02 00 00 04 80  ..+....#.I......
0030: 80 3A 00 1D 05 80 23 01  49 00 02 00 00 01 80 80  .:....#.I.......
0040: 49 00 1D 05 80 23 01 49  00 21 00                 I....#.I.!.     
```

#### Opcodes

```
  0: 0x0001 [0x1E] EventEntity looks at LocalPlayer and starts talking
  1: 0x0006 [0x6F] WAIT_FRAME_DELAY: Yield until WaitTime reaches zero
  2: 0x0007 [0x70] WAIT_ENTITY_RENDER_FLAG: Wait while EventEntity->Render.Flags3 bit 2 is set (cancel turn if not)
  3: 0x0008 [0x5B] LOAD_EXT_SCHEDULER: Load scheduler "tlk0" with entities [EventEntity, EventEntity], work=55*
  4: 0x0017 [0x13] ExtData[1]->WorkLocal[0] = rand() % 2*
  5: 0x001C [0x02] IF !(ExtData[1]->WorkLocal[0] == 0*) GOTO 0x002B
  6: 0x0024 [0x1D] PRINT_EVENT_MESSAGE(message_id=7169*)
    → "As you can see, ceramics is one of Mhaura's main exports. I'm glad I always have work as a longshoreman, but I wish they'd stop making me carry all the heavy ones..."
  7: 0x0027 [0x23] WAIT_FOR_DIALOG_INTERACTION
  8: 0x0028 [0x01] GOTO 0x0049
  9: 0x002B [0x02] IF !(ExtData[1]->WorkLocal[0] == 1*) GOTO 0x003A
 10: 0x0033 [0x1D] PRINT_EVENT_MESSAGE(message_id=7170*)
    → "Hm? If you're looking for the item seller, he's in that warehouse right over there."
 11: 0x0036 [0x23] WAIT_FOR_DIALOG_INTERACTION
 12: 0x0037 [0x01] GOTO 0x0049
 13: 0x003A [0x02] IF !(ExtData[1]->WorkLocal[0] == 2*) GOTO 0x0049
 14: 0x0042 [0x1D] PRINT_EVENT_MESSAGE(message_id=7170*)
    → "Hm? If you're looking for the item seller, he's in that warehouse right over there."
 15: 0x0045 [0x23] WAIT_FOR_DIALOG_INTERACTION
 16: 0x0046 [0x01] GOTO 0x0049

SUBROUTINE_0049:
 17: 0x0049 [0x21] END_EVENT
 18: 0x004A [0x00] END_REQSTACK()
```
