# 17797268

## Common Data

| Field            | Value            |
|------------------|------------------|
| Zone             | Mhaura (ID: 249) |
| Block Size       | 3020 bytes       |
| Total Events     | 4                |
| References Count | 95               |

## List of Events

| Event ID              | Entrypoint   |   Size |   Instructions |
|-----------------------|--------------|--------|----------------|
| [65535](#event-65535) | 0x0000       |      1 |              1 |
| [368](#event-368)     | 0x0001       |    640 |             85 |
| [370](#event-370)     | 0x0281       |   1574 |            195 |
| [371](#event-371)     | 0x08A7       |    390 |             47 |

## DAT References (imed_data)

|   Index | Hex Value   |   Dec Value |
|---------|-------------|-------------|
|       0 | 0x00C8      |         200 |
|       1 | 0x0000      |           0 |
|       2 | 0x0001      |           1 |
|       3 | 0x001B      |          27 |
|       4 | 0x01E7      |         487 |
|       5 | 0xFFFEECEC  |  4294896876 |
|       6 | 0x7C89      |       31881 |
|       7 | 0xFFFFA240  |  4294943296 |
|       8 | 0x0FE4      |        4068 |
|       9 | 0xFFFEDEB0  |  4294893232 |
|      10 | 0x7BAB      |       31659 |
|      11 | 0xFFFFA241  |  4294943297 |
|      12 | 0x004E      |          78 |
|      13 | 0xFFFFFFB3  |  4294967219 |
|      14 | 0x1C3BF     |      115647 |
|      15 | 0xFFFFF060  |  4294963296 |
|      16 | 0x03F2      |        1010 |
|      17 | 0xFFFFF5B4  |  4294964660 |
|      18 | 0x19EEF     |      106223 |
|      19 | 0x0DB3      |        3507 |
|      20 | 0x0069      |         105 |
|      21 | 0x02F8      |         760 |
|      22 | 0x000F      |          15 |
|      23 | 0x00B4      |         180 |
|      24 | 0xFFFF6AF4  |  4294929140 |
|      25 | 0xCECE      |       52942 |
|      26 | 0xFFFFC180  |  4294951296 |
|      27 | 0x055F      |        1375 |
|      28 | 0xFFFF6D2D  |  4294929709 |
|      29 | 0xD044      |       53316 |
|      30 | 0x001E      |          30 |
|      31 | 0x0078      |         120 |
|      32 | 0x1F65      |        8037 |
|      33 | 0x0027      |          39 |
|      34 | 0x1F66      |        8038 |
|      35 | 0x1F67      |        8039 |
|      36 | 0x1F68      |        8040 |
|      37 | 0xFFFEF63B  |  4294899259 |
|      38 | 0x7DB0      |       32176 |
|      39 | 0x07EA      |        2026 |
|      40 | 0xFFFEFCE8  |  4294900968 |
|      41 | 0x7D0B      |       32011 |
|      42 | 0x07C5      |        1989 |
|      43 | 0xFFFED179  |  4294889849 |
|      44 | 0x7B40      |       31552 |
|      45 | 0x03BC      |         956 |
|      46 | 0x0028      |          40 |
|      47 | 0x1F79      |        8057 |
|      48 | 0x1F7A      |        8058 |
|      49 | 0xFFFED355  |  4294890325 |
|      50 | 0x70FD      |       28925 |
|      51 | 0x0BFF      |        3071 |
|      52 | 0x003C      |          60 |
|      53 | 0x1F7B      |        8059 |
|      54 | 0x1F7C      |        8060 |
|      55 | 0x237B      |        9083 |
|      56 | 0x1F7D      |        8061 |
|      57 | 0x0236      |         566 |
|      58 | 0x1F7E      |        8062 |
|      59 | 0x0047      |          71 |
|      60 | 0x0007      |           7 |
|      61 | 0x1F7F      |        8063 |
|      62 | 0x005A      |          90 |
|      63 | 0x1F80      |        8064 |
|      64 | 0x1F81      |        8065 |
|      65 | 0x1F82      |        8066 |
|      66 | 0x0015      |          21 |
|      67 | 0x1F83      |        8067 |
|      68 | 0x1F84      |        8068 |
|      69 | 0x1F85      |        8069 |
|      70 | 0xFFFEDE99  |  4294893209 |
|      71 | 0x764B      |       30283 |
|      72 | 0x0FD5      |        4053 |
|      73 | 0x1F86      |        8070 |
|      74 | 0x1F87      |        8071 |
|      75 | 0x1F88      |        8072 |
|      76 | 0x1F89      |        8073 |
|      77 | 0x1F8A      |        8074 |
|      78 | 0x1F8B      |        8075 |
|      79 | 0x0020      |          32 |
|      80 | 0x1F8C      |        8076 |
|      81 | 0x1F8D      |        8077 |
|      82 | 0x1F8E      |        8078 |
|      83 | 0x1F8F      |        8079 |
|      84 | 0x1F90      |        8080 |
|      85 | 0xFFFFB888  |  4294949000 |
|      86 | 0x7989      |       31113 |
|      87 | 0xFFFFE0CB  |  4294959307 |
|      88 | 0x03F1      |        1009 |
|      89 | 0x0009      |           9 |
|      90 | 0x1F91      |        8081 |
|      91 | 0x1F92      |        8082 |
|      92 | 0x0024      |          36 |
|      93 | 0x1F93      |        8083 |
|      94 | 0x1F94      |        8084 |

## String References

- **8082**: Travel to Norg? [Yes./No.]

## Events

### Event 65535

#### Metadata

| Field        | Value   |
|--------------|---------|
| Entrypoint   | 0x0000  |
| Data Size    | 1 bytes |
| Instructions | 1       |

```
      00 01 02 03 04 05 06 07  08 09 0A 0B 0C 0D 0E 0F
      -- -- -- -- -- -- -- --  -- -- -- -- -- -- -- --
0000: 00                                                .               
```

#### Opcodes

```
  0: 0x0000 [0x00] END_REQSTACK()
```

### Event 368

#### Metadata

| Field        | Value     |
|--------------|-----------|
| Entrypoint   | 0x0001    |
| Data Size    | 640 bytes |
| Instructions | 85        |

```
      00 01 02 03 04 05 06 07  08 09 0A 0B 0C 0D 0E 0F
      -- -- -- -- -- -- -- --  -- -- -- -- -- -- -- --
0000:    42 45 00 80 F8 FF FF  7F F8 FF FF 7F 66 64 6F   BE..........fdo
0010: 31 01 80 55 00 80 F8 FF  FF 7F F8 FF FF 7F 66 64  1..U..........fd
0020: 6F 31 03 01 10 02 80 43  00 43 01 03 00 00 09 10  o1.....C.C......
0030: 46 01 38 03 80 75 00 04  80 75 01 2F 00 95 90 0F  F.8..u...u./....
0040: 01 4E 00 95 90 0F 01 4E  00 F0 FF FF 7F 92 01 93  .N.....N........
0050: 90 0F 01 92 01 95 90 0F  01 92 01 96 90 0F 01 92  ................
0060: 01 02 90 0F 01 94 01 93  90 0F 01 94 01 95 90 0F  ................
0070: 01 94 01 96 90 0F 01 94  01 F0 FF FF 7F 94 01 02  ................
0080: 90 0F 01 BA 95 90 0F 01  05 80 06 80 07 80 08 80  ................
0090: BA 96 90 0F 01 09 80 0A  80 0B 80 0C 80 BA F0 FF  ................
00A0: FF 7F 0D 80 0E 80 0F 80  10 80 BA 93 90 0F 01 11  ................
00B0: 80 12 80 0F 80 13 80 80  95 90 0F 01 80 F0 FF FF  ................
00C0: 7F 80 96 90 0F 01 80 93  90 0F 01 80 02 90 0F 01  ................
00D0: 5C 00 14 80 5C 01 14 80  9A 27 05 33 90 0F 01 05  \...\....'.3....
00E0: 27 05 96 90 0F 01 02 45  15 80 F8 FF FF 7F F8 FF  '......E........
00F0: FF 7F 73 30 30 30 01 80  1C 16 80 45 00 80 F8 FF  ..s000.....E....
0100: FF 7F F8 FF FF 7F 66 64  69 31 01 80 55 00 80 F8  ......fdi1..U...
0110: FF FF 7F F8 FF FF 7F 66  64 69 31 27 05 95 90 0F  .......fdi1'....
0120: 01 02 1C 17 80 52 15 80  F8 FF FF 7F F8 FF FF 7F  .....R..........
0130: 73 30 30 30 45 15 80 F8  FF FF 7F F8 FF FF 7F 73  s000E..........s
0140: 30 30 31 01 80 1C 16 80  7A 00 95 90 0F 01 7A 00  001.....z.....z.
0150: 96 90 0F 01 BA 95 90 0F  01 18 80 19 80 1A 80 1B  ................
0160: 80 BA 96 90 0F 01 1C 80  1D 80 1A 80 1B 80 27 05  ..............'.
0170: 95 90 0F 01 03 1C 16 80  27 05 96 90 0F 01 03 1C  ........'.......
0180: 17 80 27 05 F0 FF FF 7F  2A 1C 1E 80 52 15 80 F8  ..'.....*...R...
0190: FF FF 7F F8 FF FF 7F 73  30 30 31 45 15 80 F8 FF  .......s001E....
01A0: FF 7F F8 FF FF 7F 73 30  30 32 01 80 1C 1F 80 27  ......s002.....'
01B0: 05 93 90 0F 01 03 1C 1E  80 52 15 80 F8 FF FF 7F  .........R......
01C0: F8 FF FF 7F 73 30 30 32  45 15 80 F8 FF FF 7F F8  ....s002E.......
01D0: FF FF 7F 73 30 30 33 01  80 02 00 00 01 80 00 09  ...s003.........
01E0: 02 2B 93 90 0F 01 20 80  23 2A 05 93 90 0F 01 66  .+.... .#*.....f
01F0: 21 80 93 90 0F 01 93 90  0F 01 74 6C 6B 30 2B 93  !.........tlk0+.
0200: 90 0F 01 22 80 23 01 3D  02 2A 05 93 90 0F 01 66  ...".#.=.*.....f
0210: 21 80 93 90 0F 01 93 90  0F 01 74 68 6B 31 2B 93  !.........thk1+.
0220: 90 0F 01 23 80 23 66 21  80 93 90 0F 01 93 90 0F  ...#.#f!........
0230: 01 74 68 6B 32 2B 93 90  0F 01 24 80 23 45 00 80  .thk2+....$.#E..
0240: F8 FF FF 7F F8 FF FF 7F  66 64 6F 31 01 80 55 00  ........fdo1..U.
0250: 80 F8 FF FF 7F F8 FF FF  7F 66 64 6F 31 52 15 80  .........fdo1R..
0260: F8 FF FF 7F F8 FF FF 7F  73 30 30 33 46 00 45 00  ........s003F.E.
0270: 80 F8 FF FF 7F F8 FF FF  7F 66 64 69 32 01 80 21  .........fdi2..!
0280: 00                                                .               
```

#### Opcodes

```
  0: 0x0001 [0x42] SET_CLI_EVENT_CANCEL_DATA()
  1: 0x0002 [0x45] LOAD_SCHEDULED_TASK: Load scheduler "fdo1" with entities [EventEntity, EventEntity], work=[200*, 0*]
  2: 0x0013 [0x55] WAIT_LOAD_SCHEDULER: Wait for scheduler "fdo1" with entities [EventEntity, EventEntity], work=200*
  3: 0x0022 [0x03] Work_Zone[1] = 1*
  4: 0x0027 [0x43] SEND_EVENT_UPDATE: Send pending tag to server (packet 0x005B)
  5: 0x0029 [0x43] SEND_EVENT_UPDATE: Check pending flag (skip if not pending)
  6: 0x002B [0x03] ExtData[1]->WorkLocal[0] = Work_Zone[9]
  7: 0x0030 [0x46] CAMERA_CONTROL: Disable user control
  8: 0x0032 [0x38] SET_CLIENT_EVENT_MODE(mode=27*)
  9: 0x0035 [0x75] LOAD_ROOM(Load indoor room, room=487*)
 10: 0x0039 [0x75] LOAD_ROOM(No action)
 11: 0x003B [0x2F] Gilgamesh (ID: 17797269/0x010F9095)->Render.Flags0 &= ~0x80000 // Bit 19
 12: 0x0041 [0x4E] SET_ENTITY_HIDE_FLAG: Show Gilgamesh (ID: 17797269/0x010F9095)
 13: 0x0047 [0x4E] SET_ENTITY_HIDE_FLAG: Show LocalPlayer
 14: 0x004D [0x92] Marilionne (ID: 17797267/0x010F9093)->Render.Flags3 ^= 0x01
 15: 0x0053 [0x92] Gilgamesh (ID: 17797269/0x010F9095)->Render.Flags3 ^= 0x01
 16: 0x0059 [0x92] Tonasav (ID: 17797270/0x010F9096)->Render.Flags3 ^= 0x01
 17: 0x005F [0x92] Hyria (ID: 17797122/0x010F9002)->Render.Flags3 ^= 0x01
 18: 0x0065 [0x94] Marilionne (ID: 17797267/0x010F9093)->Render.Flags3 ^= 0x01
 19: 0x006B [0x94] Gilgamesh (ID: 17797269/0x010F9095)->Render.Flags3 ^= 0x01
 20: 0x0071 [0x94] Tonasav (ID: 17797270/0x010F9096)->Render.Flags3 ^= 0x01
 21: 0x0077 [0x94] LocalPlayer->Render.Flags3 ^= 0x01
 22: 0x007D [0x94] Hyria (ID: 17797122/0x010F9002)->Render.Flags3 ^= 0x01
 23: 0x0083 [0xBA] SET_ENTITY_POSITION(entity_id=Gilgamesh (ID: 17797269/0x010F9095), pos_x=-70.420*, pos_z=31.881*, pos_y=-24.000*, direction=357.5°*)
 24: 0x0090 [0xBA] SET_ENTITY_POSITION(entity_id=Tonasav (ID: 17797270/0x010F9096), pos_x=-74.064*, pos_z=31.659*, pos_y=-23.999*, direction=6.9°*)
 25: 0x009D [0xBA] SET_ENTITY_POSITION(entity_id=LocalPlayer, pos_x=-0.077*, pos_z=115.647*, pos_y=-4.000*, direction=88.8°*)
 26: 0x00AA [0xBA] SET_ENTITY_POSITION(entity_id=Marilionne (ID: 17797267/0x010F9093), pos_x=-2.636*, pos_z=106.223*, pos_y=-4.000*, direction=308.2°*)
 27: 0x00B7 [0x80] LOAD_WAIT(entity=Gilgamesh (ID: 17797269/0x010F9095))
 28: 0x00BC [0x80] LOAD_WAIT(entity=LocalPlayer)
 29: 0x00C1 [0x80] LOAD_WAIT(entity=Tonasav (ID: 17797270/0x010F9096))
 30: 0x00C6 [0x80] LOAD_WAIT(entity=Marilionne (ID: 17797267/0x010F9093))
 31: 0x00CB [0x80] LOAD_WAIT(entity=Hyria (ID: 17797122/0x010F9002))
 32: 0x00D0 [0x5C] MUSIC_CONTROL: Set Idle (Day) music to song 105*
 33: 0x00D4 [0x5C] MUSIC_CONTROL: Set Idle (Night) music to song 105*
 34: 0x00D8 [0x9A] WAIT_MUSIC_SERVER()
 35: 0x00D9 [0x27] REQ_SET(priority=0x05, entity_id=Door:Governor's House (ID: 17797171/0x010F9033), tag_num=0x05)
 36: 0x00E0 [0x27] REQ_SET(priority=0x05, entity_id=Tonasav (ID: 17797270/0x010F9096), tag_num=0x02)
 37: 0x00E7 [0x45] LOAD_SCHEDULED_TASK: Load scheduler "s000" with entities [EventEntity, EventEntity], work=[760*, 0*]
 38: 0x00F8 [0x1C] WAIT(15* ticks)
 39: 0x00FB [0x45] LOAD_SCHEDULED_TASK: Load scheduler "fdi1" with entities [EventEntity, EventEntity], work=[200*, 0*]
 40: 0x010C [0x55] WAIT_LOAD_SCHEDULER: Wait for scheduler "fdi1" with entities [EventEntity, EventEntity], work=200*
 41: 0x011B [0x27] REQ_SET(priority=0x05, entity_id=Gilgamesh (ID: 17797269/0x010F9095), tag_num=0x02)
 42: 0x0122 [0x1C] WAIT(180* ticks)
 43: 0x0125 [0x52] END_LOAD_SCHEDULER: End scheduler "s000" with entities [EventEntity, EventEntity], work=760*
 44: 0x0134 [0x45] LOAD_SCHEDULED_TASK: Load scheduler "s001" with entities [EventEntity, EventEntity], work=[760*, 0*]
 45: 0x0145 [0x1C] WAIT(15* ticks)
 46: 0x0148 [0x7A] VM_CONTROL: Reset VM for Gilgamesh (ID: 17797269/0x010F9095)
 47: 0x014E [0x7A] VM_CONTROL: Reset VM for Tonasav (ID: 17797270/0x010F9096)
 48: 0x0154 [0xBA] SET_ENTITY_POSITION(entity_id=Gilgamesh (ID: 17797269/0x010F9095), pos_x=-38.156*, pos_z=52.942*, pos_y=-16.000*, direction=120.8°*)
 49: 0x0161 [0xBA] SET_ENTITY_POSITION(entity_id=Tonasav (ID: 17797270/0x010F9096), pos_x=-37.587*, pos_z=53.316*, pos_y=-16.000*, direction=120.8°*)
 50: 0x016E [0x27] REQ_SET(priority=0x05, entity_id=Gilgamesh (ID: 17797269/0x010F9095), tag_num=0x03)
 51: 0x0175 [0x1C] WAIT(15* ticks)
 52: 0x0178 [0x27] REQ_SET(priority=0x05, entity_id=Tonasav (ID: 17797270/0x010F9096), tag_num=0x03)
 53: 0x017F [0x1C] WAIT(180* ticks)
 54: 0x0182 [0x27] REQ_SET(priority=0x05, entity_id=LocalPlayer, tag_num=0x2A)
 55: 0x0189 [0x1C] WAIT(30* ticks)
 56: 0x018C [0x52] END_LOAD_SCHEDULER: End scheduler "s001" with entities [EventEntity, EventEntity], work=760*
 57: 0x019B [0x45] LOAD_SCHEDULED_TASK: Load scheduler "s002" with entities [EventEntity, EventEntity], work=[760*, 0*]
 58: 0x01AC [0x1C] WAIT(120* ticks)
 59: 0x01AF [0x27] REQ_SET(priority=0x05, entity_id=Marilionne (ID: 17797267/0x010F9093), tag_num=0x03)
 60: 0x01B6 [0x1C] WAIT(30* ticks)
 61: 0x01B9 [0x52] END_LOAD_SCHEDULER: End scheduler "s002" with entities [EventEntity, EventEntity], work=760*
 62: 0x01C8 [0x45] LOAD_SCHEDULED_TASK: Load scheduler "s003" with entities [EventEntity, EventEntity], work=[760*, 0*]
 63: 0x01D9 [0x02] IF !(ExtData[1]->WorkLocal[0] == 0*) GOTO 0x0209
 64: 0x01E1 [0x2B] Marilionne (ID: 17797267/0x010F9093) [8037*]:
    → "An adventurer, are you not? Perhaps it would behoove you to speak to our esteemed governor."
 65: 0x01E8 [0x23] WAIT_FOR_DIALOG_INTERACTION
 66: 0x01E9 [0x2A] GET_REQ_LEVEL(level=5, entity_id=Marilionne (ID: 17797267/0x010F9093))
 67: 0x01EF [0x66] LOAD_EXT_SCHEDULER_MAIN: Load scheduler "tlk0" with entities [Marilionne (ID: 17797267/0x010F9093), Marilionne (ID: 17797267/0x010F9093)], work=39*
 68: 0x01FE [0x2B] Marilionne (ID: 17797267/0x010F9093) [8038*]:
    → "There is doubtless a mountain of work around here that needs a steady hand. Somo Aatsula can show you the way."
 69: 0x0205 [0x23] WAIT_FOR_DIALOG_INTERACTION
 70: 0x0206 [0x01] GOTO 0x023D
 71: 0x0209 [0x2A] GET_REQ_LEVEL(level=5, entity_id=Marilionne (ID: 17797267/0x010F9093))
 72: 0x020F [0x66] LOAD_EXT_SCHEDULER_MAIN: Load scheduler "thk1" with entities [Marilionne (ID: 17797267/0x010F9093), Marilionne (ID: 17797267/0x010F9093)], work=39*
 73: 0x021E [0x2B] Marilionne (ID: 17797267/0x010F9093) [8039*]:
    → "Ah, you must be the adventurer the governor was looking for!"
 74: 0x0225 [0x23] WAIT_FOR_DIALOG_INTERACTION
 75: 0x0226 [0x66] LOAD_EXT_SCHEDULER_MAIN: Load scheduler "thk2" with entities [Marilionne (ID: 17797267/0x010F9093), Marilionne (ID: 17797267/0x010F9093)], work=39*
 76: 0x0235 [0x2B] Marilionne (ID: 17797267/0x010F9093) [8040*]:
    → "She has been putting out a call for days now--see if you can lend her a hand."
 77: 0x023C [0x23] WAIT_FOR_DIALOG_INTERACTION

SUBROUTINE_023D:
 78: 0x023D [0x45] LOAD_SCHEDULED_TASK: Load scheduler "fdo1" with entities [EventEntity, EventEntity], work=[200*, 0*]
 79: 0x024E [0x55] WAIT_LOAD_SCHEDULER: Wait for scheduler "fdo1" with entities [EventEntity, EventEntity], work=200*
 80: 0x025D [0x52] END_LOAD_SCHEDULER: End scheduler "s003" with entities [EventEntity, EventEntity], work=760*
 81: 0x026C [0x46] CAMERA_CONTROL: Restore default settings
 82: 0x026E [0x45] LOAD_SCHEDULED_TASK: Load scheduler "fdi2" with entities [EventEntity, EventEntity], work=[200*, 0*]
 83: 0x027F [0x21] END_EVENT
 84: 0x0280 [0x00] END_REQSTACK()
```

### Event 370

#### Metadata

| Field        | Value      |
|--------------|------------|
| Entrypoint   | 0x0281     |
| Data Size    | 1574 bytes |
| Instructions | 195        |

```
      00 01 02 03 04 05 06 07  08 09 0A 0B 0C 0D 0E 0F
      -- -- -- -- -- -- -- --  -- -- -- -- -- -- -- --
0280:    42 03 00 00 08 10 03  01 00 09 10 45 00 80 F8   B..........E...
0290: FF FF 7F F8 FF FF 7F 66  64 6F 31 01 80 55 00 80  .......fdo1..U..
02A0: F8 FF FF 7F F8 FF FF 7F  66 64 6F 31 46 01 38 03  ........fdo1F.8.
02B0: 80 75 00 04 80 75 01 2F  00 95 90 0F 01 4E 00 95  .u...u./.....N..
02C0: 90 0F 01 92 01 95 90 0F  01 92 01 96 90 0F 01 92  ................
02D0: 01 10 90 0F 01 92 01 11  90 0F 01 94 01 95 90 0F  ................
02E0: 01 94 01 96 90 0F 01 94  01 F0 FF FF 7F 94 01 10  ................
02F0: 90 0F 01 94 01 11 90 0F  01 BA 95 90 0F 01 25 80  ..............%.
0300: 26 80 0B 80 27 80 BA 96  90 0F 01 28 80 29 80 0B  &...'......(.)..
0310: 80 2A 80 BA F0 FF FF 7F  2B 80 2C 80 07 80 2D 80  .*......+.,...-.
0320: 80 95 90 0F 01 80 96 90  0F 01 80 F0 FF FF 7F 80  ................
0330: 10 90 0F 01 80 11 90 0F  01 4A 10 90 0F 01 F0 FF  .........J......
0340: FF 7F 4A F0 FF FF 7F 10  90 0F 01 1C 1E 80 45 15  ..J...........E.
0350: 80 F8 FF FF 7F F8 FF FF  7F 73 30 31 35 01 80 1C  .........s015...
0360: 16 80 45 00 80 F8 FF FF  7F F8 FF FF 7F 66 64 69  ..E..........fdi
0370: 31 01 80 66 2E 80 10 90  0F 01 10 90 0F 01 74 6C  1..f..........tl
0380: 6B 30 2B 10 90 0F 01 2F  80 23 2B 10 90 0F 01 30  k0+..../.#+....0
0390: 80 23 66 2E 80 10 90 0F  01 10 90 0F 01 74 6C 6B  .#f..........tlk
03A0: 31 27 05 33 90 0F 01 05  52 15 80 F8 FF FF 7F F8  1'.3....R.......
03B0: FF FF 7F 73 30 31 35 45  15 80 F8 FF FF 7F F8 FF  ...s015E........
03C0: FF 7F 73 30 31 36 01 80  27 05 95 90 0F 01 05 1C  ..s016..'.......
03D0: 16 80 27 05 96 90 0F 01  05 1C 17 80 BA 10 90 0F  ..'.............
03E0: 01 31 80 32 80 0B 80 33  80 4A F0 FF FF 7F 95 90  .1.2...3.J......
03F0: 0F 01 4A 10 90 0F 01 95  90 0F 01 1C 1E 80 27 05  ..J...........'.
0400: 33 90 0F 01 06 52 15 80  F8 FF FF 7F F8 FF FF 7F  3....R..........
0410: 73 30 31 36 45 15 80 F8  FF FF 7F F8 FF FF 7F 73  s016E..........s
0420: 30 31 37 01 80 1C 34 80  02 01 00 02 80 00 3B 04  017...4.......;.
0430: 2B 95 90 0F 01 35 80 23  01 43 04 2B 95 90 0F 01  +....5.#.C.+....
0440: 36 80 23 2A 05 95 90 0F  01 27 05 10 90 0F 01 06  6.#*.....'......
0450: 1C 1E 80 4A 11 90 0F 01  95 90 0F 01 4A 95 90 0F  ...J........J...
0460: 01 10 90 0F 01 4A 96 90  0F 01 10 90 0F 01 52 15  .....J........R.
0470: 80 F8 FF FF 7F F8 FF FF  7F 73 30 31 37 45 15 80  .........s017E..
0480: F8 FF FF 7F F8 FF FF 7F  73 30 31 38 01 80 03 03  ........s018....
0490: 10 37 80 2B 10 90 0F 01  38 80 23 2A 05 10 90 0F  .7.+....8.#*....
04A0: 01 52 15 80 F8 FF FF 7F  F8 FF FF 7F 73 30 31 38  .R..........s018
04B0: 45 15 80 F8 FF FF 7F F8  FF FF 7F 73 30 31 39 01  E..........s019.
04C0: 80 5B 39 80 95 90 0F 01  95 90 0F 01 74 6C 6B 30  .[9.........tlk0
04D0: 2B 95 90 0F 01 3A 80 23  5B 39 80 95 90 0F 01 95  +....:.#[9......
04E0: 90 0F 01 74 6C 6B 31 66  3B 80 96 90 0F 01 96 90  ...tlk1f;.......
04F0: 0F 01 70 61 73 30 1C 1F  80 52 15 80 F8 FF FF 7F  ..pas0...R......
0500: F8 FF FF 7F 73 30 31 39  45 15 80 F8 FF FF 7F F8  ....s019E.......
0510: FF FF 7F 73 30 32 30 01  80 6E 10 90 0F 01 3C 80  ...s020..n....<.
0520: 99 10 90 0F 01 2B 10 90  0F 01 3D 80 1C 3E 80 4A  .....+....=..>.J
0530: 10 90 0F 01 F0 FF FF 7F  79 00 F0 FF FF 7F 10 90  ........y.......
0540: 0F 01 1C 1E 80 23 66 2E  80 10 90 0F 01 10 90 0F  .....#f.........
0550: 01 74 6C 6B 30 1C 3E 80  4A 95 90 0F 01 F0 FF FF  .tlk0.>.J.......
0560: 7F 1C 1E 80 4A 96 90 0F  01 F0 FF FF 7F 66 2E 80  ....J........f..
0570: 10 90 0F 01 10 90 0F 01  74 6C 6B 31 52 15 80 F8  ........tlk1R...
0580: FF FF 7F F8 FF FF 7F 73  30 32 30 45 15 80 F8 FF  .......s020E....
0590: FF 7F F8 FF FF 7F 73 30  32 31 01 80 5B 39 80 95  ......s021..[9..
05A0: 90 0F 01 95 90 0F 01 74  6C 6B 30 79 00 F0 FF FF  .......tlk0y....
05B0: 7F 95 90 0F 01 4A 10 90  0F 01 95 90 0F 01 2B 95  .....J........+.
05C0: 90 0F 01 3F 80 23 02 01  00 02 80 00 E8 05 2B 95  ...?.#........+.
05D0: 90 0F 01 40 80 23 52 15  80 F8 FF FF 7F F8 FF FF  ...@.#R.........
05E0: 7F 73 30 32 31 01 4C 06  2B 95 90 0F 01 41 80 23  .s021.L.+....A.#
05F0: 5B 39 80 95 90 0F 01 95  90 0F 01 74 6C 6B 31 52  [9.........tlk1R
0600: 15 80 F8 FF FF 7F F8 FF  FF 7F 73 30 32 31 45 15  ..........s021E.
0610: 80 F8 FF FF 7F F8 FF FF  7F 73 30 32 32 01 80 6E  .........s022..n
0620: F0 FF FF 7F 42 80 99 F0  FF FF 7F 1C 3E 80 5B 39  ....B.......>.[9
0630: 80 95 90 0F 01 95 90 0F  01 74 6C 6B 30 52 15 80  .........tlk0R..
0640: F8 FF FF 7F F8 FF FF 7F  73 30 32 32 45 15 80 F8  ........s022E...
0650: FF FF 7F F8 FF FF 7F 73  30 32 33 01 80 2B 95 90  .......s023..+..
0660: 0F 01 43 80 23 2B 95 90  0F 01 44 80 23 2B 95 90  ..C.#+....D.#+..
0670: 0F 01 45 80 23 52 15 80  F8 FF FF 7F F8 FF FF 7F  ..E.#R..........
0680: 73 30 32 33 45 15 80 F8  FF FF 7F F8 FF FF 7F 73  s023E..........s
0690: 30 32 34 01 80 4E 01 96  90 0F 01 BA 96 90 0F 01  024..N..........
06A0: 46 80 47 80 07 80 48 80  4A 96 90 0F 01 95 90 0F  F.G...H.J.......
06B0: 01 2B 95 90 0F 01 49 80  23 2B 95 90 0F 01 4A 80  .+....I.#+....J.
06C0: 23 52 15 80 F8 FF FF 7F  F8 FF FF 7F 73 30 32 34  #R..........s024
06D0: 45 15 80 F8 FF FF 7F F8  FF FF 7F 73 30 32 35 01  E..........s025.
06E0: 80 2B 95 90 0F 01 4B 80  23 2B 95 90 0F 01 4C 80  .+....K.#+....L.
06F0: 23 5B 39 80 95 90 0F 01  95 90 0F 01 74 6C 6B 31  #[9.........tlk1
0700: 52 15 80 F8 FF FF 7F F8  FF FF 7F 73 30 32 35 45  R..........s025E
0710: 15 80 F8 FF FF 7F F8 FF  FF 7F 73 30 32 36 01 80  ..........s026..
0720: 2B 95 90 0F 01 4D 80 23  4E 00 96 90 0F 01 80 96  +....M.#N.......
0730: 90 0F 01 4A 95 90 0F 01  96 90 0F 01 52 15 80 F8  ...J........R...
0740: FF FF 7F F8 FF FF 7F 73  30 32 36 45 15 80 F8 FF  .......s026E....
0750: FF 7F F8 FF FF 7F 73 30  32 37 01 80 79 00 96 90  ......s027..y...
0760: 0F 01 95 90 0F 01 1C 1E  80 2B 95 90 0F 01 4E 80  .........+....N.
0770: 23 6E 96 90 0F 01 3C 80  99 96 90 0F 01 1C 3E 80  #n....<.......>.
0780: 52 15 80 F8 FF FF 7F F8  FF FF 7F 73 30 32 37 45  R..........s027E
0790: 15 80 F8 FF FF 7F F8 FF  FF 7F 73 30 32 38 01 80  ..........s028..
07A0: 27 05 95 90 0F 01 06 7B  95 90 0F 01 1C 1F 80 27  '......{.......'
07B0: 05 96 90 0F 01 06 27 05  33 90 0F 01 05 1C 1F 80  ......'.3.......
07C0: 52 15 80 F8 FF FF 7F F8  FF FF 7F 73 30 32 38 45  R..........s028E
07D0: 15 80 F8 FF FF 7F F8 FF  FF 7F 73 30 32 39 01 80  ..........s029..
07E0: 4A 10 90 0F 01 F0 FF FF  7F 1C 1E 80 4A F0 FF FF  J...........J...
07F0: 7F 10 90 0F 01 6E 10 90  0F 01 4F 80 99 10 90 0F  .....n....O.....
0800: 01 2B 10 90 0F 01 50 80  23 66 2E 80 10 90 0F 01  .+....P.#f......
0810: 10 90 0F 01 74 6C 6B 30  2B 10 90 0F 01 51 80 23  ....tlk0+....Q.#
0820: 52 15 80 F8 FF FF 7F F8  FF FF 7F 73 30 32 39 45  R..........s029E
0830: 15 80 F8 FF FF 7F F8 FF  FF 7F 73 30 33 30 01 80  ..........s030..
0840: 2B 10 90 0F 01 52 80 23  02 00 00 01 80 00 5B 08  +....R.#......[.
0850: 2B 10 90 0F 01 53 80 23  01 63 08 2B 10 90 0F 01  +....S.#.c.+....
0860: 54 80 23 45 00 80 F8 FF  FF 7F F8 FF FF 7F 66 64  T.#E..........fd
0870: 6F 31 01 80 55 00 80 F8  FF FF 7F F8 FF FF 7F 66  o1..U..........f
0880: 64 6F 31 52 15 80 F8 FF  FF 7F F8 FF FF 7F 73 30  do1R..........s0
0890: 33 30 46 00 45 00 80 F8  FF FF 7F F8 FF FF 7F 66  30F.E..........f
08A0: 64 69 32 01 80 21 00                              di2..!.         
```

#### Opcodes

```
  0: 0x0281 [0x42] SET_CLI_EVENT_CANCEL_DATA()
  1: 0x0282 [0x03] ExtData[1]->WorkLocal[0] = Work_Zone[8]
  2: 0x0287 [0x03] ExtData[1]->WorkLocal[1] = Work_Zone[9]
  3: 0x028C [0x45] LOAD_SCHEDULED_TASK: Load scheduler "fdo1" with entities [EventEntity, EventEntity], work=[200*, 0*]
  4: 0x029D [0x55] WAIT_LOAD_SCHEDULER: Wait for scheduler "fdo1" with entities [EventEntity, EventEntity], work=200*
  5: 0x02AC [0x46] CAMERA_CONTROL: Disable user control
  6: 0x02AE [0x38] SET_CLIENT_EVENT_MODE(mode=27*)
  7: 0x02B1 [0x75] LOAD_ROOM(Load indoor room, room=487*)
  8: 0x02B5 [0x75] LOAD_ROOM(No action)
  9: 0x02B7 [0x2F] Gilgamesh (ID: 17797269/0x010F9095)->Render.Flags0 &= ~0x80000 // Bit 19
 10: 0x02BD [0x4E] SET_ENTITY_HIDE_FLAG: Show Gilgamesh (ID: 17797269/0x010F9095)
 11: 0x02C3 [0x92] Gilgamesh (ID: 17797269/0x010F9095)->Render.Flags3 ^= 0x01
 12: 0x02C9 [0x92] Tonasav (ID: 17797270/0x010F9096)->Render.Flags3 ^= 0x01
 13: 0x02CF [0x92] Ekokoko (ID: 17797136/0x010F9010)->Render.Flags3 ^= 0x01
 14: 0x02D5 [0x92] Numi Adaligo (ID: 17797137/0x010F9011)->Render.Flags3 ^= 0x01
 15: 0x02DB [0x94] Gilgamesh (ID: 17797269/0x010F9095)->Render.Flags3 ^= 0x01
 16: 0x02E1 [0x94] Tonasav (ID: 17797270/0x010F9096)->Render.Flags3 ^= 0x01
 17: 0x02E7 [0x94] LocalPlayer->Render.Flags3 ^= 0x01
 18: 0x02ED [0x94] Ekokoko (ID: 17797136/0x010F9010)->Render.Flags3 ^= 0x01
 19: 0x02F3 [0x94] Numi Adaligo (ID: 17797137/0x010F9011)->Render.Flags3 ^= 0x01
 20: 0x02F9 [0xBA] SET_ENTITY_POSITION(entity_id=Gilgamesh (ID: 17797269/0x010F9095), pos_x=-68.037*, pos_z=32.176*, pos_y=-23.999*, direction=178.1°*)
 21: 0x0306 [0xBA] SET_ENTITY_POSITION(entity_id=Tonasav (ID: 17797270/0x010F9096), pos_x=-66.328*, pos_z=32.011*, pos_y=-23.999*, direction=174.8°*)
 22: 0x0313 [0xBA] SET_ENTITY_POSITION(entity_id=LocalPlayer, pos_x=-77.447*, pos_z=31.552*, pos_y=-24.000*, direction=84.0°*)
 23: 0x0320 [0x80] LOAD_WAIT(entity=Gilgamesh (ID: 17797269/0x010F9095))
 24: 0x0325 [0x80] LOAD_WAIT(entity=Tonasav (ID: 17797270/0x010F9096))
 25: 0x032A [0x80] LOAD_WAIT(entity=LocalPlayer)
 26: 0x032F [0x80] LOAD_WAIT(entity=Ekokoko (ID: 17797136/0x010F9010))
 27: 0x0334 [0x80] LOAD_WAIT(entity=Numi Adaligo (ID: 17797137/0x010F9011))
 28: 0x0339 [0x4A] Ekokoko (ID: 17797136/0x010F9010) looks at LocalPlayer
 29: 0x0342 [0x4A] LocalPlayer looks at Ekokoko (ID: 17797136/0x010F9010)
 30: 0x034B [0x1C] WAIT(30* ticks)
 31: 0x034E [0x45] LOAD_SCHEDULED_TASK: Load scheduler "s015" with entities [EventEntity, EventEntity], work=[760*, 0*]
 32: 0x035F [0x1C] WAIT(15* ticks)
 33: 0x0362 [0x45] LOAD_SCHEDULED_TASK: Load scheduler "fdi1" with entities [EventEntity, EventEntity], work=[200*, 0*]
 34: 0x0373 [0x66] LOAD_EXT_SCHEDULER_MAIN: Load scheduler "tlk0" with entities [Ekokoko (ID: 17797136/0x010F9010), Ekokoko (ID: 17797136/0x010F9010)], work=40*
 35: 0x0382 [0x2B] Ekokoko (ID: 17797136/0x010F9010) [8057*]:
    → "How fabulous that you made it back safe, <Player>!"
 36: 0x0389 [0x23] WAIT_FOR_DIALOG_INTERACTION
 37: 0x038A [0x2B] Ekokoko (ID: 17797136/0x010F9010) [8058*]:
    → "Your return couldn't have been more timely--Gilgamesh's ship has only just docked."
 38: 0x0391 [0x23] WAIT_FOR_DIALOG_INTERACTION
 39: 0x0392 [0x66] LOAD_EXT_SCHEDULER_MAIN: Load scheduler "tlk1" with entities [Ekokoko (ID: 17797136/0x010F9010), Ekokoko (ID: 17797136/0x010F9010)], work=40*
 40: 0x03A1 [0x27] REQ_SET(priority=0x05, entity_id=Door:Governor's House (ID: 17797171/0x010F9033), tag_num=0x05)
 41: 0x03A8 [0x52] END_LOAD_SCHEDULER: End scheduler "s015" with entities [EventEntity, EventEntity], work=760*
 42: 0x03B7 [0x45] LOAD_SCHEDULED_TASK: Load scheduler "s016" with entities [EventEntity, EventEntity], work=[760*, 0*]
 43: 0x03C8 [0x27] REQ_SET(priority=0x05, entity_id=Gilgamesh (ID: 17797269/0x010F9095), tag_num=0x05)
 44: 0x03CF [0x1C] WAIT(15* ticks)
 45: 0x03D2 [0x27] REQ_SET(priority=0x05, entity_id=Tonasav (ID: 17797270/0x010F9096), tag_num=0x05)
 46: 0x03D9 [0x1C] WAIT(180* ticks)
 47: 0x03DC [0xBA] SET_ENTITY_POSITION(entity_id=Ekokoko (ID: 17797136/0x010F9010), pos_x=-76.971*, pos_z=28.925*, pos_y=-23.999*, direction=269.9°*)
 48: 0x03E9 [0x4A] LocalPlayer looks at Gilgamesh (ID: 17797269/0x010F9095)
 49: 0x03F2 [0x4A] Ekokoko (ID: 17797136/0x010F9010) looks at Gilgamesh (ID: 17797269/0x010F9095)
 50: 0x03FB [0x1C] WAIT(30* ticks)
 51: 0x03FE [0x27] REQ_SET(priority=0x05, entity_id=Door:Governor's House (ID: 17797171/0x010F9033), tag_num=0x06)
 52: 0x0405 [0x52] END_LOAD_SCHEDULER: End scheduler "s016" with entities [EventEntity, EventEntity], work=760*
 53: 0x0414 [0x45] LOAD_SCHEDULED_TASK: Load scheduler "s017" with entities [EventEntity, EventEntity], work=[760*, 0*]
 54: 0x0425 [0x1C] WAIT(60* ticks)
 55: 0x0428 [0x02] IF !(ExtData[1]->WorkLocal[1] == 1*) GOTO 0x043B
 56: 0x0430 [0x2B] Gilgamesh (ID: 17797269/0x010F9095) [8059*]:
    → "<Player>, good t' see yer face again!"
 57: 0x0437 [0x23] WAIT_FOR_DIALOG_INTERACTION
 58: 0x0438 [0x01] GOTO 0x0443
 59: 0x043B [0x2B] Gilgamesh (ID: 17797269/0x010F9095) [8060*]:
    → "So you're <Player>, eh? I've 'eard much 'bout ya."
 60: 0x0442 [0x23] WAIT_FOR_DIALOG_INTERACTION

SUBROUTINE_0443:
 61: 0x0443 [0x2A] GET_REQ_LEVEL(level=5, entity_id=Gilgamesh (ID: 17797269/0x010F9095))
 62: 0x0449 [0x27] REQ_SET(priority=0x05, entity_id=Ekokoko (ID: 17797136/0x010F9010), tag_num=0x06)
 63: 0x0450 [0x1C] WAIT(30* ticks)
 64: 0x0453 [0x4A] Numi Adaligo (ID: 17797137/0x010F9011) looks at Gilgamesh (ID: 17797269/0x010F9095)
 65: 0x045C [0x4A] Gilgamesh (ID: 17797269/0x010F9095) looks at Ekokoko (ID: 17797136/0x010F9010)
 66: 0x0465 [0x4A] Tonasav (ID: 17797270/0x010F9096) looks at Ekokoko (ID: 17797136/0x010F9010)
 67: 0x046E [0x52] END_LOAD_SCHEDULER: End scheduler "s017" with entities [EventEntity, EventEntity], work=760*
 68: 0x047D [0x45] LOAD_SCHEDULED_TASK: Load scheduler "s018" with entities [EventEntity, EventEntity], work=[760*, 0*]
 69: 0x048E [0x03] Work_Zone[3] = 9083*
 70: 0x0493 [0x2B] Ekokoko (ID: 17797136/0x010F9010) [8061*]:
    → "Let's get the small matter of the $1 out of the way first. Here you go."
 71: 0x049A [0x23] WAIT_FOR_DIALOG_INTERACTION
 72: 0x049B [0x2A] GET_REQ_LEVEL(level=5, entity_id=Ekokoko (ID: 17797136/0x010F9010))
 73: 0x04A1 [0x52] END_LOAD_SCHEDULER: End scheduler "s018" with entities [EventEntity, EventEntity], work=760*
 74: 0x04B0 [0x45] LOAD_SCHEDULED_TASK: Load scheduler "s019" with entities [EventEntity, EventEntity], work=[760*, 0*]
 75: 0x04C1 [0x5B] LOAD_EXT_SCHEDULER: Load scheduler "tlk0" with entities [Gilgamesh (ID: 17797269/0x010F9095), Gilgamesh (ID: 17797269/0x010F9095)], work=566*
 76: 0x04D0 [0x2B] Gilgamesh (ID: 17797269/0x010F9095) [8062*]:
    → "Aye, this be just what we ordered. Now a little tit-fer-tat..."
 77: 0x04D7 [0x23] WAIT_FOR_DIALOG_INTERACTION
 78: 0x04D8 [0x5B] LOAD_EXT_SCHEDULER: Load scheduler "tlk1" with entities [Gilgamesh (ID: 17797269/0x010F9095), Gilgamesh (ID: 17797269/0x010F9095)], work=566*
 79: 0x04E7 [0x66] LOAD_EXT_SCHEDULER_MAIN: Load scheduler "pas0" with entities [Tonasav (ID: 17797270/0x010F9096), Tonasav (ID: 17797270/0x010F9096)], work=71*
 80: 0x04F6 [0x1C] WAIT(120* ticks)
 81: 0x04F9 [0x52] END_LOAD_SCHEDULER: End scheduler "s019" with entities [EventEntity, EventEntity], work=760*
 82: 0x0508 [0x45] LOAD_SCHEDULED_TASK: Load scheduler "s020" with entities [EventEntity, EventEntity], work=[760*, 0*]
 83: 0x0519 [0x6E] Ekokoko (ID: 17797136/0x010F9010) uses emote 7*
 84: 0x0520 [0x99] Wait for Ekokoko (ID: 17797136/0x010F9010) animation to complete
 85: 0x0525 [0x2B] Ekokoko (ID: 17797136/0x010F9010) [8063*]:
    → "Always too kind, Gilgamesh. Here, <Player>--one for you, too."
 86: 0x052C [0x1C] WAIT(90* ticks)
 87: 0x052F [0x4A] Ekokoko (ID: 17797136/0x010F9010) looks at LocalPlayer
 88: 0x0538 [0x79] LocalPlayer looks at Ekokoko (ID: 17797136/0x010F9010) (Basic look)
 89: 0x0542 [0x1C] WAIT(30* ticks)
 90: 0x0545 [0x23] WAIT_FOR_DIALOG_INTERACTION
 91: 0x0546 [0x66] LOAD_EXT_SCHEDULER_MAIN: Load scheduler "tlk0" with entities [Ekokoko (ID: 17797136/0x010F9010), Ekokoko (ID: 17797136/0x010F9010)], work=40*
 92: 0x0555 [0x1C] WAIT(90* ticks)
 93: 0x0558 [0x4A] Gilgamesh (ID: 17797269/0x010F9095) looks at LocalPlayer
 94: 0x0561 [0x1C] WAIT(30* ticks)
 95: 0x0564 [0x4A] Tonasav (ID: 17797270/0x010F9096) looks at LocalPlayer
 96: 0x056D [0x66] LOAD_EXT_SCHEDULER_MAIN: Load scheduler "tlk1" with entities [Ekokoko (ID: 17797136/0x010F9010), Ekokoko (ID: 17797136/0x010F9010)], work=40*
 97: 0x057C [0x52] END_LOAD_SCHEDULER: End scheduler "s020" with entities [EventEntity, EventEntity], work=760*
 98: 0x058B [0x45] LOAD_SCHEDULED_TASK: Load scheduler "s021" with entities [EventEntity, EventEntity], work=[760*, 0*]
 99: 0x059C [0x5B] LOAD_EXT_SCHEDULER: Load scheduler "tlk0" with entities [Gilgamesh (ID: 17797269/0x010F9095), Gilgamesh (ID: 17797269/0x010F9095)], work=566*
100: 0x05AB [0x79] LocalPlayer looks at Gilgamesh (ID: 17797269/0x010F9095) (Basic look)
101: 0x05B5 [0x4A] Ekokoko (ID: 17797136/0x010F9010) looks at Gilgamesh (ID: 17797269/0x010F9095)
102: 0x05BE [0x2B] Gilgamesh (ID: 17797269/0x010F9095) [8064*]:
    → "Suppose we'd best get down t' business."
103: 0x05C5 [0x23] WAIT_FOR_DIALOG_INTERACTION
104: 0x05C6 [0x02] IF !(ExtData[1]->WorkLocal[1] == 1*) GOTO 0x05E8
105: 0x05CE [0x2B] Gilgamesh (ID: 17797269/0x010F9095) [8065*]:
    → "<Player>, yer intimately familiar with my journeys as a pirate on the Bastore Sea."
106: 0x05D5 [0x23] WAIT_FOR_DIALOG_INTERACTION
107: 0x05D6 [0x52] END_LOAD_SCHEDULER: End scheduler "s021" with entities [EventEntity, EventEntity], work=760*
108: 0x05E5 [0x01] GOTO 0x064C
109: 0x05E8 [0x2B] Gilgamesh (ID: 17797269/0x010F9095) [8066*]:
    → "<Player>, might come as a bit of a surprise to hear this, but I'm a pirate known for roamin' the Bastore Sea."
110: 0x05EF [0x23] WAIT_FOR_DIALOG_INTERACTION
111: 0x05F0 [0x5B] LOAD_EXT_SCHEDULER: Load scheduler "tlk1" with entities [Gilgamesh (ID: 17797269/0x010F9095), Gilgamesh (ID: 17797269/0x010F9095)], work=566*
112: 0x05FF [0x52] END_LOAD_SCHEDULER: End scheduler "s021" with entities [EventEntity, EventEntity], work=760*
113: 0x060E [0x45] LOAD_SCHEDULED_TASK: Load scheduler "s022" with entities [EventEntity, EventEntity], work=[760*, 0*]
114: 0x061F [0x6E] LocalPlayer uses emote 21*
115: 0x0626 [0x99] Wait for LocalPlayer animation to complete
116: 0x062B [0x1C] WAIT(90* ticks)
117: 0x062E [0x5B] LOAD_EXT_SCHEDULER: Load scheduler "tlk0" with entities [Gilgamesh (ID: 17797269/0x010F9095), Gilgamesh (ID: 17797269/0x010F9095)], work=566*
118: 0x063D [0x52] END_LOAD_SCHEDULER: End scheduler "s022" with entities [EventEntity, EventEntity], work=760*

SUBROUTINE_064C:
119: 0x064C [0x45] LOAD_SCHEDULED_TASK: Load scheduler "s023" with entities [EventEntity, EventEntity], work=[760*, 0*]
120: 0x065D [0x2B] Gilgamesh (ID: 17797269/0x010F9095) [8067*]:
    → "The oceans ta the west have been a bit stormier'n usual of late, an' me crew an' I came across a small vessel adrift upon the tides."
121: 0x0664 [0x23] WAIT_FOR_DIALOG_INTERACTION
122: 0x0665 [0x2B] Gilgamesh (ID: 17797269/0x010F9095) [8068*]:
    → "So 'course I say to meself, who'd'a thunk that such a delicate rowboat could stay whole in such a terrible brew...an' then the whole thin' started flashin' red."
123: 0x066C [0x23] WAIT_FOR_DIALOG_INTERACTION
124: 0x066D [0x2B] Gilgamesh (ID: 17797269/0x010F9095) [8069*]:
    → "Being the curious sailor I am, I went an' investigated. Lo and behold, there was a pretty young lass lyin' prone along the deck."
125: 0x0674 [0x23] WAIT_FOR_DIALOG_INTERACTION
126: 0x0675 [0x52] END_LOAD_SCHEDULER: End scheduler "s023" with entities [EventEntity, EventEntity], work=760*
127: 0x0684 [0x45] LOAD_SCHEDULED_TASK: Load scheduler "s024" with entities [EventEntity, EventEntity], work=[760*, 0*]
128: 0x0695 [0x4E] SET_ENTITY_HIDE_FLAG: Hide Tonasav (ID: 17797270/0x010F9096)
129: 0x069B [0xBA] SET_ENTITY_POSITION(entity_id=Tonasav (ID: 17797270/0x010F9096), pos_x=-74.087*, pos_z=30.283*, pos_y=-24.000*, direction=356.2°*)
130: 0x06A8 [0x4A] Tonasav (ID: 17797270/0x010F9096) looks at Gilgamesh (ID: 17797269/0x010F9095)
131: 0x06B1 [0x2B] Gilgamesh (ID: 17797269/0x010F9095) [8070*]:
    → "I've always had quite the fondness fer the color red. Figurin' it must be a sign from Altana herself, I took her on board and brought her back with me ta Norg."
132: 0x06B8 [0x23] WAIT_FOR_DIALOG_INTERACTION
133: 0x06B9 [0x2B] Gilgamesh (ID: 17797269/0x010F9095) [8071*]:
    → "When she came to, the first words from those pale lips of hers were yer name."
134: 0x06C0 [0x23] WAIT_FOR_DIALOG_INTERACTION
135: 0x06C1 [0x52] END_LOAD_SCHEDULER: End scheduler "s024" with entities [EventEntity, EventEntity], work=760*
136: 0x06D0 [0x45] LOAD_SCHEDULED_TASK: Load scheduler "s025" with entities [EventEntity, EventEntity], work=[760*, 0*]
137: 0x06E1 [0x2B] Gilgamesh (ID: 17797269/0x010F9095) [8072*]:
    → "So I want ya ta come back ta Norg with us. She was quite insistent on meetin' ya."
138: 0x06E8 [0x23] WAIT_FOR_DIALOG_INTERACTION
139: 0x06E9 [0x2B] Gilgamesh (ID: 17797269/0x010F9095) [8073*]:
    → "Ya see, she's gone on a bit of a...hunger strike."
140: 0x06F0 [0x23] WAIT_FOR_DIALOG_INTERACTION
141: 0x06F1 [0x5B] LOAD_EXT_SCHEDULER: Load scheduler "tlk1" with entities [Gilgamesh (ID: 17797269/0x010F9095), Gilgamesh (ID: 17797269/0x010F9095)], work=566*
142: 0x0700 [0x52] END_LOAD_SCHEDULER: End scheduler "s025" with entities [EventEntity, EventEntity], work=760*
143: 0x070F [0x45] LOAD_SCHEDULED_TASK: Load scheduler "s026" with entities [EventEntity, EventEntity], work=[760*, 0*]
144: 0x0720 [0x2B] Gilgamesh (ID: 17797269/0x010F9095) [8074*]:
    → "The ship's docked at port waitin' ta take you whenever ya've got yer affairs in order here."
145: 0x0727 [0x23] WAIT_FOR_DIALOG_INTERACTION
146: 0x0728 [0x4E] SET_ENTITY_HIDE_FLAG: Show Tonasav (ID: 17797270/0x010F9096)
147: 0x072E [0x80] LOAD_WAIT(entity=Tonasav (ID: 17797270/0x010F9096))
148: 0x0733 [0x4A] Gilgamesh (ID: 17797269/0x010F9095) looks at Tonasav (ID: 17797270/0x010F9096)
149: 0x073C [0x52] END_LOAD_SCHEDULER: End scheduler "s026" with entities [EventEntity, EventEntity], work=760*
150: 0x074B [0x45] LOAD_SCHEDULED_TASK: Load scheduler "s027" with entities [EventEntity, EventEntity], work=[760*, 0*]
151: 0x075C [0x79] Tonasav (ID: 17797270/0x010F9096) looks at Gilgamesh (ID: 17797269/0x010F9095) (Basic look)
152: 0x0766 [0x1C] WAIT(30* ticks)
153: 0x0769 [0x2B] Gilgamesh (ID: 17797269/0x010F9095) [8075*]:
    → "I just remembered a bit of a pressin' engagement I've gotta attend to, but I'll catch up with ya there."
154: 0x0770 [0x23] WAIT_FOR_DIALOG_INTERACTION
155: 0x0771 [0x6E] Tonasav (ID: 17797270/0x010F9096) uses emote 7*
156: 0x0778 [0x99] Wait for Tonasav (ID: 17797270/0x010F9096) animation to complete
157: 0x077D [0x1C] WAIT(90* ticks)
158: 0x0780 [0x52] END_LOAD_SCHEDULER: End scheduler "s027" with entities [EventEntity, EventEntity], work=760*
159: 0x078F [0x45] LOAD_SCHEDULED_TASK: Load scheduler "s028" with entities [EventEntity, EventEntity], work=[760*, 0*]
160: 0x07A0 [0x27] REQ_SET(priority=0x05, entity_id=Gilgamesh (ID: 17797269/0x010F9095), tag_num=0x06)
161: 0x07A7 [0x7B] Gilgamesh (ID: 17797269/0x010F9095) stops talking
162: 0x07AC [0x1C] WAIT(120* ticks)
163: 0x07AF [0x27] REQ_SET(priority=0x05, entity_id=Tonasav (ID: 17797270/0x010F9096), tag_num=0x06)
164: 0x07B6 [0x27] REQ_SET(priority=0x05, entity_id=Door:Governor's House (ID: 17797171/0x010F9033), tag_num=0x05)
165: 0x07BD [0x1C] WAIT(120* ticks)
166: 0x07C0 [0x52] END_LOAD_SCHEDULER: End scheduler "s028" with entities [EventEntity, EventEntity], work=760*
167: 0x07CF [0x45] LOAD_SCHEDULED_TASK: Load scheduler "s029" with entities [EventEntity, EventEntity], work=[760*, 0*]
168: 0x07E0 [0x4A] Ekokoko (ID: 17797136/0x010F9010) looks at LocalPlayer
169: 0x07E9 [0x1C] WAIT(30* ticks)
170: 0x07EC [0x4A] LocalPlayer looks at Ekokoko (ID: 17797136/0x010F9010)
171: 0x07F5 [0x6E] Ekokoko (ID: 17797136/0x010F9010) uses emote 32*
172: 0x07FC [0x99] Wait for Ekokoko (ID: 17797136/0x010F9010) animation to complete
173: 0x0801 [0x2B] Ekokoko (ID: 17797136/0x010F9010) [8076*]:
    → "A-ahem. One last thing before you go. Please, please breathe no word to the citizens about me abetting a known pirate."
174: 0x0808 [0x23] WAIT_FOR_DIALOG_INTERACTION
175: 0x0809 [0x66] LOAD_EXT_SCHEDULER_MAIN: Load scheduler "tlk0" with entities [Ekokoko (ID: 17797136/0x010F9010), Ekokoko (ID: 17797136/0x010F9010)], work=40*
176: 0x0818 [0x2B] Ekokoko (ID: 17797136/0x010F9010) [8077*]:
    → "They might not all understand that a port town is only looking out for its best interests when it ensures that those less on the...up-and-up remain happy. When push comes to shove, aren't we all just looking out for each other?"
177: 0x081F [0x23] WAIT_FOR_DIALOG_INTERACTION
178: 0x0820 [0x52] END_LOAD_SCHEDULER: End scheduler "s029" with entities [EventEntity, EventEntity], work=760*
179: 0x082F [0x45] LOAD_SCHEDULED_TASK: Load scheduler "s030" with entities [EventEntity, EventEntity], work=[760*, 0*]
180: 0x0840 [0x2B] Ekokoko (ID: 17797136/0x010F9010) [8078*]:
    → "And while I'm not biting the hand that feeds me, I'd like to inform you that the token I have just offered is highly valued here in Mhaura."
181: 0x0847 [0x23] WAIT_FOR_DIALOG_INTERACTION
182: 0x0848 [0x02] IF !(ExtData[1]->WorkLocal[0] == 0*) GOTO 0x085B
183: 0x0850 [0x2B] Ekokoko (ID: 17797136/0x010F9010) [8079*]:
    → "Why don't you have a brief chat with Vera here before you leave for Norg?"
184: 0x0857 [0x23] WAIT_FOR_DIALOG_INTERACTION
185: 0x0858 [0x01] GOTO 0x0863
186: 0x085B [0x2B] Ekokoko (ID: 17797136/0x010F9010) [8080*]:
    → "I can only hope that you appreciate its value."
187: 0x0862 [0x23] WAIT_FOR_DIALOG_INTERACTION

SUBROUTINE_0863:
188: 0x0863 [0x45] LOAD_SCHEDULED_TASK: Load scheduler "fdo1" with entities [EventEntity, EventEntity], work=[200*, 0*]
189: 0x0874 [0x55] WAIT_LOAD_SCHEDULER: Wait for scheduler "fdo1" with entities [EventEntity, EventEntity], work=200*
190: 0x0883 [0x52] END_LOAD_SCHEDULER: End scheduler "s030" with entities [EventEntity, EventEntity], work=760*
191: 0x0892 [0x46] CAMERA_CONTROL: Restore default settings
192: 0x0894 [0x45] LOAD_SCHEDULED_TASK: Load scheduler "fdi2" with entities [EventEntity, EventEntity], work=[200*, 0*]
193: 0x08A5 [0x21] END_EVENT
194: 0x08A6 [0x00] END_REQSTACK()
```

### Event 371

#### Metadata

| Field        | Value     |
|--------------|-----------|
| Entrypoint   | 0x08A7    |
| Data Size    | 390 bytes |
| Instructions | 47        |

```
      00 01 02 03 04 05 06 07  08 09 0A 0B 0C 0D 0E 0F
      -- -- -- -- -- -- -- --  -- -- -- -- -- -- -- --
08A0:                      42  03 01 10 01 80 45 00 80         B.....E..
08B0: F8 FF FF 7F F8 FF FF 7F  66 64 6F 31 01 80 55 00  ........fdo1..U.
08C0: 80 F8 FF FF 7F F8 FF FF  7F 66 64 6F 31 46 01 38  .........fdo1F.8
08D0: 03 80 92 01 96 90 0F 01  94 01 96 90 0F 01 94 01  ................
08E0: F0 FF FF 7F BA F0 FF FF  7F 55 80 56 80 57 80 58  .........U.V.W.X
08F0: 80 80 96 90 0F 01 80 F0  FF FF 7F 4A 96 90 0F 01  ...........J....
0900: F0 FF FF 7F 4A F0 FF FF  7F 96 90 0F 01 1C 1E 80  ....J...........
0910: 45 15 80 F8 FF FF 7F F8  FF FF 7F 73 30 33 31 01  E..........s031.
0920: 80 1C 16 80 45 00 80 F8  FF FF 7F F8 FF FF 7F 66  ....E..........f
0930: 64 69 31 01 80 66 59 80  96 90 0F 01 96 90 0F 01  di1..fY.........
0940: 74 6C 6B 30 2B 96 90 0F  01 5A 80 23 66 59 80 96  tlk0+....Z.#fY..
0950: 90 0F 01 96 90 0F 01 74  6C 6B 31 24 5B 80 01 80  .......tlk1$[...
0960: 01 80 25 02 00 10 01 80  00 A7 09 52 15 80 F8 FF  ..%........R....
0970: FF 7F F8 FF FF 7F 73 30  33 31 45 15 80 F8 FF FF  ......s031E.....
0980: 7F F8 FF FF 7F 73 30 33  32 01 80 6E 96 90 0F 01  .....s032..n....
0990: 5C 80 99 96 90 0F 01 2B  96 90 0F 01 5D 80 23 03  \......+....].#.
09A0: 01 10 02 80 01 E9 09 02  00 10 02 80 00 E9 09 52  ...............R
09B0: 15 80 F8 FF FF 7F F8 FF  FF 7F 73 30 33 31 45 15  ..........s031E.
09C0: 80 F8 FF FF 7F F8 FF FF  7F 73 30 33 32 01 80 66  .........s032..f
09D0: 59 80 96 90 0F 01 96 90  0F 01 74 6C 6B 30 2B 96  Y.........tlk0+.
09E0: 90 0F 01 5E 80 23 01 E9  09 45 00 80 F8 FF FF 7F  ...^.#...E......
09F0: F8 FF FF 7F 66 64 6F 31  01 80 55 00 80 F8 FF FF  ....fdo1..U.....
0A00: 7F F8 FF FF 7F 66 64 6F  31 52 15 80 F8 FF FF 7F  .....fdo1R......
0A10: F8 FF FF 7F 73 30 33 32  46 00 45 00 80 F8 FF FF  ....s032F.E.....
0A20: 7F F8 FF FF 7F 66 64 69  32 01 80 21 00           .....fdi2..!.   
```

#### Opcodes

```
  0: 0x08A7 [0x42] SET_CLI_EVENT_CANCEL_DATA()
  1: 0x08A8 [0x03] Work_Zone[1] = 0*
  2: 0x08AD [0x45] LOAD_SCHEDULED_TASK: Load scheduler "fdo1" with entities [EventEntity, EventEntity], work=[200*, 0*]
  3: 0x08BE [0x55] WAIT_LOAD_SCHEDULER: Wait for scheduler "fdo1" with entities [EventEntity, EventEntity], work=200*
  4: 0x08CD [0x46] CAMERA_CONTROL: Disable user control
  5: 0x08CF [0x38] SET_CLIENT_EVENT_MODE(mode=27*)
  6: 0x08D2 [0x92] Tonasav (ID: 17797270/0x010F9096)->Render.Flags3 ^= 0x01
  7: 0x08D8 [0x94] Tonasav (ID: 17797270/0x010F9096)->Render.Flags3 ^= 0x01
  8: 0x08DE [0x94] LocalPlayer->Render.Flags3 ^= 0x01
  9: 0x08E4 [0xBA] SET_ENTITY_POSITION(entity_id=LocalPlayer, pos_x=-18.296*, pos_z=31.113*, pos_y=-7.989*, direction=88.7°*)
 10: 0x08F1 [0x80] LOAD_WAIT(entity=Tonasav (ID: 17797270/0x010F9096))
 11: 0x08F6 [0x80] LOAD_WAIT(entity=LocalPlayer)
 12: 0x08FB [0x4A] Tonasav (ID: 17797270/0x010F9096) looks at LocalPlayer
 13: 0x0904 [0x4A] LocalPlayer looks at Tonasav (ID: 17797270/0x010F9096)
 14: 0x090D [0x1C] WAIT(30* ticks)
 15: 0x0910 [0x45] LOAD_SCHEDULED_TASK: Load scheduler "s031" with entities [EventEntity, EventEntity], work=[760*, 0*]
 16: 0x0921 [0x1C] WAIT(15* ticks)
 17: 0x0924 [0x45] LOAD_SCHEDULED_TASK: Load scheduler "fdi1" with entities [EventEntity, EventEntity], work=[200*, 0*]
 18: 0x0935 [0x66] LOAD_EXT_SCHEDULER_MAIN: Load scheduler "tlk0" with entities [Tonasav (ID: 17797270/0x010F9096), Tonasav (ID: 17797270/0x010F9096)], work=9*
 19: 0x0944 [0x2B] Tonasav (ID: 17797270/0x010F9096) [8081*]:
    → "We're settin' sail fer Norg, landlubber! Hopefully you can handle the rough seas."
 20: 0x094B [0x23] WAIT_FOR_DIALOG_INTERACTION
 21: 0x094C [0x66] LOAD_EXT_SCHEDULER_MAIN: Load scheduler "tlk1" with entities [Tonasav (ID: 17797270/0x010F9096), Tonasav (ID: 17797270/0x010F9096)], work=9*
 22: 0x095B [0x24] CREATE_DIALOG(message_id=8082*, default_option=0*, option_flags=0*)
    → "Travel to Norg? [Yes./No.]"
 23: 0x0962 [0x25] WAIT_DIALOG_SELECT()
 24: 0x0963 [0x02] IF !(Work_Zone[0] == 0*) GOTO 0x09A7
 25: 0x096B [0x52] END_LOAD_SCHEDULER: End scheduler "s031" with entities [EventEntity, EventEntity], work=760*
 26: 0x097A [0x45] LOAD_SCHEDULED_TASK: Load scheduler "s032" with entities [EventEntity, EventEntity], work=[760*, 0*]
 27: 0x098B [0x6E] Tonasav (ID: 17797270/0x010F9096) uses emote 36*
 28: 0x0992 [0x99] Wait for Tonasav (ID: 17797270/0x010F9096) animation to complete
 29: 0x0997 [0x2B] Tonasav (ID: 17797270/0x010F9096) [8083*]:
    → "Hoist the sails, mateys! We're off!"
 30: 0x099E [0x23] WAIT_FOR_DIALOG_INTERACTION
 31: 0x099F [0x03] Work_Zone[1] = 1*
 32: 0x09A4 [0x01] GOTO 0x09E9
 33: 0x09A7 [0x02] IF !(Work_Zone[0] == 1*) GOTO 0x09E9
 34: 0x09AF [0x52] END_LOAD_SCHEDULER: End scheduler "s031" with entities [EventEntity, EventEntity], work=760*
 35: 0x09BE [0x45] LOAD_SCHEDULED_TASK: Load scheduler "s032" with entities [EventEntity, EventEntity], work=[760*, 0*]
 36: 0x09CF [0x66] LOAD_EXT_SCHEDULER_MAIN: Load scheduler "tlk0" with entities [Tonasav (ID: 17797270/0x010F9096), Tonasav (ID: 17797270/0x010F9096)], work=9*
 37: 0x09DE [0x2B] Tonasav (ID: 17797270/0x010F9096) [8084*]:
    → "Bwahaha, take all the time ye need!"
 38: 0x09E5 [0x23] WAIT_FOR_DIALOG_INTERACTION
 39: 0x09E6 [0x01] GOTO 0x09E9

SUBROUTINE_09E9:
 40: 0x09E9 [0x45] LOAD_SCHEDULED_TASK: Load scheduler "fdo1" with entities [EventEntity, EventEntity], work=[200*, 0*]
 41: 0x09FA [0x55] WAIT_LOAD_SCHEDULER: Wait for scheduler "fdo1" with entities [EventEntity, EventEntity], work=200*
 42: 0x0A09 [0x52] END_LOAD_SCHEDULER: End scheduler "s032" with entities [EventEntity, EventEntity], work=760*
 43: 0x0A18 [0x46] CAMERA_CONTROL: Restore default settings
 44: 0x0A1A [0x45] LOAD_SCHEDULED_TASK: Load scheduler "fdi2" with entities [EventEntity, EventEntity], work=[200*, 0*]
 45: 0x0A2B [0x21] END_EVENT
 46: 0x0A2C [0x00] END_REQSTACK()
```
