# 17797153 - Blandine

## Common Data

| Field            | Value            |
|------------------|------------------|
| Zone             | Mhaura (ID: 249) |
| Block Size       | 572 bytes        |
| Total Events     | 8                |
| References Count | 20               |

## List of Events

| Event ID                 | Entrypoint   |   Size |   Instructions |
|--------------------------|--------------|--------|----------------|
| [65535](#event-65535)    | 0x0000       |      1 |              1 |
| [122](#event-122)        | 0x0001       |     33 |              9 |
| [125](#event-125)        | 0x0022       |     21 |              5 |
| [124](#event-124)        | 0x0037       |    316 |             48 |
| [123](#event-123)        | 0x0173       |      1 |              1 |
| [65535.1](#event-655351) | 0x0174       |     16 |              2 |
| [128](#event-128)        | 0x0184       |     41 |             13 |
| [129](#event-129)        | 0x01AD       |     13 |              7 |

## DAT References (imed_data)

|   Index | Hex Value   |   Dec Value |
|---------|-------------|-------------|
|       0 | 0x0046      |          70 |
|       1 | 0x1B3A      |        6970 |
|       2 | 0x000A      |          10 |
|       3 | 0x1B3E      |        6974 |
|       4 | 0x00C8      |         200 |
|       5 | 0x0000      |           0 |
|       6 | 0x003C      |          60 |
|       7 | 0x007F      |         127 |
|       8 | 0x0003      |           3 |
|       9 | 0x0095      |         149 |
|      10 | 0x1B41      |        6977 |
|      11 | 0x1B42      |        6978 |
|      12 | 0x1B45      |        6981 |
|      13 | 0x0069      |         105 |
|      14 | 0x000B      |          11 |
|      15 | 0x1B67      |        7015 |
|      16 | 0x1B68      |        7016 |
|      17 | 0x1B69      |        7017 |
|      18 | 0x000C      |          12 |
|      19 | 0x1B6A      |        7018 |

## String References

- **6970**: Oh... Hello. I'm waiting for my husband. He's a sailor. I'll be fine. I'm used to waiting.
- **6974**: He will come back. I know it. I'll be fine. I'm used to waiting...
- **6977**: What are you talking about, Celestina? Your father will soon be home.
- **6978**: He's just late, that's all. His boat's not too far. I know it.
- **6981**: What is wrong with that girl? Oh, she's probably just excited to see her father after all this time.
- **7015**: Hello again. Thank you for helping us. Hm? What am I still doing here?
- **7016**: It's a funny story, really. The people who work here told me it's just not the same without me around.
- **7017**: So I've decided to stand here and pray for the safety of all who make their living out on the sea.
- **7018**: May the sea be kind to those who venture out in her realm...

## Events

### Event 65535

#### Metadata

| Field        | Value   |
|--------------|---------|
| Entrypoint   | 0x0000  |
| Data Size    | 1 bytes |
| Instructions | 1       |

```
      00 01 02 03 04 05 06 07  08 09 0A 0B 0C 0D 0E 0F
      -- -- -- -- -- -- -- --  -- -- -- -- -- -- -- --
0000: 00                                                .               
```

#### Opcodes

```
  0: 0x0000 [0x00] END_REQSTACK()
```

### Event 122

#### Metadata

| Field        | Value    |
|--------------|----------|
| Entrypoint   | 0x0001   |
| Data Size    | 33 bytes |
| Instructions | 9        |

```
      00 01 02 03 04 05 06 07  08 09 0A 0B 0C 0D 0E 0F
      -- -- -- -- -- -- -- --  -- -- -- -- -- -- -- --
0000:    1E F0 FF FF 7F 6F 70  5B 00 80 F8 FF FF 7F F8   .....op[.......
0010: FF FF 7F 74 6C 6B 30 1D  01 80 23 03 01 10 02 80  ...tlk0...#.....
0020: 21 00                                             !.              
```

#### Opcodes

```
  0: 0x0001 [0x1E] EventEntity looks at LocalPlayer and starts talking
  1: 0x0006 [0x6F] WAIT_FRAME_DELAY: Yield until WaitTime reaches zero
  2: 0x0007 [0x70] WAIT_ENTITY_RENDER_FLAG: Wait while EventEntity->Render.Flags3 bit 2 is set (cancel turn if not)
  3: 0x0008 [0x5B] LOAD_EXT_SCHEDULER: Load scheduler "tlk0" with entities [EventEntity, EventEntity], work=70*
  4: 0x0017 [0x1D] PRINT_EVENT_MESSAGE(message_id=6970*)
    → "Oh... Hello. I'm waiting for my husband. He's a sailor. I'll be fine. I'm used to waiting."
  5: 0x001A [0x23] WAIT_FOR_DIALOG_INTERACTION
  6: 0x001B [0x03] Work_Zone[1] = 10*
  7: 0x0020 [0x21] END_EVENT
  8: 0x0021 [0x00] END_REQSTACK()
```

### Event 125

#### Metadata

| Field        | Value    |
|--------------|----------|
| Entrypoint   | 0x0022   |
| Data Size    | 21 bytes |
| Instructions | 5        |

```
      00 01 02 03 04 05 06 07  08 09 0A 0B 0C 0D 0E 0F
      -- -- -- -- -- -- -- --  -- -- -- -- -- -- -- --
0020:       5B 00 80 F8 FF FF  7F F8 FF FF 7F 74 6C 6B    [..........tlk
0030: 30 1D 03 80 23 21 00                              0...#!.         
```

#### Opcodes

```
  0: 0x0022 [0x5B] LOAD_EXT_SCHEDULER: Load scheduler "tlk0" with entities [EventEntity, EventEntity], work=70*
  1: 0x0031 [0x1D] PRINT_EVENT_MESSAGE(message_id=6974*)
    → "He will come back. I know it. I'll be fine. I'm used to waiting..."
  2: 0x0034 [0x23] WAIT_FOR_DIALOG_INTERACTION
  3: 0x0035 [0x21] END_EVENT
  4: 0x0036 [0x00] END_REQSTACK()
```

### Event 124

#### Metadata

| Field        | Value     |
|--------------|-----------|
| Entrypoint   | 0x0037    |
| Data Size    | 316 bytes |
| Instructions | 48        |

```
      00 01 02 03 04 05 06 07  08 09 0A 0B 0C 0D 0E 0F
      -- -- -- -- -- -- -- --  -- -- -- -- -- -- -- --
0030:                      42  45 04 80 F0 FF FF 7F F0         BE.......
0040: FF FF 7F 66 64 6F 30 05  80 5D 05 80 06 80 55 04  ...fdo0..]....U.
0050: 80 F0 FF FF 7F F0 FF FF  7F 66 64 6F 30 5C 00 07  .........fdo0\..
0060: 80 5C 01 07 80 38 08 80  46 01 29 80 F0 FF FF 7F  .\...8..F.).....
0070: 14 45 09 80 F0 FF FF 7F  F0 FF FF 7F 73 65 30 32  .E..........se02
0080: 05 80 45 04 80 F0 FF FF  7F F0 FF FF 7F 66 64 69  ..E..........fdi
0090: 30 05 80 55 09 80 F0 FF  FF 7F F0 FF FF 7F 73 65  0..U..........se
00A0: 30 32 5D 07 80 02 80 55  04 80 F0 FF FF 7F F0 FF  02]....U........
00B0: FF 7F 66 64 69 30 5B 00  80 F8 FF FF 7F F8 FF FF  ..fdi0[.........
00C0: 7F 74 6C 6B 30 1D 03 80  23 5E 69 64 6C 30 29 80  .tlk0...#^idl0).
00D0: 22 90 0F 01 02 1E 22 90  0F 01 6F 70 29 80 22 90  "....."...op).".
00E0: 0F 01 03 5B 00 80 F8 FF  FF 7F F8 FF FF 7F 74 6C  ...[..........tl
00F0: 6B 30 1D 0A 80 23 27 80  22 90 0F 01 04 1D 0B 80  k0...#'.".......
0100: 23 5E 69 64 6C 30 29 80  22 90 0F 01 05 1E F0 FF  #^idl0).".......
0110: FF 7F 6F 70 5B 00 80 F8  FF FF 7F F8 FF FF 7F 74  ..op[..........t
0120: 68 6B 31 1D 0C 80 23 45  04 80 F0 FF FF 7F F0 FF  hk1...#E........
0130: FF 7F 66 64 6F 30 05 80  5D 05 80 06 80 55 04 80  ..fdo0..]....U..
0140: F0 FF FF 7F F0 FF FF 7F  66 64 6F 30 46 00 5C 00  ........fdo0F.\.
0150: 0D 80 5C 01 0D 80 45 04  80 F0 FF FF 7F F0 FF FF  ..\...E.........
0160: 7F 66 64 69 30 05 80 5D  07 80 02 80 03 01 10 0E  .fdi0..]........
0170: 80 21 00                                          .!.             
```

#### Opcodes

```
  0: 0x0037 [0x42] SET_CLI_EVENT_CANCEL_DATA()
  1: 0x0038 [0x45] LOAD_SCHEDULED_TASK: Load scheduler "fdo0" with entities [LocalPlayer, LocalPlayer], work=[200*, 0*]
  2: 0x0049 [0x5D] SET_MUSIC_VOLUME(volume=0*, fade_time=60*)
  3: 0x004E [0x55] WAIT_LOAD_SCHEDULER: Wait for scheduler "fdo0" with entities [LocalPlayer, LocalPlayer], work=200*
  4: 0x005D [0x5C] MUSIC_CONTROL: Set Idle (Day) music to song 127*
  5: 0x0061 [0x5C] MUSIC_CONTROL: Set Idle (Night) music to song 127*
  6: 0x0065 [0x38] SET_CLIENT_EVENT_MODE(mode=3*)
  7: 0x0068 [0x46] CAMERA_CONTROL: Disable user control
  8: 0x006A [0x29] REQ_SET_WAIT(priority=0x80, entity_id=LocalPlayer, tag_num=0x14)
  9: 0x0071 [0x45] LOAD_SCHEDULED_TASK: Load scheduler "se02" with entities [LocalPlayer, LocalPlayer], work=[149*, 0*]
 10: 0x0082 [0x45] LOAD_SCHEDULED_TASK: Load scheduler "fdi0" with entities [LocalPlayer, LocalPlayer], work=[200*, 0*]
 11: 0x0093 [0x55] WAIT_LOAD_SCHEDULER: Wait for scheduler "se02" with entities [LocalPlayer, LocalPlayer], work=149*
 12: 0x00A2 [0x5D] SET_MUSIC_VOLUME(volume=127*, fade_time=10*)
 13: 0x00A7 [0x55] WAIT_LOAD_SCHEDULER: Wait for scheduler "fdi0" with entities [LocalPlayer, LocalPlayer], work=200*
 14: 0x00B6 [0x5B] LOAD_EXT_SCHEDULER: Load scheduler "tlk0" with entities [EventEntity, EventEntity], work=70*
 15: 0x00C5 [0x1D] PRINT_EVENT_MESSAGE(message_id=6974*)
    → "He will come back. I know it. I'll be fine. I'm used to waiting..."
 16: 0x00C8 [0x23] WAIT_FOR_DIALOG_INTERACTION
 17: 0x00C9 [0x5E] EventEntity goes idle (kills current action) (animation: "idl0")
 18: 0x00CE [0x29] REQ_SET_WAIT(priority=0x80, entity_id=Celestina (ID: 17797154/0x010F9022), tag_num=0x02)
 19: 0x00D5 [0x1E] EventEntity looks at Celestina (ID: 17797154/0x010F9022) and starts talking
 20: 0x00DA [0x6F] WAIT_FRAME_DELAY: Yield until WaitTime reaches zero
 21: 0x00DB [0x70] WAIT_ENTITY_RENDER_FLAG: Wait while EventEntity->Render.Flags3 bit 2 is set (cancel turn if not)
 22: 0x00DC [0x29] REQ_SET_WAIT(priority=0x80, entity_id=Celestina (ID: 17797154/0x010F9022), tag_num=0x03)
 23: 0x00E3 [0x5B] LOAD_EXT_SCHEDULER: Load scheduler "tlk0" with entities [EventEntity, EventEntity], work=70*
 24: 0x00F2 [0x1D] PRINT_EVENT_MESSAGE(message_id=6977*)
    → "What are you talking about, Celestina? Your father will soon be home."
 25: 0x00F5 [0x23] WAIT_FOR_DIALOG_INTERACTION
 26: 0x00F6 [0x27] REQ_SET(priority=0x80, entity_id=Celestina (ID: 17797154/0x010F9022), tag_num=0x04)
 27: 0x00FD [0x1D] PRINT_EVENT_MESSAGE(message_id=6978*)
    → "He's just late, that's all. His boat's not too far. I know it."
 28: 0x0100 [0x23] WAIT_FOR_DIALOG_INTERACTION
 29: 0x0101 [0x5E] EventEntity goes idle (kills current action) (animation: "idl0")
 30: 0x0106 [0x29] REQ_SET_WAIT(priority=0x80, entity_id=Celestina (ID: 17797154/0x010F9022), tag_num=0x05)
 31: 0x010D [0x1E] EventEntity looks at LocalPlayer and starts talking
 32: 0x0112 [0x6F] WAIT_FRAME_DELAY: Yield until WaitTime reaches zero
 33: 0x0113 [0x70] WAIT_ENTITY_RENDER_FLAG: Wait while EventEntity->Render.Flags3 bit 2 is set (cancel turn if not)
 34: 0x0114 [0x5B] LOAD_EXT_SCHEDULER: Load scheduler "thk1" with entities [EventEntity, EventEntity], work=70*
 35: 0x0123 [0x1D] PRINT_EVENT_MESSAGE(message_id=6981*)
    → "What is wrong with that girl? Oh, she's probably just excited to see her father after all this time."
 36: 0x0126 [0x23] WAIT_FOR_DIALOG_INTERACTION
 37: 0x0127 [0x45] LOAD_SCHEDULED_TASK: Load scheduler "fdo0" with entities [LocalPlayer, LocalPlayer], work=[200*, 0*]
 38: 0x0138 [0x5D] SET_MUSIC_VOLUME(volume=0*, fade_time=60*)
 39: 0x013D [0x55] WAIT_LOAD_SCHEDULER: Wait for scheduler "fdo0" with entities [LocalPlayer, LocalPlayer], work=200*
 40: 0x014C [0x46] CAMERA_CONTROL: Restore default settings
 41: 0x014E [0x5C] MUSIC_CONTROL: Set Idle (Day) music to song 105*
 42: 0x0152 [0x5C] MUSIC_CONTROL: Set Idle (Night) music to song 105*
 43: 0x0156 [0x45] LOAD_SCHEDULED_TASK: Load scheduler "fdi0" with entities [LocalPlayer, LocalPlayer], work=[200*, 0*]
 44: 0x0167 [0x5D] SET_MUSIC_VOLUME(volume=127*, fade_time=10*)
 45: 0x016C [0x03] Work_Zone[1] = 11*
 46: 0x0171 [0x21] END_EVENT
 47: 0x0172 [0x00] END_REQSTACK()
```

### Event 123

#### Metadata

| Field        | Value   |
|--------------|---------|
| Entrypoint   | 0x0173  |
| Data Size    | 1 bytes |
| Instructions | 1       |

```
      00 01 02 03 04 05 06 07  08 09 0A 0B 0C 0D 0E 0F
      -- -- -- -- -- -- -- --  -- -- -- -- -- -- -- --
0170:          00                                          .            
```

#### Opcodes

```
  0: 0x0173 [0x00] END_REQSTACK()
```

### Event 65535.1

#### Metadata

| Field        | Value    |
|--------------|----------|
| Entrypoint   | 0x0174   |
| Data Size    | 16 bytes |
| Instructions | 2        |

```
      00 01 02 03 04 05 06 07  08 09 0A 0B 0C 0D 0E 0F
      -- -- -- -- -- -- -- --  -- -- -- -- -- -- -- --
0170:             5B 00 80 21  90 0F 01 21 90 0F 01 74      [..!...!...t
0180: 68 6B 31 00                                       hk1.            
```

#### Opcodes

```
  0: 0x0174 [0x5B] LOAD_EXT_SCHEDULER: Load scheduler "thk1" with entities [Blandine (ID: 17797153/0x010F9021), Blandine (ID: 17797153/0x010F9021)], work=70*
  1: 0x0183 [0x00] END_REQSTACK()
```

### Event 128

#### Metadata

| Field        | Value    |
|--------------|----------|
| Entrypoint   | 0x0184   |
| Data Size    | 41 bytes |
| Instructions | 13       |

```
      00 01 02 03 04 05 06 07  08 09 0A 0B 0C 0D 0E 0F
      -- -- -- -- -- -- -- --  -- -- -- -- -- -- -- --
0180:             1E F0 FF FF  7F 6F 70 5B 00 80 F8 FF      .....op[....
0190: FF 7F F8 FF FF 7F 74 6C  6B 30 1D 0F 80 23 1D 10  ......tlk0...#..
01A0: 80 23 1D 11 80 23 03 01  10 12 80 21 00           .#...#.....!.   
```

#### Opcodes

```
  0: 0x0184 [0x1E] EventEntity looks at LocalPlayer and starts talking
  1: 0x0189 [0x6F] WAIT_FRAME_DELAY: Yield until WaitTime reaches zero
  2: 0x018A [0x70] WAIT_ENTITY_RENDER_FLAG: Wait while EventEntity->Render.Flags3 bit 2 is set (cancel turn if not)
  3: 0x018B [0x5B] LOAD_EXT_SCHEDULER: Load scheduler "tlk0" with entities [EventEntity, EventEntity], work=70*
  4: 0x019A [0x1D] PRINT_EVENT_MESSAGE(message_id=7015*)
    → "Hello again. Thank you for helping us. Hm? What am I still doing here?"
  5: 0x019D [0x23] WAIT_FOR_DIALOG_INTERACTION
  6: 0x019E [0x1D] PRINT_EVENT_MESSAGE(message_id=7016*)
    → "It's a funny story, really. The people who work here told me it's just not the same without me around."
  7: 0x01A1 [0x23] WAIT_FOR_DIALOG_INTERACTION
  8: 0x01A2 [0x1D] PRINT_EVENT_MESSAGE(message_id=7017*)
    → "So I've decided to stand here and pray for the safety of all who make their living out on the sea."
  9: 0x01A5 [0x23] WAIT_FOR_DIALOG_INTERACTION
 10: 0x01A6 [0x03] Work_Zone[1] = 12*
 11: 0x01AB [0x21] END_EVENT
 12: 0x01AC [0x00] END_REQSTACK()
```

### Event 129

#### Metadata

| Field        | Value    |
|--------------|----------|
| Entrypoint   | 0x01AD   |
| Data Size    | 13 bytes |
| Instructions | 7        |

```
      00 01 02 03 04 05 06 07  08 09 0A 0B 0C 0D 0E 0F
      -- -- -- -- -- -- -- --  -- -- -- -- -- -- -- --
01A0:                                         1E F0 FF               ...
01B0: FF 7F 6F 70 1D 13 80 23  21 00                    ..op...#!.      
```

#### Opcodes

```
  0: 0x01AD [0x1E] EventEntity looks at LocalPlayer and starts talking
  1: 0x01B2 [0x6F] WAIT_FRAME_DELAY: Yield until WaitTime reaches zero
  2: 0x01B3 [0x70] WAIT_ENTITY_RENDER_FLAG: Wait while EventEntity->Render.Flags3 bit 2 is set (cancel turn if not)
  3: 0x01B4 [0x1D] PRINT_EVENT_MESSAGE(message_id=7018*)
    → "May the sea be kind to those who venture out in her realm..."
  4: 0x01B7 [0x23] WAIT_FOR_DIALOG_INTERACTION
  5: 0x01B8 [0x21] END_EVENT
  6: 0x01B9 [0x00] END_REQSTACK()
```
