# 17797136 - Ekokoko

## Common Data

| Field            | Value            |
|------------------|------------------|
| Zone             | Mhaura (ID: 249) |
| Block Size       | 244 bytes        |
| Total Events     | 8                |
| References Count | 13               |

## List of Events

| Event ID                 | Entrypoint   |   Size |   Instructions |
|--------------------------|--------------|--------|----------------|
| [65535](#event-65535)    | 0x0000       |      1 |              1 |
| [51](#event-51)          | 0x0001       |     33 |              9 |
| [52](#event-52)          | 0x0022       |     28 |              8 |
| [369](#event-369)        | 0x003E       |      1 |              1 |
| [65535.1](#event-655351) | 0x003F       |     22 |              6 |
| [370](#event-370)        | 0x0055       |      1 |              1 |
| [65535.2](#event-655352) | 0x0056       |     55 |              9 |
| [50](#event-50)          | 0x008D       |      1 |              1 |

## DAT References (imed_data)

|   Index | Hex Value   |   Dec Value |
|---------|-------------|-------------|
|       0 | 0x0028      |          40 |
|       1 | 0x1BC0      |        7104 |
|       2 | 0x000F      |          15 |
|       3 | 0x1BC1      |        7105 |
|       4 | 0x000D      |          13 |
|       5 | 0xFFFED0F9  |  4294889721 |
|       6 | 0x7948      |       31048 |
|       7 | 0xFFFFA240  |  4294943296 |
|       8 | 0x001E      |          30 |
|       9 | 0xFFFED71A  |  4294891290 |
|      10 | 0x7755      |       30549 |
|      11 | 0xFFFFA241  |  4294943297 |
|      12 | 0x0078      |         120 |

## String References

- **7104**: I'm Ekokoko, the governor of this little town. There isn't much to see, but you're welcome to stay as long as you want.
- **7105**: If there is anything you wish to know about Mhaura, ask my aide, Numi Adaligo. She's right over there.

## Events

### Event 65535

#### Metadata

| Field        | Value   |
|--------------|---------|
| Entrypoint   | 0x0000  |
| Data Size    | 1 bytes |
| Instructions | 1       |

```
      00 01 02 03 04 05 06 07  08 09 0A 0B 0C 0D 0E 0F
      -- -- -- -- -- -- -- --  -- -- -- -- -- -- -- --
0000: 00                                                .               
```

#### Opcodes

```
  0: 0x0000 [0x00] END_REQSTACK()
```

### Event 51

#### Metadata

| Field        | Value    |
|--------------|----------|
| Entrypoint   | 0x0001   |
| Data Size    | 33 bytes |
| Instructions | 9        |

```
      00 01 02 03 04 05 06 07  08 09 0A 0B 0C 0D 0E 0F
      -- -- -- -- -- -- -- --  -- -- -- -- -- -- -- --
0000:    1E F0 FF FF 7F 6F 70  66 00 80 F8 FF FF 7F F8   .....opf.......
0010: FF FF 7F 74 6C 6B 30 1D  01 80 23 03 01 10 02 80  ...tlk0...#.....
0020: 21 00                                             !.              
```

#### Opcodes

```
  0: 0x0001 [0x1E] EventEntity looks at LocalPlayer and starts talking
  1: 0x0006 [0x6F] WAIT_FRAME_DELAY: Yield until WaitTime reaches zero
  2: 0x0007 [0x70] WAIT_ENTITY_RENDER_FLAG: Wait while EventEntity->Render.Flags3 bit 2 is set (cancel turn if not)
  3: 0x0008 [0x66] LOAD_EXT_SCHEDULER_MAIN: Load scheduler "tlk0" with entities [EventEntity, EventEntity], work=40*
  4: 0x0017 [0x1D] PRINT_EVENT_MESSAGE(message_id=7104*)
    → "I'm Ekokoko, the governor of this little town. There isn't much to see, but you're welcome to stay as long as you want."
  5: 0x001A [0x23] WAIT_FOR_DIALOG_INTERACTION
  6: 0x001B [0x03] Work_Zone[1] = 15*
  7: 0x0020 [0x21] END_EVENT
  8: 0x0021 [0x00] END_REQSTACK()
```

### Event 52

#### Metadata

| Field        | Value    |
|--------------|----------|
| Entrypoint   | 0x0022   |
| Data Size    | 28 bytes |
| Instructions | 8        |

```
      00 01 02 03 04 05 06 07  08 09 0A 0B 0C 0D 0E 0F
      -- -- -- -- -- -- -- --  -- -- -- -- -- -- -- --
0020:       1E F0 FF FF 7F 6F  70 66 00 80 F8 FF FF 7F    .....opf......
0030: F8 FF FF 7F 74 6C 6B 30  1D 03 80 23 21 00        ....tlk0...#!.  
```

#### Opcodes

```
  0: 0x0022 [0x1E] EventEntity looks at LocalPlayer and starts talking
  1: 0x0027 [0x6F] WAIT_FRAME_DELAY: Yield until WaitTime reaches zero
  2: 0x0028 [0x70] WAIT_ENTITY_RENDER_FLAG: Wait while EventEntity->Render.Flags3 bit 2 is set (cancel turn if not)
  3: 0x0029 [0x66] LOAD_EXT_SCHEDULER_MAIN: Load scheduler "tlk0" with entities [EventEntity, EventEntity], work=40*
  4: 0x0038 [0x1D] PRINT_EVENT_MESSAGE(message_id=7105*)
    → "If there is anything you wish to know about Mhaura, ask my aide, Numi Adaligo. She's right over there."
  5: 0x003B [0x23] WAIT_FOR_DIALOG_INTERACTION
  6: 0x003C [0x21] END_EVENT
  7: 0x003D [0x00] END_REQSTACK()
```

### Event 369

#### Metadata

| Field        | Value   |
|--------------|---------|
| Entrypoint   | 0x003E  |
| Data Size    | 1 bytes |
| Instructions | 1       |

```
      00 01 02 03 04 05 06 07  08 09 0A 0B 0C 0D 0E 0F
      -- -- -- -- -- -- -- --  -- -- -- -- -- -- -- --
0030:                                            00                   . 
```

#### Opcodes

```
  0: 0x003E [0x00] END_REQSTACK()
```

### Event 65535.1

#### Metadata

| Field        | Value    |
|--------------|----------|
| Entrypoint   | 0x003F   |
| Data Size    | 22 bytes |
| Instructions | 6        |

```
      00 01 02 03 04 05 06 07  08 09 0A 0B 0C 0D 0E 0F
      -- -- -- -- -- -- -- --  -- -- -- -- -- -- -- --
0030:                                               32                 2
0040: 04 80 1F 00 05 80 06 80  07 80 1F 01 1E F0 FF FF  ................
0050: 7F 1C 08 80 00                                    .....           
```

#### Opcodes

```
  0: 0x003F [0x32] ExtData[1]->MainSpeed = 13* * 0.1
  1: 0x0042 [0x1F] MOVE_ENTITY: EventEntity moves to X=-77.575*, Z=31.048*, Y=-24.000*
  2: 0x004A [0x1F] MOVE_ENTITY: Update entity position (mode=1)
  3: 0x004C [0x1E] EventEntity looks at LocalPlayer and starts talking
  4: 0x0051 [0x1C] WAIT(30* ticks)
  5: 0x0054 [0x00] END_REQSTACK()
```

### Event 370

#### Metadata

| Field        | Value   |
|--------------|---------|
| Entrypoint   | 0x0055  |
| Data Size    | 1 bytes |
| Instructions | 1       |

```
      00 01 02 03 04 05 06 07  08 09 0A 0B 0C 0D 0E 0F
      -- -- -- -- -- -- -- --  -- -- -- -- -- -- -- --
0050:                00                                      .          
```

#### Opcodes

```
  0: 0x0055 [0x00] END_REQSTACK()
```

### Event 65535.2

#### Metadata

| Field        | Value    |
|--------------|----------|
| Entrypoint   | 0x0056   |
| Data Size    | 55 bytes |
| Instructions | 9        |

```
      00 01 02 03 04 05 06 07  08 09 0A 0B 0C 0D 0E 0F
      -- -- -- -- -- -- -- --  -- -- -- -- -- -- -- --
0050:                   32 04  80 1F 00 09 80 0A 80 0B        2.........
0060: 80 1F 01 1E 95 90 0F 01  1C 08 80 66 00 80 10 90  ...........f....
0070: 0F 01 10 90 0F 01 74 6C  6B 30 1C 0C 80 66 00 80  ......tlk0...f..
0080: 10 90 0F 01 10 90 0F 01  74 6C 6B 31 00           ........tlk1.   
```

#### Opcodes

```
  0: 0x0056 [0x32] ExtData[1]->MainSpeed = 13* * 0.1
  1: 0x0059 [0x1F] MOVE_ENTITY: EventEntity moves to X=-76.006*, Z=30.549*, Y=-23.999*
  2: 0x0061 [0x1F] MOVE_ENTITY: Update entity position (mode=1)
  3: 0x0063 [0x1E] EventEntity looks at Gilgamesh (ID: 17797269/0x010F9095) and starts talking
  4: 0x0068 [0x1C] WAIT(30* ticks)
  5: 0x006B [0x66] LOAD_EXT_SCHEDULER_MAIN: Load scheduler "tlk0" with entities [Ekokoko (ID: 17797136/0x010F9010), Ekokoko (ID: 17797136/0x010F9010)], work=40*
  6: 0x007A [0x1C] WAIT(120* ticks)
  7: 0x007D [0x66] LOAD_EXT_SCHEDULER_MAIN: Load scheduler "tlk1" with entities [Ekokoko (ID: 17797136/0x010F9010), Ekokoko (ID: 17797136/0x010F9010)], work=40*
  8: 0x008C [0x00] END_REQSTACK()
```

### Event 50

#### Metadata

| Field        | Value   |
|--------------|---------|
| Entrypoint   | 0x008D  |
| Data Size    | 1 bytes |
| Instructions | 1       |

```
      00 01 02 03 04 05 06 07  08 09 0A 0B 0C 0D 0E 0F
      -- -- -- -- -- -- -- --  -- -- -- -- -- -- -- --
0080:                                         00                     .  
```

#### Opcodes

```
  0: 0x008D [0x00] END_REQSTACK()
```
