# 17797196 - Hagain

## Common Data

| Field            | Value            |
|------------------|------------------|
| Zone             | Mhaura (ID: 249) |
| Block Size       | 932 bytes        |
| Total Events     | 35               |
| References Count | 26               |

## List of Events

| Event ID                   | Entrypoint   |   Size |   Instructions |
|----------------------------|--------------|--------|----------------|
| [65535](#event-65535)      | 0x0000       |      1 |              1 |
| [65535.1](#event-655351)   | 0x0001       |     16 |              2 |
| [65535.2](#event-655352)   | 0x0011       |     22 |              4 |
| [65535.3](#event-655353)   | 0x0027       |     16 |              2 |
| [65535.4](#event-655354)   | 0x0037       |     14 |              2 |
| [65535.5](#event-655355)   | 0x0045       |     16 |              2 |
| [65535.6](#event-655356)   | 0x0055       |     14 |              2 |
| [65535.7](#event-655357)   | 0x0063       |     16 |              2 |
| [65535.8](#event-655358)   | 0x0073       |     14 |              2 |
| [65535.9](#event-655359)   | 0x0081       |     16 |              2 |
| [65535.10](#event-6553510) | 0x0091       |     14 |              2 |
| [65535.11](#event-6553511) | 0x009F       |     16 |              2 |
| [65535.12](#event-6553512) | 0x00AF       |     14 |              2 |
| [65535.13](#event-6553513) | 0x00BD       |     16 |              2 |
| [65535.14](#event-6553514) | 0x00CD       |     14 |              2 |
| [65535.15](#event-6553515) | 0x00DB       |     16 |              2 |
| [65535.16](#event-6553516) | 0x00EB       |     14 |              2 |
| [65535.17](#event-6553517) | 0x00F9       |      9 |              3 |
| [10002](#event-10002)      | 0x0102       |     15 |              8 |
| [10003](#event-10003)      | 0x0111       |    105 |             18 |
| [65535.18](#event-6553518) | 0x017A       |      5 |              3 |
| [65535.19](#event-6553519) | 0x017F       |     23 |              7 |
| [65535.20](#event-6553520) | 0x0196       |      5 |              3 |
| [65535.21](#event-6553521) | 0x019B       |     19 |              5 |
| [65535.22](#event-6553522) | 0x01AE       |     12 |              4 |
| [65535.23](#event-6553523) | 0x01BA       |     12 |              4 |
| [65535.24](#event-6553524) | 0x01C6       |     19 |              5 |
| [65535.25](#event-6553525) | 0x01D9       |     23 |              7 |
| [10004](#event-10004)      | 0x01F0       |     37 |             14 |
| [10005](#event-10005)      | 0x0215       |     40 |             11 |
| [65535.26](#event-6553526) | 0x023D       |      5 |              3 |
| [65535.27](#event-6553527) | 0x0242       |     23 |              7 |
| [65535.28](#event-6553528) | 0x0259       |     19 |              5 |
| [65535.29](#event-6553529) | 0x026C       |     19 |              5 |
| [10006](#event-10006)      | 0x027F       |     33 |             12 |

## DAT References (imed_data)

|   Index | Hex Value   |   Dec Value |
|---------|-------------|-------------|
|       0 | 0x003C      |          60 |
|       1 | 0x001E      |          30 |
|       2 | 0x1C4E      |        7246 |
|       3 | 0x00C8      |         200 |
|       4 | 0x0000      |           0 |
|       5 | 0x0078      |         120 |
|       6 | 0x1C4F      |        7247 |
|       7 | 0x1C50      |        7248 |
|       8 | 0x1C51      |        7249 |
|       9 | 0x1C52      |        7250 |
|      10 | 0x1C53      |        7251 |
|      11 | 0x1C54      |        7252 |
|      12 | 0x1C55      |        7253 |
|      13 | 0x1C56      |        7254 |
|      14 | 0x1C57      |        7255 |
|      15 | 0x1C58      |        7256 |
|      16 | 0x1C59      |        7257 |
|      17 | 0x1C5A      |        7258 |
|      18 | 0x1C5B      |        7259 |
|      19 | 0x1C5C      |        7260 |
|      20 | 0x1C5D      |        7261 |
|      21 | 0x1C5E      |        7262 |
|      22 | 0x1C5F      |        7263 |
|      23 | 0x1C60      |        7264 |
|      24 | 0x1C61      |        7265 |
|      25 | 0x1C62      |        7266 |

## String References

- **7246**: I'm tired of always being on the move. I just want to settle down somewhere and take it easy in my twilight years.
- **7247**: Ah yes, I remember you. You were one of the thieves from the Tenshodo gathering. Isn't this a coincidence? What business have you in Mhaura?
- **7248**: Hmm? You say you have something to ask me?
- **7249**: I'll tell you right up front. If you want me to help you in the Atarefaunet treasure hunt, I'll need to know the names of the people working with you.
- **7250**: I seem to have been a little hasty in my judgment. So many of our fellow thieves are falling over each other out there trying to find that treasure.
- **7251**: Well, this is unexpected. You want me to tell you the name signed on the papers I handed in for that last job?
- **7252**: ...I must apologize, but I can't seem to remember it too clearly. I wonder why that is?
- **7253**: I may be able to jog my memory if you do me a favor. Go to Garlaige Citadel and defeat a particularly nasty bomb that is hiding up in the ceiling.
- **7254**: Find the holes in the ceiling and try burning this $3 underneath them. The bomb should be smoked out of its hiding place. Defeating it should be a walk in the park for an adventurer like you.
- **7255**: ...One more thing. I'm going to need some evidence that you've really defeated the bomb. According to rumor, that particular bomb should drop $2.
- **7256**: If you bring that back to me, I'll make more of an effort to recall what you want to know. Good luck.
- **7257**: Defeat the boisterous bomb lurking in the ceiling of Garlaige Citadel and bring me $2 as evidence that the task is done.
- **7258**: Find the holes in the ceiling and try burning this $3 underneath them. The bomb should be smoked out of its hiding place.
- **7259**: Be careful, adventurer.
- **7260**: Well done, adventurer. You could make monster extermination a new career.
- **7261**: Now that you've completed your task, I seem to have remembered something. The signature on my papers was the letter "D."
- **7262**: You know, most thieves are a greedy bunch...your kind is rare. Aren't you salivating over this Atarefaunet treasure like everybody else?
- **7263**: No...Your kind is the most dangerous... Have to be careful around you... You pretend not to have the slightest interest and then snatch up the prize while everyone's backs are turned...
- **7264**: Well, you're not going to fool me. I'm done talking with you, so be on your way.
- **7265**: The Tenshodo is treating this talk of the Atarefaunet treasure as just another rumor. To spread this far, though, there must be a kernel of truth to it.
- **7266**: If you're going to join the race for the treasure, you might want to hire yourself a bodyguard. Sometimes these things can turn into a bloody free-for-all.

## Events

### Event 65535

#### Metadata

| Field        | Value   |
|--------------|---------|
| Entrypoint   | 0x0000  |
| Data Size    | 1 bytes |
| Instructions | 1       |

```
      00 01 02 03 04 05 06 07  08 09 0A 0B 0C 0D 0E 0F
      -- -- -- -- -- -- -- --  -- -- -- -- -- -- -- --
0000: 00                                                .               
```

#### Opcodes

```
  0: 0x0000 [0x00] END_REQSTACK()
```

### Event 65535.1

#### Metadata

| Field        | Value    |
|--------------|----------|
| Entrypoint   | 0x0001   |
| Data Size    | 16 bytes |
| Instructions | 2        |

```
      00 01 02 03 04 05 06 07  08 09 0A 0B 0C 0D 0E 0F
      -- -- -- -- -- -- -- --  -- -- -- -- -- -- -- --
0000:    5B 00 80 F8 FF FF 7F  F8 FF FF 7F 74 6C 6B 30   [..........tlk0
0010: 00                                                .               
```

#### Opcodes

```
  0: 0x0001 [0x5B] LOAD_EXT_SCHEDULER: Load scheduler "tlk0" with entities [EventEntity, EventEntity], work=60*
  1: 0x0010 [0x00] END_REQSTACK()
```

### Event 65535.2

#### Metadata

| Field        | Value    |
|--------------|----------|
| Entrypoint   | 0x0011   |
| Data Size    | 22 bytes |
| Instructions | 4        |

```
      00 01 02 03 04 05 06 07  08 09 0A 0B 0C 0D 0E 0F
      -- -- -- -- -- -- -- --  -- -- -- -- -- -- -- --
0010:    53 F8 FF FF 7F F8 FF  FF 7F 74 6C 6B 30 5E 69   S........tlk0^i
0020: 64 6C 30 1C 01 80 00                              dl0....         
```

#### Opcodes

```
  0: 0x0011 [0x53] WAIT_SCHEDULER_TASK: Wait for scheduler "tlk0" with entities [EventEntity, EventEntity]
  1: 0x001E [0x5E] EventEntity goes idle (kills current action) (animation: "idl0")
  2: 0x0023 [0x1C] WAIT(30* ticks)
  3: 0x0026 [0x00] END_REQSTACK()
```

### Event 65535.3

#### Metadata

| Field        | Value    |
|--------------|----------|
| Entrypoint   | 0x0027   |
| Data Size    | 16 bytes |
| Instructions | 2        |

```
      00 01 02 03 04 05 06 07  08 09 0A 0B 0C 0D 0E 0F
      -- -- -- -- -- -- -- --  -- -- -- -- -- -- -- --
0020:                      5B  00 80 F8 FF FF 7F F8 FF         [........
0030: FF 7F 74 68 6B 31 00                              ..thk1.         
```

#### Opcodes

```
  0: 0x0027 [0x5B] LOAD_EXT_SCHEDULER: Load scheduler "thk1" with entities [EventEntity, EventEntity], work=60*
  1: 0x0036 [0x00] END_REQSTACK()
```

### Event 65535.4

#### Metadata

| Field        | Value    |
|--------------|----------|
| Entrypoint   | 0x0037   |
| Data Size    | 14 bytes |
| Instructions | 2        |

```
      00 01 02 03 04 05 06 07  08 09 0A 0B 0C 0D 0E 0F
      -- -- -- -- -- -- -- --  -- -- -- -- -- -- -- --
0030:                      53  F8 FF FF 7F F8 FF FF 7F         S........
0040: 74 68 6B 31 00                                    thk1.           
```

#### Opcodes

```
  0: 0x0037 [0x53] WAIT_SCHEDULER_TASK: Wait for scheduler "thk1" with entities [EventEntity, EventEntity]
  1: 0x0044 [0x00] END_REQSTACK()
```

### Event 65535.5

#### Metadata

| Field        | Value    |
|--------------|----------|
| Entrypoint   | 0x0045   |
| Data Size    | 16 bytes |
| Instructions | 2        |

```
      00 01 02 03 04 05 06 07  08 09 0A 0B 0C 0D 0E 0F
      -- -- -- -- -- -- -- --  -- -- -- -- -- -- -- --
0040:                5B 00 80  F8 FF FF 7F F8 FF FF 7F       [..........
0050: 74 68 6B 32 00                                    thk2.           
```

#### Opcodes

```
  0: 0x0045 [0x5B] LOAD_EXT_SCHEDULER: Load scheduler "thk2" with entities [EventEntity, EventEntity], work=60*
  1: 0x0054 [0x00] END_REQSTACK()
```

### Event 65535.6

#### Metadata

| Field        | Value    |
|--------------|----------|
| Entrypoint   | 0x0055   |
| Data Size    | 14 bytes |
| Instructions | 2        |

```
      00 01 02 03 04 05 06 07  08 09 0A 0B 0C 0D 0E 0F
      -- -- -- -- -- -- -- --  -- -- -- -- -- -- -- --
0050:                53 F8 FF  FF 7F F8 FF FF 7F 74 68       S........th
0060: 6B 32 00                                          k2.             
```

#### Opcodes

```
  0: 0x0055 [0x53] WAIT_SCHEDULER_TASK: Wait for scheduler "thk2" with entities [EventEntity, EventEntity]
  1: 0x0062 [0x00] END_REQSTACK()
```

### Event 65535.7

#### Metadata

| Field        | Value    |
|--------------|----------|
| Entrypoint   | 0x0063   |
| Data Size    | 16 bytes |
| Instructions | 2        |

```
      00 01 02 03 04 05 06 07  08 09 0A 0B 0C 0D 0E 0F
      -- -- -- -- -- -- -- --  -- -- -- -- -- -- -- --
0060:          5B 00 80 F8 FF  FF 7F F8 FF FF 7F 70 61     [..........pa
0070: 73 30 00                                          s0.             
```

#### Opcodes

```
  0: 0x0063 [0x5B] LOAD_EXT_SCHEDULER: Load scheduler "pas0" with entities [EventEntity, EventEntity], work=60*
  1: 0x0072 [0x00] END_REQSTACK()
```

### Event 65535.8

#### Metadata

| Field        | Value    |
|--------------|----------|
| Entrypoint   | 0x0073   |
| Data Size    | 14 bytes |
| Instructions | 2        |

```
      00 01 02 03 04 05 06 07  08 09 0A 0B 0C 0D 0E 0F
      -- -- -- -- -- -- -- --  -- -- -- -- -- -- -- --
0070:          53 F8 FF FF 7F  F8 FF FF 7F 70 61 73 30     S........pas0
0080: 00                                                .               
```

#### Opcodes

```
  0: 0x0073 [0x53] WAIT_SCHEDULER_TASK: Wait for scheduler "pas0" with entities [EventEntity, EventEntity]
  1: 0x0080 [0x00] END_REQSTACK()
```

### Event 65535.9

#### Metadata

| Field        | Value    |
|--------------|----------|
| Entrypoint   | 0x0081   |
| Data Size    | 16 bytes |
| Instructions | 2        |

```
      00 01 02 03 04 05 06 07  08 09 0A 0B 0C 0D 0E 0F
      -- -- -- -- -- -- -- --  -- -- -- -- -- -- -- --
0080:    5B 00 80 F8 FF FF 7F  F8 FF FF 7F 61 6E 6E 30   [..........ann0
0090: 00                                                .               
```

#### Opcodes

```
  0: 0x0081 [0x5B] LOAD_EXT_SCHEDULER: Load scheduler "ann0" with entities [EventEntity, EventEntity], work=60*
  1: 0x0090 [0x00] END_REQSTACK()
```

### Event 65535.10

#### Metadata

| Field        | Value    |
|--------------|----------|
| Entrypoint   | 0x0091   |
| Data Size    | 14 bytes |
| Instructions | 2        |

```
      00 01 02 03 04 05 06 07  08 09 0A 0B 0C 0D 0E 0F
      -- -- -- -- -- -- -- --  -- -- -- -- -- -- -- --
0090:    53 F8 FF FF 7F F8 FF  FF 7F 61 6E 6E 30 00      S........ann0. 
```

#### Opcodes

```
  0: 0x0091 [0x53] WAIT_SCHEDULER_TASK: Wait for scheduler "ann0" with entities [EventEntity, EventEntity]
  1: 0x009E [0x00] END_REQSTACK()
```

### Event 65535.11

#### Metadata

| Field        | Value    |
|--------------|----------|
| Entrypoint   | 0x009F   |
| Data Size    | 16 bytes |
| Instructions | 2        |

```
      00 01 02 03 04 05 06 07  08 09 0A 0B 0C 0D 0E 0F
      -- -- -- -- -- -- -- --  -- -- -- -- -- -- -- --
0090:                                               5B                 [
00A0: 00 80 F8 FF FF 7F F8 FF  FF 7F 61 6E 6E 31 00     ..........ann1. 
```

#### Opcodes

```
  0: 0x009F [0x5B] LOAD_EXT_SCHEDULER: Load scheduler "ann1" with entities [EventEntity, EventEntity], work=60*
  1: 0x00AE [0x00] END_REQSTACK()
```

### Event 65535.12

#### Metadata

| Field        | Value    |
|--------------|----------|
| Entrypoint   | 0x00AF   |
| Data Size    | 14 bytes |
| Instructions | 2        |

```
      00 01 02 03 04 05 06 07  08 09 0A 0B 0C 0D 0E 0F
      -- -- -- -- -- -- -- --  -- -- -- -- -- -- -- --
00A0:                                               53                 S
00B0: F8 FF FF 7F F8 FF FF 7F  61 6E 6E 30 00           ........ann0.   
```

#### Opcodes

```
  0: 0x00AF [0x53] WAIT_SCHEDULER_TASK: Wait for scheduler "ann0" with entities [EventEntity, EventEntity]
  1: 0x00BC [0x00] END_REQSTACK()
```

### Event 65535.13

#### Metadata

| Field        | Value    |
|--------------|----------|
| Entrypoint   | 0x00BD   |
| Data Size    | 16 bytes |
| Instructions | 2        |

```
      00 01 02 03 04 05 06 07  08 09 0A 0B 0C 0D 0E 0F
      -- -- -- -- -- -- -- --  -- -- -- -- -- -- -- --
00B0:                                         5B 00 80               [..
00C0: F8 FF FF 7F F8 FF FF 7F  68 61 6E 30 00           ........han0.   
```

#### Opcodes

```
  0: 0x00BD [0x5B] LOAD_EXT_SCHEDULER: Load scheduler "han0" with entities [EventEntity, EventEntity], work=60*
  1: 0x00CC [0x00] END_REQSTACK()
```

### Event 65535.14

#### Metadata

| Field        | Value    |
|--------------|----------|
| Entrypoint   | 0x00CD   |
| Data Size    | 14 bytes |
| Instructions | 2        |

```
      00 01 02 03 04 05 06 07  08 09 0A 0B 0C 0D 0E 0F
      -- -- -- -- -- -- -- --  -- -- -- -- -- -- -- --
00C0:                                         53 F8 FF               S..
00D0: FF 7F F8 FF FF 7F 68 61  6E 30 00                 ......han0.     
```

#### Opcodes

```
  0: 0x00CD [0x53] WAIT_SCHEDULER_TASK: Wait for scheduler "han0" with entities [EventEntity, EventEntity]
  1: 0x00DA [0x00] END_REQSTACK()
```

### Event 65535.15

#### Metadata

| Field        | Value    |
|--------------|----------|
| Entrypoint   | 0x00DB   |
| Data Size    | 16 bytes |
| Instructions | 2        |

```
      00 01 02 03 04 05 06 07  08 09 0A 0B 0C 0D 0E 0F
      -- -- -- -- -- -- -- --  -- -- -- -- -- -- -- --
00D0:                                   5B 00 80 F8 FF             [....
00E0: FF 7F F8 FF FF 7F 68 61  6E 31 00                 ......han1.     
```

#### Opcodes

```
  0: 0x00DB [0x5B] LOAD_EXT_SCHEDULER: Load scheduler "han1" with entities [EventEntity, EventEntity], work=60*
  1: 0x00EA [0x00] END_REQSTACK()
```

### Event 65535.16

#### Metadata

| Field        | Value    |
|--------------|----------|
| Entrypoint   | 0x00EB   |
| Data Size    | 14 bytes |
| Instructions | 2        |

```
      00 01 02 03 04 05 06 07  08 09 0A 0B 0C 0D 0E 0F
      -- -- -- -- -- -- -- --  -- -- -- -- -- -- -- --
00E0:                                   53 F8 FF FF 7F             S....
00F0: F8 FF FF 7F 68 61 6E 31  00                       ....han1.       
```

#### Opcodes

```
  0: 0x00EB [0x53] WAIT_SCHEDULER_TASK: Wait for scheduler "han1" with entities [EventEntity, EventEntity]
  1: 0x00F8 [0x00] END_REQSTACK()
```

### Event 65535.17

#### Metadata

| Field        | Value   |
|--------------|---------|
| Entrypoint   | 0x00F9  |
| Data Size    | 9 bytes |
| Instructions | 3       |

```
      00 01 02 03 04 05 06 07  08 09 0A 0B 0C 0D 0E 0F
      -- -- -- -- -- -- -- --  -- -- -- -- -- -- -- --
00F0:                             5E 69 64 6C 30 1C 01           ^idl0..
0100: 80 00                                             ..              
```

#### Opcodes

```
  0: 0x00F9 [0x5E] EventEntity goes idle (kills current action) (animation: "idl0")
  1: 0x00FE [0x1C] WAIT(30* ticks)
  2: 0x0101 [0x00] END_REQSTACK()
```

### Event 10002

#### Metadata

| Field        | Value    |
|--------------|----------|
| Entrypoint   | 0x0102   |
| Data Size    | 15 bytes |
| Instructions | 8        |

```
      00 01 02 03 04 05 06 07  08 09 0A 0B 0C 0D 0E 0F
      -- -- -- -- -- -- -- --  -- -- -- -- -- -- -- --
0100:       1E F0 FF FF 7F 6F  70 1D 02 80 23 20 00 21    .....op...# .!
0110: 00                                                .               
```

#### Opcodes

```
  0: 0x0102 [0x1E] EventEntity looks at LocalPlayer and starts talking
  1: 0x0107 [0x6F] WAIT_FRAME_DELAY: Yield until WaitTime reaches zero
  2: 0x0108 [0x70] WAIT_ENTITY_RENDER_FLAG: Wait while EventEntity->Render.Flags3 bit 2 is set (cancel turn if not)
  3: 0x0109 [0x1D] PRINT_EVENT_MESSAGE(message_id=7246*)
    → "I'm tired of always being on the move. I just want to settle down somewhere and take it easy in my twilight years."
  4: 0x010C [0x23] WAIT_FOR_DIALOG_INTERACTION
  5: 0x010D [0x20] SET_CLI_EVENT_UC_FLAG: Unlock player control
  6: 0x010F [0x21] END_EVENT
  7: 0x0110 [0x00] END_REQSTACK()
```

### Event 10003

#### Metadata

| Field        | Value     |
|--------------|-----------|
| Entrypoint   | 0x0111    |
| Data Size    | 105 bytes |
| Instructions | 18        |

```
      00 01 02 03 04 05 06 07  08 09 0A 0B 0C 0D 0E 0F
      -- -- -- -- -- -- -- --  -- -- -- -- -- -- -- --
0110:    42 1E F0 FF FF 7F 6F  70 29 0B 4C 90 0F 01 14   B.....op).L....
0120: 29 0B 4C 90 0F 01 15 45  03 80 F8 FF FF 7F F8 FF  ).L....E........
0130: FF 7F 66 64 6F 31 04 80  1C 05 80 45 03 80 F8 FF  ..fdo1.....E....
0140: FF 7F F8 FF FF 7F 66 64  69 31 04 80 29 0B 4C 90  ......fdi1..).L.
0150: 0F 01 16 29 0B 4C 90 0F  01 17 29 0B 4C 90 0F 01  ...).L....).L...
0160: 18 29 0B 4C 90 0F 01 19  29 0B 4C 90 0F 01 1A 29  .).L....).L....)
0170: 0B 4C 90 0F 01 1B 20 00  21 00                    .L.... .!.      
```

#### Opcodes

```
  0: 0x0111 [0x42] SET_CLI_EVENT_CANCEL_DATA()
  1: 0x0112 [0x1E] EventEntity looks at LocalPlayer and starts talking
  2: 0x0117 [0x6F] WAIT_FRAME_DELAY: Yield until WaitTime reaches zero
  3: 0x0118 [0x70] WAIT_ENTITY_RENDER_FLAG: Wait while EventEntity->Render.Flags3 bit 2 is set (cancel turn if not)
  4: 0x0119 [0x29] REQ_SET_WAIT(priority=0x0B, entity_id=Hagain (ID: 17797196/0x010F904C), tag_num=0x14)
  5: 0x0120 [0x29] REQ_SET_WAIT(priority=0x0B, entity_id=Hagain (ID: 17797196/0x010F904C), tag_num=0x15)
  6: 0x0127 [0x45] LOAD_SCHEDULED_TASK: Load scheduler "fdo1" with entities [EventEntity, EventEntity], work=[200*, 0*]
  7: 0x0138 [0x1C] WAIT(120* ticks)
  8: 0x013B [0x45] LOAD_SCHEDULED_TASK: Load scheduler "fdi1" with entities [EventEntity, EventEntity], work=[200*, 0*]
  9: 0x014C [0x29] REQ_SET_WAIT(priority=0x0B, entity_id=Hagain (ID: 17797196/0x010F904C), tag_num=0x16)
 10: 0x0153 [0x29] REQ_SET_WAIT(priority=0x0B, entity_id=Hagain (ID: 17797196/0x010F904C), tag_num=0x17)
 11: 0x015A [0x29] REQ_SET_WAIT(priority=0x0B, entity_id=Hagain (ID: 17797196/0x010F904C), tag_num=0x18)
 12: 0x0161 [0x29] REQ_SET_WAIT(priority=0x0B, entity_id=Hagain (ID: 17797196/0x010F904C), tag_num=0x19)
 13: 0x0168 [0x29] REQ_SET_WAIT(priority=0x0B, entity_id=Hagain (ID: 17797196/0x010F904C), tag_num=0x1A)
 14: 0x016F [0x29] REQ_SET_WAIT(priority=0x0B, entity_id=Hagain (ID: 17797196/0x010F904C), tag_num=0x1B)
 15: 0x0176 [0x20] SET_CLI_EVENT_UC_FLAG: Unlock player control
 16: 0x0178 [0x21] END_EVENT
 17: 0x0179 [0x00] END_REQSTACK()
```

### Event 65535.18

#### Metadata

| Field        | Value   |
|--------------|---------|
| Entrypoint   | 0x017A  |
| Data Size    | 5 bytes |
| Instructions | 3       |

```
      00 01 02 03 04 05 06 07  08 09 0A 0B 0C 0D 0E 0F
      -- -- -- -- -- -- -- --  -- -- -- -- -- -- -- --
0170:                                1D 06 80 23 00               ...#. 
```

#### Opcodes

```
  0: 0x017A [0x1D] PRINT_EVENT_MESSAGE(message_id=7247*)
    → "Ah yes, I remember you. You were one of the thieves from the Tenshodo gathering. Isn't this a coincidence? What business have you in Mhaura?"
  1: 0x017D [0x23] WAIT_FOR_DIALOG_INTERACTION
  2: 0x017E [0x00] END_REQSTACK()
```

### Event 65535.19

#### Metadata

| Field        | Value    |
|--------------|----------|
| Entrypoint   | 0x017F   |
| Data Size    | 23 bytes |
| Instructions | 7        |

```
      00 01 02 03 04 05 06 07  08 09 0A 0B 0C 0D 0E 0F
      -- -- -- -- -- -- -- --  -- -- -- -- -- -- -- --
0170:                                               29                 )
0180: 08 4C 90 0F 01 01 1D 07  80 23 1D 08 80 23 29 08  .L.......#...#).
0190: 4C 90 0F 01 02 00                                 L.....          
```

#### Opcodes

```
  0: 0x017F [0x29] REQ_SET_WAIT(priority=0x08, entity_id=Hagain (ID: 17797196/0x010F904C), tag_num=0x01)
  1: 0x0186 [0x1D] PRINT_EVENT_MESSAGE(message_id=7248*)
    → "Hmm? You say you have something to ask me?"
  2: 0x0189 [0x23] WAIT_FOR_DIALOG_INTERACTION
  3: 0x018A [0x1D] PRINT_EVENT_MESSAGE(message_id=7249*)
    → "I'll tell you right up front. If you want me to help you in the Atarefaunet treasure hunt, I'll need to know the names of the people working with you."
  4: 0x018D [0x23] WAIT_FOR_DIALOG_INTERACTION
  5: 0x018E [0x29] REQ_SET_WAIT(priority=0x08, entity_id=Hagain (ID: 17797196/0x010F904C), tag_num=0x02)
  6: 0x0195 [0x00] END_REQSTACK()
```

### Event 65535.20

#### Metadata

| Field        | Value   |
|--------------|---------|
| Entrypoint   | 0x0196  |
| Data Size    | 5 bytes |
| Instructions | 3       |

```
      00 01 02 03 04 05 06 07  08 09 0A 0B 0C 0D 0E 0F
      -- -- -- -- -- -- -- --  -- -- -- -- -- -- -- --
0190:                   1D 09  80 23 00                       ...#.     
```

#### Opcodes

```
  0: 0x0196 [0x1D] PRINT_EVENT_MESSAGE(message_id=7250*)
    → "I seem to have been a little hasty in my judgment. So many of our fellow thieves are falling over each other out there trying to find that treasure."
  1: 0x0199 [0x23] WAIT_FOR_DIALOG_INTERACTION
  2: 0x019A [0x00] END_REQSTACK()
```

### Event 65535.21

#### Metadata

| Field        | Value    |
|--------------|----------|
| Entrypoint   | 0x019B   |
| Data Size    | 19 bytes |
| Instructions | 5        |

```
      00 01 02 03 04 05 06 07  08 09 0A 0B 0C 0D 0E 0F
      -- -- -- -- -- -- -- --  -- -- -- -- -- -- -- --
0190:                                   29 08 4C 90 0F             ).L..
01A0: 01 01 1D 0A 80 23 29 08  4C 90 0F 01 02 00        .....#).L.....  
```

#### Opcodes

```
  0: 0x019B [0x29] REQ_SET_WAIT(priority=0x08, entity_id=Hagain (ID: 17797196/0x010F904C), tag_num=0x01)
  1: 0x01A2 [0x1D] PRINT_EVENT_MESSAGE(message_id=7251*)
    → "Well, this is unexpected. You want me to tell you the name signed on the papers I handed in for that last job?"
  2: 0x01A5 [0x23] WAIT_FOR_DIALOG_INTERACTION
  3: 0x01A6 [0x29] REQ_SET_WAIT(priority=0x08, entity_id=Hagain (ID: 17797196/0x010F904C), tag_num=0x02)
  4: 0x01AD [0x00] END_REQSTACK()
```

### Event 65535.22

#### Metadata

| Field        | Value    |
|--------------|----------|
| Entrypoint   | 0x01AE   |
| Data Size    | 12 bytes |
| Instructions | 4        |

```
      00 01 02 03 04 05 06 07  08 09 0A 0B 0C 0D 0E 0F
      -- -- -- -- -- -- -- --  -- -- -- -- -- -- -- --
01A0:                                            29 08                ).
01B0: 4C 90 0F 01 03 1D 0B 80  23 00                    L.......#.      
```

#### Opcodes

```
  0: 0x01AE [0x29] REQ_SET_WAIT(priority=0x08, entity_id=Hagain (ID: 17797196/0x010F904C), tag_num=0x03)
  1: 0x01B5 [0x1D] PRINT_EVENT_MESSAGE(message_id=7252*)
    → "...I must apologize, but I can't seem to remember it too clearly. I wonder why that is?"
  2: 0x01B8 [0x23] WAIT_FOR_DIALOG_INTERACTION
  3: 0x01B9 [0x00] END_REQSTACK()
```

### Event 65535.23

#### Metadata

| Field        | Value    |
|--------------|----------|
| Entrypoint   | 0x01BA   |
| Data Size    | 12 bytes |
| Instructions | 4        |

```
      00 01 02 03 04 05 06 07  08 09 0A 0B 0C 0D 0E 0F
      -- -- -- -- -- -- -- --  -- -- -- -- -- -- -- --
01B0:                                1D 0C 80 23 29 08            ...#).
01C0: 4C 90 0F 01 04 00                                 L.....          
```

#### Opcodes

```
  0: 0x01BA [0x1D] PRINT_EVENT_MESSAGE(message_id=7253*)
    → "I may be able to jog my memory if you do me a favor. Go to Garlaige Citadel and defeat a particularly nasty bomb that is hiding up in the ceiling."
  1: 0x01BD [0x23] WAIT_FOR_DIALOG_INTERACTION
  2: 0x01BE [0x29] REQ_SET_WAIT(priority=0x08, entity_id=Hagain (ID: 17797196/0x010F904C), tag_num=0x04)
  3: 0x01C5 [0x00] END_REQSTACK()
```

### Event 65535.24

#### Metadata

| Field        | Value    |
|--------------|----------|
| Entrypoint   | 0x01C6   |
| Data Size    | 19 bytes |
| Instructions | 5        |

```
      00 01 02 03 04 05 06 07  08 09 0A 0B 0C 0D 0E 0F
      -- -- -- -- -- -- -- --  -- -- -- -- -- -- -- --
01C0:                   29 08  4C 90 0F 01 05 1D 0D 80        ).L.......
01D0: 23 29 08 4C 90 0F 01 06  00                       #).L.....       
```

#### Opcodes

```
  0: 0x01C6 [0x29] REQ_SET_WAIT(priority=0x08, entity_id=Hagain (ID: 17797196/0x010F904C), tag_num=0x05)
  1: 0x01CD [0x1D] PRINT_EVENT_MESSAGE(message_id=7254*)
    → "Find the holes in the ceiling and try burning this $3 underneath them. The bomb should be smoked out of its hiding place. Defeating it should be a walk in the park for an adventurer like you."
  2: 0x01D0 [0x23] WAIT_FOR_DIALOG_INTERACTION
  3: 0x01D1 [0x29] REQ_SET_WAIT(priority=0x08, entity_id=Hagain (ID: 17797196/0x010F904C), tag_num=0x06)
  4: 0x01D8 [0x00] END_REQSTACK()
```

### Event 65535.25

#### Metadata

| Field        | Value    |
|--------------|----------|
| Entrypoint   | 0x01D9   |
| Data Size    | 23 bytes |
| Instructions | 7        |

```
      00 01 02 03 04 05 06 07  08 09 0A 0B 0C 0D 0E 0F
      -- -- -- -- -- -- -- --  -- -- -- -- -- -- -- --
01D0:                             29 08 4C 90 0F 01 01           ).L....
01E0: 1D 0E 80 23 1D 0F 80 23  29 08 4C 90 0F 01 02 00  ...#...#).L.....
```

#### Opcodes

```
  0: 0x01D9 [0x29] REQ_SET_WAIT(priority=0x08, entity_id=Hagain (ID: 17797196/0x010F904C), tag_num=0x01)
  1: 0x01E0 [0x1D] PRINT_EVENT_MESSAGE(message_id=7255*)
    → "...One more thing. I'm going to need some evidence that you've really defeated the bomb. According to rumor, that particular bomb should drop $2."
  2: 0x01E3 [0x23] WAIT_FOR_DIALOG_INTERACTION
  3: 0x01E4 [0x1D] PRINT_EVENT_MESSAGE(message_id=7256*)
    → "If you bring that back to me, I'll make more of an effort to recall what you want to know. Good luck."
  4: 0x01E7 [0x23] WAIT_FOR_DIALOG_INTERACTION
  5: 0x01E8 [0x29] REQ_SET_WAIT(priority=0x08, entity_id=Hagain (ID: 17797196/0x010F904C), tag_num=0x02)
  6: 0x01EF [0x00] END_REQSTACK()
```

### Event 10004

#### Metadata

| Field        | Value    |
|--------------|----------|
| Entrypoint   | 0x01F0   |
| Data Size    | 37 bytes |
| Instructions | 14       |

```
      00 01 02 03 04 05 06 07  08 09 0A 0B 0C 0D 0E 0F
      -- -- -- -- -- -- -- --  -- -- -- -- -- -- -- --
01F0: 1E F0 FF FF 7F 6F 70 29  08 4C 90 0F 01 01 1D 10  .....op).L......
0200: 80 23 1D 11 80 23 1D 12  80 23 29 08 4C 90 0F 01  .#...#...#).L...
0210: 02 20 00 21 00                                    . .!.           
```

#### Opcodes

```
  0: 0x01F0 [0x1E] EventEntity looks at LocalPlayer and starts talking
  1: 0x01F5 [0x6F] WAIT_FRAME_DELAY: Yield until WaitTime reaches zero
  2: 0x01F6 [0x70] WAIT_ENTITY_RENDER_FLAG: Wait while EventEntity->Render.Flags3 bit 2 is set (cancel turn if not)
  3: 0x01F7 [0x29] REQ_SET_WAIT(priority=0x08, entity_id=Hagain (ID: 17797196/0x010F904C), tag_num=0x01)
  4: 0x01FE [0x1D] PRINT_EVENT_MESSAGE(message_id=7257*)
    → "Defeat the boisterous bomb lurking in the ceiling of Garlaige Citadel and bring me $2 as evidence that the task is done."
  5: 0x0201 [0x23] WAIT_FOR_DIALOG_INTERACTION
  6: 0x0202 [0x1D] PRINT_EVENT_MESSAGE(message_id=7258*)
    → "Find the holes in the ceiling and try burning this $3 underneath them. The bomb should be smoked out of its hiding place."
  7: 0x0205 [0x23] WAIT_FOR_DIALOG_INTERACTION
  8: 0x0206 [0x1D] PRINT_EVENT_MESSAGE(message_id=7259*)
    → "Be careful, adventurer."
  9: 0x0209 [0x23] WAIT_FOR_DIALOG_INTERACTION
 10: 0x020A [0x29] REQ_SET_WAIT(priority=0x08, entity_id=Hagain (ID: 17797196/0x010F904C), tag_num=0x02)
 11: 0x0211 [0x20] SET_CLI_EVENT_UC_FLAG: Unlock player control
 12: 0x0213 [0x21] END_EVENT
 13: 0x0214 [0x00] END_REQSTACK()
```

### Event 10005

#### Metadata

| Field        | Value    |
|--------------|----------|
| Entrypoint   | 0x0215   |
| Data Size    | 40 bytes |
| Instructions | 11       |

```
      00 01 02 03 04 05 06 07  08 09 0A 0B 0C 0D 0E 0F
      -- -- -- -- -- -- -- --  -- -- -- -- -- -- -- --
0210:                42 1E F0  FF FF 7F 6F 70 29 0B 4C       B.....op).L
0220: 90 0F 01 1E 29 0B 4C 90  0F 01 1F 29 0B 4C 90 0F  ....).L....).L..
0230: 01 20 29 0B 4C 90 0F 01  21 20 00 21 00           . ).L...! .!.   
```

#### Opcodes

```
  0: 0x0215 [0x42] SET_CLI_EVENT_CANCEL_DATA()
  1: 0x0216 [0x1E] EventEntity looks at LocalPlayer and starts talking
  2: 0x021B [0x6F] WAIT_FRAME_DELAY: Yield until WaitTime reaches zero
  3: 0x021C [0x70] WAIT_ENTITY_RENDER_FLAG: Wait while EventEntity->Render.Flags3 bit 2 is set (cancel turn if not)
  4: 0x021D [0x29] REQ_SET_WAIT(priority=0x0B, entity_id=Hagain (ID: 17797196/0x010F904C), tag_num=0x1E)
  5: 0x0224 [0x29] REQ_SET_WAIT(priority=0x0B, entity_id=Hagain (ID: 17797196/0x010F904C), tag_num=0x1F)
  6: 0x022B [0x29] REQ_SET_WAIT(priority=0x0B, entity_id=Hagain (ID: 17797196/0x010F904C), tag_num=0x20)
  7: 0x0232 [0x29] REQ_SET_WAIT(priority=0x0B, entity_id=Hagain (ID: 17797196/0x010F904C), tag_num=0x21)
  8: 0x0239 [0x20] SET_CLI_EVENT_UC_FLAG: Unlock player control
  9: 0x023B [0x21] END_EVENT
 10: 0x023C [0x00] END_REQSTACK()
```

### Event 65535.26

#### Metadata

| Field        | Value   |
|--------------|---------|
| Entrypoint   | 0x023D  |
| Data Size    | 5 bytes |
| Instructions | 3       |

```
      00 01 02 03 04 05 06 07  08 09 0A 0B 0C 0D 0E 0F
      -- -- -- -- -- -- -- --  -- -- -- -- -- -- -- --
0230:                                         1D 13 80               ...
0240: 23 00                                             #.              
```

#### Opcodes

```
  0: 0x023D [0x1D] PRINT_EVENT_MESSAGE(message_id=7260*)
    → "Well done, adventurer. You could make monster extermination a new career."
  1: 0x0240 [0x23] WAIT_FOR_DIALOG_INTERACTION
  2: 0x0241 [0x00] END_REQSTACK()
```

### Event 65535.27

#### Metadata

| Field        | Value    |
|--------------|----------|
| Entrypoint   | 0x0242   |
| Data Size    | 23 bytes |
| Instructions | 7        |

```
      00 01 02 03 04 05 06 07  08 09 0A 0B 0C 0D 0E 0F
      -- -- -- -- -- -- -- --  -- -- -- -- -- -- -- --
0240:       29 08 4C 90 0F 01  01 1D 14 80 23 1D 15 80    ).L.......#...
0250: 23 29 08 4C 90 0F 01 02  00                       #).L.....       
```

#### Opcodes

```
  0: 0x0242 [0x29] REQ_SET_WAIT(priority=0x08, entity_id=Hagain (ID: 17797196/0x010F904C), tag_num=0x01)
  1: 0x0249 [0x1D] PRINT_EVENT_MESSAGE(message_id=7261*)
    → "Now that you've completed your task, I seem to have remembered something. The signature on my papers was the letter "D.""
  2: 0x024C [0x23] WAIT_FOR_DIALOG_INTERACTION
  3: 0x024D [0x1D] PRINT_EVENT_MESSAGE(message_id=7262*)
    → "You know, most thieves are a greedy bunch...your kind is rare. Aren't you salivating over this Atarefaunet treasure like everybody else?"
  4: 0x0250 [0x23] WAIT_FOR_DIALOG_INTERACTION
  5: 0x0251 [0x29] REQ_SET_WAIT(priority=0x08, entity_id=Hagain (ID: 17797196/0x010F904C), tag_num=0x02)
  6: 0x0258 [0x00] END_REQSTACK()
```

### Event 65535.28

#### Metadata

| Field        | Value    |
|--------------|----------|
| Entrypoint   | 0x0259   |
| Data Size    | 19 bytes |
| Instructions | 5        |

```
      00 01 02 03 04 05 06 07  08 09 0A 0B 0C 0D 0E 0F
      -- -- -- -- -- -- -- --  -- -- -- -- -- -- -- --
0250:                             29 08 4C 90 0F 01 03           ).L....
0260: 1D 16 80 23 29 08 4C 90  0F 01 04 00              ...#).L.....    
```

#### Opcodes

```
  0: 0x0259 [0x29] REQ_SET_WAIT(priority=0x08, entity_id=Hagain (ID: 17797196/0x010F904C), tag_num=0x03)
  1: 0x0260 [0x1D] PRINT_EVENT_MESSAGE(message_id=7263*)
    → "No...Your kind is the most dangerous... Have to be careful around you... You pretend not to have the slightest interest and then snatch up the prize while everyone's backs are turned..."
  2: 0x0263 [0x23] WAIT_FOR_DIALOG_INTERACTION
  3: 0x0264 [0x29] REQ_SET_WAIT(priority=0x08, entity_id=Hagain (ID: 17797196/0x010F904C), tag_num=0x04)
  4: 0x026B [0x00] END_REQSTACK()
```

### Event 65535.29

#### Metadata

| Field        | Value    |
|--------------|----------|
| Entrypoint   | 0x026C   |
| Data Size    | 19 bytes |
| Instructions | 5        |

```
      00 01 02 03 04 05 06 07  08 09 0A 0B 0C 0D 0E 0F
      -- -- -- -- -- -- -- --  -- -- -- -- -- -- -- --
0260:                                      29 08 4C 90              ).L.
0270: 0F 01 05 1D 17 80 23 29  08 4C 90 0F 01 06 00     ......#).L..... 
```

#### Opcodes

```
  0: 0x026C [0x29] REQ_SET_WAIT(priority=0x08, entity_id=Hagain (ID: 17797196/0x010F904C), tag_num=0x05)
  1: 0x0273 [0x1D] PRINT_EVENT_MESSAGE(message_id=7264*)
    → "Well, you're not going to fool me. I'm done talking with you, so be on your way."
  2: 0x0276 [0x23] WAIT_FOR_DIALOG_INTERACTION
  3: 0x0277 [0x29] REQ_SET_WAIT(priority=0x08, entity_id=Hagain (ID: 17797196/0x010F904C), tag_num=0x06)
  4: 0x027E [0x00] END_REQSTACK()
```

### Event 10006

#### Metadata

| Field        | Value    |
|--------------|----------|
| Entrypoint   | 0x027F   |
| Data Size    | 33 bytes |
| Instructions | 12       |

```
      00 01 02 03 04 05 06 07  08 09 0A 0B 0C 0D 0E 0F
      -- -- -- -- -- -- -- --  -- -- -- -- -- -- -- --
0270:                                               1E                 .
0280: F0 FF FF 7F 6F 70 29 08  4C 90 0F 01 01 1D 18 80  ....op).L.......
0290: 23 1D 19 80 23 29 08 4C  90 0F 01 02 20 00 21 00  #...#).L.... .!.
```

#### Opcodes

```
  0: 0x027F [0x1E] EventEntity looks at LocalPlayer and starts talking
  1: 0x0284 [0x6F] WAIT_FRAME_DELAY: Yield until WaitTime reaches zero
  2: 0x0285 [0x70] WAIT_ENTITY_RENDER_FLAG: Wait while EventEntity->Render.Flags3 bit 2 is set (cancel turn if not)
  3: 0x0286 [0x29] REQ_SET_WAIT(priority=0x08, entity_id=Hagain (ID: 17797196/0x010F904C), tag_num=0x01)
  4: 0x028D [0x1D] PRINT_EVENT_MESSAGE(message_id=7265*)
    → "The Tenshodo is treating this talk of the Atarefaunet treasure as just another rumor. To spread this far, though, there must be a kernel of truth to it."
  5: 0x0290 [0x23] WAIT_FOR_DIALOG_INTERACTION
  6: 0x0291 [0x1D] PRINT_EVENT_MESSAGE(message_id=7266*)
    → "If you're going to join the race for the treasure, you might want to hire yourself a bodyguard. Sometimes these things can turn into a bloody free-for-all."
  7: 0x0294 [0x23] WAIT_FOR_DIALOG_INTERACTION
  8: 0x0295 [0x29] REQ_SET_WAIT(priority=0x08, entity_id=Hagain (ID: 17797196/0x010F904C), tag_num=0x02)
  9: 0x029C [0x20] SET_CLI_EVENT_UC_FLAG: Unlock player control
 10: 0x029E [0x21] END_EVENT
 11: 0x029F [0x00] END_REQSTACK()
```
