# 17797157 - Katsunaga

## Common Data

| Field            | Value            |
|------------------|------------------|
| Zone             | Mhaura (ID: 249) |
| Block Size       | 3124 bytes       |
| Total Events     | 9                |
| References Count | 349              |

## List of Events

| Event ID              | Entrypoint   |   Size |   Instructions |
|-----------------------|--------------|--------|----------------|
| [65535](#event-65535) | 0x0000       |      1 |              1 |
| [190](#event-190)     | 0x0001       |     13 |              7 |
| [191](#event-191)     | 0x000E       |     17 |              9 |
| [192](#event-192)     | 0x001F       |     71 |             26 |
| [193](#event-193)     | 0x0066       |     61 |             18 |
| [195](#event-195)     | 0x00A3       |     41 |             14 |
| [194](#event-194)     | 0x00CC       |     13 |              7 |
| [197](#event-197)     | 0x00D9       |     90 |             24 |
| [196](#event-196)     | 0x0133       |   1369 |            250 |

## DAT References (imed_data)

|   Index | Hex Value   |   Dec Value |
|---------|-------------|-------------|
|       0 | 0x1BA4      |        7076 |
|       1 | 0x1BA5      |        7077 |
|       2 | 0x1BA6      |        7078 |
|       3 | 0x1BA7      |        7079 |
|       4 | 0x1BA8      |        7080 |
|       5 | 0x0000      |           0 |
|       6 | 0x1BA9      |        7081 |
|       7 | 0x1BAA      |        7082 |
|       8 | 0x1BAB      |        7083 |
|       9 | 0x000A      |          10 |
|      10 | 0x0001      |           1 |
|      11 | 0x1BB1      |        7089 |
|      12 | 0x1BAC      |        7084 |
|      13 | 0x1BAD      |        7085 |
|      14 | 0x1BAE      |        7086 |
|      15 | 0x1BAF      |        7087 |
|      16 | 0x00C9      |         201 |
|      17 | 0x1BB0      |        7088 |
|      18 | 0x1BB2      |        7090 |
|      19 | 0x1BB3      |        7091 |
|      20 | 0x0002      |           2 |
|      21 | 0x1BB5      |        7093 |
|      22 | 0x0018      |          24 |
|      23 | 0x001F      |          31 |
|      24 | 0x0007      |           7 |
|      25 | 0x00A4      |         164 |
|      26 | 0x0010      |          16 |
|      27 | 0xFFFFFFFF  |  4294967295 |
|      28 | 0x1BB4      |        7092 |
|      29 | 0x0011      |          17 |
|      30 | 0x0012      |          18 |
|      31 | 0x0003      |           3 |
|      32 | 0x10DE      |        4318 |
|      33 | 0x08A8      |        2216 |
|      34 | 0x1405      |        5125 |
|      35 | 0x115B      |        4443 |
|      36 | 0x1547      |        5447 |
|      37 | 0x1178      |        4472 |
|      38 | 0x1748      |        5960 |
|      39 | 0x10DA      |        4314 |
|      40 | 0x1108      |        4360 |
|      41 | 0x1549      |        5449 |
|      42 | 0x174B      |        5963 |
|      43 | 0x1131      |        4401 |
|      44 | 0x1561      |        5473 |
|      45 | 0x18BE      |        6334 |
|      46 | 0x173E      |        5950 |
|      47 | 0x1194      |        4500 |
|      48 | 0x11A3      |        4515 |
|      49 | 0x1769      |        5993 |
|      50 | 0x1133      |        4403 |
|      51 | 0x1406      |        5126 |
|      52 | 0x1410      |        5136 |
|      53 | 0x18BD      |        6333 |
|      54 | 0x11A2      |        4514 |
|      55 | 0x10D6      |        4310 |
|      56 | 0x10C1      |        4289 |
|      57 | 0x19D5      |        6613 |
|      58 | 0x111B      |        4379 |
|      59 | 0x1749      |        5961 |
|      60 | 0x15A0      |        5536 |
|      61 | 0x18BF      |        6335 |
|      62 | 0x1195      |        4501 |
|      63 | 0x1401      |        5121 |
|      64 | 0x140C      |        5132 |
|      65 | 0x114A      |        4426 |
|      66 | 0x1109      |        4361 |
|      67 | 0x10D9      |        4313 |
|      68 | 0x1170      |        4464 |
|      69 | 0x1183      |        4483 |
|      70 | 0x10C2      |        4290 |
|      71 | 0x1559      |        5465 |
|      72 | 0x18C0      |        6336 |
|      73 | 0x1175      |        4469 |
|      74 | 0x1557      |        5463 |
|      75 | 0x159F      |        5535 |
|      76 | 0x10DB      |        4315 |
|      77 | 0x1563      |        5475 |
|      78 | 0x114C      |        4428 |
|      79 | 0x11B0      |        4528 |
|      80 | 0x1181      |        4481 |
|      81 | 0x173D      |        5949 |
|      82 | 0x1102      |        4354 |
|      83 | 0x1555      |        5461 |
|      84 | 0x1415      |        5141 |
|      85 | 0x16B4      |        5812 |
|      86 | 0x1182      |        4482 |
|      87 | 0x11E4      |        4580 |
|      88 | 0x1180      |        4480 |
|      89 | 0x154A      |        5450 |
|      90 | 0x155D      |        5469 |
|      91 | 0x1121      |        4385 |
|      92 | 0x1740      |        5952 |
|      93 | 0x111F      |        4383 |
|      94 | 0x154D      |        5453 |
|      95 | 0x114D      |        4429 |
|      96 | 0x1552      |        5458 |
|      97 | 0x1408      |        5128 |
|      98 | 0x1548      |        5448 |
|      99 | 0x1176      |        4470 |
|     100 | 0x1800      |        6144 |
|     101 | 0x10C3      |        4291 |
|     102 | 0x10D2      |        4306 |
|     103 | 0x2375      |        9077 |
|     104 | 0x23BA      |        9146 |
|     105 | 0x116E      |        4462 |
|     106 | 0x1747      |        5959 |
|     107 | 0x1132      |        4402 |
|     108 | 0x1184      |        4484 |
|     109 | 0x140B      |        5131 |
|     110 | 0x1550      |        5456 |
|     111 | 0x1558      |        5464 |
|     112 | 0x173C      |        5948 |
|     113 | 0x112F      |        4399 |
|     114 | 0x154C      |        5452 |
|     115 | 0x2400      |        9216 |
|     116 | 0x114B      |        4427 |
|     117 | 0x1553      |        5459 |
|     118 | 0x1741      |        5953 |
|     119 | 0x16B7      |        5815 |
|     120 | 0x10DD      |        4317 |
|     121 | 0x18C1      |        6337 |
|     122 | 0x11E3      |        4579 |
|     123 | 0x117F      |        4479 |
|     124 | 0x154B      |        5451 |
|     125 | 0x155A      |        5466 |
|     126 | 0x1743      |        5955 |
|     127 | 0x16B8      |        5816 |
|     128 | 0x176B      |        5995 |
|     129 | 0x1185      |        4485 |
|     130 | 0x1413      |        5139 |
|     131 | 0x1745      |        5957 |
|     132 | 0x1179      |        4473 |
|     133 | 0x10C0      |        4288 |
|     134 | 0x1177      |        4471 |
|     135 | 0x140F      |        5135 |
|     136 | 0x1801      |        6145 |
|     137 | 0x159E      |        5534 |
|     138 | 0x140A      |        5130 |
|     139 | 0x1554      |        5460 |
|     140 | 0x1163      |        4451 |
|     141 | 0x1771      |        6001 |
|     142 | 0x1562      |        5474 |
|     143 | 0x10D3      |        4307 |
|     144 | 0x117D      |        4477 |
|     145 | 0x117E      |        4478 |
|     146 | 0x155E      |        5470 |
|     147 | 0x173F      |        5951 |
|     148 | 0x1560      |        5472 |
|     149 | 0x116D      |        4461 |
|     150 | 0x154E      |        5454 |
|     151 | 0x1412      |        5138 |
|     152 | 0x16B5      |        5813 |
|     153 | 0x10D0      |        4304 |
|     154 | 0x154F      |        5455 |
|     155 | 0x1166      |        4454 |
|     156 | 0x117A      |        4474 |
|     157 | 0x1556      |        5462 |
|     158 | 0x155B      |        5467 |
|     159 | 0x1120      |        4384 |
|     160 | 0x1551      |        5457 |
|     161 | 0x16B9      |        5817 |
|     162 | 0x140D      |        5133 |
|     163 | 0x116F      |        4463 |
|     164 | 0x117B      |        4475 |
|     165 | 0x117C      |        4476 |
|     166 | 0x1414      |        5140 |
|     167 | 0x1411      |        5137 |
|     168 | 0x10DC      |        4316 |
|     169 | 0x10D4      |        4308 |
|     170 | 0x16B6      |        5814 |
|     171 | 0x1546      |        5446 |
|     172 | 0x1400      |        5120 |
|     173 | 0x10DF      |        4319 |
|     174 | 0x10D5      |        4309 |
|     175 | 0x1959      |        6489 |
|     176 | 0x140E      |        5134 |
|     177 | 0x155F      |        5471 |
|     178 | 0x1407      |        5127 |
|     179 | 0x1409      |        5129 |
|     180 | 0x176D      |        5997 |
|     181 | 0x15A4      |        5540 |
|     182 | 0x15A1      |        5537 |
|     183 | 0x15A2      |        5538 |
|     184 | 0x18C2      |        6338 |
|     185 | 0x18E5      |        6373 |
|     186 | 0x15A3      |        5539 |
|     187 | 0x18E8      |        6376 |
|     188 | 0x18E7      |        6375 |
|     189 | 0x10D1      |        4305 |
|     190 | 0x1564      |        5476 |
|     191 | 0x18E3      |        6371 |
|     192 | 0x155C      |        5468 |
|     193 | 0x1802      |        6146 |
|     194 | 0x18E6      |        6374 |
|     195 | 0x18E4      |        6372 |
|     196 | 0x0004      |           4 |
|     197 | 0x0005      |           5 |
|     198 | 0x0006      |           6 |
|     199 | 0x007E      |         126 |
|     200 | 0x0008      |           8 |
|     201 | 0x0009      |           9 |
|     202 | 0x007F      |         127 |
|     203 | 0x000B      |          11 |
|     204 | 0x000C      |          12 |
|     205 | 0x0094      |         148 |
|     206 | 0x0080      |         128 |
|     207 | 0x000D      |          13 |
|     208 | 0x000E      |          14 |
|     209 | 0x0081      |         129 |
|     210 | 0x000F      |          15 |
|     211 | 0x0093      |         147 |
|     212 | 0x0013      |          19 |
|     213 | 0x0014      |          20 |
|     214 | 0x00A5      |         165 |
|     215 | 0x0015      |          21 |
|     216 | 0x0082      |         130 |
|     217 | 0x008F      |         143 |
|     218 | 0x0095      |         149 |
|     219 | 0x0016      |          22 |
|     220 | 0x0017      |          23 |
|     221 | 0x0019      |          25 |
|     222 | 0x001A      |          26 |
|     223 | 0x001B      |          27 |
|     224 | 0x001C      |          28 |
|     225 | 0x001D      |          29 |
|     226 | 0x001E      |          30 |
|     227 | 0x0096      |         150 |
|     228 | 0x0020      |          32 |
|     229 | 0x0022      |          34 |
|     230 | 0x008E      |         142 |
|     231 | 0x0024      |          36 |
|     232 | 0x0025      |          37 |
|     233 | 0x0026      |          38 |
|     234 | 0x0027      |          39 |
|     235 | 0x0028      |          40 |
|     236 | 0x0084      |         132 |
|     237 | 0x0029      |          41 |
|     238 | 0x002A      |          42 |
|     239 | 0x002B      |          43 |
|     240 | 0x002C      |          44 |
|     241 | 0x002D      |          45 |
|     242 | 0x002E      |          46 |
|     243 | 0x002F      |          47 |
|     244 | 0x0030      |          48 |
|     245 | 0x0031      |          49 |
|     246 | 0x0032      |          50 |
|     247 | 0x0085      |         133 |
|     248 | 0x0033      |          51 |
|     249 | 0x0034      |          52 |
|     250 | 0x0035      |          53 |
|     251 | 0x0036      |          54 |
|     252 | 0x0037      |          55 |
|     253 | 0x0038      |          56 |
|     254 | 0x0039      |          57 |
|     255 | 0x0090      |         144 |
|     256 | 0x003A      |          58 |
|     257 | 0x003B      |          59 |
|     258 | 0x0099      |         153 |
|     259 | 0x00A0      |         160 |
|     260 | 0x003C      |          60 |
|     261 | 0x008B      |         139 |
|     262 | 0x003D      |          61 |
|     263 | 0x003E      |          62 |
|     264 | 0x003F      |          63 |
|     265 | 0x0040      |          64 |
|     266 | 0x0041      |          65 |
|     267 | 0x0086      |         134 |
|     268 | 0x0042      |          66 |
|     269 | 0x0043      |          67 |
|     270 | 0x0044      |          68 |
|     271 | 0x0045      |          69 |
|     272 | 0x00A1      |         161 |
|     273 | 0x0046      |          70 |
|     274 | 0x0047      |          71 |
|     275 | 0x0097      |         151 |
|     276 | 0x0048      |          72 |
|     277 | 0x0049      |          73 |
|     278 | 0x004A      |          74 |
|     279 | 0x004B      |          75 |
|     280 | 0x0087      |         135 |
|     281 | 0x0088      |         136 |
|     282 | 0x004C      |          76 |
|     283 | 0x004D      |          77 |
|     284 | 0x00A2      |         162 |
|     285 | 0x004E      |          78 |
|     286 | 0x004F      |          79 |
|     287 | 0x0050      |          80 |
|     288 | 0x0051      |          81 |
|     289 | 0x0091      |         145 |
|     290 | 0x008D      |         141 |
|     291 | 0x0052      |          82 |
|     292 | 0x0053      |          83 |
|     293 | 0x0054      |          84 |
|     294 | 0x0089      |         137 |
|     295 | 0x0055      |          85 |
|     296 | 0x0056      |          86 |
|     297 | 0x0057      |          87 |
|     298 | 0x0058      |          88 |
|     299 | 0x0059      |          89 |
|     300 | 0x008A      |         138 |
|     301 | 0x005A      |          90 |
|     302 | 0x005B      |          91 |
|     303 | 0x005C      |          92 |
|     304 | 0x005D      |          93 |
|     305 | 0x005E      |          94 |
|     306 | 0x005F      |          95 |
|     307 | 0x0060      |          96 |
|     308 | 0x0061      |          97 |
|     309 | 0x0062      |          98 |
|     310 | 0x0063      |          99 |
|     311 | 0x0064      |         100 |
|     312 | 0x0065      |         101 |
|     313 | 0x0066      |         102 |
|     314 | 0x007D      |         125 |
|     315 | 0x0067      |         103 |
|     316 | 0x0068      |         104 |
|     317 | 0x0069      |         105 |
|     318 | 0x006A      |         106 |
|     319 | 0x006B      |         107 |
|     320 | 0x006C      |         108 |
|     321 | 0x006D      |         109 |
|     322 | 0x006E      |         110 |
|     323 | 0x006F      |         111 |
|     324 | 0x0070      |         112 |
|     325 | 0x0071      |         113 |
|     326 | 0x0072      |         114 |
|     327 | 0x0076      |         118 |
|     328 | 0x00A3      |         163 |
|     329 | 0x0073      |         115 |
|     330 | 0x0074      |         116 |
|     331 | 0x0077      |         119 |
|     332 | 0x0078      |         120 |
|     333 | 0x008C      |         140 |
|     334 | 0x0021      |          33 |
|     335 | 0x0023      |          35 |
|     336 | 0x007B      |         123 |
|     337 | 0x0098      |         152 |
|     338 | 0x009B      |         155 |
|     339 | 0x007C      |         124 |
|     340 | 0x009A      |         154 |
|     341 | 0x009F      |         159 |
|     342 | 0x0075      |         117 |
|     343 | 0x0079      |         121 |
|     344 | 0x009E      |         158 |
|     345 | 0x007A      |         122 |
|     346 | 0x0092      |         146 |
|     347 | 0x009D      |         157 |
|     348 | 0x009C      |         156 |

## String References

- **7076**: Fishing is an art... I have nothing to say to one who has never held a fishing rod in his life.
- **7077**: Ah, I see you have dabbled in the art of fishing...
- **7078**: But you still have a long way to go. Come back when you've managed to catch some bigger game.
- **7079**: Tell me...do you remember all the catches you've made until now? Do you wish to know?
- **7080**: Do you want to know your fishing history? [Yes./No.]
- **7081**: Of course you do. As would all practitioners of the art.
- **7082**: But no one can keep track of all their catches. Except for me. I can even tell you of your past achievements...for a price.
- **7083**: I only ask you to bring me $0. A small price to pay for such information, isn't it?
- **7084**: You've brought it. Very well, I will tell you.
- **7085**: You've cast your line $1 time[/s] and made $2 catch[/es].
- **7086**: The biggest fish you caught by size was $4 measuring $3 [ilm/ilms], and the biggest fish you caught by weight was $6 weighing $5 [ponz/ponzes].
- **7087**: If you want me to tell you again, then just come see me. I'll be waiting here.
- **7088**: If you want me to tell you about your past catches, bring me $0.
- **7089**: I see... You may not want me to do so now, but you will eventually. You know where to find me.
- **7090**: Back, I see. what do you want to know?
- **7091**: What would you like to know about? [Types of fish caught./Catching fish./None of the above.]
- **7093**: Debug menu! [Check flags./Restore fish count./Reset flags./Nope.]

## Events

### Event 65535

#### Metadata

| Field        | Value   |
|--------------|---------|
| Entrypoint   | 0x0000  |
| Data Size    | 1 bytes |
| Instructions | 1       |

```
      00 01 02 03 04 05 06 07  08 09 0A 0B 0C 0D 0E 0F
      -- -- -- -- -- -- -- --  -- -- -- -- -- -- -- --
0000: 00                                                .               
```

#### Opcodes

```
  0: 0x0000 [0x00] END_REQSTACK()
```

### Event 190

#### Metadata

| Field        | Value    |
|--------------|----------|
| Entrypoint   | 0x0001   |
| Data Size    | 13 bytes |
| Instructions | 7        |

```
      00 01 02 03 04 05 06 07  08 09 0A 0B 0C 0D 0E 0F
      -- -- -- -- -- -- -- --  -- -- -- -- -- -- -- --
0000:    1E F0 FF FF 7F 6F 70  1D 00 80 23 21 00         .....op...#!.  
```

#### Opcodes

```
  0: 0x0001 [0x1E] EventEntity looks at LocalPlayer and starts talking
  1: 0x0006 [0x6F] WAIT_FRAME_DELAY: Yield until WaitTime reaches zero
  2: 0x0007 [0x70] WAIT_ENTITY_RENDER_FLAG: Wait while EventEntity->Render.Flags3 bit 2 is set (cancel turn if not)
  3: 0x0008 [0x1D] PRINT_EVENT_MESSAGE(message_id=7076*)
    → "Fishing is an art... I have nothing to say to one who has never held a fishing rod in his life."
  4: 0x000B [0x23] WAIT_FOR_DIALOG_INTERACTION
  5: 0x000C [0x21] END_EVENT
  6: 0x000D [0x00] END_REQSTACK()
```

### Event 191

#### Metadata

| Field        | Value    |
|--------------|----------|
| Entrypoint   | 0x000E   |
| Data Size    | 17 bytes |
| Instructions | 9        |

```
      00 01 02 03 04 05 06 07  08 09 0A 0B 0C 0D 0E 0F
      -- -- -- -- -- -- -- --  -- -- -- -- -- -- -- --
0000:                                            1E F0                ..
0010: FF FF 7F 6F 70 1D 01 80  23 1D 02 80 23 21 00     ...op...#...#!. 
```

#### Opcodes

```
  0: 0x000E [0x1E] EventEntity looks at LocalPlayer and starts talking
  1: 0x0013 [0x6F] WAIT_FRAME_DELAY: Yield until WaitTime reaches zero
  2: 0x0014 [0x70] WAIT_ENTITY_RENDER_FLAG: Wait while EventEntity->Render.Flags3 bit 2 is set (cancel turn if not)
  3: 0x0015 [0x1D] PRINT_EVENT_MESSAGE(message_id=7077*)
    → "Ah, I see you have dabbled in the art of fishing..."
  4: 0x0018 [0x23] WAIT_FOR_DIALOG_INTERACTION
  5: 0x0019 [0x1D] PRINT_EVENT_MESSAGE(message_id=7078*)
    → "But you still have a long way to go. Come back when you've managed to catch some bigger game."
  6: 0x001C [0x23] WAIT_FOR_DIALOG_INTERACTION
  7: 0x001D [0x21] END_EVENT
  8: 0x001E [0x00] END_REQSTACK()
```

### Event 192

#### Metadata

| Field        | Value    |
|--------------|----------|
| Entrypoint   | 0x001F   |
| Data Size    | 71 bytes |
| Instructions | 26       |

```
      00 01 02 03 04 05 06 07  08 09 0A 0B 0C 0D 0E 0F
      -- -- -- -- -- -- -- --  -- -- -- -- -- -- -- --
0010:                                               1E                 .
0020: F0 FF FF 7F 6F 70 1D 01  80 23 1D 03 80 23 24 04  ....op...#...#$.
0030: 80 05 80 05 80 25 02 00  10 05 80 00 55 00 42 20  .....%......U.B 
0040: 01 1D 06 80 23 1D 07 80  23 1D 08 80 23 03 01 10  ....#...#...#...
0050: 09 80 01 64 00 02 00 10  0A 80 00 64 00 1D 0B 80  ...d.......d....
0060: 23 01 64 00 21 00                                 #.d.!.          
```

#### Opcodes

```
  0: 0x001F [0x1E] EventEntity looks at LocalPlayer and starts talking
  1: 0x0024 [0x6F] WAIT_FRAME_DELAY: Yield until WaitTime reaches zero
  2: 0x0025 [0x70] WAIT_ENTITY_RENDER_FLAG: Wait while EventEntity->Render.Flags3 bit 2 is set (cancel turn if not)
  3: 0x0026 [0x1D] PRINT_EVENT_MESSAGE(message_id=7077*)
    → "Ah, I see you have dabbled in the art of fishing..."
  4: 0x0029 [0x23] WAIT_FOR_DIALOG_INTERACTION
  5: 0x002A [0x1D] PRINT_EVENT_MESSAGE(message_id=7079*)
    → "Tell me...do you remember all the catches you've made until now? Do you wish to know?"
  6: 0x002D [0x23] WAIT_FOR_DIALOG_INTERACTION
  7: 0x002E [0x24] CREATE_DIALOG(message_id=7080*, default_option=0*, option_flags=0*)
    → "Do you want to know your fishing history? [Yes./No.]"
  8: 0x0035 [0x25] WAIT_DIALOG_SELECT()
  9: 0x0036 [0x02] IF !(Work_Zone[0] == 0*) GOTO 0x0055
 10: 0x003E [0x42] SET_CLI_EVENT_CANCEL_DATA()
 11: 0x003F [0x20] SET_CLI_EVENT_UC_FLAG: Lock player control
 12: 0x0041 [0x1D] PRINT_EVENT_MESSAGE(message_id=7081*)
    → "Of course you do. As would all practitioners of the art."
 13: 0x0044 [0x23] WAIT_FOR_DIALOG_INTERACTION
 14: 0x0045 [0x1D] PRINT_EVENT_MESSAGE(message_id=7082*)
    → "But no one can keep track of all their catches. Except for me. I can even tell you of your past achievements...for a price."
 15: 0x0048 [0x23] WAIT_FOR_DIALOG_INTERACTION
 16: 0x0049 [0x1D] PRINT_EVENT_MESSAGE(message_id=7083*)
    → "I only ask you to bring me $0. A small price to pay for such information, isn't it?"
 17: 0x004C [0x23] WAIT_FOR_DIALOG_INTERACTION
 18: 0x004D [0x03] Work_Zone[1] = 10*
 19: 0x0052 [0x01] GOTO 0x0064
 20: 0x0055 [0x02] IF !(Work_Zone[0] == 1*) GOTO 0x0064
 21: 0x005D [0x1D] PRINT_EVENT_MESSAGE(message_id=7089*)
    → "I see... You may not want me to do so now, but you will eventually. You know where to find me."
 22: 0x0060 [0x23] WAIT_FOR_DIALOG_INTERACTION
 23: 0x0061 [0x01] GOTO 0x0064

SUBROUTINE_0064:
 24: 0x0064 [0x21] END_EVENT
 25: 0x0065 [0x00] END_REQSTACK()
```

### Event 193

#### Metadata

| Field        | Value    |
|--------------|----------|
| Entrypoint   | 0x0066   |
| Data Size    | 61 bytes |
| Instructions | 18       |

```
      00 01 02 03 04 05 06 07  08 09 0A 0B 0C 0D 0E 0F
      -- -- -- -- -- -- -- --  -- -- -- -- -- -- -- --
0060:                   42 20  01 1E F0 FF FF 7F 6F 70        B ......op
0070: 1D 0C 80 23 1D 0D 80 23  02 06 10 05 80 01 8C 00  ...#...#........
0080: 02 08 10 05 80 01 8C 00  1D 0E 80 23 1D 0F 80 23  ...........#...#
0090: 45 10 80 F0 FF FF 7F F0  FF FF 7F 71 73 74 63 05  E..........qstc.
00A0: 80 21 00                                          .!.             
```

#### Opcodes

```
  0: 0x0066 [0x42] SET_CLI_EVENT_CANCEL_DATA()
  1: 0x0067 [0x20] SET_CLI_EVENT_UC_FLAG: Lock player control
  2: 0x0069 [0x1E] EventEntity looks at LocalPlayer and starts talking
  3: 0x006E [0x6F] WAIT_FRAME_DELAY: Yield until WaitTime reaches zero
  4: 0x006F [0x70] WAIT_ENTITY_RENDER_FLAG: Wait while EventEntity->Render.Flags3 bit 2 is set (cancel turn if not)
  5: 0x0070 [0x1D] PRINT_EVENT_MESSAGE(message_id=7084*)
    → "You've brought it. Very well, I will tell you."
  6: 0x0073 [0x23] WAIT_FOR_DIALOG_INTERACTION
  7: 0x0074 [0x1D] PRINT_EVENT_MESSAGE(message_id=7085*)
    → "You've cast your line $1 time[/s] and made $2 catch[/es]."
  8: 0x0077 [0x23] WAIT_FOR_DIALOG_INTERACTION
  9: 0x0078 [0x02] IF !(Work_Zone[6] == 0*) GOTO 0x008C
 10: 0x0080 [0x02] IF !(Work_Zone[8] == 0*) GOTO 0x008C
 11: 0x0088 [0x1D] PRINT_EVENT_MESSAGE(message_id=7086*)
    → "The biggest fish you caught by size was $4 measuring $3 [ilm/ilms], and the biggest fish you caught by weight was $6 weighing $5 [ponz/ponzes]."
 12: 0x008B [0x23] WAIT_FOR_DIALOG_INTERACTION
 13: 0x008C [0x1D] PRINT_EVENT_MESSAGE(message_id=7087*)
    → "If you want me to tell you again, then just come see me. I'll be waiting here."
 14: 0x008F [0x23] WAIT_FOR_DIALOG_INTERACTION
 15: 0x0090 [0x45] LOAD_SCHEDULED_TASK: Load scheduler "qstc" with entities [LocalPlayer, LocalPlayer], work=[201*, 0*]
 16: 0x00A1 [0x21] END_EVENT
 17: 0x00A2 [0x00] END_REQSTACK()
```

### Event 195

#### Metadata

| Field        | Value    |
|--------------|----------|
| Entrypoint   | 0x00A3   |
| Data Size    | 41 bytes |
| Instructions | 14       |

```
      00 01 02 03 04 05 06 07  08 09 0A 0B 0C 0D 0E 0F
      -- -- -- -- -- -- -- --  -- -- -- -- -- -- -- --
00A0:          42 20 01 1E F0  FF FF 7F 6F 70 1D 0C 80     B ......op...
00B0: 23 1D 0D 80 23 1D 0F 80  23 45 10 80 F0 FF FF 7F  #...#...#E......
00C0: F0 FF FF 7F 71 73 74 63  05 80 21 00              ....qstc..!.    
```

#### Opcodes

```
  0: 0x00A3 [0x42] SET_CLI_EVENT_CANCEL_DATA()
  1: 0x00A4 [0x20] SET_CLI_EVENT_UC_FLAG: Lock player control
  2: 0x00A6 [0x1E] EventEntity looks at LocalPlayer and starts talking
  3: 0x00AB [0x6F] WAIT_FRAME_DELAY: Yield until WaitTime reaches zero
  4: 0x00AC [0x70] WAIT_ENTITY_RENDER_FLAG: Wait while EventEntity->Render.Flags3 bit 2 is set (cancel turn if not)
  5: 0x00AD [0x1D] PRINT_EVENT_MESSAGE(message_id=7084*)
    → "You've brought it. Very well, I will tell you."
  6: 0x00B0 [0x23] WAIT_FOR_DIALOG_INTERACTION
  7: 0x00B1 [0x1D] PRINT_EVENT_MESSAGE(message_id=7085*)
    → "You've cast your line $1 time[/s] and made $2 catch[/es]."
  8: 0x00B4 [0x23] WAIT_FOR_DIALOG_INTERACTION
  9: 0x00B5 [0x1D] PRINT_EVENT_MESSAGE(message_id=7087*)
    → "If you want me to tell you again, then just come see me. I'll be waiting here."
 10: 0x00B8 [0x23] WAIT_FOR_DIALOG_INTERACTION
 11: 0x00B9 [0x45] LOAD_SCHEDULED_TASK: Load scheduler "qstc" with entities [LocalPlayer, LocalPlayer], work=[201*, 0*]
 12: 0x00CA [0x21] END_EVENT
 13: 0x00CB [0x00] END_REQSTACK()
```

### Event 194

#### Metadata

| Field        | Value    |
|--------------|----------|
| Entrypoint   | 0x00CC   |
| Data Size    | 13 bytes |
| Instructions | 7        |

```
      00 01 02 03 04 05 06 07  08 09 0A 0B 0C 0D 0E 0F
      -- -- -- -- -- -- -- --  -- -- -- -- -- -- -- --
00C0:                                      1E F0 FF FF              ....
00D0: 7F 6F 70 1D 11 80 23 21  00                       .op...#!.       
```

#### Opcodes

```
  0: 0x00CC [0x1E] EventEntity looks at LocalPlayer and starts talking
  1: 0x00D1 [0x6F] WAIT_FRAME_DELAY: Yield until WaitTime reaches zero
  2: 0x00D2 [0x70] WAIT_ENTITY_RENDER_FLAG: Wait while EventEntity->Render.Flags3 bit 2 is set (cancel turn if not)
  3: 0x00D3 [0x1D] PRINT_EVENT_MESSAGE(message_id=7088*)
    → "If you want me to tell you about your past catches, bring me $0."
  4: 0x00D6 [0x23] WAIT_FOR_DIALOG_INTERACTION
  5: 0x00D7 [0x21] END_EVENT
  6: 0x00D8 [0x00] END_REQSTACK()
```

### Event 197

#### Metadata

| Field        | Value    |
|--------------|----------|
| Entrypoint   | 0x00D9   |
| Data Size    | 90 bytes |
| Instructions | 24       |

```
      00 01 02 03 04 05 06 07  08 09 0A 0B 0C 0D 0E 0F
      -- -- -- -- -- -- -- --  -- -- -- -- -- -- -- --
00D0:                             1E F0 FF FF 7F 6F 70           .....op
00E0: 03 15 00 02 10 03 0A 00  0A 80 1D 12 80 23 02 0A  .............#..
00F0: 00 0A 80 00 31 01 24 13  80 05 80 05 80 25 02 00  ....1.$......%..
0100: 10 05 80 00 0C 01 1A C3  01 01 2E 01 02 00 10 0A  ................
0110: 80 00 1A 01 1A 94 01 01  2E 01 02 00 10 14 80 00  ................
0120: 2E 01 1D 0F 80 23 03 0A  00 05 80 01 2E 01 01 EE  .....#..........
0130: 00 21 00                                          .!.             
```

#### Opcodes

```
  0: 0x00D9 [0x1E] EventEntity looks at LocalPlayer and starts talking
  1: 0x00DE [0x6F] WAIT_FRAME_DELAY: Yield until WaitTime reaches zero
  2: 0x00DF [0x70] WAIT_ENTITY_RENDER_FLAG: Wait while EventEntity->Render.Flags3 bit 2 is set (cancel turn if not)
  3: 0x00E0 [0x03] ExtData[1]->WorkLocal[21] = Work_Zone[2]
  4: 0x00E5 [0x03] ExtData[1]->WorkLocal[10] = 1*
  5: 0x00EA [0x1D] PRINT_EVENT_MESSAGE(message_id=7090*)
    → "Back, I see. what do you want to know?"
  6: 0x00ED [0x23] WAIT_FOR_DIALOG_INTERACTION
  7: 0x00EE [0x02] IF !(ExtData[1]->WorkLocal[10] == 1*) GOTO 0x0131
  8: 0x00F6 [0x24] CREATE_DIALOG(message_id=7091*, default_option=0*, option_flags=0*)
    → "What would you like to know about? [Types of fish caught./Catching fish./None of the above.]"
  9: 0x00FD [0x25] WAIT_DIALOG_SELECT()
 10: 0x00FE [0x02] IF !(Work_Zone[0] == 0*) GOTO 0x010C
 11: 0x0106 [0x1A] CALL_SUBROUTINE(address=0x01C3)
 12: 0x0109 [0x01] GOTO 0x012E
 13: 0x010C [0x02] IF !(Work_Zone[0] == 1*) GOTO 0x011A
 14: 0x0114 [0x1A] CALL_SUBROUTINE(address=0x0194)
 15: 0x0117 [0x01] GOTO 0x012E
 16: 0x011A [0x02] IF !(Work_Zone[0] == 2*) GOTO 0x012E
 17: 0x0122 [0x1D] PRINT_EVENT_MESSAGE(message_id=7087*)
    → "If you want me to tell you again, then just come see me. I'll be waiting here."
 18: 0x0125 [0x23] WAIT_FOR_DIALOG_INTERACTION
 19: 0x0126 [0x03] ExtData[1]->WorkLocal[10] = 0*
 20: 0x012B [0x01] GOTO 0x012E

SUBROUTINE_012E:
 21: 0x012E [0x01] GOTO 0x00EE
 22: 0x0131 [0x21] END_EVENT
 23: 0x0132 [0x00] END_REQSTACK()
```

### Event 196

#### Metadata

| Field        | Value      |
|--------------|------------|
| Entrypoint   | 0x0133     |
| Data Size    | 1369 bytes |
| Instructions | 101        |

```
      00 01 02 03 04 05 06 07  08 09 0A 0B 0C 0D 0E 0F
      -- -- -- -- -- -- -- --  -- -- -- -- -- -- -- --
0130:          1E F0 FF FF 7F  03 15 00 02 10 03 01 00     .............
0140: 03 10 03 0B 00 0A 80 02  0B 00 0A 80 00 92 01 24  ...............$
0150: 15 80 05 80 05 80 25 02  00 10 05 80 00 65 01 1A  ......%......e..
0160: C3 01 01 8F 01 02 00 10  0A 80 00 7A 01 03 01 10  ...........z....
0170: 0A 80 03 0B 00 05 80 01  8F 01 02 00 10 14 80 00  ................
0180: 8F 01 03 01 10 14 80 03  0B 00 05 80 01 8F 01 01  ................
0190: 47 01 21 00 40 16 80 17  80 01 10 14 80 40 05 80  G.!.@........@..
01A0: 18 80 01 10 05 80 43 00  43 01 1D 0D 80 23 02 06  ......C.C....#..
01B0: 10 05 80 01 C2 01 02 08  10 05 80 01 C2 01 1D 0E  ................
01C0: 80 23 1B 03 10 00 0A 80  03 0D 00 19 80 15 0D 00  .#..............
01D0: 1A 80 0B 0D 00 03 0E 00  0A 80 03 19 17 0D 00 40  ...............@
01E0: 16 80 17 80 01 10 05 80  40 05 80 18 80 01 10 05  ........@.......
01F0: 80 43 00 43 01 1A 63 03  3F 16 00 19 80 1A 80 14  .C.C..c.?.......
0200: 16 00 1B 80 07 16 00 1A  80 07 16 00 19 80 02 10  ................
0210: 00 0A 80 00 62 03 03 18  17 0E 00 03 1A 17 15 00  ....b...........
0220: 03 0C 00 05 80 03 11 00  05 80 02 11 00 1A 80 03  ................
0230: AB 02 03 0F 00 0E 00 0C  0F 00 14 0F 00 1A 80 07  ................
0240: 0F 00 11 00 9D 0A 8C 03  13 00 0F 00 16 00 9D 0A  ................
0250: EC 04 14 00 0F 00 16 00  02 13 00 05 80 01 94 02  ................
0260: 9D 0F 4C 06 13 00 11 00  1A 80 3E 02 00 14 00 7E  ..L.......>....~
0270: 02 9D 0F 6C 06 0A 80 11  00 1A 80 01 88 02 9D 0F  ...l............
0280: 6C 06 05 80 11 00 1A 80  0B 11 00 D4 03 11 00 13  l...............
0290: 00 01 A8 02 9D 0F 6C 06  05 80 11 00 1A 80 0B 11  ......l.........
02A0: 00 3C 0C 00 11 00 0A 80  01 2A 02 D4 02 1C 80 17  .<.......*......
02B0: 00 0C 00 25 02 00 10 05  80 00 D4 02 0C 0E 00 02  ...%............
02C0: 0E 00 0A 80 03 CC 02 03  0E 00 0D 00 03 17 00 05  ................
02D0: 80 01 5F 03 02 00 10 1D  80 00 E9 02 03 10 00 05  .._.............
02E0: 80 03 17 00 05 80 01 5F  03 02 00 10 1E 80 00 09  ......._........
02F0: 03 0B 0E 00 02 0E 00 0D  00 02 01 03 03 0E 00 0A  ................
0300: 80 03 17 00 05 80 01 5F  03 03 17 00 00 10 02 01  ......._........
0310: 00 1F 80 04 5F 03 03 00  00 0E 00 0C 00 00 14 00  ...._...........
0320: 00 1A 80 07 00 00 00 10  0C 00 00 40 16 80 17 80  ...........@....
0330: 01 10 0A 80 40 05 80 18  80 01 10 00 00 43 00 43  ....@........C.C
0340: 01 03 15 00 02 10 40 16  80 17 80 01 10 05 80 40  ......@........@
0350: 05 80 18 80 01 10 05 80  43 00 43 01 1A 63 03 01  ........C.C..c..
0360: 0E 02 1B 03 02 00 02 10  03 03 00 03 10 03 04 00  ................
0370: 04 10 03 05 00 05 10 03  06 00 06 10 03 07 00 07  ................
0380: 10 03 08 00 08 10 03 09  00 09 10 1B 20 80 21 80  ............ .!.
0390: 22 80 23 80 24 80 25 80  26 80 27 80 28 80 29 80  ".#.$.%.&.'.(.).
03A0: 2A 80 2B 80 2C 80 2D 80  2E 80 2F 80 30 80 31 80  *.+.,.-.../.0.1.
03B0: 32 80 33 80 34 80 35 80  36 80 37 80 38 80 39 80  2.3.4.5.6.7.8.9.
03C0: 3A 80 3B 80 3C 80 3D 80  3E 80 3F 80 40 80 41 80  :.;.<.=.>.?.@.A.
03D0: 42 80 43 80 44 80 45 80  46 80 47 80 48 80 49 80  B.C.D.E.F.G.H.I.
03E0: 4A 80 4B 80 4C 80 4D 80  4E 80 4F 80 50 80 51 80  J.K.L.M.N.O.P.Q.
03F0: 52 80 53 80 54 80 55 80  56 80 57 80 58 80 59 80  R.S.T.U.V.W.X.Y.
0400: 5A 80 5B 80 5C 80 5D 80  5E 80 5F 80 60 80 61 80  Z.[.\.].^._.`.a.
0410: 62 80 63 80 64 80 65 80  66 80 67 80 68 80 69 80  b.c.d.e.f.g.h.i.
0420: 6A 80 6B 80 6C 80 6D 80  6E 80 6F 80 70 80 71 80  j.k.l.m.n.o.p.q.
0430: 72 80 73 80 74 80 75 80  76 80 77 80 78 80 79 80  r.s.t.u.v.w.x.y.
0440: 7A 80 7B 80 7C 80 7D 80  7E 80 7F 80 80 80 81 80  z.{.|.}.~.......
0450: 82 80 83 80 84 80 85 80  86 80 87 80 88 80 89 80  ................
0460: 8A 80 8B 80 8C 80 8D 80  8E 80 8F 80 90 80 91 80  ................
0470: 92 80 93 80 94 80 95 80  96 80 97 80 98 80 99 80  ................
0480: 9A 80 9B 80 9C 80 9D 80  9E 80 9F 80 A0 80 A1 80  ................
0490: A2 80 A3 80 A4 80 A5 80  A6 80 A7 80 A8 80 A9 80  ................
04A0: AA 80 AB 80 AC 80 AD 80  AE 80 AF 80 B0 80 B1 80  ................
04B0: B2 80 B3 80 B4 80 B5 80  B6 80 B7 80 B8 80 B9 80  ................
04C0: BA 80 BB 80 BC 80 BD 80  BE 80 BF 80 C0 80 C1 80  ................
04D0: C2 80 C3 80 05 80 05 80  05 80 05 80 05 80 05 80  ................
04E0: 05 80 05 80 05 80 05 80  05 80 05 80 14 80 1F 80  ................
04F0: C4 80 C5 80 C6 80 18 80  C7 80 C8 80 C9 80 09 80  ................
0500: CA 80 CB 80 CC 80 CD 80  CE 80 CF 80 D0 80 D1 80  ................
0510: D2 80 1A 80 1D 80 D3 80  1E 80 D4 80 D5 80 D6 80  ................
0520: D7 80 D8 80 D9 80 DA 80  DB 80 DC 80 16 80 DD 80  ................
0530: DE 80 DF 80 E0 80 E1 80  E2 80 17 80 E3 80 E4 80  ................
0540: E5 80 E6 80 E7 80 E8 80  E9 80 EA 80 EB 80 EC 80  ................
0550: ED 80 EE 80 EF 80 F0 80  F1 80 F2 80 F3 80 F4 80  ................
0560: F5 80 F6 80 F7 80 F8 80  F9 80 FA 80 FB 80 FC 80  ................
0570: FD 80 FE 80 FF 80 00 81  01 81 02 81 03 81 04 81  ................
0580: 05 81 06 81 07 81 08 81  09 81 0A 81 0B 81 0C 81  ................
0590: 0D 81 19 80 0E 81 0F 81  10 81 11 81 12 81 13 81  ................
05A0: 14 81 15 81 16 81 17 81  18 81 0A 80 19 81 1A 81  ................
05B0: 1B 81 1C 81 1D 81 1E 81  1F 81 20 81 21 81 22 81  .......... .!.".
05C0: 23 81 24 81 25 81 26 81  27 81 28 81 29 81 2A 81  #.$.%.&.'.(.).*.
05D0: 2B 81 2C 81 2D 81 2E 81  2F 81 30 81 31 81 32 81  +.,.-.../.0.1.2.
05E0: 33 81 34 81 35 81 36 81  37 81 38 81 39 81 3A 81  3.4.5.6.7.8.9.:.
05F0: 3B 81 3C 81 3D 81 3E 81  3F 81 40 81 41 81 42 81  ;.<.=.>.?.@.A.B.
0600: 43 81 44 81 45 81 46 81  47 81 48 81 49 81 4A 81  C.D.E.F.G.H.I.J.
0610: 4B 81 4C 81 4D 81 4E 81  4F 81 50 81 51 81 52 81  K.L.M.N.O.P.Q.R.
0620: 53 81 54 81 55 81 56 81  57 81 58 81 59 81 5A 81  S.T.U.V.W.X.Y.Z.
0630: 5B 81 5C 81 05 80 05 80  05 80 05 80 05 80 05 80  [.\.............
0640: 05 80 05 80 05 80 05 80  05 80 05 80 02 10 03 10  ................
0650: 04 10 05 10 06 10 07 10  08 10 09 10 00 17 01 17  ................
0660: 02 17 03 17 04 17 05 17  06 17 07 17 08 17 09 17  ................
0670: 0A 17 0B 17 0C 17 0D 17  0E 17 0F 17 10 17 11 17  ................
0680: 12 17 13 17 14 17 15 17  16 17 17 17              ............    
```

#### Opcodes

```
  0: 0x0133 [0x1E] EventEntity looks at LocalPlayer and starts talking
  1: 0x0138 [0x03] ExtData[1]->WorkLocal[21] = Work_Zone[2]
  2: 0x013D [0x03] ExtData[1]->WorkLocal[1] = Work_Zone[3]
  3: 0x0142 [0x03] ExtData[1]->WorkLocal[11] = 1*
  4: 0x0147 [0x02] IF !(ExtData[1]->WorkLocal[11] == 1*) GOTO 0x0192
  5: 0x014F [0x24] CREATE_DIALOG(message_id=7093*, default_option=0*, option_flags=0*)
    → "Debug menu! [Check flags./Restore fish count./Reset flags./Nope.]"
  6: 0x0156 [0x25] WAIT_DIALOG_SELECT()
  7: 0x0157 [0x02] IF !(Work_Zone[0] == 0*) GOTO 0x0165
  8: 0x015F [0x1A] CALL_SUBROUTINE(address=0x01C3)
  9: 0x0162 [0x01] GOTO 0x018F
 10: 0x0165 [0x02] IF !(Work_Zone[0] == 1*) GOTO 0x017A
 11: 0x016D [0x03] Work_Zone[1] = 1*
 12: 0x0172 [0x03] ExtData[1]->WorkLocal[11] = 0*
 13: 0x0177 [0x01] GOTO 0x018F
 14: 0x017A [0x02] IF !(Work_Zone[0] == 2*) GOTO 0x018F
 15: 0x0182 [0x03] Work_Zone[1] = 2*
 16: 0x0187 [0x03] ExtData[1]->WorkLocal[11] = 0*
 17: 0x018C [0x01] GOTO 0x018F

SUBROUTINE_018F:
 18: 0x018F [0x01] GOTO 0x0147
 19: 0x0192 [0x21] END_EVENT
 20: 0x0193 [0x00] END_REQSTACK()

SUBROUTINE_01C3:
 21: 0x01C3 [0x03] ExtData[1]->WorkLocal[16] = 1*
 22: 0x01C8 [0x03] ExtData[1]->WorkLocal[13] = 164*
 23: 0x01CD [0x15] ExtData[1]->WorkLocal[13] /= 16*
 24: 0x01D2 [0x0B] ExtData[1]->WorkLocal[13]++
 25: 0x01D5 [0x03] ExtData[1]->WorkLocal[14] = 1*
 26: 0x01DA [0x03] Work_Zone_1700[25] = ExtData[1]->WorkLocal[13]
 27: 0x01DF [0x40] SET_BIT_WORK_RANGE(start_bit=24*, end_bit=31*, target=Work_Zone[1], source=0*)
 28: 0x01E8 [0x40] SET_BIT_WORK_RANGE(start_bit=0*, end_bit=7*, target=Work_Zone[1], source=0*)
 29: 0x01F1 [0x43] SEND_EVENT_UPDATE: Send pending tag to server (packet 0x005B)
 30: 0x01F3 [0x43] SEND_EVENT_UPDATE: Check pending flag (skip if not pending)
 31: 0x01F5 [0x1A] CALL_SUBROUTINE(address=0x0363)
 32: 0x01F8 [0x3F] ExtData[1]->WorkLocal[22] = 164* % 16*
 33: 0x01FF [0x14] ExtData[1]->WorkLocal[22] *= 4294967295*
 34: 0x0204 [0x07] ExtData[1]->WorkLocal[22] += 16*
 35: 0x0209 [0x07] ExtData[1]->WorkLocal[22] += 164*

SUBROUTINE_020E:
 36: 0x020E [0x02] IF !(ExtData[1]->WorkLocal[16] == 1*) GOTO 0x0362
 37: 0x0216 [0x03] Work_Zone_1700[24] = ExtData[1]->WorkLocal[14]
 38: 0x021B [0x03] Work_Zone_1700[26] = ExtData[1]->WorkLocal[21]
 39: 0x0220 [0x03] ExtData[1]->WorkLocal[12] = 0*
 40: 0x0225 [0x03] ExtData[1]->WorkLocal[17] = 0*
 41: 0x022A [0x02] IF !(ExtData[1]->WorkLocal[17] >= 16*) GOTO 0x02AB
 42: 0x0232 [0x03] ExtData[1]->WorkLocal[15] = ExtData[1]->WorkLocal[14]
 43: 0x0237 [0x0C] ExtData[1]->WorkLocal[15]--
 44: 0x023A [0x14] ExtData[1]->WorkLocal[15] *= 16*
 45: 0x023F [0x07] ExtData[1]->WorkLocal[15] += ExtData[1]->WorkLocal[17]
 46: 0x0244 [0x9D] IF (0x038C) ExtData[1]->WorkLocal[15] = ExtData[1]->WorkLocal[19] // extra=0x0016
 47: 0x024E [0x9D] IF (0x04EC) ExtData[1]->WorkLocal[15] = ExtData[1]->WorkLocal[20] // extra=0x0016
 48: 0x0258 [0x02] IF !(ExtData[1]->WorkLocal[19] == 0*) GOTO 0x0294
 49: 0x0260 [0x9D] Table[0x064C] = ExtData[1]->WorkLocal[19] // p3=ExtData[1]->WorkLocal[17], p4=0x801A
 50: 0x026A [0x3E] IF !(ExtData[1]->WorkLocal[2] bit ExtData[1]->WorkLocal[20]) GOTO 0x027E
 51: 0x0271 [0x9D] Table[0x066C] = 1* // p3=ExtData[1]->WorkLocal[17], p4=0x801A
 52: 0x027B [0x01] GOTO 0x0288
 53: 0x027E [0x9D] Table[0x066C] = 0* // p3=ExtData[1]->WorkLocal[17], p4=0x801A

SUBROUTINE_0288:
 54: 0x0288 [0x0B] ExtData[1]->WorkLocal[17]++
 55: 0x028B [0xD4] MAP_QUERY_WINDOW: Prepare buffer configuration A (buffer=[11 00 13 00 01 A8 02 9D...])
 56: 0x02A9 [0x2A] GET_REQ_LEVEL(level=2, entity_id=Unknown NPC (ID: 2149319380/0x801C02D4))
 57: 0x02AF [0x17] 0x0C00 = cos(0x2500) * ExtData[1]->WorkLocal[2]
 58: 0x02B6 [0x10] 0* <<= 0xD400
 59: 0x02BB [0x02] IF !(0x0E0C UNKNOWN_COND_14 0x0200) GOTO 0x0A00
 60: 0x02C3 [0x80] LOAD_WAIT(entity=Unknown NPC (ID: 50514947/0x0302CC03))
 61: 0x02C8 [0x0E] 0x0D00 |= 0x0300
 62: 0x02CD [0x17] 0x0500 = cos(0x0180) * 0x035F
 63: 0x02D4 [0x02] IF !(Work_Zone[0] == 17*) GOTO 0x02E9
 64: 0x02DC [0x03] ExtData[1]->WorkLocal[16] = 0*
 65: 0x02E1 [0x03] ExtData[1]->WorkLocal[23] = 0*
 66: 0x02E6 [0x01] GOTO 0x035F
 67: 0x02E9 [0x02] IF !(Work_Zone[0] == 18*) GOTO 0x0309
 68: 0x02F1 [0x0B] ExtData[1]->WorkLocal[14]++
 69: 0x02F4 [0x02] IF !(ExtData[1]->WorkLocal[14] <= ExtData[1]->WorkLocal[13]) GOTO 0x0301
 70: 0x02FC [0x03] ExtData[1]->WorkLocal[14] = 1*
 71: 0x0301 [0x03] ExtData[1]->WorkLocal[23] = 0*
 72: 0x0306 [0x01] GOTO 0x035F
 73: 0x0309 [0x03] ExtData[1]->WorkLocal[23] = Work_Zone[0]
 74: 0x030E [0x02] IF !(ExtData[1]->WorkLocal[1] < 3*) GOTO 0x035F
 75: 0x0316 [0x03] ExtData[1]->WorkLocal[0] = ExtData[1]->WorkLocal[14]
 76: 0x031B [0x0C] ExtData[1]->WorkLocal[0]--
 77: 0x031E [0x14] ExtData[1]->WorkLocal[0] *= 16*
 78: 0x0323 [0x07] ExtData[1]->WorkLocal[0] += Work_Zone[0]
 79: 0x0328 [0x0C] ExtData[1]->WorkLocal[0]--
 80: 0x032B [0x40] SET_BIT_WORK_RANGE(start_bit=24*, end_bit=31*, target=Work_Zone[1], source=1*)
 81: 0x0334 [0x40] SET_BIT_WORK_RANGE(start_bit=0*, end_bit=7*, target=Work_Zone[1], source=ExtData[1]->WorkLocal[0])
 82: 0x033D [0x43] SEND_EVENT_UPDATE: Send pending tag to server (packet 0x005B)
 83: 0x033F [0x43] SEND_EVENT_UPDATE: Check pending flag (skip if not pending)
 84: 0x0341 [0x03] ExtData[1]->WorkLocal[21] = Work_Zone[2]
 85: 0x0346 [0x40] SET_BIT_WORK_RANGE(start_bit=24*, end_bit=31*, target=Work_Zone[1], source=0*)
 86: 0x034F [0x40] SET_BIT_WORK_RANGE(start_bit=0*, end_bit=7*, target=Work_Zone[1], source=0*)
 87: 0x0358 [0x43] SEND_EVENT_UPDATE: Send pending tag to server (packet 0x005B)
 88: 0x035A [0x43] SEND_EVENT_UPDATE: Check pending flag (skip if not pending)
 89: 0x035C [0x1A] CALL_SUBROUTINE(address=0x0363)

SUBROUTINE_035F:
 90: 0x035F [0x01] GOTO 0x020E
 91: 0x0362 [0x1B] RETURN

SUBROUTINE_0363:
 92: 0x0363 [0x03] ExtData[1]->WorkLocal[2] = Work_Zone[2]
 93: 0x0368 [0x03] ExtData[1]->WorkLocal[3] = Work_Zone[3]
 94: 0x036D [0x03] ExtData[1]->WorkLocal[4] = Work_Zone[4]
 95: 0x0372 [0x03] ExtData[1]->WorkLocal[5] = Work_Zone[5]
 96: 0x0377 [0x03] ExtData[1]->WorkLocal[6] = Work_Zone[6]
 97: 0x037C [0x03] ExtData[1]->WorkLocal[7] = Work_Zone[7]
 98: 0x0381 [0x03] ExtData[1]->WorkLocal[8] = Work_Zone[8]
 99: 0x0386 [0x03] ExtData[1]->WorkLocal[9] = Work_Zone[9]
100: 0x038B [0x1B] RETURN
```

#### Data or dead code:

```
# Dead code (unreachable instructions):
     0x0194 [0x40] SET_BIT_WORK_RANGE(start_bit=24*, end_bit=31*, target=Work_Zone[1], source=2*)
     0x019D [0x40] SET_BIT_WORK_RANGE(start_bit=0*, end_bit=7*, target=Work_Zone[1], source=0*)
     0x01A6 [0x43] SEND_EVENT_UPDATE: Send pending tag to server (packet 0x005B)
     0x01A8 [0x43] SEND_EVENT_UPDATE: Check pending flag (skip if not pending)
     0x01AA [0x1D] PRINT_EVENT_MESSAGE(message_id=7085*)
    → "You've cast your line $1 time[/s] and made $2 catch[/es]."
     0x01AD [0x23] WAIT_FOR_DIALOG_INTERACTION
     0x01AE [0x02] IF !(Work_Zone[6] == 0*) GOTO 0x01C2
     0x01B6 [0x02] IF !(Work_Zone[8] == 0*) GOTO 0x01C2
     0x01BE [0x1D] PRINT_EVENT_MESSAGE(message_id=7086*)
    → "The biggest fish you caught by size was $4 measuring $3 [ilm/ilms], and the biggest fish you caught by weight was $6 weighing $5 [ponz/ponzes]."
     0x01C1 [0x23] WAIT_FOR_DIALOG_INTERACTION
     0x01C2 [0x1B] RETURN
# Dead code (unreachable instructions):
     0x038C [0x20] SET_CLI_EVENT_UC_FLAG: Unknown flag value 0x80
     0x038E [0x21] END_EVENT
     0x038F [0x80] LOAD_WAIT(entity=Unknown NPC (ID: 2149810210/0x80238022))
     0x0394 [0x24] CREATE_DIALOG(message_id=0x2580, default_option=0x2680, option_flags=0x2780)
     0x039B [0x80] LOAD_WAIT(entity=Unknown NPC (ID: 2150203432/0x80298028))
     0x03A0 [0x2A] GET_REQ_LEVEL(level=128, entity_id=Unknown NPC (ID: 2150400043/0x802C802B))
     0x03A6 [0x2D] CREATE_ZONE_SCHEDULER_TASK: Create scheduler 0x33803280 with entities [Unknown NPC (ID: 796929664/0x2F802E80), Unknown NPC (ID: 830484608/0x31803080)]
     0x03B3 [0x80] LOAD_WAIT(entity=Unknown NPC (ID: 2150989876/0x80358034))
     0x03B8 [0x36] SET_ENTITY_EVENT_POSITION(pos_x=0x3780, pos_z=0x3880, pos_y=0x3980)
     0x03BF [0x80] LOAD_WAIT(entity=Unknown NPC (ID: 2151383098/0x803B803A))
     0x03C4 [0x3C] SET_BIT_FLAG_CONDITIONAL(target_work_offset=0x3D80, bit_index_work_offset=0x3E80, condition_work_offset=0x3F80)
     0x03CB [0x80] LOAD_WAIT(entity=Unknown NPC (ID: 2151776320/0x80418040))
     0x03D0 [0x42] SET_CLI_EVENT_CANCEL_DATA()
     0x03D1 [0x80] LOAD_WAIT(entity=Unknown NPC (ID: 2151972931/0x80448043))
     0x03D6 [0x45] LOAD_SCHEDULED_TASK: Load scheduler 0x4C804B80 with entities [Unknown NPC (ID: 1216366464/0x48804780), Unknown NPC (ID: 1249921408/0x4A804980)], work=[0x4680, 0x4D80]
     0x03E7 [0x80] LOAD_WAIT(entity=Unknown NPC (ID: 2152693838/0x804F804E))
     0x03EC [0x50] END_SCHEDULER_TASK: End scheduler 0x00005580 with entities [0x5180, 0x5380], work=[21120, 21632]
     0x03F9 [0x80] LOAD_WAIT(entity=Unknown NPC (ID: 2153283671/0x80588057))
     0x03FE [0x59] UPDATE_ENTITY_DATA: Unknown mode 128
     0x0402 [0x5B] LOAD_EXT_SCHEDULER: Load scheduler 0x62806180 with entities [Unknown NPC (ID: 1585470848/0x5E805D80), Unknown NPC (ID: 1619025792/0x60805F80)], work=0x5C80
     0x0411 [0x80] LOAD_WAIT(entity=Unknown NPC (ID: 2154070115/0x80648063))
     0x0416 [0x65] CALCULATE_3D_DISTANCE(result=0x6680, entity1=Unknown NPC (ID: 1753245568/0x68806780), entity2=Unknown NPC (ID: 1786800512/0x6A806980))
     0x0421 [0x80] LOAD_WAIT(entity=Unknown NPC (ID: 2154594411/0x806C806B))
     0x0426 [0x6D] DEPRECATED_OPCODE(unused1=0x6E80, unused2=0x6F80, unused3=0x7080)
     0x042D [0x80] LOAD_WAIT(entity=Unknown NPC (ID: 2154987633/0x80728071))
     0x0432 [0x73] Unknown NPC (ID: 1988130176/0x76807580) casts magic 0x7480 on Unknown NPC (ID: 2021685120/0x78807780)
     0x043D [0x80] LOAD_WAIT(entity=Unknown NPC (ID: 2155511929/0x807A8079))
     0x0442 [0x7B] Unknown NPC (ID: 2105572480/0x7D807C80) stops talking
     0x0447 [0x80] LOAD_WAIT(entity=Unknown NPC (ID: 2155839614/0x807F807E))
     0x044C [0x80] LOAD_WAIT(entity=Unknown NPC (ID: 2189459840/0x82808180))
     0x0451 [0x80] LOAD_WAIT(entity=Unknown NPC (ID: 2156167299/0x80848083))
     0x0456 [0x85] OPEN_MOOGLE_MENU()
     0x0457 [0x80] LOAD_WAIT(entity=Unknown NPC (ID: 2156363910/0x80878086))
     0x045C [0x88] WORLD_PASS_HANDLER_B: Send world pass packet 0x1B (Para=1, sets RecFriendPassFlag)
     0x045D [0x80] LOAD_WAIT(entity=Unknown NPC (ID: 2156560521/0x808A8089))
     0x0462 [0x8B] SET_EVENT_MARK: Add/update map marker on map References[3200] at (References[3712], References[3968]), index=References[3456], name=(no name)
     0x046B [0x80] LOAD_WAIT(entity=Unknown NPC (ID: 2157019280/0x80918090))
     0x0470 [0x92] Unknown NPC (ID: 2157215891/0x80948093)->Render.Flags3 ^= 0x80
     0x0476 [0x95] SETUP_EVENT_NPC: Prepare NPC for event (Render.Flags3 = 0x9680)
     0x0479 [0x80] LOAD_WAIT(entity=Unknown NPC (ID: 2157478039/0x80988097))
     0x047E [0x99] Wait for Unknown NPC (ID: 2608896640/0x9B809A80) animation to complete
     0x0483 [0x80] LOAD_WAIT(entity=Unknown NPC (ID: 2157805724/0x809D809C))
     0x0488 [0x9E] SET_RECT_EVENT_SEND_FLAG: Notify client of area movement
     0x048A [0x9F] LOAD_SCHEDULED_TASK_ALT: Load scheduler 0xA680A580 with entities [Unknown NPC (ID: 2726338944/0xA280A180), Unknown NPC (ID: 2759893888/0xA480A380)], work=[0xA080, 0xA780]
     0x049B [0x80] LOAD_WAIT(entity=Unknown NPC (ID: 2158592168/0x80A980A8))
     0x04A0 [0xAA] VANA_DIEL_TIMESTAMP_CONVERTER(timestamp=0xAB80, year=0xAC80, month=0xAD80, day=0xAE80, weekday=0xAF80, hour=0xB080, minute=0xB180, moon=0xB280)
     0x04B1 [0x80] LOAD_WAIT(entity=Unknown NPC (ID: 2159313075/0x80B480B3))
     0x04B6 [0xB5] SET_EVENT_ENTITY_NAME: Change EventEntity name to 5537*
     0x04BA [0xB7] ENTITY_DATA_HANDLER: Unknown case 0x80 for Unknown NPC (ID: 2159640760/0x80B980B8)
     0x04C2 [0xBB] LOAD_EVENT_SCHEDULER_ALT: Load scheduler 0xC280C180 with entities [Unknown NPC (ID: 3196108160/0xBE80BD80), Unknown NPC (ID: 3229663104/0xC080BF80)], work=[0xBC80, 0xC380]
     0x04D3 [0x80] LOAD_WAIT(entity=Unknown NPC (ID: 2147844101/0x80058005))
     0x04D8 [0x05] 0x0580 = 1
     0x04DB [0x80] LOAD_WAIT(entity=Unknown NPC (ID: 2147844101/0x80058005))
     0x04E0 [0x05] 0x0580 = 1
     0x04E3 [0x80] LOAD_WAIT(entity=Unknown NPC (ID: 2147844101/0x80058005))
     0x04E8 [0x05] 0x0580 = 1
     0x04EB [0x80] LOAD_WAIT(entity=Unknown NPC (ID: 2149548052/0x801F8014))
     0x04F0 [0xC4] SCHEDULE_MAGIC_CASTING_ALT (arg=16): Unknown NPC (ID: 2149089478/0x801880C6) casts magic 5* on Unknown NPC (ID: 2160623815/0x80C880C7)
     0x04FC [0xC9] ENABLE_GAME_TIMER()
     0x04FD [0x80] LOAD_WAIT(entity=Unknown NPC (ID: 2160754697/0x80CA8009))
     0x0502 [0xCB] DEPRECATED_OPCODE_CB()
     0x0503 [0x80] LOAD_WAIT(entity=Unknown NPC (ID: 2160951500/0x80CD80CC))
     0x0508 [0xCE] WAIT_LOAD_SCHEDULER_ALT4: Wait for scheduler 0xD3801D80 with entities [Unknown NPC (ID: 3514880128/0xD180D080), Unknown NPC (ID: 444650112/0x1A80D280)], work=0xCF80
     0x0517 [0x80] LOAD_WAIT(entity=Unknown NPC (ID: 2161410078/0x80D4801E))
     0x051C [0xD5] LOAD_EVENT_SCHEDULER_ALT8: Load scheduler 0x0000DB80 with entities [Unknown NPC (ID: 3632322432/0xD880D780), Unknown NPC (ID: 3665877376/0xDA80D980)], work=0x80
     0x052D [0x80] LOAD_WAIT(entity=Unknown NPC (ID: 2162065629/0x80DE80DD))
     0x0532 [0xDF] UNKNOWN_0xDF
     0x0533 [0x80] LOAD_WAIT(entity=Unknown NPC (ID: 2162262240/0x80E180E0))
     0x0538 [0xE2] UNKNOWN_0xE2
     0x0539 [0x80] LOAD_WAIT(entity=Unknown NPC (ID: 2162393111/0x80E38017))
     0x053E [0xE4] UNKNOWN_0xE4
     0x053F [0x80] LOAD_WAIT(entity=Unknown NPC (ID: 2162589925/0x80E680E5))
     0x0544 [0xE7] UNKNOWN_0xE7
     0x0545 [0x80] LOAD_WAIT(entity=Unknown NPC (ID: 2162786536/0x80E980E8))
     0x054A [0xEA] UNKNOWN_0xEA
     0x054B [0x80] LOAD_WAIT(entity=Unknown NPC (ID: 2162983147/0x80EC80EB))
     0x0550 [0xED] UNKNOWN_0xED
     0x0551 [0x80] LOAD_WAIT(entity=Unknown NPC (ID: 2163179758/0x80EF80EE))
     0x0556 [0xF0] UNKNOWN_0xF0
     0x0557 [0x80] LOAD_WAIT(entity=Unknown NPC (ID: 2163376369/0x80F280F1))
     0x055C [0xF3] UNKNOWN_0xF3
     0x055D [0x80] LOAD_WAIT(entity=Unknown NPC (ID: 2163572980/0x80F580F4))
     0x0562 [0xF6] UNKNOWN_0xF6
     0x0563 [0x80] LOAD_WAIT(entity=Unknown NPC (ID: 2163769591/0x80F880F7))
     0x0568 [0xF9] UNKNOWN_0xF9
     0x0569 [0x80] LOAD_WAIT(entity=Unknown NPC (ID: 2163966202/0x80FB80FA))
     0x056E [0xFC] UNKNOWN_0xFC
     0x056F [0x80] LOAD_WAIT(entity=Unknown NPC (ID: 2164162813/0x80FE80FD))
     0x0574 [0xFF] UNKNOWN_0xFF
     0x0575 [0x80] LOAD_WAIT(entity=Unknown NPC (ID: 2164359424/0x81018100))
     0x057A [0x02] IF !(0x0381 == 0x0481) GOTO 0x8105
     0x0582 [0x06] 0x0781 = 0
     0x0585 [0x81] SET_ENTITY_BLINKING(blink_flag=0x08, entity=Unknown NPC (ID: 176228737/0x0A810981))
     0x058B [0x81] SET_ENTITY_BLINKING(blink_flag=0x0B, entity=Unknown NPC (ID: 226561153/0x0D810C81))
     0x0591 [0x81] SET_ENTITY_BLINKING(blink_flag=0x19, entity=Unknown NPC (ID: 260116096/0x0F810E80))
     0x0597 [0x81] SET_ENTITY_BLINKING(blink_flag=0x10, entity=Unknown NPC (ID: 310448513/0x12811181))
     0x059D [0x81] SET_ENTITY_BLINKING(blink_flag=0x13, entity=Unknown NPC (ID: 360780929/0x15811481))
     0x05A3 [0x81] SET_ENTITY_BLINKING(blink_flag=0x16, entity=Unknown NPC (ID: 411113345/0x18811781))
     0x05A9 [0x81] SET_ENTITY_BLINKING(blink_flag=0x0A, entity=Unknown NPC (ID: 444668288/0x1A811980))
     0x05AF [0x81] SET_ENTITY_BLINKING(blink_flag=0x1B, entity=Unknown NPC (ID: 495000705/0x1D811C81))
     0x05B5 [0x81] SET_ENTITY_BLINKING(blink_flag=0x1E, entity=Unknown NPC (ID: 545333121/0x20811F81))
     0x05BB [0x81] SET_ENTITY_BLINKING(blink_flag=0x21, entity=Unknown NPC (ID: 595665537/0x23812281))
     0x05C1 [0x81] SET_ENTITY_BLINKING(blink_flag=0x24, entity=Unknown NPC (ID: 645997953/0x26812581))
     0x05C7 [0x81] SET_ENTITY_BLINKING(blink_flag=0x27, entity=Unknown NPC (ID: 696330369/0x29812881))
     0x05CD [0x81] SET_ENTITY_BLINKING(blink_flag=0x2A, entity=Unknown NPC (ID: 746662785/0x2C812B81))
     0x05D3 [0x81] SET_ENTITY_BLINKING(blink_flag=0x2D, entity=Unknown NPC (ID: 796995201/0x2F812E81))
     0x05D9 [0x81] SET_ENTITY_BLINKING(blink_flag=0x30, entity=Unknown NPC (ID: 847327617/0x32813181))
     0x05DF [0x81] SET_ENTITY_BLINKING(blink_flag=0x33, entity=Unknown NPC (ID: 897660033/0x35813481))
     0x05E5 [0x81] SET_ENTITY_BLINKING(blink_flag=0x36, entity=Unknown NPC (ID: 947992449/0x38813781))
     0x05EB [0x81] SET_ENTITY_BLINKING(blink_flag=0x39, entity=Unknown NPC (ID: 998324865/0x3B813A81))
     0x05F1 [0x81] SET_ENTITY_BLINKING(blink_flag=0x3C, entity=Unknown NPC (ID: 1048657281/0x3E813D81))
     0x05F7 [0x81] SET_ENTITY_BLINKING(blink_flag=0x3F, entity=Unknown NPC (ID: 1098989697/0x41814081))
     0x05FD [0x81] SET_ENTITY_BLINKING(blink_flag=0x42, entity=Unknown NPC (ID: 1149322113/0x44814381))
     0x0603 [0x81] SET_ENTITY_BLINKING(blink_flag=0x45, entity=Unknown NPC (ID: 1199654529/0x47814681))
     0x0609 [0x81] SET_ENTITY_BLINKING(blink_flag=0x48, entity=Unknown NPC (ID: 1249986945/0x4A814981))
     0x060F [0x81] SET_ENTITY_BLINKING(blink_flag=0x4B, entity=Unknown NPC (ID: 1300319361/0x4D814C81))
     0x0615 [0x81] SET_ENTITY_BLINKING(blink_flag=0x4E, entity=Unknown NPC (ID: 1350651777/0x50814F81))
     0x061B [0x81] SET_ENTITY_BLINKING(blink_flag=0x51, entity=Unknown NPC (ID: 1400984193/0x53815281))
     0x0621 [0x81] SET_ENTITY_BLINKING(blink_flag=0x54, entity=Unknown NPC (ID: 1451316609/0x56815581))
     0x0627 [0x81] SET_ENTITY_BLINKING(blink_flag=0x57, entity=Unknown NPC (ID: 1501649025/0x59815881))
     0x062D [0x81] SET_ENTITY_BLINKING(blink_flag=0x5A, entity=Unknown NPC (ID: 1551981441/0x5C815B81))
     0x0633 [0x81] SET_ENTITY_BLINKING(blink_flag=0x05, entity=Unknown NPC (ID: 92276096/0x05800580))
     0x0639 [0x80] LOAD_WAIT(entity=Unknown NPC (ID: 2147844101/0x80058005))
     0x063E [0x05] 0x0580 = 1
     0x0641 [0x80] LOAD_WAIT(entity=Unknown NPC (ID: 2147844101/0x80058005))
     0x0646 [0x05] 0x0580 = 1
     0x0649 [0x80] LOAD_WAIT(entity=Unknown NPC (ID: 268599301/0x10028005))
     0x064E [0x03] 0x0410 = 0x0510
     0x0653 [0x10] Work_Zone[6] <<= Work_Zone[7]
     0x0658 [0x08] 0x0910 -= ExtData[1]->WorkLocal[16]
     0x065D [0x17] Work_Zone_1700[1] = cos(Work_Zone_1700[2]) * Work_Zone_1700[3]
     0x0664 [0x04] DEPRECATED_NOP(unused=0x0517)
     0x0667 [0x17] Work_Zone_1700[6] = cos(Work_Zone_1700[7]) * Work_Zone_1700[8]
     0x066E [0x09] 0x0A17 |= (1 << 0x0B17)
     0x0673 [0x17] Work_Zone_1700[12] = cos(Work_Zone_1700[13]) * Work_Zone_1700[14]
     0x067A [0x0F] Work_Zone[23] ^= Work_Zone_Memorize[23]
     0x067F [0x17] Work_Zone_1700[18] = cos(Work_Zone_1700[19]) * Work_Zone_1700[20]
     0x0686 [0x15] 0x1617 /= Work_Zone_1700[23]
```
