# 17797225 - Lacia

## Common Data

| Field            | Value            |
|------------------|------------------|
| Zone             | Mhaura (ID: 249) |
| Block Size       | 1688 bytes       |
| Total Events     | 19               |
| References Count | 63               |

## List of Events

| Event ID                 | Entrypoint   |   Size |   Instructions |
|--------------------------|--------------|--------|----------------|
| [65535](#event-65535)    | 0x0000       |      1 |              1 |
| [10016](#event-10016)    | 0x0001       |     11 |              2 |
| [10021](#event-10021)    | 0x000C       |     19 |             10 |
| [10018](#event-10018)    | 0x001F       |     56 |             17 |
| [10019](#event-10019)    | 0x0057       |      1 |              1 |
| [65535.1](#event-655351) | 0x0058       |     61 |             10 |
| [65535.2](#event-655352) | 0x0095       |     88 |              8 |
| [65535.3](#event-655353) | 0x00ED       |     88 |              8 |
| [65535.4](#event-655354) | 0x0145       |     88 |              8 |
| [65535.5](#event-655355) | 0x019D       |      1 |              1 |
| [65535.6](#event-655356) | 0x019E       |      1 |              1 |
| [65535.7](#event-655357) | 0x019F       |      1 |              1 |
| [10025](#event-10025)    | 0x01A0       |    426 |             89 |
| [10026](#event-10026)    | 0x034A       |    180 |             41 |
| [10030](#event-10030)    | 0x03FE       |    114 |             35 |
| [10027](#event-10027)    | 0x0470       |     15 |              8 |
| [10031](#event-10031)    | 0x047F       |     19 |             10 |
| [10028](#event-10028)    | 0x0492       |     75 |             23 |
| [10029](#event-10029)    | 0x04DD       |     98 |             24 |

## DAT References (imed_data)

|   Index | Hex Value   |   Dec Value |
|---------|-------------|-------------|
|       0 | 0x1CB7      |        7351 |
|       1 | 0x1CB8      |        7352 |
|       2 | 0x1CC9      |        7369 |
|       3 | 0x1CCA      |        7370 |
|       4 | 0x1CCB      |        7371 |
|       5 | 0x0001      |           1 |
|       6 | 0x83AC      |       33708 |
|       7 | 0xFFFF65FF  |  4294927871 |
|       8 | 0x1D4B      |        7499 |
|       9 | 0x05A0      |        1440 |
|      10 | 0x0004      |           4 |
|      11 | 0xFFFD1F0E  |  4294778638 |
|      12 | 0x1AADB     |      109275 |
|      13 | 0x0000      |           0 |
|      14 | 0x0223      |         547 |
|      15 | 0x0005      |           5 |
|      16 | 0x7BE0      |       31712 |
|      17 | 0xD6C5      |       54981 |
|      18 | 0xFFFFC33E  |  4294951742 |
|      19 | 0x0CEF      |        3311 |
|      20 | 0x00F9      |         249 |
|      21 | 0x0064      |         100 |
|      22 | 0x00C8      |         200 |
|      23 | 0x1D23      |        7459 |
|      24 | 0x1D24      |        7460 |
|      25 | 0x1D25      |        7461 |
|      26 | 0x0007      |           7 |
|      27 | 0x1D26      |        7462 |
|      28 | 0x1D27      |        7463 |
|      29 | 0x1D28      |        7464 |
|      30 | 0x1D2B      |        7467 |
|      31 | 0x1D2C      |        7468 |
|      32 | 0x0006      |           6 |
|      33 | 0x1D30      |        7472 |
|      34 | 0x1D32      |        7474 |
|      35 | 0x1D33      |        7475 |
|      36 | 0x1D34      |        7476 |
|      37 | 0x1D37      |        7479 |
|      38 | 0x1D38      |        7480 |
|      39 | 0x0002      |           2 |
|      40 | 0x1D39      |        7481 |
|      41 | 0x1D3A      |        7482 |
|      42 | 0x1D3B      |        7483 |
|      43 | 0x1D3C      |        7484 |
|      44 | 0x1D3D      |        7485 |
|      45 | 0x0105      |         261 |
|      46 | 0x001E      |          30 |
|      47 | 0x1D3E      |        7486 |
|      48 | 0x0078      |         120 |
|      49 | 0x0003      |           3 |
|      50 | 0x1D40      |        7488 |
|      51 | 0x1D41      |        7489 |
|      52 | 0x1D3F      |        7487 |
|      53 | 0x1D51      |        7505 |
|      54 | 0x1D52      |        7506 |
|      55 | 0x1D42      |        7490 |
|      56 | 0x1D43      |        7491 |
|      57 | 0x1D45      |        7493 |
|      58 | 0x1D46      |        7494 |
|      59 | 0x0015      |          21 |
|      60 | 0x0050      |          80 |
|      61 | 0x1D48      |        7496 |
|      62 | 0x1D49      |        7497 |

## String References

- **7351**: Try though you may, there will come a time when failure is inevitable.
- **7352**: Channel that agony and bitterness into creating a new plan.
- **7369**: If you don't prepare yourself for battle, you'll get beaten to a pulp, like we did!
- **7370**: As soon as we gather our companions, we'll be jumping into the fray again. I just hope this little researcher doesn't get in our way...
- **7459**: Hmmm... Hrmmm... So it's time to use...no...
- **7460**: Hello? You're an adventurer, right? Maybe you can help us out.
- **7461**: Let me introduce myself and my companion. We're from the Rhinostery in Windurst.
- **7462**: I was hired by the ministry to accompany this researcher to [Ifrit's Cauldron/the Quicksand Caves/the Den of Rancor/Cape Teriggan/Fei'Yin/the Boyahda Tree] and assist her in her study of a series of giant crystals.
- **7463**: But what was waiting for us inside those crystals was more than I could deal with...
- **7464**: We tried countless times, but I could not defeat that beast. Another researcher at the Rhinostery sympathized with our plight and developed an improved tuning fork.
- **7467**: Do you see what I have to deal with? I don't know how much longer I can work with such a pessimist.
- **7468**: That's where you come in. I was thinking of letting one of you adventurers test out the new fork and prove to my colleague that it is able to return data valuable to her research.
- **7472**: ... Yes, but ma'am... The Rhinostery has been pressing us to produce results. If we do not take some sort of action quickly...
- **7474**: No, one round could not hurt.
- **7476**: Are you really-dilly sure? [Fork me!/On second thought...]
- **7479**: The researcher who made the $1 warned that "the door home would only open to those who defeated the prime avatar."
- **7480**: I'm not quite sure what that is supposed to mean, but I suggest that you prepare well before taking on this journey. Remember, you have to be at least a level $3 summoner.
- **7481**: Are you and Carbuncle ready to fight the prime avatar as a level $3 summoner?
- **7482**: Also, regardless of whether you defeat the avatar or not, you will be unable to re-enter the protocrystal again for a number of days.
- **7483**: Are you sure you are ready? [Off to [Ifrit's Cauldron/the Quicksand Caves/the Den of Rancor/Cape Teriggan/Fei'Yin/the Boyahda Tree]!/My dog ate my mini tuning fork./Not just yet...]
- **7484**: Ma'am, our adventurer has completed [his/her] preparations and requests a warp.
- **7487**: Don't use that excuse on me, [young man/young lady]. If you want another $1, all you have to do ask.
- **7488**: If you do not bring the $1 we gave you, my companion cannot warp you to [Ifrit's Cauldron/the Quicksand Caves/the Den of Rancor/Cape Teriggan/Fei'Yin/the Boyahda Tree].
- **7489**: Did you remember to bring the $1?
- **7490**: What!? You defeated the prime avatar!?
- **7491**: Ma'am!
- **7493**: ... Ma'am...
- **7494**: ... (Now if I could only find me some real work so I could do some real adventuring...)
- **7496**: Remember that you must fight the prime avatar as a level $3 summoner. As you already know, this will not be an easy task. Prepare well for the battle.
- **7497**: Do you want another mini tuning fork? [Fork me baby, one more time./Stick a fork in me, I'm done.]
- **7505**: Ah, you are back. How was your battle with the avatar?
- **7506**: Remember, the protocrystals will only resonate with the tuning forks ever so often. Use this time to rest before taking upon another challenge.

## Events

### Event 65535

#### Metadata

| Field        | Value   |
|--------------|---------|
| Entrypoint   | 0x0000  |
| Data Size    | 1 bytes |
| Instructions | 1       |

```
      00 01 02 03 04 05 06 07  08 09 0A 0B 0C 0D 0E 0F
      -- -- -- -- -- -- -- --  -- -- -- -- -- -- -- --
0000: 00                                                .               
```

#### Opcodes

```
  0: 0x0000 [0x00] END_REQSTACK()
```

### Event 10016

#### Metadata

| Field        | Value    |
|--------------|----------|
| Entrypoint   | 0x0001   |
| Data Size    | 11 bytes |
| Instructions | 2        |

```
      00 01 02 03 04 05 06 07  08 09 0A 0B 0C 0D 0E 0F
      -- -- -- -- -- -- -- --  -- -- -- -- -- -- -- --
0000:    79 00 69 90 0F 01 F0  FF FF 7F 00               y.i........    
```

#### Opcodes

```
  0: 0x0001 [0x79] Lacia (ID: 17797225/0x010F9069) looks at LocalPlayer (Basic look)
  1: 0x000B [0x00] END_REQSTACK()
```

### Event 10021

#### Metadata

| Field        | Value    |
|--------------|----------|
| Entrypoint   | 0x000C   |
| Data Size    | 19 bytes |
| Instructions | 10       |

```
      00 01 02 03 04 05 06 07  08 09 0A 0B 0C 0D 0E 0F
      -- -- -- -- -- -- -- --  -- -- -- -- -- -- -- --
0000:                                      1E F0 FF FF              ....
0010: 7F 6F 70 1D 00 80 23 1D  01 80 23 20 00 21 00     .op...#...# .!. 
```

#### Opcodes

```
  0: 0x000C [0x1E] EventEntity looks at LocalPlayer and starts talking
  1: 0x0011 [0x6F] WAIT_FRAME_DELAY: Yield until WaitTime reaches zero
  2: 0x0012 [0x70] WAIT_ENTITY_RENDER_FLAG: Wait while EventEntity->Render.Flags3 bit 2 is set (cancel turn if not)
  3: 0x0013 [0x1D] PRINT_EVENT_MESSAGE(message_id=7351*)
    → "Try though you may, there will come a time when failure is inevitable."
  4: 0x0016 [0x23] WAIT_FOR_DIALOG_INTERACTION
  5: 0x0017 [0x1D] PRINT_EVENT_MESSAGE(message_id=7352*)
    → "Channel that agony and bitterness into creating a new plan."
  6: 0x001A [0x23] WAIT_FOR_DIALOG_INTERACTION
  7: 0x001B [0x20] SET_CLI_EVENT_UC_FLAG: Unlock player control
  8: 0x001D [0x21] END_EVENT
  9: 0x001E [0x00] END_REQSTACK()
```

### Event 10018

#### Metadata

| Field        | Value    |
|--------------|----------|
| Entrypoint   | 0x001F   |
| Data Size    | 56 bytes |
| Instructions | 17       |

```
      00 01 02 03 04 05 06 07  08 09 0A 0B 0C 0D 0E 0F
      -- -- -- -- -- -- -- --  -- -- -- -- -- -- -- --
0010:                                               1E                 .
0020: F0 FF FF 7F 6F 70 1D 02  80 23 1D 03 80 23 4A 68  ....op...#...#Jh
0030: 90 0F 01 69 90 0F 01 6F  76 68 90 0F 01 29 0B 68  ...i...ovh...).h
0040: 90 0F 01 13 2B 68 90 0F  01 04 80 23 29 0B 68 90  ....+h.....#).h.
0050: 0F 01 14 20 00 21 00                              ... .!.         
```

#### Opcodes

```
  0: 0x001F [0x1E] EventEntity looks at LocalPlayer and starts talking
  1: 0x0024 [0x6F] WAIT_FRAME_DELAY: Yield until WaitTime reaches zero
  2: 0x0025 [0x70] WAIT_ENTITY_RENDER_FLAG: Wait while EventEntity->Render.Flags3 bit 2 is set (cancel turn if not)
  3: 0x0026 [0x1D] PRINT_EVENT_MESSAGE(message_id=7369*)
    → "If you don't prepare yourself for battle, you'll get beaten to a pulp, like we did!"
  4: 0x0029 [0x23] WAIT_FOR_DIALOG_INTERACTION
  5: 0x002A [0x1D] PRINT_EVENT_MESSAGE(message_id=7370*)
    → "As soon as we gather our companions, we'll be jumping into the fray again. I just hope this little researcher doesn't get in our way..."
  6: 0x002D [0x23] WAIT_FOR_DIALOG_INTERACTION
  7: 0x002E [0x4A] Ripapa (ID: 17797224/0x010F9068) looks at Lacia (ID: 17797225/0x010F9069)
  8: 0x0037 [0x6F] WAIT_FRAME_DELAY: Yield until WaitTime reaches zero
  9: 0x0038 [0x76] CHECK_ENTITY_RENDER_FLAGS: Wait until Ripapa (ID: 17797224/0x010F9068) Render.Flags0 and Render.Flags3 conditions are met
 10: 0x003D [0x29] REQ_SET_WAIT(priority=0x0B, entity_id=Ripapa (ID: 17797224/0x010F9068), tag_num=0x13)
 11: 0x0044 [0x2B] Ripapa (ID: 17797224/0x010F9068) [7371*]:
    → "Excuse me! If I don't go with you, there's no pointaru to the research now is there?"
 12: 0x004B [0x23] WAIT_FOR_DIALOG_INTERACTION
 13: 0x004C [0x29] REQ_SET_WAIT(priority=0x0B, entity_id=Ripapa (ID: 17797224/0x010F9068), tag_num=0x14)
 14: 0x0053 [0x20] SET_CLI_EVENT_UC_FLAG: Unlock player control
 15: 0x0055 [0x21] END_EVENT
 16: 0x0056 [0x00] END_REQSTACK()
```

### Event 10019

#### Metadata

| Field        | Value   |
|--------------|---------|
| Entrypoint   | 0x0057  |
| Data Size    | 1 bytes |
| Instructions | 1       |

```
      00 01 02 03 04 05 06 07  08 09 0A 0B 0C 0D 0E 0F
      -- -- -- -- -- -- -- --  -- -- -- -- -- -- -- --
0050:                      00                                  .        
```

#### Opcodes

```
  0: 0x0057 [0x00] END_REQSTACK()
```

### Event 65535.1

#### Metadata

| Field        | Value    |
|--------------|----------|
| Entrypoint   | 0x0058   |
| Data Size    | 61 bytes |
| Instructions | 10       |

```
      00 01 02 03 04 05 06 07  08 09 0A 0B 0C 0D 0E 0F
      -- -- -- -- -- -- -- --  -- -- -- -- -- -- -- --
0050:                          02 04 10 05 80 80 6C 00          ......l.
0060: 37 06 80 07 80 08 80 09  80 01 94 00 02 04 10 0A  7...............
0070: 80 80 80 00 37 0B 80 0C  80 0D 80 0E 80 01 94 00  ....7...........
0080: 02 04 10 0F 80 80 94 00  37 10 80 11 80 12 80 13  ........7.......
0090: 80 01 94 00 00                                    .....           
```

#### Opcodes

```
  0: 0x0058 [0x02] IF !(Work_Zone[4] == 1*) GOTO 0x006C
  1: 0x0060 [0x37] UPDATE_EVENT_POSITION_AND_DIR: x=33.708*, z=-39.425*, y=7.499*, direction=126.6°*
  2: 0x0069 [0x01] GOTO 0x0094
  3: 0x006C [0x02] IF !(Work_Zone[4] == 4*) GOTO 0x0080
  4: 0x0074 [0x37] UPDATE_EVENT_POSITION_AND_DIR: x=-188.658*, z=109.275*, y=0.000*, direction=48.1°*
  5: 0x007D [0x01] GOTO 0x0094
  6: 0x0080 [0x02] IF !(Work_Zone[4] == 5*) GOTO 0x0094
  7: 0x0088 [0x37] UPDATE_EVENT_POSITION_AND_DIR: x=31.712*, z=54.981*, y=-15.554*, direction=291.0°*
  8: 0x0091 [0x01] GOTO 0x0094

SUBROUTINE_0094:
  9: 0x0094 [0x00] END_REQSTACK()
```

### Event 65535.2

#### Metadata

| Field        | Value    |
|--------------|----------|
| Entrypoint   | 0x0095   |
| Data Size    | 88 bytes |
| Instructions | 8        |

```
      00 01 02 03 04 05 06 07  08 09 0A 0B 0C 0D 0E 0F
      -- -- -- -- -- -- -- --  -- -- -- -- -- -- -- --
0090:                45 14 80  F8 FF FF 7F F8 FF FF 7F       E..........
00A0: 73 30 31 38 0D 80 1C 15  80 52 14 80 F8 FF FF 7F  s018.....R......
00B0: F8 FF FF 7F 73 30 31 38  45 16 80 F0 FF FF 7F F0  ....s018E.......
00C0: FF FF 7F 6F 76 6C 31 0D  80 45 14 80 F8 FF FF 7F  ...ovl1..E......
00D0: F8 FF FF 7F 73 30 31 39  0D 80 1C 15 80 52 14 80  ....s019.....R..
00E0: F8 FF FF 7F F8 FF FF 7F  73 30 31 39 00           ........s019.   
```

#### Opcodes

```
  0: 0x0095 [0x45] LOAD_SCHEDULED_TASK: Load scheduler "s018" with entities [EventEntity, EventEntity], work=[249*, 0*]
  1: 0x00A6 [0x1C] WAIT(100* ticks)
  2: 0x00A9 [0x52] END_LOAD_SCHEDULER: End scheduler "s018" with entities [EventEntity, EventEntity], work=249*
  3: 0x00B8 [0x45] LOAD_SCHEDULED_TASK: Load scheduler "ovl1" with entities [LocalPlayer, LocalPlayer], work=[200*, 0*]
  4: 0x00C9 [0x45] LOAD_SCHEDULED_TASK: Load scheduler "s019" with entities [EventEntity, EventEntity], work=[249*, 0*]
  5: 0x00DA [0x1C] WAIT(100* ticks)
  6: 0x00DD [0x52] END_LOAD_SCHEDULER: End scheduler "s019" with entities [EventEntity, EventEntity], work=249*
  7: 0x00EC [0x00] END_REQSTACK()
```

### Event 65535.3

#### Metadata

| Field        | Value    |
|--------------|----------|
| Entrypoint   | 0x00ED   |
| Data Size    | 88 bytes |
| Instructions | 8        |

```
      00 01 02 03 04 05 06 07  08 09 0A 0B 0C 0D 0E 0F
      -- -- -- -- -- -- -- --  -- -- -- -- -- -- -- --
00E0:                                         45 14 80               E..
00F0: F8 FF FF 7F F8 FF FF 7F  73 30 32 35 0D 80 1C 15  ........s025....
0100: 80 52 14 80 F8 FF FF 7F  F8 FF FF 7F 73 30 32 35  .R..........s025
0110: 45 16 80 F0 FF FF 7F F0  FF FF 7F 6F 76 6C 31 0D  E..........ovl1.
0120: 80 45 14 80 F8 FF FF 7F  F8 FF FF 7F 73 30 32 36  .E..........s026
0130: 0D 80 1C 15 80 52 14 80  F8 FF FF 7F F8 FF FF 7F  .....R..........
0140: 73 30 32 36 00                                    s026.           
```

#### Opcodes

```
  0: 0x00ED [0x45] LOAD_SCHEDULED_TASK: Load scheduler "s025" with entities [EventEntity, EventEntity], work=[249*, 0*]
  1: 0x00FE [0x1C] WAIT(100* ticks)
  2: 0x0101 [0x52] END_LOAD_SCHEDULER: End scheduler "s025" with entities [EventEntity, EventEntity], work=249*
  3: 0x0110 [0x45] LOAD_SCHEDULED_TASK: Load scheduler "ovl1" with entities [LocalPlayer, LocalPlayer], work=[200*, 0*]
  4: 0x0121 [0x45] LOAD_SCHEDULED_TASK: Load scheduler "s026" with entities [EventEntity, EventEntity], work=[249*, 0*]
  5: 0x0132 [0x1C] WAIT(100* ticks)
  6: 0x0135 [0x52] END_LOAD_SCHEDULER: End scheduler "s026" with entities [EventEntity, EventEntity], work=249*
  7: 0x0144 [0x00] END_REQSTACK()
```

### Event 65535.4

#### Metadata

| Field        | Value    |
|--------------|----------|
| Entrypoint   | 0x0145   |
| Data Size    | 88 bytes |
| Instructions | 8        |

```
      00 01 02 03 04 05 06 07  08 09 0A 0B 0C 0D 0E 0F
      -- -- -- -- -- -- -- --  -- -- -- -- -- -- -- --
0140:                45 14 80  F8 FF FF 7F F8 FF FF 7F       E..........
0150: 73 30 34 36 0D 80 1C 15  80 52 14 80 F8 FF FF 7F  s046.....R......
0160: F8 FF FF 7F 73 30 34 36  45 16 80 F0 FF FF 7F F0  ....s046E.......
0170: FF FF 7F 6F 76 6C 31 0D  80 45 14 80 F8 FF FF 7F  ...ovl1..E......
0180: F8 FF FF 7F 73 30 34 37  0D 80 1C 15 80 52 14 80  ....s047.....R..
0190: F8 FF FF 7F F8 FF FF 7F  73 30 34 37 00           ........s047.   
```

#### Opcodes

```
  0: 0x0145 [0x45] LOAD_SCHEDULED_TASK: Load scheduler "s046" with entities [EventEntity, EventEntity], work=[249*, 0*]
  1: 0x0156 [0x1C] WAIT(100* ticks)
  2: 0x0159 [0x52] END_LOAD_SCHEDULER: End scheduler "s046" with entities [EventEntity, EventEntity], work=249*
  3: 0x0168 [0x45] LOAD_SCHEDULED_TASK: Load scheduler "ovl1" with entities [LocalPlayer, LocalPlayer], work=[200*, 0*]
  4: 0x0179 [0x45] LOAD_SCHEDULED_TASK: Load scheduler "s047" with entities [EventEntity, EventEntity], work=[249*, 0*]
  5: 0x018A [0x1C] WAIT(100* ticks)
  6: 0x018D [0x52] END_LOAD_SCHEDULER: End scheduler "s047" with entities [EventEntity, EventEntity], work=249*
  7: 0x019C [0x00] END_REQSTACK()
```

### Event 65535.5

#### Metadata

| Field        | Value   |
|--------------|---------|
| Entrypoint   | 0x019D  |
| Data Size    | 1 bytes |
| Instructions | 1       |

```
      00 01 02 03 04 05 06 07  08 09 0A 0B 0C 0D 0E 0F
      -- -- -- -- -- -- -- --  -- -- -- -- -- -- -- --
0190:                                         00                     .  
```

#### Opcodes

```
  0: 0x019D [0x00] END_REQSTACK()
```

### Event 65535.6

#### Metadata

| Field        | Value   |
|--------------|---------|
| Entrypoint   | 0x019E  |
| Data Size    | 1 bytes |
| Instructions | 1       |

```
      00 01 02 03 04 05 06 07  08 09 0A 0B 0C 0D 0E 0F
      -- -- -- -- -- -- -- --  -- -- -- -- -- -- -- --
0190:                                            00                   . 
```

#### Opcodes

```
  0: 0x019E [0x00] END_REQSTACK()
```

### Event 65535.7

#### Metadata

| Field        | Value   |
|--------------|---------|
| Entrypoint   | 0x019F  |
| Data Size    | 1 bytes |
| Instructions | 1       |

```
      00 01 02 03 04 05 06 07  08 09 0A 0B 0C 0D 0E 0F
      -- -- -- -- -- -- -- --  -- -- -- -- -- -- -- --
0190:                                               00                 .
```

#### Opcodes

```
  0: 0x019F [0x00] END_REQSTACK()
```

### Event 10025

#### Metadata

| Field        | Value     |
|--------------|-----------|
| Entrypoint   | 0x01A0    |
| Data Size    | 426 bytes |
| Instructions | 89        |

```
      00 01 02 03 04 05 06 07  08 09 0A 0B 0C 0D 0E 0F
      -- -- -- -- -- -- -- --  -- -- -- -- -- -- -- --
01A0: 1D 17 80 23 4A 69 90 0F  01 F0 FF FF 7F 1D 18 80  ...#Ji..........
01B0: 23 79 00 69 90 0F 01 68  90 0F 01 4A 68 90 0F 01  #y.i...h...Jh...
01C0: F0 FF FF 7F 1D 19 80 23  79 00 69 90 0F 01 F0 FF  .......#y.i.....
01D0: FF 7F 6E F8 FF FF 7F 1A  80 99 F8 FF FF 7F 1D 1B  ..n.............
01E0: 80 23 1D 1C 80 23 6F 76  68 90 0F 01 1D 1D 80 23  .#...#ovh......#
01F0: 4A 68 90 0F 01 69 90 0F  01 6F 76 68 90 0F 01 4A  Jh...i...ovh...J
0200: 69 90 0F 01 68 90 0F 01  29 0B 68 90 0F 01 37 6F  i...h...).h...7o
0210: 76 69 90 0F 01 29 09 68  90 0F 01 19 79 00 68 90  vi...).h....y.h.
0220: 0F 01 F0 FF FF 7F 4A 69  90 0F 01 F0 FF FF 7F 1D  ......Ji........
0230: 1E 80 23 29 09 68 90 0F  01 1A 4A 68 90 0F 01 69  ..#).h....Jh...i
0240: 90 0F 01 1D 1F 80 23 6F  76 69 90 0F 01 4A 69 90  ......#ovi...Ji.
0250: 0F 01 68 90 0F 01 6F 76  68 90 0F 01 29 0B 68 90  ..h...ovh...).h.
0260: 0F 01 38 6E F8 FF FF 7F  20 80 99 F8 FF FF 7F 1D  ..8n.... .......
0270: 21 80 23 6F 76 69 90 0F  01 4A 68 90 0F 01 69 90  !.#ovi...Jh...i.
0280: 0F 01 6F 76 68 90 0F 01  29 0B 68 90 0F 01 39 79  ..ovh...).h...9y
0290: 00 69 90 0F 01 68 90 0F  01 29 09 68 90 0F 01 05  .i...h...).h....
02A0: 1D 22 80 23 29 09 68 90  0F 01 06 02 07 10 05 80  .".#).h.........
02B0: 00 D8 02 4A 68 90 0F 01  F0 FF FF 7F 6F 76 68 90  ...Jh.......ovh.
02C0: 0F 01 29 09 68 90 0F 01  01 2B 68 90 0F 01 23 80  ..).h....+h...#.
02D0: 23 29 09 68 90 0F 01 02  79 00 68 90 0F 01 F0 FF  #).h....y.h.....
02E0: FF 7F 24 24 80 0D 80 0D  80 25 02 00 10 0D 80 00  ..$$.....%......
02F0: 36 03 42 03 01 10 05 80  79 00 69 90 0F 01 F0 FF  6.B.....y.i.....
0300: FF 7F 4A 68 90 0F 01 F0  FF FF 7F 6F 76 68 90 0F  ..Jh.......ovh..
0310: 01 29 0B 68 90 0F 01 3A  4A 69 90 0F 01 F0 FF FF  .).h...:Ji......
0320: 7F 79 00 68 90 0F 01 69  90 0F 01 1D 25 80 23 1D  .y.h...i....%.#.
0330: 26 80 23 01 46 03 02 00  10 05 80 00 46 03 03 01  &.#.F.......F...
0340: 10 27 80 01 46 03 20 00  21 00                    .'..F. .!.      
```

#### Opcodes

```
  0: 0x01A0 [0x1D] PRINT_EVENT_MESSAGE(message_id=7459*)
    → "Hmmm... Hrmmm... So it's time to use...no..."
  1: 0x01A3 [0x23] WAIT_FOR_DIALOG_INTERACTION
  2: 0x01A4 [0x4A] Lacia (ID: 17797225/0x010F9069) looks at LocalPlayer
  3: 0x01AD [0x1D] PRINT_EVENT_MESSAGE(message_id=7460*)
    → "Hello? You're an adventurer, right? Maybe you can help us out."
  4: 0x01B0 [0x23] WAIT_FOR_DIALOG_INTERACTION
  5: 0x01B1 [0x79] Lacia (ID: 17797225/0x010F9069) looks at Ripapa (ID: 17797224/0x010F9068) (Basic look)
  6: 0x01BB [0x4A] Ripapa (ID: 17797224/0x010F9068) looks at LocalPlayer
  7: 0x01C4 [0x1D] PRINT_EVENT_MESSAGE(message_id=7461*)
    → "Let me introduce myself and my companion. We're from the Rhinostery in Windurst."
  8: 0x01C7 [0x23] WAIT_FOR_DIALOG_INTERACTION
  9: 0x01C8 [0x79] Lacia (ID: 17797225/0x010F9069) looks at LocalPlayer (Basic look)
 10: 0x01D2 [0x6E] EventEntity uses emote 7*
 11: 0x01D9 [0x99] Wait for EventEntity animation to complete
 12: 0x01DE [0x1D] PRINT_EVENT_MESSAGE(message_id=7462*)
    → "I was hired by the ministry to accompany this researcher to [Ifrit's Cauldron/the Quicksand Caves/the Den of Rancor/Cape Teriggan/Fei'Yin/the Boyahda Tree] and assist her in her study of a series of giant crystals."
 13: 0x01E1 [0x23] WAIT_FOR_DIALOG_INTERACTION
 14: 0x01E2 [0x1D] PRINT_EVENT_MESSAGE(message_id=7463*)
    → "But what was waiting for us inside those crystals was more than I could deal with..."
 15: 0x01E5 [0x23] WAIT_FOR_DIALOG_INTERACTION
 16: 0x01E6 [0x6F] WAIT_FRAME_DELAY: Yield until WaitTime reaches zero
 17: 0x01E7 [0x76] CHECK_ENTITY_RENDER_FLAGS: Wait until Ripapa (ID: 17797224/0x010F9068) Render.Flags0 and Render.Flags3 conditions are met
 18: 0x01EC [0x1D] PRINT_EVENT_MESSAGE(message_id=7464*)
    → "We tried countless times, but I could not defeat that beast. Another researcher at the Rhinostery sympathized with our plight and developed an improved tuning fork."
 19: 0x01EF [0x23] WAIT_FOR_DIALOG_INTERACTION
 20: 0x01F0 [0x4A] Ripapa (ID: 17797224/0x010F9068) looks at Lacia (ID: 17797225/0x010F9069)
 21: 0x01F9 [0x6F] WAIT_FRAME_DELAY: Yield until WaitTime reaches zero
 22: 0x01FA [0x76] CHECK_ENTITY_RENDER_FLAGS: Wait until Ripapa (ID: 17797224/0x010F9068) Render.Flags0 and Render.Flags3 conditions are met
 23: 0x01FF [0x4A] Lacia (ID: 17797225/0x010F9069) looks at Ripapa (ID: 17797224/0x010F9068)
 24: 0x0208 [0x29] REQ_SET_WAIT(priority=0x0B, entity_id=Ripapa (ID: 17797224/0x010F9068), tag_num=0x37)
 25: 0x020F [0x6F] WAIT_FRAME_DELAY: Yield until WaitTime reaches zero
 26: 0x0210 [0x76] CHECK_ENTITY_RENDER_FLAGS: Wait until Lacia (ID: 17797225/0x010F9069) Render.Flags0 and Render.Flags3 conditions are met
 27: 0x0215 [0x29] REQ_SET_WAIT(priority=0x09, entity_id=Ripapa (ID: 17797224/0x010F9068), tag_num=0x19)
 28: 0x021C [0x79] Ripapa (ID: 17797224/0x010F9068) looks at LocalPlayer (Basic look)
 29: 0x0226 [0x4A] Lacia (ID: 17797225/0x010F9069) looks at LocalPlayer
 30: 0x022F [0x1D] PRINT_EVENT_MESSAGE(message_id=7467*)
    → "Do you see what I have to deal with? I don't know how much longer I can work with such a pessimist."
 31: 0x0232 [0x23] WAIT_FOR_DIALOG_INTERACTION
 32: 0x0233 [0x29] REQ_SET_WAIT(priority=0x09, entity_id=Ripapa (ID: 17797224/0x010F9068), tag_num=0x1A)
 33: 0x023A [0x4A] Ripapa (ID: 17797224/0x010F9068) looks at Lacia (ID: 17797225/0x010F9069)
 34: 0x0243 [0x1D] PRINT_EVENT_MESSAGE(message_id=7468*)
    → "That's where you come in. I was thinking of letting one of you adventurers test out the new fork and prove to my colleague that it is able to return data valuable to her research."
 35: 0x0246 [0x23] WAIT_FOR_DIALOG_INTERACTION
 36: 0x0247 [0x6F] WAIT_FRAME_DELAY: Yield until WaitTime reaches zero
 37: 0x0248 [0x76] CHECK_ENTITY_RENDER_FLAGS: Wait until Lacia (ID: 17797225/0x010F9069) Render.Flags0 and Render.Flags3 conditions are met
 38: 0x024D [0x4A] Lacia (ID: 17797225/0x010F9069) looks at Ripapa (ID: 17797224/0x010F9068)
 39: 0x0256 [0x6F] WAIT_FRAME_DELAY: Yield until WaitTime reaches zero
 40: 0x0257 [0x76] CHECK_ENTITY_RENDER_FLAGS: Wait until Ripapa (ID: 17797224/0x010F9068) Render.Flags0 and Render.Flags3 conditions are met
 41: 0x025C [0x29] REQ_SET_WAIT(priority=0x0B, entity_id=Ripapa (ID: 17797224/0x010F9068), tag_num=0x38)
 42: 0x0263 [0x6E] EventEntity uses emote 6*
 43: 0x026A [0x99] Wait for EventEntity animation to complete
 44: 0x026F [0x1D] PRINT_EVENT_MESSAGE(message_id=7472*)
    → "... Yes, but ma'am... The Rhinostery has been pressing us to produce results. If we do not take some sort of action quickly..."
 45: 0x0272 [0x23] WAIT_FOR_DIALOG_INTERACTION
 46: 0x0273 [0x6F] WAIT_FRAME_DELAY: Yield until WaitTime reaches zero
 47: 0x0274 [0x76] CHECK_ENTITY_RENDER_FLAGS: Wait until Lacia (ID: 17797225/0x010F9069) Render.Flags0 and Render.Flags3 conditions are met
 48: 0x0279 [0x4A] Ripapa (ID: 17797224/0x010F9068) looks at Lacia (ID: 17797225/0x010F9069)
 49: 0x0282 [0x6F] WAIT_FRAME_DELAY: Yield until WaitTime reaches zero
 50: 0x0283 [0x76] CHECK_ENTITY_RENDER_FLAGS: Wait until Ripapa (ID: 17797224/0x010F9068) Render.Flags0 and Render.Flags3 conditions are met
 51: 0x0288 [0x29] REQ_SET_WAIT(priority=0x0B, entity_id=Ripapa (ID: 17797224/0x010F9068), tag_num=0x39)
 52: 0x028F [0x79] Lacia (ID: 17797225/0x010F9069) looks at Ripapa (ID: 17797224/0x010F9068) (Basic look)
 53: 0x0299 [0x29] REQ_SET_WAIT(priority=0x09, entity_id=Ripapa (ID: 17797224/0x010F9068), tag_num=0x05)
 54: 0x02A0 [0x1D] PRINT_EVENT_MESSAGE(message_id=7474*)
    → "No, one round could not hurt."
 55: 0x02A3 [0x23] WAIT_FOR_DIALOG_INTERACTION
 56: 0x02A4 [0x29] REQ_SET_WAIT(priority=0x09, entity_id=Ripapa (ID: 17797224/0x010F9068), tag_num=0x06)
 57: 0x02AB [0x02] IF !(Work_Zone[7] == 1*) GOTO 0x02D8
 58: 0x02B3 [0x4A] Ripapa (ID: 17797224/0x010F9068) looks at LocalPlayer
 59: 0x02BC [0x6F] WAIT_FRAME_DELAY: Yield until WaitTime reaches zero
 60: 0x02BD [0x76] CHECK_ENTITY_RENDER_FLAGS: Wait until Ripapa (ID: 17797224/0x010F9068) Render.Flags0 and Render.Flags3 conditions are met
 61: 0x02C2 [0x29] REQ_SET_WAIT(priority=0x09, entity_id=Ripapa (ID: 17797224/0x010F9068), tag_num=0x01)
 62: 0x02C9 [0x2B] Ripapa (ID: 17797224/0x010F9068) [7475*]:
    → "You know that you probably won't gain anything from this battle-waddle. Are you sure you still want the fork?"
 63: 0x02D0 [0x23] WAIT_FOR_DIALOG_INTERACTION
 64: 0x02D1 [0x29] REQ_SET_WAIT(priority=0x09, entity_id=Ripapa (ID: 17797224/0x010F9068), tag_num=0x02)
 65: 0x02D8 [0x79] Ripapa (ID: 17797224/0x010F9068) looks at LocalPlayer (Basic look)
 66: 0x02E2 [0x24] CREATE_DIALOG(message_id=7476*, default_option=0*, option_flags=0*)
    → "Are you really-dilly sure? [Fork me!/On second thought...]"
 67: 0x02E9 [0x25] WAIT_DIALOG_SELECT()
 68: 0x02EA [0x02] IF !(Work_Zone[0] == 0*) GOTO 0x0336
 69: 0x02F2 [0x42] SET_CLI_EVENT_CANCEL_DATA()
 70: 0x02F3 [0x03] Work_Zone[1] = 1*
 71: 0x02F8 [0x79] Lacia (ID: 17797225/0x010F9069) looks at LocalPlayer (Basic look)
 72: 0x0302 [0x4A] Ripapa (ID: 17797224/0x010F9068) looks at LocalPlayer
 73: 0x030B [0x6F] WAIT_FRAME_DELAY: Yield until WaitTime reaches zero
 74: 0x030C [0x76] CHECK_ENTITY_RENDER_FLAGS: Wait until Ripapa (ID: 17797224/0x010F9068) Render.Flags0 and Render.Flags3 conditions are met
 75: 0x0311 [0x29] REQ_SET_WAIT(priority=0x0B, entity_id=Ripapa (ID: 17797224/0x010F9068), tag_num=0x3A)
 76: 0x0318 [0x4A] Lacia (ID: 17797225/0x010F9069) looks at LocalPlayer
 77: 0x0321 [0x79] Ripapa (ID: 17797224/0x010F9068) looks at Lacia (ID: 17797225/0x010F9069) (Basic look)
 78: 0x032B [0x1D] PRINT_EVENT_MESSAGE(message_id=7479*)
    → "The researcher who made the $1 warned that "the door home would only open to those who defeated the prime avatar.""
 79: 0x032E [0x23] WAIT_FOR_DIALOG_INTERACTION
 80: 0x032F [0x1D] PRINT_EVENT_MESSAGE(message_id=7480*)
    → "I'm not quite sure what that is supposed to mean, but I suggest that you prepare well before taking on this journey. Remember, you have to be at least a level $3 summoner."
 81: 0x0332 [0x23] WAIT_FOR_DIALOG_INTERACTION
 82: 0x0333 [0x01] GOTO 0x0346
 83: 0x0336 [0x02] IF !(Work_Zone[0] == 1*) GOTO 0x0346
 84: 0x033E [0x03] Work_Zone[1] = 2*
 85: 0x0343 [0x01] GOTO 0x0346

SUBROUTINE_0346:
 86: 0x0346 [0x20] SET_CLI_EVENT_UC_FLAG: Unlock player control
 87: 0x0348 [0x21] END_EVENT
 88: 0x0349 [0x00] END_REQSTACK()
```

### Event 10026

#### Metadata

| Field        | Value     |
|--------------|-----------|
| Entrypoint   | 0x034A    |
| Data Size    | 180 bytes |
| Instructions | 41        |

```
      00 01 02 03 04 05 06 07  08 09 0A 0B 0C 0D 0E 0F
      -- -- -- -- -- -- -- --  -- -- -- -- -- -- -- --
0340:                                1E F0 FF FF 7F 4A            .....J
0350: 68 90 0F 01 F0 FF FF 7F  6F 70 1D 28 80 23 1D 29  h.......op.(.#.)
0360: 80 23 24 2A 80 0D 80 06  10 25 02 00 10 0D 80 00  .#$*.....%......
0370: EA 03 42 03 01 10 05 80  4A 69 90 0F 01 68 90 0F  ..B.....Ji...h..
0380: 01 6F 76 69 90 0F 01 6E  F8 FF FF 7F 05 80 99 F8  .ovi...n........
0390: FF FF 7F 1D 2B 80 23 6F  76 68 90 0F 01 6E 68 90  ....+.#ovh...nh.
03A0: 0F 01 1A 80 99 68 90 0F  01 2B 68 90 0F 01 2C 80  .....h...+h...,.
03B0: 23 73 2D 80 68 90 0F 01  F0 FF FF 7F 1C 2E 80 2B  #s-.h..........+
03C0: 68 90 0F 01 2F 80 23 4A  69 90 0F 01 F0 FF FF 7F  h.../.#Ji.......
03D0: 1C 16 80 45 16 80 F8 FF  FF 7F F8 FF FF 7F 66 64  ...E..........fd
03E0: 6F 32 0D 80 1C 30 80 01  FA 03 02 00 10 27 80 00  o2...0.......'..
03F0: FA 03 03 01 10 31 80 01  FA 03 20 00 21 00        .....1.... .!.  
```

#### Opcodes

```
  0: 0x034A [0x1E] EventEntity looks at LocalPlayer and starts talking
  1: 0x034F [0x4A] Ripapa (ID: 17797224/0x010F9068) looks at LocalPlayer
  2: 0x0358 [0x6F] WAIT_FRAME_DELAY: Yield until WaitTime reaches zero
  3: 0x0359 [0x70] WAIT_ENTITY_RENDER_FLAG: Wait while EventEntity->Render.Flags3 bit 2 is set (cancel turn if not)
  4: 0x035A [0x1D] PRINT_EVENT_MESSAGE(message_id=7481*)
    → "Are you and Carbuncle ready to fight the prime avatar as a level $3 summoner?"
  5: 0x035D [0x23] WAIT_FOR_DIALOG_INTERACTION
  6: 0x035E [0x1D] PRINT_EVENT_MESSAGE(message_id=7482*)
    → "Also, regardless of whether you defeat the avatar or not, you will be unable to re-enter the protocrystal again for a number of days."
  7: 0x0361 [0x23] WAIT_FOR_DIALOG_INTERACTION
  8: 0x0362 [0x24] CREATE_DIALOG(message_id=7483*, default_option=0*, option_flags=Work_Zone[6])
    → "Are you sure you are ready? [Off to [Ifrit's Cauldron/the Quicksand Caves/the Den of Rancor/Cape Teriggan/Fei'Yin/the Boyahda Tree]!/My dog ate my mini tuning fork./Not just yet...]"
  9: 0x0369 [0x25] WAIT_DIALOG_SELECT()
 10: 0x036A [0x02] IF !(Work_Zone[0] == 0*) GOTO 0x03EA
 11: 0x0372 [0x42] SET_CLI_EVENT_CANCEL_DATA()
 12: 0x0373 [0x03] Work_Zone[1] = 1*
 13: 0x0378 [0x4A] Lacia (ID: 17797225/0x010F9069) looks at Ripapa (ID: 17797224/0x010F9068)
 14: 0x0381 [0x6F] WAIT_FRAME_DELAY: Yield until WaitTime reaches zero
 15: 0x0382 [0x76] CHECK_ENTITY_RENDER_FLAGS: Wait until Lacia (ID: 17797225/0x010F9069) Render.Flags0 and Render.Flags3 conditions are met
 16: 0x0387 [0x6E] EventEntity uses emote 1*
 17: 0x038E [0x99] Wait for EventEntity animation to complete
 18: 0x0393 [0x1D] PRINT_EVENT_MESSAGE(message_id=7484*)
    → "Ma'am, our adventurer has completed [his/her] preparations and requests a warp."
 19: 0x0396 [0x23] WAIT_FOR_DIALOG_INTERACTION
 20: 0x0397 [0x6F] WAIT_FRAME_DELAY: Yield until WaitTime reaches zero
 21: 0x0398 [0x76] CHECK_ENTITY_RENDER_FLAGS: Wait until Ripapa (ID: 17797224/0x010F9068) Render.Flags0 and Render.Flags3 conditions are met
 22: 0x039D [0x6E] Ripapa (ID: 17797224/0x010F9068) uses emote 7*
 23: 0x03A4 [0x99] Wait for Ripapa (ID: 17797224/0x010F9068) animation to complete
 24: 0x03A9 [0x2B] Ripapa (ID: 17797224/0x010F9068) [7485*]:
    → "... Alacazimzam-scooby-dooby... ..."
 25: 0x03B0 [0x23] WAIT_FOR_DIALOG_INTERACTION
 26: 0x03B1 [0x73] Ripapa (ID: 17797224/0x010F9068) casts magic 261* on LocalPlayer
 27: 0x03BC [0x1C] WAIT(30* ticks)
 28: 0x03BF [0x2B] Ripapa (ID: 17797224/0x010F9068) [7486*]:
    → "Sha-mone!"
 29: 0x03C6 [0x23] WAIT_FOR_DIALOG_INTERACTION
 30: 0x03C7 [0x4A] Lacia (ID: 17797225/0x010F9069) looks at LocalPlayer
 31: 0x03D0 [0x1C] WAIT(200* ticks)
 32: 0x03D3 [0x45] LOAD_SCHEDULED_TASK: Load scheduler "fdo2" with entities [EventEntity, EventEntity], work=[200*, 0*]
 33: 0x03E4 [0x1C] WAIT(120* ticks)
 34: 0x03E7 [0x01] GOTO 0x03FA
 35: 0x03EA [0x02] IF !(Work_Zone[0] == 2*) GOTO 0x03FA
 36: 0x03F2 [0x03] Work_Zone[1] = 3*
 37: 0x03F7 [0x01] GOTO 0x03FA

SUBROUTINE_03FA:
 38: 0x03FA [0x20] SET_CLI_EVENT_UC_FLAG: Unlock player control
 39: 0x03FC [0x21] END_EVENT
 40: 0x03FD [0x00] END_REQSTACK()
```

### Event 10030

#### Metadata

| Field        | Value     |
|--------------|-----------|
| Entrypoint   | 0x03FE    |
| Data Size    | 114 bytes |
| Instructions | 35        |

```
      00 01 02 03 04 05 06 07  08 09 0A 0B 0C 0D 0E 0F
      -- -- -- -- -- -- -- --  -- -- -- -- -- -- -- --
03F0:                                            1E F0                ..
0400: FF FF 7F 4A 68 90 0F 01  F0 FF FF 7F 6F 70 3E 06  ...Jh.......op>.
0410: 10 0F 80 22 04 03 01 10  0D 80 1D 32 80 23 20 00  ...".......2.# .
0420: 21 00 1D 28 80 23 1D 29  80 23 24 2A 80 0D 80 06  !..(.#.).#$*....
0430: 10 25 02 00 10 0D 80 00  47 04 42 03 01 10 05 80  .%......G.B.....
0440: 1D 33 80 23 01 6C 04 02  00 10 05 80 00 5C 04 42  .3.#.l.......\.B
0450: 03 01 10 27 80 1D 34 80  23 01 6C 04 02 00 10 27  ...'..4.#.l....'
0460: 80 00 6C 04 03 01 10 31  80 01 6C 04 20 00 21 00  ..l....1..l. .!.
```

#### Opcodes

```
  0: 0x03FE [0x1E] EventEntity looks at LocalPlayer and starts talking
  1: 0x0403 [0x4A] Ripapa (ID: 17797224/0x010F9068) looks at LocalPlayer
  2: 0x040C [0x6F] WAIT_FRAME_DELAY: Yield until WaitTime reaches zero
  3: 0x040D [0x70] WAIT_ENTITY_RENDER_FLAG: Wait while EventEntity->Render.Flags3 bit 2 is set (cancel turn if not)
  4: 0x040E [0x3E] IF !(Work_Zone[6] bit 5*) GOTO 0x0422
  5: 0x0415 [0x03] Work_Zone[1] = 0*
  6: 0x041A [0x1D] PRINT_EVENT_MESSAGE(message_id=7488*)
    → "If you do not bring the $1 we gave you, my companion cannot warp you to [Ifrit's Cauldron/the Quicksand Caves/the Den of Rancor/Cape Teriggan/Fei'Yin/the Boyahda Tree]."
  7: 0x041D [0x23] WAIT_FOR_DIALOG_INTERACTION
  8: 0x041E [0x20] SET_CLI_EVENT_UC_FLAG: Unlock player control
  9: 0x0420 [0x21] END_EVENT
 10: 0x0421 [0x00] END_REQSTACK()
 11: 0x0422 [0x1D] PRINT_EVENT_MESSAGE(message_id=7481*)
    → "Are you and Carbuncle ready to fight the prime avatar as a level $3 summoner?"
 12: 0x0425 [0x23] WAIT_FOR_DIALOG_INTERACTION
 13: 0x0426 [0x1D] PRINT_EVENT_MESSAGE(message_id=7482*)
    → "Also, regardless of whether you defeat the avatar or not, you will be unable to re-enter the protocrystal again for a number of days."
 14: 0x0429 [0x23] WAIT_FOR_DIALOG_INTERACTION
 15: 0x042A [0x24] CREATE_DIALOG(message_id=7483*, default_option=0*, option_flags=Work_Zone[6])
    → "Are you sure you are ready? [Off to [Ifrit's Cauldron/the Quicksand Caves/the Den of Rancor/Cape Teriggan/Fei'Yin/the Boyahda Tree]!/My dog ate my mini tuning fork./Not just yet...]"
 16: 0x0431 [0x25] WAIT_DIALOG_SELECT()
 17: 0x0432 [0x02] IF !(Work_Zone[0] == 0*) GOTO 0x0447
 18: 0x043A [0x42] SET_CLI_EVENT_CANCEL_DATA()
 19: 0x043B [0x03] Work_Zone[1] = 1*
 20: 0x0440 [0x1D] PRINT_EVENT_MESSAGE(message_id=7489*)
    → "Did you remember to bring the $1?"
 21: 0x0443 [0x23] WAIT_FOR_DIALOG_INTERACTION
 22: 0x0444 [0x01] GOTO 0x046C
 23: 0x0447 [0x02] IF !(Work_Zone[0] == 1*) GOTO 0x045C
 24: 0x044F [0x42] SET_CLI_EVENT_CANCEL_DATA()
 25: 0x0450 [0x03] Work_Zone[1] = 2*
 26: 0x0455 [0x1D] PRINT_EVENT_MESSAGE(message_id=7487*)
    → "Don't use that excuse on me, [young man/young lady]. If you want another $1, all you have to do ask."
 27: 0x0458 [0x23] WAIT_FOR_DIALOG_INTERACTION
 28: 0x0459 [0x01] GOTO 0x046C
 29: 0x045C [0x02] IF !(Work_Zone[0] == 2*) GOTO 0x046C
 30: 0x0464 [0x03] Work_Zone[1] = 3*
 31: 0x0469 [0x01] GOTO 0x046C

SUBROUTINE_046C:
 32: 0x046C [0x20] SET_CLI_EVENT_UC_FLAG: Unlock player control
 33: 0x046E [0x21] END_EVENT
 34: 0x046F [0x00] END_REQSTACK()
```

### Event 10027

#### Metadata

| Field        | Value    |
|--------------|----------|
| Entrypoint   | 0x0470   |
| Data Size    | 15 bytes |
| Instructions | 8        |

```
      00 01 02 03 04 05 06 07  08 09 0A 0B 0C 0D 0E 0F
      -- -- -- -- -- -- -- --  -- -- -- -- -- -- -- --
0470: 1E F0 FF FF 7F 6F 70 1D  28 80 23 20 00 21 00     .....op.(.# .!. 
```

#### Opcodes

```
  0: 0x0470 [0x1E] EventEntity looks at LocalPlayer and starts talking
  1: 0x0475 [0x6F] WAIT_FRAME_DELAY: Yield until WaitTime reaches zero
  2: 0x0476 [0x70] WAIT_ENTITY_RENDER_FLAG: Wait while EventEntity->Render.Flags3 bit 2 is set (cancel turn if not)
  3: 0x0477 [0x1D] PRINT_EVENT_MESSAGE(message_id=7481*)
    → "Are you and Carbuncle ready to fight the prime avatar as a level $3 summoner?"
  4: 0x047A [0x23] WAIT_FOR_DIALOG_INTERACTION
  5: 0x047B [0x20] SET_CLI_EVENT_UC_FLAG: Unlock player control
  6: 0x047D [0x21] END_EVENT
  7: 0x047E [0x00] END_REQSTACK()
```

### Event 10031

#### Metadata

| Field        | Value    |
|--------------|----------|
| Entrypoint   | 0x047F   |
| Data Size    | 19 bytes |
| Instructions | 10       |

```
      00 01 02 03 04 05 06 07  08 09 0A 0B 0C 0D 0E 0F
      -- -- -- -- -- -- -- --  -- -- -- -- -- -- -- --
0470:                                               1E                 .
0480: F0 FF FF 7F 6F 70 1D 35  80 23 1D 36 80 23 20 00  ....op.5.#.6.# .
0490: 21 00                                             !.              
```

#### Opcodes

```
  0: 0x047F [0x1E] EventEntity looks at LocalPlayer and starts talking
  1: 0x0484 [0x6F] WAIT_FRAME_DELAY: Yield until WaitTime reaches zero
  2: 0x0485 [0x70] WAIT_ENTITY_RENDER_FLAG: Wait while EventEntity->Render.Flags3 bit 2 is set (cancel turn if not)
  3: 0x0486 [0x1D] PRINT_EVENT_MESSAGE(message_id=7505*)
    → "Ah, you are back. How was your battle with the avatar?"
  4: 0x0489 [0x23] WAIT_FOR_DIALOG_INTERACTION
  5: 0x048A [0x1D] PRINT_EVENT_MESSAGE(message_id=7506*)
    → "Remember, the protocrystals will only resonate with the tuning forks ever so often. Use this time to rest before taking upon another challenge."
  6: 0x048D [0x23] WAIT_FOR_DIALOG_INTERACTION
  7: 0x048E [0x20] SET_CLI_EVENT_UC_FLAG: Unlock player control
  8: 0x0490 [0x21] END_EVENT
  9: 0x0491 [0x00] END_REQSTACK()
```

### Event 10028

#### Metadata

| Field        | Value    |
|--------------|----------|
| Entrypoint   | 0x0492   |
| Data Size    | 75 bytes |
| Instructions | 23       |

```
      00 01 02 03 04 05 06 07  08 09 0A 0B 0C 0D 0E 0F
      -- -- -- -- -- -- -- --  -- -- -- -- -- -- -- --
0490:       79 00 68 90 0F 01  F0 FF FF 7F 1E F0 FF FF    y.h...........
04A0: 7F 6F 70 1D 37 80 23 4A  68 90 0F 01 F8 FF FF 7F  .op.7.#Jh.......
04B0: 1E 68 90 0F 01 1D 38 80  23 6F 70 29 0B 68 90 0F  .h....8.#op).h..
04C0: 01 3E 1D 39 80 23 1D 3A  80 23 6E 68 90 0F 01 3B  .>.9.#.:.#nh...;
04D0: 80 99 68 90 0F 01 1C 3C  80 20 00 21 00           ..h....<. .!.   
```

#### Opcodes

```
  0: 0x0492 [0x79] Ripapa (ID: 17797224/0x010F9068) looks at LocalPlayer (Basic look)
  1: 0x049C [0x1E] EventEntity looks at LocalPlayer and starts talking
  2: 0x04A1 [0x6F] WAIT_FRAME_DELAY: Yield until WaitTime reaches zero
  3: 0x04A2 [0x70] WAIT_ENTITY_RENDER_FLAG: Wait while EventEntity->Render.Flags3 bit 2 is set (cancel turn if not)
  4: 0x04A3 [0x1D] PRINT_EVENT_MESSAGE(message_id=7490*)
    → "What!? You defeated the prime avatar!?"
  5: 0x04A6 [0x23] WAIT_FOR_DIALOG_INTERACTION
  6: 0x04A7 [0x4A] Ripapa (ID: 17797224/0x010F9068) looks at EventEntity
  7: 0x04B0 [0x1E] EventEntity looks at Ripapa (ID: 17797224/0x010F9068) and starts talking
  8: 0x04B5 [0x1D] PRINT_EVENT_MESSAGE(message_id=7491*)
    → "Ma'am!"
  9: 0x04B8 [0x23] WAIT_FOR_DIALOG_INTERACTION
 10: 0x04B9 [0x6F] WAIT_FRAME_DELAY: Yield until WaitTime reaches zero
 11: 0x04BA [0x70] WAIT_ENTITY_RENDER_FLAG: Wait while EventEntity->Render.Flags3 bit 2 is set (cancel turn if not)
 12: 0x04BB [0x29] REQ_SET_WAIT(priority=0x0B, entity_id=Ripapa (ID: 17797224/0x010F9068), tag_num=0x3E)
 13: 0x04C2 [0x1D] PRINT_EVENT_MESSAGE(message_id=7493*)
    → "... Ma'am..."
 14: 0x04C5 [0x23] WAIT_FOR_DIALOG_INTERACTION
 15: 0x04C6 [0x1D] PRINT_EVENT_MESSAGE(message_id=7494*)
    → "... (Now if I could only find me some real work so I could do some real adventuring...)"
 16: 0x04C9 [0x23] WAIT_FOR_DIALOG_INTERACTION
 17: 0x04CA [0x6E] Ripapa (ID: 17797224/0x010F9068) uses emote 21*
 18: 0x04D1 [0x99] Wait for Ripapa (ID: 17797224/0x010F9068) animation to complete
 19: 0x04D6 [0x1C] WAIT(80* ticks)
 20: 0x04D9 [0x20] SET_CLI_EVENT_UC_FLAG: Unlock player control
 21: 0x04DB [0x21] END_EVENT
 22: 0x04DC [0x00] END_REQSTACK()
```

### Event 10029

#### Metadata

| Field        | Value    |
|--------------|----------|
| Entrypoint   | 0x04DD   |
| Data Size    | 98 bytes |
| Instructions | 24       |

```
      00 01 02 03 04 05 06 07  08 09 0A 0B 0C 0D 0E 0F
      -- -- -- -- -- -- -- --  -- -- -- -- -- -- -- --
04D0:                                         1E F0 FF               ...
04E0: FF 7F 4A 68 90 0F 01 F0  FF FF 7F 6F 76 68 90 0F  ..Jh.......ovh..
04F0: 01 6F 70 29 0B 68 90 0F  01 40 6E F8 FF FF 7F 1A  .op).h...@n.....
0500: 80 99 F8 FF FF 7F 1D 3D  80 23 02 06 10 0D 80 00  .......=.#......
0510: 3B 05 24 3E 80 0D 80 0D  80 25 02 00 10 0D 80 00  ;.$>.....%......
0520: 2B 05 42 03 01 10 05 80  01 3B 05 02 00 10 05 80  +.B......;......
0530: 00 3B 05 03 01 10 27 80  01 3B 05 20 00 21 00     .;....'..;. .!. 
```

#### Opcodes

```
  0: 0x04DD [0x1E] EventEntity looks at LocalPlayer and starts talking
  1: 0x04E2 [0x4A] Ripapa (ID: 17797224/0x010F9068) looks at LocalPlayer
  2: 0x04EB [0x6F] WAIT_FRAME_DELAY: Yield until WaitTime reaches zero
  3: 0x04EC [0x76] CHECK_ENTITY_RENDER_FLAGS: Wait until Ripapa (ID: 17797224/0x010F9068) Render.Flags0 and Render.Flags3 conditions are met
  4: 0x04F1 [0x6F] WAIT_FRAME_DELAY: Yield until WaitTime reaches zero
  5: 0x04F2 [0x70] WAIT_ENTITY_RENDER_FLAG: Wait while EventEntity->Render.Flags3 bit 2 is set (cancel turn if not)
  6: 0x04F3 [0x29] REQ_SET_WAIT(priority=0x0B, entity_id=Ripapa (ID: 17797224/0x010F9068), tag_num=0x40)
  7: 0x04FA [0x6E] EventEntity uses emote 7*
  8: 0x0501 [0x99] Wait for EventEntity animation to complete
  9: 0x0506 [0x1D] PRINT_EVENT_MESSAGE(message_id=7496*)
    → "Remember that you must fight the prime avatar as a level $3 summoner. As you already know, this will not be an easy task. Prepare well for the battle."
 10: 0x0509 [0x23] WAIT_FOR_DIALOG_INTERACTION
 11: 0x050A [0x02] IF !(Work_Zone[6] == 0*) GOTO 0x053B
 12: 0x0512 [0x24] CREATE_DIALOG(message_id=7497*, default_option=0*, option_flags=0*)
    → "Do you want another mini tuning fork? [Fork me baby, one more time./Stick a fork in me, I'm done.]"
 13: 0x0519 [0x25] WAIT_DIALOG_SELECT()
 14: 0x051A [0x02] IF !(Work_Zone[0] == 0*) GOTO 0x052B
 15: 0x0522 [0x42] SET_CLI_EVENT_CANCEL_DATA()
 16: 0x0523 [0x03] Work_Zone[1] = 1*
 17: 0x0528 [0x01] GOTO 0x053B
 18: 0x052B [0x02] IF !(Work_Zone[0] == 1*) GOTO 0x053B
 19: 0x0533 [0x03] Work_Zone[1] = 2*
 20: 0x0538 [0x01] GOTO 0x053B

SUBROUTINE_053B:
 21: 0x053B [0x20] SET_CLI_EVENT_UC_FLAG: Unlock player control
 22: 0x053D [0x21] END_EVENT
 23: 0x053E [0x00] END_REQSTACK()
```
