# 17797129 - Rycharde

## Common Data

| Field            | Value            |
|------------------|------------------|
| Zone             | Mhaura (ID: 249) |
| Block Size       | 2804 bytes       |
| Total Events     | 30               |
| References Count | 92               |

## List of Events

| Event ID              | Entrypoint   |   Size |   Instructions |
|-----------------------|--------------|--------|----------------|
| [65535](#event-65535) | 0x0000       |      1 |              1 |
| [69](#event-69)       | 0x0001       |     28 |              8 |
| [70](#event-70)       | 0x001D       |    146 |             28 |
| [71](#event-71)       | 0x00AF       |    111 |             23 |
| [72](#event-72)       | 0x011E       |     28 |              8 |
| [73](#event-73)       | 0x013A       |     28 |              8 |
| [74](#event-74)       | 0x0156       |     92 |             19 |
| [75](#event-75)       | 0x01B2       |     28 |              8 |
| [76](#event-76)       | 0x01CE       |    115 |             25 |
| [78](#event-78)       | 0x0241       |     28 |              8 |
| [79](#event-79)       | 0x025D       |     28 |              8 |
| [80](#event-80)       | 0x0279       |     53 |             12 |
| [81](#event-81)       | 0x02AE       |     92 |             19 |
| [82](#event-82)       | 0x030A       |    154 |             32 |
| [84](#event-84)       | 0x03A4       |    111 |             23 |
| [85](#event-85)       | 0x0413       |     28 |              8 |
| [83](#event-83)       | 0x042F       |     88 |             17 |
| [86](#event-86)       | 0x0487       |    152 |             32 |
| [87](#event-87)       | 0x051F       |     28 |              8 |
| [88](#event-88)       | 0x053B       |    161 |             30 |
| [89](#event-89)       | 0x05DC       |     28 |              8 |
| [90](#event-90)       | 0x05F8       |    189 |             37 |
| [91](#event-91)       | 0x06B5       |    111 |             23 |
| [92](#event-92)       | 0x0724       |     57 |             14 |
| [93](#event-93)       | 0x075D       |     28 |              8 |
| [94](#event-94)       | 0x0779       |    117 |             27 |
| [95](#event-95)       | 0x07EE       |     28 |              8 |
| [96](#event-96)       | 0x080A       |     57 |             14 |
| [97](#event-97)       | 0x0843       |    157 |             34 |
| [98](#event-98)       | 0x08E0       |     28 |              8 |

## DAT References (imed_data)

|   Index | Hex Value   |   Dec Value |
|---------|-------------|-------------|
|       0 | 0x0000      |           0 |
|       1 | 0x1BC2      |        7106 |
|       2 | 0x1ADC      |        6876 |
|       3 | 0x003C      |          60 |
|       4 | 0x1ADD      |        6877 |
|       5 | 0x1BC7      |        7111 |
|       6 | 0x1ADF      |        6879 |
|       7 | 0x0047      |          71 |
|       8 | 0x0001      |           1 |
|       9 | 0x1AE0      |        6880 |
|      10 | 0x0046      |          70 |
|      11 | 0x1AE1      |        6881 |
|      12 | 0x0048      |          72 |
|      13 | 0x1AE2      |        6882 |
|      14 | 0x1AE3      |        6883 |
|      15 | 0x1AE4      |        6884 |
|      16 | 0x1AE5      |        6885 |
|      17 | 0x1AE6      |        6886 |
|      18 | 0x0049      |          73 |
|      19 | 0x00C9      |         201 |
|      20 | 0x1AE7      |        6887 |
|      21 | 0x1AE8      |        6888 |
|      22 | 0x1AE9      |        6889 |
|      23 | 0x1AEA      |        6890 |
|      24 | 0x004A      |          74 |
|      25 | 0x1AEB      |        6891 |
|      26 | 0x1AEC      |        6892 |
|      27 | 0x1AED      |        6893 |
|      28 | 0x1AEE      |        6894 |
|      29 | 0x004B      |          75 |
|      30 | 0x1AEF      |        6895 |
|      31 | 0x1AF0      |        6896 |
|      32 | 0x1AF1      |        6897 |
|      33 | 0x004C      |          76 |
|      34 | 0x1AF2      |        6898 |
|      35 | 0x1AF3      |        6899 |
|      36 | 0x1AF4      |        6900 |
|      37 | 0x1AF5      |        6901 |
|      38 | 0x1AF6      |        6902 |
|      39 | 0x004D      |          77 |
|      40 | 0x1AF7      |        6903 |
|      41 | 0x1AF8      |        6904 |
|      42 | 0x004E      |          78 |
|      43 | 0x1AFB      |        6907 |
|      44 | 0x1AF9      |        6905 |
|      45 | 0x1AFA      |        6906 |
|      46 | 0x004F      |          79 |
|      47 | 0x1AFD      |        6909 |
|      48 | 0x1AFE      |        6910 |
|      49 | 0x1AFF      |        6911 |
|      50 | 0x1B00      |        6912 |
|      51 | 0x1B01      |        6913 |
|      52 | 0x1B02      |        6914 |
|      53 | 0x0050      |          80 |
|      54 | 0x1B03      |        6915 |
|      55 | 0x1B04      |        6916 |
|      56 | 0x1B05      |        6917 |
|      57 | 0x1B06      |        6918 |
|      58 | 0x1B07      |        6919 |
|      59 | 0x1B08      |        6920 |
|      60 | 0x0051      |          81 |
|      61 | 0x1B09      |        6921 |
|      62 | 0x1B13      |        6931 |
|      63 | 0x1B14      |        6932 |
|      64 | 0x1B15      |        6933 |
|      65 | 0x1B16      |        6934 |
|      66 | 0x1B17      |        6935 |
|      67 | 0x1B18      |        6936 |
|      68 | 0x0052      |          82 |
|      69 | 0x1B19      |        6937 |
|      70 | 0x1B1A      |        6938 |
|      71 | 0x0053      |          83 |
|      72 | 0x1B1B      |        6939 |
|      73 | 0x1B1C      |        6940 |
|      74 | 0x0054      |          84 |
|      75 | 0x1B1D      |        6941 |
|      76 | 0x1B1F      |        6943 |
|      77 | 0x1B20      |        6944 |
|      78 | 0x0055      |          85 |
|      79 | 0x1B21      |        6945 |
|      80 | 0x1B22      |        6946 |
|      81 | 0x1B23      |        6947 |
|      82 | 0x0056      |          86 |
|      83 | 0x1B24      |        6948 |
|      84 | 0x1B25      |        6949 |
|      85 | 0x1B26      |        6950 |
|      86 | 0x1B27      |        6951 |
|      87 | 0x1B28      |        6952 |
|      88 | 0x1B29      |        6953 |
|      89 | 0x1B2A      |        6954 |
|      90 | 0x1B2B      |        6955 |
|      91 | 0x0057      |          87 |

## String References

- **6876**: Yeah, I'm Rycharde. Whaddaya want? Miss Take sent you, you say?
- **6877**: Lessee... Bring me $0. I need two of them for this recipe I "cooked up"... Heh-heh, I kill me. So, whaddaya say?
- **6879**: Good! Better hurry up. Time's a-wastin'.
- **6880**: Darn. Well, if you ever change your mind, come talk to me again, all right?
- **6881**: Ready to get back in the kitchen, eh? So, you gonna do it? I need two $0 for my recipe.
- **6882**: How's it going? You're not done yet, huh? Well, you know where to find me. Good luck.
- **6883**: Hey, wait a second! This isn't enough! Come back when you have two, okay?
- **6884**: Oh, goodie! Thanks! Here's something for your trouble.
- **6885**: I've been an apprentice chef for more than three years now, but someday I'll be a first-rate chef!
- **6886**: You're training to become a top-notch adventurer yourself, right? Just come to me if you need more work!
- **6887**: Hey. Thanks for last time. I know I told you I'd give you more work, but I don't really need anything right now. Sorry.
- **6888**: Just the adventurer I was looking for! I have this order to fill, but I'm missing some ingredients.
- **6889**: I need $0 and $1, and I need them delivered within three days. Whaddaya say?
- **6890**: Thanks! Remember, I need them within three days! Good luck!
- **6891**: No go, huh? Too bad, I guess I'll have to ask someone else. Maybe next time, eh?
- **6892**: Go and get those things I asked for, quick! You have $0 [hour/hours] left!
- **6893**: Do you have them? No? C'mon, hurry up!
- **6894**: You got them! They're still fresh, too! Thanks so much! Now I know who to ask when I need something!
- **6895**: Ah...thanks, but when I saw you wouldn't make it, I asked someone else. Well, since you did bring them, though, I'll give you some gil for your efforts.
- **6896**: Let me tell you something about cooking: a dish is only as good as its ingredients. The fresher they are, the better the food.
- **6897**: Just remember that next time, okay?
- **6898**: Hey, long time no see. Remember the last order I got? That was from the governor herself, and she really liked the dish I made for her!
- **6899**: She liked it so much, she said she wants me to prepare all her meals from now on!
- **6900**: I don't want to disappoint her, so I need you to bring me exotic ingredients to practice my cooking skills!
- **6901**: I heard they're pretty hard to get, but I'd like to start with $0. Whaddaya say?
- **6902**: Really? That's great! You can take your time with it, just as long as you bring me one. Good luck!
- **6903**: Yeah, well, I don't blame you. They're not easy to get. Come back, though, if you change your mind.
- **6904**: Back so soon, eh? So, do you think you can find $0 for me?
- **6905**: Wow! You got it! I have to say, I'm really impressed!
- **6906**: Here's your well-deserved reward. Come back in two or three days if you can. I still have some work for you.
- **6907**: So, how's it going? Working hard or hardly working? Take it slow, though. There's no hurry.
- **6909**: There you are! I've managed to make a pretty good dish--if I may say so myself--with the ingredient you brought me last time.
- **6910**: I know I've been giving you tough jobs so far, so this time I'm going to give you an easy one.
- **6911**: All you have to do is take this dish to a man named Valgeir in Selbina. Whaddaya say?
- **6912**: All right! Go to the port and board the transit ship to Selbina. Here, I'll pay for your travel fare in advance.
- **6913**: Oh, when you get back, tell me what Valgeir's reaction was, okay?
- **6914**: What? C'mon, it's just a delivery job! I'll even pay your travel fare! Whaddaya say?
- **6915**: So, how was it? Did he say anything? Oh...you haven't gone yet. Remember, the man's name is Valgeir. Now hurry to Selbina!
- **6916**: So, how was it? Did he say anything?
- **6917**: Tell Rycharde... [Exactly what Valgeir said./That Valgeir didn't say anything.]
- **6918**: He said that!? Damn that old man! Will he never admit that I've become as good as him?
- **6919**: Really? No, I can tell from your face he did say something, and it wasn't anything good. Thanks for being considerate, but I'm okay with it.
- **6920**: Oh...your reward, right. Here. I don't think I'll have any work for you for a while... Thanks for your help, though.
- **6921**: Oh...it's you. Sorry, I don't have any work for you. Give me some time to...recover.
- **6931**: Ah, you're back. Ms. Take told me. I want to thank you.
- **6932**: As for the old man's cooking...it was incredible. I don't think I would ever be able to make anything like that.
- **6933**: But I'm not trying to emulate him. I just want to make him acknowledge my way of cooking, you know? And I need your help to accomplish that.
- **6934**: I'd like you to bring me four $0. These, again, are hard to find.
- **6935**: No deadline. I'll wait until you bring back four of them. So, whaddaya say?
- **6936**: Great! I knew I could count on you! Good luck!
- **6937**: That's all right, I understand. It is pretty hard work. Just don't hesitate to come back if you change your mind.
- **6938**: So, you thought it over? You'll go look for the four $0 for me?
- **6939**: Wow! Thank you! I knew you wouldn't let me down!
- **6940**: Here, take this, you earned it! All right! Now I'll show that old man!
- **6941**: Thanks, but...this isn't enough. Could you come back when you find four of them? Good luck!
- **6943**: Hi! I was waiting for you to come. Rejoice! My new dish is done, and I have a job for you!
- **6944**: I need you to take it to Valgeir again. Whaddaya say, will you do it?
- **6945**: So, how was it? Did he say anything? Oh...you haven't gone yet. I'm sure this time he'll be surprised, so go quick!
- **6946**: Hmm? He sent you back to give this to me? But it's just $1... What does it mean?
- **6947**: Anyway, here, this is your reward. Thanks again.
- **6948**: Hi again. Thanks for last time! I finally got what that $0 meant!
- **6949**: My old man used to make me practice on them when he was teaching me to cook. I would usually mess it up, and he would yell at me for wasting perfectly good $0.
- **6950**: For years, he kept yelling at me for every little mistake I made... So one day I left, promising myself I'd show him I could become a good cook without his help!
- **6951**: But you know, when I was a kid, my mom used to make the best $1.
- **6952**: She wasn't trained like my old man, and she wasn't even using the best utensils...
- **6953**: But Mom's $1 were the best! I loved them!
- **6954**: That's what this reminded me of, and I realized I had forgotten the most important thing about cooking.
- **6955**: I have to get back to the basics. But I'm glad you came along and helped me see my mistake. Thank you!
- **7106**: It's tough getting enough food to feed everyone these days, with all those monsters prowling the areas near the town.
- **7111**: Accept this request? [Yes./No.]

## Events

### Event 65535

#### Metadata

| Field        | Value   |
|--------------|---------|
| Entrypoint   | 0x0000  |
| Data Size    | 1 bytes |
| Instructions | 1       |

```
      00 01 02 03 04 05 06 07  08 09 0A 0B 0C 0D 0E 0F
      -- -- -- -- -- -- -- --  -- -- -- -- -- -- -- --
0000: 00                                                .               
```

#### Opcodes

```
  0: 0x0000 [0x00] END_REQSTACK()
```

### Event 69

#### Metadata

| Field        | Value    |
|--------------|----------|
| Entrypoint   | 0x0001   |
| Data Size    | 28 bytes |
| Instructions | 8        |

```
      00 01 02 03 04 05 06 07  08 09 0A 0B 0C 0D 0E 0F
      -- -- -- -- -- -- -- --  -- -- -- -- -- -- -- --
0000:    1E F0 FF FF 7F 6F 70  66 00 80 F8 FF FF 7F F8   .....opf.......
0010: FF FF 7F 74 68 6B 31 1D  01 80 23 21 00           ...thk1...#!.   
```

#### Opcodes

```
  0: 0x0001 [0x1E] EventEntity looks at LocalPlayer and starts talking
  1: 0x0006 [0x6F] WAIT_FRAME_DELAY: Yield until WaitTime reaches zero
  2: 0x0007 [0x70] WAIT_ENTITY_RENDER_FLAG: Wait while EventEntity->Render.Flags3 bit 2 is set (cancel turn if not)
  3: 0x0008 [0x66] LOAD_EXT_SCHEDULER_MAIN: Load scheduler "thk1" with entities [EventEntity, EventEntity], work=0*
  4: 0x0017 [0x1D] PRINT_EVENT_MESSAGE(message_id=7106*)
    → "It's tough getting enough food to feed everyone these days, with all those monsters prowling the areas near the town."
  5: 0x001A [0x23] WAIT_FOR_DIALOG_INTERACTION
  6: 0x001B [0x21] END_EVENT
  7: 0x001C [0x00] END_REQSTACK()
```

### Event 70

#### Metadata

| Field        | Value     |
|--------------|-----------|
| Entrypoint   | 0x001D    |
| Data Size    | 146 bytes |
| Instructions | 28        |

```
      00 01 02 03 04 05 06 07  08 09 0A 0B 0C 0D 0E 0F
      -- -- -- -- -- -- -- --  -- -- -- -- -- -- -- --
0010:                                         1E F0 FF               ...
0020: FF 7F 6F 70 66 00 80 F8  FF FF 7F F8 FF FF 7F 74  ..opf..........t
0030: 6C 6B 32 1D 02 80 23 53  F8 FF FF 7F F8 FF FF 7F  lk2...#S........
0040: 74 6C 6B 32 1C 03 80 66  00 80 F8 FF FF 7F F8 FF  tlk2...f........
0050: FF 7F 74 68 6B 31 1D 04  80 23 5E 69 64 6C 30 24  ..thk1...#^idl0$
0060: 05 80 00 80 00 80 25 02  00 10 00 80 00 8A 00 66  ......%........f
0070: 00 80 F8 FF FF 7F F8 FF  FF 7F 74 6C 6B 32 1D 06  ..........tlk2..
0080: 80 23 03 01 10 07 80 01  AD 00 02 00 10 08 80 00  .#..............
0090: AD 00 66 00 80 F8 FF FF  7F F8 FF FF 7F 74 6C 6B  ..f..........tlk
00A0: 32 1D 09 80 23 03 01 10  0A 80 01 AD 00 21 00     2...#........!. 
```

#### Opcodes

```
  0: 0x001D [0x1E] EventEntity looks at LocalPlayer and starts talking
  1: 0x0022 [0x6F] WAIT_FRAME_DELAY: Yield until WaitTime reaches zero
  2: 0x0023 [0x70] WAIT_ENTITY_RENDER_FLAG: Wait while EventEntity->Render.Flags3 bit 2 is set (cancel turn if not)
  3: 0x0024 [0x66] LOAD_EXT_SCHEDULER_MAIN: Load scheduler "tlk2" with entities [EventEntity, EventEntity], work=0*
  4: 0x0033 [0x1D] PRINT_EVENT_MESSAGE(message_id=6876*)
    → "Yeah, I'm Rycharde. Whaddaya want? Miss Take sent you, you say?"
  5: 0x0036 [0x23] WAIT_FOR_DIALOG_INTERACTION
  6: 0x0037 [0x53] WAIT_SCHEDULER_TASK: Wait for scheduler "tlk2" with entities [EventEntity, EventEntity]
  7: 0x0044 [0x1C] WAIT(60* ticks)
  8: 0x0047 [0x66] LOAD_EXT_SCHEDULER_MAIN: Load scheduler "thk1" with entities [EventEntity, EventEntity], work=0*
  9: 0x0056 [0x1D] PRINT_EVENT_MESSAGE(message_id=6877*)
    → "Lessee... Bring me $0. I need two of them for this recipe I "cooked up"... Heh-heh, I kill me. So, whaddaya say?"
 10: 0x0059 [0x23] WAIT_FOR_DIALOG_INTERACTION
 11: 0x005A [0x5E] EventEntity goes idle (kills current action) (animation: "idl0")
 12: 0x005F [0x24] CREATE_DIALOG(message_id=7111*, default_option=0*, option_flags=0*)
    → "Accept this request? [Yes./No.]"
 13: 0x0066 [0x25] WAIT_DIALOG_SELECT()
 14: 0x0067 [0x02] IF !(Work_Zone[0] == 0*) GOTO 0x008A
 15: 0x006F [0x66] LOAD_EXT_SCHEDULER_MAIN: Load scheduler "tlk2" with entities [EventEntity, EventEntity], work=0*
 16: 0x007E [0x1D] PRINT_EVENT_MESSAGE(message_id=6879*)
    → "Good! Better hurry up. Time's a-wastin'."
 17: 0x0081 [0x23] WAIT_FOR_DIALOG_INTERACTION
 18: 0x0082 [0x03] Work_Zone[1] = 71*
 19: 0x0087 [0x01] GOTO 0x00AD
 20: 0x008A [0x02] IF !(Work_Zone[0] == 1*) GOTO 0x00AD
 21: 0x0092 [0x66] LOAD_EXT_SCHEDULER_MAIN: Load scheduler "tlk2" with entities [EventEntity, EventEntity], work=0*
 22: 0x00A1 [0x1D] PRINT_EVENT_MESSAGE(message_id=6880*)
    → "Darn. Well, if you ever change your mind, come talk to me again, all right?"
 23: 0x00A4 [0x23] WAIT_FOR_DIALOG_INTERACTION
 24: 0x00A5 [0x03] Work_Zone[1] = 70*
 25: 0x00AA [0x01] GOTO 0x00AD

SUBROUTINE_00AD:
 26: 0x00AD [0x21] END_EVENT
 27: 0x00AE [0x00] END_REQSTACK()
```

### Event 71

#### Metadata

| Field        | Value     |
|--------------|-----------|
| Entrypoint   | 0x00AF    |
| Data Size    | 111 bytes |
| Instructions | 23        |

```
      00 01 02 03 04 05 06 07  08 09 0A 0B 0C 0D 0E 0F
      -- -- -- -- -- -- -- --  -- -- -- -- -- -- -- --
00A0:                                               1E                 .
00B0: F0 FF FF 7F 6F 70 66 00  80 F8 FF FF 7F F8 FF FF  ....opf.........
00C0: 7F 74 6C 6B 32 1D 0B 80  23 5E 69 64 6C 30 24 05  .tlk2...#^idl0$.
00D0: 80 00 80 00 80 25 02 00  10 00 80 00 F9 00 66 00  .....%........f.
00E0: 80 F8 FF FF 7F F8 FF FF  7F 74 6C 6B 30 1D 06 80  .........tlk0...
00F0: 23 03 01 10 0C 80 01 1C  01 02 00 10 08 80 00 1C  #...............
0100: 01 66 00 80 F8 FF FF 7F  F8 FF FF 7F 74 6C 6B 32  .f..........tlk2
0110: 1D 09 80 23 03 01 10 0A  80 01 1C 01 21 00        ...#........!.  
```

#### Opcodes

```
  0: 0x00AF [0x1E] EventEntity looks at LocalPlayer and starts talking
  1: 0x00B4 [0x6F] WAIT_FRAME_DELAY: Yield until WaitTime reaches zero
  2: 0x00B5 [0x70] WAIT_ENTITY_RENDER_FLAG: Wait while EventEntity->Render.Flags3 bit 2 is set (cancel turn if not)
  3: 0x00B6 [0x66] LOAD_EXT_SCHEDULER_MAIN: Load scheduler "tlk2" with entities [EventEntity, EventEntity], work=0*
  4: 0x00C5 [0x1D] PRINT_EVENT_MESSAGE(message_id=6881*)
    → "Ready to get back in the kitchen, eh? So, you gonna do it? I need two $0 for my recipe."
  5: 0x00C8 [0x23] WAIT_FOR_DIALOG_INTERACTION
  6: 0x00C9 [0x5E] EventEntity goes idle (kills current action) (animation: "idl0")
  7: 0x00CE [0x24] CREATE_DIALOG(message_id=7111*, default_option=0*, option_flags=0*)
    → "Accept this request? [Yes./No.]"
  8: 0x00D5 [0x25] WAIT_DIALOG_SELECT()
  9: 0x00D6 [0x02] IF !(Work_Zone[0] == 0*) GOTO 0x00F9
 10: 0x00DE [0x66] LOAD_EXT_SCHEDULER_MAIN: Load scheduler "tlk0" with entities [EventEntity, EventEntity], work=0*
 11: 0x00ED [0x1D] PRINT_EVENT_MESSAGE(message_id=6879*)
    → "Good! Better hurry up. Time's a-wastin'."
 12: 0x00F0 [0x23] WAIT_FOR_DIALOG_INTERACTION
 13: 0x00F1 [0x03] Work_Zone[1] = 72*
 14: 0x00F6 [0x01] GOTO 0x011C
 15: 0x00F9 [0x02] IF !(Work_Zone[0] == 1*) GOTO 0x011C
 16: 0x0101 [0x66] LOAD_EXT_SCHEDULER_MAIN: Load scheduler "tlk2" with entities [EventEntity, EventEntity], work=0*
 17: 0x0110 [0x1D] PRINT_EVENT_MESSAGE(message_id=6880*)
    → "Darn. Well, if you ever change your mind, come talk to me again, all right?"
 18: 0x0113 [0x23] WAIT_FOR_DIALOG_INTERACTION
 19: 0x0114 [0x03] Work_Zone[1] = 70*
 20: 0x0119 [0x01] GOTO 0x011C

SUBROUTINE_011C:
 21: 0x011C [0x21] END_EVENT
 22: 0x011D [0x00] END_REQSTACK()
```

### Event 72

#### Metadata

| Field        | Value    |
|--------------|----------|
| Entrypoint   | 0x011E   |
| Data Size    | 28 bytes |
| Instructions | 8        |

```
      00 01 02 03 04 05 06 07  08 09 0A 0B 0C 0D 0E 0F
      -- -- -- -- -- -- -- --  -- -- -- -- -- -- -- --
0110:                                            1E F0                ..
0120: FF FF 7F 6F 70 66 00 80  F8 FF FF 7F F8 FF FF 7F  ...opf..........
0130: 74 6C 6B 32 1D 0D 80 23  21 00                    tlk2...#!.      
```

#### Opcodes

```
  0: 0x011E [0x1E] EventEntity looks at LocalPlayer and starts talking
  1: 0x0123 [0x6F] WAIT_FRAME_DELAY: Yield until WaitTime reaches zero
  2: 0x0124 [0x70] WAIT_ENTITY_RENDER_FLAG: Wait while EventEntity->Render.Flags3 bit 2 is set (cancel turn if not)
  3: 0x0125 [0x66] LOAD_EXT_SCHEDULER_MAIN: Load scheduler "tlk2" with entities [EventEntity, EventEntity], work=0*
  4: 0x0134 [0x1D] PRINT_EVENT_MESSAGE(message_id=6882*)
    → "How's it going? You're not done yet, huh? Well, you know where to find me. Good luck."
  5: 0x0137 [0x23] WAIT_FOR_DIALOG_INTERACTION
  6: 0x0138 [0x21] END_EVENT
  7: 0x0139 [0x00] END_REQSTACK()
```

### Event 73

#### Metadata

| Field        | Value    |
|--------------|----------|
| Entrypoint   | 0x013A   |
| Data Size    | 28 bytes |
| Instructions | 8        |

```
      00 01 02 03 04 05 06 07  08 09 0A 0B 0C 0D 0E 0F
      -- -- -- -- -- -- -- --  -- -- -- -- -- -- -- --
0130:                                1E F0 FF FF 7F 6F            .....o
0140: 70 66 00 80 F8 FF FF 7F  F8 FF FF 7F 74 6C 6B 31  pf..........tlk1
0150: 1D 0E 80 23 21 00                                 ...#!.          
```

#### Opcodes

```
  0: 0x013A [0x1E] EventEntity looks at LocalPlayer and starts talking
  1: 0x013F [0x6F] WAIT_FRAME_DELAY: Yield until WaitTime reaches zero
  2: 0x0140 [0x70] WAIT_ENTITY_RENDER_FLAG: Wait while EventEntity->Render.Flags3 bit 2 is set (cancel turn if not)
  3: 0x0141 [0x66] LOAD_EXT_SCHEDULER_MAIN: Load scheduler "tlk1" with entities [EventEntity, EventEntity], work=0*
  4: 0x0150 [0x1D] PRINT_EVENT_MESSAGE(message_id=6883*)
    → "Hey, wait a second! This isn't enough! Come back when you have two, okay?"
  5: 0x0153 [0x23] WAIT_FOR_DIALOG_INTERACTION
  6: 0x0154 [0x21] END_EVENT
  7: 0x0155 [0x00] END_REQSTACK()
```

### Event 74

#### Metadata

| Field        | Value    |
|--------------|----------|
| Entrypoint   | 0x0156   |
| Data Size    | 92 bytes |
| Instructions | 19       |

```
      00 01 02 03 04 05 06 07  08 09 0A 0B 0C 0D 0E 0F
      -- -- -- -- -- -- -- --  -- -- -- -- -- -- -- --
0150:                   20 01  42 1E F0 FF FF 7F 6F 70         .B.....op
0160: 66 00 80 F8 FF FF 7F F8  FF FF 7F 74 6C 6B 32 1D  f..........tlk2.
0170: 0F 80 23 53 F8 FF FF 7F  F8 FF FF 7F 74 6C 6B 32  ..#S........tlk2
0180: 1C 03 80 66 00 80 F8 FF  FF 7F F8 FF FF 7F 74 6C  ...f..........tl
0190: 6B 30 1D 10 80 23 1D 11  80 23 03 01 10 12 80 45  k0...#...#.....E
01A0: 13 80 F0 FF FF 7F F0 FF  FF 7F 71 73 74 63 00 80  ..........qstc..
01B0: 21 00                                             !.              
```

#### Opcodes

```
  0: 0x0156 [0x20] SET_CLI_EVENT_UC_FLAG: Lock player control
  1: 0x0158 [0x42] SET_CLI_EVENT_CANCEL_DATA()
  2: 0x0159 [0x1E] EventEntity looks at LocalPlayer and starts talking
  3: 0x015E [0x6F] WAIT_FRAME_DELAY: Yield until WaitTime reaches zero
  4: 0x015F [0x70] WAIT_ENTITY_RENDER_FLAG: Wait while EventEntity->Render.Flags3 bit 2 is set (cancel turn if not)
  5: 0x0160 [0x66] LOAD_EXT_SCHEDULER_MAIN: Load scheduler "tlk2" with entities [EventEntity, EventEntity], work=0*
  6: 0x016F [0x1D] PRINT_EVENT_MESSAGE(message_id=6884*)
    → "Oh, goodie! Thanks! Here's something for your trouble."
  7: 0x0172 [0x23] WAIT_FOR_DIALOG_INTERACTION
  8: 0x0173 [0x53] WAIT_SCHEDULER_TASK: Wait for scheduler "tlk2" with entities [EventEntity, EventEntity]
  9: 0x0180 [0x1C] WAIT(60* ticks)
 10: 0x0183 [0x66] LOAD_EXT_SCHEDULER_MAIN: Load scheduler "tlk0" with entities [EventEntity, EventEntity], work=0*
 11: 0x0192 [0x1D] PRINT_EVENT_MESSAGE(message_id=6885*)
    → "I've been an apprentice chef for more than three years now, but someday I'll be a first-rate chef!"
 12: 0x0195 [0x23] WAIT_FOR_DIALOG_INTERACTION
 13: 0x0196 [0x1D] PRINT_EVENT_MESSAGE(message_id=6886*)
    → "You're training to become a top-notch adventurer yourself, right? Just come to me if you need more work!"
 14: 0x0199 [0x23] WAIT_FOR_DIALOG_INTERACTION
 15: 0x019A [0x03] Work_Zone[1] = 73*
 16: 0x019F [0x45] LOAD_SCHEDULED_TASK: Load scheduler "qstc" with entities [LocalPlayer, LocalPlayer], work=[201*, 0*]
 17: 0x01B0 [0x21] END_EVENT
 18: 0x01B1 [0x00] END_REQSTACK()
```

### Event 75

#### Metadata

| Field        | Value    |
|--------------|----------|
| Entrypoint   | 0x01B2   |
| Data Size    | 28 bytes |
| Instructions | 8        |

```
      00 01 02 03 04 05 06 07  08 09 0A 0B 0C 0D 0E 0F
      -- -- -- -- -- -- -- --  -- -- -- -- -- -- -- --
01B0:       1E F0 FF FF 7F 6F  70 66 00 80 F8 FF FF 7F    .....opf......
01C0: F8 FF FF 7F 74 6C 6B 30  1D 14 80 23 21 00        ....tlk0...#!.  
```

#### Opcodes

```
  0: 0x01B2 [0x1E] EventEntity looks at LocalPlayer and starts talking
  1: 0x01B7 [0x6F] WAIT_FRAME_DELAY: Yield until WaitTime reaches zero
  2: 0x01B8 [0x70] WAIT_ENTITY_RENDER_FLAG: Wait while EventEntity->Render.Flags3 bit 2 is set (cancel turn if not)
  3: 0x01B9 [0x66] LOAD_EXT_SCHEDULER_MAIN: Load scheduler "tlk0" with entities [EventEntity, EventEntity], work=0*
  4: 0x01C8 [0x1D] PRINT_EVENT_MESSAGE(message_id=6887*)
    → "Hey. Thanks for last time. I know I told you I'd give you more work, but I don't really need anything right now. Sorry."
  5: 0x01CB [0x23] WAIT_FOR_DIALOG_INTERACTION
  6: 0x01CC [0x21] END_EVENT
  7: 0x01CD [0x00] END_REQSTACK()
```

### Event 76

#### Metadata

| Field        | Value     |
|--------------|-----------|
| Entrypoint   | 0x01CE    |
| Data Size    | 115 bytes |
| Instructions | 25        |

```
      00 01 02 03 04 05 06 07  08 09 0A 0B 0C 0D 0E 0F
      -- -- -- -- -- -- -- --  -- -- -- -- -- -- -- --
01C0:                                            1E F0                ..
01D0: FF FF 7F 6F 70 66 00 80  F8 FF FF 7F F8 FF FF 7F  ...opf..........
01E0: 74 6C 6B 32 1D 15 80 23  1D 16 80 23 5E 69 64 6C  tlk2...#...#^idl
01F0: 30 24 05 80 00 80 00 80  25 02 00 10 00 80 00 1C  0$......%.......
0200: 02 66 00 80 F8 FF FF 7F  F8 FF FF 7F 74 6C 6B 30  .f..........tlk0
0210: 1D 17 80 23 03 01 10 18  80 01 3F 02 02 00 10 08  ...#......?.....
0220: 80 00 3F 02 66 00 80 F8  FF FF 7F F8 FF FF 7F 74  ..?.f..........t
0230: 6C 6B 31 1D 19 80 23 03  01 10 0A 80 01 3F 02 21  lk1...#......?.!
0240: 00                                                .               
```

#### Opcodes

```
  0: 0x01CE [0x1E] EventEntity looks at LocalPlayer and starts talking
  1: 0x01D3 [0x6F] WAIT_FRAME_DELAY: Yield until WaitTime reaches zero
  2: 0x01D4 [0x70] WAIT_ENTITY_RENDER_FLAG: Wait while EventEntity->Render.Flags3 bit 2 is set (cancel turn if not)
  3: 0x01D5 [0x66] LOAD_EXT_SCHEDULER_MAIN: Load scheduler "tlk2" with entities [EventEntity, EventEntity], work=0*
  4: 0x01E4 [0x1D] PRINT_EVENT_MESSAGE(message_id=6888*)
    → "Just the adventurer I was looking for! I have this order to fill, but I'm missing some ingredients."
  5: 0x01E7 [0x23] WAIT_FOR_DIALOG_INTERACTION
  6: 0x01E8 [0x1D] PRINT_EVENT_MESSAGE(message_id=6889*)
    → "I need $0 and $1, and I need them delivered within three days. Whaddaya say?"
  7: 0x01EB [0x23] WAIT_FOR_DIALOG_INTERACTION
  8: 0x01EC [0x5E] EventEntity goes idle (kills current action) (animation: "idl0")
  9: 0x01F1 [0x24] CREATE_DIALOG(message_id=7111*, default_option=0*, option_flags=0*)
    → "Accept this request? [Yes./No.]"
 10: 0x01F8 [0x25] WAIT_DIALOG_SELECT()
 11: 0x01F9 [0x02] IF !(Work_Zone[0] == 0*) GOTO 0x021C
 12: 0x0201 [0x66] LOAD_EXT_SCHEDULER_MAIN: Load scheduler "tlk0" with entities [EventEntity, EventEntity], work=0*
 13: 0x0210 [0x1D] PRINT_EVENT_MESSAGE(message_id=6890*)
    → "Thanks! Remember, I need them within three days! Good luck!"
 14: 0x0213 [0x23] WAIT_FOR_DIALOG_INTERACTION
 15: 0x0214 [0x03] Work_Zone[1] = 74*
 16: 0x0219 [0x01] GOTO 0x023F
 17: 0x021C [0x02] IF !(Work_Zone[0] == 1*) GOTO 0x023F
 18: 0x0224 [0x66] LOAD_EXT_SCHEDULER_MAIN: Load scheduler "tlk1" with entities [EventEntity, EventEntity], work=0*
 19: 0x0233 [0x1D] PRINT_EVENT_MESSAGE(message_id=6891*)
    → "No go, huh? Too bad, I guess I'll have to ask someone else. Maybe next time, eh?"
 20: 0x0236 [0x23] WAIT_FOR_DIALOG_INTERACTION
 21: 0x0237 [0x03] Work_Zone[1] = 70*
 22: 0x023C [0x01] GOTO 0x023F

SUBROUTINE_023F:
 23: 0x023F [0x21] END_EVENT
 24: 0x0240 [0x00] END_REQSTACK()
```

### Event 78

#### Metadata

| Field        | Value    |
|--------------|----------|
| Entrypoint   | 0x0241   |
| Data Size    | 28 bytes |
| Instructions | 8        |

```
      00 01 02 03 04 05 06 07  08 09 0A 0B 0C 0D 0E 0F
      -- -- -- -- -- -- -- --  -- -- -- -- -- -- -- --
0240:    1E F0 FF FF 7F 6F 70  66 00 80 F8 FF FF 7F F8   .....opf.......
0250: FF FF 7F 74 6C 6B 30 1D  1A 80 23 21 00           ...tlk0...#!.   
```

#### Opcodes

```
  0: 0x0241 [0x1E] EventEntity looks at LocalPlayer and starts talking
  1: 0x0246 [0x6F] WAIT_FRAME_DELAY: Yield until WaitTime reaches zero
  2: 0x0247 [0x70] WAIT_ENTITY_RENDER_FLAG: Wait while EventEntity->Render.Flags3 bit 2 is set (cancel turn if not)
  3: 0x0248 [0x66] LOAD_EXT_SCHEDULER_MAIN: Load scheduler "tlk0" with entities [EventEntity, EventEntity], work=0*
  4: 0x0257 [0x1D] PRINT_EVENT_MESSAGE(message_id=6892*)
    → "Go and get those things I asked for, quick! You have $0 [hour/hours] left!"
  5: 0x025A [0x23] WAIT_FOR_DIALOG_INTERACTION
  6: 0x025B [0x21] END_EVENT
  7: 0x025C [0x00] END_REQSTACK()
```

### Event 79

#### Metadata

| Field        | Value    |
|--------------|----------|
| Entrypoint   | 0x025D   |
| Data Size    | 28 bytes |
| Instructions | 8        |

```
      00 01 02 03 04 05 06 07  08 09 0A 0B 0C 0D 0E 0F
      -- -- -- -- -- -- -- --  -- -- -- -- -- -- -- --
0250:                                         1E F0 FF               ...
0260: FF 7F 6F 70 66 00 80 F8  FF FF 7F F8 FF FF 7F 74  ..opf..........t
0270: 6C 6B 31 1D 1B 80 23 21  00                       lk1...#!.       
```

#### Opcodes

```
  0: 0x025D [0x1E] EventEntity looks at LocalPlayer and starts talking
  1: 0x0262 [0x6F] WAIT_FRAME_DELAY: Yield until WaitTime reaches zero
  2: 0x0263 [0x70] WAIT_ENTITY_RENDER_FLAG: Wait while EventEntity->Render.Flags3 bit 2 is set (cancel turn if not)
  3: 0x0264 [0x66] LOAD_EXT_SCHEDULER_MAIN: Load scheduler "tlk1" with entities [EventEntity, EventEntity], work=0*
  4: 0x0273 [0x1D] PRINT_EVENT_MESSAGE(message_id=6893*)
    → "Do you have them? No? C'mon, hurry up!"
  5: 0x0276 [0x23] WAIT_FOR_DIALOG_INTERACTION
  6: 0x0277 [0x21] END_EVENT
  7: 0x0278 [0x00] END_REQSTACK()
```

### Event 80

#### Metadata

| Field        | Value    |
|--------------|----------|
| Entrypoint   | 0x0279   |
| Data Size    | 53 bytes |
| Instructions | 12       |

```
      00 01 02 03 04 05 06 07  08 09 0A 0B 0C 0D 0E 0F
      -- -- -- -- -- -- -- --  -- -- -- -- -- -- -- --
0270:                             20 01 42 1E F0 FF FF            .B....
0280: 7F 6F 70 66 00 80 F8 FF  FF 7F F8 FF FF 7F 74 6C  .opf..........tl
0290: 6B 30 1D 1C 80 23 03 01  10 1D 80 45 13 80 F0 FF  k0...#.....E....
02A0: FF 7F F0 FF FF 7F 71 73  74 63 00 80 21 00        ......qstc..!.  
```

#### Opcodes

```
  0: 0x0279 [0x20] SET_CLI_EVENT_UC_FLAG: Lock player control
  1: 0x027B [0x42] SET_CLI_EVENT_CANCEL_DATA()
  2: 0x027C [0x1E] EventEntity looks at LocalPlayer and starts talking
  3: 0x0281 [0x6F] WAIT_FRAME_DELAY: Yield until WaitTime reaches zero
  4: 0x0282 [0x70] WAIT_ENTITY_RENDER_FLAG: Wait while EventEntity->Render.Flags3 bit 2 is set (cancel turn if not)
  5: 0x0283 [0x66] LOAD_EXT_SCHEDULER_MAIN: Load scheduler "tlk0" with entities [EventEntity, EventEntity], work=0*
  6: 0x0292 [0x1D] PRINT_EVENT_MESSAGE(message_id=6894*)
    → "You got them! They're still fresh, too! Thanks so much! Now I know who to ask when I need something!"
  7: 0x0295 [0x23] WAIT_FOR_DIALOG_INTERACTION
  8: 0x0296 [0x03] Work_Zone[1] = 75*
  9: 0x029B [0x45] LOAD_SCHEDULED_TASK: Load scheduler "qstc" with entities [LocalPlayer, LocalPlayer], work=[201*, 0*]
 10: 0x02AC [0x21] END_EVENT
 11: 0x02AD [0x00] END_REQSTACK()
```

### Event 81

#### Metadata

| Field        | Value    |
|--------------|----------|
| Entrypoint   | 0x02AE   |
| Data Size    | 92 bytes |
| Instructions | 19       |

```
      00 01 02 03 04 05 06 07  08 09 0A 0B 0C 0D 0E 0F
      -- -- -- -- -- -- -- --  -- -- -- -- -- -- -- --
02A0:                                            20 01                 .
02B0: 42 1E F0 FF FF 7F 6F 70  66 00 80 F8 FF FF 7F F8  B.....opf.......
02C0: FF FF 7F 74 6C 6B 32 1D  1E 80 23 53 F8 FF FF 7F  ...tlk2...#S....
02D0: F8 FF FF 7F 74 6C 6B 32  1C 03 80 66 00 80 F8 FF  ....tlk2...f....
02E0: FF 7F F8 FF FF 7F 74 6C  6B 31 1D 1F 80 23 1D 20  ......tlk1...#. 
02F0: 80 23 03 01 10 21 80 45  13 80 F0 FF FF 7F F0 FF  .#...!.E........
0300: FF 7F 71 73 74 63 00 80  21 00                    ..qstc..!.      
```

#### Opcodes

```
  0: 0x02AE [0x20] SET_CLI_EVENT_UC_FLAG: Lock player control
  1: 0x02B0 [0x42] SET_CLI_EVENT_CANCEL_DATA()
  2: 0x02B1 [0x1E] EventEntity looks at LocalPlayer and starts talking
  3: 0x02B6 [0x6F] WAIT_FRAME_DELAY: Yield until WaitTime reaches zero
  4: 0x02B7 [0x70] WAIT_ENTITY_RENDER_FLAG: Wait while EventEntity->Render.Flags3 bit 2 is set (cancel turn if not)
  5: 0x02B8 [0x66] LOAD_EXT_SCHEDULER_MAIN: Load scheduler "tlk2" with entities [EventEntity, EventEntity], work=0*
  6: 0x02C7 [0x1D] PRINT_EVENT_MESSAGE(message_id=6895*)
    → "Ah...thanks, but when I saw you wouldn't make it, I asked someone else. Well, since you did bring them, though, I'll give you some gil for your efforts."
  7: 0x02CA [0x23] WAIT_FOR_DIALOG_INTERACTION
  8: 0x02CB [0x53] WAIT_SCHEDULER_TASK: Wait for scheduler "tlk2" with entities [EventEntity, EventEntity]
  9: 0x02D8 [0x1C] WAIT(60* ticks)
 10: 0x02DB [0x66] LOAD_EXT_SCHEDULER_MAIN: Load scheduler "tlk1" with entities [EventEntity, EventEntity], work=0*
 11: 0x02EA [0x1D] PRINT_EVENT_MESSAGE(message_id=6896*)
    → "Let me tell you something about cooking: a dish is only as good as its ingredients. The fresher they are, the better the food."
 12: 0x02ED [0x23] WAIT_FOR_DIALOG_INTERACTION
 13: 0x02EE [0x1D] PRINT_EVENT_MESSAGE(message_id=6897*)
    → "Just remember that next time, okay?"
 14: 0x02F1 [0x23] WAIT_FOR_DIALOG_INTERACTION
 15: 0x02F2 [0x03] Work_Zone[1] = 76*
 16: 0x02F7 [0x45] LOAD_SCHEDULED_TASK: Load scheduler "qstc" with entities [LocalPlayer, LocalPlayer], work=[201*, 0*]
 17: 0x0308 [0x21] END_EVENT
 18: 0x0309 [0x00] END_REQSTACK()
```

### Event 82

#### Metadata

| Field        | Value     |
|--------------|-----------|
| Entrypoint   | 0x030A    |
| Data Size    | 154 bytes |
| Instructions | 32        |

```
      00 01 02 03 04 05 06 07  08 09 0A 0B 0C 0D 0E 0F
      -- -- -- -- -- -- -- --  -- -- -- -- -- -- -- --
0300:                                1E F0 FF FF 7F 6F            .....o
0310: 70 66 00 80 F8 FF FF 7F  F8 FF FF 7F 74 6C 6B 32  pf..........tlk2
0320: 1D 22 80 23 1D 23 80 23  53 F8 FF FF 7F F8 FF FF  .".#.#.#S.......
0330: 7F 74 6C 6B 32 1C 03 80  66 00 80 F8 FF FF 7F F8  .tlk2...f.......
0340: FF FF 7F 74 6C 6B 30 1D  24 80 23 1D 25 80 23 5E  ...tlk0.$.#.%.#^
0350: 69 64 6C 30 24 05 80 00  80 00 80 25 02 00 10 00  idl0$......%....
0360: 80 00 7F 03 66 00 80 F8  FF FF 7F F8 FF FF 7F 74  ....f..........t
0370: 6C 6B 31 1D 26 80 23 03  01 10 27 80 01 A2 03 02  lk1.&.#...'.....
0380: 00 10 08 80 00 A2 03 66  00 80 F8 FF FF 7F F8 FF  .......f........
0390: FF 7F 74 6C 6B 30 1D 28  80 23 03 01 10 0A 80 01  ..tlk0.(.#......
03A0: A2 03 21 00                                       ..!.            
```

#### Opcodes

```
  0: 0x030A [0x1E] EventEntity looks at LocalPlayer and starts talking
  1: 0x030F [0x6F] WAIT_FRAME_DELAY: Yield until WaitTime reaches zero
  2: 0x0310 [0x70] WAIT_ENTITY_RENDER_FLAG: Wait while EventEntity->Render.Flags3 bit 2 is set (cancel turn if not)
  3: 0x0311 [0x66] LOAD_EXT_SCHEDULER_MAIN: Load scheduler "tlk2" with entities [EventEntity, EventEntity], work=0*
  4: 0x0320 [0x1D] PRINT_EVENT_MESSAGE(message_id=6898*)
    → "Hey, long time no see. Remember the last order I got? That was from the governor herself, and she really liked the dish I made for her!"
  5: 0x0323 [0x23] WAIT_FOR_DIALOG_INTERACTION
  6: 0x0324 [0x1D] PRINT_EVENT_MESSAGE(message_id=6899*)
    → "She liked it so much, she said she wants me to prepare all her meals from now on!"
  7: 0x0327 [0x23] WAIT_FOR_DIALOG_INTERACTION
  8: 0x0328 [0x53] WAIT_SCHEDULER_TASK: Wait for scheduler "tlk2" with entities [EventEntity, EventEntity]
  9: 0x0335 [0x1C] WAIT(60* ticks)
 10: 0x0338 [0x66] LOAD_EXT_SCHEDULER_MAIN: Load scheduler "tlk0" with entities [EventEntity, EventEntity], work=0*
 11: 0x0347 [0x1D] PRINT_EVENT_MESSAGE(message_id=6900*)
    → "I don't want to disappoint her, so I need you to bring me exotic ingredients to practice my cooking skills!"
 12: 0x034A [0x23] WAIT_FOR_DIALOG_INTERACTION
 13: 0x034B [0x1D] PRINT_EVENT_MESSAGE(message_id=6901*)
    → "I heard they're pretty hard to get, but I'd like to start with $0. Whaddaya say?"
 14: 0x034E [0x23] WAIT_FOR_DIALOG_INTERACTION
 15: 0x034F [0x5E] EventEntity goes idle (kills current action) (animation: "idl0")
 16: 0x0354 [0x24] CREATE_DIALOG(message_id=7111*, default_option=0*, option_flags=0*)
    → "Accept this request? [Yes./No.]"
 17: 0x035B [0x25] WAIT_DIALOG_SELECT()
 18: 0x035C [0x02] IF !(Work_Zone[0] == 0*) GOTO 0x037F
 19: 0x0364 [0x66] LOAD_EXT_SCHEDULER_MAIN: Load scheduler "tlk1" with entities [EventEntity, EventEntity], work=0*
 20: 0x0373 [0x1D] PRINT_EVENT_MESSAGE(message_id=6902*)
    → "Really? That's great! You can take your time with it, just as long as you bring me one. Good luck!"
 21: 0x0376 [0x23] WAIT_FOR_DIALOG_INTERACTION
 22: 0x0377 [0x03] Work_Zone[1] = 77*
 23: 0x037C [0x01] GOTO 0x03A2
 24: 0x037F [0x02] IF !(Work_Zone[0] == 1*) GOTO 0x03A2
 25: 0x0387 [0x66] LOAD_EXT_SCHEDULER_MAIN: Load scheduler "tlk0" with entities [EventEntity, EventEntity], work=0*
 26: 0x0396 [0x1D] PRINT_EVENT_MESSAGE(message_id=6903*)
    → "Yeah, well, I don't blame you. They're not easy to get. Come back, though, if you change your mind."
 27: 0x0399 [0x23] WAIT_FOR_DIALOG_INTERACTION
 28: 0x039A [0x03] Work_Zone[1] = 70*
 29: 0x039F [0x01] GOTO 0x03A2

SUBROUTINE_03A2:
 30: 0x03A2 [0x21] END_EVENT
 31: 0x03A3 [0x00] END_REQSTACK()
```

### Event 84

#### Metadata

| Field        | Value     |
|--------------|-----------|
| Entrypoint   | 0x03A4    |
| Data Size    | 111 bytes |
| Instructions | 23        |

```
      00 01 02 03 04 05 06 07  08 09 0A 0B 0C 0D 0E 0F
      -- -- -- -- -- -- -- --  -- -- -- -- -- -- -- --
03A0:             1E F0 FF FF  7F 6F 70 66 00 80 F8 FF      .....opf....
03B0: FF 7F F8 FF FF 7F 74 6C  6B 32 1D 29 80 23 5E 69  ......tlk2.).#^i
03C0: 64 6C 30 24 05 80 00 80  00 80 25 02 00 10 00 80  dl0$......%.....
03D0: 00 EE 03 66 00 80 F8 FF  FF 7F F8 FF FF 7F 74 6C  ...f..........tl
03E0: 6B 31 1D 26 80 23 03 01  10 2A 80 01 11 04 02 00  k1.&.#...*......
03F0: 10 08 80 00 11 04 66 00  80 F8 FF FF 7F F8 FF FF  ......f.........
0400: 7F 74 6C 6B 30 1D 28 80  23 03 01 10 0A 80 01 11  .tlk0.(.#.......
0410: 04 21 00                                          .!.             
```

#### Opcodes

```
  0: 0x03A4 [0x1E] EventEntity looks at LocalPlayer and starts talking
  1: 0x03A9 [0x6F] WAIT_FRAME_DELAY: Yield until WaitTime reaches zero
  2: 0x03AA [0x70] WAIT_ENTITY_RENDER_FLAG: Wait while EventEntity->Render.Flags3 bit 2 is set (cancel turn if not)
  3: 0x03AB [0x66] LOAD_EXT_SCHEDULER_MAIN: Load scheduler "tlk2" with entities [EventEntity, EventEntity], work=0*
  4: 0x03BA [0x1D] PRINT_EVENT_MESSAGE(message_id=6904*)
    → "Back so soon, eh? So, do you think you can find $0 for me?"
  5: 0x03BD [0x23] WAIT_FOR_DIALOG_INTERACTION
  6: 0x03BE [0x5E] EventEntity goes idle (kills current action) (animation: "idl0")
  7: 0x03C3 [0x24] CREATE_DIALOG(message_id=7111*, default_option=0*, option_flags=0*)
    → "Accept this request? [Yes./No.]"
  8: 0x03CA [0x25] WAIT_DIALOG_SELECT()
  9: 0x03CB [0x02] IF !(Work_Zone[0] == 0*) GOTO 0x03EE
 10: 0x03D3 [0x66] LOAD_EXT_SCHEDULER_MAIN: Load scheduler "tlk1" with entities [EventEntity, EventEntity], work=0*
 11: 0x03E2 [0x1D] PRINT_EVENT_MESSAGE(message_id=6902*)
    → "Really? That's great! You can take your time with it, just as long as you bring me one. Good luck!"
 12: 0x03E5 [0x23] WAIT_FOR_DIALOG_INTERACTION
 13: 0x03E6 [0x03] Work_Zone[1] = 78*
 14: 0x03EB [0x01] GOTO 0x0411
 15: 0x03EE [0x02] IF !(Work_Zone[0] == 1*) GOTO 0x0411
 16: 0x03F6 [0x66] LOAD_EXT_SCHEDULER_MAIN: Load scheduler "tlk0" with entities [EventEntity, EventEntity], work=0*
 17: 0x0405 [0x1D] PRINT_EVENT_MESSAGE(message_id=6903*)
    → "Yeah, well, I don't blame you. They're not easy to get. Come back, though, if you change your mind."
 18: 0x0408 [0x23] WAIT_FOR_DIALOG_INTERACTION
 19: 0x0409 [0x03] Work_Zone[1] = 70*
 20: 0x040E [0x01] GOTO 0x0411

SUBROUTINE_0411:
 21: 0x0411 [0x21] END_EVENT
 22: 0x0412 [0x00] END_REQSTACK()
```

### Event 85

#### Metadata

| Field        | Value    |
|--------------|----------|
| Entrypoint   | 0x0413   |
| Data Size    | 28 bytes |
| Instructions | 8        |

```
      00 01 02 03 04 05 06 07  08 09 0A 0B 0C 0D 0E 0F
      -- -- -- -- -- -- -- --  -- -- -- -- -- -- -- --
0410:          1E F0 FF FF 7F  6F 70 66 00 80 F8 FF FF     .....opf.....
0420: 7F F8 FF FF 7F 74 6C 6B  32 1D 2B 80 23 21 00     .....tlk2.+.#!. 
```

#### Opcodes

```
  0: 0x0413 [0x1E] EventEntity looks at LocalPlayer and starts talking
  1: 0x0418 [0x6F] WAIT_FRAME_DELAY: Yield until WaitTime reaches zero
  2: 0x0419 [0x70] WAIT_ENTITY_RENDER_FLAG: Wait while EventEntity->Render.Flags3 bit 2 is set (cancel turn if not)
  3: 0x041A [0x66] LOAD_EXT_SCHEDULER_MAIN: Load scheduler "tlk2" with entities [EventEntity, EventEntity], work=0*
  4: 0x0429 [0x1D] PRINT_EVENT_MESSAGE(message_id=6907*)
    → "So, how's it going? Working hard or hardly working? Take it slow, though. There's no hurry."
  5: 0x042C [0x23] WAIT_FOR_DIALOG_INTERACTION
  6: 0x042D [0x21] END_EVENT
  7: 0x042E [0x00] END_REQSTACK()
```

### Event 83

#### Metadata

| Field        | Value    |
|--------------|----------|
| Entrypoint   | 0x042F   |
| Data Size    | 88 bytes |
| Instructions | 17       |

```
      00 01 02 03 04 05 06 07  08 09 0A 0B 0C 0D 0E 0F
      -- -- -- -- -- -- -- --  -- -- -- -- -- -- -- --
0420:                                               20                  
0430: 01 42 1E F0 FF FF 7F 6F  70 66 00 80 F8 FF FF 7F  .B.....opf......
0440: F8 FF FF 7F 74 6C 6B 30  1D 2C 80 23 53 F8 FF FF  ....tlk0.,.#S...
0450: 7F F8 FF FF 7F 74 6C 6B  30 1C 03 80 66 00 80 F8  .....tlk0...f...
0460: FF FF 7F F8 FF FF 7F 74  6C 6B 32 1D 2D 80 23 03  .......tlk2.-.#.
0470: 01 10 2E 80 45 13 80 F0  FF FF 7F F0 FF FF 7F 71  ....E..........q
0480: 73 74 63 00 80 21 00                              stc..!.         
```

#### Opcodes

```
  0: 0x042F [0x20] SET_CLI_EVENT_UC_FLAG: Lock player control
  1: 0x0431 [0x42] SET_CLI_EVENT_CANCEL_DATA()
  2: 0x0432 [0x1E] EventEntity looks at LocalPlayer and starts talking
  3: 0x0437 [0x6F] WAIT_FRAME_DELAY: Yield until WaitTime reaches zero
  4: 0x0438 [0x70] WAIT_ENTITY_RENDER_FLAG: Wait while EventEntity->Render.Flags3 bit 2 is set (cancel turn if not)
  5: 0x0439 [0x66] LOAD_EXT_SCHEDULER_MAIN: Load scheduler "tlk0" with entities [EventEntity, EventEntity], work=0*
  6: 0x0448 [0x1D] PRINT_EVENT_MESSAGE(message_id=6905*)
    → "Wow! You got it! I have to say, I'm really impressed!"
  7: 0x044B [0x23] WAIT_FOR_DIALOG_INTERACTION
  8: 0x044C [0x53] WAIT_SCHEDULER_TASK: Wait for scheduler "tlk0" with entities [EventEntity, EventEntity]
  9: 0x0459 [0x1C] WAIT(60* ticks)
 10: 0x045C [0x66] LOAD_EXT_SCHEDULER_MAIN: Load scheduler "tlk2" with entities [EventEntity, EventEntity], work=0*
 11: 0x046B [0x1D] PRINT_EVENT_MESSAGE(message_id=6906*)
    → "Here's your well-deserved reward. Come back in two or three days if you can. I still have some work for you."
 12: 0x046E [0x23] WAIT_FOR_DIALOG_INTERACTION
 13: 0x046F [0x03] Work_Zone[1] = 79*
 14: 0x0474 [0x45] LOAD_SCHEDULED_TASK: Load scheduler "qstc" with entities [LocalPlayer, LocalPlayer], work=[201*, 0*]
 15: 0x0485 [0x21] END_EVENT
 16: 0x0486 [0x00] END_REQSTACK()
```

### Event 86

#### Metadata

| Field        | Value     |
|--------------|-----------|
| Entrypoint   | 0x0487    |
| Data Size    | 152 bytes |
| Instructions | 31        |

```
      00 01 02 03 04 05 06 07  08 09 0A 0B 0C 0D 0E 0F
      -- -- -- -- -- -- -- --  -- -- -- -- -- -- -- --
0480:                      1E  F0 FF FF 7F 6F 70 66 00         .....opf.
0490: 80 F8 FF FF 7F F8 FF FF  7F 74 6C 6B 30 1D 2F 80  .........tlk0./.
04A0: 23 53 F8 FF FF 7F F8 FF  FF 7F 74 6C 6B 30 1C 03  #S........tlk0..
04B0: 80 66 00 80 F8 FF FF 7F  F8 FF FF 7F 74 6C 6B 31  .f..........tlk1
04C0: 1D 30 80 23 1D 31 80 23  5E 69 64 6C 30 24 05 80  .0.#.1.#^idl0$..
04D0: 00 80 00 80 25 02 00 10  00 80 00 F7 04 66 00 80  ....%........f..
04E0: F8 FF FF 7F F8 FF FF 7F  74 6C 6B 30 1D 32 80 23  ........tlk0.2.#
04F0: 1D 33 80 23 01 18 05 02  00 10 08 80 00 18 05 66  .3.#...........f
0500: 00 80 F8 FF FF 7F F8 FF  FF 7F 74 6C 6B 31 1D 34  ..........tlk1.4
0510: 80 23 01 C8 04 01 18 05  03 01 10 35 80 21 00     .#.........5.!. 
```

#### Opcodes

```
  0: 0x0487 [0x1E] EventEntity looks at LocalPlayer and starts talking
  1: 0x048C [0x6F] WAIT_FRAME_DELAY: Yield until WaitTime reaches zero
  2: 0x048D [0x70] WAIT_ENTITY_RENDER_FLAG: Wait while EventEntity->Render.Flags3 bit 2 is set (cancel turn if not)
  3: 0x048E [0x66] LOAD_EXT_SCHEDULER_MAIN: Load scheduler "tlk0" with entities [EventEntity, EventEntity], work=0*
  4: 0x049D [0x1D] PRINT_EVENT_MESSAGE(message_id=6909*)
    → "There you are! I've managed to make a pretty good dish--if I may say so myself--with the ingredient you brought me last time."
  5: 0x04A0 [0x23] WAIT_FOR_DIALOG_INTERACTION
  6: 0x04A1 [0x53] WAIT_SCHEDULER_TASK: Wait for scheduler "tlk0" with entities [EventEntity, EventEntity]
  7: 0x04AE [0x1C] WAIT(60* ticks)
  8: 0x04B1 [0x66] LOAD_EXT_SCHEDULER_MAIN: Load scheduler "tlk1" with entities [EventEntity, EventEntity], work=0*
  9: 0x04C0 [0x1D] PRINT_EVENT_MESSAGE(message_id=6910*)
    → "I know I've been giving you tough jobs so far, so this time I'm going to give you an easy one."
 10: 0x04C3 [0x23] WAIT_FOR_DIALOG_INTERACTION
 11: 0x04C4 [0x1D] PRINT_EVENT_MESSAGE(message_id=6911*)
    → "All you have to do is take this dish to a man named Valgeir in Selbina. Whaddaya say?"
 12: 0x04C7 [0x23] WAIT_FOR_DIALOG_INTERACTION
 13: 0x04C8 [0x5E] EventEntity goes idle (kills current action) (animation: "idl0")
 14: 0x04CD [0x24] CREATE_DIALOG(message_id=7111*, default_option=0*, option_flags=0*)
    → "Accept this request? [Yes./No.]"
 15: 0x04D4 [0x25] WAIT_DIALOG_SELECT()
 16: 0x04D5 [0x02] IF !(Work_Zone[0] == 0*) GOTO 0x04F7
 17: 0x04DD [0x66] LOAD_EXT_SCHEDULER_MAIN: Load scheduler "tlk0" with entities [EventEntity, EventEntity], work=0*
 18: 0x04EC [0x1D] PRINT_EVENT_MESSAGE(message_id=6912*)
    → "All right! Go to the port and board the transit ship to Selbina. Here, I'll pay for your travel fare in advance."
 19: 0x04EF [0x23] WAIT_FOR_DIALOG_INTERACTION
 20: 0x04F0 [0x1D] PRINT_EVENT_MESSAGE(message_id=6913*)
    → "Oh, when you get back, tell me what Valgeir's reaction was, okay?"
 21: 0x04F3 [0x23] WAIT_FOR_DIALOG_INTERACTION
 22: 0x04F4 [0x01] GOTO 0x0518
 23: 0x04F7 [0x02] IF !(Work_Zone[0] == 1*) GOTO 0x0518
 24: 0x04FF [0x66] LOAD_EXT_SCHEDULER_MAIN: Load scheduler "tlk1" with entities [EventEntity, EventEntity], work=0*
 25: 0x050E [0x1D] PRINT_EVENT_MESSAGE(message_id=6914*)
    → "What? C'mon, it's just a delivery job! I'll even pay your travel fare! Whaddaya say?"
 26: 0x0511 [0x23] WAIT_FOR_DIALOG_INTERACTION
 27: 0x0512 [0x01] GOTO 0x04C8

SUBROUTINE_0518:
 28: 0x0518 [0x03] Work_Zone[1] = 80*
 29: 0x051D [0x21] END_EVENT
 30: 0x051E [0x00] END_REQSTACK()
```

#### Data or dead code:

```
# Dead code (unreachable instructions):
     0x0515 [0x01] GOTO 0x0518
```

### Event 87

#### Metadata

| Field        | Value    |
|--------------|----------|
| Entrypoint   | 0x051F   |
| Data Size    | 28 bytes |
| Instructions | 8        |

```
      00 01 02 03 04 05 06 07  08 09 0A 0B 0C 0D 0E 0F
      -- -- -- -- -- -- -- --  -- -- -- -- -- -- -- --
0510:                                               1E                 .
0520: F0 FF FF 7F 6F 70 66 00  80 F8 FF FF 7F F8 FF FF  ....opf.........
0530: 7F 74 6C 6B 30 1D 36 80  23 21 00                 .tlk0.6.#!.     
```

#### Opcodes

```
  0: 0x051F [0x1E] EventEntity looks at LocalPlayer and starts talking
  1: 0x0524 [0x6F] WAIT_FRAME_DELAY: Yield until WaitTime reaches zero
  2: 0x0525 [0x70] WAIT_ENTITY_RENDER_FLAG: Wait while EventEntity->Render.Flags3 bit 2 is set (cancel turn if not)
  3: 0x0526 [0x66] LOAD_EXT_SCHEDULER_MAIN: Load scheduler "tlk0" with entities [EventEntity, EventEntity], work=0*
  4: 0x0535 [0x1D] PRINT_EVENT_MESSAGE(message_id=6915*)
    → "So, how was it? Did he say anything? Oh...you haven't gone yet. Remember, the man's name is Valgeir. Now hurry to Selbina!"
  5: 0x0538 [0x23] WAIT_FOR_DIALOG_INTERACTION
  6: 0x0539 [0x21] END_EVENT
  7: 0x053A [0x00] END_REQSTACK()
```

### Event 88

#### Metadata

| Field        | Value     |
|--------------|-----------|
| Entrypoint   | 0x053B    |
| Data Size    | 161 bytes |
| Instructions | 30        |

```
      00 01 02 03 04 05 06 07  08 09 0A 0B 0C 0D 0E 0F
      -- -- -- -- -- -- -- --  -- -- -- -- -- -- -- --
0530:                                   20 01 42 1E F0              .B..
0540: FF FF 7F 6F 70 66 00 80  F8 FF FF 7F F8 FF FF 7F  ...opf..........
0550: 74 6C 6B 30 1D 37 80 23  5E 69 64 6C 30 24 38 80  tlk0.7.#^idl0$8.
0560: 00 80 00 80 25 02 00 10  00 80 00 83 05 66 00 80  ....%........f..
0570: F8 FF FF 7F F8 FF FF 7F  74 68 6B 31 1D 39 80 23  ........thk1.9.#
0580: 01 A1 05 02 00 10 08 80  00 A1 05 66 00 80 F8 FF  ...........f....
0590: FF 7F F8 FF FF 7F 74 68  6B 31 1D 3A 80 23 01 A1  ......thk1.:.#..
05A0: 05 53 F8 FF FF 7F F8 FF  FF 7F 74 68 6B 31 1C 03  .S........thk1..
05B0: 80 66 00 80 F8 FF FF 7F  F8 FF FF 7F 74 6C 6B 32  .f..........tlk2
05C0: 1D 3B 80 23 03 01 10 3C  80 45 13 80 F0 FF FF 7F  .;.#...<.E......
05D0: F0 FF FF 7F 71 73 74 63  00 80 21 00              ....qstc..!.    
```

#### Opcodes

```
  0: 0x053B [0x20] SET_CLI_EVENT_UC_FLAG: Lock player control
  1: 0x053D [0x42] SET_CLI_EVENT_CANCEL_DATA()
  2: 0x053E [0x1E] EventEntity looks at LocalPlayer and starts talking
  3: 0x0543 [0x6F] WAIT_FRAME_DELAY: Yield until WaitTime reaches zero
  4: 0x0544 [0x70] WAIT_ENTITY_RENDER_FLAG: Wait while EventEntity->Render.Flags3 bit 2 is set (cancel turn if not)
  5: 0x0545 [0x66] LOAD_EXT_SCHEDULER_MAIN: Load scheduler "tlk0" with entities [EventEntity, EventEntity], work=0*
  6: 0x0554 [0x1D] PRINT_EVENT_MESSAGE(message_id=6916*)
    → "So, how was it? Did he say anything?"
  7: 0x0557 [0x23] WAIT_FOR_DIALOG_INTERACTION
  8: 0x0558 [0x5E] EventEntity goes idle (kills current action) (animation: "idl0")
  9: 0x055D [0x24] CREATE_DIALOG(message_id=6917*, default_option=0*, option_flags=0*)
    → "Tell Rycharde... [Exactly what Valgeir said./That Valgeir didn't say anything.]"
 10: 0x0564 [0x25] WAIT_DIALOG_SELECT()
 11: 0x0565 [0x02] IF !(Work_Zone[0] == 0*) GOTO 0x0583
 12: 0x056D [0x66] LOAD_EXT_SCHEDULER_MAIN: Load scheduler "thk1" with entities [EventEntity, EventEntity], work=0*
 13: 0x057C [0x1D] PRINT_EVENT_MESSAGE(message_id=6918*)
    → "He said that!? Damn that old man! Will he never admit that I've become as good as him?"
 14: 0x057F [0x23] WAIT_FOR_DIALOG_INTERACTION
 15: 0x0580 [0x01] GOTO 0x05A1
 16: 0x0583 [0x02] IF !(Work_Zone[0] == 1*) GOTO 0x05A1
 17: 0x058B [0x66] LOAD_EXT_SCHEDULER_MAIN: Load scheduler "thk1" with entities [EventEntity, EventEntity], work=0*
 18: 0x059A [0x1D] PRINT_EVENT_MESSAGE(message_id=6919*)
    → "Really? No, I can tell from your face he did say something, and it wasn't anything good. Thanks for being considerate, but I'm okay with it."
 19: 0x059D [0x23] WAIT_FOR_DIALOG_INTERACTION
 20: 0x059E [0x01] GOTO 0x05A1

SUBROUTINE_05A1:
 21: 0x05A1 [0x53] WAIT_SCHEDULER_TASK: Wait for scheduler "thk1" with entities [EventEntity, EventEntity]
 22: 0x05AE [0x1C] WAIT(60* ticks)
 23: 0x05B1 [0x66] LOAD_EXT_SCHEDULER_MAIN: Load scheduler "tlk2" with entities [EventEntity, EventEntity], work=0*
 24: 0x05C0 [0x1D] PRINT_EVENT_MESSAGE(message_id=6920*)
    → "Oh...your reward, right. Here. I don't think I'll have any work for you for a while... Thanks for your help, though."
 25: 0x05C3 [0x23] WAIT_FOR_DIALOG_INTERACTION
 26: 0x05C4 [0x03] Work_Zone[1] = 81*
 27: 0x05C9 [0x45] LOAD_SCHEDULED_TASK: Load scheduler "qstc" with entities [LocalPlayer, LocalPlayer], work=[201*, 0*]
 28: 0x05DA [0x21] END_EVENT
 29: 0x05DB [0x00] END_REQSTACK()
```

### Event 89

#### Metadata

| Field        | Value    |
|--------------|----------|
| Entrypoint   | 0x05DC   |
| Data Size    | 28 bytes |
| Instructions | 8        |

```
      00 01 02 03 04 05 06 07  08 09 0A 0B 0C 0D 0E 0F
      -- -- -- -- -- -- -- --  -- -- -- -- -- -- -- --
05D0:                                      1E F0 FF FF              ....
05E0: 7F 6F 70 66 00 80 F8 FF  FF 7F F8 FF FF 7F 74 68  .opf..........th
05F0: 6B 31 1D 3D 80 23 21 00                           k1.=.#!.        
```

#### Opcodes

```
  0: 0x05DC [0x1E] EventEntity looks at LocalPlayer and starts talking
  1: 0x05E1 [0x6F] WAIT_FRAME_DELAY: Yield until WaitTime reaches zero
  2: 0x05E2 [0x70] WAIT_ENTITY_RENDER_FLAG: Wait while EventEntity->Render.Flags3 bit 2 is set (cancel turn if not)
  3: 0x05E3 [0x66] LOAD_EXT_SCHEDULER_MAIN: Load scheduler "thk1" with entities [EventEntity, EventEntity], work=0*
  4: 0x05F2 [0x1D] PRINT_EVENT_MESSAGE(message_id=6921*)
    → "Oh...it's you. Sorry, I don't have any work for you. Give me some time to...recover."
  5: 0x05F5 [0x23] WAIT_FOR_DIALOG_INTERACTION
  6: 0x05F6 [0x21] END_EVENT
  7: 0x05F7 [0x00] END_REQSTACK()
```

### Event 90

#### Metadata

| Field        | Value     |
|--------------|-----------|
| Entrypoint   | 0x05F8    |
| Data Size    | 189 bytes |
| Instructions | 37        |

```
      00 01 02 03 04 05 06 07  08 09 0A 0B 0C 0D 0E 0F
      -- -- -- -- -- -- -- --  -- -- -- -- -- -- -- --
05F0:                          1E F0 FF FF 7F 6F 70 66          .....opf
0600: 00 80 F8 FF FF 7F F8 FF  FF 7F 74 6C 6B 32 1D 3E  ..........tlk2.>
0610: 80 23 53 F8 FF FF 7F F8  FF FF 7F 74 6C 6B 32 1C  .#S........tlk2.
0620: 03 80 66 00 80 F8 FF FF  7F F8 FF FF 7F 74 68 6B  ..f..........thk
0630: 31 1D 3F 80 23 1D 40 80  23 53 F8 FF FF 7F F8 FF  1.?.#.@.#S......
0640: FF 7F 74 68 6B 31 1C 03  80 66 00 80 F8 FF FF 7F  ..thk1...f......
0650: F8 FF FF 7F 74 6C 6B 30  1D 41 80 23 1D 42 80 23  ....tlk0.A.#.B.#
0660: 5E 69 64 6C 30 24 05 80  00 80 00 80 25 02 00 10  ^idl0$......%...
0670: 00 80 00 90 06 66 00 80  F8 FF FF 7F F8 FF FF 7F  .....f..........
0680: 74 6C 6B 30 1D 43 80 23  03 01 10 44 80 01 B3 06  tlk0.C.#...D....
0690: 02 00 10 08 80 00 B3 06  66 00 80 F8 FF FF 7F F8  ........f.......
06A0: FF FF 7F 64 69 73 30 1D  45 80 23 03 01 10 0A 80  ...dis0.E.#.....
06B0: 01 B3 06 21 00                                    ...!.           
```

#### Opcodes

```
  0: 0x05F8 [0x1E] EventEntity looks at LocalPlayer and starts talking
  1: 0x05FD [0x6F] WAIT_FRAME_DELAY: Yield until WaitTime reaches zero
  2: 0x05FE [0x70] WAIT_ENTITY_RENDER_FLAG: Wait while EventEntity->Render.Flags3 bit 2 is set (cancel turn if not)
  3: 0x05FF [0x66] LOAD_EXT_SCHEDULER_MAIN: Load scheduler "tlk2" with entities [EventEntity, EventEntity], work=0*
  4: 0x060E [0x1D] PRINT_EVENT_MESSAGE(message_id=6931*)
    → "Ah, you're back. Ms. Take told me. I want to thank you."
  5: 0x0611 [0x23] WAIT_FOR_DIALOG_INTERACTION
  6: 0x0612 [0x53] WAIT_SCHEDULER_TASK: Wait for scheduler "tlk2" with entities [EventEntity, EventEntity]
  7: 0x061F [0x1C] WAIT(60* ticks)
  8: 0x0622 [0x66] LOAD_EXT_SCHEDULER_MAIN: Load scheduler "thk1" with entities [EventEntity, EventEntity], work=0*
  9: 0x0631 [0x1D] PRINT_EVENT_MESSAGE(message_id=6932*)
    → "As for the old man's cooking...it was incredible. I don't think I would ever be able to make anything like that."
 10: 0x0634 [0x23] WAIT_FOR_DIALOG_INTERACTION
 11: 0x0635 [0x1D] PRINT_EVENT_MESSAGE(message_id=6933*)
    → "But I'm not trying to emulate him. I just want to make him acknowledge my way of cooking, you know? And I need your help to accomplish that."
 12: 0x0638 [0x23] WAIT_FOR_DIALOG_INTERACTION
 13: 0x0639 [0x53] WAIT_SCHEDULER_TASK: Wait for scheduler "thk1" with entities [EventEntity, EventEntity]
 14: 0x0646 [0x1C] WAIT(60* ticks)
 15: 0x0649 [0x66] LOAD_EXT_SCHEDULER_MAIN: Load scheduler "tlk0" with entities [EventEntity, EventEntity], work=0*
 16: 0x0658 [0x1D] PRINT_EVENT_MESSAGE(message_id=6934*)
    → "I'd like you to bring me four $0. These, again, are hard to find."
 17: 0x065B [0x23] WAIT_FOR_DIALOG_INTERACTION
 18: 0x065C [0x1D] PRINT_EVENT_MESSAGE(message_id=6935*)
    → "No deadline. I'll wait until you bring back four of them. So, whaddaya say?"
 19: 0x065F [0x23] WAIT_FOR_DIALOG_INTERACTION
 20: 0x0660 [0x5E] EventEntity goes idle (kills current action) (animation: "idl0")
 21: 0x0665 [0x24] CREATE_DIALOG(message_id=7111*, default_option=0*, option_flags=0*)
    → "Accept this request? [Yes./No.]"
 22: 0x066C [0x25] WAIT_DIALOG_SELECT()
 23: 0x066D [0x02] IF !(Work_Zone[0] == 0*) GOTO 0x0690
 24: 0x0675 [0x66] LOAD_EXT_SCHEDULER_MAIN: Load scheduler "tlk0" with entities [EventEntity, EventEntity], work=0*
 25: 0x0684 [0x1D] PRINT_EVENT_MESSAGE(message_id=6936*)
    → "Great! I knew I could count on you! Good luck!"
 26: 0x0687 [0x23] WAIT_FOR_DIALOG_INTERACTION
 27: 0x0688 [0x03] Work_Zone[1] = 82*
 28: 0x068D [0x01] GOTO 0x06B3
 29: 0x0690 [0x02] IF !(Work_Zone[0] == 1*) GOTO 0x06B3
 30: 0x0698 [0x66] LOAD_EXT_SCHEDULER_MAIN: Load scheduler "dis0" with entities [EventEntity, EventEntity], work=0*
 31: 0x06A7 [0x1D] PRINT_EVENT_MESSAGE(message_id=6937*)
    → "That's all right, I understand. It is pretty hard work. Just don't hesitate to come back if you change your mind."
 32: 0x06AA [0x23] WAIT_FOR_DIALOG_INTERACTION
 33: 0x06AB [0x03] Work_Zone[1] = 70*
 34: 0x06B0 [0x01] GOTO 0x06B3

SUBROUTINE_06B3:
 35: 0x06B3 [0x21] END_EVENT
 36: 0x06B4 [0x00] END_REQSTACK()
```

### Event 91

#### Metadata

| Field        | Value     |
|--------------|-----------|
| Entrypoint   | 0x06B5    |
| Data Size    | 111 bytes |
| Instructions | 23        |

```
      00 01 02 03 04 05 06 07  08 09 0A 0B 0C 0D 0E 0F
      -- -- -- -- -- -- -- --  -- -- -- -- -- -- -- --
06B0:                1E F0 FF  FF 7F 6F 70 66 00 80 F8       .....opf...
06C0: FF FF 7F F8 FF FF 7F 74  6C 6B 30 1D 46 80 23 5E  .......tlk0.F.#^
06D0: 69 64 6C 30 24 05 80 00  80 00 80 25 02 00 10 00  idl0$......%....
06E0: 80 00 FF 06 66 00 80 F8  FF FF 7F F8 FF FF 7F 74  ....f..........t
06F0: 6C 6B 30 1D 43 80 23 03  01 10 47 80 01 22 07 02  lk0.C.#...G.."..
0700: 00 10 08 80 00 22 07 66  00 80 F8 FF FF 7F F8 FF  .....".f........
0710: FF 7F 64 69 73 30 1D 45  80 23 03 01 10 0A 80 01  ..dis0.E.#......
0720: 22 07 21 00                                       ".!.            
```

#### Opcodes

```
  0: 0x06B5 [0x1E] EventEntity looks at LocalPlayer and starts talking
  1: 0x06BA [0x6F] WAIT_FRAME_DELAY: Yield until WaitTime reaches zero
  2: 0x06BB [0x70] WAIT_ENTITY_RENDER_FLAG: Wait while EventEntity->Render.Flags3 bit 2 is set (cancel turn if not)
  3: 0x06BC [0x66] LOAD_EXT_SCHEDULER_MAIN: Load scheduler "tlk0" with entities [EventEntity, EventEntity], work=0*
  4: 0x06CB [0x1D] PRINT_EVENT_MESSAGE(message_id=6938*)
    → "So, you thought it over? You'll go look for the four $0 for me?"
  5: 0x06CE [0x23] WAIT_FOR_DIALOG_INTERACTION
  6: 0x06CF [0x5E] EventEntity goes idle (kills current action) (animation: "idl0")
  7: 0x06D4 [0x24] CREATE_DIALOG(message_id=7111*, default_option=0*, option_flags=0*)
    → "Accept this request? [Yes./No.]"
  8: 0x06DB [0x25] WAIT_DIALOG_SELECT()
  9: 0x06DC [0x02] IF !(Work_Zone[0] == 0*) GOTO 0x06FF
 10: 0x06E4 [0x66] LOAD_EXT_SCHEDULER_MAIN: Load scheduler "tlk0" with entities [EventEntity, EventEntity], work=0*
 11: 0x06F3 [0x1D] PRINT_EVENT_MESSAGE(message_id=6936*)
    → "Great! I knew I could count on you! Good luck!"
 12: 0x06F6 [0x23] WAIT_FOR_DIALOG_INTERACTION
 13: 0x06F7 [0x03] Work_Zone[1] = 83*
 14: 0x06FC [0x01] GOTO 0x0722
 15: 0x06FF [0x02] IF !(Work_Zone[0] == 1*) GOTO 0x0722
 16: 0x0707 [0x66] LOAD_EXT_SCHEDULER_MAIN: Load scheduler "dis0" with entities [EventEntity, EventEntity], work=0*
 17: 0x0716 [0x1D] PRINT_EVENT_MESSAGE(message_id=6937*)
    → "That's all right, I understand. It is pretty hard work. Just don't hesitate to come back if you change your mind."
 18: 0x0719 [0x23] WAIT_FOR_DIALOG_INTERACTION
 19: 0x071A [0x03] Work_Zone[1] = 70*
 20: 0x071F [0x01] GOTO 0x0722

SUBROUTINE_0722:
 21: 0x0722 [0x21] END_EVENT
 22: 0x0723 [0x00] END_REQSTACK()
```

### Event 92

#### Metadata

| Field        | Value    |
|--------------|----------|
| Entrypoint   | 0x0724   |
| Data Size    | 57 bytes |
| Instructions | 14       |

```
      00 01 02 03 04 05 06 07  08 09 0A 0B 0C 0D 0E 0F
      -- -- -- -- -- -- -- --  -- -- -- -- -- -- -- --
0720:             20 01 42 1E  F0 FF FF 7F 6F 70 66 00       .B.....opf.
0730: 80 F8 FF FF 7F F8 FF FF  7F 74 6C 6B 30 1D 48 80  .........tlk0.H.
0740: 23 1D 49 80 23 03 01 10  4A 80 45 13 80 F0 FF FF  #.I.#...J.E.....
0750: 7F F0 FF FF 7F 71 73 74  63 00 80 21 00           .....qstc..!.   
```

#### Opcodes

```
  0: 0x0724 [0x20] SET_CLI_EVENT_UC_FLAG: Lock player control
  1: 0x0726 [0x42] SET_CLI_EVENT_CANCEL_DATA()
  2: 0x0727 [0x1E] EventEntity looks at LocalPlayer and starts talking
  3: 0x072C [0x6F] WAIT_FRAME_DELAY: Yield until WaitTime reaches zero
  4: 0x072D [0x70] WAIT_ENTITY_RENDER_FLAG: Wait while EventEntity->Render.Flags3 bit 2 is set (cancel turn if not)
  5: 0x072E [0x66] LOAD_EXT_SCHEDULER_MAIN: Load scheduler "tlk0" with entities [EventEntity, EventEntity], work=0*
  6: 0x073D [0x1D] PRINT_EVENT_MESSAGE(message_id=6939*)
    → "Wow! Thank you! I knew you wouldn't let me down!"
  7: 0x0740 [0x23] WAIT_FOR_DIALOG_INTERACTION
  8: 0x0741 [0x1D] PRINT_EVENT_MESSAGE(message_id=6940*)
    → "Here, take this, you earned it! All right! Now I'll show that old man!"
  9: 0x0744 [0x23] WAIT_FOR_DIALOG_INTERACTION
 10: 0x0745 [0x03] Work_Zone[1] = 84*
 11: 0x074A [0x45] LOAD_SCHEDULED_TASK: Load scheduler "qstc" with entities [LocalPlayer, LocalPlayer], work=[201*, 0*]
 12: 0x075B [0x21] END_EVENT
 13: 0x075C [0x00] END_REQSTACK()
```

### Event 93

#### Metadata

| Field        | Value    |
|--------------|----------|
| Entrypoint   | 0x075D   |
| Data Size    | 28 bytes |
| Instructions | 8        |

```
      00 01 02 03 04 05 06 07  08 09 0A 0B 0C 0D 0E 0F
      -- -- -- -- -- -- -- --  -- -- -- -- -- -- -- --
0750:                                         1E F0 FF               ...
0760: FF 7F 6F 70 66 00 80 F8  FF FF 7F F8 FF FF 7F 74  ..opf..........t
0770: 6C 6B 31 1D 4B 80 23 21  00                       lk1.K.#!.       
```

#### Opcodes

```
  0: 0x075D [0x1E] EventEntity looks at LocalPlayer and starts talking
  1: 0x0762 [0x6F] WAIT_FRAME_DELAY: Yield until WaitTime reaches zero
  2: 0x0763 [0x70] WAIT_ENTITY_RENDER_FLAG: Wait while EventEntity->Render.Flags3 bit 2 is set (cancel turn if not)
  3: 0x0764 [0x66] LOAD_EXT_SCHEDULER_MAIN: Load scheduler "tlk1" with entities [EventEntity, EventEntity], work=0*
  4: 0x0773 [0x1D] PRINT_EVENT_MESSAGE(message_id=6941*)
    → "Thanks, but...this isn't enough. Could you come back when you find four of them? Good luck!"
  5: 0x0776 [0x23] WAIT_FOR_DIALOG_INTERACTION
  6: 0x0777 [0x21] END_EVENT
  7: 0x0778 [0x00] END_REQSTACK()
```

### Event 94

#### Metadata

| Field        | Value     |
|--------------|-----------|
| Entrypoint   | 0x0779    |
| Data Size    | 117 bytes |
| Instructions | 26        |

```
      00 01 02 03 04 05 06 07  08 09 0A 0B 0C 0D 0E 0F
      -- -- -- -- -- -- -- --  -- -- -- -- -- -- -- --
0770:                             1E F0 FF FF 7F 6F 70           .....op
0780: 66 00 80 F8 FF FF 7F F8  FF FF 7F 74 6C 6B 32 1D  f..........tlk2.
0790: 4C 80 23 1D 4D 80 23 5E  69 64 6C 30 24 05 80 00  L.#.M.#^idl0$...
07A0: 80 00 80 25 02 00 10 00  80 00 C6 07 66 00 80 F8  ...%........f...
07B0: FF FF 7F F8 FF FF 7F 74  6C 6B 30 1D 32 80 23 1D  .......tlk0.2.#.
07C0: 33 80 23 01 E7 07 02 00  10 08 80 00 E7 07 66 00  3.#...........f.
07D0: 80 F8 FF FF 7F F8 FF FF  7F 74 6C 6B 31 1D 34 80  .........tlk1.4.
07E0: 23 01 97 07 01 E7 07 03  01 10 4E 80 21 00        #.........N.!.  
```

#### Opcodes

```
  0: 0x0779 [0x1E] EventEntity looks at LocalPlayer and starts talking
  1: 0x077E [0x6F] WAIT_FRAME_DELAY: Yield until WaitTime reaches zero
  2: 0x077F [0x70] WAIT_ENTITY_RENDER_FLAG: Wait while EventEntity->Render.Flags3 bit 2 is set (cancel turn if not)
  3: 0x0780 [0x66] LOAD_EXT_SCHEDULER_MAIN: Load scheduler "tlk2" with entities [EventEntity, EventEntity], work=0*
  4: 0x078F [0x1D] PRINT_EVENT_MESSAGE(message_id=6943*)
    → "Hi! I was waiting for you to come. Rejoice! My new dish is done, and I have a job for you!"
  5: 0x0792 [0x23] WAIT_FOR_DIALOG_INTERACTION
  6: 0x0793 [0x1D] PRINT_EVENT_MESSAGE(message_id=6944*)
    → "I need you to take it to Valgeir again. Whaddaya say, will you do it?"
  7: 0x0796 [0x23] WAIT_FOR_DIALOG_INTERACTION
  8: 0x0797 [0x5E] EventEntity goes idle (kills current action) (animation: "idl0")
  9: 0x079C [0x24] CREATE_DIALOG(message_id=7111*, default_option=0*, option_flags=0*)
    → "Accept this request? [Yes./No.]"
 10: 0x07A3 [0x25] WAIT_DIALOG_SELECT()
 11: 0x07A4 [0x02] IF !(Work_Zone[0] == 0*) GOTO 0x07C6
 12: 0x07AC [0x66] LOAD_EXT_SCHEDULER_MAIN: Load scheduler "tlk0" with entities [EventEntity, EventEntity], work=0*
 13: 0x07BB [0x1D] PRINT_EVENT_MESSAGE(message_id=6912*)
    → "All right! Go to the port and board the transit ship to Selbina. Here, I'll pay for your travel fare in advance."
 14: 0x07BE [0x23] WAIT_FOR_DIALOG_INTERACTION
 15: 0x07BF [0x1D] PRINT_EVENT_MESSAGE(message_id=6913*)
    → "Oh, when you get back, tell me what Valgeir's reaction was, okay?"
 16: 0x07C2 [0x23] WAIT_FOR_DIALOG_INTERACTION
 17: 0x07C3 [0x01] GOTO 0x07E7
 18: 0x07C6 [0x02] IF !(Work_Zone[0] == 1*) GOTO 0x07E7
 19: 0x07CE [0x66] LOAD_EXT_SCHEDULER_MAIN: Load scheduler "tlk1" with entities [EventEntity, EventEntity], work=0*
 20: 0x07DD [0x1D] PRINT_EVENT_MESSAGE(message_id=6914*)
    → "What? C'mon, it's just a delivery job! I'll even pay your travel fare! Whaddaya say?"
 21: 0x07E0 [0x23] WAIT_FOR_DIALOG_INTERACTION
 22: 0x07E1 [0x01] GOTO 0x0797

SUBROUTINE_07E7:
 23: 0x07E7 [0x03] Work_Zone[1] = 85*
 24: 0x07EC [0x21] END_EVENT
 25: 0x07ED [0x00] END_REQSTACK()
```

#### Data or dead code:

```
# Dead code (unreachable instructions):
     0x07E4 [0x01] GOTO 0x07E7
```

### Event 95

#### Metadata

| Field        | Value    |
|--------------|----------|
| Entrypoint   | 0x07EE   |
| Data Size    | 28 bytes |
| Instructions | 8        |

```
      00 01 02 03 04 05 06 07  08 09 0A 0B 0C 0D 0E 0F
      -- -- -- -- -- -- -- --  -- -- -- -- -- -- -- --
07E0:                                            1E F0                ..
07F0: FF FF 7F 6F 70 66 00 80  F8 FF FF 7F F8 FF FF 7F  ...opf..........
0800: 74 6C 6B 32 1D 4F 80 23  21 00                    tlk2.O.#!.      
```

#### Opcodes

```
  0: 0x07EE [0x1E] EventEntity looks at LocalPlayer and starts talking
  1: 0x07F3 [0x6F] WAIT_FRAME_DELAY: Yield until WaitTime reaches zero
  2: 0x07F4 [0x70] WAIT_ENTITY_RENDER_FLAG: Wait while EventEntity->Render.Flags3 bit 2 is set (cancel turn if not)
  3: 0x07F5 [0x66] LOAD_EXT_SCHEDULER_MAIN: Load scheduler "tlk2" with entities [EventEntity, EventEntity], work=0*
  4: 0x0804 [0x1D] PRINT_EVENT_MESSAGE(message_id=6945*)
    → "So, how was it? Did he say anything? Oh...you haven't gone yet. I'm sure this time he'll be surprised, so go quick!"
  5: 0x0807 [0x23] WAIT_FOR_DIALOG_INTERACTION
  6: 0x0808 [0x21] END_EVENT
  7: 0x0809 [0x00] END_REQSTACK()
```

### Event 96

#### Metadata

| Field        | Value    |
|--------------|----------|
| Entrypoint   | 0x080A   |
| Data Size    | 57 bytes |
| Instructions | 14       |

```
      00 01 02 03 04 05 06 07  08 09 0A 0B 0C 0D 0E 0F
      -- -- -- -- -- -- -- --  -- -- -- -- -- -- -- --
0800:                                20 01 42 1E F0 FF             .B...
0810: FF 7F 6F 70 66 00 80 F8  FF FF 7F F8 FF FF 7F 74  ..opf..........t
0820: 6C 6B 32 1D 50 80 23 1D  51 80 23 03 01 10 52 80  lk2.P.#.Q.#...R.
0830: 45 13 80 F0 FF FF 7F F0  FF FF 7F 71 73 74 63 00  E..........qstc.
0840: 80 21 00                                          .!.             
```

#### Opcodes

```
  0: 0x080A [0x20] SET_CLI_EVENT_UC_FLAG: Lock player control
  1: 0x080C [0x42] SET_CLI_EVENT_CANCEL_DATA()
  2: 0x080D [0x1E] EventEntity looks at LocalPlayer and starts talking
  3: 0x0812 [0x6F] WAIT_FRAME_DELAY: Yield until WaitTime reaches zero
  4: 0x0813 [0x70] WAIT_ENTITY_RENDER_FLAG: Wait while EventEntity->Render.Flags3 bit 2 is set (cancel turn if not)
  5: 0x0814 [0x66] LOAD_EXT_SCHEDULER_MAIN: Load scheduler "tlk2" with entities [EventEntity, EventEntity], work=0*
  6: 0x0823 [0x1D] PRINT_EVENT_MESSAGE(message_id=6946*)
    → "Hmm? He sent you back to give this to me? But it's just $1... What does it mean?"
  7: 0x0826 [0x23] WAIT_FOR_DIALOG_INTERACTION
  8: 0x0827 [0x1D] PRINT_EVENT_MESSAGE(message_id=6947*)
    → "Anyway, here, this is your reward. Thanks again."
  9: 0x082A [0x23] WAIT_FOR_DIALOG_INTERACTION
 10: 0x082B [0x03] Work_Zone[1] = 86*
 11: 0x0830 [0x45] LOAD_SCHEDULED_TASK: Load scheduler "qstc" with entities [LocalPlayer, LocalPlayer], work=[201*, 0*]
 12: 0x0841 [0x21] END_EVENT
 13: 0x0842 [0x00] END_REQSTACK()
```

### Event 97

#### Metadata

| Field        | Value     |
|--------------|-----------|
| Entrypoint   | 0x0843    |
| Data Size    | 157 bytes |
| Instructions | 34        |

```
      00 01 02 03 04 05 06 07  08 09 0A 0B 0C 0D 0E 0F
      -- -- -- -- -- -- -- --  -- -- -- -- -- -- -- --
0840:          20 01 42 1E F0  FF FF 7F 6F 70 66 00 80      .B.....opf..
0850: F8 FF FF 7F F8 FF FF 7F  74 6C 6B 32 1D 53 80 23  ........tlk2.S.#
0860: 53 F8 FF FF 7F F8 FF FF  7F 74 6C 6B 32 1C 03 80  S........tlk2...
0870: 66 00 80 F8 FF FF 7F F8  FF FF 7F 74 6C 6B 31 1D  f..........tlk1.
0880: 54 80 23 1D 55 80 23 53  F8 FF FF 7F F8 FF FF 7F  T.#.U.#S........
0890: 74 6C 6B 31 1C 03 80 66  00 80 F8 FF FF 7F F8 FF  tlk1...f........
08A0: FF 7F 74 68 6B 31 1D 56  80 23 1D 57 80 23 1D 58  ..thk1.V.#.W.#.X
08B0: 80 23 53 F8 FF FF 7F F8  FF FF 7F 74 68 6B 31 1C  .#S........thk1.
08C0: 03 80 66 00 80 F8 FF FF  7F F8 FF FF 7F 74 6C 6B  ..f..........tlk
08D0: 30 1D 59 80 23 1D 5A 80  23 03 01 10 5B 80 21 00  0.Y.#.Z.#...[.!.
```

#### Opcodes

```
  0: 0x0843 [0x20] SET_CLI_EVENT_UC_FLAG: Lock player control
  1: 0x0845 [0x42] SET_CLI_EVENT_CANCEL_DATA()
  2: 0x0846 [0x1E] EventEntity looks at LocalPlayer and starts talking
  3: 0x084B [0x6F] WAIT_FRAME_DELAY: Yield until WaitTime reaches zero
  4: 0x084C [0x70] WAIT_ENTITY_RENDER_FLAG: Wait while EventEntity->Render.Flags3 bit 2 is set (cancel turn if not)
  5: 0x084D [0x66] LOAD_EXT_SCHEDULER_MAIN: Load scheduler "tlk2" with entities [EventEntity, EventEntity], work=0*
  6: 0x085C [0x1D] PRINT_EVENT_MESSAGE(message_id=6948*)
    → "Hi again. Thanks for last time! I finally got what that $0 meant!"
  7: 0x085F [0x23] WAIT_FOR_DIALOG_INTERACTION
  8: 0x0860 [0x53] WAIT_SCHEDULER_TASK: Wait for scheduler "tlk2" with entities [EventEntity, EventEntity]
  9: 0x086D [0x1C] WAIT(60* ticks)
 10: 0x0870 [0x66] LOAD_EXT_SCHEDULER_MAIN: Load scheduler "tlk1" with entities [EventEntity, EventEntity], work=0*
 11: 0x087F [0x1D] PRINT_EVENT_MESSAGE(message_id=6949*)
    → "My old man used to make me practice on them when he was teaching me to cook. I would usually mess it up, and he would yell at me for wasting perfectly good $0."
 12: 0x0882 [0x23] WAIT_FOR_DIALOG_INTERACTION
 13: 0x0883 [0x1D] PRINT_EVENT_MESSAGE(message_id=6950*)
    → "For years, he kept yelling at me for every little mistake I made... So one day I left, promising myself I'd show him I could become a good cook without his help!"
 14: 0x0886 [0x23] WAIT_FOR_DIALOG_INTERACTION
 15: 0x0887 [0x53] WAIT_SCHEDULER_TASK: Wait for scheduler "tlk1" with entities [EventEntity, EventEntity]
 16: 0x0894 [0x1C] WAIT(60* ticks)
 17: 0x0897 [0x66] LOAD_EXT_SCHEDULER_MAIN: Load scheduler "thk1" with entities [EventEntity, EventEntity], work=0*
 18: 0x08A6 [0x1D] PRINT_EVENT_MESSAGE(message_id=6951*)
    → "But you know, when I was a kid, my mom used to make the best $1."
 19: 0x08A9 [0x23] WAIT_FOR_DIALOG_INTERACTION
 20: 0x08AA [0x1D] PRINT_EVENT_MESSAGE(message_id=6952*)
    → "She wasn't trained like my old man, and she wasn't even using the best utensils..."
 21: 0x08AD [0x23] WAIT_FOR_DIALOG_INTERACTION
 22: 0x08AE [0x1D] PRINT_EVENT_MESSAGE(message_id=6953*)
    → "But Mom's $1 were the best! I loved them!"
 23: 0x08B1 [0x23] WAIT_FOR_DIALOG_INTERACTION
 24: 0x08B2 [0x53] WAIT_SCHEDULER_TASK: Wait for scheduler "thk1" with entities [EventEntity, EventEntity]
 25: 0x08BF [0x1C] WAIT(60* ticks)
 26: 0x08C2 [0x66] LOAD_EXT_SCHEDULER_MAIN: Load scheduler "tlk0" with entities [EventEntity, EventEntity], work=0*
 27: 0x08D1 [0x1D] PRINT_EVENT_MESSAGE(message_id=6954*)
    → "That's what this reminded me of, and I realized I had forgotten the most important thing about cooking."
 28: 0x08D4 [0x23] WAIT_FOR_DIALOG_INTERACTION
 29: 0x08D5 [0x1D] PRINT_EVENT_MESSAGE(message_id=6955*)
    → "I have to get back to the basics. But I'm glad you came along and helped me see my mistake. Thank you!"
 30: 0x08D8 [0x23] WAIT_FOR_DIALOG_INTERACTION
 31: 0x08D9 [0x03] Work_Zone[1] = 87*
 32: 0x08DE [0x21] END_EVENT
 33: 0x08DF [0x00] END_REQSTACK()
```

### Event 98

#### Metadata

| Field        | Value    |
|--------------|----------|
| Entrypoint   | 0x08E0   |
| Data Size    | 28 bytes |
| Instructions | 8        |

```
      00 01 02 03 04 05 06 07  08 09 0A 0B 0C 0D 0E 0F
      -- -- -- -- -- -- -- --  -- -- -- -- -- -- -- --
08E0: 1E F0 FF FF 7F 6F 70 66  00 80 F8 FF FF 7F F8 FF  .....opf........
08F0: FF 7F 74 6C 6B 30 1D 5A  80 23 21 00              ..tlk0.Z.#!.    
```

#### Opcodes

```
  0: 0x08E0 [0x1E] EventEntity looks at LocalPlayer and starts talking
  1: 0x08E5 [0x6F] WAIT_FRAME_DELAY: Yield until WaitTime reaches zero
  2: 0x08E6 [0x70] WAIT_ENTITY_RENDER_FLAG: Wait while EventEntity->Render.Flags3 bit 2 is set (cancel turn if not)
  3: 0x08E7 [0x66] LOAD_EXT_SCHEDULER_MAIN: Load scheduler "tlk0" with entities [EventEntity, EventEntity], work=0*
  4: 0x08F6 [0x1D] PRINT_EVENT_MESSAGE(message_id=6955*)
    → "I have to get back to the basics. But I'm glad you came along and helped me see my mistake. Thank you!"
  5: 0x08F9 [0x23] WAIT_FOR_DIALOG_INTERACTION
  6: 0x08FA [0x21] END_EVENT
  7: 0x08FB [0x00] END_REQSTACK()
```
