# 17797199 - Semih Lafihna

## Common Data

| Field            | Value            |
|------------------|------------------|
| Zone             | Mhaura (ID: 249) |
| Block Size       | 976 bytes        |
| Total Events     | 47               |
| References Count | 28               |

## List of Events

| Event ID                   | Entrypoint   |   Size |   Instructions |
|----------------------------|--------------|--------|----------------|
| [65535](#event-65535)      | 0x0000       |      1 |              1 |
| [65535.1](#event-655351)   | 0x0001       |     16 |              2 |
| [65535.2](#event-655352)   | 0x0011       |     14 |              2 |
| [65535.3](#event-655353)   | 0x001F       |     37 |              5 |
| [65535.4](#event-655354)   | 0x0044       |     16 |              2 |
| [65535.5](#event-655355)   | 0x0054       |     14 |              2 |
| [65535.6](#event-655356)   | 0x0062       |     16 |              2 |
| [65535.7](#event-655357)   | 0x0072       |     14 |              2 |
| [65535.8](#event-655358)   | 0x0080       |     16 |              2 |
| [65535.9](#event-655359)   | 0x0090       |     14 |              2 |
| [65535.10](#event-6553510) | 0x009E       |     16 |              2 |
| [65535.11](#event-6553511) | 0x00AE       |     14 |              2 |
| [65535.12](#event-6553512) | 0x00BC       |     22 |              3 |
| [65535.13](#event-6553513) | 0x00D2       |     20 |              3 |
| [65535.14](#event-6553514) | 0x00E6       |     16 |              2 |
| [65535.15](#event-6553515) | 0x00F6       |     14 |              2 |
| [65535.16](#event-6553516) | 0x0104       |     16 |              2 |
| [65535.17](#event-6553517) | 0x0114       |     14 |              2 |
| [65535.18](#event-6553518) | 0x0122       |     29 |              3 |
| [65535.19](#event-6553519) | 0x013F       |     16 |              2 |
| [65535.20](#event-6553520) | 0x014F       |     14 |              2 |
| [65535.21](#event-6553521) | 0x015D       |     29 |              3 |
| [65535.22](#event-6553522) | 0x017A       |     29 |              3 |
| [65535.23](#event-6553523) | 0x0197       |     16 |              2 |
| [65535.24](#event-6553524) | 0x01A7       |     14 |              2 |
| [65535.25](#event-6553525) | 0x01B5       |     16 |              2 |
| [65535.26](#event-6553526) | 0x01C5       |     14 |              2 |
| [65535.27](#event-6553527) | 0x01D3       |     16 |              2 |
| [65535.28](#event-6553528) | 0x01E3       |     14 |              2 |
| [65535.29](#event-6553529) | 0x01F1       |     16 |              2 |
| [65535.30](#event-6553530) | 0x0201       |     14 |              2 |
| [65535.31](#event-6553531) | 0x020F       |     16 |              2 |
| [65535.32](#event-6553532) | 0x021F       |     14 |              2 |
| [65535.33](#event-6553533) | 0x022D       |      9 |              3 |
| [10009](#event-10009)      | 0x0236       |      1 |              1 |
| [65535.34](#event-6553534) | 0x0237       |     10 |              2 |
| [65535.35](#event-6553535) | 0x0241       |     14 |              4 |
| [65535.36](#event-6553536) | 0x024F       |     14 |              4 |
| [65535.37](#event-6553537) | 0x025D       |     14 |              4 |
| [65535.38](#event-6553538) | 0x026B       |      5 |              3 |
| [65535.39](#event-6553539) | 0x0270       |      5 |              3 |
| [65535.40](#event-6553540) | 0x0275       |      5 |              3 |
| [65535.41](#event-6553541) | 0x027A       |      5 |              3 |
| [65535.42](#event-6553542) | 0x027F       |      5 |              3 |
| [65535.43](#event-6553543) | 0x0284       |      5 |              3 |
| [65535.44](#event-6553544) | 0x0289       |      5 |              3 |
| [65535.45](#event-6553545) | 0x028E       |      5 |              3 |

## DAT References (imed_data)

|   Index | Hex Value   |   Dec Value |
|---------|-------------|-------------|
|       0 | 0x0175      |         373 |
|       1 | 0x001E      |          30 |
|       2 | 0x016D      |         365 |
|       3 | 0x0165      |         357 |
|       4 | 0x0169      |         361 |
|       5 | 0x0167      |         359 |
|       6 | 0xFFFF5A71  |  4294924913 |
|       7 | 0x771B      |       30491 |
|       8 | 0xFFFFC22D  |  4294951469 |
|       9 | 0x0204      |         516 |
|      10 | 0x000D      |          13 |
|      11 | 0xFFFF1148  |  4294906184 |
|      12 | 0x7703      |       30467 |
|      13 | 0xFFFFC180  |  4294951296 |
|      14 | 0xFFFF5B05  |  4294925061 |
|      15 | 0x7CAC      |       31916 |
|      16 | 0xFFFFC1F5  |  4294951413 |
|      17 | 0xFFFF57B5  |  4294924213 |
|      18 | 0xA446      |       42054 |
|      19 | 0xFFFFC27C  |  4294951548 |
|      20 | 0x1C87      |        7303 |
|      21 | 0x1C8A      |        7306 |
|      22 | 0x1C8C      |        7308 |
|      23 | 0x1C8E      |        7310 |
|      24 | 0x1C91      |        7313 |
|      25 | 0x1C95      |        7317 |
|      26 | 0x1C9B      |        7323 |
|      27 | 0x1C9D      |        7325 |

## String References

- **7303**: <Player>, what are you doing here? This is my prrroblem, and I'll thank you to keep your paws out of it!
- **7306**: I was told by Chieftainness Perih Vashai that you had information about my past.
- **7308**: Who does this $1 belong to? The $1 I carry does not match with the one I received from the chieftainness.
- **7310**: ...! So, it was switched...
- **7313**: ...!! Why would my mother do such a thing...?
- **7317**: And for prrroof of her identity...it was necessary to swap the $1.
- **7323**: The Northlands...? Where my mother died...?
- **7325**: I have no rrreal desire to see a mother who would leave me to travel to the Northlands, but since I have come this far, I will go. Both you and the chieftainness seem to wish it so.

## Events

### Event 65535

#### Metadata

| Field        | Value   |
|--------------|---------|
| Entrypoint   | 0x0000  |
| Data Size    | 1 bytes |
| Instructions | 1       |

```
      00 01 02 03 04 05 06 07  08 09 0A 0B 0C 0D 0E 0F
      -- -- -- -- -- -- -- --  -- -- -- -- -- -- -- --
0000: 00                                                .               
```

#### Opcodes

```
  0: 0x0000 [0x00] END_REQSTACK()
```

### Event 65535.1

#### Metadata

| Field        | Value    |
|--------------|----------|
| Entrypoint   | 0x0001   |
| Data Size    | 16 bytes |
| Instructions | 2        |

```
      00 01 02 03 04 05 06 07  08 09 0A 0B 0C 0D 0E 0F
      -- -- -- -- -- -- -- --  -- -- -- -- -- -- -- --
0000:    5B 00 80 F8 FF FF 7F  F8 FF FF 7F 74 6C 6B 30   [..........tlk0
0010: 00                                                .               
```

#### Opcodes

```
  0: 0x0001 [0x5B] LOAD_EXT_SCHEDULER: Load scheduler "tlk0" with entities [EventEntity, EventEntity], work=373*
  1: 0x0010 [0x00] END_REQSTACK()
```

### Event 65535.2

#### Metadata

| Field        | Value    |
|--------------|----------|
| Entrypoint   | 0x0011   |
| Data Size    | 14 bytes |
| Instructions | 2        |

```
      00 01 02 03 04 05 06 07  08 09 0A 0B 0C 0D 0E 0F
      -- -- -- -- -- -- -- --  -- -- -- -- -- -- -- --
0010:    53 F8 FF FF 7F F8 FF  FF 7F 74 6C 6B 30 00      S........tlk0. 
```

#### Opcodes

```
  0: 0x0011 [0x53] WAIT_SCHEDULER_TASK: Wait for scheduler "tlk0" with entities [EventEntity, EventEntity]
  1: 0x001E [0x00] END_REQSTACK()
```

### Event 65535.3

#### Metadata

| Field        | Value    |
|--------------|----------|
| Entrypoint   | 0x001F   |
| Data Size    | 37 bytes |
| Instructions | 5        |

```
      00 01 02 03 04 05 06 07  08 09 0A 0B 0C 0D 0E 0F
      -- -- -- -- -- -- -- --  -- -- -- -- -- -- -- --
0010:                                               5B                 [
0020: 00 80 F8 FF FF 7F F8 FF  FF 7F 74 6C 6B 30 53 F8  ..........tlk0S.
0030: FF FF 7F F8 FF FF 7F 74  6C 6B 30 5E 69 64 6C 30  .......tlk0^idl0
0040: 1C 01 80 00                                       ....            
```

#### Opcodes

```
  0: 0x001F [0x5B] LOAD_EXT_SCHEDULER: Load scheduler "tlk0" with entities [EventEntity, EventEntity], work=373*
  1: 0x002E [0x53] WAIT_SCHEDULER_TASK: Wait for scheduler "tlk0" with entities [EventEntity, EventEntity]
  2: 0x003B [0x5E] EventEntity goes idle (kills current action) (animation: "idl0")
  3: 0x0040 [0x1C] WAIT(30* ticks)
  4: 0x0043 [0x00] END_REQSTACK()
```

### Event 65535.4

#### Metadata

| Field        | Value    |
|--------------|----------|
| Entrypoint   | 0x0044   |
| Data Size    | 16 bytes |
| Instructions | 2        |

```
      00 01 02 03 04 05 06 07  08 09 0A 0B 0C 0D 0E 0F
      -- -- -- -- -- -- -- --  -- -- -- -- -- -- -- --
0040:             5B 00 80 F8  FF FF 7F F8 FF FF 7F 74      [..........t
0050: 6C 6B 31 00                                       lk1.            
```

#### Opcodes

```
  0: 0x0044 [0x5B] LOAD_EXT_SCHEDULER: Load scheduler "tlk1" with entities [EventEntity, EventEntity], work=373*
  1: 0x0053 [0x00] END_REQSTACK()
```

### Event 65535.5

#### Metadata

| Field        | Value    |
|--------------|----------|
| Entrypoint   | 0x0054   |
| Data Size    | 14 bytes |
| Instructions | 2        |

```
      00 01 02 03 04 05 06 07  08 09 0A 0B 0C 0D 0E 0F
      -- -- -- -- -- -- -- --  -- -- -- -- -- -- -- --
0050:             53 F8 FF FF  7F F8 FF FF 7F 74 6C 6B      S........tlk
0060: 31 00                                             1.              
```

#### Opcodes

```
  0: 0x0054 [0x53] WAIT_SCHEDULER_TASK: Wait for scheduler "tlk1" with entities [EventEntity, EventEntity]
  1: 0x0061 [0x00] END_REQSTACK()
```

### Event 65535.6

#### Metadata

| Field        | Value    |
|--------------|----------|
| Entrypoint   | 0x0062   |
| Data Size    | 16 bytes |
| Instructions | 2        |

```
      00 01 02 03 04 05 06 07  08 09 0A 0B 0C 0D 0E 0F
      -- -- -- -- -- -- -- --  -- -- -- -- -- -- -- --
0060:       5B 00 80 F8 FF FF  7F F8 FF FF 7F 62 6F 6B    [..........bok
0070: 30 00                                             0.              
```

#### Opcodes

```
  0: 0x0062 [0x5B] LOAD_EXT_SCHEDULER: Load scheduler "bok0" with entities [EventEntity, EventEntity], work=373*
  1: 0x0071 [0x00] END_REQSTACK()
```

### Event 65535.7

#### Metadata

| Field        | Value    |
|--------------|----------|
| Entrypoint   | 0x0072   |
| Data Size    | 14 bytes |
| Instructions | 2        |

```
      00 01 02 03 04 05 06 07  08 09 0A 0B 0C 0D 0E 0F
      -- -- -- -- -- -- -- --  -- -- -- -- -- -- -- --
0070:       53 F8 FF FF 7F F8  FF FF 7F 62 6F 6B 30 00    S........bok0.
```

#### Opcodes

```
  0: 0x0072 [0x53] WAIT_SCHEDULER_TASK: Wait for scheduler "bok0" with entities [EventEntity, EventEntity]
  1: 0x007F [0x00] END_REQSTACK()
```

### Event 65535.8

#### Metadata

| Field        | Value    |
|--------------|----------|
| Entrypoint   | 0x0080   |
| Data Size    | 16 bytes |
| Instructions | 2        |

```
      00 01 02 03 04 05 06 07  08 09 0A 0B 0C 0D 0E 0F
      -- -- -- -- -- -- -- --  -- -- -- -- -- -- -- --
0080: 5B 00 80 F8 FF FF 7F F8  FF FF 7F 62 6F 6B 31 00  [..........bok1.
```

#### Opcodes

```
  0: 0x0080 [0x5B] LOAD_EXT_SCHEDULER: Load scheduler "bok1" with entities [EventEntity, EventEntity], work=373*
  1: 0x008F [0x00] END_REQSTACK()
```

### Event 65535.9

#### Metadata

| Field        | Value    |
|--------------|----------|
| Entrypoint   | 0x0090   |
| Data Size    | 14 bytes |
| Instructions | 2        |

```
      00 01 02 03 04 05 06 07  08 09 0A 0B 0C 0D 0E 0F
      -- -- -- -- -- -- -- --  -- -- -- -- -- -- -- --
0090: 53 F8 FF FF 7F F8 FF FF  7F 62 6F 6B 31 00        S........bok1.  
```

#### Opcodes

```
  0: 0x0090 [0x53] WAIT_SCHEDULER_TASK: Wait for scheduler "bok1" with entities [EventEntity, EventEntity]
  1: 0x009D [0x00] END_REQSTACK()
```

### Event 65535.10

#### Metadata

| Field        | Value    |
|--------------|----------|
| Entrypoint   | 0x009E   |
| Data Size    | 16 bytes |
| Instructions | 2        |

```
      00 01 02 03 04 05 06 07  08 09 0A 0B 0C 0D 0E 0F
      -- -- -- -- -- -- -- --  -- -- -- -- -- -- -- --
0090:                                            5B 00                [.
00A0: 80 F8 FF FF 7F F8 FF FF  7F 69 62 6F 30 00        .........ibo0.  
```

#### Opcodes

```
  0: 0x009E [0x5B] LOAD_EXT_SCHEDULER: Load scheduler "ibo0" with entities [EventEntity, EventEntity], work=373*
  1: 0x00AD [0x00] END_REQSTACK()
```

### Event 65535.11

#### Metadata

| Field        | Value    |
|--------------|----------|
| Entrypoint   | 0x00AE   |
| Data Size    | 14 bytes |
| Instructions | 2        |

```
      00 01 02 03 04 05 06 07  08 09 0A 0B 0C 0D 0E 0F
      -- -- -- -- -- -- -- --  -- -- -- -- -- -- -- --
00A0:                                            53 F8                S.
00B0: FF FF 7F F8 FF FF 7F 69  62 6F 30 00              .......ibo0.    
```

#### Opcodes

```
  0: 0x00AE [0x53] WAIT_SCHEDULER_TASK: Wait for scheduler "ibo0" with entities [EventEntity, EventEntity]
  1: 0x00BB [0x00] END_REQSTACK()
```

### Event 65535.12

#### Metadata

| Field        | Value    |
|--------------|----------|
| Entrypoint   | 0x00BC   |
| Data Size    | 22 bytes |
| Instructions | 3        |

```
      00 01 02 03 04 05 06 07  08 09 0A 0B 0C 0D 0E 0F
      -- -- -- -- -- -- -- --  -- -- -- -- -- -- -- --
00B0:                                      81 00 F8 FF              ....
00C0: FF 7F 5B 00 80 F8 FF FF  7F F8 FF FF 7F 75 6E 61  ..[..........una
00D0: 30 00                                             0.              
```

#### Opcodes

```
  0: 0x00BC [0x81] SET_ENTITY_BLINKING(blink_flag=0x00, entity=EventEntity)
  1: 0x00C2 [0x5B] LOAD_EXT_SCHEDULER: Load scheduler "una0" with entities [EventEntity, EventEntity], work=373*
  2: 0x00D1 [0x00] END_REQSTACK()
```

### Event 65535.13

#### Metadata

| Field        | Value    |
|--------------|----------|
| Entrypoint   | 0x00D2   |
| Data Size    | 20 bytes |
| Instructions | 3        |

```
      00 01 02 03 04 05 06 07  08 09 0A 0B 0C 0D 0E 0F
      -- -- -- -- -- -- -- --  -- -- -- -- -- -- -- --
00D0:       53 F8 FF FF 7F F8  FF FF 7F 75 6E 61 30 81    S........una0.
00E0: 01 F8 FF FF 7F 00                                 ......          
```

#### Opcodes

```
  0: 0x00D2 [0x53] WAIT_SCHEDULER_TASK: Wait for scheduler "una0" with entities [EventEntity, EventEntity]
  1: 0x00DF [0x81] SET_ENTITY_BLINKING(blink_flag=0x01, entity=EventEntity)
  2: 0x00E5 [0x00] END_REQSTACK()
```

### Event 65535.14

#### Metadata

| Field        | Value    |
|--------------|----------|
| Entrypoint   | 0x00E6   |
| Data Size    | 16 bytes |
| Instructions | 2        |

```
      00 01 02 03 04 05 06 07  08 09 0A 0B 0C 0D 0E 0F
      -- -- -- -- -- -- -- --  -- -- -- -- -- -- -- --
00E0:                   5B 02  80 F8 FF FF 7F F8 FF FF        [.........
00F0: 7F 70 61 73 30 00                                 .pas0.          
```

#### Opcodes

```
  0: 0x00E6 [0x5B] LOAD_EXT_SCHEDULER: Load scheduler "pas0" with entities [EventEntity, EventEntity], work=365*
  1: 0x00F5 [0x00] END_REQSTACK()
```

### Event 65535.15

#### Metadata

| Field        | Value    |
|--------------|----------|
| Entrypoint   | 0x00F6   |
| Data Size    | 14 bytes |
| Instructions | 2        |

```
      00 01 02 03 04 05 06 07  08 09 0A 0B 0C 0D 0E 0F
      -- -- -- -- -- -- -- --  -- -- -- -- -- -- -- --
00F0:                   53 F8  FF FF 7F F8 FF FF 7F 70        S........p
0100: 61 73 30 00                                       as0.            
```

#### Opcodes

```
  0: 0x00F6 [0x53] WAIT_SCHEDULER_TASK: Wait for scheduler "pas0" with entities [EventEntity, EventEntity]
  1: 0x0103 [0x00] END_REQSTACK()
```

### Event 65535.16

#### Metadata

| Field        | Value    |
|--------------|----------|
| Entrypoint   | 0x0104   |
| Data Size    | 16 bytes |
| Instructions | 2        |

```
      00 01 02 03 04 05 06 07  08 09 0A 0B 0C 0D 0E 0F
      -- -- -- -- -- -- -- --  -- -- -- -- -- -- -- --
0100:             5B 03 80 F8  FF FF 7F F8 FF FF 7F 74      [..........t
0110: 68 6B 31 00                                       hk1.            
```

#### Opcodes

```
  0: 0x0104 [0x5B] LOAD_EXT_SCHEDULER: Load scheduler "thk1" with entities [EventEntity, EventEntity], work=357*
  1: 0x0113 [0x00] END_REQSTACK()
```

### Event 65535.17

#### Metadata

| Field        | Value    |
|--------------|----------|
| Entrypoint   | 0x0114   |
| Data Size    | 14 bytes |
| Instructions | 2        |

```
      00 01 02 03 04 05 06 07  08 09 0A 0B 0C 0D 0E 0F
      -- -- -- -- -- -- -- --  -- -- -- -- -- -- -- --
0110:             53 F8 FF FF  7F F8 FF FF 7F 74 68 6B      S........thk
0120: 31 00                                             1.              
```

#### Opcodes

```
  0: 0x0114 [0x53] WAIT_SCHEDULER_TASK: Wait for scheduler "thk1" with entities [EventEntity, EventEntity]
  1: 0x0121 [0x00] END_REQSTACK()
```

### Event 65535.18

#### Metadata

| Field        | Value    |
|--------------|----------|
| Entrypoint   | 0x0122   |
| Data Size    | 29 bytes |
| Instructions | 3        |

```
      00 01 02 03 04 05 06 07  08 09 0A 0B 0C 0D 0E 0F
      -- -- -- -- -- -- -- --  -- -- -- -- -- -- -- --
0120:       5B 03 80 F8 FF FF  7F F8 FF FF 7F 74 68 6B    [..........thk
0130: 31 53 F8 FF FF 7F F8 FF  FF 7F 74 68 6B 31 00     1S........thk1. 
```

#### Opcodes

```
  0: 0x0122 [0x5B] LOAD_EXT_SCHEDULER: Load scheduler "thk1" with entities [EventEntity, EventEntity], work=357*
  1: 0x0131 [0x53] WAIT_SCHEDULER_TASK: Wait for scheduler "thk1" with entities [EventEntity, EventEntity]
  2: 0x013E [0x00] END_REQSTACK()
```

### Event 65535.19

#### Metadata

| Field        | Value    |
|--------------|----------|
| Entrypoint   | 0x013F   |
| Data Size    | 16 bytes |
| Instructions | 2        |

```
      00 01 02 03 04 05 06 07  08 09 0A 0B 0C 0D 0E 0F
      -- -- -- -- -- -- -- --  -- -- -- -- -- -- -- --
0130:                                               5B                 [
0140: 03 80 F8 FF FF 7F F8 FF  FF 7F 74 68 6B 32 00     ..........thk2. 
```

#### Opcodes

```
  0: 0x013F [0x5B] LOAD_EXT_SCHEDULER: Load scheduler "thk2" with entities [EventEntity, EventEntity], work=357*
  1: 0x014E [0x00] END_REQSTACK()
```

### Event 65535.20

#### Metadata

| Field        | Value    |
|--------------|----------|
| Entrypoint   | 0x014F   |
| Data Size    | 14 bytes |
| Instructions | 2        |

```
      00 01 02 03 04 05 06 07  08 09 0A 0B 0C 0D 0E 0F
      -- -- -- -- -- -- -- --  -- -- -- -- -- -- -- --
0140:                                               53                 S
0150: F8 FF FF 7F F8 FF FF 7F  74 68 6B 32 00           ........thk2.   
```

#### Opcodes

```
  0: 0x014F [0x53] WAIT_SCHEDULER_TASK: Wait for scheduler "thk2" with entities [EventEntity, EventEntity]
  1: 0x015C [0x00] END_REQSTACK()
```

### Event 65535.21

#### Metadata

| Field        | Value    |
|--------------|----------|
| Entrypoint   | 0x015D   |
| Data Size    | 29 bytes |
| Instructions | 3        |

```
      00 01 02 03 04 05 06 07  08 09 0A 0B 0C 0D 0E 0F
      -- -- -- -- -- -- -- --  -- -- -- -- -- -- -- --
0150:                                         5B 03 80               [..
0160: F8 FF FF 7F F8 FF FF 7F  74 68 6B 32 53 F8 FF FF  ........thk2S...
0170: 7F F8 FF FF 7F 74 68 6B  32 00                    .....thk2.      
```

#### Opcodes

```
  0: 0x015D [0x5B] LOAD_EXT_SCHEDULER: Load scheduler "thk2" with entities [EventEntity, EventEntity], work=357*
  1: 0x016C [0x53] WAIT_SCHEDULER_TASK: Wait for scheduler "thk2" with entities [EventEntity, EventEntity]
  2: 0x0179 [0x00] END_REQSTACK()
```

### Event 65535.22

#### Metadata

| Field        | Value    |
|--------------|----------|
| Entrypoint   | 0x017A   |
| Data Size    | 29 bytes |
| Instructions | 3        |

```
      00 01 02 03 04 05 06 07  08 09 0A 0B 0C 0D 0E 0F
      -- -- -- -- -- -- -- --  -- -- -- -- -- -- -- --
0170:                                5B 04 80 F8 FF FF            [.....
0180: 7F F8 FF FF 7F 70 6F 69  30 53 F8 FF FF 7F F8 FF  .....poi0S......
0190: FF 7F 70 6F 69 30 00                              ..poi0.         
```

#### Opcodes

```
  0: 0x017A [0x5B] LOAD_EXT_SCHEDULER: Load scheduler "poi0" with entities [EventEntity, EventEntity], work=361*
  1: 0x0189 [0x53] WAIT_SCHEDULER_TASK: Wait for scheduler "poi0" with entities [EventEntity, EventEntity]
  2: 0x0196 [0x00] END_REQSTACK()
```

### Event 65535.23

#### Metadata

| Field        | Value    |
|--------------|----------|
| Entrypoint   | 0x0197   |
| Data Size    | 16 bytes |
| Instructions | 2        |

```
      00 01 02 03 04 05 06 07  08 09 0A 0B 0C 0D 0E 0F
      -- -- -- -- -- -- -- --  -- -- -- -- -- -- -- --
0190:                      5B  03 80 F8 FF FF 7F F8 FF         [........
01A0: FF 7F 64 69 73 30 00                              ..dis0.         
```

#### Opcodes

```
  0: 0x0197 [0x5B] LOAD_EXT_SCHEDULER: Load scheduler "dis0" with entities [EventEntity, EventEntity], work=357*
  1: 0x01A6 [0x00] END_REQSTACK()
```

### Event 65535.24

#### Metadata

| Field        | Value    |
|--------------|----------|
| Entrypoint   | 0x01A7   |
| Data Size    | 14 bytes |
| Instructions | 2        |

```
      00 01 02 03 04 05 06 07  08 09 0A 0B 0C 0D 0E 0F
      -- -- -- -- -- -- -- --  -- -- -- -- -- -- -- --
01A0:                      53  F8 FF FF 7F F8 FF FF 7F         S........
01B0: 64 69 73 30 00                                    dis0.           
```

#### Opcodes

```
  0: 0x01A7 [0x53] WAIT_SCHEDULER_TASK: Wait for scheduler "dis0" with entities [EventEntity, EventEntity]
  1: 0x01B4 [0x00] END_REQSTACK()
```

### Event 65535.25

#### Metadata

| Field        | Value    |
|--------------|----------|
| Entrypoint   | 0x01B5   |
| Data Size    | 16 bytes |
| Instructions | 2        |

```
      00 01 02 03 04 05 06 07  08 09 0A 0B 0C 0D 0E 0F
      -- -- -- -- -- -- -- --  -- -- -- -- -- -- -- --
01B0:                5B 02 80  F8 FF FF 7F F8 FF FF 7F       [..........
01C0: 74 6C 62 30 00                                    tlb0.           
```

#### Opcodes

```
  0: 0x01B5 [0x5B] LOAD_EXT_SCHEDULER: Load scheduler "tlb0" with entities [EventEntity, EventEntity], work=365*
  1: 0x01C4 [0x00] END_REQSTACK()
```

### Event 65535.26

#### Metadata

| Field        | Value    |
|--------------|----------|
| Entrypoint   | 0x01C5   |
| Data Size    | 14 bytes |
| Instructions | 2        |

```
      00 01 02 03 04 05 06 07  08 09 0A 0B 0C 0D 0E 0F
      -- -- -- -- -- -- -- --  -- -- -- -- -- -- -- --
01C0:                53 F8 FF  FF 7F F8 FF FF 7F 74 6C       S........tl
01D0: 62 30 00                                          b0.             
```

#### Opcodes

```
  0: 0x01C5 [0x53] WAIT_SCHEDULER_TASK: Wait for scheduler "tlb0" with entities [EventEntity, EventEntity]
  1: 0x01D2 [0x00] END_REQSTACK()
```

### Event 65535.27

#### Metadata

| Field        | Value    |
|--------------|----------|
| Entrypoint   | 0x01D3   |
| Data Size    | 16 bytes |
| Instructions | 2        |

```
      00 01 02 03 04 05 06 07  08 09 0A 0B 0C 0D 0E 0F
      -- -- -- -- -- -- -- --  -- -- -- -- -- -- -- --
01D0:          5B 02 80 F8 FF  FF 7F F8 FF FF 7F 74 6C     [..........tl
01E0: 62 31 00                                          b1.             
```

#### Opcodes

```
  0: 0x01D3 [0x5B] LOAD_EXT_SCHEDULER: Load scheduler "tlb1" with entities [EventEntity, EventEntity], work=365*
  1: 0x01E2 [0x00] END_REQSTACK()
```

### Event 65535.28

#### Metadata

| Field        | Value    |
|--------------|----------|
| Entrypoint   | 0x01E3   |
| Data Size    | 14 bytes |
| Instructions | 2        |

```
      00 01 02 03 04 05 06 07  08 09 0A 0B 0C 0D 0E 0F
      -- -- -- -- -- -- -- --  -- -- -- -- -- -- -- --
01E0:          53 F8 FF FF 7F  F8 FF FF 7F 74 6C 62 31     S........tlb1
01F0: 00                                                .               
```

#### Opcodes

```
  0: 0x01E3 [0x53] WAIT_SCHEDULER_TASK: Wait for scheduler "tlb1" with entities [EventEntity, EventEntity]
  1: 0x01F0 [0x00] END_REQSTACK()
```

### Event 65535.29

#### Metadata

| Field        | Value    |
|--------------|----------|
| Entrypoint   | 0x01F1   |
| Data Size    | 16 bytes |
| Instructions | 2        |

```
      00 01 02 03 04 05 06 07  08 09 0A 0B 0C 0D 0E 0F
      -- -- -- -- -- -- -- --  -- -- -- -- -- -- -- --
01F0:    5B 05 80 F8 FF FF 7F  F8 FF FF 7F 74 6C 6B 30   [..........tlk0
0200: 00                                                .               
```

#### Opcodes

```
  0: 0x01F1 [0x5B] LOAD_EXT_SCHEDULER: Load scheduler "tlk0" with entities [EventEntity, EventEntity], work=359*
  1: 0x0200 [0x00] END_REQSTACK()
```

### Event 65535.30

#### Metadata

| Field        | Value    |
|--------------|----------|
| Entrypoint   | 0x0201   |
| Data Size    | 14 bytes |
| Instructions | 2        |

```
      00 01 02 03 04 05 06 07  08 09 0A 0B 0C 0D 0E 0F
      -- -- -- -- -- -- -- --  -- -- -- -- -- -- -- --
0200:    53 F8 FF FF 7F F8 FF  FF 7F 74 6C 6B 30 00      S........tlk0. 
```

#### Opcodes

```
  0: 0x0201 [0x53] WAIT_SCHEDULER_TASK: Wait for scheduler "tlk0" with entities [EventEntity, EventEntity]
  1: 0x020E [0x00] END_REQSTACK()
```

### Event 65535.31

#### Metadata

| Field        | Value    |
|--------------|----------|
| Entrypoint   | 0x020F   |
| Data Size    | 16 bytes |
| Instructions | 2        |

```
      00 01 02 03 04 05 06 07  08 09 0A 0B 0C 0D 0E 0F
      -- -- -- -- -- -- -- --  -- -- -- -- -- -- -- --
0200:                                               5B                 [
0210: 05 80 F8 FF FF 7F F8 FF  FF 7F 74 6C 6B 32 00     ..........tlk2. 
```

#### Opcodes

```
  0: 0x020F [0x5B] LOAD_EXT_SCHEDULER: Load scheduler "tlk2" with entities [EventEntity, EventEntity], work=359*
  1: 0x021E [0x00] END_REQSTACK()
```

### Event 65535.32

#### Metadata

| Field        | Value    |
|--------------|----------|
| Entrypoint   | 0x021F   |
| Data Size    | 14 bytes |
| Instructions | 2        |

```
      00 01 02 03 04 05 06 07  08 09 0A 0B 0C 0D 0E 0F
      -- -- -- -- -- -- -- --  -- -- -- -- -- -- -- --
0210:                                               53                 S
0220: F8 FF FF 7F F8 FF FF 7F  74 6C 6B 32 00           ........tlk2.   
```

#### Opcodes

```
  0: 0x021F [0x53] WAIT_SCHEDULER_TASK: Wait for scheduler "tlk2" with entities [EventEntity, EventEntity]
  1: 0x022C [0x00] END_REQSTACK()
```

### Event 65535.33

#### Metadata

| Field        | Value   |
|--------------|---------|
| Entrypoint   | 0x022D  |
| Data Size    | 9 bytes |
| Instructions | 3       |

```
      00 01 02 03 04 05 06 07  08 09 0A 0B 0C 0D 0E 0F
      -- -- -- -- -- -- -- --  -- -- -- -- -- -- -- --
0220:                                         5E 69 64               ^id
0230: 6C 30 1C 01 80 00                                 l0....          
```

#### Opcodes

```
  0: 0x022D [0x5E] EventEntity goes idle (kills current action) (animation: "idl0")
  1: 0x0232 [0x1C] WAIT(30* ticks)
  2: 0x0235 [0x00] END_REQSTACK()
```

### Event 10009

#### Metadata

| Field        | Value   |
|--------------|---------|
| Entrypoint   | 0x0236  |
| Data Size    | 1 bytes |
| Instructions | 1       |

```
      00 01 02 03 04 05 06 07  08 09 0A 0B 0C 0D 0E 0F
      -- -- -- -- -- -- -- --  -- -- -- -- -- -- -- --
0230:                   00                                    .         
```

#### Opcodes

```
  0: 0x0236 [0x00] END_REQSTACK()
```

### Event 65535.34

#### Metadata

| Field        | Value    |
|--------------|----------|
| Entrypoint   | 0x0237   |
| Data Size    | 10 bytes |
| Instructions | 2        |

```
      00 01 02 03 04 05 06 07  08 09 0A 0B 0C 0D 0E 0F
      -- -- -- -- -- -- -- --  -- -- -- -- -- -- -- --
0230:                      37  06 80 07 80 08 80 09 80         7........
0240: 00                                                .               
```

#### Opcodes

```
  0: 0x0237 [0x37] UPDATE_EVENT_POSITION_AND_DIR: x=-42.383*, z=30.491*, y=-15.827*, direction=45.4°*
  1: 0x0240 [0x00] END_REQSTACK()
```

### Event 65535.35

#### Metadata

| Field        | Value    |
|--------------|----------|
| Entrypoint   | 0x0241   |
| Data Size    | 14 bytes |
| Instructions | 4        |

```
      00 01 02 03 04 05 06 07  08 09 0A 0B 0C 0D 0E 0F
      -- -- -- -- -- -- -- --  -- -- -- -- -- -- -- --
0240:    32 0A 80 1F 00 0B 80  0C 80 0D 80 1F 01 00      2............. 
```

#### Opcodes

```
  0: 0x0241 [0x32] ExtData[1]->MainSpeed = 13* * 0.1
  1: 0x0244 [0x1F] MOVE_ENTITY: EventEntity moves to X=-61.112*, Z=30.467*, Y=-16.000*
  2: 0x024C [0x1F] MOVE_ENTITY: Update entity position (mode=1)
  3: 0x024E [0x00] END_REQSTACK()
```

### Event 65535.36

#### Metadata

| Field        | Value    |
|--------------|----------|
| Entrypoint   | 0x024F   |
| Data Size    | 14 bytes |
| Instructions | 4        |

```
      00 01 02 03 04 05 06 07  08 09 0A 0B 0C 0D 0E 0F
      -- -- -- -- -- -- -- --  -- -- -- -- -- -- -- --
0240:                                               32                 2
0250: 0A 80 1F 00 0E 80 0F 80  10 80 1F 01 00           .............   
```

#### Opcodes

```
  0: 0x024F [0x32] ExtData[1]->MainSpeed = 13* * 0.1
  1: 0x0252 [0x1F] MOVE_ENTITY: EventEntity moves to X=-42.235*, Z=31.916*, Y=-15.883*
  2: 0x025A [0x1F] MOVE_ENTITY: Update entity position (mode=1)
  3: 0x025C [0x00] END_REQSTACK()
```

### Event 65535.37

#### Metadata

| Field        | Value    |
|--------------|----------|
| Entrypoint   | 0x025D   |
| Data Size    | 14 bytes |
| Instructions | 4        |

```
      00 01 02 03 04 05 06 07  08 09 0A 0B 0C 0D 0E 0F
      -- -- -- -- -- -- -- --  -- -- -- -- -- -- -- --
0250:                                         32 0A 80               2..
0260: 1F 00 11 80 12 80 13 80  1F 01 00                 ...........     
```

#### Opcodes

```
  0: 0x025D [0x32] ExtData[1]->MainSpeed = 13* * 0.1
  1: 0x0260 [0x1F] MOVE_ENTITY: EventEntity moves to X=-43.083*, Z=42.054*, Y=-15.748*
  2: 0x0268 [0x1F] MOVE_ENTITY: Update entity position (mode=1)
  3: 0x026A [0x00] END_REQSTACK()
```

### Event 65535.38

#### Metadata

| Field        | Value   |
|--------------|---------|
| Entrypoint   | 0x026B  |
| Data Size    | 5 bytes |
| Instructions | 3       |

```
      00 01 02 03 04 05 06 07  08 09 0A 0B 0C 0D 0E 0F
      -- -- -- -- -- -- -- --  -- -- -- -- -- -- -- --
0260:                                   1D 14 80 23 00             ...#.
```

#### Opcodes

```
  0: 0x026B [0x1D] PRINT_EVENT_MESSAGE(message_id=7303*)
    → "<Player>, what are you doing here? This is my prrroblem, and I'll thank you to keep your paws out of it!"
  1: 0x026E [0x23] WAIT_FOR_DIALOG_INTERACTION
  2: 0x026F [0x00] END_REQSTACK()
```

### Event 65535.39

#### Metadata

| Field        | Value   |
|--------------|---------|
| Entrypoint   | 0x0270  |
| Data Size    | 5 bytes |
| Instructions | 3       |

```
      00 01 02 03 04 05 06 07  08 09 0A 0B 0C 0D 0E 0F
      -- -- -- -- -- -- -- --  -- -- -- -- -- -- -- --
0270: 1D 15 80 23 00                                    ...#.           
```

#### Opcodes

```
  0: 0x0270 [0x1D] PRINT_EVENT_MESSAGE(message_id=7306*)
    → "I was told by Chieftainness Perih Vashai that you had information about my past."
  1: 0x0273 [0x23] WAIT_FOR_DIALOG_INTERACTION
  2: 0x0274 [0x00] END_REQSTACK()
```

### Event 65535.40

#### Metadata

| Field        | Value   |
|--------------|---------|
| Entrypoint   | 0x0275  |
| Data Size    | 5 bytes |
| Instructions | 3       |

```
      00 01 02 03 04 05 06 07  08 09 0A 0B 0C 0D 0E 0F
      -- -- -- -- -- -- -- --  -- -- -- -- -- -- -- --
0270:                1D 16 80  23 00                         ...#.      
```

#### Opcodes

```
  0: 0x0275 [0x1D] PRINT_EVENT_MESSAGE(message_id=7308*)
    → "Who does this $1 belong to? The $1 I carry does not match with the one I received from the chieftainness."
  1: 0x0278 [0x23] WAIT_FOR_DIALOG_INTERACTION
  2: 0x0279 [0x00] END_REQSTACK()
```

### Event 65535.41

#### Metadata

| Field        | Value   |
|--------------|---------|
| Entrypoint   | 0x027A  |
| Data Size    | 5 bytes |
| Instructions | 3       |

```
      00 01 02 03 04 05 06 07  08 09 0A 0B 0C 0D 0E 0F
      -- -- -- -- -- -- -- --  -- -- -- -- -- -- -- --
0270:                                1D 17 80 23 00               ...#. 
```

#### Opcodes

```
  0: 0x027A [0x1D] PRINT_EVENT_MESSAGE(message_id=7310*)
    → "...! So, it was switched..."
  1: 0x027D [0x23] WAIT_FOR_DIALOG_INTERACTION
  2: 0x027E [0x00] END_REQSTACK()
```

### Event 65535.42

#### Metadata

| Field        | Value   |
|--------------|---------|
| Entrypoint   | 0x027F  |
| Data Size    | 5 bytes |
| Instructions | 3       |

```
      00 01 02 03 04 05 06 07  08 09 0A 0B 0C 0D 0E 0F
      -- -- -- -- -- -- -- --  -- -- -- -- -- -- -- --
0270:                                               1D                 .
0280: 18 80 23 00                                       ..#.            
```

#### Opcodes

```
  0: 0x027F [0x1D] PRINT_EVENT_MESSAGE(message_id=7313*)
    → "...!! Why would my mother do such a thing...?"
  1: 0x0282 [0x23] WAIT_FOR_DIALOG_INTERACTION
  2: 0x0283 [0x00] END_REQSTACK()
```

### Event 65535.43

#### Metadata

| Field        | Value   |
|--------------|---------|
| Entrypoint   | 0x0284  |
| Data Size    | 5 bytes |
| Instructions | 3       |

```
      00 01 02 03 04 05 06 07  08 09 0A 0B 0C 0D 0E 0F
      -- -- -- -- -- -- -- --  -- -- -- -- -- -- -- --
0280:             1D 19 80 23  00                           ...#.       
```

#### Opcodes

```
  0: 0x0284 [0x1D] PRINT_EVENT_MESSAGE(message_id=7317*)
    → "And for prrroof of her identity...it was necessary to swap the $1."
  1: 0x0287 [0x23] WAIT_FOR_DIALOG_INTERACTION
  2: 0x0288 [0x00] END_REQSTACK()
```

### Event 65535.44

#### Metadata

| Field        | Value   |
|--------------|---------|
| Entrypoint   | 0x0289  |
| Data Size    | 5 bytes |
| Instructions | 3       |

```
      00 01 02 03 04 05 06 07  08 09 0A 0B 0C 0D 0E 0F
      -- -- -- -- -- -- -- --  -- -- -- -- -- -- -- --
0280:                             1D 1A 80 23 00                 ...#.  
```

#### Opcodes

```
  0: 0x0289 [0x1D] PRINT_EVENT_MESSAGE(message_id=7323*)
    → "The Northlands...? Where my mother died...?"
  1: 0x028C [0x23] WAIT_FOR_DIALOG_INTERACTION
  2: 0x028D [0x00] END_REQSTACK()
```

### Event 65535.45

#### Metadata

| Field        | Value   |
|--------------|---------|
| Entrypoint   | 0x028E  |
| Data Size    | 5 bytes |
| Instructions | 3       |

```
      00 01 02 03 04 05 06 07  08 09 0A 0B 0C 0D 0E 0F
      -- -- -- -- -- -- -- --  -- -- -- -- -- -- -- --
0280:                                            1D 1B                ..
0290: 80 23 00                                          .#.             
```

#### Opcodes

```
  0: 0x028E [0x1D] PRINT_EVENT_MESSAGE(message_id=7325*)
    → "I have no rrreal desire to see a mother who would leave me to travel to the Northlands, but since I have come this far, I will go. Both you and the chieftainness seem to wish it so."
  1: 0x0291 [0x23] WAIT_FOR_DIALOG_INTERACTION
  2: 0x0292 [0x00] END_REQSTACK()
```
