# 17797246 - Wilhelm

## Common Data

| Field            | Value            |
|------------------|------------------|
| Zone             | Mhaura (ID: 249) |
| Block Size       | 2132 bytes       |
| Total Events     | 14               |
| References Count | 66               |

## List of Events

| Event ID              | Entrypoint   |   Size |   Instructions |
|-----------------------|--------------|--------|----------------|
| [65535](#event-65535) | 0x0000       |      1 |              1 |
| [325](#event-325)     | 0x0001       |     11 |              5 |
| [326](#event-326)     | 0x000C       |    187 |             37 |
| [327](#event-327)     | 0x00C7       |     11 |              5 |
| [328](#event-328)     | 0x00D2       |    620 |             69 |
| [329](#event-329)     | 0x033E       |     53 |             11 |
| [330](#event-330)     | 0x0373       |    588 |             67 |
| [331](#event-331)     | 0x05BF       |     38 |             10 |
| [341](#event-341)     | 0x05E5       |     27 |             13 |
| [342](#event-342)     | 0x0600       |     33 |              9 |
| [343](#event-343)     | 0x0621       |     27 |             13 |
| [344](#event-344)     | 0x063C       |     33 |              9 |
| [394](#event-394)     | 0x065D       |     70 |             20 |
| [395](#event-395)     | 0x06A3       |     97 |             21 |

## DAT References (imed_data)

|   Index | Hex Value   |   Dec Value |
|---------|-------------|-------------|
|       0 | 0x1E39      |        7737 |
|       1 | 0x0041      |          65 |
|       2 | 0x1E3A      |        7738 |
|       3 | 0x1E3B      |        7739 |
|       4 | 0x1E3C      |        7740 |
|       5 | 0x1E3D      |        7741 |
|       6 | 0x0000      |           0 |
|       7 | 0x0001      |           1 |
|       8 | 0x1E3E      |        7742 |
|       9 | 0x40000000  |  1073741824 |
|      10 | 0x1E3F      |        7743 |
|      11 | 0x1E40      |        7744 |
|      12 | 0x1E41      |        7745 |
|      13 | 0x1E42      |        7746 |
|      14 | 0x1E43      |        7747 |
|      15 | 0x1E44      |        7748 |
|      16 | 0x00C8      |         200 |
|      17 | 0x0002      |           2 |
|      18 | 0x0003      |           3 |
|      19 | 0x1E45      |        7749 |
|      20 | 0x005A      |          90 |
|      21 | 0x1E46      |        7750 |
|      22 | 0x1E47      |        7751 |
|      23 | 0x0009      |           9 |
|      24 | 0x001E      |          30 |
|      25 | 0x1E48      |        7752 |
|      26 | 0x1E49      |        7753 |
|      27 | 0x1E4A      |        7754 |
|      28 | 0x0C0F      |        3087 |
|      29 | 0x1E4B      |        7755 |
|      30 | 0x1E4C      |        7756 |
|      31 | 0x1E4D      |        7757 |
|      32 | 0x00C9      |         201 |
|      33 | 0x1E4E      |        7758 |
|      34 | 0x1E4F      |        7759 |
|      35 | 0x1E50      |        7760 |
|      36 | 0x1E51      |        7761 |
|      37 | 0x0013      |          19 |
|      38 | 0x1E52      |        7762 |
|      39 | 0x1E53      |        7763 |
|      40 | 0x1E54      |        7764 |
|      41 | 0x1E55      |        7765 |
|      42 | 0x1E56      |        7766 |
|      43 | 0x1E57      |        7767 |
|      44 | 0x1E58      |        7768 |
|      45 | 0x1E59      |        7769 |
|      46 | 0x1E5A      |        7770 |
|      47 | 0x1E5B      |        7771 |
|      48 | 0x1E5C      |        7772 |
|      49 | 0x1E5D      |        7773 |
|      50 | 0x1E5E      |        7774 |
|      51 | 0x1E5F      |        7775 |
|      52 | 0x1E60      |        7776 |
|      53 | 0x1E61      |        7777 |
|      54 | 0x1E62      |        7778 |
|      55 | 0x1E63      |        7779 |
|      56 | 0x1E64      |        7780 |
|      57 | 0x2084      |        8324 |
|      58 | 0x003C      |          60 |
|      59 | 0x2085      |        8325 |
|      60 | 0x0078      |         120 |
|      61 | 0x2086      |        8326 |
|      62 | 0x2087      |        8327 |
|      63 | 0x0096      |         150 |
|      64 | 0x2088      |        8328 |
|      65 | 0x2089      |        8329 |

## String References

- **7737**: You are an adventurer, are you not? My name is Wilhelm. I am a purchasing agent for the Brugaire Consortium.
- **7738**: I have quite a bit of respect for you adventurers. I think it is marvelous that there are people in this world who are doing their best to help others.
- **7739**: This is just a passing rumor, but I heard that several people have ventured to another world and encountered extraordinary beings...in a mysterious place, enveloped in light!
- **7740**: It is quite a far-fetched tale, if I say so myself! It would seem that such an absurd story cannot be true, and asking if you have been to such a land would be utterly ludicrous...but still, I cannot hold back my curiosity, if indeed you have seen this ethereal land.
- **7741**: Have you been to such a place? [Been there, done that!/Where again?]
- **7742**: I apologize for my forward behavior. If you ever do see such a place, you must return and tell me of the wonders that you find!
- **7743**: By Altana! You are far more courageous than the average adventurer! Then tell me, have you seen the giant black beasts which do not seem to be living creatures, but machines with flesh and blood?
- **7744**: Truth be told, I am currently on orders from a certain nation to seek out such a beast.
- **7745**: I am not proposing anything so preposterous as attempting to capture the creature, however. I only require a fragment from one of the beasts. If you manage to get one, I would be most pleased if you brought it to me.
- **7746**: But of course, I shall not simply take without giving something in return. Let this be known to no one, but we at the Brugaire Consortium recently came into the possession of extravagant armor and apparel from the Near East. I may be able to make some...special arrangements...if you lend your assistance.
- **7747**: O illustrious adventurer, please accept my plea!
- **7748**: I have heard that the black creatures reside in two places: at the top of an illuminated tower and at the bottom of a dark abyss. It also seems that there are two types: one that crawls on four legs and one that floats in the air. All I require is a segment from one of them. I implore you, please lend me your aid!
- **7749**: Th-this is undeniably a fragment of the legendary Ultima! Kamaal! You must see this, Kamaal!
- **7756**: The most skilled clothcrafters in Aht Urhgan weaved this over a span of ten years. It is a gift of utmost quality...and I humbly present it to you.
- **7757**: If you acquire any more segments of Ultima, I would greatly appreciate it if you could bring them to me.
- **7758**: Another segment from Ultima! You have my utmost gratitude. Please accept this in return.
- **7759**: Th-this is undeniably a fragment of the legendary Omega! Hadiyah! You must see this, Hadiyah!
- **7766**: The most skilled armorers in Aht Urhgan forged this over a span of ten years. It is a gift of utmost quality...and I humbly present it to you.
- **7767**: If you acquire any more segments of Omega, I would greatly appreciate it if you could bring them to me.
- **7768**: Another segment from Omega! You have my utmost gratitude. Please accept this in return.
- **7769**: Yes...it's unmistakable. A fragment of Omega, and a far more ancient specimen than any we've encountered thus far!
- **7770**: Now, Hadiyah will have no choice but to recognize my efforts! Wilhelm's day has come, and it shall be a glorious one! Muahahahahahaha!
- **7771**: <Ahem>... Word has it that there are other curious materials to be found in this otherworldly place. Deliver to me some samples along with this fragment, and I shall reward you with rare pieces of equipment from the Consortium's vaults.
- **7772**: Furthermore, should you already possess any pieces of equipment from a previous transaction, I would encourage you to deliver them to me along with this segment.
- **7773**: The Consortium has in its employ a smith of the highest renown. He shall work his genius upon your treasured possession.
- **7774**: I see you are a [man/woman] of your word. As am I, my friend. Take this, for you have earned it many times over.
- **7775**: Why, this is...! A segment of Ultima, and one unlike any I have seen before! Wherever, pray tell, did you come upon this?
- **7776**: Ah, but it matters not. What matters is that Kamaal--that blustering blowhard--will finally be forced to show me some respect! Heh! Hah! Heahaheahehahyah!
- **7777**: <Ahem>... Word has it that there are other curious materials to be found in this otherworldly place. Deliver to me some samples along with this fragment, and I shall reward you with rare pieces of equipment from the Consortium's vaults.
- **7778**: Furthermore, should you already possess any pieces of equipment from a previous transaction, I would encourage you to deliver them to me along with this segment.
- **7779**: The Consortium has in its employ a smith of the highest renown. He shall work his genius upon your treasured possession.
- **7780**: Ah, exactly what I had hoped to see! The Consortium is ever grateful for your contributions, friend. Take this, and may it serve you well.
- **8324**: Hello there, adventurer. Were you able to obtain a fragment from that monster?
- **8325**: <Player> showed the $3.
- **8326**: Forgive me, but what I am searching for is a fragment of a giant black creature that is like a machine but also of flesh and blood.
- **8327**: I hope you will be able to help me, great adventurer.
- **8328**: What!? Are you telling me that you are able to summon this dreadful monster!?
- **8329**: Hahaha. That is a most humorous jape. Next time you are able to summon one, please bring me the fragment that I require.

## Events

### Event 65535

#### Metadata

| Field        | Value   |
|--------------|---------|
| Entrypoint   | 0x0000  |
| Data Size    | 1 bytes |
| Instructions | 1       |

```
      00 01 02 03 04 05 06 07  08 09 0A 0B 0C 0D 0E 0F
      -- -- -- -- -- -- -- --  -- -- -- -- -- -- -- --
0000: 00                                                .               
```

#### Opcodes

```
  0: 0x0000 [0x00] END_REQSTACK()
```

### Event 325

#### Metadata

| Field        | Value    |
|--------------|----------|
| Entrypoint   | 0x0001   |
| Data Size    | 11 bytes |
| Instructions | 5        |

```
      00 01 02 03 04 05 06 07  08 09 0A 0B 0C 0D 0E 0F
      -- -- -- -- -- -- -- --  -- -- -- -- -- -- -- --
0000:    1E F0 FF FF 7F 1D 00  80 23 21 00               ........#!.    
```

#### Opcodes

```
  0: 0x0001 [0x1E] EventEntity looks at LocalPlayer and starts talking
  1: 0x0006 [0x1D] PRINT_EVENT_MESSAGE(message_id=7737*)
    → "You are an adventurer, are you not? My name is Wilhelm. I am a purchasing agent for the Brugaire Consortium."
  2: 0x0009 [0x23] WAIT_FOR_DIALOG_INTERACTION
  3: 0x000A [0x21] END_EVENT
  4: 0x000B [0x00] END_REQSTACK()
```

### Event 326

#### Metadata

| Field        | Value     |
|--------------|-----------|
| Entrypoint   | 0x000C    |
| Data Size    | 187 bytes |
| Instructions | 37        |

```
      00 01 02 03 04 05 06 07  08 09 0A 0B 0C 0D 0E 0F
      -- -- -- -- -- -- -- --  -- -- -- -- -- -- -- --
0000:                                      1E F0 FF FF              ....
0010: 7F 1D 00 80 23 5B 01 80  F8 FF FF 7F F8 FF FF 7F  ....#[..........
0020: 67 72 65 30 1D 02 80 23  1D 03 80 23 5B 01 80 F8  gre0...#...#[...
0030: FF FF 7F F8 FF FF 7F 74  6C 6B 30 1D 04 80 23 5B  .......tlk0...#[
0040: 01 80 F8 FF FF 7F F8 FF  FF 7F 74 6C 6B 31 24 05  ..........tlk1$.
0050: 80 06 80 06 80 25 02 00  10 07 80 00 79 00 5B 01  .....%......y.[.
0060: 80 F8 FF FF 7F F8 FF FF  7F 74 6C 6B 30 1D 08 80  .........tlk0...
0070: 23 03 01 10 09 80 01 C5  00 02 00 10 06 80 00 C5  #...............
0080: 00 5B 01 80 F8 FF FF 7F  F8 FF FF 7F 74 6C 6B 30  .[..........tlk0
0090: 1D 0A 80 23 1D 0B 80 23  5B 01 80 F8 FF FF 7F F8  ...#...#[.......
00A0: FF FF 7F 74 6C 6B 31 1D  0C 80 23 5B 01 80 F8 FF  ...tlk1...#[....
00B0: FF 7F F8 FF FF 7F 67 72  65 30 1D 0D 80 23 1D 0E  ......gre0...#..
00C0: 80 23 01 C5 00 21 00                              .#...!.         
```

#### Opcodes

```
  0: 0x000C [0x1E] EventEntity looks at LocalPlayer and starts talking
  1: 0x0011 [0x1D] PRINT_EVENT_MESSAGE(message_id=7737*)
    → "You are an adventurer, are you not? My name is Wilhelm. I am a purchasing agent for the Brugaire Consortium."
  2: 0x0014 [0x23] WAIT_FOR_DIALOG_INTERACTION
  3: 0x0015 [0x5B] LOAD_EXT_SCHEDULER: Load scheduler "gre0" with entities [EventEntity, EventEntity], work=65*
  4: 0x0024 [0x1D] PRINT_EVENT_MESSAGE(message_id=7738*)
    → "I have quite a bit of respect for you adventurers. I think it is marvelous that there are people in this world who are doing their best to help others."
  5: 0x0027 [0x23] WAIT_FOR_DIALOG_INTERACTION
  6: 0x0028 [0x1D] PRINT_EVENT_MESSAGE(message_id=7739*)
    → "This is just a passing rumor, but I heard that several people have ventured to another world and encountered extraordinary beings...in a mysterious place, enveloped in light!"
  7: 0x002B [0x23] WAIT_FOR_DIALOG_INTERACTION
  8: 0x002C [0x5B] LOAD_EXT_SCHEDULER: Load scheduler "tlk0" with entities [EventEntity, EventEntity], work=65*
  9: 0x003B [0x1D] PRINT_EVENT_MESSAGE(message_id=7740*)
    → "It is quite a far-fetched tale, if I say so myself! It would seem that such an absurd story cannot be true, and asking if you have been to such a land would be utterly ludicrous...but still, I cannot hold back my curiosity, if indeed you have seen this ethereal land."
 10: 0x003E [0x23] WAIT_FOR_DIALOG_INTERACTION
 11: 0x003F [0x5B] LOAD_EXT_SCHEDULER: Load scheduler "tlk1" with entities [EventEntity, EventEntity], work=65*
 12: 0x004E [0x24] CREATE_DIALOG(message_id=7741*, default_option=0*, option_flags=0*)
    → "Have you been to such a place? [Been there, done that!/Where again?]"
 13: 0x0055 [0x25] WAIT_DIALOG_SELECT()
 14: 0x0056 [0x02] IF !(Work_Zone[0] == 1*) GOTO 0x0079
 15: 0x005E [0x5B] LOAD_EXT_SCHEDULER: Load scheduler "tlk0" with entities [EventEntity, EventEntity], work=65*
 16: 0x006D [0x1D] PRINT_EVENT_MESSAGE(message_id=7742*)
    → "I apologize for my forward behavior. If you ever do see such a place, you must return and tell me of the wonders that you find!"
 17: 0x0070 [0x23] WAIT_FOR_DIALOG_INTERACTION
 18: 0x0071 [0x03] Work_Zone[1] = 1073741824*
 19: 0x0076 [0x01] GOTO 0x00C5
 20: 0x0079 [0x02] IF !(Work_Zone[0] == 0*) GOTO 0x00C5
 21: 0x0081 [0x5B] LOAD_EXT_SCHEDULER: Load scheduler "tlk0" with entities [EventEntity, EventEntity], work=65*
 22: 0x0090 [0x1D] PRINT_EVENT_MESSAGE(message_id=7743*)
    → "By Altana! You are far more courageous than the average adventurer! Then tell me, have you seen the giant black beasts which do not seem to be living creatures, but machines with flesh and blood?"
 23: 0x0093 [0x23] WAIT_FOR_DIALOG_INTERACTION
 24: 0x0094 [0x1D] PRINT_EVENT_MESSAGE(message_id=7744*)
    → "Truth be told, I am currently on orders from a certain nation to seek out such a beast."
 25: 0x0097 [0x23] WAIT_FOR_DIALOG_INTERACTION
 26: 0x0098 [0x5B] LOAD_EXT_SCHEDULER: Load scheduler "tlk1" with entities [EventEntity, EventEntity], work=65*
 27: 0x00A7 [0x1D] PRINT_EVENT_MESSAGE(message_id=7745*)
    → "I am not proposing anything so preposterous as attempting to capture the creature, however. I only require a fragment from one of the beasts. If you manage to get one, I would be most pleased if you brought it to me."
 28: 0x00AA [0x23] WAIT_FOR_DIALOG_INTERACTION
 29: 0x00AB [0x5B] LOAD_EXT_SCHEDULER: Load scheduler "gre0" with entities [EventEntity, EventEntity], work=65*
 30: 0x00BA [0x1D] PRINT_EVENT_MESSAGE(message_id=7746*)
    → "But of course, I shall not simply take without giving something in return. Let this be known to no one, but we at the Brugaire Consortium recently came into the possession of extravagant armor and apparel from the Near East. I may be able to make some...special arrangements...if you lend your assistance."
 31: 0x00BD [0x23] WAIT_FOR_DIALOG_INTERACTION
 32: 0x00BE [0x1D] PRINT_EVENT_MESSAGE(message_id=7747*)
    → "O illustrious adventurer, please accept my plea!"
 33: 0x00C1 [0x23] WAIT_FOR_DIALOG_INTERACTION
 34: 0x00C2 [0x01] GOTO 0x00C5

SUBROUTINE_00C5:
 35: 0x00C5 [0x21] END_EVENT
 36: 0x00C6 [0x00] END_REQSTACK()
```

### Event 327

#### Metadata

| Field        | Value    |
|--------------|----------|
| Entrypoint   | 0x00C7   |
| Data Size    | 11 bytes |
| Instructions | 5        |

```
      00 01 02 03 04 05 06 07  08 09 0A 0B 0C 0D 0E 0F
      -- -- -- -- -- -- -- --  -- -- -- -- -- -- -- --
00C0:                      1E  F0 FF FF 7F 1D 0F 80 23         ........#
00D0: 21 00                                             !.              
```

#### Opcodes

```
  0: 0x00C7 [0x1E] EventEntity looks at LocalPlayer and starts talking
  1: 0x00CC [0x1D] PRINT_EVENT_MESSAGE(message_id=7748*)
    → "I have heard that the black creatures reside in two places: at the top of an illuminated tower and at the bottom of a dark abyss. It also seems that there are two types: one that crawls on four legs and one that floats in the air. All I require is a segment from one of them. I implore you, please lend me your aid!"
  2: 0x00CF [0x23] WAIT_FOR_DIALOG_INTERACTION
  3: 0x00D0 [0x21] END_EVENT
  4: 0x00D1 [0x00] END_REQSTACK()
```

### Event 328

#### Metadata

| Field        | Value     |
|--------------|-----------|
| Entrypoint   | 0x00D2    |
| Data Size    | 620 bytes |
| Instructions | 69        |

```
      00 01 02 03 04 05 06 07  08 09 0A 0B 0C 0D 0E 0F
      -- -- -- -- -- -- -- --  -- -- -- -- -- -- -- --
00D0:       42 46 01 45 10 80  F0 FF FF 7F F0 FF FF 7F    BF.E..........
00E0: 66 64 6F 31 06 80 55 10  80 F0 FF FF 7F F0 FF FF  fdo1..U.........
00F0: 7F 66 64 6F 31 29 0A F0  FF FF 7F 29 45 11 80 F0  .fdo1).....)E...
0100: FF FF 7F F0 FF FF 7F 73  30 34 32 06 80 38 12 80  .......s042..8..
0110: 4E 00 7F 90 0F 01 45 10  80 F0 FF FF 7F F0 FF FF  N.....E.........
0120: 7F 66 64 69 31 06 80 03  01 10 02 10 1E F0 FF FF  .fdi1...........
0130: 7F 1D 13 80 1C 14 80 79  00 F0 FF FF 7F 7F 90 0F  .......y........
0140: 01 79 00 7F 90 0F 01 7E  90 0F 01 27 0A 7F 90 0F  .y.....~...'....
0150: 01 02 1E 7F 90 0F 01 23  2B 7F 90 0F 01 15 80 23  .......#+......#
0160: 2A 0A 7F 90 0F 01 79 00  7F 90 0F 01 F0 FF FF 7F  *.....y.........
0170: 52 11 80 F0 FF FF 7F F0  FF FF 7F 73 30 34 32 45  R..........s042E
0180: 11 80 F0 FF FF 7F F0 FF  FF 7F 73 30 34 33 06 80  ..........s043..
0190: 2B 7F 90 0F 01 16 80 23  45 10 80 F0 FF FF 7F F0  +......#E.......
01A0: FF FF 7F 66 64 6F 32 06  80 55 10 80 F0 FF FF 7F  ...fdo2..U......
01B0: F0 FF FF 7F 66 64 6F 32  66 17 80 7F 90 0F 01 7F  ....fdo2f.......
01C0: 90 0F 01 74 68 6B 31 1C  18 80 52 11 80 F0 FF FF  ...thk1...R.....
01D0: 7F F0 FF FF 7F 73 30 34  33 45 11 80 F0 FF FF 7F  .....s043E......
01E0: F0 FF FF 7F 73 30 34 34  06 80 45 10 80 F0 FF FF  ....s044..E.....
01F0: 7F F0 FF FF 7F 66 64 69  32 06 80 2B 7F 90 0F 01  .....fdi2..+....
0200: 19 80 23 66 17 80 7F 90  0F 01 7F 90 0F 01 74 68  ..#f..........th
0210: 6B 32 2B 7F 90 0F 01 1A  80 23 45 10 80 F8 FF FF  k2+......#E.....
0220: 7F F8 FF FF 7F 6F 76 6C  31 06 80 52 11 80 F0 FF  .....ovl1..R....
0230: FF 7F F0 FF FF 7F 73 30  34 34 45 11 80 F0 FF FF  ......s044E.....
0240: 7F F0 FF FF 7F 73 30 34  35 06 80 2B 7F 90 0F 01  .....s045..+....
0250: 1B 80 23 4B 7F 90 0F 01  1C 80 2B 7F 90 0F 01 1D  ..#K......+.....
0260: 80 23 27 0A 7F 90 0F 01  03 45 10 80 F0 FF FF 7F  .#'......E......
0270: F0 FF FF 7F 66 64 6F 32  06 80 55 10 80 F0 FF FF  ....fdo2..U.....
0280: 7F F0 FF FF 7F 66 64 6F  32 1E F0 FF FF 7F 4E 01  .....fdo2.....N.
0290: 7F 90 0F 01 79 00 F0 FF  FF 7F 7E 90 0F 01 52 11  ....y.....~...R.
02A0: 80 F0 FF FF 7F F0 FF FF  7F 73 30 34 35 45 11 80  .........s045E..
02B0: F0 FF FF 7F F0 FF FF 7F  73 30 34 36 06 80 45 10  ........s046..E.
02C0: 80 F0 FF FF 7F F0 FF FF  7F 66 64 69 31 06 80 1C  .........fdi1...
02D0: 18 80 5B 01 80 F8 FF FF  7F F8 FF FF 7F 70 61 73  ..[..........pas
02E0: 30 1D 1E 80 23 1D 1F 80  23 45 10 80 F0 FF FF 7F  0...#...#E......
02F0: F0 FF FF 7F 66 64 6F 32  06 80 55 10 80 F0 FF FF  ....fdo2..U.....
0300: 7F F0 FF FF 7F 66 64 6F  32 52 11 80 F0 FF FF 7F  .....fdo2R......
0310: F0 FF FF 7F 73 30 34 36  46 00 45 20 80 F8 FF FF  ....s046F.E ....
0320: 7F F8 FF FF 7F 71 73 74  63 06 80 45 10 80 F0 FF  .....qstc..E....
0330: FF 7F F0 FF FF 7F 66 64  69 31 06 80 21 00        ......fdi1..!.  
```

#### Opcodes

```
  0: 0x00D2 [0x42] SET_CLI_EVENT_CANCEL_DATA()
  1: 0x00D3 [0x46] CAMERA_CONTROL: Disable user control
  2: 0x00D5 [0x45] LOAD_SCHEDULED_TASK: Load scheduler "fdo1" with entities [LocalPlayer, LocalPlayer], work=[200*, 0*]
  3: 0x00E6 [0x55] WAIT_LOAD_SCHEDULER: Wait for scheduler "fdo1" with entities [LocalPlayer, LocalPlayer], work=200*
  4: 0x00F5 [0x29] REQ_SET_WAIT(priority=0x0A, entity_id=LocalPlayer, tag_num=0x29)
  5: 0x00FC [0x45] LOAD_SCHEDULED_TASK: Load scheduler "s042" with entities [LocalPlayer, LocalPlayer], work=[2*, 0*]
  6: 0x010D [0x38] SET_CLIENT_EVENT_MODE(mode=3*)
  7: 0x0110 [0x4E] SET_ENTITY_HIDE_FLAG: Show Kamaal (ID: 17797247/0x010F907F)
  8: 0x0116 [0x45] LOAD_SCHEDULED_TASK: Load scheduler "fdi1" with entities [LocalPlayer, LocalPlayer], work=[200*, 0*]
  9: 0x0127 [0x03] Work_Zone[1] = Work_Zone[2]
 10: 0x012C [0x1E] EventEntity looks at LocalPlayer and starts talking
 11: 0x0131 [0x1D] PRINT_EVENT_MESSAGE(message_id=7749*)
    → "Th-this is undeniably a fragment of the legendary Ultima! Kamaal! You must see this, Kamaal!"
 12: 0x0134 [0x1C] WAIT(90* ticks)
 13: 0x0137 [0x79] LocalPlayer looks at Kamaal (ID: 17797247/0x010F907F) (Basic look)
 14: 0x0141 [0x79] Kamaal (ID: 17797247/0x010F907F) looks at Wilhelm (ID: 17797246/0x010F907E) (Basic look)
 15: 0x014B [0x27] REQ_SET(priority=0x0A, entity_id=Kamaal (ID: 17797247/0x010F907F), tag_num=0x02)
 16: 0x0152 [0x1E] EventEntity looks at Kamaal (ID: 17797247/0x010F907F) and starts talking
 17: 0x0157 [0x23] WAIT_FOR_DIALOG_INTERACTION
 18: 0x0158 [0x2B] Kamaal (ID: 17797247/0x010F907F) [7750*]:
    → "You fool! I only need to be called once. I do have ears!"
 19: 0x015F [0x23] WAIT_FOR_DIALOG_INTERACTION
 20: 0x0160 [0x2A] GET_REQ_LEVEL(level=10, entity_id=Kamaal (ID: 17797247/0x010F907F))
 21: 0x0166 [0x79] Kamaal (ID: 17797247/0x010F907F) looks at LocalPlayer (Basic look)
 22: 0x0170 [0x52] END_LOAD_SCHEDULER: End scheduler "s042" with entities [LocalPlayer, LocalPlayer], work=2*
 23: 0x017F [0x45] LOAD_SCHEDULED_TASK: Load scheduler "s043" with entities [LocalPlayer, LocalPlayer], work=[2*, 0*]
 24: 0x0190 [0x2B] Kamaal (ID: 17797247/0x010F907F) [7751*]:
    → "Show it to me."
 25: 0x0197 [0x23] WAIT_FOR_DIALOG_INTERACTION
 26: 0x0198 [0x45] LOAD_SCHEDULED_TASK: Load scheduler "fdo2" with entities [LocalPlayer, LocalPlayer], work=[200*, 0*]
 27: 0x01A9 [0x55] WAIT_LOAD_SCHEDULER: Wait for scheduler "fdo2" with entities [LocalPlayer, LocalPlayer], work=200*
 28: 0x01B8 [0x66] LOAD_EXT_SCHEDULER_MAIN: Load scheduler "thk1" with entities [Kamaal (ID: 17797247/0x010F907F), Kamaal (ID: 17797247/0x010F907F)], work=9*
 29: 0x01C7 [0x1C] WAIT(30* ticks)
 30: 0x01CA [0x52] END_LOAD_SCHEDULER: End scheduler "s043" with entities [LocalPlayer, LocalPlayer], work=2*
 31: 0x01D9 [0x45] LOAD_SCHEDULED_TASK: Load scheduler "s044" with entities [LocalPlayer, LocalPlayer], work=[2*, 0*]
 32: 0x01EA [0x45] LOAD_SCHEDULED_TASK: Load scheduler "fdi2" with entities [LocalPlayer, LocalPlayer], work=[200*, 0*]
 33: 0x01FB [0x2B] Kamaal (ID: 17797247/0x010F907F) [7752*]:
    → "Th-this is...artificial skin!? And an artificial frame, too... This is a segment taken from Ultima, without question."
 34: 0x0202 [0x23] WAIT_FOR_DIALOG_INTERACTION
 35: 0x0203 [0x66] LOAD_EXT_SCHEDULER_MAIN: Load scheduler "thk2" with entities [Kamaal (ID: 17797247/0x010F907F), Kamaal (ID: 17797247/0x010F907F)], work=9*
 36: 0x0212 [0x2B] Kamaal (ID: 17797247/0x010F907F) [7753*]:
    → "Adventurer, you have my gratitude. The restoration project in my homeland will be able to move into new research now, thanks to you."
 37: 0x0219 [0x23] WAIT_FOR_DIALOG_INTERACTION
 38: 0x021A [0x45] LOAD_SCHEDULED_TASK: Load scheduler "ovl1" with entities [EventEntity, EventEntity], work=[200*, 0*]
 39: 0x022B [0x52] END_LOAD_SCHEDULER: End scheduler "s044" with entities [LocalPlayer, LocalPlayer], work=2*
 40: 0x023A [0x45] LOAD_SCHEDULED_TASK: Load scheduler "s045" with entities [LocalPlayer, LocalPlayer], work=[2*, 0*]
 41: 0x024B [0x2B] Kamaal (ID: 17797247/0x010F907F) [7754*]:
    → "In the near future, our nation may need the help of distinguished adventurers such as yourself. I hope to see you again in my homeland, then."
 42: 0x0252 [0x23] WAIT_FOR_DIALOG_INTERACTION
 43: 0x0253 [0x4B] UPDATE_ENTITY_YAW(entity=Kamaal (ID: 17797247/0x010F907F), yaw=17.0°*)
 44: 0x025A [0x2B] Kamaal (ID: 17797247/0x010F907F) [7755*]:
    → "Rifaqat. Give this [gentleman his/lady her] reward. I think [he/she] will be most pleased."
 45: 0x0261 [0x23] WAIT_FOR_DIALOG_INTERACTION
 46: 0x0262 [0x27] REQ_SET(priority=0x0A, entity_id=Kamaal (ID: 17797247/0x010F907F), tag_num=0x03)
 47: 0x0269 [0x45] LOAD_SCHEDULED_TASK: Load scheduler "fdo2" with entities [LocalPlayer, LocalPlayer], work=[200*, 0*]
 48: 0x027A [0x55] WAIT_LOAD_SCHEDULER: Wait for scheduler "fdo2" with entities [LocalPlayer, LocalPlayer], work=200*
 49: 0x0289 [0x1E] EventEntity looks at LocalPlayer and starts talking
 50: 0x028E [0x4E] SET_ENTITY_HIDE_FLAG: Hide Kamaal (ID: 17797247/0x010F907F)
 51: 0x0294 [0x79] LocalPlayer looks at Wilhelm (ID: 17797246/0x010F907E) (Basic look)
 52: 0x029E [0x52] END_LOAD_SCHEDULER: End scheduler "s045" with entities [LocalPlayer, LocalPlayer], work=2*
 53: 0x02AD [0x45] LOAD_SCHEDULED_TASK: Load scheduler "s046" with entities [LocalPlayer, LocalPlayer], work=[2*, 0*]
 54: 0x02BE [0x45] LOAD_SCHEDULED_TASK: Load scheduler "fdi1" with entities [LocalPlayer, LocalPlayer], work=[200*, 0*]
 55: 0x02CF [0x1C] WAIT(30* ticks)
 56: 0x02D2 [0x5B] LOAD_EXT_SCHEDULER: Load scheduler "pas0" with entities [EventEntity, EventEntity], work=65*
 57: 0x02E1 [0x1D] PRINT_EVENT_MESSAGE(message_id=7756*)
    → "The most skilled clothcrafters in Aht Urhgan weaved this over a span of ten years. It is a gift of utmost quality...and I humbly present it to you."
 58: 0x02E4 [0x23] WAIT_FOR_DIALOG_INTERACTION
 59: 0x02E5 [0x1D] PRINT_EVENT_MESSAGE(message_id=7757*)
    → "If you acquire any more segments of Ultima, I would greatly appreciate it if you could bring them to me."
 60: 0x02E8 [0x23] WAIT_FOR_DIALOG_INTERACTION
 61: 0x02E9 [0x45] LOAD_SCHEDULED_TASK: Load scheduler "fdo2" with entities [LocalPlayer, LocalPlayer], work=[200*, 0*]
 62: 0x02FA [0x55] WAIT_LOAD_SCHEDULER: Wait for scheduler "fdo2" with entities [LocalPlayer, LocalPlayer], work=200*
 63: 0x0309 [0x52] END_LOAD_SCHEDULER: End scheduler "s046" with entities [LocalPlayer, LocalPlayer], work=2*
 64: 0x0318 [0x46] CAMERA_CONTROL: Restore default settings
 65: 0x031A [0x45] LOAD_SCHEDULED_TASK: Load scheduler "qstc" with entities [EventEntity, EventEntity], work=[201*, 0*]
 66: 0x032B [0x45] LOAD_SCHEDULED_TASK: Load scheduler "fdi1" with entities [LocalPlayer, LocalPlayer], work=[200*, 0*]
 67: 0x033C [0x21] END_EVENT
 68: 0x033D [0x00] END_REQSTACK()
```

### Event 329

#### Metadata

| Field        | Value    |
|--------------|----------|
| Entrypoint   | 0x033E   |
| Data Size    | 53 bytes |
| Instructions | 11       |

```
      00 01 02 03 04 05 06 07  08 09 0A 0B 0C 0D 0E 0F
      -- -- -- -- -- -- -- --  -- -- -- -- -- -- -- --
0330:                                            42 03                B.
0340: 01 10 02 10 1E F0 FF FF  7F 1D 21 80 23 5B 01 80  ..........!.#[..
0350: F8 FF FF 7F F8 FF FF 7F  70 61 73 30 1D 1F 80 23  ........pas0...#
0360: 45 20 80 F8 FF FF 7F F8  FF FF 7F 71 73 74 63 06  E .........qstc.
0370: 80 21 00                                          .!.             
```

#### Opcodes

```
  0: 0x033E [0x42] SET_CLI_EVENT_CANCEL_DATA()
  1: 0x033F [0x03] Work_Zone[1] = Work_Zone[2]
  2: 0x0344 [0x1E] EventEntity looks at LocalPlayer and starts talking
  3: 0x0349 [0x1D] PRINT_EVENT_MESSAGE(message_id=7758*)
    → "Another segment from Ultima! You have my utmost gratitude. Please accept this in return."
  4: 0x034C [0x23] WAIT_FOR_DIALOG_INTERACTION
  5: 0x034D [0x5B] LOAD_EXT_SCHEDULER: Load scheduler "pas0" with entities [EventEntity, EventEntity], work=65*
  6: 0x035C [0x1D] PRINT_EVENT_MESSAGE(message_id=7757*)
    → "If you acquire any more segments of Ultima, I would greatly appreciate it if you could bring them to me."
  7: 0x035F [0x23] WAIT_FOR_DIALOG_INTERACTION
  8: 0x0360 [0x45] LOAD_SCHEDULED_TASK: Load scheduler "qstc" with entities [EventEntity, EventEntity], work=[201*, 0*]
  9: 0x0371 [0x21] END_EVENT
 10: 0x0372 [0x00] END_REQSTACK()
```

### Event 330

#### Metadata

| Field        | Value     |
|--------------|-----------|
| Entrypoint   | 0x0373    |
| Data Size    | 588 bytes |
| Instructions | 67        |

```
      00 01 02 03 04 05 06 07  08 09 0A 0B 0C 0D 0E 0F
      -- -- -- -- -- -- -- --  -- -- -- -- -- -- -- --
0370:          42 46 01 45 10  80 F0 FF FF 7F F0 FF FF     BF.E.........
0380: 7F 66 64 6F 31 06 80 55  10 80 F0 FF FF 7F F0 FF  .fdo1..U........
0390: FF 7F 66 64 6F 31 29 0A  F0 FF FF 7F 29 45 11 80  ..fdo1).....)E..
03A0: F0 FF FF 7F F0 FF FF 7F  73 30 34 32 06 80 38 12  ........s042..8.
03B0: 80 4E 00 80 90 0F 01 45  10 80 F0 FF FF 7F F0 FF  .N.....E........
03C0: FF 7F 66 64 69 31 06 80  03 01 10 02 10 1E F0 FF  ..fdi1..........
03D0: FF 7F 1D 22 80 1C 14 80  79 00 F0 FF FF 7F 80 90  ..."....y.......
03E0: 0F 01 79 00 80 90 0F 01  7E 90 0F 01 27 0A 80 90  ..y.....~...'...
03F0: 0F 01 02 1E 80 90 0F 01  23 2B 80 90 0F 01 23 80  ........#+....#.
0400: 23 2A 0A 80 90 0F 01 79  00 80 90 0F 01 F0 FF FF  #*.....y........
0410: 7F 2B 80 90 0F 01 24 80  23 45 10 80 F0 FF FF 7F  .+....$.#E......
0420: F0 FF FF 7F 66 64 6F 32  06 80 55 10 80 F0 FF FF  ....fdo2..U.....
0430: 7F F0 FF FF 7F 66 64 6F  32 66 25 80 80 90 0F 01  .....fdo2f%.....
0440: 80 90 0F 01 74 68 6B 31  1C 18 80 52 11 80 F0 FF  ....thk1...R....
0450: FF 7F F0 FF FF 7F 73 30  34 33 45 11 80 F0 FF FF  ......s043E.....
0460: 7F F0 FF FF 7F 73 30 34  34 06 80 45 10 80 F0 FF  .....s044..E....
0470: FF 7F F0 FF FF 7F 66 64  69 32 06 80 2B 80 90 0F  ......fdi2..+...
0480: 01 26 80 23 66 25 80 80  90 0F 01 80 90 0F 01 74  .&.#f%.........t
0490: 68 6B 32 2B 80 90 0F 01  27 80 23 45 10 80 F8 FF  hk2+....'.#E....
04A0: FF 7F F8 FF FF 7F 6F 76  6C 31 06 80 52 11 80 F0  ......ovl1..R...
04B0: FF FF 7F F0 FF FF 7F 73  30 34 34 45 11 80 F0 FF  .......s044E....
04C0: FF 7F F0 FF FF 7F 73 30  34 35 06 80 2B 80 90 0F  ......s045..+...
04D0: 01 28 80 23 4B 7F 90 0F  01 1C 80 2B 80 90 0F 01  .(.#K......+....
04E0: 29 80 23 27 0A 80 90 0F  01 03 45 10 80 F0 FF FF  ).#'......E.....
04F0: 7F F0 FF FF 7F 66 64 6F  32 06 80 55 10 80 F0 FF  .....fdo2..U....
0500: FF 7F F0 FF FF 7F 66 64  6F 32 1E F0 FF FF 7F 4E  ......fdo2.....N
0510: 01 80 90 0F 01 79 00 F0  FF FF 7F 7E 90 0F 01 52  .....y.....~...R
0520: 11 80 F0 FF FF 7F F0 FF  FF 7F 73 30 34 35 45 11  ..........s045E.
0530: 80 F0 FF FF 7F F0 FF FF  7F 73 30 34 36 06 80 45  .........s046..E
0540: 10 80 F0 FF FF 7F F0 FF  FF 7F 66 64 69 31 06 80  ..........fdi1..
0550: 1C 18 80 5B 01 80 F8 FF  FF 7F F8 FF FF 7F 70 61  ...[..........pa
0560: 73 30 1D 2A 80 23 1D 2B  80 23 45 10 80 F0 FF FF  s0.*.#.+.#E.....
0570: 7F F0 FF FF 7F 66 64 6F  32 06 80 55 10 80 F0 FF  .....fdo2..U....
0580: FF 7F F0 FF FF 7F 66 64  6F 32 52 11 80 F0 FF FF  ......fdo2R.....
0590: 7F F0 FF FF 7F 73 30 34  36 46 00 45 20 80 F8 FF  .....s046F.E ...
05A0: FF 7F F8 FF FF 7F 71 73  74 63 06 80 45 10 80 F0  ......qstc..E...
05B0: FF FF 7F F0 FF FF 7F 66  64 69 31 06 80 21 00     .......fdi1..!. 
```

#### Opcodes

```
  0: 0x0373 [0x42] SET_CLI_EVENT_CANCEL_DATA()
  1: 0x0374 [0x46] CAMERA_CONTROL: Disable user control
  2: 0x0376 [0x45] LOAD_SCHEDULED_TASK: Load scheduler "fdo1" with entities [LocalPlayer, LocalPlayer], work=[200*, 0*]
  3: 0x0387 [0x55] WAIT_LOAD_SCHEDULER: Wait for scheduler "fdo1" with entities [LocalPlayer, LocalPlayer], work=200*
  4: 0x0396 [0x29] REQ_SET_WAIT(priority=0x0A, entity_id=LocalPlayer, tag_num=0x29)
  5: 0x039D [0x45] LOAD_SCHEDULED_TASK: Load scheduler "s042" with entities [LocalPlayer, LocalPlayer], work=[2*, 0*]
  6: 0x03AE [0x38] SET_CLIENT_EVENT_MODE(mode=3*)
  7: 0x03B1 [0x4E] SET_ENTITY_HIDE_FLAG: Show Hadiyah (ID: 17797248/0x010F9080)
  8: 0x03B7 [0x45] LOAD_SCHEDULED_TASK: Load scheduler "fdi1" with entities [LocalPlayer, LocalPlayer], work=[200*, 0*]
  9: 0x03C8 [0x03] Work_Zone[1] = Work_Zone[2]
 10: 0x03CD [0x1E] EventEntity looks at LocalPlayer and starts talking
 11: 0x03D2 [0x1D] PRINT_EVENT_MESSAGE(message_id=7759*)
    → "Th-this is undeniably a fragment of the legendary Omega! Hadiyah! You must see this, Hadiyah!"
 12: 0x03D5 [0x1C] WAIT(90* ticks)
 13: 0x03D8 [0x79] LocalPlayer looks at Hadiyah (ID: 17797248/0x010F9080) (Basic look)
 14: 0x03E2 [0x79] Hadiyah (ID: 17797248/0x010F9080) looks at Wilhelm (ID: 17797246/0x010F907E) (Basic look)
 15: 0x03EC [0x27] REQ_SET(priority=0x0A, entity_id=Hadiyah (ID: 17797248/0x010F9080), tag_num=0x02)
 16: 0x03F3 [0x1E] EventEntity looks at Hadiyah (ID: 17797248/0x010F9080) and starts talking
 17: 0x03F8 [0x23] WAIT_FOR_DIALOG_INTERACTION
 18: 0x03F9 [0x2B] Hadiyah (ID: 17797248/0x010F9080) [7760*]:
    → "Insolent fool! Who gave you the right to speak my name? Have you no idea who I am? I am a blue mage! You must show proper respect around me!"
 19: 0x0400 [0x23] WAIT_FOR_DIALOG_INTERACTION
 20: 0x0401 [0x2A] GET_REQ_LEVEL(level=10, entity_id=Hadiyah (ID: 17797248/0x010F9080))
 21: 0x0407 [0x79] Hadiyah (ID: 17797248/0x010F9080) looks at LocalPlayer (Basic look)
 22: 0x0411 [0x2B] Hadiyah (ID: 17797248/0x010F9080) [7761*]:
    → "Hurry up and show me what you have, you blithering milksop!"
 23: 0x0418 [0x23] WAIT_FOR_DIALOG_INTERACTION
 24: 0x0419 [0x45] LOAD_SCHEDULED_TASK: Load scheduler "fdo2" with entities [LocalPlayer, LocalPlayer], work=[200*, 0*]
 25: 0x042A [0x55] WAIT_LOAD_SCHEDULER: Wait for scheduler "fdo2" with entities [LocalPlayer, LocalPlayer], work=200*
 26: 0x0439 [0x66] LOAD_EXT_SCHEDULER_MAIN: Load scheduler "thk1" with entities [Hadiyah (ID: 17797248/0x010F9080), Hadiyah (ID: 17797248/0x010F9080)], work=19*
 27: 0x0448 [0x1C] WAIT(30* ticks)
 28: 0x044B [0x52] END_LOAD_SCHEDULER: End scheduler "s043" with entities [LocalPlayer, LocalPlayer], work=2*
 29: 0x045A [0x45] LOAD_SCHEDULED_TASK: Load scheduler "s044" with entities [LocalPlayer, LocalPlayer], work=[2*, 0*]
 30: 0x046B [0x45] LOAD_SCHEDULED_TASK: Load scheduler "fdi2" with entities [LocalPlayer, LocalPlayer], work=[200*, 0*]
 31: 0x047C [0x2B] Hadiyah (ID: 17797248/0x010F9080) [7762*]:
    → "This... It is all artificial! The flesh...the blood...marvelous! This is most certainly a segment of Omega!"
 32: 0x0483 [0x23] WAIT_FOR_DIALOG_INTERACTION
 33: 0x0484 [0x66] LOAD_EXT_SCHEDULER_MAIN: Load scheduler "thk2" with entities [Hadiyah (ID: 17797248/0x010F9080), Hadiyah (ID: 17797248/0x010F9080)], work=19*
 34: 0x0493 [0x2B] Hadiyah (ID: 17797248/0x010F9080) [7763*]:
    → "May your name be praised, adventurer! With this, restoration of the light divinity shall proceed in leaps and bounds!"
 35: 0x049A [0x23] WAIT_FOR_DIALOG_INTERACTION
 36: 0x049B [0x45] LOAD_SCHEDULED_TASK: Load scheduler "ovl1" with entities [EventEntity, EventEntity], work=[200*, 0*]
 37: 0x04AC [0x52] END_LOAD_SCHEDULER: End scheduler "s044" with entities [LocalPlayer, LocalPlayer], work=2*
 38: 0x04BB [0x45] LOAD_SCHEDULED_TASK: Load scheduler "s045" with entities [LocalPlayer, LocalPlayer], work=[2*, 0*]
 39: 0x04CC [0x2B] Hadiyah (ID: 17797248/0x010F9080) [7764*]:
    → "It appears that these "adventurers" are even more remarkable than I have heard. I would very much appreciate it if you would come to visit our great nation someday!"
 40: 0x04D3 [0x23] WAIT_FOR_DIALOG_INTERACTION
 41: 0x04D4 [0x4B] UPDATE_ENTITY_YAW(entity=Kamaal (ID: 17797247/0x010F907F), yaw=17.0°*)
 42: 0x04DB [0x2B] Hadiyah (ID: 17797248/0x010F9080) [7765*]:
    → "Rifaqat, get off your tail and give this adventurer [his/her] reward, now! Let us hope [he/she] finds it most useful on [his/her] adventures."
 43: 0x04E2 [0x23] WAIT_FOR_DIALOG_INTERACTION
 44: 0x04E3 [0x27] REQ_SET(priority=0x0A, entity_id=Hadiyah (ID: 17797248/0x010F9080), tag_num=0x03)
 45: 0x04EA [0x45] LOAD_SCHEDULED_TASK: Load scheduler "fdo2" with entities [LocalPlayer, LocalPlayer], work=[200*, 0*]
 46: 0x04FB [0x55] WAIT_LOAD_SCHEDULER: Wait for scheduler "fdo2" with entities [LocalPlayer, LocalPlayer], work=200*
 47: 0x050A [0x1E] EventEntity looks at LocalPlayer and starts talking
 48: 0x050F [0x4E] SET_ENTITY_HIDE_FLAG: Hide Hadiyah (ID: 17797248/0x010F9080)
 49: 0x0515 [0x79] LocalPlayer looks at Wilhelm (ID: 17797246/0x010F907E) (Basic look)
 50: 0x051F [0x52] END_LOAD_SCHEDULER: End scheduler "s045" with entities [LocalPlayer, LocalPlayer], work=2*
 51: 0x052E [0x45] LOAD_SCHEDULED_TASK: Load scheduler "s046" with entities [LocalPlayer, LocalPlayer], work=[2*, 0*]
 52: 0x053F [0x45] LOAD_SCHEDULED_TASK: Load scheduler "fdi1" with entities [LocalPlayer, LocalPlayer], work=[200*, 0*]
 53: 0x0550 [0x1C] WAIT(30* ticks)
 54: 0x0553 [0x5B] LOAD_EXT_SCHEDULER: Load scheduler "pas0" with entities [EventEntity, EventEntity], work=65*
 55: 0x0562 [0x1D] PRINT_EVENT_MESSAGE(message_id=7766*)
    → "The most skilled armorers in Aht Urhgan forged this over a span of ten years. It is a gift of utmost quality...and I humbly present it to you."
 56: 0x0565 [0x23] WAIT_FOR_DIALOG_INTERACTION
 57: 0x0566 [0x1D] PRINT_EVENT_MESSAGE(message_id=7767*)
    → "If you acquire any more segments of Omega, I would greatly appreciate it if you could bring them to me."
 58: 0x0569 [0x23] WAIT_FOR_DIALOG_INTERACTION
 59: 0x056A [0x45] LOAD_SCHEDULED_TASK: Load scheduler "fdo2" with entities [LocalPlayer, LocalPlayer], work=[200*, 0*]
 60: 0x057B [0x55] WAIT_LOAD_SCHEDULER: Wait for scheduler "fdo2" with entities [LocalPlayer, LocalPlayer], work=200*
 61: 0x058A [0x52] END_LOAD_SCHEDULER: End scheduler "s046" with entities [LocalPlayer, LocalPlayer], work=2*
 62: 0x0599 [0x46] CAMERA_CONTROL: Restore default settings
 63: 0x059B [0x45] LOAD_SCHEDULED_TASK: Load scheduler "qstc" with entities [EventEntity, EventEntity], work=[201*, 0*]
 64: 0x05AC [0x45] LOAD_SCHEDULED_TASK: Load scheduler "fdi1" with entities [LocalPlayer, LocalPlayer], work=[200*, 0*]
 65: 0x05BD [0x21] END_EVENT
 66: 0x05BE [0x00] END_REQSTACK()
```

### Event 331

#### Metadata

| Field        | Value    |
|--------------|----------|
| Entrypoint   | 0x05BF   |
| Data Size    | 38 bytes |
| Instructions | 10       |

```
      00 01 02 03 04 05 06 07  08 09 0A 0B 0C 0D 0E 0F
      -- -- -- -- -- -- -- --  -- -- -- -- -- -- -- --
05B0:                                               42                 B
05C0: 03 01 10 02 10 1E F0 FF  FF 7F 1D 2C 80 23 1D 2B  ...........,.#.+
05D0: 80 23 45 20 80 F8 FF FF  7F F8 FF FF 7F 71 73 74  .#E .........qst
05E0: 63 06 80 21 00                                    c..!.           
```

#### Opcodes

```
  0: 0x05BF [0x42] SET_CLI_EVENT_CANCEL_DATA()
  1: 0x05C0 [0x03] Work_Zone[1] = Work_Zone[2]
  2: 0x05C5 [0x1E] EventEntity looks at LocalPlayer and starts talking
  3: 0x05CA [0x1D] PRINT_EVENT_MESSAGE(message_id=7768*)
    → "Another segment from Omega! You have my utmost gratitude. Please accept this in return."
  4: 0x05CD [0x23] WAIT_FOR_DIALOG_INTERACTION
  5: 0x05CE [0x1D] PRINT_EVENT_MESSAGE(message_id=7767*)
    → "If you acquire any more segments of Omega, I would greatly appreciate it if you could bring them to me."
  6: 0x05D1 [0x23] WAIT_FOR_DIALOG_INTERACTION
  7: 0x05D2 [0x45] LOAD_SCHEDULED_TASK: Load scheduler "qstc" with entities [EventEntity, EventEntity], work=[201*, 0*]
  8: 0x05E3 [0x21] END_EVENT
  9: 0x05E4 [0x00] END_REQSTACK()
```

### Event 341

#### Metadata

| Field        | Value    |
|--------------|----------|
| Entrypoint   | 0x05E5   |
| Data Size    | 27 bytes |
| Instructions | 13       |

```
      00 01 02 03 04 05 06 07  08 09 0A 0B 0C 0D 0E 0F
      -- -- -- -- -- -- -- --  -- -- -- -- -- -- -- --
05E0:                1E F0 FF  FF 7F 1D 2D 80 23 1D 2E       ......-.#..
05F0: 80 23 1D 2F 80 23 1D 30  80 23 1D 31 80 23 21 00  .#./.#.0.#.1.#!.
```

#### Opcodes

```
  0: 0x05E5 [0x1E] EventEntity looks at LocalPlayer and starts talking
  1: 0x05EA [0x1D] PRINT_EVENT_MESSAGE(message_id=7769*)
    → "Yes...it's unmistakable. A fragment of Omega, and a far more ancient specimen than any we've encountered thus far!"
  2: 0x05ED [0x23] WAIT_FOR_DIALOG_INTERACTION
  3: 0x05EE [0x1D] PRINT_EVENT_MESSAGE(message_id=7770*)
    → "Now, Hadiyah will have no choice but to recognize my efforts! Wilhelm's day has come, and it shall be a glorious one! Muahahahahahaha!"
  4: 0x05F1 [0x23] WAIT_FOR_DIALOG_INTERACTION
  5: 0x05F2 [0x1D] PRINT_EVENT_MESSAGE(message_id=7771*)
    → "<Ahem>... Word has it that there are other curious materials to be found in this otherworldly place. Deliver to me some samples along with this fragment, and I shall reward you with rare pieces of equipment from the Consortium's vaults."
  6: 0x05F5 [0x23] WAIT_FOR_DIALOG_INTERACTION
  7: 0x05F6 [0x1D] PRINT_EVENT_MESSAGE(message_id=7772*)
    → "Furthermore, should you already possess any pieces of equipment from a previous transaction, I would encourage you to deliver them to me along with this segment."
  8: 0x05F9 [0x23] WAIT_FOR_DIALOG_INTERACTION
  9: 0x05FA [0x1D] PRINT_EVENT_MESSAGE(message_id=7773*)
    → "The Consortium has in its employ a smith of the highest renown. He shall work his genius upon your treasured possession."
 10: 0x05FD [0x23] WAIT_FOR_DIALOG_INTERACTION
 11: 0x05FE [0x21] END_EVENT
 12: 0x05FF [0x00] END_REQSTACK()
```

### Event 342

#### Metadata

| Field        | Value    |
|--------------|----------|
| Entrypoint   | 0x0600   |
| Data Size    | 33 bytes |
| Instructions | 9        |

```
      00 01 02 03 04 05 06 07  08 09 0A 0B 0C 0D 0E 0F
      -- -- -- -- -- -- -- --  -- -- -- -- -- -- -- --
0600: 42 1E F0 FF FF 7F 1D 32  80 23 1D 2B 80 23 45 20  B......2.#.+.#E 
0610: 80 F8 FF FF 7F F8 FF FF  7F 71 73 74 63 06 80 21  .........qstc..!
0620: 00                                                .               
```

#### Opcodes

```
  0: 0x0600 [0x42] SET_CLI_EVENT_CANCEL_DATA()
  1: 0x0601 [0x1E] EventEntity looks at LocalPlayer and starts talking
  2: 0x0606 [0x1D] PRINT_EVENT_MESSAGE(message_id=7774*)
    → "I see you are a [man/woman] of your word. As am I, my friend. Take this, for you have earned it many times over."
  3: 0x0609 [0x23] WAIT_FOR_DIALOG_INTERACTION
  4: 0x060A [0x1D] PRINT_EVENT_MESSAGE(message_id=7767*)
    → "If you acquire any more segments of Omega, I would greatly appreciate it if you could bring them to me."
  5: 0x060D [0x23] WAIT_FOR_DIALOG_INTERACTION
  6: 0x060E [0x45] LOAD_SCHEDULED_TASK: Load scheduler "qstc" with entities [EventEntity, EventEntity], work=[201*, 0*]
  7: 0x061F [0x21] END_EVENT
  8: 0x0620 [0x00] END_REQSTACK()
```

### Event 343

#### Metadata

| Field        | Value    |
|--------------|----------|
| Entrypoint   | 0x0621   |
| Data Size    | 27 bytes |
| Instructions | 13       |

```
      00 01 02 03 04 05 06 07  08 09 0A 0B 0C 0D 0E 0F
      -- -- -- -- -- -- -- --  -- -- -- -- -- -- -- --
0620:    1E F0 FF FF 7F 1D 33  80 23 1D 34 80 23 1D 35   ......3.#.4.#.5
0630: 80 23 1D 36 80 23 1D 37  80 23 21 00              .#.6.#.7.#!.    
```

#### Opcodes

```
  0: 0x0621 [0x1E] EventEntity looks at LocalPlayer and starts talking
  1: 0x0626 [0x1D] PRINT_EVENT_MESSAGE(message_id=7775*)
    → "Why, this is...! A segment of Ultima, and one unlike any I have seen before! Wherever, pray tell, did you come upon this?"
  2: 0x0629 [0x23] WAIT_FOR_DIALOG_INTERACTION
  3: 0x062A [0x1D] PRINT_EVENT_MESSAGE(message_id=7776*)
    → "Ah, but it matters not. What matters is that Kamaal--that blustering blowhard--will finally be forced to show me some respect! Heh! Hah! Heahaheahehahyah!"
  4: 0x062D [0x23] WAIT_FOR_DIALOG_INTERACTION
  5: 0x062E [0x1D] PRINT_EVENT_MESSAGE(message_id=7777*)
    → "<Ahem>... Word has it that there are other curious materials to be found in this otherworldly place. Deliver to me some samples along with this fragment, and I shall reward you with rare pieces of equipment from the Consortium's vaults."
  6: 0x0631 [0x23] WAIT_FOR_DIALOG_INTERACTION
  7: 0x0632 [0x1D] PRINT_EVENT_MESSAGE(message_id=7778*)
    → "Furthermore, should you already possess any pieces of equipment from a previous transaction, I would encourage you to deliver them to me along with this segment."
  8: 0x0635 [0x23] WAIT_FOR_DIALOG_INTERACTION
  9: 0x0636 [0x1D] PRINT_EVENT_MESSAGE(message_id=7779*)
    → "The Consortium has in its employ a smith of the highest renown. He shall work his genius upon your treasured possession."
 10: 0x0639 [0x23] WAIT_FOR_DIALOG_INTERACTION
 11: 0x063A [0x21] END_EVENT
 12: 0x063B [0x00] END_REQSTACK()
```

### Event 344

#### Metadata

| Field        | Value    |
|--------------|----------|
| Entrypoint   | 0x063C   |
| Data Size    | 33 bytes |
| Instructions | 9        |

```
      00 01 02 03 04 05 06 07  08 09 0A 0B 0C 0D 0E 0F
      -- -- -- -- -- -- -- --  -- -- -- -- -- -- -- --
0630:                                      42 1E F0 FF              B...
0640: FF 7F 1D 38 80 23 1D 1F  80 23 45 20 80 F8 FF FF  ...8.#...#E ....
0650: 7F F8 FF FF 7F 71 73 74  63 06 80 21 00           .....qstc..!.   
```

#### Opcodes

```
  0: 0x063C [0x42] SET_CLI_EVENT_CANCEL_DATA()
  1: 0x063D [0x1E] EventEntity looks at LocalPlayer and starts talking
  2: 0x0642 [0x1D] PRINT_EVENT_MESSAGE(message_id=7780*)
    → "Ah, exactly what I had hoped to see! The Consortium is ever grateful for your contributions, friend. Take this, and may it serve you well."
  3: 0x0645 [0x23] WAIT_FOR_DIALOG_INTERACTION
  4: 0x0646 [0x1D] PRINT_EVENT_MESSAGE(message_id=7757*)
    → "If you acquire any more segments of Ultima, I would greatly appreciate it if you could bring them to me."
  5: 0x0649 [0x23] WAIT_FOR_DIALOG_INTERACTION
  6: 0x064A [0x45] LOAD_SCHEDULED_TASK: Load scheduler "qstc" with entities [EventEntity, EventEntity], work=[201*, 0*]
  7: 0x065B [0x21] END_EVENT
  8: 0x065C [0x00] END_REQSTACK()
```

### Event 394

#### Metadata

| Field        | Value    |
|--------------|----------|
| Entrypoint   | 0x065D   |
| Data Size    | 70 bytes |
| Instructions | 20       |

```
      00 01 02 03 04 05 06 07  08 09 0A 0B 0C 0D 0E 0F
      -- -- -- -- -- -- -- --  -- -- -- -- -- -- -- --
0650:                                         1E F0 FF               ...
0660: FF 7F 4A F0 FF FF 7F F8  FF FF 7F 6F 70 1C 18 80  ..J........op...
0670: 5B 01 80 F8 FF FF 7F F8  FF FF 7F 67 72 65 30 1D  [..........gre0.
0680: 39 80 1C 14 80 23 27 10  F0 FF FF 7F 07 1C 3A 80  9....#'.......:.
0690: 48 3B 80 1C 3C 80 1D 3D  80 23 1D 3E 80 1C 3A 80  H;..<..=.#.>..:.
06A0: 23 21 00                                          #!.             
```

#### Opcodes

```
  0: 0x065D [0x1E] EventEntity looks at LocalPlayer and starts talking
  1: 0x0662 [0x4A] LocalPlayer looks at EventEntity
  2: 0x066B [0x6F] WAIT_FRAME_DELAY: Yield until WaitTime reaches zero
  3: 0x066C [0x70] WAIT_ENTITY_RENDER_FLAG: Wait while EventEntity->Render.Flags3 bit 2 is set (cancel turn if not)
  4: 0x066D [0x1C] WAIT(30* ticks)
  5: 0x0670 [0x5B] LOAD_EXT_SCHEDULER: Load scheduler "gre0" with entities [EventEntity, EventEntity], work=65*
  6: 0x067F [0x1D] PRINT_EVENT_MESSAGE(message_id=8324*)
    → "Hello there, adventurer. Were you able to obtain a fragment from that monster?"
  7: 0x0682 [0x1C] WAIT(90* ticks)
  8: 0x0685 [0x23] WAIT_FOR_DIALOG_INTERACTION
  9: 0x0686 [0x27] REQ_SET(priority=0x10, entity_id=LocalPlayer, tag_num=0x07)
 10: 0x068D [0x1C] WAIT(60* ticks)
 11: 0x0690 [0x48] [System] [8325*]:
    → "<Player> showed the $3."
 12: 0x0693 [0x1C] WAIT(120* ticks)
 13: 0x0696 [0x1D] PRINT_EVENT_MESSAGE(message_id=8326*)
    → "Forgive me, but what I am searching for is a fragment of a giant black creature that is like a machine but also of flesh and blood."
 14: 0x0699 [0x23] WAIT_FOR_DIALOG_INTERACTION
 15: 0x069A [0x1D] PRINT_EVENT_MESSAGE(message_id=8327*)
    → "I hope you will be able to help me, great adventurer."
 16: 0x069D [0x1C] WAIT(60* ticks)
 17: 0x06A0 [0x23] WAIT_FOR_DIALOG_INTERACTION
 18: 0x06A1 [0x21] END_EVENT
 19: 0x06A2 [0x00] END_REQSTACK()
```

### Event 395

#### Metadata

| Field        | Value    |
|--------------|----------|
| Entrypoint   | 0x06A3   |
| Data Size    | 97 bytes |
| Instructions | 21       |

```
      00 01 02 03 04 05 06 07  08 09 0A 0B 0C 0D 0E 0F
      -- -- -- -- -- -- -- --  -- -- -- -- -- -- -- --
06A0:          1E F0 FF FF 7F  4A F0 FF FF 7F F8 FF FF     .....J.......
06B0: 7F 6F 70 1C 18 80 5B 01  80 F8 FF FF 7F F8 FF FF  .op...[.........
06C0: 7F 67 72 65 30 1D 39 80  1C 14 80 23 27 10 F0 FF  .gre0.9....#'...
06D0: FF 7F 06 1C 3F 80 1D 40  80 23 5B 01 80 F8 FF FF  ....?..@.#[.....
06E0: 7F F8 FF FF 7F 74 6C 6B  30 1D 41 80 1C 3C 80 23  .....tlk0.A..<.#
06F0: 5B 01 80 F8 FF FF 7F F8  FF FF 7F 73 74 64 30 1C  [..........std0.
0700: 3A 80 21 00                                       :.!.            
```

#### Opcodes

```
  0: 0x06A3 [0x1E] EventEntity looks at LocalPlayer and starts talking
  1: 0x06A8 [0x4A] LocalPlayer looks at EventEntity
  2: 0x06B1 [0x6F] WAIT_FRAME_DELAY: Yield until WaitTime reaches zero
  3: 0x06B2 [0x70] WAIT_ENTITY_RENDER_FLAG: Wait while EventEntity->Render.Flags3 bit 2 is set (cancel turn if not)
  4: 0x06B3 [0x1C] WAIT(30* ticks)
  5: 0x06B6 [0x5B] LOAD_EXT_SCHEDULER: Load scheduler "gre0" with entities [EventEntity, EventEntity], work=65*
  6: 0x06C5 [0x1D] PRINT_EVENT_MESSAGE(message_id=8324*)
    → "Hello there, adventurer. Were you able to obtain a fragment from that monster?"
  7: 0x06C8 [0x1C] WAIT(90* ticks)
  8: 0x06CB [0x23] WAIT_FOR_DIALOG_INTERACTION
  9: 0x06CC [0x27] REQ_SET(priority=0x10, entity_id=LocalPlayer, tag_num=0x06)
 10: 0x06D3 [0x1C] WAIT(150* ticks)
 11: 0x06D6 [0x1D] PRINT_EVENT_MESSAGE(message_id=8328*)
    → "What!? Are you telling me that you are able to summon this dreadful monster!?"
 12: 0x06D9 [0x23] WAIT_FOR_DIALOG_INTERACTION
 13: 0x06DA [0x5B] LOAD_EXT_SCHEDULER: Load scheduler "tlk0" with entities [EventEntity, EventEntity], work=65*
 14: 0x06E9 [0x1D] PRINT_EVENT_MESSAGE(message_id=8329*)
    → "Hahaha. That is a most humorous jape. Next time you are able to summon one, please bring me the fragment that I require."
 15: 0x06EC [0x1C] WAIT(120* ticks)
 16: 0x06EF [0x23] WAIT_FOR_DIALOG_INTERACTION
 17: 0x06F0 [0x5B] LOAD_EXT_SCHEDULER: Load scheduler "std0" with entities [EventEntity, EventEntity], work=65*
 18: 0x06FF [0x1C] WAIT(60* ticks)
 19: 0x0702 [0x21] END_EVENT
 20: 0x0703 [0x00] END_REQSTACK()
```
