# 17797132 - Celestina

## Common Data

| Field            | Value            |
|------------------|------------------|
| Zone             | Mhaura (ID: 249) |
| Block Size       | 1520 bytes       |
| Total Events     | 3                |
| References Count | 45               |

## List of Events

| Event ID              | Entrypoint   |   Size |   Instructions |
|-----------------------|--------------|--------|----------------|
| [65535](#event-65535) | 0x0000       |      1 |              1 |
| [126](#event-126)     | 0x0001       |    382 |             56 |
| [127](#event-127)     | 0x017F       |    928 |            110 |

## DAT References (imed_data)

|   Index | Hex Value   |   Dec Value |
|---------|-------------|-------------|
|       0 | 0x000A      |          10 |
|       1 | 0x1B46      |        6982 |
|       2 | 0x1B47      |        6983 |
|       3 | 0x1B48      |        6984 |
|       4 | 0x1B49      |        6985 |
|       5 | 0x000B      |          11 |
|       6 | 0x1B4A      |        6986 |
|       7 | 0x1B4B      |        6987 |
|       8 | 0x0000      |           0 |
|       9 | 0x1B4C      |        6988 |
|      10 | 0x1B4D      |        6989 |
|      11 | 0x1B4E      |        6990 |
|      12 | 0x1B4F      |        6991 |
|      13 | 0x1B50      |        6992 |
|      14 | 0x0046      |          70 |
|      15 | 0x0001      |           1 |
|      16 | 0x1B51      |        6993 |
|      17 | 0x01E8      |         488 |
|      18 | 0x00C8      |         200 |
|      19 | 0x003C      |          60 |
|      20 | 0x0003      |           3 |
|      21 | 0xFFFF68F5  |  4294928629 |
|      22 | 0x10D42     |       68930 |
|      23 | 0xFFFFC180  |  4294951296 |
|      24 | 0x09D5      |        2517 |
|      25 | 0x0013      |          19 |
|      26 | 0x009F      |         159 |
|      27 | 0x0095      |         149 |
|      28 | 0x007F      |         127 |
|      29 | 0x1B52      |        6994 |
|      30 | 0x1B53      |        6995 |
|      31 | 0x1B55      |        6997 |
|      32 | 0x1B58      |        7000 |
|      33 | 0x1B5B      |        7003 |
|      34 | 0x1B5C      |        7004 |
|      35 | 0x1B5D      |        7005 |
|      36 | 0x1B5E      |        7006 |
|      37 | 0x1B5F      |        7007 |
|      38 | 0x1B61      |        7009 |
|      39 | 0x1B64      |        7012 |
|      40 | 0x1B65      |        7013 |
|      41 | 0x1B66      |        7014 |
|      42 | 0x0069      |         105 |
|      43 | 0x0047      |          71 |
|      44 | 0x00C9      |         201 |

## String References

- **6982**: Oh, you're the one from the pier... I must apologize about my mother.
- **6983**: My father was a sailor... No one has seen him or his ship for over a year. People are saying the pirates got him.
- **6984**: My mother has to move on... If only she could be convinced that Father won't be coming back...
- **6985**: I'd like to believe that he's still alive somewhere... But we can't go on like this. Not anymore.
- **6986**: Can you...that is, if it's not too much to ask... Would you help me convince my mother?
- **6987**: Help Celestina? [Yes./No.]
- **6988**: Really? Oh, thank you!
- **6989**: There's something that Father told me once that might help us. He said that the $0 he wore was very rare.
- **6990**: And I recently met a sailor who said he saw a pirate wearing one!
- **6991**: Could you bring me that $0? If it is really Father's...I think Mother and I can finally move on.
- **6992**: Please! Take back Father's $0 from that pirate!
- **6993**: I see... If you ever change your mind...I'll be here.
- **6994**: You... You got it. So the pirates really...
- **6995**: I've thought long and hard since we last spoke, and I've decided to stand by Mother's side and believe in Father's return.
- **6997**: Mother!?
- **7000**: No, Mother! Listen, I...
- **7003**: Mother, please! Listen to me!
- **7005**: Even if a pirate had this, it doesn't necessarily mean Father's gone!
- **7006**: I'll believe... I'll wait with you. So please, don't close your eyes on reality.
- **7007**: We must look at the facts, and still keep faith. Father will return safely. We must believe, together.
- **7009**: Father's safe. I know it! He'll be back soon, I'm sure!
- **7012**: ...
- **7013**: Thank you for bringing the amulet. Here, it's not much, but I want you to have this.
- **7014**: We'll be fine, thanks to you. Father will be coming back soon, I know it.

## Events

### Event 65535

#### Metadata

| Field        | Value   |
|--------------|---------|
| Entrypoint   | 0x0000  |
| Data Size    | 1 bytes |
| Instructions | 1       |

```
      00 01 02 03 04 05 06 07  08 09 0A 0B 0C 0D 0E 0F
      -- -- -- -- -- -- -- --  -- -- -- -- -- -- -- --
0000: 00                                                .               
```

#### Opcodes

```
  0: 0x0000 [0x00] END_REQSTACK()
```

### Event 126

#### Metadata

| Field        | Value     |
|--------------|-----------|
| Entrypoint   | 0x0001    |
| Data Size    | 382 bytes |
| Instructions | 44        |

```
      00 01 02 03 04 05 06 07  08 09 0A 0B 0C 0D 0E 0F
      -- -- -- -- -- -- -- --  -- -- -- -- -- -- -- --
0000:    1E F0 FF FF 7F 66 00  80 F8 FF FF 7F F8 FF FF   .....f.........
0010: 7F 74 6C 6B 30 1D 01 80  23 1D 02 80 23 1D 03 80  .tlk0...#...#...
0020: 23 1D 04 80 23 53 F8 FF  FF 7F F8 FF FF 7F 74 6C  #...#S........tl
0030: 6B 30 66 05 80 F8 FF FF  7F F8 FF FF 7F 75 74 6C  k0f..........utl
0040: 30 1D 06 80 23 24 07 80  08 80 08 80 25 02 00 10  0...#$......%...
0050: 08 80 00 28 01 53 F8 FF  FF 7F F8 FF FF 7F 75 74  ...(.S........ut
0060: 6C 30 66 05 80 F8 FF FF  7F F8 FF FF 7F 75 74 6C  l0f..........utl
0070: 31 53 F8 FF FF 7F F8 FF  FF 7F 75 74 6C 31 66 00  1S........utl1f.
0080: 80 F8 FF FF 7F F8 FF FF  7F 74 6C 6B 30 1D 09 80  .........tlk0...
0090: 23 1D 0A 80 23 1D 0B 80  23 53 F8 FF FF 7F F8 FF  #...#...#S......
00A0: FF 7F 74 6C 6B 30 66 05  80 F8 FF FF 7F F8 FF FF  ..tlk0f.........
00B0: 7F 6E 74 6C 30 1D 0C 80  23 53 F8 FF FF 7F F8 FF  .ntl0...#S......
00C0: FF 7F 6E 74 6C 30 66 05  80 F8 FF FF 7F F8 FF FF  ..ntl0f.........
00D0: 7F 6E 74 6C 31 53 F8 FF  FF 7F F8 FF FF 7F 6E 74  .ntl1S........nt
00E0: 6C 31 66 05 80 F8 FF FF  7F F8 FF FF 7F 61 69 67  l1f..........aig
00F0: 30 1D 0D 80 23 53 F8 FF  FF 7F F8 FF FF 7F 61 69  0...#S........ai
0100: 67 30 66 05 80 F8 FF FF  7F F8 FF FF 7F 61 69 67  g0f..........aig
0110: 31 53 F8 FF FF 7F F8 FF  FF 7F 61 69 67 31 03 01  1S........aig1..
0120: 10 0E 80 21 00 01 7E 01  02 00 10 0F 80 00 7E 01  ...!..~.......~.
0130: 53 F8 FF FF 7F F8 FF FF  7F 75 74 6C 30 1D 10 80  S........utl0...
0140: 66 05 80 F8 FF FF 7F F8  FF FF 7F 75 74 6C 31 53  f..........utl1S
0150: F8 FF FF 7F F8 FF FF 7F  75 74 6C 31 66 05 80 F8  ........utl1f...
0160: FF FF 7F F8 FF FF 7F 6B  61 73 30 53 F8 FF FF 7F  .......kas0S....
0170: F8 FF FF 7F 6B 61 73 30  23 21 00 01 7E 01 00     ....kas0#!..~.. 
```

#### Opcodes

```
  0: 0x0001 [0x1E] EventEntity looks at LocalPlayer and starts talking
  1: 0x0006 [0x66] LOAD_EXT_SCHEDULER_MAIN: Load scheduler "tlk0" with entities [EventEntity, EventEntity], work=10*
  2: 0x0015 [0x1D] PRINT_EVENT_MESSAGE(message_id=6982*)
    → "Oh, you're the one from the pier... I must apologize about my mother."
  3: 0x0018 [0x23] WAIT_FOR_DIALOG_INTERACTION
  4: 0x0019 [0x1D] PRINT_EVENT_MESSAGE(message_id=6983*)
    → "My father was a sailor... No one has seen him or his ship for over a year. People are saying the pirates got him."
  5: 0x001C [0x23] WAIT_FOR_DIALOG_INTERACTION
  6: 0x001D [0x1D] PRINT_EVENT_MESSAGE(message_id=6984*)
    → "My mother has to move on... If only she could be convinced that Father won't be coming back..."
  7: 0x0020 [0x23] WAIT_FOR_DIALOG_INTERACTION
  8: 0x0021 [0x1D] PRINT_EVENT_MESSAGE(message_id=6985*)
    → "I'd like to believe that he's still alive somewhere... But we can't go on like this. Not anymore."
  9: 0x0024 [0x23] WAIT_FOR_DIALOG_INTERACTION
 10: 0x0025 [0x53] WAIT_SCHEDULER_TASK: Wait for scheduler "tlk0" with entities [EventEntity, EventEntity]
 11: 0x0032 [0x66] LOAD_EXT_SCHEDULER_MAIN: Load scheduler "utl0" with entities [EventEntity, EventEntity], work=11*
 12: 0x0041 [0x1D] PRINT_EVENT_MESSAGE(message_id=6986*)
    → "Can you...that is, if it's not too much to ask... Would you help me convince my mother?"
 13: 0x0044 [0x23] WAIT_FOR_DIALOG_INTERACTION
 14: 0x0045 [0x24] CREATE_DIALOG(message_id=6987*, default_option=0*, option_flags=0*)
    → "Help Celestina? [Yes./No.]"
 15: 0x004C [0x25] WAIT_DIALOG_SELECT()
 16: 0x004D [0x02] IF !(Work_Zone[0] == 0*) GOTO 0x0128
 17: 0x0055 [0x53] WAIT_SCHEDULER_TASK: Wait for scheduler "utl0" with entities [EventEntity, EventEntity]
 18: 0x0062 [0x66] LOAD_EXT_SCHEDULER_MAIN: Load scheduler "utl1" with entities [EventEntity, EventEntity], work=11*
 19: 0x0071 [0x53] WAIT_SCHEDULER_TASK: Wait for scheduler "utl1" with entities [EventEntity, EventEntity]
 20: 0x007E [0x66] LOAD_EXT_SCHEDULER_MAIN: Load scheduler "tlk0" with entities [EventEntity, EventEntity], work=10*
 21: 0x008D [0x1D] PRINT_EVENT_MESSAGE(message_id=6988*)
    → "Really? Oh, thank you!"
 22: 0x0090 [0x23] WAIT_FOR_DIALOG_INTERACTION
 23: 0x0091 [0x1D] PRINT_EVENT_MESSAGE(message_id=6989*)
    → "There's something that Father told me once that might help us. He said that the $0 he wore was very rare."
 24: 0x0094 [0x23] WAIT_FOR_DIALOG_INTERACTION
 25: 0x0095 [0x1D] PRINT_EVENT_MESSAGE(message_id=6990*)
    → "And I recently met a sailor who said he saw a pirate wearing one!"
 26: 0x0098 [0x23] WAIT_FOR_DIALOG_INTERACTION
 27: 0x0099 [0x53] WAIT_SCHEDULER_TASK: Wait for scheduler "tlk0" with entities [EventEntity, EventEntity]
 28: 0x00A6 [0x66] LOAD_EXT_SCHEDULER_MAIN: Load scheduler "ntl0" with entities [EventEntity, EventEntity], work=11*
 29: 0x00B5 [0x1D] PRINT_EVENT_MESSAGE(message_id=6991*)
    → "Could you bring me that $0? If it is really Father's...I think Mother and I can finally move on."
 30: 0x00B8 [0x23] WAIT_FOR_DIALOG_INTERACTION
 31: 0x00B9 [0x53] WAIT_SCHEDULER_TASK: Wait for scheduler "ntl0" with entities [EventEntity, EventEntity]
 32: 0x00C6 [0x66] LOAD_EXT_SCHEDULER_MAIN: Load scheduler "ntl1" with entities [EventEntity, EventEntity], work=11*
 33: 0x00D5 [0x53] WAIT_SCHEDULER_TASK: Wait for scheduler "ntl1" with entities [EventEntity, EventEntity]
 34: 0x00E2 [0x66] LOAD_EXT_SCHEDULER_MAIN: Load scheduler "aig0" with entities [EventEntity, EventEntity], work=11*
 35: 0x00F1 [0x1D] PRINT_EVENT_MESSAGE(message_id=6992*)
    → "Please! Take back Father's $0 from that pirate!"
 36: 0x00F4 [0x23] WAIT_FOR_DIALOG_INTERACTION
 37: 0x00F5 [0x53] WAIT_SCHEDULER_TASK: Wait for scheduler "aig0" with entities [EventEntity, EventEntity]
 38: 0x0102 [0x66] LOAD_EXT_SCHEDULER_MAIN: Load scheduler "aig1" with entities [EventEntity, EventEntity], work=11*
 39: 0x0111 [0x53] WAIT_SCHEDULER_TASK: Wait for scheduler "aig1" with entities [EventEntity, EventEntity]
 40: 0x011E [0x03] Work_Zone[1] = 70*
 41: 0x0123 [0x21] END_EVENT
 42: 0x0124 [0x00] END_REQSTACK()

SUBROUTINE_017E:
 43: 0x017E [0x00] END_REQSTACK()
```

#### Data or dead code:

```
# Dead code (unreachable instructions):
     0x0125 [0x01] GOTO 0x017E
     0x017B [0x01] GOTO 0x017E
```

### Event 127

#### Metadata

| Field        | Value     |
|--------------|-----------|
| Entrypoint   | 0x017F    |
| Data Size    | 928 bytes |
| Instructions | 110       |

```
      00 01 02 03 04 05 06 07  08 09 0A 0B 0C 0D 0E 0F
      -- -- -- -- -- -- -- --  -- -- -- -- -- -- -- --
0170:                                               42                 B
0180: 20 01 75 00 11 80 75 01  45 12 80 F0 FF FF 7F F0   .u...u.E.......
0190: FF FF 7F 66 64 6F 30 08  80 5D 08 80 13 80 55 12  ...fdo0..]....U.
01A0: 80 F0 FF FF 7F F0 FF FF  7F 66 64 6F 30 38 14 80  .........fdo08..
01B0: 37 15 80 16 80 17 80 18  80 38 19 80 29 80 F0 FF  7........8..)...
01C0: FF 7F 16 46 01 5C 00 1A  80 5C 01 1A 80 45 1B 80  ...F.\...\...E..
01D0: F0 FF FF 7F F0 FF FF 7F  73 65 30 35 08 80 45 12  ........se05..E.
01E0: 80 F0 FF FF 7F F0 FF FF  7F 66 64 69 30 08 80 5D  .........fdi0..]
01F0: 1C 80 00 80 55 1B 80 F0  FF FF 7F F0 FF FF 7F 73  ....U..........s
0200: 65 30 35 55 12 80 F0 FF  FF 7F F0 FF FF 7F 66 64  e05U..........fd
0210: 69 30 66 05 80 F8 FF FF  7F F8 FF FF 7F 75 74 6C  i0f..........utl
0220: 30 1D 1D 80 23 53 F8 FF  FF 7F F8 FF FF 7F 75 74  0...#S........ut
0230: 6C 30 66 05 80 F8 FF FF  7F F8 FF FF 7F 75 74 6C  l0f..........utl
0240: 31 53 F8 FF FF 7F F8 FF  FF 7F 75 74 6C 31 66 00  1S........utl1f.
0250: 80 F8 FF FF 7F F8 FF FF  7F 74 6C 6B 30 1D 1E 80  .........tlk0...
0260: 23 4A F0 FF FF 7F 0D 90  0F 01 29 80 0D 90 0F 01  #J........).....
0270: 02 55 1B 80 F0 FF FF 7F  F0 FF FF 7F 73 65 30 34  .U..........se04
0280: 45 1B 80 F0 FF FF 7F F0  FF FF 7F 73 65 30 33 08  E..........se03.
0290: 80 53 F8 FF FF 7F F8 FF  FF 7F 74 6C 6B 30 1E 0D  .S........tlk0..
02A0: 90 0F 01 55 1B 80 F0 FF  FF 7F F0 FF FF 7F 73 65  ...U..........se
02B0: 30 33 1D 1F 80 29 80 0D  90 0F 01 03 6F 70 23 29  03...)......op#)
02C0: 80 0D 90 0F 01 04 45 1B  80 F0 FF FF 7F F0 FF FF  ......E.........
02D0: 7F 73 65 30 39 08 80 55  1B 80 F0 FF FF 7F F0 FF  .se09..U........
02E0: FF 7F 73 65 30 39 66 05  80 F8 FF FF 7F F8 FF FF  ..se09f.........
02F0: 7F 6E 74 6C 30 1D 20 80  23 27 80 0D 90 0F 01 05  .ntl0. .#'......
0300: 53 F8 FF FF 7F F8 FF FF  7F 6E 74 6C 30 66 05 80  S........ntl0f..
0310: F8 FF FF 7F F8 FF FF 7F  6E 74 6C 31 53 F8 FF FF  ........ntl1S...
0320: 7F F8 FF FF 7F 6E 74 6C  31 2A 80 0D 90 0F 01 45  .....ntl1*.....E
0330: 1B 80 F0 FF FF 7F F0 FF  FF 7F 73 65 30 39 08 80  ..........se09..
0340: 55 1B 80 F0 FF FF 7F F0  FF FF 7F 73 65 30 39 66  U..........se09f
0350: 05 80 F8 FF FF 7F F8 FF  FF 7F 6E 74 6C 30 1D 21  ..........ntl0.!
0360: 80 23 2B 0D 90 0F 01 22  80 53 F8 FF FF 7F F8 FF  .#+....".S......
0370: FF 7F 6E 74 6C 30 66 05  80 F8 FF FF 7F F8 FF FF  ..ntl0f.........
0380: 7F 6E 74 6C 31 53 F8 FF  FF 7F F8 FF FF 7F 6E 74  .ntl1S........nt
0390: 6C 31 23 66 05 80 F8 FF  FF 7F F8 FF FF 7F 6E 67  l1#f..........ng
03A0: 74 30 1D 23 80 23 1D 24  80 23 1D 25 80 23 53 F8  t0.#.#.$.#.%.#S.
03B0: FF FF 7F F8 FF FF 7F 6E  67 74 30 66 05 80 F8 FF  .......ngt0f....
03C0: FF 7F F8 FF FF 7F 6E 67  74 31 53 F8 FF FF 7F F8  ......ngt1S.....
03D0: FF FF 7F 6E 67 74 31 29  80 0D 90 0F 01 06 66 00  ...ngt1)......f.
03E0: 80 F8 FF FF 7F F8 FF FF  7F 74 6C 6B 30 1D 26 80  .........tlk0.&.
03F0: 23 53 F8 FF FF 7F F8 FF  FF 7F 74 6C 6B 30 45 1B  #S........tlk0E.
0400: 80 F0 FF FF 7F F0 FF FF  7F 73 65 31 30 08 80 55  .........se10..U
0410: 1B 80 F0 FF FF 7F F0 FF  FF 7F 73 65 31 30 29 80  ..........se10).
0420: 0D 90 0F 01 07 66 05 80  F8 FF FF 7F F8 FF FF 7F  .....f..........
0430: 75 6E 7A 30 1D 27 80 23  53 F8 FF FF 7F F8 FF FF  unz0.'.#S.......
0440: 7F 75 6E 7A 30 45 1B 80  F0 FF FF 7F F0 FF FF 7F  .unz0E..........
0450: 73 65 30 35 08 80 1E F0  FF FF 7F 55 1B 80 F0 FF  se05.......U....
0460: FF 7F F0 FF FF 7F 73 65  30 35 27 80 0D 90 0F 01  ......se05'.....
0470: 08 6F 70 1D 28 80 66 05  80 F8 FF FF 7F F8 FF FF  .op.(.f.........
0480: 7F 6B 61 73 30 53 F8 FF  FF 7F F8 FF FF 7F 6B 61  .kas0S........ka
0490: 73 30 66 05 80 F8 FF FF  7F F8 FF FF 7F 70 61 73  s0f..........pas
04A0: 30 53 F8 FF FF 7F F8 FF  FF 7F 70 61 73 30 23 66  0S........pas0#f
04B0: 00 80 F8 FF FF 7F F8 FF  FF 7F 74 6C 6B 30 1D 29  ..........tlk0.)
04C0: 80 23 45 12 80 F0 FF FF  7F F0 FF FF 7F 66 64 6F  .#E..........fdo
04D0: 30 08 80 5D 08 80 13 80  55 12 80 F0 FF FF 7F F0  0..]....U.......
04E0: FF FF 7F 66 64 6F 30 46  00 5C 00 2A 80 5C 01 2A  ...fdo0F.\.*.\.*
04F0: 80 45 12 80 F0 FF FF 7F  F0 FF FF 7F 66 64 69 30  .E..........fdi0
0500: 08 80 5D 1C 80 00 80 03  01 10 2B 80 45 2C 80 F0  ..].......+.E,..
0510: FF FF 7F F0 FF FF 7F 71  73 74 63 08 80 21 00     .......qstc..!. 
```

#### Opcodes

```
  0: 0x017F [0x42] SET_CLI_EVENT_CANCEL_DATA()
  1: 0x0180 [0x20] SET_CLI_EVENT_UC_FLAG: Lock player control
  2: 0x0182 [0x75] LOAD_ROOM(Load indoor room, room=488*)
  3: 0x0186 [0x75] LOAD_ROOM(No action)
  4: 0x0188 [0x45] LOAD_SCHEDULED_TASK: Load scheduler "fdo0" with entities [LocalPlayer, LocalPlayer], work=[200*, 0*]
  5: 0x0199 [0x5D] SET_MUSIC_VOLUME(volume=0*, fade_time=60*)
  6: 0x019E [0x55] WAIT_LOAD_SCHEDULER: Wait for scheduler "fdo0" with entities [LocalPlayer, LocalPlayer], work=200*
  7: 0x01AD [0x38] SET_CLIENT_EVENT_MODE(mode=3*)
  8: 0x01B0 [0x37] UPDATE_EVENT_POSITION_AND_DIR: x=-38.667*, z=68.930*, y=-16.000*, direction=221.2°*
  9: 0x01B9 [0x38] SET_CLIENT_EVENT_MODE(mode=19*)
 10: 0x01BC [0x29] REQ_SET_WAIT(priority=0x80, entity_id=LocalPlayer, tag_num=0x16)
 11: 0x01C3 [0x46] CAMERA_CONTROL: Disable user control
 12: 0x01C5 [0x5C] MUSIC_CONTROL: Set Idle (Day) music to song 159*
 13: 0x01C9 [0x5C] MUSIC_CONTROL: Set Idle (Night) music to song 159*
 14: 0x01CD [0x45] LOAD_SCHEDULED_TASK: Load scheduler "se05" with entities [LocalPlayer, LocalPlayer], work=[149*, 0*]
 15: 0x01DE [0x45] LOAD_SCHEDULED_TASK: Load scheduler "fdi0" with entities [LocalPlayer, LocalPlayer], work=[200*, 0*]
 16: 0x01EF [0x5D] SET_MUSIC_VOLUME(volume=127*, fade_time=10*)
 17: 0x01F4 [0x55] WAIT_LOAD_SCHEDULER: Wait for scheduler "se05" with entities [LocalPlayer, LocalPlayer], work=149*
 18: 0x0203 [0x55] WAIT_LOAD_SCHEDULER: Wait for scheduler "fdi0" with entities [LocalPlayer, LocalPlayer], work=200*
 19: 0x0212 [0x66] LOAD_EXT_SCHEDULER_MAIN: Load scheduler "utl0" with entities [EventEntity, EventEntity], work=11*
 20: 0x0221 [0x1D] PRINT_EVENT_MESSAGE(message_id=6994*)
    → "You... You got it. So the pirates really..."
 21: 0x0224 [0x23] WAIT_FOR_DIALOG_INTERACTION
 22: 0x0225 [0x53] WAIT_SCHEDULER_TASK: Wait for scheduler "utl0" with entities [EventEntity, EventEntity]
 23: 0x0232 [0x66] LOAD_EXT_SCHEDULER_MAIN: Load scheduler "utl1" with entities [EventEntity, EventEntity], work=11*
 24: 0x0241 [0x53] WAIT_SCHEDULER_TASK: Wait for scheduler "utl1" with entities [EventEntity, EventEntity]
 25: 0x024E [0x66] LOAD_EXT_SCHEDULER_MAIN: Load scheduler "tlk0" with entities [EventEntity, EventEntity], work=10*
 26: 0x025D [0x1D] PRINT_EVENT_MESSAGE(message_id=6995*)
    → "I've thought long and hard since we last spoke, and I've decided to stand by Mother's side and believe in Father's return."
 27: 0x0260 [0x23] WAIT_FOR_DIALOG_INTERACTION
 28: 0x0261 [0x4A] LocalPlayer looks at Blandine (ID: 17797133/0x010F900D)
 29: 0x026A [0x29] REQ_SET_WAIT(priority=0x80, entity_id=Blandine (ID: 17797133/0x010F900D), tag_num=0x02)
 30: 0x0271 [0x55] WAIT_LOAD_SCHEDULER: Wait for scheduler "se04" with entities [LocalPlayer, LocalPlayer], work=149*
 31: 0x0280 [0x45] LOAD_SCHEDULED_TASK: Load scheduler "se03" with entities [LocalPlayer, LocalPlayer], work=[149*, 0*]
 32: 0x0291 [0x53] WAIT_SCHEDULER_TASK: Wait for scheduler "tlk0" with entities [EventEntity, EventEntity]
 33: 0x029E [0x1E] EventEntity looks at Blandine (ID: 17797133/0x010F900D) and starts talking
 34: 0x02A3 [0x55] WAIT_LOAD_SCHEDULER: Wait for scheduler "se03" with entities [LocalPlayer, LocalPlayer], work=149*
 35: 0x02B2 [0x1D] PRINT_EVENT_MESSAGE(message_id=6997*)
    → "Mother!?"
 36: 0x02B5 [0x29] REQ_SET_WAIT(priority=0x80, entity_id=Blandine (ID: 17797133/0x010F900D), tag_num=0x03)
 37: 0x02BC [0x6F] WAIT_FRAME_DELAY: Yield until WaitTime reaches zero
 38: 0x02BD [0x70] WAIT_ENTITY_RENDER_FLAG: Wait while EventEntity->Render.Flags3 bit 2 is set (cancel turn if not)
 39: 0x02BE [0x23] WAIT_FOR_DIALOG_INTERACTION
 40: 0x02BF [0x29] REQ_SET_WAIT(priority=0x80, entity_id=Blandine (ID: 17797133/0x010F900D), tag_num=0x04)
 41: 0x02C6 [0x45] LOAD_SCHEDULED_TASK: Load scheduler "se09" with entities [LocalPlayer, LocalPlayer], work=[149*, 0*]
 42: 0x02D7 [0x55] WAIT_LOAD_SCHEDULER: Wait for scheduler "se09" with entities [LocalPlayer, LocalPlayer], work=149*
 43: 0x02E6 [0x66] LOAD_EXT_SCHEDULER_MAIN: Load scheduler "ntl0" with entities [EventEntity, EventEntity], work=11*
 44: 0x02F5 [0x1D] PRINT_EVENT_MESSAGE(message_id=7000*)
    → "No, Mother! Listen, I..."
 45: 0x02F8 [0x23] WAIT_FOR_DIALOG_INTERACTION
 46: 0x02F9 [0x27] REQ_SET(priority=0x80, entity_id=Blandine (ID: 17797133/0x010F900D), tag_num=0x05)
 47: 0x0300 [0x53] WAIT_SCHEDULER_TASK: Wait for scheduler "ntl0" with entities [EventEntity, EventEntity]
 48: 0x030D [0x66] LOAD_EXT_SCHEDULER_MAIN: Load scheduler "ntl1" with entities [EventEntity, EventEntity], work=11*
 49: 0x031C [0x53] WAIT_SCHEDULER_TASK: Wait for scheduler "ntl1" with entities [EventEntity, EventEntity]
 50: 0x0329 [0x2A] GET_REQ_LEVEL(level=128, entity_id=Blandine (ID: 17797133/0x010F900D))
 51: 0x032F [0x45] LOAD_SCHEDULED_TASK: Load scheduler "se09" with entities [LocalPlayer, LocalPlayer], work=[149*, 0*]
 52: 0x0340 [0x55] WAIT_LOAD_SCHEDULER: Wait for scheduler "se09" with entities [LocalPlayer, LocalPlayer], work=149*
 53: 0x034F [0x66] LOAD_EXT_SCHEDULER_MAIN: Load scheduler "ntl0" with entities [EventEntity, EventEntity], work=11*
 54: 0x035E [0x1D] PRINT_EVENT_MESSAGE(message_id=7003*)
    → "Mother, please! Listen to me!"
 55: 0x0361 [0x23] WAIT_FOR_DIALOG_INTERACTION
 56: 0x0362 [0x2B] Blandine (ID: 17797133/0x010F900D) [7004*]:
    → "..."
 57: 0x0369 [0x53] WAIT_SCHEDULER_TASK: Wait for scheduler "ntl0" with entities [EventEntity, EventEntity]
 58: 0x0376 [0x66] LOAD_EXT_SCHEDULER_MAIN: Load scheduler "ntl1" with entities [EventEntity, EventEntity], work=11*
 59: 0x0385 [0x53] WAIT_SCHEDULER_TASK: Wait for scheduler "ntl1" with entities [EventEntity, EventEntity]
 60: 0x0392 [0x23] WAIT_FOR_DIALOG_INTERACTION
 61: 0x0393 [0x66] LOAD_EXT_SCHEDULER_MAIN: Load scheduler "ngt0" with entities [EventEntity, EventEntity], work=11*
 62: 0x03A2 [0x1D] PRINT_EVENT_MESSAGE(message_id=7005*)
    → "Even if a pirate had this, it doesn't necessarily mean Father's gone!"
 63: 0x03A5 [0x23] WAIT_FOR_DIALOG_INTERACTION
 64: 0x03A6 [0x1D] PRINT_EVENT_MESSAGE(message_id=7006*)
    → "I'll believe... I'll wait with you. So please, don't close your eyes on reality."
 65: 0x03A9 [0x23] WAIT_FOR_DIALOG_INTERACTION
 66: 0x03AA [0x1D] PRINT_EVENT_MESSAGE(message_id=7007*)
    → "We must look at the facts, and still keep faith. Father will return safely. We must believe, together."
 67: 0x03AD [0x23] WAIT_FOR_DIALOG_INTERACTION
 68: 0x03AE [0x53] WAIT_SCHEDULER_TASK: Wait for scheduler "ngt0" with entities [EventEntity, EventEntity]
 69: 0x03BB [0x66] LOAD_EXT_SCHEDULER_MAIN: Load scheduler "ngt1" with entities [EventEntity, EventEntity], work=11*
 70: 0x03CA [0x53] WAIT_SCHEDULER_TASK: Wait for scheduler "ngt1" with entities [EventEntity, EventEntity]
 71: 0x03D7 [0x29] REQ_SET_WAIT(priority=0x80, entity_id=Blandine (ID: 17797133/0x010F900D), tag_num=0x06)
 72: 0x03DE [0x66] LOAD_EXT_SCHEDULER_MAIN: Load scheduler "tlk0" with entities [EventEntity, EventEntity], work=10*
 73: 0x03ED [0x1D] PRINT_EVENT_MESSAGE(message_id=7009*)
    → "Father's safe. I know it! He'll be back soon, I'm sure!"
 74: 0x03F0 [0x23] WAIT_FOR_DIALOG_INTERACTION
 75: 0x03F1 [0x53] WAIT_SCHEDULER_TASK: Wait for scheduler "tlk0" with entities [EventEntity, EventEntity]
 76: 0x03FE [0x45] LOAD_SCHEDULED_TASK: Load scheduler "se10" with entities [LocalPlayer, LocalPlayer], work=[149*, 0*]
 77: 0x040F [0x55] WAIT_LOAD_SCHEDULER: Wait for scheduler "se10" with entities [LocalPlayer, LocalPlayer], work=149*
 78: 0x041E [0x29] REQ_SET_WAIT(priority=0x80, entity_id=Blandine (ID: 17797133/0x010F900D), tag_num=0x07)
 79: 0x0425 [0x66] LOAD_EXT_SCHEDULER_MAIN: Load scheduler "unz0" with entities [EventEntity, EventEntity], work=11*
 80: 0x0434 [0x1D] PRINT_EVENT_MESSAGE(message_id=7012*)
    → "..."
 81: 0x0437 [0x23] WAIT_FOR_DIALOG_INTERACTION
 82: 0x0438 [0x53] WAIT_SCHEDULER_TASK: Wait for scheduler "unz0" with entities [EventEntity, EventEntity]
 83: 0x0445 [0x45] LOAD_SCHEDULED_TASK: Load scheduler "se05" with entities [LocalPlayer, LocalPlayer], work=[149*, 0*]
 84: 0x0456 [0x1E] EventEntity looks at LocalPlayer and starts talking
 85: 0x045B [0x55] WAIT_LOAD_SCHEDULER: Wait for scheduler "se05" with entities [LocalPlayer, LocalPlayer], work=149*
 86: 0x046A [0x27] REQ_SET(priority=0x80, entity_id=Blandine (ID: 17797133/0x010F900D), tag_num=0x08)
 87: 0x0471 [0x6F] WAIT_FRAME_DELAY: Yield until WaitTime reaches zero
 88: 0x0472 [0x70] WAIT_ENTITY_RENDER_FLAG: Wait while EventEntity->Render.Flags3 bit 2 is set (cancel turn if not)
 89: 0x0473 [0x1D] PRINT_EVENT_MESSAGE(message_id=7013*)
    → "Thank you for bringing the amulet. Here, it's not much, but I want you to have this."
 90: 0x0476 [0x66] LOAD_EXT_SCHEDULER_MAIN: Load scheduler "kas0" with entities [EventEntity, EventEntity], work=11*
 91: 0x0485 [0x53] WAIT_SCHEDULER_TASK: Wait for scheduler "kas0" with entities [EventEntity, EventEntity]
 92: 0x0492 [0x66] LOAD_EXT_SCHEDULER_MAIN: Load scheduler "pas0" with entities [EventEntity, EventEntity], work=11*
 93: 0x04A1 [0x53] WAIT_SCHEDULER_TASK: Wait for scheduler "pas0" with entities [EventEntity, EventEntity]
 94: 0x04AE [0x23] WAIT_FOR_DIALOG_INTERACTION
 95: 0x04AF [0x66] LOAD_EXT_SCHEDULER_MAIN: Load scheduler "tlk0" with entities [EventEntity, EventEntity], work=10*
 96: 0x04BE [0x1D] PRINT_EVENT_MESSAGE(message_id=7014*)
    → "We'll be fine, thanks to you. Father will be coming back soon, I know it."
 97: 0x04C1 [0x23] WAIT_FOR_DIALOG_INTERACTION
 98: 0x04C2 [0x45] LOAD_SCHEDULED_TASK: Load scheduler "fdo0" with entities [LocalPlayer, LocalPlayer], work=[200*, 0*]
 99: 0x04D3 [0x5D] SET_MUSIC_VOLUME(volume=0*, fade_time=60*)
100: 0x04D8 [0x55] WAIT_LOAD_SCHEDULER: Wait for scheduler "fdo0" with entities [LocalPlayer, LocalPlayer], work=200*
101: 0x04E7 [0x46] CAMERA_CONTROL: Restore default settings
102: 0x04E9 [0x5C] MUSIC_CONTROL: Set Idle (Day) music to song 105*
103: 0x04ED [0x5C] MUSIC_CONTROL: Set Idle (Night) music to song 105*
104: 0x04F1 [0x45] LOAD_SCHEDULED_TASK: Load scheduler "fdi0" with entities [LocalPlayer, LocalPlayer], work=[200*, 0*]
105: 0x0502 [0x5D] SET_MUSIC_VOLUME(volume=127*, fade_time=10*)
106: 0x0507 [0x03] Work_Zone[1] = 71*
107: 0x050C [0x45] LOAD_SCHEDULED_TASK: Load scheduler "qstc" with entities [LocalPlayer, LocalPlayer], work=[201*, 0*]
108: 0x051D [0x21] END_EVENT
109: 0x051E [0x00] END_REQSTACK()
```
