# 17797173 - Albin

## Common Data

| Field            | Value            |
|------------------|------------------|
| Zone             | Mhaura (ID: 249) |
| Block Size       | 152 bytes        |
| Total Events     | 3                |
| References Count | 6                |

## List of Events

| Event ID              | Entrypoint   |   Size |   Instructions |
|-----------------------|--------------|--------|----------------|
| [65535](#event-65535) | 0x0000       |      1 |              1 |
| [229](#event-229)     | 0x0001       |      1 |              1 |
| [220](#event-220)     | 0x0002       |     95 |             25 |

## DAT References (imed_data)

|   Index | Hex Value   |   Dec Value |
|---------|-------------|-------------|
|       0 | 0x0000      |           0 |
|       1 | 0x1C11      |        7185 |
|       2 | 0x1C12      |        7186 |
|       3 | 0x1C13      |        7187 |
|       4 | 0x0001      |           1 |
|       5 | 0x0100      |         256 |

## String References

- **7185**: Do you wish to enter Mhaura?
- **7186**: Leave the docks to Mhaura? [Sure./Not right now.]
- **7187**: Please go on through. Thank you for sailing with us!

## Events

### Event 65535

#### Metadata

| Field        | Value   |
|--------------|---------|
| Entrypoint   | 0x0000  |
| Data Size    | 1 bytes |
| Instructions | 1       |

```
      00 01 02 03 04 05 06 07  08 09 0A 0B 0C 0D 0E 0F
      -- -- -- -- -- -- -- --  -- -- -- -- -- -- -- --
0000: 00                                                .               
```

#### Opcodes

```
  0: 0x0000 [0x00] END_REQSTACK()
```

### Event 229

#### Metadata

| Field        | Value   |
|--------------|---------|
| Entrypoint   | 0x0001  |
| Data Size    | 1 bytes |
| Instructions | 1       |

```
      00 01 02 03 04 05 06 07  08 09 0A 0B 0C 0D 0E 0F
      -- -- -- -- -- -- -- --  -- -- -- -- -- -- -- --
0000:    00                                              .              
```

#### Opcodes

```
  0: 0x0001 [0x00] END_REQSTACK()
```

### Event 220

#### Metadata

| Field        | Value    |
|--------------|----------|
| Entrypoint   | 0x0002   |
| Data Size    | 95 bytes |
| Instructions | 20       |

```
      00 01 02 03 04 05 06 07  08 09 0A 0B 0C 0D 0E 0F
      -- -- -- -- -- -- -- --  -- -- -- -- -- -- -- --
0000:       42 1E F0 FF FF 7F  6F 70 66 00 80 F8 FF FF    B.....opf.....
0010: 7F F8 FF FF 7F 74 6C 6B  32 1D 01 80 23 5E 69 64  .....tlk2...#^id
0020: 6C 30 24 02 80 00 80 00  80 25 02 00 10 00 80 00  l0$......%......
0030: 53 00 1D 03 80 23 6E F8  FF FF 7F 04 80 99 F8 FF  S....#n.........
0040: FF 7F 29 80 F0 FF FF 7F  0E 03 01 10 05 80 21 00  ..)...........!.
0050: 01 60 00 02 00 10 04 80  00 60 00 21 00 01 60 00  .`.......`.!..`.
0060: 00                                                .               
```

#### Opcodes

```
  0: 0x0002 [0x42] SET_CLI_EVENT_CANCEL_DATA()
  1: 0x0003 [0x1E] EventEntity looks at LocalPlayer and starts talking
  2: 0x0008 [0x6F] WAIT_FRAME_DELAY: Yield until WaitTime reaches zero
  3: 0x0009 [0x70] WAIT_ENTITY_RENDER_FLAG: Wait while EventEntity->Render.Flags3 bit 2 is set (cancel turn if not)
  4: 0x000A [0x66] LOAD_EXT_SCHEDULER_MAIN: Load scheduler "tlk2" with entities [EventEntity, EventEntity], work=0*
  5: 0x0019 [0x1D] PRINT_EVENT_MESSAGE(message_id=7185*)
    → "Do you wish to enter Mhaura?"
  6: 0x001C [0x23] WAIT_FOR_DIALOG_INTERACTION
  7: 0x001D [0x5E] EventEntity goes idle (kills current action) (animation: "idl0")
  8: 0x0022 [0x24] CREATE_DIALOG(message_id=7186*, default_option=0*, option_flags=0*)
    → "Leave the docks to Mhaura? [Sure./Not right now.]"
  9: 0x0029 [0x25] WAIT_DIALOG_SELECT()
 10: 0x002A [0x02] IF !(Work_Zone[0] == 0*) GOTO 0x0053
 11: 0x0032 [0x1D] PRINT_EVENT_MESSAGE(message_id=7187*)
    → "Please go on through. Thank you for sailing with us!"
 12: 0x0035 [0x23] WAIT_FOR_DIALOG_INTERACTION
 13: 0x0036 [0x6E] EventEntity uses emote 1*
 14: 0x003D [0x99] Wait for EventEntity animation to complete
 15: 0x0042 [0x29] REQ_SET_WAIT(priority=0x80, entity_id=LocalPlayer, tag_num=0x0E)
 16: 0x0049 [0x03] Work_Zone[1] = 256*
 17: 0x004E [0x21] END_EVENT
 18: 0x004F [0x00] END_REQSTACK()

SUBROUTINE_0060:
 19: 0x0060 [0x00] END_REQSTACK()
```

#### Data or dead code:

```
# Dead code (unreachable instructions):
     0x0050 [0x01] GOTO 0x0060
     0x005D [0x01] GOTO 0x0060
```
