# 17797198 - Shikaree M

## Common Data

| Field            | Value            |
|------------------|------------------|
| Zone             | Mhaura (ID: 249) |
| Block Size       | 2956 bytes       |
| Total Events     | 27               |
| References Count | 38               |

## List of Events

| Event ID                   | Entrypoint   |   Size |   Instructions |
|----------------------------|--------------|--------|----------------|
| [65535](#event-65535)      | 0x0000       |      1 |              1 |
| [65535.1](#event-655351)   | 0x0001       |     16 |              2 |
| [65535.2](#event-655352)   | 0x0011       |     22 |              4 |
| [65535.3](#event-655353)   | 0x0027       |     16 |              2 |
| [65535.4](#event-655354)   | 0x0037       |     14 |              2 |
| [65535.5](#event-655355)   | 0x0045       |      9 |              3 |
| [10007](#event-10007)      | 0x004E       |      1 |              1 |
| [10032](#event-10032)      | 0x004F       |      1 |              1 |
| [65535.6](#event-655356)   | 0x0050       |    158 |             22 |
| [65535.7](#event-655357)   | 0x00EE       |    553 |             58 |
| [65535.8](#event-655358)   | 0x0317       |    514 |             62 |
| [65535.9](#event-655359)   | 0x0519       |     10 |              2 |
| [65535.10](#event-6553510) | 0x0523       |     21 |              7 |
| [65535.11](#event-6553511) | 0x0538       |     14 |              4 |
| [65535.12](#event-6553512) | 0x0546       |      5 |              3 |
| [65535.13](#event-6553513) | 0x054B       |      9 |              5 |
| [65535.14](#event-6553514) | 0x0554       |      5 |              3 |
| [65535.15](#event-6553515) | 0x0559       |      5 |              3 |
| [65535.16](#event-6553516) | 0x055E       |      5 |              3 |
| [10009](#event-10009)      | 0x0563       |      1 |              1 |
| [10011](#event-10011)      | 0x0564       |      1 |              1 |
| [65535.17](#event-6553517) | 0x0565       |    399 |             41 |
| [65535.18](#event-6553518) | 0x06F4       |    474 |             66 |
| [65535.19](#event-6553519) | 0x08CE       |    161 |             25 |
| [65535.20](#event-6553520) | 0x096F       |     82 |             10 |
| [65535.21](#event-6553521) | 0x09C1       |     64 |              8 |
| [65535.22](#event-6553522) | 0x0A01       |    119 |             13 |

## DAT References (imed_data)

|   Index | Hex Value   |   Dec Value |
|---------|-------------|-------------|
|       0 | 0x0167      |         359 |
|       1 | 0x001E      |          30 |
|       2 | 0x0165      |         357 |
|       3 | 0x02BC      |         700 |
|       4 | 0x00C8      |         200 |
|       5 | 0x0000      |           0 |
|       6 | 0x003C      |          60 |
|       7 | 0x0010      |          16 |
|       8 | 0x0014      |          20 |
|       9 | 0x00C9      |         201 |
|      10 | 0x00A0      |         160 |
|      11 | 0x0090      |         144 |
|      12 | 0x0064      |         100 |
|      13 | 0x0050      |          80 |
|      14 | 0x0028      |          40 |
|      15 | 0xFFFF4D4F  |  4294921551 |
|      16 | 0x9DEA      |       40426 |
|      17 | 0xFFFFC18F  |  4294951311 |
|      18 | 0x036A      |         874 |
|      19 | 0x000D      |          13 |
|      20 | 0xFFFF5465  |  4294923365 |
|      21 | 0x837E      |       33662 |
|      22 | 0xFFFFC18C  |  4294951308 |
|      23 | 0xFFFF4A0E  |  4294920718 |
|      24 | 0x98CA      |       39114 |
|      25 | 0xFFFFC0CE  |  4294951118 |
|      26 | 0x1C7B      |        7291 |
|      27 | 0x1C7C      |        7292 |
|      28 | 0x1C7D      |        7293 |
|      29 | 0x1C7E      |        7294 |
|      30 | 0x1C7F      |        7295 |
|      31 | 0x1C80      |        7296 |
|      32 | 0x0018      |          24 |
|      33 | 0x0008      |           8 |
|      34 | 0x000A      |          10 |
|      35 | 0x01C4      |         452 |
|      36 | 0x005A      |          90 |
|      37 | 0x0096      |         150 |

## String References

- **7291**: I go now to check the verrracity of that story, to see for my own eyes the body of Syu Befrathi, daughter of Chieftainness Nhev Befrathi.
- **7292**: I have heard from the townspeople that dangerous creatures rrroam the dark hallways of the Eldieme Necropolis.
- **7293**: It is a place that cannot be entered alone. But of course, I have no intention of giving up on my quarrry.
- **7294**: You are one of the brrreed they call adventurers, right? Adventurers are said to take on almost any kind of work as long as the pay is good.
- **7295**: I will follow after you, keeping out of sight. Clear the path ahead, making for the cemetery in the center of the necropolis.
- **7296**: Meet me at the necropolis, and don't be late.

## Events

### Event 65535

#### Metadata

| Field        | Value   |
|--------------|---------|
| Entrypoint   | 0x0000  |
| Data Size    | 1 bytes |
| Instructions | 1       |

```
      00 01 02 03 04 05 06 07  08 09 0A 0B 0C 0D 0E 0F
      -- -- -- -- -- -- -- --  -- -- -- -- -- -- -- --
0000: 00                                                .               
```

#### Opcodes

```
  0: 0x0000 [0x00] END_REQSTACK()
```

### Event 65535.1

#### Metadata

| Field        | Value    |
|--------------|----------|
| Entrypoint   | 0x0001   |
| Data Size    | 16 bytes |
| Instructions | 2        |

```
      00 01 02 03 04 05 06 07  08 09 0A 0B 0C 0D 0E 0F
      -- -- -- -- -- -- -- --  -- -- -- -- -- -- -- --
0000:    5B 00 80 F8 FF FF 7F  F8 FF FF 7F 74 6C 6B 30   [..........tlk0
0010: 00                                                .               
```

#### Opcodes

```
  0: 0x0001 [0x5B] LOAD_EXT_SCHEDULER: Load scheduler "tlk0" with entities [EventEntity, EventEntity], work=359*
  1: 0x0010 [0x00] END_REQSTACK()
```

### Event 65535.2

#### Metadata

| Field        | Value    |
|--------------|----------|
| Entrypoint   | 0x0011   |
| Data Size    | 22 bytes |
| Instructions | 4        |

```
      00 01 02 03 04 05 06 07  08 09 0A 0B 0C 0D 0E 0F
      -- -- -- -- -- -- -- --  -- -- -- -- -- -- -- --
0010:    53 F8 FF FF 7F F8 FF  FF 7F 74 6C 6B 30 5E 69   S........tlk0^i
0020: 64 6C 30 1C 01 80 00                              dl0....         
```

#### Opcodes

```
  0: 0x0011 [0x53] WAIT_SCHEDULER_TASK: Wait for scheduler "tlk0" with entities [EventEntity, EventEntity]
  1: 0x001E [0x5E] EventEntity goes idle (kills current action) (animation: "idl0")
  2: 0x0023 [0x1C] WAIT(30* ticks)
  3: 0x0026 [0x00] END_REQSTACK()
```

### Event 65535.3

#### Metadata

| Field        | Value    |
|--------------|----------|
| Entrypoint   | 0x0027   |
| Data Size    | 16 bytes |
| Instructions | 2        |

```
      00 01 02 03 04 05 06 07  08 09 0A 0B 0C 0D 0E 0F
      -- -- -- -- -- -- -- --  -- -- -- -- -- -- -- --
0020:                      5B  02 80 F8 FF FF 7F F8 FF         [........
0030: FF 7F 70 61 73 30 00                              ..pas0.         
```

#### Opcodes

```
  0: 0x0027 [0x5B] LOAD_EXT_SCHEDULER: Load scheduler "pas0" with entities [EventEntity, EventEntity], work=357*
  1: 0x0036 [0x00] END_REQSTACK()
```

### Event 65535.4

#### Metadata

| Field        | Value    |
|--------------|----------|
| Entrypoint   | 0x0037   |
| Data Size    | 14 bytes |
| Instructions | 2        |

```
      00 01 02 03 04 05 06 07  08 09 0A 0B 0C 0D 0E 0F
      -- -- -- -- -- -- -- --  -- -- -- -- -- -- -- --
0030:                      53  F8 FF FF 7F F8 FF FF 7F         S........
0040: 70 61 73 30 00                                    pas0.           
```

#### Opcodes

```
  0: 0x0037 [0x53] WAIT_SCHEDULER_TASK: Wait for scheduler "pas0" with entities [EventEntity, EventEntity]
  1: 0x0044 [0x00] END_REQSTACK()
```

### Event 65535.5

#### Metadata

| Field        | Value   |
|--------------|---------|
| Entrypoint   | 0x0045  |
| Data Size    | 9 bytes |
| Instructions | 3       |

```
      00 01 02 03 04 05 06 07  08 09 0A 0B 0C 0D 0E 0F
      -- -- -- -- -- -- -- --  -- -- -- -- -- -- -- --
0040:                5E 69 64  6C 30 1C 01 80 00             ^idl0....  
```

#### Opcodes

```
  0: 0x0045 [0x5E] EventEntity goes idle (kills current action) (animation: "idl0")
  1: 0x004A [0x1C] WAIT(30* ticks)
  2: 0x004D [0x00] END_REQSTACK()
```

### Event 10007

#### Metadata

| Field        | Value   |
|--------------|---------|
| Entrypoint   | 0x004E  |
| Data Size    | 1 bytes |
| Instructions | 1       |

```
      00 01 02 03 04 05 06 07  08 09 0A 0B 0C 0D 0E 0F
      -- -- -- -- -- -- -- --  -- -- -- -- -- -- -- --
0040:                                            00                   . 
```

#### Opcodes

```
  0: 0x004E [0x00] END_REQSTACK()
```

### Event 10032

#### Metadata

| Field        | Value   |
|--------------|---------|
| Entrypoint   | 0x004F  |
| Data Size    | 1 bytes |
| Instructions | 1       |

```
      00 01 02 03 04 05 06 07  08 09 0A 0B 0C 0D 0E 0F
      -- -- -- -- -- -- -- --  -- -- -- -- -- -- -- --
0040:                                               00                 .
```

#### Opcodes

```
  0: 0x004F [0x00] END_REQSTACK()
```

### Event 65535.6

#### Metadata

| Field        | Value     |
|--------------|-----------|
| Entrypoint   | 0x0050    |
| Data Size    | 158 bytes |
| Instructions | 22        |

```
      00 01 02 03 04 05 06 07  08 09 0A 0B 0C 0D 0E 0F
      -- -- -- -- -- -- -- --  -- -- -- -- -- -- -- --
0050: 27 0A 51 90 0F 01 09 27  0A 52 90 0F 01 0A 27 0A  '.Q....'.R....'.
0060: 53 90 0F 01 0A 27 0A 54  90 0F 01 08 27 0A 55 90  S....'.T....'.U.
0070: 0F 01 08 27 0A 56 90 0F  01 08 27 0A 57 90 0F 01  ...'.V....'.W...
0080: 0B 27 0A 58 90 0F 01 08  27 0A 59 90 0F 01 06 27  .'.X....'.Y....'
0090: 0A 50 90 0F 01 06 27 0A  5A 90 0F 01 07 27 0A 5B  .P....'.Z....'.[
00A0: 90 0F 01 09 27 0A 5C 90  0F 01 07 27 0A 5D 90 0F  ....'.\....'.]..
00B0: 01 04 27 0A 5E 90 0F 01  04 27 0A 5F 90 0F 01 07  ..'.^....'._....
00C0: 27 0A 60 90 0F 01 04 1C  03 80 45 04 80 F0 FF FF  '.`.......E.....
00D0: 7F F0 FF FF 7F 66 64 6F  31 05 80 1C 06 80 52 07  .....fdo1.....R.
00E0: 80 F0 FF FF 7F F0 FF FF  7F 73 30 31 39 00        .........s019.  
```

#### Opcodes

```
  0: 0x0050 [0x27] REQ_SET(priority=0x0A, entity_id=OYAMISURA01 (ID: 17797201/0x010F9051), tag_num=0x09)
  1: 0x0057 [0x27] REQ_SET(priority=0x0A, entity_id=OYAMISURA02 (ID: 17797202/0x010F9052), tag_num=0x0A)
  2: 0x005E [0x27] REQ_SET(priority=0x0A, entity_id=OYAMISURA03 (ID: 17797203/0x010F9053), tag_num=0x0A)
  3: 0x0065 [0x27] REQ_SET(priority=0x0A, entity_id=OYAMISURA04 (ID: 17797204/0x010F9054), tag_num=0x08)
  4: 0x006C [0x27] REQ_SET(priority=0x0A, entity_id=OYAMISURA05 (ID: 17797205/0x010F9055), tag_num=0x08)
  5: 0x0073 [0x27] REQ_SET(priority=0x0A, entity_id=OYAMISURA06 (ID: 17797206/0x010F9056), tag_num=0x08)
  6: 0x007A [0x27] REQ_SET(priority=0x0A, entity_id=OYAMISURA07 (ID: 17797207/0x010F9057), tag_num=0x0B)
  7: 0x0081 [0x27] REQ_SET(priority=0x0A, entity_id=OYAMISURA08 (ID: 17797208/0x010F9058), tag_num=0x08)
  8: 0x0088 [0x27] REQ_SET(priority=0x0A, entity_id=OYAMISURA09 (ID: 17797209/0x010F9059), tag_num=0x06)
  9: 0x008F [0x27] REQ_SET(priority=0x0A, entity_id=Koh Lenbalalako (ID: 17797200/0x010F9050), tag_num=0x06)
 10: 0x0096 [0x27] REQ_SET(priority=0x0A, entity_id=KOMISURA01 (ID: 17797210/0x010F905A), tag_num=0x07)
 11: 0x009D [0x27] REQ_SET(priority=0x0A, entity_id=KOMISURA02 (ID: 17797211/0x010F905B), tag_num=0x09)
 12: 0x00A4 [0x27] REQ_SET(priority=0x0A, entity_id=KOMISURA03 (ID: 17797212/0x010F905C), tag_num=0x07)
 13: 0x00AB [0x27] REQ_SET(priority=0x0A, entity_id=Chocobo (ID: 17797213/0x010F905D), tag_num=0x04)
 14: 0x00B2 [0x27] REQ_SET(priority=0x0A, entity_id=Chocobo02 (ID: 17797214/0x010F905E), tag_num=0x04)
 15: 0x00B9 [0x27] REQ_SET(priority=0x0A, entity_id=Chocobo03 (ID: 17797215/0x010F905F), tag_num=0x07)
 16: 0x00C0 [0x27] REQ_SET(priority=0x0A, entity_id=Chocobo04 (ID: 17797216/0x010F9060), tag_num=0x04)
 17: 0x00C7 [0x1C] WAIT(700* ticks)
 18: 0x00CA [0x45] LOAD_SCHEDULED_TASK: Load scheduler "fdo1" with entities [LocalPlayer, LocalPlayer], work=[200*, 0*]
 19: 0x00DB [0x1C] WAIT(60* ticks)
 20: 0x00DE [0x52] END_LOAD_SCHEDULER: End scheduler "s019" with entities [LocalPlayer, LocalPlayer], work=16*
 21: 0x00ED [0x00] END_REQSTACK()
```

### Event 65535.7

#### Metadata

| Field        | Value     |
|--------------|-----------|
| Entrypoint   | 0x00EE    |
| Data Size    | 553 bytes |
| Instructions | 58        |

```
      00 01 02 03 04 05 06 07  08 09 0A 0B 0C 0D 0E 0F
      -- -- -- -- -- -- -- --  -- -- -- -- -- -- -- --
00E0:                                            45 07                E.
00F0: 80 F0 FF FF 7F F0 FF FF  7F 73 30 32 31 05 80 45  .........s021..E
0100: 04 80 F0 FF FF 7F F0 FF  FF 7F 66 64 69 31 05 80  ..........fdi1..
0110: 27 0A 57 90 0F 01 0C 27  0A 52 90 0F 01 0B 27 0A  '.W....'.R....'.
0120: 53 90 0F 01 0B 27 0A 5F  90 0F 01 08 2A 0A 57 90  S....'._....*.W.
0130: 0F 01 4A 57 90 0F 01 5F  90 0F 01 1C 08 80 27 0A  ..JW..._......'.
0140: 64 90 0F 01 07 6F 76 57  90 0F 01 2A 0A 5F 90 0F  d....ovW...*._..
0150: 01 52 07 80 F0 FF FF 7F  F0 FF FF 7F 73 30 32 31  .R..........s021
0160: 45 04 80 F0 FF FF 7F F0  FF FF 7F 6F 76 6C 31 05  E..........ovl1.
0170: 80 45 07 80 F0 FF FF 7F  F0 FF FF 7F 73 30 32 35  .E..........s025
0180: 05 80 4E 00 64 90 0F 01  27 0A 61 90 0F 01 07 27  ..N.d...'.a....'
0190: 0A 63 90 0F 01 07 1C 06  80 4A 57 90 0F 01 64 90  .c.......JW...d.
01A0: 0F 01 1C 01 80 52 07 80  F0 FF FF 7F F0 FF FF 7F  .....R..........
01B0: 73 30 32 35 45 04 80 F0  FF FF 7F F0 FF FF 7F 6F  s025E..........o
01C0: 76 6C 31 05 80 45 04 80  F0 FF FF 7F F0 FF FF 7F  vl1..E..........
01D0: 62 6C 6F 6E 05 80 45 09  80 F0 FF FF 7F F0 FF FF  blon..E.........
01E0: 7F 62 6C 6F 6E 05 80 45  07 80 F0 FF FF 7F F0 FF  .blon..E........
01F0: FF 7F 73 30 32 32 05 80  27 0A 57 90 0F 01 0D 27  ..s022..'.W....'
0200: 0A 5B 90 0F 01 0A 2A 0A  63 90 0F 01 73 0A 80 63  .[....*.c...s..c
0210: 90 0F 01 57 90 0F 01 1C  06 80 73 0A 80 61 90 0F  ...W......s..a..
0220: 01 57 90 0F 01 4A 53 90  0F 01 64 90 0F 01 45 04  .W...JS...d...E.
0230: 80 F0 FF FF 7F F0 FF FF  7F 62 6C 6F 66 05 80 55  .........blof..U
0240: 07 80 F0 FF FF 7F F0 FF  FF 7F 73 30 32 32 45 04  ..........s022E.
0250: 80 F0 FF FF 7F F0 FF FF  7F 6F 76 6C 31 05 80 45  .........ovl1..E
0260: 07 80 F0 FF FF 7F F0 FF  FF 7F 73 30 32 33 05 80  ..........s023..
0270: 27 0A 62 90 0F 01 07 27  0A 5F 90 0F 01 09 73 0A  '.b....'._....s.
0280: 80 64 90 0F 01 57 90 0F  01 4A 53 90 0F 01 62 90  .d...W...JS...b.
0290: 0F 01 6F 76 52 90 0F 01  4A 53 90 0F 01 61 90 0F  ..ovR...JS...a..
02A0: 01 1C 06 80 4A 52 90 0F  01 62 90 0F 01 1C 06 80  ....JR...b......
02B0: 4A 53 90 0F 01 5B 90 0F  01 55 07 80 F0 FF FF 7F  JS...[...U......
02C0: F0 FF FF 7F 73 30 32 33  45 07 80 F0 FF FF 7F F0  ....s023E.......
02D0: FF FF 7F 73 30 32 34 05  80 45 0B 80 F0 FF FF 7F  ...s024..E......
02E0: F0 FF FF 7F 6E 61 6B 32  05 80 2A 0A 62 90 0F 01  ....nak2..*.b...
02F0: 1C 0C 80 45 04 80 F0 FF  FF 7F F0 FF FF 7F 66 64  ...E..........fd
0300: 6F 31 05 80 55 07 80 F0  FF FF 7F F0 FF FF 7F 73  o1..U..........s
0310: 30 32 34 1C 06 80 00                              024....         
```

#### Opcodes

```
  0: 0x00EE [0x45] LOAD_SCHEDULED_TASK: Load scheduler "s021" with entities [LocalPlayer, LocalPlayer], work=[16*, 0*]
  1: 0x00FF [0x45] LOAD_SCHEDULED_TASK: Load scheduler "fdi1" with entities [LocalPlayer, LocalPlayer], work=[200*, 0*]
  2: 0x0110 [0x27] REQ_SET(priority=0x0A, entity_id=OYAMISURA07 (ID: 17797207/0x010F9057), tag_num=0x0C)
  3: 0x0117 [0x27] REQ_SET(priority=0x0A, entity_id=OYAMISURA02 (ID: 17797202/0x010F9052), tag_num=0x0B)
  4: 0x011E [0x27] REQ_SET(priority=0x0A, entity_id=OYAMISURA03 (ID: 17797203/0x010F9053), tag_num=0x0B)
  5: 0x0125 [0x27] REQ_SET(priority=0x0A, entity_id=Chocobo03 (ID: 17797215/0x010F905F), tag_num=0x08)
  6: 0x012C [0x2A] GET_REQ_LEVEL(level=10, entity_id=OYAMISURA07 (ID: 17797207/0x010F9057))
  7: 0x0132 [0x4A] OYAMISURA07 (ID: 17797207/0x010F9057) looks at Chocobo03 (ID: 17797215/0x010F905F)
  8: 0x013B [0x1C] WAIT(20* ticks)
  9: 0x013E [0x27] REQ_SET(priority=0x0A, entity_id=Yagudo04 (ID: 17797220/0x010F9064), tag_num=0x07)
 10: 0x0145 [0x6F] WAIT_FRAME_DELAY: Yield until WaitTime reaches zero
 11: 0x0146 [0x76] CHECK_ENTITY_RENDER_FLAGS: Wait until OYAMISURA07 (ID: 17797207/0x010F9057) Render.Flags0 and Render.Flags3 conditions are met
 12: 0x014B [0x2A] GET_REQ_LEVEL(level=10, entity_id=Chocobo03 (ID: 17797215/0x010F905F))
 13: 0x0151 [0x52] END_LOAD_SCHEDULER: End scheduler "s021" with entities [LocalPlayer, LocalPlayer], work=16*
 14: 0x0160 [0x45] LOAD_SCHEDULED_TASK: Load scheduler "ovl1" with entities [LocalPlayer, LocalPlayer], work=[200*, 0*]
 15: 0x0171 [0x45] LOAD_SCHEDULED_TASK: Load scheduler "s025" with entities [LocalPlayer, LocalPlayer], work=[16*, 0*]
 16: 0x0182 [0x4E] SET_ENTITY_HIDE_FLAG: Show Yagudo04 (ID: 17797220/0x010F9064)
 17: 0x0188 [0x27] REQ_SET(priority=0x0A, entity_id=Yagudo01 (ID: 17797217/0x010F9061), tag_num=0x07)
 18: 0x018F [0x27] REQ_SET(priority=0x0A, entity_id=Yagudo03 (ID: 17797219/0x010F9063), tag_num=0x07)
 19: 0x0196 [0x1C] WAIT(60* ticks)
 20: 0x0199 [0x4A] OYAMISURA07 (ID: 17797207/0x010F9057) looks at Yagudo04 (ID: 17797220/0x010F9064)
 21: 0x01A2 [0x1C] WAIT(30* ticks)
 22: 0x01A5 [0x52] END_LOAD_SCHEDULER: End scheduler "s025" with entities [LocalPlayer, LocalPlayer], work=16*
 23: 0x01B4 [0x45] LOAD_SCHEDULED_TASK: Load scheduler "ovl1" with entities [LocalPlayer, LocalPlayer], work=[200*, 0*]
 24: 0x01C5 [0x45] LOAD_SCHEDULED_TASK: Load scheduler "blon" with entities [LocalPlayer, LocalPlayer], work=[200*, 0*]
 25: 0x01D6 [0x45] LOAD_SCHEDULED_TASK: Load scheduler "blon" with entities [LocalPlayer, LocalPlayer], work=[201*, 0*]
 26: 0x01E7 [0x45] LOAD_SCHEDULED_TASK: Load scheduler "s022" with entities [LocalPlayer, LocalPlayer], work=[16*, 0*]
 27: 0x01F8 [0x27] REQ_SET(priority=0x0A, entity_id=OYAMISURA07 (ID: 17797207/0x010F9057), tag_num=0x0D)
 28: 0x01FF [0x27] REQ_SET(priority=0x0A, entity_id=KOMISURA02 (ID: 17797211/0x010F905B), tag_num=0x0A)
 29: 0x0206 [0x2A] GET_REQ_LEVEL(level=10, entity_id=Yagudo03 (ID: 17797219/0x010F9063))
 30: 0x020C [0x73] Yagudo03 (ID: 17797219/0x010F9063) casts magic 160* on OYAMISURA07 (ID: 17797207/0x010F9057)
 31: 0x0217 [0x1C] WAIT(60* ticks)
 32: 0x021A [0x73] Yagudo01 (ID: 17797217/0x010F9061) casts magic 160* on OYAMISURA07 (ID: 17797207/0x010F9057)
 33: 0x0225 [0x4A] OYAMISURA03 (ID: 17797203/0x010F9053) looks at Yagudo04 (ID: 17797220/0x010F9064)
 34: 0x022E [0x45] LOAD_SCHEDULED_TASK: Load scheduler "blof" with entities [LocalPlayer, LocalPlayer], work=[200*, 0*]
 35: 0x023F [0x55] WAIT_LOAD_SCHEDULER: Wait for scheduler "s022" with entities [LocalPlayer, LocalPlayer], work=16*
 36: 0x024E [0x45] LOAD_SCHEDULED_TASK: Load scheduler "ovl1" with entities [LocalPlayer, LocalPlayer], work=[200*, 0*]
 37: 0x025F [0x45] LOAD_SCHEDULED_TASK: Load scheduler "s023" with entities [LocalPlayer, LocalPlayer], work=[16*, 0*]
 38: 0x0270 [0x27] REQ_SET(priority=0x0A, entity_id=Yagudo02 (ID: 17797218/0x010F9062), tag_num=0x07)
 39: 0x0277 [0x27] REQ_SET(priority=0x0A, entity_id=Chocobo03 (ID: 17797215/0x010F905F), tag_num=0x09)
 40: 0x027E [0x73] Yagudo04 (ID: 17797220/0x010F9064) casts magic 160* on OYAMISURA07 (ID: 17797207/0x010F9057)
 41: 0x0289 [0x4A] OYAMISURA03 (ID: 17797203/0x010F9053) looks at Yagudo02 (ID: 17797218/0x010F9062)
 42: 0x0292 [0x6F] WAIT_FRAME_DELAY: Yield until WaitTime reaches zero
 43: 0x0293 [0x76] CHECK_ENTITY_RENDER_FLAGS: Wait until OYAMISURA02 (ID: 17797202/0x010F9052) Render.Flags0 and Render.Flags3 conditions are met
 44: 0x0298 [0x4A] OYAMISURA03 (ID: 17797203/0x010F9053) looks at Yagudo01 (ID: 17797217/0x010F9061)
 45: 0x02A1 [0x1C] WAIT(60* ticks)
 46: 0x02A4 [0x4A] OYAMISURA02 (ID: 17797202/0x010F9052) looks at Yagudo02 (ID: 17797218/0x010F9062)
 47: 0x02AD [0x1C] WAIT(60* ticks)
 48: 0x02B0 [0x4A] OYAMISURA03 (ID: 17797203/0x010F9053) looks at KOMISURA02 (ID: 17797211/0x010F905B)
 49: 0x02B9 [0x55] WAIT_LOAD_SCHEDULER: Wait for scheduler "s023" with entities [LocalPlayer, LocalPlayer], work=16*
 50: 0x02C8 [0x45] LOAD_SCHEDULED_TASK: Load scheduler "s024" with entities [LocalPlayer, LocalPlayer], work=[16*, 0*]
 51: 0x02D9 [0x45] LOAD_SCHEDULED_TASK: Load scheduler "nak2" with entities [LocalPlayer, LocalPlayer], work=[144*, 0*]
 52: 0x02EA [0x2A] GET_REQ_LEVEL(level=10, entity_id=Yagudo02 (ID: 17797218/0x010F9062))
 53: 0x02F0 [0x1C] WAIT(100* ticks)
 54: 0x02F3 [0x45] LOAD_SCHEDULED_TASK: Load scheduler "fdo1" with entities [LocalPlayer, LocalPlayer], work=[200*, 0*]
 55: 0x0304 [0x55] WAIT_LOAD_SCHEDULER: Wait for scheduler "s024" with entities [LocalPlayer, LocalPlayer], work=16*
 56: 0x0313 [0x1C] WAIT(60* ticks)
 57: 0x0316 [0x00] END_REQSTACK()
```

### Event 65535.8

#### Metadata

| Field        | Value     |
|--------------|-----------|
| Entrypoint   | 0x0317    |
| Data Size    | 514 bytes |
| Instructions | 62        |

```
      00 01 02 03 04 05 06 07  08 09 0A 0B 0C 0D 0E 0F
      -- -- -- -- -- -- -- --  -- -- -- -- -- -- -- --
0310:                      55  07 80 F0 FF FF 7F F0 FF         U........
0320: FF 7F 73 30 32 36 45 04  80 F0 FF FF 7F F0 FF FF  ..s026E.........
0330: 7F 6F 76 6C 31 05 80 45  07 80 F0 FF FF 7F F0 FF  .ovl1..E........
0340: FF 7F 73 30 32 37 05 80  4E 00 62 90 0F 01 27 08  ..s027..N.b...'.
0350: 56 90 0F 01 09 1C 0D 80  4A 52 90 0F 01 63 90 0F  V.......JR...c..
0360: 01 4A 53 90 0F 01 63 90  0F 01 1C 08 80 4A 50 90  .JS...c......JP.
0370: 0F 01 63 90 0F 01 2A 08  56 90 0F 01 55 07 80 F0  ..c...*.V...U...
0380: FF FF 7F F0 FF FF 7F 73  30 32 37 80 62 90 0F 01  .......s027.b...
0390: 45 04 80 F0 FF FF 7F F0  FF FF 7F 6F 76 6C 31 05  E..........ovl1.
03A0: 80 45 07 80 F0 FF FF 7F  F0 FF FF 7F 73 30 32 38  .E..........s028
03B0: 05 80 4A 61 90 0F 01 62  90 0F 01 4A 5A 90 0F 01  ..Ja...b...JZ...
03C0: 62 90 0F 01 4A 5B 90 0F  01 62 90 0F 01 6F 76 5B  b...J[...b...ov[
03D0: 90 0F 01 27 08 57 90 0F  01 07 29 08 51 90 0F 01  ...'.W....).Q...
03E0: 06 27 0A 62 90 0F 01 08  27 0A 63 90 0F 01 08 27  .'.b....'.c....'
03F0: 0A 64 90 0F 01 08 1C 06  80 52 07 80 F0 FF FF 7F  .d.......R......
0400: F0 FF FF 7F 73 30 32 38  45 04 80 F0 FF FF 7F F0  ....s028E.......
0410: FF FF 7F 6F 76 6C 31 05  80 45 07 80 F0 FF FF 7F  ...ovl1..E......
0420: F0 FF FF 7F 73 30 32 39  05 80 1C 0C 80 29 08 51  ....s029.....).Q
0430: 90 0F 01 0A 2A 0A 63 90  0F 01 45 04 80 F8 FF FF  ....*.c...E.....
0440: 7F F8 FF FF 7F 66 64 6F  31 05 80 1C 06 80 52 07  .....fdo1.....R.
0450: 80 F0 FF FF 7F F0 FF FF  7F 73 30 32 39 45 07 80  .........s029E..
0460: F0 FF FF 7F F0 FF FF 7F  73 30 33 30 05 80 29 0A  ........s030..).
0470: 61 90 0F 01 06 29 0A 62  90 0F 01 06 29 0A 63 90  a....).b....).c.
0480: 0F 01 06 29 0A 64 90 0F  01 06 29 0A 50 90 0F 01  ...).d....).P...
0490: 05 27 0A 51 90 0F 01 0B  27 0A 62 90 0F 01 09 4A  .'.Q....'.b....J
04A0: 50 90 0F 01 51 90 0F 01  6F 76 50 90 0F 01 4A 64  P...Q...ovP...Jd
04B0: 90 0F 01 51 90 0F 01 45  04 80 F8 FF FF 7F F8 FF  ...Q...E........
04C0: FF 7F 66 64 69 31 05 80  1C 08 80 4A 64 90 0F 01  ..fdi1.....Jd...
04D0: 51 90 0F 01 1C 08 80 27  0A 64 90 0F 01 09 1C 01  Q......'.d......
04E0: 80 79 00 50 90 0F 01 51  90 0F 01 27 0A 5B 90 0F  .y.P...Q...'.[..
04F0: 01 0B 1E 50 90 0F 01 1C  0E 80 27 0A 50 90 0F 01  ...P......'.P...
0500: 0A 1C 0E 80 45 04 80 F8  FF FF 7F F8 FF FF 7F 66  ....E..........f
0510: 64 6F 31 05 80 1C 06 80  00                       do1......       
```

#### Opcodes

```
  0: 0x0317 [0x55] WAIT_LOAD_SCHEDULER: Wait for scheduler "s026" with entities [LocalPlayer, LocalPlayer], work=16*
  1: 0x0326 [0x45] LOAD_SCHEDULED_TASK: Load scheduler "ovl1" with entities [LocalPlayer, LocalPlayer], work=[200*, 0*]
  2: 0x0337 [0x45] LOAD_SCHEDULED_TASK: Load scheduler "s027" with entities [LocalPlayer, LocalPlayer], work=[16*, 0*]
  3: 0x0348 [0x4E] SET_ENTITY_HIDE_FLAG: Show Yagudo02 (ID: 17797218/0x010F9062)
  4: 0x034E [0x27] REQ_SET(priority=0x08, entity_id=OYAMISURA06 (ID: 17797206/0x010F9056), tag_num=0x09)
  5: 0x0355 [0x1C] WAIT(80* ticks)
  6: 0x0358 [0x4A] OYAMISURA02 (ID: 17797202/0x010F9052) looks at Yagudo03 (ID: 17797219/0x010F9063)
  7: 0x0361 [0x4A] OYAMISURA03 (ID: 17797203/0x010F9053) looks at Yagudo03 (ID: 17797219/0x010F9063)
  8: 0x036A [0x1C] WAIT(20* ticks)
  9: 0x036D [0x4A] Koh Lenbalalako (ID: 17797200/0x010F9050) looks at Yagudo03 (ID: 17797219/0x010F9063)
 10: 0x0376 [0x2A] GET_REQ_LEVEL(level=8, entity_id=OYAMISURA06 (ID: 17797206/0x010F9056))
 11: 0x037C [0x55] WAIT_LOAD_SCHEDULER: Wait for scheduler "s027" with entities [LocalPlayer, LocalPlayer], work=16*
 12: 0x038B [0x80] LOAD_WAIT(entity=Yagudo02 (ID: 17797218/0x010F9062))
 13: 0x0390 [0x45] LOAD_SCHEDULED_TASK: Load scheduler "ovl1" with entities [LocalPlayer, LocalPlayer], work=[200*, 0*]
 14: 0x03A1 [0x45] LOAD_SCHEDULED_TASK: Load scheduler "s028" with entities [LocalPlayer, LocalPlayer], work=[16*, 0*]
 15: 0x03B2 [0x4A] Yagudo01 (ID: 17797217/0x010F9061) looks at Yagudo02 (ID: 17797218/0x010F9062)
 16: 0x03BB [0x4A] KOMISURA01 (ID: 17797210/0x010F905A) looks at Yagudo02 (ID: 17797218/0x010F9062)
 17: 0x03C4 [0x4A] KOMISURA02 (ID: 17797211/0x010F905B) looks at Yagudo02 (ID: 17797218/0x010F9062)
 18: 0x03CD [0x6F] WAIT_FRAME_DELAY: Yield until WaitTime reaches zero
 19: 0x03CE [0x76] CHECK_ENTITY_RENDER_FLAGS: Wait until KOMISURA02 (ID: 17797211/0x010F905B) Render.Flags0 and Render.Flags3 conditions are met
 20: 0x03D3 [0x27] REQ_SET(priority=0x08, entity_id=OYAMISURA07 (ID: 17797207/0x010F9057), tag_num=0x07)
 21: 0x03DA [0x29] REQ_SET_WAIT(priority=0x08, entity_id=OYAMISURA01 (ID: 17797201/0x010F9051), tag_num=0x06)
 22: 0x03E1 [0x27] REQ_SET(priority=0x0A, entity_id=Yagudo02 (ID: 17797218/0x010F9062), tag_num=0x08)
 23: 0x03E8 [0x27] REQ_SET(priority=0x0A, entity_id=Yagudo03 (ID: 17797219/0x010F9063), tag_num=0x08)
 24: 0x03EF [0x27] REQ_SET(priority=0x0A, entity_id=Yagudo04 (ID: 17797220/0x010F9064), tag_num=0x08)
 25: 0x03F6 [0x1C] WAIT(60* ticks)
 26: 0x03F9 [0x52] END_LOAD_SCHEDULER: End scheduler "s028" with entities [LocalPlayer, LocalPlayer], work=16*
 27: 0x0408 [0x45] LOAD_SCHEDULED_TASK: Load scheduler "ovl1" with entities [LocalPlayer, LocalPlayer], work=[200*, 0*]
 28: 0x0419 [0x45] LOAD_SCHEDULED_TASK: Load scheduler "s029" with entities [LocalPlayer, LocalPlayer], work=[16*, 0*]
 29: 0x042A [0x1C] WAIT(100* ticks)
 30: 0x042D [0x29] REQ_SET_WAIT(priority=0x08, entity_id=OYAMISURA01 (ID: 17797201/0x010F9051), tag_num=0x0A)
 31: 0x0434 [0x2A] GET_REQ_LEVEL(level=10, entity_id=Yagudo03 (ID: 17797219/0x010F9063))
 32: 0x043A [0x45] LOAD_SCHEDULED_TASK: Load scheduler "fdo1" with entities [EventEntity, EventEntity], work=[200*, 0*]
 33: 0x044B [0x1C] WAIT(60* ticks)
 34: 0x044E [0x52] END_LOAD_SCHEDULER: End scheduler "s029" with entities [LocalPlayer, LocalPlayer], work=16*
 35: 0x045D [0x45] LOAD_SCHEDULED_TASK: Load scheduler "s030" with entities [LocalPlayer, LocalPlayer], work=[16*, 0*]
 36: 0x046E [0x29] REQ_SET_WAIT(priority=0x0A, entity_id=Yagudo01 (ID: 17797217/0x010F9061), tag_num=0x06)
 37: 0x0475 [0x29] REQ_SET_WAIT(priority=0x0A, entity_id=Yagudo02 (ID: 17797218/0x010F9062), tag_num=0x06)
 38: 0x047C [0x29] REQ_SET_WAIT(priority=0x0A, entity_id=Yagudo03 (ID: 17797219/0x010F9063), tag_num=0x06)
 39: 0x0483 [0x29] REQ_SET_WAIT(priority=0x0A, entity_id=Yagudo04 (ID: 17797220/0x010F9064), tag_num=0x06)
 40: 0x048A [0x29] REQ_SET_WAIT(priority=0x0A, entity_id=Koh Lenbalalako (ID: 17797200/0x010F9050), tag_num=0x05)
 41: 0x0491 [0x27] REQ_SET(priority=0x0A, entity_id=OYAMISURA01 (ID: 17797201/0x010F9051), tag_num=0x0B)
 42: 0x0498 [0x27] REQ_SET(priority=0x0A, entity_id=Yagudo02 (ID: 17797218/0x010F9062), tag_num=0x09)
 43: 0x049F [0x4A] Koh Lenbalalako (ID: 17797200/0x010F9050) looks at OYAMISURA01 (ID: 17797201/0x010F9051)
 44: 0x04A8 [0x6F] WAIT_FRAME_DELAY: Yield until WaitTime reaches zero
 45: 0x04A9 [0x76] CHECK_ENTITY_RENDER_FLAGS: Wait until Koh Lenbalalako (ID: 17797200/0x010F9050) Render.Flags0 and Render.Flags3 conditions are met
 46: 0x04AE [0x4A] Yagudo04 (ID: 17797220/0x010F9064) looks at OYAMISURA01 (ID: 17797201/0x010F9051)
 47: 0x04B7 [0x45] LOAD_SCHEDULED_TASK: Load scheduler "fdi1" with entities [EventEntity, EventEntity], work=[200*, 0*]
 48: 0x04C8 [0x1C] WAIT(20* ticks)
 49: 0x04CB [0x4A] Yagudo04 (ID: 17797220/0x010F9064) looks at OYAMISURA01 (ID: 17797201/0x010F9051)
 50: 0x04D4 [0x1C] WAIT(20* ticks)
 51: 0x04D7 [0x27] REQ_SET(priority=0x0A, entity_id=Yagudo04 (ID: 17797220/0x010F9064), tag_num=0x09)
 52: 0x04DE [0x1C] WAIT(30* ticks)
 53: 0x04E1 [0x79] Koh Lenbalalako (ID: 17797200/0x010F9050) looks at OYAMISURA01 (ID: 17797201/0x010F9051) (Basic look)
 54: 0x04EB [0x27] REQ_SET(priority=0x0A, entity_id=KOMISURA02 (ID: 17797211/0x010F905B), tag_num=0x0B)
 55: 0x04F2 [0x1E] EventEntity looks at Koh Lenbalalako (ID: 17797200/0x010F9050) and starts talking
 56: 0x04F7 [0x1C] WAIT(40* ticks)
 57: 0x04FA [0x27] REQ_SET(priority=0x0A, entity_id=Koh Lenbalalako (ID: 17797200/0x010F9050), tag_num=0x0A)
 58: 0x0501 [0x1C] WAIT(40* ticks)
 59: 0x0504 [0x45] LOAD_SCHEDULED_TASK: Load scheduler "fdo1" with entities [EventEntity, EventEntity], work=[200*, 0*]
 60: 0x0515 [0x1C] WAIT(60* ticks)
 61: 0x0518 [0x00] END_REQSTACK()
```

### Event 65535.9

#### Metadata

| Field        | Value    |
|--------------|----------|
| Entrypoint   | 0x0519   |
| Data Size    | 10 bytes |
| Instructions | 2        |

```
      00 01 02 03 04 05 06 07  08 09 0A 0B 0C 0D 0E 0F
      -- -- -- -- -- -- -- --  -- -- -- -- -- -- -- --
0510:                             37 0F 80 10 80 11 80           7......
0520: 12 80 00                                          ...             
```

#### Opcodes

```
  0: 0x0519 [0x37] UPDATE_EVENT_POSITION_AND_DIR: x=-45.745*, z=40.426*, y=-15.985*, direction=76.8°*
  1: 0x0522 [0x00] END_REQSTACK()
```

### Event 65535.10

#### Metadata

| Field        | Value    |
|--------------|----------|
| Entrypoint   | 0x0523   |
| Data Size    | 21 bytes |
| Instructions | 7        |

```
      00 01 02 03 04 05 06 07  08 09 0A 0B 0C 0D 0E 0F
      -- -- -- -- -- -- -- --  -- -- -- -- -- -- -- --
0520:          32 13 80 1F 00  14 80 15 80 16 80 1F 01     2............
0530: 1E 4D 90 0F 01 6F 70 00                           .M...op.        
```

#### Opcodes

```
  0: 0x0523 [0x32] ExtData[1]->MainSpeed = 13* * 0.1
  1: 0x0526 [0x1F] MOVE_ENTITY: EventEntity moves to X=-43.931*, Z=33.662*, Y=-15.988*
  2: 0x052E [0x1F] MOVE_ENTITY: Update entity position (mode=1)
  3: 0x0530 [0x1E] EventEntity looks at Koh Lenbalalako (ID: 17797197/0x010F904D) and starts talking
  4: 0x0535 [0x6F] WAIT_FRAME_DELAY: Yield until WaitTime reaches zero
  5: 0x0536 [0x70] WAIT_ENTITY_RENDER_FLAG: Wait while EventEntity->Render.Flags3 bit 2 is set (cancel turn if not)
  6: 0x0537 [0x00] END_REQSTACK()
```

### Event 65535.11

#### Metadata

| Field        | Value    |
|--------------|----------|
| Entrypoint   | 0x0538   |
| Data Size    | 14 bytes |
| Instructions | 4        |

```
      00 01 02 03 04 05 06 07  08 09 0A 0B 0C 0D 0E 0F
      -- -- -- -- -- -- -- --  -- -- -- -- -- -- -- --
0530:                          32 13 80 1F 00 17 80 18          2.......
0540: 80 19 80 1F 01 00                                 ......          
```

#### Opcodes

```
  0: 0x0538 [0x32] ExtData[1]->MainSpeed = 13* * 0.1
  1: 0x053B [0x1F] MOVE_ENTITY: EventEntity moves to X=-46.578*, Z=39.114*, Y=-16.178*
  2: 0x0543 [0x1F] MOVE_ENTITY: Update entity position (mode=1)
  3: 0x0545 [0x00] END_REQSTACK()
```

### Event 65535.12

#### Metadata

| Field        | Value   |
|--------------|---------|
| Entrypoint   | 0x0546  |
| Data Size    | 5 bytes |
| Instructions | 3       |

```
      00 01 02 03 04 05 06 07  08 09 0A 0B 0C 0D 0E 0F
      -- -- -- -- -- -- -- --  -- -- -- -- -- -- -- --
0540:                   1D 1A  80 23 00                       ...#.     
```

#### Opcodes

```
  0: 0x0546 [0x1D] PRINT_EVENT_MESSAGE(message_id=7291*)
    → "I go now to check the verrracity of that story, to see for my own eyes the body of Syu Befrathi, daughter of Chieftainness Nhev Befrathi."
  1: 0x0549 [0x23] WAIT_FOR_DIALOG_INTERACTION
  2: 0x054A [0x00] END_REQSTACK()
```

### Event 65535.13

#### Metadata

| Field        | Value   |
|--------------|---------|
| Entrypoint   | 0x054B  |
| Data Size    | 9 bytes |
| Instructions | 5       |

```
      00 01 02 03 04 05 06 07  08 09 0A 0B 0C 0D 0E 0F
      -- -- -- -- -- -- -- --  -- -- -- -- -- -- -- --
0540:                                   1D 1B 80 23 1D             ...#.
0550: 1C 80 23 00                                       ..#.            
```

#### Opcodes

```
  0: 0x054B [0x1D] PRINT_EVENT_MESSAGE(message_id=7292*)
    → "I have heard from the townspeople that dangerous creatures rrroam the dark hallways of the Eldieme Necropolis."
  1: 0x054E [0x23] WAIT_FOR_DIALOG_INTERACTION
  2: 0x054F [0x1D] PRINT_EVENT_MESSAGE(message_id=7293*)
    → "It is a place that cannot be entered alone. But of course, I have no intention of giving up on my quarrry."
  3: 0x0552 [0x23] WAIT_FOR_DIALOG_INTERACTION
  4: 0x0553 [0x00] END_REQSTACK()
```

### Event 65535.14

#### Metadata

| Field        | Value   |
|--------------|---------|
| Entrypoint   | 0x0554  |
| Data Size    | 5 bytes |
| Instructions | 3       |

```
      00 01 02 03 04 05 06 07  08 09 0A 0B 0C 0D 0E 0F
      -- -- -- -- -- -- -- --  -- -- -- -- -- -- -- --
0550:             1D 1D 80 23  00                           ...#.       
```

#### Opcodes

```
  0: 0x0554 [0x1D] PRINT_EVENT_MESSAGE(message_id=7294*)
    → "You are one of the brrreed they call adventurers, right? Adventurers are said to take on almost any kind of work as long as the pay is good."
  1: 0x0557 [0x23] WAIT_FOR_DIALOG_INTERACTION
  2: 0x0558 [0x00] END_REQSTACK()
```

### Event 65535.15

#### Metadata

| Field        | Value   |
|--------------|---------|
| Entrypoint   | 0x0559  |
| Data Size    | 5 bytes |
| Instructions | 3       |

```
      00 01 02 03 04 05 06 07  08 09 0A 0B 0C 0D 0E 0F
      -- -- -- -- -- -- -- --  -- -- -- -- -- -- -- --
0550:                             1D 1E 80 23 00                 ...#.  
```

#### Opcodes

```
  0: 0x0559 [0x1D] PRINT_EVENT_MESSAGE(message_id=7295*)
    → "I will follow after you, keeping out of sight. Clear the path ahead, making for the cemetery in the center of the necropolis."
  1: 0x055C [0x23] WAIT_FOR_DIALOG_INTERACTION
  2: 0x055D [0x00] END_REQSTACK()
```

### Event 65535.16

#### Metadata

| Field        | Value   |
|--------------|---------|
| Entrypoint   | 0x055E  |
| Data Size    | 5 bytes |
| Instructions | 3       |

```
      00 01 02 03 04 05 06 07  08 09 0A 0B 0C 0D 0E 0F
      -- -- -- -- -- -- -- --  -- -- -- -- -- -- -- --
0550:                                            1D 1F                ..
0560: 80 23 00                                          .#.             
```

#### Opcodes

```
  0: 0x055E [0x1D] PRINT_EVENT_MESSAGE(message_id=7296*)
    → "Meet me at the necropolis, and don't be late."
  1: 0x0561 [0x23] WAIT_FOR_DIALOG_INTERACTION
  2: 0x0562 [0x00] END_REQSTACK()
```

### Event 10009

#### Metadata

| Field        | Value   |
|--------------|---------|
| Entrypoint   | 0x0563  |
| Data Size    | 1 bytes |
| Instructions | 1       |

```
      00 01 02 03 04 05 06 07  08 09 0A 0B 0C 0D 0E 0F
      -- -- -- -- -- -- -- --  -- -- -- -- -- -- -- --
0560:          00                                          .            
```

#### Opcodes

```
  0: 0x0563 [0x00] END_REQSTACK()
```

### Event 10011

#### Metadata

| Field        | Value   |
|--------------|---------|
| Entrypoint   | 0x0564  |
| Data Size    | 1 bytes |
| Instructions | 1       |

```
      00 01 02 03 04 05 06 07  08 09 0A 0B 0C 0D 0E 0F
      -- -- -- -- -- -- -- --  -- -- -- -- -- -- -- --
0560:             00                                        .           
```

#### Opcodes

```
  0: 0x0564 [0x00] END_REQSTACK()
```

### Event 65535.17

#### Metadata

| Field        | Value     |
|--------------|-----------|
| Entrypoint   | 0x0565    |
| Data Size    | 399 bytes |
| Instructions | 41        |

```
      00 01 02 03 04 05 06 07  08 09 0A 0B 0C 0D 0E 0F
      -- -- -- -- -- -- -- --  -- -- -- -- -- -- -- --
0560:                29 0A 51  90 0F 01 0E 29 0A 57 90       ).Q....).W.
0570: 0F 01 10 29 0A 56 90 0F  01 0D 29 0A 65 90 0F 01  ...).V....).e...
0580: 03 45 07 80 F0 FF FF 7F  F0 FF FF 7F 73 30 35 39  .E..........s059
0590: 05 80 45 04 80 F8 FF FF  7F F8 FF FF 7F 66 64 69  ..E..........fdi
05A0: 31 05 80 27 0A 51 90 0F  01 0F 1C 04 80 52 07 80  1..'.Q.......R..
05B0: F0 FF FF 7F F0 FF FF 7F  73 30 35 39 45 04 80 F0  ........s059E...
05C0: FF FF 7F F0 FF FF 7F 6F  76 6C 31 05 80 45 07 80  .......ovl1..E..
05D0: F0 FF FF 7F F0 FF FF 7F  73 30 36 30 05 80 1C 0C  ........s060....
05E0: 80 52 07 80 F0 FF FF 7F  F0 FF FF 7F 73 30 36 30  .R..........s060
05F0: 45 04 80 F0 FF FF 7F F0  FF FF 7F 6F 76 6C 31 05  E..........ovl1.
0600: 80 45 07 80 F0 FF FF 7F  F0 FF FF 7F 73 30 36 31  .E..........s061
0610: 05 80 29 0A 65 90 0F 01  05 79 00 65 90 0F 01 51  ..).e....y.e...Q
0620: 90 0F 01 55 07 80 F0 FF  FF 7F F0 FF FF 7F 73 30  ...U..........s0
0630: 36 31 79 00 57 90 0F 01  56 90 0F 01 45 07 80 F0  61y.W...V...E...
0640: FF FF 7F F0 FF FF 7F 73  30 36 32 05 80 1C 06 80  .......s062.....
0650: 79 00 57 90 0F 01 65 90  0F 01 4A 56 90 0F 01 51  y.W...e...JV...Q
0660: 90 0F 01 79 00 57 90 0F  01 51 90 0F 01 6F 76 56  ...y.W...Q...ovV
0670: 90 0F 01 2A 0A 51 90 0F  01 27 0A 51 90 0F 01 10  ...*.Q...'.Q....
0680: 52 07 80 F0 FF FF 7F F0  FF FF 7F 73 30 36 32 45  R..........s062E
0690: 04 80 F0 FF FF 7F F0 FF  FF 7F 6F 76 6C 31 05 80  ..........ovl1..
06A0: 45 07 80 F0 FF FF 7F F0  FF FF 7F 73 30 36 33 05  E..........s063.
06B0: 80 29 0A 65 90 0F 01 06  4A 65 90 0F 01 51 90 0F  .).e....Je...Q..
06C0: 01 6F 76 65 90 0F 01 1C  0D 80 45 04 80 F8 FF FF  .ove......E.....
06D0: 7F F8 FF FF 7F 66 64 6F  31 05 80 1C 0C 80 52 07  .....fdo1.....R.
06E0: 80 F0 FF FF 7F F0 FF FF  7F 73 30 36 33 2A 0A 51  .........s063*.Q
06F0: 90 0F 01 00                                       ....            
```

#### Opcodes

```
  0: 0x0565 [0x29] REQ_SET_WAIT(priority=0x0A, entity_id=OYAMISURA01 (ID: 17797201/0x010F9051), tag_num=0x0E)
  1: 0x056C [0x29] REQ_SET_WAIT(priority=0x0A, entity_id=OYAMISURA07 (ID: 17797207/0x010F9057), tag_num=0x10)
  2: 0x0573 [0x29] REQ_SET_WAIT(priority=0x0A, entity_id=OYAMISURA06 (ID: 17797206/0x010F9056), tag_num=0x0D)
  3: 0x057A [0x29] REQ_SET_WAIT(priority=0x0A, entity_id=HEISHI01 (ID: 17797221/0x010F9065), tag_num=0x03)
  4: 0x0581 [0x45] LOAD_SCHEDULED_TASK: Load scheduler "s059" with entities [LocalPlayer, LocalPlayer], work=[16*, 0*]
  5: 0x0592 [0x45] LOAD_SCHEDULED_TASK: Load scheduler "fdi1" with entities [EventEntity, EventEntity], work=[200*, 0*]
  6: 0x05A3 [0x27] REQ_SET(priority=0x0A, entity_id=OYAMISURA01 (ID: 17797201/0x010F9051), tag_num=0x0F)
  7: 0x05AA [0x1C] WAIT(200* ticks)
  8: 0x05AD [0x52] END_LOAD_SCHEDULER: End scheduler "s059" with entities [LocalPlayer, LocalPlayer], work=16*
  9: 0x05BC [0x45] LOAD_SCHEDULED_TASK: Load scheduler "ovl1" with entities [LocalPlayer, LocalPlayer], work=[200*, 0*]
 10: 0x05CD [0x45] LOAD_SCHEDULED_TASK: Load scheduler "s060" with entities [LocalPlayer, LocalPlayer], work=[16*, 0*]
 11: 0x05DE [0x1C] WAIT(100* ticks)
 12: 0x05E1 [0x52] END_LOAD_SCHEDULER: End scheduler "s060" with entities [LocalPlayer, LocalPlayer], work=16*
 13: 0x05F0 [0x45] LOAD_SCHEDULED_TASK: Load scheduler "ovl1" with entities [LocalPlayer, LocalPlayer], work=[200*, 0*]
 14: 0x0601 [0x45] LOAD_SCHEDULED_TASK: Load scheduler "s061" with entities [LocalPlayer, LocalPlayer], work=[16*, 0*]
 15: 0x0612 [0x29] REQ_SET_WAIT(priority=0x0A, entity_id=HEISHI01 (ID: 17797221/0x010F9065), tag_num=0x05)
 16: 0x0619 [0x79] HEISHI01 (ID: 17797221/0x010F9065) looks at OYAMISURA01 (ID: 17797201/0x010F9051) (Basic look)
 17: 0x0623 [0x55] WAIT_LOAD_SCHEDULER: Wait for scheduler "s061" with entities [LocalPlayer, LocalPlayer], work=16*
 18: 0x0632 [0x79] OYAMISURA07 (ID: 17797207/0x010F9057) looks at OYAMISURA06 (ID: 17797206/0x010F9056) (Basic look)
 19: 0x063C [0x45] LOAD_SCHEDULED_TASK: Load scheduler "s062" with entities [LocalPlayer, LocalPlayer], work=[16*, 0*]
 20: 0x064D [0x1C] WAIT(60* ticks)
 21: 0x0650 [0x79] OYAMISURA07 (ID: 17797207/0x010F9057) looks at HEISHI01 (ID: 17797221/0x010F9065) (Basic look)
 22: 0x065A [0x4A] OYAMISURA06 (ID: 17797206/0x010F9056) looks at OYAMISURA01 (ID: 17797201/0x010F9051)
 23: 0x0663 [0x79] OYAMISURA07 (ID: 17797207/0x010F9057) looks at OYAMISURA01 (ID: 17797201/0x010F9051) (Basic look)
 24: 0x066D [0x6F] WAIT_FRAME_DELAY: Yield until WaitTime reaches zero
 25: 0x066E [0x76] CHECK_ENTITY_RENDER_FLAGS: Wait until OYAMISURA06 (ID: 17797206/0x010F9056) Render.Flags0 and Render.Flags3 conditions are met
 26: 0x0673 [0x2A] GET_REQ_LEVEL(level=10, entity_id=OYAMISURA01 (ID: 17797201/0x010F9051))
 27: 0x0679 [0x27] REQ_SET(priority=0x0A, entity_id=OYAMISURA01 (ID: 17797201/0x010F9051), tag_num=0x10)
 28: 0x0680 [0x52] END_LOAD_SCHEDULER: End scheduler "s062" with entities [LocalPlayer, LocalPlayer], work=16*
 29: 0x068F [0x45] LOAD_SCHEDULED_TASK: Load scheduler "ovl1" with entities [LocalPlayer, LocalPlayer], work=[200*, 0*]
 30: 0x06A0 [0x45] LOAD_SCHEDULED_TASK: Load scheduler "s063" with entities [LocalPlayer, LocalPlayer], work=[16*, 0*]
 31: 0x06B1 [0x29] REQ_SET_WAIT(priority=0x0A, entity_id=HEISHI01 (ID: 17797221/0x010F9065), tag_num=0x06)
 32: 0x06B8 [0x4A] HEISHI01 (ID: 17797221/0x010F9065) looks at OYAMISURA01 (ID: 17797201/0x010F9051)
 33: 0x06C1 [0x6F] WAIT_FRAME_DELAY: Yield until WaitTime reaches zero
 34: 0x06C2 [0x76] CHECK_ENTITY_RENDER_FLAGS: Wait until HEISHI01 (ID: 17797221/0x010F9065) Render.Flags0 and Render.Flags3 conditions are met
 35: 0x06C7 [0x1C] WAIT(80* ticks)
 36: 0x06CA [0x45] LOAD_SCHEDULED_TASK: Load scheduler "fdo1" with entities [EventEntity, EventEntity], work=[200*, 0*]
 37: 0x06DB [0x1C] WAIT(100* ticks)
 38: 0x06DE [0x52] END_LOAD_SCHEDULER: End scheduler "s063" with entities [LocalPlayer, LocalPlayer], work=16*
 39: 0x06ED [0x2A] GET_REQ_LEVEL(level=10, entity_id=OYAMISURA01 (ID: 17797201/0x010F9051))
 40: 0x06F3 [0x00] END_REQSTACK()
```

### Event 65535.18

#### Metadata

| Field        | Value     |
|--------------|-----------|
| Entrypoint   | 0x06F4    |
| Data Size    | 474 bytes |
| Instructions | 66        |

```
      00 01 02 03 04 05 06 07  08 09 0A 0B 0C 0D 0E 0F
      -- -- -- -- -- -- -- --  -- -- -- -- -- -- -- --
06F0:             1C 06 80 22  01 4E 01 F0 FF FF 7F 77      ...".N.....w
0700: 20 80 21 80 4E 00 61 90  0F 01 4E 00 62 90 0F 01   .!.N.a...N.b...
0710: 4E 00 63 90 0F 01 4E 00  64 90 0F 01 4E 00 65 90  N.c...N.d...N.e.
0720: 0F 01 4E 00 66 90 0F 01  4E 00 56 90 0F 01 4E 00  ..N.f...N.V...N.
0730: 57 90 0F 01 80 61 90 0F  01 80 62 90 0F 01 80 63  W....a....b....c
0740: 90 0F 01 80 64 90 0F 01  80 65 90 0F 01 80 66 90  ....d....e....f.
0750: 0F 01 80 56 90 0F 01 80  57 90 0F 01 29 0A 61 90  ...V....W...).a.
0760: 0F 01 0B 29 0A 62 90 0F  01 0D 29 0A 63 90 0F 01  ...).b....).c...
0770: 0B 29 0A 64 90 0F 01 0C  29 0A 65 90 0F 01 04 29  .).d....).e....)
0780: 0A 66 90 0F 01 03 29 0A  56 90 0F 01 0E 29 0A 57  .f....).V....).W
0790: 90 0F 01 11 27 0A 61 90  0F 01 0C 27 0A 62 90 0F  ....'.a....'.b..
07A0: 01 0E 27 0A 63 90 0F 01  0C 27 0A 64 90 0F 01 0D  ..'.c....'.d....
07B0: 1C 22 80 45 07 80 F0 FF  FF 7F F0 FF FF 7F 73 30  .".E..........s0
07C0: 36 34 05 80 45 04 80 F8  FF FF 7F F8 FF FF 7F 66  64..E..........f
07D0: 64 69 31 05 80 1C 08 80  27 0A 65 90 0F 01 07 1C  di1.....'.e.....
07E0: 0D 80 52 07 80 F0 FF FF  7F F0 FF FF 7F 73 30 36  ..R..........s06
07F0: 34 45 07 80 F0 FF FF 7F  F0 FF FF 7F 73 30 36 37  4E..........s067
0800: 05 80 79 00 63 90 0F 01  64 90 0F 01 79 00 62 90  ..y.c...d...y.b.
0810: 0F 01 64 90 0F 01 1C 06  80 52 07 80 F0 FF FF 7F  ..d......R......
0820: F0 FF FF 7F 73 30 36 37  45 07 80 F0 FF FF 7F F0  ....s067E.......
0830: FF FF 7F 73 30 36 35 05  80 1C 06 80 52 07 80 F0  ...s065.....R...
0840: FF FF 7F F0 FF FF 7F 73  30 36 35 45 07 80 F0 FF  .......s065E....
0850: FF 7F F0 FF FF 7F 73 30  36 36 05 80 27 0A 56 90  ......s066..'.V.
0860: 0F 01 0F 27 0A 57 90 0F  01 12 27 0A 66 90 0F 01  ...'.W....'.f...
0870: 04 1C 0D 80 45 04 80 F8  FF FF 7F F8 FF FF 7F 66  ....E..........f
0880: 64 6F 31 05 80 2A 0A 63  90 0F 01 2A 0A 64 90 0F  do1..*.c...*.d..
0890: 01 2A 0A 62 90 0F 01 2A  0A 66 90 0F 01 4E 01 61  .*.b...*.f...N.a
08A0: 90 0F 01 4E 01 62 90 0F  01 4E 01 63 90 0F 01 4E  ...N.b...N.c...N
08B0: 01 64 90 0F 01 4E 01 65  90 0F 01 4E 01 66 90 0F  .d...N.e...N.f..
08C0: 01 4E 01 56 90 0F 01 4E  01 57 90 0F 01 00        .N.V...N.W....  
```

#### Opcodes

```
  0: 0x06F4 [0x1C] WAIT(60* ticks)
  1: 0x06F7 [0x22] ENTITY_HIDE_FLAG(enabled=0x01)
  2: 0x06F9 [0x4E] SET_ENTITY_HIDE_FLAG: Hide LocalPlayer
  3: 0x06FF [0x77] SET_EVENT_TIME_WEATHER(hour=24*, weather=8*)
  4: 0x0704 [0x4E] SET_ENTITY_HIDE_FLAG: Show Yagudo01 (ID: 17797217/0x010F9061)
  5: 0x070A [0x4E] SET_ENTITY_HIDE_FLAG: Show Yagudo02 (ID: 17797218/0x010F9062)
  6: 0x0710 [0x4E] SET_ENTITY_HIDE_FLAG: Show Yagudo03 (ID: 17797219/0x010F9063)
  7: 0x0716 [0x4E] SET_ENTITY_HIDE_FLAG: Show Yagudo04 (ID: 17797220/0x010F9064)
  8: 0x071C [0x4E] SET_ENTITY_HIDE_FLAG: Show HEISHI01 (ID: 17797221/0x010F9065)
  9: 0x0722 [0x4E] SET_ENTITY_HIDE_FLAG: Show HEISHI02 (ID: 17797222/0x010F9066)
 10: 0x0728 [0x4E] SET_ENTITY_HIDE_FLAG: Show OYAMISURA06 (ID: 17797206/0x010F9056)
 11: 0x072E [0x4E] SET_ENTITY_HIDE_FLAG: Show OYAMISURA07 (ID: 17797207/0x010F9057)
 12: 0x0734 [0x80] LOAD_WAIT(entity=Yagudo01 (ID: 17797217/0x010F9061))
 13: 0x0739 [0x80] LOAD_WAIT(entity=Yagudo02 (ID: 17797218/0x010F9062))
 14: 0x073E [0x80] LOAD_WAIT(entity=Yagudo03 (ID: 17797219/0x010F9063))
 15: 0x0743 [0x80] LOAD_WAIT(entity=Yagudo04 (ID: 17797220/0x010F9064))
 16: 0x0748 [0x80] LOAD_WAIT(entity=HEISHI01 (ID: 17797221/0x010F9065))
 17: 0x074D [0x80] LOAD_WAIT(entity=HEISHI02 (ID: 17797222/0x010F9066))
 18: 0x0752 [0x80] LOAD_WAIT(entity=OYAMISURA06 (ID: 17797206/0x010F9056))
 19: 0x0757 [0x80] LOAD_WAIT(entity=OYAMISURA07 (ID: 17797207/0x010F9057))
 20: 0x075C [0x29] REQ_SET_WAIT(priority=0x0A, entity_id=Yagudo01 (ID: 17797217/0x010F9061), tag_num=0x0B)
 21: 0x0763 [0x29] REQ_SET_WAIT(priority=0x0A, entity_id=Yagudo02 (ID: 17797218/0x010F9062), tag_num=0x0D)
 22: 0x076A [0x29] REQ_SET_WAIT(priority=0x0A, entity_id=Yagudo03 (ID: 17797219/0x010F9063), tag_num=0x0B)
 23: 0x0771 [0x29] REQ_SET_WAIT(priority=0x0A, entity_id=Yagudo04 (ID: 17797220/0x010F9064), tag_num=0x0C)
 24: 0x0778 [0x29] REQ_SET_WAIT(priority=0x0A, entity_id=HEISHI01 (ID: 17797221/0x010F9065), tag_num=0x04)
 25: 0x077F [0x29] REQ_SET_WAIT(priority=0x0A, entity_id=HEISHI02 (ID: 17797222/0x010F9066), tag_num=0x03)
 26: 0x0786 [0x29] REQ_SET_WAIT(priority=0x0A, entity_id=OYAMISURA06 (ID: 17797206/0x010F9056), tag_num=0x0E)
 27: 0x078D [0x29] REQ_SET_WAIT(priority=0x0A, entity_id=OYAMISURA07 (ID: 17797207/0x010F9057), tag_num=0x11)
 28: 0x0794 [0x27] REQ_SET(priority=0x0A, entity_id=Yagudo01 (ID: 17797217/0x010F9061), tag_num=0x0C)
 29: 0x079B [0x27] REQ_SET(priority=0x0A, entity_id=Yagudo02 (ID: 17797218/0x010F9062), tag_num=0x0E)
 30: 0x07A2 [0x27] REQ_SET(priority=0x0A, entity_id=Yagudo03 (ID: 17797219/0x010F9063), tag_num=0x0C)
 31: 0x07A9 [0x27] REQ_SET(priority=0x0A, entity_id=Yagudo04 (ID: 17797220/0x010F9064), tag_num=0x0D)
 32: 0x07B0 [0x1C] WAIT(10* ticks)
 33: 0x07B3 [0x45] LOAD_SCHEDULED_TASK: Load scheduler "s064" with entities [LocalPlayer, LocalPlayer], work=[16*, 0*]
 34: 0x07C4 [0x45] LOAD_SCHEDULED_TASK: Load scheduler "fdi1" with entities [EventEntity, EventEntity], work=[200*, 0*]
 35: 0x07D5 [0x1C] WAIT(20* ticks)
 36: 0x07D8 [0x27] REQ_SET(priority=0x0A, entity_id=HEISHI01 (ID: 17797221/0x010F9065), tag_num=0x07)
 37: 0x07DF [0x1C] WAIT(80* ticks)
 38: 0x07E2 [0x52] END_LOAD_SCHEDULER: End scheduler "s064" with entities [LocalPlayer, LocalPlayer], work=16*
 39: 0x07F1 [0x45] LOAD_SCHEDULED_TASK: Load scheduler "s067" with entities [LocalPlayer, LocalPlayer], work=[16*, 0*]
 40: 0x0802 [0x79] Yagudo03 (ID: 17797219/0x010F9063) looks at Yagudo04 (ID: 17797220/0x010F9064) (Basic look)
 41: 0x080C [0x79] Yagudo02 (ID: 17797218/0x010F9062) looks at Yagudo04 (ID: 17797220/0x010F9064) (Basic look)
 42: 0x0816 [0x1C] WAIT(60* ticks)
 43: 0x0819 [0x52] END_LOAD_SCHEDULER: End scheduler "s067" with entities [LocalPlayer, LocalPlayer], work=16*
 44: 0x0828 [0x45] LOAD_SCHEDULED_TASK: Load scheduler "s065" with entities [LocalPlayer, LocalPlayer], work=[16*, 0*]
 45: 0x0839 [0x1C] WAIT(60* ticks)
 46: 0x083C [0x52] END_LOAD_SCHEDULER: End scheduler "s065" with entities [LocalPlayer, LocalPlayer], work=16*
 47: 0x084B [0x45] LOAD_SCHEDULED_TASK: Load scheduler "s066" with entities [LocalPlayer, LocalPlayer], work=[16*, 0*]
 48: 0x085C [0x27] REQ_SET(priority=0x0A, entity_id=OYAMISURA06 (ID: 17797206/0x010F9056), tag_num=0x0F)
 49: 0x0863 [0x27] REQ_SET(priority=0x0A, entity_id=OYAMISURA07 (ID: 17797207/0x010F9057), tag_num=0x12)
 50: 0x086A [0x27] REQ_SET(priority=0x0A, entity_id=HEISHI02 (ID: 17797222/0x010F9066), tag_num=0x04)
 51: 0x0871 [0x1C] WAIT(80* ticks)
 52: 0x0874 [0x45] LOAD_SCHEDULED_TASK: Load scheduler "fdo1" with entities [EventEntity, EventEntity], work=[200*, 0*]
 53: 0x0885 [0x2A] GET_REQ_LEVEL(level=10, entity_id=Yagudo03 (ID: 17797219/0x010F9063))
 54: 0x088B [0x2A] GET_REQ_LEVEL(level=10, entity_id=Yagudo04 (ID: 17797220/0x010F9064))
 55: 0x0891 [0x2A] GET_REQ_LEVEL(level=10, entity_id=Yagudo02 (ID: 17797218/0x010F9062))
 56: 0x0897 [0x2A] GET_REQ_LEVEL(level=10, entity_id=HEISHI02 (ID: 17797222/0x010F9066))
 57: 0x089D [0x4E] SET_ENTITY_HIDE_FLAG: Hide Yagudo01 (ID: 17797217/0x010F9061)
 58: 0x08A3 [0x4E] SET_ENTITY_HIDE_FLAG: Hide Yagudo02 (ID: 17797218/0x010F9062)
 59: 0x08A9 [0x4E] SET_ENTITY_HIDE_FLAG: Hide Yagudo03 (ID: 17797219/0x010F9063)
 60: 0x08AF [0x4E] SET_ENTITY_HIDE_FLAG: Hide Yagudo04 (ID: 17797220/0x010F9064)
 61: 0x08B5 [0x4E] SET_ENTITY_HIDE_FLAG: Hide HEISHI01 (ID: 17797221/0x010F9065)
 62: 0x08BB [0x4E] SET_ENTITY_HIDE_FLAG: Hide HEISHI02 (ID: 17797222/0x010F9066)
 63: 0x08C1 [0x4E] SET_ENTITY_HIDE_FLAG: Hide OYAMISURA06 (ID: 17797206/0x010F9056)
 64: 0x08C7 [0x4E] SET_ENTITY_HIDE_FLAG: Hide OYAMISURA07 (ID: 17797207/0x010F9057)
 65: 0x08CD [0x00] END_REQSTACK()
```

### Event 65535.19

#### Metadata

| Field        | Value     |
|--------------|-----------|
| Entrypoint   | 0x08CE    |
| Data Size    | 161 bytes |
| Instructions | 25        |

```
      00 01 02 03 04 05 06 07  08 09 0A 0B 0C 0D 0E 0F
      -- -- -- -- -- -- -- --  -- -- -- -- -- -- -- --
08C0:                                            75 00                u.
08D0: 23 80 75 01 4E 01 F0 FF  FF 7F 4E 00 67 90 0F 01  #.u.N.....N.g...
08E0: 4E 00 50 90 0F 01 4E 00  5A 90 0F 01 4E 00 66 90  N.P...N.Z...N.f.
08F0: 0F 01 80 67 90 0F 01 80  50 90 0F 01 80 5A 90 0F  ...g....P....Z..
0900: 01 80 66 90 0F 01 79 00  50 90 0F 01 67 90 0F 01  ..f...y.P...g...
0910: 29 0A 67 90 0F 01 08 29  0A 5A 90 0F 01 0B 29 0A  ).g....).Z....).
0920: 50 90 0F 01 0F 29 0A 66  90 0F 01 05 45 07 80 F0  P....).f....E...
0930: FF FF 7F F0 FF FF 7F 73  30 37 30 05 80 45 04 80  .......s070..E..
0940: F8 FF FF 7F F8 FF FF 7F  66 64 69 31 05 80 27 0A  ........fdi1..'.
0950: 67 90 0F 01 09 1C 06 80  27 0A 50 90 0F 01 10 1C  g.......'.P.....
0960: 01 80 2A 0A 67 90 0F 01  2A 0A 50 90 0F 01 00     ..*.g...*.P.... 
```

#### Opcodes

```
  0: 0x08CE [0x75] LOAD_ROOM(Load indoor room, room=452*)
  1: 0x08D2 [0x75] LOAD_ROOM(No action)
  2: 0x08D4 [0x4E] SET_ENTITY_HIDE_FLAG: Hide LocalPlayer
  3: 0x08DA [0x4E] SET_ENTITY_HIDE_FLAG: Show Perih Vashai (ID: 17797223/0x010F9067)
  4: 0x08E0 [0x4E] SET_ENTITY_HIDE_FLAG: Show Koh Lenbalalako (ID: 17797200/0x010F9050)
  5: 0x08E6 [0x4E] SET_ENTITY_HIDE_FLAG: Show KOMISURA01 (ID: 17797210/0x010F905A)
  6: 0x08EC [0x4E] SET_ENTITY_HIDE_FLAG: Show HEISHI02 (ID: 17797222/0x010F9066)
  7: 0x08F2 [0x80] LOAD_WAIT(entity=Perih Vashai (ID: 17797223/0x010F9067))
  8: 0x08F7 [0x80] LOAD_WAIT(entity=Koh Lenbalalako (ID: 17797200/0x010F9050))
  9: 0x08FC [0x80] LOAD_WAIT(entity=KOMISURA01 (ID: 17797210/0x010F905A))
 10: 0x0901 [0x80] LOAD_WAIT(entity=HEISHI02 (ID: 17797222/0x010F9066))
 11: 0x0906 [0x79] Koh Lenbalalako (ID: 17797200/0x010F9050) looks at Perih Vashai (ID: 17797223/0x010F9067) (Basic look)
 12: 0x0910 [0x29] REQ_SET_WAIT(priority=0x0A, entity_id=Perih Vashai (ID: 17797223/0x010F9067), tag_num=0x08)
 13: 0x0917 [0x29] REQ_SET_WAIT(priority=0x0A, entity_id=KOMISURA01 (ID: 17797210/0x010F905A), tag_num=0x0B)
 14: 0x091E [0x29] REQ_SET_WAIT(priority=0x0A, entity_id=Koh Lenbalalako (ID: 17797200/0x010F9050), tag_num=0x0F)
 15: 0x0925 [0x29] REQ_SET_WAIT(priority=0x0A, entity_id=HEISHI02 (ID: 17797222/0x010F9066), tag_num=0x05)
 16: 0x092C [0x45] LOAD_SCHEDULED_TASK: Load scheduler "s070" with entities [LocalPlayer, LocalPlayer], work=[16*, 0*]
 17: 0x093D [0x45] LOAD_SCHEDULED_TASK: Load scheduler "fdi1" with entities [EventEntity, EventEntity], work=[200*, 0*]
 18: 0x094E [0x27] REQ_SET(priority=0x0A, entity_id=Perih Vashai (ID: 17797223/0x010F9067), tag_num=0x09)
 19: 0x0955 [0x1C] WAIT(60* ticks)
 20: 0x0958 [0x27] REQ_SET(priority=0x0A, entity_id=Koh Lenbalalako (ID: 17797200/0x010F9050), tag_num=0x10)
 21: 0x095F [0x1C] WAIT(30* ticks)
 22: 0x0962 [0x2A] GET_REQ_LEVEL(level=10, entity_id=Perih Vashai (ID: 17797223/0x010F9067))
 23: 0x0968 [0x2A] GET_REQ_LEVEL(level=10, entity_id=Koh Lenbalalako (ID: 17797200/0x010F9050))
 24: 0x096E [0x00] END_REQSTACK()
```

### Event 65535.20

#### Metadata

| Field        | Value    |
|--------------|----------|
| Entrypoint   | 0x096F   |
| Data Size    | 82 bytes |
| Instructions | 10       |

```
      00 01 02 03 04 05 06 07  08 09 0A 0B 0C 0D 0E 0F
      -- -- -- -- -- -- -- --  -- -- -- -- -- -- -- --
0960:                                               52                 R
0970: 07 80 F0 FF FF 7F F0 FF  FF 7F 73 30 37 30 45 07  ..........s070E.
0980: 80 F0 FF FF 7F F0 FF FF  7F 73 30 37 31 05 80 27  .........s071..'
0990: 0A 5A 90 0F 01 0C 2A 0A  67 90 0F 01 79 00 67 90  .Z....*.g...y.g.
09A0: 0F 01 5A 90 0F 01 79 00  5A 90 0F 01 67 90 0F 01  ..Z...y.Z...g...
09B0: 1C 24 80 79 00 67 90 0F  01 50 90 0F 01 1C 25 80  .$.y.g...P....%.
09C0: 00                                                .               
```

#### Opcodes

```
  0: 0x096F [0x52] END_LOAD_SCHEDULER: End scheduler "s070" with entities [LocalPlayer, LocalPlayer], work=16*
  1: 0x097E [0x45] LOAD_SCHEDULED_TASK: Load scheduler "s071" with entities [LocalPlayer, LocalPlayer], work=[16*, 0*]
  2: 0x098F [0x27] REQ_SET(priority=0x0A, entity_id=KOMISURA01 (ID: 17797210/0x010F905A), tag_num=0x0C)
  3: 0x0996 [0x2A] GET_REQ_LEVEL(level=10, entity_id=Perih Vashai (ID: 17797223/0x010F9067))
  4: 0x099C [0x79] Perih Vashai (ID: 17797223/0x010F9067) looks at KOMISURA01 (ID: 17797210/0x010F905A) (Basic look)
  5: 0x09A6 [0x79] KOMISURA01 (ID: 17797210/0x010F905A) looks at Perih Vashai (ID: 17797223/0x010F9067) (Basic look)
  6: 0x09B0 [0x1C] WAIT(90* ticks)
  7: 0x09B3 [0x79] Perih Vashai (ID: 17797223/0x010F9067) looks at Koh Lenbalalako (ID: 17797200/0x010F9050) (Basic look)
  8: 0x09BD [0x1C] WAIT(150* ticks)
  9: 0x09C0 [0x00] END_REQSTACK()
```

### Event 65535.21

#### Metadata

| Field        | Value    |
|--------------|----------|
| Entrypoint   | 0x09C1   |
| Data Size    | 64 bytes |
| Instructions | 8        |

```
      00 01 02 03 04 05 06 07  08 09 0A 0B 0C 0D 0E 0F
      -- -- -- -- -- -- -- --  -- -- -- -- -- -- -- --
09C0:    52 07 80 F0 FF FF 7F  F0 FF FF 7F 73 30 37 31   R..........s071
09D0: 45 07 80 F0 FF FF 7F F0  FF FF 7F 73 30 37 32 05  E..........s072.
09E0: 80 27 0A 50 90 0F 01 11  1C 01 80 27 0A 5A 90 0F  .'.P.......'.Z..
09F0: 01 0D 29 08 67 90 0F 01  03 29 08 67 90 0F 01 04  ..).g....).g....
0A00: 00                                                .               
```

#### Opcodes

```
  0: 0x09C1 [0x52] END_LOAD_SCHEDULER: End scheduler "s071" with entities [LocalPlayer, LocalPlayer], work=16*
  1: 0x09D0 [0x45] LOAD_SCHEDULED_TASK: Load scheduler "s072" with entities [LocalPlayer, LocalPlayer], work=[16*, 0*]
  2: 0x09E1 [0x27] REQ_SET(priority=0x0A, entity_id=Koh Lenbalalako (ID: 17797200/0x010F9050), tag_num=0x11)
  3: 0x09E8 [0x1C] WAIT(30* ticks)
  4: 0x09EB [0x27] REQ_SET(priority=0x0A, entity_id=KOMISURA01 (ID: 17797210/0x010F905A), tag_num=0x0D)
  5: 0x09F2 [0x29] REQ_SET_WAIT(priority=0x08, entity_id=Perih Vashai (ID: 17797223/0x010F9067), tag_num=0x03)
  6: 0x09F9 [0x29] REQ_SET_WAIT(priority=0x08, entity_id=Perih Vashai (ID: 17797223/0x010F9067), tag_num=0x04)
  7: 0x0A00 [0x00] END_REQSTACK()
```

### Event 65535.22

#### Metadata

| Field        | Value     |
|--------------|-----------|
| Entrypoint   | 0x0A01    |
| Data Size    | 119 bytes |
| Instructions | 13        |

```
      00 01 02 03 04 05 06 07  08 09 0A 0B 0C 0D 0E 0F
      -- -- -- -- -- -- -- --  -- -- -- -- -- -- -- --
0A00:    52 07 80 F0 FF FF 7F  F0 FF FF 7F 73 30 37 32   R..........s072
0A10: 45 04 80 F0 FF FF 7F F0  FF FF 7F 6F 76 6C 31 05  E..........ovl1.
0A20: 80 45 07 80 F0 FF FF 7F  F0 FF FF 7F 73 30 37 33  .E..........s073
0A30: 05 80 29 0A 50 90 0F 01  12 1C 04 80 45 04 80 F8  ..).P.......E...
0A40: FF FF 7F F8 FF FF 7F 66  64 6F 31 05 80 55 07 80  .......fdo1..U..
0A50: F0 FF FF 7F F0 FF FF 7F  73 30 37 33 1C 06 80 4E  ........s073...N
0A60: 01 67 90 0F 01 4E 01 50  90 0F 01 4E 01 5A 90 0F  .g...N.P...N.Z..
0A70: 01 4E 01 66 90 0F 01 00                           .N.f....        
```

#### Opcodes

```
  0: 0x0A01 [0x52] END_LOAD_SCHEDULER: End scheduler "s072" with entities [LocalPlayer, LocalPlayer], work=16*
  1: 0x0A10 [0x45] LOAD_SCHEDULED_TASK: Load scheduler "ovl1" with entities [LocalPlayer, LocalPlayer], work=[200*, 0*]
  2: 0x0A21 [0x45] LOAD_SCHEDULED_TASK: Load scheduler "s073" with entities [LocalPlayer, LocalPlayer], work=[16*, 0*]
  3: 0x0A32 [0x29] REQ_SET_WAIT(priority=0x0A, entity_id=Koh Lenbalalako (ID: 17797200/0x010F9050), tag_num=0x12)
  4: 0x0A39 [0x1C] WAIT(200* ticks)
  5: 0x0A3C [0x45] LOAD_SCHEDULED_TASK: Load scheduler "fdo1" with entities [EventEntity, EventEntity], work=[200*, 0*]
  6: 0x0A4D [0x55] WAIT_LOAD_SCHEDULER: Wait for scheduler "s073" with entities [LocalPlayer, LocalPlayer], work=16*
  7: 0x0A5C [0x1C] WAIT(60* ticks)
  8: 0x0A5F [0x4E] SET_ENTITY_HIDE_FLAG: Hide Perih Vashai (ID: 17797223/0x010F9067)
  9: 0x0A65 [0x4E] SET_ENTITY_HIDE_FLAG: Hide Koh Lenbalalako (ID: 17797200/0x010F9050)
 10: 0x0A6B [0x4E] SET_ENTITY_HIDE_FLAG: Hide KOMISURA01 (ID: 17797210/0x010F905A)
 11: 0x0A71 [0x4E] SET_ENTITY_HIDE_FLAG: Hide HEISHI02 (ID: 17797222/0x010F9066)
 12: 0x0A77 [0x00] END_REQSTACK()
```
