# 17797174 - Radhika

## Common Data

| Field            | Value            |
|------------------|------------------|
| Zone             | Mhaura (ID: 249) |
| Block Size       | 424 bytes        |
| Total Events     | 7                |
| References Count | 19               |

## List of Events

| Event ID              | Entrypoint   |   Size |   Instructions |
|-----------------------|--------------|--------|----------------|
| [65535](#event-65535) | 0x0000       |      1 |              1 |
| [222](#event-222)     | 0x0001       |     28 |              8 |
| [229](#event-229)     | 0x001D       |     28 |              8 |
| [224](#event-224)     | 0x0039       |    148 |             40 |
| [225](#event-225)     | 0x00CD       |     32 |             10 |
| [226](#event-226)     | 0x00ED       |     32 |             10 |
| [227](#event-227)     | 0x010D       |     32 |             10 |

## DAT References (imed_data)

|   Index | Hex Value   |   Dec Value |
|---------|-------------|-------------|
|       0 | 0x000A      |          10 |
|       1 | 0x1BD9      |        7129 |
|       2 | 0x1BD8      |        7128 |
|       3 | 0x0000      |           0 |
|       4 | 0x1BE0      |        7136 |
|       5 | 0x0001      |           1 |
|       6 | 0x1BDE      |        7134 |
|       7 | 0x0002      |           2 |
|       8 | 0x1BDC      |        7132 |
|       9 | 0x0003      |           3 |
|      10 | 0x1BDA      |        7130 |
|      11 | 0x0004      |           4 |
|      12 | 0x1BE1      |        7137 |
|      13 | 0x0005      |           5 |
|      14 | 0x1BDF      |        7135 |
|      15 | 0x0006      |           6 |
|      16 | 0x1BDD      |        7133 |
|      17 | 0x0007      |           7 |
|      18 | 0x1BDB      |        7131 |

## String References

- **7128**: This is the immigration counter. Please go to the counter on the other side if you wish to board a ship.
- **7129**: If you wish to go into Mhaura, please speak to Albin, here.
- **7130**: The Selbina ferry will arrive soon. Please wait here.
- **7131**: The ship to Al Zahbi will arrive soon.
- **7132**: The ship bound for Selbina will arrive shortly.
- **7133**: The ship bound for Al Zahbi will arrive shortly.
- **7134**: The ship bound for Selbina has arrived. Please go to the entrance counter if you wish to board.
- **7135**: The ship bound for Al Zahbi has arrived. Please go to the entrance counter if you wish to board.
- **7136**: The Selbina ferry will depart soon! Passengers are to board the ship immediately!
- **7137**: The ship to Al Zahbi will depart soon! Passengers are to board the ship immediately!

## Events

### Event 65535

#### Metadata

| Field        | Value   |
|--------------|---------|
| Entrypoint   | 0x0000  |
| Data Size    | 1 bytes |
| Instructions | 1       |

```
      00 01 02 03 04 05 06 07  08 09 0A 0B 0C 0D 0E 0F
      -- -- -- -- -- -- -- --  -- -- -- -- -- -- -- --
0000: 00                                                .               
```

#### Opcodes

```
  0: 0x0000 [0x00] END_REQSTACK()
```

### Event 222

#### Metadata

| Field        | Value    |
|--------------|----------|
| Entrypoint   | 0x0001   |
| Data Size    | 28 bytes |
| Instructions | 8        |

```
      00 01 02 03 04 05 06 07  08 09 0A 0B 0C 0D 0E 0F
      -- -- -- -- -- -- -- --  -- -- -- -- -- -- -- --
0000:    1E F0 FF FF 7F 6F 70  66 00 80 F8 FF FF 7F F8   .....opf.......
0010: FF FF 7F 74 6C 6B 30 1D  01 80 23 21 00           ...tlk0...#!.   
```

#### Opcodes

```
  0: 0x0001 [0x1E] EventEntity looks at LocalPlayer and starts talking
  1: 0x0006 [0x6F] WAIT_FRAME_DELAY: Yield until WaitTime reaches zero
  2: 0x0007 [0x70] WAIT_ENTITY_RENDER_FLAG: Wait while EventEntity->Render.Flags3 bit 2 is set (cancel turn if not)
  3: 0x0008 [0x66] LOAD_EXT_SCHEDULER_MAIN: Load scheduler "tlk0" with entities [EventEntity, EventEntity], work=10*
  4: 0x0017 [0x1D] PRINT_EVENT_MESSAGE(message_id=7129*)
    → "If you wish to go into Mhaura, please speak to Albin, here."
  5: 0x001A [0x23] WAIT_FOR_DIALOG_INTERACTION
  6: 0x001B [0x21] END_EVENT
  7: 0x001C [0x00] END_REQSTACK()
```

### Event 229

#### Metadata

| Field        | Value    |
|--------------|----------|
| Entrypoint   | 0x001D   |
| Data Size    | 28 bytes |
| Instructions | 8        |

```
      00 01 02 03 04 05 06 07  08 09 0A 0B 0C 0D 0E 0F
      -- -- -- -- -- -- -- --  -- -- -- -- -- -- -- --
0010:                                         1E F0 FF               ...
0020: FF 7F 6F 70 66 00 80 F8  FF FF 7F F8 FF FF 7F 74  ..opf..........t
0030: 6C 6B 30 1D 02 80 23 21  00                       lk0...#!.       
```

#### Opcodes

```
  0: 0x001D [0x1E] EventEntity looks at LocalPlayer and starts talking
  1: 0x0022 [0x6F] WAIT_FRAME_DELAY: Yield until WaitTime reaches zero
  2: 0x0023 [0x70] WAIT_ENTITY_RENDER_FLAG: Wait while EventEntity->Render.Flags3 bit 2 is set (cancel turn if not)
  3: 0x0024 [0x66] LOAD_EXT_SCHEDULER_MAIN: Load scheduler "tlk0" with entities [EventEntity, EventEntity], work=10*
  4: 0x0033 [0x1D] PRINT_EVENT_MESSAGE(message_id=7128*)
    → "This is the immigration counter. Please go to the counter on the other side if you wish to board a ship."
  5: 0x0036 [0x23] WAIT_FOR_DIALOG_INTERACTION
  6: 0x0037 [0x21] END_EVENT
  7: 0x0038 [0x00] END_REQSTACK()
```

### Event 224

#### Metadata

| Field        | Value     |
|--------------|-----------|
| Entrypoint   | 0x0039    |
| Data Size    | 148 bytes |
| Instructions | 40        |

```
      00 01 02 03 04 05 06 07  08 09 0A 0B 0C 0D 0E 0F
      -- -- -- -- -- -- -- --  -- -- -- -- -- -- -- --
0030:                             1E F0 FF FF 7F 6F 70           .....op
0040: 66 00 80 F8 FF FF 7F F8  FF FF 7F 74 6C 6B 30 1D  f..........tlk0.
0050: 02 80 23 02 03 10 03 80  80 62 00 1D 04 80 23 01  ..#......b....#.
0060: CB 00 02 03 10 05 80 80  71 00 1D 06 80 23 01 CB  ........q....#..
0070: 00 02 03 10 07 80 80 80  00 1D 08 80 23 01 CB 00  ............#...
0080: 02 03 10 09 80 80 8F 00  1D 0A 80 23 01 CB 00 02  ...........#....
0090: 03 10 0B 80 80 9E 00 1D  0C 80 23 01 CB 00 02 03  ..........#.....
00A0: 10 0D 80 80 AD 00 1D 0E  80 23 01 CB 00 02 03 10  .........#......
00B0: 0F 80 80 BC 00 1D 10 80  23 01 CB 00 02 03 10 11  ........#.......
00C0: 80 80 CB 00 1D 12 80 23  01 CB 00 21 00           .......#...!.   
```

#### Opcodes

```
  0: 0x0039 [0x1E] EventEntity looks at LocalPlayer and starts talking
  1: 0x003E [0x6F] WAIT_FRAME_DELAY: Yield until WaitTime reaches zero
  2: 0x003F [0x70] WAIT_ENTITY_RENDER_FLAG: Wait while EventEntity->Render.Flags3 bit 2 is set (cancel turn if not)
  3: 0x0040 [0x66] LOAD_EXT_SCHEDULER_MAIN: Load scheduler "tlk0" with entities [EventEntity, EventEntity], work=10*
  4: 0x004F [0x1D] PRINT_EVENT_MESSAGE(message_id=7128*)
    → "This is the immigration counter. Please go to the counter on the other side if you wish to board a ship."
  5: 0x0052 [0x23] WAIT_FOR_DIALOG_INTERACTION
  6: 0x0053 [0x02] IF !(Work_Zone[3] == 0*) GOTO 0x0062
  7: 0x005B [0x1D] PRINT_EVENT_MESSAGE(message_id=7136*)
    → "The Selbina ferry will depart soon! Passengers are to board the ship immediately!"
  8: 0x005E [0x23] WAIT_FOR_DIALOG_INTERACTION
  9: 0x005F [0x01] GOTO 0x00CB
 10: 0x0062 [0x02] IF !(Work_Zone[3] == 1*) GOTO 0x0071
 11: 0x006A [0x1D] PRINT_EVENT_MESSAGE(message_id=7134*)
    → "The ship bound for Selbina has arrived. Please go to the entrance counter if you wish to board."
 12: 0x006D [0x23] WAIT_FOR_DIALOG_INTERACTION
 13: 0x006E [0x01] GOTO 0x00CB
 14: 0x0071 [0x02] IF !(Work_Zone[3] == 2*) GOTO 0x0080
 15: 0x0079 [0x1D] PRINT_EVENT_MESSAGE(message_id=7132*)
    → "The ship bound for Selbina will arrive shortly."
 16: 0x007C [0x23] WAIT_FOR_DIALOG_INTERACTION
 17: 0x007D [0x01] GOTO 0x00CB
 18: 0x0080 [0x02] IF !(Work_Zone[3] == 3*) GOTO 0x008F
 19: 0x0088 [0x1D] PRINT_EVENT_MESSAGE(message_id=7130*)
    → "The Selbina ferry will arrive soon. Please wait here."
 20: 0x008B [0x23] WAIT_FOR_DIALOG_INTERACTION
 21: 0x008C [0x01] GOTO 0x00CB
 22: 0x008F [0x02] IF !(Work_Zone[3] == 4*) GOTO 0x009E
 23: 0x0097 [0x1D] PRINT_EVENT_MESSAGE(message_id=7137*)
    → "The ship to Al Zahbi will depart soon! Passengers are to board the ship immediately!"
 24: 0x009A [0x23] WAIT_FOR_DIALOG_INTERACTION
 25: 0x009B [0x01] GOTO 0x00CB
 26: 0x009E [0x02] IF !(Work_Zone[3] == 5*) GOTO 0x00AD
 27: 0x00A6 [0x1D] PRINT_EVENT_MESSAGE(message_id=7135*)
    → "The ship bound for Al Zahbi has arrived. Please go to the entrance counter if you wish to board."
 28: 0x00A9 [0x23] WAIT_FOR_DIALOG_INTERACTION
 29: 0x00AA [0x01] GOTO 0x00CB
 30: 0x00AD [0x02] IF !(Work_Zone[3] == 6*) GOTO 0x00BC
 31: 0x00B5 [0x1D] PRINT_EVENT_MESSAGE(message_id=7133*)
    → "The ship bound for Al Zahbi will arrive shortly."
 32: 0x00B8 [0x23] WAIT_FOR_DIALOG_INTERACTION
 33: 0x00B9 [0x01] GOTO 0x00CB
 34: 0x00BC [0x02] IF !(Work_Zone[3] == 7*) GOTO 0x00CB
 35: 0x00C4 [0x1D] PRINT_EVENT_MESSAGE(message_id=7131*)
    → "The ship to Al Zahbi will arrive soon."
 36: 0x00C7 [0x23] WAIT_FOR_DIALOG_INTERACTION
 37: 0x00C8 [0x01] GOTO 0x00CB

SUBROUTINE_00CB:
 38: 0x00CB [0x21] END_EVENT
 39: 0x00CC [0x00] END_REQSTACK()
```

### Event 225

#### Metadata

| Field        | Value    |
|--------------|----------|
| Entrypoint   | 0x00CD   |
| Data Size    | 32 bytes |
| Instructions | 10       |

```
      00 01 02 03 04 05 06 07  08 09 0A 0B 0C 0D 0E 0F
      -- -- -- -- -- -- -- --  -- -- -- -- -- -- -- --
00C0:                                         1E F0 FF               ...
00D0: FF 7F 6F 70 66 00 80 F8  FF FF 7F F8 FF FF 7F 74  ..opf..........t
00E0: 6C 6B 30 1D 02 80 23 1D  08 80 23 21 00           lk0...#...#!.   
```

#### Opcodes

```
  0: 0x00CD [0x1E] EventEntity looks at LocalPlayer and starts talking
  1: 0x00D2 [0x6F] WAIT_FRAME_DELAY: Yield until WaitTime reaches zero
  2: 0x00D3 [0x70] WAIT_ENTITY_RENDER_FLAG: Wait while EventEntity->Render.Flags3 bit 2 is set (cancel turn if not)
  3: 0x00D4 [0x66] LOAD_EXT_SCHEDULER_MAIN: Load scheduler "tlk0" with entities [EventEntity, EventEntity], work=10*
  4: 0x00E3 [0x1D] PRINT_EVENT_MESSAGE(message_id=7128*)
    → "This is the immigration counter. Please go to the counter on the other side if you wish to board a ship."
  5: 0x00E6 [0x23] WAIT_FOR_DIALOG_INTERACTION
  6: 0x00E7 [0x1D] PRINT_EVENT_MESSAGE(message_id=7132*)
    → "The ship bound for Selbina will arrive shortly."
  7: 0x00EA [0x23] WAIT_FOR_DIALOG_INTERACTION
  8: 0x00EB [0x21] END_EVENT
  9: 0x00EC [0x00] END_REQSTACK()
```

### Event 226

#### Metadata

| Field        | Value    |
|--------------|----------|
| Entrypoint   | 0x00ED   |
| Data Size    | 32 bytes |
| Instructions | 10       |

```
      00 01 02 03 04 05 06 07  08 09 0A 0B 0C 0D 0E 0F
      -- -- -- -- -- -- -- --  -- -- -- -- -- -- -- --
00E0:                                         1E F0 FF               ...
00F0: FF 7F 6F 70 66 00 80 F8  FF FF 7F F8 FF FF 7F 74  ..opf..........t
0100: 6C 6B 30 1D 02 80 23 1D  06 80 23 21 00           lk0...#...#!.   
```

#### Opcodes

```
  0: 0x00ED [0x1E] EventEntity looks at LocalPlayer and starts talking
  1: 0x00F2 [0x6F] WAIT_FRAME_DELAY: Yield until WaitTime reaches zero
  2: 0x00F3 [0x70] WAIT_ENTITY_RENDER_FLAG: Wait while EventEntity->Render.Flags3 bit 2 is set (cancel turn if not)
  3: 0x00F4 [0x66] LOAD_EXT_SCHEDULER_MAIN: Load scheduler "tlk0" with entities [EventEntity, EventEntity], work=10*
  4: 0x0103 [0x1D] PRINT_EVENT_MESSAGE(message_id=7128*)
    → "This is the immigration counter. Please go to the counter on the other side if you wish to board a ship."
  5: 0x0106 [0x23] WAIT_FOR_DIALOG_INTERACTION
  6: 0x0107 [0x1D] PRINT_EVENT_MESSAGE(message_id=7134*)
    → "The ship bound for Selbina has arrived. Please go to the entrance counter if you wish to board."
  7: 0x010A [0x23] WAIT_FOR_DIALOG_INTERACTION
  8: 0x010B [0x21] END_EVENT
  9: 0x010C [0x00] END_REQSTACK()
```

### Event 227

#### Metadata

| Field        | Value    |
|--------------|----------|
| Entrypoint   | 0x010D   |
| Data Size    | 32 bytes |
| Instructions | 10       |

```
      00 01 02 03 04 05 06 07  08 09 0A 0B 0C 0D 0E 0F
      -- -- -- -- -- -- -- --  -- -- -- -- -- -- -- --
0100:                                         1E F0 FF               ...
0110: FF 7F 6F 70 66 00 80 F8  FF FF 7F F8 FF FF 7F 74  ..opf..........t
0120: 6C 6B 30 1D 02 80 23 1D  04 80 23 21 00           lk0...#...#!.   
```

#### Opcodes

```
  0: 0x010D [0x1E] EventEntity looks at LocalPlayer and starts talking
  1: 0x0112 [0x6F] WAIT_FRAME_DELAY: Yield until WaitTime reaches zero
  2: 0x0113 [0x70] WAIT_ENTITY_RENDER_FLAG: Wait while EventEntity->Render.Flags3 bit 2 is set (cancel turn if not)
  3: 0x0114 [0x66] LOAD_EXT_SCHEDULER_MAIN: Load scheduler "tlk0" with entities [EventEntity, EventEntity], work=10*
  4: 0x0123 [0x1D] PRINT_EVENT_MESSAGE(message_id=7128*)
    → "This is the immigration counter. Please go to the counter on the other side if you wish to board a ship."
  5: 0x0126 [0x23] WAIT_FOR_DIALOG_INTERACTION
  6: 0x0127 [0x1D] PRINT_EVENT_MESSAGE(message_id=7136*)
    → "The Selbina ferry will depart soon! Passengers are to board the ship immediately!"
  7: 0x012A [0x23] WAIT_FOR_DIALOG_INTERACTION
  8: 0x012B [0x21] END_EVENT
  9: 0x012C [0x00] END_REQSTACK()
```
