# 17797232 - Keshab-Menjab

## Common Data

| Field            | Value            |
|------------------|------------------|
| Zone             | Mhaura (ID: 249) |
| Block Size       | 1212 bytes       |
| Total Events     | 6                |
| References Count | 40               |

## List of Events

| Event ID              | Entrypoint   |   Size |   Instructions |
|-----------------------|--------------|--------|----------------|
| [65535](#event-65535) | 0x0000       |      1 |              1 |
| [313](#event-313)     | 0x0001       |    147 |             35 |
| [314](#event-314)     | 0x0094       |     11 |              5 |
| [315](#event-315)     | 0x009F       |     15 |              7 |
| [316](#event-316)     | 0x00AE       |     25 |              9 |
| [317](#event-317)     | 0x00C7       |    810 |             90 |

## DAT References (imed_data)

|   Index | Hex Value   |   Dec Value |
|---------|-------------|-------------|
|       0 | 0x0028      |          40 |
|       1 | 0x1D9B      |        7579 |
|       2 | 0x1D9C      |        7580 |
|       3 | 0x1D9D      |        7581 |
|       4 | 0x1D9E      |        7582 |
|       5 | 0x1D9F      |        7583 |
|       6 | 0x0001      |           1 |
|       7 | 0x0000      |           0 |
|       8 | 0x000B      |          11 |
|       9 | 0x1DA1      |        7585 |
|      10 | 0x1DA2      |        7586 |
|      11 | 0x1DA3      |        7587 |
|      12 | 0x1DA4      |        7588 |
|      13 | 0x1DA0      |        7584 |
|      14 | 0x1D9A      |        7578 |
|      15 | 0x1DA5      |        7589 |
|      16 | 0x1DA6      |        7590 |
|      17 | 0x0006      |           6 |
|      18 | 0x1DA7      |        7591 |
|      19 | 0x0007      |           7 |
|      20 | 0x1DA8      |        7592 |
|      21 | 0x1DA9      |        7593 |
|      22 | 0x1DAA      |        7594 |
|      23 | 0x0009      |           9 |
|      24 | 0x1DAB      |        7595 |
|      25 | 0x0002      |           2 |
|      26 | 0x0013      |          19 |
|      27 | 0x0003      |           3 |
|      28 | 0x001D      |          29 |
|      29 | 0x0004      |           4 |
|      30 | 0x0027      |          39 |
|      31 | 0x0005      |           5 |
|      32 | 0x0031      |          49 |
|      33 | 0x003B      |          59 |
|      34 | 0x0008      |           8 |
|      35 | 0x0045      |          69 |
|      36 | 0x1DAC      |        7596 |
|      37 | 0x1DAD      |        7597 |
|      38 | 0x1DAE      |        7598 |
|      39 | 0x00C9      |         201 |

## String References

- **7578**: You know what I don't under-blunder-stand? You'd think a port town like this would be over-grover-flowing with fresher-fishermen (and women). I guess I'm just not trying hard enough...
- **7579**: Broken ro\`ds! Broken ro\`ds! You break 'em, I'll buy 'em!
- **7580**: The Flushy-Fishermen's Guild has started a nifty-spifty new rod recycling service.
- **7581**: We buy up broken rods from frothy-fisher[men/women] like you, repair them, and sell them back to adventurers traveling about Bibiki-Squeaky Bay.
- **7582**: How about it? Would you like to help us out?
- **7583**: Recycle your rods? [I'm game./Keep your hands off my rods.]
- **7584**: Well, if you ever have a change of hippity-heart, you know where I'll be!
- **7585**: That's the spirit! Now get out there and start snip-snappin' some poles. I'll be waiting here for you!
- **7586**: Oh, and one more thing...
- **7587**: I just joined the Fussy-Fishermen's Guild and am not quite that good at repairing rods yet (my wood-waddly-working skill's only 16). I still have a lot of trouble fixing the ones with the teeny-tiny little cracks in them.
- **7588**: If possible, I'd appreciate it if the poles you bring back were busted clean in two. Thanks, mate-aru!
- **7589**: Recently I've been receiving a lot of crabby complaints about how my recycled rods break really easily. I wonder if I'm doing anything wrong when repairing them...
- **7590**: If you have the time, do you think you could travel to Bibiki Bay and try to find one of my recycled rods? I have to get to the bare-bottom of this if I want to keep my busy-business going.
- **7591**: No no no no no... This would be way too darn difficult for me to repair. I can only fix rods that have been snippity-snapped clean in two.
- **7592**: Oh! What a clean break! Even I can fix this guy!
- **7593**: Hm? Huh? What?
- **7594**: It looks like some-biddy-body's put a little crickity-crack in this rod to make it easier to brickity-break. You didn't do this, did you?
- **7595**: You explain the details of where you obtained the rod.
- **7596**: You found it on Purgonorgo Isle? Hmmm... This is not good...
- **7597**: If somebody's trying to pull a fast one on the Flubby-Fishermen's Guild's verily-valued customers, our guildmaster's going to have a cat fit. Heads will roll, let me tell you!
- **7598**: Anyway, thanks for bringing back the rod. Here's your reward. I'll report the dittily-details of this matter to the guild.

## Events

### Event 65535

#### Metadata

| Field        | Value   |
|--------------|---------|
| Entrypoint   | 0x0000  |
| Data Size    | 1 bytes |
| Instructions | 1       |

```
      00 01 02 03 04 05 06 07  08 09 0A 0B 0C 0D 0E 0F
      -- -- -- -- -- -- -- --  -- -- -- -- -- -- -- --
0000: 00                                                .               
```

#### Opcodes

```
  0: 0x0000 [0x00] END_REQSTACK()
```

### Event 313

#### Metadata

| Field        | Value     |
|--------------|-----------|
| Entrypoint   | 0x0001    |
| Data Size    | 147 bytes |
| Instructions | 35        |

```
      00 01 02 03 04 05 06 07  08 09 0A 0B 0C 0D 0E 0F
      -- -- -- -- -- -- -- --  -- -- -- -- -- -- -- --
0000:    66 00 80 F8 FF FF 7F  F8 FF FF 7F 74 6C 6B 30   f..........tlk0
0010: 1D 01 80 23 53 F8 FF FF  7F F8 FF FF 7F 74 6C 6B  ...#S........tlk
0020: 30 66 00 80 F8 FF FF 7F  F8 FF FF 7F 74 6C 6B 31  0f..........tlk1
0030: 53 F8 FF FF 7F F8 FF FF  7F 74 6C 6B 31 1E F0 FF  S........tlk1...
0040: FF 7F 1D 02 80 23 1D 03  80 23 1D 04 80 23 24 05  .....#...#...#$.
0050: 80 06 80 07 80 25 02 00  10 07 80 00 83 00 42 6E  .....%........Bn
0060: F8 FF FF 7F 08 80 99 F8  FF FF 7F 1D 09 80 23 1D  ..............#.
0070: 0A 80 23 1D 0B 80 23 1D  0C 80 23 03 01 10 06 80  ..#...#...#.....
0080: 01 92 00 02 00 10 06 80  00 92 00 1D 0D 80 23 01  ..............#.
0090: 92 00 21 00                                       ..!.            
```

#### Opcodes

```
  0: 0x0001 [0x66] LOAD_EXT_SCHEDULER_MAIN: Load scheduler "tlk0" with entities [EventEntity, EventEntity], work=40*
  1: 0x0010 [0x1D] PRINT_EVENT_MESSAGE(message_id=7579*)
    → "Broken ro`ds! Broken ro`ds! You break 'em, I'll buy 'em!"
  2: 0x0013 [0x23] WAIT_FOR_DIALOG_INTERACTION
  3: 0x0014 [0x53] WAIT_SCHEDULER_TASK: Wait for scheduler "tlk0" with entities [EventEntity, EventEntity]
  4: 0x0021 [0x66] LOAD_EXT_SCHEDULER_MAIN: Load scheduler "tlk1" with entities [EventEntity, EventEntity], work=40*
  5: 0x0030 [0x53] WAIT_SCHEDULER_TASK: Wait for scheduler "tlk1" with entities [EventEntity, EventEntity]
  6: 0x003D [0x1E] EventEntity looks at LocalPlayer and starts talking
  7: 0x0042 [0x1D] PRINT_EVENT_MESSAGE(message_id=7580*)
    → "The Flushy-Fishermen's Guild has started a nifty-spifty new rod recycling service."
  8: 0x0045 [0x23] WAIT_FOR_DIALOG_INTERACTION
  9: 0x0046 [0x1D] PRINT_EVENT_MESSAGE(message_id=7581*)
    → "We buy up broken rods from frothy-fisher[men/women] like you, repair them, and sell them back to adventurers traveling about Bibiki-Squeaky Bay."
 10: 0x0049 [0x23] WAIT_FOR_DIALOG_INTERACTION
 11: 0x004A [0x1D] PRINT_EVENT_MESSAGE(message_id=7582*)
    → "How about it? Would you like to help us out?"
 12: 0x004D [0x23] WAIT_FOR_DIALOG_INTERACTION
 13: 0x004E [0x24] CREATE_DIALOG(message_id=7583*, default_option=1*, option_flags=0*)
    → "Recycle your rods? [I'm game./Keep your hands off my rods.]"
 14: 0x0055 [0x25] WAIT_DIALOG_SELECT()
 15: 0x0056 [0x02] IF !(Work_Zone[0] == 0*) GOTO 0x0083
 16: 0x005E [0x42] SET_CLI_EVENT_CANCEL_DATA()
 17: 0x005F [0x6E] EventEntity uses emote 11*
 18: 0x0066 [0x99] Wait for EventEntity animation to complete
 19: 0x006B [0x1D] PRINT_EVENT_MESSAGE(message_id=7585*)
    → "That's the spirit! Now get out there and start snip-snappin' some poles. I'll be waiting here for you!"
 20: 0x006E [0x23] WAIT_FOR_DIALOG_INTERACTION
 21: 0x006F [0x1D] PRINT_EVENT_MESSAGE(message_id=7586*)
    → "Oh, and one more thing..."
 22: 0x0072 [0x23] WAIT_FOR_DIALOG_INTERACTION
 23: 0x0073 [0x1D] PRINT_EVENT_MESSAGE(message_id=7587*)
    → "I just joined the Fussy-Fishermen's Guild and am not quite that good at repairing rods yet (my wood-waddly-working skill's only 16). I still have a lot of trouble fixing the ones with the teeny-tiny little cracks in them."
 24: 0x0076 [0x23] WAIT_FOR_DIALOG_INTERACTION
 25: 0x0077 [0x1D] PRINT_EVENT_MESSAGE(message_id=7588*)
    → "If possible, I'd appreciate it if the poles you bring back were busted clean in two. Thanks, mate-aru!"
 26: 0x007A [0x23] WAIT_FOR_DIALOG_INTERACTION
 27: 0x007B [0x03] Work_Zone[1] = 1*
 28: 0x0080 [0x01] GOTO 0x0092
 29: 0x0083 [0x02] IF !(Work_Zone[0] == 1*) GOTO 0x0092
 30: 0x008B [0x1D] PRINT_EVENT_MESSAGE(message_id=7584*)
    → "Well, if you ever have a change of hippity-heart, you know where I'll be!"
 31: 0x008E [0x23] WAIT_FOR_DIALOG_INTERACTION
 32: 0x008F [0x01] GOTO 0x0092

SUBROUTINE_0092:
 33: 0x0092 [0x21] END_EVENT
 34: 0x0093 [0x00] END_REQSTACK()
```

### Event 314

#### Metadata

| Field        | Value    |
|--------------|----------|
| Entrypoint   | 0x0094   |
| Data Size    | 11 bytes |
| Instructions | 5        |

```
      00 01 02 03 04 05 06 07  08 09 0A 0B 0C 0D 0E 0F
      -- -- -- -- -- -- -- --  -- -- -- -- -- -- -- --
0090:             1E F0 FF FF  7F 1D 0E 80 23 21 00         ........#!. 
```

#### Opcodes

```
  0: 0x0094 [0x1E] EventEntity looks at LocalPlayer and starts talking
  1: 0x0099 [0x1D] PRINT_EVENT_MESSAGE(message_id=7578*)
    → "You know what I don't under-blunder-stand? You'd think a port town like this would be over-grover-flowing with fresher-fishermen (and women). I guess I'm just not trying hard enough..."
  2: 0x009C [0x23] WAIT_FOR_DIALOG_INTERACTION
  3: 0x009D [0x21] END_EVENT
  4: 0x009E [0x00] END_REQSTACK()
```

### Event 315

#### Metadata

| Field        | Value    |
|--------------|----------|
| Entrypoint   | 0x009F   |
| Data Size    | 15 bytes |
| Instructions | 7        |

```
      00 01 02 03 04 05 06 07  08 09 0A 0B 0C 0D 0E 0F
      -- -- -- -- -- -- -- --  -- -- -- -- -- -- -- --
0090:                                               1E                 .
00A0: F0 FF FF 7F 1D 0F 80 23  1D 10 80 23 21 00        .......#...#!.  
```

#### Opcodes

```
  0: 0x009F [0x1E] EventEntity looks at LocalPlayer and starts talking
  1: 0x00A4 [0x1D] PRINT_EVENT_MESSAGE(message_id=7589*)
    → "Recently I've been receiving a lot of crabby complaints about how my recycled rods break really easily. I wonder if I'm doing anything wrong when repairing them..."
  2: 0x00A7 [0x23] WAIT_FOR_DIALOG_INTERACTION
  3: 0x00A8 [0x1D] PRINT_EVENT_MESSAGE(message_id=7590*)
    → "If you have the time, do you think you could travel to Bibiki Bay and try to find one of my recycled rods? I have to get to the bare-bottom of this if I want to keep my busy-business going."
  4: 0x00AB [0x23] WAIT_FOR_DIALOG_INTERACTION
  5: 0x00AC [0x21] END_EVENT
  6: 0x00AD [0x00] END_REQSTACK()
```

### Event 316

#### Metadata

| Field        | Value    |
|--------------|----------|
| Entrypoint   | 0x00AE   |
| Data Size    | 25 bytes |
| Instructions | 9        |

```
      00 01 02 03 04 05 06 07  08 09 0A 0B 0C 0D 0E 0F
      -- -- -- -- -- -- -- --  -- -- -- -- -- -- -- --
00A0:                                            1E F0                ..
00B0: FF FF 7F 6F 70 6E F8 FF  FF 7F 11 80 99 F8 FF FF  ...opn..........
00C0: 7F 1D 12 80 23 21 00                              ....#!.         
```

#### Opcodes

```
  0: 0x00AE [0x1E] EventEntity looks at LocalPlayer and starts talking
  1: 0x00B3 [0x6F] WAIT_FRAME_DELAY: Yield until WaitTime reaches zero
  2: 0x00B4 [0x70] WAIT_ENTITY_RENDER_FLAG: Wait while EventEntity->Render.Flags3 bit 2 is set (cancel turn if not)
  3: 0x00B5 [0x6E] EventEntity uses emote 6*
  4: 0x00BC [0x99] Wait for EventEntity animation to complete
  5: 0x00C1 [0x1D] PRINT_EVENT_MESSAGE(message_id=7591*)
    → "No no no no no... This would be way too darn difficult for me to repair. I can only fix rods that have been snippity-snapped clean in two."
  6: 0x00C4 [0x23] WAIT_FOR_DIALOG_INTERACTION
  7: 0x00C5 [0x21] END_EVENT
  8: 0x00C6 [0x00] END_REQSTACK()
```

### Event 317

#### Metadata

| Field        | Value     |
|--------------|-----------|
| Entrypoint   | 0x00C7    |
| Data Size    | 810 bytes |
| Instructions | 90        |

```
      00 01 02 03 04 05 06 07  08 09 0A 0B 0C 0D 0E 0F
      -- -- -- -- -- -- -- --  -- -- -- -- -- -- -- --
00C0:                      42  1E F0 FF FF 7F 6F 70 6E         B.....opn
00D0: F8 FF FF 7F 13 80 99 F8  FF FF 7F 1D 14 80 23 66  ..............#f
00E0: 00 80 F8 FF FF 7F F8 FF  FF 7F 74 68 6B 31 1D 15  ..........thk1..
00F0: 80 23 1D 16 80 23 53 F8  FF FF 7F F8 FF FF 7F 74  .#...#S........t
0100: 68 6B 31 66 00 80 F8 FF  FF 7F F8 FF FF 7F 74 68  hk1f..........th
0110: 6B 32 53 F8 FF FF 7F F8  FF FF 7F 74 68 6B 32 4A  k2S........thk2J
0120: F0 FF FF 7F F8 FF FF 7F  6F 76 F0 FF FF 7F 02 02  ........ov......
0130: 10 06 80 80 78 01 66 17  80 F0 FF FF 7F F0 FF FF  ....x.f.........
0140: 7F 74 6C 6B 30 49 F0 FF  FF 7F 18 80 53 F0 FF FF  .tlk0I......S...
0150: 7F F0 FF FF 7F 74 6C 6B  30 66 17 80 F0 FF FF 7F  .....tlk0f......
0160: F0 FF FF 7F 74 6C 6B 31  53 F0 FF FF 7F F0 FF FF  ....tlk1S.......
0170: 7F 74 6B 6C 31 01 7E 03  02 02 10 19 80 80 C2 01  .tkl1.~.........
0180: 66 1A 80 F0 FF FF 7F F0  FF FF 7F 74 6C 6B 30 49  f..........tlk0I
0190: F8 FF FF 7F 18 80 53 F0  FF FF 7F F0 FF FF 7F 74  ......S........t
01A0: 6C 6B 30 66 1A 80 F0 FF  FF 7F F0 FF FF 7F 74 6C  lk0f..........tl
01B0: 6B 31 53 F0 FF FF 7F F0  FF FF 7F 74 6B 6C 31 01  k1S........tkl1.
01C0: 7E 03 02 02 10 1B 80 80  0C 02 66 1C 80 F0 FF FF  ~.........f.....
01D0: 7F F0 FF FF 7F 74 6C 6B  30 49 F8 FF FF 7F 18 80  .....tlk0I......
01E0: 53 F0 FF FF 7F F0 FF FF  7F 74 6C 6B 30 66 1C 80  S........tlk0f..
01F0: F0 FF FF 7F F0 FF FF 7F  74 6C 6B 31 53 F0 FF FF  ........tlk1S...
0200: 7F F0 FF FF 7F 74 6B 6C  31 01 7E 03 02 02 10 1D  .....tkl1.~.....
0210: 80 80 56 02 66 1E 80 F0  FF FF 7F F0 FF FF 7F 74  ..V.f..........t
0220: 6C 6B 30 49 F8 FF FF 7F  18 80 53 F0 FF FF 7F F0  lk0I......S.....
0230: FF FF 7F 74 6C 6B 30 66  1E 80 F0 FF FF 7F F0 FF  ...tlk0f........
0240: FF 7F 74 6C 6B 31 53 F0  FF FF 7F F0 FF FF 7F 74  ..tlk1S........t
0250: 6B 6C 31 01 7E 03 02 02  10 1F 80 80 A0 02 66 20  kl1.~.........f 
0260: 80 F0 FF FF 7F F0 FF FF  7F 74 6C 6B 30 49 F8 FF  .........tlk0I..
0270: FF 7F 18 80 53 F0 FF FF  7F F0 FF FF 7F 74 6C 6B  ....S........tlk
0280: 30 66 20 80 F0 FF FF 7F  F0 FF FF 7F 74 6C 6B 31  0f .........tlk1
0290: 53 F0 FF FF 7F F0 FF FF  7F 74 6B 6C 31 01 7E 03  S........tkl1.~.
02A0: 02 02 10 11 80 80 EA 02  66 20 80 F0 FF FF 7F F0  ........f ......
02B0: FF FF 7F 74 6C 6B 30 49  F8 FF FF 7F 18 80 53 F0  ...tlk0I......S.
02C0: FF FF 7F F0 FF FF 7F 74  6C 6B 30 66 20 80 F0 FF  .......tlk0f ...
02D0: FF 7F F0 FF FF 7F 74 6C  6B 31 53 F0 FF FF 7F F0  ......tlk1S.....
02E0: FF FF 7F 74 6B 6C 31 01  7E 03 02 02 10 13 80 80  ...tkl1.~.......
02F0: 34 03 66 21 80 F0 FF FF  7F F0 FF FF 7F 74 6C 6B  4.f!.........tlk
0300: 30 49 F8 FF FF 7F 18 80  53 F0 FF FF 7F F0 FF FF  0I......S.......
0310: 7F 74 6C 6B 30 66 21 80  F0 FF FF 7F F0 FF FF 7F  .tlk0f!.........
0320: 74 6C 6B 31 53 F0 FF FF  7F F0 FF FF 7F 74 6B 6C  tlk1S........tkl
0330: 31 01 7E 03 02 02 10 22  80 80 7E 03 66 23 80 F0  1.~...."..~.f#..
0340: FF FF 7F F0 FF FF 7F 74  6C 6B 30 49 F8 FF FF 7F  .......tlk0I....
0350: 18 80 53 F0 FF FF 7F F0  FF FF 7F 74 6C 6B 30 66  ..S........tlk0f
0360: 23 80 F0 FF FF 7F F0 FF  FF 7F 74 6C 6B 31 53 F0  #.........tlk1S.
0370: FF FF 7F F0 FF FF 7F 74  6B 6C 31 01 7E 03 66 00  .......tkl1.~.f.
0380: 80 F8 FF FF 7F F8 FF FF  7F 74 68 6B 31 53 F8 FF  .........thk1S..
0390: FF 7F F8 FF FF 7F 74 68  6B 31 1D 24 80 23 66 00  ......thk1.$.#f.
03A0: 80 F8 FF FF 7F F8 FF FF  7F 74 68 6B 32 53 F8 FF  .........thk2S..
03B0: FF 7F F8 FF FF 7F 74 68  6B 32 1D 25 80 23 66 00  ......thk2.%.#f.
03C0: 80 F8 FF FF 7F F8 FF FF  7F 70 6F 69 30 1D 26 80  .........poi0.&.
03D0: 23 53 F8 FF FF 7F F8 FF  FF 7F 70 6F 69 30 45 27  #S........poi0E'
03E0: 80 F8 FF FF 7F F8 FF FF  7F 71 73 74 63 07 80 21  .........qstc..!
03F0: 00                                                .               
```

#### Opcodes

```
  0: 0x00C7 [0x42] SET_CLI_EVENT_CANCEL_DATA()
  1: 0x00C8 [0x1E] EventEntity looks at LocalPlayer and starts talking
  2: 0x00CD [0x6F] WAIT_FRAME_DELAY: Yield until WaitTime reaches zero
  3: 0x00CE [0x70] WAIT_ENTITY_RENDER_FLAG: Wait while EventEntity->Render.Flags3 bit 2 is set (cancel turn if not)
  4: 0x00CF [0x6E] EventEntity uses emote 7*
  5: 0x00D6 [0x99] Wait for EventEntity animation to complete
  6: 0x00DB [0x1D] PRINT_EVENT_MESSAGE(message_id=7592*)
    → "Oh! What a clean break! Even I can fix this guy!"
  7: 0x00DE [0x23] WAIT_FOR_DIALOG_INTERACTION
  8: 0x00DF [0x66] LOAD_EXT_SCHEDULER_MAIN: Load scheduler "thk1" with entities [EventEntity, EventEntity], work=40*
  9: 0x00EE [0x1D] PRINT_EVENT_MESSAGE(message_id=7593*)
    → "Hm? Huh? What?"
 10: 0x00F1 [0x23] WAIT_FOR_DIALOG_INTERACTION
 11: 0x00F2 [0x1D] PRINT_EVENT_MESSAGE(message_id=7594*)
    → "It looks like some-biddy-body's put a little crickity-crack in this rod to make it easier to brickity-break. You didn't do this, did you?"
 12: 0x00F5 [0x23] WAIT_FOR_DIALOG_INTERACTION
 13: 0x00F6 [0x53] WAIT_SCHEDULER_TASK: Wait for scheduler "thk1" with entities [EventEntity, EventEntity]
 14: 0x0103 [0x66] LOAD_EXT_SCHEDULER_MAIN: Load scheduler "thk2" with entities [EventEntity, EventEntity], work=40*
 15: 0x0112 [0x53] WAIT_SCHEDULER_TASK: Wait for scheduler "thk2" with entities [EventEntity, EventEntity]
 16: 0x011F [0x4A] LocalPlayer looks at EventEntity
 17: 0x0128 [0x6F] WAIT_FRAME_DELAY: Yield until WaitTime reaches zero
 18: 0x0129 [0x76] CHECK_ENTITY_RENDER_FLAGS: Wait until LocalPlayer Render.Flags0 and Render.Flags3 conditions are met
 19: 0x012E [0x02] IF !(Work_Zone[2] == 1*) GOTO 0x0178
 20: 0x0136 [0x66] LOAD_EXT_SCHEDULER_MAIN: Load scheduler "tlk0" with entities [LocalPlayer, LocalPlayer], work=9*
 21: 0x0145 [0x49] LocalPlayer (No speaker name) [7595*]:
 22: 0x014C [0x53] WAIT_SCHEDULER_TASK: Wait for scheduler "tlk0" with entities [LocalPlayer, LocalPlayer]
 23: 0x0159 [0x66] LOAD_EXT_SCHEDULER_MAIN: Load scheduler "tlk1" with entities [LocalPlayer, LocalPlayer], work=9*
 24: 0x0168 [0x53] WAIT_SCHEDULER_TASK: Wait for scheduler "tkl1" with entities [LocalPlayer, LocalPlayer]
 25: 0x0175 [0x01] GOTO 0x037E
 26: 0x0178 [0x02] IF !(Work_Zone[2] == 2*) GOTO 0x01C2
 27: 0x0180 [0x66] LOAD_EXT_SCHEDULER_MAIN: Load scheduler "tlk0" with entities [LocalPlayer, LocalPlayer], work=19*
 28: 0x018F [0x49] EventEntity (No speaker name) [7595*]:
 29: 0x0196 [0x53] WAIT_SCHEDULER_TASK: Wait for scheduler "tlk0" with entities [LocalPlayer, LocalPlayer]
 30: 0x01A3 [0x66] LOAD_EXT_SCHEDULER_MAIN: Load scheduler "tlk1" with entities [LocalPlayer, LocalPlayer], work=19*
 31: 0x01B2 [0x53] WAIT_SCHEDULER_TASK: Wait for scheduler "tkl1" with entities [LocalPlayer, LocalPlayer]
 32: 0x01BF [0x01] GOTO 0x037E
 33: 0x01C2 [0x02] IF !(Work_Zone[2] == 3*) GOTO 0x020C
 34: 0x01CA [0x66] LOAD_EXT_SCHEDULER_MAIN: Load scheduler "tlk0" with entities [LocalPlayer, LocalPlayer], work=29*
 35: 0x01D9 [0x49] EventEntity (No speaker name) [7595*]:
 36: 0x01E0 [0x53] WAIT_SCHEDULER_TASK: Wait for scheduler "tlk0" with entities [LocalPlayer, LocalPlayer]
 37: 0x01ED [0x66] LOAD_EXT_SCHEDULER_MAIN: Load scheduler "tlk1" with entities [LocalPlayer, LocalPlayer], work=29*
 38: 0x01FC [0x53] WAIT_SCHEDULER_TASK: Wait for scheduler "tkl1" with entities [LocalPlayer, LocalPlayer]
 39: 0x0209 [0x01] GOTO 0x037E
 40: 0x020C [0x02] IF !(Work_Zone[2] == 4*) GOTO 0x0256
 41: 0x0214 [0x66] LOAD_EXT_SCHEDULER_MAIN: Load scheduler "tlk0" with entities [LocalPlayer, LocalPlayer], work=39*
 42: 0x0223 [0x49] EventEntity (No speaker name) [7595*]:
 43: 0x022A [0x53] WAIT_SCHEDULER_TASK: Wait for scheduler "tlk0" with entities [LocalPlayer, LocalPlayer]
 44: 0x0237 [0x66] LOAD_EXT_SCHEDULER_MAIN: Load scheduler "tlk1" with entities [LocalPlayer, LocalPlayer], work=39*
 45: 0x0246 [0x53] WAIT_SCHEDULER_TASK: Wait for scheduler "tkl1" with entities [LocalPlayer, LocalPlayer]
 46: 0x0253 [0x01] GOTO 0x037E
 47: 0x0256 [0x02] IF !(Work_Zone[2] == 5*) GOTO 0x02A0
 48: 0x025E [0x66] LOAD_EXT_SCHEDULER_MAIN: Load scheduler "tlk0" with entities [LocalPlayer, LocalPlayer], work=49*
 49: 0x026D [0x49] EventEntity (No speaker name) [7595*]:
 50: 0x0274 [0x53] WAIT_SCHEDULER_TASK: Wait for scheduler "tlk0" with entities [LocalPlayer, LocalPlayer]
 51: 0x0281 [0x66] LOAD_EXT_SCHEDULER_MAIN: Load scheduler "tlk1" with entities [LocalPlayer, LocalPlayer], work=49*
 52: 0x0290 [0x53] WAIT_SCHEDULER_TASK: Wait for scheduler "tkl1" with entities [LocalPlayer, LocalPlayer]
 53: 0x029D [0x01] GOTO 0x037E
 54: 0x02A0 [0x02] IF !(Work_Zone[2] == 6*) GOTO 0x02EA
 55: 0x02A8 [0x66] LOAD_EXT_SCHEDULER_MAIN: Load scheduler "tlk0" with entities [LocalPlayer, LocalPlayer], work=49*
 56: 0x02B7 [0x49] EventEntity (No speaker name) [7595*]:
 57: 0x02BE [0x53] WAIT_SCHEDULER_TASK: Wait for scheduler "tlk0" with entities [LocalPlayer, LocalPlayer]
 58: 0x02CB [0x66] LOAD_EXT_SCHEDULER_MAIN: Load scheduler "tlk1" with entities [LocalPlayer, LocalPlayer], work=49*
 59: 0x02DA [0x53] WAIT_SCHEDULER_TASK: Wait for scheduler "tkl1" with entities [LocalPlayer, LocalPlayer]
 60: 0x02E7 [0x01] GOTO 0x037E
 61: 0x02EA [0x02] IF !(Work_Zone[2] == 7*) GOTO 0x0334
 62: 0x02F2 [0x66] LOAD_EXT_SCHEDULER_MAIN: Load scheduler "tlk0" with entities [LocalPlayer, LocalPlayer], work=59*
 63: 0x0301 [0x49] EventEntity (No speaker name) [7595*]:
 64: 0x0308 [0x53] WAIT_SCHEDULER_TASK: Wait for scheduler "tlk0" with entities [LocalPlayer, LocalPlayer]
 65: 0x0315 [0x66] LOAD_EXT_SCHEDULER_MAIN: Load scheduler "tlk1" with entities [LocalPlayer, LocalPlayer], work=59*
 66: 0x0324 [0x53] WAIT_SCHEDULER_TASK: Wait for scheduler "tkl1" with entities [LocalPlayer, LocalPlayer]
 67: 0x0331 [0x01] GOTO 0x037E
 68: 0x0334 [0x02] IF !(Work_Zone[2] == 8*) GOTO 0x037E
 69: 0x033C [0x66] LOAD_EXT_SCHEDULER_MAIN: Load scheduler "tlk0" with entities [LocalPlayer, LocalPlayer], work=69*
 70: 0x034B [0x49] EventEntity (No speaker name) [7595*]:
 71: 0x0352 [0x53] WAIT_SCHEDULER_TASK: Wait for scheduler "tlk0" with entities [LocalPlayer, LocalPlayer]
 72: 0x035F [0x66] LOAD_EXT_SCHEDULER_MAIN: Load scheduler "tlk1" with entities [LocalPlayer, LocalPlayer], work=69*
 73: 0x036E [0x53] WAIT_SCHEDULER_TASK: Wait for scheduler "tkl1" with entities [LocalPlayer, LocalPlayer]
 74: 0x037B [0x01] GOTO 0x037E

SUBROUTINE_037E:
 75: 0x037E [0x66] LOAD_EXT_SCHEDULER_MAIN: Load scheduler "thk1" with entities [EventEntity, EventEntity], work=40*
 76: 0x038D [0x53] WAIT_SCHEDULER_TASK: Wait for scheduler "thk1" with entities [EventEntity, EventEntity]
 77: 0x039A [0x1D] PRINT_EVENT_MESSAGE(message_id=7596*)
    → "You found it on Purgonorgo Isle? Hmmm... This is not good..."
 78: 0x039D [0x23] WAIT_FOR_DIALOG_INTERACTION
 79: 0x039E [0x66] LOAD_EXT_SCHEDULER_MAIN: Load scheduler "thk2" with entities [EventEntity, EventEntity], work=40*
 80: 0x03AD [0x53] WAIT_SCHEDULER_TASK: Wait for scheduler "thk2" with entities [EventEntity, EventEntity]
 81: 0x03BA [0x1D] PRINT_EVENT_MESSAGE(message_id=7597*)
    → "If somebody's trying to pull a fast one on the Flubby-Fishermen's Guild's verily-valued customers, our guildmaster's going to have a cat fit. Heads will roll, let me tell you!"
 82: 0x03BD [0x23] WAIT_FOR_DIALOG_INTERACTION
 83: 0x03BE [0x66] LOAD_EXT_SCHEDULER_MAIN: Load scheduler "poi0" with entities [EventEntity, EventEntity], work=40*
 84: 0x03CD [0x1D] PRINT_EVENT_MESSAGE(message_id=7598*)
    → "Anyway, thanks for bringing back the rod. Here's your reward. I'll report the dittily-details of this matter to the guild."
 85: 0x03D0 [0x23] WAIT_FOR_DIALOG_INTERACTION
 86: 0x03D1 [0x53] WAIT_SCHEDULER_TASK: Wait for scheduler "poi0" with entities [EventEntity, EventEntity]
 87: 0x03DE [0x45] LOAD_SCHEDULED_TASK: Load scheduler "qstc" with entities [EventEntity, EventEntity], work=[201*, 0*]
 88: 0x03EF [0x21] END_EVENT
 89: 0x03F0 [0x00] END_REQSTACK()
```
