# 17797197 - Koh Lenbalalako

## Common Data

| Field            | Value            |
|------------------|------------------|
| Zone             | Mhaura (ID: 249) |
| Block Size       | 5700 bytes       |
| Total Events     | 63               |
| References Count | 107              |

## List of Events

| Event ID                   | Entrypoint   |   Size |   Instructions |
|----------------------------|--------------|--------|----------------|
| [65535](#event-65535)      | 0x0000       |      1 |              1 |
| [322](#event-322)          | 0x0001       |      3 |              2 |
| [65535.1](#event-655351)   | 0x0004       |     16 |              2 |
| [65535.2](#event-655352)   | 0x0014       |     22 |              4 |
| [65535.3](#event-655353)   | 0x002A       |     16 |              2 |
| [65535.4](#event-655354)   | 0x003A       |     14 |              2 |
| [65535.5](#event-655355)   | 0x0048       |      9 |              3 |
| [10013](#event-10013)      | 0x0051       |     29 |             10 |
| [65535.6](#event-655356)   | 0x006E       |     10 |              2 |
| [65535.7](#event-655357)   | 0x0078       |      1 |              1 |
| [10007](#event-10007)      | 0x0079       |    916 |            147 |
| [10032](#event-10032)      | 0x040D       |   1410 |            203 |
| [65535.8](#event-655358)   | 0x098F       |      5 |              3 |
| [65535.9](#event-655359)   | 0x0994       |      5 |              3 |
| [65535.10](#event-6553510) | 0x0999       |      5 |              3 |
| [65535.11](#event-6553511) | 0x099E       |      9 |              5 |
| [65535.12](#event-6553512) | 0x09A7       |      5 |              3 |
| [65535.13](#event-6553513) | 0x09AC       |      5 |              3 |
| [65535.14](#event-6553514) | 0x09B1       |      5 |              3 |
| [65535.15](#event-6553515) | 0x09B6       |      5 |              3 |
| [65535.16](#event-6553516) | 0x09BB       |      9 |              5 |
| [65535.17](#event-6553517) | 0x09C4       |      5 |              3 |
| [65535.18](#event-6553518) | 0x09C9       |      5 |              3 |
| [65535.19](#event-6553519) | 0x09CE       |      5 |              3 |
| [65535.20](#event-6553520) | 0x09D3       |      5 |              3 |
| [65535.21](#event-6553521) | 0x09D8       |      9 |              5 |
| [10008](#event-10008)      | 0x09E1       |     33 |             12 |
| [10015](#event-10015)      | 0x0A02       |     33 |             12 |
| [10009](#event-10009)      | 0x0A23       |   1374 |            180 |
| [65535.22](#event-6553522) | 0x0F81       |      9 |              5 |
| [65535.23](#event-6553523) | 0x0F8A       |      5 |              3 |
| [65535.24](#event-6553524) | 0x0F8F       |      5 |              3 |
| [65535.25](#event-6553525) | 0x0F94       |     17 |              5 |
| [65535.26](#event-6553526) | 0x0FA5       |      5 |              3 |
| [65535.27](#event-6553527) | 0x0FAA       |      5 |              3 |
| [65535.28](#event-6553528) | 0x0FAF       |      5 |              3 |
| [65535.29](#event-6553529) | 0x0FB4       |      5 |              3 |
| [65535.30](#event-6553530) | 0x0FB9       |      5 |              3 |
| [65535.31](#event-6553531) | 0x0FBE       |      5 |              3 |
| [65535.32](#event-6553532) | 0x0FC3       |      5 |              3 |
| [65535.33](#event-6553533) | 0x0FC8       |      5 |              3 |
| [65535.34](#event-6553534) | 0x0FCD       |      5 |              3 |
| [65535.35](#event-6553535) | 0x0FD2       |      5 |              3 |
| [10010](#event-10010)      | 0x0FD7       |     33 |             12 |
| [10011](#event-10011)      | 0x0FF8       |    719 |             99 |
| [65535.36](#event-6553536) | 0x12C7       |     14 |              4 |
| [65535.37](#event-6553537) | 0x12D5       |      5 |              3 |
| [65535.38](#event-6553538) | 0x12DA       |      5 |              3 |
| [65535.39](#event-6553539) | 0x12DF       |      5 |              3 |
| [65535.40](#event-6553540) | 0x12E4       |      5 |              3 |
| [65535.41](#event-6553541) | 0x12E9       |      5 |              3 |
| [65535.42](#event-6553542) | 0x12EE       |      5 |              3 |
| [65535.43](#event-6553543) | 0x12F3       |      5 |              3 |
| [65535.44](#event-6553544) | 0x12F8       |      5 |              3 |
| [65535.45](#event-6553545) | 0x12FD       |      5 |              3 |
| [65535.46](#event-6553546) | 0x1302       |      5 |              3 |
| [65535.47](#event-6553547) | 0x1307       |      5 |              3 |
| [65535.48](#event-6553548) | 0x130C       |      5 |              3 |
| [65535.49](#event-6553549) | 0x1311       |      5 |              3 |
| [65535.50](#event-6553550) | 0x1316       |      5 |              3 |
| [10012](#event-10012)      | 0x131B       |     33 |             12 |
| [10014](#event-10014)      | 0x133C       |     37 |             14 |
| [323](#event-323)          | 0x1361       |     42 |             13 |

## DAT References (imed_data)

|   Index | Hex Value   |   Dec Value |
|---------|-------------|-------------|
|       0 | 0x0032      |          50 |
|       1 | 0x001E      |          30 |
|       2 | 0x1C67      |        7271 |
|       3 | 0xFFFF5DB2  |  4294925746 |
|       4 | 0x7335      |       29493 |
|       5 | 0xFFFFC243  |  4294951491 |
|       6 | 0x00A4      |         164 |
|       7 | 0x0000      |           0 |
|       8 | 0x00C8      |         200 |
|       9 | 0x01E9      |         489 |
|      10 | 0x0013      |          19 |
|      11 | 0x009F      |         159 |
|      12 | 0x007F      |         127 |
|      13 | 0x0001      |           1 |
|      14 | 0x0010      |          16 |
|      15 | 0x00FA      |         250 |
|      16 | 0x003C      |          60 |
|      17 | 0x0077      |         119 |
|      18 | 0x0012      |          18 |
|      19 | 0x0008      |           8 |
|      20 | 0x1C70      |        7280 |
|      21 | 0x1C72      |        7282 |
|      22 | 0x0078      |         120 |
|      23 | 0x000F      |          15 |
|      24 | 0x00F9      |         249 |
|      25 | 0x0069      |         105 |
|      26 | 0x0097      |         151 |
|      27 | 0x0014      |          20 |
|      28 | 0x00A1      |         161 |
|      29 | 0x1C7B      |        7291 |
|      30 | 0x0003      |           3 |
|      31 | 0x0005      |           5 |
|      32 | 0x0006      |           6 |
|      33 | 0x0064      |         100 |
|      34 | 0x1C68      |        7272 |
|      35 | 0x1C69      |        7273 |
|      36 | 0x1C6A      |        7274 |
|      37 | 0x1C6B      |        7275 |
|      38 | 0x1C6C      |        7276 |
|      39 | 0x1C6D      |        7277 |
|      40 | 0x1C6E      |        7278 |
|      41 | 0x1C6F      |        7279 |
|      42 | 0x1C71      |        7281 |
|      43 | 0x1C73      |        7283 |
|      44 | 0x1C74      |        7284 |
|      45 | 0x1C75      |        7285 |
|      46 | 0x1C76      |        7286 |
|      47 | 0x1C77      |        7287 |
|      48 | 0x1C78      |        7288 |
|      49 | 0x1C79      |        7289 |
|      50 | 0x1C7A      |        7290 |
|      51 | 0x1C81      |        7297 |
|      52 | 0x1C82      |        7298 |
|      53 | 0x1C83      |        7299 |
|      54 | 0x1C84      |        7300 |
|      55 | 0x1C87      |        7303 |
|      56 | 0x00F4      |         244 |
|      57 | 0x000C      |          12 |
|      58 | 0x1C92      |        7314 |
|      59 | 0x1C97      |        7319 |
|      60 | 0x1C98      |        7320 |
|      61 | 0x1C99      |        7321 |
|      62 | 0x1C9D      |        7325 |
|      63 | 0x0096      |         150 |
|      64 | 0x1C85      |        7301 |
|      65 | 0x1C86      |        7302 |
|      66 | 0x1C88      |        7304 |
|      67 | 0x1C89      |        7305 |
|      68 | 0x1C8B      |        7307 |
|      69 | 0x1C8D      |        7309 |
|      70 | 0x1C8F      |        7311 |
|      71 | 0x1C93      |        7315 |
|      72 | 0x1C94      |        7316 |
|      73 | 0x1C96      |        7318 |
|      74 | 0x1C9A      |        7322 |
|      75 | 0x1C9C      |        7324 |
|      76 | 0x1C9E      |        7326 |
|      77 | 0x1C9F      |        7327 |
|      78 | 0x1CA0      |        7328 |
|      79 | 0x1CA1      |        7329 |
|      80 | 0x1CA2      |        7330 |
|      81 | 0x0018      |          24 |
|      82 | 0x1CAF      |        7343 |
|      83 | 0x000D      |          13 |
|      84 | 0xFFFF559B  |  4294923675 |
|      85 | 0x7595      |       30101 |
|      86 | 0xFFFFC189  |  4294951305 |
|      87 | 0x1CA3      |        7331 |
|      88 | 0x1CA4      |        7332 |
|      89 | 0x1CA5      |        7333 |
|      90 | 0x1CA6      |        7334 |
|      91 | 0x1CA7      |        7335 |
|      92 | 0x1CA8      |        7336 |
|      93 | 0x1CA9      |        7337 |
|      94 | 0x1CAA      |        7338 |
|      95 | 0x1CAB      |        7339 |
|      96 | 0x1CAC      |        7340 |
|      97 | 0x1CAD      |        7341 |
|      98 | 0x1CAE      |        7342 |
|      99 | 0x1CB0      |        7344 |
|     100 | 0x1CB1      |        7345 |
|     101 | 0x1CB2      |        7346 |
|     102 | 0x1CB3      |        7347 |
|     103 | 0x1CB4      |        7348 |
|     104 | 0x1CB5      |        7349 |
|     105 | 0x1E0B      |        7691 |
|     106 | 0x1E0C      |        7692 |

## String References

- **7271**: Old wounds ache on days like these. Nobody wants to give in to the march of years, I guess...
- **7272**: And you arrre?
- **7273**: Weren't you the one under orderrrs from Chieftainness Perih Vashai?
- **7274**: The Mithran Tracker from the homeland was here a moment ago. She was asking about the incident that occurred twenty years ago concerning the Chieftainness of the Fire Tribe and her daughter...
- **7275**: Do you know of the Fire Tribe? They are a Mithran tribe that lives on the southern continent.
- **7276**: It was some thirty years ago now. The chieftainness of that tribe committed the sin of slaying a fellow tribal member.
- **7277**: She spent ten years atoning for that sin in the homeland... When war broke out here, she escaped from prison, crossing over to this continent with her daughter in tow.
- **7278**: At the time, I was performing the dangerous duty of escorting people and supplies between Jeuno and Windurst.
- **7279**: One day, a Mithran woman and her child slipped into our company.
- **7281**: However, things didn't go as planned. We were discovered by a party of Yagudo in the Meriphataud Mountains.
- **7283**: The prison of Oztroja was a terrible place. All we could do was shiver in the biting cold.
- **7284**: At regular intervals, the Yagudo would come to drag one of us from the prison.
- **7285**: Finally, the Chieftainness of the Fire Tribe was taken away, leaving her daughter behind. Only the two of us were left...
- **7286**: ......
- **7287**: Not long after that, we were saved by the elite warriors stationed in the Meriphataud Mountains, led by Perih Vashai herself.
- **7288**: I took the child back to Jeuno, but she grew thinner by the day from misery and exhaustion.
- **7289**: ...Her body was interred in the Eldieme Necropolis, along with the remains of the other races who had died in the war.
- **7290**: The daughter of the sinner could not be buried in the lands of the Mithra...
- **7297**: Most of the old Mithra living near Windurst are of the southern Fire Tribe.
- **7298**: However, they would not harborrr the sinner out of pity. A sin must be atoned for, and this cannot be avoided.
- **7299**: It would seem the Mithran Tracker was not satisfied with the way things turned out.
- **7300**: I don't believe she can return home without first discovering the whereabouts of the Bow of Light.
- **7301**: You must be... You are the one who is in the employ of Chieftainness Perih Vashai?
- **7302**: The Mithran Tracker appears to be widening her search for information on the Bow of Light.
- **7304**: You...?
- **7305**: That isn't...? Then, you must be the one taken in by Heavens Tower...
- **7307**: ......
- **7309**: It is the earring that was switched for the other when you were but a child. ...Yes, that is your original $1.
- **7311**: Yes, by your mother's request... To help the sinner's daughter escape, your mother gave her earring to the sinner.
- **7314**: You know the story of the company that was held captive in Castle Oztroja twenty years ago, and how the sinner and her child were with them?
- **7315**: Perih Vashai was deeply troubled over whether or not to send the child back to the homeland.
- **7316**: One night, the chieftainness came to me. We would report to the homeland that the sinner and her daughter had both perished in Castle Oztroja at the hands of the Yagudo.
- **7318**: Yes. At the time, we were unaware of the scent that lingers on the sinner. We believed that everything would be solved.
- **7321**: At this point, you wouldn't believe anything I had to say. What I can tell you is...
- **7322**: The $1 that you hold, the one that really belongs to you... The other half can be found in the Northlands.
- **7324**: I do not know if the one who holds it still lives. I know only that twenty years ago, she traveled with the escort to the Northlands.
- **7326**: <Player>. I have one thing to ask of you.
- **7327**: Could you possibly bring me $2? I've heard it's very useful.
- **7328**: If you can bring me that, I will tell you a little more of the story.
- **7329**: Could you possibly bring me $2? I've heard it's very useful.
- **7330**: If you can bring me that, I will tell you a little more of the story.
- **7331**: Thank you, adventurer. With this in hand, that child's long, hard journey will be made a little easier.
- **7332**: Now... Let me tell you what really happened those twenty years ago.
- **7333**: When we were imprisoned by the Yagudo in the Meriphataud Mountains, only the Fire Tribe chieftainness, Nhev Befrathi, managed to escape.
- **7334**: However, this left her daughter, Syu Befrathi, in the clutches of the Yagudo...
- **7335**: To save her daughter, Chieftainness Nhev Befrathi ran into the nearby camp of Perih Vashai and her elite warriors.
- **7336**: For the chieftainness, this act was akin to jumping right back into prison, but it was the only option she had left for her daughter's rescue.
- **7337**: After hearing the words of Nhev Befrathi, Perih Vashai immediately led her warriors on a raid of Castle Oztroja, not waiting for the dawn.
- **7338**: The power of the Bow of Light was incredible to behold. Even so, many warriors lost their lives that day.
- **7339**: When we finally escaped from the castle, only a handful of warriors remained.
- **7340**: In that battle, Chieftainness Perih Vashai lost the light, and Nhev Befrathi, her life.
- **7341**: Left behind were the sinner's daughter, Syu Befrathi, and the Bow of Light... We did our utmost to deceive everyone.
- **7342**: ...... Semih Lafihna must have learned something in the Northlands by now.
- **7343**: Please travel to the Northlands and look for a cave near Castle Zvahl.
- **7344**: And if you happen to meet someone there, please give her my letter.
- **7345**: Please travel to the Northlands and look for a cave near Castle Zvahl.
- **7346**: And if you happen to meet someone there, please give her my letter.
- **7347**: Has Semih Lafihna discovered who her mother is?
- **7348**: This is not a matter that can be resolved with a few simple words from me. The long years have shackled her heart in chains.
- **7349**: It will take both time and a strong will for her to free herself from them.

## Events

### Event 65535

#### Metadata

| Field        | Value   |
|--------------|---------|
| Entrypoint   | 0x0000  |
| Data Size    | 1 bytes |
| Instructions | 1       |

```
      00 01 02 03 04 05 06 07  08 09 0A 0B 0C 0D 0E 0F
      -- -- -- -- -- -- -- --  -- -- -- -- -- -- -- --
0000: 00                                                .               
```

#### Opcodes

```
  0: 0x0000 [0x00] END_REQSTACK()
```

### Event 322

#### Metadata

| Field        | Value   |
|--------------|---------|
| Entrypoint   | 0x0001  |
| Data Size    | 3 bytes |
| Instructions | 2       |

```
      00 01 02 03 04 05 06 07  08 09 0A 0B 0C 0D 0E 0F
      -- -- -- -- -- -- -- --  -- -- -- -- -- -- -- --
0000:    22 01 00                                        "..            
```

#### Opcodes

```
  0: 0x0001 [0x22] ENTITY_HIDE_FLAG(enabled=0x01)
  1: 0x0003 [0x00] END_REQSTACK()
```

### Event 65535.1

#### Metadata

| Field        | Value    |
|--------------|----------|
| Entrypoint   | 0x0004   |
| Data Size    | 16 bytes |
| Instructions | 2        |

```
      00 01 02 03 04 05 06 07  08 09 0A 0B 0C 0D 0E 0F
      -- -- -- -- -- -- -- --  -- -- -- -- -- -- -- --
0000:             66 00 80 F8  FF FF 7F F8 FF FF 7F 74      f..........t
0010: 6C 6B 30 00                                       lk0.            
```

#### Opcodes

```
  0: 0x0004 [0x66] LOAD_EXT_SCHEDULER_MAIN: Load scheduler "tlk0" with entities [EventEntity, EventEntity], work=50*
  1: 0x0013 [0x00] END_REQSTACK()
```

### Event 65535.2

#### Metadata

| Field        | Value    |
|--------------|----------|
| Entrypoint   | 0x0014   |
| Data Size    | 22 bytes |
| Instructions | 4        |

```
      00 01 02 03 04 05 06 07  08 09 0A 0B 0C 0D 0E 0F
      -- -- -- -- -- -- -- --  -- -- -- -- -- -- -- --
0010:             53 F8 FF FF  7F F8 FF FF 7F 74 6C 6B      S........tlk
0020: 30 5E 69 64 6C 30 1C 01  80 00                    0^idl0....      
```

#### Opcodes

```
  0: 0x0014 [0x53] WAIT_SCHEDULER_TASK: Wait for scheduler "tlk0" with entities [EventEntity, EventEntity]
  1: 0x0021 [0x5E] EventEntity goes idle (kills current action) (animation: "idl0")
  2: 0x0026 [0x1C] WAIT(30* ticks)
  3: 0x0029 [0x00] END_REQSTACK()
```

### Event 65535.3

#### Metadata

| Field        | Value    |
|--------------|----------|
| Entrypoint   | 0x002A   |
| Data Size    | 16 bytes |
| Instructions | 2        |

```
      00 01 02 03 04 05 06 07  08 09 0A 0B 0C 0D 0E 0F
      -- -- -- -- -- -- -- --  -- -- -- -- -- -- -- --
0020:                                66 00 80 F8 FF FF            f.....
0030: 7F F8 FF FF 7F 70 61 73  30 00                    .....pas0.      
```

#### Opcodes

```
  0: 0x002A [0x66] LOAD_EXT_SCHEDULER_MAIN: Load scheduler "pas0" with entities [EventEntity, EventEntity], work=50*
  1: 0x0039 [0x00] END_REQSTACK()
```

### Event 65535.4

#### Metadata

| Field        | Value    |
|--------------|----------|
| Entrypoint   | 0x003A   |
| Data Size    | 14 bytes |
| Instructions | 2        |

```
      00 01 02 03 04 05 06 07  08 09 0A 0B 0C 0D 0E 0F
      -- -- -- -- -- -- -- --  -- -- -- -- -- -- -- --
0030:                                53 F8 FF FF 7F F8            S.....
0040: FF FF 7F 70 61 73 30 00                           ...pas0.        
```

#### Opcodes

```
  0: 0x003A [0x53] WAIT_SCHEDULER_TASK: Wait for scheduler "pas0" with entities [EventEntity, EventEntity]
  1: 0x0047 [0x00] END_REQSTACK()
```

### Event 65535.5

#### Metadata

| Field        | Value   |
|--------------|---------|
| Entrypoint   | 0x0048  |
| Data Size    | 9 bytes |
| Instructions | 3       |

```
      00 01 02 03 04 05 06 07  08 09 0A 0B 0C 0D 0E 0F
      -- -- -- -- -- -- -- --  -- -- -- -- -- -- -- --
0040:                          5E 69 64 6C 30 1C 01 80          ^idl0...
0050: 00                                                .               
```

#### Opcodes

```
  0: 0x0048 [0x5E] EventEntity goes idle (kills current action) (animation: "idl0")
  1: 0x004D [0x1C] WAIT(30* ticks)
  2: 0x0050 [0x00] END_REQSTACK()
```

### Event 10013

#### Metadata

| Field        | Value    |
|--------------|----------|
| Entrypoint   | 0x0051   |
| Data Size    | 29 bytes |
| Instructions | 10       |

```
      00 01 02 03 04 05 06 07  08 09 0A 0B 0C 0D 0E 0F
      -- -- -- -- -- -- -- --  -- -- -- -- -- -- -- --
0050:    1E F0 FF FF 7F 6F 70  29 08 4D 90 0F 01 02 1D   .....op).M.....
0060: 02 80 23 29 08 4D 90 0F  01 03 20 00 21 00        ..#).M.... .!.  
```

#### Opcodes

```
  0: 0x0051 [0x1E] EventEntity looks at LocalPlayer and starts talking
  1: 0x0056 [0x6F] WAIT_FRAME_DELAY: Yield until WaitTime reaches zero
  2: 0x0057 [0x70] WAIT_ENTITY_RENDER_FLAG: Wait while EventEntity->Render.Flags3 bit 2 is set (cancel turn if not)
  3: 0x0058 [0x29] REQ_SET_WAIT(priority=0x08, entity_id=Koh Lenbalalako (ID: 17797197/0x010F904D), tag_num=0x02)
  4: 0x005F [0x1D] PRINT_EVENT_MESSAGE(message_id=7271*)
    → "Old wounds ache on days like these. Nobody wants to give in to the march of years, I guess..."
  5: 0x0062 [0x23] WAIT_FOR_DIALOG_INTERACTION
  6: 0x0063 [0x29] REQ_SET_WAIT(priority=0x08, entity_id=Koh Lenbalalako (ID: 17797197/0x010F904D), tag_num=0x03)
  7: 0x006A [0x20] SET_CLI_EVENT_UC_FLAG: Unlock player control
  8: 0x006C [0x21] END_EVENT
  9: 0x006D [0x00] END_REQSTACK()
```

### Event 65535.6

#### Metadata

| Field        | Value    |
|--------------|----------|
| Entrypoint   | 0x006E   |
| Data Size    | 10 bytes |
| Instructions | 2        |

```
      00 01 02 03 04 05 06 07  08 09 0A 0B 0C 0D 0E 0F
      -- -- -- -- -- -- -- --  -- -- -- -- -- -- -- --
0060:                                            37 03                7.
0070: 80 04 80 05 80 06 80 00                           ........        
```

#### Opcodes

```
  0: 0x006E [0x37] UPDATE_EVENT_POSITION_AND_DIR: x=-41.550*, z=29.493*, y=-15.805*, direction=14.4°*
  1: 0x0077 [0x00] END_REQSTACK()
```

### Event 65535.7

#### Metadata

| Field        | Value   |
|--------------|---------|
| Entrypoint   | 0x0078  |
| Data Size    | 1 bytes |
| Instructions | 1       |

```
      00 01 02 03 04 05 06 07  08 09 0A 0B 0C 0D 0E 0F
      -- -- -- -- -- -- -- --  -- -- -- -- -- -- -- --
0070:                          00                               .       
```

#### Opcodes

```
  0: 0x0078 [0x00] END_REQSTACK()
```

### Event 10007

#### Metadata

| Field        | Value     |
|--------------|-----------|
| Entrypoint   | 0x0079    |
| Data Size    | 916 bytes |
| Instructions | 147       |

```
      00 01 02 03 04 05 06 07  08 09 0A 0B 0C 0D 0E 0F
      -- -- -- -- -- -- -- --  -- -- -- -- -- -- -- --
0070:                             42 03 00 00 09 10 1E           B......
0080: F0 FF FF 7F 6F 70 29 0B  4D 90 0F 01 0C 46 01 5D  ....op).M....F.]
0090: 07 80 08 80 45 08 80 F8  FF FF 7F F8 FF FF 7F 66  ....E..........f
00A0: 64 6F 31 07 80 1C 08 80  75 00 09 80 75 01 38 0A  do1.....u...u.8.
00B0: 80 29 08 F0 FF FF 7F 1D  37 03 80 04 80 05 80 06  .)......7.......
00C0: 80 29 0B F0 FF FF 7F 18  5C 00 0B 80 5C 01 0B 80  .)......\...\...
00D0: 5D 0C 80 0D 80 45 0E 80  F0 FF FF 7F F0 FF FF 7F  ]....E..........
00E0: 73 30 31 35 07 80 45 08  80 F8 FF FF 7F F8 FF FF  s015..E.........
00F0: 7F 66 64 69 31 07 80 1C  0F 80 52 0E 80 F0 FF FF  .fdi1.....R.....
0100: 7F F0 FF FF 7F 73 30 31  35 45 08 80 F0 FF FF 7F  .....s015E......
0110: F0 FF FF 7F 6F 76 6C 31  07 80 45 0E 80 F0 FF FF  ....ovl1..E.....
0120: 7F F0 FF FF 7F 73 30 31  36 07 80 29 0B 4D 90 0F  .....s016..).M..
0130: 01 0D 52 0E 80 F0 FF FF  7F F0 FF FF 7F 73 30 31  ..R..........s01
0140: 36 29 0B 4D 90 0F 01 0E  45 0E 80 F0 FF FF 7F F0  6).M....E.......
0150: FF FF 7F 73 30 31 37 07  80 1E F0 FF FF 7F 6F 70  ...s017.......op
0160: 29 0B 4D 90 0F 01 0F 52  0E 80 F0 FF FF 7F F0 FF  ).M....R........
0170: FF 7F 73 30 31 37 45 0E  80 F0 FF FF 7F F0 FF FF  ..s017E.........
0180: 7F 73 30 31 38 07 80 29  0B 4D 90 0F 01 10 45 08  .s018..).M....E.
0190: 80 F0 FF FF 7F F0 FF FF  7F 66 64 6F 31 07 80 1C  .........fdo1...
01A0: 10 80 52 0E 80 F0 FF FF  7F F0 FF FF 7F 73 30 31  ..R..........s01
01B0: 38 34 11 80 77 12 80 13  80 22 01 4E 01 F0 FF FF  84..w....".N....
01C0: 7F 1C 10 80 4E 00 50 90  0F 01 4E 00 51 90 0F 01  ....N.P...N.Q...
01D0: 4E 00 52 90 0F 01 4E 00  53 90 0F 01 4E 00 54 90  N.R...N.S...N.T.
01E0: 0F 01 4E 00 55 90 0F 01  4E 00 56 90 0F 01 4E 00  ..N.U...N.V...N.
01F0: 57 90 0F 01 4E 00 58 90  0F 01 4E 00 59 90 0F 01  W...N.X...N.Y...
0200: 4E 00 5A 90 0F 01 4E 00  5B 90 0F 01 4E 00 5C 90  N.Z...N.[...N.\.
0210: 0F 01 4E 00 5D 90 0F 01  4E 00 5E 90 0F 01 4E 00  ..N.]...N.^...N.
0220: 5F 90 0F 01 4E 00 60 90  0F 01 29 0B 50 90 0F 01  _...N.`...).P...
0230: 03 29 0B 51 90 0F 01 07  29 0B 52 90 0F 01 07 29  .).Q....).R....)
0240: 0B 53 90 0F 01 07 29 0B  54 90 0F 01 06 29 0B 55  .S....).T....).U
0250: 90 0F 01 06 29 0B 56 90  0F 01 06 29 0B 57 90 0F  ....).V....).W..
0260: 01 08 29 0B 58 90 0F 01  06 29 0B 5A 90 0F 01 05  ..).X....).Z....
0270: 29 0B 5B 90 0F 01 06 29  0B 5C 90 0F 01 05 29 0B  ).[....).\....).
0280: 5F 90 0F 01 05 80 50 90  0F 01 80 51 90 0F 01 80  _.....P....Q....
0290: 52 90 0F 01 80 53 90 0F  01 80 54 90 0F 01 80 55  R....S....T....U
02A0: 90 0F 01 80 56 90 0F 01  80 57 90 0F 01 80 58 90  ....V....W....X.
02B0: 0F 01 80 59 90 0F 01 80  5A 90 0F 01 80 5B 90 0F  ...Y....Z....[..
02C0: 01 80 5C 90 0F 01 80 5D  90 0F 01 80 5E 90 0F 01  ..\....]....^...
02D0: 80 5F 90 0F 01 80 60 90  0F 01 45 0E 80 F0 FF FF  ._....`...E.....
02E0: 7F F0 FF FF 7F 73 30 31  39 07 80 27 0B 4E 90 0F  .....s019..'.N..
02F0: 01 08 45 08 80 F0 FF FF  7F F0 FF FF 7F 66 64 69  ..E..........fdi
0300: 31 07 80 29 0B 4D 90 0F  01 11 29 0B 4D 90 0F 01  1..).M....).M...
0310: 12 2B 4D 90 0F 01 14 80  23 2A 0B 4E 90 0F 01 1C  .+M.....#*.N....
0320: 10 80 55 0E 80 F0 FF FF  7F F0 FF FF 7F 73 30 31  ..U..........s01
0330: 39 4E 00 57 90 0F 01 4E  00 53 90 0F 01 4E 00 52  9N.W...N.S...N.R
0340: 90 0F 01 4E 00 5B 90 0F  01 4E 00 5F 90 0F 01 4E  ...N.[...N._...N
0350: 01 64 90 0F 01 4E 00 61  90 0F 01 4E 00 62 90 0F  .d...N.a...N.b..
0360: 01 4E 00 63 90 0F 01 80  57 90 0F 01 80 53 90 0F  .N.c....W....S..
0370: 01 80 52 90 0F 01 80 5B  90 0F 01 80 5F 90 0F 01  ..R....[...._...
0380: 80 61 90 0F 01 80 62 90  0F 01 80 63 90 0F 01 29  .a....b....c...)
0390: 0B 52 90 0F 01 08 29 0B  53 90 0F 01 08 29 0B 57  .R....).S....).W
03A0: 90 0F 01 09 29 0B 5B 90  0F 01 07 29 0B 5F 90 0F  ....).[....)._..
03B0: 01 06 27 0B 4E 90 0F 01  09 29 0B 4D 90 0F 01 13  ..'.N....).M....
03C0: 2B 4D 90 0F 01 15 80 23  2A 0B 4E 90 0F 01 1C 16  +M.....#*.N.....
03D0: 80 1C 17 80 AB 11 07 80  1C 0D 80 35 18 80 78 1C  ...........5..x.
03E0: 17 80 AB 0A 02 00 00 07  80 00 EF 03 30 21 00 5C  ............0!.\
03F0: 00 19 80 5C 01 19 80 9A  46 00 45 08 80 F0 FF FF  ...\....F.E.....
0400: 7F F0 FF FF 7F 66 64 69  32 07 80 21 00           .....fdi2..!.   
```

#### Opcodes

```
  0: 0x0079 [0x42] SET_CLI_EVENT_CANCEL_DATA()
  1: 0x007A [0x03] ExtData[1]->WorkLocal[0] = Work_Zone[9]
  2: 0x007F [0x1E] EventEntity looks at LocalPlayer and starts talking
  3: 0x0084 [0x6F] WAIT_FRAME_DELAY: Yield until WaitTime reaches zero
  4: 0x0085 [0x70] WAIT_ENTITY_RENDER_FLAG: Wait while EventEntity->Render.Flags3 bit 2 is set (cancel turn if not)
  5: 0x0086 [0x29] REQ_SET_WAIT(priority=0x0B, entity_id=Koh Lenbalalako (ID: 17797197/0x010F904D), tag_num=0x0C)
  6: 0x008D [0x46] CAMERA_CONTROL: Disable user control
  7: 0x008F [0x5D] SET_MUSIC_VOLUME(volume=0*, fade_time=200*)
  8: 0x0094 [0x45] LOAD_SCHEDULED_TASK: Load scheduler "fdo1" with entities [EventEntity, EventEntity], work=[200*, 0*]
  9: 0x00A5 [0x1C] WAIT(200* ticks)
 10: 0x00A8 [0x75] LOAD_ROOM(Load indoor room, room=489*)
 11: 0x00AC [0x75] LOAD_ROOM(No action)
 12: 0x00AE [0x38] SET_CLIENT_EVENT_MODE(mode=19*)
 13: 0x00B1 [0x29] REQ_SET_WAIT(priority=0x08, entity_id=LocalPlayer, tag_num=0x1D)
 14: 0x00B8 [0x37] UPDATE_EVENT_POSITION_AND_DIR: x=-41.550*, z=29.493*, y=-15.805*, direction=14.4°*
 15: 0x00C1 [0x29] REQ_SET_WAIT(priority=0x0B, entity_id=LocalPlayer, tag_num=0x18)
 16: 0x00C8 [0x5C] MUSIC_CONTROL: Set Idle (Day) music to song 159*
 17: 0x00CC [0x5C] MUSIC_CONTROL: Set Idle (Night) music to song 159*
 18: 0x00D0 [0x5D] SET_MUSIC_VOLUME(volume=127*, fade_time=1*)
 19: 0x00D5 [0x45] LOAD_SCHEDULED_TASK: Load scheduler "s015" with entities [LocalPlayer, LocalPlayer], work=[16*, 0*]
 20: 0x00E6 [0x45] LOAD_SCHEDULED_TASK: Load scheduler "fdi1" with entities [EventEntity, EventEntity], work=[200*, 0*]
 21: 0x00F7 [0x1C] WAIT(250* ticks)
 22: 0x00FA [0x52] END_LOAD_SCHEDULER: End scheduler "s015" with entities [LocalPlayer, LocalPlayer], work=16*
 23: 0x0109 [0x45] LOAD_SCHEDULED_TASK: Load scheduler "ovl1" with entities [LocalPlayer, LocalPlayer], work=[200*, 0*]
 24: 0x011A [0x45] LOAD_SCHEDULED_TASK: Load scheduler "s016" with entities [LocalPlayer, LocalPlayer], work=[16*, 0*]
 25: 0x012B [0x29] REQ_SET_WAIT(priority=0x0B, entity_id=Koh Lenbalalako (ID: 17797197/0x010F904D), tag_num=0x0D)
 26: 0x0132 [0x52] END_LOAD_SCHEDULER: End scheduler "s016" with entities [LocalPlayer, LocalPlayer], work=16*
 27: 0x0141 [0x29] REQ_SET_WAIT(priority=0x0B, entity_id=Koh Lenbalalako (ID: 17797197/0x010F904D), tag_num=0x0E)
 28: 0x0148 [0x45] LOAD_SCHEDULED_TASK: Load scheduler "s017" with entities [LocalPlayer, LocalPlayer], work=[16*, 0*]
 29: 0x0159 [0x1E] EventEntity looks at LocalPlayer and starts talking
 30: 0x015E [0x6F] WAIT_FRAME_DELAY: Yield until WaitTime reaches zero
 31: 0x015F [0x70] WAIT_ENTITY_RENDER_FLAG: Wait while EventEntity->Render.Flags3 bit 2 is set (cancel turn if not)
 32: 0x0160 [0x29] REQ_SET_WAIT(priority=0x0B, entity_id=Koh Lenbalalako (ID: 17797197/0x010F904D), tag_num=0x0F)
 33: 0x0167 [0x52] END_LOAD_SCHEDULER: End scheduler "s017" with entities [LocalPlayer, LocalPlayer], work=16*
 34: 0x0176 [0x45] LOAD_SCHEDULED_TASK: Load scheduler "s018" with entities [LocalPlayer, LocalPlayer], work=[16*, 0*]
 35: 0x0187 [0x29] REQ_SET_WAIT(priority=0x0B, entity_id=Koh Lenbalalako (ID: 17797197/0x010F904D), tag_num=0x10)
 36: 0x018E [0x45] LOAD_SCHEDULED_TASK: Load scheduler "fdo1" with entities [LocalPlayer, LocalPlayer], work=[200*, 0*]
 37: 0x019F [0x1C] WAIT(60* ticks)
 38: 0x01A2 [0x52] END_LOAD_SCHEDULER: End scheduler "s018" with entities [LocalPlayer, LocalPlayer], work=16*
 39: 0x01B1 [0x34] LOAD_UNLOAD_ZONE(zone_id=119*)
 40: 0x01B4 [0x77] SET_EVENT_TIME_WEATHER(hour=18*, weather=8*)
 41: 0x01B9 [0x22] ENTITY_HIDE_FLAG(enabled=0x01)
 42: 0x01BB [0x4E] SET_ENTITY_HIDE_FLAG: Hide LocalPlayer
 43: 0x01C1 [0x1C] WAIT(60* ticks)
 44: 0x01C4 [0x4E] SET_ENTITY_HIDE_FLAG: Show Koh Lenbalalako (ID: 17797200/0x010F9050)
 45: 0x01CA [0x4E] SET_ENTITY_HIDE_FLAG: Show OYAMISURA01 (ID: 17797201/0x010F9051)
 46: 0x01D0 [0x4E] SET_ENTITY_HIDE_FLAG: Show OYAMISURA02 (ID: 17797202/0x010F9052)
 47: 0x01D6 [0x4E] SET_ENTITY_HIDE_FLAG: Show OYAMISURA03 (ID: 17797203/0x010F9053)
 48: 0x01DC [0x4E] SET_ENTITY_HIDE_FLAG: Show OYAMISURA04 (ID: 17797204/0x010F9054)
 49: 0x01E2 [0x4E] SET_ENTITY_HIDE_FLAG: Show OYAMISURA05 (ID: 17797205/0x010F9055)
 50: 0x01E8 [0x4E] SET_ENTITY_HIDE_FLAG: Show OYAMISURA06 (ID: 17797206/0x010F9056)
 51: 0x01EE [0x4E] SET_ENTITY_HIDE_FLAG: Show OYAMISURA07 (ID: 17797207/0x010F9057)
 52: 0x01F4 [0x4E] SET_ENTITY_HIDE_FLAG: Show OYAMISURA08 (ID: 17797208/0x010F9058)
 53: 0x01FA [0x4E] SET_ENTITY_HIDE_FLAG: Show OYAMISURA09 (ID: 17797209/0x010F9059)
 54: 0x0200 [0x4E] SET_ENTITY_HIDE_FLAG: Show KOMISURA01 (ID: 17797210/0x010F905A)
 55: 0x0206 [0x4E] SET_ENTITY_HIDE_FLAG: Show KOMISURA02 (ID: 17797211/0x010F905B)
 56: 0x020C [0x4E] SET_ENTITY_HIDE_FLAG: Show KOMISURA03 (ID: 17797212/0x010F905C)
 57: 0x0212 [0x4E] SET_ENTITY_HIDE_FLAG: Show Chocobo (ID: 17797213/0x010F905D)
 58: 0x0218 [0x4E] SET_ENTITY_HIDE_FLAG: Show Chocobo02 (ID: 17797214/0x010F905E)
 59: 0x021E [0x4E] SET_ENTITY_HIDE_FLAG: Show Chocobo03 (ID: 17797215/0x010F905F)
 60: 0x0224 [0x4E] SET_ENTITY_HIDE_FLAG: Show Chocobo04 (ID: 17797216/0x010F9060)
 61: 0x022A [0x29] REQ_SET_WAIT(priority=0x0B, entity_id=Koh Lenbalalako (ID: 17797200/0x010F9050), tag_num=0x03)
 62: 0x0231 [0x29] REQ_SET_WAIT(priority=0x0B, entity_id=OYAMISURA01 (ID: 17797201/0x010F9051), tag_num=0x07)
 63: 0x0238 [0x29] REQ_SET_WAIT(priority=0x0B, entity_id=OYAMISURA02 (ID: 17797202/0x010F9052), tag_num=0x07)
 64: 0x023F [0x29] REQ_SET_WAIT(priority=0x0B, entity_id=OYAMISURA03 (ID: 17797203/0x010F9053), tag_num=0x07)
 65: 0x0246 [0x29] REQ_SET_WAIT(priority=0x0B, entity_id=OYAMISURA04 (ID: 17797204/0x010F9054), tag_num=0x06)
 66: 0x024D [0x29] REQ_SET_WAIT(priority=0x0B, entity_id=OYAMISURA05 (ID: 17797205/0x010F9055), tag_num=0x06)
 67: 0x0254 [0x29] REQ_SET_WAIT(priority=0x0B, entity_id=OYAMISURA06 (ID: 17797206/0x010F9056), tag_num=0x06)
 68: 0x025B [0x29] REQ_SET_WAIT(priority=0x0B, entity_id=OYAMISURA07 (ID: 17797207/0x010F9057), tag_num=0x08)
 69: 0x0262 [0x29] REQ_SET_WAIT(priority=0x0B, entity_id=OYAMISURA08 (ID: 17797208/0x010F9058), tag_num=0x06)
 70: 0x0269 [0x29] REQ_SET_WAIT(priority=0x0B, entity_id=KOMISURA01 (ID: 17797210/0x010F905A), tag_num=0x05)
 71: 0x0270 [0x29] REQ_SET_WAIT(priority=0x0B, entity_id=KOMISURA02 (ID: 17797211/0x010F905B), tag_num=0x06)
 72: 0x0277 [0x29] REQ_SET_WAIT(priority=0x0B, entity_id=KOMISURA03 (ID: 17797212/0x010F905C), tag_num=0x05)
 73: 0x027E [0x29] REQ_SET_WAIT(priority=0x0B, entity_id=Chocobo03 (ID: 17797215/0x010F905F), tag_num=0x05)
 74: 0x0285 [0x80] LOAD_WAIT(entity=Koh Lenbalalako (ID: 17797200/0x010F9050))
 75: 0x028A [0x80] LOAD_WAIT(entity=OYAMISURA01 (ID: 17797201/0x010F9051))
 76: 0x028F [0x80] LOAD_WAIT(entity=OYAMISURA02 (ID: 17797202/0x010F9052))
 77: 0x0294 [0x80] LOAD_WAIT(entity=OYAMISURA03 (ID: 17797203/0x010F9053))
 78: 0x0299 [0x80] LOAD_WAIT(entity=OYAMISURA04 (ID: 17797204/0x010F9054))
 79: 0x029E [0x80] LOAD_WAIT(entity=OYAMISURA05 (ID: 17797205/0x010F9055))
 80: 0x02A3 [0x80] LOAD_WAIT(entity=OYAMISURA06 (ID: 17797206/0x010F9056))
 81: 0x02A8 [0x80] LOAD_WAIT(entity=OYAMISURA07 (ID: 17797207/0x010F9057))
 82: 0x02AD [0x80] LOAD_WAIT(entity=OYAMISURA08 (ID: 17797208/0x010F9058))
 83: 0x02B2 [0x80] LOAD_WAIT(entity=OYAMISURA09 (ID: 17797209/0x010F9059))
 84: 0x02B7 [0x80] LOAD_WAIT(entity=KOMISURA01 (ID: 17797210/0x010F905A))
 85: 0x02BC [0x80] LOAD_WAIT(entity=KOMISURA02 (ID: 17797211/0x010F905B))
 86: 0x02C1 [0x80] LOAD_WAIT(entity=KOMISURA03 (ID: 17797212/0x010F905C))
 87: 0x02C6 [0x80] LOAD_WAIT(entity=Chocobo (ID: 17797213/0x010F905D))
 88: 0x02CB [0x80] LOAD_WAIT(entity=Chocobo02 (ID: 17797214/0x010F905E))
 89: 0x02D0 [0x80] LOAD_WAIT(entity=Chocobo03 (ID: 17797215/0x010F905F))
 90: 0x02D5 [0x80] LOAD_WAIT(entity=Chocobo04 (ID: 17797216/0x010F9060))
 91: 0x02DA [0x45] LOAD_SCHEDULED_TASK: Load scheduler "s019" with entities [LocalPlayer, LocalPlayer], work=[16*, 0*]
 92: 0x02EB [0x27] REQ_SET(priority=0x0B, entity_id=Shikaree M (ID: 17797198/0x010F904E), tag_num=0x08)
 93: 0x02F2 [0x45] LOAD_SCHEDULED_TASK: Load scheduler "fdi1" with entities [LocalPlayer, LocalPlayer], work=[200*, 0*]
 94: 0x0303 [0x29] REQ_SET_WAIT(priority=0x0B, entity_id=Koh Lenbalalako (ID: 17797197/0x010F904D), tag_num=0x11)
 95: 0x030A [0x29] REQ_SET_WAIT(priority=0x0B, entity_id=Koh Lenbalalako (ID: 17797197/0x010F904D), tag_num=0x12)
 96: 0x0311 [0x2B] Koh Lenbalalako (ID: 17797197/0x010F904D) [7280*]:
    → "We set out for Jeuno, not realizing it was the chieftainness and her daughter who had joined us."
 97: 0x0318 [0x23] WAIT_FOR_DIALOG_INTERACTION
 98: 0x0319 [0x2A] GET_REQ_LEVEL(level=11, entity_id=Shikaree M (ID: 17797198/0x010F904E))
 99: 0x031F [0x1C] WAIT(60* ticks)
100: 0x0322 [0x55] WAIT_LOAD_SCHEDULER: Wait for scheduler "s019" with entities [LocalPlayer, LocalPlayer], work=16*
101: 0x0331 [0x4E] SET_ENTITY_HIDE_FLAG: Show OYAMISURA07 (ID: 17797207/0x010F9057)
102: 0x0337 [0x4E] SET_ENTITY_HIDE_FLAG: Show OYAMISURA03 (ID: 17797203/0x010F9053)
103: 0x033D [0x4E] SET_ENTITY_HIDE_FLAG: Show OYAMISURA02 (ID: 17797202/0x010F9052)
104: 0x0343 [0x4E] SET_ENTITY_HIDE_FLAG: Show KOMISURA02 (ID: 17797211/0x010F905B)
105: 0x0349 [0x4E] SET_ENTITY_HIDE_FLAG: Show Chocobo03 (ID: 17797215/0x010F905F)
106: 0x034F [0x4E] SET_ENTITY_HIDE_FLAG: Hide Yagudo04 (ID: 17797220/0x010F9064)
107: 0x0355 [0x4E] SET_ENTITY_HIDE_FLAG: Show Yagudo01 (ID: 17797217/0x010F9061)
108: 0x035B [0x4E] SET_ENTITY_HIDE_FLAG: Show Yagudo02 (ID: 17797218/0x010F9062)
109: 0x0361 [0x4E] SET_ENTITY_HIDE_FLAG: Show Yagudo03 (ID: 17797219/0x010F9063)
110: 0x0367 [0x80] LOAD_WAIT(entity=OYAMISURA07 (ID: 17797207/0x010F9057))
111: 0x036C [0x80] LOAD_WAIT(entity=OYAMISURA03 (ID: 17797203/0x010F9053))
112: 0x0371 [0x80] LOAD_WAIT(entity=OYAMISURA02 (ID: 17797202/0x010F9052))
113: 0x0376 [0x80] LOAD_WAIT(entity=KOMISURA02 (ID: 17797211/0x010F905B))
114: 0x037B [0x80] LOAD_WAIT(entity=Chocobo03 (ID: 17797215/0x010F905F))
115: 0x0380 [0x80] LOAD_WAIT(entity=Yagudo01 (ID: 17797217/0x010F9061))
116: 0x0385 [0x80] LOAD_WAIT(entity=Yagudo02 (ID: 17797218/0x010F9062))
117: 0x038A [0x80] LOAD_WAIT(entity=Yagudo03 (ID: 17797219/0x010F9063))
118: 0x038F [0x29] REQ_SET_WAIT(priority=0x0B, entity_id=OYAMISURA02 (ID: 17797202/0x010F9052), tag_num=0x08)
119: 0x0396 [0x29] REQ_SET_WAIT(priority=0x0B, entity_id=OYAMISURA03 (ID: 17797203/0x010F9053), tag_num=0x08)
120: 0x039D [0x29] REQ_SET_WAIT(priority=0x0B, entity_id=OYAMISURA07 (ID: 17797207/0x010F9057), tag_num=0x09)
121: 0x03A4 [0x29] REQ_SET_WAIT(priority=0x0B, entity_id=KOMISURA02 (ID: 17797211/0x010F905B), tag_num=0x07)
122: 0x03AB [0x29] REQ_SET_WAIT(priority=0x0B, entity_id=Chocobo03 (ID: 17797215/0x010F905F), tag_num=0x06)
123: 0x03B2 [0x27] REQ_SET(priority=0x0B, entity_id=Shikaree M (ID: 17797198/0x010F904E), tag_num=0x09)
124: 0x03B9 [0x29] REQ_SET_WAIT(priority=0x0B, entity_id=Koh Lenbalalako (ID: 17797197/0x010F904D), tag_num=0x13)
125: 0x03C0 [0x2B] Koh Lenbalalako (ID: 17797197/0x010F904D) [7282*]:
    → "The Yagudo quickly overwhelmed us, and we were taken to Castle Oztroja and held as prisoners."
126: 0x03C7 [0x23] WAIT_FOR_DIALOG_INTERACTION
127: 0x03C8 [0x2A] GET_REQ_LEVEL(level=11, entity_id=Shikaree M (ID: 17797198/0x010F904E))
128: 0x03CE [0x1C] WAIT(120* ticks)
129: 0x03D1 [0x1C] WAIT(15* ticks)
130: 0x03D4 [0xAB] EventEntity->DespawnValue = 0* // Set despawn value
131: 0x03D8 [0x1C] WAIT(1* ticks)
132: 0x03DB [0x35] LOAD_ZONE_NO_CLOSE(zone_id=249*)
133: 0x03DE [0x78] ENABLE_GAME_TIMER_RESET_WEATHER()
134: 0x03DF [0x1C] WAIT(15* ticks)
135: 0x03E2 [0xAB] EventEntity->UnknownFlag = 0 // Disable unknown flag
136: 0x03E4 [0x02] IF !(ExtData[1]->WorkLocal[0] == 0*) GOTO 0x03EF
137: 0x03EC [0x30] SET_UCOFF_CONTINUE_ZERO()
138: 0x03ED [0x21] END_EVENT
139: 0x03EE [0x00] END_REQSTACK()
140: 0x03EF [0x5C] MUSIC_CONTROL: Set Idle (Day) music to song 105*
141: 0x03F3 [0x5C] MUSIC_CONTROL: Set Idle (Night) music to song 105*
142: 0x03F7 [0x9A] WAIT_MUSIC_SERVER()
143: 0x03F8 [0x46] CAMERA_CONTROL: Restore default settings
144: 0x03FA [0x45] LOAD_SCHEDULED_TASK: Load scheduler "fdi2" with entities [LocalPlayer, LocalPlayer], work=[200*, 0*]
145: 0x040B [0x21] END_EVENT
146: 0x040C [0x00] END_REQSTACK()
```

### Event 10032

#### Metadata

| Field        | Value      |
|--------------|------------|
| Entrypoint   | 0x040D     |
| Data Size    | 1410 bytes |
| Instructions | 203        |

```
      00 01 02 03 04 05 06 07  08 09 0A 0B 0C 0D 0E 0F
      -- -- -- -- -- -- -- --  -- -- -- -- -- -- -- --
0400:                                         42 45 08               BE.
0410: 80 F8 FF FF 7F F8 FF FF  7F 66 64 6F 31 07 80 53  .........fdo1..S
0420: F8 FF FF 7F F8 FF FF 7F  66 64 6F 31 46 01 38 0A  ........fdo1F.8.
0430: 80 5C 00 0B 80 5C 01 0B  80 9A 34 1A 80 78 1C 10  .\...\....4..x..
0440: 80 4E 00 50 90 0F 01 4E  00 51 90 0F 01 4E 00 52  .N.P...N.Q...N.R
0450: 90 0F 01 4E 00 53 90 0F  01 4E 00 54 90 0F 01 4E  ...N.S...N.T...N
0460: 00 55 90 0F 01 4E 00 56  90 0F 01 4E 00 57 90 0F  .U...N.V...N.W..
0470: 01 4E 00 58 90 0F 01 4E  00 59 90 0F 01 4E 00 5A  .N.X...N.Y...N.Z
0480: 90 0F 01 4E 00 5B 90 0F  01 4E 00 5C 90 0F 01 4E  ...N.[...N.\...N
0490: 00 5D 90 0F 01 4E 00 5E  90 0F 01 4E 00 5F 90 0F  .]...N.^...N._..
04A0: 01 4E 00 60 90 0F 01 80  50 90 0F 01 80 51 90 0F  .N.`....P....Q..
04B0: 01 80 52 90 0F 01 80 53  90 0F 01 80 54 90 0F 01  ..R....S....T...
04C0: 80 55 90 0F 01 80 56 90  0F 01 80 57 90 0F 01 80  .U....V....W....
04D0: 58 90 0F 01 80 59 90 0F  01 80 5A 90 0F 01 80 5B  X....Y....Z....[
04E0: 90 0F 01 80 5C 90 0F 01  4E 00 61 90 0F 01 4E 00  ....\...N.a...N.
04F0: 62 90 0F 01 4E 00 63 90  0F 01 4E 00 64 90 0F 01  b...N.c...N.d...
0500: 80 61 90 0F 01 80 62 90  0F 01 80 63 90 0F 01 80  .a....b....c....
0510: 64 90 0F 01 4E 01 F0 FF  FF 7F 4E 01 62 90 0F 01  d...N.....N.b...
0520: 29 0A 61 90 0F 01 05 29  0A 62 90 0F 01 05 29 0A  ).a....).b....).
0530: 63 90 0F 01 05 29 0A 64  90 0F 01 05 29 0A 50 90  c....).d....).P.
0540: 0F 01 04 29 0A 51 90 0F  01 08 29 0A 52 90 0F 01  ...).Q....).R...
0550: 09 29 0A 53 90 0F 01 09  29 0A 54 90 0F 01 07 29  .).S....).T....)
0560: 0A 55 90 0F 01 07 29 0A  56 90 0F 01 07 29 0A 57  .U....).V....).W
0570: 90 0F 01 0A 29 0A 58 90  0F 01 07 29 0A 5A 90 0F  ....).X....).Z..
0580: 01 06 29 0A 5B 90 0F 01  08 29 0A 5C 90 0F 01 06  ..).[....).\....
0590: 80 51 90 0F 01 80 52 90  0F 01 80 53 90 0F 01 80  .Q....R....S....
05A0: 54 90 0F 01 80 55 90 0F  01 80 56 90 0F 01 80 57  T....U....V....W
05B0: 90 0F 01 80 58 90 0F 01  80 5A 90 0F 01 80 5B 90  ....X....Z....[.
05C0: 0F 01 80 5C 90 0F 01 1C  1B 80 27 08 51 90 0F 01  ...\......'.Q...
05D0: 05 27 08 54 90 0F 01 05  27 08 55 90 0F 01 05 27  .'.T....'.U....'
05E0: 08 57 90 0F 01 06 29 08  58 90 0F 01 05 2A 08 51  .W....).X....*.Q
05F0: 90 0F 01 2A 08 54 90 0F  01 2A 08 55 90 0F 01 2A  ...*.T...*.U...*
0600: 08 57 90 0F 01 45 0E 80  F0 FF FF 7F F0 FF FF 7F  .W...E..........
0610: 73 30 32 36 07 80 45 08  80 F8 FF FF 7F F8 FF FF  s026..E.........
0620: 7F 66 64 69 31 07 80 27  0B 4E 90 0F 01 0A 29 0B  .fdi1..'.N....).
0630: 4D 90 0F 01 14 29 0B 4D  90 0F 01 15 2A 0B 4E 90  M....).M....*.N.
0640: 0F 01 35 18 80 78 1C 10  80 22 00 4E 00 F0 FF FF  ..5..x...".N....
0650: 7F 80 F0 FF FF 7F 4E 01  50 90 0F 01 4E 01 51 90  ......N.P...N.Q.
0660: 0F 01 4E 01 52 90 0F 01  4E 01 53 90 0F 01 4E 01  ..N.R...N.S...N.
0670: 54 90 0F 01 4E 01 55 90  0F 01 4E 01 56 90 0F 01  T...N.U...N.V...
0680: 4E 01 57 90 0F 01 4E 01  58 90 0F 01 4E 01 59 90  N.W...N.X...N.Y.
0690: 0F 01 4E 01 5A 90 0F 01  4E 01 5B 90 0F 01 4E 01  ..N.Z...N.[...N.
06A0: 5C 90 0F 01 4E 01 5D 90  0F 01 4E 01 5E 90 0F 01  \...N.]...N.^...
06B0: 4E 01 5F 90 0F 01 4E 01  60 90 0F 01 37 03 80 04  N._...N.`...7...
06C0: 80 05 80 06 80 29 0B F0  FF FF 7F 18 29 0B 4E 90  .....)......).N.
06D0: 0F 01 0B 4E 00 F0 FF FF  7F 4E 00 4D 90 0F 01 4E  ...N.....N.M...N
06E0: 00 4E 90 0F 01 80 F0 FF  FF 7F 80 4D 90 0F 01 75  .N.........M...u
06F0: 00 09 80 75 01 45 0E 80  F0 FF FF 7F F0 FF FF 7F  ...u.E..........
0700: 73 30 32 30 07 80 45 08  80 F0 FF FF 7F F0 FF FF  s020..E.........
0710: 7F 66 64 69 31 07 80 29  0B 4D 90 0F 01 16 29 0B  .fdi1..).M....).
0720: 4D 90 0F 01 17 52 0E 80  F0 FF FF 7F F0 FF FF 7F  M....R..........
0730: 73 30 32 30 45 0E 80 F0  FF FF 7F F0 FF FF 7F 73  s020E..........s
0740: 30 31 38 07 80 29 0B 4D  90 0F 01 18 52 0E 80 F0  018..).M....R...
0750: FF FF 7F F0 FF FF 7F 73  30 31 38 45 0E 80 F0 FF  .......s018E....
0760: FF 7F F0 FF FF 7F 73 30  33 33 07 80 5D 07 80 08  ......s033..]...
0770: 80 29 0B 4D 90 0F 01 19  80 4E 90 0F 01 27 0B 4E  .).M.....N...'.N
0780: 90 0F 01 0C 52 0E 80 F0  FF FF 7F F0 FF FF 7F 73  ....R..........s
0790: 30 33 33 45 0E 80 F0 FF  FF 7F F0 FF FF 7F 73 30  033E..........s0
07A0: 33 31 07 80 5C 00 1C 80  5C 01 1C 80 5D 0C 80 0D  31..\...\...]...
07B0: 80 4A F0 FF FF 7F 4E 90  0F 01 1E 4E 90 0F 01 2B  .J....N....N...+
07C0: 4E 90 0F 01 1D 80 23 2A  0B 4E 90 0F 01 52 0E 80  N.....#*.N...R..
07D0: F0 FF FF 7F F0 FF FF 7F  73 30 33 31 45 0E 80 F0  ........s031E...
07E0: FF FF 7F F0 FF FF 7F 73  30 33 32 07 80 29 0B 4E  .......s032..).N
07F0: 90 0F 01 0F 52 0E 80 F0  FF FF 7F F0 FF FF 7F 73  ....R..........s
0800: 30 33 32 02 09 10 1E 80  00 1F 08 45 0E 80 F0 FF  032........E....
0810: FF 7F F0 FF FF 7F 73 31  32 39 07 80 01 84 08 02  ......s129......
0820: 09 10 1F 80 00 3B 08 45  0E 80 F0 FF FF 7F F0 FF  .....;.E........
0830: FF 7F 73 31 33 30 07 80  01 84 08 02 09 10 20 80  ..s130........ .
0840: 00 57 08 45 0E 80 F0 FF  FF 7F F0 FF FF 7F 73 31  .W.E..........s1
0850: 33 30 07 80 01 84 08 02  09 10 13 80 00 73 08 45  30...........s.E
0860: 0E 80 F0 FF FF 7F F0 FF  FF 7F 73 31 32 39 07 80  ..........s129..
0870: 01 84 08 45 0E 80 F0 FF  FF 7F F0 FF FF 7F 73 30  ...E..........s0
0880: 33 34 07 80 4A 4E 90 0F  01 F0 FF FF 7F 6F 76 4E  34..JN.......ovN
0890: 90 0F 01 29 0B 4E 90 0F  01 10 29 0B 4E 90 0F 01  ...).N....).N...
08A0: 11 02 09 10 1E 80 00 BB  08 52 0E 80 F0 FF FF 7F  .........R......
08B0: F0 FF FF 7F 73 31 32 39  01 18 09 02 09 10 1F 80  ....s129........
08C0: 00 D5 08 52 0E 80 F0 FF  FF 7F F0 FF FF 7F 73 31  ...R..........s1
08D0: 33 30 01 18 09 02 09 10  20 80 00 EF 08 52 0E 80  30...... ....R..
08E0: F0 FF FF 7F F0 FF FF 7F  73 31 33 30 01 18 09 02  ........s130....
08F0: 09 10 13 80 00 09 09 52  0E 80 F0 FF FF 7F F0 FF  .......R........
0900: FF 7F 73 31 32 39 01 18  09 52 0E 80 F0 FF FF 7F  ..s129...R......
0910: F0 FF FF 7F 73 30 33 34  45 0E 80 F0 FF FF 7F F0  ....s034E.......
0920: FF FF 7F 73 30 33 35 07  80 29 0B 4E 90 0F 01 12  ...s035..).N....
0930: 27 0B 4E 90 0F 01 0D 1C  21 80 5D 07 80 08 80 45  '.N.....!.]....E
0940: 08 80 F8 FF FF 7F F8 FF  FF 7F 66 64 6F 31 07 80  ..........fdo1..
0950: 1C 08 80 2A 0B 4E 90 0F  01 52 0E 80 F0 FF FF 7F  ...*.N...R......
0960: F0 FF FF 7F 73 30 33 35  5C 00 19 80 5C 01 19 80  ....s035\...\...
0970: 5D 0C 80 0D 80 1C 08 80  46 00 45 08 80 F8 FF FF  ].......F.E.....
0980: 7F F8 FF FF 7F 66 64 69  31 07 80 20 00 21 00     .....fdi1.. .!. 
```

#### Opcodes

```
  0: 0x040D [0x42] SET_CLI_EVENT_CANCEL_DATA()
  1: 0x040E [0x45] LOAD_SCHEDULED_TASK: Load scheduler "fdo1" with entities [EventEntity, EventEntity], work=[200*, 0*]
  2: 0x041F [0x53] WAIT_SCHEDULER_TASK: Wait for scheduler "fdo1" with entities [EventEntity, EventEntity]
  3: 0x042C [0x46] CAMERA_CONTROL: Disable user control
  4: 0x042E [0x38] SET_CLIENT_EVENT_MODE(mode=19*)
  5: 0x0431 [0x5C] MUSIC_CONTROL: Set Idle (Day) music to song 159*
  6: 0x0435 [0x5C] MUSIC_CONTROL: Set Idle (Night) music to song 159*
  7: 0x0439 [0x9A] WAIT_MUSIC_SERVER()
  8: 0x043A [0x34] LOAD_UNLOAD_ZONE(zone_id=151*)
  9: 0x043D [0x78] ENABLE_GAME_TIMER_RESET_WEATHER()
 10: 0x043E [0x1C] WAIT(60* ticks)
 11: 0x0441 [0x4E] SET_ENTITY_HIDE_FLAG: Show Koh Lenbalalako (ID: 17797200/0x010F9050)
 12: 0x0447 [0x4E] SET_ENTITY_HIDE_FLAG: Show OYAMISURA01 (ID: 17797201/0x010F9051)
 13: 0x044D [0x4E] SET_ENTITY_HIDE_FLAG: Show OYAMISURA02 (ID: 17797202/0x010F9052)
 14: 0x0453 [0x4E] SET_ENTITY_HIDE_FLAG: Show OYAMISURA03 (ID: 17797203/0x010F9053)
 15: 0x0459 [0x4E] SET_ENTITY_HIDE_FLAG: Show OYAMISURA04 (ID: 17797204/0x010F9054)
 16: 0x045F [0x4E] SET_ENTITY_HIDE_FLAG: Show OYAMISURA05 (ID: 17797205/0x010F9055)
 17: 0x0465 [0x4E] SET_ENTITY_HIDE_FLAG: Show OYAMISURA06 (ID: 17797206/0x010F9056)
 18: 0x046B [0x4E] SET_ENTITY_HIDE_FLAG: Show OYAMISURA07 (ID: 17797207/0x010F9057)
 19: 0x0471 [0x4E] SET_ENTITY_HIDE_FLAG: Show OYAMISURA08 (ID: 17797208/0x010F9058)
 20: 0x0477 [0x4E] SET_ENTITY_HIDE_FLAG: Show OYAMISURA09 (ID: 17797209/0x010F9059)
 21: 0x047D [0x4E] SET_ENTITY_HIDE_FLAG: Show KOMISURA01 (ID: 17797210/0x010F905A)
 22: 0x0483 [0x4E] SET_ENTITY_HIDE_FLAG: Show KOMISURA02 (ID: 17797211/0x010F905B)
 23: 0x0489 [0x4E] SET_ENTITY_HIDE_FLAG: Show KOMISURA03 (ID: 17797212/0x010F905C)
 24: 0x048F [0x4E] SET_ENTITY_HIDE_FLAG: Show Chocobo (ID: 17797213/0x010F905D)
 25: 0x0495 [0x4E] SET_ENTITY_HIDE_FLAG: Show Chocobo02 (ID: 17797214/0x010F905E)
 26: 0x049B [0x4E] SET_ENTITY_HIDE_FLAG: Show Chocobo03 (ID: 17797215/0x010F905F)
 27: 0x04A1 [0x4E] SET_ENTITY_HIDE_FLAG: Show Chocobo04 (ID: 17797216/0x010F9060)
 28: 0x04A7 [0x80] LOAD_WAIT(entity=Koh Lenbalalako (ID: 17797200/0x010F9050))
 29: 0x04AC [0x80] LOAD_WAIT(entity=OYAMISURA01 (ID: 17797201/0x010F9051))
 30: 0x04B1 [0x80] LOAD_WAIT(entity=OYAMISURA02 (ID: 17797202/0x010F9052))
 31: 0x04B6 [0x80] LOAD_WAIT(entity=OYAMISURA03 (ID: 17797203/0x010F9053))
 32: 0x04BB [0x80] LOAD_WAIT(entity=OYAMISURA04 (ID: 17797204/0x010F9054))
 33: 0x04C0 [0x80] LOAD_WAIT(entity=OYAMISURA05 (ID: 17797205/0x010F9055))
 34: 0x04C5 [0x80] LOAD_WAIT(entity=OYAMISURA06 (ID: 17797206/0x010F9056))
 35: 0x04CA [0x80] LOAD_WAIT(entity=OYAMISURA07 (ID: 17797207/0x010F9057))
 36: 0x04CF [0x80] LOAD_WAIT(entity=OYAMISURA08 (ID: 17797208/0x010F9058))
 37: 0x04D4 [0x80] LOAD_WAIT(entity=OYAMISURA09 (ID: 17797209/0x010F9059))
 38: 0x04D9 [0x80] LOAD_WAIT(entity=KOMISURA01 (ID: 17797210/0x010F905A))
 39: 0x04DE [0x80] LOAD_WAIT(entity=KOMISURA02 (ID: 17797211/0x010F905B))
 40: 0x04E3 [0x80] LOAD_WAIT(entity=KOMISURA03 (ID: 17797212/0x010F905C))
 41: 0x04E8 [0x4E] SET_ENTITY_HIDE_FLAG: Show Yagudo01 (ID: 17797217/0x010F9061)
 42: 0x04EE [0x4E] SET_ENTITY_HIDE_FLAG: Show Yagudo02 (ID: 17797218/0x010F9062)
 43: 0x04F4 [0x4E] SET_ENTITY_HIDE_FLAG: Show Yagudo03 (ID: 17797219/0x010F9063)
 44: 0x04FA [0x4E] SET_ENTITY_HIDE_FLAG: Show Yagudo04 (ID: 17797220/0x010F9064)
 45: 0x0500 [0x80] LOAD_WAIT(entity=Yagudo01 (ID: 17797217/0x010F9061))
 46: 0x0505 [0x80] LOAD_WAIT(entity=Yagudo02 (ID: 17797218/0x010F9062))
 47: 0x050A [0x80] LOAD_WAIT(entity=Yagudo03 (ID: 17797219/0x010F9063))
 48: 0x050F [0x80] LOAD_WAIT(entity=Yagudo04 (ID: 17797220/0x010F9064))
 49: 0x0514 [0x4E] SET_ENTITY_HIDE_FLAG: Hide LocalPlayer
 50: 0x051A [0x4E] SET_ENTITY_HIDE_FLAG: Hide Yagudo02 (ID: 17797218/0x010F9062)
 51: 0x0520 [0x29] REQ_SET_WAIT(priority=0x0A, entity_id=Yagudo01 (ID: 17797217/0x010F9061), tag_num=0x05)
 52: 0x0527 [0x29] REQ_SET_WAIT(priority=0x0A, entity_id=Yagudo02 (ID: 17797218/0x010F9062), tag_num=0x05)
 53: 0x052E [0x29] REQ_SET_WAIT(priority=0x0A, entity_id=Yagudo03 (ID: 17797219/0x010F9063), tag_num=0x05)
 54: 0x0535 [0x29] REQ_SET_WAIT(priority=0x0A, entity_id=Yagudo04 (ID: 17797220/0x010F9064), tag_num=0x05)
 55: 0x053C [0x29] REQ_SET_WAIT(priority=0x0A, entity_id=Koh Lenbalalako (ID: 17797200/0x010F9050), tag_num=0x04)
 56: 0x0543 [0x29] REQ_SET_WAIT(priority=0x0A, entity_id=OYAMISURA01 (ID: 17797201/0x010F9051), tag_num=0x08)
 57: 0x054A [0x29] REQ_SET_WAIT(priority=0x0A, entity_id=OYAMISURA02 (ID: 17797202/0x010F9052), tag_num=0x09)
 58: 0x0551 [0x29] REQ_SET_WAIT(priority=0x0A, entity_id=OYAMISURA03 (ID: 17797203/0x010F9053), tag_num=0x09)
 59: 0x0558 [0x29] REQ_SET_WAIT(priority=0x0A, entity_id=OYAMISURA04 (ID: 17797204/0x010F9054), tag_num=0x07)
 60: 0x055F [0x29] REQ_SET_WAIT(priority=0x0A, entity_id=OYAMISURA05 (ID: 17797205/0x010F9055), tag_num=0x07)
 61: 0x0566 [0x29] REQ_SET_WAIT(priority=0x0A, entity_id=OYAMISURA06 (ID: 17797206/0x010F9056), tag_num=0x07)
 62: 0x056D [0x29] REQ_SET_WAIT(priority=0x0A, entity_id=OYAMISURA07 (ID: 17797207/0x010F9057), tag_num=0x0A)
 63: 0x0574 [0x29] REQ_SET_WAIT(priority=0x0A, entity_id=OYAMISURA08 (ID: 17797208/0x010F9058), tag_num=0x07)
 64: 0x057B [0x29] REQ_SET_WAIT(priority=0x0A, entity_id=KOMISURA01 (ID: 17797210/0x010F905A), tag_num=0x06)
 65: 0x0582 [0x29] REQ_SET_WAIT(priority=0x0A, entity_id=KOMISURA02 (ID: 17797211/0x010F905B), tag_num=0x08)
 66: 0x0589 [0x29] REQ_SET_WAIT(priority=0x0A, entity_id=KOMISURA03 (ID: 17797212/0x010F905C), tag_num=0x06)
 67: 0x0590 [0x80] LOAD_WAIT(entity=OYAMISURA01 (ID: 17797201/0x010F9051))
 68: 0x0595 [0x80] LOAD_WAIT(entity=OYAMISURA02 (ID: 17797202/0x010F9052))
 69: 0x059A [0x80] LOAD_WAIT(entity=OYAMISURA03 (ID: 17797203/0x010F9053))
 70: 0x059F [0x80] LOAD_WAIT(entity=OYAMISURA04 (ID: 17797204/0x010F9054))
 71: 0x05A4 [0x80] LOAD_WAIT(entity=OYAMISURA05 (ID: 17797205/0x010F9055))
 72: 0x05A9 [0x80] LOAD_WAIT(entity=OYAMISURA06 (ID: 17797206/0x010F9056))
 73: 0x05AE [0x80] LOAD_WAIT(entity=OYAMISURA07 (ID: 17797207/0x010F9057))
 74: 0x05B3 [0x80] LOAD_WAIT(entity=OYAMISURA08 (ID: 17797208/0x010F9058))
 75: 0x05B8 [0x80] LOAD_WAIT(entity=KOMISURA01 (ID: 17797210/0x010F905A))
 76: 0x05BD [0x80] LOAD_WAIT(entity=KOMISURA02 (ID: 17797211/0x010F905B))
 77: 0x05C2 [0x80] LOAD_WAIT(entity=KOMISURA03 (ID: 17797212/0x010F905C))
 78: 0x05C7 [0x1C] WAIT(20* ticks)
 79: 0x05CA [0x27] REQ_SET(priority=0x08, entity_id=OYAMISURA01 (ID: 17797201/0x010F9051), tag_num=0x05)
 80: 0x05D1 [0x27] REQ_SET(priority=0x08, entity_id=OYAMISURA04 (ID: 17797204/0x010F9054), tag_num=0x05)
 81: 0x05D8 [0x27] REQ_SET(priority=0x08, entity_id=OYAMISURA05 (ID: 17797205/0x010F9055), tag_num=0x05)
 82: 0x05DF [0x27] REQ_SET(priority=0x08, entity_id=OYAMISURA07 (ID: 17797207/0x010F9057), tag_num=0x06)
 83: 0x05E6 [0x29] REQ_SET_WAIT(priority=0x08, entity_id=OYAMISURA08 (ID: 17797208/0x010F9058), tag_num=0x05)
 84: 0x05ED [0x2A] GET_REQ_LEVEL(level=8, entity_id=OYAMISURA01 (ID: 17797201/0x010F9051))
 85: 0x05F3 [0x2A] GET_REQ_LEVEL(level=8, entity_id=OYAMISURA04 (ID: 17797204/0x010F9054))
 86: 0x05F9 [0x2A] GET_REQ_LEVEL(level=8, entity_id=OYAMISURA05 (ID: 17797205/0x010F9055))
 87: 0x05FF [0x2A] GET_REQ_LEVEL(level=8, entity_id=OYAMISURA07 (ID: 17797207/0x010F9057))
 88: 0x0605 [0x45] LOAD_SCHEDULED_TASK: Load scheduler "s026" with entities [LocalPlayer, LocalPlayer], work=[16*, 0*]
 89: 0x0616 [0x45] LOAD_SCHEDULED_TASK: Load scheduler "fdi1" with entities [EventEntity, EventEntity], work=[200*, 0*]
 90: 0x0627 [0x27] REQ_SET(priority=0x0B, entity_id=Shikaree M (ID: 17797198/0x010F904E), tag_num=0x0A)
 91: 0x062E [0x29] REQ_SET_WAIT(priority=0x0B, entity_id=Koh Lenbalalako (ID: 17797197/0x010F904D), tag_num=0x14)
 92: 0x0635 [0x29] REQ_SET_WAIT(priority=0x0B, entity_id=Koh Lenbalalako (ID: 17797197/0x010F904D), tag_num=0x15)
 93: 0x063C [0x2A] GET_REQ_LEVEL(level=11, entity_id=Shikaree M (ID: 17797198/0x010F904E))
 94: 0x0642 [0x35] LOAD_ZONE_NO_CLOSE(zone_id=249*)
 95: 0x0645 [0x78] ENABLE_GAME_TIMER_RESET_WEATHER()
 96: 0x0646 [0x1C] WAIT(60* ticks)
 97: 0x0649 [0x22] ENTITY_HIDE_FLAG(enabled=0x00)
 98: 0x064B [0x4E] SET_ENTITY_HIDE_FLAG: Show LocalPlayer
 99: 0x0651 [0x80] LOAD_WAIT(entity=LocalPlayer)
100: 0x0656 [0x4E] SET_ENTITY_HIDE_FLAG: Hide Koh Lenbalalako (ID: 17797200/0x010F9050)
101: 0x065C [0x4E] SET_ENTITY_HIDE_FLAG: Hide OYAMISURA01 (ID: 17797201/0x010F9051)
102: 0x0662 [0x4E] SET_ENTITY_HIDE_FLAG: Hide OYAMISURA02 (ID: 17797202/0x010F9052)
103: 0x0668 [0x4E] SET_ENTITY_HIDE_FLAG: Hide OYAMISURA03 (ID: 17797203/0x010F9053)
104: 0x066E [0x4E] SET_ENTITY_HIDE_FLAG: Hide OYAMISURA04 (ID: 17797204/0x010F9054)
105: 0x0674 [0x4E] SET_ENTITY_HIDE_FLAG: Hide OYAMISURA05 (ID: 17797205/0x010F9055)
106: 0x067A [0x4E] SET_ENTITY_HIDE_FLAG: Hide OYAMISURA06 (ID: 17797206/0x010F9056)
107: 0x0680 [0x4E] SET_ENTITY_HIDE_FLAG: Hide OYAMISURA07 (ID: 17797207/0x010F9057)
108: 0x0686 [0x4E] SET_ENTITY_HIDE_FLAG: Hide OYAMISURA08 (ID: 17797208/0x010F9058)
109: 0x068C [0x4E] SET_ENTITY_HIDE_FLAG: Hide OYAMISURA09 (ID: 17797209/0x010F9059)
110: 0x0692 [0x4E] SET_ENTITY_HIDE_FLAG: Hide KOMISURA01 (ID: 17797210/0x010F905A)
111: 0x0698 [0x4E] SET_ENTITY_HIDE_FLAG: Hide KOMISURA02 (ID: 17797211/0x010F905B)
112: 0x069E [0x4E] SET_ENTITY_HIDE_FLAG: Hide KOMISURA03 (ID: 17797212/0x010F905C)
113: 0x06A4 [0x4E] SET_ENTITY_HIDE_FLAG: Hide Chocobo (ID: 17797213/0x010F905D)
114: 0x06AA [0x4E] SET_ENTITY_HIDE_FLAG: Hide Chocobo02 (ID: 17797214/0x010F905E)
115: 0x06B0 [0x4E] SET_ENTITY_HIDE_FLAG: Hide Chocobo03 (ID: 17797215/0x010F905F)
116: 0x06B6 [0x4E] SET_ENTITY_HIDE_FLAG: Hide Chocobo04 (ID: 17797216/0x010F9060)
117: 0x06BC [0x37] UPDATE_EVENT_POSITION_AND_DIR: x=-41.550*, z=29.493*, y=-15.805*, direction=14.4°*
118: 0x06C5 [0x29] REQ_SET_WAIT(priority=0x0B, entity_id=LocalPlayer, tag_num=0x18)
119: 0x06CC [0x29] REQ_SET_WAIT(priority=0x0B, entity_id=Shikaree M (ID: 17797198/0x010F904E), tag_num=0x0B)
120: 0x06D3 [0x4E] SET_ENTITY_HIDE_FLAG: Show LocalPlayer
121: 0x06D9 [0x4E] SET_ENTITY_HIDE_FLAG: Show Koh Lenbalalako (ID: 17797197/0x010F904D)
122: 0x06DF [0x4E] SET_ENTITY_HIDE_FLAG: Show Shikaree M (ID: 17797198/0x010F904E)
123: 0x06E5 [0x80] LOAD_WAIT(entity=LocalPlayer)
124: 0x06EA [0x80] LOAD_WAIT(entity=Koh Lenbalalako (ID: 17797197/0x010F904D))
125: 0x06EF [0x75] LOAD_ROOM(Load indoor room, room=489*)
126: 0x06F3 [0x75] LOAD_ROOM(No action)
127: 0x06F5 [0x45] LOAD_SCHEDULED_TASK: Load scheduler "s020" with entities [LocalPlayer, LocalPlayer], work=[16*, 0*]
128: 0x0706 [0x45] LOAD_SCHEDULED_TASK: Load scheduler "fdi1" with entities [LocalPlayer, LocalPlayer], work=[200*, 0*]
129: 0x0717 [0x29] REQ_SET_WAIT(priority=0x0B, entity_id=Koh Lenbalalako (ID: 17797197/0x010F904D), tag_num=0x16)
130: 0x071E [0x29] REQ_SET_WAIT(priority=0x0B, entity_id=Koh Lenbalalako (ID: 17797197/0x010F904D), tag_num=0x17)
131: 0x0725 [0x52] END_LOAD_SCHEDULER: End scheduler "s020" with entities [LocalPlayer, LocalPlayer], work=16*
132: 0x0734 [0x45] LOAD_SCHEDULED_TASK: Load scheduler "s018" with entities [LocalPlayer, LocalPlayer], work=[16*, 0*]
133: 0x0745 [0x29] REQ_SET_WAIT(priority=0x0B, entity_id=Koh Lenbalalako (ID: 17797197/0x010F904D), tag_num=0x18)
134: 0x074C [0x52] END_LOAD_SCHEDULER: End scheduler "s018" with entities [LocalPlayer, LocalPlayer], work=16*
135: 0x075B [0x45] LOAD_SCHEDULED_TASK: Load scheduler "s033" with entities [LocalPlayer, LocalPlayer], work=[16*, 0*]
136: 0x076C [0x5D] SET_MUSIC_VOLUME(volume=0*, fade_time=200*)
137: 0x0771 [0x29] REQ_SET_WAIT(priority=0x0B, entity_id=Koh Lenbalalako (ID: 17797197/0x010F904D), tag_num=0x19)
138: 0x0778 [0x80] LOAD_WAIT(entity=Shikaree M (ID: 17797198/0x010F904E))
139: 0x077D [0x27] REQ_SET(priority=0x0B, entity_id=Shikaree M (ID: 17797198/0x010F904E), tag_num=0x0C)
140: 0x0784 [0x52] END_LOAD_SCHEDULER: End scheduler "s033" with entities [LocalPlayer, LocalPlayer], work=16*
141: 0x0793 [0x45] LOAD_SCHEDULED_TASK: Load scheduler "s031" with entities [LocalPlayer, LocalPlayer], work=[16*, 0*]
142: 0x07A4 [0x5C] MUSIC_CONTROL: Set Idle (Day) music to song 161*
143: 0x07A8 [0x5C] MUSIC_CONTROL: Set Idle (Night) music to song 161*
144: 0x07AC [0x5D] SET_MUSIC_VOLUME(volume=127*, fade_time=1*)
145: 0x07B1 [0x4A] LocalPlayer looks at Shikaree M (ID: 17797198/0x010F904E)
146: 0x07BA [0x1E] EventEntity looks at Shikaree M (ID: 17797198/0x010F904E) and starts talking
147: 0x07BF [0x2B] Shikaree M (ID: 17797198/0x010F904E) [7291*]:
    → "I go now to check the verrracity of that story, to see for my own eyes the body of Syu Befrathi, daughter of Chieftainness Nhev Befrathi."
148: 0x07C6 [0x23] WAIT_FOR_DIALOG_INTERACTION
149: 0x07C7 [0x2A] GET_REQ_LEVEL(level=11, entity_id=Shikaree M (ID: 17797198/0x010F904E))
150: 0x07CD [0x52] END_LOAD_SCHEDULER: End scheduler "s031" with entities [LocalPlayer, LocalPlayer], work=16*
151: 0x07DC [0x45] LOAD_SCHEDULED_TASK: Load scheduler "s032" with entities [LocalPlayer, LocalPlayer], work=[16*, 0*]
152: 0x07ED [0x29] REQ_SET_WAIT(priority=0x0B, entity_id=Shikaree M (ID: 17797198/0x010F904E), tag_num=0x0F)
153: 0x07F4 [0x52] END_LOAD_SCHEDULER: End scheduler "s032" with entities [LocalPlayer, LocalPlayer], work=16*
154: 0x0803 [0x02] IF !(Work_Zone[9] == 3*) GOTO 0x081F
155: 0x080B [0x45] LOAD_SCHEDULED_TASK: Load scheduler "s129" with entities [LocalPlayer, LocalPlayer], work=[16*, 0*]
156: 0x081C [0x01] GOTO 0x0884
157: 0x081F [0x02] IF !(Work_Zone[9] == 5*) GOTO 0x083B
158: 0x0827 [0x45] LOAD_SCHEDULED_TASK: Load scheduler "s130" with entities [LocalPlayer, LocalPlayer], work=[16*, 0*]
159: 0x0838 [0x01] GOTO 0x0884
160: 0x083B [0x02] IF !(Work_Zone[9] == 6*) GOTO 0x0857
161: 0x0843 [0x45] LOAD_SCHEDULED_TASK: Load scheduler "s130" with entities [LocalPlayer, LocalPlayer], work=[16*, 0*]
162: 0x0854 [0x01] GOTO 0x0884
163: 0x0857 [0x02] IF !(Work_Zone[9] == 8*) GOTO 0x0873
164: 0x085F [0x45] LOAD_SCHEDULED_TASK: Load scheduler "s129" with entities [LocalPlayer, LocalPlayer], work=[16*, 0*]
165: 0x0870 [0x01] GOTO 0x0884
166: 0x0873 [0x45] LOAD_SCHEDULED_TASK: Load scheduler "s034" with entities [LocalPlayer, LocalPlayer], work=[16*, 0*]

SUBROUTINE_0884:
167: 0x0884 [0x4A] Shikaree M (ID: 17797198/0x010F904E) looks at LocalPlayer
168: 0x088D [0x6F] WAIT_FRAME_DELAY: Yield until WaitTime reaches zero
169: 0x088E [0x76] CHECK_ENTITY_RENDER_FLAGS: Wait until Shikaree M (ID: 17797198/0x010F904E) Render.Flags0 and Render.Flags3 conditions are met
170: 0x0893 [0x29] REQ_SET_WAIT(priority=0x0B, entity_id=Shikaree M (ID: 17797198/0x010F904E), tag_num=0x10)
171: 0x089A [0x29] REQ_SET_WAIT(priority=0x0B, entity_id=Shikaree M (ID: 17797198/0x010F904E), tag_num=0x11)
172: 0x08A1 [0x02] IF !(Work_Zone[9] == 3*) GOTO 0x08BB
173: 0x08A9 [0x52] END_LOAD_SCHEDULER: End scheduler "s129" with entities [LocalPlayer, LocalPlayer], work=16*
174: 0x08B8 [0x01] GOTO 0x0918
175: 0x08BB [0x02] IF !(Work_Zone[9] == 5*) GOTO 0x08D5
176: 0x08C3 [0x52] END_LOAD_SCHEDULER: End scheduler "s130" with entities [LocalPlayer, LocalPlayer], work=16*
177: 0x08D2 [0x01] GOTO 0x0918
178: 0x08D5 [0x02] IF !(Work_Zone[9] == 6*) GOTO 0x08EF
179: 0x08DD [0x52] END_LOAD_SCHEDULER: End scheduler "s130" with entities [LocalPlayer, LocalPlayer], work=16*
180: 0x08EC [0x01] GOTO 0x0918
181: 0x08EF [0x02] IF !(Work_Zone[9] == 8*) GOTO 0x0909
182: 0x08F7 [0x52] END_LOAD_SCHEDULER: End scheduler "s129" with entities [LocalPlayer, LocalPlayer], work=16*
183: 0x0906 [0x01] GOTO 0x0918
184: 0x0909 [0x52] END_LOAD_SCHEDULER: End scheduler "s034" with entities [LocalPlayer, LocalPlayer], work=16*

SUBROUTINE_0918:
185: 0x0918 [0x45] LOAD_SCHEDULED_TASK: Load scheduler "s035" with entities [LocalPlayer, LocalPlayer], work=[16*, 0*]
186: 0x0929 [0x29] REQ_SET_WAIT(priority=0x0B, entity_id=Shikaree M (ID: 17797198/0x010F904E), tag_num=0x12)
187: 0x0930 [0x27] REQ_SET(priority=0x0B, entity_id=Shikaree M (ID: 17797198/0x010F904E), tag_num=0x0D)
188: 0x0937 [0x1C] WAIT(100* ticks)
189: 0x093A [0x5D] SET_MUSIC_VOLUME(volume=0*, fade_time=200*)
190: 0x093F [0x45] LOAD_SCHEDULED_TASK: Load scheduler "fdo1" with entities [EventEntity, EventEntity], work=[200*, 0*]
191: 0x0950 [0x1C] WAIT(200* ticks)
192: 0x0953 [0x2A] GET_REQ_LEVEL(level=11, entity_id=Shikaree M (ID: 17797198/0x010F904E))
193: 0x0959 [0x52] END_LOAD_SCHEDULER: End scheduler "s035" with entities [LocalPlayer, LocalPlayer], work=16*
194: 0x0968 [0x5C] MUSIC_CONTROL: Set Idle (Day) music to song 105*
195: 0x096C [0x5C] MUSIC_CONTROL: Set Idle (Night) music to song 105*
196: 0x0970 [0x5D] SET_MUSIC_VOLUME(volume=127*, fade_time=1*)
197: 0x0975 [0x1C] WAIT(200* ticks)
198: 0x0978 [0x46] CAMERA_CONTROL: Restore default settings
199: 0x097A [0x45] LOAD_SCHEDULED_TASK: Load scheduler "fdi1" with entities [EventEntity, EventEntity], work=[200*, 0*]
200: 0x098B [0x20] SET_CLI_EVENT_UC_FLAG: Unlock player control
201: 0x098D [0x21] END_EVENT
202: 0x098E [0x00] END_REQSTACK()
```

### Event 65535.8

#### Metadata

| Field        | Value   |
|--------------|---------|
| Entrypoint   | 0x098F  |
| Data Size    | 5 bytes |
| Instructions | 3       |

```
      00 01 02 03 04 05 06 07  08 09 0A 0B 0C 0D 0E 0F
      -- -- -- -- -- -- -- --  -- -- -- -- -- -- -- --
0980:                                               1D                 .
0990: 22 80 23 00                                       ".#.            
```

#### Opcodes

```
  0: 0x098F [0x1D] PRINT_EVENT_MESSAGE(message_id=7272*)
    → "And you arrre?"
  1: 0x0992 [0x23] WAIT_FOR_DIALOG_INTERACTION
  2: 0x0993 [0x00] END_REQSTACK()
```

### Event 65535.9

#### Metadata

| Field        | Value   |
|--------------|---------|
| Entrypoint   | 0x0994  |
| Data Size    | 5 bytes |
| Instructions | 3       |

```
      00 01 02 03 04 05 06 07  08 09 0A 0B 0C 0D 0E 0F
      -- -- -- -- -- -- -- --  -- -- -- -- -- -- -- --
0990:             1D 23 80 23  00                           .#.#.       
```

#### Opcodes

```
  0: 0x0994 [0x1D] PRINT_EVENT_MESSAGE(message_id=7273*)
    → "Weren't you the one under orderrrs from Chieftainness Perih Vashai?"
  1: 0x0997 [0x23] WAIT_FOR_DIALOG_INTERACTION
  2: 0x0998 [0x00] END_REQSTACK()
```

### Event 65535.10

#### Metadata

| Field        | Value   |
|--------------|---------|
| Entrypoint   | 0x0999  |
| Data Size    | 5 bytes |
| Instructions | 3       |

```
      00 01 02 03 04 05 06 07  08 09 0A 0B 0C 0D 0E 0F
      -- -- -- -- -- -- -- --  -- -- -- -- -- -- -- --
0990:                             1D 24 80 23 00                 .$.#.  
```

#### Opcodes

```
  0: 0x0999 [0x1D] PRINT_EVENT_MESSAGE(message_id=7274*)
    → "The Mithran Tracker from the homeland was here a moment ago. She was asking about the incident that occurred twenty years ago concerning the Chieftainness of the Fire Tribe and her daughter..."
  1: 0x099C [0x23] WAIT_FOR_DIALOG_INTERACTION
  2: 0x099D [0x00] END_REQSTACK()
```

### Event 65535.11

#### Metadata

| Field        | Value   |
|--------------|---------|
| Entrypoint   | 0x099E  |
| Data Size    | 9 bytes |
| Instructions | 5       |

```
      00 01 02 03 04 05 06 07  08 09 0A 0B 0C 0D 0E 0F
      -- -- -- -- -- -- -- --  -- -- -- -- -- -- -- --
0990:                                            1D 25                .%
09A0: 80 23 1D 26 80 23 00                              .#.&.#.         
```

#### Opcodes

```
  0: 0x099E [0x1D] PRINT_EVENT_MESSAGE(message_id=7275*)
    → "Do you know of the Fire Tribe? They are a Mithran tribe that lives on the southern continent."
  1: 0x09A1 [0x23] WAIT_FOR_DIALOG_INTERACTION
  2: 0x09A2 [0x1D] PRINT_EVENT_MESSAGE(message_id=7276*)
    → "It was some thirty years ago now. The chieftainness of that tribe committed the sin of slaying a fellow tribal member."
  3: 0x09A5 [0x23] WAIT_FOR_DIALOG_INTERACTION
  4: 0x09A6 [0x00] END_REQSTACK()
```

### Event 65535.12

#### Metadata

| Field        | Value   |
|--------------|---------|
| Entrypoint   | 0x09A7  |
| Data Size    | 5 bytes |
| Instructions | 3       |

```
      00 01 02 03 04 05 06 07  08 09 0A 0B 0C 0D 0E 0F
      -- -- -- -- -- -- -- --  -- -- -- -- -- -- -- --
09A0:                      1D  27 80 23 00                     .'.#.    
```

#### Opcodes

```
  0: 0x09A7 [0x1D] PRINT_EVENT_MESSAGE(message_id=7277*)
    → "She spent ten years atoning for that sin in the homeland... When war broke out here, she escaped from prison, crossing over to this continent with her daughter in tow."
  1: 0x09AA [0x23] WAIT_FOR_DIALOG_INTERACTION
  2: 0x09AB [0x00] END_REQSTACK()
```

### Event 65535.13

#### Metadata

| Field        | Value   |
|--------------|---------|
| Entrypoint   | 0x09AC  |
| Data Size    | 5 bytes |
| Instructions | 3       |

```
      00 01 02 03 04 05 06 07  08 09 0A 0B 0C 0D 0E 0F
      -- -- -- -- -- -- -- --  -- -- -- -- -- -- -- --
09A0:                                      1D 28 80 23              .(.#
09B0: 00                                                .               
```

#### Opcodes

```
  0: 0x09AC [0x1D] PRINT_EVENT_MESSAGE(message_id=7278*)
    → "At the time, I was performing the dangerous duty of escorting people and supplies between Jeuno and Windurst."
  1: 0x09AF [0x23] WAIT_FOR_DIALOG_INTERACTION
  2: 0x09B0 [0x00] END_REQSTACK()
```

### Event 65535.14

#### Metadata

| Field        | Value   |
|--------------|---------|
| Entrypoint   | 0x09B1  |
| Data Size    | 5 bytes |
| Instructions | 3       |

```
      00 01 02 03 04 05 06 07  08 09 0A 0B 0C 0D 0E 0F
      -- -- -- -- -- -- -- --  -- -- -- -- -- -- -- --
09B0:    1D 29 80 23 00                                  .).#.          
```

#### Opcodes

```
  0: 0x09B1 [0x1D] PRINT_EVENT_MESSAGE(message_id=7279*)
    → "One day, a Mithran woman and her child slipped into our company."
  1: 0x09B4 [0x23] WAIT_FOR_DIALOG_INTERACTION
  2: 0x09B5 [0x00] END_REQSTACK()
```

### Event 65535.15

#### Metadata

| Field        | Value   |
|--------------|---------|
| Entrypoint   | 0x09B6  |
| Data Size    | 5 bytes |
| Instructions | 3       |

```
      00 01 02 03 04 05 06 07  08 09 0A 0B 0C 0D 0E 0F
      -- -- -- -- -- -- -- --  -- -- -- -- -- -- -- --
09B0:                   1D 2A  80 23 00                       .*.#.     
```

#### Opcodes

```
  0: 0x09B6 [0x1D] PRINT_EVENT_MESSAGE(message_id=7281*)
    → "However, things didn't go as planned. We were discovered by a party of Yagudo in the Meriphataud Mountains."
  1: 0x09B9 [0x23] WAIT_FOR_DIALOG_INTERACTION
  2: 0x09BA [0x00] END_REQSTACK()
```

### Event 65535.16

#### Metadata

| Field        | Value   |
|--------------|---------|
| Entrypoint   | 0x09BB  |
| Data Size    | 9 bytes |
| Instructions | 5       |

```
      00 01 02 03 04 05 06 07  08 09 0A 0B 0C 0D 0E 0F
      -- -- -- -- -- -- -- --  -- -- -- -- -- -- -- --
09B0:                                   1D 2B 80 23 1D             .+.#.
09C0: 2C 80 23 00                                       ,.#.            
```

#### Opcodes

```
  0: 0x09BB [0x1D] PRINT_EVENT_MESSAGE(message_id=7283*)
    → "The prison of Oztroja was a terrible place. All we could do was shiver in the biting cold."
  1: 0x09BE [0x23] WAIT_FOR_DIALOG_INTERACTION
  2: 0x09BF [0x1D] PRINT_EVENT_MESSAGE(message_id=7284*)
    → "At regular intervals, the Yagudo would come to drag one of us from the prison."
  3: 0x09C2 [0x23] WAIT_FOR_DIALOG_INTERACTION
  4: 0x09C3 [0x00] END_REQSTACK()
```

### Event 65535.17

#### Metadata

| Field        | Value   |
|--------------|---------|
| Entrypoint   | 0x09C4  |
| Data Size    | 5 bytes |
| Instructions | 3       |

```
      00 01 02 03 04 05 06 07  08 09 0A 0B 0C 0D 0E 0F
      -- -- -- -- -- -- -- --  -- -- -- -- -- -- -- --
09C0:             1D 2D 80 23  00                           .-.#.       
```

#### Opcodes

```
  0: 0x09C4 [0x1D] PRINT_EVENT_MESSAGE(message_id=7285*)
    → "Finally, the Chieftainness of the Fire Tribe was taken away, leaving her daughter behind. Only the two of us were left..."
  1: 0x09C7 [0x23] WAIT_FOR_DIALOG_INTERACTION
  2: 0x09C8 [0x00] END_REQSTACK()
```

### Event 65535.18

#### Metadata

| Field        | Value   |
|--------------|---------|
| Entrypoint   | 0x09C9  |
| Data Size    | 5 bytes |
| Instructions | 3       |

```
      00 01 02 03 04 05 06 07  08 09 0A 0B 0C 0D 0E 0F
      -- -- -- -- -- -- -- --  -- -- -- -- -- -- -- --
09C0:                             1D 2E 80 23 00                 ...#.  
```

#### Opcodes

```
  0: 0x09C9 [0x1D] PRINT_EVENT_MESSAGE(message_id=7286*)
    → "......"
  1: 0x09CC [0x23] WAIT_FOR_DIALOG_INTERACTION
  2: 0x09CD [0x00] END_REQSTACK()
```

### Event 65535.19

#### Metadata

| Field        | Value   |
|--------------|---------|
| Entrypoint   | 0x09CE  |
| Data Size    | 5 bytes |
| Instructions | 3       |

```
      00 01 02 03 04 05 06 07  08 09 0A 0B 0C 0D 0E 0F
      -- -- -- -- -- -- -- --  -- -- -- -- -- -- -- --
09C0:                                            1D 2F                ./
09D0: 80 23 00                                          .#.             
```

#### Opcodes

```
  0: 0x09CE [0x1D] PRINT_EVENT_MESSAGE(message_id=7287*)
    → "Not long after that, we were saved by the elite warriors stationed in the Meriphataud Mountains, led by Perih Vashai herself."
  1: 0x09D1 [0x23] WAIT_FOR_DIALOG_INTERACTION
  2: 0x09D2 [0x00] END_REQSTACK()
```

### Event 65535.20

#### Metadata

| Field        | Value   |
|--------------|---------|
| Entrypoint   | 0x09D3  |
| Data Size    | 5 bytes |
| Instructions | 3       |

```
      00 01 02 03 04 05 06 07  08 09 0A 0B 0C 0D 0E 0F
      -- -- -- -- -- -- -- --  -- -- -- -- -- -- -- --
09D0:          1D 30 80 23 00                              .0.#.        
```

#### Opcodes

```
  0: 0x09D3 [0x1D] PRINT_EVENT_MESSAGE(message_id=7288*)
    → "I took the child back to Jeuno, but she grew thinner by the day from misery and exhaustion."
  1: 0x09D6 [0x23] WAIT_FOR_DIALOG_INTERACTION
  2: 0x09D7 [0x00] END_REQSTACK()
```

### Event 65535.21

#### Metadata

| Field        | Value   |
|--------------|---------|
| Entrypoint   | 0x09D8  |
| Data Size    | 9 bytes |
| Instructions | 5       |

```
      00 01 02 03 04 05 06 07  08 09 0A 0B 0C 0D 0E 0F
      -- -- -- -- -- -- -- --  -- -- -- -- -- -- -- --
09D0:                          1D 31 80 23 1D 32 80 23          .1.#.2.#
09E0: 00                                                .               
```

#### Opcodes

```
  0: 0x09D8 [0x1D] PRINT_EVENT_MESSAGE(message_id=7289*)
    → "...Her body was interred in the Eldieme Necropolis, along with the remains of the other races who had died in the war."
  1: 0x09DB [0x23] WAIT_FOR_DIALOG_INTERACTION
  2: 0x09DC [0x1D] PRINT_EVENT_MESSAGE(message_id=7290*)
    → "The daughter of the sinner could not be buried in the lands of the Mithra..."
  3: 0x09DF [0x23] WAIT_FOR_DIALOG_INTERACTION
  4: 0x09E0 [0x00] END_REQSTACK()
```

### Event 10008

#### Metadata

| Field        | Value    |
|--------------|----------|
| Entrypoint   | 0x09E1   |
| Data Size    | 33 bytes |
| Instructions | 12       |

```
      00 01 02 03 04 05 06 07  08 09 0A 0B 0C 0D 0E 0F
      -- -- -- -- -- -- -- --  -- -- -- -- -- -- -- --
09E0:    1E F0 FF FF 7F 6F 70  29 08 4D 90 0F 01 02 1D   .....op).M.....
09F0: 33 80 23 1D 34 80 23 29  08 4D 90 0F 01 03 20 00  3.#.4.#).M.... .
0A00: 21 00                                             !.              
```

#### Opcodes

```
  0: 0x09E1 [0x1E] EventEntity looks at LocalPlayer and starts talking
  1: 0x09E6 [0x6F] WAIT_FRAME_DELAY: Yield until WaitTime reaches zero
  2: 0x09E7 [0x70] WAIT_ENTITY_RENDER_FLAG: Wait while EventEntity->Render.Flags3 bit 2 is set (cancel turn if not)
  3: 0x09E8 [0x29] REQ_SET_WAIT(priority=0x08, entity_id=Koh Lenbalalako (ID: 17797197/0x010F904D), tag_num=0x02)
  4: 0x09EF [0x1D] PRINT_EVENT_MESSAGE(message_id=7297*)
    → "Most of the old Mithra living near Windurst are of the southern Fire Tribe."
  5: 0x09F2 [0x23] WAIT_FOR_DIALOG_INTERACTION
  6: 0x09F3 [0x1D] PRINT_EVENT_MESSAGE(message_id=7298*)
    → "However, they would not harborrr the sinner out of pity. A sin must be atoned for, and this cannot be avoided."
  7: 0x09F6 [0x23] WAIT_FOR_DIALOG_INTERACTION
  8: 0x09F7 [0x29] REQ_SET_WAIT(priority=0x08, entity_id=Koh Lenbalalako (ID: 17797197/0x010F904D), tag_num=0x03)
  9: 0x09FE [0x20] SET_CLI_EVENT_UC_FLAG: Unlock player control
 10: 0x0A00 [0x21] END_EVENT
 11: 0x0A01 [0x00] END_REQSTACK()
```

### Event 10015

#### Metadata

| Field        | Value    |
|--------------|----------|
| Entrypoint   | 0x0A02   |
| Data Size    | 33 bytes |
| Instructions | 12       |

```
      00 01 02 03 04 05 06 07  08 09 0A 0B 0C 0D 0E 0F
      -- -- -- -- -- -- -- --  -- -- -- -- -- -- -- --
0A00:       1E F0 FF FF 7F 6F  70 29 08 4D 90 0F 01 02    .....op).M....
0A10: 1D 35 80 23 1D 36 80 23  29 08 4D 90 0F 01 03 20  .5.#.6.#).M.... 
0A20: 00 21 00                                          .!.             
```

#### Opcodes

```
  0: 0x0A02 [0x1E] EventEntity looks at LocalPlayer and starts talking
  1: 0x0A07 [0x6F] WAIT_FRAME_DELAY: Yield until WaitTime reaches zero
  2: 0x0A08 [0x70] WAIT_ENTITY_RENDER_FLAG: Wait while EventEntity->Render.Flags3 bit 2 is set (cancel turn if not)
  3: 0x0A09 [0x29] REQ_SET_WAIT(priority=0x08, entity_id=Koh Lenbalalako (ID: 17797197/0x010F904D), tag_num=0x02)
  4: 0x0A10 [0x1D] PRINT_EVENT_MESSAGE(message_id=7299*)
    → "It would seem the Mithran Tracker was not satisfied with the way things turned out."
  5: 0x0A13 [0x23] WAIT_FOR_DIALOG_INTERACTION
  6: 0x0A14 [0x1D] PRINT_EVENT_MESSAGE(message_id=7300*)
    → "I don't believe she can return home without first discovering the whereabouts of the Bow of Light."
  7: 0x0A17 [0x23] WAIT_FOR_DIALOG_INTERACTION
  8: 0x0A18 [0x29] REQ_SET_WAIT(priority=0x08, entity_id=Koh Lenbalalako (ID: 17797197/0x010F904D), tag_num=0x03)
  9: 0x0A1F [0x20] SET_CLI_EVENT_UC_FLAG: Unlock player control
 10: 0x0A21 [0x21] END_EVENT
 11: 0x0A22 [0x00] END_REQSTACK()
```

### Event 10009

#### Metadata

| Field        | Value      |
|--------------|------------|
| Entrypoint   | 0x0A23     |
| Data Size    | 1374 bytes |
| Instructions | 180        |

```
      00 01 02 03 04 05 06 07  08 09 0A 0B 0C 0D 0E 0F
      -- -- -- -- -- -- -- --  -- -- -- -- -- -- -- --
0A20:          42 46 01 5D 07  80 08 80 45 08 80 F8 FF     BF.]....E....
0A30: FF 7F F8 FF FF 7F 66 64  6F 31 07 80 1C 08 80 75  ......fdo1.....u
0A40: 00 09 80 75 01 38 0A 80  29 0B F0 FF FF 7F 1D 29  ...u.8..)......)
0A50: 0B F0 FF FF 7F 19 1E F0  FF FF 7F 6F 70 4E 00 4F  ...........opN.O
0A60: 90 0F 01 80 4F 90 0F 01  02 09 10 1E 80 00 84 0A  ....O...........
0A70: 45 0E 80 F0 FF FF 7F F0  FF FF 7F 73 31 33 32 07  E..........s132.
0A80: 80 01 B1 0A 02 09 10 13  80 00 A0 0A 45 0E 80 F0  ............E...
0A90: FF FF 7F F0 FF FF 7F 73  31 33 32 07 80 01 B1 0A  .......s132.....
0AA0: 45 0E 80 F0 FF FF 7F F0  FF FF 7F 73 30 33 36 07  E..........s036.
0AB0: 80 45 08 80 F8 FF FF 7F  F8 FF FF 7F 66 64 69 31  .E..........fdi1
0AC0: 07 80 29 0B 4D 90 0F 01  1D 27 0B 32 90 0F 01 05  ..).M....'.2....
0AD0: 1E 4F 90 0F 01 1C 01 80  4A F0 FF FF 7F 4F 90 0F  .O......J....O..
0AE0: 01 1C 01 80 02 09 10 1E  80 00 FE 0A 52 0E 80 F0  ............R...
0AF0: FF FF 7F F0 FF FF 7F 73  31 33 32 01 27 0B 02 09  .......s132.'...
0B00: 10 13 80 00 18 0B 52 0E  80 F0 FF FF 7F F0 FF FF  ......R.........
0B10: 7F 73 31 33 32 01 27 0B  52 0E 80 F0 FF FF 7F F0  .s132.'.R.......
0B20: FF FF 7F 73 30 33 36 45  0E 80 F0 FF FF 7F F0 FF  ...s036E........
0B30: FF 7F 73 30 33 37 07 80  27 0B 4F 90 0F 01 24 2B  ..s037..'.O...$+
0B40: 4F 90 0F 01 37 80 23 2A  0B 4F 90 0F 01 29 0B 4D  O...7.#*.O...).M
0B50: 90 0F 01 1E 45 08 80 F8  FF FF 7F F8 FF FF 7F 66  ....E..........f
0B60: 64 6F 31 07 80 1C 10 80  2A 0B 32 90 0F 01 52 0E  do1.....*.2...R.
0B70: 80 F0 FF FF 7F F0 FF FF  7F 73 30 33 37 29 0B 4F  .........s037).O
0B80: 90 0F 01 23 37 03 80 04  80 05 80 06 80 29 0B F0  ...#7........)..
0B90: FF FF 7F 18 5C 00 0B 80  5C 01 0B 80 5D 0C 80 0D  ....\...\...]...
0BA0: 80 1E 4F 90 0F 01 6F 70  4A F0 FF FF 7F 4F 90 0F  ..O...opJ....O..
0BB0: 01 6F 76 4F 90 0F 01 45  0E 80 F0 FF FF 7F F0 FF  .ovO...E........
0BC0: FF 7F 73 30 31 35 07 80  45 08 80 F8 FF FF 7F F8  ..s015..E.......
0BD0: FF FF 7F 66 64 69 31 07  80 1C 21 80 29 08 4F 90  ...fdi1...!.).O.
0BE0: 0F 01 0E 29 08 4F 90 0F  01 0F 1C 21 80 52 0E 80  ...).O.....!.R..
0BF0: F0 FF FF 7F F0 FF FF 7F  73 30 31 35 45 08 80 F0  ........s015E...
0C00: FF FF 7F F0 FF FF 7F 6F  76 6C 31 07 80 45 0E 80  .......ovl1..E..
0C10: F0 FF FF 7F F0 FF FF 7F  73 30 33 38 07 80 29 0B  ........s038..).
0C20: 4D 90 0F 01 1F 29 08 4F  90 0F 01 01 29 0B 4F 90  M....).O....).O.
0C30: 0F 01 28 29 08 4F 90 0F  01 02 29 08 4F 90 0F 01  ..().O....).O...
0C40: 04 29 0B 4D 90 0F 01 20  29 08 4F 90 0F 01 05 52  .).M... ).O....R
0C50: 0E 80 F0 FF FF 7F F0 FF  FF 7F 73 30 33 38 45 0E  ..........s038E.
0C60: 80 F0 FF FF 7F F0 FF FF  7F 73 30 33 39 07 80 4B  .........s039..K
0C70: 4D 90 0F 01 06 80 29 0B  4F 90 0F 01 29 6F 76 4D  M.....).O...)ovM
0C80: 90 0F 01 52 0E 80 F0 FF  FF 7F F0 FF FF 7F 73 30  ...R..........s0
0C90: 33 39 45 0E 80 F0 FF FF  7F F0 FF FF 7F 73 30 34  39E..........s04
0CA0: 30 07 80 29 0B 4D 90 0F  01 21 29 0B 4F 90 0F 01  0..).M...!).O...
0CB0: 2A 52 0E 80 F0 FF FF 7F  F0 FF FF 7F 73 30 34 30  *R..........s040
0CC0: 45 0E 80 F0 FF FF 7F F0  FF FF 7F 73 31 32 38 07  E..........s128.
0CD0: 80 1E 4D 90 0F 01 6F 70  29 0B 4D 90 0F 01 22 29  ..M...op).M...")
0CE0: 0B 4F 90 0F 01 2B 45 08  80 F8 FF FF 7F F8 FF FF  .O...+E.........
0CF0: 7F 66 64 6F 31 07 80 1C  10 80 52 0E 80 F0 FF FF  .fdo1.....R.....
0D00: 7F F0 FF FF 7F 73 31 32  38 34 38 80 77 39 80 0D  .....s12848.w9..
0D10: 80 1D 3A 80 23 27 0B 4E  90 0F 01 17 29 0B 4D 90  ..:.#'.N....).M.
0D20: 0F 01 23 2A 0B 4E 90 0F  01 27 0B 4E 90 0F 01 18  ..#*.N...'.N....
0D30: 29 0B 4D 90 0F 01 24 2A  0B 4E 90 0F 01 27 0B 4E  ).M...$*.N...'.N
0D40: 90 0F 01 19 29 0B 4F 90  0F 01 2C 2A 0B 4E 90 0F  ....).O...,*.N..
0D50: 01 27 0B 4E 90 0F 01 1A  29 0B 4D 90 0F 01 25 2A  .'.N....).M...%*
0D60: 0B 4E 90 0F 01 35 18 80  78 1C 21 80 4E 00 4D 90  .N...5..x.!.N.M.
0D70: 0F 01 4E 00 F0 FF FF 7F  80 F0 FF FF 7F 80 4D 90  ..N...........M.
0D80: 0F 01 37 03 80 04 80 05  80 06 80 1E F0 FF FF 7F  ..7.............
0D90: 6F 70 29 0B F0 FF FF 7F  18 29 0B 4F 90 0F 01 23  op)......).O...#
0DA0: 45 0E 80 F0 FF FF 7F F0  FF FF 7F 73 30 34 32 07  E..........s042.
0DB0: 80 45 08 80 F8 FF FF 7F  F8 FF FF 7F 66 64 69 31  .E..........fdi1
0DC0: 07 80 2B 4F 90 0F 01 3B  80 23 2B 4F 90 0F 01 3C  ..+O...;.#+O...<
0DD0: 80 23 52 0E 80 F0 FF FF  7F F0 FF FF 7F 73 30 34  .#R..........s04
0DE0: 32 45 0E 80 F0 FF FF 7F  F0 FF FF 7F 73 30 34 33  2E..........s043
0DF0: 07 80 1D 3D 80 23 52 0E  80 F0 FF FF 7F F0 FF FF  ...=.#R.........
0E00: 7F 73 30 34 33 45 0E 80  F0 FF FF 7F F0 FF FF 7F  .s043E..........
0E10: 73 30 33 38 07 80 4A 4D  90 0F 01 4F 90 0F 01 6F  s038..JM...O...o
0E20: 76 4D 90 0F 01 29 0B 4D  90 0F 01 26 29 08 4F 90  vM...).M...&).O.
0E30: 0F 01 01 29 0B 4F 90 0F  01 2D 29 08 4F 90 0F 01  ...).O...-).O...
0E40: 02 52 0E 80 F0 FF FF 7F  F0 FF FF 7F 73 30 33 38  .R..........s038
0E50: 45 0E 80 F0 FF FF 7F F0  FF FF 7F 73 30 34 34 07  E..........s044.
0E60: 80 29 08 4F 90 0F 01 04  6E F8 FF FF 7F 20 80 99  .).O....n.... ..
0E70: F8 FF FF 7F 29 0B 4D 90  0F 01 27 29 08 4F 90 0F  ....).M...').O..
0E80: 01 05 52 0E 80 F0 FF FF  7F F0 FF FF 7F 73 30 34  ..R..........s04
0E90: 34 45 0E 80 F0 FF FF 7F  F0 FF FF 7F 73 30 34 35  4E..........s045
0EA0: 07 80 27 0B 4F 90 0F 01  25 2B 4F 90 0F 01 3E 80  ..'.O...%+O...>.
0EB0: 23 2A 0B 4F 90 0F 01 52  0E 80 F0 FF FF 7F F0 FF  #*.O...R........
0EC0: FF 7F 73 30 34 35 45 0E  80 F0 FF FF 7F F0 FF FF  ..s045E.........
0ED0: 7F 73 31 32 36 07 80 27  0B 4F 90 0F 01 26 1C 3F  .s126..'.O...&.?
0EE0: 80 4A F0 FF FF 7F 4F 90  0F 01 79 00 4D 90 0F 01  .J....O...y.M...
0EF0: F0 FF FF 7F 29 0B 4D 90  0F 01 28 52 0E 80 F0 FF  ....).M...(R....
0F00: FF 7F F0 FF FF 7F 73 31  32 36 45 0E 80 F0 FF FF  ......s126E.....
0F10: 7F F0 FF FF 7F 73 31 32  37 07 80 4A F0 FF FF 7F  .....s127..J....
0F20: 4D 90 0F 01 29 0B 4D 90  0F 01 29 29 0B 4D 90 0F  M...).M...)).M..
0F30: 01 2A 5D 07 80 08 80 45  08 80 F8 FF FF 7F F8 FF  .*]....E........
0F40: FF 7F 66 64 6F 31 07 80  1C 08 80 52 0E 80 F0 FF  ..fdo1.....R....
0F50: FF 7F F0 FF FF 7F 73 31  32 37 5C 00 19 80 5C 01  ......s127\...\.
0F60: 19 80 5D 0C 80 0D 80 46  00 1C 08 80 45 08 80 F8  ..]....F....E...
0F70: FF FF 7F F8 FF FF 7F 66  64 69 31 07 80 20 00 21  .......fdi1.. .!
0F80: 00                                                .               
```

#### Opcodes

```
  0: 0x0A23 [0x42] SET_CLI_EVENT_CANCEL_DATA()
  1: 0x0A24 [0x46] CAMERA_CONTROL: Disable user control
  2: 0x0A26 [0x5D] SET_MUSIC_VOLUME(volume=0*, fade_time=200*)
  3: 0x0A2B [0x45] LOAD_SCHEDULED_TASK: Load scheduler "fdo1" with entities [EventEntity, EventEntity], work=[200*, 0*]
  4: 0x0A3C [0x1C] WAIT(200* ticks)
  5: 0x0A3F [0x75] LOAD_ROOM(Load indoor room, room=489*)
  6: 0x0A43 [0x75] LOAD_ROOM(No action)
  7: 0x0A45 [0x38] SET_CLIENT_EVENT_MODE(mode=19*)
  8: 0x0A48 [0x29] REQ_SET_WAIT(priority=0x0B, entity_id=LocalPlayer, tag_num=0x1D)
  9: 0x0A4F [0x29] REQ_SET_WAIT(priority=0x0B, entity_id=LocalPlayer, tag_num=0x19)
 10: 0x0A56 [0x1E] EventEntity looks at LocalPlayer and starts talking
 11: 0x0A5B [0x6F] WAIT_FRAME_DELAY: Yield until WaitTime reaches zero
 12: 0x0A5C [0x70] WAIT_ENTITY_RENDER_FLAG: Wait while EventEntity->Render.Flags3 bit 2 is set (cancel turn if not)
 13: 0x0A5D [0x4E] SET_ENTITY_HIDE_FLAG: Show Semih Lafihna (ID: 17797199/0x010F904F)
 14: 0x0A63 [0x80] LOAD_WAIT(entity=Semih Lafihna (ID: 17797199/0x010F904F))
 15: 0x0A68 [0x02] IF !(Work_Zone[9] == 3*) GOTO 0x0A84
 16: 0x0A70 [0x45] LOAD_SCHEDULED_TASK: Load scheduler "s132" with entities [LocalPlayer, LocalPlayer], work=[16*, 0*]
 17: 0x0A81 [0x01] GOTO 0x0AB1
 18: 0x0A84 [0x02] IF !(Work_Zone[9] == 8*) GOTO 0x0AA0
 19: 0x0A8C [0x45] LOAD_SCHEDULED_TASK: Load scheduler "s132" with entities [LocalPlayer, LocalPlayer], work=[16*, 0*]
 20: 0x0A9D [0x01] GOTO 0x0AB1
 21: 0x0AA0 [0x45] LOAD_SCHEDULED_TASK: Load scheduler "s036" with entities [LocalPlayer, LocalPlayer], work=[16*, 0*]

SUBROUTINE_0AB1:
 22: 0x0AB1 [0x45] LOAD_SCHEDULED_TASK: Load scheduler "fdi1" with entities [EventEntity, EventEntity], work=[200*, 0*]
 23: 0x0AC2 [0x29] REQ_SET_WAIT(priority=0x0B, entity_id=Koh Lenbalalako (ID: 17797197/0x010F904D), tag_num=0x1D)
 24: 0x0AC9 [0x27] REQ_SET(priority=0x0B, entity_id=Door:Blacksmiths' Guild (ID: 17797170/0x010F9032), tag_num=0x05)
 25: 0x0AD0 [0x1E] EventEntity looks at Semih Lafihna (ID: 17797199/0x010F904F) and starts talking
 26: 0x0AD5 [0x1C] WAIT(30* ticks)
 27: 0x0AD8 [0x4A] LocalPlayer looks at Semih Lafihna (ID: 17797199/0x010F904F)
 28: 0x0AE1 [0x1C] WAIT(30* ticks)
 29: 0x0AE4 [0x02] IF !(Work_Zone[9] == 3*) GOTO 0x0AFE
 30: 0x0AEC [0x52] END_LOAD_SCHEDULER: End scheduler "s132" with entities [LocalPlayer, LocalPlayer], work=16*
 31: 0x0AFB [0x01] GOTO 0x0B27
 32: 0x0AFE [0x02] IF !(Work_Zone[9] == 8*) GOTO 0x0B18
 33: 0x0B06 [0x52] END_LOAD_SCHEDULER: End scheduler "s132" with entities [LocalPlayer, LocalPlayer], work=16*
 34: 0x0B15 [0x01] GOTO 0x0B27
 35: 0x0B18 [0x52] END_LOAD_SCHEDULER: End scheduler "s036" with entities [LocalPlayer, LocalPlayer], work=16*

SUBROUTINE_0B27:
 36: 0x0B27 [0x45] LOAD_SCHEDULED_TASK: Load scheduler "s037" with entities [LocalPlayer, LocalPlayer], work=[16*, 0*]
 37: 0x0B38 [0x27] REQ_SET(priority=0x0B, entity_id=Semih Lafihna (ID: 17797199/0x010F904F), tag_num=0x24)
 38: 0x0B3F [0x2B] Semih Lafihna (ID: 17797199/0x010F904F) [7303*]:
    → "<Player>, what are you doing here? This is my prrroblem, and I'll thank you to keep your paws out of it!"
 39: 0x0B46 [0x23] WAIT_FOR_DIALOG_INTERACTION
 40: 0x0B47 [0x2A] GET_REQ_LEVEL(level=11, entity_id=Semih Lafihna (ID: 17797199/0x010F904F))
 41: 0x0B4D [0x29] REQ_SET_WAIT(priority=0x0B, entity_id=Koh Lenbalalako (ID: 17797197/0x010F904D), tag_num=0x1E)
 42: 0x0B54 [0x45] LOAD_SCHEDULED_TASK: Load scheduler "fdo1" with entities [EventEntity, EventEntity], work=[200*, 0*]
 43: 0x0B65 [0x1C] WAIT(60* ticks)
 44: 0x0B68 [0x2A] GET_REQ_LEVEL(level=11, entity_id=Door:Blacksmiths' Guild (ID: 17797170/0x010F9032))
 45: 0x0B6E [0x52] END_LOAD_SCHEDULER: End scheduler "s037" with entities [LocalPlayer, LocalPlayer], work=16*
 46: 0x0B7D [0x29] REQ_SET_WAIT(priority=0x0B, entity_id=Semih Lafihna (ID: 17797199/0x010F904F), tag_num=0x23)
 47: 0x0B84 [0x37] UPDATE_EVENT_POSITION_AND_DIR: x=-41.550*, z=29.493*, y=-15.805*, direction=14.4°*
 48: 0x0B8D [0x29] REQ_SET_WAIT(priority=0x0B, entity_id=LocalPlayer, tag_num=0x18)
 49: 0x0B94 [0x5C] MUSIC_CONTROL: Set Idle (Day) music to song 159*
 50: 0x0B98 [0x5C] MUSIC_CONTROL: Set Idle (Night) music to song 159*
 51: 0x0B9C [0x5D] SET_MUSIC_VOLUME(volume=127*, fade_time=1*)
 52: 0x0BA1 [0x1E] EventEntity looks at Semih Lafihna (ID: 17797199/0x010F904F) and starts talking
 53: 0x0BA6 [0x6F] WAIT_FRAME_DELAY: Yield until WaitTime reaches zero
 54: 0x0BA7 [0x70] WAIT_ENTITY_RENDER_FLAG: Wait while EventEntity->Render.Flags3 bit 2 is set (cancel turn if not)
 55: 0x0BA8 [0x4A] LocalPlayer looks at Semih Lafihna (ID: 17797199/0x010F904F)
 56: 0x0BB1 [0x6F] WAIT_FRAME_DELAY: Yield until WaitTime reaches zero
 57: 0x0BB2 [0x76] CHECK_ENTITY_RENDER_FLAGS: Wait until Semih Lafihna (ID: 17797199/0x010F904F) Render.Flags0 and Render.Flags3 conditions are met
 58: 0x0BB7 [0x45] LOAD_SCHEDULED_TASK: Load scheduler "s015" with entities [LocalPlayer, LocalPlayer], work=[16*, 0*]
 59: 0x0BC8 [0x45] LOAD_SCHEDULED_TASK: Load scheduler "fdi1" with entities [EventEntity, EventEntity], work=[200*, 0*]
 60: 0x0BD9 [0x1C] WAIT(100* ticks)
 61: 0x0BDC [0x29] REQ_SET_WAIT(priority=0x08, entity_id=Semih Lafihna (ID: 17797199/0x010F904F), tag_num=0x0E)
 62: 0x0BE3 [0x29] REQ_SET_WAIT(priority=0x08, entity_id=Semih Lafihna (ID: 17797199/0x010F904F), tag_num=0x0F)
 63: 0x0BEA [0x1C] WAIT(100* ticks)
 64: 0x0BED [0x52] END_LOAD_SCHEDULER: End scheduler "s015" with entities [LocalPlayer, LocalPlayer], work=16*
 65: 0x0BFC [0x45] LOAD_SCHEDULED_TASK: Load scheduler "ovl1" with entities [LocalPlayer, LocalPlayer], work=[200*, 0*]
 66: 0x0C0D [0x45] LOAD_SCHEDULED_TASK: Load scheduler "s038" with entities [LocalPlayer, LocalPlayer], work=[16*, 0*]
 67: 0x0C1E [0x29] REQ_SET_WAIT(priority=0x0B, entity_id=Koh Lenbalalako (ID: 17797197/0x010F904D), tag_num=0x1F)
 68: 0x0C25 [0x29] REQ_SET_WAIT(priority=0x08, entity_id=Semih Lafihna (ID: 17797199/0x010F904F), tag_num=0x01)
 69: 0x0C2C [0x29] REQ_SET_WAIT(priority=0x0B, entity_id=Semih Lafihna (ID: 17797199/0x010F904F), tag_num=0x28)
 70: 0x0C33 [0x29] REQ_SET_WAIT(priority=0x08, entity_id=Semih Lafihna (ID: 17797199/0x010F904F), tag_num=0x02)
 71: 0x0C3A [0x29] REQ_SET_WAIT(priority=0x08, entity_id=Semih Lafihna (ID: 17797199/0x010F904F), tag_num=0x04)
 72: 0x0C41 [0x29] REQ_SET_WAIT(priority=0x0B, entity_id=Koh Lenbalalako (ID: 17797197/0x010F904D), tag_num=0x20)
 73: 0x0C48 [0x29] REQ_SET_WAIT(priority=0x08, entity_id=Semih Lafihna (ID: 17797199/0x010F904F), tag_num=0x05)
 74: 0x0C4F [0x52] END_LOAD_SCHEDULER: End scheduler "s038" with entities [LocalPlayer, LocalPlayer], work=16*
 75: 0x0C5E [0x45] LOAD_SCHEDULED_TASK: Load scheduler "s039" with entities [LocalPlayer, LocalPlayer], work=[16*, 0*]
 76: 0x0C6F [0x4B] UPDATE_ENTITY_YAW(entity=Koh Lenbalalako (ID: 17797197/0x010F904D), yaw=0.9°*)
 77: 0x0C76 [0x29] REQ_SET_WAIT(priority=0x0B, entity_id=Semih Lafihna (ID: 17797199/0x010F904F), tag_num=0x29)
 78: 0x0C7D [0x6F] WAIT_FRAME_DELAY: Yield until WaitTime reaches zero
 79: 0x0C7E [0x76] CHECK_ENTITY_RENDER_FLAGS: Wait until Koh Lenbalalako (ID: 17797197/0x010F904D) Render.Flags0 and Render.Flags3 conditions are met
 80: 0x0C83 [0x52] END_LOAD_SCHEDULER: End scheduler "s039" with entities [LocalPlayer, LocalPlayer], work=16*
 81: 0x0C92 [0x45] LOAD_SCHEDULED_TASK: Load scheduler "s040" with entities [LocalPlayer, LocalPlayer], work=[16*, 0*]
 82: 0x0CA3 [0x29] REQ_SET_WAIT(priority=0x0B, entity_id=Koh Lenbalalako (ID: 17797197/0x010F904D), tag_num=0x21)
 83: 0x0CAA [0x29] REQ_SET_WAIT(priority=0x0B, entity_id=Semih Lafihna (ID: 17797199/0x010F904F), tag_num=0x2A)
 84: 0x0CB1 [0x52] END_LOAD_SCHEDULER: End scheduler "s040" with entities [LocalPlayer, LocalPlayer], work=16*
 85: 0x0CC0 [0x45] LOAD_SCHEDULED_TASK: Load scheduler "s128" with entities [LocalPlayer, LocalPlayer], work=[16*, 0*]
 86: 0x0CD1 [0x1E] EventEntity looks at Koh Lenbalalako (ID: 17797197/0x010F904D) and starts talking
 87: 0x0CD6 [0x6F] WAIT_FRAME_DELAY: Yield until WaitTime reaches zero
 88: 0x0CD7 [0x70] WAIT_ENTITY_RENDER_FLAG: Wait while EventEntity->Render.Flags3 bit 2 is set (cancel turn if not)
 89: 0x0CD8 [0x29] REQ_SET_WAIT(priority=0x0B, entity_id=Koh Lenbalalako (ID: 17797197/0x010F904D), tag_num=0x22)
 90: 0x0CDF [0x29] REQ_SET_WAIT(priority=0x0B, entity_id=Semih Lafihna (ID: 17797199/0x010F904F), tag_num=0x2B)
 91: 0x0CE6 [0x45] LOAD_SCHEDULED_TASK: Load scheduler "fdo1" with entities [EventEntity, EventEntity], work=[200*, 0*]
 92: 0x0CF7 [0x1C] WAIT(60* ticks)
 93: 0x0CFA [0x52] END_LOAD_SCHEDULER: End scheduler "s128" with entities [LocalPlayer, LocalPlayer], work=16*
 94: 0x0D09 [0x34] LOAD_UNLOAD_ZONE(zone_id=244*)
 95: 0x0D0C [0x77] SET_EVENT_TIME_WEATHER(hour=12*, weather=1*)
 96: 0x0D11 [0x1D] PRINT_EVENT_MESSAGE(message_id=7314*)
    → "You know the story of the company that was held captive in Castle Oztroja twenty years ago, and how the sinner and her child were with them?"
 97: 0x0D14 [0x23] WAIT_FOR_DIALOG_INTERACTION
 98: 0x0D15 [0x27] REQ_SET(priority=0x0B, entity_id=Shikaree M (ID: 17797198/0x010F904E), tag_num=0x17)
 99: 0x0D1C [0x29] REQ_SET_WAIT(priority=0x0B, entity_id=Koh Lenbalalako (ID: 17797197/0x010F904D), tag_num=0x23)
100: 0x0D23 [0x2A] GET_REQ_LEVEL(level=11, entity_id=Shikaree M (ID: 17797198/0x010F904E))
101: 0x0D29 [0x27] REQ_SET(priority=0x0B, entity_id=Shikaree M (ID: 17797198/0x010F904E), tag_num=0x18)
102: 0x0D30 [0x29] REQ_SET_WAIT(priority=0x0B, entity_id=Koh Lenbalalako (ID: 17797197/0x010F904D), tag_num=0x24)
103: 0x0D37 [0x2A] GET_REQ_LEVEL(level=11, entity_id=Shikaree M (ID: 17797198/0x010F904E))
104: 0x0D3D [0x27] REQ_SET(priority=0x0B, entity_id=Shikaree M (ID: 17797198/0x010F904E), tag_num=0x19)
105: 0x0D44 [0x29] REQ_SET_WAIT(priority=0x0B, entity_id=Semih Lafihna (ID: 17797199/0x010F904F), tag_num=0x2C)
106: 0x0D4B [0x2A] GET_REQ_LEVEL(level=11, entity_id=Shikaree M (ID: 17797198/0x010F904E))
107: 0x0D51 [0x27] REQ_SET(priority=0x0B, entity_id=Shikaree M (ID: 17797198/0x010F904E), tag_num=0x1A)
108: 0x0D58 [0x29] REQ_SET_WAIT(priority=0x0B, entity_id=Koh Lenbalalako (ID: 17797197/0x010F904D), tag_num=0x25)
109: 0x0D5F [0x2A] GET_REQ_LEVEL(level=11, entity_id=Shikaree M (ID: 17797198/0x010F904E))
110: 0x0D65 [0x35] LOAD_ZONE_NO_CLOSE(zone_id=249*)
111: 0x0D68 [0x78] ENABLE_GAME_TIMER_RESET_WEATHER()
112: 0x0D69 [0x1C] WAIT(100* ticks)
113: 0x0D6C [0x4E] SET_ENTITY_HIDE_FLAG: Show Koh Lenbalalako (ID: 17797197/0x010F904D)
114: 0x0D72 [0x4E] SET_ENTITY_HIDE_FLAG: Show LocalPlayer
115: 0x0D78 [0x80] LOAD_WAIT(entity=LocalPlayer)
116: 0x0D7D [0x80] LOAD_WAIT(entity=Koh Lenbalalako (ID: 17797197/0x010F904D))
117: 0x0D82 [0x37] UPDATE_EVENT_POSITION_AND_DIR: x=-41.550*, z=29.493*, y=-15.805*, direction=14.4°*
118: 0x0D8B [0x1E] EventEntity looks at LocalPlayer and starts talking
119: 0x0D90 [0x6F] WAIT_FRAME_DELAY: Yield until WaitTime reaches zero
120: 0x0D91 [0x70] WAIT_ENTITY_RENDER_FLAG: Wait while EventEntity->Render.Flags3 bit 2 is set (cancel turn if not)
121: 0x0D92 [0x29] REQ_SET_WAIT(priority=0x0B, entity_id=LocalPlayer, tag_num=0x18)
122: 0x0D99 [0x29] REQ_SET_WAIT(priority=0x0B, entity_id=Semih Lafihna (ID: 17797199/0x010F904F), tag_num=0x23)
123: 0x0DA0 [0x45] LOAD_SCHEDULED_TASK: Load scheduler "s042" with entities [LocalPlayer, LocalPlayer], work=[16*, 0*]
124: 0x0DB1 [0x45] LOAD_SCHEDULED_TASK: Load scheduler "fdi1" with entities [EventEntity, EventEntity], work=[200*, 0*]
125: 0x0DC2 [0x2B] Semih Lafihna (ID: 17797199/0x010F904F) [7319*]:
    → "Using my mother's earring to help the sinner...how can I forgive something like that?"
126: 0x0DC9 [0x23] WAIT_FOR_DIALOG_INTERACTION
127: 0x0DCA [0x2B] Semih Lafihna (ID: 17797199/0x010F904F) [7320*]:
    → "All of this was done for the Bow of Light carried by the sinner, rrright?"
128: 0x0DD1 [0x23] WAIT_FOR_DIALOG_INTERACTION
129: 0x0DD2 [0x52] END_LOAD_SCHEDULER: End scheduler "s042" with entities [LocalPlayer, LocalPlayer], work=16*
130: 0x0DE1 [0x45] LOAD_SCHEDULED_TASK: Load scheduler "s043" with entities [LocalPlayer, LocalPlayer], work=[16*, 0*]
131: 0x0DF2 [0x1D] PRINT_EVENT_MESSAGE(message_id=7321*)
    → "At this point, you wouldn't believe anything I had to say. What I can tell you is..."
132: 0x0DF5 [0x23] WAIT_FOR_DIALOG_INTERACTION
133: 0x0DF6 [0x52] END_LOAD_SCHEDULER: End scheduler "s043" with entities [LocalPlayer, LocalPlayer], work=16*
134: 0x0E05 [0x45] LOAD_SCHEDULED_TASK: Load scheduler "s038" with entities [LocalPlayer, LocalPlayer], work=[16*, 0*]
135: 0x0E16 [0x4A] Koh Lenbalalako (ID: 17797197/0x010F904D) looks at Semih Lafihna (ID: 17797199/0x010F904F)
136: 0x0E1F [0x6F] WAIT_FRAME_DELAY: Yield until WaitTime reaches zero
137: 0x0E20 [0x76] CHECK_ENTITY_RENDER_FLAGS: Wait until Koh Lenbalalako (ID: 17797197/0x010F904D) Render.Flags0 and Render.Flags3 conditions are met
138: 0x0E25 [0x29] REQ_SET_WAIT(priority=0x0B, entity_id=Koh Lenbalalako (ID: 17797197/0x010F904D), tag_num=0x26)
139: 0x0E2C [0x29] REQ_SET_WAIT(priority=0x08, entity_id=Semih Lafihna (ID: 17797199/0x010F904F), tag_num=0x01)
140: 0x0E33 [0x29] REQ_SET_WAIT(priority=0x0B, entity_id=Semih Lafihna (ID: 17797199/0x010F904F), tag_num=0x2D)
141: 0x0E3A [0x29] REQ_SET_WAIT(priority=0x08, entity_id=Semih Lafihna (ID: 17797199/0x010F904F), tag_num=0x02)
142: 0x0E41 [0x52] END_LOAD_SCHEDULER: End scheduler "s038" with entities [LocalPlayer, LocalPlayer], work=16*
143: 0x0E50 [0x45] LOAD_SCHEDULED_TASK: Load scheduler "s044" with entities [LocalPlayer, LocalPlayer], work=[16*, 0*]
144: 0x0E61 [0x29] REQ_SET_WAIT(priority=0x08, entity_id=Semih Lafihna (ID: 17797199/0x010F904F), tag_num=0x04)
145: 0x0E68 [0x6E] EventEntity uses emote 6*
146: 0x0E6F [0x99] Wait for EventEntity animation to complete
147: 0x0E74 [0x29] REQ_SET_WAIT(priority=0x0B, entity_id=Koh Lenbalalako (ID: 17797197/0x010F904D), tag_num=0x27)
148: 0x0E7B [0x29] REQ_SET_WAIT(priority=0x08, entity_id=Semih Lafihna (ID: 17797199/0x010F904F), tag_num=0x05)
149: 0x0E82 [0x52] END_LOAD_SCHEDULER: End scheduler "s044" with entities [LocalPlayer, LocalPlayer], work=16*
150: 0x0E91 [0x45] LOAD_SCHEDULED_TASK: Load scheduler "s045" with entities [LocalPlayer, LocalPlayer], work=[16*, 0*]
151: 0x0EA2 [0x27] REQ_SET(priority=0x0B, entity_id=Semih Lafihna (ID: 17797199/0x010F904F), tag_num=0x25)
152: 0x0EA9 [0x2B] Semih Lafihna (ID: 17797199/0x010F904F) [7325*]:
    → "I have no rrreal desire to see a mother who would leave me to travel to the Northlands, but since I have come this far, I will go. Both you and the chieftainness seem to wish it so."
153: 0x0EB0 [0x23] WAIT_FOR_DIALOG_INTERACTION
154: 0x0EB1 [0x2A] GET_REQ_LEVEL(level=11, entity_id=Semih Lafihna (ID: 17797199/0x010F904F))
155: 0x0EB7 [0x52] END_LOAD_SCHEDULER: End scheduler "s045" with entities [LocalPlayer, LocalPlayer], work=16*
156: 0x0EC6 [0x45] LOAD_SCHEDULED_TASK: Load scheduler "s126" with entities [LocalPlayer, LocalPlayer], work=[16*, 0*]
157: 0x0ED7 [0x27] REQ_SET(priority=0x0B, entity_id=Semih Lafihna (ID: 17797199/0x010F904F), tag_num=0x26)
158: 0x0EDE [0x1C] WAIT(150* ticks)
159: 0x0EE1 [0x4A] LocalPlayer looks at Semih Lafihna (ID: 17797199/0x010F904F)
160: 0x0EEA [0x79] Koh Lenbalalako (ID: 17797197/0x010F904D) looks at LocalPlayer (Basic look)
161: 0x0EF4 [0x29] REQ_SET_WAIT(priority=0x0B, entity_id=Koh Lenbalalako (ID: 17797197/0x010F904D), tag_num=0x28)
162: 0x0EFB [0x52] END_LOAD_SCHEDULER: End scheduler "s126" with entities [LocalPlayer, LocalPlayer], work=16*
163: 0x0F0A [0x45] LOAD_SCHEDULED_TASK: Load scheduler "s127" with entities [LocalPlayer, LocalPlayer], work=[16*, 0*]
164: 0x0F1B [0x4A] LocalPlayer looks at Koh Lenbalalako (ID: 17797197/0x010F904D)
165: 0x0F24 [0x29] REQ_SET_WAIT(priority=0x0B, entity_id=Koh Lenbalalako (ID: 17797197/0x010F904D), tag_num=0x29)
166: 0x0F2B [0x29] REQ_SET_WAIT(priority=0x0B, entity_id=Koh Lenbalalako (ID: 17797197/0x010F904D), tag_num=0x2A)
167: 0x0F32 [0x5D] SET_MUSIC_VOLUME(volume=0*, fade_time=200*)
168: 0x0F37 [0x45] LOAD_SCHEDULED_TASK: Load scheduler "fdo1" with entities [EventEntity, EventEntity], work=[200*, 0*]
169: 0x0F48 [0x1C] WAIT(200* ticks)
170: 0x0F4B [0x52] END_LOAD_SCHEDULER: End scheduler "s127" with entities [LocalPlayer, LocalPlayer], work=16*
171: 0x0F5A [0x5C] MUSIC_CONTROL: Set Idle (Day) music to song 105*
172: 0x0F5E [0x5C] MUSIC_CONTROL: Set Idle (Night) music to song 105*
173: 0x0F62 [0x5D] SET_MUSIC_VOLUME(volume=127*, fade_time=1*)
174: 0x0F67 [0x46] CAMERA_CONTROL: Restore default settings
175: 0x0F69 [0x1C] WAIT(200* ticks)
176: 0x0F6C [0x45] LOAD_SCHEDULED_TASK: Load scheduler "fdi1" with entities [EventEntity, EventEntity], work=[200*, 0*]
177: 0x0F7D [0x20] SET_CLI_EVENT_UC_FLAG: Unlock player control
178: 0x0F7F [0x21] END_EVENT
179: 0x0F80 [0x00] END_REQSTACK()
```

### Event 65535.22

#### Metadata

| Field        | Value   |
|--------------|---------|
| Entrypoint   | 0x0F81  |
| Data Size    | 9 bytes |
| Instructions | 5       |

```
      00 01 02 03 04 05 06 07  08 09 0A 0B 0C 0D 0E 0F
      -- -- -- -- -- -- -- --  -- -- -- -- -- -- -- --
0F80:    1D 40 80 23 1D 41 80  23 00                     .@.#.A.#.      
```

#### Opcodes

```
  0: 0x0F81 [0x1D] PRINT_EVENT_MESSAGE(message_id=7301*)
    → "You must be... You are the one who is in the employ of Chieftainness Perih Vashai?"
  1: 0x0F84 [0x23] WAIT_FOR_DIALOG_INTERACTION
  2: 0x0F85 [0x1D] PRINT_EVENT_MESSAGE(message_id=7302*)
    → "The Mithran Tracker appears to be widening her search for information on the Bow of Light."
  3: 0x0F88 [0x23] WAIT_FOR_DIALOG_INTERACTION
  4: 0x0F89 [0x00] END_REQSTACK()
```

### Event 65535.23

#### Metadata

| Field        | Value   |
|--------------|---------|
