# 17797224 - Ripapa

## Common Data

| Field            | Value            |
|------------------|------------------|
| Zone             | Mhaura (ID: 249) |
| Block Size       | 8296 bytes       |
| Total Events     | 65               |
| References Count | 172              |

## List of Events

| Event ID                   | Entrypoint   |   Size |   Instructions |
|----------------------------|--------------|--------|----------------|
| [65535](#event-65535)      | 0x0000       |      1 |              1 |
| [65535.1](#event-655351)   | 0x0001       |     16 |              2 |
| [65535.2](#event-655352)   | 0x0011       |     22 |              4 |
| [65535.3](#event-655353)   | 0x0027       |     16 |              2 |
| [65535.4](#event-655354)   | 0x0037       |     14 |              2 |
| [65535.5](#event-655355)   | 0x0045       |     16 |              2 |
| [65535.6](#event-655356)   | 0x0055       |     14 |              2 |
| [65535.7](#event-655357)   | 0x0063       |     16 |              2 |
| [65535.8](#event-655358)   | 0x0073       |     14 |              2 |
| [65535.9](#event-655359)   | 0x0081       |     16 |              2 |
| [65535.10](#event-6553510) | 0x0091       |     14 |              2 |
| [65535.11](#event-6553511) | 0x009F       |     16 |              2 |
| [65535.12](#event-6553512) | 0x00AF       |     14 |              2 |
| [65535.13](#event-6553513) | 0x00BD       |     16 |              2 |
| [65535.14](#event-6553514) | 0x00CD       |     14 |              2 |
| [65535.15](#event-6553515) | 0x00DB       |     16 |              2 |
| [65535.16](#event-6553516) | 0x00EB       |     14 |              2 |
| [65535.17](#event-6553517) | 0x00F9       |     16 |              2 |
| [65535.18](#event-6553518) | 0x0109       |     14 |              2 |
| [65535.19](#event-6553519) | 0x0117       |     16 |              2 |
| [65535.20](#event-6553520) | 0x0127       |     22 |              4 |
| [65535.21](#event-6553521) | 0x013D       |     16 |              2 |
| [65535.22](#event-6553522) | 0x014D       |     22 |              4 |
| [65535.23](#event-6553523) | 0x0163       |     16 |              2 |
| [65535.24](#event-6553524) | 0x0173       |     14 |              2 |
| [65535.25](#event-6553525) | 0x0181       |     16 |              2 |
| [65535.26](#event-6553526) | 0x0191       |     14 |              2 |
| [65535.27](#event-6553527) | 0x019F       |     16 |              2 |
| [65535.28](#event-6553528) | 0x01AF       |     14 |              2 |
| [65535.29](#event-6553529) | 0x01BD       |     16 |              2 |
| [65535.30](#event-6553530) | 0x01CD       |     14 |              2 |
| [65535.31](#event-6553531) | 0x01DB       |     16 |              2 |
| [65535.32](#event-6553532) | 0x01EB       |     22 |              4 |
| [65535.33](#event-6553533) | 0x0201       |      9 |              3 |
| [10020](#event-10020)      | 0x020A       |    232 |             56 |
| [10016](#event-10016)      | 0x02F2       |    890 |            214 |
| [10017](#event-10017)      | 0x066C       |     33 |             12 |
| [10024](#event-10024)      | 0x068D       |     33 |             12 |
| [10018](#event-10018)      | 0x06AE       |      1 |              1 |
| [10019](#event-10019)      | 0x06AF       |   4780 |            674 |
| [65535.34](#event-6553534) | 0x195B       |      1 |              1 |
| [65535.35](#event-6553535) | 0x195C       |     14 |              4 |
| [65535.36](#event-6553536) | 0x196A       |      5 |              3 |
| [65535.37](#event-6553537) | 0x196F       |      5 |              3 |
| [65535.38](#event-6553538) | 0x1974       |      5 |              3 |
| [65535.39](#event-6553539) | 0x1979       |      5 |              3 |
| [65535.40](#event-6553540) | 0x197E       |      1 |              1 |
| [65535.41](#event-6553541) | 0x197F       |      5 |              3 |
| [65535.42](#event-6553542) | 0x1984       |     48 |             15 |
| [65535.43](#event-6553543) | 0x19B4       |    360 |             59 |
| [65535.44](#event-6553544) | 0x1B1C       |     48 |             15 |
| [65535.45](#event-6553545) | 0x1B4C       |     48 |             15 |
| [10022](#event-10022)      | 0x1B7C       |     70 |             21 |
| [10023](#event-10023)      | 0x1BC2       |     48 |             15 |
| [10025](#event-10025)      | 0x1BF2       |      1 |              1 |
| [65535.46](#event-6553546) | 0x1BF3       |     23 |              7 |
| [65535.47](#event-6553547) | 0x1C0A       |     55 |             13 |
| [65535.48](#event-6553548) | 0x1C41       |     19 |              5 |
| [65535.49](#event-6553549) | 0x1C54       |     37 |              9 |
| [10026](#event-10026)      | 0x1C79       |      1 |              1 |
| [10030](#event-10030)      | 0x1C7A       |      1 |              1 |
| [10028](#event-10028)      | 0x1C7B       |      1 |              1 |
| [65535.50](#event-6553550) | 0x1C7C       |     19 |              5 |
| [10029](#event-10029)      | 0x1C8F       |      1 |              1 |
| [65535.51](#event-6553551) | 0x1C90       |     19 |              5 |

## DAT References (imed_data)

|   Index | Hex Value   |   Dec Value |
|---------|-------------|-------------|
|       0 | 0x0028      |          40 |
|       1 | 0x003C      |          60 |
|       2 | 0x002A      |          42 |
|       3 | 0x0029      |          41 |
|       4 | 0x0001      |           1 |
|       5 | 0x1CF4      |        7412 |
|       6 | 0x1CF5      |        7413 |
|       7 | 0x1CF6      |        7414 |
|       8 | 0x0002      |           2 |
|       9 | 0x1D09      |        7433 |
|      10 | 0x1D0A      |        7434 |
|      11 | 0x0003      |           3 |
|      12 | 0x0006      |           6 |
|      13 | 0x1D11      |        7441 |
|      14 | 0x1D12      |        7442 |
|      15 | 0x1D13      |        7443 |
|      16 | 0x1CB6      |        7350 |
|      17 | 0x1CF7      |        7415 |
|      18 | 0x1CF8      |        7416 |
|      19 | 0x0000      |           0 |
|      20 | 0x1CF9      |        7417 |
|      21 | 0x1D50      |        7504 |
|      22 | 0x1CFA      |        7418 |
|      23 | 0x1D0B      |        7435 |
|      24 | 0x1D0C      |        7436 |
|      25 | 0x1D0D      |        7437 |
|      26 | 0x1D0E      |        7438 |
|      27 | 0x1D15      |        7445 |
|      28 | 0x1D16      |        7446 |
|      29 | 0x1D17      |        7447 |
|      30 | 0x1D18      |        7448 |
|      31 | 0x1D19      |        7449 |
|      32 | 0x1CB9      |        7353 |
|      33 | 0x1D4A      |        7498 |
|      34 | 0x1CBA      |        7354 |
|      35 | 0x1CBB      |        7355 |
|      36 | 0x1CBC      |        7356 |
|      37 | 0x1D4B      |        7499 |
|      38 | 0x1D4C      |        7500 |
|      39 | 0x1CBD      |        7357 |
|      40 | 0x1CBE      |        7358 |
|      41 | 0x1D4D      |        7501 |
|      42 | 0x1CBF      |        7359 |
|      43 | 0x1CC0      |        7360 |
|      44 | 0x1CC1      |        7361 |
|      45 | 0x1CC2      |        7362 |
|      46 | 0x1CC3      |        7363 |
|      47 | 0x1CC4      |        7364 |
|      48 | 0x1D4E      |        7502 |
|      49 | 0x1D4F      |        7503 |
|      50 | 0x1CC5      |        7365 |
|      51 | 0x1CC6      |        7366 |
|      52 | 0x1CC7      |        7367 |
|      53 | 0x1CC8      |        7368 |
|      54 | 0x1D21      |        7457 |
|      55 | 0x1D22      |        7458 |
|      56 | 0x00C8      |         200 |
|      57 | 0x0004      |           4 |
|      58 | 0x4454      |       17492 |
|      59 | 0x33BA      |       13242 |
|      60 | 0x34F9      |       13561 |
|      61 | 0x0013      |          19 |
|      62 | 0x1CCC      |        7372 |
|      63 | 0x00F9      |         249 |
|      64 | 0x1CCD      |        7373 |
|      65 | 0x0005      |           5 |
|      66 | 0x0008      |           8 |
|      67 | 0x1CCE      |        7374 |
|      68 | 0x0080      |         128 |
|      69 | 0x0064      |         100 |
|      70 | 0x00D4      |         212 |
|      71 | 0x00C9      |         201 |
|      72 | 0x0032      |          50 |
|      73 | 0x1CCF      |        7375 |
|      74 | 0x001E      |          30 |
|      75 | 0x00CB      |         203 |
|      76 | 0x000C      |          12 |
|      77 | 0x000D      |          13 |
|      78 | 0x04B7      |        1207 |
|      79 | 0x00E7      |         231 |
|      80 | 0xFFFD2373  |  4294779763 |
|      81 | 0x1AE19     |      110105 |
|      82 | 0x05E5      |        1509 |
|      83 | 0x006B      |         107 |
|      84 | 0x007F      |         127 |
|      85 | 0x1CE5      |        7397 |
|      86 | 0x1CE6      |        7398 |
|      87 | 0x1CE7      |        7399 |
|      88 | 0x441E      |       17438 |
|      89 | 0x33BC      |       13244 |
|      90 | 0x34FB      |       13563 |
|      91 | 0x00D1      |         209 |
|      92 | 0x0009      |           9 |
|      93 | 0x04B5      |        1205 |
|      94 | 0x00EC      |         236 |
|      95 | 0x80D3      |       32979 |
|      96 | 0xFFFF6077  |  4294926455 |
|      97 | 0x0CC1      |        3265 |
|      98 | 0x0098      |         152 |
|      99 | 0x447B      |       17531 |
|     100 | 0x33BD      |       13245 |
|     101 | 0x34FC      |       13564 |
|     102 | 0x00CA      |         202 |
|     103 | 0x000F      |          15 |
|     104 | 0x04B6      |        1206 |
|     105 | 0x73D3      |       29651 |
|     106 | 0xD847      |       55367 |
|     107 | 0xFFFFC2D6  |  4294951638 |
|     108 | 0x0679      |        1657 |
|     109 | 0x0069      |         105 |
|     110 | 0x0050      |          80 |
|     111 | 0x0104      |         260 |
|     112 | 0x1D1E      |        7454 |
|     113 | 0x1D1F      |        7455 |
|     114 | 0x1D20      |        7456 |
|     115 | 0x1D1A      |        7450 |
|     116 | 0x1D1B      |        7451 |
|     117 | 0x1D1C      |        7452 |
|     118 | 0x1CD3      |        7379 |
|     119 | 0x1CD4      |        7380 |
|     120 | 0x1CD5      |        7381 |
|     121 | 0x1CD0      |        7376 |
|     122 | 0x1CD1      |        7377 |
|     123 | 0x1CD2      |        7378 |
|     124 | 0x1D1D      |        7453 |
|     125 | 0x1CD6      |        7382 |
|     126 | 0x00B4      |         180 |
|     127 | 0x1CD7      |        7383 |
|     128 | 0x1CD8      |        7384 |
|     129 | 0x1CD9      |        7385 |
|     130 | 0x1CDA      |        7386 |
|     131 | 0x1CDB      |        7387 |
|     132 | 0x1CDC      |        7388 |
|     133 | 0x1CDD      |        7389 |
|     134 | 0x1CDE      |        7390 |
|     135 | 0x00A0      |         160 |
|     136 | 0x1CDF      |        7391 |
|     137 | 0x1CE0      |        7392 |
|     138 | 0x1CE1      |        7393 |
|     139 | 0x0099      |         153 |
|     140 | 0x1CE2      |        7394 |
|     141 | 0x1CE3      |        7395 |
|     142 | 0x1CE4      |        7396 |
|     143 | 0x83F7      |       33783 |
|     144 | 0xFFFF5FA4  |  4294926244 |
|     145 | 0x1CE9      |        7401 |
|     146 | 0x1CEB      |        7403 |
|     147 | 0x1CED      |        7405 |
|     148 | 0x1CF0      |        7408 |
|     149 | 0x1CFD      |        7421 |
|     150 | 0x1CFB      |        7419 |
|     151 | 0x1CFC      |        7420 |
|     152 | 0x007B      |         123 |
|     153 | 0x1D04      |        7428 |
|     154 | 0x1D05      |        7429 |
|     155 | 0x1D06      |        7430 |
|     156 | 0x1D07      |        7431 |
|     157 | 0x1D08      |        7432 |
|     158 | 0x0078      |         120 |
|     159 | 0x1D0F      |        7439 |
|     160 | 0x1D10      |        7440 |
|     161 | 0x1D14      |        7444 |
|     162 | 0x1D29      |        7465 |
|     163 | 0x1D2A      |        7466 |
|     164 | 0x1D2D      |        7469 |
|     165 | 0x1D2E      |        7470 |
|     166 | 0x1D2F      |        7471 |
|     167 | 0x1D31      |        7473 |
|     168 | 0x1D35      |        7477 |
|     169 | 0x1D36      |        7478 |
|     170 | 0x1D44      |        7492 |
|     171 | 0x1D47      |        7495 |

## String References

- **7350**: Owzie-wowzie! Don't make me talk. I hurt all over!
- **7353**: Owzie-wowzie! Don't make me talk. I hurt all over!
- **7354**: Hey! You're that famous adventurer, <Player>!
- **7355**: Yippee! It must be destiny that brought us together!
- **7356**: Let me introduce myself. I am from the Rhinostery in Windurst. I do research on various living things.
- **7357**: And I'm the besty-westy they've got! I've been looking into phenomena at a certain place.
- **7358**: I can't talk about it too loudly, but have you ever seen one of those huge crystals? They're found all over the world, far into the wilderness, and deep down in dungeons...
- **7359**: From those crystals, a strangey-wangey power is constantly pouring forth. Our research team had been investigating the unusual emanations when...
- **7360**: Well, take a look at this!
- **7361**: As a result of our research, we finally succeeded in awakening the crystals!
- **7362**: Our theory on what lay dormant inside the crystals was proven to be rightaru on the money! However, they didn't appreciate being woken up, and attacked us.
- **7363**: Why do they so despise talking with us that they would rather fight? And what on Vana'diel would happen if someone were to defeat them?
- **7364**: I'm sure that you could do it! Will you help us out with our research?
- **7365**: Take up the challenge? [Bring it on!/Ah, no, thanks...]
- **7366**: Wonderful! Here, take this $3. But be warned--only a person who carries one can enter the crystal.
- **7367**: This $3 will awaken the giant crystal that is found [in Ifrit's Cauldron/in the Quicksand Caves/in the Den of Rancor/in Cape Teriggan/in Fei'Yin/in The Boyahda Tree].
- **7368**: Without it, you won't be getting inside no matter how sneaky-weaky you are! Oh, and if you want to take some friends with you, they also have to get $6 from me. Okey-dokey?
- **7372**: Is it true? You really defeated a prime avatar!?
- **7373**: ...I see. The prime avatar said that to you? I wonder what it could mean.
- **7375**: Y-you, you're...!?
- **7383**: What do you desire? [$5./$6./$1./$2./Gil./Nothing (a pact with the avatar).]
- **7385**: You want $5? [Yes./Wait!]
- **7386**: You want $6? [Yes./Wait!]
- **7387**: You want $1? [Yes./Wait!]
- **7388**: You want $2? [Yes./Wait!]
- **7389**: Gil is what you truly want? [Yes./Wait!]
- **7390**: Are you sure? [Yes./Wait!]
- **7392**: Bring me... Power... Higher... Deeper... ...... Stronger...
- **7397**: Uh? Huh? I went all spacey-wacey for a moment there...
- **7398**: Um, excuse me, but who were you again? Was I speaking with you? What were we talking about?
- **7399**: Did I already tell you I'm a researcher from the Rhinostery in Windurst?
- **7401**: Owzie-wowzie! Don't make me talk. I hurt all over!
- **7403**: Oh, it's Ildy-Goldy!
- **7405**: Ah, yes, I've asked a veteran adventurer to look into that for me, but [he/she] hasn't come back yet.
- **7408**: No, it's nothing like that... I guess I have been kinda tired lately, though...
- **7412**: Ildy-Goldy is extremely-wemely proficient in hand-to-hand combat, something very unusual among we Tarutaru. He's always high on the list when researchers are looking for a Rhinostery adventurer to accompany them to the wild lands.
- **7413**: With his skill, he's likely to defeat the avatar that slumbers within the protocrystal.
- **7414**: Please make your way to the Quicksand Caves of the Eastern Altepa Desert and bring the $5 into contact with the crystal.
- **7415**: ...By the way... You probably want to assist Ildy-Goldy with his experiment, but have you ever thought of doing your own investigation into the protocrystals?
- **7416**: Do you want to do your own investigation? [Yes, I thirst for knowledge!/Um, not really...]
- **7417**: Well, then. First, let me introduce myself.
- **7418**: I am a researcher from the Rhinostery in Windurst. Rhinostery researchers study all kinds of plants and animals in every corner of Vana'diel.
- **7419**: You lost the $1!?
- **7420**: What a spacey-wacey individual... Well, I guess I'll give you a new one.
- **7421**: Welcome back. Ildy-Goldy returned a little while before. He's been waiting for you.
- **7428**: Urrrrgh...
- **7429**: Ah, excuse me! I need your help!
- **7430**: I just had a run-in with the beastmaster regarded as Professor Shantotto's prize student. That rogue wrested the improved tuning fork of ice from me and took off!
- **7431**: I have absolutaruly no obligation to hand over that incredibly difficult-to-make tuning fork to someone so uncooperative towards the Rhinostery's experiment!
- **7432**: I beg of you! Please go to Fei'Yin and get back the improved tuning fork of ice! Take this $1 for your troubles.
- **7433**: I just had a run-in with the beastmaster regarded as Professor Shantotto's prize student. That rogue wrested the improved tuning fork of ice from me and took off!
- **7434**: Please chase after that knave and take back the improved tuning fork of ice!
- **7435**: ...What's that you say? You'll help me get back the improved tuning fork but you also want to investigate the protocrystal in Fei'Yin?
- **7436**: Investigate the crystal in Fei'Yin? [Yes./No.]
- **7437**: ...Well then, allow me to introduce myself...
- **7438**: I am a researcher from the Rhinostery in Windurst. Rhinostery researchers study all kinds of plants and animals in every corner of Vana'diel.
- **7439**: The improved tuning fork was used by that rougue...?
- **7440**: But it didn't work properly? Ahahaha, that's justice for you!
- **7441**: ...Oh dear Goddess... Something terrible has happened. An adventurer just collapsed in front of me and hasn't regained consciousness.
- **7442**: When he collapsed a cutesy-wutesy creature glowing with blue energy leaped out towards the north.
- **7443**: Would the adventurer's condition be the fault of that blue-glowing pixie? It must be that creature called "Carbuncle" I've been hearing rumors about.
- **7444**: Please take this. North of here...there is a protocrystal hidden within the Boyahda Tree. Maybe the source of this malady lies there...?
- **7445**: ...Well, I must regain my focus and continue with my work...
- **7446**: Um, I'm looking for an adventurer to investigate a protocrystal in this area.
- **7447**: Investigate? [Sure./Not right now...]
- **7448**: Well, then. I should start by introducing myself...
- **7449**: I am a researcher from the Rhinostery in Windurst. Rhinostery researchers study all kinds of plants and animals in every corner of Vana'diel.
- **7457**: What? You want another $3?
- **7458**: Oh, all right... But be careful-wareful with this one! These things don't grow on star trees, you know.
- **7465**: No no no no no! That crazy-wazy contraption won't provide us with any useful data!
- **7466**: Listen, muscle-hussle brain. Science is not about winning or spinning, life or strife, even or Steven! It's a more delicate subjectaru!
- **7469**: No no no no no! Even if they use that half-rate spork, it'll take a tip-top summoner to defeat the prime avatar!
- **7470**: Listen up. The fandangled $1 won't make it any easier for you to downright defeat the monster inside the crystal. Sure, it'll lower the power of the prime avatar to around $3, but it will do the same to you! And on top of that, you'll only be able to summon that itty-bitty blue bugger, Carbuncle!
- **7471**: And to make things worse, nobody-buddy else can enter the crystal with you! You'll be battling one-on-one, man-to-man, Taru-et-Taru!
- **7473**: Hmmm... You do have a point there... I guess one round with a prime avatar wouldn't hurtaru.
- **7477**: Well, you asked for it! Take this $1 and ring it near one of those giant crystals. The prime avatar won't be slap-happy to be woken up, and you'll have to deal with its wrath.
- **7478**: I guess because you are helping us check out this new tuning fork, I can use my mighty-minty magic to warp you near the giant crystal in [Ifrit's Cauldron/the Quicksand Caves/the Den of Rancor/Cape Teriggan/Fei'Yin/the Boyahda Tree]. When you're ready, just show my companion the $1.
- **7492**: Hmmm... Just as I thoughtaru. The prime avatar that you fought with this spunky-junky tuning fork was nothing but a fake. Researching real avatars with real tuning forks is how real researchers do real research in the real world!
- **7495**: I don't think you'll get much out of it, but if you want to go get your buttaru kicked by the prime avatar again, all you have to do is ring another $1 near a giant crystal.
- **7498**: Hey! You're that famous adventurer, <Player>!
- **7499**: Maybe you can help us outaru!
- **7500**: Let me introduce myself. I am from the Rhinostery in Windurst. I do research on various living things.
- **7501**: You already-weddy know about the super-giant crystals, rightaru?
- **7502**: Why do these avatars so despise talking with us that they would rather fight? And what on Vana'diel would happen if someone were to defeat them?
- **7503**: You were able to handle one all by yourself. You should have no problem defeating one with your buddy-wuddies. You'll help us out, right?
- **7504**: Ahem, now let me introduce myself...

## Events

### Event 65535

#### Metadata

| Field        | Value   |
|--------------|---------|
| Entrypoint   | 0x0000  |
| Data Size    | 1 bytes |
| Instructions | 1       |

```
      00 01 02 03 04 05 06 07  08 09 0A 0B 0C 0D 0E 0F
      -- -- -- -- -- -- -- --  -- -- -- -- -- -- -- --
0000: 00                                                .               
```

#### Opcodes

```
  0: 0x0000 [0x00] END_REQSTACK()
```

### Event 65535.1

#### Metadata

| Field        | Value    |
|--------------|----------|
| Entrypoint   | 0x0001   |
| Data Size    | 16 bytes |
| Instructions | 2        |

```
      00 01 02 03 04 05 06 07  08 09 0A 0B 0C 0D 0E 0F
      -- -- -- -- -- -- -- --  -- -- -- -- -- -- -- --
0000:    66 00 80 F8 FF FF 7F  F8 FF FF 7F 74 6C 6B 30   f..........tlk0
0010: 00                                                .               
```

#### Opcodes

```
  0: 0x0001 [0x66] LOAD_EXT_SCHEDULER_MAIN: Load scheduler "tlk0" with entities [EventEntity, EventEntity], work=40*
  1: 0x0010 [0x00] END_REQSTACK()
```

### Event 65535.2

#### Metadata

| Field        | Value    |
|--------------|----------|
| Entrypoint   | 0x0011   |
| Data Size    | 22 bytes |
| Instructions | 4        |

```
      00 01 02 03 04 05 06 07  08 09 0A 0B 0C 0D 0E 0F
      -- -- -- -- -- -- -- --  -- -- -- -- -- -- -- --
0010:    53 F8 FF FF 7F F8 FF  FF 7F 74 6C 6B 30 5E 69   S........tlk0^i
0020: 64 6C 30 1C 01 80 00                              dl0....         
```

#### Opcodes

```
  0: 0x0011 [0x53] WAIT_SCHEDULER_TASK: Wait for scheduler "tlk0" with entities [EventEntity, EventEntity]
  1: 0x001E [0x5E] EventEntity goes idle (kills current action) (animation: "idl0")
  2: 0x0023 [0x1C] WAIT(60* ticks)
  3: 0x0026 [0x00] END_REQSTACK()
```

### Event 65535.3

#### Metadata

| Field        | Value    |
|--------------|----------|
| Entrypoint   | 0x0027   |
| Data Size    | 16 bytes |
| Instructions | 2        |

```
      00 01 02 03 04 05 06 07  08 09 0A 0B 0C 0D 0E 0F
      -- -- -- -- -- -- -- --  -- -- -- -- -- -- -- --
0020:                      66  00 80 F8 FF FF 7F F8 FF         f........
0030: FF 7F 74 68 6B 31 00                              ..thk1.         
```

#### Opcodes

```
  0: 0x0027 [0x66] LOAD_EXT_SCHEDULER_MAIN: Load scheduler "thk1" with entities [EventEntity, EventEntity], work=40*
  1: 0x0036 [0x00] END_REQSTACK()
```

### Event 65535.4

#### Metadata

| Field        | Value    |
|--------------|----------|
| Entrypoint   | 0x0037   |
| Data Size    | 14 bytes |
| Instructions | 2        |

```
      00 01 02 03 04 05 06 07  08 09 0A 0B 0C 0D 0E 0F
      -- -- -- -- -- -- -- --  -- -- -- -- -- -- -- --
0030:                      53  F8 FF FF 7F F8 FF FF 7F         S........
0040: 74 68 6B 31 00                                    thk1.           
```

#### Opcodes

```
  0: 0x0037 [0x53] WAIT_SCHEDULER_TASK: Wait for scheduler "thk1" with entities [EventEntity, EventEntity]
  1: 0x0044 [0x00] END_REQSTACK()
```

### Event 65535.5

#### Metadata

| Field        | Value    |
|--------------|----------|
| Entrypoint   | 0x0045   |
| Data Size    | 16 bytes |
| Instructions | 2        |

```
      00 01 02 03 04 05 06 07  08 09 0A 0B 0C 0D 0E 0F
      -- -- -- -- -- -- -- --  -- -- -- -- -- -- -- --
0040:                66 00 80  F8 FF FF 7F F8 FF FF 7F       f..........
0050: 74 68 6B 32 00                                    thk2.           
```

#### Opcodes

```
  0: 0x0045 [0x66] LOAD_EXT_SCHEDULER_MAIN: Load scheduler "thk2" with entities [EventEntity, EventEntity], work=40*
  1: 0x0054 [0x00] END_REQSTACK()
```

### Event 65535.6

#### Metadata

| Field        | Value    |
|--------------|----------|
| Entrypoint   | 0x0055   |
| Data Size    | 14 bytes |
| Instructions | 2        |

```
      00 01 02 03 04 05 06 07  08 09 0A 0B 0C 0D 0E 0F
      -- -- -- -- -- -- -- --  -- -- -- -- -- -- -- --
0050:                53 F8 FF  FF 7F F8 FF FF 7F 74 68       S........th
0060: 6B 32 00                                          k2.             
```

#### Opcodes

```
  0: 0x0055 [0x53] WAIT_SCHEDULER_TASK: Wait for scheduler "thk2" with entities [EventEntity, EventEntity]
  1: 0x0062 [0x00] END_REQSTACK()
```

### Event 65535.7

#### Metadata

| Field        | Value    |
|--------------|----------|
| Entrypoint   | 0x0063   |
| Data Size    | 16 bytes |
| Instructions | 2        |

```
      00 01 02 03 04 05 06 07  08 09 0A 0B 0C 0D 0E 0F
      -- -- -- -- -- -- -- --  -- -- -- -- -- -- -- --
0060:          66 00 80 F8 FF  FF 7F F8 FF FF 7F 70 6F     f..........po
0070: 69 30 00                                          i0.             
```

#### Opcodes

```
  0: 0x0063 [0x66] LOAD_EXT_SCHEDULER_MAIN: Load scheduler "poi0" with entities [EventEntity, EventEntity], work=40*
  1: 0x0072 [0x00] END_REQSTACK()
```

### Event 65535.8

#### Metadata

| Field        | Value    |
|--------------|----------|
| Entrypoint   | 0x0073   |
| Data Size    | 14 bytes |
| Instructions | 2        |

```
      00 01 02 03 04 05 06 07  08 09 0A 0B 0C 0D 0E 0F
      -- -- -- -- -- -- -- --  -- -- -- -- -- -- -- --
0070:          53 F8 FF FF 7F  F8 FF FF 7F 70 6F 69 30     S........poi0
0080: 00                                                .               
```

#### Opcodes

```
  0: 0x0073 [0x53] WAIT_SCHEDULER_TASK: Wait for scheduler "poi0" with entities [EventEntity, EventEntity]
  1: 0x0080 [0x00] END_REQSTACK()
```

### Event 65535.9

#### Metadata

| Field        | Value    |
|--------------|----------|
| Entrypoint   | 0x0081   |
| Data Size    | 16 bytes |
| Instructions | 2        |

```
      00 01 02 03 04 05 06 07  08 09 0A 0B 0C 0D 0E 0F
      -- -- -- -- -- -- -- --  -- -- -- -- -- -- -- --
0080:    66 00 80 F8 FF FF 7F  F8 FF FF 7F 69 72 6F 30   f..........iro0
0090: 00                                                .               
```

#### Opcodes

```
  0: 0x0081 [0x66] LOAD_EXT_SCHEDULER_MAIN: Load scheduler "iro0" with entities [EventEntity, EventEntity], work=40*
  1: 0x0090 [0x00] END_REQSTACK()
```

### Event 65535.10

#### Metadata

| Field        | Value    |
|--------------|----------|
| Entrypoint   | 0x0091   |
| Data Size    | 14 bytes |
| Instructions | 2        |

```
      00 01 02 03 04 05 06 07  08 09 0A 0B 0C 0D 0E 0F
      -- -- -- -- -- -- -- --  -- -- -- -- -- -- -- --
0090:    53 F8 FF FF 7F F8 FF  FF 7F 69 72 6F 30 00      S........iro0. 
```

#### Opcodes

```
  0: 0x0091 [0x53] WAIT_SCHEDULER_TASK: Wait for scheduler "iro0" with entities [EventEntity, EventEntity]
  1: 0x009E [0x00] END_REQSTACK()
```

### Event 65535.11

#### Metadata

| Field        | Value    |
|--------------|----------|
| Entrypoint   | 0x009F   |
| Data Size    | 16 bytes |
| Instructions | 2        |

```
      00 01 02 03 04 05 06 07  08 09 0A 0B 0C 0D 0E 0F
      -- -- -- -- -- -- -- --  -- -- -- -- -- -- -- --
0090:                                               66                 f
00A0: 00 80 F8 FF FF 7F F8 FF  FF 7F 64 69 73 30 00     ..........dis0. 
```

#### Opcodes

```
  0: 0x009F [0x66] LOAD_EXT_SCHEDULER_MAIN: Load scheduler "dis0" with entities [EventEntity, EventEntity], work=40*
  1: 0x00AE [0x00] END_REQSTACK()
```

### Event 65535.12

#### Metadata

| Field        | Value    |
|--------------|----------|
| Entrypoint   | 0x00AF   |
| Data Size    | 14 bytes |
| Instructions | 2        |

```
      00 01 02 03 04 05 06 07  08 09 0A 0B 0C 0D 0E 0F
      -- -- -- -- -- -- -- --  -- -- -- -- -- -- -- --
00A0:                                               53                 S
00B0: F8 FF FF 7F F8 FF FF 7F  64 69 73 30 00           ........dis0.   
```

#### Opcodes

```
  0: 0x00AF [0x53] WAIT_SCHEDULER_TASK: Wait for scheduler "dis0" with entities [EventEntity, EventEntity]
  1: 0x00BC [0x00] END_REQSTACK()
```

### Event 65535.13

#### Metadata

| Field        | Value    |
|--------------|----------|
| Entrypoint   | 0x00BD   |
| Data Size    | 16 bytes |
| Instructions | 2        |

```
      00 01 02 03 04 05 06 07  08 09 0A 0B 0C 0D 0E 0F
      -- -- -- -- -- -- -- --  -- -- -- -- -- -- -- --
00B0:                                         66 02 80               f..
00C0: F8 FF FF 7F F8 FF FF 7F  74 65 68 30 00           ........teh0.   
```

#### Opcodes

```
  0: 0x00BD [0x66] LOAD_EXT_SCHEDULER_MAIN: Load scheduler "teh0" with entities [EventEntity, EventEntity], work=42*
  1: 0x00CC [0x00] END_REQSTACK()
```

### Event 65535.14

#### Metadata

| Field        | Value    |
|--------------|----------|
| Entrypoint   | 0x00CD   |
| Data Size    | 14 bytes |
| Instructions | 2        |

```
      00 01 02 03 04 05 06 07  08 09 0A 0B 0C 0D 0E 0F
      -- -- -- -- -- -- -- --  -- -- -- -- -- -- -- --
00C0:                                         53 F8 FF               S..
00D0: FF 7F F8 FF FF 7F 74 65  68 30 00                 ......teh0.     
```

#### Opcodes

```
  0: 0x00CD [0x53] WAIT_SCHEDULER_TASK: Wait for scheduler "teh0" with entities [EventEntity, EventEntity]
  1: 0x00DA [0x00] END_REQSTACK()
```

### Event 65535.15

#### Metadata

| Field        | Value    |
|--------------|----------|
| Entrypoint   | 0x00DB   |
| Data Size    | 16 bytes |
| Instructions | 2        |

```
      00 01 02 03 04 05 06 07  08 09 0A 0B 0C 0D 0E 0F
      -- -- -- -- -- -- -- --  -- -- -- -- -- -- -- --
00D0:                                   66 02 80 F8 FF             f....
00E0: FF 7F F8 FF FF 7F 74 65  68 31 00                 ......teh1.     
```

#### Opcodes

```
  0: 0x00DB [0x66] LOAD_EXT_SCHEDULER_MAIN: Load scheduler "teh1" with entities [EventEntity, EventEntity], work=42*
  1: 0x00EA [0x00] END_REQSTACK()
```

### Event 65535.16

#### Metadata

| Field        | Value    |
|--------------|----------|
| Entrypoint   | 0x00EB   |
| Data Size    | 14 bytes |
| Instructions | 2        |

```
      00 01 02 03 04 05 06 07  08 09 0A 0B 0C 0D 0E 0F
      -- -- -- -- -- -- -- --  -- -- -- -- -- -- -- --
00E0:                                   53 F8 FF FF 7F             S....
00F0: F8 FF FF 7F 74 65 68 31  00                       ....teh1.       
```

#### Opcodes

```
  0: 0x00EB [0x53] WAIT_SCHEDULER_TASK: Wait for scheduler "teh1" with entities [EventEntity, EventEntity]
  1: 0x00F8 [0x00] END_REQSTACK()
```

### Event 65535.17

#### Metadata

| Field        | Value    |
|--------------|----------|
| Entrypoint   | 0x00F9   |
| Data Size    | 16 bytes |
| Instructions | 2        |

```
      00 01 02 03 04 05 06 07  08 09 0A 0B 0C 0D 0E 0F
      -- -- -- -- -- -- -- --  -- -- -- -- -- -- -- --
00F0:                             66 03 80 F8 FF FF 7F           f......
0100: F8 FF FF 7F 73 68 6B 30  00                       ....shk0.       
```

#### Opcodes

```
  0: 0x00F9 [0x66] LOAD_EXT_SCHEDULER_MAIN: Load scheduler "shk0" with entities [EventEntity, EventEntity], work=41*
  1: 0x0108 [0x00] END_REQSTACK()
```

### Event 65535.18

#### Metadata

| Field        | Value    |
|--------------|----------|
| Entrypoint   | 0x0109   |
| Data Size    | 14 bytes |
| Instructions | 2        |

```
      00 01 02 03 04 05 06 07  08 09 0A 0B 0C 0D 0E 0F
      -- -- -- -- -- -- -- --  -- -- -- -- -- -- -- --
0100:                             53 F8 FF FF 7F F8 FF           S......
0110: FF 7F 73 68 6B 30 00                              ..shk0.         
```

#### Opcodes

```
  0: 0x0109 [0x53] WAIT_SCHEDULER_TASK: Wait for scheduler "shk0" with entities [EventEntity, EventEntity]
  1: 0x0116 [0x00] END_REQSTACK()
```

### Event 65535.19

#### Metadata

| Field        | Value    |
|--------------|----------|
| Entrypoint   | 0x0117   |
| Data Size    | 16 bytes |
| Instructions | 2        |

```
      00 01 02 03 04 05 06 07  08 09 0A 0B 0C 0D 0E 0F
      -- -- -- -- -- -- -- --  -- -- -- -- -- -- -- --
0110:                      66  00 80 F8 FF FF 7F F8 FF         f........
0120: FF 7F 7A 69 74 30 00                              ..zit0.         
```

#### Opcodes

```
  0: 0x0117 [0x66] LOAD_EXT_SCHEDULER_MAIN: Load scheduler "zit0" with entities [EventEntity, EventEntity], work=40*
  1: 0x0126 [0x00] END_REQSTACK()
```

### Event 65535.20

#### Metadata

| Field        | Value    |
|--------------|----------|
| Entrypoint   | 0x0127   |
| Data Size    | 22 bytes |
| Instructions | 4        |

```
      00 01 02 03 04 05 06 07  08 09 0A 0B 0C 0D 0E 0F
      -- -- -- -- -- -- -- --  -- -- -- -- -- -- -- --
0120:                      53  F8 FF FF 7F F8 FF FF 7F         S........
0130: 7A 69 74 30 5E 69 64 6C  30 1C 01 80 00           zit0^idl0....   
```

#### Opcodes

```
  0: 0x0127 [0x53] WAIT_SCHEDULER_TASK: Wait for scheduler "zit0" with entities [EventEntity, EventEntity]
  1: 0x0134 [0x5E] EventEntity goes idle (kills current action) (animation: "idl0")
  2: 0x0139 [0x1C] WAIT(60* ticks)
  3: 0x013C [0x00] END_REQSTACK()
```

### Event 65535.21

#### Metadata

| Field        | Value    |
|--------------|----------|
| Entrypoint   | 0x013D   |
| Data Size    | 16 bytes |
| Instructions | 2        |

```
      00 01 02 03 04 05 06 07  08 09 0A 0B 0C 0D 0E 0F
      -- -- -- -- -- -- -- --  -- -- -- -- -- -- -- --
0130:                                         66 00 80               f..
0140: F8 FF FF 7F F8 FF FF 7F  67 6B 72 30 00           ........gkr0.   
```

#### Opcodes

```
  0: 0x013D [0x66] LOAD_EXT_SCHEDULER_MAIN: Load scheduler "gkr0" with entities [EventEntity, EventEntity], work=40*
  1: 0x014C [0x00] END_REQSTACK()
```

### Event 65535.22

#### Metadata

| Field        | Value    |
|--------------|----------|
| Entrypoint   | 0x014D   |
| Data Size    | 22 bytes |
| Instructions | 4        |

```
      00 01 02 03 04 05 06 07  08 09 0A 0B 0C 0D 0E 0F
      -- -- -- -- -- -- -- --  -- -- -- -- -- -- -- --
0140:                                         53 F8 FF               S..
0150: FF 7F F8 FF FF 7F 67 6B  72 30 5E 69 64 6C 30 1C  ......gkr0^idl0.
0160: 01 80 00                                          ...             
```

#### Opcodes

```
  0: 0x014D [0x53] WAIT_SCHEDULER_TASK: Wait for scheduler "gkr0" with entities [EventEntity, EventEntity]
  1: 0x015A [0x5E] EventEntity goes idle (kills current action) (animation: "idl0")
  2: 0x015F [0x1C] WAIT(60* ticks)
  3: 0x0162 [0x00] END_REQSTACK()
```

### Event 65535.23

#### Metadata

| Field        | Value    |
|--------------|----------|
| Entrypoint   | 0x0163   |
| Data Size    | 16 bytes |
| Instructions | 2        |

```
      00 01 02 03 04 05 06 07  08 09 0A 0B 0C 0D 0E 0F
      -- -- -- -- -- -- -- --  -- -- -- -- -- -- -- --
0160:          66 02 80 F8 FF  FF 7F F8 FF FF 7F 6D 73     f..........ms
0170: 75 30 00                                          u0.             
```

#### Opcodes

```
  0: 0x0163 [0x66] LOAD_EXT_SCHEDULER_MAIN: Load scheduler "msu0" with entities [EventEntity, EventEntity], work=42*
  1: 0x0172 [0x00] END_REQSTACK()
```

### Event 65535.24

#### Metadata

| Field        | Value    |
|--------------|----------|
| Entrypoint   | 0x0173   |
| Data Size    | 14 bytes |
| Instructions | 2        |

```
      00 01 02 03 04 05 06 07  08 09 0A 0B 0C 0D 0E 0F
      -- -- -- -- -- -- -- --  -- -- -- -- -- -- -- --
0170:          53 F8 FF FF 7F  F8 FF FF 7F 6D 73 75 30     S........msu0
0180: 00                                                .               
```

#### Opcodes

```
  0: 0x0173 [0x53] WAIT_SCHEDULER_TASK: Wait for scheduler "msu0" with entities [EventEntity, EventEntity]
  1: 0x0180 [0x00] END_REQSTACK()
```

### Event 65535.25

#### Metadata

| Field        | Value    |
|--------------|----------|
| Entrypoint   | 0x0181   |
| Data Size    | 16 bytes |
| Instructions | 2        |

```
      00 01 02 03 04 05 06 07  08 09 0A 0B 0C 0D 0E 0F
      -- -- -- -- -- -- -- --  -- -- -- -- -- -- -- --
0180:    66 02 80 F8 FF FF 7F  F8 FF FF 7F 6D 73 75 31   f..........msu1
0190: 00                                                .               
```

#### Opcodes

```
  0: 0x0181 [0x66] LOAD_EXT_SCHEDULER_MAIN: Load scheduler "msu1" with entities [EventEntity, EventEntity], work=42*
  1: 0x0190 [0x00] END_REQSTACK()
```

### Event 65535.26

#### Metadata

| Field        | Value    |
|--------------|----------|
| Entrypoint   | 0x0191   |
| Data Size    | 14 bytes |
| Instructions | 2        |

```
      00 01 02 03 04 05 06 07  08 09 0A 0B 0C 0D 0E 0F
      -- -- -- -- -- -- -- --  -- -- -- -- -- -- -- --
0190:    53 F8 FF FF 7F F8 FF  FF 7F 6D 73 75 31 00      S........msu1. 
```

#### Opcodes

```
  0: 0x0191 [0x53] WAIT_SCHEDULER_TASK: Wait for scheduler "msu1" with entities [EventEntity, EventEntity]
  1: 0x019E [0x00] END_REQSTACK()
```

### Event 65535.27

#### Metadata

| Field        | Value    |
|--------------|----------|
| Entrypoint   | 0x019F   |
| Data Size    | 16 bytes |
| Instructions | 2        |

```
      00 01 02 03 04 05 06 07  08 09 0A 0B 0C 0D 0E 0F
      -- -- -- -- -- -- -- --  -- -- -- -- -- -- -- --
0190:                                               66                 f
01A0: 00 80 F8 FF FF 7F F8 FF  FF 7F 73 79 75 30 00     ..........syu0. 
```

#### Opcodes

```
  0: 0x019F [0x66] LOAD_EXT_SCHEDULER_MAIN: Load scheduler "syu0" with entities [EventEntity, EventEntity], work=40*
  1: 0x01AE [0x00] END_REQSTACK()
```

### Event 65535.28

#### Metadata

| Field        | Value    |
|--------------|----------|
| Entrypoint   | 0x01AF   |
| Data Size    | 14 bytes |
| Instructions | 2        |

```
      00 01 02 03 04 05 06 07  08 09 0A 0B 0C 0D 0E 0F
      -- -- -- -- -- -- -- --  -- -- -- -- -- -- -- --
01A0:                                               53                 S
01B0: F8 FF FF 7F F8 FF FF 7F  73 79 75 30 00           ........syu0.   
```

#### Opcodes

```
  0: 0x01AF [0x53] WAIT_SCHEDULER_TASK: Wait for scheduler "syu0" with entities [EventEntity, EventEntity]
  1: 0x01BC [0x00] END_REQSTACK()
```

### Event 65535.29

#### Metadata

| Field        | Value    |
|--------------|----------|
| Entrypoint   | 0x01BD   |
| Data Size    | 16 bytes |
| Instructions | 2        |

```
      00 01 02 03 04 05 06 07  08 09 0A 0B 0C 0D 0E 0F
      -- -- -- -- -- -- -- --  -- -- -- -- -- -- -- --
01B0:                                         66 00 80               f..
01C0: F8 FF FF 7F F8 FF FF 7F  70 61 73 30 00           ........pas0.   
```

#### Opcodes

```
  0: 0x01BD [0x66] LOAD_EXT_SCHEDULER_MAIN: Load scheduler "pas0" with entities [EventEntity, EventEntity], work=40*
  1: 0x01CC [0x00] END_REQSTACK()
```

### Event 65535.30

#### Metadata

| Field        | Value    |
|--------------|----------|
| Entrypoint   | 0x01CD   |
| Data Size    | 14 bytes |
| Instructions | 2        |

```
      00 01 02 03 04 05 06 07  08 09 0A 0B 0C 0D 0E 0F
      -- -- -- -- -- -- -- --  -- -- -- -- -- -- -- --
01C0:                                         53 F8 FF               S..
01D0: FF 7F F8 FF FF 7F 70 61  73 30 00                 ......pas0.     
```

#### Opcodes

```
  0: 0x01CD [0x53] WAIT_SCHEDULER_TASK: Wait for scheduler "pas0" with entities [EventEntity, EventEntity]
  1: 0x01DA [0x00] END_REQSTACK()
```

### Event 65535.31

#### Metadata

| Field        | Value    |
|--------------|----------|
| Entrypoint   | 0x01DB   |
| Data Size    | 16 bytes |
| Instructions | 2        |

```
      00 01 02 03 04 05 06 07  08 09 0A 0B 0C 0D 0E 0F
      -- -- -- -- -- -- -- --  -- -- -- -- -- -- -- --
01D0:                                   66 02 80 F8 FF             f....
01E0: FF 7F F8 FF FF 7F 62 69  6B 30 00                 ......bik0.     
```

#### Opcodes

```
  0: 0x01DB [0x66] LOAD_EXT_SCHEDULER_MAIN: Load scheduler "bik0" with entities [EventEntity, EventEntity], work=42*
  1: 0x01EA [0x00] END_REQSTACK()
```

### Event 65535.32

#### Metadata

| Field        | Value    |
|--------------|----------|
| Entrypoint   | 0x01EB   |
| Data Size    | 22 bytes |
| Instructions | 4        |

```
      00 01 02 03 04 05 06 07  08 09 0A 0B 0C 0D 0E 0F
      -- -- -- -- -- -- -- --  -- -- -- -- -- -- -- --
01E0:                                   53 F8 FF FF 7F             S....
01F0: F8 FF FF 7F 62 69 6B 30  5E 69 64 6C 30 1C 01 80  ....bik0^idl0...
0200: 00                                                .               
```

#### Opcodes

```
  0: 0x01EB [0x53] WAIT_SCHEDULER_TASK: Wait for scheduler "bik0" with entities [EventEntity, EventEntity]
  1: 0x01F8 [0x5E] EventEntity goes idle (kills current action) (animation: "idl0")
  2: 0x01FD [0x1C] WAIT(60* ticks)
  3: 0x0200 [0x00] END_REQSTACK()
```

### Event 65535.33

#### Metadata

| Field        | Value   |
|--------------|---------|
| Entrypoint   | 0x0201  |
| Data Size    | 9 bytes |
| Instructions | 3       |

```
      00 01 02 03 04 05 06 07  08 09 0A 0B 0C 0D 0E 0F
      -- -- -- -- -- -- -- --  -- -- -- -- -- -- -- --
0200:    5E 69 64 6C 30 1C 01  80 00                     ^idl0....      
```

#### Opcodes

```
  0: 0x0201 [0x5E] EventEntity goes idle (kills current action) (animation: "idl0")
  1: 0x0206 [0x1C] WAIT(60* ticks)
  2: 0x0209 [0x00] END_REQSTACK()
```

### Event 10020

#### Metadata

| Field        | Value     |
|--------------|-----------|
| Entrypoint   | 0x020A    |
| Data Size    | 232 bytes |
| Instructions | 56        |

```
      00 01 02 03 04 05 06 07  08 09 0A 0B 0C 0D 0E 0F
      -- -- -- -- -- -- -- --  -- -- -- -- -- -- -- --
0200:                                02 08 10 04 80 00            ......
0210: 52 02 1E F0 FF FF 7F 6F  70 29 0B 68 90 0F 01 03  R......op).h....
0220: 1D 05 80 23 29 0B 68 90  0F 01 04 29 0B 68 90 0F  ...#).h....).h..
0230: 01 05 1D 06 80 23 29 0B  68 90 0F 01 06 29 0B 68  .....#).h....).h
0240: 90 0F 01 01 1D 07 80 23  29 0B 68 90 0F 01 02 01  .......#).h.....
0250: EE 02 02 08 10 08 80 00  88 02 1E F0 FF FF 7F 6F  ...............o
0260: 70 29 0B 68 90 0F 01 03  1D 09 80 23 29 0B 68 90  p).h.......#).h.
0270: 0F 01 04 29 0B 68 90 0F  01 05 1D 0A 80 23 29 0B  ...).h.......#).
0280: 68 90 0F 01 06 01 EE 02  02 08 10 0B 80 00 CE 02  h...............
0290: 1E F0 FF FF 7F 6F 70 6E  F8 FF FF 7F 0C 80 99 F8  .....opn........
02A0: FF FF 7F 1D 0D 80 23 29  0B 68 90 0F 01 03 1D 0E  ......#).h......
02B0: 80 23 29 0B 68 90 0F 01  04 29 0B 68 90 0F 01 05  .#).h....).h....
02C0: 1D 0F 80 23 29 0B 68 90  0F 01 06 01 EE 02 29 0B  ...#).h.......).
02D0: 68 90 0F 01 17 1D 10 80  23 29 0B 68 90 0F 01 18  h.......#).h....
02E0: 29 0B 68 90 0F 01 19 29  0B 68 90 0F 01 1A 20 00  ).h....).h.... .
02F0: 21 00                                             !.              
```

#### Opcodes

```
  0: 0x020A [0x02] IF !(Work_Zone[8] == 1*) GOTO 0x0252
  1: 0x0212 [0x1E] EventEntity looks at LocalPlayer and starts talking
  2: 0x0217 [0x6F] WAIT_FRAME_DELAY: Yield until WaitTime reaches zero
  3: 0x0218 [0x70] WAIT_ENTITY_RENDER_FLAG: Wait while EventEntity->Render.Flags3 bit 2 is set (cancel turn if not)
  4: 0x0219 [0x29] REQ_SET_WAIT(priority=0x0B, entity_id=Ripapa (ID: 17797224/0x010F9068), tag_num=0x03)
  5: 0x0220 [0x1D] PRINT_EVENT_MESSAGE(message_id=7412*)
    → "Ildy-Goldy is extremely-wemely proficient in hand-to-hand combat, something very unusual among we Tarutaru. He's always high on the list when researchers are looking for a Rhinostery adventurer to accompany them to the wild lands."
  6: 0x0223 [0x23] WAIT_FOR_DIALOG_INTERACTION
  7: 0x0224 [0x29] REQ_SET_WAIT(priority=0x0B, entity_id=Ripapa (ID: 17797224/0x010F9068), tag_num=0x04)
  8: 0x022B [0x29] REQ_SET_WAIT(priority=0x0B, entity_id=Ripapa (ID: 17797224/0x010F9068), tag_num=0x05)
  9: 0x0232 [0x1D] PRINT_EVENT_MESSAGE(message_id=7413*)
    → "With his skill, he's likely to defeat the avatar that slumbers within the protocrystal."
 10: 0x0235 [0x23] WAIT_FOR_DIALOG_INTERACTION
 11: 0x0236 [0x29] REQ_SET_WAIT(priority=0x0B, entity_id=Ripapa (ID: 17797224/0x010F9068), tag_num=0x06)
 12: 0x023D [0x29] REQ_SET_WAIT(priority=0x0B, entity_id=Ripapa (ID: 17797224/0x010F9068), tag_num=0x01)
 13: 0x0244 [0x1D] PRINT_EVENT_MESSAGE(message_id=7414*)
    → "Please make your way to the Quicksand Caves of the Eastern Altepa Desert and bring the $5 into contact with the crystal."
 14: 0x0247 [0x23] WAIT_FOR_DIALOG_INTERACTION
 15: 0x0248 [0x29] REQ_SET_WAIT(priority=0x0B, entity_id=Ripapa (ID: 17797224/0x010F9068), tag_num=0x02)
 16: 0x024F [0x01] GOTO 0x02EE
 17: 0x0252 [0x02] IF !(Work_Zone[8] == 2*) GOTO 0x0288
 18: 0x025A [0x1E] EventEntity looks at LocalPlayer and starts talking
 19: 0x025F [0x6F] WAIT_FRAME_DELAY: Yield until WaitTime reaches zero
 20: 0x0260 [0x70] WAIT_ENTITY_RENDER_FLAG: Wait while EventEntity->Render.Flags3 bit 2 is set (cancel turn if not)
 21: 0x0261 [0x29] REQ_SET_WAIT(priority=0x0B, entity_id=Ripapa (ID: 17797224/0x010F9068), tag_num=0x03)
 22: 0x0268 [0x1D] PRINT_EVENT_MESSAGE(message_id=7433*)
    → "I just had a run-in with the beastmaster regarded as Professor Shantotto's prize student. That rogue wrested the improved tuning fork of ice from me and took off!"
 23: 0x026B [0x23] WAIT_FOR_DIALOG_INTERACTION
 24: 0x026C [0x29] REQ_SET_WAIT(priority=0x0B, entity_id=Ripapa (ID: 17797224/0x010F9068), tag_num=0x04)
 25: 0x0273 [0x29] REQ_SET_WAIT(priority=0x0B, entity_id=Ripapa (ID: 17797224/0x010F9068), tag_num=0x05)
 26: 0x027A [0x1D] PRINT_EVENT_MESSAGE(message_id=7434*)
    → "Please chase after that knave and take back the improved tuning fork of ice!"
 27: 0x027D [0x23] WAIT_FOR_DIALOG_INTERACTION
 28: 0x027E [0x29] REQ_SET_WAIT(priority=0x0B, entity_id=Ripapa (ID: 17797224/0x010F9068), tag_num=0x06)
 29: 0x0285 [0x01] GOTO 0x02EE
 30: 0x0288 [0x02] IF !(Work_Zone[8] == 3*) GOTO 0x02CE
 31: 0x0290 [0x1E] EventEntity looks at LocalPlayer and starts talking
 32: 0x0295 [0x6F] WAIT_FRAME_DELAY: Yield until WaitTime reaches zero
 33: 0x0296 [0x70] WAIT_ENTITY_RENDER_FLAG: Wait while EventEntity->Render.Flags3 bit 2 is set (cancel turn if not)
 34: 0x0297 [0x6E] EventEntity uses emote 6*
 35: 0x029E [0x99] Wait for EventEntity animation to complete
 36: 0x02A3 [0x1D] PRINT_EVENT_MESSAGE(message_id=7441*)
    → "...Oh dear Goddess... Something terrible has happened. An adventurer just collapsed in front of me and hasn't regained consciousness."
 37: 0x02A6 [0x23] WAIT_FOR_DIALOG_INTERACTION
 38: 0x02A7 [0x29] REQ_SET_WAIT(priority=0x0B, entity_id=Ripapa (ID: 17797224/0x010F9068), tag_num=0x03)
 39: 0x02AE [0x1D] PRINT_EVENT_MESSAGE(message_id=7442*)
    → "When he collapsed a cutesy-wutesy creature glowing with blue energy leaped out towards the north."
 40: 0x02B1 [0x23] WAIT_FOR_DIALOG_INTERACTION
 41: 0x02B2 [0x29] REQ_SET_WAIT(priority=0x0B, entity_id=Ripapa (ID: 17797224/0x010F9068), tag_num=0x04)
 42: 0x02B9 [0x29] REQ_SET_WAIT(priority=0x0B, entity_id=Ripapa (ID: 17797224/0x010F9068), tag_num=0x05)
 43: 0x02C0 [0x1D] PRINT_EVENT_MESSAGE(message_id=7443*)
    → "Would the adventurer's condition be the fault of that blue-glowing pixie? It must be that creature called "Carbuncle" I've been hearing rumors about."
 44: 0x02C3 [0x23] WAIT_FOR_DIALOG_INTERACTION
 45: 0x02C4 [0x29] REQ_SET_WAIT(priority=0x0B, entity_id=Ripapa (ID: 17797224/0x010F9068), tag_num=0x06)
 46: 0x02CB [0x01] GOTO 0x02EE
 47: 0x02CE [0x29] REQ_SET_WAIT(priority=0x0B, entity_id=Ripapa (ID: 17797224/0x010F9068), tag_num=0x17)
 48: 0x02D5 [0x1D] PRINT_EVENT_MESSAGE(message_id=7350*)
    → "Owzie-wowzie! Don't make me talk. I hurt all over!"
 49: 0x02D8 [0x23] WAIT_FOR_DIALOG_INTERACTION
 50: 0x02D9 [0x29] REQ_SET_WAIT(priority=0x0B, entity_id=Ripapa (ID: 17797224/0x010F9068), tag_num=0x18)
 51: 0x02E0 [0x29] REQ_SET_WAIT(priority=0x0B, entity_id=Ripapa (ID: 17797224/0x010F9068), tag_num=0x19)
 52: 0x02E7 [0x29] REQ_SET_WAIT(priority=0x0B, entity_id=Ripapa (ID: 17797224/0x010F9068), tag_num=0x1A)

SUBROUTINE_02EE:
 53: 0x02EE [0x20] SET_CLI_EVENT_UC_FLAG: Unlock player control
 54: 0x02F0 [0x21] END_EVENT
 55: 0x02F1 [0x00] END_REQSTACK()
```

### Event 10016

#### Metadata

| Field        | Value     |
|--------------|-----------|
| Entrypoint   | 0x02F2    |
| Data Size    | 890 bytes |
| Instructions | 211       |

```
      00 01 02 03 04 05 06 07  08 09 0A 0B 0C 0D 0E 0F
      -- -- -- -- -- -- -- --  -- -- -- -- -- -- -- --
02F0:       02 08 10 04 80 00  98 03 1E F0 FF FF 7F 6F    .............o
0300: 70 29 0B 68 90 0F 01 03  1D 05 80 23 29 0B 68 90  p).h.......#).h.
0310: 0F 01 04 29 0B 68 90 0F  01 05 1D 06 80 23 29 0B  ...).h.......#).
0320: 68 90 0F 01 06 29 0B 68  90 0F 01 01 1D 07 80 23  h....).h.......#
0330: 29 0B 68 90 0F 01 02 29  0B 68 90 0F 01 11 1D 11  ).h....).h......
0340: 80 23 29 0B 68 90 0F 01  12 24 12 80 04 80 13 80  .#).h....$......
0350: 25 02 00 10 13 80 00 81  03 29 0B 68 90 0F 01 01  %........).h....
0360: 02 09 10 08 80 03 6F 03  1D 14 80 23 01 73 03 1D  ......o....#.s..
0370: 15 80 23 1D 16 80 23 29  0B 68 90 0F 01 02 01 95  ..#...#).h......
0380: 03 02 00 10 04 80 00 95  03 03 01 10 08 80 20 00  .............. .
0390: 21 00 01 95 03 01 65 05  02 08 10 08 80 00 2C 04  !.....e.......,.
03A0: 1E F0 FF FF 7F 6F 70 29  0B 68 90 0F 01 03 1D 09  .....op).h......
03B0: 80 23 29 0B 68 90 0F 01  04 29 0B 68 90 0F 01 05  .#).h....).h....
03C0: 1D 0A 80 23 29 0B 68 90  0F 01 06 29 0B 68 90 0F  ...#).h....).h..
03D0: 01 11 1D 17 80 23 29 0B  68 90 0F 01 12 24 18 80  .....#).h....$..
03E0: 04 80 13 80 25 02 00 10  13 80 00 15 04 29 0B 68  ....%........).h
03F0: 90 0F 01 01 02 09 10 08  80 03 03 04 1D 19 80 23  ...............#
0400: 01 07 04 1D 15 80 23 1D  1A 80 23 29 0B 68 90 0F  ......#...#).h..
0410: 01 02 01 29 04 02 00 10  04 80 00 29 04 03 01 10  ...).......)....
0420: 08 80 20 00 21 00 01 29  04 01 65 05 02 08 10 0B  .. .!..)..e.....
0430: 80 00 C5 04 1E F0 FF FF  7F 6F 70 6E F8 FF FF 7F  .........opn....
0440: 0C 80 99 F8 FF FF 7F 1D  0D 80 23 29 0B 68 90 0F  ..........#).h..
0450: 01 03 1D 0E 80 23 1D 0F  80 23 29 0B 68 90 0F 01  .....#...#).h...
0460: 04 29 0B 68 90 0F 01 05  1D 1B 80 23 29 0B 68 90  .).h.......#).h.
0470: 0F 01 06 29 0B 68 90 0F  01 01 1D 1C 80 23 29 0B  ...).h.......#).
0480: 68 90 0F 01 02 24 1D 80  04 80 13 80 25 02 00 10  h....$......%...
0490: 13 80 00 AE 04 29 0B 68  90 0F 01 01 1D 1E 80 23  .....).h.......#
04A0: 1D 1F 80 23 29 0B 68 90  0F 01 02 01 C2 04 02 00  ...#).h.........
04B0: 10 04 80 00 C2 04 03 01  10 08 80 20 00 21 00 01  ........... .!..
04C0: C2 04 01 65 05 02 05 10  04 80 00 ED 04 29 0B 68  ...e.........).h
04D0: 90 0F 01 17 1D 20 80 23  29 0B 68 90 0F 01 18 29  ..... .#).h....)
04E0: 0B 68 90 0F 01 19 29 0B  68 90 0F 01 1A 1E F0 FF  .h....).h.......
04F0: FF 7F 6F 70 02 09 10 08  80 03 3D 05 29 0B 68 90  ..op......=.).h.
0500: 0F 01 11 02 09 10 04 80  00 12 05 1D 21 80 23 01  ............!.#.
0510: 16 05 1D 22 80 23 29 0B  68 90 0F 01 12 29 0B 68  ...".#).h....).h
0520: 90 0F 01 09 1D 23 80 23  29 0B 68 90 0F 01 0A 29  .....#.#).h....)
0530: 0B 68 90 0F 01 01 1D 24  80 23 01 5A 05 29 0B 68  .h.....$.#.Z.).h
0540: 90 0F 01 11 1D 25 80 23  29 0B 68 90 0F 01 12 29  .....%.#).h....)
0550: 0B 68 90 0F 01 01 1D 26  80 23 1D 27 80 23 29 0B  .h.....&.#.'.#).
0560: 68 90 0F 01 02 02 09 10  08 80 03 82 05 29 0B 68  h............).h
0570: 90 0F 01 11 1D 28 80 23  29 0B 68 90 0F 01 12 01  .....(.#).h.....
0580: 94 05 29 0B 68 90 0F 01  11 1D 29 80 23 29 0B 68  ..).h.....).#).h
0590: 90 0F 01 12 29 0B 68 90  0F 01 01 1D 2A 80 23 29  ....).h.....*.#)
05A0: 0B 68 90 0F 01 02 29 0B  68 90 0F 01 1D 1D 2B 80  .h....).h.....+.
05B0: 23 29 0B 68 90 0F 01 1E  29 0B 68 90 0F 01 1B 1D  #).h....).h.....
05C0: 2C 80 23 29 0B 68 90 0F  01 1C 29 0B 68 90 0F 01  ,.#).h....).h...
05D0: 01 1D 2D 80 23 29 0B 68  90 0F 01 02 02 09 10 08  ..-.#).h........
05E0: 80 03 0B 06 29 0B 68 90  0F 01 03 1D 2E 80 23 29  ....).h.......#)
05F0: 0B 68 90 0F 01 04 29 0B  68 90 0F 01 05 1D 2F 80  .h....).h...../.
0600: 23 29 0B 68 90 0F 01 06  01 2F 06 29 0B 68 90 0F  #).h...../.).h..
0610: 01 03 1D 30 80 23 29 0B  68 90 0F 01 04 29 0B 68  ...0.#).h....).h
0620: 90 0F 01 05 1D 31 80 23  29 0B 68 90 0F 01 06 24  .....1.#).h....$
0630: 32 80 13 80 13 80 25 02  00 10 13 80 00 58 06 42  2.....%......X.B
0640: 03 01 10 04 80 6E F8 FF  FF 7F 04 80 99 F8 FF FF  .....n..........
0650: 7F 1D 33 80 23 01 68 06  02 00 10 04 80 00 68 06  ..3.#.h.......h.
0660: 03 01 10 08 80 01 68 06  20 00 21 00              ......h. .!.    
```

#### Opcodes

```
  0: 0x02F2 [0x02] IF !(Work_Zone[8] == 1*) GOTO 0x0398
  1: 0x02FA [0x1E] EventEntity looks at LocalPlayer and starts talking
  2: 0x02FF [0x6F] WAIT_FRAME_DELAY: Yield until WaitTime reaches zero
  3: 0x0300 [0x70] WAIT_ENTITY_RENDER_FLAG: Wait while EventEntity->Render.Flags3 bit 2 is set (cancel turn if not)
  4: 0x0301 [0x29] REQ_SET_WAIT(priority=0x0B, entity_id=Ripapa (ID: 17797224/0x010F9068), tag_num=0x03)
  5: 0x0308 [0x1D] PRINT_EVENT_MESSAGE(message_id=7412*)
    → "Ildy-Goldy is extremely-wemely proficient in hand-to-hand combat, something very unusual among we Tarutaru. He's always high on the list when researchers are looking for a Rhinostery adventurer to accompany them to the wild lands."
  6: 0x030B [0x23] WAIT_FOR_DIALOG_INTERACTION
  7: 0x030C [0x29] REQ_SET_WAIT(priority=0x0B, entity_id=Ripapa (ID: 17797224/0x010F9068), tag_num=0x04)
  8: 0x0313 [0x29] REQ_SET_WAIT(priority=0x0B, entity_id=Ripapa (ID: 17797224/0x010F9068), tag_num=0x05)
  9: 0x031A [0x1D] PRINT_EVENT_MESSAGE(message_id=7413*)
    → "With his skill, he's likely to defeat the avatar that slumbers within the protocrystal."
 10: 0x031D [0x23] WAIT_FOR_DIALOG_INTERACTION
 11: 0x031E [0x29] REQ_SET_WAIT(priority=0x0B, entity_id=Ripapa (ID: 17797224/0x010F9068), tag_num=0x06)
 12: 0x0325 [0x29] REQ_SET_WAIT(priority=0x0B, entity_id=Ripapa (ID: 17797224/0x010F9068), tag_num=0x01)
 13: 0x032C [0x1D] PRINT_EVENT_MESSAGE(message_id=7414*)
    → "Please make your way to the Quicksand Caves of the Eastern Altepa Desert and bring the $5 into contact with the crystal."
 14: 0x032F [0x23] WAIT_FOR_DIALOG_INTERACTION
 15: 0x0330 [0x29] REQ_SET_WAIT(priority=0x0B, entity_id=Ripapa (ID: 17797224/0x010F9068), tag_num=0x02)
 16: 0x0337 [0x29] REQ_SET_WAIT(priority=0x0B, entity_id=Ripapa (ID: 17797224/0x010F9068), tag_num=0x11)
 17: 0x033E [0x1D] PRINT_EVENT_MESSAGE(message_id=7415*)
    → "...By the way... You probably want to assist Ildy-Goldy with his experiment, but have you ever thought of doing your own investigation into the protocrystals?"
 18: 0x0341 [0x23] WAIT_FOR_DIALOG_INTERACTION
 19: 0x0342 [0x29] REQ_SET_WAIT(priority=0x0B, entity_id=Ripapa (ID: 17797224/0x010F9068), tag_num=0x12)
 20: 0x0349 [0x24] CREATE_DIALOG(message_id=7416*, default_option=1*, option_flags=0*)
    → "Do you want to do your own investigation? [Yes, I thirst for knowledge!/Um, not really...]"
 21: 0x0350 [0x25] WAIT_DIALOG_SELECT()
 22: 0x0351 [0x02] IF !(Work_Zone[0] == 0*) GOTO 0x0381
 23: 0x0359 [0x29] REQ_SET_WAIT(priority=0x0B, entity_id=Ripapa (ID: 17797224/0x010F9068), tag_num=0x01)
 24: 0x0360 [0x02] IF !(Work_Zone[9] >= 2*) GOTO 0x036F
 25: 0x0368 [0x1D] PRINT_EVENT_MESSAGE(message_id=7417*)
    → "Well, then. First, let me introduce myself."
 26: 0x036B [0x23] WAIT_FOR_DIALOG_INTERACTION
 27: 0x036C [0x01] GOTO 0x0373
 28: 0x036F [0x1D] PRINT_EVENT_MESSAGE(message_id=7504*)
    → "Ahem, now let me introduce myself..."
 29: 0x0372 [0x23] WAIT_FOR_DIALOG_INTERACTION

SUBROUTINE_0373:
 30: 0x0373 [0x1D] PRINT_EVENT_MESSAGE(message_id=7418*)
    → "I am a researcher from the Rhinostery in Windurst. Rhinostery researchers study all kinds of plants and animals in every corner of Vana'diel."
 31: 0x0376 [0x23] WAIT_FOR_DIALOG_INTERACTION
 32: 0x0377 [0x29] REQ_SET_WAIT(priority=0x0B, entity_id=Ripapa (ID: 17797224/0x010F9068), tag_num=0x02)
 33: 0x037E [0x01] GOTO 0x0395
 34: 0x0381 [0x02] IF !(Work_Zone[0] == 1*) GOTO 0x0395
 35: 0x0389 [0x03] Work_Zone[1] = 2*
 36: 0x038E [0x20] SET_CLI_EVENT_UC_FLAG: Unlock player control
 37: 0x0390 [0x21] END_EVENT
 38: 0x0391 [0x00] END_REQSTACK()

SUBROUTINE_0395:
 39: 0x0395 [0x01] GOTO 0x0565
 40: 0x0398 [0x02] IF !(Work_Zone[8] == 2*) GOTO 0x042C
 41: 0x03A0 [0x1E] EventEntity looks at LocalPlayer and starts talking
 42: 0x03A5 [0x6F] WAIT_FRAME_DELAY: Yield until WaitTime reaches zero
 43: 0x03A6 [0x70] WAIT_ENTITY_RENDER_FLAG: Wait while EventEntity->Render.Flags3 bit 2 is set (cancel turn if not)
 44: 0x03A7 [0x29] REQ_SET_WAIT(priority=0x0B, entity_id=Ripapa (ID: 17797224/0x010F9068), tag_num=0x03)
 45: 0x03AE [0x1D] PRINT_EVENT_MESSAGE(message_id=7433*)
    → "I just had a run-in with the beastmaster regarded as Professor Shantotto's prize student. That rogue wrested the improved tuning fork of ice from me and took off!"
 46: 0x03B1 [0x23] WAIT_FOR_DIALOG_INTERACTION
 47: 0x03B2 [0x29] REQ_SET_WAIT(priority=0x0B, entity_id=Ripapa (ID: 17797224/0x010F9068), tag_num=0x04)
 48: 0x03B9 [0x29] REQ_SET_WAIT(priority=0x0B, entity_id=Ripapa (ID: 17797224/0x010F9068), tag_num=0x05)
 49: 0x03C0 [0x1D] PRINT_EVENT_MESSAGE(message_id=7434*)
    → "Please chase after that knave and take back the improved tuning fork of ice!"
 50: 0x03C3 [0x23] WAIT_FOR_DIALOG_INTERACTION
 51: 0x03C4 [0x29] REQ_SET_WAIT(priority=0x0B, entity_id=Ripapa (ID: 17797224/0x010F9068), tag_num=0x06)
 52: 0x03CB [0x29] REQ_SET_WAIT(priority=0x0B, entity_id=Ripapa (ID: 17797224/0x010F9068), tag_num=0x11)
 53: 0x03D2 [0x1D] PRINT_EVENT_MESSAGE(message_id=7435*)
    → "...What's that you say? You'll help me get back the improved tuning fork but you also want to investigate the protocrystal in Fei'Yin?"
 54: 0x03D5 [0x23] WAIT_FOR_DIALOG_INTERACTION
 55: 0x03D6 [0x29] REQ_SET_WAIT(priority=0x0B, entity_id=Ripapa (ID: 17797224/0x010F9068), tag_num=0x12)
 56: 0x03DD [0x24] CREATE_DIALOG(message_id=7436*, default_option=1*, option_flags=0*)
    → "Investigate the crystal in Fei'Yin? [Yes./No.]"
 57: 0x03E4 [0x25] WAIT_DIALOG_SELECT()
 58: 0x03E5 [0x02] IF !(Work_Zone[0] == 0*) GOTO 0x0415
 59: 0x03ED [0x29] REQ_SET_WAIT(priority=0x0B, entity_id=Ripapa (ID: 17797224/0x010F9068), tag_num=0x01)
 60: 0x03F4 [0x02] IF !(Work_Zone[9] >= 2*) GOTO 0x0403
 61: 0x03FC [0x1D] PRINT_EVENT_MESSAGE(message_id=7437*)
    → "...Well then, allow me to introduce myself..."
 62: 0x03FF [0x23] WAIT_FOR_DIALOG_INTERACTION
 63: 0x0400 [0x01] GOTO 0x0407
 64: 0x0403 [0x1D] PRINT_EVENT_MESSAGE(message_id=7504*)
    → "Ahem, now let me introduce myself..."
 65: 0x0406 [0x23] WAIT_FOR_DIALOG_INTERACTION

SUBROUTINE_0407:
 66: 0x0407 [0x1D] PRINT_EVENT_MESSAGE(message_id=7438*)
    → "I am a researcher from the Rhinostery in Windurst. Rhinostery researchers study all kinds of plants and animals in every corner of Vana'diel."
 67: 0x040A [0x23] WAIT_FOR_DIALOG_INTERACTION
 68: 0x040B [0x29] REQ_SET_WAIT(priority=0x0B, entity_id=Ripapa (ID: 17797224/0x010F9068), tag_num=0x02)
 69: 0x0412 [0x01] GOTO 0x0429
 70: 0x0415 [0x02] IF !(Work_Zone[0] == 1*) GOTO 0x0429
 71: 0x041D [0x03] Work_Zone[1] = 2*
 72: 0x0422 [0x20] SET_CLI_EVENT_UC_FLAG: Unlock player control
 73: 0x0424 [0x21] END_EVENT
 74: 0x0425 [0x00] END_REQSTACK()

SUBROUTINE_0429:
 75: 0x0429 [0x01] GOTO 0x0565
 76: 0x042C [0x02] IF !(Work_Zone[8] == 3*) GOTO 0x04C5
 77: 0x0434 [0x1E] EventEntity looks at LocalPlayer and starts talking
 78: 0x0439 [0x6F] WAIT_FRAME_DELAY: Yield until WaitTime reaches zero
 79: 0x043A [0x70] WAIT_ENTITY_RENDER_FLAG: Wait while EventEntity->Render.Flags3 bit 2 is set (cancel turn if not)
 80: 0x043B [0x6E] EventEntity uses emote 6*
 81: 0x0442 [0x99] Wait for EventEntity animation to complete
 82: 0x0447 [0x1D] PRINT_EVENT_MESSAGE(message_id=7441*)
    → "...Oh dear Goddess... Something terrible has happened. An adventurer just collapsed in front of me and hasn't regained consciousness."
 83: 0x044A [0x23] WAIT_FOR_DIALOG_INTERACTION
 84: 0x044B [0x29] REQ_SET_WAIT(priority=0x0B, entity_id=Ripapa (ID: 17797224/0x010F9068), tag_num=0x03)
 85: 0x0452 [0x1D] PRINT_EVENT_MESSAGE(message_id=7442*)
    → "When he collapsed a cutesy-wutesy creature glowing with blue energy leaped out towards the north."
 86: 0x0455 [0x23] WAIT_FOR_DIALOG_INTERACTION
 87: 0x0456 [0x1D] PRINT_EVENT_MESSAGE(message_id=7443*)
    → "Would the adventurer's condition be the fault of that blue-glowing pixie? It must be that creature called "Carbuncle" I've been hearing rumors about."
 88: 0x0459 [0x23] WAIT_FOR_DIALOG_INTERACTION
 89: 0x045A [0x29] REQ_SET_WAIT(priority=0x0B, entity_id=Ripapa (ID: 17797224/0x010F9068), tag_num=0x04)
 90: 0x0461 [0x29] REQ_SET_WAIT(priority=0x0B, entity_id=Ripapa (ID: 17797224/0x010F9068), tag_num=0x05)
 91: 0x0468 [0x1D] PRINT_EVENT_MESSAGE(message_id=7445*)
    → "...Well, I must regain my focus and continue with my work..."
 92: 0x046B [0x23] WAIT_FOR_DIALOG_INTERACTION
 93: 0x046C [0x29] REQ_SET_WAIT(priority=0x0B, entity_id=Ripapa (ID: 17797224/0x010F9068), tag_num=0x06)
 94: 0x0473 [0x29] REQ_SET_WAIT(priority=0x0B, entity_id=Ripapa (ID: 17797224/0x010F9068), tag_num=0x01)
 95: 0x047A [0x1D] PRINT_EVENT_MESSAGE(message_id=7446*)
    → "Um, I'm looking for an adventurer to investigate a protocrystal in this area."
 96: 0x047D [0x23] WAIT_FOR_DIALOG_INTERACTION
 97: 0x047E [0x29] REQ_SET_WAIT(priority=0x0B, entity_id=Ripapa (ID: 17797224/0x010F9068), tag_num=0x02)
 98: 0x0485 [0x24] CREATE_DIALOG(message_id=7447*, default_option=1*, option_flags=0*)
    → "Investigate? [Sure./Not right now...]"
 99: 0x048C [0x25] WAIT_DIALOG_SELECT()
100: 0x048D [0x02] IF !(Work_Zone[0] == 0*) GOTO 0x04AE
101: 0x0495 [0x29] REQ_SET_WAIT(priority=0x0B, entity_id=Ripapa (ID: 17797224/0x010F9068), tag_num=0x01)
102: 0x049C [0x1D] PRINT_EVENT_MESSAGE(message_id=7448*)
    → "Well, then. I should start by introducing myself..."
103: 0x049F [0x23] WAIT_FOR_DIALOG_INTERACTION
104: 0x04A0 [0x1D] PRINT_EVENT_MESSAGE(message_id=7449*)
    → "I am a researcher from the Rhinostery in Windurst. Rhinostery researchers study all kinds of plants and animals in every corner of Vana'diel."
105: 0x04A3 [0x23] WAIT_FOR_DIALOG_INTERACTION
106: 0x04A4 [0x29] REQ_SET_WAIT(priority=0x0B, entity_id=Ripapa (ID: 17797224/0x010F9068), tag_num=0x02)
107: 0x04AB [0x01] GOTO 0x04C2
108: 0x04AE [0x02] IF !(Work_Zone[0] == 1*) GOTO 0x04C2
109: 0x04B6 [0x03] Work_Zone[1] = 2*
110: 0x04BB [0x20] SET_CLI_EVENT_UC_FLAG: Unlock player control
111: 0x04BD [0x21] END_EVENT
112: 0x04BE [0x00] END_REQSTACK()

SUBROUTINE_04C2:
113: 0x04C2 [0x01] GOTO 0x0565
114: 0x04C5 [0x02] IF !(Work_Zone[5] == 1*) GOTO 0x04ED
115: 0x04CD [0x29] REQ_SET_WAIT(priority=0x0B, entity_id=Ripapa (ID: 17797224/0x010F9068), tag_num=0x17)
116: 0x04D4 [0x1D] PRINT_EVENT_MESSAGE(message_id=7353*)
    → "Owzie-wowzie! Don't make me talk. I hurt all over!"
117: 0x04D7 [0x23] WAIT_FOR_DIALOG_INTERACTION
118: 0x04D8 [0x29] REQ_SET_WAIT(priority=0x0B, entity_id=Ripapa (ID: 17797224/0x010F9068), tag_num=0x18)
119: 0x04DF [0x29] REQ_SET_WAIT(priority=0x0B, entity_id=Ripapa (ID: 17797224/0x010F9068), tag_num=0x19)
120: 0x04E6 [0x29] REQ_SET_WAIT(priority=0x0B, entity_id=Ripapa (ID: 17797224/0x010F9068), tag_num=0x1A)
121: 0x04ED [0x1E] EventEntity looks at LocalPlayer and starts talking
122: 0x04F2 [0x6F] WAIT_FRAME_DELAY: Yield until WaitTime reaches zero
123: 0x04F3 [0x70] WAIT_ENTITY_RENDER_FLAG: Wait while EventEntity->Render.Flags3 bit 2 is set (cancel turn if not)
124: 0x04F4 [0x02] IF !(Work_Zone[9] >= 2*) GOTO 0x053D
125: 0x04FC [0x29] REQ_SET_WAIT(priority=0x0B, entity_id=Ripapa (ID: 17797224/0x010F9068), tag_num=0x11)
126: 0x0503 [0x02] IF !(Work_Zone[9] == 1*) GOTO 0x0512
127: 0x050B [0x1D] PRINT_EVENT_MESSAGE(message_id=7498*)
    → "Hey! You're that famous adventurer, <Player>!"
128: 0x050E [0x23] WAIT_FOR_DIALOG_INTERACTION
129: 0x050F [0x01] GOTO 0x0516
130: 0x0512 [0x1D] PRINT_EVENT_MESSAGE(message_id=7354*)
    → "Hey! You're that famous adventurer, <Player>!"
131: 0x0515 [0x23] WAIT_FOR_DIALOG_INTERACTION

SUBROUTINE_0516:
132: 0x0516 [0x29] REQ_SET_WAIT(priority=0x0B, entity_id=Ripapa (ID: 17797224/0x010F9068), tag_num=0x12)
133: 0x051D [0x29] REQ_SET_WAIT(priority=0x0B, entity_id=Ripapa (ID: 17797224/0x010F9068), tag_num=0x09)
134: 0x0524 [0x1D] PRINT_EVENT_MESSAGE(message_id=7355*)
    → "Yippee! It must be destiny that brought us together!"
135: 0x0527 [0x23] WAIT_FOR_DIALOG_INTERACTION
136: 0x0528 [0x29] REQ_SET_WAIT(priority=0x0B, entity_id=Ripapa (ID: 17797224/0x010F9068), tag_num=0x0A)
137: 0x052F [0x29] REQ_SET_WAIT(priority=0x0B, entity_id=Ripapa (ID: 17797224/0x010F9068), tag_num=0x01)
138: 0x0536 [0x1D] PRINT_EVENT_MESSAGE(message_id=7356*)
    → "Let me introduce myself. I am from the Rhinostery in Windurst. I do research on various living things."
139: 0x0539 [0x23] WAIT_FOR_DIALOG_INTERACTION
140: 0x053A [0x01] GOTO 0x055A
141: 0x053D [0x29] REQ_SET_WAIT(priority=0x0B, entity_id=Ripapa (ID: 17797224/0x010F9068), tag_num=0x11)
142: 0x0544 [0x1D] PRINT_EVENT_MESSAGE(message_id=7499*)
    → "Maybe you can help us outaru!"
143: 0x0547 [0x23] WAIT_FOR_DIALOG_INTERACTION
144: 0x0548 [0x29] REQ_SET_WAIT(priority=0x0B, entity_id=Ripapa (ID: 17797224/0x010F9068), tag_num=0x12)
145: 0x054F [0x29] REQ_SET_WAIT(priority=0x0B, entity_id=Ripapa (ID: 17797224/0x010F9068), tag_num=0x01)
146: 0x0556 [0x1D] PRINT_EVENT_MESSAGE(message_id=7500*)
    → "Let me introduce myself. I am from the Rhinostery in Windurst. I do research on various living things."
147: 0x0559 [0x23] WAIT_FOR_DIALOG_INTERACTION

SUBROUTINE_055A:
148: 0x055A [0x1D] PRINT_EVENT_MESSAGE(message_id=7357*)
    → "And I'm the besty-westy they've got! I've been looking into phenomena at a certain place."
149: 0x055D [0x23] WAIT_FOR_DIALOG_INTERACTION
150: 0x055E [0x29] REQ_SET_WAIT(priority=0x0B, entity_id=Ripapa (ID: 17797224/0x010F9068), tag_num=0x02)

SUBROUTINE_0565:
151: 0x0565 [0x02] IF !(Work_Zone[9] >= 2*) GOTO 0x0582
152: 0x056D [0x29] REQ_SET_WAIT(priority=0x0B, entity_id=Ripapa (ID: 17797224/0x010F9068), tag_num=0x11)
153: 0x0574 [0x1D] PRINT_EVENT_MESSAGE(message_id=7358*)
    → "I can't talk about it too loudly, but have you ever seen one of those huge crystals? They're found all over the world, far into the wilderness, and deep down in dungeons..."
154: 0x0577 [0x23] WAIT_FOR_DIALOG_INTERACTION
155: 0x0578 [0x29] REQ_SET_WAIT(priority=0x0B, entity_id=Ripapa (ID: 17797224/0x010F9068), tag_num=0x12)
156: 0x057F [0x01] GOTO 0x0594
157: 0x0582 [0x29] REQ_SET_WAIT(priority=0x0B, entity_id=Ripapa (ID: 17797224/0x010F9068), tag_num=0x11)
158: 0x0589 [0x1D] PRINT_EVENT_MESSAGE(message_id=7501*)
    → "You already-weddy know about the super-giant crystals, rightaru?"
159: 0x058C [0x23] WAIT_FOR_DIALOG_INTERACTION
160: 0x058D [0x29] REQ_SET_WAIT(priority=0x0B, entity_id=Ripapa (ID: 17797224/0x010F9068), tag_num=0x12)

SUBROUTINE_0594:
161: 0x0594 [0x29] REQ_SET_WAIT(priority=0x0B, entity_id=Ripapa (ID: 17797224/0x010F9068), tag_num=0x01)
162: 0x059B [0x1D] PRINT_EVENT_MESSAGE(message_id=7359*)
    → "From those crystals, a strangey-wangey power is constantly pouring forth. Our research team had been investigating the unusual emanations when..."
163: 0x059E [0x23] WAIT_FOR_DIALOG_INTERACTION
164: 0x059F [0x29] REQ_SET_WAIT(priority=0x0B, entity_id=Ripapa (ID: 17797224/0x010F9068), tag_num=0x02)
165: 0x05A6 [0x29] REQ_SET_WAIT(priority=0x0B, entity_id=Ripapa (ID: 17797224/0x010F9068), tag_num=0x1D)
166: 0x05AD [0x1D] PRINT_EVENT_MESSAGE(message_id=7360*)
    → "Well, take a look at this!"
167: 0x05B0 [0x23] WAIT_FOR_DIALOG_INTERACTION
168: 0x05B1 [0x29] REQ_SET_WAIT(priority=0x0B, entity_id=Ripapa (ID: 17797224/0x010F9068), tag_num=0x1E)
169: 0x05B8 [0x29] REQ_SET_WAIT(priority=0x0B, entity_id=Ripapa (ID: 17797224/0x010F9068), tag_num=0x1B)
170: 0x05BF [0x1D] PRINT_EVENT_MESSAGE(message_id=7361*)
    → "As a result of our research, we finally succeeded in awakening the crystals!"
171: 0x05C2 [0x23] WAIT_FOR_DIALOG_INTERACTION
172: 0x05C3 [0x29] REQ_SET_WAIT(priority=0x0B, entity_id=Ripapa (ID: 17797224/0x010F9068), tag_num=0x1C)
173: 0x05CA [0x29] REQ_SET_WAIT(priority=0x0B, entity_id=Ripapa (ID: 17797224/0x010F9068), tag_num=0x01)
174: 0x05D1 [0x1D] PRINT_EVENT_MESSAGE(message_id=7362*)
    → "Our theory on what lay dormant inside the crystals was proven to be rightaru on the money! However, they didn't appreciate being woken up, and attacked us."
175: 0x05D4 [0x23] WAIT_FOR_DIALOG_INTERACTION
176: 0x05D5 [0x29] REQ_SET_WAIT(priority=0x0B, entity_id=Ripapa (ID: 17797224/0x010F9068), tag_num=0x02)
177: 0x05DC [0x02] IF !(Work_Zone[9] >= 2*) GOTO 0x060B
178: 0x05E4 [0x29] REQ_SET_WAIT(priority=0x0B, entity_id=Ripapa (ID: 17797224/0x010F9068), tag_num=0x03)
179: 0x05EB [0x1D] PRINT_EVENT_MESSAGE(message_id=7363*)
    → "Why do they so despise talking with us that they would rather fight? And what on Vana'diel would happen if someone were to defeat them?"
180: 0x05EE [0x23] WAIT_FOR_DIALOG_INTERACTION
181: 0x05EF [0x29] REQ_SET_WAIT(priority=0x0B, entity_id=Ripapa (ID: 17797224/0x010F9068), tag_num=0x04)
182: 0x05F6 [0x29] REQ_SET_WAIT(priority=0x0B, entity_id=Ripapa (ID: 17797224/0x010F9068), tag_num=0x05)
183: 0x05FD [0x1D] PRINT_EVENT_MESSAGE(message_id=7364*)
    → "I'm sure that you could do it! Will you help us out with our research?"
184: 0x0600 [0x23] WAIT_FOR_DIALOG_INTERACTION
185: 0x0601 [0x29] REQ_SET_WAIT(priority=0x0B, entity_id=Ripapa (ID: 17797224/0x010F9068), tag_num=0x06)
186: 0x0608 [0x01] GOTO 0x062F
187: 0x060B [0x29] REQ_SET_WAIT(priority=0x0B, entity_id=Ripapa (ID: 17797224/0x010F9068), tag_num=0x03)
188: 0x0612 [0x1D] PRINT_EVENT_MESSAGE(message_id=7502*)
    → "Why do these avatars so despise talking with us that they would rather fight? And what on Vana'diel would happen if someone were to defeat them?"
189: 0x0615 [0x23] WAIT_FOR_DIALOG_INTERACTION
190: 0x0616 [0x29] REQ_SET_WAIT(priority=0x0B, entity_id=Ripapa (ID: 17797224/0x010F9068), tag_num=0x04)
191: 0x061D [0x29] REQ_SET_WAIT(priority=0x0B, entity_id=Ripapa (ID: 17797224/0x010F9068), tag_num=0x05)
192: 0x0624 [0x1D] PRINT_EVENT_MESSAGE(message_id=7503*)
    → "You were able to handle one all by yourself. You should have no problem defeating one with your buddy-wuddies. You'll help us out, right?"
193: 0x0627 [0x23] WAIT_FOR_DIALOG_INTERACTION
194: 0x0628 [0x29] REQ_SET_WAIT(priority=0x0B, entity_id=Ripapa (ID: 17797224/0x010F9068), tag_num=0x06)

SUBROUTINE_062F:
195: 0x062F [0x24] CREATE_DIALOG(message_id=7365*, default_option=0*, option_flags=0*)
    → "Take up the challenge? [Bring it on!/Ah, no, thanks...]"
196: 0x0636 [0x25] WAIT_DIALOG_SELECT()
197: 0x0637 [0x02] IF !(Work_Zone[0] == 0*) GOTO 0x0658
198: 0x063F [0x42] SET_CLI_EVENT_CANCEL_DATA()
199: 0x0640 [0x03] Work_Zone[1] = 1*
200: 0x0645 [0x6E] EventEntity uses emote 1*
201: 0x064C [0x99] Wait for EventEntity animation to complete
202: 0x0651 [0x1D] PRINT_EVENT_MESSAGE(message_id=7366*)
    → "Wonderful! Here, take this $3. But be warned--only a person who carries one can enter the crystal."
203: 0x0654 [0x23] WAIT_FOR_DIALOG_INTERACTION
204: 0x0655 [0x01] GOTO 0x0668
205: 0x0658 [0x02] IF !(Work_Zone[0] == 1*) GOTO 0x0668
206: 0x0660 [0x03] Work_Zone[1] = 2*
207: 0x0665 [0x01] GOTO 0x0668

SUBROUTINE_0668:
208: 0x0668 [0x20] SET_CLI_EVENT_UC_FLAG: Unlock player control
209: 0x066A [0x21] END_EVENT
210: 0x066B [0x00] END_REQSTACK()
```

#### Data or dead code:

```
# Dead code (unreachable instructions):
     0x0392 [0x01] GOTO 0x0395
# Dead code (unreachable instructions):
     0x0426 [0x01] GOTO 0x0429
# Dead code (unreachable instructions):
     0x04BF [0x01] GOTO 0x04C2
```

### Event 10017

#### Metadata

| Field        | Value    |
|--------------|----------|
| Entrypoint   | 0x066C   |
| Data Size    | 33 bytes |
| Instructions | 12       |

```
      00 01 02 03 04 05 06 07  08 09 0A 0B 0C 0D 0E 0F
      -- -- -- -- -- -- -- --  -- -- -- -- -- -- -- --
0660:                                      1E F0 FF FF              ....
0670: 7F 6F 70 29 0B 68 90 0F  01 01 1D 34 80 23 1D 35  .op).h.....4.#.5
0680: 80 23 29 0B 68 90 0F 01  02 20 00 21 00           .#).h.... .!.   
```

#### Opcodes

```
  0: 0x066C [0x1E] EventEntity looks at LocalPlayer and starts talking
  1: 0x0671 [0x6F] WAIT_FRAME_DELAY: Yield until WaitTime reaches zero
  2: 0x0672 [0x70] WAIT_ENTITY_RENDER_FLAG: Wait while EventEntity->Render.Flags3 bit 2 is set (cancel turn if not)
  3: 0x0673 [0x29] REQ_SET_WAIT(priority=0x0B, entity_id=Ripapa (ID: 17797224/0x010F9068), tag_num=0x01)
  4: 0x067A [0x1D] PRINT_EVENT_MESSAGE(message_id=7367*)
    → "This $3 will awaken the giant crystal that is found [in Ifrit's Cauldron/in the Quicksand Caves/in the Den of Rancor/in Cape Teriggan/in Fei'Yin/in The Boyahda Tree]."
  5: 0x067D [0x23] WAIT_FOR_DIALOG_INTERACTION
  6: 0x067E [0x1D] PRINT_EVENT_MESSAGE(message_id=7368*)
    → "Without it, you won't be getting inside no matter how sneaky-weaky you are! Oh, and if you want to take some friends with you, they also have to get $6 from me. Okey-dokey?"
  7: 0x0681 [0x23] WAIT_FOR_DIALOG_INTERACTION
  8: 0x0682 [0x29] REQ_SET_WAIT(priority=0x0B, entity_id=Ripapa (ID: 17797224/0x010F9068), tag_num=0x02)
  9: 0x0689 [0x20] SET_CLI_EVENT_UC_FLAG: Unlock player control
 10: 0x068B [0x21] END_EVENT
 11: 0x068C [0x00] END_REQSTACK()
```

### Event 10024

#### Metadata

| Field        | Value    |
|--------------|----------|
| Entrypoint   | 0x068D   |
| Data Size    | 33 bytes |
| Instructions | 12       |

```
      00 01 02 03 04 05 06 07  08 09 0A 0B 0C 0D 0E 0F
      -- -- -- -- -- -- -- --  -- -- -- -- -- -- -- --
0680:                                         1E F0 FF               ...
0690: FF 7F 6F 70 29 0B 68 90  0F 01 01 1D 36 80 23 1D  ..op).h.....6.#.
06A0: 37 80 23 29 0B 68 90 0F  01 02 20 00 21 00        7.#).h.... .!.  
```

#### Opcodes

```
  0: 0x068D [0x1E] EventEntity looks at LocalPlayer and starts talking
  1: 0x0692 [0x6F] WAIT_FRAME_DELAY: Yield until WaitTime reaches zero
  2: 0x0693 [0x70] WAIT_ENTITY_RENDER_FLAG: Wait while EventEntity->Render.Flags3 bit 2 is set (cancel turn if not)
  3: 0x0694 [0x29] REQ_SET_WAIT(priority=0x0B, entity_id=Ripapa (ID: 17797224/0x010F9068), tag_num=0x01)
  4: 0x069B [0x1D] PRINT_EVENT_MESSAGE(message_id=7457*)
    → "What? You want another $3?"
  5: 0x069E [0x23] WAIT_FOR_DIALOG_INTERACTION
  6: 0x069F [0x1D] PRINT_EVENT_MESSAGE(message_id=7458*)
    → "Oh, all right... But be careful-wareful with this one! These things don't grow on star trees, you know."
  7: 0x06A2 [0x23] WAIT_FOR_DIALOG_INTERACTION
  8: 0x06A3 [0x29] REQ_SET_WAIT(priority=0x0B, entity_id=Ripapa (ID: 17797224/0x010F9068), tag_num=0x02)
  9: 0x06AA [0x20] SET_CLI_EVENT_UC_FLAG: Unlock player control
 10: 0x06AC [0x21] END_EVENT
 11: 0x06AD [0x00] END_REQSTACK()
```

### Event 10018

#### Metadata

| Field        | Value   |
|--------------|---------|
| Entrypoint   | 0x06AE  |
| Data Size    | 1 bytes |
| Instructions | 1       |

```
      00 01 02 03 04 05 06 07  08 09 0A 0B 0C 0D 0E 0F
      -- -- -- -- -- -- -- --  -- -- -- -- -- -- -- --
06A0:                                            00                   . 
```

#### Opcodes

```
  0: 0x06AE [0x00] END_REQSTACK()
```

### Event 10019

#### Metadata

| Field        | Value      |
|--------------|------------|
| Entrypoint   | 0x06AF     |
| Data Size    | 4780 bytes |
| Instructions | 674        |

```
      00 01 02 03 04 05 06 07  08 09 0A 0B 0C 0D 0E 0F
      -- -- -- -- -- -- -- --  -- -- -- -- -- -- -- --
06A0:                                               46                 F
06B0: 01 42 1E F0 FF FF 7F 6F  70 5D 13 80 38 80 02 04  .B.....op]..8...
06C0: 10 39 80 00 EB 0A 03 07  10 3A 80 03 08 10 3B 80  .9.......:....;.
06D0: 03 03 10 3C 80 45 38 80  F8 FF FF 7F F8 FF FF 7F  ...<.E8.........
06E0: 66 64 6F 31 13 80 1C 01  80 38 3D 80 29 0B F0 FF  fdo1.....8=.)...
06F0: FF 7F 22 29 0B F0 FF FF  7F 1F 29 0B 6B 90 0F 01  ..")......).k...
0700: 02 29 0B 6A 90 0F 01 02  4A 69 90 0F 01 68 90 0F  .).j....Ji...h..
0710: 01 4A F0 FF FF 7F 68 90  0F 01 1E F0 FF FF 7F 6F  .J....h........o
0720: 70 27 0A 69 90 0F 01 08  45 38 80 F8 FF FF 7F F8  p'.i....E8......
0730: FF FF 7F 66 64 69 31 13  80 29 0B 68 90 0F 01 01  ...fdi1..).h....
0740: 1D 3E 80 23 45 38 80 F8  FF FF 7F F8 FF FF 7F 66  .>.#E8.........f
0750: 64 6F 31 13 80 1C 01 80  29 0B 68 90 0F 01 02 2A  do1.....).h....*
0760: 0A 69 90 0F 01 29 0B 68  90 0F 01 03 29 0B 68 90  .i...).h....).h.
0770: 0F 01 04 45 3F 80 F8 FF  FF 7F F8 FF FF 7F 73 30  ...E?.........s0
0780: 34 38 13 80 45 38 80 F8  FF FF 7F F8 FF FF 7F 66  48..E8.........f
0790: 64 69 31 13 80 4E 00 6B  90 0F 01 4E 00 6A 90 0F  di1..N.k...N.j..
07A0: 01 6C 6A 90 0F 01 13 80  04 80 1D 40 80 23 80 6B  .lj........@.#.k
07B0: 90 0F 01 52 3F 80 F8 FF  FF 7F F8 FF FF 7F 73 30  ...R?.........s0
07C0: 34 38 02 09 10 0B 80 00  DE 07 45 3F 80 F8 FF FF  48........E?....
07D0: 7F F8 FF FF 7F 73 30 35  30 13 80 01 5F 08 02 09  .....s050..._...
07E0: 10 39 80 00 FA 07 45 3F  80 F8 FF FF 7F F8 FF FF  .9....E?........
07F0: 7F 73 30 35 30 13 80 01  5F 08 02 09 10 41 80 00  .s050..._....A..
0800: 16 08 45 3F 80 F8 FF FF  7F F8 FF FF 7F 73 30 35  ..E?.........s05
0810: 31 13 80 01 5F 08 02 09  10 0C 80 00 32 08 45 3F  1..._.......2.E?
0820: 80 F8 FF FF 7F F8 FF FF  7F 73 30 35 31 13 80 01  .........s051...
0830: 5F 08 02 09 10 42 80 00  4E 08 45 3F 80 F8 FF FF  _....B..N.E?....
0840: 7F F8 FF FF 7F 73 30 35  30 13 80 01 5F 08 45 3F  .....s050..._.E?
0850: 80 F8 FF FF 7F F8 FF FF  7F 73 30 34 39 13 80 27  .........s049..'
0860: 0A F0 FF FF 7F 21 29 0B  68 90 0F 01 05 2B 6A 90  .....!).h....+j.
0870: 0F 01 43 80 23 2A 0A F0  FF FF 7F 6C 6A 90 0F 01  ..C.#*.....lj...
0880: 44 80 45 80 27 0A 6A 90  0F 01 04 29 0B 68 90 0F  D.E.'.j....).h..
0890: 01 06 02 09 10 0B 80 00  AC 08 52 3F 80 F8 FF FF  ..........R?....
08A0: 7F F8 FF FF 7F 73 30 35  30 01 23 09 02 09 10 39  .....s050.#....9
08B0: 80 00 C6 08 52 3F 80 F8  FF FF 7F F8 FF FF 7F 73  ....R?.........s
08C0: 30 35 30 01 23 09 02 09  10 41 80 00 E0 08 52 3F  050.#....A....R?
08D0: 80 F8 FF FF 7F F8 FF FF  7F 73 30 35 31 01 23 09  .........s051.#.
08E0: 02 09 10 0C 80 00 FA 08  52 3F 80 F8 FF FF 7F F8  ........R?......
08F0: FF FF 7F 73 30 35 31 01  23 09 02 09 10 42 80 00  ...s051.#....B..
0900: 14 09 52 3F 80 F8 FF FF  7F F8 FF FF 7F 73 30 35  ..R?.........s05
0910: 30 01 23 09 52 3F 80 F8  FF FF 7F F8 FF FF 7F 73  0.#.R?.........s
0920: 30 34 39 45 46 80 F0 FF  FF 7F F0 FF FF 7F 62 6C  049EF.........bl
0930: 72 6F 13 80 45 47 80 F0  FF FF 7F F0 FF FF 7F 62  ro..EG.........b
0940: 6C 6F 6E 13 80 45 38 80  F0 FF FF 7F F0 FF FF 7F  lon..E8.........
0950: 6F 76 6C 31 13 80 45 3F  80 F8 FF FF 7F F8 FF FF  ovl1..E?........
0960: 7F 73 30 35 32 13 80 1C  48 80 4A F0 FF FF 7F 6A  .s052...H.J....j
0970: 90 0F 01 1D 49 80 23 6F  76 F0 FF FF 7F 1C 4A 80  ....I.#ov.....J.
0980: 45 47 80 F0 FF FF 7F F0  FF FF 7F 77 68 6F 31 13  EG.........who1.
0990: 80 1C 01 80 52 3F 80 F8  FF FF 7F F8 FF FF 7F 73  ....R?.........s
09A0: 30 35 32 2A 0A 6A 90 0F  01 34 4B 80 77 4C 80 4D  052*.j...4K.wL.M
09B0: 80 03 01 00 04 10 03 04  10 4E 80 1A 57 13 78 34  .........N..W.x4
09C0: 4F 80 78 03 04 10 01 00  6C F0 FF FF 7F 44 80 04  O.x.....l....D..
09D0: 80 1C 38 80 29 0B F0 FF  FF 7F 1F 37 50 80 51 80  ..8.)......7P.Q.
09E0: 13 80 52 80 29 0B 69 90  0F 01 05 4E 00 68 90 0F  ..R.).i....N.h..
09F0: 01 4E 00 69 90 0F 01 80  68 90 0F 01 80 69 90 0F  .N.i....h....i..
0A00: 01 5C 00 53 80 5C 01 53  80 5D 54 80 04 80 4A 68  .\.S.\.S.]T...Jh
0A10: 90 0F 01 F0 FF FF 7F 4A  69 90 0F 01 F0 FF FF 7F  .......Ji.......
0A20: 6F 76 68 90 0F 01 6F 76  69 90 0F 01 45 3F 80 F8  ovh...ovi...E?..
0A30: FF FF 7F F8 FF FF 7F 73  30 34 38 13 80 45 38 80  .......s048..E8.
0A40: F8 FF FF 7F F8 FF FF 7F  66 64 69 32 13 80 45 47  ........fdi2..EG
0A50: 80 F0 FF FF 7F F0 FF FF  7F 77 68 69 31 13 80 7B  .........whi1..{
0A60: 68 90 0F 01 1C 45 80 1D  55 80 23 52 3F 80 F8 FF  h....E..U.#R?...
0A70: FF 7F F8 FF FF 7F 73 30  34 38 45 3F 80 F8 FF FF  ......s048E?....
0A80: 7F F8 FF FF 7F 73 30 34  37 13 80 29 0B 68 90 0F  .....s047..).h..
0A90: 01 03 1D 56 80 23 29 0B  68 90 0F 01 04 29 0B 68  ...V.#).h....).h
0AA0: 90 0F 01 05 1D 57 80 23  29 0B 68 90 0F 01 06 45  .....W.#).h....E
0AB0: 38 80 F8 FF FF 7F F8 FF  FF 7F 66 64 6F 31 13 80  8.........fdo1..
0AC0: 1C 01 80 52 3F 80 F8 FF  FF 7F F8 FF FF 7F 73 30  ...R?.........s0
0AD0: 34 37 46 00 1C 38 80 45  38 80 F8 FF FF 7F F8 FF  47F..8.E8.......
0AE0: FF 7F 66 64 69 31 13 80  01 42 13 02 04 10 04 80  ..fdi1...B......
0AF0: 00 18 0F 03 07 10 58 80  03 08 10 59 80 03 03 10  ......X....Y....
0B00: 5A 80 45 38 80 F8 FF FF  7F F8 FF FF 7F 66 64 6F  Z.E8.........fdo
0B10: 31 13 80 1C 01 80 38 3D  80 29 0B F0 FF FF 7F 22  1.....8=.)....."
0B20: 29 0B F0 FF FF 7F 1F 29  0B 6B 90 0F 01 02 29 0B  )......).k....).
0B30: 6A 90 0F 01 02 4A 69 90  0F 01 68 90 0F 01 4A F0  j....Ji...h...J.
0B40: FF FF 7F 68 90 0F 01 1E  F0 FF FF 7F 6F 70 27 0A  ...h........op'.
0B50: 69 90 0F 01 07 45 38 80  F8 FF FF 7F F8 FF FF 7F  i....E8.........
0B60: 66 64 69 31 13 80 29 0B  68 90 0F 01 01 1D 3E 80  fdi1..).h.....>.
0B70: 23 45 38 80 F8 FF FF 7F  F8 FF FF 7F 66 64 6F 31  #E8.........fdo1
0B80: 13 80 1C 01 80 29 0B 68  90 0F 01 02 2A 0A 69 90  .....).h....*.i.
0B90: 0F 01 29 0B 68 90 0F 01  03 29 0B 68 90 0F 01 04  ..).h....).h....
0BA0: 45 3F 80 F8 FF FF 7F F8  FF FF 7F 73 30 32 37 13  E?.........s027.
0BB0: 80 45 38 80 F8 FF FF 7F  F8 FF FF 7F 66 64 69 31  .E8.........fdi1
0BC0: 13 80 4E 00 6B 90 0F 01  4E 00 6A 90 0F 01 6C 6A  ..N.k...N.j...lj
0BD0: 90 0F 01 13 80 04 80 1D  40 80 23 80 6B 90 0F 01  ........@.#.k...
0BE0: 52 3F 80 F8 FF FF 7F F8  FF FF 7F 73 30 32 37 02  R?.........s027.
0BF0: 09 10 0B 80 00 0B 0C 45  3F 80 F8 FF FF 7F F8 FF  .......E?.......
0C00: FF 7F 73 30 32 39 13 80  01 8C 0C 02 09 10 39 80  ..s029........9.
0C10: 00 27 0C 45 3F 80 F8 FF  FF 7F F8 FF FF 7F 73 30  .'.E?.........s0
0C20: 32 39 13 80 01 8C 0C 02  09 10 41 80 00 43 0C 45  29........A..C.E
0C30: 3F 80 F8 FF FF 7F F8 FF  FF 7F 73 30 33 30 13 80  ?.........s030..
0C40: 01 8C 0C 02 09 10 0C 80  00 5F 0C 45 3F 80 F8 FF  ........._.E?...
0C50: FF 7F F8 FF FF 7F 73 30  33 30 13 80 01 8C 0C 02  ......s030......
0C60: 09 10 42 80 00 7B 0C 45  3F 80 F8 FF FF 7F F8 FF  ..B..{.E?.......
0C70: FF 7F 73 30 32 39 13 80  01 8C 0C 45 3F 80 F8 FF  ..s029.....E?...
0C80: FF 7F F8 FF FF 7F 73 30  32 38 13 80 27 0A F0 FF  ......s028..'...
0C90: FF 7F 21 29 0B 68 90 0F  01 05 2B 6A 90 0F 01 43  ..!).h....+j...C
0CA0: 80 23 2A 0A F0 FF FF 7F  6C 6A 90 0F 01 44 80 45  .#*.....lj...D.E
0CB0: 80 27 0A 6A 90 0F 01 04  29 0B 68 90 0F 01 06 02  .'.j....).h.....
0CC0: 09 10 0B 80 00 D9 0C 52  3F 80 F8 FF FF 7F F8 FF  .......R?.......
0CD0: FF 7F 73 30 32 39 01 50  0D 02 09 10 39 80 00 F3  ..s029.P....9...
0CE0: 0C 52 3F 80 F8 FF FF 7F  F8 FF FF 7F 73 30 32 39  .R?.........s029
0CF0: 01 50 0D 02 09 10 41 80  00 0D 0D 52 3F 80 F8 FF  .P....A....R?...
0D00: FF 7F F8 FF FF 7F 73 30  33 30 01 50 0D 02 09 10  ......s030.P....
0D10: 0C 80 00 27 0D 52 3F 80  F8 FF FF 7F F8 FF FF 7F  ...'.R?.........
0D20: 73 30 33 30 01 50 0D 02  09 10 42 80 00 41 0D 52  s030.P....B..A.R
0D30: 3F 80 F8 FF FF 7F F8 FF  FF 7F 73 30 32 39 01 50  ?.........s029.P
0D40: 0D 52 3F 80 F8 FF FF 7F  F8 FF FF 7F 73 30 32 38  .R?.........s028
0D50: 45 46 80 F0 FF FF 7F F0  FF FF 7F 62 6C 72 6F 13  EF.........blro.
0D60: 80 45 47 80 F0 FF FF 7F  F0 FF FF 7F 62 6C 6F 6E  .EG.........blon
0D70: 13 80 45 38 80 F0 FF FF  7F F0 FF FF 7F 6F 76 6C  ..E8.........ovl
0D80: 31 13 80 45 3F 80 F8 FF  FF 7F F8 FF FF 7F 73 30  1..E?.........s0
0D90: 33 31 13 80 1C 48 80 4A  F0 FF FF 7F 6A 90 0F 01  31...H.J....j...
0DA0: 1D 49 80 23 6F 76 F0 FF  FF 7F 1C 4A 80 45 47 80  .I.#ov.....J.EG.
0DB0: F0 FF FF 7F F0 FF FF 7F  77 68 6F 31 13 80 1C 01  ........who1....
0DC0: 80 52 3F 80 F8 FF FF 7F  F8 FF FF 7F 73 30 33 31  .R?.........s031
0DD0: 2A 0A 6A 90 0F 01 34 5B  80 77 4C 80 5C 80 03 00  *.j...4[.wL.\...
0DE0: 00 04 10 03 04 10 5D 80  1A 57 13 78 34 5E 80 78  ......]..W.x4^.x
0DF0: 03 04 10 00 00 6C F0 FF  FF 7F 44 80 04 80 1C 38  .....l....D....8
0E00: 80 29 0B F0 FF FF 7F 1F  37 5F 80 60 80 25 80 61  .)......7_.`.%.a
0E10: 80 29 0B 69 90 0F 01 05  4E 00 68 90 0F 01 4E 00  .).i....N.h...N.
0E20: 69 90 0F 01 80 68 90 0F  01 80 69 90 0F 01 5C 00  i....h....i...\.
0E30: 62 80 5C 01 62 80 5D 54  80 04 80 4A 68 90 0F 01  b.\.b.]T...Jh...
0E40: F0 FF FF 7F 4A 69 90 0F  01 F0 FF FF 7F 6F 76 68  ....Ji.......ovh
0E50: 90 0F 01 6F 76 69 90 0F  01 45 3F 80 F8 FF FF 7F  ...ovi...E?.....
0E60: F8 FF FF 7F 73 30 32 37  13 80 45 38 80 F8 FF FF  ....s027..E8....
0E70: 7F F8 FF FF 7F 66 64 69  32 13 80 45 47 80 F0 FF  .....fdi2..EG...
0E80: FF 7F F0 FF FF 7F 77 68  69 31 13 80 7B 68 90 0F  ......whi1..{h..
0E90: 01 1C 45 80 1D 55 80 23  52 3F 80 F8 FF FF 7F F8  ..E..U.#R?......
0EA0: FF FF 7F 73 30 32 37 45  3F 80 F8 FF FF 7F F8 FF  ...s027E?.......
0EB0: FF 7F 73 30 32 36 13 80  29 0B 68 90 0F 01 03 1D  ..s026..).h.....
0EC0: 56 80 23 29 0B 68 90 0F  01 04 29 0B 68 90 0F 01  V.#).h....).h...
0ED0: 05 1D 57 80 23 29 0B 68  90 0F 01 06 45 38 80 F8  ..W.#).h....E8..
0EE0: FF FF 7F F8 FF FF 7F 66  64 6F 31 13 80 1C 01 80  .......fdo1.....
0EF0: 52 3F 80 F8 FF FF 7F F8  FF FF 7F 73 30 32 36 46  R?.........s026F
0F00: 00 1C 38 80 45 38 80 F8  FF FF 7F F8 FF FF 7F 66  ..8.E8.........f
0F10: 64 69 31 13 80 01 42 13  02 04 10 41 80 00 42 13  di1...B....A..B.
0F20: 03 07 10 63 80 03 08 10  64 80 03 03 10 65 80 45  ...c....d....e.E
0F30: 38 80 F8 FF FF 7F F8 FF  FF 7F 66 64 6F 31 13 80  8.........fdo1..
0F40: 1C 01 80 38 3D 80 29 0B  F0 FF FF 7F 22 29 0B F0  ...8=.).....")..
0F50: FF FF 7F 1F 29 0B 6B 90  0F 01 02 29 0B 6A 90 0F  ....).k....).j..
0F60: 01 02 4A 69 90 0F 01 68  90 0F 01 4A F0 FF FF 7F  ..Ji...h...J....
0F70: 68 90 0F 01 1E F0 FF FF  7F 6F 70 27 0A 69 90 0F  h........op'.i..
0F80: 01 06 45 38 80 F8 FF FF  7F F8 FF FF 7F 66 64 69  ..E8.........fdi
0F90: 31 13 80 29 0B 68 90 0F  01 01 1D 3E 80 23 45 38  1..).h.....>.#E8
0FA0: 80 F8 FF FF 7F F8 FF FF  7F 66 64 6F 31 13 80 1C  .........fdo1...
0FB0: 01 80 29 0B 68 90 0F 01  02 2A 0A 69 90 0F 01 29  ..).h....*.i...)
0FC0: 0B 68 90 0F 01 03 29 0B  68 90 0F 01 04 45 3F 80  .h....).h....E?.
0FD0: F8 FF FF 7F F8 FF FF 7F  73 30 32 30 13 80 45 38  ........s020..E8
0FE0: 80 F8 FF FF 7F F8 FF FF  7F 66 64 69 31 13 80 4E  .........fdi1..N
0FF0: 00 6B 90 0F 01 4E 00 6A  90 0F 01 6C 6A 90 0F 01  .k...N.j...lj...
1000: 13 80 04 80 1D 40 80 23  80 6B 90 0F 01 52 3F 80  .....@.#.k...R?.
1010: F8 FF FF 7F F8 FF FF 7F  73 30 32 30 02 09 10 0B  ........s020....
1020: 80 00 38 10 45 3F 80 F8  FF FF 7F F8 FF FF 7F 73  ..8.E?.........s
1030: 30 32 32 13 80 01 B9 10  02 09 10 39 80 00 54 10  022........9..T.
1040: 45 3F 80 F8 FF FF 7F F8  FF FF 7F 73 30 32 32 13  E?.........s022.
1050: 80 01 B9 10 02 09 10 41  80 00 70 10 45 3F 80 F8  .......A..p.E?..
1060: FF FF 7F F8 FF FF 7F 73  30 32 33 13 80 01 B9 10  .......s023.....
1070: 02 09 10 0C 80 00 8C 10  45 3F 80 F8 FF FF 7F F8  ........E?......
1080: FF FF 7F 73 30 32 33 13  80 01 B9 10 02 09 10 42  ...s023........B
1090: 80 00 A8 10 45 3F 80 F8  FF FF 7F F8 FF FF 7F 73  ....E?.........s
10A0: 30 32 32 13 80 01 B9 10  45 3F 80 F8 FF FF 7F F8  022.....E?......
10B0: FF FF 7F 73 30 32 31 13  80 27 0A F0 FF FF 7F 21  ...s021..'.....!
10C0: 29 0B 68 90 0F 01 05 2B  6A 90 0F 01 43 80 23 2A  ).h....+j...C.#*
10D0: 0A F0 FF FF 7F 6C 6A 90  0F 01 44 80 45 80 27 0A  .....lj...D.E.'.
10E0: 6A 90 0F 01 04 29 0B 68  90 0F 01 06 02 09 10 0B  j....).h........
10F0: 80 00 06 11 52 3F 80 F8  FF FF 7F F8 FF FF 7F 73  ....R?.........s
1100: 30 32 32 01 7D 11 02 09  10 39 80 00 20 11 52 3F  022.}....9.. .R?
1110: 80 F8 FF FF 7F F8 FF FF  7F 73 30 32 32 01 7D 11  .........s022.}.
1120: 02 09 10 41 80 00 3A 11  52 3F 80 F8 FF FF 7F F8  ...A..:.R?......
1130: FF FF 7F 73 30 32 33 01  7D 11 02 09 10 0C 80 00  ...s023.}.......
1140: 54 11 52 3F 80 F8 FF FF  7F F8 FF FF 7F 73 30 32  T.R?.........s02
1150: 33 01 7D 11 02 09 10 42  80 00 6E 11 52 3F 80 F8  3.}....B..n.R?..
1160: FF FF 7F F8 FF FF 7F 73  30 32 32 01 7D 11 52 3F  .......s022.}.R?
1170: 80 F8 FF FF 7F F8 FF FF  7F 73 30 32 31 45 46 80  .........s021EF.
1180: F0 FF FF 7F F0 FF FF 7F  62 6C 72 6F 13 80 45 47  ........blro..EG
1190: 80 F0 FF FF 7F F0 FF FF  7F 62 6C 6F 6E 13 80 45  .........blon..E
11A0: 38 80 F0 FF FF 7F F0 FF  FF 7F 6F 76 6C 31 13 80  8.........ovl1..
11B0: 45 3F 80 F8 FF FF 7F F8  FF FF 7F 73 30 32 34 13  E?.........s024.
11C0: 80 1C 48 80 4A F0 FF FF  7F 6A 90 0F 01 1D 49 80  ..H.J....j....I.
11D0: 23 6F 76 F0 FF FF 7F 1C  4A 80 45 47 80 F0 FF FF  #ov.....J.EG....
11E0: 7F F0 FF FF 7F 77 68 6F  31 13 80 1C 01 80 52 3F  .....who1.....R?
11F0: 80 F8 FF FF 7F F8 FF FF  7F 73 30 30 33 2A 0A 6A  .........s003*.j
1200: 90 0F 01 34 66 80 77 4C  80 67 80 03 02 00 04 10  ...4f.wL.g......
1210: 03 04 10 68 80 1A 57 13  78 34 3F 80 78 03 04 10  ...h..W.x4?.x...
1220: 02 00 6C F0 FF FF 7F 44  80 04 80 1C 38 80 29 0B  ..l....D....8.).
1230: F0 FF FF 7F 1F 37 69 80  6A 80 6B 80 6C 80 29 0B  .....7i.j.k.l.).
1240: 69 90 0F 01 05 4E 00 68  90 0F 01 4E 00 69 90 0F  i....N.h...N.i..
1250: 01 80 68 90 0F 01 80 69  90 0F 01 5C 00 6D 80 5C  ..h....i...\.m.\
1260: 01 6D 80 5D 54 80 04 80  4A 68 90 0F 01 F0 FF FF  .m.]T...Jh......
1270: 7F 4A 69 90 0F 01 F0 FF  FF 7F 6F 76 68 90 0F 01  .Ji.......ovh...
1280: 6F 76 69 90 0F 01 45 3F  80 F8 FF FF 7F F8 FF FF  ovi...E?........
1290: 7F 73 30 32 30 13 80 45  38 80 F8 FF FF 7F F8 FF  .s020..E8.......
12A0: FF 7F 66 64 69 32 13 80  45 47 80 F0 FF FF 7F F0  ..fdi2..EG......
12B0: FF FF 7F 77 68 69 31 13  80 7B 68 90 0F 01 1C 45  ...whi1..{h....E
12C0: 80 1D 55 80 23 52 3F 80  F8 FF FF 7F F8 FF FF 7F  ..U.#R?.........
12D0: 73 30 32 30 45 3F 80 F8  FF FF 7F F8 FF FF 7F 73  s020E?.........s
12E0: 30 31 39 13 80 29 0B 68  90 0F 01 03 1D 56 80 23  019..).h.....V.#
12F0: 29 0B 68 90 0F 01 04 29  0B 68 90 0F 01 05 1D 57  ).h....).h.....W
1300: 80 23 29 0B 68 90 0F 01  06 45 38 80 F8 FF FF 7F  .#).h....E8.....
1310: F8 FF FF 7F 66 64 6F 31  13 80 1C 01 80 52 3F 80  ....fdo1.....R?.
1320: F8 FF FF 7F F8 FF FF 7F  73 30 31 39 46 00 1C 38  ........s019F..8
1330: 80 45 38 80 F8 FF FF 7F  F8 FF FF 7F 66 64 69 31  .E8.........fdi1
1340: 13 80 45 47 80 F0 FF FF  7F F0 FF FF 7F 71 73 74  ..EG.........qst
1350: 63 13 80 20 00 21 00 1C  01 80 29 0B 6A 90 0F 01  c.. .!....).j...
1360: 03 27 0D 6B 90 0F 01 04  29 0B F0 FF FF 7F 20 6C  .'.k....)..... l
1370: 6A 90 0F 01 6E 80 04 80  6C F0 FF FF 7F 45 80 04  j...n...l....E..
1380: 80 79 00 F0 FF FF 7F 6B  90 0F 01 45 47 80 F0 FF  .y.....k...EG...
1390: FF 7F F0 FF FF 7F 77 68  69 31 13 80 45 3F 80 F8  ......whi1..E?..
13A0: FF FF 7F F8 FF FF 7F 73  30 30 35 13 80 1C 6F 80  .......s005...o.
13B0: 52 3F 80 F8 FF FF 7F F8  FF FF 7F 73 30 30 35 45  R?.........s005E
13C0: 38 80 F0 FF FF 7F F0 FF  FF 7F 6F 76 6C 31 13 80  8.........ovl1..
13D0: 02 09 10 41 80 00 EC 13  45 3F 80 F8 FF FF 7F F8  ...A....E?......
13E0: FF FF 7F 73 30 31 35 13  80 01 19 14 02 09 10 0C  ...s015.........
13F0: 80 00 08 14 45 3F 80 F8  FF FF 7F F8 FF FF 7F 73  ....E?.........s
1400: 30 31 35 13 80 01 19 14  45 3F 80 F8 FF FF 7F F8  015.....E?......
1410: FF FF 7F 73 30 30 37 13  80 02 05 10 04 80 00 71  ...s007........q
1420: 14 02 02 10 04 80 00 4D  14 1C 45 80 2B 6A 90 0F  .......M..E.+j..
1430: 01 70 80 23 1C 45 80 2B  6A 90 0F 01 71 80 23 1C  .p.#.E.+j...q.#.
1440: 45 80 2B 6A 90 0F 01 72  80 23 01 6E 14 1C 45 80  E.+j...r.#.n..E.
1450: 2B 6A 90 0F 01 73 80 23  1C 45 80 2B 6A 90 0F 01  +j...s.#.E.+j...
1460: 74 80 23 1C 45 80 2B 6A  90 0F 01 75 80 23 01 BE  t.#.E.+j...u.#..
1470: 14 02 02 10 04 80 00 9D  14 1C 45 80 2B 6A 90 0F  ..........E.+j..
1480: 01 76 80 23 1C 45 80 2B  6A 90 0F 01 77 80 23 1C  .v.#.E.+j...w.#.
1490: 45 80 2B 6A 90 0F 01 78  80 23 01 BE 14 1C 45 80  E.+j...x.#....E.
14A0: 2B 6A 90 0F 01 79 80 23  1C 45 80 2B 6A 90 0F 01  +j...y.#.E.+j...
14B0: 7A 80 23 1C 45 80 2B 6A  90 0F 01 7B 80 23 45 38  z.#.E.+j...{.#E8
14C0: 80 F8 FF FF 7F F8 FF FF  7F 66 64 6F 31 13 80 1C  .........fdo1...
14D0: 01 80 02 05 10 04 80 00  E5 14 1C 45 80 2B 6A 90  ...........E.+j.
14E0: 0F 01 7C 80 23 02 09 10  41 80 00 FF 14 52 3F 80  ..|.#...A....R?.
14F0: F8 FF FF 7F F8 FF FF 7F  73 30 31 35 01 28 15 02  ........s015.(..
1500: 09 10 0C 80 00 19 15 52  3F 80 F8 FF FF 7F F8 FF  .......R?.......
1510: FF 7F 73 30 31 35 01 28  15 52 3F 80 F8 FF FF 7F  ..s015.(.R?.....
1520: F8 FF FF 7F 73 30 30 37  02 09 10 0B 80 00 44 15  ....s007......D.
1530: 45 3F 80 F8 FF FF 7F F8  FF FF 7F 73 30 31 33 13  E?.........s013.
1540: 80 01 C5 15 02 09 10 39  80 00 60 15 45 3F 80 F8  .......9..`.E?..
1550: FF FF 7F F8 FF FF 7F 73  30 31 33 13 80 01 C5 15  .......s013.....
1560: 02 09 10 41 80 00 7C 15  45 3F 80 F8 FF FF 7F F8  ...A..|.E?......
1570: FF FF 7F 73 30 31 36 13  80 01 C5 15 02 09 10 0C  ...s016.........
1580: 80 00 98 15 45 3F 80 F8  FF FF 7F F8 FF FF 7F 73  ....E?.........s
1590: 30 31 36 13 80 01 C5 15  02 09 10 42 80 00 B4 15  016........B....
15A0: 45 3F 80 F8 FF FF 7F F8  FF FF 7F 73 30 31 33 13  E?.........s013.
15B0: 80 01 C5 15 45 3F 80 F8  FF FF 7F F8 FF FF 7F 73  ....E?.........s
15C0: 30 30 38 13 80 45 38 80  F8 FF FF 7F F8 FF FF 7F  008..E8.........
15D0: 66 64 69 31 13 80 79 00  F0 FF FF 7F 6A 90 0F 01  fdi1..y.....j...
15E0: 2B 6A 90 0F 01 7D 80 23  7B F0 FF FF 7F 5D 13 80  +j...}.#{....]..
15F0: 38 80 45 38 80 F8 FF FF  7F F8 FF FF 7F 66 64 6F  8.E8.........fdo
1600: 32 13 80 1C 7E 80 4E 01  6B 90 0F 01 4E 01 6A 90  2...~.N.k...N.j.
1610: 0F 01 02 09 10 0B 80 00  2C 16 52 3F 80 F8 FF FF  ........,.R?....
1620: 7F F8 FF FF 7F 73 30 31  33 01 A3 16 02 09 10 39  .....s013......9
1630: 80 00 46 16 52 3F 80 F8  FF FF 7F F8 FF FF 7F 73  ..F.R?.........s
1640: 30 31 33 01 A3 16 02 09  10 41 80 00 60 16 52 3F  013......A..`.R?
1650: 80 F8 FF FF 7F F8 FF FF  7F 73 30 31 36 01 A3 16  .........s016...
1660: 02 09 10 0C 80 00 7A 16  52 3F 80 F8 FF FF 7F F8  ......z.R?......
1670: FF FF 7F 73 30 31 36 01  A3 16 02 09 10 42 80 00  ...s016......B..
1680: 94 16 52 3F 80 F8 FF FF  7F F8 FF FF 7F 73 30 31  ..R?.........s01
1690: 33 01 A3 16 52 3F 80 F8  FF FF 7F F8 FF FF 7F 73  3...R?.........s
16A0: 30 30 38 24 7F 80 13 80  06 10 25 02 00 10 13 80  008$......%.....
16B0: 00 EC 16 93 07 10 2B 6A  90 0F 01 80 80 23 93 13  ......+j.....#..
16C0: 80 24 81 80 04 80 13 80  25 02 00 10 13 80 00 D9  .$......%.......
16D0: 16 03 01 10 04 80 01 E9  16 02 00 10 04 80 00 E9  ................
16E0: 16 03 01 10 13 80 01 E9  16 01 15 18 02 00 10 04  ................
16F0: 80 00 2D 17 93 08 10 2B  6A 90 0F 01 80 80 23 93  ..-....+j.....#.
1700: 13 80 24 82 80 04 80 13  80 25 02 00 10 13 80 00  ..$......%......
1710: 1A 17 03 01 10 08 80 01  2A 17 02 00 10 04 80 00  ........*.......
1720: 2A 17 03 01 10 13 80 01  2A 17 01 15 18 02 00 10  *.......*.......
1730: 08 80 00 6E 17 93 03 10  2B 6A 90 0F 01 80 80 23  ...n....+j.....#
1740: 93 13 80 24 83 80 04 80  13 80 25 02 00 10 13 80  ...$......%.....
1750: 00 5B 17 03 01 10 0B 80  01 6B 17 02 00 10 04 80  .[.......k......
1760: 00 6B 17 03 01 10 13 80  01 6B 17 01 15 18 02 00  .k.......k......
1770: 10 0B 80 00 AF 17 93 04  10 2B 6A 90 0F 01 80 80  .........+j.....
1780: 23 93 13 80 24 84 80 04  80 13 80 25 02 00 10 13  #...$......%....
1790: 80 00 9C 17 03 01 10 39  80 01 AC 17 02 00 10 04  .......9........
17A0: 80 00 AC 17 03 01 10 13  80 01 AC 17 01 15 18 02  ................
17B0: 00 10 39 80 00 E2 17 24  85 80 04 80 13 80 25 02  ..9....$......%.
17C0: 00 10 13 80 00 CF 17 03  01 10 41 80 01 DF 17 02  ..........A.....
17D0: 00 10 04 80 00 DF 17 03  01 10 13 80 01 DF 17 01  ................
17E0: 15 18 02 00 10 41 80 00  15 18 24 86 80 04 80 13  .....A....$.....
17F0: 80 25 02 00 10 13 80 00  02 18 03 01 10 0C 80 01  .%..............
1800: 12 18 02 00 10 04 80 00  12 18 03 01 10 13 80 01  ................
1810: 12 18 01 15 18 02 01 10  13 80 00 20 18 01 A3 16  ........... ....
1820: 02 01 10 0C 80 03 B0 18  45 3F 80 F8 FF FF 7F F8  ........E?......
1830: FF FF 7F 73 30 30 36 13  80 45 38 80 F8 FF FF 7F  ...s006..E8.....
1840: F8 FF FF 7F 66 64 69 32  13 80 1C 87 80 2B 6A 90  ....fdi2.....+j.
1850: 0F 01 88 80 23 2A 0D 6B  90 0F 01 45 38 80 F8 FF  ....#*.k...E8...
1860: FF 7F F8 FF FF 7F 66 64  6F 32 13 80 1C 45 80 52  ......fdo2...E.R
1870: 3F 80 F8 FF FF 7F F8 FF  FF 7F 73 30 30 36 1C 45  ?.........s006.E
1880: 80 48 89 80 23 1C 6E 80  45 47 80 F0 FF FF 7F F0  .H..#.n.EG......
1890: FF FF 7F 77 68 6F 32 13  80 1C 87 80 45 47 80 F0  ...who2.....EG..
18A0: FF FF 7F F0 FF FF 7F 77  68 69 32 13 80 01 5A 19  .......whi2...Z.
18B0: 45 47 80 F0 FF FF 7F F0  FF FF 7F 77 68 6F 31 13  EG.........who1.
18C0: 80 1C 01 80 45 38 80 F8  FF FF 7F F8 FF FF 7F 66  ....E8.........f
18D0: 64 69 32 13 80 29 0B 6C  90 0F 01 02 2B 6A 90 0F  di2..).l....+j..
18E0: 01 8A 80 23 4E 00 6C 90  0F 01 5C 00 8B 80 5C 01  ...#N.l...\...\.
18F0: 8B 80 5D 54 80 04 80 1C  45 80 80 6C 90 0F 01 45  ..]T....E..l...E
1900: 3F 80 F8 FF FF 7F F8 FF  FF 7F 73 30 30 39 13 80  ?.........s009..
1910: 45 47 80 F0 FF FF 7F F0  FF FF 7F 77 68 69 31 13  EG.........whi1.
1920: 80 2B 6C 90 0F 01 8C 80  23 52 3F 80 F8 FF FF 7F  .+l.....#R?.....
1930: F8 FF FF 7F 73 30 30 39  27 0B 6C 90 0F 01 03 2B  ....s009'.l....+
1940: 6C 90 0F 01 8D 80 23 2B  6C 90 0F 01 8E 80 23 2A  l.....#+l.....#*
1950: 0B 6C 90 0F 01 5D 13 80  38 80 1B                 .l...]..8..     
```

#### Opcodes

```
  0: 0x06AF [0x46] CAMERA_CONTROL: Disable user control
  1: 0x06B1 [0x42] SET_CLI_EVENT_CANCEL_DATA()
  2: 0x06B2 [0x1E] EventEntity looks at LocalPlayer and starts talking
  3: 0x06B7 [0x6F] WAIT_FRAME_DELAY: Yield until WaitTime reaches zero
  4: 0x06B8 [0x70] WAIT_ENTITY_RENDER_FLAG: Wait while EventEntity->Render.Flags3 bit 2 is set (cancel turn if not)
  5: 0x06B9 [0x5D] SET_MUSIC_VOLUME(volume=0*, fade_time=200*)
  6: 0x06BE [0x02] IF !(Work_Zone[4] == 4*) GOTO 0x0AEB
  7: 0x06C6 [0x03] Work_Zone[7] = 17492*
  8: 0x06CB [0x03] Work_Zone[8] = 13242*
  9: 0x06D0 [0x03] Work_Zone[3] = 13561*
 10: 0x06D5 [0x45] LOAD_SCHEDULED_TASK: Load scheduler "fdo1" with entities [EventEntity, EventEntity], work=[200*, 0*]
 11: 0x06E6 [0x1C] WAIT(60* ticks)
 12: 0x06E9 [0x38] SET_CLIENT_EVENT_MODE(mode=19*)
 13: 0x06EC [0x29] REQ_SET_WAIT(priority=0x0B, entity_id=LocalPlayer, tag_num=0x22)
 14: 0x06F3 [0x29] REQ_SET_WAIT(priority=0x0B, entity_id=LocalPlayer, tag_num=0x1F)
 15: 0x06FA [0x29] REQ_SET_WAIT(priority=0x0B, entity_id=Talking Doll (ID: 17797227/0x010F906B), tag_num=0x02)
 16: 0x0701 [0x29] REQ_SET_WAIT(priority=0x0B, entity_id=??? (ID: 17797226/0x010F906A), tag_num=0x02)
 17: 0x0708 [0x4A] Lacia (ID: 17797225/0x010F9069) looks at Ripapa (ID: 17797224/0x010F9068)
 18: 0x0711 [0x4A] LocalPlayer looks at Ripapa (ID: 17797224/0x010F9068)
 19: 0x071A [0x1E] EventEntity looks at LocalPlayer and starts talking
 20: 0x071F [0x6F] WAIT_FRAME_DELAY: Yield until WaitTime reaches zero
