# 17797321 - Coordinator Moogle

## Common Data

| Field            | Value            |
|------------------|------------------|
| Zone             | Mhaura (ID: 249) |
| Block Size       | 3932 bytes       |
| Total Events     | 3                |
| References Count | 76               |

## List of Events

| Event ID              | Entrypoint   |   Size |   Instructions |
|-----------------------|--------------|--------|----------------|
| [65535](#event-65535) | 0x0000       |      1 |              1 |
| [404](#event-404)     | 0x0001       |   3285 |            658 |
| [405](#event-405)     | 0x0CD6       |    312 |             65 |

## DAT References (imed_data)

|   Index | Hex Value   |   Dec Value |
|---------|-------------|-------------|
|       0 | 0x0000      |           0 |
|       1 | 0x0007      |           7 |
|       2 | 0x0008      |           8 |
|       3 | 0x0001      |           1 |
|       4 | 0x0009      |           9 |
|       5 | 0x000A      |          10 |
|       6 | 0x0002      |           2 |
|       7 | 0x0010      |          16 |
|       8 | 0x001F      |          31 |
|       9 | 0x0005      |           5 |
|      10 | 0x000F      |          15 |
|      11 | 0x0003      |           3 |
|      12 | 0x40000000  |  1073741824 |
|      13 | 0x20CF      |        8399 |
|      14 | 0x01F3      |         499 |
|      15 | 0x20D0      |        8400 |
|      16 | 0x20D1      |        8401 |
|      17 | 0x20D2      |        8402 |
|      18 | 0x0004      |           4 |
|      19 | 0x20D3      |        8403 |
|      20 | 0x20D4      |        8404 |
|      21 | 0x20D5      |        8405 |
|      22 | 0x20D6      |        8406 |
|      23 | 0x20D7      |        8407 |
|      24 | 0x20D8      |        8408 |
|      25 | 0x20D9      |        8409 |
|      26 | 0x20DA      |        8410 |
|      27 | 0x20DC      |        8412 |
|      28 | 0xFFFFFFFF  |  4294967295 |
|      29 | 0x1A2C      |        6700 |
|      30 | 0x19D7      |        6615 |
|      31 | 0x0006      |           6 |
|      32 | 0x0DAE      |        3502 |
|      33 | 0x0DAF      |        3503 |
|      34 | 0x000E      |          14 |
|      35 | 0x0D1D      |        3357 |
|      36 | 0x0011      |          17 |
|      37 | 0x7530      |       30000 |
|      38 | 0x000D      |          13 |
|      39 | 0x00C8      |         200 |
|      40 | 0x0064      |         100 |
|      41 | 0x1964      |        6500 |
|      42 | 0x220C      |        8716 |
|      43 | 0x23CE      |        9166 |
|      44 | 0x05AD      |        1453 |
|      45 | 0x05B0      |        1456 |
|      46 | 0x05AA      |        1450 |
|      47 | 0x1668      |        5736 |
|      48 | 0x000B      |          11 |
|      49 | 0x2731      |       10033 |
|      50 | 0x220B      |        8715 |
|      51 | 0x0DD2      |        3538 |
|      52 | 0x0DD3      |        3539 |
|      53 | 0x66A0      |       26272 |
|      54 | 0x23D6      |        9174 |
|      55 | 0x2402      |        9218 |
|      56 | 0x000C      |          12 |
|      57 | 0x20DE      |        8414 |
|      58 | 0x20DF      |        8415 |
|      59 | 0x20DB      |        8411 |
|      60 | 0x20E0      |        8416 |
|      61 | 0x20E1      |        8417 |
|      62 | 0x20E2      |        8418 |
|      63 | 0x2710      |       10000 |
|      64 | 0x1FFF9     |      131065 |
|      65 | 0x20E7      |        8423 |
|      66 | 0x20E3      |        8419 |
|      67 | 0x20E4      |        8420 |
|      68 | 0x20E5      |        8421 |
|      69 | 0x20ED      |        8429 |
|      70 | 0x20EA      |        8426 |
|      71 | 0x20EB      |        8427 |
|      72 | 0x0018      |          24 |
|      73 | 0x20EC      |        8428 |
|      74 | 0x20EF      |        8431 |
|      75 | 0x20F4      |        8436 |

## String References

- **8399**: Good tidings! Vana'Bout Round $0 is currently underway!
- **8400**: Those wishing to participate in Vana'Bout Round $0 must complete the Records of Eminence objective $1.
- **8401**: We're currently in the process of distributing items to those who participated in Vana'Bout round $0, kupo!
- **8402**: How can I help you? [[Check/Receive] personal rewards./[Check/Receive] overall rewards. /View plaudit rankings./Register plaudit rankings./What is Vana'Bout?/Nothing for now.]
- **8403**: Vana'Bout is a special competition in which a specific Records of Eminence objective is available for a certain period of time.
- **8404**: Completing this Records of Eminence objective will reward you with a special Vana'Bout-specific currency known as plaudits, kupo.
- **8405**: Adventurers who earn enough plaudits will be eligible for special rewards!
- **8406**: Even more rewards will be made available based on the total number of plaudits earned by all adventurers, kupo!
- **8407**: The number of plaudits you have earned will be reset once a given round of Vana'Bout has concluded, so make sure you grab your goodies in that time period!
- **8408**: The currently available Vana'Bout Records of Eminence objectives can be viewed from the Vana'Bout section of the Records of Eminence objectives menu.
- **8409**: No special objectives are available at present. Stay tuned for the next event, kupo!
- **8410**: Personal Rewards: ($6 pl.) [Gold: $3+ plaudits.@/Silver: $4+ plaudits.@/Bronze: $5+ plaudits.@/Back.]
- **8411**: The amount of [/exemplar points/experience points/job points] you earn from plaudits will change.
- **8414**: Receiving this reward will render you unable to receive another reward from this category.
- **8415**: Receive $10 deeds? [Yes./No.]
- **8416**: Receive $11 exemplar points? [Yes./No.]
- **8417**: Receive $12 EXP? [Yes./No.]
- **8418**: Receive $23 job points? [Yes./No.]
- **8419**: You will receive $29 $0%0 .
- **8420**: Receive the $28? [Yes./No.]
- **8421**: Receive the $3? [Yes./No.]
- **8423**: Overall rewards [/(not received)/(received)]: [$10 deeds./$11 exemplar points./$12 EXP./$23 job points./$13./$14./$15./$16./$17./$18./$19./$20./$21./$22./$3./$3./$3./Back.]
- **8426**: Register your ranking? [Yes, with my name./Yes, but anonymously./Back.]
- **8427**: Register [with your name/anonymously]? [Yes please./No thanak you.]
- **8428**: Your registration has been accepted, kupo! It may taake a while for this to be reflect in the official records.
- **8431**: $3$3$3L$3$3O$9$z%; Debug: Round $0. [contribution./No. of objective clears./Reset total contribution./Reset objective clears./Reset player./Event: [off/on]./Personal: [off/on]./Overall: [off/on]./Reset Rankings./Back.]
- **8436**: Really reset rankings? [Yes./No.]

## Events

### Event 65535

#### Metadata

| Field        | Value   |
|--------------|---------|
| Entrypoint   | 0x0000  |
| Data Size    | 1 bytes |
| Instructions | 1       |

```
      00 01 02 03 04 05 06 07  08 09 0A 0B 0C 0D 0E 0F
      -- -- -- -- -- -- -- --  -- -- -- -- -- -- -- --
0000: 00                                                .               
```

#### Opcodes

```
  0: 0x0000 [0x00] END_REQSTACK()
```

### Event 404

#### Metadata

| Field        | Value      |
|--------------|------------|
| Entrypoint   | 0x0001     |
| Data Size    | 3285 bytes |
| Instructions | 395        |

```
      00 01 02 03 04 05 06 07  08 09 0A 0B 0C 0D 0E 0F
      -- -- -- -- -- -- -- --  -- -- -- -- -- -- -- --
0000:    41 00 80 01 80 02 10  01 00 3E 02 10 02 80 18   A........>.....
0010: 00 3C 02 00 00 80 03 80  3E 02 10 04 80 26 00 3C  .<......>....&.<
0020: 02 00 03 80 03 80 3E 02  10 05 80 34 00 3C 02 00  ......>....4.<..
0030: 06 80 03 80 41 07 80 08  80 02 10 05 00 41 00 80  ....A........A..
0040: 09 80 03 10 06 00 41 00  80 0A 80 04 10 24 00 41  ......A......$.A
0050: 07 80 08 80 04 10 25 00  41 00 80 0A 80 05 10 26  ......%.A......&
0060: 00 3E 08 10 00 80 6E 00  05 03 00 01 71 00 06 03  .>....n.....q...
0070: 00 3E 08 10 03 80 7E 00  05 09 00 01 81 00 06 09  .>....~.........
0080: 00 3E 08 10 06 80 8E 00  05 0A 00 01 91 00 06 0A  .>..............
0090: 00 3E 08 10 0B 80 9E 00  05 27 00 01 A1 00 06 27  .>.......'.....'
00A0: 00 03 01 10 0C 80 1E F0  FF FF 7F 03 02 10 01 00  ................
00B0: 3E 02 00 00 80 D2 00 1D  0D 80 23 02 03 00 00 80  >.........#.....
00C0: 00 CC 00 03 03 10 0E 80  48 0F 80 23 1A F6 00 01  ........H..#....
00D0: F4 00 3E 02 00 03 80 E3  00 1D 10 80 23 1A F6 00  ..>.........#...
00E0: 01 F4 00 3E 02 00 06 80  F4 00 1D 10 80 23 1A F6  ...>.........#..
00F0: 00 01 F4 00 21 00 05 28  00 02 28 00 00 80 01 59  ....!..(..(....Y
0100: 02 06 2A 00 3E 02 00 00  80 33 01 02 27 00 00 80  ..*.>....3..'...
0110: 01 21 01 3C 2A 00 06 80  03 80 3C 2A 00 0B 80 03  .!.<*.....<*....
0120: 80 02 05 00 00 80 05 30  01 3C 2A 00 0B 80 03 80  .......0.<*.....
0130: 01 3A 01 3C 2A 00 0B 80  03 80 3E 02 00 03 80 49  .:.<*.....>....I
0140: 01 03 03 10 03 80 01 4E  01 03 03 10 00 80 3E 02  .......N......>.
0150: 00 06 80 5D 01 03 04 10  03 80 01 62 01 03 04 10  ...].......b....
0160: 00 80 24 11 80 29 00 2A  00 25 02 00 10 00 80 00  ..$..).*.%......
0170: 8B 01 1A 5A 02 02 08 00  00 80 02 83 01 06 28 00  ...Z..........(.
0180: 01 88 01 03 29 00 00 80  01 56 02 02 00 10 03 80  ....)....V......
0190: 00 B1 01 1A 30 0A 03 29  00 03 80 02 08 00 00 80  ....0..)........
01A0: 02 A9 01 06 28 00 01 AE  01 03 29 00 03 80 01 56  ....(.....)....V
01B0: 02 02 00 10 06 80 00 C4  01 1A B2 0B 03 29 00 06  .............)..
01C0: 80 01 56 02 02 00 10 0B  80 00 D7 01 1A 4D 0C 03  ..V..........M..
01D0: 29 00 0B 80 01 56 02 02  00 10 12 80 00 49 02 2C  )....V.......I.,
01E0: F8 FF FF 7F F8 FF FF 7F  74 6C 6B 30 1D 13 80 23  ........tlk0...#
01F0: 1D 14 80 23 2C F8 FF FF  7F F8 FF FF 7F 65 78 70  ...#,........exp
0200: 30 1D 15 80 23 1D 16 80  23 2C F8 FF FF 7F F8 FF  0...#...#,......
0210: FF 7F 74 6C 6B 30 1D 17  80 23 3E 02 00 00 80 30  ..tlk0...#>....0
0220: 02 02 03 00 00 80 01 2D  02 1D 18 80 23 01 34 02  .......-....#.4.
0230: 1D 19 80 23 2C F8 FF FF  7F F8 FF FF 7F 74 6C 6B  ...#,........tlk
0240: 31 03 29 00 12 80 01 56  02 03 01 10 0C 80 06 28  1.)....V.......(
0250: 00 03 29 00 00 80 01 F9  00 1B 05 2B 00 06 0C 00  ..)........+....
0260: 06 0D 00 06 0E 00 06 0F  00 06 10 00 06 11 00 06  ................
0270: 12 00 06 13 00 06 14 00  06 15 00 06 20 00 06 21  ............ ..!
0280: 00 06 22 00 06 08 00 02  2B 00 00 80 01 06 06 03  ..".....+.......
0290: 05 10 24 00 03 06 10 25  00 03 07 10 26 00 03 08  ..$....%....&...
02A0: 10 05 00 24 1A 80 2C 00  00 80 25 02 00 10 00 80  ...$..,...%.....
02B0: 00 01 04 02 05 00 24 00  03 C3 02 03 13 17 03 80  ......$.........
02C0: 01 D7 02 3E 06 00 00 80  D2 02 03 13 17 06 80 01  ...>............
02D0: D7 02 03 13 17 00 80 03  09 10 00 80 03 0B 00 1B  ................
02E0: 80 03 2D 00 1C 80 02 09  00 00 80 01 F5 02 3D 2D  ..-...........=-
02F0: 00 03 80 03 80 3D 2D 00  06 80 03 80 02 0A 00 00  .....=-.........
0300: 80 01 0B 03 3D 2D 00 0B  80 03 80 3D 2D 00 12 80  ....=-.....=-...
0310: 03 80 03 0C 00 1D 80 03  16 00 03 80 3D 2D 00 09  ............=-..
0320: 80 03 80 03 0D 00 1E 80  03 17 00 0B 80 3D 2D 00  .............=-.
0330: 1F 80 03 80 03 0E 00 20  80 03 18 00 06 80 3D 2D  ....... ......=-
0340: 00 01 80 03 80 03 0F 00  21 80 03 19 00 03 80 3D  ........!......=
0350: 2D 00 22 80 03 80 03 20  00 23 80 3D 2D 00 24 80  -.".... .#.=-.$.
0360: 03 80 03 23 00 24 00 14  23 00 05 80 03 03 17 05  ...#.$..#.......
0370: 00 14 03 17 05 80 02 03  17 23 00 03 83 03 03 03  .........#......
0380: 17 23 00 02 03 17 25 80  02 90 03 03 03 17 25 80  .#....%.......%.
0390: 03 04 17 03 17 03 23 00  24 00 15 23 00 26 80 03  ......#.$..#.&..
03A0: 0F 17 05 00 15 0F 17 26  80 02 0F 17 23 00 03 B6  .......&....#...
03B0: 03 03 0F 17 23 00 02 0F  17 27 80 02 C3 03 03 0F  ....#....'......
03C0: 17 27 80 1A 07 06 02 08  00 00 80 02 F9 03 03 01  .'..............
03D0: 10 00 80 40 00 80 09 80  01 10 08 00 40 1F 80 04  ...@........@...
03E0: 80 01 10 03 80 40 07 80  08 80 01 10 03 80 06 2B  .....@.........+
03F0: 00 03 2C 00 00 80 01 FE  03 03 2C 00 00 80 01 03  ..,.......,.....
0400: 06 02 00 10 03 80 00 15  05 02 05 00 25 00 03 19  ............%...
0410: 04 03 13 17 03 80 01 2D  04 3E 06 00 03 80 28 04  .......-.>....(.
0420: 03 13 17 06 80 01 2D 04  03 13 17 00 80 03 09 10  ......-.........
0430: 03 80 03 0B 00 1B 80 03  2D 00 1C 80 3D 2D 00 00  ........-...=-..
0440: 80 03 80 03 02 17 28 80  3D 2D 00 12 80 03 80 03  ......(.=-......
0450: 0C 00 29 80 03 16 00 0B  80 3D 2D 00 09 80 03 80  ..)......=-.....
0460: 03 0D 00 2A 80 03 17 00  03 80 3D 2D 00 1F 80 03  ...*......=-....
0470: 80 03 0E 00 2B 80 03 18  00 03 80 3D 2D 00 01 80  ....+......=-...
0480: 03 80 03 0F 00 2C 80 03  19 00 03 80 3D 2D 00 02  .....,......=-..
0490: 80 03 80 03 10 00 2D 80  03 1A 00 03 80 3D 2D 00  ......-......=-.
04A0: 04 80 03 80 03 11 00 2E  80 03 1B 00 03 80 3D 2D  ..............=-
04B0: 00 05 80 03 80 03 12 00  2F 80 03 1C 00 0B 80 3D  ......../......=
04C0: 2D 00 30 80 03 80 03 13  00 31 80 03 1D 00 03 80  -.0......1......
04D0: 3D 2D 00 24 80 03 80 1A  07 06 02 08 00 00 80 02  =-.$............
04E0: 0D 05 03 01 10 00 80 40  00 80 09 80 01 10 08 00  .......@........
04F0: 40 1F 80 04 80 01 10 06  80 40 07 80 08 80 01 10  @........@......
0500: 03 80 06 2B 00 03 2C 00  00 80 01 12 05 03 2C 00  ...+..,.......,.
0510: 03 80 01 03 06 02 00 10  06 80 00 FB 05 02 05 00  ................
0520: 26 00 03 2D 05 03 13 17  03 80 01 41 05 3E 06 00  &..-.......A.>..
0530: 06 80 3C 05 03 13 17 06  80 01 41 05 03 13 17 00  ..<.......A.....
0540: 80 03 09 10 06 80 03 0B  00 1B 80 03 2D 00 1C 80  ............-...
0550: 3D 2D 00 12 80 03 80 03  0C 00 32 80 03 16 00 09  =-........2.....
0560: 80 3D 2D 00 09 80 03 80  03 0D 00 33 80 03 17 00  .=-........3....
0570: 03 80 3D 2D 00 1F 80 03  80 03 0E 00 34 80 03 18  ..=-........4...
0580: 00 0B 80 3D 2D 00 01 80  03 80 03 0F 00 35 80 03  ...=-........5..
0590: 19 00 03 80 3D 2D 00 02  80 03 80 03 10 00 36 80  ....=-........6.
05A0: 03 1A 00 03 80 3D 2D 00  04 80 03 80 03 11 00 37  .....=-........7
05B0: 80 03 1B 00 0B 80 3D 2D  00 24 80 03 80 1A 07 06  ......=-.$......
05C0: 02 08 00 00 80 02 F3 05  03 01 10 00 80 40 00 80  .............@..
05D0: 09 80 01 10 08 00 40 1F  80 04 80 01 10 0B 80 40  ......@........@
05E0: 07 80 08 80 01 10 03 80  06 2B 00 03 2C 00 00 80  .........+..,...
05F0: 01 F8 05 03 2C 00 06 80  01 03 06 06 2B 00 03 2C  ....,.......+..,
0600: 00 00 80 01 87 02 1B 05  2E 00 02 2E 00 00 80 01  ................
0610: 2F 0A D4 03 12 80 0C 00  D4 03 09 80 0D 00 D4 03  /...............
0620: 1F 80 0E 00 D4 03 01 80  0F 00 D4 03 02 80 10 00  ................
0630: D4 03 04 80 11 00 D4 03  05 80 12 00 D4 03 30 80  ..............0.
0640: 13 00 D4 03 38 80 14 00  D4 03 26 80 15 00 D4 03  ....8.....&.....
0650: 22 80 1C 80 D4 03 0A 80  1C 80 D4 03 07 80 1C 80  "...............
0660: 03 05 17 0C 00 03 06 17  0D 00 03 07 17 0E 00 03  ................
0670: 08 17 0F 00 03 09 17 10  00 03 0A 17 11 00 03 0B  ................
0680: 17 12 00 03 0C 17 13 00  03 0D 17 14 00 03 0E 17  ................
0690: 15 00 03 10 17 20 00 03  11 17 21 00 03 12 17 22  ..... ....!...."
06A0: 00 03 08 00 00 80 D4 02  0B 00 2F 00 2D 00 25 02  ........../.-.%.
06B0: 00 10 00 80 80 F7 06 02  13 17 00 80 00 EF 06 48  ...............H
06C0: 39 80 03 01 10 00 80 40  00 80 09 80 01 10 0B 80  9......@........
06D0: 43 00 43 01 24 3A 80 03  80 00 80 25 02 00 10 00  C.C.$:.....%....
06E0: 80 00 EF 06 03 08 00 03  80 06 2E 00 01 EF 06 03  ................
06F0: 2F 00 00 80 01 2C 0A 02  00 10 03 80 80 48 07 03  /....,.......H..
0700: 01 17 03 80 1D 3B 80 23  02 13 17 00 80 00 40 07  .....;.#......@.
0710: 48 39 80 03 01 10 00 80  40 00 80 09 80 01 10 06  H9......@.......
0720: 80 43 00 43 01 24 3C 80  03 80 00 80 25 02 00 10  .C.C.$<.....%...
0730: 00 80 00 40 07 03 08 00  06 80 06 2E 00 01 40 07  ...@..........@.
0740: 03 2F 00 03 80 01 2C 0A  02 00 10 06 80 80 99 07  ./....,.........
0750: 03 01 17 06 80 1D 3B 80  23 02 13 17 00 80 00 91  ......;.#.......
0760: 07 48 39 80 03 01 10 00  80 40 00 80 09 80 01 10  .H9......@......
0770: 03 80 43 00 43 01 24 3D  80 03 80 00 80 25 02 00  ..C.C.$=.....%..
0780: 10 00 80 00 91 07 03 08  00 0B 80 06 2E 00 01 91  ................
0790: 07 03 2F 00 06 80 01 2C  0A 02 00 10 0B 80 80 EA  ../....,........
07A0: 07 03 01 17 0B 80 1D 3B  80 23 02 13 17 00 80 00  .......;.#......
07B0: E2 07 48 39 80 03 01 10  00 80 40 00 80 09 80 01  ..H9......@.....
07C0: 10 12 80 43 00 43 01 24  3E 80 03 80 00 80 25 02  ...C.C.$>.....%.
07D0: 00 10 00 80 00 E2 07 03  08 00 12 80 06 2E 00 01  ................
07E0: E2 07 03 2F 00 0B 80 01  2C 0A 02 00 10 12 80 80  .../....,.......
07F0: 17 08 03 14 17 0C 00 03  15 17 16 00 1A 54 0B 02  .............T..
0800: 07 00 00 80 01 0F 08 03  08 00 09 80 06 2E 00 03  ................
0810: 2F 00 12 80 01 2C 0A 02  00 10 09 80 80 44 08 03  /....,.......D..
0820: 14 17 0D 00 03 15 17 17  00 1A 54 0B 02 07 00 00  ..........T.....
0830: 80 01 3C 08 03 08 00 1F  80 06 2E 00 03 2F 00 09  ..<........../..
0840: 80 01 2C 0A 02 00 10 1F  80 80 71 08 03 14 17 0E  ..,.......q.....
0850: 00 03 15 17 18 00 1A 54  0B 02 07 00 00 80 01 69  .......T.......i
0860: 08 03 08 00 01 80 06 2E  00 03 2F 00 1F 80 01 2C  ........../....,
0870: 0A 02 00 10 01 80 80 9E  08 03 14 17 0F 00 03 15  ................
0880: 17 19 00 1A 54 0B 02 07  00 00 80 01 96 08 03 08  ....T...........
0890: 00 02 80 06 2E 00 03 2F  00 01 80 01 2C 0A 02 00  ......./....,...
08A0: 10 02 80 80 CB 08 03 14  17 10 00 03 15 17 1A 00  ................
08B0: 1A 54 0B 02 07 00 00 80  01 C3 08 03 08 00 04 80  .T..............
08C0: 06 2E 00 03 2F 00 02 80  01 2C 0A 02 00 10 04 80  ..../....,......
08D0: 80 F8 08 03 14 17 11 00  03 15 17 1B 00 1A 54 0B  ..............T.
08E0: 02 07 00 00 80 01 F0 08  03 08 00 05 80 06 2E 00  ................
08F0: 03 2F 00 04 80 01 2C 0A  02 00 10 05 80 80 25 09  ./....,.......%.
0900: 03 14 17 12 00 03 15 17  1C 00 1A 54 0B 02 07 00  ...........T....
0910: 00 80 01 1D 09 03 08 00  30 80 06 2E 00 03 2F 00  ........0...../.
0920: 05 80 01 2C 0A 02 00 10  30 80 80 52 09 03 14 17  ...,....0..R....
0930: 13 00 03 15 17 1D 00 1A  54 0B 02 07 00 00 80 01  ........T.......
0940: 4A 09 03 08 00 38 80 06  2E 00 03 2F 00 30 80 01  J....8...../.0..
0950: 2C 0A 02 00 10 38 80 80  7F 09 03 14 17 14 00 03  ,....8..........
0960: 15 17 1E 00 1A 54 0B 02  07 00 00 80 01 77 09 03  .....T.......w..
0970: 08 00 26 80 06 2E 00 03  2F 00 38 80 01 2C 0A 02  ..&...../.8..,..
0980: 00 10 26 80 80 AC 09 03  14 17 15 00 03 15 17 1F  ..&.............
0990: 00 1A 54 0B 02 07 00 00  80 01 A4 09 03 08 00 22  ..T............"
09A0: 80 06 2E 00 03 2F 00 26  80 01 2C 0A 02 00 10 22  ...../.&..,...."
09B0: 80 80 D4 09 03 14 17 20  00 1A 8C 0B 02 07 00 00  ....... ........
09C0: 80 01 CC 09 03 08 00 0A  80 06 2E 00 03 2F 00 22  ............./."
09D0: 80 01 2C 0A 02 00 10 0A  80 80 FC 09 03 14 17 21  ..,............!
09E0: 00 1A 8C 0B 02 07 00 00  80 01 F4 09 03 08 00 07  ................
09F0: 80 06 2E 00 03 2F 00 0A  80 01 2C 0A 02 00 10 07  ...../....,.....
0A00: 80 80 24 0A 03 14 17 22  00 1A 8C 0B 02 07 00 00  ..$...."........
0A10: 80 01 1C 0A 03 08 00 07  80 06 2E 00 03 2F 00 0A  ............./..
0A20: 80 01 2C 0A 06 2E 00 03  2F 00 00 80 01 0A 06 1B  ..,...../.......
0A30: 05 30 00 02 30 00 00 80  01 53 0B 03 03 17 3F 80  .0..0....S....?.
0A40: 03 04 17 3F 80 03 2D 00  40 80 02 09 00 00 80 00  ...?..-.@.......
0A50: 59 0A 3C 2D 00 03 80 03  80 3E 02 00 06 80 87 0A  Y.<-.....>......
0A60: 02 05 00 00 80 05 70 0A  03 13 17 03 80 01 84 0A  ......p.........
0A70: 3E 06 00 0B 80 7F 0A 03  13 17 06 80 01 84 0A 03  >...............
0A80: 13 17 00 80 01 8C 0A 03  13 17 03 80 24 41 80 31  ............$A.1
0A90: 00 2D 00 25 02 00 10 03  80 00 EE 0A 02 13 17 00  .-.%............
0AA0: 80 00 E6 0A 48 39 80 03  01 10 00 80 40 00 80 09  ....H9......@...
0AB0: 80 01 10 06 80 43 00 43  01 24 3C 80 03 80 00 80  .....C.C.$<.....
0AC0: 25 02 00 10 00 80 00 E6  0A 03 08 00 06 80 06 30  %..............0
0AD0: 00 40 00 80 09 80 01 10  08 00 40 07 80 08 80 01  .@........@.....
0AE0: 10 06 80 01 E6 0A 03 31  00 03 80 01 50 0B 02 00  .......1....P...
0AF0: 10 06 80 00 48 0B 02 13  17 00 80 00 40 0B 48 39  ....H.......@.H9
0B00: 80 03 01 10 00 80 40 00  80 09 80 01 10 03 80 43  ......@........C
0B10: 00 43 01 24 3D 80 03 80  00 80 25 02 00 10 00 80  .C.$=.....%.....
0B20: 00 40 0B 03 08 00 0B 80  06 30 00 40 00 80 09 80  .@.......0.@....
0B30: 01 10 08 00 40 07 80 08  80 01 10 06 80 01 40 0B  ....@.........@.
0B40: 03 31 00 06 80 01 50 0B  06 30 00 03 31 00 00 80  .1....P..0..1...
0B50: 01 33 0A 1B 06 07 00 02  15 17 03 80 02 69 0B 93  .3...........i..
0B60: 14 17 48 42 80 23 93 00  80 02 13 17 00 80 02 72  ..HB.#.........r
0B70: 0B 1B 48 39 80 24 43 80  03 80 00 80 25 02 00 10  ..H9.$C.....%...
0B80: 00 80 00 8B 0B 05 07 00  01 8B 0B 1B 06 07 00 02  ................
0B90: 13 17 00 80 02 98 0B 1B  48 39 80 24 44 80 03 80  ........H9.$D...
0BA0: 00 80 25 02 00 10 00 80  00 B1 0B 05 07 00 01 B1  ..%.............
0BB0: 0B 1B 03 32 00 1F 80 B3  00 32 00 B3 01 33 00 34  ...2.....2...3.4
0BC0: 00 35 00 36 00 37 00 38  00 02 33 00 00 80 03 D8  .5.6.7.8..3.....
0BD0: 0B 48 45 80 23 01 4C 0C  42 B3 02 03 3B 00 03 80  .HE.#.L.B...;...
0BE0: 02 3B 00 03 80 00 F2 0B  B3 09 3B 00 1C 03 80 01  .;........;.....
0BF0: E0 0B 06 00 00 3E 02 00  00 80 FF 0B 01 13 0C 3E  .....>.........>
0C00: 02 00 03 80 09 0C 05 00  00 3E 02 00 06 80 13 0C  .........>......
0C10: 05 00 00 02 00 00 00 80  01 4B 0C B3 07 32 00 B3  .........K...2..
0C20: 05 33 00 34 00 35 00 36  00 37 00 38 00 39 00 3A  .3.4.5.6.7.8.9.:
0C30: 00 02 33 00 00 80 04 4B  0C 03 01 10 00 80 40 00  ..3....K......@.
0C40: 80 09 80 01 10 1F 80 43  00 43 01 2E 1B 24 46 80  .......C.C...$F.
0C50: 00 80 00 80 25 02 00 10  00 80 00 65 0C 03 18 17  ....%......e....
0C60: 00 80 01 76 0C 02 00 10  03 80 00 75 0C 03 18 17  ...v.......u....
0C70: 03 80 01 76 0C 1B 24 47  80 03 80 00 80 25 02 00  ...v..$G.....%..
0C80: 10 00 80 00 A6 0C 42 03  01 10 00 80 40 00 80 09  ......B.....@...
0C90: 80 01 10 09 80 40 07 80  48 80 01 10 18 17 43 00  .....@..H.....C.
0CA0: 43 01 2E 01 A7 0C 1B 03  32 00 1F 80 B3 03 32 00  C.......2.....2.
0CB0: B3 05 33 00 34 00 35 00  36 00 37 00 38 00 39 00  ..3.4.5.6.7.8.9.
0CC0: 3A 00 02 33 00 00 80 03  D1 0C 48 45 80 23 01 D5  :..3......HE.#..
0CD0: 0C 1D 49 80 23 1B                                 ..I.#.          
```

#### Opcodes

```
  0: 0x0001 [0x41] ExtData[1]->WorkLocal[1] = Work_Zone[2] (bits 0*-7*)
  1: 0x000A [0x3E] IF !(Work_Zone[2] bit 8*) GOTO 0x0018
  2: 0x0011 [0x3C] SET_BIT_FLAG_CONDITIONAL(target_work_offset=ExtData[1]->WorkLocal[2], bit_index_work_offset=0*, condition_work_offset=1*)
  3: 0x0018 [0x3E] IF !(Work_Zone[2] bit 9*) GOTO 0x0026
  4: 0x001F [0x3C] SET_BIT_FLAG_CONDITIONAL(target_work_offset=ExtData[1]->WorkLocal[2], bit_index_work_offset=1*, condition_work_offset=1*)
  5: 0x0026 [0x3E] IF !(Work_Zone[2] bit 10*) GOTO 0x0034
  6: 0x002D [0x3C] SET_BIT_FLAG_CONDITIONAL(target_work_offset=ExtData[1]->WorkLocal[2], bit_index_work_offset=2*, condition_work_offset=1*)
  7: 0x0034 [0x41] ExtData[1]->WorkLocal[5] = Work_Zone[2] (bits 16*-31*)
  8: 0x003D [0x41] ExtData[1]->WorkLocal[6] = Work_Zone[3] (bits 0*-5*)
  9: 0x0046 [0x41] ExtData[1]->WorkLocal[36] = Work_Zone[4] (bits 0*-15*)
 10: 0x004F [0x41] ExtData[1]->WorkLocal[37] = Work_Zone[4] (bits 16*-31*)
 11: 0x0058 [0x41] ExtData[1]->WorkLocal[38] = Work_Zone[5] (bits 0*-15*)
 12: 0x0061 [0x3E] IF !(Work_Zone[8] bit 0*) GOTO 0x006E
 13: 0x0068 [0x05] ExtData[1]->WorkLocal[3] = 1
 14: 0x006B [0x01] GOTO 0x0071
 15: 0x006E [0x06] ExtData[1]->WorkLocal[3] = 0

SUBROUTINE_0071:
 16: 0x0071 [0x3E] IF !(Work_Zone[8] bit 1*) GOTO 0x007E
 17: 0x0078 [0x05] ExtData[1]->WorkLocal[9] = 1
 18: 0x007B [0x01] GOTO 0x0081
 19: 0x007E [0x06] ExtData[1]->WorkLocal[9] = 0

SUBROUTINE_0081:
 20: 0x0081 [0x3E] IF !(Work_Zone[8] bit 2*) GOTO 0x008E
 21: 0x0088 [0x05] ExtData[1]->WorkLocal[10] = 1
 22: 0x008B [0x01] GOTO 0x0091
 23: 0x008E [0x06] ExtData[1]->WorkLocal[10] = 0

SUBROUTINE_0091:
 24: 0x0091 [0x3E] IF !(Work_Zone[8] bit 3*) GOTO 0x009E
 25: 0x0098 [0x05] ExtData[1]->WorkLocal[39] = 1
 26: 0x009B [0x01] GOTO 0x00A1
 27: 0x009E [0x06] ExtData[1]->WorkLocal[39] = 0

SUBROUTINE_00A1:
 28: 0x00A1 [0x03] Work_Zone[1] = 1073741824*
 29: 0x00A6 [0x1E] EventEntity looks at LocalPlayer and starts talking
 30: 0x00AB [0x03] Work_Zone[2] = ExtData[1]->WorkLocal[1]
 31: 0x00B0 [0x3E] IF !(ExtData[1]->WorkLocal[2] bit 0*) GOTO 0x00D2
 32: 0x00B7 [0x1D] PRINT_EVENT_MESSAGE(message_id=8399*)
    → "Good tidings! Vana'Bout Round $0 is currently underway!"
 33: 0x00BA [0x23] WAIT_FOR_DIALOG_INTERACTION
 34: 0x00BB [0x02] IF !(ExtData[1]->WorkLocal[3] == 0*) GOTO 0x00CC
 35: 0x00C3 [0x03] Work_Zone[3] = 499*
 36: 0x00C8 [0x48] [System] [8400*]:
    → "Those wishing to participate in Vana'Bout Round $0 must complete the Records of Eminence objective $1."
 37: 0x00CB [0x23] WAIT_FOR_DIALOG_INTERACTION
 38: 0x00CC [0x1A] CALL_SUBROUTINE(address=0x00F6)
 39: 0x00CF [0x01] GOTO 0x00F4
 40: 0x00D2 [0x3E] IF !(ExtData[1]->WorkLocal[2] bit 1*) GOTO 0x00E3
 41: 0x00D9 [0x1D] PRINT_EVENT_MESSAGE(message_id=8401*)
    → "We're currently in the process of distributing items to those who participated in Vana'Bout round $0, kupo!"
 42: 0x00DC [0x23] WAIT_FOR_DIALOG_INTERACTION
 43: 0x00DD [0x1A] CALL_SUBROUTINE(address=0x00F6)
 44: 0x00E0 [0x01] GOTO 0x00F4
 45: 0x00E3 [0x3E] IF !(ExtData[1]->WorkLocal[2] bit 2*) GOTO 0x00F4
 46: 0x00EA [0x1D] PRINT_EVENT_MESSAGE(message_id=8401*)
    → "We're currently in the process of distributing items to those who participated in Vana'Bout round $0, kupo!"
 47: 0x00ED [0x23] WAIT_FOR_DIALOG_INTERACTION
 48: 0x00EE [0x1A] CALL_SUBROUTINE(address=0x00F6)
 49: 0x00F1 [0x01] GOTO 0x00F4

SUBROUTINE_00F4:
 50: 0x00F4 [0x21] END_EVENT
 51: 0x00F5 [0x00] END_REQSTACK()

SUBROUTINE_00F6:
 52: 0x00F6 [0x05] ExtData[1]->WorkLocal[40] = 1

SUBROUTINE_00F9:
 53: 0x00F9 [0x02] IF !(ExtData[1]->WorkLocal[40] == 0*) GOTO 0x0259
 54: 0x0101 [0x06] ExtData[1]->WorkLocal[42] = 0
 55: 0x0104 [0x3E] IF !(ExtData[1]->WorkLocal[2] bit 0*) GOTO 0x0133
 56: 0x010B [0x02] IF !(ExtData[1]->WorkLocal[39] == 0*) GOTO 0x0121
 57: 0x0113 [0x3C] SET_BIT_FLAG_CONDITIONAL(target_work_offset=ExtData[1]->WorkLocal[42], bit_index_work_offset=2*, condition_work_offset=1*)
 58: 0x011A [0x3C] SET_BIT_FLAG_CONDITIONAL(target_work_offset=ExtData[1]->WorkLocal[42], bit_index_work_offset=3*, condition_work_offset=1*)
 59: 0x0121 [0x02] IF !(ExtData[1]->WorkLocal[5] > 0*) GOTO 0x0130
 60: 0x0129 [0x3C] SET_BIT_FLAG_CONDITIONAL(target_work_offset=ExtData[1]->WorkLocal[42], bit_index_work_offset=3*, condition_work_offset=1*)
 61: 0x0130 [0x01] GOTO 0x013A
 62: 0x0133 [0x3C] SET_BIT_FLAG_CONDITIONAL(target_work_offset=ExtData[1]->WorkLocal[42], bit_index_work_offset=3*, condition_work_offset=1*)

SUBROUTINE_013A:
 63: 0x013A [0x3E] IF !(ExtData[1]->WorkLocal[2] bit 1*) GOTO 0x0149
 64: 0x0141 [0x03] Work_Zone[3] = 1*
 65: 0x0146 [0x01] GOTO 0x014E
 66: 0x0149 [0x03] Work_Zone[3] = 0*

SUBROUTINE_014E:
 67: 0x014E [0x3E] IF !(ExtData[1]->WorkLocal[2] bit 2*) GOTO 0x015D
 68: 0x0155 [0x03] Work_Zone[4] = 1*
 69: 0x015A [0x01] GOTO 0x0162
 70: 0x015D [0x03] Work_Zone[4] = 0*

SUBROUTINE_0162:
 71: 0x0162 [0x24] CREATE_DIALOG(message_id=8402*, default_option=ExtData[1]->WorkLocal[41], option_flags=ExtData[1]->WorkLocal[42])
    → "How can I help you? [[Check/Receive] personal rewards./[Check/Receive] overall rewards. /View plaudit rankings./Register plaudit rankings./What is Vana'Bout?/Nothing for now.]"
 72: 0x0169 [0x25] WAIT_DIALOG_SELECT()
 73: 0x016A [0x02] IF !(Work_Zone[0] == 0*) GOTO 0x018B
 74: 0x0172 [0x1A] CALL_SUBROUTINE(address=0x025A)
 75: 0x0175 [0x02] IF !(ExtData[1]->WorkLocal[8] <= 0*) GOTO 0x0183
 76: 0x017D [0x06] ExtData[1]->WorkLocal[40] = 0
 77: 0x0180 [0x01] GOTO 0x0188
 78: 0x0183 [0x03] ExtData[1]->WorkLocal[41] = 0*

SUBROUTINE_0188:
 79: 0x0188 [0x01] GOTO 0x0256
 80: 0x018B [0x02] IF !(Work_Zone[0] == 1*) GOTO 0x01B1
 81: 0x0193 [0x1A] CALL_SUBROUTINE(address=0x0A30)
 82: 0x0196 [0x03] ExtData[1]->WorkLocal[41] = 1*
 83: 0x019B [0x02] IF !(ExtData[1]->WorkLocal[8] <= 0*) GOTO 0x01A9
 84: 0x01A3 [0x06] ExtData[1]->WorkLocal[40] = 0
 85: 0x01A6 [0x01] GOTO 0x01AE
 86: 0x01A9 [0x03] ExtData[1]->WorkLocal[41] = 1*

SUBROUTINE_01AE:
 87: 0x01AE [0x01] GOTO 0x0256
 88: 0x01B1 [0x02] IF !(Work_Zone[0] == 2*) GOTO 0x01C4
 89: 0x01B9 [0x1A] CALL_SUBROUTINE(address=0x0BB2)
 90: 0x01BC [0x03] ExtData[1]->WorkLocal[41] = 2*
 91: 0x01C1 [0x01] GOTO 0x0256
 92: 0x01C4 [0x02] IF !(Work_Zone[0] == 3*) GOTO 0x01D7
 93: 0x01CC [0x1A] CALL_SUBROUTINE(address=0x0C4D)
 94: 0x01CF [0x03] ExtData[1]->WorkLocal[41] = 3*
 95: 0x01D4 [0x01] GOTO 0x0256
 96: 0x01D7 [0x02] IF !(Work_Zone[0] == 4*) GOTO 0x0249
 97: 0x01DF [0x2C] CREATE_SCHEDULER_TASK: Create scheduler "tlk0" with entities [EventEntity, EventEntity]
 98: 0x01EC [0x1D] PRINT_EVENT_MESSAGE(message_id=8403*)
    → "Vana'Bout is a special competition in which a specific Records of Eminence objective is available for a certain period of time."
 99: 0x01EF [0x23] WAIT_FOR_DIALOG_INTERACTION
100: 0x01F0 [0x1D] PRINT_EVENT_MESSAGE(message_id=8404*)
    → "Completing this Records of Eminence objective will reward you with a special Vana'Bout-specific currency known as plaudits, kupo."
101: 0x01F3 [0x23] WAIT_FOR_DIALOG_INTERACTION
102: 0x01F4 [0x2C] CREATE_SCHEDULER_TASK: Create scheduler "exp0" with entities [EventEntity, EventEntity]
103: 0x0201 [0x1D] PRINT_EVENT_MESSAGE(message_id=8405*)
    → "Adventurers who earn enough plaudits will be eligible for special rewards!"
104: 0x0204 [0x23] WAIT_FOR_DIALOG_INTERACTION
105: 0x0205 [0x1D] PRINT_EVENT_MESSAGE(message_id=8406*)
    → "Even more rewards will be made available based on the total number of plaudits earned by all adventurers, kupo!"
106: 0x0208 [0x23] WAIT_FOR_DIALOG_INTERACTION
107: 0x0209 [0x2C] CREATE_SCHEDULER_TASK: Create scheduler "tlk0" with entities [EventEntity, EventEntity]
108: 0x0216 [0x1D] PRINT_EVENT_MESSAGE(message_id=8407*)
    → "The number of plaudits you have earned will be reset once a given round of Vana'Bout has concluded, so make sure you grab your goodies in that time period!"
109: 0x0219 [0x23] WAIT_FOR_DIALOG_INTERACTION
110: 0x021A [0x3E] IF !(ExtData[1]->WorkLocal[2] bit 0*) GOTO 0x0230
111: 0x0221 [0x02] IF !(ExtData[1]->WorkLocal[3] == 0*) GOTO 0x022D
112: 0x0229 [0x1D] PRINT_EVENT_MESSAGE(message_id=8408*)
    → "The currently available Vana'Bout Records of Eminence objectives can be viewed from the Vana'Bout section of the Records of Eminence objectives menu."
113: 0x022C [0x23] WAIT_FOR_DIALOG_INTERACTION
114: 0x022D [0x01] GOTO 0x0234
115: 0x0230 [0x1D] PRINT_EVENT_MESSAGE(message_id=8409*)
    → "No special objectives are available at present. Stay tuned for the next event, kupo!"
116: 0x0233 [0x23] WAIT_FOR_DIALOG_INTERACTION

SUBROUTINE_0234:
117: 0x0234 [0x2C] CREATE_SCHEDULER_TASK: Create scheduler "tlk1" with entities [EventEntity, EventEntity]
118: 0x0241 [0x03] ExtData[1]->WorkLocal[41] = 4*
119: 0x0246 [0x01] GOTO 0x0256
120: 0x0249 [0x03] Work_Zone[1] = 1073741824*
121: 0x024E [0x06] ExtData[1]->WorkLocal[40] = 0
122: 0x0251 [0x03] ExtData[1]->WorkLocal[41] = 0*

SUBROUTINE_0256:
123: 0x0256 [0x01] GOTO 0x00F9
124: 0x0259 [0x1B] RETURN

SUBROUTINE_025A:
125: 0x025A [0x05] ExtData[1]->WorkLocal[43] = 1
126: 0x025D [0x06] ExtData[1]->WorkLocal[12] = 0
127: 0x0260 [0x06] ExtData[1]->WorkLocal[13] = 0
128: 0x0263 [0x06] ExtData[1]->WorkLocal[14] = 0
129: 0x0266 [0x06] ExtData[1]->WorkLocal[15] = 0
130: 0x0269 [0x06] ExtData[1]->WorkLocal[16] = 0
131: 0x026C [0x06] ExtData[1]->WorkLocal[17] = 0
132: 0x026F [0x06] ExtData[1]->WorkLocal[18] = 0
133: 0x0272 [0x06] ExtData[1]->WorkLocal[19] = 0
134: 0x0275 [0x06] ExtData[1]->WorkLocal[20] = 0
135: 0x0278 [0x06] ExtData[1]->WorkLocal[21] = 0
136: 0x027B [0x06] ExtData[1]->WorkLocal[32] = 0
137: 0x027E [0x06] ExtData[1]->WorkLocal[33] = 0
138: 0x0281 [0x06] ExtData[1]->WorkLocal[34] = 0
139: 0x0284 [0x06] ExtData[1]->WorkLocal[8] = 0

SUBROUTINE_0287:
140: 0x0287 [0x02] IF !(ExtData[1]->WorkLocal[43] == 0*) GOTO 0x0606
141: 0x028F [0x03] Work_Zone[5] = ExtData[1]->WorkLocal[36]
142: 0x0294 [0x03] Work_Zone[6] = ExtData[1]->WorkLocal[37]
143: 0x0299 [0x03] Work_Zone[7] = ExtData[1]->WorkLocal[38]
144: 0x029E [0x03] Work_Zone[8] = ExtData[1]->WorkLocal[5]
145: 0x02A3 [0x24] CREATE_DIALOG(message_id=8410*, default_option=ExtData[1]->WorkLocal[44], option_flags=0*)
    → "Personal Rewards: ($6 pl.) [Gold: $3+ plaudits.@/Silver: $4+ plaudits.@/Bronze: $5+ plaudits.@/Back.]"
146: 0x02AA [0x25] WAIT_DIALOG_SELECT()
147: 0x02AB [0x02] IF !(Work_Zone[0] == 0*) GOTO 0x0401
148: 0x02B3 [0x02] IF !(ExtData[1]->WorkLocal[5] >= ExtData[1]->WorkLocal[36]) GOTO 0x02C3
149: 0x02BB [0x03] Work_Zone_1700[19] = 1*
150: 0x02C0 [0x01] GOTO 0x02D7
151: 0x02C3 [0x3E] IF !(ExtData[1]->WorkLocal[6] bit 0*) GOTO 0x02D2
152: 0x02CA [0x03] Work_Zone_1700[19] = 2*
153: 0x02CF [0x01] GOTO 0x02D7
154: 0x02D2 [0x03] Work_Zone_1700[19] = 0*

SUBROUTINE_02D7:
155: 0x02D7 [0x03] Work_Zone[9] = 0*
156: 0x02DC [0x03] ExtData[1]->WorkLocal[11] = 8412*
157: 0x02E1 [0x03] ExtData[1]->WorkLocal[45] = 4294967295*
158: 0x02E6 [0x02] IF !(ExtData[1]->WorkLocal[9] == 0*) GOTO 0x02F5
159: 0x02EE [0x3D] CLEAR_BIT_FLAG_CONDITIONAL(target_work_offset=ExtData[1]->WorkLocal[45], bit_index_work_offset=1*, condition_work_offset=1*)
160: 0x02F5 [0x3D] CLEAR_BIT_FLAG_CONDITIONAL(target_work_offset=ExtData[1]->WorkLocal[45], bit_index_work_offset=2*, condition_work_offset=1*)
161: 0x02FC [0x02] IF !(ExtData[1]->WorkLocal[10] == 0*) GOTO 0x030B
162: 0x0304 [0x3D] CLEAR_BIT_FLAG_CONDITIONAL(target_work_offset=ExtData[1]->WorkLocal[45], bit_index_work_offset=3*, condition_work_offset=1*)
163: 0x030B [0x3D] CLEAR_BIT_FLAG_CONDITIONAL(target_work_offset=ExtData[1]->WorkLocal[45], bit_index_work_offset=4*, condition_work_offset=1*)
164: 0x0312 [0x03] ExtData[1]->WorkLocal[12] = 6700*
165: 0x0317 [0x03] ExtData[1]->WorkLocal[22] = 1*
166: 0x031C [0x3D] CLEAR_BIT_FLAG_CONDITIONAL(target_work_offset=ExtData[1]->WorkLocal[45], bit_index_work_offset=5*, condition_work_offset=1*)
167: 0x0323 [0x03] ExtData[1]->WorkLocal[13] = 6615*
168: 0x0328 [0x03] ExtData[1]->WorkLocal[23] = 3*
169: 0x032D [0x3D] CLEAR_BIT_FLAG_CONDITIONAL(target_work_offset=ExtData[1]->WorkLocal[45], bit_index_work_offset=6*, condition_work_offset=1*)
170: 0x0334 [0x03] ExtData[1]->WorkLocal[14] = 3502*
171: 0x0339 [0x03] ExtData[1]->WorkLocal[24] = 2*
172: 0x033E [0x3D] CLEAR_BIT_FLAG_CONDITIONAL(target_work_offset=ExtData[1]->WorkLocal[45], bit_index_work_offset=7*, condition_work_offset=1*)
173: 0x0345 [0x03] ExtData[1]->WorkLocal[15] = 3503*
174: 0x034A [0x03] ExtData[1]->WorkLocal[25] = 1*
175: 0x034F [0x3D] CLEAR_BIT_FLAG_CONDITIONAL(target_work_offset=ExtData[1]->WorkLocal[45], bit_index_work_offset=14*, condition_work_offset=1*)
176: 0x0356 [0x03] ExtData[1]->WorkLocal[32] = 3357*
177: 0x035B [0x3D] CLEAR_BIT_FLAG_CONDITIONAL(target_work_offset=ExtData[1]->WorkLocal[45], bit_index_work_offset=17*, condition_work_offset=1*)
178: 0x0362 [0x03] ExtData[1]->WorkLocal[35] = ExtData[1]->WorkLocal[36]
179: 0x0367 [0x14] ExtData[1]->WorkLocal[35] *= 10*
180: 0x036C [0x03] Work_Zone_1700[3] = ExtData[1]->WorkLocal[5]
181: 0x0371 [0x14] Work_Zone_1700[3] *= 10*
182: 0x0376 [0x02] IF !(Work_Zone_1700[3] >= ExtData[1]->WorkLocal[35]) GOTO 0x0383
183: 0x037E [0x03] Work_Zone_1700[3] = ExtData[1]->WorkLocal[35]
184: 0x0383 [0x02] IF !(Work_Zone_1700[3] <= 30000*) GOTO 0x0390
185: 0x038B [0x03] Work_Zone_1700[3] = 30000*
186: 0x0390 [0x03] Work_Zone_1700[4] = Work_Zone_1700[3]
187: 0x0395 [0x03] ExtData[1]->WorkLocal[35] = ExtData[1]->WorkLocal[36]
188: 0x039A [0x15] ExtData[1]->WorkLocal[35] /= 13*
189: 0x039F [0x03] Work_Zone_1700[15] = ExtData[1]->WorkLocal[5]
190: 0x03A4 [0x15] Work_Zone_1700[15] /= 13*
191: 0x03A9 [0x02] IF !(Work_Zone_1700[15] >= ExtData[1]->WorkLocal[35]) GOTO 0x03B6
192: 0x03B1 [0x03] Work_Zone_1700[15] = ExtData[1]->WorkLocal[35]
193: 0x03B6 [0x02] IF !(Work_Zone_1700[15] <= 200*) GOTO 0x03C3
194: 0x03BE [0x03] Work_Zone_1700[15] = 200*
195: 0x03C3 [0x1A] CALL_SUBROUTINE(address=0x0607)
196: 0x03C6 [0x02] IF !(ExtData[1]->WorkLocal[8] <= 0*) GOTO 0x03F9
197: 0x03CE [0x03] Work_Zone[1] = 0*
198: 0x03D3 [0x40] SET_BIT_WORK_RANGE(start_bit=0*, end_bit=5*, target=Work_Zone[1], source=ExtData[1]->WorkLocal[8])
199: 0x03DC [0x40] SET_BIT_WORK_RANGE(start_bit=6*, end_bit=9*, target=Work_Zone[1], source=1*)
200: 0x03E5 [0x40] SET_BIT_WORK_RANGE(start_bit=16*, end_bit=31*, target=Work_Zone[1], source=1*)
201: 0x03EE [0x06] ExtData[1]->WorkLocal[43] = 0
202: 0x03F1 [0x03] ExtData[1]->WorkLocal[44] = 0*
203: 0x03F6 [0x01] GOTO 0x03FE
204: 0x03F9 [0x03] ExtData[1]->WorkLocal[44] = 0*

SUBROUTINE_03FE:
205: 0x03FE [0x01] GOTO 0x0603
206: 0x0401 [0x02] IF !(Work_Zone[0] == 1*) GOTO 0x0515
207: 0x0409 [0x02] IF !(ExtData[1]->WorkLocal[5] >= ExtData[1]->WorkLocal[37]) GOTO 0x0419
208: 0x0411 [0x03] Work_Zone_1700[19] = 1*
209: 0x0416 [0x01] GOTO 0x042D
210: 0x0419 [0x3E] IF !(ExtData[1]->WorkLocal[6] bit 1*) GOTO 0x0428
211: 0x0420 [0x03] Work_Zone_1700[19] = 2*
212: 0x0425 [0x01] GOTO 0x042D
213: 0x0428 [0x03] Work_Zone_1700[19] = 0*

SUBROUTINE_042D:
214: 0x042D [0x03] Work_Zone[9] = 1*
215: 0x0432 [0x03] ExtData[1]->WorkLocal[11] = 8412*
216: 0x0437 [0x03] ExtData[1]->WorkLocal[45] = 4294967295*
217: 0x043C [0x3D] CLEAR_BIT_FLAG_CONDITIONAL(target_work_offset=ExtData[1]->WorkLocal[45], bit_index_work_offset=0*, condition_work_offset=1*)
218: 0x0443 [0x03] Work_Zone_1700[2] = 100*
219: 0x0448 [0x3D] CLEAR_BIT_FLAG_CONDITIONAL(target_work_offset=ExtData[1]->WorkLocal[45], bit_index_work_offset=4*, condition_work_offset=1*)
220: 0x044F [0x03] ExtData[1]->WorkLocal[12] = 6500*
221: 0x0454 [0x03] ExtData[1]->WorkLocal[22] = 3*
222: 0x0459 [0x3D] CLEAR_BIT_FLAG_CONDITIONAL(target_work_offset=ExtData[1]->WorkLocal[45], bit_index_work_offset=5*, condition_work_offset=1*)
223: 0x0460 [0x03] ExtData[1]->WorkLocal[13] = 8716*
224: 0x0465 [0x03] ExtData[1]->WorkLocal[23] = 1*
225: 0x046A [0x3D] CLEAR_BIT_FLAG_CONDITIONAL(target_work_offset=ExtData[1]->WorkLocal[45], bit_index_work_offset=6*, condition_work_offset=1*)
226: 0x0471 [0x03] ExtData[1]->WorkLocal[14] = 9166*
227: 0x0476 [0x03] ExtData[1]->WorkLocal[24] = 1*
228: 0x047B [0x3D] CLEAR_BIT_FLAG_CONDITIONAL(target_work_offset=ExtData[1]->WorkLocal[45], bit_index_work_offset=7*, condition_work_offset=1*)
229: 0x0482 [0x03] ExtData[1]->WorkLocal[15] = 1453*
230: 0x0487 [0x03] ExtData[1]->WorkLocal[25] = 1*
231: 0x048C [0x3D] CLEAR_BIT_FLAG_CONDITIONAL(target_work_offset=ExtData[1]->WorkLocal[45], bit_index_work_offset=8*, condition_work_offset=1*)
232: 0x0493 [0x03] ExtData[1]->WorkLocal[16] = 1456*
233: 0x0498 [0x03] ExtData[1]->WorkLocal[26] = 1*
234: 0x049D [0x3D] CLEAR_BIT_FLAG_CONDITIONAL(target_work_offset=ExtData[1]->WorkLocal[45], bit_index_work_offset=9*, condition_work_offset=1*)
235: 0x04A4 [0x03] ExtData[1]->WorkLocal[17] = 1450*
236: 0x04A9 [0x03] ExtData[1]->WorkLocal[27] = 1*
237: 0x04AE [0x3D] CLEAR_BIT_FLAG_CONDITIONAL(target_work_offset=ExtData[1]->WorkLocal[45], bit_index_work_offset=10*, condition_work_offset=1*)
238: 0x04B5 [0x03] ExtData[1]->WorkLocal[18] = 5736*
239: 0x04BA [0x03] ExtData[1]->WorkLocal[28] = 3*
240: 0x04BF [0x3D] CLEAR_BIT_FLAG_CONDITIONAL(target_work_offset=ExtData[1]->WorkLocal[45], bit_index_work_offset=11*, condition_work_offset=1*)
241: 0x04C6 [0x03] ExtData[1]->WorkLocal[19] = 10033*
242: 0x04CB [0x03] ExtData[1]->WorkLocal[29] = 1*
243: 0x04D0 [0x3D] CLEAR_BIT_FLAG_CONDITIONAL(target_work_offset=ExtData[1]->WorkLocal[45], bit_index_work_offset=17*, condition_work_offset=1*)
244: 0x04D7 [0x1A] CALL_SUBROUTINE(address=0x0607)
245: 0x04DA [0x02] IF !(ExtData[1]->WorkLocal[8] <= 0*) GOTO 0x050D
246: 0x04E2 [0x03] Work_Zone[1] = 0*
247: 0x04E7 [0x40] SET_BIT_WORK_RANGE(start_bit=0*, end_bit=5*, target=Work_Zone[1], source=ExtData[1]->WorkLocal[8])
248: 0x04F0 [0x40] SET_BIT_WORK_RANGE(start_bit=6*, end_bit=9*, target=Work_Zone[1], source=2*)
249: 0x04F9 [0x40] SET_BIT_WORK_RANGE(start_bit=16*, end_bit=31*, target=Work_Zone[1], source=1*)
250: 0x0502 [0x06] ExtData[1]->WorkLocal[43] = 0
251: 0x0505 [0x03] ExtData[1]->WorkLocal[44] = 0*
252: 0x050A [0x01] GOTO 0x0512
253: 0x050D [0x03] ExtData[1]->WorkLocal[44] = 1*

SUBROUTINE_0512:
254: 0x0512 [0x01] GOTO 0x0603
255: 0x0515 [0x02] IF !(Work_Zone[0] == 2*) GOTO 0x05FB
256: 0x051D [0x02] IF !(ExtData[1]->WorkLocal[5] >= ExtData[1]->WorkLocal[38]) GOTO 0x052D
257: 0x0525 [0x03] Work_Zone_1700[19] = 1*
258: 0x052A [0x01] GOTO 0x0541
259: 0x052D [0x3E] IF !(ExtData[1]->WorkLocal[6] bit 2*) GOTO 0x053C
260: 0x0534 [0x03] Work_Zone_1700[19] = 2*
261: 0x0539 [0x01] GOTO 0x0541
262: 0x053C [0x03] Work_Zone_1700[19] = 0*

SUBROUTINE_0541:
263: 0x0541 [0x03] Work_Zone[9] = 2*
264: 0x0546 [0x03] ExtData[1]->WorkLocal[11] = 8412*
265: 0x054B [0x03] ExtData[1]->WorkLocal[45] = 4294967295*
266: 0x0550 [0x3D] CLEAR_BIT_FLAG_CONDITIONAL(target_work_offset=ExtData[1]->WorkLocal[45], bit_index_work_offset=4*, condition_work_offset=1*)
267: 0x0557 [0x03] ExtData[1]->WorkLocal[12] = 8715*
268: 0x055C [0x03] ExtData[1]->WorkLocal[22] = 5*
269: 0x0561 [0x3D] CLEAR_BIT_FLAG_CONDITIONAL(target_work_offset=ExtData[1]->WorkLocal[45], bit_index_work_offset=5*, condition_work_offset=1*)
270: 0x0568 [0x03] ExtData[1]->WorkLocal[13] = 3538*
271: 0x056D [0x03] ExtData[1]->WorkLocal[23] = 1*
272: 0x0572 [0x3D] CLEAR_BIT_FLAG_CONDITIONAL(target_work_offset=ExtData[1]->WorkLocal[45], bit_index_work_offset=6*, condition_work_offset=1*)
273: 0x0579 [0x03] ExtData[1]->WorkLocal[14] = 3539*
274: 0x057E [0x03] ExtData[1]->WorkLocal[24] = 3*
275: 0x0583 [0x3D] CLEAR_BIT_FLAG_CONDITIONAL(target_work_offset=ExtData[1]->WorkLocal[45], bit_index_work_offset=7*, condition_work_offset=1*)
276: 0x058A [0x03] ExtData[1]->WorkLocal[15] = 26272*
277: 0x058F [0x03] ExtData[1]->WorkLocal[25] = 1*
278: 0x0594 [0x3D] CLEAR_BIT_FLAG_CONDITIONAL(target_work_offset=ExtData[1]->WorkLocal[45], bit_index_work_offset=8*, condition_work_offset=1*)
279: 0x059B [0x03] ExtData[1]->WorkLocal[16] = 9174*
280: 0x05A0 [0x03] ExtData[1]->WorkLocal[26] = 1*
281: 0x05A5 [0x3D] CLEAR_BIT_FLAG_CONDITIONAL(target_work_offset=ExtData[1]->WorkLocal[45], bit_index_work_offset=9*, condition_work_offset=1*)
282: 0x05AC [0x03] ExtData[1]->WorkLocal[17] = 9218*
283: 0x05B1 [0x03] ExtData[1]->WorkLocal[27] = 3*
284: 0x05B6 [0x3D] CLEAR_BIT_FLAG_CONDITIONAL(target_work_offset=ExtData[1]->WorkLocal[45], bit_index_work_offset=17*, condition_work_offset=1*)
285: 0x05BD [0x1A] CALL_SUBROUTINE(address=0x0607)
286: 0x05C0 [0x02] IF !(ExtData[1]->WorkLocal[8] <= 0*) GOTO 0x05F3
287: 0x05C8 [0x03] Work_Zone[1] = 0*
288: 0x05CD [0x40] SET_BIT_WORK_RANGE(start_bit=0*, end_bit=5*, target=Work_Zone[1], source=ExtData[1]->WorkLocal[8])
289: 0x05D6 [0x40] SET_BIT_WORK_RANGE(start_bit=6*, end_bit=9*, target=Work_Zone[1], source=3*)
290: 0x05DF [0x40] SET_BIT_WORK_RANGE(start_bit=16*, end_bit=31*, target=Work_Zone[1], source=1*)
291: 0x05E8 [0x06] ExtData[1]->WorkLocal[43] = 0
292: 0x05EB [0x03] ExtData[1]->WorkLocal[44] = 0*
293: 0x05F0 [0x01] GOTO 0x05F8
294: 0x05F3 [0x03] ExtData[1]->WorkLocal[44] = 2*

SUBROUTINE_05F8:
295: 0x05F8 [0x01] GOTO 0x0603
296: 0x05FB [0x06] ExtData[1]->WorkLocal[43] = 0
297: 0x05FE [0x03] ExtData[1]->WorkLocal[44] = 0*

SUBROUTINE_0603:
298: 0x0603 [0x01] GOTO 0x0287
299: 0x0606 [0x1B] RETURN

SUBROUTINE_0607:
300: 0x0607 [0x05] ExtData[1]->WorkLocal[46] = 1

SUBROUTINE_060A:
301: 0x060A [0x02] IF !(ExtData[1]->WorkLocal[46] == 0*) GOTO 0x0A2F
302: 0x0612 [0xD4] MAP_QUERY_WINDOW: Prepare buffer configuration A (buffer=[12 80 0C 00 D4 03 09 80...])
303: 0x0630 [0xD4] MAP_QUERY_WINDOW: Prepare buffer configuration A (buffer=[04 80 11 00 D4 03 05 80...])
304: 0x064E [0xD4] MAP_QUERY_WINDOW: Prepare buffer configuration A (buffer=[22 80 1C 80 D4 03 0A 80...])
305: 0x066C [0x17] ExtData[1]->WorkLocal[14] = cos(0x0803) * 0x0F17
306: 0x0673 [0x00] END_REQSTACK()

SUBROUTINE_0A30:
307: 0x0A30 [0x05] ExtData[1]->WorkLocal[48] = 1

SUBROUTINE_0A33:
308: 0x0A33 [0x02] IF !(ExtData[1]->WorkLocal[48] == 0*) GOTO 0x0B53
309: 0x0A3B [0x03] Work_Zone_1700[3] = 10000*
310: 0x0A40 [0x03] Work_Zone_1700[4] = 10000*
311: 0x0A45 [0x03] ExtData[1]->WorkLocal[45] = 131065*
312: 0x0A4A [0x02] IF !(ExtData[1]->WorkLocal[9] == 0*) GOTO 0x0A59
313: 0x0A52 [0x3C] SET_BIT_FLAG_CONDITIONAL(target_work_offset=ExtData[1]->WorkLocal[45], bit_index_work_offset=1*, condition_work_offset=1*)
314: 0x0A59 [0x3E] IF !(ExtData[1]->WorkLocal[2] bit 2*) GOTO 0x0A87
315: 0x0A60 [0x02] IF !(ExtData[1]->WorkLocal[5] > 0*) GOTO 0x0A70
316: 0x0A68 [0x03] Work_Zone_1700[19] = 1*
317: 0x0A6D [0x01] GOTO 0x0A84
318: 0x0A70 [0x3E] IF !(ExtData[1]->WorkLocal[6] bit 3*) GOTO 0x0A7F
319: 0x0A77 [0x03] Work_Zone_1700[19] = 2*
320: 0x0A7C [0x01] GOTO 0x0A84
321: 0x0A7F [0x03] Work_Zone_1700[19] = 0*

SUBROUTINE_0A84:
322: 0x0A84 [0x01] GOTO 0x0A8C
323: 0x0A87 [0x03] Work_Zone_1700[19] = 1*

SUBROUTINE_0A8C:
324: 0x0A8C [0x24] CREATE_DIALOG(message_id=8423*, default_option=ExtData[1]->WorkLocal[49], option_flags=ExtData[1]->WorkLocal[45])
    → "Overall rewards [/(not received)/(received)]: [$10 deeds./$11 exemplar points./$12 EXP./$23 job points./$13./$14./$15./$16./$17./$18./$19./$20./$21./$22./$3./$3./$3./Back.]"
325: 0x0A93 [0x25] WAIT_DIALOG_SELECT()
326: 0x0A94 [0x02] IF !(Work_Zone[0] == 1*) GOTO 0x0AEE
327: 0x0A9C [0x02] IF !(Work_Zone_1700[19] == 0*) GOTO 0x0AE6
328: 0x0AA4 [0x48] [System] [8414*]:
    → "Receiving this reward will render you unable to receive another reward from this category."
329: 0x0AA7 [0x03] Work_Zone[1] = 0*
330: 0x0AAC [0x40] SET_BIT_WORK_RANGE(start_bit=0*, end_bit=5*, target=Work_Zone[1], source=2*)
331: 0x0AB5 [0x43] SEND_EVENT_UPDATE: Send pending tag to server (packet 0x005B)
332: 0x0AB7 [0x43] SEND_EVENT_UPDATE: Check pending flag (skip if not pending)
333: 0x0AB9 [0x24] CREATE_DIALOG(message_id=8416*, default_option=1*, option_flags=0*)
    → "Receive $11 exemplar points? [Yes./No.]"
334: 0x0AC0 [0x25] WAIT_DIALOG_SELECT()
335: 0x0AC1 [0x02] IF !(Work_Zone[0] == 0*) GOTO 0x0AE6
336: 0x0AC9 [0x03] ExtData[1]->WorkLocal[8] = 2*
337: 0x0ACE [0x06] ExtData[1]->WorkLocal[48] = 0
338: 0x0AD1 [0x40] SET_BIT_WORK_RANGE(start_bit=0*, end_bit=5*, target=Work_Zone[1], source=ExtData[1]->WorkLocal[8])
339: 0x0ADA [0x40] SET_BIT_WORK_RANGE(start_bit=16*, end_bit=31*, target=Work_Zone[1], source=2*)
340: 0x0AE3 [0x01] GOTO 0x0AE6

SUBROUTINE_0AE6:
341: 0x0AE6 [0x03] ExtData[1]->WorkLocal[49] = 1*
342: 0x0AEB [0x01] GOTO 0x0B50
343: 0x0AEE [0x02] IF !(Work_Zone[0] == 2*) GOTO 0x0B48
344: 0x0AF6 [0x02] IF !(Work_Zone_1700[19] == 0*) GOTO 0x0B40
345: 0x0AFE [0x48] [System] [8414*]:
    → "Receiving this reward will render you unable to receive another reward from this category."
346: 0x0B01 [0x03] Work_Zone[1] = 0*
347: 0x0B06 [0x40] SET_BIT_WORK_RANGE(start_bit=0*, end_bit=5*, target=Work_Zone[1], source=1*)
348: 0x0B0F [0x43] SEND_EVENT_UPDATE: Send pending tag to server (packet 0x005B)
349: 0x0B11 [0x43] SEND_EVENT_UPDATE: Check pending flag (skip if not pending)
350: 0x0B13 [0x24] CREATE_DIALOG(message_id=8417*, default_option=1*, option_flags=0*)
    → "Receive $12 EXP? [Yes./No.]"
351: 0x0B1A [0x25] WAIT_DIALOG_SELECT()
352: 0x0B1B [0x02] IF !(Work_Zone[0] == 0*) GOTO 0x0B40
353: 0x0B23 [0x03] ExtData[1]->WorkLocal[8] = 3*
354: 0x0B28 [0x06] ExtData[1]->WorkLocal[48] = 0
355: 0x0B2B [0x40] SET_BIT_WORK_RANGE(start_bit=0*, end_bit=5*, target=Work_Zone[1], source=ExtData[1]->WorkLocal[8])
356: 0x0B34 [0x40] SET_BIT_WORK_RANGE(start_bit=16*, end_bit=31*, target=Work_Zone[1], source=2*)
357: 0x0B3D [0x01] GOTO 0x0B40

SUBROUTINE_0B40:
358: 0x0B40 [0x03] ExtData[1]->WorkLocal[49] = 2*
359: 0x0B45 [0x01] GOTO 0x0B50
360: 0x0B48 [0x06] ExtData[1]->WorkLocal[48] = 0
361: 0x0B4B [0x03] ExtData[1]->WorkLocal[49] = 0*

SUBROUTINE_0B50:
362: 0x0B50 [0x01] GOTO 0x0A33
363: 0x0B53 [0x1B] RETURN

SUBROUTINE_0BB2:
364: 0x0BB2 [0x03] ExtData[1]->WorkLocal[50] = 6*
365: 0x0BB7 [0xB3] RANKINGS_BOARD_HANDLER(case_type=0x00)
366: 0x0BB9 [0x32] ExtData[1]->MainSpeed = 0xB300 * 0.1
367: 0x0BBC [0x01] GOTO 0x0033

SUBROUTINE_0C4D:
368: 0x0C4D [0x24] CREATE_DIALOG(message_id=8426*, default_option=0*, option_flags=0*)
    → "Register your ranking? [Yes, with my name./Yes, but anonymously./Back.]"
369: 0x0C54 [0x25] WAIT_DIALOG_SELECT()
370: 0x0C55 [0x02] IF !(Work_Zone[0] == 0*) GOTO 0x0C65
371: 0x0C5D [0x03] Work_Zone_1700[24] = 0*
372: 0x0C62 [0x01] GOTO 0x0C76
373: 0x0C65 [0x02] IF !(Work_Zone[0] == 1*) GOTO 0x0C75
374: 0x0C6D [0x03] Work_Zone_1700[24] = 1*
375: 0x0C72 [0x01] GOTO 0x0C76
376: 0x0C75 [0x1B] RETURN

SUBROUTINE_0C76:
377: 0x0C76 [0x24] CREATE_DIALOG(message_id=8427*, default_option=1*, option_flags=0*)
    → "Register [with your name/anonymously]? [Yes please./No thanak you.]"
378: 0x0C7D [0x25] WAIT_DIALOG_SELECT()
379: 0x0C7E [0x02] IF !(Work_Zone[0] == 0*) GOTO 0x0CA6
380: 0x0C86 [0x42] SET_CLI_EVENT_CANCEL_DATA()
381: 0x0C87 [0x03] Work_Zone[1] = 0*
382: 0x0C8C [0x40] SET_BIT_WORK_RANGE(start_bit=0*, end_bit=5*, target=Work_Zone[1], source=5*)
383: 0x0C95 [0x40] SET_BIT_WORK_RANGE(start_bit=16*, end_bit=24*, target=Work_Zone[1], source=Work_Zone_1700[24])
384: 0x0C9E [0x43] SEND_EVENT_UPDATE: Send pending tag to server (packet 0x005B)
385: 0x0CA0 [0x43] SEND_EVENT_UPDATE: Check pending flag (skip if not pending)
386: 0x0CA2 [0x2E] SET_CLI_EVENT_CANCEL_FLAGS()
387: 0x0CA3 [0x01] GOTO 0x0CA7
388: 0x0CA6 [0x1B] RETURN

SUBROUTINE_0CA7:
389: 0x0CA7 [0x03] ExtData[1]->WorkLocal[50] = 6*
390: 0x0CAC [0xB3] RANKINGS_BOARD_HANDLER(case_type=0x03)
391: 0x0CAE [0x32] ExtData[1]->MainSpeed = 0xB300 * 0.1
392: 0x0CB1 [0x05] ExtData[1]->WorkLocal[51] = 1
393: 0x0CB4 [0x34] LOAD_UNLOAD_ZONE(zone_id=0x3500)
394: 0x0CB7 [0x00] END_REQSTACK()
```

#### Data or dead code:

```
# Dead code (unreachable instructions):
     0x0674 [0x03] Work_Zone_1700[9] = ExtData[1]->WorkLocal[16]
     0x0679 [0x03] Work_Zone_1700[10] = ExtData[1]->WorkLocal[17]
     0x067E [0x03] Work_Zone_1700[11] = ExtData[1]->WorkLocal[18]
     0x0683 [0x03] Work_Zone_1700[12] = ExtData[1]->WorkLocal[19]
     0x0688 [0x03] Work_Zone_1700[13] = ExtData[1]->WorkLocal[20]
     0x068D [0x03] Work_Zone_1700[14] = ExtData[1]->WorkLocal[21]
     0x0692 [0x03] Work_Zone_1700[16] = ExtData[1]->WorkLocal[32]
     0x0697 [0x03] Work_Zone_1700[17] = ExtData[1]->WorkLocal[33]
     0x069C [0x03] Work_Zone_1700[18] = ExtData[1]->WorkLocal[34]
     0x06A1 [0x03] ExtData[1]->WorkLocal[8] = 0*
     0x06A6 [0xD4] MAP_QUERY_WINDOW: Test and open query window (flag=0x0B, work=[0x2F00, 0x2D00, 0x2500])
     0x06AF [0x02] IF !(Work_Zone[0] == 0*) GOTO 0x06F7
     0x06B7 [0x02] IF !(Work_Zone_1700[19] == 0*) GOTO 0x06EF
     0x06BF [0x48] [System] [8414*]:
    → "Receiving this reward will render you unable to receive another reward from this category."
     0x06C2 [0x03] Work_Zone[1] = 0*
     0x06C7 [0x40] SET_BIT_WORK_RANGE(start_bit=0*, end_bit=5*, target=Work_Zone[1], source=3*)
     0x06D0 [0x43] SEND_EVENT_UPDATE: Send pending tag to server (packet 0x005B)
     0x06D2 [0x43] SEND_EVENT_UPDATE: Check pending flag (skip if not pending)
     0x06D4 [0x24] CREATE_DIALOG(message_id=8415*, default_option=1*, option_flags=0*)
    → "Receive $10 deeds? [Yes./No.]"
     0x06DB [0x25] WAIT_DIALOG_SELECT()
     0x06DC [0x02] IF !(Work_Zone[0] == 0*) GOTO 0x06EF
     0x06E4 [0x03] ExtData[1]->WorkLocal[8] = 1*
     0x06E9 [0x06] ExtData[1]->WorkLocal[46] = 0
     0x06EC [0x01] GOTO 0x06EF
     0x06EF [0x03] ExtData[1]->WorkLocal[47] = 0*
     0x06F4 [0x01] GOTO 0x0A2C
     0x06F7 [0x02] IF !(Work_Zone[0] == 1*) GOTO 0x0748
     0x06FF [0x03] Work_Zone_1700[1] = 1*
     0x0704 [0x1D] PRINT_EVENT_MESSAGE(message_id=8411*)
    → "The amount of [/exemplar points/experience points/job points] you earn from plaudits will change."
     0x0707 [0x23] WAIT_FOR_DIALOG_INTERACTION
     0x0708 [0x02] IF !(Work_Zone_1700[19] == 0*) GOTO 0x0740
     0x0710 [0x48] [System] [8414*]:
    → "Receiving this reward will render you unable to receive another reward from this category."
     0x0713 [0x03] Work_Zone[1] = 0*
     0x0718 [0x40] SET_BIT_WORK_RANGE(start_bit=0*, end_bit=5*, target=Work_Zone[1], source=2*)
     0x0721 [0x43] SEND_EVENT_UPDATE: Send pending tag to server (packet 0x005B)
     0x0723 [0x43] SEND_EVENT_UPDATE: Check pending flag (skip if not pending)
     0x0725 [0x24] CREATE_DIALOG(message_id=8416*, default_option=1*, option_flags=0*)
    → "Receive $11 exemplar points? [Yes./No.]"
     0x072C [0x25] WAIT_DIALOG_SELECT()
     0x072D [0x02] IF !(Work_Zone[0] == 0*) GOTO 0x0740
     0x0735 [0x03] ExtData[1]->WorkLocal[8] = 2*
     0x073A [0x06] ExtData[1]->WorkLocal[46] = 0
     0x073D [0x01] GOTO 0x0740
     0x0740 [0x03] ExtData[1]->WorkLocal[47] = 1*
     0x0745 [0x01] GOTO 0x0A2C
     0x0748 [0x02] IF !(Work_Zone[0] == 2*) GOTO 0x0799
     0x0750 [0x03] Work_Zone_1700[1] = 2*
     0x0755 [0x1D] PRINT_EVENT_MESSAGE(message_id=8411*)
    → "The amount of [/exemplar points/experience points/job points] you earn from plaudits will change."
     0x0758 [0x23] WAIT_FOR_DIALOG_INTERACTION
     0x0759 [0x02] IF !(Work_Zone_1700[19] == 0*) GOTO 0x0791
     0x0761 [0x48] [System] [8414*]:
    → "Receiving this reward will render you unable to receive another reward from this category."
     0x0764 [0x03] Work_Zone[1] = 0*
     0x0769 [0x40] SET_BIT_WORK_RANGE(start_bit=0*, end_bit=5*, target=Work_Zone[1], source=1*)
     0x0772 [0x43] SEND_EVENT_UPDATE: Send pending tag to server (packet 0x005B)
     0x0774 [0x43] SEND_EVENT_UPDATE: Check pending flag (skip if not pending)
     0x0776 [0x24] CREATE_DIALOG(message_id=8417*, default_option=1*, option_flags=0*)
    → "Receive $12 EXP? [Yes./No.]"
     0x077D [0x25] WAIT_DIALOG_SELECT()
     0x077E [0x02] IF !(Work_Zone[0] == 0*) GOTO 0x0791
     0x0786 [0x03] ExtData[1]->WorkLocal[8] = 3*
     0x078B [0x06] ExtData[1]->WorkLocal[46] = 0
     0x078E [0x01] GOTO 0x0791
     0x0791 [0x03] ExtData[1]->WorkLocal[47] = 2*
     0x0796 [0x01] GOTO 0x0A2C
     0x0799 [0x02] IF !(Work_Zone[0] == 3*) GOTO 0x07EA
     0x07A1 [0x03] Work_Zone_1700[1] = 3*
     0x07A6 [0x1D] PRINT_EVENT_MESSAGE(message_id=8411*)
    → "The amount of [/exemplar points/experience points/job points] you earn from plaudits will change."
     0x07A9 [0x23] WAIT_FOR_DIALOG_INTERACTION
     0x07AA [0x02] IF !(Work_Zone_1700[19] == 0*) GOTO 0x07E2
     0x07B2 [0x48] [System] [8414*]:
    → "Receiving this reward will render you unable to receive another reward from this category."
     0x07B5 [0x03] Work_Zone[1] = 0*
     0x07BA [0x40] SET_BIT_WORK_RANGE(start_bit=0*, end_bit=5*, target=Work_Zone[1], source=4*)
     0x07C3 [0x43] SEND_EVENT_UPDATE: Send pending tag to server (packet 0x005B)
     0x07C5 [0x43] SEND_EVENT_UPDATE: Check pending flag (skip if not pending)
     0x07C7 [0x24] CREATE_DIALOG(message_id=8418*, default_option=1*, option_flags=0*)
    → "Receive $23 job points? [Yes./No.]"
     0x07CE [0x25] WAIT_DIALOG_SELECT()
     0x07CF [0x02] IF !(Work_Zone[0] == 0*) GOTO 0x07E2
     0x07D7 [0x03] ExtData[1]->WorkLocal[8] = 4*
     0x07DC [0x06] ExtData[1]->WorkLocal[46] = 0
     0x07DF [0x01] GOTO 0x07E2
     0x07E2 [0x03] ExtData[1]->WorkLocal[47] = 3*
     0x07E7 [0x01] GOTO 0x0A2C
     0x07EA [0x02] IF !(Work_Zone[0] == 4*) GOTO 0x0817
     0x07F2 [0x03] Work_Zone_1700[20] = ExtData[1]->WorkLocal[12]
     0x07F7 [0x03] Work_Zone_1700[21] = ExtData[1]->WorkLocal[22]
     0x07FC [0x1A] CALL_SUBROUTINE(address=0x0B54)
     0x07FF [0x02] IF !(ExtData[1]->WorkLocal[7] == 0*) GOTO 0x080F
     0x0807 [0x03] ExtData[1]->WorkLocal[8] = 5*
     0x080C [0x06] ExtData[1]->WorkLocal[46] = 0
     0x080F [0x03] ExtData[1]->WorkLocal[47] = 4*
     0x0814 [0x01] GOTO 0x0A2C
     0x0817 [0x02] IF !(Work_Zone[0] == 5*) GOTO 0x0844
     0x081F [0x03] Work_Zone_1700[20] = ExtData[1]->WorkLocal[13]
     0x0824 [0x03] Work_Zone_1700[21] = ExtData[1]->WorkLocal[23]
     0x0829 [0x1A] CALL_SUBROUTINE(address=0x0B54)
     0x082C [0x02] IF !(ExtData[1]->WorkLocal[7] == 0*) GOTO 0x083C
     0x0834 [0x03] ExtData[1]->WorkLocal[8] = 6*
     0x0839 [0x06] ExtData[1]->WorkLocal[46] = 0
     0x083C [0x03] ExtData[1]->WorkLocal[47] = 5*
     0x0841 [0x01] GOTO 0x0A2C
     0x0844 [0x02] IF !(Work_Zone[0] == 6*) GOTO 0x0871
     0x084C [0x03] Work_Zone_1700[20] = ExtData[1]->WorkLocal[14]
     0x0851 [0x03] Work_Zone_1700[21] = ExtData[1]->WorkLocal[24]
     0x0856 [0x1A] CALL_SUBROUTINE(address=0x0B54)
     0x0859 [0x02] IF !(ExtData[1]->WorkLocal[7] == 0*) GOTO 0x0869
     0x0861 [0x03] ExtData[1]->WorkLocal[8] = 7*
     0x0866 [0x06] ExtData[1]->WorkLocal[46] = 0
     0x0869 [0x03] ExtData[1]->WorkLocal[47] = 6*
     0x086E [0x01] GOTO 0x0A2C
     0x0871 [0x02] IF !(Work_Zone[0] == 7*) GOTO 0x089E
     0x0879 [0x03] Work_Zone_1700[20] = ExtData[1]->WorkLocal[15]
     0x087E [0x03] Work_Zone_1700[21] = ExtData[1]->WorkLocal[25]
     0x0883 [0x1A] CALL_SUBROUTINE(address=0x0B54)
     0x0886 [0x02] IF !(ExtData[1]->WorkLocal[7] == 0*) GOTO 0x0896
     0x088E [0x03] ExtData[1]->WorkLocal[8] = 8*
     0x0893 [0x06] ExtData[1]->WorkLocal[46] = 0
     0x0896 [0x03] ExtData[1]->WorkLocal[47] = 7*
     0x089B [0x01] GOTO 0x0A2C
     0x089E [0x02] IF !(Work_Zone[0] == 8*) GOTO 0x08CB
     0x08A6 [0x03] Work_Zone_1700[20] = ExtData[1]->WorkLocal[16]
     0x08AB [0x03] Work_Zone_1700[21] = ExtData[1]->WorkLocal[26]
     0x08B0 [0x1A] CALL_SUBROUTINE(address=0x0B54)
     0x08B3 [0x02] IF !(ExtData[1]->WorkLocal[7] == 0*) GOTO 0x08C3
     0x08BB [0x03] ExtData[1]->WorkLocal[8] = 9*
     0x08C0 [0x06] ExtData[1]->WorkLocal[46] = 0
     0x08C3 [0x03] ExtData[1]->WorkLocal[47] = 8*
     0x08C8 [0x01] GOTO 0x0A2C
     0x08CB [0x02] IF !(Work_Zone[0] == 9*) GOTO 0x08F8
     0x08D3 [0x03] Work_Zone_1700[20] = ExtData[1]->WorkLocal[17]
     0x08D8 [0x03] Work_Zone_1700[21] = ExtData[1]->WorkLocal[27]
     0x08DD [0x1A] CALL_SUBROUTINE(address=0x0B54)
     0x08E0 [0x02] IF !(ExtData[1]->WorkLocal[7] == 0*) GOTO 0x08F0
     0x08E8 [0x03] ExtData[1]->WorkLocal[8] = 10*
     0x08ED [0x06] ExtData[1]->WorkLocal[46] = 0
     0x08F0 [0x03] ExtData[1]->WorkLocal[47] = 9*
     0x08F5 [0x01] GOTO 0x0A2C
     0x08F8 [0x02] IF !(Work_Zone[0] == 10*) GOTO 0x0925
     0x0900 [0x03] Work_Zone_1700[20] = ExtData[1]->WorkLocal[18]
     0x0905 [0x03] Work_Zone_1700[21] = ExtData[1]->WorkLocal[28]
     0x090A [0x1A] CALL_SUBROUTINE(address=0x0B54)
     0x090D [0x02] IF !(ExtData[1]->WorkLocal[7] == 0*) GOTO 0x091D
     0x0915 [0x03] ExtData[1]->WorkLocal[8] = 11*
     0x091A [0x06] ExtData[1]->WorkLocal[46] = 0
     0x091D [0x03] ExtData[1]->WorkLocal[47] = 10*
     0x0922 [0x01] GOTO 0x0A2C
     0x0925 [0x02] IF !(Work_Zone[0] == 11*) GOTO 0x0952
     0x092D [0x03] Work_Zone_1700[20] = ExtData[1]->WorkLocal[19]
     0x0932 [0x03] Work_Zone_1700[21] = ExtData[1]->WorkLocal[29]
     0x0937 [0x1A] CALL_SUBROUTINE(address=0x0B54)
     0x093A [0x02] IF !(ExtData[1]->WorkLocal[7] == 0*) GOTO 0x094A
     0x0942 [0x03] ExtData[1]->WorkLocal[8] = 12*
     0x0947 [0x06] ExtData[1]->WorkLocal[46] = 0
     0x094A [0x03] ExtData[1]->WorkLocal[47] = 11*
     0x094F [0x01] GOTO 0x0A2C
     0x0952 [0x02] IF !(Work_Zone[0] == 12*) GOTO 0x097F
     0x095A [0x03] Work_Zone_1700[20] = ExtData[1]->WorkLocal[20]
     0x095F [0x03] Work_Zone_1700[21] = ExtData[1]->WorkLocal[30]
     0x0964 [0x1A] CALL_SUBROUTINE(address=0x0B54)
     0x0967 [0x02] IF !(ExtData[1]->WorkLocal[7] == 0*) GOTO 0x0977
     0x096F [0x03] ExtData[1]->WorkLocal[8] = 13*
     0x0974 [0x06] ExtData[1]->WorkLocal[46] = 0
     0x0977 [0x03] ExtData[1]->WorkLocal[47] = 12*
     0x097C [0x01] GOTO 0x0A2C
     0x097F [0x02] IF !(Work_Zone[0] == 13*) GOTO 0x09AC
     0x0987 [0x03] Work_Zone_1700[20] = ExtData[1]->WorkLocal[21]
     0x098C [0x03] Work_Zone_1700[21] = ExtData[1]->WorkLocal[31]
     0x0991 [0x1A] CALL_SUBROUTINE(address=0x0B54)
     0x0994 [0x02] IF !(ExtData[1]->WorkLocal[7] == 0*) GOTO 0x09A4
     0x099C [0x03] ExtData[1]->WorkLocal[8] = 14*
     0x09A1 [0x06] ExtData[1]->WorkLocal[46] = 0
     0x09A4 [0x03] ExtData[1]->WorkLocal[47] = 13*
     0x09A9 [0x01] GOTO 0x0A2C
     0x09AC [0x02] IF !(Work_Zone[0] == 14*) GOTO 0x09D4
     0x09B4 [0x03] Work_Zone_1700[20] = ExtData[1]->WorkLocal[32]
     0x09B9 [0x1A] CALL_SUBROUTINE(address=0x0B8C)
     0x09BC [0x02] IF !(ExtData[1]->WorkLocal[7] == 0*) GOTO 0x09CC
     0x09C4 [0x03] ExtData[1]->WorkLocal[8] = 15*
     0x09C9 [0x06] ExtData[1]->WorkLocal[46] = 0
     0x09CC [0x03] ExtData[1]->WorkLocal[47] = 14*
     0x09D1 [0x01] GOTO 0x0A2C
     0x09D4 [0x02] IF !(Work_Zone[0] == 15*) GOTO 0x09FC
     0x09DC [0x03] Work_Zone_1700[20] = ExtData[1]->WorkLocal[33]
     0x09E1 [0x1A] CALL_SUBROUTINE(address=0x0B8C)
     0x09E4 [0x02] IF !(ExtData[1]->WorkLocal[7] == 0*) GOTO 0x09F4
     0x09EC [0x03] ExtData[1]->WorkLocal[8] = 16*
     0x09F1 [0x06] ExtData[1]->WorkLocal[46] = 0
     0x09F4 [0x03] ExtData[1]->WorkLocal[47] = 15*
     0x09F9 [0x01] GOTO 0x0A2C
     0x09FC [0x02] IF !(Work_Zone[0] == 16*) GOTO 0x0A24
     0x0A04 [0x03] Work_Zone_1700[20] = ExtData[1]->WorkLocal[34]
     0x0A09 [0x1A] CALL_SUBROUTINE(address=0x0B8C)
     0x0A0C [0x02] IF !(ExtData[1]->WorkLocal[7] == 0*) GOTO 0x0A1C
     0x0A14 [0x03] ExtData[1]->WorkLocal[8] = 16*
     0x0A19 [0x06] ExtData[1]->WorkLocal[46] = 0
     0x0A1C [0x03] ExtData[1]->WorkLocal[47] = 15*
     0x0A21 [0x01] GOTO 0x0A2C
     0x0A24 [0x06] ExtData[1]->WorkLocal[46] = 0
     0x0A27 [0x03] ExtData[1]->WorkLocal[47] = 0*
     0x0A2C [0x01] GOTO 0x060A
# Dead code (unreachable instructions):
     0x0B54 [0x06] ExtData[1]->WorkLocal[7] = 0
     0x0B57 [0x02] IF !(Work_Zone_1700[21] <= 1*) GOTO 0x0B69
     0x0B5F [0x93] DISPLAY_ITEM_INFO(item_id=Work_Zone_1700[20])
     0x0B62 [0x48] [System] [8419*]:
    → "You will receive $29 $0%0 ."
     0x0B65 [0x23] WAIT_FOR_DIALOG_INTERACTION
     0x0B66 [0x93] DISPLAY_ITEM_INFO(item_id=0*)
     0x0B69 [0x02] IF !(Work_Zone_1700[19] <= 0*) GOTO 0x0B72
     0x0B71 [0x1B] RETURN
     0x0B72 [0x48] [System] [8414*]:
    → "Receiving this reward will render you unable to receive another reward from this category."
     0x0B75 [0x24] CREATE_DIALOG(message_id=8420*, default_option=1*, option_flags=0*)
    → "Receive the $28? [Yes./No.]"
     0x0B7C [0x25] WAIT_DIALOG_SELECT()
     0x0B7D [0x02] IF !(Work_Zone[0] == 0*) GOTO 0x0B8B
     0x0B85 [0x05] ExtData[1]->WorkLocal[7] = 1
     0x0B88 [0x01] GOTO 0x0B8B
     0x0B8B [0x1B] RETURN
     0x0B8C [0x06] ExtData[1]->WorkLocal[7] = 0
     0x0B8F [0x02] IF !(Work_Zone_1700[19] <= 0*) GOTO 0x0B98
     0x0B97 [0x1B] RETURN
     0x0B98 [0x48] [System] [8414*]:
    → "Receiving this reward will render you unable to receive another reward from this category."
     0x0B9B [0x24] CREATE_DIALOG(message_id=8421*, default_option=1*, option_flags=0*)
    → "Receive the $3? [Yes./No.]"
     0x0BA2 [0x25] WAIT_DIALOG_SELECT()
     0x0BA3 [0x02] IF !(Work_Zone[0] == 0*) GOTO 0x0BB1
     0x0BAB [0x05] ExtData[1]->WorkLocal[7] = 1
     0x0BAE [0x01] GOTO 0x0BB1
     0x0BB1 [0x1B] RETURN
# Dead code (unreachable instructions):
     0x0BBF [0x34] LOAD_UNLOAD_ZONE(zone_id=0x3500)
     0x0BC2 [0x00] END_REQSTACK()
     0x0BC3 [0x36] SET_ENTITY_EVENT_POSITION(pos_x=0x3700, pos_z=0x3800, pos_y=0x0200)
     0x0BCA [0x33] EventEntity->Render.Flags0 &= ~ 0x200000 // Bit 21 (flag=0x00)
     0x0BCC [0x00] END_REQSTACK()
     0x0BCD [0x80] LOAD_WAIT(entity=Unknown NPC (ID: 1208735747/0x480BD803))
     0x0BD2 [0x45] LOAD_SCHEDULED_TASK: Load scheduler 0x02800300 with entities [Unknown NPC (ID: 1108102145/0x420C4C01), Unknown NPC (ID: 990053043/0x3B0302B3)], work=[0x2380, ExtData[1]->WorkLocal[59]]
     0x0BE3 [0x03] 0x80 = 0x0BF2
     0x0BE8 [0xB3] RANKINGS_BOARD_HANDLER(case_type=0x09)
     0x0BEA [0x3B] GET_ENTITY_POSITION(entity=Unknown NPC (ID: 2147687424/0x80031C00), x_destination=0xE001, y_destination=0x060B, z_destination=ExtData[1]->WorkLocal[0])
     0x0BF5 [0x3E] IF !(ExtData[1]->WorkLocal[2] bit 0*) GOTO 0x0BFF
     0x0BFC [0x01] GOTO 0x0C13
     0x0BFF [0x3E] IF !(ExtData[1]->WorkLocal[2] bit 1*) GOTO 0x0C09
     0x0C06 [0x05] ExtData[1]->WorkLocal[0] = 1
     0x0C09 [0x3E] IF !(ExtData[1]->WorkLocal[2] bit 2*) GOTO 0x0C13
     0x0C10 [0x05] ExtData[1]->WorkLocal[0] = 1
     0x0C13 [0x02] IF !(ExtData[1]->WorkLocal[0] == 0*) GOTO 0x0C4B
     0x0C1B [0xB3] RANKINGS_BOARD_HANDLER(case_type=0x07)
     0x0C1D [0x32] ExtData[1]->MainSpeed = 0xB300 * 0.1
     0x0C20 [0x05] ExtData[1]->WorkLocal[51] = 1
     0x0C23 [0x34] LOAD_UNLOAD_ZONE(zone_id=0x3500)
     0x0C26 [0x00] END_REQSTACK()
     0x0C27 [0x36] SET_ENTITY_EVENT_POSITION(pos_x=0x3700, pos_z=0x3800, pos_y=0x3900)
     0x0C2E [0x00] END_REQSTACK()
     0x0C2F [0x3A] CONVERT_YAW_TO_BYTE(entity=Unknown NPC (ID: 3342848/0x00330200), result_destination=0*)
     0x0C36 [0x04] DEPRECATED_NOP(unused=0x0C4B)
     0x0C39 [0x03] Work_Zone[1] = 0*
     0x0C3E [0x40] SET_BIT_WORK_RANGE(start_bit=0*, end_bit=5*, target=Work_Zone[1], source=6*)
     0x0C47 [0x43] SEND_EVENT_UPDATE: Send pending tag to server (packet 0x005B)
     0x0C49 [0x43] SEND_EVENT_UPDATE: Check pending flag (skip if not pending)
     0x0C4B [0x2E] SET_CLI_EVENT_CANCEL_FLAGS()
     0x0C4C [0x1B] RETURN
# Dead code (unreachable instructions):
     0x0CB8 [0x36] SET_ENTITY_EVENT_POSITION(pos_x=0x3700, pos_z=0x3800, pos_y=0x3900)
     0x0CBF [0x00] END_REQSTACK()
     0x0CC0 [0x3A] CONVERT_YAW_TO_BYTE(entity=Unknown NPC (ID: 3342848/0x00330200), result_destination=0*)
     0x0CC7 [0x03] 0x0CD1 = 0x4548
     0x0CCC [0x80] LOAD_WAIT(entity=Unknown NPC (ID: 215286051/0x0CD50123))
     0x0CD1 [0x1D] PRINT_EVENT_MESSAGE(message_id=8428*)
    → "Your registration has been accepted, kupo! It may taake a while for this to be reflect in the official records."
     0x0CD4 [0x23] WAIT_FOR_DIALOG_INTERACTION
     0x0CD5 [0x1B] RETURN
```

### Event 405

#### Metadata

| Field        | Value     |
|--------------|-----------|
| Entrypoint   | 0x0CD6    |
| Data Size    | 312 bytes |
| Instructions | 65        |

```
      00 01 02 03 04 05 06 07  08 09 0A 0B 0C 0D 0E 0F
      -- -- -- -- -- -- -- --  -- -- -- -- -- -- -- --
0CD0:                   03 02  00 05 10 3E 02 00 00 80        .....>....
0CE0: EA 0C 03 03 10 03 80 01  EF 0C 03 03 10 00 80 3E  ...............>
0CF0: 02 00 03 80 FE 0C 03 04  10 03 80 01 03 0D 03 04  ................
0D00: 10 00 80 3E 02 00 06 80  12 0D 03 05 10 03 80 01  ...>............
0D10: 17 0D 03 05 10 00 80 24  4A 80 00 80 00 80 25 02  .......$J.....%.
0D20: 00 10 00 80 00 2F 0D 03  01 10 03 80 01 0C 0E 02  ...../..........
0D30: 00 10 03 80 00 55 0D 24  4B 80 03 80 00 80 25 02  .....U.$K.....%.
0D40: 00 10 00 80 00 4F 0D 03  01 10 06 80 01 52 0D 01  .....O.......R..
0D50: D6 0C 01 0C 0E 02 00 10  06 80 00 65 0D 03 01 10  ...........e....
0D60: 0B 80 01 0C 0E 02 00 10  0B 80 00 8B 0D 24 4B 80  .............$K.
0D70: 03 80 00 80 25 02 00 10  00 80 00 85 0D 03 01 10  ....%...........
0D80: 12 80 01 88 0D 01 D6 0C  01 0C 0E 02 00 10 12 80  ................
0D90: 00 B1 0D 24 4B 80 03 80  00 80 25 02 00 10 00 80  ...$K.....%.....
0DA0: 00 AB 0D 03 01 10 09 80  01 AE 0D 01 D6 0C 01 0C  ................
0DB0: 0E 02 00 10 09 80 00 C1  0D 03 01 10 1F 80 01 0C  ................
0DC0: 0E 02 00 10 1F 80 00 D1  0D 03 01 10 01 80 01 0C  ................
0DD0: 0E 02 00 10 01 80 00 E1  0D 03 01 10 02 80 01 0C  ................
0DE0: 0E 02 00 10 02 80 00 07  0E 24 4B 80 03 80 00 80  .........$K.....
0DF0: 25 02 00 10 00 80 00 01  0E 03 01 10 04 80 01 04  %...............
0E00: 0E 01 D6 0C 01 0C 0E 03  01 10 0C 80 21 00        ............!.  
```

#### Opcodes

```
  0: 0x0CD6 [0x03] ExtData[1]->WorkLocal[2] = Work_Zone[5]
  1: 0x0CDB [0x3E] IF !(ExtData[1]->WorkLocal[2] bit 0*) GOTO 0x0CEA
  2: 0x0CE2 [0x03] Work_Zone[3] = 1*
  3: 0x0CE7 [0x01] GOTO 0x0CEF
  4: 0x0CEA [0x03] Work_Zone[3] = 0*

SUBROUTINE_0CEF:
  5: 0x0CEF [0x3E] IF !(ExtData[1]->WorkLocal[2] bit 1*) GOTO 0x0CFE
  6: 0x0CF6 [0x03] Work_Zone[4] = 1*
  7: 0x0CFB [0x01] GOTO 0x0D03
  8: 0x0CFE [0x03] Work_Zone[4] = 0*

SUBROUTINE_0D03:
  9: 0x0D03 [0x3E] IF !(ExtData[1]->WorkLocal[2] bit 2*) GOTO 0x0D12
 10: 0x0D0A [0x03] Work_Zone[5] = 1*
 11: 0x0D0F [0x01] GOTO 0x0D17
 12: 0x0D12 [0x03] Work_Zone[5] = 0*

SUBROUTINE_0D17:
 13: 0x0D17 [0x24] CREATE_DIALOG(message_id=8431*, default_option=0*, option_flags=0*)
    → "$3$3$3L$3$3O$9$z%; Debug: Round $0. [contribution./No. of objective clears./Reset total contribution./Reset objective clears./Reset player./Event: [off/on]./Personal: [off/on]./Overall: [off/on]./Reset Rankings./Back.]"
 14: 0x0D1E [0x25] WAIT_DIALOG_SELECT()
 15: 0x0D1F [0x02] IF !(Work_Zone[0] == 0*) GOTO 0x0D2F
 16: 0x0D27 [0x03] Work_Zone[1] = 1*
 17: 0x0D2C [0x01] GOTO 0x0E0C
 18: 0x0D2F [0x02] IF !(Work_Zone[0] == 1*) GOTO 0x0D55
 19: 0x0D37 [0x24] CREATE_DIALOG(message_id=8436*, default_option=1*, option_flags=0*)
    → "Really reset rankings? [Yes./No.]"
 20: 0x0D3E [0x25] WAIT_DIALOG_SELECT()
 21: 0x0D3F [0x02] IF !(Work_Zone[0] == 0*) GOTO 0x0D4F
 22: 0x0D47 [0x03] Work_Zone[1] = 2*
 23: 0x0D4C [0x01] GOTO 0x0D52
 24: 0x0D4F [0x01] GOTO 0x0CD6

SUBROUTINE_0D52:
 25: 0x0D52 [0x01] GOTO 0x0E0C
 26: 0x0D55 [0x02] IF !(Work_Zone[0] == 2*) GOTO 0x0D65
 27: 0x0D5D [0x03] Work_Zone[1] = 3*
 28: 0x0D62 [0x01] GOTO 0x0E0C
 29: 0x0D65 [0x02] IF !(Work_Zone[0] == 3*) GOTO 0x0D8B
 30: 0x0D6D [0x24] CREATE_DIALOG(message_id=8436*, default_option=1*, option_flags=0*)
    → "Really reset rankings? [Yes./No.]"
 31: 0x0D74 [0x25] WAIT_DIALOG_SELECT()
 32: 0x0D75 [0x02] IF !(Work_Zone[0] == 0*) GOTO 0x0D85
 33: 0x0D7D [0x03] Work_Zone[1] = 4*
 34: 0x0D82 [0x01] GOTO 0x0D88
 35: 0x0D85 [0x01] GOTO 0x0CD6

SUBROUTINE_0D88:
 36: 0x0D88 [0x01] GOTO 0x0E0C
 37: 0x0D8B [0x02] IF !(Work_Zone[0] == 4*) GOTO 0x0DB1
 38: 0x0D93 [0x24] CREATE_DIALOG(message_id=8436*, default_option=1*, option_flags=0*)
    → "Really reset rankings? [Yes./No.]"
 39: 0x0D9A [0x25] WAIT_DIALOG_SELECT()
 40: 0x0D9B [0x02] IF !(Work_Zone[0] == 0*) GOTO 0x0DAB
 41: 0x0DA3 [0x03] Work_Zone[1] = 5*
 42: 0x0DA8 [0x01] GOTO 0x0DAE
 43: 0x0DAB [0x01] GOTO 0x0CD6

SUBROUTINE_0DAE:
 44: 0x0DAE [0x01] GOTO 0x0E0C
 45: 0x0DB1 [0x02] IF !(Work_Zone[0] == 5*) GOTO 0x0DC1
 46: 0x0DB9 [0x03] Work_Zone[1] = 6*
 47: 0x0DBE [0x01] GOTO 0x0E0C
 48: 0x0DC1 [0x02] IF !(Work_Zone[0] == 6*) GOTO 0x0DD1
 49: 0x0DC9 [0x03] Work_Zone[1] = 7*
 50: 0x0DCE [0x01] GOTO 0x0E0C
 51: 0x0DD1 [0x02] IF !(Work_Zone[0] == 7*) GOTO 0x0DE1
 52: 0x0DD9 [0x03] Work_Zone[1] = 8*
 53: 0x0DDE [0x01] GOTO 0x0E0C
 54: 0x0DE1 [0x02] IF !(Work_Zone[0] == 8*) GOTO 0x0E07
 55: 0x0DE9 [0x24] CREATE_DIALOG(message_id=8436*, default_option=1*, option_flags=0*)
    → "Really reset rankings? [Yes./No.]"
 56: 0x0DF0 [0x25] WAIT_DIALOG_SELECT()
 57: 0x0DF1 [0x02] IF !(Work_Zone[0] == 0*) GOTO 0x0E01
 58: 0x0DF9 [0x03] Work_Zone[1] = 9*
 59: 0x0DFE [0x01] GOTO 0x0E04
 60: 0x0E01 [0x01] GOTO 0x0CD6

SUBROUTINE_0E04:
 61: 0x0E04 [0x01] GOTO 0x0E0C
 62: 0x0E07 [0x03] Work_Zone[1] = 1073741824*

SUBROUTINE_0E0C:
 63: 0x0E0C [0x21] END_EVENT
 64: 0x0E0D [0x00] END_REQSTACK()
```
