# 17797258 - Zurko-Bazurko

## Common Data

| Field            | Value            |
|------------------|------------------|
| Zone             | Mhaura (ID: 249) |
| Block Size       | 928 bytes        |
| Total Events     | 21               |
| References Count | 41               |

## List of Events

| Event ID              | Entrypoint   |   Size |   Instructions |
|-----------------------|--------------|--------|----------------|
| [65535](#event-65535) | 0x0000       |      1 |              1 |
| [347](#event-347)     | 0x0001       |     27 |              7 |
| [348](#event-348)     | 0x001C       |    297 |             63 |
| [349](#event-349)     | 0x0145       |     64 |             12 |
| [350](#event-350)     | 0x0185       |     27 |              7 |
| [351](#event-351)     | 0x01A0       |     36 |             10 |
| [352](#event-352)     | 0x01C4       |     44 |             12 |
| [353](#event-353)     | 0x01F0       |     28 |              8 |
| [354](#event-354)     | 0x020C       |     29 |             13 |
| [355](#event-355)     | 0x0229       |      1 |              1 |
| [356](#event-356)     | 0x022A       |      1 |              1 |
| [357](#event-357)     | 0x022B       |      1 |              1 |
| [358](#event-358)     | 0x022C       |      1 |              1 |
| [359](#event-359)     | 0x022D       |      1 |              1 |
| [360](#event-360)     | 0x022E       |      1 |              1 |
| [361](#event-361)     | 0x022F       |      1 |              1 |
| [362](#event-362)     | 0x0230       |      1 |              1 |
| [363](#event-363)     | 0x0231       |      1 |              1 |
| [364](#event-364)     | 0x0232       |     27 |              7 |
| [365](#event-365)     | 0x024D       |     48 |             12 |
| [367](#event-367)     | 0x027D       |     27 |              7 |

## DAT References (imed_data)

|   Index | Hex Value   |   Dec Value |
|---------|-------------|-------------|
|       0 | 0x0014      |          20 |
|       1 | 0x1E9D      |        7837 |
|       2 | 0x0876      |        2166 |
|       3 | 0x1E9E      |        7838 |
|       4 | 0x0031      |          49 |
|       5 | 0x1E9F      |        7839 |
|       6 | 0x1EA0      |        7840 |
|       7 | 0x1EA1      |        7841 |
|       8 | 0x0000      |           0 |
|       9 | 0x1EDB      |        7899 |
|      10 | 0x1EA3      |        7843 |
|      11 | 0x0003      |           3 |
|      12 | 0x0078      |         120 |
|      13 | 0x0001      |           1 |
|      14 | 0x1EE0      |        7904 |
|      15 | 0x1EA4      |        7844 |
|      16 | 0x1EA5      |        7845 |
|      17 | 0x1EA6      |        7846 |
|      18 | 0x1EA7      |        7847 |
|      19 | 0x0022      |          34 |
|      20 | 0x1EA8      |        7848 |
|      21 | 0x1EA9      |        7849 |
|      22 | 0x1EAA      |        7850 |
|      23 | 0x1EAB      |        7851 |
|      24 | 0x1EAC      |        7852 |
|      25 | 0x1EA2      |        7842 |
|      26 | 0x1EAD      |        7853 |
|      27 | 0x1EAE      |        7854 |
|      28 | 0x1EAF      |        7855 |
|      29 | 0x1EB0      |        7856 |
|      30 | 0x1EB1      |        7857 |
|      31 | 0x1EB2      |        7858 |
|      32 | 0x1EB3      |        7859 |
|      33 | 0x1EB4      |        7860 |
|      34 | 0x1EB5      |        7861 |
|      35 | 0x1F12      |        7954 |
|      36 | 0x0A0D      |        2573 |
|      37 | 0x1F0F      |        7951 |
|      38 | 0x1F10      |        7952 |
|      39 | 0x1F11      |        7953 |
|      40 | 0x1F13      |        7955 |

## String References

- **7858**: These dazzling runey-wunes attract so many adoring fans that the Zurk can barely keep count! Have you come for an autograph?
- **7859**: Some food from Adoulin? Let the Zurk get a tastey-waste of that...
- **7860**: <Mmmf> Anastase'sth granddaughter made sucth a <smack> delectable treataru? Thith is so divine that the Zurk might <burp> grathe her with the boon of hith thmile when he gets back <gulp>.
- **7861**: Ahhh...that really hit the spotaru! Tell Anastase that his star pupil is proceeding swimmingly with his studies of the runic-wunic arts--and that the waypointarus are fine, too.
- **7899**: Record this fount? [Yes./No.]
- **7904**: Your $3 has been attuned to a geomagnetic fount[ in Selbina/ in Mhaura/ in Rabao/ in Norg]!

## Events

### Event 65535

#### Metadata

| Field        | Value   |
|--------------|---------|
| Entrypoint   | 0x0000  |
| Data Size    | 1 bytes |
| Instructions | 1       |

```
      00 01 02 03 04 05 06 07  08 09 0A 0B 0C 0D 0E 0F
      -- -- -- -- -- -- -- --  -- -- -- -- -- -- -- --
0000: 00                                                .               
```

#### Opcodes

```
  0: 0x0000 [0x00] END_REQSTACK()
```

### Event 347

#### Metadata

| Field        | Value    |
|--------------|----------|
| Entrypoint   | 0x0001   |
| Data Size    | 27 bytes |
| Instructions | 7        |

```
      00 01 02 03 04 05 06 07  08 09 0A 0B 0C 0D 0E 0F
      -- -- -- -- -- -- -- --  -- -- -- -- -- -- -- --
0000:    4A F0 FF FF 7F 8A 90  0F 01 1C 00 80 1E F0 FF   J..............
0010: FF 7F 2B 8A 90 0F 01 01  80 23 21 00              ..+......#!.    
```

#### Opcodes

```
  0: 0x0001 [0x4A] LocalPlayer looks at Zurko-Bazurko (ID: 17797258/0x010F908A)
  1: 0x000A [0x1C] WAIT(20* ticks)
  2: 0x000D [0x1E] EventEntity looks at LocalPlayer and starts talking
  3: 0x0012 [0x2B] Zurko-Bazurko (ID: 17797258/0x010F908A) [7837*]:
    → "Feast your eyes upon me, the master-waster of a thousand runes, straightaru from the alleys of Adoulin! The one, the only, Zurko-Bazurko!"
  4: 0x0019 [0x23] WAIT_FOR_DIALOG_INTERACTION
  5: 0x001A [0x21] END_EVENT
  6: 0x001B [0x00] END_REQSTACK()
```

### Event 348

#### Metadata

| Field        | Value     |
|--------------|-----------|
| Entrypoint   | 0x001C    |
| Data Size    | 297 bytes |
| Instructions | 62        |

```
      00 01 02 03 04 05 06 07  08 09 0A 0B 0C 0D 0E 0F
      -- -- -- -- -- -- -- --  -- -- -- -- -- -- -- --
0010:                                      4A F0 FF FF              J...
0020: 7F 8A 90 0F 01 1C 00 80  1E F0 FF FF 7F 03 02 10  ................
0030: 02 80 2B 8A 90 0F 01 03  80 23 66 04 80 8A 90 0F  ..+......#f.....
0040: 01 8A 90 0F 01 74 6C 6B  30 2B 8A 90 0F 01 05 80  .....tlk0+......
0050: 23 2B 8A 90 0F 01 06 80  23 66 04 80 8A 90 0F 01  #+......#f......
0060: 8A 90 0F 01 74 6C 6B 31  2B 8A 90 0F 01 07 80 23  ....tlk1+......#
0070: 03 01 10 08 80 24 09 80  08 80 08 80 25 02 00 10  .....$......%...
0080: 08 80 00 2E 01 42 03 02  10 02 80 2B 8A 90 0F 01  .....B.....+....
0090: 0A 80 23 6E F0 FF FF 7F  0B 80 99 F0 FF FF 7F 1C  ..#n............
00A0: 0C 80 23 03 03 10 02 80  03 02 10 0D 80 48 0E 80  ..#..........H..
00B0: 23 03 01 10 0D 80 2B 8A  90 0F 01 0F 80 23 2B 8A  #.....+......#+.
00C0: 90 0F 01 10 80 23 2B 8A  90 0F 01 11 80 23 2B 8A  .....#+......#+.
00D0: 90 0F 01 12 80 23 6E F0  FF FF 7F 13 80 99 F0 FF  .....#n.........
00E0: FF 7F 1C 0C 80 2B 8A 90  0F 01 14 80 23 66 04 80  .....+......#f..
00F0: 8A 90 0F 01 8A 90 0F 01  74 68 6B 31 2B 8A 90 0F  ........thk1+...
0100: 01 15 80 23 2B 8A 90 0F  01 16 80 23 2B 8A 90 0F  ...#+......#+...
0110: 01 17 80 23 66 04 80 8A  90 0F 01 8A 90 0F 01 74  ...#f..........t
0120: 68 6B 32 2B 8A 90 0F 01  18 80 23 01 43 01 02 00  hk2+......#.C...
0130: 10 0D 80 00 43 01 2B 8A  90 0F 01 19 80 23 21 00  ....C.+......#!.
0140: 01 43 01 21 00                                    .C.!.           
```

#### Opcodes

```
  0: 0x001C [0x4A] LocalPlayer looks at Zurko-Bazurko (ID: 17797258/0x010F908A)
  1: 0x0025 [0x1C] WAIT(20* ticks)
  2: 0x0028 [0x1E] EventEntity looks at LocalPlayer and starts talking
  3: 0x002D [0x03] Work_Zone[2] = 2166*
  4: 0x0032 [0x2B] Zurko-Bazurko (ID: 17797258/0x010F908A) [7838*]:
    → "Huhn huhhhn. Of course a wimp like you would want to come bask in the radiance of a living-wiving legend like the Zurk. Do you want his autograph as--whoa-ho, is that $6?"
  5: 0x0039 [0x23] WAIT_FOR_DIALOG_INTERACTION
  6: 0x003A [0x66] LOAD_EXT_SCHEDULER_MAIN: Load scheduler "tlk0" with entities [Zurko-Bazurko (ID: 17797258/0x010F908A), Zurko-Bazurko (ID: 17797258/0x010F908A)], work=49*
  7: 0x0049 [0x2B] Zurko-Bazurko (ID: 17797258/0x010F908A) [7839*]:
    → "Ah, so you're the greenhorn Anastase was flip-flapping about."
  8: 0x0050 [0x23] WAIT_FOR_DIALOG_INTERACTION
  9: 0x0051 [0x2B] Zurko-Bazurko (ID: 17797258/0x010F908A) [7840*]:
    → "Don't get your pantaloons in a bunchy-wunch. The Zurk's already found the geomagnetic field you're looking for. How? Because he's perfection incarnate."
 10: 0x0058 [0x23] WAIT_FOR_DIALOG_INTERACTION
 11: 0x0059 [0x66] LOAD_EXT_SCHEDULER_MAIN: Load scheduler "tlk1" with entities [Zurko-Bazurko (ID: 17797258/0x010F908A), Zurko-Bazurko (ID: 17797258/0x010F908A)], work=49*
 12: 0x0068 [0x2B] Zurko-Bazurko (ID: 17797258/0x010F908A) [7841*]:
    → "So, you gonna attune that thing to this spotaru or what?"
 13: 0x006F [0x23] WAIT_FOR_DIALOG_INTERACTION
 14: 0x0070 [0x03] Work_Zone[1] = 0*
 15: 0x0075 [0x24] CREATE_DIALOG(message_id=7899*, default_option=0*, option_flags=0*)
    → "Record this fount? [Yes./No.]"
 16: 0x007C [0x25] WAIT_DIALOG_SELECT()
 17: 0x007D [0x02] IF !(Work_Zone[0] == 0*) GOTO 0x012E
 18: 0x0085 [0x42] SET_CLI_EVENT_CANCEL_DATA()
 19: 0x0086 [0x03] Work_Zone[2] = 2166*
 20: 0x008B [0x2B] Zurko-Bazurko (ID: 17797258/0x010F908A) [7843*]:
    → "The obvious choice, but the Zurk abides. Now put your $3 on the ground here and wait for the action-waction to unfold."
 21: 0x0092 [0x23] WAIT_FOR_DIALOG_INTERACTION
 22: 0x0093 [0x6E] LocalPlayer uses emote 3*
 23: 0x009A [0x99] Wait for LocalPlayer animation to complete
 24: 0x009F [0x1C] WAIT(120* ticks)
 25: 0x00A2 [0x23] WAIT_FOR_DIALOG_INTERACTION
 26: 0x00A3 [0x03] Work_Zone[3] = 2166*
 27: 0x00A8 [0x03] Work_Zone[2] = 1*
 28: 0x00AD [0x48] [System] [7904*]:
    → "Your $3 has been attuned to a geomagnetic fount[ in Selbina/ in Mhaura/ in Rabao/ in Norg]!"
 29: 0x00B0 [0x23] WAIT_FOR_DIALOG_INTERACTION
 30: 0x00B1 [0x03] Work_Zone[1] = 1*
 31: 0x00B6 [0x2B] Zurko-Bazurko (ID: 17797258/0x010F908A) [7844*]:
    → "Since you've travel-waveled from Jeuno, you've already attuned your stuff to there, right?"
 32: 0x00BD [0x23] WAIT_FOR_DIALOG_INTERACTION
 33: 0x00BE [0x2B] Zurko-Bazurko (ID: 17797258/0x010F908A) [7845*]:
    → "Don't worry about the Mhaura end of this waypoint, the Zurk's got you covered. Use it to your heart's contentaru."
 34: 0x00C5 [0x23] WAIT_FOR_DIALOG_INTERACTION
 35: 0x00C6 [0x2B] Zurko-Bazurko (ID: 17797258/0x010F908A) [7846*]:
    → "The floating contraption-waption of infinite wonder inside is where the real magic happens."
 36: 0x00CD [0x23] WAIT_FOR_DIALOG_INTERACTION
 37: 0x00CE [0x2B] Zurko-Bazurko (ID: 17797258/0x010F908A) [7847*]:
    → "Of course, no mere mortal could understand the complex configurations of this waypointaru. That's why the Zurk, also known throughout Adoulin as the Second Coming of the Occult, will condescend to--"
 38: 0x00D5 [0x23] WAIT_FOR_DIALOG_INTERACTION
 39: 0x00D6 [0x6E] LocalPlayer uses emote 34*
 40: 0x00DD [0x99] Wait for LocalPlayer animation to complete
 41: 0x00E2 [0x1C] WAIT(120* ticks)
 42: 0x00E5 [0x2B] Zurko-Bazurko (ID: 17797258/0x010F908A) [7848*]:
    → "What!? Master Anastase wants a reportaru from the Zurk!?"
 43: 0x00EC [0x23] WAIT_FOR_DIALOG_INTERACTION
 44: 0x00ED [0x66] LOAD_EXT_SCHEDULER_MAIN: Load scheduler "thk1" with entities [Zurko-Bazurko (ID: 17797258/0x010F908A), Zurko-Bazurko (ID: 17797258/0x010F908A)], work=49*
 45: 0x00FC [0x2B] Zurko-Bazurko (ID: 17797258/0x010F908A) [7849*]:
    → "Everyone knows you're not supposed to interruptaru the hero during his speech! What a terrible sense of timing you have."
 46: 0x0103 [0x23] WAIT_FOR_DIALOG_INTERACTION
 47: 0x0104 [0x2B] Zurko-Bazurko (ID: 17797258/0x010F908A) [7850*]:
    → "Now that you've killed the moment...um...this waypoint isn't up to snuffy-wuff yet, so..."
 48: 0x010B [0x23] WAIT_FOR_DIALOG_INTERACTION
 49: 0x010C [0x2B] Zurko-Bazurko (ID: 17797258/0x010F908A) [7851*]:
    → "Just tell him that the Zurk's employing every onz of his decisiveness, determination, and most importantly, his daring-waring to save the day!"
 50: 0x0113 [0x23] WAIT_FOR_DIALOG_INTERACTION
 51: 0x0114 [0x66] LOAD_EXT_SCHEDULER_MAIN: Load scheduler "thk2" with entities [Zurko-Bazurko (ID: 17797258/0x010F908A), Zurko-Bazurko (ID: 17797258/0x010F908A)], work=49*
 52: 0x0123 [0x2B] Zurko-Bazurko (ID: 17797258/0x010F908A) [7852*]:
    → "Also be sure to mention that the slightest-wightest disruption in the Zurk's concentration can resultaru in Vana'diel's complete decimation...so he won't be making any reports for a while."
 53: 0x012A [0x23] WAIT_FOR_DIALOG_INTERACTION
 54: 0x012B [0x01] GOTO 0x0143
 55: 0x012E [0x02] IF !(Work_Zone[0] == 1*) GOTO 0x0143
 56: 0x0136 [0x2B] Zurko-Bazurko (ID: 17797258/0x010F908A) [7842*]:
    → "Ohoho, the Zurk likes your style, adventurer. He can always sympathize with those who like to defy fate. The Zurk himself doesn't play by anyone's rulesy-wules...not even his own."
 57: 0x013D [0x23] WAIT_FOR_DIALOG_INTERACTION
 58: 0x013E [0x21] END_EVENT
 59: 0x013F [0x00] END_REQSTACK()

SUBROUTINE_0143:
 60: 0x0143 [0x21] END_EVENT
 61: 0x0144 [0x00] END_REQSTACK()
```

#### Data or dead code:

```
# Dead code (unreachable instructions):
     0x0140 [0x01] GOTO 0x0143
```

### Event 349

#### Metadata

| Field        | Value    |
|--------------|----------|
| Entrypoint   | 0x0145   |
| Data Size    | 64 bytes |
| Instructions | 12       |

```
      00 01 02 03 04 05 06 07  08 09 0A 0B 0C 0D 0E 0F
      -- -- -- -- -- -- -- --  -- -- -- -- -- -- -- --
0140:                4A F0 FF  FF 7F 8A 90 0F 01 1C 00       J..........
0150: 80 1E F0 FF FF 7F 66 04  80 8A 90 0F 01 8A 90 0F  ......f.........
0160: 01 73 68 61 30 1C 0C 80  2B 8A 90 0F 01 1A 80 23  .sha0...+......#
0170: 66 04 80 8A 90 0F 01 8A  90 0F 01 73 68 61 31 1C  f..........sha1.
0180: 0C 80 23 21 00                                    ..#!.           
```

#### Opcodes

```
  0: 0x0145 [0x4A] LocalPlayer looks at Zurko-Bazurko (ID: 17797258/0x010F908A)
  1: 0x014E [0x1C] WAIT(20* ticks)
  2: 0x0151 [0x1E] EventEntity looks at LocalPlayer and starts talking
  3: 0x0156 [0x66] LOAD_EXT_SCHEDULER_MAIN: Load scheduler "sha0" with entities [Zurko-Bazurko (ID: 17797258/0x010F908A), Zurko-Bazurko (ID: 17797258/0x010F908A)], work=49*
  4: 0x0165 [0x1C] WAIT(120* ticks)
  5: 0x0168 [0x2B] Zurko-Bazurko (ID: 17797258/0x010F908A) [7853*]:
    → "The fate of the world hangs in the balance, understand!? You're to report that the Zurk is on a mission of the most epic-wepic proportions for the good of all mankind. There is no other option."
  6: 0x016F [0x23] WAIT_FOR_DIALOG_INTERACTION
  7: 0x0170 [0x66] LOAD_EXT_SCHEDULER_MAIN: Load scheduler "sha1" with entities [Zurko-Bazurko (ID: 17797258/0x010F908A), Zurko-Bazurko (ID: 17797258/0x010F908A)], work=49*
  8: 0x017F [0x1C] WAIT(120* ticks)
  9: 0x0182 [0x23] WAIT_FOR_DIALOG_INTERACTION
 10: 0x0183 [0x21] END_EVENT
 11: 0x0184 [0x00] END_REQSTACK()
```

### Event 350

#### Metadata

| Field        | Value    |
|--------------|----------|
| Entrypoint   | 0x0185   |
| Data Size    | 27 bytes |
| Instructions | 7        |

```
      00 01 02 03 04 05 06 07  08 09 0A 0B 0C 0D 0E 0F
      -- -- -- -- -- -- -- --  -- -- -- -- -- -- -- --
0180:                4A F0 FF  FF 7F 8A 90 0F 01 1C 00       J..........
0190: 80 1E F0 FF FF 7F 2B 8A  90 0F 01 1B 80 23 21 00  ......+......#!.
```

#### Opcodes

```
  0: 0x0185 [0x4A] LocalPlayer looks at Zurko-Bazurko (ID: 17797258/0x010F908A)
  1: 0x018E [0x1C] WAIT(20* ticks)
  2: 0x0191 [0x1E] EventEntity looks at LocalPlayer and starts talking
  3: 0x0196 [0x2B] Zurko-Bazurko (ID: 17797258/0x010F908A) [7854*]:
    → "Hnnng! The Zurk can feel it! The rune from which his unfathomable powers derive is about to eruptaru! Must...suppress...its eldritch-weldritch energy! The prophesied time...is yet to come!"
  4: 0x019D [0x23] WAIT_FOR_DIALOG_INTERACTION
  5: 0x019E [0x21] END_EVENT
  6: 0x019F [0x00] END_REQSTACK()
```

### Event 351

#### Metadata

| Field        | Value    |
|--------------|----------|
| Entrypoint   | 0x01A0   |
| Data Size    | 36 bytes |
| Instructions | 10       |

```
      00 01 02 03 04 05 06 07  08 09 0A 0B 0C 0D 0E 0F
      -- -- -- -- -- -- -- --  -- -- -- -- -- -- -- --
01A0: 42 4A F0 FF FF 7F 8A 90  0F 01 1C 00 80 1E F0 FF  BJ..............
01B0: FF 7F 2B 8A 90 0F 01 1C  80 23 2B 8A 90 0F 01 1D  ..+......#+.....
01C0: 80 23 21 00                                       .#!.            
```

#### Opcodes

```
  0: 0x01A0 [0x42] SET_CLI_EVENT_CANCEL_DATA()
  1: 0x01A1 [0x4A] LocalPlayer looks at Zurko-Bazurko (ID: 17797258/0x010F908A)
  2: 0x01AA [0x1C] WAIT(20* ticks)
  3: 0x01AD [0x1E] EventEntity looks at LocalPlayer and starts talking
  4: 0x01B2 [0x2B] Zurko-Bazurko (ID: 17797258/0x010F908A) [7855*]:
    → "Wh-whatever can this be...!? From an obsidian-widian darkness flows a malicious outpouring of flavor that assaultarus the tongue with an overpowering sweetness!"
  5: 0x01B9 [0x23] WAIT_FOR_DIALOG_INTERACTION
  6: 0x01BA [0x2B] Zurko-Bazurko (ID: 17797258/0x010F908A) [7856*]:
    → "Hmph, your naivety amuses me. No matter how much you whine, the Zurk cannot return what has willingly given-wiven itself up to his soul!"
  7: 0x01C1 [0x23] WAIT_FOR_DIALOG_INTERACTION
  8: 0x01C2 [0x21] END_EVENT
  9: 0x01C3 [0x00] END_REQSTACK()
```

### Event 352

#### Metadata

| Field        | Value    |
|--------------|----------|
| Entrypoint   | 0x01C4   |
| Data Size    | 44 bytes |
| Instructions | 12       |

```
      00 01 02 03 04 05 06 07  08 09 0A 0B 0C 0D 0E 0F
      -- -- -- -- -- -- -- --  -- -- -- -- -- -- -- --
01C0:             42 4A F0 FF  FF 7F 8A 90 0F 01 1C 00      BJ..........
01D0: 80 1E F0 FF FF 7F 2B 8A  90 0F 01 1C 80 23 2B 8A  ......+......#+.
01E0: 90 0F 01 1D 80 23 2B 8A  90 0F 01 1E 80 23 21 00  .....#+......#!.
```

#### Opcodes

```
  0: 0x01C4 [0x42] SET_CLI_EVENT_CANCEL_DATA()
  1: 0x01C5 [0x4A] LocalPlayer looks at Zurko-Bazurko (ID: 17797258/0x010F908A)
  2: 0x01CE [0x1C] WAIT(20* ticks)
  3: 0x01D1 [0x1E] EventEntity looks at LocalPlayer and starts talking
  4: 0x01D6 [0x2B] Zurko-Bazurko (ID: 17797258/0x010F908A) [7855*]:
    → "Wh-whatever can this be...!? From an obsidian-widian darkness flows a malicious outpouring of flavor that assaultarus the tongue with an overpowering sweetness!"
  5: 0x01DD [0x23] WAIT_FOR_DIALOG_INTERACTION
  6: 0x01DE [0x2B] Zurko-Bazurko (ID: 17797258/0x010F908A) [7856*]:
    → "Hmph, your naivety amuses me. No matter how much you whine, the Zurk cannot return what has willingly given-wiven itself up to his soul!"
  7: 0x01E5 [0x23] WAIT_FOR_DIALOG_INTERACTION
  8: 0x01E6 [0x2B] Zurko-Bazurko (ID: 17797258/0x010F908A) [7857*]:
    → "Those eyes brimming with tears of desire! Only a complete coward would actually exploit an adversary's weakness! Here, take this confection and departaru from the Zurk's presence! You disgust him!"
  9: 0x01ED [0x23] WAIT_FOR_DIALOG_INTERACTION
 10: 0x01EE [0x21] END_EVENT
 11: 0x01EF [0x00] END_REQSTACK()
```

### Event 353

#### Metadata

| Field        | Value    |
|--------------|----------|
| Entrypoint   | 0x01F0   |
| Data Size    | 28 bytes |
| Instructions | 8        |

```
      00 01 02 03 04 05 06 07  08 09 0A 0B 0C 0D 0E 0F
      -- -- -- -- -- -- -- --  -- -- -- -- -- -- -- --
01F0: 42 4A F0 FF FF 7F 8A 90  0F 01 1C 00 80 1E F0 FF  BJ..............
0200: FF 7F 2B 8A 90 0F 01 1E  80 23 21 00              ..+......#!.    
```

#### Opcodes

```
  0: 0x01F0 [0x42] SET_CLI_EVENT_CANCEL_DATA()
  1: 0x01F1 [0x4A] LocalPlayer looks at Zurko-Bazurko (ID: 17797258/0x010F908A)
  2: 0x01FA [0x1C] WAIT(20* ticks)
  3: 0x01FD [0x1E] EventEntity looks at LocalPlayer and starts talking
  4: 0x0202 [0x2B] Zurko-Bazurko (ID: 17797258/0x010F908A) [7857*]:
    → "Those eyes brimming with tears of desire! Only a complete coward would actually exploit an adversary's weakness! Here, take this confection and departaru from the Zurk's presence! You disgust him!"
  5: 0x0209 [0x23] WAIT_FOR_DIALOG_INTERACTION
  6: 0x020A [0x21] END_EVENT
  7: 0x020B [0x00] END_REQSTACK()
```

### Event 354

#### Metadata

| Field        | Value    |
|--------------|----------|
| Entrypoint   | 0x020C   |
| Data Size    | 29 bytes |
| Instructions | 13       |

```
      00 01 02 03 04 05 06 07  08 09 0A 0B 0C 0D 0E 0F
      -- -- -- -- -- -- -- --  -- -- -- -- -- -- -- --
0200:                                      42 1E F0 FF              B...
0210: FF 7F 1D 1F 80 23 1D 20  80 23 1D 21 80 23 1D 22  .....#. .#.!.#."
0220: 80 23 03 01 10 0D 80 21  00                       .#.....!.       
```

#### Opcodes

```
  0: 0x020C [0x42] SET_CLI_EVENT_CANCEL_DATA()
  1: 0x020D [0x1E] EventEntity looks at LocalPlayer and starts talking
  2: 0x0212 [0x1D] PRINT_EVENT_MESSAGE(message_id=7858*)
    → "These dazzling runey-wunes attract so many adoring fans that the Zurk can barely keep count! Have you come for an autograph?"
  3: 0x0215 [0x23] WAIT_FOR_DIALOG_INTERACTION
  4: 0x0216 [0x1D] PRINT_EVENT_MESSAGE(message_id=7859*)
    → "Some food from Adoulin? Let the Zurk get a tastey-waste of that..."
  5: 0x0219 [0x23] WAIT_FOR_DIALOG_INTERACTION
  6: 0x021A [0x1D] PRINT_EVENT_MESSAGE(message_id=7860*)
    → "<Mmmf> Anastase'sth granddaughter made sucth a <smack> delectable treataru? Thith is so divine that the Zurk might <burp> grathe her with the boon of hith thmile when he gets back <gulp>."
  7: 0x021D [0x23] WAIT_FOR_DIALOG_INTERACTION
  8: 0x021E [0x1D] PRINT_EVENT_MESSAGE(message_id=7861*)
    → "Ahhh...that really hit the spotaru! Tell Anastase that his star pupil is proceeding swimmingly with his studies of the runic-wunic arts--and that the waypointarus are fine, too."
  9: 0x0221 [0x23] WAIT_FOR_DIALOG_INTERACTION
 10: 0x0222 [0x03] Work_Zone[1] = 1*
 11: 0x0227 [0x21] END_EVENT
 12: 0x0228 [0x00] END_REQSTACK()
```

### Event 355

#### Metadata

| Field        | Value   |
|--------------|---------|
| Entrypoint   | 0x0229  |
| Data Size    | 1 bytes |
| Instructions | 1       |

```
      00 01 02 03 04 05 06 07  08 09 0A 0B 0C 0D 0E 0F
      -- -- -- -- -- -- -- --  -- -- -- -- -- -- -- --
0220:                             00                             .      
```

#### Opcodes

```
  0: 0x0229 [0x00] END_REQSTACK()
```

### Event 356

#### Metadata

| Field        | Value   |
|--------------|---------|
| Entrypoint   | 0x022A  |
| Data Size    | 1 bytes |
| Instructions | 1       |

```
      00 01 02 03 04 05 06 07  08 09 0A 0B 0C 0D 0E 0F
      -- -- -- -- -- -- -- --  -- -- -- -- -- -- -- --
0220:                                00                           .     
```

#### Opcodes

```
  0: 0x022A [0x00] END_REQSTACK()
```

### Event 357

#### Metadata

| Field        | Value   |
|--------------|---------|
| Entrypoint   | 0x022B  |
| Data Size    | 1 bytes |
| Instructions | 1       |

```
      00 01 02 03 04 05 06 07  08 09 0A 0B 0C 0D 0E 0F
      -- -- -- -- -- -- -- --  -- -- -- -- -- -- -- --
0220:                                   00                         .    
```

#### Opcodes

```
  0: 0x022B [0x00] END_REQSTACK()
```

### Event 358

#### Metadata

| Field        | Value   |
|--------------|---------|
| Entrypoint   | 0x022C  |
| Data Size    | 1 bytes |
| Instructions | 1       |

```
      00 01 02 03 04 05 06 07  08 09 0A 0B 0C 0D 0E 0F
      -- -- -- -- -- -- -- --  -- -- -- -- -- -- -- --
0220:                                      00                       .   
```

#### Opcodes

```
  0: 0x022C [0x00] END_REQSTACK()
```

### Event 359

#### Metadata

| Field        | Value   |
|--------------|---------|
| Entrypoint   | 0x022D  |
| Data Size    | 1 bytes |
| Instructions | 1       |

```
      00 01 02 03 04 05 06 07  08 09 0A 0B 0C 0D 0E 0F
      -- -- -- -- -- -- -- --  -- -- -- -- -- -- -- --
0220:                                         00                     .  
```

#### Opcodes

```
  0: 0x022D [0x00] END_REQSTACK()
```

### Event 360

#### Metadata

| Field        | Value   |
|--------------|---------|
| Entrypoint   | 0x022E  |
| Data Size    | 1 bytes |
| Instructions | 1       |

```
      00 01 02 03 04 05 06 07  08 09 0A 0B 0C 0D 0E 0F
      -- -- -- -- -- -- -- --  -- -- -- -- -- -- -- --
0220:                                            00                   . 
```

#### Opcodes

```
  0: 0x022E [0x00] END_REQSTACK()
```

### Event 361

#### Metadata

| Field        | Value   |
|--------------|---------|
| Entrypoint   | 0x022F  |
| Data Size    | 1 bytes |
| Instructions | 1       |

```
      00 01 02 03 04 05 06 07  08 09 0A 0B 0C 0D 0E 0F
      -- -- -- -- -- -- -- --  -- -- -- -- -- -- -- --
0220:                                               00                 .
```

#### Opcodes

```
  0: 0x022F [0x00] END_REQSTACK()
```

### Event 362

#### Metadata

| Field        | Value   |
|--------------|---------|
| Entrypoint   | 0x0230  |
| Data Size    | 1 bytes |
| Instructions | 1       |

```
      00 01 02 03 04 05 06 07  08 09 0A 0B 0C 0D 0E 0F
      -- -- -- -- -- -- -- --  -- -- -- -- -- -- -- --
0230: 00                                                .               
```

#### Opcodes

```
  0: 0x0230 [0x00] END_REQSTACK()
```

### Event 363

#### Metadata

| Field        | Value   |
|--------------|---------|
| Entrypoint   | 0x0231  |
| Data Size    | 1 bytes |
| Instructions | 1       |

```
      00 01 02 03 04 05 06 07  08 09 0A 0B 0C 0D 0E 0F
      -- -- -- -- -- -- -- --  -- -- -- -- -- -- -- --
0230:    00                                              .              
```

#### Opcodes

```
  0: 0x0231 [0x00] END_REQSTACK()
```

### Event 364

#### Metadata

| Field        | Value    |
|--------------|----------|
| Entrypoint   | 0x0232   |
| Data Size    | 27 bytes |
| Instructions | 7        |

```
      00 01 02 03 04 05 06 07  08 09 0A 0B 0C 0D 0E 0F
      -- -- -- -- -- -- -- --  -- -- -- -- -- -- -- --
0230:       4A F0 FF FF 7F 8A  90 0F 01 1C 00 80 1E F0    J.............
0240: FF FF 7F 2B 8A 90 0F 01  23 80 23 21 00           ...+....#.#!.   
```

#### Opcodes

```
  0: 0x0232 [0x4A] LocalPlayer looks at Zurko-Bazurko (ID: 17797258/0x010F908A)
  1: 0x023B [0x1C] WAIT(20* ticks)
  2: 0x023E [0x1E] EventEntity looks at LocalPlayer and starts talking
  3: 0x0243 [0x2B] Zurko-Bazurko (ID: 17797258/0x010F908A) [7954*]:
    → "The Zurk goes easy-weasy on no one! Not even the tiniest of tots!"
  4: 0x024A [0x23] WAIT_FOR_DIALOG_INTERACTION
  5: 0x024B [0x21] END_EVENT
  6: 0x024C [0x00] END_REQSTACK()
```

### Event 365

#### Metadata

| Field        | Value    |
|--------------|----------|
| Entrypoint   | 0x024D   |
| Data Size    | 48 bytes |
| Instructions | 12       |

```
      00 01 02 03 04 05 06 07  08 09 0A 0B 0C 0D 0E 0F
      -- -- -- -- -- -- -- --  -- -- -- -- -- -- -- --
0240:                                         4A F0 FF               J..
0250: FF 7F 8A 90 0F 01 1C 00  80 1E F0 FF FF 7F 03 02  ................
0260: 10 24 80 2B 8A 90 0F 01  25 80 23 2B 8A 90 0F 01  .$.+....%.#+....
0270: 26 80 23 2B 8A 90 0F 01  27 80 23 21 00           &.#+....'.#!.   
```

#### Opcodes

```
  0: 0x024D [0x4A] LocalPlayer looks at Zurko-Bazurko (ID: 17797258/0x010F908A)
  1: 0x0256 [0x1C] WAIT(20* ticks)
  2: 0x0259 [0x1E] EventEntity looks at LocalPlayer and starts talking
  3: 0x025E [0x03] Work_Zone[2] = 2573*
  4: 0x0263 [0x2B] Zurko-Bazurko (ID: 17797258/0x010F908A) [7951*]:
    → "Never before had the Zurk foughtaru someone worthy enough to receive the mighty benediction by $3. He shall treat this fortuity with due gravitas."
  5: 0x026A [0x23] WAIT_FOR_DIALOG_INTERACTION
  6: 0x026B [0x2B] Zurko-Bazurko (ID: 17797258/0x010F908A) [7952*]:
    → "Do not mishear, for the Zurk has not been deterred in the slightaruest! He shall forge-worge ahead down his own, as you shall do the same with yours."
  7: 0x0272 [0x23] WAIT_FOR_DIALOG_INTERACTION
  8: 0x0273 [0x2B] Zurko-Bazurko (ID: 17797258/0x010F908A) [7953*]:
    → "May the runes be with you."
  9: 0x027A [0x23] WAIT_FOR_DIALOG_INTERACTION
 10: 0x027B [0x21] END_EVENT
 11: 0x027C [0x00] END_REQSTACK()
```

### Event 367

#### Metadata

| Field        | Value    |
|--------------|----------|
| Entrypoint   | 0x027D   |
| Data Size    | 27 bytes |
| Instructions | 7        |

```
      00 01 02 03 04 05 06 07  08 09 0A 0B 0C 0D 0E 0F
      -- -- -- -- -- -- -- --  -- -- -- -- -- -- -- --
0270:                                         4A F0 FF               J..
0280: FF 7F 8A 90 0F 01 1C 00  80 1E F0 FF FF 7F 2B 8A  ..............+.
0290: 90 0F 01 28 80 23 21 00                           ...(.#!.        
```

#### Opcodes

```
  0: 0x027D [0x4A] LocalPlayer looks at Zurko-Bazurko (ID: 17797258/0x010F908A)
  1: 0x0286 [0x1C] WAIT(20* ticks)
  2: 0x0289 [0x1E] EventEntity looks at LocalPlayer and starts talking
  3: 0x028E [0x2B] Zurko-Bazurko (ID: 17797258/0x010F908A) [7955*]:
    → "So the Zurk's main rival-wival is back for a lesson in rune engraving?"
  4: 0x0295 [0x23] WAIT_FOR_DIALOG_INTERACTION
  5: 0x0296 [0x21] END_EVENT
  6: 0x0297 [0x00] END_REQSTACK()
```
