# 17797139 - Orlando

## Common Data

| Field            | Value            |
|------------------|------------------|
| Zone             | Mhaura (ID: 249) |
| Block Size       | 412 bytes        |
| Total Events     | 8                |
| References Count | 18               |

## List of Events

| Event ID              | Entrypoint   |   Size |   Instructions |
|-----------------------|--------------|--------|----------------|
| [65535](#event-65535) | 0x0000       |      1 |              1 |
| [100](#event-100)     | 0x0001       |     28 |              8 |
| [101](#event-101)     | 0x001D       |     84 |             22 |
| [102](#event-102)     | 0x0071       |     53 |             12 |
| [104](#event-104)     | 0x00A6       |     31 |             10 |
| [105](#event-105)     | 0x00C5       |     31 |             10 |
| [103](#event-103)     | 0x00E4       |     33 |              9 |
| [106](#event-106)     | 0x0105       |     28 |              8 |

## DAT References (imed_data)

|   Index | Hex Value   |   Dec Value |
|---------|-------------|-------------|
|       0 | 0x0041      |          65 |
|       1 | 0x1B2E      |        6958 |
|       2 | 0x1B2F      |        6959 |
|       3 | 0x1B30      |        6960 |
|       4 | 0x1B31      |        6961 |
|       5 | 0x1B32      |        6962 |
|       6 | 0x003C      |          60 |
|       7 | 0x1B33      |        6963 |
|       8 | 0x1B34      |        6964 |
|       9 | 0x005A      |          90 |
|      10 | 0x1B35      |        6965 |
|      11 | 0x005B      |          91 |
|      12 | 0x00C9      |         201 |
|      13 | 0x0000      |           0 |
|      14 | 0x1B37      |        6967 |
|      15 | 0x1B36      |        6966 |
|      16 | 0x1B38      |        6968 |
|      17 | 0x1B39      |        6969 |

## String References

- **6958**: What do you want? Yes, I'm Orlando the antiquary, but I don't deal with people who can't ride chocobos. That means you. Go away.
- **6959**: Ah! You can ride chocobos, I see. I'm Orlando the antiquary. I have a proposal for you, if you're interested.
- **6960**: Did you know that some of the Goblins around here hide items in the ground?
- **6961**: Find those hiding spots and dig them up with a chocobo. If you're lucky, you might even find something valuable.
- **6962**: But most of it will be junk. That's where I come in. Bring the junk to me and I'll buy them off you.
- **6963**: I only buy items in bunches of eight, though, so only come if you have enough. Of course, the amount I'll pay depends on what you bring.
- **6964**: Good hunting, then! But be careful. There are things worse than Goblins out there!
- **6965**: Let's see what you've brought... $1, eh? I'll give you $0 gil for them. Come back when you've dug up some more!
- **6966**: Hmm? It seems like you can't carry anything else. Come back when you've lightened your load.
- **6967**: This isn't enough. I told you, I only buy items in bunches of eight. Come back when you have enough, all right?
- **6968**: So, how goes the hunt? Bring me eight of the same items and I'll buy them off you. I'll pay more if their quality is good. Good luck!
- **6969**: People call me a "junk collector," but they're just a bunch of ignoramuses. Only connoisseurs like me can appreciate the true value of what I have.

## Events

### Event 65535

#### Metadata

| Field        | Value   |
|--------------|---------|
| Entrypoint   | 0x0000  |
| Data Size    | 1 bytes |
| Instructions | 1       |

```
      00 01 02 03 04 05 06 07  08 09 0A 0B 0C 0D 0E 0F
      -- -- -- -- -- -- -- --  -- -- -- -- -- -- -- --
0000: 00                                                .               
```

#### Opcodes

```
  0: 0x0000 [0x00] END_REQSTACK()
```

### Event 100

#### Metadata

| Field        | Value    |
|--------------|----------|
| Entrypoint   | 0x0001   |
| Data Size    | 28 bytes |
| Instructions | 8        |

```
      00 01 02 03 04 05 06 07  08 09 0A 0B 0C 0D 0E 0F
      -- -- -- -- -- -- -- --  -- -- -- -- -- -- -- --
0000:    1E F0 FF FF 7F 6F 70  5B 00 80 F8 FF FF 7F F8   .....op[.......
0010: FF FF 7F 74 6C 6B 30 1D  01 80 23 21 00           ...tlk0...#!.   
```

#### Opcodes

```
  0: 0x0001 [0x1E] EventEntity looks at LocalPlayer and starts talking
  1: 0x0006 [0x6F] WAIT_FRAME_DELAY: Yield until WaitTime reaches zero
  2: 0x0007 [0x70] WAIT_ENTITY_RENDER_FLAG: Wait while EventEntity->Render.Flags3 bit 2 is set (cancel turn if not)
  3: 0x0008 [0x5B] LOAD_EXT_SCHEDULER: Load scheduler "tlk0" with entities [EventEntity, EventEntity], work=65*
  4: 0x0017 [0x1D] PRINT_EVENT_MESSAGE(message_id=6958*)
    → "What do you want? Yes, I'm Orlando the antiquary, but I don't deal with people who can't ride chocobos. That means you. Go away."
  5: 0x001A [0x23] WAIT_FOR_DIALOG_INTERACTION
  6: 0x001B [0x21] END_EVENT
  7: 0x001C [0x00] END_REQSTACK()
```

### Event 101

#### Metadata

| Field        | Value    |
|--------------|----------|
| Entrypoint   | 0x001D   |
| Data Size    | 84 bytes |
| Instructions | 22       |

```
      00 01 02 03 04 05 06 07  08 09 0A 0B 0C 0D 0E 0F
      -- -- -- -- -- -- -- --  -- -- -- -- -- -- -- --
0010:                                         1E F0 FF               ...
0020: FF 7F 6F 70 5B 00 80 F8  FF FF 7F F8 FF FF 7F 74  ..op[..........t
0030: 6C 6B 30 1D 02 80 23 1D  03 80 23 1D 04 80 23 1D  lk0...#...#...#.
0040: 05 80 23 53 F8 FF FF 7F  F8 FF FF 7F 74 6C 6B 30  ..#S........tlk0
0050: 1C 06 80 5B 00 80 F8 FF  FF 7F F8 FF FF 7F 74 6C  ...[..........tl
0060: 6B 30 1D 07 80 23 1D 08  80 23 03 01 10 09 80 21  k0...#...#.....!
0070: 00                                                .               
```

#### Opcodes

```
  0: 0x001D [0x1E] EventEntity looks at LocalPlayer and starts talking
  1: 0x0022 [0x6F] WAIT_FRAME_DELAY: Yield until WaitTime reaches zero
  2: 0x0023 [0x70] WAIT_ENTITY_RENDER_FLAG: Wait while EventEntity->Render.Flags3 bit 2 is set (cancel turn if not)
  3: 0x0024 [0x5B] LOAD_EXT_SCHEDULER: Load scheduler "tlk0" with entities [EventEntity, EventEntity], work=65*
  4: 0x0033 [0x1D] PRINT_EVENT_MESSAGE(message_id=6959*)
    → "Ah! You can ride chocobos, I see. I'm Orlando the antiquary. I have a proposal for you, if you're interested."
  5: 0x0036 [0x23] WAIT_FOR_DIALOG_INTERACTION
  6: 0x0037 [0x1D] PRINT_EVENT_MESSAGE(message_id=6960*)
    → "Did you know that some of the Goblins around here hide items in the ground?"
  7: 0x003A [0x23] WAIT_FOR_DIALOG_INTERACTION
  8: 0x003B [0x1D] PRINT_EVENT_MESSAGE(message_id=6961*)
    → "Find those hiding spots and dig them up with a chocobo. If you're lucky, you might even find something valuable."
  9: 0x003E [0x23] WAIT_FOR_DIALOG_INTERACTION
 10: 0x003F [0x1D] PRINT_EVENT_MESSAGE(message_id=6962*)
    → "But most of it will be junk. That's where I come in. Bring the junk to me and I'll buy them off you."
 11: 0x0042 [0x23] WAIT_FOR_DIALOG_INTERACTION
 12: 0x0043 [0x53] WAIT_SCHEDULER_TASK: Wait for scheduler "tlk0" with entities [EventEntity, EventEntity]
 13: 0x0050 [0x1C] WAIT(60* ticks)
 14: 0x0053 [0x5B] LOAD_EXT_SCHEDULER: Load scheduler "tlk0" with entities [EventEntity, EventEntity], work=65*
 15: 0x0062 [0x1D] PRINT_EVENT_MESSAGE(message_id=6963*)
    → "I only buy items in bunches of eight, though, so only come if you have enough. Of course, the amount I'll pay depends on what you bring."
 16: 0x0065 [0x23] WAIT_FOR_DIALOG_INTERACTION
 17: 0x0066 [0x1D] PRINT_EVENT_MESSAGE(message_id=6964*)
    → "Good hunting, then! But be careful. There are things worse than Goblins out there!"
 18: 0x0069 [0x23] WAIT_FOR_DIALOG_INTERACTION
 19: 0x006A [0x03] Work_Zone[1] = 90*
 20: 0x006F [0x21] END_EVENT
 21: 0x0070 [0x00] END_REQSTACK()
```

### Event 102

#### Metadata

| Field        | Value    |
|--------------|----------|
| Entrypoint   | 0x0071   |
| Data Size    | 53 bytes |
| Instructions | 12       |

```
      00 01 02 03 04 05 06 07  08 09 0A 0B 0C 0D 0E 0F
      -- -- -- -- -- -- -- --  -- -- -- -- -- -- -- --
0070:    20 01 42 1E F0 FF FF  7F 6F 70 5B 00 80 F8 FF    .B.....op[....
0080: FF 7F F8 FF FF 7F 74 6C  6B 30 1D 0A 80 23 03 01  ......tlk0...#..
0090: 10 0B 80 45 0C 80 F0 FF  FF 7F F0 FF FF 7F 71 73  ...E..........qs
00A0: 74 63 0D 80 21 00                                 tc..!.          
```

#### Opcodes

```
  0: 0x0071 [0x20] SET_CLI_EVENT_UC_FLAG: Lock player control
  1: 0x0073 [0x42] SET_CLI_EVENT_CANCEL_DATA()
  2: 0x0074 [0x1E] EventEntity looks at LocalPlayer and starts talking
  3: 0x0079 [0x6F] WAIT_FRAME_DELAY: Yield until WaitTime reaches zero
  4: 0x007A [0x70] WAIT_ENTITY_RENDER_FLAG: Wait while EventEntity->Render.Flags3 bit 2 is set (cancel turn if not)
  5: 0x007B [0x5B] LOAD_EXT_SCHEDULER: Load scheduler "tlk0" with entities [EventEntity, EventEntity], work=65*
  6: 0x008A [0x1D] PRINT_EVENT_MESSAGE(message_id=6965*)
    → "Let's see what you've brought... $1, eh? I'll give you $0 gil for them. Come back when you've dug up some more!"
  7: 0x008D [0x23] WAIT_FOR_DIALOG_INTERACTION
  8: 0x008E [0x03] Work_Zone[1] = 91*
  9: 0x0093 [0x45] LOAD_SCHEDULED_TASK: Load scheduler "qstc" with entities [LocalPlayer, LocalPlayer], work=[201*, 0*]
 10: 0x00A4 [0x21] END_EVENT
 11: 0x00A5 [0x00] END_REQSTACK()
```

### Event 104

#### Metadata

| Field        | Value    |
|--------------|----------|
| Entrypoint   | 0x00A6   |
| Data Size    | 31 bytes |
| Instructions | 10       |

```
      00 01 02 03 04 05 06 07  08 09 0A 0B 0C 0D 0E 0F
      -- -- -- -- -- -- -- --  -- -- -- -- -- -- -- --
00A0:                   20 01  42 1E F0 FF FF 7F 6F 70         .B.....op
00B0: 5B 00 80 F8 FF FF 7F F8  FF FF 7F 74 6C 6B 30 1D  [..........tlk0.
00C0: 0E 80 23 21 00                                    ..#!.           
```

#### Opcodes

```
  0: 0x00A6 [0x20] SET_CLI_EVENT_UC_FLAG: Lock player control
  1: 0x00A8 [0x42] SET_CLI_EVENT_CANCEL_DATA()
  2: 0x00A9 [0x1E] EventEntity looks at LocalPlayer and starts talking
  3: 0x00AE [0x6F] WAIT_FRAME_DELAY: Yield until WaitTime reaches zero
  4: 0x00AF [0x70] WAIT_ENTITY_RENDER_FLAG: Wait while EventEntity->Render.Flags3 bit 2 is set (cancel turn if not)
  5: 0x00B0 [0x5B] LOAD_EXT_SCHEDULER: Load scheduler "tlk0" with entities [EventEntity, EventEntity], work=65*
  6: 0x00BF [0x1D] PRINT_EVENT_MESSAGE(message_id=6967*)
    → "This isn't enough. I told you, I only buy items in bunches of eight. Come back when you have enough, all right?"
  7: 0x00C2 [0x23] WAIT_FOR_DIALOG_INTERACTION
  8: 0x00C3 [0x21] END_EVENT
  9: 0x00C4 [0x00] END_REQSTACK()
```

### Event 105

#### Metadata

| Field        | Value    |
|--------------|----------|
| Entrypoint   | 0x00C5   |
| Data Size    | 31 bytes |
| Instructions | 10       |

```
      00 01 02 03 04 05 06 07  08 09 0A 0B 0C 0D 0E 0F
      -- -- -- -- -- -- -- --  -- -- -- -- -- -- -- --
00C0:                20 01 42  1E F0 FF FF 7F 6F 70 5B        .B.....op[
00D0: 00 80 F8 FF FF 7F F8 FF  FF 7F 74 6C 6B 30 1D 0F  ..........tlk0..
00E0: 80 23 21 00                                       .#!.            
```

#### Opcodes

```
  0: 0x00C5 [0x20] SET_CLI_EVENT_UC_FLAG: Lock player control
  1: 0x00C7 [0x42] SET_CLI_EVENT_CANCEL_DATA()
  2: 0x00C8 [0x1E] EventEntity looks at LocalPlayer and starts talking
  3: 0x00CD [0x6F] WAIT_FRAME_DELAY: Yield until WaitTime reaches zero
  4: 0x00CE [0x70] WAIT_ENTITY_RENDER_FLAG: Wait while EventEntity->Render.Flags3 bit 2 is set (cancel turn if not)
  5: 0x00CF [0x5B] LOAD_EXT_SCHEDULER: Load scheduler "tlk0" with entities [EventEntity, EventEntity], work=65*
  6: 0x00DE [0x1D] PRINT_EVENT_MESSAGE(message_id=6966*)
    → "Hmm? It seems like you can't carry anything else. Come back when you've lightened your load."
  7: 0x00E1 [0x23] WAIT_FOR_DIALOG_INTERACTION
  8: 0x00E2 [0x21] END_EVENT
  9: 0x00E3 [0x00] END_REQSTACK()
```

### Event 103

#### Metadata

| Field        | Value    |
|--------------|----------|
| Entrypoint   | 0x00E4   |
| Data Size    | 33 bytes |
| Instructions | 9        |

```
      00 01 02 03 04 05 06 07  08 09 0A 0B 0C 0D 0E 0F
      -- -- -- -- -- -- -- --  -- -- -- -- -- -- -- --
00E0:             1E F0 FF FF  7F 6F 70 5B 00 80 F8 FF      .....op[....
00F0: FF 7F F8 FF FF 7F 74 6C  6B 30 1D 10 80 23 03 01  ......tlk0...#..
0100: 10 09 80 21 00                                    ...!.           
```

#### Opcodes

```
  0: 0x00E4 [0x1E] EventEntity looks at LocalPlayer and starts talking
  1: 0x00E9 [0x6F] WAIT_FRAME_DELAY: Yield until WaitTime reaches zero
  2: 0x00EA [0x70] WAIT_ENTITY_RENDER_FLAG: Wait while EventEntity->Render.Flags3 bit 2 is set (cancel turn if not)
  3: 0x00EB [0x5B] LOAD_EXT_SCHEDULER: Load scheduler "tlk0" with entities [EventEntity, EventEntity], work=65*
  4: 0x00FA [0x1D] PRINT_EVENT_MESSAGE(message_id=6968*)
    → "So, how goes the hunt? Bring me eight of the same items and I'll buy them off you. I'll pay more if their quality is good. Good luck!"
  5: 0x00FD [0x23] WAIT_FOR_DIALOG_INTERACTION
  6: 0x00FE [0x03] Work_Zone[1] = 90*
  7: 0x0103 [0x21] END_EVENT
  8: 0x0104 [0x00] END_REQSTACK()
```

### Event 106

#### Metadata

| Field        | Value    |
|--------------|----------|
| Entrypoint   | 0x0105   |
| Data Size    | 28 bytes |
| Instructions | 8        |

```
      00 01 02 03 04 05 06 07  08 09 0A 0B 0C 0D 0E 0F
      -- -- -- -- -- -- -- --  -- -- -- -- -- -- -- --
0100:                1E F0 FF  FF 7F 6F 70 5B 00 80 F8       .....op[...
0110: FF FF 7F F8 FF FF 7F 74  6C 6B 30 1D 11 80 23 21  .......tlk0...#!
0120: 00                                                .               
```

#### Opcodes

```
  0: 0x0105 [0x1E] EventEntity looks at LocalPlayer and starts talking
  1: 0x010A [0x6F] WAIT_FRAME_DELAY: Yield until WaitTime reaches zero
  2: 0x010B [0x70] WAIT_ENTITY_RENDER_FLAG: Wait while EventEntity->Render.Flags3 bit 2 is set (cancel turn if not)
  3: 0x010C [0x5B] LOAD_EXT_SCHEDULER: Load scheduler "tlk0" with entities [EventEntity, EventEntity], work=65*
  4: 0x011B [0x1D] PRINT_EVENT_MESSAGE(message_id=6969*)
    → "People call me a "junk collector," but they're just a bunch of ignoramuses. Only connoisseurs like me can appreciate the true value of what I have."
  5: 0x011E [0x23] WAIT_FOR_DIALOG_INTERACTION
  6: 0x011F [0x21] END_EVENT
  7: 0x0120 [0x00] END_REQSTACK()
```
