# 17797172 - Felisa

## Common Data

| Field            | Value            |
|------------------|------------------|
| Zone             | Mhaura (ID: 249) |
| Block Size       | 244 bytes        |
| Total Events     | 3                |
| References Count | 11               |

## List of Events

| Event ID              | Entrypoint   |   Size |   Instructions |
|-----------------------|--------------|--------|----------------|
| [65535](#event-65535) | 0x0000       |      1 |              1 |
| [221](#event-221)     | 0x0001       |     99 |             23 |
| [230](#event-230)     | 0x0064       |     69 |             13 |

## DAT References (imed_data)

|   Index | Hex Value   |   Dec Value |
|---------|-------------|-------------|
|       0 | 0x000A      |          10 |
|       1 | 0x1BD3      |        7123 |
|       2 | 0x1BD4      |        7124 |
|       3 | 0x0000      |           0 |
|       4 | 0x0064      |         100 |
|       5 | 0x000B      |          11 |
|       6 | 0x1BD5      |        7125 |
|       7 | 0x014D      |         333 |
|       8 | 0x1BD6      |        7126 |
|       9 | 0x1BD7      |        7127 |
|      10 | 0x029A      |         666 |

## String References

- **7123**: The ship fare is $1 gil per person. Would you like to board the ferry?
- **7124**: Board the ship? [Yes, please./Not right now.]
- **7125**: Thank you. Go right on through.
- **7126**: I'm sorry, but you don't seem to have enough gil.
- **7127**: Ah, you must be [Mr./Ms.] <Player>. We've been expecting you. Mr. Rycharde has already paid your fare. Please go on through.

## Events

### Event 65535

#### Metadata

| Field        | Value   |
|--------------|---------|
| Entrypoint   | 0x0000  |
| Data Size    | 1 bytes |
| Instructions | 1       |

```
      00 01 02 03 04 05 06 07  08 09 0A 0B 0C 0D 0E 0F
      -- -- -- -- -- -- -- --  -- -- -- -- -- -- -- --
0000: 00                                                .               
```

#### Opcodes

```
  0: 0x0000 [0x00] END_REQSTACK()
```

### Event 221

#### Metadata

| Field        | Value    |
|--------------|----------|
| Entrypoint   | 0x0001   |
| Data Size    | 99 bytes |
| Instructions | 23       |

```
      00 01 02 03 04 05 06 07  08 09 0A 0B 0C 0D 0E 0F
      -- -- -- -- -- -- -- --  -- -- -- -- -- -- -- --
0000:    42 1E F0 FF FF 7F 6F  70 66 00 80 F8 FF FF 7F   B.....opf......
0010: F8 FF FF 7F 74 6C 6B 30  1D 01 80 23 5E 69 64 6C  ....tlk0...#^idl
0020: 30 24 02 80 03 80 03 80  25 02 00 10 03 80 00 62  0$......%......b
0030: 00 02 02 10 04 80 04 5B  00 66 05 80 F8 FF FF 7F  .......[.f......
0040: F8 FF FF 7F 6B 61 73 30  1D 06 80 23 03 01 10 07  ....kas0...#....
0050: 80 29 80 F0 FF FF 7F 0D  01 5F 00 1D 08 80 23 01  .)......._....#.
0060: 62 00 21 00                                       b.!.            
```

#### Opcodes

```
  0: 0x0001 [0x42] SET_CLI_EVENT_CANCEL_DATA()
  1: 0x0002 [0x1E] EventEntity looks at LocalPlayer and starts talking
  2: 0x0007 [0x6F] WAIT_FRAME_DELAY: Yield until WaitTime reaches zero
  3: 0x0008 [0x70] WAIT_ENTITY_RENDER_FLAG: Wait while EventEntity->Render.Flags3 bit 2 is set (cancel turn if not)
  4: 0x0009 [0x66] LOAD_EXT_SCHEDULER_MAIN: Load scheduler "tlk0" with entities [EventEntity, EventEntity], work=10*
  5: 0x0018 [0x1D] PRINT_EVENT_MESSAGE(message_id=7123*)
    → "The ship fare is $1 gil per person. Would you like to board the ferry?"
  6: 0x001B [0x23] WAIT_FOR_DIALOG_INTERACTION
  7: 0x001C [0x5E] EventEntity goes idle (kills current action) (animation: "idl0")
  8: 0x0021 [0x24] CREATE_DIALOG(message_id=7124*, default_option=0*, option_flags=0*)
    → "Board the ship? [Yes, please./Not right now.]"
  9: 0x0028 [0x25] WAIT_DIALOG_SELECT()
 10: 0x0029 [0x02] IF !(Work_Zone[0] == 0*) GOTO 0x0062
 11: 0x0031 [0x02] IF !(Work_Zone[2] < 100*) GOTO 0x005B
 12: 0x0039 [0x66] LOAD_EXT_SCHEDULER_MAIN: Load scheduler "kas0" with entities [EventEntity, EventEntity], work=11*
 13: 0x0048 [0x1D] PRINT_EVENT_MESSAGE(message_id=7125*)
    → "Thank you. Go right on through."
 14: 0x004B [0x23] WAIT_FOR_DIALOG_INTERACTION
 15: 0x004C [0x03] Work_Zone[1] = 333*
 16: 0x0051 [0x29] REQ_SET_WAIT(priority=0x80, entity_id=LocalPlayer, tag_num=0x0D)
 17: 0x0058 [0x01] GOTO 0x005F
 18: 0x005B [0x1D] PRINT_EVENT_MESSAGE(message_id=7126*)
    → "I'm sorry, but you don't seem to have enough gil."
 19: 0x005E [0x23] WAIT_FOR_DIALOG_INTERACTION

SUBROUTINE_005F:
 20: 0x005F [0x01] GOTO 0x0062

SUBROUTINE_0062:
 21: 0x0062 [0x21] END_EVENT
 22: 0x0063 [0x00] END_REQSTACK()
```

### Event 230

#### Metadata

| Field        | Value    |
|--------------|----------|
| Entrypoint   | 0x0064   |
| Data Size    | 69 bytes |
| Instructions | 13       |

```
      00 01 02 03 04 05 06 07  08 09 0A 0B 0C 0D 0E 0F
      -- -- -- -- -- -- -- --  -- -- -- -- -- -- -- --
0060:             42 1E F0 FF  FF 7F 6F 70 66 00 80 F8      B.....opf...
0070: FF FF 7F F8 FF FF 7F 74  6C 6B 30 1D 09 80 23 53  .......tlk0...#S
0080: F8 FF FF 7F F8 FF FF 7F  74 6C 6B 30 66 05 80 F8  ........tlk0f...
0090: FF FF 7F F8 FF FF 7F 6B  61 73 30 29 80 F0 FF FF  .......kas0)....
00A0: 7F 0D 03 01 10 0A 80 21  00                       .......!.       
```

#### Opcodes

```
  0: 0x0064 [0x42] SET_CLI_EVENT_CANCEL_DATA()
  1: 0x0065 [0x1E] EventEntity looks at LocalPlayer and starts talking
  2: 0x006A [0x6F] WAIT_FRAME_DELAY: Yield until WaitTime reaches zero
  3: 0x006B [0x70] WAIT_ENTITY_RENDER_FLAG: Wait while EventEntity->Render.Flags3 bit 2 is set (cancel turn if not)
  4: 0x006C [0x66] LOAD_EXT_SCHEDULER_MAIN: Load scheduler "tlk0" with entities [EventEntity, EventEntity], work=10*
  5: 0x007B [0x1D] PRINT_EVENT_MESSAGE(message_id=7127*)
    → "Ah, you must be [Mr./Ms.] <Player>. We've been expecting you. Mr. Rycharde has already paid your fare. Please go on through."
  6: 0x007E [0x23] WAIT_FOR_DIALOG_INTERACTION
  7: 0x007F [0x53] WAIT_SCHEDULER_TASK: Wait for scheduler "tlk0" with entities [EventEntity, EventEntity]
  8: 0x008C [0x66] LOAD_EXT_SCHEDULER_MAIN: Load scheduler "kas0" with entities [EventEntity, EventEntity], work=11*
  9: 0x009B [0x29] REQ_SET_WAIT(priority=0x80, entity_id=LocalPlayer, tag_num=0x0D)
 10: 0x00A2 [0x03] Work_Zone[1] = 666*
 11: 0x00A7 [0x21] END_EVENT
 12: 0x00A8 [0x00] END_REQSTACK()
```
