# 17797274 - Gorpa-Masorpa

## Common Data

| Field            | Value            |
|------------------|------------------|
| Zone             | Mhaura (ID: 249) |
| Block Size       | 27252 bytes      |
| Total Events     | 15               |
| References Count | 671              |

## List of Events

| Event ID              | Entrypoint   |   Size |   Instructions |
|-----------------------|--------------|--------|----------------|
| [65535](#event-65535) | 0x0000       |      1 |              1 |
| [384](#event-384)     | 0x0001       |     74 |             12 |
| [388](#event-388)     | 0x004B       |     74 |             12 |
| [385](#event-385)     | 0x0095       |    526 |             90 |
| [386](#event-386)     | 0x02A3       |   7785 |           1358 |
| [387](#event-387)     | 0x210C       |   7250 |           1200 |
| [389](#event-389)     | 0x3D5E       |    394 |             78 |
| [390](#event-390)     | 0x3EE8       |   1163 |            200 |
| [392](#event-392)     | 0x4373       |    413 |             77 |
| [396](#event-396)     | 0x4510       |    413 |             77 |
| [393](#event-393)     | 0x46AD       |     85 |             21 |
| [397](#event-397)     | 0x4702       |    411 |             77 |
| [398](#event-398)     | 0x489D       |    716 |            122 |
| [399](#event-399)     | 0x4B69       |    706 |            120 |
| [400](#event-400)     | 0x4E2B       |   4480 |            889 |

## DAT References (imed_data)

|   Index | Hex Value   |   Dec Value |
|---------|-------------|-------------|
|       0 | 0x0001      |           1 |
|       1 | 0x0028      |          40 |
|       2 | 0x1FD9      |        8153 |
|       3 | 0x1FF5      |        8181 |
|       4 | 0x1FF6      |        8182 |
|       5 | 0x1FDA      |        8154 |
|       6 | 0x1FDB      |        8155 |
|       7 | 0x1FDC      |        8156 |
|       8 | 0x1FDD      |        8157 |
|       9 | 0x1FDE      |        8158 |
|      10 | 0x1FDF      |        8159 |
|      11 | 0x0029      |          41 |
|      12 | 0x1FE0      |        8160 |
|      13 | 0x1FE1      |        8161 |
|      14 | 0x1FE2      |        8162 |
|      15 | 0x1FE3      |        8163 |
|      16 | 0x1FE4      |        8164 |
|      17 | 0x1FE5      |        8165 |
|      18 | 0x1FE6      |        8166 |
|      19 | 0x1FE7      |        8167 |
|      20 | 0x1FE8      |        8168 |
|      21 | 0x0BEC      |        3052 |
|      22 | 0x0BED      |        3053 |
|      23 | 0x1FE9      |        8169 |
|      24 | 0x1FEA      |        8170 |
|      25 | 0x1FEB      |        8171 |
|      26 | 0x1FEC      |        8172 |
|      27 | 0x1FED      |        8173 |
|      28 | 0x1FEE      |        8174 |
|      29 | 0x1FEF      |        8175 |
|      30 | 0x1FF0      |        8176 |
|      31 | 0x1FF1      |        8177 |
|      32 | 0x1FF2      |        8178 |
|      33 | 0x002D      |          45 |
|      34 | 0x1FF4      |        8180 |
|      35 | 0x0000      |           0 |
|      36 | 0x0007      |           7 |
|      37 | 0x0008      |           8 |
|      38 | 0x000F      |          15 |
|      39 | 0x1FF7      |        8183 |
|      40 | 0x1FF8      |        8184 |
|      41 | 0x1FFA      |        8186 |
|      42 | 0x2436      |        9270 |
|      43 | 0x2437      |        9271 |
|      44 | 0x2636      |        9782 |
|      45 | 0x2637      |        9783 |
|      46 | 0x2638      |        9784 |
|      47 | 0x2639      |        9785 |
|      48 | 0x1FFB      |        8187 |
|      49 | 0x0010      |          16 |
|      50 | 0x0002      |           2 |
|      51 | 0x0003      |           3 |
|      52 | 0x0011      |          17 |
|      53 | 0x0004      |           4 |
|      54 | 0x2008      |        8200 |
|      55 | 0x2009      |        8201 |
|      56 | 0x0040      |          64 |
|      57 | 0x001F      |          31 |
|      58 | 0x0005      |           5 |
|      59 | 0x0006      |           6 |
|      60 | 0x0009      |           9 |
|      61 | 0x000A      |          10 |
|      62 | 0x000B      |          11 |
|      63 | 0x000C      |          12 |
|      64 | 0x000D      |          13 |
|      65 | 0x000E      |          14 |
|      66 | 0x1FFC      |        8188 |
|      67 | 0x0012      |          18 |
|      68 | 0x1FFF      |        8191 |
|      69 | 0x0063      |          99 |
|      70 | 0x2024      |        8228 |
|      71 | 0x2006      |        8198 |
|      72 | 0x2000      |        8192 |
|      73 | 0x2001      |        8193 |
|      74 | 0x2004      |        8196 |
|      75 | 0x0017      |          23 |
|      76 | 0x0018      |          24 |
|      77 | 0x0020      |          32 |
|      78 | 0x1FFD      |        8189 |
|      79 | 0x2005      |        8197 |
|      80 | 0x2003      |        8195 |
|      81 | 0x2007      |        8199 |
|      82 | 0x2002      |        8194 |
|      83 | 0x1FFE      |        8190 |
|      84 | 0x200A      |        8202 |
|      85 | 0x2052      |        8274 |
|      86 | 0x2018      |        8216 |
|      87 | 0x2013      |        8211 |
|      88 | 0x0031      |          49 |
|      89 | 0x2014      |        8212 |
|      90 | 0x1445      |        5189 |
|      91 | 0x2015      |        8213 |
|      92 | 0x2016      |        8214 |
|      93 | 0x2017      |        8215 |
|      94 | 0x2404      |        9220 |
|      95 | 0x2405      |        9221 |
|      96 | 0x2406      |        9222 |
|      97 | 0x2407      |        9223 |
|      98 | 0x2408      |        9224 |
|      99 | 0x2409      |        9225 |
|     100 | 0x6686      |       26246 |
|     101 | 0x200B      |        8203 |
|     102 | 0x200C      |        8204 |
|     103 | 0x200E      |        8206 |
|     104 | 0x200F      |        8207 |
|     105 | 0x2010      |        8208 |
|     106 | 0x2011      |        8209 |
|     107 | 0x2012      |        8210 |
|     108 | 0x2036      |        8246 |
|     109 | 0x2037      |        8247 |
|     110 | 0x2038      |        8248 |
|     111 | 0x2039      |        8249 |
|     112 | 0x2031      |        8241 |
|     113 | 0x2032      |        8242 |
|     114 | 0x6545      |       25925 |
|     115 | 0x2033      |        8243 |
|     116 | 0x6546      |       25926 |
|     117 | 0x2034      |        8244 |
|     118 | 0x2035      |        8245 |
|     119 | 0x203E      |        8254 |
|     120 | 0x203F      |        8255 |
|     121 | 0x2040      |        8256 |
|     122 | 0x2041      |        8257 |
|     123 | 0x203B      |        8251 |
|     124 | 0x203C      |        8252 |
|     125 | 0x6554      |       25940 |
|     126 | 0x203D      |        8253 |
|     127 | 0x6555      |       25941 |
|     128 | 0x204D      |        8269 |
|     129 | 0x204E      |        8270 |
|     130 | 0x204F      |        8271 |
|     131 | 0x2050      |        8272 |
|     132 | 0x2048      |        8264 |
|     133 | 0x540B      |       21515 |
|     134 | 0x2049      |        8265 |
|     135 | 0x204A      |        8266 |
|     136 | 0x204B      |        8267 |
|     137 | 0x204C      |        8268 |
|     138 | 0x205D      |        8285 |
|     139 | 0x026C      |         620 |
|     140 | 0x0270      |         624 |
|     141 | 0x1135      |        4405 |
|     142 | 0x205E      |        8286 |
|     143 | 0x205F      |        8287 |
|     144 | 0x2060      |        8288 |
|     145 | 0x2059      |        8281 |
|     146 | 0x540C      |       21516 |
|     147 | 0x205A      |        8282 |
|     148 | 0x205B      |        8283 |
|     149 | 0x205C      |        8284 |
|     150 | 0x2067      |        8295 |
|     151 | 0x193A      |        6458 |
|     152 | 0x2068      |        8296 |
|     153 | 0x2069      |        8297 |
|     154 | 0x206A      |        8298 |
|     155 | 0x2065      |        8293 |
|     156 | 0x540D      |       21517 |
|     157 | 0x2066      |        8294 |
|     158 | 0x2076      |        8310 |
|     159 | 0x2077      |        8311 |
|     160 | 0x2078      |        8312 |
|     161 | 0x2079      |        8313 |
|     162 | 0x540E      |       21518 |
|     163 | 0x2070      |        8304 |
|     164 | 0x49D8      |       18904 |
|     165 | 0x2071      |        8305 |
|     166 | 0x2072      |        8306 |
|     167 | 0x2073      |        8307 |
|     168 | 0x2074      |        8308 |
|     169 | 0x2075      |        8309 |
|     170 | 0x2042      |        8258 |
|     171 | 0x2043      |        8259 |
|     172 | 0x2044      |        8260 |
|     173 | 0x2046      |        8262 |
|     174 | 0x2051      |        8273 |
|     175 | 0x207A      |        8314 |
|     176 | 0x1FF9      |        8185 |
|     177 | 0x001A      |          26 |
|     178 | 0x2019      |        8217 |
|     179 | 0x0019      |          25 |
|     180 | 0x201A      |        8218 |
|     181 | 0x001B      |          27 |
|     182 | 0x201F      |        8223 |
|     183 | 0x2020      |        8224 |
|     184 | 0xFFFF      |       65535 |
|     185 | 0x0013      |          19 |
|     186 | 0x2022      |        8226 |
|     187 | 0x2021      |        8225 |
|     188 | 0x2023      |        8227 |
|     189 | 0x201B      |        8219 |
|     190 | 0x201C      |        8220 |
|     191 | 0x201D      |        8221 |
|     192 | 0x201E      |        8222 |
|     193 | 0x2025      |        8229 |
|     194 | 0x2026      |        8230 |
|     195 | 0x2027      |        8231 |
|     196 | 0x2029      |        8233 |
|     197 | 0x2028      |        8232 |
|     198 | 0x202A      |        8234 |
|     199 | 0x2413      |        9235 |
|     200 | 0x2414      |        9236 |
|     201 | 0x2415      |        9237 |
|     202 | 0x2416      |        9238 |
|     203 | 0x2417      |        9239 |
|     204 | 0x2418      |        9240 |
|     205 | 0x2419      |        9241 |
|     206 | 0x241A      |        9242 |
|     207 | 0x241B      |        9243 |
|     208 | 0x241C      |        9244 |
|     209 | 0x242C      |        9260 |
|     210 | 0x242D      |        9261 |
|     211 | 0x242E      |        9262 |
|     212 | 0x242F      |        9263 |
|     213 | 0x2430      |        9264 |
|     214 | 0x2431      |        9265 |
|     215 | 0x2432      |        9266 |
|     216 | 0x2433      |        9267 |
|     217 | 0x2434      |        9268 |
|     218 | 0x2435      |        9269 |
|     219 | 0x2438      |        9272 |
|     220 | 0x2439      |        9273 |
|     221 | 0x2634      |        9780 |
|     222 | 0x2635      |        9781 |
|     223 | 0x0016      |          22 |
|     224 | 0x26D1      |        9937 |
|     225 | 0x26D2      |        9938 |
|     226 | 0x26D3      |        9939 |
|     227 | 0x26D4      |        9940 |
|     228 | 0x26D5      |        9941 |
|     229 | 0x26D6      |        9942 |
|     230 | 0x26D7      |        9943 |
|     231 | 0x26D8      |        9944 |
|     232 | 0x26D9      |        9945 |
|     233 | 0x26DA      |        9946 |
|     234 | 0x26DB      |        9947 |
|     235 | 0x26DC      |        9948 |
|     236 | 0xFFFFFFFF  |  4294967295 |
|     237 | 0x202B      |        8235 |
|     238 | 0x202C      |        8236 |
|     239 | 0x202D      |        8237 |
|     240 | 0x202E      |        8238 |
|     241 | 0x202F      |        8239 |
|     242 | 0x2030      |        8240 |
|     243 | 0x203A      |        8250 |
|     244 | 0x2045      |        8261 |
|     245 | 0x2047      |        8263 |
|     246 | 0x01F1      |         497 |
|     247 | 0x00D2      |         210 |
|     248 | 0x2053      |        8275 |
|     249 | 0x2054      |        8276 |
|     250 | 0x2055      |        8277 |
|     251 | 0x2056      |        8278 |
|     252 | 0x003C      |          60 |
|     253 | 0x2061      |        8289 |
|     254 | 0x2062      |        8290 |
|     255 | 0x2063      |        8291 |
|     256 | 0x2064      |        8292 |
|     257 | 0x206B      |        8299 |
|     258 | 0x206C      |        8300 |
|     259 | 0x206D      |        8301 |
|     260 | 0x206E      |        8302 |
|     261 | 0x206F      |        8303 |
|     262 | 0x05A9      |        1449 |
|     263 | 0x05AA      |        1450 |
|     264 | 0x05AC      |        1452 |
|     265 | 0x05AD      |        1453 |
|     266 | 0x05AF      |        1455 |
|     267 | 0x05B0      |        1456 |
|     268 | 0x09B8      |        2488 |
|     269 | 0x0DB5      |        3509 |
|     270 | 0x0DAA      |        3498 |
|     271 | 0x0DAB      |        3499 |
|     272 | 0x0FDB      |        4059 |
|     273 | 0x0FDC      |        4060 |
|     274 | 0x0FDD      |        4061 |
|     275 | 0x225E      |        8798 |
|     276 | 0x0DAE      |        3502 |
|     277 | 0x0DAF      |        3503 |
|     278 | 0x0FE0      |        4064 |
|     279 | 0x0FE1      |        4065 |
|     280 | 0x0FE2      |        4066 |
|     281 | 0x0FE3      |        4067 |
|     282 | 0x0FE4      |        4068 |
|     283 | 0x0FE5      |        4069 |
|     284 | 0x0FE6      |        4070 |
|     285 | 0x0FE7      |        4071 |
|     286 | 0x0FE8      |        4072 |
|     287 | 0x0FE9      |        4073 |
|     288 | 0x0096      |         150 |
|     289 | 0x06D6      |        1750 |
|     290 | 0x0064      |         100 |
|     291 | 0x01F4      |         500 |
|     292 | 0x02EE      |         750 |
|     293 | 0x0014      |          20 |
|     294 | 0x007D      |         125 |
|     295 | 0x07D0      |        2000 |
|     296 | 0x00C8      |         200 |
|     297 | 0x05DC      |        1500 |
|     298 | 0x0032      |          50 |
|     299 | 0x0023      |          35 |
|     300 | 0x7530      |       30000 |
|     301 | 0xC350      |       50000 |
|     302 | 0x0320      |         800 |
|     303 | 0x00FA      |         250 |
|     304 | 0x0190      |         400 |
|     305 | 0x0258      |         600 |
|     306 | 0x03E8      |        1000 |
|     307 | 0x012C      |         300 |
|     308 | 0x04B0      |        1200 |
|     309 | 0x1964      |        6500 |
|     310 | 0x103B      |        4155 |
|     311 | 0x168A      |        5770 |
|     312 | 0x6634      |       26164 |
|     313 | 0x6635      |       26165 |
|     314 | 0x230D      |        8973 |
|     315 | 0x0078      |         120 |
|     316 | 0x00BE      |         190 |
|     317 | 0x00F0      |         240 |
|     318 | 0x0172      |         370 |
|     319 | 0x01C2      |         450 |
|     320 | 0x021C      |         540 |
|     321 | 0x0280      |         640 |
|     322 | 0x0366      |         870 |
|     323 | 0x044C      |        1100 |
|     324 | 0x0578      |        1400 |
|     325 | 0x076C      |        1900 |
|     326 | 0x0A8C      |        2700 |
|     327 | 0x0ED8      |        3800 |
|     328 | 0x14B4      |        5300 |
|     329 | 0x1C20      |        7200 |
|     330 | 0x2580      |        9600 |
|     331 | 0x30D4      |       12500 |
|     332 | 0x3E80      |       16000 |
|     333 | 0x005A      |          90 |
|     334 | 0x00F5      |         245 |
|     335 | 0x0708      |        1800 |
|     336 | 0x1770      |        6000 |
|     337 | 0x0384      |         900 |
|     338 | 0x0960      |        2400 |
|     339 | 0x0E10      |        3600 |
|     340 | 0x004F      |          79 |
|     341 | 0x0053      |          83 |
|     342 | 0x0200      |         512 |
|     343 | 0x0201      |         513 |
|     344 | 0x0202      |         514 |
|     345 | 0x0203      |         515 |
|     346 | 0x0204      |         516 |
|     347 | 0x0205      |         517 |
|     348 | 0x0206      |         518 |
|     349 | 0x007C      |         124 |
|     350 | 0x0044      |          68 |
|     351 | 0x0045      |          69 |
|     352 | 0x0050      |          80 |
|     353 | 0x0051      |          81 |
|     354 | 0x004E      |          78 |
|     355 | 0x0052      |          82 |
|     356 | 0x001D      |          29 |
|     357 | 0x016A      |         362 |
|     358 | 0x0025      |          37 |
|     359 | 0x0060      |          96 |
|     360 | 0x0061      |          97 |
|     361 | 0x007E      |         126 |
|     362 | 0x0147      |         327 |
|     363 | 0x008E      |         142 |
|     364 | 0x008F      |         143 |
|     365 | 0x0092      |         146 |
|     366 | 0x0027      |          39 |
|     367 | 0x00D3      |         211 |
|     368 | 0x0085      |         133 |
|     369 | 0x008C      |         140 |
|     370 | 0x0149      |         329 |
|     371 | 0x014A      |         330 |
|     372 | 0x006E      |         110 |
|     373 | 0x006F      |         111 |
|     374 | 0x0480      |        1152 |
|     375 | 0x0481      |        1153 |
|     376 | 0x0482      |        1154 |
|     377 | 0x0483      |        1155 |
|     378 | 0x0484      |        1156 |
|     379 | 0x0047      |          71 |
|     380 | 0x0089      |         137 |
|     381 | 0x016B      |         363 |
|     382 | 0x05C0      |        1472 |
|     383 | 0x0486      |        1158 |
|     384 | 0x0485      |        1157 |
|     385 | 0x04DE      |        1246 |
|     386 | 0x04DF      |        1247 |
|     387 | 0x0070      |         112 |
|     388 | 0x0015      |          21 |
|     389 | 0x0024      |          36 |
|     390 | 0x643B      |       25659 |
|     391 | 0x643F      |       25663 |
|     392 | 0x6441      |       25665 |
|     393 | 0x643D      |       25661 |
|     394 | 0x6443      |       25667 |
|     395 | 0x6491      |       25745 |
|     396 | 0x6495      |       25749 |
|     397 | 0x6497      |       25751 |
|     398 | 0x6493      |       25747 |
|     399 | 0x6499      |       25753 |
|     400 | 0x64C8      |       25800 |
|     401 | 0x64CC      |       25804 |
|     402 | 0x64CE      |       25806 |
|     403 | 0x64CA      |       25802 |
|     404 | 0x64D0      |       25808 |
|     405 | 0x6502      |       25858 |
|     406 | 0x6506      |       25862 |
|     407 | 0x6509      |       25865 |
|     408 | 0x6504      |       25860 |
|     409 | 0x650B      |       25867 |
|     410 | 0x6549      |       25929 |
|     411 | 0x654B      |       25931 |
|     412 | 0x6547      |       25927 |
|     413 | 0x654D      |       25933 |
|     414 | 0x643C      |       25660 |
|     415 | 0x6440      |       25664 |
|     416 | 0x6442      |       25666 |
|     417 | 0x643E      |       25662 |
|     418 | 0x6444      |       25668 |
|     419 | 0x6492      |       25746 |
|     420 | 0x6496      |       25750 |
|     421 | 0x6498      |       25752 |
|     422 | 0x6494      |       25748 |
|     423 | 0x649A      |       25754 |
|     424 | 0x64C9      |       25801 |
|     425 | 0x64CD      |       25805 |
|     426 | 0x64CF      |       25807 |
|     427 | 0x64CB      |       25803 |
|     428 | 0x64D1      |       25809 |
|     429 | 0x6503      |       25859 |
|     430 | 0x6507      |       25863 |
|     431 | 0x650A      |       25866 |
|     432 | 0x6505      |       25861 |
|     433 | 0x650C      |       25868 |
|     434 | 0x654A      |       25930 |
|     435 | 0x654C      |       25932 |
|     436 | 0x6548      |       25928 |
|     437 | 0x654E      |       25934 |
|     438 | 0x63EB      |       25579 |
|     439 | 0x63ED      |       25581 |
|     440 | 0x63EF      |       25583 |
|     441 | 0x63F4      |       25588 |
|     442 | 0x63F6      |       25590 |
|     443 | 0x64B3      |       25779 |
|     444 | 0x64B5      |       25781 |
|     445 | 0x64B7      |       25783 |
|     446 | 0x64A2      |       25762 |
|     447 | 0x64A4      |       25764 |
|     448 | 0x64DA      |       25818 |
|     449 | 0x64DC      |       25820 |
|     450 | 0x64DE      |       25822 |
|     451 | 0x64D2      |       25810 |
|     452 | 0x64D4      |       25812 |
|     453 | 0x6511      |       25873 |
|     454 | 0x6513      |       25875 |
|     455 | 0x6515      |       25877 |
|     456 | 0x650D      |       25869 |
|     457 | 0x650F      |       25871 |
|     458 | 0x6556      |       25942 |
|     459 | 0x6558      |       25944 |
|     460 | 0x654F      |       25935 |
|     461 | 0x6551      |       25937 |
|     462 | 0x63EC      |       25580 |
|     463 | 0x63EE      |       25582 |
|     464 | 0x63F0      |       25584 |
|     465 | 0x63F5      |       25589 |
|     466 | 0x63F7      |       25591 |
|     467 | 0x64B4      |       25780 |
|     468 | 0x64B6      |       25782 |
|     469 | 0x64B8      |       25784 |
|     470 | 0x64A3      |       25763 |
|     471 | 0x64A5      |       25765 |
|     472 | 0x64DB      |       25819 |
|     473 | 0x64DD      |       25821 |
|     474 | 0x64DF      |       25823 |
|     475 | 0x64D3      |       25811 |
|     476 | 0x64D5      |       25813 |
|     477 | 0x6512      |       25874 |
|     478 | 0x6514      |       25876 |
|     479 | 0x6516      |       25878 |
|     480 | 0x650E      |       25870 |
|     481 | 0x6510      |       25872 |
|     482 | 0x6557      |       25943 |
|     483 | 0x6559      |       25945 |
|     484 | 0x6550      |       25936 |
|     485 | 0x6552      |       25938 |
|     486 | 0x665C      |       26204 |
|     487 | 0x665E      |       26206 |
|     488 | 0x665F      |       26207 |
|     489 | 0x665D      |       26205 |
|     490 | 0x6660      |       26208 |
|     491 | 0x6663      |       26211 |
|     492 | 0x6664      |       26212 |
|     493 | 0x6665      |       26213 |
|     494 | 0x6661      |       26209 |
|     495 | 0x6662      |       26210 |
|     496 | 0x5439      |       21561 |
|     497 | 0x5471      |       21617 |
|     498 | 0x54A6      |       21670 |
|     499 | 0x54D6      |       21718 |
|     500 | 0x550F      |       21775 |
|     501 | 0x5542      |       21826 |
|     502 | 0x5577      |       21879 |
|     503 | 0x559E      |       21918 |
|     504 | 0x55D3      |       21971 |
|     505 | 0x560B      |       22027 |
|     506 | 0x5642      |       22082 |
|     507 | 0x565C      |       22108 |
|     508 | 0x56C6      |       22214 |
|     509 | 0x6687      |       26247 |
|     510 | 0x6688      |       26248 |
|     511 | 0x6689      |       26249 |
|     512 | 0x668A      |       26250 |
|     513 | 0x668B      |       26251 |
|     514 | 0x668C      |       26252 |
|     515 | 0x668D      |       26253 |
|     516 | 0x668E      |       26254 |
|     517 | 0x668F      |       26255 |
|     518 | 0x6690      |       26256 |
|     519 | 0x6691      |       26257 |
|     520 | 0x6692      |       26258 |
|     521 | 0x6693      |       26259 |
|     522 | 0x6694      |       26260 |
|     523 | 0x6695      |       26261 |
|     524 | 0x6696      |       26262 |
|     525 | 0x6697      |       26263 |
|     526 | 0x6698      |       26264 |
|     527 | 0x6699      |       26265 |
|     528 | 0x669A      |       26266 |
|     529 | 0x669B      |       26267 |
|     530 | 0x5567      |       21863 |
|     531 | 0x5649      |       22089 |
|     532 | 0x55F4      |       22004 |
|     533 | 0x55F5      |       22005 |
|     534 | 0x5633      |       22067 |
|     535 | 0x5638      |       22072 |
|     536 | 0x6729      |       26409 |
|     537 | 0x54B0      |       21680 |
|     538 | 0x54F1      |       21745 |
|     539 | 0x54F0      |       21744 |
|     540 | 0x5637      |       22071 |
|     541 | 0x5634      |       22068 |
|     542 | 0x5318      |       21272 |
|     543 | 0x5636      |       22070 |
|     544 | 0x54FF      |       21759 |
|     545 | 0x5060      |       20576 |
|     546 | 0x5501      |       21761 |
|     547 | 0x550A      |       21770 |
|     548 | 0x54B1      |       21681 |
|     549 | 0x63E6      |       25574 |
|     550 | 0x64BE      |       25790 |
|     551 | 0x64E4      |       25828 |
|     552 | 0x6517      |       25879 |
|     553 | 0x655A      |       25946 |
|     554 | 0x63E8      |       25576 |
|     555 | 0x64C0      |       25792 |
|     556 | 0x64E6      |       25830 |
|     557 | 0x6519      |       25881 |
|     558 | 0x655C      |       25948 |
|     559 | 0x63E9      |       25577 |
|     560 | 0x64C1      |       25793 |
|     561 | 0x64E7      |       25831 |
|     562 | 0x651A      |       25882 |
|     563 | 0x655D      |       25949 |
|     564 | 0x63E7      |       25575 |
|     565 | 0x64BF      |       25791 |
|     566 | 0x64E5      |       25829 |
|     567 | 0x6518      |       25880 |
|     568 | 0x655B      |       25947 |
|     569 | 0x63EA      |       25578 |
|     570 | 0x64C2      |       25794 |
|     571 | 0x64E8      |       25832 |
|     572 | 0x651B      |       25883 |
|     573 | 0x655E      |       25950 |
|     574 | 0x63E1      |       25569 |
|     575 | 0x64C5      |       25797 |
|     576 | 0x64EB      |       25835 |
|     577 | 0x651E      |       25886 |
|     578 | 0x6561      |       25953 |
|     579 | 0x63E5      |       25573 |
|     580 | 0x64C4      |       25796 |
|     581 | 0x64EA      |       25834 |
|     582 | 0x651D      |       25885 |
|     583 | 0x6560      |       25952 |
|     584 | 0x63E2      |       25570 |
|     585 | 0x64C6      |       25798 |
|     586 | 0x64EC      |       25836 |
|     587 | 0x651F      |       25887 |
|     588 | 0x6562      |       25954 |
|     589 | 0x63E4      |       25572 |
|     590 | 0x64C3      |       25795 |
|     591 | 0x64E9      |       25833 |
|     592 | 0x651C      |       25884 |
|     593 | 0x655F      |       25951 |
|     594 | 0x63E3      |       25571 |
|     595 | 0x64C7      |       25799 |
|     596 | 0x64ED      |       25837 |
|     597 | 0x6520      |       25888 |
|     598 | 0x6563      |       25955 |
|     599 | 0x543A      |       21562 |
|     600 | 0x5472      |       21618 |
|     601 | 0x54A7      |       21671 |
|     602 | 0x54D7      |       21719 |
|     603 | 0x5510      |       21776 |
|     604 | 0x5543      |       21827 |
|     605 | 0x5578      |       21880 |
|     606 | 0x559F      |       21919 |
|     607 | 0x55D4      |       21972 |
|     608 | 0x560C      |       22028 |
|     609 | 0x5643      |       22083 |
|     610 | 0x565D      |       22109 |
|     611 | 0x56C7      |       22215 |
|     612 | 0x543B      |       21563 |
|     613 | 0x5473      |       21619 |
|     614 | 0x54A8      |       21672 |
|     615 | 0x54D8      |       21720 |
|     616 | 0x5511      |       21777 |
|     617 | 0x5544      |       21828 |
|     618 | 0x5579      |       21881 |
|     619 | 0x55A0      |       21920 |
|     620 | 0x55D5      |       21973 |
|     621 | 0x560D      |       22029 |
|     622 | 0x5644      |       22084 |
|     623 | 0x565E      |       22110 |
|     624 | 0x56C8      |       22216 |
|     625 | 0x543C      |       21564 |
|     626 | 0x5474      |       21620 |
|     627 | 0x54A9      |       21673 |
|     628 | 0x54D9      |       21721 |
|     629 | 0x5512      |       21778 |
|     630 | 0x5545      |       21829 |
|     631 | 0x557A      |       21882 |
|     632 | 0x55A1      |       21921 |
|     633 | 0x55D6      |       21974 |
|     634 | 0x560E      |       22030 |
|     635 | 0x5645      |       22085 |
|     636 | 0x565F      |       22111 |
|     637 | 0x56C9      |       22217 |
|     638 | 0x540F      |       21519 |
|     639 | 0x543D      |       21565 |
|     640 | 0x5475      |       21621 |
|     641 | 0x54AA      |       21674 |
|     642 | 0x54DA      |       21722 |
|     643 | 0x5513      |       21779 |
|     644 | 0x5546      |       21830 |
|     645 | 0x557B      |       21883 |
|     646 | 0x55A2      |       21922 |
|     647 | 0x55D7      |       21975 |
|     648 | 0x560F      |       22031 |
|     649 | 0x5646      |       22086 |
|     650 | 0x565B      |       22107 |
|     651 | 0x56CA      |       22218 |
|     652 | 0x4505      |       17669 |
|     653 | 0x4819      |       18457 |
|     654 | 0x4822      |       18466 |
|     655 | 0x485D      |       18525 |
|     656 | 0x486E      |       18542 |
|     657 | 0x4885      |       18565 |
|     658 | 0x4962      |       18786 |
|     659 | 0x498E      |       18830 |
|     660 | 0x49C7      |       18887 |
|     661 | 0x4AC8      |       19144 |
|     662 | 0x4AC9      |       19145 |
|     663 | 0x4AE6      |       19174 |
|     664 | 0x4B62      |       19298 |
|     665 | 0x4D52      |       19794 |
|     666 | 0x502B      |       20523 |
|     667 | 0x516F      |       20847 |
|     668 | 0x51CA      |       20938 |
|     669 | 0x2058      |        8280 |
|     670 | 0x2057      |        8279 |

## String References

- **8153**: A fantastic day to you, good [sir/lady]! I, Gorpa-Masorpa, have been dispatch-watched from the Adventurers' Mutual Aid Network to...to...
- **8154**: ...to serve adventurers...
- **8155**: ...under the auspices of...
- **8156**: ...the great, almightaruly...
- **8157**: Abdhaljs! <Cough, cough>
- **8158**: Urk...
- **8159**: Tohoho...hohohohohohohoho!
- **8160**: You, uh, see...
- **8161**: Abdhaljs, creator of the tiny, tiny place known as Legion, has seen fitaru to permit us the use of his creation!
- **8162**: Oh, does the luck-wuck of the A.M.A.N. know no bounds!?
- **8163**: This slightly repurposed Maquette Abdhaljs - Legion has undergone a variety of improvementarus by some of our association's most skilled thaumaturges.
- **8164**: Steel yourselves for our latestaru creation--Ambuscade!
- **8165**: In Ambuscade, you'll square off againstaru a bevy of foes just chomping at the bit to see you torn into itty-bitty pieces!
- **8166**: Every month (Earth time), new challengers enter the arena, providing different challenges from the month before.
- **8167**: Now, now, wipe that dribble off your chin, for there are a couple hoops-woops we're going to make you jump through before you can join.
- **8168**: First, you must be in a party of up to six players.
- **8169**: Second, you must be in possession of either $6 or $6. Either of the two will suffice.
- **8170**: These two goodies can be procured by completaruing specific Records of Eminence objectives.
- **8171**: You mightaru think those tasks to be laughably simple, but trust me--it keeps out the riffraff. When you're prepared, examine the Ambuscade tome and be on your way.
- **8172**: And now, I would like to discuss the rewards.
- **8173**: Simply put, all you need to know is that victory in Ambuscade will reward you with a special currency known as hallmarks.
- **8174**: There are two varieties of reward available: those that are purchasable in exchange for a certain number of hallmarks, and those you receive once you have reached a particular-wicular running total of hallmarks.
- **8175**: If you're inclined to join forces with other player-wayers, you'll receive an even more special currency known as "gallantry."
- **8176**: It goes withoutaru saying that there are special rewards available in exchange for badges of gallantry, too.
- **8177**: I can see your lips quivering at the thought of receiving such extraordinary spoils!
- **8178**: Be advised-wised in advance that you will lose all your hallmarks and badges of gallantry once the Ambuscade has switched to new content.
- **8180**: That's the long and short--mostly long--of it. Now get those items and try your luck!
- **8181**: Wh-what's this? You're unfamiliar with Records of Eminence? Then firstaru speak with one of our representatives in charge of Eminence to get started.
- **8182**: ...To ask you to set the Ambuscade Records of Eminence objective from the "Tutorial" category!
- **8183**: Welcome, welcome! Back for more?
- **8184**: Inquire about what? [Rewards./Ambuscade./Nothing in particular.]
- **8185**: All Ambuscade battles play out in the same location as Legion, with the exact composition of enemies changing-wanging each month (Earth time).
- **8186**: Abdhaljs has tasked me with delivering these missives and a listaru of rewards to any and all discerning adventurers.
- **8187**: What would you like to view? [Items to purchase with hallmarks./Items available for total hallmarks./Items to purchase with gallantry./Missives from Abdhaljs./Upgrades for $0./Upgrades for $1./Upgrades for $2./Upgrades for $3./Upgrades for $4./Upgrades for $5./About hallmarks and gallantry./Go back./Nothing for now.]
- **8191**: I can offer you a total-wotal of $& more $0% , each at a cost of $' [hallmarks/badges of gallantry]. How many would you like?
- **8192**: $$ $0% will run you a total of $# [hallmarks/badges of gallantry]. Is this acceptable to you?
- **8193**: Is this acceptable? [Yes./No.]
- **8194**: Is this acceptable? [Yes./No.]
- **8195**: $37? Got it.
- **8196**: Enjoy, my friend!
- **8197**: Hang on, there. You've already receive-weived that selection!
- **8198**: That's not enough [hallmarks/badges of gallantry]!
- **8199**: I'll be willing to part with your prize once you've gotten $# more hallmark[/s].
- **8200**: Perhaps you may find this upsetting-wetting, but...I have no more left to give you.
- **8201**: I'm quite certain-wertain that Abdhaljs will see fit to supply the A.M.A.N. with more prizes soon, so be sure to check back later.
- **8202**: These missives, penned by Abdhaljs himself, are intended for those adventurers interested in trying their hands at Ambuscade.
- **8203**: "Dearest adventurer, Let me first express my heartfelt appreciation at your interest in my latest creation. I would exchange pleasantries, but I know what you are most interested in--the spoils. So let's get down to it, hmmm?
- **8204**: "Six types of materials are available to you: $0, $1, $2, $3, $4, and $5, as well as equipment such as $6.
- **8206**: "I'm sure that by now you are quite familiar with how this works, so let me just mention that this system is quite similar.
- **8207**: "%, $1, $2, $3, and $4 each have latent energies that can augment the abilities of your equipment.
- **8208**: "$5 are unable to provide further enhancements, but the other benefits they can provide are rather unique.
- **8209**: "But I beg of you--please do not attempt to alter the equipment yourself. I'd rather not have to pay the residents of this fine city to clean your remnants from the ground. Instead, entrust my compatriots at the A.M.A.N. to do that for you.
- **8210**: "Whatever path you select for your equipment, I am certain it will serve you well. Goddess-speed, and may your battles end in victory!"
- **8211**: "Mommy Dearest, It's been a few weeks since I arrived here in Mhaura, and I couldn't be more frustrated.
- **8212**: "I requested to be stationed-wationed in Jeuno, but that incident with the cake batter must have left more than a physical stain on my records.
- **8213**: "I miss being home-wome with you, your lovely $0, and my veritable treasure trove of books. But guess what--I get to work with the almighty Abdhaljs! His tomes are legendary, so I know I'll be able to pull through.
- **8214**: "P.S. Whatever you do, do not open my "Shantotto Scorches Selbina" calendar."
- **8215**: Wh-wh-what!? G-give that back! Here! Here's the right one!
- **8216**: 
- **8217**: This is your first time utilizing $0 to boost the capabilities of your $1. Which would you like?
- **8218**: Which attribute would you like? [HP+./MP+./STR+./DEX+./VIT+./AGI+./INT+./MND+./CHR+./Pet: Acc./R.Acc./Atk./R.Atk.+./Pet: M.Acc./M.Dmg.+./@/@/@/@/@/@/@/@/@/@/@/@/@/Nothing for now./Go back.]
- **8219**: Which attribute would you like? [Acc./Atk.+./R.Acc./R.Atk.+./M.Acc./M.Dmg.+./Eva./M.Eva.+./@/@/@/@/@/@/@/@/@/@/@/@/@/@/@/@/@/@/@/@/Nothing for now./Go back.]
- **8220**: Which attribute would you like? [HP+./MP+./STR+./DEX+./VIT+./AGI+./INT+./MND+./CHR+./Accuracy+./Attack+./Ranged Accuracy+./Ranged Attack+./Magic Accuracy+./Magic Damage+./Evasion+./Magic Evasion+./Pet: Acc./R.Acc.+./Pet: Atk./R.Atk.+./Pet: M.Acc.+./Pet: M.Dmg.+./@/@/@/Nothing for now./Go back.]
- **8221**: Which attribute would you like? [Weapon Skill Damage+./Critical Hit Rate+./"Store TP"+./"Double Attack"+./Haste+./"Dual Wield"+./Enmity+./Enmity-./"Snapshot"+./"Magic Atk. Bonus"+./"Fast Cast"+./"Cure" Potency+./"Waltz" Potency+./Pet: Regen+./Pet: Haste+./@/@/@/@/@/@/@/@/@/Nothing for now./Go back.]
- **8222**: Which would you like? [DEF+/Evasion+/Magic Evasion+/Physical damage taken -/Magic damage taken -/Damage taken -/Regen+/Counter+/Blocking rate +/Parry rate +/All status ailment res.+/Casting time interruption rate-/Pet: Phys. damage taken -/Pet: Magic damage taken -/Pet: Damage taken -/Pet: Regen+/@/@/@/@/@/@/@/@/Nothing for now./Go back.]
- **8223**: Your item will look something like this-wis. What do you think?
- **8224**: Satisfied? [Very./Not so much.]
- **8225**: I am, of course, more than capable of further enhancing your gear, or even changing its attributes altogether. Of course, if you choose to discard-ward all the hard work we've done so far, we'll be starting from square one.
- **8226**: Unfortunately for you, I cannot augment that any further. Changing attributes, however, will be a breeze!
- **8227**: Pick your poison. [Further augment. ($0 time[/s] left)/Change attributes./Think about it some more.]
- **8228**: Enter a number $" or lower.
- **8229**: The attributes of your $0 can be changed without resetting the values. Which would you like?
- **8230**: Which would you like to change? [#./$1./$2./$3./$4./None of these.]
- **8231**: Interested in your $0?
- **8232**: I can augmentaru it a total of $1 more time[/s] using $0.
- **8233**: It's already fully augmentarued with $0. Nothing more I can do with it.
- **8234**: I can give-wive you the following items in exchange for $0.
- **8236**: Ahh, it's nice to see you, good [sir/lady]. I have received a new letter.
- **8237**: Um, you see...
- **8238**: This letter comes from the greataru mage Abdhaljs himself.
- **8239**: Here, you may feel free to give it a read-wead.
- **8240**: I look forward to helping you with all of your equipment needs!
- **8241**: "Dearest adventurer, I am pleased to hear that you have performed well in the Ambuscade.
- **8242**: "As a token of my appreciation, I have prepared a new reward for your efforts. It is a material that I refer to as $0.
- **8243**: "Although the technology behind it must remain secret, it is able to upgrade equipment such as your $0. However, you will need many of them to perform the upgrade.
- **8244**: "I have left the details with my representative at the A.M.A.N. Please check with him for more information.
- **8245**: "Simply give the $0 and the item you wish to upgrade to my compatriot at the A.M.A.N. and he will bring out the very best in your equipment. I hope you will give it a try when you get a chance."
- **8246**: "Mommy Dearest, How have you been? I am doing well.
- **8247**: "I'm finally getting used to my life here in Mhaura. Rycharde is an excellentaru chef. In fact, Mhauran couscous is now one of my favorite dishes.
- **8248**: "I'm still having trouble at work though. The adventurers trying their hand at the Ambuscade are coming back with all kinds of cuts and scrapes-wapes, and sometimes in even worse shape. My days are definitely full of adventure.
- **8249**: "P.S. Lately, I've been hooked-wooked on doing Cardian impressions. Personally, I think I've gotten pretty good at them."
- **8250**: Everyday's a grand surprise when you take part in an Ambuscade!
- **8251**: "Dearest Adventurer, Thanks to your most steadfast efforts, I have accumulated a veritable treasure trove of data that will surely prove useful in my studies.
- **8252**: "But lest you think my words hollow, I have prepared an even greater set of rewards in the form of $0.
- **8253**: "These amazing materials can be used to augment equipment such as $0. It should come as no surprise that you will need multiples of this fine new bounty in order to augment your attire.
- **8254**: "Mommy Dearest, How have you been? I am doing well.
- **8255**: "I've heard some scary tales of pirates boarding innocent vessels that leave here from Mhaura. And you know what's even scarier? That this pleases the adventurers to no end!
- **8256**: "Of course, this has profoundly affected what remains of my sanity, so I asked A.M.A.N. for a mental health leave. However, they denied my request, saying that hard work is the best medicine.
- **8257**: "P.S. Please send cookies. They may be the only thing that gets me through the dark days ahead."
- **8258**: Which would you like? [Sulevia's plate armor./Hizamaru yoroi./Inyanga jubbah./Meghanada leather armor./Jhakri robe./Return to previous selection.]
- **8260**: I see you have chosen the $0. A fine choice-woice, if you ask me. That will require $1 and $3 $2.
- **8261**: Your item will be the $37. What do you think?
- **8262**: Which would you like? [Flamma Korazin./Tali'ah Manteel/Mummu Jacket./Ayanmo Corazza./Mallquis Saio./Go back.]
- **8263**: Greetings and salu-walutations to you, adventurer! Allow me to bestow a Signet on you as a token of thanks for your valiantaru efforts.
- **8264**: "Dearest Adventurer, Due to your most remarkable exploits in the Ambuscade, I have once again gleaned insights that will prove most valuable in my studies.
- **8265**: "As is my wont, I have prepared for you a most lavish reward in the form of weapons which I call $0, and other arms in the same vein.
- **8266**: "I have also readied for your benefit an arcane metal of my own devising, $1. While I cannot divulge the secrets behind this material, let it suffice to say that it will serve you in upgrading the aforementioned weapons, provided you are able to procure the requisite quantity.
- **8267**: "I would also be remiss not to inform you that these weapons are still under development. That is to say, I will require yet more battle data before I can refine them to reach their true potential. As such, I would most humbly entreat your continued cooperation.
- **8268**: "Simply deliver the requisite quantity of $0 and your weapon of choice to my compatriot at the A.M.A.N., and he will perform the necessary procedure to help unlock the item's latent powers. Do be sure to try it out, and evaluate for yourself its true potential."
- **8269**: "Mommy Dearest, How do you fare? I am doing quite well, thank you.
- **8270**: "The ships that set forth from Mhaura journey-wourney to a faraway empire known as Aht Urhgan. I had a thoughtaru I would like to visit it myself someday, so I began researching it in detail.
- **8271**: "Sadly, my research found that it is so peri-werilous that even if I were to somehow make it there in one piece, a simple stroll outside town would likely be my lastaru! (Perhaps Abdhaljs would be willing to donate some of his spare armor for a worthy cause...)
- **8272**: "P.S. It is impressive to see how the guards across the land so crisply-wisply stand at attention. Perhaps I should also try casting Signetaru myself..."
- **8274**: What would you like to view? [The first missive from Abdhaljs./The second missive from Abdhaljs./The third missive from Abdhaljs./The fourth missive from Abdhaljs./The fifth missive from Abdhaljs./The sixth missive from Abdhaljs./The seventh missive from Abdhaljs./Return to previous selection.]
- **8275**: Ambuscade quiz time!
- **8276**: Which organization is in charge of Ambuscade?
- **8277**: What is the total number of hallmarks earned by all adventurers from September 11, 2018 to October 10, 2018?
- **8278**: Who is the cooking maestro responsible for Mhauran couscous?
- **8279**: Womp, womp!
- **8280**: Correct!
- **8281**: "Dearest adventurers, "Permit me to dispense with the pleasantries and get right down to business.
- **8282**: "The $0 and similar items I mentioned in a previous communique are finally able to be reforged. I have invented a new type of material, dubbed "$1," specifically for this purpose.
- **8283**: "I am loath to admit that the exact workings of this new material are a trade secret, but I hope you will indulge me and content yourself in knowing that they serve as excellent catalysts for improving $0 and similar items. I say "catalysts" in the plural because more than one is needed.
- **8284**: "I bid you not to fret--this is not the final shape that these weapons will take, but I need more detailed data before I am able to complete my research.
- **8285**: "Mommy Dearest, How have you been? I have been doing quite well.
- **8286**: "If you have a spare moment, could you please send me some $0? I have taken quite the liking to fishing, and am hankering to make some $2 with all the $1 I've caught.
- **8287**: "I think I've come quite far as a cook. Perhaps that lovely Rycharde fellow will teach me a thing or two if I butter him up.
- **8288**: "P.S. "One day, I hope to be able to fully pass the Orastery's Vana'diel Exam."
- **8289**: Ambuscade Quiz Time, Part Two!
- **8290**: Who is the famous personage supporting adventurers in their romps through Ambuscade?
- **8291**: What was the average winning percentage for adventurers in the previous Ambuscade (November 10, 2018, to December 11, 2018, Earth time) across all difficulty levels (including Intense)?
- **8292**: Where did I wish to be dispatched to?
- **8293**: "Dearest adventurer, Once again, allow me to get straight to the point.
- **8294**: "The $0 and similar items I mentioned in a previous communique are finally able to be reforged. I have invented a new type of material, dubbed "$1," specifically for this purpose.
- **8295**: "Mommy Dearest, How have you been? I have been doing quite well.
- **8296**: "Have you ever heard of soy ramen? An adventurer in the Ambuscade was eating it. I asked Rycharde and apparently it's a dish from the Far East.
- **8297**: "I've become a pretty good cook-wook, so it's got my interest piqued. I'll make it for you if I can get all of the ingredients together.
- **8298**: "P.S. While it's fun answering quiz questions-wuestions, I also like thinking up new ones!"
- **8299**: Ambuscade quiz time!
- **8300**: Get ready for the final round!
- **8301**: What is the name of the tiny location where Abdhaljs holds the Ambuscade?
- **8302**: How many hallmarks have you obtained in total so far?
- **8303**: Who have I impersonated before?
- **8304**: "At last, your weapons such as the $0 are near completion. I have prepared a material known as $1 that you will need. However, this material alone will not be enough for our requirements.
- **8305**: "In order to complete the process, we'll also need a weapon such as the $0 that is known as a Pulse Panoplia.
- **8306**: "The specific weapon type is of no consequence, but one Pulse Panoplia is required in order to complete one weapon. Therefore, I need you to get a Pulse Panoplia for us.
- **8307**: "The exact technique is a trade secret, but when the Pulse Panoplia you provide combines with my $0, you will be able to complete the upgrade process for weapons such as the $1.
- **8308**: "As you can probably imagine, you will need a fair number of $0.
- **8309**: "If you hand the materials and the weapon you wish to upgrade over to my good friend at the A.M.A.N., he will be sure to bring out the very best in it. Go give it a try and see for yourself."
- **8310**: "Mommy Dearest, How have you been? I have been doing quite well.
- **8311**: "I looked-wooked into soy ramen some more, and apparently, it is a noodle dish flavored with soy sauce. There are also many other variations, such as miso or salt.
- **8312**: "I've seen miso-wiso at the Culinarians' Guild in Windurst before. Do you think you could send me some?
- **8313**: "P.S. Once I'm able to make ramen myself, I will send you a little projectaru I've been working on. It's a book containing all of the dishes I have made so far."

## Events

### Event 65535

#### Metadata

| Field        | Value   |
|--------------|---------|
| Entrypoint   | 0x0000  |
| Data Size    | 1 bytes |
| Instructions | 1       |

```
      00 01 02 03 04 05 06 07  08 09 0A 0B 0C 0D 0E 0F
      -- -- -- -- -- -- -- --  -- -- -- -- -- -- -- --
0000: 00                                                .               
```

#### Opcodes

```
  0: 0x0000 [0x00] END_REQSTACK()
```

### Event 384

#### Metadata

| Field        | Value    |
|--------------|----------|
| Entrypoint   | 0x0001   |
| Data Size    | 74 bytes |
| Instructions | 12       |

```
      00 01 02 03 04 05 06 07  08 09 0A 0B 0C 0D 0E 0F
      -- -- -- -- -- -- -- --  -- -- -- -- -- -- -- --
0000:    1E F0 FF FF 7F 1C 00  80 66 01 80 F8 FF FF 7F   ........f......
0010: F8 FF FF 7F 74 6C 6B 30  1D 02 80 23 1D 03 80 23  ....tlk0...#...#
0020: 53 F8 FF FF 7F F8 FF FF  7F 74 6C 6B 30 66 01 80  S........tlk0f..
0030: F8 FF FF 7F F8 FF FF 7F  74 6C 6B 31 53 F8 FF FF  ........tlk1S...
0040: 7F F8 FF FF 7F 74 6C 6B  31 21 00                 .....tlk1!.     
```

#### Opcodes

```
  0: 0x0001 [0x1E] EventEntity looks at LocalPlayer and starts talking
  1: 0x0006 [0x1C] WAIT(1* ticks)
  2: 0x0009 [0x66] LOAD_EXT_SCHEDULER_MAIN: Load scheduler "tlk0" with entities [EventEntity, EventEntity], work=40*
  3: 0x0018 [0x1D] PRINT_EVENT_MESSAGE(message_id=8153*)
    → "A fantastic day to you, good [sir/lady]! I, Gorpa-Masorpa, have been dispatch-watched from the Adventurers' Mutual Aid Network to...to..."
  4: 0x001B [0x23] WAIT_FOR_DIALOG_INTERACTION
  5: 0x001C [0x1D] PRINT_EVENT_MESSAGE(message_id=8181*)
    → "Wh-what's this? You're unfamiliar with Records of Eminence? Then firstaru speak with one of our representatives in charge of Eminence to get started."
  6: 0x001F [0x23] WAIT_FOR_DIALOG_INTERACTION
  7: 0x0020 [0x53] WAIT_SCHEDULER_TASK: Wait for scheduler "tlk0" with entities [EventEntity, EventEntity]
  8: 0x002D [0x66] LOAD_EXT_SCHEDULER_MAIN: Load scheduler "tlk1" with entities [EventEntity, EventEntity], work=40*
  9: 0x003C [0x53] WAIT_SCHEDULER_TASK: Wait for scheduler "tlk1" with entities [EventEntity, EventEntity]
 10: 0x0049 [0x21] END_EVENT
 11: 0x004A [0x00] END_REQSTACK()
```

### Event 388

#### Metadata

| Field        | Value    |
|--------------|----------|
| Entrypoint   | 0x004B   |
| Data Size    | 74 bytes |
| Instructions | 12       |

```
      00 01 02 03 04 05 06 07  08 09 0A 0B 0C 0D 0E 0F
      -- -- -- -- -- -- -- --  -- -- -- -- -- -- -- --
0040:                                   1E F0 FF FF 7F             .....
0050: 1C 00 80 66 01 80 F8 FF  FF 7F F8 FF FF 7F 74 6C  ...f..........tl
0060: 6B 30 1D 02 80 23 1D 04  80 23 53 F8 FF FF 7F F8  k0...#...#S.....
0070: FF FF 7F 74 6C 6B 30 66  01 80 F8 FF FF 7F F8 FF  ...tlk0f........
0080: FF 7F 74 6C 6B 31 53 F8  FF FF 7F F8 FF FF 7F 74  ..tlk1S........t
0090: 6C 6B 31 21 00                                    lk1!.           
```

#### Opcodes

```
  0: 0x004B [0x1E] EventEntity looks at LocalPlayer and starts talking
  1: 0x0050 [0x1C] WAIT(1* ticks)
  2: 0x0053 [0x66] LOAD_EXT_SCHEDULER_MAIN: Load scheduler "tlk0" with entities [EventEntity, EventEntity], work=40*
  3: 0x0062 [0x1D] PRINT_EVENT_MESSAGE(message_id=8153*)
    → "A fantastic day to you, good [sir/lady]! I, Gorpa-Masorpa, have been dispatch-watched from the Adventurers' Mutual Aid Network to...to..."
  4: 0x0065 [0x23] WAIT_FOR_DIALOG_INTERACTION
  5: 0x0066 [0x1D] PRINT_EVENT_MESSAGE(message_id=8182*)
    → "...To ask you to set the Ambuscade Records of Eminence objective from the "Tutorial" category!"
  6: 0x0069 [0x23] WAIT_FOR_DIALOG_INTERACTION
  7: 0x006A [0x53] WAIT_SCHEDULER_TASK: Wait for scheduler "tlk0" with entities [EventEntity, EventEntity]
  8: 0x0077 [0x66] LOAD_EXT_SCHEDULER_MAIN: Load scheduler "tlk1" with entities [EventEntity, EventEntity], work=40*
  9: 0x0086 [0x53] WAIT_SCHEDULER_TASK: Wait for scheduler "tlk1" with entities [EventEntity, EventEntity]
 10: 0x0093 [0x21] END_EVENT
 11: 0x0094 [0x00] END_REQSTACK()
```

### Event 385

#### Metadata

| Field        | Value     |
|--------------|-----------|
| Entrypoint   | 0x0095    |
| Data Size    | 526 bytes |
| Instructions | 90        |

```
      00 01 02 03 04 05 06 07  08 09 0A 0B 0C 0D 0E 0F
      -- -- -- -- -- -- -- --  -- -- -- -- -- -- -- --
0090:                42 1E F0  FF FF 7F 1C 00 80 66 01       B........f.
00A0: 80 F8 FF FF 7F F8 FF FF  7F 74 6C 6B 30 1D 02 80  .........tlk0...
00B0: 23 1D 05 80 23 53 F8 FF  FF 7F F8 FF FF 7F 74 6C  #...#S........tl
00C0: 6B 30 66 01 80 F8 FF FF  7F F8 FF FF 7F 74 6C 6B  k0f..........tlk
00D0: 31 53 F8 FF FF 7F F8 FF  FF 7F 74 6C 6B 31 66 01  1S........tlk1f.
00E0: 80 F8 FF FF 7F F8 FF FF  7F 77 61 69 30 1D 06 80  .........wai0...
00F0: 23 53 F8 FF FF 7F F8 FF  FF 7F 77 61 69 30 66 01  #S........wai0f.
0100: 80 F8 FF FF 7F F8 FF FF  7F 77 61 69 30 1D 07 80  .........wai0...
0110: 23 53 F8 FF FF 7F F8 FF  FF 7F 77 61 69 30 66 01  #S........wai0f.
0120: 80 F8 FF FF 7F F8 FF FF  7F 77 61 69 30 1D 08 80  .........wai0...
0130: 23 53 F8 FF FF 7F F8 FF  FF 7F 77 61 69 30 66 01  #S........wai0f.
0140: 80 F8 FF FF 7F F8 FF FF  7F 6D 6F 6A 30 1D 09 80  .........moj0...
0150: 23 1D 0A 80 23 53 F8 FF  FF 7F F8 FF FF 7F 6D 6F  #...#S........mo
0160: 6A 30 66 0B 80 F8 FF FF  7F F8 FF FF 7F 67 68 6E  j0f..........ghn
0170: 31 1D 0C 80 23 53 F8 FF  FF 7F F8 FF FF 7F 67 68  1...#S........gh
0180: 6E 31 66 01 80 F8 FF FF  7F F8 FF FF 7F 74 6C 6B  n1f..........tlk
0190: 30 1D 0D 80 23 66 01 80  F8 FF FF 7F F8 FF FF 7F  0...#f..........
01A0: 74 6C 6B 31 53 F8 FF FF  7F F8 FF FF 7F 74 6C 6B  tlk1S........tlk
01B0: 31 66 01 80 F8 FF FF 7F  F8 FF FF 7F 74 6C 6B 30  1f..........tlk0
01C0: 1D 0E 80 23 66 01 80 F8  FF FF 7F F8 FF FF 7F 74  ...#f..........t
01D0: 6C 6B 31 53 F8 FF FF 7F  F8 FF FF 7F 74 6C 6B 31  lk1S........tlk1
01E0: 66 01 80 F8 FF FF 7F F8  FF FF 7F 74 6C 6B 30 1D  f..........tlk0.
01F0: 0F 80 23 1D 10 80 23 1D  11 80 23 1D 12 80 23 1D  ..#...#...#...#.
0200: 13 80 23 1D 14 80 23 03  02 10 15 80 03 03 10 16  ..#...#.........
0210: 80 1D 17 80 23 1D 18 80  23 1D 19 80 23 66 01 80  ....#...#...#f..
0220: F8 FF FF 7F F8 FF FF 7F  74 6C 6B 31 53 F8 FF FF  ........tlk1S...
0230: 7F F8 FF FF 7F 74 6C 6B  31 66 01 80 F8 FF FF 7F  .....tlk1f......
0240: F8 FF FF 7F 74 6C 6B 30  1D 1A 80 23 1D 1B 80 23  ....tlk0...#...#
0250: 1D 1C 80 23 1D 1D 80 23  1D 1E 80 23 1D 1F 80 23  ...#...#...#...#
0260: 1D 20 80 23 66 01 80 F8  FF FF 7F F8 FF FF 7F 74  . .#f..........t
0270: 6C 6B 31 53 F8 FF FF 7F  F8 FF FF 7F 74 6C 6B 31  lk1S........tlk1
0280: 66 21 80 F8 FF FF 7F F8  FF FF 7F 73 6C 33 30 1D  f!.........sl30.
0290: 22 80 23 53 F8 FF FF 7F  F8 FF FF 7F 73 6C 33 30  ".#S........sl30
02A0: 2E 21 00                                          .!.             
```

#### Opcodes

```
  0: 0x0095 [0x42] SET_CLI_EVENT_CANCEL_DATA()
  1: 0x0096 [0x1E] EventEntity looks at LocalPlayer and starts talking
  2: 0x009B [0x1C] WAIT(1* ticks)
  3: 0x009E [0x66] LOAD_EXT_SCHEDULER_MAIN: Load scheduler "tlk0" with entities [EventEntity, EventEntity], work=40*
  4: 0x00AD [0x1D] PRINT_EVENT_MESSAGE(message_id=8153*)
    → "A fantastic day to you, good [sir/lady]! I, Gorpa-Masorpa, have been dispatch-watched from the Adventurers' Mutual Aid Network to...to..."
  5: 0x00B0 [0x23] WAIT_FOR_DIALOG_INTERACTION
  6: 0x00B1 [0x1D] PRINT_EVENT_MESSAGE(message_id=8154*)
    → "...to serve adventurers..."
  7: 0x00B4 [0x23] WAIT_FOR_DIALOG_INTERACTION
  8: 0x00B5 [0x53] WAIT_SCHEDULER_TASK: Wait for scheduler "tlk0" with entities [EventEntity, EventEntity]
  9: 0x00C2 [0x66] LOAD_EXT_SCHEDULER_MAIN: Load scheduler "tlk1" with entities [EventEntity, EventEntity], work=40*
 10: 0x00D1 [0x53] WAIT_SCHEDULER_TASK: Wait for scheduler "tlk1" with entities [EventEntity, EventEntity]
 11: 0x00DE [0x66] LOAD_EXT_SCHEDULER_MAIN: Load scheduler "wai0" with entities [EventEntity, EventEntity], work=40*
 12: 0x00ED [0x1D] PRINT_EVENT_MESSAGE(message_id=8155*)
    → "...under the auspices of..."
 13: 0x00F0 [0x23] WAIT_FOR_DIALOG_INTERACTION
 14: 0x00F1 [0x53] WAIT_SCHEDULER_TASK: Wait for scheduler "wai0" with entities [EventEntity, EventEntity]
 15: 0x00FE [0x66] LOAD_EXT_SCHEDULER_MAIN: Load scheduler "wai0" with entities [EventEntity, EventEntity], work=40*
 16: 0x010D [0x1D] PRINT_EVENT_MESSAGE(message_id=8156*)
    → "...the great, almightaruly..."
 17: 0x0110 [0x23] WAIT_FOR_DIALOG_INTERACTION
 18: 0x0111 [0x53] WAIT_SCHEDULER_TASK: Wait for scheduler "wai0" with entities [EventEntity, EventEntity]
 19: 0x011E [0x66] LOAD_EXT_SCHEDULER_MAIN: Load scheduler "wai0" with entities [EventEntity, EventEntity], work=40*
 20: 0x012D [0x1D] PRINT_EVENT_MESSAGE(message_id=8157*)
    → "Abdhaljs! <Cough, cough>"
 21: 0x0130 [0x23] WAIT_FOR_DIALOG_INTERACTION
 22: 0x0131 [0x53] WAIT_SCHEDULER_TASK: Wait for scheduler "wai0" with entities [EventEntity, EventEntity]
 23: 0x013E [0x66] LOAD_EXT_SCHEDULER_MAIN: Load scheduler "moj0" with entities [EventEntity, EventEntity], work=40*
 24: 0x014D [0x1D] PRINT_EVENT_MESSAGE(message_id=8158*)
    → "Urk..."
 25: 0x0150 [0x23] WAIT_FOR_DIALOG_INTERACTION
 26: 0x0151 [0x1D] PRINT_EVENT_MESSAGE(message_id=8159*)
    → "Tohoho...hohohohohohohoho!"
 27: 0x0154 [0x23] WAIT_FOR_DIALOG_INTERACTION
 28: 0x0155 [0x53] WAIT_SCHEDULER_TASK: Wait for scheduler "moj0" with entities [EventEntity, EventEntity]
 29: 0x0162 [0x66] LOAD_EXT_SCHEDULER_MAIN: Load scheduler "ghn1" with entities [EventEntity, EventEntity], work=41*
 30: 0x0171 [0x1D] PRINT_EVENT_MESSAGE(message_id=8160*)
    → "You, uh, see..."
 31: 0x0174 [0x23] WAIT_FOR_DIALOG_INTERACTION
 32: 0x0175 [0x53] WAIT_SCHEDULER_TASK: Wait for scheduler "ghn1" with entities [EventEntity, EventEntity]
 33: 0x0182 [0x66] LOAD_EXT_SCHEDULER_MAIN: Load scheduler "tlk0" with entities [EventEntity, EventEntity], work=40*
 34: 0x0191 [0x1D] PRINT_EVENT_MESSAGE(message_id=8161*)
    → "Abdhaljs, creator of the tiny, tiny place known as Legion, has seen fitaru to permit us the use of his creation!"
 35: 0x0194 [0x23] WAIT_FOR_DIALOG_INTERACTION
 36: 0x0195 [0x66] LOAD_EXT_SCHEDULER_MAIN: Load scheduler "tlk1" with entities [EventEntity, EventEntity], work=40*
 37: 0x01A4 [0x53] WAIT_SCHEDULER_TASK: Wait for scheduler "tlk1" with entities [EventEntity, EventEntity]
 38: 0x01B1 [0x66] LOAD_EXT_SCHEDULER_MAIN: Load scheduler "tlk0" with entities [EventEntity, EventEntity], work=40*
 39: 0x01C0 [0x1D] PRINT_EVENT_MESSAGE(message_id=8162*)
    → "Oh, does the luck-wuck of the A.M.A.N. know no bounds!?"
 40: 0x01C3 [0x23] WAIT_FOR_DIALOG_INTERACTION
 41: 0x01C4 [0x66] LOAD_EXT_SCHEDULER_MAIN: Load scheduler "tlk1" with entities [EventEntity, EventEntity], work=40*
 42: 0x01D3 [0x53] WAIT_SCHEDULER_TASK: Wait for scheduler "tlk1" with entities [EventEntity, EventEntity]
 43: 0x01E0 [0x66] LOAD_EXT_SCHEDULER_MAIN: Load scheduler "tlk0" with entities [EventEntity, EventEntity], work=40*
 44: 0x01EF [0x1D] PRINT_EVENT_MESSAGE(message_id=8163*)
    → "This slightly repurposed Maquette Abdhaljs - Legion has undergone a variety of improvementarus by some of our association's most skilled thaumaturges."
 45: 0x01F2 [0x23] WAIT_FOR_DIALOG_INTERACTION
 46: 0x01F3 [0x1D] PRINT_EVENT_MESSAGE(message_id=8164*)
    → "Steel yourselves for our latestaru creation--Ambuscade!"
 47: 0x01F6 [0x23] WAIT_FOR_DIALOG_INTERACTION
 48: 0x01F7 [0x1D] PRINT_EVENT_MESSAGE(message_id=8165*)
    → "In Ambuscade, you'll square off againstaru a bevy of foes just chomping at the bit to see you torn into itty-bitty pieces!"
 49: 0x01FA [0x23] WAIT_FOR_DIALOG_INTERACTION
 50: 0x01FB [0x1D] PRINT_EVENT_MESSAGE(message_id=8166*)
    → "Every month (Earth time), new challengers enter the arena, providing different challenges from the month before."
 51: 0x01FE [0x23] WAIT_FOR_DIALOG_INTERACTION
 52: 0x01FF [0x1D] PRINT_EVENT_MESSAGE(message_id=8167*)
    → "Now, now, wipe that dribble off your chin, for there are a couple hoops-woops we're going to make you jump through before you can join."
 53: 0x0202 [0x23] WAIT_FOR_DIALOG_INTERACTION
 54: 0x0203 [0x1D] PRINT_EVENT_MESSAGE(message_id=8168*)
    → "First, you must be in a party of up to six players."
 55: 0x0206 [0x23] WAIT_FOR_DIALOG_INTERACTION
 56: 0x0207 [0x03] Work_Zone[2] = 3052*
 57: 0x020C [0x03] Work_Zone[3] = 3053*
 58: 0x0211 [0x1D] PRINT_EVENT_MESSAGE(message_id=8169*)
    → "Second, you must be in possession of either $6 or $6. Either of the two will suffice."
 59: 0x0214 [0x23] WAIT_FOR_DIALOG_INTERACTION
 60: 0x0215 [0x1D] PRINT_EVENT_MESSAGE(message_id=8170*)
    → "These two goodies can be procured by completaruing specific Records of Eminence objectives."
 61: 0x0218 [0x23] WAIT_FOR_DIALOG_INTERACTION
 62: 0x0219 [0x1D] PRINT_EVENT_MESSAGE(message_id=8171*)
    → "You mightaru think those tasks to be laughably simple, but trust me--it keeps out the riffraff. When you're prepared, examine the Ambuscade tome and be on your way."
 63: 0x021C [0x23] WAIT_FOR_DIALOG_INTERACTION
 64: 0x021D [0x66] LOAD_EXT_SCHEDULER_MAIN: Load scheduler "tlk1" with entities [EventEntity, EventEntity], work=40*
 65: 0x022C [0x53] WAIT_SCHEDULER_TASK: Wait for scheduler "tlk1" with entities [EventEntity, EventEntity]
 66: 0x0239 [0x66] LOAD_EXT_SCHEDULER_MAIN: Load scheduler "tlk0" with entities [EventEntity, EventEntity], work=40*
 67: 0x0248 [0x1D] PRINT_EVENT_MESSAGE(message_id=8172*)
    → "And now, I would like to discuss the rewards."
 68: 0x024B [0x23] WAIT_FOR_DIALOG_INTERACTION
 69: 0x024C [0x1D] PRINT_EVENT_MESSAGE(message_id=8173*)
    → "Simply put, all you need to know is that victory in Ambuscade will reward you with a special currency known as hallmarks."
 70: 0x024F [0x23] WAIT_FOR_DIALOG_INTERACTION
 71: 0x0250 [0x1D] PRINT_EVENT_MESSAGE(message_id=8174*)
    → "There are two varieties of reward available: those that are purchasable in exchange for a certain number of hallmarks, and those you receive once you have reached a particular-wicular running total of hallmarks."
 72: 0x0253 [0x23] WAIT_FOR_DIALOG_INTERACTION
 73: 0x0254 [0x1D] PRINT_EVENT_MESSAGE(message_id=8175*)
    → "If you're inclined to join forces with other player-wayers, you'll receive an even more special currency known as "gallantry.""
 74: 0x0257 [0x23] WAIT_FOR_DIALOG_INTERACTION
 75: 0x0258 [0x1D] PRINT_EVENT_MESSAGE(message_id=8176*)
    → "It goes withoutaru saying that there are special rewards available in exchange for badges of gallantry, too."
 76: 0x025B [0x23] WAIT_FOR_DIALOG_INTERACTION
 77: 0x025C [0x1D] PRINT_EVENT_MESSAGE(message_id=8177*)
    → "I can see your lips quivering at the thought of receiving such extraordinary spoils!"
 78: 0x025F [0x23] WAIT_FOR_DIALOG_INTERACTION
 79: 0x0260 [0x1D] PRINT_EVENT_MESSAGE(message_id=8178*)
    → "Be advised-wised in advance that you will lose all your hallmarks and badges of gallantry once the Ambuscade has switched to new content."
 80: 0x0263 [0x23] WAIT_FOR_DIALOG_INTERACTION
 81: 0x0264 [0x66] LOAD_EXT_SCHEDULER_MAIN: Load scheduler "tlk1" with entities [EventEntity, EventEntity], work=40*
 82: 0x0273 [0x53] WAIT_SCHEDULER_TASK: Wait for scheduler "tlk1" with entities [EventEntity, EventEntity]
 83: 0x0280 [0x66] LOAD_EXT_SCHEDULER_MAIN: Load scheduler "sl30" with entities [EventEntity, EventEntity], work=45*
 84: 0x028F [0x1D] PRINT_EVENT_MESSAGE(message_id=8180*)
    → "That's the long and short--mostly long--of it. Now get those items and try your luck!"
 85: 0x0292 [0x23] WAIT_FOR_DIALOG_INTERACTION
 86: 0x0293 [0x53] WAIT_SCHEDULER_TASK: Wait for scheduler "sl30" with entities [EventEntity, EventEntity]
 87: 0x02A0 [0x2E] SET_CLI_EVENT_CANCEL_FLAGS()
 88: 0x02A1 [0x21] END_EVENT
 89: 0x02A2 [0x00] END_REQSTACK()
```

### Event 386

#### Metadata

| Field        | Value      |
|--------------|------------|
| Entrypoint   | 0x02A3     |
| Data Size    | 7785 bytes |
| Instructions | 813        |

```
      00 01 02 03 04 05 06 07  08 09 0A 0B 0C 0D 0E 0F
      -- -- -- -- -- -- -- --  -- -- -- -- -- -- -- --
02A0:          03 00 00 02 10  03 1F 00 03 10 03 20 00     ........... .
02B0: 04 10 03 21 00 05 10 41  23 80 24 80 06 10 0E 00  ...!...A#.$.....
02C0: 41 25 80 26 80 06 10 0F  00 03 22 00 07 10 03 11  A%.&......".....
02D0: 00 23 80 03 12 00 23 80  03 13 00 23 80 03 14 00  .#....#....#....
02E0: 23 80 03 15 00 23 80 03  16 00 23 80 03 17 00 23  #....#....#....#
02F0: 80 03 24 00 23 80 03 25  00 23 80 03 2E 00 23 80  ..$.#..%.#....#.
0300: 03 2C 00 23 80 1E F0 FF  FF 7F 1C 00 80 66 21 80  .,.#.........f!.
0310: F8 FF FF 7F F8 FF FF 7F  73 6C 33 30 1D 27 80 23  ........sl30.'.#
0320: 24 28 80 11 00 00 00 25  02 00 10 23 80 00 A6 20  $(.....%...#... 
0330: 03 11 00 00 10 66 01 80  F8 FF FF 7F F8 FF FF 7F  .....f..........
0340: 74 6C 6B 30 1D 29 80 23  66 01 80 F8 FF FF 7F F8  tlk0.).#f.......
0350: FF FF 7F 74 6C 6B 31 03  02 10 2A 80 03 03 10 2B  ...tlk1...*....+
0360: 80 03 04 10 2C 80 03 05  10 2D 80 03 06 10 2E 80  ....,....-......
0370: 03 07 10 2F 80 03 01 00  23 80 24 30 80 12 00 01  .../....#.$0....
0380: 00 25 02 00 10 23 80 00  0A 0A 03 12 00 00 10 03  .%...#..........
0390: 3F 00 23 80 03 19 17 23  80 03 0D 00 23 80 03 02  ?.#....#....#...
03A0: 00 23 80 02 24 00 23 80  80 F2 03 40 23 80 24 80  .#..$.#....@#.$.
03B0: 01 10 00 80 03 24 00 23  80 3D 02 00 31 80 00 80  .....$.#.=..1...
03C0: 3E 0E 00 00 80 DC 03 3E  0E 00 32 80 DC 03 3E 0E  >......>..2...>.
03D0: 00 33 80 DC 03 3C 02 00  31 80 00 80 3C 02 00 34  .3...<..1...<..4
03E0: 80 00 80 3E 0E 00 23 80  EF 03 03 0D 00 00 80 01  ...>..#.........
03F0: ED 04 02 24 00 00 80 80  48 04 40 23 80 24 80 01  ...$....H.@#.$..
0400: 10 32 80 03 24 00 00 80  3D 02 00 31 80 00 80 3D  .2..$...=..1...=
0410: 02 00 34 80 00 80 3E 0E  00 23 80 24 04 3C 02 00  ..4...>..#.$.<..
0420: 34 80 00 80 3E 0E 00 32  80 39 04 3E 0E 00 33 80  4...>..2.9.>..3.
0430: 39 04 3C 02 00 31 80 00  80 3E 0E 00 00 80 45 04  9.<..1...>....E.
0440: 03 0D 00 00 80 01 ED 04  02 24 00 32 80 80 9E 04  .........$.2....
0450: 40 23 80 24 80 01 10 33  80 03 24 00 32 80 3D 02  @#.$...3..$.2.=.
0460: 00 31 80 00 80 3D 02 00  34 80 00 80 3E 0E 00 23  .1...=..4...>..#
0470: 80 81 04 3E 0E 00 00 80  81 04 3C 02 00 34 80 00  ...>......<..4..
0480: 80 3E 0E 00 33 80 8F 04  3C 02 00 31 80 00 80 3E  .>..3...<..1...>
0490: 0E 00 32 80 9B 04 03 0D  00 00 80 01 ED 04 02 24  ..2............$
04A0: 00 33 80 80 ED 04 40 23  80 24 80 01 10 35 80 03  .3....@#.$...5..
04B0: 24 00 33 80 3C 02 00 31  80 00 80 3D 02 00 34 80  $.3.<..1...=..4.
04C0: 00 80 3E 0E 00 23 80 DE  04 3E 0E 00 00 80 DE 04  ..>..#...>......
04D0: 3E 0E 00 32 80 DE 04 3C  02 00 34 80 00 80 3E 0E  >..2...<..4...>.
04E0: 00 33 80 EA 04 03 0D 00  00 80 01 ED 04 02 0D 00  .3..............
04F0: 00 80 00 77 05 3E 0E 00  23 80 3A 05 3E 0E 00 00  ...w.>..#.:.>...
0500: 80 3A 05 3E 0E 00 32 80  3A 05 3E 0E 00 33 80 3A  .:.>..2.:.>..3.:
0510: 05 66 01 80 F8 FF FF 7F  F8 FF FF 7F 74 6C 6B 30  .f..........tlk0
0520: 1D 36 80 23 1D 37 80 23  66 01 80 F8 FF FF 7F F8  .6.#.7.#f.......
0530: FF FF 7F 74 6C 6B 31 01  20 03 02 3F 00 23 80 00  ...tlk1. ..?.#..
0540: 5A 05 0B 24 00 02 24 00  33 80 04 57 05 03 24 00  Z..$..$.3..W..$.
0550: 33 80 03 3F 00 00 80 01  6F 05 0C 24 00 02 24 00  3..?....o..$..$.
0560: 23 80 05 6F 05 03 24 00  23 80 03 3F 00 23 80 03  #..o..$.#..?.#..
0570: 13 00 23 80 01 99 03 43  00 43 01 03 27 00 23 80  ..#....C.C..'.#.
0580: 03 27 00 24 00 14 27 00  31 80 03 2B 00 27 00 07  .'.$..'.1..+.'..
0590: 2B 00 31 80 02 27 00 2B  00 03 B6 05 9D 0A 59 53  +.1..'.+......YS
05A0: 2A 00 27 00 38 80 9D 0F  59 51 2A 00 27 00 38 80  *.'.8...YQ*.'.8.
05B0: 0B 27 00 01 94 05 41 23  80 26 80 02 10 27 00 08  .'....A#.&...'..
05C0: 2F 00 27 00 02 2F 00 23  80 05 D3 05 3C 02 00 23  /.'../.#....<..#
05D0: 80 00 80 41 31 80 39 80  02 10 27 00 08 30 00 27  ...A1.9...'..0.'
05E0: 00 02 30 00 23 80 05 F0  05 3C 02 00 00 80 00 80  ..0.#....<......
05F0: 41 23 80 26 80 03 10 27  00 08 31 00 27 00 02 31  A#.&...'..1.'..1
0600: 00 23 80 05 0D 06 3C 02  00 32 80 00 80 41 31 80  .#....<..2...A1.
0610: 39 80 03 10 27 00 08 32  00 27 00 02 32 00 23 80  9...'..2.'..2.#.
0620: 05 2A 06 3C 02 00 33 80  00 80 41 23 80 26 80 04  .*.<..3...A#.&..
0630: 10 27 00 08 33 00 27 00  02 33 00 23 80 05 47 06  .'..3.'..3.#..G.
0640: 3C 02 00 35 80 00 80 41  31 80 39 80 04 10 27 00  <..5...A1.9...'.
0650: 08 34 00 27 00 02 34 00  23 80 05 64 06 3C 02 00  .4.'..4.#..d.<..
0660: 3A 80 00 80 41 23 80 26  80 05 10 27 00 08 35 00  :...A#.&...'..5.
0670: 27 00 02 35 00 23 80 05  81 06 3C 02 00 3B 80 00  '..5.#....<..;..
0680: 80 41 31 80 39 80 05 10  27 00 08 36 00 27 00 02  .A1.9...'..6.'..
0690: 36 00 23 80 05 9E 06 3C  02 00 24 80 00 80 41 23  6.#....<..$...A#
06A0: 80 26 80 06 10 27 00 08  37 00 27 00 02 37 00 23  .&...'..7.'..7.#
06B0: 80 05 BB 06 3C 02 00 25  80 00 80 41 31 80 39 80  ....<..%...A1.9.
06C0: 06 10 27 00 08 38 00 27  00 02 38 00 23 80 05 D8  ..'..8.'..8.#...
06D0: 06 3C 02 00 3C 80 00 80  41 23 80 26 80 07 10 27  .<..<...A#.&...'
06E0: 00 08 39 00 27 00 02 39  00 23 80 05 F5 06 3C 02  ..9.'..9.#....<.
06F0: 00 3D 80 00 80 41 31 80  39 80 07 10 27 00 08 3A  .=...A1.9...'..:
0700: 00 27 00 02 3A 00 23 80  05 12 07 3C 02 00 3E 80  .'..:.#....<..>.
0710: 00 80 41 23 80 26 80 08  10 27 00 08 3B 00 27 00  ..A#.&...'..;.'.
0720: 02 3B 00 23 80 05 2F 07  3C 02 00 3F 80 00 80 41  .;.#../.<..?...A
0730: 31 80 39 80 08 10 27 00  08 3C 00 27 00 02 3C 00  1.9...'..<.'..<.
0740: 23 80 05 4C 07 3C 02 00  40 80 00 80 41 23 80 26  #..L.<..@...A#.&
0750: 80 09 10 27 00 08 3D 00  27 00 02 3D 00 23 80 05  ...'..=.'..=.#..
0760: 69 07 3C 02 00 41 80 00  80 41 31 80 39 80 09 10  i.<..A...A1.9...
0770: 27 00 08 3E 00 27 00 02  3E 00 23 80 05 86 07 3C  '..>.'..>.#....<
0780: 02 00 26 80 00 80 03 0D  00 23 80 03 27 00 23 80  ..&......#..'.#.
0790: 03 27 00 24 00 14 27 00  31 80 03 2B 00 27 00 07  .'.$..'.1..+.'..
07A0: 2B 00 31 80 02 27 00 2B  00 03 01 08 9D 0A D9 52  +.1..'.+.......R
07B0: 2A 00 27 00 38 80 9D 0F  D9 51 2A 00 27 00 38 80  *.'.8....Q*.'.8.
07C0: D4 03 0D 00 2A 00 02 2A  00 23 80 00 D5 07 3C 02  ....*..*.#....<.
07D0: 00 0D 00 00 80 9D 0A D9  53 2A 00 27 00 38 80 9D  ........S*.'.8..
07E0: 0F 59 52 2A 00 27 00 38  80 02 2A 00 23 80 00 F8  .YR*.'.8..*.#...
07F0: 07 3C 02 00 0D 00 00 80  0B 27 00 0B 0D 00 01 A4  .<.......'......
0800: 07 03 02 10 1F 00 03 2C  00 23 80 D4 02 42 80 13  .......,.#...B..
0810: 00 02 00 25 02 00 10 31  80 00 39 08 02 24 00 33  ...%...1..9..$.3
0820: 80 03 33 08 07 24 00 00  80 03 3F 00 23 80 03 13  ..3..$....?.#...
0830: 00 23 80 01 99 03 01 65  09 02 00 10 34 80 00 5E  .#.....e....4..^
0840: 08 02 24 00 23 80 02 58  08 08 24 00 00 80 03 3F  ..$.#..X..$....?
0850: 00 00 80 03 13 00 23 80  01 99 03 01 65 09 02 00  ......#.....e...
0860: 10 43 80 00 6C 08 01 57  03 01 65 09 03 13 00 00  .C..l..W..e.....
0870: 10 03 27 00 24 00 14 27  00 31 80 07 27 00 00 10  ..'.$..'.1..'...
0880: 9D 0A D9 51 2A 00 27 00  38 80 03 1D 17 2A 00 9D  ...Q*.'.8....*..
0890: 0A 59 51 2A 00 27 00 38  80 03 1E 17 2A 00 9D 0A  .YQ*.'.8....*...
08A0: 59 52 2A 00 27 00 38 80  03 1F 17 2A 00 93 1D 17  YR*.'.8....*....
08B0: 66 01 80 F8 FF FF 7F F8  FF FF 7F 74 6C 6B 30 1D  f..........tlk0.
08C0: 44 80 23 03 27 00 23 80  03 28 00 1F 17 03 1A 17  D.#.'.#..(......
08D0: 1E 17 02 1A 17 45 80 04  DF 08 03 1A 17 45 80 48  .....E.......E.H
08E0: 46 80 23 71 12 00 80 3A  80 71 13 27 00 93 23 80  F.#q...:.q.'..#.
08F0: 66 01 80 F8 FF FF 7F F8  FF FF 7F 74 6C 6B 31 02  f..........tlk1.
0900: 27 00 45 80 05 0A 09 01  0D 09 01 99 03 02 27 00  '.E...........'.
0910: 23 80 05 18 09 01 99 03  02 27 00 1E 17 05 62 09  #........'....b.
0920: 14 28 00 27 00 02 1F 00  28 00 04 3A 09 03 2D 00  .(.'....(..:..-.
0930: 00 10 03 2C 00 00 80 01  5F 09 66 01 80 F8 FF FF  ...,...._.f.....
0940: 7F F8 FF FF 7F 74 6C 6B  30 1D 47 80 23 66 01 80  .....tlk0.G.#f..
0950: F8 FF FF 7F F8 FF FF 7F  74 6C 6B 31 01 99 03 01  ........tlk1....
0960: 65 09 01 99 03 02 2C 00  23 80 00 70 09 01 07 0A  e.....,.#..p....
0970: 03 1C 17 27 00 03 1B 17  28 00 66 01 80 F8 FF FF  ...'....(.f.....
0980: 7F F8 FF FF 7F 74 6C 6B  30 1D 48 80 23 66 01 80  .....tlk0.H.#f..
0990: F8 FF FF 7F F8 FF FF 7F  74 6C 6B 31 24 49 80 00  ........tlk1$I..
09A0: 80 23 80 25 02 00 10 23  80 00 F9 09 42 66 01 80  .#.%...#....Bf..
09B0: F8 FF FF 7F F8 FF FF 7F  70 61 73 30 1D 4A 80 23  ........pas0.J.#
09C0: 40 23 80 24 80 01 10 3B  80 40 25 80 26 80 01 10  @#.$...;.@%.&...
09D0: 24 00 40 31 80 4B 80 01  10 2D 00 40 4C 80 39 80  $.@1.K...-.@L.9.
09E0: 01 10 27 00 43 00 43 01  03 1F 00 02 10 03 0E 00  ..'.C.C.........
09F0: 03 10 2E 01 99 03 01 07  0A 02 00 10 00 80 00 07  ................
0A00: 0A 01 99 03 01 07 0A 01  A3 20 02 00 10 00 80 00  ......... ......
0A10: 23 0D 03 12 00 00 10 03  10 00 23 80 03 19 17 23  #.........#....#
0A20: 80 03 14 00 23 80 40 23  80 24 80 01 10 3A 80 43  ....#.@#.$...:.C
0A30: 00 43 01 03 2E 00 02 10  03 10 00 03 10 03 03 00  .C..............
0A40: 23 80 03 27 00 23 80 03  2A 00 23 80 02 25 00 23  #..'.#..*.#..%.#
0A50: 80 80 68 0A 3E 10 00 23  80 65 0A 03 14 00 23 80  ..h.>..#.e....#.
0A60: 03 25 00 00 80 01 84 0A  02 25 00 00 80 80 84 0A  .%.......%......
0A70: 3E 10 00 00 80 81 0A 03  14 00 23 80 03 25 00 23  >.........#..%.#
0A80: 80 01 84 0A 3E 10 00 23  80 BB 0A 3E 10 00 00 80  ....>..#...>....
0A90: BB 0A 66 01 80 F8 FF FF  7F F8 FF FF 7F 74 6C 6B  ..f..........tlk
0AA0: 30 1D 36 80 23 1D 37 80  23 66 01 80 F8 FF FF 7F  0.6.#.7.#f......
0AB0: F8 FF FF 7F 74 6C 6B 31  01 20 03 02 25 00 23 80  ....tlk1. ..%.#.
0AC0: 80 EA 0A 3E 10 00 00 80  D4 0A 3C 03 00 31 80 00  ...>......<..1..
0AD0: 80 01 DB 0A 3D 03 00 31  80 00 80 3C 03 00 34 80  ....=..1...<..4.
0AE0: 00 80 03 28 00 23 80 01  19 0B 02 25 00 00 80 80  ...(.#.....%....
0AF0: 19 0B 3C 03 00 31 80 00  80 3E 10 00 23 80 0A 0B  ..<..1...>..#...
0B00: 3C 03 00 34 80 00 80 01  11 0B 3D 03 00 34 80 00  <..4......=..4..
0B10: 80 03 28 00 31 80 01 19  0B 02 27 00 26 80 05 78  ..(.1.....'.&..x
0B20: 0B 9D 0A 59 54 2A 00 28  00 4D 80 9D 0F D9 51 2A  ...YT*.(.M....Q*
0B30: 00 27 00 38 80 D4 03 27  00 2A 00 02 2A 00 23 80  .'.8...'.*..*.#.
0B40: 00 4D 0B 3C 03 00 27 00  00 80 01 5B 0B 3E 2E 00  .M.<..'....[.>..
0B50: 28 00 5B 0B 3C 03 00 27  00 00 80 9D 0A 99 54 2A  (.[.<..'......T*
0B60: 00 28 00 4D 80 9D 0F 59  52 2A 00 27 00 38 80 0B  .(.M...YR*.'.8..
0B70: 27 00 0B 28 00 01 19 0B  03 02 10 20 00 03 2C 00  '..(....... ..,.
0B80: 23 80 D4 02 4E 80 14 00  03 00 25 02 00 10 31 80  #...N.....%...1.
0B90: 00 AB 0B 02 25 00 23 80  00 A8 0B 03 25 00 00 80  ....%.#.....%...
0BA0: 03 14 00 23 80 01 26 0A  01 B8 0C 02 00 10 34 80  ...#..&.......4.
0BB0: 00 CB 0B 02 25 00 00 80  00 C8 0B 03 25 00 23 80  ....%.......%.#.
0BC0: 03 14 00 23 80 01 26 0A  01 B8 0C 02 00 10 43 80  ...#..&.......C.
0BD0: 00 D9 0B 01 57 03 01 B8  0C 03 27 00 23 80 03 14  ....W.....'.#...
0BE0: 00 00 10 03 27 00 00 10  02 25 00 00 80 00 F5 0B  ....'....%......
0BF0: 07 27 00 31 80 3E 2E 00  27 00 33 0C 9D 0A D9 51  .'.1.>..'.3....Q
0C00: 2A 00 00 10 38 80 03 1D  17 2A 00 66 01 80 F8 FF  *...8....*.f....
0C10: FF 7F F8 FF FF 7F 74 6C  6B 30 1D 4F 80 23 66 01  ......tlk0.O.#f.
0C20: 80 F8 FF FF 7F F8 FF FF  7F 74 6C 6B 31 01 3D 0A  .........tlk1.=.
0C30: 01 B8 0C 03 2D 00 00 10  9D 0A 59 52 2A 00 27 00  ....-.....YR*.'.
0C40: 38 80 02 20 00 2A 00 04  89 0C 9D 0A D9 51 2A 00  8.. .*.......Q*.
0C50: 00 10 38 80 03 1D 17 2A  00 93 1D 17 66 01 80 F8  ..8....*....f...
0C60: FF FF 7F F8 FF FF 7F 74  6C 6B 30 1D 50 80 23 66  .......tlk0.P.#f
0C70: 01 80 F8 FF FF 7F F8 FF  FF 7F 74 6C 6B 31 93 23  ..........tlk1.#
0C80: 80 03 2C 00 00 80 01 B8  0C 08 2A 00 20 00 03 1B  ..,.......*. ...
0C90: 17 2A 00 66 01 80 F8 FF  FF 7F F8 FF FF 7F 74 6C  .*.f..........tl
0CA0: 6B 30 1D 51 80 23 66 01  80 F8 FF FF 7F F8 FF FF  k0.Q.#f.........
0CB0: 7F 74 6C 6B 31 01 3D 0A  02 2C 00 23 80 00 C3 0C  .tlk1.=..,.#....
0CC0: 01 20 0D 24 52 80 00 80  23 80 25 02 00 10 23 80  . .$R...#.%...#.
0CD0: 00 12 0D 42 66 01 80 F8  FF FF 7F F8 FF FF 7F 70  ...Bf..........p
0CE0: 61 73 30 1D 4A 80 23 40  23 80 24 80 01 10 24 80  as0.J.#@#.$...$.
0CF0: 40 25 80 26 80 01 10 25  00 40 31 80 4B 80 01 10  @%.&...%.@1.K...
0D00: 2D 00 43 00 43 01 03 2E  00 02 10 2E 01 26 0A 01  -.C.C........&..
0D10: 20 0D 02 00 10 00 80 00  20 0D 01 26 0A 01 20 0D   ....... ..&.. .
0D20: 01 A3 20 02 00 10 32 80  00 D5 12 03 12 00 00 10  .. ...2.........
0D30: 03 3F 00 23 80 03 19 17  00 80 03 0D 00 23 80 03  .?.#.........#..
0D40: 02 00 23 80 02 26 00 23  80 80 85 0D 40 23 80 24  ..#..&.#....@#.$
0D50: 80 01 10 25 80 03 26 00  23 80 3D 02 00 31 80 00  ...%..&.#.=..1..
0D60: 80 3E 0F 00 00 80 6F 0D  3C 02 00 31 80 00 80 3C  .>....o.<..1...<
0D70: 02 00 34 80 00 80 3E 0F  00 23 80 82 0D 03 0D 00  ..4...>..#......
0D80: 00 80 01 C6 0D 02 26 00  00 80 80 C6 0D 40 23 80  ......&......@#.
0D90: 24 80 01 10 3C 80 03 26  00 00 80 3C 02 00 31 80  $...<..&...<..1.
0DA0: 00 80 3D 02 00 34 80 00  80 3E 0F 00 23 80 B7 0D  ..=..4...>..#...
0DB0: 3C 02 00 34 80 00 80 3E  0F 00 00 80 C3 0D 03 0D  <..4...>........
0DC0: 00 00 80 01 C6 0D 02 0D  00 00 80 00 42 0E 3E 0F  ............B.>.
0DD0: 00 23 80 05 0E 3E 0F 00  00 80 05 0E 66 01 80 F8  .#...>......f...
0DE0: FF FF 7F F8 FF FF 7F 74  6C 6B 30 1D 36 80 23 1D  .......tlk0.6.#.
0DF0: 37 80 23 66 01 80 F8 FF  FF 7F F8 FF FF 7F 74 6C  7.#f..........tl
0E00: 6B 31 01 20 03 02 3F 00  23 80 00 25 0E 0B 26 00  k1. ..?.#..%..&.
0E10: 02 26 00 00 80 04 22 0E  03 26 00 00 80 03 3F 00  .&...."..&....?.
0E20: 00 80 01 3A 0E 0C 26 00  02 26 00 23 80 05 3A 0E  ...:..&..&.#..:.
0E30: 03 26 00 23 80 03 3F 00  23 80 03 15 00 23 80 01  .&.#..?.#....#..
0E40: 3A 0D 43 00 43 01 03 27  00 23 80 03 27 00 26 00  :.C.C..'.#..'.&.
0E50: 14 27 00 31 80 03 2B 00  27 00 07 2B 00 31 80 02  .'.1..+.'..+.1..
0E60: 27 00 2B 00 03 81 0E 9D  0A 59 55 2A 00 27 00 4D  '.+......YU*.'.M
0E70: 80 9D 0F 59 51 2A 00 27  00 4D 80 0B 27 00 01 5F  ...YQ*.'.M..'.._
0E80: 0E 41 23 80 26 80 02 10  27 00 08 2F 00 27 00 02  .A#.&...'../.'..
0E90: 2F 00 23 80 05 9E 0E 3C  02 00 23 80 00 80 41 31  /.#....<..#...A1
0EA0: 80 39 80 02 10 27 00 08  30 00 27 00 02 30 00 23  .9...'..0.'..0.#
0EB0: 80 05 BB 0E 3C 02 00 00  80 00 80 41 23 80 26 80  ....<......A#.&.
0EC0: 03 10 27 00 08 31 00 27  00 02 31 00 23 80 05 D8  ..'..1.'..1.#...
0ED0: 0E 3C 02 00 32 80 00 80  41 31 80 39 80 03 10 27  .<..2...A1.9...'
0EE0: 00 08 32 00 27 00 02 32  00 23 80 05 F5 0E 3C 02  ..2.'..2.#....<.
0EF0: 00 33 80 00 80 41 23 80  26 80 04 10 27 00 08 33  .3...A#.&...'..3
0F00: 00 27 00 02 33 00 23 80  05 12 0F 3C 02 00 35 80  .'..3.#....<..5.
0F10: 00 80 41 31 80 39 80 04  10 27 00 08 34 00 27 00  ..A1.9...'..4.'.
0F20: 02 34 00 23 80 05 2F 0F  3C 02 00 3A 80 00 80 41  .4.#../.<..:...A
0F30: 23 80 26 80 05 10 27 00  08 35 00 27 00 02 35 00  #.&...'..5.'..5.
0F40: 23 80 05 4C 0F 3C 02 00  3B 80 00 80 41 31 80 39  #..L.<..;...A1.9
0F50: 80 05 10 27 00 08 36 00  27 00 02 36 00 23 80 05  ...'..6.'..6.#..
0F60: 69 0F 3C 02 00 24 80 00  80 41 23 80 26 80 06 10  i.<..$...A#.&...
0F70: 27 00 08 37 00 27 00 02  37 00 23 80 05 86 0F 3C  '..7.'..7.#....<
0F80: 02 00 25 80 00 80 41 31  80 39 80 06 10 27 00 08  ..%...A1.9...'..
0F90: 38 00 27 00 02 38 00 23  80 05 A3 0F 3C 02 00 3C  8.'..8.#....<..<
0FA0: 80 00 80 41 23 80 26 80  07 10 27 00 08 39 00 27  ...A#.&...'..9.'
0FB0: 00 02 39 00 23 80 05 C0  0F 3C 02 00 3D 80 00 80  ..9.#....<..=...
0FC0: 41 31 80 39 80 07 10 27  00 08 3A 00 27 00 02 3A  A1.9...'..:.'..:
0FD0: 00 23 80 05 DD 0F 3C 02  00 3E 80 00 80 41 23 80  .#....<..>...A#.
0FE0: 26 80 08 10 27 00 08 3B  00 27 00 02 3B 00 23 80  &...'..;.'..;.#.
0FF0: 05 FA 0F 3C 02 00 3F 80  00 80 41 31 80 39 80 08  ...<..?...A1.9..
1000: 10 27 00 08 3C 00 27 00  02 3C 00 23 80 05 17 10  .'..<.'..<.#....
1010: 3C 02 00 40 80 00 80 41  23 80 26 80 09 10 27 00  <..@...A#.&...'.
1020: 08 3D 00 27 00 02 3D 00  23 80 05 34 10 3C 02 00  .=.'..=.#..4.<..
1030: 41 80 00 80 41 31 80 39  80 09 10 27 00 08 3E 00  A...A1.9...'..>.
1040: 27 00 02 3E 00 23 80 05  51 10 3C 02 00 26 80 00  '..>.#..Q.<..&..
1050: 80 03 0D 00 23 80 03 27  00 23 80 03 27 00 26 00  ....#..'.#..'.&.
1060: 14 27 00 31 80 03 2B 00  27 00 07 2B 00 31 80 02  .'.1..+.'..+.1..
1070: 27 00 2B 00 03 CC 10 9D  0A 19 55 2A 00 27 00 4D  '.+.......U*.'.M
1080: 80 9D 0F D9 51 2A 00 27  00 4D 80 D4 03 0D 00 2A  ....Q*.'.M.....*
1090: 00 02 2A 00 23 80 00 A0  10 3C 02 00 0D 00 00 80  ..*.#....<......
10A0: 9D 0A 99 55 2A 00 27 00  4D 80 9D 0F 59 52 2A 00  ...U*.'.M...YR*.
10B0: 27 00 4D 80 02 2A 00 23  80 00 C3 10 3C 02 00 0D  '.M..*.#....<...
10C0: 00 00 80 0B 27 00 0B 0D  00 01 6F 10 03 02 10 22  ....'.....o...."
10D0: 00 03 2C 00 23 80 D4 02  53 80 15 00 02 00 25 02  ..,.#...S.....%.
10E0: 00 10 31 80 00 04 11 02  26 00 33 80 03 FE 10 07  ..1.....&.3.....
10F0: 26 00 00 80 03 3F 00 23  80 03 15 00 23 80 01 3A  &....?.#....#..:
1100: 0D 01 30 12 02 00 10 34  80 00 29 11 02 26 00 23  ..0....4..)..&.#
1110: 80 02 23 11 08 26 00 00  80 03 3F 00 00 80 03 15  ..#..&....?.....
1120: 00 23 80 01 3A 0D 01 30  12 02 00 10 43 80 00 37  .#..:..0....C..7
1130: 11 01 57 03 01 30 12 03  15 00 00 10 03 27 00 26  ..W..0.......'.&
1140: 00 14 27 00 31 80 07 27  00 00 10 9D 0A D9 51 2A  ..'.1..'......Q*
1150: 00 27 00 4D 80 03 1D 17  2A 00 9D 0A 59 51 2A 00  .'.M....*...YQ*.
1160: 27 00 4D 80 03 1E 17 2A  00 9D 0A 59 52 2A 00 27  '.M....*...YR*.'
1170: 00 4D 80 03 1F 17 2A 00  93 1D 17 66 01 80 F8 FF  .M....*....f....
1180: FF 7F F8 FF FF 7F 74 6C  6B 30 1D 44 80 23 03 27  ......tlk0.D.#.'
1190: 00 23 80 03 28 00 1F 17  03 1A 17 1E 17 02 1A 17  .#..(...........
11A0: 45 80 04 AA 11 03 1A 17  45 80 48 46 80 23 71 12  E.......E.HF.#q.
11B0: 00 80 3A 80 71 13 27 00  93 23 80 66 01 80 F8 FF  ..:.q.'..#.f....
11C0: FF 7F F8 FF FF 7F 74 6C  6B 31 02 27 00 45 80 05  ......tlk1.'.E..
11D0: D5 11 01 D8 11 01 3A 0D  02 27 00 23 80 05 E3 11  ......:..'.#....
11E0: 01 3A 0D 02 27 00 1E 17  05 2D 12 14 28 00 27 00  .:..'....-..(.'.
11F0: 02 22 00 28 00 04 05 12  03 2D 00 00 10 03 2C 00  .".(.....-....,.
1200: 00 80 01 2A 12 66 01 80  F8 FF FF 7F F8 FF FF 7F  ...*.f..........
1210: 74 6C 6B 30 1D 47 80 23  66 01 80 F8 FF FF 7F F8  tlk0.G.#f.......
1220: FF FF 7F 74 6C 6B 31 01  3A 0D 01 30 12 01 3A 0D  ...tlk1.:..0..:.
1230: 02 2C 00 23 80 00 3B 12  01 D2 12 03 1C 17 27 00  .,.#..;.......'.
1240: 03 1B 17 28 00 66 01 80  F8 FF FF 7F F8 FF FF 7F  ...(.f..........
1250: 74 6C 6B 30 1D 48 80 23  66 01 80 F8 FF FF 7F F8  tlk0.H.#f.......
1260: FF FF 7F 74 6C 6B 31 24  49 80 00 80 23 80 25 02  ...tlk1$I...#.%.
1270: 00 10 23 80 00 C4 12 42  66 01 80 F8 FF FF 7F F8  ..#....Bf.......
1280: FF FF 7F 70 61 73 30 1D  4A 80 23 40 23 80 24 80  ...pas0.J.#@#.$.
1290: 01 10 3D 80 40 25 80 26  80 01 10 26 00 40 31 80  ..=.@%.&...&.@1.
12A0: 4B 80 01 10 2D 00 40 4C  80 39 80 01 10 27 00 43  K...-.@L.9...'.C
12B0: 00 43 01 03 22 00 02 10  03 0F 00 03 10 2E 01 3A  .C.."..........:
12C0: 0D 01 D2 12 02 00 10 00  80 00 D2 12 01 3A 0D 01  .............:..
12D0: D2 12 01 A3 20 02 00 10  33 80 00 22 1A 66 01 80  .... ...3..".f..
12E0: F8 FF FF 7F F8 FF FF 7F  74 6C 6B 30 1D 54 80 23  ........tlk0.T.#
12F0: 53 F8 FF FF 7F F8 FF FF  7F 74 6C 6B 30 66 01 80  S........tlk0f..
1300: F8 FF FF 7F F8 FF FF 7F  74 6C 6B 31 53 F8 FF FF  ........tlk1S...
1310: 7F F8 FF FF 7F 74 6C 6B  31 03 12 00 00 10 03 1D  .....tlk1.......
1320: 00 23 80 24 55 80 1C 00  1D 00 25 02 00 10 23 80  .#.$U.....%...#.
1330: 00 2F 14 03 1C 00 00 10  03 1E 00 23 80 66 01 80  ./.........#.f..
1340: F8 FF FF 7F F8 FF FF 7F  70 61 73 30 53 F8 FF FF  ........pas0S...
1350: 7F F8 FF FF 7F 70 61 73  30 13 1E 00 45 80 02 1E  .....pas0...E...
1360: 00 35 80 05 E6 13 48 56  80 23 48 57 80 23 13 1E  .5....HV.#HW.#..
1370: 00 45 80 02 1E 00 58 80  05 AA 13 48 59 80 23 13  .E....X....HY.#.
1380: 1E 00 45 80 02 1E 00 58  80 05 AA 13 03 02 10 5A  ..E....X.......Z
1390: 80 48 5B 80 23 13 1E 00  45 80 02 1E 00 58 80 05  .H[.#...E....X..
13A0: AA 13 48 5C 80 23 48 56  80 23 66 01 80 F8 FF FF  ..H\.#HV.#f.....
13B0: 7F F8 FF FF 7F 7A 69 74  30 1D 5D 80 23 53 F8 FF  .....zit0.].#S..
13C0: FF 7F F8 FF FF 7F 7A 69  74 30 66 01 80 F8 FF FF  ......zit0f.....
13D0: 7F F8 FF FF 7F 70 61 73  30 53 F8 FF FF 7F F8 FF  .....pas0S......
13E0: FF 7F 70 61 73 30 48 56  80 23 03 02 10 5E 80 03  ..pas0HV.#...^..
13F0: 03 10 5F 80 03 04 10 60  80 03 05 10 61 80 03 06  .._....`....a...
1400: 10 62 80 03 07 10 63 80  03 08 10 64 80 48 65 80  .b....c....d.He.
1410: 23 48 66 80 23 48 67 80  23 48 68 80 23 48 69 80  #Hf.#Hg.#Hh.#Hi.
1420: 23 48 6A 80 23 48 6B 80  23 01 1E 13 01 1F 1A 02  #Hj.#Hk.#.......
1430: 00 10 00 80 00 30 15 03  1C 00 00 10 03 1E 00 23  .....0.........#
1440: 80 66 01 80 F8 FF FF 7F  F8 FF FF 7F 70 61 73 30  .f..........pas0
1450: 53 F8 FF FF 7F F8 FF FF  7F 70 61 73 30 13 1E 00  S........pas0...
1460: 45 80 02 1E 00 35 80 05  EA 14 48 56 80 23 48 6C  E....5....HV.#Hl
1470: 80 23 13 1E 00 45 80 02  1E 00 58 80 05 AE 14 48  .#...E....X....H
1480: 6D 80 23 13 1E 00 45 80  02 1E 00 58 80 05 AE 14  m.#...E....X....
1490: 03 02 10 5A 80 48 6E 80  23 13 1E 00 45 80 02 1E  ...Z.Hn.#...E...
14A0: 00 58 80 05 AE 14 48 6F  80 23 48 56 80 23 66 01  .X....Ho.#HV.#f.
14B0: 80 F8 FF FF 7F F8 FF FF  7F 7A 69 74 30 1D 5D 80  .........zit0.].
14C0: 23 53 F8 FF FF 7F F8 FF  FF 7F 7A 69 74 30 66 01  #S........zit0f.
14D0: 80 F8 FF FF 7F F8 FF FF  7F 70 61 73 30 53 F8 FF  .........pas0S..
14E0: FF 7F F8 FF FF 7F 70 61  73 30 48 56 80 23 48 70  ......pas0HV.#Hp
14F0: 80 23 03 02 10 2A 80 48  71 80 23 03 02 10 72 80  .#...*.Hq.#...r.
1500: 48 73 80 23 03 02 10 2A  80 03 03 10 72 80 03 04  Hs.#...*....r...
1510: 10 3A 80 03 05 10 74 80  03 06 10 3D 80 48 75 80  .:....t....=.Hu.
1520: 23 03 02 10 2A 80 48 76  80 23 01 1E 13 01 1F 1A  #...*.Hv.#......
1530: 02 00 10 32 80 00 31 16  03 1C 00 00 10 03 1E 00  ...2..1.........
1540: 23 80 66 01 80 F8 FF FF  7F F8 FF FF 7F 70 61 73  #.f..........pas
1550: 30 53 F8 FF FF 7F F8 FF  FF 7F 70 61 73 30 13 1E  0S........pas0..
1560: 00 45 80 02 1E 00 35 80  05 EB 15 48 56 80 23 48  .E....5....HV.#H
1570: 77 80 23 13 1E 00 45 80  02 1E 00 58 80 05 AF 15  w.#...E....X....
1580: 48 78 80 23 13 1E 00 45  80 02 1E 00 58 80 05 AF  Hx.#...E....X...
1590: 15 03 02 10 5A 80 48 79  80 23 13 1E 00 45 80 02  ....Z.Hy.#...E..
15A0: 1E 00 58 80 05 AF 15 48  7A 80 23 48 56 80 23 66  ..X....Hz.#HV.#f
15B0: 01 80 F8 FF FF 7F F8 FF  FF 7F 7A 69 74 30 1D 5D  ..........zit0.]
15C0: 80 23 53 F8 FF FF 7F F8  FF FF 7F 7A 69 74 30 66  .#S........zit0f
15D0: 01 80 F8 FF FF 7F F8 FF  FF 7F 70 61 73 30 53 F8  ..........pas0S.
15E0: FF FF 7F F8 FF FF 7F 70  61 73 30 48 56 80 23 48  .......pas0HV.#H
15F0: 7B 80 23 03 02 10 2B 80  48 7C 80 23 03 02 10 7D  {.#...+.H|.#...}
1600: 80 48 7E 80 23 03 02 10  2B 80 03 03 10 7D 80 03  .H~.#...+....}..
1610: 04 10 3A 80 03 05 10 7F  80 03 06 10 3D 80 48 75  ..:.........=.Hu
1620: 80 23 03 02 10 2B 80 48  76 80 23 01 1E 13 01 1F  .#...+.Hv.#.....
1630: 1A 02 00 10 33 80 00 22  17 03 1C 00 00 10 03 1E  ....3.."........
1640: 00 23 80 66 01 80 F8 FF  FF 7F F8 FF FF 7F 70 61  .#.f..........pa
1650: 73 30 53 F8 FF FF 7F F8  FF FF 7F 70 61 73 30 13  s0S........pas0.
1660: 1E 00 45 80 02 1E 00 35  80 05 EC 16 48 56 80 23  ..E....5....HV.#
1670: 48 80 80 23 13 1E 00 45  80 02 1E 00 58 80 05 B0  H..#...E....X...
1680: 16 48 81 80 23 13 1E 00  45 80 02 1E 00 58 80 05  .H..#...E....X..
1690: B0 16 03 02 10 5A 80 48  82 80 23 13 1E 00 45 80  .....Z.H..#...E.
16A0: 02 1E 00 58 80 05 B0 16  48 83 80 23 48 56 80 23  ...X....H..#HV.#
16B0: 66 01 80 F8 FF FF 7F F8  FF FF 7F 7A 69 74 30 1D  f..........zit0.
16C0: 5D 80 23 53 F8 FF FF 7F  F8 FF FF 7F 7A 69 74 30  ].#S........zit0
16D0: 66 01 80 F8 FF FF 7F F8  FF FF 7F 70 61 73 30 53  f..........pas0S
16E0: F8 FF FF 7F F8 FF FF 7F  70 61 73 30 48 56 80 23  ........pas0HV.#
16F0: 48 84 80 23 03 02 10 85  80 48 86 80 23 03 02 10  H..#.....H..#...
1700: 85 80 03 03 10 2C 80 48  87 80 23 48 88 80 23 48  .....,.H..#H..#H
1710: 75 80 23 03 02 10 2C 80  48 89 80 23 01 1E 13 01  u.#...,.H..#....
1720: 1F 1A 02 00 10 35 80 00  1D 18 03 1C 00 00 10 03  .....5..........
1730: 1E 00 23 80 66 01 80 F8  FF FF 7F F8 FF FF 7F 70  ..#.f..........p
1740: 61 73 30 53 F8 FF FF 7F  F8 FF FF 7F 70 61 73 30  as0S........pas0
1750: 13 1E 00 45 80 02 1E 00  35 80 05 E7 17 48 56 80  ...E....5....HV.
1760: 23 48 8A 80 23 13 1E 00  45 80 02 1E 00 58 80 05  #H..#...E....X..
1770: AB 17 03 02 10 8B 80 03  03 10 8C 80 03 04 10 8D  ................
1780: 80 48 8E 80 23 13 1E 00  45 80 02 1E 00 58 80 05  .H..#...E....X..
1790: AB 17 48 8F 80 23 13 1E  00 45 80 02 1E 00 58 80  ..H..#...E....X.
17A0: 05 AB 17 48 90 80 23 48  56 80 23 66 01 80 F8 FF  ...H..#HV.#f....
17B0: FF 7F F8 FF FF 7F 7A 69  74 30 1D 5D 80 23 53 F8  ......zit0.].#S.
17C0: FF FF 7F F8 FF FF 7F 7A  69 74 30 66 01 80 F8 FF  .......zit0f....
17D0: FF 7F F8 FF FF 7F 70 61  73 30 53 F8 FF FF 7F F8  ......pas0S.....
17E0: FF FF 7F 70 61 73 30 48  56 80 23 48 91 80 23 03  ...pas0HV.#H..#.
17F0: 02 10 92 80 03 03 10 2D  80 48 93 80 23 03 02 10  .......-.H..#...
1800: 92 80 48 94 80 23 48 95  80 23 48 75 80 23 03 02  ..H..#H..#Hu.#..
1810: 10 2D 80 48 89 80 23 01  1E 13 01 1F 1A 02 00 10  .-.H..#.........
1820: 3A 80 00 0E 19 03 1C 00  00 10 03 1E 00 23 80 66  :............#.f
1830: 01 80 F8 FF FF 7F F8 FF  FF 7F 70 61 73 30 53 F8  ..........pas0S.
1840: FF FF 7F F8 FF FF 7F 70  61 73 30 13 1E 00 45 80  .......pas0...E.
1850: 02 1E 00 35 80 05 D8 18  48 56 80 23 48 96 80 23  ...5....HV.#H..#
1860: 13 1E 00 45 80 02 1E 00  58 80 05 9C 18 03 02 10  ...E....X.......
1870: 97 80 48 98 80 23 13 1E  00 45 80 02 1E 00 58 80  ..H..#...E....X.
1880: 05 9C 18 48 99 80 23 13  1E 00 45 80 02 1E 00 58  ...H..#...E....X
1890: 80 05 9C 18 48 9A 80 23  48 56 80 23 66 01 80 F8  ....H..#HV.#f...
18A0: FF FF 7F F8 FF FF 7F 7A  69 74 30 1D 5D 80 23 53  .......zit0.].#S
18B0: F8 FF FF 7F F8 FF FF 7F  7A 69 74 30 66 01 80 F8  ........zit0f...
18C0: FF FF 7F F8 FF FF 7F 70  61 73 30 53 F8 FF FF 7F  .......pas0S....
18D0: F8 FF FF 7F 70 61 73 30  48 56 80 23 48 9B 80 23  ....pas0HV.#H..#
18E0: 03 02 10 9C 80 03 03 10  2E 80 48 9D 80 23 03 02  ..........H..#..
18F0: 10 9C 80 48 94 80 23 48  95 80 23 48 75 80 23 03  ...H..#H..#Hu.#.
1900: 02 10 2E 80 48 89 80 23  01 1E 13 01 1F 1A 02 00  ....H..#........
1910: 10 3B 80 00 11 1A 03 1C  00 00 10 03 1E 00 23 80  .;............#.
1920: 66 01 80 F8 FF FF 7F F8  FF FF 7F 70 61 73 30 53  f..........pas0S
1930: F8 FF FF 7F F8 FF FF 7F  70 61 73 30 13 1E 00 45  ........pas0...E
1940: 80 02 1E 00 35 80 05 C9  19 48 56 80 23 48 9E 80  ....5....HV.#H..
1950: 23 13 1E 00 45 80 02 1E  00 58 80 05 8D 19 03 02  #...E....X......
1960: 10 97 80 48 9F 80 23 13  1E 00 45 80 02 1E 00 58  ...H..#...E....X
1970: 80 05 8D 19 48 A0 80 23  13 1E 00 45 80 02 1E 00  ....H..#...E....
1980: 58 80 05 8D 19 48 A1 80  23 48 56 80 23 66 01 80  X....H..#HV.#f..
1990: F8 FF FF 7F F8 FF FF 7F  7A 69 74 30 1D 5D 80 23  ........zit0.].#
19A0: 53 F8 FF FF 7F F8 FF FF  7F 7A 69 74 30 66 01 80  S........zit0f..
19B0: F8 FF FF 7F F8 FF FF 7F  70 61 73 30 53 F8 FF FF  ........pas0S...
19C0: 7F F8 FF FF 7F 70 61 73  30 48 56 80 23 48 9B 80  .....pas0HV.#H..
19D0: 23 03 02 10 A2 80 03 03  10 2F 80 48 A3 80 23 03  #......../.H..#.
19E0: 02 10 A4 80 48 A5 80 23  48 A6 80 23 03 02 10 2F  ....H..#H..#.../
19F0: 80 03 03 10 A2 80 48 A7  80 23 03 02 10 2F 80 48  ......H..#.../.H
1A00: A8 80 23 48 75 80 23 48  A9 80 23 01 1E 13 01 1F  ..#Hu.#H..#.....
1A10: 1A 02 00 10 24 80 00 1F  1A 01 57 03 01 1F 1A 01  ....$.....W.....
1A20: A3 20 02 00 10 35 80 00  F3 1B 03 12 00 00 10 03  . ...5..........
1A30: 15 00 23 80 24 AA 80 15  00 0C 00 25 02 00 10 3A  ..#.$......%...:
1A40: 80 00 4F 1A 03 15 00 00  10 01 57 03 01 54 1A 03  ..O.......W..T..
1A50: 15 00 00 10 02 15 00 3C  80 05 F0 1B 03 16 00 23  .......<.......#
1A60: 80 03 27 00 23 80 03 2A  00 23 80 02 27 00 3C 80  ..'.#..*.#..'.<.
1A70: 05 F2 1A 02 15 00 23 80  80 88 1A 9D 0A 99 5A 2A  ......#.......Z*
1A80: 00 27 00 3D 80 01 DC 1A  02 15 00 00 80 80 9D 1A  .'.=............
1A90: 9D 0A D9 5A 2A 00 27 00  3D 80 01 DC 1A 02 15 00  ...Z*.'.=.......
1AA0: 32 80 80 B2 1A 9D 0A 19  5B 2A 00 27 00 3D 80 01  2.......[*.'.=..
1AB0: DC 1A 02 15 00 33 80 80  C7 1A 9D 0A 59 5B 2A 00  .....3......Y[*.
1AC0: 27 00 3D 80 01 DC 1A 02  15 00 35 80 80 DC 1A 9D  '.=.......5.....
1AD0: 0A 99 5B 2A 00 27 00 3D  80 01 DC 1A 9D 0F D9 51  ..[*.'.=.......Q
1AE0: 2A 00 27 00 3D 80 D4 03  27 00 2A 00 0B 27 00 01  *.'.=...'.*..'..
1AF0: 6B 1A D4 02 AB 80 16 00  23 80 25 02 00 10 3D 80  k.......#.%...=.
1B00: 00 0E 1B 03 16 00 00 10  01 34 1A 01 26 1B 02 00  .........4..&...
1B10: 10 3E 80 00 21 1B 03 16  00 00 10 01 57 03 01 26  .>..!.......W..&
1B20: 1B 03 16 00 00 10 02 16  00 3C 80 05 F0 1B 02 15  .........<......
1B30: 00 23 80 80 4D 1B 9D 0A  99 5A 02 10 16 00 3D 80  .#..M....Z....=.
1B40: 9D 0A B9 5A 03 10 16 00  3D 80 01 C9 1B 02 15 00  ...Z....=.......
1B50: 00 80 80 6C 1B 9D 0A D9  5A 02 10 16 00 3D 80 9D  ...l....Z....=..
1B60: 0A F9 5A 03 10 16 00 3D  80 01 C9 1B 02 15 00 32  ..Z....=.......2
1B70: 80 80 8B 1B 9D 0A 19 5B  02 10 16 00 3D 80 9D 0A  .......[....=...
1B80: 39 5B 03 10 16 00 3D 80  01 C9 1B 02 15 00 33 80  9[....=.......3.
1B90: 80 AA 1B 9D 0A 59 5B 02  10 16 00 3D 80 9D 0A 79  .....Y[....=...y
1BA0: 5B 03 10 16 00 3D 80 01  C9 1B 02 15 00 35 80 80  [....=.......5..
1BB0: C9 1B 9D 0A 99 5B 02 10  16 00 3D 80 9D 0A B9 5B  .....[....=....[
1BC0: 03 10 16 00 3D 80 01 C9  1B 03 04 10 2A 80 02 16  ....=.......*...
1BD0: 00 35 80 05 DE 1B 03 05  10 3A 80 01 E3 1B 03 05  .5.......:......
1BE0: 10 3D 80 93 02 10 1D AC  80 23 93 23 80 01 61 1A  .=.......#.#..a.
1BF0: 01 A3 20 02 00 10 3A 80  00 C4 1D 03 12 00 00 10  .. ...:.........
1C00: 03 15 00 23 80 24 AD 80  15 00 0C 00 25 02 00 10  ...#.$......%...
1C10: 3A 80 00 20 1C 03 15 00  00 10 01 57 03 01 25 1C  :.. .......W..%.
1C20: 03 15 00 00 10 02 15 00  3C 80 05 C1 1D 03 16 00  ........<.......
1C30: 23 80 03 27 00 23 80 03  2A 00 23 80 02 27 00 3C  #..'.#..*.#..'.<
1C40: 80 05 C3 1C 02 15 00 23  80 80 59 1C 9D 0A D9 5B  .......#..Y....[
1C50: 2A 00 27 00 3D 80 01 AD  1C 02 15 00 00 80 80 6E  *.'.=..........n
1C60: 1C 9D 0A 19 5C 2A 00 27  00 3D 80 01 AD 1C 02 15  ....\*.'.=......
1C70: 00 32 80 80 83 1C 9D 0A  59 5C 2A 00 27 00 3D 80  .2......Y\*.'.=.
1C80: 01 AD 1C 02 15 00 33 80  80 98 1C 9D 0A 99 5C 2A  ......3.......\*
1C90: 00 27 00 3D 80 01 AD 1C  02 15 00 35 80 80 AD 1C  .'.=.......5....
1CA0: 9D 0A D9 5C 2A 00 27 00  3D 80 01 AD 1C 9D 0F D9  ...\*.'.=.......
1CB0: 51 2A 00 27 00 3D 80 D4  03 27 00 2A 00 0B 27 00  Q*.'.=...'.*..'.
1CC0: 01 3C 1C D4 02 AB 80 16  00 23 80 25 02 00 10 3D  .<.......#.%...=
1CD0: 80 00 DF 1C 03 16 00 00  10 01 05 1C 01 F7 1C 02  ................
1CE0: 00 10 3E 80 00 F2 1C 03  16 00 00 10 01 57 03 01  ..>..........W..
1CF0: F7 1C 03 16 00 00 10 02  16 00 3C 80 05 C1 1D 02  ..........<.....
1D00: 15 00 23 80 80 1E 1D 9D  0A D9 5B 02 10 16 00 3D  ..#.......[....=
1D10: 80 9D 0A F9 5B 03 10 16  00 3D 80 01 9A 1D 02 15  ....[....=......
1D20: 00 00 80 80 3D 1D 9D 0A  19 5C 02 10 16 00 3D 80  ....=....\....=.
1D30: 9D 0A 39 5C 03 10 16 00  3D 80 01 9A 1D 02 15 00  ..9\....=.......
1D40: 32 80 80 5C 1D 9D 0A 59  5C 02 10 16 00 3D 80 9D  2..\...Y\....=..
1D50: 0A 79 5C 03 10 16 00 3D  80 01 9A 1D 02 15 00 33  .y\....=.......3
1D60: 80 80 7B 1D 9D 0A 99 5C  02 10 16 00 3D 80 9D 0A  ..{....\....=...
1D70: B9 5C 03 10 16 00 3D 80  01 9A 1D 02 15 00 35 80  .\....=.......5.
1D80: 80 9A 1D 9D 0A D9 5C 02  10 16 00 3D 80 9D 0A F9  ......\....=....
1D90: 5C 03 10 16 00 3D 80 01  9A 1D 03 04 10 2B 80 02  \....=.......+..
1DA0: 16 00 35 80 05 AF 1D 03  05 10 3A 80 01 B4 1D 03  ..5.......:.....
1DB0: 05 10 3D 80 93 02 10 1D  AC 80 23 93 23 80 01 32  ..=.......#.#..2
1DC0: 1C 01 A3 20 02 00 10 3B  80 00 5A 1E 03 12 00 00  ... ...;..Z.....
1DD0: 10 03 18 00 23 80 03 27  00 23 80 03 2A 00 23 80  ....#..'.#..*.#.
1DE0: 02 27 00 40 80 05 08 1E  9D 0A B9 5E 2A 00 27 00  .'.@.......^*.'.
1DF0: 41 80 9D 0F D9 51 2A 00  27 00 41 80 D4 03 27 00  A....Q*.'.A...'.
1E00: 2A 00 0B 27 00 01 E0 1D  D4 02 AE 80 18 00 23 80  *..'..........#.
1E10: 25 02 00 10 41 80 00 1F  1E 01 57 03 01 24 1E 03  %...A.....W..$..
1E20: 18 00 00 10 02 18 00 40  80 05 54 1E 9D 0A B9 5E  .......@..T....^
1E30: 02 10 18 00 41 80 9D 0A  99 5E 03 10 18 00 41 80  ....A....^....A.
1E40: 03 04 10 2C 80 03 05 10  3A 80 93 02 10 1D AC 80  ...,....:.......
1E50: 23 93 23 80 01 D6 1D 01  A3 20 02 00 10 24 80 00  #.#...... ...$..
1E60: F0 1E 03 12 00 00 10 03  19 00 23 80 03 27 00 23  ..........#..'.#
1E70: 80 03 2A 00 23 80 02 27  00 40 80 05 9E 1E 9D 0A  ..*.#..'.@......
1E80: D9 5E 2A 00 27 00 41 80  9D 0F D9 51 2A 00 27 00  .^*.'.A....Q*.'.
1E90: 41 80 D4 03 27 00 2A 00  0B 27 00 01 76 1E D4 02  A...'.*..'..v...
1EA0: AE 80 19 00 23 80 25 02  00 10 41 80 00 B5 1E 01  ....#.%...A.....
1EB0: 57 03 01 BA 1E 03 19 00  00 10 02 19 00 40 80 05  W............@..
1EC0: EA 1E 9D 0A D9 5E 02 10  19 00 41 80 9D 0A B9 5E  .....^....A....^
1ED0: 03 10 19 00 41 80 03 04  10 2D 80 03 05 10 3A 80  ....A....-....:.
1EE0: 93 02 10 1D AC 80 23 93  23 80 01 6C 1E 01 A3 20  ......#.#..l... 
1EF0: 02 00 10 25 80 00 86 1F  03 12 00 00 10 03 1A 00  ...%............
1F00: 23 80 03 27 00 23 80 03  2A 00 23 80 02 27 00 40  #..'.#..*.#..'.@
1F10: 80 05 34 1F 9D 0A F9 5E  2A 00 27 00 41 80 9D 0F  ..4....^*.'.A...
1F20: D9 51 2A 00 27 00 41 80  D4 03 27 00 2A 00 0B 27  .Q*.'.A...'.*..'
1F30: 00 01 0C 1F D4 02 AE 80  1A 00 23 80 25 02 00 10  ..........#.%...
1F40: 41 80 00 4B 1F 01 57 03  01 50 1F 03 1A 00 00 10  A..K..W..P......
1F50: 02 1A 00 40 80 05 80 1F  9D 0A F9 5E 02 10 1A 00  ...@.......^....
1F60: 41 80 9D 0A D9 5E 03 10  1A 00 41 80 03 04 10 2E  A....^....A.....
1F70: 80 03 05 10 3A 80 93 02  10 1D AC 80 23 93 23 80  ....:.......#.#.
1F80: 01 02 1F 01 A3 20 02 00  10 3C 80 00 21 20 03 12  ..... ...<..! ..
1F90: 00 00 10 03 1B 00 23 80  03 27 00 23 80 03 2A 00  ......#..'.#..*.
1FA0: 23 80 02 27 00 40 80 05  CA 1F 9D 0A 19 5F 2A 00  #..'.@......._*.
1FB0: 27 00 41 80 9D 0F D9 51  2A 00 27 00 41 80 D4 03  '.A....Q*.'.A...
1FC0: 27 00 2A 00 0B 27 00 01  A2 1F D4 02 AE 80 1B 00  '.*..'..........
1FD0: 23 80 25 02 00 10 41 80  00 E1 1F 01 57 03 01 E6  #.%...A.....W...
1FE0: 1F 03 1B 00 00 10 02 1B  00 40 80 05 1B 20 9D 0A  .........@... ..
1FF0: 19 5F 02 10 1B 00 41 80  9D 0A F9 5E 03 10 1B 00  ._....A....^....
2000: 41 80 03 04 10 A4 80 03  05 10 2F 80 03 06 10 3A  A........./....:
2010: 80 93 02 10 1D AF 80 23  93 23 80 01 98 1F 01 A3  .......#.#......
2020: 20 02 00 10 3D 80 00 80  20 03 12 00 00 10 66 01   ...=... .....f.
2030: 80 F8 FF FF 7F F8 FF FF  7F 74 6C 6B 30 1D 1B 80  .........tlk0...
2040: 23 1D 1C 80 23 1D 1D 80  23 1D 1E 80 23 1D 20 80  #...#...#...#. .
2050: 23 53 F8 FF FF 7F F8 FF  FF 7F 74 6C 6B 30 66 01  #S........tlk0f.
2060: 80 F8 FF FF 7F F8 FF FF  7F 74 6C 6B 31 53 F8 FF  .........tlk1S..
2070: FF 7F F8 FF FF 7F 74 6C  6B 31 01 57 03 01 A3 20  ......tlk1.W... 
2080: 02 00 10 3E 80 00 93 20  03 12 00 23 80 01 20 03  ...>... ...#.. .
2090: 01 A3 20 02 00 10 3F 80  00 A3 20 03 01 10 23 80  .. ...?... ...#.
20A0: 01 A3 20 01 09 21 02 00  10 00 80 00 F9 20 03 11  .. ..!....... ..
20B0: 00 00 10 03 02 10 15 80  03 03 10 16 80 66 01 80  .............f..
20C0: F8 FF FF 7F F8 FF FF 7F  74 6C 6B 30 1D B0 80 23  ........tlk0...#
20D0: 1D 13 80 23 1D 14 80 23  1D 17 80 23 1D 18 80 23  ...#...#...#...#
20E0: 1D 19 80 23 66 01 80 F8  FF FF 7F F8 FF FF 7F 74  ...#f..........t
20F0: 6C 6B 31 01 20 03 01 09  21 02 00 10 32 80 00 09  lk1. ...!...2...
2100: 21 03 01 10 23 80 01 09  21 2E 21 00              !...#...!.!.    
```

#### Opcodes

```
  0: 0x02A3 [0x03] ExtData[1]->WorkLocal[0] = Work_Zone[2]
  1: 0x02A8 [0x03] ExtData[1]->WorkLocal[31] = Work_Zone[3]
  2: 0x02AD [0x03] ExtData[1]->WorkLocal[32] = Work_Zone[4]
  3: 0x02B2 [0x03] ExtData[1]->WorkLocal[33] = Work_Zone[5]
  4: 0x02B7 [0x41] ExtData[1]->WorkLocal[14] = Work_Zone[6] (bits 0*-7*)
  5: 0x02C0 [0x41] ExtData[1]->WorkLocal[15] = Work_Zone[6] (bits 8*-15*)
  6: 0x02C9 [0x03] ExtData[1]->WorkLocal[34] = Work_Zone[7]
  7: 0x02CE [0x03] ExtData[1]->WorkLocal[17] = 0*
  8: 0x02D3 [0x03] ExtData[1]->WorkLocal[18] = 0*
  9: 0x02D8 [0x03] ExtData[1]->WorkLocal[19] = 0*
 10: 0x02DD [0x03] ExtData[1]->WorkLocal[20] = 0*
 11: 0x02E2 [0x03] ExtData[1]->WorkLocal[21] = 0*
 12: 0x02E7 [0x03] ExtData[1]->WorkLocal[22] = 0*
 13: 0x02EC [0x03] ExtData[1]->WorkLocal[23] = 0*
 14: 0x02F1 [0x03] ExtData[1]->WorkLocal[36] = 0*
