# 17797133 - Blandine

## Common Data

| Field            | Value            |
|------------------|------------------|
| Zone             | Mhaura (ID: 249) |
| Block Size       | 468 bytes        |
| Total Events     | 9                |
| References Count | 17               |

## List of Events

| Event ID                 | Entrypoint   |   Size |   Instructions |
|--------------------------|--------------|--------|----------------|
| [65535](#event-65535)    | 0x0000       |      1 |              1 |
| [127](#event-127)        | 0x0001       |      1 |              1 |
| [65535.1](#event-655351) | 0x0002       |     67 |             12 |
| [65535.2](#event-655352) | 0x0045       |     54 |              8 |
| [65535.3](#event-655353) | 0x007B       |     67 |              9 |
| [65535.4](#event-655354) | 0x00BE       |     74 |             10 |
| [65535.5](#event-655355) | 0x0108       |     20 |              4 |
| [65535.6](#event-655356) | 0x011C       |     50 |              8 |
| [65535.7](#event-655357) | 0x014E       |     11 |              3 |

## DAT References (imed_data)

|   Index | Hex Value   |   Dec Value |
|---------|-------------|-------------|
|       0 | 0x0095      |         149 |
|       1 | 0x0000      |           0 |
|       2 | 0x000D      |          13 |
|       3 | 0xFFFF8304  |  4294935300 |
|       4 | 0x10902     |       67842 |
|       5 | 0xFFFFC180  |  4294951296 |
|       6 | 0x0046      |          70 |
|       7 | 0x1B54      |        6996 |
|       8 | 0xFFFF6C30  |  4294929456 |
|       9 | 0x10FB3     |       69555 |
|      10 | 0x1B56      |        6998 |
|      11 | 0x1B57      |        6999 |
|      12 | 0x1B59      |        7001 |
|      13 | 0x1B5A      |        7002 |
|      14 | 0x1B60      |        7008 |
|      15 | 0x1B62      |        7010 |
|      16 | 0x1B63      |        7011 |

## String References

- **6996**: Celestina, the sea's very... Oh, we have a guest...?
- **6998**: Th-that $1! Where did you...?
- **6999**: From a pirate...!? Then he's really...
- **7001**: I knew...I knew there was no hope. I knew he wasn't coming back, but I couldn't...
- **7002**: Waiting isn't hard...compared to the pain that comes when you stop hoping. I didn't want to see it! I wanted to wait for him, forever!
- **7008**: Celestina...
- **7010**: Yes... You're right. The pirates must have attacked his ship...
- **7011**: But he must've escaped. He's always been lucky. I'm sure he's trying to find a way to come back as we speak!

## Events

### Event 65535

#### Metadata

| Field        | Value   |
|--------------|---------|
| Entrypoint   | 0x0000  |
| Data Size    | 1 bytes |
| Instructions | 1       |

```
      00 01 02 03 04 05 06 07  08 09 0A 0B 0C 0D 0E 0F
      -- -- -- -- -- -- -- --  -- -- -- -- -- -- -- --
0000: 00                                                .               
```

#### Opcodes

```
  0: 0x0000 [0x00] END_REQSTACK()
```

### Event 127

#### Metadata

| Field        | Value   |
|--------------|---------|
| Entrypoint   | 0x0001  |
| Data Size    | 1 bytes |
| Instructions | 1       |

```
      00 01 02 03 04 05 06 07  08 09 0A 0B 0C 0D 0E 0F
      -- -- -- -- -- -- -- --  -- -- -- -- -- -- -- --
0000:    00                                              .              
```

#### Opcodes

```
  0: 0x0001 [0x00] END_REQSTACK()
```

### Event 65535.1

#### Metadata

| Field        | Value    |
|--------------|----------|
| Entrypoint   | 0x0002   |
| Data Size    | 67 bytes |
| Instructions | 12       |

```
      00 01 02 03 04 05 06 07  08 09 0A 0B 0C 0D 0E 0F
      -- -- -- -- -- -- -- --  -- -- -- -- -- -- -- --
0000:       22 00 45 00 80 F0  FF FF 7F F0 FF FF 7F 73    ".E..........s
0010: 65 30 34 01 80 27 80 30  90 0F 01 02 32 02 80 1F  e04..'.0....2...
0020: 00 03 80 04 80 05 80 1F  01 6F 27 80 30 90 0F 01  .........o'.0...
0030: 03 5B 06 80 0D 90 0F 01  0D 90 0F 01 74 6C 6B 30  .[..........tlk0
0040: 1D 07 80 23 00                                    ...#.           
```

#### Opcodes

```
  0: 0x0002 [0x22] ENTITY_HIDE_FLAG(enabled=0x00)
  1: 0x0004 [0x45] LOAD_SCHEDULED_TASK: Load scheduler "se04" with entities [LocalPlayer, LocalPlayer], work=[149*, 0*]
  2: 0x0015 [0x27] REQ_SET(priority=0x80, entity_id=Door:Goldsmiths' Guild (ID: 17797168/0x010F9030), tag_num=0x02)
  3: 0x001C [0x32] ExtData[1]->MainSpeed = 13* * 0.1
  4: 0x001F [0x1F] MOVE_ENTITY: EventEntity moves to X=-31.996*, Z=67.842*, Y=-16.000*
  5: 0x0027 [0x1F] MOVE_ENTITY: Update entity position (mode=1)
  6: 0x0029 [0x6F] WAIT_FRAME_DELAY: Yield until WaitTime reaches zero
  7: 0x002A [0x27] REQ_SET(priority=0x80, entity_id=Door:Goldsmiths' Guild (ID: 17797168/0x010F9030), tag_num=0x03)
  8: 0x0031 [0x5B] LOAD_EXT_SCHEDULER: Load scheduler "tlk0" with entities [Blandine (ID: 17797133/0x010F900D), Blandine (ID: 17797133/0x010F900D)], work=70*
  9: 0x0040 [0x1D] PRINT_EVENT_MESSAGE(message_id=6996*)
    → "Celestina, the sea's very... Oh, we have a guest...?"
 10: 0x0043 [0x23] WAIT_FOR_DIALOG_INTERACTION
 11: 0x0044 [0x00] END_REQSTACK()
```

### Event 65535.2

#### Metadata

| Field        | Value    |
|--------------|----------|
| Entrypoint   | 0x0045   |
| Data Size    | 54 bytes |
| Instructions | 8        |

```
      00 01 02 03 04 05 06 07  08 09 0A 0B 0C 0D 0E 0F
      -- -- -- -- -- -- -- --  -- -- -- -- -- -- -- --
0040:                32 02 80  1F 00 08 80 09 80 05 80       2..........
0050: 1F 01 45 00 80 F0 FF FF  7F F0 FF FF 7F 73 65 30  ..E..........se0
0060: 38 01 80 4A F0 FF FF 7F  F8 FF FF 7F 4A 0C 90 0F  8..J........J...
0070: 01 F8 FF FF 7F 1E 0C 90  0F 01 00                 ...........     
```

#### Opcodes

```
  0: 0x0045 [0x32] ExtData[1]->MainSpeed = 13* * 0.1
  1: 0x0048 [0x1F] MOVE_ENTITY: EventEntity moves to X=-37.840*, Z=69.555*, Y=-16.000*
  2: 0x0050 [0x1F] MOVE_ENTITY: Update entity position (mode=1)
  3: 0x0052 [0x45] LOAD_SCHEDULED_TASK: Load scheduler "se08" with entities [LocalPlayer, LocalPlayer], work=[149*, 0*]
  4: 0x0063 [0x4A] LocalPlayer looks at EventEntity
  5: 0x006C [0x4A] Celestina (ID: 17797132/0x010F900C) looks at EventEntity
  6: 0x0075 [0x1E] EventEntity looks at Celestina (ID: 17797132/0x010F900C) and starts talking
  7: 0x007A [0x00] END_REQSTACK()
```

### Event 65535.3

#### Metadata

| Field        | Value    |
|--------------|----------|
| Entrypoint   | 0x007B   |
| Data Size    | 67 bytes |
| Instructions | 9        |

```
      00 01 02 03 04 05 06 07  08 09 0A 0B 0C 0D 0E 0F
      -- -- -- -- -- -- -- --  -- -- -- -- -- -- -- --
0070:                                   5B 06 80 F8 FF             [....
0080: FF 7F F8 FF FF 7F 74 6C  62 30 1D 0A 80 23 1D 0B  ......tlb0...#..
0090: 80 23 53 F8 FF FF 7F F8  FF FF 7F 74 6C 62 30 55  .#S........tlb0U
00A0: 00 80 F0 FF FF 7F F0 FF  FF 7F 73 65 30 38 5B 06  ..........se08[.
00B0: 80 F8 FF FF 7F F8 FF FF  7F 6F 74 69 30 00        .........oti0.  
```

#### Opcodes

```
  0: 0x007B [0x5B] LOAD_EXT_SCHEDULER: Load scheduler "tlb0" with entities [EventEntity, EventEntity], work=70*
  1: 0x008A [0x1D] PRINT_EVENT_MESSAGE(message_id=6998*)
    → "Th-that $1! Where did you...?"
  2: 0x008D [0x23] WAIT_FOR_DIALOG_INTERACTION
  3: 0x008E [0x1D] PRINT_EVENT_MESSAGE(message_id=6999*)
    → "From a pirate...!? Then he's really..."
  4: 0x0091 [0x23] WAIT_FOR_DIALOG_INTERACTION
  5: 0x0092 [0x53] WAIT_SCHEDULER_TASK: Wait for scheduler "tlb0" with entities [EventEntity, EventEntity]
  6: 0x009F [0x55] WAIT_LOAD_SCHEDULER: Wait for scheduler "se08" with entities [LocalPlayer, LocalPlayer], work=149*
  7: 0x00AE [0x5B] LOAD_EXT_SCHEDULER: Load scheduler "oti0" with entities [EventEntity, EventEntity], work=70*
  8: 0x00BD [0x00] END_REQSTACK()
```

### Event 65535.4

#### Metadata

| Field        | Value    |
|--------------|----------|
| Entrypoint   | 0x00BE   |
| Data Size    | 74 bytes |
| Instructions | 10       |

```
      00 01 02 03 04 05 06 07  08 09 0A 0B 0C 0D 0E 0F
      -- -- -- -- -- -- -- --  -- -- -- -- -- -- -- --
00B0:                                            45 00                E.
00C0: 80 F0 FF FF 7F F0 FF FF  7F 73 65 31 30 01 80 55  .........se10..U
00D0: 00 80 F0 FF FF 7F F0 FF  FF 7F 73 65 31 30 5E 6F  ..........se10^o
00E0: 74 69 30 5B 06 80 F8 FF  FF 7F F8 FF FF 7F 74 6C  ti0[..........tl
00F0: 61 30 1D 0C 80 23 1D 0D  80 23 53 F8 FF FF 7F F8  a0...#...#S.....
0100: FF FF 7F 74 6C 61 30 00                           ...tla0.        
```

#### Opcodes

```
  0: 0x00BE [0x45] LOAD_SCHEDULED_TASK: Load scheduler "se10" with entities [LocalPlayer, LocalPlayer], work=[149*, 0*]
  1: 0x00CF [0x55] WAIT_LOAD_SCHEDULER: Wait for scheduler "se10" with entities [LocalPlayer, LocalPlayer], work=149*
  2: 0x00DE [0x5E] EventEntity goes idle (kills current action) (animation: "oti0")
  3: 0x00E3 [0x5B] LOAD_EXT_SCHEDULER: Load scheduler "tla0" with entities [EventEntity, EventEntity], work=70*
  4: 0x00F2 [0x1D] PRINT_EVENT_MESSAGE(message_id=7001*)
    → "I knew...I knew there was no hope. I knew he wasn't coming back, but I couldn't..."
  5: 0x00F5 [0x23] WAIT_FOR_DIALOG_INTERACTION
  6: 0x00F6 [0x1D] PRINT_EVENT_MESSAGE(message_id=7002*)
    → "Waiting isn't hard...compared to the pain that comes when you stop hoping. I didn't want to see it! I wanted to wait for him, forever!"
  7: 0x00F9 [0x23] WAIT_FOR_DIALOG_INTERACTION
  8: 0x00FA [0x53] WAIT_SCHEDULER_TASK: Wait for scheduler "tla0" with entities [EventEntity, EventEntity]
  9: 0x0107 [0x00] END_REQSTACK()
```

### Event 65535.5

#### Metadata

| Field        | Value    |
|--------------|----------|
| Entrypoint   | 0x0108   |
| Data Size    | 20 bytes |
| Instructions | 4        |

```
      00 01 02 03 04 05 06 07  08 09 0A 0B 0C 0D 0E 0F
      -- -- -- -- -- -- -- --  -- -- -- -- -- -- -- --
0100:                          5B 06 80 F8 FF FF 7F F8          [.......
0110: FF FF 7F 74 6C 63 30 1D  0E 80 23 00              ...tlc0...#.    
```

#### Opcodes

```
  0: 0x0108 [0x5B] LOAD_EXT_SCHEDULER: Load scheduler "tlc0" with entities [EventEntity, EventEntity], work=70*
  1: 0x0117 [0x1D] PRINT_EVENT_MESSAGE(message_id=7008*)
    → "Celestina..."
  2: 0x011A [0x23] WAIT_FOR_DIALOG_INTERACTION
  3: 0x011B [0x00] END_REQSTACK()
```

### Event 65535.6

#### Metadata

| Field        | Value    |
|--------------|----------|
| Entrypoint   | 0x011C   |
| Data Size    | 50 bytes |
| Instructions | 8        |

```
      00 01 02 03 04 05 06 07  08 09 0A 0B 0C 0D 0E 0F
      -- -- -- -- -- -- -- --  -- -- -- -- -- -- -- --
0110:                                      1D 0F 80 23              ...#
0120: 1D 10 80 23 53 F8 FF FF  7F F8 FF FF 7F 74 6C 63  ...#S........tlc
0130: 30 5B 06 80 F8 FF FF 7F  F8 FF FF 7F 74 6C 63 31  0[..........tlc1
0140: 53 F8 FF FF 7F F8 FF FF  7F 74 6C 63 31 00        S........tlc1.  
```

#### Opcodes

```
  0: 0x011C [0x1D] PRINT_EVENT_MESSAGE(message_id=7010*)
    → "Yes... You're right. The pirates must have attacked his ship..."
  1: 0x011F [0x23] WAIT_FOR_DIALOG_INTERACTION
  2: 0x0120 [0x1D] PRINT_EVENT_MESSAGE(message_id=7011*)
    → "But he must've escaped. He's always been lucky. I'm sure he's trying to find a way to come back as we speak!"
  3: 0x0123 [0x23] WAIT_FOR_DIALOG_INTERACTION
  4: 0x0124 [0x53] WAIT_SCHEDULER_TASK: Wait for scheduler "tlc0" with entities [EventEntity, EventEntity]
  5: 0x0131 [0x5B] LOAD_EXT_SCHEDULER: Load scheduler "tlc1" with entities [EventEntity, EventEntity], work=70*
  6: 0x0140 [0x53] WAIT_SCHEDULER_TASK: Wait for scheduler "tlc1" with entities [EventEntity, EventEntity]
  7: 0x014D [0x00] END_REQSTACK()
```

### Event 65535.7

#### Metadata

| Field        | Value    |
|--------------|----------|
| Entrypoint   | 0x014E   |
| Data Size    | 11 bytes |
| Instructions | 3        |

```
      00 01 02 03 04 05 06 07  08 09 0A 0B 0C 0D 0E 0F
      -- -- -- -- -- -- -- --  -- -- -- -- -- -- -- --
0140:                                            1E F0                ..
0150: FF FF 7F 5E 69 64 6C 30  00                       ...^idl0.       
```

#### Opcodes

```
  0: 0x014E [0x1E] EventEntity looks at LocalPlayer and starts talking
  1: 0x0153 [0x5E] EventEntity goes idle (kills current action) (animation: "idl0")
  2: 0x0158 [0x00] END_REQSTACK()
```
