# 17797137 - Numi Adaligo

## Common Data

| Field            | Value            |
|------------------|------------------|
| Zone             | Mhaura (ID: 249) |
| Block Size       | 1780 bytes       |
| Total Events     | 5                |
| References Count | 63               |

## List of Events

| Event ID                 | Entrypoint   |   Size |   Instructions |
|--------------------------|--------------|--------|----------------|
| [65535](#event-65535)    | 0x0000       |      1 |              1 |
| [50](#event-50)          | 0x0001       |    256 |             62 |
| [369](#event-369)        | 0x0101       |   1162 |            134 |
| [373](#event-373)        | 0x058B       |     71 |             11 |
| [65535.1](#event-655351) | 0x05D2       |      1 |              1 |

## DAT References (imed_data)

|   Index | Hex Value   |   Dec Value |
|---------|-------------|-------------|
|       0 | 0x0001      |           1 |
|       1 | 0x0000      |           0 |
|       2 | 0x0032      |          50 |
|       3 | 0x1ACA      |        6858 |
|       4 | 0x1F69      |        8041 |
|       5 | 0x1ACC      |        6860 |
|       6 | 0x1ACD      |        6861 |
|       7 | 0x1ACE      |        6862 |
|       8 | 0x1ACF      |        6863 |
|       9 | 0x1AD0      |        6864 |
|      10 | 0x0002      |           2 |
|      11 | 0x1AD1      |        6865 |
|      12 | 0x1AD2      |        6866 |
|      13 | 0x1AD3      |        6867 |
|      14 | 0x1AD4      |        6868 |
|      15 | 0x1AD5      |        6869 |
|      16 | 0x1AD6      |        6870 |
|      17 | 0x0003      |           3 |
|      18 | 0x1AD8      |        6872 |
|      19 | 0x1AD7      |        6871 |
|      20 | 0x1AD9      |        6873 |
|      21 | 0x00C8      |         200 |
|      22 | 0x001B      |          27 |
|      23 | 0x01E7      |         487 |
|      24 | 0x0005      |           5 |
|      25 | 0xFFFECF69  |  4294889321 |
|      26 | 0x88F8      |       35064 |
|      27 | 0xFFFFA10A  |  4294942986 |
|      28 | 0x082B      |        2091 |
|      29 | 0x0006      |           6 |
|      30 | 0xFFFED0C3  |  4294889667 |
|      31 | 0x822F      |       33327 |
|      32 | 0xFFFFA234  |  4294943284 |
|      33 | 0x092D      |        2349 |
|      34 | 0xFFFED129  |  4294889769 |
|      35 | 0x7191      |       29073 |
|      36 | 0xFFFFA241  |  4294943297 |
|      37 | 0x0BEF      |        3055 |
|      38 | 0x001E      |          30 |
|      39 | 0x02F8      |         760 |
|      40 | 0x000F      |          15 |
|      41 | 0x1F6A      |        8042 |
|      42 | 0x0007      |           7 |
|      43 | 0x005A      |          90 |
|      44 | 0x1F6B      |        8043 |
|      45 | 0x0014      |          20 |
|      46 | 0x1F6C      |        8044 |
|      47 | 0x0028      |          40 |
|      48 | 0x1F6D      |        8045 |
|      49 | 0x1F6E      |        8046 |
|      50 | 0x003C      |          60 |
|      51 | 0x0031      |          49 |
|      52 | 0x1F6F      |        8047 |
|      53 | 0x1F70      |        8048 |
|      54 | 0x237B      |        9083 |
|      55 | 0x1F71      |        8049 |
|      56 | 0x1F72      |        8050 |
|      57 | 0x1F73      |        8051 |
|      58 | 0x1F74      |        8052 |
|      59 | 0x1F75      |        8053 |
|      60 | 0x1F76      |        8054 |
|      61 | 0x1F77      |        8055 |
|      62 | 0x1F78      |        8056 |

## String References

- **6858**: Welcome to the governor's house. How may I be of assistance?
- **6860**: As you wish. Mhaura is a port town situated within the boundaries of the Windurstian Federation.
- **6861**: The natural basin here was ideal for building a port. In time, people started building their homes in the surrounding cliffs. Thus Mhaura came to be.
- **6862**: Geographically, Mhaura is situated in the southern half of the Buburimu Peninsula in Southeastern Mindartia. Windurst City is southwest of here.
- **6863**: From the port, you can board one of the transit ships to Selbina, a town in Central Quon.
- **6864**: Lately, there are even ships traveling to a city called Al Zahbi in the Near Eastern Empire of Aht Urhgan.
- **6865**: As you wish. The Blacksmiths' Guild and Goldsmiths' Guild have their salesrooms on the level below us.
- **6866**: Across from them spans a bridge leading to a two-story inn called the Sailors' Stay. The reception desk is on the first floor. The armorer, Graine, is also there.
- **6867**: Across the Sailors' Stay, on ground level, is the sea travel agency. Ships bound for Selbina and Al Zahbi dock there.
- **6868**: To the west of the agency you'll find an antique shop. I should tell you that the owner, Orlando, has some very peculiar tastes...
- **6869**: Further west, down a flight of stairs, is the warehouse.
- **6870**: Pikini-Mikini, a dealer in goods, and Tya Padolih, a seller of arcane scrolls, have set up shop there.
- **6871**: Jobs in Mhaura? Hmm... I believe Lady Take at the Sailors' Stay is the person to talk to about such matters.
- **6872**: Have you gone to see Take at the Sailors' Stay yet? She may have something for you.
- **6873**: As you wish. Please come by anytime if there is something you wish to ask about Mhaura.
- **8041**: What do you wish to know? [You're searching for adventurers?/Tell me about Mhaura./Any shops or guilds in town?/Where can I find some work?/Nothing for now.]

## Events

### Event 65535

#### Metadata

| Field        | Value   |
|--------------|---------|
| Entrypoint   | 0x0000  |
| Data Size    | 1 bytes |
| Instructions | 1       |

```
      00 01 02 03 04 05 06 07  08 09 0A 0B 0C 0D 0E 0F
      -- -- -- -- -- -- -- --  -- -- -- -- -- -- -- --
0000: 00                                                .               
```

#### Opcodes

```
  0: 0x0000 [0x00] END_REQSTACK()
```

### Event 50

#### Metadata

| Field        | Value     |
|--------------|-----------|
| Entrypoint   | 0x0001    |
| Data Size    | 256 bytes |
| Instructions | 62        |

```
      00 01 02 03 04 05 06 07  08 09 0A 0B 0C 0D 0E 0F
      -- -- -- -- -- -- -- --  -- -- -- -- -- -- -- --
0000:    02 09 10 00 80 00 11  00 03 01 00 01 80 01 16   ...............
0010: 00 03 01 00 00 80 03 00  00 02 10 1E F0 FF FF 7F  ................
0020: 6F 70 66 02 80 F8 FF FF  7F F8 FF FF 7F 74 6C 6B  opf..........tlk
0030: 30 1D 03 80 23 5E 69 64  6C 30 24 04 80 01 80 01  0...#^idl0$.....
0040: 00 25 02 00 10 01 80 00  50 00 1A 06 01 01 FF 00  .%......P.......
0050: 02 00 10 00 80 00 83 00  66 02 80 F8 FF FF 7F F8  ........f.......
0060: FF FF 7F 74 6C 6B 30 1D  05 80 23 1D 06 80 23 1D  ...tlk0...#...#.
0070: 07 80 23 1D 08 80 23 1D  09 80 23 5E 69 64 6C 30  ..#...#...#^idl0
0080: 01 FF 00 02 00 10 0A 80  00 BA 00 66 02 80 F8 FF  ...........f....
0090: FF 7F F8 FF FF 7F 74 6C  6B 30 1D 0B 80 23 1D 0C  ......tlk0...#..
00A0: 80 23 1D 0D 80 23 1D 0E  80 23 1D 0F 80 23 1D 10  .#...#...#...#..
00B0: 80 23 5E 69 64 6C 30 01  FF 00 02 00 10 11 80 00  .#^idl0.........
00C0: EC 00 66 02 80 F8 FF FF  7F F8 FF FF 7F 74 6C 6B  ..f..........tlk
00D0: 30 02 00 00 02 80 00 E0  00 1D 12 80 23 01 E9 00  0...........#...
00E0: 1D 13 80 23 03 01 10 0A  80 01 FF 00 66 02 80 F8  ...#........f...
00F0: FF FF 7F F8 FF FF 7F 74  6C 6B 30 1D 14 80 23 21  .......tlk0...#!
0100: 00                                                .               
```

#### Opcodes

```
  0: 0x0001 [0x02] IF !(Work_Zone[9] == 1*) GOTO 0x0011
  1: 0x0009 [0x03] ExtData[1]->WorkLocal[1] = 0*
  2: 0x000E [0x01] GOTO 0x0016
  3: 0x0011 [0x03] ExtData[1]->WorkLocal[1] = 1*

SUBROUTINE_0016:
  4: 0x0016 [0x03] ExtData[1]->WorkLocal[0] = Work_Zone[2]
  5: 0x001B [0x1E] EventEntity looks at LocalPlayer and starts talking
  6: 0x0020 [0x6F] WAIT_FRAME_DELAY: Yield until WaitTime reaches zero
  7: 0x0021 [0x70] WAIT_ENTITY_RENDER_FLAG: Wait while EventEntity->Render.Flags3 bit 2 is set (cancel turn if not)
  8: 0x0022 [0x66] LOAD_EXT_SCHEDULER_MAIN: Load scheduler "tlk0" with entities [EventEntity, EventEntity], work=50*
  9: 0x0031 [0x1D] PRINT_EVENT_MESSAGE(message_id=6858*)
    → "Welcome to the governor's house. How may I be of assistance?"
 10: 0x0034 [0x23] WAIT_FOR_DIALOG_INTERACTION
 11: 0x0035 [0x5E] EventEntity goes idle (kills current action) (animation: "idl0")
 12: 0x003A [0x24] CREATE_DIALOG(message_id=8041*, default_option=0*, option_flags=ExtData[1]->WorkLocal[1])
    → "What do you wish to know? [You're searching for adventurers?/Tell me about Mhaura./Any shops or guilds in town?/Where can I find some work?/Nothing for now.]"
 13: 0x0041 [0x25] WAIT_DIALOG_SELECT()
 14: 0x0042 [0x02] IF !(Work_Zone[0] == 0*) GOTO 0x0050
 15: 0x004A [0x1A] CALL_SUBROUTINE(address=0x0106)
 16: 0x004D [0x01] GOTO 0x00FF
 17: 0x0050 [0x02] IF !(Work_Zone[0] == 1*) GOTO 0x0083
 18: 0x0058 [0x66] LOAD_EXT_SCHEDULER_MAIN: Load scheduler "tlk0" with entities [EventEntity, EventEntity], work=50*
 19: 0x0067 [0x1D] PRINT_EVENT_MESSAGE(message_id=6860*)
    → "As you wish. Mhaura is a port town situated within the boundaries of the Windurstian Federation."
 20: 0x006A [0x23] WAIT_FOR_DIALOG_INTERACTION
 21: 0x006B [0x1D] PRINT_EVENT_MESSAGE(message_id=6861*)
    → "The natural basin here was ideal for building a port. In time, people started building their homes in the surrounding cliffs. Thus Mhaura came to be."
 22: 0x006E [0x23] WAIT_FOR_DIALOG_INTERACTION
 23: 0x006F [0x1D] PRINT_EVENT_MESSAGE(message_id=6862*)
    → "Geographically, Mhaura is situated in the southern half of the Buburimu Peninsula in Southeastern Mindartia. Windurst City is southwest of here."
 24: 0x0072 [0x23] WAIT_FOR_DIALOG_INTERACTION
 25: 0x0073 [0x1D] PRINT_EVENT_MESSAGE(message_id=6863*)
    → "From the port, you can board one of the transit ships to Selbina, a town in Central Quon."
 26: 0x0076 [0x23] WAIT_FOR_DIALOG_INTERACTION
 27: 0x0077 [0x1D] PRINT_EVENT_MESSAGE(message_id=6864*)
    → "Lately, there are even ships traveling to a city called Al Zahbi in the Near Eastern Empire of Aht Urhgan."
 28: 0x007A [0x23] WAIT_FOR_DIALOG_INTERACTION
 29: 0x007B [0x5E] EventEntity goes idle (kills current action) (animation: "idl0")
 30: 0x0080 [0x01] GOTO 0x00FF
 31: 0x0083 [0x02] IF !(Work_Zone[0] == 2*) GOTO 0x00BA
 32: 0x008B [0x66] LOAD_EXT_SCHEDULER_MAIN: Load scheduler "tlk0" with entities [EventEntity, EventEntity], work=50*
 33: 0x009A [0x1D] PRINT_EVENT_MESSAGE(message_id=6865*)
    → "As you wish. The Blacksmiths' Guild and Goldsmiths' Guild have their salesrooms on the level below us."
 34: 0x009D [0x23] WAIT_FOR_DIALOG_INTERACTION
 35: 0x009E [0x1D] PRINT_EVENT_MESSAGE(message_id=6866*)
    → "Across from them spans a bridge leading to a two-story inn called the Sailors' Stay. The reception desk is on the first floor. The armorer, Graine, is also there."
 36: 0x00A1 [0x23] WAIT_FOR_DIALOG_INTERACTION
 37: 0x00A2 [0x1D] PRINT_EVENT_MESSAGE(message_id=6867*)
    → "Across the Sailors' Stay, on ground level, is the sea travel agency. Ships bound for Selbina and Al Zahbi dock there."
 38: 0x00A5 [0x23] WAIT_FOR_DIALOG_INTERACTION
 39: 0x00A6 [0x1D] PRINT_EVENT_MESSAGE(message_id=6868*)
    → "To the west of the agency you'll find an antique shop. I should tell you that the owner, Orlando, has some very peculiar tastes..."
 40: 0x00A9 [0x23] WAIT_FOR_DIALOG_INTERACTION
 41: 0x00AA [0x1D] PRINT_EVENT_MESSAGE(message_id=6869*)
    → "Further west, down a flight of stairs, is the warehouse."
 42: 0x00AD [0x23] WAIT_FOR_DIALOG_INTERACTION
 43: 0x00AE [0x1D] PRINT_EVENT_MESSAGE(message_id=6870*)
    → "Pikini-Mikini, a dealer in goods, and Tya Padolih, a seller of arcane scrolls, have set up shop there."
 44: 0x00B1 [0x23] WAIT_FOR_DIALOG_INTERACTION
 45: 0x00B2 [0x5E] EventEntity goes idle (kills current action) (animation: "idl0")
 46: 0x00B7 [0x01] GOTO 0x00FF
 47: 0x00BA [0x02] IF !(Work_Zone[0] == 3*) GOTO 0x00EC
 48: 0x00C2 [0x66] LOAD_EXT_SCHEDULER_MAIN: Load scheduler "tlk0" with entities [EventEntity, EventEntity], work=50*
 49: 0x00D1 [0x02] IF !(ExtData[1]->WorkLocal[0] == 50*) GOTO 0x00E0
 50: 0x00D9 [0x1D] PRINT_EVENT_MESSAGE(message_id=6872*)
    → "Have you gone to see Take at the Sailors' Stay yet? She may have something for you."
 51: 0x00DC [0x23] WAIT_FOR_DIALOG_INTERACTION
 52: 0x00DD [0x01] GOTO 0x00E9
 53: 0x00E0 [0x1D] PRINT_EVENT_MESSAGE(message_id=6871*)
    → "Jobs in Mhaura? Hmm... I believe Lady Take at the Sailors' Stay is the person to talk to about such matters."
 54: 0x00E3 [0x23] WAIT_FOR_DIALOG_INTERACTION
 55: 0x00E4 [0x03] Work_Zone[1] = 2*

SUBROUTINE_00E9:
 56: 0x00E9 [0x01] GOTO 0x00FF
 57: 0x00EC [0x66] LOAD_EXT_SCHEDULER_MAIN: Load scheduler "tlk0" with entities [EventEntity, EventEntity], work=50*
 58: 0x00FB [0x1D] PRINT_EVENT_MESSAGE(message_id=6873*)
    → "As you wish. Please come by anytime if there is something you wish to ask about Mhaura."
 59: 0x00FE [0x23] WAIT_FOR_DIALOG_INTERACTION

SUBROUTINE_00FF:
 60: 0x00FF [0x21] END_EVENT
 61: 0x0100 [0x00] END_REQSTACK()
```

### Event 369

#### Metadata

| Field        | Value      |
|--------------|------------|
| Entrypoint   | 0x0101     |
| Data Size    | 1162 bytes |
| Instructions | 134        |

```
      00 01 02 03 04 05 06 07  08 09 0A 0B 0C 0D 0E 0F
      -- -- -- -- -- -- -- --  -- -- -- -- -- -- -- --
0100:    1A 06 01 21 00 42 45  15 80 F8 FF FF 7F F8 FF   ...!.BE........
0110: FF 7F 66 64 6F 31 01 80  55 15 80 F8 FF FF 7F F8  ..fdo1..U.......
0120: FF FF 7F 66 64 6F 31 46  01 38 16 80 75 00 17 80  ...fdo1F.8..u...
0130: 75 01 92 01 11 90 0F 01  92 01 10 90 0F 01 94 01  u...............
0140: 11 90 0F 01 94 01 F0 FF  FF 7F 94 01 10 90 0F 01  ................
0150: 02 87 7F 18 80 80 68 01  BA F0 FF FF 7F 19 80 1A  ......h.........
0160: 80 1B 80 1C 80 01 8D 01  02 87 7F 1D 80 80 80 01  ................
0170: BA F0 FF FF 7F 19 80 1A  80 1B 80 1C 80 01 8D 01  ................
0180: BA F0 FF FF 7F 1E 80 1F  80 20 80 21 80 BA 10 90  ......... .!....
0190: 0F 01 22 80 23 80 24 80  25 80 80 10 90 0F 01 80  ..".#.$.%.......
01A0: F0 FF FF 7F 80 11 90 0F  01 4A F0 FF FF 7F 11 90  .........J......
01B0: 0F 01 4A 11 90 0F 01 F0  FF FF 7F 1C 26 80 02 87  ..J.........&...
01C0: 7F 18 80 80 DA 01 45 27  80 F8 FF FF 7F F8 FF FF  ......E'........
01D0: 7F 73 30 30 36 01 80 01  07 02 02 87 7F 1D 80 80  .s006...........
01E0: F6 01 45 27 80 F8 FF FF  7F F8 FF FF 7F 73 30 30  ..E'.........s00
01F0: 36 01 80 01 07 02 45 27  80 F8 FF FF 7F F8 FF FF  6.....E'........
0200: 7F 73 30 30 34 01 80 1C  28 80 45 15 80 F8 FF FF  .s004...(.E.....
0210: 7F F8 FF FF 7F 66 64 69  31 01 80 66 02 80 11 90  .....fdi1..f....
0220: 0F 01 11 90 0F 01 74 6C  6B 30 2B 11 90 0F 01 29  ......tlk0+....)
0230: 80 23 66 02 80 11 90 0F  01 11 90 0F 01 74 6C 6B  .#f..........tlk
0240: 32 6E F0 FF FF 7F 2A 80  99 F0 FF FF 7F 1C 2B 80  2n....*.......+.
0250: 52 27 80 F8 FF FF 7F F8  FF FF 7F 73 30 30 34 52  R'.........s004R
0260: 27 80 F8 FF FF 7F F8 FF  FF 7F 73 30 30 36 02 87  '.........s006..
0270: 7F 18 80 80 8A 02 45 27  80 F8 FF FF 7F F8 FF FF  ......E'........
0280: 7F 73 30 30 37 01 80 01  B7 02 02 87 7F 1D 80 80  .s007...........
0290: A6 02 45 27 80 F8 FF FF  7F F8 FF FF 7F 73 30 30  ..E'.........s00
02A0: 37 01 80 01 B7 02 45 27  80 F8 FF FF 7F F8 FF FF  7.....E'........
02B0: 7F 73 30 30 35 01 80 66  02 80 11 90 0F 01 11 90  .s005..f........
02C0: 0F 01 74 6C 6B 30 2B 11  90 0F 01 2C 80 23 66 02  ..tlk0+....,.#f.
02D0: 80 11 90 0F 01 11 90 0F  01 74 6C 6B 32 27 05 10  .........tlk2'..
02E0: 90 0F 01 04 1C 2D 80 52  27 80 F8 FF FF 7F F8 FF  .....-.R'.......
02F0: FF 7F 73 30 30 35 52 27  80 F8 FF FF 7F F8 FF FF  ..s005R'........
0300: 7F 73 30 30 37 45 27 80  F8 FF FF 7F F8 FF FF 7F  .s007E'.........
0310: 73 30 30 38 01 80 1C 2D  80 02 87 7F 18 80 80 31  s008...-.......1
0320: 03 BA F0 FF FF 7F 1E 80  1F 80 20 80 21 80 01 49  .......... .!..I
0330: 03 02 87 7F 1D 80 80 49  03 BA F0 FF FF 7F 1E 80  .......I........
0340: 1F 80 20 80 21 80 01 49  03 4A F0 FF FF 7F 10 90  .. .!..I.J......
0350: 0F 01 2B 10 90 0F 01 2E  80 23 2A 05 10 90 0F 01  ..+......#*.....
0360: 66 2F 80 10 90 0F 01 10  90 0F 01 74 6C 6B 30 2B  f/.........tlk0+
0370: 10 90 0F 01 30 80 23 52  27 80 F8 FF FF 7F F8 FF  ....0.#R'.......
0380: FF 7F 73 30 30 38 45 27  80 F8 FF FF 7F F8 FF FF  ..s008E'........
0390: 7F 73 30 30 39 01 80 2B  10 90 0F 01 31 80 23 66  .s009..+....1.#f
03A0: 2F 80 10 90 0F 01 10 90  0F 01 74 6C 6B 31 1C 32  /.........tlk1.2
03B0: 80 81 00 10 90 0F 01 66  33 80 10 90 0F 01 10 90  .......f3.......
03C0: 0F 01 74 68 6B 31 2B 10  90 0F 01 34 80 23 52 27  ..thk1+....4.#R'
03D0: 80 F8 FF FF 7F F8 FF FF  7F 73 30 30 39 45 27 80  .........s009E'.
03E0: F8 FF FF 7F F8 FF FF 7F  73 30 31 30 01 80 66 33  ........s010..f3
03F0: 80 10 90 0F 01 10 90 0F  01 74 68 6B 32 81 01 10  .........thk2...
0400: 90 0F 01 2B 10 90 0F 01  35 80 23 66 2F 80 10 90  ...+....5.#f/...
0410: 0F 01 10 90 0F 01 74 6C  6B 30 03 03 10 36 80 2B  ......tlk0...6.+
0420: 10 90 0F 01 37 80 23 2B  10 90 0F 01 38 80 23 66  ....7.#+....8.#f
0430: 2F 80 10 90 0F 01 10 90  0F 01 74 6C 6B 31 52 27  /.........tlk1R'
0440: 80 F8 FF FF 7F F8 FF FF  7F 73 30 31 30 45 27 80  .........s010E'.
0450: F8 FF FF 7F F8 FF FF 7F  73 30 31 31 01 80 66 02  ........s011..f.
0460: 80 11 90 0F 01 11 90 0F  01 74 6C 6B 30 2B 11 90  .........tlk0+..
0470: 0F 01 39 80 23 66 02 80  11 90 0F 01 11 90 0F 01  ..9.#f..........
0480: 74 6C 6B 32 52 27 80 F8  FF FF 7F F8 FF FF 7F 73  tlk2R'.........s
0490: 30 31 31 45 27 80 F8 FF  FF 7F F8 FF FF 7F 73 30  011E'.........s0
04A0: 31 32 01 80 66 2F 80 10  90 0F 01 10 90 0F 01 74  12..f/.........t
04B0: 6C 6B 30 03 03 10 36 80  2B 10 90 0F 01 3A 80 23  lk0...6.+....:.#
04C0: 2B 10 90 0F 01 3B 80 23  52 27 80 F8 FF FF 7F F8  +....;.#R'......
04D0: FF FF 7F 73 30 31 32 45  27 80 F8 FF FF 7F F8 FF  ...s012E'.......
04E0: FF 7F 73 30 31 33 01 80  03 03 10 36 80 2B 10 90  ..s013.....6.+..
04F0: 0F 01 3C 80 23 2B 10 90  0F 01 3D 80 23 66 2F 80  ..<.#+....=.#f/.
0500: 10 90 0F 01 10 90 0F 01  74 6C 6B 31 52 27 80 F8  ........tlk1R'..
0510: FF FF 7F F8 FF FF 7F 73  30 31 33 45 27 80 F8 FF  .......s013E'...
0520: FF 7F F8 FF FF 7F 73 30  31 34 01 80 66 02 80 11  ......s014..f...
0530: 90 0F 01 11 90 0F 01 74  6C 6B 30 2B 11 90 0F 01  .......tlk0+....
0540: 3E 80 23 45 15 80 F8 FF  FF 7F F8 FF FF 7F 66 64  >.#E..........fd
0550: 6F 31 01 80 55 15 80 F8  FF FF 7F F8 FF FF 7F 66  o1..U..........f
0560: 64 6F 31 52 27 80 F8 FF  FF 7F F8 FF FF 7F 73 30  do1R'.........s0
0570: 31 34 46 00 45 15 80 F8  FF FF 7F F8 FF FF 7F 66  14F.E..........f
0580: 64 69 32 01 80 03 01 10  00 80 1B                 di2........     
```

#### Opcodes

```
  0: 0x0101 [0x1A] CALL_SUBROUTINE(address=0x0106)
  1: 0x0104 [0x21] END_EVENT
  2: 0x0105 [0x00] END_REQSTACK()

SUBROUTINE_0106:
  3: 0x0106 [0x42] SET_CLI_EVENT_CANCEL_DATA()
  4: 0x0107 [0x45] LOAD_SCHEDULED_TASK: Load scheduler "fdo1" with entities [EventEntity, EventEntity], work=[200*, 0*]
  5: 0x0118 [0x55] WAIT_LOAD_SCHEDULER: Wait for scheduler "fdo1" with entities [EventEntity, EventEntity], work=200*
  6: 0x0127 [0x46] CAMERA_CONTROL: Disable user control
  7: 0x0129 [0x38] SET_CLIENT_EVENT_MODE(mode=27*)
  8: 0x012C [0x75] LOAD_ROOM(Load indoor room, room=487*)
  9: 0x0130 [0x75] LOAD_ROOM(No action)
 10: 0x0132 [0x92] Numi Adaligo (ID: 17797137/0x010F9011)->Render.Flags3 ^= 0x01
 11: 0x0138 [0x92] Ekokoko (ID: 17797136/0x010F9010)->Render.Flags3 ^= 0x01
 12: 0x013E [0x94] Numi Adaligo (ID: 17797137/0x010F9011)->Render.Flags3 ^= 0x01
 13: 0x0144 [0x94] LocalPlayer->Render.Flags3 ^= 0x01
 14: 0x014A [0x94] Ekokoko (ID: 17797136/0x010F9010)->Render.Flags3 ^= 0x01
 15: 0x0150 [0x02] IF !(LocalPlayer->Race == 5*) GOTO 0x0168
 16: 0x0158 [0xBA] SET_ENTITY_POSITION(entity_id=LocalPlayer, pos_x=-77.975*, pos_z=35.064*, pos_y=-24.310*, direction=183.8°*)
 17: 0x0165 [0x01] GOTO 0x018D
 18: 0x0168 [0x02] IF !(LocalPlayer->Race == 6*) GOTO 0x0180
 19: 0x0170 [0xBA] SET_ENTITY_POSITION(entity_id=LocalPlayer, pos_x=-77.975*, pos_z=35.064*, pos_y=-24.310*, direction=183.8°*)
 20: 0x017D [0x01] GOTO 0x018D
 21: 0x0180 [0xBA] SET_ENTITY_POSITION(entity_id=LocalPlayer, pos_x=-77.629*, pos_z=33.327*, pos_y=-24.012*, direction=206.4°*)

SUBROUTINE_018D:
 22: 0x018D [0xBA] SET_ENTITY_POSITION(entity_id=Ekokoko (ID: 17797136/0x010F9010), pos_x=-77.527*, pos_z=29.073*, pos_y=-23.999*, direction=268.5°*)
 23: 0x019A [0x80] LOAD_WAIT(entity=Ekokoko (ID: 17797136/0x010F9010))
 24: 0x019F [0x80] LOAD_WAIT(entity=LocalPlayer)
 25: 0x01A4 [0x80] LOAD_WAIT(entity=Numi Adaligo (ID: 17797137/0x010F9011))
 26: 0x01A9 [0x4A] LocalPlayer looks at Numi Adaligo (ID: 17797137/0x010F9011)
 27: 0x01B2 [0x4A] Numi Adaligo (ID: 17797137/0x010F9011) looks at LocalPlayer
 28: 0x01BB [0x1C] WAIT(30* ticks)
 29: 0x01BE [0x02] IF !(LocalPlayer->Race == 5*) GOTO 0x01DA
 30: 0x01C6 [0x45] LOAD_SCHEDULED_TASK: Load scheduler "s006" with entities [EventEntity, EventEntity], work=[760*, 0*]
 31: 0x01D7 [0x01] GOTO 0x0207
 32: 0x01DA [0x02] IF !(LocalPlayer->Race == 6*) GOTO 0x01F6
 33: 0x01E2 [0x45] LOAD_SCHEDULED_TASK: Load scheduler "s006" with entities [EventEntity, EventEntity], work=[760*, 0*]
 34: 0x01F3 [0x01] GOTO 0x0207
 35: 0x01F6 [0x45] LOAD_SCHEDULED_TASK: Load scheduler "s004" with entities [EventEntity, EventEntity], work=[760*, 0*]

SUBROUTINE_0207:
 36: 0x0207 [0x1C] WAIT(15* ticks)
 37: 0x020A [0x45] LOAD_SCHEDULED_TASK: Load scheduler "fdi1" with entities [EventEntity, EventEntity], work=[200*, 0*]
 38: 0x021B [0x66] LOAD_EXT_SCHEDULER_MAIN: Load scheduler "tlk0" with entities [Numi Adaligo (ID: 17797137/0x010F9011), Numi Adaligo (ID: 17797137/0x010F9011)], work=50*
 39: 0x022A [0x2B] Numi Adaligo (ID: 17797137/0x010F9011) [8042*]:
    → "Ah, I was told to expect someone named <Player>. Would that be you?"
 40: 0x0231 [0x23] WAIT_FOR_DIALOG_INTERACTION
 41: 0x0232 [0x66] LOAD_EXT_SCHEDULER_MAIN: Load scheduler "tlk2" with entities [Numi Adaligo (ID: 17797137/0x010F9011), Numi Adaligo (ID: 17797137/0x010F9011)], work=50*
 42: 0x0241 [0x6E] LocalPlayer uses emote 7*
 43: 0x0248 [0x99] Wait for LocalPlayer animation to complete
 44: 0x024D [0x1C] WAIT(90* ticks)
 45: 0x0250 [0x52] END_LOAD_SCHEDULER: End scheduler "s004" with entities [EventEntity, EventEntity], work=760*
 46: 0x025F [0x52] END_LOAD_SCHEDULER: End scheduler "s006" with entities [EventEntity, EventEntity], work=760*
 47: 0x026E [0x02] IF !(LocalPlayer->Race == 5*) GOTO 0x028A
 48: 0x0276 [0x45] LOAD_SCHEDULED_TASK: Load scheduler "s007" with entities [EventEntity, EventEntity], work=[760*, 0*]
 49: 0x0287 [0x01] GOTO 0x02B7
 50: 0x028A [0x02] IF !(LocalPlayer->Race == 6*) GOTO 0x02A6
 51: 0x0292 [0x45] LOAD_SCHEDULED_TASK: Load scheduler "s007" with entities [EventEntity, EventEntity], work=[760*, 0*]
 52: 0x02A3 [0x01] GOTO 0x02B7
 53: 0x02A6 [0x45] LOAD_SCHEDULED_TASK: Load scheduler "s005" with entities [EventEntity, EventEntity], work=[760*, 0*]

SUBROUTINE_02B7:
 54: 0x02B7 [0x66] LOAD_EXT_SCHEDULER_MAIN: Load scheduler "tlk0" with entities [Numi Adaligo (ID: 17797137/0x010F9011), Numi Adaligo (ID: 17797137/0x010F9011)], work=50*
 55: 0x02C6 [0x2B] Numi Adaligo (ID: 17797137/0x010F9011) [8043*]:
    → "Forgive me for not recognizing you sooner. I had been told to be on the lookout and usher you into the governor's office without delay."
 56: 0x02CD [0x23] WAIT_FOR_DIALOG_INTERACTION
 57: 0x02CE [0x66] LOAD_EXT_SCHEDULER_MAIN: Load scheduler "tlk2" with entities [Numi Adaligo (ID: 17797137/0x010F9011), Numi Adaligo (ID: 17797137/0x010F9011)], work=50*
 58: 0x02DD [0x27] REQ_SET(priority=0x05, entity_id=Ekokoko (ID: 17797136/0x010F9010), tag_num=0x04)
 59: 0x02E4 [0x1C] WAIT(20* ticks)
 60: 0x02E7 [0x52] END_LOAD_SCHEDULER: End scheduler "s005" with entities [EventEntity, EventEntity], work=760*
 61: 0x02F6 [0x52] END_LOAD_SCHEDULER: End scheduler "s007" with entities [EventEntity, EventEntity], work=760*
 62: 0x0305 [0x45] LOAD_SCHEDULED_TASK: Load scheduler "s008" with entities [EventEntity, EventEntity], work=[760*, 0*]
 63: 0x0316 [0x1C] WAIT(20* ticks)
 64: 0x0319 [0x02] IF !(LocalPlayer->Race == 5*) GOTO 0x0331
 65: 0x0321 [0xBA] SET_ENTITY_POSITION(entity_id=LocalPlayer, pos_x=-77.629*, pos_z=33.327*, pos_y=-24.012*, direction=206.4°*)
 66: 0x032E [0x01] GOTO 0x0349
 67: 0x0331 [0x02] IF !(LocalPlayer->Race == 6*) GOTO 0x0349
 68: 0x0339 [0xBA] SET_ENTITY_POSITION(entity_id=LocalPlayer, pos_x=-77.629*, pos_z=33.327*, pos_y=-24.012*, direction=206.4°*)
 69: 0x0346 [0x01] GOTO 0x0349

SUBROUTINE_0349:
 70: 0x0349 [0x4A] LocalPlayer looks at Ekokoko (ID: 17797136/0x010F9010)
 71: 0x0352 [0x2B] Ekokoko (ID: 17797136/0x010F9010) [8044*]:
    → "Oh, this is wonderful, indeed! I was worried I'd have to hunt and peck for you all down the coast."
 72: 0x0359 [0x23] WAIT_FOR_DIALOG_INTERACTION
 73: 0x035A [0x2A] GET_REQ_LEVEL(level=5, entity_id=Ekokoko (ID: 17797136/0x010F9010))
 74: 0x0360 [0x66] LOAD_EXT_SCHEDULER_MAIN: Load scheduler "tlk0" with entities [Ekokoko (ID: 17797136/0x010F9010), Ekokoko (ID: 17797136/0x010F9010)], work=40*
 75: 0x036F [0x2B] Ekokoko (ID: 17797136/0x010F9010) [8045*]:
    → "I, Ekokoko, serve as the governor of our bright town."
 76: 0x0376 [0x23] WAIT_FOR_DIALOG_INTERACTION
 77: 0x0377 [0x52] END_LOAD_SCHEDULER: End scheduler "s008" with entities [EventEntity, EventEntity], work=760*
 78: 0x0386 [0x45] LOAD_SCHEDULED_TASK: Load scheduler "s009" with entities [EventEntity, EventEntity], work=[760*, 0*]
 79: 0x0397 [0x2B] Ekokoko (ID: 17797136/0x010F9010) [8046*]:
    → "Truth be told, I was not the one who sought you out. No, that would be Gilgamesh, one of Vana'diel's most renowned pir--er, entrepreneurs."
 80: 0x039E [0x23] WAIT_FOR_DIALOG_INTERACTION
 81: 0x039F [0x66] LOAD_EXT_SCHEDULER_MAIN: Load scheduler "tlk1" with entities [Ekokoko (ID: 17797136/0x010F9010), Ekokoko (ID: 17797136/0x010F9010)], work=40*
 82: 0x03AE [0x1C] WAIT(60* ticks)
 83: 0x03B1 [0x81] SET_ENTITY_BLINKING(blink_flag=0x00, entity=Ekokoko (ID: 17797136/0x010F9010))
 84: 0x03B7 [0x66] LOAD_EXT_SCHEDULER_MAIN: Load scheduler "thk1" with entities [Ekokoko (ID: 17797136/0x010F9010), Ekokoko (ID: 17797136/0x010F9010)], work=49*
 85: 0x03C6 [0x2B] Ekokoko (ID: 17797136/0x010F9010) [8047*]:
    → "Something about setting sail and finding someone lost at sea? Bah, I never had much of a head for details."
 86: 0x03CD [0x23] WAIT_FOR_DIALOG_INTERACTION
 87: 0x03CE [0x52] END_LOAD_SCHEDULER: End scheduler "s009" with entities [EventEntity, EventEntity], work=760*
 88: 0x03DD [0x45] LOAD_SCHEDULED_TASK: Load scheduler "s010" with entities [EventEntity, EventEntity], work=[760*, 0*]
 89: 0x03EE [0x66] LOAD_EXT_SCHEDULER_MAIN: Load scheduler "thk2" with entities [Ekokoko (ID: 17797136/0x010F9010), Ekokoko (ID: 17797136/0x010F9010)], work=49*
 90: 0x03FD [0x81] SET_ENTITY_BLINKING(blink_flag=0x01, entity=Ekokoko (ID: 17797136/0x010F9010))
 91: 0x0403 [0x2B] Ekokoko (ID: 17797136/0x010F9010) [8048*]:
    → "What I do know is that your name came up on more than one occasion."
 92: 0x040A [0x23] WAIT_FOR_DIALOG_INTERACTION
 93: 0x040B [0x66] LOAD_EXT_SCHEDULER_MAIN: Load scheduler "tlk0" with entities [Ekokoko (ID: 17797136/0x010F9010), Ekokoko (ID: 17797136/0x010F9010)], work=40*
 94: 0x041A [0x03] Work_Zone[3] = 9083*
 95: 0x041F [0x2B] Ekokoko (ID: 17797136/0x010F9010) [8049*]:
    → "He also mentioned something about wanting you to procure some $1 from mandragoras around the Crag of Mea before you meet him."
 96: 0x0426 [0x23] WAIT_FOR_DIALOG_INTERACTION
 97: 0x0427 [0x2B] Ekokoko (ID: 17797136/0x010F9010) [8050*]:
    → "He hopes to use it to create a special herbal remedy for his crew--er, associates."
 98: 0x042E [0x23] WAIT_FOR_DIALOG_INTERACTION
 99: 0x042F [0x66] LOAD_EXT_SCHEDULER_MAIN: Load scheduler "tlk1" with entities [Ekokoko (ID: 17797136/0x010F9010), Ekokoko (ID: 17797136/0x010F9010)], work=40*
100: 0x043E [0x52] END_LOAD_SCHEDULER: End scheduler "s010" with entities [EventEntity, EventEntity], work=760*
101: 0x044D [0x45] LOAD_SCHEDULED_TASK: Load scheduler "s011" with entities [EventEntity, EventEntity], work=[760*, 0*]
102: 0x045E [0x66] LOAD_EXT_SCHEDULER_MAIN: Load scheduler "tlk0" with entities [Numi Adaligo (ID: 17797137/0x010F9011), Numi Adaligo (ID: 17797137/0x010F9011)], work=50*
103: 0x046D [0x2B] Numi Adaligo (ID: 17797137/0x010F9011) [8051*]:
    → "The world has been bursting at the seams with odd news these days, and frankly, none of us here can make heads or tails of it all."
104: 0x0474 [0x23] WAIT_FOR_DIALOG_INTERACTION
105: 0x0475 [0x66] LOAD_EXT_SCHEDULER_MAIN: Load scheduler "tlk2" with entities [Numi Adaligo (ID: 17797137/0x010F9011), Numi Adaligo (ID: 17797137/0x010F9011)], work=50*
106: 0x0484 [0x52] END_LOAD_SCHEDULER: End scheduler "s011" with entities [EventEntity, EventEntity], work=760*
107: 0x0493 [0x45] LOAD_SCHEDULED_TASK: Load scheduler "s012" with entities [EventEntity, EventEntity], work=[760*, 0*]
108: 0x04A4 [0x66] LOAD_EXT_SCHEDULER_MAIN: Load scheduler "tlk0" with entities [Ekokoko (ID: 17797136/0x010F9010), Ekokoko (ID: 17797136/0x010F9010)], work=40*
109: 0x04B3 [0x03] Work_Zone[3] = 9083*
110: 0x04B8 [0x2B] Ekokoko (ID: 17797136/0x010F9010) [8052*]:
    → "And Mhaura has felt the effects particularly hard--our supply of $1 has been dwindling."
111: 0x04BF [0x23] WAIT_FOR_DIALOG_INTERACTION
112: 0x04C0 [0x2B] Ekokoko (ID: 17797136/0x010F9010) [8053*]:
    → "I'll call Gilgamesh back to port immediately."
113: 0x04C7 [0x23] WAIT_FOR_DIALOG_INTERACTION
114: 0x04C8 [0x52] END_LOAD_SCHEDULER: End scheduler "s012" with entities [EventEntity, EventEntity], work=760*
115: 0x04D7 [0x45] LOAD_SCHEDULED_TASK: Load scheduler "s013" with entities [EventEntity, EventEntity], work=[760*, 0*]
116: 0x04E8 [0x03] Work_Zone[3] = 9083*
117: 0x04ED [0x2B] Ekokoko (ID: 17797136/0x010F9010) [8054*]:
    → "In the meantime, rough up some of those mandragoras and come back with three $1."
118: 0x04F4 [0x23] WAIT_FOR_DIALOG_INTERACTION
119: 0x04F5 [0x2B] Ekokoko (ID: 17797136/0x010F9010) [8055*]:
    → "And yes, I am well aware that adventurers often charge a fee for their services, and I will personally see to it that you are properly recompensed."
120: 0x04FC [0x23] WAIT_FOR_DIALOG_INTERACTION
121: 0x04FD [0x66] LOAD_EXT_SCHEDULER_MAIN: Load scheduler "tlk1" with entities [Ekokoko (ID: 17797136/0x010F9010), Ekokoko (ID: 17797136/0x010F9010)], work=40*
122: 0x050C [0x52] END_LOAD_SCHEDULER: End scheduler "s013" with entities [EventEntity, EventEntity], work=760*
123: 0x051B [0x45] LOAD_SCHEDULED_TASK: Load scheduler "s014" with entities [EventEntity, EventEntity], work=[760*, 0*]
124: 0x052C [0x66] LOAD_EXT_SCHEDULER_MAIN: Load scheduler "tlk0" with entities [Numi Adaligo (ID: 17797137/0x010F9011), Numi Adaligo (ID: 17797137/0x010F9011)], work=50*
125: 0x053B [0x2B] Numi Adaligo (ID: 17797137/0x010F9011) [8056*]:
    → "Come back soon!"
126: 0x0542 [0x23] WAIT_FOR_DIALOG_INTERACTION
127: 0x0543 [0x45] LOAD_SCHEDULED_TASK: Load scheduler "fdo1" with entities [EventEntity, EventEntity], work=[200*, 0*]
128: 0x0554 [0x55] WAIT_LOAD_SCHEDULER: Wait for scheduler "fdo1" with entities [EventEntity, EventEntity], work=200*
129: 0x0563 [0x52] END_LOAD_SCHEDULER: End scheduler "s014" with entities [EventEntity, EventEntity], work=760*
130: 0x0572 [0x46] CAMERA_CONTROL: Restore default settings
131: 0x0574 [0x45] LOAD_SCHEDULED_TASK: Load scheduler "fdi2" with entities [EventEntity, EventEntity], work=[200*, 0*]
132: 0x0585 [0x03] Work_Zone[1] = 1*
133: 0x058A [0x1B] RETURN
```

### Event 373

#### Metadata

| Field        | Value    |
|--------------|----------|
| Entrypoint   | 0x058B   |
| Data Size    | 71 bytes |
| Instructions | 11       |

```
      00 01 02 03 04 05 06 07  08 09 0A 0B 0C 0D 0E 0F
      -- -- -- -- -- -- -- --  -- -- -- -- -- -- -- --
0580:                                   4A F0 FF FF 7F             J....
0590: 10 90 0F 01 4A 10 90 0F  01 F0 FF FF 7F 66 2F 80  ....J........f/.
05A0: 10 90 0F 01 10 90 0F 01  74 6C 6B 30 03 03 10 36  ........tlk0...6
05B0: 80 2B 10 90 0F 01 3C 80  23 2B 10 90 0F 01 3D 80  .+....<.#+....=.
05C0: 23 66 2F 80 10 90 0F 01  10 90 0F 01 74 6C 6B 31  #f/.........tlk1
05D0: 21 00                                             !.              
```

#### Opcodes

```
  0: 0x058B [0x4A] LocalPlayer looks at Ekokoko (ID: 17797136/0x010F9010)
  1: 0x0594 [0x4A] Ekokoko (ID: 17797136/0x010F9010) looks at LocalPlayer
  2: 0x059D [0x66] LOAD_EXT_SCHEDULER_MAIN: Load scheduler "tlk0" with entities [Ekokoko (ID: 17797136/0x010F9010), Ekokoko (ID: 17797136/0x010F9010)], work=40*
  3: 0x05AC [0x03] Work_Zone[3] = 9083*
  4: 0x05B1 [0x2B] Ekokoko (ID: 17797136/0x010F9010) [8054*]:
    → "In the meantime, rough up some of those mandragoras and come back with three $1."
  5: 0x05B8 [0x23] WAIT_FOR_DIALOG_INTERACTION
  6: 0x05B9 [0x2B] Ekokoko (ID: 17797136/0x010F9010) [8055*]:
    → "And yes, I am well aware that adventurers often charge a fee for their services, and I will personally see to it that you are properly recompensed."
  7: 0x05C0 [0x23] WAIT_FOR_DIALOG_INTERACTION
  8: 0x05C1 [0x66] LOAD_EXT_SCHEDULER_MAIN: Load scheduler "tlk1" with entities [Ekokoko (ID: 17797136/0x010F9010), Ekokoko (ID: 17797136/0x010F9010)], work=40*
  9: 0x05D0 [0x21] END_EVENT
 10: 0x05D1 [0x00] END_REQSTACK()
```

### Event 65535.1

#### Metadata

| Field        | Value   |
|--------------|---------|
| Entrypoint   | 0x05D2  |
| Data Size    | 1 bytes |
| Instructions | 1       |

```
      00 01 02 03 04 05 06 07  08 09 0A 0B 0C 0D 0E 0F
      -- -- -- -- -- -- -- --  -- -- -- -- -- -- -- --
05D0:       00                                            .             
```

#### Opcodes

```
  0: 0x05D2 [0x00] END_REQSTACK()
```
