# 17797147 - Kupupu

## Common Data

| Field            | Value            |
|------------------|------------------|
| Zone             | Mhaura (ID: 249) |
| Block Size       | 152 bytes        |
| Total Events     | 2                |
| References Count | 9                |

## List of Events

| Event ID              | Entrypoint   |   Size |   Instructions |
|-----------------------|--------------|--------|----------------|
| [65535](#event-65535) | 0x0000       |      1 |              1 |
| [800](#event-800)     | 0x0001       |     89 |             23 |

## DAT References (imed_data)

|   Index | Hex Value   |   Dec Value |
|---------|-------------|-------------|
|       0 | 0x0028      |          40 |
|       1 | 0x0003      |           3 |
|       2 | 0x0000      |           0 |
|       3 | 0x1C07      |        7175 |
|       4 | 0x0001      |           1 |
|       5 | 0x1C08      |        7176 |
|       6 | 0x0002      |           2 |
|       7 | 0x1C09      |        7177 |
|       8 | 0x1C0A      |        7178 |

## String References

- **7175**: The old woman who's always standing in front of the warehouse gives me the heebie-jeebies, but for some reason a lot of people come to see her. I wonder why?
- **7176**: Mister Orlando likes to collect the strangest things! He can't blame people if they call him a junk collector!
- **7177**: I've seen a lot of tough-looking adventurers come to Mhaura to see Mister Nereus. Are you here to see him, too?
- **7178**: Bihoro-Guhoro here says he knows all there is to know about pirates...but apparently he hasn't met any yet. Funny, isn't it?

## Events

### Event 65535

#### Metadata

| Field        | Value   |
|--------------|---------|
| Entrypoint   | 0x0000  |
| Data Size    | 1 bytes |
| Instructions | 1       |

```
      00 01 02 03 04 05 06 07  08 09 0A 0B 0C 0D 0E 0F
      -- -- -- -- -- -- -- --  -- -- -- -- -- -- -- --
0000: 00                                                .               
```

#### Opcodes

```
  0: 0x0000 [0x00] END_REQSTACK()
```

### Event 800

#### Metadata

| Field        | Value    |
|--------------|----------|
| Entrypoint   | 0x0001   |
| Data Size    | 89 bytes |
| Instructions | 23       |

```
      00 01 02 03 04 05 06 07  08 09 0A 0B 0C 0D 0E 0F
      -- -- -- -- -- -- -- --  -- -- -- -- -- -- -- --
0000:    1E F0 FF FF 7F 6F 70  66 00 80 F8 FF FF 7F F8   .....opf.......
0010: FF FF 7F 74 6C 6B 30 13  00 00 01 80 02 00 00 02  ...tlk0.........
0020: 80 80 2B 00 1D 03 80 23  01 58 00 02 00 00 04 80  ..+....#.X......
0030: 80 3A 00 1D 05 80 23 01  58 00 02 00 00 06 80 80  .:....#.X.......
0040: 49 00 1D 07 80 23 01 58  00 02 00 00 01 80 80 58  I....#.X.......X
0050: 00 1D 08 80 23 01 58 00  21 00                    ....#.X.!.      
```

#### Opcodes

```
  0: 0x0001 [0x1E] EventEntity looks at LocalPlayer and starts talking
  1: 0x0006 [0x6F] WAIT_FRAME_DELAY: Yield until WaitTime reaches zero
  2: 0x0007 [0x70] WAIT_ENTITY_RENDER_FLAG: Wait while EventEntity->Render.Flags3 bit 2 is set (cancel turn if not)
  3: 0x0008 [0x66] LOAD_EXT_SCHEDULER_MAIN: Load scheduler "tlk0" with entities [EventEntity, EventEntity], work=40*
  4: 0x0017 [0x13] ExtData[1]->WorkLocal[0] = rand() % 3*
  5: 0x001C [0x02] IF !(ExtData[1]->WorkLocal[0] == 0*) GOTO 0x002B
  6: 0x0024 [0x1D] PRINT_EVENT_MESSAGE(message_id=7175*)
    → "The old woman who's always standing in front of the warehouse gives me the heebie-jeebies, but for some reason a lot of people come to see her. I wonder why?"
  7: 0x0027 [0x23] WAIT_FOR_DIALOG_INTERACTION
  8: 0x0028 [0x01] GOTO 0x0058
  9: 0x002B [0x02] IF !(ExtData[1]->WorkLocal[0] == 1*) GOTO 0x003A
 10: 0x0033 [0x1D] PRINT_EVENT_MESSAGE(message_id=7176*)
    → "Mister Orlando likes to collect the strangest things! He can't blame people if they call him a junk collector!"
 11: 0x0036 [0x23] WAIT_FOR_DIALOG_INTERACTION
 12: 0x0037 [0x01] GOTO 0x0058
 13: 0x003A [0x02] IF !(ExtData[1]->WorkLocal[0] == 2*) GOTO 0x0049
 14: 0x0042 [0x1D] PRINT_EVENT_MESSAGE(message_id=7177*)
    → "I've seen a lot of tough-looking adventurers come to Mhaura to see Mister Nereus. Are you here to see him, too?"
 15: 0x0045 [0x23] WAIT_FOR_DIALOG_INTERACTION
 16: 0x0046 [0x01] GOTO 0x0058
 17: 0x0049 [0x02] IF !(ExtData[1]->WorkLocal[0] == 3*) GOTO 0x0058
 18: 0x0051 [0x1D] PRINT_EVENT_MESSAGE(message_id=7178*)
    → "Bihoro-Guhoro here says he knows all there is to know about pirates...but apparently he hasn't met any yet. Funny, isn't it?"
 19: 0x0054 [0x23] WAIT_FOR_DIALOG_INTERACTION
 20: 0x0055 [0x01] GOTO 0x0058

SUBROUTINE_0058:
 21: 0x0058 [0x21] END_EVENT
 22: 0x0059 [0x00] END_REQSTACK()
```
