# 17797182

## Common Data

| Field            | Value            |
|------------------|------------------|
| Zone             | Mhaura (ID: 249) |
| Block Size       | 52 bytes         |
| Total Events     | 2                |
| References Count | 3                |

## List of Events

| Event ID              | Entrypoint   |   Size |   Instructions |
|-----------------------|--------------|--------|----------------|
| [65535](#event-65535) | 0x0000       |      1 |              1 |
| [200](#event-200)     | 0x0001       |     12 |              5 |

## DAT References (imed_data)

|   Index | Hex Value   |   Dec Value |
|---------|-------------|-------------|
|       0 | 0x001E      |          30 |
|       1 | 0x0001      |           1 |
|       2 | 0x08FC      |        2300 |

## Events

### Event 65535

#### Metadata

| Field        | Value   |
|--------------|---------|
| Entrypoint   | 0x0000  |
| Data Size    | 1 bytes |
| Instructions | 1       |

```
      00 01 02 03 04 05 06 07  08 09 0A 0B 0C 0D 0E 0F
      -- -- -- -- -- -- -- --  -- -- -- -- -- -- -- --
0000: 00                                                .               
```

#### Opcodes

```
  0: 0x0000 [0x00] END_REQSTACK()
```

### Event 200

#### Metadata

| Field        | Value    |
|--------------|----------|
| Entrypoint   | 0x0001   |
| Data Size    | 12 bytes |
| Instructions | 5        |

```
      00 01 02 03 04 05 06 07  08 09 0A 0B 0C 0D 0E 0F
      -- -- -- -- -- -- -- --  -- -- -- -- -- -- -- --
0000:    1C 00 80 4F 01 80 1C  02 80 22 01 00            ...O....."..   
```

#### Opcodes

```
  0: 0x0001 [0x1C] WAIT(30* ticks)
  1: 0x0004 [0x4F] EventEntity->StatusEvent = 1* // Custom event value
  2: 0x0007 [0x1C] WAIT(2300* ticks)
  3: 0x000A [0x22] ENTITY_HIDE_FLAG(enabled=0x01)
  4: 0x000C [0x00] END_REQSTACK()
```
