# 0x7FFFFFF0 - Zone Events

## Common Data

| Field            | Value            |
|------------------|------------------|
| Zone             | Mhaura (ID: 249) |
| Block Size       | 3056 bytes       |
| Total Events     | 44               |
| References Count | 144              |

## List of Events

| Event ID                   | Entrypoint   |   Size |   Instructions |
|----------------------------|--------------|--------|----------------|
| [65535](#event-65535)      | 0x0000       |      1 |              1 |
| [65535.1](#event-655351)   | 0x0001       |      6 |              2 |
| [65535.2](#event-655352)   | 0x0007       |     10 |              2 |
| [65535.3](#event-655353)   | 0x0011       |     32 |              8 |
| [65535.4](#event-655354)   | 0x0031       |     15 |              3 |
| [65535.5](#event-655355)   | 0x0040       |     14 |              4 |
| [65535.6](#event-655356)   | 0x004E       |    353 |             41 |
| [65535.7](#event-655357)   | 0x01AF       |    245 |             49 |
| [220](#event-220)          | 0x02A4       |      1 |              1 |
| [221](#event-221)          | 0x02A5       |      1 |              1 |
| [230](#event-230)          | 0x02A6       |      1 |              1 |
| [200](#event-200)          | 0x02A7       |    135 |             16 |
| [204](#event-204)          | 0x032E       |     87 |             13 |
| [65535.8](#event-655358)   | 0x0385       |    107 |             21 |
| [65535.9](#event-655359)   | 0x03F0       |     86 |             17 |
| [201](#event-201)          | 0x0446       |     22 |              8 |
| [203](#event-203)          | 0x045C       |     22 |              8 |
| [202](#event-202)          | 0x0472       |     46 |              9 |
| [332](#event-332)          | 0x04A0       |     87 |             13 |
| [124](#event-124)          | 0x04F7       |      1 |              1 |
| [65535.10](#event-6553510) | 0x04F8       |     10 |              2 |
| [127](#event-127)          | 0x0502       |      1 |              1 |
| [65535.11](#event-6553511) | 0x0503       |     10 |              2 |
| [65534](#event-65534)      | 0x050D       |      1 |              1 |
| [65535.12](#event-6553512) | 0x050E       |     10 |              2 |
| [65535.13](#event-6553513) | 0x0518       |     10 |              2 |
| [65535.14](#event-6553514) | 0x0522       |     14 |              4 |
| [65535.15](#event-6553515) | 0x0530       |      6 |              2 |
| [65535.16](#event-6553516) | 0x0536       |      6 |              2 |
| [65535.17](#event-6553517) | 0x053C       |      6 |              2 |
| [65535.18](#event-6553518) | 0x0542       |      6 |              2 |
| [65535.19](#event-6553519) | 0x0548       |    121 |             19 |
| [65535.20](#event-6553520) | 0x05C1       |     10 |              2 |
| [65535.21](#event-6553521) | 0x05CB       |     27 |              6 |
| [65535.22](#event-6553522) | 0x05E6       |      6 |              2 |
| [65535.23](#event-6553523) | 0x05EC       |     10 |              2 |
| [65535.24](#event-6553524) | 0x05F6       |     10 |              2 |
| [65535.25](#event-6553525) | 0x0600       |     10 |              2 |
| [65535.26](#event-6553526) | 0x060A       |     10 |              2 |
| [320](#event-320)          | 0x0614       |    632 |             74 |
| [65535.27](#event-6553527) | 0x088C       |      6 |              2 |
| [65535.28](#event-6553528) | 0x0892       |     10 |              2 |
| [65535.29](#event-6553529) | 0x089C       |     19 |              5 |
| [375](#event-375)          | 0x08AF       |     63 |              9 |

## DAT References (imed_data)

|   Index | Hex Value   |   Dec Value |
|---------|-------------|-------------|
|       0 | 0xFFFF733C  |  4294931260 |
|       1 | 0xD512      |       54546 |
|       2 | 0xFFFFC181  |  4294951297 |
|       3 | 0x0503      |        1283 |
|       4 | 0xFFFF7C95  |  4294933653 |
|       5 | 0xD7A4      |       55204 |
|       6 | 0x05B9      |        1465 |
|       7 | 0x0BB8      |        3000 |
|       8 | 0x000D      |          13 |
|       9 | 0xFFFF733B  |  4294931259 |
|      10 | 0xD513      |       54547 |
|      11 | 0xFFFFC180  |  4294951296 |
|      12 | 0x013A      |         314 |
|      13 | 0xA181      |       41345 |
|      14 | 0x1413E     |       82238 |
|      15 | 0x0001      |           1 |
|      16 | 0x0095      |         149 |
|      17 | 0x0078      |         120 |
|      18 | 0x0002      |           2 |
|      19 | 0x009F      |         159 |
|      20 | 0x0003      |           3 |
|      21 | 0x00A9      |         169 |
|      22 | 0x0004      |           4 |
|      23 | 0x00B3      |         179 |
|      24 | 0x0005      |           5 |
|      25 | 0x00BD      |         189 |
|      26 | 0x0006      |           6 |
|      27 | 0x0007      |           7 |
|      28 | 0x00C7      |         199 |
|      29 | 0x0008      |           8 |
|      30 | 0x00D1      |         209 |
|      31 | 0x000A      |          10 |
|      32 | 0x0009      |           9 |
|      33 | 0x0046      |          70 |
|      34 | 0x008C      |         140 |
|      35 | 0x00D2      |         210 |
|      36 | 0x00C8      |         200 |
|      37 | 0x0000      |           0 |
|      38 | 0x1FB0      |        8112 |
|      39 | 0x1477      |        5239 |
|      40 | 0xFFFFFAAE  |  4294965934 |
|      41 | 0x0462      |        1122 |
|      42 | 0xA21C      |       41500 |
|      43 | 0xB798      |       47000 |
|      44 | 0xBC86      |       48262 |
|      45 | 0x9994      |       39316 |
|      46 | 0xFFFFE0C0  |  4294959296 |
|      47 | 0xBBC0      |       48064 |
|      48 | 0xA3B4      |       41908 |
|      49 | 0xBCCF      |       48335 |
|      50 | 0x8C51      |       35921 |
|      51 | 0x8AAC      |       35500 |
|      52 | 0x79D0      |       31184 |
|      53 | 0x8732      |       34610 |
|      54 | 0x78D9      |       30937 |
|      55 | 0x92A2      |       37538 |
|      56 | 0x78B8      |       30904 |
|      57 | 0x9E86      |       40582 |
|      58 | 0x40A2      |       16546 |
|      59 | 0xD3E2      |       54242 |
|      60 | 0x02AB      |         683 |
|      61 | 0x0384      |         900 |
|      62 | 0x5EF5      |       24309 |
|      63 | 0x9BF4      |       39924 |
|      64 | 0xFFFFE19D  |  4294959517 |
|      65 | 0x059C      |        1436 |
|      66 | 0xFFFF63A9  |  4294927273 |
|      67 | 0x113F0     |       70640 |
|      68 | 0x00ED      |         237 |
|      69 | 0xFFFF53D8  |  4294923224 |
|      70 | 0x7A53      |       31315 |
|      71 | 0xFFFFC1E8  |  4294951400 |
|      72 | 0x01BF      |         447 |
|      73 | 0xFFFF0810  |  4294903824 |
|      74 | 0x77D8      |       30680 |
|      75 | 0x063C      |        1596 |
|      76 | 0xFFFF4EF8  |  4294921976 |
|      77 | 0x814C      |       33100 |
|      78 | 0xFFFFC1CD  |  4294951373 |
|      79 | 0x17FB2     |       98226 |
|      80 | 0xFFFE8427  |  4294870055 |
|      81 | 0xFFFFC951  |  4294953297 |
|      82 | 0x8A3C      |       35388 |
|      83 | 0xFFFF5FB6  |  4294926262 |
|      84 | 0x1D4B      |        7499 |
|      85 | 0x07D5      |        2005 |
|      86 | 0xFFFFC977  |  4294953335 |
|      87 | 0xFFFFAF27  |  4294946599 |
|      88 | 0x0449      |        1097 |
|      89 | 0x0FC1      |        4033 |
|      90 | 0xFFFFBA31  |  4294949425 |
|      91 | 0xFFFFD2B5  |  4294955701 |
|      92 | 0x1DE4      |        7652 |
|      93 | 0x0108      |         264 |
|      94 | 0xFFFD2886  |  4294781062 |
|      95 | 0x1A773     |      108403 |
|      96 | 0x095F      |        2399 |
|      97 | 0x72BA      |       29370 |
|      98 | 0xDF91      |       57233 |
|      99 | 0xFFFFC246  |  4294951494 |
|     100 | 0x0314      |         788 |
|     101 | 0x55DE      |       21982 |
|     102 | 0x7561      |       30049 |
|     103 | 0xFFFFB926  |  4294949158 |
|     104 | 0x0D48      |        3400 |
|     105 | 0x001E      |          30 |
|     106 | 0xFFFFBA9A  |  4294949530 |
|     107 | 0xFFFFD177  |  4294955383 |
|     108 | 0x1DDD      |        7645 |
|     109 | 0x000F      |          15 |
|     110 | 0xFFFF6D32  |  4294929714 |
|     111 | 0x10DF7     |       69111 |
|     112 | 0x0917      |        2327 |
|     113 | 0x02C0      |         704 |
|     114 | 0x01E8      |         488 |
|     115 | 0x000B      |          11 |
|     116 | 0xFFFF6C2A  |  4294929450 |
|     117 | 0x112A9     |       70313 |
|     118 | 0x0785      |        1925 |
|     119 | 0x00A5      |         165 |
|     120 | 0x003C      |          60 |
|     121 | 0x1DC0      |        7616 |
|     122 | 0x1DC1      |        7617 |
|     123 | 0x005A      |          90 |
|     124 | 0x1DC2      |        7618 |
|     125 | 0x0032      |          50 |
|     126 | 0x1DC3      |        7619 |
|     127 | 0x1DC4      |        7620 |
|     128 | 0x0034      |          52 |
|     129 | 0x1DC5      |        7621 |
|     130 | 0x0022      |          34 |
|     131 | 0x1DC6      |        7622 |
|     132 | 0x1DC7      |        7623 |
|     133 | 0x1DC8      |        7624 |
|     134 | 0x0035      |          53 |
|     135 | 0xFFFF9D80  |  4294942080 |
|     136 | 0x4273      |       17011 |
|     137 | 0xFFFFF061  |  4294963297 |
|     138 | 0x0F1C      |        3868 |
|     139 | 0xFFFFFFD2  |  4294967250 |
|     140 | 0x1B06E     |      110702 |
|     141 | 0xFFFFF060  |  4294963296 |
|     142 | 0x1F9E      |        8094 |
|     143 | 0x00C9      |         201 |

## String References

- **8094**: Entering the [/Very Difficult Intense Ambuscade/Difficult Intense Ambuscade/Normal Intense Ambuscade/Easy Intense Ambuscade/Very Easy Intense Ambuscade/Very Difficult Ambuscade/Difficult Ambuscade/Normal Ambuscade/Easy Ambuscade/Very Easy Ambuscade/Light Ambuscade].

## Events

### Event 65535

#### Metadata

| Field        | Value   |
|--------------|---------|
| Entrypoint   | 0x0000  |
| Data Size    | 1 bytes |
| Instructions | 1       |

```
      00 01 02 03 04 05 06 07  08 09 0A 0B 0C 0D 0E 0F
      -- -- -- -- -- -- -- --  -- -- -- -- -- -- -- --
0000: 00                                                .               
```

#### Opcodes

```
  0: 0x0000 [0x00] END_REQSTACK()
```

### Event 65535.1

#### Metadata

| Field        | Value   |
|--------------|---------|
| Entrypoint   | 0x0001  |
| Data Size    | 6 bytes |
| Instructions | 2       |

```
      00 01 02 03 04 05 06 07  08 09 0A 0B 0C 0D 0E 0F
      -- -- -- -- -- -- -- --  -- -- -- -- -- -- -- --
0000:    03 02 10 07 7F 00                               ......         
```

#### Opcodes

```
  0: 0x0001 [0x03] Work_Zone[2] = Entity->Race
  1: 0x0006 [0x00] END_REQSTACK()
```

### Event 65535.2

#### Metadata

| Field        | Value    |
|--------------|----------|
| Entrypoint   | 0x0007   |
| Data Size    | 10 bytes |
| Instructions | 2        |

```
      00 01 02 03 04 05 06 07  08 09 0A 0B 0C 0D 0E 0F
      -- -- -- -- -- -- -- --  -- -- -- -- -- -- -- --
0000:                      37  00 80 01 80 02 80 03 80         7........
0010: 00                                                .               
```

#### Opcodes

```
  0: 0x0007 [0x37] UPDATE_EVENT_POSITION_AND_DIR: x=-36.036*, z=54.546*, y=-15.999*, direction=112.8°*
  1: 0x0010 [0x00] END_REQSTACK()
```

### Event 65535.3

#### Metadata

| Field        | Value    |
|--------------|----------|
| Entrypoint   | 0x0011   |
| Data Size    | 32 bytes |
| Instructions | 8        |

```
      00 01 02 03 04 05 06 07  08 09 0A 0B 0C 0D 0E 0F
      -- -- -- -- -- -- -- --  -- -- -- -- -- -- -- --
0010:    37 04 80 05 80 02 80  06 80 03 00 00 07 80 1A   7..............
0020: CC 01 32 08 80 1F 00 01  00 02 00 03 00 1F 01 6F  ..2............o
0030: 00                                                .               
```

#### Opcodes

```
  0: 0x0011 [0x37] UPDATE_EVENT_POSITION_AND_DIR: x=-33.643*, z=55.204*, y=-15.999*, direction=128.8°*
  1: 0x001A [0x03] ExtData[1]->WorkLocal[0] = 3000*
  2: 0x001F [0x1A] CALL_SUBROUTINE(address=0x01CC)
  3: 0x0022 [0x32] ExtData[1]->MainSpeed = 13* * 0.1
  4: 0x0025 [0x1F] MOVE_ENTITY: EventEntity moves to X=ExtData[1]->WorkLocal[1], Z=ExtData[1]->WorkLocal[2], Y=ExtData[1]->WorkLocal[3]
  5: 0x002D [0x1F] MOVE_ENTITY: Update entity position (mode=1)
  6: 0x002F [0x6F] WAIT_FRAME_DELAY: Yield until WaitTime reaches zero
  7: 0x0030 [0x00] END_REQSTACK()
```

### Event 65535.4

#### Metadata

| Field        | Value    |
|--------------|----------|
| Entrypoint   | 0x0031   |
| Data Size    | 15 bytes |
| Instructions | 3        |

```
      00 01 02 03 04 05 06 07  08 09 0A 0B 0C 0D 0E 0F
      -- -- -- -- -- -- -- --  -- -- -- -- -- -- -- --
0030:    37 09 80 0A 80 0B 80  0C 80 1E 79 90 0F 01 00   7.........y....
```

#### Opcodes

```
  0: 0x0031 [0x37] UPDATE_EVENT_POSITION_AND_DIR: x=-36.037*, z=54.547*, y=-16.000*, direction=27.6°*
  1: 0x003A [0x1E] EventEntity looks at Shikaree Z (ID: 17797241/0x010F9079) and starts talking
  2: 0x003F [0x00] END_REQSTACK()
```

### Event 65535.5

#### Metadata

| Field        | Value    |
|--------------|----------|
| Entrypoint   | 0x0040   |
| Data Size    | 14 bytes |
| Instructions | 4        |

```
      00 01 02 03 04 05 06 07  08 09 0A 0B 0C 0D 0E 0F
      -- -- -- -- -- -- -- --  -- -- -- -- -- -- -- --
0040: 32 08 80 1F 00 0D 80 0E  80 0B 80 1F 01 00        2.............  
```

#### Opcodes

```
  0: 0x0040 [0x32] ExtData[1]->MainSpeed = 13* * 0.1
  1: 0x0043 [0x1F] MOVE_ENTITY: EventEntity moves to X=41.345*, Z=82.238*, Y=-16.000*
  2: 0x004B [0x1F] MOVE_ENTITY: Update entity position (mode=1)
  3: 0x004D [0x00] END_REQSTACK()
```

### Event 65535.6

#### Metadata

| Field        | Value     |
|--------------|-----------|
| Entrypoint   | 0x004E    |
| Data Size    | 353 bytes |
| Instructions | 41        |

```
      00 01 02 03 04 05 06 07  08 09 0A 0B 0C 0D 0E 0F
      -- -- -- -- -- -- -- --  -- -- -- -- -- -- -- --
0040:                                            02 07                ..
0050: 7F 0F 80 80 7A 00 66 10  80 F8 FF FF 7F F8 FF FF  ....z.f.........
0060: 7F 74 6C 6B 30 1C 11 80  66 10 80 F8 FF FF 7F F8  .tlk0...f.......
0070: FF FF 7F 74 6C 6B 31 01  AE 01 02 07 7F 12 80 80  ...tlk1.........
0080: A6 00 66 13 80 F8 FF FF  7F F8 FF FF 7F 74 6C 6B  ..f..........tlk
0090: 30 1C 11 80 66 13 80 F8  FF FF 7F F8 FF FF 7F 74  0...f..........t
00A0: 6C 6B 31 01 AE 01 02 07  7F 14 80 80 D2 00 66 15  lk1...........f.
00B0: 80 F8 FF FF 7F F8 FF FF  7F 74 6C 6B 30 1C 11 80  .........tlk0...
00C0: 66 15 80 F8 FF FF 7F F8  FF FF 7F 74 6C 6B 31 01  f..........tlk1.
00D0: AE 01 02 07 7F 16 80 80  FE 00 66 17 80 F8 FF FF  ..........f.....
00E0: 7F F8 FF FF 7F 74 6C 6B  30 1C 11 80 66 17 80 F8  .....tlk0...f...
00F0: FF FF 7F F8 FF FF 7F 74  6C 6B 31 01 AE 01 02 07  .......tlk1.....
0100: 7F 18 80 80 2A 01 66 19  80 F8 FF FF 7F F8 FF FF  ....*.f.........
0110: 7F 74 6C 6B 30 1C 11 80  66 19 80 F8 FF FF 7F F8  .tlk0...f.......
0120: FF FF 7F 74 6C 6B 31 01  AE 01 02 07 7F 1A 80 80  ...tlk1.........
0130: 56 01 66 19 80 F8 FF FF  7F F8 FF FF 7F 74 6C 6B  V.f..........tlk
0140: 30 1C 11 80 66 19 80 F8  FF FF 7F F8 FF FF 7F 74  0...f..........t
0150: 6C 6B 31 01 AE 01 02 07  7F 1B 80 80 82 01 66 1C  lk1...........f.
0160: 80 F8 FF FF 7F F8 FF FF  7F 74 6C 6B 30 1C 11 80  .........tlk0...
0170: 66 1C 80 F8 FF FF 7F F8  FF FF 7F 74 6C 6B 31 01  f..........tlk1.
0180: AE 01 02 07 7F 1D 80 80  AE 01 66 1E 80 F8 FF FF  ..........f.....
0190: 7F F8 FF FF 7F 74 6C 6B  30 1C 11 80 66 1E 80 F8  .....tlk0...f...
01A0: FF FF 7F F8 FF FF 7F 74  6C 6B 31 01 AE 01 00     .......tlk1.... 
```

#### Opcodes

```
  0: 0x004E [0x02] IF !(Entity->Race == 1*) GOTO 0x007A
  1: 0x0056 [0x66] LOAD_EXT_SCHEDULER_MAIN: Load scheduler "tlk0" with entities [EventEntity, EventEntity], work=149*
  2: 0x0065 [0x1C] WAIT(120* ticks)
  3: 0x0068 [0x66] LOAD_EXT_SCHEDULER_MAIN: Load scheduler "tlk1" with entities [EventEntity, EventEntity], work=149*
  4: 0x0077 [0x01] GOTO 0x01AE
  5: 0x007A [0x02] IF !(Entity->Race == 2*) GOTO 0x00A6
  6: 0x0082 [0x66] LOAD_EXT_SCHEDULER_MAIN: Load scheduler "tlk0" with entities [EventEntity, EventEntity], work=159*
  7: 0x0091 [0x1C] WAIT(120* ticks)
  8: 0x0094 [0x66] LOAD_EXT_SCHEDULER_MAIN: Load scheduler "tlk1" with entities [EventEntity, EventEntity], work=159*
  9: 0x00A3 [0x01] GOTO 0x01AE
 10: 0x00A6 [0x02] IF !(Entity->Race == 3*) GOTO 0x00D2
 11: 0x00AE [0x66] LOAD_EXT_SCHEDULER_MAIN: Load scheduler "tlk0" with entities [EventEntity, EventEntity], work=169*
 12: 0x00BD [0x1C] WAIT(120* ticks)
 13: 0x00C0 [0x66] LOAD_EXT_SCHEDULER_MAIN: Load scheduler "tlk1" with entities [EventEntity, EventEntity], work=169*
 14: 0x00CF [0x01] GOTO 0x01AE
 15: 0x00D2 [0x02] IF !(Entity->Race == 4*) GOTO 0x00FE
 16: 0x00DA [0x66] LOAD_EXT_SCHEDULER_MAIN: Load scheduler "tlk0" with entities [EventEntity, EventEntity], work=179*
 17: 0x00E9 [0x1C] WAIT(120* ticks)
 18: 0x00EC [0x66] LOAD_EXT_SCHEDULER_MAIN: Load scheduler "tlk1" with entities [EventEntity, EventEntity], work=179*
 19: 0x00FB [0x01] GOTO 0x01AE
 20: 0x00FE [0x02] IF !(Entity->Race == 5*) GOTO 0x012A
 21: 0x0106 [0x66] LOAD_EXT_SCHEDULER_MAIN: Load scheduler "tlk0" with entities [EventEntity, EventEntity], work=189*
 22: 0x0115 [0x1C] WAIT(120* ticks)
 23: 0x0118 [0x66] LOAD_EXT_SCHEDULER_MAIN: Load scheduler "tlk1" with entities [EventEntity, EventEntity], work=189*
 24: 0x0127 [0x01] GOTO 0x01AE
 25: 0x012A [0x02] IF !(Entity->Race == 6*) GOTO 0x0156
 26: 0x0132 [0x66] LOAD_EXT_SCHEDULER_MAIN: Load scheduler "tlk0" with entities [EventEntity, EventEntity], work=189*
 27: 0x0141 [0x1C] WAIT(120* ticks)
 28: 0x0144 [0x66] LOAD_EXT_SCHEDULER_MAIN: Load scheduler "tlk1" with entities [EventEntity, EventEntity], work=189*
 29: 0x0153 [0x01] GOTO 0x01AE
 30: 0x0156 [0x02] IF !(Entity->Race == 7*) GOTO 0x0182
 31: 0x015E [0x66] LOAD_EXT_SCHEDULER_MAIN: Load scheduler "tlk0" with entities [EventEntity, EventEntity], work=199*
 32: 0x016D [0x1C] WAIT(120* ticks)
 33: 0x0170 [0x66] LOAD_EXT_SCHEDULER_MAIN: Load scheduler "tlk1" with entities [EventEntity, EventEntity], work=199*
 34: 0x017F [0x01] GOTO 0x01AE
 35: 0x0182 [0x02] IF !(Entity->Race == 8*) GOTO 0x01AE
 36: 0x018A [0x66] LOAD_EXT_SCHEDULER_MAIN: Load scheduler "tlk0" with entities [EventEntity, EventEntity], work=209*
 37: 0x0199 [0x1C] WAIT(120* ticks)
 38: 0x019C [0x66] LOAD_EXT_SCHEDULER_MAIN: Load scheduler "tlk1" with entities [EventEntity, EventEntity], work=209*
 39: 0x01AB [0x01] GOTO 0x01AE

SUBROUTINE_01AE:
 40: 0x01AE [0x00] END_REQSTACK()
```

### Event 65535.7

#### Metadata

| Field        | Value     |
|--------------|-----------|
| Entrypoint   | 0x01AF    |
| Data Size    | 245 bytes |
| Instructions | 13        |

```
      00 01 02 03 04 05 06 07  08 09 0A 0B 0C 0D 0E 0F
      -- -- -- -- -- -- -- --  -- -- -- -- -- -- -- --
01A0:                                               03                 .
01B0: 07 00 07 7F 1A 35 02 07  08 00 0F 80 66 08 00 F8  .....5......f...
01C0: FF FF 7F F8 FF FF 7F 70  61 73 30 00 3B F8 FF FF  .......pas0.;...
01D0: 7F 01 00 02 00 03 00 3A  F8 FF FF 7F 04 00 17 05  .......:........
01E0: 00 04 00 00 00 16 06 00  04 00 00 00 07 01 00 05  ................
01F0: 00 07 02 00 06 00 1B 17  05 00 04 00 00 00 16 06  ................
0200: 00 04 00 00 00 07 01 00  05 00 07 02 00 06 00 1B  ................
0210: 03 08 00 07 00 02 08 00  18 80 05 25 02 08 08 00  ...........%....
0220: 0F 80 01 2A 02 08 08 00  12 80 14 08 00 1F 80 07  ...*............
0230: 08 00 20 80 1B 03 08 00  07 00 02 08 00 18 80 05  .. .............
0240: 4A 02 08 08 00 0F 80 01  4F 02 08 08 00 12 80 14  J.......O.......
0250: 08 00 1F 80 07 08 00 21  80 1B 03 08 00 07 00 02  .......!........
0260: 08 00 18 80 05 6F 02 08  08 00 0F 80 01 74 02 08  .....o.......t..
0270: 08 00 12 80 14 08 00 1F  80 07 08 00 22 80 1B 03  ............"...
0280: 08 00 07 00 02 08 00 18  80 05 94 02 08 08 00 0F  ................
0290: 80 01 99 02 08 08 00 12  80 14 08 00 1F 80 07 08  ................
02A0: 00 23 80 1B                                       .#..            
```

#### Opcodes

```
  0: 0x01AF [0x03] ExtData[1]->WorkLocal[7] = Entity->Race
  1: 0x01B4 [0x1A] CALL_SUBROUTINE(address=0x0235)
  2: 0x01B7 [0x07] ExtData[1]->WorkLocal[8] += 1*
  3: 0x01BC [0x66] LOAD_EXT_SCHEDULER_MAIN: Load scheduler "pas0" with entities [EventEntity, EventEntity], work=ExtData[1]->WorkLocal[8]
  4: 0x01CB [0x00] END_REQSTACK()

SUBROUTINE_0235:
  5: 0x0235 [0x03] ExtData[1]->WorkLocal[8] = ExtData[1]->WorkLocal[7]
  6: 0x023A [0x02] IF !(ExtData[1]->WorkLocal[8] > 5*) GOTO 0x024A
  7: 0x0242 [0x08] ExtData[1]->WorkLocal[8] -= 1*
  8: 0x0247 [0x01] GOTO 0x024F
  9: 0x024A [0x08] ExtData[1]->WorkLocal[8] -= 2*

SUBROUTINE_024F:
 10: 0x024F [0x14] ExtData[1]->WorkLocal[8] *= 10*
 11: 0x0254 [0x07] ExtData[1]->WorkLocal[8] += 70*
 12: 0x0259 [0x1B] RETURN
```

#### Data or dead code:

```
# Dead code (unreachable instructions):
     0x01CC [0x3B] GET_ENTITY_POSITION(entity=EventEntity, x_destination=ExtData[1]->WorkLocal[1], y_destination=ExtData[1]->WorkLocal[2], z_destination=ExtData[1]->WorkLocal[3])
     0x01D7 [0x3A] CONVERT_YAW_TO_BYTE(entity=EventEntity, result_destination=ExtData[1]->WorkLocal[4])
     0x01DE [0x17] ExtData[1]->WorkLocal[5] = cos(ExtData[1]->WorkLocal[4]) * ExtData[1]->WorkLocal[0]
     0x01E5 [0x16] ExtData[1]->WorkLocal[6] = sin(ExtData[1]->WorkLocal[4]) * ExtData[1]->WorkLocal[0]
     0x01EC [0x07] ExtData[1]->WorkLocal[1] += ExtData[1]->WorkLocal[5]
     0x01F1 [0x07] ExtData[1]->WorkLocal[2] += ExtData[1]->WorkLocal[6]
     0x01F6 [0x1B] RETURN
     0x01F7 [0x17] ExtData[1]->WorkLocal[5] = cos(ExtData[1]->WorkLocal[4]) * ExtData[1]->WorkLocal[0]
     0x01FE [0x16] ExtData[1]->WorkLocal[6] = sin(ExtData[1]->WorkLocal[4]) * ExtData[1]->WorkLocal[0]
     0x0205 [0x07] ExtData[1]->WorkLocal[1] += ExtData[1]->WorkLocal[5]
     0x020A [0x07] ExtData[1]->WorkLocal[2] += ExtData[1]->WorkLocal[6]
     0x020F [0x1B] RETURN
     0x0210 [0x03] ExtData[1]->WorkLocal[8] = ExtData[1]->WorkLocal[7]
     0x0215 [0x02] IF !(ExtData[1]->WorkLocal[8] > 5*) GOTO 0x0225
     0x021D [0x08] ExtData[1]->WorkLocal[8] -= 1*
     0x0222 [0x01] GOTO 0x022A
     0x0225 [0x08] ExtData[1]->WorkLocal[8] -= 2*
     0x022A [0x14] ExtData[1]->WorkLocal[8] *= 10*
     0x022F [0x07] ExtData[1]->WorkLocal[8] += 9*
     0x0234 [0x1B] RETURN
# Dead code (unreachable instructions):
     0x025A [0x03] ExtData[1]->WorkLocal[8] = ExtData[1]->WorkLocal[7]
     0x025F [0x02] IF !(ExtData[1]->WorkLocal[8] > 5*) GOTO 0x026F
     0x0267 [0x08] ExtData[1]->WorkLocal[8] -= 1*
     0x026C [0x01] GOTO 0x0274
     0x026F [0x08] ExtData[1]->WorkLocal[8] -= 2*
     0x0274 [0x14] ExtData[1]->WorkLocal[8] *= 10*
     0x0279 [0x07] ExtData[1]->WorkLocal[8] += 140*
     0x027E [0x1B] RETURN
     0x027F [0x03] ExtData[1]->WorkLocal[8] = ExtData[1]->WorkLocal[7]
     0x0284 [0x02] IF !(ExtData[1]->WorkLocal[8] > 5*) GOTO 0x0294
     0x028C [0x08] ExtData[1]->WorkLocal[8] -= 1*
     0x0291 [0x01] GOTO 0x0299
     0x0294 [0x08] ExtData[1]->WorkLocal[8] -= 2*
     0x0299 [0x14] ExtData[1]->WorkLocal[8] *= 10*
     0x029E [0x07] ExtData[1]->WorkLocal[8] += 210*
     0x02A3 [0x1B] RETURN
```

### Event 220

#### Metadata

| Field        | Value   |
|--------------|---------|
| Entrypoint   | 0x02A4  |
| Data Size    | 1 bytes |
| Instructions | 1       |

```
      00 01 02 03 04 05 06 07  08 09 0A 0B 0C 0D 0E 0F
      -- -- -- -- -- -- -- --  -- -- -- -- -- -- -- --
02A0:             00                                        .           
```

#### Opcodes

```
  0: 0x02A4 [0x00] END_REQSTACK()
```

### Event 221

#### Metadata

| Field        | Value   |
|--------------|---------|
| Entrypoint   | 0x02A5  |
| Data Size    | 1 bytes |
| Instructions | 1       |

```
      00 01 02 03 04 05 06 07  08 09 0A 0B 0C 0D 0E 0F
      -- -- -- -- -- -- -- --  -- -- -- -- -- -- -- --
02A0:                00                                      .          
```

#### Opcodes

```
  0: 0x02A5 [0x00] END_REQSTACK()
```

### Event 230

#### Metadata

| Field        | Value   |
|--------------|---------|
| Entrypoint   | 0x02A6  |
| Data Size    | 1 bytes |
| Instructions | 1       |

```
      00 01 02 03 04 05 06 07  08 09 0A 0B 0C 0D 0E 0F
      -- -- -- -- -- -- -- --  -- -- -- -- -- -- -- --
02A0:                   00                                    .         
```

#### Opcodes

```
  0: 0x02A6 [0x00] END_REQSTACK()
```

### Event 200

#### Metadata

| Field        | Value     |
|--------------|-----------|
| Entrypoint   | 0x02A7    |
| Data Size    | 135 bytes |
| Instructions | 16        |

```
      00 01 02 03 04 05 06 07  08 09 0A 0B 0C 0D 0E 0F
      -- -- -- -- -- -- -- --  -- -- -- -- -- -- -- --
02A0:                      20  01 42 45 24 80 F0 FF FF          .BE$....
02B0: 7F F0 FF FF 7F 66 64 6F  30 25 80 46 01 22 01 47  .....fdo0%.F.".G
02C0: 00 26 80 27 80 28 80 29  80 47 01 55 24 80 F0 FF  .&.'.(.).G.U$...
02D0: FF 7F F0 FF FF 7F 66 64  6F 30 45 24 80 F0 FF FF  ......fdo0E$....
02E0: 7F F0 FF FF 7F 66 64 69  30 25 80 45 10 80 F0 FF  .....fdi0%.E....
02F0: FF 7F F0 FF FF 7F 73 30  31 30 25 80 55 10 80 F0  ......s010%.U...
0300: FF FF 7F F0 FF FF 7F 73  30 31 30 45 24 80 F0 FF  .......s010E$...
0310: FF 7F F0 FF FF 7F 66 64  6F 32 25 80 55 24 80 F0  ......fdo2%.U$..
0320: FF FF 7F F0 FF FF 7F 66  64 6F 32 30 21 00        .......fdo20!.  
```

#### Opcodes

```
  0: 0x02A7 [0x20] SET_CLI_EVENT_UC_FLAG: Lock player control
  1: 0x02A9 [0x42] SET_CLI_EVENT_CANCEL_DATA()
  2: 0x02AA [0x45] LOAD_SCHEDULED_TASK: Load scheduler "fdo0" with entities [LocalPlayer, LocalPlayer], work=[200*, 0*]
  3: 0x02BB [0x46] CAMERA_CONTROL: Disable user control
  4: 0x02BD [0x22] ENTITY_HIDE_FLAG(enabled=0x01)
  5: 0x02BF [0x47] UPDATE_PLAYER_POS(8.112*, 5.239*, -1.362*, yaw=98.6°*)
  6: 0x02C9 [0x47] WAIT_PLAYER_POS_UPDATE
  7: 0x02CB [0x55] WAIT_LOAD_SCHEDULER: Wait for scheduler "fdo0" with entities [LocalPlayer, LocalPlayer], work=200*
  8: 0x02DA [0x45] LOAD_SCHEDULED_TASK: Load scheduler "fdi0" with entities [LocalPlayer, LocalPlayer], work=[200*, 0*]
  9: 0x02EB [0x45] LOAD_SCHEDULED_TASK: Load scheduler "s010" with entities [LocalPlayer, LocalPlayer], work=[149*, 0*]
 10: 0x02FC [0x55] WAIT_LOAD_SCHEDULER: Wait for scheduler "s010" with entities [LocalPlayer, LocalPlayer], work=149*
 11: 0x030B [0x45] LOAD_SCHEDULED_TASK: Load scheduler "fdo2" with entities [LocalPlayer, LocalPlayer], work=[200*, 0*]
 12: 0x031C [0x55] WAIT_LOAD_SCHEDULER: Wait for scheduler "fdo2" with entities [LocalPlayer, LocalPlayer], work=200*
 13: 0x032B [0x30] SET_UCOFF_CONTINUE_ZERO()
 14: 0x032C [0x21] END_EVENT
 15: 0x032D [0x00] END_REQSTACK()
```

### Event 204

#### Metadata

| Field        | Value    |
|--------------|----------|
| Entrypoint   | 0x032E   |
| Data Size    | 87 bytes |
| Instructions | 13       |

```
      00 01 02 03 04 05 06 07  08 09 0A 0B 0C 0D 0E 0F
      -- -- -- -- -- -- -- --  -- -- -- -- -- -- -- --
0320:                                            20 01                 .
0330: 42 45 24 80 F0 FF FF 7F  F0 FF FF 7F 66 64 6F 30  BE$.........fdo0
0340: 25 80 46 01 22 01 47 00  26 80 27 80 28 80 29 80  %.F.".G.&.'.(.).
0350: 47 01 55 24 80 F0 FF FF  7F F0 FF FF 7F 66 64 6F  G.U$.........fdo
0360: 30 46 00 45 24 80 F0 FF  FF 7F F0 FF FF 7F 66 64  0F.E$.........fd
0370: 69 30 25 80 55 24 80 F0  FF FF 7F F0 FF FF 7F 66  i0%.U$.........f
0380: 64 69 30 21 00                                    di0!.           
```

#### Opcodes

```
  0: 0x032E [0x20] SET_CLI_EVENT_UC_FLAG: Lock player control
  1: 0x0330 [0x42] SET_CLI_EVENT_CANCEL_DATA()
  2: 0x0331 [0x45] LOAD_SCHEDULED_TASK: Load scheduler "fdo0" with entities [LocalPlayer, LocalPlayer], work=[200*, 0*]
  3: 0x0342 [0x46] CAMERA_CONTROL: Disable user control
  4: 0x0344 [0x22] ENTITY_HIDE_FLAG(enabled=0x01)
  5: 0x0346 [0x47] UPDATE_PLAYER_POS(8.112*, 5.239*, -1.362*, yaw=98.6°*)
  6: 0x0350 [0x47] WAIT_PLAYER_POS_UPDATE
  7: 0x0352 [0x55] WAIT_LOAD_SCHEDULER: Wait for scheduler "fdo0" with entities [LocalPlayer, LocalPlayer], work=200*
  8: 0x0361 [0x46] CAMERA_CONTROL: Restore default settings
  9: 0x0363 [0x45] LOAD_SCHEDULED_TASK: Load scheduler "fdi0" with entities [LocalPlayer, LocalPlayer], work=[200*, 0*]
 10: 0x0374 [0x55] WAIT_LOAD_SCHEDULER: Wait for scheduler "fdi0" with entities [LocalPlayer, LocalPlayer], work=200*
 11: 0x0383 [0x21] END_EVENT
 12: 0x0384 [0x00] END_REQSTACK()
```

### Event 65535.8

#### Metadata

| Field        | Value     |
|--------------|-----------|
| Entrypoint   | 0x0385    |
| Data Size    | 107 bytes |
| Instructions | 21        |

```
      00 01 02 03 04 05 06 07  08 09 0A 0B 0C 0D 0E 0F
      -- -- -- -- -- -- -- --  -- -- -- -- -- -- -- --
0380:                32 08 80  29 80 3C 90 0F 01 03 29       2..).<....)
0390: 80 39 90 0F 01 04 02 02  7F 2A 80 04 C0 03 02 00  .9.......*......
03A0: 7F 2B 80 04 B3 03 1F 00  2C 80 2D 80 2E 80 1F 01  .+......,.-.....
03B0: 01 BD 03 1F 00 2F 80 30  80 2E 80 1F 01 01 CA 03  ...../.0........
03C0: 1F 00 2C 80 2D 80 2E 80  1F 01 1F 00 31 80 32 80  ..,.-.......1.2.
03D0: 2E 80 1F 01 6F 47 00 31  80 32 80 2E 80 03 7F 47  ....oG.1.2.....G
03E0: 01 29 80 39 90 0F 01 05  29 80 3C 90 0F 01 04 00  .).9....).<.....
```

#### Opcodes

```
  0: 0x0385 [0x32] ExtData[1]->MainSpeed = 13* * 0.1
  1: 0x0388 [0x29] REQ_SET_WAIT(priority=0x80, entity_id=Unknown NPC (ID: 17797180/0x010F903C), tag_num=0x03)
  2: 0x038F [0x29] REQ_SET_WAIT(priority=0x80, entity_id=Standing Bear (ID: 17797177/0x010F9039), tag_num=0x04)
  3: 0x0396 [0x02] IF !(ExtData[1]->EventPos[2] * 1000.0 < 41500*) GOTO 0x03C0
  4: 0x039E [0x02] IF !(ExtData[1]->EventPos[0] * 1000.0 < 47000*) GOTO 0x03B3
  5: 0x03A6 [0x1F] MOVE_ENTITY: EventEntity moves to X=48.262*, Z=39.316*, Y=-8.000*
  6: 0x03AE [0x1F] MOVE_ENTITY: Update entity position (mode=1)
  7: 0x03B0 [0x01] GOTO 0x03BD
  8: 0x03B3 [0x1F] MOVE_ENTITY: EventEntity moves to X=48.064*, Z=41.908*, Y=-8.000*
  9: 0x03BB [0x1F] MOVE_ENTITY: Update entity position (mode=1)

SUBROUTINE_03BD:
 10: 0x03BD [0x01] GOTO 0x03CA
 11: 0x03C0 [0x1F] MOVE_ENTITY: EventEntity moves to X=48.262*, Z=39.316*, Y=-8.000*
 12: 0x03C8 [0x1F] MOVE_ENTITY: Update entity position (mode=1)

SUBROUTINE_03CA:
 13: 0x03CA [0x1F] MOVE_ENTITY: EventEntity moves to X=48.335*, Z=35.921*, Y=-8.000*
 14: 0x03D2 [0x1F] MOVE_ENTITY: Update entity position (mode=1)
 15: 0x03D4 [0x6F] WAIT_FRAME_DELAY: Yield until WaitTime reaches zero
 16: 0x03D5 [0x47] UPDATE_PLAYER_POS(48.335*, 35.921*, -8.000*, yaw=enDirCli(ExtData[1]->EventDir[1]) * 4096.0 * 0.15915963)
 17: 0x03DF [0x47] WAIT_PLAYER_POS_UPDATE
 18: 0x03E1 [0x29] REQ_SET_WAIT(priority=0x80, entity_id=Standing Bear (ID: 17797177/0x010F9039), tag_num=0x05)
 19: 0x03E8 [0x29] REQ_SET_WAIT(priority=0x80, entity_id=Unknown NPC (ID: 17797180/0x010F903C), tag_num=0x04)
 20: 0x03EF [0x00] END_REQSTACK()
```

### Event 65535.9

#### Metadata

| Field        | Value    |
|--------------|----------|
| Entrypoint   | 0x03F0   |
| Data Size    | 86 bytes |
| Instructions | 17       |

```
      00 01 02 03 04 05 06 07  08 09 0A 0B 0C 0D 0E 0F
      -- -- -- -- -- -- -- --  -- -- -- -- -- -- -- --
03F0: 32 08 80 29 80 3B 90 0F  01 02 29 80 38 90 0F 01  2..).;....).8...
0400: 04 02 02 7F 33 80 05 16  04 1F 00 34 80 35 80 2E  ....3......4.5..
0410: 80 1F 01 01 20 04 1F 00  36 80 37 80 2E 80 1F 01  .... ...6.7.....
0420: 1F 00 38 80 39 80 2E 80  1F 01 6F 47 00 38 80 39  ..8.9.....oG.8.9
0430: 80 2E 80 03 7F 47 01 29  80 38 90 0F 01 05 29 80  .....G.).8....).
0440: 3B 90 0F 01 03 00                                 ;.....          
```

#### Opcodes

```
  0: 0x03F0 [0x32] ExtData[1]->MainSpeed = 13* * 0.1
  1: 0x03F3 [0x29] REQ_SET_WAIT(priority=0x80, entity_id=Unknown NPC (ID: 17797179/0x010F903B), tag_num=0x02)
  2: 0x03FA [0x29] REQ_SET_WAIT(priority=0x80, entity_id=Condor Eye (ID: 17797176/0x010F9038), tag_num=0x04)
  3: 0x0401 [0x02] IF !(ExtData[1]->EventPos[2] * 1000.0 > 35500*) GOTO 0x0416
  4: 0x0409 [0x1F] MOVE_ENTITY: EventEntity moves to X=31.184*, Z=34.610*, Y=-8.000*
  5: 0x0411 [0x1F] MOVE_ENTITY: Update entity position (mode=1)
  6: 0x0413 [0x01] GOTO 0x0420
  7: 0x0416 [0x1F] MOVE_ENTITY: EventEntity moves to X=30.937*, Z=37.538*, Y=-8.000*
  8: 0x041E [0x1F] MOVE_ENTITY: Update entity position (mode=1)

SUBROUTINE_0420:
  9: 0x0420 [0x1F] MOVE_ENTITY: EventEntity moves to X=30.904*, Z=40.582*, Y=-8.000*
 10: 0x0428 [0x1F] MOVE_ENTITY: Update entity position (mode=1)
 11: 0x042A [0x6F] WAIT_FRAME_DELAY: Yield until WaitTime reaches zero
 12: 0x042B [0x47] UPDATE_PLAYER_POS(30.904*, 40.582*, -8.000*, yaw=enDirCli(ExtData[1]->EventDir[1]) * 4096.0 * 0.15915963)
 13: 0x0435 [0x47] WAIT_PLAYER_POS_UPDATE
 14: 0x0437 [0x29] REQ_SET_WAIT(priority=0x80, entity_id=Condor Eye (ID: 17797176/0x010F9038), tag_num=0x05)
 15: 0x043E [0x29] REQ_SET_WAIT(priority=0x80, entity_id=Unknown NPC (ID: 17797179/0x010F903B), tag_num=0x03)
 16: 0x0445 [0x00] END_REQSTACK()
```

### Event 201

#### Metadata

| Field        | Value    |
|--------------|----------|
| Entrypoint   | 0x0446   |
| Data Size    | 22 bytes |
| Instructions | 8        |

```
      00 01 02 03 04 05 06 07  08 09 0A 0B 0C 0D 0E 0F
      -- -- -- -- -- -- -- --  -- -- -- -- -- -- -- --
0440:                   20 01  42 47 00 3A 80 3B 80 2E         .BG.:.;..
0450: 80 3C 80 47 01 1C 1F 80  46 00 21 00              .<.G....F.!.    
```

#### Opcodes

```
  0: 0x0446 [0x20] SET_CLI_EVENT_UC_FLAG: Lock player control
  1: 0x0448 [0x42] SET_CLI_EVENT_CANCEL_DATA()
  2: 0x0449 [0x47] UPDATE_PLAYER_POS(16.546*, 54.242*, -8.000*, yaw=60.0°*)
  3: 0x0453 [0x47] WAIT_PLAYER_POS_UPDATE
  4: 0x0455 [0x1C] WAIT(10* ticks)
  5: 0x0458 [0x46] CAMERA_CONTROL: Restore default settings
  6: 0x045A [0x21] END_EVENT
  7: 0x045B [0x00] END_REQSTACK()
```

### Event 203

#### Metadata

| Field        | Value    |
|--------------|----------|
| Entrypoint   | 0x045C   |
| Data Size    | 22 bytes |
| Instructions | 8        |

```
      00 01 02 03 04 05 06 07  08 09 0A 0B 0C 0D 0E 0F
      -- -- -- -- -- -- -- --  -- -- -- -- -- -- -- --
0450:                                      20 01 42 47               .BG
0460: 00 26 80 27 80 28 80 29  80 47 01 1C 1F 80 46 00  .&.'.(.).G....F.
0470: 21 00                                             !.              
```

#### Opcodes

```
  0: 0x045C [0x20] SET_CLI_EVENT_UC_FLAG: Lock player control
  1: 0x045E [0x42] SET_CLI_EVENT_CANCEL_DATA()
  2: 0x045F [0x47] UPDATE_PLAYER_POS(8.112*, 5.239*, -1.362*, yaw=98.6°*)
  3: 0x0469 [0x47] WAIT_PLAYER_POS_UPDATE
  4: 0x046B [0x1C] WAIT(10* ticks)
  5: 0x046E [0x46] CAMERA_CONTROL: Restore default settings
  6: 0x0470 [0x21] END_EVENT
  7: 0x0471 [0x00] END_REQSTACK()
```

### Event 202

#### Metadata

| Field        | Value    |
|--------------|----------|
| Entrypoint   | 0x0472   |
| Data Size    | 46 bytes |
| Instructions | 9        |

```
      00 01 02 03 04 05 06 07  08 09 0A 0B 0C 0D 0E 0F
      -- -- -- -- -- -- -- --  -- -- -- -- -- -- -- --
0470:       20 01 42 45 24 80  F0 FF FF 7F F0 FF FF 7F     .BE$.........
0480: 66 64 69 32 25 80 46 01  45 10 80 F0 FF FF 7F F0  fdi2%.F.E.......
0490: FF FF 7F 73 30 30 30 25  80 1C 3D 80 46 00 21 00  ...s000%..=.F.!.
```

#### Opcodes

```
  0: 0x0472 [0x20] SET_CLI_EVENT_UC_FLAG: Lock player control
  1: 0x0474 [0x42] SET_CLI_EVENT_CANCEL_DATA()
  2: 0x0475 [0x45] LOAD_SCHEDULED_TASK: Load scheduler "fdi2" with entities [LocalPlayer, LocalPlayer], work=[200*, 0*]
  3: 0x0486 [0x46] CAMERA_CONTROL: Disable user control
  4: 0x0488 [0x45] LOAD_SCHEDULED_TASK: Load scheduler "s000" with entities [LocalPlayer, LocalPlayer], work=[149*, 0*]
  5: 0x0499 [0x1C] WAIT(900* ticks)
  6: 0x049C [0x46] CAMERA_CONTROL: Restore default settings
  7: 0x049E [0x21] END_EVENT
  8: 0x049F [0x00] END_REQSTACK()
```

### Event 332

#### Metadata

| Field        | Value    |
|--------------|----------|
| Entrypoint   | 0x04A0   |
| Data Size    | 87 bytes |
| Instructions | 13       |

```
      00 01 02 03 04 05 06 07  08 09 0A 0B 0C 0D 0E 0F
      -- -- -- -- -- -- -- --  -- -- -- -- -- -- -- --
04A0: 20 01 42 45 24 80 F0 FF  FF 7F F0 FF FF 7F 66 64   .BE$.........fd
04B0: 6F 30 25 80 46 01 22 01  47 00 26 80 27 80 28 80  o0%.F.".G.&.'.(.
04C0: 29 80 47 01 55 24 80 F0  FF FF 7F F0 FF FF 7F 66  ).G.U$.........f
04D0: 64 6F 30 46 00 45 24 80  F0 FF FF 7F F0 FF FF 7F  do0F.E$.........
04E0: 66 64 69 30 25 80 55 24  80 F0 FF FF 7F F0 FF FF  fdi0%.U$........
04F0: 7F 66 64 69 30 21 00                              .fdi0!.         
```

#### Opcodes

```
  0: 0x04A0 [0x20] SET_CLI_EVENT_UC_FLAG: Lock player control
  1: 0x04A2 [0x42] SET_CLI_EVENT_CANCEL_DATA()
  2: 0x04A3 [0x45] LOAD_SCHEDULED_TASK: Load scheduler "fdo0" with entities [LocalPlayer, LocalPlayer], work=[200*, 0*]
  3: 0x04B4 [0x46] CAMERA_CONTROL: Disable user control
  4: 0x04B6 [0x22] ENTITY_HIDE_FLAG(enabled=0x01)
  5: 0x04B8 [0x47] UPDATE_PLAYER_POS(8.112*, 5.239*, -1.362*, yaw=98.6°*)
  6: 0x04C2 [0x47] WAIT_PLAYER_POS_UPDATE
  7: 0x04C4 [0x55] WAIT_LOAD_SCHEDULER: Wait for scheduler "fdo0" with entities [LocalPlayer, LocalPlayer], work=200*
  8: 0x04D3 [0x46] CAMERA_CONTROL: Restore default settings
  9: 0x04D5 [0x45] LOAD_SCHEDULED_TASK: Load scheduler "fdi0" with entities [LocalPlayer, LocalPlayer], work=[200*, 0*]
 10: 0x04E6 [0x55] WAIT_LOAD_SCHEDULER: Wait for scheduler "fdi0" with entities [LocalPlayer, LocalPlayer], work=200*
 11: 0x04F5 [0x21] END_EVENT
 12: 0x04F6 [0x00] END_REQSTACK()
```

### Event 124

#### Metadata

| Field        | Value   |
|--------------|---------|
| Entrypoint   | 0x04F7  |
| Data Size    | 1 bytes |
| Instructions | 1       |

```
      00 01 02 03 04 05 06 07  08 09 0A 0B 0C 0D 0E 0F
      -- -- -- -- -- -- -- --  -- -- -- -- -- -- -- --
04F0:                      00                                  .        
```

#### Opcodes

```
  0: 0x04F7 [0x00] END_REQSTACK()
```

### Event 65535.10

#### Metadata

| Field        | Value    |
|--------------|----------|
| Entrypoint   | 0x04F8   |
| Data Size    | 10 bytes |
| Instructions | 2        |

```
      00 01 02 03 04 05 06 07  08 09 0A 0B 0C 0D 0E 0F
      -- -- -- -- -- -- -- --  -- -- -- -- -- -- -- --
04F0:                          37 3E 80 3F 80 40 80 41          7>.?.@.A
0500: 80 00                                             ..              
```

#### Opcodes

```
  0: 0x04F8 [0x37] UPDATE_EVENT_POSITION_AND_DIR: x=24.309*, z=39.924*, y=-7.779*, direction=126.2°*
  1: 0x0501 [0x00] END_REQSTACK()
```

### Event 127

#### Metadata

| Field        | Value   |
|--------------|---------|
| Entrypoint   | 0x0502  |
| Data Size    | 1 bytes |
| Instructions | 1       |

```
      00 01 02 03 04 05 06 07  08 09 0A 0B 0C 0D 0E 0F
      -- -- -- -- -- -- -- --  -- -- -- -- -- -- -- --
0500:       00                                            .             
```

#### Opcodes

```
  0: 0x0502 [0x00] END_REQSTACK()
```

### Event 65535.11

#### Metadata

| Field        | Value    |
|--------------|----------|
| Entrypoint   | 0x0503   |
| Data Size    | 10 bytes |
| Instructions | 2        |

```
      00 01 02 03 04 05 06 07  08 09 0A 0B 0C 0D 0E 0F
      -- -- -- -- -- -- -- --  -- -- -- -- -- -- -- --
0500:          37 42 80 43 80  0B 80 44 80 00              7B.C...D..   
```

#### Opcodes

```
  0: 0x0503 [0x37] UPDATE_EVENT_POSITION_AND_DIR: x=-40.023*, z=70.640*, y=-16.000*, direction=20.8°*
  1: 0x050C [0x00] END_REQSTACK()
```

### Event 65534

#### Metadata

| Field        | Value   |
|--------------|---------|
| Entrypoint   | 0x050D  |
| Data Size    | 1 bytes |
| Instructions | 1       |

```
      00 01 02 03 04 05 06 07  08 09 0A 0B 0C 0D 0E 0F
      -- -- -- -- -- -- -- --  -- -- -- -- -- -- -- --
0500:                                         00                     .  
```

#### Opcodes

```
  0: 0x050D [0x00] END_REQSTACK()
```

### Event 65535.12

#### Metadata

| Field        | Value    |
|--------------|----------|
| Entrypoint   | 0x050E   |
| Data Size    | 10 bytes |
| Instructions | 2        |

```
      00 01 02 03 04 05 06 07  08 09 0A 0B 0C 0D 0E 0F
      -- -- -- -- -- -- -- --  -- -- -- -- -- -- -- --
0500:                                            37 45                7E
0510: 80 46 80 47 80 48 80 00                           .F.G.H..        
```

#### Opcodes

```
  0: 0x050E [0x37] UPDATE_EVENT_POSITION_AND_DIR: x=-44.072*, z=31.315*, y=-15.896*, direction=39.3°*
  1: 0x0517 [0x00] END_REQSTACK()
```

### Event 65535.13

#### Metadata

| Field        | Value    |
|--------------|----------|
| Entrypoint   | 0x0518   |
| Data Size    | 10 bytes |
| Instructions | 2        |

```
      00 01 02 03 04 05 06 07  08 09 0A 0B 0C 0D 0E 0F
      -- -- -- -- -- -- -- --  -- -- -- -- -- -- -- --
0510:                          37 49 80 4A 80 0B 80 4B          7I.J...K
0520: 80 00                                             ..              
```

#### Opcodes

```
  0: 0x0518 [0x37] UPDATE_EVENT_POSITION_AND_DIR: x=-63.472*, z=30.680*, y=-16.000*, direction=140.3°*
  1: 0x0521 [0x00] END_REQSTACK()
```

### Event 65535.14

#### Metadata

| Field        | Value    |
|--------------|----------|
| Entrypoint   | 0x0522   |
| Data Size    | 14 bytes |
| Instructions | 4        |

```
      00 01 02 03 04 05 06 07  08 09 0A 0B 0C 0D 0E 0F
      -- -- -- -- -- -- -- --  -- -- -- -- -- -- -- --
0520:       32 08 80 1F 00 4C  80 4D 80 4E 80 1F 01 00    2....L.M.N....
```

#### Opcodes

```
  0: 0x0522 [0x32] ExtData[1]->MainSpeed = 13* * 0.1
  1: 0x0525 [0x1F] MOVE_ENTITY: EventEntity moves to X=-45.320*, Z=33.100*, Y=-15.923*
  2: 0x052D [0x1F] MOVE_ENTITY: Update entity position (mode=1)
  3: 0x052F [0x00] END_REQSTACK()
```

### Event 65535.15

#### Metadata

| Field        | Value   |
|--------------|---------|
| Entrypoint   | 0x0530  |
| Data Size    | 6 bytes |
| Instructions | 2       |

```
      00 01 02 03 04 05 06 07  08 09 0A 0B 0C 0D 0E 0F
      -- -- -- -- -- -- -- --  -- -- -- -- -- -- -- --
0530: 03 02 10 0B 7F 00                                 ......          
```

#### Opcodes

```
  0: 0x0530 [0x03] Work_Zone[2] = (Entity->Render.Flags01 >> 25) & 1
  1: 0x0535 [0x00] END_REQSTACK()
```

### Event 65535.16

#### Metadata

| Field        | Value   |
|--------------|---------|
| Entrypoint   | 0x0536  |
| Data Size    | 6 bytes |
| Instructions | 2       |

```
      00 01 02 03 04 05 06 07  08 09 0A 0B 0C 0D 0E 0F
      -- -- -- -- -- -- -- --  -- -- -- -- -- -- -- --
0530:                   03 02  10 07 7F 00                    ......    
```

#### Opcodes

```
  0: 0x0536 [0x03] Work_Zone[2] = Entity->Race
  1: 0x053B [0x00] END_REQSTACK()
```

### Event 65535.17

#### Metadata

| Field        | Value   |
|--------------|---------|
| Entrypoint   | 0x053C  |
| Data Size    | 6 bytes |
| Instructions | 2       |

```
      00 01 02 03 04 05 06 07  08 09 0A 0B 0C 0D 0E 0F
      -- -- -- -- -- -- -- --  -- -- -- -- -- -- -- --
0530:                                      03 09 10 07              ....
0540: 7F 00                                             ..              
```

#### Opcodes

```
  0: 0x053C [0x03] Work_Zone[9] = Entity->Race
  1: 0x0541 [0x00] END_REQSTACK()
```

### Event 65535.18

#### Metadata

| Field        | Value   |
|--------------|---------|
| Entrypoint   | 0x0542  |
| Data Size    | 6 bytes |
| Instructions | 2       |

```
      00 01 02 03 04 05 06 07  08 09 0A 0B 0C 0D 0E 0F
      -- -- -- -- -- -- -- --  -- -- -- -- -- -- -- --
0540:       03 09 10 06 7F 00                             ......        
```

#### Opcodes

```
  0: 0x0542 [0x03] Work_Zone[9] = Entity->JobId (if LocalPlayer)
  1: 0x0547 [0x00] END_REQSTACK()
```

### Event 65535.19

#### Metadata

| Field        | Value     |
|--------------|-----------|
| Entrypoint   | 0x0548    |
| Data Size    | 121 bytes |
| Instructions | 19        |

```
      00 01 02 03 04 05 06 07  08 09 0A 0B 0C 0D 0E 0F
      -- -- -- -- -- -- -- --  -- -- -- -- -- -- -- --
0540:                          02 04 10 25 80 80 5C 05          ...%..\.
0550: 37 4F 80 50 80 51 80 1E  80 01 C0 05 02 04 10 0F  7O.P.Q..........
0560: 80 80 70 05 37 52 80 53  80 54 80 55 80 01 C0 05  ..p.7R.S.T.U....
0570: 02 04 10 12 80 80 84 05  37 56 80 57 80 58 80 59  ........7V.W.X.Y
0580: 80 01 C0 05 02 04 10 14  80 80 98 05 37 5A 80 5B  ............7Z.[
0590: 80 5C 80 5D 80 01 C0 05  02 04 10 16 80 80 AC 05  .\.]............
05A0: 37 5E 80 5F 80 25 80 60  80 01 C0 05 02 04 10 18  7^._.%.`........
05B0: 80 80 C0 05 37 61 80 62  80 63 80 64 80 01 C0 05  ....7a.b.c.d....
05C0: 00                                                .               
```

#### Opcodes

```
  0: 0x0548 [0x02] IF !(Work_Zone[4] == 0*) GOTO 0x055C
  1: 0x0550 [0x37] UPDATE_EVENT_POSITION_AND_DIR: x=98.226*, z=-97.241*, y=-13.999*, direction=18.4°*
  2: 0x0559 [0x01] GOTO 0x05C0
  3: 0x055C [0x02] IF !(Work_Zone[4] == 1*) GOTO 0x0570
  4: 0x0564 [0x37] UPDATE_EVENT_POSITION_AND_DIR: x=35.388*, z=-41.034*, y=7.499*, direction=176.2°*
  5: 0x056D [0x01] GOTO 0x05C0
  6: 0x0570 [0x02] IF !(Work_Zone[4] == 2*) GOTO 0x0584
  7: 0x0578 [0x37] UPDATE_EVENT_POSITION_AND_DIR: x=-13.961*, z=-20.697*, y=1.097*, direction=354.5°*
  8: 0x0581 [0x01] GOTO 0x05C0
  9: 0x0584 [0x02] IF !(Work_Zone[4] == 3*) GOTO 0x0598
 10: 0x058C [0x37] UPDATE_EVENT_POSITION_AND_DIR: x=-17.871*, z=-11.595*, y=7.652*, direction=23.2°*
 11: 0x0595 [0x01] GOTO 0x05C0
 12: 0x0598 [0x02] IF !(Work_Zone[4] == 4*) GOTO 0x05AC
 13: 0x05A0 [0x37] UPDATE_EVENT_POSITION_AND_DIR: x=-186.234*, z=108.403*, y=0.000*, direction=210.8°*
 14: 0x05A9 [0x01] GOTO 0x05C0
 15: 0x05AC [0x02] IF !(Work_Zone[4] == 5*) GOTO 0x05C0
 16: 0x05B4 [0x37] UPDATE_EVENT_POSITION_AND_DIR: x=29.370*, z=57.233*, y=-15.802*, direction=69.3°*
 17: 0x05BD [0x01] GOTO 0x05C0

SUBROUTINE_05C0:
 18: 0x05C0 [0x00] END_REQSTACK()
```

### Event 65535.20

#### Metadata

| Field        | Value    |
|--------------|----------|
| Entrypoint   | 0x05C1   |
| Data Size    | 10 bytes |
| Instructions | 2        |

```
      00 01 02 03 04 05 06 07  08 09 0A 0B 0C 0D 0E 0F
      -- -- -- -- -- -- -- --  -- -- -- -- -- -- -- --
05C0:    37 65 80 66 80 67 80  68 80 00                  7e.f.g.h..     
```

#### Opcodes

```
  0: 0x05C1 [0x37] UPDATE_EVENT_POSITION_AND_DIR: x=21.982*, z=30.049*, y=-18.138*, direction=298.8°*
  1: 0x05CA [0x00] END_REQSTACK()
```

### Event 65535.21

#### Metadata

| Field        | Value    |
|--------------|----------|
| Entrypoint   | 0x05CB   |
| Data Size    | 27 bytes |
| Instructions | 6        |

```
      00 01 02 03 04 05 06 07  08 09 0A 0B 0C 0D 0E 0F
      -- -- -- -- -- -- -- --  -- -- -- -- -- -- -- --
05C0:                                   7B F0 FF FF 7F             {....
05D0: 1C 69 80 79 00 F0 FF FF  7F 6B 90 0F 01 1C 69 80  .i.y.....k....i.
05E0: 7B F0 FF FF 7F 00                                 {.....          
```

#### Opcodes

```
  0: 0x05CB [0x7B] LocalPlayer stops talking
  1: 0x05D0 [0x1C] WAIT(30* ticks)
  2: 0x05D3 [0x79] LocalPlayer looks at Talking Doll (ID: 17797227/0x010F906B) (Basic look)
  3: 0x05DD [0x1C] WAIT(30* ticks)
  4: 0x05E0 [0x7B] LocalPlayer stops talking
  5: 0x05E5 [0x00] END_REQSTACK()
```

### Event 65535.22

#### Metadata

| Field        | Value   |
|--------------|---------|
| Entrypoint   | 0x05E6  |
| Data Size    | 6 bytes |
| Instructions | 2       |

```
      00 01 02 03 04 05 06 07  08 09 0A 0B 0C 0D 0E 0F
      -- -- -- -- -- -- -- --  -- -- -- -- -- -- -- --
05E0:                   03 09  10 07 7F 00                    ......    
```

#### Opcodes

```
  0: 0x05E6 [0x03] Work_Zone[9] = Entity->Race
  1: 0x05EB [0x00] END_REQSTACK()
```

### Event 65535.23

#### Metadata

| Field        | Value    |
|--------------|----------|
| Entrypoint   | 0x05EC   |
| Data Size    | 10 bytes |
| Instructions | 2        |

```
      00 01 02 03 04 05 06 07  08 09 0A 0B 0C 0D 0E 0F
      -- -- -- -- -- -- -- --  -- -- -- -- -- -- -- --
05E0:                                      37 52 80 53              7R.S
05F0: 80 54 80 55 80 00                                 .T.U..          
```

#### Opcodes

```
  0: 0x05EC [0x37] UPDATE_EVENT_POSITION_AND_DIR: x=35.388*, z=-41.034*, y=7.499*, direction=176.2°*
  1: 0x05F5 [0x00] END_REQSTACK()
```

### Event 65535.24

#### Metadata

| Field        | Value    |
|--------------|----------|
| Entrypoint   | 0x05F6   |
| Data Size    | 10 bytes |
| Instructions | 2        |

```
      00 01 02 03 04 05 06 07  08 09 0A 0B 0C 0D 0E 0F
      -- -- -- -- -- -- -- --  -- -- -- -- -- -- -- --
05F0:                   37 5E  80 5F 80 25 80 60 80 00        7^._.%.`..
```

#### Opcodes

```
  0: 0x05F6 [0x37] UPDATE_EVENT_POSITION_AND_DIR: x=-186.234*, z=108.403*, y=0.000*, direction=210.8°*
  1: 0x05FF [0x00] END_REQSTACK()
```

### Event 65535.25

#### Metadata

| Field        | Value    |
|--------------|----------|
| Entrypoint   | 0x0600   |
| Data Size    | 10 bytes |
| Instructions | 2        |

```
      00 01 02 03 04 05 06 07  08 09 0A 0B 0C 0D 0E 0F
      -- -- -- -- -- -- -- --  -- -- -- -- -- -- -- --
0600: 37 6A 80 6B 80 6C 80 6D  80 00                    7j.k.l.m..      
```

#### Opcodes

```
  0: 0x0600 [0x37] UPDATE_EVENT_POSITION_AND_DIR: x=-17.766*, z=-11.913*, y=7.645*, direction=1.3°*
  1: 0x0609 [0x00] END_REQSTACK()
```

### Event 65535.26

#### Metadata

| Field        | Value    |
|--------------|----------|
| Entrypoint   | 0x060A   |
| Data Size    | 10 bytes |
| Instructions | 2        |

```
      00 01 02 03 04 05 06 07  08 09 0A 0B 0C 0D 0E 0F
      -- -- -- -- -- -- -- --  -- -- -- -- -- -- -- --
0600:                                37 6E 80 6F 80 0B            7n.o..
0610: 80 70 80 00                                       .p..            
```

#### Opcodes

```
  0: 0x060A [0x37] UPDATE_EVENT_POSITION_AND_DIR: x=-37.582*, z=69.111*, y=-16.000*, direction=204.5°*
  1: 0x0613 [0x00] END_REQSTACK()
```

### Event 320

#### Metadata

| Field        | Value     |
|--------------|-----------|
| Entrypoint   | 0x0614    |
| Data Size    | 632 bytes |
| Instructions | 74        |

```
      00 01 02 03 04 05 06 07  08 09 0A 0B 0C 0D 0E 0F
      -- -- -- -- -- -- -- --  -- -- -- -- -- -- -- --
0610:             42 03 02 10  71 80 75 00 72 80 75 01      B...q.u.r.u.
0620: 45 24 80 F8 FF FF 7F F8  FF FF 7F 66 64 6F 31 25  E$.........fdo1%
0630: 80 55 24 80 F8 FF FF 7F  F8 FF FF 7F 66 64 6F 31  .U$.........fdo1
0640: 46 01 38 73 80 37 74 80  75 80 0B 80 76 80 1E 6F  F.8s.7t.u...v..o
0650: 90 0F 01 45 77 80 F0 FF  FF 7F F0 FF FF 7F 73 31  ...Ew.........s1
0660: 31 30 25 80 1C 78 80 45  24 80 F8 FF FF 7F F8 FF  10%..x.E$.......
0670: FF 7F 66 64 69 31 25 80  1C 78 80 2B 6F 90 0F 01  ..fdi1%..x.+o...
0680: 79 80 23 1C 78 80 45 24  80 F0 FF FF 7F F0 FF FF  y.#.x.E$........
0690: 7F 6F 76 6C 31 25 80 52  77 80 F0 FF FF 7F F0 FF  .ovl1%.Rw.......
06A0: FF 7F 73 31 31 30 22 01  45 77 80 F0 FF FF 7F F0  ..s110".Ew......
06B0: FF FF 7F 73 31 30 31 25  80 66 1D 80 6F 90 0F 01  ...s101%.f..o...
06C0: 6F 90 0F 01 75 72 65 30  2B 6F 90 0F 01 7A 80 23  o...ure0+o...z.#
06D0: 1C 7B 80 2B 6F 90 0F 01  7C 80 23 45 24 80 F8 FF  .{.+o...|.#E$...
06E0: FF 7F F8 FF FF 7F 66 64  6F 32 25 80 55 24 80 F8  ......fdo2%.U$..
06F0: FF FF 7F F8 FF FF 7F 66  64 6F 32 52 77 80 F0 FF  .......fdo2Rw...
0700: FF 7F F0 FF FF 7F 73 31  30 31 66 7D 80 6F 90 0F  ......s101f}.o..
0710: 01 6F 90 0F 01 74 68 6B  31 2B 6F 90 0F 01 7E 80  .o...thk1+o...~.
0720: 23 45 77 80 F0 FF FF 7F  F0 FF FF 7F 73 31 30 32  #Ew.........s102
0730: 25 80 45 24 80 F8 FF FF  7F F8 FF FF 7F 66 64 69  %.E$.........fdi
0740: 32 25 80 1C 11 80 2B 6F  90 0F 01 7F 80 23 66 7D  2%....+o.....#f}
0750: 80 6F 90 0F 01 6F 90 0F  01 74 68 6B 32 1C 78 80  .o...o...thk2.x.
0760: 66 80 80 6F 90 0F 01 6F  90 0F 01 64 69 73 30 2B  f..o...o...dis0+
0770: 6F 90 0F 01 81 80 23 1C  7B 80 45 24 80 F0 FF FF  o.....#.{.E$....
0780: 7F F0 FF FF 7F 6F 76 6C  31 25 80 52 77 80 F0 FF  .....ovl1%.Rw...
0790: FF 7F F0 FF FF 7F 73 31  30 32 45 82 80 F0 FF FF  ......s102E.....
07A0: 7F F0 FF FF 7F 73 30 33  38 25 80 1C 78 80 66 7D  .....s038%..x.f}
07B0: 80 6F 90 0F 01 6F 90 0F  01 74 6C 6B 30 2B 6F 90  .o...o...tlk0+o.
07C0: 0F 01 83 80 23 1C 69 80  66 7D 80 6F 90 0F 01 6F  ....#.i.f}.o...o
07D0: 90 0F 01 74 6C 6B 32 2B  6F 90 0F 01 84 80 23 4A  ...tlk2+o.....#J
07E0: 6F 90 0F 01 F0 FF FF 7F  52 82 80 F0 FF FF 7F F0  o.......R.......
07F0: FF FF 7F 73 30 33 38 22  00 45 82 80 F0 FF FF 7F  ...s038".E......
0800: F0 FF FF 7F 73 30 33 39  25 80 1C 69 80 66 7D 80  ....s039%..i.f}.
0810: 6F 90 0F 01 6F 90 0F 01  74 6C 6B 30 2B 6F 90 0F  o...o...tlk0+o..
0820: 01 85 80 23 66 7D 80 6F  90 0F 01 6F 90 0F 01 74  ...#f}.o...o...t
0830: 6C 6B 32 1C 78 80 45 24  80 F8 FF FF 7F F8 FF FF  lk2.x.E$........
0840: 7F 66 64 6F 31 25 80 55  24 80 F8 FF FF 7F F8 FF  .fdo1%.U$.......
0850: FF 7F 66 64 6F 31 66 86  80 6F 90 0F 01 6F 90 0F  ..fdo1f..o...o..
0860: 01 74 6C 62 31 52 82 80  F0 FF FF 7F F0 FF FF 7F  .tlb1R..........
0870: 73 30 33 39 46 00 1C 78  80 45 24 80 F8 FF FF 7F  s039F..x.E$.....
0880: F8 FF FF 7F 66 64 69 31  25 80 21 00              ....fdi1%.!.    
```

#### Opcodes

```
  0: 0x0614 [0x42] SET_CLI_EVENT_CANCEL_DATA()
  1: 0x0615 [0x03] Work_Zone[2] = 704*
  2: 0x061A [0x75] LOAD_ROOM(Load indoor room, room=488*)
  3: 0x061E [0x75] LOAD_ROOM(No action)
  4: 0x0620 [0x45] LOAD_SCHEDULED_TASK: Load scheduler "fdo1" with entities [EventEntity, EventEntity], work=[200*, 0*]
  5: 0x0631 [0x55] WAIT_LOAD_SCHEDULER: Wait for scheduler "fdo1" with entities [EventEntity, EventEntity], work=200*
  6: 0x0640 [0x46] CAMERA_CONTROL: Disable user control
  7: 0x0642 [0x38] SET_CLIENT_EVENT_MODE(mode=11*)
  8: 0x0645 [0x37] UPDATE_EVENT_POSITION_AND_DIR: x=-37.846*, z=70.313*, y=-16.000*, direction=169.2°*
  9: 0x064E [0x1E] EventEntity looks at Fyi Chalmwoh (ID: 17797231/0x010F906F) and starts talking
 10: 0x0653 [0x45] LOAD_SCHEDULED_TASK: Load scheduler "s110" with entities [LocalPlayer, LocalPlayer], work=[165*, 0*]
 11: 0x0664 [0x1C] WAIT(60* ticks)
 12: 0x0667 [0x45] LOAD_SCHEDULED_TASK: Load scheduler "fdi1" with entities [EventEntity, EventEntity], work=[200*, 0*]
 13: 0x0678 [0x1C] WAIT(60* ticks)
 14: 0x067B [0x2B] Fyi Chalmwoh (ID: 17797231/0x010F906F) [7616*]:
    → "Hey! I rrremember you. You're that [guy/lady] who...no, wait... Hm?"
 15: 0x0682 [0x23] WAIT_FOR_DIALOG_INTERACTION
 16: 0x0683 [0x1C] WAIT(60* ticks)
 17: 0x0686 [0x45] LOAD_SCHEDULED_TASK: Load scheduler "ovl1" with entities [LocalPlayer, LocalPlayer], work=[200*, 0*]
 18: 0x0697 [0x52] END_LOAD_SCHEDULER: End scheduler "s110" with entities [LocalPlayer, LocalPlayer], work=165*
 19: 0x06A6 [0x22] ENTITY_HIDE_FLAG(enabled=0x01)
 20: 0x06A8 [0x45] LOAD_SCHEDULED_TASK: Load scheduler "s101" with entities [LocalPlayer, LocalPlayer], work=[165*, 0*]
 21: 0x06B9 [0x66] LOAD_EXT_SCHEDULER_MAIN: Load scheduler "ure0" with entities [Fyi Chalmwoh (ID: 17797231/0x010F906F), Fyi Chalmwoh (ID: 17797231/0x010F906F)], work=8*
 22: 0x06C8 [0x2B] Fyi Chalmwoh (ID: 17797231/0x010F906F) [7617*]:
    → "What? You met a rrreal, live mannequin crrraftsman!? Unbelievable! What did he say?"
 23: 0x06CF [0x23] WAIT_FOR_DIALOG_INTERACTION
 24: 0x06D0 [0x1C] WAIT(90* ticks)
 25: 0x06D3 [0x2B] Fyi Chalmwoh (ID: 17797231/0x010F906F) [7618*]:
    → "He needs $6...?"
 26: 0x06DA [0x23] WAIT_FOR_DIALOG_INTERACTION
 27: 0x06DB [0x45] LOAD_SCHEDULED_TASK: Load scheduler "fdo2" with entities [EventEntity, EventEntity], work=[200*, 0*]
 28: 0x06EC [0x55] WAIT_LOAD_SCHEDULER: Wait for scheduler "fdo2" with entities [EventEntity, EventEntity], work=200*
 29: 0x06FB [0x52] END_LOAD_SCHEDULER: End scheduler "s101" with entities [LocalPlayer, LocalPlayer], work=165*
 30: 0x070A [0x66] LOAD_EXT_SCHEDULER_MAIN: Load scheduler "thk1" with entities [Fyi Chalmwoh (ID: 17797231/0x010F906F), Fyi Chalmwoh (ID: 17797231/0x010F906F)], work=50*
 31: 0x0719 [0x2B] Fyi Chalmwoh (ID: 17797231/0x010F906F) [7619*]:
    → "3... 3...... I'm sorry. I'm afraid I don't have any."
 32: 0x0720 [0x23] WAIT_FOR_DIALOG_INTERACTION
 33: 0x0721 [0x45] LOAD_SCHEDULED_TASK: Load scheduler "s102" with entities [LocalPlayer, LocalPlayer], work=[165*, 0*]
 34: 0x0732 [0x45] LOAD_SCHEDULED_TASK: Load scheduler "fdi2" with entities [EventEntity, EventEntity], work=[200*, 0*]
 35: 0x0743 [0x1C] WAIT(120* ticks)
 36: 0x0746 [0x2B] Fyi Chalmwoh (ID: 17797231/0x010F906F) [7620*]:
    → "The plans that you brrrought me talked about it, but I was never able to find the stuff. I've been using slime oil as a substitute."
 37: 0x074D [0x23] WAIT_FOR_DIALOG_INTERACTION
 38: 0x074E [0x66] LOAD_EXT_SCHEDULER_MAIN: Load scheduler "thk2" with entities [Fyi Chalmwoh (ID: 17797231/0x010F906F), Fyi Chalmwoh (ID: 17797231/0x010F906F)], work=50*
 39: 0x075D [0x1C] WAIT(60* ticks)
 40: 0x0760 [0x66] LOAD_EXT_SCHEDULER_MAIN: Load scheduler "dis0" with entities [Fyi Chalmwoh (ID: 17797231/0x010F906F), Fyi Chalmwoh (ID: 17797231/0x010F906F)], work=52*
 41: 0x076F [0x2B] Fyi Chalmwoh (ID: 17797231/0x010F906F) [7621*]:
    → "I wouldn't even know where to start looking..."
 42: 0x0776 [0x23] WAIT_FOR_DIALOG_INTERACTION
 43: 0x0777 [0x1C] WAIT(90* ticks)
 44: 0x077A [0x45] LOAD_SCHEDULED_TASK: Load scheduler "ovl1" with entities [LocalPlayer, LocalPlayer], work=[200*, 0*]
 45: 0x078B [0x52] END_LOAD_SCHEDULER: End scheduler "s102" with entities [LocalPlayer, LocalPlayer], work=165*
 46: 0x079A [0x45] LOAD_SCHEDULED_TASK: Load scheduler "s038" with entities [LocalPlayer, LocalPlayer], work=[34*, 0*]
 47: 0x07AB [0x1C] WAIT(60* ticks)
 48: 0x07AE [0x66] LOAD_EXT_SCHEDULER_MAIN: Load scheduler "tlk0" with entities [Fyi Chalmwoh (ID: 17797231/0x010F906F), Fyi Chalmwoh (ID: 17797231/0x010F906F)], work=50*
 49: 0x07BD [0x2B] Fyi Chalmwoh (ID: 17797231/0x010F906F) [7622*]:
    → "Wait a minute... Do you rrremember the stories about how the Orcs would steal mannequin parts? Maybe some of the beasts also stole bottles of the oil..."
 50: 0x07C4 [0x23] WAIT_FOR_DIALOG_INTERACTION
 51: 0x07C5 [0x1C] WAIT(30* ticks)
 52: 0x07C8 [0x66] LOAD_EXT_SCHEDULER_MAIN: Load scheduler "tlk2" with entities [Fyi Chalmwoh (ID: 17797231/0x010F906F), Fyi Chalmwoh (ID: 17797231/0x010F906F)], work=50*
 53: 0x07D7 [0x2B] Fyi Chalmwoh (ID: 17797231/0x010F906F) [7623*]:
    → "But that's just a hunch. I'm sorry I couldn't be of any rrreal help."
 54: 0x07DE [0x23] WAIT_FOR_DIALOG_INTERACTION
 55: 0x07DF [0x4A] Fyi Chalmwoh (ID: 17797231/0x010F906F) looks at LocalPlayer
 56: 0x07E8 [0x52] END_LOAD_SCHEDULER: End scheduler "s038" with entities [LocalPlayer, LocalPlayer], work=34*
 57: 0x07F7 [0x22] ENTITY_HIDE_FLAG(enabled=0x00)
 58: 0x07F9 [0x45] LOAD_SCHEDULED_TASK: Load scheduler "s039" with entities [LocalPlayer, LocalPlayer], work=[34*, 0*]
 59: 0x080A [0x1C] WAIT(30* ticks)
 60: 0x080D [0x66] LOAD_EXT_SCHEDULER_MAIN: Load scheduler "tlk0" with entities [Fyi Chalmwoh (ID: 17797231/0x010F906F), Fyi Chalmwoh (ID: 17797231/0x010F906F)], work=50*
 61: 0x081C [0x2B] Fyi Chalmwoh (ID: 17797231/0x010F906F) [7624*]:
    → "Hey, if I ever get any time off, would you take me to where the mannequin crrraftsman lives? I'd love to learn all his techniques!"
 62: 0x0823 [0x23] WAIT_FOR_DIALOG_INTERACTION
 63: 0x0824 [0x66] LOAD_EXT_SCHEDULER_MAIN: Load scheduler "tlk2" with entities [Fyi Chalmwoh (ID: 17797231/0x010F906F), Fyi Chalmwoh (ID: 17797231/0x010F906F)], work=50*
 64: 0x0833 [0x1C] WAIT(60* ticks)
 65: 0x0836 [0x45] LOAD_SCHEDULED_TASK: Load scheduler "fdo1" with entities [EventEntity, EventEntity], work=[200*, 0*]
 66: 0x0847 [0x55] WAIT_LOAD_SCHEDULER: Wait for scheduler "fdo1" with entities [EventEntity, EventEntity], work=200*
 67: 0x0856 [0x66] LOAD_EXT_SCHEDULER_MAIN: Load scheduler "tlb1" with entities [Fyi Chalmwoh (ID: 17797231/0x010F906F), Fyi Chalmwoh (ID: 17797231/0x010F906F)], work=53*
 68: 0x0865 [0x52] END_LOAD_SCHEDULER: End scheduler "s039" with entities [LocalPlayer, LocalPlayer], work=34*
 69: 0x0874 [0x46] CAMERA_CONTROL: Restore default settings
 70: 0x0876 [0x1C] WAIT(60* ticks)
 71: 0x0879 [0x45] LOAD_SCHEDULED_TASK: Load scheduler "fdi1" with entities [EventEntity, EventEntity], work=[200*, 0*]
 72: 0x088A [0x21] END_EVENT
 73: 0x088B [0x00] END_REQSTACK()
```

### Event 65535.27

#### Metadata

| Field        | Value   |
|--------------|---------|
| Entrypoint   | 0x088C  |
| Data Size    | 6 bytes |
| Instructions | 2       |

```
      00 01 02 03 04 05 06 07  08 09 0A 0B 0C 0D 0E 0F
      -- -- -- -- -- -- -- --  -- -- -- -- -- -- -- --
0880:                                      03 02 10 0B              ....
0890: 7F 00                                             ..              
```

#### Opcodes

```
  0: 0x088C [0x03] Work_Zone[2] = (Entity->Render.Flags01 >> 25) & 1
  1: 0x0891 [0x00] END_REQSTACK()
```

### Event 65535.28

#### Metadata

| Field        | Value    |
|--------------|----------|
| Entrypoint   | 0x0892   |
| Data Size    | 10 bytes |
| Instructions | 2        |

```
      00 01 02 03 04 05 06 07  08 09 0A 0B 0C 0D 0E 0F
      -- -- -- -- -- -- -- --  -- -- -- -- -- -- -- --
0890:       37 87 80 88 80 89  80 8A 80 00                7.........    
```

#### Opcodes

```
  0: 0x0892 [0x37] UPDATE_EVENT_POSITION_AND_DIR: x=-25.216*, z=17.011*, y=-3.999*, direction=340.0°*
  1: 0x089B [0x00] END_REQSTACK()
```

### Event 65535.29

#### Metadata

| Field        | Value    |
|--------------|----------|
| Entrypoint   | 0x089C   |
| Data Size    | 19 bytes |
| Instructions | 5        |

```
      00 01 02 03 04 05 06 07  08 09 0A 0B 0C 0D 0E 0F
      -- -- -- -- -- -- -- --  -- -- -- -- -- -- -- --
0890:                                      32 08 80 1F              2...
08A0: 00 8B 80 8C 80 8D 80 1F  01 1E 93 90 0F 01 00     ............... 
```

#### Opcodes

```
  0: 0x089C [0x32] ExtData[1]->MainSpeed = 13* * 0.1
  1: 0x089F [0x1F] MOVE_ENTITY: EventEntity moves to X=-0.046*, Z=110.702*, Y=-4.000*
  2: 0x08A7 [0x1F] MOVE_ENTITY: Update entity position (mode=1)
  3: 0x08A9 [0x1E] EventEntity looks at Marilionne (ID: 17797267/0x010F9093) and starts talking
  4: 0x08AE [0x00] END_REQSTACK()
```

### Event 375

#### Metadata

| Field        | Value    |
|--------------|----------|
| Entrypoint   | 0x08AF   |
| Data Size    | 63 bytes |
| Instructions | 9        |

```
      00 01 02 03 04 05 06 07  08 09 0A 0B 0C 0D 0E 0F
      -- -- -- -- -- -- -- --  -- -- -- -- -- -- -- --
08A0:                                               42                 B
08B0: 48 8E 80 45 24 80 F0 FF  FF 7F F0 FF FF 7F 66 64  H..E$.........fd
08C0: 6F 31 25 80 62 0F 80 F0  FF FF 7F F0 FF FF 7F 6D  o1%.b..........m
08D0: 61 69 6E 25 80 1C 7B 80  1C 78 80 45 8F 80 F0 FF  ain%..{..x.E....
08E0: FF 7F F0 FF FF 7F 77 68  69 31 25 80 21 00        ......whi1%.!.  
```

#### Opcodes

```
  0: 0x08AF [0x42] SET_CLI_EVENT_CANCEL_DATA()
  1: 0x08B0 [0x48] [System] [8094*]:
    → "Entering the [/Very Difficult Intense Ambuscade/Difficult Intense Ambuscade/Normal Intense Ambuscade/Easy Intense Ambuscade/Very Easy Intense Ambuscade/Very Difficult Ambuscade/Difficult Ambuscade/Normal Ambuscade/Easy Ambuscade/Very Easy Ambuscade/Light Ambuscade]."
  2: 0x08B3 [0x45] LOAD_SCHEDULED_TASK: Load scheduler "fdo1" with entities [LocalPlayer, LocalPlayer], work=[200*, 0*]
  3: 0x08C4 [0x62] LOAD_EVENT_SCHEDULER: Load scheduler "main" with entities [LocalPlayer, LocalPlayer], work=[1*, 0*]
  4: 0x08D5 [0x1C] WAIT(90* ticks)
  5: 0x08D8 [0x1C] WAIT(60* ticks)
  6: 0x08DB [0x45] LOAD_SCHEDULED_TASK: Load scheduler "whi1" with entities [LocalPlayer, LocalPlayer], work=[201*, 0*]
  7: 0x08EC [0x21] END_EVENT
  8: 0x08ED [0x00] END_REQSTACK()
```
