# Event 65535

## Metadata

| Field           | Value    |
|-----------------|----------|
| Event Index     | 24/26    |
| Offset          | 0x0271   |
| Data Size       | 51 bytes |
| Calculated Size | 51 bytes |
| Instructions    | 11       |

```
      00 01 02 03 04 05 06 07  08 09 0A 0B 0C 0D 0E 0F
      -- -- -- -- -- -- -- --  -- -- -- -- -- -- -- --
0270:    32 4D 80 1F 00 5F 80  60 80 61 80 1F 01 1F 00   2M..._.`.a.....
0280: 62 80 63 80 64 80 1F 01  1F 00 65 80 66 80 67 80  b.c.d.....e.f.g.
0290: 1F 01 1E 19 61 0E 01 1C  46 80 4A 19 61 0E 01 1C  ....a...F.J.a...
02A0: 61 0E 01 00                                       a...            
```

## Opcodes

```
  0: 0x0271 [0x32] ExtData[1]->MainSpeed = 45* * 0.1
  1: 0x0274 [0x1F] MOVE_ENTITY: EventEntity moves to X=-604.257*, Z=586.573*, Y=0.057*
  2: 0x027C [0x1F] MOVE_ENTITY: Update entity position (mode=1)
  3: 0x027E [0x1F] MOVE_ENTITY: EventEntity moves to X=-603.318*, Z=588.527*, Y=0.196*
  4: 0x0286 [0x1F] MOVE_ENTITY: Update entity position (mode=1)
  5: 0x0288 [0x1F] MOVE_ENTITY: EventEntity moves to X=-601.495*, Z=586.040*, Y=0.496*
  6: 0x0290 [0x1F] MOVE_ENTITY: Update entity position (mode=1)
  7: 0x0292 [0x1E] EventEntity looks at Unnamed NPC (ID: 17719577/0x010E6119) and starts talking
  8: 0x0297 [0x1C] WAIT(30* ticks)
  9: 0x029A [0x4A] Unnamed NPC (ID: 17719577/0x010E6119) looks at Unnamed NPC (ID: 17719580/0x010E611C)
 10: 0x02A3 [0x00] END_REQSTACK()
```
