# Event 65535

## Metadata

| Field           | Value    |
|-----------------|----------|
| Event Index     | 22/26    |
| Offset          | 0x0220   |
| Data Size       | 67 bytes |
| Calculated Size | 67 bytes |
| Instructions    | 15       |

```
      00 01 02 03 04 05 06 07  08 09 0A 0B 0C 0D 0E 0F
      -- -- -- -- -- -- -- --  -- -- -- -- -- -- -- --
0220: 32 4D 80 1F 00 4E 80 4F  80 50 80 1F 01 4B 1C 61  2M...N.O.P...K.a
0230: 0E 01 51 80 1C 52 80 1F  00 53 80 54 80 55 80 1F  ..Q..R...S.T.U..
0240: 01 4B 1C 61 0E 01 56 80  1C 57 80 1F 00 58 80 59  .K.a..V..W...X.Y
0250: 80 5A 80 1F 01 1C 46 80  4B 1C 61 0E 01 5B 80 1C  .Z....F.K.a..[..
0260: 52 80 00                                          R..             
```

## Opcodes

```
  0: 0x0220 [0x32] ExtData[1]->MainSpeed = 45* * 0.1
  1: 0x0223 [0x1F] MOVE_ENTITY: EventEntity moves to X=-599.295*, Z=590.678*, Y=0.264*
  2: 0x022B [0x1F] MOVE_ENTITY: Update entity position (mode=1)
  3: 0x022D [0x4B] UPDATE_ENTITY_YAW(entity=Unnamed NPC (ID: 17719580/0x010E611C), yaw=5.3°*)
  4: 0x0234 [0x1C] WAIT(60* ticks)
  5: 0x0237 [0x1F] MOVE_ENTITY: EventEntity moves to X=-604.353*, Z=586.292*, Y=0.138*
  6: 0x023F [0x1F] MOVE_ENTITY: Update entity position (mode=1)
  7: 0x0241 [0x4B] UPDATE_ENTITY_YAW(entity=Unnamed NPC (ID: 17719580/0x010E611C), yaw=0.2°*)
  8: 0x0248 [0x1C] WAIT(240* ticks)
  9: 0x024B [0x1F] MOVE_ENTITY: EventEntity moves to X=-600.328*, Z=582.410*, Y=0.802*
 10: 0x0253 [0x1F] MOVE_ENTITY: Update entity position (mode=1)
 11: 0x0255 [0x1C] WAIT(30* ticks)
 12: 0x0258 [0x4B] UPDATE_ENTITY_YAW(entity=Unnamed NPC (ID: 17719580/0x010E611C), yaw=16.6°*)
 13: 0x025F [0x1C] WAIT(60* ticks)
 14: 0x0262 [0x00] END_REQSTACK()
```
