# Event 57

## Metadata

| Field           | Value    |
|-----------------|----------|
| Event Index     | 4/128    |
| Offset          | 0x0006   |
| Data Size       | 49 bytes |
| Calculated Size | 49 bytes |
| Instructions    | 7        |

```
      00 01 02 03 04 05 06 07  08 09 0A 0B 0C 0D 0E 0F
      -- -- -- -- -- -- -- --  -- -- -- -- -- -- -- --
0000:                   66 01  80 F8 FF FF 7F F8 FF FF        f.........
0010: 7F 74 68 6B 31 1D 02 80  23 66 01 80 F8 FF FF 7F  .thk1...#f......
0020: F8 FF FF 7F 74 68 6B 32  53 F8 FF FF 7F F8 FF FF  ....thk2S.......
0030: 7F 74 68 6B 32 21 00                              .thk2!.         
```

## Opcodes

```
  0: 0x0006 [0x66] LOAD_EXT_SCHEDULER_MAIN: Load scheduler "thk1" with entities [EventEntity, EventEntity], work=40*
  1: 0x0015 [0x1D] PRINT_EVENT_MESSAGE(message_id=8528*)
    → "Oh, what should I do...? I should just go over there and ask him, but... No, I couldn'taru!\u007F1\u0000\u0007"
  2: 0x0018 [0x23] WAIT_FOR_DIALOG_INTERACTION
  3: 0x0019 [0x66] LOAD_EXT_SCHEDULER_MAIN: Load scheduler "thk2" with entities [EventEntity, EventEntity], work=40*
  4: 0x0028 [0x53] WAIT_SCHEDULER_TASK: Wait for scheduler "thk2" with entities [EventEntity, EventEntity]
  5: 0x0035 [0x21] END_EVENT
  6: 0x0036 [0x00] END_REQSTACK()
```
