# Event 65535

## Metadata

| Field           | Value    |
|-----------------|----------|
| Event Index     | 6/7      |
| Offset          | 0x0013   |
| Data Size       | 66 bytes |
| Calculated Size | 66 bytes |
| Instructions    | 10       |

```
      00 01 02 03 04 05 06 07  08 09 0A 0B 0C 0D 0E 0F
      -- -- -- -- -- -- -- --  -- -- -- -- -- -- -- --
0010:          1C 04 80 4A E0  30 04 01 DB 30 04 01 1C     ...J.0...0...
0020: 05 80 66 06 80 DC 30 04  01 DC 30 04 01 73 68 61  ..f...0...0..sha
0030: 31 1C 04 80 1E DA 30 04  01 66 06 80 DD 30 04 01  1.....0..f...0..
0040: DD 30 04 01 73 68 61 31  1C 04 80 4A DD 30 04 01  .0..sha1...J.0..
0050: DA 30 04 01 00                                    .0...           
```

## Opcodes

```
  0: 0x0013 [0x1C] WAIT(60* ticks)
  1: 0x0016 [0x4A] Mishhar (ID: 17051872/0x010430E0) looks at Harbuhl (ID: 17051867/0x010430DB)
  2: 0x001F [0x1C] WAIT(30* ticks)
  3: 0x0022 [0x66] LOAD_EXT_SCHEDULER_MAIN: Load scheduler "sha1" with entities [Nizahluf (ID: 17051868/0x010430DC), Nizahluf (ID: 17051868/0x010430DC)], work=9*
  4: 0x0031 [0x1C] WAIT(60* ticks)
  5: 0x0034 [0x1E] EventEntity looks at Wahboud (ID: 17051866/0x010430DA) and starts talking
  6: 0x0039 [0x66] LOAD_EXT_SCHEDULER_MAIN: Load scheduler "sha1" with entities [Yazhaal (ID: 17051869/0x010430DD), Yazhaal (ID: 17051869/0x010430DD)], work=9*
  7: 0x0048 [0x1C] WAIT(60* ticks)
  8: 0x004B [0x4A] Yazhaal (ID: 17051869/0x010430DD) looks at Wahboud (ID: 17051866/0x010430DA)
  9: 0x0054 [0x00] END_REQSTACK()
```
