# Event 65535

## Metadata

| Field           | Value    |
|-----------------|----------|
| Event Index     | 4/22     |
| Offset          | 0x001F   |
| Data Size       | 66 bytes |
| Calculated Size | 66 bytes |
| Instructions    | 10       |

```
      00 01 02 03 04 05 06 07  08 09 0A 0B 0C 0D 0E 0F
      -- -- -- -- -- -- -- --  -- -- -- -- -- -- -- --
0010:                                               32                 2
0020: 04 80 1F 00 05 80 06 80  07 80 1F 01 BA F8 FF FF  ................
0030: 7F 08 80 09 80 0A 80 0B  80 4A F0 FF FF 7F 34 83  .........J....4.
0040: 08 01 4A F8 FF FF 7F F0  FF FF 7F 1C 0C 80 5B 0D  ..J...........[.
0050: 80 34 83 08 01 34 83 08  01 74 6C 6B 30 1C 0E 80  .4...4...tlk0...
0060: 00                                                .               
```

## Opcodes

```
  0: 0x001F [0x32] ExtData[1]->MainSpeed = 37* * 0.1
  1: 0x0022 [0x1F] MOVE_ENTITY: EventEntity moves to X=58.569*, Z=-488.476*, Y=0.191*
  2: 0x002A [0x1F] MOVE_ENTITY: Update entity position (mode=1)
  3: 0x002C [0xBA] SET_ENTITY_POSITION(entity_id=EventEntity, pos_x=57.011*, pos_z=-487.074*, pos_y=0.073*, direction=263.7°*)
  4: 0x0039 [0x4A] LocalPlayer looks at Altennia (ID: 17335092/0x01088334)
  5: 0x0042 [0x4A] EventEntity looks at LocalPlayer
  6: 0x004B [0x1C] WAIT(15* ticks)
  7: 0x004E [0x5B] LOAD_EXT_SCHEDULER(work_offset=1334*, entity1=Altennia (ID: 17335092/0x01088334), entity2=Altennia (ID: 17335092/0x01088334), action="tlk0")
  8: 0x005D [0x1C] WAIT(50* ticks)
  9: 0x0060 [0x00] END_REQSTACK()
```
