# Event 137

## Metadata

| Field           | Value    |
|-----------------|----------|
| Event Index     | 13/24    |
| Offset          | 0x0109   |
| Data Size       | 41 bytes |
| Calculated Size | 41 bytes |
| Instructions    | 11       |

```
      00 01 02 03 04 05 06 07  08 09 0A 0B 0C 0D 0E 0F
      -- -- -- -- -- -- -- --  -- -- -- -- -- -- -- --
0100:                             4A F0 FF FF 7F F8 FF           J......
0110: FF 7F 1E F0 FF FF 7F 6F  70 66 04 80 F8 FF FF 7F  .......opf......
0120: F8 FF FF 7F 74 6C 6B 30  1D 0C 80 23 1D 0D 80 23  ....tlk0...#...#
0130: 21 00                                             !.              
```

## Opcodes

```
  0: 0x0109 [0x4A] LocalPlayer looks at EventEntity
  1: 0x0112 [0x1E] EventEntity looks at LocalPlayer and starts talking
  2: 0x0117 [0x6F] WAIT_FRAME_DELAY: Yield until WaitTime reaches zero
  3: 0x0118 [0x70] WAIT_ENTITY_RENDER_FLAG: Wait while EventEntity->Render.Flags3 bit 2 is set (cancel turn if not)
  4: 0x0119 [0x66] LOAD_EXT_SCHEDULER_MAIN: Load scheduler "tlk0" with entities [EventEntity, EventEntity], work=50*
  5: 0x0128 [0x1D] PRINT_EVENT_MESSAGE(message_id=10144*)
    → "So, you saw the archduke... Well, how did it go?\u007F1\u0000\u0007"
  6: 0x012B [0x23] WAIT_FOR_DIALOG_INTERACTION
  7: 0x012C [0x1D] PRINT_EVENT_MESSAGE(message_id=10145*)
    → "He wants you to gather magicite? I can't offer any advice on those. Maybe you can try learning about Davoi, Beadeaux, and Castle Oztroja...\u007F1\u0000\u0007"
  8: 0x012F [0x23] WAIT_FOR_DIALOG_INTERACTION
  9: 0x0130 [0x21] END_EVENT
 10: 0x0131 [0x00] END_REQSTACK()
```
