# Event 57

## Metadata

| Field           | Value    |
|-----------------|----------|
| Event Index     | 15/24    |
| Offset          | 0x01AF   |
| Data Size       | 37 bytes |
| Calculated Size | 37 bytes |
| Instructions    | 9        |

```
      00 01 02 03 04 05 06 07  08 09 0A 0B 0C 0D 0E 0F
      -- -- -- -- -- -- -- --  -- -- -- -- -- -- -- --
01A0:                                               4A                 J
01B0: F0 FF FF 7F F8 FF FF 7F  1E F0 FF FF 7F 6F 70 66  .............opf
01C0: 04 80 F8 FF FF 7F F8 FF  FF 7F 74 6C 6B 30 1D 17  ..........tlk0..
01D0: 80 23 21 00                                       .#!.            
```

## Opcodes

```
  0: 0x01AF [0x4A] LocalPlayer looks at EventEntity
  1: 0x01B8 [0x1E] EventEntity looks at LocalPlayer and starts talking
  2: 0x01BD [0x6F] WAIT_FRAME_DELAY: Yield until WaitTime reaches zero
  3: 0x01BE [0x70] WAIT_ENTITY_RENDER_FLAG: Wait while EventEntity->Render.Flags3 bit 2 is set (cancel turn if not)
  4: 0x01BF [0x66] LOAD_EXT_SCHEDULER_MAIN(work_offset=50*, entity1=EventEntity, entity2=EventEntity, action="tlk0")
  5: 0x01CE [0x1D] PRINT_EVENT_MESSAGE(message_id=10188*)
    → "Hurry-scurry! Take the airship back to Windurst! I'll find out what I can here.\u007F1\u0000\u0007"
  6: 0x01D1 [0x23] WAIT_FOR_DIALOG_INTERACTION
  7: 0x01D2 [0x21] END_EVENT
  8: 0x01D3 [0x00] END_REQSTACK()
```
