# Event 65535

## Metadata

| Field           | Value    |
|-----------------|----------|
| Event Index     | 17/24    |
| Offset          | 0x01F9   |
| Data Size       | 34 bytes |
| Calculated Size | 34 bytes |
| Instructions    | 9        |

```
      00 01 02 03 04 05 06 07  08 09 0A 0B 0C 0D 0E 0F
      -- -- -- -- -- -- -- --  -- -- -- -- -- -- -- --
01F0:                             1C 19 80 22 00 32 00           ...".2.
0200: 80 37 1A 80 1B 80 1C 80  1D 80 1F 00 1E 80 1F 80  .7..............
0210: 1C 80 1F 01 6F 1E F0 FF  FF 7F 00                 ....o......     
```

## Opcodes

```
  0: 0x01F9 [0x1C] WAIT(300* ticks)
  1: 0x01FC [0x22] ENTITY_HIDE_FLAG(enabled=0x00)
  2: 0x01FE [0x32] ExtData[1]->MainSpeed = 13* * 0.1
  3: 0x0201 [0x37] UPDATE_EVENT_POSITION_AND_DIR: x=32.083*, z=-19.731*, y=8.999*, direction=188.0°*
  4: 0x020A [0x1F] MOVE_ENTITY: EventEntity moves to X=34.543*, Z=-14.855*, Y=8.999*
  5: 0x0212 [0x1F] MOVE_ENTITY: Update entity position (mode=1)
  6: 0x0214 [0x6F] WAIT_FRAME_DELAY: Yield until WaitTime reaches zero
  7: 0x0215 [0x1E] EventEntity looks at LocalPlayer and starts talking
  8: 0x021A [0x00] END_REQSTACK()
```
