# Event 65535

## Metadata

| Field           | Value    |
|-----------------|----------|
| Event Index     | 10/10    |
| Offset          | 0x0080   |
| Data Size       | 51 bytes |
| Calculated Size | 51 bytes |
| Instructions    | 9        |

```
      00 01 02 03 04 05 06 07  08 09 0A 0B 0C 0D 0E 0F
      -- -- -- -- -- -- -- --  -- -- -- -- -- -- -- --
0080: 1C 08 80 66 15 80 F4 92  08 01 F4 92 08 01 73 68  ...f..........sh
0090: 61 31 1C 16 80 32 03 80  1F 00 17 80 18 80 19 80  a1...2..........
00A0: 1F 01 6F 66 1A 80 F4 92  08 01 F4 92 08 01 70 61  ..of..........pa
00B0: 73 30 00                                          s0.             
```

## Opcodes

```
  0: 0x0080 [0x1C] WAIT(60* ticks)
  1: 0x0083 [0x66] LOAD_EXT_SCHEDULER_MAIN: Load scheduler "sha1" with entities [02 (ID: 17339124/0x010892F4), 02 (ID: 17339124/0x010892F4)], work=59*
  2: 0x0092 [0x1C] WAIT(120* ticks)
  3: 0x0095 [0x32] ExtData[1]->MainSpeed = 13* * 0.1
  4: 0x0098 [0x1F] MOVE_ENTITY: EventEntity moves to X=524.872*, Z=-280.435*, Y=0.042*
  5: 0x00A0 [0x1F] MOVE_ENTITY: Update entity position (mode=1)
  6: 0x00A2 [0x6F] WAIT_FRAME_DELAY: Yield until WaitTime reaches zero
  7: 0x00A3 [0x66] LOAD_EXT_SCHEDULER_MAIN: Load scheduler "pas0" with entities [02 (ID: 17339124/0x010892F4), 02 (ID: 17339124/0x010892F4)], work=121*
  8: 0x00B2 [0x00] END_REQSTACK()
```
