# Event 65535

## Metadata

| Field           | Value    |
|-----------------|----------|
| Event Index     | 103/114  |
| Offset          | 0x1D39   |
| Data Size       | 36 bytes |
| Calculated Size | 36 bytes |
| Instructions    | 6        |

```
      00 01 02 03 04 05 06 07  08 09 0A 0B 0C 0D 0E 0F
      -- -- -- -- -- -- -- --  -- -- -- -- -- -- -- --
1D30:                             27 10 AA 01 07 01 12           '......
1D40: 27 10 AB 01 07 01 10 27  10 BE 01 07 01 0B 27 10  '......'......'.
1D50: BF 01 07 01 07 27 10 C0  01 07 01 06 00           .....'.......   
```

## Opcodes

```
  0: 0x1D39 [0x27] REQ_SET(priority=0x10, entity_id=Unnamed NPC (ID: 17236394/0x010701AA), tag_num=0x12)
  1: 0x1D40 [0x27] REQ_SET(priority=0x10, entity_id=Unnamed NPC (ID: 17236395/0x010701AB), tag_num=0x10)
  2: 0x1D47 [0x27] REQ_SET(priority=0x10, entity_id=Unnamed NPC (ID: 17236414/0x010701BE), tag_num=0x0B)
  3: 0x1D4E [0x27] REQ_SET(priority=0x10, entity_id=Unnamed NPC (ID: 17236415/0x010701BF), tag_num=0x07)
  4: 0x1D55 [0x27] REQ_SET(priority=0x10, entity_id=Unnamed NPC (ID: 17236416/0x010701C0), tag_num=0x06)
  5: 0x1D5C [0x00] END_REQSTACK()
```
