# Event 65535

## Metadata

| Field           | Value    |
|-----------------|----------|
| Event Index     | 89/114   |
| Offset          | 0x1958   |
| Data Size       | 50 bytes |
| Calculated Size | 50 bytes |
| Instructions    | 8        |

```
      00 01 02 03 04 05 06 07  08 09 0A 0B 0C 0D 0E 0F
      -- -- -- -- -- -- -- --  -- -- -- -- -- -- -- --
1950:                          27 10 AA 01 07 01 13 27          '......'
1960: 10 AA 01 07 01 11 27 10  AA 01 07 01 12 27 10 AB  ......'......'..
1970: 01 07 01 10 27 10 AC 01  07 01 0E 27 10 AC 01 07  ....'......'....
1980: 01 0C 27 10 AC 01 07 01  0D 00                    ..'.......      
```

## Opcodes

```
  0: 0x1958 [0x27] REQ_SET(priority=0x10, entity_id=Unnamed NPC (ID: 17236394/0x010701AA), tag_num=0x13)
  1: 0x195F [0x27] REQ_SET(priority=0x10, entity_id=Unnamed NPC (ID: 17236394/0x010701AA), tag_num=0x11)
  2: 0x1966 [0x27] REQ_SET(priority=0x10, entity_id=Unnamed NPC (ID: 17236394/0x010701AA), tag_num=0x12)
  3: 0x196D [0x27] REQ_SET(priority=0x10, entity_id=Unnamed NPC (ID: 17236395/0x010701AB), tag_num=0x10)
  4: 0x1974 [0x27] REQ_SET(priority=0x10, entity_id=Unnamed NPC (ID: 17236396/0x010701AC), tag_num=0x0E)
  5: 0x197B [0x27] REQ_SET(priority=0x10, entity_id=Unnamed NPC (ID: 17236396/0x010701AC), tag_num=0x0C)
  6: 0x1982 [0x27] REQ_SET(priority=0x10, entity_id=Unnamed NPC (ID: 17236396/0x010701AC), tag_num=0x0D)
  7: 0x1989 [0x00] END_REQSTACK()
```
