# Event 65535

## Metadata

| Field           | Value    |
|-----------------|----------|
| Event Index     | 82/114   |
| Offset          | 0x177F   |
| Data Size       | 57 bytes |
| Calculated Size | 57 bytes |
| Instructions    | 9        |

```
      00 01 02 03 04 05 06 07  08 09 0A 0B 0C 0D 0E 0F
      -- -- -- -- -- -- -- --  -- -- -- -- -- -- -- --
1770:                                               27                 '
1780: 10 AA 01 07 01 12 27 10  AB 01 07 01 10 27 10 AC  ......'......'..
1790: 01 07 01 0D 27 10 AD 01  07 01 08 27 10 AE 01 07  ....'......'....
17A0: 01 07 27 10 AF 01 07 01  07 27 10 BE 01 07 01 0B  ..'......'......
17B0: 27 10 B0 01 07 01 05 00                           '.......        
```

## Opcodes

```
  0: 0x177F [0x27] REQ_SET(priority=0x10, entity_id=Unnamed NPC (ID: 17236394/0x010701AA), tag_num=0x12)
  1: 0x1786 [0x27] REQ_SET(priority=0x10, entity_id=Unnamed NPC (ID: 17236395/0x010701AB), tag_num=0x10)
  2: 0x178D [0x27] REQ_SET(priority=0x10, entity_id=Unnamed NPC (ID: 17236396/0x010701AC), tag_num=0x0D)
  3: 0x1794 [0x27] REQ_SET(priority=0x10, entity_id=Unnamed NPC (ID: 17236397/0x010701AD), tag_num=0x08)
  4: 0x179B [0x27] REQ_SET(priority=0x10, entity_id=Unnamed NPC (ID: 17236398/0x010701AE), tag_num=0x07)
  5: 0x17A2 [0x27] REQ_SET(priority=0x10, entity_id=Unnamed NPC (ID: 17236399/0x010701AF), tag_num=0x07)
  6: 0x17A9 [0x27] REQ_SET(priority=0x10, entity_id=Unnamed NPC (ID: 17236414/0x010701BE), tag_num=0x0B)
  7: 0x17B0 [0x27] REQ_SET(priority=0x10, entity_id=Unnamed NPC (ID: 17236400/0x010701B0), tag_num=0x05)
  8: 0x17B7 [0x00] END_REQSTACK()
```
