# Event 65535

## Metadata

| Field           | Value    |
|-----------------|----------|
| Event Index     | 121/132  |
| Offset          | 0x0665   |
| Data Size       | 32 bytes |
| Calculated Size | 32 bytes |
| Instructions    | 10       |

```
      00 01 02 03 04 05 06 07  08 09 0A 0B 0C 0D 0E 0F
      -- -- -- -- -- -- -- --  -- -- -- -- -- -- -- --
0660:                32 40 80  1F 00 4D 81 4E 81 39 80       2@...M.N.9.
0670: 1F 01 5A 00 4F 81 50 81  D2 80 5A 01 1E 89 F0 0E  ..Z.O.P...Z.....
0680: 01 6F 70 00 00                                    .op..           
```

## Opcodes

```
  0: 0x0665 [0x32] ExtData[1]->MainSpeed = 13* * 0.1
  1: 0x0668 [0x1F] MOVE_ENTITY: EventEntity moves to X=122.510*, Z=108.788*, Y=-3.000*
  2: 0x0670 [0x1F] MOVE_ENTITY: Update entity position (mode=1)
  3: 0x0672 [0x5A] UPDATE_EVENT_POSITION: Set EventEntity MovePosition to X=118.748*, Z=109.685*, Y=-2.000*
  4: 0x067A [0x5A] UPDATE_EVENT_POSITION: Move EventEntity incrementally towards MovePosition
  5: 0x067C [0x1E] EventEntity looks at Koru-Moru (ID: 17756297/0x010EF089) and starts talking
  6: 0x0681 [0x6F] WAIT_FRAME_DELAY: Yield until WaitTime reaches zero
  7: 0x0682 [0x70] WAIT_ENTITY_RENDER_FLAG: Wait while EventEntity->Render.Flags3 bit 2 is set (cancel turn if not)
  8: 0x0683 [0x00] END_REQSTACK()
```

## Data or dead code:

```
# Dead code (unreachable instructions):
     0x0684 [0x00] END_REQSTACK()
```