# Event 65535

## Metadata

| Field           | Value    |
|-----------------|----------|
| Event Index     | 123/132  |
| Offset          | 0x068E   |
| Data Size       | 50 bytes |
| Calculated Size | 50 bytes |
| Instructions    | 12       |

```
      00 01 02 03 04 05 06 07  08 09 0A 0B 0C 0D 0E 0F
      -- -- -- -- -- -- -- --  -- -- -- -- -- -- -- --
0680:                                            32 50                2P
0690: 80 6E F0 FF FF 7F 51 81  99 F0 FF FF 7F 1C A9 80  .n....Q.........
06A0: 1F 00 52 81 53 81 39 80  1F 01 1F 00 54 81 55 81  ..R.S.9.....T.U.
06B0: 39 80 1F 01 1F 00 56 81  57 81 D2 80 1F 01 6F 00  9.....V.W.....o.
```

## Opcodes

```
  0: 0x068E [0x32] ExtData[1]->MainSpeed = 40* * 0.1
  1: 0x0691 [0x6E] LocalPlayer uses emote 21*
  2: 0x0698 [0x99] Wait for LocalPlayer animation to complete
  3: 0x069D [0x1C] WAIT(60* ticks)
  4: 0x06A0 [0x1F] MOVE_ENTITY: EventEntity moves to X=121.795*, Z=108.519*, Y=-3.000*
  5: 0x06A8 [0x1F] MOVE_ENTITY: Update entity position (mode=1)
  6: 0x06AA [0x1F] MOVE_ENTITY: EventEntity moves to X=117.891*, Z=109.520*, Y=-3.000*
  7: 0x06B2 [0x1F] MOVE_ENTITY: Update entity position (mode=1)
  8: 0x06B4 [0x1F] MOVE_ENTITY: EventEntity moves to X=115.005*, Z=111.823*, Y=-2.000*
  9: 0x06BC [0x1F] MOVE_ENTITY: Update entity position (mode=1)
 10: 0x06BE [0x6F] WAIT_FRAME_DELAY: Yield until WaitTime reaches zero
 11: 0x06BF [0x00] END_REQSTACK()
```
