# Event 5115

## Metadata

| Field           | Value    |
|-----------------|----------|
| Event Index     | 14/21    |
| Offset          | 0x0265   |
| Data Size       | 37 bytes |
| Calculated Size | 37 bytes |
| Instructions    | 11       |

```
      00 01 02 03 04 05 06 07  08 09 0A 0B 0C 0D 0E 0F
      -- -- -- -- -- -- -- --  -- -- -- -- -- -- -- --
0260:                4A F0 FF  FF 7F 41 01 10 01 6F 76       J....A...ov
0270: F0 FF FF 7F 1D 1D 80 23  6E F8 FF FF 7F 1F 80 99  .......#n.......
0280: F8 FF FF 7F 1D 1E 80 23  21 00                    .......#!.      
```

## Opcodes

```
  0: 0x0265 [0x4A] LocalPlayer looks at Gaddiux (ID: 17826113/0x01100141)
  1: 0x026E [0x6F] WAIT_FRAME_DELAY: Yield until WaitTime reaches zero
  2: 0x026F [0x76] CHECK_ENTITY_RENDER_FLAGS: Wait until LocalPlayer Render.Flags0 and Render.Flags3 conditions are met
  3: 0x0274 [0x1D] PRINT_EVENT_MESSAGE(message_id=11601*)
    → "Who knows, I might actually get that thing back to Runje Desaali before she skins my hide.\u007F1\u0000\u0007"
  4: 0x0277 [0x23] WAIT_FOR_DIALOG_INTERACTION
  5: 0x0278 [0x6E] EventEntity uses emote 6*
  6: 0x027F [0x99] Wait for EventEntity animation to complete
  7: 0x0284 [0x1D] PRINT_EVENT_MESSAGE(message_id=11602*)
    → "She's nice enough outside of work, but don't ever get on her bad side when doing business with her. You'll likely end up sleeping with the orobons off the waterfront.\u007F1\u0000\u0007"
  8: 0x0287 [0x23] WAIT_FOR_DIALOG_INTERACTION
  9: 0x0288 [0x21] END_EVENT
 10: 0x0289 [0x00] END_REQSTACK()
```
