# Event 5117

## Metadata

| Field           | Value    |
|-----------------|----------|
| Event Index     | 16/21    |
| Offset          | 0x028B   |
| Data Size       | 33 bytes |
| Calculated Size | 33 bytes |
| Instructions    | 9        |

```
      00 01 02 03 04 05 06 07  08 09 0A 0B 0C 0D 0E 0F
      -- -- -- -- -- -- -- --  -- -- -- -- -- -- -- --
0280:                                   4A F0 FF FF 7F             J....
0290: 41 01 10 01 6F 76 F0 FF  FF 7F 6E F8 FF FF 7F 20  A...ov....n.... 
02A0: 80 99 F8 FF FF 7F 1D 21  80 23 21 00              .......!.#!.    
```

## Opcodes

```
  0: 0x028B [0x4A] LocalPlayer looks at Gaddiux (ID: 17826113/0x01100141)
  1: 0x0294 [0x6F] WAIT_FRAME_DELAY: Yield until WaitTime reaches zero
  2: 0x0295 [0x76] CHECK_ENTITY_RENDER_FLAGS: Wait until LocalPlayer Render.Flags0 and Render.Flags3 conditions are met
  3: 0x029A [0x6E] EventEntity uses emote 32*
  4: 0x02A1 [0x99] Wait for EventEntity animation to complete
  5: 0x02A6 [0x1D] PRINT_EVENT_MESSAGE(message_id=11618*)
    → "I'm happy for your accomplishment and all, but how am I supposed to measure runic equipment without a caliper?\u007F1\u0000\u0007"
  6: 0x02A9 [0x23] WAIT_FOR_DIALOG_INTERACTION
  7: 0x02AA [0x21] END_EVENT
  8: 0x02AB [0x00] END_REQSTACK()
```
