# Event 10022

## Metadata

| Field           | Value    |
|-----------------|----------|
| Event Index     | 47/47    |
| Offset          | 0x0389   |
| Data Size       | 46 bytes |
| Calculated Size | 46 bytes |
| Instructions    | 14       |

```
      00 01 02 03 04 05 06 07  08 09 0A 0B 0C 0D 0E 0F
      -- -- -- -- -- -- -- --  -- -- -- -- -- -- -- --
0380:                             1E F0 FF FF 7F 6F 70           .....op
0390: 2B 85 40 0F 01 17 80 23  02 07 10 00 80 00 AB 03  +.@....#........
03A0: 2B 85 40 0F 01 18 80 23  01 B3 03 2B 85 40 0F 01  +.@....#...+.@..
03B0: 19 80 23 20 00 21 00                              ..# .!.         
```

## Opcodes

```
  0: 0x0389 [0x1E] EventEntity looks at LocalPlayer and starts talking
  1: 0x038E [0x6F] WAIT_FRAME_DELAY: Yield until WaitTime reaches zero
  2: 0x038F [0x70] WAIT_ENTITY_RENDER_FLAG: Wait while EventEntity->Render.Flags3 bit 2 is set (cancel turn if not)
  3: 0x0390 [0x2B] Migliorozz (ID: 17776773/0x010F4085) [8541*]:
    → "What would happen should all of the devices be activated?\u0007I really couldn't say.\u007F1\u0000\u0007"
  4: 0x0397 [0x23] WAIT_FOR_DIALOG_INTERACTION
  5: 0x0398 [0x02] IF !(Work_Zone[7] == 0*) GOTO 0x03AB
  6: 0x03A0 [0x2B] Migliorozz (ID: 17776773/0x010F4085) [8542*]:
    → "However, I am assured that...\u0007Ah...never mind.\u007F1\u0000\u0007"
  7: 0x03A7 [0x23] WAIT_FOR_DIALOG_INTERACTION
  8: 0x03A8 [0x01] GOTO 0x03B3
  9: 0x03AB [0x2B] Migliorozz (ID: 17776773/0x010F4085) [8543*]:
    → "However, how am I to seal...?\u0007Ah...never mind.\u007F1\u0000\u0007"
 10: 0x03B2 [0x23] WAIT_FOR_DIALOG_INTERACTION

SUBROUTINE_03B3:
 11: 0x03B3 [0x20] SET_CLI_EVENT_UC_FLAG: Unlock player control
 12: 0x03B5 [0x21] END_EVENT
 13: 0x03B6 [0x00] END_REQSTACK()
```
