# Event 431

## Metadata

| Field           | Value    |
|-----------------|----------|
| Event Index     | 4/12     |
| Offset          | 0x001C   |
| Data Size       | 52 bytes |
| Calculated Size | 52 bytes |
| Instructions    | 12       |

```
      00 01 02 03 04 05 06 07  08 09 0A 0B 0C 0D 0E 0F
      -- -- -- -- -- -- -- --  -- -- -- -- -- -- -- --
0010:                                      42 48 03 80              BH..
0020: 1E F0 FF FF 7F 1C 04 80  1D 05 80 23 66 06 80 F8  ...........#f...
0030: FF FF 7F F8 FF FF 7F 74  6C 6B 30 1D 07 80 23 66  .......tlk0...#f
0040: 06 80 F8 FF FF 7F F8 FF  FF 7F 74 6C 6B 31 21 00  ..........tlk1!.
```

## Opcodes

```
  0: 0x001C [0x42] SET_CLI_EVENT_CANCEL_DATA()
  1: 0x001D [0x48] [System] [9206*]:
    → "\u001F\u000F\u0008's badge flashes brightly.\u007F1\u0000\u0007"
  2: 0x0020 [0x1E] EventEntity looks at LocalPlayer and starts talking
  3: 0x0025 [0x1C] WAIT(30* ticks)
  4: 0x0028 [0x1D] PRINT_EVENT_MESSAGE(message_id=9215*)
    → "Oh, that's the badge the mercenary company is handing out to interest people in their organization, isn't it?\u007F1\u0000\u0007"
  5: 0x002B [0x23] WAIT_FOR_DIALOG_INTERACTION
  6: 0x002C [0x66] LOAD_EXT_SCHEDULER_MAIN: Load scheduler "tlk0" with entities [EventEntity, EventEntity], work=9*
  7: 0x003B [0x1D] PRINT_EVENT_MESSAGE(message_id=9216*)
    → "The rumors I've been hearing about Aht Urhgan aren't very pleasant. I'd keep my distance if I were you.\u007F1\u0000\u0007"
  8: 0x003E [0x23] WAIT_FOR_DIALOG_INTERACTION
  9: 0x003F [0x66] LOAD_EXT_SCHEDULER_MAIN: Load scheduler "tlk1" with entities [EventEntity, EventEntity], work=9*
 10: 0x004E [0x21] END_EVENT
 11: 0x004F [0x00] END_REQSTACK()
```
