# Event 65535

## Metadata

| Field           | Value    |
|-----------------|----------|
| Event Index     | 7/7      |
| Offset          | 0x00B5   |
| Data Size       | 51 bytes |
| Calculated Size | 51 bytes |
| Instructions    | 12       |

```
      00 01 02 03 04 05 06 07  08 09 0A 0B 0C 0D 0E 0F
      -- -- -- -- -- -- -- --  -- -- -- -- -- -- -- --
00B0:                24 09 80  01 80 01 80 25 02 00 10       $......%...
00C0: 01 80 00 D4 00 29 09 F0  FF FF 7F 06 03 01 10 0A  .....)..........
00D0: 80 01 E4 00 02 00 10 02  80 00 E4 00 03 01 10 0B  ................
00E0: 80 01 E4 00 20 00 21 00                           .... .!.        
```

## Opcodes

```
  0: 0x00B5 [0x24] CREATE_DIALOG(message_id=7301*, default_option=0*, option_flags=0*)
    → "\u0001@\u0002M\u0002D\u00023\u0002D\u0001B\u0007\u000B`f`_\u0002p\u000Ef\u0002h\u0002I\u0017\u0008\u0002=\u0007\u0003N\u0003G\u0003X\u0003gFLAG\u0002L\u0002]reset\u007F1\u0000\u0007"
  1: 0x00BC [0x25] WAIT_DIALOG_SELECT()
  2: 0x00BD [0x02] IF !(Work_Zone[0] == 0*) GOTO 0x00D4
  3: 0x00C5 [0x29] REQ_SET_WAIT(priority=0x09, entity_id=LocalPlayer, tag_num=0x06)
  4: 0x00CC [0x03] Work_Zone[1] = 12*
  5: 0x00D1 [0x01] GOTO 0x00E4
  6: 0x00D4 [0x02] IF !(Work_Zone[0] == 1*) GOTO 0x00E4
  7: 0x00DC [0x03] Work_Zone[1] = 100*
  8: 0x00E1 [0x01] GOTO 0x00E4

SUBROUTINE_00E4:
  9: 0x00E4 [0x20] SET_CLI_EVENT_UC_FLAG: Unlock player control
 10: 0x00E6 [0x21] END_EVENT
 11: 0x00E7 [0x00] END_REQSTACK()
```
