# Event 65535

## Metadata

| Field           | Value    |
|-----------------|----------|
| Event Index     | 4/7      |
| Offset          | 0x0044   |
| Data Size       | 48 bytes |
| Calculated Size | 48 bytes |
| Instructions    | 11       |

```
      00 01 02 03 04 05 06 07  08 09 0A 0B 0C 0D 0E 0F
      -- -- -- -- -- -- -- --  -- -- -- -- -- -- -- --
0040:             24 05 80 01  80 01 80 25 02 00 10 01      $......%....
0050: 80 00 5E 00 29 09 F0 FF  FF 7F 04 01 70 00 02 00  ..^.).......p...
0060: 10 02 80 00 70 00 29 09  F0 FF FF 7F 06 01 70 00  ....p.).......p.
0070: 20 00 21 00                                        .!.            
```

## Opcodes

```
  0: 0x0044 [0x24] CREATE_DIALOG(message_id=7303*, default_option=0*, option_flags=0*)
    → "\u0001@\u0002G\u00021\u0002V\u0003\u000F\u0001[\u0003v\u0002H\u0002L\u00026\u0002a\u0001[\u0001H\u0007\u000B\u0003~\u0003X\u0003	\u0002L	B\u0002j	F\u0007`f`_\u007F1\u0000\u0007"
  1: 0x004B [0x25] WAIT_DIALOG_SELECT()
  2: 0x004C [0x02] IF !(Work_Zone[0] == 0*) GOTO 0x005E
  3: 0x0054 [0x29] REQ_SET_WAIT(priority=0x09, entity_id=LocalPlayer, tag_num=0x04)
  4: 0x005B [0x01] GOTO 0x0070

SUBROUTINE_005E:
  5: 0x005E [0x02] IF !(Work_Zone[0] == 1*) GOTO 0x0070
  6: 0x0066 [0x29] REQ_SET_WAIT(priority=0x09, entity_id=LocalPlayer, tag_num=0x06)
  7: 0x006D [0x01] GOTO 0x0070

SUBROUTINE_0070:
  8: 0x0070 [0x20] SET_CLI_EVENT_UC_FLAG: Unlock player control
  9: 0x0072 [0x21] END_EVENT
 10: 0x0073 [0x00] END_REQSTACK()
```
