# Event 65535

## Metadata

| Field           | Value    |
|-----------------|----------|
| Event Index     | 6/7      |
| Offset          | 0x0097   |
| Data Size       | 30 bytes |
| Calculated Size | 30 bytes |
| Instructions    | 8        |

```
      00 01 02 03 04 05 06 07  08 09 0A 0B 0C 0D 0E 0F
      -- -- -- -- -- -- -- --  -- -- -- -- -- -- -- --
0090:                      24  08 80 01 80 01 80 25 02         $......%.
00A0: 00 10 01 80 00 B1 00 29  0B 01 62 0C 01 06 01 B1  .......)..b.....
00B0: 00 20 00 21 00                                    . .!.           
```

## Opcodes

```
  0: 0x0097 [0x24] CREATE_DIALOG(message_id=7300*, default_option=0*, option_flags=0*)
    → "\u0001@\u0002G\u0002L\u0003C\u0003x\u0003\u0013\u0003g\u0001H\u0007\u000B\u0001ums201:\u0014\u0012\u0002+\u000F\u0011\u0001v\u0007ZONE\u0002p\u0008j\u0013x\u0002E\u0002`\u000Fo\u0002=\u00021\u0002F\u0002I\u00027\u0002i\u0007\u0003N\u0003G\u0003X\u0003gFLAG\u0002L\u0002]reset\u007F1\u0000\u0007"
  1: 0x009E [0x25] WAIT_DIALOG_SELECT()
  2: 0x009F [0x02] IF !(Work_Zone[0] == 0*) GOTO 0x00B1
  3: 0x00A7 [0x29] REQ_SET_WAIT(priority=0x0B, entity_id=DIRECTOR (ID: 17588737/0x010C6201), tag_num=0x06)
  4: 0x00AE [0x01] GOTO 0x00B1

SUBROUTINE_00B1:
  5: 0x00B1 [0x20] SET_CLI_EVENT_UC_FLAG: Unlock player control
  6: 0x00B3 [0x21] END_EVENT
  7: 0x00B4 [0x00] END_REQSTACK()
```
