# Event 3

## Metadata

| Field           | Value    |
|-----------------|----------|
| Event Index     | 6/37     |
| Offset          | 0x0036   |
| Data Size       | 24 bytes |
| Calculated Size | 24 bytes |
| Instructions    | 12       |

```
      00 01 02 03 04 05 06 07  08 09 0A 0B 0C 0D 0E 0F
      -- -- -- -- -- -- -- --  -- -- -- -- -- -- -- --
0030:                   1E F0  FF FF 7F 6F 70 1D 07 80        .....op...
0040: 23 1D 08 80 23 1D 09 80  23 1C 06 80 21 00        #...#...#...!.  
```

## Opcodes

```
  0: 0x0036 [0x1E] EventEntity looks at LocalPlayer and starts talking
  1: 0x003B [0x6F] WAIT_FRAME_DELAY: Yield until WaitTime reaches zero
  2: 0x003C [0x70] WAIT_ENTITY_RENDER_FLAG: Wait while EventEntity->Render.Flags3 bit 2 is set (cancel turn if not)
  3: 0x003D [0x1D] PRINT_EVENT_MESSAGE(message_id=13003*)
    → "Was it our lack of faith that brought this time of despair upon us?\u007F1\u0000\u0007"
  4: 0x0040 [0x23] WAIT_FOR_DIALOG_INTERACTION
  5: 0x0041 [0x1D] PRINT_EVENT_MESSAGE(message_id=13004*)
    → "The papsque is currently being held at the Chateau d'Oraguille for questioning on the matters at hand. I have never seen His Holiness so disturbed...\u007F1\u0000\u0007"
  6: 0x0044 [0x23] WAIT_FOR_DIALOG_INTERACTION
  7: 0x0045 [0x1D] PRINT_EVENT_MESSAGE(message_id=13005*)
    → "Other than those who attended, none know of what took place at the Rites of Succession. However, I must be strong, as not to bring worry upon the members of our faith.\u007F1\u0000\u0007"
  8: 0x0048 [0x23] WAIT_FOR_DIALOG_INTERACTION
  9: 0x0049 [0x1C] WAIT(30* ticks)
 10: 0x004C [0x21] END_EVENT
 11: 0x004D [0x00] END_REQSTACK()
```
