# Event 65535

## Metadata

| Field           | Value    |
|-----------------|----------|
| Event Index     | 35/40    |
| Offset          | 0x02F5   |
| Data Size       | 60 bytes |
| Calculated Size | 60 bytes |
| Instructions    | 13       |

```
      00 01 02 03 04 05 06 07  08 09 0A 0B 0C 0D 0E 0F
      -- -- -- -- -- -- -- --  -- -- -- -- -- -- -- --
02F0:                59 04 F8  FF FF 7F 16 80 1F 00 50       Y.........P
0300: 80 51 80 52 80 1F 01 1F  00 53 80 54 80 52 80 1F  .Q.R.....S.T.R..
0310: 01 1F 00 55 80 56 80 52  80 1F 01 1F 00 57 80 58  ...U.V.R.....W.X
0320: 80 52 80 1F 01 1F 00 59  80 5A 80 5B 80 1F 01 6F  .R.....Y.Z.[...o
0330: 00                                                .               
```

## Opcodes

```
  0: 0x02F5 [0x59] UPDATE_ENTITY_DATA: Set EventEntity main speed = 13* * 0.1
  1: 0x02FD [0x1F] MOVE_ENTITY: EventEntity moves to X=-34.913*, Z=97.041*, Y=-5.000*
  2: 0x0305 [0x1F] MOVE_ENTITY: Update entity position (mode=1)
  3: 0x0307 [0x1F] MOVE_ENTITY: EventEntity moves to X=-36.843*, Z=100.526*, Y=-5.000*
  4: 0x030F [0x1F] MOVE_ENTITY: Update entity position (mode=1)
  5: 0x0311 [0x1F] MOVE_ENTITY: EventEntity moves to X=-38.413*, Z=104.758*, Y=-5.000*
  6: 0x0319 [0x1F] MOVE_ENTITY: Update entity position (mode=1)
  7: 0x031B [0x1F] MOVE_ENTITY: EventEntity moves to X=-39.062*, Z=107.483*, Y=-5.000*
  8: 0x0323 [0x1F] MOVE_ENTITY: Update entity position (mode=1)
  9: 0x0325 [0x1F] MOVE_ENTITY: EventEntity moves to X=-40.133*, Z=167.579*, Y=-5.023*
 10: 0x032D [0x1F] MOVE_ENTITY: Update entity position (mode=1)
 11: 0x032F [0x6F] WAIT_FRAME_DELAY: Yield until WaitTime reaches zero
 12: 0x0330 [0x00] END_REQSTACK()
```
