# Event 65535

## Metadata

| Field           | Value    |
|-----------------|----------|
| Event Index     | 25/40    |
| Offset          | 0x0132   |
| Data Size       | 59 bytes |
| Calculated Size | 59 bytes |
| Instructions    | 12       |

```
      00 01 02 03 04 05 06 07  08 09 0A 0B 0C 0D 0E 0F
      -- -- -- -- -- -- -- --  -- -- -- -- -- -- -- --
0130:       59 04 F8 FF FF 7F  1D 80 1F 00 1E 80 1F 80    Y.............
0140: 07 80 1F 01 1F 00 20 80  21 80 07 80 1F 01 1F 00  ...... .!.......
0150: 22 80 23 80 07 80 1F 01  1F 00 24 80 25 80 07 80  ".#.......$.%...
0160: 1F 01 6F 4A F8 FF FF 7F  00 E3 05 01 00           ..oJ.........   
```

## Opcodes

```
  0: 0x0132 [0x59] UPDATE_ENTITY_DATA: Set EventEntity main speed = 11* * 0.1
  1: 0x013A [0x1F] MOVE_ENTITY: EventEntity moves to X=305.946*, Z=39.219*, Y=-3.500*
  2: 0x0142 [0x1F] MOVE_ENTITY: Update entity position (mode=1)
  3: 0x0144 [0x1F] MOVE_ENTITY: EventEntity moves to X=305.425*, Z=40.893*, Y=-3.500*
  4: 0x014C [0x1F] MOVE_ENTITY: Update entity position (mode=1)
  5: 0x014E [0x1F] MOVE_ENTITY: EventEntity moves to X=306.760*, Z=42.864*, Y=-3.500*
  6: 0x0156 [0x1F] MOVE_ENTITY: Update entity position (mode=1)
  7: 0x0158 [0x1F] MOVE_ENTITY: EventEntity moves to X=306.465*, Z=43.464*, Y=-3.500*
  8: 0x0160 [0x1F] MOVE_ENTITY: Update entity position (mode=1)
  9: 0x0162 [0x6F] WAIT_FRAME_DELAY: Yield until WaitTime reaches zero
 10: 0x0163 [0x4A] EventEntity looks at 03 (ID: 17163008/0x0105E300)
 11: 0x016C [0x00] END_REQSTACK()
```
