# Event 115

## Metadata

| Field           | Value    |
|-----------------|----------|
| Event Index     | 7/15     |
| Offset          | 0x0037   |
| Data Size       | 33 bytes |
| Calculated Size | 33 bytes |
| Instructions    | 13       |

```
      00 01 02 03 04 05 06 07  08 09 0A 0B 0C 0D 0E 0F
      -- -- -- -- -- -- -- --  -- -- -- -- -- -- -- --
0030:                      20  01 42 1E F0 FF FF 7F 1D          .B......
0040: 06 80 23 02 02 10 07 80  00 52 00 48 08 80 23 01  ..#......R.H..#.
0050: 56 00 48 09 80 23 21 00                           V.H..#!.        
```

## Opcodes

```
  0: 0x0037 [0x20] SET_CLI_EVENT_UC_FLAG: Lock player control
  1: 0x0039 [0x42] SET_CLI_EVENT_CANCEL_DATA()
  2: 0x003A [0x1E] EventEntity looks at LocalPlayer and starts talking
  3: 0x003F [0x1D] PRINT_EVENT_MESSAGE(message_id=7289*)
    → "Huh? You want me to sign? If it'll help Galmut, you bet!\u007F1\u0000\u0007"
  4: 0x0042 [0x23] WAIT_FOR_DIALOG_INTERACTION
  5: 0x0043 [0x02] IF !(Work_Zone[2] == 0*) GOTO 0x0052
  6: 0x004B [0x48] [System] [7005*]:
    → "The petition is complete!\u007F1\u0000\u0007"
  7: 0x004E [0x23] WAIT_FOR_DIALOG_INTERACTION
  8: 0x004F [0x01] GOTO 0x0056

SUBROUTINE_0052:
  9: 0x0052 [0x48] [System] [7006*]:
    → "You have 
\u0000 more \u007F\u0012\u0000[signature/signatures] to go.\u007F1\u0000\u0007"
 10: 0x0055 [0x23] WAIT_FOR_DIALOG_INTERACTION
 11: 0x0056 [0x21] END_EVENT
 12: 0x0057 [0x00] END_REQSTACK()
```
