# Event 65535

## Metadata

| Field           | Value    |
|-----------------|----------|
| Event Index     | 29/31    |
| Offset          | 0x0215   |
| Data Size       | 40 bytes |
| Calculated Size | 40 bytes |
| Instructions    | 6        |

```
      00 01 02 03 04 05 06 07  08 09 0A 0B 0C 0D 0E 0F
      -- -- -- -- -- -- -- --  -- -- -- -- -- -- -- --
0210:                1F 00 35  80 36 80 08 80 1F 01 6F       ..5.6.....o
0220: 66 37 80 5F 21 03 01 5F  21 03 01 73 68 61 30 53  f7._!.._!..sha0S
0230: 5F 21 03 01 5F 21 03 01  73 68 61 30 00           _!.._!..sha0.   
```

## Opcodes

```
  0: 0x0215 [0x1F] MOVE_ENTITY: EventEntity moves to X=-2.438*, Z=-27.426*, Y=0.000*
  1: 0x021D [0x1F] MOVE_ENTITY: Update entity position (mode=1)
  2: 0x021F [0x6F] WAIT_FRAME_DELAY: Yield until WaitTime reaches zero
  3: 0x0220 [0x66] LOAD_EXT_SCHEDULER_MAIN: Load scheduler "sha0" with entities [Rughadjeen (ID: 16982367/0x0103215F), Rughadjeen (ID: 16982367/0x0103215F)], work=29*
  4: 0x022F [0x53] WAIT_SCHEDULER_TASK: Wait for scheduler "sha0" with entities [Rughadjeen (ID: 16982367/0x0103215F), Rughadjeen (ID: 16982367/0x0103215F)]
  5: 0x023C [0x00] END_REQSTACK()
```
