# Event 65535

## Metadata

| Field           | Value    |
|-----------------|----------|
| Event Index     | 19/31    |
| Offset          | 0x012F   |
| Data Size       | 67 bytes |
| Calculated Size | 67 bytes |
| Instructions    | 13       |

```
      00 01 02 03 04 05 06 07  08 09 0A 0B 0C 0D 0E 0F
      -- -- -- -- -- -- -- --  -- -- -- -- -- -- -- --
0120:                                               6E                 n
0130: 41 22 03 01 19 80 99 41  22 03 01 1C 23 80 5B 26  A".....A"...#.[&
0140: 80 42 22 03 01 42 22 03  01 69 72 6F 30 1C 27 80  .B"..B"..iro0.'.
0150: 1C 23 80 1C 24 80 6E 45  22 03 01 28 80 99 45 22  .#..$.nE"..(..E"
0160: 03 01 1C 25 80 6E 46 22  03 01 19 80 99 46 22 03  ...%.nF".....F".
0170: 01 00                                             ..              
```

## Opcodes

```
  0: 0x012F [0x6E] FAN3 (ID: 16982593/0x01032241) uses emote 11*
  1: 0x0136 [0x99] Wait for FAN3 (ID: 16982593/0x01032241) animation to complete
  2: 0x013B [0x1C] WAIT(3* ticks)
  3: 0x013E [0x5B] LOAD_EXT_SCHEDULER: Load scheduler "iro0" with entities [FAN4 (ID: 16982594/0x01032242), FAN4 (ID: 16982594/0x01032242)], work=1328*
  4: 0x014D [0x1C] WAIT(4* ticks)
  5: 0x0150 [0x1C] WAIT(3* ticks)
  6: 0x0153 [0x1C] WAIT(2* ticks)
  7: 0x0156 [0x6E] FAN7 (ID: 16982597/0x01032245) uses emote 8*
  8: 0x015D [0x99] Wait for FAN7 (ID: 16982597/0x01032245) animation to complete
  9: 0x0162 [0x1C] WAIT(5* ticks)
 10: 0x0165 [0x6E] FAN8 (ID: 16982598/0x01032246) uses emote 11*
 11: 0x016C [0x99] Wait for FAN8 (ID: 16982598/0x01032246) animation to complete
 12: 0x0171 [0x00] END_REQSTACK()
```
