# Event 107

## Metadata

| Field           | Value    |
|-----------------|----------|
| Event Index     | 9/108    |
| Offset          | 0x026A   |
| Data Size       | 44 bytes |
| Calculated Size | 44 bytes |
| Instructions    | 13       |

```
      00 01 02 03 04 05 06 07  08 09 0A 0B 0C 0D 0E 0F
      -- -- -- -- -- -- -- --  -- -- -- -- -- -- -- --
0260:                                20 01 42 03 02 10             .B...
0270: 2B 80 03 03 10 2C 80 1D  37 80 23 1D 34 80 23 1D  +....,..7.#.4.#.
0280: 35 80 23 45 36 80 F0 FF  FF 7F F0 FF FF 7F 71 73  5.#E6.........qs
0290: 74 63 0D 80 21 00                                 tc..!.          
```

## Opcodes

```
  0: 0x026A [0x20] SET_CLI_EVENT_UC_FLAG: Lock player control
  1: 0x026C [0x42] SET_CLI_EVENT_CANCEL_DATA()
  2: 0x026D [0x03] Work_Zone[2] = 121*
  3: 0x0272 [0x03] Work_Zone[3] = 548*
  4: 0x0277 [0x1D] PRINT_EVENT_MESSAGE(message_id=7617*)
    → "Yes, that \u0001\u00053\u0002\u0000\u0000\u0000 is valid. You are now a member of the Tenshodo. Feel free to browse our Jeuno headquarters, or our convenient Bastok branch.\u007F1\u0000\u0007"
  5: 0x027A [0x23] WAIT_FOR_DIALOG_INTERACTION
  6: 0x027B [0x1D] PRINT_EVENT_MESSAGE(message_id=7619*)
    → "Please take the door in the back. You may invite a new member with your \u0001\u0005#\u0002\u0001\u0000\u0000, or you may dispose of it in any way you please.\u007F1\u0000\u0007"
  7: 0x027E [0x23] WAIT_FOR_DIALOG_INTERACTION
  8: 0x027F [0x1D] PRINT_EVENT_MESSAGE(message_id=7620*)
    → "We look forward to serving you.\u007F1\u0000\u0007"
  9: 0x0282 [0x23] WAIT_FOR_DIALOG_INTERACTION
 10: 0x0283 [0x45] LOAD_SCHEDULED_TASK: Load scheduler "qstc" with entities [LocalPlayer, LocalPlayer], work=[201*, 0*]
 11: 0x0294 [0x21] END_EVENT
 12: 0x0295 [0x00] END_REQSTACK()
```
