# Event 108

## Metadata

| Field           | Value    |
|-----------------|----------|
| Event Index     | 8/108    |
| Offset          | 0x0243   |
| Data Size       | 39 bytes |
| Calculated Size | 39 bytes |
| Instructions    | 12       |

```
      00 01 02 03 04 05 06 07  08 09 0A 0B 0C 0D 0E 0F
      -- -- -- -- -- -- -- --  -- -- -- -- -- -- -- --
0240:          20 01 42 03 03  10 2C 80 1D 33 80 23 1D      .B...,..3.#.
0250: 34 80 23 1D 35 80 23 45  36 80 F0 FF FF 7F F0 FF  4.#.5.#E6.......
0260: FF 7F 71 73 74 63 0D 80  21 00                    ..qstc..!.      
```

## Opcodes

```
  0: 0x0243 [0x20] SET_CLI_EVENT_UC_FLAG: Lock player control
  1: 0x0245 [0x42] SET_CLI_EVENT_CANCEL_DATA()
  2: 0x0246 [0x03] Work_Zone[3] = 548*
  3: 0x024B [0x1D] PRINT_EVENT_MESSAGE(message_id=7618*)
    → "Yes, that \u0001\u0005#\u0002\u0001\u0000\u0000 is valid. You are now a member of the Tenshodo. In addition to our Jeuno headquarters, we also have a branch in Bastok.\u007F1\u0000\u0007"
  4: 0x024E [0x23] WAIT_FOR_DIALOG_INTERACTION
  5: 0x024F [0x1D] PRINT_EVENT_MESSAGE(message_id=7619*)
    → "Please take the door in the back. You may invite a new member with your \u0001\u0005#\u0002\u0001\u0000\u0000, or you may dispose of it in any way you please.\u007F1\u0000\u0007"
  6: 0x0252 [0x23] WAIT_FOR_DIALOG_INTERACTION
  7: 0x0253 [0x1D] PRINT_EVENT_MESSAGE(message_id=7620*)
    → "We look forward to serving you.\u007F1\u0000\u0007"
  8: 0x0256 [0x23] WAIT_FOR_DIALOG_INTERACTION
  9: 0x0257 [0x45] LOAD_SCHEDULED_TASK(work_offset1=201*, entity1=LocalPlayer, entity2=LocalPlayer, scheduler_id="qstc", work_offset2=0*)
 10: 0x0268 [0x21] END_EVENT
 11: 0x0269 [0x00] END_REQSTACK()
```
