# Event 65535

## Metadata

| Field           | Value    |
|-----------------|----------|
| Event Index     | 4/13     |
| Offset          | 0x00C8   |
| Data Size       | 58 bytes |
| Calculated Size | 58 bytes |
| Instructions    | 8        |

```
      00 01 02 03 04 05 06 07  08 09 0A 0B 0C 0D 0E 0F
      -- -- -- -- -- -- -- --  -- -- -- -- -- -- -- --
00C0:                          2F 00 89 32 07 01 4E 00          /..2..N.
00D0: 89 32 07 01 94 01 89 32  07 01 92 01 89 32 07 01  .2.....2.....2..
00E0: BA 89 32 07 01 16 80 17  80 18 80 08 80 80 89 32  ..2............2
00F0: 07 01 5B 19 80 89 32 07  01 89 32 07 01 73 6B 79  ..[...2...2..sky
0100: 30 00                                             0.              
```

## Opcodes

```
  0: 0x00C8 [0x2F] Babban Ny Mheillea (ID: 17248905/0x01073289)->Render.Flags0 &= ~0x80000 // Bit 19
  1: 0x00CE [0x4E] SET_ENTITY_HIDE_FLAG: Show Babban Ny Mheillea (ID: 17248905/0x01073289)
  2: 0x00D4 [0x94] Babban Ny Mheillea (ID: 17248905/0x01073289)->Render.Flags3 ^= 0x01
  3: 0x00DA [0x92] Babban Ny Mheillea (ID: 17248905/0x01073289)->Render.Flags3 ^= 0x01
  4: 0x00E0 [0xBA] SET_ENTITY_POSITION(entity_id=Babban Ny Mheillea (ID: 17248905/0x01073289), pos_x=677.634*, pos_z=589.082*, pos_y=-41.000*, direction=223.8°*)
  5: 0x00ED [0x80] LOAD_WAIT(entity=Babban Ny Mheillea (ID: 17248905/0x01073289))
  6: 0x00F2 [0x5B] LOAD_EXT_SCHEDULER(work_offset=2161*, entity1=Babban Ny Mheillea (ID: 17248905/0x01073289), entity2=Babban Ny Mheillea (ID: 17248905/0x01073289), action="sky0")
  7: 0x0101 [0x00] END_REQSTACK()
```
