# Event 65535

## Metadata

| Field           | Value    |
|-----------------|----------|
| Event Index     | 5/13     |
| Offset          | 0x0102   |
| Data Size       | 51 bytes |
| Calculated Size | 51 bytes |
| Instructions    | 7        |

```
      00 01 02 03 04 05 06 07  08 09 0A 0B 0C 0D 0E 0F
      -- -- -- -- -- -- -- --  -- -- -- -- -- -- -- --
0100:       2F 00 89 32 07 01  4E 00 89 32 07 01 6B 69    /..2..N..2..ki
0110: 64 6C 30 89 32 07 01 94  01 89 32 07 01 92 01 89  dl0.2.....2.....
0120: 32 07 01 BA 89 32 07 01  16 80 17 80 1A 80 08 80  2....2..........
0130: 80 89 32 07 01                                    ..2..           
```

## Opcodes

```
  0: 0x0102 [0x2F] Babban Ny Mheillea (ID: 17248905/0x01073289)->Render.Flags0 &= ~0x80000 // Bit 19
  1: 0x0108 [0x4E] SET_ENTITY_HIDE_FLAG: Show Babban Ny Mheillea (ID: 17248905/0x01073289)
  2: 0x010E [0x6B] STOP_AND_IDLE: Babban Ny Mheillea (ID: 17248905/0x01073289) stops current action and resets to idle (animation="idl0")
  3: 0x0117 [0x94] Babban Ny Mheillea (ID: 17248905/0x01073289)->Render.Flags3 ^= 0x01
  4: 0x011D [0x92] Babban Ny Mheillea (ID: 17248905/0x01073289)->Render.Flags3 ^= 0x01
  5: 0x0123 [0xBA] SET_ENTITY_POSITION(entity_id=Babban Ny Mheillea (ID: 17248905/0x01073289), pos_x=677.634*, pos_z=589.082*, pos_y=-40.950*, direction=223.8°*)
  6: 0x0130 [0x80] LOAD_WAIT(entity=Babban Ny Mheillea (ID: 17248905/0x01073289))
```
