# Event 82

## Metadata

| Field           | Value    |
|-----------------|----------|
| Event Index     | 13/50    |
| Offset          | 0x05E8   |
| Data Size       | 18 bytes |
| Calculated Size | 18 bytes |
| Instructions    | 8        |

```
      00 01 02 03 04 05 06 07  08 09 0A 0B 0C 0D 0E 0F
      -- -- -- -- -- -- -- --  -- -- -- -- -- -- -- --
05E0:                          1E F0 FF FF 7F 6F 70 03          .....op.
05F0: 02 10 30 80 1D 3B 80 23  21 00                    ..0..;.#!.      
```

## Opcodes

```
  0: 0x05E8 [0x1E] EventEntity looks at LocalPlayer and starts talking
  1: 0x05ED [0x6F] WAIT_FRAME_DELAY: Yield until WaitTime reaches zero
  2: 0x05EE [0x70] WAIT_ENTITY_RENDER_FLAG: Wait while EventEntity->Render.Flags3 bit 2 is set (cancel turn if not)
  3: 0x05EF [0x03] Work_Zone[2] = 533*
  4: 0x05F4 [0x1D] PRINT_EVENT_MESSAGE(message_id=7385*)
    → "Ah, almost forgot. You can find \u0001\u0001\u0001 \u0001\u0005$\u0002\u0000\u0000\u0000 in Derfland. If you are successful, I am sure Queen Leaute would be grateful.\u007F1\u0000\u0007"
  5: 0x05F7 [0x23] WAIT_FOR_DIALOG_INTERACTION
  6: 0x05F8 [0x21] END_EVENT
  7: 0x05F9 [0x00] END_REQSTACK()
```
