# Event 1001

## Metadata

| Field           | Value    |
|-----------------|----------|
| Event Index     | 83/95    |
| Offset          | 0x28C6   |
| Data Size       | 64 bytes |
| Calculated Size | 64 bytes |
| Instructions    | 17       |

```
      00 01 02 03 04 05 06 07  08 09 0A 0B 0C 0D 0E 0F
      -- -- -- -- -- -- -- --  -- -- -- -- -- -- -- --
28C0:                   03 2A  00 0D 80 24 42 81 05 80        .*...$B...
28D0: 01 80 25 02 00 10 01 80  00 FF 28 42 03 01 10 05  ..%.......(B....
28E0: 80 43 00 43 01 03 2B 00  02 10 03 2C 00 03 10 03  .C.C..+....,....
28F0: 2D 00 04 10 03 2E 00 05  10 1A D9 2A 01 04 29 03  -..........*..).
2900: 01 10 40 81 21 00                                 ..@.!.          
```

## Opcodes

```
  0: 0x28C6 [0x03] ExtData[1]->WorkLocal[42] = 2*
  1: 0x28CB [0x24] CREATE_DIALOG(message_id=7256*, default_option=1*, option_flags=0*)
    → "Leave the battlefield?\u0007\u000BRun away.\u0007Stay.\u007F1\u0000\u0007"
  2: 0x28D2 [0x25] WAIT_DIALOG_SELECT()
  3: 0x28D3 [0x02] IF !(Work_Zone[0] == 0*) GOTO 0x28FF
  4: 0x28DB [0x42] SET_CLI_EVENT_CANCEL_DATA()
  5: 0x28DC [0x03] Work_Zone[1] = 1*
  6: 0x28E1 [0x43] SEND_EVENT_UPDATE: Send pending tag to server (packet 0x005B)
  7: 0x28E3 [0x43] SEND_EVENT_UPDATE: Check pending flag (skip if not pending)
  8: 0x28E5 [0x03] ExtData[1]->WorkLocal[43] = Work_Zone[2]
  9: 0x28EA [0x03] ExtData[1]->WorkLocal[44] = Work_Zone[3]
 10: 0x28EF [0x03] ExtData[1]->WorkLocal[45] = Work_Zone[4]
 11: 0x28F4 [0x03] ExtData[1]->WorkLocal[46] = Work_Zone[5]
 12: 0x28F9 [0x1A] CALL_SUBROUTINE(address=0x2AD9)
 13: 0x28FC [0x01] GOTO 0x2904

SUBROUTINE_28FF:
 14: 0x28FF [0x03] Work_Zone[1] = 1073741824*
 15: 0x2904 [0x21] END_EVENT
 16: 0x2905 [0x00] END_REQSTACK()
```
