# Event 52

## Metadata

| Field           | Value    |
|-----------------|----------|
| Event Index     | 5/95     |
| Offset          | 0x00F3   |
| Data Size       | 65 bytes |
| Calculated Size | 65 bytes |
| Instructions    | 9        |

```
      00 01 02 03 04 05 06 07  08 09 0A 0B 0C 0D 0E 0F
      -- -- -- -- -- -- -- --  -- -- -- -- -- -- -- --
00F0:          2D F0 FF FF 7F  F0 FF FF 7F 6B 69 6C 31     -........kil1
0100: 1C 03 80 2D F0 FF FF 7F  F0 FF FF 7F 6B 69 6C 32  ...-........kil2
0110: 1C 03 80 2D F0 FF FF 7F  F0 FF FF 7F 6B 69 6C 33  ...-........kil3
0120: 1C 03 80 2D F0 FF FF 7F  F0 FF FF 7F 6B 69 6C 34  ...-........kil4
0130: 1C 03 80 00                                       ....            
```

## Opcodes

```
  0: 0x00F3 [0x2D] CREATE_ZONE_SCHEDULER_TASK: Create scheduler "kil1" with entities [LocalPlayer, LocalPlayer]
  1: 0x0100 [0x1C] WAIT(30* ticks)
  2: 0x0103 [0x2D] CREATE_ZONE_SCHEDULER_TASK: Create scheduler "kil2" with entities [LocalPlayer, LocalPlayer]
  3: 0x0110 [0x1C] WAIT(30* ticks)
  4: 0x0113 [0x2D] CREATE_ZONE_SCHEDULER_TASK: Create scheduler "kil3" with entities [LocalPlayer, LocalPlayer]
  5: 0x0120 [0x1C] WAIT(30* ticks)
  6: 0x0123 [0x2D] CREATE_ZONE_SCHEDULER_TASK: Create scheduler "kil4" with entities [LocalPlayer, LocalPlayer]
  7: 0x0130 [0x1C] WAIT(30* ticks)
  8: 0x0133 [0x00] END_REQSTACK()
```
