# Event 65535

## Metadata

| Field           | Value    |
|-----------------|----------|
| Event Index     | 34/95    |
| Offset          | 0x20C9   |
| Data Size       | 55 bytes |
| Calculated Size | 55 bytes |
| Instructions    | 9        |

```
      00 01 02 03 04 05 06 07  08 09 0A 0B 0C 0D 0E 0F
      -- -- -- -- -- -- -- --  -- -- -- -- -- -- -- --
20C0:                             1C EF 80 6C 81 62 0B           ...l.b.
20D0: 01 61 80 04 80 6C 82 62  0B 01 61 80 04 80 1C 2C  .a...l.b..a....,
20E0: 80 6C 7E 62 0B 01 61 80  04 80 1C 06 80 6C 81 62  .l~b..a......l.b
20F0: 0B 01 01 80 04 80 6C 82  62 0B 01 01 80 04 80 00  ......l.b.......
```

## Opcodes

```
  0: 0x20C9 [0x1C] WAIT(75* ticks)
  1: 0x20CC [0x6C] FADE_ENTITY_COLOR(entity_id=06 (ID: 17523329/0x010B6281), end_alpha=128*, fade_time=90*)
  2: 0x20D5 [0x6C] FADE_ENTITY_COLOR(entity_id=07 (ID: 17523330/0x010B6282), end_alpha=128*, fade_time=90*)
  3: 0x20DE [0x1C] WAIT(25* ticks)
  4: 0x20E1 [0x6C] FADE_ENTITY_COLOR(entity_id=03 (ID: 17523326/0x010B627E), end_alpha=128*, fade_time=90*)
  5: 0x20EA [0x1C] WAIT(15* ticks)
  6: 0x20ED [0x6C] FADE_ENTITY_COLOR(entity_id=06 (ID: 17523329/0x010B6281), end_alpha=0*, fade_time=90*)
  7: 0x20F6 [0x6C] FADE_ENTITY_COLOR(entity_id=07 (ID: 17523330/0x010B6282), end_alpha=0*, fade_time=90*)
  8: 0x20FF [0x00] END_REQSTACK()
```
