# Event 65535

## Metadata

| Field           | Value    |
|-----------------|----------|
| Event Index     | 43/95    |
| Offset          | 0x2210   |
| Data Size       | 62 bytes |
| Calculated Size | 62 bytes |
| Instructions    | 6        |

```
      00 01 02 03 04 05 06 07  08 09 0A 0B 0C 0D 0E 0F
      -- -- -- -- -- -- -- --  -- -- -- -- -- -- -- --
2210: BB F3 80 7C 62 0B 01 7C  62 0B 01 73 74 30 31 01  ...|b..|b..st01.
2220: 80 1C 38 80 BB F3 80 7C  62 0B 01 7C 62 0B 01 73  ..8....|b..|b..s
2230: 74 30 32 01 80 27 10 83  62 0B 01 0D 45 F4 80 F0  t02..'..b...E...
2240: FF FF 7F F0 FF FF 7F 64  62 6E 30 01 80 00        .......dbn0...  
```

## Opcodes

```
  0: 0x2210 [0xBB] LOAD_EVENT_SCHEDULER_ALT: Load scheduler "st01" with entities [01 (ID: 17523324/0x010B627C), 01 (ID: 17523324/0x010B627C)], work=[156*, 0*]
  1: 0x2221 [0x1C] WAIT(180* ticks)
  2: 0x2224 [0xBB] LOAD_EVENT_SCHEDULER_ALT: Load scheduler "st02" with entities [01 (ID: 17523324/0x010B627C), 01 (ID: 17523324/0x010B627C)], work=[156*, 0*]
  3: 0x2235 [0x27] REQ_SET(priority=0x10, entity_id=??? (ID: 17523331/0x010B6283), tag_num=0x0D)
  4: 0x223C [0x45] LOAD_SCHEDULED_TASK(work_offset1=482*, entity1=LocalPlayer, entity2=LocalPlayer, scheduler_id="dbn0", work_offset2=0*)
  5: 0x224D [0x00] END_REQSTACK()
```
