# Event 65535

## Metadata

| Field           | Value    |
|-----------------|----------|
| Event Index     | 66/95    |
| Offset          | 0x2430   |
| Data Size       | 70 bytes |
| Calculated Size | 70 bytes |
| Instructions    | 15       |

```
      00 01 02 03 04 05 06 07  08 09 0A 0B 0C 0D 0E 0F
      -- -- -- -- -- -- -- --  -- -- -- -- -- -- -- --
2430: 03 02 10 07 7F 02 02 10  0C 80 80 44 24 B6 0F A7  ...........D$...
2440: 80 01 75 24 02 02 10 1F  80 80 53 24 B6 0F A7 80  ..u$......S$....
2450: 01 75 24 02 02 10 20 80  80 62 24 B6 0F 09 81 01  .u$... ..b$.....
2460: 75 24 02 02 10 13 80 80  71 24 B6 0F F6 80 01 75  u$......q$.....u
2470: 24 B6 0F 32 80 00                                 $..2..          
```

## Opcodes

```
  0: 0x2430 [0x03] Work_Zone[2] = Entity->Race
  1: 0x2435 [0x02] IF !(Work_Zone[2] == 5*) GOTO 0x2444
  2: 0x243D [0xB6] ENTITY_APPEARANCE_HANDLER(case=Model size, value=87*)
  3: 0x2441 [0x01] GOTO 0x2475
  4: 0x2444 [0x02] IF !(Work_Zone[2] == 6*) GOTO 0x2453
  5: 0x244C [0xB6] ENTITY_APPEARANCE_HANDLER(case=Model size, value=87*)
  6: 0x2450 [0x01] GOTO 0x2475
  7: 0x2453 [0x02] IF !(Work_Zone[2] == 7*) GOTO 0x2462
  8: 0x245B [0xB6] ENTITY_APPEARANCE_HANDLER(case=Model size, value=93*)
  9: 0x245F [0x01] GOTO 0x2475
 10: 0x2462 [0x02] IF !(Work_Zone[2] == 8*) GOTO 0x2471
 11: 0x246A [0xB6] ENTITY_APPEARANCE_HANDLER(case=Model size, value=96*)
 12: 0x246E [0x01] GOTO 0x2475
 13: 0x2471 [0xB6] ENTITY_APPEARANCE_HANDLER(case=Model size, value=100*)

SUBROUTINE_2475:
 14: 0x2475 [0x00] END_REQSTACK()
```
