# Event 65535

## Metadata

| Field           | Value    |
|-----------------|----------|
| Event Index     | 37/95    |
| Offset          | 0x2154   |
| Data Size       | 42 bytes |
| Calculated Size | 42 bytes |
| Instructions    | 6        |

```
      00 01 02 03 04 05 06 07  08 09 0A 0B 0C 0D 0E 0F
      -- -- -- -- -- -- -- --  -- -- -- -- -- -- -- --
2150:             03 27 00 07  7F 1A BF 1E 07 28 00 05      .'.......(..
2160: 80 66 28 00 F8 FF FF 7F  F8 FF FF 7F 6C 6C 36 31  .f(.........ll61
2170: 53 F8 FF FF 7F F8 FF FF  7F 6C 6C 36 31 00        S........ll61.  
```

## Opcodes

```
  0: 0x2154 [0x03] ExtData[1]->WorkLocal[39] = Entity->Race
  1: 0x2159 [0x1A] CALL_SUBROUTINE(address=0x1EBF)
  2: 0x215C [0x07] ExtData[1]->WorkLocal[40] += 1*
  3: 0x2161 [0x66] LOAD_EXT_SCHEDULER_MAIN(work_offset=0x0028, entity1=EventEntity, entity2=EventEntity, action="ll61")
  4: 0x2170 [0x53] WAIT_SCHEDULER_TASK(entity1=EventEntity, entity2=EventEntity, action_id="ll61")
  5: 0x217D [0x00] END_REQSTACK()
```
