# Event 65535

## Metadata

| Field           | Value    |
|-----------------|----------|
| Event Index     | 25/27    |
| Offset          | 0x01C9   |
| Data Size       | 68 bytes |
| Calculated Size | 68 bytes |
| Instructions    | 8        |

```
      00 01 02 03 04 05 06 07  08 09 0A 0B 0C 0D 0E 0F
      -- -- -- -- -- -- -- --  -- -- -- -- -- -- -- --
01C0:                             5B 2B 80 F8 FF FF 7F           [+.....
01D0: F8 FF FF 7F 79 6F 72 30  53 F8 FF FF 7F F8 FF FF  ....yor0S.......
01E0: 7F 79 6F 72 30 5B 2B 80  F8 FF FF 7F F8 FF FF 7F  .yor0[+.........
01F0: 73 6B 69 30 1C 2B 80 2B  12 40 0F 01 2C 80 23 53  ski0.+.+.@..,.#S
0200: F8 FF FF 7F F8 FF FF 7F  73 6B 69 30 00           ........ski0.   
```

## Opcodes

```
  0: 0x01C9 [0x5B] LOAD_EXT_SCHEDULER(work_offset=60*, entity1=EventEntity, entity2=EventEntity, action="yor0")
  1: 0x01D8 [0x53] WAIT_SCHEDULER_TASK(entity1=EventEntity, entity2=EventEntity, action_id="yor0")
  2: 0x01E5 [0x5B] LOAD_EXT_SCHEDULER(work_offset=60*, entity1=EventEntity, entity2=EventEntity, action="ski0")
  3: 0x01F4 [0x1C] WAIT(60* ticks)
  4: 0x01F7 [0x2B] Narihira (ID: 17776658/0x010F4012) [7303*]:
    → "Ugh...\u007F4\u0001\u007F1\u0000\u0007"
  5: 0x01FE [0x23] WAIT_FOR_DIALOG_INTERACTION
  6: 0x01FF [0x53] WAIT_SCHEDULER_TASK(entity1=EventEntity, entity2=EventEntity, action_id="ski0")
  7: 0x020C [0x00] END_REQSTACK()
```
