# Event 65535

## Metadata

| Field           | Value    |
|-----------------|----------|
| Event Index     | 7/12     |
| Offset          | 0x0033   |
| Data Size       | 61 bytes |
| Calculated Size | 61 bytes |
| Instructions    | 5        |

```
      00 01 02 03 04 05 06 07  08 09 0A 0B 0C 0D 0E 0F
      -- -- -- -- -- -- -- --  -- -- -- -- -- -- -- --
0030:          66 0C 80 8E 21  03 01 8E 21 03 01 64 61     f...!...!..da
0040: 69 30 9F 0D 80 8E 21 03  01 8E 21 03 01 6D 61 69  i0....!...!..mai
0050: 6E 0E 80 53 8E 21 03 01  8E 21 03 01 64 61 69 30  n..S.!...!..dai0
0060: 66 0C 80 8E 21 03 01 8E  21 03 01 64 61 69 31 00  f...!...!..dai1.
```

## Opcodes

```
  0: 0x0033 [0x66] LOAD_EXT_SCHEDULER_MAIN: Load scheduler "dai0" with entities [Yadhiwa (ID: 16982414/0x0103218E), Yadhiwa (ID: 16982414/0x0103218E)], work=31*
  1: 0x0042 [0x9F] LOAD_SCHEDULED_TASK_ALT: Load scheduler "main" with entities [Yadhiwa (ID: 16982414/0x0103218E), Yadhiwa (ID: 16982414/0x0103218E)], work=[228*, 0*]
  2: 0x0053 [0x53] WAIT_SCHEDULER_TASK: Wait for scheduler "dai0" with entities [Yadhiwa (ID: 16982414/0x0103218E), Yadhiwa (ID: 16982414/0x0103218E)]
  3: 0x0060 [0x66] LOAD_EXT_SCHEDULER_MAIN: Load scheduler "dai1" with entities [Yadhiwa (ID: 16982414/0x0103218E), Yadhiwa (ID: 16982414/0x0103218E)], work=31*
  4: 0x006F [0x00] END_REQSTACK()
```
