# Event 65535

## Metadata

| Field           | Value    |
|-----------------|----------|
| Event Index     | 13/46    |
| Offset          | 0x0294   |
| Data Size       | 62 bytes |
| Calculated Size | 62 bytes |
| Instructions    | 10       |

```
      00 01 02 03 04 05 06 07  08 09 0A 0B 0C 0D 0E 0F
      -- -- -- -- -- -- -- --  -- -- -- -- -- -- -- --
0290:             32 1A 80 1F  00 1B 80 1C 80 15 80 1F      2...........
02A0: 01 1E 91 A0 0E 01 1C 00  80 4B 91 A0 0E 01 45 80  .........K....E.
02B0: 66 03 80 90 A0 0E 01 90  A0 0E 01 74 6C 6B 30 1C  f..........tlk0.
02C0: 1D 80 66 03 80 90 A0 0E  01 90 A0 0E 01 74 6C 6B  ..f..........tlk
02D0: 31 00                                             1.              
```

## Opcodes

```
  0: 0x0294 [0x32] ExtData[1]->MainSpeed = 13* * 0.1
  1: 0x0297 [0x1F] MOVE_ENTITY: EventEntity moves to X=-11.919*, Z=-114.962*, Y=1.548*
  2: 0x029F [0x1F] MOVE_ENTITY: Update entity position (mode=1)
  3: 0x02A1 [0x1E] EventEntity looks at Unnamed NPC (ID: 17735825/0x010EA091) and starts talking
  4: 0x02A6 [0x1C] WAIT(30* ticks)
  5: 0x02A9 [0x4B] UPDATE_ENTITY_YAW(entity=Unnamed NPC (ID: 17735825/0x010EA091), yaw=5.4°*)
  6: 0x02B0 [0x66] LOAD_EXT_SCHEDULER_MAIN: Load scheduler "tlk0" with entities [Zopago (ID: 17735824/0x010EA090), Zopago (ID: 17735824/0x010EA090)], work=69*
  7: 0x02BF [0x1C] WAIT(60* ticks)
  8: 0x02C2 [0x66] LOAD_EXT_SCHEDULER_MAIN: Load scheduler "tlk1" with entities [Zopago (ID: 17735824/0x010EA090), Zopago (ID: 17735824/0x010EA090)], work=69*
  9: 0x02D1 [0x00] END_REQSTACK()
```
