# Event 65535

## Metadata

| Field           | Value    |
|-----------------|----------|
| Event Index     | 15/46    |
| Offset          | 0x0324   |
| Data Size       | 71 bytes |
| Calculated Size | 71 bytes |
| Instructions    | 13       |

```
      00 01 02 03 04 05 06 07  08 09 0A 0B 0C 0D 0E 0F
      -- -- -- -- -- -- -- --  -- -- -- -- -- -- -- --
0320:             32 1A 80 1F  00 1B 80 1C 80 15 80 1F      2...........
0330: 01 1E 91 A0 0E 01 1C 00  80 66 03 80 90 A0 0E 01  .........f......
0340: 90 A0 0E 01 74 6C 6B 30  1C 1D 80 66 03 80 90 A0  ....tlk0...f....
0350: 0E 01 90 A0 0E 01 74 6C  6B 31 1C 1D 80 32 1A 80  ......tlk1...2..
0360: 1F 00 17 80 18 80 15 80  1F 01 00                 ...........     
```

## Opcodes

```
  0: 0x0324 [0x32] ExtData[1]->MainSpeed = 13* * 0.1
  1: 0x0327 [0x1F] MOVE_ENTITY: EventEntity moves to X=-11.919*, Z=-114.962*, Y=1.548*
  2: 0x032F [0x1F] MOVE_ENTITY: Update entity position (mode=1)
  3: 0x0331 [0x1E] EventEntity looks at Unnamed NPC (ID: 17735825/0x010EA091) and starts talking
  4: 0x0336 [0x1C] WAIT(30* ticks)
  5: 0x0339 [0x66] LOAD_EXT_SCHEDULER_MAIN: Load scheduler "tlk0" with entities [Zopago (ID: 17735824/0x010EA090), Zopago (ID: 17735824/0x010EA090)], work=69*
  6: 0x0348 [0x1C] WAIT(60* ticks)
  7: 0x034B [0x66] LOAD_EXT_SCHEDULER_MAIN: Load scheduler "tlk1" with entities [Zopago (ID: 17735824/0x010EA090), Zopago (ID: 17735824/0x010EA090)], work=69*
  8: 0x035A [0x1C] WAIT(60* ticks)
  9: 0x035D [0x32] ExtData[1]->MainSpeed = 13* * 0.1
 10: 0x0360 [0x1F] MOVE_ENTITY: EventEntity moves to X=-10.342*, Z=-114.750*, Y=1.548*
 11: 0x0368 [0x1F] MOVE_ENTITY: Update entity position (mode=1)
 12: 0x036A [0x00] END_REQSTACK()
```
