# Event 65535

## Metadata

| Field           | Value    |
|-----------------|----------|
| Event Index     | 14/46    |
| Offset          | 0x02D2   |
| Data Size       | 82 bytes |
| Calculated Size | 82 bytes |
| Instructions    | 13       |

```
      00 01 02 03 04 05 06 07  08 09 0A 0B 0C 0D 0E 0F
      -- -- -- -- -- -- -- --  -- -- -- -- -- -- -- --
02D0:       32 1A 80 1F 00 46  80 47 80 11 80 1F 01 4B    2....F.G.....K
02E0: 90 A0 0E 01 48 80 1C 1D  80 02 03 10 39 80 80 FB  ....H.......9...
02F0: 02 4B 91 A0 0E 01 49 80  01 02 03 4B 97 A0 0E 01  .K....I....K....
0300: 49 80 66 03 80 90 A0 0E  01 90 A0 0E 01 74 6C 6B  I.f..........tlk
0310: 30 1C 1D 80 66 03 80 90  A0 0E 01 90 A0 0E 01 74  0...f..........t
0320: 6C 6B 31 00                                       lk1.            
```

## Opcodes

```
  0: 0x02D2 [0x32] ExtData[1]->MainSpeed = 13* * 0.1
  1: 0x02D5 [0x1F] MOVE_ENTITY: EventEntity moves to X=-7.926*, Z=-100.586*, Y=1.399*
  2: 0x02DD [0x1F] MOVE_ENTITY: Update entity position (mode=1)
  3: 0x02DF [0x4B] UPDATE_ENTITY_YAW(entity=Zopago (ID: 17735824/0x010EA090), yaw=4.08°*)
  4: 0x02E6 [0x1C] WAIT(60* ticks)
  5: 0x02E9 [0x02] IF !(Work_Zone[3] == 3*) GOTO 0x02FB
  6: 0x02F1 [0x4B] UPDATE_ENTITY_YAW(entity=Unnamed NPC (ID: 17735825/0x010EA091), yaw=2.81°*)
  7: 0x02F8 [0x01] GOTO 0x0302

SUBROUTINE_02FB:
  8: 0x02FB [0x4B] UPDATE_ENTITY_YAW(entity=Unnamed NPC (ID: 17735831/0x010EA097), yaw=2.81°*)
  9: 0x0302 [0x66] LOAD_EXT_SCHEDULER_MAIN: Load scheduler "tlk0" with entities [Zopago (ID: 17735824/0x010EA090), Zopago (ID: 17735824/0x010EA090)], work=69*
 10: 0x0311 [0x1C] WAIT(60* ticks)
 11: 0x0314 [0x66] LOAD_EXT_SCHEDULER_MAIN: Load scheduler "tlk1" with entities [Zopago (ID: 17735824/0x010EA090), Zopago (ID: 17735824/0x010EA090)], work=69*
 12: 0x0323 [0x00] END_REQSTACK()
```
