# Event 56

## Metadata

| Field           | Value    |
|-----------------|----------|
| Event Index     | 5/6      |
| Offset          | 0x00BF   |
| Data Size       | 45 bytes |
| Calculated Size | 45 bytes |
| Instructions    | 9        |

```
      00 01 02 03 04 05 06 07  08 09 0A 0B 0C 0D 0E 0F
      -- -- -- -- -- -- -- --  -- -- -- -- -- -- -- --
00B0:                                               1E                 .
00C0: F0 FF FF 7F 6F 70 66 00  80 F8 FF FF 7F F8 FF FF  ....opf.........
00D0: 7F 74 6C 6B 30 1D 0E 80  23 45 0F 80 F0 FF FF 7F  .tlk0...#E......
00E0: F0 FF FF 7F 71 73 74 63  0A 80 21 00              ....qstc..!.    
```

## Opcodes

```
  0: 0x00BF [0x1E] EventEntity looks at LocalPlayer and starts talking
  1: 0x00C4 [0x6F] WAIT_FRAME_DELAY: Yield until WaitTime reaches zero
  2: 0x00C5 [0x70] WAIT_ENTITY_RENDER_FLAG: Wait while EventEntity->Render.Flags3 bit 2 is set (cancel turn if not)
  3: 0x00C6 [0x66] LOAD_EXT_SCHEDULER_MAIN: Load scheduler "tlk0" with entities [EventEntity, EventEntity], work=20*
  4: 0x00D5 [0x1D] PRINT_EVENT_MESSAGE(message_id=11540*)
    → "You've got the neutralizer! But, the thing is...it turns out it was all just a hoax. But we'll reward you anyway.\u007F1\u0000\u0007"
  5: 0x00D8 [0x23] WAIT_FOR_DIALOG_INTERACTION
  6: 0x00D9 [0x45] LOAD_SCHEDULED_TASK: Load scheduler "qstc" with entities [LocalPlayer, LocalPlayer], work=[201*, 0*]
  7: 0x00EA [0x21] END_EVENT
  8: 0x00EB [0x00] END_REQSTACK()
```
