# Event 65535

## Metadata

| Field           | Value    |
|-----------------|----------|
| Event Index     | 45/60    |
| Offset          | 0x07F3   |
| Data Size       | 59 bytes |
| Calculated Size | 59 bytes |
| Instructions    | 12       |

```
      00 01 02 03 04 05 06 07  08 09 0A 0B 0C 0D 0E 0F
      -- -- -- -- -- -- -- --  -- -- -- -- -- -- -- --
07F0:          59 04 F8 FF FF  7F A7 80 1F 00 A8 80 A9     Y............
0800: 80 55 80 1F 01 1F 00 AA  80 AB 80 55 80 1F 01 1F  .U.........U....
0810: 00 AC 80 AD 80 55 80 1F  01 1F 00 AE 80 AF 80 55  .....U.........U
0820: 80 1F 01 6F 4A F8 FF FF  7F 00 E3 05 01 00        ...oJ.........  
```

## Opcodes

```
  0: 0x07F3 [0x59] UPDATE_ENTITY_DATA: Set EventEntity main speed = 11* * 0.1
  1: 0x07FB [0x1F] MOVE_ENTITY: EventEntity moves to X=305.946*, Z=39.219*, Y=-3.500*
  2: 0x0803 [0x1F] MOVE_ENTITY: Update entity position (mode=1)
  3: 0x0805 [0x1F] MOVE_ENTITY: EventEntity moves to X=305.425*, Z=40.893*, Y=-3.500*
  4: 0x080D [0x1F] MOVE_ENTITY: Update entity position (mode=1)
  5: 0x080F [0x1F] MOVE_ENTITY: EventEntity moves to X=306.760*, Z=42.864*, Y=-3.500*
  6: 0x0817 [0x1F] MOVE_ENTITY: Update entity position (mode=1)
  7: 0x0819 [0x1F] MOVE_ENTITY: EventEntity moves to X=306.465*, Z=43.464*, Y=-3.500*
  8: 0x0821 [0x1F] MOVE_ENTITY: Update entity position (mode=1)
  9: 0x0823 [0x6F] WAIT_FRAME_DELAY: Yield until WaitTime reaches zero
 10: 0x0824 [0x4A] EventEntity looks at 03 (ID: 17163008/0x0105E300)
 11: 0x082D [0x00] END_REQSTACK()
```
