# Event 65535

## Metadata

| Field           | Value    |
|-----------------|----------|
| Event Index     | 55/60    |
| Offset          | 0x09B6   |
| Data Size       | 60 bytes |
| Calculated Size | 60 bytes |
| Instructions    | 13       |

```
      00 01 02 03 04 05 06 07  08 09 0A 0B 0C 0D 0E 0F
      -- -- -- -- -- -- -- --  -- -- -- -- -- -- -- --
09B0:                   59 04  F8 FF FF 7F A3 80 1F 00        Y.........
09C0: D9 80 DA 80 1C 80 1F 01  1F 00 DB 80 DC 80 1C 80  ................
09D0: 1F 01 1F 00 DD 80 DE 80  1C 80 1F 01 1F 00 DF 80  ................
09E0: E0 80 1C 80 1F 01 1F 00  24 80 25 80 26 80 1F 01  ........$.%.&...
09F0: 6F 00                                             o.              
```

## Opcodes

```
  0: 0x09B6 [0x59] UPDATE_ENTITY_DATA: Set EventEntity main speed = 13* * 0.1
  1: 0x09BE [0x1F] MOVE_ENTITY: EventEntity moves to X=-34.913*, Z=97.041*, Y=-5.000*
  2: 0x09C6 [0x1F] MOVE_ENTITY: Update entity position (mode=1)
  3: 0x09C8 [0x1F] MOVE_ENTITY: EventEntity moves to X=-36.843*, Z=100.526*, Y=-5.000*
  4: 0x09D0 [0x1F] MOVE_ENTITY: Update entity position (mode=1)
  5: 0x09D2 [0x1F] MOVE_ENTITY: EventEntity moves to X=-38.413*, Z=104.758*, Y=-5.000*
  6: 0x09DA [0x1F] MOVE_ENTITY: Update entity position (mode=1)
  7: 0x09DC [0x1F] MOVE_ENTITY: EventEntity moves to X=-39.062*, Z=107.483*, Y=-5.000*
  8: 0x09E4 [0x1F] MOVE_ENTITY: Update entity position (mode=1)
  9: 0x09E6 [0x1F] MOVE_ENTITY: EventEntity moves to X=-40.133*, Z=167.579*, Y=-5.023*
 10: 0x09EE [0x1F] MOVE_ENTITY: Update entity position (mode=1)
 11: 0x09F0 [0x6F] WAIT_FRAME_DELAY: Yield until WaitTime reaches zero
 12: 0x09F1 [0x00] END_REQSTACK()
```
