# Event 9251

## Metadata

| Field           | Value    |
|-----------------|----------|
| Event Index     | 60/62    |
| Offset          | 0x23B8   |
| Data Size       | 36 bytes |
| Calculated Size | 36 bytes |
| Instructions    | 12       |

```
      00 01 02 03 04 05 06 07  08 09 0A 0B 0C 0D 0E 0F
      -- -- -- -- -- -- -- --  -- -- -- -- -- -- -- --
23B0:                          1A 63 25 1A 7D 25 20 01          .c%.}% .
23C0: 1C 21 80 06 0F 00 06 0E  00 06 0D 00 02 0F 00 01  .!..............
23D0: 80 00 DA 23 1A 43 26 01  CC 23 21 00              ...#.C&..#!.    
```

## Opcodes

```
  0: 0x23B8 [0x1A] CALL_SUBROUTINE(address=0x2563)
  1: 0x23BB [0x1A] CALL_SUBROUTINE(address=0x257D)
  2: 0x23BE [0x20] SET_CLI_EVENT_UC_FLAG: Lock player control
  3: 0x23C0 [0x1C] WAIT(60* ticks)
  4: 0x23C3 [0x06] ExtData[1]->WorkLocal[15] = 0
  5: 0x23C6 [0x06] ExtData[1]->WorkLocal[14] = 0
  6: 0x23C9 [0x06] ExtData[1]->WorkLocal[13] = 0
  7: 0x23CC [0x02] IF !(ExtData[1]->WorkLocal[15] == 0*) GOTO 0x23DA
  8: 0x23D4 [0x1A] CALL_SUBROUTINE(address=0x2643)
  9: 0x23D7 [0x01] GOTO 0x23CC

SUBROUTINE_23DA:
 10: 0x23DA [0x21] END_EVENT
 11: 0x23DB [0x00] END_REQSTACK()
```
