# Event 65535

## Metadata

| Field           | Value    |
|-----------------|----------|
| Event Index     | 15/17    |
| Offset          | 0x18CE   |
| Data Size       | 80 bytes |
| Calculated Size | 80 bytes |
| Instructions    | 10       |

```
      00 01 02 03 04 05 06 07  08 09 0A 0B 0C 0D 0E 0F
      -- -- -- -- -- -- -- --  -- -- -- -- -- -- -- --
18C0:                                            45 30                E0
18D0: 80 F0 FF FF 7F F0 FF FF  7F 6E 61 6B 73 00 80 45  .........naks..E
18E0: 30 80 F0 FF FF 7F F0 FF  FF 7F 68 61 73 73 00 80  0.........hass..
18F0: 45 30 80 11 60 04 01 11  60 04 01 6B 61 6E 74 00  E0..`...`..kant.
1900: 80 03 02 10 34 10 2B 1A  60 04 01 52 80 1A 0C 17  ....4.+.`..R....
1910: 1C 3F 80 2B 1A 60 04 01  53 80 1C 3F 80 00        .?.+.`..S..?..  
```

## Opcodes

```
  0: 0x18CE [0x45] LOAD_SCHEDULED_TASK: Load scheduler "naks" with entities [LocalPlayer, LocalPlayer], work=[191*, 0*]
  1: 0x18DF [0x45] LOAD_SCHEDULED_TASK: Load scheduler "hass" with entities [LocalPlayer, LocalPlayer], work=[191*, 0*]
  2: 0x18F0 [0x45] LOAD_SCHEDULED_TASK: Load scheduler "kant" with entities [Unnamed NPC (ID: 17063953/0x01046011), Unnamed NPC (ID: 17063953/0x01046011)], work=[191*, 0*]
  3: 0x1901 [0x03] Work_Zone[2] = Work_Zone[52]
  4: 0x1906 [0x2B] Goccilo (ID: 17063962/0x0104601A) [8825*]:
    → "And they're off!\u0000\u0007"
  5: 0x190D [0x1A] CALL_SUBROUTINE(address=0x170C)
  6: 0x1910 [0x1C] WAIT(90* ticks)
  7: 0x1913 [0x2B] Goccilo (ID: 17063962/0x0104601A) [8830*]:
    → "Ah! It looks like one of the birds was slow out of the gate! Will it be able to catch up in time!?\u0000\u0007"
  8: 0x191A [0x1C] WAIT(90* ticks)
  9: 0x191D [0x00] END_REQSTACK()
```
