# Event 235

## Metadata

| Field           | Value    |
|-----------------|----------|
| Event Index     | 16/20    |
| Offset          | 0x0013   |
| Data Size       | 41 bytes |
| Calculated Size | 41 bytes |
| Instructions    | 9        |

```
      00 01 02 03 04 05 06 07  08 09 0A 0B 0C 0D 0E 0F
      -- -- -- -- -- -- -- --  -- -- -- -- -- -- -- --
0010:          42 4A 11 C0 0F  01 F0 FF FF 7F 6F 76 11     BJ........ov.
0020: C0 0F 01 66 00 80 11 C0  0F 01 11 C0 0F 01 74 6C  ...f..........tl
0030: 6B 30 2B 11 C0 0F 01 01  80 23 21 00              k0+......#!.    
```

## Opcodes

```
  0: 0x0013 [0x42] SET_CLI_EVENT_CANCEL_DATA()
  1: 0x0014 [0x4A] Comitiolus (ID: 17809425/0x010FC011) looks at LocalPlayer
  2: 0x001D [0x6F] WAIT_FRAME_DELAY: Yield until WaitTime reaches zero
  3: 0x001E [0x76] CHECK_ENTITY_RENDER_FLAGS: Wait until Comitiolus (ID: 17809425/0x010FC011) Render.Flags0 and Render.Flags3 conditions are met
  4: 0x0023 [0x66] LOAD_EXT_SCHEDULER_MAIN(work_offset=0*, entity1=Comitiolus (ID: 17809425/0x010FC011), entity2=Comitiolus (ID: 17809425/0x010FC011), action="tlk0")
  5: 0x0032 [0x2B] Comitiolus (ID: 17809425/0x010FC011) [11265*]:
    → "Sorry, \u0008, the boss is a little busy right now.\u0007Ye'll have to make yer meetin' fer another day.\u007F1\u0000\u0007"
  6: 0x0039 [0x23] WAIT_FOR_DIALOG_INTERACTION
  7: 0x003A [0x21] END_EVENT
  8: 0x003B [0x00] END_REQSTACK()
```
