# Event 562

## Metadata

| Field           | Value    |
|-----------------|----------|
| Event Index     | 3/5      |
| Offset          | 0x0037   |
| Data Size       | 50 bytes |
| Calculated Size | 50 bytes |
| Instructions    | 10       |

```
      00 01 02 03 04 05 06 07  08 09 0A 0B 0C 0D 0E 0F
      -- -- -- -- -- -- -- --  -- -- -- -- -- -- -- --
0030:                      1E  F0 FF FF 7F 6F 70 29 10         .....op).
0040: F0 FF FF 7F 03 66 00 80  F8 FF FF 7F F8 FF FF 7F  .....f..........
0050: 74 6C 62 30 1D 01 80 23  66 00 80 F8 FF FF 7F F8  tlb0...#f.......
0060: FF FF 7F 74 6C 62 31 21  00                       ...tlb1!.       
```

## Opcodes

```
  0: 0x0037 [0x1E] EventEntity looks at LocalPlayer and starts talking
  1: 0x003C [0x6F] WAIT_FRAME_DELAY: Yield until WaitTime reaches zero
  2: 0x003D [0x70] WAIT_ENTITY_RENDER_FLAG: Wait while EventEntity->Render.Flags3 bit 2 is set (cancel turn if not)
  3: 0x003E [0x29] REQ_SET_WAIT(priority=0x10, entity_id=LocalPlayer, tag_num=0x03)
  4: 0x0045 [0x66] LOAD_EXT_SCHEDULER_MAIN: Load scheduler "tlb0" with entities [EventEntity, EventEntity], work=13*
  5: 0x0054 [0x1D] PRINT_EVENT_MESSAGE(message_id=9907*)
    → "If you're a fun-loving \u007F\u0005[lord/lady] looking for a good time, I'd be more than willing to show you to the Mummers' Coalition.\u0001t\u007F1\u0000\u0007"
  6: 0x0057 [0x23] WAIT_FOR_DIALOG_INTERACTION
  7: 0x0058 [0x66] LOAD_EXT_SCHEDULER_MAIN: Load scheduler "tlb1" with entities [EventEntity, EventEntity], work=13*
  8: 0x0067 [0x21] END_EVENT
  9: 0x0068 [0x00] END_REQSTACK()
```
