# 17428931 - KODAI10

## Common Data

| Field            | Value                         |
|------------------|-------------------------------|
| Zone             | Temple of Uggalepih (ID: 159) |
| Block Size       | 272 bytes                     |
| Total Events     | 9                             |
| References Count | 28                            |

## List of Events

| Event ID                 | Entrypoint   |   Size |   Instructions |
|--------------------------|--------------|--------|----------------|
| [65535](#event-65535)    | 0x0000       |      1 |              1 |
| [65535.1](#event-655351) | 0x0001       |      1 |              1 |
| [65535.2](#event-655352) | 0x0002       |     10 |              2 |
| [65535.3](#event-655353) | 0x000C       |     44 |             10 |
| [65535.4](#event-655354) | 0x0038       |      1 |              1 |
| [65535.5](#event-655355) | 0x0039       |     10 |              2 |
| [65535.6](#event-655356) | 0x0043       |     14 |              4 |
| [68](#event-68)          | 0x0051       |      1 |              1 |
| [65535.7](#event-655357) | 0x0052       |     24 |              6 |

## DAT References (imed_data)

|   Index | Hex Value   |   Dec Value |
|---------|-------------|-------------|
|       0 | 0xFFFFE17A  |  4294959482 |
|       1 | 0xC81F      |       51231 |
|       2 | 0xFFFF92A0  |  4294939296 |
|       3 | 0x0A2B      |        2603 |
|       4 | 0x000D      |          13 |
|       5 | 0xFFFFC23C  |  4294951484 |
|       6 | 0xEA4B      |       59979 |
|       7 | 0xFFFFB4CC  |  4294948044 |
|       8 | 0x10D8A     |       69002 |
|       9 | 0xFFFF9253  |  4294939219 |
|      10 | 0x0091      |         145 |
|      11 | 0x1933F     |      103231 |
|      12 | 0xFFFF9112  |  4294938898 |
|      13 | 0xFFFFFEDB  |  4294967003 |
|      14 | 0x1D8F9     |      121081 |
|      15 | 0xFFFF8303  |  4294935299 |
|      16 | 0x0838      |        2104 |
|      17 | 0xFFFCA042  |  4294746178 |
|      18 | 0x180C3     |       98499 |
|      19 | 0x0AF4      |        2804 |
|      20 | 0x09AE      |        2478 |
|      21 | 0xFFFC8974  |  4294740340 |
|      22 | 0x17FBF     |       98239 |
|      23 | 0xFFFC8F26  |  4294741798 |
|      24 | 0xFFFFAE11  |  4294946321 |
|      25 | 0x0000      |           0 |
|      26 | 0xFFFC8034  |  4294737972 |
|      27 | 0xFFFFADAD  |  4294946221 |

## Events

### Event 65535

#### Metadata

| Field        | Value   |
|--------------|---------|
| Entrypoint   | 0x0000  |
| Data Size    | 1 bytes |
| Instructions | 1       |

```
      00 01 02 03 04 05 06 07  08 09 0A 0B 0C 0D 0E 0F
      -- -- -- -- -- -- -- --  -- -- -- -- -- -- -- --
0000: 00                                                .               
```

#### Opcodes

```
  0: 0x0000 [0x00] END_REQSTACK()
```

### Event 65535.1

#### Metadata

| Field        | Value   |
|--------------|---------|
| Entrypoint   | 0x0001  |
| Data Size    | 1 bytes |
| Instructions | 1       |

```
      00 01 02 03 04 05 06 07  08 09 0A 0B 0C 0D 0E 0F
      -- -- -- -- -- -- -- --  -- -- -- -- -- -- -- --
0000:    00                                              .              
```

#### Opcodes

```
  0: 0x0001 [0x00] END_REQSTACK()
```

### Event 65535.2

#### Metadata

| Field        | Value    |
|--------------|----------|
| Entrypoint   | 0x0002   |
| Data Size    | 10 bytes |
| Instructions | 2        |

```
      00 01 02 03 04 05 06 07  08 09 0A 0B 0C 0D 0E 0F
      -- -- -- -- -- -- -- --  -- -- -- -- -- -- -- --
0000:       37 00 80 01 80 02  80 03 80 00                7.........    
```

#### Opcodes

```
  0: 0x0002 [0x37] UPDATE_EVENT_POSITION_AND_DIR: x=-7.814*, z=51.231*, y=-28.000*, direction=228.8°*
  1: 0x000B [0x00] END_REQSTACK()
```

### Event 65535.3

#### Metadata

| Field        | Value    |
|--------------|----------|
| Entrypoint   | 0x000C   |
| Data Size    | 44 bytes |
| Instructions | 10       |

```
      00 01 02 03 04 05 06 07  08 09 0A 0B 0C 0D 0E 0F
      -- -- -- -- -- -- -- --  -- -- -- -- -- -- -- --
0000:                                      32 04 80 1F              2...
0010: 00 05 80 06 80 02 80 1F  01 1F 00 07 80 08 80 09  ................
0020: 80 1F 01 1F 00 0A 80 0B  80 0C 80 1F 01 1F 00 0D  ................
0030: 80 0E 80 0F 80 1F 01 00                           ........        
```

#### Opcodes

```
  0: 0x000C [0x32] ExtData[1]->MainSpeed = 13* * 0.1
  1: 0x000F [0x1F] MOVE_ENTITY: EventEntity moves to X=-15.812*, Z=59.979*, Y=-28.000*
  2: 0x0017 [0x1F] MOVE_ENTITY: Update entity position (mode=1)
  3: 0x0019 [0x1F] MOVE_ENTITY: EventEntity moves to X=-19.252*, Z=69.002*, Y=-28.077*
  4: 0x0021 [0x1F] MOVE_ENTITY: Update entity position (mode=1)
  5: 0x0023 [0x1F] MOVE_ENTITY: EventEntity moves to X=0.145*, Z=103.231*, Y=-28.398*
  6: 0x002B [0x1F] MOVE_ENTITY: Update entity position (mode=1)
  7: 0x002D [0x1F] MOVE_ENTITY: EventEntity moves to X=-0.293*, Z=121.081*, Y=-31.997*
  8: 0x0035 [0x1F] MOVE_ENTITY: Update entity position (mode=1)
  9: 0x0037 [0x00] END_REQSTACK()
```

### Event 65535.4

#### Metadata

| Field        | Value   |
|--------------|---------|
| Entrypoint   | 0x0038  |
| Data Size    | 1 bytes |
| Instructions | 1       |

```
      00 01 02 03 04 05 06 07  08 09 0A 0B 0C 0D 0E 0F
      -- -- -- -- -- -- -- --  -- -- -- -- -- -- -- --
0030:                          00                               .       
```

#### Opcodes

```
  0: 0x0038 [0x00] END_REQSTACK()
```

### Event 65535.5

#### Metadata

| Field        | Value    |
|--------------|----------|
| Entrypoint   | 0x0039   |
| Data Size    | 10 bytes |
| Instructions | 2        |

```
      00 01 02 03 04 05 06 07  08 09 0A 0B 0C 0D 0E 0F
      -- -- -- -- -- -- -- --  -- -- -- -- -- -- -- --
0030:                             37 10 80 11 80 12 80           7......
0040: 13 80 00                                          ...             
```

#### Opcodes

```
  0: 0x0039 [0x37] UPDATE_EVENT_POSITION_AND_DIR: x=2.104*, z=-221.118*, y=98.499*, direction=246.4°*
  1: 0x0042 [0x00] END_REQSTACK()
```

### Event 65535.6

#### Metadata

| Field        | Value    |
|--------------|----------|
| Entrypoint   | 0x0043   |
| Data Size    | 14 bytes |
| Instructions | 4        |

```
      00 01 02 03 04 05 06 07  08 09 0A 0B 0C 0D 0E 0F
      -- -- -- -- -- -- -- --  -- -- -- -- -- -- -- --
0040:          32 04 80 1F 00  14 80 15 80 16 80 1F 01     2............
0050: 00                                                .               
```

#### Opcodes

```
  0: 0x0043 [0x32] ExtData[1]->MainSpeed = 13* * 0.1
  1: 0x0046 [0x1F] MOVE_ENTITY: EventEntity moves to X=2.478*, Z=-226.956*, Y=98.239*
  2: 0x004E [0x1F] MOVE_ENTITY: Update entity position (mode=1)
  3: 0x0050 [0x00] END_REQSTACK()
```

### Event 68

#### Metadata

| Field        | Value   |
|--------------|---------|
| Entrypoint   | 0x0051  |
| Data Size    | 1 bytes |
| Instructions | 1       |

```
      00 01 02 03 04 05 06 07  08 09 0A 0B 0C 0D 0E 0F
      -- -- -- -- -- -- -- --  -- -- -- -- -- -- -- --
0050:    00                                              .              
```

#### Opcodes

```
  0: 0x0051 [0x00] END_REQSTACK()
```

### Event 65535.7

#### Metadata

| Field        | Value    |
|--------------|----------|
| Entrypoint   | 0x0052   |
| Data Size    | 24 bytes |
| Instructions | 6        |

```
      00 01 02 03 04 05 06 07  08 09 0A 0B 0C 0D 0E 0F
      -- -- -- -- -- -- -- --  -- -- -- -- -- -- -- --
0050:       32 04 80 1F 00 17  80 18 80 19 80 1F 01 1F    2.............
0060: 00 1A 80 1B 80 19 80 1F  01 00                    ..........      
```

#### Opcodes

```
  0: 0x0052 [0x32] ExtData[1]->MainSpeed = 13* * 0.1
  1: 0x0055 [0x1F] MOVE_ENTITY: EventEntity moves to X=-225.498*, Z=-20.975*, Y=0.000*
  2: 0x005D [0x1F] MOVE_ENTITY: Update entity position (mode=1)
  3: 0x005F [0x1F] MOVE_ENTITY: EventEntity moves to X=-229.324*, Z=-21.075*, Y=0.000*
  4: 0x0067 [0x1F] MOVE_ENTITY: Update entity position (mode=1)
  5: 0x0069 [0x00] END_REQSTACK()
```
