# 17428974 - Worn Book

## Common Data

| Field            | Value                         |
|------------------|-------------------------------|
| Zone             | Temple of Uggalepih (ID: 159) |
| Block Size       | 84 bytes                      |
| Total Events     | 2                             |
| References Count | 5                             |

## List of Events

| Event ID              | Entrypoint   |   Size |   Instructions |
|-----------------------|--------------|--------|----------------|
| [65535](#event-65535) | 0x0000       |      1 |              1 |
| [61](#event-61)       | 0x0001       |     39 |             14 |

## DAT References (imed_data)

|   Index | Hex Value   |   Dec Value |
|---------|-------------|-------------|
|       0 | 0x1CB5      |        7349 |
|       1 | 0x0000      |           0 |
|       2 | 0x1CB6      |        7350 |
|       3 | 0x1CB8      |        7352 |
|       4 | 0x0001      |           1 |

## String References

- **7349**: Read this book? [Yes./No.]
- **7350**: The following is written:
- **7352**: "When painting, one should stand up straight and focus on the canvas that lies before him."

## Events

### Event 65535

#### Metadata

| Field        | Value   |
|--------------|---------|
| Entrypoint   | 0x0000  |
| Data Size    | 1 bytes |
| Instructions | 1       |

```
      00 01 02 03 04 05 06 07  08 09 0A 0B 0C 0D 0E 0F
      -- -- -- -- -- -- -- --  -- -- -- -- -- -- -- --
0000: 00                                                .               
```

#### Opcodes

```
  0: 0x0000 [0x00] END_REQSTACK()
```

### Event 61

#### Metadata

| Field        | Value    |
|--------------|----------|
| Entrypoint   | 0x0001   |
| Data Size    | 39 bytes |
| Instructions | 14       |

```
      00 01 02 03 04 05 06 07  08 09 0A 0B 0C 0D 0E 0F
      -- -- -- -- -- -- -- --  -- -- -- -- -- -- -- --
0000:    20 01 24 00 80 01 80  01 80 25 02 00 10 01 80    .$......%.....
0010: 00 24 00 42 48 02 80 23  48 03 80 23 03 01 10 04  .$.BH..#H..#....
0020: 80 01 24 00 20 00 21 00                           ..$. .!.        
```

#### Opcodes

```
  0: 0x0001 [0x20] SET_CLI_EVENT_UC_FLAG: Lock player control
  1: 0x0003 [0x24] CREATE_DIALOG(message_id=7349*, default_option=0*, option_flags=0*)
    → "Read this book? [Yes./No.]"
  2: 0x000A [0x25] WAIT_DIALOG_SELECT()
  3: 0x000B [0x02] IF !(Work_Zone[0] == 0*) GOTO 0x0024
  4: 0x0013 [0x42] SET_CLI_EVENT_CANCEL_DATA()
  5: 0x0014 [0x48] [System] [7350*]:
    → "The following is written:"
  6: 0x0017 [0x23] WAIT_FOR_DIALOG_INTERACTION
  7: 0x0018 [0x48] [System] [7352*]:
    → ""When painting, one should stand up straight and focus on the canvas that lies before him.""
  8: 0x001B [0x23] WAIT_FOR_DIALOG_INTERACTION
  9: 0x001C [0x03] Work_Zone[1] = 1*
 10: 0x0021 [0x01] GOTO 0x0024

SUBROUTINE_0024:
 11: 0x0024 [0x20] SET_CLI_EVENT_UC_FLAG: Unlock player control
 12: 0x0026 [0x21] END_EVENT
 13: 0x0027 [0x00] END_REQSTACK()
```
