# 17428910 - Ranperre

## Common Data

| Field            | Value                         |
|------------------|-------------------------------|
| Zone             | Temple of Uggalepih (ID: 159) |
| Block Size       | 256 bytes                     |
| Total Events     | 10                            |
| References Count | 8                             |

## List of Events

| Event ID                 | Entrypoint   |   Size |   Instructions |
|--------------------------|--------------|--------|----------------|
| [65535](#event-65535)    | 0x0000       |      1 |              1 |
| [65535.1](#event-655351) | 0x0001       |     10 |              2 |
| [67](#event-67)          | 0x000B       |      1 |              1 |
| [65535.2](#event-655352) | 0x000C       |     12 |              3 |
| [65535.3](#event-655353) | 0x0018       |     19 |              3 |
| [65535.4](#event-655354) | 0x002B       |     29 |              3 |
| [65535.5](#event-655355) | 0x0048       |     19 |              3 |
| [65535.6](#event-655356) | 0x005B       |     29 |              3 |
| [65535.7](#event-655357) | 0x0078       |     19 |              3 |
| [65535.8](#event-655358) | 0x008B       |     29 |              3 |

## DAT References (imed_data)

|   Index | Hex Value   |   Dec Value |
|---------|-------------|-------------|
|       0 | 0xFFFFFFDC  |  4294967260 |
|       1 | 0xA373      |       41843 |
|       2 | 0xFFFFF2BA  |  4294963898 |
|       3 | 0x0406      |        1030 |
|       4 | 0x0C00      |        3072 |
|       5 | 0x0073      |         115 |
|       6 | 0x001E      |          30 |
|       7 | 0x0074      |         116 |

## Events

### Event 65535

#### Metadata

| Field        | Value   |
|--------------|---------|
| Entrypoint   | 0x0000  |
| Data Size    | 1 bytes |
| Instructions | 1       |

```
      00 01 02 03 04 05 06 07  08 09 0A 0B 0C 0D 0E 0F
      -- -- -- -- -- -- -- --  -- -- -- -- -- -- -- --
0000: 00                                                .               
```

#### Opcodes

```
  0: 0x0000 [0x00] END_REQSTACK()
```

### Event 65535.1

#### Metadata

| Field        | Value    |
|--------------|----------|
| Entrypoint   | 0x0001   |
| Data Size    | 10 bytes |
| Instructions | 2        |

```
      00 01 02 03 04 05 06 07  08 09 0A 0B 0C 0D 0E 0F
      -- -- -- -- -- -- -- --  -- -- -- -- -- -- -- --
0000:    37 00 80 01 80 02 80  03 80 00                  7.........     
```

#### Opcodes

```
  0: 0x0001 [0x37] UPDATE_EVENT_POSITION_AND_DIR: x=-0.036*, z=41.843*, y=-3.398*, direction=90.5°*
  1: 0x000A [0x00] END_REQSTACK()
```

### Event 67

#### Metadata

| Field        | Value   |
|--------------|---------|
| Entrypoint   | 0x000B  |
| Data Size    | 1 bytes |
| Instructions | 1       |

```
      00 01 02 03 04 05 06 07  08 09 0A 0B 0C 0D 0E 0F
      -- -- -- -- -- -- -- --  -- -- -- -- -- -- -- --
0000:                                   00                         .    
```

#### Opcodes

```
  0: 0x000B [0x00] END_REQSTACK()
```

### Event 65535.2

#### Metadata

| Field        | Value    |
|--------------|----------|
| Entrypoint   | 0x000C   |
| Data Size    | 12 bytes |
| Instructions | 3        |

```
      00 01 02 03 04 05 06 07  08 09 0A 0B 0C 0D 0E 0F
      -- -- -- -- -- -- -- --  -- -- -- -- -- -- -- --
0000:                                      22 00 37 00              ".7.
0010: 80 01 80 02 80 04 80 00                           ........        
```

#### Opcodes

```
  0: 0x000C [0x22] ENTITY_HIDE_FLAG(enabled=0x00)
  1: 0x000E [0x37] UPDATE_EVENT_POSITION_AND_DIR: x=-0.036*, z=41.843*, y=-3.398*, direction=270.0°*
  2: 0x0017 [0x00] END_REQSTACK()
```

### Event 65535.3

#### Metadata

| Field        | Value    |
|--------------|----------|
| Entrypoint   | 0x0018   |
| Data Size    | 19 bytes |
| Instructions | 3        |

```
      00 01 02 03 04 05 06 07  08 09 0A 0B 0C 0D 0E 0F
      -- -- -- -- -- -- -- --  -- -- -- -- -- -- -- --
0010:                          5B 05 80 F8 FF FF 7F F8          [.......
0020: FF FF 7F 74 6C 6B 30 1C  06 80 00                 ...tlk0....     
```

#### Opcodes

```
  0: 0x0018 [0x5B] LOAD_EXT_SCHEDULER: Load scheduler "tlk0" with entities [EventEntity, EventEntity], work=115*
  1: 0x0027 [0x1C] WAIT(30* ticks)
  2: 0x002A [0x00] END_REQSTACK()
```

### Event 65535.4

#### Metadata

| Field        | Value    |
|--------------|----------|
| Entrypoint   | 0x002B   |
| Data Size    | 29 bytes |
| Instructions | 3        |

```
      00 01 02 03 04 05 06 07  08 09 0A 0B 0C 0D 0E 0F
      -- -- -- -- -- -- -- --  -- -- -- -- -- -- -- --
0020:                                   5B 05 80 F8 FF             [....
0030: FF 7F F8 FF FF 7F 74 6C  6B 31 53 F8 FF FF 7F F8  ......tlk1S.....
0040: FF FF 7F 74 6C 6B 31 00                           ...tlk1.        
```

#### Opcodes

```
  0: 0x002B [0x5B] LOAD_EXT_SCHEDULER: Load scheduler "tlk1" with entities [EventEntity, EventEntity], work=115*
  1: 0x003A [0x53] WAIT_SCHEDULER_TASK: Wait for scheduler "tlk1" with entities [EventEntity, EventEntity]
  2: 0x0047 [0x00] END_REQSTACK()
```

### Event 65535.5

#### Metadata

| Field        | Value    |
|--------------|----------|
| Entrypoint   | 0x0048   |
| Data Size    | 19 bytes |
| Instructions | 3        |

```
      00 01 02 03 04 05 06 07  08 09 0A 0B 0C 0D 0E 0F
      -- -- -- -- -- -- -- --  -- -- -- -- -- -- -- --
0040:                          5B 07 80 F8 FF FF 7F F8          [.......
0050: FF FF 7F 74 68 6B 30 1C  06 80 00                 ...thk0....     
```

#### Opcodes

```
  0: 0x0048 [0x5B] LOAD_EXT_SCHEDULER: Load scheduler "thk0" with entities [EventEntity, EventEntity], work=116*
  1: 0x0057 [0x1C] WAIT(30* ticks)
  2: 0x005A [0x00] END_REQSTACK()
```

### Event 65535.6

#### Metadata

| Field        | Value    |
|--------------|----------|
| Entrypoint   | 0x005B   |
| Data Size    | 29 bytes |
| Instructions | 3        |

```
      00 01 02 03 04 05 06 07  08 09 0A 0B 0C 0D 0E 0F
      -- -- -- -- -- -- -- --  -- -- -- -- -- -- -- --
0050:                                   5B 07 80 F8 FF             [....
0060: FF 7F F8 FF FF 7F 74 68  6B 31 53 F8 FF FF 7F F8  ......thk1S.....
0070: FF FF 7F 74 68 6B 31 00                           ...thk1.        
```

#### Opcodes

```
  0: 0x005B [0x5B] LOAD_EXT_SCHEDULER: Load scheduler "thk1" with entities [EventEntity, EventEntity], work=116*
  1: 0x006A [0x53] WAIT_SCHEDULER_TASK: Wait for scheduler "thk1" with entities [EventEntity, EventEntity]
  2: 0x0077 [0x00] END_REQSTACK()
```

### Event 65535.7

#### Metadata

| Field        | Value    |
|--------------|----------|
| Entrypoint   | 0x0078   |
| Data Size    | 19 bytes |
| Instructions | 3        |

```
      00 01 02 03 04 05 06 07  08 09 0A 0B 0C 0D 0E 0F
      -- -- -- -- -- -- -- --  -- -- -- -- -- -- -- --
0070:                          5B 05 80 F8 FF FF 7F F8          [.......
0080: FF FF 7F 61 72 61 30 1C  06 80 00                 ...ara0....     
```

#### Opcodes

```
  0: 0x0078 [0x5B] LOAD_EXT_SCHEDULER: Load scheduler "ara0" with entities [EventEntity, EventEntity], work=115*
  1: 0x0087 [0x1C] WAIT(30* ticks)
  2: 0x008A [0x00] END_REQSTACK()
```

### Event 65535.8

#### Metadata

| Field        | Value    |
|--------------|----------|
| Entrypoint   | 0x008B   |
| Data Size    | 29 bytes |
| Instructions | 3        |

```
      00 01 02 03 04 05 06 07  08 09 0A 0B 0C 0D 0E 0F
      -- -- -- -- -- -- -- --  -- -- -- -- -- -- -- --
0080:                                   5B 05 80 F8 FF             [....
0090: FF 7F F8 FF FF 7F 61 72  61 31 53 F8 FF FF 7F F8  ......ara1S.....
00A0: FF FF 7F 61 72 61 31 00                           ...ara1.        
```

#### Opcodes

```
  0: 0x008B [0x5B] LOAD_EXT_SCHEDULER: Load scheduler "ara1" with entities [EventEntity, EventEntity], work=115*
  1: 0x009A [0x53] WAIT_SCHEDULER_TASK: Wait for scheduler "ara1" with entities [EventEntity, EventEntity]
  2: 0x00A7 [0x00] END_REQSTACK()
```
