# 17428935

## Common Data

| Field            | Value                         |
|------------------|-------------------------------|
| Zone             | Temple of Uggalepih (ID: 159) |
| Block Size       | 164 bytes                     |
| Total Events     | 2                             |
| References Count | 10                            |

## List of Events

| Event ID              | Entrypoint   |   Size |   Instructions |
|-----------------------|--------------|--------|----------------|
| [65535](#event-65535) | 0x0000       |      1 |              1 |
| [66](#event-66)       | 0x0001       |     96 |             24 |

## DAT References (imed_data)

|   Index | Hex Value   |   Dec Value |
|---------|-------------|-------------|
|       0 | 0x00B4      |         180 |
|       1 | 0x1D11      |        7441 |
|       2 | 0x1D12      |        7442 |
|       3 | 0x1D13      |        7443 |
|       4 | 0x1D14      |        7444 |
|       5 | 0x0001      |           1 |
|       6 | 0x0000      |           0 |
|       7 | 0x0014      |          20 |
|       8 | 0x0002      |           2 |
|       9 | 0x0078      |         120 |

## String References

- **7444**: Pay $1 gil? [Yes./No.]

## Events

### Event 65535

#### Metadata

| Field        | Value   |
|--------------|---------|
| Entrypoint   | 0x0000  |
| Data Size    | 1 bytes |
| Instructions | 1       |

```
      00 01 02 03 04 05 06 07  08 09 0A 0B 0C 0D 0E 0F
      -- -- -- -- -- -- -- --  -- -- -- -- -- -- -- --
0000: 00                                                .               
```

#### Opcodes

```
  0: 0x0000 [0x00] END_REQSTACK()
```

### Event 66

#### Metadata

| Field        | Value    |
|--------------|----------|
| Entrypoint   | 0x0001   |
| Data Size    | 96 bytes |
| Instructions | 24       |

```
      00 01 02 03 04 05 06 07  08 09 0A 0B 0C 0D 0E 0F
      -- -- -- -- -- -- -- --  -- -- -- -- -- -- -- --
0000:    42 4C 1C 00 80 2B C8  F1 09 01 01 80 23 2B C8   BL...+......#+.
0010: F1 09 01 02 80 23 2B C8  F1 09 01 03 80 23 24 04  .....#+......#$.
0020: 80 05 80 06 80 25 02 00  10 06 80 00 49 00 03 01  .....%......I...
0030: 10 05 80 02 04 10 05 80  00 46 00 73 07 80 C8 F1  .........F.s....
0040: 09 01 F0 FF FF 7F 01 59  00 02 00 10 05 80 00 59  .......Y.......Y
0050: 00 03 01 10 08 80 01 59  00 4D 1C 09 80 20 00 21  .......Y.M... .!
0060: 00                                                .               
```

#### Opcodes

```
  0: 0x0001 [0x42] SET_CLI_EVENT_CANCEL_DATA()
  1: 0x0002 [0x4C] EventEntity->StatusEvent = 8 // Open door
  2: 0x0003 [0x1C] WAIT(180* ticks)
  3: 0x0006 [0x2B] Tonberry Priest (ID: 17428936/0x0109F1C8) [7441*]:
    → "...People are untrustworthy... ...People break promise..."
  4: 0x000D [0x23] WAIT_FOR_DIALOG_INTERACTION
  5: 0x000E [0x2B] Tonberry Priest (ID: 17428936/0x0109F1C8) [7442*]:
    → "...So if you want to be purged of rancor..."
  6: 0x0015 [0x23] WAIT_FOR_DIALOG_INTERACTION
  7: 0x0016 [0x2B] Tonberry Priest (ID: 17428936/0x0109F1C8) [7443*]:
    → "First, you pay me $1 gil!"
  8: 0x001D [0x23] WAIT_FOR_DIALOG_INTERACTION
  9: 0x001E [0x24] CREATE_DIALOG(message_id=7444*, default_option=1*, option_flags=0*)
    → "Pay $1 gil? [Yes./No.]"
 10: 0x0025 [0x25] WAIT_DIALOG_SELECT()
 11: 0x0026 [0x02] IF !(Work_Zone[0] == 0*) GOTO 0x0049
 12: 0x002E [0x03] Work_Zone[1] = 1*
 13: 0x0033 [0x02] IF !(Work_Zone[4] == 1*) GOTO 0x0046
 14: 0x003B [0x73] Tonberry Priest (ID: 17428936/0x0109F1C8) casts magic 20* on LocalPlayer
 15: 0x0046 [0x01] GOTO 0x0059
 16: 0x0049 [0x02] IF !(Work_Zone[0] == 1*) GOTO 0x0059
 17: 0x0051 [0x03] Work_Zone[1] = 2*
 18: 0x0056 [0x01] GOTO 0x0059

SUBROUTINE_0059:
 19: 0x0059 [0x4D] EventEntity->StatusEvent = 9 // Close door
 20: 0x005A [0x1C] WAIT(120* ticks)
 21: 0x005D [0x20] SET_CLI_EVENT_UC_FLAG: Unlock player control
 22: 0x005F [0x21] END_EVENT
 23: 0x0060 [0x00] END_REQSTACK()
```
