# 17428921

## Common Data

| Field            | Value                         |
|------------------|-------------------------------|
| Zone             | Temple of Uggalepih (ID: 159) |
| Block Size       | 1132 bytes                    |
| Total Events     | 2                             |
| References Count | 21                            |

## List of Events

| Event ID              | Entrypoint   |   Size |   Instructions |
|-----------------------|--------------|--------|----------------|
| [65535](#event-65535) | 0x0000       |      1 |              1 |
| [68](#event-68)       | 0x0001       |   1021 |            125 |

## DAT References (imed_data)

|   Index | Hex Value   |   Dec Value |
|---------|-------------|-------------|
|       0 | 0x0000      |           0 |
|       1 | 0x00C8      |         200 |
|       2 | 0x0003      |           3 |
|       3 | 0x1D19      |        7449 |
|       4 | 0x0013      |          19 |
|       5 | 0x000A      |          10 |
|       6 | 0xFFFCA413  |  4294747155 |
|       7 | 0xFFFFB1CC  |  4294947276 |
|       8 | 0xFFFFFFFB  |  4294967291 |
|       9 | 0x0F93      |        3987 |
|      10 | 0x0002      |           2 |
|      11 | 0x00FC      |         252 |
|      12 | 0x0064      |         100 |
|      13 | 0x00CB      |         203 |
|      14 | 0x1D1B      |        7451 |
|      15 | 0x0030      |          48 |
|      16 | 0x003C      |          60 |
|      17 | 0x0028      |          40 |
|      18 | 0x0078      |         120 |
|      19 | 0x0014      |          20 |
|      20 | 0x00C9      |         201 |

## String References

- **7449**: Something lies under the rubble.
- **7451**: A haunting song suddenly echoes throughout the ruins...

## Events

### Event 65535

#### Metadata

| Field        | Value   |
|--------------|---------|
| Entrypoint   | 0x0000  |
| Data Size    | 1 bytes |
| Instructions | 1       |

```
      00 01 02 03 04 05 06 07  08 09 0A 0B 0C 0D 0E 0F
      -- -- -- -- -- -- -- --  -- -- -- -- -- -- -- --
0000: 00                                                .               
```

#### Opcodes

```
  0: 0x0000 [0x00] END_REQSTACK()
```

### Event 68

#### Metadata

| Field        | Value      |
|--------------|------------|
| Entrypoint   | 0x0001     |
| Data Size    | 1021 bytes |
| Instructions | 125        |

```
      00 01 02 03 04 05 06 07  08 09 0A 0B 0C 0D 0E 0F
      -- -- -- -- -- -- -- --  -- -- -- -- -- -- -- --
0000:    20 01 42 46 01 5D 00  80 01 80 62 02 80 F8 FF    .BF.]....b....
0010: FF 7F F8 FF FF 7F 6D 61  69 6E 00 80 48 03 80 23  ......main..H..#
0020: 45 01 80 F0 FF FF 7F F0  FF FF 7F 66 64 6F 31 00  E..........fdo1.
0030: 80 1C 01 80 38 04 80 29  0B F0 FF FF 7F 1A 4E 00  ....8..)......N.
0040: BA F1 09 01 4E 00 BB F1  09 01 4E 00 BC F1 09 01  ....N.....N.....
0050: 4E 00 BD F1 09 01 4E 00  BE F1 09 01 4E 00 BF F1  N.....N.....N...
0060: 09 01 4E 00 C0 F1 09 01  4E 00 C1 F1 09 01 4E 00  ..N.....N.....N.
0070: C2 F1 09 01 4E 00 C3 F1  09 01 4E 00 F0 FF FF 7F  ....N.....N.....
0080: 80 BA F1 09 01 80 BB F1  09 01 80 BC F1 09 01 80  ................
0090: BD F1 09 01 80 BE F1 09  01 80 BF F1 09 01 80 C0  ................
00A0: F1 09 01 80 C1 F1 09 01  80 C2 F1 09 01 80 C3 F1  ................
00B0: 09 01 80 F0 FF FF 7F 1C  05 80 22 00 37 06 80 07  ..........".7...
00C0: 80 08 80 09 80 92 01 BA  F1 09 01 92 01 BB F1 09  ................
00D0: 01 92 01 BC F1 09 01 92  01 BD F1 09 01 92 01 BE  ................
00E0: F1 09 01 92 01 BF F1 09  01 92 01 C0 F1 09 01 92  ................
00F0: 01 C1 F1 09 01 92 01 C2  F1 09 01 92 01 C3 F1 09  ................
0100: 01 6C BA F1 09 01 00 80  0A 80 6C BB F1 09 01 00  .l........l.....
0110: 80 0A 80 6C BC F1 09 01  00 80 0A 80 6C BD F1 09  ...l........l...
0120: 01 00 80 0A 80 6C BE F1  09 01 00 80 0A 80 6C BF  .....l........l.
0130: F1 09 01 00 80 0A 80 6C  C0 F1 09 01 00 80 0A 80  .......l........
0140: 6C C1 F1 09 01 00 80 0A  80 6C C2 F1 09 01 00 80  l........l......
0150: 0A 80 6C C3 F1 09 01 00  80 0A 80 29 0B F0 FF FF  ..l........)....
0160: 7F 06 27 0B F0 FF FF 7F  07 1C 05 80 45 0B 80 F0  ..'.........E...
0170: FF FF 7F F0 FF FF 7F 73  30 36 36 00 80 45 01 80  .......s066..E..
0180: F0 FF FF 7F F0 FF FF 7F  66 64 69 31 00 80 2A 0B  ........fdi1..*.
0190: F0 FF FF 7F 1C 0C 80 5C  00 0D 80 5C 01 0D 80 48  .......\...\...H
01A0: 0E 80 23 52 0B 80 F0 FF  FF 7F F0 FF FF 7F 73 30  ..#R..........s0
01B0: 36 36 1C 0C 80 7B F0 FF  FF 7F 4A F0 FF FF 7F BA  66...{....J.....
01C0: F1 09 01 6F 76 F0 FF FF  7F 9F 0F 80 F8 FF FF 7F  ...ov...........
01D0: F8 FF FF 7F 73 6F 6E 64  00 80 9F 0F 80 BA F1 09  ....sond........
01E0: 01 BA F1 09 01 6D 61 69  6E 00 80 9F 0F 80 BB F1  .....main.......
01F0: 09 01 BB F1 09 01 6D 61  69 6E 00 80 9F 0F 80 BC  ......main......
0200: F1 09 01 BC F1 09 01 6D  61 69 6E 00 80 9F 0F 80  .......main.....
0210: BD F1 09 01 BD F1 09 01  6D 61 69 6E 00 80 9F 0F  ........main....
0220: 80 BE F1 09 01 BE F1 09  01 6D 61 69 6E 00 80 9F  .........main...
0230: 0F 80 BF F1 09 01 BF F1  09 01 6D 61 69 6E 00 80  ..........main..
0240: 9F 0F 80 C0 F1 09 01 C0  F1 09 01 6D 61 69 6E 00  ...........main.
0250: 80 9F 0F 80 C1 F1 09 01  C1 F1 09 01 6D 61 69 6E  ............main
0260: 00 80 9F 0F 80 C2 F1 09  01 C2 F1 09 01 6D 61 69  .............mai
0270: 6E 00 80 9F 0F 80 C3 F1  09 01 C3 F1 09 01 6D 61  n.............ma
0280: 69 6E 00 80 45 01 80 F0  FF FF 7F F0 FF FF 7F 6F  in..E..........o
0290: 76 6C 31 00 80 45 0B 80  F0 FF FF 7F F0 FF FF 7F  vl1..E..........
02A0: 73 30 36 35 00 80 6C BA  F1 09 01 10 80 11 80 6C  s065..l........l
02B0: BB F1 09 01 10 80 11 80  1C 12 80 52 0B 80 F0 FF  ...........R....
02C0: FF 7F F0 FF FF 7F 73 30  36 35 45 0B 80 F0 FF FF  ......s065E.....
02D0: 7F F0 FF FF 7F 73 30 36  37 00 80 6C BC F1 09 01  .....s067..l....
02E0: 10 80 11 80 6C BD F1 09  01 10 80 11 80 6C BE F1  ....l........l..
02F0: 09 01 10 80 11 80 6C BF  F1 09 01 10 80 11 80 6C  ......l........l
0300: C0 F1 09 01 10 80 11 80  52 0B 80 F0 FF FF 7F F0  ........R.......
0310: FF FF 7F 73 30 36 37 45  01 80 F0 FF FF 7F F0 FF  ...s067E........
0320: FF 7F 6F 76 6C 31 00 80  45 0B 80 F0 FF FF 7F F0  ..ovl1..E.......
0330: FF FF 7F 73 30 36 38 00  80 6C C1 F1 09 01 10 80  ...s068..l......
0340: 11 80 6C C2 F1 09 01 10  80 11 80 6C C3 F1 09 01  ..l........l....
0350: 10 80 11 80 1C 13 80 27  0B F0 FF FF 7F 1B 1C 10  .......'........
0360: 80 27 0B BA F1 09 01 08  27 0B C3 F1 09 01 08 27  .'......'......'
0370: 0B C2 F1 09 01 08 27 0B  BB F1 09 01 08 52 0B 80  ......'......R..
0380: F0 FF FF 7F F0 FF FF 7F  73 30 36 38 45 0B 80 F0  ........s068E...
0390: FF FF 7F F0 FF FF 7F 73  30 36 39 00 80 1C 01 80  .......s069.....
03A0: 45 14 80 F0 FF FF 7F F0  FF FF 7F 77 68 6F 31 00  E..........who1.
03B0: 80 5D 00 80 01 80 1C 01  80 2A 0B F0 FF FF 7F 52  .].......*.....R
03C0: 0B 80 F0 FF FF 7F F0 FF  FF 7F 73 30 36 39 9F 0F  ..........s069..
03D0: 80 F8 FF FF 7F F8 FF FF  7F 73 74 6F 70 00 80 5C  .........stop..\
03E0: 00 00 80 5C 01 00 80 46  00 45 14 80 F0 FF FF 7F  ...\...F.E......
03F0: F0 FF FF 7F 77 68 69 31  00 80 20 00 21 00        ....whi1.. .!.  
```

#### Opcodes

```
  0: 0x0001 [0x20] SET_CLI_EVENT_UC_FLAG: Lock player control
  1: 0x0003 [0x42] SET_CLI_EVENT_CANCEL_DATA()
  2: 0x0004 [0x46] CAMERA_CONTROL: Disable user control
  3: 0x0006 [0x5D] SET_MUSIC_VOLUME(volume=0*, fade_time=200*)
  4: 0x000B [0x62] LOAD_EVENT_SCHEDULER: Load scheduler "main" with entities [EventEntity, EventEntity], work=[3*, 0*]
  5: 0x001C [0x48] [System] [7449*]:
    → "Something lies under the rubble."
  6: 0x001F [0x23] WAIT_FOR_DIALOG_INTERACTION
  7: 0x0020 [0x45] LOAD_SCHEDULED_TASK: Load scheduler "fdo1" with entities [LocalPlayer, LocalPlayer], work=[200*, 0*]
  8: 0x0031 [0x1C] WAIT(200* ticks)
  9: 0x0034 [0x38] SET_CLIENT_EVENT_MODE(mode=19*)
 10: 0x0037 [0x29] REQ_SET_WAIT(priority=0x0B, entity_id=LocalPlayer, tag_num=0x1A)
 11: 0x003E [0x4E] SET_ENTITY_HIDE_FLAG: Show KODAI01 (ID: 17428922/0x0109F1BA)
 12: 0x0044 [0x4E] SET_ENTITY_HIDE_FLAG: Show KODAI02 (ID: 17428923/0x0109F1BB)
 13: 0x004A [0x4E] SET_ENTITY_HIDE_FLAG: Show KODAI03 (ID: 17428924/0x0109F1BC)
 14: 0x0050 [0x4E] SET_ENTITY_HIDE_FLAG: Show KODAI04 (ID: 17428925/0x0109F1BD)
 15: 0x0056 [0x4E] SET_ENTITY_HIDE_FLAG: Show KODAI05 (ID: 17428926/0x0109F1BE)
 16: 0x005C [0x4E] SET_ENTITY_HIDE_FLAG: Show KODAI06 (ID: 17428927/0x0109F1BF)
 17: 0x0062 [0x4E] SET_ENTITY_HIDE_FLAG: Show KODAI07 (ID: 17428928/0x0109F1C0)
 18: 0x0068 [0x4E] SET_ENTITY_HIDE_FLAG: Show KODAI08 (ID: 17428929/0x0109F1C1)
 19: 0x006E [0x4E] SET_ENTITY_HIDE_FLAG: Show KODAI09 (ID: 17428930/0x0109F1C2)
 20: 0x0074 [0x4E] SET_ENTITY_HIDE_FLAG: Show KODAI10 (ID: 17428931/0x0109F1C3)
 21: 0x007A [0x4E] SET_ENTITY_HIDE_FLAG: Show LocalPlayer
 22: 0x0080 [0x80] LOAD_WAIT(entity=KODAI01 (ID: 17428922/0x0109F1BA))
 23: 0x0085 [0x80] LOAD_WAIT(entity=KODAI02 (ID: 17428923/0x0109F1BB))
 24: 0x008A [0x80] LOAD_WAIT(entity=KODAI03 (ID: 17428924/0x0109F1BC))
 25: 0x008F [0x80] LOAD_WAIT(entity=KODAI04 (ID: 17428925/0x0109F1BD))
 26: 0x0094 [0x80] LOAD_WAIT(entity=KODAI05 (ID: 17428926/0x0109F1BE))
 27: 0x0099 [0x80] LOAD_WAIT(entity=KODAI06 (ID: 17428927/0x0109F1BF))
 28: 0x009E [0x80] LOAD_WAIT(entity=KODAI07 (ID: 17428928/0x0109F1C0))
 29: 0x00A3 [0x80] LOAD_WAIT(entity=KODAI08 (ID: 17428929/0x0109F1C1))
 30: 0x00A8 [0x80] LOAD_WAIT(entity=KODAI09 (ID: 17428930/0x0109F1C2))
 31: 0x00AD [0x80] LOAD_WAIT(entity=KODAI10 (ID: 17428931/0x0109F1C3))
 32: 0x00B2 [0x80] LOAD_WAIT(entity=LocalPlayer)
 33: 0x00B7 [0x1C] WAIT(10* ticks)
 34: 0x00BA [0x22] ENTITY_HIDE_FLAG(enabled=0x00)
 35: 0x00BC [0x37] UPDATE_EVENT_POSITION_AND_DIR: x=-220.141*, z=-20.020*, y=-0.005*, direction=350.4°*
 36: 0x00C5 [0x92] KODAI01 (ID: 17428922/0x0109F1BA)->Render.Flags3 ^= 0x01
 37: 0x00CB [0x92] KODAI02 (ID: 17428923/0x0109F1BB)->Render.Flags3 ^= 0x01
 38: 0x00D1 [0x92] KODAI03 (ID: 17428924/0x0109F1BC)->Render.Flags3 ^= 0x01
 39: 0x00D7 [0x92] KODAI04 (ID: 17428925/0x0109F1BD)->Render.Flags3 ^= 0x01
 40: 0x00DD [0x92] KODAI05 (ID: 17428926/0x0109F1BE)->Render.Flags3 ^= 0x01
 41: 0x00E3 [0x92] KODAI06 (ID: 17428927/0x0109F1BF)->Render.Flags3 ^= 0x01
 42: 0x00E9 [0x92] KODAI07 (ID: 17428928/0x0109F1C0)->Render.Flags3 ^= 0x01
 43: 0x00EF [0x92] KODAI08 (ID: 17428929/0x0109F1C1)->Render.Flags3 ^= 0x01
 44: 0x00F5 [0x92] KODAI09 (ID: 17428930/0x0109F1C2)->Render.Flags3 ^= 0x01
 45: 0x00FB [0x92] KODAI10 (ID: 17428931/0x0109F1C3)->Render.Flags3 ^= 0x01
 46: 0x0101 [0x6C] FADE_ENTITY_COLOR(entity_id=KODAI01 (ID: 17428922/0x0109F1BA), end_alpha=0*, fade_time=2*)
 47: 0x010A [0x6C] FADE_ENTITY_COLOR(entity_id=KODAI02 (ID: 17428923/0x0109F1BB), end_alpha=0*, fade_time=2*)
 48: 0x0113 [0x6C] FADE_ENTITY_COLOR(entity_id=KODAI03 (ID: 17428924/0x0109F1BC), end_alpha=0*, fade_time=2*)
 49: 0x011C [0x6C] FADE_ENTITY_COLOR(entity_id=KODAI04 (ID: 17428925/0x0109F1BD), end_alpha=0*, fade_time=2*)
 50: 0x0125 [0x6C] FADE_ENTITY_COLOR(entity_id=KODAI05 (ID: 17428926/0x0109F1BE), end_alpha=0*, fade_time=2*)
 51: 0x012E [0x6C] FADE_ENTITY_COLOR(entity_id=KODAI06 (ID: 17428927/0x0109F1BF), end_alpha=0*, fade_time=2*)
 52: 0x0137 [0x6C] FADE_ENTITY_COLOR(entity_id=KODAI07 (ID: 17428928/0x0109F1C0), end_alpha=0*, fade_time=2*)
 53: 0x0140 [0x6C] FADE_ENTITY_COLOR(entity_id=KODAI08 (ID: 17428929/0x0109F1C1), end_alpha=0*, fade_time=2*)
 54: 0x0149 [0x6C] FADE_ENTITY_COLOR(entity_id=KODAI09 (ID: 17428930/0x0109F1C2), end_alpha=0*, fade_time=2*)
 55: 0x0152 [0x6C] FADE_ENTITY_COLOR(entity_id=KODAI10 (ID: 17428931/0x0109F1C3), end_alpha=0*, fade_time=2*)
 56: 0x015B [0x29] REQ_SET_WAIT(priority=0x0B, entity_id=LocalPlayer, tag_num=0x06)
 57: 0x0162 [0x27] REQ_SET(priority=0x0B, entity_id=LocalPlayer, tag_num=0x07)
 58: 0x0169 [0x1C] WAIT(10* ticks)
 59: 0x016C [0x45] LOAD_SCHEDULED_TASK: Load scheduler "s066" with entities [LocalPlayer, LocalPlayer], work=[252*, 0*]
 60: 0x017D [0x45] LOAD_SCHEDULED_TASK: Load scheduler "fdi1" with entities [LocalPlayer, LocalPlayer], work=[200*, 0*]
 61: 0x018E [0x2A] GET_REQ_LEVEL(level=11, entity_id=LocalPlayer)
 62: 0x0194 [0x1C] WAIT(100* ticks)
 63: 0x0197 [0x5C] MUSIC_CONTROL: Set Idle (Day) music to song 203*
 64: 0x019B [0x5C] MUSIC_CONTROL: Set Idle (Night) music to song 203*
 65: 0x019F [0x48] [System] [7451*]:
    → "A haunting song suddenly echoes throughout the ruins..."
 66: 0x01A2 [0x23] WAIT_FOR_DIALOG_INTERACTION
 67: 0x01A3 [0x52] END_LOAD_SCHEDULER: End scheduler "s066" with entities [LocalPlayer, LocalPlayer], work=252*
 68: 0x01B2 [0x1C] WAIT(100* ticks)
 69: 0x01B5 [0x7B] LocalPlayer stops talking
 70: 0x01BA [0x4A] LocalPlayer looks at KODAI01 (ID: 17428922/0x0109F1BA)
 71: 0x01C3 [0x6F] WAIT_FRAME_DELAY: Yield until WaitTime reaches zero
 72: 0x01C4 [0x76] CHECK_ENTITY_RENDER_FLAGS: Wait until LocalPlayer Render.Flags0 and Render.Flags3 conditions are met
 73: 0x01C9 [0x9F] LOAD_SCHEDULED_TASK_ALT: Load scheduler "sond" with entities [EventEntity, EventEntity], work=[48*, 0*]
 74: 0x01DA [0x9F] LOAD_SCHEDULED_TASK_ALT: Load scheduler "main" with entities [KODAI01 (ID: 17428922/0x0109F1BA), KODAI01 (ID: 17428922/0x0109F1BA)], work=[48*, 0*]
 75: 0x01EB [0x9F] LOAD_SCHEDULED_TASK_ALT: Load scheduler "main" with entities [KODAI02 (ID: 17428923/0x0109F1BB), KODAI02 (ID: 17428923/0x0109F1BB)], work=[48*, 0*]
 76: 0x01FC [0x9F] LOAD_SCHEDULED_TASK_ALT: Load scheduler "main" with entities [KODAI03 (ID: 17428924/0x0109F1BC), KODAI03 (ID: 17428924/0x0109F1BC)], work=[48*, 0*]
 77: 0x020D [0x9F] LOAD_SCHEDULED_TASK_ALT: Load scheduler "main" with entities [KODAI04 (ID: 17428925/0x0109F1BD), KODAI04 (ID: 17428925/0x0109F1BD)], work=[48*, 0*]
 78: 0x021E [0x9F] LOAD_SCHEDULED_TASK_ALT: Load scheduler "main" with entities [KODAI05 (ID: 17428926/0x0109F1BE), KODAI05 (ID: 17428926/0x0109F1BE)], work=[48*, 0*]
 79: 0x022F [0x9F] LOAD_SCHEDULED_TASK_ALT: Load scheduler "main" with entities [KODAI06 (ID: 17428927/0x0109F1BF), KODAI06 (ID: 17428927/0x0109F1BF)], work=[48*, 0*]
 80: 0x0240 [0x9F] LOAD_SCHEDULED_TASK_ALT: Load scheduler "main" with entities [KODAI07 (ID: 17428928/0x0109F1C0), KODAI07 (ID: 17428928/0x0109F1C0)], work=[48*, 0*]
 81: 0x0251 [0x9F] LOAD_SCHEDULED_TASK_ALT: Load scheduler "main" with entities [KODAI08 (ID: 17428929/0x0109F1C1), KODAI08 (ID: 17428929/0x0109F1C1)], work=[48*, 0*]
 82: 0x0262 [0x9F] LOAD_SCHEDULED_TASK_ALT: Load scheduler "main" with entities [KODAI09 (ID: 17428930/0x0109F1C2), KODAI09 (ID: 17428930/0x0109F1C2)], work=[48*, 0*]
 83: 0x0273 [0x9F] LOAD_SCHEDULED_TASK_ALT: Load scheduler "main" with entities [KODAI10 (ID: 17428931/0x0109F1C3), KODAI10 (ID: 17428931/0x0109F1C3)], work=[48*, 0*]
 84: 0x0284 [0x45] LOAD_SCHEDULED_TASK: Load scheduler "ovl1" with entities [LocalPlayer, LocalPlayer], work=[200*, 0*]
 85: 0x0295 [0x45] LOAD_SCHEDULED_TASK: Load scheduler "s065" with entities [LocalPlayer, LocalPlayer], work=[252*, 0*]
 86: 0x02A6 [0x6C] FADE_ENTITY_COLOR(entity_id=KODAI01 (ID: 17428922/0x0109F1BA), end_alpha=60*, fade_time=40*)
 87: 0x02AF [0x6C] FADE_ENTITY_COLOR(entity_id=KODAI02 (ID: 17428923/0x0109F1BB), end_alpha=60*, fade_time=40*)
 88: 0x02B8 [0x1C] WAIT(120* ticks)
 89: 0x02BB [0x52] END_LOAD_SCHEDULER: End scheduler "s065" with entities [LocalPlayer, LocalPlayer], work=252*
 90: 0x02CA [0x45] LOAD_SCHEDULED_TASK: Load scheduler "s067" with entities [LocalPlayer, LocalPlayer], work=[252*, 0*]
 91: 0x02DB [0x6C] FADE_ENTITY_COLOR(entity_id=KODAI03 (ID: 17428924/0x0109F1BC), end_alpha=60*, fade_time=40*)
 92: 0x02E4 [0x6C] FADE_ENTITY_COLOR(entity_id=KODAI04 (ID: 17428925/0x0109F1BD), end_alpha=60*, fade_time=40*)
 93: 0x02ED [0x6C] FADE_ENTITY_COLOR(entity_id=KODAI05 (ID: 17428926/0x0109F1BE), end_alpha=60*, fade_time=40*)
 94: 0x02F6 [0x6C] FADE_ENTITY_COLOR(entity_id=KODAI06 (ID: 17428927/0x0109F1BF), end_alpha=60*, fade_time=40*)
 95: 0x02FF [0x6C] FADE_ENTITY_COLOR(entity_id=KODAI07 (ID: 17428928/0x0109F1C0), end_alpha=60*, fade_time=40*)
 96: 0x0308 [0x52] END_LOAD_SCHEDULER: End scheduler "s067" with entities [LocalPlayer, LocalPlayer], work=252*
 97: 0x0317 [0x45] LOAD_SCHEDULED_TASK: Load scheduler "ovl1" with entities [LocalPlayer, LocalPlayer], work=[200*, 0*]
 98: 0x0328 [0x45] LOAD_SCHEDULED_TASK: Load scheduler "s068" with entities [LocalPlayer, LocalPlayer], work=[252*, 0*]
 99: 0x0339 [0x6C] FADE_ENTITY_COLOR(entity_id=KODAI08 (ID: 17428929/0x0109F1C1), end_alpha=60*, fade_time=40*)
100: 0x0342 [0x6C] FADE_ENTITY_COLOR(entity_id=KODAI09 (ID: 17428930/0x0109F1C2), end_alpha=60*, fade_time=40*)
101: 0x034B [0x6C] FADE_ENTITY_COLOR(entity_id=KODAI10 (ID: 17428931/0x0109F1C3), end_alpha=60*, fade_time=40*)
102: 0x0354 [0x1C] WAIT(20* ticks)
103: 0x0357 [0x27] REQ_SET(priority=0x0B, entity_id=LocalPlayer, tag_num=0x1B)
104: 0x035E [0x1C] WAIT(60* ticks)
105: 0x0361 [0x27] REQ_SET(priority=0x0B, entity_id=KODAI01 (ID: 17428922/0x0109F1BA), tag_num=0x08)
106: 0x0368 [0x27] REQ_SET(priority=0x0B, entity_id=KODAI10 (ID: 17428931/0x0109F1C3), tag_num=0x08)
107: 0x036F [0x27] REQ_SET(priority=0x0B, entity_id=KODAI09 (ID: 17428930/0x0109F1C2), tag_num=0x08)
108: 0x0376 [0x27] REQ_SET(priority=0x0B, entity_id=KODAI02 (ID: 17428923/0x0109F1BB), tag_num=0x08)
109: 0x037D [0x52] END_LOAD_SCHEDULER: End scheduler "s068" with entities [LocalPlayer, LocalPlayer], work=252*
110: 0x038C [0x45] LOAD_SCHEDULED_TASK: Load scheduler "s069" with entities [LocalPlayer, LocalPlayer], work=[252*, 0*]
111: 0x039D [0x1C] WAIT(200* ticks)
112: 0x03A0 [0x45] LOAD_SCHEDULED_TASK: Load scheduler "who1" with entities [LocalPlayer, LocalPlayer], work=[201*, 0*]
113: 0x03B1 [0x5D] SET_MUSIC_VOLUME(volume=0*, fade_time=200*)
114: 0x03B6 [0x1C] WAIT(200* ticks)
115: 0x03B9 [0x2A] GET_REQ_LEVEL(level=11, entity_id=LocalPlayer)
116: 0x03BF [0x52] END_LOAD_SCHEDULER: End scheduler "s069" with entities [LocalPlayer, LocalPlayer], work=252*
117: 0x03CE [0x9F] LOAD_SCHEDULED_TASK_ALT: Load scheduler "stop" with entities [EventEntity, EventEntity], work=[48*, 0*]
118: 0x03DF [0x5C] MUSIC_CONTROL: Set Idle (Day) music to song 0*
119: 0x03E3 [0x5C] MUSIC_CONTROL: Set Idle (Night) music to song 0*
120: 0x03E7 [0x46] CAMERA_CONTROL: Restore default settings
121: 0x03E9 [0x45] LOAD_SCHEDULED_TASK: Load scheduler "whi1" with entities [LocalPlayer, LocalPlayer], work=[201*, 0*]
122: 0x03FA [0x20] SET_CLI_EVENT_UC_FLAG: Unlock player control
123: 0x03FC [0x21] END_EVENT
124: 0x03FD [0x00] END_REQSTACK()
```
